{"abi":[{"type":"constructor","inputs":[],"stateMutability":"nonpayable"},{"type":"function","name":"executeOnOpportunity","inputs":[],"outputs":[],"stateMutability":"nonpayable"},{"type":"function","name":"hypothesisValidated","inputs":[],"outputs":[{"name":"","type":"bool","internalType":"bool"}],"stateMutability":"view"},{"type":"function","name":"lastFailureReason","inputs":[],"outputs":[{"name":"","type":"string","internalType":"string"}],"stateMutability":"view"},{"type":"function","name":"onERC721Received","inputs":[{"name":"","type":"address","internalType":"address"},{"name":"","type":"address","internalType":"address"},{"name":"","type":"uint256","internalType":"uint256"},{"name":"","type":"bytes","internalType":"bytes"}],"outputs":[{"name":"","type":"bytes4","internalType":"bytes4"}],"stateMutability":"pure"},{"type":"function","name":"pathExecuted","inputs":[],"outputs":[{"name":"","type":"bool","internalType":"bool"}],"stateMutability":"view"},{"type":"function","name":"pathInfeasible","inputs":[],"outputs":[{"name":"","type":"bool","internalType":"bool"}],"stateMutability":"view"},{"type":"function","name":"profitAmount","inputs":[],"outputs":[{"name":"","type":"uint256","internalType":"uint256"}],"stateMutability":"view"},{"type":"function","name":"profitToken","inputs":[],"outputs":[{"name":"","type":"address","internalType":"address"}],"stateMutability":"view"}],"bytecode":{"object":"0x6080604052348015600e575f5ffd5b505f5f5f6101000a81548173ffffffffffffffffffffffffffffffffffffffff021916908373ffffffffffffffffffffffffffffffffffffffff1602179055506113bc8061005b5f395ff3fe608060405234801561000f575f5ffd5b5060043610610086575f3560e01c80634934362411610059578063493436241461010057806358c5084a1461011e5780635ff972cc1461013c578063995cade61461015a57610086565b8063095842431461008a578063150b7a02146100a85780633c2448ed146100d8578063463defd1146100e2575b5f5ffd5b610092610178565b60405161009f9190610ab9565b60405180910390f35b6100c260048036038101906100bd9190610bd8565b610204565b6040516100cf9190610c96565b60405180910390f35b6100e0610218565b005b6100ea6109e3565b6040516100f79190610cc9565b60405180910390f35b6101086109f5565b6040516101159190610cf1565b60405180910390f35b610126610a1c565b6040516101339190610cc9565b60405180910390f35b610144610a2f565b6040516101519190610d19565b60405180910390f35b610162610a38565b60405161016f9190610cc9565b60405180910390f35b6003805461018590610d5f565b80601f01602080910402602001604051908101604052809291908181526020018280546101b190610d5f565b80156101fc5780601f106101d3576101008083540402835291602001916101fc565b820191905f5260205f20905b8154815290600101906020018083116101df57829003601f168201915b505050505081565b5f63150b7a0260e01b905095945050505050565b5f73b84cbaf116eb90fd445dd5aeadfab3e807d2cbac90505f5f5f6101000a81548173ffffffffffffffffffffffffffffffffffffffff021916908373ffffffffffffffffffffffffffffffffffffffff1602179055505f6001819055505f60025f6101000a81548160ff0219169083151502179055505f600260016101000a81548160ff0219169083151502179055505f6002806101000a81548160ff02191690831515021790555060405180602001604052805f815250600390816102df9190610f5c565b505f8173ffffffffffffffffffffffffffffffffffffffff16634b6406d16040518163ffffffff1660e01b8152600401602060405180830381865afa15801561032a573d5f5f3e3d5ffd5b505050506040513d601f19601f8201168201806040525081019061034e919061103f565b90505f8273ffffffffffffffffffffffffffffffffffffffff1663cd3293de6040518163ffffffff1660e01b8152600401602060405180830381865afa15801561039a573d5f5f3e3d5ffd5b505050506040513d601f19601f820116820180604052508101906103be919061103f565b90505f8373ffffffffffffffffffffffffffffffffffffffff166318160ddd6040518163ffffffff1660e01b8152600401602060405180830381865afa15801561040a573d5f5f3e3d5ffd5b505050506040513d601f19601f8201168201806040525081019061042e919061103f565b905081831161049f5760016002806101000a81548160ff0219169083151502179055506040518060400160405280601c81526020017f7265736572766520636f6e73756d65732066756c6c20737570706c7900000000815250600390816104959190610f5c565b50505050506109e1565b5f82846104ac9190611097565b90508082106105015760016002806101000a81548160ff02191690831515021790555060405180606001604052806023815260200161136460239139600390816104f69190610f5c565b5050505050506109e1565b5f828261050e9190611097565b9050600181111561053457600160025f6101000a81548160ff0219169083151502179055505b5f5f67ffffffffffffffff81111561054f5761054e610d8f565b5b60405190808252806020026020018201604052801561057d5781602001602082028036833780820191505090505b5090505f8773ffffffffffffffffffffffffffffffffffffffff166370a08231306040518263ffffffff1660e01b81526004016105ba9190610cf1565b602060405180830381865afa1580156105d5573d5f5f3e3d5ffd5b505050506040513d601f19601f820116820180604052508101906105f9919061103f565b90508773ffffffffffffffffffffffffffffffffffffffff1663b187bd266040518163ffffffff1660e01b8152600401602060405180830381865afa158015610644573d5f5f3e3d5ffd5b505050506040513d601f19601f8201168201806040525081019061066891906110f4565b6108f7578773ffffffffffffffffffffffffffffffffffffffff1663fb4a9be083856040518363ffffffff1660e01b81526004016106a79291906111df565b5f604051808303815f87803b1580156106be575f5ffd5b505af19250505080156106cf575060015b610791576106db611219565b806308c379a00361072a57506106ef611269565b806106fa575061072c565b60016002806101000a81548160ff02191690831515021790555080600390816107239190610f5c565b505061078c565b505b60016002806101000a81548160ff0219169083151502179055506040518060400160405280601781526020017f77686974656c697374206d696e742072657665727465640000000000000000008152506003908161078a9190610f5c565b505b6108f2565b5f8873ffffffffffffffffffffffffffffffffffffffff166370a08231306040518263ffffffff1660e01b81526004016107cb9190610cf1565b602060405180830381865afa1580156107e6573d5f5f3e3d5ffd5b505050506040513d601f19601f8201168201806040525081019061080a919061103f565b9050818111156108a2576001600260016101000a81548160ff02191690831515021790555073b84cbaf116eb90fd445dd5aeadfab3e807d2cbac5f5f6101000a81548173ffffffffffffffffffffffffffffffffffffffff021916908373ffffffffffffffffffffffffffffffffffffffff160217905550818161088e9190611097565b6001819055505050505050505050506109e1565b60016002806101000a81548160ff0219169083151502179055506040518060600160405280602a815260200161133a602a9139600390816108e39190610f5c565b505050505050505050506109e1565b610957565b60016002806101000a81548160ff0219169083151502179055506040518060400160405280601c81526020017f6d696e74696e672070617573656420617420666f726b20737461746500000000815250600390816109559190610f5c565b505b60025f9054906101000a900460ff16156109d85773c02aaa39b223fe8d0a0e5c4f27ead9083c756cc25f5f6101000a81548173ffffffffffffffffffffffffffffffffffffffff021916908373ffffffffffffffffffffffffffffffffffffffff16021790555066038d7ea4c68000836109d191906112f8565b6001819055505b50505050505050505b565b60025f9054906101000a900460ff1681565b5f5f5f9054906101000a900473ffffffffffffffffffffffffffffffffffffffff16905090565b600260019054906101000a900460ff1681565b5f600154905090565b60028054906101000a900460ff1681565b5f81519050919050565b5f82825260208201905092915050565b8281835e5f83830152505050565b5f601f19601f8301169050919050565b5f610a8b82610a49565b610a958185610a53565b9350610aa5818560208601610a63565b610aae81610a71565b840191505092915050565b5f6020820190508181035f830152610ad18184610a81565b905092915050565b5f604051905090565b5f5ffd5b5f5ffd5b5f73ffffffffffffffffffffffffffffffffffffffff82169050919050565b5f610b1382610aea565b9050919050565b610b2381610b09565b8114610b2d575f5ffd5b50565b5f81359050610b3e81610b1a565b92915050565b5f819050919050565b610b5681610b44565b8114610b60575f5ffd5b50565b5f81359050610b7181610b4d565b92915050565b5f5ffd5b5f5ffd5b5f5ffd5b5f5f83601f840112610b9857610b97610b77565b5b8235905067ffffffffffffffff811115610bb557610bb4610b7b565b5b602083019150836001820283011115610bd157610bd0610b7f565b5b9250929050565b5f5f5f5f5f60808688031215610bf157610bf0610ae2565b5b5f610bfe88828901610b30565b9550506020610c0f88828901610b30565b9450506040610c2088828901610b63565b935050606086013567ffffffffffffffff811115610c4157610c40610ae6565b5b610c4d88828901610b83565b92509250509295509295909350565b5f7fffffffff0000000000000000000000000000000000000000000000000000000082169050919050565b610c9081610c5c565b82525050565b5f602082019050610ca95f830184610c87565b92915050565b5f8115159050919050565b610cc381610caf565b82525050565b5f602082019050610cdc5f830184610cba565b92915050565b610ceb81610b09565b82525050565b5f602082019050610d045f830184610ce2565b92915050565b610d1381610b44565b82525050565b5f602082019050610d2c5f830184610d0a565b92915050565b7f4e487b71000000000000000000000000000000000000000000000000000000005f52602260045260245ffd5b5f6002820490506001821680610d7657607f821691505b602082108103610d8957610d88610d32565b5b50919050565b7f4e487b71000000000000000000000000000000000000000000000000000000005f52604160045260245ffd5b5f819050815f5260205f209050919050565b5f6020601f8301049050919050565b5f82821b905092915050565b5f60088302610e187fffffffffffffffffffffffffffffffffffffffffffffffffffffffffffffffff82610ddd565b610e228683610ddd565b95508019841693508086168417925050509392505050565b5f819050919050565b5f610e5d610e58610e5384610b44565b610e3a565b610b44565b9050919050565b5f819050919050565b610e7683610e43565b610e8a610e8282610e64565b848454610de9565b825550505050565b5f5f905090565b610ea1610e92565b610eac818484610e6d565b505050565b5b81811015610ecf57610ec45f82610e99565b600181019050610eb2565b5050565b601f821115610f1457610ee581610dbc565b610eee84610dce565b81016020851015610efd578190505b610f11610f0985610dce565b830182610eb1565b50505b505050565b5f82821c905092915050565b5f610f345f1984600802610f19565b1980831691505092915050565b5f610f4c8383610f25565b9150826002028217905092915050565b610f6582610a49565b67ffffffffffffffff811115610f7e57610f7d610d8f565b5b610f888254610d5f565b610f93828285610ed3565b5f60209050601f831160018114610fc4575f8415610fb2578287015190505b610fbc8582610f41565b865550611023565b601f198416610fd286610dbc565b5f5b82811015610ff957848901518255600182019150602085019450602081019050610fd4565b868310156110165784890151611012601f891682610f25565b8355505b6001600288020188555050505b505050505050565b5f8151905061103981610b4d565b92915050565b5f6020828403121561105457611053610ae2565b5b5f6110618482850161102b565b91505092915050565b7f4e487b71000000000000000000000000000000000000000000000000000000005f52601160045260245ffd5b5f6110a182610b44565b91506110ac83610b44565b92508282039050818111156110c4576110c361106a565b5b92915050565b6110d381610caf565b81146110dd575f5ffd5b50565b5f815190506110ee816110ca565b92915050565b5f6020828403121561110957611108610ae2565b5b5f611116848285016110e0565b91505092915050565b5f81519050919050565b5f82825260208201905092915050565b5f819050602082019050919050565b5f819050919050565b61115a81611148565b82525050565b5f61116b8383611151565b60208301905092915050565b5f602082019050919050565b5f61118d8261111f565b6111978185611129565b93506111a283611139565b805f5b838110156111d25781516111b98882611160565b97506111c483611177565b9250506001810190506111a5565b5085935050505092915050565b5f6040820190508181035f8301526111f78185611183565b90506112066020830184610d0a565b9392505050565b5f8160e01c9050919050565b5f60033d11156112355760045f5f3e6112325f5161120d565b90505b90565b61124182610a71565b810181811067ffffffffffffffff821117156112605761125f610d8f565b5b80604052505050565b5f60443d106112f55761127a610ad9565b60043d036004823e80513d602482011167ffffffffffffffff821117156112a25750506112f5565b808201805167ffffffffffffffff8111156112c057505050506112f5565b80602083010160043d0385018111156112dd5750505050506112f5565b6112ec82602001850186611238565b82955050505050505b90565b5f61130282610b44565b915061130d83610b44565b925082820261131b81610b44565b915082820484148315176113325761133161106a565b5b509291505056fe6d696e742072657475726e656420776974686f7574204e46542062616c616e636520696e6372656173657075626c696320616c6c6f636174696f6e20616c726561647920657868617573746564a264697066735822122063691985efd5b73d2d28838903157ac7f4de59500480fab67200d4f22df6929964736f6c634300081e0033","linkReferences":{}},"methodIdentifiers":{"executeOnOpportunity()":"3c2448ed","hypothesisValidated()":"463defd1","lastFailureReason()":"09584243","onERC721Received(address,address,uint256,bytes)":"150b7a02","pathExecuted()":"58c5084a","pathInfeasible()":"995cade6","profitAmount()":"5ff972cc","profitToken()":"49343624"},"id":0}