{"abi":[{"type":"constructor","inputs":[],"stateMutability":"nonpayable"},{"type":"receive","stateMutability":"payable"},{"type":"function","name":"_attemptCandidate","inputs":[{"name":"tokenT","type":"address","internalType":"address"},{"name":"buyRouter","type":"address","internalType":"address"},{"name":"sellRouter","type":"address","internalType":"address"}],"outputs":[{"name":"gained","type":"uint256","internalType":"uint256"}],"stateMutability":"nonpayable"},{"type":"function","name":"_performRound","inputs":[{"name":"tokenT","type":"address","internalType":"address"},{"name":"buyRouter","type":"address","internalType":"address"},{"name":"sellRouter","type":"address","internalType":"address"},{"name":"wethBudget","type":"uint256","internalType":"uint256"},{"name":"checkpoint","type":"uint256","internalType":"uint256"}],"outputs":[{"name":"newCheckpoint","type":"uint256","internalType":"uint256"}],"stateMutability":"nonpayable"},{"type":"function","name":"executeOnOpportunity","inputs":[],"outputs":[],"stateMutability":"nonpayable"},{"type":"function","name":"profitAmount","inputs":[],"outputs":[{"name":"","type":"uint256","internalType":"uint256"}],"stateMutability":"view"},{"type":"function","name":"profitToken","inputs":[],"outputs":[{"name":"","type":"address","internalType":"address"}],"stateMutability":"pure"},{"type":"function","name":"receiveFlashLoan","inputs":[{"name":"tokens","type":"address[]","internalType":"contract IERC20[]"},{"name":"amounts","type":"uint256[]","internalType":"uint256[]"},{"name":"feeAmounts","type":"uint256[]","internalType":"uint256[]"},{"name":"","type":"bytes","internalType":"bytes"}],"outputs":[],"stateMutability":"nonpayable"},{"type":"error","name":"InvalidFlashLoan","inputs":[]},{"type":"error","name":"NoPreexistingInventory","inputs":[]},{"type":"error","name":"NoProfitablePath","inputs":[]},{"type":"error","name":"NotEnoughShortfall","inputs":[]},{"type":"error","name":"NotProfitable","inputs":[]},{"type":"error","name":"OnlySelf","inputs":[]},{"type":"error","name":"PairUnavailable","inputs":[]},{"type":"error","name":"RoundNotImproving","inputs":[]},{"type":"error","name":"SwapOutputTooSmall","inputs":[]},{"type":"error","name":"TokenNotTaxed","inputs":[]}],"bytecode":{"object":"0x60a08060405234606a576101d48181016001600160401b038111838210176056578291612658833903905ff08015604b576080526040516125e9908161006f8239608051816106450152f35b6040513d5f823e3d90fd5b634e487b7160e01b5f52604160045260245ffd5b5f80fdfe6080604052600436101561001a575b3615610018575f80fd5b005b5f5f3560e01c80633c2448ed146116c1578063493436241461169a5780635ff972cc1461167d5780638a35fe70146113d8578063e3856030146103525763f04f270714610067575061000e565b3461034f57608036600319011261034f5760043567ffffffffffffffff811161032157366023820112156103215780600401356100a38161173d565b916100b1604051938461171b565b8183526024602084019260051b8201019036821161034d57602401915b8183106103295750505060243567ffffffffffffffff8111610325576100f8903690600401611755565b60443567ffffffffffffffff811161031d57610118903690600401611755565b918360643567ffffffffffffffff81116103215736602382011215610321578060040135610145816117b2565b610152604051918261171b565b818152366024838501011161031d57816024602094018483013701015273ba12222222228d8ba445958a75a0704d566bf2c833036102f6576001815114801590610311575b8015610305575b6102f6575f5160206125945f395f51905f52906001600160a01b03906101c3906117ce565b5116148015906102da575b6102cb5761020283926101fb6101f485946101e7611cc1565b6101ef611ab3565b6117ce565b51916117ce565b5190611aa6565b604051602081019163a9059cbb60e01b835273ba12222222228d8ba445958a75a0704d566bf2c8602483015260448201526044815261024260648261171b565b5190825f5160206125945f395f51905f525af161025d611bb8565b8161029c575b501561026c5780f35b60405162461bcd60e51b81526020600482015260086024820152673a3930b739b332b960c11b6044820152606490fd5b80518015925082156102b1575b50505f610263565b6102c492506020809183010191016123e2565b5f806102a9565b63bafe1c5360e01b8352600483fd5b50680340aad21b3b7000006102ee826117ce565b5114156101ce565b63bafe1c5360e01b8452600484fd5b5060018351141561019e565b50600182511415610197565b8380fd5b5080fd5b8280fd5b82356001600160a01b0381168103610349578152602092830192016100ce565b8580fd5b845b80fd5b5034610d885760a0366003190112610d885761036c6116d9565b6103746116ef565b9061037d611705565b916064353033036113c9576040519360c0850185811067ffffffffffffffff8211176113b5576040525f85525f60208601525f60408601525f60608601525f60808601525f60a08601526103d88460018060a01b03926123fa565b1680855215801561139b575b61138c576040516312362e6960e21b8152602081600481733335a88bb18fd3b6824b59af62b50ce4941433335afa90811561126b575f9161135a575b50602085015261042f83611be7565b8060408601521561134b576040516370a0823160e01b81523060048201526020816024815f5160206125945f395f51905f525afa90811561126b575f91611319575b50610480602086015183611aa6565b101561130a576104903084611c6d565b90604051925f806020860163095ea7b360e01b815260018060a01b03841696876024820152826044820152604481526104ca60648261171b565b5190825f5160206125945f395f51905f525af16104e5611bb8565b816112db575b5015610f075760405163095ea7b360e01b602082019081526001600160a01b039092166024820152604481018390525f91829161053581606481015b03601f19810183528261171b565b5190825f5160206125945f395f51905f525af1610550611bb8565b816112ac575b5015610f07576060926040519161056d858461171b565b600283526020830190601f1986013683375f5160206125945f395f51905f52610595856117ce565b52835160011015611298576001600160a01b0387166040850152823b15610d88579290604051938492635c11d79560e01b845260a484019160048501525f602485015260a060448501525180915260c4830191905f5b8181106112765750505091815f81819530606483015242608483015203925af1801561126b57611254575b5061062a906106253085611c6d565b611a99565b80156112455760c8810490811561123a575b50801561118b577f00000000000000000000000000000000000000000000000000000000000000006001600160a01b03166106778185611c6d565b8680604051602081019063095ea7b360e01b8252856024820152826044820152604481526106a660648261171b565b519082895af16106b4611bb8565b8161120b575b5015610f075760405163095ea7b360e01b602082019081526001600160a01b03841660248301526044820185905288918291906106fa8160648101610527565b519082895af1610708611bb8565b816111dc575b5015610f0757813b156110ad57604051637372c2b560e01b81526001600160a01b0386166004820152306024820152604481018490528790818160648183885af18015610db4576111c7575b50506106256107699286611c6d565b80158080156111bd575b6111ae57620f42408202918204620f424014171561119a579061079591611b87565b6107d081111561118b576107cf198101908111611177576107b63084611c6d565b8015611168576060850181905260405163c75b3d4160e01b8152602081600481733335a88bb18fd3b6824b59af62b50ce4941433335afa9081156110b8578791611132575b509161081a82620f4240610813819661082996611ba5565b0490611a99565b60808701526060860151611ba5565b04806080850151111561112357610844906080850151611a99565b60408401511115611114576040516370a0823160e01b81523060048201526020816024815f5160206125945f395f51905f525afa9081156111095785916110d7575b5060a0840152825160405191906001600160a01b03166080830167ffffffffffffffff8111848210176110c3576040528583528560208401528560408401528582840152604051630240bc6b60e21b81528281600481855afa80156110b8578791889161105b575b50604051630dfe168160e01b8152602081600481875afa908115611050578991611016575b506001600160a01b0316915f5160206125945f395f51905f528303611000576001600160701b0380600192169216925b60405163d21220a760e01b815290602082600481895afa918215610ff5578b92610fb9575b506001600160a01b03891614908115610fa3575b5015610f9457151585850152602085015283526109999084611c6d565b604083015260018060a01b038451166020850151906080860151906060870151908880604051602081019063095ea7b360e01b8252733335a88bb18fd3b6824b59af62b50ce4941433336024820152826044820152604481526109fd60648261171b565b5190828b5af1610a0b611bb8565b81610f65575b5015610f07578880604051602081019063095ea7b360e01b8252733335a88bb18fd3b6824b59af62b50ce494143333602482015285604482015260448152610a5a60648261171b565b5190828b5af1610a68611bb8565b81610f36575b5015610f0757478411610e94575b60405163a9059cbb60e01b60208201526001600160a01b03919091166024820152604480820193909352918252610ab460648361171b565b604051928361010081011067ffffffffffffffff61010086011117610e8057610100840160409081526001600160a01b0388168086526020860193845260019186019182525f5160206125945f395f51905f52878701908152608087018c81523060a0890190815260c089018e815260e08a019485528e99939891979596959490733335a88bb18fd3b6824b59af62b50ce4941433333b15610e7c5760405163039456b960e61b815294516001600160a01b0390811660048701529551602486015296516044850152975184166064840152905160848301529451821660a48201529251811660c48401529351841660e483015292871661010482015261014061012482015291839183919082908190610bd390610144830190611821565b0391733335a88bb18fd3b6824b59af62b50ce4941433335af18015610db457610e67575b5050610c0283611be7565b60408501511115610e585783516001600160a01b031692610c24908490611c6d565b60408301518111801590610e4d575b610e3e57610c46610c5391845190611a99565b83516020850151916124a2565b918215610e3e5701518492919015610dbf57604051610c7360208261171b565b838152823b1561031d57610cb99284928360405180968195829463022c0d9f60e01b84526004840152836024840152306044840152608060648401526084830190611821565b03925af18015610db457610d9f575b50505b6040516370a0823160e01b8152306004820152906020826024815f5160206125945f395f51905f525afa918215610d94578392610d5a575b5080602060a0610d1893015191015190611aa6565b1015610d4b57610d26611b0e565b90608435821115610d3c57602082604051908152f35b633c72dfcb60e21b8152600490fd5b63a5adf0af60e01b8152600490fd5b9091506020813d602011610d8c575b81610d766020938361171b565b81010312610d88575190610d18610d03565b5f80fd5b3d9150610d69565b6040513d85823e3d90fd5b81610da99161171b565b61032157815f610cc8565b6040513d84823e3d90fd5b604051610dcd60208261171b565b838152823b1561031d57610e139284928360405180968195829463022c0d9f60e01b84528460048501526024840152306044840152608060648401526084830190611821565b03925af18015610db457610e29575b5050610ccb565b81610e339161171b565b61032157815f610e22565b6304490bb560e11b8652600486fd5b508251811115610c33565b6317584f8760e01b8552600485fd5b81610e719161171b565b61034d57845f610bf7565b8a80fd5b634e487b7160e01b89526041600452602489fd5b88610e9f4786611a99565b5f5160206125945f395f51905f523b156103215760405190632e1a7d4d60e01b825260048201528181602481835f5160206125945f395f51905f525af18015610db457610eee575b5050610a7c565b81610ef89161171b565b610f0357885f610ee7565b8880fd5b60405162461bcd60e51b8152602060048201526007602482015266617070726f766560c81b6044820152606490fd5b8051801592508215610f4b575b50505f610a6e565b610f5e92506020809183010191016123e2565b5f80610f43565b8051801592508215610f7a575b50505f610a11565b610f8d92506020809183010191016123e2565b5f80610f72565b6380866ff760e01b8952600489fd5b6001600160a01b0389811691161490505f61097c565b9091506020813d602011610fed575b81610fd56020938361171b565b81010312610e7c57610fe690611cad565b905f610968565b3d9150610fc8565b6040513d8d823e3d90fd5b6001600160701b03908116929116908890610943565b90506020813d602011611048575b816110316020938361171b565b81010312610f035761104290611cad565b5f610913565b3d9150611024565b6040513d8b823e3d90fd5b809250848092503d83116110b1575b611074818361171b565b810103126110ad576110858161248e565b60406110936020840161248e565b92015163ffffffff8116036110a957905f6108ee565b8780fd5b8680fd5b503d61106a565b6040513d89823e3d90fd5b634e487b7160e01b87526041600452602487fd5b90506020813d602011611101575b816110f26020938361171b565b81010312610d8857515f610886565b3d91506110e5565b6040513d87823e3d90fd5b6317584f8760e01b8452600484fd5b6312b6d8b960e31b8552600485fd5b9290506020833d602011611160575b8161114e6020938361171b565b81010312610d8857915161081a6107fb565b3d9150611141565b63a5adf0af60e01b8652600486fd5b634e487b7160e01b85526011600452602485fd5b63a23dfdd960e01b8552600485fd5b634e487b7160e01b86526011600452602486fd5b63a23dfdd960e01b8752600487fd5b5082821015610773565b816111d19161171b565b6110ad57865f61075a565b80518015925082156111f1575b50505f61070e565b61120492506020809183010191016123e2565b5f806111e9565b8051801592508215611220575b50505f6106ba565b61123392506020809183010191016123e2565b5f80611218565b60149150045f61063c565b63a5adf0af60e01b8552600485fd5b6112619195505f9061171b565b5f9361062a610616565b6040513d5f823e3d90fd5b82516001600160a01b03168452869450602093840193909201916001016105eb565b634e487b7160e01b5f52603260045260245ffd5b80518015925082156112c1575b50505f610556565b6112d492506020809183010191016123e2565b5f806112b9565b80518015925082156112f0575b50505f6104eb565b61130392506020809183010191016123e2565b5f806112e8565b63a5adf0af60e01b5f5260045ffd5b90506020813d602011611343575b816113346020938361171b565b81010312610d8857515f610471565b3d9150611327565b6317584f8760e01b5f5260045ffd5b90506020813d602011611384575b816113756020938361171b565b81010312610d8857515f610420565b3d9150611368565b6380866ff760e01b5f5260045ffd5b506001600160a01b036113ae84846123fa565b16156103e4565b634e487b7160e01b5f52604160045260245ffd5b63029a949d60e31b5f5260045ffd5b34610d88576060366003190112610d88576113f16116d9565b6113f96116ef565b611401611705565b3033036113c957611410611b0e565b926040516370a0823160e01b81523060048201526020816024815f5160206125945f395f51905f525afa801561126b575f9061164a575b6014915004926729a2241af62c0000841161163a575b831561130a57604051630e38560360e41b81529060208280611486898989878a60048701611a66565b03815f305af191821561126b575f92611605575b5060206114bf9260405180948192630e38560360e41b83528989878a60048701611a66565b03815f305af191821561126b575f926115d1575b506114e18683949394611a99565b916003925b600684111561151b575b505050505050506114ff611b0e565b8181111561130a5760209161151391611a99565b604051908152f35b602061153f9560405180978192630e38560360e41b83528b8b898960048701611a66565b03815f305af15f958161159e575b50155f036114f05761155f8886611a99565b9081111561158f5793925f19811461157b5760010192936114e6565b634e487b7160e01b5f52601160045260245ffd5b633c72dfcb60e21b5f5260045ffd5b9095506020813d82116115c9575b816115b96020938361171b565b81010312610d885751948961154d565b3d91506115ac565b9091506020813d6020116115fd575b816115ed6020938361171b565b81010312610d88575190866114d3565b3d91506115e0565b91506020823d602011611632575b816116206020938361171b565b81010312610d8857905190602061149a565b3d9150611613565b6729a2241af62c0000935061145d565b506020813d602011611675575b816116646020938361171b565b81010312610d885760149051611447565b3d9150611657565b34610d88575f366003190112610d88576020600154604051908152f35b34610d88575f366003190112610d885760206040515f5160206125945f395f51905f528152f35b34610d88575f366003190112610d8857610018611845565b600435906001600160a01b0382168203610d8857565b602435906001600160a01b0382168203610d8857565b604435906001600160a01b0382168203610d8857565b90601f8019910116810190811067ffffffffffffffff8211176113b557604052565b67ffffffffffffffff81116113b55760051b60200190565b9080601f83011215610d8857813561176c8161173d565b9261177a604051948561171b565b81845260208085019260051b820101928311610d8857602001905b8282106117a25750505090565b8135815260209182019101611795565b67ffffffffffffffff81116113b557601f01601f191660200190565b8051156112985760200190565b80518210156112985760209160051b010190565b906117f98261173d565b611806604051918261171b565b8281528092611817601f199161173d565b0190602036910137565b805180835260209291819084018484015e5f828201840152601f01601f1916010190565b5f5f5460ff8116611a625760ff19166001175f5560408051611867828261171b565b600181526020810190601f198301803684375f5160206125945f395f51905f52611890836117ce565b52835161189d858261171b565b600181526020810191368337680340aad21b3b7000006118bc826117ce565b526020938551916118cd868461171b565b5f835273ba12222222228d8ba445958a75a0704d566bf2c83b15610d88578651632e1c224f60e11b81523060048201526080602482015294516084860181905285939260a485019288929091905f5b818110611a405750505084830360031901604486015251808352910193905f5b87828210611a2957505050506119605f938392600319848303016064850152611821565b03818373ba12222222228d8ba445958a75a0704d566bf2c85af18015611a1f57611a0a575b5061198e611ab3565b81516370a0823160e01b81523060048201529080826024815f5160206125945f395f51905f525afa928315611a01575083926119d3575b50508060015515610d4b5750565b90809250813d83116119fa575b6119ea818361171b565b81010312610d8857515f806119c5565b503d6119e0565b513d85823e3d90fd5b611a179193505f9061171b565b5f915f611985565b83513d5f823e3d90fd5b83518752958601958795509092019160010161193c565b82516001600160a01b03168652899750948401948a949092019160010161191c565b5050565b6001600160a01b039182168152918116602083015290911660408201526060810191909152608081019190915260a00190565b9190820391821161157b57565b9190820180921161157b57565b4780611abc5750565b5f5160206125945f395f51905f523b15610d88575f60049160405192838092630d0e30db60e41b82525f5160206125945f395f51905f525af1801561126b57611b025750565b5f611b0c9161171b565b565b6040516370a0823160e01b81523060048201526020816024815f5160206125945f395f51905f525afa801561126b575f90611b53575b611b5091504790611aa6565b90565b506020813d602011611b7f575b81611b6d6020938361171b565b81010312610d8857611b509051611b44565b3d9150611b60565b8115611b91570490565b634e487b7160e01b5f52601260045260245ffd5b8181029291811591840414171561157b57565b3d15611be2573d90611bc9826117b2565b91611bd7604051938461171b565b82523d5f602084013e565b606090565b803b15611c5d575f809160405160208101906370a0823160e01b8252733335a88bb18fd3b6824b59af62b50ce494143333602482015260248152611c2c60448261171b565b51915afa611c38611bb8565b90158015611c62575b611c5d5760208151918180820193849201010312610d88575190565b505f90565b506020815110611c41565b90813b15611ca7575f91829160405160208101916370a0823160e01b835260018060a01b0316602482015260248152611c2c60448261171b565b50505f90565b51906001600160a01b0382168203610d8857565b604051633a68ff8360e01b8152905f82600481733335a88bb18fd3b6824b59af62b50ce4941433335afa91821561126b575f92612347575b508151156123385781518060021b908082046004149015171561157b57611d1f906117ef565b82518060021b908082046004149015171561157b57611d3d906117ef565b9280518060021b908082046004149015171561157b57611d5c906117ef565b9181518060021b908082046004149015171561157b57611d7b906117ef565b905f925f5b815181101561211a576001600160a01b03611d9b82846117db565b511680158015612104575b6120fb57611db381611be7565b9081156120f157604460206001600160a01b03611de3737a250d5630b4cf539739df2c5dacb4c659f2488d612515565b166040519283809263e6a4390560e01b82528660048301525f5160206125945f395f51905f5260248301525afa90811561126b575f916120b8575b506001600160a01b039081161590604490821590602090611e5273d9e1ce17f2641f24ae83637ab66a2cca9c378b9f612515565b166040519384809263e6a4390560e01b82528860048301525f5160206125945f395f51905f5260248301525afa91821561126b578d928c915f9161207b575b506001600160a01b0316158015949081612073575b50612065578161201b575b8180612014575b611fb1575b50829081611fa9575b50611f45575b50611ede575b50506001905b01611d80565b9560019296918392611ef083886117db565b5273d9e1ce17f2641f24ae83637ab66a2cca9c378b9f611f10838d6117db565b5273d9e1ce17f2641f24ae83637ab66a2cca9c378b9f611f30838b6117db565b52611f3b82886117db565b520194905f611ed2565b9773d9e1ce17f2641f24ae83637ab66a2cca9c378b9f611f74826001949b86611f6e838d6117db565b526117db565b52737a250d5630b4cf539739df2c5dacb4c659f2488d611f94828c6117db565b5283611fa0828a6117db565b5201968a611ecc565b90505f611ec6565b8a73d9e1ce17f2641f24ae83637ab66a2cca9c378b9f611ffd8260019488969f611fdd8f918c926117db565b52737a250d5630b4cf539739df2c5dacb4c659f2488d611f6e838a6117db565b5286612009828d6117db565b52019990508a611ebd565b5083611eb8565b99737a250d5630b4cf539739df2c5dacb4c659f2488d612050826001949d88612044838f6117db565b5283611f6e83896117db565b528561205c828c6117db565b5201988a611eb1565b505050505050600190611ed8565b90505f611ea6565b935050506020823d82116120b0575b816120976020938361171b565b81010312610d88578a6120aa8e93611cad565b5f611e91565b3d915061208a565b90506020813d82116120e9575b816120d26020938361171b565b81010312610d88576120e390611cad565b5f611e1e565b3d91506120c5565b5050600190611ed8565b50600190611ed8565b505f5160206125945f395f51905f528114611da6565b505090949291939484156123385760015b85811061220b5750505f5b84811061214c5763b806b7b960e01b5f5260045ffd5b6001600160a01b0361215e82846117db565b51166001600160a01b0361217283876117db565b51166001600160a01b0361218684876117db565b511690604051926308a35fe760e41b84526004840152602483015260448201526020816064815f305af15f91816121d8575b506121c7575b50600101612136565b6121d1575f6121be565b5050505050565b9091506020813d8211612203575b816121f36020938361171b565b81010312610d885751905f6121b8565b3d91506121e6565b90949291939560018060a01b0361222283876117db565b5116936001600160a01b03612237848a6117db565b51166001600160a01b0361224b85876117db565b511691612258858a6117db565b5193855b8015158061231a575b156122db575f1981019080821161157b576122d56122cd838f8f908f61229e8760018060a01b0361229687856117db565b5116926117db565b526122b5866001600160a01b0361229686856117db565b528c611f6e866001600160a01b0361229686856117db565b51918d6117db565b5261225c565b909a9896979360019593612313939b97956122f6848b6117db565b52612301838c6117db565b5261230c828a6117db565b52856117db565b520161212b565b505f19810181811161157b5761233187918d6117db565b5110612265565b63b806b7b960e01b5f5260045ffd5b9091503d805f833e612359818361171b565b810190602081830312610d885780519067ffffffffffffffff8211610d8857019080601f83011215610d885781516123908161173d565b9261239e604051948561171b565b81845260208085019260051b820101928311610d8857602001905b8282106123ca57505050905f611cf9565b602080916123d784611cad565b8152019101906123b9565b90816020910312610d8857518015158103610d885790565b6020906001600160a01b039061240f90612515565b60405163e6a4390560e01b81526001600160a01b0390941660048501525f5160206125945f395f51905f52602485015283916044918391165afa90811561126b575f9161245a575090565b90506020813d602011612486575b816124756020938361171b565b81010312610d8857611b5090611cad565b3d9150612468565b51906001600160701b0382168203610d8857565b91821580801561250d575b8015612505575b6124fd576103e584029384046103e514171561157b576124d49083611ba5565b906103e88102908082046103e8149015171561157b57611b50926124f791611aa6565b90611b87565b505050505f90565b5081156124b4565b5082156124ad565b6001600160a01b0316737a250d5630b4cf539739df2c5dacb4c659f2488d811461257a5773d9e1ce17f2641f24ae83637ab66a2cca9c378b9f14612562576380866ff760e01b5f5260045ffd5b73c0aee478e3658e2610c5f7a4a2e1777ce9e4f2ac90565b50735c69bee701ef814a2b6a3edd4b1652cb9cc5aa6f9056fe000000000000000000000000c02aaa39b223fe8d0a0e5c4f27ead9083c756cc2a2646970667358221220a3bc09c22f2dbd22fb29a4c8bfb35939a7e30822514d87adf2c188a536071dfb64736f6c634300081e0033608080604052346015576101ba908161001a8239f35b5f80fdfe6080806040526004361015610012575f80fd5b5f3560e01c637372c2b514610025575f80fd5b3461014357606036600319011261014357600435906001600160a01b0382168203610143576024356001600160a01b0381169290839003610143575f9283836020829501926323b872dd60e01b84526024820152306044820152604435606482015260648152610096608482610162565b51925af13d1561015b573d67ffffffffffffffff811161014757604051906100c8601f8201601f191660200183610162565b81523d5f602083013e5b8161010b575b50156100e057005b606460405162461bcd60e51b81526020600482015260046024820152631c1d5b1b60e21b6044820152fd5b8051801592508215610120575b50505f6100d8565b819250906020918101031261014357602001518015158103610143575f80610118565b5f80fd5b634e487b7160e01b5f52604160045260245ffd5b60606100d2565b90601f8019910116810190811067ffffffffffffffff8211176101475760405256fea2646970667358221220e13f9a320e1af0c6bb29abed046acdfbfbbd0e8b3d74a639d2ebc3d3b134942464736f6c634300081e0033","linkReferences":{}},"methodIdentifiers":{"_attemptCandidate(address,address,address)":"8a35fe70","_performRound(address,address,address,uint256,uint256)":"e3856030","executeOnOpportunity()":"3c2448ed","profitAmount()":"5ff972cc","profitToken()":"49343624","receiveFlashLoan(address[],uint256[],uint256[],bytes)":"f04f2707"},"id":0}