{"abi":[{"type":"constructor","inputs":[],"stateMutability":"nonpayable"},{"type":"function","name":"pull","inputs":[{"name":"token","type":"address","internalType":"address"},{"name":"from","type":"address","internalType":"address"},{"name":"amount","type":"uint256","internalType":"uint256"}],"outputs":[],"stateMutability":"nonpayable"}],"bytecode":{"object":"0x608080604052346015576101ba908161001a8239f35b5f80fdfe6080806040526004361015610012575f80fd5b5f3560e01c637372c2b514610025575f80fd5b3461014357606036600319011261014357600435906001600160a01b0382168203610143576024356001600160a01b0381169290839003610143575f9283836020829501926323b872dd60e01b84526024820152306044820152604435606482015260648152610096608482610162565b51925af13d1561015b573d67ffffffffffffffff811161014757604051906100c8601f8201601f191660200183610162565b81523d5f602083013e5b8161010b575b50156100e057005b606460405162461bcd60e51b81526020600482015260046024820152631c1d5b1b60e21b6044820152fd5b8051801592508215610120575b50505f6100d8565b819250906020918101031261014357602001518015158103610143575f80610118565b5f80fd5b634e487b7160e01b5f52604160045260245ffd5b60606100d2565b90601f8019910116810190811067ffffffffffffffff8211176101475760405256fea2646970667358221220e13f9a320e1af0c6bb29abed046acdfbfbbd0e8b3d74a639d2ebc3d3b134942464736f6c634300081e0033","linkReferences":{}},"methodIdentifiers":{"pull(address,address,uint256)":"7372c2b5"},"id":0}