{"abi":[{"type":"constructor","inputs":[],"stateMutability":"nonpayable"},{"type":"function","name":"attackerMintValidated","inputs":[],"outputs":[{"name":"","type":"bool","internalType":"bool"}],"stateMutability":"view"},{"type":"function","name":"controller","inputs":[],"outputs":[{"name":"","type":"address","internalType":"address"}],"stateMutability":"view"},{"type":"function","name":"dumpValidated","inputs":[],"outputs":[{"name":"","type":"bool","internalType":"bool"}],"stateMutability":"view"},{"type":"function","name":"executeOnOpportunity","inputs":[],"outputs":[],"stateMutability":"nonpayable"},{"type":"function","name":"failureReason","inputs":[],"outputs":[{"name":"","type":"string","internalType":"string"}],"stateMutability":"view"},{"type":"function","name":"fundingPair","inputs":[],"outputs":[{"name":"","type":"address","internalType":"address"}],"stateMutability":"view"},{"type":"function","name":"hypothesisValidated","inputs":[],"outputs":[{"name":"","type":"bool","internalType":"bool"}],"stateMutability":"view"},{"type":"function","name":"path0VictimTransferWipeValidated","inputs":[],"outputs":[{"name":"","type":"bool","internalType":"bool"}],"stateMutability":"view"},{"type":"function","name":"path1AttackerMintValidated","inputs":[],"outputs":[{"name":"","type":"bool","internalType":"bool"}],"stateMutability":"view"},{"type":"function","name":"path2DumpValidated","inputs":[],"outputs":[{"name":"","type":"bool","internalType":"bool"}],"stateMutability":"view"},{"type":"function","name":"previewController","inputs":[{"name":"sender","type":"address","internalType":"address"},{"name":"recipient","type":"address","internalType":"address"},{"name":"amount","type":"uint256","internalType":"uint256"}],"outputs":[{"name":"ok","type":"bool","internalType":"bool"},{"name":"subBal","type":"uint256","internalType":"uint256"},{"name":"addBal","type":"uint256","internalType":"uint256"}],"stateMutability":"nonpayable"},{"type":"function","name":"profitAmount","inputs":[],"outputs":[{"name":"","type":"uint256","internalType":"uint256"}],"stateMutability":"view"},{"type":"function","name":"profitToken","inputs":[],"outputs":[{"name":"","type":"address","internalType":"address"}],"stateMutability":"view"},{"type":"function","name":"selectedPair","inputs":[],"outputs":[{"name":"","type":"address","internalType":"address"}],"stateMutability":"view"},{"type":"function","name":"selectedRouter","inputs":[],"outputs":[{"name":"","type":"address","internalType":"address"}],"stateMutability":"view"},{"type":"function","name":"uniswapV2Call","inputs":[{"name":"sender","type":"address","internalType":"address"},{"name":"amount0","type":"uint256","internalType":"uint256"},{"name":"amount1","type":"uint256","internalType":"uint256"},{"name":"","type":"bytes","internalType":"bytes"}],"outputs":[],"stateMutability":"nonpayable"},{"type":"function","name":"victimWipeValidated","inputs":[],"outputs":[{"name":"","type":"bool","internalType":"bool"}],"stateMutability":"view"}],"bytecode":{"object":"0x608080604052346015576122b7908161001a8239f35b5f80fdfe6080806040526004361015610012575f80fd5b5f905f3560e01c908163020a33e714610f0b5750806308b7b2db14610eba57806310d1e85c1461039b5780631b56f668146103725780633c2448ed14610356578063463defd11461033057806349343624146103095780634f9522a4146102325780635ff972cc1461021457806364920a0e146101ee578063aa94f632146101c5578063c3b89d9c1461019f578063e434b44e14610179578063e962f50114610153578063e979c88e1461012d578063f77c4791146101045763f7bf4c11146100d9575f80fd5b346101015780600319360112610101576004546040516001600160a01b039091168152602090f35b80fd5b50346101015780600319360112610101576003546040516001600160a01b039091168152602090f35b5034610101578060031936011261010157602060ff60025460a81c166040519015158152f35b5034610101578060031936011261010157602060ff60025460b01c166040519015158152f35b5034610101578060031936011261010157602060ff60025460b81c166040519015158152f35b5034610101578060031936011261010157602060ff60025460c01c166040519015158152f35b50346101015780600319360112610101576005546040516001600160a01b039091168152602090f35b5034610101578060031936011261010157602060ff60025460c81c166040519015158152f35b50346101015780600319360112610101576020600154604051908152f35b503461010157806003193601126101015760405190809160075461025581610f43565b8083526020830191600181169081156102ee57506001146102ab575b5061028182604094950383610f7b565b8251938492602084525180928160208601528585015e828201840152601f01601f19168101030190f35b600784529350825f5160206122425f395f51905f525b8582106102d8575082016020019350610281610271565b60018160209254838588010152019101906102c1565b60ff1916835250151560051b82016020019350610281610271565b5034610101578060031936011261010157546040516001600160a01b039091168152602090f35b5034610101578060031936011261010157602060ff60025460a01c166040519015158152f35b503461010157806003193601126101015761036f610ffc565b80f35b50346101015780600319360112610101576006546040516001600160a01b039091168152602090f35b5034610a64576080366003190112610a64576103b5610f2d565b6024359060643567ffffffffffffffff8111610a645736602382011215610a6457806004013567ffffffffffffffff8111610a645736910160240111610a64576006546001600160a01b03163303610e8357306001600160a01b0390911603610e4a578015610e41575b8015610e09576002546004805460405163095ea7b360e01b81526001600160a01b03918216928101929092525f1960248301529091602091839160449183915f91165af1908115610d89575f91610dcf575b5015610d945760405190610486606083610f7b565b60028252604091823660208301376002546001600160a01b03166104a982611666565b525f5160206122625f395f51905f526104c182611687565b526004546001600160a01b0316803b15610a6457604051635c11d79560e01b8152915f9183918290849082906104ff90429030908b60048601611697565b03925af18015610d8957610d74575b506040516370a0823160e01b81523060048201526020816024815f5160206122625f395f51905f525afa908115610a70578491610d42575b508015610cfd5761055681611700565b6005546040516370a0823160e01b81526001600160a01b039091166004820181905285939091849182906020836024815f5160206122625f395f51905f525afa928315610cf2578993610cbe575b506040516318160ddd60e01b81526020816004815f5160206122625f395f51905f525afa908115610cb3578a91610c81575b5060405193610180850185811067ffffffffffffffff821117610c6d576040528785528760011b888104600203610c59576020860152600a8802888104600a03610c5957604086015260648802888104606403610c595760608601526103e888028881046103e803610c595790600a929160808701526103e8810460a08701526064810460c087015282810460e08701526101008601526103e8810461012086015260648104610140860152046101608401528896895b600c81101561072d578060051b8501518015610724576106ae818930611566565b911561070f578a8111801561071a575b61070f576106cc8183611998565b8c811180156106fc575b6106e9575b505050506001905b0161068d565b9b509097509450915060015f80806106db565b508c811480156106d657508983116106d6565b5050506001906106e3565b50808211156106be565b506001906106e3565b5089935088858215610c1457848360249610918215610c0a575b8215610c00575b5050610be0575b6002546040516370a0823160e01b81523060048201529460209186919082906001600160a01b03165afa938415610bd5578594610ba1575b506004805460405163095ea7b360e01b81526001600160a01b03909116918101919091525f196024820152602081604481895f5160206122625f395f51905f525af1908115610afe578691610b63575b5015610b26578491604051916107f4606084610f7b565b600283523660208401375f5160206122625f395f51905f5261081583611666565b526002546001600160a01b031661082b83611687565b526004546001600160a01b031691823b15610b225761086792849283604051809681958294635c11d79560e01b84524291309160048601611697565b03925af180156109e757610b09575b50506002546040516370a0823160e01b81523060048201526001600160a01b0382169390602081602481885afa908115610afe578691610acc575b501115610a8f5763ff0000ff60b81b1916630100000160b81b176002556103e88181029182049003610a7b576103e5900460018101809111610a7b576040516370a0823160e01b8152306004820152602081602481865afa8015610a705782918591610a37575b50106109f257602090604460018060a01b036006541685604051958694859363a9059cbb60e01b8552600485015260248401525af19081156109e75782916109a9575b50156109645780f35b60405162461bcd60e51b815260206004820152601960248201527f72657061796d656e74207472616e73666572206661696c6564000000000000006044820152606490fd5b90506020813d6020116109df575b816109c460209383610f7b565b810103126109db576109d590610fb1565b8261095b565b5080fd5b3d91506109b7565b6040513d84823e3d90fd5b60405162461bcd60e51b815260206004820152601b60248201527f696e73756666696369656e742072657061796d656e74205745544800000000006044820152606490fd5b9150506020813d602011610a68575b81610a5360209383610f7b565b81010312610a645781905185610918565b5f80fd5b3d9150610a46565b6040513d86823e3d90fd5b634e487b7160e01b83526011600452602483fd5b60405162461bcd60e51b81526020600482015260156024820152740c8eadae040e0e4dec8eac6cac840dcde40ae8aa89605b1b6044820152606490fd5b90506020813d602011610af6575b81610ae760209383610f7b565b81010312610a645751866108b1565b3d9150610ada565b6040513d88823e3d90fd5b81610b1391610f7b565b610b1e578284610876565b8280fd5b8380fd5b60405162461bcd60e51b815260206004820152601560248201527415105491d15508185c1c1c9bdd994819985a5b1959605a1b6044820152606490fd5b90506020813d602011610b99575b81610b7e60209383610f7b565b81010312610b9557610b8f90610fb1565b866107dd565b8580fd5b3d9150610b71565b9093506020813d602011610bcd575b81610bbd60209383610f7b565b81010312610a645751928561078d565b3d9150610bb0565b6040513d87823e3d90fd5b6002805464ff000000ff60a81b191664010000000160a81b179055610755565b119050868061074e565b8481119250610747565b60405162461bcd60e51b815260206004820152601860248201527f6e6f2070726f66697461626c65206d696e742071756f746500000000000000006044820152606490fd5b634e487b7160e01b8c52601160045260248cfd5b634e487b7160e01b8c52604160045260248cfd5b90506020813d602011610cab575b81610c9c60209383610f7b565b81010312610a6457515f6105d6565b3d9150610c8f565b6040513d8c823e3d90fd5b9092506020813d602011610cea575b81610cda60209383610f7b565b81010312610a645751915f6105a4565b3d9150610ccd565b6040513d8b823e3d90fd5b60405162461bcd60e51b815260206004820152601b60248201527f73656564206275792070726f6475636564206e6f2054415247455400000000006044820152606490fd5b90506020813d602011610d6c575b81610d5d60209383610f7b565b81010312610a6457515f610546565b3d9150610d50565b610d819193505f90610f7b565b5f915f61050e565b6040513d5f823e3d90fd5b60405162461bcd60e51b815260206004820152601360248201527215d1551208185c1c1c9bdd994819985a5b1959606a1b6044820152606490fd5b90506020813d602011610e01575b81610dea60209383610f7b565b81010312610a6457610dfb90610fb1565b5f610471565b3d9150610ddd565b60405162461bcd60e51b815260206004820152601060248201526f1b9bc815d1551208189bdc9c9bddd95960821b6044820152606490fd5b5060443561041f565b60405162461bcd60e51b81526020600482015260116024820152703ab732bc3832b1ba32b21039b2b73232b960791b6044820152606490fd5b60405162461bcd60e51b815260206004820152600f60248201526e3ab732bc3832b1ba32b2103830b4b960891b6044820152606490fd5b34610a64576060366003190112610a6457610ed3610f2d565b6024356001600160a01b0381168103610a6457606091610ef69160443591611566565b90604051921515835260208301526040820152f35b34610a64575f366003190112610a645760209060ff60025460d01c1615158152f35b600435906001600160a01b0382168203610a6457565b90600182811c92168015610f71575b6020831014610f5d57565b634e487b7160e01b5f52602260045260245ffd5b91607f1691610f52565b90601f8019910116810190811067ffffffffffffffff821117610f9d57604052565b634e487b7160e01b5f52604160045260245ffd5b51908115158203610a6457565b601f8111610fc95750565b60075f52601f0160051c5f5160206122425f395f51905f52908101905b818110610ff1575050565b5f8155600101610fe6565b5f80546001600160a01b031990811682556001829055600280546001600160d81b031916905560038054821690556004805482169055600580548216905560068054909116905560075461104f90610f43565b601f8111611531575b505f6007556001600160a01b0361106d6119b9565b16806001600160601b0360a01b600354161760035561108a611b10565b600580546001600160a01b03199081166001600160a01b03938416179091556002805482169383169384179055600480548216949092169390931790555f805490921617905515611501576004546001600160a01b03161580156114ee575b80156114db575b6114a6576004546002546001600160a01b0391611111918316908316611b57565b16806001600160601b0360a01b60065416176006551561147157600654600254611147916001600160a01b039182169116611c6c565b8015611436576002546040516370a0823160e01b8152306004820152916001600160a01b0390911690602083602481855afa928315610a70578493611402575b50600654604051630dfe168160e01b81526001600160a01b039091169290602081600481875afa908115610afe5786916113d3575b506001600160a01b0316149081156113cc5780915b156113c6575083905b823b156113c2579060c4859283604051958694859363022c0d9f60e01b8552600485015260248401523060448401526080606484015260016084840152600160f81b60a48401525af180156113b7579083916113a2575b505060025461124991906001600160a01b0316611d9e565b60025460ff8160c01c169081611393575b81611385575b508061137a575b1561128257506002805460ff60a01b1916600160a01b179055565b60075461128e81610f43565b15611297575050565b6112a090610f43565b601f8111611327575b5060079060718255527f657865637574696f6e2066696e697368656420776974686f75742066756c6c205f5160206122425f395f51905f52557f7061746820636f76657261676520616e642070726f66697400000000000000007fa66cc928b5edb82af9bd49922954155ab7b0942694bea4ce44661d9a8736c68955565b60078252601f0160051c5f5160206122425f395f51905f52017fa66cc928b5edb82af9bd49922954155ab7b0942694bea4ce44661d9a8736c68a5b81811061136f57506112a9565b828155600101611362565b506001541515611267565b60ff915060d01c165f611260565b905060ff8160c81c169061125a565b816113ac91610f7b565b6109db57815f611231565b6040513d85823e3d90fd5b8480fd5b906111da565b84916111d1565b6113f5915060203d6020116113fb575b6113ed8183610f7b565b810190611b38565b5f6111bc565b503d6113e3565b9092506020813d60201161142e575b8161141e60209383610f7b565b81010312610a645751915f611187565b3d9150611411565b505061144b611446600754610f43565b610fbe565b7f66756e64696e67207061697220746f6f207368616c6c6f770000000000000030600755565b50611480611446600754610f43565b7f6e6f20574554482066756e64696e672070616972000000000000000000000028600755565b506114b5611446600754610f43565b7f6e6f205441524745542f5745544820726f757465000000000000000000000028600755565b506005546001600160a01b0316156110f0565b506002546001600160a01b0316156110e9565b5061150b5f610fbe565b7f636f6e74726f6c6c6572206465636f6465206661696c65640000000000000030600755565b60075f52601f0160051c5f5160206122425f395f51905f52908101905b81811061155b5750611058565b5f815560010161154e565b6003549091906001600160a01b0381161561163e575b506003546001600160a01b0316801561163257604051633a5b109160e11b81526001600160a01b0393841660048201529190921660248201526044810192909252606090829060649082905f905af15f815f935f936115e9575b506115e6575050505f905f905f90565b92565b93509150506060823d60601161162a575b8161160760609383610f7b565b81010312610a645761161882610fb1565b6020830151604090930151915f6115d6565b3d91506115fa565b505050505f905f905f90565b6001600160a01b0361164e6119b9565b16906001600160601b0360a01b16176003555f61157c565b8051156116735760200190565b634e487b7160e01b5f52603260045260245ffd5b8051600110156116735760400190565b91909493929460a083019083525f602084015260a060408401528151809152602060c084019201905f5b8181106116e1575050506001600160a01b03909416606082015260800152565b82516001600160a01b03168452602093840193909201916001016116c1565b801561199557604051906060820182811067ffffffffffffffff821117610f9d5760405230825260018060a01b03600554169081602084015260018060a01b0360065416806040850152604051926080840184811067ffffffffffffffff821117610f9d576040959395528352602083015230604083015261dead60608301525f5b600381101561198f57600581901b8201516001600160a01b0316918215611984573083036119145784935b8415611907576040519160a0830183811067ffffffffffffffff821117610f9d5760409794919752600183526103e886046020840152606486046040840152600a860460608401528560808401525f965b60048810156118f257600588901b8301516001600160a01b031694851580156118e9575b6118dd575f5b60058110156118cb578060051b860151801580156118c2575b6118b95761185081898b611566565b9291156118ae578b811492836118a5575b508261189b575b5050611878576001905b01611828565b50506002805462ff00ff60b01b19166201000160b01b1790555050505050505050565b1190505f80611868565b1592505f611861565b505050600190611872565b50600190611872565b50898111611841565b50976001919295505b019693906117fe565b976001919295506118d4565b50868614611822565b96509150935060019192505b01929092611782565b93509391506001906118fe565b6040516370a0823160e01b8152600481018490526020816024815f5160206122625f395f51905f525afa908115610d89575f91611953575b50936117ad565b90506020813d821161197c575b8161196d60209383610f7b565b81010312610a6457515f61194c565b3d9150611960565b9391506001906118fe565b50505050565b50565b919082039182116119a557565b634e487b7160e01b5f52601160045260245ffd5b604051630667f9d760e41b81525f5160206122625f395f51905f52600482015260046024820152602081604481737109709ecfa91a80626ff3989d68f67f5b1dd12d5afa908115610d89575f91611ade575b50600180821614611a23575b6001600160a01b031690565b60405160208101906004825260208152611a3e604082610f7b565b51902060405190630667f9d760e41b82525f5160206122625f395f51905f5260048301526024820152602081604481737109709ecfa91a80626ff3989d68f67f5b1dd12d5afa908115610d89575f91611aac575b506001600160a01b031680611aa75750611a17565b905090565b90506020813d602011611ad6575b81611ac760209383610f7b565b81010312610a6457515f611a92565b3d9150611aba565b90506020813d602011611b08575b81611af960209383610f7b565b81010312610a6457515f611a0b565b3d9150611aec565b611b18611e4e565b90916001600160a01b0382166115e657505050611b33611f98565b909192565b90816020910312610a6457516001600160a01b0381168103610a645790565b60405163c45a015560e01b815290602090829060049082906001600160a01b03165afa908115610d8957611b949183915f91611c39575b506120e2565b6001600160a01b038116611aa7575060405163c45a015560e01b8152602081600481737a250d5630b4cf539739df2c5dacb4c659f2488d5afa908115610d8957611be69183915f91611c3957506120e2565b6001600160a01b038116611aa7575060405163c45a015560e01b81529060208260048173d9e1ce17f2641f24ae83637ab66a2cca9c378b9f5afa8015610d8957611c36925f91611c3957506120e2565b90565b611c52915060203d6020116113fb576113ed8183610f7b565b5f611b8e565b51906001600160701b0382168203610a6457565b604051630240bc6b60e21b8152906001600160a01b0316606082600481845afa908115610d89575f925f92611d40575b5092602060049460405195868092630dfe168160e01b82525afa908115610d89576001600160701b03945f92611d1f575b506001600160a01b03918216911603611d175750165b8015611d125761138890048015611d125766470de4df820000811015611d065790565b5066470de4df82000090565b505f90565b905016611ce3565b611d3991925060203d6020116113fb576113ed8183610f7b565b905f611ccd565b925090506060823d606011611d96575b81611d5d60609383610f7b565b81010312610a6457611d6e82611c58565b926040611d7d60208501611c58565b93015163ffffffff811603610a64579291906020611c9c565b3d9150611d50565b6001600160a01b0316908115611e38576040516370a0823160e01b815230600482015291602083602481845afa928315610d89575f93611e04575b506001600160601b0360a01b5f5416175f55808211611df6575050565b611dff91611998565b600155565b9092506020813d602011611e30575b81611e2060209383610f7b565b81010312610a645751915f611dd9565b3d9150611e13565b50505f80546001600160a01b0319168155600155565b60405163c45a015560e01b8152602081600481737a250d5630b4cf539739df2c5dacb4c659f2488d5afa5f9181611f77575b50611e8e57505f905f905f90565b6040516315ab88c960e31b81529091602082600481737a250d5630b4cf539739df2c5dacb4c659f2488d5afa918215610d89575f92611f54575b5060405163e6a4390560e01b81525f5160206122625f395f51905f5260048201526001600160a01b0380841660248301529293909260209184916044918391165afa918215610d89575f92611f33575b50737a250d5630b4cf539739df2c5dacb4c659f2488d929190565b611f4d91925060203d6020116113fb576113ed8183610f7b565b905f611f18565b60449250611f70602091823d84116113fb576113ed8183610f7b565b9250611ec8565b611f9191925060203d6020116113fb576113ed8183610f7b565b905f611e80565b60405163c45a015560e01b815260208160048173d9e1ce17f2641f24ae83637ab66a2cca9c378b9f5afa5f91816120c1575b50611fd857505f905f905f90565b6040516315ab88c960e31b8152909160208260048173d9e1ce17f2641f24ae83637ab66a2cca9c378b9f5afa918215610d89575f9261209e575b5060405163e6a4390560e01b81525f5160206122625f395f51905f5260048201526001600160a01b0380841660248301529293909260209184916044918391165afa918215610d89575f9261207d575b5073d9e1ce17f2641f24ae83637ab66a2cca9c378b9f929190565b61209791925060203d6020116113fb576113ed8183610f7b565b905f612062565b604492506120ba602091823d84116113fb576113ed8183610f7b565b9250612012565b6120db91925060203d6020116113fb576113ed8183610f7b565b905f611fca565b60405163e6a4390560e01b81526001600160a01b039283166004820181905273a0b86991c6218b36c1d19d4a2e9eb0ce3606eb4860248301529190921691602081604481865afa908115610d89575f91612222575b506001600160a01b0381166121fd575060405163e6a4390560e01b81526004810182905273dac17f958d2ee523a2206206994597c13d831ec76024820152602081604481865afa908115610d89575f91612203575b506001600160a01b0381166121fd575060209060446040518094819363e6a4390560e01b83526004830152736b175474e89094c44da98b954eedeac495271d0f60248301525afa908115610d89575f916121e4575090565b611c36915060203d6020116113fb576113ed8183610f7b565b91505090565b61221c915060203d6020116113fb576113ed8183610f7b565b5f61218c565b61223b915060203d6020116113fb576113ed8183610f7b565b5f61213756fea66cc928b5edb82af9bd49922954155ab7b0942694bea4ce44661d9a8736c688000000000000000000000000f7ef0d57277ad6c2babf87ab64ba61abdd2590d2a2646970667358221220bf6658fb7b655c8a0b21a44b94407838eac2e3a86d8d9335ba70e6c113b678a464736f6c634300081e0033","linkReferences":{}},"methodIdentifiers":{"attackerMintValidated()":"e979c88e","controller()":"f77c4791","dumpValidated()":"e434b44e","executeOnOpportunity()":"3c2448ed","failureReason()":"4f9522a4","fundingPair()":"1b56f668","hypothesisValidated()":"463defd1","path0VictimTransferWipeValidated()":"c3b89d9c","path1AttackerMintValidated()":"64920a0e","path2DumpValidated()":"020a33e7","previewController(address,address,uint256)":"08b7b2db","profitAmount()":"5ff972cc","profitToken()":"49343624","selectedPair()":"aa94f632","selectedRouter()":"f7bf4c11","uniswapV2Call(address,uint256,uint256,bytes)":"10d1e85c","victimWipeValidated()":"e962f501"},"id":0}