{"abi":[{"type":"function","name":"sellTokenForWETH","inputs":[{"name":"router","type":"address","internalType":"address"},{"name":"token","type":"address","internalType":"address"},{"name":"weth","type":"address","internalType":"address"},{"name":"amountIn","type":"uint256","internalType":"uint256"},{"name":"payout","type":"address","internalType":"address"}],"outputs":[],"stateMutability":"nonpayable"}],"bytecode":{"object":"0x60808060405234601557610254908161001a8239f35b5f80fdfe6080806040526004361015610012575f80fd5b5f905f3560e01c63a6fa473f14610027575f80fd5b346101995760a0366003190112610199576004356001600160a01b03811690819003610199576024356001600160a01b03811690819003610199576044356001600160a01b0381169390849003610199576084356001600160a01b03811691908290036101995763095ea7b360e01b8152600481018490525f1960248201526020816044815f875af1801561016c576101b1575b50604051936100cb6060866101e8565b600285526020850192604036853785511561019d57835284516001101561019d576040850152823b15610199579290604051938492635c11d79560e01b845260a484019060643560048601525f602486015260a060448601525180915260c4840192905f5b818110610177575050505f838195938193606483015242608483015203925af1801561016c5761015e575080f35b61016a91505f906101e8565b005b6040513d5f823e3d90fd5b82516001600160a01b0316855287955060209485019490920191600101610130565b5f80fd5b634e487b7160e01b5f52603260045260245ffd5b6020813d6020116101e0575b816101ca602093836101e8565b81010312610199575180151581146100bb575f80fd5b3d91506101bd565b90601f8019910116810190811067ffffffffffffffff82111761020a57604052565b634e487b7160e01b5f52604160045260245ffdfea2646970667358221220a7dbc52b85b44654b065760fc70a6b0f5267f98672756cb78eef6dda51f9f16a64736f6c634300081e0033","linkReferences":{}},"methodIdentifiers":{"sellTokenForWETH(address,address,address,uint256,address)":"a6fa473f"},"id":0}