{"abi":[{"type":"constructor","inputs":[],"stateMutability":"nonpayable"},{"type":"function","name":"canImplementInterfaceForAddress","inputs":[{"name":"interfaceHash","type":"bytes32","internalType":"bytes32"},{"name":"account","type":"address","internalType":"address"}],"outputs":[{"name":"","type":"bytes32","internalType":"bytes32"}],"stateMutability":"view"},{"type":"function","name":"concreteInfeasibility","inputs":[],"outputs":[{"name":"","type":"string","internalType":"string"}],"stateMutability":"view"},{"type":"function","name":"depositedAmount","inputs":[],"outputs":[{"name":"","type":"uint256","internalType":"uint256"}],"stateMutability":"view"},{"type":"function","name":"donatedLiquidity","inputs":[],"outputs":[{"name":"","type":"uint256","internalType":"uint256"}],"stateMutability":"view"},{"type":"function","name":"endingBalance","inputs":[],"outputs":[{"name":"","type":"uint256","internalType":"uint256"}],"stateMutability":"view"},{"type":"function","name":"executeOnOpportunity","inputs":[],"outputs":[],"stateMutability":"nonpayable"},{"type":"function","name":"executed","inputs":[],"outputs":[{"name":"","type":"bool","internalType":"bool"}],"stateMutability":"view"},{"type":"function","name":"exploitPathUsed","inputs":[],"outputs":[{"name":"","type":"string","internalType":"string"}],"stateMutability":"view"},{"type":"function","name":"flashswapUsed","inputs":[],"outputs":[{"name":"","type":"bool","internalType":"bool"}],"stateMutability":"view"},{"type":"function","name":"hookCallCount","inputs":[],"outputs":[{"name":"","type":"uint256","internalType":"uint256"}],"stateMutability":"view"},{"type":"function","name":"hookObserved","inputs":[],"outputs":[{"name":"","type":"bool","internalType":"bool"}],"stateMutability":"view"},{"type":"function","name":"hookRegistered","inputs":[],"outputs":[{"name":"","type":"bool","internalType":"bool"}],"stateMutability":"view"},{"type":"function","name":"hypothesisRefuted","inputs":[],"outputs":[{"name":"","type":"bool","internalType":"bool"}],"stateMutability":"view"},{"type":"function","name":"hypothesisValidated","inputs":[],"outputs":[{"name":"","type":"bool","internalType":"bool"}],"stateMutability":"view"},{"type":"function","name":"profitAmount","inputs":[],"outputs":[{"name":"","type":"uint256","internalType":"uint256"}],"stateMutability":"view"},{"type":"function","name":"profitToken","inputs":[],"outputs":[{"name":"","type":"address","internalType":"address"}],"stateMutability":"view"},{"type":"function","name":"reentered","inputs":[],"outputs":[{"name":"","type":"bool","internalType":"bool"}],"stateMutability":"view"},{"type":"function","name":"reenteredWithdrawAmount","inputs":[],"outputs":[{"name":"","type":"uint256","internalType":"uint256"}],"stateMutability":"view"},{"type":"function","name":"startingBalance","inputs":[],"outputs":[{"name":"","type":"uint256","internalType":"uint256"}],"stateMutability":"view"},{"type":"function","name":"tokensReceived","inputs":[{"name":"","type":"address","internalType":"address"},{"name":"from","type":"address","internalType":"address"},{"name":"to","type":"address","internalType":"address"},{"name":"","type":"uint256","internalType":"uint256"},{"name":"","type":"bytes","internalType":"bytes"},{"name":"","type":"bytes","internalType":"bytes"}],"outputs":[],"stateMutability":"nonpayable"},{"type":"function","name":"transferFromLegUsed","inputs":[],"outputs":[{"name":"","type":"bool","internalType":"bool"}],"stateMutability":"view"},{"type":"function","name":"transferLegUsed","inputs":[],"outputs":[{"name":"","type":"bool","internalType":"bool"}],"stateMutability":"view"},{"type":"function","name":"uniswapV2Call","inputs":[{"name":"","type":"address","internalType":"address"},{"name":"amount0","type":"uint256","internalType":"uint256"},{"name":"amount1","type":"uint256","internalType":"uint256"},{"name":"data","type":"bytes","internalType":"bytes"}],"outputs":[],"stateMutability":"nonpayable"},{"type":"function","name":"vault","inputs":[],"outputs":[{"name":"","type":"address","internalType":"contract VulnerableN00dVault"}],"stateMutability":"view"}],"bytecode":{"object":"0x6080604052348015600e575f5ffd5b506154bd8061001c5f395ff3fe608060405234801561000f575f5ffd5b5060043610610155575f3560e01c806357004c5e116100c157806394bd2d3b1161007a57806394bd2d3b1461036f578063b6fb7e461461038d578063c9819e23146103ab578063d78c4281146103c9578063edc3b56e146103e7578063fbfa77cf1461040557610155565b806357004c5e146102bb5780635ff972cc146102d957806379e64f41146102f757806381419b421461031557806381646075146103335780638de76e0f1461035157610155565b806331a38c891161011357806331a38c891461021b5780633c2448ed146102395780633f09775e14610243578063463defd114610261578063493436241461027f578063495f92f11461029d57610155565b806223de291461015957806310d1e85c146101755780631d01364c146101915780631f69f8ce146101af578063249cb3fa146101cd5780632ecfe1be146101fd575b5f5ffd5b610173600480360381019061016e9190612e6f565b610423565b005b61018f600480360381019061018a9190612f39565b610719565b005b610199610dbc565b6040516101a69190612fcc565b60405180910390f35b6101b7610dc2565b6040516101c49190613055565b60405180910390f35b6101e760048036038101906101e291906130a8565b610e4e565b6040516101f491906130f5565b60405180910390f35b610205610ee2565b6040516102129190612fcc565b60405180910390f35b610223610ee8565b6040516102309190613128565b60405180910390f35b610241610efa565b005b61024b6113c0565b6040516102589190613128565b60405180910390f35b6102696113d2565b6040516102769190613128565b60405180910390f35b6102876113e4565b6040516102949190613150565b60405180910390f35b6102a561140f565b6040516102b29190613128565b60405180910390f35b6102c3611421565b6040516102d09190613128565b60405180910390f35b6102e1611433565b6040516102ee9190612fcc565b60405180910390f35b6102ff61143c565b60405161030c9190613128565b60405180910390f35b61031d61144e565b60405161032a9190613128565b60405180910390f35b61033b611460565b6040516103489190612fcc565b60405180910390f35b610359611466565b6040516103669190613128565b60405180910390f35b610377611478565b6040516103849190612fcc565b60405180910390f35b61039561147e565b6040516103a29190612fcc565b60405180910390f35b6103b3611484565b6040516103c09190613128565b60405180910390f35b6103d1611496565b6040516103de9190613055565b60405180910390f35b6103ef611522565b6040516103fc9190612fcc565b60405180910390f35b61040d611528565b60405161041a91906131c4565b60405180910390f35b732321537fd8ef4644bacdceec54e5f35bf44311fa73ffffffffffffffffffffffffffffffffffffffff163373ffffffffffffffffffffffffffffffffffffffff16146104a5576040517f08c379a000000000000000000000000000000000000000000000000000000000815260040161049c90613227565b60405180910390fd5b3073ffffffffffffffffffffffffffffffffffffffff168673ffffffffffffffffffffffffffffffffffffffff1614610513576040517f08c379a000000000000000000000000000000000000000000000000000000000815260040161050a9061328f565b60405180910390fd5b5f5f9054906101000a900473ffffffffffffffffffffffffffffffffffffffff1673ffffffffffffffffffffffffffffffffffffffff168773ffffffffffffffffffffffffffffffffffffffff160361070f5760015f60166101000a81548160ff021916908315150217905550600160065f82825461059291906132da565b925050819055505f60179054906101000a900460ff166105c75760015f60176101000a81548160ff0219169083151502179055505b5f6008541415801561066757506005545f5f9054906101000a900473ffffffffffffffffffffffffffffffffffffffff1673ffffffffffffffffffffffffffffffffffffffff1663b7ec1a336040518163ffffffff1660e01b8152600401602060405180830381865afa158015610640573d5f5f3e3d5ffd5b505050506040513d601f19601f820116820180604052508101906106649190613321565b10155b1561070e57600160085f82825461067e919061334c565b925050819055505f5f9054906101000a900473ffffffffffffffffffffffffffffffffffffffff1673ffffffffffffffffffffffffffffffffffffffff16632e1a7d4d6005546040518263ffffffff1660e01b81526004016106e09190612fcc565b5f604051808303815f87803b1580156106f7575f5ffd5b505af1158015610709573d5f5f3e3d5ffd5b505050505b5b5050505050505050565b5f82828101906107299190613578565b9050805f015173ffffffffffffffffffffffffffffffffffffffff163373ffffffffffffffffffffffffffffffffffffffff161461079c576040517f08c379a0000000000000000000000000000000000000000000000000000000008152600401610793906135ee565b60405180910390fd5b5f5f86036107aa57846107ac565b855b9050816020015181146107f4576040517f08c379a00000000000000000000000000000000000000000000000000000000081526004016107eb90613656565b60405180910390fd5b5f732321537fd8ef4644bacdceec54e5f35bf44311fa90508073ffffffffffffffffffffffffffffffffffffffff1663095ea7b35f5f9054906101000a900473ffffffffffffffffffffffffffffffffffffffff167fffffffffffffffffffffffffffffffffffffffffffffffffffffffffffffffff6040518363ffffffff1660e01b8152600401610887929190613674565b6020604051808303815f875af11580156108a3573d5f5f3e3d5ffd5b505050506040513d601f19601f820116820180604052508101906108c791906136af565b610906576040517f08c379a00000000000000000000000000000000000000000000000000000000081526004016108fd90613724565b60405180910390fd5b5f610915838560a0015161154c565b90505f8103610959576040517f08c379a00000000000000000000000000000000000000000000000000000000081526004016109509061378c565b60405180910390fd5b8360a001518161096991906137d7565b6003819055506003548161097d919061334c565b60048190555060035460058190555060018460a0015161099d919061334c565b60088190555060015f601a6101000a81548160ff0219169083151502179055505f5f9054906101000a900473ffffffffffffffffffffffffffffffffffffffff1673ffffffffffffffffffffffffffffffffffffffff1663b6b55f256003546040518263ffffffff1660e01b8152600401610a189190612fcc565b5f604051808303815f87803b158015610a2f575f5ffd5b505af1158015610a41573d5f5f3e3d5ffd5b505050505f60045414610ad7575f5f9054906101000a900473ffffffffffffffffffffffffffffffffffffffff1673ffffffffffffffffffffffffffffffffffffffff1663f14faf6f6004546040518263ffffffff1660e01b8152600401610aa99190612fcc565b5f604051808303815f87803b158015610ac0575f5ffd5b505af1158015610ad2573d5f5f3e3d5ffd5b505050505b60015f601b6101000a81548160ff0219169083151502179055505f5f9054906101000a900473ffffffffffffffffffffffffffffffffffffffff1673ffffffffffffffffffffffffffffffffffffffff16632e1a7d4d6003546040518263ffffffff1660e01b8152600401610b4c9190612fcc565b5f604051808303815f87803b158015610b63575f5ffd5b505af1158015610b75573d5f5f3e3d5ffd5b505050505f8273ffffffffffffffffffffffffffffffffffffffff166370a08231306040518263ffffffff1660e01b8152600401610bb39190613150565b602060405180830381865afa158015610bce573d5f5f3e3d5ffd5b505050506040513d601f19601f82011682018060405250810190610bf29190613321565b905083811015610c37576040517f08c379a0000000000000000000000000000000000000000000000000000000008152600401610c2e90613851565b60405180910390fd5b5f610c468660c001518661157c565b90505f73ffffffffffffffffffffffffffffffffffffffff168660e001515f015173ffffffffffffffffffffffffffffffffffffffff1614610c9357610c908660e001518261157c565b90505b8560400151811015610cda576040517f08c379a0000000000000000000000000000000000000000000000000000000008152600401610cd1906138b9565b60405180910390fd5b73c02aaa39b223fe8d0a0e5c4f27ead9083c756cc273ffffffffffffffffffffffffffffffffffffffff1663a9059cbb875f015188604001516040518363ffffffff1660e01b8152600401610d30929190613674565b6020604051808303815f875af1158015610d4c573d5f5f3e3d5ffd5b505050506040513d601f19601f82011682018060405250810190610d7091906136af565b610daf576040517f08c379a0000000000000000000000000000000000000000000000000000000008152600401610da690613921565b60405180910390fd5b5050505050505050505050565b60035481565b600a8054610dcf9061396c565b80601f0160208091040260200160405190810160405280929190818152602001828054610dfb9061396c565b8015610e465780601f10610e1d57610100808354040283529160200191610e46565b820191905f5260205f20905b815481529060010190602001808311610e2957829003601f168201915b505050505081565b5f3073ffffffffffffffffffffffffffffffffffffffff168273ffffffffffffffffffffffffffffffffffffffff16148015610ea957507fb281fc8c12954d22544db45de3159a39272895b169a852b314f9cc762e44c53b83145b15610ed6577fa2ef4600d742022d532d4747cb3547474667d6f13804902513b2ec01c848f4b49050610edc565b5f5f1b90505b92915050565b60055481565b5f60149054906101000a900460ff1681565b5f60149054906101000a900460ff166113be5760015f60146101000a81548160ff02191690831515021790555060405180610260016040528061023b815260200161504b61023b913960099081610f519190613b33565b50610f5a61160d565b732321537fd8ef4644bacdceec54e5f35bf44311fa604051610f7b90612c0a565b610f859190613150565b604051809103905ff080158015610f9e573d5f5f3e3d5ffd5b505f5f6101000a81548173ffffffffffffffffffffffffffffffffffffffff021916908373ffffffffffffffffffffffffffffffffffffffff1602179055505f610fe6611803565b905080610100015161103d5760405180610160016040528061012681526020016152866101269139600a908161101c9190613b33565b5060015f60196101000a81548160ff021916908315150217905550506113be565b60015f601c6101000a81548160ff02191690831515021790555073c02aaa39b223fe8d0a0e5c4f27ead9083c756cc273ffffffffffffffffffffffffffffffffffffffff166370a08231306040518263ffffffff1660e01b81526004016110a49190613150565b602060405180830381865afa1580156110bf573d5f5f3e3d5ffd5b505050506040513d601f19601f820116820180604052508101906110e39190613321565b6001819055505f816040516020016110fb9190613d38565b604051602081830303815290604052905081608001511561118e57815f015173ffffffffffffffffffffffffffffffffffffffff1663022c0d9f83602001515f30856040518563ffffffff1660e01b815260040161115c9493929190613ddd565b5f604051808303815f87803b158015611173575f5ffd5b505af1158015611185573d5f5f3e3d5ffd5b50505050611202565b815f015173ffffffffffffffffffffffffffffffffffffffff1663022c0d9f5f846020015130856040518563ffffffff1660e01b81526004016111d49493929190613e27565b5f604051808303815f87803b1580156111eb575f5ffd5b505af11580156111fd573d5f5f3e3d5ffd5b505050505b73c02aaa39b223fe8d0a0e5c4f27ead9083c756cc273ffffffffffffffffffffffffffffffffffffffff166370a08231306040518263ffffffff1660e01b815260040161124f9190613150565b602060405180830381865afa15801561126a573d5f5f3e3d5ffd5b505050506040513d601f19601f8201168201806040525081019061128e9190613321565b60028190555060015460025411156112b7576001546002546112b0919061334c565b6007819055505b5f60159054906101000a900460ff1680156112dd57505f60169054906101000a900460ff165b80156112f457505f60179054906101000a900460ff165b801561130b57505f601a9054906101000a900460ff165b801561132257505f601b9054906101000a900460ff165b5f60186101000a81548160ff0219169083151502179055505f60189054906101000a900460ff16158061135657505f600754145b5f60196101000a81548160ff0219169083151502179055505f60075414801561138c57505f600a80546113889061396c565b9050145b156113bb5760405180610100016040528060dc81526020016153ac60dc9139600a90816113b99190613b33565b505b50505b565b5f60179054906101000a900460ff1681565b5f60189054906101000a900460ff1681565b5f5f600754146114085773c02aaa39b223fe8d0a0e5c4f27ead9083c756cc261140a565b5f5b905090565b5f60199054906101000a900460ff1681565b5f601a9054906101000a900460ff1681565b5f600754905090565b5f60169054906101000a900460ff1681565b5f60159054906101000a900460ff1681565b60065481565b5f601b9054906101000a900460ff1681565b60015481565b60025481565b5f601c9054906101000a900460ff1681565b600980546114a39061396c565b80601f01602080910402602001604051908101604052809291908181526020018280546114cf9061396c565b801561151a5780601f106114f15761010080835404028352916020019161151a565b820191905f5260205f20905b8154815290600101906020018083116114fd57829003601f168201915b505050505081565b60045481565b5f5f9054906101000a900473ffffffffffffffffffffffffffffffffffffffff1681565b5f5f820361155c57829050611576565b81836115689190613e71565b83611573919061334c565b90505b92915050565b5f5f73ffffffffffffffffffffffffffffffffffffffff16835f015173ffffffffffffffffffffffffffffffffffffffff16036115ee576040517f08c379a00000000000000000000000000000000000000000000000000000000081526004016115e590613eeb565b60405180910390fd5b6116058360200151845f01518560600151856119d4565b905092915050565b5f60159054906101000a900460ff1661180157731820a4b7618bde71dce8cdc73aab6c95905fad2473ffffffffffffffffffffffffffffffffffffffff166329965a1d307fb281fc8c12954d22544db45de3159a39272895b169a852b314f9cc762e44c53b306040518463ffffffff1660e01b815260040161169193929190613f09565b5f604051808303815f87803b1580156116a8575f5ffd5b505af11580156116ba573d5f5f3e3d5ffd5b505050503073ffffffffffffffffffffffffffffffffffffffff16731820a4b7618bde71dce8cdc73aab6c95905fad2473ffffffffffffffffffffffffffffffffffffffff1663aabbb8ca307fb281fc8c12954d22544db45de3159a39272895b169a852b314f9cc762e44c53b6040518363ffffffff1660e01b8152600401611744929190613f3e565b602060405180830381865afa15801561175f573d5f5f3e3d5ffd5b505050506040513d601f19601f820116820180604052508101906117839190613f79565b73ffffffffffffffffffffffffffffffffffffffff16145f60156101000a81548160ff0219169083151502179055505f60159054906101000a900460ff16611800576040517f08c379a00000000000000000000000000000000000000000000000000000000081526004016117f790613fee565b60405180910390fd5b5b565b61180b612c17565b611813612c82565b5f61181d82611c5c565b90505f604051806102000160405280600181526020016002815260200160058152602001600a815260200160148152602001601e81526020016028815260200160328152602001604b8152602001606481526020016096815260200160c8815260200161012c81526020016101f481526020016102ee81526020016103e881525090505f5f90505b828110156119cd575f8482601081106118c1576118c061400c565b5b6020020151905073c02aaa39b223fe8d0a0e5c4f27ead9083c756cc273ffffffffffffffffffffffffffffffffffffffff16816020015173ffffffffffffffffffffffffffffffffffffffff161461191957506119c2565b5f5f90505b60108110156119bf575f61271085836010811061193e5761193d61400c565b5b602002015184604001516119529190614039565b61195c91906137d7565b90505f61196a82600861154c565b90505f81148061197e575083604001518110155b1561198a5750506119b4565b5f61199e828660600151876040015161217e565b90506119ae858a8a85858f612276565b99505050505b80600101905061191e565b50505b8060010190506118a5565b5050505090565b5f5f5f8573ffffffffffffffffffffffffffffffffffffffff16630902f1ac6040518163ffffffff1660e01b8152600401606060405180830381865afa158015611a20573d5f5f3e3d5ffd5b505050506040513d601f19601f82011682018060405250810190611a4491906140f6565b50915091505f85611a6557816dffffffffffffffffffffffffffff16611a77565b826dffffffffffffffffffffffffffff165b90505f86611a9557836dffffffffffffffffffffffffffff16611aa7565b826dffffffffffffffffffffffffffff165b9050611ab48683836123be565b94508873ffffffffffffffffffffffffffffffffffffffff1663a9059cbb89886040518363ffffffff1660e01b8152600401611af1929190613674565b6020604051808303815f875af1158015611b0d573d5f5f3e3d5ffd5b505050506040513d601f19601f82011682018060405250810190611b3191906136af565b611b70576040517f08c379a0000000000000000000000000000000000000000000000000000000008152600401611b6790614190565b60405180910390fd5b8615611be5578773ffffffffffffffffffffffffffffffffffffffff1663022c0d9f5f87306040518463ffffffff1660e01b8152600401611bb3939291906141d1565b5f604051808303815f87803b158015611bca575f5ffd5b505af1158015611bdc573d5f5f3e3d5ffd5b50505050611c50565b8773ffffffffffffffffffffffffffffffffffffffff1663022c0d9f865f306040518463ffffffff1660e01b8152600401611c2293929190614219565b5f604051808303815f87803b158015611c39575f5ffd5b505af1158015611c4b573d5f5f3e3d5ffd5b505050505b50505050949350505050565b5f5f6040518060400160405280735c69bee701ef814a2b6a3edd4b1652cb9cc5aa6f73ffffffffffffffffffffffffffffffffffffffff1673ffffffffffffffffffffffffffffffffffffffff16815260200173c0aee478e3658e2610c5f7a4a2e1777ce9e4f2ac73ffffffffffffffffffffffffffffffffffffffff1673ffffffffffffffffffffffffffffffffffffffff1681525090505f60405180610100016040528073c02aaa39b223fe8d0a0e5c4f27ead9083c756cc273ffffffffffffffffffffffffffffffffffffffff1673ffffffffffffffffffffffffffffffffffffffff16815260200173a0b86991c6218b36c1d19d4a2e9eb0ce3606eb4873ffffffffffffffffffffffffffffffffffffffff1673ffffffffffffffffffffffffffffffffffffffff16815260200173dac17f958d2ee523a2206206994597c13d831ec773ffffffffffffffffffffffffffffffffffffffff1673ffffffffffffffffffffffffffffffffffffffff168152602001736b175474e89094c44da98b954eedeac495271d0f73ffffffffffffffffffffffffffffffffffffffff1673ffffffffffffffffffffffffffffffffffffffff168152602001732260fac5e5542a773aa44fbcfedf7c193bc2c59973ffffffffffffffffffffffffffffffffffffffff1673ffffffffffffffffffffffffffffffffffffffff16815260200173853d955acef822db058eb8505911ed77f175b99e73ffffffffffffffffffffffffffffffffffffffff1673ffffffffffffffffffffffffffffffffffffffff16815260200173956f47f50a910163d8bf957cf5846d573e7f87ca73ffffffffffffffffffffffffffffffffffffffff1673ffffffffffffffffffffffffffffffffffffffff1681526020017399d8a9c45b2ecb0bbe1a173e4797cda5f8997aeb73ffffffffffffffffffffffffffffffffffffffff1673ffffffffffffffffffffffffffffffffffffffff1681525090505f5f90505b6002811015612175575f5f90505b6008811015612169575f838260088110611f6257611f6161400c565b5b602002015190505f858460028110611f7d57611f7c61400c565b5b602002015173ffffffffffffffffffffffffffffffffffffffff1663e6a43905732321537fd8ef4644bacdceec54e5f35bf44311fa846040518363ffffffff1660e01b8152600401611fd0929190614261565b602060405180830381865afa158015611feb573d5f5f3e3d5ffd5b505050506040513d601f19601f8201168201806040525081019061200f9190613f79565b90505f73ffffffffffffffffffffffffffffffffffffffff168173ffffffffffffffffffffffffffffffffffffffff16148061206157505f8173ffffffffffffffffffffffffffffffffffffffff163b145b8061207357506120728888836124a4565b5b1561207f57505061215e565b5f5f5f6120a184732321537fd8ef4644bacdceec54e5f35bf44311fa87612520565b9250925092505f8314806120b457505f82145b156120c357505050505061215e565b6040518060a001604052808573ffffffffffffffffffffffffffffffffffffffff1681526020018673ffffffffffffffffffffffffffffffffffffffff1681526020018481526020018381526020018215158152508b8b6010811061212b5761212a61400c565b5b602002018190525060018a61214091906132da565b995060108a0361215857505050505050505050612179565b50505050505b806001019050611f45565b50806001019050611f37565b5050505b919050565b5f5f84036121c1576040517f08c379a00000000000000000000000000000000000000000000000000000000081526004016121b8906142d2565b60405180910390fd5b5f83141580156121d157505f8214155b80156121dc57508184105b61221b576040517f08c379a00000000000000000000000000000000000000000000000000000000081526004016122129061433a565b60405180910390fd5b5f6103e8858561222b9190614039565b6122359190614039565b90505f6103e58685612247919061334c565b6122519190614039565b90506001818361226191906137d7565b61226b91906132da565b925050509392505050565b61227e612c17565b5f5f90505b858110156123b0575f87826010811061229f5761229e61400c565b5b60200201519050885f015173ffffffffffffffffffffffffffffffffffffffff16815f015173ffffffffffffffffffffffffffffffffffffffff16036122e557506123a5565b5f6122f987836040015184606001516123be565b90505f61238c8b89896040518060800160405280885f015173ffffffffffffffffffffffffffffffffffffffff168152602001732321537fd8ef4644bacdceec54e5f35bf44311fa73ffffffffffffffffffffffffffffffffffffffff168152602001886020015173ffffffffffffffffffffffffffffffffffffffff16815260200188608001511515815250866127c9565b9050612398818761290e565b156123a1578095505b5050505b806001019050612283565b508190509695505050505050565b5f5f8403612401576040517f08c379a00000000000000000000000000000000000000000000000000000000081526004016123f8906143a2565b60405180910390fd5b5f831415801561241157505f8214155b612450576040517f08c379a00000000000000000000000000000000000000000000000000000000081526004016124479061433a565b60405180910390fd5b5f6103e58561245f9190614039565b90505f838261246e9190614039565b90505f826103e8876124809190614039565b61248a91906132da565b9050808261249891906137d7565b93505050509392505050565b5f5f5f90505b83811015612514578273ffffffffffffffffffffffffffffffffffffffff168582601081106124dc576124db61400c565b5b60200201515f015173ffffffffffffffffffffffffffffffffffffffff1603612509576001915050612519565b8060010190506124aa565b505f90505b9392505050565b5f5f5f5f8673ffffffffffffffffffffffffffffffffffffffff16630dfe16816040518163ffffffff1660e01b8152600401602060405180830381865afa15801561256d573d5f5f3e3d5ffd5b505050506040513d601f19601f820116820180604052508101906125919190613f79565b90505f8773ffffffffffffffffffffffffffffffffffffffff1663d21220a76040518163ffffffff1660e01b8152600401602060405180830381865afa1580156125dd573d5f5f3e3d5ffd5b505050506040513d601f19601f820116820180604052508101906126019190613f79565b90505f5f8973ffffffffffffffffffffffffffffffffffffffff16630902f1ac6040518163ffffffff1660e01b8152600401606060405180830381865afa15801561264e573d5f5f3e3d5ffd5b505050506040513d601f19601f8201168201806040525081019061267291906140f6565b50915091508873ffffffffffffffffffffffffffffffffffffffff168473ffffffffffffffffffffffffffffffffffffffff161480156126dd57508773ffffffffffffffffffffffffffffffffffffffff168373ffffffffffffffffffffffffffffffffffffffff16145b1561271557816dffffffffffffffffffffffffffff16816dffffffffffffffffffffffffffff166001965096509650505050506127c0565b8873ffffffffffffffffffffffffffffffffffffffff168373ffffffffffffffffffffffffffffffffffffffff1614801561277b57508773ffffffffffffffffffffffffffffffffffffffff168473ffffffffffffffffffffffffffffffffffffffff16145b156127b257806dffffffffffffffffffffffffffff16826dffffffffffffffffffffffffffff165f965096509650505050506127c0565b5f5f5f965096509650505050505b93509350939050565b6127d1612c17565b5f820315612905575f8290506127e5612cb0565b73c02aaa39b223fe8d0a0e5c4f27ead9083c756cc273ffffffffffffffffffffffffffffffffffffffff16856040015173ffffffffffffffffffffffffffffffffffffffff161461288f5761283e856040015185612966565b80935081925050505f73ffffffffffffffffffffffffffffffffffffffff16815f015173ffffffffffffffffffffffffffffffffffffffff16148061288257505f82145b1561288e575050612905565b5b85821161289d575050612905565b604051806101200160405280895f015173ffffffffffffffffffffffffffffffffffffffff1681526020018881526020018781526020018381526020018960800151151581526020016008815260200186815260200182815260200160011515815250925050505b95945050505050565b5f826101000151612921575f9050612960565b8161010001516129345760019050612960565b81604001518260600151612948919061334c565b8360400151846060015161295c919061334c565b1190505b92915050565b61296e612cb0565b5f5f6040518060400160405280735c69bee701ef814a2b6a3edd4b1652cb9cc5aa6f73ffffffffffffffffffffffffffffffffffffffff1673ffffffffffffffffffffffffffffffffffffffff16815260200173c0aee478e3658e2610c5f7a4a2e1777ce9e4f2ac73ffffffffffffffffffffffffffffffffffffffff1673ffffffffffffffffffffffffffffffffffffffff1681525090505f5f90505b6002811015612c01575f828260028110612a2957612a2861400c565b5b602002015173ffffffffffffffffffffffffffffffffffffffff1663e6a439058873c02aaa39b223fe8d0a0e5c4f27ead9083c756cc26040518363ffffffff1660e01b8152600401612a7c929190614261565b602060405180830381865afa158015612a97573d5f5f3e3d5ffd5b505050506040513d601f19601f82011682018060405250810190612abb9190613f79565b90505f73ffffffffffffffffffffffffffffffffffffffff168173ffffffffffffffffffffffffffffffffffffffff161480612b0d57505f8173ffffffffffffffffffffffffffffffffffffffff163b145b15612b185750612bf6565b5f5f5f612b3a848b73c02aaa39b223fe8d0a0e5c4f27ead9083c756cc2612520565b9250925092505f831480612b4d57505f82145b15612b5b5750505050612bf6565b5f612b678a85856123be565b905087811115612bf05780975060405180608001604052808673ffffffffffffffffffffffffffffffffffffffff1681526020018c73ffffffffffffffffffffffffffffffffffffffff16815260200173c02aaa39b223fe8d0a0e5c4f27ead9083c756cc273ffffffffffffffffffffffffffffffffffffffff16815260200183151581525098505b50505050505b806001019050612a0c565b50509250929050565b610c8a806143c183390190565b6040518061012001604052805f73ffffffffffffffffffffffffffffffffffffffff1681526020015f81526020015f81526020015f81526020015f151581526020015f8152602001612c67612cb0565b8152602001612c74612cb0565b81526020015f151581525090565b6040518061020001604052806010905b612c9a612d18565b815260200190600190039081612c925790505090565b60405180608001604052805f73ffffffffffffffffffffffffffffffffffffffff1681526020015f73ffffffffffffffffffffffffffffffffffffffff1681526020015f73ffffffffffffffffffffffffffffffffffffffff1681526020015f151581525090565b6040518060a001604052805f73ffffffffffffffffffffffffffffffffffffffff1681526020015f73ffffffffffffffffffffffffffffffffffffffff1681526020015f81526020015f81526020015f151581525090565b5f604051905090565b5f5ffd5b5f5ffd5b5f73ffffffffffffffffffffffffffffffffffffffff82169050919050565b5f612daa82612d81565b9050919050565b612dba81612da0565b8114612dc4575f5ffd5b50565b5f81359050612dd581612db1565b92915050565b5f819050919050565b612ded81612ddb565b8114612df7575f5ffd5b50565b5f81359050612e0881612de4565b92915050565b5f5ffd5b5f5ffd5b5f5ffd5b5f5f83601f840112612e2f57612e2e612e0e565b5b8235905067ffffffffffffffff811115612e4c57612e4b612e12565b5b602083019150836001820283011115612e6857612e67612e16565b5b9250929050565b5f5f5f5f5f5f5f5f60c0898b031215612e8b57612e8a612d79565b5b5f612e988b828c01612dc7565b9850506020612ea98b828c01612dc7565b9750506040612eba8b828c01612dc7565b9650506060612ecb8b828c01612dfa565b955050608089013567ffffffffffffffff811115612eec57612eeb612d7d565b5b612ef88b828c01612e1a565b945094505060a089013567ffffffffffffffff811115612f1b57612f1a612d7d565b5b612f278b828c01612e1a565b92509250509295985092959890939650565b5f5f5f5f5f60808688031215612f5257612f51612d79565b5b5f612f5f88828901612dc7565b9550506020612f7088828901612dfa565b9450506040612f8188828901612dfa565b935050606086013567ffffffffffffffff811115612fa257612fa1612d7d565b5b612fae88828901612e1a565b92509250509295509295909350565b612fc681612ddb565b82525050565b5f602082019050612fdf5f830184612fbd565b92915050565b5f81519050919050565b5f82825260208201905092915050565b8281835e5f83830152505050565b5f601f19601f8301169050919050565b5f61302782612fe5565b6130318185612fef565b9350613041818560208601612fff565b61304a8161300d565b840191505092915050565b5f6020820190508181035f83015261306d818461301d565b905092915050565b5f819050919050565b61308781613075565b8114613091575f5ffd5b50565b5f813590506130a28161307e565b92915050565b5f5f604083850312156130be576130bd612d79565b5b5f6130cb85828601613094565b92505060206130dc85828601612dc7565b9150509250929050565b6130ef81613075565b82525050565b5f6020820190506131085f8301846130e6565b92915050565b5f8115159050919050565b6131228161310e565b82525050565b5f60208201905061313b5f830184613119565b92915050565b61314a81612da0565b82525050565b5f6020820190506131635f830184613141565b92915050565b5f819050919050565b5f61318c61318761318284612d81565b613169565b612d81565b9050919050565b5f61319d82613172565b9050919050565b5f6131ae82613193565b9050919050565b6131be816131a4565b82525050565b5f6020820190506131d75f8301846131b5565b92915050565b7f756e657870656374656420746f6b656e000000000000000000000000000000005f82015250565b5f613211601083612fef565b915061321c826131dd565b602082019050919050565b5f6020820190508181035f83015261323e81613205565b9050919050565b7f756e657870656374656420726563697069656e740000000000000000000000005f82015250565b5f613279601483612fef565b915061328482613245565b602082019050919050565b5f6020820190508181035f8301526132a68161326d565b9050919050565b7f4e487b71000000000000000000000000000000000000000000000000000000005f52601160045260245ffd5b5f6132e482612ddb565b91506132ef83612ddb565b9250828201905080821115613307576133066132ad565b5b92915050565b5f8151905061331b81612de4565b92915050565b5f6020828403121561333657613335612d79565b5b5f6133438482850161330d565b91505092915050565b5f61335682612ddb565b915061336183612ddb565b9250828203905081811115613379576133786132ad565b5b92915050565b5f5ffd5b7f4e487b71000000000000000000000000000000000000000000000000000000005f52604160045260245ffd5b6133b98261300d565b810181811067ffffffffffffffff821117156133d8576133d7613383565b5b80604052505050565b5f6133ea612d70565b90506133f682826133b0565b919050565b6134048161310e565b811461340e575f5ffd5b50565b5f8135905061341f816133fb565b92915050565b5f6080828403121561343a5761343961337f565b5b61344460806133e1565b90505f61345384828501612dc7565b5f83015250602061346684828501612dc7565b602083015250604061347a84828501612dc7565b604083015250606061348e84828501613411565b60608301525092915050565b5f6101e082840312156134b0576134af61337f565b5b6134bb6101206133e1565b90505f6134ca84828501612dc7565b5f8301525060206134dd84828501612dfa565b60208301525060406134f184828501612dfa565b604083015250606061350584828501612dfa565b606083015250608061351984828501613411565b60808301525060a061352d84828501612dfa565b60a08301525060c061354184828501613425565b60c08301525061014061355684828501613425565b60e0830152506101c061356b84828501613411565b6101008301525092915050565b5f6101e0828403121561358e5761358d612d79565b5b5f61359b8482850161349a565b91505092915050565b7f756e6578706563746564207061697200000000000000000000000000000000005f82015250565b5f6135d8600f83612fef565b91506135e3826135a4565b602082019050919050565b5f6020820190508181035f830152613605816135cc565b9050919050565b7f756e657870656374656420616d6f756e740000000000000000000000000000005f82015250565b5f613640601183612fef565b915061364b8261360c565b602082019050919050565b5f6020820190508181035f83015261366d81613634565b9050919050565b5f6040820190506136875f830185613141565b6136946020830184612fbd565b9392505050565b5f815190506136a9816133fb565b92915050565b5f602082840312156136c4576136c3612d79565b5b5f6136d18482850161369b565b91505092915050565b7f617070726f7665206661696c65640000000000000000000000000000000000005f82015250565b5f61370e600e83612fef565b9150613719826136da565b602082019050919050565b5f6020820190508181035f83015261373b81613702565b9050919050565b7f626f72726f7720746f6f20736d616c6c000000000000000000000000000000005f82015250565b5f613776601083612fef565b915061378182613742565b602082019050919050565b5f6020820190508181035f8301526137a38161376a565b9050919050565b7f4e487b71000000000000000000000000000000000000000000000000000000005f52601260045260245ffd5b5f6137e182612ddb565b91506137ec83612ddb565b9250826137fc576137fb6137aa565b5b828204905092915050565b7f6e6f6f64206e6f74207265636f766572656400000000000000000000000000005f82015250565b5f61383b601283612fef565b915061384682613807565b602082019050919050565b5f6020820190508181035f8301526138688161382f565b9050919050565b7f726f7574652062656c6f772072657061790000000000000000000000000000005f82015250565b5f6138a3601183612fef565b91506138ae8261386f565b602082019050919050565b5f6020820190508181035f8301526138d081613897565b9050919050565b7f7265706179207472616e73666572206661696c656400000000000000000000005f82015250565b5f61390b601583612fef565b9150613916826138d7565b602082019050919050565b5f6020820190508181035f830152613938816138ff565b9050919050565b7f4e487b71000000000000000000000000000000000000000000000000000000005f52602260045260245ffd5b5f600282049050600182168061398357607f821691505b6020821081036139965761399561393f565b5b50919050565b5f819050815f5260205f209050919050565b5f6020601f8301049050919050565b5f82821b905092915050565b5f600883026139f87fffffffffffffffffffffffffffffffffffffffffffffffffffffffffffffffff826139bd565b613a0286836139bd565b95508019841693508086168417925050509392505050565b5f613a34613a2f613a2a84612ddb565b613169565b612ddb565b9050919050565b5f819050919050565b613a4d83613a1a565b613a61613a5982613a3b565b8484546139c9565b825550505050565b5f5f905090565b613a78613a69565b613a83818484613a44565b505050565b5b81811015613aa657613a9b5f82613a70565b600181019050613a89565b5050565b601f821115613aeb57613abc8161399c565b613ac5846139ae565b81016020851015613ad4578190505b613ae8613ae0856139ae565b830182613a88565b50505b505050565b5f82821c905092915050565b5f613b0b5f1984600802613af0565b1980831691505092915050565b5f613b238383613afc565b9150826002028217905092915050565b613b3c82612fe5565b67ffffffffffffffff811115613b5557613b54613383565b5b613b5f825461396c565b613b6a828285613aaa565b5f60209050601f831160018114613b9b575f8415613b89578287015190505b613b938582613b18565b865550613bfa565b601f198416613ba98661399c565b5f5b82811015613bd057848901518255600182019150602085019450602081019050613bab565b86831015613bed5784890151613be9601f891682613afc565b8355505b6001600288020188555050505b505050505050565b613c0b81612da0565b82525050565b613c1a81612ddb565b82525050565b613c298161310e565b82525050565b608082015f820151613c435f850182613c02565b506020820151613c566020850182613c02565b506040820151613c696040850182613c02565b506060820151613c7c6060850182613c20565b50505050565b6101e082015f820151613c975f850182613c02565b506020820151613caa6020850182613c11565b506040820151613cbd6040850182613c11565b506060820151613cd06060850182613c11565b506080820151613ce36080850182613c20565b5060a0820151613cf660a0850182613c11565b5060c0820151613d0960c0850182613c2f565b5060e0820151613d1d610140850182613c2f565b50610100820151613d326101c0850182613c20565b50505050565b5f6101e082019050613d4c5f830184613c82565b92915050565b5f819050919050565b5f613d75613d70613d6b84613d52565b613169565b612ddb565b9050919050565b613d8581613d5b565b82525050565b5f81519050919050565b5f82825260208201905092915050565b5f613daf82613d8b565b613db98185613d95565b9350613dc9818560208601612fff565b613dd28161300d565b840191505092915050565b5f608082019050613df05f830187612fbd565b613dfd6020830186613d7c565b613e0a6040830185613141565b8181036060830152613e1c8184613da5565b905095945050505050565b5f608082019050613e3a5f830187613d7c565b613e476020830186612fbd565b613e546040830185613141565b8181036060830152613e668184613da5565b905095945050505050565b5f613e7b82612ddb565b9150613e8683612ddb565b925082613e9657613e956137aa565b5b828206905092915050565b7f756e737570706f7274656420686f7000000000000000000000000000000000005f82015250565b5f613ed5600f83612fef565b9150613ee082613ea1565b602082019050919050565b5f6020820190508181035f830152613f0281613ec9565b9050919050565b5f606082019050613f1c5f830186613141565b613f2960208301856130e6565b613f366040830184613141565b949350505050565b5f604082019050613f515f830185613141565b613f5e60208301846130e6565b9392505050565b5f81519050613f7381612db1565b92915050565b5f60208284031215613f8e57613f8d612d79565b5b5f613f9b84828501613f65565b91505092915050565b7f686f6f6b20726567697374726174696f6e206661696c656400000000000000005f82015250565b5f613fd8601883612fef565b9150613fe382613fa4565b602082019050919050565b5f6020820190508181035f83015261400581613fcc565b9050919050565b7f4e487b71000000000000000000000000000000000000000000000000000000005f52603260045260245ffd5b5f61404382612ddb565b915061404e83612ddb565b925082820261405c81612ddb565b91508282048414831517614073576140726132ad565b5b5092915050565b5f6dffffffffffffffffffffffffffff82169050919050565b61409c8161407a565b81146140a6575f5ffd5b50565b5f815190506140b781614093565b92915050565b5f63ffffffff82169050919050565b6140d5816140bd565b81146140df575f5ffd5b50565b5f815190506140f0816140cc565b92915050565b5f5f5f6060848603121561410d5761410c612d79565b5b5f61411a868287016140a9565b935050602061412b868287016140a9565b925050604061413c868287016140e2565b9150509250925092565b7f73776170207472616e73666572206661696c65640000000000000000000000005f82015250565b5f61417a601483612fef565b915061418582614146565b602082019050919050565b5f6020820190508181035f8301526141a78161416e565b9050919050565b50565b5f6141bc5f83613d95565b91506141c7826141ae565b5f82019050919050565b5f6080820190506141e45f830186613d7c565b6141f16020830185612fbd565b6141fe6040830184613141565b818103606083015261420f816141b1565b9050949350505050565b5f60808201905061422c5f830186612fbd565b6142396020830185613d7c565b6142466040830184613141565b8181036060830152614257816141b1565b9050949350505050565b5f6040820190506142745f830185613141565b6142816020830184613141565b9392505050565b7f696e73756666696369656e74206f7574707574000000000000000000000000005f82015250565b5f6142bc601383612fef565b91506142c782614288565b602082019050919050565b5f6020820190508181035f8301526142e9816142b0565b9050919050565b7f696e73756666696369656e74206c6971756964697479000000000000000000005f82015250565b5f614324601683612fef565b915061432f826142f0565b602082019050919050565b5f6020820190508181035f83015261435181614318565b9050919050565b7f696e73756666696369656e7420696e70757400000000000000000000000000005f82015250565b5f61438c601283612fef565b915061439782614358565b602082019050919050565b5f6020820190508181035f8301526143b981614380565b905091905056fe60a060405234801561000f575f5ffd5b50604051610c8a380380610c8a833981810160405281019061003191906100c9565b8073ffffffffffffffffffffffffffffffffffffffff1660808173ffffffffffffffffffffffffffffffffffffffff1681525050506100f4565b5f5ffd5b5f73ffffffffffffffffffffffffffffffffffffffff82169050919050565b5f6100988261006f565b9050919050565b6100a88161008e565b81146100b2575f5ffd5b50565b5f815190506100c38161009f565b92915050565b5f602082840312156100de576100dd61006b565b5b5f6100eb848285016100b5565b91505092915050565b608051610b696101215f395f8181610180015281816102ec0152818161041e01526105110152610b695ff3fe608060405234801561000f575f5ffd5b5060043610610055575f3560e01c80632e1a7d4d14610059578063b6b55f2514610075578063b7ec1a3314610091578063ce7c2ac2146100af578063f14faf6f146100df575b5f5ffd5b610073600480360381019061006e9190610625565b6100fb565b005b61008f600480360381019061008a9190610625565b6102a8565b005b61009961041b565b6040516100a6919061065f565b60405180910390f35b6100c960048036038101906100c491906106d2565b6104b9565b6040516100d6919061065f565b60405180910390f35b6100f960048036038101906100f49190610625565b6104cd565b005b5f5f5f3373ffffffffffffffffffffffffffffffffffffffff1673ffffffffffffffffffffffffffffffffffffffff1681526020019081526020015f205490508181101561017e576040517f08c379a000000000000000000000000000000000000000000000000000000000815260040161017590610757565b60405180910390fd5b7f000000000000000000000000000000000000000000000000000000000000000073ffffffffffffffffffffffffffffffffffffffff1663a9059cbb33846040518363ffffffff1660e01b81526004016101d9929190610784565b6020604051808303815f875af11580156101f5573d5f5f3e3d5ffd5b505050506040513d601f19601f8201168201806040525081019061021991906107e0565b610258576040517f08c379a000000000000000000000000000000000000000000000000000000000815260040161024f90610855565b60405180910390fd5b818161026491906108a0565b5f5f3373ffffffffffffffffffffffffffffffffffffffff1673ffffffffffffffffffffffffffffffffffffffff1681526020019081526020015f20819055505050565b5f81036102ea576040517f08c379a00000000000000000000000000000000000000000000000000000000081526004016102e19061091d565b60405180910390fd5b7f000000000000000000000000000000000000000000000000000000000000000073ffffffffffffffffffffffffffffffffffffffff166323b872dd3330846040518463ffffffff1660e01b81526004016103479392919061093b565b6020604051808303815f875af1158015610363573d5f5f3e3d5ffd5b505050506040513d601f19601f8201168201806040525081019061038791906107e0565b6103c6576040517f08c379a00000000000000000000000000000000000000000000000000000000081526004016103bd906109ba565b60405180910390fd5b805f5f3373ffffffffffffffffffffffffffffffffffffffff1673ffffffffffffffffffffffffffffffffffffffff1681526020019081526020015f205f82825461041191906109d8565b9250508190555050565b5f7f000000000000000000000000000000000000000000000000000000000000000073ffffffffffffffffffffffffffffffffffffffff166370a08231306040518263ffffffff1660e01b81526004016104759190610a0b565b602060405180830381865afa158015610490573d5f5f3e3d5ffd5b505050506040513d601f19601f820116820180604052508101906104b49190610a38565b905090565b5f602052805f5260405f205f915090505481565b5f810361050f576040517f08c379a000000000000000000000000000000000000000000000000000000000815260040161050690610aad565b60405180910390fd5b7f000000000000000000000000000000000000000000000000000000000000000073ffffffffffffffffffffffffffffffffffffffff166323b872dd3330846040518463ffffffff1660e01b815260040161056c9392919061093b565b6020604051808303815f875af1158015610588573d5f5f3e3d5ffd5b505050506040513d601f19601f820116820180604052508101906105ac91906107e0565b6105eb576040517f08c379a00000000000000000000000000000000000000000000000000000000081526004016105e290610b15565b60405180910390fd5b50565b5f5ffd5b5f819050919050565b610604816105f2565b811461060e575f5ffd5b50565b5f8135905061061f816105fb565b92915050565b5f6020828403121561063a576106396105ee565b5b5f61064784828501610611565b91505092915050565b610659816105f2565b82525050565b5f6020820190506106725f830184610650565b92915050565b5f73ffffffffffffffffffffffffffffffffffffffff82169050919050565b5f6106a182610678565b9050919050565b6106b181610697565b81146106bb575f5ffd5b50565b5f813590506106cc816106a8565b92915050565b5f602082840312156106e7576106e66105ee565b5b5f6106f4848285016106be565b91505092915050565b5f82825260208201905092915050565b7f696e73756666696369656e7420736861726573000000000000000000000000005f82015250565b5f6107416013836106fd565b915061074c8261070d565b602082019050919050565b5f6020820190508181035f83015261076e81610735565b9050919050565b61077e81610697565b82525050565b5f6040820190506107975f830185610775565b6107a46020830184610650565b9392505050565b5f8115159050919050565b6107bf816107ab565b81146107c9575f5ffd5b50565b5f815190506107da816107b6565b92915050565b5f602082840312156107f5576107f46105ee565b5b5f610802848285016107cc565b91505092915050565b7f7769746864726177207472616e73666572206661696c656400000000000000005f82015250565b5f61083f6018836106fd565b915061084a8261080b565b602082019050919050565b5f6020820190508181035f83015261086c81610833565b9050919050565b7f4e487b71000000000000000000000000000000000000000000000000000000005f52601160045260245ffd5b5f6108aa826105f2565b91506108b5836105f2565b92508282039050818111156108cd576108cc610873565b5b92915050565b7f6465706f7369743d3000000000000000000000000000000000000000000000005f82015250565b5f6109076009836106fd565b9150610912826108d3565b602082019050919050565b5f6020820190508181035f830152610934816108fb565b9050919050565b5f60608201905061094e5f830186610775565b61095b6020830185610775565b6109686040830184610650565b949350505050565b7f6465706f736974207472616e73666572206661696c65640000000000000000005f82015250565b5f6109a46017836106fd565b91506109af82610970565b602082019050919050565b5f6020820190508181035f8301526109d181610998565b9050919050565b5f6109e2826105f2565b91506109ed836105f2565b9250828201905080821115610a0557610a04610873565b5b92915050565b5f602082019050610a1e5f830184610775565b92915050565b5f81519050610a32816105fb565b92915050565b5f60208284031215610a4d57610a4c6105ee565b5b5f610a5a84828501610a24565b91505092915050565b7f646f6e6174653d300000000000000000000000000000000000000000000000005f82015250565b5f610a976008836106fd565b9150610aa282610a63565b602082019050919050565b5f6020820190508181035f830152610ac481610a8b565b9050919050565b7f646f6e6174696f6e207472616e73666572206661696c656400000000000000005f82015250565b5f610aff6018836106fd565b9150610b0a82610acb565b602082019050919050565b5f6020820190508181035f830152610b2c81610af3565b905091905056fea264697066735822122072f623add45254b17047dfdb4354b9a2510e7e9c3514263fd0c6f253cf68a8dd64736f6c634300081e0033696e7465677261746f722075736573206e303064207472616e7366657246726f6d282920616e64206c61746572207472616e736665722829206173206966207468657920776572652063616c6c6261636b2d66726565204552433230206f7065726174696f6e733b2061747461636b65722072656769737465727320616e204552433138323020455243373737546f6b656e73526563697069656e7420686f6f6b3b2061207075626c696320556e697377617056322f53757368692d6c696b65206e3030642f5745544820666c617368737761702064657465726d696e6973746963616c6c792066756e647320746865206c6f63616c207661756c743b20647572696e67207769746864726177206e303064207374696c6c20726f75746573207472616e736665722829207468726f75676820455243373737205f73656e64282e2e2e2c2066616c7365292c2063726564697473207468652061747461636b65722c20696e766f6b657320746f6b656e73526563656976656428292c20616e642074686520686f6f6b207265656e74657273207769746864726177206265666f726520736861726573206172652066696e616c697a65643b20746865207265636f7665726564206e303064206973207468656e20756e776f756e64206f6e6c79207468726f756768207072652d6578697374696e6720556e697377617056322f53757368692d6c696b65206c6971756964697479206261636b20696e746f205745544820746f20736574746c652074686520666c617368737761704e6f2070726f66697461626c6520556e697377617056322f53757368692d6c696b6520756e77696e6420726f7574652077617320646973636f76657261626c652066726f6d20746865206c697665206e3030642f5745544820736f75726365207061697220696e746f20616e79207072652d6578697374696e67206e3030642f57455448206f72206e3030642f3c71756f74653e207061697220706c75732061207075626c6963203c71756f74653e2f57455448206272696467652061742074686520666f726b20626c6f636b2c20736f2074686520766572696669657220636f756c64206e6f7420736574746c652074686520666c6173687377617020776974686f757420696e76656e74696e67206f66662d636f6e74657874206c69717569646974792e5468652045524337373720726563697069656e742d686f6f6b207265656e7472616e637920726570726f647563656420636f72726563746c792c2062757420657665727920646973636f766572656420556e697377617056322f53757368692d6c696b65206578697420726f757465207374696c6c206661696c656420746f206c6561766520726573696475616c2057455448206166746572207265706179696e672074686520666c61736873776170706564206e3030642f5745544820736f7572636520706169722061742074686520666f726b20626c6f636b2ea264697066735822122047045918e0745b5a54e2da725278c2b54487eff9cd51b1e9180d1353fa0dc56764736f6c634300081e0033","linkReferences":{}},"methodIdentifiers":{"canImplementInterfaceForAddress(bytes32,address)":"249cb3fa","concreteInfeasibility()":"1f69f8ce","depositedAmount()":"1d01364c","donatedLiquidity()":"edc3b56e","endingBalance()":"b6fb7e46","executeOnOpportunity()":"3c2448ed","executed()":"31a38c89","exploitPathUsed()":"d78c4281","flashswapUsed()":"c9819e23","hookCallCount()":"81646075","hookObserved()":"79e64f41","hookRegistered()":"81419b42","hypothesisRefuted()":"495f92f1","hypothesisValidated()":"463defd1","profitAmount()":"5ff972cc","profitToken()":"49343624","reentered()":"3f09775e","reenteredWithdrawAmount()":"2ecfe1be","startingBalance()":"94bd2d3b","tokensReceived(address,address,address,uint256,bytes,bytes)":"0023de29","transferFromLegUsed()":"57004c5e","transferLegUsed()":"8de76e0f","uniswapV2Call(address,uint256,uint256,bytes)":"10d1e85c","vault()":"fbfa77cf"},"id":0}