{"abi":[{"type":"function","name":"committedRoot","inputs":[],"outputs":[{"name":"","type":"bytes32","internalType":"bytes32"}],"stateMutability":"view"},{"type":"function","name":"initialize","inputs":[{"name":"_remoteDomain","type":"uint32","internalType":"uint32"},{"name":"_updater","type":"address","internalType":"address"},{"name":"_committedRoot","type":"bytes32","internalType":"bytes32"},{"name":"_optimisticSeconds","type":"uint256","internalType":"uint256"}],"outputs":[],"stateMutability":"nonpayable"},{"type":"function","name":"initialized","inputs":[],"outputs":[{"name":"","type":"bool","internalType":"bool"}],"stateMutability":"view"},{"type":"function","name":"localDomain","inputs":[],"outputs":[{"name":"","type":"uint32","internalType":"uint32"}],"stateMutability":"view"},{"type":"function","name":"messages","inputs":[{"name":"","type":"bytes32","internalType":"bytes32"}],"outputs":[{"name":"","type":"bytes32","internalType":"bytes32"}],"stateMutability":"view"},{"type":"function","name":"optimisticSeconds","inputs":[],"outputs":[{"name":"","type":"uint256","internalType":"uint256"}],"stateMutability":"view"},{"type":"function","name":"owner","inputs":[],"outputs":[{"name":"","type":"address","internalType":"address"}],"stateMutability":"view"},{"type":"function","name":"process","inputs":[{"name":"_message","type":"bytes","internalType":"bytes"}],"outputs":[{"name":"","type":"bool","internalType":"bool"}],"stateMutability":"nonpayable"},{"type":"function","name":"processed","inputs":[{"name":"","type":"bytes32","internalType":"bytes32"}],"outputs":[{"name":"","type":"bool","internalType":"bool"}],"stateMutability":"view"},{"type":"function","name":"prove","inputs":[{"name":"_leaf","type":"bytes32","internalType":"bytes32"},{"name":"_proof","type":"bytes32[32]","internalType":"bytes32[32]"},{"name":"_index","type":"uint256","internalType":"uint256"}],"outputs":[{"name":"","type":"bool","internalType":"bool"}],"stateMutability":"nonpayable"},{"type":"function","name":"remoteDomain","inputs":[],"outputs":[{"name":"","type":"uint32","internalType":"uint32"}],"stateMutability":"view"},{"type":"function","name":"state","inputs":[],"outputs":[{"name":"","type":"uint8","internalType":"uint8"}],"stateMutability":"view"},{"type":"function","name":"updater","inputs":[],"outputs":[{"name":"","type":"address","internalType":"address"}],"stateMutability":"view"}],"bytecode":{"object":"0x60808060405234601557610846908161001a8239f35b5f80fdfe6080806040526004361015610012575f80fd5b5f905f3560e01c908163158ef93e146106fe575080632bbd59ca146106d4578063371d3071146105c757806339992668146105aa57806367a6771d1461058d5780638d3638f4146105675780638da5cb5b14610540578063928bc4b214610246578063961681dc1461021f578063c19d93fb146101fb578063c1f0808a146101cc578063df034cd0146101a35763e7e7a7b7146100ad575f80fd5b346101a05760803660031901126101a05760043563ffffffff8116810361019e576024356001600160a01b0381169081900361019a5760045460ff811661015f5760ff1916600190811760045583546001600160a01b03191633178455805467ffffffffffffffff60a81b196001600160a81b031991909116909217600160a01b179190911660c89290921b63ffffffff60c81b1691909117620cae8d60ab1b17905560443560025560643560035580f35b60405162461bcd60e51b8152602060048201526013602482015272185b1c9958591e481a5b9a5d1a585b1a5e9959606a1b6044820152606490fd5b8280fd5b505b80fd5b50346101a057806003193601126101a0576001546040516001600160a01b039091168152602090f35b50346101a05760203660031901126101a05760ff60406020926004358152600684522054166040519015158152f35b50346101a057806003193601126101a057602060ff60015460a01c16604051908152f35b50346101a057806003193601126101a057602063ffffffff60015460c81c16604051908152f35b346104385760203660031901126104385760043567ffffffffffffffff811161043857366023820112156104385780600401359067ffffffffffffffff821161043857602481013660248484010111610438576102a760ff6004541661071d565b600154906102bd600160ff8460a01c161461075b565b604c8410610507578360041161043857803560e01c926024851061043857602881013594806028116104385760488201359281602c1161043857604c83013582604c116104385761031d60508501359436906070604b19870191016107ca565b9563ffffffff8160c81c1688036104d85760a81c63ffffffff1660e09190911c036104a45761034d9136916107ca565b60208151910120805f52600560205260405f20546002540361047557805f52600660205260ff60405f20541661043c575f908152600660205260409020805460ff191660011790556001600160a01b031690813b15610438575f60a48195602063ffffffff96604051998a988997889563ab2dc3f560e01b8752600487015260e01c1660248501526044840152608060648401528051918291826084860152018484015e8181018301849052601f01601f191681010301925af1801561042d5761041d575b602060405160018152f35b5f61042791610794565b5f610412565b6040513d5f823e3d90fd5b5f80fd5b60405162461bcd60e51b8152602060048201526011602482015270185b1c9958591e481c1c9bd8d95cdcd959607a1b6044820152606490fd5b60405162461bcd60e51b815260206004820152600760248201526610b83937bb32b760c91b6044820152606490fd5b60405162461bcd60e51b815260206004820152600c60248201526b10b232b9ba34b730ba34b7b760a11b6044820152606490fd5b60405162461bcd60e51b81526020600482015260076024820152662172656d6f746560c81b6044820152606490fd5b60405162461bcd60e51b81526020600482015260116024820152701b595cdcd859d9481d1bdbc81cda1bdc9d607a1b6044820152606490fd5b34610438575f366003190112610438575f546040516001600160a01b039091168152602090f35b34610438575f36600319011261043857602063ffffffff60015460a81c16604051908152f35b34610438575f366003190112610438576020600254604051908152f35b34610438575f366003190112610438576020600354604051908152f35b34610438576104403660031901126104385760043536610424116104385761042435906105f860ff6004541661071d565b61060b600160ff815460a01c161461075b565b5f91815b6020841015610685576001908460051b6024013590828085881c16145f1461065c576040519060208201928352604082015260408152610650606082610794565b519020935b019261060f565b90604051906020820192835260408201526040815261067c606082610794565b51902093610655565b8260025482036106a6575f52600560205260405f2055602060405160018152f35b60405162461bcd60e51b815260206004820152600660248201526510b83937b7b360d11b6044820152606490fd5b34610438576020366003190112610438576004355f526005602052602060405f2054604051908152f35b34610438575f3660031901126104385760209060ff6004541615158152f35b1561072457565b60405162461bcd60e51b815260206004820152600f60248201526e1b9bdd081a5b9a5d1a585b1a5e9959608a1b6044820152606490fd5b1561076257565b60405162461bcd60e51b815260206004820152600a6024820152696e6f742061637469766560b01b6044820152606490fd5b90601f8019910116810190811067ffffffffffffffff8211176107b657604052565b634e487b7160e01b5f52604160045260245ffd5b92919267ffffffffffffffff82116107b657604051916107f4601f8201601f191660200184610794565b829481845281830111610438578281602093845f96013701015256fea26469706673582212206d237d75ff563863cc8d2de7b8e4a6ff05ecca45f41245a391475e019d5955fc64736f6c634300081e0033","linkReferences":{}},"methodIdentifiers":{"committedRoot()":"67a6771d","initialize(uint32,address,bytes32,uint256)":"e7e7a7b7","initialized()":"158ef93e","localDomain()":"8d3638f4","messages(bytes32)":"2bbd59ca","optimisticSeconds()":"39992668","owner()":"8da5cb5b","process(bytes)":"928bc4b2","processed(bytes32)":"c1f0808a","prove(bytes32,bytes32[32],uint256)":"371d3071","remoteDomain()":"961681dc","state()":"c19d93fb","updater()":"df034cd0"},"id":0}