{"abi":[{"type":"constructor","inputs":[],"stateMutability":"nonpayable"},{"type":"receive","stateMutability":"payable"},{"type":"function","name":"DAI","inputs":[],"outputs":[{"name":"","type":"address","internalType":"address"}],"stateMutability":"view"},{"type":"function","name":"MIM","inputs":[],"outputs":[{"name":"","type":"address","internalType":"address"}],"stateMutability":"view"},{"type":"function","name":"PATH_2_OVERFLOW_ANCHOR","inputs":[],"outputs":[{"name":"","type":"string","internalType":"string"}],"stateMutability":"view"},{"type":"function","name":"PATH_2_SUBTRACTION_ANCHOR","inputs":[],"outputs":[{"name":"","type":"string","internalType":"string"}],"stateMutability":"view"},{"type":"function","name":"SUSHI_ROUTER","inputs":[],"outputs":[{"name":"","type":"address","internalType":"address"}],"stateMutability":"view"},{"type":"function","name":"TARGET","inputs":[],"outputs":[{"name":"","type":"address","internalType":"contract ICauldronV4Like"}],"stateMutability":"view"},{"type":"function","name":"TARGET_CAULDRON","inputs":[],"outputs":[{"name":"","type":"address","internalType":"address"}],"stateMutability":"view"},{"type":"function","name":"UNISWAP_V2_ROUTER","inputs":[],"outputs":[{"name":"","type":"address","internalType":"address"}],"stateMutability":"view"},{"type":"function","name":"USDC","inputs":[],"outputs":[{"name":"","type":"address","internalType":"address"}],"stateMutability":"view"},{"type":"function","name":"USDT","inputs":[],"outputs":[{"name":"","type":"address","internalType":"address"}],"stateMutability":"view"},{"type":"function","name":"WBTC","inputs":[],"outputs":[{"name":"","type":"address","internalType":"address"}],"stateMutability":"view"},{"type":"function","name":"WETH","inputs":[],"outputs":[{"name":"","type":"address","internalType":"address"}],"stateMutability":"view"},{"type":"function","name":"attemptFinalLiquidation","inputs":[],"outputs":[],"stateMutability":"nonpayable"},{"type":"function","name":"badDebtLocked","inputs":[],"outputs":[{"name":"","type":"bool","internalType":"bool"}],"stateMutability":"view"},{"type":"function","name":"borrowedAmount","inputs":[],"outputs":[{"name":"","type":"uint256","internalType":"uint256"}],"stateMutability":"view"},{"type":"function","name":"borrowedPart","inputs":[],"outputs":[{"name":"","type":"uint256","internalType":"uint256"}],"stateMutability":"view"},{"type":"function","name":"borrowedShare","inputs":[],"outputs":[{"name":"","type":"uint256","internalType":"uint256"}],"stateMutability":"view"},{"type":"function","name":"bugConfirmed","inputs":[],"outputs":[{"name":"","type":"bool","internalType":"bool"}],"stateMutability":"view"},{"type":"function","name":"collateralToken","inputs":[],"outputs":[{"name":"","type":"address","internalType":"address"}],"stateMutability":"view"},{"type":"function","name":"convexDepositToken","inputs":[],"outputs":[{"name":"","type":"address","internalType":"address"}],"stateMutability":"view"},{"type":"function","name":"curveLpToken","inputs":[],"outputs":[{"name":"","type":"address","internalType":"address"}],"stateMutability":"view"},{"type":"function","name":"curvePool","inputs":[],"outputs":[{"name":"","type":"address","internalType":"address"}],"stateMutability":"view"},{"type":"function","name":"depositedAmount","inputs":[],"outputs":[{"name":"","type":"uint256","internalType":"uint256"}],"stateMutability":"view"},{"type":"function","name":"depositedShare","inputs":[],"outputs":[{"name":"","type":"uint256","internalType":"uint256"}],"stateMutability":"view"},{"type":"function","name":"dumpAsset","inputs":[],"outputs":[{"name":"","type":"address","internalType":"address"}],"stateMutability":"view"},{"type":"function","name":"dumpRouter","inputs":[],"outputs":[{"name":"","type":"address","internalType":"address"}],"stateMutability":"view"},{"type":"function","name":"dumpedForPriceImpact","inputs":[],"outputs":[{"name":"","type":"bool","internalType":"bool"}],"stateMutability":"view"},{"type":"function","name":"exchangeRateAfterDump","inputs":[],"outputs":[{"name":"","type":"uint256","internalType":"uint256"}],"stateMutability":"view"},{"type":"function","name":"exchangeRateBefore","inputs":[],"outputs":[{"name":"","type":"uint256","internalType":"uint256"}],"stateMutability":"view"},{"type":"function","name":"execute","inputs":[],"outputs":[{"name":"","type":"uint256","internalType":"uint256"}],"stateMutability":"nonpayable"},{"type":"function","name":"executeOnOpportunity","inputs":[],"outputs":[{"name":"","type":"uint256","internalType":"uint256"}],"stateMutability":"nonpayable"},{"type":"function","name":"executeStrategy","inputs":[{"name":"amount","type":"uint256","internalType":"uint256"},{"name":"depositBps","type":"uint16","internalType":"uint16"},{"name":"router","type":"address","internalType":"address"},{"name":"quote","type":"address","internalType":"address"}],"outputs":[{"name":"","type":"uint256","internalType":"uint256"}],"stateMutability":"nonpayable"},{"type":"function","name":"executeTo","inputs":[{"name":"recipient","type":"address","internalType":"address"}],"outputs":[{"name":"","type":"uint256","internalType":"uint256"}],"stateMutability":"nonpayable"},{"type":"function","name":"executeWithFlashAmount","inputs":[{"name":"amount","type":"uint256","internalType":"uint256"}],"outputs":[{"name":"","type":"uint256","internalType":"uint256"}],"stateMutability":"nonpayable"},{"type":"function","name":"exploit","inputs":[],"outputs":[{"name":"","type":"uint256","internalType":"uint256"}],"stateMutability":"nonpayable"},{"type":"function","name":"finalLiquidationRevertData","inputs":[],"outputs":[{"name":"","type":"bytes","internalType":"bytes"}],"stateMutability":"view"},{"type":"function","name":"finalLiquidationReverted","inputs":[],"outputs":[{"name":"","type":"bool","internalType":"bool"}],"stateMutability":"view"},{"type":"function","name":"flashAmount","inputs":[],"outputs":[{"name":"","type":"uint256","internalType":"uint256"}],"stateMutability":"view"},{"type":"function","name":"flashFee","inputs":[],"outputs":[{"name":"","type":"uint256","internalType":"uint256"}],"stateMutability":"view"},{"type":"function","name":"fullLiquidationShareNeeded","inputs":[],"outputs":[{"name":"","type":"uint256","internalType":"uint256"}],"stateMutability":"view"},{"type":"function","name":"hypothesisValidated","inputs":[],"outputs":[{"name":"","type":"bool","internalType":"bool"}],"stateMutability":"view"},{"type":"function","name":"insolventAfterDump","inputs":[],"outputs":[{"name":"","type":"bool","internalType":"bool"}],"stateMutability":"view"},{"type":"function","name":"lastAttemptRevertData","inputs":[],"outputs":[{"name":"","type":"bytes","internalType":"bytes"}],"stateMutability":"view"},{"type":"function","name":"lastBorrowAmount","inputs":[],"outputs":[{"name":"","type":"uint256","internalType":"uint256"}],"stateMutability":"view"},{"type":"function","name":"lastBorrowPart","inputs":[],"outputs":[{"name":"","type":"uint256","internalType":"uint256"}],"stateMutability":"view"},{"type":"function","name":"lastProfitAmount","inputs":[],"outputs":[{"name":"","type":"uint256","internalType":"uint256"}],"stateMutability":"view"},{"type":"function","name":"lastProfitToken","inputs":[],"outputs":[{"name":"","type":"address","internalType":"address"}],"stateMutability":"view"},{"type":"function","name":"onFlashLoan","inputs":[{"name":"sender","type":"address","internalType":"address"},{"name":"token","type":"address","internalType":"contract IERC20Like"},{"name":"amount","type":"uint256","internalType":"uint256"},{"name":"fee","type":"uint256","internalType":"uint256"},{"name":"","type":"bytes","internalType":"bytes"}],"outputs":[],"stateMutability":"nonpayable"},{"type":"function","name":"partialLiquidationExecuted","inputs":[],"outputs":[{"name":"","type":"bool","internalType":"bool"}],"stateMutability":"view"},{"type":"function","name":"positionCreated","inputs":[],"outputs":[{"name":"","type":"bool","internalType":"bool"}],"stateMutability":"view"},{"type":"function","name":"previewBorrowAmount","inputs":[],"outputs":[{"name":"","type":"uint256","internalType":"uint256"}],"stateMutability":"view"},{"type":"function","name":"previewCollateralToken","inputs":[],"outputs":[{"name":"","type":"address","internalType":"address"}],"stateMutability":"view"},{"type":"function","name":"previewFlashAmount","inputs":[],"outputs":[{"name":"","type":"uint256","internalType":"uint256"}],"stateMutability":"view"},{"type":"function","name":"previewProfitToken","inputs":[],"outputs":[{"name":"","type":"address","internalType":"address"}],"stateMutability":"pure"},{"type":"function","name":"probeBorrow","inputs":[{"name":"amount","type":"uint256","internalType":"uint256"}],"outputs":[],"stateMutability":"nonpayable"},{"type":"function","name":"probeLiquidation","inputs":[{"name":"part","type":"uint256","internalType":"uint256"}],"outputs":[],"stateMutability":"nonpayable"},{"type":"function","name":"profitAmount","inputs":[],"outputs":[{"name":"","type":"uint256","internalType":"uint256"}],"stateMutability":"view"},{"type":"function","name":"quoteAsset","inputs":[],"outputs":[{"name":"","type":"address","internalType":"address"}],"stateMutability":"view"},{"type":"function","name":"remainingBorrowPart","inputs":[],"outputs":[{"name":"","type":"uint256","internalType":"uint256"}],"stateMutability":"view"},{"type":"function","name":"remainingCollateralShare","inputs":[],"outputs":[{"name":"","type":"uint256","internalType":"uint256"}],"stateMutability":"view"},{"type":"function","name":"requiredCollateralShareForFullDebtAfterDump","inputs":[],"outputs":[{"name":"","type":"uint256","internalType":"uint256"}],"stateMutability":"view"},{"type":"function","name":"requiredCollateralShareForRemainingDebt","inputs":[],"outputs":[{"name":"","type":"uint256","internalType":"uint256"}],"stateMutability":"view"},{"type":"function","name":"residualDebtIsUnderwater","inputs":[],"outputs":[{"name":"","type":"bool","internalType":"bool"}],"stateMutability":"view"},{"type":"function","name":"run","inputs":[],"outputs":[{"name":"","type":"uint256","internalType":"uint256"}],"stateMutability":"nonpayable"},{"type":"function","name":"safePartialBorrowPart","inputs":[],"outputs":[{"name":"","type":"uint256","internalType":"uint256"}],"stateMutability":"view"},{"type":"function","name":"sweep","inputs":[{"name":"token","type":"address","internalType":"address"},{"name":"to","type":"address","internalType":"address"}],"outputs":[{"name":"amount","type":"uint256","internalType":"uint256"}],"stateMutability":"nonpayable"},{"type":"function","name":"underlyingToken","inputs":[],"outputs":[{"name":"","type":"address","internalType":"address"}],"stateMutability":"view"},{"type":"error","name":"ConcretePreconditionFailed","inputs":[{"name":"reason","type":"string","internalType":"string"}]},{"type":"error","name":"FlashLoanCallerMismatch","inputs":[{"name":"expected","type":"address","internalType":"address"},{"name":"actual","type":"address","internalType":"address"}]},{"type":"error","name":"FlashLoanSenderMismatch","inputs":[{"name":"expected","type":"address","internalType":"address"},{"name":"actual","type":"address","internalType":"address"}]},{"type":"error","name":"FlashLoanTokenMismatch","inputs":[{"name":"expected","type":"address","internalType":"address"},{"name":"actual","type":"address","internalType":"address"}]},{"type":"error","name":"ProbeBorrowSucceeded","inputs":[{"name":"part","type":"uint256","internalType":"uint256"},{"name":"share","type":"uint256","internalType":"uint256"}]},{"type":"error","name":"ProbeLiquidationSucceeded","inputs":[]}],"bytecode":{"object":"0x6080604052348015600e575f5ffd5b507399d8a9c45b2eca8864373a26d1459e3dff1e17f360075f6101000a81548173ffffffffffffffffffffffffffffffffffffffff021916908373ffffffffffffffffffffffffffffffffffffffff16021790555061f002806100705f395ff3fe6080604052600436106103e6575f3560e01c8063a82ed9ec11610207578063cc1f2afa11610117578063e0bab4c4116100aa578063fd85816011610079578063fd85816014610e4b578063fdc0fe3714610e75578063fdf262b714610e9f578063fe87c37514610ec9578063ff6ff99814610ef3576103ed565b8063e0bab4c414610d91578063e2678cc214610dbb578063e7bda23414610de5578063f798d20b14610e0f576103ed565b8063d9e835d6116100e6578063d9e835d614610ce9578063daec383d14610d13578063e07df5b414610d3d578063e083133514610d67576103ed565b8063cc1f2afa14610c2f578063cf3c6f3214610c59578063d76a31db14610c83578063d7c564f614610cbf576103ed565b8063b8dc491b1161019a578063c288eaec11610169578063c288eaec14610b5d578063c416940b14610b87578063c4f0d1c614610bb1578063c54e44eb14610bdb578063ca8ccab614610c05576103ed565b8063b8dc491b14610aa5578063bd7a598c14610ae1578063be459c2a14610b0b578063c040622614610b33576103ed565b8063ada2c46d116101d6578063ada2c46d146109eb578063b0b62eeb14610a27578063b2016bd414610a51578063b570137a14610a7b576103ed565b8063a82ed9ec14610943578063ab9888e61461096d578063ac7e101f14610997578063ad5c4648146109c1576103ed565b806352d11fb4116103025780636dcb95751161029557806395c7775e1161026457806395c7775e1461088557806397f37399146108af5780639ad18f63146108d9578063a66f4e45146108ef578063a6e59f5314610919576103ed565b80636dcb9575146107dd57806375ed2c0a146108075780637eb37bc91461083157806389a302711461085b576103ed565b80636236fa78116102d15780636236fa781461073557806363d9b7701461075f578063646780df146107895780636d8c21a8146107b3576103ed565b806352d11fb41461068d5780635eb143ce146106b75780635ff972cc146106e1578063614619541461070b576103ed565b8063218751b21161037a5780633c2448ed116103495780633c2448ed146105e7578063463defd1146106115780634dede3de1461063b5780634ee8f10514610665576103ed565b8063218751b21461054157806323e30c8b1461056b5780632495a599146105935780633c012277146105bd576103ed565b806311f7cc62116103b657806311f7cc62146104995780631afbb7a4146104c35780631bfc281c146104ed5780631d01364c14610517576103ed565b80620393fc146103f157806304c56a861461041b5780630a2ad983146104455780630c24f4fa1461046f576103ed565b366103ed57005b5f5ffd5b3480156103fc575f5ffd5b50610405610f1d565b604051610412919061c9d0565b60405180910390f35b348015610426575f5ffd5b5061042f610f23565b60405161043c919061c9d0565b60405180910390f35b348015610450575f5ffd5b50610459610f29565b604051610466919061c9d0565b60405180910390f35b34801561047a575f5ffd5b50610483611163565b604051610490919061ca28565b60405180910390f35b3480156104a4575f5ffd5b506104ad61117b565b6040516104ba919061ca5b565b60405180910390f35b3480156104ce575f5ffd5b506104d761118e565b6040516104e4919061c9d0565b60405180910390f35b3480156104f8575f5ffd5b50610501611194565b60405161050e919061ca5b565b60405180910390f35b348015610522575f5ffd5b5061052b6111a7565b604051610538919061c9d0565b60405180910390f35b34801561054c575f5ffd5b506105556111ad565b604051610562919061ca28565b60405180910390f35b348015610576575f5ffd5b50610591600480360381019061058c919061cb75565b6111d2565b005b34801561059e575f5ffd5b506105a76126ea565b6040516105b4919061ca28565b60405180910390f35b3480156105c8575f5ffd5b506105d161270f565b6040516105de919061ca5b565b60405180910390f35b3480156105f2575f5ffd5b506105fb612722565b604051610608919061c9d0565b60405180910390f35b34801561061c575f5ffd5b50610625612731565b604051610632919061ca5b565b60405180910390f35b348015610646575f5ffd5b5061064f612747565b60405161065c919061ca28565b60405180910390f35b348015610670575f5ffd5b5061068b6004803603810190610686919061cc0b565b61275f565b005b348015610698575f5ffd5b506106a161281b565b6040516106ae919061c9d0565b60405180910390f35b3480156106c2575f5ffd5b506106cb612821565b6040516106d8919061ca28565b60405180910390f35b3480156106ec575f5ffd5b506106f5612846565b604051610702919061c9d0565b60405180910390f35b348015610716575f5ffd5b5061071f61284c565b60405161072c919061c9d0565b60405180910390f35b348015610740575f5ffd5b5061074961285b565b604051610756919061ca28565b60405180910390f35b34801561076a575f5ffd5b50610773612880565b604051610780919061c9d0565b60405180910390f35b348015610794575f5ffd5b5061079d61288f565b6040516107aa919061ca28565b60405180910390f35b3480156107be575f5ffd5b506107c76128b4565b6040516107d4919061ca5b565b60405180910390f35b3480156107e8575f5ffd5b506107f16128c7565b6040516107fe919061c9d0565b60405180910390f35b348015610812575f5ffd5b5061081b6128d0565b604051610828919061c9d0565b60405180910390f35b34801561083c575f5ffd5b506108456128d6565b604051610852919061ca5b565b60405180910390f35b348015610866575f5ffd5b5061086f6128e9565b60405161087c919061ca28565b60405180910390f35b348015610890575f5ffd5b50610899612901565b6040516108a6919061ca28565b60405180910390f35b3480156108ba575f5ffd5b506108c3612a02565b6040516108d0919061c9d0565b60405180910390f35b3480156108e4575f5ffd5b506108ed612a0b565b005b3480156108fa575f5ffd5b50610903612a8e565b604051610910919061ca5b565b60405180910390f35b348015610924575f5ffd5b5061092d612aa0565b60405161093a919061c9d0565b60405180910390f35b34801561094e575f5ffd5b50610957612aa9565b604051610964919061ca28565b60405180910390f35b348015610978575f5ffd5b50610981612ac1565b60405161098e919061ca28565b60405180910390f35b3480156109a2575f5ffd5b506109ab612ae6565b6040516109b8919061c9d0565b60405180910390f35b3480156109cc575f5ffd5b506109d5612aec565b6040516109e2919061ca28565b60405180910390f35b3480156109f6575f5ffd5b50610a116004803603810190610a0c919061cc36565b612b04565b604051610a1e919061c9d0565b60405180910390f35b348015610a32575f5ffd5b50610a3b612b15565b604051610a48919061c9d0565b60405180910390f35b348015610a5c575f5ffd5b50610a65612b1b565b604051610a72919061ca28565b60405180910390f35b348015610a86575f5ffd5b50610a8f612b3f565b604051610a9c919061c9d0565b60405180910390f35b348015610ab0575f5ffd5b50610acb6004803603810190610ac6919061cc61565b612b45565b604051610ad8919061c9d0565b60405180910390f35b348015610aec575f5ffd5b50610af5612bd9565b604051610b02919061ca28565b60405180910390f35b348015610b16575f5ffd5b50610b316004803603810190610b2c919061cc0b565b612bf1565b005b348015610b3e575f5ffd5b50610b47612ca2565b604051610b54919061c9d0565b60405180910390f35b348015610b68575f5ffd5b50610b71612cb1565b604051610b7e919061ca28565b60405180910390f35b348015610b92575f5ffd5b50610b9b612cd9565b604051610ba8919061ca5b565b60405180910390f35b348015610bbc575f5ffd5b50610bc5612cec565b604051610bd2919061c9d0565b60405180910390f35b348015610be6575f5ffd5b50610bef612cf2565b604051610bfc919061ca28565b60405180910390f35b348015610c10575f5ffd5b50610c19612d0a565b604051610c26919061c9d0565b60405180910390f35b348015610c3a575f5ffd5b50610c43612d13565b604051610c50919061ccfa565b60405180910390f35b348015610c64575f5ffd5b50610c6d612d2b565b604051610c7a919061ca5b565b60405180910390f35b348015610c8e575f5ffd5b50610ca96004803603810190610ca4919061cd4a565b612d41565b604051610cb6919061c9d0565b60405180910390f35b348015610cca575f5ffd5b50610cd3613261565b604051610ce0919061c9d0565b60405180910390f35b348015610cf4575f5ffd5b50610cfd613267565b604051610d0a919061ce1e565b60405180910390f35b348015610d1e575f5ffd5b50610d276132f3565b604051610d34919061ca28565b60405180910390f35b348015610d48575f5ffd5b50610d5161330b565b604051610d5e919061c9d0565b60405180910390f35b348015610d72575f5ffd5b50610d7b613311565b604051610d88919061c9d0565b60405180910390f35b348015610d9c575f5ffd5b50610da5613317565b604051610db2919061ca28565b60405180910390f35b348015610dc6575f5ffd5b50610dcf61332f565b604051610ddc919061c9d0565b60405180910390f35b348015610df0575f5ffd5b50610df9613338565b604051610e06919061c9d0565b60405180910390f35b348015610e1a575f5ffd5b50610e356004803603810190610e30919061cc0b565b61333e565b604051610e42919061c9d0565b60405180910390f35b348015610e56575f5ffd5b50610e5f61336e565b604051610e6c919061ce90565b60405180910390f35b348015610e80575f5ffd5b50610e8961338a565b604051610e96919061ce1e565b60405180910390f35b348015610eaa575f5ffd5b50610eb3613416565b604051610ec0919061ca28565b60405180910390f35b348015610ed4575f5ffd5b50610edd61343b565b604051610eea919061ca28565b60405180910390f35b348015610efe575f5ffd5b50610f07613456565b604051610f14919061ce90565b60405180910390f35b60155481565b60105481565b5f5f5f73ffffffffffffffffffffffffffffffffffffffff165f5f9054906101000a900473ffffffffffffffffffffffffffffffffffffffff1673ffffffffffffffffffffffffffffffffffffffff1614610fa4575f5f9054906101000a900473ffffffffffffffffffffffffffffffffffffffff16611026565b7346f54d434063e5f1a2b2cc6d9aaa657b1b9ff82c73ffffffffffffffffffffffffffffffffffffffff1663d8dfeb456040518163ffffffff1660e01b8152600401602060405180830381865afa158015611001573d5f5f3e3d5ffd5b505050506040513d601f19601f82011682018060405250810190611025919061cec4565b5b90505f73ffffffffffffffffffffffffffffffffffffffff168173ffffffffffffffffffffffffffffffffffffffff1603611064575f915050611160565b8073ffffffffffffffffffffffffffffffffffffffff166370a082317346f54d434063e5f1a2b2cc6d9aaa657b1b9ff82c73ffffffffffffffffffffffffffffffffffffffff16636b2ace876040518163ffffffff1660e01b8152600401602060405180830381865afa1580156110dd573d5f5f3e3d5ffd5b505050506040513d601f19601f82011682018060405250810190611101919061cec4565b6040518263ffffffff1660e01b815260040161111d919061ca28565b602060405180830381865afa158015611138573d5f5f3e3d5ffd5b505050506040513d601f19601f8201168201806040525081019061115c919061cf03565b9150505b90565b73d9e1ce17f2641f24ae83637ab66a2cca9c378b9f81565b601760029054906101000a900460ff1681565b600c5481565b601760069054906101000a900460ff1681565b600a5481565b60045f9054906101000a900473ffffffffffffffffffffffffffffffffffffffff1681565b5f7346f54d434063e5f1a2b2cc6d9aaa657b1b9ff82c73ffffffffffffffffffffffffffffffffffffffff16636b2ace876040518163ffffffff1660e01b8152600401602060405180830381865afa158015611230573d5f5f3e3d5ffd5b505050506040513d601f19601f82011682018060405250810190611254919061cec4565b90508073ffffffffffffffffffffffffffffffffffffffff163373ffffffffffffffffffffffffffffffffffffffff16146112c85780336040517fc86f37330000000000000000000000000000000000000000000000000000000081526004016112bf92919061cf2e565b60405180910390fd5b3073ffffffffffffffffffffffffffffffffffffffff168773ffffffffffffffffffffffffffffffffffffffff161461133a5730876040517fe5b688a100000000000000000000000000000000000000000000000000000000815260040161133192919061cf2e565b60405180910390fd5b5f5f9054906101000a900473ffffffffffffffffffffffffffffffffffffffff1673ffffffffffffffffffffffffffffffffffffffff168673ffffffffffffffffffffffffffffffffffffffff16146113ec575f5f9054906101000a900473ffffffffffffffffffffffffffffffffffffffff16866040517f7c35bd100000000000000000000000000000000000000000000000000000000081526004016113e392919061cf2e565b60405180910390fd5b84600881905550836009819055505f612710601a5f9054906101000a900461ffff1661ffff168761141d919061cf82565b611427919061cff0565b90505f8114806114375750858110155b15611477576040517f67fb15b100000000000000000000000000000000000000000000000000000000815260040161146e9061d06a565b60405180910390fd5b6114a25f5f9054906101000a900473ffffffffffffffffffffffffffffffffffffffff168383613472565b8173ffffffffffffffffffffffffffffffffffffffff166302b9446c5f5f9054906101000a900473ffffffffffffffffffffffffffffffffffffffff16307346f54d434063e5f1a2b2cc6d9aaa657b1b9ff82c855f6040518663ffffffff1660e01b815260040161151795949392919061d0c1565b60408051808303815f875af1158015611532573d5f5f3e3d5ffd5b505050506040513d601f19601f82011682018060405250810190611556919061d112565b600a5f600b5f8491905055839190505550505f600b54148061157957505f600a54145b156115b9576040517f67fb15b10000000000000000000000000000000000000000000000000000000081526004016115b09061d19a565b60405180910390fd5b7346f54d434063e5f1a2b2cc6d9aaa657b1b9ff82c73ffffffffffffffffffffffffffffffffffffffff1663860ffea1306001600b546040518463ffffffff1660e01b815260040161160d9392919061d1b8565b5f604051808303815f87803b158015611624575f5ffd5b505af1158015611636573d5f5f3e3d5ffd5b505050505f7346f54d434063e5f1a2b2cc6d9aaa657b1b9ff82c73ffffffffffffffffffffffffffffffffffffffff16631c9e379b306040518263ffffffff1660e01b8152600401611688919061ca28565b602060405180830381865afa1580156116a3573d5f5f3e3d5ffd5b505050506040513d601f19601f820116820180604052508101906116c7919061cf03565b03611707576040517f67fb15b10000000000000000000000000000000000000000000000000000000081526004016116fe9061d237565b60405180910390fd5b600160175f6101000a81548160ff02191690831515021790555061172961370b565b600c819055505f600c5403611773576040517f67fb15b100000000000000000000000000000000000000000000000000000000815260040161176a9061d29f565b60405180910390fd5b61177e600c54613809565b600d5f600e5f8491905055839190505550505f600d54148061182a57505f7346f54d434063e5f1a2b2cc6d9aaa657b1b9ff82c73ffffffffffffffffffffffffffffffffffffffff166348e4163e306040518263ffffffff1660e01b81526004016117e9919061ca28565b602060405180830381865afa158015611804573d5f5f3e3d5ffd5b505050506040513d601f19601f82011682018060405250810190611828919061cf03565b145b1561186a576040517f67fb15b10000000000000000000000000000000000000000000000000000000081526004016118619061d307565b60405180910390fd5b6118877399d8a9c45b2eca8864373a26d1459e3dff1e17f3613c1e565b61189d600a5487611898919061d325565b613dae565b6001601760016101000a81548160ff0219169083151502179055507346f54d434063e5f1a2b2cc6d9aaa657b1b9ff82c73ffffffffffffffffffffffffffffffffffffffff166302ce728f6040518163ffffffff1660e01b815260040160408051808303815f875af192505050801561193457506040513d601f19601f82011682018060405250810190611931919061d382565b60015b6119c4577346f54d434063e5f1a2b2cc6d9aaa657b1b9ff82c73ffffffffffffffffffffffffffffffffffffffff16633ba0b9a96040518163ffffffff1660e01b8152600401602060405180830381865afa158015611995573d5f5f3e3d5ffd5b505050506040513d601f19601f820116820180604052508101906119b9919061cf03565b6010819055506119ce565b8060108190555050505b5f60105403611a12576040517f67fb15b1000000000000000000000000000000000000000000000000000000008152600401611a099061d40a565b60405180910390fd5b7346f54d434063e5f1a2b2cc6d9aaa657b1b9ff82c73ffffffffffffffffffffffffffffffffffffffff166338b51ce1306040518263ffffffff1660e01b8152600401611a5f919061ca28565b602060405180830381865afa158015611a7a573d5f5f3e3d5ffd5b505050506040513d601f19601f82011682018060405250810190611a9e919061d428565b15601760026101000a81548160ff021916908315150217905550601760029054906101000a900460ff16611b07576040517f67fb15b1000000000000000000000000000000000000000000000000000000008152600401611afe9061d49d565b60405180910390fd5b611b9e7346f54d434063e5f1a2b2cc6d9aaa657b1b9ff82c73ffffffffffffffffffffffffffffffffffffffff166348e4163e306040518263ffffffff1660e01b8152600401611b57919061ca28565b602060405180830381865afa158015611b72573d5f5f3e3d5ffd5b505050506040513d601f19601f82011682018060405250810190611b96919061cf03565b601054614040565b6015819055507346f54d434063e5f1a2b2cc6d9aaa657b1b9ff82c73ffffffffffffffffffffffffffffffffffffffff16631c9e379b306040518263ffffffff1660e01b8152600401611bf1919061ca28565b602060405180830381865afa158015611c0c573d5f5f3e3d5ffd5b505050506040513d601f19601f82011682018060405250810190611c30919061cf03565b60155411611c73576040517f67fb15b1000000000000000000000000000000000000000000000000000000008152600401611c6a9061d505565b60405180910390fd5b611c7b614253565b6011819055505f60115403611cc5576040517f67fb15b1000000000000000000000000000000000000000000000000000000008152600401611cbc9061d56d565b60405180910390fd5b7346f54d434063e5f1a2b2cc6d9aaa657b1b9ff82c73ffffffffffffffffffffffffffffffffffffffff166348e4163e306040518263ffffffff1660e01b8152600401611d12919061ca28565b602060405180830381865afa158015611d2d573d5f5f3e3d5ffd5b505050506040513d601f19601f82011682018060405250810190611d51919061cf03565b60115410611d94576040517f67fb15b1000000000000000000000000000000000000000000000000000000008152600401611d8b9061d5d5565b60405180910390fd5b611d9c61437d565b611da76011546145d2565b6001601760036101000a81548160ff0219169083151502179055507346f54d434063e5f1a2b2cc6d9aaa657b1b9ff82c73ffffffffffffffffffffffffffffffffffffffff166348e4163e306040518263ffffffff1660e01b8152600401611e0f919061ca28565b602060405180830381865afa158015611e2a573d5f5f3e3d5ffd5b505050506040513d601f19601f82011682018060405250810190611e4e919061cf03565b6012819055507346f54d434063e5f1a2b2cc6d9aaa657b1b9ff82c73ffffffffffffffffffffffffffffffffffffffff16631c9e379b306040518263ffffffff1660e01b8152600401611ea1919061ca28565b602060405180830381865afa158015611ebc573d5f5f3e3d5ffd5b505050506040513d601f19601f82011682018060405250810190611ee0919061cf03565b6013819055505f60125403611f2a576040517f67fb15b1000000000000000000000000000000000000000000000000000000008152600401611f219061d63d565b60405180910390fd5b7346f54d434063e5f1a2b2cc6d9aaa657b1b9ff82c73ffffffffffffffffffffffffffffffffffffffff166338b51ce1306040518263ffffffff1660e01b8152600401611f77919061ca28565b602060405180830381865afa158015611f92573d5f5f3e3d5ffd5b505050506040513d601f19601f82011682018060405250810190611fb6919061d428565b15611ff6576040517f67fb15b1000000000000000000000000000000000000000000000000000000008152600401611fed9061d6a5565b60405180910390fd5b612004601254601054614040565b60148190555060135460145411601760056101000a81548160ff021916908315150217905550601760059054906101000a900460ff16612079576040517f67fb15b10000000000000000000000000000000000000000000000000000000081526004016120709061d733565b60405180910390fd5b6120967399d8a9c45b2eca8864373a26d1459e3dff1e17f3613c1e565b6120a160125461476f565b7399d8a9c45b2eca8864373a26d1459e3dff1e17f373ffffffffffffffffffffffffffffffffffffffff166370a08231306040518263ffffffff1660e01b81526004016120ee919061ca28565b602060405180830381865afa158015612109573d5f5f3e3d5ffd5b505050506040513d601f19601f8201168201806040525081019061212d919061cf03565b101561216e576040517f67fb15b10000000000000000000000000000000000000000000000000000000081526004016121659061d7c1565b60405180910390fd5b3073ffffffffffffffffffffffffffffffffffffffff16639ad18f636040518163ffffffff1660e01b81526004015f604051808303815f87803b1580156121b3575f5ffd5b505af19250505080156121c4575060015b612229573d805f81146121f2576040519150601f19603f3d011682016040523d82523d5f602084013e6121f7565b606091505b506001601760046101000a81548160ff0219169083151502179055508060189081612222919061da00565b5050612264565b6040517f67fb15b100000000000000000000000000000000000000000000000000000000815260040161225b9061db19565b60405180910390fd5b601760039054906101000a900460ff16801561228c5750601760049054906101000a900460ff165b80156122a45750601760059054906101000a900460ff165b601760066101000a81548160ff021916908315150217905550601760069054906101000a900460ff1661230c576040517f67fb15b10000000000000000000000000000000000000000000000000000000081526004016123039061db81565b60405180910390fd5b5f600a54868861231c919061db9f565b612326919061d325565b9050805f5f9054906101000a900473ffffffffffffffffffffffffffffffffffffffff1673ffffffffffffffffffffffffffffffffffffffff166370a08231306040518263ffffffff1660e01b8152600401612382919061ca28565b602060405180830381865afa15801561239d573d5f5f3e3d5ffd5b505050506040513d601f19601f820116820180604052508101906123c1919061cf03565b1015612473576124725f5f9054906101000a900473ffffffffffffffffffffffffffffffffffffffff1673ffffffffffffffffffffffffffffffffffffffff166370a08231306040518263ffffffff1660e01b8152600401612423919061ca28565b602060405180830381865afa15801561243e573d5f5f3e3d5ffd5b505050506040513d601f19601f82011682018060405250810190612462919061cf03565b8261246d919061d325565b6148ba565b5b805f5f9054906101000a900473ffffffffffffffffffffffffffffffffffffffff1673ffffffffffffffffffffffffffffffffffffffff166370a08231306040518263ffffffff1660e01b81526004016124cd919061ca28565b602060405180830381865afa1580156124e8573d5f5f3e3d5ffd5b505050506040513d601f19601f8201168201806040525081019061250c919061cf03565b101561254d576040517f67fb15b10000000000000000000000000000000000000000000000000000000081526004016125449061dc42565b60405180910390fd5b6125785f5f9054906101000a900473ffffffffffffffffffffffffffffffffffffffff168483614dee565b6125a260015f9054906101000a900473ffffffffffffffffffffffffffffffffffffffff16614f3d565b506125cd60025f9054906101000a900473ffffffffffffffffffffffffffffffffffffffff16614f3d565b506125f860035f9054906101000a900473ffffffffffffffffffffffffffffffffffffffff16614f3d565b507399d8a9c45b2eca8864373a26d1459e3dff1e17f373ffffffffffffffffffffffffffffffffffffffff166370a08231306040518263ffffffff1660e01b8152600401612646919061ca28565b602060405180830381865afa158015612661573d5f5f3e3d5ffd5b505050506040513d601f19601f82011682018060405250810190612685919061cf03565b6016819055507399d8a9c45b2eca8864373a26d1459e3dff1e17f360075f6101000a81548173ffffffffffffffffffffffffffffffffffffffff021916908373ffffffffffffffffffffffffffffffffffffffff160217905550505050505050505050565b60015f9054906101000a900473ffffffffffffffffffffffffffffffffffffffff1681565b601760039054906101000a900460ff1681565b5f61272c33615279565b905090565b5f601760069054906101000a900460ff16905090565b732260fac5e5542a773aa44fbcfedf7c193bc2c59981565b3073ffffffffffffffffffffffffffffffffffffffff163373ffffffffffffffffffffffffffffffffffffffff16146127cd576040517f67fb15b10000000000000000000000000000000000000000000000000000000081526004016127c49061dcaa565b60405180910390fd5b5f5f6127d883613809565b9150915081816040517f079d7b9300000000000000000000000000000000000000000000000000000000815260040161281292919061dcc8565b60405180910390fd5b600e5481565b60025f9054906101000a900473ffffffffffffffffffffffffffffffffffffffff1681565b60165481565b5f61285633615279565b905090565b60075f9054906101000a900473ffffffffffffffffffffffffffffffffffffffff1681565b5f61288a33615279565b905090565b60035f9054906101000a900473ffffffffffffffffffffffffffffffffffffffff1681565b601760059054906101000a900460ff1681565b5f601654905090565b60125481565b601760019054906101000a900460ff1681565b73a0b86991c6218b36c1d19d4a2e9eb0ce3606eb4881565b5f5f73ffffffffffffffffffffffffffffffffffffffff165f5f9054906101000a900473ffffffffffffffffffffffffffffffffffffffff1673ffffffffffffffffffffffffffffffffffffffff161461297b575f5f9054906101000a900473ffffffffffffffffffffffffffffffffffffffff166129fd565b7346f54d434063e5f1a2b2cc6d9aaa657b1b9ff82c73ffffffffffffffffffffffffffffffffffffffff1663d8dfeb456040518163ffffffff1660e01b8152600401602060405180830381865afa1580156129d8573d5f5f3e3d5ffd5b505050506040513d601f19601f820116820180604052508101906129fc919061cec4565b5b905090565b5f600c54905090565b3073ffffffffffffffffffffffffffffffffffffffff163373ffffffffffffffffffffffffffffffffffffffff1614612a79576040517f67fb15b1000000000000000000000000000000000000000000000000000000008152600401612a709061dcaa565b60405180910390fd5b612a8161437d565b612a8c6012546145d2565b565b60175f9054906101000a900460ff1681565b5f600d54905090565b737a250d5630b4cf539739df2c5dacb4c659f2488d81565b60065f9054906101000a900473ffffffffffffffffffffffffffffffffffffffff1681565b60135481565b73c02aaa39b223fe8d0a0e5c4f27ead9083c756cc281565b5f612b0e82615279565b9050919050565b600d5481565b5f5f9054906101000a900473ffffffffffffffffffffffffffffffffffffffff1681565b60085481565b5f8273ffffffffffffffffffffffffffffffffffffffff166370a08231306040518263ffffffff1660e01b8152600401612b7f919061ca28565b602060405180830381865afa158015612b9a573d5f5f3e3d5ffd5b505050506040513d601f19601f82011682018060405250810190612bbe919061cf03565b90505f8114612bd357612bd2838383614dee565b5b92915050565b7346f54d434063e5f1a2b2cc6d9aaa657b1b9ff82c81565b3073ffffffffffffffffffffffffffffffffffffffff163373ffffffffffffffffffffffffffffffffffffffff1614612c5f576040517f67fb15b1000000000000000000000000000000000000000000000000000000008152600401612c569061dcaa565b60405180910390fd5b612c6761437d565b612c70816145d2565b6040517fa213514f00000000000000000000000000000000000000000000000000000000815260040160405180910390fd5b5f612cac33615279565b905090565b5f60055f9054906101000a900473ffffffffffffffffffffffffffffffffffffffff16905090565b601760049054906101000a900460ff1681565b600b5481565b73dac17f958d2ee523a2206206994597c13d831ec781565b5f600c54905090565b7346f54d434063e5f1a2b2cc6d9aaa657b1b9ff82c81565b5f601760069054906101000a900460ff16905090565b5f612d4a6152a3565b612d52615816565b5f8503612d94576040517f67fb15b1000000000000000000000000000000000000000000000000000000008152600401612d8b9061dd39565b60405180910390fd5b5f8461ffff161480612dac57506127108461ffff1610155b15612dec576040517f67fb15b1000000000000000000000000000000000000000000000000000000008152600401612de39061dda1565b60405180910390fd5b73d9e1ce17f2641f24ae83637ab66a2cca9c378b9f73ffffffffffffffffffffffffffffffffffffffff168373ffffffffffffffffffffffffffffffffffffffff1614158015612e7c5750737a250d5630b4cf539739df2c5dacb4c659f2488d73ffffffffffffffffffffffffffffffffffffffff168373ffffffffffffffffffffffffffffffffffffffff1614155b15612ebc576040517f67fb15b1000000000000000000000000000000000000000000000000000000008152600401612eb39061de09565b60405180910390fd5b5f73ffffffffffffffffffffffffffffffffffffffff168273ffffffffffffffffffffffffffffffffffffffff161480612f4157505f5f9054906101000a900473ffffffffffffffffffffffffffffffffffffffff1673ffffffffffffffffffffffffffffffffffffffff168273ffffffffffffffffffffffffffffffffffffffff16145b15612f81576040517f67fb15b1000000000000000000000000000000000000000000000000000000008152600401612f789061de71565b60405180910390fd5b83601a5f6101000a81548161ffff021916908361ffff16021790555082601b5f6101000a81548173ffffffffffffffffffffffffffffffffffffffff021916908373ffffffffffffffffffffffffffffffffffffffff16021790555081601a60026101000a81548173ffffffffffffffffffffffffffffffffffffffff021916908373ffffffffffffffffffffffffffffffffffffffff1602179055507346f54d434063e5f1a2b2cc6d9aaa657b1b9ff82c73ffffffffffffffffffffffffffffffffffffffff16633ba0b9a96040518163ffffffff1660e01b8152600401602060405180830381865afa15801561307b573d5f5f3e3d5ffd5b505050506040513d601f19601f8201168201806040525081019061309f919061cf03565b600f819055505f600f54036130e9576040517f67fb15b10000000000000000000000000000000000000000000000000000000081526004016130e09061ded9565b60405180910390fd5b7346f54d434063e5f1a2b2cc6d9aaa657b1b9ff82c73ffffffffffffffffffffffffffffffffffffffff16636b2ace876040518163ffffffff1660e01b8152600401602060405180830381865afa158015613146573d5f5f3e3d5ffd5b505050506040513d601f19601f8201168201806040525081019061316a919061cec4565b73ffffffffffffffffffffffffffffffffffffffff1663f1676d3730305f5f9054906101000a900473ffffffffffffffffffffffffffffffffffffffff168960405180602001604052805f8152506040518663ffffffff1660e01b81526004016131d895949392919061df17565b5f604051808303815f87803b1580156131ef575f5ffd5b505af1158015613201573d5f5f3e3d5ffd5b50505050601760069054906101000a900460ff16613254576040517f67fb15b100000000000000000000000000000000000000000000000000000000815260040161324b9061dfb9565b60405180910390fd5b6016549050949350505050565b60145481565b601880546132749061d839565b80601f01602080910402602001604051908101604052809291908181526020018280546132a09061d839565b80156132eb5780601f106132c2576101008083540402835291602001916132eb565b820191905f5260205f20905b8154815290600101906020018083116132ce57829003601f168201915b505050505081565b7399d8a9c45b2eca8864373a26d1459e3dff1e17f381565b60095481565b600f5481565b736b175474e89094c44da98b954eedeac495271d0f81565b5f601554905090565b60115481565b5f6133476152a3565b5f613351836159d0565b905061336561335f5f615eb2565b82615ef5565b80915050919050565b6040518060600160405280602b815260200161ef74602b913981565b601980546133979061d839565b80601f01602080910402602001604051908101604052809291908181526020018280546133c39061d839565b801561340e5780601f106133e55761010080835404028352916020019161340e565b820191905f5260205f20905b8154815290600101906020018083116133f157829003601f168201915b505050505081565b60055f9054906101000a900473ffffffffffffffffffffffffffffffffffffffff1681565b5f7399d8a9c45b2eca8864373a26d1459e3dff1e17f3905090565b6040518060600160405280602e815260200161ef9f602e913981565b5f5f8473ffffffffffffffffffffffffffffffffffffffff1663095ea7b360e01b855f6040516024016134a692919061e013565b604051602081830303815290604052907bffffffffffffffffffffffffffffffffffffffffffffffffffffffff19166020820180517bffffffffffffffffffffffffffffffffffffffffffffffffffffffff8381831617835250505050604051613510919061e074565b5f604051808303815f865af19150503d805f8114613549576040519150601f19603f3d011682016040523d82523d5f602084013e61354e565b606091505b509150915081801561357b57505f8151148061357a575080806020019051810190613579919061d428565b5b5b6135ba576040517f08c379a00000000000000000000000000000000000000000000000000000000081526004016135b19061e0d4565b60405180910390fd5b8473ffffffffffffffffffffffffffffffffffffffff1663095ea7b360e01b85856040516024016135ec92919061e0f2565b604051602081830303815290604052907bffffffffffffffffffffffffffffffffffffffffffffffffffffffff19166020820180517bffffffffffffffffffffffffffffffffffffffffffffffffffffffff8381831617835250505050604051613656919061e074565b5f604051808303815f865af19150503d805f811461368f576040519150601f19603f3d011682016040523d82523d5f602084013e613694565b606091505b5080925081935050508180156136c557505f815114806136c45750808060200190518101906136c3919061d428565b5b5b613704576040517f08c379a00000000000000000000000000000000000000000000000000000000081526004016136fb9061e163565b60405180910390fd5b5050505050565b5f5f613715616089565b90505f8103613727575f915050613806565b5f613730616632565b90505f8103613743575f92505050613806565b61374d82826169f7565b92505f6127106126ac85613761919061cf82565b61376b919061cff0565b90505f8114613778578093505b61378184616a0f565b1561378e57505050613806565b5f5f90505f8590505f5f90505b6018811080156137b657506001836137b3919061db9f565b82115b156137fc575f600183856137ca919061db9f565b901c90506137d781616a0f565b156137e4578093506137e8565b8092505b5080806137f49061e181565b91505061379b565b5081955050505050505b90565b5f5f5f600267ffffffffffffffff8111156138275761382661d7df565b5b6040519080825280602002602001820160405280156138555781602001602082028036833780820191505090505b5090505f600267ffffffffffffffff8111156138745761387361d7df565b5b6040519080825280602002602001820160405280156138a25781602001602082028036833780820191505090505b5090505f600267ffffffffffffffff8111156138c1576138c061d7df565b5b6040519080825280602002602001820160405280156138f457816020015b60608152602001906001900390816138df5790505b509050600b835f8151811061390c5761390b61e1c8565b5b602002602001019060ff16908160ff16815250505f5f5f6040516020016139359392919061e1f5565b604051602081830303815290604052815f815181106139575761395661e1c8565b5b60200260200101819052506005836001815181106139785761397761e1c8565b5b602002602001019060ff16908160ff1681525050853060405160200161399f92919061e242565b604051602081830303815290604052816001815181106139c2576139c161e1c8565b5b60200260200101819052507346f54d434063e5f1a2b2cc6d9aaa657b1b9ff82c73ffffffffffffffffffffffffffffffffffffffff1663656f3d648484846040518463ffffffff1660e01b8152600401613a1e9392919061e4da565b60408051808303815f875af1158015613a39573d5f5f3e3d5ffd5b505050506040513d601f19601f82011682018060405250810190613a5d919061d112565b80955081965050505f851480613a7257505f84145b15613c16577346f54d434063e5f1a2b2cc6d9aaa657b1b9ff82c73ffffffffffffffffffffffffffffffffffffffff166348e4163e306040518263ffffffff1660e01b8152600401613ac4919061ca28565b602060405180830381865afa158015613adf573d5f5f3e3d5ffd5b505050506040513d601f19601f82011682018060405250810190613b03919061cf03565b94507346f54d434063e5f1a2b2cc6d9aaa657b1b9ff82c73ffffffffffffffffffffffffffffffffffffffff16636b2ace876040518163ffffffff1660e01b8152600401602060405180830381865afa158015613b62573d5f5f3e3d5ffd5b505050506040513d601f19601f82011682018060405250810190613b86919061cec4565b73ffffffffffffffffffffffffffffffffffffffff1663f7888aec7399d8a9c45b2eca8864373a26d1459e3dff1e17f3306040518363ffffffff1660e01b8152600401613bd492919061cf2e565b602060405180830381865afa158015613bef573d5f5f3e3d5ffd5b505050506040513d601f19601f82011682018060405250810190613c13919061cf03565b93505b505050915091565b5f7346f54d434063e5f1a2b2cc6d9aaa657b1b9ff82c73ffffffffffffffffffffffffffffffffffffffff16636b2ace876040518163ffffffff1660e01b8152600401602060405180830381865afa158015613c7c573d5f5f3e3d5ffd5b505050506040513d601f19601f82011682018060405250810190613ca0919061cec4565b90505f8173ffffffffffffffffffffffffffffffffffffffff1663f7888aec84306040518363ffffffff1660e01b8152600401613cde92919061cf2e565b602060405180830381865afa158015613cf9573d5f5f3e3d5ffd5b505050506040513d601f19601f82011682018060405250810190613d1d919061cf03565b90505f8114613da9578173ffffffffffffffffffffffffffffffffffffffff166397da6d308430305f866040518663ffffffff1660e01b8152600401613d6795949392919061e524565b60408051808303815f875af1158015613d82573d5f5f3e3d5ffd5b505050506040513d601f19601f82011682018060405250810190613da6919061d112565b50505b505050565b5f8103613df0576040517f67fb15b1000000000000000000000000000000000000000000000000000000008152600401613de79061e5bf565b60405180910390fd5b601b5f9054906101000a900473ffffffffffffffffffffffffffffffffffffffff1660065f6101000a81548173ffffffffffffffffffffffffffffffffffffffff021916908373ffffffffffffffffffffffffffffffffffffffff160217905550601a60029054906101000a900473ffffffffffffffffffffffffffffffffffffffff1660055f6101000a81548173ffffffffffffffffffffffffffffffffffffffff021916908373ffffffffffffffffffffffffffffffffffffffff1602179055505f613f2260065f9054906101000a900473ffffffffffffffffffffffffffffffffffffffff165f5f9054906101000a900473ffffffffffffffffffffffffffffffffffffffff1660055f9054906101000a900473ffffffffffffffffffffffffffffffffffffffff1685616b75565b15613f5457613f5160055f9054906101000a900473ffffffffffffffffffffffffffffffffffffffff16614f3d565b90505b80613f6557613f628261701a565b90505b801580613ffc57505f7399d8a9c45b2eca8864373a26d1459e3dff1e17f373ffffffffffffffffffffffffffffffffffffffff166370a08231306040518263ffffffff1660e01b8152600401613fbb919061ca28565b602060405180830381865afa158015613fd6573d5f5f3e3d5ffd5b505050506040513d601f19601f82011682018060405250810190613ffa919061cf03565b145b1561403c576040517f67fb15b10000000000000000000000000000000000000000000000000000000081526004016140339061e627565b60405180910390fd5b5050565b5f5f83148061404e57505f82145b1561405b575f905061424d565b5f6140658461476f565b90505f670de0b6b3a7640000620186a061407f919061cf82565b847346f54d434063e5f1a2b2cc6d9aaa657b1b9ff82c73ffffffffffffffffffffffffffffffffffffffff16636ec097fb6040518163ffffffff1660e01b8152600401602060405180830381865afa1580156140dd573d5f5f3e3d5ffd5b505050506040513d601f19601f82011682018060405250810190614101919061cf03565b8461410c919061cf82565b614116919061cf82565b614120919061cff0565b90505f7346f54d434063e5f1a2b2cc6d9aaa657b1b9ff82c73ffffffffffffffffffffffffffffffffffffffff16636b2ace876040518163ffffffff1660e01b8152600401602060405180830381865afa158015614180573d5f5f3e3d5ffd5b505050506040513d601f19601f820116820180604052508101906141a4919061cec4565b73ffffffffffffffffffffffffffffffffffffffff16634ffe34db5f5f9054906101000a900473ffffffffffffffffffffffffffffffffffffffff166040518263ffffffff1660e01b81526004016141fc919061ca28565b6040805180830381865afa158015614216573d5f5f3e3d5ffd5b505050506040513d601f19601f8201168201806040525081019061423a919061e726565b905061424781835f617606565b93505050505b92915050565b5f5f7346f54d434063e5f1a2b2cc6d9aaa657b1b9ff82c73ffffffffffffffffffffffffffffffffffffffff166348e4163e306040518263ffffffff1660e01b81526004016142a2919061ca28565b602060405180830381865afa1580156142bd573d5f5f3e3d5ffd5b505050506040513d601f19601f820116820180604052508101906142e1919061cf03565b9050600181116142f4575f91505061437a565b6142fe60016176d9565b61430b575f91505061437a565b5f600190505f60018361431e919061d325565b90505b80821015614373575f6001808385614339919061db9f565b614343919061db9f565b901c9050614350816176d9565b1561435d5780925061436d565b60018161436a919061d325565b91505b50614321565b8193505050505b90565b5f7399d8a9c45b2eca8864373a26d1459e3dff1e17f373ffffffffffffffffffffffffffffffffffffffff166370a08231306040518263ffffffff1660e01b81526004016143cb919061ca28565b602060405180830381865afa1580156143e6573d5f5f3e3d5ffd5b505050506040513d601f19601f8201168201806040525081019061440a919061cf03565b90505f810361441957506145d0565b6144b87399d8a9c45b2eca8864373a26d1459e3dff1e17f37346f54d434063e5f1a2b2cc6d9aaa657b1b9ff82c73ffffffffffffffffffffffffffffffffffffffff16636b2ace876040518163ffffffff1660e01b8152600401602060405180830381865afa15801561448e573d5f5f3e3d5ffd5b505050506040513d601f19601f820116820180604052508101906144b2919061cec4565b83613472565b7346f54d434063e5f1a2b2cc6d9aaa657b1b9ff82c73ffffffffffffffffffffffffffffffffffffffff16636b2ace876040518163ffffffff1660e01b8152600401602060405180830381865afa158015614515573d5f5f3e3d5ffd5b505050506040513d601f19601f82011682018060405250810190614539919061cec4565b73ffffffffffffffffffffffffffffffffffffffff166302b9446c7399d8a9c45b2eca8864373a26d1459e3dff1e17f33030855f6040518663ffffffff1660e01b815260040161458d95949392919061d0c1565b60408051808303815f875af11580156145a8573d5f5f3e3d5ffd5b505050506040513d601f19601f820116820180604052508101906145cc919061d112565b5050505b565b5f600167ffffffffffffffff8111156145ee576145ed61d7df565b5b60405190808252806020026020018201604052801561461c5781602001602082028036833780820191505090505b5090505f600167ffffffffffffffff81111561463b5761463a61d7df565b5b6040519080825280602002602001820160405280156146695781602001602082028036833780820191505090505b50905030825f815181106146805761467f61e1c8565b5b602002602001019073ffffffffffffffffffffffffffffffffffffffff16908173ffffffffffffffffffffffffffffffffffffffff168152505082815f815181106146ce576146cd61e1c8565b5b6020026020010181815250507346f54d434063e5f1a2b2cc6d9aaa657b1b9ff82c73ffffffffffffffffffffffffffffffffffffffff1663ff6ff84b8383305f60405180602001604052805f8152506040518663ffffffff1660e01b815260040161473d95949392919061e808565b5f604051808303815f87803b158015614754575f5ffd5b505af1158015614766573d5f5f3e3d5ffd5b50505050505050565b5f5f5f7346f54d434063e5f1a2b2cc6d9aaa657b1b9ff82c73ffffffffffffffffffffffffffffffffffffffff16638285ef406040518163ffffffff1660e01b81526004016040805180830381865afa1580156147ce573d5f5f3e3d5ffd5b505050506040513d601f19601f820116820180604052508101906147f2919061e86e565b915091505f84148061481557505f816fffffffffffffffffffffffffffffffff16145b15614824575f925050506148b5565b806fffffffffffffffffffffffffffffffff16826fffffffffffffffffffffffffffffffff1685614855919061cf82565b61485f919061cff0565b92505f816fffffffffffffffffffffffffffffffff16836fffffffffffffffffffffffffffffffff1686614893919061cf82565b61489d919061e8ac565b146148b2576001836148af919061db9f565b92505b50505b919050565b5f810315614deb575f7399d8a9c45b2eca8864373a26d1459e3dff1e17f373ffffffffffffffffffffffffffffffffffffffff166370a08231306040518263ffffffff1660e01b8152600401614910919061ca28565b602060405180830381865afa15801561492b573d5f5f3e3d5ffd5b505050506040513d601f19601f8201168201806040525081019061494f919061cf03565b90505f810361495e5750614deb565b6149b273d9e1ce17f2641f24ae83637ab66a2cca9c378b9f7399d8a9c45b2eca8864373a26d1459e3dff1e17f35f5f9054906101000a900473ffffffffffffffffffffffffffffffffffffffff1684616b75565b156149bd5750614deb565b614a9c737a250d5630b4cf539739df2c5dacb4c659f2488d7399d8a9c45b2eca8864373a26d1459e3dff1e17f35f5f9054906101000a900473ffffffffffffffffffffffffffffffffffffffff167399d8a9c45b2eca8864373a26d1459e3dff1e17f373ffffffffffffffffffffffffffffffffffffffff166370a08231306040518263ffffffff1660e01b8152600401614a58919061ca28565b602060405180830381865afa158015614a73573d5f5f3e3d5ffd5b505050506040513d601f19601f82011682018060405250810190614a97919061cf03565b616b75565b15614aa75750614deb565b5f73ffffffffffffffffffffffffffffffffffffffff1660035f9054906101000a900473ffffffffffffffffffffffffffffffffffffffff1673ffffffffffffffffffffffffffffffffffffffff1614158015614b095750614b0882617830565b5b15614b145750614deb565b5f73ffffffffffffffffffffffffffffffffffffffff1660015f9054906101000a900473ffffffffffffffffffffffffffffffffffffffff1673ffffffffffffffffffffffffffffffffffffffff161480614bdb57505f5f9054906101000a900473ffffffffffffffffffffffffffffffffffffffff1673ffffffffffffffffffffffffffffffffffffffff1660015f9054906101000a900473ffffffffffffffffffffffffffffffffffffffff1673ffffffffffffffffffffffffffffffffffffffff16145b15614be65750614deb565b7399d8a9c45b2eca8864373a26d1459e3dff1e17f373ffffffffffffffffffffffffffffffffffffffff166370a08231306040518263ffffffff1660e01b8152600401614c33919061ca28565b602060405180830381865afa158015614c4e573d5f5f3e3d5ffd5b505050506040513d601f19601f82011682018060405250810190614c72919061cf03565b90505f8103614c815750614deb565b614cd673d9e1ce17f2641f24ae83637ab66a2cca9c378b9f7399d8a9c45b2eca8864373a26d1459e3dff1e17f360015f9054906101000a900473ffffffffffffffffffffffffffffffffffffffff1684616b75565b15614cea57614ce3617c9a565b5050614deb565b7399d8a9c45b2eca8864373a26d1459e3dff1e17f373ffffffffffffffffffffffffffffffffffffffff166370a08231306040518263ffffffff1660e01b8152600401614d37919061ca28565b602060405180830381865afa158015614d52573d5f5f3e3d5ffd5b505050506040513d601f19601f82011682018060405250810190614d76919061cf03565b90505f8103614d855750614deb565b614dda737a250d5630b4cf539739df2c5dacb4c659f2488d7399d8a9c45b2eca8864373a26d1459e3dff1e17f360015f9054906101000a900473ffffffffffffffffffffffffffffffffffffffff1684616b75565b15614de957614de7617c9a565b505b505b50565b5f5f8473ffffffffffffffffffffffffffffffffffffffff1663a9059cbb60e01b8585604051602401614e2292919061e0f2565b604051602081830303815290604052907bffffffffffffffffffffffffffffffffffffffffffffffffffffffff19166020820180517bffffffffffffffffffffffffffffffffffffffffffffffffffffffff8381831617835250505050604051614e8c919061e074565b5f604051808303815f865af19150503d805f8114614ec5576040519150601f19603f3d011682016040523d82523d5f602084013e614eca565b606091505b5091509150818015614ef757505f81511480614ef6575080806020019051810190614ef5919061d428565b5b5b614f36576040517f08c379a0000000000000000000000000000000000000000000000000000000008152600401614f2d9061e926565b60405180910390fd5b5050505050565b5f5f73ffffffffffffffffffffffffffffffffffffffff168273ffffffffffffffffffffffffffffffffffffffff1603614f79575f9050615274565b7399d8a9c45b2eca8864373a26d1459e3dff1e17f373ffffffffffffffffffffffffffffffffffffffff168273ffffffffffffffffffffffffffffffffffffffff1603615056575f7399d8a9c45b2eca8864373a26d1459e3dff1e17f373ffffffffffffffffffffffffffffffffffffffff166370a08231306040518263ffffffff1660e01b815260040161500e919061ca28565b602060405180830381865afa158015615029573d5f5f3e3d5ffd5b505050506040513d601f19601f8201168201806040525081019061504d919061cf03565b14159050615274565b5f8273ffffffffffffffffffffffffffffffffffffffff166370a08231306040518263ffffffff1660e01b8152600401615090919061ca28565b602060405180830381865afa1580156150ab573d5f5f3e3d5ffd5b505050506040513d601f19601f820116820180604052508101906150cf919061cf03565b90505f81036150e1575f915050615274565b61511573d9e1ce17f2641f24ae83637ab66a2cca9c378b9f847399d8a9c45b2eca8864373a26d1459e3dff1e17f384616b75565b15615124576001915050615274565b8273ffffffffffffffffffffffffffffffffffffffff166370a08231306040518263ffffffff1660e01b815260040161515d919061ca28565b602060405180830381865afa158015615178573d5f5f3e3d5ffd5b505050506040513d601f19601f8201168201806040525081019061519c919061cf03565b90505f810361523c575f7399d8a9c45b2eca8864373a26d1459e3dff1e17f373ffffffffffffffffffffffffffffffffffffffff166370a08231306040518263ffffffff1660e01b81526004016151f3919061ca28565b602060405180830381865afa15801561520e573d5f5f3e3d5ffd5b505050506040513d601f19601f82011682018060405250810190615232919061cf03565b1415915050615274565b615270737a250d5630b4cf539739df2c5dacb4c659f2488d847399d8a9c45b2eca8864373a26d1459e3dff1e17f384616b75565b9150505b919050565b5f6152826152a3565b61528a618105565b905061529e61529883615eb2565b82615ef5565b919050565b5f73ffffffffffffffffffffffffffffffffffffffff165f5f9054906101000a900473ffffffffffffffffffffffffffffffffffffffff1673ffffffffffffffffffffffffffffffffffffffff1603615814577346f54d434063e5f1a2b2cc6d9aaa657b1b9ff82c73ffffffffffffffffffffffffffffffffffffffff1663d8dfeb456040518163ffffffff1660e01b8152600401602060405180830381865afa158015615353573d5f5f3e3d5ffd5b505050506040513d601f19601f82011682018060405250810190615377919061cec4565b5f5f6101000a81548173ffffffffffffffffffffffffffffffffffffffff021916908373ffffffffffffffffffffffffffffffffffffffff1602179055506153de5f5f9054906101000a900473ffffffffffffffffffffffffffffffffffffffff16618312565b60025f6101000a81548173ffffffffffffffffffffffffffffffffffffffff021916908373ffffffffffffffffffffffffffffffffffffffff1602179055505f73ffffffffffffffffffffffffffffffffffffffff1660025f9054906101000a900473ffffffffffffffffffffffffffffffffffffffff1673ffffffffffffffffffffffffffffffffffffffff16036154d2575f5f9054906101000a900473ffffffffffffffffffffffffffffffffffffffff1660025f6101000a81548173ffffffffffffffffffffffffffffffffffffffff021916908373ffffffffffffffffffffffffffffffffffffffff1602179055505b6154fc60025f9054906101000a900473ffffffffffffffffffffffffffffffffffffffff1661876c565b60035f6101000a81548173ffffffffffffffffffffffffffffffffffffffff021916908373ffffffffffffffffffffffffffffffffffffffff1602179055505f73ffffffffffffffffffffffffffffffffffffffff1660035f9054906101000a900473ffffffffffffffffffffffffffffffffffffffff1673ffffffffffffffffffffffffffffffffffffffff16036155f8576155b85f5f9054906101000a900473ffffffffffffffffffffffffffffffffffffffff1661876c565b60035f6101000a81548173ffffffffffffffffffffffffffffffffffffffff021916908373ffffffffffffffffffffffffffffffffffffffff1602179055505b5f73ffffffffffffffffffffffffffffffffffffffff1660035f9054906101000a900473ffffffffffffffffffffffffffffffffffffffff1673ffffffffffffffffffffffffffffffffffffffff16036156ae5760025f9054906101000a900473ffffffffffffffffffffffffffffffffffffffff1660035f6101000a81548173ffffffffffffffffffffffffffffffffffffffff021916908373ffffffffffffffffffffffffffffffffffffffff1602179055505b6156d860035f9054906101000a900473ffffffffffffffffffffffffffffffffffffffff16618c01565b60045f6101000a81548173ffffffffffffffffffffffffffffffffffffffff021916908373ffffffffffffffffffffffffffffffffffffffff16021790555061571f618e53565b60015f6101000a81548173ffffffffffffffffffffffffffffffffffffffff021916908373ffffffffffffffffffffffffffffffffffffffff1602179055505f73ffffffffffffffffffffffffffffffffffffffff1660015f9054906101000a900473ffffffffffffffffffffffffffffffffffffffff1673ffffffffffffffffffffffffffffffffffffffff1603615813575f5f9054906101000a900473ffffffffffffffffffffffffffffffffffffffff1660015f6101000a81548173ffffffffffffffffffffffffffffffffffffffff021916908373ffffffffffffffffffffffffffffffffffffffff1602179055505b5b565b5f60055f6101000a81548173ffffffffffffffffffffffffffffffffffffffff021916908373ffffffffffffffffffffffffffffffffffffffff1602179055505f60065f6101000a81548173ffffffffffffffffffffffffffffffffffffffff021916908373ffffffffffffffffffffffffffffffffffffffff1602179055505f6008819055505f6009819055505f600a819055505f600b819055505f600c819055505f600d819055505f600e819055505f600f819055505f6010819055505f6011819055505f6012819055505f6013819055505f6014819055505f6015819055505f6016819055505f60175f6101000a81548160ff0219169083151502179055505f601760016101000a81548160ff0219169083151502179055505f601760026101000a81548160ff0219169083151502179055505f601760036101000a81548160ff0219169083151502179055505f601760046101000a81548160ff0219169083151502179055505f601760056101000a81548160ff0219169083151502179055505f601760066101000a81548160ff02191690831515021790555060185f6159c1919061c8d8565b60195f6159ce919061c8d8565b565b5f5f6040518060a001604052806126ac61ffff1661ffff16815260200161261661ffff16815260200161251c61ffff16815260200161232861ffff168152602001611f4061ffff1681525090505f6040518060a001604052807399d8a9c45b2eca8864373a26d1459e3dff1e17f373ffffffffffffffffffffffffffffffffffffffff1673ffffffffffffffffffffffffffffffffffffffff16815260200173c02aaa39b223fe8d0a0e5c4f27ead9083c756cc273ffffffffffffffffffffffffffffffffffffffff1673ffffffffffffffffffffffffffffffffffffffff16815260200173a0b86991c6218b36c1d19d4a2e9eb0ce3606eb4873ffffffffffffffffffffffffffffffffffffffff1673ffffffffffffffffffffffffffffffffffffffff168152602001736b175474e89094c44da98b954eedeac495271d0f73ffffffffffffffffffffffffffffffffffffffff1673ffffffffffffffffffffffffffffffffffffffff16815260200173dac17f958d2ee523a2206206994597c13d831ec773ffffffffffffffffffffffffffffffffffffffff1673ffffffffffffffffffffffffffffffffffffffff1681525090505f604051806040016040528073d9e1ce17f2641f24ae83637ab66a2cca9c378b9f73ffffffffffffffffffffffffffffffffffffffff1673ffffffffffffffffffffffffffffffffffffffff168152602001737a250d5630b4cf539739df2c5dacb4c659f2488d73ffffffffffffffffffffffffffffffffffffffff1673ffffffffffffffffffffffffffffffffffffffff1681525090505f5f90505b6005811015615ea8575f848260058110615c4157615c4061e1c8565b5b602002015190505f6127108261ffff1689615c5c919061cf82565b615c66919061cff0565b03615c715750615e9b565b5f6127108261ffff1689615c85919061cf82565b615c8f919061cff0565b88615c9a919061d325565b03615ca55750615e9b565b5f5f90505b6002811015615e98575f5f90505b6005811015615e8a575f868260058110615cd557615cd461e1c8565b5b602002015190505f73ffffffffffffffffffffffffffffffffffffffff168173ffffffffffffffffffffffffffffffffffffffff161480615d6157505f5f9054906101000a900473ffffffffffffffffffffffffffffffffffffffff1673ffffffffffffffffffffffffffffffffffffffff168173ffffffffffffffffffffffffffffffffffffffff16145b15615d6c5750615e7d565b3073ffffffffffffffffffffffffffffffffffffffff1663d76a31db8b86898760028110615d9d57615d9c61e1c8565b5b6020020151856040518563ffffffff1660e01b8152600401615dc2949392919061e953565b6020604051808303815f875af1925050508015615dfd57506040513d601f19601f82011682018060405250810190615dfa919061cf03565b60015b615e47573d805f8114615e2b576040519150601f19603f3d011682016040523d82523d5f602084013e615e30565b606091505b508060199081615e40919061da00565b5050615e7b565b89811115615e53578099505b601760069054906101000a900460ff1615615e7957809950505050505050505050615ead565b505b505b8080600101915050615cb8565b508080600101915050615caa565b50505b8080600101915050615c24565b505050505b919050565b5f5f73ffffffffffffffffffffffffffffffffffffffff168273ffffffffffffffffffffffffffffffffffffffff1614615eec5781615eee565b335b9050919050565b5f7399d8a9c45b2eca8864373a26d1459e3dff1e17f373ffffffffffffffffffffffffffffffffffffffff166370a08231306040518263ffffffff1660e01b8152600401615f43919061ca28565b602060405180830381865afa158015615f5e573d5f5f3e3d5ffd5b505050506040513d601f19601f82011682018060405250810190615f82919061cf03565b905081811115615f90578091505b816016819055507399d8a9c45b2eca8864373a26d1459e3dff1e17f360075f6101000a81548173ffffffffffffffffffffffffffffffffffffffff021916908373ffffffffffffffffffffffffffffffffffffffff1602179055505f811415801561602757505f73ffffffffffffffffffffffffffffffffffffffff168373ffffffffffffffffffffffffffffffffffffffff1614155b801561605f57503073ffffffffffffffffffffffffffffffffffffffff168373ffffffffffffffffffffffffffffffffffffffff1614155b15616084576160837399d8a9c45b2eca8864373a26d1459e3dff1e17f38483614dee565b5b505050565b5f5f7346f54d434063e5f1a2b2cc6d9aaa657b1b9ff82c73ffffffffffffffffffffffffffffffffffffffff16636b2ace876040518163ffffffff1660e01b8152600401602060405180830381865afa1580156160e8573d5f5f3e3d5ffd5b505050506040513d601f19601f8201168201806040525081019061610c919061cec4565b90505f8173ffffffffffffffffffffffffffffffffffffffff1663566231187399d8a9c45b2eca8864373a26d1459e3dff1e17f38473ffffffffffffffffffffffffffffffffffffffff1663f7888aec7399d8a9c45b2eca8864373a26d1459e3dff1e17f37346f54d434063e5f1a2b2cc6d9aaa657b1b9ff82c6040518363ffffffff1660e01b81526004016161a392919061cf2e565b602060405180830381865afa1580156161be573d5f5f3e3d5ffd5b505050506040513d601f19601f820116820180604052508101906161e2919061cf03565b5f6040518463ffffffff1660e01b81526004016162019392919061e996565b602060405180830381865afa15801561621c573d5f5f3e3d5ffd5b505050506040513d601f19601f82011682018060405250810190616240919061cf03565b90505f8103616253575f9250505061662f565b5f5f7346f54d434063e5f1a2b2cc6d9aaa657b1b9ff82c73ffffffffffffffffffffffffffffffffffffffff1663e551d11d6040518163ffffffff1660e01b81526004016040805180830381865afa1580156162b1573d5f5f3e3d5ffd5b505050506040513d601f19601f820116820180604052508101906162d5919061e86e565b915091505f5f7346f54d434063e5f1a2b2cc6d9aaa657b1b9ff82c73ffffffffffffffffffffffffffffffffffffffff16638285ef406040518163ffffffff1660e01b81526004016040805180830381865afa158015616337573d5f5f3e3d5ffd5b505050506040513d601f19601f8201168201806040525081019061635b919061e86e565b915091505f7346f54d434063e5f1a2b2cc6d9aaa657b1b9ff82c73ffffffffffffffffffffffffffffffffffffffff166348e4163e306040518263ffffffff1660e01b81526004016163ad919061ca28565b602060405180830381865afa1580156163c8573d5f5f3e3d5ffd5b505050506040513d601f19601f820116820180604052508101906163ec919061cf03565b90505f7346f54d434063e5f1a2b2cc6d9aaa657b1b9ff82c73ffffffffffffffffffffffffffffffffffffffff1663aba024f46040518163ffffffff1660e01b8152600401602060405180830381865afa15801561644c573d5f5f3e3d5ffd5b505050506040513d601f19601f82011682018060405250810190616470919061cf03565b90505f846fffffffffffffffffffffffffffffffff16876fffffffffffffffffffffffffffffffff16116164a4575f6164d5565b846fffffffffffffffffffffffffffffffff16876fffffffffffffffffffffffffffffffff166164d4919061d325565b5b90505f83876fffffffffffffffffffffffffffffffff16116164f7575f616516565b83876fffffffffffffffffffffffffffffffff16616515919061d325565b5b90505f82148061652557505f81145b1561653c575f9a505050505050505050505061662f565b5f83620186a061654c919061db9f565b620186a08461655b919061cf82565b616565919061cff0565b90505f5f886fffffffffffffffffffffffffffffffff16148061659957505f876fffffffffffffffffffffffffffffffff16145b6165dd57866fffffffffffffffffffffffffffffffff16886fffffffffffffffffffffffffffffffff16846165ce919061cf82565b6165d8919061cff0565b6165df565b825b90505f85620186a06165f1919061db9f565b620186a083616600919061cf82565b61660a919061cff0565b905061661f8c61661a85846169f7565b6169f7565b9d50505050505050505050505050505b90565b5f5f7346f54d434063e5f1a2b2cc6d9aaa657b1b9ff82c73ffffffffffffffffffffffffffffffffffffffff16633ba0b9a96040518163ffffffff1660e01b8152600401602060405180830381865afa158015616691573d5f5f3e3d5ffd5b505050506040513d601f19601f820116820180604052508101906166b5919061cf03565b90505f81036166c7575f9150506169f4565b5f7346f54d434063e5f1a2b2cc6d9aaa657b1b9ff82c73ffffffffffffffffffffffffffffffffffffffff16636b2ace876040518163ffffffff1660e01b8152600401602060405180830381865afa158015616725573d5f5f3e3d5ffd5b505050506040513d601f19601f82011682018060405250810190616749919061cec4565b90505f8173ffffffffffffffffffffffffffffffffffffffff1663566231185f5f9054906101000a900473ffffffffffffffffffffffffffffffffffffffff167346f54d434063e5f1a2b2cc6d9aaa657b1b9ff82c73ffffffffffffffffffffffffffffffffffffffff16631c9e379b306040518263ffffffff1660e01b81526004016167d6919061ca28565b602060405180830381865afa1580156167f1573d5f5f3e3d5ffd5b505050506040513d601f19601f82011682018060405250810190616815919061cf03565b5f6040518463ffffffff1660e01b81526004016168349392919061e996565b602060405180830381865afa15801561684f573d5f5f3e3d5ffd5b505050506040513d601f19601f82011682018060405250810190616873919061cf03565b90505f8103616887575f93505050506169f4565b82620186a0670de0b6b3a76400007346f54d434063e5f1a2b2cc6d9aaa657b1b9ff82c73ffffffffffffffffffffffffffffffffffffffff1663c7ee2a7b6040518163ffffffff1660e01b8152600401602060405180830381865afa1580156168f2573d5f5f3e3d5ffd5b505050506040513d601f19601f82011682018060405250810190616916919061cf03565b84616921919061cf82565b61692b919061cf82565b616935919061cff0565b61693f919061cff0565b93505f7346f54d434063e5f1a2b2cc6d9aaa657b1b9ff82c73ffffffffffffffffffffffffffffffffffffffff1663aba024f46040518163ffffffff1660e01b8152600401602060405180830381865afa15801561699f573d5f5f3e3d5ffd5b505050506040513d601f19601f820116820180604052508101906169c3919061cf03565b905080620186a06169d4919061db9f565b620186a0866169e3919061cf82565b6169ed919061cff0565b9450505050505b90565b5f818310616a055781616a07565b825b905092915050565b5f5f8203616a1f575f9050616b70565b5f5f3073ffffffffffffffffffffffffffffffffffffffff16634ee8f10560e01b85604051602401616a51919061c9d0565b604051602081830303815290604052907bffffffffffffffffffffffffffffffffffffffffffffffffffffffff19166020820180517bffffffffffffffffffffffffffffffffffffffffffffffffffffffff8381831617835250505050604051616abb919061e074565b5f604051808303815f865af19150503d805f8114616af4576040519150601f19603f3d011682016040523d82523d5f602084013e616af9565b606091505b50915091508180616b0b575060048151105b15616b1a575f92505050616b70565b5f6020820151905063079d7b9360e01b7bffffffffffffffffffffffffffffffffffffffffffffffffffffffff1916817bffffffffffffffffffffffffffffffffffffffffffffffffffffffff19161493505050505b919050565b5f5f821480616baf57505f73ffffffffffffffffffffffffffffffffffffffff168473ffffffffffffffffffffffffffffffffffffffff16145b80616be557505f73ffffffffffffffffffffffffffffffffffffffff168373ffffffffffffffffffffffffffffffffffffffff16145b80616c1b57508273ffffffffffffffffffffffffffffffffffffffff168473ffffffffffffffffffffffffffffffffffffffff16145b15616c28575f9050617012565b5f616c3385856190e8565b9050616c408682856191d9565b15616c4f576001915050617012565b73c02aaa39b223fe8d0a0e5c4f27ead9083c756cc273ffffffffffffffffffffffffffffffffffffffff168573ffffffffffffffffffffffffffffffffffffffff1614158015616cdf575073c02aaa39b223fe8d0a0e5c4f27ead9083c756cc273ffffffffffffffffffffffffffffffffffffffff168473ffffffffffffffffffffffffffffffffffffffff1614155b15616d0e575f616cef868661942f565b9050616cfc8782866191d9565b15616d0c57600192505050617012565b505b73dac17f958d2ee523a2206206994597c13d831ec773ffffffffffffffffffffffffffffffffffffffff168573ffffffffffffffffffffffffffffffffffffffff1614158015616d9e575073dac17f958d2ee523a2206206994597c13d831ec773ffffffffffffffffffffffffffffffffffffffff168473ffffffffffffffffffffffffffffffffffffffff1614155b15616de2575f616dc38673dac17f958d2ee523a2206206994597c13d831ec787619583565b9050616dd08782866191d9565b15616de057600192505050617012565b505b5f73d9e1ce17f2641f24ae83637ab66a2cca9c378b9f73ffffffffffffffffffffffffffffffffffffffff168773ffffffffffffffffffffffffffffffffffffffff1614616e445773d9e1ce17f2641f24ae83637ab66a2cca9c378b9f616e5a565b737a250d5630b4cf539739df2c5dacb4c659f2488d5b9050616e678183866191d9565b15616e7757600192505050617012565b73c02aaa39b223fe8d0a0e5c4f27ead9083c756cc273ffffffffffffffffffffffffffffffffffffffff168673ffffffffffffffffffffffffffffffffffffffff1614158015616f07575073c02aaa39b223fe8d0a0e5c4f27ead9083c756cc273ffffffffffffffffffffffffffffffffffffffff168573ffffffffffffffffffffffffffffffffffffffff1614155b15616f37575f616f17878761942f565b9050616f248282876191d9565b15616f355760019350505050617012565b505b73dac17f958d2ee523a2206206994597c13d831ec773ffffffffffffffffffffffffffffffffffffffff168673ffffffffffffffffffffffffffffffffffffffff1614158015616fc7575073dac17f958d2ee523a2206206994597c13d831ec773ffffffffffffffffffffffffffffffffffffffff168573ffffffffffffffffffffffffffffffffffffffff1614155b1561700c575f616fec8773dac17f958d2ee523a2206206994597c13d831ec788619583565b9050616ff98282876191d9565b1561700a5760019350505050617012565b505b5f925050505b949350505050565b5f617024826196c4565b617030575f9050617601565b5f617039619802565b90505f73ffffffffffffffffffffffffffffffffffffffff168173ffffffffffffffffffffffffffffffffffffffff1603617077575f915050617601565b8060055f6101000a81548173ffffffffffffffffffffffffffffffffffffffff021916908373ffffffffffffffffffffffffffffffffffffffff1602179055506170c081614f3d565b915081156170d2576001915050617601565b60035f9054906101000a900473ffffffffffffffffffffffffffffffffffffffff1673ffffffffffffffffffffffffffffffffffffffff168173ffffffffffffffffffffffffffffffffffffffff16148061717a57505f73ffffffffffffffffffffffffffffffffffffffff1660035f9054906101000a900473ffffffffffffffffffffffffffffffffffffffff1673ffffffffffffffffffffffffffffffffffffffff1614155b1561721d576171a960035f9054906101000a900473ffffffffffffffffffffffffffffffffffffffff166199f3565b9150811561721c5760035f9054906101000a900473ffffffffffffffffffffffffffffffffffffffff1660055f6101000a81548173ffffffffffffffffffffffffffffffffffffffff021916908373ffffffffffffffffffffffffffffffffffffffff1602179055506001915050617601565b5b60025f9054906101000a900473ffffffffffffffffffffffffffffffffffffffff1673ffffffffffffffffffffffffffffffffffffffff168173ffffffffffffffffffffffffffffffffffffffff16141580156172c757505f73ffffffffffffffffffffffffffffffffffffffff1660025f9054906101000a900473ffffffffffffffffffffffffffffffffffffffff1673ffffffffffffffffffffffffffffffffffffffff1614155b801561736b57505f60025f9054906101000a900473ffffffffffffffffffffffffffffffffffffffff1673ffffffffffffffffffffffffffffffffffffffff166370a08231306040518263ffffffff1660e01b8152600401617329919061ca28565b602060405180830381865afa158015617344573d5f5f3e3d5ffd5b505050506040513d601f19601f82011682018060405250810190617368919061cf03565b14155b1561740e5761739a60025f9054906101000a900473ffffffffffffffffffffffffffffffffffffffff16614f3d565b9150811561740d5760025f9054906101000a900473ffffffffffffffffffffffffffffffffffffffff1660055f6101000a81548173ffffffffffffffffffffffffffffffffffffffff021916908373ffffffffffffffffffffffffffffffffffffffff1602179055506001915050617601565b5b60015f9054906101000a900473ffffffffffffffffffffffffffffffffffffffff1673ffffffffffffffffffffffffffffffffffffffff168173ffffffffffffffffffffffffffffffffffffffff16141580156174b857505f73ffffffffffffffffffffffffffffffffffffffff1660015f9054906101000a900473ffffffffffffffffffffffffffffffffffffffff1673ffffffffffffffffffffffffffffffffffffffff1614155b801561755c57505f60015f9054906101000a900473ffffffffffffffffffffffffffffffffffffffff1673ffffffffffffffffffffffffffffffffffffffff166370a08231306040518263ffffffff1660e01b815260040161751a919061ca28565b602060405180830381865afa158015617535573d5f5f3e3d5ffd5b505050506040513d601f19601f82011682018060405250810190617559919061cf03565b14155b156175ff5761758b60015f9054906101000a900473ffffffffffffffffffffffffffffffffffffffff16614f3d565b915081156175fe5760015f9054906101000a900473ffffffffffffffffffffffffffffffffffffffff1660055f6101000a81548173ffffffffffffffffffffffffffffffffffffffff021916908373ffffffffffffffffffffffffffffffffffffffff1602179055506001915050617601565b5b505b919050565b5f5f845f01516fffffffffffffffffffffffffffffffff160361762b578290506176d2565b835f01516fffffffffffffffffffffffffffffffff1684602001516fffffffffffffffffffffffffffffffff1684617663919061cf82565b61766d919061cff0565b90508180156176bc57508284602001516fffffffffffffffffffffffffffffffff16855f01516fffffffffffffffffffffffffffffffff16836176b0919061cf82565b6176ba919061cff0565b105b156176d1576001816176ce919061db9f565b90505b5b9392505050565b5f5f5f3073ffffffffffffffffffffffffffffffffffffffff1663be459c2a60e01b8560405160240161770c919061c9d0565b604051602081830303815290604052907bffffffffffffffffffffffffffffffffffffffffffffffffffffffff19166020820180517bffffffffffffffffffffffffffffffffffffffffffffffffffffffff8381831617835250505050604051617776919061e074565b5f604051808303815f865af19150503d805f81146177af576040519150601f19603f3d011682016040523d82523d5f602084013e6177b4565b606091505b509150915081806177c6575060048151105b156177d5575f9250505061782b565b5f6020820151905063a213514f60e01b7bffffffffffffffffffffffffffffffffffffffffffffffffffffffff1916817bffffffffffffffffffffffffffffffffffffffffffffffffffffffff19161493505050505b919050565b5f5f73ffffffffffffffffffffffffffffffffffffffff1660035f9054906101000a900473ffffffffffffffffffffffffffffffffffffffff1673ffffffffffffffffffffffffffffffffffffffff1614806178d857505f73ffffffffffffffffffffffffffffffffffffffff1660045f9054906101000a900473ffffffffffffffffffffffffffffffffffffffff1673ffffffffffffffffffffffffffffffffffffffff16145b8061792f57505f73ffffffffffffffffffffffffffffffffffffffff1660025f9054906101000a900473ffffffffffffffffffffffffffffffffffffffff1673ffffffffffffffffffffffffffffffffffffffff16145b1561793c575f9050617c95565b5f7399d8a9c45b2eca8864373a26d1459e3dff1e17f373ffffffffffffffffffffffffffffffffffffffff166370a08231306040518263ffffffff1660e01b815260040161798a919061ca28565b602060405180830381865afa1580156179a5573d5f5f3e3d5ffd5b505050506040513d601f19601f820116820180604052508101906179c9919061cf03565b90505f81036179db575f915050617c95565b617a2373d9e1ce17f2641f24ae83637ab66a2cca9c378b9f7399d8a9c45b2eca8864373a26d1459e3dff1e17f373dac17f958d2ee523a2206206994597c13d831ec784616b75565b158015617a755750617a73737a250d5630b4cf539739df2c5dacb4c659f2488d7399d8a9c45b2eca8864373a26d1459e3dff1e17f373dac17f958d2ee523a2206206994597c13d831ec784616b75565b155b15617a83575f915050617c95565b5f73dac17f958d2ee523a2206206994597c13d831ec773ffffffffffffffffffffffffffffffffffffffff166370a08231306040518263ffffffff1660e01b8152600401617ad1919061ca28565b602060405180830381865afa158015617aec573d5f5f3e3d5ffd5b505050506040513d601f19601f82011682018060405250810190617b10919061cf03565b90505f8103617b23575f92505050617c95565b617b8560045f9054906101000a900473ffffffffffffffffffffffffffffffffffffffff1673dac17f958d2ee523a2206206994597c13d831ec78360035f9054906101000a900473ffffffffffffffffffffffffffffffffffffffff16619d8d565b617b93575f92505050617c95565b5f617bbe60025f9054906101000a900473ffffffffffffffffffffffffffffffffffffffff1661a57d565b148015617bd05750617bce61a639565b155b15617bdf575f92505050617c95565b835f5f9054906101000a900473ffffffffffffffffffffffffffffffffffffffff1673ffffffffffffffffffffffffffffffffffffffff166370a08231306040518263ffffffff1660e01b8152600401617c39919061ca28565b602060405180830381865afa158015617c54573d5f5f3e3d5ffd5b505050506040513d601f19601f82011682018060405250810190617c78919061cf03565b10617c8857600192505050617c95565b617c9061abdd565b925050505b919050565b5f5f73ffffffffffffffffffffffffffffffffffffffff1660015f9054906101000a900473ffffffffffffffffffffffffffffffffffffffff1673ffffffffffffffffffffffffffffffffffffffff161480617d6257505f5f9054906101000a900473ffffffffffffffffffffffffffffffffffffffff1673ffffffffffffffffffffffffffffffffffffffff1660015f9054906101000a900473ffffffffffffffffffffffffffffffffffffffff1673ffffffffffffffffffffffffffffffffffffffff16145b15617d6f575f9050618102565b5f60015f9054906101000a900473ffffffffffffffffffffffffffffffffffffffff1673ffffffffffffffffffffffffffffffffffffffff166370a08231306040518263ffffffff1660e01b8152600401617dca919061ca28565b602060405180830381865afa158015617de5573d5f5f3e3d5ffd5b505050506040513d601f19601f82011682018060405250810190617e09919061cf03565b90505f8103617e1b575f915050618102565b617e6760015f9054906101000a900473ffffffffffffffffffffffffffffffffffffffff165f5f9054906101000a900473ffffffffffffffffffffffffffffffffffffffff1683613472565b617efd81604051602401617e7b919061c9d0565b6040516020818303038152906040527fa59f3e0c000000000000000000000000000000000000000000000000000000007bffffffffffffffffffffffffffffffffffffffffffffffffffffffff19166020820180517bffffffffffffffffffffffffffffffffffffffffffffffffffffffff838183161783525050505061b240565b15617f0c576001915050618102565b617fa281604051602401617f20919061c9d0565b6040516020818303038152906040527fea598cb0000000000000000000000000000000000000000000000000000000007bffffffffffffffffffffffffffffffffffffffffffffffffffffffff19166020820180517bffffffffffffffffffffffffffffffffffffffffffffffffffffffff838183161783525050505061b240565b15617fb1576001915050618102565b6180498130604051602401617fc792919061e9cb565b6040516020818303038152906040527f6e553f65000000000000000000000000000000000000000000000000000000007bffffffffffffffffffffffffffffffffffffffffffffffffffffffff19166020820180517bffffffffffffffffffffffffffffffffffffffffffffffffffffffff838183161783525050505061b240565b15618058576001915050618102565b6180ee8160405160240161806c919061c9d0565b6040516020818303038152906040527fb6b55f25000000000000000000000000000000000000000000000000000000007bffffffffffffffffffffffffffffffffffffffffffffffffffffffff19166020820180517bffffffffffffffffffffffffffffffffffffffffffffffffffffffff838183161783525050505061b240565b156180fd576001915050618102565b5f9150505b90565b5f5f5f5f9054906101000a900473ffffffffffffffffffffffffffffffffffffffff1673ffffffffffffffffffffffffffffffffffffffff166370a082317346f54d434063e5f1a2b2cc6d9aaa657b1b9ff82c73ffffffffffffffffffffffffffffffffffffffff16636b2ace876040518163ffffffff1660e01b8152600401602060405180830381865afa1580156181a0573d5f5f3e3d5ffd5b505050506040513d601f19601f820116820180604052508101906181c4919061cec4565b6040518263ffffffff1660e01b81526004016181e0919061ca28565b602060405180830381865afa1580156181fb573d5f5f3e3d5ffd5b505050506040513d601f19601f8201168201806040525081019061821f919061cf03565b90505f8103618231575f91505061830f565b5f6040518060a00160405280838152602001600284618250919061cff0565b8152602001600484618262919061cff0565b8152602001600a84618274919061cff0565b8152602001601484618286919061cff0565b81525090505f5f90505b600581101561830b575f8282600581106182ad576182ac61e1c8565b5b602002015190505f81036182c157506182fe565b5f6182cb826159d0565b9050858111156182d9578095505b601760069054906101000a900460ff16156182fb57809550505050505061830f565b50505b8080600101915050618290565b5050505b90565b5f61839f826040516024016040516020818303038152906040527f38d52e0f000000000000000000000000000000000000000000000000000000007bffffffffffffffffffffffffffffffffffffffffffffffffffffffff19166020820180517bffffffffffffffffffffffffffffffffffffffffffffffffffffffff838183161783525050505061b479565b90505f73ffffffffffffffffffffffffffffffffffffffff168173ffffffffffffffffffffffffffffffffffffffff160361876757618460826040516024016040516020818303038152906040527ffc0c546a000000000000000000000000000000000000000000000000000000007bffffffffffffffffffffffffffffffffffffffffffffffffffffffff19166020820180517bffffffffffffffffffffffffffffffffffffffffffffffffffffffff838183161783525050505061b479565b90505f73ffffffffffffffffffffffffffffffffffffffff168173ffffffffffffffffffffffffffffffffffffffff160361876757618521826040516024016040516020818303038152906040527f6f307dc3000000000000000000000000000000000000000000000000000000007bffffffffffffffffffffffffffffffffffffffffffffffffffffffff19166020820180517bffffffffffffffffffffffffffffffffffffffffffffffffffffffff838183161783525050505061b479565b90505f73ffffffffffffffffffffffffffffffffffffffff168173ffffffffffffffffffffffffffffffffffffffff1603618767576185e2826040516024016040516020818303038152906040527f72f702f3000000000000000000000000000000000000000000000000000000007bffffffffffffffffffffffffffffffffffffffffffffffffffffffff19166020820180517bffffffffffffffffffffffffffffffffffffffffffffffffffffffff838183161783525050505061b479565b90505f73ffffffffffffffffffffffffffffffffffffffff168173ffffffffffffffffffffffffffffffffffffffff1603618767576186a3826040516024016040516020818303038152906040527fc89039c5000000000000000000000000000000000000000000000000000000007bffffffffffffffffffffffffffffffffffffffffffffffffffffffff19166020820180517bffffffffffffffffffffffffffffffffffffffffffffffffffffffff838183161783525050505061b479565b90505f73ffffffffffffffffffffffffffffffffffffffff168173ffffffffffffffffffffffffffffffffffffffff160361876757618764826040516024016040516020818303038152906040527f1f1fcd51000000000000000000000000000000000000000000000000000000007bffffffffffffffffffffffffffffffffffffffffffffffffffffffff19166020820180517bffffffffffffffffffffffffffffffffffffffffffffffffffffffff838183161783525050505061b479565b90505b919050565b5f5f73ffffffffffffffffffffffffffffffffffffffff168273ffffffffffffffffffffffffffffffffffffffff16036187a8575f9050618bfc565b618834826040516024016040516020818303038152906040527f646780df000000000000000000000000000000000000000000000000000000007bffffffffffffffffffffffffffffffffffffffffffffffffffffffff19166020820180517bffffffffffffffffffffffffffffffffffffffffffffffffffffffff838183161783525050505061b479565b90505f73ffffffffffffffffffffffffffffffffffffffff168173ffffffffffffffffffffffffffffffffffffffff1603618bfc576188f5826040516024016040516020818303038152906040527f4f39059c000000000000000000000000000000000000000000000000000000007bffffffffffffffffffffffffffffffffffffffffffffffffffffffff19166020820180517bffffffffffffffffffffffffffffffffffffffffffffffffffffffff838183161783525050505061b479565b90505f73ffffffffffffffffffffffffffffffffffffffff168173ffffffffffffffffffffffffffffffffffffffff1603618bfc576189b6826040516024016040516020818303038152906040527f82c63066000000000000000000000000000000000000000000000000000000007bffffffffffffffffffffffffffffffffffffffffffffffffffffffff19166020820180517bffffffffffffffffffffffffffffffffffffffffffffffffffffffff838183161783525050505061b479565b90505f73ffffffffffffffffffffffffffffffffffffffff168173ffffffffffffffffffffffffffffffffffffffff1603618bfc57618a77826040516024016040516020818303038152906040527ffc0c546a000000000000000000000000000000000000000000000000000000007bffffffffffffffffffffffffffffffffffffffffffffffffffffffff19166020820180517bffffffffffffffffffffffffffffffffffffffffffffffffffffffff838183161783525050505061b479565b90505f73ffffffffffffffffffffffffffffffffffffffff168173ffffffffffffffffffffffffffffffffffffffff1603618bfc57618b38826040516024016040516020818303038152906040527f6f307dc3000000000000000000000000000000000000000000000000000000007bffffffffffffffffffffffffffffffffffffffffffffffffffffffff19166020820180517bffffffffffffffffffffffffffffffffffffffffffffffffffffffff838183161783525050505061b479565b90505f73ffffffffffffffffffffffffffffffffffffffff168173ffffffffffffffffffffffffffffffffffffffff1603618bfc57618bf9826040516024016040516020818303038152906040527f38d52e0f000000000000000000000000000000000000000000000000000000007bffffffffffffffffffffffffffffffffffffffffffffffffffffffff19166020820180517bffffffffffffffffffffffffffffffffffffffffffffffffffffffff838183161783525050505061b479565b90505b919050565b5f5f73ffffffffffffffffffffffffffffffffffffffff168273ffffffffffffffffffffffffffffffffffffffff1603618c3d575f9050618e4e565b618cc9826040516024016040516020818303038152906040527f07546172000000000000000000000000000000000000000000000000000000007bffffffffffffffffffffffffffffffffffffffffffffffffffffffff19166020820180517bffffffffffffffffffffffffffffffffffffffffffffffffffffffff838183161783525050505061b479565b90505f73ffffffffffffffffffffffffffffffffffffffff168173ffffffffffffffffffffffffffffffffffffffff1603618e4e57618d8a826040516024016040516020818303038152906040527f16f0115b000000000000000000000000000000000000000000000000000000007bffffffffffffffffffffffffffffffffffffffffffffffffffffffff19166020820180517bffffffffffffffffffffffffffffffffffffffffffffffffffffffff838183161783525050505061b479565b90505f73ffffffffffffffffffffffffffffffffffffffff168173ffffffffffffffffffffffffffffffffffffffff1603618e4e57618e4b826040516024016040516020818303038152906040527f8119c065000000000000000000000000000000000000000000000000000000007bffffffffffffffffffffffffffffffffffffffffffffffffffffffff19166020820180517bffffffffffffffffffffffffffffffffffffffffffffffffffffffff838183161783525050505061b479565b90505b919050565b5f5f73ffffffffffffffffffffffffffffffffffffffff1660035f9054906101000a900473ffffffffffffffffffffffffffffffffffffffff1673ffffffffffffffffffffffffffffffffffffffff1614618ed15760035f9054906101000a900473ffffffffffffffffffffffffffffffffffffffff1690506190e5565b5f73ffffffffffffffffffffffffffffffffffffffff1660025f9054906101000a900473ffffffffffffffffffffffffffffffffffffffff1673ffffffffffffffffffffffffffffffffffffffff1614158015618f9b57505f5f9054906101000a900473ffffffffffffffffffffffffffffffffffffffff1673ffffffffffffffffffffffffffffffffffffffff1660025f9054906101000a900473ffffffffffffffffffffffffffffffffffffffff1673ffffffffffffffffffffffffffffffffffffffff1614155b15618fc95760025f9054906101000a900473ffffffffffffffffffffffffffffffffffffffff1690506190e5565b5f73ffffffffffffffffffffffffffffffffffffffff1660015f9054906101000a900473ffffffffffffffffffffffffffffffffffffffff1673ffffffffffffffffffffffffffffffffffffffff161415801561909357505f5f9054906101000a900473ffffffffffffffffffffffffffffffffffffffff1673ffffffffffffffffffffffffffffffffffffffff1660015f9054906101000a900473ffffffffffffffffffffffffffffffffffffffff1673ffffffffffffffffffffffffffffffffffffffff1614155b156190c15760015f9054906101000a900473ffffffffffffffffffffffffffffffffffffffff1690506190e5565b5f5f9054906101000a900473ffffffffffffffffffffffffffffffffffffffff1690505b90565b6060600267ffffffffffffffff8111156191055761910461d7df565b5b6040519080825280602002602001820160405280156191335781602001602082028036833780820191505090505b50905082815f8151811061914a5761914961e1c8565b5b602002602001019073ffffffffffffffffffffffffffffffffffffffff16908173ffffffffffffffffffffffffffffffffffffffff168152505081816001815181106191995761919861e1c8565b5b602002602001019073ffffffffffffffffffffffffffffffffffffffff16908173ffffffffffffffffffffffffffffffffffffffff168152505092915050565b5f5f82036191e9575f9050619428565b60028351108061923e57505f73ffffffffffffffffffffffffffffffffffffffff16835f8151811061921e5761921d61e1c8565b5b602002602001015173ffffffffffffffffffffffffffffffffffffffff16145b8061929b57505f73ffffffffffffffffffffffffffffffffffffffff16836001855161926a919061d325565b8151811061927b5761927a61e1c8565b5b602002602001015173ffffffffffffffffffffffffffffffffffffffff16145b156192a8575f9050619428565b6192b18461b516565b15806192c457506192c2848461b539565b155b156192d1575f9050619428565b81835f815181106192e5576192e461e1c8565b5b602002602001015173ffffffffffffffffffffffffffffffffffffffff166370a08231306040518263ffffffff1660e01b8152600401619325919061ca28565b602060405180830381865afa158015619340573d5f5f3e3d5ffd5b505050506040513d601f19601f82011682018060405250810190619364919061cf03565b1015619372575f9050619428565b619397835f815181106193885761938761e1c8565b5b60200260200101518584613472565b8373ffffffffffffffffffffffffffffffffffffffff166338ed1739835f8630426040518663ffffffff1660e01b81526004016193d895949392919061e9f2565b5f604051808303815f875af192505050801561941657506040513d5f823e3d601f19601f82011682018060405250810190619413919061eb0a565b60015b619422575f9050619428565b60019150505b9392505050565b6060600367ffffffffffffffff81111561944c5761944b61d7df565b5b60405190808252806020026020018201604052801561947a5781602001602082028036833780820191505090505b50905082815f815181106194915761949061e1c8565b5b602002602001019073ffffffffffffffffffffffffffffffffffffffff16908173ffffffffffffffffffffffffffffffffffffffff168152505073c02aaa39b223fe8d0a0e5c4f27ead9083c756cc2816001815181106194f4576194f361e1c8565b5b602002602001019073ffffffffffffffffffffffffffffffffffffffff16908173ffffffffffffffffffffffffffffffffffffffff168152505081816002815181106195435761954261e1c8565b5b602002602001019073ffffffffffffffffffffffffffffffffffffffff16908173ffffffffffffffffffffffffffffffffffffffff168152505092915050565b6060600367ffffffffffffffff8111156195a05761959f61d7df565b5b6040519080825280602002602001820160405280156195ce5781602001602082028036833780820191505090505b50905083815f815181106195e5576195e461e1c8565b5b602002602001019073ffffffffffffffffffffffffffffffffffffffff16908173ffffffffffffffffffffffffffffffffffffffff168152505082816001815181106196345761963361e1c8565b5b602002602001019073ffffffffffffffffffffffffffffffffffffffff16908173ffffffffffffffffffffffffffffffffffffffff168152505081816002815181106196835761968261e1c8565b5b602002602001019073ffffffffffffffffffffffffffffffffffffffff16908173ffffffffffffffffffffffffffffffffffffffff16815250509392505050565b5f5f6196f060025f9054906101000a900473ffffffffffffffffffffffffffffffffffffffff1661a57d565b90505f61971d60035f9054906101000a900473ffffffffffffffffffffffffffffffffffffffff1661a57d565b90505f61974a60015f9054906101000a900473ffffffffffffffffffffffffffffffffffffffff1661a57d565b90506197558561b70c565b156197f6578261978560025f9054906101000a900473ffffffffffffffffffffffffffffffffffffffff1661a57d565b11806197b95750816197b760035f9054906101000a900473ffffffffffffffffffffffffffffffffffffffff1661a57d565b115b806197ec5750806197ea60015f9054906101000a900473ffffffffffffffffffffffffffffffffffffffff1661a57d565b115b93505050506197fd565b5f93505050505b919050565b5f5f61982e60035f9054906101000a900473ffffffffffffffffffffffffffffffffffffffff1661a57d565b90505f81146198615760035f9054906101000a900473ffffffffffffffffffffffffffffffffffffffff169150506199f0565b5f61988c60025f9054906101000a900473ffffffffffffffffffffffffffffffffffffffff1661a57d565b90505f81146198c05760025f9054906101000a900473ffffffffffffffffffffffffffffffffffffffff16925050506199f0565b5f6198eb60015f9054906101000a900473ffffffffffffffffffffffffffffffffffffffff1661a57d565b90505f81146199205760015f9054906101000a900473ffffffffffffffffffffffffffffffffffffffff1693505050506199f0565b5f5f5f9054906101000a900473ffffffffffffffffffffffffffffffffffffffff1673ffffffffffffffffffffffffffffffffffffffff166370a08231306040518263ffffffff1660e01b815260040161997a919061ca28565b602060405180830381865afa158015619995573d5f5f3e3d5ffd5b505050506040513d601f19601f820116820180604052508101906199b9919061cf03565b146199e9575f5f9054906101000a900473ffffffffffffffffffffffffffffffffffffffff1693505050506199f0565b5f93505050505b90565b5f5f73ffffffffffffffffffffffffffffffffffffffff168273ffffffffffffffffffffffffffffffffffffffff1603619a2f575f9050619d88565b5f8273ffffffffffffffffffffffffffffffffffffffff166370a08231306040518263ffffffff1660e01b8152600401619a69919061ca28565b602060405180830381865afa158015619a84573d5f5f3e3d5ffd5b505050506040513d601f19601f82011682018060405250810190619aa8919061cf03565b90505f8103619aba575f915050619d88565b5f60045f9054906101000a900473ffffffffffffffffffffffffffffffffffffffff1690505f73ffffffffffffffffffffffffffffffffffffffff168173ffffffffffffffffffffffffffffffffffffffff1603619b1e57619b1b84618c01565b90505b619b278161b516565b619b35575f92505050619d88565b5f6040518060c001604052805f815260200160018152602001600281526020016003815260200160048152602001600581525090505f5f90505b6006811015619d80575f828260068110619b8c57619b8b61e1c8565b5b602002015190505f619b9e858361bf89565b90505f73ffffffffffffffffffffffffffffffffffffffff168173ffffffffffffffffffffffffffffffffffffffff1603619bda575050619d73565b619be38161c0f6565b619bee575050619d73565b5f8173ffffffffffffffffffffffffffffffffffffffff166370a08231306040518263ffffffff1660e01b8152600401619c28919061ca28565b602060405180830381865afa158015619c43573d5f5f3e3d5ffd5b505050506040513d601f19601f82011682018060405250810190619c67919061cf03565b9050619c75868a898661c2b3565b15619d6f575f8273ffffffffffffffffffffffffffffffffffffffff166370a08231306040518263ffffffff1660e01b8152600401619cb4919061ca28565b602060405180830381865afa158015619ccf573d5f5f3e3d5ffd5b505050506040513d601f19601f82011682018060405250810190619cf3919061cf03565b905081811115619d6d577399d8a9c45b2eca8864373a26d1459e3dff1e17f373ffffffffffffffffffffffffffffffffffffffff168373ffffffffffffffffffffffffffffffffffffffff1603619d5557600198505050505050505050619d88565b619d5e83614f3d565b98505050505050505050619d88565b505b5050505b8080600101915050619b6f565b505f93505050505b919050565b5f619d99848685613472565b5f5f90505b600681101561a570575f619db2878361bf89565b90508573ffffffffffffffffffffffffffffffffffffffff168173ffffffffffffffffffffffffffffffffffffffff1614619ded575061a563565b5f8473ffffffffffffffffffffffffffffffffffffffff166370a08231306040518263ffffffff1660e01b8152600401619e27919061ca28565b602060405180830381865afa158015619e42573d5f5f3e3d5ffd5b505050506040513d601f19601f82011682018060405250810190619e66919061cf03565b9050600283101561a02657619e7961c915565b86818560028110619e8d57619e8c61e1c8565b5b6020020181815250505f8973ffffffffffffffffffffffffffffffffffffffff16825f604051602401619ec192919061ebd0565b6040516020818303038152906040527f0b4c7e4d000000000000000000000000000000000000000000000000000000007bffffffffffffffffffffffffffffffffffffffffffffffffffffffff19166020820180517bffffffffffffffffffffffffffffffffffffffffffffffffffffffff8381831617835250505050604051619f4b919061e074565b5f604051808303815f865af19150503d805f8114619f84576040519150601f19603f3d011682016040523d82523d5f602084013e619f89565b606091505b5050905080801561a0105750828773ffffffffffffffffffffffffffffffffffffffff166370a08231306040518263ffffffff1660e01b8152600401619fcf919061ca28565b602060405180830381865afa158015619fea573d5f5f3e3d5ffd5b505050506040513d601f19601f8201168201806040525081019061a00e919061cf03565b115b1561a0235760019550505050505061a575565b50505b600383101561a1e45761a03761c937565b8681856003811061a04b5761a04a61e1c8565b5b6020020181815250505f8973ffffffffffffffffffffffffffffffffffffffff16825f60405160240161a07f92919061ec76565b6040516020818303038152906040527f4515cef3000000000000000000000000000000000000000000000000000000007bffffffffffffffffffffffffffffffffffffffffffffffffffffffff19166020820180517bffffffffffffffffffffffffffffffffffffffffffffffffffffffff838183161783525050505060405161a109919061e074565b5f604051808303815f865af19150503d805f811461a142576040519150601f19603f3d011682016040523d82523d5f602084013e61a147565b606091505b5050905080801561a1ce5750828773ffffffffffffffffffffffffffffffffffffffff166370a08231306040518263ffffffff1660e01b815260040161a18d919061ca28565b602060405180830381865afa15801561a1a8573d5f5f3e3d5ffd5b505050506040513d601f19601f8201168201806040525081019061a1cc919061cf03565b115b1561a1e15760019550505050505061a575565b50505b600483101561a3a25761a1f561c959565b8681856004811061a2095761a20861e1c8565b5b6020020181815250505f8973ffffffffffffffffffffffffffffffffffffffff16825f60405160240161a23d92919061ed1c565b6040516020818303038152906040527f029b2f34000000000000000000000000000000000000000000000000000000007bffffffffffffffffffffffffffffffffffffffffffffffffffffffff19166020820180517bffffffffffffffffffffffffffffffffffffffffffffffffffffffff838183161783525050505060405161a2c7919061e074565b5f604051808303815f865af19150503d805f811461a300576040519150601f19603f3d011682016040523d82523d5f602084013e61a305565b606091505b5050905080801561a38c5750828773ffffffffffffffffffffffffffffffffffffffff166370a08231306040518263ffffffff1660e01b815260040161a34b919061ca28565b602060405180830381865afa15801561a366573d5f5f3e3d5ffd5b505050506040513d601f19601f8201168201806040525081019061a38a919061cf03565b115b1561a39f5760019550505050505061a575565b50505b600583101561a5605761a3b361c97b565b8681856005811061a3c75761a3c661e1c8565b5b6020020181815250505f8973ffffffffffffffffffffffffffffffffffffffff16825f60405160240161a3fb92919061edc2565b6040516020818303038152906040527f84738499000000000000000000000000000000000000000000000000000000007bffffffffffffffffffffffffffffffffffffffffffffffffffffffff19166020820180517bffffffffffffffffffffffffffffffffffffffffffffffffffffffff838183161783525050505060405161a485919061e074565b5f604051808303815f865af19150503d805f811461a4be576040519150601f19603f3d011682016040523d82523d5f602084013e61a4c3565b606091505b5050905080801561a54a5750828773ffffffffffffffffffffffffffffffffffffffff166370a08231306040518263ffffffff1660e01b815260040161a509919061ca28565b602060405180830381865afa15801561a524573d5f5f3e3d5ffd5b505050506040513d601f19601f8201168201806040525081019061a548919061cf03565b115b1561a55d5760019550505050505061a575565b50505b50505b8080600101915050619d9e565b505f90505b949350505050565b5f5f73ffffffffffffffffffffffffffffffffffffffff168273ffffffffffffffffffffffffffffffffffffffff160361a5b9575f905061a634565b8173ffffffffffffffffffffffffffffffffffffffff166370a08231306040518263ffffffff1660e01b815260040161a5f2919061ca28565b602060405180830381865afa15801561a60d573d5f5f3e3d5ffd5b505050506040513d601f19601f8201168201806040525081019061a631919061cf03565b90505b919050565b5f5f73ffffffffffffffffffffffffffffffffffffffff1660035f9054906101000a900473ffffffffffffffffffffffffffffffffffffffff1673ffffffffffffffffffffffffffffffffffffffff16148061a6e157505f73ffffffffffffffffffffffffffffffffffffffff1660025f9054906101000a900473ffffffffffffffffffffffffffffffffffffffff1673ffffffffffffffffffffffffffffffffffffffff16145b8061a759575060025f9054906101000a900473ffffffffffffffffffffffffffffffffffffffff1673ffffffffffffffffffffffffffffffffffffffff1660035f9054906101000a900473ffffffffffffffffffffffffffffffffffffffff1673ffffffffffffffffffffffffffffffffffffffff16145b1561a766575f905061abda565b5f60035f9054906101000a900473ffffffffffffffffffffffffffffffffffffffff1673ffffffffffffffffffffffffffffffffffffffff166370a08231306040518263ffffffff1660e01b815260040161a7c1919061ca28565b602060405180830381865afa15801561a7dc573d5f5f3e3d5ffd5b505050506040513d601f19601f8201168201806040525081019061a800919061cf03565b90505f810361a812575f91505061abda565b61a85f60035f9054906101000a900473ffffffffffffffffffffffffffffffffffffffff1660025f9054906101000a900473ffffffffffffffffffffffffffffffffffffffff1683613472565b5f60025f9054906101000a900473ffffffffffffffffffffffffffffffffffffffff1673ffffffffffffffffffffffffffffffffffffffff166370a08231306040518263ffffffff1660e01b815260040161a8ba919061ca28565b602060405180830381865afa15801561a8d5573d5f5f3e3d5ffd5b505050506040513d601f19601f8201168201806040525081019061a8f9919061cf03565b90505f60025f9054906101000a900473ffffffffffffffffffffffffffffffffffffffff1673ffffffffffffffffffffffffffffffffffffffff168360405160240161a945919061c9d0565b6040516020818303038152906040527fb6b55f25000000000000000000000000000000000000000000000000000000007bffffffffffffffffffffffffffffffffffffffffffffffffffffffff19166020820180517bffffffffffffffffffffffffffffffffffffffffffffffffffffffff838183161783525050505060405161a9cf919061e074565b5f604051808303815f865af19150503d805f811461aa08576040519150601f19603f3d011682016040523d82523d5f602084013e61aa0d565b606091505b505090508061ab305760025f9054906101000a900473ffffffffffffffffffffffffffffffffffffffff1673ffffffffffffffffffffffffffffffffffffffff16833060405160240161aa6192919061e9cb565b6040516020818303038152906040527f6e553f65000000000000000000000000000000000000000000000000000000007bffffffffffffffffffffffffffffffffffffffffffffffffffffffff19166020820180517bffffffffffffffffffffffffffffffffffffffffffffffffffffffff838183161783525050505060405161aaeb919061e074565b5f604051808303815f865af19150503d805f811461ab24576040519150601f19603f3d011682016040523d82523d5f602084013e61ab29565b606091505b5050809150505b80801561abd457508160025f9054906101000a900473ffffffffffffffffffffffffffffffffffffffff1673ffffffffffffffffffffffffffffffffffffffff166370a08231306040518263ffffffff1660e01b815260040161ab93919061ca28565b602060405180830381865afa15801561abae573d5f5f3e3d5ffd5b505050506040513d601f19601f8201168201806040525081019061abd2919061cf03565b115b93505050505b90565b5f5f73ffffffffffffffffffffffffffffffffffffffff1660025f9054906101000a900473ffffffffffffffffffffffffffffffffffffffff1673ffffffffffffffffffffffffffffffffffffffff16148061aca5575060025f9054906101000a900473ffffffffffffffffffffffffffffffffffffffff1673ffffffffffffffffffffffffffffffffffffffff165f5f9054906101000a900473ffffffffffffffffffffffffffffffffffffffff1673ffffffffffffffffffffffffffffffffffffffff16145b1561acb2575f905061b23d565b5f60025f9054906101000a900473ffffffffffffffffffffffffffffffffffffffff1673ffffffffffffffffffffffffffffffffffffffff166370a08231306040518263ffffffff1660e01b815260040161ad0d919061ca28565b602060405180830381865afa15801561ad28573d5f5f3e3d5ffd5b505050506040513d601f19601f8201168201806040525081019061ad4c919061cf03565b90505f810361ad5e575f91505061b23d565b61adaa60025f9054906101000a900473ffffffffffffffffffffffffffffffffffffffff165f5f9054906101000a900473ffffffffffffffffffffffffffffffffffffffff1683613472565b5f5f5f9054906101000a900473ffffffffffffffffffffffffffffffffffffffff1673ffffffffffffffffffffffffffffffffffffffff166370a08231306040518263ffffffff1660e01b815260040161ae04919061ca28565b602060405180830381865afa15801561ae1f573d5f5f3e3d5ffd5b505050506040513d601f19601f8201168201806040525081019061ae43919061cf03565b90505f5f5f9054906101000a900473ffffffffffffffffffffffffffffffffffffffff1673ffffffffffffffffffffffffffffffffffffffff168360405160240161ae8e919061c9d0565b6040516020818303038152906040527fb6b55f25000000000000000000000000000000000000000000000000000000007bffffffffffffffffffffffffffffffffffffffffffffffffffffffff19166020820180517bffffffffffffffffffffffffffffffffffffffffffffffffffffffff838183161783525050505060405161af18919061e074565b5f604051808303815f865af19150503d805f811461af51576040519150601f19603f3d011682016040523d82523d5f602084013e61af56565b606091505b505090508061b078575f5f9054906101000a900473ffffffffffffffffffffffffffffffffffffffff1673ffffffffffffffffffffffffffffffffffffffff16833060405160240161afa992919061e9cb565b6040516020818303038152906040527f6e553f65000000000000000000000000000000000000000000000000000000007bffffffffffffffffffffffffffffffffffffffffffffffffffffffff19166020820180517bffffffffffffffffffffffffffffffffffffffffffffffffffffffff838183161783525050505060405161b033919061e074565b5f604051808303815f865af19150503d805f811461b06c576040519150601f19603f3d011682016040523d82523d5f602084013e61b071565b606091505b5050809150505b8061b194575f5f9054906101000a900473ffffffffffffffffffffffffffffffffffffffff1673ffffffffffffffffffffffffffffffffffffffff168360405160240161b0c5919061c9d0565b6040516020818303038152906040527fa694fc3a000000000000000000000000000000000000000000000000000000007bffffffffffffffffffffffffffffffffffffffffffffffffffffffff19166020820180517bffffffffffffffffffffffffffffffffffffffffffffffffffffffff838183161783525050505060405161b14f919061e074565b5f604051808303815f865af19150503d805f811461b188576040519150601f19603f3d011682016040523d82523d5f602084013e61b18d565b606091505b5050809150505b80801561b2375750815f5f9054906101000a900473ffffffffffffffffffffffffffffffffffffffff1673ffffffffffffffffffffffffffffffffffffffff166370a08231306040518263ffffffff1660e01b815260040161b1f6919061ca28565b602060405180830381865afa15801561b211573d5f5f3e3d5ffd5b505050506040513d601f19601f8201168201806040525081019061b235919061cf03565b115b93505050505b90565b5f5f5f5f9054906101000a900473ffffffffffffffffffffffffffffffffffffffff1673ffffffffffffffffffffffffffffffffffffffff166370a08231306040518263ffffffff1660e01b815260040161b29b919061ca28565b602060405180830381865afa15801561b2b6573d5f5f3e3d5ffd5b505050506040513d601f19601f8201168201806040525081019061b2da919061cf03565b90505f61b30760015f9054906101000a900473ffffffffffffffffffffffffffffffffffffffff1661a57d565b90505f5f5f9054906101000a900473ffffffffffffffffffffffffffffffffffffffff1673ffffffffffffffffffffffffffffffffffffffff168560405161b34f919061e074565b5f604051808303815f865af19150503d805f811461b388576040519150601f19603f3d011682016040523d82523d5f602084013e61b38d565b606091505b505090508061b3a1575f935050505061b474565b825f5f9054906101000a900473ffffffffffffffffffffffffffffffffffffffff1673ffffffffffffffffffffffffffffffffffffffff166370a08231306040518263ffffffff1660e01b815260040161b3fb919061ca28565b602060405180830381865afa15801561b416573d5f5f3e3d5ffd5b505050506040513d601f19601f8201168201806040525081019061b43a919061cf03565b118061b46e57508161b46c60015f9054906101000a900473ffffffffffffffffffffffffffffffffffffffff1661a57d565b105b93505050505b919050565b5f5f5f8473ffffffffffffffffffffffffffffffffffffffff168460405161b4a1919061e074565b5f60405180830381855afa9150503d805f811461b4d9576040519150601f19603f3d011682016040523d82523d5f602084013e61b4de565b606091505b509150915081801561b4f257506020815110155b1561b50e578080602001905181019061b50b919061ee24565b92505b505092915050565b5f5f8273ffffffffffffffffffffffffffffffffffffffff163b14159050919050565b5f60028251101561b54c575f905061b706565b5f8373ffffffffffffffffffffffffffffffffffffffff1663c45a01556040518163ffffffff1660e01b8152600401602060405180830381865afa92505050801561b5b557506040513d601f19601f8201168201806040525081019061b5b2919061cec4565b60015b61b5c2575f91505061b706565b8091505061b5cf8161b516565b61b5dc575f91505061b706565b5f5f90505b835160018261b5f0919061db9f565b101561b6ff575f73ffffffffffffffffffffffffffffffffffffffff168273ffffffffffffffffffffffffffffffffffffffff1663e6a4390586848151811061b63c5761b63b61e1c8565b5b60200260200101518760018661b652919061db9f565b8151811061b6635761b66261e1c8565b5b60200260200101516040518363ffffffff1660e01b815260040161b68892919061cf2e565b602060405180830381865afa15801561b6a3573d5f5f3e3d5ffd5b505050506040513d601f19601f8201168201806040525081019061b6c7919061cec4565b73ffffffffffffffffffffffffffffffffffffffff160361b6ec575f9250505061b706565b808061b6f79061e181565b91505061b5e1565b5060019150505b92915050565b5f5f820361b71c575f905061bf84565b815f5f9054906101000a900473ffffffffffffffffffffffffffffffffffffffff1673ffffffffffffffffffffffffffffffffffffffff166370a08231306040518263ffffffff1660e01b815260040161b776919061ca28565b602060405180830381865afa15801561b791573d5f5f3e3d5ffd5b505050506040513d601f19601f8201168201806040525081019061b7b5919061cf03565b101561b856575f5f9054906101000a900473ffffffffffffffffffffffffffffffffffffffff1673ffffffffffffffffffffffffffffffffffffffff166370a08231306040518263ffffffff1660e01b815260040161b814919061ca28565b602060405180830381865afa15801561b82f573d5f5f3e3d5ffd5b505050506040513d601f19601f8201168201806040525081019061b853919061cf03565b91505b5f820361b865575f905061bf84565b61b8fd825f60405160240161b87b92919061ee4f565b6040516020818303038152906040527fc32e7202000000000000000000000000000000000000000000000000000000007bffffffffffffffffffffffffffffffffffffffffffffffffffffffff19166020820180517bffffffffffffffffffffffffffffffffffffffffffffffffffffffff838183161783525050505061c5db565b1561b90b576001905061bf84565b61b9a18260405160240161b91f919061c9d0565b6040516020818303038152906040527f3969dfb4000000000000000000000000000000000000000000000000000000007bffffffffffffffffffffffffffffffffffffffffffffffffffffffff19166020820180517bffffffffffffffffffffffffffffffffffffffffffffffffffffffff838183161783525050505061c5db565b1561b9af576001905061bf84565b61ba458260405160240161b9c3919061c9d0565b6040516020818303038152906040527f67dfd4c9000000000000000000000000000000000000000000000000000000007bffffffffffffffffffffffffffffffffffffffffffffffffffffffff19166020820180517bffffffffffffffffffffffffffffffffffffffffffffffffffffffff838183161783525050505061c5db565b1561ba53576001905061bf84565b61bae98260405160240161ba67919061c9d0565b6040516020818303038152906040527fde0e9a3e000000000000000000000000000000000000000000000000000000007bffffffffffffffffffffffffffffffffffffffffffffffffffffffff19166020820180517bffffffffffffffffffffffffffffffffffffffffffffffffffffffff838183161783525050505061c5db565b1561baf7576001905061bf84565b61bb9182303060405160240161bb0f9392919061ee76565b6040516020818303038152906040527fba087652000000000000000000000000000000000000000000000000000000007bffffffffffffffffffffffffffffffffffffffffffffffffffffffff19166020820180517bffffffffffffffffffffffffffffffffffffffffffffffffffffffff838183161783525050505061c5db565b1561bb9f576001905061bf84565b61bc37823060405160240161bbb592919061e9cb565b6040516020818303038152906040527f7bde82f2000000000000000000000000000000000000000000000000000000007bffffffffffffffffffffffffffffffffffffffffffffffffffffffff19166020820180517bffffffffffffffffffffffffffffffffffffffffffffffffffffffff838183161783525050505061c5db565b1561bc45576001905061bf84565b61bcdb8260405160240161bc59919061c9d0565b6040516020818303038152906040527fdb006a75000000000000000000000000000000000000000000000000000000007bffffffffffffffffffffffffffffffffffffffffffffffffffffffff19166020820180517bffffffffffffffffffffffffffffffffffffffffffffffffffffffff838183161783525050505061c5db565b1561bce9576001905061bf84565b61bd81825f60405160240161bcff92919061ee4f565b6040516020818303038152906040527f38d07436000000000000000000000000000000000000000000000000000000007bffffffffffffffffffffffffffffffffffffffffffffffffffffffff19166020820180517bffffffffffffffffffffffffffffffffffffffffffffffffffffffff838183161783525050505061c5db565b1561bd8f576001905061bf84565b61be2982303060405160240161bda79392919061ee76565b6040516020818303038152906040527fb460af94000000000000000000000000000000000000000000000000000000007bffffffffffffffffffffffffffffffffffffffffffffffffffffffff19166020820180517bffffffffffffffffffffffffffffffffffffffffffffffffffffffff838183161783525050505061c5db565b1561be37576001905061bf84565b61bece823060405160240161be4d92919061e9cb565b6040516020818303038152906040527ef714ce000000000000000000000000000000000000000000000000000000007bffffffffffffffffffffffffffffffffffffffffffffffffffffffff19166020820180517bffffffffffffffffffffffffffffffffffffffffffffffffffffffff838183161783525050505061c5db565b1561bedc576001905061bf84565b61bf728260405160240161bef0919061c9d0565b6040516020818303038152906040527f2e1a7d4d000000000000000000000000000000000000000000000000000000007bffffffffffffffffffffffffffffffffffffffffffffffffffffffff19166020820180517bffffffffffffffffffffffffffffffffffffffffffffffffffffffff838183161783525050505061c5db565b1561bf80576001905061bf84565b5f90505b919050565b5f61c021838360405160240161bf9f919061c9d0565b6040516020818303038152906040527fc6610657000000000000000000000000000000000000000000000000000000007bffffffffffffffffffffffffffffffffffffffffffffffffffffffff19166020820180517bffffffffffffffffffffffffffffffffffffffffffffffffffffffff838183161783525050505061b479565b90505f73ffffffffffffffffffffffffffffffffffffffff168173ffffffffffffffffffffffffffffffffffffffff160361c0f05761c0ed838360405160240161c06b919061c9d0565b6040516020818303038152906040527fb9947eb0000000000000000000000000000000000000000000000000000000007bffffffffffffffffffffffffffffffffffffffffffffffffffffffff19166020820180517bffffffffffffffffffffffffffffffffffffffffffffffffffffffff838183161783525050505061b479565b90505b92915050565b5f7399d8a9c45b2eca8864373a26d1459e3dff1e17f373ffffffffffffffffffffffffffffffffffffffff168273ffffffffffffffffffffffffffffffffffffffff16148061c184575073c02aaa39b223fe8d0a0e5c4f27ead9083c756cc273ffffffffffffffffffffffffffffffffffffffff168273ffffffffffffffffffffffffffffffffffffffff16145b8061c1ce5750732260fac5e5542a773aa44fbcfedf7c193bc2c59973ffffffffffffffffffffffffffffffffffffffff168273ffffffffffffffffffffffffffffffffffffffff16145b8061c218575073a0b86991c6218b36c1d19d4a2e9eb0ce3606eb4873ffffffffffffffffffffffffffffffffffffffff168273ffffffffffffffffffffffffffffffffffffffff16145b8061c262575073dac17f958d2ee523a2206206994597c13d831ec773ffffffffffffffffffffffffffffffffffffffff168273ffffffffffffffffffffffffffffffffffffffff16145b8061c2ac5750736b175474e89094c44da98b954eedeac495271d0f73ffffffffffffffffffffffffffffffffffffffff168273ffffffffffffffffffffffffffffffffffffffff16145b9050919050565b5f61c2bf848685613472565b5f8573ffffffffffffffffffffffffffffffffffffffff1684845f60405160240161c2ec9392919061eec6565b6040516020818303038152906040527f1a4d01d2000000000000000000000000000000000000000000000000000000007bffffffffffffffffffffffffffffffffffffffffffffffffffffffff19166020820180517bffffffffffffffffffffffffffffffffffffffffffffffffffffffff838183161783525050505060405161c376919061e074565b5f604051808303815f865af19150503d805f811461c3af576040519150601f19603f3d011682016040523d82523d5f602084013e61c3b4565b606091505b50509050801561c3c857600191505061c5d3565b8573ffffffffffffffffffffffffffffffffffffffff1684845f60405160240161c3f49392919061eefb565b6040516020818303038152906040527ff1dc3cc9000000000000000000000000000000000000000000000000000000007bffffffffffffffffffffffffffffffffffffffffffffffffffffffff19166020820180517bffffffffffffffffffffffffffffffffffffffffffffffffffffffff838183161783525050505060405161c47e919061e074565b5f604051808303815f865af19150503d805f811461c4b7576040519150601f19603f3d011682016040523d82523d5f602084013e61c4bc565b606091505b505080915050801561c4d257600191505061c5d3565b8573ffffffffffffffffffffffffffffffffffffffff1684845f5f60405160240161c500949392919061ef30565b6040516020818303038152906040527f517a55a3000000000000000000000000000000000000000000000000000000007bffffffffffffffffffffffffffffffffffffffffffffffffffffffff19166020820180517bffffffffffffffffffffffffffffffffffffffffffffffffffffffff838183161783525050505060405161c58a919061e074565b5f604051808303815f865af19150503d805f811461c5c3576040519150601f19603f3d011682016040523d82523d5f602084013e61c5c8565b606091505b505080915050809150505b949350505050565b5f5f5f5f9054906101000a900473ffffffffffffffffffffffffffffffffffffffff1673ffffffffffffffffffffffffffffffffffffffff166370a08231306040518263ffffffff1660e01b815260040161c636919061ca28565b602060405180830381865afa15801561c651573d5f5f3e3d5ffd5b505050506040513d601f19601f8201168201806040525081019061c675919061cf03565b90505f61c6a260025f9054906101000a900473ffffffffffffffffffffffffffffffffffffffff1661a57d565b90505f61c6cf60035f9054906101000a900473ffffffffffffffffffffffffffffffffffffffff1661a57d565b90505f61c6fc60015f9054906101000a900473ffffffffffffffffffffffffffffffffffffffff1661a57d565b90505f5f5f9054906101000a900473ffffffffffffffffffffffffffffffffffffffff1673ffffffffffffffffffffffffffffffffffffffff168760405161c744919061e074565b5f604051808303815f865af19150503d805f811461c77d576040519150601f19603f3d011682016040523d82523d5f602084013e61c782565b606091505b505090508061c798575f9550505050505061c8d3565b845f5f9054906101000a900473ffffffffffffffffffffffffffffffffffffffff1673ffffffffffffffffffffffffffffffffffffffff166370a08231306040518263ffffffff1660e01b815260040161c7f2919061ca28565b602060405180830381865afa15801561c80d573d5f5f3e3d5ffd5b505050506040513d601f19601f8201168201806040525081019061c831919061cf03565b108061c86557508361c86360025f9054906101000a900473ffffffffffffffffffffffffffffffffffffffff1661a57d565b115b8061c89857508261c89660035f9054906101000a900473ffffffffffffffffffffffffffffffffffffffff1661a57d565b115b8061c8cb57508161c8c960015f9054906101000a900473ffffffffffffffffffffffffffffffffffffffff1661a57d565b115b955050505050505b919050565b50805461c8e49061d839565b5f825580601f1061c8f5575061c912565b601f0160209004905f5260205f209081019061c911919061c99d565b5b50565b6040518060400160405280600290602082028036833780820191505090505090565b6040518060600160405280600390602082028036833780820191505090505090565b6040518060800160405280600490602082028036833780820191505090505090565b6040518060a00160405280600590602082028036833780820191505090505090565b5b8082111561c9b4575f815f90555060010161c99e565b5090565b5f819050919050565b61c9ca8161c9b8565b82525050565b5f60208201905061c9e35f83018461c9c1565b92915050565b5f73ffffffffffffffffffffffffffffffffffffffff82169050919050565b5f61ca128261c9e9565b9050919050565b61ca228161ca08565b82525050565b5f60208201905061ca3b5f83018461ca19565b92915050565b5f8115159050919050565b61ca558161ca41565b82525050565b5f60208201905061ca6e5f83018461ca4c565b92915050565b5f604051905090565b5f5ffd5b5f5ffd5b61ca8e8161ca08565b811461ca98575f5ffd5b50565b5f8135905061caa98161ca85565b92915050565b5f61cab98261ca08565b9050919050565b61cac98161caaf565b811461cad3575f5ffd5b50565b5f8135905061cae48161cac0565b92915050565b61caf38161c9b8565b811461cafd575f5ffd5b50565b5f8135905061cb0e8161caea565b92915050565b5f5ffd5b5f5ffd5b5f5ffd5b5f5f83601f84011261cb355761cb3461cb14565b5b8235905067ffffffffffffffff81111561cb525761cb5161cb18565b5b60208301915083600182028301111561cb6e5761cb6d61cb1c565b5b9250929050565b5f5f5f5f5f5f60a0878903121561cb8f5761cb8e61ca7d565b5b5f61cb9c89828a0161ca9b565b965050602061cbad89828a0161cad6565b955050604061cbbe89828a0161cb00565b945050606061cbcf89828a0161cb00565b935050608087013567ffffffffffffffff81111561cbf05761cbef61ca81565b5b61cbfc89828a0161cb20565b92509250509295509295509295565b5f6020828403121561cc205761cc1f61ca7d565b5b5f61cc2d8482850161cb00565b91505092915050565b5f6020828403121561cc4b5761cc4a61ca7d565b5b5f61cc588482850161ca9b565b91505092915050565b5f5f6040838503121561cc775761cc7661ca7d565b5b5f61cc848582860161ca9b565b925050602061cc958582860161ca9b565b9150509250929050565b5f819050919050565b5f61ccc261ccbd61ccb88461c9e9565b61cc9f565b61c9e9565b9050919050565b5f61ccd38261cca8565b9050919050565b5f61cce48261ccc9565b9050919050565b61ccf48161ccda565b82525050565b5f60208201905061cd0d5f83018461cceb565b92915050565b5f61ffff82169050919050565b61cd298161cd13565b811461cd33575f5ffd5b50565b5f8135905061cd448161cd20565b92915050565b5f5f5f5f6080858703121561cd625761cd6161ca7d565b5b5f61cd6f8782880161cb00565b945050602061cd808782880161cd36565b935050604061cd918782880161ca9b565b925050606061cda28782880161ca9b565b91505092959194509250565b5f81519050919050565b5f82825260208201905092915050565b8281835e5f83830152505050565b5f601f19601f8301169050919050565b5f61cdf08261cdae565b61cdfa818561cdb8565b935061ce0a81856020860161cdc8565b61ce138161cdd6565b840191505092915050565b5f6020820190508181035f83015261ce36818461cde6565b905092915050565b5f81519050919050565b5f82825260208201905092915050565b5f61ce628261ce3e565b61ce6c818561ce48565b935061ce7c81856020860161cdc8565b61ce858161cdd6565b840191505092915050565b5f6020820190508181035f83015261cea8818461ce58565b905092915050565b5f8151905061cebe8161ca85565b92915050565b5f6020828403121561ced95761ced861ca7d565b5b5f61cee68482850161ceb0565b91505092915050565b5f8151905061cefd8161caea565b92915050565b5f6020828403121561cf185761cf1761ca7d565b5b5f61cf258482850161ceef565b91505092915050565b5f60408201905061cf415f83018561ca19565b61cf4e602083018461ca19565b9392505050565b7f4e487b71000000000000000000000000000000000000000000000000000000005f52601160045260245ffd5b5f61cf8c8261c9b8565b915061cf978361c9b8565b925082820261cfa58161c9b8565b9150828204841483151761cfbc5761cfbb61cf55565b5b5092915050565b7f4e487b71000000000000000000000000000000000000000000000000000000005f52601260045260245ffd5b5f61cffa8261c9b8565b915061d0058361c9b8565b92508261d0155761d01461cfc3565b5b828204905092915050565b7f4445504f5349545f53504c49545f494e56414c494400000000000000000000005f82015250565b5f61d05460158361ce48565b915061d05f8261d020565b602082019050919050565b5f6020820190508181035f83015261d0818161d048565b9050919050565b5f819050919050565b5f61d0ab61d0a661d0a18461d088565b61cc9f565b61c9b8565b9050919050565b61d0bb8161d091565b82525050565b5f60a08201905061d0d45f83018861ca19565b61d0e1602083018761ca19565b61d0ee604083018661ca19565b61d0fb606083018561c9c1565b61d108608083018461d0b2565b9695505050505050565b5f5f6040838503121561d1285761d12761ca7d565b5b5f61d1358582860161ceef565b925050602061d1468582860161ceef565b9150509250929050565b7f5a45524f5f4445504f5349545f534841524500000000000000000000000000005f82015250565b5f61d18460128361ce48565b915061d18f8261d150565b602082019050919050565b5f6020820190508181035f83015261d1b18161d178565b9050919050565b5f60608201905061d1cb5f83018661ca19565b61d1d8602083018561ca4c565b61d1e5604083018461c9c1565b949350505050565b7f4144445f434f4c4c41544552414c5f4641494c454400000000000000000000005f82015250565b5f61d22160158361ce48565b915061d22c8261d1ed565b602082019050919050565b5f6020820190508181035f83015261d24e8161d215565b9050919050565b7f4e4f5f424f52524f5741424c455f4d494d0000000000000000000000000000005f82015250565b5f61d28960118361ce48565b915061d2948261d255565b602082019050919050565b5f6020820190508181035f83015261d2b68161d27d565b9050919050565b7f424f52524f575f4641494c4544000000000000000000000000000000000000005f82015250565b5f61d2f1600d8361ce48565b915061d2fc8261d2bd565b602082019050919050565b5f6020820190508181035f83015261d31e8161d2e5565b9050919050565b5f61d32f8261c9b8565b915061d33a8361c9b8565b925082820390508181111561d3525761d35161cf55565b5b92915050565b61d3618161ca41565b811461d36b575f5ffd5b50565b5f8151905061d37c8161d358565b92915050565b5f5f6040838503121561d3985761d39761ca7d565b5b5f61d3a58582860161d36e565b925050602061d3b68582860161ceef565b9150509250929050565b7f5a45524f5f504f53545f44554d505f52415445000000000000000000000000005f82015250565b5f61d3f460138361ce48565b915061d3ff8261d3c0565b602082019050919050565b5f6020820190508181035f83015261d4218161d3e8565b9050919050565b5f6020828403121561d43d5761d43c61ca7d565b5b5f61d44a8482850161d36e565b91505092915050565b7f4e4f545f494e534f4c56454e545f41465445525f44554d5000000000000000005f82015250565b5f61d48760188361ce48565b915061d4928261d453565b602082019050919050565b5f6020820190508181035f83015261d4b48161d47b565b9050919050565b7f46554c4c5f4c49515549444154494f4e5f5354494c4c5f434f564552454400005f82015250565b5f61d4ef601e8361ce48565b915061d4fa8261d4bb565b602082019050919050565b5f6020820190508181035f83015261d51c8161d4e3565b9050919050565b7f4e4f5f534146455f5041525449414c5f4c49515549444154494f4e00000000005f82015250565b5f61d557601b8361ce48565b915061d5628261d523565b602082019050919050565b5f6020820190508181035f83015261d5848161d54b565b9050919050565b7f5041525449414c5f455155414c535f46554c4c000000000000000000000000005f82015250565b5f61d5bf60138361ce48565b915061d5ca8261d58b565b602082019050919050565b5f6020820190508181035f83015261d5ec8161d5b3565b9050919050565b7f4e4f5f52454d41494e494e475f444542540000000000000000000000000000005f82015250565b5f61d62760118361ce48565b915061d6328261d5f3565b602082019050919050565b5f6020820190508181035f83015261d6548161d61b565b9050919050565b7f5041525449414c5f524553544f5245535f534f4c56454e4359000000000000005f82015250565b5f61d68f60198361ce48565b915061d69a8261d65b565b602082019050919050565b5f6020820190508181035f83015261d6bc8161d683565b9050919050565b7f524553494455414c5f444542545f4e4f545f554e44455257415445525f454e4f5f8201527f5547480000000000000000000000000000000000000000000000000000000000602082015250565b5f61d71d60238361ce48565b915061d7288261d6c3565b604082019050919050565b5f6020820190508181035f83015261d74a8161d711565b9050919050565b7f4e4f545f454e4f5547485f4d494d5f544f5f544553545f46494e414c5f4c49515f8201527f5549444154494f4e000000000000000000000000000000000000000000000000602082015250565b5f61d7ab60288361ce48565b915061d7b68261d751565b604082019050919050565b5f6020820190508181035f83015261d7d88161d79f565b9050919050565b7f4e487b71000000000000000000000000000000000000000000000000000000005f52604160045260245ffd5b7f4e487b71000000000000000000000000000000000000000000000000000000005f52602260045260245ffd5b5f600282049050600182168061d85057607f821691505b60208210810361d8635761d86261d80c565b5b50919050565b5f819050815f5260205f209050919050565b5f6020601f8301049050919050565b5f82821b905092915050565b5f6008830261d8c57fffffffffffffffffffffffffffffffffffffffffffffffffffffffffffffffff8261d88a565b61d8cf868361d88a565b95508019841693508086168417925050509392505050565b5f61d90161d8fc61d8f78461c9b8565b61cc9f565b61c9b8565b9050919050565b5f819050919050565b61d91a8361d8e7565b61d92e61d9268261d908565b84845461d896565b825550505050565b5f5f905090565b61d94561d936565b61d95081848461d911565b505050565b5b8181101561d9735761d9685f8261d93d565b60018101905061d956565b5050565b601f82111561d9b85761d9898161d869565b61d9928461d87b565b8101602085101561d9a1578190505b61d9b561d9ad8561d87b565b83018261d955565b50505b505050565b5f82821c905092915050565b5f61d9d85f198460080261d9bd565b1980831691505092915050565b5f61d9f0838361d9c9565b9150826002028217905092915050565b61da098261cdae565b67ffffffffffffffff81111561da225761da2161d7df565b5b61da2c825461d839565b61da3782828561d977565b5f60209050601f83116001811461da68575f841561da56578287015190505b61da60858261d9e5565b86555061dac7565b601f19841661da768661d869565b5f5b8281101561da9d5784890151825560018201915060208501945060208101905061da78565b8683101561daba578489015161dab6601f89168261d9c9565b8355505b6001600288020188555050505b505050505050565b7f46494e414c5f4c49515549444154494f4e5f53554343454544454400000000005f82015250565b5f61db03601b8361ce48565b915061db0e8261dacf565b602082019050919050565b5f6020820190508181035f83015261db308161daf7565b9050919050565b7f4255475f4e4f545f434f4e4649524d45440000000000000000000000000000005f82015250565b5f61db6b60118361ce48565b915061db768261db37565b602082019050919050565b5f6020820190508181035f83015261db988161db5f565b9050919050565b5f61dba98261c9b8565b915061dbb48361c9b8565b925082820190508082111561dbcc5761dbcb61cf55565b5b92915050565b7f494e53554646494349454e545f434f4c4c41544552414c5f464f525f464c41535f8201527f485f524550415900000000000000000000000000000000000000000000000000602082015250565b5f61dc2c60278361ce48565b915061dc378261dbd2565b604082019050919050565b5f6020820190508181035f83015261dc598161dc20565b9050919050565b7f53454c465f43414c4c5f4f4e4c590000000000000000000000000000000000005f82015250565b5f61dc94600e8361ce48565b915061dc9f8261dc60565b602082019050919050565b5f6020820190508181035f83015261dcc18161dc88565b9050919050565b5f60408201905061dcdb5f83018561c9c1565b61dce8602083018461c9c1565b9392505050565b7f5a45524f5f464c4153485f414d4f554e540000000000000000000000000000005f82015250565b5f61dd2360118361ce48565b915061dd2e8261dcef565b602082019050919050565b5f6020820190508181035f83015261dd508161dd17565b9050919050565b7f4241445f4445504f5349545f42505300000000000000000000000000000000005f82015250565b5f61dd8b600f8361ce48565b915061dd968261dd57565b602082019050919050565b5f6020820190508181035f83015261ddb88161dd7f565b9050919050565b7f4241445f524f55544552000000000000000000000000000000000000000000005f82015250565b5f61ddf3600a8361ce48565b915061ddfe8261ddbf565b602082019050919050565b5f6020820190508181035f83015261de208161dde7565b9050919050565b7f4241445f51554f544500000000000000000000000000000000000000000000005f82015250565b5f61de5b60098361ce48565b915061de668261de27565b602082019050919050565b5f6020820190508181035f83015261de888161de4f565b9050919050565b7f5a45524f5f45584348414e47455f5241544500000000000000000000000000005f82015250565b5f61dec360128361ce48565b915061dece8261de8f565b602082019050919050565b5f6020820190508181035f83015261def08161deb7565b9050919050565b5f61df018261ccc9565b9050919050565b61df118161def7565b82525050565b5f60a08201905061df2a5f83018861df08565b61df37602083018761ca19565b61df44604083018661ca19565b61df51606083018561c9c1565b818103608083015261df63818461cde6565b90509695505050505050565b7f504154485f494e4645415349424c455f41545f464f524b0000000000000000005f82015250565b5f61dfa360178361ce48565b915061dfae8261df6f565b602082019050919050565b5f6020820190508181035f83015261dfd08161df97565b9050919050565b5f60ff82169050919050565b5f61dffd61dff861dff38461d088565b61cc9f565b61dfd7565b9050919050565b61e00d8161dfe3565b82525050565b5f60408201905061e0265f83018561ca19565b61e033602083018461e004565b9392505050565b5f81905092915050565b5f61e04e8261cdae565b61e058818561e03a565b935061e06881856020860161cdc8565b80840191505092915050565b5f61e07f828461e044565b915081905092915050565b7f415050524f56455f52455345545f4641494c45440000000000000000000000005f82015250565b5f61e0be60148361ce48565b915061e0c98261e08a565b602082019050919050565b5f6020820190508181035f83015261e0eb8161e0b2565b9050919050565b5f60408201905061e1055f83018561ca19565b61e112602083018461c9c1565b9392505050565b7f415050524f56455f4641494c45440000000000000000000000000000000000005f82015250565b5f61e14d600e8361ce48565b915061e1588261e119565b602082019050919050565b5f6020820190508181035f83015261e17a8161e141565b9050919050565b5f61e18b8261c9b8565b91507fffffffffffffffffffffffffffffffffffffffffffffffffffffffffffffffff820361e1bd5761e1bc61cf55565b5b600182019050919050565b7f4e487b71000000000000000000000000000000000000000000000000000000005f52603260045260245ffd5b5f60608201905061e2085f83018661ca4c565b61e215602083018561e004565b61e222604083018461e004565b949350505050565b5f819050919050565b61e23c8161e22a565b82525050565b5f60408201905061e2555f83018561e233565b61e262602083018461ca19565b9392505050565b5f81519050919050565b5f82825260208201905092915050565b5f819050602082019050919050565b61e29b8161dfd7565b82525050565b5f61e2ac838361e292565b60208301905092915050565b5f602082019050919050565b5f61e2ce8261e269565b61e2d8818561e273565b935061e2e38361e283565b805f5b8381101561e31357815161e2fa888261e2a1565b975061e3058361e2b8565b92505060018101905061e2e6565b5085935050505092915050565b5f81519050919050565b5f82825260208201905092915050565b5f819050602082019050919050565b61e3528161c9b8565b82525050565b5f61e363838361e349565b60208301905092915050565b5f602082019050919050565b5f61e3858261e320565b61e38f818561e32a565b935061e39a8361e33a565b805f5b8381101561e3ca57815161e3b1888261e358565b975061e3bc8361e36f565b92505060018101905061e39d565b5085935050505092915050565b5f81519050919050565b5f82825260208201905092915050565b5f819050602082019050919050565b5f82825260208201905092915050565b5f61e41a8261cdae565b61e424818561e400565b935061e43481856020860161cdc8565b61e43d8161cdd6565b840191505092915050565b5f61e453838361e410565b905092915050565b5f602082019050919050565b5f61e4718261e3d7565b61e47b818561e3e1565b93508360208202850161e48d8561e3f1565b805f5b8581101561e4c8578484038952815161e4a9858261e448565b945061e4b48361e45b565b925060208a0199505060018101905061e490565b50829750879550505050505092915050565b5f6060820190508181035f83015261e4f2818661e2c4565b9050818103602083015261e506818561e37b565b9050818103604083015261e51a818461e467565b9050949350505050565b5f60a08201905061e5375f83018861ca19565b61e544602083018761ca19565b61e551604083018661ca19565b61e55e606083018561d0b2565b61e56b608083018461c9c1565b9695505050505050565b7f4e4f5f44554d505f42414c414e434500000000000000000000000000000000005f82015250565b5f61e5a9600f8361ce48565b915061e5b48261e575565b602082019050919050565b5f6020820190508181035f83015261e5d68161e59d565b9050919050565b7f434f4c4c41544552414c5f44554d505f535741505f4641494c454400000000005f82015250565b5f61e611601b8361ce48565b915061e61c8261e5dd565b602082019050919050565b5f6020820190508181035f83015261e63e8161e605565b9050919050565b5f5ffd5b61e6528261cdd6565b810181811067ffffffffffffffff8211171561e6715761e67061d7df565b5b80604052505050565b5f61e68361ca74565b905061e68f828261e649565b919050565b5f6fffffffffffffffffffffffffffffffff82169050919050565b61e6b88161e694565b811461e6c2575f5ffd5b50565b5f8151905061e6d38161e6af565b92915050565b5f6040828403121561e6ee5761e6ed61e645565b5b61e6f8604061e67a565b90505f61e7078482850161e6c5565b5f83015250602061e71a8482850161e6c5565b60208301525092915050565b5f6040828403121561e73b5761e73a61ca7d565b5b5f61e7488482850161e6d9565b91505092915050565b5f81519050919050565b5f82825260208201905092915050565b5f819050602082019050919050565b61e7838161ca08565b82525050565b5f61e794838361e77a565b60208301905092915050565b5f602082019050919050565b5f61e7b68261e751565b61e7c0818561e75b565b935061e7cb8361e76b565b805f5b8381101561e7fb57815161e7e2888261e789565b975061e7ed8361e7a0565b92505060018101905061e7ce565b5085935050505092915050565b5f60a0820190508181035f83015261e820818861e7ac565b9050818103602083015261e834818761e37b565b905061e843604083018661ca19565b61e850606083018561ca19565b818103608083015261e862818461cde6565b90509695505050505050565b5f5f6040838503121561e8845761e88361ca7d565b5b5f61e8918582860161e6c5565b925050602061e8a28582860161e6c5565b9150509250929050565b5f61e8b68261c9b8565b915061e8c18361c9b8565b92508261e8d15761e8d061cfc3565b5b828206905092915050565b7f5452414e534645525f4641494c454400000000000000000000000000000000005f82015250565b5f61e910600f8361ce48565b915061e91b8261e8dc565b602082019050919050565b5f6020820190508181035f83015261e93d8161e904565b9050919050565b61e94d8161cd13565b82525050565b5f60808201905061e9665f83018761c9c1565b61e973602083018661e944565b61e980604083018561ca19565b61e98d606083018461ca19565b95945050505050565b5f60608201905061e9a95f83018661ca19565b61e9b6602083018561c9c1565b61e9c3604083018461ca4c565b949350505050565b5f60408201905061e9de5f83018561c9c1565b61e9eb602083018461ca19565b9392505050565b5f60a08201905061ea055f83018861c9c1565b61ea12602083018761d0b2565b818103604083015261ea24818661e7ac565b905061ea33606083018561ca19565b61ea40608083018461c9c1565b9695505050505050565b5f67ffffffffffffffff82111561ea645761ea6361d7df565b5b602082029050602081019050919050565b5f61ea8761ea828461ea4a565b61e67a565b9050808382526020820190506020840283018581111561eaaa5761eaa961cb1c565b5b835b8181101561ead3578061eabf888261ceef565b84526020840193505060208101905061eaac565b5050509392505050565b5f82601f83011261eaf15761eaf061cb14565b5b815161eb0184826020860161ea75565b91505092915050565b5f6020828403121561eb1f5761eb1e61ca7d565b5b5f82015167ffffffffffffffff81111561eb3c5761eb3b61ca81565b5b61eb488482850161eadd565b91505092915050565b5f60029050919050565b5f81905092915050565b5f819050919050565b5f602082019050919050565b61eb838161eb51565b61eb8d818461eb5b565b925061eb988261eb65565b805f5b8381101561ebc857815161ebaf878261e358565b965061ebba8361eb6e565b92505060018101905061eb9b565b505050505050565b5f60608201905061ebe35f83018561eb7a565b61ebf0604083018461e004565b9392505050565b5f60039050919050565b5f81905092915050565b5f819050919050565b5f602082019050919050565b61ec298161ebf7565b61ec33818461ec01565b925061ec3e8261ec0b565b805f5b8381101561ec6e57815161ec55878261e358565b965061ec608361ec14565b92505060018101905061ec41565b505050505050565b5f60808201905061ec895f83018561ec20565b61ec96606083018461e004565b9392505050565b5f60049050919050565b5f81905092915050565b5f819050919050565b5f602082019050919050565b61eccf8161ec9d565b61ecd9818461eca7565b925061ece48261ecb1565b805f5b8381101561ed1457815161ecfb878261e358565b965061ed068361ecba565b92505060018101905061ece7565b505050505050565b5f60a08201905061ed2f5f83018561ecc6565b61ed3c608083018461e004565b9392505050565b5f60059050919050565b5f81905092915050565b5f819050919050565b5f602082019050919050565b61ed758161ed43565b61ed7f818461ed4d565b925061ed8a8261ed57565b805f5b8381101561edba57815161eda1878261e358565b965061edac8361ed60565b92505060018101905061ed8d565b505050505050565b5f60c08201905061edd55f83018561ed6c565b61ede260a083018461e004565b9392505050565b5f61edf38261c9e9565b9050919050565b61ee038161ede9565b811461ee0d575f5ffd5b50565b5f8151905061ee1e8161edfa565b92915050565b5f6020828403121561ee395761ee3861ca7d565b5b5f61ee468482850161ee10565b91505092915050565b5f60408201905061ee625f83018561c9c1565b61ee6f602083018461ca4c565b9392505050565b5f60608201905061ee895f83018661c9c1565b61ee96602083018561ca19565b61eea3604083018461ca19565b949350505050565b5f81600f0b9050919050565b61eec08161eeab565b82525050565b5f60608201905061eed95f83018661c9c1565b61eee6602083018561eeb7565b61eef3604083018461e004565b949350505050565b5f60608201905061ef0e5f83018661c9c1565b61ef1b602083018561c9c1565b61ef28604083018461e004565b949350505050565b5f60808201905061ef435f83018761c9c1565b61ef50602083018661eeb7565b61ef5d604083018561e004565b61ef6a606083018461ca4c565b9594505050505056fe636f6c6c61746572616c5368617265203e2075736572436f6c6c61746572616c53686172655b757365725d75736572436f6c6c61746572616c53686172655b757365725d2e73756228636f6c6c61746572616c536861726529a2646970667358221220813c339f24ab50e502903534b5ab5d214a6e196dca9e0b04db7d21297031516964736f6c634300081e0033","linkReferences":{}},"methodIdentifiers":{"DAI()":"e0bab4c4","MIM()":"daec383d","PATH_2_OVERFLOW_ANCHOR()":"fd858160","PATH_2_SUBTRACTION_ANCHOR()":"ff6ff998","SUSHI_ROUTER()":"0c24f4fa","TARGET()":"cc1f2afa","TARGET_CAULDRON()":"bd7a598c","UNISWAP_V2_ROUTER()":"a82ed9ec","USDC()":"89a30271","USDT()":"c54e44eb","WBTC()":"4dede3de","WETH()":"ad5c4648","attemptFinalLiquidation()":"9ad18f63","badDebtLocked()":"1bfc281c","borrowedAmount()":"1afbb7a4","borrowedPart()":"b0b62eeb","borrowedShare()":"52d11fb4","bugConfirmed()":"cf3c6f32","collateralToken()":"b2016bd4","convexDepositToken()":"5eb143ce","curveLpToken()":"646780df","curvePool()":"218751b2","depositedAmount()":"1d01364c","depositedShare()":"c4f0d1c6","dumpAsset()":"c288eaec","dumpRouter()":"ab9888e6","dumpedForPriceImpact()":"7eb37bc9","exchangeRateAfterDump()":"04c56a86","exchangeRateBefore()":"e0831335","execute()":"61461954","executeOnOpportunity()":"3c2448ed","executeStrategy(uint256,uint16,address,address)":"d76a31db","executeTo(address)":"ada2c46d","executeWithFlashAmount(uint256)":"f798d20b","exploit()":"63d9b770","finalLiquidationRevertData()":"d9e835d6","finalLiquidationReverted()":"c416940b","flashAmount()":"b570137a","flashFee()":"e07df5b4","fullLiquidationShareNeeded()":"e2678cc2","hypothesisValidated()":"463defd1","insolventAfterDump()":"11f7cc62","lastAttemptRevertData()":"fdc0fe37","lastBorrowAmount()":"ca8ccab6","lastBorrowPart()":"a6e59f53","lastProfitAmount()":"6dcb9575","lastProfitToken()":"6236fa78","onFlashLoan(address,address,uint256,uint256,bytes)":"23e30c8b","partialLiquidationExecuted()":"3c012277","positionCreated()":"a66f4e45","previewBorrowAmount()":"97f37399","previewCollateralToken()":"95c7775e","previewFlashAmount()":"0a2ad983","previewProfitToken()":"fe87c375","probeBorrow(uint256)":"4ee8f105","probeLiquidation(uint256)":"be459c2a","profitAmount()":"5ff972cc","quoteAsset()":"fdf262b7","remainingBorrowPart()":"75ed2c0a","remainingCollateralShare()":"ac7e101f","requiredCollateralShareForFullDebtAfterDump()":"000393fc","requiredCollateralShareForRemainingDebt()":"d7c564f6","residualDebtIsUnderwater()":"6d8c21a8","run()":"c0406226","safePartialBorrowPart()":"e7bda234","sweep(address,address)":"b8dc491b","underlyingToken()":"2495a599"},"id":0}