{"abi":[{"type":"constructor","inputs":[],"stateMutability":"nonpayable"},{"type":"receive","stateMutability":"payable"},{"type":"function","name":"TARGET","inputs":[],"outputs":[{"name":"","type":"address","internalType":"contract ILuckyTiger"}],"stateMutability":"view"},{"type":"function","name":"WETH","inputs":[],"outputs":[{"name":"","type":"address","internalType":"contract IWETH9"}],"stateMutability":"view"},{"type":"function","name":"discoveredVictim","inputs":[],"outputs":[{"name":"","type":"address","internalType":"address"}],"stateMutability":"view"},{"type":"function","name":"executeOnOpportunity","inputs":[],"outputs":[],"stateMutability":"nonpayable"},{"type":"function","name":"hypothesisValidated","inputs":[],"outputs":[{"name":"","type":"bool","internalType":"bool"}],"stateMutability":"view"},{"type":"function","name":"mintedTokenId","inputs":[],"outputs":[{"name":"","type":"uint256","internalType":"uint256"}],"stateMutability":"view"},{"type":"function","name":"onERC721Received","inputs":[{"name":"","type":"address","internalType":"address"},{"name":"","type":"address","internalType":"address"},{"name":"","type":"uint256","internalType":"uint256"},{"name":"","type":"bytes","internalType":"bytes"}],"outputs":[{"name":"","type":"bytes4","internalType":"bytes4"}],"stateMutability":"pure"},{"type":"function","name":"profitAmount","inputs":[],"outputs":[{"name":"","type":"uint256","internalType":"uint256"}],"stateMutability":"view"},{"type":"function","name":"profitToken","inputs":[],"outputs":[{"name":"","type":"address","internalType":"address"}],"stateMutability":"pure"},{"type":"error","name":"MintNotAssignedToAttacker","inputs":[{"name":"tokenId","type":"uint256","internalType":"uint256"}]},{"type":"error","name":"WhitelistNotConsumed","inputs":[{"name":"victim","type":"address","internalType":"address"}]}],"bytecode":{"object":"0x6080604052348015600e575f5ffd5b506113b88061001c5f395ff3fe608060405260043610610089575f3560e01c80635ff972cc116100585780635ff972cc1461013a57806372c6017214610164578063ad5c46481461018e578063cc1f2afa146101b8578063fabae3eb146101e257610090565b8063150b7a02146100945780633c2448ed146100d0578063463defd1146100e6578063493436241461011057610090565b3661009057005b5f5ffd5b34801561009f575f5ffd5b506100ba60048036038101906100b59190610f74565b61020c565b6040516100c79190611032565b60405180910390f35b3480156100db575f5ffd5b506100e4610220565b005b3480156100f1575f5ffd5b506100fa6107ff565b6040516101079190611065565b60405180910390f35b34801561011b575f5ffd5b50610124610811565b604051610131919061108d565b60405180910390f35b348015610145575f5ffd5b5061014e61082c565b60405161015b91906110b5565b60405180910390f35b34801561016f575f5ffd5b50610178610835565b604051610185919061108d565b60405180910390f35b348015610199575f5ffd5b506101a2610859565b6040516101af9190611129565b60405180910390f35b3480156101c3575f5ffd5b506101cc610871565b6040516101d99190611162565b60405180910390f35b3480156101ed575f5ffd5b506101f6610889565b60405161020391906110b5565b60405180910390f35b5f63150b7a0260e01b905095945050505050565b739c87a5726e98f2f404cdd8ac8968e9b2c80c096773ffffffffffffffffffffffffffffffffffffffff1663cd85cdb56040518163ffffffff1660e01b8152600401602060405180830381865afa15801561027d573d5f5f3e3d5ffd5b505050506040513d601f19601f820116820180604052508101906102a191906111a5565b6107fd575f739c87a5726e98f2f404cdd8ac8968e9b2c80c096773ffffffffffffffffffffffffffffffffffffffff166318160ddd6040518163ffffffff1660e01b8152600401602060405180830381865afa158015610303573d5f5f3e3d5ffd5b505050506040513d601f19601f8201168201806040525081019061032791906111e4565b9050739c87a5726e98f2f404cdd8ac8968e9b2c80c096773ffffffffffffffffffffffffffffffffffffffff1663648e3c266040518163ffffffff1660e01b8152600401602060405180830381865afa158015610386573d5f5f3e3d5ffd5b505050506040513d601f19601f820116820180604052508101906103aa91906111e4565b81106103b657506107fd565b5f73c02aaa39b223fe8d0a0e5c4f27ead9083c756cc273ffffffffffffffffffffffffffffffffffffffff166370a08231306040518263ffffffff1660e01b8152600401610404919061108d565b602060405180830381865afa15801561041f573d5f5f3e3d5ffd5b505050506040513d601f19601f8201168201806040525081019061044391906111e4565b90505f600183610453919061123c565b90505f61045f8461088f565b90505f73ffffffffffffffffffffffffffffffffffffffff168173ffffffffffffffffffffffffffffffffffffffff160361049d57505050506107fd565b805f5f6101000a81548173ffffffffffffffffffffffffffffffffffffffff021916908373ffffffffffffffffffffffffffffffffffffffff160217905550739c87a5726e98f2f404cdd8ac8968e9b2c80c096773ffffffffffffffffffffffffffffffffffffffff1663fa07ce1d826040518263ffffffff1660e01b8152600401610529919061108d565b5f604051808303815f87803b158015610540575f5ffd5b505af1158015610552573d5f5f3e3d5ffd5b505050503073ffffffffffffffffffffffffffffffffffffffff16739c87a5726e98f2f404cdd8ac8968e9b2c80c096773ffffffffffffffffffffffffffffffffffffffff16636352211e846040518263ffffffff1660e01b81526004016105ba91906110b5565b602060405180830381865afa1580156105d5573d5f5f3e3d5ffd5b505050506040513d601f19601f820116820180604052508101906105f99190611283565b73ffffffffffffffffffffffffffffffffffffffff161461065157816040517f6b12a7dc00000000000000000000000000000000000000000000000000000000815260040161064891906110b5565b60405180910390fd5b739c87a5726e98f2f404cdd8ac8968e9b2c80c096773ffffffffffffffffffffffffffffffffffffffff1663f99031a7826040518263ffffffff1660e01b815260040161069e919061108d565b602060405180830381865afa1580156106b9573d5f5f3e3d5ffd5b505050506040513d601f19601f820116820180604052508101906106dd91906111a5565b1561071f57806040517fca088ca4000000000000000000000000000000000000000000000000000000008152600401610716919061108d565b60405180910390fd5b81600181905550600160035f6101000a81548160ff021916908315150217905550610748610caf565b5f73c02aaa39b223fe8d0a0e5c4f27ead9083c756cc273ffffffffffffffffffffffffffffffffffffffff166370a08231306040518263ffffffff1660e01b8152600401610796919061108d565b602060405180830381865afa1580156107b1573d5f5f3e3d5ffd5b505050506040513d601f19601f820116820180604052508101906107d591906111e4565b90508381116107e4575f6107f1565b83816107f091906112ae565b5b60028190555050505050505b565b60035f9054906101000a900460ff1681565b5f73c02aaa39b223fe8d0a0e5c4f27ead9083c756cc2905090565b5f600254905090565b5f5f9054906101000a900473ffffffffffffffffffffffffffffffffffffffff1681565b73c02aaa39b223fe8d0a0e5c4f27ead9083c756cc281565b739c87a5726e98f2f404cdd8ac8968e9b2c80c096781565b60015481565b5f5f6040518060800160405280739c87a5726e98f2f404cdd8ac8968e9b2c80c096773ffffffffffffffffffffffffffffffffffffffff16638da5cb5b6040518163ffffffff1660e01b8152600401602060405180830381865afa1580156108f9573d5f5f3e3d5ffd5b505050506040513d601f19601f8201168201806040525081019061091d9190611283565b73ffffffffffffffffffffffffffffffffffffffff1673ffffffffffffffffffffffffffffffffffffffff168152602001739c87a5726e98f2f404cdd8ac8968e9b2c80c096773ffffffffffffffffffffffffffffffffffffffff16631581b6006040518163ffffffff1660e01b8152600401602060405180830381865afa1580156109ab573d5f5f3e3d5ffd5b505050506040513d601f19601f820116820180604052508101906109cf9190611283565b73ffffffffffffffffffffffffffffffffffffffff1673ffffffffffffffffffffffffffffffffffffffff168152602001739c87a5726e98f2f404cdd8ac8968e9b2c80c096773ffffffffffffffffffffffffffffffffffffffff1673ffffffffffffffffffffffffffffffffffffffff1681526020013073ffffffffffffffffffffffffffffffffffffffff1673ffffffffffffffffffffffffffffffffffffffff1681525090505f5f90505b6004811015610ad957610aa6828260048110610a9c57610a9b6112e1565b5b6020020151610d30565b15610acc57818160048110610abe57610abd6112e1565b5b602002015192505050610caa565b8080600101915050610a7d565b505f8367ffffffffffffffff811115610af557610af461130e565b5b604051908082528060200260200182016040528015610b235781602001602082028036833780820191505090505b5090505f5f600190505b858111610ca2575f739c87a5726e98f2f404cdd8ac8968e9b2c80c096773ffffffffffffffffffffffffffffffffffffffff16636352211e836040518263ffffffff1660e01b8152600401610b8291906110b5565b602060405180830381865afa925050508015610bbc57506040513d601f19601f82011682018060405250810190610bb99190611283565b60015b610bc65750610c8f565b809150505f73ffffffffffffffffffffffffffffffffffffffff168173ffffffffffffffffffffffffffffffffffffffff161480610c0b5750610c0a848483610e00565b5b15610c165750610c8f565b80848481518110610c2a57610c296112e1565b5b602002602001019073ffffffffffffffffffffffffffffffffffffffff16908173ffffffffffffffffffffffffffffffffffffffff16815250508280610c6f9061133b565b935050610c7b81610d30565b15610c8d578095505050505050610caa565b505b8080610c9a9061133b565b915050610b2d565b505f93505050505b919050565b5f4790505f811115610d2d5773c02aaa39b223fe8d0a0e5c4f27ead9083c756cc273ffffffffffffffffffffffffffffffffffffffff1663d0e30db0826040518263ffffffff1660e01b81526004015f604051808303818588803b158015610d15575f5ffd5b505af1158015610d27573d5f5f3e3d5ffd5b50505050505b50565b5f5f73ffffffffffffffffffffffffffffffffffffffff168273ffffffffffffffffffffffffffffffffffffffff1603610d6c575f9050610dfb565b739c87a5726e98f2f404cdd8ac8968e9b2c80c096773ffffffffffffffffffffffffffffffffffffffff1663f99031a7836040518263ffffffff1660e01b8152600401610db9919061108d565b602060405180830381865afa158015610dd4573d5f5f3e3d5ffd5b505050506040513d601f19601f82011682018060405250810190610df891906111a5565b90505b919050565b5f5f5f90505b83811015610e72578273ffffffffffffffffffffffffffffffffffffffff16858281518110610e3857610e376112e1565b5b602002602001015173ffffffffffffffffffffffffffffffffffffffff1603610e65576001915050610e77565b8080600101915050610e06565b505f90505b9392505050565b5f5ffd5b5f5ffd5b5f73ffffffffffffffffffffffffffffffffffffffff82169050919050565b5f610eaf82610e86565b9050919050565b610ebf81610ea5565b8114610ec9575f5ffd5b50565b5f81359050610eda81610eb6565b92915050565b5f819050919050565b610ef281610ee0565b8114610efc575f5ffd5b50565b5f81359050610f0d81610ee9565b92915050565b5f5ffd5b5f5ffd5b5f5ffd5b5f5f83601f840112610f3457610f33610f13565b5b8235905067ffffffffffffffff811115610f5157610f50610f17565b5b602083019150836001820283011115610f6d57610f6c610f1b565b5b9250929050565b5f5f5f5f5f60808688031215610f8d57610f8c610e7e565b5b5f610f9a88828901610ecc565b9550506020610fab88828901610ecc565b9450506040610fbc88828901610eff565b935050606086013567ffffffffffffffff811115610fdd57610fdc610e82565b5b610fe988828901610f1f565b92509250509295509295909350565b5f7fffffffff0000000000000000000000000000000000000000000000000000000082169050919050565b61102c81610ff8565b82525050565b5f6020820190506110455f830184611023565b92915050565b5f8115159050919050565b61105f8161104b565b82525050565b5f6020820190506110785f830184611056565b92915050565b61108781610ea5565b82525050565b5f6020820190506110a05f83018461107e565b92915050565b6110af81610ee0565b82525050565b5f6020820190506110c85f8301846110a6565b92915050565b5f819050919050565b5f6110f16110ec6110e784610e86565b6110ce565b610e86565b9050919050565b5f611102826110d7565b9050919050565b5f611113826110f8565b9050919050565b61112381611109565b82525050565b5f60208201905061113c5f83018461111a565b92915050565b5f61114c826110f8565b9050919050565b61115c81611142565b82525050565b5f6020820190506111755f830184611153565b92915050565b6111848161104b565b811461118e575f5ffd5b50565b5f8151905061119f8161117b565b92915050565b5f602082840312156111ba576111b9610e7e565b5b5f6111c784828501611191565b91505092915050565b5f815190506111de81610ee9565b92915050565b5f602082840312156111f9576111f8610e7e565b5b5f611206848285016111d0565b91505092915050565b7f4e487b71000000000000000000000000000000000000000000000000000000005f52601160045260245ffd5b5f61124682610ee0565b915061125183610ee0565b92508282019050808211156112695761126861120f565b5b92915050565b5f8151905061127d81610eb6565b92915050565b5f6020828403121561129857611297610e7e565b5b5f6112a58482850161126f565b91505092915050565b5f6112b882610ee0565b91506112c383610ee0565b92508282039050818111156112db576112da61120f565b5b92915050565b7f4e487b71000000000000000000000000000000000000000000000000000000005f52603260045260245ffd5b7f4e487b71000000000000000000000000000000000000000000000000000000005f52604160045260245ffd5b5f61134582610ee0565b91507fffffffffffffffffffffffffffffffffffffffffffffffffffffffffffffffff82036113775761137661120f565b5b60018201905091905056fea26469706673582212202f7c5a3592ca05b43a1d07f6ab1e2f6a825cce9a0698608f6f8899f7e46a675e64736f6c634300081e0033","linkReferences":{}},"methodIdentifiers":{"TARGET()":"cc1f2afa","WETH()":"ad5c4648","discoveredVictim()":"72c60172","executeOnOpportunity()":"3c2448ed","hypothesisValidated()":"463defd1","mintedTokenId()":"fabae3eb","onERC721Received(address,address,uint256,bytes)":"150b7a02","profitAmount()":"5ff972cc","profitToken()":"49343624"},"id":2}