{"abi":[{"type":"constructor","inputs":[],"stateMutability":"nonpayable"},{"type":"function","name":"ShibaSwapCall","inputs":[{"name":"sender","type":"address","internalType":"address"},{"name":"amount0","type":"uint256","internalType":"uint256"},{"name":"amount1","type":"uint256","internalType":"uint256"},{"name":"","type":"bytes","internalType":"bytes"}],"outputs":[],"stateMutability":"nonpayable"},{"type":"function","name":"executeOnOpportunity","inputs":[],"outputs":[],"stateMutability":"nonpayable"},{"type":"function","name":"profitAmount","inputs":[],"outputs":[{"name":"","type":"uint256","internalType":"uint256"}],"stateMutability":"view"},{"type":"function","name":"profitToken","inputs":[],"outputs":[{"name":"","type":"address","internalType":"address"}],"stateMutability":"view"},{"type":"function","name":"sushiCall","inputs":[{"name":"sender","type":"address","internalType":"address"},{"name":"amount0","type":"uint256","internalType":"uint256"},{"name":"amount1","type":"uint256","internalType":"uint256"},{"name":"","type":"bytes","internalType":"bytes"}],"outputs":[],"stateMutability":"nonpayable"},{"type":"function","name":"uniswapV2Call","inputs":[{"name":"sender","type":"address","internalType":"address"},{"name":"amount0","type":"uint256","internalType":"uint256"},{"name":"amount1","type":"uint256","internalType":"uint256"},{"name":"","type":"bytes","internalType":"bytes"}],"outputs":[],"stateMutability":"nonpayable"}],"bytecode":{"object":"0x6080604052348015600e575f5ffd5b506127f78061001c5f395ff3fe608060405234801561000f575f5ffd5b506004361061005f575f3560e01c80629914031461006357806310d1e85c1461007f5780633c2448ed1461009b57806349343624146100a55780635ff972cc146100c3578063ac79e296146100e1575b5f5ffd5b61007d60048036038101906100789190611d6b565b6100fd565b005b61009960048036038101906100949190611d6b565b61010f565b005b6100a3610121565b005b6100ad610357565b6040516100ba9190611dfe565b60405180910390f35b6100cb6103e1565b6040516100d89190611e26565b60405180910390f35b6100fb60048036038101906100f69190611d6b565b6103ea565b005b6101088585856103fc565b5050505050565b61011a8585856103fc565b5050505050565b60025f9054906101000a900460ff1661035557600160025f6101000a81548160ff0219169083151502179055505f6101576109a8565b9050805f5f6101000a81548173ffffffffffffffffffffffffffffffffffffffff021916908373ffffffffffffffffffffffffffffffffffffffff1602179055505f73ffffffffffffffffffffffffffffffffffffffff168173ffffffffffffffffffffffffffffffffffffffff16036101d15750610355565b5f5f5f6101dc610a0d565b9250925092508215806101ee57505f81145b156101fc5750505050610355565b816003819055505f8473ffffffffffffffffffffffffffffffffffffffff166370a08231306040518263ffffffff1660e01b815260040161023d9190611dfe565b602060405180830381865afa158015610258573d5f5f3e3d5ffd5b505050506040513d601f19601f8201168201806040525081019061027c9190611e53565b90505f8111156102a157610291858483610b11565b6001819055505050505050610355565b5f8573ffffffffffffffffffffffffffffffffffffffff166370a0823173a1ce40702e15d0417a6c74d0bab96772f36f4e996040518263ffffffff1660e01b81526004016102ef9190611dfe565b602060405180830381865afa15801561030a573d5f5f3e3d5ffd5b505050506040513d601f19601f8201168201806040525081019061032e9190611e53565b90505f810361034257505050505050610355565b61034e86858584610d1d565b5050505050505b565b5f5f73ffffffffffffffffffffffffffffffffffffffff165f5f9054906101000a900473ffffffffffffffffffffffffffffffffffffffff1673ffffffffffffffffffffffffffffffffffffffff16146103d3575f5f9054906101000a900473ffffffffffffffffffffffffffffffffffffffff1690506103de565b6103db610ecf565b90505b90565b5f600154905090565b6103f58585856103fc565b5050505050565b600260019054906101000a900473ffffffffffffffffffffffffffffffffffffffff1673ffffffffffffffffffffffffffffffffffffffff163373ffffffffffffffffffffffffffffffffffffffff161461048c576040517f08c379a000000000000000000000000000000000000000000000000000000000815260040161048390611ed8565b60405180910390fd5b3073ffffffffffffffffffffffffffffffffffffffff168373ffffffffffffffffffffffffffffffffffffffff16146104fa576040517f08c379a00000000000000000000000000000000000000000000000000000000081526004016104f190611f40565b60405180910390fd5b5f5f5f9054906101000a900473ffffffffffffffffffffffffffffffffffffffff1690505f5f841161052c578261052e565b835b90505f61053a82610fe7565b90505f8373ffffffffffffffffffffffffffffffffffffffff166370a08231306040518263ffffffff1660e01b81526004016105769190611dfe565b602060405180830381865afa158015610591573d5f5f3e3d5ffd5b505050506040513d601f19601f820116820180604052508101906105b59190611e53565b90505f81116105f9576040517f08c379a00000000000000000000000000000000000000000000000000000000081526004016105f090611fa8565b60405180910390fd5b6106188473a1ce40702e15d0417a6c74d0bab96772f36f4e995f611016565b6106378473a1ce40702e15d0417a6c74d0bab96772f36f4e9983611016565b73a1ce40702e15d0417a6c74d0bab96772f36f4e9973ffffffffffffffffffffffffffffffffffffffff16637b0472f0600354836040518363ffffffff1660e01b8152600401610688929190611fc6565b5f604051808303815f87803b15801561069f575f5ffd5b505af11580156106b1573d5f5f3e3d5ffd5b505050505f73a1ce40702e15d0417a6c74d0bab96772f36f4e9973ffffffffffffffffffffffffffffffffffffffff1663b1427ac1600354305f6040518463ffffffff1660e01b81526004016107099392919061202f565b606060405180830381865afa158015610724573d5f5f3e3d5ffd5b505050506040513d601f19601f820116820180604052508101906107489190612064565b505090505f811161078e576040517f08c379a0000000000000000000000000000000000000000000000000000000008152600401610785906120fe565b60405180910390fd5b5f73a1ce40702e15d0417a6c74d0bab96772f36f4e9973ffffffffffffffffffffffffffffffffffffffff1663b16206166003546040518263ffffffff1660e01b81526004016107de9190611e26565b60a060405180830381865afa1580156107f9573d5f5f3e3d5ffd5b505050506040513d601f19601f8201168201806040525081019061081d9190612151565b50509250505061083286600354848488611165565b505f8673ffffffffffffffffffffffffffffffffffffffff166370a08231306040518263ffffffff1660e01b815260040161086d9190611dfe565b602060405180830381865afa158015610888573d5f5f3e3d5ffd5b505050506040513d601f19601f820116820180604052508101906108ac9190611e53565b9050848110156108f1576040517f08c379a00000000000000000000000000000000000000000000000000000000081526004016108e890612212565b60405180910390fd5b61091e87600260019054906101000a900473ffffffffffffffffffffffffffffffffffffffff16876114fc565b8673ffffffffffffffffffffffffffffffffffffffff166370a08231306040518263ffffffff1660e01b81526004016109579190611dfe565b602060405180830381865afa158015610972573d5f5f3e3d5ffd5b505050506040513d601f19601f820116820180604052508101906109969190611e53565b60018190555050505050505050505050565b5f5f5f9054906101000a900473ffffffffffffffffffffffffffffffffffffffff1690505f73ffffffffffffffffffffffffffffffffffffffff168173ffffffffffffffffffffffffffffffffffffffff1603610a0a57610a07610ecf565b90505b90565b5f5f5f5f600490505b5f811115610b01575f5f73a1ce40702e15d0417a6c74d0bab96772f36f4e9973ffffffffffffffffffffffffffffffffffffffff1663b1620616600185610a5d919061225d565b6040518263ffffffff1660e01b8152600401610a799190611e26565b60a060405180830381865afa158015610a94573d5f5f3e3d5ffd5b505050506040513d601f19601f82011682018060405250810190610ab89190612151565b9450509350505080158015610acc57505f82115b15610aee5760018084610adf919061225d565b83955095509550505050610b0c565b505080610afa90612290565b9050610a16565b505f5f5f9250925092505b909192565b5f610b318473a1ce40702e15d0417a6c74d0bab96772f36f4e995f611016565b610b508473a1ce40702e15d0417a6c74d0bab96772f36f4e9984611016565b73a1ce40702e15d0417a6c74d0bab96772f36f4e9973ffffffffffffffffffffffffffffffffffffffff16637b0472f084846040518363ffffffff1660e01b8152600401610b9f929190611fc6565b5f604051808303815f87803b158015610bb6575f5ffd5b505af1158015610bc8573d5f5f3e3d5ffd5b505050505f73a1ce40702e15d0417a6c74d0bab96772f36f4e9973ffffffffffffffffffffffffffffffffffffffff1663b1427ac185305f6040518463ffffffff1660e01b8152600401610c1e9392919061202f565b606060405180830381865afa158015610c39573d5f5f3e3d5ffd5b505050506040513d601f19601f82011682018060405250810190610c5d9190612064565b505090505f8103610c71575f915050610d16565b5f73a1ce40702e15d0417a6c74d0bab96772f36f4e9973ffffffffffffffffffffffffffffffffffffffff1663b1620616866040518263ffffffff1660e01b8152600401610cbf9190611e26565b60a060405180830381865afa158015610cda573d5f5f3e3d5ffd5b505050506040513d601f19601f82011682018060405250810190610cfe9190612151565b505092505050610d11868684845f611165565b925050505b9392505050565b5f610d2983600161164b565b90505f610d37848385611711565b90505f8103610d47575050610ec9565b5f5f5f610d548985611769565b9250925092505f73ffffffffffffffffffffffffffffffffffffffff168373ffffffffffffffffffffffffffffffffffffffff161480610d9357505f82145b15610da2575050505050610ec9565b82600260016101000a81548173ffffffffffffffffffffffffffffffffffffffff021916908373ffffffffffffffffffffffffffffffffffffffff1602179055508015610e58578273ffffffffffffffffffffffffffffffffffffffff1663022c0d9f835f306040518463ffffffff1660e01b8152600401610e2693929190612311565b5f604051808303815f87803b158015610e3d575f5ffd5b505af1158015610e4f573d5f5f3e3d5ffd5b50505050610ec3565b8273ffffffffffffffffffffffffffffffffffffffff1663022c0d9f5f84306040518463ffffffff1660e01b8152600401610e9593929190612359565b5f604051808303815f87803b158015610eac575f5ffd5b505af1158015610ebe573d5f5f3e3d5ffd5b505050505b50505050505b50505050565b5f5f5f73a1ce40702e15d0417a6c74d0bab96772f36f4e9973ffffffffffffffffffffffffffffffffffffffff166372f702f360e01b604051602401604051602081830303815290604052907bffffffffffffffffffffffffffffffffffffffffffffffffffffffff19166020820180517bffffffffffffffffffffffffffffffffffffffffffffffffffffffff8381831617835250505050604051610f7591906123f3565b5f60405180830381855afa9150503d805f8114610fad576040519150601f19603f3d011682016040523d82523d5f602084013e610fb2565b606091505b5091509150818015610fc657506020815110155b15610fe25780806020019051810190610fdf9190612444565b92505b505090565b5f60016103e56103e884610ffb919061246f565b61100591906124dd565b61100f919061250d565b9050919050565b5f5f8473ffffffffffffffffffffffffffffffffffffffff1663095ea7b360e01b858560405160240161104a929190612540565b604051602081830303815290604052907bffffffffffffffffffffffffffffffffffffffffffffffffffffffff19166020820180517bffffffffffffffffffffffffffffffffffffffffffffffffffffffff83818316178352505050506040516110b491906123f3565b5f604051808303815f865af19150503d805f81146110ed576040519150601f19603f3d011682016040523d82523d5f602084013e6110f2565b606091505b509150915081801561111f57505f8151148061111e57508080602001905181019061111d9190612567565b5b5b61115e576040517f08c379a0000000000000000000000000000000000000000000000000000000008152600401611155906125dc565b60405180910390fd5b5050505050565b5f5f6127108486611176919061246f565b61118091906124dd565b90505f8103611192575f9150506114f3565b5f818873ffffffffffffffffffffffffffffffffffffffff166370a0823173a1ce40702e15d0417a6c74d0bab96772f36f4e996040518263ffffffff1660e01b81526004016111e19190611dfe565b602060405180830381865afa1580156111fc573d5f5f3e3d5ffd5b505050506040513d601f19601f820116820180604052508101906112209190611e53565b61122a91906124dd565b90505f810361123d575f925050506114f3565b5f61124a865f871161164b565b90508082101561125f575f93505050506114f3565b5f8290506102008111156112735761020090505b8181101561127f578190505b5f5f90505b818110156114ed575f8b73ffffffffffffffffffffffffffffffffffffffff166370a08231306040518263ffffffff1660e01b81526004016112c69190611dfe565b602060405180830381865afa1580156112e1573d5f5f3e3d5ffd5b505050506040513d601f19601f820116820180604052508101906113059190611e53565b90505f73a1ce40702e15d0417a6c74d0bab96772f36f4e9973ffffffffffffffffffffffffffffffffffffffff166301b50d5360e01b8d600a60405160240161134f929190611fc6565b604051602081830303815290604052907bffffffffffffffffffffffffffffffffffffffffffffffffffffffff19166020820180517bffffffffffffffffffffffffffffffffffffffffffffffffffffffff83818316178352505050506040516113b991906123f3565b5f604051808303815f865af19150503d805f81146113f2576040519150601f19603f3d011682016040523d82523d5f602084013e6113f7565b606091505b50509050806114075750506114ed565b5f8d73ffffffffffffffffffffffffffffffffffffffff166370a08231306040518263ffffffff1660e01b81526004016114419190611dfe565b602060405180830381865afa15801561145c573d5f5f3e3d5ffd5b505050506040513d601f19601f820116820180604052508101906114809190611e53565b9050828111611491575050506114ed565b828161149d919061225d565b896114a8919061250d565b98505f8a1180156114b95750898110155b80156114d2575060026001856114cf919061250d565b10155b156114df575050506114ed565b505050806001019050611284565b50505050505b95945050505050565b5f5f8473ffffffffffffffffffffffffffffffffffffffff1663a9059cbb60e01b8585604051602401611530929190612540565b604051602081830303815290604052907bffffffffffffffffffffffffffffffffffffffffffffffffffffffff19166020820180517bffffffffffffffffffffffffffffffffffffffffffffffffffffffff838183161783525050505060405161159a91906123f3565b5f604051808303815f865af19150503d805f81146115d3576040519150601f19603f3d011682016040523d82523d5f602084013e6115d8565b606091505b509150915081801561160557505f815114806116045750808060200190518101906116039190612567565b5b5b611644576040517f08c379a000000000000000000000000000000000000000000000000000000000815260040161163b90612644565b60405180910390fd5b5050505050565b5f5f6064600a606461165d919061225d565b85611668919061246f565b61167291906124dd565b90505f81036116a4577fffffffffffffffffffffffffffffffffffffffffffffffffffffffffffffffff91505061170b565b5f600290508315611705575f6001836103e56116c0919061246f565b629896806116ce919061250d565b6116d8919061225d565b90505f836103e56116e9919061246f565b826116f491906124dd565b905082811115611702578092505b50505b80925050505b92915050565b5f5f848461171f919061246f565b905061271081116117335782915050611762565b5f61271082611742919061225d565b90508061271085611753919061246f565b61175d91906124dd565b925050505b9392505050565b5f5f5f5f6040518060600160405280735c69bee701ef814a2b6a3edd4b1652cb9cc5aa6f73ffffffffffffffffffffffffffffffffffffffff1673ffffffffffffffffffffffffffffffffffffffff16815260200173c0aee478e3658e2610c5f7a4a2e1777ce9e4f2ac73ffffffffffffffffffffffffffffffffffffffff1673ffffffffffffffffffffffffffffffffffffffff16815260200173115934131916c8b277dd010ee02de363c09d037c73ffffffffffffffffffffffffffffffffffffffff1673ffffffffffffffffffffffffffffffffffffffff1681525090505f604051806060016040528073c02aaa39b223fe8d0a0e5c4f27ead9083c756cc273ffffffffffffffffffffffffffffffffffffffff1673ffffffffffffffffffffffffffffffffffffffff16815260200173a0b86991c6218b36c1d19d4a2e9eb0ce3606eb4873ffffffffffffffffffffffffffffffffffffffff1673ffffffffffffffffffffffffffffffffffffffff16815260200173dac17f958d2ee523a2206206994597c13d831ec773ffffffffffffffffffffffffffffffffffffffff1673ffffffffffffffffffffffffffffffffffffffff1681525090505f5f90505b6003811015611abe575f5f90505b6003811015611ab2578873ffffffffffffffffffffffffffffffffffffffff1683826003811061196e5761196d612662565b5b602002015173ffffffffffffffffffffffffffffffffffffffff160315611aa7575f8483600381106119a3576119a2612662565b5b602002015173ffffffffffffffffffffffffffffffffffffffff1663e6a439058b8685600381106119d7576119d6612662565b5b60200201516040518363ffffffff1660e01b81526004016119f992919061268f565b602060405180830381865afa158015611a14573d5f5f3e3d5ffd5b505050506040513d601f19601f82011682018060405250810190611a3891906126ca565b90505f73ffffffffffffffffffffffffffffffffffffffff168173ffffffffffffffffffffffffffffffffffffffff1603611a735750611aa7565b5f5f611a7f838d611ac8565b915091505f611a8e838d611c21565b905089811115611aa257809950839a508198505b505050505b80600101905061193b565b5080600101905061192d565b5050509250925092565b5f5f5f8473ffffffffffffffffffffffffffffffffffffffff16630dfe16816040518163ffffffff1660e01b8152600401602060405180830381865afa158015611b14573d5f5f3e3d5ffd5b505050506040513d601f19601f82011682018060405250810190611b3891906126ca565b90505f5f8673ffffffffffffffffffffffffffffffffffffffff16630902f1ac6040518163ffffffff1660e01b8152600401606060405180830381865afa158015611b85573d5f5f3e3d5ffd5b505050506040513d601f19601f82011682018060405250810190611ba99190612771565b50915091508573ffffffffffffffffffffffffffffffffffffffff168373ffffffffffffffffffffffffffffffffffffffff1603611c0057816dffffffffffffffffffffffffffff16600194509450505050611c1a565b806dffffffffffffffffffffffffffff165f945094505050505b9250929050565b5f60018311611c32575f9050611c6f565b5f600284611c4091906124dd565b90505f8103611c5957600184611c56919061225d565b90505b80831015611c6a5782915050611c6f565b809150505b92915050565b5f5ffd5b5f5ffd5b5f73ffffffffffffffffffffffffffffffffffffffff82169050919050565b5f611ca682611c7d565b9050919050565b611cb681611c9c565b8114611cc0575f5ffd5b50565b5f81359050611cd181611cad565b92915050565b5f819050919050565b611ce981611cd7565b8114611cf3575f5ffd5b50565b5f81359050611d0481611ce0565b92915050565b5f5ffd5b5f5ffd5b5f5ffd5b5f5f83601f840112611d2b57611d2a611d0a565b5b8235905067ffffffffffffffff811115611d4857611d47611d0e565b5b602083019150836001820283011115611d6457611d63611d12565b5b9250929050565b5f5f5f5f5f60808688031215611d8457611d83611c75565b5b5f611d9188828901611cc3565b9550506020611da288828901611cf6565b9450506040611db388828901611cf6565b935050606086013567ffffffffffffffff811115611dd457611dd3611c79565b5b611de088828901611d16565b92509250509295509295909350565b611df881611c9c565b82525050565b5f602082019050611e115f830184611def565b92915050565b611e2081611cd7565b82525050565b5f602082019050611e395f830184611e17565b92915050565b5f81519050611e4d81611ce0565b92915050565b5f60208284031215611e6857611e67611c75565b5b5f611e7584828501611e3f565b91505092915050565b5f82825260208201905092915050565b7f756e6578706563746564207061697200000000000000000000000000000000005f82015250565b5f611ec2600f83611e7e565b9150611ecd82611e8e565b602082019050919050565b5f6020820190508181035f830152611eef81611eb6565b9050919050565b7f756e65787065637465642073656e6465720000000000000000000000000000005f82015250565b5f611f2a601183611e7e565b9150611f3582611ef6565b602082019050919050565b5f6020820190508181035f830152611f5781611f1e565b9050919050565b7f6e6f20626f72726f77656420746f6b656e7300000000000000000000000000005f82015250565b5f611f92601283611e7e565b9150611f9d82611f5e565b602082019050919050565b5f6020820190508181035f830152611fbf81611f86565b9050919050565b5f604082019050611fd95f830185611e17565b611fe66020830184611e17565b9392505050565b5f819050919050565b5f819050919050565b5f61201961201461200f84611fed565b611ff6565b611cd7565b9050919050565b61202981611fff565b82525050565b5f6060820190506120425f830186611e17565b61204f6020830185611def565b61205c6040830184612020565b949350505050565b5f5f5f6060848603121561207b5761207a611c75565b5b5f61208886828701611e3f565b935050602061209986828701611e3f565b92505060406120aa86828701611e3f565b9150509250925092565b7f7374616b65206661696c656400000000000000000000000000000000000000005f82015250565b5f6120e8600c83611e7e565b91506120f3826120b4565b602082019050919050565b5f6020820190508181035f830152612115816120dc565b9050919050565b5f8115159050919050565b6121308161211c565b811461213a575f5ffd5b50565b5f8151905061214b81612127565b92915050565b5f5f5f5f5f60a0868803121561216a57612169611c75565b5b5f61217788828901611e3f565b955050602061218888828901611e3f565b945050604061219988828901611e3f565b93505060606121aa88828901611e3f565b92505060806121bb8882890161213d565b9150509295509295909350565b7f696e73756666696369656e74206c69717569642070726f6669740000000000005f82015250565b5f6121fc601a83611e7e565b9150612207826121c8565b602082019050919050565b5f6020820190508181035f830152612229816121f0565b9050919050565b7f4e487b71000000000000000000000000000000000000000000000000000000005f52601160045260245ffd5b5f61226782611cd7565b915061227283611cd7565b925082820390508181111561228a57612289612230565b5b92915050565b5f61229a82611cd7565b91505f82036122ac576122ab612230565b5b600182039050919050565b5f82825260208201905092915050565b7f01000000000000000000000000000000000000000000000000000000000000005f82015250565b5f6122fb6001836122b7565b9150612306826122c7565b602082019050919050565b5f6080820190506123245f830186611e17565b6123316020830185612020565b61233e6040830184611def565b818103606083015261234f816122ef565b9050949350505050565b5f60808201905061236c5f830186612020565b6123796020830185611e17565b6123866040830184611def565b8181036060830152612397816122ef565b9050949350505050565b5f81519050919050565b5f81905092915050565b8281835e5f83830152505050565b5f6123cd826123a1565b6123d781856123ab565b93506123e78185602086016123b5565b80840191505092915050565b5f6123fe82846123c3565b915081905092915050565b5f61241382611c7d565b9050919050565b61242381612409565b811461242d575f5ffd5b50565b5f8151905061243e8161241a565b92915050565b5f6020828403121561245957612458611c75565b5b5f61246684828501612430565b91505092915050565b5f61247982611cd7565b915061248483611cd7565b925082820261249281611cd7565b915082820484148315176124a9576124a8612230565b5b5092915050565b7f4e487b71000000000000000000000000000000000000000000000000000000005f52601260045260245ffd5b5f6124e782611cd7565b91506124f283611cd7565b925082612502576125016124b0565b5b828204905092915050565b5f61251782611cd7565b915061252283611cd7565b925082820190508082111561253a57612539612230565b5b92915050565b5f6040820190506125535f830185611def565b6125606020830184611e17565b9392505050565b5f6020828403121561257c5761257b611c75565b5b5f6125898482850161213d565b91505092915050565b7f617070726f7665206661696c65640000000000000000000000000000000000005f82015250565b5f6125c6600e83611e7e565b91506125d182612592565b602082019050919050565b5f6020820190508181035f8301526125f3816125ba565b9050919050565b7f7472616e73666572206661696c656400000000000000000000000000000000005f82015250565b5f61262e600f83611e7e565b9150612639826125fa565b602082019050919050565b5f6020820190508181035f83015261265b81612622565b9050919050565b7f4e487b71000000000000000000000000000000000000000000000000000000005f52603260045260245ffd5b5f6040820190506126a25f830185611def565b6126af6020830184611def565b9392505050565b5f815190506126c481611cad565b92915050565b5f602082840312156126df576126de611c75565b5b5f6126ec848285016126b6565b91505092915050565b5f6dffffffffffffffffffffffffffff82169050919050565b612717816126f5565b8114612721575f5ffd5b50565b5f815190506127328161270e565b92915050565b5f63ffffffff82169050919050565b61275081612738565b811461275a575f5ffd5b50565b5f8151905061276b81612747565b92915050565b5f5f5f6060848603121561278857612787611c75565b5b5f61279586828701612724565b93505060206127a686828701612724565b92505060406127b78682870161275d565b915050925092509256fea264697066735822122059a472c547ba52d96563bfd0542d12fd38846a4e9551c2c93f131ddcc0fe45a764736f6c634300081e0033","linkReferences":{}},"methodIdentifiers":{"ShibaSwapCall(address,uint256,uint256,bytes)":"ac79e296","executeOnOpportunity()":"3c2448ed","profitAmount()":"5ff972cc","profitToken()":"49343624","sushiCall(address,uint256,uint256,bytes)":"00991403","uniswapV2Call(address,uint256,uint256,bytes)":"10d1e85c"},"id":0}