{"abi":[{"type":"constructor","inputs":[],"stateMutability":"nonpayable"},{"type":"receive","stateMutability":"payable"},{"type":"function","name":"TARGET","inputs":[],"outputs":[{"name":"","type":"address","internalType":"address"}],"stateMutability":"view"},{"type":"function","name":"WETH","inputs":[],"outputs":[{"name":"","type":"address","internalType":"address"}],"stateMutability":"view"},{"type":"function","name":"executeOnOpportunity","inputs":[],"outputs":[],"stateMutability":"nonpayable"},{"type":"function","name":"profitAmount","inputs":[],"outputs":[{"name":"","type":"uint256","internalType":"uint256"}],"stateMutability":"view"},{"type":"function","name":"profitToken","inputs":[],"outputs":[{"name":"","type":"address","internalType":"address"}],"stateMutability":"pure"},{"type":"function","name":"uniswapV2Call","inputs":[{"name":"sender","type":"address","internalType":"address"},{"name":"amount0","type":"uint256","internalType":"uint256"},{"name":"amount1","type":"uint256","internalType":"uint256"},{"name":"","type":"bytes","internalType":"bytes"}],"outputs":[],"stateMutability":"nonpayable"}],"bytecode":{"object":"0x6080806040523460155761133a908161001a8239f35b5f80fdfe608080604052600436101561001c575b50361561001a575f80fd5b005b5f905f3560e01c90816310d1e85c146103ac575080633c2448ed146100dd57806349343624146100975780635ff972cc146100bf578063ad5c4648146100975763cc1f2afa0361000f5734610094578060031936011261009457602060405173e4764f9cd8ecc9659d3abf35259638b20ac536e48152f35b80fd5b503461009457806003193601126100945760206040515f5160206112e55f395f51905f528152f35b50346100945780600319360112610094576020600254604051908152f35b50346100945780600319360112610094576100f6611048565b6100fe6110ee565b6101066111e6565b15610221575b8047806101c5575b50506040516370a0823160e01b81523060048201526020816024815f5160206112e55f395f51905f525afa9081156101ba578291610184575b5081548082111561017c578103908111610168575b60025580f35b634e487b7160e01b82526011600452602482fd5b505080610162565b90506020813d6020116101b2575b8161019f602093836106d6565b810103126101ae57515f61014d565b5f80fd5b3d9150610192565b6040513d84823e3d90fd5b5f5160206112e55f395f51905f523b1561021e578160049160405192838092630d0e30db60e41b82525f5160206112e55f395f51905f525af180156101ba57156101145781610213916106d6565b61009457805f610114565b50fd5b670de0b6b3a7640000471061023d57610238610bee565b61010c565b806001600160a01b0361024e61072b565b16604051630dfe168160e01b8152602081600481855afa80156103a1575f5160206112e55f395f51905f52918491610372575b506001600160a01b03160361030c57803b1561021e5760405163022c0d9f60e01b8152670de0b6b3a76400006004820152602481018390523060448201526080606482015260016084820152600160f81b60a4820152908290829060c490829084905af180156101ba576102f7575b505061010c565b81610301916106d6565b61009457805f6102f0565b803b1561021e5760405163022c0d9f60e01b815260048101839052670de0b6b3a764000060248201523060448201526080606482015260016084820152600160f81b60a4820152908290829060c490829084905af180156101ba576102f757505061010c565b610394915060203d60201161039a575b61038c81836106d6565b81019061070c565b5f610281565b503d610382565b6040513d85823e3d90fd5b9050346101ae5760803660031901126101ae576004356001600160a01b03811691908290036101ae576024359160643567ffffffffffffffff81116101ae57366023820112156101ae57806004013567ffffffffffffffff81116101ae57369101602401116101ae57300361067a57506001600160a01b0361042c61072b565b16330361064f578015610646575b8015610618575f5160206112e55f395f51905f523b156101ae57604051632e1a7d4d60e01b8152600481018290525f81602481835f5160206112e55f395f51905f525af1801561060d576105f8575b50610492610bee565b6103e881029081046103e803610168576103e5900460018101809111610168578047106105c7575f5160206112e55f395f51905f523b156105a657604051630d0e30db60e41b815282908181600481865f5160206112e55f395f51905f525af180156101ba576105b2575b50506040519063a9059cbb60e01b82523360048301526024820152602081604481855f5160206112e55f395f51905f525af19081156101ba578291610573575b50156105465780f35b60405162461bcd60e51b8152602060048201526005602482015264726570617960d81b6044820152606490fd5b90506020813d6020116105aa575b8161058e602093836106d6565b810103126105a6575180151581036105a6575f61053d565b5080fd5b3d9150610581565b816105bc916106d6565b6105a657815f6104fd565b60405162461bcd60e51b81526020600482015260096024820152681c995c185e5b595b9d60ba1b6044820152606490fd5b6106059192505f906106d6565b5f905f610489565b6040513d5f823e3d90fd5b60405162461bcd60e51b8152602060048201526006602482015265185b5bdd5b9d60d21b6044820152606490fd5b5060443561043a565b606460405162461bcd60e51b81526020600482015260046024820152633830b4b960e11b6044820152fd5b62461bcd60e51b815260206004820152600660248201526539b2b73232b960d11b6044820152606490fd5b610100810190811067ffffffffffffffff8211176106c257604052565b634e487b7160e01b5f52604160045260245ffd5b90601f8019910116810190811067ffffffffffffffff8211176106c257604052565b51906001600160701b03821682036101ae57565b908160209103126101ae57516001600160a01b03811681036101ae5790565b5f906040516080810181811067ffffffffffffffff8211176106c25760405273b4e16d0168e52d35cacd2c6185b44281ec28c9dc8152730d4a11d5eeaac28ec3f61d100daf4d40471f1852602082015273397ff1542f962076d0bfe58ea045ffa2d347aca060408201527306da0fd433c1a5d7a4faa01111c044910a18455360608201525f925f5b600481101561095e57600581901b8301516001600160a01b0316803b1561095557604051630240bc6b60e21b8152606081600481855afa90811561060d575f905f926108fe575b50604051630dfe168160e01b8152602081600481875afa801561060d575f5160206112e55f395f51905f52915f916108e0575b506001600160a01b031603610868576001600160701b039150165b86811161085c575b50506001905b016107b3565b9550915060015f610850565b5060405163d21220a760e01b8152602081600481865afa801561060d575f5160206112e55f395f51905f52915f916108c2575b506001600160a01b0316036108b8576001600160701b0316610848565b5050600190610856565b6108da915060203d811161039a5761038c81836106d6565b5f61089b565b6108f8915060203d811161039a5761038c81836106d6565b5f61082d565b9150506060813d821161094d575b81610919606093836106d6565b810103126101ae5761092a816106f8565b6040610938602084016106f8565b92015163ffffffff8116036101ae575f6107fa565b3d915061090c565b50600190610856565b50926001600160a01b03841615915081156109a9575b5061097b57565b60405162461bcd60e51b815260206004820152600660248201526536b0b933b4b760d11b6044820152606490fd5b670de0b6b3a76400009150105f610974565b67ffffffffffffffff81116106c25760051b60200190565b604051606091906109e483826106d6565b6002815291601f1901825f5b8281106109fc57505050565b8060606020809385010152016109f0565b805115610a1a5760200190565b634e487b7160e01b5f52603260045260245ffd5b805160011015610a1a5760400190565b805160021015610a1a5760600190565b602081016020825282518091526040820191602060408360051b8301019401925f915b838310610a8057505050505090565b909192939460208080600193603f19868203018752818a518051918291828552018484015e5f828201840152601f01601f191601019701959491909101920190610a71565b67ffffffffffffffff81116106c257601f01601f191660200190565b3d15610b0b573d90610af282610ac5565b91610b0060405193846106d6565b82523d5f602084013e565b606090565b81516001600160a01b03908116825260208084015182169083015260408084015190911690820152606080830151908201526080808301519082015260a0808301519082015260c0808301519082015260e091820151918101919091525f6101008201526101200190565b610100909392919360e061012082019560018060a01b03815116835260018060a01b03602082015116602084015260018060a01b036040820151166040840152606081015160608401526080810151608084015260a081015160a084015260c081015160c0840152015160e08201520152565b5f80610bf86109d3565b60405163754e7a5f60e11b60208201525f5160206112e55f395f51905f526024820152670de0b6b3a7640000604482015282606482015282608482015260848152610c4460a4826106d6565b610c4d82610a0d565b52610c5781610a0d565b5060405163754e7a5f60e11b60208201525f5160206112e55f395f51905f526024820152670de0b6b3a7640000604482015282606482015282608482015260848152610ca460a4826106d6565b610cad82610a2e565b52610cb781610a2e565b50604051610ce881610cda6020820194631592ca1b60e31b865260248301610a4e565b03601f1981018352826106d6565b5190670de0b6b3a764000073e4764f9cd8ecc9659d3abf35259638b20ac536e45af190610d13610ae1565b911561101a5781518201916020818185019403126101ae5760208101519067ffffffffffffffff82116101ae57019180603f840112156101ae57602083015192610d5c846109bb565b93610d6a60405195866106d6565b8085526020808087019260051b84010101918383116101ae5760408101915b838310610faf5750505050506002825103610f8057610da782610a0d565b51602081519181808201938492010103126101ae57610dc7905192610a2e565b51602081519181808201938492010103126101ae5751604051610de9816106a5565b5f8082523060208301525f5160206112e55f395f51905f526040830152670de0b6b3a764000060608301526080820181905260a0820181905260c0820181905260e0820152604051936080610e3e81876106d6565b60038652601f19015f5b818110610f6f57505091610eb15f949592610cda610e7e87966040519283916355194b6f60e11b60208401528560248401610b7b565b610e8785610a0d565b52610e9184610a0d565b50610cda6040519384926355194b6f60e11b602085015260248401610b7b565b610eba82610a2e565b52610ec481610a2e565b5060405163731006e160e11b602082015260048152610ee46024826106d6565b610eed82610a3e565b52610ef781610a3e565b50604051610f1a81610cda6020820194631592ca1b60e31b865260248301610a4e565b51908273e4764f9cd8ecc9659d3abf35259638b20ac536e45af1610f3c610ae1565b5015610f4457565b606460405162461bcd60e51b8152602060048201526004602482015263195e1a5d60e21b6044820152fd5b806060602080938a01015201610e48565b60405162461bcd60e51b8152602060048201526007602482015266726573756c747360c81b6044820152606490fd5b825167ffffffffffffffff81116101ae5760209083010185603f820112156101ae57602081015191610fe083610ac5565b610fed60405191826106d6565b83815260408385010188106101ae575f602085819660408397018386015e83010152815201920191610d89565b60405162461bcd60e51b815260206004820152600660248201526563726561746560d01b6044820152606490fd5b60015460ff81166110eb5760ff1916600190811790556040516370a0823160e01b815230600482015247906020816024815f5160206112e55f395f51905f525afa90811561060d575f916110b9575b5081018091116110a5575f55565b634e487b7160e01b5f52601160045260245ffd5b90506020813d6020116110e3575b816110d4602093836106d6565b810103126101ae57515f611097565b3d91506110c7565b50565b670de0b6b3a76400004710156111ad576040516370a0823160e01b81523060048201526020816024815f5160206112e55f395f51905f525afa90811561060d575f916111b4575b50670de0b6b3a76400008111156111af5750670de0b6b3a76400005b806111595750565b5f5160206112e55f395f51905f523b156101ae5760405190632e1a7d4d60e01b825260048201525f81602481835f5160206112e55f395f51905f525af1801561060d576111a35750565b5f6111ad916106d6565b565b611151565b90506020813d6020116111de575b816111cf602093836106d6565b810103126101ae57515f611135565b3d91506111c2565b6111ee6112a8565b506111f76112a8565b506112a3604051611207816106a5565b5f81525f60208201525f60408201525f60608201525f60808201525f60a08201525f60c08201525f60e0820152610cda6112946112426109d3565b92604051630da4aab960e21b602082015261126481610cda8460248301610b10565b61126d85610a0d565b5261127784610a0d565b50604051630da4aab960e21b602082015292839160248301610b10565b61129d82610a2e565b52610a2e565b505f90565b604051906112b5826106a5565b5f60e0838281528260208201528260408201528260608201528260808201528260a08201528260c0820152015256fe000000000000000000000000c02aaa39b223fe8d0a0e5c4f27ead9083c756cc2a2646970667358221220242369a1e6e51077ce53f0b15d8a7874e83e528767adb165dc8256b26113d7da64736f6c634300081e0033","linkReferences":{}},"methodIdentifiers":{"TARGET()":"cc1f2afa","WETH()":"ad5c4648","executeOnOpportunity()":"3c2448ed","profitAmount()":"5ff972cc","profitToken()":"49343624","uniswapV2Call(address,uint256,uint256,bytes)":"10d1e85c"},"id":0}