{"abi":[{"type":"constructor","inputs":[],"stateMutability":"nonpayable"},{"type":"receive","stateMutability":"payable"},{"type":"function","name":"attemptedCToken","inputs":[],"outputs":[{"name":"","type":"address","internalType":"address"}],"stateMutability":"view"},{"type":"function","name":"attemptedMarkets","inputs":[],"outputs":[{"name":"","type":"uint256","internalType":"uint256"}],"stateMutability":"view"},{"type":"function","name":"attemptedMintAmount","inputs":[],"outputs":[{"name":"","type":"uint256","internalType":"uint256"}],"stateMutability":"view"},{"type":"function","name":"attemptedUnderlying","inputs":[],"outputs":[{"name":"","type":"address","internalType":"address"}],"stateMutability":"view"},{"type":"function","name":"encounteredUnknownMarket","inputs":[],"outputs":[{"name":"","type":"bool","internalType":"bool"}],"stateMutability":"view"},{"type":"function","name":"executeOnOpportunity","inputs":[],"outputs":[],"stateMutability":"nonpayable"},{"type":"function","name":"exploitPathUsed","inputs":[],"outputs":[{"name":"","type":"string","internalType":"string"}],"stateMutability":"pure"},{"type":"function","name":"hypothesisRefuted","inputs":[],"outputs":[{"name":"","type":"bool","internalType":"bool"}],"stateMutability":"view"},{"type":"function","name":"hypothesisValidated","inputs":[],"outputs":[{"name":"","type":"bool","internalType":"bool"}],"stateMutability":"view"},{"type":"function","name":"observedCTokenDelta","inputs":[],"outputs":[{"name":"","type":"uint256","internalType":"uint256"}],"stateMutability":"view"},{"type":"function","name":"observedCashDelta","inputs":[],"outputs":[{"name":"","type":"uint256","internalType":"uint256"}],"stateMutability":"view"},{"type":"function","name":"profitAchieved","inputs":[],"outputs":[{"name":"","type":"bool","internalType":"bool"}],"stateMutability":"view"},{"type":"function","name":"profitAmount","inputs":[],"outputs":[{"name":"","type":"uint256","internalType":"uint256"}],"stateMutability":"view"},{"type":"function","name":"profitToken","inputs":[],"outputs":[{"name":"","type":"address","internalType":"address"}],"stateMutability":"view"},{"type":"function","name":"startFlashswap","inputs":[{"name":"pair","type":"address","internalType":"address"},{"name":"cToken","type":"address","internalType":"address"},{"name":"underlying","type":"address","internalType":"address"},{"name":"amountOut","type":"uint256","internalType":"uint256"}],"outputs":[{"name":"","type":"uint256","internalType":"uint256"}],"stateMutability":"nonpayable"},{"type":"function","name":"uniswapV2Call","inputs":[{"name":"sender","type":"address","internalType":"address"},{"name":"amount0","type":"uint256","internalType":"uint256"},{"name":"amount1","type":"uint256","internalType":"uint256"},{"name":"data","type":"bytes","internalType":"bytes"}],"outputs":[],"stateMutability":"nonpayable"}],"bytecode":{"object":"0x6080604052348015600e575f5ffd5b5061363d8061001c5f395ff3fe6080604052600436106100f6575f3560e01c806366235d8311610089578063bf98435f11610058578063bf98435f146102e3578063d78c42811461031f578063e707e8a414610349578063f0a0117614610373576100fd565b806366235d831461023b5780639b035a1914610265578063a0902cf51461028f578063b779baec146102b9576100fd565b806349343624116100c55780634934362414610193578063495f92f1146101bd57806355f7f96a146101e75780635ff972cc14610211576100fd565b8063041fbd4e1461010157806310d1e85c1461012b5780633c2448ed14610153578063463defd114610169576100fd565b366100fd57005b5f5ffd5b34801561010c575f5ffd5b5061011561039d565b60405161012291906123d9565b60405180910390f35b348015610136575f5ffd5b50610151600480360381019061014c91906124e8565b6103a3565b005b34801561015e575f5ffd5b50610167610704565b005b348015610174575f5ffd5b5061017d610a39565b60405161018a9190612586565b60405180910390f35b34801561019e575f5ffd5b506101a7610a4c565b6040516101b491906125ae565b60405180910390f35b3480156101c8575f5ffd5b506101d1610a73565b6040516101de9190612586565b60405180910390f35b3480156101f2575f5ffd5b506101fb610a84565b60405161020891906125ae565b60405180910390f35b34801561021c575f5ffd5b50610225610aa9565b60405161023291906123d9565b60405180910390f35b348015610246575f5ffd5b5061024f610ab2565b60405161025c91906123d9565b60405180910390f35b348015610270575f5ffd5b50610279610ab8565b60405161028691906123d9565b60405180910390f35b34801561029a575f5ffd5b506102a3610abe565b6040516102b091906125ae565b60405180910390f35b3480156102c4575f5ffd5b506102cd610ae3565b6040516102da91906123d9565b60405180910390f35b3480156102ee575f5ffd5b50610309600480360381019061030491906125c7565b610ae9565b60405161031691906123d9565b60405180910390f35b34801561032a575f5ffd5b50610333610e4a565b604051610340919061269b565b60405180910390f35b348015610354575f5ffd5b5061035d610e6a565b60405161036a9190612586565b60405180910390f35b34801561037e575f5ffd5b50610387610e7d565b6040516103949190612586565b60405180910390f35b60075481565b3073ffffffffffffffffffffffffffffffffffffffff168573ffffffffffffffffffffffffffffffffffffffff1614610411576040517f08c379a000000000000000000000000000000000000000000000000000000000815260040161040890612705565b60405180910390fd5b5f5f5f5f8585810190610424919061275e565b93509350935093508373ffffffffffffffffffffffffffffffffffffffff163373ffffffffffffffffffffffffffffffffffffffff161461049a576040517f08c379a00000000000000000000000000000000000000000000000000000000081526004016104919061280c565b60405180910390fd5b5f5f89116104a857876104aa565b885b90508181146104ee576040517f08c379a00000000000000000000000000000000000000000000000000000000081526004016104e590612874565b60405180910390fd5b5f8373ffffffffffffffffffffffffffffffffffffffff166370a08231306040518263ffffffff1660e01b815260040161052891906125ae565b602060405180830381865afa158015610543573d5f5f3e3d5ffd5b505050506040513d601f19601f8201168201806040525081019061056791906128a6565b90505f81116105ab576040517f08c379a00000000000000000000000000000000000000000000000000000000081526004016105a29061291b565b60405180910390fd5b5f5f6105b8878785610e8f565b91509150816007819055508060088190555081600b8190555080600c819055505f6105e286611467565b90506105ef878a83611496565b5f8773ffffffffffffffffffffffffffffffffffffffff166370a08231306040518263ffffffff1660e01b815260040161062991906125ae565b602060405180830381865afa158015610644573d5f5f3e3d5ffd5b505050506040513d601f19601f8201168201806040525081019061066891906128a6565b90505f81116106ac576040517f08c379a00000000000000000000000000000000000000000000000000000000081526004016106a390612983565b60405180910390fd5b8760095f6101000a81548173ffffffffffffffffffffffffffffffffffffffff021916908373ffffffffffffffffffffffffffffffffffffffff16021790555080600a81905550505050505050505050505050505050565b61070c611760565b5f733d9819210a31b4961b30ef54be2aed79b9c9cd3b73ffffffffffffffffffffffffffffffffffffffff1663b0772d0b6040518163ffffffff1660e01b81526004015f60405180830381865afa158015610769573d5f5f3e3d5ffd5b505050506040513d5f823e3d601f19601f820116820180604052508101906107919190612aed565b90505f5f90505b6002811015610a0c575f5f90505b8251811015610a00575f8382815181106107c3576107c2612b34565b5b602002602001015190505f6107d7826118ff565b90505f73ffffffffffffffffffffffffffffffffffffffff168173ffffffffffffffffffffffffffffffffffffffff16036108135750506109f5565b5f61081d826119c4565b90505f8514801561082c575080155b80610840575060018514801561083f5750805b5b1561084d575050506109f5565b60035f815461085b90612b8e565b919050819055508260045f6101000a81548173ffffffffffffffffffffffffffffffffffffffff021916908373ffffffffffffffffffffffffffffffffffffffff1602179055508160055f6101000a81548173ffffffffffffffffffffffffffffffffffffffff021916908373ffffffffffffffffffffffffffffffffffffffff1602179055506108ec8383611ae8565b156109f157815f5f6101000a81548173ffffffffffffffffffffffffffffffffffffffff021916908373ffffffffffffffffffffffffffffffffffffffff1602179055508173ffffffffffffffffffffffffffffffffffffffff166370a08231306040518263ffffffff1660e01b815260040161096991906125ae565b602060405180830381865afa158015610984573d5f5f3e3d5ffd5b505050506040513d601f19601f820116820180604052508101906109a891906128a6565b6001819055505f6001541160025f6101000a81548160ff0219169083151502179055506001600260016101000a81548160ff021916908315150217905550505050505050610a37565b5050505b8060010190506107a6565b50806001019050610798565b5060025f9054906101000a900460ff16156002806101000a81548160ff021916908315150217905550505b565b600260019054906101000a900460ff1681565b5f5f5f9054906101000a900473ffffffffffffffffffffffffffffffffffffffff16905090565b60028054906101000a900460ff1681565b60055f9054906101000a900473ffffffffffffffffffffffffffffffffffffffff1681565b5f600154905090565b60035481565b60065481565b60045f9054906101000a900473ffffffffffffffffffffffffffffffffffffffff1681565b60085481565b5f3073ffffffffffffffffffffffffffffffffffffffff163373ffffffffffffffffffffffffffffffffffffffff1614610b58576040517f08c379a0000000000000000000000000000000000000000000000000000000008152600401610b4f90612c1f565b60405180910390fd5b5f60095f6101000a81548173ffffffffffffffffffffffffffffffffffffffff021916908373ffffffffffffffffffffffffffffffffffffffff1602179055505f600a819055505f600b819055505f600c819055505f8573ffffffffffffffffffffffffffffffffffffffff16630dfe16816040518163ffffffff1660e01b8152600401602060405180830381865afa158015610bf7573d5f5f3e3d5ffd5b505050506040513d601f19601f82011682018060405250810190610c1b9190612c3d565b90505f8673ffffffffffffffffffffffffffffffffffffffff1663d21220a76040518163ffffffff1660e01b8152600401602060405180830381865afa158015610c67573d5f5f3e3d5ffd5b505050506040513d601f19601f82011682018060405250810190610c8b9190612c3d565b90505f87878787604051602001610ca59493929190612c68565b60405160208183030381529060405290508573ffffffffffffffffffffffffffffffffffffffff168373ffffffffffffffffffffffffffffffffffffffff1603610d5a578773ffffffffffffffffffffffffffffffffffffffff1663022c0d9f865f30856040518563ffffffff1660e01b8152600401610d289493929190612d3f565b5f604051808303815f87803b158015610d3f575f5ffd5b505af1158015610d51573d5f5f3e3d5ffd5b50505050610e3a565b8573ffffffffffffffffffffffffffffffffffffffff168273ffffffffffffffffffffffffffffffffffffffff1603610dfe578773ffffffffffffffffffffffffffffffffffffffff1663022c0d9f5f8730856040518563ffffffff1660e01b8152600401610dcc9493929190612d89565b5f604051808303815f87803b158015610de3575f5ffd5b505af1158015610df5573d5f5f3e3d5ffd5b50505050610e39565b6040517f08c379a0000000000000000000000000000000000000000000000000000000008152600401610e3090612e1d565b60405180910390fd5b5b600a549350505050949350505050565b60606040518060c001604052806091815260200161357760919139905090565b600260039054906101000a900460ff1681565b60025f9054906101000a900460ff1681565b5f5f5f8473ffffffffffffffffffffffffffffffffffffffff166370a08231876040518263ffffffff1660e01b8152600401610ecb91906125ae565b602060405180830381865afa158015610ee6573d5f5f3e3d5ffd5b505050506040513d601f19601f82011682018060405250810190610f0a91906128a6565b90505f8673ffffffffffffffffffffffffffffffffffffffff166370a08231306040518263ffffffff1660e01b8152600401610f4691906125ae565b602060405180830381865afa158015610f61573d5f5f3e3d5ffd5b505050506040513d601f19601f82011682018060405250810190610f8591906128a6565b90505f8773ffffffffffffffffffffffffffffffffffffffff1663182df0f56040518163ffffffff1660e01b8152600401602060405180830381865afa158015610fd1573d5f5f3e3d5ffd5b505050506040513d601f19601f82011682018060405250810190610ff591906128a6565b90505f8111611039576040517f08c379a000000000000000000000000000000000000000000000000000000000815260040161103090612e85565b60405180910390fd5b61104487895f611e85565b611083576040517f08c379a000000000000000000000000000000000000000000000000000000000815260040161107a90612eed565b60405180910390fd5b61108e878988611e85565b6110cd576040517f08c379a00000000000000000000000000000000000000000000000000000000081526004016110c490612f55565b60405180910390fd5b856006819055505f8873ffffffffffffffffffffffffffffffffffffffff1663a0712d68886040518263ffffffff1660e01b815260040161110e91906123d9565b6020604051808303815f875af115801561112a573d5f5f3e3d5ffd5b505050506040513d601f19601f8201168201806040525081019061114e91906128a6565b90505f8114611192576040517f08c379a000000000000000000000000000000000000000000000000000000000815260040161118990612fbd565b60405180910390fd5b5f8873ffffffffffffffffffffffffffffffffffffffff166370a082318b6040518263ffffffff1660e01b81526004016111cc91906125ae565b602060405180830381865afa1580156111e7573d5f5f3e3d5ffd5b505050506040513d601f19601f8201168201806040525081019061120b91906128a6565b90505f8a73ffffffffffffffffffffffffffffffffffffffff166370a08231306040518263ffffffff1660e01b815260040161124791906125ae565b602060405180830381865afa158015611262573d5f5f3e3d5ffd5b505050506040513d601f19601f8201168201806040525081019061128691906128a6565b905085826112949190612fdb565b975084816112a29190612fdb565b96508888106112e6576040517f08c379a00000000000000000000000000000000000000000000000000000000081526004016112dd90613058565b60405180910390fd5b5f8711611328576040517f08c379a000000000000000000000000000000000000000000000000000000000815260040161131f906130c0565b60405180910390fd5b5f670de0b6b3a7640000858961133e91906130de565b611348919061314c565b905089600282611358919061317c565b1015611399576040517f08c379a0000000000000000000000000000000000000000000000000000000008152600401611390906131f9565b60405180910390fd5b5f8c73ffffffffffffffffffffffffffffffffffffffff1663db006a758a6040518263ffffffff1660e01b81526004016113d391906123d9565b6020604051808303815f875af11580156113ef573d5f5f3e3d5ffd5b505050506040513d601f19601f8201168201806040525081019061141391906128a6565b90505f8114611457576040517f08c379a000000000000000000000000000000000000000000000000000000000815260040161144e90613261565b60405180910390fd5b5050505050505050935093915050565b5f60016103e56103e88461147b91906130de565b611485919061314c565b61148f919061317c565b9050919050565b5f8373ffffffffffffffffffffffffffffffffffffffff166370a08231846040518263ffffffff1660e01b81526004016114d091906125ae565b602060405180830381865afa1580156114eb573d5f5f3e3d5ffd5b505050506040513d601f19601f8201168201806040525081019061150f91906128a6565b90505f5f90505f5f90505b60058110801561152957508382105b15611715575f828561153b9190612fdb565b90505f604060058361154d919061314c565b83611558919061317c565b611562919061317c565b90505f8873ffffffffffffffffffffffffffffffffffffffff166370a08231306040518263ffffffff1660e01b815260040161159e91906125ae565b602060405180830381865afa1580156115b9573d5f5f3e3d5ffd5b505050506040513d601f19601f820116820180604052508101906115dd91906128a6565b9050808211156115eb578091505b5f821161162d576040517f08c379a0000000000000000000000000000000000000000000000000000000008152600401611624906132c9565b60405180910390fd5b611638898984611fb2565b611677576040517f08c379a000000000000000000000000000000000000000000000000000000000815260040161166e90613331565b60405180910390fd5b5f8973ffffffffffffffffffffffffffffffffffffffff166370a082318a6040518263ffffffff1660e01b81526004016116b191906125ae565b602060405180830381865afa1580156116cc573d5f5f3e3d5ffd5b505050506040513d601f19601f820116820180604052508101906116f091906128a6565b905086816116fe9190612fdb565b9550505050508061170e90612b8e565b905061151a565b5082811015611759576040517f08c379a000000000000000000000000000000000000000000000000000000000815260040161175090613399565b60405180910390fd5b5050505050565b5f5f5f6101000a81548173ffffffffffffffffffffffffffffffffffffffff021916908373ffffffffffffffffffffffffffffffffffffffff1602179055505f6001819055505f60025f6101000a81548160ff0219169083151502179055505f600260016101000a81548160ff0219169083151502179055505f6002806101000a81548160ff0219169083151502179055505f600260036101000a81548160ff0219169083151502179055505f6003819055505f60045f6101000a81548173ffffffffffffffffffffffffffffffffffffffff021916908373ffffffffffffffffffffffffffffffffffffffff1602179055505f60055f6101000a81548173ffffffffffffffffffffffffffffffffffffffff021916908373ffffffffffffffffffffffffffffffffffffffff1602179055505f6006819055505f6007819055505f6008819055505f60095f6101000a81548173ffffffffffffffffffffffffffffffffffffffff021916908373ffffffffffffffffffffffffffffffffffffffff1602179055505f600a819055505f600b819055505f600c81905550565b5f734ddc2d193948926d02f9b1fe9e1daa0718270ed573ffffffffffffffffffffffffffffffffffffffff168273ffffffffffffffffffffffffffffffffffffffff160361194f575f90506119bf565b8173ffffffffffffffffffffffffffffffffffffffff16636f307dc36040518163ffffffff1660e01b8152600401602060405180830381865afa158015611998573d5f5f3e3d5ffd5b505050506040513d601f19601f820116820180604052508101906119bc9190612c3d565b90505b919050565b5f73dac17f958d2ee523a2206206994597c13d831ec773ffffffffffffffffffffffffffffffffffffffff168273ffffffffffffffffffffffffffffffffffffffff161480611a4d57506e085d4780b73119b644ae5ecd22b37673ffffffffffffffffffffffffffffffffffffffff168273ffffffffffffffffffffffffffffffffffffffff16145b80611a975750738e870d67f660d95d5be530380d0ec0bd388289e173ffffffffffffffffffffffffffffffffffffffff168273ffffffffffffffffffffffffffffffffffffffff16145b80611ae1575073956f47f50a910163d8bf957cf5846d573e7f87ca73ffffffffffffffffffffffffffffffffffffffff168273ffffffffffffffffffffffffffffffffffffffff16145b9050919050565b5f5f6040518060400160405280735c69bee701ef814a2b6a3edd4b1652cb9cc5aa6f73ffffffffffffffffffffffffffffffffffffffff1673ffffffffffffffffffffffffffffffffffffffff16815260200173c0aee478e3658e2610c5f7a4a2e1777ce9e4f2ac73ffffffffffffffffffffffffffffffffffffffff1673ffffffffffffffffffffffffffffffffffffffff1681525090505f604051806060016040528073c02aaa39b223fe8d0a0e5c4f27ead9083c756cc273ffffffffffffffffffffffffffffffffffffffff1673ffffffffffffffffffffffffffffffffffffffff16815260200173a0b86991c6218b36c1d19d4a2e9eb0ce3606eb4873ffffffffffffffffffffffffffffffffffffffff1673ffffffffffffffffffffffffffffffffffffffff168152602001736b175474e89094c44da98b954eedeac495271d0f73ffffffffffffffffffffffffffffffffffffffff1673ffffffffffffffffffffffffffffffffffffffff1681525090505f8473ffffffffffffffffffffffffffffffffffffffff166370a08231876040518263ffffffff1660e01b8152600401611c9991906125ae565b602060405180830381865afa158015611cb4573d5f5f3e3d5ffd5b505050506040513d601f19601f82011682018060405250810190611cd891906128a6565b90505f8103611cec575f9350505050611e7f565b5f5f90505b6002811015611e77575f5f90505b6003811015611e6b575f848260038110611d1c57611d1b612b34565b5b602002015190508773ffffffffffffffffffffffffffffffffffffffff168173ffffffffffffffffffffffffffffffffffffffff1603611d5c5750611e60565b5f868460028110611d7057611d6f612b34565b5b602002015173ffffffffffffffffffffffffffffffffffffffff1663e6a439058a846040518363ffffffff1660e01b8152600401611daf9291906133b7565b602060405180830381865afa158015611dca573d5f5f3e3d5ffd5b505050506040513d601f19601f82011682018060405250810190611dee9190612c3d565b90505f73ffffffffffffffffffffffffffffffffffffffff168173ffffffffffffffffffffffffffffffffffffffff1603611e2a575050611e60565b611e36818b8b886120df565b15611e5d57600b54600781905550600c546008819055506001975050505050505050611e7f565b50505b806001019050611cff565b50806001019050611cf1565b505f93505050505b92915050565b5f5f5f8573ffffffffffffffffffffffffffffffffffffffff168585604051602401611eb29291906133de565b6040516020818303038152906040527f095ea7b3000000000000000000000000000000000000000000000000000000007bffffffffffffffffffffffffffffffffffffffffffffffffffffffff19166020820180517bffffffffffffffffffffffffffffffffffffffffffffffffffffffff8381831617835250505050604051611f3c919061343f565b5f604051808303815f865af19150503d805f8114611f75576040519150601f19603f3d011682016040523d82523d5f602084013e611f7a565b606091505b5091509150818015611fa757505f81511480611fa6575080806020019051810190611fa5919061347f565b5b5b925050509392505050565b5f5f5f8573ffffffffffffffffffffffffffffffffffffffff168585604051602401611fdf9291906133de565b6040516020818303038152906040527fa9059cbb000000000000000000000000000000000000000000000000000000007bffffffffffffffffffffffffffffffffffffffffffffffffffffffff19166020820180517bffffffffffffffffffffffffffffffffffffffffffffffffffffffff8381831617835250505050604051612069919061343f565b5f604051808303815f865af19150503d805f81146120a2576040519150601f19603f3d011682016040523d82523d5f602084013e6120a7565b606091505b50915091508180156120d457505f815114806120d35750808060200190518101906120d2919061347f565b5b5b925050509392505050565b5f5f604051806101000160405280614e208152602001612710815260200161138881526020016107d081526020016103e881526020016101f4815260200160c88152602001606481525090505f6121368786612268565b5090505f810361214a575f92505050612260565b5f5f90505b6008811015612259575f83826008811061216c5761216b612b34565b5b60200201518361217c919061314c565b90505f60328761218c919061314c565b90505f8111801561219c57508082115b156121a5578091505b5f82036121b357505061224e565b3073ffffffffffffffffffffffffffffffffffffffff1663bf98435f8b8b8b866040518563ffffffff1660e01b81526004016121f29493929190612c68565b6020604051808303815f875af192505050801561222d57506040513d601f19601f8201168201806040525081019061222a91906128a6565b60015b1561224b575f8111156122495760019650505050505050612260565b505b50505b80600101905061214f565b505f925050505b949350505050565b5f5f5f5f8573ffffffffffffffffffffffffffffffffffffffff16630902f1ac6040518163ffffffff1660e01b8152600401606060405180830381865afa1580156122b5573d5f5f3e3d5ffd5b505050506040513d601f19601f820116820180604052508101906122d99190613526565b50915091505f8673ffffffffffffffffffffffffffffffffffffffff16630dfe16816040518163ffffffff1660e01b8152600401602060405180830381865afa158015612328573d5f5f3e3d5ffd5b505050506040513d601f19601f8201168201806040525081019061234c9190612c3d565b90508573ffffffffffffffffffffffffffffffffffffffff168173ffffffffffffffffffffffffffffffffffffffff16036123a057826dffffffffffffffffffffffffffff166001945094505050506123ba565b816dffffffffffffffffffffffffffff165f945094505050505b9250929050565b5f819050919050565b6123d3816123c1565b82525050565b5f6020820190506123ec5f8301846123ca565b92915050565b5f604051905090565b5f5ffd5b5f5ffd5b5f73ffffffffffffffffffffffffffffffffffffffff82169050919050565b5f61242c82612403565b9050919050565b61243c81612422565b8114612446575f5ffd5b50565b5f8135905061245781612433565b92915050565b612466816123c1565b8114612470575f5ffd5b50565b5f813590506124818161245d565b92915050565b5f5ffd5b5f5ffd5b5f5ffd5b5f5f83601f8401126124a8576124a7612487565b5b8235905067ffffffffffffffff8111156124c5576124c461248b565b5b6020830191508360018202830111156124e1576124e061248f565b5b9250929050565b5f5f5f5f5f60808688031215612501576125006123fb565b5b5f61250e88828901612449565b955050602061251f88828901612473565b945050604061253088828901612473565b935050606086013567ffffffffffffffff811115612551576125506123ff565b5b61255d88828901612493565b92509250509295509295909350565b5f8115159050919050565b6125808161256c565b82525050565b5f6020820190506125995f830184612577565b92915050565b6125a881612422565b82525050565b5f6020820190506125c15f83018461259f565b92915050565b5f5f5f5f608085870312156125df576125de6123fb565b5b5f6125ec87828801612449565b94505060206125fd87828801612449565b935050604061260e87828801612449565b925050606061261f87828801612473565b91505092959194509250565b5f81519050919050565b5f82825260208201905092915050565b8281835e5f83830152505050565b5f601f19601f8301169050919050565b5f61266d8261262b565b6126778185612635565b9350612687818560208601612645565b61269081612653565b840191505092915050565b5f6020820190508181035f8301526126b38184612663565b905092915050565b7f6261642073656e646572000000000000000000000000000000000000000000005f82015250565b5f6126ef600a83612635565b91506126fa826126bb565b602082019050919050565b5f6020820190508181035f83015261271c816126e3565b9050919050565b5f61272d82612403565b9050919050565b61273d81612723565b8114612747575f5ffd5b50565b5f8135905061275881612734565b92915050565b5f5f5f5f60808587031215612776576127756123fb565b5b5f6127838782880161274a565b94505060206127948782880161274a565b93505060406127a58782880161274a565b92505060606127b687828801612473565b91505092959194509250565b7f6261642063616c6c6572000000000000000000000000000000000000000000005f82015250565b5f6127f6600a83612635565b9150612801826127c2565b602082019050919050565b5f6020820190508181035f830152612823816127ea565b9050919050565b7f62616420616d6f756e74000000000000000000000000000000000000000000005f82015250565b5f61285e600a83612635565b91506128698261282a565b602082019050919050565b5f6020820190508181035f83015261288b81612852565b9050919050565b5f815190506128a08161245d565b92915050565b5f602082840312156128bb576128ba6123fb565b5b5f6128c884828501612892565b91505092915050565b7f6e6f2066756e64730000000000000000000000000000000000000000000000005f82015250565b5f612905600883612635565b9150612910826128d1565b602082019050919050565b5f6020820190508181035f830152612932816128f9565b9050919050565b7f6e6f2070726f66697400000000000000000000000000000000000000000000005f82015250565b5f61296d600983612635565b915061297882612939565b602082019050919050565b5f6020820190508181035f83015261299a81612961565b9050919050565b7f4e487b71000000000000000000000000000000000000000000000000000000005f52604160045260245ffd5b6129d782612653565b810181811067ffffffffffffffff821117156129f6576129f56129a1565b5b80604052505050565b5f612a086123f2565b9050612a1482826129ce565b919050565b5f67ffffffffffffffff821115612a3357612a326129a1565b5b602082029050602081019050919050565b5f81519050612a5281612433565b92915050565b5f612a6a612a6584612a19565b6129ff565b90508083825260208201905060208402830185811115612a8d57612a8c61248f565b5b835b81811015612ab65780612aa28882612a44565b845260208401935050602081019050612a8f565b5050509392505050565b5f82601f830112612ad457612ad3612487565b5b8151612ae4848260208601612a58565b91505092915050565b5f60208284031215612b0257612b016123fb565b5b5f82015167ffffffffffffffff811115612b1f57612b1e6123ff565b5b612b2b84828501612ac0565b91505092915050565b7f4e487b71000000000000000000000000000000000000000000000000000000005f52603260045260245ffd5b7f4e487b71000000000000000000000000000000000000000000000000000000005f52601160045260245ffd5b5f612b98826123c1565b91507fffffffffffffffffffffffffffffffffffffffffffffffffffffffffffffffff8203612bca57612bc9612b61565b5b600182019050919050565b7f73656c66206f6e6c7900000000000000000000000000000000000000000000005f82015250565b5f612c09600983612635565b9150612c1482612bd5565b602082019050919050565b5f6020820190508181035f830152612c3681612bfd565b9050919050565b5f60208284031215612c5257612c516123fb565b5b5f612c5f84828501612a44565b91505092915050565b5f608082019050612c7b5f83018761259f565b612c88602083018661259f565b612c95604083018561259f565b612ca260608301846123ca565b95945050505050565b5f819050919050565b5f819050919050565b5f612cd7612cd2612ccd84612cab565b612cb4565b6123c1565b9050919050565b612ce781612cbd565b82525050565b5f81519050919050565b5f82825260208201905092915050565b5f612d1182612ced565b612d1b8185612cf7565b9350612d2b818560208601612645565b612d3481612653565b840191505092915050565b5f608082019050612d525f8301876123ca565b612d5f6020830186612cde565b612d6c604083018561259f565b8181036060830152612d7e8184612d07565b905095945050505050565b5f608082019050612d9c5f830187612cde565b612da960208301866123ca565b612db6604083018561259f565b8181036060830152612dc88184612d07565b905095945050505050565b7f62616420706169720000000000000000000000000000000000000000000000005f82015250565b5f612e07600883612635565b9150612e1282612dd3565b602082019050919050565b5f6020820190508181035f830152612e3481612dfb565b9050919050565b7f62616420726174650000000000000000000000000000000000000000000000005f82015250565b5f612e6f600883612635565b9150612e7a82612e3b565b602082019050919050565b5f6020820190508181035f830152612e9c81612e63565b9050919050565b7f617070726f7665300000000000000000000000000000000000000000000000005f82015250565b5f612ed7600883612635565b9150612ee282612ea3565b602082019050919050565b5f6020820190508181035f830152612f0481612ecb565b9050919050565b7f617070726f7665000000000000000000000000000000000000000000000000005f82015250565b5f612f3f600783612635565b9150612f4a82612f0b565b602082019050919050565b5f6020820190508181035f830152612f6c81612f33565b9050919050565b7f6d696e74000000000000000000000000000000000000000000000000000000005f82015250565b5f612fa7600483612635565b9150612fb282612f73565b602082019050919050565b5f6020820190508181035f830152612fd481612f9b565b9050919050565b5f612fe5826123c1565b9150612ff0836123c1565b925082820390508181111561300857613007612b61565b5b92915050565b7f6e6f2073686f727466616c6c00000000000000000000000000000000000000005f82015250565b5f613042600c83612635565b915061304d8261300e565b602082019050919050565b5f6020820190508181035f83015261306f81613036565b9050919050565b7f6e6f2063746f6b656e00000000000000000000000000000000000000000000005f82015250565b5f6130aa600983612635565b91506130b582613076565b602082019050919050565b5f6020820190508181035f8301526130d78161309e565b9050919050565b5f6130e8826123c1565b91506130f3836123c1565b9250828202613101816123c1565b9150828204841483151761311857613117612b61565b5b5092915050565b7f4e487b71000000000000000000000000000000000000000000000000000000005f52601260045260245ffd5b5f613156826123c1565b9150613161836123c1565b9250826131715761317061311f565b5b828204905092915050565b5f613186826123c1565b9150613191836123c1565b92508282019050808211156131a9576131a8612b61565b5b92915050565b7f6d696e746564206f6e2061637475616c206361736800000000000000000000005f82015250565b5f6131e3601583612635565b91506131ee826131af565b602082019050919050565b5f6020820190508181035f830152613210816131d7565b9050919050565b7f72656465656d00000000000000000000000000000000000000000000000000005f82015250565b5f61324b600683612635565b915061325682613217565b602082019050919050565b5f6020820190508181035f8301526132788161323f565b9050919050565b7f72657061790000000000000000000000000000000000000000000000000000005f82015250565b5f6132b3600583612635565b91506132be8261327f565b602082019050919050565b5f6020820190508181035f8301526132e0816132a7565b9050919050565b7f7472616e736665720000000000000000000000000000000000000000000000005f82015250565b5f61331b600883612635565b9150613326826132e7565b602082019050919050565b5f6020820190508181035f8301526133488161330f565b9050919050565b7f756e6465727061696400000000000000000000000000000000000000000000005f82015250565b5f613383600983612635565b915061338e8261334f565b602082019050919050565b5f6020820190508181035f8301526133b081613377565b9050919050565b5f6040820190506133ca5f83018561259f565b6133d7602083018461259f565b9392505050565b5f6040820190506133f15f83018561259f565b6133fe60208301846123ca565b9392505050565b5f81905092915050565b5f61341982612ced565b6134238185613405565b9350613433818560208601612645565b80840191505092915050565b5f61344a828461340f565b915081905092915050565b61345e8161256c565b8114613468575f5ffd5b50565b5f8151905061347981613455565b92915050565b5f60208284031215613494576134936123fb565b5b5f6134a18482850161346b565b91505092915050565b5f6dffffffffffffffffffffffffffff82169050919050565b6134cc816134aa565b81146134d6575f5ffd5b50565b5f815190506134e7816134c3565b92915050565b5f63ffffffff82169050919050565b613505816134ed565b811461350f575f5ffd5b50565b5f81519050613520816134fc565b92915050565b5f5f5f6060848603121561353d5761353c6123fb565b5b5f61354a868287016134d9565b935050602061355b868287016134d9565b925050604061356c86828701613512565b915050925092509256fe666c617368737761702066756e64696e67202d3e206d696e74202d3e206d696e74467265736820636f6d7075746573206d696e74546f6b656e732066726f6d206d696e74416d6f756e74202d3e20646f5472616e73666572496e207265636569766573206c657373207468616e206d696e74416d6f756e74202d3e2072656465656d206578636573732063546f6b656e73a2646970667358221220219af41c4aa335179872272f364cb86cb680e31f11d93da3fe44439d88bb817b64736f6c634300081e0033","linkReferences":{}},"methodIdentifiers":{"attemptedCToken()":"a0902cf5","attemptedMarkets()":"66235d83","attemptedMintAmount()":"9b035a19","attemptedUnderlying()":"55f7f96a","encounteredUnknownMarket()":"e707e8a4","executeOnOpportunity()":"3c2448ed","exploitPathUsed()":"d78c4281","hypothesisRefuted()":"495f92f1","hypothesisValidated()":"463defd1","observedCTokenDelta()":"b779baec","observedCashDelta()":"041fbd4e","profitAchieved()":"f0a01176","profitAmount()":"5ff972cc","profitToken()":"49343624","startFlashswap(address,address,address,uint256)":"bf98435f","uniswapV2Call(address,uint256,uint256,bytes)":"10d1e85c"},"id":0}