{"abi":[{"type":"constructor","inputs":[],"stateMutability":"payable"},{"type":"receive","stateMutability":"payable"},{"type":"function","name":"EXPECTED_CHAIN_ID","inputs":[],"outputs":[{"name":"","type":"uint256","internalType":"uint256"}],"stateMutability":"view"},{"type":"function","name":"HEX","inputs":[],"outputs":[{"name":"","type":"address","internalType":"address"}],"stateMutability":"view"},{"type":"function","name":"SUSHISWAP_ROUTER","inputs":[],"outputs":[{"name":"","type":"address","internalType":"address"}],"stateMutability":"view"},{"type":"function","name":"TARGET","inputs":[],"outputs":[{"name":"","type":"address","internalType":"address"}],"stateMutability":"view"},{"type":"function","name":"UNISWAP_V2_ROUTER","inputs":[],"outputs":[{"name":"","type":"address","internalType":"address"}],"stateMutability":"view"},{"type":"function","name":"WETH","inputs":[],"outputs":[{"name":"","type":"address","internalType":"address"}],"stateMutability":"view"},{"type":"function","name":"execute","inputs":[],"outputs":[{"name":"","type":"uint256","internalType":"uint256"}],"stateMutability":"payable"},{"type":"function","name":"executeOnOpportunity","inputs":[],"outputs":[],"stateMutability":"payable"},{"type":"function","name":"executed","inputs":[],"outputs":[{"name":"","type":"bool","internalType":"bool"}],"stateMutability":"view"},{"type":"function","name":"executedRounds","inputs":[],"outputs":[{"name":"","type":"uint256","internalType":"uint256"}],"stateMutability":"view"},{"type":"function","name":"executionEndEthBalance","inputs":[],"outputs":[{"name":"","type":"uint256","internalType":"uint256"}],"stateMutability":"view"},{"type":"function","name":"executionStartEthBalance","inputs":[],"outputs":[{"name":"","type":"uint256","internalType":"uint256"}],"stateMutability":"view"},{"type":"function","name":"exploit","inputs":[],"outputs":[{"name":"","type":"uint256","internalType":"uint256"}],"stateMutability":"payable"},{"type":"function","name":"exploitPathUsed","inputs":[],"outputs":[{"name":"","type":"string","internalType":"string"}],"stateMutability":"view"},{"type":"function","name":"failureReason","inputs":[],"outputs":[{"name":"","type":"string","internalType":"string"}],"stateMutability":"view"},{"type":"function","name":"flashBorrowAmount","inputs":[],"outputs":[{"name":"","type":"uint256","internalType":"uint256"}],"stateMutability":"view"},{"type":"function","name":"flashOrderId","inputs":[],"outputs":[{"name":"","type":"uint256","internalType":"uint256"}],"stateMutability":"view"},{"type":"function","name":"flashPairUsed","inputs":[],"outputs":[{"name":"","type":"address","internalType":"address"}],"stateMutability":"view"},{"type":"function","name":"flashRepayAmount","inputs":[],"outputs":[{"name":"","type":"uint256","internalType":"uint256"}],"stateMutability":"view"},{"type":"function","name":"flashRouterUsed","inputs":[],"outputs":[{"name":"","type":"address","internalType":"address"}],"stateMutability":"view"},{"type":"function","name":"helperBudget","inputs":[],"outputs":[{"name":"","type":"uint256","internalType":"uint256"}],"stateMutability":"view"},{"type":"function","name":"helperHexSpent","inputs":[],"outputs":[{"name":"","type":"uint256","internalType":"uint256"}],"stateMutability":"view"},{"type":"function","name":"helperRealId","inputs":[],"outputs":[{"name":"","type":"uint256","internalType":"uint256"}],"stateMutability":"view"},{"type":"function","name":"hypothesisRefuted","inputs":[],"outputs":[{"name":"","type":"bool","internalType":"bool"}],"stateMutability":"view"},{"type":"function","name":"hypothesisValidated","inputs":[],"outputs":[{"name":"","type":"bool","internalType":"bool"}],"stateMutability":"view"},{"type":"function","name":"makeRealId","inputs":[],"outputs":[{"name":"","type":"uint256","internalType":"uint256"}],"stateMutability":"view"},{"type":"function","name":"makeReturnedId","inputs":[],"outputs":[{"name":"","type":"bytes32","internalType":"bytes32"}],"stateMutability":"view"},{"type":"function","name":"makerHelper","inputs":[],"outputs":[{"name":"","type":"address","internalType":"address"}],"stateMutability":"view"},{"type":"function","name":"observedLastOfferId","inputs":[],"outputs":[{"name":"","type":"uint256","internalType":"uint256"}],"stateMutability":"view"},{"type":"function","name":"offerEthRealId","inputs":[],"outputs":[{"name":"","type":"uint256","internalType":"uint256"}],"stateMutability":"view"},{"type":"function","name":"offerEthReturnedId","inputs":[],"outputs":[{"name":"","type":"uint256","internalType":"uint256"}],"stateMutability":"view"},{"type":"function","name":"offerHexRealId","inputs":[],"outputs":[{"name":"","type":"uint256","internalType":"uint256"}],"stateMutability":"view"},{"type":"function","name":"offerHexReturnedId","inputs":[],"outputs":[{"name":"","type":"uint256","internalType":"uint256"}],"stateMutability":"view"},{"type":"function","name":"profitAchieved","inputs":[],"outputs":[{"name":"","type":"bool","internalType":"bool"}],"stateMutability":"view"},{"type":"function","name":"profitAmount","inputs":[],"outputs":[{"name":"","type":"uint256","internalType":"uint256"}],"stateMutability":"view"},{"type":"function","name":"profitAmountValue","inputs":[],"outputs":[{"name":"","type":"uint256","internalType":"uint256"}],"stateMutability":"view"},{"type":"function","name":"profitToken","inputs":[],"outputs":[{"name":"","type":"address","internalType":"address"}],"stateMutability":"pure"},{"type":"function","name":"profitableId","inputs":[],"outputs":[{"name":"","type":"uint256","internalType":"uint256"}],"stateMutability":"view"},{"type":"function","name":"run","inputs":[],"outputs":[{"name":"","type":"uint256","internalType":"uint256"}],"stateMutability":"payable"},{"type":"function","name":"scanEndId","inputs":[],"outputs":[{"name":"","type":"uint256","internalType":"uint256"}],"stateMutability":"view"},{"type":"function","name":"scanStartId","inputs":[],"outputs":[{"name":"","type":"uint256","internalType":"uint256"}],"stateMutability":"view"},{"type":"function","name":"uniswapV2Call","inputs":[{"name":"sender","type":"address","internalType":"address"},{"name":"amount0","type":"uint256","internalType":"uint256"},{"name":"amount1","type":"uint256","internalType":"uint256"},{"name":"data","type":"bytes","internalType":"bytes"}],"outputs":[],"stateMutability":"nonpayable"}],"bytecode":{"object":"0x60808060405261436590816100128239f3fe608080604052600436101561001c575b50361561001a575f80fd5b005b5f905f3560e01c9081630973083c14610ced5750806310d1e85c146107d457806317213b52146107b65780631d5589661461078e578063277754ed1461075f57806331a38c891461073d578063344f09cc1461071f578063367ed0e2146107015780633b83b4d8146106e35780633c2448ed146106cc578063463defd1146106a7578063470af83914610689578063493436241461066d578063495f92f1146106485780634f9522a4146105a1578063580120f0146105785780635ff972cc14610255578063608883b91461055a57806361461954146103e5578063636ba2311461053c57806363d9b770146103e557806364b3b78e1461051e5780636f2792661461050057806373da2cce146104e2578063786bc03d146104c45780637e549cc61461049b578063949651b71461047d57806397bff16b1461045f578063a82ed9ec14610430578063a99ae37514610412578063ad5c4648146103ea578063c0406226146103e5578063c1ffb3df146103c9578063caae2fa2146103ab578063caca68cd1461038d578063cc1f2afa14610365578063d78c428114610291578063db0e7cff14610273578063e946597a14610255578063ea78465814610237578063ee7201ff146102195763f0a011760361000f573461021657806003193601126102165760ff6020915460181c166040519015158152f35b80fd5b50346102165780600319360112610216576020601554604051908152f35b50346102165780600319360112610216576020601254604051908152f35b50346102165780600319360112610216576020600154604051908152f35b50346102165780600319360112610216576020600c54604051908152f35b50346102165780600319360112610216576040519080601954906102b482610d10565b808552916001811690811561033e57506001146102f4575b6102f0846102dc81860382610d48565b604051918291602083526020830190610d7e565b0390f35b601981525f5160206143105f395f51905f52939250905b808210610324575090915081016020016102dc826102cc565b91926001816020925483858801015201910190929161030b565b60ff191660208087019190915292151560051b850190920192506102dc91508390506102cc565b503461021657806003193601126102165760206040515f5160206142d05f395f51905f528152f35b50346102165780600319360112610216576020600654604051908152f35b50346102165780600319360112610216576020600854604051908152f35b5034610216578060031936011261021657602060405160018152f35b610da2565b503461021657806003193601126102165760206040515f5160206142505f395f51905f528152f35b50346102165780600319360112610216576020600a54604051908152f35b50346102165780600319360112610216576020604051737a250d5630b4cf539739df2c5dacb4c659f2488d8152f35b50346102165780600319360112610216576020601754604051908152f35b50346102165780600319360112610216576020600e54604051908152f35b50346102165780600319360112610216576014546040516001600160a01b039091168152602090f35b50346102165780600319360112610216576020600554604051908152f35b50346102165780600319360112610216576020600754604051908152f35b50346102165780600319360112610216576020601154604051908152f35b50346102165780600319360112610216576020600454604051908152f35b50346102165780600319360112610216576020600954604051908152f35b50346102165780600319360112610216576020600254604051908152f35b50346102165780600319360112610216576013546040516001600160a01b039091168152602090f35b50346102165780600319360112610216576040519080601854906105c482610d10565b808552916001811690811561033e57506001146105eb576102f0846102dc81860382610d48565b601881527fb13d2d76d1f4b7be834882e410b3e3a8afaf69f83600ae24db354391d2378d2e939250905b80821061062e575090915081016020016102dc826102cc565b919260018160209254838588010152019101909291610615565b503461021657806003193601126102165760ff6020915460101c166040519015158152f35b5034610216578060031936011261021657602090604051908152f35b50346102165780600319360112610216576020600d54604051908152f35b503461021657806003193601126102165760ff6020915460081c166040519015158152f35b5080600319360112610216576106e0610dfb565b80f35b50346102165780600319360112610216576020600354604051908152f35b50346102165780600319360112610216576020601054604051908152f35b50346102165780600319360112610216576020601654604051908152f35b503461021657806003193601126102165760ff60209154166040519015158152f35b5034610216578060031936011261021657602060405173d9e1ce17f2641f24ae83637ab66a2cca9c378b9f8152f35b503461021657806003193601126102165760206040515f5160206142b05f395f51905f528152f35b50346102165780600319360112610216576020600b54604051908152f35b5034610ab5576080366003190112610ab5576004356001600160a01b03811690819003610ab5576064359067ffffffffffffffff8211610ab55736602383011215610ab557816004013567ffffffffffffffff8111610ab557820190366024830111610ab5576013546001600160a01b03163303610cb6573003610c7d5760609082900312610ab557602481013560646044830135920135916017548203610c45576015548103610c0c576016548303610bd45780602435148015610bc9575b15610b9157604051636eb1769f60e11b81523060048201525f5160206142d05f395f51905f5260248201526020816044815f5160206142b05f395f51905f525afa908115610aaa575f91610b5f575b5010610ab9575b5f5160206142d05f395f51905f523b15610ab5576040519063cc9ae69360e01b825260048201525f81602481835f5160206142d05f395f51905f525af18015610aaa57610a95575b50804710610a50575f5160206142505f395f51905f523b15610a4c57604051630d0e30db60e41b815282908181600481865f5160206142505f395f51905f525af18015610a2c57610a37575b505060405163a9059cbb60e01b81523360048201526024810191909152602081604481855f5160206142505f395f51905f525af1908115610a2c5782916109fd575b50156109c95780f35b60405162461bcd60e51b815260206004820152600c60248201526b1c995c185e4819985a5b195960a21b6044820152606490fd5b610a1f915060203d602011610a25575b610a178183610d48565b810190610dc2565b5f6109c0565b503d610a0d565b6040513d84823e3d90fd5b81610a4191610d48565b610a4c57815f61097e565b5080fd5b60405162461bcd60e51b815260206004820152601a60248201527f696e73756666696369656e742045544820666f722072657061790000000000006044820152606490fd5b610aa29192505f90610d48565b5f905f610932565b6040513d5f823e3d90fd5b5f80fd5b60405163095ea7b360e01b81525f5160206142d05f395f51905f5260048201525f1960248201526020816044815f5f5160206142b05f395f51905f525af1908115610aaa575f91610b40575b506108ea5760405162461bcd60e51b815260206004820152600e60248201526d185c1c1c9bdd994819985a5b195960921b6044820152606490fd5b610b59915060203d602011610a2557610a178183610d48565b5f610b05565b90506020813d602011610b89575b81610b7a60209383610d48565b81010312610ab557515f6108e3565b3d9150610b6d565b60405162461bcd60e51b815260206004820152601060248201526f18985908199b185cda08185b5bdd5b9d60821b6044820152606490fd5b508060443514610894565b60405162461bcd60e51b815260206004820152601060248201526f756e657870656374656420726570617960801b6044820152606490fd5b60405162461bcd60e51b8152602060048201526011602482015270756e657870656374656420626f72726f7760781b6044820152606490fd5b60405162461bcd60e51b815260206004820152601060248201526f3ab732bc3832b1ba32b21037b93232b960811b6044820152606490fd5b60405162461bcd60e51b81526020600482015260116024820152703ab732bc3832b1ba32b21039b2b73232b960791b6044820152606490fd5b60405162461bcd60e51b815260206004820152600f60248201526e3ab732bc3832b1ba32b2103830b4b960891b6044820152606490fd5b34610ab5575f366003190112610ab557600f546001600160a01b03168152602090f35b90600182811c92168015610d3e575b6020831014610d2a57565b634e487b7160e01b5f52602260045260245ffd5b91607f1691610d1f565b90601f8019910116810190811067ffffffffffffffff821117610d6a57604052565b634e487b7160e01b5f52604160045260245ffd5b805180835260209291819084018484015e5f828201840152601f01601f1916010190565b5f366003190112610ab557610db5610dfb565b6020600154604051908152f35b90816020910312610ab557518015158103610ab55790565b91908203918211610de757565b634e487b7160e01b5f52601160045260245ffd5b5f5460ff81166113dd57600146036113aa5760ff19166001175f554760025560405163232cae0b60e01b81526020816004815f5160206142d05f395f51905f525afa908115610aaa575f91611378575b5060045560ff610e59611422565b610e61611747565b610e69611b24565b9082611370575b5081611368575b5061ff005f5491151560081b1662ff0000838261ff001985161760081c161560101b169162ffff0019161717805f5560081c16611275575b60405163232cae0b60e01b81526020816004815f5160206142d05f395f51905f525afa908115610aaa575f91611243575b508060055561020081115f1461123c576101ff198101818111610de7576101fe198201809111610de7575b6006555b60065481106111a657600c60075410801590611228575b6111a65780610f34816123a8565b9496925090929415928315611215575b50821561120a575b505080156111ac575b61119a5761118b57610f6791836130a7565b4760025480911161115e575b5060018114610f8b575b8015610de7575f1901610f0f565b505b6007541580611154575b611147575b478060035560025480821161111a575b505060ff5f5460181c161580611108575b610fc357565b610fce601854610d10565b601f81116110a2575b5060a760185560185f527f666f726b20686173206e6f2073756666696369656e746c79206d6973707269637fb13d2d76d1f4b7be834882e410b3e3a8afaf69f83600ae24db354391d2378d2e557f65642068696464656e206f726465727320726561636861626c65207468726f757fb13d2d76d1f4b7be834882e410b3e3a8afaf69f83600ae24db354391d2378d2f55726768207075626c6963206c697175696469747960681b7fb13d2d76d1f4b7be834882e410b3e3a8afaf69f83600ae24db354391d2378d3055565b60185f52601f0160051c7fb13d2d76d1f4b7be834882e410b3e3a8afaf69f83600ae24db354391d2378d2e017fb13d2d76d1f4b7be834882e410b3e3a8afaf69f83600ae24db354391d2378d315b8181106110fd5750610fd7565b5f81556001016110f0565b50611114601854610d10565b15610fbd565b61112391610dda565b8060015563ff0000005f5491151560181b169063ff0000001916175f555f80610fac565b61114f611dd8565b610f9c565b5060015415610f97565b6111689047610dda565b8060015563ff0000005f5491151560181b169063ff0000001916175f555f610f73565b6111959183612d36565b610f67565b50505060018103610f7d575b50610f8d565b506040516382afd23b60e01b8152600481018590526020816024815f5160206142d05f395f51905f525afa908115610aaa575f916111ec575b5015610f55565b611204915060203d8111610a2557610a178183610d48565b5f6111e5565b14159050845f610f4c565b67ffffffffffffffff161592505f610f44565b5067016345785d8a00006001541015610f26565b6001610f0b565b90506020813d60201161126d575b8161125e60209383610d48565b81010312610ab557515f610ee0565b3d9150611251565b611280601954610d10565b601f8111611328575b5060b160195560195f527f6d616b657220676574732030206964202d3e2063616e63656c2830292f6b696c5f5160206143105f395f51905f52557f6c283029206661696c202d3e20736561726368657220656e756d6572617465735f5160206142705f395f51905f52557f207265616c206964202d3e2074616b65287265616c49642900000000000000005f5160206142905f395f51905f5255610eaf565b60195f52601f0160051c5f5160206143105f395f51905f52015f5160206142f05f395f51905f525b81811061135d5750611289565b5f8155600101611350565b90505f610e77565b91505f610e70565b90506020813d6020116113a2575b8161139360209383610d48565b81010312610ab557515f610e4b565b3d9150611386565b60405162461bcd60e51b815260206004820152600b60248201526a3bb937b7339031b430b4b760a91b6044820152606490fd5b60405162461bcd60e51b815260206004820152601060248201526f185b1c9958591e48195e1958dd5d195960821b6044820152606490fd5b91908201809211610de757565b600147106117435760405163232cae0b60e01b81526020816004815f5160206142d05f395f51905f525afa908115610aaa575f91611711575b5060405163b42241ab60e01b8152600160048201526001602482015260208160448160015f5160206142d05f395f51905f525af15f91816116dd575b506114a25750505f90565b60405163232cae0b60e01b8152916020836004815f5160206142d05f395f51905f525afa928315610aaa575f936116a9575b508160095582600a558115908115916116a0575b811561168a575b506116395761150b825f5160206142d05f395f51905f52612478565b939190951561167e5767ffffffffffffffff1615938415611672575b508315611666575b508215611652575b508115611646575b5061163f57820361163957604051906382afd23b60e01b825260048201526020816024815f5160206142d05f395f51905f525afa908115610aaa575f9161161a575b506116155761159c5f5160206142d05f395f51905f526124ce565b15611615576115b8815f5160206142d05f395f51905f52612528565b1561161557604051906382afd23b60e01b825260048201526020816024815f5160206142d05f395f51905f525afa908115610aaa575f916115f857501590565b611611915060203d602011610a2557610a178183610d48565b1590565b505f90565b611633915060203d602011610a2557610a178183610d48565b5f611581565b50505f90565b5050505f90565b6001915014155f61153f565b6001600160a01b031630141591505f611537565b6001141592505f61152f565b6001141593505f611527565b50505050505050505f90565b905060018101809111610de7578214155f6114ef565b831591506114e8565b9092506020813d6020116116d5575b816116c560209383610d48565b81010312610ab55751915f6114d4565b3d91506116b8565b9091506020813d602011611709575b816116f960209383610d48565b81010312610ab55751905f611497565b3d91506116ec565b90506020813d60201161173b575b8161172c60209383610d48565b81010312610ab557515f61145b565b3d915061171f565b5f90565b6601c6bf5263400147106117435761175d6125f7565b80156116155761176c816128f1565b156116155760405163232cae0b60e01b8152906020826004815f5160206142d05f395f51905f525afa918215610aaa575f92611af0575b50604051635190ec4360e11b81526004810182905260016024820152906020826044815f5f5160206142d05f395f51905f525af15f9281611abc575b506117eb575050505f90565b60405163232cae0b60e01b8152926020846004815f5160206142d05f395f51905f525afa938415610aaa575f94611a88575b5082600b5583600c55821590811591611a7f575b8115611a69575b5061163f57611854835f5160206142d05f395f51905f52612478565b94959691909693929315611a5c5767ffffffffffffffff1615948515611a51575b50508315611a45575b508215611a31575b508115611a27575b5061163f57820361163957604051906382afd23b60e01b825260048201526020816024815f5160206142d05f395f51905f525afa908115610aaa575f91611a08575b50611615576118eb5f5160206142d05f395f51905f526124ce565b15611615576119065f5160206142d05f395f51905f52612b84565b1561161557611922815f5160206142d05f395f51905f52612528565b1561161557604051906382afd23b60e01b825260048201526020816024815f5160206142d05f395f51905f525afa908115610aaa575f916119e9575b50611743576040516370a0823160e01b81523060048201526020816024815f5160206142b05f395f51905f525afa908115610aaa575f916119b7575b50806119a7575b50600190565b6119b090612bdb565b505f6119a1565b90506020813d6020116119e1575b816119d260209383610d48565b81010312610ab557515f61199a565b3d91506119c5565b611a02915060203d602011610a2557610a178183610d48565b5f61195e565b611a21915060203d602011610a2557610a178183610d48565b5f6118d0565b905015155f61188e565b6001600160a01b031630141591505f611886565b6001141592505f61187e565b141593505f80611875565b5050505050505050505f90565b905060018101809111610de7578314155f611838565b84159150611831565b9093506020813d602011611ab4575b81611aa460209383610d48565b81010312610ab55751925f61181d565b3d9150611a97565b9092506020813d602011611ae8575b81611ad860209383610d48565b81010312610ab55751915f6117df565b3d9150611acb565b9091506020813d602011611b1c575b81611b0c60209383610d48565b81010312610ab55751905f6117a3565b3d9150611aff565b600147106117435760405163232cae0b60e01b81526020816004815f5160206142d05f395f51905f525afa908115610aaa575f91611d98575b506040516355e3d75360e11b8152600160048201526001602482015260208160448160015f5160206142d05f395f51905f525af15f9181611d64575b50611ba45750505f90565b60405163232cae0b60e01b8152916020836004815f5160206142d05f395f51905f525afa928315610aaa575f93611d30575b5081600d5582600e55811590811591611d27575b8115611d11575b5061163957611c0d825f5160206142d05f395f51905f52612478565b939190951561167e5767ffffffffffffffff1615938415611d05575b508315611cf9575b508215611ce5575b508115611cd9575b5061163f57820361163957604051906382afd23b60e01b825260048201526020816024815f5160206142d05f395f51905f525afa908115610aaa575f91611cba575b5061161557611c9e5f5160206142d05f395f51905f52612b84565b15611615576115b8815f5160206142d05f395f51905f52612cde565b611cd3915060203d602011610a2557610a178183610d48565b5f611c83565b6001915014155f611c41565b6001600160a01b031630141591505f611c39565b6001141592505f611c31565b6001141593505f611c29565b905060018101809111610de7578214155f611bf1565b83159150611bea565b9092506020813d602011611d5c575b81611d4c60209383610d48565b81010312610ab55751915f611bd6565b3d9150611d3f565b9091506020813d602011611d90575b81611d8060209383610d48565b81010312610ab55751905f611b99565b3d9150611d73565b90506020813d602011611dc2575b81611db360209383610d48565b81010312610ab557515f611b5d565b3d9150611da6565b5f198114610de75760010190565b5f64746a52880147111561203f576040516370a0823160e01b81523060048201526020816024815f5160206142b05f395f51905f525afa908115610aaa575f91612362575b5015612354575b6040516370a0823160e01b81523060048201526020816024815f5160206142b05f395f51905f525afa908115610aaa575f91612322575b501561203f576001601255611e6e6129e1565b1561203f576040516104b080820182811067ffffffffffffffff821117610d6a578291613da0833903905ff08015610aaa57600f80546001600160a01b0319166001600160a01b03929092169182179055600147111561231b57475f198101908111610de757905b8160115581156123165760209060046040518094819363d9c5216d60e01b83525af15f91816122e2575b50611f09575050565b60105560105480611f27815f5160206142d05f395f51905f52612478565b9395969290919496159485156122cf575b5084156122b5575b5083156122aa575b5050811561229e575b50612298576001149081159161228b575b50801561222c575b612228576040516370a0823160e01b815230600482015247916020826024815f5160206142b05f395f51905f525afa918215610aaa575f926121f4575b505f5160206142d05f395f51905f523b15610ab5576040519063cc9ae69360e01b825260048201525f81602481835f5160206142d05f395f51905f525af190816121df575b50611ff657505050565b6040516370a0823160e01b815230600482015291476020846024815f5160206142b05f395f51905f525afa9384156121d45785946121a0575b50119182612188575b5050612042575b50565b61204d600754611dca565b600755601054600855612061601954610d10565b601f8111612135575b5060199060f58255527f68656c706572206d616b6572207265636569766564207a65726f206f666665725f5160206143105f395f51905f52557f4554482069642c206661696c65642063616e63656c2830292c207665726966695f5160206142705f395f51905f52557f657220656e756d657261746564206c6173745f6f666665725f69642f6f6666655f5160206142905f395f51905f52557f7273287265616c49642920616e6420746f6f6b207265616c49640000000000005f5160206142f05f395f51905f5255565b60198252601f0160051c5f5160206143105f395f51905f52017f944998273e477b495144fb8794c914197f3ccb46be2900f4698fd0ef743c96995b81811061217d575061206a565b828155600101612170565b61219791925060125490611415565b10155f80612038565b9093506020813d6020116121cc575b816121bc60209383610d48565b81010312610ab55751925f61202f565b3d91506121af565b6040513d87823e3d90fd5b6121ec9194505f90610d48565b5f925f611fec565b9091506020813d602011612220575b8161221060209383610d48565b81010312610ab55751905f611fa7565b3d9150612203565b5050565b506040516382afd23b60e01b8152600481018290526020816024815f5160206142d05f395f51905f525afa908115610aaa575f9161226c575b5015611f6a565b612285915060203d602011610a2557610a178183610d48565b5f612265565b905060115414155f611f62565b50505050565b6001915014155f611f51565b14159150845f611f48565b600f546001600160a01b039182169116141593505f611f40565b67ffffffffffffffff161594505f611f38565b9091506020813d60201161230e575b816122fe60209383610d48565b81010312610ab55751905f611f00565b3d91506122f1565b505050565b5f90611ed6565b90506020813d60201161234c575b8161233d60209383610d48565b81010312610ab557515f611e5b565b3d9150612330565b61235c6127d1565b50611e24565b90506020813d60201161238c575b8161237d60209383610d48565b81010312610ab557515f611e1d565b3d9150612370565b51906001600160a01b0382168203610ab557565b60405190634539753560e11b8252600482015260c0816024815f5160206142d05f395f51905f525afa5f915f915f915f91805f925f92612403575b506123fe575050505050505f905f905f905f905f905f905f90565b600196565b965094505050505060c0823d60c011612470575b8161242460c09383610d48565b81010312610ab55781519060208301519261244160408201612394565b9260608201519267ffffffffffffffff84168403610ab55760a06080840151930151919594939291905f6123e3565b3d9150612417565b604051634539753560e11b8152600481019290925260c090829060249082906001600160a01b03165afa5f915f915f915f91805f925f9261240357506123fe575050505050505f905f905f905f905f905f905f90565b6040516340e58ee560e01b81525f600482018190529091602091839160249183916001600160a01b03165af1908161250b575b5061174357600190565b6125239060203d602011610a2557610a178183610d48565b612501565b6040516340e58ee560e01b81526004810192909252602090829060249082905f906001600160a01b03165af15f9181612569575b5061256657505f90565b90565b61258391925060203d602011610a2557610a178183610d48565b905f61255c565b8051156125975760200190565b634e487b7160e01b5f52603260045260245ffd5b8051600110156125975760400190565b90602080835192838152019201905f5b8181106125d85750505090565b82516001600160a01b03168452602093840193909201916001016125cb565b5f6001600160a01b036126106601c6bf526340006133cd565b16801580156127ca575b6116395760405161262c606082610d48565b6002815260403660208301375f5160206142505f395f51905f5261264f8261258a565b525f5160206142b05f395f51905f52612667826125ab565b526040516370a0823160e01b8152306004820152916020836024815f5160206142b05f395f51905f525afa928315610aaa575f93612796575b50803b15610ab5576126e05f916601c6bf526340009360405194858094819363b6f9de9560e01b83528760048401526080602484015260848301906125bb565b30604483015242606483015203925af19081612781575b50612700575090565b6040516370a0823160e01b8152306004820152916020836024815f5160206142b05f395f51905f525afa9081156127755790612741575b6125669250610dda565b506020823d60201161276d575b8161275b60209383610d48565b81010312610ab5576125669151612737565b3d915061274e565b604051903d90823e3d90fd5b61278e9193505f90610d48565b5f915f6126f7565b9092506020813d6020116127c2575b816127b260209383610d48565b81010312610ab55751915f6126a0565b3d91506127a5565b505f61261a565b5f6001600160a01b036127e864746a5288006133cd565b16801580156128ea575b61163957604051612804606082610d48565b6002815260403660208301375f5160206142505f395f51905f526128278261258a565b525f5160206142b05f395f51905f5261283f826125ab565b526040516370a0823160e01b8152306004820152916020836024815f5160206142b05f395f51905f525afa928315610aaa575f936128b6575b50803b15610ab5576126e05f9164746a5288009360405194858094819363b6f9de9560e01b83528760048401526080602484015260848301906125bb565b9092506020813d6020116128e2575b816128d260209383610d48565b81010312610ab55751915f612878565b3d91506128c5565b505f6127f2565b604051636eb1769f60e11b81523060048201525f5160206142d05f395f51905f5260248201526020816044815f5160206142b05f395f51905f525afa908115610aaa575f916129af575b5010156129aa5760405163095ea7b360e01b81525f5160206142d05f395f51905f5260048201525f1960248201526020816044815f5f5160206142b05f395f51905f525af1908115610aaa575f91612991575090565b612566915060203d602011610a2557610a178183610d48565b600190565b90506020813d6020116129d9575b816129ca60209383610d48565b81010312610ab557515f61293b565b3d91506129bd565b604051636eb1769f60e11b81523060048201525f5160206142d05f395f51905f5260248201526020816044815f5160206142b05f395f51905f525afa8015610aaa575f90612a83575b6001915010156129aa5760405163095ea7b360e01b81525f5160206142d05f395f51905f5260048201525f1960248201526020816044815f5f5160206142b05f395f51905f525af1908115610aaa575f91612991575090565b506020813d602011612aae575b81612a9d60209383610d48565b81010312610ab55760019051612a2a565b3d9150612a90565b604051636eb1769f60e11b81523060048201526001600160a01b03821660248201529091906020816044815f5160206142b05f395f51905f525afa908115610aaa575f91612b52575b5010156119a15760405163095ea7b360e01b81526001600160a01b0390911660048201525f1960248201526020816044815f5f5160206142b05f395f51905f525af1908115610aaa575f91612991575090565b90506020813d602011612b7c575b81612b6d60209383610d48565b81010312610ab557515f612aff565b3d9150612b60565b5f906001600160a01b0316803b15610ab5575f809160246040518094819363169f36d960e31b83528160048401525af19081612bc6575b506125665750600190565b612bd39192505f90610d48565b5f905f612bbb565b5f90801561163957612bec816135bf565b6001600160a01b038116908115612cd65782612c0791612ab6565b1561163f5760405191612c1b606084610d48565b6002835260403660208501375f5160206142b05f395f51905f52612c3e8461258a565b525f5160206142505f395f51905f52612c56846125ab565b524792823b15610ab557612c96925f928360405180968195829463791ac94760e01b8452600484015283602484015260a0604484015260a48301906125bb565b30606483015242608483015203925af19081612cc1575b50612cb6575090565b612566915047610dda565b612cce9193505f90610d48565b5f915f612cad565b505050505f90565b5f916001600160a01b0390911690813b15610ab5575f9160248392604051948593849263169f36d960e31b845260048401525af19081612d21575b506119a15790565b612d2e9192505f90610d48565b5f905f612d19565b905f928115801561309f575b61229857612d4f816135f4565b936001600160a01b039092169182158015613097575b61308e576019850285810460191486151715610de757612710612d89910486611415565b9060018201809211610de757111561308657816001600160601b0360a01b601354161760135560018060a01b03166001600160601b0360a01b6014541617601455816015558260165583601755479260405190856020830152836040830152606082015260608152612dfc608082610d48565b604051630dfe168160e01b81525f93908490602081600481885afa8015610aaa575f90613040575b6001600160a01b03165f5160206142b05f395f51905f52141590506130375750915b803b15610ab557612e89935f80946040519687958694859363022c0d9f60e01b855260048501526024840152306044840152608060648401526084830190610d7e565b03925af19081613022575b50612ecd575b50506001600160601b0360a01b601354166013556001600160601b0360a01b601454166014558060155580601655601755565b4711612eda575b80612e9a565b612ee5600754611dca565b600755600855612ef6601954610d10565b601f8111612fcf575b5060fb601955601981527f6d616b65722067657473207a65726f204554482d6f726465722069642c2063615f5160206143105f395f51905f52557f6e63656c2830292f6b696c6c283029206661696c2c20766572696669657220655f5160206142705f395f51905f52557f6e756d657261746573206f6666657273287265616c49642920616e6420666c615f5160206142905f395f51905f52557f73682d626f72726f77732048455820746f2074616b65207265616c49640000005f5160206142f05f395f51905f52555f612ed4565b60198252601f0160051c5f5160206143105f395f51905f52017f944998273e477b495144fb8794c914197f3ccb46be2900f4698fd0ef743c96995b8181106130175750612eff565b82815560010161300a565b61302f9194505f90610d48565b5f925f612e94565b92935092612e46565b506020813d60201161307e575b8161305a60209383610d48565b81010312610ab5576130795f5160206142b05f395f51905f5291612394565b612e24565b3d915061304d565b505050505050565b50505050505050565b508415612d65565b508015612d42565b90915f928115908180156133c5575b80156133bc575b613332576130d36130cd82613721565b916137d2565b8082106133b45750905b81156133325760c883029083820460c8141715610de757612710613102910483611415565b9060018201809211610de7571115612316576040516370a0823160e01b815230600482015247916020826024815f5160206142b05f395f51905f525afa918215610aaa575f92613380575b505f5160206142d05f395f51905f523b15610ab5575f6024916040519283809263cc9ae69360e01b82528860048301525f5160206142d05f395f51905f525af1908161336b575b5061319f5750505050565b6040516370a0823160e01b81523060048201526020816024815f5160206142b05f395f51905f525afa9081156121d4578591613339575b5081811115613332576131f1916131ec91610dda565b612bdb565b504711613200575b8080612298565b61320b600754611dca565b60075560085561321c601954610d10565b601f81116132df575b5060199060cf8255527f6d616b65722073656573207a65726f2069642c2063616e6e6f742063616e63655f5160206143105f395f51905f52557f6c2c20766572696669657220656e756d657261746573206f66666572732872655f5160206142705f395f51905f52557f616c49642920616e642074616b65732068696464656e204845582d657363726f5f5160206142905f395f51905f5255663b9037b93232b960c91b5f5160206142f05f395f51905f52555f806131f9565b60198252601f0160051c5f5160206143105f395f51905f52017f944998273e477b495144fb8794c914197f3ccb46be2900f4698fd0ef743c96995b8181106133275750613225565b82815560010161331a565b5050505050565b90506020813d602011613363575b8161335460209383610d48565b81010312610ab557515f6131d6565b3d9150613347565b6133789195505f90610d48565b5f935f613194565b9091506020813d6020116133ac575b8161339c60209383610d48565b81010312610ab55751905f61314d565b3d915061338f565b9050906130dd565b508247106130bd565b5080156130b6565b5f6040516133dc606082610d48565b6002815260409061343b905f90833660208301375f5160206142505f395f51905f526134078261258a565b525f5160206142b05f395f51905f5261341f826125ab565b526040518093819263d06ca61f60e01b8352886004840161370a565b0381737a250d5630b4cf539739df2c5dacb4c659f2488d5afa5f91816135a3575b50613580575b505f6134ce91819460405191613479606084610d48565b600283523660208401375f5160206142505f395f51905f5261349a8361258a565b525f5160206142b05f395f51905f526134b2836125ab565b5260405163d06ca61f60e01b815293849283926004840161370a565b038173d9e1ce17f2641f24ae83637ab66a2cca9c378b9f5afa5f918161355c575b5061353f575b50801580613537575b611639571061351f57737a250d5630b4cf539739df2c5dacb4c659f2488d90565b73d9e1ce17f2641f24ae83637ab66a2cca9c378b9f90565b5081156134fe565b6001815111156134f5576135549192506125ab565b51905f6134f5565b6135799192503d805f833e6135718183610d48565b810190613684565b905f6134ef565b600181511115613462576134ce91925061359a5f916125ab565b51929150613462565b6135b89192503d805f833e6135718183610d48565b905f61345c565b6135cb6130cd82613721565b9080158061353757611639571061351f57737a250d5630b4cf539739df2c5dacb4c659f2488d90565b6136099061360181613810565b929091613b74565b9290918115808061367c575b61366f57158061365d575b6136405750509173d9e1ce17f2641f24ae83637ab66a2cca9c378b9f9190565b93737a250d5630b4cf539739df2c5dacb4c659f2488d9350909150565b50831580613620575083821115613620565b50505050505f905f905f90565b508415613615565b602081830312610ab55780519067ffffffffffffffff8211610ab557019080601f83011215610ab55781519167ffffffffffffffff8311610d6a578260051b9060208201936136d66040519586610d48565b8452602080850192820101928311610ab557602001905b8282106136fa5750505090565b81518152602091820191016136ed565b6040906125669392815281602082015201906125bb565b906137725f809360405190613737606083610d48565b6002825260403660208401375f5160206142b05f395f51905f5261375a8361258a565b525f5160206142505f395f51905f526134b2836125ab565b0381737a250d5630b4cf539739df2c5dacb4c659f2488d5afa5f91816137b6575b5061379b5750565b60018151116137a75750565b6137b29192506125ab565b5190565b6137cb9192503d805f833e6135718183610d48565b905f613793565b906137e85f809360405190613737606083610d48565b038173d9e1ce17f2641f24ae83637ab66a2cca9c378b9f5afa5f91816137b6575061379b5750565b60405163c45a015560e01b81529190602083600481737a250d5630b4cf539739df2c5dacb4c659f2488d5afa928315610aaa575f93613b35575b5060405163e6a4390560e01b81525f5160206142b05f395f51905f5260048201525f5160206142505f395f51905f52602482015292602090849060449082906001600160a01b03165afa928315610aaa575f93613af9575b506001600160a01b03831615613af157604051630dfe168160e01b8152906001600160a01b0384165f80602085600481865afa948515610aaa575f95613ab5575b5060405163d21220a760e01b815292602084600481845afa938415610aaa575f94613a76575b5092606060049460405195868092630240bc6b60e21b82525afa958615610aaa575f945f97613a1b575b506001600160a01b03165f5160206142b05f395f51905f528114806139fc575b1561399c57505050506001600160701b038091169216905b82158015613994575b801561398a575b61163f57906125669291613cf9565b508281101561397b565b508115613974565b9295919493925f5160206142505f395f51905f521490816139dc575b506139c5575b505061396b565b6001600160701b0390811694501691505f806139be565b6001600160a01b03165f5160206142b05f395f51905f521490505f6139b8565b506001600160a01b0382165f5160206142505f395f51905f5214613953565b945095506060843d606011613a6e575b81613a3860609383610d48565b81010312610ab557613a4984613ce5565b6040613a5760208701613ce5565b95015163ffffffff811603610ab55793955f613933565b3d9150613a2b565b93506020843d602011613aad575b81613a9160209383610d48565b81010312610ab5576060613aa6600495612394565b9450613909565b3d9150613a84565b9094506020813d602011613ae9575b81613ad160209383610d48565b81010312610ab557613ae290612394565b935f6138e3565b3d9150613ac4565b505f91508190565b9092506020813d602011613b2d575b81613b1560209383610d48565b81010312610ab557613b2690612394565b915f6138a2565b3d9150613b08565b92506020833d602011613b6c575b81613b5060209383610d48565b81010312610ab5576020613b65604494612394565b935061384a565b3d9150613b43565b60405163c45a015560e01b8152919060208360048173d9e1ce17f2641f24ae83637ab66a2cca9c378b9f5afa928315610aaa575f93613b35575060405163e6a4390560e01b81525f5160206142b05f395f51905f5260048201525f5160206142505f395f51905f52602482015292602090849060449082906001600160a01b03165afa928315610aaa575f93613af957506001600160a01b03831615613af157604051630dfe168160e01b8152906001600160a01b0384165f80602085600481865afa948515610aaa575f95613ab5575060405163d21220a760e01b815292602084600481845afa938415610aaa575f94613a76575092606060049460405195868092630240bc6b60e21b82525afa958615610aaa575f945f97613a1b57506001600160a01b03165f5160206142b05f395f51905f528114806139fc571561399c57505050506001600160701b038091169216908215801561399457801561398a5761163f57906125669291613cf9565b51906001600160701b0382168203610ab557565b91909180158015613d97575b8015613d8f575b8015613d85575b61163f5780830292808404821490151715610de7576103e88302928084046103e81490151715610de757613d4691610dda565b906103e58202918083046103e51490151715610de7578115613d71570460018101809111610de75790565b634e487b7160e01b5f52601260045260245ffd5b5081811015613d13565b508115613d0c565b508215613d0556fe60808060405234601557610496908161001a8239f35b5f80fdfe608080604052600436101561001c575b50361561001a575f80fd5b005b5f3560e01c9081631e8c148c1461031757508063462fac5a146102fa578063470eff88146102d55780637e094752146102b95763d9c5216d1461005f575f61000f565b5f3660031901126102075734156102885760405163b42241ab60e01b8152346004820152600160248201526020816044813473204b937feaec333e9e6d72d35f1d131f187ecea15af1908115610213575f91610256575b50805f5561021e5760405163232cae0b60e01b815260208160048173204b937feaec333e9e6d72d35f1d131f187ecea15afa908115610213575f916101dd575b5060015561010261036c565b151560ff80196002541691161760025561011a6103e9565b151560ff61ff006002549260081b1661ff0019831617918260025516156101985760081c60ff1615610153576020600154604051908152f35b60405162461bcd60e51b815260206004820152601b60248201527f6b696c6c28302920756e65787065637465646c7920776f726b656400000000006044820152606490fd5b60405162461bcd60e51b815260206004820152601d60248201527f63616e63656c28302920756e65787065637465646c7920776f726b65640000006044820152606490fd5b90506020813d60201161020b575b816101f860209383610336565b8101031261020757515f6100f6565b5f80fd5b3d91506101eb565b6040513d5f823e3d90fd5b60405162461bcd60e51b815260206004820152601060248201526f195e1c1958dd1959081e995c9bc81a5960821b6044820152606490fd5b90506020813d602011610280575b8161027160209383610336565b8101031261020757515f6100b6565b3d9150610264565b60405162461bcd60e51b81526020600482015260096024820152681b9bc8189d5919d95d60ba1b6044820152606490fd5b34610207575f3660031901126102075760205f54604051908152f35b34610207575f36600319011261020757602060ff60025460081c166040519015158152f35b34610207575f366003190112610207576020600154604051908152f35b34610207575f3660031901126102075760209060ff6002541615158152f35b90601f8019910116810190811067ffffffffffffffff82111761035857604052565b634e487b7160e01b5f52604160045260245ffd5b6040516340e58ee560e01b81525f60048201526020816024815f73204b937feaec333e9e6d72d35f1d131f187ecea15af190816103b2575b506103ae57600190565b5f90565b6020813d6020116103e1575b816103cb60209383610336565b81010312610207575180151581146103a4575f80fd5b3d91506103be565b5f73204b937feaec333e9e6d72d35f1d131f187ecea13b156102075760405163169f36d960e31b81525f60048201819052816024818373204b937feaec333e9e6d72d35f1d131f187ecea15af1908161044b575b506104485750600190565b90565b6104589192505f90610336565b5f905f61043d56fea2646970667358221220fccc728f5a0f66d0c73b5693e7e3b549e57c250720cbb1a1edc355b14b859d8064736f6c634300081e0033000000000000000000000000c02aaa39b223fe8d0a0e5c4f27ead9083c756cc2944998273e477b495144fb8794c914197f3ccb46be2900f4698fd0ef743c9696944998273e477b495144fb8794c914197f3ccb46be2900f4698fd0ef743c96970000000000000000000000002b591e99afe9f32eaa6214f7b7629768c40eeb39000000000000000000000000204b937feaec333e9e6d72d35f1d131f187ecea1944998273e477b495144fb8794c914197f3ccb46be2900f4698fd0ef743c9698944998273e477b495144fb8794c914197f3ccb46be2900f4698fd0ef743c9695a26469706673582212207a8cacf4a5b58afed846c28607364e1d3c1cb82d6564786e9abc261c9f9b6ac564736f6c634300081e0033","linkReferences":{}},"methodIdentifiers":{"EXPECTED_CHAIN_ID()":"c1ffb3df","HEX()":"1d558966","SUSHISWAP_ROUTER()":"277754ed","TARGET()":"cc1f2afa","UNISWAP_V2_ROUTER()":"a82ed9ec","WETH()":"ad5c4648","execute()":"61461954","executeOnOpportunity()":"3c2448ed","executed()":"31a38c89","executedRounds()":"73da2cce","executionEndEthBalance()":"3b83b4d8","executionStartEthBalance()":"608883b9","exploit()":"63d9b770","exploitPathUsed()":"d78c4281","failureReason()":"4f9522a4","flashBorrowAmount()":"ee7201ff","flashOrderId()":"97bff16b","flashPairUsed()":"580120f0","flashRepayAmount()":"344f09cc","flashRouterUsed()":"7e549cc6","helperBudget()":"6f279266","helperHexSpent()":"ea784658","helperRealId()":"367ed0e2","hypothesisRefuted()":"495f92f1","hypothesisValidated()":"463defd1","makeRealId()":"949651b7","makeReturnedId()":"470af839","makerHelper()":"0973083c","observedLastOfferId()":"64b3b78e","offerEthRealId()":"a99ae375","offerEthReturnedId()":"636ba231","offerHexRealId()":"db0e7cff","offerHexReturnedId()":"17213b52","profitAchieved()":"f0a01176","profitAmount()":"5ff972cc","profitAmountValue()":"e946597a","profitToken()":"49343624","profitableId()":"caae2fa2","run()":"c0406226","scanEndId()":"caca68cd","scanStartId()":"786bc03d","uniswapV2Call(address,uint256,uint256,bytes)":"10d1e85c"},"id":0}