{"abi":[{"type":"constructor","inputs":[],"stateMutability":"nonpayable"},{"type":"receive","stateMutability":"payable"},{"type":"function","name":"cancelZeroFailed","inputs":[],"outputs":[{"name":"","type":"bool","internalType":"bool"}],"stateMutability":"view"},{"type":"function","name":"createHiddenEthOrder","inputs":[],"outputs":[{"name":"","type":"uint256","internalType":"uint256"}],"stateMutability":"payable"},{"type":"function","name":"killZeroFailed","inputs":[],"outputs":[{"name":"","type":"bool","internalType":"bool"}],"stateMutability":"view"},{"type":"function","name":"realId","inputs":[],"outputs":[{"name":"","type":"uint256","internalType":"uint256"}],"stateMutability":"view"},{"type":"function","name":"returnedId","inputs":[],"outputs":[{"name":"","type":"uint256","internalType":"uint256"}],"stateMutability":"view"}],"bytecode":{"object":"0x60808060405234601557610496908161001a8239f35b5f80fdfe608080604052600436101561001c575b50361561001a575f80fd5b005b5f3560e01c9081631e8c148c1461031757508063462fac5a146102fa578063470eff88146102d55780637e094752146102b95763d9c5216d1461005f575f61000f565b5f3660031901126102075734156102885760405163b42241ab60e01b8152346004820152600160248201526020816044813473204b937feaec333e9e6d72d35f1d131f187ecea15af1908115610213575f91610256575b50805f5561021e5760405163232cae0b60e01b815260208160048173204b937feaec333e9e6d72d35f1d131f187ecea15afa908115610213575f916101dd575b5060015561010261036c565b151560ff80196002541691161760025561011a6103e9565b151560ff61ff006002549260081b1661ff0019831617918260025516156101985760081c60ff1615610153576020600154604051908152f35b60405162461bcd60e51b815260206004820152601b60248201527f6b696c6c28302920756e65787065637465646c7920776f726b656400000000006044820152606490fd5b60405162461bcd60e51b815260206004820152601d60248201527f63616e63656c28302920756e65787065637465646c7920776f726b65640000006044820152606490fd5b90506020813d60201161020b575b816101f860209383610336565b8101031261020757515f6100f6565b5f80fd5b3d91506101eb565b6040513d5f823e3d90fd5b60405162461bcd60e51b815260206004820152601060248201526f195e1c1958dd1959081e995c9bc81a5960821b6044820152606490fd5b90506020813d602011610280575b8161027160209383610336565b8101031261020757515f6100b6565b3d9150610264565b60405162461bcd60e51b81526020600482015260096024820152681b9bc8189d5919d95d60ba1b6044820152606490fd5b34610207575f3660031901126102075760205f54604051908152f35b34610207575f36600319011261020757602060ff60025460081c166040519015158152f35b34610207575f366003190112610207576020600154604051908152f35b34610207575f3660031901126102075760209060ff6002541615158152f35b90601f8019910116810190811067ffffffffffffffff82111761035857604052565b634e487b7160e01b5f52604160045260245ffd5b6040516340e58ee560e01b81525f60048201526020816024815f73204b937feaec333e9e6d72d35f1d131f187ecea15af190816103b2575b506103ae57600190565b5f90565b6020813d6020116103e1575b816103cb60209383610336565b81010312610207575180151581146103a4575f80fd5b3d91506103be565b5f73204b937feaec333e9e6d72d35f1d131f187ecea13b156102075760405163169f36d960e31b81525f60048201819052816024818373204b937feaec333e9e6d72d35f1d131f187ecea15af1908161044b575b506104485750600190565b90565b6104589192505f90610336565b5f905f61043d56fea2646970667358221220fccc728f5a0f66d0c73b5693e7e3b549e57c250720cbb1a1edc355b14b859d8064736f6c634300081e0033","linkReferences":{}},"methodIdentifiers":{"cancelZeroFailed()":"1e8c148c","createHiddenEthOrder()":"d9c5216d","killZeroFailed()":"470eff88","realId()":"462fac5a","returnedId()":"7e094752"},"id":0}