{"abi":[{"type":"constructor","inputs":[{"name":"owner","type":"address","internalType":"address"},{"name":"target","type":"address","internalType":"address"},{"name":"data","type":"bytes","internalType":"bytes"}],"stateMutability":"nonpayable"},{"type":"function","name":"ok","inputs":[],"outputs":[{"name":"","type":"bool","internalType":"bool"}],"stateMutability":"view"}],"bytecode":{"object":"0x608060405234801561000f575f5ffd5b506040516104e83803806104e8833981810160405281019061003191906102d7565b8273ffffffffffffffffffffffffffffffffffffffff16631cff79cd60e01b83836040516024016100639291906103a4565b604051602081830303815290604052907bffffffffffffffffffffffffffffffffffffffffffffffffffffffff19166020820180517bffffffffffffffffffffffffffffffffffffffffffffffffffffffff83818316178352505050506040516100cd919061040c565b5f604051808303815f865af19150503d805f8114610106576040519150601f19603f3d011682016040523d82523d5f602084013e61010b565b606091505b50505f5f8291906101000a81548160ff02191690831515021790555050505050610422565b5f604051905090565b5f5ffd5b5f5ffd5b5f73ffffffffffffffffffffffffffffffffffffffff82169050919050565b5f61016a82610141565b9050919050565b61017a81610160565b8114610184575f5ffd5b50565b5f8151905061019581610171565b92915050565b5f5ffd5b5f5ffd5b5f601f19601f8301169050919050565b7f4e487b71000000000000000000000000000000000000000000000000000000005f52604160045260245ffd5b6101e9826101a3565b810181811067ffffffffffffffff82111715610208576102076101b3565b5b80604052505050565b5f61021a610130565b905061022682826101e0565b919050565b5f67ffffffffffffffff821115610245576102446101b3565b5b61024e826101a3565b9050602081019050919050565b8281835e5f83830152505050565b5f61027b6102768461022b565b610211565b9050828152602081018484840111156102975761029661019f565b5b6102a284828561025b565b509392505050565b5f82601f8301126102be576102bd61019b565b5b81516102ce848260208601610269565b91505092915050565b5f5f5f606084860312156102ee576102ed610139565b5b5f6102fb86828701610187565b935050602061030c86828701610187565b925050604084015167ffffffffffffffff81111561032d5761032c61013d565b5b610339868287016102aa565b9150509250925092565b61034c81610160565b82525050565b5f81519050919050565b5f82825260208201905092915050565b5f61037682610352565b610380818561035c565b935061039081856020860161025b565b610399816101a3565b840191505092915050565b5f6040820190506103b75f830185610343565b81810360208301526103c9818461036c565b90509392505050565b5f81905092915050565b5f6103e682610352565b6103f081856103d2565b935061040081856020860161025b565b80840191505092915050565b5f61041782846103dc565b915081905092915050565b60ba8061042e5f395ff3fe6080604052348015600e575f5ffd5b50600436106026575f3560e01c8063d909b40314602a575b5f5ffd5b60306044565b604051603b9190606d565b60405180910390f35b5f5f9054906101000a900460ff1681565b5f8115159050919050565b6067816055565b82525050565b5f602082019050607e5f8301846060565b9291505056fea264697066735822122062e7892fb3895db3d31070948721eefad090c6fadb3eef9d63cb830e8305613c64736f6c634300081e0033","linkReferences":{}},"methodIdentifiers":{"ok()":"d909b403"},"id":0}