{"abi":[{"type":"constructor","inputs":[],"stateMutability":"nonpayable"},{"type":"function","name":"TARGET_PAIR","inputs":[],"outputs":[{"name":"","type":"address","internalType":"address"}],"stateMutability":"view"},{"type":"function","name":"activePid","inputs":[],"outputs":[{"name":"","type":"uint256","internalType":"uint256"}],"stateMutability":"view"},{"type":"function","name":"collateralToken","inputs":[],"outputs":[{"name":"","type":"address","internalType":"address"}],"stateMutability":"view"},{"type":"function","name":"convexBooster","inputs":[],"outputs":[{"name":"","type":"address","internalType":"address"}],"stateMutability":"view"},{"type":"function","name":"debtToken","inputs":[],"outputs":[{"name":"","type":"address","internalType":"address"}],"stateMutability":"view"},{"type":"function","name":"executeOnOpportunity","inputs":[],"outputs":[],"stateMutability":"nonpayable"},{"type":"function","name":"executed","inputs":[],"outputs":[{"name":"","type":"bool","internalType":"bool"}],"stateMutability":"view"},{"type":"function","name":"flashBorrowAmount","inputs":[],"outputs":[{"name":"","type":"uint256","internalType":"uint256"}],"stateMutability":"view"},{"type":"function","name":"flashBorrowToken","inputs":[],"outputs":[{"name":"","type":"address","internalType":"address"}],"stateMutability":"view"},{"type":"function","name":"flashPair","inputs":[],"outputs":[{"name":"","type":"address","internalType":"address"}],"stateMutability":"view"},{"type":"function","name":"flashRepayDebtAmount","inputs":[],"outputs":[{"name":"","type":"uint256","internalType":"uint256"}],"stateMutability":"view"},{"type":"function","name":"hiddenCollateral","inputs":[],"outputs":[{"name":"","type":"uint256","internalType":"uint256"}],"stateMutability":"view"},{"type":"function","name":"historicalMigrationState","inputs":[],"outputs":[{"name":"","type":"bool","internalType":"bool"}],"stateMutability":"view"},{"type":"function","name":"pairOwner","inputs":[],"outputs":[{"name":"","type":"address","internalType":"address"}],"stateMutability":"view"},{"type":"function","name":"plannedBorrowAmount","inputs":[],"outputs":[{"name":"","type":"uint256","internalType":"uint256"}],"stateMutability":"view"},{"type":"function","name":"preExistingHiddenCollateral","inputs":[],"outputs":[{"name":"","type":"uint256","internalType":"uint256"}],"stateMutability":"view"},{"type":"function","name":"profitAmount","inputs":[],"outputs":[{"name":"","type":"uint256","internalType":"uint256"}],"stateMutability":"view"},{"type":"function","name":"profitToken","inputs":[],"outputs":[{"name":"","type":"address","internalType":"address"}],"stateMutability":"view"},{"type":"function","name":"startingPid","inputs":[],"outputs":[{"name":"","type":"uint256","internalType":"uint256"}],"stateMutability":"view"},{"type":"function","name":"underlyingToken","inputs":[],"outputs":[{"name":"","type":"address","internalType":"address"}],"stateMutability":"view"},{"type":"function","name":"uniswapV2Call","inputs":[{"name":"sender","type":"address","internalType":"address"},{"name":"amount0","type":"uint256","internalType":"uint256"},{"name":"amount1","type":"uint256","internalType":"uint256"},{"name":"data","type":"bytes","internalType":"bytes"}],"outputs":[],"stateMutability":"nonpayable"}],"bytecode":{"object":"0x608060405234801561000f575f5ffd5b505f5f5f736e90c85a495d54c6d7e1f3400fef1f6e59f86bd673ffffffffffffffffffffffffffffffffffffffff16637b10399960e01b604051602401604051602081830303815290604052907bffffffffffffffffffffffffffffffffffffffffffffffffffffffff19166020820180517bffffffffffffffffffffffffffffffffffffffffffffffffffffffff83818316178352505050506040516100b691906102c0565b5f60405180830381855afa9150503d805f81146100ee576040519150601f19603f3d011682016040523d82523d5f602084013e6100f3565b606091505b509150915081801561010757506020815110155b15610225575f818060200190518101906101219190610334565b90505f5f8273ffffffffffffffffffffffffffffffffffffffff1663fc0c546a60e01b604051602401604051602081830303815290604052907bffffffffffffffffffffffffffffffffffffffffffffffffffffffff19166020820180517bffffffffffffffffffffffffffffffffffffffffffffffffffffffff83818316178352505050506040516101b491906102c0565b5f60405180830381855afa9150503d805f81146101ec576040519150601f19603f3d011682016040523d82523d5f602084013e6101f1565b606091505b509150915081801561020557506020815110155b15610221578080602001905181019061021e9190610334565b95505b5050505b82600e60016101000a81548173ffffffffffffffffffffffffffffffffffffffff021916908373ffffffffffffffffffffffffffffffffffffffff16021790555050505061035f565b5f81519050919050565b5f81905092915050565b8281835e5f83830152505050565b5f61029a8261026e565b6102a48185610278565b93506102b4818560208601610282565b80840191505092915050565b5f6102cb8284610290565b915081905092915050565b5f5ffd5b5f73ffffffffffffffffffffffffffffffffffffffff82169050919050565b5f610303826102da565b9050919050565b610313816102f9565b811461031d575f5ffd5b50565b5f8151905061032e8161030a565b92915050565b5f60208284031215610349576103486102d6565b5b5f61035684828501610320565b91505092915050565b6145378061036c5f395ff3fe608060405234801561000f575f5ffd5b5060043610610135575f3560e01c80635ff972cc116100b6578063ac7ab8d21161007a578063ac7ab8d2146102e5578063b2016bd414610303578063ba7e1b3914610321578063ee7201ff1461033f578063f66102f51461035d578063f8d898981461037b57610135565b80635ff972cc1461024f578063628ccb171461026d57806366cfaebb1461028b5780636f98fb5d146102a95780638f20f7ed146102c757610135565b80632cdacb50116100fd5780632cdacb50146101cd5780632ec2fe3d146101eb57806331a38c89146102095780633c2448ed14610227578063493436241461023157610135565b806305bc167c1461013957806310d1e85c1461015757806320d1d11b146101735780632495a59914610191578063254b5f3f146101af575b5f5ffd5b610141610399565b60405161014e9190612ff8565b60405180910390f35b610171600480360381019061016c91906130fe565b61039f565b005b61017b610e7c565b604051610188919061319c565b60405180910390f35b610199610e8e565b6040516101a691906131c4565b60405180910390f35b6101b7610eb3565b6040516101c491906131c4565b60405180910390f35b6101d5610ed8565b6040516101e291906131c4565b60405180910390f35b6101f3610efd565b60405161020091906131c4565b60405180910390f35b610211610f22565b60405161021e919061319c565b60405180910390f35b61022f610f33565b005b6102396119f2565b60405161024691906131c4565b60405180910390f35b610257611a1b565b6040516102649190612ff8565b60405180910390f35b610275611a24565b6040516102829190612ff8565b60405180910390f35b610293611a2a565b6040516102a09190612ff8565b60405180910390f35b6102b1611a30565b6040516102be91906131c4565b60405180910390f35b6102cf611a55565b6040516102dc9190612ff8565b60405180910390f35b6102ed611a5b565b6040516102fa91906131c4565b60405180910390f35b61030b611a73565b60405161031891906131c4565b60405180910390f35b610329611a98565b6040516103369190612ff8565b60405180910390f35b610347611a9e565b6040516103549190612ff8565b60405180910390f35b610365611aa4565b6040516103729190612ff8565b60405180910390f35b610383611aaa565b60405161039091906131c4565b60405180910390f35b600c5481565b60075f9054906101000a900473ffffffffffffffffffffffffffffffffffffffff1673ffffffffffffffffffffffffffffffffffffffff163373ffffffffffffffffffffffffffffffffffffffff161461042e576040517f08c379a000000000000000000000000000000000000000000000000000000000815260040161042590613237565b60405180910390fd5b3073ffffffffffffffffffffffffffffffffffffffff168573ffffffffffffffffffffffffffffffffffffffff161461049c576040517f08c379a00000000000000000000000000000000000000000000000000000000081526004016104939061329f565b60405180910390fd5b5f82828101906104ac91906132bd565b90505f5f86116104bc57846104be565b855b90506009548114610504576040517f08c379a00000000000000000000000000000000000000000000000000000000081526004016104fb90613332565b60405180910390fd5b5f736e90c85a495d54c6d7e1f3400fef1f6e59f86bd690505f600654036109a05760035f9054906101000a900473ffffffffffffffffffffffffffffffffffffffff1673ffffffffffffffffffffffffffffffffffffffff1660085f9054906101000a900473ffffffffffffffffffffffffffffffffffffffff1673ffffffffffffffffffffffffffffffffffffffff16036106b85760035f9054906101000a900473ffffffffffffffffffffffffffffffffffffffff1673ffffffffffffffffffffffffffffffffffffffff1663095ea7b3736e90c85a495d54c6d7e1f3400fef1f6e59f86bd6846040518363ffffffff1660e01b815260040161060a929190613350565b6020604051808303815f875af1158015610626573d5f5f3e3d5ffd5b505050506040513d601f19601f8201168201806040525081019061064a91906133a1565b508073ffffffffffffffffffffffffffffffffffffffff1663cadac47983306040518363ffffffff1660e01b81526004016106869291906133cc565b5f604051808303815f87803b15801561069d575f5ffd5b505af11580156106af573d5f5f3e3d5ffd5b505050506107d2565b60025f9054906101000a900473ffffffffffffffffffffffffffffffffffffffff1673ffffffffffffffffffffffffffffffffffffffff1663095ea7b3736e90c85a495d54c6d7e1f3400fef1f6e59f86bd6846040518363ffffffff1660e01b8152600401610728929190613350565b6020604051808303815f875af1158015610744573d5f5f3e3d5ffd5b505050506040513d601f19601f8201168201806040525081019061076891906133a1565b508073ffffffffffffffffffffffffffffffffffffffff166360c52d0583306040518363ffffffff1660e01b81526004016107a49291906133cc565b5f604051808303815f87803b1580156107bb575f5ffd5b505af11580156107cd573d5f5f3e3d5ffd5b505050505b8073ffffffffffffffffffffffffffffffffffffffff1663b5af3062306040518263ffffffff1660e01b815260040161080b91906131c4565b6020604051808303815f875af1158015610827573d5f5f3e3d5ffd5b505050506040513d601f19601f8201168201806040525081019061084b9190613407565b600b819055505f600b5411610895576040517f08c379a000000000000000000000000000000000000000000000000000000000815260040161088c9061347c565b60405180910390fd5b6108d55f60019054906101000a900473ffffffffffffffffffffffffffffffffffffffff16736e90c85a495d54c6d7e1f3400fef1f6e59f86bd685611acf565b610914576040517f08c379a000000000000000000000000000000000000000000000000000000000815260040161090b906134e4565b60405180910390fd5b826006819055508073ffffffffffffffffffffffffffffffffffffffff1663d6bda0c0600c545f306040518463ffffffff1660e01b815260040161095a93929190613544565b6020604051808303815f875af1158015610976573d5f5f3e3d5ffd5b505050506040513d601f19601f8201168201806040525081019061099a9190613407565b50610db2565b60035f9054906101000a900473ffffffffffffffffffffffffffffffffffffffff1673ffffffffffffffffffffffffffffffffffffffff1660085f9054906101000a900473ffffffffffffffffffffffffffffffffffffffff1673ffffffffffffffffffffffffffffffffffffffff1603610b545760035f9054906101000a900473ffffffffffffffffffffffffffffffffffffffff1673ffffffffffffffffffffffffffffffffffffffff1663095ea7b3736e90c85a495d54c6d7e1f3400fef1f6e59f86bd6846040518363ffffffff1660e01b8152600401610a85929190613350565b6020604051808303815f875af1158015610aa1573d5f5f3e3d5ffd5b505050506040513d601f19601f82011682018060405250810190610ac591906133a1565b508073ffffffffffffffffffffffffffffffffffffffff1663d6bda0c0600c5484306040518463ffffffff1660e01b8152600401610b0593929190613579565b6020604051808303815f875af1158015610b21573d5f5f3e3d5ffd5b505050506040513d601f19601f82011682018060405250810190610b459190613407565b50600d54600b81905550610db1565b60025f9054906101000a900473ffffffffffffffffffffffffffffffffffffffff1673ffffffffffffffffffffffffffffffffffffffff1663095ea7b3736e90c85a495d54c6d7e1f3400fef1f6e59f86bd6846040518363ffffffff1660e01b8152600401610bc4929190613350565b6020604051808303815f875af1158015610be0573d5f5f3e3d5ffd5b505050506040513d601f19601f82011682018060405250810190610c0491906133a1565b508073ffffffffffffffffffffffffffffffffffffffff166360c52d0583306040518363ffffffff1660e01b8152600401610c409291906133cc565b5f604051808303815f87803b158015610c57575f5ffd5b505af1158015610c69573d5f5f3e3d5ffd5b505050508073ffffffffffffffffffffffffffffffffffffffff1663b5af3062306040518263ffffffff1660e01b8152600401610ca691906131c4565b6020604051808303815f875af1158015610cc2573d5f5f3e3d5ffd5b505050506040513d601f19601f82011682018060405250810190610ce69190613407565b600b819055505f600b5411610d30576040517f08c379a0000000000000000000000000000000000000000000000000000000008152600401610d279061347c565b60405180910390fd5b8073ffffffffffffffffffffffffffffffffffffffff1663d6bda0c0600c545f306040518463ffffffff1660e01b8152600401610d6f93929190613544565b6020604051808303815f875af1158015610d8b573d5f5f3e3d5ffd5b505050506040513d601f19601f82011682018060405250810190610daf9190613407565b505b5b60045f9054906101000a900473ffffffffffffffffffffffffffffffffffffffff1673ffffffffffffffffffffffffffffffffffffffff1663a9059cbb60075f9054906101000a900473ffffffffffffffffffffffffffffffffffffffff16600a546040518363ffffffff1660e01b8152600401610e31929190613350565b6020604051808303815f875af1158015610e4d573d5f5f3e3d5ffd5b505050506040513d601f19601f82011682018060405250810190610e7191906133a1565b505050505050505050565b600e5f9054906101000a900460ff1681565b60035f9054906101000a900473ffffffffffffffffffffffffffffffffffffffff1681565b60085f9054906101000a900473ffffffffffffffffffffffffffffffffffffffff1681565b60015f9054906101000a900473ffffffffffffffffffffffffffffffffffffffff1681565b5f60019054906101000a900473ffffffffffffffffffffffffffffffffffffffff1681565b5f5f9054906101000a900460ff1681565b5f5f9054906101000a900460ff166119f05760015f5f6101000a81548160ff0219169083151502179055505f736e90c85a495d54c6d7e1f3400fef1f6e59f86bd690508073ffffffffffffffffffffffffffffffffffffffff16638da5cb5b6040518163ffffffff1660e01b8152600401602060405180830381865afa158015610fbf573d5f5f3e3d5ffd5b505050506040513d601f19601f82011682018060405250810190610fe391906135c2565b5f60016101000a81548173ffffffffffffffffffffffffffffffffffffffff021916908373ffffffffffffffffffffffffffffffffffffffff1602179055508073ffffffffffffffffffffffffffffffffffffffff16632cdacb506040518163ffffffff1660e01b8152600401602060405180830381865afa15801561106b573d5f5f3e3d5ffd5b505050506040513d601f19601f8201168201806040525081019061108f91906135c2565b60015f6101000a81548173ffffffffffffffffffffffffffffffffffffffff021916908373ffffffffffffffffffffffffffffffffffffffff1602179055508073ffffffffffffffffffffffffffffffffffffffff1663d8dfeb456040518163ffffffff1660e01b8152600401602060405180830381865afa158015611117573d5f5f3e3d5ffd5b505050506040513d601f19601f8201168201806040525081019061113b91906135c2565b60025f6101000a81548173ffffffffffffffffffffffffffffffffffffffff021916908373ffffffffffffffffffffffffffffffffffffffff1602179055508073ffffffffffffffffffffffffffffffffffffffff16636f307dc36040518163ffffffff1660e01b8152600401602060405180830381865afa1580156111c3573d5f5f3e3d5ffd5b505050506040513d601f19601f820116820180604052508101906111e791906135c2565b60035f6101000a81548173ffffffffffffffffffffffffffffffffffffffff021916908373ffffffffffffffffffffffffffffffffffffffff1602179055508073ffffffffffffffffffffffffffffffffffffffff16637b1039996040518163ffffffff1660e01b8152600401602060405180830381865afa15801561126f573d5f5f3e3d5ffd5b505050506040513d601f19601f8201168201806040525081019061129391906135c2565b73ffffffffffffffffffffffffffffffffffffffff1663fc0c546a6040518163ffffffff1660e01b8152600401602060405180830381865afa1580156112db573d5f5f3e3d5ffd5b505050506040513d601f19601f820116820180604052508101906112ff91906135c2565b60045f6101000a81548173ffffffffffffffffffffffffffffffffffffffff021916908373ffffffffffffffffffffffffffffffffffffffff16021790555060045f9054906101000a900473ffffffffffffffffffffffffffffffffffffffff16600e60016101000a81548173ffffffffffffffffffffffffffffffffffffffff021916908373ffffffffffffffffffffffffffffffffffffffff1602179055508073ffffffffffffffffffffffffffffffffffffffff166386993bef6040518163ffffffff1660e01b8152600401602060405180830381865afa1580156113e9573d5f5f3e3d5ffd5b505050506040513d601f19601f8201168201806040525081019061140d9190613407565b6005819055506005546006819055505f73ffffffffffffffffffffffffffffffffffffffff1660015f9054906101000a900473ffffffffffffffffffffffffffffffffffffffff1673ffffffffffffffffffffffffffffffffffffffff1614806114c357505f73ffffffffffffffffffffffffffffffffffffffff1660045f9054906101000a900473ffffffffffffffffffffffffffffffffffffffff1673ffffffffffffffffffffffffffffffffffffffff16145b156114d6576114d0611de2565b506119f0565b5f5f600554036115315761152c60015f9054906101000a900473ffffffffffffffffffffffffffffffffffffffff1660025f9054906101000a900473ffffffffffffffffffffffffffffffffffffffff16611ee6565b611535565b6005545b90507fffffffffffffffffffffffffffffffffffffffffffffffffffffffffffffffff810361156d57611566611de2565b50506119f0565b5f600554146116165761157e61202d565b600d819055506115c45f60019054906101000a900473ffffffffffffffffffffffffffffffffffffffff16736e90c85a495d54c6d7e1f3400fef1f6e59f86bd65f611acf565b156115d5575f600681905550611615565b5f600d5411600e5f6101000a81548160ff021916908315150217905550600e5f9054906101000a900460ff166116145761160d611de2565b50506119f0565b5b5b5f611620836121f2565b90505f73ffffffffffffffffffffffffffffffffffffffff16815f015173ffffffffffffffffffffffffffffffffffffffff16036116c9575f6005541415801561166b57505f600654145b156116b9576116b05f60019054906101000a900473ffffffffffffffffffffffffffffffffffffffff16736e90c85a495d54c6d7e1f3400fef1f6e59f86bd684611acf565b50816006819055505b6116c1611de2565b5050506119f0565b805f015160075f6101000a81548173ffffffffffffffffffffffffffffffffffffffff021916908373ffffffffffffffffffffffffffffffffffffffff160217905550806020015160085f6101000a81548173ffffffffffffffffffffffffffffffffffffffff021916908373ffffffffffffffffffffffffffffffffffffffff16021790555080604001516009819055508060600151600a819055508060800151600c819055505f815f015173ffffffffffffffffffffffffffffffffffffffff16630dfe16816040518163ffffffff1660e01b8152600401602060405180830381865afa1580156117be573d5f5f3e3d5ffd5b505050506040513d601f19601f820116820180604052508101906117e291906135c2565b90505f8173ffffffffffffffffffffffffffffffffffffffff16836020015173ffffffffffffffffffffffffffffffffffffffff1614611822575f611828565b82604001515b90505f8273ffffffffffffffffffffffffffffffffffffffff16846020015173ffffffffffffffffffffffffffffffffffffffff161461186c57836040015161186e565b5f5b90505f845f015173ffffffffffffffffffffffffffffffffffffffff1663022c0d9f60e01b8484308a6040516020016118a79190612ff8565b6040516020818303038152906040526040516024016118c9949392919061365d565b604051602081830303815290604052907bffffffffffffffffffffffffffffffffffffffffffffffffffffffff19166020820180517bffffffffffffffffffffffffffffffffffffffffffffffffffffffff838183161783525050505060405161193391906136e1565b5f604051808303815f865af19150503d805f811461196c576040519150601f19603f3d011682016040523d82523d5f602084013e611971565b606091505b505090508015801561198557505f60055414155b801561199257505f600654145b156119e0576119d75f60019054906101000a900473ffffffffffffffffffffffffffffffffffffffff16736e90c85a495d54c6d7e1f3400fef1f6e59f86bd688611acf565b50856006819055505b6119e8611de2565b505050505050505b565b5f600e60019054906101000a900473ffffffffffffffffffffffffffffffffffffffff16905090565b5f600f54905090565b60055481565b600a5481565b60075f9054906101000a900473ffffffffffffffffffffffffffffffffffffffff1681565b60065481565b736e90c85a495d54c6d7e1f3400fef1f6e59f86bd681565b60025f9054906101000a900473ffffffffffffffffffffffffffffffffffffffff1681565b600d5481565b60095481565b600b5481565b60045f9054906101000a900473ffffffffffffffffffffffffffffffffffffffff1681565b5f5f8473ffffffffffffffffffffffffffffffffffffffff163b03611af6575f9050611ddb565b5f82604051602401611b089190612ff8565b6040516020818303038152906040527f7e929684000000000000000000000000000000000000000000000000000000007bffffffffffffffffffffffffffffffffffffffffffffffffffffffff19166020820180517bffffffffffffffffffffffffffffffffffffffffffffffffffffffff838183161783525050505090508473ffffffffffffffffffffffffffffffffffffffff16631cff79cd60e01b8583604051602401611bb99291906136f7565b604051602081830303815290604052907bffffffffffffffffffffffffffffffffffffffffffffffffffffffff19166020820180517bffffffffffffffffffffffffffffffffffffffffffffffffffffffff8381831617835250505050604051611c2391906136e1565b5f604051808303815f865af19150503d805f8114611c5c576040519150601f19603f3d011682016040523d82523d5f602084013e611c61565b606091505b5050809250508115611c77576001915050611ddb565b5f858583604051611c8790612f6a565b611c9393929190613725565b604051809103905ff080158015611cac573d5f5f3e3d5ffd5b5090508073ffffffffffffffffffffffffffffffffffffffff1663d909b4036040518163ffffffff1660e01b8152600401602060405180830381865afa158015611cf8573d5f5f3e3d5ffd5b505050506040513d601f19601f82011682018060405250810190611d1c91906133a1565b92508215611d2f57600192505050611ddb565b5f604051611d3c90612f77565b604051809103905ff080158015611d55573d5f5f3e3d5ffd5b5090508073ffffffffffffffffffffffffffffffffffffffff1663f5c3dcfa8888866040518463ffffffff1660e01b8152600401611d9593929190613725565b6020604051808303815f875af1158015611db1573d5f5f3e3d5ffd5b505050506040513d601f19601f82011682018060405250810190611dd591906133a1565b93505050505b9392505050565b5f73ffffffffffffffffffffffffffffffffffffffff16600e60019054906101000a900473ffffffffffffffffffffffffffffffffffffffff1673ffffffffffffffffffffffffffffffffffffffff1603611e43575f600f81905550611ee4565b600e60019054906101000a900473ffffffffffffffffffffffffffffffffffffffff1673ffffffffffffffffffffffffffffffffffffffff166370a08231306040518263ffffffff1660e01b8152600401611e9e91906131c4565b602060405180830381865afa158015611eb9573d5f5f3e3d5ffd5b505050506040513d601f19601f82011682018060405250810190611edd9190613407565b600f819055505b565b5f5f5f90505b610200811015612002578373ffffffffffffffffffffffffffffffffffffffff16631526fe27826040518263ffffffff1660e01b8152600401611f2f9190612ff8565b60c060405180830381865afa925050508015611f6957506040513d601f19601f82011682018060405250810190611f669190613761565b60015b156120025780158015611fdd57508873ffffffffffffffffffffffffffffffffffffffff168673ffffffffffffffffffffffffffffffffffffffff161480611fdc57508873ffffffffffffffffffffffffffffffffffffffff168573ffffffffffffffffffffffffffffffffffffffff16145b5b15611ff15786975050505050505050612027565b505050505050806001019050611eec565b507fffffffffffffffffffffffffffffffffffffffffffffffffffffffffffffffff90505b92915050565b5f5f73ffffffffffffffffffffffffffffffffffffffff1660025f9054906101000a900473ffffffffffffffffffffffffffffffffffffffff1673ffffffffffffffffffffffffffffffffffffffff160361208a575f90506121ef565b5f60025f9054906101000a900473ffffffffffffffffffffffffffffffffffffffff1673ffffffffffffffffffffffffffffffffffffffff166370a08231736e90c85a495d54c6d7e1f3400fef1f6e59f86bd66040518263ffffffff1660e01b81526004016120f991906131c4565b602060405180830381865afa158015612114573d5f5f3e3d5ffd5b505050506040513d601f19601f820116820180604052508101906121389190613407565b90505f6006540361214c57809150506121ef565b5f736e90c85a495d54c6d7e1f3400fef1f6e59f86bd673ffffffffffffffffffffffffffffffffffffffff16634ac8eb5f6040518163ffffffff1660e01b8152600401602060405180830381865afa1580156121aa573d5f5f3e3d5ffd5b505050506040513d601f19601f820116820180604052508101906121ce9190613407565b90508082116121dd57816121ea565b80826121e99190613817565b5b925050505b90565b6121fa612f84565b5f6040518060400160405280735c69bee701ef814a2b6a3edd4b1652cb9cc5aa6f73ffffffffffffffffffffffffffffffffffffffff1673ffffffffffffffffffffffffffffffffffffffff16815260200173c0aee478e3658e2610c5f7a4a2e1777ce9e4f2ac73ffffffffffffffffffffffffffffffffffffffff1673ffffffffffffffffffffffffffffffffffffffff1681525090505f604051806040016040528060025f9054906101000a900473ffffffffffffffffffffffffffffffffffffffff1673ffffffffffffffffffffffffffffffffffffffff1673ffffffffffffffffffffffffffffffffffffffff16815260200160035f9054906101000a900473ffffffffffffffffffffffffffffffffffffffff1673ffffffffffffffffffffffffffffffffffffffff1673ffffffffffffffffffffffffffffffffffffffff1681525090505f5f90505b6002811015612545575f8382600281106123665761236561384a565b5b602002015190505f5f90505b6002811015612538575f84826002811061238f5761238e61384a565b5b602002015190505f73ffffffffffffffffffffffffffffffffffffffff168173ffffffffffffffffffffffffffffffffffffffff16148061241c575060045f9054906101000a900473ffffffffffffffffffffffffffffffffffffffff1673ffffffffffffffffffffffffffffffffffffffff168173ffffffffffffffffffffffffffffffffffffffff16145b15612427575061252d565b5f8373ffffffffffffffffffffffffffffffffffffffff1663e6a439058360045f9054906101000a900473ffffffffffffffffffffffffffffffffffffffff166040518363ffffffff1660e01b8152600401612484929190613877565b602060405180830381865afa15801561249f573d5f5f3e3d5ffd5b505050506040513d601f19601f820116820180604052508101906124c391906135c2565b90505f73ffffffffffffffffffffffffffffffffffffffff168173ffffffffffffffffffffffffffffffffffffffff16036124ff57505061252d565b5f61250b8a838561254d565b905061251689612986565b61251f82612986565b1115612529578098505b5050505b806001019050612372565b5050806001019050612349565b505050919050565b612555612f84565b5f5f8473ffffffffffffffffffffffffffffffffffffffff16630902f1ac6040518163ffffffff1660e01b8152600401606060405180830381865afa1580156125a0573d5f5f3e3d5ffd5b505050506040513d601f19601f820116820180604052508101906125c4919061391a565b50915091505f8573ffffffffffffffffffffffffffffffffffffffff16630dfe16816040518163ffffffff1660e01b8152600401602060405180830381865afa158015612613573d5f5f3e3d5ffd5b505050506040513d601f19601f8201168201806040525081019061263791906135c2565b90505f8673ffffffffffffffffffffffffffffffffffffffff1663d21220a76040518163ffffffff1660e01b8152600401602060405180830381865afa158015612683573d5f5f3e3d5ffd5b505050506040513d601f19601f820116820180604052508101906126a791906135c2565b90505f5f8773ffffffffffffffffffffffffffffffffffffffff168473ffffffffffffffffffffffffffffffffffffffff16148015612732575060045f9054906101000a900473ffffffffffffffffffffffffffffffffffffffff1673ffffffffffffffffffffffffffffffffffffffff168373ffffffffffffffffffffffffffffffffffffffff16145b1561276257856dffffffffffffffffffffffffffff169150846dffffffffffffffffffffffffffff169050612825565b8773ffffffffffffffffffffffffffffffffffffffff168373ffffffffffffffffffffffffffffffffffffffff161480156127e9575060045f9054906101000a900473ffffffffffffffffffffffffffffffffffffffff1673ffffffffffffffffffffffffffffffffffffffff168473ffffffffffffffffffffffffffffffffffffffff16145b1561281957846dffffffffffffffffffffffffffff169150856dffffffffffffffffffffffffffff169050612824565b50505050505061297f565b5b600182111580612836575060018111155b156128465750505050505061297f565b5f60405180610120016040528061138881526020016109c481526020016103e881526020016101f4815260200160fa8152602001606481526020016032815260200160198152602001600a81525090505f8b73ffffffffffffffffffffffffffffffffffffffff166308c7e3666040518163ffffffff1660e01b8152600401602060405180830381865afa1580156128e0573d5f5f3e3d5ffd5b505050506040513d601f19601f820116820180604052508101906129049190613407565b90505f5f90505b6009811015612975575f8382600981106129285761292761384a565b5b6020020151866129389190613997565b90505f61294a8f8f8f8a8a878a6129ba565b90506129558c612986565b61295e82612986565b111561296857809b505b505080600101905061290b565b5050505050505050505b9392505050565b5f816060015182608001511161299e575f90506129b5565b816060015182608001516129b29190613817565b90505b919050565b6129c2612f84565b5f8314806129d05750848310155b612bfb575f60025f9054906101000a900473ffffffffffffffffffffffffffffffffffffffff1673ffffffffffffffffffffffffffffffffffffffff168773ffffffffffffffffffffffffffffffffffffffff1614612ac75760025f9054906101000a900473ffffffffffffffffffffffffffffffffffffffff1673ffffffffffffffffffffffffffffffffffffffff1663ef8b30f7856040518263ffffffff1660e01b8152600401612a839190612ff8565b602060405180830381865afa158015612a9e573d5f5f3e3d5ffd5b505050506040513d601f19601f82011682018060405250810190612ac29190613407565b612ac9565b835b90505f8103612ad85750612bfb565b5f819050600e5f9054906101000a900460ff168015612af857505f600d54115b15612b0e57600d5481612b0b91906139c7565b90505b5f612b198b83612c06565b9050848111612b2a57505050612bfb565b5f612b3687898b612ee8565b90505f811480612b5157508581612b4d91906139c7565b8211155b15612b5f5750505050612bfb565b5f6127106126de84612b7191906139fa565b612b7b9190613997565b90508181111580612b8b57508681105b15612b9a575050505050612bfb565b6040518060c001604052808d73ffffffffffffffffffffffffffffffffffffffff1681526020018c73ffffffffffffffffffffffffffffffffffffffff16815260200189815260200183815260200182815260200185815250955050505050505b979650505050505050565b5f5f8373ffffffffffffffffffffffffffffffffffffffff1663fbbbf94c6040518163ffffffff1660e01b8152600401606060405180830381865afa158015612c51573d5f5f3e3d5ffd5b505050506040513d601f19601f82011682018060405250810190612c759190613a7c565b925050505f8103612c89575f915050612ee2565b5f8473ffffffffffffffffffffffffffffffffffffffff166313966db56040518163ffffffff1660e01b8152600401602060405180830381865afa158015612cd3573d5f5f3e3d5ffd5b505050506040513d601f19601f82011682018060405250810190612cf79190613407565b620186a0612d0591906139c7565b82612d1091906139fa565b8573ffffffffffffffffffffffffffffffffffffffff1663f384bd056040518163ffffffff1660e01b8152600401602060405180830381865afa158015612d59573d5f5f3e3d5ffd5b505050506040513d601f19601f82011682018060405250810190612d7d9190613407565b670de0b6b3a764000086612d9191906139fa565b612d9b91906139fa565b612da59190613997565b90505f8573ffffffffffffffffffffffffffffffffffffffff16638285ef406040518163ffffffff1660e01b81526004016040805180830381865afa158015612df0573d5f5f3e3d5ffd5b505050506040513d601f19601f82011682018060405250810190612e149190613b11565b5090505f8673ffffffffffffffffffffffffffffffffffffffff1663e551d11d6040518163ffffffff1660e01b8152600401602060405180830381865afa158015612e61573d5f5f3e3d5ffd5b505050506040513d601f19601f82011682018060405250810190612e859190613407565b9050816fffffffffffffffffffffffffffffffff168111612eac575f945050505050612ee2565b816fffffffffffffffffffffffffffffffff1681612eca9190613817565b9050808310612ed95780612edb565b825b9450505050505b92915050565b5f5f841480612ef657505f83145b80612f015750838211155b15612f0e575f9050612f63565b5f6103e88585612f1e91906139fa565b612f2891906139fa565b90505f6103e58685612f3a9190613817565b612f4491906139fa565b905060018183612f549190613997565b612f5e91906139c7565b925050505b9392505050565b6104e880613b5083390190565b6104ca8061403883390190565b6040518060c001604052805f73ffffffffffffffffffffffffffffffffffffffff1681526020015f73ffffffffffffffffffffffffffffffffffffffff1681526020015f81526020015f81526020015f81526020015f81525090565b5f819050919050565b612ff281612fe0565b82525050565b5f60208201905061300b5f830184612fe9565b92915050565b5f5ffd5b5f5ffd5b5f73ffffffffffffffffffffffffffffffffffffffff82169050919050565b5f61304282613019565b9050919050565b61305281613038565b811461305c575f5ffd5b50565b5f8135905061306d81613049565b92915050565b61307c81612fe0565b8114613086575f5ffd5b50565b5f8135905061309781613073565b92915050565b5f5ffd5b5f5ffd5b5f5ffd5b5f5f83601f8401126130be576130bd61309d565b5b8235905067ffffffffffffffff8111156130db576130da6130a1565b5b6020830191508360018202830111156130f7576130f66130a5565b5b9250929050565b5f5f5f5f5f6080868803121561311757613116613011565b5b5f6131248882890161305f565b955050602061313588828901613089565b945050604061314688828901613089565b935050606086013567ffffffffffffffff81111561316757613166613015565b5b613173888289016130a9565b92509250509295509295909350565b5f8115159050919050565b61319681613182565b82525050565b5f6020820190506131af5f83018461318d565b92915050565b6131be81613038565b82525050565b5f6020820190506131d75f8301846131b5565b92915050565b5f82825260208201905092915050565b7f62616420706169720000000000000000000000000000000000000000000000005f82015250565b5f6132216008836131dd565b915061322c826131ed565b602082019050919050565b5f6020820190508181035f83015261324e81613215565b9050919050565b7f6261642073656e646572000000000000000000000000000000000000000000005f82015250565b5f613289600a836131dd565b915061329482613255565b602082019050919050565b5f6020820190508181035f8301526132b68161327d565b9050919050565b5f602082840312156132d2576132d1613011565b5b5f6132df84828501613089565b91505092915050565b7f62616420616d6f756e74000000000000000000000000000000000000000000005f82015250565b5f61331c600a836131dd565b9150613327826132e8565b602082019050919050565b5f6020820190508181035f83015261334981613310565b9050919050565b5f6040820190506133635f8301856131b5565b6133706020830184612fe9565b9392505050565b61338081613182565b811461338a575f5ffd5b50565b5f8151905061339b81613377565b92915050565b5f602082840312156133b6576133b5613011565b5b5f6133c38482850161338d565b91505092915050565b5f6040820190506133df5f830185612fe9565b6133ec60208301846131b5565b9392505050565b5f8151905061340181613073565b92915050565b5f6020828403121561341c5761341b613011565b5b5f613429848285016133f3565b91505092915050565b7f6e6f20636f6c6c61746572616c000000000000000000000000000000000000005f82015250565b5f613466600d836131dd565b915061347182613432565b602082019050919050565b5f6020820190508181035f8301526134938161345a565b9050919050565b7f6d6967726174696f6e206661696c6564000000000000000000000000000000005f82015250565b5f6134ce6010836131dd565b91506134d98261349a565b602082019050919050565b5f6020820190508181035f8301526134fb816134c2565b9050919050565b5f819050919050565b5f819050919050565b5f61352e61352961352484613502565b61350b565b612fe0565b9050919050565b61353e81613514565b82525050565b5f6060820190506135575f830186612fe9565b6135646020830185613535565b61357160408301846131b5565b949350505050565b5f60608201905061358c5f830186612fe9565b6135996020830185612fe9565b6135a660408301846131b5565b949350505050565b5f815190506135bc81613049565b92915050565b5f602082840312156135d7576135d6613011565b5b5f6135e4848285016135ae565b91505092915050565b5f81519050919050565b5f82825260208201905092915050565b8281835e5f83830152505050565b5f601f19601f8301169050919050565b5f61362f826135ed565b61363981856135f7565b9350613649818560208601613607565b61365281613615565b840191505092915050565b5f6080820190506136705f830187612fe9565b61367d6020830186612fe9565b61368a60408301856131b5565b818103606083015261369c8184613625565b905095945050505050565b5f81905092915050565b5f6136bb826135ed565b6136c581856136a7565b93506136d5818560208601613607565b80840191505092915050565b5f6136ec82846136b1565b915081905092915050565b5f60408201905061370a5f8301856131b5565b818103602083015261371c8184613625565b90509392505050565b5f6060820190506137385f8301866131b5565b61374560208301856131b5565b81810360408301526137578184613625565b9050949350505050565b5f5f5f5f5f5f60c0878903121561377b5761377a613011565b5b5f61378889828a016135ae565b965050602061379989828a016135ae565b95505060406137aa89828a016135ae565b94505060606137bb89828a016135ae565b93505060806137cc89828a016135ae565b92505060a06137dd89828a0161338d565b9150509295509295509295565b7f4e487b71000000000000000000000000000000000000000000000000000000005f52601160045260245ffd5b5f61382182612fe0565b915061382c83612fe0565b9250828203905081811115613844576138436137ea565b5b92915050565b7f4e487b71000000000000000000000000000000000000000000000000000000005f52603260045260245ffd5b5f60408201905061388a5f8301856131b5565b61389760208301846131b5565b9392505050565b5f6dffffffffffffffffffffffffffff82169050919050565b6138c08161389e565b81146138ca575f5ffd5b50565b5f815190506138db816138b7565b92915050565b5f63ffffffff82169050919050565b6138f9816138e1565b8114613903575f5ffd5b50565b5f81519050613914816138f0565b92915050565b5f5f5f6060848603121561393157613930613011565b5b5f61393e868287016138cd565b935050602061394f868287016138cd565b925050604061396086828701613906565b9150509250925092565b7f4e487b71000000000000000000000000000000000000000000000000000000005f52601260045260245ffd5b5f6139a182612fe0565b91506139ac83612fe0565b9250826139bc576139bb61396a565b5b828204905092915050565b5f6139d182612fe0565b91506139dc83612fe0565b92508282019050808211156139f4576139f36137ea565b5b92915050565b5f613a0482612fe0565b9150613a0f83612fe0565b9250828202613a1d81612fe0565b91508282048414831517613a3457613a336137ea565b5b5092915050565b5f6bffffffffffffffffffffffff82169050919050565b613a5b81613a3b565b8114613a65575f5ffd5b50565b5f81519050613a7681613a52565b92915050565b5f5f5f60608486031215613a9357613a92613011565b5b5f613aa0868287016135ae565b9350506020613ab186828701613a68565b9250506040613ac2868287016133f3565b9150509250925092565b5f6fffffffffffffffffffffffffffffffff82169050919050565b613af081613acc565b8114613afa575f5ffd5b50565b5f81519050613b0b81613ae7565b92915050565b5f5f60408385031215613b2757613b26613011565b5b5f613b3485828601613afd565b9250506020613b4585828601613afd565b915050925092905056fe608060405234801561000f575f5ffd5b506040516104e83803806104e8833981810160405281019061003191906102d7565b8273ffffffffffffffffffffffffffffffffffffffff16631cff79cd60e01b83836040516024016100639291906103a4565b604051602081830303815290604052907bffffffffffffffffffffffffffffffffffffffffffffffffffffffff19166020820180517bffffffffffffffffffffffffffffffffffffffffffffffffffffffff83818316178352505050506040516100cd919061040c565b5f604051808303815f865af19150503d805f8114610106576040519150601f19603f3d011682016040523d82523d5f602084013e61010b565b606091505b50505f5f8291906101000a81548160ff02191690831515021790555050505050610422565b5f604051905090565b5f5ffd5b5f5ffd5b5f73ffffffffffffffffffffffffffffffffffffffff82169050919050565b5f61016a82610141565b9050919050565b61017a81610160565b8114610184575f5ffd5b50565b5f8151905061019581610171565b92915050565b5f5ffd5b5f5ffd5b5f601f19601f8301169050919050565b7f4e487b71000000000000000000000000000000000000000000000000000000005f52604160045260245ffd5b6101e9826101a3565b810181811067ffffffffffffffff82111715610208576102076101b3565b5b80604052505050565b5f61021a610130565b905061022682826101e0565b919050565b5f67ffffffffffffffff821115610245576102446101b3565b5b61024e826101a3565b9050602081019050919050565b8281835e5f83830152505050565b5f61027b6102768461022b565b610211565b9050828152602081018484840111156102975761029661019f565b5b6102a284828561025b565b509392505050565b5f82601f8301126102be576102bd61019b565b5b81516102ce848260208601610269565b91505092915050565b5f5f5f606084860312156102ee576102ed610139565b5b5f6102fb86828701610187565b935050602061030c86828701610187565b925050604084015167ffffffffffffffff81111561032d5761032c61013d565b5b610339868287016102aa565b9150509250925092565b61034c81610160565b82525050565b5f81519050919050565b5f82825260208201905092915050565b5f61037682610352565b610380818561035c565b935061039081856020860161025b565b610399816101a3565b840191505092915050565b5f6040820190506103b75f830185610343565b81810360208301526103c9818461036c565b90509392505050565b5f81905092915050565b5f6103e682610352565b6103f081856103d2565b935061040081856020860161025b565b80840191505092915050565b5f61041782846103dc565b915081905092915050565b60ba8061042e5f395ff3fe6080604052348015600e575f5ffd5b50600436106026575f3560e01c8063d909b40314602a575b5f5ffd5b60306044565b604051603b9190606d565b60405180910390f35b5f5f9054906101000a900460ff1681565b5f8115159050919050565b6067816055565b82525050565b5f602082019050607e5f8301846060565b9291505056fea264697066735822122062e7892fb3895db3d31070948721eefad090c6fadb3eef9d63cb830e8305613c64736f6c634300081e00336080604052348015600e575f5ffd5b506104ae8061001c5f395ff3fe608060405234801561000f575f5ffd5b5060043610610029575f3560e01c8063f5c3dcfa1461002d575b5f5ffd5b610047600480360381019061004291906102ec565b61005d565b6040516100549190610372565b60405180910390f35b5f8373ffffffffffffffffffffffffffffffffffffffff16631cff79cd60e01b84846040516024016100909291906103fa565b604051602081830303815290604052907bffffffffffffffffffffffffffffffffffffffffffffffffffffffff19166020820180517bffffffffffffffffffffffffffffffffffffffffffffffffffffffff83818316178352505050506040516100fa9190610462565b5f604051808303815f865af19150503d805f8114610133576040519150601f19603f3d011682016040523d82523d5f602084013e610138565b606091505b5050809150509392505050565b5f604051905090565b5f5ffd5b5f5ffd5b5f73ffffffffffffffffffffffffffffffffffffffff82169050919050565b5f61017f82610156565b9050919050565b61018f81610175565b8114610199575f5ffd5b50565b5f813590506101aa81610186565b92915050565b5f5ffd5b5f5ffd5b5f601f19601f8301169050919050565b7f4e487b71000000000000000000000000000000000000000000000000000000005f52604160045260245ffd5b6101fe826101b8565b810181811067ffffffffffffffff8211171561021d5761021c6101c8565b5b80604052505050565b5f61022f610145565b905061023b82826101f5565b919050565b5f67ffffffffffffffff82111561025a576102596101c8565b5b610263826101b8565b9050602081019050919050565b828183375f83830152505050565b5f61029061028b84610240565b610226565b9050828152602081018484840111156102ac576102ab6101b4565b5b6102b7848285610270565b509392505050565b5f82601f8301126102d3576102d26101b0565b5b81356102e384826020860161027e565b91505092915050565b5f5f5f606084860312156103035761030261014e565b5b5f6103108682870161019c565b93505060206103218682870161019c565b925050604084013567ffffffffffffffff81111561034257610341610152565b5b61034e868287016102bf565b9150509250925092565b5f8115159050919050565b61036c81610358565b82525050565b5f6020820190506103855f830184610363565b92915050565b61039481610175565b82525050565b5f81519050919050565b5f82825260208201905092915050565b8281835e5f83830152505050565b5f6103cc8261039a565b6103d681856103a4565b93506103e68185602086016103b4565b6103ef816101b8565b840191505092915050565b5f60408201905061040d5f83018561038b565b818103602083015261041f81846103c2565b90509392505050565b5f81905092915050565b5f61043c8261039a565b6104468185610428565b93506104568185602086016103b4565b80840191505092915050565b5f61046d8284610432565b91508190509291505056fea264697066735822122095c8ef62765d03efeebd9d59b80fcdc34898c8e44b73cf197f1d803807bffbbd64736f6c634300081e0033a264697066735822122036630dc8ed98a29cac8b9ff9475a49093705d32a44bbf22522ab136990c788ed64736f6c634300081e0033","linkReferences":{}},"methodIdentifiers":{"TARGET_PAIR()":"ac7ab8d2","activePid()":"8f20f7ed","collateralToken()":"b2016bd4","convexBooster()":"2cdacb50","debtToken()":"f8d89898","executeOnOpportunity()":"3c2448ed","executed()":"31a38c89","flashBorrowAmount()":"ee7201ff","flashBorrowToken()":"254b5f3f","flashPair()":"6f98fb5d","flashRepayDebtAmount()":"66cfaebb","hiddenCollateral()":"f66102f5","historicalMigrationState()":"20d1d11b","pairOwner()":"2ec2fe3d","plannedBorrowAmount()":"05bc167c","preExistingHiddenCollateral()":"ba7e1b39","profitAmount()":"5ff972cc","profitToken()":"49343624","startingPid()":"628ccb17","underlyingToken()":"2495a599","uniswapV2Call(address,uint256,uint256,bytes)":"10d1e85c"},"id":0}