{"abi":[{"type":"function","name":"exec","inputs":[{"name":"owner","type":"address","internalType":"address"},{"name":"target","type":"address","internalType":"address"},{"name":"data","type":"bytes","internalType":"bytes"}],"outputs":[{"name":"ok","type":"bool","internalType":"bool"}],"stateMutability":"nonpayable"}],"bytecode":{"object":"0x6080604052348015600e575f5ffd5b506104ae8061001c5f395ff3fe608060405234801561000f575f5ffd5b5060043610610029575f3560e01c8063f5c3dcfa1461002d575b5f5ffd5b610047600480360381019061004291906102ec565b61005d565b6040516100549190610372565b60405180910390f35b5f8373ffffffffffffffffffffffffffffffffffffffff16631cff79cd60e01b84846040516024016100909291906103fa565b604051602081830303815290604052907bffffffffffffffffffffffffffffffffffffffffffffffffffffffff19166020820180517bffffffffffffffffffffffffffffffffffffffffffffffffffffffff83818316178352505050506040516100fa9190610462565b5f604051808303815f865af19150503d805f8114610133576040519150601f19603f3d011682016040523d82523d5f602084013e610138565b606091505b5050809150509392505050565b5f604051905090565b5f5ffd5b5f5ffd5b5f73ffffffffffffffffffffffffffffffffffffffff82169050919050565b5f61017f82610156565b9050919050565b61018f81610175565b8114610199575f5ffd5b50565b5f813590506101aa81610186565b92915050565b5f5ffd5b5f5ffd5b5f601f19601f8301169050919050565b7f4e487b71000000000000000000000000000000000000000000000000000000005f52604160045260245ffd5b6101fe826101b8565b810181811067ffffffffffffffff8211171561021d5761021c6101c8565b5b80604052505050565b5f61022f610145565b905061023b82826101f5565b919050565b5f67ffffffffffffffff82111561025a576102596101c8565b5b610263826101b8565b9050602081019050919050565b828183375f83830152505050565b5f61029061028b84610240565b610226565b9050828152602081018484840111156102ac576102ab6101b4565b5b6102b7848285610270565b509392505050565b5f82601f8301126102d3576102d26101b0565b5b81356102e384826020860161027e565b91505092915050565b5f5f5f606084860312156103035761030261014e565b5b5f6103108682870161019c565b93505060206103218682870161019c565b925050604084013567ffffffffffffffff81111561034257610341610152565b5b61034e868287016102bf565b9150509250925092565b5f8115159050919050565b61036c81610358565b82525050565b5f6020820190506103855f830184610363565b92915050565b61039481610175565b82525050565b5f81519050919050565b5f82825260208201905092915050565b8281835e5f83830152505050565b5f6103cc8261039a565b6103d681856103a4565b93506103e68185602086016103b4565b6103ef816101b8565b840191505092915050565b5f60408201905061040d5f83018561038b565b818103602083015261041f81846103c2565b90509392505050565b5f81905092915050565b5f61043c8261039a565b6104468185610428565b93506104568185602086016103b4565b80840191505092915050565b5f61046d8284610432565b91508190509291505056fea264697066735822122095c8ef62765d03efeebd9d59b80fcdc34898c8e44b73cf197f1d803807bffbbd64736f6c634300081e0033","linkReferences":{}},"methodIdentifiers":{"exec(address,address,bytes)":"f5c3dcfa"},"id":0}