{"abi":[{"type":"constructor","inputs":[],"stateMutability":"nonpayable"},{"type":"receive","stateMutability":"payable"},{"type":"function","name":"borrowTo","inputs":[{"name":"pair","type":"address","internalType":"address"},{"name":"borrowAmount","type":"uint256","internalType":"uint256"},{"name":"receiver","type":"address","internalType":"address"}],"outputs":[{"name":"ok","type":"bool","internalType":"bool"}],"stateMutability":"nonpayable"},{"type":"function","name":"checkpoint","inputs":[{"name":"pair","type":"address","internalType":"address"}],"outputs":[{"name":"amount","type":"uint256","internalType":"uint256"}],"stateMutability":"nonpayable"},{"type":"function","name":"controller","inputs":[],"outputs":[{"name":"","type":"address","internalType":"address"}],"stateMutability":"view"},{"type":"function","name":"openLeveragedPosition","inputs":[{"name":"pair","type":"address","internalType":"address"},{"name":"swapper","type":"address","internalType":"address"},{"name":"borrowAmount","type":"uint256","internalType":"uint256"},{"name":"path","type":"address[]","internalType":"address[]"}],"outputs":[{"name":"ok","type":"bool","internalType":"bool"}],"stateMutability":"nonpayable"},{"type":"function","name":"sweep","inputs":[{"name":"token","type":"address","internalType":"address"},{"name":"to","type":"address","internalType":"address"}],"outputs":[],"stateMutability":"nonpayable"}],"bytecode":{"object":"0x6080604052348015600e575f5ffd5b50335f5f6101000a81548173ffffffffffffffffffffffffffffffffffffffff021916908373ffffffffffffffffffffffffffffffffffffffff160217905550610c8a8061005b5f395ff3fe60806040526004361061004d575f3560e01c806339a0880c14610058578063a972985e14610094578063b8dc491b146100d0578063ec88061c146100f8578063f77c47911461013457610054565b3661005457005b5f5ffd5b348015610063575f5ffd5b5061007e600480360381019061007991906107d4565b61015e565b60405161008b9190610872565b60405180910390f35b34801561009f575f5ffd5b506100ba60048036038101906100b5919061088b565b61027f565b6040516100c791906108c5565b60405180910390f35b3480156100db575f5ffd5b506100f660048036038101906100f191906108de565b610391565b005b348015610103575f5ffd5b5061011e6004803603810190610119919061091c565b6105a1565b60405161012b9190610872565b60405180910390f35b34801561013f575f5ffd5b506101486106ba565b604051610155919061097b565b60405180910390f35b5f5f5f9054906101000a900473ffffffffffffffffffffffffffffffffffffffff1673ffffffffffffffffffffffffffffffffffffffff163373ffffffffffffffffffffffffffffffffffffffff16146101ed576040517f08c379a00000000000000000000000000000000000000000000000000000000081526004016101e4906109ee565b60405180910390fd5b8573ffffffffffffffffffffffffffffffffffffffff1663a053db6886865f5f88886040518763ffffffff1660e01b815260040161023096959493929190610b0a565b6020604051808303815f875af192505050801561026b57506040513d601f19601f820116820180604052508101906102689190610b78565b60015b156102765760019150505b95945050505050565b5f5f5f9054906101000a900473ffffffffffffffffffffffffffffffffffffffff1673ffffffffffffffffffffffffffffffffffffffff163373ffffffffffffffffffffffffffffffffffffffff161461030e576040517f08c379a0000000000000000000000000000000000000000000000000000000008152600401610305906109ee565b60405180910390fd5b8173ffffffffffffffffffffffffffffffffffffffff1663b5af3062306040518263ffffffff1660e01b8152600401610347919061097b565b6020604051808303815f875af192505050801561038257506040513d601f19601f8201168201806040525081019061037f9190610b78565b60015b1561038c57809150505b919050565b5f5f9054906101000a900473ffffffffffffffffffffffffffffffffffffffff1673ffffffffffffffffffffffffffffffffffffffff163373ffffffffffffffffffffffffffffffffffffffff161461041f576040517f08c379a0000000000000000000000000000000000000000000000000000000008152600401610416906109ee565b60405180910390fd5b5f73ffffffffffffffffffffffffffffffffffffffff168273ffffffffffffffffffffffffffffffffffffffff160361049b578073ffffffffffffffffffffffffffffffffffffffff166108fc4790811502906040515f60405180830381858888f19350505050158015610495573d5f5f3e3d5ffd5b5061059d565b5f8273ffffffffffffffffffffffffffffffffffffffff166370a08231306040518263ffffffff1660e01b81526004016104d5919061097b565b602060405180830381865afa1580156104f0573d5f5f3e3d5ffd5b505050506040513d601f19601f820116820180604052508101906105149190610b78565b90505f81111561059b578273ffffffffffffffffffffffffffffffffffffffff1663a9059cbb83836040518363ffffffff1660e01b8152600401610559929190610ba3565b6020604051808303815f875af1158015610575573d5f5f3e3d5ffd5b505050506040513d601f19601f820116820180604052508101906105999190610bf4565b505b505b5050565b5f5f5f9054906101000a900473ffffffffffffffffffffffffffffffffffffffff1673ffffffffffffffffffffffffffffffffffffffff163373ffffffffffffffffffffffffffffffffffffffff1614610630576040517f08c379a0000000000000000000000000000000000000000000000000000000008152600401610627906109ee565b60405180910390fd5b8373ffffffffffffffffffffffffffffffffffffffff1663d6bda0c0845f856040518463ffffffff1660e01b815260040161066d93929190610c1f565b6020604051808303815f875af19250505080156106a857506040513d601f19601f820116820180604052508101906106a59190610b78565b60015b156106b35760019150505b9392505050565b5f5f9054906101000a900473ffffffffffffffffffffffffffffffffffffffff1681565b5f5ffd5b5f5ffd5b5f73ffffffffffffffffffffffffffffffffffffffff82169050919050565b5f61070f826106e6565b9050919050565b61071f81610705565b8114610729575f5ffd5b50565b5f8135905061073a81610716565b92915050565b5f819050919050565b61075281610740565b811461075c575f5ffd5b50565b5f8135905061076d81610749565b92915050565b5f5ffd5b5f5ffd5b5f5ffd5b5f5f83601f84011261079457610793610773565b5b8235905067ffffffffffffffff8111156107b1576107b0610777565b5b6020830191508360208202830111156107cd576107cc61077b565b5b9250929050565b5f5f5f5f5f608086880312156107ed576107ec6106de565b5b5f6107fa8882890161072c565b955050602061080b8882890161072c565b945050604061081c8882890161075f565b935050606086013567ffffffffffffffff81111561083d5761083c6106e2565b5b6108498882890161077f565b92509250509295509295909350565b5f8115159050919050565b61086c81610858565b82525050565b5f6020820190506108855f830184610863565b92915050565b5f602082840312156108a05761089f6106de565b5b5f6108ad8482850161072c565b91505092915050565b6108bf81610740565b82525050565b5f6020820190506108d85f8301846108b6565b92915050565b5f5f604083850312156108f4576108f36106de565b5b5f6109018582860161072c565b92505060206109128582860161072c565b9150509250929050565b5f5f5f60608486031215610933576109326106de565b5b5f6109408682870161072c565b93505060206109518682870161075f565b92505060406109628682870161072c565b9150509250925092565b61097581610705565b82525050565b5f60208201905061098e5f83018461096c565b92915050565b5f82825260208201905092915050565b7f21636f6e74726f6c6c65720000000000000000000000000000000000000000005f82015250565b5f6109d8600b83610994565b91506109e3826109a4565b602082019050919050565b5f6020820190508181035f830152610a05816109cc565b9050919050565b5f819050919050565b5f819050919050565b5f610a38610a33610a2e84610a0c565b610a15565b610740565b9050919050565b610a4881610a1e565b82525050565b5f82825260208201905092915050565b5f819050919050565b610a7081610705565b82525050565b5f610a818383610a67565b60208301905092915050565b5f610a9b602084018461072c565b905092915050565b5f602082019050919050565b5f610aba8385610a4e565b9350610ac582610a5e565b805f5b85811015610afd57610ada8284610a8d565b610ae48882610a76565b9750610aef83610aa3565b925050600181019050610ac8565b5085925050509392505050565b5f60a082019050610b1d5f83018961096c565b610b2a60208301886108b6565b610b376040830187610a3f565b610b446060830186610a3f565b8181036080830152610b57818486610aaf565b9050979650505050505050565b5f81519050610b7281610749565b92915050565b5f60208284031215610b8d57610b8c6106de565b5b5f610b9a84828501610b64565b91505092915050565b5f604082019050610bb65f83018561096c565b610bc360208301846108b6565b9392505050565b610bd381610858565b8114610bdd575f5ffd5b50565b5f81519050610bee81610bca565b92915050565b5f60208284031215610c0957610c086106de565b5b5f610c1684828501610be0565b91505092915050565b5f606082019050610c325f8301866108b6565b610c3f6020830185610a3f565b610c4c604083018461096c565b94935050505056fea264697066735822122004c9ce7e5f111165d562a5334eb27efb47e3e1e84cb80b6cae6594966cf48f8864736f6c634300081e0033","linkReferences":{}},"methodIdentifiers":{"borrowTo(address,uint256,address)":"ec88061c","checkpoint(address)":"a972985e","controller()":"f77c4791","openLeveragedPosition(address,address,uint256,address[])":"39a0880c","sweep(address,address)":"b8dc491b"},"id":0}