{"abi":[{"type":"constructor","inputs":[],"stateMutability":"nonpayable"},{"type":"receive","stateMutability":"payable"},{"type":"function","name":"executeOnOpportunity","inputs":[],"outputs":[],"stateMutability":"nonpayable"},{"type":"function","name":"observedAdmin","inputs":[],"outputs":[{"name":"","type":"address","internalType":"address"}],"stateMutability":"view"},{"type":"function","name":"observedPendingAdmin","inputs":[],"outputs":[{"name":"","type":"address","internalType":"address"}],"stateMutability":"view"},{"type":"function","name":"originalPathStageOneInfeasible","inputs":[],"outputs":[{"name":"","type":"bool","internalType":"bool"}],"stateMutability":"view"},{"type":"function","name":"profitAmount","inputs":[],"outputs":[{"name":"","type":"uint256","internalType":"uint256"}],"stateMutability":"view"},{"type":"function","name":"profitToken","inputs":[],"outputs":[{"name":"","type":"address","internalType":"address"}],"stateMutability":"view"},{"type":"function","name":"runRoute","inputs":[{"name":"route","type":"tuple","internalType":"struct FlawVerifier.Route","components":[{"name":"sourcePair","type":"address","internalType":"address"},{"name":"destPair","type":"address","internalType":"address"},{"name":"token","type":"address","internalType":"address"},{"name":"sourceTokenIsToken0","type":"bool","internalType":"bool"},{"name":"destTokenIsToken0","type":"bool","internalType":"bool"},{"name":"sourceReserveToken","type":"uint256","internalType":"uint256"},{"name":"sourceReserveWeth","type":"uint256","internalType":"uint256"},{"name":"destReserveToken","type":"uint256","internalType":"uint256"},{"name":"destReserveWeth","type":"uint256","internalType":"uint256"},{"name":"amountTokenOut","type":"uint256","internalType":"uint256"},{"name":"expectedWethOut","type":"uint256","internalType":"uint256"},{"name":"repayWeth","type":"uint256","internalType":"uint256"}]}],"outputs":[{"name":"profit","type":"uint256","internalType":"uint256"}],"stateMutability":"nonpayable"},{"type":"function","name":"uniswapV2Call","inputs":[{"name":"sender","type":"address","internalType":"address"},{"name":"amount0","type":"uint256","internalType":"uint256"},{"name":"amount1","type":"uint256","internalType":"uint256"},{"name":"data","type":"bytes","internalType":"bytes"}],"outputs":[],"stateMutability":"nonpayable"}],"bytecode":{"object":"0x60808060405234603a575f80546001600160a01b03191673c02aaa39b223fe8d0a0e5c4f27ead9083c756cc2179055611787908161003f8239f35b5f80fdfe608080604052600436101561001c575b50361561001a575f80fd5b005b5f905f3560e01c90816310d1e85c146106f7575080632f45953e146103ec5780633c2448ed1461013b57806342f8b34e1461011257806349343624146100eb5780635ff972cc146100cd578063a37ad528146100a75763b507f6b00361000f57346100a457806003193601126100a4576003546040516001600160a01b039091168152602090f35b80fd5b50346100a457806003193601126100a457602060ff60035460a01c166040519015158152f35b50346100a457806003193601126100a4576020600154604051908152f35b50346100a457806003193601126100a457546040516001600160a01b039091168152602090f35b50346100a457806003193601126100a4576002546040516001600160a01b039091168152602090f35b50346100a457806003193601126100a45760018190556040516303e1469160e61b815260208160048173ffadb0bba4379dfabfb20ca6823f6ec439429ec25afa9081156103895782916103cd575b50600280546001600160a01b0319166001600160a01b03929092169182179055604051632678224760e01b815260208160048173ffadb0bba4379dfabfb20ca6823f6ec439429ec25afa90811561034c57839161039e575b5060018060a01b03166003549130141580610394575b6001600160a81b03199092161790151560a01b60ff60a01b16176003556040516370a0823160e01b815230600482015260208160248173c02aaa39b223fe8d0a0e5c4f27ead9083c756cc25afa908115610389578291610357575b5061025b610be0565b6102b2575b5066038d7ea4c68000600154106102745780f35b60405162461bcd60e51b81526020600482015260166024820152751c1c9bd99a5d0818995b1bddc81d1a1c995cda1bdb1960521b6044820152606490fd5b6040516370a0823160e01b81523060048201529060208260248173c02aaa39b223fe8d0a0e5c4f27ead9083c756cc25afa91821561034c578392610314575b508082111561030c5761030391610ba0565b6001555f610260565b505080610303565b9091506020813d602011610344575b8161033060209383610b1e565b810103126103405751905f6102f1565b5f80fd5b3d9150610323565b6040513d85823e3d90fd5b90506020813d602011610381575b8161037260209383610b1e565b8101031261034057515f610252565b3d9150610365565b6040513d84823e3d90fd5b50308114156101f7565b6103c0915060203d6020116103c6575b6103b88183610b1e565b810190610bc1565b5f6101e1565b503d6103ae565b6103e6915060203d6020116103c6576103b88183610b1e565b5f610189565b50346100a4576101803660031901126100a4573033036106c6576040516370a0823160e01b81523060048201529060208260248173c02aaa39b223fe8d0a0e5c4f27ead9083c756cc25afa9182156106b9578192610685575b5061044e610b91565b1561067f57610124355b610460610b91565b156106755781905b6004356001600160a01b038116919082900361067157604051926001600160a01b03610492610ac3565b1660208501526024356001600160a01b0381169081900361066d5760408501526044356001600160a01b0381169081900361066d57606085015260643580151580910361066d57608085015260843580151580910361066d5760a085015260a43560c085015260c43560e085015260e4356101008501526101043561012085015261012435610140850152610144356101608501526101643561018085015261018084526105426101a085610b1e565b823b15610669579161057193918580946040519687958694859363022c0d9f60e01b8552309160048601610b4d565b03925af1801561038957908291610654575b50506040516370a0823160e01b815230600482015260208160248173c02aaa39b223fe8d0a0e5c4f27ead9083c756cc25afa9182156106485791610616575b50818111156105df576020916105d791610ba0565b604051908152f35b60405162461bcd60e51b815260206004820152600f60248201526e1b9bc81c9bdd5d19481c1c9bd99a5d608a1b6044820152606490fd5b90506020813d602011610640575b8161063160209383610b1e565b8101031261034057515f6105c2565b3d9150610624565b604051903d90823e3d90fd5b8161065e91610b1e565b6100a457805f610583565b8480fd5b8580fd5b8380fd5b6101243590610468565b80610458565b9091506020813d6020116106b1575b816106a160209383610b1e565b810103126103405751905f610445565b3d9150610694565b50604051903d90823e3d90fd5b60405162461bcd60e51b815260206004820152600960248201526873656c66206f6e6c7960b81b6044820152606490fd5b90503461034057608036600319011261034057610712610ac3565b90602435916064359167ffffffffffffffff8311610340573660238401121561034057826004013567ffffffffffffffff81116103405783019136602484011161034057306001600160a01b0390911603610a8e575061018090829003126103405760405161078081610aed565b61078c60248301610ad9565b80825261079b60448401610ad9565b93602083019485526107af60648501610ad9565b604084019081526107c260848601610b40565b60608501526107d360a48601610b40565b916080850192835260c486013560a086015260e486013560c086015261010486013560e0860152610124860135610100860152610120850190610144870135825261014086019461016488013586526101846101608801980135885260018060a01b03163303610a55578015610a4b57905b518103610a12579051865160405163a9059cbb60e01b60208201526001600160a01b03918216602482015260448082019490945292835261089292911661088d606483610b1e565b610f35565b156109db575115801591906109d3575f915b156109cb5751935b51604051602095916001600160a01b03166108c78783610b1e565b5f8252601f1987013688840137803b1561034057610901935f80946040519687958694859363022c0d9f60e01b8552309160048601610b4d565b03925af180156109c0576109a6575b5051905160405163a9059cbb60e01b848201526001600160a01b03909216602483015260448083019190915281526109679061094d606482610b1e565b73c02aaa39b223fe8d0a0e5c4f27ead9083c756cc2610f35565b15610970575080f35b6064906040519062461bcd60e51b82526004820152600f60248201526e1d1c985b9cd9995c8819985a5b1959608a1b6044820152fd5b610967929194505f6109b791610b1e565b5f939091610910565b6040513d5f823e3d90fd5b505f936108ac565b8051916108a4565b60405162461bcd60e51b815260206004820152600f60248201526e1d1c985b9cd9995c8819985a5b1959608a1b6044820152606490fd5b60405162461bcd60e51b815260206004820152601160248201527018985908189bdc9c9bddc8185b5bdd5b9d607a1b6044820152606490fd5b5060443590610845565b60405162461bcd60e51b81526020600482015260116024820152703130b21031b0b6363130b1b5903830b4b960791b6044820152606490fd5b62461bcd60e51b815260206004820152601060248201526f3130b210333630b9b41039b2b73232b960811b6044820152606490fd5b600435906001600160a01b038216820361034057565b35906001600160a01b038216820361034057565b610180810190811067ffffffffffffffff821117610b0a57604052565b634e487b7160e01b5f52604160045260245ffd5b90601f8019910116810190811067ffffffffffffffff821117610b0a57604052565b3590811515820361034057565b9260209260a09592855283850152600180861b03166040840152608060608401528051918291826080860152018484015e5f828201840152601f01601f1916010190565b60643580151581036103405790565b91908203918211610bad57565b634e487b7160e01b5f52601160045260245ffd5b9081602091031261034057516001600160a01b03811681036103405790565b604051610160810181811067ffffffffffffffff821117610b0a57604052736b175474e89094c44da98b954eedeac495271d0f815273a0b86991c6218b36c1d19d4a2e9eb0ce3606eb48602082015273dac17f958d2ee523a2206206994597c13d831ec76040820152732260fac5e5542a773aa44fbcfedf7c193bc2c599606082015273514910771af9ca656af840dff83e8264ecf986ca608082015273d533a949740bb3306d119cc777fa900ba034cd5260a082015273ba100000625a3754423978a60c9317c58a424e3d60c082015273853d955acef822db058eb8505911ed77f175b99e60e0820152737f39c581f595b53c5cb19bd0b3f8da6c935e2ca061010082015273f939e0a03fb07f59a73314e73794be0e57ac1b4e6101208201527364aa3364f17a4d01c6f1751fd97c2bd3d7e7f1d5610140820152604051610100810181811067ffffffffffffffff821117610b0a576040526002815260056020820152600a60408201526014606082015260286080820152605060a0820152607860c082015260b460e08201525f5b600b811015610eef5760018060a01b038160051b840151169060405163e6a4390560e01b815282600482015273c02aaa39b223fe8d0a0e5c4f27ead9083c756cc26024820152602081604481735c69bee701ef814a2b6a3edd4b1652cb9cc5aa6f5afa9081156109c0575f91610ed1575b5060405163e6a4390560e01b81526004810184905273c02aaa39b223fe8d0a0e5c4f27ead9083c756cc260248201529060208260448173c0aee478e3658e2610c5f7a4a2e1777ce9e4f2ac5afa9081156109c05785925f92610eb1575b506001600160a01b0381168015908115610e9f575b8115610e8c575b50610e8057610e6a9394610fdb565b610e78576001905b01610d71565b505050600190565b50505060019150610e72565b6001600160a01b0384161490505f610e5b565b6001600160a01b038416159150610e54565b610eca91925060203d81116103c6576103b88183610b1e565b905f610e3f565b610ee9915060203d81116103c6576103b88183610b1e565b5f610de2565b5050505f90565b3d15610f30573d9067ffffffffffffffff8211610b0a5760405191610f25601f8201601f191660200184610b1e565b82523d5f602084013e565b606090565b5f91829182602083519301915af1610f4b610ef6565b9015610f7c5780518015610f75578160209181010312610340576020015180151581036103405790565b5050600190565b505f90565b604051906080820182811067ffffffffffffffff821117610b0a576040525f6060838281528260208201528260408201520152565b906008811015610fc75760051b0190565b634e487b7160e01b5f52603260045260245ffd5b90929181610fe7610f81565b9161102d61100e83610ff7610f81565b6001600160a01b03808b16885285168152986110fb565b94916040879592950194606088019687528552151560208701526110fb565b9290918360608a01528260408a01521515602089015251159283156110dd575b5082156110d4575b5081156110cb575b506110c3575f5b600881106110755750505050505f90565b61108f61ffff6110858387610fb6565b51168684866112fd565b6110b9576110ad61ffff6110a38387610fb6565b51168387866112fd565b6110b957600101611064565b5050505050600190565b505050505f90565b9050155f61105d565b1591505f611055565b511592505f61104d565b51906001600160701b038216820361034057565b604051630dfe168160e01b8152926001600160a01b0390911691602084600481865afa9384156109c0575f946112dc575b5060405163d21220a760e01b815290602082600481875afa9182156109c0575f926112bb575b506001600160a01b0390811694168481149485929183611294575b8315611258575b5050501561122357606060049260405193848092630240bc6b60e21b82525afa9182156109c0575f905f936111cb575b5083156111bb576001600160701b03809116921690565b6001600160701b03928316921690565b9250506060823d60601161121b575b816111e760609383610b1e565b81010312610340576111f8826110e7565b6040611206602085016110e7565b93015163ffffffff811603610340575f6111a4565b3d91506111da565b60405162461bcd60e51b815260206004820152600d60248201526c0e0c2d2e440dad2e6dac2e8c6d609b1b6044820152606490fd5b73c02aaa39b223fe8d0a0e5c4f27ead9083c756cc21492509082611281575b50505f8080611174565b6001600160a01b03161490505f80611277565b6001600160a01b03831673c02aaa39b223fe8d0a0e5c4f27ead9083c756cc214935061116d565b6112d591925060203d6020116103c6576103b88183610b1e565b905f611152565b6112f691945060203d6020116103c6576103b88183610b1e565b925f61112c565b6113459261134a949260018060a01b038151169060018060a01b038351166020820151151560208501511515916060604085015194015194606060408801519701519761136b565b6114a6565b90565b8115611357570490565b634e487b7160e01b5f52601260045260245ffd5b95929896939098979491976040519661138388610aed565b5f88525f60208901525f60408901525f60608901525f60808901525f60a08901525f60c08901525f60e08901525f6101008901525f6101208901525f6101408901525f6101608901526113db61ffff899a1685611616565b9788158015611499575b61148a57506113f5888587611642565b996114018989896116be565b998b158015611480575b61147057506040519b61141d8d610aed565b6001600160a01b039081168d5290811660208d01521660408b0152151560608a01521515608089015260a088015260c087015260e086015261010085015261012084015261014083015261016082015290565b9b50505050505050505050505090565b508b8b111561140b565b9a505050505050505050505090565b50600385048910156113e5565b80516001600160a01b03161580156115f6575b80156115e2575b80156115be575b610f7c57604080516317a2ca9f60e11b602080830191825284516001600160a01b03908116602485015290850151811660448401529284015190921660648201526060830151151560848201526080830151151560a482015260a083015160c482015260c083015160e482015260e0830151610104820152610100830151610124820152610120830151610144820152610140830151610164820152610160909201516101848084019190915282525f918291906115876101a482610b1e565b519082305af1611595610ef6565b9015610f7c576020815191818082019384920101031261034057518015610f7c57600155600190565b5066038d7ea4c680006115dc61014083015161016084015190610ba0565b106114c7565b5061014081015161016082015110156114c0565b50610120810151156114b9565b81810292918115918404141715610bad57565b8015801561163a575b611634576127109161163091611603565b0490565b50505f90565b50811561161f565b821580156116b6575b80156116ae575b80156116a4575b610eef578261166791611603565b916103e88302928084046103e81490151715610bad5761168691610ba0565b6103e58102908082046103e51490151715610bad5761134a91611728565b5081831015611659565b508115611652565b50801561164b565b908215808015611720575b8015611718575b6110c3576103e584029384046103e5141715610bad576116f09083611603565b916103e88202918083046103e81490151715610bad578101809111610bad5761134a9161134d565b5081156116d0565b5082156116c9565b908115611634575f198201918211610bad576117439161134d565b60018101809111610bad579056fea2646970667358221220eea1d3a77418506cc3fb4774f3b1e4e603484363c4c9b11e4667e25e2ff0629564736f6c634300081e0033","linkReferences":{}},"methodIdentifiers":{"executeOnOpportunity()":"3c2448ed","observedAdmin()":"42f8b34e","observedPendingAdmin()":"b507f6b0","originalPathStageOneInfeasible()":"a37ad528","profitAmount()":"5ff972cc","profitToken()":"49343624","runRoute((address,address,address,bool,bool,uint256,uint256,uint256,uint256,uint256,uint256,uint256))":"2f45953e","uniswapV2Call(address,uint256,uint256,bytes)":"10d1e85c"},"id":0}