{"abi":[{"type":"constructor","inputs":[],"stateMutability":"nonpayable"},{"type":"receive","stateMutability":"payable"},{"type":"function","name":"MIM","inputs":[],"outputs":[{"name":"","type":"address","internalType":"address"}],"stateMutability":"view"},{"type":"function","name":"TARGET","inputs":[],"outputs":[{"name":"","type":"address","internalType":"address"}],"stateMutability":"view"},{"type":"function","name":"_externalAddCollateral","inputs":[{"name":"share","type":"uint256","internalType":"uint256"}],"outputs":[],"stateMutability":"nonpayable"},{"type":"function","name":"bentoBoxAddress","inputs":[],"outputs":[{"name":"","type":"address","internalType":"address"}],"stateMutability":"view"},{"type":"function","name":"borrowPathUsed","inputs":[],"outputs":[{"name":"","type":"bool","internalType":"bool"}],"stateMutability":"view"},{"type":"function","name":"borrowedMimAmount","inputs":[],"outputs":[{"name":"","type":"uint256","internalType":"uint256"}],"stateMutability":"view"},{"type":"function","name":"borrowedMimShare","inputs":[],"outputs":[{"name":"","type":"uint256","internalType":"uint256"}],"stateMutability":"view"},{"type":"function","name":"collateralShareAdded","inputs":[],"outputs":[{"name":"","type":"uint256","internalType":"uint256"}],"stateMutability":"view"},{"type":"function","name":"collateralShareRemoved","inputs":[],"outputs":[{"name":"","type":"uint256","internalType":"uint256"}],"stateMutability":"view"},{"type":"function","name":"collateralToken","inputs":[],"outputs":[{"name":"","type":"address","internalType":"address"}],"stateMutability":"view"},{"type":"function","name":"execute","inputs":[],"outputs":[],"stateMutability":"nonpayable"},{"type":"function","name":"executeOnOpportunity","inputs":[],"outputs":[],"stateMutability":"nonpayable"},{"type":"function","name":"exploit","inputs":[],"outputs":[],"stateMutability":"nonpayable"},{"type":"function","name":"flashCollateralAmount","inputs":[],"outputs":[{"name":"","type":"uint256","internalType":"uint256"}],"stateMutability":"view"},{"type":"function","name":"flashCollateralFee","inputs":[],"outputs":[{"name":"","type":"uint256","internalType":"uint256"}],"stateMutability":"view"},{"type":"function","name":"hypothesisRefuted","inputs":[],"outputs":[{"name":"","type":"bool","internalType":"bool"}],"stateMutability":"view"},{"type":"function","name":"hypothesisValidated","inputs":[],"outputs":[{"name":"","type":"bool","internalType":"bool"}],"stateMutability":"view"},{"type":"function","name":"infeasibleReason","inputs":[],"outputs":[{"name":"","type":"bytes32","internalType":"bytes32"}],"stateMutability":"view"},{"type":"function","name":"onFlashLoan","inputs":[{"name":"sender","type":"address","internalType":"address"},{"name":"token","type":"address","internalType":"address"},{"name":"amount","type":"uint256","internalType":"uint256"},{"name":"fee","type":"uint256","internalType":"uint256"},{"name":"","type":"bytes","internalType":"bytes"}],"outputs":[],"stateMutability":"nonpayable"},{"type":"function","name":"postBorrowSolvent","inputs":[],"outputs":[{"name":"","type":"bool","internalType":"bool"}],"stateMutability":"view"},{"type":"function","name":"profitAmount","inputs":[],"outputs":[{"name":"","type":"uint256","internalType":"uint256"}],"stateMutability":"view"},{"type":"function","name":"profitToken","inputs":[],"outputs":[{"name":"","type":"address","internalType":"address"}],"stateMutability":"pure"},{"type":"function","name":"removePathUsed","inputs":[],"outputs":[{"name":"","type":"bool","internalType":"bool"}],"stateMutability":"view"},{"type":"function","name":"run","inputs":[],"outputs":[],"stateMutability":"nonpayable"},{"type":"error","name":"Infeasible","inputs":[{"name":"reason","type":"bytes32","internalType":"bytes32"}]}],"bytecode":{"object":"0x6080604052348015600e575f5ffd5b506138f38061001c5f395ff3fe60806040526004361061014e575f3560e01c8063892d0bd2116100b5578063d5b5a5571161006e578063d5b5a557146103fb578063daec383d14610425578063e7cda06d1461044f578063e8fbed3f14610479578063eb77ff0f146104a3578063fb3ba481146104cd57610155565b8063892d0bd214610313578063958095581461033d578063a665215714610367578063b2016bd414610391578063c0406226146103bb578063cc1f2afa146103d157610155565b80635a6e402b116101075780635a6e402b1461023f5780635ff972cc1461026957806361461954146102935780636208fdd8146102a957806362695192146102d357806363d9b770146102fd57610155565b806323e30c8b146101595780633c2448ed146101815780634071084d14610197578063463defd1146101c157806349343624146101eb578063495f92f11461021557610155565b3661015557005b5f5ffd5b348015610164575f5ffd5b5061017f600480360381019061017a9190612b93565b6104f5565b005b34801561018c575f5ffd5b50610195610eea565b005b3480156101a2575f5ffd5b506101ab610ef4565b6040516101b89190612c38565b60405180910390f35b3480156101cc575f5ffd5b506101d5610efa565b6040516101e29190612c6b565b60405180910390f35b3480156101f6575f5ffd5b506101ff610f0d565b60405161020c9190612c93565b60405180910390f35b348015610220575f5ffd5b50610229610f28565b6040516102369190612c6b565b60405180910390f35b34801561024a575f5ffd5b50610253610f3b565b6040516102609190612c38565b60405180910390f35b348015610274575f5ffd5b5061027d610f41565b60405161028a9190612c38565b60405180910390f35b34801561029e575f5ffd5b506102a7610f4a565b005b3480156102b4575f5ffd5b506102bd610f54565b6040516102ca9190612c38565b60405180910390f35b3480156102de575f5ffd5b506102e7610f5a565b6040516102f49190612c6b565b60405180910390f35b348015610308575f5ffd5b50610311610f6d565b005b34801561031e575f5ffd5b50610327610f77565b6040516103349190612c38565b60405180910390f35b348015610348575f5ffd5b50610351610f7d565b60405161035e9190612c38565b60405180910390f35b348015610372575f5ffd5b5061037b610f83565b6040516103889190612cc4565b60405180910390f35b34801561039c575f5ffd5b506103a5610f89565b6040516103b29190612c93565b60405180910390f35b3480156103c6575f5ffd5b506103cf610fae565b005b3480156103dc575f5ffd5b506103e5610fb8565b6040516103f29190612c93565b60405180910390f35b348015610406575f5ffd5b5061040f610fd0565b60405161041c9190612c6b565b60405180910390f35b348015610430575f5ffd5b50610439610fe3565b6040516104469190612c93565b60405180910390f35b34801561045a575f5ffd5b50610463610ffb565b6040516104709190612c38565b60405180910390f35b348015610484575f5ffd5b5061048d611001565b60405161049a9190612c6b565b60405180910390f35b3480156104ae575f5ffd5b506104b7611014565b6040516104c49190612c93565b60405180910390f35b3480156104d8575f5ffd5b506104f360048036038101906104ee9190612cdd565b611039565b005b60025f9054906101000a900473ffffffffffffffffffffffffffffffffffffffff1673ffffffffffffffffffffffffffffffffffffffff163373ffffffffffffffffffffffffffffffffffffffff16146105c2576040518060400160405280601281526020017f6261642d62656e746f2d63616c6c6261636b0000000000000000000000000000815250805190602001206040517f5c9c02660000000000000000000000000000000000000000000000000000000081526004016105b99190612cc4565b60405180910390fd5b3073ffffffffffffffffffffffffffffffffffffffff168673ffffffffffffffffffffffffffffffffffffffff161461066e576040518060400160405280601081526020017f6261642d666c6173682d73656e64657200000000000000000000000000000000815250805190602001206040517f5c9c02660000000000000000000000000000000000000000000000000000000081526004016106659190612cc4565b60405180910390fd5b60035f9054906101000a900473ffffffffffffffffffffffffffffffffffffffff1673ffffffffffffffffffffffffffffffffffffffff168573ffffffffffffffffffffffffffffffffffffffff161461073b576040518060400160405280600f81526020017f6261642d666c6173682d746f6b656e0000000000000000000000000000000000815250805190602001206040517f5c9c02660000000000000000000000000000000000000000000000000000000081526004016107329190612cc4565b60405180910390fd5b5f73289424add4a1a503870eb475fd8bf1d586b134ed90505f60025f9054906101000a900473ffffffffffffffffffffffffffffffffffffffff16905085600681905550846007819055506107f360035f9054906101000a900473ffffffffffffffffffffffffffffffffffffffff1660025f9054906101000a900473ffffffffffffffffffffffffffffffffffffffff167fffffffffffffffffffffffffffffffffffffffffffffffffffffffffffffffff6111b5565b610869818373ffffffffffffffffffffffffffffffffffffffff1663cd446e226040518163ffffffff1660e01b8152600401602060405180830381865afa158015610840573d5f5f3e3d5ffd5b505050506040513d601f19601f820116820180604052508101906108649190612d1c565b61125a565b5f8173ffffffffffffffffffffffffffffffffffffffff166302b9446c60035f9054906101000a900473ffffffffffffffffffffffffffffffffffffffff1630308b5f6040518663ffffffff1660e01b81526004016108cc959493929190612d89565b60408051808303815f875af11580156108e7573d5f5f3e3d5ffd5b505050506040513d601f19601f8201168201806040525081019061090b9190612dee565b9150505f810361098e576040518060400160405280601581526020017f7a65726f2d636f6c6c61746572616c2d73686172650000000000000000000000815250805190602001206040517f5c9c02660000000000000000000000000000000000000000000000000000000081526004016109859190612cc4565b60405180910390fd5b806008819055508273ffffffffffffffffffffffffffffffffffffffff166302ce728f6040518163ffffffff1660e01b815260040160408051808303815f875af11580156109de573d5f5f3e3d5ffd5b505050506040513d601f19601f82011682018060405250810190610a029190612e56565b50508173ffffffffffffffffffffffffffffffffffffffff166391e0eab5308573ffffffffffffffffffffffffffffffffffffffff1663cd446e226040518163ffffffff1660e01b8152600401602060405180830381865afa158015610a6a573d5f5f3e3d5ffd5b505050506040513d601f19601f82011682018060405250810190610a8e9190612d1c565b6040518363ffffffff1660e01b8152600401610aab929190612e94565b602060405180830381865afa925050508015610ae557506040513d601f19601f82011682018060405250810190610ae29190612ebb565b60015b15610b6a5780610b68576040518060400160405280601381526020017f6d61737465722d6e6f742d617070726f76656400000000000000000000000000815250805190602001206040517f5c9c0266000000000000000000000000000000000000000000000000000000008152600401610b5f9190612cc4565b60405180910390fd5b505b3073ffffffffffffffffffffffffffffffffffffffff1663fb3ba481826040518263ffffffff1660e01b8152600401610ba39190612c38565b5f604051808303815f87803b158015610bba575f5ffd5b505af1925050508015610bcb575060015b610c48576040518060400160405280601581526020017f6164642d636f6c6c61746572616c2d6661696c65640000000000000000000000815250805190602001206040517f5c9c0266000000000000000000000000000000000000000000000000000000008152600401610c3f9190612cc4565b60405180910390fd5b610c51816113d2565b610cce576040518060400160405280601281526020017f72656d6f76652d706174682d6661696c65640000000000000000000000000000815250805190602001206040517f5c9c0266000000000000000000000000000000000000000000000000000000008152600401610cc59190612cc4565b60405180910390fd5b8173ffffffffffffffffffffffffffffffffffffffff1663f7888aec60035f9054906101000a900473ffffffffffffffffffffffffffffffffffffffff16306040518363ffffffff1660e01b8152600401610d2a929190612e94565b602060405180830381865afa158015610d45573d5f5f3e3d5ffd5b505050506040513d601f19601f82011682018060405250810190610d699190612ee6565b6009819055505f8614610def576040518060400160405280601181526020017f666c6173682d6665652d6e6f6e7a65726f000000000000000000000000000000815250805190602001206040517f5c9c0266000000000000000000000000000000000000000000000000000000008152600401610de69190612cc4565b60405180910390fd5b8173ffffffffffffffffffffffffffffffffffffffff166397da6d3060035f9054906101000a900473ffffffffffffffffffffffffffffffffffffffff1630308b5f6040518663ffffffff1660e01b8152600401610e51959493929190612d89565b60408051808303815f875af1158015610e6c573d5f5f3e3d5ffd5b505050506040513d601f19601f82011682018060405250810190610e909190612dee565b5050610edf60035f9054906101000a900473ffffffffffffffffffffffffffffffffffffffff1660025f9054906101000a900473ffffffffffffffffffffffffffffffffffffffff1689611629565b505050505050505050565b610ef2611778565b565b60085481565b600360169054906101000a900460ff1681565b5f7399d8a9c45b2eca8864373a26d1459e3dff1e17f3905090565b600360179054906101000a900460ff1681565b60075481565b5f600154905090565b610f52611778565b565b60055481565b600360149054906101000a900460ff1681565b610f75611778565b565b60065481565b60095481565b600a5481565b60035f9054906101000a900473ffffffffffffffffffffffffffffffffffffffff1681565b610fb6611778565b565b73289424add4a1a503870eb475fd8bf1d586b134ed81565b600360189054906101000a900460ff1681565b7399d8a9c45b2eca8864373a26d1459e3dff1e17f381565b60045481565b600360159054906101000a900460ff1681565b60025f9054906101000a900473ffffffffffffffffffffffffffffffffffffffff1681565b3073ffffffffffffffffffffffffffffffffffffffff163373ffffffffffffffffffffffffffffffffffffffff16146110e5576040518060400160405280600e81526020017f73656c662d63616c6c2d6f6e6c79000000000000000000000000000000000000815250805190602001206040517f5c9c02660000000000000000000000000000000000000000000000000000000081526004016110dc9190612cc4565b60405180910390fd5b73289424add4a1a503870eb475fd8bf1d586b134ed73ffffffffffffffffffffffffffffffffffffffff1663656f3d6461111f600a611a8c565b611127611b07565b61115385305f60405160200161113f93929190612f29565b604051602081830303815290604052611b58565b6040518463ffffffff1660e01b815260040161117193929190613203565b60408051808303815f875af115801561118c573d5f5f3e3d5ffd5b505050506040513d601f19601f820116820180604052508101906111b09190612dee565b505050565b8273ffffffffffffffffffffffffffffffffffffffff1663dd62ed3e30846040518363ffffffff1660e01b81526004016111f0929190612e94565b602060405180830381865afa92505050801561122a57506040513d601f19601f820116820180604052508101906112279190612ee6565b60015b1561123e5781811061123c5750611255565b505b61124983835f611bcf565b611254838383611bcf565b5b505050565b5f8273ffffffffffffffffffffffffffffffffffffffff166391e0eab530846040518363ffffffff1660e01b8152600401611296929190612e94565b602060405180830381865afa9250505080156112d057506040513d601f19601f820116820180604052508101906112cd9190612ebb565b60015b156112da57809150505b806113cd578273ffffffffffffffffffffffffffffffffffffffff1663c0a47c93308460015f5f5f1b5f5f1b6040518763ffffffff1660e01b81526004016113279695949392919061327d565b5f604051808303815f87803b15801561133e575f5ffd5b505af192505050801561134f575060015b6113cc576040518060400160405280600f81526020017f617070726f76616c2d6661696c65640000000000000000000000000000000000815250805190602001206040517f5c9c02660000000000000000000000000000000000000000000000000000000081526004016113c39190612cc4565b60405180910390fd5b5b505050565b5f5f600267ffffffffffffffff8111156113ef576113ee6132dc565b5b60405190808252806020026020018201604052801561141d5781602001602082028036833780820191505090505b5090506004815f8151811061143557611434613309565b5b602002602001019060ff16908160ff168152505060088160018151811061145f5761145e613309565b5b602002602001019060ff16908160ff16815250505f600267ffffffffffffffff81111561148f5761148e6132dc565b5b6040519080825280602002602001820160405280156114bd5781602001602082028036833780820191505090505b5090505f600267ffffffffffffffff8111156114dc576114db6132dc565b5b60405190808252806020026020018201604052801561150f57816020015b60608152602001906001900390816114fa5790505b5090508430604051602001611525929190613336565b604051602081830303815290604052815f8151811061154757611546613309565b5b602002602001018190525060405180602001604052805f8152508160018151811061157557611574613309565b5b602002602001018190525073289424add4a1a503870eb475fd8bf1d586b134ed73ffffffffffffffffffffffffffffffffffffffff1663656f3d648484846040518463ffffffff1660e01b81526004016115d193929190613203565b60408051808303815f875af192505050801561160b57506040513d601f19601f820116820180604052508101906116089190612dee565b60015b61161a575f9350505050611624565b6001955050505050505b919050565b5f5f8473ffffffffffffffffffffffffffffffffffffffff1663a9059cbb60e01b858560405160240161165d92919061335d565b604051602081830303815290604052907bffffffffffffffffffffffffffffffffffffffffffffffffffffffff19166020820180517bffffffffffffffffffffffffffffffffffffffffffffffffffffffff83818316178352505050506040516116c791906133be565b5f604051808303815f865af19150503d805f8114611700576040519150601f19603f3d011682016040523d82523d5f602084013e611705565b606091505b509150915081801561173257505f815114806117315750808060200190518101906117309190612ebb565b5b5b611771576040517f08c379a00000000000000000000000000000000000000000000000000000000081526004016117689061342e565b60405180910390fd5b5050505050565b5f5f9054906101000a900460ff16611a8a5760015f5f6101000a81548160ff0219169083151502179055505f73289424add4a1a503870eb475fd8bf1d586b134ed90508073ffffffffffffffffffffffffffffffffffffffff16636b2ace876040518163ffffffff1660e01b8152600401602060405180830381865afa158015611804573d5f5f3e3d5ffd5b505050506040513d601f19601f820116820180604052508101906118289190612d1c565b60025f6101000a81548173ffffffffffffffffffffffffffffffffffffffff021916908373ffffffffffffffffffffffffffffffffffffffff1602179055508073ffffffffffffffffffffffffffffffffffffffff1663d8dfeb456040518163ffffffff1660e01b8152600401602060405180830381865afa1580156118b0573d5f5f3e3d5ffd5b505050506040513d601f19601f820116820180604052508101906118d49190612d1c565b60035f6101000a81548173ffffffffffffffffffffffffffffffffffffffff021916908373ffffffffffffffffffffffffffffffffffffffff16021790555061191c81611d1e565b600360149054906101000a900460ff161561193a57611939611f80565b5b7399d8a9c45b2eca8864373a26d1459e3dff1e17f373ffffffffffffffffffffffffffffffffffffffff166370a08231306040518263ffffffff1660e01b81526004016119879190612c93565b602060405180830381865afa1580156119a2573d5f5f3e3d5ffd5b505050506040513d601f19601f820116820180604052508101906119c69190612ee6565b600181905550600360149054906101000a900460ff16600360166101000a81548160ff021916908315150217905550600360149054906101000a900460ff1615600360176101000a81548160ff021916908315150217905550600360149054906101000a900460ff16158015611a3f57505f5f1b600a54145b15611a88576040518060400160405280601281526020017f626f72726f772d706174682d6661696c6564000000000000000000000000000081525080519060200120600a819055505b505b565b6060600167ffffffffffffffff811115611aa957611aa86132dc565b5b604051908082528060200260200182016040528015611ad75781602001602082028036833780820191505090505b50905081815f81518110611aee57611aed613309565b5b602002602001019060ff16908160ff1681525050919050565b6060600167ffffffffffffffff811115611b2457611b236132dc565b5b604051908082528060200260200182016040528015611b525781602001602082028036833780820191505090505b50905090565b6060600167ffffffffffffffff811115611b7557611b746132dc565b5b604051908082528060200260200182016040528015611ba857816020015b6060815260200190600190039081611b935790505b50905081815f81518110611bbf57611bbe613309565b5b6020026020010181905250919050565b5f5f8473ffffffffffffffffffffffffffffffffffffffff1663095ea7b360e01b8585604051602401611c0392919061335d565b604051602081830303815290604052907bffffffffffffffffffffffffffffffffffffffffffffffffffffffff19166020820180517bffffffffffffffffffffffffffffffffffffffffffffffffffffffff8381831617835250505050604051611c6d91906133be565b5f604051808303815f865af19150503d805f8114611ca6576040519150601f19603f3d011682016040523d82523d5f602084013e611cab565b606091505b5091509150818015611cd857505f81511480611cd7575080806020019051810190611cd69190612ebb565b5b5b611d17576040517f08c379a0000000000000000000000000000000000000000000000000000000008152600401611d0e90613496565b60405180910390fd5b5050505050565b5f611d28826121ce565b90505f8103611d7a576040518060400160405280601a81526020017f6e6f2d6c69717569646974792d6f722d626f72726f772d63617000000000000081525080519060200120600a8190555050611f7d565b5f6040518061010001604052808381526020016064606385611d9c91906134e1565b611da6919061354f565b81526020016064605f85611dba91906134e1565b611dc4919061354f565b81526020016064605a85611dd891906134e1565b611de2919061354f565b8152602001600284611df4919061354f565b8152602001600484611e06919061354f565b8152602001600a84611e18919061354f565b8152602001600181525090505f5f90505b6008811015611f36575f828260088110611e4657611e45613309565b5b602002015190505f8103611e5a5750611f29565b611e63816126ec565b15611f2757806004819055506001600360146101000a81548160ff0219169083151502179055508473ffffffffffffffffffffffffffffffffffffffff166338b51ce1306040518263ffffffff1660e01b8152600401611ec39190612c93565b602060405180830381865afa925050508015611efd57506040513d601f19601f82011682018060405250810190611efa9190612ebb565b60015b15611f1e5780600360186101000a81548160ff021916908315150217905550505b50505050611f7d565b505b8080600101915050611e29565b506040518060400160405280601481526020017f626f72726f772d636f6f6b2d726576657274656400000000000000000000000081525080519060200120600a8190555050505b50565b5f604051806080016040528060018152602001600a8152602001606481526020016103e881525090505f5f90505b60048110156121c95760025f9054906101000a900473ffffffffffffffffffffffffffffffffffffffff1673ffffffffffffffffffffffffffffffffffffffff1663f1676d37303060035f9054906101000a900473ffffffffffffffffffffffffffffffffffffffff1686866004811061202b5761202a613309565b5b602002015160405180602001604052805f8152506040518663ffffffff1660e01b815260040161205f959493929190613619565b5f604051808303815f87803b158015612076575f5ffd5b505af1925050508015612087575060015b61219a5761209361367d565b806308c379a0036120fb57506120a76136cd565b806120b257506120fd565b6040518060400160405280601481526020017f72656d6f76652d706174682d726576657274656400000000000000000000000081525080519060200120600a8190555050612195565b505b3d805f8114612127576040519150601f19603f3d011682016040523d82523d5f602084013e61212c565b606091505b505f612137826129fa565b90505f5f1b811461214e5780600a81905550612192565b6040518060400160405280601481526020017f72656d6f76652d706174682d726576657274656400000000000000000000000081525080519060200120600a819055505b50505b6121bc565b6001600360156101000a81548160ff02191690831515021790555050506121cc565b8080600101915050611fae565b50505b565b5f5f60025f9054906101000a900473ffffffffffffffffffffffffffffffffffffffff1690505f8173ffffffffffffffffffffffffffffffffffffffff1663f7888aec7399d8a9c45b2eca8864373a26d1459e3dff1e17f373289424add4a1a503870eb475fd8bf1d586b134ed6040518363ffffffff1660e01b8152600401612258929190612e94565b602060405180830381865afa158015612273573d5f5f3e3d5ffd5b505050506040513d601f19601f820116820180604052508101906122979190612ee6565b90505f8273ffffffffffffffffffffffffffffffffffffffff1663566231187399d8a9c45b2eca8864373a26d1459e3dff1e17f3845f6040518463ffffffff1660e01b81526004016122eb9392919061375c565b602060405180830381865afa158015612306573d5f5f3e3d5ffd5b505050506040513d601f19601f8201168201806040525081019061232a9190612ee6565b90505f810361233e575f93505050506126e7565b5f5f8673ffffffffffffffffffffffffffffffffffffffff1663e551d11d6040518163ffffffff1660e01b81526004016040805180830381865afa158015612388573d5f5f3e3d5ffd5b505050506040513d601f19601f820116820180604052508101906123ac91906137d6565b915091505f5f8873ffffffffffffffffffffffffffffffffffffffff16638285ef406040518163ffffffff1660e01b81526004016040805180830381865afa1580156123fa573d5f5f3e3d5ffd5b505050506040513d601f19601f8201168201806040525081019061241e91906137d6565b915091505f8973ffffffffffffffffffffffffffffffffffffffff166348e4163e306040518263ffffffff1660e01b815260040161245c9190612c93565b602060405180830381865afa158015612477573d5f5f3e3d5ffd5b505050506040513d601f19601f8201168201806040525081019061249b9190612ee6565b90505f836fffffffffffffffffffffffffffffffff16866fffffffffffffffffffffffffffffffff16116124cf575f6124ee565b83866124db9190613814565b6fffffffffffffffffffffffffffffffff165b90505f82866fffffffffffffffffffffffffffffffff1611612510575f61252f565b82866fffffffffffffffffffffffffffffffff1661252e9190613857565b5b90505f82148061253e57505f81145b15612555575f9a50505050505050505050506126e7565b5f8c73ffffffffffffffffffffffffffffffffffffffff1663aba024f46040518163ffffffff1660e01b8152600401602060405180830381865afa15801561259f573d5f5f3e3d5ffd5b505050506040513d601f19601f820116820180604052508101906125c39190612ee6565b90505f5f866fffffffffffffffffffffffffffffffff1614806125f757505f876fffffffffffffffffffffffffffffffff16145b1561260457829050612642565b856fffffffffffffffffffffffffffffffff16876fffffffffffffffffffffffffffffffff168461263591906134e1565b61263f919061354f565b90505b5f6126568b6126518785612a7c565b612a7c565b90505f8103612674575f9d50505050505050505050505050506126e7565b82620186a0612683919061388a565b620186a08261269291906134e1565b61269c919061354f565b9d50620f42408e11156126bf57620f42408e6126b89190613857565b9d506126d9565b60018e11156126d85760018e6126d59190613857565b9d505b5b505050505050505050505050505b919050565b5f5f600267ffffffffffffffff811115612709576127086132dc565b5b6040519080825280602002602001820160405280156127375781602001602082028036833780820191505090505b5090506005815f8151811061274f5761274e613309565b5b602002602001019060ff16908160ff168152505060088160018151811061277957612778613309565b5b602002602001019060ff16908160ff16815250505f600267ffffffffffffffff8111156127a9576127a86132dc565b5b6040519080825280602002602001820160405280156127d75781602001602082028036833780820191505090505b5090505f600267ffffffffffffffff8111156127f6576127f56132dc565b5b60405190808252806020026020018201604052801561282957816020015b60608152602001906001900390816128145790505b509050843060405160200161283f929190613336565b604051602081830303815290604052815f8151811061286157612860613309565b5b602002602001018190525060405180602001604052805f8152508160018151811061288f5761288e613309565b5b602002602001018190525073289424add4a1a503870eb475fd8bf1d586b134ed73ffffffffffffffffffffffffffffffffffffffff1663656f3d648484846040518463ffffffff1660e01b81526004016128eb93929190613203565b60408051808303815f875af192505050801561292557506040513d601f19601f820116820180604052508101906129229190612dee565b60015b612934575f93505050506129f5565b60025f9054906101000a900473ffffffffffffffffffffffffffffffffffffffff1673ffffffffffffffffffffffffffffffffffffffff1663da5139ca7399d8a9c45b2eca8864373a26d1459e3dff1e17f3895f6040518463ffffffff1660e01b81526004016129a69392919061375c565b602060405180830381865afa1580156129c1573d5f5f3e3d5ffd5b505050506040513d601f19601f820116820180604052508101906129e59190612ee6565b6005819055506001955050505050505b919050565b5f602482511015612a0f575f5f1b9050612a77565b5f60208301519050635c9c026660e01b7bffffffffffffffffffffffffffffffffffffffffffffffffffffffff1916817bffffffffffffffffffffffffffffffffffffffffffffffffffffffff191614612a6e575f5f1b915050612a77565b60448301519150505b919050565b5f818310612a8a5781612a8c565b825b905092915050565b5f604051905090565b5f5ffd5b5f5ffd5b5f73ffffffffffffffffffffffffffffffffffffffff82169050919050565b5f612ace82612aa5565b9050919050565b612ade81612ac4565b8114612ae8575f5ffd5b50565b5f81359050612af981612ad5565b92915050565b5f819050919050565b612b1181612aff565b8114612b1b575f5ffd5b50565b5f81359050612b2c81612b08565b92915050565b5f5ffd5b5f5ffd5b5f5ffd5b5f5f83601f840112612b5357612b52612b32565b5b8235905067ffffffffffffffff811115612b7057612b6f612b36565b5b602083019150836001820283011115612b8c57612b8b612b3a565b5b9250929050565b5f5f5f5f5f5f60a08789031215612bad57612bac612a9d565b5b5f612bba89828a01612aeb565b9650506020612bcb89828a01612aeb565b9550506040612bdc89828a01612b1e565b9450506060612bed89828a01612b1e565b935050608087013567ffffffffffffffff811115612c0e57612c0d612aa1565b5b612c1a89828a01612b3e565b92509250509295509295509295565b612c3281612aff565b82525050565b5f602082019050612c4b5f830184612c29565b92915050565b5f8115159050919050565b612c6581612c51565b82525050565b5f602082019050612c7e5f830184612c5c565b92915050565b612c8d81612ac4565b82525050565b5f602082019050612ca65f830184612c84565b92915050565b5f819050919050565b612cbe81612cac565b82525050565b5f602082019050612cd75f830184612cb5565b92915050565b5f60208284031215612cf257612cf1612a9d565b5b5f612cff84828501612b1e565b91505092915050565b5f81519050612d1681612ad5565b92915050565b5f60208284031215612d3157612d30612a9d565b5b5f612d3e84828501612d08565b91505092915050565b5f819050919050565b5f819050919050565b5f612d73612d6e612d6984612d47565b612d50565b612aff565b9050919050565b612d8381612d59565b82525050565b5f60a082019050612d9c5f830188612c84565b612da96020830187612c84565b612db66040830186612c84565b612dc36060830185612c29565b612dd06080830184612d7a565b9695505050505050565b5f81519050612de881612b08565b92915050565b5f5f60408385031215612e0457612e03612a9d565b5b5f612e1185828601612dda565b9250506020612e2285828601612dda565b9150509250929050565b612e3581612c51565b8114612e3f575f5ffd5b50565b5f81519050612e5081612e2c565b92915050565b5f5f60408385031215612e6c57612e6b612a9d565b5b5f612e7985828601612e42565b9250506020612e8a85828601612dda565b9150509250929050565b5f604082019050612ea75f830185612c84565b612eb46020830184612c84565b9392505050565b5f60208284031215612ed057612ecf612a9d565b5b5f612edd84828501612e42565b91505092915050565b5f60208284031215612efb57612efa612a9d565b5b5f612f0884828501612dda565b91505092915050565b5f819050919050565b612f2381612f11565b82525050565b5f606082019050612f3c5f830186612f1a565b612f496020830185612c84565b612f566040830184612c5c565b949350505050565b5f81519050919050565b5f82825260208201905092915050565b5f819050602082019050919050565b5f60ff82169050919050565b612f9c81612f87565b82525050565b5f612fad8383612f93565b60208301905092915050565b5f602082019050919050565b5f612fcf82612f5e565b612fd98185612f68565b9350612fe483612f78565b805f5b83811015613014578151612ffb8882612fa2565b975061300683612fb9565b925050600181019050612fe7565b5085935050505092915050565b5f81519050919050565b5f82825260208201905092915050565b5f819050602082019050919050565b61305381612aff565b82525050565b5f613064838361304a565b60208301905092915050565b5f602082019050919050565b5f61308682613021565b613090818561302b565b935061309b8361303b565b805f5b838110156130cb5781516130b28882613059565b97506130bd83613070565b92505060018101905061309e565b5085935050505092915050565b5f81519050919050565b5f82825260208201905092915050565b5f819050602082019050919050565b5f81519050919050565b5f82825260208201905092915050565b8281835e5f83830152505050565b5f601f19601f8301169050919050565b5f61314382613101565b61314d818561310b565b935061315d81856020860161311b565b61316681613129565b840191505092915050565b5f61317c8383613139565b905092915050565b5f602082019050919050565b5f61319a826130d8565b6131a481856130e2565b9350836020820285016131b6856130f2565b805f5b858110156131f157848403895281516131d28582613171565b94506131dd83613184565b925060208a019950506001810190506131b9565b50829750879550505050505092915050565b5f6060820190508181035f83015261321b8186612fc5565b9050818103602083015261322f818561307c565b905081810360408301526132438184613190565b9050949350505050565b5f61326761326261325d84612d47565b612d50565b612f87565b9050919050565b6132778161324d565b82525050565b5f60c0820190506132905f830189612c84565b61329d6020830188612c84565b6132aa6040830187612c5c565b6132b7606083018661326e565b6132c46080830185612cb5565b6132d160a0830184612cb5565b979650505050505050565b7f4e487b71000000000000000000000000000000000000000000000000000000005f52604160045260245ffd5b7f4e487b71000000000000000000000000000000000000000000000000000000005f52603260045260245ffd5b5f6040820190506133495f830185612f1a565b6133566020830184612c84565b9392505050565b5f6040820190506133705f830185612c84565b61337d6020830184612c29565b9392505050565b5f81905092915050565b5f61339882613101565b6133a28185613384565b93506133b281856020860161311b565b80840191505092915050565b5f6133c9828461338e565b915081905092915050565b5f82825260208201905092915050565b7f7472616e736665722d6661696c656400000000000000000000000000000000005f82015250565b5f613418600f836133d4565b9150613423826133e4565b602082019050919050565b5f6020820190508181035f8301526134458161340c565b9050919050565b7f617070726f76652d6661696c65640000000000000000000000000000000000005f82015250565b5f613480600e836133d4565b915061348b8261344c565b602082019050919050565b5f6020820190508181035f8301526134ad81613474565b9050919050565b7f4e487b71000000000000000000000000000000000000000000000000000000005f52601160045260245ffd5b5f6134eb82612aff565b91506134f683612aff565b925082820261350481612aff565b9150828204841483151761351b5761351a6134b4565b5b5092915050565b7f4e487b71000000000000000000000000000000000000000000000000000000005f52601260045260245ffd5b5f61355982612aff565b915061356483612aff565b92508261357457613573613522565b5b828204905092915050565b5f61359961359461358f84612aa5565b612d50565b612aa5565b9050919050565b5f6135aa8261357f565b9050919050565b5f6135bb826135a0565b9050919050565b6135cb816135b1565b82525050565b5f82825260208201905092915050565b5f6135eb82613101565b6135f581856135d1565b935061360581856020860161311b565b61360e81613129565b840191505092915050565b5f60a08201905061362c5f8301886135c2565b6136396020830187612c84565b6136466040830186612c84565b6136536060830185612c29565b818103608083015261366581846135e1565b90509695505050505050565b5f8160e01c9050919050565b5f60033d11156136995760045f5f3e6136965f51613671565b90505b90565b6136a582613129565b810181811067ffffffffffffffff821117156136c4576136c36132dc565b5b80604052505050565b5f60443d10613759576136de612a94565b60043d036004823e80513d602482011167ffffffffffffffff82111715613706575050613759565b808201805167ffffffffffffffff8111156137245750505050613759565b80602083010160043d038501811115613741575050505050613759565b6137508260200185018661369c565b82955050505050505b90565b5f60608201905061376f5f830186612c84565b61377c6020830185612c29565b6137896040830184612c5c565b949350505050565b5f6fffffffffffffffffffffffffffffffff82169050919050565b6137b581613791565b81146137bf575f5ffd5b50565b5f815190506137d0816137ac565b92915050565b5f5f604083850312156137ec576137eb612a9d565b5b5f6137f9858286016137c2565b925050602061380a858286016137c2565b9150509250929050565b5f61381e82613791565b915061382983613791565b925082820390506fffffffffffffffffffffffffffffffff811115613851576138506134b4565b5b92915050565b5f61386182612aff565b915061386c83612aff565b9250828203905081811115613884576138836134b4565b5b92915050565b5f61389482612aff565b915061389f83612aff565b92508282019050808211156138b7576138b66134b4565b5b9291505056fea2646970667358221220299cc7d2cee59366590af218fe9a9964bf5738604b28633a4ab7f951c62cfb0564736f6c634300081e0033","linkReferences":{}},"methodIdentifiers":{"MIM()":"daec383d","TARGET()":"cc1f2afa","_externalAddCollateral(uint256)":"fb3ba481","bentoBoxAddress()":"eb77ff0f","borrowPathUsed()":"62695192","borrowedMimAmount()":"e7cda06d","borrowedMimShare()":"6208fdd8","collateralShareAdded()":"4071084d","collateralShareRemoved()":"95809558","collateralToken()":"b2016bd4","execute()":"61461954","executeOnOpportunity()":"3c2448ed","exploit()":"63d9b770","flashCollateralAmount()":"892d0bd2","flashCollateralFee()":"5a6e402b","hypothesisRefuted()":"495f92f1","hypothesisValidated()":"463defd1","infeasibleReason()":"a6652157","onFlashLoan(address,address,uint256,uint256,bytes)":"23e30c8b","postBorrowSolvent()":"d5b5a557","profitAmount()":"5ff972cc","profitToken()":"49343624","removePathUsed()":"e8fbed3f","run()":"c0406226"},"id":0}