{"abi":[{"type":"constructor","inputs":[],"stateMutability":"nonpayable"},{"type":"receive","stateMutability":"payable"},{"type":"function","name":"BALANCER_VAULT","inputs":[],"outputs":[{"name":"","type":"address","internalType":"address"}],"stateMutability":"view"},{"type":"function","name":"CURVE_POOL_USD0_USD0PP","inputs":[],"outputs":[{"name":"","type":"address","internalType":"address"}],"stateMutability":"view"},{"type":"function","name":"REGISTRY","inputs":[],"outputs":[{"name":"","type":"address","internalType":"address"}],"stateMutability":"view"},{"type":"function","name":"TARGET","inputs":[],"outputs":[{"name":"","type":"address","internalType":"address"}],"stateMutability":"view"},{"type":"function","name":"executeOnOpportunity","inputs":[],"outputs":[],"stateMutability":"nonpayable"},{"type":"function","name":"hypothesisValidated","inputs":[],"outputs":[{"name":"","type":"bool","internalType":"bool"}],"stateMutability":"view"},{"type":"function","name":"orphanRtHolder","inputs":[],"outputs":[{"name":"","type":"address","internalType":"address"}],"stateMutability":"view"},{"type":"function","name":"pathUsed","inputs":[],"outputs":[{"name":"","type":"string","internalType":"string"}],"stateMutability":"view"},{"type":"function","name":"profitAmount","inputs":[],"outputs":[{"name":"","type":"uint256","internalType":"uint256"}],"stateMutability":"view"},{"type":"function","name":"profitToken","inputs":[],"outputs":[{"name":"","type":"address","internalType":"address"}],"stateMutability":"view"},{"type":"function","name":"receiveFlashLoan","inputs":[{"name":"tokens","type":"address[]","internalType":"address[]"},{"name":"amounts","type":"uint256[]","internalType":"uint256[]"},{"name":"feeAmounts","type":"uint256[]","internalType":"uint256[]"},{"name":"userData","type":"bytes","internalType":"bytes"}],"outputs":[],"stateMutability":"nonpayable"},{"type":"function","name":"status","inputs":[],"outputs":[{"name":"","type":"string","internalType":"string"}],"stateMutability":"view"},{"type":"error","name":"ExternalCallFailed","inputs":[]},{"type":"error","name":"NoSeedCapital","inputs":[]},{"type":"error","name":"UnauthorizedCallback","inputs":[]},{"type":"error","name":"Unprofitable","inputs":[]}],"bytecode":{"object":"0x60a0806040523460795760588181016001600160401b038111838210176065578291612cf7833903905ff08015605a576001600160a01b0316608052604051612c79908161007e8239608051818181610c4c01526117f80152f35b6040513d5f823e3d90fd5b634e487b7160e01b5f52604160045260245ffd5b5f80fdfe608080604052600436101561001c575b50361561001a575f80fd5b005b5f905f3560e01c90816306433b1b14610c7b575080631a0c925914610c37578063200d2ed214610c1c5780633c2448ed14610c04578063463defd114610bdf5780634934362414610b965780635ff972cc14610b795780637283898d14610b465780638737657214610b18578063bc16384614610aea578063cc1f2afa14610ac35763f04f27070361000f573461099857608036600319011261099857600435906001600160401b03821161099857366023830112156109985781600401356100e481610d37565b926100f26040519485610d16565b8184526024602085019260051b8201019036821161099857602401915b818310610aa3575050506024356001600160401b03811161099857610138903690600401610d4e565b6044356001600160401b03811161099857610157903690600401610d4e565b926064356001600160401b03811161099857366023820112156109985780600401359161018383610dab565b926101916040519485610d16565b8084526020840192366024838301011161099857815f9260246020930186378501015273ba12222222228d8ba445958a75a0704d566bf2c83314801590610a96575b610a875751600114801590610a7b575b8015610a6f575b610a605760035460081c6001600160a01b0316926102129061020b9061127a565b519561127a565b519161023386731d08e7adc263cfc70b1babe6dc5bb339c16eec5286612018565b15610a19575b600554916126de8302928084046126de1490151715610a055761271060405193630f7c084960e21b85525f6004860152600160248601528860448601520460648401526020836084815f731d08e7adc263cfc70b1babe6dc5bb339c16eec525af192831561098d575f936109d1575b5081516020811492836109ba575b5050505f1461044057505f516020612c245f395f51905f523b156104315760405163fd02ffb760e01b81528381600481835f516020612c245f395f51905f525af180156104355790849161041c575b50506002805460ff191681179055610328905b6103223084611b7d565b946112d3565b906006549061033783836112d3565b85111561040d5783809160405182602082019163a9059cbb60e01b835273ba12222222228d8ba445958a75a0704d566bf2c8602482015287604482015260448152610383606482610d16565b51925af161038f611ace565b90159081156103dd575b506103ce576103ad929303036001546112d3565b6001556201000062ff000019600254161760025560ff196003541660035580f35b63350c20f160e01b8352600483fd5b80518015159250826103f2575b50505f610399565b61040592506020809183010191016112bb565b155f806103ea565b630b4cb19960e01b8452600484fd5b8161042691610d16565b61043157825f610305565b8280fd5b6040513d86823e3d90fd5b6004546001600160a01b0316806104ce57505f516020612c245f395f51905f523b156104ca57604051906369f0f67160e11b825260048201528381602481835f516020612c245f395f51905f525af18015610435579084916104b5575b50506002805460ff1916600117905561032890610318565b816104bf91610d16565b61043157825f61049d565b8380fd5b6104d782611a95565b9081156109ab57471561099c576104ee3082611b7d565b9047801561099c575f516020612c045f395f51905f523b15610998575f60049160405192838092630d0e30db60e41b82525f516020612c045f395f51905f525af1801561098d57610978575b5061054430611afd565b6105708173e592427a0aece92de3edee1f18e0157c058615645f516020612c045f395f51905f52612018565b15610909575b6105a281737a250d5630b4cf539739df2c5dacb4c659f2488d5f516020612c045f395f51905f52612018565b1561089a575b6105d48173d9e1ce17f2641f24ae83637ab66a2cca9c378b9f5f516020612c045f395f51905f52612018565b1561082a575b6105e5818584612058565b908115610817575b8115610804575b81156107f1575b81156107de575b81156107cb575b81156107b8575b81156107a5575b8115610792575b8115610780575b5015610771578261063a610640923090611b7d565b926112d3565b116107625761064e30611afd565b806106ed575b5060045461066c9082906001600160a01b0316611a39565b5f516020612c245f395f51905f523b156106e957604051916304f3eec960e21b8352600483015260248201528381604481835f516020612c245f395f51905f525af18015610435579084916106d4575b50506002805460ff1916600317905561032890610318565b816106de91610d16565b61043157825f6106bc565b8480fd5b5f516020612c045f395f51905f523b1561075e5760405190632e1a7d4d60e01b825260048201528581602481835f516020612c045f395f51905f525af180156107535790869161073e575b50610654565b8161074891610d16565b6106e957845f610738565b6040513d88823e3d90fd5b8580fd5b63350c20f160e01b8552600485fd5b63350c20f160e01b8752600487fd5b61078c91508483612aa8565b5f610625565b905061079f81858461294d565b9061061e565b90506107b2818584612811565b90610617565b90506107c58185846126b6565b90610610565b90506107d881858461255b565b90610609565b90506107eb81858461241f565b90610602565b90506107fe81858461239e565b906105fb565b905061081181858461231d565b906105f4565b90506108248185846121ca565b906105ed565b61085573d9e1ce17f2641f24ae83637ab66a2cca9c378b9f5f516020612c045f395f51905f52611fa1565b1561088b576108868173d9e1ce17f2641f24ae83637ab66a2cca9c378b9f5f516020612c045f395f51905f52612018565b6105da575b63350c20f160e01b8852600488fd5b6108c5737a250d5630b4cf539739df2c5dacb4c659f2488d5f516020612c045f395f51905f52611fa1565b1561088b576108f681737a250d5630b4cf539739df2c5dacb4c659f2488d5f516020612c045f395f51905f52612018565b6105a85763350c20f160e01b8852600488fd5b61093473e592427a0aece92de3edee1f18e0157c058615645f516020612c045f395f51905f52611fa1565b1561088b576109658173e592427a0aece92de3edee1f18e0157c058615645f516020612c045f395f51905f52612018565b6105765763350c20f160e01b8852600488fd5b6109859197505f90610d16565b5f955f61053a565b6040513d5f823e3d90fd5b5f80fd5b63b8e5bc2560e01b5f5260045ffd5b630b4cb19960e01b5f5260045ffd5b6109c9935001602001906112bb565b5f80806102b6565b9092506020813d6020116109fd575b816109ed60209383610d16565b810103126109985751915f6102a8565b3d91506109e0565b634e487b7160e01b5f52601160045260245ffd5b610a37731d08e7adc263cfc70b1babe6dc5bb339c16eec5285611fa1565b15610a6057610a5b86731d08e7adc263cfc70b1babe6dc5bb339c16eec5286612018565b610239575b63350c20f160e01b5f5260045ffd5b506001855114156101ea565b506001835114156101e3565b637ae3640d60e11b5f5260045ffd5b5060ff60035416156101d3565b82356001600160a01b03811681036109985781526020928301920161010f565b34610998575f3660031901126109985760206040515f516020612c245f395f51905f528152f35b34610998575f36600319011261099857602060405173ba12222222228d8ba445958a75a0704d566bf2c88152f35b34610998575f366003190112610998576020604051731d08e7adc263cfc70b1babe6dc5bb339c16eec528152f35b34610998575f36600319011261099857610b75610b61610ff4565b604051918291602083526020830190610ca7565b0390f35b34610998575f366003190112610998576020600154604051908152f35b34610998575f366003190112610998575f546001600160a01b03168015610bcd575b6040516001600160a01b039091168152602090f35b506020610bd86112e0565b9050610bb8565b34610998575f36600319011261099857602060ff60025460101c166040519015158152f35b34610998575f3660031901126109985761001a610eb9565b34610998575f36600319011261099857610b75610b61610dc6565b34610998575f366003190112610998576040517f00000000000000000000000000000000000000000000000000000000000000006001600160a01b03168152602090f35b34610998575f3660031901126109985780730594cb5ca47efe1ff25c7b8b43e221683b4db34c60209252f35b805180835260209291819084018484015e5f828201840152601f01601f1916010190565b61010081019081106001600160401b03821117610ce757604052565b634e487b7160e01b5f52604160045260245ffd5b60a081019081106001600160401b03821117610ce757604052565b90601f801991011681019081106001600160401b03821117610ce757604052565b6001600160401b038111610ce75760051b60200190565b9080601f83011215610998578135610d6581610d37565b92610d736040519485610d16565b81845260208085019260051b82010192831161099857602001905b828210610d9b5750505090565b8135815260209182019101610d8e565b6001600160401b038111610ce757601f01601f191660200190565b60ff60025460081c166004811015610ea55760018114610e775760028114610e4557600314610e1257604051610dfd604082610d16565b60058152641d5b9cd95d60da1b602082015290565b604051610e20604082610d16565b6015815274726566757465642d6f722d696e6665617369626c6560581b602082015290565b50604051610e54604082610d16565b60138152721d985b1a59185d19590b5b9bcb5c1c9bd99a5d606a1b602082015290565b50604051610e86604082610d16565b600f81526e1c1c9bd99a5d0b5858da1a595d9959608a1b602082015290565b634e487b7160e01b5f52602160045260245ffd5b610ec16112e0565b610ec9611389565b5f80546001600160a01b0319166001600160a01b03841690811782556001919091556002805462ffffff19169055158015610fe3575b610fcd57610f0b6113ea565b610f13611452565b918215159283610fc2575b508280610fb3575b610f795781151580610fa4575b610f7957610f41818561169e565b610f7957610f4e93611791565b610f6857610f6661030061ff00196002541617600255565b565b61020061ff00196002541617600255565b50505050610f9161010061ff00196002541617600255565b6201000062ff0000196002541617600255565b50610fae8461158e565b610f33565b50610fbd84611497565b610f26565b42101592505f610f1e565b5050610f6661030061ff00196002541617600255565b506001600160a01b03811615610eff565b60025460ff1660606007821015610ea5576001821461121f5750600281146111d4576003811461117a576004811461110e57600581146110b85760061461105757604051611043604082610d16565b60048152636e6f6e6560e01b602082015290565b604051611065606082610d16565b604081527f6d696e742073706c697420726563697069656e7473202d3e206255534430206860208201527f6f6c646572207573657320756e6c6f636b55534430707057697468557375616c604082015290565b506040516110c7606082610d16565b603181527f6d696e742073706c697420726563697069656e7473202d3e206255534430206860208201527006f6c646572207573657320756e7772617607c1b604082015290565b5060405161111d608082610d16565b604181527f6d696e742073706c697420726563697069656e7473202d3e206255534430206860208201527f6f6c646572207573657320756e6c6f636b557364307070466c6f6f72507269636040820152606560f81b606082015290565b50604051611189606082610d16565b603581527f7365636f6e646172792d6d61726b65742d62555344302d6275796572202d3e206020820152741d5b9b1bd8dad554d10c1c1c15da5d1a155cdd585b605a1b604082015290565b506040516111e3606082610d16565b602681527f7365636f6e646172792d6d61726b65742d62555344302d6275796572202d3e206020820152650756e777261760d41b604082015290565b905061122e6040519182610d16565b603681527f7365636f6e646172792d6d61726b65742d62555344302d6275796572202d3e20602082015275756e6c6f636b557364307070466c6f6f72507269636560501b604082015290565b8051156112875760200190565b634e487b7160e01b5f52603260045260245ffd5b8051600110156112875760400190565b8051600210156112875760600190565b90816020910312610998575180151581036109985790565b91908201809211610a0557565b604051631c2d8fb360e31b81527f99fc6866b8a0382ea875d05d6adb7080c9f332c7f87adc01f2bd8c1dc2991c776004820152602081602481730594cb5ca47efe1ff25c7b8b43e221683b4db34c5afa5f9181611345575b5061134257505f90565b90565b9091506020813d602011611381575b8161136160209383610d16565b8101031261099857516001600160a01b038116810361099857905f611338565b3d9150611354565b604051631c2d8fb360e31b81527fdbbc50039ed3ca50ec88fa75d6fe32dae25b22535afc1cd51cf4090d5ebc4d286004820152602081602481730594cb5ca47efe1ff25c7b8b43e221683b4db34c5afa5f9181611345575061134257505f90565b604051631519eb5960e11b81526020816004815f516020612c245f395f51905f525afa5f918161141e575061134257505f90565b9091506020813d60201161144a575b8161143a60209383610d16565b810103126109985751905f611338565b3d915061142d565b6040516321cfad6160e11b81526020816004815f516020612c245f395f51905f525afa5f918161141e575061134257505f90565b9060088110156112875760051b0190565b604051906114a482610ccb565b6a0422ca8b0a00a425000000825269d3c21bcecceda100000060208301526934f086f3b33b684000006040830152690a968163f0a57b400000606083015269021e19e0c9bab24000006080830152683635c9adc5dea0000060a083015268056bc75e2d6310000060c0830152678ac7230489e8000060e08301525f5b6008811061152f575050505f90565b6115398184611486565b5161154381611bc1565b9190158015611586575b61157c578082111561157c576115669160019185611c87565b611574576001905b01611520565b505050600190565b505060019061156e565b50811561154d565b6040519061159b82610ccb565b6a0422ca8b0a00a425000000825269d3c21bcecceda100000060208301526934f086f3b33b684000006040830152690a968163f0a57b400000606083015269021e19e0c9bab24000006080830152683635c9adc5dea0000060a083015268056bc75e2d6310000060c0830152678ac7230489e8000060e08301525f5b60088110611626575050505f90565b6116308184611486565b5161163a81611bc1565b9190158015611696575b61168c576116506113ea565b808302908382041483151715610a0557670de0b6b3a7640000829104111561168c5761167e915f9185611c87565b611574576001905b01611617565b5050600190611686565b508115611644565b471561178b57604051916116b183610ccb565b6802b5e3af16b1880000835268015af1d78b58c400006020840152678ac7230489e800006040840152674563918244f400006060840152671bc16d674ec800006080840152670de0b6b3a764000060a08401526706f05b59d3b2000060c08401526703782dace9d9000060e08401525f5b6008811061173257505050505f90565b61173c8185611486565b5161174681611bc1565b9190158015611781575b6117775790611760918486611e3b565b61176e576001905b01611722565b50505050600190565b5050600190611768565b5080821115611750565b50505f90565b915f9361179e3085611b7d565b8015611a2f57670de0b6b3a7640000811115611a2457506117c8670de0b6b3a76400008095611a39565b5f516020612c245f395f51905f523b156109985760405163da39b3e760e01b8152600481018590523060248201527f00000000000000000000000000000000000000000000000000000000000000006001600160a01b031660448201525f81606481835f516020612c245f395f51905f525af1801561098d57611a0f575b506119995761191b5761185882611a95565b906118633082611b7d565b828015159182611910575b505061187a5750505090565b8161188491611a39565b5f516020612c245f395f51905f523b1561043157604051916304f3eec960e21b8352600483015260248201528181604481835f516020612c245f395f51905f525af18015611905579082916118ed575b50506002805462ff00ff19166201000617905550600190565b816118f791610d16565b61190257805f6118d4565b80fd5b6040513d84823e3d90fd5b10159050825f61186e565b505f516020612c245f395f51905f523b1561199557604051906369f0f67160e11b825260048201528181602481835f516020612c245f395f51905f525af1801561190557908291611980575b50506002805462ff00ff19166201000417905550600190565b8161198a91610d16565b61190257805f611967565b5080fd5b5050505f516020612c245f395f51905f523b156119025760405163fd02ffb760e01b81528181600481835f516020612c245f395f51905f525af18015611905579082916119fa575b50506002805462ff00ff19166201000517905550600190565b81611a0491610d16565b61190257805f6119e1565b611a1c9195505f90610d16565b5f935f611846565b6117c8908095611a39565b5050505050505f90565b90611a52815f516020612c245f395f51905f5284612018565b15611a5b575050565b611a725f516020612c245f395f51905f5283611fa1565b15610a60575f516020612c245f395f51905f52611a8e92612018565b15610a6057565b60405190624955d760e91b825260048201526020816024815f516020612c245f395f51905f525afa5f918161141e575061134257505f90565b3d15611af8573d90611adf82610dab565b91611aed6040519384610d16565b82523d5f602084013e565b606090565b5f809160405160208101916370a0823160e01b835260018060a01b0316602482015260248152611b2e604482610d16565b51905f516020612c045f395f51905f525afa611b48611ace565b90158015611b72575b611b6d5760208151918180820193849201010312610998575190565b505f90565b506020815110611b51565b6040516370a0823160e01b602082019081526001600160a01b0390931660248083019190915281525f92839291611bb5604482610d16565b51915afa611b48611ace565b60405190635e0d443f60e01b82525f6004830152600160248301526044820152602081606481731d08e7adc263cfc70b1babe6dc5bb339c16eec525afa5f9181611c17575b50611c1257505f905f90565b600191565b9091506020813d602011611c43575b81611c3360209383610d16565b810103126109985751905f611c06565b3d9150611c26565b90602080835192838152019201905f5b818110611c685750505090565b82516001600160a01b0316845260209384019390920191600101611c5b565b600380546001600160a81b031916600883901b610100600160a81b0316176001179055600480546001600160a01b03191690556005929092555f9291611ccd3082611b7d565b600655604092835192611ce08585610d16565b60018452601f19850192833660208701376001600160a01b0316611d038561127a565b52845190611d118683610d16565b600182526020820193368537611d268261127a565b52600154948051921515602084015260208352611d438184610d16565b73ba12222222228d8ba445958a75a0704d566bf2c83b1561099857906020611d8d9593949251958694632e1c224f60e11b8652306004870152608060248701526084860190611c4b565b8481036003190160448601529151808352910191905f5b818110611e2257505050611dc682915f94600319848303016064850152610ca7565b03818373ba12222222228d8ba445958a75a0704d566bf2c85af19081611e0d575b50611dfa575060ff196003541660035590565b905060ff19600354166003556001541190565b611e1a9193505f90610d16565b5f915f611de7565b8251845286945060209384019390920191600101611da4565b600380546001600160a81b031916600883901b610100600160a81b0316176001179055600480546001600160a01b0319166001600160a01b03909316929092179091556005929092555f91611e903082611b7d565b600655604090815191611ea38184610d16565b60018352601f19810191823660208601376001600160a01b0316611ec68461127a565b52805193611ed48286610d16565b600185526020850192368437611ee98561127a565b52600154938151915f602084015260208352611f058184610d16565b73ba12222222228d8ba445958a75a0704d566bf2c83b1561099857906020611f4f9593949251958694632e1c224f60e11b8652306004870152608060248701526084860190611c4b565b8481036003190160448601529151808352910191905f5b818110611f8857505050611dc682915f94600319848303016064850152610ca7565b8251845286945060209384019390920191600101611f66565b60405163095ea7b360e01b602082019081526001600160a01b0390931660248201525f60448083018290528252928392918390611fdf606482610d16565b51925af1611feb611ace565b81611ff4575090565b805180159250821561200557505090565b61134292506020809183010191016112bb565b60405163095ea7b360e01b602082019081526001600160a01b0390931660248201526044808201949094529283525f928392908390611fdf606482610d16565b60405192608084018481106001600160401b03821117610ce757604052606484526101f46020850152610bb8604085015261271060608501525f5b60048110156121c15762ffffff8160051b86015116604051906120b582610ccb565b5f516020612c045f395f51905f5282526001600160a01b03858116602080850191825260408086019485523060608701908152426080880190815260a088018c815260c089018b81525f60e08b018181529551631b67c43360e31b81529a51891660048c01529651881660248b0152975162ffffff1660448a01529151861660648901525160848801525160a4870152935160c4860152925190911660e4840152829061010490829073e592427a0aece92de3edee1f18e0157c058615645af19081612193575b5061218957600101612093565b5050505050600190565b6020813d82116121b9575b816121ab60209383610d16565b81010312610998575161217c565b3d915061219e565b50505050505f90565b60405160609190911b6001600160601b031916602082810191909152607d60ea1b603483018190527314170d3238c43166d83a33a945d3d619c6c0dd6960631b6037840152604b830152736015551cd911ff4685072e2793f56c841e3ab66160611b604e83015260428252919261229d9190612247606283610d16565b6040519161225483610cfb565b825283820190308252604083019542875260608401908152608084019182526040519687958695631e51809360e31b87528860048801525160a0602488015260c4870190610ca7565b93516001600160a01b031660448601525160648501525160848401525160a483015203815f73e592427a0aece92de3edee1f18e0157c058615645af190816122ee575b506122e9575f90565b600190565b6020813d602011612315575b8161230760209383610d16565b8101031261099857516122e0565b3d91506122fa565b60405160609190911b6001600160601b031916602082810191909152607d60ea1b60348301527314170d3238c43166d83a33a945d3d619c6c0dd6960631b603783015261017760eb1b604b830152736015551cd911ff4685072e2793f56c841e3ab66160611b604e83015260428252919261229d9190612247606283610d16565b60405160609190911b6001600160601b031916602082810191909152607d60ea1b603483015273dac17f958d2ee523a2206206994597c13d831ec760601b603783015261017760eb1b604b830152736015551cd911ff4685072e2793f56c841e3ab66160611b604e83015260428252919261229d9190612247606283610d16565b915f9160405193612431606086610d16565b6002855260403660208701375f516020612c045f395f51905f526124548661127a565b5261245e8561129b565b9060018060a01b031690526124996040519485938493634401edf760e11b85526004850152602484015260a0604484015260a4830190611c4b565b306064830152426084830152038183737a250d5630b4cf539739df2c5dacb4c659f2488d5af190816124ce57506122e9575f90565b3d805f833e6124dd8183610d16565b810190602081830312610998578051906001600160401b03821161099857019080601f8301121561099857815161251381610d37565b926125216040519485610d16565b81845260208085019260051b82010192831161099857602001905b82821061254b575050506122e0565b815181526020918201910161253c565b915f916040519361256d608086610d16565b6003855260603660208701375f516020612c045f395f51905f526125908661127a565b5273a0b86991c6218b36c1d19d4a2e9eb0ce3606eb486125af8661129b565b526125b9856112ab565b9060018060a01b031690526125f46040519485938493634401edf760e11b85526004850152602484015260a0604484015260a4830190611c4b565b306064830152426084830152038183737a250d5630b4cf539739df2c5dacb4c659f2488d5af1908161262957506122e9575f90565b3d805f833e6126388183610d16565b810190602081830312610998578051906001600160401b03821161099857019080601f8301121561099857815161266e81610d37565b9261267c6040519485610d16565b81845260208085019260051b82010192831161099857602001905b8282106126a6575050506122e0565b8151815260209182019101612697565b915f91604051936126c8608086610d16565b6003855260603660208701375f516020612c045f395f51905f526126eb8661127a565b5273dac17f958d2ee523a2206206994597c13d831ec761270a8661129b565b52612714856112ab565b9060018060a01b0316905261274f6040519485938493634401edf760e11b85526004850152602484015260a0604484015260a4830190611c4b565b306064830152426084830152038183737a250d5630b4cf539739df2c5dacb4c659f2488d5af1908161278457506122e9575f90565b3d805f833e6127938183610d16565b810190602081830312610998578051906001600160401b03821161099857019080601f830112156109985781516127c981610d37565b926127d76040519485610d16565b81845260208085019260051b82010192831161099857602001905b828210612801575050506122e0565b81518152602091820191016127f2565b915f9160405193612823606086610d16565b6002855260403660208701375f516020612c045f395f51905f526128468661127a565b526128508561129b565b9060018060a01b0316905261288b6040519485938493634401edf760e11b85526004850152602484015260a0604484015260a4830190611c4b565b30606483015242608483015203818373d9e1ce17f2641f24ae83637ab66a2cca9c378b9f5af190816128c057506122e9575f90565b3d805f833e6128cf8183610d16565b810190602081830312610998578051906001600160401b03821161099857019080601f8301121561099857815161290581610d37565b926129136040519485610d16565b81845260208085019260051b82010192831161099857602001905b82821061293d575050506122e0565b815181526020918201910161292e565b915f916040519361295f608086610d16565b6003855260603660208701375f516020612c045f395f51905f526129828661127a565b5273a0b86991c6218b36c1d19d4a2e9eb0ce3606eb486129a18661129b565b526129ab856112ab565b9060018060a01b031690526129e66040519485938493634401edf760e11b85526004850152602484015260a0604484015260a4830190611c4b565b30606483015242608483015203818373d9e1ce17f2641f24ae83637ab66a2cca9c378b9f5af19081612a1b57506122e9575f90565b3d805f833e612a2a8183610d16565b810190602081830312610998578051906001600160401b03821161099857019080601f83011215610998578151612a6081610d37565b92612a6e6040519485610d16565b81845260208085019260051b82010192831161099857602001905b828210612a98575050506122e0565b8151815260209182019101612a89565b915f9160405193612aba608086610d16565b6003855260603660208701375f516020612c045f395f51905f52612add8661127a565b5273dac17f958d2ee523a2206206994597c13d831ec7612afc8661129b565b52612b06856112ab565b9060018060a01b03169052612b416040519485938493634401edf760e11b85526004850152602484015260a0604484015260a4830190611c4b565b30606483015242608483015203818373d9e1ce17f2641f24ae83637ab66a2cca9c378b9f5af19081612b7657506122e9575f90565b3d805f833e612b858183610d16565b810190602081830312610998578051906001600160401b03821161099857019080601f83011215610998578151612bbb81610d37565b92612bc96040519485610d16565b81845260208085019260051b82010192831161099857602001905b828210612bf3575050506122e0565b8151815260209182019101612be456fe000000000000000000000000c02aaa39b223fe8d0a0e5c4f27ead9083c756cc200000000000000000000000035d8949372d46b7a3d5a56006ae77b215fc69bc0a2646970667358221220a93211d73fb5bf6cd6d1dabd31f603dd36739fb1f7a5a5bf23c31ca161a4781564736f6c634300081e0033608080604052346013576040908160188239f35b5f80fdfe36156008575f80fd5b00fea26469706673582212209d6f69af5e5b9e20bcdefc8f07b0f17e32f6520a2984fc42d2ad1c9d7c161ee664736f6c634300081e0033","linkReferences":{}},"methodIdentifiers":{"BALANCER_VAULT()":"bc163846","CURVE_POOL_USD0_USD0PP()":"87376572","REGISTRY()":"06433b1b","TARGET()":"cc1f2afa","executeOnOpportunity()":"3c2448ed","hypothesisValidated()":"463defd1","orphanRtHolder()":"1a0c9259","pathUsed()":"7283898d","profitAmount()":"5ff972cc","profitToken()":"49343624","receiveFlashLoan(address[],uint256[],uint256[],bytes)":"f04f2707","status()":"200d2ed2"},"id":0}