{"abi":[{"type":"constructor","inputs":[],"stateMutability":"nonpayable"},{"type":"receive","stateMutability":"payable"},{"type":"function","name":"ROUTER","inputs":[],"outputs":[{"name":"","type":"address","internalType":"address"}],"stateMutability":"view"},{"type":"function","name":"TARGET","inputs":[],"outputs":[{"name":"","type":"address","internalType":"address"}],"stateMutability":"view"},{"type":"function","name":"UNISWAP_V2_FACTORY","inputs":[],"outputs":[{"name":"","type":"address","internalType":"address"}],"stateMutability":"view"},{"type":"function","name":"WETH","inputs":[],"outputs":[{"name":"","type":"address","internalType":"address"}],"stateMutability":"view"},{"type":"function","name":"executeOnOpportunity","inputs":[],"outputs":[],"stateMutability":"nonpayable"},{"type":"function","name":"profitAmount","inputs":[],"outputs":[{"name":"","type":"uint256","internalType":"uint256"}],"stateMutability":"view"},{"type":"function","name":"profitToken","inputs":[],"outputs":[{"name":"","type":"address","internalType":"address"}],"stateMutability":"pure"},{"type":"function","name":"status","inputs":[],"outputs":[{"name":"","type":"uint8","internalType":"enum FlawVerifier.ExecutionStatus"}],"stateMutability":"view"}],"bytecode":{"object":"0x6080604052348015600e575f5ffd5b506118998061001c5f395ff3fe60806040526004361061007e575f3560e01c80635ff972cc1161004d5780635ff972cc1461011d57806399d8fae314610147578063ad5c464814610171578063cc1f2afa1461019b57610085565b8063200d2ed21461008957806332fe7b26146100b35780633c2448ed146100dd57806349343624146100f357610085565b3661008557005b5f5ffd5b348015610094575f5ffd5b5061009d6101c5565b6040516100aa91906111db565b60405180910390f35b3480156100be575f5ffd5b506100c76101d7565b6040516100d49190611233565b60405180910390f35b3480156100e8575f5ffd5b506100f16101ef565b005b3480156100fe575f5ffd5b50610107610421565b6040516101149190611233565b60405180910390f35b348015610128575f5ffd5b5061013161043c565b60405161013e9190611264565b60405180910390f35b348015610152575f5ffd5b5061015b610444565b6040516101689190611233565b60405180910390f35b34801561017c575f5ffd5b5061018561045c565b6040516101929190611233565b60405180910390f35b3480156101a6575f5ffd5b506101af610474565b6040516101bc9190611233565b60405180910390f35b60015f9054906101000a900460ff1681565b737a250d5630b4cf539739df2c5dacb4c659f2488d81565b5f73c02aaa39b223fe8d0a0e5c4f27ead9083c756cc273ffffffffffffffffffffffffffffffffffffffff166370a08231306040518263ffffffff1660e01b815260040161023d9190611233565b602060405180830381865afa158015610258573d5f5f3e3d5ffd5b505050506040513d601f19601f8201168201806040525081019061027c91906112ab565b90505f61028761048c565b90505f4790505f81146103065773c02aaa39b223fe8d0a0e5c4f27ead9083c756cc273ffffffffffffffffffffffffffffffffffffffff1663d0e30db0826040518263ffffffff1660e01b81526004015f604051808303818588803b1580156102ee575f5ffd5b505af1158015610300573d5f5f3e3d5ffd5b50505050505b5f73c02aaa39b223fe8d0a0e5c4f27ead9083c756cc273ffffffffffffffffffffffffffffffffffffffff166370a08231306040518263ffffffff1660e01b81526004016103549190611233565b602060405180830381865afa15801561036f573d5f5f3e3d5ffd5b505050506040513d601f19601f8201168201806040525081019061039391906112ab565b9050838111156103dd5783816103a99190611303565b5f81905550600360015f6101000a81548160ff021916908360038111156103d3576103d2611168565b5b021790555061041b565b5f5f81905550826103ef5760016103f2565b60025b60015f6101000a81548160ff0219169083600381111561041557610414611168565b5b02179055505b50505050565b5f73c02aaa39b223fe8d0a0e5c4f27ead9083c756cc2905090565b5f5f54905090565b735c69bee701ef814a2b6a3edd4b1652cb9cc5aa6f81565b73c02aaa39b223fe8d0a0e5c4f27ead9083c756cc281565b73e5c6f5fef89b64f36bfccb063962820136bac42f81565b5f5f73e5c6f5fef89b64f36bfccb063962820136bac42f90505f8173ffffffffffffffffffffffffffffffffffffffff16638da5cb5b6040518163ffffffff1660e01b8152600401602060405180830381865afa1580156104ef573d5f5f3e3d5ffd5b505050506040513d601f19601f820116820180604052508101906105139190611360565b90505f61051e610bb8565b90505f73ffffffffffffffffffffffffffffffffffffffff168173ffffffffffffffffffffffffffffffffffffffff160361098c573073ffffffffffffffffffffffffffffffffffffffff168273ffffffffffffffffffffffffffffffffffffffff1614610591575f9350505050610bb5565b5f8373ffffffffffffffffffffffffffffffffffffffff166370a0823173e5c6f5fef89b64f36bfccb063962820136bac42f6040518263ffffffff1660e01b81526004016105df9190611233565b602060405180830381865afa1580156105fa573d5f5f3e3d5ffd5b505050506040513d601f19601f8201168201806040525081019061061e91906112ab565b0361082a575f8373ffffffffffffffffffffffffffffffffffffffff166370a08231306040518263ffffffff1660e01b815260040161065d9190611233565b602060405180830381865afa158015610678573d5f5f3e3d5ffd5b505050506040513d601f19601f8201168201806040525081019061069c91906112ab565b90505f8114806106ab57505f47145b156106bc575f945050505050610bb5565b8373ffffffffffffffffffffffffffffffffffffffff1663a9059cbb73e5c6f5fef89b64f36bfccb063962820136bac42f836040518363ffffffff1660e01b815260040161070b92919061138b565b6020604051808303815f875af1158015610727573d5f5f3e3d5ffd5b505050506040513d601f19601f8201168201806040525081019061074b91906113e7565b61078a576040517f08c379a00000000000000000000000000000000000000000000000000000000081526004016107819061146c565b60405180910390fd5b5f8473ffffffffffffffffffffffffffffffffffffffff166370a0823173e5c6f5fef89b64f36bfccb063962820136bac42f6040518263ffffffff1660e01b81526004016107d89190611233565b602060405180830381865afa1580156107f3573d5f5f3e3d5ffd5b505050506040513d601f19601f8201168201806040525081019061081791906112ab565b03610828575f945050505050610bb5565b505b5f73e5c6f5fef89b64f36bfccb063962820136bac42f73ffffffffffffffffffffffffffffffffffffffff1647604051610863906114b7565b5f6040518083038185875af1925050503d805f811461089d576040519150601f19603f3d011682016040523d82523d5f602084013e6108a2565b606091505b50509050806108e6576040517f08c379a00000000000000000000000000000000000000000000000000000000081526004016108dd90611515565b60405180910390fd5b8373ffffffffffffffffffffffffffffffffffffffff1663c9567bf96040518163ffffffff1660e01b81526004015f604051808303815f87803b15801561092b575f5ffd5b505af115801561093d573d5f5f3e3d5ffd5b50505050610949610bb8565b91505f73ffffffffffffffffffffffffffffffffffffffff168273ffffffffffffffffffffffffffffffffffffffff160361098a575f945050505050610bb5565b505b61099581610e23565b6109a4575f9350505050610bb5565b5f8173ffffffffffffffffffffffffffffffffffffffff166370a08231306040518263ffffffff1660e01b81526004016109de9190611233565b602060405180830381865afa1580156109f9573d5f5f3e3d5ffd5b505050506040513d601f19601f82011682018060405250810190610a1d91906112ab565b90505f8103610a32575f945050505050610bb5565b8173ffffffffffffffffffffffffffffffffffffffff1663095ea7b3737a250d5630b4cf539739df2c5dacb4c659f2488d836040518363ffffffff1660e01b8152600401610a8192919061138b565b6020604051808303815f875af1158015610a9d573d5f5f3e3d5ffd5b505050506040513d601f19601f82011682018060405250810190610ac191906113e7565b610b00576040517f08c379a0000000000000000000000000000000000000000000000000000000008152600401610af79061157d565b60405180910390fd5b737a250d5630b4cf539739df2c5dacb4c659f2488d73ffffffffffffffffffffffffffffffffffffffff1663af2979eb73e5c6f5fef89b64f36bfccb063962820136bac42f835f5f30426040518763ffffffff1660e01b8152600401610b6b969594939291906115dd565b6020604051808303815f875af1158015610b87573d5f5f3e3d5ffd5b505050506040513d601f19601f82011682018060405250810190610bab91906112ab565b5060019450505050505b90565b5f5f735c69bee701ef814a2b6a3edd4b1652cb9cc5aa6f73ffffffffffffffffffffffffffffffffffffffff1663e6a4390573e5c6f5fef89b64f36bfccb063962820136bac42f73c02aaa39b223fe8d0a0e5c4f27ead9083c756cc26040518363ffffffff1660e01b8152600401610c3192919061163c565b602060405180830381865afa158015610c4c573d5f5f3e3d5ffd5b505050506040513d601f19601f82011682018060405250810190610c709190611360565b90505f73ffffffffffffffffffffffffffffffffffffffff168173ffffffffffffffffffffffffffffffffffffffff1614610cae5780915050610e20565b5f5f73c02aaa39b223fe8d0a0e5c4f27ead9083c756cc273ffffffffffffffffffffffffffffffffffffffff1673e5c6f5fef89b64f36bfccb063962820136bac42f73ffffffffffffffffffffffffffffffffffffffff1610610d3a5773c02aaa39b223fe8d0a0e5c4f27ead9083c756cc273e5c6f5fef89b64f36bfccb063962820136bac42f610d65565b73e5c6f5fef89b64f36bfccb063962820136bac42f73c02aaa39b223fe8d0a0e5c4f27ead9083c756cc25b91509150735c69bee701ef814a2b6a3edd4b1652cb9cc5aa6f8282604051602001610d919291906116a8565b604051602081830303815290604052805190602001207f96e8ac4277198ff8b6f785478aa9a39f403cb768dd02cbee326c3e7da348845f604051602001610dda93929190611750565b604051602081830303815290604052805190602001205f1c92505f8373ffffffffffffffffffffffffffffffffffffffff163b14610e185782610e1a565b5f5b93505050505b90565b5f5f73ffffffffffffffffffffffffffffffffffffffff168273ffffffffffffffffffffffffffffffffffffffff161480610e7457505f8273ffffffffffffffffffffffffffffffffffffffff163b145b15610e81575f90506110b5565b8173ffffffffffffffffffffffffffffffffffffffff16630dfe16816040518163ffffffff1660e01b8152600401602060405180830381865afa925050508015610ee957506040513d601f19601f82011682018060405250810190610ee69190611360565b60015b610ef5575f90506110b5565b5f8373ffffffffffffffffffffffffffffffffffffffff1663d21220a76040518163ffffffff1660e01b8152600401602060405180830381865afa158015610f3f573d5f5f3e3d5ffd5b505050506040513d601f19601f82011682018060405250810190610f639190611360565b905073e5c6f5fef89b64f36bfccb063962820136bac42f73ffffffffffffffffffffffffffffffffffffffff168273ffffffffffffffffffffffffffffffffffffffff16148015610ff3575073c02aaa39b223fe8d0a0e5c4f27ead9083c756cc273ffffffffffffffffffffffffffffffffffffffff168173ffffffffffffffffffffffffffffffffffffffff16145b1561100a57611001846110ba565b925050506110b5565b73c02aaa39b223fe8d0a0e5c4f27ead9083c756cc273ffffffffffffffffffffffffffffffffffffffff168273ffffffffffffffffffffffffffffffffffffffff16148015611098575073e5c6f5fef89b64f36bfccb063962820136bac42f73ffffffffffffffffffffffffffffffffffffffff168173ffffffffffffffffffffffffffffffffffffffff16145b156110af576110a6846110ba565b925050506110b5565b5f925050505b919050565b5f5f5f8373ffffffffffffffffffffffffffffffffffffffff16630902f1ac6040518163ffffffff1660e01b8152600401606060405180830381865afa158015611106573d5f5f3e3d5ffd5b505050506040513d601f19601f8201168201806040525081019061112a9190611813565b50915091505f826dffffffffffffffffffffffffffff161415801561115f57505f816dffffffffffffffffffffffffffff1614155b92505050919050565b7f4e487b71000000000000000000000000000000000000000000000000000000005f52602160045260245ffd5b600481106111a6576111a5611168565b5b50565b5f8190506111b682611195565b919050565b5f6111c5826111a9565b9050919050565b6111d5816111bb565b82525050565b5f6020820190506111ee5f8301846111cc565b92915050565b5f73ffffffffffffffffffffffffffffffffffffffff82169050919050565b5f61121d826111f4565b9050919050565b61122d81611213565b82525050565b5f6020820190506112465f830184611224565b92915050565b5f819050919050565b61125e8161124c565b82525050565b5f6020820190506112775f830184611255565b92915050565b5f5ffd5b61128a8161124c565b8114611294575f5ffd5b50565b5f815190506112a581611281565b92915050565b5f602082840312156112c0576112bf61127d565b5b5f6112cd84828501611297565b91505092915050565b7f4e487b71000000000000000000000000000000000000000000000000000000005f52601160045260245ffd5b5f61130d8261124c565b91506113188361124c565b92508282039050818111156113305761132f6112d6565b5b92915050565b61133f81611213565b8114611349575f5ffd5b50565b5f8151905061135a81611336565b92915050565b5f602082840312156113755761137461127d565b5b5f6113828482850161134c565b91505092915050565b5f60408201905061139e5f830185611224565b6113ab6020830184611255565b9392505050565b5f8115159050919050565b6113c6816113b2565b81146113d0575f5ffd5b50565b5f815190506113e1816113bd565b92915050565b5f602082840312156113fc576113fb61127d565b5b5f611409848285016113d3565b91505092915050565b5f82825260208201905092915050565b7f6c61756e63682073656564206661696c656400000000000000000000000000005f82015250565b5f611456601283611412565b915061146182611422565b602082019050919050565b5f6020820190508181035f8301526114838161144a565b9050919050565b5f81905092915050565b50565b5f6114a25f8361148a565b91506114ad82611494565b5f82019050919050565b5f6114c182611497565b9150819050919050565b7f6574682073656564206661696c656400000000000000000000000000000000005f82015250565b5f6114ff600f83611412565b915061150a826114cb565b602082019050919050565b5f6020820190508181035f83015261152c816114f3565b9050919050565b7f6c7020617070726f7665206661696c65640000000000000000000000000000005f82015250565b5f611567601183611412565b915061157282611533565b602082019050919050565b5f6020820190508181035f8301526115948161155b565b9050919050565b5f819050919050565b5f819050919050565b5f6115c76115c26115bd8461159b565b6115a4565b61124c565b9050919050565b6115d7816115ad565b82525050565b5f60c0820190506115f05f830189611224565b6115fd6020830188611255565b61160a60408301876115ce565b61161760608301866115ce565b6116246080830185611224565b61163160a0830184611255565b979650505050505050565b5f60408201905061164f5f830185611224565b61165c6020830184611224565b9392505050565b5f8160601b9050919050565b5f61167982611663565b9050919050565b5f61168a8261166f565b9050919050565b6116a261169d82611213565b611680565b82525050565b5f6116b38285611691565b6014820191506116c38284611691565b6014820191508190509392505050565b5f81905092915050565b7fff000000000000000000000000000000000000000000000000000000000000005f82015250565b5f6117116001836116d3565b915061171c826116dd565b600182019050919050565b5f819050919050565b5f819050919050565b61174a61174582611727565b611730565b82525050565b5f61175a82611705565b91506117668286611691565b6014820191506117768285611739565b6020820191506117868284611739565b602082019150819050949350505050565b5f6dffffffffffffffffffffffffffff82169050919050565b6117b981611797565b81146117c3575f5ffd5b50565b5f815190506117d4816117b0565b92915050565b5f63ffffffff82169050919050565b6117f2816117da565b81146117fc575f5ffd5b50565b5f8151905061180d816117e9565b92915050565b5f5f5f6060848603121561182a5761182961127d565b5b5f611837868287016117c6565b9350506020611848868287016117c6565b9250506040611859868287016117ff565b915050925092509256fea264697066735822122058f023b97d791377f69249ed0e88192fb8fa90e4322c867d6cb2d6f145ac61a464736f6c634300081e0033","linkReferences":{}},"methodIdentifiers":{"ROUTER()":"32fe7b26","TARGET()":"cc1f2afa","UNISWAP_V2_FACTORY()":"99d8fae3","WETH()":"ad5c4648","executeOnOpportunity()":"3c2448ed","profitAmount()":"5ff972cc","profitToken()":"49343624","status()":"200d2ed2"},"id":0}