{"abi":[{"type":"constructor","inputs":[],"stateMutability":"nonpayable"},{"type":"receive","stateMutability":"payable"},{"type":"function","name":"TARGET_PAIR","inputs":[],"outputs":[{"name":"","type":"address","internalType":"address"}],"stateMutability":"view"},{"type":"function","name":"attackerCallsSkimAttacker","inputs":[],"outputs":[{"name":"","type":"bool","internalType":"bool"}],"stateMutability":"view"},{"type":"function","name":"attackerReceivesEntireSurplusAmount","inputs":[],"outputs":[{"name":"","type":"bool","internalType":"bool"}],"stateMutability":"view"},{"type":"function","name":"balance0After","inputs":[],"outputs":[{"name":"","type":"uint256","internalType":"uint256"}],"stateMutability":"view"},{"type":"function","name":"balance0Before","inputs":[],"outputs":[{"name":"","type":"uint256","internalType":"uint256"}],"stateMutability":"view"},{"type":"function","name":"balance1After","inputs":[],"outputs":[{"name":"","type":"uint256","internalType":"uint256"}],"stateMutability":"view"},{"type":"function","name":"balance1Before","inputs":[],"outputs":[{"name":"","type":"uint256","internalType":"uint256"}],"stateMutability":"view"},{"type":"function","name":"bounceTriggerCount","inputs":[],"outputs":[{"name":"","type":"uint256","internalType":"uint256"}],"stateMutability":"view"},{"type":"function","name":"executeOnOpportunity","inputs":[],"outputs":[],"stateMutability":"nonpayable"},{"type":"function","name":"executed","inputs":[],"outputs":[{"name":"","type":"bool","internalType":"bool"}],"stateMutability":"view"},{"type":"function","name":"flashAttempts","inputs":[],"outputs":[{"name":"","type":"uint256","internalType":"uint256"}],"stateMutability":"view"},{"type":"function","name":"gain0","inputs":[],"outputs":[{"name":"","type":"uint256","internalType":"uint256"}],"stateMutability":"view"},{"type":"function","name":"gain1","inputs":[],"outputs":[{"name":"","type":"uint256","internalType":"uint256"}],"stateMutability":"view"},{"type":"function","name":"hypothesisRefuted","inputs":[],"outputs":[{"name":"","type":"bool","internalType":"bool"}],"stateMutability":"view"},{"type":"function","name":"hypothesisValidated","inputs":[],"outputs":[{"name":"","type":"bool","internalType":"bool"}],"stateMutability":"view"},{"type":"function","name":"listedTokenIncreasesPairBalanceOutsideNormalAMMFlows","inputs":[],"outputs":[{"name":"","type":"bool","internalType":"bool"}],"stateMutability":"view"},{"type":"function","name":"profitAmount","inputs":[],"outputs":[{"name":"","type":"uint256","internalType":"uint256"}],"stateMutability":"view"},{"type":"function","name":"profitToken","inputs":[],"outputs":[{"name":"","type":"address","internalType":"address"}],"stateMutability":"view"},{"type":"function","name":"reserve0After","inputs":[],"outputs":[{"name":"","type":"uint112","internalType":"uint112"}],"stateMutability":"view"},{"type":"function","name":"reserve0Before","inputs":[],"outputs":[{"name":"","type":"uint112","internalType":"uint112"}],"stateMutability":"view"},{"type":"function","name":"reserve1After","inputs":[],"outputs":[{"name":"","type":"uint112","internalType":"uint112"}],"stateMutability":"view"},{"type":"function","name":"reserve1Before","inputs":[],"outputs":[{"name":"","type":"uint112","internalType":"uint112"}],"stateMutability":"view"},{"type":"function","name":"reservesStayStale","inputs":[],"outputs":[{"name":"","type":"bool","internalType":"bool"}],"stateMutability":"view"},{"type":"function","name":"skimmedToken","inputs":[],"outputs":[{"name":"","type":"uint256","internalType":"uint256"}],"stateMutability":"view"},{"type":"function","name":"sourcePair","inputs":[],"outputs":[{"name":"","type":"address","internalType":"address"}],"stateMutability":"view"},{"type":"function","name":"sourcePairRepayment","inputs":[],"outputs":[{"name":"","type":"uint256","internalType":"uint256"}],"stateMutability":"view"},{"type":"function","name":"successfulSkimCount","inputs":[],"outputs":[{"name":"","type":"uint256","internalType":"uint256"}],"stateMutability":"view"},{"type":"function","name":"surplus0After","inputs":[],"outputs":[{"name":"","type":"uint256","internalType":"uint256"}],"stateMutability":"view"},{"type":"function","name":"surplus0Before","inputs":[],"outputs":[{"name":"","type":"uint256","internalType":"uint256"}],"stateMutability":"view"},{"type":"function","name":"surplus1After","inputs":[],"outputs":[{"name":"","type":"uint256","internalType":"uint256"}],"stateMutability":"view"},{"type":"function","name":"surplus1Before","inputs":[],"outputs":[{"name":"","type":"uint256","internalType":"uint256"}],"stateMutability":"view"},{"type":"function","name":"token0","inputs":[],"outputs":[{"name":"","type":"address","internalType":"address"}],"stateMutability":"view"},{"type":"function","name":"token1","inputs":[],"outputs":[{"name":"","type":"address","internalType":"address"}],"stateMutability":"view"},{"type":"function","name":"tokenBorrowed","inputs":[],"outputs":[{"name":"","type":"uint256","internalType":"uint256"}],"stateMutability":"view"},{"type":"function","name":"tokenSpentToTrigger","inputs":[],"outputs":[{"name":"","type":"uint256","internalType":"uint256"}],"stateMutability":"view"},{"type":"function","name":"uniswapV2Call","inputs":[{"name":"","type":"address","internalType":"address"},{"name":"amount0","type":"uint256","internalType":"uint256"},{"name":"amount1","type":"uint256","internalType":"uint256"},{"name":"data","type":"bytes","internalType":"bytes"}],"outputs":[],"stateMutability":"nonpayable"},{"type":"function","name":"zeroValueTriggerCount","inputs":[],"outputs":[{"name":"","type":"uint256","internalType":"uint256"}],"stateMutability":"view"}],"bytecode":{"object":"0x60808060405234601557611ee2908161001a8239f35b5f80fdfe608080604052600436101561001c575b50361561001a575f80fd5b005b5f905f3560e01c90816303a39287146110255750806309a3e212146110085780630d73621514610feb5780630dfe168114610fbf57806310d1e85c14610d15578063125a142614610cec5780631adba8f114610ccf5780631b51496614610cb257806328190dd614610c955780632986e9f114610c6d578063314abf2214610c5057806331a38c8914610c2e5780633355ffe214610c115780633c2448ed146104d0578063463defd1146104aa5780634934362414610483578063495f92f11461045d57806359f269fb1461043f5780635ff972cc146104215780637e68c85d146103f757806381be3b62146103d9578063933b63e9146103b65780639a0c770514610390578063ac7ab8d214610368578063b567a1821461034a578063b728f52d1461032c578063bbe34cfd1461030e578063bcf0a095146102f0578063c7e5b1b7146102d2578063d1bb0442146102b4578063d21220a71461028b578063e302ebdd14610265578063ece7cf2e14610247578063ed7a139f14610220578063f074b0b814610202578063f18641fd146101e45763f8fa884b0361000f57346101e157806003193601126101e15760206001600160701b0360055416604051908152f35b80fd5b50346101e157806003193601126101e1576020601454604051908152f35b50346101e157806003193601126101e1576020600654604051908152f35b50346101e157806003193601126101e15760206001600160701b0360045416604051908152f35b50346101e157806003193601126101e1576020600854604051908152f35b50346101e157806003193601126101e157602060ff60185460101c166040519015158152f35b50346101e157806003193601126101e1576003546040516001600160a01b039091168152602090f35b50346101e157806003193601126101e1576020600c54604051908152f35b50346101e157806003193601126101e1576020600954604051908152f35b50346101e157806003193601126101e1576020601554604051908152f35b50346101e157806003193601126101e1576020600a54604051908152f35b50346101e157806003193601126101e1576020601054604051908152f35b50346101e157806003193601126101e1576020600f54604051908152f35b50346101e157806003193601126101e15760206040515f516020611e8d5f395f51905f528152f35b50346101e157806003193601126101e157602060ff60185460081c166040519015158152f35b50346101e157806003193601126101e157602060ff601854166040519015158152f35b50346101e157806003193601126101e1576020601154604051908152f35b50346101e157806003193601126101e15760206001600160701b0360045460701c16604051908152f35b50346101e157806003193601126101e1576020600154604051908152f35b50346101e157806003193601126101e1576020601654604051908152f35b50346101e157806003193601126101e157602060ff60025460101c166040519015158152f35b50346101e157806003193601126101e157546040516001600160a01b039091168152602090f35b50346101e157806003193601126101e157602060ff60025460081c166040519015158152f35b50346109b0575f3660031901126109b0576002546001600160601b0360a01b600354168060035563ffffffff60e01b60045416918260045563ffffffff60e01b600554166005555f6006555f6007555f6008555f6009555f600a555f600b555f600c555f600d555f600e555f600f555f6010555f6011555f6012555f6013555f6014555f6015555f6016555f60175567ffffffffffffffff60c01b601854166018556001600160601b0360a01b5f54165f555f60015568ffffffffffffffffff60b81b166001811760025560405190630dfe168160e01b82526020826004815f516020611e8d5f395f51905f525afa80156109a5576001925f91610bf2575b5063010000008360b81b039060181b161717918260025560405163d21220a760e01b81526020816004815f516020611e8d5f395f51905f525afa9081156109a5575f91610bc3575b506001600160a01b0316918217600355604051630240bc6b60e21b81526060816004815f516020611e8d5f395f51905f525afa80156109a5576106d56106e1916106e9935f905f92610b99575b5060709190911b6dffffffffffffffffffffffffffff60701b169094176001600160701b0394851690811760048190559660181c6001600160a01b0316946106c66106ae876113d9565b92836006556106bc896113d9565b93846007556114bc565b9788600a5560701c16906114bc565b9283600b55309061145c565b92309061145c565b921590811591610b8f575b50156109b4576201000061010162ffffff196018541617176018555f516020611e8d5f395f51905f523b156109b05760405163bc25cf7760e01b81523060048201525f81602481835f516020611e8d5f395f51905f525af180156109a557610990575b505b60025491601883901c6001600160a01b031690610776308361145c565b6003546001600160a01b0316939061078e308661145c565b9180821115610987576107a0916110d2565b915b82600e558082115f1461097e576107b8916110d2565b905b600f829055604051630240bc6b60e21b8152936060856004815f516020611e8d5f395f51905f525afa80156109735761ff009563ff00000092610864928a928b9161092f575b506001600160701b0391610855915f8d61084761083d87600554991680958960701b9060701b1663ffffffff60e01b8b1617179d8e6005556113d9565b94856008556113d9565b9687600955161717906114bc565b9687600c5560701c16906114bc565b9384600d556018549460ff8660101c169182610926575b508161091d575b50151560181b1663ff000000198416178060185560ff8160101c169384610912575b5083610904575b50826108e8575b5050151560081b1662ff000060ff8261ff001985161760081c161560101b169162ffff00191617176002556108e56116f8565b80f35b15801592506108fa575b505f806108b2565b905015155f6108f2565b60081c60ff1692505f6108ab565b60ff1693505f6108a4565b9050155f610882565b1591505f61087b565b6001600160701b0392935061085591506109609060603d60601161096c575b6109588183611047565b81019061109c565b50939093915091610800565b503d61094e565b6040513d89823e3d90fd5b505084906107ba565b505085916107a2565b61099d9193505f90611047565b5f915f610757565b6040513d5f823e3d90fd5b5f80fd5b6019549091906001600160a01b031615610b2e575b6109d1611776565b916109e63060018060a01b036003541661145c565b5f5b60038110610a1d575b505090809250610a0b3060018060a01b036003541661145c565b1161075957610a186114da565b610759565b60145460018101809111610b1a57601455600354601954610a4a916001600160a01b0391821691166117d3565b505f80604051602081019063bc25cf7760e01b825230602482015260248152610a74604482611047565b5190825f516020611e8d5f395f51905f525af1610a8f6110ec565b50610b04575b6003548590610aac906001600160a01b03166113d9565b11610add575b6003548290610acb9030906001600160a01b031661145c565b11610ad8576001016109e8565b6109f1565b935061010161ffff196018541617601855610af661187f565b610afe611776565b93610ab2565b6201000062ff0000196018541617601855610a95565b634e487b7160e01b5f52601160045260245ffd5b60405161024b80820182811067ffffffffffffffff821117610b7b578291611c42833903905ff080156109a55760018060a01b03166001600160601b0360a01b60195416176019556109c9565b634e487b7160e01b5f52604160045260245ffd5b905015155f6106f4565b6001600160701b039250610bbc915060603d60601161096c576109588183611047565b5091610664565b610be5915060203d602011610beb575b610bdd8183611047565b810190611069565b5f610617565b503d610bd3565b610c0b915060203d602011610beb57610bdd8183611047565b5f6105cf565b346109b0575f3660031901126109b0576020600d54604051908152f35b346109b0575f3660031901126109b057602060ff600254166040519015158152f35b346109b0575f3660031901126109b0576020600e54604051908152f35b346109b0575f3660031901126109b057601854604051602091821c6001600160a01b03168152f35b346109b0575f3660031901126109b0576020601354604051908152f35b346109b0575f3660031901126109b0576020601754604051908152f35b346109b0575f3660031901126109b0576020601254604051908152f35b346109b0575f3660031901126109b05760206001600160701b0360055460701c16604051908152f35b346109b05760803660031901126109b0576004356001600160a01b038116036109b05760243560643567ffffffffffffffff81116109b057366023820112156109b05780600401359067ffffffffffffffff82116109b05760248236920101116109b05715610f8a576018543360209190911c6001600160a01b03161480610f81575b15610f4a578015610f41575b8015610f1057806010556103e881029081046103e803610b1a576103e5900460018101809111610b1a5780610ddb9160175561112b565b6017546003546001600160a01b03169080610df6308461145c565b10610ecb5760185460405163a9059cbb60e01b60208281019182529290921c6001600160a01b0316602482015260448101929092525f9283929091908390610e4b81606481015b03601f198101835282611047565b51925af1610e576110ec565b81610e9c575b5015610e6557005b60405162461bcd60e51b815260206004820152600f60248201526e1514905394d1915497d19052531151608a1b6044820152606490fd5b8051801592508215610eb1575b505081610e5d565b610ec492506020809183010191016114a4565b8180610ea9565b60405162461bcd60e51b815260206004820152601b60248201527f494e53554646494349454e545f544f4b454e5f544f5f524550415900000000006044820152606490fd5b60405162461bcd60e51b81526020600482015260096024820152684e4f5f424f52524f5760b81b6044820152606490fd5b50604435610da4565b60405162461bcd60e51b815260206004820152600f60248201526e2120a22fa9a7aaa921a2afa820a4a960891b6044820152606490fd5b50331515610d98565b60405162461bcd60e51b815260206004820152600d60248201526c4e4f5f464c4153485f4441544160981b6044820152606490fd5b346109b0575f3660031901126109b05760025460405160189190911c6001600160a01b03168152602090f35b346109b0575f3660031901126109b0576020600b54604051908152f35b346109b0575f3660031901126109b0576020600754604051908152f35b346109b0575f3660031901126109b05760209060ff60185460181c1615158152f35b90601f8019910116810190811067ffffffffffffffff821117610b7b57604052565b908160209103126109b057516001600160a01b03811681036109b05790565b51906001600160701b03821682036109b057565b908160609103126109b0576110b081611088565b9160406110bf60208401611088565b92015163ffffffff811681036109b05790565b91908203918211610b1a57565b91908201809211610b1a57565b3d15611126573d9067ffffffffffffffff8211610b7b576040519161111b601f8201601f191660200184611047565b82523d5f602084013e565b606090565b611133611776565b905f5b6003811061138b57506003546001600160a01b0316611155308261145c565b828111156113855782611167916110d2565b60021c90816112cb575b50505f915b600c831061118357505050565b6003546001600160a01b0316611199308261145c565b838111156112c4576111ad846003926110d2565b0480156112c45760195460405163a9059cbb60e01b602082019081526001600160a01b03909216602482015260448101929092525f92839290919083906111f78160648101610e3d565b51925af16112036110ec565b81611295575b50156112905760155460018101809111610b1a57601555601954600354604051632e4cb6a160e11b602082019081526001600160a01b0392831660248301523060448301525f938493169183906112638160648101610e3d565b51925af161126f6110ec565b50156112905761127e9061184a565b6001611288611776565b920191611176565b505050565b80518015925082156112aa575b50505f611209565b6112bd92506020809183010191016114a4565b5f806112a2565b5050505050565b5f8091604051826020820191633bd5d17360e01b8352866024820152602481526112f6604482611047565b51925af16113026110ec565b50801561133d575b611315575b80611171565b9161132661132e92936011546110df565b60115561184a565b611336611776565b905f61130f565b505f8060018060a01b036003541660405182602082019163029d58c160e11b835286602482015260248152611373604482611047565b51925af161137f6110ec565b5061130a565b50505050565b916014549060018201809211610b1a576014919091556003546019546113c892916113c2916001600160a01b0390811691166117d3565b5061184a565b60016113d2611776565b9201611136565b6001600160a01b0381161561144c575f809160405160208101906370a0823160e01b82525f516020611e8d5f395f51905f5260248201526024815261141f604482611047565b51915afa61142b6110ec565b90158015611451575b61144c576020818051810103126109b0576020015190565b505f90565b506020815110611434565b906001600160a01b0382161561149e575f91829160405160208101916370a0823160e01b835260018060a01b031660248201526024815261141f604482611047565b50505f90565b908160209103126109b0575180151581036109b05790565b906001600160701b03168082111561149e576114d7916110d2565b90565b60405163c45a015560e01b81526020816004815f516020611e8d5f395f51905f525afa9081156109a5575f916116d9575b506001600160a01b031680156116d6576040519060e0820182811067ffffffffffffffff821117610b7b5760405273c02aaa39b223fe8d0a0e5c4f27ead9083c756cc2825273a0b86991c6218b36c1d19d4a2e9eb0ce3606eb48602083015273dac17f958d2ee523a2206206994597c13d831ec76040830152736b175474e89094c44da98b954eedeac495271d0f6060830152732260fac5e5542a773aa44fbcfedf7c193bc2c599608083015273853d955acef822db058eb8505911ed77f175b99e60a083015273be9895146f7af43049ca1c1ae358b0541ea4970460c08301525f5b600781101561129057600581901b8301516001600160a01b0316801580156116c2575b6116845760035460405163e6a4390560e01b81526001600160a01b03918216600482015291166024820152602081604481865afa9081156109a5575f916116a4575b506001600160a01b038116801590811561168d575b506116845761167690611986565b611290576001905b016115ee565b5060019061167e565b5f516020611e8d5f395f51905f529150145f611668565b6116bc915060203d8111610beb57610bdd8183611047565b5f611653565b506003546001600160a01b03168114611611565b50565b6116f2915060203d602011610beb57610bdd8183611047565b5f61150b565b600e5480158061176c575b61175757600f5480611734575060018060a01b0360025460181c166001600160601b0360a01b5f5416175f55600155565b905060018060a01b03600354166001600160601b0360a01b5f5416175f55600155565b505f80546001600160a01b0319168155600155565b50600f5415611703565b604051630240bc6b60e21b81526060816004815f516020611e8d5f395f51905f525afa80156109a5576001600160701b03915f916117b357501690565b6117cc915060603d60601161096c576109588183611047565b5090501690565b60405163a9059cbb60e01b602082019081526001600160a01b0390931660248201525f60448083018290528252928392918390611811606482611047565b51925af161181d6110ec565b81611826575090565b805180159250821561183757505090565b6114d792506020809183010191016114a4565b60035461185f906001600160a01b03166113d9565b1161186657565b61010161ffff19601854161760185561187d61187f565b565b6003545f906001600160a01b0316611896816113d9565b61189e611776565b1015611982576118af90309061145c565b6201000062ff00001960185416176018555f516020611e8d5f395f51905f523b156109b05760405163bc25cf7760e01b81523060048201525f81602481835f516020611e8d5f395f51905f525af180156109a55761196d575b506003546119209030906001600160a01b031661145c565b81811161192c57505050565b61194191611939916110d2565b6012546110df565b60125560135490600182018092116119595750601355565b634e487b7160e01b81526011600452602490fd5b61197a9192505f90611047565b5f905f611908565b5050565b604051630dfe168160e01b81529091906001600160a01b03831690602081600481855afa9081156109a5575f91611b6c575b506003546001600160a01b039081169116811490811590819081611b15575b5081611b0c575b50611b0557604051630240bc6b60e21b8152606081600481865afa9081156109a5576001600160701b03915f915f91611ae3575b508315611ada575016935b8415611ad25760188054640100000000600160c01b031916602092831b640100000000600160c01b03161790555b610800811115611a7657505060188054640100000000600160c01b0319169055505f60178190559150565b8015611abe578085048015611ab8576016549060018201809211610b1a57611aa2916016558385611b8b565b611aaf575b60011b611a4b565b50600193505050565b50611aa7565b634e487b7160e01b5f52601260045260245ffd5b505f93505050565b90501693611a1d565b9050611afe915060603d60601161096c576109588183611047565b505f611a12565b505f925050565b9050155f6119de565b60405163d21220a760e01b8152909150602081600481885afa9081156109a5575f91611b4d575b506001600160a01b0316145f6119d7565b611b66915060203d602011610beb57610bdd8183611047565b5f611b3c565b611b85915060203d602011610beb57610bdd8183611047565b5f6119b8565b905f92815f14611c3a5780915b15611c3457505f915b6001600160a01b031691823b156109b05760c45f9283604051958694859363022c0d9f60e01b8552600485015260248401523060448401526080606484015260016084840152600160f81b60a48401525af19081611c1f575b50611c025790565b50600354611c1a9030906001600160a01b031661145c565b151590565b611c2c9192505f90611047565b5f905f611bfa565b91611ba1565b5f91611b9856fe60808060405234601557610231908161001a8239f35b5f80fdfe6080806040526004361015610012575f80fd5b5f3560e01c635c996d4214610025575f80fd5b3461017b57604036600319011261017b576004356001600160a01b038116919082810361017b576024356001600160a01b038116939084900361017b57826024816020936370a0823160e01b82523060048301525afa9182156101ce575f9261019a575b508161009157005b5f9283809360405190602082019363a9059cbb60e01b855260248301526044820152604481526100c26064826101d9565b51925af13d15610193573d67ffffffffffffffff811161017f57604051906100f4601f8201601f1916602001836101d9565b81523d5f602083013e5b81610143575b501561010c57005b60405162461bcd60e51b815260206004820152600f60248201526e1514905394d1915497d19052531151608a1b6044820152606490fd5b8051801592508215610158575b50505f610104565b819250906020918101031261017b5760200151801515810361017b575f80610150565b5f80fd5b634e487b7160e01b5f52604160045260245ffd5b60606100fe565b9091506020813d6020116101c6575b816101b6602093836101d9565b8101031261017b5751905f610089565b3d91506101a9565b6040513d5f823e3d90fd5b90601f8019910116810190811067ffffffffffffffff82111761017f5760405256fea264697066735822122043c35c96ccda0815ff6d46063419e66c23b595e85df4420bfd74db7e27bba3a064736f6c634300081e003300000000000000000000000076ea342bc038d665e8a116392c82552d2605eda1a26469706673582212207500dc4c9996ae4a2566e7ae39ba157f542427b70d463793d039a894f1781cc364736f6c634300081e0033","linkReferences":{}},"methodIdentifiers":{"TARGET_PAIR()":"ac7ab8d2","attackerCallsSkimAttacker()":"e302ebdd","attackerReceivesEntireSurplusAmount()":"03a39287","balance0After()":"ece7cf2e","balance0Before()":"f074b0b8","balance1After()":"c7e5b1b7","balance1Before()":"09a3e212","bounceTriggerCount()":"bcf0a095","executeOnOpportunity()":"3c2448ed","executed()":"31a38c89","flashAttempts()":"59f269fb","gain0()":"314abf22","gain1()":"b567a182","hypothesisRefuted()":"495f92f1","hypothesisValidated()":"463defd1","listedTokenIncreasesPairBalanceOutsideNormalAMMFlows()":"933b63e9","profitAmount()":"5ff972cc","profitToken()":"49343624","reserve0After()":"f8fa884b","reserve0Before()":"ed7a139f","reserve1After()":"125a1426","reserve1Before()":"7e68c85d","reservesStayStale()":"9a0c7705","skimmedToken()":"1adba8f1","sourcePair()":"2986e9f1","sourcePairRepayment()":"1b514966","successfulSkimCount()":"28190dd6","surplus0After()":"d1bb0442","surplus0Before()":"bbe34cfd","surplus1After()":"3355ffe2","surplus1Before()":"0d736215","token0()":"0dfe1681","token1()":"d21220a7","tokenBorrowed()":"b728f52d","tokenSpentToTrigger()":"81be3b62","uniswapV2Call(address,uint256,uint256,bytes)":"10d1e85c","zeroValueTriggerCount()":"f18641fd"},"id":0}