{"abi":[{"type":"constructor","inputs":[],"stateMutability":"nonpayable"},{"type":"function","name":"sendAll","inputs":[{"name":"token","type":"address","internalType":"address"},{"name":"to","type":"address","internalType":"address"}],"outputs":[],"stateMutability":"nonpayable"}],"bytecode":{"object":"0x60808060405234601557610231908161001a8239f35b5f80fdfe6080806040526004361015610012575f80fd5b5f3560e01c635c996d4214610025575f80fd5b3461017b57604036600319011261017b576004356001600160a01b038116919082810361017b576024356001600160a01b038116939084900361017b57826024816020936370a0823160e01b82523060048301525afa9182156101ce575f9261019a575b508161009157005b5f9283809360405190602082019363a9059cbb60e01b855260248301526044820152604481526100c26064826101d9565b51925af13d15610193573d67ffffffffffffffff811161017f57604051906100f4601f8201601f1916602001836101d9565b81523d5f602083013e5b81610143575b501561010c57005b60405162461bcd60e51b815260206004820152600f60248201526e1514905394d1915497d19052531151608a1b6044820152606490fd5b8051801592508215610158575b50505f610104565b819250906020918101031261017b5760200151801515810361017b575f80610150565b5f80fd5b634e487b7160e01b5f52604160045260245ffd5b60606100fe565b9091506020813d6020116101c6575b816101b6602093836101d9565b8101031261017b5751905f610089565b3d91506101a9565b6040513d5f823e3d90fd5b90601f8019910116810190811067ffffffffffffffff82111761017f5760405256fea264697066735822122043c35c96ccda0815ff6d46063419e66c23b595e85df4420bfd74db7e27bba3a064736f6c634300081e0033","linkReferences":{}},"methodIdentifiers":{"sendAll(address,address)":"5c996d42"},"id":0}