{"abi":[{"type":"constructor","inputs":[],"stateMutability":"nonpayable"},{"type":"receive","stateMutability":"payable"},{"type":"function","name":"TARGET","inputs":[],"outputs":[{"name":"","type":"address","internalType":"address"}],"stateMutability":"view"},{"type":"function","name":"WETH_TOKEN","inputs":[],"outputs":[{"name":"","type":"address","internalType":"address"}],"stateMutability":"view"},{"type":"function","name":"executeOnOpportunity","inputs":[],"outputs":[],"stateMutability":"nonpayable"},{"type":"function","name":"exploitPathUsed","inputs":[],"outputs":[{"name":"","type":"string","internalType":"string"}],"stateMutability":"pure"},{"type":"function","name":"failureReason","inputs":[],"outputs":[{"name":"","type":"string","internalType":"string"}],"stateMutability":"view"},{"type":"function","name":"hypothesisValidated","inputs":[],"outputs":[{"name":"","type":"bool","internalType":"bool"}],"stateMutability":"view"},{"type":"function","name":"onERC1155BatchReceived","inputs":[{"name":"","type":"address","internalType":"address"},{"name":"","type":"address","internalType":"address"},{"name":"","type":"uint256[]","internalType":"uint256[]"},{"name":"","type":"uint256[]","internalType":"uint256[]"},{"name":"","type":"bytes","internalType":"bytes"}],"outputs":[{"name":"","type":"bytes4","internalType":"bytes4"}],"stateMutability":"pure"},{"type":"function","name":"onERC1155Received","inputs":[{"name":"","type":"address","internalType":"address"},{"name":"","type":"address","internalType":"address"},{"name":"","type":"uint256","internalType":"uint256"},{"name":"","type":"uint256","internalType":"uint256"},{"name":"","type":"bytes","internalType":"bytes"}],"outputs":[{"name":"","type":"bytes4","internalType":"bytes4"}],"stateMutability":"pure"},{"type":"function","name":"onERC721Received","inputs":[{"name":"","type":"address","internalType":"address"},{"name":"","type":"address","internalType":"address"},{"name":"","type":"uint256","internalType":"uint256"},{"name":"","type":"bytes","internalType":"bytes"}],"outputs":[{"name":"","type":"bytes4","internalType":"bytes4"}],"stateMutability":"pure"},{"type":"function","name":"profitAmount","inputs":[],"outputs":[{"name":"","type":"uint256","internalType":"uint256"}],"stateMutability":"view"},{"type":"function","name":"profitToken","inputs":[],"outputs":[{"name":"","type":"address","internalType":"address"}],"stateMutability":"view"},{"type":"function","name":"supportsInterface","inputs":[{"name":"interfaceId","type":"bytes4","internalType":"bytes4"}],"outputs":[{"name":"","type":"bool","internalType":"bool"}],"stateMutability":"pure"},{"type":"function","name":"uniswapV2Call","inputs":[{"name":"sender","type":"address","internalType":"address"},{"name":"amount0","type":"uint256","internalType":"uint256"},{"name":"amount1","type":"uint256","internalType":"uint256"},{"name":"","type":"bytes","internalType":"bytes"}],"outputs":[],"stateMutability":"nonpayable"}],"bytecode":{"object":"0x6080604052348015600e575f5ffd5b50613c138061001c5f395ff3fe6080604052600436106100c5575f3560e01c8063493436241161007e578063bc197c8111610058578063bc197c8114610258578063cc1f2afa14610294578063d78c4281146102be578063f23a6e61146102e8576100cc565b806349343624146101da5780634f9522a4146102045780635ff972cc1461022e576100cc565b806301ffc9a7146100d057806310d1e85c1461010c578063150b7a021461013457806337d277d4146101705780633c2448ed1461019a578063463defd1146101b0576100cc565b366100cc57005b5f5ffd5b3480156100db575f5ffd5b506100f660048036038101906100f1919061240e565b610324565b6040516101039190612453565b60405180910390f35b348015610117575f5ffd5b50610132600480360381019061012d919061255a565b610412565b005b34801561013f575f5ffd5b5061015a600480360381019061015591906125de565b610897565b6040516101679190612671565b60405180910390f35b34801561017b575f5ffd5b506101846108ab565b6040516101919190612699565b60405180910390f35b3480156101a5575f5ffd5b506101ae6108c3565b005b3480156101bb575f5ffd5b506101c4610a9b565b6040516101d19190612453565b60405180910390f35b3480156101e5575f5ffd5b506101ee610ab0565b6040516101fb9190612699565b60405180910390f35b34801561020f575f5ffd5b50610218610ad7565b6040516102259190612722565b60405180910390f35b348015610239575f5ffd5b50610242610b67565b60405161024f9190612751565b60405180910390f35b348015610263575f5ffd5b5061027e600480360381019061027991906127bf565b610b70565b60405161028b9190612671565b60405180910390f35b34801561029f575f5ffd5b506102a8610b87565b6040516102b59190612699565b60405180910390f35b3480156102c9575f5ffd5b506102d2610b9f565b6040516102df9190612722565b60405180910390f35b3480156102f3575f5ffd5b5061030e60048036038101906103099190612896565b610bbf565b60405161031b9190612671565b60405180910390f35b5f63150b7a0260e01b7bffffffffffffffffffffffffffffffffffffffffffffffffffffffff1916827bffffffffffffffffffffffffffffffffffffffffffffffffffffffff191614806103bc575063f23a6e6160e01b7bffffffffffffffffffffffffffffffffffffffffffffffffffffffff1916827bffffffffffffffffffffffffffffffffffffffffffffffffffffffff1916145b8061040b575063bc197c8160e01b7bffffffffffffffffffffffffffffffffffffffffffffffffffffffff1916827bffffffffffffffffffffffffffffffffffffffffffffffffffffffff1916145b9050919050565b3073ffffffffffffffffffffffffffffffffffffffff168573ffffffffffffffffffffffffffffffffffffffff1614610480576040517f08c379a000000000000000000000000000000000000000000000000000000000815260040161047790612976565b60405180910390fd5b600b5f9054906101000a900460ff16156104cf576040517f08c379a00000000000000000000000000000000000000000000000000000000081526004016104c6906129de565b60405180910390fd5b5f735c69bee701ef814a2b6a3edd4b1652cb9cc5aa6f73ffffffffffffffffffffffffffffffffffffffff1663e6a4390573c02aaa39b223fe8d0a0e5c4f27ead9083c756cc273a0b86991c6218b36c1d19d4a2e9eb0ce3606eb486040518363ffffffff1660e01b81526004016105479291906129fc565b602060405180830381865afa158015610562573d5f5f3e3d5ffd5b505050506040513d601f19601f820116820180604052508101906105869190612a37565b90508073ffffffffffffffffffffffffffffffffffffffff163373ffffffffffffffffffffffffffffffffffffffff16146105f6576040517f08c379a00000000000000000000000000000000000000000000000000000000081526004016105ed90612aac565b60405180910390fd5b5f5f86116106045784610606565b855b90505f811161064a576040517f08c379a000000000000000000000000000000000000000000000000000000000815260040161064190612b14565b60405180910390fd5b6001600b5f6101000a81548160ff02191690831515021790555073c02aaa39b223fe8d0a0e5c4f27ead9083c756cc273ffffffffffffffffffffffffffffffffffffffff16632e1a7d4d826040518263ffffffff1660e01b81526004016106b19190612751565b5f604051808303815f87803b1580156106c8575f5ffd5b505af11580156106da573d5f5f3e3d5ffd5b505050506106e6610bd4565b5f600b5f6101000a81548160ff0219169083151502179055505f61070982610fda565b90508047101561074e576040517f08c379a000000000000000000000000000000000000000000000000000000000815260040161074590612b7c565b60405180910390fd5b73c02aaa39b223fe8d0a0e5c4f27ead9083c756cc273ffffffffffffffffffffffffffffffffffffffff1663d0e30db0826040518263ffffffff1660e01b81526004015f604051808303818588803b1580156107a8575f5ffd5b505af11580156107ba573d5f5f3e3d5ffd5b505050505073c02aaa39b223fe8d0a0e5c4f27ead9083c756cc273ffffffffffffffffffffffffffffffffffffffff1663a9059cbb84836040518363ffffffff1660e01b815260040161080e929190612b9a565b6020604051808303815f875af115801561082a573d5f5f3e3d5ffd5b505050506040513d601f19601f8201168201806040525081019061084e9190612beb565b61088d576040517f08c379a000000000000000000000000000000000000000000000000000000000815260040161088490612c60565b60405180910390fd5b5050505050505050565b5f63150b7a0260e01b905095945050505050565b73c02aaa39b223fe8d0a0e5c4f27ead9083c756cc281565b5f6001541415806108df575060025f9054906101000a900460ff165b610a99575f6108ec611009565b90505f810361091c57610916604051806080016040528060468152602001613b98604691396110c4565b50610a99565b5f61092682611152565b9050805f015161095857610951604051806080016040528060598152602001613b3f605991396110c4565b5050610a99565b8060045f820151815f015f6101000a81548160ff02191690831515021790555060208201518160010155604082015181600201556060820151816003015f6101000a81548173ffffffffffffffffffffffffffffffffffffffff021916908373ffffffffffffffffffffffffffffffffffffffff1602179055506080820151816004015560a0820151816005015560c0820151816006015f6101000a81548160ff021916908360ff16021790555060e08201518160060160016101000a81548160ff021916908360ff1602179055509050505f610a336116fa565b610a3d575f610a46565b610a456117bb565b5b90505f60018360400151610a5a9190612cab565b82610a659190612cde565b90505f811480610a755750804710155b15610a8b57610a82610bd4565b50505050610a99565b610a9481611876565b505050505b565b5f60025f9054906101000a900460ff16905090565b5f5f5f9054906101000a900473ffffffffffffffffffffffffffffffffffffffff16905090565b606060038054610ae690612d4c565b80601f0160208091040260200160405190810160405280929190818152602001828054610b1290612d4c565b8015610b5d5780601f10610b3457610100808354040283529160200191610b5d565b820191905f5260205f20905b815481529060010190602001808311610b4057829003601f168201915b5050505050905090565b5f600154905090565b5f63bc197c8160e01b905098975050505050505050565b73c310e760778ecbca4c65b6c559874757a4c4ece081565b60606040518060c0016040528060868152602001613ab960869139905090565b5f63f23a6e6160e01b90509695505050505050565b5f6004604051806101000160405290815f82015f9054906101000a900460ff161515151581526020016001820154815260200160028201548152602001600382015f9054906101000a900473ffffffffffffffffffffffffffffffffffffffff1673ffffffffffffffffffffffffffffffffffffffff1673ffffffffffffffffffffffffffffffffffffffff1681526020016004820154815260200160058201548152602001600682015f9054906101000a900460ff1660ff1660ff1681526020016006820160019054906101000a900460ff1660ff1660ff16815250509050805f0151610cf7576040517f08c379a0000000000000000000000000000000000000000000000000000000008152600401610cee90612dc6565b60405180910390fd5b5f610d0f82606001518360c001518460800151611b22565b90505f610d1a6116fa565b610d24575f610d2d565b610d2c6117bb565b5b90505f60018460400151610d419190612cab565b90505f8167ffffffffffffffff811115610d5e57610d5d612de4565b5b604051908082528060200260200182016040528015610d8c5781602001602082028036833780820191505090505b5090505f5f90505b82811015610dd757610da4611009565b828281518110610db757610db6612e11565b5b602002602001018181525050610dcc84611d90565b806001019050610d94565b5073c310e760778ecbca4c65b6c559874757a4c4ece073ffffffffffffffffffffffffffffffffffffffff1663dc788a2486602001516040518263ffffffff1660e01b8152600401610e299190612751565b5f604051808303815f87803b158015610e40575f5ffd5b505af1158015610e52573d5f5f3e3d5ffd5b50505050600160025f6101000a81548160ff0219169083151502179055505f5f90505b8560400151811015610f205773c310e760778ecbca4c65b6c559874757a4c4ece073ffffffffffffffffffffffffffffffffffffffff1663dc788a24838381518110610ec457610ec3612e11565b5b60200260200101516040518263ffffffff1660e01b8152600401610ee89190612751565b5f604051808303815f87803b158015610eff575f5ffd5b505af1158015610f11573d5f5f3e3d5ffd5b50505050806001019050610e75565b505f610f3986606001518760c001518860800151611b22565b9050848111610f7d576040517f08c379a0000000000000000000000000000000000000000000000000000000008152600401610f7490612e88565b60405180910390fd5b85606001515f5f6101000a81548173ffffffffffffffffffffffffffffffffffffffff021916908373ffffffffffffffffffffffffffffffffffffffff1602179055508481610fcc9190612ea6565b600181905550505050505050565b5f60016103e56103e884610fee9190612cde565b610ff89190612f06565b6110029190612cab565b9050919050565b5f7f885cb69240a935d632d79c317109709ecfa91a80626ff3989d68f67f5b1dd12d5f1c73ffffffffffffffffffffffffffffffffffffffff1663667f9d7073c310e760778ecbca4c65b6c559874757a4c4ece060095f1b6040518363ffffffff1660e01b815260040161107e929190612f4e565b602060405180830381865afa158015611099573d5f5f3e3d5ffd5b505050506040513d601f19601f820116820180604052508101906110bd9190612f9f565b5f1c905090565b600160025f6101000a81548160ff02191690831515021790555080600390816110ed919061316a565b5073c02aaa39b223fe8d0a0e5c4f27ead9083c756cc25f5f6101000a81548173ffffffffffffffffffffffffffffffffffffffff021916908373ffffffffffffffffffffffffffffffffffffffff16021790555066038d7ea4c6800060018190555050565b61115a612282565b5f5f90505b828110156116f4575f73c310e760778ecbca4c65b6c559874757a4c4ece073ffffffffffffffffffffffffffffffffffffffff166342a229178360016040518363ffffffff1660e01b81526004016111b8929190613239565b602060405180830381865afa1580156111d3573d5f5f3e3d5ffd5b505050506040513d601f19601f820116820180604052508101906111f79190613274565b90505f810361120657506116e9565b61120e612282565b6001815f0190151590811515815250508281602001818152505061123183611ecc565b8160400181815250505f600190505f5f90505f5f90505b84811015611641575f73c310e760778ecbca4c65b6c559874757a4c4ece073ffffffffffffffffffffffffffffffffffffffff166323e0aa4c886001856040518463ffffffff1660e01b81526004016112a39392919061329f565b5f60405180830381865afa1580156112bd573d5f5f3e3d5ffd5b505050506040513d5f823e3d601f19601f820116820180604052508101906112e59190613566565b90507390b7cf88476cc99d295429d4c1bb1ff52448abee73ffffffffffffffffffffffffffffffffffffffff16816020015173ffffffffffffffffffffffffffffffffffffffff16036113b8575f816060015151148061136d575061136b815f015182606001515f8151811061135e5761135d612e11565b5b6020026020010151611fb4565b155b1561137b575f935050611641565b600192506113b085825f01515f84606001515f8151811061139f5761139e612e11565b5b602002602001015160036001612056565b945050611636565b7358874d2951524f7f851bbbe240f0c3cf0b992d7973ffffffffffffffffffffffffffffffffffffffff16816020015173ffffffffffffffffffffffffffffffffffffffff1603611489575f816040015151148061143e575061143c815f015182604001515f8151811061142f5761142e612e11565b5b6020026020010151612111565b155b1561144c575f935050611641565b6001925061148185825f015183604001515f8151811061146f5761146e612e11565b5b60200260200101516001600280612056565b945050611636565b73edfdd7266667d48f3c9ab10194c3d325813d8c3973ffffffffffffffffffffffffffffffffffffffff16816020015173ffffffffffffffffffffffffffffffffffffffff16036115d9575f81604001515114806114f1575080606001515181604001515114155b156114ff575f935050611641565b5f5f90505b8160400151518110156115725761155b825f01518360400151838151811061152f5761152e612e11565b5b60200260200101518460600151848151811061154e5761154d612e11565b5b60200260200101516121de565b611567575f9450611572565b806001019050611504565b508361157e5750611641565b600192506115d185825f015183604001515f815181106115a1576115a0612e11565b5b602002602001015184606001515f815181106115c0576115bf612e11565b5b602002602001015160026003612056565b945050611636565b73b47e3cd837ddf8e4c57f05d70ab865de6e193bbb73ffffffffffffffffffffffffffffffffffffffff16816020015173ffffffffffffffffffffffffffffffffffffffff160361162d575f935050611641565b5f935050611641565b806001019050611248565b5081158061164d575080155b1561165b57505050506116e9565b855f01511580611672575085604001518360400151105b8061169d57508560400151836040015114801561169c57508560e0015160ff168360e0015160ff16115b5b806116db5750856040015183604001511480156116c757508560e0015160ff168360e0015160ff16145b80156116da57508560a001518360a00151115b5b156116e4578295505b505050505b80600101905061115f565b50919050565b5f5f60ff7f885cb69240a935d632d79c317109709ecfa91a80626ff3989d68f67f5b1dd12d5f1c73ffffffffffffffffffffffffffffffffffffffff1663667f9d7073c310e760778ecbca4c65b6c559874757a4c4ece0600f5f1b6040518363ffffffff1660e01b8152600401611772929190612f4e565b602060405180830381865afa15801561178d573d5f5f3e3d5ffd5b505050506040513d601f19601f820116820180604052508101906117b19190612f9f565b5f1c161415905090565b5f7f885cb69240a935d632d79c317109709ecfa91a80626ff3989d68f67f5b1dd12d5f1c73ffffffffffffffffffffffffffffffffffffffff1663667f9d7073c310e760778ecbca4c65b6c559874757a4c4ece060105f1b6040518363ffffffff1660e01b8152600401611830929190612f4e565b602060405180830381865afa15801561184b573d5f5f3e3d5ffd5b505050506040513d601f19601f8201168201806040525081019061186f9190612f9f565b5f1c905090565b5f735c69bee701ef814a2b6a3edd4b1652cb9cc5aa6f73ffffffffffffffffffffffffffffffffffffffff1663e6a4390573c02aaa39b223fe8d0a0e5c4f27ead9083c756cc273a0b86991c6218b36c1d19d4a2e9eb0ce3606eb486040518363ffffffff1660e01b81526004016118ee9291906129fc565b602060405180830381865afa158015611909573d5f5f3e3d5ffd5b505050506040513d601f19601f8201168201806040525081019061192d9190612a37565b90505f73ffffffffffffffffffffffffffffffffffffffff168173ffffffffffffffffffffffffffffffffffffffff160361199d576040517f08c379a0000000000000000000000000000000000000000000000000000000008152600401611994906135f7565b60405180910390fd5b5f8173ffffffffffffffffffffffffffffffffffffffff16630dfe16816040518163ffffffff1660e01b8152600401602060405180830381865afa1580156119e7573d5f5f3e3d5ffd5b505050506040513d601f19601f82011682018060405250810190611a0b9190612a37565b90505f73c02aaa39b223fe8d0a0e5c4f27ead9083c756cc273ffffffffffffffffffffffffffffffffffffffff168273ffffffffffffffffffffffffffffffffffffffff1614611a5b575f611a5d565b835b90505f73c02aaa39b223fe8d0a0e5c4f27ead9083c756cc273ffffffffffffffffffffffffffffffffffffffff168373ffffffffffffffffffffffffffffffffffffffff1614611aad5784611aaf565b5f5b90508373ffffffffffffffffffffffffffffffffffffffff1663022c0d9f8383306040518463ffffffff1660e01b8152600401611aee9392919061366f565b5f604051808303815f87803b158015611b05575f5ffd5b505af1158015611b17573d5f5f3e3d5ffd5b505050505050505050565b5f60018360ff1603611bb6578373ffffffffffffffffffffffffffffffffffffffff166370a08231306040518263ffffffff1660e01b8152600401611b679190612699565b602060405180830381865afa925050508015611ba157506040513d601f19601f82011682018060405250810190611b9e9190613274565b60015b611bad575f9050611d89565b80915050611d89565b60028360ff1603611cf1575f5f8573ffffffffffffffffffffffffffffffffffffffff1630604051602401611beb9190612699565b6040516020818303038152906040527f70a08231000000000000000000000000000000000000000000000000000000007bffffffffffffffffffffffffffffffffffffffffffffffffffffffff19166020820180517bffffffffffffffffffffffffffffffffffffffffffffffffffffffff8381831617835250505050604051611c7591906136fb565b5f60405180830381855afa9150503d805f8114611cad576040519150601f19603f3d011682016040523d82523d5f602084013e611cb2565b606091505b5091509150811580611cc5575060208151105b15611cd4575f92505050611d89565b80806020019051810190611ce89190613274565b92505050611d89565b60038360ff1603611d85578373ffffffffffffffffffffffffffffffffffffffff1662fdd58e30846040518363ffffffff1660e01b8152600401611d36929190612b9a565b602060405180830381865afa925050508015611d7057506040513d601f19601f82011682018060405250810190611d6d9190613274565b60015b611d7c575f9050611d89565b80915050611d89565b5f90505b9392505050565b611d986122dd565b5f5f67ffffffffffffffff811115611db357611db2612de4565b5b604051908082528060200260200182016040528015611dec57816020015b611dd961234f565b815260200190600190039081611dd15790505b5090505f5f67ffffffffffffffff811115611e0a57611e09612de4565b5b604051908082528060200260200182016040528015611e4357816020015b611e3061234f565b815260200190600190039081611e285790505b50905073c310e760778ecbca4c65b6c559874757a4c4ece073ffffffffffffffffffffffffffffffffffffffff1663c041abb1858585856040518563ffffffff1660e01b8152600401611e9893929190613a4b565b5f604051808303818588803b158015611eaf575f5ffd5b505af1158015611ec1573d5f5f3e3d5ffd5b505050505050505050565b5f5f82600e604051602001611ee2929190613a91565b6040516020818303038152906040528051906020012090507f885cb69240a935d632d79c317109709ecfa91a80626ff3989d68f67f5b1dd12d5f1c73ffffffffffffffffffffffffffffffffffffffff1663667f9d7073c310e760778ecbca4c65b6c559874757a4c4ece0836040518363ffffffff1660e01b8152600401611f6b929190612f4e565b602060405180830381865afa158015611f86573d5f5f3e3d5ffd5b505050506040513d601f19601f82011682018060405250810190611faa9190612f9f565b5f1c915050919050565b5f8273ffffffffffffffffffffffffffffffffffffffff166370a0823173c310e760778ecbca4c65b6c559874757a4c4ece06040518263ffffffff1660e01b81526004016120029190612699565b602060405180830381865afa92505050801561203c57506040513d601f19601f820116820180604052508101906120399190613274565b60015b612048575f9050612050565b828110159150505b92915050565b61205e612282565b8660e0015160ff168360ff16118061208e57508660e0015160ff168360ff1614801561208d57508660a0015184115b5b156121045785876060019073ffffffffffffffffffffffffffffffffffffffff16908173ffffffffffffffffffffffffffffffffffffffff168152505084876080018181525050838760a0018181525050818760c0019060ff16908160ff1681525050828760e0019060ff16908160ff16815250505b8690509695505050505050565b5f8273ffffffffffffffffffffffffffffffffffffffff16636352211e836040518263ffffffff1660e01b815260040161214b9190612751565b602060405180830381865afa92505050801561218557506040513d601f19601f820116820180604052508101906121829190612a37565b60015b612191575f90506121d8565b73c310e760778ecbca4c65b6c559874757a4c4ece073ffffffffffffffffffffffffffffffffffffffff168173ffffffffffffffffffffffffffffffffffffffff16149150505b92915050565b5f8373ffffffffffffffffffffffffffffffffffffffff1662fdd58e73c310e760778ecbca4c65b6c559874757a4c4ece0856040518363ffffffff1660e01b815260040161222d929190612b9a565b602060405180830381865afa92505050801561226757506040513d601f19601f820116820180604052508101906122649190613274565b60015b612273575f905061227b565b828110159150505b9392505050565b6040518061010001604052805f151581526020015f81526020015f81526020015f73ffffffffffffffffffffffffffffffffffffffff1681526020015f81526020015f81526020015f60ff1681526020015f60ff1681525090565b6040518061012001604052805f81526020015f73ffffffffffffffffffffffffffffffffffffffff1681526020015f81526020015f73ffffffffffffffffffffffffffffffffffffffff1681526020015f81526020015f81526020015f81526020015f81526020015f60ff1681525090565b6040518060a001604052805f73ffffffffffffffffffffffffffffffffffffffff1681526020015f73ffffffffffffffffffffffffffffffffffffffff1681526020016060815260200160608152602001606081525090565b5f604051905090565b5f5ffd5b5f5ffd5b5f7fffffffff0000000000000000000000000000000000000000000000000000000082169050919050565b6123ed816123b9565b81146123f7575f5ffd5b50565b5f81359050612408816123e4565b92915050565b5f60208284031215612423576124226123b1565b5b5f612430848285016123fa565b91505092915050565b5f8115159050919050565b61244d81612439565b82525050565b5f6020820190506124665f830184612444565b92915050565b5f73ffffffffffffffffffffffffffffffffffffffff82169050919050565b5f6124958261246c565b9050919050565b6124a58161248b565b81146124af575f5ffd5b50565b5f813590506124c08161249c565b92915050565b5f819050919050565b6124d8816124c6565b81146124e2575f5ffd5b50565b5f813590506124f3816124cf565b92915050565b5f5ffd5b5f5ffd5b5f5ffd5b5f5f83601f84011261251a576125196124f9565b5b8235905067ffffffffffffffff811115612537576125366124fd565b5b60208301915083600182028301111561255357612552612501565b5b9250929050565b5f5f5f5f5f60808688031215612573576125726123b1565b5b5f612580888289016124b2565b9550506020612591888289016124e5565b94505060406125a2888289016124e5565b935050606086013567ffffffffffffffff8111156125c3576125c26123b5565b5b6125cf88828901612505565b92509250509295509295909350565b5f5f5f5f5f608086880312156125f7576125f66123b1565b5b5f612604888289016124b2565b9550506020612615888289016124b2565b9450506040612626888289016124e5565b935050606086013567ffffffffffffffff811115612647576126466123b5565b5b61265388828901612505565b92509250509295509295909350565b61266b816123b9565b82525050565b5f6020820190506126845f830184612662565b92915050565b6126938161248b565b82525050565b5f6020820190506126ac5f83018461268a565b92915050565b5f81519050919050565b5f82825260208201905092915050565b8281835e5f83830152505050565b5f601f19601f8301169050919050565b5f6126f4826126b2565b6126fe81856126bc565b935061270e8185602086016126cc565b612717816126da565b840191505092915050565b5f6020820190508181035f83015261273a81846126ea565b905092915050565b61274b816124c6565b82525050565b5f6020820190506127645f830184612742565b92915050565b5f5f83601f84011261277f5761277e6124f9565b5b8235905067ffffffffffffffff81111561279c5761279b6124fd565b5b6020830191508360208202830111156127b8576127b7612501565b5b9250929050565b5f5f5f5f5f5f5f5f60a0898b0312156127db576127da6123b1565b5b5f6127e88b828c016124b2565b98505060206127f98b828c016124b2565b975050604089013567ffffffffffffffff81111561281a576128196123b5565b5b6128268b828c0161276a565b9650965050606089013567ffffffffffffffff811115612849576128486123b5565b5b6128558b828c0161276a565b9450945050608089013567ffffffffffffffff811115612878576128776123b5565b5b6128848b828c01612505565b92509250509295985092959890939650565b5f5f5f5f5f5f60a087890312156128b0576128af6123b1565b5b5f6128bd89828a016124b2565b96505060206128ce89828a016124b2565b95505060406128df89828a016124e5565b94505060606128f089828a016124e5565b935050608087013567ffffffffffffffff811115612911576129106123b5565b5b61291d89828a01612505565b92509250509295509295509295565b7f756e65787065637465642073656e6465720000000000000000000000000000005f82015250565b5f6129606011836126bc565b915061296b8261292c565b602082019050919050565b5f6020820190508181035f83015261298d81612954565b9050919050565b7f7265656e746572656400000000000000000000000000000000000000000000005f82015250565b5f6129c86009836126bc565b91506129d382612994565b602082019050919050565b5f6020820190508181035f8301526129f5816129bc565b9050919050565b5f604082019050612a0f5f83018561268a565b612a1c602083018461268a565b9392505050565b5f81519050612a318161249c565b92915050565b5f60208284031215612a4c57612a4b6123b1565b5b5f612a5984828501612a23565b91505092915050565b7f756e6578706563746564207061697200000000000000000000000000000000005f82015250565b5f612a96600f836126bc565b9150612aa182612a62565b602082019050919050565b5f6020820190508181035f830152612ac381612a8a565b9050919050565b7f7a65726f20626f72726f770000000000000000000000000000000000000000005f82015250565b5f612afe600b836126bc565b9150612b0982612aca565b602082019050919050565b5f6020820190508181035f830152612b2b81612af2565b9050919050565b7f666c617368737761702072657061796d656e7420756e617661696c61626c65005f82015250565b5f612b66601f836126bc565b9150612b7182612b32565b602082019050919050565b5f6020820190508181035f830152612b9381612b5a565b9050919050565b5f604082019050612bad5f83018561268a565b612bba6020830184612742565b9392505050565b612bca81612439565b8114612bd4575f5ffd5b50565b5f81519050612be581612bc1565b92915050565b5f60208284031215612c0057612bff6123b1565b5b5f612c0d84828501612bd7565b91505092915050565b7f666c61736873776170207265706179206661696c6564000000000000000000005f82015250565b5f612c4a6016836126bc565b9150612c5582612c16565b602082019050919050565b5f6020820190508181035f830152612c7781612c3e565b9050919050565b7f4e487b71000000000000000000000000000000000000000000000000000000005f52601160045260245ffd5b5f612cb5826124c6565b9150612cc0836124c6565b9250828201905080821115612cd857612cd7612c7e565b5b92915050565b5f612ce8826124c6565b9150612cf3836124c6565b9250828202612d01816124c6565b91508282048414831517612d1857612d17612c7e565b5b5092915050565b7f4e487b71000000000000000000000000000000000000000000000000000000005f52602260045260245ffd5b5f6002820490506001821680612d6357607f821691505b602082108103612d7657612d75612d1f565b5b50919050565b7f63616e646964617465206d697373696e670000000000000000000000000000005f82015250565b5f612db06011836126bc565b9150612dbb82612d7c565b602082019050919050565b5f6020820190508181035f830152612ddd81612da4565b9050919050565b7f4e487b71000000000000000000000000000000000000000000000000000000005f52604160045260245ffd5b7f4e487b71000000000000000000000000000000000000000000000000000000005f52603260045260245ffd5b7f6e6f207265616c697a6564206173736574206761696e000000000000000000005f82015250565b5f612e726016836126bc565b9150612e7d82612e3e565b602082019050919050565b5f6020820190508181035f830152612e9f81612e66565b9050919050565b5f612eb0826124c6565b9150612ebb836124c6565b9250828203905081811115612ed357612ed2612c7e565b5b92915050565b7f4e487b71000000000000000000000000000000000000000000000000000000005f52601260045260245ffd5b5f612f10826124c6565b9150612f1b836124c6565b925082612f2b57612f2a612ed9565b5b828204905092915050565b5f819050919050565b612f4881612f36565b82525050565b5f604082019050612f615f83018561268a565b612f6e6020830184612f3f565b9392505050565b612f7e81612f36565b8114612f88575f5ffd5b50565b5f81519050612f9981612f75565b92915050565b5f60208284031215612fb457612fb36123b1565b5b5f612fc184828501612f8b565b91505092915050565b5f819050815f5260205f209050919050565b5f6020601f8301049050919050565b5f82821b905092915050565b5f600883026130267fffffffffffffffffffffffffffffffffffffffffffffffffffffffffffffffff82612feb565b6130308683612feb565b95508019841693508086168417925050509392505050565b5f819050919050565b5f61306b613066613061846124c6565b613048565b6124c6565b9050919050565b5f819050919050565b61308483613051565b61309861309082613072565b848454612ff7565b825550505050565b5f5f905090565b6130af6130a0565b6130ba81848461307b565b505050565b5b818110156130dd576130d25f826130a7565b6001810190506130c0565b5050565b601f821115613122576130f381612fca565b6130fc84612fdc565b8101602085101561310b578190505b61311f61311785612fdc565b8301826130bf565b50505b505050565b5f82821c905092915050565b5f6131425f1984600802613127565b1980831691505092915050565b5f61315a8383613133565b9150826002028217905092915050565b613173826126b2565b67ffffffffffffffff81111561318c5761318b612de4565b5b6131968254612d4c565b6131a18282856130e1565b5f60209050601f8311600181146131d2575f84156131c0578287015190505b6131ca858261314f565b865550613231565b601f1984166131e086612fca565b5f5b82811015613207578489015182556001820191506020850194506020810190506131e2565b868310156132245784890151613220601f891682613133565b8355505b6001600288020188555050505b505050505050565b5f60408201905061324c5f830185612742565b6132596020830184612444565b9392505050565b5f8151905061326e816124cf565b92915050565b5f60208284031215613289576132886123b1565b5b5f61329684828501613260565b91505092915050565b5f6060820190506132b25f830186612742565b6132bf6020830185612444565b6132cc6040830184612742565b949350505050565b5f5ffd5b6132e1826126da565b810181811067ffffffffffffffff82111715613300576132ff612de4565b5b80604052505050565b5f6133126123a8565b905061331e82826132d8565b919050565b5f5ffd5b5f67ffffffffffffffff82111561334157613340612de4565b5b602082029050602081019050919050565b5f61336461335f84613327565b613309565b9050808382526020820190506020840283018581111561338757613386612501565b5b835b818110156133b0578061339c8882613260565b845260208401935050602081019050613389565b5050509392505050565b5f82601f8301126133ce576133cd6124f9565b5b81516133de848260208601613352565b91505092915050565b5f5ffd5b5f67ffffffffffffffff82111561340557613404612de4565b5b61340e826126da565b9050602081019050919050565b5f61342d613428846133eb565b613309565b905082815260208101848484011115613449576134486133e7565b5b6134548482856126cc565b509392505050565b5f82601f8301126134705761346f6124f9565b5b815161348084826020860161341b565b91505092915050565b5f60a0828403121561349e5761349d6132d4565b5b6134a860a0613309565b90505f6134b784828501612a23565b5f8301525060206134ca84828501612a23565b602083015250604082015167ffffffffffffffff8111156134ee576134ed613323565b5b6134fa848285016133ba565b604083015250606082015167ffffffffffffffff81111561351e5761351d613323565b5b61352a848285016133ba565b606083015250608082015167ffffffffffffffff81111561354e5761354d613323565b5b61355a8482850161345c565b60808301525092915050565b5f6020828403121561357b5761357a6123b1565b5b5f82015167ffffffffffffffff811115613598576135976123b5565b5b6135a484828501613489565b91505092915050565b7f6d697373696e6720574554482f555344432070616972000000000000000000005f82015250565b5f6135e16016836126bc565b91506135ec826135ad565b602082019050919050565b5f6020820190508181035f83015261360e816135d5565b9050919050565b5f82825260208201905092915050565b7f01000000000000000000000000000000000000000000000000000000000000005f82015250565b5f613659600183613615565b915061366482613625565b602082019050919050565b5f6080820190506136825f830186612742565b61368f6020830185612742565b61369c604083018461268a565b81810360608301526136ad8161364d565b9050949350505050565b5f81519050919050565b5f81905092915050565b5f6136d5826136b7565b6136df81856136c1565b93506136ef8185602086016126cc565b80840191505092915050565b5f61370682846136cb565b915081905092915050565b61371a816124c6565b82525050565b5f61372a8261246c565b9050919050565b61373a81613720565b82525050565b5f60ff82169050919050565b61375581613740565b82525050565b61012082015f8201516137705f850182613711565b5060208201516137836020850182613731565b5060408201516137966040850182613711565b5060608201516137a96060850182613731565b5060808201516137bc6080850182613711565b5060a08201516137cf60a0850182613711565b5060c08201516137e260c0850182613711565b5060e08201516137f560e0850182613711565b5061010082015161380a61010085018261374c565b50505050565b5f81519050919050565b5f82825260208201905092915050565b5f819050602082019050919050565b6138428161248b565b82525050565b5f81519050919050565b5f82825260208201905092915050565b5f819050602082019050919050565b5f61387c8383613711565b60208301905092915050565b5f602082019050919050565b5f61389e82613848565b6138a88185613852565b93506138b383613862565b805f5b838110156138e35781516138ca8882613871565b97506138d583613888565b9250506001810190506138b6565b5085935050505092915050565b5f82825260208201905092915050565b5f61390a826136b7565b61391481856138f0565b93506139248185602086016126cc565b61392d816126da565b840191505092915050565b5f60a083015f83015161394d5f860182613839565b5060208301516139606020860182613839565b50604083015184820360408601526139788282613894565b915050606083015184820360608601526139928282613894565b915050608083015184820360808601526139ac8282613900565b9150508091505092915050565b5f6139c48383613938565b905092915050565b5f602082019050919050565b5f6139e282613810565b6139ec818561381a565b9350836020820285016139fe8561382a565b805f5b85811015613a395784840389528151613a1a85826139b9565b9450613a25836139cc565b925060208a01995050600181019050613a01565b50829750879550505050505092915050565b5f61016082019050613a5f5f83018661375b565b818103610120830152613a7281856139d8565b9050818103610140830152613a8781846139d8565b9050949350505050565b5f604082019050613aa45f830185612742565b613ab16020830184612742565b939250505056fe76696374696d20637265617465732056206174206c6f63616c20696e6465782069202d3e2061747461636b65722063726561746573206f70656e656420656d70747920737761707320756e74696c206f776e206c6f63616c20696e6465782069202d3e2061747461636b65722063616c6c732063616e63656c53776170496e74656e742856294c6976652073776170732065786973742c20627574206e6f207472616e7366657261626c65206e6f6e2d43727970746f50756e6b206e6674734f6e65206275636b6574206973206f70656e206f6e207468697320666f726b2e466f726b20736e617073686f7420686173207a65726f207265636f726465642073776170732c20736f206e6f2076696374696d206275636b657420657869737473207965742ea264697066735822122083819c3f4e487a26f7f5647b4c95da27b7cdc85cccee32ba206eb5d43c448cab64736f6c634300081e0033","linkReferences":{}},"methodIdentifiers":{"TARGET()":"cc1f2afa","WETH_TOKEN()":"37d277d4","executeOnOpportunity()":"3c2448ed","exploitPathUsed()":"d78c4281","failureReason()":"4f9522a4","hypothesisValidated()":"463defd1","onERC1155BatchReceived(address,address,uint256[],uint256[],bytes)":"bc197c81","onERC1155Received(address,address,uint256,uint256,bytes)":"f23a6e61","onERC721Received(address,address,uint256,bytes)":"150b7a02","profitAmount()":"5ff972cc","profitToken()":"49343624","supportsInterface(bytes4)":"01ffc9a7","uniswapV2Call(address,uint256,uint256,bytes)":"10d1e85c"},"id":0}