{"abi":[{"type":"constructor","inputs":[],"stateMutability":"nonpayable"},{"type":"function","name":"approve","inputs":[{"name":"","type":"address","internalType":"address"},{"name":"","type":"uint256","internalType":"uint256"}],"outputs":[{"name":"","type":"bool","internalType":"bool"}],"stateMutability":"pure"},{"type":"function","name":"balanceOf","inputs":[{"name":"","type":"address","internalType":"address"}],"outputs":[{"name":"","type":"uint256","internalType":"uint256"}],"stateMutability":"pure"},{"type":"function","name":"collateral","inputs":[],"outputs":[{"name":"","type":"address","internalType":"address"}],"stateMutability":"view"},{"type":"function","name":"collateralToken","inputs":[],"outputs":[{"name":"","type":"address","internalType":"address"}],"stateMutability":"view"},{"type":"function","name":"configure","inputs":[{"name":"collateral_","type":"address","internalType":"address"},{"name":"strike_","type":"address","internalType":"address"}],"outputs":[],"stateMutability":"nonpayable"},{"type":"function","name":"expiryTime","inputs":[],"outputs":[{"name":"","type":"uint256","internalType":"uint256"}],"stateMutability":"pure"},{"type":"function","name":"getTokenAmount","inputs":[{"name":"collateralAmount","type":"uint256","internalType":"uint256"}],"outputs":[{"name":"","type":"uint256","internalType":"uint256"}],"stateMutability":"pure"},{"type":"function","name":"mintTo","inputs":[{"name":"","type":"address","internalType":"address"},{"name":"","type":"uint256","internalType":"uint256"}],"outputs":[],"stateMutability":"nonpayable"},{"type":"function","name":"mintToPayable","inputs":[{"name":"","type":"address","internalType":"address"}],"outputs":[],"stateMutability":"payable"},{"type":"function","name":"strikeAsset","inputs":[],"outputs":[{"name":"","type":"address","internalType":"address"}],"stateMutability":"view"},{"type":"function","name":"strikeToken","inputs":[],"outputs":[{"name":"","type":"address","internalType":"address"}],"stateMutability":"view"},{"type":"function","name":"transfer","inputs":[{"name":"","type":"address","internalType":"address"},{"name":"","type":"uint256","internalType":"uint256"}],"outputs":[{"name":"","type":"bool","internalType":"bool"}],"stateMutability":"pure"},{"type":"function","name":"transferFrom","inputs":[{"name":"","type":"address","internalType":"address"},{"name":"","type":"address","internalType":"address"},{"name":"","type":"uint256","internalType":"uint256"}],"outputs":[{"name":"","type":"bool","internalType":"bool"}],"stateMutability":"pure"}],"bytecode":{"object":"0x608080604052346026575f80546001600160a01b03191630179055610282908161002b8239f35b5f80fdfe60806040526004361015610011575f80fd5b5f3560e01c8063095ea7b31461015457806317d69bc81461017457806323b872dd146101d9578063449a52f8146101c057806370a082311461019c5780638c3199a51461017457806399bc0aea14610159578063a9059cbb14610154578063b0df1cc71461013e578063b2016bd4146100fa578063c2507ac114610121578063d8dfeb45146100fa5763e470d5cf146100a8575f80fd5b346100f65760403660031901126100f6576100c1610207565b6100c961021d565b5f80546001600160a01b039384166001600160a01b03199182161790915560018054929093169116179055005b5f80fd5b346100f6575f3660031901126100f6575f546040516001600160a01b039091168152602090f35b346100f65760203660031901126100f65760206040516004358152f35b60203660031901126100f657610152610207565b005b610233565b346100f6575f3660031901126100f65760206040515f198152f35b346100f6575f3660031901126100f6576001546040516001600160a01b039091168152602090f35b346100f65760203660031901126100f6576101b5610207565b5060206040515f8152f35b346100f65760403660031901126100f657610152610207565b346100f65760603660031901126100f6576101f2610207565b506101fb61021d565b50602060405160018152f35b600435906001600160a01b03821682036100f657565b602435906001600160a01b03821682036100f657565b346100f65760403660031901126100f6576101fb61020756fea26469706673582212209304bf0a7a96ce21f73b0a85be60c62ed86f969036b6f0690abe896e969cd4d664736f6c634300081e0033","linkReferences":{}},"methodIdentifiers":{"approve(address,uint256)":"095ea7b3","balanceOf(address)":"70a08231","collateral()":"d8dfeb45","collateralToken()":"b2016bd4","configure(address,address)":"e470d5cf","expiryTime()":"99bc0aea","getTokenAmount(uint256)":"c2507ac1","mintTo(address,uint256)":"449a52f8","mintToPayable(address)":"b0df1cc7","strikeAsset()":"17d69bc8","strikeToken()":"8c3199a5","transfer(address,uint256)":"a9059cbb","transferFrom(address,address,uint256)":"23b872dd"},"id":0}