{"abi":[{"type":"function","name":"fill","inputs":[],"outputs":[],"stateMutability":"payable"}],"bytecode":{"object":"0x60808060405234601557610113908161001a8239f35b5f80fdfe608060405260043610156010575f80fd5b5f3560e01c63d9c55ce1146022575f80fd5b5f36600319011260d95734603257005b5f80808034335af13d1560d5573d67ffffffffffffffff811160c15760405190601f8101601f19908116603f0116820167ffffffffffffffff81118382101760c15760405281525f60203d92013e5b15608757005b60405162461bcd60e51b81526020600482015260126024820152711958da1bc81c995d1d5c9b8819985a5b195960721b6044820152606490fd5b634e487b7160e01b5f52604160045260245ffd5b6081565b5f80fdfea2646970667358221220a209c5aa9e0da1263795660ddc40ed81cecf3204290df425c40da31f83961a0364736f6c634300081e0033","linkReferences":{}},"methodIdentifiers":{"fill()":"d9c55ce1"},"id":0}