{"abi":[{"type":"constructor","inputs":[],"stateMutability":"nonpayable"},{"type":"function","name":"executeOnOpportunity","inputs":[],"outputs":[],"stateMutability":"nonpayable"},{"type":"function","name":"executed","inputs":[],"outputs":[{"name":"","type":"bool","internalType":"bool"}],"stateMutability":"view"},{"type":"function","name":"profitAmount","inputs":[],"outputs":[{"name":"","type":"uint256","internalType":"uint256"}],"stateMutability":"view"},{"type":"function","name":"profitToken","inputs":[],"outputs":[{"name":"","type":"address","internalType":"address"}],"stateMutability":"pure"}],"bytecode":{"object":"0x60808060405234601557610c38908161001a8239f35b5f80fdfe6080806040526004361015610012575f80fd5b5f3560e01c90816331a38c891461011c575080633c2448ed1461010257806349343624146100db57635ff972cc14610048575f80fd5b346100c4575f3660031901126100c4576040516370a0823160e01b81523060048201526020816024815f516020610be35f395f51905f525afa80156100d0575f90610099575b602090604051908152f35b506020813d6020116100c8575b816100b36020938361013a565b810103126100c4576020905161008e565b5f80fd5b3d91506100a6565b6040513d5f823e3d90fd5b346100c4575f3660031901126100c45760206040515f516020610be35f395f51905f528152f35b346100c4575f3660031901126100c45761011a610170565b005b346100c4575f3660031901126100c45760209060ff5f541615158152f35b90601f8019910116810190811067ffffffffffffffff82111761015c57604052565b634e487b7160e01b5f52604160045260245ffd5b5f5f5460ff81166105de5760ff19166001175f55604051636eb1769f60e11b815273fd0b4daa7ba535741e6b5ba28cba24f9a816e67e60048201525f516020610bc35f395f51905f5260248201526020816044815f516020610be35f395f51905f525afa9081156100d0575f916105ac575b506040516370a0823160e01b815273fd0b4daa7ba535741e6b5ba28cba24f9a816e67e60048201526020816024815f516020610be35f395f51905f525afa9081156100d0575f9161057a575b508082101561057357505b806104e5575b506040516370a0823160e01b81525f516020610bc35f395f51905f5260048201526020816024815f516020610be35f395f51905f525afa9081156103d75782916104b3575b5080610434575b506040516370a0823160e01b81525f516020610bc35f395f51905f5260048201526020816024815f516020610be35f395f51905f525afa9081156103d7578291610402575b50806102e3575b50506102e16105e2565b565b5f516020610bc35f395f51905f523b156103cb5760405163eb5625d960e01b81525f516020610be35f395f51905f526004820152306024820152604481018290528281606481835f516020610bc35f395f51905f525af180156103f7579083916103e2575b5050604051906323b872dd60e01b82525f516020610bc35f395f51905f5260048301523060248301526044820152602081606481855f516020610be35f395f51905f525af180156103d757156102d7576020813d6020116103cf575b816103b16020938361013a565b810103126103cb5751801515036103c857806102d7565b80fd5b5080fd5b3d91506103a4565b6040513d84823e3d90fd5b816103ec9161013a565b6103cb57815f610348565b6040513d85823e3d90fd5b90506020813d60201161042c575b8161041d6020938361013a565b810103126100c457515f6102d0565b3d9150610410565b5f516020610bc35f395f51905f523b156103cb576040519063d1660f9960e01b82525f516020610be35f395f51905f52600483015230602483015260448201528181606481835f516020610bc35f395f51905f525af180156103d75790829161049e575b5061028b565b816104a89161013a565b6103c857805f610498565b90506020813d6020116104dd575b816104ce6020938361013a565b810103126100c457515f610284565b3d91506104c1565b5f516020610bc35f395f51905f523b156100c4576040519063d9fc4b6160e01b82525f516020610be35f395f51905f52600483015273fd0b4daa7ba535741e6b5ba28cba24f9a816e67e602483015230604483015260648201525f81608481835f516020610bc35f395f51905f525af180156100d0571561023f5761056c91505f9061013a565b5f5f61023f565b9050610239565b90506020813d6020116105a4575b816105956020938361013a565b810103126100c457515f61022e565b3d9150610588565b90506020813d6020116105d6575b816105c76020938361013a565b810103126100c457515f6101e2565b3d91506105ba565b5050565b6105ea6107ec565b6001600160a01b03811680156105de5773c02aaa39b223fe8d0a0e5c4f27ead9083c756cc2146107a45761061e308261093f565b80156105de576106d4905f80604051602081019063095ea7b360e01b8252737a250d5630b4cf539739df2c5dacb4c659f2488d60248201528260448201526044815261066b60648261013a565b519082875af15061067a6107ad565b505f80604051602081019063095ea7b360e01b8252737a250d5630b4cf539739df2c5dacb4c659f2488d6024820152846044820152604481526106be60648261013a565b519082875af1506106cd6107ad565b50826109c4565b6106de308261093f565b806106ee575b50506102e161085f565b61079d915f80604051602081019063095ea7b360e01b825273d9e1ce17f2641f24ae83637ab66a2cca9c378b9f60248201528260448201526044815261073560648261013a565b519082855af1506107446107ad565b505f80604051602081019063095ea7b360e01b825273d9e1ce17f2641f24ae83637ab66a2cca9c378b9f60248201528560448201526044815261078860648261013a565b519082855af1506107976107ad565b50610ac3565b5f806106e4565b506102e161085f565b3d156107e7573d9067ffffffffffffffff821161015c57604051916107dc601f8201601f19166020018461013a565b82523d5f602084013e565b606090565b5f80604051602081019063124d0d8960e21b82526004815261080f60248261013a565b5190305afa61081c6107ad565b90158015610854575b61084f576020818051810103126100c457602001516001600160a01b038116908190036100c45790565b505f90565b506020815110610825565b610868306108bd565b80156108ba575f80916040516020810191632e1a7d4d60e01b835260248201526024815261089760448261013a565b51908273c02aaa39b223fe8d0a0e5c4f27ead9083c756cc25af1506108ba6107ad565b50565b5f809160405160208101916370a0823160e01b835260018060a01b03166024820152602481526108ee60448261013a565b519073c02aaa39b223fe8d0a0e5c4f27ead9083c756cc25afa61090f6107ad565b90158015610934575b61084f57602081519181808201938492010103126100c4575190565b506020815110610918565b906001600160a01b0382161561098d575f91829160405160208101916370a0823160e01b835260018060a01b031660248201526024815261098160448261013a565b51915afa61090f6107ad565b50505f90565b8051156109a05760200190565b634e487b7160e01b5f52603260045260245ffd5b8051600110156109a05760400190565b9080156105de57604051916109da60608461013a565b60028352602083019060403683376109f184610993565b6001600160a01b03909116905273c02aaa39b223fe8d0a0e5c4f27ead9083c756cc2610a1c846109b4565b52604051916020830193635c11d79560e01b855260c484019160248501525f604485015260a060648501525180915260e4830191905f5b818110610aa4575050509181610a815f949385943060848301524260a483015203601f19810183528261013a565b519082737a250d5630b4cf539739df2c5dacb4c659f2488d5af1506108ba6107ad565b82516001600160a01b0316845260209384019390920191600101610a53565b9080156105de5760405191610ad960608461013a565b6002835260208301906040368337610af084610993565b6001600160a01b03909116905273c02aaa39b223fe8d0a0e5c4f27ead9083c756cc2610b1b846109b4565b52604051916020830193635c11d79560e01b855260c484019160248501525f604485015260a060648501525180915260e4830191905f5b818110610ba3575050509181610b805f949385943060848301524260a483015203601f19810183528261013a565b51908273d9e1ce17f2641f24ae83637ab66a2cca9c378b9f5af1506108ba6107ad565b82516001600160a01b0316845260209384019390920191600101610b5256fe0000000000000000000000005f58058c0ec971492166763c8c22632b583f667f00000000000000000000000028dee01d53fed0edf5f6e310bf8ef9311513ae40a2646970667358221220306387751e6075870e86d37298a75dced053304d8403db1248b611131bd671ea64736f6c634300081e0033","linkReferences":{}},"methodIdentifiers":{"executeOnOpportunity()":"3c2448ed","executed()":"31a38c89","profitAmount()":"5ff972cc","profitToken()":"49343624"},"id":0}