{"abi":[{"type":"constructor","inputs":[],"stateMutability":"nonpayable"},{"type":"receive","stateMutability":"payable"},{"type":"function","name":"executeOnOpportunity","inputs":[],"outputs":[],"stateMutability":"nonpayable"},{"type":"function","name":"lastError","inputs":[],"outputs":[{"name":"","type":"bytes","internalType":"bytes"}],"stateMutability":"view"},{"type":"function","name":"profitAmount","inputs":[],"outputs":[{"name":"","type":"uint256","internalType":"uint256"}],"stateMutability":"view"},{"type":"function","name":"profitToken","inputs":[],"outputs":[{"name":"","type":"address","internalType":"address"}],"stateMutability":"pure"},{"type":"function","name":"status","inputs":[],"outputs":[{"name":"","type":"uint256","internalType":"uint256"}],"stateMutability":"view"},{"type":"function","name":"uniswapV2Call","inputs":[{"name":"","type":"address","internalType":"address"},{"name":"amount0","type":"uint256","internalType":"uint256"},{"name":"amount1","type":"uint256","internalType":"uint256"},{"name":"","type":"bytes","internalType":"bytes"}],"outputs":[],"stateMutability":"nonpayable"}],"bytecode":{"object":"0x6080604052348015600e575f5ffd5b506125ff8061001c5f395ff3fe608060405260043610610058575f3560e01c806310d1e85c14610063578063200d2ed21461008b57806329f0de3f146100b55780633c2448ed146100df57806349343624146100f55780635ff972cc1461011f5761005f565b3661005f57005b5f5ffd5b34801561006e575f5ffd5b5061008960048036038101906100849190611bf5565b610149565b005b348015610096575f5ffd5b5061009f61067a565b6040516100ac9190611c88565b60405180910390f35b3480156100c0575f5ffd5b506100c961067f565b6040516100d69190611d11565b60405180910390f35b3480156100ea575f5ffd5b506100f361070b565b005b348015610100575f5ffd5b506101096109f8565b6040516101169190611d40565b60405180910390f35b34801561012a575f5ffd5b50610133610a13565b6040516101409190611c88565b60405180910390f35b73b4e16d0168e52d35cacd2c6185b44281ec28c9dc73ffffffffffffffffffffffffffffffffffffffff163373ffffffffffffffffffffffffffffffffffffffff16146101cb576040517f08c379a00000000000000000000000000000000000000000000000000000000081526004016101c290611db3565b60405180910390fd5b5f5f85116101d957836101db565b845b9050600254811480156101ed57505f81115b61022c576040517f08c379a000000000000000000000000000000000000000000000000000000000815260040161022390611e1b565b60405180910390fd5b5f73bdb515028a6fa6cd1634b5a9651184494abfd336905061027773a0b86991c6218b36c1d19d4a2e9eb0ce3606eb4873bdb515028a6fa6cd1634b5a9651184494abfd33684610aa5565b5f8173ffffffffffffffffffffffffffffffffffffffff166370a08231306040518263ffffffff1660e01b81526004016102b19190611d40565b602060405180830381865afa1580156102cc573d5f5f3e3d5ffd5b505050506040513d601f19601f820116820180604052508101906102f09190611e4d565b90508173ffffffffffffffffffffffffffffffffffffffff16636e553f6584306040518363ffffffff1660e01b815260040161032d929190611e78565b6020604051808303815f875af192505050801561036857506040513d601f19601f820116820180604052508101906103659190611e4d565b60015b6103e7573d805f8114610396576040519150601f19603f3d011682016040523d82523d5f602084013e61039b565b606091505b5080600190816103ab91906120c9565b506040517f08c379a00000000000000000000000000000000000000000000000000000000081526004016103de906121e2565b60405180910390fd5b5f828473ffffffffffffffffffffffffffffffffffffffff166370a08231306040518263ffffffff1660e01b81526004016104229190611d40565b602060405180830381865afa15801561043d573d5f5f3e3d5ffd5b505050506040513d601f19601f820116820180604052508101906104619190611e4d565b61046b919061222d565b90505f81116104af576040517f08c379a00000000000000000000000000000000000000000000000000000000081526004016104a6906122aa565b60405180910390fd5b50505f6104bb84610bf4565b90508073a0b86991c6218b36c1d19d4a2e9eb0ce3606eb4873ffffffffffffffffffffffffffffffffffffffff166370a08231306040518263ffffffff1660e01b815260040161050b9190611d40565b602060405180830381865afa158015610526573d5f5f3e3d5ffd5b505050506040513d601f19601f8201168201806040525081019061054a9190611e4d565b1015610635575f6105f18473a0b86991c6218b36c1d19d4a2e9eb0ce3606eb4873ffffffffffffffffffffffffffffffffffffffff166370a08231306040518263ffffffff1660e01b81526004016105a29190611d40565b602060405180830381865afa1580156105bd573d5f5f3e3d5ffd5b505050506040513d601f19601f820116820180604052508101906105e19190611e4d565b846105ec919061222d565b610c23565b905080610633576040517f08c379a000000000000000000000000000000000000000000000000000000000815260040161062a90612312565b60405180910390fd5b505b61066873a0b86991c6218b36c1d19d4a2e9eb0ce3606eb4873b4e16d0168e52d35cacd2c6185b44281ec28c9dc83610aa5565b5f600281905550505050505050505050565b5f5481565b6001805461068c90611ef9565b80601f01602080910402602001604051908101604052809291908181526020018280546106b890611ef9565b80156107035780601f106106da57610100808354040283529160200191610703565b820191905f5260205f20905b8154815290600101906020018083116106e657829003601f168201915b505050505081565b5f73bdb515028a6fa6cd1634b5a9651184494abfd33690505f8173ffffffffffffffffffffffffffffffffffffffff166338d52e0f6040518163ffffffff1660e01b8152600401602060405180830381865afa15801561076d573d5f5f3e3d5ffd5b505050506040513d601f19601f820116820180604052508101906107919190612344565b90505f5f8190555060015f6107a69190611aa7565b5f8273ffffffffffffffffffffffffffffffffffffffff16633544a8646040518163ffffffff1660e01b8152600401602060405180830381865afa1580156107f0573d5f5f3e3d5ffd5b505050506040513d601f19601f820116820180604052508101906108149190612344565b90505f73ffffffffffffffffffffffffffffffffffffffff168173ffffffffffffffffffffffffffffffffffffffff161415801561085957506108578130611155565b155b1561086d5760025f819055505050506109f6565b610877838361121c565b5f8373ffffffffffffffffffffffffffffffffffffffff166370a08231306040518263ffffffff1660e01b81526004016108b19190611d40565b602060405180830381865afa1580156108cc573d5f5f3e3d5ffd5b505050506040513d601f19601f820116820180604052508101906108f09190611e4d565b11156109055760015f819055505050506109f6565b73a0b86991c6218b36c1d19d4a2e9eb0ce3606eb4873ffffffffffffffffffffffffffffffffffffffff168273ffffffffffffffffffffffffffffffffffffffff160361095657610955836114c2565b5b5f8373ffffffffffffffffffffffffffffffffffffffff166370a08231306040518263ffffffff1660e01b81526004016109909190611d40565b602060405180830381865afa1580156109ab573d5f5f3e3d5ffd5b505050506040513d601f19601f820116820180604052508101906109cf9190611e4d565b11156109e15760015f819055506109f2565b5f5f54036109f15760045f819055505b5b5050505b565b5f73bdb515028a6fa6cd1634b5a9651184494abfd336905090565b5f73bdb515028a6fa6cd1634b5a9651184494abfd33673ffffffffffffffffffffffffffffffffffffffff166370a08231306040518263ffffffff1660e01b8152600401610a619190611d40565b602060405180830381865afa158015610a7c573d5f5f3e3d5ffd5b505050506040513d601f19601f82011682018060405250810190610aa09190611e4d565b905090565b5f5f8473ffffffffffffffffffffffffffffffffffffffff1663a9059cbb60e01b8585604051602401610ad992919061236f565b604051602081830303815290604052907bffffffffffffffffffffffffffffffffffffffffffffffffffffffff19166020820180517bffffffffffffffffffffffffffffffffffffffffffffffffffffffff8381831617835250505050604051610b4391906123d0565b5f604051808303815f865af19150503d805f8114610b7c576040519150601f19603f3d011682016040523d82523d5f602084013e610b81565b606091505b5091509150818015610bae57505f81511480610bad575080806020019051810190610bac919061241b565b5b5b610bed576040517f08c379a0000000000000000000000000000000000000000000000000000000008152600401610be490612490565b60405180910390fd5b5050505050565b5f60016103e56103e884610c0891906124ae565b610c12919061251c565b610c1c919061254c565b9050919050565b5f5f8373ffffffffffffffffffffffffffffffffffffffff1663ac7a1b5b6040518163ffffffff1660e01b8152600401602060405180830381865afa158015610c6e573d5f5f3e3d5ffd5b505050506040513d601f19601f82011682018060405250810190610c929190611e4d565b90505f8103610cab5760065f819055505f91505061114f565b5f8373a0b86991c6218b36c1d19d4a2e9eb0ce3606eb4873ffffffffffffffffffffffffffffffffffffffff166370a08231306040518263ffffffff1660e01b8152600401610cfa9190611d40565b602060405180830381865afa158015610d15573d5f5f3e3d5ffd5b505050506040513d601f19601f82011682018060405250810190610d399190611e4d565b610d43919061254c565b90505f5f90505b60108110156110b3578173a0b86991c6218b36c1d19d4a2e9eb0ce3606eb4873ffffffffffffffffffffffffffffffffffffffff166370a08231306040518263ffffffff1660e01b8152600401610da19190611d40565b602060405180830381865afa158015610dbc573d5f5f3e3d5ffd5b505050506040513d601f19601f82011682018060405250810190610de09190611e4d565b10610df1576001935050505061114f565b5f8673ffffffffffffffffffffffffffffffffffffffff166370a08231306040518263ffffffff1660e01b8152600401610e2b9190611d40565b602060405180830381865afa158015610e46573d5f5f3e3d5ffd5b505050506040513d601f19601f82011682018060405250810190610e6a9190611e4d565b90505f8103610e865760065f819055505f94505050505061114f565b5f73a0b86991c6218b36c1d19d4a2e9eb0ce3606eb4873ffffffffffffffffffffffffffffffffffffffff166370a08231306040518263ffffffff1660e01b8152600401610ed49190611d40565b602060405180830381865afa158015610eef573d5f5f3e3d5ffd5b505050506040513d601f19601f82011682018060405250810190610f139190611e4d565b84610f1e919061222d565b90505f8873ffffffffffffffffffffffffffffffffffffffff166307a2d13a846040518263ffffffff1660e01b8152600401610f5a9190611c88565b602060405180830381865afa158015610f75573d5f5f3e3d5ffd5b505050506040513d601f19601f82011682018060405250810190610f999190611e4d565b90505f8103610fb75760065f819055505f965050505050505061114f565b5f82905081811115610fc7578190505b86811115610fd3578690505b8973ffffffffffffffffffffffffffffffffffffffff1662f714ce82306040518363ffffffff1660e01b815260040161100d929190611e78565b6020604051808303815f875af192505050801561104857506040513d601f19601f820116820180604052508101906110459190611e4d565b60015b6110a3573d805f8114611076576040519150601f19603f3d011682016040523d82523d5f602084013e61107b565b606091505b50806001908161108b91906120c9565b5060065f819055505f9850505050505050505061114f565b5050505050806001019050610d4a565b5060065f819055508073a0b86991c6218b36c1d19d4a2e9eb0ce3606eb4873ffffffffffffffffffffffffffffffffffffffff166370a08231306040518263ffffffff1660e01b81526004016111099190611d40565b602060405180830381865afa158015611124573d5f5f3e3d5ffd5b505050506040513d601f19601f820116820180604052508101906111489190611e4d565b1015925050505b92915050565b5f5f73ffffffffffffffffffffffffffffffffffffffff168373ffffffffffffffffffffffffffffffffffffffff1603611191575f9050611216565b8273ffffffffffffffffffffffffffffffffffffffff166364138230836040518263ffffffff1660e01b81526004016111ca9190611d40565b6020604051808303815f875af192505050801561120557506040513d601f19601f82011682018060405250810190611202919061241b565b60015b611211575f9050611216565b809150505b92915050565b5f8273ffffffffffffffffffffffffffffffffffffffff16636083e59a6040518163ffffffff1660e01b8152600401602060405180830381865afa158015611266573d5f5f3e3d5ffd5b505050506040513d601f19601f8201168201806040525081019061128a9190611e4d565b90505f5f90505b60088110156114bb575f6112a4846119ac565b90505f81036112b5575050506114be565b5f819050838111156112c5578390505b5f81036112d557505050506114be565b5f8673ffffffffffffffffffffffffffffffffffffffff166370a08231306040518263ffffffff1660e01b815260040161130f9190611d40565b602060405180830381865afa15801561132a573d5f5f3e3d5ffd5b505050506040513d601f19601f8201168201806040525081019061134e9190611e4d565b90508673ffffffffffffffffffffffffffffffffffffffff16636e553f6583306040518363ffffffff1660e01b815260040161138b929190611e78565b6020604051808303815f875af19250505080156113c657506040513d601f19601f820116820180604052508101906113c39190611e4d565b60015b61141c573d805f81146113f4576040519150601f19603f3d011682016040523d82523d5f602084013e6113f9565b606091505b5060035f81905550806001908161141091906120c9565b505050505050506114be565b818873ffffffffffffffffffffffffffffffffffffffff166370a08231306040518263ffffffff1660e01b81526004016114569190611d40565b602060405180830381865afa158015611471573d5f5f3e3d5ffd5b505050506040513d601f19601f820116820180604052508101906114959190611e4d565b116114ac5760045f819055505050505050506114be565b50505050806001019050611291565b50505b5050565b5f73b4e16d0168e52d35cacd2c6185b44281ec28c9dc905073a0b86991c6218b36c1d19d4a2e9eb0ce3606eb4873ffffffffffffffffffffffffffffffffffffffff168173ffffffffffffffffffffffffffffffffffffffff16630dfe16816040518163ffffffff1660e01b8152600401602060405180830381865afa15801561154e573d5f5f3e3d5ffd5b505050506040513d601f19601f820116820180604052508101906115729190612344565b73ffffffffffffffffffffffffffffffffffffffff1614158015611642575073a0b86991c6218b36c1d19d4a2e9eb0ce3606eb4873ffffffffffffffffffffffffffffffffffffffff168173ffffffffffffffffffffffffffffffffffffffff1663d21220a76040518163ffffffff1660e01b8152600401602060405180830381865afa158015611605573d5f5f3e3d5ffd5b505050506040513d601f19601f820116820180604052508101906116299190612344565b73ffffffffffffffffffffffffffffffffffffffff1614155b156116545760055f81905550506119a9565b5f64e8d4a5100090505f8373ffffffffffffffffffffffffffffffffffffffff16636083e59a6040518163ffffffff1660e01b8152600401602060405180830381865afa1580156116a7573d5f5f3e3d5ffd5b505050506040513d601f19601f820116820180604052508101906116cb9190611e4d565b9050808211156116d9578091505b5f82036116ef5760055f819055505050506119a9565b816002819055505f73a0b86991c6218b36c1d19d4a2e9eb0ce3606eb4873ffffffffffffffffffffffffffffffffffffffff168473ffffffffffffffffffffffffffffffffffffffff16630dfe16816040518163ffffffff1660e01b8152600401602060405180830381865afa15801561176b573d5f5f3e3d5ffd5b505050506040513d601f19601f8201168201806040525081019061178f9190612344565b73ffffffffffffffffffffffffffffffffffffffff161490505f5f73b4e16d0168e52d35cacd2c6185b44281ec28c9dc73ffffffffffffffffffffffffffffffffffffffff1663022c0d9f60e01b846117e8575f6117ea565b865b856117f557876117f7565b5f5b306040518060400160405280600d81526020017f666c6173682d70726566756e6400000000000000000000000000000000000000815250604051602401611841949392919061257f565b604051602081830303815290604052907bffffffffffffffffffffffffffffffffffffffffffffffffffffffff19166020820180517bffffffffffffffffffffffffffffffffffffffffffffffffffffffff83818316178352505050506040516118ab91906123d0565b5f604051808303815f865af19150503d805f81146118e4576040519150601f19603f3d011682016040523d82523d5f602084013e6118e9565b606091505b50915091508161191c5760055f81905550806001908161190991906120c9565b505f6002819055505050505050506119a9565b5f8773ffffffffffffffffffffffffffffffffffffffff166370a08231306040518263ffffffff1660e01b81526004016119569190611d40565b602060405180830381865afa158015611971573d5f5f3e3d5ffd5b505050506040513d601f19601f820116820180604052508101906119959190611e4d565b036119a25760045f819055505b5050505050505b50565b5f5f73ffffffffffffffffffffffffffffffffffffffff168273ffffffffffffffffffffffffffffffffffffffff1603611a135773bdb515028a6fa6cd1634b5a9651184494abfd33673ffffffffffffffffffffffffffffffffffffffff16319050611aa2565b8173ffffffffffffffffffffffffffffffffffffffff166370a0823173bdb515028a6fa6cd1634b5a9651184494abfd3366040518263ffffffff1660e01b8152600401611a609190611d40565b602060405180830381865afa158015611a7b573d5f5f3e3d5ffd5b505050506040513d601f19601f82011682018060405250810190611a9f9190611e4d565b90505b919050565b508054611ab390611ef9565b5f825580601f10611ac45750611ae1565b601f0160209004905f5260205f2090810190611ae09190611ae4565b5b50565b5b80821115611afb575f815f905550600101611ae5565b5090565b5f5ffd5b5f5ffd5b5f73ffffffffffffffffffffffffffffffffffffffff82169050919050565b5f611b3082611b07565b9050919050565b611b4081611b26565b8114611b4a575f5ffd5b50565b5f81359050611b5b81611b37565b92915050565b5f819050919050565b611b7381611b61565b8114611b7d575f5ffd5b50565b5f81359050611b8e81611b6a565b92915050565b5f5ffd5b5f5ffd5b5f5ffd5b5f5f83601f840112611bb557611bb4611b94565b5b8235905067ffffffffffffffff811115611bd257611bd1611b98565b5b602083019150836001820283011115611bee57611bed611b9c565b5b9250929050565b5f5f5f5f5f60808688031215611c0e57611c0d611aff565b5b5f611c1b88828901611b4d565b9550506020611c2c88828901611b80565b9450506040611c3d88828901611b80565b935050606086013567ffffffffffffffff811115611c5e57611c5d611b03565b5b611c6a88828901611ba0565b92509250509295509295909350565b611c8281611b61565b82525050565b5f602082019050611c9b5f830184611c79565b92915050565b5f81519050919050565b5f82825260208201905092915050565b8281835e5f83830152505050565b5f601f19601f8301169050919050565b5f611ce382611ca1565b611ced8185611cab565b9350611cfd818560208601611cbb565b611d0681611cc9565b840191505092915050565b5f6020820190508181035f830152611d298184611cd9565b905092915050565b611d3a81611b26565b82525050565b5f602082019050611d535f830184611d31565b92915050565b5f82825260208201905092915050565b7f696e76616c69642d7061697200000000000000000000000000000000000000005f82015250565b5f611d9d600c83611d59565b9150611da882611d69565b602082019050919050565b5f6020820190508181035f830152611dca81611d91565b9050919050565b7f696e76616c69642d626f72726f770000000000000000000000000000000000005f82015250565b5f611e05600e83611d59565b9150611e1082611dd1565b602082019050919050565b5f6020820190508181035f830152611e3281611df9565b9050919050565b5f81519050611e4781611b6a565b92915050565b5f60208284031215611e6257611e61611aff565b5b5f611e6f84828501611e39565b91505092915050565b5f604082019050611e8b5f830185611c79565b611e986020830184611d31565b9392505050565b7f4e487b71000000000000000000000000000000000000000000000000000000005f52604160045260245ffd5b7f4e487b71000000000000000000000000000000000000000000000000000000005f52602260045260245ffd5b5f6002820490506001821680611f1057607f821691505b602082108103611f2357611f22611ecc565b5b50919050565b5f819050815f5260205f209050919050565b5f6020601f8301049050919050565b5f82821b905092915050565b5f60088302611f857fffffffffffffffffffffffffffffffffffffffffffffffffffffffffffffffff82611f4a565b611f8f8683611f4a565b95508019841693508086168417925050509392505050565b5f819050919050565b5f611fca611fc5611fc084611b61565b611fa7565b611b61565b9050919050565b5f819050919050565b611fe383611fb0565b611ff7611fef82611fd1565b848454611f56565b825550505050565b5f5f905090565b61200e611fff565b612019818484611fda565b505050565b5b8181101561203c576120315f82612006565b60018101905061201f565b5050565b601f8211156120815761205281611f29565b61205b84611f3b565b8101602085101561206a578190505b61207e61207685611f3b565b83018261201e565b50505b505050565b5f82821c905092915050565b5f6120a15f1984600802612086565b1980831691505092915050565b5f6120b98383612092565b9150826002028217905092915050565b6120d282611ca1565b67ffffffffffffffff8111156120eb576120ea611e9f565b5b6120f58254611ef9565b612100828285612040565b5f60209050601f831160018114612131575f841561211f578287015190505b61212985826120ae565b865550612190565b601f19841661213f86611f29565b5f5b8281101561216657848901518255600182019150602085019450602081019050612141565b86831015612183578489015161217f601f891682612092565b8355505b6001600288020188555050505b505050505050565b7f6465706f7369742d6661696c65640000000000000000000000000000000000005f82015250565b5f6121cc600e83611d59565b91506121d782612198565b602082019050919050565b5f6020820190508181035f8301526121f9816121c0565b9050919050565b7f4e487b71000000000000000000000000000000000000000000000000000000005f52601160045260245ffd5b5f61223782611b61565b915061224283611b61565b925082820390508181111561225a57612259612200565b5b92915050565b7f6e6f2d6d696e7465642d736861726573000000000000000000000000000000005f82015250565b5f612294601083611d59565b915061229f82612260565b602082019050919050565b5f6020820190508181035f8301526122c181612288565b9050919050565b7f72657061792d77697468647261772d6661696c656400000000000000000000005f82015250565b5f6122fc601583611d59565b9150612307826122c8565b602082019050919050565b5f6020820190508181035f830152612329816122f0565b9050919050565b5f8151905061233e81611b37565b92915050565b5f6020828403121561235957612358611aff565b5b5f61236684828501612330565b91505092915050565b5f6040820190506123825f830185611d31565b61238f6020830184611c79565b9392505050565b5f81905092915050565b5f6123aa82611ca1565b6123b48185612396565b93506123c4818560208601611cbb565b80840191505092915050565b5f6123db82846123a0565b915081905092915050565b5f8115159050919050565b6123fa816123e6565b8114612404575f5ffd5b50565b5f81519050612415816123f1565b92915050565b5f602082840312156124305761242f611aff565b5b5f61243d84828501612407565b91505092915050565b7f7472616e736665722d6661696c656400000000000000000000000000000000005f82015250565b5f61247a600f83611d59565b915061248582612446565b602082019050919050565b5f6020820190508181035f8301526124a78161246e565b9050919050565b5f6124b882611b61565b91506124c383611b61565b92508282026124d181611b61565b915082820484148315176124e8576124e7612200565b5b5092915050565b7f4e487b71000000000000000000000000000000000000000000000000000000005f52601260045260245ffd5b5f61252682611b61565b915061253183611b61565b925082612541576125406124ef565b5b828204905092915050565b5f61255682611b61565b915061256183611b61565b925082820190508082111561257957612578612200565b5b92915050565b5f6080820190506125925f830187611c79565b61259f6020830186611c79565b6125ac6040830185611d31565b81810360608301526125be8184611cd9565b90509594505050505056fea26469706673582212207ecece7e2bdf69c91774cfe3dddcf7f7ddca969176ecc8645d949e8b6e37a22a64736f6c634300081e0033","linkReferences":{}},"methodIdentifiers":{"executeOnOpportunity()":"3c2448ed","lastError()":"29f0de3f","profitAmount()":"5ff972cc","profitToken()":"49343624","status()":"200d2ed2","uniswapV2Call(address,uint256,uint256,bytes)":"10d1e85c"},"id":0}