{"abi":[{"type":"function","name":"internalCash","inputs":[],"outputs":[{"name":"","type":"uint256","internalType":"uint256"}],"stateMutability":"view"}],"bytecode":{"object":"0x6080604052348015600f57600080fd5b5060848061001e6000396000f3fe6080604052348015600f57600080fd5b506004361060285760003560e01c806322abdbf514602d575b600080fd5b60336049565b6040518082815260200191505060405180910390f35b6000548156fea265627a7a72315820fc99aac56072f27b7d0df5f9d8822bda93fafb42e46314b5888952614bcdbf2b64736f6c63430005100032","linkReferences":{}},"methodIdentifiers":{"internalCash()":"22abdbf5"},"id":1}