{"abi":[{"type":"constructor","inputs":[],"stateMutability":"nonpayable"},{"type":"function","name":"bridgeOwner","inputs":[],"outputs":[{"name":"","type":"address","internalType":"address"}],"stateMutability":"view"},{"type":"function","name":"bridgeOwnerCallFeasible","inputs":[],"outputs":[{"name":"","type":"bool","internalType":"bool"}],"stateMutability":"view"},{"type":"function","name":"burnAmountAttempted","inputs":[],"outputs":[{"name":"","type":"uint256","internalType":"uint256"}],"stateMutability":"view"},{"type":"function","name":"burnStageAttempted","inputs":[],"outputs":[{"name":"","type":"bool","internalType":"bool"}],"stateMutability":"view"},{"type":"function","name":"burnStageSucceeded","inputs":[],"outputs":[{"name":"","type":"bool","internalType":"bool"}],"stateMutability":"view"},{"type":"function","name":"canImplementInterfaceForAddress","inputs":[{"name":"interfaceHash","type":"bytes32","internalType":"bytes32"},{"name":"","type":"address","internalType":"address"}],"outputs":[{"name":"","type":"bytes32","internalType":"bytes32"}],"stateMutability":"pure"},{"type":"function","name":"endingBalance","inputs":[],"outputs":[{"name":"","type":"uint256","internalType":"uint256"}],"stateMutability":"view"},{"type":"function","name":"executeOnOpportunity","inputs":[],"outputs":[],"stateMutability":"nonpayable"},{"type":"function","name":"executeOperation","inputs":[{"name":"assets","type":"address[]","internalType":"address[]"},{"name":"amounts","type":"uint256[]","internalType":"uint256[]"},{"name":"premiums","type":"uint256[]","internalType":"uint256[]"},{"name":"initiator","type":"address","internalType":"address"},{"name":"","type":"bytes","internalType":"bytes"}],"outputs":[{"name":"","type":"bool","internalType":"bool"}],"stateMutability":"nonpayable"},{"type":"function","name":"executionInfeasible","inputs":[],"outputs":[{"name":"","type":"bool","internalType":"bool"}],"stateMutability":"view"},{"type":"function","name":"lastMintRevertData","inputs":[],"outputs":[{"name":"","type":"bytes","internalType":"bytes"}],"stateMutability":"view"},{"type":"function","name":"mintStageAttempted","inputs":[],"outputs":[{"name":"","type":"bool","internalType":"bool"}],"stateMutability":"view"},{"type":"function","name":"mintStageSucceeded","inputs":[],"outputs":[{"name":"","type":"bool","internalType":"bool"}],"stateMutability":"view"},{"type":"function","name":"profitAmount","inputs":[],"outputs":[{"name":"","type":"uint256","internalType":"uint256"}],"stateMutability":"view"},{"type":"function","name":"profitToken","inputs":[],"outputs":[{"name":"","type":"address","internalType":"address"}],"stateMutability":"pure"},{"type":"function","name":"requestedMintAmount","inputs":[],"outputs":[{"name":"","type":"uint256","internalType":"uint256"}],"stateMutability":"view"},{"type":"function","name":"startingBalance","inputs":[],"outputs":[{"name":"","type":"uint256","internalType":"uint256"}],"stateMutability":"view"},{"type":"function","name":"tokensReceived","inputs":[{"name":"","type":"address","internalType":"address"},{"name":"","type":"address","internalType":"address"},{"name":"","type":"address","internalType":"address"},{"name":"","type":"uint256","internalType":"uint256"},{"name":"","type":"bytes","internalType":"bytes"},{"name":"","type":"bytes","internalType":"bytes"}],"outputs":[],"stateMutability":"pure"},{"type":"function","name":"tokensReceivedAfter","inputs":[],"outputs":[{"name":"","type":"uint256","internalType":"uint256"}],"stateMutability":"view"},{"type":"function","name":"tokensReceivedBefore","inputs":[],"outputs":[{"name":"","type":"uint256","internalType":"uint256"}],"stateMutability":"view"},{"type":"function","name":"tokensSentAfter","inputs":[],"outputs":[{"name":"","type":"uint256","internalType":"uint256"}],"stateMutability":"view"},{"type":"function","name":"tokensSentBefore","inputs":[],"outputs":[{"name":"","type":"uint256","internalType":"uint256"}],"stateMutability":"view"}],"bytecode":{"object":"0x6080806040523460c957731820a4b7618bde71dce8cdc73aab6c95905fad243b1560c9576329965a1d60e01b815230600482018190527fb281fc8c12954d22544db45de3159a39272895b169a852b314f9cc762e44c53b602483015260448201525f8160648183731820a4b7618bde71dce8cdc73aab6c95905fad245af1801560be576095575b60405161407e90816100ce8239f35b6001600160401b03811160aa576040525f6086565b634e487b7160e01b5f52604160045260245ffd5b6040513d5f823e3d90fd5b5f80fdfe6080806040526004361015610012575f80fd5b5f905f3560e01c90816223de29146117c8578163249cb3fa146117585750806329faed671461173b5780633c2448ed1461172157806349343624146116fa5780634d52d6b2146116d25780634f4fbd72146116ad578063552fa8401461168857806358ff61b8146116645780635ff972cc14611648578063864dbfd91461162b578063920f5c841461030857806394bd2d3b146102ea5780639c5ac2c5146102cc578063adea533a146102ae578063b606d092146101da578063b6fb7e46146101bc578063dfc16fdf1461019e578063f302589914610180578063f54a20b31461015d578063f5beda8d146101375763fc9f85f21461010f575f80fd5b34610134578060031936011261013457602060ff600c5460081c166040519015158152f35b80fd5b5034610134578060031936011261013457602060ff600c5460101c166040519015158152f35b5034610134578060031936011261013457602060ff600c54166040519015158152f35b50346101345780600319360112610134576020600654604051908152f35b50346101345780600319360112610134576020600954604051908152f35b50346101345780600319360112610134576020600254604051908152f35b50346101345780600319360112610134576040519080600d54906101fd826118d3565b8085529160018116908115610287575060011461023d575b610239846102258186038261190b565b604051918291602083526020830190611940565b0390f35b600d81525f5160206140095f395f51905f52939250905b80821061026d5750909150810160200161022582610215565b919260018160209254838588010152019101909291610254565b60ff191660208087019190915292151560051b850190920192506102259150839050610215565b50346101345780600319360112610134576020600a54604051908152f35b50346101345780600319360112610134576020600b54604051908152f35b50346101345780600319360112610134576020600154604051908152f35b5034610bff5760a0366003190112610bff576004356001600160401b038111610bff576103399036906004016118a3565b906024356001600160401b038111610bff576103599036906004016118a3565b6044356001600160401b038111610bff576103789036906004016118a3565b9490936064356001600160a01b03811690819003610bff576084356001600160401b038111610bff576103af903690600401611876565b5050737d2768de32b0b80b7a3454c06bdac94a69ddc7a933036115f25730036115b657600182149182611585575b50501561154d57600181148061153b575b1561150257600184036114bd5760ff600c5460201c1615611480571561146c5735916040516370a0823160e01b81523060048201526020816024815f5160206140295f395f51905f525afa9081156113a4575f9161143a575b5060018060a01b036004541660405190630240bc6b60e21b8252606082600481845afa9081156113a4575f925f92611415575b50604051630dfe168160e01b815292602084600481855afa9384156113a4575f946113f4575b506040516370a0823160e01b8152306004820152926020846024815f5160206140295f395f51905f525afa9485156113a4578a945f966113af575b506001600160a01b03165f516020613fe95f395f51905f520361131957906001600160701b038061050f9316911689613bd3565b6105198883613c72565b60405161052760208261190b565b838152823b15610b08576105569284928360405180968195829463022c0d9f60e01b845230906004850161254a565b03925af18015610b0c57611300575b50505b6040516370a0823160e01b8152306004820152906020826024815f5160206140295f395f51905f525afa8015610d1f5787906112cc575b6105a992506119a4565b15611292576040516370a0823160e01b8152306004820152906020826024815f5160206140295f395f51905f525afa801561120057869061125e575b6105ef92506119a4565b8015611224578490600160ff19600c541617600c55806007555f5160206140295f395f51905f523b1561122057604051906331bcd2b760e01b82526001600483015260248201528181604481835f5160206140295f395f51905f525af18015610b0c5761120b575b5050600c805462ffff001916620101001790556006546040516370a0823160e01b81523060048201526020816024815f5160206140295f395f51905f525afa9081156112005786916111cd575b506106e99060ff92604051906358f033d960e11b6020830152306024830152600160448301526064820152876084820152608481526106e460a48261190b565b6125b2565b151563ff000000600c549160181b169063ff00000019161780600c5560181c16156111885715611174579061071f9135906120c9565b66038d7ea4c68000810180821161116057825b6040516370a0823160e01b81523060048201526020816024815f516020613fe95f395f51905f525afa8015610ea4578391869161112c575b501080611122575b15610eaf576040516370a0823160e01b81523060048201526020816024815f516020613fe95f395f51905f525afa8015610ea4578590610e71575b6107b89150836119a4565b60018060a01b036004541690604051630240bc6b60e21b8152606081600481865afa908115610d1f5787908892610e4f575b50604051630dfe168160e01b815292602084600481885afa938415610ce2578994610e2f575b5060405163b393204b60e01b81526020816004815f5160206140295f395f51905f525afa8a9181610dfc575b50610df657506028935b6103848511610dec575b6001600160a01b03165f5160206140295f395f51905f5203610dcf576001600160701b03806108829416921690613f35565b905b6103e88202918083046103e81490151715610dbb576103e803906103e88211610dbb57906108b191612429565b60018101809111610da757600381029080820460031490151715610da75760011c90670de0b6b3a76400008201809211610da7576040516370a0823160e01b815230600482015282906020816024815f5160206140295f395f51905f525afa908115610d9c578891610d6b575b50809111610d63575b508115610d2a57604051630240bc6b60e21b8152606081600481855afa908115610d1f5787908892610ced575b50604051630dfe168160e01b815293602085600481875afa948515610ce2578995610cb2575b5088604051916370a0823160e01b83528560048401526020836024815f5160206140295f395f51905f525afa928315610b0c578293610c7c575b5060405163a9059cbb60e01b602082019081526001600160a01b038816602483015260448201929092528291906109f881606481015b03601f19810183528261190b565b5190825f5160206140295f395f51905f525af1610a13612574565b81610c4d575b5015610c16576040516370a0823160e01b815260048101859052906020826024815f5160206140295f395f51905f525afa8015610c0b578a90610bd4575b610a6192506119a4565b8015610b995788946001600160a01b03165f5160206140295f395f51905f5203610b17576001600160701b0380610a9b9416921690613bd3565b604051610aa960208261190b565b838152823b15610b0857610ad89284928360405180968195829463022c0d9f60e01b845230906004850161254a565b03925af18015610b0c57610af3575b50506001905b01610732565b81610afd9161190b565b610b0857835f610ae7565b8380fd5b6040513d84823e3d90fd5b6001600160701b0380610b2e949316921690613bd3565b604051610b3c60208261190b565b838152823b15610b0857610b6b9284928360405180968195829463022c0d9f60e01b845230906004850161251c565b03925af18015610b0c57610b84575b5050600190610aed565b81610b8e9161190b565b610b0857835f610b7a565b60405162461bcd60e51b8152602060048201526013602482015272746178656420696e707574206973207a65726f60681b6044820152606490fd5b506020823d8211610c03575b81610bed6020938361190b565b81010312610bff57610a619151610a57565b5f80fd5b3d9150610be0565b6040513d8c823e3d90fd5b60405162461bcd60e51b815260206004820152600f60248201526e1d1c985b9cd9995c8819985a5b1959608a1b6044820152606490fd5b8051801592508215610c62575b50505f610a19565b610c759250602080918301019101612a17565b5f80610c5a565b915091506020813d8211610caa575b81610c986020938361190b565b81010312610bff5751908990816109b4565b3d9150610c8b565b610cd491955060203d8111610cdb575b610ccc818361190b565b8101906120d6565b935f61097a565b503d610cc2565b6040513d8b823e3d90fd5b9050610d10915060603d8111610d18575b610d08818361190b565b8101906124e6565b50905f610954565b503d610cfe565b6040513d89823e3d90fd5b60405162461bcd60e51b81526020600482015260116024820152701b9bc81d185c99d95d081d1bc81cd95b1b607a1b6044820152606490fd5b91505f610927565b90506020813d8211610d94575b81610d856020938361190b565b81010312610bff57515f61091e565b3d9150610d78565b6040513d8a823e3d90fd5b634e487b7160e01b86526011600452602486fd5b634e487b7160e01b87526011600452602487fd5b6001600160701b0380610de6949316921690613f35565b90610884565b6103849450610850565b93610846565b9091506020813d8211610e27575b81610e176020938361190b565b81010312610bff5751905f61083c565b3d9150610e0a565b610e4891945060203d8111610cdb57610ccc818361190b565b925f610810565b9050610e69915060603d8111610d1857610d08818361190b565b50905f6107ea565b506020813d8211610e9c575b81610e8a6020938361190b565b81010312610bff576107b890516107ad565b3d9150610e7d565b6040513d87823e3d90fd5b50506040516370a0823160e01b81523060048201526020816024815f516020613fe95f395f51905f525afa801561111757829184916110e2575b501061109d578180604051602081019063095ea7b360e01b8252737d2768de32b0b80b7a3454c06bdac94a69ddc7a9602482015282604482015260448152610f3260648261190b565b5190825f516020613fe95f395f51905f525af1610f4d612574565b8161106e575b5015611032578190604051602081019163095ea7b360e01b8352737d2768de32b0b80b7a3454c06bdac94a69ddc7a96024830152604482015260448152610f9b60648261190b565b5190825f516020613fe95f395f51905f525af1610fb6612574565b81611003575b5015610fcd57602060405160018152f35b60405162461bcd60e51b815260206004820152600e60248201526d185c1c1c9bdd994819985a5b195960921b6044820152606490fd5b8051801592508215611018575b50505f610fbc565b61102b9250602080918301019101612a17565b5f80611010565b60405162461bcd60e51b8152602060048201526014602482015273185c1c1c9bdd99481c995cd95d0819985a5b195960621b6044820152606490fd5b8051801592508215611083575b50505f610f53565b6110969250602080918301019101612a17565b5f8061107b565b60405162461bcd60e51b815260206004820152601b60248201527f696e73756666696369656e74205745544820666f7220726570617900000000006044820152606490fd5b9150506020813d60201161110f575b816110fe6020938361190b565b81010312610bff578190515f610ee9565b3d91506110f1565b6040513d85823e3d90fd5b5060038110610772565b9150506020813d8211611158575b816111476020938361190b565b81010312610bff578290515f61076a565b3d915061113a565b634e487b7160e01b83526011600452602483fd5b634e487b7160e01b83526032600452602483fd5b60405162461bcd60e51b815260206004820152601860248201527f6272696467652d6f776e6572206d696e74206661696c656400000000000000006044820152606490fd5b90506020813d6020116111f8575b816111e86020938361190b565b81010312610bff575160ff6106a4565b3d91506111db565b6040513d88823e3d90fd5b816112159161190b565b610b0857835f610657565b5080fd5b60405162461bcd60e51b81526020600482015260126024820152711b9bc81d185c99d95d081858dc5d5a5c995960721b6044820152606490fd5b506020823d60201161128a575b816112786020938361190b565b81010312610bff576105ef91516105e5565b3d915061126b565b60405162461bcd60e51b81526020600482015260126024820152711b9bc81d185c99d95d081c9958d95a5d995960721b6044820152606490fd5b506020823d6020116112f8575b816112e66020938361190b565b81010312610bff576105a9915161059f565b3d91506112d9565b8161130a9161190b565b61131557855f610565565b8580fd5b906113339293506001600160701b03809116911688613bd3565b61133d8783613c72565b60405161134b60208261190b565b5f8152823b15610bff5761137a925f928360405180968195829463022c0d9f60e01b845230906004850161251c565b03925af180156113a45761138f575b50610568565b61139c9196505f9061190b565b5f945f611389565b6040513d5f823e3d90fd5b945094506020843d6020116113ec575b816113cc6020938361190b565b81010312610bff575f516020613fe95f395f51905f528a945195906104db565b3d91506113bf565b61140e91945060203d602011610cdb57610ccc818361190b565b925f6104a0565b909250611431915060603d606011610d1857610d08818361190b565b5090915f61047a565b90506020813d602011611464575b816114556020938361190b565b81010312610bff57515f610447565b3d9150611448565b634e487b7160e01b5f52603260045260245ffd5b60405162461bcd60e51b81526020600482015260156024820152746d696e74207061746820756e617661696c61626c6560581b6044820152606490fd5b60405162461bcd60e51b815260206004820152601860248201527f756e6578706563746564207072656d69756d20617272617900000000000000006044820152606490fd5b60405162461bcd60e51b81526020600482015260116024820152701d5b995e1c1958dd195908185b5bdd5b9d607a1b6044820152606490fd5b50801561146c576005548235146103ee565b60405162461bcd60e51b815260206004820152601060248201526f1d5b995e1c1958dd195908185cdcd95d60821b6044820152606490fd5b9091501561146c57356001600160a01b03811690819003610bff575f516020613fe95f395f51905f52145f806103dd565b60405162461bcd60e51b81526020600482015260146024820152733ab732bc3832b1ba32b21034b734ba34b0ba37b960611b6044820152606490fd5b60405162461bcd60e51b81526020600482015260116024820152703ab732bc3832b1ba32b2103632b73232b960791b6044820152606490fd5b34610bff575f366003190112610bff576020600754604051908152f35b34610bff575f366003190112610bff5760205f54604051908152f35b34610bff575f366003190112610bff57602060ff600c54821c166040519015158152f35b34610bff575f366003190112610bff57602060ff600c5460281c166040519015158152f35b34610bff575f366003190112610bff57602060ff600c5460181c166040519015158152f35b34610bff575f366003190112610bff576003546040516001600160a01b039091168152602090f35b34610bff575f366003190112610bff5760206040515f516020613fe95f395f51905f528152f35b34610bff575f366003190112610bff576117396119c5565b005b34610bff575f366003190112610bff576020600854604051908152f35b34610bff576040366003190112610bff5760209061177461184a565b506004357fb281fc8c12954d22544db45de3159a39272895b169a852b314f9cc762e44c53b036117c3577fa2ef4600d742022d532d4747cb3547474667d6f13804902513b2ec01c848f4b48152f35b5f8152f35b34610bff5760c0366003190112610bff576117e1611834565b506117ea61184a565b506117f3611860565b506084356001600160401b038111610bff57611813903690600401611876565b505060a4356001600160401b038111610bff57611739903690600401611876565b600435906001600160a01b0382168203610bff57565b602435906001600160a01b0382168203610bff57565b604435906001600160a01b0382168203610bff57565b9181601f84011215610bff578235916001600160401b038311610bff5760208381860195010111610bff57565b9181601f84011215610bff578235916001600160401b038311610bff576020808501948460051b010111610bff57565b90600182811c92168015611901575b60208310146118ed57565b634e487b7160e01b5f52602260045260245ffd5b91607f16916118e2565b90601f801991011681019081106001600160401b0382111761192c57604052565b634e487b7160e01b5f52604160045260245ffd5b805180835260209291819084018484015e5f828201840152601f01601f1916010190565b80511561146c5760200190565b90602080835192838152019201905f5b81811061198e5750505090565b8251845260209384019390920191600101611981565b919082039182116119b157565b634e487b7160e01b5f52601160045260245ffd5b6040516370a0823160e01b81523060048201525f906020816024815f516020613fe95f395f51905f525afa9081156113a4575f91612097575b50600155604051634cbe3db560e01b81526020816004815f5160206140295f395f51905f525afa5f9181612076575b5061207157505f5b60018060a01b03166bffffffffffffffffffffffff60a01b6003541617600355611a5e306120f5565b600855611a6a30612178565b600a55611a756121c3565b151564ff00000000600c549160201b169060ff8264ff000000001983161780600c5560201c161561204457505060405163e6a4390560e01b81525f5160206140295f395f51905f5260048201525f516020613fe95f395f51905f526024820152602081604481735c69bee701ef814a2b6a3edd4b1652cb9cc5aa6f5afa9081156113a4575f91612025575b5060405163e6a4390560e01b81525f5160206140295f395f51905f5260048201525f516020613fe95f395f51905f5260248201529060208260448173c0aee478e3658e2610c5f7a4a2e1777ce9e4f2ac5afa9182156113a4575f92612004575b506001600160a01b038116611ff5575f915b6001600160a01b038116611fe7575f5b8310611fe05781925b6001600160a01b03841615611fc6575b5050600480546001600160a01b0319166001600160a01b03939093169283179055508015611f8b57611bcc81612447565b90816005558115611f4e57604051630240bc6b60e21b8152606081600481855afa9081156113a4576004925f915f93611f27575b5060209060405194858092630dfe168160e01b82525afa9182156113a4575f5160206140295f395f51905f526001600160701b03936014955f91611f08575b506001600160a01b031603611f005750165b046a295be96e640669720000008110611eee575b8060065515611eb3576040908151611c7d838261190b565b600181526020810191601f198401803685375f516020613fe95f395f51905f52611ca684611964565b52845191611cb4868461190b565b6001835281366020850137611cc883611964565b52845190611cd6868361190b565b600182523660208301375f611cea82611964565b52602093855192611cfb868561190b565b5f8452737d2768de32b0b80b7a3454c06bdac94a69ddc7a93b15610bff57865163ab9c4b5d60e01b815230600482015260e06024820152945160e48601819052859392610104850192915f5b89828210611e93575050505093611d858493611d73611d9d945f98600319888303016044890152611971565b85810360031901606487015290611971565b3060848501528381036003190160a485015290611940565b8360c4830152038183737d2768de32b0b80b7a3454c06bdac94a69ddc7a95af18015611e8957611e74575b50611dd2306120f5565b600955611dde30612178565b600b5581516370a0823160e01b81523060048201529080826024815f516020613fe95f395f51905f525afa928315611e6b57508392611e3d575b5050806002556001548082115f14611e3757611e33916119a4565b9055565b50508055565b90809250813d8311611e64575b611e54818361190b565b81010312610bff57515f80611e18565b503d611e4a565b513d85823e3d90fd5b611e819193505f9061190b565b5f915f611dc8565b83513d5f823e3d90fd5b83516001600160a01b031686528997509485019490920191600101611d47565b60405162461bcd60e51b81526020600482015260136024820152726d696e7420616d6f756e74206973207a65726f60681b6044820152606490fd5b506a295be96e64066972000000611c65565b905016611c51565b611f21915060203d602011610cdb57610ccc818361190b565b5f611c3f565b611f459193506020925060603d606011610d1857610d08818361190b565b50929091611c00565b60405162461bcd60e51b8152602060048201526015602482015274626f72726f7720616d6f756e74206973207a65726f60581b6044820152606490fd5b60405162461bcd60e51b81526020600482015260136024820152723737902a20a923a2aa17aba2aa24103830b4b960691b6044820152606490fd5b9192509015611fd957505b5f8080611b9b565b9050611fd1565b8092611b8b565b611ff081613aba565b611b82565b611ffe81613aba565b91611b72565b61201e91925060203d602011610cdb57610ccc818361190b565b905f611b60565b61203e915060203d602011610cdb57610ccc818361190b565b5f611b00565b65ffff000000001916176501000000000017600c55506001546002555f8055600854600955600a54600b55565b611a35565b61209091925060203d602011610cdb57610ccc818361190b565b905f611a2d565b90506020813d6020116120c1575b816120b26020938361190b565b81010312610bff57515f6119fe565b3d91506120a5565b919082018092116119b157565b90816020910312610bff57516001600160a01b0381168103610bff5790565b604051630a83121160e01b81526001600160a01b039091166004820152600160248201526020816044815f5160206140295f395f51905f525afa5f9181612144575b5061214157505f90565b90565b9091506020813d602011612170575b816121606020938361190b565b81010312610bff5751905f612137565b3d9150612153565b6040516324a756d160e01b81526001600160a01b039091166004820152600160248201526020816044815f5160206140295f395f51905f525afa5f9181612144575061214157505f90565b6003545f906001600160a01b031615612390576003546001600160a01b0316308114612376573b156122c6576040516358f033d960e11b6020820152306024820152600160448201528160648201528160848201526084815261222760a48261190b565b61223081612a2f565b6122bf5761223d81612bb0565b6122bf5761224a81612d31565b6122bf5761225781612eb2565b6122bf5761226481613033565b6122bf57612271816131b4565b6122bf5761227e81613335565b6122bf5761228b816134b6565b6122bf5761229881613637565b6122bf576122a5816137b8565b6122bf576122b290613939565b6122b95790565b50600190565b5050600190565b60206040516122d660408261190b565b601b81520190807f627269646765206f776e657220697320454f4120617420666f726b000000000083526123625750612310600d546118d3565b601f811161232d575b505164ffffffffff1916603617600d555f90565b600d5f52601f5f5160206140095f395f51905f52910160051c8101905b8181106123575750612319565b5f815560010161234a565b634e487b7160e01b81526041600452602490fd5b50506004805460ff60a01b1916600160a01b179055600190565b5060206040516123a160408261190b565b60188152017f627269646765206f776e657220756e617661696c61626c65000000000000000081526123d4600d546118d3565b601f81116123f4575b505167ffffffffffffffff1916603017600d555f90565b600d5f52601f5f5160206140095f395f51905f52910160051c8101905b81811061241e57506123dd565b5f8155600101612411565b8115612433570490565b634e487b7160e01b5f52601260045260245ffd5b61245090613aba565b80156124ba57612710810490662386f26fc1000082116124ab575b81158061249b575b61248c575b80821015612484575090565b606491500490565b66038d7ea4c680009150612478565b5066038d7ea4c680008111612473565b662386f26fc10000915061246b565b505f90565b818102929181159184041417156119b157565b51906001600160701b0382168203610bff57565b90816060910312610bff576124fa816124d2565b916040612509602084016124d2565b92015163ffffffff81168103610bff5790565b9081525f60208201526001600160a01b03909116604082015260806060820181905261214192910190611940565b61214193926080925f8352602083015260018060a01b031660408201528160608201520190611940565b3d156125ad573d906001600160401b03821161192c57604051916125a2601f8201601f19166020018461190b565b82523d5f602084013e565b606090565b905f91600160ff60045460a01c16146128735760ff60045460a01c16156127dd57826125e7819260ff60045460a01c16613d54565b6003548151916020019083906001600160a01b03165af191612607612574565b8051906001600160401b0382116127c9578190612625600d546118d3565b601f8111612757575b50602090601f83116001146126e85784926126dd575b50508160011b915f199060031b1c191617600d555b8261266357505090565b6040516370a0823160e01b8152306004820152919250906020816024815f5160206140295f395f51905f525afa9182156126d157916126a157501190565b90506020813d6020116126c9575b816126bc6020938361190b565b81010312610bff57511190565b3d91506126af565b604051903d90823e3d90fd5b015190505f80612644565b600d85525f5160206140095f395f51905f529250601f198416855b81811061273f5750908460019594939210612727575b505050811b01600d55612659565b01515f1960f88460031b161c191690555f8080612719565b92936020600181928786015181550195019301612703565b909150600d8452601f830160051c5f5160206140095f395f51905f520190602084106127b4575b90601f8493920160051c5f5160206140095f395f51905f5201905b8181106127a6575061262e565b858155849350600101612799565b5f5160206140095f395f51905f52915061277e565b634e487b7160e01b83526041600452602483fd5b50505060206040516127f060408261190b565b601d8152017f627269646765206f776e6572207061746820756e617661696c61626c650000008152612823600d546118d3565b601f811161283e575b505162ffffff1916603a17600d555f90565b600d5f52601f5f5160206140095f395f51905f52910160051c8101905b818110612868575061282c565b5f815560010161285b565b5f919392508060208392519101825f5160206140295f395f51905f525af1612899612574565b9283516001600160401b03811161192c576128b5600d546118d3565b601f81116129af575b50602094601f8211600114612941579481929394955f92612936575b50508160011b915f199060031b1c191617600d555b816128f8575090565b6040516370a0823160e01b81523060048201529091506020816024815f5160206140295f395f51905f525afa9081156113a4575f916126a157501190565b015190505f806128da565b601f19821695600d5f525f5160206140095f395f51905f52915f5b8881106129975750836001959697981061297f575b505050811b01600d556128ef565b01515f1960f88460031b161c191690555f8080612971565b9192602060018192868501518155019401920161295c565b600d5f52601f820160051c5f5160206140095f395f51905f52019060208310612a02575b601f0160051c5f5160206140095f395f51905f5201905b8181106129f757506128be565b5f81556001016129ea565b5f5160206140095f395f51905f5291506129d3565b90816020910312610bff57518015158103610bff5790565b5f612a3c81926002613d54565b6003548151916020019083906001600160a01b03165af190612a5c612574565b9182516001600160401b03811161192c57612a78600d546118d3565b601f8111612b48575b506020601f8211600114612ada57819293945f92612acf575b50508160011b915f199060031b1c191617600d555b612ab7575f90565b6004805460ff60a01b1916600160a11b179055600190565b015190505f80612a9a565b601f19821690600d5f525f5160206140095f395f51905f52915f5b818110612b3057509583600195969710612b18575b505050811b01600d55612aaf565b01515f1960f88460031b161c191690555f8080612b0a565b9192602060018192868b015181550194019201612af5565b600d5f52601f820160051c5f5160206140095f395f51905f52019060208310612b9b575b601f0160051c5f5160206140095f395f51905f5201905b818110612b905750612a81565b5f8155600101612b83565b5f5160206140095f395f51905f529150612b6c565b5f612bbd81926003613d54565b6003548151916020019083906001600160a01b03165af190612bdd612574565b9182516001600160401b03811161192c57612bf9600d546118d3565b601f8111612cc9575b506020601f8211600114612c5b57819293945f92612c50575b50508160011b915f199060031b1c191617600d555b612c38575f90565b6004805460ff60a01b1916600360a01b179055600190565b015190505f80612c1b565b601f19821690600d5f525f5160206140095f395f51905f52915f5b818110612cb157509583600195969710612c99575b505050811b01600d55612c30565b01515f1960f88460031b161c191690555f8080612c8b565b9192602060018192868b015181550194019201612c76565b600d5f52601f820160051c5f5160206140095f395f51905f52019060208310612d1c575b601f0160051c5f5160206140095f395f51905f5201905b818110612d115750612c02565b5f8155600101612d04565b5f5160206140095f395f51905f529150612ced565b5f612d3e81926004613d54565b6003548151916020019083906001600160a01b03165af190612d5e612574565b9182516001600160401b03811161192c57612d7a600d546118d3565b601f8111612e4a575b506020601f8211600114612ddc57819293945f92612dd1575b50508160011b915f199060031b1c191617600d555b612db9575f90565b6004805460ff60a01b1916600160a21b179055600190565b015190505f80612d9c565b601f19821690600d5f525f5160206140095f395f51905f52915f5b818110612e3257509583600195969710612e1a575b505050811b01600d55612db1565b01515f1960f88460031b161c191690555f8080612e0c565b9192602060018192868b015181550194019201612df7565b600d5f52601f820160051c5f5160206140095f395f51905f52019060208310612e9d575b601f0160051c5f5160206140095f395f51905f5201905b818110612e925750612d83565b5f8155600101612e85565b5f5160206140095f395f51905f529150612e6e565b5f612ebf81926005613d54565b6003548151916020019083906001600160a01b03165af190612edf612574565b9182516001600160401b03811161192c57612efb600d546118d3565b601f8111612fcb575b506020601f8211600114612f5d57819293945f92612f52575b50508160011b915f199060031b1c191617600d555b612f3a575f90565b6004805460ff60a01b1916600560a01b179055600190565b015190505f80612f1d565b601f19821690600d5f525f5160206140095f395f51905f52915f5b818110612fb357509583600195969710612f9b575b505050811b01600d55612f32565b01515f1960f88460031b161c191690555f8080612f8d565b9192602060018192868b015181550194019201612f78565b600d5f52601f820160051c5f5160206140095f395f51905f5201906020831061301e575b601f0160051c5f5160206140095f395f51905f5201905b8181106130135750612f04565b5f8155600101613006565b5f5160206140095f395f51905f529150612fef565b5f61304081926006613d54565b6003548151916020019083906001600160a01b03165af190613060612574565b9182516001600160401b03811161192c5761307c600d546118d3565b601f811161314c575b506020601f82116001146130de57819293945f926130d3575b50508160011b915f199060031b1c191617600d555b6130bb575f90565b6004805460ff60a01b1916600360a11b179055600190565b015190505f8061309e565b601f19821690600d5f525f5160206140095f395f51905f52915f5b8181106131345750958360019596971061311c575b505050811b01600d556130b3565b01515f1960f88460031b161c191690555f808061310e565b9192602060018192868b0151815501940192016130f9565b600d5f52601f820160051c5f5160206140095f395f51905f5201906020831061319f575b601f0160051c5f5160206140095f395f51905f5201905b8181106131945750613085565b5f8155600101613187565b5f5160206140095f395f51905f529150613170565b5f6131c181926007613d54565b6003548151916020019083906001600160a01b03165af1906131e1612574565b9182516001600160401b03811161192c576131fd600d546118d3565b601f81116132cd575b506020601f821160011461325f57819293945f92613254575b50508160011b915f199060031b1c191617600d555b61323c575f90565b6004805460ff60a01b1916600760a01b179055600190565b015190505f8061321f565b601f19821690600d5f525f5160206140095f395f51905f52915f5b8181106132b55750958360019596971061329d575b505050811b01600d55613234565b01515f1960f88460031b161c191690555f808061328f565b9192602060018192868b01518155019401920161327a565b600d5f52601f820160051c5f5160206140095f395f51905f52019060208310613320575b601f0160051c5f5160206140095f395f51905f5201905b8181106133155750613206565b5f8155600101613308565b5f5160206140095f395f51905f5291506132f1565b5f61334281926008613d54565b6003548151916020019083906001600160a01b03165af190613362612574565b9182516001600160401b03811161192c5761337e600d546118d3565b601f811161344e575b506020601f82116001146133e057819293945f926133d5575b50508160011b915f199060031b1c191617600d555b6133bd575f90565b6004805460ff60a01b1916600160a31b179055600190565b015190505f806133a0565b601f19821690600d5f525f5160206140095f395f51905f52915f5b8181106134365750958360019596971061341e575b505050811b01600d556133b5565b01515f1960f88460031b161c191690555f8080613410565b9192602060018192868b0151815501940192016133fb565b600d5f52601f820160051c5f5160206140095f395f51905f520190602083106134a1575b601f0160051c5f5160206140095f395f51905f5201905b8181106134965750613387565b5f8155600101613489565b5f5160206140095f395f51905f529150613472565b5f6134c381926009613d54565b6003548151916020019083906001600160a01b03165af1906134e3612574565b9182516001600160401b03811161192c576134ff600d546118d3565b601f81116135cf575b506020601f821160011461356157819293945f92613556575b50508160011b915f199060031b1c191617600d555b61353e575f90565b6004805460ff60a01b1916600960a01b179055600190565b015190505f80613521565b601f19821690600d5f525f5160206140095f395f51905f52915f5b8181106135b75750958360019596971061359f575b505050811b01600d55613536565b01515f1960f88460031b161c191690555f8080613591565b9192602060018192868b01518155019401920161357c565b600d5f52601f820160051c5f5160206140095f395f51905f52019060208310613622575b601f0160051c5f5160206140095f395f51905f5201905b8181106136175750613508565b5f815560010161360a565b5f5160206140095f395f51905f5291506135f3565b5f6136448192600a613d54565b6003548151916020019083906001600160a01b03165af190613664612574565b9182516001600160401b03811161192c57613680600d546118d3565b601f8111613750575b506020601f82116001146136e257819293945f926136d7575b50508160011b915f199060031b1c191617600d555b6136bf575f90565b6004805460ff60a01b1916600560a11b179055600190565b015190505f806136a2565b601f19821690600d5f525f5160206140095f395f51905f52915f5b81811061373857509583600195969710613720575b505050811b01600d556136b7565b01515f1960f88460031b161c191690555f8080613712565b9192602060018192868b0151815501940192016136fd565b600d5f52601f820160051c5f5160206140095f395f51905f520190602083106137a3575b601f0160051c5f5160206140095f395f51905f5201905b8181106137985750613689565b5f815560010161378b565b5f5160206140095f395f51905f529150613774565b5f6137c58192600b613d54565b6003548151916020019083906001600160a01b03165af1906137e5612574565b9182516001600160401b03811161192c57613801600d546118d3565b601f81116138d1575b506020601f821160011461386357819293945f92613858575b50508160011b915f199060031b1c191617600d555b613840575f90565b6004805460ff60a01b1916600b60a01b179055600190565b015190505f80613823565b601f19821690600d5f525f5160206140095f395f51905f52915f5b8181106138b9575095836001959697106138a1575b505050811b01600d55613838565b01515f1960f88460031b161c191690555f8080613893565b9192602060018192868b01518155019401920161387e565b600d5f52601f820160051c5f5160206140095f395f51905f52019060208310613924575b601f0160051c5f5160206140095f395f51905f5201905b818110613919575061380a565b5f815560010161390c565b5f5160206140095f395f51905f5291506138f5565b5f6139468192600c613d54565b6003548151916020019083906001600160a01b03165af190613966612574565b9182516001600160401b03811161192c57613982600d546118d3565b601f8111613a52575b506020601f82116001146139e457819293945f926139d9575b50508160011b915f199060031b1c191617600d555b6139c1575f90565b6004805460ff60a01b1916600360a21b179055600190565b015190505f806139a4565b601f19821690600d5f525f5160206140095f395f51905f52915f5b818110613a3a57509583600195969710613a22575b505050811b01600d556139b9565b01515f1960f88460031b161c191690555f8080613a14565b9192602060018192868b0151815501940192016139ff565b600d5f52601f820160051c5f5160206140095f395f51905f52019060208310613aa5575b601f0160051c5f5160206140095f395f51905f5201905b818110613a9a575061398b565b5f8155600101613a8d565b5f5160206140095f395f51905f529150613a76565b604051630240bc6b60e21b81526001600160a01b039190911690606081600481855afa80156113a4576004925f925f92613b65575b5060209060405194858092630dfe168160e01b82525afa9283156113a4576001600160701b03935f516020613fe95f395f51905f52915f91613b46575b506001600160a01b031603613b4057501690565b90501690565b613b5f915060203d602011610cdb57610ccc818361190b565b5f613b2c565b60209350613b8391925060603d606011610d1857610d08818361190b565b509290929190613aef565b15613b9557565b60405162461bcd60e51b8152602060048201526016602482015275696e73756666696369656e74206c697175696469747960501b6044820152606490fd5b91908215613c3857801591821580613c2f575b613bef90613b8e565b6103e584029384046103e5036119b157613c0990846124bf565b916103e882029182046103e81417156119b15761214192613c29916120c9565b90612429565b50801515613be6565b60405162461bcd60e51b81526020600482015260126024820152711a5b9cdd59999a58da595b9d081a5b9c1d5d60721b6044820152606490fd5b60405163a9059cbb60e01b602082019081526001600160a01b03909216602482015260448101929092525f91829190613cae81606481016109ea565b5190825f516020613fe95f395f51905f525af1613cc9612574565b81613cd7575b5015610c1657565b8051801592508215613cec575b50505f613ccf565b613cff9250602080918301019101612a17565b5f80613ce4565b906040612141925f5160206140295f395f51905f5281528160208201520190611940565b906060612141925f5160206140295f395f51905f5281525f60208201528160408201520190611940565b60ff1660028114613f105760038114613eeb5760048114613ec65760058114613ea15760068114613e7c5760078114613e575760088114613e325760098114613e0d57600a8114613de857600b8114613dc357600c146121415750604051613dbd60208261190b565b5f815290565b50604051631376cd6560e31b6020820152906121419082906109ea9060248301613d06565b5060405163c28e83fd60e01b6020820152906121419082906109ea9060248301613d06565b506040516337d6e7b960e11b6020820152906121419082906109ea9060248301613d06565b5060405163036df97d60e51b6020820152906121419082906109ea9060248301613d2a565b50604051631b8b921d60e01b6020820152906121419082906109ea9060248301613d06565b50604051630565bb6760e01b6020820152906121419082906109ea9060248301613d2a565b50604051635f30016160e11b6020820152906121419082906109ea9060248301613d06565b50604051639e5d4c4960e01b6020820152906121419082906109ea9060248301613d2a565b50604051635b0e93fb60e11b6020820152906121419082906109ea9060248301613d2a565b50604051631cff79cd60e01b6020820152906121419082906109ea9060248301613d06565b91908215613fad578281613f5992151580613fa4575b613f5490613b8e565b6124bf565b916103e88302928084046103e814901517156119b157613f78916119a4565b6103e58102908082046103e514901517156119b157613f9691612429565b600181018091116119b15790565b50818411613f4b565b60405162461bcd60e51b81526020600482015260136024820152721a5b9cdd59999a58da595b9d081bdd5d1c1d5d606a1b6044820152606490fdfe000000000000000000000000c02aaa39b223fe8d0a0e5c4f27ead9083c756cc2d7b6990105719101dabeb77144f2a3385c8033acd3af97e9423a695e81ad1eb5000000000000000000000000d45740ab9ec920bedbd9bab2e863519e59731941a264697066735822122040a6585a61a9d72b8ebfa16033b0c4c9574d959d5d99400f9bad242c7571f94d64736f6c634300081e0033","linkReferences":{}},"methodIdentifiers":{"bridgeOwner()":"4d52d6b2","bridgeOwnerCallFeasible()":"58ff61b8","burnAmountAttempted()":"864dbfd9","burnStageAttempted()":"f54a20b3","burnStageSucceeded()":"fc9f85f2","canImplementInterfaceForAddress(bytes32,address)":"249cb3fa","endingBalance()":"b6fb7e46","executeOnOpportunity()":"3c2448ed","executeOperation(address[],uint256[],uint256[],address,bytes)":"920f5c84","executionInfeasible()":"552fa840","lastMintRevertData()":"b606d092","mintStageAttempted()":"f5beda8d","mintStageSucceeded()":"4f4fbd72","profitAmount()":"5ff972cc","profitToken()":"49343624","requestedMintAmount()":"f3025899","startingBalance()":"94bd2d3b","tokensReceived(address,address,address,uint256,bytes,bytes)":"0023de29","tokensReceivedAfter()":"9c5ac2c5","tokensReceivedBefore()":"adea533a","tokensSentAfter()":"dfc16fdf","tokensSentBefore()":"29faed67"},"id":0}