{"abi":[{"type":"constructor","inputs":[],"stateMutability":"nonpayable"},{"type":"receive","stateMutability":"payable"},{"type":"function","name":"DAI","inputs":[],"outputs":[{"name":"","type":"address","internalType":"address"}],"stateMutability":"view"},{"type":"function","name":"MIM","inputs":[],"outputs":[{"name":"","type":"address","internalType":"address"}],"stateMutability":"view"},{"type":"function","name":"SUSHI_ROUTER","inputs":[],"outputs":[{"name":"","type":"address","internalType":"address"}],"stateMutability":"view"},{"type":"function","name":"TARGET","inputs":[],"outputs":[{"name":"","type":"address","internalType":"contract ICauldronV4Like"}],"stateMutability":"view"},{"type":"function","name":"TARGET_CAULDRON","inputs":[],"outputs":[{"name":"","type":"address","internalType":"address"}],"stateMutability":"view"},{"type":"function","name":"UNISWAP_V2_ROUTER","inputs":[],"outputs":[{"name":"","type":"address","internalType":"address"}],"stateMutability":"view"},{"type":"function","name":"USDC","inputs":[],"outputs":[{"name":"","type":"address","internalType":"address"}],"stateMutability":"view"},{"type":"function","name":"USDT","inputs":[],"outputs":[{"name":"","type":"address","internalType":"address"}],"stateMutability":"view"},{"type":"function","name":"WETH","inputs":[],"outputs":[{"name":"","type":"address","internalType":"address"}],"stateMutability":"view"},{"type":"function","name":"collateralToken","inputs":[],"outputs":[{"name":"","type":"address","internalType":"address"}],"stateMutability":"view"},{"type":"function","name":"convexDepositToken","inputs":[],"outputs":[{"name":"","type":"address","internalType":"address"}],"stateMutability":"view"},{"type":"function","name":"curveLpToken","inputs":[],"outputs":[{"name":"","type":"address","internalType":"address"}],"stateMutability":"view"},{"type":"function","name":"curvePool","inputs":[],"outputs":[{"name":"","type":"address","internalType":"address"}],"stateMutability":"view"},{"type":"function","name":"execute","inputs":[],"outputs":[{"name":"","type":"uint256","internalType":"uint256"}],"stateMutability":"nonpayable"},{"type":"function","name":"executeOnOpportunity","inputs":[],"outputs":[{"name":"","type":"uint256","internalType":"uint256"}],"stateMutability":"nonpayable"},{"type":"function","name":"exploit","inputs":[],"outputs":[{"name":"","type":"uint256","internalType":"uint256"}],"stateMutability":"nonpayable"},{"type":"function","name":"flashAmount","inputs":[],"outputs":[{"name":"","type":"uint256","internalType":"uint256"}],"stateMutability":"view"},{"type":"function","name":"flashFee","inputs":[],"outputs":[{"name":"","type":"uint256","internalType":"uint256"}],"stateMutability":"view"},{"type":"function","name":"hypothesisValidated","inputs":[],"outputs":[{"name":"","type":"bool","internalType":"bool"}],"stateMutability":"view"},{"type":"function","name":"lastBorrowAmount","inputs":[],"outputs":[{"name":"","type":"uint256","internalType":"uint256"}],"stateMutability":"view"},{"type":"function","name":"lastBorrowPart","inputs":[],"outputs":[{"name":"","type":"uint256","internalType":"uint256"}],"stateMutability":"view"},{"type":"function","name":"onFlashLoan","inputs":[{"name":"sender","type":"address","internalType":"address"},{"name":"token","type":"address","internalType":"contract IERC20Like"},{"name":"amount","type":"uint256","internalType":"uint256"},{"name":"fee","type":"uint256","internalType":"uint256"},{"name":"","type":"bytes","internalType":"bytes"}],"outputs":[],"stateMutability":"nonpayable"},{"type":"function","name":"probeBorrow","inputs":[{"name":"amount","type":"uint256","internalType":"uint256"}],"outputs":[],"stateMutability":"nonpayable"},{"type":"function","name":"profitAmount","inputs":[],"outputs":[{"name":"","type":"uint256","internalType":"uint256"}],"stateMutability":"view"},{"type":"function","name":"profitToken","inputs":[],"outputs":[{"name":"","type":"address","internalType":"address"}],"stateMutability":"pure"},{"type":"function","name":"run","inputs":[],"outputs":[{"name":"","type":"uint256","internalType":"uint256"}],"stateMutability":"nonpayable"},{"type":"function","name":"underlyingToken","inputs":[],"outputs":[{"name":"","type":"address","internalType":"address"}],"stateMutability":"view"},{"type":"function","name":"usedBorrowThenAccruePath","inputs":[],"outputs":[{"name":"","type":"bool","internalType":"bool"}],"stateMutability":"view"},{"type":"function","name":"usedRemoveThenUnsupportedPath","inputs":[],"outputs":[{"name":"","type":"bool","internalType":"bool"}],"stateMutability":"view"},{"type":"error","name":"BorrowProbeSucceeded","inputs":[]},{"type":"error","name":"ConcretePreconditionFailed","inputs":[{"name":"reason","type":"string","internalType":"string"}]},{"type":"error","name":"FlashLoanCallerMismatch","inputs":[]},{"type":"error","name":"FlashLoanSenderMismatch","inputs":[]},{"type":"error","name":"FlashLoanTokenMismatch","inputs":[]},{"type":"error","name":"UnauthorizedProbe","inputs":[]}],"bytecode":{"object":"0x6080806040523460155761416c908161001a8239f35b5f80fdfe6080604052600436101561001a575b3615610018575f80fd5b005b5f3560e01c80630c24f4fa146101d057806315aa44bd146101cb578063218751b2146101c657806323e30c8b146101c15780632495a599146101bc5780632900951a146101b75780633c2448ed1461017b578063463defd1146101b257806349343624146101675780634ee8f105146101ad5780635eb143ce146101a85780635ff972cc146101a3578063614619541461017b57806363d9b7701461017b578063646780df1461019e57806389a3027114610199578063a6e59f5314610194578063a82ed9ec1461018f578063ad5c46481461018a578063b2016bd414610185578063b570137a14610180578063bd7a598c1461016c578063c04062261461017b578063c54e44eb14610176578063ca8ccab614610171578063cc1f2afa1461016c578063daec383d14610167578063e07df5b4146101625763e0bab4c40361000e57610762565b610745565b610510565b6106d3565b610728565b6106fa565b610331565b6106b6565b61068f565b610661565b610633565b610616565b6105e8565b6105c0565b6105a3565b61057b565b610537565b6104ee565b61030c565b6102e4565b61026f565b610236565b610211565b6101e3565b5f9103126101df57565b5f80fd5b346101df575f3660031901126101df57602060405173d9e1ce17f2641f24ae83637ab66a2cca9c378b9f8152f35b346101df575f3660031901126101df57602060ff600a5460101c166040519015158152f35b346101df575f3660031901126101df576004546040516001600160a01b039091168152602090f35b6001600160a01b038116036101df57565b346101df5760a03660031901126101df5760043561028c8161025e565b6024356102988161025e565b6044356064359160843567ffffffffffffffff81116101df57366023820112156101df57806004013567ffffffffffffffff81116101df57369101602401116101df5761001893610874565b346101df575f3660031901126101df576001546040516001600160a01b039091168152602090f35b346101df575f3660031901126101df57602060ff600a5460081c166040519015158152f35b346101df575f3660031901126101df57610349612aa2565b610351612ccb565b80156104a857604051636b2ace8760e01b81526020816004815f5160206141175f395f51905f525afa90811561045a575f91610479575b505f546001600160a01b0390811691166103a061103d565b90803b156101df576103ce935f80946040519687958694859363f1676d3760e01b8552303060048701611d64565b03925af1801561045a5761045f575b506040516370a0823160e01b81523060048201526020816024815f5160206140f75f395f51905f525afa801561045a5761041e915f9161042b575b50600555565b6020600554604051908152f35b61044d915060203d602011610453575b61044581836107a4565b810190610804565b5f610418565b503d61043b565b6107e3565b8061046d5f610473936107a4565b806101d5565b5f6103dd565b61049b915060203d6020116104a1575b61049381836107a4565b8101906107cb565b5f610388565b503d610489565b6040516367fb15b160e01b815260206004820152601760248201527f4e4f5f464c41534841424c455f434f4c4c41544552414c0000000000000000006044820152606490fd5b346101df575f3660031901126101df57602060ff600a54166040519015158152f35b346101df575f3660031901126101df5760206040515f5160206140f75f395f51905f528152f35b346101df5760203660031901126101df5760043530330361056c5761055b906114d6565b505063164bd81360e31b5f5260045ffd5b630371982f60e01b5f5260045ffd5b346101df575f3660031901126101df576002546040516001600160a01b039091168152602090f35b346101df575f3660031901126101df576020600554604051908152f35b346101df575f3660031901126101df576003546040516001600160a01b039091168152602090f35b346101df575f3660031901126101df57602060405173a0b86991c6218b36c1d19d4a2e9eb0ce3606eb488152f35b346101df575f3660031901126101df576020600754604051908152f35b346101df575f3660031901126101df576020604051737a250d5630b4cf539739df2c5dacb4c659f2488d8152f35b346101df575f3660031901126101df57602060405173c02aaa39b223fe8d0a0e5c4f27ead9083c756cc28152f35b346101df575f3660031901126101df575f546040516001600160a01b039091168152602090f35b346101df575f3660031901126101df576020600854604051908152f35b346101df575f3660031901126101df5760206040515f5160206141175f395f51905f528152f35b346101df575f3660031901126101df57602060405173dac17f958d2ee523a2206206994597c13d831ec78152f35b346101df575f3660031901126101df576020600654604051908152f35b346101df575f3660031901126101df576020600954604051908152f35b346101df575f3660031901126101df576020604051736b175474e89094c44da98b954eedeac495271d0f8152f35b634e487b7160e01b5f52604160045260245ffd5b90601f8019910116810190811067ffffffffffffffff8211176107c657604052565b610790565b908160209103126101df57516107e08161025e565b90565b6040513d5f823e3d90fd5b91908260409103126101df576020825192015190565b908160209103126101df575190565b634e487b7160e01b5f52601160045260245ffd5b906001820180921161083557565b610813565b620186a0019081620186a01161083557565b9190820180921161083557565b5f1981019190821161083557565b9190820391821161083557565b604051636b2ace8760e01b815293916020856004815f5160206141175f395f51905f525afa94851561045a575f95611000575b506001600160a01b0385169133839003610ff157306001600160a01b0390911603610fe2575f546108e8906001600160a01b03165b6001600160a01b031690565b6001600160a01b0390911603610fd3576040836109839261090882600855565b61091185600955565b5f5461092e90839089906001600160a01b0316611118565b611118565b5f8054845162ae511b60e21b81526001600160a01b0390911660048201523060248201525f5160206141175f395f51905f526044820152606481019390935260848301819052919384928391829060a4820190565b03925af190811561045a575f91610fa2575b508015610f64575f5160206141175f395f51905f523b156101df5760405163860ffea160e01b81523060048201526001602482015260448101919091525f81606481835f5160206141175f395f51905f525af1801561045a57610f50575b50604051631c9e379b60e01b81523060048201526020816024815f5160206141175f395f51905f525afa90811561045a575f91610f31575b5015610ef357610a39611259565b8015610eb957610a48816114d6565b50158015610e5b575b610e2057610a7290610a6d61010061ff0019600a541617600a55565b600655565b6040516324720b1f60e11b81523060048201526020816024815f5160206141175f395f51905f525afa801561045a57610ab2915f91610e01575b50600755565b610aba61161c565b604051631c9e379b60e01b8152306004820152916020836024815f5160206141175f395f51905f525afa92831561045a575f93610de0575b508215610d9a57610b05610b349361185e565b610b1b6201000062ff000019600a541617600a55565b5f54610b2f906001600160a01b0316611758565b61084c565b5f54610b4a906108dc906001600160a01b031681565b6040516370a0823160e01b815230600482015290602090829060249082905afa801561045a5782915f91610d7b575b5080828110610cfd575b5010610cb7575f54610b9e92906001600160a01b0316611ca6565b6040516324720b1f60e11b81523060048201526020816024815f5160206141175f395f51905f525afa90811561045a575f91610c98575b50151580610c35575b610bf49060ff8019600a54169115151617600a55565b6040516370a0823160e01b81523060048201526020816024815f5160206140f75f395f51905f525afa801561045a57610c33915f9161042b5750600555565b565b50604051631c9e379b60e01b81523060048201526020816024815f5160206141175f395f51905f525afa801561045a57610bf4915f91610c79575b50159050610bde565b610c92915060203d6020116104535761044581836107a4565b5f610c70565b610cb1915060203d6020116104535761044581836107a4565b5f610bd5565b6040516367fb15b160e01b815260206004820181905260248201527f464c4153485f4645455f434f4c4c41544552414c5f554e415641494c41424c456044820152606490fd5b610d0b9150610d1092610867565b611965565b5f54610d26906108dc906001600160a01b031681565b6040516370a0823160e01b815230600482015290602090829060249082905afa801561045a5782915f91610d5c575b505f610b83565b610d75915060203d6020116104535761044581836107a4565b5f610d55565b610d94915060203d6020116104535761044581836107a4565b5f610b79565b6040516367fb15b160e01b815260206004820152601760248201527f4e4f5f434f4c4c41544552414c5f544f5f52454d4f56450000000000000000006044820152606490fd5b610dfa91935060203d6020116104535761044581836107a4565b915f610af2565b610e1a915060203d6020116104535761044581836107a4565b5f610aac565b6040516367fb15b160e01b81526020600482015260126024820152711093d49493d5d7d410551217d1905253115160721b6044820152606490fd5b506040516324720b1f60e11b81523060048201526020816024815f5160206141175f395f51905f525afa90811561045a575f91610e9a575b5015610a51565b610eb3915060203d6020116104535761044581836107a4565b5f610e93565b6040516367fb15b160e01b81526020600482015260116024820152704e4f5f424f52524f5741424c455f4d494d60781b6044820152606490fd5b6040516367fb15b160e01b815260206004820152601560248201527410511117d0d3d31310551154905317d19052531151605a1b6044820152606490fd5b610f4a915060203d6020116104535761044581836107a4565b5f610a2b565b8061046d5f610f5e936107a4565b5f6109f3565b6040516367fb15b160e01b81526020600482015260156024820152745a45524f5f434f4c4c41544552414c5f534841524560581b6044820152606490fd5b610fc4915060403d604011610fcc575b610fbc81836107a4565b8101906107ee565b90505f610995565b503d610fb2565b6306a36dcb60e31b5f5260045ffd5b631df2118b60e31b5f5260045ffd5b631a51b24d60e01b5f5260045ffd5b61101a91955060203d6020116104a15761049381836107a4565b935f6108a7565b67ffffffffffffffff81116107c657601f01601f191660200190565b6040519061104c6020836107a4565b5f8252565b3d1561107b573d9061106282611021565b9161107060405193846107a4565b82523d5f602084013e565b606090565b908160209103126101df575180151581036101df5790565b1561109f57565b60405162461bcd60e51b81526020600482015260146024820152731054141493d59157d49154d15517d1905253115160621b6044820152606490fd5b156110e257565b60405162461bcd60e51b815260206004820152600e60248201526d1054141493d59157d1905253115160921b6044820152606490fd5b60405163095ea7b360e01b602082019081526001600160a01b03841660248301525f60448301819052610c3395909485949390928592611169926111c592611191918691829161117781606481018a565b03601f1981018352826107a4565b5190828b5af1611185611051565b8161120c575b50611098565b60405163095ea7b360e01b602082019081526001600160a01b03909616602482015260448101919091529182906064820190565b51925af16111d1611051565b816111dd575b506110db565b80518015925082156111f2575b50505f6111d7565b6112059250602080918301019101611080565b5f806111ea565b8051801592508215611221575b50505f61118b565b6112349250602080918301019101611080565b5f80611219565b8115611245570490565b634e487b7160e01b5f52601260045260245ffd5b611261611e16565b90811561130f576112718261214f565b610c335761127f8260011c90565b915b821515806112f9575b156112a0575061129a8260011c90565b91611281565b919081156112f257905b6112b381610827565b8311156112ee576112cd6112c7848361084c565b60011c90565b906112d78261214f565b156112e55750905b906112aa565b919250916112df565b9150565b9150505f90565b5061130a6113068461214f565b1590565b61128a565b5f9150565b67ffffffffffffffff81116107c65760051b60200190565b6040516060919061133d83826107a4565b6002815291601f1901366020840137565b6040516060919061135f83826107a4565b6002815291601f1901825f5b82811061137757505050565b80606060208093850101520161136b565b634e487b7160e01b5f52603260045260245ffd5b8051156113a95760200190565b611388565b8051600110156113a95760400190565b80518210156113a95760209160051b010190565b805180835260209291819084018484015e5f828201840152601f01601f1916010190565b9080602083519182815201916020808360051b8301019401925f915b83831061142157505050505090565b909192939460208061143f600193601f1986820301875289516113d2565b97019301930191939290611412565b6060808252825190820181905260808201959492602001905f5b8181106114bd5750505080850360208201526020808451968781520193015f955b8087106114a55750506107e093945060408184039101526113f6565b90936020806001928751815201950196019590611489565b825160ff16885260209788019790920191600101611468565b6001600160ff1b0381116115d65760406114ee61132c565b6114f661132c565b9061116961153261150561134e565b956115186115128561139c565b60059052565b855160208101919091523060408201529182906060820190565b61153b8561139c565b526115458461139c565b50611558611552826113ae565b60089052565b61156061103d565b611569856113ae565b52611573846113ae565b506115918351948593849363195bcf5960e21b85526004850161144e565b03815f5f5160206141175f395f51905f525af1801561045a575f915f916115b757509091565b90506115d2915060403d604011610fcc57610fbc81836107a4565b9091565b6040516367fb15b160e01b815260206004820152601760248201527f424f52524f575f414d4f554e545f544f4f5f4c415247450000000000000000006044820152606490fd5b604051636b2ace8760e01b81526020816004815f5160206141175f395f51905f525afa90811561045a575f91611739575b50604051633de222bb60e21b81525f5160206140f75f395f51905f526004820152306024820152906001600160a01b0316602082604481845afa91821561045a575f92611718575b508161169f575050565b6040805163097da6d360e41b81525f5160206140f75f395f51905f526004820152306024820181905260448201525f606482018190526084820194909452929091839182908160a481015b03925af1801561045a576116fc575b50565b6117149060403d604011610fcc57610fbc81836107a4565b5050565b61173291925060203d6020116104535761044581836107a4565b905f611695565b611752915060203d6020116104a15761049381836107a4565b5f61164d565b604051636b2ace8760e01b81526020816004815f5160206141175f395f51905f525afa90811561045a575f9161183f575b50604051633de222bb60e21b81526001600160a01b038381166004830152306024830152919091169190602081604481865afa90811561045a575f91611820575b50806117d557505050565b6040805163097da6d360e41b81526001600160a01b039093166004840152306024840181905260448401525f6064840181905260848401929092529192839182908160a481016116ea565b611839915060203d6020116104535761044581836107a4565b5f6117ca565b611858915060203d6020116104a15761049381836107a4565b5f611789565b6001600160ff1b03811161191f57604061187661132c565b61187e61132c565b906111696118a061188d61134e565b9561151861189a8561139c565b60049052565b6118a98561139c565b526118b38461139c565b506118c66118c0826113ae565b60ff9052565b6118ce61103d565b6118d7856113ae565b526118e1846113ae565b506118ff8351948593849363195bcf5960e21b85526004850161144e565b03815f5f5160206141175f395f51905f525af1801561045a576116fc5750565b6040516367fb15b160e01b815260206004820152601a60248201527f434f4c4c41544552414c5f53484152455f544f4f5f4c415247450000000000006044820152606490fd5b80156116f9576040516370a0823160e01b81523060048201526020816024815f5160206140f75f395f51905f525afa90811561045a575f91611c87575b508015611714575f546119be91906001600160a01b03166121c6565b6116f9576040516370a0823160e01b81523060048201526020816024815f5160206140f75f395f51905f525afa90811561045a575f91611c68575b508015611714575f54611a1591906001600160a01b03166122f5565b6116f9576001546001600160a01b03168015158181611c49575b50611a3f575b506116f990612813565b6040516370a0823160e01b81523060048201526020816024815f5160206140f75f395f51905f525afa90811561045a575f91611c2a575b508015159182611c19575b5050611b95575b6040516370a0823160e01b81523060048201526020816024815f5160206140f75f395f51905f525afa90811561045a575f91611b76575b508015159081611b5a575b50611ad6575b5f611a35565b5f54611aec906108dc906001600160a01b031681565b6040516370a0823160e01b815230600482015290602090829060249082905afa801561045a5782915f91611b3b575b5010801590611b2d575b15611ad05750565b50611b3661253d565b611b25565b611b54915060203d6020116104535761044581836107a4565b5f611b1b565b600154611b7092506001600160a01b03166122f5565b5f611aca565b611b8f915060203d6020116104535761044581836107a4565b5f611abf565b5f54611bab906108dc906001600160a01b031681565b6040516370a0823160e01b815230600482015290602090829060249082905afa801561045a5782915f91611bfa575b5010801590611bec575b15611a885750565b50611bf561253d565b611be4565b611c13915060203d6020116104535761044581836107a4565b5f611bda565b611c2392506121c6565b5f80611a81565b611c43915060203d6020116104535761044581836107a4565b5f611a76565b5f54909150611c60906001600160a01b03166108dc565b14155f611a2f565b611c81915060203d6020116104535761044581836107a4565b5f6119f9565b611ca0915060203d6020116104535761044581836107a4565b5f6119a2565b60405163a9059cbb60e01b602082019081526001600160a01b03909316602482015260448101939093525f928392908390611ce48160648101611169565b51925af1611cf0611051565b81611d35575b5015611cfe57565b60405162461bcd60e51b815260206004820152600f60248201526e1514905394d1915497d19052531151608a1b6044820152606490fd5b8051801592508215611d4a575b50505f611cf6565b611d5d9250602080918301019101611080565b5f80611d42565b6001600160a01b03918216815291811660208301529091166040820152606081019190915260a0608082018190526107e0929101906113d2565b51906001600160801b03821682036101df57565b91908260409103126101df576107e06020611dcc84611d9e565b9301611d9e565b90620186a0820291808304620186a0149015171561083557565b908160011b918083046002149015171561083557565b8181029291811591840414171561083557565b604051636b2ace8760e01b81526020816004815f5160206141175f395f51905f525afa90811561045a575f91612130575b50604051633de222bb60e21b81525f5160206140f75f395f51905f5260048201525f5160206141175f395f51905f5260248201526001600160a01b03919091169190602081604481865afa801561045a57611ee2936020925f92612111575b506040518080968194630acc462360e31b83526004830160405f9193929360608101945f5160206140f75f395f51905f52825260208201520152565b03915afa91821561045a575f926120f0575b50811561130f57604051632ae8093d60e21b81526020816004815f5160206141175f395f51905f525afa90811561045a575f916120d1575b506040805163020a17bd60e61b81529190826004815f5160206141175f395f51905f525afa91821561045a575f905f936120ad575b506040805163e551d11d60e01b815290816004815f5160206141175f395f51905f525afa90811561045a575f905f9261206f575b506001600160801b0392831692168281111561206557611fc0611fbb84611fcf93610867565b611dd3565b611fc98561083a565b9061123b565b868110612056575b506001600160801b0316926001600160801b038403611ff7575b50505050565b6001600160801b03169081612035575050611fc961201761201d93611dd3565b9161083a565b82811061202d575b808080611ff1565b91505f612025565b611fbb611fc99261204c6120179361205197611e03565b61123b565b61201d565b95506001600160801b03611fd7565b505f955050505050565b6001600160801b03925082915061209d9060403d6040116120a6575b61209581836107a4565b810190611db2565b92909150611f95565b503d61208b565b90506120c991925060403d6040116120a65761209581836107a4565b91905f611f61565b6120ea915060203d6020116104535761044581836107a4565b5f611f2c565b61210a91925060203d6020116104535761044581836107a4565b905f611ef4565b612129919250833d85116104535761044581836107a4565b905f611ea6565b612149915060203d6020116104a15761049381836107a4565b5f611e47565b80156121b657604051634ee8f10560e01b602082019081526024808301939093529181525f9182916121826044826107a4565b519082305af1612190611051565b9080156121bb575b6121b657602001516001600160e01b03191663164bd81360e31b1490565b505f90565b506004815110612198565b90801580156122ee575b80156122dd575b80156122be575b61225e57612217816121fd845f5160206140f75f395f51905f52612f3e565b73d9e1ce17f2641f24ae83637ab66a2cca9c378b9f61305b565b6122b7576001600160a01b03821673c02aaa39b223fe8d0a0e5c4f27ead9083c756cc119810161228e575b73dac17f958d2ee523a2206206994597c13d831ec61901612264575b50505f90565b6121fd61227e925f5160206140f75f395f51905f52613229565b612289575f8061225e565b600190565b6122a9826121fd855f5160206140f75f395f51905f526131cb565b15612242575b505050600190565b5050600190565b505f5160206140f75f395f51905f526001600160a01b038316146121de565b506001600160a01b038216156121d7565b505f6121d0565b9080158015612404575b80156123f3575b80156123d4575b61225e576123468161232c845f5160206140f75f395f51905f52612f3e565b737a250d5630b4cf539739df2c5dacb4c659f2488d61305b565b6122b7576001600160a01b03821673c02aaa39b223fe8d0a0e5c4f27ead9083c756cc11981016123ac575b73dac17f958d2ee523a2206206994597c13d831ec619016123925750505f90565b61232c61227e925f5160206140f75f395f51905f52613229565b6123c78261232c855f5160206140f75f395f51905f526131cb565b1561237157505050600190565b505f5160206140f75f395f51905f526001600160a01b0383161461230d565b506001600160a01b03821615612306565b505f6122ff565b801580156124a4575b801561249d575b8015612496575b6121b657612455816121fd73dac17f958d2ee523a2206206994597c13d831ec75f5160206140f75f395f51905f52612f3e565b61249057612488906121fd73dac17f958d2ee523a2206206994597c13d831ec75f5160206140f75f395f51905f526131cb565b612289575f90565b50600190565b505f612422565b505f61241b565b505f612414565b80158015612536575b801561252f575b8015612528575b6121b6576124f58161232c73dac17f958d2ee523a2206206994597c13d831ec75f5160206140f75f395f51905f52612f3e565b612490576124889061232c73dac17f958d2ee523a2206206994597c13d831ec75f5160206140f75f395f51905f526131cb565b505f6124c2565b505f6124bb565b505f6124b4565b6001546001600160a01b031680158181156127f5575b506121b65761256a6001600160a01b0382166108dc565b6040516370a0823160e01b81523060048201529190602090839060249082905afa91821561045a575f926127d4575b50811561225e575f546125b89183916001600160a01b03165b90611118565b5f546001600160a01b03166125cc816108dc565b6040516370a0823160e01b81523060048201529190602090839060249082905afa91821561045a575f926127af575b505f809160405182602082019163b6b55f2560e01b8352612628816111698a602483019190602083019252565b51925af191612635611051565b50821561275b575b821561270d575b82156126bd575b5081612655575090565b5f5490915061266e906108dc906001600160a01b031681565b6040516370a0823160e01b815230600482015290602090829060249082905afa90811561045a575f916126a057501190565b6126b9915060203d6020116104535761044581836107a4565b1190565b5f8054929350918291906001600160a01b031690826040516126f9816111696020820195632967cf8360e21b8752602483019190602083019252565b51925af1612705611051565b50905f61264b565b5f80549193509081906001600160a01b0316604051630ea598cb60e41b60208201908152602482018790529083906127488160448101611169565b51925af1612754611051565b5091612644565b5f80549193509081906001600160a01b0316604051636e553f6560e01b602082019081526024820187905230604483015290839061279c8160648101611169565b51925af16127a8611051565b509161263d565b5f9192506127cc829160203d6020116104535761044581836107a4565b9291506125fb565b6127ee91925060203d6020116104535761044581836107a4565b905f612599565b5f5490915061280c906001600160a01b03166108dc565b145f612553565b6003546001600160a01b0316158015612a86575b8015612a6a575b6121b6576040516370a0823160e01b81523060048201526020816024815f5160206140f75f395f51905f525afa90811561045a575f91612a4b575b50801561225e5761287c6113068261240b565b9081612a37575b506121b6576040516370a0823160e01b815230600482015260208160248173dac17f958d2ee523a2206206994597c13d831ec75afa90811561045a575f91612a18575b50801561225e576004546003546128ed92611306926001600160a01b0392831692166133ea565b6121b6575f54612907906108dc906001600160a01b031681565b6040516370a0823160e01b815230600482015290602090829060249082905afa801561045a5782915f916129f9575b501015612490576003546002546001600160a01b03908116911681141590816129e8575b50806129d7575b6121b6575f5461297b906108dc906001600160a01b031681565b6040516370a0823160e01b815230600482015290602090829060249082905afa90811561045a575f916129b8575b501015612289576107e06139f9565b6129d1915060203d6020116104535761044581836107a4565b5f6129a9565b506129e36113066137f0565b612961565b6129f29150613799565b155f61295a565b612a12915060203d6020116104535761044581836107a4565b5f612936565b612a31915060203d6020116104535761044581836107a4565b5f6128c6565b612a459150611306906124ab565b5f612883565b612a64915060203d6020116104535761044581836107a4565b5f612869565b50600254612a80906001600160a01b03166108dc565b1561282e565b50600454612a9c906001600160a01b03166108dc565b15612827565b5f546001600160a01b0316610c335760405163d8dfeb4560e01b81526020816004815f5160206141175f395f51905f525afa801561045a57612b01915f91612cac575b5060018060a01b03166001600160601b0360a01b5f5416175f55565b5f54612b3690612b19906001600160a01b0316613bfb565b60018060a01b03166001600160601b0360a01b6002541617600255565b600254612b4b906001600160a01b03166108dc565b15612c93575b600254612b8790612b6a906001600160a01b0316613d3d565b60018060a01b03166001600160601b0360a01b6003541617600355565b600354612b9c906001600160a01b03166108dc565b15612c76575b600354612bd890612bbb906001600160a01b0316613e6b565b60018060a01b03166001600160601b0360a01b6004541617600455565b5f54612c0d90612bf0906001600160a01b0316613bfb565b60018060a01b03166001600160601b0360a01b6001541617600155565b600154612c22906001600160a01b03166108dc565b15612c58575b600154612c3d906001600160a01b03166108dc565b15612c4457565b5f54610c33906001600160a01b0316612bf0565b600254612c7190612bf0906001600160a01b0316613bfb565b612c28565b5f54612c8e90612b6a906001600160a01b0316613d3d565b612ba2565b5f54612ca7906001600160a01b0316612b19565b612b51565b612cc5915060203d6020116104a15761049381836107a4565b5f612ae5565b604051636b2ace8760e01b81526020816004815f5160206141175f395f51905f525afa90811561045a575f91612efd575b505f546001600160a01b03918216929116612d16816108dc565b6040516370a0823160e01b81526001600160a01b03851660048201529190602090839060249082905afa91821561045a575f92612edc575b508115612ed557604051630acc462360e31b81526001600160a01b0382166004820152600160248201819052604482015293602085606481845afa94851561045a575f95612eb4575b508415612eab575b828511612ea2575b604051636d289ce560e11b81526001600160a01b0383166004820152602481018690525f6044820152602081606481855afa90811561045a575f91612e83575b5015612df257505050565b612dfb85611ded565b80938111159182612e12575b505090506112ee5750565b604051636d289ce560e11b81526001600160a01b0394909416600485015260248401919091525f604484015260209150829060649082905afa90811561045a575f91612e64575b50151580825f612e07565b612e7d915060203d6020116104535761044581836107a4565b5f612e59565b612e9c915060203d6020116104535761044581836107a4565b5f612de7565b93508193612da7565b60019450612d9f565b612ece91955060203d6020116104535761044581836107a4565b935f612d97565b505f925050565b612ef691925060203d6020116104535761044581836107a4565b905f612d4e565b612f16915060203d6020116104a15761049381836107a4565b5f612cfc565b60405160809190612f2d83826107a4565b6003815291601f1901366020840137565b9190612f4861132c565b928351156113a9576001600160a01b031660208401528251600110156113a9576001600160a01b03166040830152565b6020818303126101df5780519067ffffffffffffffff82116101df57019080601f830112156101df578151612fac81611314565b92612fba60405194856107a4565b81845260208085019260051b8201019283116101df57602001905b828210612fe25750505090565b8151815260209182019101612fd5565b91909493929460a083019083525f602084015260a060408401528151809152602060c084019201905f5b81811061303c575050506001600160a01b03909416606082015260800152565b82516001600160a01b031684526020938401939092019160010161301c565b9190811561315157600281511080156131af575b801561318a575b61315157823b158015613177575b613151576130a76108dc6108dc61309a8461139c565b516001600160a01b031690565b6040516370a0823160e01b815230600482015290602090829060249082905afa801561045a5783915f91613158575b50106131515782826130f35f946131149661092961309a8761139c565b836040518096819582946338ed173960e01b84524291309160048601612ff2565b03926001600160a01b03165af19081613131575b50612289575f90565b61314c903d805f833e61314481836107a4565b810190612f78565b613128565b5050505f90565b613171915060203d6020116104535761044581836107a4565b5f6130d6565b506131856113068285613f11565b613084565b5060018060a01b036131a861309a6131a28451610859565b846113be565b1615613076565b506001600160a01b036131c461309a8361139c565b161561306f565b91906131d5612f1c565b928351156113a9576001600160a01b031660208401528251600110156113a95773c02aaa39b223fe8d0a0e5c4f27ead9083c756cc260408401528251600210156113a9576001600160a01b03166060830152565b9190613233612f1c565b928351156113a9576001600160a01b031660208401528251600110156113a95773dac17f958d2ee523a2206206994597c13d831ec760408401528251600210156113a9576001600160a01b03166060830152565b60409081519161329781846107a4565b368337565b604051906132ab6060836107a4565b6060368337565b604051906132c16080836107a4565b6080368337565b604051906132d760a0836107a4565b60a0368337565b9060028110156113a95760051b0190565b6060810192915f825b6002821061330b5750505060405f910152565b60208060019285518152019301910190916132f8565b9060038110156113a95760051b0190565b6080810192915f825b6003821061334e5750505060605f910152565b602080600192855181520193019101909161333b565b9060048110156113a95760051b0190565b60a0810192915f825b600482106133915750505060805f910152565b602080600192855181520193019101909161337e565b9060058110156113a95760051b0190565b60c0810192915f825b600582106133d45750505060a05f910152565b60208060019285518152019301910190916133c1565b9061340a818373dac17f958d2ee523a2206206994597c13d831ec7611118565b5f5b6006811061341c57505050505f90565b73dac17f958d2ee523a2206206994597c13d831ec76001600160a01b03613443838661403a565b1603613791576040516370a0823160e01b81523060048201526001600160a01b03851690602081602481855afa90811561045a575f91613773575b50600283106136c5575b60038310613617575b6004831061356a575b600583106134af575b50506001905b0161340c565b5f806134b96132c8565b866134c487836133a7565b526040516134e7816111696020820194638473849960e01b8652602483016133b8565b519082895af1916134f6611051565b5082613513575b505061350a575f806134a3565b50505050600190565b6040516370a0823160e01b8152306004820152919250602090829060249082905afa90811561045a575f9161354c575b50115f806134fd565b613564915060203d81116104535761044581836107a4565b5f613543565b5f806135746132b2565b8661357f8783613364565b526040516135a181611169602082019462a6cbcd60e21b865260248301613375565b519082895af16135af611051565b50806135c6575b1561349a57505050505050600190565b506040516370a0823160e01b8152306004820152602081602481865afa801561045a5782915f916135f9575b50116135b6565b613611915060203d81116104535761044581836107a4565b5f6135f2565b5f8061362161329c565b8661362c8783613321565b5260405161364f816111696020820194634515cef360e01b865260248301613332565b519082895af161365d611051565b5080613674575b1561349157505050505050600190565b506040516370a0823160e01b8152306004820152602081602481865afa801561045a5782915f916136a7575b5011613664565b6136bf915060203d81116104535761044581836107a4565b5f6136a0565b5f806136cf613287565b866136da87836132de565b526040516136fd816111696020820194630b4c7e4d60e01b8652602483016132ef565b519082895af161370b611051565b5080613722575b1561348857505050505050600190565b506040516370a0823160e01b8152306004820152602081602481865afa801561045a5782915f91613755575b5011613712565b61376d915060203d81116104535761044581836107a4565b5f61374e565b61378b915060203d81116104535761044581836107a4565b5f61347e565b6001906134a9565b6001600160a01b031680156121b6576020602491604051928380926370a0823160e01b82523060048301525afa90811561045a575f916137d7575090565b6107e0915060203d6020116104535761044581836107a4565b6003546001600160a01b031680158181156139da575b81156139bb575b506121b6576138246001600160a01b0382166108dc565b6040516370a0823160e01b81523060048201529190602090839060249082905afa91821561045a575f9261399a575b50811561225e576002546138719183916001600160a01b03166125b2565b6002546001600160a01b0316613886816108dc565b6040516370a0823160e01b81523060048201529190602090839060249082905afa91821561045a575f92613975575b505f809160405182602082019163b6b55f2560e01b83526138e2816111698a602483019190602083019252565b51925af1916138ef611051565b50821561391b575b5081613901575090565b60025490915061266e906108dc906001600160a01b031681565b6002549192505f918291906001600160a01b0316604051636e553f6560e01b60208201908152602482019390935230604482015290919083906139618160648101611169565b51925af161396d611051565b50905f6138f7565b5f919250613992829160203d6020116104535761044581836107a4565b9291506138b5565b6139b491925060203d6020116104535761044581836107a4565b905f613853565b6002549091506139d3906001600160a01b03166108dc565b145f61380d565b6002549091506139f2906001600160a01b03166108dc565b1590613806565b6002546001600160a01b03168015818115613bdd575b506121b657613a266001600160a01b0382166108dc565b6040516370a0823160e01b81523060048201529190602090839060249082905afa91821561045a575f92613bbc575b50811561225e575f54613a729183916001600160a01b03166125b2565b5f546001600160a01b0316613a86816108dc565b6040516370a0823160e01b81523060048201529190602090839060249082905afa91821561045a575f92613b97575b505f809160405182602082019163b6b55f2560e01b8352613ae2816111698a602483019190602083019252565b51925af191613aef611051565b508215613b43575b8215613b07575081612655575090565b5f8054929350918291906001600160a01b031690826040516126f981611169602082019563534a7e1d60e11b8752602483019190602083019252565b5f80549193509081906001600160a01b0316604051636e553f6560e01b6020820190815260248201879052306044830152908390613b848160648101611169565b51925af1613b90611051565b5091613af7565b5f919250613bb4829160203d6020116104535761044581836107a4565b929150613ab5565b613bd691925060203d6020116104535761044581836107a4565b905f613a55565b5f54909150613bf4906001600160a01b03166108dc565b145f613a0f565b6001600160a01b038116156121b6576040516338d52e0f60e01b602082015260048152613c3390613c2d6024826107a4565b826140a7565b6001600160a01b038116613d385750604051637e062a3560e11b602082015260048152613c6590613c2d6024826107a4565b6001600160a01b038116613d385750604051636f307dc360e01b602082015260048152613c9790613c2d6024826107a4565b6001600160a01b038116613d3857506040516372f702f360e01b602082015260048152613cc990613c2d6024826107a4565b6001600160a01b038116613d38575060405163c89039c560e01b602082015260048152613cfb90613c2d6024826107a4565b906001600160a01b038216613d3457604051631f1fcd5160e01b6020820152600481526107e0925090613d2f6024836107a4565b6140a7565b5090565b905090565b6001600160a01b038116156121b65760405163646780df60e01b602082015260048152613d6f90613c2d6024826107a4565b6001600160a01b038116613d3857506040516313ce416760e21b602082015260048152613da190613c2d6024826107a4565b6001600160a01b038116613d385750604051634163183360e11b602082015260048152613dd390613c2d6024826107a4565b6001600160a01b038116613d385750604051637e062a3560e11b602082015260048152613e0590613c2d6024826107a4565b6001600160a01b038116613d385750604051636f307dc360e01b602082015260048152613e3790613c2d6024826107a4565b906001600160a01b038216613d34576040516338d52e0f60e01b6020820152600481526107e0925090613d2f6024836107a4565b6001600160a01b038116156121b6576040516303aa30b960e11b602082015260048152613e9d90613c2d6024826107a4565b6001600160a01b038116613d3857506040516316f0115b60e01b602082015260048152613ecf90613c2d6024826107a4565b906001600160a01b038216613d3457604051638119c06560e01b6020820152600481526107e0925090613d2f6024836107a4565b5f1981146108355760010190565b600282511061225e5760405163c45a015560e01b815290602090829060049082906001600160a01b03165afa5f9181614019575b50613f505750505f90565b90813b1561225e575f5b613f6381610827565b825111156122af57613fc26020613f7d61309a84866113be565b613f9261309a613f8c86610827565b876113be565b60405163e6a4390560e01b81526001600160a01b0392831660048201529116602482015291829081906044820190565b03816001600160a01b0388165afa90811561045a575f91613ffb575b506001600160a01b03161561315157613ff690613f03565b613f5a565b614013915060203d81116104a15761049381836107a4565b5f613fde565b61403391925060203d6020116104a15761049381836107a4565b905f613f45565b9061406960405163c661065760e01b6020820152826024820152602481526140636044826107a4565b836140a7565b916001600160a01b0383166140a2576107e0925060405191630b9947eb60e41b6020840152602483015260248252613d2f6044836107a4565b505090565b91905f80918194602082519201905afa6140bf611051565b90806140ea575b6140cd5750565b9091506020818051810103126101df57602001516108dc8161025e565b506020815110156140c656fe00000000000000000000000099d8a9c45b2eca8864373a26d1459e3dff1e17f300000000000000000000000046f54d434063e5f1a2b2cc6d9aaa657b1b9ff82ca2646970667358221220125817b5e446b3a2993ad2bacfe8ba411a5e0b96556204ba8e7f52b9b6a1ef2964736f6c634300081e0033","linkReferences":{}},"methodIdentifiers":{"DAI()":"e0bab4c4","MIM()":"daec383d","SUSHI_ROUTER()":"0c24f4fa","TARGET()":"cc1f2afa","TARGET_CAULDRON()":"bd7a598c","UNISWAP_V2_ROUTER()":"a82ed9ec","USDC()":"89a30271","USDT()":"c54e44eb","WETH()":"ad5c4648","collateralToken()":"b2016bd4","convexDepositToken()":"5eb143ce","curveLpToken()":"646780df","curvePool()":"218751b2","execute()":"61461954","executeOnOpportunity()":"3c2448ed","exploit()":"63d9b770","flashAmount()":"b570137a","flashFee()":"e07df5b4","hypothesisValidated()":"463defd1","lastBorrowAmount()":"ca8ccab6","lastBorrowPart()":"a6e59f53","onFlashLoan(address,address,uint256,uint256,bytes)":"23e30c8b","probeBorrow(uint256)":"4ee8f105","profitAmount()":"5ff972cc","profitToken()":"49343624","run()":"c0406226","underlyingToken()":"2495a599","usedBorrowThenAccruePath()":"2900951a","usedRemoveThenUnsupportedPath()":"15aa44bd"},"id":0}