{"abi":[{"type":"constructor","inputs":[{"name":"_attacker","type":"address","internalType":"address"}],"stateMutability":"nonpayable"},{"type":"function","name":"attacker","inputs":[],"outputs":[{"name":"","type":"address","internalType":"address"}],"stateMutability":"view"},{"type":"function","name":"caller","inputs":[],"outputs":[{"name":"","type":"address","internalType":"address"}],"stateMutability":"pure"},{"type":"function","name":"getRelationsREF","inputs":[{"name":"","type":"address","internalType":"address"}],"outputs":[{"name":"refs","type":"address[2]","internalType":"address[2]"}],"stateMutability":"view"},{"type":"function","name":"getUserInTeamByIndex","inputs":[{"name":"","type":"address","internalType":"address"},{"name":"","type":"uint256","internalType":"uint256"}],"outputs":[{"name":"","type":"address","internalType":"address"}],"stateMutability":"pure"},{"type":"function","name":"isKnown","inputs":[{"name":"","type":"address","internalType":"address"}],"outputs":[{"name":"","type":"bool","internalType":"bool"}],"stateMutability":"view"},{"type":"function","name":"isSetted","inputs":[{"name":"wallet","type":"address","internalType":"address"}],"outputs":[{"name":"","type":"bool","internalType":"bool"}],"stateMutability":"view"},{"type":"function","name":"owner","inputs":[],"outputs":[{"name":"","type":"address","internalType":"address"}],"stateMutability":"view"},{"type":"function","name":"referralLevel","inputs":[],"outputs":[{"name":"","type":"uint256","internalType":"uint256"}],"stateMutability":"pure"},{"type":"function","name":"relations","inputs":[{"name":"","type":"address","internalType":"address"},{"name":"","type":"uint256","internalType":"uint256"}],"outputs":[{"name":"","type":"address","internalType":"address"}],"stateMutability":"view"},{"type":"function","name":"renounceOwnership","inputs":[],"outputs":[],"stateMutability":"pure"},{"type":"function","name":"setReferral","inputs":[{"name":"","type":"address","internalType":"address"},{"name":"to","type":"address","internalType":"address"}],"outputs":[],"stateMutability":"nonpayable"},{"type":"function","name":"teamSize","inputs":[{"name":"","type":"address","internalType":"address"}],"outputs":[{"name":"","type":"uint256","internalType":"uint256"}],"stateMutability":"pure"},{"type":"function","name":"updateSetted","inputs":[{"name":"wallet","type":"address","internalType":"address"}],"outputs":[],"stateMutability":"nonpayable"}],"bytecode":{"object":"0x60a034607457601f61041f38819003918201601f19168301916001600160401b03831184841017607857808492602094604052833981010312607457516001600160a01b0381168103607457608052604051610392908161008d823960805181818161013c015281816101d0015261032d0152f35b5f80fd5b634e487b7160e01b5f52604160045260245ffdfe60806040526004361015610011575f80fd5b5f3560e01c80630470031f146102c357806348eb76ee1461018f5780635a1d5e9b146102aa5780636e09999e146100c6578063715018a6146102985780637543e3f0146102475780637ea62141146101945780638da5cb5b1461018f57806390b182f41461016b578063bcafddd31461011d578063c67ea3ee14610102578063e8a293ee146100c65763fc9c8d39146100a8575f80fd5b346100c2575f3660031901126100c25760206040515f8152f35b5f80fd5b346100c25760203660031901126100c2576001600160a01b036100e7610302565b165f525f602052602060ff60405f2054166040519015158152f35b346100c2575f3660031901126100c257602060405160028152f35b346100c25760403660031901126100c257610136610302565b506040517f00000000000000000000000000000000000000000000000000000000000000006001600160a01b03168152602090f35b346100c25760403660031901126100c257610184610302565b5060206040515f8152f35b610318565b346100c25760203660031901126100c2576101ad610302565b506040805181810181811067ffffffffffffffff821117610233578252813682377f00000000000000000000000000000000000000000000000000000000000000006001600160a01b031680825260208201528151905f825b6002821061021357505050f35b82516001600160a01b031681526020928301926001929092019101610206565b634e487b7160e01b5f52604160045260245ffd5b346100c25760403660031901126100c257610260610302565b506024356001600160a01b03811681036100c2576001600160a01b03165f908152602081905260409020805460ff191660011790555b005b346100c2575f3660031901126100c257005b346100c25760203660031901126100c257610184610302565b346100c25760203660031901126100c2576102966102df610302565b6001600160a01b03165f908152602081905260409020805460ff19166001179055565b600435906001600160a01b03821682036100c257565b346100c2575f3660031901126100c2576040517f00000000000000000000000000000000000000000000000000000000000000006001600160a01b03168152602090f3fea2646970667358221220217e64f1369c05a5302bb2980b255f138dd130be5cd461de1167f5a2b806d78e64736f6c634300081e0033","linkReferences":{}},"methodIdentifiers":{"attacker()":"48eb76ee","caller()":"fc9c8d39","getRelationsREF(address)":"7ea62141","getUserInTeamByIndex(address,uint256)":"90b182f4","isKnown(address)":"6e09999e","isSetted(address)":"e8a293ee","owner()":"8da5cb5b","referralLevel()":"c67ea3ee","relations(address,uint256)":"bcafddd3","renounceOwnership()":"715018a6","setReferral(address,address)":"7543e3f0","teamSize(address)":"5a1d5e9b","updateSetted(address)":"0470031f"},"id":0}