{"abi":[{"type":"constructor","inputs":[],"stateMutability":"nonpayable"},{"type":"function","name":"activeMaliciousReferral","inputs":[],"outputs":[{"name":"","type":"address","internalType":"address"}],"stateMutability":"view"},{"type":"function","name":"brickModeValidated","inputs":[],"outputs":[{"name":"","type":"bool","internalType":"bool"}],"stateMutability":"view"},{"type":"function","name":"claimsAttempted","inputs":[],"outputs":[{"name":"","type":"uint256","internalType":"uint256"}],"stateMutability":"view"},{"type":"function","name":"claimsSucceeded","inputs":[],"outputs":[{"name":"","type":"uint256","internalType":"uint256"}],"stateMutability":"view"},{"type":"function","name":"coveredPathsMask","inputs":[],"outputs":[{"name":"","type":"uint256","internalType":"uint256"}],"stateMutability":"view"},{"type":"function","name":"executeOnOpportunity","inputs":[],"outputs":[],"stateMutability":"nonpayable"},{"type":"function","name":"executed","inputs":[],"outputs":[{"name":"","type":"bool","internalType":"bool"}],"stateMutability":"view"},{"type":"function","name":"hypothesisValidated","inputs":[],"outputs":[{"name":"","type":"bool","internalType":"bool"}],"stateMutability":"view"},{"type":"function","name":"infeasibleReason","inputs":[],"outputs":[{"name":"","type":"uint256","internalType":"uint256"}],"stateMutability":"view"},{"type":"function","name":"initialMaliciousReferral","inputs":[],"outputs":[{"name":"","type":"address","internalType":"address"}],"stateMutability":"view"},{"type":"function","name":"lastVictim","inputs":[],"outputs":[{"name":"","type":"address","internalType":"address"}],"stateMutability":"view"},{"type":"function","name":"liveReferralAfter","inputs":[],"outputs":[{"name":"","type":"address","internalType":"address"}],"stateMutability":"view"},{"type":"function","name":"liveReferralBefore","inputs":[],"outputs":[{"name":"","type":"address","internalType":"address"}],"stateMutability":"view"},{"type":"function","name":"ownerControlValidated","inputs":[],"outputs":[{"name":"","type":"bool","internalType":"bool"}],"stateMutability":"view"},{"type":"function","name":"profitAmount","inputs":[],"outputs":[{"name":"","type":"uint256","internalType":"uint256"}],"stateMutability":"view"},{"type":"function","name":"profitToken","inputs":[],"outputs":[{"name":"","type":"address","internalType":"address"}],"stateMutability":"view"},{"type":"function","name":"referralSeized","inputs":[],"outputs":[{"name":"","type":"bool","internalType":"bool"}],"stateMutability":"view"},{"type":"function","name":"replaceRewardReferral","inputs":[{"name":"nextReferral","type":"address","internalType":"address"}],"outputs":[],"stateMutability":"nonpayable"},{"type":"function","name":"rewardToken","inputs":[],"outputs":[{"name":"","type":"address","internalType":"address"}],"stateMutability":"view"},{"type":"function","name":"setBrickMode","inputs":[{"name":"enabled","type":"bool","internalType":"bool"}],"outputs":[],"stateMutability":"nonpayable"},{"type":"function","name":"stakingToken","inputs":[],"outputs":[{"name":"","type":"address","internalType":"address"}],"stateMutability":"view"},{"type":"function","name":"targetPool","inputs":[],"outputs":[{"name":"","type":"address","internalType":"address"}],"stateMutability":"view"},{"type":"function","name":"targetRewards","inputs":[],"outputs":[{"name":"","type":"address","internalType":"address"}],"stateMutability":"view"}],"bytecode":{"object":"0x608080604052346026575f80546001600160a01b031916331790556127b4908161002b8239f35b5f80fdfe6080806040526004361015610012575f80fd5b5f905f3560e01c9081632660bbf4146105815750806331a38c891461055f57806338795b8d146105375780633c2448ed1461051f5780633ee06a05146104f7578063463defd1146104d25780634781124514610437578063493436241461040e5780635d8a2d6d146103e55780635ff972cc146103c75780636ec844b5146103a157806372f702f3146103785780637fc548291461035a5780638444df3f14610331578063a2cdfe151461030c578063a6652157146102ee578063c80fcefd146102c5578063cb24db7d1461029c578063cbc68e50146101ab578063e60e241714610182578063ef252c7a14610164578063f4ea0c82146101465763f7c618c11461011b575f80fd5b34610143578060031936011261014357600d546040516001600160a01b039091168152602090f35b80fd5b50346101435780600319360112610143576020600954604051908152f35b50346101435780600319360112610143576020600654604051908152f35b5034610143578060031936011261014357600a546040516001600160a01b039091168152602090f35b5034610143576020366003190112610143576004356001600160a01b03811690819003610298576101e660018060a01b0383541633146110e9565b6011546001600160a01b03161561025b57600b5482916001600160a01b0390911690813b15610257578291602483926040519485938492633b9fa00760e11b845260048401525af1801561024c5761023b5750f35b81610245916105a3565b6101435780f35b6040513d84823e3d90fd5b5050fd5b60405162461bcd60e51b81526020600482015260156024820152741b9bc81b585b1a58da5bdd5cc81c9959995c9c985b605a1b6044820152606490fd5b5080fd5b5034610143578060031936011261014357600f546040516001600160a01b039091168152602090f35b50346101435780600319360112610143576011546040516001600160a01b039091168152602090f35b50346101435780600319360112610143576020600854604051908152f35b5034610143578060031936011261014357602060ff600554821c166040519015158152f35b5034610143578060031936011261014357600b546040516001600160a01b039091168152602090f35b50346101435780600319360112610143576020600754604051908152f35b5034610143578060031936011261014357600c546040516001600160a01b039091168152602090f35b5034610143578060031936011261014357602060ff60055460181c166040519015158152f35b50346101435780600319360112610143576020600454604051908152f35b50346101435780600319360112610143576012546040516001600160a01b039091168152602090f35b50346101435780600319360112610143576001546040516001600160a01b039091168152602090f35b50346104ce5760203660031901126104ce576004358015158091036104ce5761046a60018060a01b035f541633146110e9565b6011546001600160a01b03169081610480578280f35b813b156104ce575f91602483926040519485938492634781124560e01b845260048401525af180156104c3576104b557808280f35b6104c191505f906105a3565b005b6040513d5f823e3d90fd5b5f80fd5b346104ce575f3660031901126104ce57602060ff60055460081c166040519015158152f35b346104ce575f3660031901126104ce576010546040516001600160a01b039091168152602090f35b346104ce575f3660031901126104ce576104c161062c565b346104ce575f3660031901126104ce57600e546040516001600160a01b039091168152602090f35b346104ce575f3660031901126104ce57602060ff600554166040519015158152f35b346104ce575f3660031901126104ce5760209060ff60055460101c1615158152f35b90601f8019910116810190811067ffffffffffffffff8211176105c557604052565b634e487b7160e01b5f52604160045260245ffd5b51906001600160a01b03821682036104ce57565b3d15610627573d9067ffffffffffffffff82116105c5576040519161061c601f8201601f1916602001846105a3565b82523d5f602084013e565b606090565b60055460ff5f91166110e0576005805460ff19166001179055604051634a6634cf60e11b81526020816004817304c80bb477890f3021f03b068238836ee20aa0b85afa9081156104c3575f916110a6575b50600a80546001600160a01b0319166001600160a01b03929092169182179055801561109d576040516345e35f5960e11b8152602081600481855afa9081156104c3575f9161105e575b50600b80546001600160a01b0319166001600160a01b0390921691821790556040516372f702f360e01b81529091602090829060049082905afa9081156104c3575f91611024575b5060018060a01b03166001600160601b0360a01b600c541617600c55801561101b5760405163d1af0c7d60e01b8152602081600481855afa9081156104c3575f91610fdc575b50602060249160018060a01b0316806001600160601b0360a01b600d541617600d55806001600160601b0360a01b6001541617600155604051928380926370a0823160e01b82523060048301525afa9081156104c3575f91610faa575b506002556040516370a0823160e01b815230600482015260208160248173c02aaa39b223fe8d0a0e5c4f27ead9083c756cc25afa9081156104c3575f91610f78575b50600355604051631441a5a960e01b8152602081600481855afa9081156104c3575f91610f3e575b5060018060a01b03166001600160601b0360a01b600e541617600e556040516106ae8082019180831067ffffffffffffffff8411176105c557806120d1938385833903905ff080156104c357601080546001600160a01b039283166001600160a01b031991821681179092556011805490911682179055600e549093911680610f215750833b156104ce57604051633b9fa00760e11b8152600481018490525f8160248183895af180156104c357610f0c575b50604051631441a5a960e01b8152602081600481885afa908115610ea6579084918791610ed0575b50600f80546001600160a01b0319166001600160a01b0392909216918217905514610eb1575b60ff60055460101c16610c90575b50506011546001600160a01b031691905081610983575b50505061094d6113f5565b600180546001600160a01b03191673c02aaa39b223fe8d0a0e5c4f27ead9083c756cc2179055600354600255610981611126565b565b61098c816111cd565b906001600160a01b0382168015610c50576001600160601b0360a01b6012541617601255823b15610c1257604051634781124560e01b815260016004820152848160248183885af18015610c1657908591610c3b575b505060065460018101809111610be9576006556011546040516324a9e3c160e11b602082019081526001600160a01b038581166024840152909216604480830191909152815285918291610a376064826105a3565b519082855af1610a456105ed565b5015610c21575b823b15610c1257604051634781124560e01b815260048101859052848160248183885af18015610c1657908591610bfd575b505060065460018101809111610be9576006556011546001600160a01b031691813b15610be5576040516324a9e3c160e11b81526001600160a01b03918216600482015292166024830152839081908390604490829084905af19182610bcc575b5050610b2e575b505060055460ff8160201c168015610b23575b610b08575b505b5f8080610942565b61ff001916610100176005556009805460041790555f610afe565b506007541515610af9565b600d546040516312c41b7f60e11b81526001600160a01b039091166004820152306024820152906020908290604490829086905af1801561024c57610b9d575b506007549060018201809211610b8957506007555f80610ae6565b634e487b7160e01b81526011600452602490fd5b6020813d602011610bc4575b81610bb6602093836105a3565b810103126104ce5751610b6e565b3d9150610ba9565b81610bd6916105a3565b610be157825f610adf565b8280fd5b8480fd5b634e487b7160e01b85526011600452602485fd5b81610c07916105a3565b610c1257835f610a7e565b8380fd5b6040513d87823e3d90fd5b64010000000064ff00000000196005541617600555610a4c565b81610c45916105a3565b610c1257835f6109e2565b505050505060055460ff8160181c168015610c83575b610c71575b50610b00565b61ff001916610100176005555f610c6b565b5060ff8160101c16610c66565b604051638da5cb5b60e01b8152602081600481875afa908115610ea6578691610e68575b506001600160a01b03163014610d0a575b505060ff60055460181c1615610cdd575b808061092b565b806001600160601b0360a01b60115416176011556001600160601b0360a01b600f541617600f555f610cd6565b604051918083019183831067ffffffffffffffff841117610e5457908392918339039084f08015610e49576001600160a01b0316823b15610c1257604051633b9fa00760e11b815260048101829052848160248183885af18015610c1657908591610e34575b5050604051631441a5a960e01b8152602081600481875afa908115610c16579082918691610df8575b506001600160a01b031614610daf575b80610cc5565b806001600160601b0360a01b60115416176011556001600160601b0360a01b600f541617600f55630100000063ff0000001960055416176005556002600954176009555f610da9565b9150506020813d602011610e2c575b81610e14602093836105a3565b81010312610be557610e2682916105d9565b5f610d99565b3d9150610e07565b81610e3e916105a3565b610c1257835f610d70565b6040513d85823e3d90fd5b634e487b7160e01b87526041600452602487fd5b90506020813d602011610e9e575b81610e83602093836105a3565b81010312610e9a57610e94906105d9565b5f610cb4565b8580fd5b3d9150610e76565b6040513d88823e3d90fd5b6201010062ffff0019600554161760055560016009541760095561091d565b9150506020813d602011610f04575b81610eec602093836105a3565b81010312610e9a57610efe84916105d9565b5f6108f7565b3d9150610edf565b610f199195505f906105a3565b5f935f6108cf565b6001600160601b0360a01b600f541617600f55600160085561091d565b90506020813d602011610f70575b81610f59602093836105a3565b810103126104ce57610f6a906105d9565b5f61081c565b3d9150610f4c565b90506020813d602011610fa2575b81610f93602093836105a3565b810103126104ce57515f6107f4565b3d9150610f86565b90506020813d602011610fd4575b81610fc5602093836105a3565b810103126104ce57515f6107b2565b3d9150610fb8565b90506020813d602011611013575b81610ff7602093836105a3565b810103126104ce57602061100c6024926105d9565b9150610755565b3d9150610fea565b5050605b600855565b90506020813d602011611056575b8161103f602093836105a3565b810103126104ce57611050906105d9565b5f61070f565b3d9150611032565b90506020813d602011611095575b81611079602093836105a3565b810103126104ce57602061108e6004926105d9565b91506106c7565b3d915061106c565b5050605a600855565b90506020813d6020116110d8575b816110c1602093836105a3565b810103126104ce576110d2906105d9565b5f61067d565b3d91506110b4565b50610981611126565b156110f057565b60405162461bcd60e51b815260206004820152600e60248201526d3737ba1031b7b73a3937b63632b960911b6044820152606490fd5b6001546001600160a01b03168015611194576020602491604051928380926370a0823160e01b82523060048301525afa9081156104c3575f9161119b575b5060025481111561119457600254810390811161118057600455565b634e487b7160e01b5f52601160045260245ffd5b505f600455565b90506020813d6020116111c5575b816111b6602093836105a3565b810103126104ce57515f611164565b3d91506111a9565b6111d6816115b0565b6001600160a01b03811661137a5750600a546111fb906001600160a01b031682611795565b6001600160a01b03811661137a5750600b54611220906001600160a01b031682611795565b6001600160a01b03811661137a57505f54611244906001600160a01b031682611795565b6001600160a01b03811661137a5750600d54611269906001600160a01b031682611795565b6001600160a01b03811661137a5750600c5461128e906001600160a01b031682611795565b6001600160a01b03811661137a5750600a546040516390eb391160e01b815290602090829060049082906001600160a01b03165afa80156104c3575f906113ba575b6112db915082611795565b6001600160a01b03811661137a5750600a5460405163da0e1dab60e01b815290602090829060049082906001600160a01b03165afa80156104c3575f9061137f575b611328915082611795565b6001600160a01b03811661137a5750600e5461134d906001600160a01b0316826118eb565b906001600160a01b0382166113765760115461137392506001600160a01b0316906118eb565b90565b5090565b905090565b506020813d6020116113b2575b81611399602093836105a3565b810103126104ce576113ad611328916105d9565b61131d565b3d915061138c565b506020813d6020116113ed575b816113d4602093836105a3565b810103126104ce576113e86112db916105d9565b6112d0565b3d91506113c7565b6113fd611b70565b6001600160a01b03811680156115a95773c02aaa39b223fe8d0a0e5c4f27ead9083c756cc2146115ad576114313082611bde565b80156115a9576114e7905f80604051602081019063095ea7b360e01b8252737a250d5630b4cf539739df2c5dacb4c659f2488d60248201528260448201526044815261147e6064826105a3565b519082875af15061148d6105ed565b505f80604051602081019063095ea7b360e01b8252737a250d5630b4cf539739df2c5dacb4c659f2488d6024820152846044820152604481526114d16064826105a3565b519082875af1506114e06105ed565b5082611c93565b6114f13082611bde565b806114fa575050565b610981915f80604051602081019063095ea7b360e01b825273d9e1ce17f2641f24ae83637ab66a2cca9c378b9f6024820152826044820152604481526115416064826105a3565b519082855af1506115506105ed565b505f80604051602081019063095ea7b360e01b825273d9e1ce17f2641f24ae83637ab66a2cca9c378b9f6024820152856044820152604481526115946064826105a3565b519082855af1506115a36105ed565b50611d92565b5050565b50565b307304c80bb477890f3021f03b068238836ee20aa0b814801561176d575b8015611726575b6116ed577304c80bb477890f3021f03b068238836ee20aa0b85f52601360205260405f20600160ff1982541617905560018060a01b031660405163673e156160e11b81527304c80bb477890f3021f03b068238836ee20aa0b86004820152602081602481855afa5f91816116f2575b5061164f5750505f90565b156116ed576020602491604051928380926389d9691760e01b82527304c80bb477890f3021f03b068238836ee20aa0b860048301525afa5f91816116b9575b5061169857505f90565b156116b5577304c80bb477890f3021f03b068238836ee20aa0b890565b5f90565b9091506020813d6020116116e5575b816116d5602093836105a3565b810103126104ce5751905f61168e565b3d91506116c8565b505f90565b9091506020813d60201161171e575b8161170e602093836105a3565b810103126104ce5751905f611644565b3d9150611701565b507304c80bb477890f3021f03b068238836ee20aa0b85f5260136020527f22b95fbbe4d2542bcac3171ec350c327e39dcbd74229c0351f1722daa6aadf675460ff166115d5565b50600b546001600160a01b03167304c80bb477890f3021f03b068238836ee20aa0b8146115ce565b6001600160a01b03821690811580156118e2575b80156118ce575b80156118b8575b61187d57815f52601360205260405f20600160ff1982541617905560018060a01b03169060405163673e156160e11b8152816004820152602081602481865afa5f9181611884575b5061180c57505050505f90565b1561187d576020906024604051809481936389d9691760e01b835260048301525afa5f9181611849575b506118415750505f90565b156116ed5790565b9091506020813d602011611875575b81611865602093836105a3565b810103126104ce5751905f611836565b3d9150611858565b5050505f90565b9091506020813d6020116118b0575b816118a0602093836105a3565b810103126104ce5751905f6117ff565b3d9150611893565b50815f52601360205260ff60405f2054166117b7565b50600b546001600160a01b031682146117b0565b503082146117a9565b906001600160a01b03811690811561187d57604051638da5cb5b60e01b8152602081600481865afa5f9181611b34575b50611b14575b5060405163fc9c8d3960e01b81528290602081600481855afa5f9181611ad6575b50611aaf575b506119539184611e91565b6001600160a01b038116611aa95750604051635a1d5e9b60e01b815260048101829052602081602481855afa5f9181611a75575b50611993575050505f90565b6008811115611a6f57506008905b5f5b8281106119b1575b5061187d565b60405163242c60bd60e21b81526004810183905260248101829052602081604481865afa5f9181611a34575b506119e857506119ab565b6119f28186611795565b6001600160a01b038116611a2b575082611a0c9186611e91565b6001600160a01b038116611a2357506001016119a3565b935050505090565b94505050505090565b9091506020813d8211611a67575b81611a4f602093836105a3565b810103126104ce57611a60906105d9565b905f6119dd565b3d9150611a42565b906119a1565b9091506020813d602011611aa1575b81611a91602093836105a3565b810103126104ce5751905f611987565b3d9150611a84565b91505090565b611aba915084611795565b6001600160a01b038116611acf578290611948565b9250505090565b925090506020823d602011611b0c575b81611af3602093836105a3565b810103126104ce57611b0584926105d9565b905f611942565b3d9150611ae6565b611b1e9084611795565b6001600160a01b03811615611921579250505090565b9091506020813d602011611b68575b81611b50602093836105a3565b810103126104ce57611b61906105d9565b905f61191b565b3d9150611b43565b5f80604051602081019063124d0d8960e21b825260048152611b936024826105a3565b5190305afa611ba06105ed565b90158015611bd3575b6116ed576020818051810103126104ce57602001516001600160a01b038116908190036104ce5790565b506020815110611ba9565b906001600160a01b03821615611c5c575f91829160405160208101916370a0823160e01b835260018060a01b0316602482015260248152611c206044826105a3565b51915afa611c2c6105ed565b90158015611c51575b6116ed57602081519181808201938492010103126104ce575190565b506020815110611c35565b50505f90565b805115611c6f5760200190565b634e487b7160e01b5f52603260045260245ffd5b805160011015611c6f5760400190565b9080156115a95760405191611ca96060846105a3565b6002835260208301906040368337611cc084611c62565b6001600160a01b03909116905273c02aaa39b223fe8d0a0e5c4f27ead9083c756cc2611ceb84611c83565b52604051916020830193635c11d79560e01b855260c484019160248501525f604485015260a060648501525180915260e4830191905f5b818110611d73575050509181611d505f949385943060848301524260a483015203601f1981018352826105a3565b519082737a250d5630b4cf539739df2c5dacb4c659f2488d5af1506115ad6105ed565b82516001600160a01b0316845260209384019390920191600101611d22565b9080156115a95760405191611da86060846105a3565b6002835260208301906040368337611dbf84611c62565b6001600160a01b03909116905273c02aaa39b223fe8d0a0e5c4f27ead9083c756cc2611dea84611c83565b52604051916020830193635c11d79560e01b855260c484019160248501525f604485015260a060648501525180915260e4830191905f5b818110611e72575050509181611e4f5f949385943060848301524260a483015203601f1981018352826105a3565b51908273d9e1ce17f2641f24ae83637ab66a2cca9c378b9f5af1506115ad6105ed565b82516001600160a01b0316845260209384019390920191600101611e21565b60405163bcafddd360e01b81526001600160a01b03928316600482018190525f602483015293909216929091602081604481875afa5f9181612094575b50612074575b5060405163bcafddd360e01b81526004810182905260016024820152602081604481875afa5f9181612038575b50612018575b506040906024825180958193637ea6214160e01b835260048301525afa5f9281611f8c575b50611f375750505f90565b8151611f4c906001600160a01b031682611795565b916001600160a01b038316611f875760200151611f7392506001600160a01b031690611795565b6001600160a01b0381166113735780611c5c565b505090565b90925060403d604011612011575b611fa481836105a3565b81016040828203126104ce5780601f830112156104ce57604051916040830183811067ffffffffffffffff8211176105c5576040528290604081019283116104ce57905b828210611ff957505050915f611f2c565b60208091612006846105d9565b815201910190611fe8565b503d611f9a565b6120229083611795565b6001600160a01b03811615611f07579250505090565b9091506020813d60201161206c575b81612054602093836105a3565b810103126104ce57612065906105d9565b905f611f01565b3d9150612047565b61207e9083611795565b6001600160a01b03811615611ed4579250505090565b9091506020813d6020116120c8575b816120b0602093836105a3565b810103126104ce576120c1906105d9565b905f611ece565b3d91506120a356fe608080604052346036575f8054336001600160a01b03199182168117909255600180549091169091179055610673908161003b8239f35b5f80fdfe60806040526004361015610011575f80fd5b5f3560e01c80630470031f1461058657806320b7b8df1461055e578063258836fe146103e25780632a30e4c2146103935780634781124514610342578063484dad8e1461031d5780635a1d5e9b14610304578063715018a6146102b95780637543e3f01461026f5780637ea62141146101ad5780638da5cb5b146100d457806390b182f414610189578063bcafddd314610157578063c67ea3ee1461013c578063e8a293ee146100ff578063f77c4791146100d45763fc9c8d39146100d4575f80fd5b346100fb575f3660031901126100fb575f546040516001600160a01b039091168152602090f35b5f80fd5b346100fb5760203660031901126100fb576001600160a01b0361012061059e565b165f526002602052602060ff60405f2054166040519015158152f35b346100fb575f3660031901126100fb57602060405160028152f35b346100fb5760403660031901126100fb5761017061059e565b506001546040516001600160a01b039091168152602090f35b346100fb5760403660031901126100fb576101a261059e565b5060206040515f8152f35b346100fb5760203660031901126100fb576101c661059e565b50604080516101d58282610607565b8136823760015460ff8160a01c1661022b576001600160a01b031680825260208201528151905f825b6002821061020b57505050f35b82516001600160a01b0316815260209283019260019290920191016101fe565b825162461bcd60e51b815260206004820152601b60248201527f6d616c6963696f757320726566657272616c3a20627269636b656400000000006044820152606490fd5b346100fb5760403660031901126100fb5761028861059e565b506102b76102946105b4565b6001600160a01b03165f908152600260205260409020805460ff19166001179055565b005b346100fb575f3660031901126100fb5760405162461bcd60e51b8152602060048201526013602482015272185d1d1858dad95c8b58dbdb9d1c9bdb1b1959606a1b6044820152606490fd5b346100fb5760203660031901126100fb576101a261059e565b346100fb575f3660031901126100fb57602060ff60015460a01c166040519015158152f35b346100fb5760203660031901126100fb576004358015158091036100fb5761037460018060a01b035f541633146105ca565b6001805460ff60a01b191660a09290921b60ff60a01b16919091179055005b346100fb5760203660031901126100fb576103ac61059e565b6103c060018060a01b035f541633146105ca565b600180546001600160a01b0319166001600160a01b0392909216919091179055005b346100fb5760403660031901126100fb576103fb61059e565b6104036105b4565b9061041860018060a01b035f541633146105ca565b6040516370a0823160e01b8152306004820152916001600160a01b039190911690602083602481855afa92831561051f575f9361052a575b5082610462575b602083604051908152f35b60405163a9059cbb60e01b81526001600160a01b0390911660048201526024810183905290602090829060449082905f905af190811561051f575f916104e4575b50156104b0578180610457565b60405162461bcd60e51b815260206004820152600c60248201526b1cddd9595c0819985a5b195960a21b6044820152606490fd5b90506020813d602011610517575b816104ff60209383610607565b810103126100fb575180151581036100fb57826104a3565b3d91506104f2565b6040513d5f823e3d90fd5b9092506020813d602011610556575b8161054660209383610607565b810103126100fb57519183610450565b3d9150610539565b346100fb575f3660031901126100fb576001546040516001600160a01b039091168152602090f35b346100fb5760203660031901126100fb576102b76102945b600435906001600160a01b03821682036100fb57565b602435906001600160a01b03821682036100fb57565b156105d157565b60405162461bcd60e51b815260206004820152600e60248201526d3737ba1031b7b73a3937b63632b960911b6044820152606490fd5b90601f8019910116810190811067ffffffffffffffff82111761062957604052565b634e487b7160e01b5f52604160045260245ffdfea2646970667358221220282d22f610aa1a46f45416aa4d6e448a0c59c0e9051503dbc6360cf98100341264736f6c634300081e0033a264697066735822122068d6fe62ba1b22530ff059637d77b16a33a56b7642765ee961cea5fa1ef0b2eb64736f6c634300081e0033","linkReferences":{}},"methodIdentifiers":{"activeMaliciousReferral()":"c80fcefd","brickModeValidated()":"a2cdfe15","claimsAttempted()":"ef252c7a","claimsSucceeded()":"7fc54829","coveredPathsMask()":"f4ea0c82","executeOnOpportunity()":"3c2448ed","executed()":"31a38c89","hypothesisValidated()":"463defd1","infeasibleReason()":"a6652157","initialMaliciousReferral()":"3ee06a05","lastVictim()":"5d8a2d6d","liveReferralAfter()":"cb24db7d","liveReferralBefore()":"38795b8d","ownerControlValidated()":"6ec844b5","profitAmount()":"5ff972cc","profitToken()":"49343624","referralSeized()":"2660bbf4","replaceRewardReferral(address)":"cbc68e50","rewardToken()":"f7c618c1","setBrickMode(bool)":"47811245","stakingToken()":"72f702f3","targetPool()":"e60e2417","targetRewards()":"8444df3f"},"id":0}