{"abi":[{"type":"constructor","inputs":[],"stateMutability":"nonpayable"},{"type":"function","name":"brickMode","inputs":[],"outputs":[{"name":"","type":"bool","internalType":"bool"}],"stateMutability":"view"},{"type":"function","name":"caller","inputs":[],"outputs":[{"name":"","type":"address","internalType":"address"}],"stateMutability":"view"},{"type":"function","name":"controller","inputs":[],"outputs":[{"name":"","type":"address","internalType":"address"}],"stateMutability":"view"},{"type":"function","name":"getRelationsREF","inputs":[{"name":"","type":"address","internalType":"address"}],"outputs":[{"name":"refs","type":"address[2]","internalType":"address[2]"}],"stateMutability":"view"},{"type":"function","name":"getUserInTeamByIndex","inputs":[{"name":"","type":"address","internalType":"address"},{"name":"","type":"uint256","internalType":"uint256"}],"outputs":[{"name":"","type":"address","internalType":"address"}],"stateMutability":"pure"},{"type":"function","name":"isSetted","inputs":[{"name":"user","type":"address","internalType":"address"}],"outputs":[{"name":"","type":"bool","internalType":"bool"}],"stateMutability":"view"},{"type":"function","name":"owner","inputs":[],"outputs":[{"name":"","type":"address","internalType":"address"}],"stateMutability":"view"},{"type":"function","name":"payoutReceiver","inputs":[],"outputs":[{"name":"","type":"address","internalType":"address"}],"stateMutability":"view"},{"type":"function","name":"referralLevel","inputs":[],"outputs":[{"name":"","type":"uint256","internalType":"uint256"}],"stateMutability":"pure"},{"type":"function","name":"relations","inputs":[{"name":"","type":"address","internalType":"address"},{"name":"","type":"uint256","internalType":"uint256"}],"outputs":[{"name":"","type":"address","internalType":"address"}],"stateMutability":"view"},{"type":"function","name":"renounceOwnership","inputs":[],"outputs":[],"stateMutability":"pure"},{"type":"function","name":"setBrickMode","inputs":[{"name":"enabled","type":"bool","internalType":"bool"}],"outputs":[],"stateMutability":"nonpayable"},{"type":"function","name":"setPayoutReceiver","inputs":[{"name":"nextReceiver","type":"address","internalType":"address"}],"outputs":[],"stateMutability":"nonpayable"},{"type":"function","name":"setReferral","inputs":[{"name":"","type":"address","internalType":"address"},{"name":"user","type":"address","internalType":"address"}],"outputs":[],"stateMutability":"nonpayable"},{"type":"function","name":"sweepToken","inputs":[{"name":"token","type":"address","internalType":"address"},{"name":"to","type":"address","internalType":"address"}],"outputs":[{"name":"swept","type":"uint256","internalType":"uint256"}],"stateMutability":"nonpayable"},{"type":"function","name":"teamSize","inputs":[{"name":"","type":"address","internalType":"address"}],"outputs":[{"name":"","type":"uint256","internalType":"uint256"}],"stateMutability":"pure"},{"type":"function","name":"updateSetted","inputs":[{"name":"user","type":"address","internalType":"address"}],"outputs":[],"stateMutability":"nonpayable"}],"bytecode":{"object":"0x608080604052346036575f8054336001600160a01b03199182168117909255600180549091169091179055610673908161003b8239f35b5f80fdfe60806040526004361015610011575f80fd5b5f3560e01c80630470031f1461058657806320b7b8df1461055e578063258836fe146103e25780632a30e4c2146103935780634781124514610342578063484dad8e1461031d5780635a1d5e9b14610304578063715018a6146102b95780637543e3f01461026f5780637ea62141146101ad5780638da5cb5b146100d457806390b182f414610189578063bcafddd314610157578063c67ea3ee1461013c578063e8a293ee146100ff578063f77c4791146100d45763fc9c8d39146100d4575f80fd5b346100fb575f3660031901126100fb575f546040516001600160a01b039091168152602090f35b5f80fd5b346100fb5760203660031901126100fb576001600160a01b0361012061059e565b165f526002602052602060ff60405f2054166040519015158152f35b346100fb575f3660031901126100fb57602060405160028152f35b346100fb5760403660031901126100fb5761017061059e565b506001546040516001600160a01b039091168152602090f35b346100fb5760403660031901126100fb576101a261059e565b5060206040515f8152f35b346100fb5760203660031901126100fb576101c661059e565b50604080516101d58282610607565b8136823760015460ff8160a01c1661022b576001600160a01b031680825260208201528151905f825b6002821061020b57505050f35b82516001600160a01b0316815260209283019260019290920191016101fe565b825162461bcd60e51b815260206004820152601b60248201527f6d616c6963696f757320726566657272616c3a20627269636b656400000000006044820152606490fd5b346100fb5760403660031901126100fb5761028861059e565b506102b76102946105b4565b6001600160a01b03165f908152600260205260409020805460ff19166001179055565b005b346100fb575f3660031901126100fb5760405162461bcd60e51b8152602060048201526013602482015272185d1d1858dad95c8b58dbdb9d1c9bdb1b1959606a1b6044820152606490fd5b346100fb5760203660031901126100fb576101a261059e565b346100fb575f3660031901126100fb57602060ff60015460a01c166040519015158152f35b346100fb5760203660031901126100fb576004358015158091036100fb5761037460018060a01b035f541633146105ca565b6001805460ff60a01b191660a09290921b60ff60a01b16919091179055005b346100fb5760203660031901126100fb576103ac61059e565b6103c060018060a01b035f541633146105ca565b600180546001600160a01b0319166001600160a01b0392909216919091179055005b346100fb5760403660031901126100fb576103fb61059e565b6104036105b4565b9061041860018060a01b035f541633146105ca565b6040516370a0823160e01b8152306004820152916001600160a01b039190911690602083602481855afa92831561051f575f9361052a575b5082610462575b602083604051908152f35b60405163a9059cbb60e01b81526001600160a01b0390911660048201526024810183905290602090829060449082905f905af190811561051f575f916104e4575b50156104b0578180610457565b60405162461bcd60e51b815260206004820152600c60248201526b1cddd9595c0819985a5b195960a21b6044820152606490fd5b90506020813d602011610517575b816104ff60209383610607565b810103126100fb575180151581036100fb57826104a3565b3d91506104f2565b6040513d5f823e3d90fd5b9092506020813d602011610556575b8161054660209383610607565b810103126100fb57519183610450565b3d9150610539565b346100fb575f3660031901126100fb576001546040516001600160a01b039091168152602090f35b346100fb5760203660031901126100fb576102b76102945b600435906001600160a01b03821682036100fb57565b602435906001600160a01b03821682036100fb57565b156105d157565b60405162461bcd60e51b815260206004820152600e60248201526d3737ba1031b7b73a3937b63632b960911b6044820152606490fd5b90601f8019910116810190811067ffffffffffffffff82111761062957604052565b634e487b7160e01b5f52604160045260245ffdfea2646970667358221220282d22f610aa1a46f45416aa4d6e448a0c59c0e9051503dbc6360cf98100341264736f6c634300081e0033","linkReferences":{}},"methodIdentifiers":{"brickMode()":"484dad8e","caller()":"fc9c8d39","controller()":"f77c4791","getRelationsREF(address)":"7ea62141","getUserInTeamByIndex(address,uint256)":"90b182f4","isSetted(address)":"e8a293ee","owner()":"8da5cb5b","payoutReceiver()":"20b7b8df","referralLevel()":"c67ea3ee","relations(address,uint256)":"bcafddd3","renounceOwnership()":"715018a6","setBrickMode(bool)":"47811245","setPayoutReceiver(address)":"2a30e4c2","setReferral(address,address)":"7543e3f0","sweepToken(address,address)":"258836fe","teamSize(address)":"5a1d5e9b","updateSetted(address)":"0470031f"},"id":0}