{"abi":[{"type":"constructor","inputs":[],"stateMutability":"payable"},{"type":"receive","stateMutability":"payable"},{"type":"function","name":"HEX","inputs":[],"outputs":[{"name":"","type":"address","internalType":"address"}],"stateMutability":"view"},{"type":"function","name":"MIN_ETH","inputs":[],"outputs":[{"name":"","type":"uint256","internalType":"uint256"}],"stateMutability":"view"},{"type":"function","name":"MIN_HEX","inputs":[],"outputs":[{"name":"","type":"uint256","internalType":"uint256"}],"stateMutability":"view"},{"type":"function","name":"TARGET","inputs":[],"outputs":[{"name":"","type":"address","internalType":"address"}],"stateMutability":"view"},{"type":"function","name":"endingEthBalance","inputs":[],"outputs":[{"name":"","type":"uint256","internalType":"uint256"}],"stateMutability":"view"},{"type":"function","name":"endingHexBalance","inputs":[],"outputs":[{"name":"","type":"uint256","internalType":"uint256"}],"stateMutability":"view"},{"type":"function","name":"ethMaker","inputs":[],"outputs":[{"name":"","type":"address","internalType":"contract RevertingWallet"}],"stateMutability":"view"},{"type":"function","name":"ethTaker","inputs":[],"outputs":[{"name":"","type":"address","internalType":"contract RevertingWallet"}],"stateMutability":"view"},{"type":"function","name":"execute","inputs":[],"outputs":[],"stateMutability":"payable"},{"type":"function","name":"executeOnOpportunity","inputs":[],"outputs":[],"stateMutability":"payable"},{"type":"function","name":"executed","inputs":[],"outputs":[{"name":"","type":"bool","internalType":"bool"}],"stateMutability":"view"},{"type":"function","name":"exploit","inputs":[],"outputs":[],"stateMutability":"payable"},{"type":"function","name":"exploitPathUsed","inputs":[],"outputs":[{"name":"","type":"string","internalType":"string"}],"stateMutability":"view"},{"type":"function","name":"hexHasCode","inputs":[],"outputs":[{"name":"","type":"bool","internalType":"bool"}],"stateMutability":"view"},{"type":"function","name":"hexSeller","inputs":[],"outputs":[{"name":"","type":"address","internalType":"contract RevertingWallet"}],"stateMutability":"view"},{"type":"function","name":"hypothesisRefuted","inputs":[],"outputs":[{"name":"","type":"bool","internalType":"bool"}],"stateMutability":"view"},{"type":"function","name":"hypothesisValidated","inputs":[],"outputs":[{"name":"","type":"bool","internalType":"bool"}],"stateMutability":"view"},{"type":"function","name":"missingInitialETH","inputs":[],"outputs":[{"name":"","type":"bool","internalType":"bool"}],"stateMutability":"view"},{"type":"function","name":"missingInitialHEX","inputs":[],"outputs":[{"name":"","type":"bool","internalType":"bool"}],"stateMutability":"view"},{"type":"function","name":"path1Attempted","inputs":[],"outputs":[{"name":"","type":"bool","internalType":"bool"}],"stateMutability":"view"},{"type":"function","name":"path1CancelReverted","inputs":[],"outputs":[{"name":"","type":"bool","internalType":"bool"}],"stateMutability":"view"},{"type":"function","name":"path1OfferId","inputs":[],"outputs":[{"name":"","type":"uint256","internalType":"uint256"}],"stateMutability":"view"},{"type":"function","name":"path1OfferStillActive","inputs":[],"outputs":[{"name":"","type":"bool","internalType":"bool"}],"stateMutability":"view"},{"type":"function","name":"path1RevertData","inputs":[],"outputs":[{"name":"","type":"bytes","internalType":"bytes"}],"stateMutability":"view"},{"type":"function","name":"path1Validated","inputs":[],"outputs":[{"name":"","type":"bool","internalType":"bool"}],"stateMutability":"view"},{"type":"function","name":"path2Attempted","inputs":[],"outputs":[{"name":"","type":"bool","internalType":"bool"}],"stateMutability":"view"},{"type":"function","name":"path2BuyHEXReverted","inputs":[],"outputs":[{"name":"","type":"bool","internalType":"bool"}],"stateMutability":"view"},{"type":"function","name":"path2CancelRecoveredHEX","inputs":[],"outputs":[{"name":"","type":"bool","internalType":"bool"}],"stateMutability":"view"},{"type":"function","name":"path2OfferId","inputs":[],"outputs":[{"name":"","type":"uint256","internalType":"uint256"}],"stateMutability":"view"},{"type":"function","name":"path2OfferStillActive","inputs":[],"outputs":[{"name":"","type":"bool","internalType":"bool"}],"stateMutability":"view"},{"type":"function","name":"path2RevertData","inputs":[],"outputs":[{"name":"","type":"bytes","internalType":"bytes"}],"stateMutability":"view"},{"type":"function","name":"path2Validated","inputs":[],"outputs":[{"name":"","type":"bool","internalType":"bool"}],"stateMutability":"view"},{"type":"function","name":"path3Attempted","inputs":[],"outputs":[{"name":"","type":"bool","internalType":"bool"}],"stateMutability":"view"},{"type":"function","name":"path3BuyETHReverted","inputs":[],"outputs":[{"name":"","type":"bool","internalType":"bool"}],"stateMutability":"view"},{"type":"function","name":"path3OfferStillActive","inputs":[],"outputs":[{"name":"","type":"bool","internalType":"bool"}],"stateMutability":"view"},{"type":"function","name":"path3RevertData","inputs":[],"outputs":[{"name":"","type":"bytes","internalType":"bytes"}],"stateMutability":"view"},{"type":"function","name":"path3Validated","inputs":[],"outputs":[{"name":"","type":"bool","internalType":"bool"}],"stateMutability":"view"},{"type":"function","name":"profitAchieved","inputs":[],"outputs":[{"name":"","type":"bool","internalType":"bool"}],"stateMutability":"view"},{"type":"function","name":"profitAmount","inputs":[],"outputs":[{"name":"","type":"uint256","internalType":"uint256"}],"stateMutability":"view"},{"type":"function","name":"profitToken","inputs":[],"outputs":[{"name":"","type":"address","internalType":"address"}],"stateMutability":"view"},{"type":"function","name":"pwn","inputs":[],"outputs":[],"stateMutability":"payable"},{"type":"function","name":"run","inputs":[],"outputs":[],"stateMutability":"payable"},{"type":"function","name":"startingEthBalance","inputs":[],"outputs":[{"name":"","type":"uint256","internalType":"uint256"}],"stateMutability":"view"},{"type":"function","name":"startingHexBalance","inputs":[],"outputs":[{"name":"","type":"uint256","internalType":"uint256"}],"stateMutability":"view"},{"type":"function","name":"summary","inputs":[],"outputs":[{"name":"achievedProfit","type":"bool","internalType":"bool"},{"name":"token","type":"address","internalType":"address"},{"name":"amount","type":"uint256","internalType":"uint256"},{"name":"path","type":"string","internalType":"string"},{"name":"validated","type":"bool","internalType":"bool"}],"stateMutability":"view"},{"type":"function","name":"targetHasCode","inputs":[],"outputs":[{"name":"","type":"bool","internalType":"bool"}],"stateMutability":"view"}],"bytecode":{"object":"0x60e060405260405161001090610199565b604051809103905ff080158015610029573d5f5f3e3d5ffd5b5073ffffffffffffffffffffffffffffffffffffffff1660808173ffffffffffffffffffffffffffffffffffffffff168152505060405161006990610199565b604051809103905ff080158015610082573d5f5f3e3d5ffd5b5073ffffffffffffffffffffffffffffffffffffffff1660a08173ffffffffffffffffffffffffffffffffffffffff16815250506040516100c290610199565b604051809103905ff0801580156100db573d5f5f3e3d5ffd5b5073ffffffffffffffffffffffffffffffffffffffff1660c08173ffffffffffffffffffffffffffffffffffffffff16815250505f5f60046101000a81548173ffffffffffffffffffffffffffffffffffffffff021916908373ffffffffffffffffffffffffffffffffffffffff1602179055506040518060400160405280600d81526020017f756e696e697469616c697a6564000000000000000000000000000000000000008152506002908161019391906103e3565b506104b2565b610aee8061351583390190565b5f81519050919050565b7f4e487b71000000000000000000000000000000000000000000000000000000005f52604160045260245ffd5b7f4e487b71000000000000000000000000000000000000000000000000000000005f52602260045260245ffd5b5f600282049050600182168061022157607f821691505b602082108103610234576102336101dd565b5b50919050565b5f819050815f5260205f209050919050565b5f6020601f8301049050919050565b5f82821b905092915050565b5f600883026102967fffffffffffffffffffffffffffffffffffffffffffffffffffffffffffffffff8261025b565b6102a0868361025b565b95508019841693508086168417925050509392505050565b5f819050919050565b5f819050919050565b5f6102e46102df6102da846102b8565b6102c1565b6102b8565b9050919050565b5f819050919050565b6102fd836102ca565b610311610309826102eb565b848454610267565b825550505050565b5f5f905090565b610328610319565b6103338184846102f4565b505050565b5b818110156103565761034b5f82610320565b600181019050610339565b5050565b601f82111561039b5761036c8161023a565b6103758461024c565b81016020851015610384578190505b6103986103908561024c565b830182610338565b50505b505050565b5f82821c905092915050565b5f6103bb5f19846008026103a0565b1980831691505092915050565b5f6103d383836103ac565b9150826002028217905092915050565b6103ec826101a6565b67ffffffffffffffff811115610405576104046101b0565b5b61040f825461020a565b61041a82828561035a565b5f60209050601f83116001811461044b575f8415610439578287015190505b61044385826103c8565b8655506104aa565b601f1984166104598661023a565b5f5b828110156104805784890151825560018201915060208501945060208101905061045b565b8683101561049d5784890151610499601f8916826103ac565b8355505b6001600288020188555050505b505050505050565b60805160a05160c051612fd761053e5f395f8181610d6101528181611c9001528181611cc001528181611d1901528181611d5f0152611eaa01525f81816109e30152818161155b0152818161158b015281816115e4015281816116340152818161170c015281816118e301526119b701525f8181610a3701528181611a260152611b0f0152612fd75ff3fe608060405260043610610280575f3560e01c80637f5e87291161014e578063d2306360116100c0578063dfe805e111610079578063dfe805e11461087f578063e33ed092146108a9578063e5ca9d51146108d3578063eb214733146108fd578063f0a0117614610927578063f4738f1f1461095157610287565b8063d2306360146107a3578063d586b74c146107cd578063d58ea76a146107f7578063d78c428114610821578063dd365b8b1461084b578063defb80c41461085557610287565b8063be860dc211610112578063be860dc2146106c7578063bec3718b146106f1578063c04062261461071b578063c15eee9b14610725578063c8aefb491461074f578063cc1f2afa1461077957610287565b80637f5e8729146105f157806385b314e71461061b578063ab2b5bd714610645578063b16a867c1461066f578063b88a05dd1461069d57610287565b80633fde31c0116101f25780635ff972cc116101ab5780635ff972cc14610535578063614619541461055f578063624894d11461056957806363d9b770146105935780636acc04061461059d5780636bdf3ad9146105c757610287565b80633fde31c014610439578063413dafc114610463578063463defd11461048d57806349343624146104b7578063495f92f1146104e15780634affd8b01461050b57610287565b8063342f71e511610244578063342f71e51461035d57806336b9b208146103875780633867d828146103b15780633b872f27146103db5780633c2448ed146104055780633c86fd1e1461040f57610287565b80631d5589661461028b5780631ef924d4146102b557806320ee1864146102df57806328153f5a1461030957806331a38c891461033357610287565b3661028757005b5f5ffd5b348015610296575f5ffd5b5061029f61097b565b6040516102ac91906124ad565b60405180910390f35b3480156102c0575f5ffd5b506102c9610993565b6040516102d691906124de565b60405180910390f35b3480156102ea575f5ffd5b506102f3610999565b6040516103009190612511565b60405180910390f35b348015610314575f5ffd5b5061031d6109ac565b60405161032a91906124de565b60405180910390f35b34801561033e575f5ffd5b506103476109b2565b6040516103549190612511565b60405180910390f35b348015610368575f5ffd5b506103716109c3565b60405161037e91906124de565b60405180910390f35b348015610392575f5ffd5b5061039b6109c9565b6040516103a89190612511565b60405180910390f35b3480156103bc575f5ffd5b506103c56109dc565b6040516103d291906124de565b60405180910390f35b3480156103e6575f5ffd5b506103ef6109e1565b6040516103fc9190612585565b60405180910390f35b61040d610a05565b005b34801561041a575f5ffd5b50610423610a0f565b6040516104309190612511565b60405180910390f35b348015610444575f5ffd5b5061044d610a22565b60405161045a9190612511565b60405180910390f35b34801561046e575f5ffd5b50610477610a35565b6040516104849190612585565b60405180910390f35b348015610498575f5ffd5b506104a1610a59565b6040516104ae9190612511565b60405180910390f35b3480156104c2575f5ffd5b506104cb610a6b565b6040516104d891906124ad565b60405180910390f35b3480156104ec575f5ffd5b506104f5610a90565b6040516105029190612511565b60405180910390f35b348015610516575f5ffd5b5061051f610aa2565b60405161052c9190612511565b60405180910390f35b348015610540575f5ffd5b50610549610ab5565b60405161055691906124de565b60405180910390f35b610567610abb565b005b348015610574575f5ffd5b5061057d610ac5565b60405161058a91906124de565b60405180910390f35b61059b610acb565b005b3480156105a8575f5ffd5b506105b1610ad5565b6040516105be9190612511565b60405180910390f35b3480156105d2575f5ffd5b506105db610ae8565b6040516105e89190612511565b60405180910390f35b3480156105fc575f5ffd5b50610605610afb565b6040516106129190612511565b60405180910390f35b348015610626575f5ffd5b5061062f610b0e565b60405161063c919061260e565b60405180910390f35b348015610650575f5ffd5b50610659610b9a565b6040516106669190612511565b60405180910390f35b34801561067a575f5ffd5b50610683610bac565b604051610694959493929190612680565b60405180910390f35b3480156106a8575f5ffd5b506106b1610c92565b6040516106be919061260e565b60405180910390f35b3480156106d2575f5ffd5b506106db610d1e565b6040516106e89190612511565b60405180910390f35b3480156106fc575f5ffd5b50610705610d31565b6040516107129190612511565b60405180910390f35b610723610d44565b005b348015610730575f5ffd5b50610739610d4e565b6040516107469190612511565b60405180910390f35b34801561075a575f5ffd5b50610763610d5f565b6040516107709190612585565b60405180910390f35b348015610784575f5ffd5b5061078d610d83565b60405161079a91906124ad565b60405180910390f35b3480156107ae575f5ffd5b506107b7610d9b565b6040516107c4919061260e565b60405180910390f35b3480156107d8575f5ffd5b506107e1610e27565b6040516107ee91906124de565b60405180910390f35b348015610802575f5ffd5b5061080b610e2c565b6040516108189190612511565b60405180910390f35b34801561082c575f5ffd5b50610835610e3f565b60405161084291906126d8565b60405180910390f35b610853610ecb565b005b348015610860575f5ffd5b50610869610ed5565b60405161087691906124de565b60405180910390f35b34801561088a575f5ffd5b50610893610edb565b6040516108a091906124de565b60405180910390f35b3480156108b4575f5ffd5b506108bd610ee1565b6040516108ca9190612511565b60405180910390f35b3480156108de575f5ffd5b506108e7610ef3565b6040516108f49190612511565b60405180910390f35b348015610908575f5ffd5b50610911610f05565b60405161091e9190612511565b60405180910390f35b348015610932575f5ffd5b5061093b610f18565b6040516109489190612511565b60405180910390f35b34801561095c575f5ffd5b50610965610f2a565b6040516109729190612511565b60405180910390f35b732b591e99afe9f32eaa6214f7b7629768c40eeb3981565b600b5481565b600760029054906101000a900460ff1681565b60095481565b5f5f9054906101000a900460ff1681565b60065481565b600360049054906101000a900460ff1681565b600181565b7f000000000000000000000000000000000000000000000000000000000000000081565b610a0d610f3d565b565b600360059054906101000a900460ff1681565b600560029054906101000a900460ff1681565b7f000000000000000000000000000000000000000000000000000000000000000081565b5f60029054906101000a900460ff1681565b5f60049054906101000a900473ffffffffffffffffffffffffffffffffffffffff1681565b5f60039054906101000a900460ff1681565b600760049054906101000a900460ff1681565b60015481565b610ac3610f3d565b565b60085481565b610ad3610f3d565b565b600560039054906101000a900460ff1681565b600760039054906101000a900460ff1681565b600560019054906101000a900460ff1681565b600c8054610b1b90612725565b80601f0160208091040260200160405190810160405280929190818152602001828054610b4790612725565b8015610b925780601f10610b6957610100808354040283529160200191610b92565b820191905f5260205f20905b815481529060010190602001808311610b7557829003601f168201915b505050505081565b60055f9054906101000a900460ff1681565b5f5f5f60605f5f60019054906101000a900460ff165f60049054906101000a900473ffffffffffffffffffffffffffffffffffffffff1660015460025f60029054906101000a900460ff16818054610c0390612725565b80601f0160208091040260200160405190810160405280929190818152602001828054610c2f90612725565b8015610c7a5780601f10610c5157610100808354040283529160200191610c7a565b820191905f5260205f20905b815481529060010190602001808311610c5d57829003601f168201915b50505050509150945094509450945094509091929394565b600e8054610c9f90612725565b80601f0160208091040260200160405190810160405280929190818152602001828054610ccb90612725565b8015610d165780601f10610ced57610100808354040283529160200191610d16565b820191905f5260205f20905b815481529060010190602001808311610cf957829003601f168201915b505050505081565b600360019054906101000a900460ff1681565b600560049054906101000a900460ff1681565b610d4c610f3d565b565b60038054906101000a900460ff1681565b7f000000000000000000000000000000000000000000000000000000000000000081565b73204b937feaec333e9e6d72d35f1d131f187ecea181565b600d8054610da890612725565b80601f0160208091040260200160405190810160405280929190818152602001828054610dd490612725565b8015610e1f5780601f10610df657610100808354040283529160200191610e1f565b820191905f5260205f20905b815481529060010190602001808311610e0257829003601f168201915b505050505081565b600181565b600760019054906101000a900460ff1681565b60028054610e4c90612725565b80601f0160208091040260200160405190810160405280929190818152602001828054610e7890612725565b8015610ec35780601f10610e9a57610100808354040283529160200191610ec3565b820191905f5260205f20905b815481529060010190602001808311610ea657829003601f168201915b505050505081565b610ed3610f3d565b565b60045481565b600a5481565b60075f9054906101000a900460ff1681565b60035f9054906101000a900460ff1681565b600760059054906101000a900460ff1681565b5f60019054906101000a900460ff1681565b600360029054906101000a900460ff1681565b5f5f9054906101000a900460ff166114135760015f5f6101000a81548160ff0219169083151502179055505f73204b937feaec333e9e6d72d35f1d131f187ecea173ffffffffffffffffffffffffffffffffffffffff163b1160035f6101000a81548160ff0219169083151502179055505f732b591e99afe9f32eaa6214f7b7629768c40eeb3973ffffffffffffffffffffffffffffffffffffffff163b11600360016101000a81548160ff0219169083151502179055504760088190555061101a732b591e99afe9f32eaa6214f7b7629768c40eeb3930611415565b60098190555060035f9054906101000a900460ff1615806110485750600360019054906101000a900460ff16155b156110dc5760015f60036101000a81548160ff0219169083151502179055506040518060400160405280601a81526020017f7461726765742d6f722d6865782d636f64652d6d697373696e67000000000000815250600290816110ab9190612919565b5047600a819055506110d1732b591e99afe9f32eaa6214f7b7629768c40eeb3930611415565b600b81905550611413565b60014710600760046101000a81548160ff0219169083151502179055506001611119732b591e99afe9f32eaa6214f7b7629768c40eeb3930611415565b10600760056101000a81548160ff0219169083151502179055505f5f60016101000a81548160ff0219169083151502179055505f5f60046101000a81548173ffffffffffffffffffffffffffffffffffffffff021916908373ffffffffffffffffffffffffffffffffffffffff1602179055505f600181905550600760049054906101000a900460ff161580156111bd5750600760059054906101000a900460ff16155b156111cb576111ca611527565b5b600760049054906101000a900460ff166111e8576111e76119fd565b5b600760059054906101000a900460ff1615801561120757505f60045414155b801561121f5750600360059054906101000a900460ff165b1561122d5761122c611c5c565b5b60038054906101000a900460ff1680156112535750600560019054906101000a900460ff165b801561126b5750600760019054906101000a900460ff165b5f60026101000a81548160ff0219169083151502179055505f5f60036101000a81548160ff0219169083151502179055505f60029054906101000a900460ff16156112dd576040518060a0016040528060658152602001612ee360659139600290816112d79190612919565b506113e7565b600760049054906101000a900460ff1680156113055750600760059054906101000a900460ff165b1561133757604051806080016040528060548152602001612df760549139600290816113319190612919565b506113e6565b600760049054906101000a900460ff161561137957604051806080016040528060528152602001612e9160529139600290816113739190612919565b506113e5565b600760059054906101000a900460ff16156113bb576040518060800160405280605a8152602001612f48605a9139600290816113b59190612919565b506113e4565b604051806080016040528060468152602001612e4b60469139600290816113e29190612919565b505b5b5b5b47600a8190555061140c732b591e99afe9f32eaa6214f7b7629768c40eeb3930611415565b600b819055505b565b5f5f5f8473ffffffffffffffffffffffffffffffffffffffff166370a0823160e01b8560405160240161144891906124ad565b604051602081830303815290604052907bffffffffffffffffffffffffffffffffffffffffffffffffffffffff19166020820180517bffffffffffffffffffffffffffffffffffffffffffffffffffffffff83818316178352505050506040516114b29190612a22565b5f60405180830381855afa9150503d805f81146114ea576040519150601f19603f3d011682016040523d82523d5f602084013e6114ef565b606091505b509150915081801561150357506020815110155b1561151f578080602001905181019061151c9190612a73565b92505b505092915050565b600160055f6101000a81548160ff021916908315150217905550611581732b591e99afe9f32eaa6214f7b7629768c40eeb397f00000000000000000000000000000000000000000000000000000000000000006001611eec565b156119fb576115db7f0000000000000000000000000000000000000000000000000000000000000000732b591e99afe9f32eaa6214f7b7629768c40eeb3973204b937feaec333e9e6d72d35f1d131f187ecea16001612001565b611626576116207f0000000000000000000000000000000000000000000000000000000000000000732b591e99afe9f32eaa6214f7b7629768c40eeb39306001612119565b506119fb565b5f61162f612231565b90505f7f000000000000000000000000000000000000000000000000000000000000000073ffffffffffffffffffffffffffffffffffffffff16638a19d99373204b937feaec333e9e6d72d35f1d131f187ecea16001806040518463ffffffff1660e01b81526004016116a493929190612a9e565b5f604051808303815f875af11580156116bf573d5f5f3e3d5ffd5b505050506040513d5f823e3d601f19601f820116820180604052508101906116e79190612bee565b5090505f6116f3612231565b90508115806117025750828111155b15611751576117487f0000000000000000000000000000000000000000000000000000000000000000732b591e99afe9f32eaa6214f7b7629768c40eeb39306001612119565b505050506119fb565b806006819055505f5f73204b937feaec333e9e6d72d35f1d131f187ecea173ffffffffffffffffffffffffffffffffffffffff16600163404cd12960e01b6006546040516024016117a291906124de565b604051602081830303815290604052907bffffffffffffffffffffffffffffffffffffffffffffffffffffffff19166020820180517bffffffffffffffffffffffffffffffffffffffffffffffffffffffff838183161783525050505060405161180c9190612a22565b5f6040518083038185875af1925050503d805f8114611846576040519150601f19603f3d011682016040523d82523d5f602084013e61184b565b606091505b50915091508115600560026101000a81548160ff02191690831515021790555080600d908161187a9190612ca0565b50611886600654612349565b600560036101000a81548160ff021916908315150217905550600560029054906101000a900460ff1680156118c75750600560039054906101000a900460ff165b600560016101000a81548160ff0219169083151502179055505f7f000000000000000000000000000000000000000000000000000000000000000073ffffffffffffffffffffffffffffffffffffffff16633cd76d6873204b937feaec333e9e6d72d35f1d131f187ecea16006546040518363ffffffff1660e01b8152600401611952929190612d6f565b5f604051808303815f875af115801561196d573d5f5f3e3d5ffd5b505050506040513d5f823e3d601f19601f820116820180604052508101906119959190612bee565b50905080600560046101000a81548160ff0219169083151502179055506119f37f0000000000000000000000000000000000000000000000000000000000000000732b591e99afe9f32eaa6214f7b7629768c40eeb39306001612119565b505050505050505b565b6001600360026101000a81548160ff0219169083151502179055505f611a21612231565b90505f7f000000000000000000000000000000000000000000000000000000000000000073ffffffffffffffffffffffffffffffffffffffff1663c8bc9aad600173204b937feaec333e9e6d72d35f1d131f187ecea16001806040518563ffffffff1660e01b8152600401611a9893929190612a9e565b5f6040518083038185885af1158015611ab3573d5f5f3e3d5ffd5b50505050506040513d5f823e3d601f19601f82011682018060405250810190611adc9190612bee565b5090505f611ae8612231565b9050811580611af75750828111155b15611b0457505050611c5a565b806004819055505f5f7f000000000000000000000000000000000000000000000000000000000000000073ffffffffffffffffffffffffffffffffffffffff16633cd76d6873204b937feaec333e9e6d72d35f1d131f187ecea16004546040518363ffffffff1660e01b8152600401611b7e929190612d6f565b5f604051808303815f875af1158015611b99573d5f5f3e3d5ffd5b505050506040513d5f823e3d601f19601f82011682018060405250810190611bc19190612bee565b915091508115600360046101000a81548160ff02191690831515021790555080600c9081611bef9190612ca0565b50611bfb600454612349565b600360056101000a81548160ff021916908315150217905550600360049054906101000a900460ff168015611c3c5750600360059054906101000a900460ff165b6003806101000a81548160ff02191690831515021790555050505050505b565b600160075f6101000a81548160ff021916908315150217905550611cb6732b591e99afe9f32eaa6214f7b7629768c40eeb397f00000000000000000000000000000000000000000000000000000000000000006001611eec565b15611eea57611d107f0000000000000000000000000000000000000000000000000000000000000000732b591e99afe9f32eaa6214f7b7629768c40eeb3973204b937feaec333e9e6d72d35f1d131f187ecea16001612001565b611d5b57611d557f0000000000000000000000000000000000000000000000000000000000000000732b591e99afe9f32eaa6214f7b7629768c40eeb39306001612119565b50611eea565b5f5f7f000000000000000000000000000000000000000000000000000000000000000073ffffffffffffffffffffffffffffffffffffffff166360f40a5d73204b937feaec333e9e6d72d35f1d131f187ecea16004546040518363ffffffff1660e01b8152600401611dce929190612d6f565b5f604051808303815f875af1158015611de9573d5f5f3e3d5ffd5b505050506040513d5f823e3d601f19601f82011682018060405250810190611e119190612bee565b915091508115600760026101000a81548160ff02191690831515021790555080600e9081611e3f9190612ca0565b50611e4b600454612349565b600760036101000a81548160ff021916908315150217905550600760029054906101000a900460ff168015611e8c5750600760039054906101000a900460ff165b600760016101000a81548160ff021916908315150217905550611ee67f0000000000000000000000000000000000000000000000000000000000000000732b591e99afe9f32eaa6214f7b7629768c40eeb39306001612119565b5050505b565b5f5f5f8573ffffffffffffffffffffffffffffffffffffffff1663a9059cbb60e01b8686604051602401611f21929190612d6f565b604051602081830303815290604052907bffffffffffffffffffffffffffffffffffffffffffffffffffffffff19166020820180517bffffffffffffffffffffffffffffffffffffffffffffffffffffffff8381831617835250505050604051611f8b9190612a22565b5f604051808303815f865af19150503d805f8114611fc4576040519150601f19603f3d011682016040523d82523d5f602084013e611fc9565b606091505b5091509150818015611ff657505f81511480611ff5575080806020019051810190611ff49190612d96565b5b5b925050509392505050565b5f5f5f8673ffffffffffffffffffffffffffffffffffffffff1663da3e339760e01b87878760405160240161203893929190612dc1565b604051602081830303815290604052907bffffffffffffffffffffffffffffffffffffffffffffffffffffffff19166020820180517bffffffffffffffffffffffffffffffffffffffffffffffffffffffff83818316178352505050506040516120a29190612a22565b5f604051808303815f865af19150503d805f81146120db576040519150601f19603f3d011682016040523d82523d5f602084013e6120e0565b606091505b509150915081801561210d57505f8151148061210c57508080602001905181019061210b9190612d96565b5b5b92505050949350505050565b5f5f5f8673ffffffffffffffffffffffffffffffffffffffff1663f5537ede60e01b87878760405160240161215093929190612dc1565b604051602081830303815290604052907bffffffffffffffffffffffffffffffffffffffffffffffffffffffff19166020820180517bffffffffffffffffffffffffffffffffffffffffffffffffffffffff83818316178352505050506040516121ba9190612a22565b5f604051808303815f865af19150503d805f81146121f3576040519150601f19603f3d011682016040523d82523d5f602084013e6121f8565b606091505b509150915081801561222557505f815114806122245750808060200190518101906122239190612d96565b5b5b92505050949350505050565b5f5f5f73204b937feaec333e9e6d72d35f1d131f187ecea173ffffffffffffffffffffffffffffffffffffffff1663232cae0b60e01b604051602401604051602081830303815290604052907bffffffffffffffffffffffffffffffffffffffffffffffffffffffff19166020820180517bffffffffffffffffffffffffffffffffffffffffffffffffffffffff83818316178352505050506040516122d79190612a22565b5f60405180830381855afa9150503d805f811461230f576040519150601f19603f3d011682016040523d82523d5f602084013e612314565b606091505b509150915081801561232857506020815110155b1561234457808060200190518101906123419190612a73565b92505b505090565b5f5f5f73204b937feaec333e9e6d72d35f1d131f187ecea173ffffffffffffffffffffffffffffffffffffffff166382afd23b60e01b8560405160240161239091906124de565b604051602081830303815290604052907bffffffffffffffffffffffffffffffffffffffffffffffffffffffff19166020820180517bffffffffffffffffffffffffffffffffffffffffffffffffffffffff83818316178352505050506040516123fa9190612a22565b5f60405180830381855afa9150503d805f8114612432576040519150601f19603f3d011682016040523d82523d5f602084013e612437565b606091505b509150915081801561244b57506020815110155b1561246757808060200190518101906124649190612d96565b92505b5050919050565b5f73ffffffffffffffffffffffffffffffffffffffff82169050919050565b5f6124978261246e565b9050919050565b6124a78161248d565b82525050565b5f6020820190506124c05f83018461249e565b92915050565b5f819050919050565b6124d8816124c6565b82525050565b5f6020820190506124f15f8301846124cf565b92915050565b5f8115159050919050565b61250b816124f7565b82525050565b5f6020820190506125245f830184612502565b92915050565b5f819050919050565b5f61254d6125486125438461246e565b61252a565b61246e565b9050919050565b5f61255e82612533565b9050919050565b5f61256f82612554565b9050919050565b61257f81612565565b82525050565b5f6020820190506125985f830184612576565b92915050565b5f81519050919050565b5f82825260208201905092915050565b8281835e5f83830152505050565b5f601f19601f8301169050919050565b5f6125e08261259e565b6125ea81856125a8565b93506125fa8185602086016125b8565b612603816125c6565b840191505092915050565b5f6020820190508181035f83015261262681846125d6565b905092915050565b5f81519050919050565b5f82825260208201905092915050565b5f6126528261262e565b61265c8185612638565b935061266c8185602086016125b8565b612675816125c6565b840191505092915050565b5f60a0820190506126935f830188612502565b6126a0602083018761249e565b6126ad60408301866124cf565b81810360608301526126bf8185612648565b90506126ce6080830184612502565b9695505050505050565b5f6020820190508181035f8301526126f08184612648565b905092915050565b7f4e487b71000000000000000000000000000000000000000000000000000000005f52602260045260245ffd5b5f600282049050600182168061273c57607f821691505b60208210810361274f5761274e6126f8565b5b50919050565b7f4e487b71000000000000000000000000000000000000000000000000000000005f52604160045260245ffd5b5f819050815f5260205f209050919050565b5f6020601f8301049050919050565b5f82821b905092915050565b5f600883026127de7fffffffffffffffffffffffffffffffffffffffffffffffffffffffffffffffff826127a3565b6127e886836127a3565b95508019841693508086168417925050509392505050565b5f61281a612815612810846124c6565b61252a565b6124c6565b9050919050565b5f819050919050565b61283383612800565b61284761283f82612821565b8484546127af565b825550505050565b5f5f905090565b61285e61284f565b61286981848461282a565b505050565b5b8181101561288c576128815f82612856565b60018101905061286f565b5050565b601f8211156128d1576128a281612782565b6128ab84612794565b810160208510156128ba578190505b6128ce6128c685612794565b83018261286e565b50505b505050565b5f82821c905092915050565b5f6128f15f19846008026128d6565b1980831691505092915050565b5f61290983836128e2565b9150826002028217905092915050565b6129228261262e565b67ffffffffffffffff81111561293b5761293a612755565b5b6129458254612725565b612950828285612890565b5f60209050601f831160018114612981575f841561296f578287015190505b61297985826128fe565b8655506129e0565b601f19841661298f86612782565b5f5b828110156129b657848901518255600182019150602085019450602081019050612991565b868310156129d357848901516129cf601f8916826128e2565b8355505b6001600288020188555050505b505050505050565b5f81905092915050565b5f6129fc8261259e565b612a0681856129e8565b9350612a168185602086016125b8565b80840191505092915050565b5f612a2d82846129f2565b915081905092915050565b5f604051905090565b5f5ffd5b5f5ffd5b612a52816124c6565b8114612a5c575f5ffd5b50565b5f81519050612a6d81612a49565b92915050565b5f60208284031215612a8857612a87612a41565b5b5f612a9584828501612a5f565b91505092915050565b5f606082019050612ab15f83018661249e565b612abe60208301856124cf565b612acb60408301846124cf565b949350505050565b612adc816124f7565b8114612ae6575f5ffd5b50565b5f81519050612af781612ad3565b92915050565b5f5ffd5b5f5ffd5b612b0e826125c6565b810181811067ffffffffffffffff82111715612b2d57612b2c612755565b5b80604052505050565b5f612b3f612a38565b9050612b4b8282612b05565b919050565b5f67ffffffffffffffff821115612b6a57612b69612755565b5b612b73826125c6565b9050602081019050919050565b5f612b92612b8d84612b50565b612b36565b905082815260208101848484011115612bae57612bad612b01565b5b612bb98482856125b8565b509392505050565b5f82601f830112612bd557612bd4612afd565b5b8151612be5848260208601612b80565b91505092915050565b5f5f60408385031215612c0457612c03612a41565b5b5f612c1185828601612ae9565b925050602083015167ffffffffffffffff811115612c3257612c31612a45565b5b612c3e85828601612bc1565b9150509250929050565b5f819050815f5260205f209050919050565b601f821115612c9b57612c6c81612c48565b612c7584612794565b81016020851015612c84578190505b612c98612c9085612794565b83018261286e565b50505b505050565b612ca98261259e565b67ffffffffffffffff811115612cc257612cc1612755565b5b612ccc8254612725565b612cd7828285612c5a565b5f60209050601f831160018114612d08575f8415612cf6578287015190505b612d0085826128fe565b865550612d67565b601f198416612d1686612c48565b5f5b82811015612d3d57848901518255600182019150602085019450602081019050612d18565b86831015612d5a5784890151612d56601f8916826128e2565b8355505b6001600288020188555050505b505050505050565b5f604082019050612d825f83018561249e565b612d8f60208301846124cf565b9392505050565b5f60208284031215612dab57612daa612a41565b5b5f612db884828501612ae9565b91505092915050565b5f606082019050612dd45f83018661249e565b612de1602083018561249e565b612dee60408301846124cf565b94935050505056fe6e6f2d70726f6669742d706174683b2076616c69646174696f6e20626c6f636b6564206279206d697373696e6720312077656920616e642031204845582d6865617274207374617274696e67206361706974616c6e6f2d70726f6669742d706174683b206f6e65206f72206d6f726520706174687320646964206e6f7420726570726f64756365206f6e20746865206c697665207461726765746e6f2d70726f6669742d706174683b2076616c69646174696f6e20626c6f636b6564206279206d697373696e6720312077656920746f2063726561746520746865204554482d6261636b6564206f6666657276616c6964617465642d646f732d6f6e6c793a206f666665724554482d3e63616e63656c207265766572742c206f666665724845582d3e627579484558207265766572742c2062757945544820627920636f6e74726163742074616b6572207265766572746e6f2d70726f6669742d706174683b2076616c69646174696f6e20626c6f636b6564206279206d697373696e672031204845582d686561727420746f206372656174652f74616b65204845582d6261636b6564206f7264657273a26469706673582212208e62c29d41ca1ce26cfa5df936ca15dbf8beda3e24a93abc62f467add0890e5a64736f6c634300081e00336080604052348015600e575f5ffd5b50610ad28061001c5f395ff3fe608060405260043610610058575f3560e01c80633cd76d681461009c57806360f40a5d146100d95780638a19d99314610116578063c8bc9aad14610153578063da3e339714610184578063f5537ede146101c057610098565b36610098576040517f08c379a000000000000000000000000000000000000000000000000000000000815260040161008f90610714565b60405180910390fd5b5f5ffd5b3480156100a7575f5ffd5b506100c260048036038101906100bd91906107c3565b6101fc565b6040516100d092919061088b565b60405180910390f35b3480156100e4575f5ffd5b506100ff60048036038101906100fa91906107c3565b6102e7565b60405161010d92919061088b565b60405180910390f35b348015610121575f5ffd5b5061013c600480360381019061013791906108b9565b6103d2565b60405161014a92919061088b565b60405180910390f35b61016d600480360381019061016891906108b9565b6104c0565b60405161017b92919061088b565b60405180910390f35b34801561018f575f5ffd5b506101aa60048036038101906101a59190610909565b6105b0565b6040516101b79190610959565b60405180910390f35b3480156101cb575f5ffd5b506101e660048036038101906101e19190610909565b610635565b6040516101f39190610959565b60405180910390f35b5f60608373ffffffffffffffffffffffffffffffffffffffff166340e58ee560e01b8460405160240161022f9190610981565b604051602081830303815290604052907bffffffffffffffffffffffffffffffffffffffffffffffffffffffff19166020820180517bffffffffffffffffffffffffffffffffffffffffffffffffffffffff838183161783525050505060405161029991906109d4565b5f604051808303815f865af19150503d805f81146102d2576040519150601f19603f3d011682016040523d82523d5f602084013e6102d7565b606091505b5080925081935050509250929050565b5f60608373ffffffffffffffffffffffffffffffffffffffff1663efbf818560e01b8460405160240161031a9190610981565b604051602081830303815290604052907bffffffffffffffffffffffffffffffffffffffffffffffffffffffff19166020820180517bffffffffffffffffffffffffffffffffffffffffffffffffffffffff838183161783525050505060405161038491906109d4565b5f604051808303815f865af19150503d805f81146103bd576040519150601f19603f3d011682016040523d82523d5f602084013e6103c2565b606091505b5080925081935050509250929050565b5f60608473ffffffffffffffffffffffffffffffffffffffff1663a321d88660e01b85856040516024016104079291906109ea565b604051602081830303815290604052907bffffffffffffffffffffffffffffffffffffffffffffffffffffffff19166020820180517bffffffffffffffffffffffffffffffffffffffffffffffffffffffff838183161783525050505060405161047191906109d4565b5f604051808303815f865af19150503d805f81146104aa576040519150601f19603f3d011682016040523d82523d5f602084013e6104af565b606091505b508092508193505050935093915050565b5f60608473ffffffffffffffffffffffffffffffffffffffff163463b42241ab60e01b86866040516024016104f69291906109ea565b604051602081830303815290604052907bffffffffffffffffffffffffffffffffffffffffffffffffffffffff19166020820180517bffffffffffffffffffffffffffffffffffffffffffffffffffffffff838183161783525050505060405161056091906109d4565b5f6040518083038185875af1925050503d805f811461059a576040519150601f19603f3d011682016040523d82523d5f602084013e61059f565b606091505b508092508193505050935093915050565b5f8373ffffffffffffffffffffffffffffffffffffffff1663095ea7b384846040518363ffffffff1660e01b81526004016105ec929190610a20565b6020604051808303815f875af1158015610608573d5f5f3e3d5ffd5b505050506040513d601f19601f8201168201806040525081019061062c9190610a71565b90509392505050565b5f8373ffffffffffffffffffffffffffffffffffffffff1663a9059cbb84846040518363ffffffff1660e01b8152600401610671929190610a20565b6020604051808303815f875af115801561068d573d5f5f3e3d5ffd5b505050506040513d601f19601f820116820180604052508101906106b19190610a71565b90509392505050565b5f82825260208201905092915050565b7f6e6f2d65746800000000000000000000000000000000000000000000000000005f82015250565b5f6106fe6006836106ba565b9150610709826106ca565b602082019050919050565b5f6020820190508181035f83015261072b816106f2565b9050919050565b5f5ffd5b5f73ffffffffffffffffffffffffffffffffffffffff82169050919050565b5f61075f82610736565b9050919050565b61076f81610755565b8114610779575f5ffd5b50565b5f8135905061078a81610766565b92915050565b5f819050919050565b6107a281610790565b81146107ac575f5ffd5b50565b5f813590506107bd81610799565b92915050565b5f5f604083850312156107d9576107d8610732565b5b5f6107e68582860161077c565b92505060206107f7858286016107af565b9150509250929050565b5f8115159050919050565b61081581610801565b82525050565b5f81519050919050565b5f82825260208201905092915050565b8281835e5f83830152505050565b5f601f19601f8301169050919050565b5f61085d8261081b565b6108678185610825565b9350610877818560208601610835565b61088081610843565b840191505092915050565b5f60408201905061089e5f83018561080c565b81810360208301526108b08184610853565b90509392505050565b5f5f5f606084860312156108d0576108cf610732565b5b5f6108dd8682870161077c565b93505060206108ee868287016107af565b92505060406108ff868287016107af565b9150509250925092565b5f5f5f606084860312156109205761091f610732565b5b5f61092d8682870161077c565b935050602061093e8682870161077c565b925050604061094f868287016107af565b9150509250925092565b5f60208201905061096c5f83018461080c565b92915050565b61097b81610790565b82525050565b5f6020820190506109945f830184610972565b92915050565b5f81905092915050565b5f6109ae8261081b565b6109b8818561099a565b93506109c8818560208601610835565b80840191505092915050565b5f6109df82846109a4565b915081905092915050565b5f6040820190506109fd5f830185610972565b610a0a6020830184610972565b9392505050565b610a1a81610755565b82525050565b5f604082019050610a335f830185610a11565b610a406020830184610972565b9392505050565b610a5081610801565b8114610a5a575f5ffd5b50565b5f81519050610a6b81610a47565b92915050565b5f60208284031215610a8657610a85610732565b5b5f610a9384828501610a5d565b9150509291505056fea2646970667358221220a5fff9a2d6985e420a6910f06012f8183dbbe2b4c6dc762b9dd625c6e7adb3ea64736f6c634300081e0033","linkReferences":{}},"methodIdentifiers":{"HEX()":"1d558966","MIN_ETH()":"d586b74c","MIN_HEX()":"3867d828","TARGET()":"cc1f2afa","endingEthBalance()":"dfe805e1","endingHexBalance()":"1ef924d4","ethMaker()":"413dafc1","ethTaker()":"c8aefb49","execute()":"61461954","executeOnOpportunity()":"3c2448ed","executed()":"31a38c89","exploit()":"63d9b770","exploitPathUsed()":"d78c4281","hexHasCode()":"be860dc2","hexSeller()":"3b872f27","hypothesisRefuted()":"495f92f1","hypothesisValidated()":"463defd1","missingInitialETH()":"4affd8b0","missingInitialHEX()":"eb214733","path1Attempted()":"f4738f1f","path1CancelReverted()":"36b9b208","path1OfferId()":"defb80c4","path1OfferStillActive()":"3c86fd1e","path1RevertData()":"85b314e7","path1Validated()":"c15eee9b","path2Attempted()":"ab2b5bd7","path2BuyHEXReverted()":"3fde31c0","path2CancelRecoveredHEX()":"bec3718b","path2OfferId()":"342f71e5","path2OfferStillActive()":"6acc0406","path2RevertData()":"d2306360","path2Validated()":"7f5e8729","path3Attempted()":"e33ed092","path3BuyETHReverted()":"20ee1864","path3OfferStillActive()":"6bdf3ad9","path3RevertData()":"b88a05dd","path3Validated()":"d58ea76a","profitAchieved()":"f0a01176","profitAmount()":"5ff972cc","profitToken()":"49343624","pwn()":"dd365b8b","run()":"c0406226","startingEthBalance()":"624894d1","startingHexBalance()":"28153f5a","summary()":"b16a867c","targetHasCode()":"e5ca9d51"},"id":0}