{"abi":[{"type":"function","name":"allowance","inputs":[{"name":"","type":"address","internalType":"address"},{"name":"","type":"address","internalType":"address"}],"outputs":[{"name":"","type":"uint256","internalType":"uint256"}],"stateMutability":"view"},{"type":"function","name":"approve","inputs":[{"name":"spender","type":"address","internalType":"address"},{"name":"value","type":"uint256","internalType":"uint256"}],"outputs":[{"name":"","type":"bool","internalType":"bool"}],"stateMutability":"nonpayable"},{"type":"function","name":"balanceOf","inputs":[{"name":"","type":"address","internalType":"address"}],"outputs":[{"name":"","type":"uint256","internalType":"uint256"}],"stateMutability":"view"},{"type":"function","name":"mint","inputs":[{"name":"to","type":"address","internalType":"address"},{"name":"amount","type":"uint256","internalType":"uint256"}],"outputs":[],"stateMutability":"nonpayable"},{"type":"function","name":"transfer","inputs":[{"name":"to","type":"address","internalType":"address"},{"name":"value","type":"uint256","internalType":"uint256"}],"outputs":[{"name":"","type":"bool","internalType":"bool"}],"stateMutability":"nonpayable"},{"type":"function","name":"transferFrom","inputs":[{"name":"from","type":"address","internalType":"address"},{"name":"to","type":"address","internalType":"address"},{"name":"value","type":"uint256","internalType":"uint256"}],"outputs":[{"name":"","type":"bool","internalType":"bool"}],"stateMutability":"nonpayable"}],"bytecode":{"object":"0x6080604052348015600e575f5ffd5b506109db8061001c5f395ff3fe608060405234801561000f575f5ffd5b5060043610610060575f3560e01c8063095ea7b31461006457806323b872dd1461009457806340c10f19146100c457806370a08231146100e0578063a9059cbb14610110578063dd62ed3e14610140575b5f5ffd5b61007e600480360381019061007991906106e0565b610170565b60405161008b9190610738565b60405180910390f35b6100ae60048036038101906100a99190610751565b6101f8565b6040516100bb9190610738565b60405180910390f35b6100de60048036038101906100d991906106e0565b610497565b005b6100fa60048036038101906100f591906107a1565b6104ed565b60405161010791906107db565b60405180910390f35b61012a600480360381019061012591906106e0565b610501565b6040516101379190610738565b60405180910390f35b61015a600480360381019061015591906107f4565b61062f565b60405161016791906107db565b60405180910390f35b5f8160015f3373ffffffffffffffffffffffffffffffffffffffff1673ffffffffffffffffffffffffffffffffffffffff1681526020019081526020015f205f8573ffffffffffffffffffffffffffffffffffffffff1673ffffffffffffffffffffffffffffffffffffffff1681526020019081526020015f20819055506001905092915050565b5f5f60015f8673ffffffffffffffffffffffffffffffffffffffff1673ffffffffffffffffffffffffffffffffffffffff1681526020019081526020015f205f3373ffffffffffffffffffffffffffffffffffffffff1673ffffffffffffffffffffffffffffffffffffffff1681526020019081526020015f20549050828110156102b8576040517f08c379a00000000000000000000000000000000000000000000000000000000081526004016102af9061088c565b60405180910390fd5b825f5f8773ffffffffffffffffffffffffffffffffffffffff1673ffffffffffffffffffffffffffffffffffffffff1681526020019081526020015f20541015610337576040517f08c379a000000000000000000000000000000000000000000000000000000000815260040161032e906108f4565b60405180910390fd5b7fffffffffffffffffffffffffffffffffffffffffffffffffffffffffffffffff81146103e757828161036a919061093f565b60015f8773ffffffffffffffffffffffffffffffffffffffff1673ffffffffffffffffffffffffffffffffffffffff1681526020019081526020015f205f3373ffffffffffffffffffffffffffffffffffffffff1673ffffffffffffffffffffffffffffffffffffffff1681526020019081526020015f20819055505b825f5f8773ffffffffffffffffffffffffffffffffffffffff1673ffffffffffffffffffffffffffffffffffffffff1681526020019081526020015f205f828254610432919061093f565b92505081905550825f5f8673ffffffffffffffffffffffffffffffffffffffff1673ffffffffffffffffffffffffffffffffffffffff1681526020019081526020015f205f8282546104849190610972565b9250508190555060019150509392505050565b805f5f8473ffffffffffffffffffffffffffffffffffffffff1673ffffffffffffffffffffffffffffffffffffffff1681526020019081526020015f205f8282546104e29190610972565b925050819055505050565b5f602052805f5260405f205f915090505481565b5f815f5f3373ffffffffffffffffffffffffffffffffffffffff1673ffffffffffffffffffffffffffffffffffffffff1681526020019081526020015f20541015610581576040517f08c379a0000000000000000000000000000000000000000000000000000000008152600401610578906108f4565b60405180910390fd5b815f5f3373ffffffffffffffffffffffffffffffffffffffff1673ffffffffffffffffffffffffffffffffffffffff1681526020019081526020015f205f8282546105cc919061093f565b92505081905550815f5f8573ffffffffffffffffffffffffffffffffffffffff1673ffffffffffffffffffffffffffffffffffffffff1681526020019081526020015f205f82825461061e9190610972565b925050819055506001905092915050565b6001602052815f5260405f20602052805f5260405f205f91509150505481565b5f5ffd5b5f73ffffffffffffffffffffffffffffffffffffffff82169050919050565b5f61067c82610653565b9050919050565b61068c81610672565b8114610696575f5ffd5b50565b5f813590506106a781610683565b92915050565b5f819050919050565b6106bf816106ad565b81146106c9575f5ffd5b50565b5f813590506106da816106b6565b92915050565b5f5f604083850312156106f6576106f561064f565b5b5f61070385828601610699565b9250506020610714858286016106cc565b9150509250929050565b5f8115159050919050565b6107328161071e565b82525050565b5f60208201905061074b5f830184610729565b92915050565b5f5f5f606084860312156107685761076761064f565b5b5f61077586828701610699565b935050602061078686828701610699565b9250506040610797868287016106cc565b9150509250925092565b5f602082840312156107b6576107b561064f565b5b5f6107c384828501610699565b91505092915050565b6107d5816106ad565b82525050565b5f6020820190506107ee5f8301846107cc565b92915050565b5f5f6040838503121561080a5761080961064f565b5b5f61081785828601610699565b925050602061082885828601610699565b9150509250929050565b5f82825260208201905092915050565b7f696e73756666696369656e7420616c6c6f77616e6365000000000000000000005f82015250565b5f610876601683610832565b915061088182610842565b602082019050919050565b5f6020820190508181035f8301526108a38161086a565b9050919050565b7f696e73756666696369656e742062616c616e63650000000000000000000000005f82015250565b5f6108de601483610832565b91506108e9826108aa565b602082019050919050565b5f6020820190508181035f83015261090b816108d2565b9050919050565b7f4e487b71000000000000000000000000000000000000000000000000000000005f52601160045260245ffd5b5f610949826106ad565b9150610954836106ad565b925082820390508181111561096c5761096b610912565b5b92915050565b5f61097c826106ad565b9150610987836106ad565b925082820190508082111561099f5761099e610912565b5b9291505056fea2646970667358221220c12523a6bc70a5d9bf5f886d097d4c8f30685ce112e6b0d3074e4481268f63dc64736f6c634300081e0033","linkReferences":{}},"methodIdentifiers":{"allowance(address,address)":"dd62ed3e","approve(address,uint256)":"095ea7b3","balanceOf(address)":"70a08231","mint(address,uint256)":"40c10f19","transfer(address,uint256)":"a9059cbb","transferFrom(address,address,uint256)":"23b872dd"},"id":0}