{"abi":[{"type":"constructor","inputs":[{"name":"hex_","type":"address","internalType":"address"}],"stateMutability":"nonpayable"},{"type":"function","name":"buyETH","inputs":[{"name":"id","type":"uint256","internalType":"uint256"}],"outputs":[{"name":"","type":"bool","internalType":"bool"}],"stateMutability":"nonpayable"},{"type":"function","name":"buyHEX","inputs":[{"name":"id","type":"uint256","internalType":"uint256"}],"outputs":[{"name":"","type":"bool","internalType":"bool"}],"stateMutability":"payable"},{"type":"function","name":"cancel","inputs":[{"name":"id","type":"uint256","internalType":"uint256"}],"outputs":[{"name":"","type":"bool","internalType":"bool"}],"stateMutability":"nonpayable"},{"type":"function","name":"hexInterface","inputs":[],"outputs":[{"name":"","type":"address","internalType":"contract IERC20Like"}],"stateMutability":"view"},{"type":"function","name":"isActive","inputs":[{"name":"id","type":"uint256","internalType":"uint256"}],"outputs":[{"name":"","type":"bool","internalType":"bool"}],"stateMutability":"view"},{"type":"function","name":"last_offer_id","inputs":[],"outputs":[{"name":"","type":"uint256","internalType":"uint256"}],"stateMutability":"view"},{"type":"function","name":"offerETH","inputs":[{"name":"pay_amt","type":"uint256","internalType":"uint256"},{"name":"buy_amt","type":"uint256","internalType":"uint256"}],"outputs":[{"name":"id","type":"uint256","internalType":"uint256"}],"stateMutability":"payable"},{"type":"function","name":"offerHEX","inputs":[{"name":"pay_amt","type":"uint256","internalType":"uint256"},{"name":"buy_amt","type":"uint256","internalType":"uint256"}],"outputs":[{"name":"id","type":"uint256","internalType":"uint256"}],"stateMutability":"nonpayable"},{"type":"function","name":"offers","inputs":[{"name":"","type":"uint256","internalType":"uint256"}],"outputs":[{"name":"pay_amt","type":"uint256","internalType":"uint256"},{"name":"buy_amt","type":"uint256","internalType":"uint256"},{"name":"owner","type":"address","internalType":"address payable"},{"name":"timestamp","type":"uint64","internalType":"uint64"},{"name":"escrowType","type":"uint256","internalType":"uint256"}],"stateMutability":"view"}],"bytecode":{"object":"0x60a060405234801561000f575f5ffd5b5060405161213b38038061213b833981810160405281019061003191906100c9565b8073ffffffffffffffffffffffffffffffffffffffff1660808173ffffffffffffffffffffffffffffffffffffffff1681525050506100f4565b5f5ffd5b5f73ffffffffffffffffffffffffffffffffffffffff82169050919050565b5f6100988261006f565b9050919050565b6100a88161008e565b81146100b2575f5ffd5b50565b5f815190506100c38161009f565b92915050565b5f602082840312156100de576100dd61006b565b5b5f6100eb848285016100b5565b91505092915050565b6080516120056101365f395f8181610524015281816108f001528181610a4501528181610bfa01528181610dd4015281816112e9015261141601526120055ff3fe608060405260043610610085575f3560e01c806382afd23b1161005857806382afd23b146101495780638a72ea6a14610185578063a321d886146101c5578063b42241ab14610201578063efbf81851461023157610085565b8063232cae0b14610089578063404cd129146100b357806340e58ee5146100e35780635ca02f1e1461011f575b5f5ffd5b348015610094575f5ffd5b5061009d61026d565b6040516100aa91906115e3565b60405180910390f35b6100cd60048036038101906100c8919061162a565b610272565b6040516100da919061166f565b60405180910390f35b3480156100ee575f5ffd5b506101096004803603810190610104919061162a565b61068b565b604051610116919061166f565b60405180910390f35b34801561012a575f5ffd5b50610133610a43565b6040516101409190611702565b60405180910390f35b348015610154575f5ffd5b5061016f600480360381019061016a919061162a565b610a67565b60405161017c919061166f565b60405180910390f35b348015610190575f5ffd5b506101ab60048036038101906101a6919061162a565b610aa4565b6040516101bc95949392919061175d565b60405180910390f35b3480156101d0575f5ffd5b506101eb60048036038101906101e691906117ae565b610b09565b6040516101f891906115e3565b60405180910390f35b61021b600480360381019061021691906117ae565b610ecd565b60405161022891906115e3565b60405180910390f35b34801561023c575f5ffd5b506102576004803603810190610252919061162a565b61111e565b604051610264919061166f565b60405180910390f35b5f5481565b5f60025f9054906101000a900460ff16156102c2576040517f08c379a00000000000000000000000000000000000000000000000000000000081526004016102b990611846565b60405180910390fd5b600160025f6101000a81548160ff0219169083151502179055505f60015f8481526020019081526020015f206040518060a00160405290815f820154815260200160018201548152602001600282015f9054906101000a900473ffffffffffffffffffffffffffffffffffffffff1673ffffffffffffffffffffffffffffffffffffffff1673ffffffffffffffffffffffffffffffffffffffff1681526020016002820160149054906101000a900467ffffffffffffffff1667ffffffffffffffff1667ffffffffffffffff16815260200160038201548152505090505f816060015167ffffffffffffffff16116103ef576040517f08c379a00000000000000000000000000000000000000000000000000000000081526004016103e6906118ae565b60405180910390fd5b5f816080015114610435576040517f08c379a000000000000000000000000000000000000000000000000000000000815260040161042c90611916565b60405180910390fd5b5f341180156104475750806020015134145b610486576040517f08c379a000000000000000000000000000000000000000000000000000000000815260040161047d9061197e565b60405180910390fd5b5f816020015111801561049b57505f815f0151115b6104da576040517f08c379a00000000000000000000000000000000000000000000000000000000081526004016104d1906119e6565b60405180910390fd5b806040015173ffffffffffffffffffffffffffffffffffffffff166108fc3490811502906040515f60405180830381858888f19350505050158015610521573d5f5f3e3d5ffd5b507f000000000000000000000000000000000000000000000000000000000000000073ffffffffffffffffffffffffffffffffffffffff1663a9059cbb33835f01516040518363ffffffff1660e01b8152600401610580929190611a24565b6020604051808303815f875af115801561059c573d5f5f3e3d5ffd5b505050506040513d601f19601f820116820180604052508101906105c09190611a75565b6105ff576040517f08c379a00000000000000000000000000000000000000000000000000000000081526004016105f690611aea565b60405180910390fd5b60015f8481526020019081526020015f205f5f82015f9055600182015f9055600282015f6101000a81549073ffffffffffffffffffffffffffffffffffffffff02191690556002820160146101000a81549067ffffffffffffffff0219169055600382015f9055505060019150505f60025f6101000a81548160ff021916908315150217905550919050565b5f60025f9054906101000a900460ff16156106db576040517f08c379a00000000000000000000000000000000000000000000000000000000081526004016106d290611846565b60405180910390fd5b600160025f6101000a81548160ff0219169083151502179055505f60015f8481526020019081526020015f206040518060a00160405290815f820154815260200160018201548152602001600282015f9054906101000a900473ffffffffffffffffffffffffffffffffffffffff1673ffffffffffffffffffffffffffffffffffffffff1673ffffffffffffffffffffffffffffffffffffffff1681526020016002820160149054906101000a900467ffffffffffffffff1667ffffffffffffffff1667ffffffffffffffff16815260200160038201548152505090505f816060015167ffffffffffffffff1611610808576040517f08c379a00000000000000000000000000000000000000000000000000000000081526004016107ff90611b78565b60405180910390fd5b3373ffffffffffffffffffffffffffffffffffffffff16816040015173ffffffffffffffffffffffffffffffffffffffff161461087a576040517f08c379a000000000000000000000000000000000000000000000000000000000815260040161087190611c06565b60405180910390fd5b60015f8481526020019081526020015f205f5f82015f9055600182015f9055600282015f6101000a81549073ffffffffffffffffffffffffffffffffffffffff02191690556002820160146101000a81549067ffffffffffffffff0219169055600382015f905550505f8160800151036109d4577f000000000000000000000000000000000000000000000000000000000000000073ffffffffffffffffffffffffffffffffffffffff1663a9059cbb8260400151835f01516040518363ffffffff1660e01b8152600401610950929190611c44565b6020604051808303815f875af115801561096c573d5f5f3e3d5ffd5b505050506040513d601f19601f820116820180604052508101906109909190611a75565b6109cf576040517f08c379a00000000000000000000000000000000000000000000000000000000081526004016109c690611aea565b60405180910390fd5b610a20565b806040015173ffffffffffffffffffffffffffffffffffffffff166108fc825f015190811502906040515f60405180830381858888f19350505050158015610a1e573d5f5f3e3d5ffd5b505b60019150505f60025f6101000a81548160ff021916908315150217905550919050565b7f000000000000000000000000000000000000000000000000000000000000000081565b5f5f60015f8481526020019081526020015f2060020160149054906101000a900467ffffffffffffffff1667ffffffffffffffff16119050919050565b6001602052805f5260405f205f91509050805f015490806001015490806002015f9054906101000a900473ffffffffffffffffffffffffffffffffffffffff16908060020160149054906101000a900467ffffffffffffffff16908060030154905085565b5f60025f9054906101000a900460ff1615610b59576040517f08c379a0000000000000000000000000000000000000000000000000000000008152600401610b5090611846565b60405180910390fd5b600160025f6101000a81548160ff0219169083151502179055505f8311610bb5576040517f08c379a0000000000000000000000000000000000000000000000000000000008152600401610bac90611cb5565b60405180910390fd5b5f8211610bf7576040517f08c379a0000000000000000000000000000000000000000000000000000000008152600401610bee90611d1d565b60405180910390fd5b827f000000000000000000000000000000000000000000000000000000000000000073ffffffffffffffffffffffffffffffffffffffff166370a08231336040518263ffffffff1660e01b8152600401610c519190611d3b565b602060405180830381865afa158015610c6c573d5f5f3e3d5ffd5b505050506040513d601f19601f82011682018060405250810190610c909190611d68565b1015610cd1576040517f08c379a0000000000000000000000000000000000000000000000000000000008152600401610cc890611ddd565b60405180910390fd5b5f5f8154610cde90611e28565b91905081905590506040518060a001604052808481526020018381526020013373ffffffffffffffffffffffffffffffffffffffff1681526020014267ffffffffffffffff1681526020015f81525060015f8381526020019081526020015f205f820151815f0155602082015181600101556040820151816002015f6101000a81548173ffffffffffffffffffffffffffffffffffffffff021916908373ffffffffffffffffffffffffffffffffffffffff16021790555060608201518160020160146101000a81548167ffffffffffffffff021916908367ffffffffffffffff160217905550608082015181600301559050507f000000000000000000000000000000000000000000000000000000000000000073ffffffffffffffffffffffffffffffffffffffff166323b872dd3330866040518463ffffffff1660e01b8152600401610e2f93929190611e6f565b6020604051808303815f875af1158015610e4b573d5f5f3e3d5ffd5b505050506040513d601f19601f82011682018060405250810190610e6f9190611a75565b610eae576040517f08c379a0000000000000000000000000000000000000000000000000000000008152600401610ea590611aea565b60405180910390fd5b5f60025f6101000a81548160ff02191690831515021790555092915050565b5f60025f9054906101000a900460ff1615610f1d576040517f08c379a0000000000000000000000000000000000000000000000000000000008152600401610f1490611846565b60405180910390fd5b600160025f6101000a81548160ff0219169083151502179055505f8311610f79576040517f08c379a0000000000000000000000000000000000000000000000000000000008152600401610f7090611cb5565b60405180910390fd5b5f8211610fbb576040517f08c379a0000000000000000000000000000000000000000000000000000000008152600401610fb290611d1d565b60405180910390fd5b823414610ffd576040517f08c379a0000000000000000000000000000000000000000000000000000000008152600401610ff490611eee565b60405180910390fd5b5f5f815461100a90611e28565b91905081905590506040518060a001604052808481526020018381526020013373ffffffffffffffffffffffffffffffffffffffff1681526020014267ffffffffffffffff168152602001600181525060015f8381526020019081526020015f205f820151815f0155602082015181600101556040820151816002015f6101000a81548173ffffffffffffffffffffffffffffffffffffffff021916908373ffffffffffffffffffffffffffffffffffffffff16021790555060608201518160020160146101000a81548167ffffffffffffffff021916908367ffffffffffffffff160217905550608082015181600301559050505f60025f6101000a81548160ff02191690831515021790555092915050565b5f60025f9054906101000a900460ff161561116e576040517f08c379a000000000000000000000000000000000000000000000000000000000815260040161116590611846565b60405180910390fd5b600160025f6101000a81548160ff0219169083151502179055505f60015f8481526020019081526020015f206040518060a00160405290815f820154815260200160018201548152602001600282015f9054906101000a900473ffffffffffffffffffffffffffffffffffffffff1673ffffffffffffffffffffffffffffffffffffffff1673ffffffffffffffffffffffffffffffffffffffff1681526020016002820160149054906101000a900467ffffffffffffffff1667ffffffffffffffff1667ffffffffffffffff16815260200160038201548152505090505f816060015167ffffffffffffffff161161129b576040517f08c379a0000000000000000000000000000000000000000000000000000000008152600401611292906118ae565b60405180910390fd5b60018160800151146112e2576040517f08c379a00000000000000000000000000000000000000000000000000000000081526004016112d990611916565b60405180910390fd5b80602001517f000000000000000000000000000000000000000000000000000000000000000073ffffffffffffffffffffffffffffffffffffffff166370a08231336040518263ffffffff1660e01b81526004016113409190611d3b565b602060405180830381865afa15801561135b573d5f5f3e3d5ffd5b505050506040513d601f19601f8201168201806040525081019061137f9190611d68565b10156113c0576040517f08c379a00000000000000000000000000000000000000000000000000000000081526004016113b790611f7c565b60405180910390fd5b5f81602001511180156113d557505f815f0151115b611414576040517f08c379a000000000000000000000000000000000000000000000000000000000815260040161140b906119e6565b60405180910390fd5b7f000000000000000000000000000000000000000000000000000000000000000073ffffffffffffffffffffffffffffffffffffffff166323b872dd33836040015184602001516040518463ffffffff1660e01b815260040161147993929190611f9a565b6020604051808303815f875af1158015611495573d5f5f3e3d5ffd5b505050506040513d601f19601f820116820180604052508101906114b99190611a75565b6114f8576040517f08c379a00000000000000000000000000000000000000000000000000000000081526004016114ef90611aea565b60405180910390fd5b3373ffffffffffffffffffffffffffffffffffffffff166108fc825f015190811502906040515f60405180830381858888f1935050505015801561153e573d5f5f3e3d5ffd5b5060015f8481526020019081526020015f205f5f82015f9055600182015f9055600282015f6101000a81549073ffffffffffffffffffffffffffffffffffffffff02191690556002820160146101000a81549067ffffffffffffffff0219169055600382015f9055505060019150505f60025f6101000a81548160ff021916908315150217905550919050565b5f819050919050565b6115dd816115cb565b82525050565b5f6020820190506115f65f8301846115d4565b92915050565b5f5ffd5b611609816115cb565b8114611613575f5ffd5b50565b5f8135905061162481611600565b92915050565b5f6020828403121561163f5761163e6115fc565b5b5f61164c84828501611616565b91505092915050565b5f8115159050919050565b61166981611655565b82525050565b5f6020820190506116825f830184611660565b92915050565b5f73ffffffffffffffffffffffffffffffffffffffff82169050919050565b5f819050919050565b5f6116ca6116c56116c084611688565b6116a7565b611688565b9050919050565b5f6116db826116b0565b9050919050565b5f6116ec826116d1565b9050919050565b6116fc816116e2565b82525050565b5f6020820190506117155f8301846116f3565b92915050565b5f61172582611688565b9050919050565b6117358161171b565b82525050565b5f67ffffffffffffffff82169050919050565b6117578161173b565b82525050565b5f60a0820190506117705f8301886115d4565b61177d60208301876115d4565b61178a604083018661172c565b611797606083018561174e565b6117a460808301846115d4565b9695505050505050565b5f5f604083850312156117c4576117c36115fc565b5b5f6117d185828601611616565b92505060206117e285828601611616565b9150509250929050565b5f82825260208201905092915050565b7f53796e63206c6f636b00000000000000000000000000000000000000000000005f82015250565b5f6118306009836117ec565b915061183b826117fc565b602082019050919050565b5f6020820190508181035f83015261185d81611824565b9050919050565b7f63616e6e6f74206275792c206f66666572204944206e6f7420616374697665005f82015250565b5f611898601f836117ec565b91506118a382611864565b602082019050919050565b5f6020820190508181035f8301526118c58161188c565b9050919050565b7f496e636f727265637420657363726f77207479706500000000000000000000005f82015250565b5f6119006015836117ec565b915061190b826118cc565b602082019050919050565b5f6020820190508181035f83015261192d816118f4565b9050919050565b7f6d73672e76616c7565206572726f7200000000000000000000000000000000005f82015250565b5f611968600f836117ec565b915061197382611934565b602082019050919050565b5f6020820190508181035f8301526119958161195c565b9050919050565b7f76616c75657320617265207a65726f00000000000000000000000000000000005f82015250565b5f6119d0600f836117ec565b91506119db8261199c565b602082019050919050565b5f6020820190508181035f8301526119fd816119c4565b9050919050565b5f611a0e82611688565b9050919050565b611a1e81611a04565b82525050565b5f604082019050611a375f830185611a15565b611a4460208301846115d4565b9392505050565b611a5481611655565b8114611a5e575f5ffd5b50565b5f81519050611a6f81611a4b565b92915050565b5f60208284031215611a8a57611a896115fc565b5b5f611a9784828501611a61565b91505092915050565b7f5472616e73666572206661696c656400000000000000000000000000000000005f82015250565b5f611ad4600f836117ec565b9150611adf82611aa0565b602082019050919050565b5f6020820190508181035f830152611b0181611ac8565b9050919050565b7f63616e6e6f742063616e63656c2c206f66666572204944206e6f7420616374695f8201527f7665000000000000000000000000000000000000000000000000000000000000602082015250565b5f611b626022836117ec565b9150611b6d82611b08565b604082019050919050565b5f6020820190508181035f830152611b8f81611b56565b9050919050565b7f63616e6e6f742063616e63656c2c206d73672e73656e646572206e6f742074685f8201527f652073616d65206173206f66666572206d616b65720000000000000000000000602082015250565b5f611bf06035836117ec565b9150611bfb82611b96565b604082019050919050565b5f6020820190508181035f830152611c1d81611be4565b9050919050565b5f611c2e826116d1565b9050919050565b611c3e81611c24565b82525050565b5f604082019050611c575f830185611c35565b611c6460208301846115d4565b9392505050565b7f7061795f616d74206973203000000000000000000000000000000000000000005f82015250565b5f611c9f600c836117ec565b9150611caa82611c6b565b602082019050919050565b5f6020820190508181035f830152611ccc81611c93565b9050919050565b7f6275795f616d74206973203000000000000000000000000000000000000000005f82015250565b5f611d07600c836117ec565b9150611d1282611cd3565b602082019050919050565b5f6020820190508181035f830152611d3481611cfb565b9050919050565b5f602082019050611d4e5f830184611a15565b92915050565b5f81519050611d6281611600565b92915050565b5f60208284031215611d7d57611d7c6115fc565b5b5f611d8a84828501611d54565b91505092915050565b7f496e73756666696369656e742062616c616e63654f66206865780000000000005f82015250565b5f611dc7601a836117ec565b9150611dd282611d93565b602082019050919050565b5f6020820190508181035f830152611df481611dbb565b9050919050565b7f4e487b71000000000000000000000000000000000000000000000000000000005f52601160045260245ffd5b5f611e32826115cb565b91507fffffffffffffffffffffffffffffffffffffffffffffffffffffffffffffffff8203611e6457611e63611dfb565b5b600182019050919050565b5f606082019050611e825f830186611a15565b611e8f6020830185611a15565b611e9c60408301846115d4565b949350505050565b7f7061795f616d74206e6f7420657175616c20746f206d73672e76616c756500005f82015250565b5f611ed8601e836117ec565b9150611ee382611ea4565b602082019050919050565b5f6020820190508181035f830152611f0581611ecc565b9050919050565b7f42616c616e6365206973206c657373207468616e2072657175657374656420735f8201527f70656e6420616d6f756e74000000000000000000000000000000000000000000602082015250565b5f611f66602b836117ec565b9150611f7182611f0c565b604082019050919050565b5f6020820190508181035f830152611f9381611f5a565b9050919050565b5f606082019050611fad5f830186611a15565b611fba6020830185611c35565b611fc760408301846115d4565b94935050505056fea2646970667358221220030864ddaafae620490d3fcabfd478d1075b94bdf10fa12857e3b518d9eb0d5d64736f6c634300081e0033","linkReferences":{}},"methodIdentifiers":{"buyETH(uint256)":"efbf8185","buyHEX(uint256)":"404cd129","cancel(uint256)":"40e58ee5","hexInterface()":"5ca02f1e","isActive(uint256)":"82afd23b","last_offer_id()":"232cae0b","offerETH(uint256,uint256)":"b42241ab","offerHEX(uint256,uint256)":"a321d886","offers(uint256)":"8a72ea6a"},"id":0}