{"abi":[{"type":"constructor","inputs":[{"name":"target_","type":"address","internalType":"address"},{"name":"hex_","type":"address","internalType":"address"}],"stateMutability":"payable"},{"type":"receive","stateMutability":"payable"},{"type":"function","name":"hexToken","inputs":[],"outputs":[{"name":"","type":"address","internalType":"address"}],"stateMutability":"view"},{"type":"function","name":"lastCallSucceeded","inputs":[],"outputs":[{"name":"","type":"bool","internalType":"bool"}],"stateMutability":"view"},{"type":"function","name":"lastReturnData","inputs":[],"outputs":[{"name":"","type":"bytes","internalType":"bytes"}],"stateMutability":"view"},{"type":"function","name":"target","inputs":[],"outputs":[{"name":"","type":"address","internalType":"address"}],"stateMutability":"view"},{"type":"function","name":"tryBuyETH","inputs":[{"name":"id","type":"uint256","internalType":"uint256"}],"outputs":[{"name":"","type":"bool","internalType":"bool"},{"name":"","type":"bytes","internalType":"bytes"}],"stateMutability":"nonpayable"}],"bytecode":{"object":"0x60c0604052604051610d58380380610d58833981810160405281019061002591906100f2565b8173ffffffffffffffffffffffffffffffffffffffff1660808173ffffffffffffffffffffffffffffffffffffffff16815250508073ffffffffffffffffffffffffffffffffffffffff1660a08173ffffffffffffffffffffffffffffffffffffffff16815250505050610130565b5f5ffd5b5f73ffffffffffffffffffffffffffffffffffffffff82169050919050565b5f6100c182610098565b9050919050565b6100d1816100b7565b81146100db575f5ffd5b50565b5f815190506100ec816100c8565b92915050565b5f5f6040838503121561010857610107610094565b5b5f610115858286016100de565b9250506020610126858286016100de565b9150509250929050565b60805160a051610bf26101665f395f818161017b01526104ed01525f81816101b70152818161029501526105220152610bf25ff3fe60806040526004361061004d575f3560e01c8063220104661461009157806326a2b98c146100ce57806349ce0a11146100f8578063bef6598614610122578063d4b839921461014c5761008d565b3661008d576040517f08c379a00000000000000000000000000000000000000000000000000000000081526004016100849061059e565b60405180910390fd5b5f5ffd5b34801561009c575f5ffd5b506100b760048036038101906100b291906105f3565b610176565b6040516100c59291906106a8565b60405180910390f35b3480156100d9575f5ffd5b506100e261045f565b6040516100ef91906106d6565b60405180910390f35b348015610103575f5ffd5b5061010c6104eb565b6040516101199190610735565b60405180910390f35b34801561012d575f5ffd5b5061013661050f565b604051610143919061074e565b60405180910390f35b348015610157575f5ffd5b50610160610520565b60405161016d9190610735565b60405180910390f35b5f60607f000000000000000000000000000000000000000000000000000000000000000073ffffffffffffffffffffffffffffffffffffffff1663095ea7b37f00000000000000000000000000000000000000000000000000000000000000007fffffffffffffffffffffffffffffffffffffffffffffffffffffffffffffffff6040518363ffffffff1660e01b8152600401610214929190610776565b6020604051808303815f875af1158015610230573d5f5f3e3d5ffd5b505050506040513d601f19601f8201168201806040525081019061025491906107c7565b610293576040517f08c379a000000000000000000000000000000000000000000000000000000000815260040161028a9061083c565b60405180910390fd5b7f000000000000000000000000000000000000000000000000000000000000000073ffffffffffffffffffffffffffffffffffffffff1663efbf818560e01b846040516024016102e3919061085a565b604051602081830303815290604052907bffffffffffffffffffffffffffffffffffffffffffffffffffffffff19166020820180517bffffffffffffffffffffffffffffffffffffffffffffffffffffffff838183161783525050505060405161034d91906108ad565b5f604051808303815f865af19150503d805f8114610386576040519150601f19603f3d011682016040523d82523d5f602084013e61038b565b606091505b505f5f60015f8491905090816103a19190610aed565b508391906101000a81548160ff02191690831515021790555050505f5f9054906101000a900460ff1660018080546103d89061091d565b80601f01602080910402602001604051908101604052809291908181526020018280546104049061091d565b801561044f5780601f106104265761010080835404028352916020019161044f565b820191905f5260205f20905b81548152906001019060200180831161043257829003601f168201915b5050505050905091509150915091565b6001805461046c9061091d565b80601f01602080910402602001604051908101604052809291908181526020018280546104989061091d565b80156104e35780601f106104ba576101008083540402835291602001916104e3565b820191905f5260205f20905b8154815290600101906020018083116104c657829003601f168201915b505050505081565b7f000000000000000000000000000000000000000000000000000000000000000081565b5f5f9054906101000a900460ff1681565b7f000000000000000000000000000000000000000000000000000000000000000081565b5f82825260208201905092915050565b7f72656a65637420455448000000000000000000000000000000000000000000005f82015250565b5f610588600a83610544565b915061059382610554565b602082019050919050565b5f6020820190508181035f8301526105b58161057c565b9050919050565b5f5ffd5b5f819050919050565b6105d2816105c0565b81146105dc575f5ffd5b50565b5f813590506105ed816105c9565b92915050565b5f60208284031215610608576106076105bc565b5b5f610615848285016105df565b91505092915050565b5f8115159050919050565b6106328161061e565b82525050565b5f81519050919050565b5f82825260208201905092915050565b8281835e5f83830152505050565b5f601f19601f8301169050919050565b5f61067a82610638565b6106848185610642565b9350610694818560208601610652565b61069d81610660565b840191505092915050565b5f6040820190506106bb5f830185610629565b81810360208301526106cd8184610670565b90509392505050565b5f6020820190508181035f8301526106ee8184610670565b905092915050565b5f73ffffffffffffffffffffffffffffffffffffffff82169050919050565b5f61071f826106f6565b9050919050565b61072f81610715565b82525050565b5f6020820190506107485f830184610726565b92915050565b5f6020820190506107615f830184610629565b92915050565b610770816105c0565b82525050565b5f6040820190506107895f830185610726565b6107966020830184610767565b9392505050565b6107a68161061e565b81146107b0575f5ffd5b50565b5f815190506107c18161079d565b92915050565b5f602082840312156107dc576107db6105bc565b5b5f6107e9848285016107b3565b91505092915050565b7f617070726f7665206661696c65640000000000000000000000000000000000005f82015250565b5f610826600e83610544565b9150610831826107f2565b602082019050919050565b5f6020820190508181035f8301526108538161081a565b9050919050565b5f60208201905061086d5f830184610767565b92915050565b5f81905092915050565b5f61088782610638565b6108918185610873565b93506108a1818560208601610652565b80840191505092915050565b5f6108b8828461087d565b915081905092915050565b7f4e487b71000000000000000000000000000000000000000000000000000000005f52604160045260245ffd5b7f4e487b71000000000000000000000000000000000000000000000000000000005f52602260045260245ffd5b5f600282049050600182168061093457607f821691505b602082108103610947576109466108f0565b5b50919050565b5f819050815f5260205f209050919050565b5f6020601f8301049050919050565b5f82821b905092915050565b5f600883026109a97fffffffffffffffffffffffffffffffffffffffffffffffffffffffffffffffff8261096e565b6109b3868361096e565b95508019841693508086168417925050509392505050565b5f819050919050565b5f6109ee6109e96109e4846105c0565b6109cb565b6105c0565b9050919050565b5f819050919050565b610a07836109d4565b610a1b610a13826109f5565b84845461097a565b825550505050565b5f5f905090565b610a32610a23565b610a3d8184846109fe565b505050565b5b81811015610a6057610a555f82610a2a565b600181019050610a43565b5050565b601f821115610aa557610a768161094d565b610a7f8461095f565b81016020851015610a8e578190505b610aa2610a9a8561095f565b830182610a42565b50505b505050565b5f82821c905092915050565b5f610ac55f1984600802610aaa565b1980831691505092915050565b5f610add8383610ab6565b9150826002028217905092915050565b610af682610638565b67ffffffffffffffff811115610b0f57610b0e6108c3565b5b610b19825461091d565b610b24828285610a64565b5f60209050601f831160018114610b55575f8415610b43578287015190505b610b4d8582610ad2565b865550610bb4565b601f198416610b638661094d565b5f5b82811015610b8a57848901518255600182019150602085019450602081019050610b65565b86831015610ba75784890151610ba3601f891682610ab6565b8355505b6001600288020188555050505b50505050505056fea26469706673582212204fb1374d4f85b59a99a922d2bc7af3c9b64ee36bfb78af63409cac619308965e64736f6c634300081e0033","linkReferences":{}},"methodIdentifiers":{"hexToken()":"49ce0a11","lastCallSucceeded()":"bef65986","lastReturnData()":"26a2b98c","target()":"d4b83992","tryBuyETH(uint256)":"22010466"},"id":0}