{"abi":[{"type":"constructor","inputs":[{"name":"target_","type":"address","internalType":"address"}],"stateMutability":"payable"},{"type":"receive","stateMutability":"payable"},{"type":"function","name":"createEthOfferFromBalance","inputs":[{"name":"payAmt","type":"uint256","internalType":"uint256"},{"name":"buyAmt","type":"uint256","internalType":"uint256"}],"outputs":[{"name":"","type":"uint256","internalType":"uint256"}],"stateMutability":"nonpayable"},{"type":"function","name":"lastCallSucceeded","inputs":[],"outputs":[{"name":"","type":"bool","internalType":"bool"}],"stateMutability":"view"},{"type":"function","name":"lastReturnData","inputs":[],"outputs":[{"name":"","type":"bytes","internalType":"bytes"}],"stateMutability":"view"},{"type":"function","name":"target","inputs":[],"outputs":[{"name":"","type":"address","internalType":"address"}],"stateMutability":"view"},{"type":"function","name":"tryCancel","inputs":[{"name":"id","type":"uint256","internalType":"uint256"}],"outputs":[{"name":"","type":"bool","internalType":"bool"},{"name":"","type":"bytes","internalType":"bytes"}],"stateMutability":"nonpayable"}],"bytecode":{"object":"0x60a0604052604051610ccf380380610ccf833981810160405281019061002591906100bd565b8073ffffffffffffffffffffffffffffffffffffffff1660808173ffffffffffffffffffffffffffffffffffffffff1681525050506100e8565b5f5ffd5b5f73ffffffffffffffffffffffffffffffffffffffff82169050919050565b5f61008c82610063565b9050919050565b61009c81610082565b81146100a6575f5ffd5b50565b5f815190506100b781610093565b92915050565b5f602082840312156100d2576100d161005f565b5b5f6100df848285016100a9565b91505092915050565b608051610bba6101155f395f8181610217015281816102b50152818161035e015261052a0152610bba5ff3fe60806040526004361061004d575f3560e01c806326a2b98c1461009157806370914bde146100bb578063bef65986146100f7578063c1a8e90d14610121578063d4b839921461015e5761008d565b3661008d576040517f08c379a0000000000000000000000000000000000000000000000000000000008152600401610084906105a6565b60405180910390fd5b5f5ffd5b34801561009c575f5ffd5b506100a5610188565b6040516100b29190610634565b60405180910390f35b3480156100c6575f5ffd5b506100e160048036038101906100dc919061068b565b610214565b6040516100ee91906106d8565b60405180910390f35b348015610102575f5ffd5b5061010b610348565b604051610118919061070b565b60405180910390f35b34801561012c575f5ffd5b5061014760048036038101906101429190610724565b610359565b60405161015592919061074f565b60405180910390f35b348015610169575f5ffd5b50610172610528565b60405161017f91906107bc565b60405180910390f35b6001805461019590610802565b80601f01602080910402602001604051908101604052809291908181526020018280546101c190610802565b801561020c5780601f106101e35761010080835404028352916020019161020c565b820191905f5260205f20905b8154815290600101906020018083116101ef57829003601f168201915b505050505081565b5f7f000000000000000000000000000000000000000000000000000000000000000073ffffffffffffffffffffffffffffffffffffffff1663b42241ab8485856040518463ffffffff1660e01b8152600401610271929190610832565b60206040518083038185885af115801561028d573d5f5f3e3d5ffd5b50505050506040513d601f19601f820116820180604052508101906102b2919061086d565b507f000000000000000000000000000000000000000000000000000000000000000073ffffffffffffffffffffffffffffffffffffffff1663232cae0b6040518163ffffffff1660e01b8152600401602060405180830381865afa15801561031c573d5f5f3e3d5ffd5b505050506040513d601f19601f82011682018060405250810190610340919061086d565b905092915050565b5f5f9054906101000a900460ff1681565b5f60607f000000000000000000000000000000000000000000000000000000000000000073ffffffffffffffffffffffffffffffffffffffff166340e58ee560e01b846040516024016103ac91906106d8565b604051602081830303815290604052907bffffffffffffffffffffffffffffffffffffffffffffffffffffffff19166020820180517bffffffffffffffffffffffffffffffffffffffffffffffffffffffff838183161783525050505060405161041691906108d2565b5f604051808303815f865af19150503d805f811461044f576040519150601f19603f3d011682016040523d82523d5f602084013e610454565b606091505b505f5f60015f84919050908161046a9190610ab5565b508391906101000a81548160ff02191690831515021790555050505f5f9054906101000a900460ff1660018080546104a190610802565b80601f01602080910402602001604051908101604052809291908181526020018280546104cd90610802565b80156105185780601f106104ef57610100808354040283529160200191610518565b820191905f5260205f20905b8154815290600101906020018083116104fb57829003601f168201915b5050505050905091509150915091565b7f000000000000000000000000000000000000000000000000000000000000000081565b5f82825260208201905092915050565b7f72656a65637420455448000000000000000000000000000000000000000000005f82015250565b5f610590600a8361054c565b915061059b8261055c565b602082019050919050565b5f6020820190508181035f8301526105bd81610584565b9050919050565b5f81519050919050565b5f82825260208201905092915050565b8281835e5f83830152505050565b5f601f19601f8301169050919050565b5f610606826105c4565b61061081856105ce565b93506106208185602086016105de565b610629816105ec565b840191505092915050565b5f6020820190508181035f83015261064c81846105fc565b905092915050565b5f5ffd5b5f819050919050565b61066a81610658565b8114610674575f5ffd5b50565b5f8135905061068581610661565b92915050565b5f5f604083850312156106a1576106a0610654565b5b5f6106ae85828601610677565b92505060206106bf85828601610677565b9150509250929050565b6106d281610658565b82525050565b5f6020820190506106eb5f8301846106c9565b92915050565b5f8115159050919050565b610705816106f1565b82525050565b5f60208201905061071e5f8301846106fc565b92915050565b5f6020828403121561073957610738610654565b5b5f61074684828501610677565b91505092915050565b5f6040820190506107625f8301856106fc565b818103602083015261077481846105fc565b90509392505050565b5f73ffffffffffffffffffffffffffffffffffffffff82169050919050565b5f6107a68261077d565b9050919050565b6107b68161079c565b82525050565b5f6020820190506107cf5f8301846107ad565b92915050565b7f4e487b71000000000000000000000000000000000000000000000000000000005f52602260045260245ffd5b5f600282049050600182168061081957607f821691505b60208210810361082c5761082b6107d5565b5b50919050565b5f6040820190506108455f8301856106c9565b61085260208301846106c9565b9392505050565b5f8151905061086781610661565b92915050565b5f6020828403121561088257610881610654565b5b5f61088f84828501610859565b91505092915050565b5f81905092915050565b5f6108ac826105c4565b6108b68185610898565b93506108c68185602086016105de565b80840191505092915050565b5f6108dd82846108a2565b915081905092915050565b7f4e487b71000000000000000000000000000000000000000000000000000000005f52604160045260245ffd5b5f819050815f5260205f209050919050565b5f6020601f8301049050919050565b5f82821b905092915050565b5f600883026109717fffffffffffffffffffffffffffffffffffffffffffffffffffffffffffffffff82610936565b61097b8683610936565b95508019841693508086168417925050509392505050565b5f819050919050565b5f6109b66109b16109ac84610658565b610993565b610658565b9050919050565b5f819050919050565b6109cf8361099c565b6109e36109db826109bd565b848454610942565b825550505050565b5f5f905090565b6109fa6109eb565b610a058184846109c6565b505050565b5b81811015610a2857610a1d5f826109f2565b600181019050610a0b565b5050565b601f821115610a6d57610a3e81610915565b610a4784610927565b81016020851015610a56578190505b610a6a610a6285610927565b830182610a0a565b50505b505050565b5f82821c905092915050565b5f610a8d5f1984600802610a72565b1980831691505092915050565b5f610aa58383610a7e565b9150826002028217905092915050565b610abe826105c4565b67ffffffffffffffff811115610ad757610ad66108e8565b5b610ae18254610802565b610aec828285610a2c565b5f60209050601f831160018114610b1d575f8415610b0b578287015190505b610b158582610a9a565b865550610b7c565b601f198416610b2b86610915565b5f5b82811015610b5257848901518255600182019150602085019450602081019050610b2d565b86831015610b6f5784890151610b6b601f891682610a7e565b8355505b6001600288020188555050505b50505050505056fea264697066735822122086ffdfeb570908b70145f266b9d00b78b87c26482511d77675c27b49703b490f64736f6c634300081e0033","linkReferences":{}},"methodIdentifiers":{"createEthOfferFromBalance(uint256,uint256)":"70914bde","lastCallSucceeded()":"bef65986","lastReturnData()":"26a2b98c","target()":"d4b83992","tryCancel(uint256)":"c1a8e90d"},"id":0}