{"abi":[{"type":"receive","stateMutability":"payable"},{"type":"function","name":"approveToken","inputs":[{"name":"token","type":"address","internalType":"address"},{"name":"spender","type":"address","internalType":"address"},{"name":"amount","type":"uint256","internalType":"uint256"}],"outputs":[{"name":"","type":"bool","internalType":"bool"}],"stateMutability":"nonpayable"},{"type":"function","name":"placeEthOffer","inputs":[{"name":"target","type":"address","internalType":"address"},{"name":"payAmt","type":"uint256","internalType":"uint256"},{"name":"buyAmt","type":"uint256","internalType":"uint256"}],"outputs":[{"name":"ok","type":"bool","internalType":"bool"},{"name":"data","type":"bytes","internalType":"bytes"}],"stateMutability":"payable"},{"type":"function","name":"placeHexOffer","inputs":[{"name":"target","type":"address","internalType":"address"},{"name":"payAmt","type":"uint256","internalType":"uint256"},{"name":"buyAmt","type":"uint256","internalType":"uint256"}],"outputs":[{"name":"ok","type":"bool","internalType":"bool"},{"name":"data","type":"bytes","internalType":"bytes"}],"stateMutability":"nonpayable"},{"type":"function","name":"transferToken","inputs":[{"name":"token","type":"address","internalType":"address"},{"name":"to","type":"address","internalType":"address"},{"name":"amount","type":"uint256","internalType":"uint256"}],"outputs":[{"name":"","type":"bool","internalType":"bool"}],"stateMutability":"nonpayable"},{"type":"function","name":"tryBuyETH","inputs":[{"name":"target","type":"address","internalType":"address"},{"name":"id","type":"uint256","internalType":"uint256"}],"outputs":[{"name":"ok","type":"bool","internalType":"bool"},{"name":"data","type":"bytes","internalType":"bytes"}],"stateMutability":"nonpayable"},{"type":"function","name":"tryCancel","inputs":[{"name":"target","type":"address","internalType":"address"},{"name":"id","type":"uint256","internalType":"uint256"}],"outputs":[{"name":"ok","type":"bool","internalType":"bool"},{"name":"data","type":"bytes","internalType":"bytes"}],"stateMutability":"nonpayable"}],"bytecode":{"object":"0x6080604052348015600e575f5ffd5b50610ad28061001c5f395ff3fe608060405260043610610058575f3560e01c80633cd76d681461009c57806360f40a5d146100d95780638a19d99314610116578063c8bc9aad14610153578063da3e339714610184578063f5537ede146101c057610098565b36610098576040517f08c379a000000000000000000000000000000000000000000000000000000000815260040161008f90610714565b60405180910390fd5b5f5ffd5b3480156100a7575f5ffd5b506100c260048036038101906100bd91906107c3565b6101fc565b6040516100d092919061088b565b60405180910390f35b3480156100e4575f5ffd5b506100ff60048036038101906100fa91906107c3565b6102e7565b60405161010d92919061088b565b60405180910390f35b348015610121575f5ffd5b5061013c600480360381019061013791906108b9565b6103d2565b60405161014a92919061088b565b60405180910390f35b61016d600480360381019061016891906108b9565b6104c0565b60405161017b92919061088b565b60405180910390f35b34801561018f575f5ffd5b506101aa60048036038101906101a59190610909565b6105b0565b6040516101b79190610959565b60405180910390f35b3480156101cb575f5ffd5b506101e660048036038101906101e19190610909565b610635565b6040516101f39190610959565b60405180910390f35b5f60608373ffffffffffffffffffffffffffffffffffffffff166340e58ee560e01b8460405160240161022f9190610981565b604051602081830303815290604052907bffffffffffffffffffffffffffffffffffffffffffffffffffffffff19166020820180517bffffffffffffffffffffffffffffffffffffffffffffffffffffffff838183161783525050505060405161029991906109d4565b5f604051808303815f865af19150503d805f81146102d2576040519150601f19603f3d011682016040523d82523d5f602084013e6102d7565b606091505b5080925081935050509250929050565b5f60608373ffffffffffffffffffffffffffffffffffffffff1663efbf818560e01b8460405160240161031a9190610981565b604051602081830303815290604052907bffffffffffffffffffffffffffffffffffffffffffffffffffffffff19166020820180517bffffffffffffffffffffffffffffffffffffffffffffffffffffffff838183161783525050505060405161038491906109d4565b5f604051808303815f865af19150503d805f81146103bd576040519150601f19603f3d011682016040523d82523d5f602084013e6103c2565b606091505b5080925081935050509250929050565b5f60608473ffffffffffffffffffffffffffffffffffffffff1663a321d88660e01b85856040516024016104079291906109ea565b604051602081830303815290604052907bffffffffffffffffffffffffffffffffffffffffffffffffffffffff19166020820180517bffffffffffffffffffffffffffffffffffffffffffffffffffffffff838183161783525050505060405161047191906109d4565b5f604051808303815f865af19150503d805f81146104aa576040519150601f19603f3d011682016040523d82523d5f602084013e6104af565b606091505b508092508193505050935093915050565b5f60608473ffffffffffffffffffffffffffffffffffffffff163463b42241ab60e01b86866040516024016104f69291906109ea565b604051602081830303815290604052907bffffffffffffffffffffffffffffffffffffffffffffffffffffffff19166020820180517bffffffffffffffffffffffffffffffffffffffffffffffffffffffff838183161783525050505060405161056091906109d4565b5f6040518083038185875af1925050503d805f811461059a576040519150601f19603f3d011682016040523d82523d5f602084013e61059f565b606091505b508092508193505050935093915050565b5f8373ffffffffffffffffffffffffffffffffffffffff1663095ea7b384846040518363ffffffff1660e01b81526004016105ec929190610a20565b6020604051808303815f875af1158015610608573d5f5f3e3d5ffd5b505050506040513d601f19601f8201168201806040525081019061062c9190610a71565b90509392505050565b5f8373ffffffffffffffffffffffffffffffffffffffff1663a9059cbb84846040518363ffffffff1660e01b8152600401610671929190610a20565b6020604051808303815f875af115801561068d573d5f5f3e3d5ffd5b505050506040513d601f19601f820116820180604052508101906106b19190610a71565b90509392505050565b5f82825260208201905092915050565b7f6e6f2d65746800000000000000000000000000000000000000000000000000005f82015250565b5f6106fe6006836106ba565b9150610709826106ca565b602082019050919050565b5f6020820190508181035f83015261072b816106f2565b9050919050565b5f5ffd5b5f73ffffffffffffffffffffffffffffffffffffffff82169050919050565b5f61075f82610736565b9050919050565b61076f81610755565b8114610779575f5ffd5b50565b5f8135905061078a81610766565b92915050565b5f819050919050565b6107a281610790565b81146107ac575f5ffd5b50565b5f813590506107bd81610799565b92915050565b5f5f604083850312156107d9576107d8610732565b5b5f6107e68582860161077c565b92505060206107f7858286016107af565b9150509250929050565b5f8115159050919050565b61081581610801565b82525050565b5f81519050919050565b5f82825260208201905092915050565b8281835e5f83830152505050565b5f601f19601f8301169050919050565b5f61085d8261081b565b6108678185610825565b9350610877818560208601610835565b61088081610843565b840191505092915050565b5f60408201905061089e5f83018561080c565b81810360208301526108b08184610853565b90509392505050565b5f5f5f606084860312156108d0576108cf610732565b5b5f6108dd8682870161077c565b93505060206108ee868287016107af565b92505060406108ff868287016107af565b9150509250925092565b5f5f5f606084860312156109205761091f610732565b5b5f61092d8682870161077c565b935050602061093e8682870161077c565b925050604061094f868287016107af565b9150509250925092565b5f60208201905061096c5f83018461080c565b92915050565b61097b81610790565b82525050565b5f6020820190506109945f830184610972565b92915050565b5f81905092915050565b5f6109ae8261081b565b6109b8818561099a565b93506109c8818560208601610835565b80840191505092915050565b5f6109df82846109a4565b915081905092915050565b5f6040820190506109fd5f830185610972565b610a0a6020830184610972565b9392505050565b610a1a81610755565b82525050565b5f604082019050610a335f830185610a11565b610a406020830184610972565b9392505050565b610a5081610801565b8114610a5a575f5ffd5b50565b5f81519050610a6b81610a47565b92915050565b5f60208284031215610a8657610a85610732565b5b5f610a9384828501610a5d565b9150509291505056fea2646970667358221220a5fff9a2d6985e420a6910f06012f8183dbbe2b4c6dc762b9dd625c6e7adb3ea64736f6c634300081e0033","linkReferences":{}},"methodIdentifiers":{"approveToken(address,address,uint256)":"da3e3397","placeEthOffer(address,uint256,uint256)":"c8bc9aad","placeHexOffer(address,uint256,uint256)":"8a19d993","transferToken(address,address,uint256)":"f5537ede","tryBuyETH(address,uint256)":"60f40a5d","tryCancel(address,uint256)":"3cd76d68"},"id":0}