{"abi":[{"type":"constructor","inputs":[],"stateMutability":"nonpayable"},{"type":"receive","stateMutability":"payable"},{"type":"function","name":"TARGET","inputs":[],"outputs":[{"name":"","type":"address","internalType":"address"}],"stateMutability":"view"},{"type":"function","name":"callBorrow","inputs":[{"name":"nftId","type":"uint256","internalType":"uint256"},{"name":"token","type":"address","internalType":"address"},{"name":"amount","type":"uint256","internalType":"uint256"}],"outputs":[{"name":"","type":"uint256","internalType":"uint256"}],"stateMutability":"nonpayable"},{"type":"function","name":"callDeposit","inputs":[{"name":"nftId","type":"uint256","internalType":"uint256"},{"name":"token","type":"address","internalType":"address"},{"name":"amount","type":"uint256","internalType":"uint256"}],"outputs":[{"name":"","type":"uint256","internalType":"uint256"}],"stateMutability":"nonpayable"},{"type":"function","name":"callLiquidate","inputs":[{"name":"victimNft","type":"uint256","internalType":"uint256"},{"name":"liquidatorPosition","type":"uint256","internalType":"uint256"},{"name":"paybackToken","type":"address","internalType":"address"},{"name":"receiveToken","type":"address","internalType":"address"},{"name":"shareAmount","type":"uint256","internalType":"uint256"}],"outputs":[{"name":"","type":"uint256","internalType":"uint256"}],"stateMutability":"nonpayable"},{"type":"function","name":"callPaybackAmount","inputs":[{"name":"nftId","type":"uint256","internalType":"uint256"},{"name":"token","type":"address","internalType":"address"},{"name":"amount","type":"uint256","internalType":"uint256"}],"outputs":[{"name":"","type":"uint256","internalType":"uint256"}],"stateMutability":"nonpayable"},{"type":"function","name":"callPaybackShares","inputs":[{"name":"nftId","type":"uint256","internalType":"uint256"},{"name":"token","type":"address","internalType":"address"},{"name":"shares","type":"uint256","internalType":"uint256"}],"outputs":[{"name":"","type":"uint256","internalType":"uint256"}],"stateMutability":"nonpayable"},{"type":"function","name":"callSolelyDeposit","inputs":[{"name":"nftId","type":"uint256","internalType":"uint256"},{"name":"token","type":"address","internalType":"address"},{"name":"amount","type":"uint256","internalType":"uint256"}],"outputs":[],"stateMutability":"nonpayable"},{"type":"function","name":"callSolelyWithdraw","inputs":[{"name":"nftId","type":"uint256","internalType":"uint256"},{"name":"token","type":"address","internalType":"address"},{"name":"amount","type":"uint256","internalType":"uint256"}],"outputs":[],"stateMutability":"nonpayable"},{"type":"function","name":"callWithdrawShares","inputs":[{"name":"nftId","type":"uint256","internalType":"uint256"},{"name":"token","type":"address","internalType":"address"},{"name":"shares","type":"uint256","internalType":"uint256"}],"outputs":[{"name":"","type":"uint256","internalType":"uint256"}],"stateMutability":"nonpayable"},{"type":"function","name":"depositPathNft","inputs":[],"outputs":[{"name":"","type":"uint256","internalType":"uint256"}],"stateMutability":"view"},{"type":"function","name":"executeOnOpportunity","inputs":[],"outputs":[],"stateMutability":"nonpayable"},{"type":"function","name":"executed","inputs":[],"outputs":[{"name":"","type":"bool","internalType":"bool"}],"stateMutability":"view"},{"type":"function","name":"liquidatorNft","inputs":[],"outputs":[{"name":"","type":"uint256","internalType":"uint256"}],"stateMutability":"view"},{"type":"function","name":"paybackPathNft","inputs":[],"outputs":[{"name":"","type":"uint256","internalType":"uint256"}],"stateMutability":"view"},{"type":"function","name":"profitAmount","inputs":[],"outputs":[{"name":"","type":"uint256","internalType":"uint256"}],"stateMutability":"view"},{"type":"function","name":"profitToken","inputs":[],"outputs":[{"name":"","type":"address","internalType":"address"}],"stateMutability":"view"},{"type":"function","name":"solelyPathNft","inputs":[],"outputs":[{"name":"","type":"uint256","internalType":"uint256"}],"stateMutability":"view"},{"type":"function","name":"vulnerableToken","inputs":[],"outputs":[{"name":"","type":"address","internalType":"address"}],"stateMutability":"view"}],"bytecode":{"object":"0x6101408060405234610258577337e49bf3749513a02fa535f0cbc383796e8107e460805263040141e560e01b81526020816004817337e49bf3749513a02fa535f0cbc383796e8107e45afa9081156101cc575f91610239575b5061012052608051604051630f9f234d60e01b815290602090829060049082906001600160a01b03165afa9081156101cc575f9161021a575b506001600160a01b0390811660a052608051604051637c854ec760e01b81529160209183916004918391165afa9081156101cc575f916101eb575b506001600160a01b031660c05260405161032a8082016001600160401b038111838210176101d757829161267f833903905ff080156101cc5760e0526040516101d28082016001600160401b038111838210176101d75782916129a9833903905ff080156101cc57610100526040516123e0908161029f8239608051818181610142015281816103bc015281816104b50152818161061b0152818161125901528181611392015281816115ee015281816120b20152612207015260a05181611613015260c051818181610e4e01528181610f48015281816110500152611551015260e0518161113801526101005181610b03015261012051816109390152f35b6040513d5f823e3d90fd5b634e487b7160e01b5f52604160045260245ffd5b61020d915060203d602011610213575b610205818361025c565b81019061027f565b5f6100cc565b503d6101fb565b610233915060203d60201161021357610205818361025c565b5f610091565b610252915060203d60201161021357610205818361025c565b5f610058565b5f80fd5b601f909101601f19168101906001600160401b038211908210176101d757604052565b9081602091031261025857516001600160a01b0381168103610258579056fe6080604052600436101561001a575b3615610018575f80fd5b005b5f5f3560e01c806301812f281461065c578063031b34f1146105c55780631a925cd1146105a857806330c78fa81461057c57806331a38c891461055a5780633c2448ed1461054257806343a519af14610496578063493436241461046f5780635ff972cc146104515780636c8167fe1461039c578063959e27481461037e578063a5865daf14610327578063ac0f31d01461028c578063b6658d1a1461026e578063bd7616bf14610217578063cc1f2afa146101e8578063cd5d6eb6146101ca5763f0280e88146100eb575061000e565b346101c7576020906100fc366106b1565b93916101093033146106db565b6040516330b9df9160e21b815260048101919091526001600160a01b03909116602482015260448101939093528280606481015b0381847f00000000000000000000000000000000000000000000000000000000000000006001600160a01b03165af19081156101bb5790610184575b602090604051908152f35b506020813d6020116101b3575b8161019e60209383610713565b810103126101af5760209051610179565b5f80fd5b3d9150610191565b604051903d90823e3d90fd5b80fd5b50346101c757806003193601126101c7576020600754604051908152f35b50346101c757806003193601126101c75760206040517337e49bf3749513a02fa535f0cbc383796e8107e48152f35b50346101c757602090610229366106b1565b93916102363033146106db565b60405163335956fd60e01b815260048101919091526001600160a01b039091166024820152604481019390935282806064810161013d565b50346101c757806003193601126101c7576020600854604051908152f35b50346101c75760a03660031901126101c7576044356001600160a01b0381168103610323576064356001600160a01b038116810361031f5761013d92916020916102d73033146106db565b60405163116bfe8160e11b8152600480359082015260248035908201526001600160a01b039283166044820152911660648201526084803590820152928390819060a4820190565b8280fd5b5080fd5b50346101c757602090610339366106b1565b93916103463033146106db565b60405163c7c5c4a760e01b815260048101919091526001600160a01b039091166024820152604481019390935282806064810161013d565b50346101c757806003193601126101c7576020600654604051908152f35b50346101c757806103ac366106b1565b6103ba9291923033146106db565b7f00000000000000000000000000000000000000000000000000000000000000006001600160a01b0316803b1561044d5760405163655ac96560e01b815260048101939093526001600160a01b0393909316602483015260448201529082908290606490829084905af18015610442576104315750f35b8161043b91610713565b6101c75780f35b6040513d84823e3d90fd5b8480fd5b50346101c757806003193601126101c7576020600154604051908152f35b50346101c757806003193601126101c757546040516001600160a01b039091168152602090f35b50346101af576104a5366106b1565b6104b39291923033146106db565b7f00000000000000000000000000000000000000000000000000000000000000006001600160a01b0316803b156101af5760405163296b910760e11b815260048101939093526001600160a01b039390931660248301526044820152905f908290606490829084905af180156105375761052b575080f35b61001891505f90610713565b6040513d5f823e3d90fd5b346101af575f3660031901126101af57610018610749565b346101af575f3660031901126101af57602060ff600454166040519015158152f35b346101af575f3660031901126101af5760045460405160089190911c6001600160a01b03168152602090f35b346101af575f3660031901126101af576020600554604051908152f35b346101af5760206105d5366106b1565b92916105e23033146106db565b604051636987b14960e11b815260048101919091526001600160a01b03909116602482015260448101929092528180606481015b03815f7f00000000000000000000000000000000000000000000000000000000000000006001600160a01b03165af18015610537575f9061018457602090604051908152f35b346101af57602061066c366106b1565b92916106793033146106db565b604051633d00726360e01b815260048101919091526001600160a01b0390911660248201526044810192909252818060648101610616565b60609060031901126101af57600435906024356001600160a01b03811681036101af579060443590565b156106e257565b60405162461bcd60e51b815260206004820152600960248201526837b7363c9039b2b63360b91b6044820152606490fd5b90601f8019910116810190811067ffffffffffffffff82111761073557604052565b634e487b7160e01b5f52604160045260245ffd5b60045460ff8116610e0f5760ff191660011760045560405161032061076e8183610713565b601882526020820190601f1901368237815115610dfb5773b8c77482e45f1f44de1745f52c74426c631bdd529052805160011015610dfb57739f8f72aa9304c8b593d555f12ef6589cc3a579a26040820152805160021015610dfb5773c011a72400e58ecd99ee497cf89e3775d4bd732f6060820152805160031015610dfb577357ab1ec28d129707052df4df418d58a2d46d5f516080820152805160041015610dfb5773dac17f958d2ee523a2206206994597c13d831ec760a0820152805160051015610dfb577399d8a9c45b2ecb0cca4e46a6f4db1b29eff6aee560c0820152805160061015610dfb57735f98805a4e8be255a32880fdec7f6728c6568ba060e0820152805160071015610dfb57731f9840a85d5af5bf1d1762f925bdaddc4201f984610100820152805160081015610dfb5773514910771af9ca656af840dff83e8264ecf986ca610120820152805160091015610dfb57737fc66500c84a76ad7e9c93437bfc5ac33e2ddae96101408201528051600a1015610dfb5773d533a949740bb3306d119cc777fa900ba034cd526101608201528051600b1015610dfb57734e3fbd56cd56c3e72c1403e103b45db9da5b9d2b6101808201528051600c1015610dfb577f00000000000000000000000000000000000000000000000000000000000000006001600160a01b03166101a08201528051600d1015610dfb5773a0b86991c6218b36c1d19d4a2e9eb0ce3606eb486101c08201528051600e1015610dfb57736b175474e89094c44da98b954eedeac495271d0f6101e08201528051600f1015610dfb57732260fac5e5542a773aa44fbcfedf7c193bc2c599610200820152805160101015610dfb5773ae7ab96520de3a18e5e111b5eaab095312d7fe84610220820152805160111015610dfb57737f39c581f595b53c5cb5bb9b2a7e0a0f3f1f8fa3610240820152805160121015610dfb5773be9895146f7af43049ca1c1ae358b0541ea49704610260820152805160131015610dfb5773ae78736cd615f374d3085123a210448e74fc6393610280820152805160141015610dfb57735e8422345238f34275888049021821e8e08caa1f6102a0820152805160151015610dfb5773ac3e018457b222d93114458476f3e3416abbe38f6102c0820152805160161015610dfb5773f939e0a03fb07f59a73314e73794be0e57ac1b4e6102e0820152805160171015610dfb5773c00e94cb662c3520282e6f5717214004a7f268886103008201528051907f00000000000000000000000000000000000000000000000000000000000000006001600160a01b0316905f5b838110610b3b5750505050565b8151811015610dfb57600581901b8201602001516001600160a01b038116908115610d3e576040516370a0823160e01b8152306004820152602081602481865afa908115610537575f91610dca575b50610b94836118df565b8101809111610db6578015610dae575b5f80604051602081019063095ea7b360e01b825289602482015282604482015260448152610bd3606482610713565b519082875af150610be2611983565b505f80604051602081019063095ea7b360e01b82528960248201528219604482015260448152610c13606482610713565b519082875af150610c22611983565b5060405190630b4f704d60e31b82528360048301523060248301527337e49bf3749513a02fa535f0cbc383796e8107e4604483015260648201526060816084815f8a5af18015610537575f915f905f92610d59575b5082610d51575b5081610d48575b5015610d3e5760048054610100600160a81b03191660089290921b610100600160a81b0316919091179055610cb981610e1f565b908115610d36575b610cca81610f19565b918215610d2e575b50610cdc81610ffd565b918215610d24575b50610cee90611542565b908115610d1c575b50610d165760048054610100600160a81b03191690556001905b01610b2e565b50505050565b90505f610cf6565b9150610cee610ce4565b91505f610cd2565b5f9150610cc1565b5050600190610d10565b9050155f610c85565b91505f610c7e565b925050506060813d8211610da6575b81610d7560609383610713565b810103126101af57610d8681610e12565b610d9e6040610d9760208501610e12565b9301610e12565b90915f610c77565b3d9150610d68565b506001610ba4565b634e487b7160e01b5f52601160045260245ffd5b90506020813d8211610df3575b81610de460209383610713565b810103126101af57515f610b8a565b3d9150610dd7565b634e487b7160e01b5f52603260045260245ffd5b50565b519081151582036101af57565b610e2881611a68565b8015610ece57610e3782611dcf565b60405163c814d2d160e01b8152906020826004815f7f00000000000000000000000000000000000000000000000000000000000000006001600160a01b03165af1918215610537575f92610ee3575b50610e92908383611e72565b90158015610edb575b610ed457610eaa908383611ef7565b15610ece57600555610ebb81611f77565b5f546001600160a01b0391821691161490565b50505f90565b5050505f90565b508015610e9b565b9091506020813d602011610f11575b81610eff60209383610713565b810103126101af575190610e92610e86565b3d9150610ef2565b610f2281611b53565b8015610ece57610f3182611dcf565b60405163c814d2d160e01b8152906020826004815f7f00000000000000000000000000000000000000000000000000000000000000006001600160a01b03165af1918215610537575f92610fbc575b50610f8c81848461202f565b15610ed457610f9b838361209c565b15610ed457610fab90838361219c565b15610ece57600655610ebb81611f77565b9091506020813d602011610fe8575b81610fd860209383610713565b810103126101af5751905f610f80565b3d9150610fcb565b91908203918211610db657565b5f611007826121dd565b50505015610ece5761101882611c27565b9161102281611cfb565b928015801561151b575b6114d45761103982611dcf565b60405163c814d2d160e01b8152906020826004815f7f00000000000000000000000000000000000000000000000000000000000000006001600160a01b03165af1918215610537575f926114e5575b50611094908383611e72565b90159081156114dc575b506114d4576040516370a0823160e01b81523060048201526001600160a01b03831694602082602481895afa918215610537575f9261149e575b506110e49084846122a1565b1561122a576040516370a0823160e01b815230600482015290602082602481895afa8015610537575f9061146a575b61111d9250610ff0565b90811561122a5760405163a9059cbb60e01b602082019081527f00000000000000000000000000000000000000000000000000000000000000006001600160a01b0316602483018190526044808401869052835293915f918291611182606482610713565b519082885af1611190611983565b81611433575b5015611403576111a5846119c2565b6111b15f9185846122db565b611362575b8015611233575b1561122a57600755803b156101af575f809160446040518094819363b8dc491b60e01b83528960048401523060248401525af1801561053757611213575b5061120590611f77565b546001600160a01b03161490565b6112209192505f90610713565b5f906112056111fb565b50505050505f90565b604051632a145e2560e01b8152600481018390526001600160a01b0385811660248301527f00000000000000000000000000000000000000000000000000000000000000001690602081604481855afa908115610537575f91611330575b50806112a15750505060016111bd565b6112ac908685612315565b6112b7575b506111bd565b604051632a145e2560e01b8152600481018490526001600160a01b03861660248201529150602090829060449082905afa908115610537575f916112fe575b50155f6112b1565b90506020813d602011611328575b8161131960209383610713565b810103126101af57515f6112f6565b3d915061130c565b90506020813d60201161135a575b8161134b60209383610713565b810103126101af57515f611291565b3d915061133e565b50604051632a145e2560e01b8152600481018290526001600160a01b0384166024820152602081806044810103817f00000000000000000000000000000000000000000000000000000000000000006001600160a01b03165afa908115610537575f916113d1575b50156111b6565b90506020813d6020116113fb575b816113ec60209383610713565b810103126101af57515f6113ca565b3d91506113df565b60405162461bcd60e51b81526020600482015260086024820152673a3930b739b332b960c11b6044820152606490fd5b8051801592508215611448575b50505f611196565b81925090602091810103126101af5760206114639101610e12565b5f80611440565b506020823d602011611496575b8161148460209383610713565b810103126101af5761111d9151611113565b3d9150611477565b9091506020813d6020116114cc575b816114ba60209383610713565b810103126101af5751906110e46110d8565b3d91506114ad565b505050505f90565b9050155f61109e565b9091506020813d602011611513575b8161150160209383610713565b810103126101af575190611094611088565b3d91506114f4565b50831561102c565b908160209103126101af57516001600160a01b03811681036101af5790565b6040516318160ddd60e01b81527f00000000000000000000000000000000000000000000000000000000000000006001600160a01b0316929190602081600481875afa5f91816118ab575b5061159957505f925050565b80156118a45760205f9460046040518097819363c814d2d160e01b83525af1938415610537575f94611870575b5083600855608081115f1461186857607f198101818111610db65793905b6001600160a01b037f0000000000000000000000000000000000000000000000000000000000000000811692917f0000000000000000000000000000000000000000000000000000000000000000909116905b86811161164857505f955050505050565b60405163a96bb61160e01b815260048101829052602081602481865afa5f9181611835575b5061168257505b8015610db6575f1901611637565b670de0b6b3a7640000101561183057604051632a145e2560e01b8152600481018290526001600160a01b0386166024820152602081604481885afa908115610537575f916117ff575b508015611762576040516345d468af60e11b815260048101839052602081602481895afa5f91816117cc575b50611703575050611674565b15611762576040516362aa126d60e01b8152600481018390525f6024820152602081604481895afa80156105375761175d915f9161179e575b509160148104908115611796575b5061175483611dcf565b8288878661234e565b611768575b50611674565b61177181611f77565b5f546001600160a01b0391821691161461178b575f611762565b506001955050505050565b90505f61174a565b6117bf915060203d81116117c5575b6117b78183610713565b810190611523565b5f61173c565b503d6117ad565b9091506020813d82116117f7575b816117e760209383610713565b810103126101af5751905f6116f7565b3d91506117da565b90506020813d8211611828575b8161181960209383610713565b810103126101af57515f6116cb565b3d915061180c565b611674565b9091506020813d8211611860575b8161185060209383610713565b810103126101af5751905f61166d565b3d9150611843565b5f93906115e4565b9093506020813d60201161189c575b8161188c60209383610713565b810103126101af5751925f6115c6565b3d915061187f565b505f925050565b9091506020813d6020116118d7575b816118c760209383610713565b810103126101af5751905f61158d565b3d91506118ba565b60405163313ce56760e01b815290601290602090839060049082906001600160a01b03165afa5f9281611945575b50611926575b60ff915016604d8111610db657600a0a90565b50601260ff8216111561193d575060ff6012611913565b60ff90611913565b9092506020813d60201161197b575b8161196160209383610713565b810103126101af575160ff811681036101af57915f61190d565b3d9150611954565b3d156119bd573d9067ffffffffffffffff821161073557604051916119b2601f8201601f191660200184610713565b82523d5f602084013e565b606090565b5f80918180604051602081019063095ea7b360e01b82527337e49bf3749513a02fa535f0cbc383796e8107e4602482015282604482015260448152611a08606482610713565b519082855af150611a17611983565b5060405182602082019163095ea7b360e01b83527337e49bf3749513a02fa535f0cbc383796e8107e460248201528119604482015260448152611a5b606482610713565b51925af150610e0f611983565b6040516370a0823160e01b81527337e49bf3749513a02fa535f0cbc383796e8107e46004820152906020826024816001600160a01b0385165afa918215610537575f92611b1f575b508115610ece57611ac0906118df565b90600a820291808304600a1481151715610db65780600a840403611b16575b6064820492808411611b0e575b50808310611b06575b50808211611b01575090565b905090565b91505f611af5565b92505f611aec565b5f199250611adf565b9091506020813d602011611b4b575b81611b3b60209383610713565b810103126101af5751905f611ab0565b3d9150611b2e565b6040516370a0823160e01b81527337e49bf3749513a02fa535f0cbc383796e8107e46004820152906020826024816001600160a01b0385165afa918215610537575f92611bf3575b508115610ece57611bab906118df565b90600582029180830460051481151715610db657806005840403611bea575b6096820492808411611b0e5750808310611b065750808211611b01575090565b5f199250611bca565b9091506020813d602011611c1f575b81611c0f60209383610713565b810103126101af5751905f611b9b565b3d9150611c02565b6040516370a0823160e01b81527337e49bf3749513a02fa535f0cbc383796e8107e46004820152906020826024816001600160a01b0385165afa918215610537575f92611cc7575b508115610ece57611c7f906118df565b90600a820291808304600a1481151715610db65780600a840403611cbe575b60c8820492808411611b0e5750808310611b065750808211611b01575090565b5f199250611c9e565b9091506020813d602011611cf3575b81611ce360209383610713565b810103126101af5751905f611c6f565b3d9150611cd6565b6040516370a0823160e01b81527337e49bf3749513a02fa535f0cbc383796e8107e46004820152906020826024816001600160a01b0385165afa918215610537575f92611d9b575b508115610ece57611d53906118df565b90600582029180830460051481151715610db657806005840403611d92575b60fa820492808411611b0e5750808310611b065750808211611b01575090565b5f199250611d72565b9091506020813d602011611dc7575b81611db760209383610713565b810103126101af5751905f611d43565b3d9150611daa565b6001600160a01b03165f8181526003602052604090205460ff16610e0f57805f52600360205260405f20600160ff19825416179055604051906370a0823160e01b8252306004830152602082602481845afa918215610537575f92611e3e575b505f52600260205260405f2055565b9091506020813d602011611e6a575b81611e5a60209383610713565b810103126101af5751905f611e2f565b3d9150611e4d565b60405163031b34f160e01b815260048101919091526001600160a01b0391909116602482015260448101919091526020816064815f305af15f9181611ec3575b50611ebe57505f905f90565b600191565b9091506020813d602011611eef575b81611edf60209383610713565b810103126101af5751905f611eb2565b3d9150611ed2565b604051631e0501d160e31b815260048101919091526001600160a01b039091166024820152604481019190915260208180606481015b03815f305af19081611f48575b50611f43575f90565b600190565b6020813d602011611f6f575b81611f6160209383610713565b810103126101af5751611f3a565b3d9150611f54565b6001600160a01b03165f818152600260209081526040918290205491516370a0823160e01b8152306004820152919082602481865afa918215610537575f92611ffb575b5080821115611ff657611fcd91610ff0565b906001548211611fdb575050565b6bffffffffffffffffffffffff60a01b5f5416175f55600155565b505050565b9091506020813d602011612027575b8161201760209383610713565b810103126101af5751905f611fbb565b3d915061200a565b5f9291303b156101af576040516343a519af60e01b815260048101929092526001600160a01b0316602482015260448101919091525f8180606481015b038183305af19081612087575b506120815790565b50600190565b6120949192505f90610713565b5f905f612079565b6040516345d468af60e11b8152600481018290527f00000000000000000000000000000000000000000000000000000000000000006001600160a01b0316929190602081602481875afa5f9181612168575b506120fb57505050505f90565b15610ed4576020906044604051809581936362aa126d60e01b835260048301525f60248301525afa5f9281612147575b506121365750505f90565b6001600160a01b0391821691161490565b61216191935060203d6020116117c5576117b78183610713565b915f61212b565b9091506020813d602011612194575b8161218460209383610713565b810103126101af5751905f6120ee565b3d9150612177565b5f9291303b156101af57604051633640b3ff60e11b815260048101929092526001600160a01b0316602482015260448101919091525f81806064810161206c565b6040516381cc49a360e01b81526001600160a01b03918216600482015290608090829060249082907f0000000000000000000000000000000000000000000000000000000000000000165afa905f915f92815f935f9361224e575b5061224b57505050505f905f905f905f90565b93565b9450925050506080823d608011612299575b8161226d60809383610713565b810103126101af5761227e82610e12565b9060208301516060604085015194015192909392915f612238565b3d9150612260565b60405163a5865daf60e01b815260048101919091526001600160a01b03909116602482015260448101919091526020818060648101611f2d565b60405163bd7616bf60e01b815260048101919091526001600160a01b03909116602482015260448101919091526020818060648101611f2d565b604051623025e560e31b815260048101919091526001600160a01b03909116602482015260448101919091526020818060648101611f2d565b909193611f2d90602094612361876119c2565b604051630ac0f31d60e41b8152600481019490945260248401949094526001600160a01b03958616604484015294909216606482015260848101939093528290819060a482019056fea2646970667358221220cd287f04f2352165a39c9d78bc1eeec432855625c5e46cbf97ade2d6693b4fe464736f6c634300081e003360a08060405234602757336080526102fe908161002c8239608051818181608a015260f10152f35b5f80fdfe6080806040526004361015610012575f80fd5b5f3560e01c9081638da5cb5b14610078575063b8dc491b14610032575f80fd5b34610074576040366003190112610074576004356001600160a01b0381168103610074576024356001600160a01b038116810361007457610072916100ef565b005b5f80fd5b34610074575f366003190112610074577f00000000000000000000000000000000000000000000000000000000000000006001600160a01b03168152602090f35b90601f8019910116810190811067ffffffffffffffff8211176100db57604052565b634e487b7160e01b5f52604160045260245ffd5b7f00000000000000000000000000000000000000000000000000000000000000006001600160a01b03163303610296576040516370a0823160e01b8152306004820152906020826024816001600160a01b0385165afa91821561028b575f92610257575b508115610252575f9283809360405190602082019363a9059cbb60e01b855260018060a01b031660248301526044820152604481526101936064826100b9565b51925af13d1561024b573d67ffffffffffffffff81116100db57604051906101c5601f8201601f1916602001836100b9565b81523d5f602083013e5b81610213575b50156101dd57565b60405162461bcd60e51b815260206004820152600e60248201526d3b30bab63a103a3930b739b332b960911b6044820152606490fd5b8051801592508215610228575b50505f6101d5565b819250906020918101031261007457602001518015158103610074575f80610220565b60606101cf565b505050565b9091506020813d602011610283575b81610273602093836100b9565b810103126100745751905f610153565b3d9150610266565b6040513d5f823e3d90fd5b60405162461bcd60e51b815260206004820152600a60248201526937b7363c9037bbb732b960b11b6044820152606490fdfea264697066735822122067db2e434bea4473ac9641aa66a0d343a76ef43bd19c5a12c8c2929175fd814464736f6c634300081e0033608080604052346015576101b8908161001a8239f35b5f80fdfe6080806040526004361015610012575f80fd5b5f3560e01c635a7b826814610025575f80fd5b34610140576080366003190112610140576004356001600160a01b0381168103610140576024356001600160a01b0381169190829003610140576044356001600160a01b0381169290839003610140575f918291828096819660208201936323b872dd60e01b8552602483015260448201526064356064820152606481526100ae608482610160565b51925af1903d15610158573d9267ffffffffffffffff841161014457604051936100e2601f8201601f191660200186610160565b84523d5f602086013e5b8351936020851015610116575b506060935060405192151583521515602083015215156040820152f35b8092506020915060019481010312610140576020015191821515830361014057606092905f6100f9565b5f80fd5b634e487b7160e01b5f52604160045260245ffd5b6060926100ec565b90601f8019910116810190811067ffffffffffffffff8211176101445760405256fea2646970667358221220519193a39a906d9a6ff82a6eba93969d91dfe6ff59afdd118659fa128eaf7b5964736f6c634300081e0033","linkReferences":{}},"methodIdentifiers":{"TARGET()":"cc1f2afa","callBorrow(uint256,address,uint256)":"a5865daf","callDeposit(uint256,address,uint256)":"031b34f1","callLiquidate(uint256,uint256,address,address,uint256)":"ac0f31d0","callPaybackAmount(uint256,address,uint256)":"bd7616bf","callPaybackShares(uint256,address,uint256)":"01812f28","callSolelyDeposit(uint256,address,uint256)":"43a519af","callSolelyWithdraw(uint256,address,uint256)":"6c8167fe","callWithdrawShares(uint256,address,uint256)":"f0280e88","depositPathNft()":"1a925cd1","executeOnOpportunity()":"3c2448ed","executed()":"31a38c89","liquidatorNft()":"b6658d1a","paybackPathNft()":"cd5d6eb6","profitAmount()":"5ff972cc","profitToken()":"49343624","solelyPathNft()":"959e2748","vulnerableToken()":"30c78fa8"},"id":0}