{"abi":[{"type":"constructor","inputs":[],"stateMutability":"nonpayable"},{"type":"function","name":"owner","inputs":[],"outputs":[{"name":"","type":"address","internalType":"address"}],"stateMutability":"view"},{"type":"function","name":"sweep","inputs":[{"name":"token","type":"address","internalType":"address"},{"name":"to","type":"address","internalType":"address"}],"outputs":[],"stateMutability":"nonpayable"}],"bytecode":{"object":"0x60a08060405234602757336080526102fe908161002c8239608051818181608a015260f10152f35b5f80fdfe6080806040526004361015610012575f80fd5b5f3560e01c9081638da5cb5b14610078575063b8dc491b14610032575f80fd5b34610074576040366003190112610074576004356001600160a01b0381168103610074576024356001600160a01b038116810361007457610072916100ef565b005b5f80fd5b34610074575f366003190112610074577f00000000000000000000000000000000000000000000000000000000000000006001600160a01b03168152602090f35b90601f8019910116810190811067ffffffffffffffff8211176100db57604052565b634e487b7160e01b5f52604160045260245ffd5b7f00000000000000000000000000000000000000000000000000000000000000006001600160a01b03163303610296576040516370a0823160e01b8152306004820152906020826024816001600160a01b0385165afa91821561028b575f92610257575b508115610252575f9283809360405190602082019363a9059cbb60e01b855260018060a01b031660248301526044820152604481526101936064826100b9565b51925af13d1561024b573d67ffffffffffffffff81116100db57604051906101c5601f8201601f1916602001836100b9565b81523d5f602083013e5b81610213575b50156101dd57565b60405162461bcd60e51b815260206004820152600e60248201526d3b30bab63a103a3930b739b332b960911b6044820152606490fd5b8051801592508215610228575b50505f6101d5565b819250906020918101031261007457602001518015158103610074575f80610220565b60606101cf565b505050565b9091506020813d602011610283575b81610273602093836100b9565b810103126100745751905f610153565b3d9150610266565b6040513d5f823e3d90fd5b60405162461bcd60e51b815260206004820152600a60248201526937b7363c9037bbb732b960b11b6044820152606490fdfea264697066735822122067db2e434bea4473ac9641aa66a0d343a76ef43bd19c5a12c8c2929175fd814464736f6c634300081e0033","linkReferences":{}},"methodIdentifiers":{"owner()":"8da5cb5b","sweep(address,address)":"b8dc491b"},"id":0}