{"abi":[{"type":"function","name":"probe","inputs":[{"name":"token","type":"address","internalType":"address"},{"name":"from","type":"address","internalType":"address"},{"name":"to","type":"address","internalType":"address"},{"name":"amount","type":"uint256","internalType":"uint256"}],"outputs":[{"name":"success","type":"bool","internalType":"bool"},{"name":"hasBoolReturn","type":"bool","internalType":"bool"},{"name":"boolReturn","type":"bool","internalType":"bool"}],"stateMutability":"nonpayable"}],"bytecode":{"object":"0x608080604052346015576101b8908161001a8239f35b5f80fdfe6080806040526004361015610012575f80fd5b5f3560e01c635a7b826814610025575f80fd5b34610140576080366003190112610140576004356001600160a01b0381168103610140576024356001600160a01b0381169190829003610140576044356001600160a01b0381169290839003610140575f918291828096819660208201936323b872dd60e01b8552602483015260448201526064356064820152606481526100ae608482610160565b51925af1903d15610158573d9267ffffffffffffffff841161014457604051936100e2601f8201601f191660200186610160565b84523d5f602086013e5b8351936020851015610116575b506060935060405192151583521515602083015215156040820152f35b8092506020915060019481010312610140576020015191821515830361014057606092905f6100f9565b5f80fd5b634e487b7160e01b5f52604160045260245ffd5b6060926100ec565b90601f8019910116810190811067ffffffffffffffff8211176101445760405256fea2646970667358221220519193a39a906d9a6ff82a6eba93969d91dfe6ff59afdd118659fa128eaf7b5964736f6c634300081e0033","linkReferences":{}},"methodIdentifiers":{"probe(address,address,address,uint256)":"5a7b8268"},"id":0}