{"abi":[{"type":"constructor","inputs":[],"stateMutability":"nonpayable"},{"type":"receive","stateMutability":"payable"},{"type":"function","name":"DAI","inputs":[],"outputs":[{"name":"","type":"address","internalType":"address"}],"stateMutability":"view"},{"type":"function","name":"MIM","inputs":[],"outputs":[{"name":"","type":"address","internalType":"address"}],"stateMutability":"view"},{"type":"function","name":"SUSHI_ROUTER","inputs":[],"outputs":[{"name":"","type":"address","internalType":"address"}],"stateMutability":"view"},{"type":"function","name":"TARGET_CAULDRON","inputs":[],"outputs":[{"name":"","type":"address","internalType":"address"}],"stateMutability":"view"},{"type":"function","name":"UNISWAP_V2_ROUTER","inputs":[],"outputs":[{"name":"","type":"address","internalType":"address"}],"stateMutability":"view"},{"type":"function","name":"USDC","inputs":[],"outputs":[{"name":"","type":"address","internalType":"address"}],"stateMutability":"view"},{"type":"function","name":"USDT","inputs":[],"outputs":[{"name":"","type":"address","internalType":"address"}],"stateMutability":"view"},{"type":"function","name":"WETH","inputs":[],"outputs":[{"name":"","type":"address","internalType":"address"}],"stateMutability":"view"},{"type":"function","name":"activeCauldron","inputs":[],"outputs":[{"name":"","type":"address","internalType":"address"}],"stateMutability":"view"},{"type":"function","name":"addCollateralStageReached","inputs":[],"outputs":[{"name":"","type":"bool","internalType":"bool"}],"stateMutability":"view"},{"type":"function","name":"bentoBoxAddress","inputs":[],"outputs":[{"name":"","type":"address","internalType":"address"}],"stateMutability":"view"},{"type":"function","name":"borrowStageReached","inputs":[],"outputs":[{"name":"","type":"bool","internalType":"bool"}],"stateMutability":"view"},{"type":"function","name":"borrowedMimAmount","inputs":[],"outputs":[{"name":"","type":"uint256","internalType":"uint256"}],"stateMutability":"view"},{"type":"function","name":"borrowedMimShare","inputs":[],"outputs":[{"name":"","type":"uint256","internalType":"uint256"}],"stateMutability":"view"},{"type":"function","name":"collateralDepositAmount","inputs":[],"outputs":[{"name":"","type":"uint256","internalType":"uint256"}],"stateMutability":"view"},{"type":"function","name":"collateralLeaveShare","inputs":[],"outputs":[{"name":"","type":"uint256","internalType":"uint256"}],"stateMutability":"view"},{"type":"function","name":"collateralLpDetected","inputs":[],"outputs":[{"name":"","type":"bool","internalType":"bool"}],"stateMutability":"view"},{"type":"function","name":"collateralLpToken0","inputs":[],"outputs":[{"name":"","type":"address","internalType":"address"}],"stateMutability":"view"},{"type":"function","name":"collateralLpToken1","inputs":[],"outputs":[{"name":"","type":"address","internalType":"address"}],"stateMutability":"view"},{"type":"function","name":"collateralShareAdded","inputs":[],"outputs":[{"name":"","type":"uint256","internalType":"uint256"}],"stateMutability":"view"},{"type":"function","name":"collateralToken","inputs":[],"outputs":[{"name":"","type":"address","internalType":"address"}],"stateMutability":"view"},{"type":"function","name":"collateralTopUpAmount","inputs":[],"outputs":[{"name":"","type":"uint256","internalType":"uint256"}],"stateMutability":"view"},{"type":"function","name":"collateralTopUpSpentMim","inputs":[],"outputs":[{"name":"","type":"uint256","internalType":"uint256"}],"stateMutability":"view"},{"type":"function","name":"convexDepositToken","inputs":[],"outputs":[{"name":"","type":"address","internalType":"address"}],"stateMutability":"view"},{"type":"function","name":"curveLpToken","inputs":[],"outputs":[{"name":"","type":"address","internalType":"address"}],"stateMutability":"view"},{"type":"function","name":"curvePool","inputs":[],"outputs":[{"name":"","type":"address","internalType":"address"}],"stateMutability":"view"},{"type":"function","name":"directOracleRate","inputs":[],"outputs":[{"name":"","type":"uint256","internalType":"uint256"}],"stateMutability":"view"},{"type":"function","name":"directOracleSuccess","inputs":[],"outputs":[{"name":"","type":"bool","internalType":"bool"}],"stateMutability":"view"},{"type":"function","name":"execute","inputs":[],"outputs":[{"name":"","type":"uint256","internalType":"uint256"}],"stateMutability":"nonpayable"},{"type":"function","name":"executeOnOpportunity","inputs":[],"outputs":[{"name":"","type":"uint256","internalType":"uint256"}],"stateMutability":"nonpayable"},{"type":"function","name":"exploit","inputs":[],"outputs":[{"name":"","type":"uint256","internalType":"uint256"}],"stateMutability":"nonpayable"},{"type":"function","name":"feeBufferBought","inputs":[],"outputs":[{"name":"","type":"uint256","internalType":"uint256"}],"stateMutability":"view"},{"type":"function","name":"flashCollateralAmount","inputs":[],"outputs":[{"name":"","type":"uint256","internalType":"uint256"}],"stateMutability":"view"},{"type":"function","name":"flashCollateralFee","inputs":[],"outputs":[{"name":"","type":"uint256","internalType":"uint256"}],"stateMutability":"view"},{"type":"function","name":"flashMimAmount","inputs":[],"outputs":[{"name":"","type":"uint256","internalType":"uint256"}],"stateMutability":"view"},{"type":"function","name":"flashMimFee","inputs":[],"outputs":[{"name":"","type":"uint256","internalType":"uint256"}],"stateMutability":"view"},{"type":"function","name":"grossMimBalance","inputs":[],"outputs":[{"name":"","type":"uint256","internalType":"uint256"}],"stateMutability":"view"},{"type":"function","name":"hypothesisRefuted","inputs":[],"outputs":[{"name":"","type":"bool","internalType":"bool"}],"stateMutability":"view"},{"type":"function","name":"hypothesisValidated","inputs":[],"outputs":[{"name":"","type":"bool","internalType":"bool"}],"stateMutability":"view"},{"type":"function","name":"infeasibleReason","inputs":[],"outputs":[{"name":"","type":"bytes32","internalType":"bytes32"}],"stateMutability":"view"},{"type":"function","name":"liquidateStageReached","inputs":[],"outputs":[{"name":"","type":"bool","internalType":"bool"}],"stateMutability":"view"},{"type":"function","name":"liquidationBlocked","inputs":[],"outputs":[{"name":"","type":"bool","internalType":"bool"}],"stateMutability":"view"},{"type":"function","name":"liveTargetCachedZero","inputs":[],"outputs":[{"name":"","type":"bool","internalType":"bool"}],"stateMutability":"view"},{"type":"function","name":"liveTargetInitPathOnly","inputs":[],"outputs":[{"name":"","type":"bool","internalType":"bool"}],"stateMutability":"view"},{"type":"function","name":"liveTargetUpdateZeroWorked","inputs":[],"outputs":[{"name":"","type":"bool","internalType":"bool"}],"stateMutability":"view"},{"type":"function","name":"liveTargetZeroRateMissing","inputs":[],"outputs":[{"name":"","type":"bool","internalType":"bool"}],"stateMutability":"view"},{"type":"function","name":"liveUpdateRate","inputs":[],"outputs":[{"name":"","type":"uint256","internalType":"uint256"}],"stateMutability":"view"},{"type":"function","name":"liveUpdateReturnedUpdated","inputs":[],"outputs":[{"name":"","type":"bool","internalType":"bool"}],"stateMutability":"view"},{"type":"function","name":"liveUpdateWorked","inputs":[],"outputs":[{"name":"","type":"bool","internalType":"bool"}],"stateMutability":"view"},{"type":"function","name":"mimLiquiditySeededShare","inputs":[],"outputs":[{"name":"","type":"uint256","internalType":"uint256"}],"stateMutability":"view"},{"type":"function","name":"onFlashLoan","inputs":[{"name":"sender","type":"address","internalType":"address"},{"name":"token","type":"address","internalType":"address"},{"name":"amount","type":"uint256","internalType":"uint256"},{"name":"fee","type":"uint256","internalType":"uint256"},{"name":"","type":"bytes","internalType":"bytes"}],"outputs":[],"stateMutability":"nonpayable"},{"type":"function","name":"oracleAddress","inputs":[],"outputs":[{"name":"","type":"address","internalType":"address"}],"stateMutability":"view"},{"type":"function","name":"oracleDataBlob","inputs":[],"outputs":[{"name":"","type":"bytes","internalType":"bytes"}],"stateMutability":"view"},{"type":"function","name":"oracleStageReached","inputs":[],"outputs":[{"name":"","type":"bool","internalType":"bool"}],"stateMutability":"view"},{"type":"function","name":"path0LiveOracleZeroObserved","inputs":[],"outputs":[{"name":"","type":"bool","internalType":"bool"}],"stateMutability":"view"},{"type":"function","name":"path1ZeroExchangeRateCached","inputs":[],"outputs":[{"name":"","type":"bool","internalType":"bool"}],"stateMutability":"view"},{"type":"function","name":"path2DustCollateralAddedAndBorrowed","inputs":[],"outputs":[{"name":"","type":"bool","internalType":"bool"}],"stateMutability":"view"},{"type":"function","name":"path3ResidualCollateralBlocksLiquidation","inputs":[],"outputs":[{"name":"","type":"bool","internalType":"bool"}],"stateMutability":"view"},{"type":"function","name":"postBorrowSolvent","inputs":[],"outputs":[{"name":"","type":"bool","internalType":"bool"}],"stateMutability":"view"},{"type":"function","name":"profitAmount","inputs":[],"outputs":[{"name":"","type":"uint256","internalType":"uint256"}],"stateMutability":"view"},{"type":"function","name":"profitToken","inputs":[],"outputs":[{"name":"","type":"address","internalType":"address"}],"stateMutability":"pure"},{"type":"function","name":"removeCollateralStageReached","inputs":[],"outputs":[{"name":"","type":"bool","internalType":"bool"}],"stateMutability":"view"},{"type":"function","name":"run","inputs":[],"outputs":[{"name":"","type":"uint256","internalType":"uint256"}],"stateMutability":"nonpayable"},{"type":"function","name":"selectedTarget","inputs":[],"outputs":[{"name":"","type":"address","internalType":"address"}],"stateMutability":"view"},{"type":"function","name":"stage_add_collateral","inputs":[],"outputs":[{"name":"","type":"bool","internalType":"bool"}],"stateMutability":"view"},{"type":"function","name":"stage_block_liquidation","inputs":[],"outputs":[{"name":"","type":"bool","internalType":"bool"}],"stateMutability":"view"},{"type":"function","name":"stage_borrow","inputs":[],"outputs":[{"name":"","type":"bool","internalType":"bool"}],"stateMutability":"view"},{"type":"function","name":"stage_remove_collateral","inputs":[],"outputs":[{"name":"","type":"bool","internalType":"bool"}],"stateMutability":"view"},{"type":"function","name":"stage_update_rate","inputs":[],"outputs":[{"name":"","type":"bool","internalType":"bool"}],"stateMutability":"view"},{"type":"function","name":"underlyingToken","inputs":[],"outputs":[{"name":"","type":"address","internalType":"address"}],"stateMutability":"view"},{"type":"function","name":"updateRateStageReached","inputs":[],"outputs":[{"name":"","type":"bool","internalType":"bool"}],"stateMutability":"view"},{"type":"function","name":"usedLiveTarget","inputs":[],"outputs":[{"name":"","type":"bool","internalType":"bool"}],"stateMutability":"view"},{"type":"function","name":"usedValidationClone","inputs":[],"outputs":[{"name":"","type":"bool","internalType":"bool"}],"stateMutability":"view"},{"type":"function","name":"validationClone","inputs":[],"outputs":[{"name":"","type":"address","internalType":"address"}],"stateMutability":"view"},{"type":"function","name":"zeroOracle","inputs":[],"outputs":[{"name":"","type":"address","internalType":"address"}],"stateMutability":"view"}],"bytecode":{"object":"0x6080604052348015600e575f5ffd5b5061dfe38061001c5f395ff3fe60806040526004361061043f575f3560e01c806389a3027111610233578063cde2facd1161012d578063e3fc037b116100b5578063eb77ff0f11610079578063eb77ff0f14610fc4578063f1f361a414610fee578063f9d3cc0514611018578063fb30952014611042578063fcafc3191461106c57610446565b8063e3fc037b14610ef2578063e6687f0514610f1c578063e7cda06d14610f46578063e8c28fee14610f70578063ea54459314610f9a57610446565b8063daec383d116100fc578063daec383d14610e20578063dbe7b09f14610e4a578063de02cfdf14610e74578063e0bab4c414610e9e578063e2708ebb14610ec857610446565b8063cde2facd14610d78578063cf30cf7b14610da2578063d5b5a55714610dcc578063d87bf97f14610df657610446565b8063a89ae4ba116101bb578063b40d2e981161017f578063b40d2e9814610ca6578063b7021f7714610cd0578063bd7a598c14610cfa578063c040622614610d24578063c54e44eb14610d4e57610446565b8063a89ae4ba14610bd4578063a8b81f5514610bfe578063ace5cb5814610c28578063ad5c464814610c52578063b2016bd414610c7c57610446565b8063981c88f711610202578063981c88f714610b02578063a3bb46dd14610b2c578063a539b24614610b56578063a665215714610b80578063a82ed9ec14610baa57610446565b806389a3027114610a5a5780638f310cf014610a845780639348a23814610aae5780639545891414610ad857610446565b80635a41b82a11610344578063646780df116102cc5780637c27e19f116102905780637c27e19f14610988578063810c7a40146109b25780638469ff16146109dc5780638594a2fb14610a06578063892d0bd214610a3057610446565b8063646780df146108b657806369ffcac6146108e05780636d02b5ca1461090a57806372915d1e1461093457806372ea48091461095e57610446565b80635ff972cc116103135780635ff972cc146107e4578063614619541461080e5780636208fdd81461083857806362d2c2661461086257806363d9b7701461088c57610446565b80635a41b82a1461073c5780635a6e402b146107665780635bf39ab9146107905780635eb143ce146107ba57610446565b80633c2448ed116103c75780634934362411610396578063493436241461066a578063495f92f1146106945780634af5e4e6146106be5780634e8554f3146106e8578063552fd94a1461071257610446565b80633c2448ed146105c25780633f28ccea146105ec5780634071084d14610616578063463defd11461064057610446565b80632495a5991161040e5780632495a599146104f05780632759f2f11461051a5780632edf00fb14610544578063370be1161461056e57806337fc93991461059857610446565b80630c24f4fa1461044a578063218751b21461047457806322cb9ca31461049e57806323e30c8b146104c857610446565b3661044657005b5f5ffd5b348015610455575f5ffd5b5061045e611096565b60405161046b919061bf42565b60405180910390f35b34801561047f575f5ffd5b506104886110ae565b604051610495919061bf42565b60405180910390f35b3480156104a9575f5ffd5b506104b26110d3565b6040516104bf919061bf42565b60405180910390f35b3480156104d3575f5ffd5b506104ee60048036038101906104e9919061c02a565b6110f8565b005b3480156104fb575f5ffd5b506105046112ed565b604051610511919061bf42565b60405180910390f35b348015610525575f5ffd5b5061052e611312565b60405161053b919061c0da565b60405180910390f35b34801561054f575f5ffd5b50610558611325565b604051610565919061bf42565b60405180910390f35b348015610579575f5ffd5b50610582611349565b60405161058f919061bf42565b60405180910390f35b3480156105a3575f5ffd5b506105ac61136e565b6040516105b9919061c0da565b60405180910390f35b3480156105cd575f5ffd5b506105d6611381565b6040516105e3919061c102565b60405180910390f35b3480156105f7575f5ffd5b5061060061138f565b60405161060d919061c0da565b60405180910390f35b348015610621575f5ffd5b5061062a6113a2565b604051610637919061c102565b60405180910390f35b34801561064b575f5ffd5b506106546113a8565b604051610661919061c0da565b60405180910390f35b348015610675575f5ffd5b5061067e6113bb565b60405161068b919061bf42565b60405180910390f35b34801561069f575f5ffd5b506106a86113d6565b6040516106b5919061c0da565b60405180910390f35b3480156106c9575f5ffd5b506106d26113e9565b6040516106df919061c102565b60405180910390f35b3480156106f3575f5ffd5b506106fc6113ef565b604051610709919061c0da565b60405180910390f35b34801561071d575f5ffd5b50610726611402565b604051610733919061c0da565b60405180910390f35b348015610747575f5ffd5b50610750611415565b60405161075d919061c0da565b60405180910390f35b348015610771575f5ffd5b5061077a611428565b604051610787919061c102565b60405180910390f35b34801561079b575f5ffd5b506107a461142e565b6040516107b1919061c102565b60405180910390f35b3480156107c5575f5ffd5b506107ce611434565b6040516107db919061bf42565b60405180910390f35b3480156107ef575f5ffd5b506107f8611459565b604051610805919061c102565b60405180910390f35b348015610819575f5ffd5b50610822611462565b60405161082f919061c102565b60405180910390f35b348015610843575f5ffd5b5061084c611470565b604051610859919061c102565b60405180910390f35b34801561086d575f5ffd5b50610876611476565b604051610883919061c0da565b60405180910390f35b348015610897575f5ffd5b506108a0611489565b6040516108ad919061c102565b60405180910390f35b3480156108c1575f5ffd5b506108ca611497565b6040516108d7919061bf42565b60405180910390f35b3480156108eb575f5ffd5b506108f46114bc565b604051610901919061c0da565b60405180910390f35b348015610915575f5ffd5b5061091e6114cf565b60405161092b919061c102565b60405180910390f35b34801561093f575f5ffd5b506109486114d5565b604051610955919061c0da565b60405180910390f35b348015610969575f5ffd5b506109726114e8565b60405161097f919061c102565b60405180910390f35b348015610993575f5ffd5b5061099c6114ee565b6040516109a9919061c0da565b60405180910390f35b3480156109bd575f5ffd5b506109c6611501565b6040516109d3919061c102565b60405180910390f35b3480156109e7575f5ffd5b506109f0611507565b6040516109fd919061c0da565b60405180910390f35b348015610a11575f5ffd5b50610a1a61151a565b604051610a27919061c0da565b60405180910390f35b348015610a3b575f5ffd5b50610a4461152d565b604051610a51919061c102565b60405180910390f35b348015610a65575f5ffd5b50610a6e611533565b604051610a7b919061bf42565b60405180910390f35b348015610a8f575f5ffd5b50610a9861154b565b604051610aa5919061c0da565b60405180910390f35b348015610ab9575f5ffd5b50610ac261155d565b604051610acf919061c0da565b60405180910390f35b348015610ae3575f5ffd5b50610aec611570565b604051610af9919061c102565b60405180910390f35b348015610b0d575f5ffd5b50610b16611576565b604051610b23919061bf42565b60405180910390f35b348015610b37575f5ffd5b50610b4061159b565b604051610b4d919061c102565b60405180910390f35b348015610b61575f5ffd5b50610b6a6115a1565b604051610b77919061c0da565b60405180910390f35b348015610b8b575f5ffd5b50610b946115b3565b604051610ba1919061c133565b60405180910390f35b348015610bb5575f5ffd5b50610bbe6115b9565b604051610bcb919061bf42565b60405180910390f35b348015610bdf575f5ffd5b50610be86115d1565b604051610bf5919061bf42565b60405180910390f35b348015610c09575f5ffd5b50610c126115f6565b604051610c1f919061c0da565b60405180910390f35b348015610c33575f5ffd5b50610c3c611609565b604051610c49919061c0da565b60405180910390f35b348015610c5d575f5ffd5b50610c6661161c565b604051610c73919061bf42565b60405180910390f35b348015610c87575f5ffd5b50610c90611634565b604051610c9d919061bf42565b60405180910390f35b348015610cb1575f5ffd5b50610cba611659565b604051610cc7919061c0da565b60405180910390f35b348015610cdb575f5ffd5b50610ce461166b565b604051610cf1919061c0da565b60405180910390f35b348015610d05575f5ffd5b50610d0e61167e565b604051610d1b919061bf42565b60405180910390f35b348015610d2f575f5ffd5b50610d38611696565b604051610d45919061c102565b60405180910390f35b348015610d59575f5ffd5b50610d626116a4565b604051610d6f919061bf42565b60405180910390f35b348015610d83575f5ffd5b50610d8c6116bc565b604051610d99919061c0da565b60405180910390f35b348015610dad575f5ffd5b50610db66116cf565b604051610dc3919061c0da565b60405180910390f35b348015610dd7575f5ffd5b50610de06116e2565b604051610ded919061c0da565b60405180910390f35b348015610e01575f5ffd5b50610e0a6116f4565b604051610e17919061c102565b60405180910390f35b348015610e2b575f5ffd5b50610e346116fa565b604051610e41919061bf42565b60405180910390f35b348015610e55575f5ffd5b50610e5e611712565b604051610e6b919061bf42565b60405180910390f35b348015610e7f575f5ffd5b50610e88611738565b604051610e95919061c102565b60405180910390f35b348015610ea9575f5ffd5b50610eb261173e565b604051610ebf919061bf42565b60405180910390f35b348015610ed3575f5ffd5b50610edc611756565b604051610ee9919061c102565b60405180910390f35b348015610efd575f5ffd5b50610f0661175c565b604051610f13919061c1bc565b60405180910390f35b348015610f27575f5ffd5b50610f306117e8565b604051610f3d919061c102565b60405180910390f35b348015610f51575f5ffd5b50610f5a6117ee565b604051610f67919061c102565b60405180910390f35b348015610f7b575f5ffd5b50610f846117f4565b604051610f91919061c0da565b60405180910390f35b348015610fa5575f5ffd5b50610fae611805565b604051610fbb919061c0da565b60405180910390f35b348015610fcf575f5ffd5b50610fd8611818565b604051610fe5919061bf42565b60405180910390f35b348015610ff9575f5ffd5b5061100261183d565b60405161100f919061bf42565b60405180910390f35b348015611023575f5ffd5b5061102c611862565b604051611039919061c0da565b60405180910390f35b34801561104d575f5ffd5b50611056611874565b604051611063919061c0da565b60405180910390f35b348015611077575f5ffd5b50611080611887565b60405161108d919061c0da565b60405180910390f35b73d9e1ce17f2641f24ae83637ab66a2cca9c378b9f81565b601d5f9054906101000a900473ffffffffffffffffffffffffffffffffffffffff1681565b60225f9054906101000a900473ffffffffffffffffffffffffffffffffffffffff1681565b601f5f9054906101000a900473ffffffffffffffffffffffffffffffffffffffff1673ffffffffffffffffffffffffffffffffffffffff163373ffffffffffffffffffffffffffffffffffffffff1614611187576040517f08c379a000000000000000000000000000000000000000000000000000000000815260040161117e9061c236565b60405180910390fd5b3073ffffffffffffffffffffffffffffffffffffffff168673ffffffffffffffffffffffffffffffffffffffff16146111f5576040517f08c379a00000000000000000000000000000000000000000000000000000000081526004016111ec9061c29e565b60405180910390fd5b60195f9054906101000a900473ffffffffffffffffffffffffffffffffffffffff1673ffffffffffffffffffffffffffffffffffffffff168573ffffffffffffffffffffffffffffffffffffffff160361125857611253848461189a565b6112e5565b7399d8a9c45b2eca8864373a26d1459e3dff1e17f373ffffffffffffffffffffffffffffffffffffffff168573ffffffffffffffffffffffffffffffffffffffff16146112da576040517f08c379a00000000000000000000000000000000000000000000000000000000081526004016112d19061c306565b60405180910390fd5b6112e48484611ae5565b5b505050505050565b601a5f9054906101000a900473ffffffffffffffffffffffffffffffffffffffff1681565b600260159054906101000a900460ff1681565b5f5f9054906101000a900473ffffffffffffffffffffffffffffffffffffffff1681565b60215f9054906101000a900473ffffffffffffffffffffffffffffffffffffffff1681565b6002600e9054906101000a900460ff1681565b5f61138a611da9565b905090565b600260099054906101000a900460ff1681565b600d5481565b600260109054906101000a900460ff1681565b5f7399d8a9c45b2eca8864373a26d1459e3dff1e17f3905090565b600260119054906101000a900460ff1681565b600c5481565b6002600b9054906101000a900460ff1681565b6002600c9054906101000a900460ff1681565b600260149054906101000a900460ff1681565b600a5481565b60115481565b601b5f9054906101000a900473ffffffffffffffffffffffffffffffffffffffff1681565b5f600154905090565b5f61146b611da9565b905090565b60085481565b6002600d9054906101000a900460ff1681565b5f611492611da9565b905090565b601c5f9054906101000a900473ffffffffffffffffffffffffffffffffffffffff1681565b6002600f9054906101000a900460ff1681565b60035481565b6002600a9054906101000a900460ff1681565b600e5481565b600260039054906101000a900460ff1681565b60125481565b600260019054906101000a900460ff1681565b600260049054906101000a900460ff1681565b60095481565b73a0b86991c6218b36c1d19d4a2e9eb0ce3606eb4881565b60045f9054906101000a900460ff1681565b600260059054906101000a900460ff1681565b60145481565b60205f9054906101000a900473ffffffffffffffffffffffffffffffffffffffff1681565b60105481565b60025f9054906101000a900460ff1681565b60165481565b737a250d5630b4cf539739df2c5dacb4c659f2488d81565b601e5f9054906101000a900473ffffffffffffffffffffffffffffffffffffffff1681565b600260169054906101000a900460ff1681565b600660019054906101000a900460ff1681565b73c02aaa39b223fe8d0a0e5c4f27ead9083c756cc281565b60195f9054906101000a900473ffffffffffffffffffffffffffffffffffffffff1681565b60065f9054906101000a900460ff1681565b600260069054906101000a900460ff1681565b7346f54d434063e5f1a2b2cc6d9aaa657b1b9ff82c81565b5f61169f611da9565b905090565b73dac17f958d2ee523a2206206994597c13d831ec781565b600260089054906101000a900460ff1681565b600260129054906101000a900460ff1681565b60155f9054906101000a900460ff1681565b60135481565b7399d8a9c45b2eca8864373a26d1459e3dff1e17f381565b601760019054906101000a900473ffffffffffffffffffffffffffffffffffffffff1681565b60055481565b736b175474e89094c44da98b954eedeac495271d0f81565b600f5481565b602380546117699061c351565b80601f01602080910402602001604051908101604052809291908181526020018280546117959061c351565b80156117e05780601f106117b7576101008083540402835291602001916117e0565b820191905f5260205f20905b8154815290600101906020018083116117c357829003601f168201915b505050505081565b600b5481565b60075481565b60028054906101000a900460ff1681565b600260139054906101000a900460ff1681565b601f5f9054906101000a900473ffffffffffffffffffffffffffffffffffffffff1681565b60185f9054906101000a900473ffffffffffffffffffffffffffffffffffffffff1681565b60175f9054906101000a900460ff1681565b600260079054906101000a900460ff1681565b600460019054906101000a900460ff1681565b80600a819055505f601f5f9054906101000a900473ffffffffffffffffffffffffffffffffffffffff169050600260159054906101000a900460ff1615611972578073ffffffffffffffffffffffffffffffffffffffff1663f1676d3730307399d8a9c45b2eca8864373a26d1459e3dff1e17f3600b5460405180602001604052805f8152506040518663ffffffff1660e01b815260040161194095949392919061c3dc565b5f604051808303815f87803b158015611957575f5ffd5b505af1158015611969573d5f5f3e3d5ffd5b5050505061199d565b61199c60205f9054906101000a900473ffffffffffffffffffffffffffffffffffffffff166130e8565b5b5f60195f9054906101000a900473ffffffffffffffffffffffffffffffffffffffff1673ffffffffffffffffffffffffffffffffffffffff166370a08231306040518263ffffffff1660e01b81526004016119f8919061bf42565b602060405180830381865afa158015611a13573d5f5f3e3d5ffd5b505050506040513d601f19601f82011682018060405250810190611a37919061c448565b90508284611a45919061c4a0565b811015611a87576040517f08c379a0000000000000000000000000000000000000000000000000000000008152600401611a7e9061c51d565b60405180910390fd5b611adf60195f9054906101000a900473ffffffffffffffffffffffffffffffffffffffff16601f5f9054906101000a900473ffffffffffffffffffffffffffffffffffffffff168587611ada919061c4a0565b614123565b50505050565b600260159054906101000a900460ff16611b34576040517f08c379a0000000000000000000000000000000000000000000000000000000008152600401611b2b9061c585565b60405180910390fd5b80600c819055505f601f5f9054906101000a900473ffffffffffffffffffffffffffffffffffffffff1690508073ffffffffffffffffffffffffffffffffffffffff166302b9446c7399d8a9c45b2eca8864373a26d1459e3dff1e17f33060205f9054906101000a900473ffffffffffffffffffffffffffffffffffffffff16875f6040518663ffffffff1660e01b8152600401611bd695949392919061c5dc565b60408051808303815f875af1158015611bf1573d5f5f3e3d5ffd5b505050506040513d601f19601f82011682018060405250810190611c15919061c62d565b905060125f8291905055505f60125403611c64576040517f08c379a0000000000000000000000000000000000000000000000000000000008152600401611c5b9061c6b5565b60405180910390fd5b5f8214611d7a57817399d8a9c45b2eca8864373a26d1459e3dff1e17f373ffffffffffffffffffffffffffffffffffffffff166370a08231306040518263ffffffff1660e01b8152600401611cb9919061bf42565b602060405180830381865afa158015611cd4573d5f5f3e3d5ffd5b505050506040513d601f19601f82011682018060405250810190611cf8919061c448565b1015611d39576040517f08c379a0000000000000000000000000000000000000000000000000000000008152600401611d309061c71d565b60405180910390fd5b611d797399d8a9c45b2eca8864373a26d1459e3dff1e17f3601f5f9054906101000a900473ffffffffffffffffffffffffffffffffffffffff1684614123565b5b611da460205f9054906101000a900473ffffffffffffffffffffffffffffffffffffffff166130e8565b505050565b5f5f60149054906101000a900460ff1615611dc85760015490506130e5565b60015f60146101000a81548160ff021916908315150217905550611dea614272565b5f5f6101000a81548173ffffffffffffffffffffffffffffffffffffffff021916908373ffffffffffffffffffffffffffffffffffffffff1602179055505f73ffffffffffffffffffffffffffffffffffffffff165f5f9054906101000a900473ffffffffffffffffffffffffffffffffffffffff1673ffffffffffffffffffffffffffffffffffffffff1603611ec5576001600260116101000a81548160ff0219169083151502179055507f38ed9f55514e3edd71f8851d7534fe642e7b0c697d86250a1c6790ad7b43d7e06016819055505f90506130e5565b5f5f5f9054906101000a900473ffffffffffffffffffffffffffffffffffffffff1690507399d8a9c45b2eca8864373a26d1459e3dff1e17f373ffffffffffffffffffffffffffffffffffffffff168173ffffffffffffffffffffffffffffffffffffffff16639b352ae16040518163ffffffff1660e01b8152600401602060405180830381865afa158015611f5d573d5f5f3e3d5ffd5b505050506040513d601f19601f82011682018060405250810190611f81919061c74f565b73ffffffffffffffffffffffffffffffffffffffff1614611fe7576001600260116101000a81548160ff0219169083151502179055507f365a7ff08c8322c57603f9d881ad4ef803926f04a09ddcbc98d1ff67b1555cca6016819055505f9150506130e5565b8073ffffffffffffffffffffffffffffffffffffffff1663d8dfeb456040518163ffffffff1660e01b8152600401602060405180830381865afa158015612030573d5f5f3e3d5ffd5b505050506040513d601f19601f82011682018060405250810190612054919061c74f565b60195f6101000a81548173ffffffffffffffffffffffffffffffffffffffff021916908373ffffffffffffffffffffffffffffffffffffffff1602179055506120bd60195f9054906101000a900473ffffffffffffffffffffffffffffffffffffffff166142b5565b601a5f6101000a81548173ffffffffffffffffffffffffffffffffffffffff021916908373ffffffffffffffffffffffffffffffffffffffff160217905550601a5f9054906101000a900473ffffffffffffffffffffffffffffffffffffffff16601b5f6101000a81548173ffffffffffffffffffffffffffffffffffffffff021916908373ffffffffffffffffffffffffffffffffffffffff1602179055505f73ffffffffffffffffffffffffffffffffffffffff16601b5f9054906101000a900473ffffffffffffffffffffffffffffffffffffffff1673ffffffffffffffffffffffffffffffffffffffff16036122135760195f9054906101000a900473ffffffffffffffffffffffffffffffffffffffff16601b5f6101000a81548173ffffffffffffffffffffffffffffffffffffffff021916908373ffffffffffffffffffffffffffffffffffffffff1602179055505b61223d601b5f9054906101000a900473ffffffffffffffffffffffffffffffffffffffff16614b0f565b601c5f6101000a81548173ffffffffffffffffffffffffffffffffffffffff021916908373ffffffffffffffffffffffffffffffffffffffff1602179055505f73ffffffffffffffffffffffffffffffffffffffff16601c5f9054906101000a900473ffffffffffffffffffffffffffffffffffffffff1673ffffffffffffffffffffffffffffffffffffffff160361233a576122fa60195f9054906101000a900473ffffffffffffffffffffffffffffffffffffffff16614b0f565b601c5f6101000a81548173ffffffffffffffffffffffffffffffffffffffff021916908373ffffffffffffffffffffffffffffffffffffffff1602179055505b5f73ffffffffffffffffffffffffffffffffffffffff16601c5f9054906101000a900473ffffffffffffffffffffffffffffffffffffffff1673ffffffffffffffffffffffffffffffffffffffff16036123f057601b5f9054906101000a900473ffffffffffffffffffffffffffffffffffffffff16601c5f6101000a81548173ffffffffffffffffffffffffffffffffffffffff021916908373ffffffffffffffffffffffffffffffffffffffff1602179055505b61241a601c5f9054906101000a900473ffffffffffffffffffffffffffffffffffffffff16614fa4565b601d5f6101000a81548173ffffffffffffffffffffffffffffffffffffffff021916908373ffffffffffffffffffffffffffffffffffffffff1602179055508073ffffffffffffffffffffffffffffffffffffffff16637dc0d1d06040518163ffffffff1660e01b8152600401602060405180830381865afa1580156124a2573d5f5f3e3d5ffd5b505050506040513d601f19601f820116820180604052508101906124c6919061c74f565b601e5f6101000a81548173ffffffffffffffffffffffffffffffffffffffff021916908373ffffffffffffffffffffffffffffffffffffffff1602179055508073ffffffffffffffffffffffffffffffffffffffff166374645ff36040518163ffffffff1660e01b81526004015f60405180830381865afa15801561254d573d5f5f3e3d5ffd5b505050506040513d5f823e3d601f19601f82011682018060405250810190612575919061c894565b60239081612583919061ca72565b508073ffffffffffffffffffffffffffffffffffffffff16636b2ace876040518163ffffffff1660e01b8152600401602060405180830381865afa1580156125cd573d5f5f3e3d5ffd5b505050506040513d601f19601f820116820180604052508101906125f1919061c74f565b601f5f6101000a81548173ffffffffffffffffffffffffffffffffffffffff021916908373ffffffffffffffffffffffffffffffffffffffff1602179055505f73ffffffffffffffffffffffffffffffffffffffff1660195f9054906101000a900473ffffffffffffffffffffffffffffffffffffffff1673ffffffffffffffffffffffffffffffffffffffff1614806126d757505f73ffffffffffffffffffffffffffffffffffffffff16601e5f9054906101000a900473ffffffffffffffffffffffffffffffffffffffff1673ffffffffffffffffffffffffffffffffffffffff16145b8061272e57505f73ffffffffffffffffffffffffffffffffffffffff16601f5f9054906101000a900473ffffffffffffffffffffffffffffffffffffffff1673ffffffffffffffffffffffffffffffffffffffff16145b1561277e576001600260116101000a81548160ff0219169083151502179055507fc36d260585e1e637e41b8f34b284c3ac0a0dd7119e0b4574932855a97eb23f716016819055505f9150506130e5565b6127866151f6565b61278e61536b565b600f819055505f600f54036127e8576001600260116101000a81548160ff0219169083151502179055507fcf609d0601476db69bfdfcca9001e93b9592563c93281a23ed5bedba069abebf6016819055505f9150506130e5565b6127f0615373565b6009819055505f6009540361284a576001600260116101000a81548160ff0219169083151502179055507fe62aa29de1d75a8317ada22b1ef4807f9478b75ee9f1c7431eca788282ba4a9b6016819055505f9150506130e5565b612852615552565b600260169054906101000a900460ff16801561286f57505f600354145b156128f4575f5f9054906101000a900473ffffffffffffffffffffffffffffffffffffffff1660205f6101000a81548173ffffffffffffffffffffffffffffffffffffffff021916908373ffffffffffffffffffffffffffffffffffffffff1602179055506001600260146101000a81548160ff021916908315150217905550612b0a565b6001600260126101000a81548160ff0219169083151502179055506001600260136101000a81548160ff021916908315150217905550612932615725565b60215f9054906101000a900473ffffffffffffffffffffffffffffffffffffffff1660205f6101000a81548173ffffffffffffffffffffffffffffffffffffffff021916908373ffffffffffffffffffffffffffffffffffffffff1602179055506001600260156101000a81548160ff0219169083151502179055506129b6615bcd565b7399d8a9c45b2eca8864373a26d1459e3dff1e17f373ffffffffffffffffffffffffffffffffffffffff166370a08231306040518263ffffffff1660e01b8152600401612a03919061bf42565b602060405180830381865afa158015612a1e573d5f5f3e3d5ffd5b505050506040513d601f19601f82011682018060405250810190612a42919061c448565b6013819055505f60135403612a9c576001600260116101000a81548160ff0219169083151502179055507ffcfb2f4d021db9b6947e6190c6da0f6415bd8d3d496d21699a112b93fa9791296016819055505f9150506130e5565b612aa7601354615fd8565b600b8190555067016345785d8a0000600b5411612b09576001600260116101000a81548160ff0219169083151502179055507f75c4b12af9078110608299b054ff7c246969bbb5bd51bf71ab83dbd4323cf3036016819055505f9150506130e5565b5b5f5f60205f9054906101000a900473ffffffffffffffffffffffffffffffffffffffff1673ffffffffffffffffffffffffffffffffffffffff166302ce728f6040518163ffffffff1660e01b815260040160408051808303815f875af1158015612b76573d5f5f3e3d5ffd5b505050506040513d601f19601f82011682018060405250810190612b9a919061cb6b565b9150915081600460016101000a81548160ff02191690831515021790555080600581905550818015612bcb57505f81145b60045f6101000a81548160ff02191690831515021790555060045f9054906101000a900460ff166002806101000a81548160ff02191690831515021790555060028054906101000a900460ff168015612cb057505f60205f9054906101000a900473ffffffffffffffffffffffffffffffffffffffff1673ffffffffffffffffffffffffffffffffffffffff16633ba0b9a96040518163ffffffff1660e01b8152600401602060405180830381865afa158015612c8a573d5f5f3e3d5ffd5b505050506040513d601f19601f82011682018060405250810190612cae919061c448565b145b60025f6101000a81548160ff02191690831515021790555060025f9054906101000a900460ff16600260076101000a81548160ff02191690831515021790555060025f9054906101000a900460ff166002600d6101000a81548160ff0219169083151502179055505f5f9054906101000a900473ffffffffffffffffffffffffffffffffffffffff1673ffffffffffffffffffffffffffffffffffffffff1660205f9054906101000a900473ffffffffffffffffffffffffffffffffffffffff1673ffffffffffffffffffffffffffffffffffffffff1603612db55760025f9054906101000a900460ff16600660016101000a81548160ff0219169083151502179055505b6002600d9054906101000a900460ff16612e04576040517f08c379a0000000000000000000000000000000000000000000000000000000008152600401612dfb9061cbf3565b60405180910390fd5b601f5f9054906101000a900473ffffffffffffffffffffffffffffffffffffffff1673ffffffffffffffffffffffffffffffffffffffff1663f1676d37303060195f9054906101000a900473ffffffffffffffffffffffffffffffffffffffff1660095460405180602001604052805f8152506040518663ffffffff1660e01b8152600401612e9795949392919061c3dc565b5f604051808303815f87803b158015612eae575f5ffd5b505af1158015612ec0573d5f5f3e3d5ffd5b505050507399d8a9c45b2eca8864373a26d1459e3dff1e17f373ffffffffffffffffffffffffffffffffffffffff166370a08231306040518263ffffffff1660e01b8152600401612f11919061bf42565b602060405180830381865afa158015612f2c573d5f5f3e3d5ffd5b505050506040513d601f19601f82011682018060405250810190612f50919061c448565b60148190555060135460145411612f67575f612f78565b601354601454612f77919061cc11565b5b60018190555060025f9054906101000a900460ff168015612fa55750600260019054906101000a900460ff165b8015612fbd5750600260039054906101000a900460ff165b8015612fd55750600260049054906101000a900460ff165b8015612fed5750600260059054906101000a900460ff165b80156130055750600260069054906101000a900460ff165b801561301d5750600260079054906101000a900460ff165b80156130355750600260089054906101000a900460ff165b801561304d5750600260099054906101000a900460ff165b801561306557506002600a9054906101000a900460ff165b801561307d57506002600b9054906101000a900460ff165b8015613093575067016345785d8a000060015410155b600260106101000a81548160ff021916908315150217905550600260109054906101000a900460ff166130dc576001600260116101000a81548160ff0219169083151502179055505b60015493505050505b90565b5f601f5f9054906101000a900473ffffffffffffffffffffffffffffffffffffffff169050600a5460095411613153576040517f08c379a000000000000000000000000000000000000000000000000000000000815260040161314a9061cc8e565b60405180910390fd5b600a54600954613163919061cc11565b600e819055508073ffffffffffffffffffffffffffffffffffffffff166302b9446c60195f9054906101000a900473ffffffffffffffffffffffffffffffffffffffff163060205f9054906101000a900473ffffffffffffffffffffffffffffffffffffffff16600e545f6040518663ffffffff1660e01b81526004016131ee95949392919061c5dc565b60408051808303815f875af1158015613209573d5f5f3e3d5ffd5b505050506040513d601f19601f8201168201806040525081019061322d919061c62d565b9050600d5f829190505550600f54600d541161327e576040517f08c379a00000000000000000000000000000000000000000000000000000000081526004016132759061ccf6565b60405180910390fd5b8173ffffffffffffffffffffffffffffffffffffffff1663860ffea1306001600d546040518463ffffffff1660e01b81526004016132be9392919061cd14565b5f604051808303815f87803b1580156132d5575f5ffd5b505af11580156132e7573d5f5f3e3d5ffd5b50505050600d548273ffffffffffffffffffffffffffffffffffffffff16631c9e379b306040518263ffffffff1660e01b8152600401613327919061bf42565b602060405180830381865afa158015613342573d5f5f3e3d5ffd5b505050506040513d601f19601f82011682018060405250810190613366919061c448565b1015600260016101000a81548160ff021916908315150217905550600260019054906101000a900460ff16600260086101000a81548160ff0219169083151502179055505f8173ffffffffffffffffffffffffffffffffffffffff1663f7888aec7399d8a9c45b2eca8864373a26d1459e3dff1e17f360205f9054906101000a900473ffffffffffffffffffffffffffffffffffffffff166040518363ffffffff1660e01b815260040161341b92919061cd49565b602060405180830381865afa158015613436573d5f5f3e3d5ffd5b505050506040513d601f19601f8201168201806040525081019061345a919061c448565b90505f8273ffffffffffffffffffffffffffffffffffffffff1663566231187399d8a9c45b2eca8864373a26d1459e3dff1e17f3845f6040518463ffffffff1660e01b81526004016134ae9392919061cd70565b602060405180830381865afa1580156134c9573d5f5f3e3d5ffd5b505050506040513d601f19601f820116820180604052508101906134ed919061c448565b905060018111613532576040517f08c379a00000000000000000000000000000000000000000000000000000000081526004016135299061cdef565b60405180910390fd5b60018161353f919061cc11565b6007819055508373ffffffffffffffffffffffffffffffffffffffff16634b8a3529306007546040518363ffffffff1660e01b815260040161358292919061ce0d565b60408051808303815f875af115801561359d573d5f5f3e3d5ffd5b505050506040513d601f19601f820116820180604052508101906135c1919061c62d565b905060085f8291905055506001600260036101000a81548160ff0219169083151502179055506001600260096101000a81548160ff021916908315150217905550600260019054906101000a900460ff16801561362a5750600260039054906101000a900460ff165b6002600e6101000a81548160ff0219169083151502179055505f600854146136ec578273ffffffffffffffffffffffffffffffffffffffff166397da6d307399d8a9c45b2eca8864373a26d1459e3dff1e17f330305f6008546040518663ffffffff1660e01b81526004016136a395949392919061ce34565b60408051808303815f875af11580156136be573d5f5f3e3d5ffd5b505050506040513d601f19601f820116820180604052508101906136e2919061c62d565b50505f6008819055505b8373ffffffffffffffffffffffffffffffffffffffff166338b51ce1306040518263ffffffff1660e01b8152600401613725919061bf42565b602060405180830381865afa158015613740573d5f5f3e3d5ffd5b505050506040513d601f19601f82011682018060405250810190613764919061ce85565b60155f6101000a81548160ff0219169083151502179055505f8473ffffffffffffffffffffffffffffffffffffffff16631c9e379b306040518263ffffffff1660e01b81526004016137b6919061bf42565b602060405180830381865afa1580156137d1573d5f5f3e3d5ffd5b505050506040513d601f19601f820116820180604052508101906137f5919061c448565b9050600f548111156139c6575f600f5482613810919061cc11565b90508573ffffffffffffffffffffffffffffffffffffffff1663876467f830836040518363ffffffff1660e01b815260040161384d92919061ce0d565b5f604051808303815f87803b158015613864575f5ffd5b505af1158015613876573d5f5f3e3d5ffd5b505050505f8573ffffffffffffffffffffffffffffffffffffffff1663f7888aec60195f9054906101000a900473ffffffffffffffffffffffffffffffffffffffff16306040518363ffffffff1660e01b81526004016138d792919061cd49565b602060405180830381865afa1580156138f2573d5f5f3e3d5ffd5b505050506040513d601f19601f82011682018060405250810190613916919061c448565b90505f81146139c3578573ffffffffffffffffffffffffffffffffffffffff166397da6d3060195f9054906101000a900473ffffffffffffffffffffffffffffffffffffffff1630305f866040518663ffffffff1660e01b815260040161398195949392919061ce34565b60408051808303815f875af115801561399c573d5f5f3e3d5ffd5b505050506040513d601f19601f820116820180604052508101906139c0919061c62d565b50505b50505b600f548573ffffffffffffffffffffffffffffffffffffffff16631c9e379b306040518263ffffffff1660e01b8152600401613a02919061bf42565b602060405180830381865afa158015613a1d573d5f5f3e3d5ffd5b505050506040513d601f19601f82011682018060405250810190613a41919061c448565b14600260046101000a81548160ff021916908315150217905550600260049054906101000a900460ff166002600a6101000a81548160ff021916908315150217905550600260049054906101000a900460ff16613ad3576040517f08c379a0000000000000000000000000000000000000000000000000000000008152600401613aca9061cefa565b60405180910390fd5b5f600a54600954613ae4919061c4a0565b90505f60195f9054906101000a900473ffffffffffffffffffffffffffffffffffffffff1673ffffffffffffffffffffffffffffffffffffffff166370a08231306040518263ffffffff1660e01b8152600401613b41919061bf42565b602060405180830381865afa158015613b5c573d5f5f3e3d5ffd5b505050506040513d601f19601f82011682018060405250810190613b80919061c448565b90505f6010819055505f60118190555081811015613c97578082613ba4919061cc11565b601081905550613bb56010546160ee565b6011819055508160195f9054906101000a900473ffffffffffffffffffffffffffffffffffffffff1673ffffffffffffffffffffffffffffffffffffffff166370a08231306040518263ffffffff1660e01b8152600401613c16919061bf42565b602060405180830381865afa158015613c31573d5f5f3e3d5ffd5b505050506040513d601f19601f82011682018060405250810190613c55919061c448565b1015613c96576040517f08c379a0000000000000000000000000000000000000000000000000000000008152600401613c8d9061cf62565b60405180910390fd5b5b5f600167ffffffffffffffff811115613cb357613cb261c77e565b5b604051908082528060200260200182016040528015613ce15781602001602082028036833780820191505090505b50905030815f81518110613cf857613cf761cf80565b5b602002602001019073ffffffffffffffffffffffffffffffffffffffff16908173ffffffffffffffffffffffffffffffffffffffff16815250505f600167ffffffffffffffff811115613d4e57613d4d61c77e565b5b604051908082528060200260200182016040528015613d7c5781602001602082028036833780820191505090505b5090508873ffffffffffffffffffffffffffffffffffffffff166348e4163e306040518263ffffffff1660e01b8152600401613db8919061bf42565b602060405180830381865afa158015613dd3573d5f5f3e3d5ffd5b505050506040513d601f19601f82011682018060405250810190613df7919061c448565b815f81518110613e0a57613e0961cf80565b5b6020026020010181815250505f5f60205f9054906101000a900473ffffffffffffffffffffffffffffffffffffffff1673ffffffffffffffffffffffffffffffffffffffff1663ff6ff84b60e01b8585305f60405180602001604052805f815250604051602401613e7f95949392919061d11b565b604051602081830303815290604052907bffffffffffffffffffffffffffffffffffffffffffffffffffffffff19166020820180517bffffffffffffffffffffffffffffffffffffffffffffffffffffffff8381831617835250505050604051613ee9919061d1bb565b5f604051808303815f865af19150503d805f8114613f22576040519150601f19603f3d011682016040523d82523d5f602084013e613f27565b606091505b50915091506001600260056101000a81548160ff02191690831515021790555081158015613fd95750613f598161629c565b80613fd857508a73ffffffffffffffffffffffffffffffffffffffff166338b51ce1306040518263ffffffff1660e01b8152600401613f98919061bf42565b602060405180830381865afa158015613fb3573d5f5f3e3d5ffd5b505050506040513d601f19601f82011682018060405250810190613fd7919061ce85565b5b5b600260066101000a81548160ff021916908315150217905550600260069054906101000a900460ff166002600b6101000a81548160ff021916908315150217905550600260069054906101000a900460ff1680156140ae57505f8b73ffffffffffffffffffffffffffffffffffffffff16631c9e379b306040518263ffffffff1660e01b815260040161406c919061bf42565b602060405180830381865afa158015614087573d5f5f3e3d5ffd5b505050506040513d601f19601f820116820180604052508101906140ab919061c448565b14155b6002600f6101000a81548160ff021916908315150217905550600260069054906101000a900460ff16614116576040517f08c379a000000000000000000000000000000000000000000000000000000000815260040161410d9061d21b565b60405180910390fd5b5050505050505050505050565b5f5f8473ffffffffffffffffffffffffffffffffffffffff1663a9059cbb60e01b858560405160240161415792919061ce0d565b604051602081830303815290604052907bffffffffffffffffffffffffffffffffffffffffffffffffffffffff19166020820180517bffffffffffffffffffffffffffffffffffffffffffffffffffffffff83818316178352505050506040516141c1919061d1bb565b5f604051808303815f865af19150503d805f81146141fa576040519150601f19603f3d011682016040523d82523d5f602084013e6141ff565b606091505b509150915081801561422c57505f8151148061422b57508080602001905181019061422a919061ce85565b5b5b61426b576040517f08c379a00000000000000000000000000000000000000000000000000000000081526004016142629061d283565b60405180910390fd5b5050505050565b5f6142907346f54d434063e5f1a2b2cc6d9aaa657b1b9ff82c61643a565b156142b1577346f54d434063e5f1a2b2cc6d9aaa657b1b9ff82c90506142b2565b5b90565b5f5f73ffffffffffffffffffffffffffffffffffffffff168273ffffffffffffffffffffffffffffffffffffffff16036142f1575f9050614b0a565b61437d826040516024016040516020818303038152906040527f38d52e0f000000000000000000000000000000000000000000000000000000007bffffffffffffffffffffffffffffffffffffffffffffffffffffffff19166020820180517bffffffffffffffffffffffffffffffffffffffffffffffffffffffff8381831617835250505050616537565b90505f73ffffffffffffffffffffffffffffffffffffffff168173ffffffffffffffffffffffffffffffffffffffff1603614b0a5761443e826040516024016040516020818303038152906040527ffc0c546a000000000000000000000000000000000000000000000000000000007bffffffffffffffffffffffffffffffffffffffffffffffffffffffff19166020820180517bffffffffffffffffffffffffffffffffffffffffffffffffffffffff8381831617835250505050616537565b90505f73ffffffffffffffffffffffffffffffffffffffff168173ffffffffffffffffffffffffffffffffffffffff1603614b0a576144ff826040516024016040516020818303038152906040527f6f307dc3000000000000000000000000000000000000000000000000000000007bffffffffffffffffffffffffffffffffffffffffffffffffffffffff19166020820180517bffffffffffffffffffffffffffffffffffffffffffffffffffffffff8381831617835250505050616537565b90505f73ffffffffffffffffffffffffffffffffffffffff168173ffffffffffffffffffffffffffffffffffffffff1603614b0a576145c0826040516024016040516020818303038152906040527f72f702f3000000000000000000000000000000000000000000000000000000007bffffffffffffffffffffffffffffffffffffffffffffffffffffffff19166020820180517bffffffffffffffffffffffffffffffffffffffffffffffffffffffff8381831617835250505050616537565b90505f73ffffffffffffffffffffffffffffffffffffffff168173ffffffffffffffffffffffffffffffffffffffff1603614b0a57614681826040516024016040516020818303038152906040527fc89039c5000000000000000000000000000000000000000000000000000000007bffffffffffffffffffffffffffffffffffffffffffffffffffffffff19166020820180517bffffffffffffffffffffffffffffffffffffffffffffffffffffffff8381831617835250505050616537565b90505f73ffffffffffffffffffffffffffffffffffffffff168173ffffffffffffffffffffffffffffffffffffffff1603614b0a57614742826040516024016040516020818303038152906040527f1f1fcd51000000000000000000000000000000000000000000000000000000007bffffffffffffffffffffffffffffffffffffffffffffffffffffffff19166020820180517bffffffffffffffffffffffffffffffffffffffffffffffffffffffff8381831617835250505050616537565b90505f73ffffffffffffffffffffffffffffffffffffffff168173ffffffffffffffffffffffffffffffffffffffff1603614b0a57614803826040516024016040516020818303038152906040527f5fcbd285000000000000000000000000000000000000000000000000000000007bffffffffffffffffffffffffffffffffffffffffffffffffffffffff19166020820180517bffffffffffffffffffffffffffffffffffffffffffffffffffffffff8381831617835250505050616537565b90505f73ffffffffffffffffffffffffffffffffffffffff168173ffffffffffffffffffffffffffffffffffffffff1603614b0a576148c4826040516024016040516020818303038152906040527fa8aa1b31000000000000000000000000000000000000000000000000000000007bffffffffffffffffffffffffffffffffffffffffffffffffffffffff19166020820180517bffffffffffffffffffffffffffffffffffffffffffffffffffffffff8381831617835250505050616537565b90505f73ffffffffffffffffffffffffffffffffffffffff168173ffffffffffffffffffffffffffffffffffffffff1603614b0a57614985826040516024016040516020818303038152906040527f16f0115b000000000000000000000000000000000000000000000000000000007bffffffffffffffffffffffffffffffffffffffffffffffffffffffff19166020820180517bffffffffffffffffffffffffffffffffffffffffffffffffffffffff8381831617835250505050616537565b90505f73ffffffffffffffffffffffffffffffffffffffff168173ffffffffffffffffffffffffffffffffffffffff1603614b0a57614a46826040516024016040516020818303038152906040527f4cf088d9000000000000000000000000000000000000000000000000000000007bffffffffffffffffffffffffffffffffffffffffffffffffffffffff19166020820180517bffffffffffffffffffffffffffffffffffffffffffffffffffffffff8381831617835250505050616537565b90505f73ffffffffffffffffffffffffffffffffffffffff168173ffffffffffffffffffffffffffffffffffffffff1603614b0a57614b07826040516024016040516020818303038152906040527f76636722000000000000000000000000000000000000000000000000000000007bffffffffffffffffffffffffffffffffffffffffffffffffffffffff19166020820180517bffffffffffffffffffffffffffffffffffffffffffffffffffffffff8381831617835250505050616537565b90505b919050565b5f5f73ffffffffffffffffffffffffffffffffffffffff168273ffffffffffffffffffffffffffffffffffffffff1603614b4b575f9050614f9f565b614bd7826040516024016040516020818303038152906040527f646780df000000000000000000000000000000000000000000000000000000007bffffffffffffffffffffffffffffffffffffffffffffffffffffffff19166020820180517bffffffffffffffffffffffffffffffffffffffffffffffffffffffff8381831617835250505050616537565b90505f73ffffffffffffffffffffffffffffffffffffffff168173ffffffffffffffffffffffffffffffffffffffff1603614f9f57614c98826040516024016040516020818303038152906040527f4f39059c000000000000000000000000000000000000000000000000000000007bffffffffffffffffffffffffffffffffffffffffffffffffffffffff19166020820180517bffffffffffffffffffffffffffffffffffffffffffffffffffffffff8381831617835250505050616537565b90505f73ffffffffffffffffffffffffffffffffffffffff168173ffffffffffffffffffffffffffffffffffffffff1603614f9f57614d59826040516024016040516020818303038152906040527f82c63066000000000000000000000000000000000000000000000000000000007bffffffffffffffffffffffffffffffffffffffffffffffffffffffff19166020820180517bffffffffffffffffffffffffffffffffffffffffffffffffffffffff8381831617835250505050616537565b90505f73ffffffffffffffffffffffffffffffffffffffff168173ffffffffffffffffffffffffffffffffffffffff1603614f9f57614e1a826040516024016040516020818303038152906040527ffc0c546a000000000000000000000000000000000000000000000000000000007bffffffffffffffffffffffffffffffffffffffffffffffffffffffff19166020820180517bffffffffffffffffffffffffffffffffffffffffffffffffffffffff8381831617835250505050616537565b90505f73ffffffffffffffffffffffffffffffffffffffff168173ffffffffffffffffffffffffffffffffffffffff1603614f9f57614edb826040516024016040516020818303038152906040527f6f307dc3000000000000000000000000000000000000000000000000000000007bffffffffffffffffffffffffffffffffffffffffffffffffffffffff19166020820180517bffffffffffffffffffffffffffffffffffffffffffffffffffffffff8381831617835250505050616537565b90505f73ffffffffffffffffffffffffffffffffffffffff168173ffffffffffffffffffffffffffffffffffffffff1603614f9f57614f9c826040516024016040516020818303038152906040527f38d52e0f000000000000000000000000000000000000000000000000000000007bffffffffffffffffffffffffffffffffffffffffffffffffffffffff19166020820180517bffffffffffffffffffffffffffffffffffffffffffffffffffffffff8381831617835250505050616537565b90505b919050565b5f5f73ffffffffffffffffffffffffffffffffffffffff168273ffffffffffffffffffffffffffffffffffffffff1603614fe0575f90506151f1565b61506c826040516024016040516020818303038152906040527f07546172000000000000000000000000000000000000000000000000000000007bffffffffffffffffffffffffffffffffffffffffffffffffffffffff19166020820180517bffffffffffffffffffffffffffffffffffffffffffffffffffffffff8381831617835250505050616537565b90505f73ffffffffffffffffffffffffffffffffffffffff168173ffffffffffffffffffffffffffffffffffffffff16036151f15761512d826040516024016040516020818303038152906040527f16f0115b000000000000000000000000000000000000000000000000000000007bffffffffffffffffffffffffffffffffffffffffffffffffffffffff19166020820180517bffffffffffffffffffffffffffffffffffffffffffffffffffffffff8381831617835250505050616537565b90505f73ffffffffffffffffffffffffffffffffffffffff168173ffffffffffffffffffffffffffffffffffffffff16036151f1576151ee826040516024016040516020818303038152906040527f8119c065000000000000000000000000000000000000000000000000000000007bffffffffffffffffffffffffffffffffffffffffffffffffffffffff19166020820180517bffffffffffffffffffffffffffffffffffffffffffffffffffffffff8381831617835250505050616537565b90505b919050565b61526360195f9054906101000a900473ffffffffffffffffffffffffffffffffffffffff16601f5f9054906101000a900473ffffffffffffffffffffffffffffffffffffffff167fffffffffffffffffffffffffffffffffffffffffffffffffffffffffffffffff6165d4565b6152c37399d8a9c45b2eca8864373a26d1459e3dff1e17f3601f5f9054906101000a900473ffffffffffffffffffffffffffffffffffffffff167fffffffffffffffffffffffffffffffffffffffffffffffffffffffffffffffff6165d4565b6153167399d8a9c45b2eca8864373a26d1459e3dff1e17f373d9e1ce17f2641f24ae83637ab66a2cca9c378b9f7fffffffffffffffffffffffffffffffffffffffffffffffffffffffffffffffff6165d4565b6153697399d8a9c45b2eca8864373a26d1459e3dff1e17f3737a250d5630b4cf539739df2c5dacb4c659f2488d7fffffffffffffffffffffffffffffffffffffffffffffffffffffffffffffffff6165d4565b565b5f6001905090565b5f5f601f5f9054906101000a900473ffffffffffffffffffffffffffffffffffffffff1690505f60195f9054906101000a900473ffffffffffffffffffffffffffffffffffffffff1673ffffffffffffffffffffffffffffffffffffffff166370a08231601f5f9054906101000a900473ffffffffffffffffffffffffffffffffffffffff166040518263ffffffff1660e01b8152600401615415919061bf42565b602060405180830381865afa158015615430573d5f5f3e3d5ffd5b505050506040513d601f19601f82011682018060405250810190615454919061c448565b90506103e78111615469575f9250505061554f565b6103e792505b6107cf831161554957808310615489575f9250505061554f565b600f548273ffffffffffffffffffffffffffffffffffffffff1663da5139ca60195f9054906101000a900473ffffffffffffffffffffffffffffffffffffffff16865f6040518463ffffffff1660e01b81526004016154ea9392919061cd70565b602060405180830381865afa158015615505573d5f5f3e3d5ffd5b505050506040513d601f19601f82011682018060405250810190615529919061c448565b111561553657505061554f565b82806155419061d2a1565b93505061546f565b5f925050505b90565b5f5f5f9054906101000a900473ffffffffffffffffffffffffffffffffffffffff1690505f8173ffffffffffffffffffffffffffffffffffffffff16633ba0b9a96040518163ffffffff1660e01b8152600401602060405180830381865afa1580156155c0573d5f5f3e3d5ffd5b505050506040513d601f19601f820116820180604052508101906155e4919061c448565b90505f811460065f6101000a81548160ff021916908315150217905550601e5f9054906101000a900473ffffffffffffffffffffffffffffffffffffffff1673ffffffffffffffffffffffffffffffffffffffff1663d6d7d52560236040518263ffffffff1660e01b815260040161565c919061d369565b60408051808303815f875af1158015615677573d5f5f3e3d5ffd5b505050506040513d601f19601f8201168201806040525081019061569b919061cb6b565b6002601660035f84919050558391906101000a81548160ff0219169083151502179055505050600260169054906101000a900460ff1680156156de57505f600354145b6002600c6101000a81548160ff0219169083151502179055506002600c9054906101000a900460ff1615600260136101000a81548160ff0219169083151502179055505050565b5f73ffffffffffffffffffffffffffffffffffffffff1660215f9054906101000a900473ffffffffffffffffffffffffffffffffffffffff1673ffffffffffffffffffffffffffffffffffffffff1603615bcb576040516157859061be6e565b604051809103905ff08015801561579e573d5f5f3e3d5ffd5b5060225f6101000a81548173ffffffffffffffffffffffffffffffffffffffff021916908373ffffffffffffffffffffffffffffffffffffffff1602179055505f601f5f9054906101000a900473ffffffffffffffffffffffffffffffffffffffff1673ffffffffffffffffffffffffffffffffffffffff1663bafe4f145f5f9054906101000a900473ffffffffffffffffffffffffffffffffffffffff166040518263ffffffff1660e01b8152600401615859919061bf42565b602060405180830381865afa158015615874573d5f5f3e3d5ffd5b505050506040513d601f19601f82011682018060405250810190615898919061c74f565b90505f73ffffffffffffffffffffffffffffffffffffffff168173ffffffffffffffffffffffffffffffffffffffff1603615908576040517f08c379a00000000000000000000000000000000000000000000000000000000081526004016158ff9061d3d3565b60405180910390fd5b5f60195f9054906101000a900473ffffffffffffffffffffffffffffffffffffffff1660225f9054906101000a900473ffffffffffffffffffffffffffffffffffffffff1660405180602001604052805f8152505f6201b580620124f85f60405160200161597c979695949392919061d413565b6040516020818303038152906040529050601f5f9054906101000a900473ffffffffffffffffffffffffffffffffffffffff1673ffffffffffffffffffffffffffffffffffffffff16631f54245b83835f6040518463ffffffff1660e01b81526004016159eb9392919061d487565b6020604051808303815f875af1158015615a07573d5f5f3e3d5ffd5b505050506040513d601f19601f82011682018060405250810190615a2b919061c74f565b60215f6101000a81548173ffffffffffffffffffffffffffffffffffffffff021916908373ffffffffffffffffffffffffffffffffffffffff1602179055505f73ffffffffffffffffffffffffffffffffffffffff1660215f9054906101000a900473ffffffffffffffffffffffffffffffffffffffff1673ffffffffffffffffffffffffffffffffffffffff1603615af9576040517f08c379a0000000000000000000000000000000000000000000000000000000008152600401615af09061d50d565b60405180910390fd5b5f60215f9054906101000a900473ffffffffffffffffffffffffffffffffffffffff1673ffffffffffffffffffffffffffffffffffffffff16633ba0b9a96040518163ffffffff1660e01b8152600401602060405180830381865afa158015615b64573d5f5f3e3d5ffd5b505050506040513d601f19601f82011682018060405250810190615b88919061c448565b14615bc8576040517f08c379a0000000000000000000000000000000000000000000000000000000008152600401615bbf9061d575565b60405180910390fd5b50505b565b5f7399d8a9c45b2eca8864373a26d1459e3dff1e17f373ffffffffffffffffffffffffffffffffffffffff166370a08231306040518263ffffffff1660e01b8152600401615c1b919061bf42565b602060405180830381865afa158015615c36573d5f5f3e3d5ffd5b505050506040513d601f19601f82011682018060405250810190615c5a919061c448565b141580615c6657505f47145b615fd6575f479050660110d9316ec000811115615c8857660110d9316ec00090505b615cd873d9e1ce17f2641f24ae83637ab66a2cca9c378b9f615cd273c02aaa39b223fe8d0a0e5c4f27ead9083c756cc27399d8a9c45b2eca8864373a26d1459e3dff1e17f3616679565b8361676a565b15615ce35750615fd6565b615d4873d9e1ce17f2641f24ae83637ab66a2cca9c378b9f615d4273c02aaa39b223fe8d0a0e5c4f27ead9083c756cc273dac17f958d2ee523a2206206994597c13d831ec77399d8a9c45b2eca8864373a26d1459e3dff1e17f36168ad565b8361676a565b15615d535750615fd6565b615db873d9e1ce17f2641f24ae83637ab66a2cca9c378b9f615db273c02aaa39b223fe8d0a0e5c4f27ead9083c756cc273a0b86991c6218b36c1d19d4a2e9eb0ce3606eb487399d8a9c45b2eca8864373a26d1459e3dff1e17f36168ad565b8361676a565b15615dc35750615fd6565b615e2873d9e1ce17f2641f24ae83637ab66a2cca9c378b9f615e2273c02aaa39b223fe8d0a0e5c4f27ead9083c756cc2736b175474e89094c44da98b954eedeac495271d0f7399d8a9c45b2eca8864373a26d1459e3dff1e17f36168ad565b8361676a565b15615e335750615fd6565b615e83737a250d5630b4cf539739df2c5dacb4c659f2488d615e7d73c02aaa39b223fe8d0a0e5c4f27ead9083c756cc27399d8a9c45b2eca8864373a26d1459e3dff1e17f3616679565b8361676a565b15615e8e5750615fd6565b615ef3737a250d5630b4cf539739df2c5dacb4c659f2488d615eed73c02aaa39b223fe8d0a0e5c4f27ead9083c756cc273dac17f958d2ee523a2206206994597c13d831ec77399d8a9c45b2eca8864373a26d1459e3dff1e17f36168ad565b8361676a565b15615efe5750615fd6565b615f63737a250d5630b4cf539739df2c5dacb4c659f2488d615f5d73c02aaa39b223fe8d0a0e5c4f27ead9083c756cc273a0b86991c6218b36c1d19d4a2e9eb0ce3606eb487399d8a9c45b2eca8864373a26d1459e3dff1e17f36168ad565b8361676a565b15615f6e5750615fd6565b615fd3737a250d5630b4cf539739df2c5dacb4c659f2488d615fcd73c02aaa39b223fe8d0a0e5c4f27ead9083c756cc2736b175474e89094c44da98b954eedeac495271d0f7399d8a9c45b2eca8864373a26d1459e3dff1e17f36168ad565b8361676a565b50505b565b5f5f7399d8a9c45b2eca8864373a26d1459e3dff1e17f373ffffffffffffffffffffffffffffffffffffffff166370a08231601f5f9054906101000a900473ffffffffffffffffffffffffffffffffffffffff166040518263ffffffff1660e01b8152600401616048919061bf42565b602060405180830381865afa158015616063573d5f5f3e3d5ffd5b505050506040513d601f19601f82011682018060405250810190616087919061c448565b90506001811161609a575f9150506160e9565b5f60646107d06160aa919061cc11565b846160b5919061d593565b9050680ad78ebc5ac62000009250808311156160cf578092505b8183106160e6576001826160e3919061cc11565b92505b50505b919050565b5f5f82036160fe575f9050616297565b5f7399d8a9c45b2eca8864373a26d1459e3dff1e17f373ffffffffffffffffffffffffffffffffffffffff166370a08231306040518263ffffffff1660e01b815260040161614c919061bf42565b602060405180830381865afa158015616167573d5f5f3e3d5ffd5b505050506040513d601f19601f8201168201806040525081019061618b919061c448565b9050616196836169ee565b1580156161cb57506161c960195f9054906101000a900473ffffffffffffffffffffffffffffffffffffffff16846172a5565b155b156161e9576161d983617695565b6161e8576161e6836180dc565b505b5b5f7399d8a9c45b2eca8864373a26d1459e3dff1e17f373ffffffffffffffffffffffffffffffffffffffff166370a08231306040518263ffffffff1660e01b8152600401616237919061bf42565b602060405180830381865afa158015616252573d5f5f3e3d5ffd5b505050506040513d601f19601f82011682018060405250810190616276919061c448565b9050808211616285575f616292565b8082616291919061cc11565b5b925050505b919050565b5f6044825110156162af575f9050616435565b5f602083015190506308c379a060e01b817bffffffffffffffffffffffffffffffffffffffffffffffffffffffff1916146162ed575f915050616435565b5f600484516162fc919061cc11565b67ffffffffffffffff8111156163155761631461c77e565b5b6040519080825280601f01601f1916602001820160405280156163475781602001600182028036833780820191505090505b5090505f600490505b84518110156163d15784818151811061636c5761636b61cf80565b5b602001015160f81c60f81b82600483616385919061cc11565b815181106163965761639561cf80565b5b60200101907effffffffffffffffffffffffffffffffffffffffffffffffffffffffffffff191690815f1a9053508080600101915050616350565b505f818060200190518101906163e7919061d672565b90506040518060400160405280601981526020017f4361756c64726f6e3a20616c6c2061726520736f6c76656e74000000000000008152508051906020012081805190602001201493505050505b919050565b5f5f73ffffffffffffffffffffffffffffffffffffffff168273ffffffffffffffffffffffffffffffffffffffff1603616476575f9050616532565b8173ffffffffffffffffffffffffffffffffffffffff16639b352ae16040518163ffffffff1660e01b8152600401602060405180830381865afa9250505080156164de57506040513d601f19601f820116820180604052508101906164db919061c74f565b60015b6164ea575f9050616531565b7399d8a9c45b2eca8864373a26d1459e3dff1e17f373ffffffffffffffffffffffffffffffffffffffff168173ffffffffffffffffffffffffffffffffffffffff16149150505b5b919050565b5f5f5f8473ffffffffffffffffffffffffffffffffffffffff168460405161655f919061d1bb565b5f60405180830381855afa9150503d805f8114616597576040519150601f19603f3d011682016040523d82523d5f602084013e61659c565b606091505b50915091508180156165b057506020815110155b156165cc57808060200190518101906165c9919061d6f4565b92505b505092915050565b8273ffffffffffffffffffffffffffffffffffffffff1663dd62ed3e30846040518363ffffffff1660e01b815260040161660f92919061cd49565b602060405180830381865afa92505050801561664957506040513d601f19601f82011682018060405250810190616646919061c448565b60015b1561665d5781811061665b5750616674565b505b61666883835f618d3f565b616673838383618d3f565b5b505050565b6060600267ffffffffffffffff8111156166965761669561c77e565b5b6040519080825280602002602001820160405280156166c45781602001602082028036833780820191505090505b50905082815f815181106166db576166da61cf80565b5b602002602001019073ffffffffffffffffffffffffffffffffffffffff16908173ffffffffffffffffffffffffffffffffffffffff1681525050818160018151811061672a5761672961cf80565b5b602002602001019073ffffffffffffffffffffffffffffffffffffffff16908173ffffffffffffffffffffffffffffffffffffffff168152505092915050565b5f5f820361677a575f90506168a6565b8373ffffffffffffffffffffffffffffffffffffffff16637ff36ab5835f8630426040518663ffffffff1660e01b81526004016167ba949392919061d71f565b5f6040518083038185885af1935050505080156167f957506040513d5f823e3d601f19601f820116820180604052508101906167f6919061d829565b60015b616805575f90506168a5565b5f8151141580156168a157505f7399d8a9c45b2eca8864373a26d1459e3dff1e17f373ffffffffffffffffffffffffffffffffffffffff166370a08231306040518263ffffffff1660e01b815260040161685f919061bf42565b602060405180830381865afa15801561687a573d5f5f3e3d5ffd5b505050506040513d601f19601f8201168201806040525081019061689e919061c448565b14155b9150505b5b9392505050565b6060600367ffffffffffffffff8111156168ca576168c961c77e565b5b6040519080825280602002602001820160405280156168f85781602001602082028036833780820191505090505b50905083815f8151811061690f5761690e61cf80565b5b602002602001019073ffffffffffffffffffffffffffffffffffffffff16908173ffffffffffffffffffffffffffffffffffffffff1681525050828160018151811061695e5761695d61cf80565b5b602002602001019073ffffffffffffffffffffffffffffffffffffffff16908173ffffffffffffffffffffffffffffffffffffffff168152505081816002815181106169ad576169ac61cf80565b5b602002602001019073ffffffffffffffffffffffffffffffffffffffff16908173ffffffffffffffffffffffffffffffffffffffff16815250509392505050565b5f5f73ffffffffffffffffffffffffffffffffffffffff16601c5f9054906101000a900473ffffffffffffffffffffffffffffffffffffffff1673ffffffffffffffffffffffffffffffffffffffff161480616a9657505f73ffffffffffffffffffffffffffffffffffffffff16601d5f9054906101000a900473ffffffffffffffffffffffffffffffffffffffff1673ffffffffffffffffffffffffffffffffffffffff16145b80616aed57505f73ffffffffffffffffffffffffffffffffffffffff16601b5f9054906101000a900473ffffffffffffffffffffffffffffffffffffffff1673ffffffffffffffffffffffffffffffffffffffff16145b15616afa575f90506172a0565b5f7399d8a9c45b2eca8864373a26d1459e3dff1e17f373ffffffffffffffffffffffffffffffffffffffff166370a08231306040518263ffffffff1660e01b8152600401616b48919061bf42565b602060405180830381865afa158015616b63573d5f5f3e3d5ffd5b505050506040513d601f19601f82011682018060405250810190616b87919061c448565b905067016345785d8a00008111616ba1575f9150506172a0565b5f67016345785d8a000082616bb6919061cc11565b90505f8190506802b5e3af16b1880000811115616bda576802b5e3af16b188000090505b5f8103616bec575f93505050506172a0565b616c5173d9e1ce17f2641f24ae83637ab66a2cca9c378b9f616c367399d8a9c45b2eca8864373a26d1459e3dff1e17f373dac17f958d2ee523a2206206994597c13d831ec7616679565b73dac17f958d2ee523a2206206994597c13d831ec784618e8e565b158015616cc05750616cbe737a250d5630b4cf539739df2c5dacb4c659f2488d616ca37399d8a9c45b2eca8864373a26d1459e3dff1e17f373dac17f958d2ee523a2206206994597c13d831ec7616679565b73dac17f958d2ee523a2206206994597c13d831ec784618e8e565b155b8015616d435750616d4173d9e1ce17f2641f24ae83637ab66a2cca9c378b9f616d267399d8a9c45b2eca8864373a26d1459e3dff1e17f373c02aaa39b223fe8d0a0e5c4f27ead9083c756cc273dac17f958d2ee523a2206206994597c13d831ec76168ad565b73dac17f958d2ee523a2206206994597c13d831ec784618e8e565b155b8015616dc65750616dc4737a250d5630b4cf539739df2c5dacb4c659f2488d616da97399d8a9c45b2eca8864373a26d1459e3dff1e17f373c02aaa39b223fe8d0a0e5c4f27ead9083c756cc273dac17f958d2ee523a2206206994597c13d831ec76168ad565b73dac17f958d2ee523a2206206994597c13d831ec784618e8e565b155b15616dd6575f93505050506172a0565b5f73dac17f958d2ee523a2206206994597c13d831ec773ffffffffffffffffffffffffffffffffffffffff166370a08231306040518263ffffffff1660e01b8152600401616e24919061bf42565b602060405180830381865afa158015616e3f573d5f5f3e3d5ffd5b505050506040513d601f19601f82011682018060405250810190616e63919061c448565b90505f8103616e78575f9450505050506172a0565b616eda601d5f9054906101000a900473ffffffffffffffffffffffffffffffffffffffff1673dac17f958d2ee523a2206206994597c13d831ec783601c5f9054906101000a900473ffffffffffffffffffffffffffffffffffffffff166190bd565b616eea575f9450505050506172a0565b616ef26198ad565b15616f9e578560195f9054906101000a900473ffffffffffffffffffffffffffffffffffffffff1673ffffffffffffffffffffffffffffffffffffffff166370a08231306040518263ffffffff1660e01b8152600401616f52919061bf42565b602060405180830381865afa158015616f6d573d5f5f3e3d5ffd5b505050506040513d601f19601f82011682018060405250810190616f91919061c448565b10159450505050506172a0565b601c5f9054906101000a900473ffffffffffffffffffffffffffffffffffffffff1673ffffffffffffffffffffffffffffffffffffffff16601b5f9054906101000a900473ffffffffffffffffffffffffffffffffffffffff1673ffffffffffffffffffffffffffffffffffffffff16141580156170b357505f601b5f9054906101000a900473ffffffffffffffffffffffffffffffffffffffff1673ffffffffffffffffffffffffffffffffffffffff166370a08231306040518263ffffffff1660e01b8152600401617072919061bf42565b602060405180830381865afa15801561708d573d5f5f3e3d5ffd5b505050506040513d601f19601f820116820180604052508101906170b1919061c448565b145b156170d1576170c0619cc3565b6170d0575f9450505050506172a0565b5b60195f9054906101000a900473ffffffffffffffffffffffffffffffffffffffff1673ffffffffffffffffffffffffffffffffffffffff16601b5f9054906101000a900473ffffffffffffffffffffffffffffffffffffffff1673ffffffffffffffffffffffffffffffffffffffff16036171ed578560195f9054906101000a900473ffffffffffffffffffffffffffffffffffffffff1673ffffffffffffffffffffffffffffffffffffffff166370a08231306040518263ffffffff1660e01b81526004016171a1919061bf42565b602060405180830381865afa1580156171bc573d5f5f3e3d5ffd5b505050506040513d601f19601f820116820180604052508101906171e0919061c448565b10159450505050506172a0565b6171f561a267565b801561729957508560195f9054906101000a900473ffffffffffffffffffffffffffffffffffffffff1673ffffffffffffffffffffffffffffffffffffffff166370a08231306040518263ffffffff1660e01b8152600401617257919061bf42565b602060405180830381865afa158015617272573d5f5f3e3d5ffd5b505050506040513d601f19601f82011682018060405250810190617296919061c448565b10155b9450505050505b919050565b5f5f82036172b6576001905061768f565b5f8373ffffffffffffffffffffffffffffffffffffffff166370a08231306040518263ffffffff1660e01b81526004016172f0919061bf42565b602060405180830381865afa15801561730b573d5f5f3e3d5ffd5b505050506040513d601f19601f8201168201806040525081019061732f919061c448565b90505f5f5f5f5f5f6173408a61a6c7565b95509550955095509550955085158061735857505f81145b8061737257505f836dffffffffffffffffffffffffffff16145b8061738c57505f826dffffffffffffffffffffffffffff16145b156173a0575f97505050505050505061768f565b60195f9054906101000a900473ffffffffffffffffffffffffffffffffffffffff1673ffffffffffffffffffffffffffffffffffffffff168a73ffffffffffffffffffffffffffffffffffffffff160361749057600160175f6101000a81548160ff02191690831515021790555084601760016101000a81548173ffffffffffffffffffffffffffffffffffffffff021916908373ffffffffffffffffffffffffffffffffffffffff1602179055508360185f6101000a81548173ffffffffffffffffffffffffffffffffffffffff021916908373ffffffffffffffffffffffffffffffffffffffff1602179055505b5f6174b6846dffffffffffffffffffffffffffff168b6174b0919061d593565b8361ab82565b90505f6174de846dffffffffffffffffffffffffffff168c6174d8919061d593565b8461ab82565b90505f82036174ec57600191505b5f81036174f857600190505b600182617505919061c4a0565b9150600181617514919061c4a0565b9050617520878361abbd565b617535575f995050505050505050505061768f565b61753f868261abbd565b617554575f995050505050505050505061768f565b61755f878d84614123565b61756a868d83614123565b8b73ffffffffffffffffffffffffffffffffffffffff16636a627842306040518263ffffffff1660e01b81526004016175a3919061bf42565b6020604051808303815f875af19250505080156175de57506040513d601f19601f820116820180604052508101906175db919061c448565b60015b6175ea575f9950617685565b5f8d73ffffffffffffffffffffffffffffffffffffffff166370a08231306040518263ffffffff1660e01b8152600401617624919061bf42565b602060405180830381865afa15801561763f573d5f5f3e3d5ffd5b505050506040513d601f19601f82011682018060405250810190617663919061c448565b90508c821015801561768057508c8b61767c919061c4a0565b8110155b9b5050505b5050505050505050505b92915050565b5f5f73ffffffffffffffffffffffffffffffffffffffff16601a5f9054906101000a900473ffffffffffffffffffffffffffffffffffffffff1673ffffffffffffffffffffffffffffffffffffffff16148061775e575060195f9054906101000a900473ffffffffffffffffffffffffffffffffffffffff1673ffffffffffffffffffffffffffffffffffffffff16601a5f9054906101000a900473ffffffffffffffffffffffffffffffffffffffff1673ffffffffffffffffffffffffffffffffffffffff16145b1561776b575f90506180d7565b5f60195f9054906101000a900473ffffffffffffffffffffffffffffffffffffffff1673ffffffffffffffffffffffffffffffffffffffff166370a08231306040518263ffffffff1660e01b81526004016177c6919061bf42565b602060405180830381865afa1580156177e1573d5f5f3e3d5ffd5b505050506040513d601f19601f82011682018060405250810190617805919061c448565b90505f8390505f810361781757600190505b5f5f90505b600481101561796357617850601a5f9054906101000a900473ffffffffffffffffffffffffffffffffffffffff16836172a5565b156179125761785d61ae10565b801561790057508260195f9054906101000a900473ffffffffffffffffffffffffffffffffffffffff1673ffffffffffffffffffffffffffffffffffffffff166370a08231306040518263ffffffff1660e01b81526004016178bf919061bf42565b602060405180830381865afa1580156178da573d5f5f3e3d5ffd5b505050506040513d601f19601f820116820180604052508101906178fe919061c448565b115b1561791157600193505050506180d7565b5b6103e87fffffffffffffffffffffffffffffffffffffffffffffffffffffffffffffffff617940919061d89d565b8211617963576103e882617954919061d593565b9150808060010191505061781c565b505f7399d8a9c45b2eca8864373a26d1459e3dff1e17f373ffffffffffffffffffffffffffffffffffffffff166370a08231306040518263ffffffff1660e01b81526004016179b2919061bf42565b602060405180830381865afa1580156179cd573d5f5f3e3d5ffd5b505050506040513d601f19601f820116820180604052508101906179f1919061c448565b905067016345785d8a00008111617a0d575f93505050506180d7565b5f67016345785d8a000082617a22919061cc11565b9050617aa373d9e1ce17f2641f24ae83637ab66a2cca9c378b9f617a7b7399d8a9c45b2eca8864373a26d1459e3dff1e17f3601a5f9054906101000a900473ffffffffffffffffffffffffffffffffffffffff16616679565b601a5f9054906101000a900473ffffffffffffffffffffffffffffffffffffffff1684618e8e565b158015617b415750617b3f73d9e1ce17f2641f24ae83637ab66a2cca9c378b9f617b177399d8a9c45b2eca8864373a26d1459e3dff1e17f373c02aaa39b223fe8d0a0e5c4f27ead9083c756cc2601a5f9054906101000a900473ffffffffffffffffffffffffffffffffffffffff166168ad565b601a5f9054906101000a900473ffffffffffffffffffffffffffffffffffffffff1684618e8e565b155b8015617bde5750617bdc73d9e1ce17f2641f24ae83637ab66a2cca9c378b9f617bb47399d8a9c45b2eca8864373a26d1459e3dff1e17f373dac17f958d2ee523a2206206994597c13d831ec7601a5f9054906101000a900473ffffffffffffffffffffffffffffffffffffffff166168ad565b601a5f9054906101000a900473ffffffffffffffffffffffffffffffffffffffff1684618e8e565b155b8015617c7b5750617c7973d9e1ce17f2641f24ae83637ab66a2cca9c378b9f617c517399d8a9c45b2eca8864373a26d1459e3dff1e17f373a0b86991c6218b36c1d19d4a2e9eb0ce3606eb48601a5f9054906101000a900473ffffffffffffffffffffffffffffffffffffffff166168ad565b601a5f9054906101000a900473ffffffffffffffffffffffffffffffffffffffff1684618e8e565b155b8015617d185750617d1673d9e1ce17f2641f24ae83637ab66a2cca9c378b9f617cee7399d8a9c45b2eca8864373a26d1459e3dff1e17f3736b175474e89094c44da98b954eedeac495271d0f601a5f9054906101000a900473ffffffffffffffffffffffffffffffffffffffff166168ad565b601a5f9054906101000a900473ffffffffffffffffffffffffffffffffffffffff1684618e8e565b155b8015617da05750617d9e737a250d5630b4cf539739df2c5dacb4c659f2488d617d767399d8a9c45b2eca8864373a26d1459e3dff1e17f3601a5f9054906101000a900473ffffffffffffffffffffffffffffffffffffffff16616679565b601a5f9054906101000a900473ffffffffffffffffffffffffffffffffffffffff1684618e8e565b155b8015617e3d5750617e3b737a250d5630b4cf539739df2c5dacb4c659f2488d617e137399d8a9c45b2eca8864373a26d1459e3dff1e17f373c02aaa39b223fe8d0a0e5c4f27ead9083c756cc2601a5f9054906101000a900473ffffffffffffffffffffffffffffffffffffffff166168ad565b601a5f9054906101000a900473ffffffffffffffffffffffffffffffffffffffff1684618e8e565b155b8015617eda5750617ed8737a250d5630b4cf539739df2c5dacb4c659f2488d617eb07399d8a9c45b2eca8864373a26d1459e3dff1e17f373dac17f958d2ee523a2206206994597c13d831ec7601a5f9054906101000a900473ffffffffffffffffffffffffffffffffffffffff166168ad565b601a5f9054906101000a900473ffffffffffffffffffffffffffffffffffffffff1684618e8e565b155b8015617f775750617f75737a250d5630b4cf539739df2c5dacb4c659f2488d617f4d7399d8a9c45b2eca8864373a26d1459e3dff1e17f373a0b86991c6218b36c1d19d4a2e9eb0ce3606eb48601a5f9054906101000a900473ffffffffffffffffffffffffffffffffffffffff166168ad565b601a5f9054906101000a900473ffffffffffffffffffffffffffffffffffffffff1684618e8e565b155b80156180145750618012737a250d5630b4cf539739df2c5dacb4c659f2488d617fea7399d8a9c45b2eca8864373a26d1459e3dff1e17f3736b175474e89094c44da98b954eedeac495271d0f601a5f9054906101000a900473ffffffffffffffffffffffffffffffffffffffff166168ad565b601a5f9054906101000a900473ffffffffffffffffffffffffffffffffffffffff1684618e8e565b155b15618025575f9450505050506180d7565b61802d61ae10565b80156180d057508360195f9054906101000a900473ffffffffffffffffffffffffffffffffffffffff1673ffffffffffffffffffffffffffffffffffffffff166370a08231306040518263ffffffff1660e01b815260040161808f919061bf42565b602060405180830381865afa1580156180aa573d5f5f3e3d5ffd5b505050506040513d601f19601f820116820180604052508101906180ce919061c448565b115b9450505050505b919050565b5f5f82036180ec575f9050618d3a565b5f60195f9054906101000a900473ffffffffffffffffffffffffffffffffffffffff1673ffffffffffffffffffffffffffffffffffffffff166370a08231306040518263ffffffff1660e01b8152600401618147919061bf42565b602060405180830381865afa158015618162573d5f5f3e3d5ffd5b505050506040513d601f19601f82011682018060405250810190618186919061c448565b90505f7399d8a9c45b2eca8864373a26d1459e3dff1e17f373ffffffffffffffffffffffffffffffffffffffff166370a08231306040518263ffffffff1660e01b81526004016181d6919061bf42565b602060405180830381865afa1580156181f1573d5f5f3e3d5ffd5b505050506040513d601f19601f82011682018060405250810190618215919061c448565b905067016345785d8a00008111618230575f92505050618d3a565b5f67016345785d8a000082618245919061cc11565b90505f8103618259575f9350505050618d3a565b6182b873d9e1ce17f2641f24ae83637ab66a2cca9c378b9f6182b07399d8a9c45b2eca8864373a26d1459e3dff1e17f360195f9054906101000a900473ffffffffffffffffffffffffffffffffffffffff16616679565b85888561b3c4565b1561835e577399d8a9c45b2eca8864373a26d1459e3dff1e17f373ffffffffffffffffffffffffffffffffffffffff166370a08231306040518263ffffffff1660e01b815260040161830a919061bf42565b602060405180830381865afa158015618325573d5f5f3e3d5ffd5b505050506040513d601f19601f82011682018060405250810190618349919061c448565b82618354919061cc11565b9350505050618d3a565b6183d273d9e1ce17f2641f24ae83637ab66a2cca9c378b9f6183ca7399d8a9c45b2eca8864373a26d1459e3dff1e17f373c02aaa39b223fe8d0a0e5c4f27ead9083c756cc260195f9054906101000a900473ffffffffffffffffffffffffffffffffffffffff166168ad565b85888561b3c4565b15618478577399d8a9c45b2eca8864373a26d1459e3dff1e17f373ffffffffffffffffffffffffffffffffffffffff166370a08231306040518263ffffffff1660e01b8152600401618424919061bf42565b602060405180830381865afa15801561843f573d5f5f3e3d5ffd5b505050506040513d601f19601f82011682018060405250810190618463919061c448565b8261846e919061cc11565b9350505050618d3a565b6184ec73d9e1ce17f2641f24ae83637ab66a2cca9c378b9f6184e47399d8a9c45b2eca8864373a26d1459e3dff1e17f373dac17f958d2ee523a2206206994597c13d831ec760195f9054906101000a900473ffffffffffffffffffffffffffffffffffffffff166168ad565b85888561b3c4565b15618592577399d8a9c45b2eca8864373a26d1459e3dff1e17f373ffffffffffffffffffffffffffffffffffffffff166370a08231306040518263ffffffff1660e01b815260040161853e919061bf42565b602060405180830381865afa158015618559573d5f5f3e3d5ffd5b505050506040513d601f19601f8201168201806040525081019061857d919061c448565b82618588919061cc11565b9350505050618d3a565b61860673d9e1ce17f2641f24ae83637ab66a2cca9c378b9f6185fe7399d8a9c45b2eca8864373a26d1459e3dff1e17f373a0b86991c6218b36c1d19d4a2e9eb0ce3606eb4860195f9054906101000a900473ffffffffffffffffffffffffffffffffffffffff166168ad565b85888561b3c4565b156186ac577399d8a9c45b2eca8864373a26d1459e3dff1e17f373ffffffffffffffffffffffffffffffffffffffff166370a08231306040518263ffffffff1660e01b8152600401618658919061bf42565b602060405180830381865afa158015618673573d5f5f3e3d5ffd5b505050506040513d601f19601f82011682018060405250810190618697919061c448565b826186a2919061cc11565b9350505050618d3a565b61872073d9e1ce17f2641f24ae83637ab66a2cca9c378b9f6187187399d8a9c45b2eca8864373a26d1459e3dff1e17f3736b175474e89094c44da98b954eedeac495271d0f60195f9054906101000a900473ffffffffffffffffffffffffffffffffffffffff166168ad565b85888561b3c4565b156187c6577399d8a9c45b2eca8864373a26d1459e3dff1e17f373ffffffffffffffffffffffffffffffffffffffff166370a08231306040518263ffffffff1660e01b8152600401618772919061bf42565b602060405180830381865afa15801561878d573d5f5f3e3d5ffd5b505050506040513d601f19601f820116820180604052508101906187b1919061c448565b826187bc919061cc11565b9350505050618d3a565b618825737a250d5630b4cf539739df2c5dacb4c659f2488d61881d7399d8a9c45b2eca8864373a26d1459e3dff1e17f360195f9054906101000a900473ffffffffffffffffffffffffffffffffffffffff16616679565b85888561b3c4565b156188cb577399d8a9c45b2eca8864373a26d1459e3dff1e17f373ffffffffffffffffffffffffffffffffffffffff166370a08231306040518263ffffffff1660e01b8152600401618877919061bf42565b602060405180830381865afa158015618892573d5f5f3e3d5ffd5b505050506040513d601f19601f820116820180604052508101906188b6919061c448565b826188c1919061cc11565b9350505050618d3a565b61893f737a250d5630b4cf539739df2c5dacb4c659f2488d6189377399d8a9c45b2eca8864373a26d1459e3dff1e17f373c02aaa39b223fe8d0a0e5c4f27ead9083c756cc260195f9054906101000a900473ffffffffffffffffffffffffffffffffffffffff166168ad565b85888561b3c4565b156189e5577399d8a9c45b2eca8864373a26d1459e3dff1e17f373ffffffffffffffffffffffffffffffffffffffff166370a08231306040518263ffffffff1660e01b8152600401618991919061bf42565b602060405180830381865afa1580156189ac573d5f5f3e3d5ffd5b505050506040513d601f19601f820116820180604052508101906189d0919061c448565b826189db919061cc11565b9350505050618d3a565b618a59737a250d5630b4cf539739df2c5dacb4c659f2488d618a517399d8a9c45b2eca8864373a26d1459e3dff1e17f373dac17f958d2ee523a2206206994597c13d831ec760195f9054906101000a900473ffffffffffffffffffffffffffffffffffffffff166168ad565b85888561b3c4565b15618aff577399d8a9c45b2eca8864373a26d1459e3dff1e17f373ffffffffffffffffffffffffffffffffffffffff166370a08231306040518263ffffffff1660e01b8152600401618aab919061bf42565b602060405180830381865afa158015618ac6573d5f5f3e3d5ffd5b505050506040513d601f19601f82011682018060405250810190618aea919061c448565b82618af5919061cc11565b9350505050618d3a565b618b73737a250d5630b4cf539739df2c5dacb4c659f2488d618b6b7399d8a9c45b2eca8864373a26d1459e3dff1e17f373a0b86991c6218b36c1d19d4a2e9eb0ce3606eb4860195f9054906101000a900473ffffffffffffffffffffffffffffffffffffffff166168ad565b85888561b3c4565b15618c19577399d8a9c45b2eca8864373a26d1459e3dff1e17f373ffffffffffffffffffffffffffffffffffffffff166370a08231306040518263ffffffff1660e01b8152600401618bc5919061bf42565b602060405180830381865afa158015618be0573d5f5f3e3d5ffd5b505050506040513d601f19601f82011682018060405250810190618c04919061c448565b82618c0f919061cc11565b9350505050618d3a565b618c8d737a250d5630b4cf539739df2c5dacb4c659f2488d618c857399d8a9c45b2eca8864373a26d1459e3dff1e17f3736b175474e89094c44da98b954eedeac495271d0f60195f9054906101000a900473ffffffffffffffffffffffffffffffffffffffff166168ad565b85888561b3c4565b15618d33577399d8a9c45b2eca8864373a26d1459e3dff1e17f373ffffffffffffffffffffffffffffffffffffffff166370a08231306040518263ffffffff1660e01b8152600401618cdf919061bf42565b602060405180830381865afa158015618cfa573d5f5f3e3d5ffd5b505050506040513d601f19601f82011682018060405250810190618d1e919061c448565b82618d29919061cc11565b9350505050618d3a565b5f93505050505b919050565b5f5f8473ffffffffffffffffffffffffffffffffffffffff1663095ea7b360e01b8585604051602401618d7392919061ce0d565b604051602081830303815290604052907bffffffffffffffffffffffffffffffffffffffffffffffffffffffff19166020820180517bffffffffffffffffffffffffffffffffffffffffffffffffffffffff8381831617835250505050604051618ddd919061d1bb565b5f604051808303815f865af19150503d805f8114618e16576040519150601f19603f3d011682016040523d82523d5f602084013e618e1b565b606091505b5091509150818015618e4857505f81511480618e47575080806020019051810190618e46919061ce85565b5b5b618e87576040517f08c379a0000000000000000000000000000000000000000000000000000000008152600401618e7e9061d917565b60405180910390fd5b5050505050565b5f5f821480618e9e575060028451105b80618f1557508360018551618eb3919061cc11565b81518110618ec457618ec361cf80565b5b602002602001015173ffffffffffffffffffffffffffffffffffffffff16845f81518110618ef557618ef461cf80565b5b602002602001015173ffffffffffffffffffffffffffffffffffffffff16145b15618f22575f90506190b5565b5f8373ffffffffffffffffffffffffffffffffffffffff166370a08231306040518263ffffffff1660e01b8152600401618f5c919061bf42565b602060405180830381865afa158015618f77573d5f5f3e3d5ffd5b505050506040513d601f19601f82011682018060405250810190618f9b919061c448565b90508573ffffffffffffffffffffffffffffffffffffffff166338ed1739845f8830426040518663ffffffff1660e01b8152600401618fde95949392919061d935565b5f604051808303815f875af192505050801561901c57506040513d5f823e3d601f19601f82011682018060405250810190619019919061d829565b60015b619028575f91506190b3565b5f8151141580156190af5750818573ffffffffffffffffffffffffffffffffffffffff166370a08231306040518263ffffffff1660e01b815260040161906e919061bf42565b602060405180830381865afa158015619089573d5f5f3e3d5ffd5b505050506040513d601f19601f820116820180604052508101906190ad919061c448565b115b9250505b505b949350505050565b5f6190c98486856165d4565b5f5f90505b60068110156198a0575f6190e2878361b52c565b90508573ffffffffffffffffffffffffffffffffffffffff168173ffffffffffffffffffffffffffffffffffffffff161461911d5750619893565b5f8473ffffffffffffffffffffffffffffffffffffffff166370a08231306040518263ffffffff1660e01b8152600401619157919061bf42565b602060405180830381865afa158015619172573d5f5f3e3d5ffd5b505050506040513d601f19601f82011682018060405250810190619196919061c448565b90506002831015619356576191a961be7b565b868185600281106191bd576191bc61cf80565b5b6020020181815250505f8973ffffffffffffffffffffffffffffffffffffffff16825f6040516024016191f192919061da48565b6040516020818303038152906040527f0b4c7e4d000000000000000000000000000000000000000000000000000000007bffffffffffffffffffffffffffffffffffffffffffffffffffffffff19166020820180517bffffffffffffffffffffffffffffffffffffffffffffffffffffffff838183161783525050505060405161927b919061d1bb565b5f604051808303815f865af19150503d805f81146192b4576040519150601f19603f3d011682016040523d82523d5f602084013e6192b9565b606091505b505090508080156193405750828773ffffffffffffffffffffffffffffffffffffffff166370a08231306040518263ffffffff1660e01b81526004016192ff919061bf42565b602060405180830381865afa15801561931a573d5f5f3e3d5ffd5b505050506040513d601f19601f8201168201806040525081019061933e919061c448565b115b15619353576001955050505050506198a5565b50505b60038310156195145761936761be9d565b8681856003811061937b5761937a61cf80565b5b6020020181815250505f8973ffffffffffffffffffffffffffffffffffffffff16825f6040516024016193af92919061daee565b6040516020818303038152906040527f4515cef3000000000000000000000000000000000000000000000000000000007bffffffffffffffffffffffffffffffffffffffffffffffffffffffff19166020820180517bffffffffffffffffffffffffffffffffffffffffffffffffffffffff8381831617835250505050604051619439919061d1bb565b5f604051808303815f865af19150503d805f8114619472576040519150601f19603f3d011682016040523d82523d5f602084013e619477565b606091505b505090508080156194fe5750828773ffffffffffffffffffffffffffffffffffffffff166370a08231306040518263ffffffff1660e01b81526004016194bd919061bf42565b602060405180830381865afa1580156194d8573d5f5f3e3d5ffd5b505050506040513d601f19601f820116820180604052508101906194fc919061c448565b115b15619511576001955050505050506198a5565b50505b60048310156196d25761952561bebf565b868185600481106195395761953861cf80565b5b6020020181815250505f8973ffffffffffffffffffffffffffffffffffffffff16825f60405160240161956d92919061db94565b6040516020818303038152906040527f029b2f34000000000000000000000000000000000000000000000000000000007bffffffffffffffffffffffffffffffffffffffffffffffffffffffff19166020820180517bffffffffffffffffffffffffffffffffffffffffffffffffffffffff83818316178352505050506040516195f7919061d1bb565b5f604051808303815f865af19150503d805f8114619630576040519150601f19603f3d011682016040523d82523d5f602084013e619635565b606091505b505090508080156196bc5750828773ffffffffffffffffffffffffffffffffffffffff166370a08231306040518263ffffffff1660e01b815260040161967b919061bf42565b602060405180830381865afa158015619696573d5f5f3e3d5ffd5b505050506040513d601f19601f820116820180604052508101906196ba919061c448565b115b156196cf576001955050505050506198a5565b50505b6005831015619890576196e361bee1565b868185600581106196f7576196f661cf80565b5b6020020181815250505f8973ffffffffffffffffffffffffffffffffffffffff16825f60405160240161972b92919061dc3a565b6040516020818303038152906040527f84738499000000000000000000000000000000000000000000000000000000007bffffffffffffffffffffffffffffffffffffffffffffffffffffffff19166020820180517bffffffffffffffffffffffffffffffffffffffffffffffffffffffff83818316178352505050506040516197b5919061d1bb565b5f604051808303815f865af19150503d805f81146197ee576040519150601f19603f3d011682016040523d82523d5f602084013e6197f3565b606091505b5050905080801561987a5750828773ffffffffffffffffffffffffffffffffffffffff166370a08231306040518263ffffffff1660e01b8152600401619839919061bf42565b602060405180830381865afa158015619854573d5f5f3e3d5ffd5b505050506040513d601f19601f82011682018060405250810190619878919061c448565b115b1561988d576001955050505050506198a5565b50505b50505b80806001019150506190ce565b505f90505b949350505050565b5f5f73ffffffffffffffffffffffffffffffffffffffff16601c5f9054906101000a900473ffffffffffffffffffffffffffffffffffffffff1673ffffffffffffffffffffffffffffffffffffffff161480619976575060195f9054906101000a900473ffffffffffffffffffffffffffffffffffffffff1673ffffffffffffffffffffffffffffffffffffffff16601c5f9054906101000a900473ffffffffffffffffffffffffffffffffffffffff1673ffffffffffffffffffffffffffffffffffffffff16145b15619983575f9050619cc0565b5f601c5f9054906101000a900473ffffffffffffffffffffffffffffffffffffffff1673ffffffffffffffffffffffffffffffffffffffff166370a08231306040518263ffffffff1660e01b81526004016199de919061bf42565b602060405180830381865afa1580156199f9573d5f5f3e3d5ffd5b505050506040513d601f19601f82011682018060405250810190619a1d919061c448565b90505f8103619a2f575f915050619cc0565b619a7c601c5f9054906101000a900473ffffffffffffffffffffffffffffffffffffffff1660195f9054906101000a900473ffffffffffffffffffffffffffffffffffffffff16836165d4565b5f60195f9054906101000a900473ffffffffffffffffffffffffffffffffffffffff1673ffffffffffffffffffffffffffffffffffffffff166370a08231306040518263ffffffff1660e01b8152600401619ad7919061bf42565b602060405180830381865afa158015619af2573d5f5f3e3d5ffd5b505050506040513d601f19601f82011682018060405250810190619b16919061c448565b905060195f9054906101000a900473ffffffffffffffffffffffffffffffffffffffff1673ffffffffffffffffffffffffffffffffffffffff16633969dfb460e01b83604051602401619b69919061c102565b604051602081830303815290604052907bffffffffffffffffffffffffffffffffffffffffffffffffffffffff19166020820180517bffffffffffffffffffffffffffffffffffffffffffffffffffffffff8381831617835250505050604051619bd3919061d1bb565b5f604051808303815f865af19150503d805f8114619c0c576040519150601f19603f3d011682016040523d82523d5f602084013e619c11565b606091505b505080935050828015619cbb57508060195f9054906101000a900473ffffffffffffffffffffffffffffffffffffffff1673ffffffffffffffffffffffffffffffffffffffff166370a08231306040518263ffffffff1660e01b8152600401619c7a919061bf42565b602060405180830381865afa158015619c95573d5f5f3e3d5ffd5b505050506040513d601f19601f82011682018060405250810190619cb9919061c448565b115b925050505b90565b5f5f73ffffffffffffffffffffffffffffffffffffffff16601c5f9054906101000a900473ffffffffffffffffffffffffffffffffffffffff1673ffffffffffffffffffffffffffffffffffffffff161480619d6b57505f73ffffffffffffffffffffffffffffffffffffffff16601b5f9054906101000a900473ffffffffffffffffffffffffffffffffffffffff1673ffffffffffffffffffffffffffffffffffffffff16145b80619de35750601b5f9054906101000a900473ffffffffffffffffffffffffffffffffffffffff1673ffffffffffffffffffffffffffffffffffffffff16601c5f9054906101000a900473ffffffffffffffffffffffffffffffffffffffff1673ffffffffffffffffffffffffffffffffffffffff16145b15619df0575f905061a264565b5f601c5f9054906101000a900473ffffffffffffffffffffffffffffffffffffffff1673ffffffffffffffffffffffffffffffffffffffff166370a08231306040518263ffffffff1660e01b8152600401619e4b919061bf42565b602060405180830381865afa158015619e66573d5f5f3e3d5ffd5b505050506040513d601f19601f82011682018060405250810190619e8a919061c448565b90505f8103619e9c575f91505061a264565b619ee9601c5f9054906101000a900473ffffffffffffffffffffffffffffffffffffffff16601b5f9054906101000a900473ffffffffffffffffffffffffffffffffffffffff16836165d4565b5f601b5f9054906101000a900473ffffffffffffffffffffffffffffffffffffffff1673ffffffffffffffffffffffffffffffffffffffff166370a08231306040518263ffffffff1660e01b8152600401619f44919061bf42565b602060405180830381865afa158015619f5f573d5f5f3e3d5ffd5b505050506040513d601f19601f82011682018060405250810190619f83919061c448565b9050601b5f9054906101000a900473ffffffffffffffffffffffffffffffffffffffff1673ffffffffffffffffffffffffffffffffffffffff1682604051602401619fce919061c102565b6040516020818303038152906040527fb6b55f25000000000000000000000000000000000000000000000000000000007bffffffffffffffffffffffffffffffffffffffffffffffffffffffff19166020820180517bffffffffffffffffffffffffffffffffffffffffffffffffffffffff838183161783525050505060405161a058919061d1bb565b5f604051808303815f865af19150503d805f811461a091576040519150601f19603f3d011682016040523d82523d5f602084013e61a096565b606091505b5050809350508261a1bb57601b5f9054906101000a900473ffffffffffffffffffffffffffffffffffffffff1673ffffffffffffffffffffffffffffffffffffffff16823060405160240161a0ec92919061dc61565b6040516020818303038152906040527f6e553f65000000000000000000000000000000000000000000000000000000007bffffffffffffffffffffffffffffffffffffffffffffffffffffffff19166020820180517bffffffffffffffffffffffffffffffffffffffffffffffffffffffff838183161783525050505060405161a176919061d1bb565b5f604051808303815f865af19150503d805f811461a1af576040519150601f19603f3d011682016040523d82523d5f602084013e61a1b4565b606091505b5050809350505b82801561a25f575080601b5f9054906101000a900473ffffffffffffffffffffffffffffffffffffffff1673ffffffffffffffffffffffffffffffffffffffff166370a08231306040518263ffffffff1660e01b815260040161a21e919061bf42565b602060405180830381865afa15801561a239573d5f5f3e3d5ffd5b505050506040513d601f19601f8201168201806040525081019061a25d919061c448565b115b925050505b90565b5f5f73ffffffffffffffffffffffffffffffffffffffff16601b5f9054906101000a900473ffffffffffffffffffffffffffffffffffffffff1673ffffffffffffffffffffffffffffffffffffffff16148061a330575060195f9054906101000a900473ffffffffffffffffffffffffffffffffffffffff1673ffffffffffffffffffffffffffffffffffffffff16601b5f9054906101000a900473ffffffffffffffffffffffffffffffffffffffff1673ffffffffffffffffffffffffffffffffffffffff16145b1561a33d575f905061a6c4565b5f601b5f9054906101000a900473ffffffffffffffffffffffffffffffffffffffff1673ffffffffffffffffffffffffffffffffffffffff166370a08231306040518263ffffffff1660e01b815260040161a398919061bf42565b602060405180830381865afa15801561a3b3573d5f5f3e3d5ffd5b505050506040513d601f19601f8201168201806040525081019061a3d7919061c448565b90505f810361a3e9575f91505061a6c4565b61a436601b5f9054906101000a900473ffffffffffffffffffffffffffffffffffffffff1660195f9054906101000a900473ffffffffffffffffffffffffffffffffffffffff16836165d4565b5f60195f9054906101000a900473ffffffffffffffffffffffffffffffffffffffff1673ffffffffffffffffffffffffffffffffffffffff166370a08231306040518263ffffffff1660e01b815260040161a491919061bf42565b602060405180830381865afa15801561a4ac573d5f5f3e3d5ffd5b505050506040513d601f19601f8201168201806040525081019061a4d0919061c448565b905061a5698260405160240161a4e6919061c102565b6040516020818303038152906040527fb6b55f25000000000000000000000000000000000000000000000000000000007bffffffffffffffffffffffffffffffffffffffffffffffffffffffff19166020820180517bffffffffffffffffffffffffffffffffffffffffffffffffffffffff83818316178352505050508261b699565b9250821561a57c5760019250505061a6c4565b61a615823060405160240161a59292919061dc61565b6040516020818303038152906040527f6e553f65000000000000000000000000000000000000000000000000000000007bffffffffffffffffffffffffffffffffffffffffffffffffffffffff19166020820180517bffffffffffffffffffffffffffffffffffffffffffffffffffffffff83818316178352505050508261b699565b9250821561a6285760019250505061a6c4565b61a6bf8260405160240161a63c919061c102565b6040516020818303038152906040527fa694fc3a000000000000000000000000000000000000000000000000000000007bffffffffffffffffffffffffffffffffffffffffffffffffffffffff19166020820180517bffffffffffffffffffffffffffffffffffffffffffffffffffffffff83818316178352505050508261b699565b925050505b90565b5f5f5f5f5f5f5f5f8873ffffffffffffffffffffffffffffffffffffffff16630dfe168160e01b604051602401604051602081830303815290604052907bffffffffffffffffffffffffffffffffffffffffffffffffffffffff19166020820180517bffffffffffffffffffffffffffffffffffffffffffffffffffffffff838183161783525050505060405161a75e919061d1bb565b5f60405180830381855afa9150503d805f811461a796576040519150601f19603f3d011682016040523d82523d5f602084013e61a79b565b606091505b50915091505f5f8a73ffffffffffffffffffffffffffffffffffffffff1663d21220a760e01b604051602401604051602081830303815290604052907bffffffffffffffffffffffffffffffffffffffffffffffffffffffff19166020820180517bffffffffffffffffffffffffffffffffffffffffffffffffffffffff838183161783525050505060405161a831919061d1bb565b5f60405180830381855afa9150503d805f811461a869576040519150601f19603f3d011682016040523d82523d5f602084013e61a86e565b606091505b50915091505f5f8c73ffffffffffffffffffffffffffffffffffffffff16630902f1ac60e01b604051602401604051602081830303815290604052907bffffffffffffffffffffffffffffffffffffffffffffffffffffffff19166020820180517bffffffffffffffffffffffffffffffffffffffffffffffffffffffff838183161783525050505060405161a904919061d1bb565b5f60405180830381855afa9150503d805f811461a93c576040519150601f19603f3d011682016040523d82523d5f602084013e61a941565b606091505b50915091505f5f8e73ffffffffffffffffffffffffffffffffffffffff166318160ddd60e01b604051602401604051602081830303815290604052907bffffffffffffffffffffffffffffffffffffffffffffffffffffffff19166020820180517bffffffffffffffffffffffffffffffffffffffffffffffffffffffff838183161783525050505060405161a9d7919061d1bb565b5f60405180830381855afa9150503d805f811461aa0f576040519150601f19603f3d011682016040523d82523d5f602084013e61aa14565b606091505b509150915087158061aa24575085155b8061aa2d575083155b8061aa36575081155b1561aa5a575f5f5f5f5f5f9d509d509d509d509d509d50505050505050505061ab79565b60208751108061aa6b575060208551105b8061aa77575060608351105b8061aa83575060208151105b1561aaa7575f5f5f5f5f5f9d509d509d509d509d509d50505050505050505061ab79565b8680602001905181019061aabb919061d6f4565b9c508480602001905181019061aad1919061d6f4565b9b508280602001905181019061aae7919061dd04565b50809b50819c5050508080602001905181019061ab04919061c448565b98505f73ffffffffffffffffffffffffffffffffffffffff168d73ffffffffffffffffffffffffffffffffffffffff161415801561ab6e57505f73ffffffffffffffffffffffffffffffffffffffff168c73ffffffffffffffffffffffffffffffffffffffff1614155b9d5050505050505050505b91939550919395565b5f5f831461abb35760018260018561ab9a919061cc11565b61aba4919061d89d565b61abae919061c4a0565b61abb5565b5f5b905092915050565b5f5f8373ffffffffffffffffffffffffffffffffffffffff166370a08231306040518263ffffffff1660e01b815260040161abf8919061bf42565b602060405180830381865afa15801561ac13573d5f5f3e3d5ffd5b505050506040513d601f19601f8201168201806040525081019061ac37919061c448565b905082811061ac4a57600191505061ae0a565b7399d8a9c45b2eca8864373a26d1459e3dff1e17f373ffffffffffffffffffffffffffffffffffffffff168473ffffffffffffffffffffffffffffffffffffffff160361ad2857827399d8a9c45b2eca8864373a26d1459e3dff1e17f373ffffffffffffffffffffffffffffffffffffffff166370a08231306040518263ffffffff1660e01b815260040161acdf919061bf42565b602060405180830381865afa15801561acfa573d5f5f3e3d5ffd5b505050506040513d601f19601f8201168201806040525081019061ad1e919061c448565b101591505061ae0a565b5f7399d8a9c45b2eca8864373a26d1459e3dff1e17f373ffffffffffffffffffffffffffffffffffffffff166370a08231306040518263ffffffff1660e01b815260040161ad76919061bf42565b602060405180830381865afa15801561ad91573d5f5f3e3d5ffd5b505050506040513d601f19601f8201168201806040525081019061adb5919061c448565b905067016345785d8a0000811161add0575f9250505061ae0a565b5f67016345785d8a00008261ade5919061cc11565b90505f810361adf9575f935050505061ae0a565b61ae0486868361b7d0565b93505050505b92915050565b5f5f73ffffffffffffffffffffffffffffffffffffffff16601a5f9054906101000a900473ffffffffffffffffffffffffffffffffffffffff1673ffffffffffffffffffffffffffffffffffffffff16148061aed9575060195f9054906101000a900473ffffffffffffffffffffffffffffffffffffffff1673ffffffffffffffffffffffffffffffffffffffff16601a5f9054906101000a900473ffffffffffffffffffffffffffffffffffffffff1673ffffffffffffffffffffffffffffffffffffffff16145b1561aee6575f905061b3c1565b5f601a5f9054906101000a900473ffffffffffffffffffffffffffffffffffffffff1673ffffffffffffffffffffffffffffffffffffffff166370a08231306040518263ffffffff1660e01b815260040161af41919061bf42565b602060405180830381865afa15801561af5c573d5f5f3e3d5ffd5b505050506040513d601f19601f8201168201806040525081019061af80919061c448565b90505f810361af92575f91505061b3c1565b61afdf601a5f9054906101000a900473ffffffffffffffffffffffffffffffffffffffff1660195f9054906101000a900473ffffffffffffffffffffffffffffffffffffffff16836165d4565b5f60195f9054906101000a900473ffffffffffffffffffffffffffffffffffffffff1673ffffffffffffffffffffffffffffffffffffffff166370a08231306040518263ffffffff1660e01b815260040161b03a919061bf42565b602060405180830381865afa15801561b055573d5f5f3e3d5ffd5b505050506040513d601f19601f8201168201806040525081019061b079919061c448565b905061b1128260405160240161b08f919061c102565b6040516020818303038152906040527fa59f3e0c000000000000000000000000000000000000000000000000000000007bffffffffffffffffffffffffffffffffffffffffffffffffffffffff19166020820180517bffffffffffffffffffffffffffffffffffffffffffffffffffffffff83818316178352505050508261b699565b9250821561b1255760019250505061b3c1565b61b1bc8260405160240161b139919061c102565b6040516020818303038152906040527fea598cb0000000000000000000000000000000000000000000000000000000007bffffffffffffffffffffffffffffffffffffffffffffffffffffffff19166020820180517bffffffffffffffffffffffffffffffffffffffffffffffffffffffff83818316178352505050508261b699565b9250821561b1cf5760019250505061b3c1565b61b268823060405160240161b1e592919061dc61565b6040516020818303038152906040527f6e553f65000000000000000000000000000000000000000000000000000000007bffffffffffffffffffffffffffffffffffffffffffffffffffffffff19166020820180517bffffffffffffffffffffffffffffffffffffffffffffffffffffffff83818316178352505050508261b699565b9250821561b27b5760019250505061b3c1565b61b3128260405160240161b28f919061c102565b6040516020818303038152906040527fb6b55f25000000000000000000000000000000000000000000000000000000007bffffffffffffffffffffffffffffffffffffffffffffffffffffffff19166020820180517bffffffffffffffffffffffffffffffffffffffffffffffffffffffff83818316178352505050508261b699565b9250821561b3255760019250505061b3c1565b61b3bc8260405160240161b339919061c102565b6040516020818303038152906040527fa694fc3a000000000000000000000000000000000000000000000000000000007bffffffffffffffffffffffffffffffffffffffffffffffffffffffff19166020820180517bffffffffffffffffffffffffffffffffffffffffffffffffffffffff83818316178352505050508261b699565b925050505b90565b5f5f83148061b3d257505f82145b1561b3df575f905061b523565b8573ffffffffffffffffffffffffffffffffffffffff16638803dbee84848830426040518663ffffffff1660e01b815260040161b42095949392919061dd54565b5f604051808303815f875af192505050801561b45e57506040513d5f823e3d601f19601f8201168201806040525081019061b45b919061d829565b60015b61b46a575f905061b522565b5f81511415801561b51e5750838561b482919061c4a0565b60195f9054906101000a900473ffffffffffffffffffffffffffffffffffffffff1673ffffffffffffffffffffffffffffffffffffffff166370a08231306040518263ffffffff1660e01b815260040161b4dc919061bf42565b602060405180830381865afa15801561b4f7573d5f5f3e3d5ffd5b505050506040513d601f19601f8201168201806040525081019061b51b919061c448565b10155b9150505b5b95945050505050565b5f61b5c4838360405160240161b542919061c102565b6040516020818303038152906040527fc6610657000000000000000000000000000000000000000000000000000000007bffffffffffffffffffffffffffffffffffffffffffffffffffffffff19166020820180517bffffffffffffffffffffffffffffffffffffffffffffffffffffffff8381831617835250505050616537565b90505f73ffffffffffffffffffffffffffffffffffffffff168173ffffffffffffffffffffffffffffffffffffffff160361b6935761b690838360405160240161b60e919061c102565b6040516020818303038152906040527fb9947eb0000000000000000000000000000000000000000000000000000000007bffffffffffffffffffffffffffffffffffffffffffffffffffffffff19166020820180517bffffffffffffffffffffffffffffffffffffffffffffffffffffffff8381831617835250505050616537565b90505b92915050565b5f60195f9054906101000a900473ffffffffffffffffffffffffffffffffffffffff1673ffffffffffffffffffffffffffffffffffffffff168360405161b6e0919061d1bb565b5f604051808303815f865af19150503d805f811461b719576040519150601f19603f3d011682016040523d82523d5f602084013e61b71e565b606091505b50508091505080801561b7c857508160195f9054906101000a900473ffffffffffffffffffffffffffffffffffffffff1673ffffffffffffffffffffffffffffffffffffffff166370a08231306040518263ffffffff1660e01b815260040161b787919061bf42565b602060405180830381865afa15801561b7a2573d5f5f3e3d5ffd5b505050506040513d601f19601f8201168201806040525081019061b7c6919061c448565b115b905092915050565b5f5f830361b7e1576001905061bd1f565b5f8473ffffffffffffffffffffffffffffffffffffffff166370a08231306040518263ffffffff1660e01b815260040161b81b919061bf42565b602060405180830381865afa15801561b836573d5f5f3e3d5ffd5b505050506040513d601f19601f8201168201806040525081019061b85a919061c448565b905083811061b86d57600191505061bd1f565b5f818561b87a919061cc11565b90507399d8a9c45b2eca8864373a26d1459e3dff1e17f373ffffffffffffffffffffffffffffffffffffffff168673ffffffffffffffffffffffffffffffffffffffff160361b95b57847399d8a9c45b2eca8864373a26d1459e3dff1e17f373ffffffffffffffffffffffffffffffffffffffff166370a08231306040518263ffffffff1660e01b815260040161b911919061bf42565b602060405180830381865afa15801561b92c573d5f5f3e3d5ffd5b505050506040513d601f19601f8201168201806040525081019061b950919061c448565b10159250505061bd1f565b61b99a73d9e1ce17f2641f24ae83637ab66a2cca9c378b9f61b9917399d8a9c45b2eca8864373a26d1459e3dff1e17f389616679565b8885858961bd26565b1561b9aa5760019250505061bd1f565b61b9fe73d9e1ce17f2641f24ae83637ab66a2cca9c378b9f61b9f57399d8a9c45b2eca8864373a26d1459e3dff1e17f373c02aaa39b223fe8d0a0e5c4f27ead9083c756cc28a6168ad565b8885858961bd26565b1561ba0e5760019250505061bd1f565b61ba6273d9e1ce17f2641f24ae83637ab66a2cca9c378b9f61ba597399d8a9c45b2eca8864373a26d1459e3dff1e17f373dac17f958d2ee523a2206206994597c13d831ec78a6168ad565b8885858961bd26565b1561ba725760019250505061bd1f565b61bac673d9e1ce17f2641f24ae83637ab66a2cca9c378b9f61babd7399d8a9c45b2eca8864373a26d1459e3dff1e17f373a0b86991c6218b36c1d19d4a2e9eb0ce3606eb488a6168ad565b8885858961bd26565b1561bad65760019250505061bd1f565b61bb2a73d9e1ce17f2641f24ae83637ab66a2cca9c378b9f61bb217399d8a9c45b2eca8864373a26d1459e3dff1e17f3736b175474e89094c44da98b954eedeac495271d0f8a6168ad565b8885858961bd26565b1561bb3a5760019250505061bd1f565b61bb79737a250d5630b4cf539739df2c5dacb4c659f2488d61bb707399d8a9c45b2eca8864373a26d1459e3dff1e17f389616679565b8885858961bd26565b1561bb895760019250505061bd1f565b61bbdd737a250d5630b4cf539739df2c5dacb4c659f2488d61bbd47399d8a9c45b2eca8864373a26d1459e3dff1e17f373c02aaa39b223fe8d0a0e5c4f27ead9083c756cc28a6168ad565b8885858961bd26565b1561bbed5760019250505061bd1f565b61bc41737a250d5630b4cf539739df2c5dacb4c659f2488d61bc387399d8a9c45b2eca8864373a26d1459e3dff1e17f373dac17f958d2ee523a2206206994597c13d831ec78a6168ad565b8885858961bd26565b1561bc515760019250505061bd1f565b61bca5737a250d5630b4cf539739df2c5dacb4c659f2488d61bc9c7399d8a9c45b2eca8864373a26d1459e3dff1e17f373a0b86991c6218b36c1d19d4a2e9eb0ce3606eb488a6168ad565b8885858961bd26565b1561bcb55760019250505061bd1f565b61bd09737a250d5630b4cf539739df2c5dacb4c659f2488d61bd007399d8a9c45b2eca8864373a26d1459e3dff1e17f3736b175474e89094c44da98b954eedeac495271d0f8a6168ad565b8885858961bd26565b1561bd195760019250505061bd1f565b5f925050505b9392505050565b5f5f83148061bd3457505f82145b1561bd41575f905061be64565b8673ffffffffffffffffffffffffffffffffffffffff16638803dbee84848930426040518663ffffffff1660e01b815260040161bd8295949392919061dd54565b5f604051808303815f875af192505050801561bdc057506040513d5f823e3d601f19601f8201168201806040525081019061bdbd919061d829565b60015b61bdcc575f905061be63565b5f81511415801561be5f5750838561bde4919061c4a0565b8673ffffffffffffffffffffffffffffffffffffffff166370a08231306040518263ffffffff1660e01b815260040161be1d919061bf42565b602060405180830381865afa15801561be38573d5f5f3e3d5ffd5b505050506040513d601f19601f8201168201806040525081019061be5c919061c448565b10155b9150505b5b9695505050505050565b6102018061ddad83390190565b6040518060400160405280600290602082028036833780820191505090505090565b6040518060600160405280600390602082028036833780820191505090505090565b6040518060800160405280600490602082028036833780820191505090505090565b6040518060a00160405280600590602082028036833780820191505090505090565b5f73ffffffffffffffffffffffffffffffffffffffff82169050919050565b5f61bf2c8261bf03565b9050919050565b61bf3c8161bf22565b82525050565b5f60208201905061bf555f83018461bf33565b92915050565b5f604051905090565b5f5ffd5b5f5ffd5b61bf758161bf22565b811461bf7f575f5ffd5b50565b5f8135905061bf908161bf6c565b92915050565b5f819050919050565b61bfa88161bf96565b811461bfb2575f5ffd5b50565b5f8135905061bfc38161bf9f565b92915050565b5f5ffd5b5f5ffd5b5f5ffd5b5f5f83601f84011261bfea5761bfe961bfc9565b5b8235905067ffffffffffffffff81111561c0075761c00661bfcd565b5b60208301915083600182028301111561c0235761c02261bfd1565b5b9250929050565b5f5f5f5f5f5f60a0878903121561c0445761c04361bf64565b5b5f61c05189828a0161bf82565b965050602061c06289828a0161bf82565b955050604061c07389828a0161bfb5565b945050606061c08489828a0161bfb5565b935050608087013567ffffffffffffffff81111561c0a55761c0a461bf68565b5b61c0b189828a0161bfd5565b92509250509295509295509295565b5f8115159050919050565b61c0d48161c0c0565b82525050565b5f60208201905061c0ed5f83018461c0cb565b92915050565b61c0fc8161bf96565b82525050565b5f60208201905061c1155f83018461c0f3565b92915050565b5f819050919050565b61c12d8161c11b565b82525050565b5f60208201905061c1465f83018461c124565b92915050565b5f81519050919050565b5f82825260208201905092915050565b8281835e5f83830152505050565b5f601f19601f8301169050919050565b5f61c18e8261c14c565b61c198818561c156565b935061c1a881856020860161c166565b61c1b18161c174565b840191505092915050565b5f6020820190508181035f83015261c1d4818461c184565b905092915050565b5f82825260208201905092915050565b7f6261642d62656e746f00000000000000000000000000000000000000000000005f82015250565b5f61c22060098361c1dc565b915061c22b8261c1ec565b602082019050919050565b5f6020820190508181035f83015261c24d8161c214565b9050919050565b7f6261642d73656e646572000000000000000000000000000000000000000000005f82015250565b5f61c288600a8361c1dc565b915061c2938261c254565b602082019050919050565b5f6020820190508181035f83015261c2b58161c27c565b9050919050565b7f6261642d746f6b656e00000000000000000000000000000000000000000000005f82015250565b5f61c2f060098361c1dc565b915061c2fb8261c2bc565b602082019050919050565b5f6020820190508181035f83015261c31d8161c2e4565b9050919050565b7f4e487b71000000000000000000000000000000000000000000000000000000005f52602260045260245ffd5b5f600282049050600182168061c36857607f821691505b60208210810361c37b5761c37a61c324565b5b50919050565b5f819050919050565b5f61c3a461c39f61c39a8461bf03565b61c381565b61bf03565b9050919050565b5f61c3b58261c38a565b9050919050565b5f61c3c68261c3ab565b9050919050565b61c3d68161c3bc565b82525050565b5f60a08201905061c3ef5f83018861c3cd565b61c3fc602083018761bf33565b61c409604083018661bf33565b61c416606083018561c0f3565b818103608083015261c428818461c184565b90509695505050505050565b5f8151905061c4428161bf9f565b92915050565b5f6020828403121561c45d5761c45c61bf64565b5b5f61c46a8482850161c434565b91505092915050565b7f4e487b71000000000000000000000000000000000000000000000000000000005f52601160045260245ffd5b5f61c4aa8261bf96565b915061c4b58361bf96565b925082820190508082111561c4cd5761c4cc61c473565b5b92915050565b7f696e73756666696369656e742d636f6c6c61746572616c2d72657061790000005f82015250565b5f61c507601d8361c1dc565b915061c5128261c4d3565b602082019050919050565b5f6020820190508181035f83015261c5348161c4fb565b9050919050565b7f756e65787065637465642d6d696d2d666c6173680000000000000000000000005f82015250565b5f61c56f60148361c1dc565b915061c57a8261c53b565b602082019050919050565b5f6020820190508181035f83015261c59c8161c563565b9050919050565b5f819050919050565b5f61c5c661c5c161c5bc8461c5a3565b61c381565b61bf96565b9050919050565b61c5d68161c5ac565b82525050565b5f60a08201905061c5ef5f83018861bf33565b61c5fc602083018761bf33565b61c609604083018661bf33565b61c616606083018561c0f3565b61c623608083018461c5cd565b9695505050505050565b5f5f6040838503121561c6435761c64261bf64565b5b5f61c6508582860161c434565b925050602061c6618582860161c434565b9150509250929050565b7f7a65726f2d6d696d2d736565642d7368617265000000000000000000000000005f82015250565b5f61c69f60138361c1dc565b915061c6aa8261c66b565b602082019050919050565b5f6020820190508181035f83015261c6cc8161c693565b9050919050565b7f696e73756666696369656e742d6d696d2d6665650000000000000000000000005f82015250565b5f61c70760148361c1dc565b915061c7128261c6d3565b602082019050919050565b5f6020820190508181035f83015261c7348161c6fb565b9050919050565b5f8151905061c7498161bf6c565b92915050565b5f6020828403121561c7645761c76361bf64565b5b5f61c7718482850161c73b565b91505092915050565b5f5ffd5b7f4e487b71000000000000000000000000000000000000000000000000000000005f52604160045260245ffd5b61c7b48261c174565b810181811067ffffffffffffffff8211171561c7d35761c7d261c77e565b5b80604052505050565b5f61c7e561bf5b565b905061c7f1828261c7ab565b919050565b5f67ffffffffffffffff82111561c8105761c80f61c77e565b5b61c8198261c174565b9050602081019050919050565b5f61c83861c8338461c7f6565b61c7dc565b90508281526020810184848401111561c8545761c85361c77a565b5b61c85f84828561c166565b509392505050565b5f82601f83011261c87b5761c87a61bfc9565b5b815161c88b84826020860161c826565b91505092915050565b5f6020828403121561c8a95761c8a861bf64565b5b5f82015167ffffffffffffffff81111561c8c65761c8c561bf68565b5b61c8d28482850161c867565b91505092915050565b5f819050815f5260205f209050919050565b5f6020601f8301049050919050565b5f82821b905092915050565b5f6008830261c9377fffffffffffffffffffffffffffffffffffffffffffffffffffffffffffffffff8261c8fc565b61c941868361c8fc565b95508019841693508086168417925050509392505050565b5f61c97361c96e61c9698461bf96565b61c381565b61bf96565b9050919050565b5f819050919050565b61c98c8361c959565b61c9a061c9988261c97a565b84845461c908565b825550505050565b5f5f905090565b61c9b761c9a8565b61c9c281848461c983565b505050565b5b8181101561c9e55761c9da5f8261c9af565b60018101905061c9c8565b5050565b601f82111561ca2a5761c9fb8161c8db565b61ca048461c8ed565b8101602085101561ca13578190505b61ca2761ca1f8561c8ed565b83018261c9c7565b50505b505050565b5f82821c905092915050565b5f61ca4a5f198460080261ca2f565b1980831691505092915050565b5f61ca62838361ca3b565b9150826002028217905092915050565b61ca7b8261c14c565b67ffffffffffffffff81111561ca945761ca9361c77e565b5b61ca9e825461c351565b61caa982828561c9e9565b5f60209050601f83116001811461cada575f841561cac8578287015190505b61cad2858261ca57565b86555061cb39565b601f19841661cae88661c8db565b5f5b8281101561cb0f5784890151825560018201915060208501945060208101905061caea565b8683101561cb2c578489015161cb28601f89168261ca3b565b8355505b6001600288020188555050505b505050505050565b61cb4a8161c0c0565b811461cb54575f5ffd5b50565b5f8151905061cb658161cb41565b92915050565b5f5f6040838503121561cb815761cb8061bf64565b5b5f61cb8e8582860161cb57565b925050602061cb9f8582860161c434565b9150509250929050565b7f7a65726f2d726174652d6e6f742d6361636865640000000000000000000000005f82015250565b5f61cbdd60148361c1dc565b915061cbe88261cba9565b602082019050919050565b5f6020820190508181035f83015261cc0a8161cbd1565b9050919050565b5f61cc1b8261bf96565b915061cc268361bf96565b925082820390508181111561cc3e5761cc3d61c473565b5b92915050565b7f636f6c6c61746572616c2d6665652d746f6f2d6c6172676500000000000000005f82015250565b5f61cc7860188361c1dc565b915061cc838261cc44565b602082019050919050565b5f6020820190508181035f83015261cca58161cc6c565b9050919050565b7f647573742d73686172652d7a65726f00000000000000000000000000000000005f82015250565b5f61cce0600f8361c1dc565b915061cceb8261ccac565b602082019050919050565b5f6020820190508181035f83015261cd0d8161ccd4565b9050919050565b5f60608201905061cd275f83018661bf33565b61cd34602083018561c0cb565b61cd41604083018461c0f3565b949350505050565b5f60408201905061cd5c5f83018561bf33565b61cd69602083018461bf33565b9392505050565b5f60608201905061cd835f83018661bf33565b61cd90602083018561c0f3565b61cd9d604083018461c0cb565b949350505050565b7f6e6f2d6d696d2d6c6971756964697479000000000000000000000000000000005f82015250565b5f61cdd960108361c1dc565b915061cde48261cda5565b602082019050919050565b5f6020820190508181035f83015261ce068161cdcd565b9050919050565b5f60408201905061ce205f83018561bf33565b61ce2d602083018461c0f3565b9392505050565b5f60a08201905061ce475f83018861bf33565b61ce54602083018761bf33565b61ce61604083018661bf33565b61ce6e606083018561c5cd565b61ce7b608083018461c0f3565b9695505050505050565b5f6020828403121561ce9a5761ce9961bf64565b5b5f61cea78482850161cb57565b91505092915050565b7f72656d6f76652d636f6c6c61746572616c2d73746167652d6d697373656400005f82015250565b5f61cee4601e8361c1dc565b915061ceef8261ceb0565b602082019050919050565b5f6020820190508181035f83015261cf118161ced8565b9050919050565b7f636f6c6c61746572616c2d746f7075702d6661696c65640000000000000000005f82015250565b5f61cf4c60178361c1dc565b915061cf578261cf18565b602082019050919050565b5f6020820190508181035f83015261cf798161cf40565b9050919050565b7f4e487b71000000000000000000000000000000000000000000000000000000005f52603260045260245ffd5b5f81519050919050565b5f82825260208201905092915050565b5f819050602082019050919050565b61cfdf8161bf22565b82525050565b5f61cff0838361cfd6565b60208301905092915050565b5f602082019050919050565b5f61d0128261cfad565b61d01c818561cfb7565b935061d0278361cfc7565b805f5b8381101561d05757815161d03e888261cfe5565b975061d0498361cffc565b92505060018101905061d02a565b5085935050505092915050565b5f81519050919050565b5f82825260208201905092915050565b5f819050602082019050919050565b61d0968161bf96565b82525050565b5f61d0a7838361d08d565b60208301905092915050565b5f602082019050919050565b5f61d0c98261d064565b61d0d3818561d06e565b935061d0de8361d07e565b805f5b8381101561d10e57815161d0f5888261d09c565b975061d1008361d0b3565b92505060018101905061d0e1565b5085935050505092915050565b5f60a0820190508181035f83015261d133818861d008565b9050818103602083015261d147818761d0bf565b905061d156604083018661bf33565b61d163606083018561bf33565b818103608083015261d175818461c184565b90509695505050505050565b5f81905092915050565b5f61d1958261c14c565b61d19f818561d181565b935061d1af81856020860161c166565b80840191505092915050565b5f61d1c6828461d18b565b915081905092915050565b7f6c69717569646174696f6e2d6e6f742d626c6f636b65640000000000000000005f82015250565b5f61d20560178361c1dc565b915061d2108261d1d1565b602082019050919050565b5f6020820190508181035f83015261d2328161d1f9565b9050919050565b7f7472616e736665722d6661696c656400000000000000000000000000000000005f82015250565b5f61d26d600f8361c1dc565b915061d2788261d239565b602082019050919050565b5f6020820190508181035f83015261d29a8161d261565b9050919050565b5f61d2ab8261bf96565b91507fffffffffffffffffffffffffffffffffffffffffffffffffffffffffffffffff820361d2dd5761d2dc61c473565b5b600182019050919050565b5f815461d2f48161c351565b61d2fe818661c156565b9450600182165f811461d318576001811461d32e5761d360565b60ff19831686528115156020028601935061d360565b61d3378561c8db565b5f5b8381101561d3585781548189015260018201915060208101905061d339565b808801955050505b50505092915050565b5f6020820190508181035f83015261d381818461d2e8565b905092915050565b7f6d697373696e672d6d61737465720000000000000000000000000000000000005f82015250565b5f61d3bd600e8361c1dc565b915061d3c88261d389565b602082019050919050565b5f6020820190508181035f83015261d3ea8161d3b1565b9050919050565b5f67ffffffffffffffff82169050919050565b61d40d8161d3f1565b82525050565b5f60e08201905061d4265f83018a61bf33565b61d433602083018961bf33565b818103604083015261d445818861c184565b905061d454606083018761d404565b61d461608083018661c0f3565b61d46e60a083018561c0f3565b61d47b60c083018461c0f3565b98975050505050505050565b5f60608201905061d49a5f83018661bf33565b818103602083015261d4ac818561c184565b905061d4bb604083018461c0cb565b949350505050565b7f636c6f6e652d6465706c6f792d6661696c6564000000000000000000000000005f82015250565b5f61d4f760138361c1dc565b915061d5028261d4c3565b602082019050919050565b5f6020820190508181035f83015261d5248161d4eb565b9050919050565b7f696e69742d7a65726f2d726174652d6d697373696e67000000000000000000005f82015250565b5f61d55f60168361c1dc565b915061d56a8261d52b565b602082019050919050565b5f6020820190508181035f83015261d58c8161d553565b9050919050565b5f61d59d8261bf96565b915061d5a88361bf96565b925082820261d5b68161bf96565b9150828204841483151761d5cd5761d5cc61c473565b5b5092915050565b5f67ffffffffffffffff82111561d5ee5761d5ed61c77e565b5b61d5f78261c174565b9050602081019050919050565b5f61d61661d6118461d5d4565b61c7dc565b90508281526020810184848401111561d6325761d63161c77a565b5b61d63d84828561c166565b509392505050565b5f82601f83011261d6595761d65861bfc9565b5b815161d66984826020860161d604565b91505092915050565b5f6020828403121561d6875761d68661bf64565b5b5f82015167ffffffffffffffff81111561d6a45761d6a361bf68565b5b61d6b08482850161d645565b91505092915050565b5f61d6c38261bf03565b9050919050565b61d6d38161d6b9565b811461d6dd575f5ffd5b50565b5f8151905061d6ee8161d6ca565b92915050565b5f6020828403121561d7095761d70861bf64565b5b5f61d7168482850161d6e0565b91505092915050565b5f60808201905061d7325f83018761c5cd565b818103602083015261d744818661d008565b905061d753604083018561bf33565b61d760606083018461c0f3565b95945050505050565b5f67ffffffffffffffff82111561d7835761d78261c77e565b5b602082029050602081019050919050565b5f61d7a661d7a18461d769565b61c7dc565b9050808382526020820190506020840283018581111561d7c95761d7c861bfd1565b5b835b8181101561d7f2578061d7de888261c434565b84526020840193505060208101905061d7cb565b5050509392505050565b5f82601f83011261d8105761d80f61bfc9565b5b815161d82084826020860161d794565b91505092915050565b5f6020828403121561d83e5761d83d61bf64565b5b5f82015167ffffffffffffffff81111561d85b5761d85a61bf68565b5b61d8678482850161d7fc565b91505092915050565b7f4e487b71000000000000000000000000000000000000000000000000000000005f52601260045260245ffd5b5f61d8a78261bf96565b915061d8b28361bf96565b92508261d8c25761d8c161d870565b5b828204905092915050565b7f617070726f76652d6661696c65640000000000000000000000000000000000005f82015250565b5f61d901600e8361c1dc565b915061d90c8261d8cd565b602082019050919050565b5f6020820190508181035f83015261d92e8161d8f5565b9050919050565b5f60a08201905061d9485f83018861c0f3565b61d955602083018761c5cd565b818103604083015261d967818661d008565b905061d976606083018561bf33565b61d983608083018461c0f3565b9695505050505050565b5f60029050919050565b5f81905092915050565b5f819050919050565b5f602082019050919050565b61d9bf8161d98d565b61d9c9818461d997565b925061d9d48261d9a1565b805f5b8381101561da0457815161d9eb878261d09c565b965061d9f68361d9aa565b92505060018101905061d9d7565b505050505050565b5f60ff82169050919050565b5f61da3261da2d61da288461c5a3565b61c381565b61da0c565b9050919050565b61da428161da18565b82525050565b5f60608201905061da5b5f83018561d9b6565b61da68604083018461da39565b9392505050565b5f60039050919050565b5f81905092915050565b5f819050919050565b5f602082019050919050565b61daa18161da6f565b61daab818461da79565b925061dab68261da83565b805f5b8381101561dae657815161dacd878261d09c565b965061dad88361da8c565b92505060018101905061dab9565b505050505050565b5f60808201905061db015f83018561da98565b61db0e606083018461da39565b9392505050565b5f60049050919050565b5f81905092915050565b5f819050919050565b5f602082019050919050565b61db478161db15565b61db51818461db1f565b925061db5c8261db29565b805f5b8381101561db8c57815161db73878261d09c565b965061db7e8361db32565b92505060018101905061db5f565b505050505050565b5f60a08201905061dba75f83018561db3e565b61dbb4608083018461da39565b9392505050565b5f60059050919050565b5f81905092915050565b5f819050919050565b5f602082019050919050565b61dbed8161dbbb565b61dbf7818461dbc5565b925061dc028261dbcf565b805f5b8381101561dc3257815161dc19878261d09c565b965061dc248361dbd8565b92505060018101905061dc05565b505050505050565b5f60c08201905061dc4d5f83018561dbe4565b61dc5a60a083018461da39565b9392505050565b5f60408201905061dc745f83018561c0f3565b61dc81602083018461bf33565b9392505050565b5f6dffffffffffffffffffffffffffff82169050919050565b61dcaa8161dc88565b811461dcb4575f5ffd5b50565b5f8151905061dcc58161dca1565b92915050565b5f63ffffffff82169050919050565b61dce38161dccb565b811461dced575f5ffd5b50565b5f8151905061dcfe8161dcda565b92915050565b5f5f5f6060848603121561dd1b5761dd1a61bf64565b5b5f61dd288682870161dcb7565b935050602061dd398682870161dcb7565b925050604061dd4a8682870161dcf0565b9150509250925092565b5f60a08201905061dd675f83018861c0f3565b61dd74602083018761c0f3565b818103604083015261dd86818661d008565b905061dd95606083018561bf33565b61dda2608083018461c0f3565b969550505050505056fe6080604052348015600e575f5ffd5b506101e58061001c5f395ff3fe608060405234801561000f575f5ffd5b5060043610610029575f3560e01c8063d6d7d5251461002d575b5f5ffd5b6100476004803603810190610042919061010b565b61005e565b604051610055929190610188565b60405180910390f35b5f5f5f90505f5f9054906101000a900460ff166100965760015f5f6101000a81548160ff0219169083151502179055505f915061009b565b600191505b9250929050565b5f5ffd5b5f5ffd5b5f5ffd5b5f5ffd5b5f5ffd5b5f5f83601f8401126100cb576100ca6100aa565b5b8235905067ffffffffffffffff8111156100e8576100e76100ae565b5b602083019150836001820283011115610104576101036100b2565b5b9250929050565b5f5f60208385031215610121576101206100a2565b5b5f83013567ffffffffffffffff81111561013e5761013d6100a6565b5b61014a858286016100b6565b92509250509250929050565b5f8115159050919050565b61016a81610156565b82525050565b5f819050919050565b61018281610170565b82525050565b5f60408201905061019b5f830185610161565b6101a86020830184610179565b939250505056fea26469706673582212205e90b44cc5a854ac2f60795e1b3bb560e3af2f33d4722f48e564b75a04ba84aa64736f6c634300081e0033a26469706673582212200c8928f0f7a13c2ccd8e877f8caf5055e3b02a29acb56237f4ce44e38f027f9764736f6c634300081e0033","linkReferences":{}},"methodIdentifiers":{"DAI()":"e0bab4c4","MIM()":"daec383d","SUSHI_ROUTER()":"0c24f4fa","TARGET_CAULDRON()":"bd7a598c","UNISWAP_V2_ROUTER()":"a82ed9ec","USDC()":"89a30271","USDT()":"c54e44eb","WETH()":"ad5c4648","activeCauldron()":"981c88f7","addCollateralStageReached()":"8469ff16","bentoBoxAddress()":"eb77ff0f","borrowStageReached()":"7c27e19f","borrowedMimAmount()":"e7cda06d","borrowedMimShare()":"6208fdd8","collateralDepositAmount()":"72ea4809","collateralLeaveShare()":"e2708ebb","collateralLpDetected()":"f9d3cc05","collateralLpToken0()":"dbe7b09f","collateralLpToken1()":"f1f361a4","collateralShareAdded()":"4071084d","collateralToken()":"b2016bd4","collateralTopUpAmount()":"a3bb46dd","collateralTopUpSpentMim()":"5bf39ab9","convexDepositToken()":"5eb143ce","curveLpToken()":"646780df","curvePool()":"218751b2","directOracleRate()":"6d02b5ca","directOracleSuccess()":"a8b81f55","execute()":"61461954","executeOnOpportunity()":"3c2448ed","exploit()":"63d9b770","feeBufferBought()":"d87bf97f","flashCollateralAmount()":"892d0bd2","flashCollateralFee()":"5a6e402b","flashMimAmount()":"e6687f05","flashMimFee()":"4af5e4e6","grossMimBalance()":"95458914","hypothesisRefuted()":"495f92f1","hypothesisValidated()":"463defd1","infeasibleReason()":"a6652157","liquidateStageReached()":"9348a238","liquidationBlocked()":"b7021f77","liveTargetCachedZero()":"b40d2e98","liveTargetInitPathOnly()":"cf30cf7b","liveTargetUpdateZeroWorked()":"ace5cb58","liveTargetZeroRateMissing()":"ea544593","liveUpdateRate()":"de02cfdf","liveUpdateReturnedUpdated()":"fcafc319","liveUpdateWorked()":"8f310cf0","mimLiquiditySeededShare()":"810c7a40","onFlashLoan(address,address,uint256,uint256,bytes)":"23e30c8b","oracleAddress()":"a89ae4ba","oracleDataBlob()":"e3fc037b","oracleStageReached()":"e8c28fee","path0LiveOracleZeroObserved()":"552fd94a","path1ZeroExchangeRateCached()":"62d2c266","path2DustCollateralAddedAndBorrowed()":"37fc9399","path3ResidualCollateralBlocksLiquidation()":"69ffcac6","postBorrowSolvent()":"d5b5a557","profitAmount()":"5ff972cc","profitToken()":"49343624","removeCollateralStageReached()":"8594a2fb","run()":"c0406226","selectedTarget()":"2edf00fb","stage_add_collateral()":"cde2facd","stage_block_liquidation()":"4e8554f3","stage_borrow()":"3f28ccea","stage_remove_collateral()":"72915d1e","stage_update_rate()":"fb309520","underlyingToken()":"2495a599","updateRateStageReached()":"a539b246","usedLiveTarget()":"5a41b82a","usedValidationClone()":"2759f2f1","validationClone()":"370be116","zeroOracle()":"22cb9ca3"},"id":0}