{"abi":[{"type":"constructor","inputs":[],"stateMutability":"nonpayable"},{"type":"receive","stateMutability":"payable"},{"type":"function","name":"SHIBA_FACTORY","inputs":[],"outputs":[{"name":"","type":"address","internalType":"address"}],"stateMutability":"view"},{"type":"function","name":"SUSHI_FACTORY","inputs":[],"outputs":[{"name":"","type":"address","internalType":"address"}],"stateMutability":"view"},{"type":"function","name":"TARGET","inputs":[],"outputs":[{"name":"","type":"address","internalType":"address"}],"stateMutability":"view"},{"type":"function","name":"UNISWAP_FACTORY","inputs":[],"outputs":[{"name":"","type":"address","internalType":"address"}],"stateMutability":"view"},{"type":"function","name":"UNISWAP_ROUTER","inputs":[],"outputs":[{"name":"","type":"address","internalType":"address"}],"stateMutability":"view"},{"type":"function","name":"USDC","inputs":[],"outputs":[{"name":"","type":"address","internalType":"address"}],"stateMutability":"view"},{"type":"function","name":"WETH","inputs":[],"outputs":[{"name":"","type":"address","internalType":"address"}],"stateMutability":"view"},{"type":"function","name":"executeOnOpportunity","inputs":[],"outputs":[],"stateMutability":"nonpayable"},{"type":"function","name":"infeasibilityReason","inputs":[],"outputs":[{"name":"","type":"string","internalType":"string"}],"stateMutability":"view"},{"type":"function","name":"profitAmount","inputs":[],"outputs":[{"name":"","type":"uint256","internalType":"uint256"}],"stateMutability":"view"},{"type":"function","name":"profitToken","inputs":[],"outputs":[{"name":"","type":"address","internalType":"address"}],"stateMutability":"pure"},{"type":"function","name":"uniswapV2Call","inputs":[{"name":"sender","type":"address","internalType":"address"},{"name":"amount0","type":"uint256","internalType":"uint256"},{"name":"amount1","type":"uint256","internalType":"uint256"},{"name":"","type":"bytes","internalType":"bytes"}],"outputs":[],"stateMutability":"nonpayable"}],"bytecode":{"object":"0x60808060405234601557612bd6908161001a8239f35b5f80fdfe61014080604052600436101561001d575b50361561001b575f80fd5b005b5f905f3560e01c90816310d1e85c146102f6575080633c2448ed146102da57806349343624146102375780635ff972cc146102bd57806389a302711461028e578063a7f1dea21461025f578063ad5c464814610237578063b753bb4714610208578063c74c0fac146101d9578063cc1f2afa146101b1578063d8264920146101825763dfa6be1b03610010573461017f578060031936011261017f576040519080916001546100cb81610ce3565b8083526020830191600181169081156101645750600114610121575b506100f782604094950383610d1b565b8251938492602084525180928160208601528585015e828201840152601f01601f19168101030190f35b600184529350825f516020612b415f395f51905f525b85821061014e5750820160200193506100f76100e7565b6001816020925483858801015201910190610137565b60ff1916835250151560051b820160200193506100f76100e7565b80fd5b503461017f578060031936011261017f576020604051737a250d5630b4cf539739df2c5dacb4c659f2488d8152f35b503461017f578060031936011261017f5760206040515f516020612b015f395f51905f528152f35b503461017f578060031936011261017f576020604051735c69bee701ef814a2b6a3edd4b1652cb9cc5aa6f8152f35b503461017f578060031936011261017f57602060405173c0aee478e3658e2610c5f7a4a2e1777ce9e4f2ac8152f35b503461017f578060031936011261017f5760206040515f516020612ac15f395f51905f528152f35b503461017f578060031936011261017f57602060405173115934131916c8b277dd010ee02de363c09d037c8152f35b503461017f578060031936011261017f57602060405173a0b86991c6218b36c1d19d4a2e9eb0ce3606eb488152f35b503461017f578060031936011261017f5760209054604051908152f35b503461017f578060031936011261017f576102f3610d88565b80f35b9050346105a85760803660031901126105a8576004356001600160a01b038116908190036105a8576024359160643567ffffffffffffffff81116105a857366023820112156105a857806004013567ffffffffffffffff81116105a857369101602401116105a8576002546001600160a01b03163303610caf57503003610c76578015610c6d575b6003548103610c34576004546001810361061057505f516020612ac15f395f51905f523b1561060c5781604051632e1a7d4d60e01b81528260048201528181602481835f516020612ac15f395f51905f525af18015610540576105f7575b50506103e661151d565b6001600160a01b03811680156105bf576020602491604051928380926370a0823160e01b82523060048301525afa9081156105b457849161057e575b50801561054b576104759261043c61044192602094611d8f565b6114f5565b60025460405163a9059cbb60e01b81526001600160a01b039091166004820152602481019190915291829081906044820190565b0381855f516020612ac15f395f51905f525af1908115610540578291610511575b50156104dd576001600160601b0360a01b6002541660025580600355806004556001600160601b0360a01b600554166005556001600160601b0360a01b6006541660065580f35b60405162461bcd60e51b815260206004820152600c60248201526b1c995c185e4819985a5b195960a21b6044820152606490fd5b610533915060203d602011610539575b61052b8183610d1b565b810190610d51565b5f610496565b503d610521565b6040513d84823e3d90fd5b60405162461bcd60e51b815260206004820152600b60248201526a06e6f206f776e6572204c560ac1b6044820152606490fd5b90506020813d6020116105ac575b8161059960209383610d1b565b810103126105a857515f610422565b5f80fd5b3d915061058c565b6040513d86823e3d90fd5b60405162461bcd60e51b815260206004820152601060248201526f1c185a5c881b9bdd0818dc99585d195960821b6044820152606490fd5b8161060191610d1b565b61060c57815f6103dc565b5080fd5b600203610bfe576005546001600160a01b031661062c81612769565b505060405163a9059cbb60e01b81526001600160a01b0384166004820152602481018590529091906020816044815f5f516020612ac15f395f51905f525af1908115610b27575f91610bdf575b5015610ba1576106899184612a40565b6001811115610b65575f198101908111610b5157604051630dfe168160e01b815291602083600481845afa928315610b275785935f516020612b015f395f51905f52915f91610b32575b506001600160a01b031603610ab957803b156108c35760405163022c0d9f60e01b815260048101929092525f602483018190523060448401526080606484015260848301528290829060a490829084905af1801561054057610aa4575b50505b6006546040516370a0823160e01b81523060048201526001600160a01b03909116906020816024815f516020612b015f395f51905f525afa9081156105b4578491610a72575b508015610a395760405163a9059cbb60e01b81526001600160a01b03831660048201526024810191909152602081604481875f516020612b015f395f51905f525af19081156105b4578491610a1a575b50156109de576107e66107db82612769565b509180939192611cf9565b9182156109a4576107f692612a40565b90600182111561096a575f19820191821161095657604051630dfe168160e01b815284929190602081600481855afa80156105b4575f516020612ac15f395f51905f52918591610927575b506001600160a01b0316036108c757803b156108c35760405163022c0d9f60e01b815260048101929092525f602483018190523060448401526080606484015260848301528290829060a490829084905af18015610540576108ae575b50506020610441610475926114f5565b816108b891610d1b565b61060c57815f61089e565b8280fd5b803b156108c35760405163022c0d9f60e01b81525f6004820181905260248201939093523060448201526080606482015260848101929092528290829060a490829084905af18015610540576108ae5750506020610441610475926114f5565b610949915060203d60201161094f575b6109418183610d1b565b810190610d69565b5f610841565b503d610937565b634e487b7160e01b84526011600452602484fd5b60405162461bcd60e51b81526020600482015260126024820152711cda5b9ac81bdd5d081d1bdbc81cdb585b1b60721b6044820152606490fd5b60405162461bcd60e51b81526020600482015260126024820152711b9bc818dc99591a5d1959081d185c99d95d60721b6044820152606490fd5b60405162461bcd60e51b81526020600482015260146024820152731cda5b9ac81d1c985b9cd9995c8819985a5b195960621b6044820152606490fd5b610a33915060203d6020116105395761052b8183610d1b565b5f6107c9565b60405162461bcd60e51b81526020600482015260116024820152706e6f207461726765742062616c616e636560781b6044820152606490fd5b90506020813d602011610a9c575b81610a8d60209383610d1b565b810103126105a857515f610779565b3d9150610a80565b81610aae91610d1b565b61060c57815f610730565b809192503b156105a85760405163022c0d9f60e01b81525f60048201819052602482019390935230604482015260806064820152608481018390529190829060a490829084905af18015610b2757610b12575b50610733565b610b1f9192505f90610d1b565b5f905f610b0c565b6040513d5f823e3d90fd5b610b4b915060203d60201161094f576109418183610d1b565b5f6106d3565b634e487b7160e01b5f52601160045260245ffd5b60405162461bcd60e51b81526020600482015260146024820152731cdbdd5c98d9481bdd5d081d1bdbc81cdb585b1b60621b6044820152606490fd5b60405162461bcd60e51b81526020600482015260166024820152751cdbdd5c98d9481d1c985b9cd9995c8819985a5b195960521b6044820152606490fd5b610bf8915060203d6020116105395761052b8183610d1b565b5f610679565b60405162461bcd60e51b815260206004820152600e60248201526d0d2dcc2c6e8d2ecca40ccd8c2e6d60931b6044820152606490fd5b60405162461bcd60e51b8152602060048201526011602482015270756e657870656374656420626f72726f7760781b6044820152606490fd5b5060443561037e565b60405162461bcd60e51b81526020600482015260116024820152703ab732bc3832b1ba32b21039b2b73232b960791b6044820152606490fd5b62461bcd60e51b815260206004820152600f60248201526e3ab732bc3832b1ba32b2103830b4b960891b6044820152606490fd5b90600182811c92168015610d11575b6020831014610cfd57565b634e487b7160e01b5f52602260045260245ffd5b91607f1691610cf2565b90601f8019910116810190811067ffffffffffffffff821117610d3d57604052565b634e487b7160e01b5f52604160045260245ffd5b908160209103126105a8575180151581036105a85790565b908160209103126105a857516001600160a01b03811681036105a85790565b5f8055610d96600154610ce3565b601f81116114ad575b505f6001556040516370a0823160e01b81523060048201526020816024815f516020612ac15f395f51905f525afa908115610b27575f9161147b575b5060405163e6a4390560e01b81525f516020612b015f395f51905f5260048201525f516020612ac15f395f51905f526024820152602081604481735c69bee701ef814a2b6a3edd4b1652cb9cc5aa6f5afa908115610b27575f9161145c575b50604051638da5cb5b60e01b815281906020816004815f516020612b015f395f51905f525afa908115610b27575f9161143d575b506001600160a01b031630146112c9575b506001600160a01b038116156111b657610e9890611ea0565b61119b575b610ea690611d06565b66038d7ea4c680005f54101561119957604051638da5cb5b60e01b81526020816004815f516020612b015f395f51905f525afa908115610b27575f9161117a575b506001600160a01b03161561105a57610f01600154610ce3565b601f8111611007575b5061013160015560015f527f696e6665617369626c65206174207468697320666f726b3a20746865206f776e5f516020612b415f395f51905f52557f65722d636f6e74726f6c6c6564204c502070617468206973206e6f74207665725f516020612b615f395f51905f52557f69666965722d636f6e74726f6c6c656420616e64206e6f2070726f66697461625f516020612b215f395f51905f52557f6c65207075626c696320563220726f75746520696e746f2074686520646973745f516020612b815f395f51905f52557f6f7274656420706f6f6c2077617320617661696c61626c6500000000000000005f516020612ae15f395f51905f5255565b60015f52601f0160051c5f516020612b415f395f51905f52017fb10e2d527612073b26eecdfd717e6a320cf44b4afac2b0732d9fcbe2b7fa0cfb5b81811061104f5750610f0a565b5f8155600101611042565b611065600154610ce3565b601f811161113a575b5060ff60015560015f527f696e6665617369626c65206174207468697320666f726b3a206f776e657273685f516020612b415f395f51905f52557f69702069732072656e6f756e63656420616e64206e6f2070726f66697461626c5f516020612b615f395f51905f52557f65207075626c696320563220726f75746520696e746f20746865206f776e65725f516020612b215f395f51905f52557f2d727567676564205745544820706f6f6c2077617320617661696c61626c65005f516020612b815f395f51905f5255565b60015f52601f0160051c5f516020612b415f395f51905f52015f516020612ae15f395f51905f525b81811061116f575061106e565b5f8155600101611162565b611193915060203d60201161094f576109418183610d1b565b5f610ee7565b565b6111a481611d06565b66038d7ea4c680005f5410610e9d5750565b50506111c3600154610ce3565b601f8111611289575b5060dd60015560015f527f696e6665617369626c65206174207468697320666f726b3a2074726164696e675f516020612b415f395f51905f52557f206973206e6f74206f70656e20616e642074686520766572696669657220646f5f516020612b615f395f51905f52557f6573206e6f7420636f6e74726f6c20746865206f776e65722d6f6e6c79206f705f516020612b215f395f51905f52556d0cadca8e4c2c8d2dcce40e0c2e8d60931b5f516020612b815f395f51905f5255565b60015f52601f0160051c5f516020612b415f395f51905f52015f516020612ae15f395f51905f525b8181106112be57506111cc565b5f81556001016112b1565b6001600160a01b03161561137a575b6001600160a01b0381168015610e7f576020602491604051928380926370a0823160e01b82523060048301525afa908115610b27575f91611348575b508015610e7f576113259082611d8f565b61132e82611d06565b66038d7ea4c680005f541015611344575f610e7f565b5050565b90506020813d602011611372575b8161136360209383610d1b565b810103126105a857515f611314565b3d9150611356565b5061138361151d565b6001600160a01b03811615806113cb575b806113c3575b156112d8576113a761187e565b6113b082611d06565b66038d7ea4c680005f54106112d8575050565b50471561139a565b506040516370a0823160e01b81523060048201526020816024815f516020612b015f395f51905f525afa908115610b27575f9161140b575b501515611394565b90506020813d602011611435575b8161142660209383610d1b565b810103126105a857515f611403565b3d9150611419565b611456915060203d60201161094f576109418183610d1b565b5f610e6e565b611475915060203d60201161094f576109418183610d1b565b5f610e3a565b90506020813d6020116114a5575b8161149660209383610d1b565b810103126105a857515f610ddb565b3d9150611489565b60015f52601f0160051c5f516020612b415f395f51905f52908101905b8181106114d75750610d9f565b5f81556001016114ca565b81810292918115918404141715610b5157565b6103e88102908082046103e81490151715610b51576103e5900460018101809111610b515790565b6040516370a0823160e01b81523060048201525f906020816024815f516020612b015f395f51905f525afa908115610b27575f9161184c575b50479080158015611844575b61183d576040519063a9059cbb60e01b82525f516020612b015f395f51905f52600483015260248201526020816044815f5f516020612b015f395f51905f525af1908115610b27575f9161181e575b50156117d9575f808080935f516020612b015f395f51905f525af13d156117d4573d67ffffffffffffffff8111610d3d57604051906115fa601f8201601f191660200183610d1b565b81525f60203d92013e5b1561178f575f516020612b015f395f51905f523b156105a85760405163c9567bf960e01b81525f81600481835f516020612b015f395f51905f525af18015610b275761177c575b5060405163c45a015560e01b8152602081600481737a250d5630b4cf539739df2c5dacb4c659f2488d5afa90811561054057829161175d575b506040516315ab88c960e31b8152602081600481737a250d5630b4cf539739df2c5dacb4c659f2488d5afa90811561175257906020918491611735575b5060405163e6a4390560e01b81525f516020612b015f395f51905f5260048201526001600160a01b0391821660248201529283916044918391165afa918215611729579161170d575090565b611726915060203d60201161094f576109418183610d1b565b90565b604051903d90823e3d90fd5b61174c9150823d841161094f576109418183610d1b565b5f6116c1565b6040513d85823e3d90fd5b611776915060203d60201161094f576109418183610d1b565b5f611684565b61178891505f90610d1b565b5f5f61164b565b60405162461bcd60e51b815260206004820152601860248201527f7365656420455448207472616e73666572206661696c656400000000000000006044820152606490fd5b611604565b60405162461bcd60e51b815260206004820152601a60248201527f7365656420746f6b656e207472616e73666572206661696c65640000000000006044820152606490fd5b611837915060203d6020116105395761052b8183610d1b565b5f6115b1565b5050505f90565b508115611562565b90506020813d602011611876575b8161186760209383610d1b565b810103126105a857515f611556565b3d915061185a565b6040516370a0823160e01b81523060048201525f906020816024815f516020612b015f395f51905f525afa908115610b27575f91611cc7575b5015611bbc5760405163c45a015560e01b8152602081600481737a250d5630b4cf539739df2c5dacb4c659f2488d5afa908115610b27576044916020915f91611b9f575b5060405163e6a4390560e01b815273a0b86991c6218b36c1d19d4a2e9eb0ce3606eb4860048201525f516020612ac15f395f51905f52602482015292839182906001600160a01b03165afa908115610b27575f91611b80575b506001600160a01b03168015611ac957806001600160601b0360a01b6002541617600255670de0b6b3a76400006003556001600455604051630dfe168160e01b8152602081600481855afa8015610b27575f516020612ac15f395f51905f52915f91611aaa575b506001600160a01b031603611a3c57600354813b156108c35760405163022c0d9f60e01b81526004810191909152602481018390523060448201526080606482015260016084820152600160f91b60a4820152908290829060c490829084905af1801561054057611a2a575050565b611a35828092610d1b565b61017f5750565b8091503b156105a85760405163022c0d9f60e01b81525f60048201819052670de0b6b3a764000060248301523060448301526080606483015260016084830152600160f91b60a48301529091829060c490829084905af18015610b2757611aa05750565b5f61119991610d1b565b611ac3915060203d60201161094f576109418183610d1b565b5f6119bb565b5050611ad6600154610ce3565b601f8111611b40575b50606560015560015f527f696e6665617369626c65206174207468697320666f726b3a20574554482066755f516020612b415f395f51905f5255716e64696e672070616972206d697373696e6760701b5f516020612b615f395f51905f5255565b60015f52601f0160051c5f516020612b415f395f51905f52015f516020612b215f395f51905f525b818110611b755750611adf565b5f8155600101611b68565b611b99915060203d60201161094f576109418183610d1b565b5f611954565b611bb69150823d841161094f576109418183610d1b565b5f6118fb565b50611bc8600154610ce3565b601f8111611c87575b5060cf60015560015f527f696e6665617369626c65206174207468697320666f726b3a20766572696669655f516020612b415f395f51905f52557f72206c61636b73207468652047524f4b20726571756972656420746f207365655f516020612b615f395f51905f52557f642074686520746f6b656e20636f6e7472616374206265666f7265206f70656e5f516020612b215f395f51905f52556654726164696e6760c81b5f516020612b815f395f51905f5255565b60015f52601f0160051c5f516020612b415f395f51905f52015f516020612ae15f395f51905f525b818110611cbc5750611bd1565b5f8155600101611caf565b90506020813d602011611cf1575b81611ce260209383610d1b565b810103126105a857515f6118b7565b3d9150611cd5565b91908203918211610b5157565b6040516370a0823160e01b8152306004820152906020826024815f516020612ac15f395f51905f525afa918215610b27575f92611d5b575b5080821115611d5457611d5091611cf9565b5f55565b50505f5f55565b9091506020813d602011611d87575b81611d7760209383610d1b565b810103126105a85751905f611d3e565b3d9150611d6a565b60405163a9059cbb60e01b81526001600160a01b03919091166004820181905260248201929092526020816044815f865af1908115610b27575f91611e81575b5015611e475760405f91602482518094819363226bf2d160e21b83523060048401525af18015610b2757611e1c575b50611199737a250d5630b4cf539739df2c5dacb4c659f2488d61254a565b604090813d8311611e40575b611e328183610d1b565b810103126105a8575f611dfe565b503d611e28565b60405162461bcd60e51b81526020600482015260126024820152711b1c081d1c985b9cd9995c8819985a5b195960721b6044820152606490fd5b611e9a915060203d6020116105395761052b8183610d1b565b5f611dcf565b5f90611eab81612769565b505060805260a0819052600110801590612537575b6125315791905f610100526040610100526101005151611ee36101005182610d1b565b6101005136823773c0aee478e3658e2610c5f7a4a2e1777ce9e4f2ac815273115934131916c8b277dd010ee02de363c09d037c60208201525f5f915f60e0525f925b600284101561229e57600584901b820151610100515163e6a4390560e01b81525f516020612b015f395f51905f5260048201525f516020612ac15f395f51905f52602482015293929190602090859060449082906001600160a01b03165afa938415612291575f94612271575b506001600160a01b038416801590811561225e575b5061225057611fb584612769565b5050610120529760018911801590612242575b61223357611fdb60a051610120516114e2565b611fe78a6080516114e2565b1115612233575f60c0525f975f60c0526101009761010051519861200b818b610d1b565b368a376107d0610120510489526103e8610120510460208a01526101f46101205104610100518a015260fa610120510460608a01526064610120510460808a01526032610120510460a08a01526019610120510460c08a0152600a610120510460e08a01525f5b60088110156121f7578060051b8a0151801580156121ea575b6121e15761209d8d6101205183612a40565b600181111561217957610100515163023e695760e61b81526020816004815f516020612b015f395f51905f525afa5f91816121ae575b5061218f575b50611db08102818104611db01482151715610b5157806303715900830204611db01490151715610b515763037159006305f5e10091020460018111801590612183575b6121795760805160a05161212f92612a40565b612138826114f5565b908181111561216e579061214b91611cf9565b60c0518111612161575b50506001905b01612072565b60c0529a5060015f612155565b50505060019061215b565b505060019061215b565b5060a05181101561211c565b80151590816121a4575b50612179575f6120d9565b905081115f612199565b9091506020813d82116121d9575b816121c960209383610d1b565b810103126105a85751905f6120d3565b3d91506121bc565b5060019061215b565b506101205181101561208b565b509592989197509592985060e05160c05111612221575b50506001905b0192949590919395611f25565b60c05160e0529650915060015f61220e565b95935095936001919750612214565b506001610120511115611fc8565b959360019197959350612214565b6001600160a01b038a161490505f611fa7565b61228a91945060203d811161094f576109418183610d1b565b925f611f92565b61010051513d5f823e3d90fd5b92505091929366038d7ea4c6800060e051108015612520575b8015612518575b61251057610100515163e6a4390560e01b815273a0b86991c6218b36c1d19d4a2e9eb0ce3606eb4860048201525f516020612ac15f395f51905f526024820152602081604481735c69bee701ef814a2b6a3edd4b1652cb9cc5aa6f5afa908115612291575f916124f1575b506001600160a01b03169283156124e857836001600160601b0360a01b600254161760025582600355600260045560018060a01b03166001600160601b0360a01b600554161760055560018060a01b03166001600160601b0360a01b60065416176006556101005151630dfe168160e01b8152602081600481865afa8015612291575f516020612ac15f395f51905f52915f916124c9575b506001600160a01b03160361245557813b156108c357610100515163022c0d9f60e01b81526004810191909152602481018390523060448201526080606482015260016084820152600160f81b60a4820152908290829060c490829084905af1801561244857612433575b5050600190565b61243e828092610d1b565b61017f578061242c565b61010051513d84823e3d90fd5b908092503b156105a857610100515163022c0d9f60e01b81525f6004820181905260248201929092523060448201526080606482015260016084820152600160f81b60a482015291829060c490829084905af18015612291576124b9575b50600190565b5f6124c391610d1b565b5f6124b3565b6124e2915060203d60201161094f576109418183610d1b565b5f6123c1565b50505050505f90565b61250a915060203d60201161094f576109418183610d1b565b5f612329565b505050505f90565b5081156122be565b506001600160a01b038316156122b7565b50505f90565b5066038d7ea4c680006080511115611ec0565b6040516370a0823160e01b8152306004820152906020826024815f516020612b015f395f51905f525afa918215610b27575f92612721575b5081156113445760405163095ea7b360e01b81526001600160a01b03919091166004820181905260248201839052906020816044815f5f516020612b015f395f51905f525af1908115610b27575f91612702575b50156126cc57604051916125eb606084610d1b565b60028352602083019060403683378351156126b8575f516020612b015f395f51905f5282528351600110156126b8575f516020612ac15f395f51905f526040850152823b156105a8579290604051938492635c11d79560e01b845260a484019160048501525f602485015260a060448501525180915260c4830191905f5b8181106126965750505091815f81819530606483015242608483015203925af18015610b2757611aa05750565b82516001600160a01b0316845286945060209384019390920191600101612669565b634e487b7160e01b5f52603260045260245ffd5b60405162461bcd60e51b815260206004820152600e60248201526d185c1c1c9bdd994819985a5b195960921b6044820152606490fd5b61271b915060203d6020116105395761052b8183610d1b565b5f6125d6565b9091506020813d60201161274d575b8161273d60209383610d1b565b810103126105a85751905f612582565b3d9150612730565b51906001600160701b03821682036105a857565b604051630dfe168160e01b81526001600160a01b039190911690602081600481855afa908115610b27575f91612a21575b5060405163d21220a760e01b815290602082600481865afa918215610b27575f92612a00575b506001600160a01b0316925f516020612b015f395f51905f52841480806129e1575b80156129ab575b1561296d57604051630240bc6b60e21b815290606082600481885afa948515610b27575f925f9661290f575b50602060249697604051978880926370a0823160e01b82528560048301525afa958615610b27575f966128da575b506040516370a0823160e01b8152600481019190915293602090859060249082906001600160a01b03165afa938415610b27575f946128a6575b5015612895576001600160701b038091169416929190565b6001600160701b0394851694169290565b9093506020813d6020116128d2575b816128c260209383610d1b565b810103126105a85751925f61287d565b3d91506128b5565b9095506020813d602011612907575b816128f660209383610d1b565b810103126105a85751946020612843565b3d91506128e9565b925094506060823d606011612965575b8161292c60609383610d1b565b810103126105a85761293d82612755565b94604061294c60208501612755565b93015163ffffffff8116036105a8579194916020612815565b3d915061291f565b60405162461bcd60e51b8152602060048201526016602482015275756e6578706563746564207061697220746f6b656e7360501b6044820152606490fd5b505f516020612ac15f395f51905f52851480156127e957506001600160a01b0383165f516020612b015f395f51905f52146127e9565b506001600160a01b0383165f516020612ac15f395f51905f52146127e2565b612a1a91925060203d60201161094f576109418183610d1b565b905f6127c0565b612a3a915060203d60201161094f576109418183610d1b565b5f61279a565b90918115808015612ab8575b8015612ab0575b612510576103e583029283046103e5141715610b5157612a7390826114e2565b906103e88302928084046103e81490151715610b51578201809211610b51578115612a9c570490565b634e487b7160e01b5f52601260045260245ffd5b508115612a53565b508315612a4c56fe000000000000000000000000c02aaa39b223fe8d0a0e5c4f27ead9083c756cc2b10e2d527612073b26eecdfd717e6a320cf44b4afac2b0732d9fcbe2b7fa0cfa0000000000000000000000008390a1da07e376ef7add4be859ba74fb83aa02d5b10e2d527612073b26eecdfd717e6a320cf44b4afac2b0732d9fcbe2b7fa0cf8b10e2d527612073b26eecdfd717e6a320cf44b4afac2b0732d9fcbe2b7fa0cf6b10e2d527612073b26eecdfd717e6a320cf44b4afac2b0732d9fcbe2b7fa0cf7b10e2d527612073b26eecdfd717e6a320cf44b4afac2b0732d9fcbe2b7fa0cf9a2646970667358221220fdc414348b7734414f6cd5766462b2a7cd9f4246a2cbe4fba4353f439867d3e864736f6c634300081e0033","linkReferences":{}},"methodIdentifiers":{"SHIBA_FACTORY()":"a7f1dea2","SUSHI_FACTORY()":"b753bb47","TARGET()":"cc1f2afa","UNISWAP_FACTORY()":"c74c0fac","UNISWAP_ROUTER()":"d8264920","USDC()":"89a30271","WETH()":"ad5c4648","executeOnOpportunity()":"3c2448ed","infeasibilityReason()":"dfa6be1b","profitAmount()":"5ff972cc","profitToken()":"49343624","uniswapV2Call(address,uint256,uint256,bytes)":"10d1e85c"},"id":0}