{"src/onchain_auto/0xf3f84ce038442ae4c4dcb6a8ca8bacd7f28c9bde/contracts/SilicaPools.sol":{"SilicaPools":{"abi":[{"type":"constructor","inputs":[{"name":"startFeeBps","type":"uint256","internalType":"uint256"},{"name":"initialOwner","type":"address","internalType":"address"},{"name":"alkimiyaTreasury","type":"address","internalType":"address"},{"name":"gracePeriod","type":"uint256","internalType":"uint256"},{"name":"maxBountyFrac","type":"uint256","internalType":"uint256"},{"name":"bountyIncreasePerSecond","type":"uint256","internalType":"uint256"}],"stateMutability":"nonpayable"},{"type":"function","name":"INVERSE_BASIS_POINT","inputs":[],"outputs":[{"name":"","type":"uint256","internalType":"uint256"}],"stateMutability":"view"},{"type":"function","name":"MAX_FILL_FEE_BPS","inputs":[],"outputs":[{"name":"","type":"uint256","internalType":"uint256"}],"stateMutability":"view"},{"type":"function","name":"TOKENID_SALT","inputs":[],"outputs":[{"name":"","type":"bytes32","internalType":"bytes32"}],"stateMutability":"view"},{"type":"function","name":"acceptOwnership","inputs":[],"outputs":[],"stateMutability":"nonpayable"},{"type":"function","name":"balanceOf","inputs":[{"name":"account","type":"address","internalType":"address"},{"name":"id","type":"uint256","internalType":"uint256"}],"outputs":[{"name":"","type":"uint256","internalType":"uint256"}],"stateMutability":"view"},{"type":"function","name":"balanceOfBatch","inputs":[{"name":"accounts","type":"address[]","internalType":"address[]"},{"name":"ids","type":"uint256[]","internalType":"uint256[]"}],"outputs":[{"name":"","type":"uint256[]","internalType":"uint256[]"}],"stateMutability":"view"},{"type":"function","name":"bountyFractionIncreasePerSecond","inputs":[],"outputs":[{"name":"","type":"uint256","internalType":"uint256"}],"stateMutability":"view"},{"type":"function","name":"bountyGracePeriod","inputs":[],"outputs":[{"name":"","type":"uint256","internalType":"uint256"}],"stateMutability":"view"},{"type":"function","name":"cancelOrders","inputs":[{"name":"orders","type":"tuple[]","internalType":"struct ISilicaPools.SilicaOrder[]","components":[{"name":"maker","type":"address","internalType":"address"},{"name":"taker","type":"address","internalType":"address"},{"name":"expiry","type":"uint48","internalType":"uint48"},{"name":"offeredUpfrontToken","type":"address","internalType":"address"},{"name":"offeredUpfrontAmount","type":"uint128","internalType":"uint128"},{"name":"offeredLongSharesParams","type":"tuple","internalType":"struct ISilicaPools.PoolParams","components":[{"name":"floor","type":"uint128","internalType":"uint128"},{"name":"cap","type":"uint128","internalType":"uint128"},{"name":"index","type":"address","internalType":"address"},{"name":"targetStartTimestamp","type":"uint48","internalType":"uint48"},{"name":"targetEndTimestamp","type":"uint48","internalType":"uint48"},{"name":"payoutToken","type":"address","internalType":"address"}]},{"name":"offeredLongShares","type":"uint128","internalType":"uint128"},{"name":"requestedUpfrontToken","type":"address","internalType":"address"},{"name":"requestedUpfrontAmount","type":"uint128","internalType":"uint128"},{"name":"requestedLongSharesParams","type":"tuple","internalType":"struct ISilicaPools.PoolParams","components":[{"name":"floor","type":"uint128","internalType":"uint128"},{"name":"cap","type":"uint128","internalType":"uint128"},{"name":"index","type":"address","internalType":"address"},{"name":"targetStartTimestamp","type":"uint48","internalType":"uint48"},{"name":"targetEndTimestamp","type":"uint48","internalType":"uint48"},{"name":"payoutToken","type":"address","internalType":"address"}]},{"name":"requestedLongShares","type":"uint128","internalType":"uint128"}]}],"outputs":[],"stateMutability":"nonpayable"},{"type":"function","name":"collateralRefund","inputs":[{"name":"poolParams","type":"tuple[]","internalType":"struct ISilicaPools.PoolParams[]","components":[{"name":"floor","type":"uint128","internalType":"uint128"},{"name":"cap","type":"uint128","internalType":"uint128"},{"name":"index","type":"address","internalType":"address"},{"name":"targetStartTimestamp","type":"uint48","internalType":"uint48"},{"name":"targetEndTimestamp","type":"uint48","internalType":"uint48"},{"name":"payoutToken","type":"address","internalType":"address"}]},{"name":"shares","type":"uint256[]","internalType":"uint256[]"}],"outputs":[],"stateMutability":"nonpayable"},{"type":"function","name":"collateralizedMint","inputs":[{"name":"poolParams","type":"tuple","internalType":"struct ISilicaPools.PoolParams","components":[{"name":"floor","type":"uint128","internalType":"uint128"},{"name":"cap","type":"uint128","internalType":"uint128"},{"name":"index","type":"address","internalType":"address"},{"name":"targetStartTimestamp","type":"uint48","internalType":"uint48"},{"name":"targetEndTimestamp","type":"uint48","internalType":"uint48"},{"name":"payoutToken","type":"address","internalType":"address"}]},{"name":"orderHash","type":"bytes32","internalType":"bytes32"},{"name":"shares","type":"uint256","internalType":"uint256"},{"name":"longRecipient","type":"address","internalType":"address"},{"name":"shortRecipient","type":"address","internalType":"address"}],"outputs":[],"stateMutability":"nonpayable"},{"type":"function","name":"domainSeparatorV4","inputs":[],"outputs":[{"name":"","type":"bytes32","internalType":"bytes32"}],"stateMutability":"view"},{"type":"function","name":"eip712Domain","inputs":[],"outputs":[{"name":"fields","type":"bytes1","internalType":"bytes1"},{"name":"name","type":"string","internalType":"string"},{"name":"version","type":"string","internalType":"string"},{"name":"chainId","type":"uint256","internalType":"uint256"},{"name":"verifyingContract","type":"address","internalType":"address"},{"name":"salt","type":"bytes32","internalType":"bytes32"},{"name":"extensions","type":"uint256[]","internalType":"uint256[]"}],"stateMutability":"view"},{"type":"function","name":"endBounty","inputs":[{"name":"poolParams","type":"tuple[]","internalType":"struct ISilicaPools.PoolParams[]","components":[{"name":"floor","type":"uint128","internalType":"uint128"},{"name":"cap","type":"uint128","internalType":"uint128"},{"name":"index","type":"address","internalType":"address"},{"name":"targetStartTimestamp","type":"uint48","internalType":"uint48"},{"name":"targetEndTimestamp","type":"uint48","internalType":"uint48"},{"name":"payoutToken","type":"address","internalType":"address"}]}],"outputs":[{"name":"","type":"uint256[]","internalType":"uint256[]"}],"stateMutability":"view"},{"type":"function","name":"endPool","inputs":[{"name":"poolParams","type":"tuple","internalType":"struct ISilicaPools.PoolParams","components":[{"name":"floor","type":"uint128","internalType":"uint128"},{"name":"cap","type":"uint128","internalType":"uint128"},{"name":"index","type":"address","internalType":"address"},{"name":"targetStartTimestamp","type":"uint48","internalType":"uint48"},{"name":"targetEndTimestamp","type":"uint48","internalType":"uint48"},{"name":"payoutToken","type":"address","internalType":"address"}]}],"outputs":[],"stateMutability":"nonpayable"},{"type":"function","name":"endPools","inputs":[{"name":"poolParams","type":"tuple[]","internalType":"struct ISilicaPools.PoolParams[]","components":[{"name":"floor","type":"uint128","internalType":"uint128"},{"name":"cap","type":"uint128","internalType":"uint128"},{"name":"index","type":"address","internalType":"address"},{"name":"targetStartTimestamp","type":"uint48","internalType":"uint48"},{"name":"targetEndTimestamp","type":"uint48","internalType":"uint48"},{"name":"payoutToken","type":"address","internalType":"address"}]}],"outputs":[],"stateMutability":"nonpayable"},{"type":"function","name":"fillFeeBps","inputs":[],"outputs":[{"name":"","type":"uint256","internalType":"uint256"}],"stateMutability":"view"},{"type":"function","name":"fillOrder","inputs":[{"name":"order","type":"tuple","internalType":"struct ISilicaPools.SilicaOrder","components":[{"name":"maker","type":"address","internalType":"address"},{"name":"taker","type":"address","internalType":"address"},{"name":"expiry","type":"uint48","internalType":"uint48"},{"name":"offeredUpfrontToken","type":"address","internalType":"address"},{"name":"offeredUpfrontAmount","type":"uint128","internalType":"uint128"},{"name":"offeredLongSharesParams","type":"tuple","internalType":"struct ISilicaPools.PoolParams","components":[{"name":"floor","type":"uint128","internalType":"uint128"},{"name":"cap","type":"uint128","internalType":"uint128"},{"name":"index","type":"address","internalType":"address"},{"name":"targetStartTimestamp","type":"uint48","internalType":"uint48"},{"name":"targetEndTimestamp","type":"uint48","internalType":"uint48"},{"name":"payoutToken","type":"address","internalType":"address"}]},{"name":"offeredLongShares","type":"uint128","internalType":"uint128"},{"name":"requestedUpfrontToken","type":"address","internalType":"address"},{"name":"requestedUpfrontAmount","type":"uint128","internalType":"uint128"},{"name":"requestedLongSharesParams","type":"tuple","internalType":"struct ISilicaPools.PoolParams","components":[{"name":"floor","type":"uint128","internalType":"uint128"},{"name":"cap","type":"uint128","internalType":"uint128"},{"name":"index","type":"address","internalType":"address"},{"name":"targetStartTimestamp","type":"uint48","internalType":"uint48"},{"name":"targetEndTimestamp","type":"uint48","internalType":"uint48"},{"name":"payoutToken","type":"address","internalType":"address"}]},{"name":"requestedLongShares","type":"uint128","internalType":"uint128"}]},{"name":"signature","type":"bytes","internalType":"bytes"},{"name":"fraction","type":"uint256","internalType":"uint256"}],"outputs":[],"stateMutability":"nonpayable"},{"type":"function","name":"fillOrders","inputs":[{"name":"orders","type":"tuple[]","internalType":"struct ISilicaPools.SilicaOrder[]","components":[{"name":"maker","type":"address","internalType":"address"},{"name":"taker","type":"address","internalType":"address"},{"name":"expiry","type":"uint48","internalType":"uint48"},{"name":"offeredUpfrontToken","type":"address","internalType":"address"},{"name":"offeredUpfrontAmount","type":"uint128","internalType":"uint128"},{"name":"offeredLongSharesParams","type":"tuple","internalType":"struct ISilicaPools.PoolParams","components":[{"name":"floor","type":"uint128","internalType":"uint128"},{"name":"cap","type":"uint128","internalType":"uint128"},{"name":"index","type":"address","internalType":"address"},{"name":"targetStartTimestamp","type":"uint48","internalType":"uint48"},{"name":"targetEndTimestamp","type":"uint48","internalType":"uint48"},{"name":"payoutToken","type":"address","internalType":"address"}]},{"name":"offeredLongShares","type":"uint128","internalType":"uint128"},{"name":"requestedUpfrontToken","type":"address","internalType":"address"},{"name":"requestedUpfrontAmount","type":"uint128","internalType":"uint128"},{"name":"requestedLongSharesParams","type":"tuple","internalType":"struct ISilicaPools.PoolParams","components":[{"name":"floor","type":"uint128","internalType":"uint128"},{"name":"cap","type":"uint128","internalType":"uint128"},{"name":"index","type":"address","internalType":"address"},{"name":"targetStartTimestamp","type":"uint48","internalType":"uint48"},{"name":"targetEndTimestamp","type":"uint48","internalType":"uint48"},{"name":"payoutToken","type":"address","internalType":"address"}]},{"name":"requestedLongShares","type":"uint128","internalType":"uint128"}]},{"name":"signatures","type":"bytes[]","internalType":"bytes[]"},{"name":"fractions","type":"uint256[]","internalType":"uint256[]"}],"outputs":[],"stateMutability":"nonpayable"},{"type":"function","name":"fromLongTokenId","inputs":[{"name":"longTokenId","type":"uint256","internalType":"uint256"}],"outputs":[{"name":"","type":"bytes32","internalType":"bytes32"}],"stateMutability":"pure"},{"type":"function","name":"fromShortTokenId","inputs":[{"name":"shortTokenId","type":"uint256","internalType":"uint256"}],"outputs":[{"name":"","type":"bytes32","internalType":"bytes32"}],"stateMutability":"pure"},{"type":"function","name":"hashOrder","inputs":[{"name":"order","type":"tuple","internalType":"struct ISilicaPools.SilicaOrder","components":[{"name":"maker","type":"address","internalType":"address"},{"name":"taker","type":"address","internalType":"address"},{"name":"expiry","type":"uint48","internalType":"uint48"},{"name":"offeredUpfrontToken","type":"address","internalType":"address"},{"name":"offeredUpfrontAmount","type":"uint128","internalType":"uint128"},{"name":"offeredLongSharesParams","type":"tuple","internalType":"struct ISilicaPools.PoolParams","components":[{"name":"floor","type":"uint128","internalType":"uint128"},{"name":"cap","type":"uint128","internalType":"uint128"},{"name":"index","type":"address","internalType":"address"},{"name":"targetStartTimestamp","type":"uint48","internalType":"uint48"},{"name":"targetEndTimestamp","type":"uint48","internalType":"uint48"},{"name":"payoutToken","type":"address","internalType":"address"}]},{"name":"offeredLongShares","type":"uint128","internalType":"uint128"},{"name":"requestedUpfrontToken","type":"address","internalType":"address"},{"name":"requestedUpfrontAmount","type":"uint128","internalType":"uint128"},{"name":"requestedLongSharesParams","type":"tuple","internalType":"struct ISilicaPools.PoolParams","components":[{"name":"floor","type":"uint128","internalType":"uint128"},{"name":"cap","type":"uint128","internalType":"uint128"},{"name":"index","type":"address","internalType":"address"},{"name":"targetStartTimestamp","type":"uint48","internalType":"uint48"},{"name":"targetEndTimestamp","type":"uint48","internalType":"uint48"},{"name":"payoutToken","type":"address","internalType":"address"}]},{"name":"requestedLongShares","type":"uint128","internalType":"uint128"}]},{"name":"domainSeparator","type":"bytes32","internalType":"bytes32"}],"outputs":[{"name":"","type":"bytes32","internalType":"bytes32"}],"stateMutability":"pure"},{"type":"function","name":"hashPool","inputs":[{"name":"poolParams","type":"tuple","internalType":"struct ISilicaPools.PoolParams","components":[{"name":"floor","type":"uint128","internalType":"uint128"},{"name":"cap","type":"uint128","internalType":"uint128"},{"name":"index","type":"address","internalType":"address"},{"name":"targetStartTimestamp","type":"uint48","internalType":"uint48"},{"name":"targetEndTimestamp","type":"uint48","internalType":"uint48"},{"name":"payoutToken","type":"address","internalType":"address"}]}],"outputs":[{"name":"","type":"bytes32","internalType":"bytes32"}],"stateMutability":"pure"},{"type":"function","name":"isApprovedForAll","inputs":[{"name":"account","type":"address","internalType":"address"},{"name":"operator","type":"address","internalType":"address"}],"outputs":[{"name":"","type":"bool","internalType":"bool"}],"stateMutability":"view"},{"type":"function","name":"maxBountyFraction","inputs":[],"outputs":[{"name":"","type":"uint256","internalType":"uint256"}],"stateMutability":"view"},{"type":"function","name":"maxCollateralRefund","inputs":[{"name":"poolParams","type":"tuple[]","internalType":"struct ISilicaPools.PoolParams[]","components":[{"name":"floor","type":"uint128","internalType":"uint128"},{"name":"cap","type":"uint128","internalType":"uint128"},{"name":"index","type":"address","internalType":"address"},{"name":"targetStartTimestamp","type":"uint48","internalType":"uint48"},{"name":"targetEndTimestamp","type":"uint48","internalType":"uint48"},{"name":"payoutToken","type":"address","internalType":"address"}]}],"outputs":[],"stateMutability":"nonpayable"},{"type":"function","name":"orderCancelled","inputs":[{"name":"orderHash","type":"bytes32","internalType":"bytes32"}],"outputs":[{"name":"","type":"bool","internalType":"bool"}],"stateMutability":"view"},{"type":"function","name":"owner","inputs":[],"outputs":[{"name":"","type":"address","internalType":"address"}],"stateMutability":"view"},{"type":"function","name":"pause","inputs":[],"outputs":[],"stateMutability":"nonpayable"},{"type":"function","name":"paused","inputs":[],"outputs":[{"name":"","type":"bool","internalType":"bool"}],"stateMutability":"view"},{"type":"function","name":"pendingOwner","inputs":[],"outputs":[{"name":"","type":"address","internalType":"address"}],"stateMutability":"view"},{"type":"function","name":"poolState","inputs":[{"name":"poolHash","type":"bytes32","internalType":"bytes32"}],"outputs":[{"name":"","type":"tuple","internalType":"struct ISilicaPools.PoolState","components":[{"name":"collateralMinted","type":"uint128","internalType":"uint128"},{"name":"sharesMinted","type":"uint128","internalType":"uint128"},{"name":"indexShares","type":"uint128","internalType":"uint128"},{"name":"indexInitialBalance","type":"uint128","internalType":"uint128"},{"name":"actualStartTimestamp","type":"uint48","internalType":"uint48"},{"name":"actualEndTimestamp","type":"uint48","internalType":"uint48"},{"name":"balanceChangePerShare","type":"uint128","internalType":"uint128"}]}],"stateMutability":"view"},{"type":"function","name":"redeem","inputs":[{"name":"longPoolParams","type":"tuple[]","internalType":"struct ISilicaPools.PoolParams[]","components":[{"name":"floor","type":"uint128","internalType":"uint128"},{"name":"cap","type":"uint128","internalType":"uint128"},{"name":"index","type":"address","internalType":"address"},{"name":"targetStartTimestamp","type":"uint48","internalType":"uint48"},{"name":"targetEndTimestamp","type":"uint48","internalType":"uint48"},{"name":"payoutToken","type":"address","internalType":"address"}]},{"name":"shortPoolParams","type":"tuple[]","internalType":"struct ISilicaPools.PoolParams[]","components":[{"name":"floor","type":"uint128","internalType":"uint128"},{"name":"cap","type":"uint128","internalType":"uint128"},{"name":"index","type":"address","internalType":"address"},{"name":"targetStartTimestamp","type":"uint48","internalType":"uint48"},{"name":"targetEndTimestamp","type":"uint48","internalType":"uint48"},{"name":"payoutToken","type":"address","internalType":"address"}]}],"outputs":[],"stateMutability":"nonpayable"},{"type":"function","name":"redeemLong","inputs":[{"name":"longParams","type":"tuple","internalType":"struct ISilicaPools.PoolParams","components":[{"name":"floor","type":"uint128","internalType":"uint128"},{"name":"cap","type":"uint128","internalType":"uint128"},{"name":"index","type":"address","internalType":"address"},{"name":"targetStartTimestamp","type":"uint48","internalType":"uint48"},{"name":"targetEndTimestamp","type":"uint48","internalType":"uint48"},{"name":"payoutToken","type":"address","internalType":"address"}]}],"outputs":[],"stateMutability":"nonpayable"},{"type":"function","name":"redeemShort","inputs":[{"name":"shortParams","type":"tuple","internalType":"struct ISilicaPools.PoolParams","components":[{"name":"floor","type":"uint128","internalType":"uint128"},{"name":"cap","type":"uint128","internalType":"uint128"},{"name":"index","type":"address","internalType":"address"},{"name":"targetStartTimestamp","type":"uint48","internalType":"uint48"},{"name":"targetEndTimestamp","type":"uint48","internalType":"uint48"},{"name":"payoutToken","type":"address","internalType":"address"}]}],"outputs":[],"stateMutability":"nonpayable"},{"type":"function","name":"renounceOwnership","inputs":[],"outputs":[],"stateMutability":"nonpayable"},{"type":"function","name":"sBountyFractionIncreasePerSecond","inputs":[],"outputs":[{"name":"","type":"uint256","internalType":"uint256"}],"stateMutability":"view"},{"type":"function","name":"sBountyGracePeriod","inputs":[],"outputs":[{"name":"","type":"uint256","internalType":"uint256"}],"stateMutability":"view"},{"type":"function","name":"sMaxBountyFraction","inputs":[],"outputs":[{"name":"","type":"uint256","internalType":"uint256"}],"stateMutability":"view"},{"type":"function","name":"safeBatchTransferFrom","inputs":[{"name":"from","type":"address","internalType":"address"},{"name":"to","type":"address","internalType":"address"},{"name":"ids","type":"uint256[]","internalType":"uint256[]"},{"name":"values","type":"uint256[]","internalType":"uint256[]"},{"name":"data","type":"bytes","internalType":"bytes"}],"outputs":[],"stateMutability":"nonpayable"},{"type":"function","name":"safeTransferFrom","inputs":[{"name":"from","type":"address","internalType":"address"},{"name":"to","type":"address","internalType":"address"},{"name":"id","type":"uint256","internalType":"uint256"},{"name":"value","type":"uint256","internalType":"uint256"},{"name":"data","type":"bytes","internalType":"bytes"}],"outputs":[],"stateMutability":"nonpayable"},{"type":"function","name":"setApprovalForAll","inputs":[{"name":"operator","type":"address","internalType":"address"},{"name":"approved","type":"bool","internalType":"bool"}],"outputs":[],"stateMutability":"nonpayable"},{"type":"function","name":"setBountyFractionIncreasePerSecond","inputs":[{"name":"newIncreaseAmount","type":"uint256","internalType":"uint256"}],"outputs":[],"stateMutability":"nonpayable"},{"type":"function","name":"setBountyGracePeriod","inputs":[{"name":"newGracePeriod","type":"uint256","internalType":"uint256"}],"outputs":[],"stateMutability":"nonpayable"},{"type":"function","name":"setFillFeeBps","inputs":[{"name":"newFillFeeBps","type":"uint256","internalType":"uint256"}],"outputs":[],"stateMutability":"nonpayable"},{"type":"function","name":"setMaxBountyFraction","inputs":[{"name":"newMaxFraction","type":"uint256","internalType":"uint256"}],"outputs":[],"stateMutability":"nonpayable"},{"type":"function","name":"setTreasuryAddress","inputs":[{"name":"newTreasury","type":"address","internalType":"address"}],"outputs":[],"stateMutability":"nonpayable"},{"type":"function","name":"startBounty","inputs":[{"name":"poolParams","type":"tuple[]","internalType":"struct ISilicaPools.PoolParams[]","components":[{"name":"floor","type":"uint128","internalType":"uint128"},{"name":"cap","type":"uint128","internalType":"uint128"},{"name":"index","type":"address","internalType":"address"},{"name":"targetStartTimestamp","type":"uint48","internalType":"uint48"},{"name":"targetEndTimestamp","type":"uint48","internalType":"uint48"},{"name":"payoutToken","type":"address","internalType":"address"}]}],"outputs":[{"name":"","type":"uint256[]","internalType":"uint256[]"}],"stateMutability":"view"},{"type":"function","name":"startPool","inputs":[{"name":"poolParams","type":"tuple","internalType":"struct ISilicaPools.PoolParams","components":[{"name":"floor","type":"uint128","internalType":"uint128"},{"name":"cap","type":"uint128","internalType":"uint128"},{"name":"index","type":"address","internalType":"address"},{"name":"targetStartTimestamp","type":"uint48","internalType":"uint48"},{"name":"targetEndTimestamp","type":"uint48","internalType":"uint48"},{"name":"payoutToken","type":"address","internalType":"address"}]}],"outputs":[],"stateMutability":"nonpayable"},{"type":"function","name":"startPools","inputs":[{"name":"poolParams","type":"tuple[]","internalType":"struct ISilicaPools.PoolParams[]","components":[{"name":"floor","type":"uint128","internalType":"uint128"},{"name":"cap","type":"uint128","internalType":"uint128"},{"name":"index","type":"address","internalType":"address"},{"name":"targetStartTimestamp","type":"uint48","internalType":"uint48"},{"name":"targetEndTimestamp","type":"uint48","internalType":"uint48"},{"name":"payoutToken","type":"address","internalType":"address"}]}],"outputs":[],"stateMutability":"nonpayable"},{"type":"function","name":"supportsInterface","inputs":[{"name":"interfaceId","type":"bytes4","internalType":"bytes4"}],"outputs":[{"name":"","type":"bool","internalType":"bool"}],"stateMutability":"view"},{"type":"function","name":"toLongTokenId","inputs":[{"name":"poolHash","type":"bytes32","internalType":"bytes32"}],"outputs":[{"name":"","type":"uint256","internalType":"uint256"}],"stateMutability":"pure"},{"type":"function","name":"toShortTokenId","inputs":[{"name":"poolHash","type":"bytes32","internalType":"bytes32"}],"outputs":[{"name":"","type":"uint256","internalType":"uint256"}],"stateMutability":"pure"},{"type":"function","name":"transferOwnership","inputs":[{"name":"newOwner","type":"address","internalType":"address"}],"outputs":[],"stateMutability":"nonpayable"},{"type":"function","name":"treasuryAddress","inputs":[],"outputs":[{"name":"","type":"address","internalType":"address"}],"stateMutability":"view"},{"type":"function","name":"unpause","inputs":[],"outputs":[],"stateMutability":"nonpayable"},{"type":"function","name":"uri","inputs":[{"name":"","type":"uint256","internalType":"uint256"}],"outputs":[{"name":"","type":"string","internalType":"string"}],"stateMutability":"view"},{"type":"function","name":"viewCollateralRefund","inputs":[{"name":"poolParams","type":"tuple[]","internalType":"struct ISilicaPools.PoolParams[]","components":[{"name":"floor","type":"uint128","internalType":"uint128"},{"name":"cap","type":"uint128","internalType":"uint128"},{"name":"index","type":"address","internalType":"address"},{"name":"targetStartTimestamp","type":"uint48","internalType":"uint48"},{"name":"targetEndTimestamp","type":"uint48","internalType":"uint48"},{"name":"payoutToken","type":"address","internalType":"address"}]},{"name":"shares","type":"uint256[]","internalType":"uint256[]"}],"outputs":[{"name":"expectedRefunds","type":"uint256[]","internalType":"uint256[]"}],"stateMutability":"view"},{"type":"function","name":"viewMaxCollateralRefund","inputs":[{"name":"poolParams","type":"tuple[]","internalType":"struct ISilicaPools.PoolParams[]","components":[{"name":"floor","type":"uint128","internalType":"uint128"},{"name":"cap","type":"uint128","internalType":"uint128"},{"name":"index","type":"address","internalType":"address"},{"name":"targetStartTimestamp","type":"uint48","internalType":"uint48"},{"name":"targetEndTimestamp","type":"uint48","internalType":"uint48"},{"name":"payoutToken","type":"address","internalType":"address"}]},{"name":"accounts","type":"address[]","internalType":"address[]"}],"outputs":[{"name":"expectedRefund","type":"uint256[]","internalType":"uint256[]"}],"stateMutability":"view"},{"type":"function","name":"viewRedeemLong","inputs":[{"name":"longParams","type":"tuple","internalType":"struct ISilicaPools.PoolParams","components":[{"name":"floor","type":"uint128","internalType":"uint128"},{"name":"cap","type":"uint128","internalType":"uint128"},{"name":"index","type":"address","internalType":"address"},{"name":"targetStartTimestamp","type":"uint48","internalType":"uint48"},{"name":"targetEndTimestamp","type":"uint48","internalType":"uint48"},{"name":"payoutToken","type":"address","internalType":"address"}]},{"name":"account","type":"address","internalType":"address"}],"outputs":[{"name":"expectedPayout","type":"uint256","internalType":"uint256"}],"stateMutability":"view"},{"type":"function","name":"viewRedeemShort","inputs":[{"name":"shortParams","type":"tuple","internalType":"struct ISilicaPools.PoolParams","components":[{"name":"floor","type":"uint128","internalType":"uint128"},{"name":"cap","type":"uint128","internalType":"uint128"},{"name":"index","type":"address","internalType":"address"},{"name":"targetStartTimestamp","type":"uint48","internalType":"uint48"},{"name":"targetEndTimestamp","type":"uint48","internalType":"uint48"},{"name":"payoutToken","type":"address","internalType":"address"}]},{"name":"account","type":"address","internalType":"address"}],"outputs":[{"name":"expectedPayout","type":"uint256","internalType":"uint256"}],"stateMutability":"view"},{"type":"event","name":"ApprovalForAll","inputs":[{"name":"account","type":"address","indexed":true,"internalType":"address"},{"name":"operator","type":"address","indexed":true,"internalType":"address"},{"name":"approved","type":"bool","indexed":false,"internalType":"bool"}],"anonymous":false},{"type":"event","name":"EIP712DomainChanged","inputs":[],"anonymous":false},{"type":"event","name":"OwnershipTransferStarted","inputs":[{"name":"previousOwner","type":"address","indexed":true,"internalType":"address"},{"name":"newOwner","type":"address","indexed":true,"internalType":"address"}],"anonymous":false},{"type":"event","name":"OwnershipTransferred","inputs":[{"name":"previousOwner","type":"address","indexed":true,"internalType":"address"},{"name":"newOwner","type":"address","indexed":true,"internalType":"address"}],"anonymous":false},{"type":"event","name":"SilicaPools__BountyIncreaseRateChanged","inputs":[{"name":"newRate","type":"uint256","indexed":false,"internalType":"uint256"}],"anonymous":false},{"type":"event","name":"SilicaPools__BountyPaid","inputs":[{"name":"poolHash","type":"bytes32","indexed":true,"internalType":"bytes32"},{"name":"bountyAmount","type":"uint256","indexed":false,"internalType":"uint256"},{"name":"receiver","type":"address","indexed":false,"internalType":"address"}],"anonymous":false},{"type":"event","name":"SilicaPools__CollateralizedMint","inputs":[{"name":"poolHash","type":"bytes32","indexed":true,"internalType":"bytes32"},{"name":"orderHash","type":"bytes32","indexed":true,"internalType":"bytes32"},{"name":"shortRecipient","type":"address","indexed":false,"internalType":"address"},{"name":"longRecipient","type":"address","indexed":false,"internalType":"address"},{"name":"payer","type":"address","indexed":true,"internalType":"address"},{"name":"payoutToken","type":"address","indexed":false,"internalType":"address"},{"name":"sharesMinted","type":"uint256","indexed":false,"internalType":"uint256"},{"name":"collateralAmount","type":"uint256","indexed":false,"internalType":"uint256"}],"anonymous":false},{"type":"event","name":"SilicaPools__FillFeeChanged","inputs":[{"name":"newFeeBps","type":"uint256","indexed":false,"internalType":"uint256"}],"anonymous":false},{"type":"event","name":"SilicaPools__FillFeePaid","inputs":[{"name":"payer","type":"address","indexed":true,"internalType":"address"},{"name":"poolHash","type":"bytes32","indexed":true,"internalType":"bytes32"},{"name":"orderHash","type":"bytes32","indexed":true,"internalType":"bytes32"},{"name":"tokenId","type":"uint256","indexed":false,"internalType":"uint256"},{"name":"tokenPaid","type":"address","indexed":false,"internalType":"address"},{"name":"amount","type":"uint256","indexed":false,"internalType":"uint256"}],"anonymous":false},{"type":"event","name":"SilicaPools__GracePeriodChanged","inputs":[{"name":"newGracePeriod","type":"uint256","indexed":false,"internalType":"uint256"}],"anonymous":false},{"type":"event","name":"SilicaPools__MaxBountyFractionChanged","inputs":[{"name":"newMaxFraction","type":"uint256","indexed":false,"internalType":"uint256"}],"anonymous":false},{"type":"event","name":"SilicaPools__OrderCancelled","inputs":[{"name":"orderHash","type":"bytes32","indexed":true,"internalType":"bytes32"}],"anonymous":false},{"type":"event","name":"SilicaPools__PauseProtocol","inputs":[],"anonymous":false},{"type":"event","name":"SilicaPools__PoolEnded","inputs":[{"name":"poolHash","type":"bytes32","indexed":true,"internalType":"bytes32"},{"name":"endingIndexBalance","type":"uint256","indexed":false,"internalType":"uint256"},{"name":"balanceChangePerShare","type":"uint128","indexed":false,"internalType":"uint128"}],"anonymous":false},{"type":"event","name":"SilicaPools__PoolStarted","inputs":[{"name":"poolHash","type":"bytes32","indexed":true,"internalType":"bytes32"},{"name":"floor","type":"uint128","indexed":false,"internalType":"uint128"},{"name":"cap","type":"uint128","indexed":false,"internalType":"uint128"},{"name":"targetStartTime","type":"uint48","indexed":false,"internalType":"uint48"},{"name":"targetEndTime","type":"uint48","indexed":false,"internalType":"uint48"},{"name":"index","type":"address","indexed":true,"internalType":"address"},{"name":"payoutToken","type":"address","indexed":true,"internalType":"address"},{"name":"indexShares","type":"uint128","indexed":false,"internalType":"uint128"},{"name":"indexInitialBalance","type":"uint128","indexed":false,"internalType":"uint128"}],"anonymous":false},{"type":"event","name":"SilicaPools__SharesRedeemed","inputs":[{"name":"poolHash","type":"bytes32","indexed":true,"internalType":"bytes32"},{"name":"recipient","type":"address","indexed":true,"internalType":"address"},{"name":"payoutToken","type":"address","indexed":true,"internalType":"address"},{"name":"tokenId","type":"uint256","indexed":false,"internalType":"uint256"},{"name":"sharesRedeemed","type":"uint256","indexed":false,"internalType":"uint256"},{"name":"payoutTokenAmount","type":"uint256","indexed":false,"internalType":"uint256"}],"anonymous":false},{"type":"event","name":"SilicaPools__SharesRefunded","inputs":[{"name":"poolHash","type":"bytes32","indexed":true,"internalType":"bytes32"},{"name":"recipient","type":"address","indexed":true,"internalType":"address"},{"name":"payoutToken","type":"address","indexed":true,"internalType":"address"},{"name":"sharesRefunded","type":"uint256","indexed":false,"internalType":"uint256"},{"name":"payoutTokenAmount","type":"uint256","indexed":false,"internalType":"uint256"}],"anonymous":false},{"type":"event","name":"SilicaPools__TradeHistoryEvent","inputs":[{"name":"orderHash","type":"bytes32","indexed":true,"internalType":"bytes32"},{"name":"maker","type":"address","indexed":true,"internalType":"address"},{"name":"taker","type":"address","indexed":true,"internalType":"address"},{"name":"offeredPoolHash","type":"bytes32","indexed":false,"internalType":"bytes32"},{"name":"requestedPoolHash","type":"bytes32","indexed":false,"internalType":"bytes32"},{"name":"offeredIndex","type":"address","indexed":false,"internalType":"address"},{"name":"requestedIndex","type":"address","indexed":false,"internalType":"address"},{"name":"filledFraction","type":"uint256","indexed":false,"internalType":"uint256"},{"name":"remainingFraction","type":"uint256","indexed":false,"internalType":"uint256"}],"anonymous":false},{"type":"event","name":"SilicaPools__TreasuryAddressChanged","inputs":[{"name":"newTreasuryAddress","type":"address","indexed":false,"internalType":"address"}],"anonymous":false},{"type":"event","name":"SilicaPools__UnpauseProtocol","inputs":[],"anonymous":false},{"type":"event","name":"SilicaPools__VolumeAccountingEvent","inputs":[{"name":"orderHash","type":"bytes32","indexed":true,"internalType":"bytes32"},{"name":"poolHash","type":"bytes32","indexed":false,"internalType":"bytes32"},{"name":"index","type":"address","indexed":true,"internalType":"address"},{"name":"payoutToken","type":"address","indexed":false,"internalType":"address"},{"name":"capMinusFloor","type":"uint256","indexed":false,"internalType":"uint256"},{"name":"sharesMinted","type":"uint256","indexed":false,"internalType":"uint256"},{"name":"sharesTransferred","type":"uint256","indexed":false,"internalType":"uint256"},{"name":"upfrontTokenAddr","type":"address","indexed":true,"internalType":"address"},{"name":"upfrontTokenAmount","type":"uint256","indexed":false,"internalType":"uint256"}],"anonymous":false},{"type":"event","name":"TransferBatch","inputs":[{"name":"operator","type":"address","indexed":true,"internalType":"address"},{"name":"from","type":"address","indexed":true,"internalType":"address"},{"name":"to","type":"address","indexed":true,"internalType":"address"},{"name":"ids","type":"uint256[]","indexed":false,"internalType":"uint256[]"},{"name":"values","type":"uint256[]","indexed":false,"internalType":"uint256[]"}],"anonymous":false},{"type":"event","name":"TransferSingle","inputs":[{"name":"operator","type":"address","indexed":true,"internalType":"address"},{"name":"from","type":"address","indexed":true,"internalType":"address"},{"name":"to","type":"address","indexed":true,"internalType":"address"},{"name":"id","type":"uint256","indexed":false,"internalType":"uint256"},{"name":"value","type":"uint256","indexed":false,"internalType":"uint256"}],"anonymous":false},{"type":"event","name":"URI","inputs":[{"name":"value","type":"string","indexed":false,"internalType":"string"},{"name":"id","type":"uint256","indexed":true,"internalType":"uint256"}],"anonymous":false},{"type":"error","name":"AddressEmptyCode","inputs":[{"name":"target","type":"address","internalType":"address"}]},{"type":"error","name":"AddressInsufficientBalance","inputs":[{"name":"account","type":"address","internalType":"address"}]},{"type":"error","name":"ECDSAInvalidSignature","inputs":[]},{"type":"error","name":"ECDSAInvalidSignatureLength","inputs":[{"name":"length","type":"uint256","internalType":"uint256"}]},{"type":"error","name":"ECDSAInvalidSignatureS","inputs":[{"name":"s","type":"bytes32","internalType":"bytes32"}]},{"type":"error","name":"ERC1155InsufficientBalance","inputs":[{"name":"sender","type":"address","internalType":"address"},{"name":"balance","type":"uint256","internalType":"uint256"},{"name":"needed","type":"uint256","internalType":"uint256"},{"name":"tokenId","type":"uint256","internalType":"uint256"}]},{"type":"error","name":"ERC1155InvalidApprover","inputs":[{"name":"approver","type":"address","internalType":"address"}]},{"type":"error","name":"ERC1155InvalidArrayLength","inputs":[{"name":"idsLength","type":"uint256","internalType":"uint256"},{"name":"valuesLength","type":"uint256","internalType":"uint256"}]},{"type":"error","name":"ERC1155InvalidOperator","inputs":[{"name":"operator","type":"address","internalType":"address"}]},{"type":"error","name":"ERC1155InvalidReceiver","inputs":[{"name":"receiver","type":"address","internalType":"address"}]},{"type":"error","name":"ERC1155InvalidSender","inputs":[{"name":"sender","type":"address","internalType":"address"}]},{"type":"error","name":"ERC1155MissingApprovalForAll","inputs":[{"name":"operator","type":"address","internalType":"address"},{"name":"owner","type":"address","internalType":"address"}]},{"type":"error","name":"FailedInnerCall","inputs":[]},{"type":"error","name":"InvalidShortString","inputs":[]},{"type":"error","name":"OwnableInvalidOwner","inputs":[{"name":"owner","type":"address","internalType":"address"}]},{"type":"error","name":"OwnableUnauthorizedAccount","inputs":[{"name":"account","type":"address","internalType":"address"}]},{"type":"error","name":"ReentrancyGuardReentrantCall","inputs":[]},{"type":"error","name":"SafeERC20FailedOperation","inputs":[{"name":"token","type":"address","internalType":"address"}]},{"type":"error","name":"SilicaPools__ArrayLengthMismatch","inputs":[]},{"type":"error","name":"SilicaPools__InvalidCaller","inputs":[{"name":"caller","type":"address","internalType":"address"},{"name":"expectedCaller","type":"address","internalType":"address"}]},{"type":"error","name":"SilicaPools__InvalidSignature","inputs":[{"name":"signature","type":"bytes","internalType":"bytes"}]},{"type":"error","name":"SilicaPools__OrderExpired","inputs":[{"name":"expiry","type":"uint256","internalType":"uint256"},{"name":"blockTimestamp","type":"uint256","internalType":"uint256"}]},{"type":"error","name":"SilicaPools__OrderIsCancelled","inputs":[{"name":"orderHash","type":"bytes32","internalType":"bytes32"}]},{"type":"error","name":"SilicaPools__PartialOrdersNotSupported","inputs":[{"name":"orderHash","type":"bytes32","internalType":"bytes32"}]},{"type":"error","name":"SilicaPools__Paused","inputs":[]},{"type":"error","name":"SilicaPools__PoolAlreadyEnded","inputs":[{"name":"poolHash","type":"bytes32","internalType":"bytes32"}]},{"type":"error","name":"SilicaPools__PoolAlreadyStarted","inputs":[{"name":"poolHash","type":"bytes32","internalType":"bytes32"}]},{"type":"error","name":"SilicaPools__PoolNotEnded","inputs":[{"name":"poolHash","type":"bytes32","internalType":"bytes32"}]},{"type":"error","name":"SilicaPools__TooEarlyToEnd","inputs":[{"name":"attemptedTimestamp","type":"uint256","internalType":"uint256"},{"name":"targetTimestamp","type":"uint256","internalType":"uint256"}]},{"type":"error","name":"SilicaPools__TooEarlyToStart","inputs":[{"name":"attemptedTimestamp","type":"uint256","internalType":"uint256"},{"name":"targetTimestamp","type":"uint256","internalType":"uint256"}]},{"type":"error","name":"StringTooLong","inputs":[{"name":"str","type":"string","internalType":"string"}]}],"userdoc":{},"devdoc":{},"evm":{"bytecode":{"object":"61016034620003f357601f6200520338819003918201601f19168301916001600160401b03831184841017620003755780849260c094604052833981010312620003f3578051620000536020830162000413565b91620000626040820162000413565b92606082015160a0608084015193015193604051926200008284620003f7565b600b845260208401936a53696c696361506f6f6c7360a81b855260405194620000ab86620003f7565b600186526020860191603160f81b8352604051602081019080821060018060401b0383111762000375575f9160405252600254600181811c91168015620003e8575b6020821014620003d457601f811162000389575b505f600255620001118162000444565b610120526200012087620005fc565b61014052519020948560e0525190209687610100524660a0526040519760208901957f8b73c3c69bb8fe3d512ecc4cf759cc79239f7b179b0ffacaa9a75d522b39400f875260408a015260608901524660808901523060a089015260a0885260c088019488861060018060401b0387111762000375576040869052885190206080523060c0526001600160a01b03918216948515620003605750947f2c8741c51ef15572035be75af521ed4878a6e3406c7fdea3494b5fbffdc107c6602080967fa8d4f499ed89ed61915e14bec2bd7bea8fb6c9701f14ce893bbc2e847d920d32828b987fd5862782a16cfe1b4efd87aa8ff52fe97b1b3300d25bbf2719b5cbd413cd9cd4827f9ee70d55a8fb5949bbafdc2c166db4f6b56a7f6827fcfc91202d433174fddd0d9a819a7f2e54a66023bd119d7da51cb6619e461b9f2d33f3749d492dcec52d5c6ce5f34b9f60018060a01b031998896006541660065582600554828c821617600555167f8be0079c531659141344cd1fd0a4f28419497f9722a3daafe3b4186f6b6457e05f80a36001600755168097620002c382151562000428565b6009541617600955620002db6103e882111562000428565b8060085583600d5589600e558c600f55604051908152a1604051908152a1604051908152a1604051908152a1604051908152a1604051614a489081620007bb82396080518161453a015260a051816145ef015260c05181614504015260e05181614589015261010051816145af01526101205181611194015261014051816111c00152f35b631e4fbdf760e01b81525f60c48a0152602490fd5b634e487b7160e01b5f52604160045260245ffd5b60025f52601f0160051c7f405787fa12a823e0f2b7631cc41b3ba8828b3321ca811111fa75cd3aa3bb5ace908101905b818110620003c8575062000101565b5f8155600101620003b9565b634e487b7160e01b5f52602260045260245ffd5b90607f1690620000ed565b5f80fd5b604081019081106001600160401b038211176200037557604052565b51906001600160a01b0382168203620003f357565b156200043057565b634e487b7160e01b5f52600160045260245ffd5b80516020919082811015620004e0575090601f8251116200048157808251920151908083106200047357501790565b825f19910360031b1b161790565b90604051809263305a27a960e01b82528060048301528251908160248401525f935b828510620004c6575050604492505f838284010152601f80199101168101030190fd5b8481018201518686016044015293810193859350620004a3565b6001600160401b03811162000375576003928354926001938481811c91168015620005f1575b83821014620003d457601f8111620005bb575b5081601f84116001146200055657509282939183925f946200054a575b50501b915f1990841b1c191617905560ff90565b015192505f8062000536565b919083601f198116875f52845f20945f905b88838310620005a0575050501062000588575b505050811b01905560ff90565b01515f1983861b60f8161c191690555f80806200057b565b85870151885590960195948501948793509081019062000568565b855f5284601f845f20920160051c820191601f860160051c015b828110620005e557505062000519565b5f8155018590620005d5565b90607f169062000506565b805160209190828110156200068a575090601f8251116200062b57808251920151908083106200047357501790565b90604051809263305a27a960e01b82528060048301528251908160248401525f935b82851062000670575050604492505f838284010152601f80199101168101030190fd5b84810182015186860160440152938101938593506200064d565b6001600160401b03811162000375576004928354926001938481811c91168015620007af575b838210146200079c57601f811162000766575b5081601f84116001146200070157509282939183925f94620006f5575b50501b915f199060031b1c191617905560ff90565b015192505f80620006e0565b919083601f198116875f52845f20945f905b888383106200074b57505050106200073257505050811b01905560ff90565b01515f1960f88460031b161c191690555f80806200057b565b85870151885590960195948501948793509081019062000713565b855f5284601f845f20920160051c820191601f860160051c015b82811062000790575050620006c3565b5f815501859062000780565b602286634e487b7160e01b5f525260245ffd5b90607f1690620006b056fe60806040526004361015610011575f80fd5b5f3560e01c8062fdd58e146103ca57806301ffc9a7146103c55780630e89341c146103c057806313208d1b146103bb57806319b87556146103b65780631d0fa9cf146103205780632556bc15146103b157806329fa8b87146103ac5780632eb2c2d6146103a7578063312f14ba146103a25780633305d6b11461039d57806334d2efe5146103985780633ba1a0df146103935780633f4ba83a1461038e5780634cd21543146103895780634e1273f414610384578063515941731461037f5780635889bf5e1461037a5780635b72928c146103755780635c975abb146103705780636605bfda1461036b5780636c0dc97914610339578063715018a61461036657806371e109d41461036157806378e890ba1461035c57806379ba5097146103575780637d1a7558146103525780638456cb591461034d57806384b0196e1461034857806388018540146103435780638ac86f1a1461033e5780638c8c29ce146103395780638da5cb5b146103345780638f409d261461032f578063934ed7321461032a578063992cc7cb146103255780639c9b381c14610320578063a0fadc351461031b578063a22cb46514610316578063a2b597ee14610311578063bda9f386146102cb578063c4cde46b1461030c578063c5f956af14610307578063c837a94114610302578063cae6047f146102fd578063ccaaa520146102f8578063d6dc6b04146102f3578063d7e5ae9f146102e4578063e0b01bac146102ee578063e1c67091146102c1578063e30c3978146102e9578063e5c168a8146102e4578063e985e9c5146102df578063ec9f8ae8146102da578063f0cd6751146102d5578063f242432a146102d0578063f2499585146102cb578063f2fde38b146102c6578063f50ec602146102c1578063f5d213f2146102bc5763fe2de08c146102b7575f80fd5b611cc1565b611c90565b6119a6565b611c20565b61171e565b611afe565b611a6b565b611a4f565b6119eb565b6118ce565b6119c3565b6118eb565b611882565b6117cc565b6117b0565b611791565b611769565b61173f565b611683565b6115d1565b6114c7565b610667565b611464565b6113fb565b611369565b6112fb565b610f8c565b611288565b61123c565b61117c565b61112f565b6110fe565b61107a565b611058565b611010565b610fa9565b610f03565b610ee1565b610e8d565b610e5e565b610e3c565b610d81565b610cd4565b610c87565b610b84565b610abf565b610a59565b610a37565b61090b565b6106fe565b610684565b610643565b6105e6565b61050f565b61044f565b6103f1565b6001600160a01b038116036103e057565b5f80fd5b35906103ef826103cf565b565b346103e05760403660031901126103e0576020610434600435610413816103cf565b6024355f525f835260405f209060018060a01b03165f5260205260405f2090565b54604051908152f35b6001600160e01b03198116036103e057565b346103e05760203660031901126103e057602060043561046e8161043d565b63ffffffff60e01b16636cdb3d1360e11b81149081156104ac575b811561049b575b506040519015158152f35b6301ffc9a760e01b1490505f610490565b6303a24d0760e21b81149150610489565b91908251928382525f5b8481106104e7575050825f602080949584010152601f8019910116010190565b6020818301810151848301820152016104c7565b90602061050c9281815201906104bd565b90565b346103e0576020806003193601126103e0576040515f9160025461053281613903565b808452906001908181169081156105c6575060011461056c575b6105688461055c81880382610809565b604051918291826104fb565b0390f35b60025f9081529294507f405787fa12a823e0f2b7631cc41b3ba8828b3321ca811111fa75cd3aa3bb5ace5b8284106105b357505050816105689361055c928201019361054c565b8054858501870152928501928101610597565b60ff1916858501525050151560051b820101915061055c8161056861054c565b346103e05760203660031901126103e0577f2e54a66023bd119d7da51cb6619e461b9f2d33f3749d492dcec52d5c6ce5f34b60206004356106256138ef565b80600f55604051908152a1005b60c09060031901126103e057600490565b346103e05760c03660031901126103e05761066561066036610632565b611f42565b005b346103e0575f3660031901126103e0576020600f54604051908152f35b346103e0575f3660031901126103e05760206040516103e88152f35b9181601f840112156103e0578235916001600160401b0383116103e05760208085019460c085020101116103e057565b60206003198201126103e057600435906001600160401b0382116103e0576106fa916004016106a0565b9091565b346103e05761070c366106d0565b610714614361565b5f5b818110610724576001600755005b8061077261073e610739610777948688611d19565b613194565b61075661ac1d61074e833361393b565b92183361393b565b90610762848789611d19565b918082101561077c5750906137ec565b611cf2565b610716565b9050906137ec565b634e487b7160e01b5f52604160045260245ffd5b60e081019081106001600160401b038211176107b357604052565b610784565b602081019081106001600160401b038211176107b357604052565b608081019081106001600160401b038211176107b357604052565b60c081019081106001600160401b038211176107b357604052565b90601f801991011681019081106001600160401b038211176107b357604052565b6001600160401b0381116107b35760051b60200190565b81601f820112156103e0578035916108588361082a565b926108666040519485610809565b808452602092838086019260051b8201019283116103e0578301905b828210610890575050505090565b81358152908301908301610882565b6001600160401b0381116107b357601f01601f191660200190565b9291926108c68261089f565b916108d46040519384610809565b8294818452818301116103e0578281602093845f960137010152565b9080601f830112156103e05781602061050c933591016108ba565b346103e05760a03660031901126103e05760048035610929816103cf565b602435610935816103cf565b6001600160401b03906044358281116103e0576109559036908601610841565b906064358381116103e05761096d9036908701610841565b926084359081116103e05761098590369087016108f0565b936001600160a01b03808216903382141580610a14575b6109e3578316156109cc57156109b65761066595506139db565b604051626a0d4560e21b81525f81880152602490fd5b604051632bfa23e760e11b81525f81890152602490fd5b6040805163711bec9160e11b815233818b019081526001600160a01b038616602082015290918291010390fd5b0390fd5b505f82815260016020908152604080832033845290915290205460ff161561099c565b346103e05760c03660031901126103e057610665610a5436610632565b61225f565b346103e05760c03660031901126103e057610665610a7636610632565b613089565b9081518082526020808093019301915f5b828110610a9a575050505090565b835185529381019392810192600101610a8c565b90602061050c928181520190610a7b565b346103e057610acd366106d0565b90610ad782611dcf565b915f5b818110610af7576040516020808252819061056890820187610a7b565b80610b0e610b09610b1e938587611d19565b6137bd565b610b188287611e01565b52611cf2565b610ada565b9181601f840112156103e0578235916001600160401b0383116103e0576020808501946102a085020101116103e057565b9181601f840112156103e0578235916001600160401b0383116103e0576020808501948460051b0101116103e057565b346103e05760603660031901126103e0576001600160401b036004358181116103e057610bb5903690600401610b23565b6024358381116103e057610bcd903690600401610b54565b90936044358181116103e057610be7903690600401610b54565b959093838114801590610c7d575b610c6b575f5b818110610c0457005b610c0f818389611d29565b9085811015610c66578060051b840135601e19853603018112156103e0578401918235928684116103e0576020019083360382136103e057610c619361077292610c5a858e8d611d44565b359261252d565b610bfb565b611d05565b604051633009a29d60e01b8152600490fd5b5086811415610bf5565b346103e0575f80600319360112610cd157610ca06138ef565b60ff19601054166010557ff9b5d9ff43c04557eb813158a432098c5d195947516dd9795ef5a11ecb047f368180a180f35b80fd5b346103e05760e03660031901126103e057610cee36610632565b60c43590610cfb826103cf565b610d0481613194565b91825f52600a60205260405f209065ffffffffffff600283015460301c1615610d685790610d52610d4c610d44610d58959461ac1d61056898189061393b565b933690611e36565b91611d54565b9061481d565b6040519081529081906020820190565b604051631fd4ba0360e01b815260048101859052602490fd5b346103e05760403660031901126103e0576004356001600160401b038082116103e057366023830112156103e0578160040135610dbd8161082a565b92610dcb6040519485610809565b81845260209160248386019160051b830101913683116103e057602401905b828210610e2357856024358681116103e05761056891610e11610e17923690600401610841565b9061395f565b60405191829182610aae565b8380918335610e31816103cf565b815201910190610dea565b346103e05760c03660031901126103e057610665610e5936610632565b612f84565b346103e05760203660031901126103e0576004355f52600b602052602060ff60405f2054166040519015158152f35b346103e057610e9b366106d0565b90610ea582611dcf565b915f5b818110610ec5576040516020808252819061056890820187610a7b565b80610b0e610ed7610edc938587611d19565b61371a565b610ea8565b346103e0575f3660031901126103e057602060ff601054166040519015158152f35b346103e05760203660031901126103e057600435610f20816103cf565b610f286138ef565b6001600160a01b03168015610f78576020817f2c8741c51ef15572035be75af521ed4878a6e3406c7fdea3494b5fbffdc107c6926001600160601b0360a01b6009541617600955604051908152a1005b634e487b7160e01b5f52600160045260245ffd5b346103e0575f3660031901126103e0576020600e54604051908152f35b346103e0575f80600319360112610cd157610fc26138ef565b600680546001600160a01b031990811690915560058054918216905581906001600160a01b03167f8be0079c531659141344cd1fd0a4f28419497f9722a3daafe3b4186f6b6457e08280a380f35b346103e0576101403660031901126103e05761066561102e36610632565b6101043561103b816103cf565b6101243591611049836103cf565b339060e4359060c435906134ef565b346103e0575f3660031901126103e0576020611072614501565b604051908152f35b346103e0575f80600319360112610cd1576006546001600160a01b0333818316036110e6576001600160601b0360a01b8092166006556005549133908316176005553391167f8be0079c531659141344cd1fd0a4f28419497f9722a3daafe3b4186f6b6457e08380a380f35b60405163118cdaa760e01b8152336004820152602490fd5b346103e05761110c366106d0565b905f5b82811061111857005b80610772610a5461112a938686611d19565b61110f565b346103e0575f80600319360112610cd1576111486138ef565b600160ff1960105416176010557f05204c23a38d23799ab593b867a0a8f7bb23ba80aa8308107716de014e257d9b8180a180f35b346103e0575f3660031901126103e05761120e6111b87f0000000000000000000000000000000000000000000000000000000000000000614615565b6105686111e47f00000000000000000000000000000000000000000000000000000000000000006146df565b61121c6111ef611db9565b91604051958695600f60f81b875260e0602088015260e08701906104bd565b9085820360408701526104bd565b904660608501523060808501525f60a085015283820360c0850152610a7b565b346103e05760203660031901126103e0577fa8d4f499ed89ed61915e14bec2bd7bea8fb6c9701f14ce893bbc2e847d920d32602060043561127b6138ef565b80600d55604051908152a1005b346103e05760e03660031901126103e0576112a236610632565b60c4356112ae816103cf565b6112b782613194565b91825f52600a60205260405f209165ffffffffffff600284015460301c1615610d6857906112f56112ef61056895610d58959461393b565b92611d54565b9061487f565b346103e0575f3660031901126103e0576005546040516001600160a01b039091168152602090f35b60406003198201126103e0576001600160401b03916004358381116103e0578261134f916004016106a0565b939093926024359182116103e0576106fa91600401610b54565b346103e05761137736611323565b8083949303610c6b5761138984611dcf565b935f90815b8181106113a357604051806105688982610aae565b806113b56107396113f693858a611d19565b8452600a6020526113ec60408520546113e26113d284898b611d44565b356001600160801b038316611eca565b9060801c90611edd565b610b18828a611e01565b61138e565b346103e05761140936611323565b90611412614361565b818303610c6b575f5b838110611429576001600755005b8061077261143b61144d938789611d19565b611446838787611d44565b35906137ec565b61141b565b6102a09060031901126103e057600490565b346103e0576102e03660031901126103e05761147f36611452565b6102a4356001600160401b038082116103e057366023830112156103e05781600401359081116103e05736602482840101116103e0576106659260246102c43593019061252d565b346103e05760203660031901126103e057600480356001600160401b0381116103e0576114f79036908301610b23565b5f5b81811061150257005b61150d818385611d29565b8035611518816103cf565b336001600160a01b039091160361158f579061153f61158a92611539614501565b9061331c565b611561611554825f52600b60205260405f2090565b805460ff19166001179055565b7fdae6f8929d076546361068a77fbf488bf65e58a76625628ede047a30311456a95f80a2611cf2565b6114f9565b6115998591611d3a565b604080516365d0b58b60e11b8152339381019384526001600160a01b03909216602084015290918291010390fd5b801515036103e057565b346103e05760403660031901126103e0576004356115ee816103cf565b6024356115fa816115c7565b6001600160a01b03821691821561166c57335f9081526001602090815260408083206001600160a01b039094168352929052209015159060ff1981541660ff83161790556040519081527f17307eab39ab6107e8899845ad3d59bd9653f200f220920489ca2b5937696c3160203392a3005b60405162ced3e160e81b81525f6004820152602490fd5b346103e05760203660031901126103e05760043561169f6138ef565b6103e881116116d9576020817fd5862782a16cfe1b4efd87aa8ff52fe97b1b3300d25bbf2719b5cbd413cd9cd492600855604051908152a1005b60405162461bcd60e51b815260206004820152601960248201527f43616e6e6f7420657863656564206d61782066656520425053000000000000006044820152606490fd5b346103e05760203660031901126103e057602060405161ac1d600435188152f35b346103e0576102c03660031901126103e057602061107261175f36611452565b6102a4359061331c565b346103e0575f3660031901126103e0576009546040516001600160a01b039091168152602090f35b346103e05760c03660031901126103e057602061107261073936610632565b346103e0575f3660031901126103e05760206040516127108152f35b346103e0576117da36611323565b905081929103610c6b576117ed82611dcf565b915f5b81811061180557604051806105688682610aae565b80611817610739611863938587611d19565b611821813361393b565b61184161183261ac1d84183361393b565b925f52600a60205260405f2090565b918082101561186857506113e2610b0e9254916001600160801b038316611eca565b6117f0565b90506113e2610b0e9254916001600160801b038316611eca565b346103e05760203660031901126103e0577f9ee70d55a8fb5949bbafdc2c166db4f6b56a7f6827fcfc91202d433174fddd0d60206004356118c16138ef565b80600e55604051908152a1005b346103e05760203660031901126103e05760206040516004358152f35b346103e05760203660031901126103e05760e060406119478160c0815161191181610798565b5f91818380935282602082015282858201528260608201528260808201528260a082015201526004358152600a60205220611d54565b9060c08151926001600160801b03928382511685528360208301511660208601528381830151169085015282606082015116606085015265ffffffffffff80608083015116608086015260a08201511660a085015201511660c0820152f35b346103e0575f3660031901126103e0576020600d54604051908152f35b346103e0575f3660031901126103e0576006546040516001600160a01b039091168152602090f35b346103e05760403660031901126103e057602060ff611a43600435611a0f816103cf565b60243590611a1c826103cf565b60018060a01b03165f526001845260405f209060018060a01b03165f5260205260405f2090565b54166040519015158152f35b346103e0575f3660031901126103e057602060405161ac1d8152f35b346103e05760403660031901126103e0576001600160401b036004358181116103e057611a9c9036906004016106a0565b90916024359081116103e057611ab69036906004016106a0565b9290915f5b818110611ae7575050505f5b828110611ad057005b80610772610a76611ae2938686611d19565b611ac7565b80610772610e59611af9938587611d19565b611abb565b346103e05760a03660031901126103e057600435611b1b816103cf565b602435611b27816103cf565b6084356001600160401b0381116103e057611b469036906004016108f0565b906001600160a01b03838116903382141580611bfd575b611bd657821615611bbe5715611ba75761066592611b9f6064356044359160405192600184526020840152604083019160018352606084015260808301604052565b9290916139db565b604051626a0d4560e21b81525f6004820152602490fd5b604051632bfa23e760e11b81525f6004820152602490fd5b60405163711bec9160e11b81523360048201526001600160a01b0386166024820152604490fd5b505f82815260016020908152604080832033845290915290205460ff1615611b5d565b346103e05760203660031901126103e057600435611c3d816103cf565b611c456138ef565b600680546001600160a01b0319166001600160a01b039283169081179091556005549091167f38d16b8cac22d99fc7c124b9cd0de2d3fa1faef420bfe791d8c362d765e227005f80a3005b346103e057611c9e366106d0565b905f5b828110611caa57005b80610772610660611cbc938686611d19565b611ca1565b346103e0575f3660031901126103e0576020600854604051908152f35b634e487b7160e01b5f52601160045260245ffd5b5f198114611d005760010190565b611cde565b634e487b7160e01b5f52603260045260245ffd5b9190811015610c665760c0020190565b9190811015610c66576102a0020190565b3561050c816103cf565b9190811015610c665760051b0190565b90604051611d6181610798565b60c0819360028154916001600160801b0392838116865260801c60208601526001810154838116604087015260801c6060860152015465ffffffffffff80821660808601528160301c1660a085015260601c16910152565b604051611dc5816107b8565b5f8152905f368137565b90611dd98261082a565b611de66040519182610809565b8281528092611df7601f199161082a565b0190602036910137565b8051821015610c665760209160051b010190565b6001600160801b038116036103e057565b65ffffffffffff8116036103e057565b91908260c09103126103e05760405160c081018181106001600160401b038211176107b35760405260a0611ec58183958035611e7181611e15565b85526020810135611e8181611e15565b60208601526040810135611e94816103cf565b60408601526060810135611ea781611e26565b60608601526080810135611eba81611e26565b6080860152016103e4565b910152565b81810292918115918404141715611d0057565b8115611ee7570490565b634e487b7160e01b5f52601260045260245ffd5b3561050c81611e26565b908160209103126103e0575190565b6040513d5f823e3d90fd5b6001600160801b039182169082160391908211611d0057565b3561050c81611e15565b611f4b81613194565b611f5d815f52600a60205260405f2090565b90604092611f7b611f6f858301611d3a565b6001600160a01b031690565b60608201611f96611f8b82611efb565b65ffffffffffff1690565b4210612227576002850165ffffffffffff80611fb8835465ffffffffffff1690565b1661220f5790611fdc91421665ffffffffffff1665ffffffffffff19825416179055565b8551630198a77d60e11b8152956001600160a01b039283169590602080896004818b5afa9889156121eb575f996121f0575b506001830180546001600160801b0319166001600160801b039a8b161781559382516316d3df1560e31b81529682886004818d5afa9182156121eb576120df6121b9966120a08e80967f9361bce27c5f68d35152d4a7f6dfae0f68bb882ebdb8bc14128a632dda9ab69a9d5f916121be575b508b546001600160801b0316911660801b6001600160801b031916178a55565b6120c56120ac8561371a565b9586166120c083546001600160801b031690565b611f1f565b6001600160801b03166001600160801b0319825416179055565b897f39cc814c3df1705a9d1bd4ec3a061f6fb23cb831bb8bc16c733ea10f0228624b61213560a085019561212081612119611f6f8a611d3a565b33906141f2565b88519081523360208201529081906040820190565b0390a261216a612164608061215d61215761214f87611f38565b988701611f38565b94611efb565b9401611efb565b93611d3a565b965494516001600160801b039485168152908416602082015265ffffffffffff918216604082015291166060820152988216166080808a01919091521c60a088015291169490819060c0820190565b0390a4565b6121de9150893d8b116121e4575b6121d68183610809565b810190611f05565b5f612080565b503d6121cc565b611f14565b81612208929a503d8b116121e4576121d68183610809565b975f61200e565b87516309ed6f7160e11b815260048101879052602490fd5b85612234610a1092611efb565b905163c7b7b42d60e01b815242600482015265ffffffffffff90911660248201529081906044820190565b61226881613194565b9061227b825f52600a60205260405f2090565b604061228b611f6f828501611d3a565b600283019065ffffffffffff90816122ad845465ffffffffffff9060301c1690565b1661251557608086016122c2611f8b82611efb565b42106124dd575083516316d3df1560e31b81526001600160a01b039190911695909460209283876004818b5afa9687156121eb575f976124b9575b506004949596978460018401549189519788809263313ce56760e01b82525afa9485156121eb578a965f9661249a575b5061233785611f38565b90850161234390611f38565b906001600160801b03968784169360801c9361235f948d6148d4565b6001600160801b031686546fffffffffffffffffffffffffffffffff60601b191660609190911b6fffffffffffffffffffffffffffffffff60601b1617865585546bffffffffffff0000000000001916429190911660301b6bffffffffffff000000000000161785556123d1826137bd565b92831681546123e6906001600160801b031690565b906123f091611f1f565b81546001600160801b0319166001600160801b0390911617905560a00161241690611d3a565b6001600160a01b0316813361242a926141f2565b83519081523360208201527f39cc814c3df1705a9d1bd4ec3a061f6fb23cb831bb8bc16c733ea10f0228624b90604090a254905191825260601c6001600160801b031660208201527fafeed4501a6753eefb924ea0eeb9a58b8d2ad05c8610190cd5f2c7160341a25590604090a2565b816124b29297503d88116121e4576121d68183610809565b945f61232d565b6004959697506124d590853d87116121e4576121d68183610809565b9695946122fd565b846124ea610a1092611efb565b905163bd7d315f60e01b815242600482015265ffffffffffff90911660248201529081906044820190565b83516366ddd3a160e11b815260048101889052602490fd5b929190612538614361565b60105460ff16612f1b5761255361254d614501565b8561331c565b91670de0b6b3a76400008403612f025761257f612578845f52600b60205260405f2090565b5460ff1690565b612ee9576125976125913683856108ba565b84614384565b916125a4611f6f87611d3a565b6001600160a01b0393841603612ecd575050602093848101826125c682611d3a565b16151580612eb9575b612e80575060408101906125e282611efb565b9165ffffffffffff928342911610612e48575060a0810191612629600261261961260b86613194565b5f52600a60205260405f2090565b015460301c65ffffffffffff1690565b16612e3c576101c0810194612648611f8b600261261961260b8a613194565b612e115760808201926001600160801b0361266285611f38565b16612dd5575b6101a083019061268661267a83611f38565b6001600160801b031690565b612d99575b61016084019161269d61267a84611f38565b612c39575b86889161267a9b6126b861028089019d8e611f38565b612a95575b506126da866126d4855f52600c60205260405f2090565b54612f54565b806126ed855f52600c60205260405f2090565b558b847fcdf14d08097048aab3781991ddff2f475333d35622e832d85d62b58f3fd0461e8a61271b81611d3a565b9461279961273161272b8c613194565b96613194565b918d61275561274f61020061274860e08901611d3a565b9701611d3a565b92612f61565b60408051998a5260208a01959095526001600160a01b039586169489019490945293166060870152608086019290925260a0850152339487169390819060c0820190565b0390a46127a861267a86611f38565b15801590612a81575b61293f575b50505050506127c761267a88611f38565b1580159061292b575b6127e6575b505050505050506103ef6001600755565b6127ef86613194565b916127fd6102008201611d3a565b9761280b6102608301611d3a565b976128196101e08401611f38565b9061282390611f38565b61282c91611f1f565b92808061283884611f38565b6001600160801b03169061284b91611eca565b670de0b6b3a764000090049261286090611f38565b6001600160801b03169061287391611eca565b670de0b6b3a764000090049260600161288b90611d3a565b9561289590611f38565b6001600160801b0316906128a891611eca565b604080519586526001600160a01b039990991660208601526001600160801b03939093169784019790975260608301969096526080820195909552670de0b6b3a764000090940460a085015281169316917fb42203ebc07d143dd2ce369b83b2713ddf67a9c96ec5e9e25f425ed88c0286259060c090a45f8080808080806127d5565b5061293861267a84611f38565b15156127d0565b61294884613194565b61295460e08901611d3a565b956129626101408a01611d3a565b9561296f60c08b01611f38565b9061297990611f38565b61298291611f1f565b90888061298e83611f38565b6001600160801b0316906129a191611eca565b670de0b6b3a76400009004916129b690611f38565b6001600160801b0316906129c991611eca565b670de0b6b3a7640000900490896129e36101808d01611d3a565b956129ed90611f38565b6001600160801b031690612a0091611eca565b604080519586526001600160a01b039990991660208601526001600160801b03939093169784019790975260608301969096526080820195909552670de0b6b3a764000090940460a085015281169316917fb42203ebc07d143dd2ce369b83b2713ddf67a9c96ec5e9e25f425ed88c0286259060c090a45f808686826127b6565b50612a8e61267a82611f38565b15156127b1565b80935060049250612aaf611f6f611f6f6102008b01611d3a565b60405163313ce56760e01b815293849182905afa9182156121eb57612bdf612b52888f8f8f98918f988e837fd251a84f70b303473d1a800f3bee17030d3936ce3f7c39e96744648d74906411610260612b778f95612b66612b6f91612bf49f8a8e61267a9d612b4d9f938c945f96612bfa575b5050612b6091612b4d61267a612b476101e0612b40612b5296611f38565b9801611f38565b95611f38565b611eca565b670de0b6b3a7640000900490565b916147da565b60085490611eca565b612710900490565b930192612b9e81612b8a611f6f87611d3a565b6009546001600160a01b0316903390614230565b612bb9612bb3612bad85613194565b94613194565b94611d3a565b604080519485526001600160a01b039190911660208501528301523391606090a4611f38565b33908d612beb8b611d3a565b918733926134ef565b5f6126bd565b612b5292965061267a612b476101e0612b40612c2a612b60989686612b4d97903d106121e4576121d68183610809565b9a965050505050819350612b22565b60048a612c4e611f6f611f6f60e08a01611d3a565b60405163313ce56760e01b815292839182905afa9182156121eb578b8a612ca6612b6f61267a9f83978c8f988d8c8e92612b66965f96612d5b575b5050612b6091612b4d61267a612b4760c0612b40612b5296611f38565b6101408a0190612cbc81612b8a611f6f85611d3a565b7fd251a84f70b303473d1a800f3bee17030d3936ce3f7c39e96744648d74906411612cf0612ce98a613194565b61ac1d1890565b91612cfd612bb38b613194565b604080519485526001600160a01b039190911660208501528301523391606090a4612d51612d34612b5289612b4d61267a8b611f38565b612d3d8a611d3a565b90612d478b611d3a565b913391888a6134ef565b9b509150506126a2565b612b5292965061267a612b4760c0612b40612d8a612b60989686612b4d97903d106121e4576121d68183610809565b9a96505050505050918a612c89565b612dd0612dac611f6f6101808701611d3a565b612db586611d3a565b612dc8612b5287612b4d61267a89611f38565b913390614230565b61268b565b612e0c612de7611f6f60608601611d3a565b612df085611d3a565b90612e04612b5286612b4d61267a8b611f38565b913391614230565b612668565b610a10612e1d87613194565b6040516366ddd3a160e11b815260048101919091529081906024820190565b610a10612e1d83613194565b612e54610a1091611efb565b604051632676a8cd60e21b815265ffffffffffff90911660048201524260248201529081906044820190565b612e8c610a1091611d3a565b6040516365d0b58b60e11b81523360048201526001600160a01b0390911660248201529081906044820190565b50612ec381611d3a565b83163314156125cf565b610a10604051928392634f11230760e01b845260048401612f2d565b60405163310cc63360e21b815260048101849052602490fd5b6040516318f8b05760e21b815260048101849052602490fd5b604051634815836b60e11b8152600490fd5b90918060409360208452816020850152848401375f828201840152601f01601f1916010190565b91908201809211611d0057565b90670de0b6b3a7640000918203918211611d0057565b91908203918211611d0057565b612f8d81613194565b612f9f815f52600a60205260405f2090565b65ffffffffffff600282015460301c161561307057907f25f71c4ab7405b63d0d765b761387ed58069d4c408f6562a526104549f8fb5da6121b960a061301561300f95855f525f6020526130063360405f209060018060a01b03165f5260205260405f2090565b54968791611d54565b8861487f565b95613021868633613d3b565b0161304e813591613031836103cf565b6001600160a01b0392613049908990339086166141f2565b611d3a565b1694604051918291339686846040919493926060820195825260208201520152565b604051631fd4ba0360e01b815260048101839052602490fd5b61309281613194565b906130a5825f52600a60205260405f2090565b9165ffffffffffff600284015460301c161561317a577f25f71c4ab7405b63d0d765b761387ed58069d4c408f6562a526104549f8fb5da61ac1d82189260a0613121613111336130fc885f525f60205260405f2090565b9060018060a01b03165f5260205260405f2090565b548097610d52610d4c3687611e36565b9161312d878733613d3b565b01613144823361313f611f6f85611d3a565b6141f2565b6001600160a01b039061315690611d3a565b16946121b96040519283923397846040919493926060820195825260208201520152565b604051631fd4ba0360e01b81526004810191909152602490fd5b803561319f81611e15565b6020820135916131ae83611e15565b6040810135906131bd826103cf565b60608101356131cb81611e26565b60a06080830135926131dc84611e26565b0135916131e8836103cf565b6040519460208601966001600160801b0319809260801b16885260801b1660308601526001600160601b0319809460601b16604086015265ffffffffffff60d01b809260d01b16605486015260d01b16605a84015260601b16606082015260548152613253816107d3565b51902090565b6103ef9092919260c061330e60a060e08401967f25036ae61bfc8d8512539bb2b64fb5ba7dcad72dca292e53cbc1b911b11a73e08552803561329a81611e15565b6001600160801b03809116602087015260208201356132b881611e15565b16604086015260408101356132cc816103cf565b600180841b0316606086015260608101356132e681611e26565b65ffffffffffff8091166080870152608082013561330381611e26565b1682860152016103e4565b6001600160a01b0316910152565b60405190602082018261333260a0840183613259565b0392601f199384810182526133479082610809565b519020916040516020810190806101c085016133639084613259565b0383810182526133739082610809565b5190209261338083611d3a565b61338c60208501611d3a565b9461339960408601611efb565b926133a660608701611d3a565b956133b360808201611f38565b916133c16101608301611f38565b906133cf6101808401611d3a565b916133dd6101a08501611f38565b93610280016133eb90611f38565b604080517fe150cacb97f549f136b51aebe10986dc8bb73d35181d725b8a20dac1ac0c26b7602082019081526001600160a01b039a8b16928201929092529c891660608e015265ffffffffffff9990991660808d015299871660a08c01526001600160801b0394851660c08c0152841660e08b01526101008a015290931661012088015291821661014087015293166101608501526101808401929092526101a0908101835290919061349e9082610809565b51902061050c916042916040519161190160f01b8352600283015260228201522090565b9190916001600160801b0380809416911601918211611d0057565b604051906134ea826107b8565b5f8252565b93919290936134fd81613194565b9365ffffffffffff61351c6002612619885f52600a60205260405f2090565b1661370157613530611f6f60408401611d3a565b93613543865f52600a60205260405f2090565b9261354d81611f38565b61355960208301611f38565b60405163313ce56760e01b81526001600160a01b0398602090829060049082908d165afa9182156121eb576135979387925f946136e1575b506147da565b9360a06001600160801b03926135de6135c28589166135bd86546001600160801b031690565b6134c2565b84546001600160801b0319166001600160801b03909116178455565b01916135f8866135f0611f6f86611d3a565b893091614230565b878416156136d9575b878b16156136d1575b84926130498a858e6136727f62ff7808ea00e583fb19d210477379494262a6440049251a11f0c053579477579d9c9b9997613652613698986121b99d166135bd835460801c90565b81546001600160801b031660809190911b6001600160801b031916179055565b61368561367d6134dd565b83858a613bfc565b61ac1d6136906134dd565b931890613bfc565b604080516001600160a01b039c8d168152928c1660208401529a16998101999099526060890152608088015291169490819060a0820190565b339a5061360a565b339350613601565b6136fa91945060203d81116121e4576121d68183610809565b925f613591565b6040516366ddd3a160e11b815260048101869052602490fd5b61372381613194565b5f52600a60205260606001600160801b0360405f20541691019081359061374982611e26565b65ffffffffffff600d54921691808301809311611d005761050c93612b52935f904211156137b5575061379c9161378e613788611f8b61379394611efb565b42612f77565b612f77565b600f5490611eca565b600e5490818111156137ae5750611eca565b9050611eca565b91505061379c565b6137c681613194565b5f52600a60205260806001600160801b0360405f20541691019081359061374982611e26565b906137f682613194565b805f52600a6020527fcf1a3ef0f593752183a234e8be19cfee17604bb89ac440a2082af12cb1e521296121b960a060405f20956138ab8754976120c58961388561386561385b6138508d6001600160801b03809616611eca565b9d60801c809e611edd565b9c838d1690611f1f565b84546001600160801b031660809190911b6001600160801b031916178455565b6138908a8a33613d3b565b61389f8a61ac1d8b1833613d3b565b808b1690835416611f1f565b0135946138b7866103cf565b6001600160a01b038616956138d6906138d183338a6141f2565b6103cf565b6040805195865260208601919091523394918291820190565b6005546001600160a01b031633036110e657565b90600182811c92168015613931575b602083101461391d57565b634e487b7160e01b5f52602260045260245ffd5b91607f1691613912565b5f918252602082815260408084206001600160a01b03909316845291905290205490565b919091805183518082036139b95750506139798151611dcf565b905f5b81518110156139b257806139a36139ad9260051b602080828701015191890101519061393b565b610b188286611e01565b61397c565b5090925050565b604051635b05999160e01b815260048101919091526024810191909152604490fd5b9491909181518451908181036139b95750505f5b8251811015613ae257600581901b83810160209081015191870101516001600160a01b03929186908a8516613a61575b613a32948216613a37575b505050611cf2565b6139ef565b613a57916130fc613a4f925f525f60205260405f2090565b918254612f54565b90555f8581613a2a565b9192939050613a7b8a6130fc845f525f60205260405f2090565b54838110613aab5791879184613a3296959403613aa38d6130fc855f525f60205260405f2090565b559450613a1f565b6040516303dee4c560e01b81526001600160a01b038c16600482015260248101919091526044810184905260648101839052608490fd5b5094919392909360018551145f14613b8c576020858101518382015160408051928352928201526001600160a01b03838116929086169133917fc3d58168c5ae7397731d063d5bbf3d657854427343f4c083240f7aacaa2d0f6291a45b6001600160a01b038116613b55575b5050505050565b8451600103613b7b57602080613b719601519201519233614072565b5f80808080613b4e565b613b87949192336141bb565b613b71565b6040516001600160a01b03828116919085169033907f4a39dc06d4c0dbc64b70af90fd698a233a518aa5d07e595d983b8c0526c8f7fb9080613bcf888c83613bd7565b0390a4613b3f565b9091613bee61050c93604084526040840190610a7b565b916020818403910152610a7b565b6001600160a01b03811693929091908415611bbe57613c3860405192600184526020840152604083019160018352606084015260808301604052565b9281518451908181036139b95750505f5b8251811015613c8b5780613c869160051b613c7f613a4f876130fc602080868b010151958c010151945f525f60205260405f2090565b9055611cf2565b613c49565b5092919360018251145f14613d00576020828101518482015160408051928352928201525f9133917fc3d58168c5ae7397731d063d5bbf3d657854427343f4c083240f7aacaa2d0f629190a45b8051600103613cf657906020806103ef959301519101519133613f7a565b6103ef9333614186565b5f6040517f4a39dc06d4c0dbc64b70af90fd698a233a518aa5d07e595d983b8c0526c8f7fb339180613d33888883613bd7565b0390a4613cd8565b6001600160a01b038116929091908315611ba757613d7660405192600184526020840152604083019160018352606084015260808301604052565b91906040945f8651613d87816107b8565b528151845190818103613eb25750505f5b8251811015613e2d578060051b60208082860101519187010151613dc7866130fc845f525f60205260405f2090565b54818110613df757866130fc613df2959493613dec9303935f525f60205260405f2090565b55611cf2565b613d98565b89516303dee4c560e01b81526001600160a01b038816600482015260248101919091526044810182905260648101839052608490fd5b5094905f9493925060018151148514613e805760209081015192810151915192835282015233907fc3d58168c5ae7397731d063d5bbf3d657854427343f4c083240f7aacaa2d0f629080604081016121b9565b905133927f4a39dc06d4c0dbc64b70af90fd698a233a518aa5d07e595d983b8c0526c8f7fb9282916121b99183613bd7565b8751635b05999160e01b815260048101919091526024810191909152604490fd5b908160209103126103e0575161050c8161043d565b909260a09261050c9594600180861b031683525f60208401526040830152606082015281608082015201906104bd565b919261050c95949160a094600180871b0380921685521660208401526040830152606082015281608082015201906104bd565b3d15613f75573d90613f5c8261089f565b91613f6a6040519384610809565b82523d5f602084013e565b606090565b9293919093843b613f8c575050505050565b602091613faf604051948593849363f23a6e6160e01b9889865260048601613ee8565b03815f6001600160a01b0388165af15f9181614042575b506140055782613fd4613f4b565b8051919082613ffe57604051632bfa23e760e11b81526001600160a01b0383166004820152602490fd5b9050602001fd5b6001600160e01b0319160361401f57505f80808080613b4e565b604051632bfa23e760e11b81526001600160a01b03919091166004820152602490fd5b61406491925060203d811161406b575b61405c8183610809565b810190613ed3565b905f613fc6565b503d614052565b939290949194853b614087575b505050505050565b6140aa602093604051958694859463f23a6e6160e01b998a875260048701613f18565b03815f6001600160a01b0388165af15f91816140ea575b506140cf5782613fd4613f4b565b6001600160e01b0319160361401f57505f808080808061407f565b61410391925060203d811161406b5761405c8183610809565b905f6140c1565b9261413861050c95936141469360018060a01b031686525f602087015260a0604087015260a0860190610a7b565b908482036060860152610a7b565b9160808184039101526104bd565b939061050c9593614138916141469460018060a01b03809216885216602087015260a0604087015260a0860190610a7b565b9293919093843b614198575050505050565b602091613faf604051948593849363bc197c8160e01b988986526004860161410a565b939290949194853b6141cf57505050505050565b6140aa602093604051958694859463bc197c8160e01b998a875260048701614154565b60405163a9059cbb60e01b60208201526001600160a01b0390921660248301526044808301939093529181526103ef9161422b826107d3565b614284565b6040516323b872dd60e01b60208201526001600160a01b03928316602482015292909116604483015260648083019390935291815260a08101918183106001600160401b038411176107b3576103ef926040525b5f806142ac9260018060a01b03169360208151910182865af16142a5613f4b565b90836142fe565b80519081151591826142da575b50506142c25750565b60249060405190635274afe760e01b82526004820152fd5b81925090602091810103126103e057602001516142f6816115c7565b155f806142b9565b90614325575080511561431357805190602001fd5b604051630a12f52160e11b8152600490fd5b81511580614358575b614336575090565b604051639996b31560e01b81526001600160a01b039091166004820152602490fd5b50803b1561432e565b600260075414614372576002600755565b604051633ee5aeb560e01b8152600490fd5b61050c916143919161439a565b90929192614474565b81519190604183036143ca576143c39250602082015190606060408401519301515f1a906143d4565b9192909190565b50505f9160029190565b91907f7fffffffffffffffffffffffffffffff5d576e7357a4501ddfe92f46681b20a0841161444b57926020929160ff6080956040519485521684840152604083015260608201525f92839182805260015afa156121eb5780516001600160a01b0381161561444257918190565b50809160019190565b5050505f9160039190565b6004111561446057565b634e487b7160e01b5f52602160045260245ffd5b61447d81614456565b80614486575050565b61448f81614456565b600181036144a95760405163f645eedf60e01b8152600490fd5b6144b281614456565b600281036144d35760405163fce698f760e01b815260048101839052602490fd5b806144df600392614456565b146144e75750565b6040516335e2f38360e21b81526004810191909152602490fd5b307f00000000000000000000000000000000000000000000000000000000000000006001600160a01b031614806145ec575b1561455c577f000000000000000000000000000000000000000000000000000000000000000090565b60405160208101907f8b73c3c69bb8fe3d512ecc4cf759cc79239f7b179b0ffacaa9a75d522b39400f82527f000000000000000000000000000000000000000000000000000000000000000060408201527f000000000000000000000000000000000000000000000000000000000000000060608201524660808201523060a082015260a08152613253816107ee565b507f00000000000000000000000000000000000000000000000000000000000000004614614533565b60ff81146146265761050c90614786565b50604051600354815f61463883613903565b808352926001908181169081156146bd575060011461465f575b5061050c92500382610809565b60035f90815291507fc2575a0e9e593c00f959f8c92f12db2869c3395a3b0502d05e2516446f71f85b5b8483106146a2575061050c93505081016020015f614652565b81935090816020925483858901015201910190918492614689565b90506020925061050c94915060ff191682840152151560051b8201015f614652565b60ff81146146f05761050c90614786565b50604051600454815f61470283613903565b808352926001908181169081156146bd5750600114614728575061050c92500382610809565b60045f90815291507f8a35acfbc15ff81a39ae7d344fd709f28e8600b4aa8c65c6b64bfe7fe36bd19b5b84831061476b575061050c93505081016020015f614652565b81935090816020925483858901015201910190918492614752565b60ff811690601f82116147ba5760405191604083018381106001600160401b038211176107b3576040528252602082015290565b604051632cd44ac360e21b8152600490fd5b604d8111611d0057600a0a90565b916001600160801b036147f36147ff946147f994611f1f565b16611eca565b916147cc565b801561481057808204910615150190565b6365244e4e5f526004601cfd5b602061487561050c94612b4d61486e94848101906001600160801b0396879182806148628c8280614858818b51168260c08601511690611f1f565b1691511690611eca565b95511691511690611f1f565b1690611edd565b9201511690611edd565b602061487561050c94612b4d6001600160801b03948561486e8160c08a015116876148bf846148b4873580956120c082611e15565b16858d511690611eca565b9401356148cb81611e15565b6120c082611e15565b919490926001600160801b0380809516961695861561499f578084106149295761050c9661491686936149106147f961491b9561492299612f77565b90611eca565b611edd565b91166149f3565b9116614a05565b60405162461bcd60e51b815260206004820152604260248201527f496e6465782062616c616e6365206d757374206265206772656174657220746860448201527f616e206f7220657175616c20746f2074686520696e697469616c2062616c616e606482015261636560f01b608482015260a490fd5b60405162461bcd60e51b815260206004820152602660248201527f496e64657820736861726573206d7573742062652067726561746572207468616044820152656e207a65726f60d01b6064820152608490fd5b9080821015614a00575090565b905090565b9080821115614a0057509056fea26469706673582212208fcce1b8806c9d42d6f1065768dedad3c9e1966f1c74cbb2968d54c12228a55164736f6c63430008140033","linkReferences":{}},"methodIdentifiers":{"INVERSE_BASIS_POINT()":"cae6047f","MAX_FILL_FEE_BPS()":"2556bc15","TOKENID_SALT()":"ec9f8ae8","acceptOwnership()":"79ba5097","balanceOf(address,uint256)":"00fdd58e","balanceOfBatch(address[],uint256[])":"4e1273f4","bountyFractionIncreasePerSecond()":"1d0fa9cf","bountyGracePeriod()":"e1c67091","cancelOrders((address,address,uint48,address,uint128,(uint128,uint128,address,uint48,uint48,address),uint128,address,uint128,(uint128,uint128,address,uint48,uint48,address),uint128)[])":"a0fadc35","collateralRefund((uint128,uint128,address,uint48,uint48,address)[],uint256[])":"934ed732","collateralizedMint((uint128,uint128,address,uint48,uint48,address),bytes32,uint256,address,address)":"71e109d4","domainSeparatorV4()":"78e890ba","eip712Domain()":"84b0196e","endBounty((uint128,uint128,address,uint48,uint48,address)[])":"34d2efe5","endPool((uint128,uint128,address,uint48,uint48,address))":"312f14ba","endPools((uint128,uint128,address,uint48,uint48,address)[])":"7d1a7558","fillFeeBps()":"fe2de08c","fillOrder((address,address,uint48,address,uint128,(uint128,uint128,address,uint48,uint48,address),uint128,address,uint128,(uint128,uint128,address,uint48,uint48,address),uint128),bytes,uint256)":"992cc7cb","fillOrders((address,address,uint48,address,uint128,(uint128,uint128,address,uint48,uint48,address),uint128,address,uint128,(uint128,uint128,address,uint48,uint48,address),uint128)[],bytes[],uint256[])":"3ba1a0df","fromLongTokenId(uint256)":"d7e5ae9f","fromShortTokenId(uint256)":"f2499585","hashOrder((address,address,uint48,address,uint128,(uint128,uint128,address,uint48,uint48,address),uint128,address,uint128,(uint128,uint128,address,uint48,uint48,address),uint128),bytes32)":"c4cde46b","hashPool((uint128,uint128,address,uint48,uint48,address))":"c837a941","isApprovedForAll(address,address)":"e985e9c5","maxBountyFraction()":"6c0dc979","maxCollateralRefund((uint128,uint128,address,uint48,uint48,address)[])":"29fa8b87","orderCancelled(bytes32)":"5889bf5e","owner()":"8da5cb5b","pause()":"8456cb59","paused()":"5c975abb","pendingOwner()":"e30c3978","poolState(bytes32)":"e0b01bac","redeem((uint128,uint128,address,uint48,uint48,address)[],(uint128,uint128,address,uint48,uint48,address)[])":"f0cd6751","redeemLong((uint128,uint128,address,uint48,uint48,address))":"51594173","redeemShort((uint128,uint128,address,uint48,uint48,address))":"3305d6b1","renounceOwnership()":"715018a6","sBountyFractionIncreasePerSecond()":"9c9b381c","sBountyGracePeriod()":"f50ec602","sMaxBountyFraction()":"8c8c29ce","safeBatchTransferFrom(address,address,uint256[],uint256[],bytes)":"2eb2c2d6","safeTransferFrom(address,address,uint256,uint256,bytes)":"f242432a","setApprovalForAll(address,bool)":"a22cb465","setBountyFractionIncreasePerSecond(uint256)":"13208d1b","setBountyGracePeriod(uint256)":"88018540","setFillFeeBps(uint256)":"a2b597ee","setMaxBountyFraction(uint256)":"d6dc6b04","setTreasuryAddress(address)":"6605bfda","startBounty((uint128,uint128,address,uint48,uint48,address)[])":"5b72928c","startPool((uint128,uint128,address,uint48,uint48,address))":"19b87556","startPools((uint128,uint128,address,uint48,uint48,address)[])":"f5d213f2","supportsInterface(bytes4)":"01ffc9a7","toLongTokenId(bytes32)":"e5c168a8","toShortTokenId(bytes32)":"bda9f386","transferOwnership(address)":"f2fde38b","treasuryAddress()":"c5f956af","unpause()":"3f4ba83a","uri(uint256)":"0e89341c","viewCollateralRefund((uint128,uint128,address,uint48,uint48,address)[],uint256[])":"8f409d26","viewMaxCollateralRefund((uint128,uint128,address,uint48,uint48,address)[],address[])":"ccaaa520","viewRedeemLong((uint128,uint128,address,uint48,uint48,address),address)":"8ac86f1a","viewRedeemShort((uint128,uint128,address,uint48,uint48,address),address)":"4cd21543"}}}}}