{"abi":[{"type":"constructor","inputs":[],"stateMutability":"nonpayable"},{"type":"function","name":"executeOnOpportunity","inputs":[],"outputs":[],"stateMutability":"nonpayable"},{"type":"function","name":"profitAmount","inputs":[],"outputs":[{"name":"","type":"uint256","internalType":"uint256"}],"stateMutability":"view"},{"type":"function","name":"profitToken","inputs":[],"outputs":[{"name":"","type":"address","internalType":"address"}],"stateMutability":"pure"},{"type":"function","name":"receiveFlashLoan","inputs":[{"name":"tokens","type":"address[]","internalType":"address[]"},{"name":"amounts","type":"uint256[]","internalType":"uint256[]"},{"name":"feeAmounts","type":"uint256[]","internalType":"uint256[]"},{"name":"","type":"bytes","internalType":"bytes"}],"outputs":[],"stateMutability":"nonpayable"},{"type":"error","name":"DepositDidNotCreateStake","inputs":[]},{"type":"error","name":"ExistingStakeBlocksPath","inputs":[{"name":"totalStaked","type":"uint256","internalType":"uint256"}]},{"type":"error","name":"FlashLoanRepaymentFailed","inputs":[{"name":"have","type":"uint256","internalType":"uint256"},{"name":"owe","type":"uint256","internalType":"uint256"}]},{"type":"error","name":"InsufficientDirectCapital","inputs":[{"name":"have","type":"uint256","internalType":"uint256"},{"name":"need","type":"uint256","internalType":"uint256"}]},{"type":"error","name":"NoNetProfit","inputs":[{"name":"initialBalance","type":"uint256","internalType":"uint256"},{"name":"finalBalance","type":"uint256","internalType":"uint256"}]},{"type":"error","name":"NoRewardBacklogAfterZeroStake","inputs":[]},{"type":"error","name":"UnauthorizedFlashLoanCallback","inputs":[{"name":"caller","type":"address","internalType":"address"}]},{"type":"error","name":"UnexpectedFlashLoan","inputs":[{"name":"tokenCount","type":"uint256","internalType":"uint256"},{"name":"amountCount","type":"uint256","internalType":"uint256"},{"name":"feeCount","type":"uint256","internalType":"uint256"}]},{"type":"error","name":"UnexpectedFlashLoanToken","inputs":[{"name":"token","type":"address","internalType":"address"}]},{"type":"error","name":"WrongUnderlying","inputs":[{"name":"actualUnderlying","type":"address","internalType":"address"}]}],"bytecode":{"object":"0x6080604052348015600e575f5ffd5b50611b5d8061001c5f395ff3fe608060405234801561000f575f5ffd5b506004361061004a575f3560e01c80633c2448ed1461004e57806349343624146100585780635ff972cc14610076578063f04f270714610094575b5f5ffd5b6100566100b0565b005b610060610601565b60405161006d9190611099565b60405180910390f35b61007e61061c565b60405161008b91906110ca565b60405180910390f35b6100ae60048036038101906100a99190611408565b610624565b005b5f5f81905550739ae380f0272e2162340a5bb646c354271c0f5cfc73ffffffffffffffffffffffffffffffffffffffff166370a08231306040518263ffffffff1660e01b81526004016101039190611099565b602060405180830381865afa15801561011e573d5f5f3e3d5ffd5b505050506040513d601f19601f8201168201806040525081019061014291906114f0565b6001819055505f73bb787d6243a8d450659e09ea6fd82f1c859691e973ffffffffffffffffffffffffffffffffffffffff16636f307dc36040518163ffffffff1660e01b8152600401602060405180830381865afa1580156101a6573d5f5f3e3d5ffd5b505050506040513d601f19601f820116820180604052508101906101ca919061152f565b905073c02aaa39b223fe8d0a0e5c4f27ead9083c756cc273ffffffffffffffffffffffffffffffffffffffff168173ffffffffffffffffffffffffffffffffffffffff161461025057806040517f63ef12290000000000000000000000000000000000000000000000000000000081526004016102479190611099565b60405180910390fd5b73c02aaa39b223fe8d0a0e5c4f27ead9083c756cc273ffffffffffffffffffffffffffffffffffffffff1663095ea7b373bb787d6243a8d450659e09ea6fd82f1c859691e97fffffffffffffffffffffffffffffffffffffffffffffffffffffffffffffffff6040518363ffffffff1660e01b81526004016102d392919061155a565b6020604051808303815f875af11580156102ef573d5f5f3e3d5ffd5b505050506040513d601f19601f8201168201806040525081019061031391906115b6565b610352576040517f08c379a00000000000000000000000000000000000000000000000000000000081526004016103499061163b565b60405180910390fd5b5f73c02aaa39b223fe8d0a0e5c4f27ead9083c756cc273ffffffffffffffffffffffffffffffffffffffff166370a08231306040518263ffffffff1660e01b81526004016103a09190611099565b602060405180830381865afa1580156103bb573d5f5f3e3d5ffd5b505050506040513d601f19601f820116820180604052508101906103df91906114f0565b9050662386f26fc10000811061040e576103ff662386f26fc100006109f3565b610407610df1565b50506105ff565b5f600167ffffffffffffffff81111561042a57610429611108565b5b6040519080825280602002602001820160405280156104585781602001602082028036833780820191505090505b50905073c02aaa39b223fe8d0a0e5c4f27ead9083c756cc2815f8151811061048357610482611659565b5b602002602001019073ffffffffffffffffffffffffffffffffffffffff16908173ffffffffffffffffffffffffffffffffffffffff16815250505f600167ffffffffffffffff8111156104d9576104d8611108565b5b6040519080825280602002602001820160405280156105075781602001602082028036833780820191505090505b50905066470de4df820000815f8151811061052557610524611659565b5b602002602001018181525050600160025f6101000a81548160ff02191690831515021790555073ba12222222228d8ba445958a75a0704d566bf2c873ffffffffffffffffffffffffffffffffffffffff16635c38449e30848460405180602001604052805f8152506040518563ffffffff1660e01b81526004016105ac9493929190611854565b5f604051808303815f87803b1580156105c3575f5ffd5b505af11580156105d5573d5f5f3e3d5ffd5b505050505f60025f6101000a81548160ff0219169083151502179055506105fa610df1565b505050505b565b5f739ae380f0272e2162340a5bb646c354271c0f5cfc905090565b5f5f54905090565b73ba12222222228d8ba445958a75a0704d566bf2c873ffffffffffffffffffffffffffffffffffffffff163373ffffffffffffffffffffffffffffffffffffffff16146106a857336040517f07c55c6700000000000000000000000000000000000000000000000000000000815260040161069f9190611099565b60405180910390fd5b60025f9054906101000a900460ff1615806106c557506001845114155b806106d257506001835114155b806106df57506001825114155b15610728578351835183516040517fe3a70c9800000000000000000000000000000000000000000000000000000000815260040161071f939291906118ac565b60405180910390fd5b73c02aaa39b223fe8d0a0e5c4f27ead9083c756cc273ffffffffffffffffffffffffffffffffffffffff16845f8151811061076657610765611659565b5b602002602001015173ffffffffffffffffffffffffffffffffffffffff16146107e057835f8151811061079c5761079b611659565b5b60200260200101516040517fc2ed532f0000000000000000000000000000000000000000000000000000000081526004016107d79190611099565b60405180910390fd5b6107f0662386f26fc100006109f3565b5f825f8151811061080457610803611659565b5b6020026020010151845f8151811061081f5761081e611659565b5b6020026020010151610831919061190e565b90505f73c02aaa39b223fe8d0a0e5c4f27ead9083c756cc273ffffffffffffffffffffffffffffffffffffffff166370a08231306040518263ffffffff1660e01b81526004016108819190611099565b602060405180830381865afa15801561089c573d5f5f3e3d5ffd5b505050506040513d601f19601f820116820180604052508101906108c091906114f0565b9050818110156109095780826040517f9c2f7a42000000000000000000000000000000000000000000000000000000008152600401610900929190611941565b60405180910390fd5b73c02aaa39b223fe8d0a0e5c4f27ead9083c756cc273ffffffffffffffffffffffffffffffffffffffff1663a9059cbb73ba12222222228d8ba445958a75a0704d566bf2c8846040518363ffffffff1660e01b815260040161096c92919061155a565b6020604051808303815f875af1158015610988573d5f5f3e3d5ffd5b505050506040513d601f19601f820116820180604052508101906109ac91906115b6565b6109eb576040517f08c379a00000000000000000000000000000000000000000000000000000000081526004016109e2906119b2565b60405180910390fd5b505050505050565b662386f26fc10000811015610a485780662386f26fc100006040517f8cf0ac15000000000000000000000000000000000000000000000000000000008152600401610a3f929190611941565b60405180910390fd5b5f610a51610ee0565b90505f8173ffffffffffffffffffffffffffffffffffffffff16635598b20973bb787d6243a8d450659e09ea6fd82f1c859691e96040518263ffffffff1660e01b8152600401610aa19190611099565b602060405180830381865afa158015610abc573d5f5f3e3d5ffd5b505050506040513d601f19601f82011682018060405250810190610ae091906114f0565b90505f8114610b2657806040517f1254f926000000000000000000000000000000000000000000000000000000008152600401610b1d91906110ca565b60405180910390fd5b73bb787d6243a8d450659e09ea6fd82f1c859691e973ffffffffffffffffffffffffffffffffffffffff166343a0d066662386f26fc100005f60016040518463ffffffff1660e01b8152600401610b7f93929190611a21565b6020604051808303815f875af1158015610b9b573d5f5f3e3d5ffd5b505050506040513d601f19601f82011682018060405250810190610bbf91906114f0565b505f8273ffffffffffffffffffffffffffffffffffffffff1663fa4083ca73bb787d6243a8d450659e09ea6fd82f1c859691e9306040518363ffffffff1660e01b8152600401610c10929190611a56565b602060405180830381865afa158015610c2b573d5f5f3e3d5ffd5b505050506040513d601f19601f82011682018060405250810190610c4f91906114f0565b90505f8103610c8a576040517fa22dfceb00000000000000000000000000000000000000000000000000000000815260040160405180910390fd5b5f5f5f610c95610fd3565b73ffffffffffffffffffffffffffffffffffffffff1663d9ceab136040518163ffffffff1660e01b81526004016060604051808303815f875af1158015610cde573d5f5f3e3d5ffd5b505050506040513d601f19601f82011682018060405250810190610d029190611a7d565b9250925092505f83148015610d1657505f82145b8015610d2157505f81145b15610d58576040517f61c0c80a00000000000000000000000000000000000000000000000000000000815260040160405180910390fd5b73bb787d6243a8d450659e09ea6fd82f1c859691e973ffffffffffffffffffffffffffffffffffffffff166310aec8f9855f6040518363ffffffff1660e01b8152600401610da7929190611acd565b6020604051808303815f875af1158015610dc3573d5f5f3e3d5ffd5b505050506040513d601f19601f82011682018060405250810190610de791906114f0565b5050505050505050565b5f739ae380f0272e2162340a5bb646c354271c0f5cfc73ffffffffffffffffffffffffffffffffffffffff166370a08231306040518263ffffffff1660e01b8152600401610e3f9190611099565b602060405180830381865afa158015610e5a573d5f5f3e3d5ffd5b505050506040513d601f19601f82011682018060405250810190610e7e91906114f0565b90506001548111610eca57600154816040517ffe3c299d000000000000000000000000000000000000000000000000000000008152600401610ec1929190611941565b60405180910390fd5b60015481610ed89190611af4565b5f8190555050565b5f73bb787d6243a8d450659e09ea6fd82f1c859691e973ffffffffffffffffffffffffffffffffffffffff1663f77c47916040518163ffffffff1660e01b8152600401602060405180830381865afa158015610f3e573d5f5f3e3d5ffd5b505050506040513d601f19601f82011682018060405250810190610f62919061152f565b73ffffffffffffffffffffffffffffffffffffffff166348439e7e6040518163ffffffff1660e01b8152600401602060405180830381865afa158015610faa573d5f5f3e3d5ffd5b505050506040513d601f19601f82011682018060405250810190610fce919061152f565b905090565b5f73bb787d6243a8d450659e09ea6fd82f1c859691e973ffffffffffffffffffffffffffffffffffffffff16630f4ef8a66040518163ffffffff1660e01b8152600401602060405180830381865afa158015611031573d5f5f3e3d5ffd5b505050506040513d601f19601f82011682018060405250810190611055919061152f565b905090565b5f73ffffffffffffffffffffffffffffffffffffffff82169050919050565b5f6110838261105a565b9050919050565b61109381611079565b82525050565b5f6020820190506110ac5f83018461108a565b92915050565b5f819050919050565b6110c4816110b2565b82525050565b5f6020820190506110dd5f8301846110bb565b92915050565b5f604051905090565b5f5ffd5b5f5ffd5b5f5ffd5b5f601f19601f8301169050919050565b7f4e487b71000000000000000000000000000000000000000000000000000000005f52604160045260245ffd5b61113e826110f8565b810181811067ffffffffffffffff8211171561115d5761115c611108565b5b80604052505050565b5f61116f6110e3565b905061117b8282611135565b919050565b5f67ffffffffffffffff82111561119a57611199611108565b5b602082029050602081019050919050565b5f5ffd5b6111b881611079565b81146111c2575f5ffd5b50565b5f813590506111d3816111af565b92915050565b5f6111eb6111e684611180565b611166565b9050808382526020820190506020840283018581111561120e5761120d6111ab565b5b835b81811015611237578061122388826111c5565b845260208401935050602081019050611210565b5050509392505050565b5f82601f830112611255576112546110f4565b5b81356112658482602086016111d9565b91505092915050565b5f67ffffffffffffffff82111561128857611287611108565b5b602082029050602081019050919050565b6112a2816110b2565b81146112ac575f5ffd5b50565b5f813590506112bd81611299565b92915050565b5f6112d56112d08461126e565b611166565b905080838252602082019050602084028301858111156112f8576112f76111ab565b5b835b81811015611321578061130d88826112af565b8452602084019350506020810190506112fa565b5050509392505050565b5f82601f83011261133f5761133e6110f4565b5b813561134f8482602086016112c3565b91505092915050565b5f5ffd5b5f67ffffffffffffffff82111561137657611375611108565b5b61137f826110f8565b9050602081019050919050565b828183375f83830152505050565b5f6113ac6113a78461135c565b611166565b9050828152602081018484840111156113c8576113c7611358565b5b6113d384828561138c565b509392505050565b5f82601f8301126113ef576113ee6110f4565b5b81356113ff84826020860161139a565b91505092915050565b5f5f5f5f608085870312156114205761141f6110ec565b5b5f85013567ffffffffffffffff81111561143d5761143c6110f0565b5b61144987828801611241565b945050602085013567ffffffffffffffff81111561146a576114696110f0565b5b6114768782880161132b565b935050604085013567ffffffffffffffff811115611497576114966110f0565b5b6114a38782880161132b565b925050606085013567ffffffffffffffff8111156114c4576114c36110f0565b5b6114d0878288016113db565b91505092959194509250565b5f815190506114ea81611299565b92915050565b5f60208284031215611505576115046110ec565b5b5f611512848285016114dc565b91505092915050565b5f81519050611529816111af565b92915050565b5f60208284031215611544576115436110ec565b5b5f6115518482850161151b565b91505092915050565b5f60408201905061156d5f83018561108a565b61157a60208301846110bb565b9392505050565b5f8115159050919050565b61159581611581565b811461159f575f5ffd5b50565b5f815190506115b08161158c565b92915050565b5f602082840312156115cb576115ca6110ec565b5b5f6115d8848285016115a2565b91505092915050565b5f82825260208201905092915050565b7f574554485f415050524f56455f4641494c4544000000000000000000000000005f82015250565b5f6116256013836115e1565b9150611630826115f1565b602082019050919050565b5f6020820190508181035f83015261165281611619565b9050919050565b7f4e487b71000000000000000000000000000000000000000000000000000000005f52603260045260245ffd5b5f81519050919050565b5f82825260208201905092915050565b5f819050602082019050919050565b6116b881611079565b82525050565b5f6116c983836116af565b60208301905092915050565b5f602082019050919050565b5f6116eb82611686565b6116f58185611690565b9350611700836116a0565b805f5b8381101561173057815161171788826116be565b9750611722836116d5565b925050600181019050611703565b5085935050505092915050565b5f81519050919050565b5f82825260208201905092915050565b5f819050602082019050919050565b61176f816110b2565b82525050565b5f6117808383611766565b60208301905092915050565b5f602082019050919050565b5f6117a28261173d565b6117ac8185611747565b93506117b783611757565b805f5b838110156117e75781516117ce8882611775565b97506117d98361178c565b9250506001810190506117ba565b5085935050505092915050565b5f81519050919050565b5f82825260208201905092915050565b8281835e5f83830152505050565b5f611826826117f4565b61183081856117fe565b935061184081856020860161180e565b611849816110f8565b840191505092915050565b5f6080820190506118675f83018761108a565b818103602083015261187981866116e1565b9050818103604083015261188d8185611798565b905081810360608301526118a1818461181c565b905095945050505050565b5f6060820190506118bf5f8301866110bb565b6118cc60208301856110bb565b6118d960408301846110bb565b949350505050565b7f4e487b71000000000000000000000000000000000000000000000000000000005f52601160045260245ffd5b5f611918826110b2565b9150611923836110b2565b925082820190508082111561193b5761193a6118e1565b5b92915050565b5f6040820190506119545f8301856110bb565b61196160208301846110bb565b9392505050565b7f464c4153485f52455041595f4641494c454400000000000000000000000000005f82015250565b5f61199c6012836115e1565b91506119a782611968565b602082019050919050565b5f6020820190508181035f8301526119c981611990565b9050919050565b5f819050919050565b5f819050919050565b5f6119fc6119f76119f2846119d0565b6119d9565b6110b2565b9050919050565b611a0c816119e2565b82525050565b611a1b81611581565b82525050565b5f606082019050611a345f8301866110bb565b611a416020830185611a03565b611a4e6040830184611a12565b949350505050565b5f604082019050611a695f83018561108a565b611a76602083018461108a565b9392505050565b5f5f5f60608486031215611a9457611a936110ec565b5b5f611aa1868287016114dc565b9350506020611ab2868287016114dc565b9250506040611ac3868287016114dc565b9150509250925092565b5f604082019050611ae05f8301856110bb565b611aed6020830184611a03565b9392505050565b5f611afe826110b2565b9150611b09836110b2565b9250828203905081811115611b2157611b206118e1565b5b9291505056fea2646970667358221220a6a70327012d5bc5874b17803ba6c4f2fd63de9feff0da329690791bc5bfa31764736f6c634300081e0033","linkReferences":{}},"methodIdentifiers":{"executeOnOpportunity()":"3c2448ed","profitAmount()":"5ff972cc","profitToken()":"49343624","receiveFlashLoan(address[],uint256[],uint256[],bytes)":"f04f2707"},"id":0}