{"abi":[{"type":"constructor","inputs":[],"stateMutability":"nonpayable"},{"type":"receive","stateMutability":"payable"},{"type":"function","name":"MIM","inputs":[],"outputs":[{"name":"","type":"address","internalType":"address"}],"stateMutability":"view"},{"type":"function","name":"SUSHI_ROUTER","inputs":[],"outputs":[{"name":"","type":"address","internalType":"address"}],"stateMutability":"view"},{"type":"function","name":"TARGET","inputs":[],"outputs":[{"name":"","type":"address","internalType":"contract ICauldronV4Like"}],"stateMutability":"view"},{"type":"function","name":"TARGET_CAULDRON","inputs":[],"outputs":[{"name":"","type":"address","internalType":"address"}],"stateMutability":"view"},{"type":"function","name":"UNISWAP_V2_ROUTER","inputs":[],"outputs":[{"name":"","type":"address","internalType":"address"}],"stateMutability":"view"},{"type":"function","name":"WETH","inputs":[],"outputs":[{"name":"","type":"address","internalType":"address"}],"stateMutability":"view"},{"type":"function","name":"collateralShareAdded","inputs":[],"outputs":[{"name":"","type":"uint256","internalType":"uint256"}],"stateMutability":"view"},{"type":"function","name":"collateralToken","inputs":[],"outputs":[{"name":"","type":"address","internalType":"address"}],"stateMutability":"view"},{"type":"function","name":"convexDepositToken","inputs":[],"outputs":[{"name":"","type":"address","internalType":"address"}],"stateMutability":"view"},{"type":"function","name":"curveLpToken","inputs":[],"outputs":[{"name":"","type":"address","internalType":"address"}],"stateMutability":"view"},{"type":"function","name":"execute","inputs":[],"outputs":[{"name":"","type":"bool","internalType":"bool"}],"stateMutability":"nonpayable"},{"type":"function","name":"executeWithAmount","inputs":[{"name":"amount","type":"uint256","internalType":"uint256"},{"name":"zeroFeeOnly","type":"bool","internalType":"bool"}],"outputs":[{"name":"","type":"bool","internalType":"bool"}],"stateMutability":"nonpayable"},{"type":"function","name":"exploit","inputs":[],"outputs":[{"name":"","type":"bool","internalType":"bool"}],"stateMutability":"nonpayable"},{"type":"function","name":"flashAmount","inputs":[],"outputs":[{"name":"","type":"uint256","internalType":"uint256"}],"stateMutability":"view"},{"type":"function","name":"flashFee","inputs":[],"outputs":[{"name":"","type":"uint256","internalType":"uint256"}],"stateMutability":"view"},{"type":"function","name":"lastAttemptRevertData","inputs":[],"outputs":[{"name":"","type":"bytes","internalType":"bytes"}],"stateMutability":"view"},{"type":"function","name":"mimBorrowedShare","inputs":[],"outputs":[{"name":"","type":"uint256","internalType":"uint256"}],"stateMutability":"view"},{"type":"function","name":"mimProfitAmount","inputs":[],"outputs":[{"name":"","type":"uint256","internalType":"uint256"}],"stateMutability":"view"},{"type":"function","name":"onFlashLoan","inputs":[{"name":"sender","type":"address","internalType":"address"},{"name":"token","type":"address","internalType":"contract IERC20Like"},{"name":"amount","type":"uint256","internalType":"uint256"},{"name":"fee","type":"uint256","internalType":"uint256"},{"name":"","type":"bytes","internalType":"bytes"}],"outputs":[],"stateMutability":"nonpayable"},{"type":"function","name":"requireZeroFee","inputs":[],"outputs":[{"name":"","type":"bool","internalType":"bool"}],"stateMutability":"view"},{"type":"function","name":"run","inputs":[],"outputs":[{"name":"","type":"bool","internalType":"bool"}],"stateMutability":"nonpayable"},{"type":"function","name":"underlyingToken","inputs":[],"outputs":[{"name":"","type":"address","internalType":"address"}],"stateMutability":"view"},{"type":"function","name":"usedFeeBuyback","inputs":[],"outputs":[{"name":"","type":"bool","internalType":"bool"}],"stateMutability":"view"},{"type":"function","name":"validatedBorrowPath","inputs":[],"outputs":[{"name":"","type":"bool","internalType":"bool"}],"stateMutability":"view"},{"type":"function","name":"validatedRemovePath","inputs":[],"outputs":[{"name":"","type":"bool","internalType":"bool"}],"stateMutability":"view"},{"type":"error","name":"ConcretePreconditionFailed","inputs":[{"name":"reason","type":"string","internalType":"string"}]},{"type":"error","name":"FlashLoanCallerMismatch","inputs":[{"name":"expected","type":"address","internalType":"address"},{"name":"actual","type":"address","internalType":"address"}]},{"type":"error","name":"FlashLoanSenderMismatch","inputs":[{"name":"expected","type":"address","internalType":"address"},{"name":"actual","type":"address","internalType":"address"}]},{"type":"error","name":"FlashLoanTokenMismatch","inputs":[{"name":"expected","type":"address","internalType":"address"},{"name":"actual","type":"address","internalType":"address"}]},{"type":"error","name":"SelfOnly","inputs":[]}],"bytecode":{"object":"0x6080604052348015600e575f5ffd5b506170708061001c5f395ff3fe608060405260043610610169575f3560e01c80638e2153e7116100d0578063c040622611610089578063daec383d11610063578063daec383d146104f6578063e07df5b414610520578063e272f9be1461054a578063fdc0fe371461057457610170565b8063c040622614610478578063c129423d146104a2578063cc1f2afa146104cc57610170565b80638e2153e71461037c578063a82ed9ec146103a6578063ad5c4648146103d0578063b2016bd4146103fa578063b570137a14610424578063bd7a598c1461044e57610170565b8063555a5f8011610122578063555a5f80146102805780635eb143ce146102aa57806361461954146102d457806363d9b770146102fe578063646780df14610328578063715f7abb1461035257610170565b80630c24f4fa1461017457806323e30c8b1461019e5780632495a599146101c65780633e5a6654146101f05780634071084d1461021a5780634e9b83df1461024457610170565b3661017057005b5f5ffd5b34801561017f575f5ffd5b5061018861059e565b60405161019591906153b4565b60405180910390f35b3480156101a9575f5ffd5b506101c460048036038101906101bf91906154d7565b6105b6565b005b3480156101d1575f5ffd5b506101da6113b5565b6040516101e791906153b4565b60405180910390f35b3480156101fb575f5ffd5b506102046113da565b6040516102119190615587565b60405180910390f35b348015610225575f5ffd5b5061022e6113ed565b60405161023b91906155af565b60405180910390f35b34801561024f575f5ffd5b5061026a600480360381019061026591906155f2565b6113f3565b6040516102779190615587565b60405180910390f35b34801561028b575f5ffd5b5061029461146b565b6040516102a19190615587565b60405180910390f35b3480156102b5575f5ffd5b506102be61147d565b6040516102cb91906153b4565b60405180910390f35b3480156102df575f5ffd5b506102e86114a2565b6040516102f59190615587565b60405180910390f35b348015610309575f5ffd5b506103126114b0565b60405161031f9190615587565b60405180910390f35b348015610333575f5ffd5b5061033c6114be565b60405161034991906153b4565b60405180910390f35b34801561035d575f5ffd5b506103666114e3565b60405161037391906155af565b60405180910390f35b348015610387575f5ffd5b506103906114e9565b60405161039d9190615587565b60405180910390f35b3480156103b1575f5ffd5b506103ba6114fc565b6040516103c791906153b4565b60405180910390f35b3480156103db575f5ffd5b506103e4611514565b6040516103f191906153b4565b60405180910390f35b348015610405575f5ffd5b5061040e61152c565b60405161041b91906153b4565b60405180910390f35b34801561042f575f5ffd5b50610438611550565b60405161044591906155af565b60405180910390f35b348015610459575f5ffd5b50610462611556565b60405161046f91906153b4565b60405180910390f35b348015610483575f5ffd5b5061048c61156e565b6040516104999190615587565b60405180910390f35b3480156104ad575f5ffd5b506104b661157c565b6040516104c391906155af565b60405180910390f35b3480156104d7575f5ffd5b506104e0611582565b6040516104ed919061568b565b60405180910390f35b348015610501575f5ffd5b5061050a61159a565b60405161051791906153b4565b60405180910390f35b34801561052b575f5ffd5b506105346115b2565b60405161054191906155af565b60405180910390f35b348015610555575f5ffd5b5061055e6115b8565b60405161056b9190615587565b60405180910390f35b34801561057f575f5ffd5b506105886115cb565b6040516105959190615714565b60405180910390f35b73d9e1ce17f2641f24ae83637ab66a2cca9c378b9f81565b5f7346f54d434063e5f1a2b2cc6d9aaa657b1b9ff82c73ffffffffffffffffffffffffffffffffffffffff16636b2ace876040518163ffffffff1660e01b8152600401602060405180830381865afa158015610614573d5f5f3e3d5ffd5b505050506040513d601f19601f820116820180604052508101906106389190615748565b90508073ffffffffffffffffffffffffffffffffffffffff163373ffffffffffffffffffffffffffffffffffffffff16146106ac5780336040517fc86f37330000000000000000000000000000000000000000000000000000000081526004016106a3929190615773565b60405180910390fd5b3073ffffffffffffffffffffffffffffffffffffffff168773ffffffffffffffffffffffffffffffffffffffff161461071e5730876040517fe5b688a1000000000000000000000000000000000000000000000000000000008152600401610715929190615773565b60405180910390fd5b5f5f9054906101000a900473ffffffffffffffffffffffffffffffffffffffff1673ffffffffffffffffffffffffffffffffffffffff168673ffffffffffffffffffffffffffffffffffffffff16146107d0575f5f9054906101000a900473ffffffffffffffffffffffffffffffffffffffff16866040517f7c35bd100000000000000000000000000000000000000000000000000000000081526004016107c7929190615773565b60405180910390fd5b8460048190555083600581905550600960029054906101000a900460ff1680156107fa57505f8414155b1561083a576040517f67fb15b1000000000000000000000000000000000000000000000000000000008152600401610831906157f4565b60405180910390fd5b5f610843611657565b90505f8103610887576040517f67fb15b100000000000000000000000000000000000000000000000000000000815260040161087e9061585c565b60405180910390fd5b61089081611c36565b5f7346f54d434063e5f1a2b2cc6d9aaa657b1b9ff82c73ffffffffffffffffffffffffffffffffffffffff166348e4163e306040518263ffffffff1660e01b81526004016108de91906153b4565b602060405180830381865afa1580156108f9573d5f5f3e3d5ffd5b505050506040513d601f19601f8201168201806040525081019061091d919061588e565b90505f8103610961576040517f67fb15b100000000000000000000000000000000000000000000000000000000815260040161095890615903565b60405180910390fd5b7346f54d434063e5f1a2b2cc6d9aaa657b1b9ff82c73ffffffffffffffffffffffffffffffffffffffff166338b51ce1306040518263ffffffff1660e01b81526004016109ae91906153b4565b602060405180830381865afa1580156109c9573d5f5f3e3d5ffd5b505050506040513d601f19601f820116820180604052508101906109ed9190615935565b15610a2d576040517f67fb15b1000000000000000000000000000000000000000000000000000000008152600401610a24906159aa565b60405180910390fd5b600160095f6101000a81548160ff0219169083151502179055505f8790505f8714610aa357868811610a94576040517f67fb15b1000000000000000000000000000000000000000000000000000000008152600401610a8b90615a12565b60405180910390fd5b8688610aa09190615a5d565b90505b610ace5f5f9054906101000a900473ffffffffffffffffffffffffffffffffffffffff168583611f97565b8373ffffffffffffffffffffffffffffffffffffffff166302b9446c5f5f9054906101000a900473ffffffffffffffffffffffffffffffffffffffff16307346f54d434063e5f1a2b2cc6d9aaa657b1b9ff82c855f6040518663ffffffff1660e01b8152600401610b43959493929190615ac9565b60408051808303815f875af1158015610b5e573d5f5f3e3d5ffd5b505050506040513d601f19601f82011682018060405250810190610b829190615b1a565b905060065f8291905055505f60065403610bd1576040517f67fb15b1000000000000000000000000000000000000000000000000000000008152600401610bc890615ba2565b60405180910390fd5b7346f54d434063e5f1a2b2cc6d9aaa657b1b9ff82c73ffffffffffffffffffffffffffffffffffffffff1663860ffea13060016006546040518463ffffffff1660e01b8152600401610c2593929190615bc0565b5f604051808303815f87803b158015610c3c575f5ffd5b505af1158015610c4e573d5f5f3e3d5ffd5b505050505f7346f54d434063e5f1a2b2cc6d9aaa657b1b9ff82c73ffffffffffffffffffffffffffffffffffffffff16631c9e379b306040518263ffffffff1660e01b8152600401610ca091906153b4565b602060405180830381865afa158015610cbb573d5f5f3e3d5ffd5b505050506040513d601f19601f82011682018060405250810190610cdf919061588e565b03610d1f576040517f67fb15b1000000000000000000000000000000000000000000000000000000008152600401610d1690615c3f565b60405180910390fd5b5f7346f54d434063e5f1a2b2cc6d9aaa657b1b9ff82c73ffffffffffffffffffffffffffffffffffffffff16631c9e379b306040518263ffffffff1660e01b8152600401610d6d91906153b4565b602060405180830381865afa158015610d88573d5f5f3e3d5ffd5b505050506040513d601f19601f82011682018060405250810190610dac919061588e565b90505f8103610df0576040517f67fb15b1000000000000000000000000000000000000000000000000000000008152600401610de790615ca7565b60405180910390fd5b610df981612230565b5f7346f54d434063e5f1a2b2cc6d9aaa657b1b9ff82c73ffffffffffffffffffffffffffffffffffffffff16631c9e379b306040518263ffffffff1660e01b8152600401610e4791906153b4565b602060405180830381865afa158015610e62573d5f5f3e3d5ffd5b505050506040513d601f19601f82011682018060405250810190610e86919061588e565b14610ec6576040517f67fb15b1000000000000000000000000000000000000000000000000000000008152600401610ebd90615d0f565b60405180910390fd5b5f7346f54d434063e5f1a2b2cc6d9aaa657b1b9ff82c73ffffffffffffffffffffffffffffffffffffffff166348e4163e306040518263ffffffff1660e01b8152600401610f1491906153b4565b602060405180830381865afa158015610f2f573d5f5f3e3d5ffd5b505050506040513d601f19601f82011682018060405250810190610f53919061588e565b03610f93576040517f67fb15b1000000000000000000000000000000000000000000000000000000008152600401610f8a90615d77565b60405180910390fd5b7346f54d434063e5f1a2b2cc6d9aaa657b1b9ff82c73ffffffffffffffffffffffffffffffffffffffff166338b51ce1306040518263ffffffff1660e01b8152600401610fe091906153b4565b602060405180830381865afa158015610ffb573d5f5f3e3d5ffd5b505050506040513d601f19601f8201168201806040525081019061101f9190615935565b1561105f576040517f67fb15b100000000000000000000000000000000000000000000000000000000815260040161105690615ddf565b60405180910390fd5b6001600960016101000a81548160ff0219169083151502179055506110977399d8a9c45b2eca8864373a26d1459e3dff1e17f361247d565b6110c05f5f9054906101000a900473ffffffffffffffffffffffffffffffffffffffff1661247d565b5f88146111b2575f5f5f9054906101000a900473ffffffffffffffffffffffffffffffffffffffff1673ffffffffffffffffffffffffffffffffffffffff166370a08231306040518263ffffffff1660e01b815260040161112191906153b4565b602060405180830381865afa15801561113c573d5f5f3e3d5ffd5b505050506040513d601f19601f82011682018060405250810190611160919061588e565b9050888a61116e9190615dfd565b8110156111b057611194818a8c6111859190615dfd565b61118f9190615a5d565b61260d565b6001600960036101000a81548160ff0219169083151502179055505b505b5f5f5f9054906101000a900473ffffffffffffffffffffffffffffffffffffffff1673ffffffffffffffffffffffffffffffffffffffff166370a08231306040518263ffffffff1660e01b815260040161120c91906153b4565b602060405180830381865afa158015611227573d5f5f3e3d5ffd5b505050506040513d601f19601f8201168201806040525081019061124b919061588e565b9050888a6112599190615dfd565b81101561129b576040517f67fb15b100000000000000000000000000000000000000000000000000000000815260040161129290615ea0565b60405180910390fd5b6112d15f5f9054906101000a900473ffffffffffffffffffffffffffffffffffffffff16878b8d6112cc9190615dfd565b6128e7565b7399d8a9c45b2eca8864373a26d1459e3dff1e17f373ffffffffffffffffffffffffffffffffffffffff166370a08231306040518263ffffffff1660e01b815260040161131e91906153b4565b602060405180830381865afa158015611339573d5f5f3e3d5ffd5b505050506040513d601f19601f8201168201806040525081019061135d919061588e565b6008819055505f600854036113a7576040517f67fb15b100000000000000000000000000000000000000000000000000000000815260040161139e90615f08565b60405180910390fd5b505050505050505050505050565b60015f9054906101000a900473ffffffffffffffffffffffffffffffffffffffff1681565b600960029054906101000a900460ff1681565b60065481565b5f3073ffffffffffffffffffffffffffffffffffffffff163373ffffffffffffffffffffffffffffffffffffffff1614611459576040517ff5bd95f700000000000000000000000000000000000000000000000000000000815260040160405180910390fd5b6114638383612a36565b905092915050565b60095f9054906101000a900460ff1681565b60035f9054906101000a900473ffffffffffffffffffffffffffffffffffffffff1681565b5f6114ab612cc1565b905090565b5f6114b9612cc1565b905090565b60025f9054906101000a900473ffffffffffffffffffffffffffffffffffffffff1681565b60085481565b600960039054906101000a900460ff1681565b737a250d5630b4cf539739df2c5dacb4c659f2488d81565b73c02aaa39b223fe8d0a0e5c4f27ead9083c756cc281565b5f5f9054906101000a900473ffffffffffffffffffffffffffffffffffffffff1681565b60045481565b7346f54d434063e5f1a2b2cc6d9aaa657b1b9ff82c81565b5f611577612cc1565b905090565b60075481565b7346f54d434063e5f1a2b2cc6d9aaa657b1b9ff82c81565b7399d8a9c45b2eca8864373a26d1459e3dff1e17f381565b60055481565b600960019054906101000a900460ff1681565b600a80546115d890615f53565b80601f016020809104026020016040519081016040528092919081815260200182805461160490615f53565b801561164f5780601f106116265761010080835404028352916020019161164f565b820191905f5260205f20905b81548152906001019060200180831161163257829003601f168201915b505050505081565b5f5f7346f54d434063e5f1a2b2cc6d9aaa657b1b9ff82c73ffffffffffffffffffffffffffffffffffffffff16636b2ace876040518163ffffffff1660e01b8152600401602060405180830381865afa1580156116b6573d5f5f3e3d5ffd5b505050506040513d601f19601f820116820180604052508101906116da9190615748565b90505f8173ffffffffffffffffffffffffffffffffffffffff1663566231187399d8a9c45b2eca8864373a26d1459e3dff1e17f38473ffffffffffffffffffffffffffffffffffffffff1663f7888aec7399d8a9c45b2eca8864373a26d1459e3dff1e17f37346f54d434063e5f1a2b2cc6d9aaa657b1b9ff82c6040518363ffffffff1660e01b8152600401611771929190615773565b602060405180830381865afa15801561178c573d5f5f3e3d5ffd5b505050506040513d601f19601f820116820180604052508101906117b0919061588e565b5f6040518463ffffffff1660e01b81526004016117cf93929190615f83565b602060405180830381865afa1580156117ea573d5f5f3e3d5ffd5b505050506040513d601f19601f8201168201806040525081019061180e919061588e565b90505f8103611821575f92505050611c33565b5f5f7346f54d434063e5f1a2b2cc6d9aaa657b1b9ff82c73ffffffffffffffffffffffffffffffffffffffff1663e551d11d6040518163ffffffff1660e01b81526004016040805180830381865afa15801561187f573d5f5f3e3d5ffd5b505050506040513d601f19601f820116820180604052508101906118a39190615ffd565b915091505f5f7346f54d434063e5f1a2b2cc6d9aaa657b1b9ff82c73ffffffffffffffffffffffffffffffffffffffff16638285ef406040518163ffffffff1660e01b81526004016040805180830381865afa158015611905573d5f5f3e3d5ffd5b505050506040513d601f19601f820116820180604052508101906119299190615ffd565b915091505f7346f54d434063e5f1a2b2cc6d9aaa657b1b9ff82c73ffffffffffffffffffffffffffffffffffffffff166348e4163e306040518263ffffffff1660e01b815260040161197b91906153b4565b602060405180830381865afa158015611996573d5f5f3e3d5ffd5b505050506040513d601f19601f820116820180604052508101906119ba919061588e565b90505f7346f54d434063e5f1a2b2cc6d9aaa657b1b9ff82c73ffffffffffffffffffffffffffffffffffffffff1663aba024f46040518163ffffffff1660e01b8152600401602060405180830381865afa158015611a1a573d5f5f3e3d5ffd5b505050506040513d601f19601f82011682018060405250810190611a3e919061588e565b90505f846fffffffffffffffffffffffffffffffff16876fffffffffffffffffffffffffffffffff1611611a72575f611aa3565b846fffffffffffffffffffffffffffffffff16876fffffffffffffffffffffffffffffffff16611aa29190615a5d565b5b90505f83876fffffffffffffffffffffffffffffffff1611611ac5575f611ae4565b83876fffffffffffffffffffffffffffffffff16611ae39190615a5d565b5b90505f821480611af357505f81145b15611b0a575f9a5050505050505050505050611c33565b5f83620186a0611b1a9190615dfd565b620186a084611b29919061603b565b611b3391906160a9565b90505f5f886fffffffffffffffffffffffffffffffff161480611b6757505f876fffffffffffffffffffffffffffffffff16145b611bab57866fffffffffffffffffffffffffffffffff16886fffffffffffffffffffffffffffffffff1684611b9c919061603b565b611ba691906160a9565b611bad565b825b90505f85620186a0611bbf9190615dfd565b620186a083611bce919061603b565b611bd891906160a9565b9050611bed8c611be885846136cd565b6136cd565b9d5061271061270b8f611c00919061603b565b611c0a91906160a9565b9d5060018e1115611c255760018e611c229190615a5d565b9d505b505050505050505050505050505b90565b5f600267ffffffffffffffff811115611c5257611c516160d9565b5b604051908082528060200260200182016040528015611c805781602001602082028036833780820191505090505b5090505f600267ffffffffffffffff811115611c9f57611c9e6160d9565b5b604051908082528060200260200182016040528015611ccd5781602001602082028036833780820191505090505b5090505f600267ffffffffffffffff811115611cec57611ceb6160d9565b5b604051908082528060200260200182016040528015611d1f57816020015b6060815260200190600190039081611d0a5790505b5090506005835f81518110611d3757611d36616106565b5b602002602001019060ff16908160ff1681525050600883600181518110611d6157611d60616106565b5b602002602001019060ff16908160ff1681525050611d7e846136e5565b30604051602001611d9092919061614b565b604051602081830303815290604052815f81518110611db257611db1616106565b5b602002602001018190525060405180602001604052805f81525081600181518110611de057611ddf616106565b5b60200260200101819052507346f54d434063e5f1a2b2cc6d9aaa657b1b9ff82c73ffffffffffffffffffffffffffffffffffffffff1663656f3d648484846040518463ffffffff1660e01b8152600401611e3c939291906163ef565b60408051808303815f875af1158015611e57573d5f5f3e3d5ffd5b505050506040513d601f19601f82011682018060405250810190611e7b9190615b1a565b50507346f54d434063e5f1a2b2cc6d9aaa657b1b9ff82c73ffffffffffffffffffffffffffffffffffffffff16636b2ace876040518163ffffffff1660e01b8152600401602060405180830381865afa158015611eda573d5f5f3e3d5ffd5b505050506040513d601f19601f82011682018060405250810190611efe9190615748565b73ffffffffffffffffffffffffffffffffffffffff1663f7888aec7399d8a9c45b2eca8864373a26d1459e3dff1e17f3306040518363ffffffff1660e01b8152600401611f4c929190615773565b602060405180830381865afa158015611f67573d5f5f3e3d5ffd5b505050506040513d601f19601f82011682018060405250810190611f8b919061588e565b60078190555050505050565b5f5f8473ffffffffffffffffffffffffffffffffffffffff1663095ea7b360e01b855f604051602401611fcb929190616469565b604051602081830303815290604052907bffffffffffffffffffffffffffffffffffffffffffffffffffffffff19166020820180517bffffffffffffffffffffffffffffffffffffffffffffffffffffffff838183161783525050505060405161203591906164ca565b5f604051808303815f865af19150503d805f811461206e576040519150601f19603f3d011682016040523d82523d5f602084013e612073565b606091505b50915091508180156120a057505f8151148061209f57508080602001905181019061209e9190615935565b5b5b6120df576040517f08c379a00000000000000000000000000000000000000000000000000000000081526004016120d69061652a565b60405180910390fd5b8473ffffffffffffffffffffffffffffffffffffffff1663095ea7b360e01b8585604051602401612111929190616548565b604051602081830303815290604052907bffffffffffffffffffffffffffffffffffffffffffffffffffffffff19166020820180517bffffffffffffffffffffffffffffffffffffffffffffffffffffffff838183161783525050505060405161217b91906164ca565b5f604051808303815f865af19150503d805f81146121b4576040519150601f19603f3d011682016040523d82523d5f602084013e6121b9565b606091505b5080925081935050508180156121ea57505f815114806121e95750808060200190518101906121e89190615935565b5b5b612229576040517f08c379a0000000000000000000000000000000000000000000000000000000008152600401612220906165b9565b60405180910390fd5b5050505050565b5f600267ffffffffffffffff81111561224c5761224b6160d9565b5b60405190808252806020026020018201604052801561227a5781602001602082028036833780820191505090505b5090505f600267ffffffffffffffff811115612299576122986160d9565b5b6040519080825280602002602001820160405280156122c75781602001602082028036833780820191505090505b5090505f600267ffffffffffffffff8111156122e6576122e56160d9565b5b60405190808252806020026020018201604052801561231957816020015b60608152602001906001900390816123045790505b5090506004835f8151811061233157612330616106565b5b602002602001019060ff16908160ff168152505060ff8360018151811061235b5761235a616106565b5b602002602001019060ff16908160ff1681525050612378846136e5565b3060405160200161238a92919061614b565b604051602081830303815290604052815f815181106123ac576123ab616106565b5b602002602001018190525060405180602001604052805f815250816001815181106123da576123d9616106565b5b60200260200101819052507346f54d434063e5f1a2b2cc6d9aaa657b1b9ff82c73ffffffffffffffffffffffffffffffffffffffff1663656f3d648484846040518463ffffffff1660e01b8152600401612436939291906163ef565b60408051808303815f875af1158015612451573d5f5f3e3d5ffd5b505050506040513d601f19601f820116820180604052508101906124759190615b1a565b505050505050565b5f7346f54d434063e5f1a2b2cc6d9aaa657b1b9ff82c73ffffffffffffffffffffffffffffffffffffffff16636b2ace876040518163ffffffff1660e01b8152600401602060405180830381865afa1580156124db573d5f5f3e3d5ffd5b505050506040513d601f19601f820116820180604052508101906124ff9190615748565b90505f8173ffffffffffffffffffffffffffffffffffffffff1663f7888aec84306040518363ffffffff1660e01b815260040161253d929190615773565b602060405180830381865afa158015612558573d5f5f3e3d5ffd5b505050506040513d601f19601f8201168201806040525081019061257c919061588e565b90505f8114612608578173ffffffffffffffffffffffffffffffffffffffff166397da6d308430305f866040518663ffffffff1660e01b81526004016125c69594939291906165d7565b60408051808303815f875af11580156125e1573d5f5f3e3d5ffd5b505050506040513d601f19601f820116820180604052508101906126059190615b1a565b50505b505050565b5f8103156128e4576126547399d8a9c45b2eca8864373a26d1459e3dff1e17f35f5f9054906101000a900473ffffffffffffffffffffffffffffffffffffffff1683613751565b6128e4575f60015f9054906101000a900473ffffffffffffffffffffffffffffffffffffffff1690505f73ffffffffffffffffffffffffffffffffffffffff168173ffffffffffffffffffffffffffffffffffffffff161415801561270557505f5f9054906101000a900473ffffffffffffffffffffffffffffffffffffffff1673ffffffffffffffffffffffffffffffffffffffff168173ffffffffffffffffffffffffffffffffffffffff1614155b15612751575f61271483613af7565b90506127357399d8a9c45b2eca8864373a26d1459e3dff1e17f38383613751565b1561274f57612742613e59565b1561274e5750506128e4565b5b505b6127857399d8a9c45b2eca8864373a26d1459e3dff1e17f373c02aaa39b223fe8d0a0e5c4f27ead9083c756cc26001613751565b156128a9576127c973c02aaa39b223fe8d0a0e5c4f27ead9083c756cc25f5f9054906101000a900473ffffffffffffffffffffffffffffffffffffffff1684613751565b156127d457506128e4565b5f73ffffffffffffffffffffffffffffffffffffffff168173ffffffffffffffffffffffffffffffffffffffff161415801561285c57505f5f9054906101000a900473ffffffffffffffffffffffffffffffffffffffff1673ffffffffffffffffffffffffffffffffffffffff168173ffffffffffffffffffffffffffffffffffffffff1614155b156128a8575f61286b83613af7565b905061288c73c02aaa39b223fe8d0a0e5c4f27ead9083c756cc28383613751565b156128a657612899613e59565b156128a55750506128e4565b5b505b5b6040517f67fb15b10000000000000000000000000000000000000000000000000000000081526004016128db90616672565b60405180910390fd5b50565b5f5f8473ffffffffffffffffffffffffffffffffffffffff1663a9059cbb60e01b858560405160240161291b929190616548565b604051602081830303815290604052907bffffffffffffffffffffffffffffffffffffffffffffffffffffffff19166020820180517bffffffffffffffffffffffffffffffffffffffffffffffffffffffff838183161783525050505060405161298591906164ca565b5f604051808303815f865af19150503d805f81146129be576040519150601f19603f3d011682016040523d82523d5f602084013e6129c3565b606091505b50915091508180156129f057505f815114806129ef5750808060200190518101906129ee9190615935565b5b5b612a2f576040517f08c379a0000000000000000000000000000000000000000000000000000000008152600401612a26906166da565b60405180910390fd5b5050505050565b5f8260048190555081600960026101000a81548160ff0219169083151502179055505f600960036101000a81548160ff0219169083151502179055505f60095f6101000a81548160ff0219169083151502179055505f600960016101000a81548160ff0219169083151502179055505f6006819055505f6007819055505f6008819055507346f54d434063e5f1a2b2cc6d9aaa657b1b9ff82c73ffffffffffffffffffffffffffffffffffffffff16636b2ace876040518163ffffffff1660e01b8152600401602060405180830381865afa158015612b17573d5f5f3e3d5ffd5b505050506040513d601f19601f82011682018060405250810190612b3b9190615748565b73ffffffffffffffffffffffffffffffffffffffff1663f1676d3730305f5f9054906101000a900473ffffffffffffffffffffffffffffffffffffffff168760405180602001604052805f8152506040518663ffffffff1660e01b8152600401612ba9959493929190616718565b5f604051808303815f87803b158015612bc0575f5ffd5b505af1158015612bd2573d5f5f3e3d5ffd5b5050505060095f9054906101000a900460ff16612c24576040517f67fb15b1000000000000000000000000000000000000000000000000000000008152600401612c1b906167ba565b60405180910390fd5b600960019054906101000a900460ff16612c73576040517f67fb15b1000000000000000000000000000000000000000000000000000000008152600401612c6a90616822565b60405180910390fd5b5f60085403612cb7576040517f67fb15b1000000000000000000000000000000000000000000000000000000008152600401612cae9061688a565b60405180910390fd5b6001905092915050565b5f7346f54d434063e5f1a2b2cc6d9aaa657b1b9ff82c73ffffffffffffffffffffffffffffffffffffffff1663d8dfeb456040518163ffffffff1660e01b8152600401602060405180830381865afa158015612d1f573d5f5f3e3d5ffd5b505050506040513d601f19601f82011682018060405250810190612d439190615748565b5f5f6101000a81548173ffffffffffffffffffffffffffffffffffffffff021916908373ffffffffffffffffffffffffffffffffffffffff1602179055505f73ffffffffffffffffffffffffffffffffffffffff165f5f9054906101000a900473ffffffffffffffffffffffffffffffffffffffff1673ffffffffffffffffffffffffffffffffffffffff1603612e0f576040517f67fb15b1000000000000000000000000000000000000000000000000000000008152600401612e06906168f2565b60405180910390fd5b612ebb5f5f9054906101000a900473ffffffffffffffffffffffffffffffffffffffff166040516024016040516020818303038152906040527f4f39059c000000000000000000000000000000000000000000000000000000007bffffffffffffffffffffffffffffffffffffffffffffffffffffffff19166020820180517bffffffffffffffffffffffffffffffffffffffffffffffffffffffff83818316178352505050506142fb565b60025f6101000a81548173ffffffffffffffffffffffffffffffffffffffff021916908373ffffffffffffffffffffffffffffffffffffffff160217905550612fa65f5f9054906101000a900473ffffffffffffffffffffffffffffffffffffffff166040516024016040516020818303038152906040527fe89133b2000000000000000000000000000000000000000000000000000000007bffffffffffffffffffffffffffffffffffffffffffffffffffffffff19166020820180517bffffffffffffffffffffffffffffffffffffffffffffffffffffffff83818316178352505050506142fb565b60035f6101000a81548173ffffffffffffffffffffffffffffffffffffffff021916908373ffffffffffffffffffffffffffffffffffffffff1602179055505f73ffffffffffffffffffffffffffffffffffffffff1660025f9054906101000a900473ffffffffffffffffffffffffffffffffffffffff1673ffffffffffffffffffffffffffffffffffffffff1603613067576130625f5f9054906101000a900473ffffffffffffffffffffffffffffffffffffffff16614398565b61308a565b60025f9054906101000a900473ffffffffffffffffffffffffffffffffffffffff165b60015f6101000a81548173ffffffffffffffffffffffffffffffffffffffff021916908373ffffffffffffffffffffffffffffffffffffffff1602179055505f5f5f9054906101000a900473ffffffffffffffffffffffffffffffffffffffff1673ffffffffffffffffffffffffffffffffffffffff166370a082317346f54d434063e5f1a2b2cc6d9aaa657b1b9ff82c73ffffffffffffffffffffffffffffffffffffffff16636b2ace876040518163ffffffff1660e01b8152600401602060405180830381865afa158015613163573d5f5f3e3d5ffd5b505050506040513d601f19601f820116820180604052508101906131879190615748565b6040518263ffffffff1660e01b81526004016131a391906153b4565b602060405180830381865afa1580156131be573d5f5f3e3d5ffd5b505050506040513d601f19601f820116820180604052508101906131e2919061588e565b90505f8103613226576040517f67fb15b100000000000000000000000000000000000000000000000000000000815260040161321d9061695a565b60405180910390fd5b5f60405180610180016040528060018152602001600a8152602001606481526020016103e881526020016127108152602001620186a08152602001620f424081526020016298968081526020016305f5e1008152602001633b9aca00815260200164e8d4a51000815260200166038d7ea4c6800081525090505f5f90505b600c8110156134ee575f8282600c81106132c1576132c0616106565b5b602002015190505f8114806132d557508381115b156132e057506134e1565b5f7346f54d434063e5f1a2b2cc6d9aaa657b1b9ff82c73ffffffffffffffffffffffffffffffffffffffff16636b2ace876040518163ffffffff1660e01b8152600401602060405180830381865afa15801561333e573d5f5f3e3d5ffd5b505050506040513d601f19601f820116820180604052508101906133629190615748565b73ffffffffffffffffffffffffffffffffffffffff1663da5139ca5f5f9054906101000a900473ffffffffffffffffffffffffffffffffffffffff16845f6040518463ffffffff1660e01b81526004016133be93929190615f83565b602060405180830381865afa1580156133d9573d5f5f3e3d5ffd5b505050506040513d601f19601f820116820180604052508101906133fd919061588e565b0361340857506134e1565b3073ffffffffffffffffffffffffffffffffffffffff16634e9b83df8260016040518363ffffffff1660e01b8152600401613444929190616978565b6020604051808303815f875af192505050801561347f57506040513d601f19601f8201168201806040525081019061347c9190615935565b60015b6134c9573d805f81146134ad576040519150601f19603f3d011682016040523d82523d5f602084013e6134b2565b606091505b5080600a90816134c29190616b36565b50506134df565b80156134dd576001955050505050506136ca565b505b505b80806001019150506132a4565b505f60405180610100016040528061271081526020016103e8815260200160648152602001600a81526020016004815260200160028152602001600181526020015f81525090505f5f90505b600881101561368e575f5f83836008811061355857613557616106565b5b60200201510361356a57849050613590565b82826008811061357d5761357c616106565b5b60200201518561358d91906160a9565b90505b5f81148061359d57508481115b156135a85750613681565b3073ffffffffffffffffffffffffffffffffffffffff16634e9b83df825f6040518363ffffffff1660e01b81526004016135e3929190616978565b6020604051808303815f875af192505050801561361e57506040513d601f19601f8201168201806040525081019061361b9190615935565b60015b613668573d805f811461364c576040519150601f19603f3d011682016040523d82523d5f602084013e613651565b606091505b5080600a90816136619190616b36565b505061367f565b801561367d57600196505050505050506136ca565b505b505b808060010191505061353a565b506040517f67fb15b10000000000000000000000000000000000000000000000000000000081526004016136c190616c4f565b60405180910390fd5b90565b5f8183106136db57816136dd565b825b905092915050565b5f7f7fffffffffffffffffffffffffffffffffffffffffffffffffffffffffffffff821115613749576040517f08c379a000000000000000000000000000000000000000000000000000000000815260040161374090616cb7565b60405180910390fd5b819050919050565b5f5f73ffffffffffffffffffffffffffffffffffffffff168473ffffffffffffffffffffffffffffffffffffffff1614806137b757505f73ffffffffffffffffffffffffffffffffffffffff168373ffffffffffffffffffffffffffffffffffffffff16145b806137c157505f82145b156137ce575f9050613af0565b5f8473ffffffffffffffffffffffffffffffffffffffff166370a08231306040518263ffffffff1660e01b815260040161380891906153b4565b602060405180830381865afa158015613823573d5f5f3e3d5ffd5b505050506040513d601f19601f82011682018060405250810190613847919061588e565b90505f8103613859575f915050613af0565b5f61386486866147f2565b905061388673d9e1ce17f2641f24ae83637ab66a2cca9c378b9f8286856148e3565b1561389657600192505050613af0565b73c02aaa39b223fe8d0a0e5c4f27ead9083c756cc273ffffffffffffffffffffffffffffffffffffffff168673ffffffffffffffffffffffffffffffffffffffff1614158015613926575073c02aaa39b223fe8d0a0e5c4f27ead9083c756cc273ffffffffffffffffffffffffffffffffffffffff168573ffffffffffffffffffffffffffffffffffffffff1614155b1561396b575f6139368787614b45565b905061395873d9e1ce17f2641f24ae83637ab66a2cca9c378b9f8287866148e3565b156139695760019350505050613af0565b505b8573ffffffffffffffffffffffffffffffffffffffff166370a08231306040518263ffffffff1660e01b81526004016139a491906153b4565b602060405180830381865afa1580156139bf573d5f5f3e3d5ffd5b505050506040513d601f19601f820116820180604052508101906139e3919061588e565b9150613a05737a250d5630b4cf539739df2c5dacb4c659f2488d8286856148e3565b15613a1557600192505050613af0565b73c02aaa39b223fe8d0a0e5c4f27ead9083c756cc273ffffffffffffffffffffffffffffffffffffffff168673ffffffffffffffffffffffffffffffffffffffff1614158015613aa5575073c02aaa39b223fe8d0a0e5c4f27ead9083c756cc273ffffffffffffffffffffffffffffffffffffffff168573ffffffffffffffffffffffffffffffffffffffff1614155b15613aea575f613ab58787614b45565b9050613ad7737a250d5630b4cf539739df2c5dacb4c659f2488d8287866148e3565b15613ae85760019350505050613af0565b505b5f925050505b9392505050565b5f5f73ffffffffffffffffffffffffffffffffffffffff1660015f9054906101000a900473ffffffffffffffffffffffffffffffffffffffff1673ffffffffffffffffffffffffffffffffffffffff161480613bbf57505f5f9054906101000a900473ffffffffffffffffffffffffffffffffffffffff1673ffffffffffffffffffffffffffffffffffffffff1660015f9054906101000a900473ffffffffffffffffffffffffffffffffffffffff1673ffffffffffffffffffffffffffffffffffffffff16145b15613bcc57819050613e54565b60025f9054906101000a900473ffffffffffffffffffffffffffffffffffffffff1673ffffffffffffffffffffffffffffffffffffffff1660015f9054906101000a900473ffffffffffffffffffffffffffffffffffffffff1673ffffffffffffffffffffffffffffffffffffffff16148015613c9657505f73ffffffffffffffffffffffffffffffffffffffff1660035f9054906101000a900473ffffffffffffffffffffffffffffffffffffffff1673ffffffffffffffffffffffffffffffffffffffff1614155b15613ca357819050613e54565b5f5f5f9054906101000a900473ffffffffffffffffffffffffffffffffffffffff1673ffffffffffffffffffffffffffffffffffffffff166318160ddd6040518163ffffffff1660e01b8152600401602060405180830381865afa158015613d0d573d5f5f3e3d5ffd5b505050506040513d601f19601f82011682018060405250810190613d31919061588e565b90505f60015f9054906101000a900473ffffffffffffffffffffffffffffffffffffffff1673ffffffffffffffffffffffffffffffffffffffff166370a082315f5f9054906101000a900473ffffffffffffffffffffffffffffffffffffffff166040518263ffffffff1660e01b8152600401613dae91906153b4565b602060405180830381865afa158015613dc9573d5f5f3e3d5ffd5b505050506040513d601f19601f82011682018060405250810190613ded919061588e565b90505f821480613dfc57505f81145b15613e0b578392505050613e54565b818185613e18919061603b565b613e2291906160a9565b92505f828286613e32919061603b565b613e3c9190616cd5565b14613e5157600183613e4e9190615dfd565b92505b50505b919050565b5f5f73ffffffffffffffffffffffffffffffffffffffff1660015f9054906101000a900473ffffffffffffffffffffffffffffffffffffffff1673ffffffffffffffffffffffffffffffffffffffff161480613f2157505f5f9054906101000a900473ffffffffffffffffffffffffffffffffffffffff1673ffffffffffffffffffffffffffffffffffffffff1660015f9054906101000a900473ffffffffffffffffffffffffffffffffffffffff1673ffffffffffffffffffffffffffffffffffffffff16145b15613f2e575f90506142f8565b5f60015f9054906101000a900473ffffffffffffffffffffffffffffffffffffffff1690505f8173ffffffffffffffffffffffffffffffffffffffff166370a08231306040518263ffffffff1660e01b8152600401613f8d91906153b4565b602060405180830381865afa158015613fa8573d5f5f3e3d5ffd5b505050506040513d601f19601f82011682018060405250810190613fcc919061588e565b90505f8103613fdf575f925050506142f8565b5f73ffffffffffffffffffffffffffffffffffffffff1660025f9054906101000a900473ffffffffffffffffffffffffffffffffffffffff1673ffffffffffffffffffffffffffffffffffffffff161415801561408957505f73ffffffffffffffffffffffffffffffffffffffff1660035f9054906101000a900473ffffffffffffffffffffffffffffffffffffffff1673ffffffffffffffffffffffffffffffffffffffff1614155b80156140e1575060025f9054906101000a900473ffffffffffffffffffffffffffffffffffffffff1673ffffffffffffffffffffffffffffffffffffffff168273ffffffffffffffffffffffffffffffffffffffff16145b801561415a575060025f9054906101000a900473ffffffffffffffffffffffffffffffffffffffff1673ffffffffffffffffffffffffffffffffffffffff165f5f9054906101000a900473ffffffffffffffffffffffffffffffffffffffff1673ffffffffffffffffffffffffffffffffffffffff1614155b156142c85761418b60035f9054906101000a900473ffffffffffffffffffffffffffffffffffffffff168383614c99565b614199575f925050506142f8565b60035f9054906101000a900473ffffffffffffffffffffffffffffffffffffffff1691508173ffffffffffffffffffffffffffffffffffffffff166370a08231306040518263ffffffff1660e01b81526004016141f691906153b4565b602060405180830381865afa158015614211573d5f5f3e3d5ffd5b505050506040513d601f19601f82011682018060405250810190614235919061588e565b90505f8103614248575f925050506142f8565b60035f9054906101000a900473ffffffffffffffffffffffffffffffffffffffff1673ffffffffffffffffffffffffffffffffffffffff165f5f9054906101000a900473ffffffffffffffffffffffffffffffffffffffff1673ffffffffffffffffffffffffffffffffffffffff16036142c7576001925050506142f8565b5b6142f35f5f9054906101000a900473ffffffffffffffffffffffffffffffffffffffff168383614c99565b925050505b90565b5f5f5f8473ffffffffffffffffffffffffffffffffffffffff168460405161432391906164ca565b5f60405180830381855afa9150503d805f811461435b576040519150601f19603f3d011682016040523d82523d5f602084013e614360565b606091505b509150915081801561437457506020815110155b15614390578080602001905181019061438d9190616d40565b92505b505092915050565b5f614425826040516024016040516020818303038152906040527f4f39059c000000000000000000000000000000000000000000000000000000007bffffffffffffffffffffffffffffffffffffffffffffffffffffffff19166020820180517bffffffffffffffffffffffffffffffffffffffffffffffffffffffff83818316178352505050506142fb565b90505f73ffffffffffffffffffffffffffffffffffffffff168173ffffffffffffffffffffffffffffffffffffffff16036147ed576144e6826040516024016040516020818303038152906040527ffc0c546a000000000000000000000000000000000000000000000000000000007bffffffffffffffffffffffffffffffffffffffffffffffffffffffff19166020820180517bffffffffffffffffffffffffffffffffffffffffffffffffffffffff83818316178352505050506142fb565b90505f73ffffffffffffffffffffffffffffffffffffffff168173ffffffffffffffffffffffffffffffffffffffff16036147ed576145a7826040516024016040516020818303038152906040527f38d52e0f000000000000000000000000000000000000000000000000000000007bffffffffffffffffffffffffffffffffffffffffffffffffffffffff19166020820180517bffffffffffffffffffffffffffffffffffffffffffffffffffffffff83818316178352505050506142fb565b90505f73ffffffffffffffffffffffffffffffffffffffff168173ffffffffffffffffffffffffffffffffffffffff16036147ed57614668826040516024016040516020818303038152906040527f6f307dc3000000000000000000000000000000000000000000000000000000007bffffffffffffffffffffffffffffffffffffffffffffffffffffffff19166020820180517bffffffffffffffffffffffffffffffffffffffffffffffffffffffff83818316178352505050506142fb565b90505f73ffffffffffffffffffffffffffffffffffffffff168173ffffffffffffffffffffffffffffffffffffffff16036147ed57614729826040516024016040516020818303038152906040527f1f1fcd51000000000000000000000000000000000000000000000000000000007bffffffffffffffffffffffffffffffffffffffffffffffffffffffff19166020820180517bffffffffffffffffffffffffffffffffffffffffffffffffffffffff83818316178352505050506142fb565b90505f73ffffffffffffffffffffffffffffffffffffffff168173ffffffffffffffffffffffffffffffffffffffff16036147ed576147ea826040516024016040516020818303038152906040527f72f702f3000000000000000000000000000000000000000000000000000000007bffffffffffffffffffffffffffffffffffffffffffffffffffffffff19166020820180517bffffffffffffffffffffffffffffffffffffffffffffffffffffffff83818316178352505050506142fb565b90505b919050565b6060600267ffffffffffffffff81111561480f5761480e6160d9565b5b60405190808252806020026020018201604052801561483d5781602001602082028036833780820191505090505b50905082815f8151811061485457614853616106565b5b602002602001019073ffffffffffffffffffffffffffffffffffffffff16908173ffffffffffffffffffffffffffffffffffffffff168152505081816001815181106148a3576148a2616106565b5b602002602001019073ffffffffffffffffffffffffffffffffffffffff16908173ffffffffffffffffffffffffffffffffffffffff168152505092915050565b5f5f8214806148f157505f83145b156148fe575f9050614b3d565b60028451108061495357505f73ffffffffffffffffffffffffffffffffffffffff16845f8151811061493357614932616106565b5b602002602001015173ffffffffffffffffffffffffffffffffffffffff16145b806149b057505f73ffffffffffffffffffffffffffffffffffffffff16846001865161497f9190615a5d565b815181106149905761498f616106565b5b602002602001015173ffffffffffffffffffffffffffffffffffffffff16145b156149bd575f9050614b3d565b81845f815181106149d1576149d0616106565b5b602002602001015173ffffffffffffffffffffffffffffffffffffffff166370a08231306040518263ffffffff1660e01b8152600401614a1191906153b4565b602060405180830381865afa158015614a2c573d5f5f3e3d5ffd5b505050506040513d601f19601f82011682018060405250810190614a50919061588e565b1015614a5e575f9050614b3d565b614a678561510c565b1580614a7a5750614a78858561512f565b155b15614a87575f9050614b3d565b614aac845f81518110614a9d57614a9c616106565b5b60200260200101518684611f97565b8473ffffffffffffffffffffffffffffffffffffffff16638803dbee84848730426040518663ffffffff1660e01b8152600401614aed959493929190616e22565b5f604051808303815f875af1925050508015614b2b57506040513d5f823e3d601f19601f82011682018060405250810190614b289190616f85565b60015b614b37575f9050614b3d565b60019150505b949350505050565b6060600367ffffffffffffffff811115614b6257614b616160d9565b5b604051908082528060200260200182016040528015614b905781602001602082028036833780820191505090505b50905082815f81518110614ba757614ba6616106565b5b602002602001019073ffffffffffffffffffffffffffffffffffffffff16908173ffffffffffffffffffffffffffffffffffffffff168152505073c02aaa39b223fe8d0a0e5c4f27ead9083c756cc281600181518110614c0a57614c09616106565b5b602002602001019073ffffffffffffffffffffffffffffffffffffffff16908173ffffffffffffffffffffffffffffffffffffffff16815250508181600281518110614c5957614c58616106565b5b602002602001019073ffffffffffffffffffffffffffffffffffffffff16908173ffffffffffffffffffffffffffffffffffffffff168152505092915050565b5f5f73ffffffffffffffffffffffffffffffffffffffff168473ffffffffffffffffffffffffffffffffffffffff161480614cff57505f73ffffffffffffffffffffffffffffffffffffffff168373ffffffffffffffffffffffffffffffffffffffff16145b80614d0957505f82145b15614d16575f9050615105565b614d21838584611f97565b614db88483604051602401614d3691906155af565b6040516020818303038152906040527fb6b55f25000000000000000000000000000000000000000000000000000000007bffffffffffffffffffffffffffffffffffffffffffffffffffffffff19166020820180517bffffffffffffffffffffffffffffffffffffffffffffffffffffffff8381831617835250505050615302565b15614dc65760019050615105565b614e5d8483604051602401614ddb91906155af565b6040516020818303038152906040527fa59f3e0c000000000000000000000000000000000000000000000000000000007bffffffffffffffffffffffffffffffffffffffffffffffffffffffff19166020820180517bffffffffffffffffffffffffffffffffffffffffffffffffffffffff8381831617835250505050615302565b15614e6b5760019050615105565b614f028483604051602401614e8091906155af565b6040516020818303038152906040527fa694fc3a000000000000000000000000000000000000000000000000000000007bffffffffffffffffffffffffffffffffffffffffffffffffffffffff19166020820180517bffffffffffffffffffffffffffffffffffffffffffffffffffffffff8381831617835250505050615302565b15614f105760019050615105565b614fa78483604051602401614f2591906155af565b6040516020818303038152906040527fea598cb0000000000000000000000000000000000000000000000000000000007bffffffffffffffffffffffffffffffffffffffffffffffffffffffff19166020820180517bffffffffffffffffffffffffffffffffffffffffffffffffffffffff8381831617835250505050615302565b15614fb55760019050615105565b61504c8483604051602401614fca91906155af565b6040516020818303038152906040527fa0712d68000000000000000000000000000000000000000000000000000000007bffffffffffffffffffffffffffffffffffffffffffffffffffffffff19166020820180517bffffffffffffffffffffffffffffffffffffffffffffffffffffffff8381831617835250505050615302565b1561505a5760019050615105565b6150f3848330604051602401615071929190616fcc565b6040516020818303038152906040527f6e553f65000000000000000000000000000000000000000000000000000000007bffffffffffffffffffffffffffffffffffffffffffffffffffffffff19166020820180517bffffffffffffffffffffffffffffffffffffffffffffffffffffffff8381831617835250505050615302565b156151015760019050615105565b5f90505b9392505050565b5f5f8273ffffffffffffffffffffffffffffffffffffffff163b14159050919050565b5f600282511015615142575f90506152fc565b5f8373ffffffffffffffffffffffffffffffffffffffff1663c45a01556040518163ffffffff1660e01b8152600401602060405180830381865afa9250505080156151ab57506040513d601f19601f820116820180604052508101906151a89190615748565b60015b6151b8575f9150506152fc565b809150506151c58161510c565b6151d2575f9150506152fc565b5f5f90505b83516001826151e69190615dfd565b10156152f5575f73ffffffffffffffffffffffffffffffffffffffff168273ffffffffffffffffffffffffffffffffffffffff1663e6a4390586848151811061523257615231616106565b5b6020026020010151876001866152489190615dfd565b8151811061525957615258616106565b5b60200260200101516040518363ffffffff1660e01b815260040161527e929190615773565b602060405180830381865afa158015615299573d5f5f3e3d5ffd5b505050506040513d601f19601f820116820180604052508101906152bd9190615748565b73ffffffffffffffffffffffffffffffffffffffff16036152e2575f925050506152fc565b80806152ed90616ff3565b9150506151d7565b5060019150505b92915050565b5f5f8373ffffffffffffffffffffffffffffffffffffffff168360405161532991906164ca565b5f604051808303815f865af19150503d805f8114615362576040519150601f19603f3d011682016040523d82523d5f602084013e615367565b606091505b505090508091505092915050565b5f73ffffffffffffffffffffffffffffffffffffffff82169050919050565b5f61539e82615375565b9050919050565b6153ae81615394565b82525050565b5f6020820190506153c75f8301846153a5565b92915050565b5f604051905090565b5f5ffd5b5f5ffd5b6153e781615394565b81146153f1575f5ffd5b50565b5f81359050615402816153de565b92915050565b5f61541282615394565b9050919050565b61542281615408565b811461542c575f5ffd5b50565b5f8135905061543d81615419565b92915050565b5f819050919050565b61545581615443565b811461545f575f5ffd5b50565b5f813590506154708161544c565b92915050565b5f5ffd5b5f5ffd5b5f5ffd5b5f5f83601f84011261549757615496615476565b5b8235905067ffffffffffffffff8111156154b4576154b361547a565b5b6020830191508360018202830111156154d0576154cf61547e565b5b9250929050565b5f5f5f5f5f5f60a087890312156154f1576154f06153d6565b5b5f6154fe89828a016153f4565b965050602061550f89828a0161542f565b955050604061552089828a01615462565b945050606061553189828a01615462565b935050608087013567ffffffffffffffff811115615552576155516153da565b5b61555e89828a01615482565b92509250509295509295509295565b5f8115159050919050565b6155818161556d565b82525050565b5f60208201905061559a5f830184615578565b92915050565b6155a981615443565b82525050565b5f6020820190506155c25f8301846155a0565b92915050565b6155d18161556d565b81146155db575f5ffd5b50565b5f813590506155ec816155c8565b92915050565b5f5f60408385031215615608576156076153d6565b5b5f61561585828601615462565b9250506020615626858286016155de565b9150509250929050565b5f819050919050565b5f61565361564e61564984615375565b615630565b615375565b9050919050565b5f61566482615639565b9050919050565b5f6156758261565a565b9050919050565b6156858161566b565b82525050565b5f60208201905061569e5f83018461567c565b92915050565b5f81519050919050565b5f82825260208201905092915050565b8281835e5f83830152505050565b5f601f19601f8301169050919050565b5f6156e6826156a4565b6156f081856156ae565b93506157008185602086016156be565b615709816156cc565b840191505092915050565b5f6020820190508181035f83015261572c81846156dc565b905092915050565b5f81519050615742816153de565b92915050565b5f6020828403121561575d5761575c6153d6565b5b5f61576a84828501615734565b91505092915050565b5f6040820190506157865f8301856153a5565b61579360208301846153a5565b9392505050565b5f82825260208201905092915050565b7f4e4f4e5f5a45524f5f464c4153485f46454500000000000000000000000000005f82015250565b5f6157de60128361579a565b91506157e9826157aa565b602082019050919050565b5f6020820190508181035f83015261580b816157d2565b9050919050565b7f4e4f5f424f52524f5741424c455f4d494d0000000000000000000000000000005f82015250565b5f61584660118361579a565b915061585182615812565b602082019050919050565b5f6020820190508181035f8301526158738161583a565b9050919050565b5f815190506158888161544c565b92915050565b5f602082840312156158a3576158a26153d6565b5b5f6158b08482850161587a565b91505092915050565b7f424f52524f575f4e4f545f5245434f52444544000000000000000000000000005f82015250565b5f6158ed60138361579a565b91506158f8826158b9565b602082019050919050565b5f6020820190508181035f83015261591a816158e1565b9050919050565b5f8151905061592f816155c8565b92915050565b5f6020828403121561594a576159496153d6565b5b5f61595784828501615921565b91505092915050565b7f424f52524f575f4449445f4e4f545f4352454154455f494e534f4c56454e43595f82015250565b5f61599460208361579a565b915061599f82615960565b602082019050919050565b5f6020820190508181035f8301526159c181615988565b9050919050565b7f464c4153485f544f4f5f534d414c4c5f464f525f4645450000000000000000005f82015250565b5f6159fc60178361579a565b9150615a07826159c8565b602082019050919050565b5f6020820190508181035f830152615a29816159f0565b9050919050565b7f4e487b71000000000000000000000000000000000000000000000000000000005f52601160045260245ffd5b5f615a6782615443565b9150615a7283615443565b9250828203905081811115615a8a57615a89615a30565b5b92915050565b5f819050919050565b5f615ab3615aae615aa984615a90565b615630565b615443565b9050919050565b615ac381615a99565b82525050565b5f60a082019050615adc5f8301886153a5565b615ae960208301876153a5565b615af660408301866153a5565b615b0360608301856155a0565b615b106080830184615aba565b9695505050505050565b5f5f60408385031215615b3057615b2f6153d6565b5b5f615b3d8582860161587a565b9250506020615b4e8582860161587a565b9150509250929050565b7f5a45524f5f434f4c4c41544552414c5f534841524500000000000000000000005f82015250565b5f615b8c60158361579a565b9150615b9782615b58565b602082019050919050565b5f6020820190508181035f830152615bb981615b80565b9050919050565b5f606082019050615bd35f8301866153a5565b615be06020830185615578565b615bed60408301846155a0565b949350505050565b7f4144445f434f4c4c41544552414c5f4641494c454400000000000000000000005f82015250565b5f615c2960158361579a565b9150615c3482615bf5565b602082019050919050565b5f6020820190508181035f830152615c5681615c1d565b9050919050565b7f4e4f5f434f4c4c41544552414c5f544f5f52454d4f56450000000000000000005f82015250565b5f615c9160178361579a565b9150615c9c82615c5d565b602082019050919050565b5f6020820190508181035f830152615cbe81615c85565b9050919050565b7f434f4c4c41544552414c5f5354494c4c5f50524553454e5400000000000000005f82015250565b5f615cf960188361579a565b9150615d0482615cc5565b602082019050919050565b5f6020820190508181035f830152615d2681615ced565b9050919050565b7f444542545f4d495353494e475f41465445525f52454d4f5645000000000000005f82015250565b5f615d6160198361579a565b9150615d6c82615d2d565b602082019050919050565b5f6020820190508181035f830152615d8e81615d55565b9050919050565b7f52454d4f56455f4449445f4e4f545f4c454156455f494e534f4c56454e5400005f82015250565b5f615dc9601e8361579a565b9150615dd482615d95565b602082019050919050565b5f6020820190508181035f830152615df681615dbd565b9050919050565b5f615e0782615443565b9150615e1283615443565b9250828201905080821115615e2a57615e29615a30565b5b92915050565b7f494e53554646494349454e545f434f4c4c41544552414c5f464f525f464c41535f8201527f485f524550415900000000000000000000000000000000000000000000000000602082015250565b5f615e8a60278361579a565b9150615e9582615e30565b604082019050919050565b5f6020820190508181035f830152615eb781615e7e565b9050919050565b7f5a45524f5f45585445524e414c5f4d494d5f41465445525f52455041590000005f82015250565b5f615ef2601d8361579a565b9150615efd82615ebe565b602082019050919050565b5f6020820190508181035f830152615f1f81615ee6565b9050919050565b7f4e487b71000000000000000000000000000000000000000000000000000000005f52602260045260245ffd5b5f6002820490506001821680615f6a57607f821691505b602082108103615f7d57615f7c615f26565b5b50919050565b5f606082019050615f965f8301866153a5565b615fa360208301856155a0565b615fb06040830184615578565b949350505050565b5f6fffffffffffffffffffffffffffffffff82169050919050565b615fdc81615fb8565b8114615fe6575f5ffd5b50565b5f81519050615ff781615fd3565b92915050565b5f5f60408385031215616013576160126153d6565b5b5f61602085828601615fe9565b925050602061603185828601615fe9565b9150509250929050565b5f61604582615443565b915061605083615443565b925082820261605e81615443565b9150828204841483151761607557616074615a30565b5b5092915050565b7f4e487b71000000000000000000000000000000000000000000000000000000005f52601260045260245ffd5b5f6160b382615443565b91506160be83615443565b9250826160ce576160cd61607c565b5b828204905092915050565b7f4e487b71000000000000000000000000000000000000000000000000000000005f52604160045260245ffd5b7f4e487b71000000000000000000000000000000000000000000000000000000005f52603260045260245ffd5b5f819050919050565b61614581616133565b82525050565b5f60408201905061615e5f83018561613c565b61616b60208301846153a5565b9392505050565b5f81519050919050565b5f82825260208201905092915050565b5f819050602082019050919050565b5f60ff82169050919050565b6161b08161619b565b82525050565b5f6161c183836161a7565b60208301905092915050565b5f602082019050919050565b5f6161e382616172565b6161ed818561617c565b93506161f88361618c565b805f5b8381101561622857815161620f88826161b6565b975061621a836161cd565b9250506001810190506161fb565b5085935050505092915050565b5f81519050919050565b5f82825260208201905092915050565b5f819050602082019050919050565b61626781615443565b82525050565b5f616278838361625e565b60208301905092915050565b5f602082019050919050565b5f61629a82616235565b6162a4818561623f565b93506162af8361624f565b805f5b838110156162df5781516162c6888261626d565b97506162d183616284565b9250506001810190506162b2565b5085935050505092915050565b5f81519050919050565b5f82825260208201905092915050565b5f819050602082019050919050565b5f82825260208201905092915050565b5f61632f826156a4565b6163398185616315565b93506163498185602086016156be565b616352816156cc565b840191505092915050565b5f6163688383616325565b905092915050565b5f602082019050919050565b5f616386826162ec565b61639081856162f6565b9350836020820285016163a285616306565b805f5b858110156163dd57848403895281516163be858261635d565b94506163c983616370565b925060208a019950506001810190506163a5565b50829750879550505050505092915050565b5f6060820190508181035f83015261640781866161d9565b9050818103602083015261641b8185616290565b9050818103604083015261642f818461637c565b9050949350505050565b5f61645361644e61644984615a90565b615630565b61619b565b9050919050565b61646381616439565b82525050565b5f60408201905061647c5f8301856153a5565b616489602083018461645a565b9392505050565b5f81905092915050565b5f6164a4826156a4565b6164ae8185616490565b93506164be8185602086016156be565b80840191505092915050565b5f6164d5828461649a565b915081905092915050565b7f415050524f56455f52455345545f4641494c45440000000000000000000000005f82015250565b5f61651460148361579a565b915061651f826164e0565b602082019050919050565b5f6020820190508181035f83015261654181616508565b9050919050565b5f60408201905061655b5f8301856153a5565b61656860208301846155a0565b9392505050565b7f415050524f56455f4641494c45440000000000000000000000000000000000005f82015250565b5f6165a3600e8361579a565b91506165ae8261656f565b602082019050919050565b5f6020820190508181035f8301526165d081616597565b9050919050565b5f60a0820190506165ea5f8301886153a5565b6165f760208301876153a5565b61660460408301866153a5565b6166116060830185615aba565b61661e60808301846155a0565b9695505050505050565b7f4645455f4255594241434b5f524f5554455f4e4f545f464f554e4400000000005f82015250565b5f61665c601b8361579a565b915061666782616628565b602082019050919050565b5f6020820190508181035f83015261668981616650565b9050919050565b7f5452414e534645525f4641494c454400000000000000000000000000000000005f82015250565b5f6166c4600f8361579a565b91506166cf82616690565b602082019050919050565b5f6020820190508181035f8301526166f1816166b8565b9050919050565b5f6167028261565a565b9050919050565b616712816166f8565b82525050565b5f60a08201905061672b5f830188616709565b61673860208301876153a5565b61674560408301866153a5565b61675260608301856155a0565b818103608083015261676481846156dc565b90509695505050505050565b7f424f52524f575f504154485f4e4f545f56414c494441544544000000000000005f82015250565b5f6167a460198361579a565b91506167af82616770565b602082019050919050565b5f6020820190508181035f8301526167d181616798565b9050919050565b7f52454d4f56455f504154485f4e4f545f56414c494441544544000000000000005f82015250565b5f61680c60198361579a565b9150616817826167d8565b602082019050919050565b5f6020820190508181035f83015261683981616800565b9050919050565b7f4e4f5f4e45545f4d494d5f50524f4649540000000000000000000000000000005f82015250565b5f61687460118361579a565b915061687f82616840565b602082019050919050565b5f6020820190508181035f8301526168a181616868565b9050919050565b7f4e4f5f434f4c4c41544552414c000000000000000000000000000000000000005f82015250565b5f6168dc600d8361579a565b91506168e7826168a8565b602082019050919050565b5f6020820190508181035f830152616909816168d0565b9050919050565b7f4e4f5f434f4c4c41544552414c5f464c4153485f4c49515549444954590000005f82015250565b5f616944601d8361579a565b915061694f82616910565b602082019050919050565b5f6020820190508181035f83015261697181616938565b9050919050565b5f60408201905061698b5f8301856155a0565b6169986020830184615578565b9392505050565b5f819050815f5260205f209050919050565b5f6020601f8301049050919050565b5f82821b905092915050565b5f600883026169fb7fffffffffffffffffffffffffffffffffffffffffffffffffffffffffffffffff826169c0565b616a0586836169c0565b95508019841693508086168417925050509392505050565b5f616a37616a32616a2d84615443565b615630565b615443565b9050919050565b5f819050919050565b616a5083616a1d565b616a64616a5c82616a3e565b8484546169cc565b825550505050565b5f5f905090565b616a7b616a6c565b616a86818484616a47565b505050565b5b81811015616aa957616a9e5f82616a73565b600181019050616a8c565b5050565b601f821115616aee57616abf8161699f565b616ac8846169b1565b81016020851015616ad7578190505b616aeb616ae3856169b1565b830182616a8b565b50505b505050565b5f82821c905092915050565b5f616b0e5f1984600802616af3565b1980831691505092915050565b5f616b268383616aff565b9150826002028217905092915050565b616b3f826156a4565b67ffffffffffffffff811115616b5857616b576160d9565b5b616b628254615f53565b616b6d828285616aad565b5f60209050601f831160018114616b9e575f8415616b8c578287015190505b616b968582616b1b565b865550616bfd565b601f198416616bac8661699f565b5f5b82811015616bd357848901518255600182019150602085019450602081019050616bae565b86831015616bf05784890151616bec601f891682616aff565b8355505b6001600288020188555050505b505050505050565b7f4e4f5f574f524b494e475f464c4153485f434f4e46494755524154494f4e00005f82015250565b5f616c39601e8361579a565b9150616c4482616c05565b602082019050919050565b5f6020820190508181035f830152616c6681616c2d565b9050919050565b7f494e543235365f4f564552464c4f5700000000000000000000000000000000005f82015250565b5f616ca1600f8361579a565b9150616cac82616c6d565b602082019050919050565b5f6020820190508181035f830152616cce81616c95565b9050919050565b5f616cdf82615443565b9150616cea83615443565b925082616cfa57616cf961607c565b5b828206905092915050565b5f616d0f82615375565b9050919050565b616d1f81616d05565b8114616d29575f5ffd5b50565b5f81519050616d3a81616d16565b92915050565b5f60208284031215616d5557616d546153d6565b5b5f616d6284828501616d2c565b91505092915050565b5f81519050919050565b5f82825260208201905092915050565b5f819050602082019050919050565b616d9d81615394565b82525050565b5f616dae8383616d94565b60208301905092915050565b5f602082019050919050565b5f616dd082616d6b565b616dda8185616d75565b9350616de583616d85565b805f5b83811015616e15578151616dfc8882616da3565b9750616e0783616dba565b925050600181019050616de8565b5085935050505092915050565b5f60a082019050616e355f8301886155a0565b616e4260208301876155a0565b8181036040830152616e548186616dc6565b9050616e6360608301856153a5565b616e7060808301846155a0565b9695505050505050565b616e83826156cc565b810181811067ffffffffffffffff82111715616ea257616ea16160d9565b5b80604052505050565b5f616eb46153cd565b9050616ec08282616e7a565b919050565b5f67ffffffffffffffff821115616edf57616ede6160d9565b5b602082029050602081019050919050565b5f616f02616efd84616ec5565b616eab565b90508083825260208201905060208402830185811115616f2557616f2461547e565b5b835b81811015616f4e5780616f3a888261587a565b845260208401935050602081019050616f27565b5050509392505050565b5f82601f830112616f6c57616f6b615476565b5b8151616f7c848260208601616ef0565b91505092915050565b5f60208284031215616f9a57616f996153d6565b5b5f82015167ffffffffffffffff811115616fb757616fb66153da565b5b616fc384828501616f58565b91505092915050565b5f604082019050616fdf5f8301856155a0565b616fec60208301846153a5565b9392505050565b5f616ffd82615443565b91507fffffffffffffffffffffffffffffffffffffffffffffffffffffffffffffffff820361702f5761702e615a30565b5b60018201905091905056fea2646970667358221220f923e4231122dccffc82bfd7dd12d3188a79f3a3d99a75fe2ae4ac4aeda150f164736f6c634300081e0033","linkReferences":{}},"methodIdentifiers":{"MIM()":"daec383d","SUSHI_ROUTER()":"0c24f4fa","TARGET()":"cc1f2afa","TARGET_CAULDRON()":"bd7a598c","UNISWAP_V2_ROUTER()":"a82ed9ec","WETH()":"ad5c4648","collateralShareAdded()":"4071084d","collateralToken()":"b2016bd4","convexDepositToken()":"5eb143ce","curveLpToken()":"646780df","execute()":"61461954","executeWithAmount(uint256,bool)":"4e9b83df","exploit()":"63d9b770","flashAmount()":"b570137a","flashFee()":"e07df5b4","lastAttemptRevertData()":"fdc0fe37","mimBorrowedShare()":"c129423d","mimProfitAmount()":"715f7abb","onFlashLoan(address,address,uint256,uint256,bytes)":"23e30c8b","requireZeroFee()":"3e5a6654","run()":"c0406226","underlyingToken()":"2495a599","usedFeeBuyback()":"8e2153e7","validatedBorrowPath()":"555a5f80","validatedRemovePath()":"e272f9be"},"id":0}