{"abi":[{"type":"constructor","inputs":[],"stateMutability":"nonpayable"},{"type":"function","name":"TARGET","inputs":[],"outputs":[{"name":"","type":"address","internalType":"address"}],"stateMutability":"view"},{"type":"function","name":"directSelfPathAttempted","inputs":[],"outputs":[{"name":"","type":"bool","internalType":"bool"}],"stateMutability":"view"},{"type":"function","name":"directSelfPathFeasible","inputs":[],"outputs":[{"name":"","type":"bool","internalType":"bool"}],"stateMutability":"view"},{"type":"function","name":"duplicatePathValidated","inputs":[],"outputs":[{"name":"","type":"bool","internalType":"bool"}],"stateMutability":"view"},{"type":"function","name":"executeOnOpportunity","inputs":[],"outputs":[],"stateMutability":"nonpayable"},{"type":"function","name":"failure","inputs":[],"outputs":[{"name":"","type":"bytes32","internalType":"bytes32"}],"stateMutability":"view"},{"type":"function","name":"finalEconomicBalance","inputs":[],"outputs":[{"name":"","type":"uint256","internalType":"uint256"}],"stateMutability":"view"},{"type":"function","name":"firstClaimIncrease","inputs":[],"outputs":[{"name":"","type":"uint256","internalType":"uint256"}],"stateMutability":"view"},{"type":"function","name":"fundedBlock","inputs":[],"outputs":[{"name":"","type":"uint256","internalType":"uint256"}],"stateMutability":"view"},{"type":"function","name":"fundingAmount","inputs":[],"outputs":[{"name":"","type":"uint256","internalType":"uint256"}],"stateMutability":"view"},{"type":"function","name":"initialEconomicBalance","inputs":[],"outputs":[{"name":"","type":"uint256","internalType":"uint256"}],"stateMutability":"view"},{"type":"function","name":"orderingFailure","inputs":[],"outputs":[{"name":"","type":"bytes32","internalType":"bytes32"}],"stateMutability":"view"},{"type":"function","name":"orderingPathValidated","inputs":[],"outputs":[{"name":"","type":"bool","internalType":"bool"}],"stateMutability":"view"},{"type":"function","name":"primaryProvider","inputs":[],"outputs":[{"name":"","type":"address","internalType":"address"}],"stateMutability":"view"},{"type":"function","name":"primaryStakeAtAfterFirst","inputs":[],"outputs":[{"name":"","type":"uint256","internalType":"uint256"}],"stateMutability":"view"},{"type":"function","name":"primaryStakeAtAfterSecond","inputs":[],"outputs":[{"name":"","type":"uint256","internalType":"uint256"}],"stateMutability":"view"},{"type":"function","name":"primaryStakeAtBefore","inputs":[],"outputs":[{"name":"","type":"uint256","internalType":"uint256"}],"stateMutability":"view"},{"type":"function","name":"profitAmount","inputs":[],"outputs":[{"name":"","type":"uint256","internalType":"uint256"}],"stateMutability":"view"},{"type":"function","name":"profitToken","inputs":[],"outputs":[{"name":"","type":"address","internalType":"address"}],"stateMutability":"view"},{"type":"function","name":"secondClaimIncrease","inputs":[],"outputs":[{"name":"","type":"uint256","internalType":"uint256"}],"stateMutability":"view"},{"type":"function","name":"secondaryActualIncrease","inputs":[],"outputs":[{"name":"","type":"uint256","internalType":"uint256"}],"stateMutability":"view"},{"type":"function","name":"secondaryExpectedAfter","inputs":[],"outputs":[{"name":"","type":"uint256","internalType":"uint256"}],"stateMutability":"view"},{"type":"function","name":"secondaryExpectedBefore","inputs":[],"outputs":[{"name":"","type":"uint256","internalType":"uint256"}],"stateMutability":"view"},{"type":"function","name":"secondaryProvider","inputs":[],"outputs":[{"name":"","type":"address","internalType":"address"}],"stateMutability":"view"},{"type":"function","name":"snapshotTotalAfterFirst","inputs":[],"outputs":[{"name":"","type":"uint256","internalType":"uint256"}],"stateMutability":"view"},{"type":"function","name":"snapshotTotalAfterSecond","inputs":[],"outputs":[{"name":"","type":"uint256","internalType":"uint256"}],"stateMutability":"view"},{"type":"function","name":"snapshotTotalBefore","inputs":[],"outputs":[{"name":"","type":"uint256","internalType":"uint256"}],"stateMutability":"view"},{"type":"function","name":"usedExistingProviderFallback","inputs":[],"outputs":[{"name":"","type":"bool","internalType":"bool"}],"stateMutability":"view"},{"type":"function","name":"usedExistingRoundFunding","inputs":[],"outputs":[{"name":"","type":"bool","internalType":"bool"}],"stateMutability":"view"}],"bytecode":{"object":"0x6080806040523460155761347e908161001a8239f35b5f80fdfe6080806040526004361015610012575f80fd5b5f3560e01c90816304a79c97146104e9575080630be9d598146104c7578063103b604d146104aa57806322e70c201461048d57806328b86542146104705780632c2794681461044c5780633c2448ed14610432578063493436241461040b5780634e97c9fe146103ee57806352ab57eb146103c9578063547350141461039d5780635f709651146103785780635ff972cc1461035b57806360f47d5f1461033e57806363934e371461031657806376ffb887146102f957806378a49f5f146102dc5780638381c59f146102b75780638981431b1461029257806391cfbcce1461027557806393e60d2214610258578063abf7f2cb1461023b578063b21ad1d71461021e578063bcb6826414610201578063c0627e3c146101e4578063cc1f2afa146101b6578063ee24b0fa14610199578063f0ef549b1461017c5763f84736151461015b575f80fd5b34610178575f366003190112610178576020600a54604051908152f35b5f80fd5b34610178575f366003190112610178576020601054604051908152f35b34610178575f366003190112610178576020600e54604051908152f35b34610178575f366003190112610178576020604051734deca517d6817b6510798b7328f2314d3003abac8152f35b34610178575f366003190112610178576020600954604051908152f35b34610178575f366003190112610178576020600c54604051908152f35b34610178575f366003190112610178576020600b54604051908152f35b34610178575f366003190112610178576020600754604051908152f35b34610178575f366003190112610178576020601454604051908152f35b34610178575f366003190112610178576020600d54604051908152f35b34610178575f36600319011261017857602060ff60025460101c166040519015158152f35b34610178575f36600319011261017857602060ff60025460181c166040519015158152f35b34610178575f366003190112610178576020601154604051908152f35b34610178575f366003190112610178576020601354604051908152f35b34610178575f366003190112610178576003546040516001600160a01b039091168152602090f35b34610178575f366003190112610178576020600454604051908152f35b34610178575f366003190112610178576020600154604051908152f35b34610178575f36600319011261017857602060ff60025460281c166040519015158152f35b34610178575f3660031901126101785760025460405160309190911c6001600160a01b03168152602090f35b34610178575f36600319011261017857602060ff60025460081c166040519015158152f35b34610178575f366003190112610178576020600654604051908152f35b34610178575f366003190112610178575f546040516001600160a01b039091168152602090f35b34610178575f3660031901126101785761044a6105a6565b005b34610178575f36600319011261017857602060ff600254821c166040519015158152f35b34610178575f366003190112610178576020600854604051908152f35b34610178575f366003190112610178576020601254604051908152f35b34610178575f366003190112610178576020600f54604051908152f35b34610178575f36600319011261017857602060ff600254166040519015158152f35b34610178575f366003190112610178576020906005548152f35b6040810190811067ffffffffffffffff82111761051f57604052565b634e487b7160e01b5f52604160045260245ffd5b90601f8019910116810190811067ffffffffffffffff82111761051f57604052565b51906001600160a01b038216820361017857565b67ffffffffffffffff811161051f57601f01601f191660200190565b9190820180921161059257565b634e487b7160e01b5f52601160045260245ffd5b5f6001600160601b0360a01b5f5416805f555f60015565ffffffffffff60d01b600254166002556001600160601b0360a01b600354166003555f6004555f6005555f6006555f6007555f6008555f6009555f600a555f600b555f600c555f600d555f600e555f600f555f6010555f6011555f6012555f6013555f6014556040516368b2a1fb60e11b8152602081600481734deca517d6817b6510798b7328f2314d3003abac5afa908115610c6b575f91610d99575b50604051630e9ed68b60e01b815290602082600481734deca517d6817b6510798b7328f2314d3003abac5afa918215610c6b575f92610d5d575b50604051621573a560e11b8152602081600481734deca517d6817b6510798b7328f2314d3003abac5afa908115610c6b575f91610d23575b506001600160a01b0382168015610ce5576001600160a01b038416918215610caf576001600160a01b0316928315610c7657604051634a472a1360e11b815290602082600481865afa918215610c6b575f92610c2f575b506001600160a01b038216968715610bf057604051637e062a3560e11b8152905f6020836004818a5afa805f91610bb3575b6107769450610bab575b506001600160a01b03169081175f553090610e02565b96803b1561017857604051635c50650760e11b81525f8160048183865af19081610b96575b50610b85576107a983610e8d565b8060045564ff0000000060025491151560201b169064ff000000001916176002555b60045415610b4257600460208a9260405192838092632a2085f360e01b82525afa8a9181610b0e575b50610b06575b508060055515610ac45760045443146109225750509083916501010000000065ffff00000000196002541617600255610833838561228a565b60025460301c6001600160a01b031680151594908561090e575b5084156108f3575b50505050156108a7576108a59250601f6020604051610875604082610533565b828152017f4f52444552494e475f52455155495245535f46554e44494e475f424c4f434b00815220601455610efa565b565b6108a592601354156108ba575b50610efa565b50601260206040516108cd604082610533565b828152017114915413105657d410551217d1905253115160721b8152206013555f6108b4565b61090594506109006118f0565b6126c0565b815f8080610855565b61091b91955083836124c1565b935f61084d565b61094f6109719395986201000062ff0000196002541617600255309060018060a01b03905416888b61100d565b151563ff0000006002549160181b169063ff0000001916176002558588611445565b60025460301c6001600160a01b031615610a85576002546109a79060301c6001600160a01b0316308114610a6a575b82846115bc565b15610a04575b506003546108a594906109ca906001600160a01b03168484611c7e565b826002549260ff8460081c16156109e5575b50505050610efa565b6109fb9360301c6001600160a01b031692611fe0565b5f8082816109dc565b82610a1891610a116118f0565b838761194d565b15610a23575f6109ad565b506108a59250601354610efa5760156020604051610a42604082610533565b8281520174111554131250d0551157d410551217d19052531151605a1b815220601355610efa565b610a7d610a77308761157e565b87610585565b6006556109a0565b50506108a5925060136020604051610a9e604082610533565b82815201722727afa82924a6a0a92cafa82927ab24a222a960691b815220601355610efa565b50505050506108a5925060136020604051610ae0604082610533565b828152017216915493d7d1955391125391d7d05353d55395606a1b815220601355610efa565b90505f6107fa565b9091506020813d602011610b3a575b81610b2a60209383610533565b810103126101785751905f6107f4565b3d9150610b1d565b505050505050826108a593505060116020604051610b61604082610533565b8281520170524f554e445f554e415641494c41424c4560781b815220601355610efa565b610b8e83610e8d565b6004556107cb565b610ba3919a505f90610533565b5f985f61079b565b90505f610760565b90506020843d602011610be8575b81610bce60209383610533565b8101031261017857610be261077694610555565b90610756565b3d9150610bc1565b50505050505050505060146020604051610c0b604082610533565b828152017310d310525354d7d350539051d15497d55394d15560621b815220601355565b9091506020813d602011610c63575b81610c4b60209383610533565b8101031261017857610c5c90610555565b905f610724565b3d9150610c3e565b6040513d5f823e3d90fd5b5050505050505060106020604051610c8f604082610533565b828152016f14d417d19050d513d49657d55394d15560821b815220601355565b50505050505050600d6020604051610cc8604082610533565b828152016c14d51052d25391d7d55394d155609a1b815220601355565b50505050505060166020604051610cfd604082610533565b82815201751111531151d0551157d350539051d15497d55394d15560521b815220601355565b90506020813d602011610d55575b81610d3e60209383610533565b8101031261017857610d4f90610555565b5f6106cd565b3d9150610d31565b9091506020813d602011610d91575b81610d7960209383610533565b8101031261017857610d8a90610555565b905f610695565b3d9150610d6c565b90506020813d602011610dcb575b81610db460209383610533565b8101031261017857610dc590610555565b5f61065b565b3d9150610da7565b3d15610dfd573d90610de482610569565b91610df26040519384610533565b82523d5f602084013e565b606090565b5f92916001600160a01b03821615610e86575f91829160405160208101916370a0823160e01b835260018060a01b0316602482015260248152610e46604482610533565b51915afa610e52610dd3565b9080610e7a575b610e605750565b805191925060208082019282019190910312610178575190565b50602081511015610e59565b505f925050565b6040516360558c0f60e01b81525f9291602090829060049082906001600160a01b03165afa5f9181610ec6575b50610ec25750565b9150565b9091506020813d602011610ef2575b81610ee260209383610533565b810103126101785751905f610eba565b3d9150610ed5565b9060018060a01b0360025460301c163014610f3f57610f1d610f2392309061157e565b90610585565b6007556004544311610f3757600f54600155565b600e54600155565b50610f6290610f1d610f5a3060018060a01b035f5416610e02565b91309061157e565b806007556006548082115f14610f8057610f7b916128f0565b600155565b50505f600155565b6020818303126101785780519067ffffffffffffffff821161017857019080601f830112156101785781519167ffffffffffffffff831161051f578260051b9060405193610fd96020840186610533565b845260208085019282010192831161017857602001905b828210610ffd5750505090565b8151815260209182019101610ff0565b6001600160a01b031692611021818561290a565b8261143b575b5081611433575b5061142a57604051635a7d0a6f60e11b8152602081600481885afa5f91816113ee575b5061105f5750505050505f90565b6001600160a01b03169384156113e557604051635a0100d760e01b81525f81600481895afa5f91816113c1575b5061109b575050505050505f90565b959192939495928351156113b6575f5f19955f5b865181101561117d578960606110c5838a61192b565b51602460405180948193634df3567b60e11b835260048301525afa90815f915f9361113c575b506110fb575b50506001016110af565b80611133575b8061112a575b611112575b806110f1565b975091506001611122838861192b565b51929061110c565b50888110611107565b50801515611101565b915091506060813d8211611175575b8161115860609383610533565b8101031261017857602061116b826128fd565b910151915f6110eb565b3d915061114b565b509296919594509296505f1984146113ae575b83156113a457836111a18683610e02565b106113a4576111b19184916129a0565b1561139c576040516001600160a01b038416906111cf606082610533565b602a81526020810191604036843781511561138857603083538151600110156113885760786021830153602a5b6002811161134857506113165760209260a49161125f600860316040518097898201957068747470733a2f2f76657269666965722d60781b87525180918484015e8101670b9a5b9d985b1a5960c21b838201520301601719810187520185610533565b6040519586948593634fe84c0960e01b85526004850152608060248501525180928160848601528585015e5f84838501015260448301525f6064830152601f801991011681010301815f875af190816112e7575b506112be5750505f90565b6112c79161290a565b90826112df575b50816112d8575090565b9050151590565b91505f6112ce565b6020813d60201161130e575b8161130060209383610533565b8101031261017857516112b3565b3d91506112f3565b60405162461bcd60e51b815260206004820152600a6024820152690908ab0be988a9c8ea8960b31b6044820152606490fd5b5f190190600f81166010811015611388578351831015611388576f181899199a1a9b1b9c1cb0b131b232b360811b901a8383016020015360041c906111fc565b634e487b7160e01b5f52603260045260245ffd5b505050505f90565b5050505050505f90565b5f9350611190565b505093505050505f90565b6113de9192503d805f833e6113d68183610533565b810190610f88565b905f61108c565b50505050505f90565b9091506020813d602011611422575b8161140a60209383610533565b810103126101785761141b90610555565b905f611051565b3d91506113fd565b50505050600190565b90505f61102e565b151591505f611027565b9192909260025460ff8160181c1661152c575061147b9293600254946501000000000065ff000000000019871617600255612aa7565b909290916001600160a01b0381166114da57505060028054600160301b600160d01b03191660309290921b600160301b600160d01b0316919091179055600380546001600160a01b0319166001600160a01b0392909216919091179055565b65010000000000600160d01b031990911660309190911b600160301b600160d01b031617650100000000001760025550600380546001600160a01b0319166001600160a01b0392909216919091179055565b600160301b600160d01b03191630603081901b600160301b600160d01b0316919091176002556001600160a01b03946115689491939291612a3f565b166001600160601b0360a01b6003541617600355565b604051634b341aed60e01b81526001600160a01b0392831660048201525f9392909160209183916024918391165afa5f9181610ec65750610ec25750565b5f92916001600160a01b0316906115d38383612c68565b6004548091116118aa57806115eb6115f59285612ca6565b6008558484612ce3565b600b55611602838361157e565b906001600160a01b0316803b1561017857604051633bd73ee360e21b81526001600160a01b03851660048201819052905f8160248183875af19081611895575b506116835750505050506014602060405161165e604082610533565b828152017311925494d517d0d310525357d49155915495115160621b81522060135590565b61168d858561157e565b928084111561188e576116a090846128f0565b80600e556004546116b18187612ca6565b806009556116c0828989612ce3565b9182600c556116cf8989612c68565b9315938415611883575b50508215611876575b508115611869575b5061182457813b1561182057858092602482936040519586938492633bd73ee360e21b845260048401525af19182611807575b505061175e5750505060156020604051611738604082610533565b828152017414d150d3d39117d0d310525357d491559154951151605a1b81522060135590565b9290919261176c848461157e565b818111156117ff5761177e92506128f0565b915b82600f556004546117ae6117948285612ca6565b9283600a556117a4838287612ce3565b9485600d55612c68565b93151593846117f5575b5050826117e9575b50816117dd575b5060ff8019600254169115151680911760025590565b9050600c54105f6117c7565b6009541091505f6117c0565b1492505f806117b8565b505091611780565b8161181191610533565b61181c57845f61171d565b8480fd5b8580fd5b5050505050601f602060405161183b604082610533565b828152017f46495253545f434c41494d5f4e4f5f4d555441424c455f534e415053484f540081522060135590565b9050600b5410155f6116ea565b600854101591505f6116e2565b141592505f806116d9565b50856116a0565b6118a29197505f90610533565b5f955f611642565b5050505050601d60206040516118c1604082610533565b828152017f5052494d4152595f414c52454144595f434c41494d45445f4c415445520000008152206013555f90565b65ffffffffff01600160d01b0319600254166002555f6008555f6009555f600a555f600b555f600c555f600d555f600e555f600f555f601355565b80518210156113885760209160051b010190565b5f1981146105925760010190565b929160025460ff8160181c1680611c36575b611bd8575b50604051635a7d0a6f60e11b81526001600160a01b0385169290602081600481875afa5f9181611b9c575b5061199e575050505050505f90565b6001600160a01b031680156113a4575f60049160405192838092635a0100d760e01b82525afa5f9181611b80575b506119db575050505050505f90565b935f5b8551811015611b75576119f1818761192b565b516040519063623fa63160e01b82526004820152602081602481895afa5f9181611b42575b50611a2657506001905b016119de565b60015b81811115611a3b575050600190611a20565b611a5581611a4e858b959b9c969c61192b565b5185612d28565b6001600160a01b0381168015908115611b2a575b8115611b20575b50611b0e57611a7f818961290a565b5081611b18575b5015611b0e57611a968186612c68565b60045410611b0e5760028054600160301b600160d01b031916603083901b600160301b600160d01b0316179055611ace9087876115bc565b611aee57611ae390611ade6118f0565b61193f565b979197969096611a29565b5050505050505050506001600160601b0360a01b60035416600355600190565b50611ae39061193f565b90505f611a86565b905030145f611a70565b60025460301c6001600160a01b031681149150611a69565b9091506020813d8211611b6d575b81611b5d60209383610533565b810103126101785751905f611a16565b3d9150611b50565b505050505050505f90565b611b959192503d805f833e6113d68183610533565b905f6119cc565b9091506020813d602011611bd0575b81611bb860209383610533565b8101031261017857611bc990610555565b905f61198f565b3d9150611bab565b600160301b600160d01b03191630603081901b600160301b600160d01b031691909117600255611c099082846115bc565b611c1b57611c156118f0565b5f611964565b505050506001600160601b0360a01b60035416600355600190565b50603081901c6001600160a01b031630141561195f565b8181029291811591840414171561059257565b8115611c6a570490565b634e487b7160e01b5f52601260045260245ffd5b5f916001600160a01b0384168015611f9c57611c9a8583612c68565b6004541115611f58576040516368b2a1fb60e11b81525f602082600481734deca517d6817b6510798b7328f2314d3003abac5afa805f91611f1b575b611ce89350611f13575b508387612e01565b8015611ec357611d20611d17600554611d0d611d048286611c4d565b60085490611c60565b9384601055611c4d565b600a5490611c60565b90816011551115611e7f57611d35858361157e565b926001600160a01b031690813b15610178575f91602483926040519485938492633bd73ee360e21b845260048401525af19081611e6a575b50611db85750508091505050601e6020604051611d8b604082610533565b828152017f5345434f4e445f50524f56494445525f434c41494d5f52455645525445440000815220601455565b60ff93611dc49161157e565b81811115611e6357611dd692506128f0565b806012558015159081611e57575b5061ff0060025491151560081b169061ff001916178060025560081c161580611e4d575b611e0e57565b601f6020604051611e20604082610533565b828152017f5345434f4e445f50524f56494445525f5245574152445f4d49534d4154434800815220601455565b5060145415611e08565b9050601154145f611de4565b5050611dd6565b611e779194505f90610533565b5f925f611d6d565b5050505050601b6020604051611e96604082610533565b828152017f4f52444552494e475f44454c54415f4e4f545f4e454741544956450000000000815220601455565b5050505050506021604051611ed9606082610533565b818152604560f81b604060208301927f5345434f4e445f50524f56494445525f5a45524f5f4143544956455f5354414b8452015220601455565b90505f611ce0565b90506020833d602011611f50575b81611f3660209383610533565b8101031261017857611f4a611ce893610555565b90611cd6565b3d9150611f29565b5050505050601b6020604051611f6f604082610533565b828152017f5345434f4e445f50524f56494445525f4e4f545f50454e44494e470000000000815220601455565b5050505050601a6020604051611fb3604082610533565b828152017f4e4f5f5345434f4e445f50454e44494e475f50524f5649444552000000000000815220601455565b9291600854158015612280575b61223357604051635a7d0a6f60e11b81526001600160a01b0385169290602081600481875afa5f91816121f7575b5061202857505050505050565b6001600160a01b031680156121ef575f60049160405192838092635a0100d760e01b82525afa5f91816121d3575b5061206357505050505050565b935f5b85518110156121ca57612079818761192b565b516040519063623fa63160e01b82526004820152602081602481895afa5f9181612197575b506120ae57506001905b01612066565b60015b818111156120c35750506001906120a8565b6120d681611a4e858b959b9c969c61192b565b6001600160a01b03811680158015612185575b801561217c575b612169576120fe828a61290a565b5081612174575b5015612169576121158289612c68565b6004541115612169579061213d916001600160601b0360a01b60035416176003558787611c7e565b60ff60025460081c1661215e576121539061193f565b9791979690966120b1565b505050505050505050565b50506121539061193f565b90505f612105565b503081146120f0565b506001600160a01b03861681146120e9565b9091506020813d82116121c2575b816121b260209383610533565b810103126101785751905f61209e565b3d91506121a5565b50505050505050565b6121e89192503d805f833e6113d68183610533565b905f612056565b505050505050565b9091506020813d60201161222b575b8161221360209383610533565b810103126101785761222490610555565b905f61201b565b3d9150612206565b505050506014541561224157565b60196020604051612253604082610533565b828152017f4f52444552494e475f424153454c494e455f4d495353494e4700000000000000815220601455565b50600a5415611fed565b604051635a7d0a6f60e11b81529091906001600160a01b03831690602081600481855afa5f9181612485575b506122c15750505050565b6001600160a01b0316801561247f575f60049160405192838092635a0100d760e01b82525afa5f9181612463575b506122fa5750505050565b905f5b825181101561244c57612310818461192b565b516040519063623fa63160e01b82526004820152602081602481865afa5f9181612419575b5061234557506001905b016122fd565b6001905b8082111561235b57505060019061233f565b929194936123778261237088849a959a61192b565b5184612d28565b966001600160a01b038816801590811561240f575b506123ed5761239b8887612c68565b600454036123ed576123ad888561290a565b5081612407575b50156123ed57505060028054600160301b600160d01b03191660309790971b600160301b600160d01b0316969096179095555050505050565b6123fd919293949596975061193f565b9093959195612349565b90505f6123b4565b905030145f61238c565b9091506020813d8211612444575b8161243460209383610533565b810103126101785751905f612335565b3d9150612427565b5050600380546001600160a01b0319169055505050565b6124789192503d805f833e6113d68183610533565b905f6122ef565b50505050565b9091506020813d6020116124b9575b816124a160209383610533565b81010312610178576124b290610555565b905f6122b6565b3d9150612494565b5f92916001600160a01b0316906124d88383612c68565b60045480910361267a57806115eb6124f09285612ca6565b600b556124fd838361157e565b906001600160a01b0316803b1561017857604051633bd73ee360e21b81526001600160a01b0385166004820152905f908290602490829084905af19081612665575b5061257f5750505060156020604051612559604082610533565b828152017414915413105657d0d310525357d491559154951151605a1b81522060135590565b9290919261258d848461157e565b8181111561265d5761259f92506128f0565b915b82600e556004546125cf6125b58285612ca6565b92836009556125c5838287612ce3565b9485600c55612c68565b9315159384612653575b505082612647575b508161263b575b5060ff8019600254169115151680911760025580156126045790565b60146020604051612616604082610533565b828152017314915413105657d393d7d15615149057d352539560621b81522060135590565b9050600b54145f6125e8565b6008541491505f6125e1565b1192505f806125d9565b5050916125a1565b6126729195505f90610533565b5f935f61253f565b505050505060176020604051612691604082610533565b828152017f50524f56494445525f4e4f545f5245504c415941424c450000000000000000008152206013555f90565b604051635a7d0a6f60e11b815290936001600160a01b0385169390929091602081600481885afa5f91816128b4575b506126fe575050505050505f90565b6001600160a01b031680156113a4575f60049160405192838092635a0100d760e01b82525afa5f9181612898575b5061273b575050505050505f90565b935f5b8551811015611b7557612751818761192b565b516040519063623fa63160e01b82526004820152602081602481865afa5f9181612865575b5061278657506001905b0161273e565b60015b8181111561279b575050600190612780565b6127ae81611a4e858b959b9c969c61192b565b6001600160a01b038116801590811561285b575b50612849576127d18189612c68565b60045403612849576127e3818661290a565b5081612853575b50156128495760028054600160301b600160d01b031916603083901b600160301b600160d01b03161790556128209087876124c1565b61283b5761283090611ade6118f0565b979197969096612789565b505050505050505050600190565b506128309061193f565b90505f6127ea565b905030145f6127c2565b9091506020813d8211612890575b8161288060209383610533565b810103126101785751905f612776565b3d9150612873565b6128ad9192503d805f833e6113d68183610533565b905f61272c565b9091506020813d6020116128e8575b816128d060209383610533565b81010312610178576128e190610555565b905f6126ef565b3d91506128c3565b9190820391821161059257565b5190811515820361017857565b604051631e4e7d3560e31b81526001600160a01b0392831660048201525f938493849391929160c09183916024918391165afa805f925f9261295b575b50612950575050565b600195509093509150565b9250905060c0823d60c011612998575b8161297860c09383610533565b8101031261017857606061298e604084016128fd565b920151905f612947565b3d915061296b565b9091906001600160a01b03811615612a385760405163095ea7b360e01b602082019081526001600160a01b039490941660248201526044808201939093529182525f92839283906129f2606482610533565b51925af16129fe610dd3565b9015612a33578051908115918215612a1557505090565b8192509060209181010312610178576020612a3091016128fd565b90565b505f90565b5050505f90565b9493929091612a4f925f96612aa7565b50916001600160a01b0390811691908116808314159081612a9d575b50612a9757506001600160a01b038216908114159081612a8d5750610ec25750565b905015155f610eba565b93505050565b905015155f612a6b565b604051635a7d0a6f60e11b81529394936001600160a01b039091169190602081600481865afa5f9181612c2c575b50612ae8575050505090505f905f905f90565b6001600160a01b03168015612c1e575f60049160405192838092635a0100d760e01b82525afa5f9181612c02575b50612b29575050505090505f905f905f90565b604051612b3581610503565b5f81525f602082015292604051612b4b81610503565b5f81525f602082015296604051612b6181610503565b5f81525f602082015295604051946080860186811067ffffffffffffffff82111761051f5760409081526001600160a01b03918216875291811660208701529190911690840152606083015293925f925b8551841015612be557908596612bd692612bcf866001989961192b565b5185612f9c565b90969594939093019290612bb2565b51955190516001600160a01b039687169691821695501692915050565b612c179192503d805f833e6113d68183610533565b905f612b16565b5050505090505f905f905f90565b9091506020813d602011612c60575b81612c4860209383610533565b8101031261017857612c5990610555565b905f612ad5565b3d9150612c3b565b60405163231a857360e11b81526001600160a01b0392831660048201525f9392909160209183916024918391165afa5f9181610ec65750610ec25750565b6040516364e2991960e11b815260048101929092525f929190602090829060249082906001600160a01b03165afa5f9181610ec65750610ec25750565b60405163ede3842160e01b81526001600160a01b03928316600482015260248101939093525f93929160209183916044918391165afa5f9181610ec65750610ec25750565b604051631d23aa0b60e21b8152600481019290925260248201929092525f92918390829060449082906001600160a01b03165afa5f9181612d6b5750610ec25750565b9091503d805f833e612d7d8183610533565b81019060808183031261017857612d9381610555565b91602082015167ffffffffffffffff81116101785782019181601f8401121561017857825191612dc283610569565b90612dd06040519283610533565b83825260208486010111610178576020835f9260609583612df998018483015e01015201610555565b50905f610eba565b90612e10908260045491612ce3565b604051633ee0f75d60e11b81526001600160a01b039283166004820181905291935f9360209183916024918391165afa5f9181612f68575b50612f60575b50604051621573a560e11b81525f9290602081600481734deca517d6817b6510798b7328f2314d3003abac5afa5f9181612f24575b50612f1c575b5060405f926024825180968193637fb29e4560e11b8352600483015260018060a01b03165afa805f91612ee6575b612ec79450612ede575b50610585565b80821115612ed857612a30916128f0565b50505f90565b91505f612ec1565b90506040843d604011612f14575b81612f0160409383610533565b8101031261017857612ec7935190612eb7565b3d9150612ef4565b92505f612e89565b9091506020813d602011612f58575b81612f4060209383610533565b8101031261017857612f5190610555565b905f612e83565b3d9150612f33565b91505f612e4e565b9091506020813d602011612f94575b81612f8460209383610533565b810103126101785751905f612e48565b3d9150612f77565b949294604051612fab81610503565b5f81525f602082015250604051612fc181610503565b5f81525f602082015250604051612fd781610503565b5f808252602091820152606082015160405163623fa63160e01b8152600481018590526001600160a01b03909116939181602481875afa5f91816130a4575b506130245750505050929190565b90916001925b8284111561303c575050505050929190565b91939690929461304d86848a612d28565b6001600160a01b038116801590811561309a575b5061308c57986130779291856130839a9b6130d8565b9891989790989561193f565b9290939161302a565b50946130839097919761193f565b905030145f613061565b9091506020813d6020116130d0575b816130c060209383610533565b810103126101785751905f613016565b3d91506130b3565b9061314c909593956040516130ec81610503565b5f81525f60208201525060405161310281610503565b5f81525f60208201525060405161311881610503565b5f80825260209182015260608201518251918301516040909301516001600160a01b039081169381169281169116856132d5565b929190911580156132cd575b6132c4576131c5575b806131ae575b806131a1575b613179575b5050929190565b6040519294509061318983610503565b6001600160a01b031682526020820152915f80613172565b506020850151811161316d565b5084516001600160a01b0383811691161415613167565b835190936001600160a01b03848116921682141580806132b7575b1561325d575080516001600160a01b031680151580613253575b61321c575b50506040519061320e82610503565b815281602082015292613161565b88516001600160a01b0316141580613242575b61323a575b806131ff565b96505f613234565b50602081015160208901511061322f565b50828114156131fa565b90949190806132a3575b80613296575b613278575b50613161565b60405191975061328782610503565b8152816020820152955f613272565b506020880151831161326d565b5087516001600160a01b0316811415613267565b50602082015184116131e0565b50505050929190565b508215613158565b9193929081856132e5928561340a565b156133fc57600454936132f88582612ca6565b9182156133e45761330a908285612e01565b9081156133e4578361331b91612c68565b8581109514938515806133f4575b6133e45760405163d017f48360e01b81526001600160a01b0394851660048201525f94909160209183916024918391165afa5f918161339d575b5093613384929161338995613395575b508661338f575b5060055490611c4d565b611c60565b80151593565b1561337a565b90505f613373565b929150936020833d6020116133dc575b816133ba60209383610533565b8101031261017857613389946133d2613384946128fd565b9293509094613363565b3d91506133ad565b5050505050505f905f905f905f90565b508415613329565b505050505f905f905f905f90565b9291906134219084906001600160a01b031661290a565b50901590811561343f575b50612a385761343a92612e01565b151590565b9050155f61342c56fea26469706673582212207d8c9cd74010d25271ff2311fe101f77c2067e6accdf4720153028f13efb864264736f6c634300081e0033","linkReferences":{}},"methodIdentifiers":{"TARGET()":"cc1f2afa","directSelfPathAttempted()":"8981431b","directSelfPathFeasible()":"8381c59f","duplicatePathValidated()":"0be9d598","executeOnOpportunity()":"3c2448ed","failure()":"76ffb887","finalEconomicBalance()":"abf7f2cb","firstClaimIncrease()":"ee24b0fa","fundedBlock()":"60f47d5f","fundingAmount()":"04a79c97","initialEconomicBalance()":"4e97c9fe","orderingFailure()":"93e60d22","orderingPathValidated()":"52ab57eb","primaryProvider()":"54735014","primaryStakeAtAfterFirst()":"bcb68264","primaryStakeAtAfterSecond()":"91cfbcce","primaryStakeAtBefore()":"b21ad1d7","profitAmount()":"5ff972cc","profitToken()":"49343624","secondClaimIncrease()":"103b604d","secondaryActualIncrease()":"22e70c20","secondaryExpectedAfter()":"78a49f5f","secondaryExpectedBefore()":"f0ef549b","secondaryProvider()":"63934e37","snapshotTotalAfterFirst()":"c0627e3c","snapshotTotalAfterSecond()":"f8473615","snapshotTotalBefore()":"28b86542","usedExistingProviderFallback()":"5f709651","usedExistingRoundFunding()":"2c279468"},"id":0}