{"abi":[{"type":"constructor","inputs":[],"stateMutability":"nonpayable"},{"type":"receive","stateMutability":"payable"},{"type":"function","name":"EXPECTED_CHAIN_ID","inputs":[],"outputs":[{"name":"","type":"uint256","internalType":"uint256"}],"stateMutability":"view"},{"type":"function","name":"HEX","inputs":[],"outputs":[{"name":"","type":"address","internalType":"address"}],"stateMutability":"view"},{"type":"function","name":"SUSHISWAP_ROUTER","inputs":[],"outputs":[{"name":"","type":"address","internalType":"address"}],"stateMutability":"view"},{"type":"function","name":"TARGET","inputs":[],"outputs":[{"name":"","type":"address","internalType":"address"}],"stateMutability":"view"},{"type":"function","name":"UNISWAP_V2_ROUTER","inputs":[],"outputs":[{"name":"","type":"address","internalType":"address"}],"stateMutability":"view"},{"type":"function","name":"WETH","inputs":[],"outputs":[{"name":"","type":"address","internalType":"address"}],"stateMutability":"view"},{"type":"function","name":"execute","inputs":[],"outputs":[{"name":"","type":"uint256","internalType":"uint256"}],"stateMutability":"payable"},{"type":"function","name":"executeOnOpportunity","inputs":[],"outputs":[],"stateMutability":"payable"},{"type":"function","name":"executed","inputs":[],"outputs":[{"name":"","type":"bool","internalType":"bool"}],"stateMutability":"view"},{"type":"function","name":"exploit","inputs":[],"outputs":[{"name":"","type":"uint256","internalType":"uint256"}],"stateMutability":"payable"},{"type":"function","name":"exploitPathMask","inputs":[],"outputs":[{"name":"","type":"uint256","internalType":"uint256"}],"stateMutability":"view"},{"type":"function","name":"hypothesisRefuted","inputs":[],"outputs":[{"name":"","type":"bool","internalType":"bool"}],"stateMutability":"view"},{"type":"function","name":"hypothesisValidated","inputs":[],"outputs":[{"name":"","type":"bool","internalType":"bool"}],"stateMutability":"view"},{"type":"function","name":"makeRealId","inputs":[],"outputs":[{"name":"","type":"uint256","internalType":"uint256"}],"stateMutability":"view"},{"type":"function","name":"makeReturnedId","inputs":[],"outputs":[{"name":"","type":"bytes32","internalType":"bytes32"}],"stateMutability":"view"},{"type":"function","name":"observedChainId","inputs":[],"outputs":[{"name":"","type":"uint256","internalType":"uint256"}],"stateMutability":"view"},{"type":"function","name":"observedLastOfferId","inputs":[],"outputs":[{"name":"","type":"uint256","internalType":"uint256"}],"stateMutability":"view"},{"type":"function","name":"offerEthRealId","inputs":[],"outputs":[{"name":"","type":"uint256","internalType":"uint256"}],"stateMutability":"view"},{"type":"function","name":"offerEthReturnedId","inputs":[],"outputs":[{"name":"","type":"uint256","internalType":"uint256"}],"stateMutability":"view"},{"type":"function","name":"offerHexRealId","inputs":[],"outputs":[{"name":"","type":"uint256","internalType":"uint256"}],"stateMutability":"view"},{"type":"function","name":"offerHexReturnedId","inputs":[],"outputs":[{"name":"","type":"uint256","internalType":"uint256"}],"stateMutability":"view"},{"type":"function","name":"profitAmount","inputs":[],"outputs":[{"name":"","type":"uint256","internalType":"uint256"}],"stateMutability":"view"},{"type":"function","name":"profitOrderEscrowType","inputs":[],"outputs":[{"name":"","type":"uint256","internalType":"uint256"}],"stateMutability":"view"},{"type":"function","name":"profitOrderId","inputs":[],"outputs":[{"name":"","type":"uint256","internalType":"uint256"}],"stateMutability":"view"},{"type":"function","name":"profitOrderQuotedEdge","inputs":[],"outputs":[{"name":"","type":"uint256","internalType":"uint256"}],"stateMutability":"view"},{"type":"function","name":"profitToken","inputs":[],"outputs":[{"name":"","type":"address","internalType":"address"}],"stateMutability":"pure"},{"type":"function","name":"realizedNativeProfit","inputs":[],"outputs":[{"name":"","type":"uint256","internalType":"uint256"}],"stateMutability":"view"},{"type":"function","name":"run","inputs":[],"outputs":[{"name":"","type":"uint256","internalType":"uint256"}],"stateMutability":"payable"}],"bytecode":{"object":"0x608080604052346015576124e9908161001a8239f35b5f80fdfe608080604052600436101561001c575b50361561001a575f80fd5b005b5f3560e01c90816317213b521461044a575080631d55896614610423578063277754ed146103f557806331a38c89146103d45780633c2448ed146103c15780633dfe05c9146103a4578063463defd114610380578063470af839146103635780634934362414610349578063495f92f11461032557806354f163b0146103085780635ff972cc1461029457806361461954146101dc578063636ba231146102eb57806363d9b770146101dc57806364b3b78e146102ce578063657eb502146102b157806375b7b64014610294578063949651b714610277578063a82ed9ec14610249578063a99ae3751461022c578063ad5c4648146101fe578063bdabcdcc146101e1578063c0406226146101dc578063c1ffb3df146101c1578063cc1f2afa1461019a578063d7ca5ff41461017d5763db0e7cff1461015c575f61000f565b34610179575f366003190112610179576020600754604051908152f35b5f80fd5b34610179575f366003190112610179576020600a54604051908152f35b34610179575f3660031901126101795760206040515f5160206124945f395f51905f528152f35b34610179575f36600319011261017957602060405160018152f35b610464565b34610179575f366003190112610179576020600154604051908152f35b34610179575f36600319011261017957602060405173c02aaa39b223fe8d0a0e5c4f27ead9083c756cc28152f35b34610179575f366003190112610179576020600554604051908152f35b34610179575f366003190112610179576020604051737a250d5630b4cf539739df2c5dacb4c659f2488d8152f35b34610179575f366003190112610179576020600954604051908152f35b34610179575f366003190112610179576020600d54604051908152f35b34610179575f366003190112610179576020600c54604051908152f35b34610179575f366003190112610179576020600254604051908152f35b34610179575f366003190112610179576020600454604051908152f35b34610179575f366003190112610179576020600354604051908152f35b34610179575f36600319011261017957602060ff5f5460101c166040519015158152f35b34610179575f3660031901126101795760206040515f8152f35b34610179575f366003190112610179576020600854604051908152f35b34610179575f36600319011261017957602060ff5f5460081c166040519015158152f35b34610179575f366003190112610179576020600b54604051908152f35b5f3660031901126101795761001a6104db565b34610179575f36600319011261017957602060ff5f54166040519015158152f35b34610179575f36600319011261017957602060405173d9e1ce17f2641f24ae83637ab66a2cca9c378b9f8152f35b34610179575f3660031901126101795760206040515f5160206124745f395f51905f528152f35b34610179575f366003190112610179576020906006548152f35b5f366003190112610179576104776104db565b6020600354604051908152f35b90601f8019910116810190811067ffffffffffffffff8211176104a657604052565b634e487b7160e01b5f52604160045260245ffd5b919082039182116104c757565b634e487b7160e01b5f52601160045260245ffd5b5f5460ff81166106d357600146036106a05760ff191660019081175f5546905547600e81905560405163232cae0b60e01b81526020816004815f5160206124945f395f51905f525afa908115610639575f9161066e575b508060025561056d610542610723565b9161054b610aa4565b91829184610557610d3a565b948591610660575b610652575b6106445761101d565b60405163232cae0b60e01b81526020816004815f5160206124945f395f51905f525afa908115610639575f91610607575b50600255826105ff575b50816105f7575b5061ff005f5491151560081b1662ff000060ff8261ff001985161760081c161560101b169162ffff00191617175f558047116105e85750565b6105f290476104ba565b600d55565b90505f6105af565b91505f6105a8565b90506020813d602011610631575b8161062260209383610484565b8101031261017957515f61059e565b3d9150610615565b6040513d5f823e3d90fd5b60046003541760035561101d565b600260035417600355610564565b60016003541760035561055f565b90506020813d602011610698575b8161068960209383610484565b8101031261017957515f610532565b3d915061067c565b60405162461bcd60e51b815260206004820152600b60248201526a3bb937b7339031b430b4b760a91b6044820152606490fd5b60405162461bcd60e51b815260206004820152601060248201526f185b1c9958591e48195e1958dd5d195960821b6044820152606490fd5b90816020910312610179575180151581036101795790565b60014710610aa05760405163232cae0b60e01b81526020816004815f5160206124945f395f51905f525afa908115610639575f91610a6e575b5060405163b42241ab60e01b8152600160048201526001602482015260208160448160015f5160206124945f395f51905f525af15f9181610a3a575b506107a35750505f90565b60405163232cae0b60e01b8152916020836004815f5160206124945f395f51905f525afa928315610639575f93610a06575b508160045582600555600181018091116104c75782148015906109fd575b80156109f5575b6109a457610815825f5160206124945f395f51905f526111d1565b939294919095156109e95767ffffffffffffffff16159384156109d5575b5083156109c9575b5082156109bd575b5081156109b1575b506109aa5782036109a457604051906382afd23b60e01b825260048201526020816024815f5160206124945f395f51905f525afa908115610639575f91610985575b50610980576108a85f5160206124945f395f51905f526112ad565b15610980576040516340e58ee560e01b815260048101829052906020826024815f5f5160206124945f395f51905f525af15f928161095f575b506108ec5750505f90565b816108f5575090565b9050604051906382afd23b60e01b825260048201526020816024815f5160206124945f395f51905f525afa908115610639575f9161093257501590565b610954915060203d602011610958575b61094c8183610484565b81019061070b565b1590565b503d610942565b61097991935060203d6020116109585761094c8183610484565b915f6108e1565b505f90565b61099e915060203d6020116109585761094c8183610484565b5f61088d565b50505f90565b5050505f90565b6001915014155f61084b565b6001141591505f610843565b6001141592505f61083b565b6001600160a01b031630141593505f610833565b50505050505050505f90565b5081156107fa565b508015156107f3565b9092506020813d602011610a32575b81610a2260209383610484565b810103126101795751915f6107d5565b3d9150610a15565b9091506020813d602011610a66575b81610a5660209383610484565b810103126101795751905f610798565b3d9150610a49565b90506020813d602011610a98575b81610a8960209383610484565b8101031261017957515f61075c565b3d9150610a7c565b5f90565b610aac611b3c565b15610aa057610ab9611307565b15610aa05760405163232cae0b60e01b81526020816004815f5160206124945f395f51905f525afa908115610639575f91610d08575b50604051635190ec4360e11b815260016004820181905260248201526020816044815f5f5160206124945f395f51905f525af15f9181610cd4575b50610b355750505f90565b60405163232cae0b60e01b8152916020836004815f5160206124945f395f51905f525afa928315610639575f93610ca0575b508160065582600755600181018091116104c7578214801590610c97575b8015610c8f575b6109a457610ba7825f5160206124945f395f51905f526111d1565b939294919095156109e95767ffffffffffffffff1615938415610c7b575b508315610c6f575b508215610c63575b508115610c59575b506109aa5782036109a457604051906382afd23b60e01b825260048201526020816024815f5160206124945f395f51905f525afa908115610639575f91610c3a575b50610980576108a85f5160206124945f395f51905f5261168c565b610c53915060203d6020116109585761094c8183610484565b5f610c1f565b905015155f610bdd565b6001141591505f610bd5565b6001141592505f610bcd565b6001600160a01b031630141593505f610bc5565b508115610b8c565b50801515610b85565b9092506020813d602011610ccc575b81610cbc60209383610484565b810103126101795751915f610b67565b3d9150610caf565b9091506020813d602011610d00575b81610cf060209383610484565b810103126101795751905f610b2a565b3d9150610ce3565b90506020813d602011610d32575b81610d2360209383610484565b8101031261017957515f610aef565b3d9150610d16565b60014710610aa05760405163232cae0b60e01b81526020816004815f5160206124945f395f51905f525afa908115610639575f91610feb575b506040516355e3d75360e11b8152600160048201526001602482015260208160448160015f5160206124945f395f51905f525af15f9181610fb7575b50610dba5750505f90565b60405163232cae0b60e01b8152916020836004815f5160206124945f395f51905f525afa928315610639575f93610f83575b508160085582600955600181018091116104c7578214801590610f7a575b8015610f72575b6109a457610e2c825f5160206124945f395f51905f526111d1565b939294919095156109e95767ffffffffffffffff1615938415610f5e575b508315610f52575b508215610f46575b508115610f3a575b506109aa5782036109a457604051906382afd23b60e01b825260048201526020816024815f5160206124945f395f51905f525afa908115610639575f91610f1b575b5061098057610ebf5f5160206124945f395f51905f526112ad565b1561098057610edb815f5160206124945f395f51905f526116d6565b1561098057604051906382afd23b60e01b825260048201526020816024815f5160206124945f395f51905f525afa908115610639575f9161093257501590565b610f34915060203d6020116109585761094c8183610484565b5f610ea4565b6001915014155f610e62565b6001141591505f610e5a565b6001141592505f610e52565b6001600160a01b031630141593505f610e4a565b508115610e11565b50801515610e0a565b9092506020813d602011610faf575b81610f9f60209383610484565b810103126101795751915f610dec565b3d9150610f92565b9091506020813d602011610fe3575b81610fd360209383610484565b810103126101795751905f610daf565b3d9150610fc6565b90506020813d602011611015575b8161100660209383610484565b8101031261017957515f610d73565b3d9150610ff9565b9081156111cd576101008211156111c55760ff1982018281116104c75760fe1983018091116104c757915b8281101561105557509050565b61106c815f5160206124945f395f51905f526111d1565b9395925050816111b1575b50806111a8575b8061119f575b6110de575b50505047600e549067016345785d8a000082018092116104c757108015906110ca575b6110c5578281146110c55780156104c7575f1901611048565b509050565b5067016345785d8a0000600d5410156110ac565b82908061113a57506110ef91611831565b90811515908161111b575b5061110a575b505b5f8080611089565b81600a555f600b55600c555f611100565b6111349150835f5160206124945f395f51905f526119c0565b5f6110fa565b600191501461114b575b5050611102565b6111558282611734565b91821515918261117f575b505061116d575b80611144565b81600a556001600b55600c555f611167565b6111989250845f5160206124945f395f51905f5261175e565b5f80611160565b50821515611084565b5081151561107e565b67ffffffffffffffff91501615155f611077565b600191611048565b9050565b604051634539753560e11b8152600481019290925260c090829060249082906001600160a01b03165afa5f915f915f915f91805f925f9261122d575b50611228575050505050505f905f905f905f905f905f905f90565b600196565b965094505050505060c0823d60c0116112a5575b8161124e60c09383610484565b810103126101795781516020830151604084015190939092916001600160a01b03841684036101795760608201519267ffffffffffffffff841684036101795760a06080840151930151919594939291905f61120d565b3d9150611241565b5f906001600160a01b0316803b15610179575f809160246040518094819363169f36d960e31b83528160048401525af190816112f2575b506112ef5750600190565b90565b6112ff9192505f90610484565b5f905f6112e4565b604051636eb1769f60e11b81523060048201525f5160206124945f395f51905f5260248201526020816044815f5160206124745f395f51905f525afa8015610639575f906113c7575b6001915010156113c25760405163095ea7b360e01b81525f5160206124945f395f51905f5260048201525f1960248201526020816044815f5f5160206124745f395f51905f525af1908115610639575f916113a9575090565b6112ef915060203d6020116109585761094c8183610484565b600190565b506020813d6020116113f2575b816113e160209383610484565b810103126101795760019051611350565b3d91506113d4565b604051636eb1769f60e11b81523060048201525f5160206124945f395f51905f5260248201526020816044815f5160206124745f395f51905f525afa908115610639575f9161149a575b5010156113c25760405163095ea7b360e01b81525f5160206124945f395f51905f5260048201525f1960248201526020816044815f5f5160206124745f395f51905f525af1908115610639575f916113a9575090565b90506020813d6020116114c4575b816114b560209383610484565b8101031261017957515f611444565b3d91506114a8565b604051636eb1769f60e11b8152306004820152737a250d5630b4cf539739df2c5dacb4c659f2488d60248201526020816044815f5160206124745f395f51905f525afa908115610639575f9161157a575b5010156113c25760405163095ea7b360e01b8152737a250d5630b4cf539739df2c5dacb4c659f2488d60048201525f1960248201526020816044815f5f5160206124745f395f51905f525af1908115610639575f916113a9575090565b90506020813d6020116115a4575b8161159560209383610484565b8101031261017957515f61151d565b3d9150611588565b604051636eb1769f60e11b815230600482015273d9e1ce17f2641f24ae83637ab66a2cca9c378b9f60248201526020816044815f5160206124745f395f51905f525afa908115610639575f9161165a575b5010156113c25760405163095ea7b360e01b815273d9e1ce17f2641f24ae83637ab66a2cca9c378b9f60048201525f1960248201526020816044815f5f5160206124745f395f51905f525af1908115610639575f916113a9575090565b90506020813d602011611684575b8161167560209383610484565b8101031261017957515f6115fd565b3d9150611668565b5f90600147106109a4576001600160a01b0316803b15610179575f60019160246040518094819363cc9ae69360e01b83528560048401525af190816112f257506112ef5750600190565b5f916001600160a01b0390911690813b15610179575f9160248392604051948593849263169f36d960e31b845260048401525af1908161171f575b506117195790565b50600190565b61172c9192505f90610484565b5f905f611711565b9061173e90611e6b565b80158015611754575b6109a4576112ef916104ba565b5080821115611747565b91925f9361176b82611e6b565b801561182757600381029081046003036104c75760011c66038d7ea4c6800081018091116104c757816117a692821161181f575b5082611c4f565b15611817576117b4906113fa565b156109aa5747916001600160a01b031690813b15610179575f9160248392604051948593849263cc9ae69360e01b845260048401525af19081611802575b506117fb575090565b9050471190565b61180f9193505f90610484565b5f915f6117f2565b505050505f90565b90505f61179f565b5050505050505f90565b6040515f9291611842606083610484565b6002825260403660208401375f5160206124745f395f51905f5261186583611d61565b5273c02aaa39b223fe8d0a0e5c4f27ead9083c756cc261188483611d82565b5260405163d06ca61f60e01b81525f81806118a3868660048401611e54565b0381737a250d5630b4cf539739df2c5dacb4c659f2488d5afa5f91816119a4575b5061197f575b5060405163d06ca61f60e01b8152915f91839182916118ed919060048401611e54565b038173d9e1ce17f2641f24ae83637ab66a2cca9c378b9f5afa5f918161195b575b50611926575b50808211156109a4576112ef916104ba565b600181511180611949575b1561191457611941919250611d82565b51905f611914565b508261195482611d82565b5111611931565b6119789192503d805f833e6119708183610484565b810190611d92565b905f61190e565b6001815111156118ca575f9194509161199a6118ed93611d82565b51949150916118ca565b6119b99192503d805f833e6119708183610484565b905f6118c4565b915f92814710611817576040516370a0823160e01b8152306004820152479390916020836024815f5160206124745f395f51905f525afa928315610639575f93611b08575b506001600160a01b031690813b1561017957839160245f92604051948593849263cc9ae69360e01b845260048401525af19081611af3575b50611a485750505090565b909192604051906370a0823160e01b82523060048301526020826024815f5160206124745f395f51905f525afa918215611ae6578192611ab2575b5082821115611aaa5750611a9f91611a9a916104ba565b61202b565b1190816117fb575090565b935050505090565b9091506020813d602011611ade575b81611ace60209383610484565b810103126101795751905f611a83565b3d9150611ac1565b50604051903d90823e3d90fd5b611b009195505f90610484565b5f935f611a3d565b9092506020813d602011611b34575b81611b2460209383610484565b810103126101795751915f611a05565b3d9150611b17565b6040516370a0823160e01b81523060048201526020816024815f5160206124745f395f51905f525afa8015610639575f90611c1c575b6001915010156113c25766038d7ea4c68000478111611c15575b801561098057611b9b906121f4565b611ba3575f90565b6040516370a0823160e01b81523060048201526020816024815f5160206124745f395f51905f525afa8015610639575f90611be2575b60019150101590565b506020813d602011611c0d575b81611bfc60209383610484565b810103126101795760019051611bd9565b3d9150611bef565b5047611b8c565b506020813d602011611c47575b81611c3660209383610484565b810103126101795760019051611b72565b3d9150611c29565b906040516370a0823160e01b81523060048201526020816024815f5160206124745f395f51905f525afa80156106395783915f91611d2c575b501015611d2557804710611d1e575b80156109a457611ca6906121f4565b611caf57505f90565b6040516370a0823160e01b81523060048201526020816024815f5160206124745f395f51905f525afa908115610639575f91611cec575b50101590565b90506020813d602011611d16575b81611d0760209383610484565b8101031261017957515f611ce6565b3d9150611cfa565b5047611c97565b5050600190565b9150506020813d602011611d59575b81611d4860209383610484565b81010312610179578290515f611c88565b3d9150611d3b565b805115611d6e5760200190565b634e487b7160e01b5f52603260045260245ffd5b805160011015611d6e5760400190565b6020818303126101795780519067ffffffffffffffff821161017957019080601f830112156101795781519167ffffffffffffffff83116104a6578260051b906020820193611de46040519586610484565b845260208085019282010192831161017957602001905b828210611e085750505090565b8151815260209182019101611dfb565b90602080835192838152019201905f5b818110611e355750505090565b82516001600160a01b0316845260209384019390920191600101611e28565b6040906112ef939281528160208201520190611e18565b90604051611e7a606082610484565b60028152604036602083013773c02aaa39b223fe8d0a0e5c4f27ead9083c756cc2611ea482611d61565b525f5160206124745f395f51905f52611ebc82611d82565b526040516307c0329d60e21b81525f1993905f8180611edf868660048401611e54565b0381737a250d5630b4cf539739df2c5dacb4c659f2488d5afa5f9181611fd6575b50611fb1575b506040516307c0329d60e21b8152915f9183918291611f29919060048401611e54565b038173d9e1ce17f2641f24ae83637ab66a2cca9c378b9f5afa5f9181611f95575b50611f60575b505f198214611f5b57565b5f9150565b600181511180611f83575b15611f5057611f7b919250611d61565b51905f611f50565b5082611f8e82611d61565b5110611f6b565b611faa9192503d805f833e6119708183610484565b905f611f4a565b600181511115611f06575f91945091611fcc611f2993611d61565b5194915091611f06565b611feb9192503d805f833e6119708183610484565b905f611f00565b90608092612017919695949683525f602084015260a0604084015260a0830190611e18565b6001600160a01b0390951660608201520152565b5f9080156109a45761203c816114cc565b15806121b2575b6109a457604051612055606082610484565b6002815260403660208301375f5160206124745f395f51905f5261207882611d61565b5273c02aaa39b223fe8d0a0e5c4f27ead9083c756cc261209782611d82565b524791737a250d5630b4cf539739df2c5dacb4c659f2488d3b156101795760405163791ac94760e01b81525f81806120d54230888860048601611ff2565b038183737a250d5630b4cf539739df2c5dacb4c659f2488d5af1908161219d575b506121905773d9e1ce17f2641f24ae83637ab66a2cca9c378b9f3b1561218c5760405163791ac94760e01b815291849182918491829161213d914291309160048601611ff2565b03818373d9e1ce17f2641f24ae83637ab66a2cca9c378b9f5af19182612173575b5050612168575090565b6112ef9150476104ba565b8161217d91610484565b61218857825f61215e565b8280fd5b8380fd5b50506112ef9150476104ba565b6121aa9195505f90610484565b5f935f6120f6565b506121bc816115ac565b15612043565b6121e0606092959493955f8352608060208401526080830190611e18565b6001600160a01b0390951660408201520152565b5f908015801561246a575b6109a457604051612211606082610484565b60028152604036602083013773c02aaa39b223fe8d0a0e5c4f27ead9083c756cc261223b82611d61565b525f5160206124745f395f51905f5261225382611d82565b526040516370a0823160e01b8152306004820152916020836024815f5160206124745f395f51905f525afa928315610639575f93612436575b50737a250d5630b4cf539739df2c5dacb4c659f2488d3b156101795760405163b6f9de9560e01b81525f81806122c7423088600485016121c2565b038185737a250d5630b4cf539739df2c5dacb4c659f2488d5af19081612421575b506123e45773d9e1ce17f2641f24ae83637ab66a2cca9c378b9f3b1561218c578361232e928192604051808096819463b6f9de9560e01b835242903090600485016121c2565b039173d9e1ce17f2641f24ae83637ab66a2cca9c378b9f5af191826123cf575b5050612358575090565b906040516370a0823160e01b81523060048201526020816024815f5160206124745f395f51905f525afa9182156123c3579161239357501190565b90506020813d6020116123bb575b816123ae60209383610484565b8101031261017957511190565b3d91506123a1565b604051903d90823e3d90fd5b816123d991610484565b61218857825f61234e565b5050906040516370a0823160e01b81523060048201526020816024815f5160206124745f395f51905f525afa9182156123c3579161239357501190565b61242e9195505f90610484565b5f935f6122e8565b9092506020813d602011612462575b8161245260209383610484565b810103126101795751915f61228c565b3d9150612445565b508047106121ff56fe0000000000000000000000002b591e99afe9f32eaa6214f7b7629768c40eeb39000000000000000000000000204b937feaec333e9e6d72d35f1d131f187ecea1a26469706673582212205dd3b237960de25945743350a74ab6c050631ef3c1584cf6c1d06a177775d14364736f6c634300081e0033","linkReferences":{}},"methodIdentifiers":{"EXPECTED_CHAIN_ID()":"c1ffb3df","HEX()":"1d558966","SUSHISWAP_ROUTER()":"277754ed","TARGET()":"cc1f2afa","UNISWAP_V2_ROUTER()":"a82ed9ec","WETH()":"ad5c4648","execute()":"61461954","executeOnOpportunity()":"3c2448ed","executed()":"31a38c89","exploit()":"63d9b770","exploitPathMask()":"54f163b0","hypothesisRefuted()":"495f92f1","hypothesisValidated()":"463defd1","makeRealId()":"949651b7","makeReturnedId()":"470af839","observedChainId()":"bdabcdcc","observedLastOfferId()":"64b3b78e","offerEthRealId()":"a99ae375","offerEthReturnedId()":"636ba231","offerHexRealId()":"db0e7cff","offerHexReturnedId()":"17213b52","profitAmount()":"5ff972cc","profitOrderEscrowType()":"3dfe05c9","profitOrderId()":"d7ca5ff4","profitOrderQuotedEdge()":"657eb502","profitToken()":"49343624","realizedNativeProfit()":"75b7b640","run()":"c0406226"},"id":0}