{"abi":[{"type":"function","name":"getAllowances","inputs":[{"name":"account","type":"address","internalType":"address"},{"name":"spender","type":"address","internalType":"address"}],"outputs":[{"name":"","type":"uint256","internalType":"uint256"}],"stateMutability":"view"},{"type":"function","name":"getFactor","inputs":[],"outputs":[{"name":"","type":"uint256","internalType":"uint256"}],"stateMutability":"view"},{"type":"function","name":"getLargeBalances","inputs":[{"name":"account","type":"address","internalType":"address"}],"outputs":[{"name":"","type":"uint256","internalType":"uint256"}],"stateMutability":"view"},{"type":"function","name":"getLargeTotal","inputs":[],"outputs":[{"name":"","type":"uint256","internalType":"uint256"}],"stateMutability":"view"},{"type":"function","name":"getLiquidityReserve","inputs":[],"outputs":[{"name":"","type":"address","internalType":"address"}],"stateMutability":"view"},{"type":"function","name":"getLockedBalance","inputs":[{"name":"account","type":"address","internalType":"address"}],"outputs":[{"name":"","type":"uint256","internalType":"uint256"}],"stateMutability":"view"},{"type":"function","name":"getPresaleAddress","inputs":[],"outputs":[{"name":"","type":"address","internalType":"address"}],"stateMutability":"view"},{"type":"function","name":"getStabilizer","inputs":[],"outputs":[{"name":"","type":"address","internalType":"address"}],"stateMutability":"view"},{"type":"function","name":"getTotalLockedBalance","inputs":[],"outputs":[{"name":"","type":"uint256","internalType":"uint256"}],"stateMutability":"view"},{"type":"function","name":"getTotalSupply","inputs":[],"outputs":[{"name":"","type":"uint256","internalType":"uint256"}],"stateMutability":"view"},{"type":"function","name":"hasLockedBalance","inputs":[{"name":"account","type":"address","internalType":"address"}],"outputs":[{"name":"","type":"bool","internalType":"bool"}],"stateMutability":"view"},{"type":"function","name":"isPaused","inputs":[],"outputs":[{"name":"","type":"bool","internalType":"bool"}],"stateMutability":"view"},{"type":"function","name":"isPresaleDone","inputs":[],"outputs":[{"name":"","type":"bool","internalType":"bool"}],"stateMutability":"view"},{"type":"function","name":"isTaxLess","inputs":[],"outputs":[{"name":"","type":"bool","internalType":"bool"}],"stateMutability":"view"}],"bytecode":{"object":"0x608080604052346015576103d7908161001a8239f35b5f80fdfe6080806040526004361015610012575f80fd5b5f3560e01c90816322065988146102e05750806323ecdf61146102bb5780633f96440e146102935780635184cc431461027157806380af17991461024957806380dc74da14610221578063927ac386146101fc578063ae2089ad146101c5578063b187bd26146101a0578063b21c327814610149578063b72455bd1461012c578063c4086893146100f4578063c4e41b22146100d75763d5c25890146100b6575f80fd5b346100d3575f3660031901126100d3576020600454604051908152f35b5f80fd5b346100d3575f3660031901126100d3576020600654604051908152f35b346100d35760203660031901126100d3576001600160a01b03610115610319565b165f526002602052602060405f2054604051908152f35b346100d3575f3660031901126100d3576020600554604051908152f35b346100d35760403660031901126100d357610162610319565b6024356001600160a01b03811691908290036100d35760018060a01b03165f52600160205260405f20905f52602052602060405f2054604051908152f35b346100d3575f3660031901126100d357602060ff60095460a01c166040519015158152f35b346100d35760203660031901126100d3576001600160a01b036101e6610319565b165f525f602052602060405f2054604051908152f35b346100d3575f3660031901126100d357602060ff60085460a01c166040519015158152f35b346100d3575f3660031901126100d3576007546040516001600160a01b039091168152602090f35b346100d3575f3660031901126100d3576008546040516001600160a01b039091168152602090f35b346100d3575f3660031901126100d357602061028b61032f565b604051908152f35b346100d3575f3660031901126100d3576009546040516001600160a01b039091168152602090f35b346100d3575f3660031901126100d357602060ff60095460a81c166040519015158152f35b346100d35760203660031901126100d3576020906001600160a01b03610304610319565b165f526003825260ff60405f20541615158152f35b600435906001600160a01b03821682036100d357565b60ff60085460a01c1661034b5766038d7ea4c680006005540490565b60055460065490811561035c570490565b60405162461bcd60e51b815260206004820152601a60248201527f536166654d6174683a206469766973696f6e206279207a65726f0000000000006044820152606490fdfea2646970667358221220f1c41db3e3085ea6622ac334a79e9df2a95e4f706cc996cc744cbb6c6534590064736f6c634300081e0033","linkReferences":{}},"methodIdentifiers":{"getAllowances(address,address)":"b21c3278","getFactor()":"5184cc43","getLargeBalances(address)":"ae2089ad","getLargeTotal()":"b72455bd","getLiquidityReserve()":"80dc74da","getLockedBalance(address)":"c4086893","getPresaleAddress()":"3f96440e","getStabilizer()":"80af1799","getTotalLockedBalance()":"d5c25890","getTotalSupply()":"c4e41b22","hasLockedBalance(address)":"22065988","isPaused()":"b187bd26","isPresaleDone()":"927ac386","isTaxLess()":"23ecdf61"},"id":0}