{"abi":[{"type":"function","name":"allowance","inputs":[{"name":"owner_","type":"address","internalType":"address"},{"name":"spender","type":"address","internalType":"address"}],"outputs":[{"name":"","type":"uint256","internalType":"uint256"}],"stateMutability":"view"},{"type":"function","name":"approve","inputs":[{"name":"spender","type":"address","internalType":"address"},{"name":"amount","type":"uint256","internalType":"uint256"}],"outputs":[{"name":"","type":"bool","internalType":"bool"}],"stateMutability":"nonpayable"},{"type":"function","name":"balanceOf","inputs":[{"name":"account","type":"address","internalType":"address"}],"outputs":[{"name":"","type":"uint256","internalType":"uint256"}],"stateMutability":"view"},{"type":"function","name":"circulatingSupply","inputs":[],"outputs":[{"name":"","type":"uint256","internalType":"uint256"}],"stateMutability":"view"},{"type":"function","name":"createTokenPool","inputs":[{"name":"","type":"address","internalType":"address"},{"name":"","type":"uint256","internalType":"uint256"}],"outputs":[],"stateMutability":"nonpayable"},{"type":"function","name":"decimals","inputs":[],"outputs":[{"name":"","type":"uint8","internalType":"uint8"}],"stateMutability":"pure"},{"type":"function","name":"decreaseAllowance","inputs":[{"name":"spender","type":"address","internalType":"address"},{"name":"subtractedValue","type":"uint256","internalType":"uint256"}],"outputs":[{"name":"","type":"bool","internalType":"bool"}],"stateMutability":"nonpayable"},{"type":"function","name":"getAllowances","inputs":[{"name":"account","type":"address","internalType":"address"},{"name":"spender","type":"address","internalType":"address"}],"outputs":[{"name":"","type":"uint256","internalType":"uint256"}],"stateMutability":"view"},{"type":"function","name":"getFactor","inputs":[],"outputs":[{"name":"","type":"uint256","internalType":"uint256"}],"stateMutability":"view"},{"type":"function","name":"getLargeBalances","inputs":[{"name":"account","type":"address","internalType":"address"}],"outputs":[{"name":"","type":"uint256","internalType":"uint256"}],"stateMutability":"view"},{"type":"function","name":"getLargeTotal","inputs":[],"outputs":[{"name":"","type":"uint256","internalType":"uint256"}],"stateMutability":"view"},{"type":"function","name":"getLiquidityReserve","inputs":[],"outputs":[{"name":"","type":"address","internalType":"address"}],"stateMutability":"view"},{"type":"function","name":"getLockedBalance","inputs":[{"name":"account","type":"address","internalType":"address"}],"outputs":[{"name":"","type":"uint256","internalType":"uint256"}],"stateMutability":"view"},{"type":"function","name":"getPresaleAddress","inputs":[],"outputs":[{"name":"","type":"address","internalType":"address"}],"stateMutability":"view"},{"type":"function","name":"getStabilizer","inputs":[],"outputs":[{"name":"","type":"address","internalType":"address"}],"stateMutability":"view"},{"type":"function","name":"getTotalLockedBalance","inputs":[],"outputs":[{"name":"","type":"uint256","internalType":"uint256"}],"stateMutability":"view"},{"type":"function","name":"getTotalSupply","inputs":[],"outputs":[{"name":"","type":"uint256","internalType":"uint256"}],"stateMutability":"view"},{"type":"function","name":"hasLockedBalance","inputs":[{"name":"account","type":"address","internalType":"address"}],"outputs":[{"name":"","type":"bool","internalType":"bool"}],"stateMutability":"view"},{"type":"function","name":"increaseAllowance","inputs":[{"name":"spender","type":"address","internalType":"address"},{"name":"addedValue","type":"uint256","internalType":"uint256"}],"outputs":[{"name":"","type":"bool","internalType":"bool"}],"stateMutability":"nonpayable"},{"type":"function","name":"isPaused","inputs":[],"outputs":[{"name":"","type":"bool","internalType":"bool"}],"stateMutability":"view"},{"type":"function","name":"isPresaleDone","inputs":[],"outputs":[{"name":"","type":"bool","internalType":"bool"}],"stateMutability":"view"},{"type":"function","name":"isTaxLess","inputs":[],"outputs":[{"name":"","type":"bool","internalType":"bool"}],"stateMutability":"view"},{"type":"function","name":"mint","inputs":[{"name":"to","type":"address","internalType":"address"},{"name":"amount","type":"uint256","internalType":"uint256"}],"outputs":[],"stateMutability":"nonpayable"},{"type":"function","name":"name","inputs":[],"outputs":[{"name":"","type":"string","internalType":"string"}],"stateMutability":"pure"},{"type":"function","name":"owner","inputs":[],"outputs":[{"name":"","type":"address","internalType":"address"}],"stateMutability":"view"},{"type":"function","name":"pauseContract","inputs":[{"name":"flag","type":"bool","internalType":"bool"}],"outputs":[],"stateMutability":"nonpayable"},{"type":"function","name":"symbol","inputs":[],"outputs":[{"name":"","type":"string","internalType":"string"}],"stateMutability":"pure"},{"type":"function","name":"totalSupply","inputs":[],"outputs":[{"name":"","type":"uint256","internalType":"uint256"}],"stateMutability":"view"},{"type":"function","name":"transfer","inputs":[{"name":"recipient","type":"address","internalType":"address"},{"name":"amount","type":"uint256","internalType":"uint256"}],"outputs":[{"name":"","type":"bool","internalType":"bool"}],"stateMutability":"nonpayable"},{"type":"function","name":"transferFrom","inputs":[{"name":"sender","type":"address","internalType":"address"},{"name":"recipient","type":"address","internalType":"address"},{"name":"amount","type":"uint256","internalType":"uint256"}],"outputs":[{"name":"","type":"bool","internalType":"bool"}],"stateMutability":"nonpayable"},{"type":"function","name":"unlockedBalanceOf","inputs":[{"name":"account","type":"address","internalType":"address"}],"outputs":[{"name":"","type":"uint256","internalType":"uint256"}],"stateMutability":"view"},{"type":"event","name":"Approval","inputs":[{"name":"owner","type":"address","indexed":true,"internalType":"address"},{"name":"spender","type":"address","indexed":true,"internalType":"address"},{"name":"value","type":"uint256","indexed":false,"internalType":"uint256"}],"anonymous":false},{"type":"event","name":"OwnershipTransferred","inputs":[{"name":"previousOwner","type":"address","indexed":true,"internalType":"address"},{"name":"newOwner","type":"address","indexed":true,"internalType":"address"}],"anonymous":false},{"type":"event","name":"Transfer","inputs":[{"name":"from","type":"address","indexed":true,"internalType":"address"},{"name":"to","type":"address","indexed":true,"internalType":"address"},{"name":"value","type":"uint256","indexed":false,"internalType":"uint256"}],"anonymous":false}],"bytecode":{"object":"0x608080604052346015576110f8908161001a8239f35b5f80fdfe60806040526004361015610011575f80fd5b5f3560e01c806306fdde0314610c70578063095ea7b314610c4a57806318160ddd146102315780632206598814610c0d57806323b872dd14610a6b57806323ecdf6114610a46578063313ce56714610a2b57806339509351146109e45780633f96440e146109bc57806340c10f19146108a55780635184cc431461088b5780635d15d3411461085a57806370a082311461083757806380af17991461080f57806380dc74da146107e757806384955c88146107a55780638da5cb5b1461077d578063927ac386146107585780639358928b146106fa57806395d89b41146106a8578063a457c2d7146105e2578063a9059cbb146102ff578063ae2089ad146102c8578063b187bd26146102a3578063b21c3278146101c4578063b72455bd14610286578063c40868931461024e578063c4e41b2214610231578063d5c2589014610214578063dd62ed3e146101c45763e272b8921461016e575f80fd5b346101c05760203660031901126101c0576004358015158091036101c0576101a160018060a01b03600a54163314610d4b565b6009805460ff60a01b191660a09290921b60ff60a01b16919091179055005b5f80fd5b346101c05760403660031901126101c0576101dd610cf1565b6101e5610d07565b6001600160a01b039182165f908152600160209081526040808320949093168252928352819020549051908152f35b346101c0575f3660031901126101c0576020600454604051908152f35b346101c0575f3660031901126101c0576020600654604051908152f35b346101c05760203660031901126101c0576001600160a01b0361026f610cf1565b165f526002602052602060405f2054604051908152f35b346101c0575f3660031901126101c0576020600554604051908152f35b346101c0575f3660031901126101c057602060ff60095460a01c166040519015158152f35b346101c05760203660031901126101c0576001600160a01b036102e9610cf1565b165f525f602052602060405f2054604051908152f35b346101c05760403660031901126101c057610318610cf1565b6024359060ff60095460a01c166105b4573315610561576001600160a01b03169081156105105780156104cc5761034e33610d96565b811161048e5761037061035f610d1d565b335f525f60205260405f2054610f9d565b81116104495760ff60085460a01c161561040d576103ca610398610392610d1d565b83611042565b335f525f6020526103ad8160405f2054610ff2565b335f525f60205260405f2055835f525f60205260405f2054610f2d565b825f525f60205260405f20556040519081527fddf252ad1be2c89b69c2b068fc378daa952ba7f163c4a11628f55a4df523b3ef60203392a3602060405160018152f35b60405162461bcd60e51b815260206004820152601460248201527350726573616c652079657420746f20636c6f736560601b6044820152606490fd5b60405162461bcd60e51b815260206004820152601f60248201527f416d6f756e74206578636565647320756e6c6f636b65642062616c616e6365006044820152606490fd5b60405162461bcd60e51b8152602060048201526016602482015275416d6f756e7420657863656564732062616c616e636560501b6044820152606490fd5b606460405162461bcd60e51b815260206004820152602060248201527f416d6f756e74206d7573742062652067726561746572207468616e207a65726f6044820152fd5b60405162461bcd60e51b815260206004820152602360248201527f45524332303a207472616e7366657220746f20746865207a65726f206164647260448201526265737360e81b6064820152608490fd5b60405162461bcd60e51b815260206004820152602560248201527f45524332303a207472616e736665722066726f6d20746865207a65726f206164604482015264647265737360d81b6064820152608490fd5b60405162461bcd60e51b815260206004820152600660248201526514185d5cd95960d21b6044820152606490fd5b346101c05760403660031901126101c0576105fb610cf1565b335f52600160205260405f2060018060a01b0382165f5260205260405f205490604051606081019080821067ffffffffffffffff831117610694576106899361068292604052602582527f45524332303a2064656372656173656420616c6c6f77616e63652062656c6f77602083015264207a65726f60d81b604083015260243590610eff565b9033610dfb565b602060405160018152f35b634e487b7160e01b5f52604160045260245ffd5b346101c0575f3660031901126101c057604051604081019080821067ffffffffffffffff831117610694576106f69160405260038152621614d560ea1b602082015260405191829182610cc7565b0390f35b346101c0575f3660031901126101c057602061075061073b61073261071d610d1d565b61072c60065491600454610f9d565b90610ff2565b61072c30610d96565b60085461072c906001600160a01b0316610d96565b604051908152f35b346101c0575f3660031901126101c057602060ff60085460a01c166040519015158152f35b346101c0575f3660031901126101c057600a546040516001600160a01b039091168152602090f35b346101c05760203660031901126101c05760206107506107c3610cf1565b6107cb610d1d565b6001600160a01b039091165f9081528084526040902054610f9d565b346101c0575f3660031901126101c0576007546040516001600160a01b039091168152602090f35b346101c0575f3660031901126101c0576008546040516001600160a01b039091168152602090f35b346101c05760203660031901126101c0576020610750610855610cf1565b610d96565b346101c05760403660031901126101c057610873610cf1565b5061088960018060a01b03600a54163314610d4b565b005b346101c0575f3660031901126101c0576020610750610d1d565b346101c05760403660031901126101c0576108be610cf1565b600954602435906001600160a01b031633036109895760ff60085460a01c16610955577fddf252ad1be2c89b69c2b068fc378daa952ba7f163c4a11628f55a4df523b3ef60205f92610932610914610392610d1d565b6001600160a01b039096168086528584526040862054909690610f2d565b858552848352604085205561094981600654610f2d565b600655604051908152a3005b60405162461bcd60e51b815260206004820152600c60248201526b283932b9b0b6329037bb32b960a11b6044820152606490fd5b60405162461bcd60e51b815260206004820152600b60248201526a6e6f742070726573616c6560a81b6044820152606490fd5b346101c0575f3660031901126101c0576009546040516001600160a01b039091168152602090f35b346101c05760403660031901126101c057610689610a00610cf1565b335f52600160205260405f2060018060a01b0382165f5260205261068260405f206024359054610f2d565b346101c0575f3660031901126101c057602060405160098152f35b346101c0575f3660031901126101c057602060ff60095460a81c166040519015158152f35b346101c05760603660031901126101c057610a84610cf1565b610a8c610d07565b906044359160ff60095460a01c166105b4576001600160a01b038216908115610561576001600160a01b031680156105105783156104cc57610acd83610d96565b841161048e57610aef610ade610d1d565b835f525f60205260405f2054610f9d565b84116104495760ff60085460a01c161561040d57610b49610b17610b11610d1d565b86611042565b835f525f602052610b2c8160405f2054610ff2565b845f525f60205260405f2055825f525f60205260405f2054610f2d565b815f525f60205260405f2055817fddf252ad1be2c89b69c2b068fc378daa952ba7f163c4a11628f55a4df523b3ef6020604051878152a35f52600160205260405f2060018060a01b0333165f5260205260405f205491604051606081019181831067ffffffffffffffff8411176106945761068994610c0593604052602883527f45524332303a207472616e7366657220616d6f756e74206578636565647320616020840152676c6c6f77616e636560c01b6040840152610eff565b903390610dfb565b346101c05760203660031901126101c0576001600160a01b03610c2e610cf1565b165f526003602052602060ff60405f2054166040519015158152f35b346101c05760403660031901126101c057610689610c66610cf1565b6024359033610dfb565b346101c0575f3660031901126101c057604051604081019080821067ffffffffffffffff831117610694576106f691604052601081526f1614d5105093114b941493d513d0d3d360821b6020820152604051918291825b602060409281835280519182918282860152018484015e5f828201840152601f01601f1916010190565b600435906001600160a01b03821682036101c057565b602435906001600160a01b03821682036101c057565b60ff60085460a01c16610d395766038d7ea4c680006005540490565b610d4860055460065490610f9d565b90565b15610d5257565b606460405162461bcd60e51b815260206004820152602060248201527f4f776e61626c653a2063616c6c6572206973206e6f7420746865206f776e65726044820152fd5b610d9e610d1d565b9060018060a01b031690815f52600360205260ff60405f205416610dd057610d48915f525f60205260405f2054610f9d565b610df682610d48935f525f60205260405f2054905f52600260205260405f205490610f2d565b610f9d565b6001600160a01b0316908115610eae576001600160a01b0316918215610e5e5760207f8c5be1e5ebec7d5bd14f71427d1e84f3dd0314c0f7b2291e5b200ac8c7c3b92591835f526001825260405f20855f5282528060405f2055604051908152a3565b60405162461bcd60e51b815260206004820152602260248201527f45524332303a20617070726f766520746f20746865207a65726f206164647265604482015261737360f01b6064820152608490fd5b60405162461bcd60e51b8152602060048201526024808201527f45524332303a20617070726f76652066726f6d20746865207a65726f206164646044820152637265737360e01b6064820152608490fd5b9091818311610f0d57500390565b60405162461bcd60e51b8152908190610f299060048301610cc7565b0390fd5b908101908110610f3a5790565b60405162461bcd60e51b815260206004820152601b60248201527f536166654d6174683a206164646974696f6e206f766572666c6f7700000000006044820152606490fd5b8115610f89570490565b634e487b7160e01b5f52601260045260245ffd5b908015610fad57610d4891610f7f565b60405162461bcd60e51b815260206004820152601a60248201527f536166654d6174683a206469766973696f6e206279207a65726f0000000000006044820152606490fd5b808211610ffd570390565b60405162461bcd60e51b815260206004820152601e60248201527f536166654d6174683a207375627472616374696f6e206f766572666c6f7700006044820152606490fd5b90811580156110ba575b6110b45761105d8183029283610f7f565b036110655790565b60405162461bcd60e51b815260206004820152602160248201527f536166654d6174683a206d756c7469706c69636174696f6e206f766572666c6f6044820152607760f81b6064820152608490fd5b50505f90565b50801561104c56fea26469706673582212205988efec313b7caa6a71331c2ea9deb6889629d601faca11f0b83efec2ab2a4e64736f6c634300081e0033","linkReferences":{}},"methodIdentifiers":{"allowance(address,address)":"dd62ed3e","approve(address,uint256)":"095ea7b3","balanceOf(address)":"70a08231","circulatingSupply()":"9358928b","createTokenPool(address,uint256)":"5d15d341","decimals()":"313ce567","decreaseAllowance(address,uint256)":"a457c2d7","getAllowances(address,address)":"b21c3278","getFactor()":"5184cc43","getLargeBalances(address)":"ae2089ad","getLargeTotal()":"b72455bd","getLiquidityReserve()":"80dc74da","getLockedBalance(address)":"c4086893","getPresaleAddress()":"3f96440e","getStabilizer()":"80af1799","getTotalLockedBalance()":"d5c25890","getTotalSupply()":"c4e41b22","hasLockedBalance(address)":"22065988","increaseAllowance(address,uint256)":"39509351","isPaused()":"b187bd26","isPresaleDone()":"927ac386","isTaxLess()":"23ecdf61","mint(address,uint256)":"40c10f19","name()":"06fdde03","owner()":"8da5cb5b","pauseContract(bool)":"e272b892","symbol()":"95d89b41","totalSupply()":"18160ddd","transfer(address,uint256)":"a9059cbb","transferFrom(address,address,uint256)":"23b872dd","unlockedBalanceOf(address)":"84955c88"},"id":0}