{"abi":[{"type":"constructor","inputs":[],"stateMutability":"nonpayable"},{"type":"receive","stateMutability":"payable"},{"type":"function","name":"attempted","inputs":[],"outputs":[{"name":"","type":"bool","internalType":"bool"}],"stateMutability":"view"},{"type":"function","name":"borrowedWethAmount","inputs":[],"outputs":[{"name":"","type":"uint256","internalType":"uint256"}],"stateMutability":"view"},{"type":"function","name":"executeOnOpportunity","inputs":[],"outputs":[],"stateMutability":"nonpayable"},{"type":"function","name":"executeOperation","inputs":[{"name":"","type":"address[]","internalType":"address[]"},{"name":"amounts","type":"uint256[]","internalType":"uint256[]"},{"name":"premiums","type":"uint256[]","internalType":"uint256[]"},{"name":"","type":"address","internalType":"address"},{"name":"","type":"bytes","internalType":"bytes"}],"outputs":[{"name":"","type":"bool","internalType":"bool"}],"stateMutability":"nonpayable"},{"type":"function","name":"hypothesisValidated","inputs":[],"outputs":[{"name":"","type":"bool","internalType":"bool"}],"stateMutability":"view"},{"type":"function","name":"oraclePriceAfterExit","inputs":[],"outputs":[{"name":"","type":"uint256","internalType":"uint256"}],"stateMutability":"view"},{"type":"function","name":"oraclePriceBeforeExit","inputs":[],"outputs":[{"name":"","type":"uint256","internalType":"uint256"}],"stateMutability":"view"},{"type":"function","name":"oraclePriceDuringCallback","inputs":[],"outputs":[{"name":"","type":"uint256","internalType":"uint256"}],"stateMutability":"view"},{"type":"function","name":"profitAmount","inputs":[],"outputs":[{"name":"","type":"uint256","internalType":"uint256"}],"stateMutability":"view"},{"type":"function","name":"profitToken","inputs":[],"outputs":[{"name":"","type":"address","internalType":"address"}],"stateMutability":"pure"}],"bytecode":{"object":"0x608080604052346015576122c4908161001a8239f35b5f80fdfe6080806040526004361015610163575b50361561001a575f80fd5b60065460ff8160101c1680610155575b61003057005b63ff000000191663010000001760065560405163b3596f0760e01b81527310aa9eea35a3102cc47d4d93bc0ba9ae45557746600482015260208160248173e5d78eb340627b8d5bcff63590ebec1ef9118c895afa908115610114575f91610123575b50600355739f72dc67cec672bb99e3d02cbea0a21536a2b6573b1561011f57604051635a3b74b960e01b815273901247d08bebfd449526da92941b35d756873bcd60048201525f602482018190528160448183739f72dc67cec672bb99e3d02cbea0a21536a2b6575af180156101145761010857005b5f61011291610c06565b005b6040513d5f823e3d90fd5b5f80fd5b90506020813d60201161014d575b8161013e60209383610c06565b8101031261011f57515f610092565b3d9150610131565b5060ff8160181c161561002a565b5f905f3560e01c9081631a1ea49814610b8b575080631f149c7c14610b6e5780633c2448ed14610b56578063463defd114610b315780634934362414610b0a5780635ff972cc14610aee5780637ef43d7614610ad1578063917f51b414610aaf578063920f5c84146101f95763cde0d4ef0361000f57346101f657806003193601126101f6576020600554604051908152f35b80fd5b503461011f5760a036600319011261011f5760043567ffffffffffffffff811161011f5761022b903690600401610ba5565b505060243567ffffffffffffffff811161011f5761024d903690600401610ba5565b9060443567ffffffffffffffff811161011f5761026e903690600401610ba5565b9091906064356001600160a01b0381160361011f5760843567ffffffffffffffff811161011f573660238201121561011f57806004013567ffffffffffffffff811161011f573691016024011161011f577387870bca3f3fd6335c3f4ce8392d69350b4fa4e23303610a7f576002841480610a75575b15610a3a578315610a26578015610a265761030183358335611049565b9360011015610a265760011015610a2657602080610323930135910135611049565b9061032c61107b565b6040516370a0823160e01b81523060048201526020816024817306325440d014e39736583c165c2963ba99faf14e5afa908115610114575f916109f4575b508061098c575b506040516370a0823160e01b8152306004820152602081602481737f39c581f595b53c5cb19bd0b3f8da6c935e2ca05afa908115610114575f9161095a575b50818082116108e0575b50506040516370a0823160e01b815230600482015260208160248173ae7ab96520de3a18e5e111b5eaab095312d7fe845afa908115610114575f916108ae575b508061077b575b5047610706575b6040516370a0823160e01b8152306004820152602081602481737f39c581f595b53c5cb19bd0b3f8da6c935e2ca05afa801561068b57829185916106d1575b5010610696576040516370a0823160e01b81523060048201526020816024815f51602061226f5f395f51905f525afa801561068b5783918591610656575b5011156106205760405163095ea7b360e01b81527387870bca3f3fd6335c3f4ce8392d69350b4fa4e26004820152602481019190915260208160448186737f39c581f595b53c5cb19bd0b3f8da6c935e2ca05af19081156106155783916105f6575b50156105c05760405163095ea7b360e01b81527387870bca3f3fd6335c3f4ce8392d69350b4fa4e260048201526024810191909152602081604481855f51602061226f5f395f51905f525af19182156105b45791610585575b501561055157602060405160018152f35b60405162461bcd60e51b815260206004820152600c60248201526b0c2e0e0e4deecca5aeecae8d60a31b6044820152606490fd5b6105a7915060203d6020116105ad575b61059f8183610c06565b810190611056565b5f610540565b503d610595565b604051903d90823e3d90fd5b60405162461bcd60e51b815260206004820152600e60248201526d0c2e0e0e4deecca5aeee6e8cae8d60931b6044820152606490fd5b61060f915060203d6020116105ad5761059f8183610c06565b5f6104e7565b6040513d85823e3d90fd5b60405162461bcd60e51b815260206004820152600e60248201526d6e6f6e2d70726f66697461626c6560901b6044820152606490fd5b9150506020813d602011610683575b8161067260209383610c06565b8101031261011f578290515f610485565b3d9150610665565b6040513d86823e3d90fd5b60405162461bcd60e51b81526020600482015260136024820152720d2dce6eaccccd2c6d2cadce85aeee6e8cae8d606b1b6044820152606490fd5b9150506020813d6020116106fe575b816106ed60209383610c06565b8101031261011f578190515f610447565b3d91506106e0565b82475f51602061226f5f395f51905f523b15610777578160049160405192838092630d0e30db60e41b82525f51602061226f5f395f51905f525af1801561076c57610753575b5050610408565b8161075d91610c06565b61076857825f61074c565b8280fd5b6040513d84823e3d90fd5b5080fd5b60405163095ea7b360e01b815273dc24316b9ae028f1497c275eb9192a3ea0f670226004820152602481018290526020816044815f73ae7ab96520de3a18e5e111b5eaab095312d7fe845af1908115610114575f9161088f575b501561085a5773dc24316b9ae028f1497c275eb9192a3ea0f670223b1561011f5760405190630f7c084960e21b8252600160048301525f60248301526044820152600160648201525f816084818373dc24316b9ae028f1497c275eb9192a3ea0f670225af180156101145715610401576108529193505f90610c06565b5f915f610401565b60405162461bcd60e51b815260206004820152600d60248201526c0c2e0e0e4deecca5ae6e8cae8d609b1b6044820152606490fd5b6108a8915060203d6020116105ad5761059f8183610c06565b5f6107d5565b90506020813d6020116108d8575b816108c960209383610c06565b8101031261011f57515f6103fa565b3d91506108bc565b6108e99161106e565b60405190636f074d1f60e11b825260048201526020816024815f737f39c581f595b53c5cb19bd0b3f8da6c935e2ca05af180156101145761092b575b816103ba565b61094c9060203d602011610953575b6109448183610c06565b810190610c28565b505f610925565b503d61093a565b90506020813d602011610984575b8161097560209383610c06565b8101031261011f57515f6103b0565b3d9150610968565b60405190630d2680e960e11b825260048201525f6024820152600160448201526020816064815f73dc24316b9ae028f1497c275eb9192a3ea0f670225af180156101145715610371576109ed9060203d602011610953576109448183610c06565b505f610371565b90506020813d602011610a1e575b81610a0f60209383610c06565b8101031261011f57515f61036a565b3d9150610a02565b634e487b7160e01b5f52603260045260245ffd5b60405162461bcd60e51b81526020600482015260136024820152726261642d666c6173686c6f616e2d736861706560681b6044820152606490fd5b50600281146102e4565b60405162461bcd60e51b81526020600482015260086024820152676e6f742d6161766560c01b6044820152606490fd5b3461011f575f36600319011261011f57602060ff600654166040519015158152f35b3461011f575f36600319011261011f576020600454604051908152f35b3461011f575f36600319011261011f5760205f54604051908152f35b3461011f575f36600319011261011f5760206040515f51602061226f5f395f51905f528152f35b3461011f575f36600319011261011f57602060ff60065460081c166040519015158152f35b3461011f575f36600319011261011f57610112610c37565b3461011f575f36600319011261011f576020600254604051908152f35b3461011f575f36600319011261011f576020906003548152f35b9181601f8401121561011f5782359167ffffffffffffffff831161011f576020808501948460051b01011161011f57565b6080810190811067ffffffffffffffff821117610bf257604052565b634e487b7160e01b5f52604160045260245ffd5b90601f8019910116810190811067ffffffffffffffff821117610bf257604052565b9081602091031261011f575190565b60065460ff81166110105760ff19166001176006556040516370a0823160e01b81523060048201526020816024815f51602061226f5f395f51905f525afa908115610114575f91610fde575b506001556040516370a0823160e01b8152306004820152602081602481737f39c581f595b53c5cb19bd0b3f8da6c935e2ca05afa908115610114575f91610fac575b50690a968163f0a57b4000008110610f7a57505f5b6040516370a0823160e01b81523060048201526020816024815f51602061226f5f395f51905f525afa908115610114575f91610f48575b50690c4d9b78bd01d35000008110610f1157505f905b801580610f09575b610ef75760405191610d42606084610c06565b60028352604090602084019082368337737f39c581f595b53c5cb19bd0b3f8da6c935e2ca0610d708661214b565b525f51602061226f5f395f51905f52610d8886612158565b5260405193610d98606086610c06565b6002855283366020870137610dac8561214b565b52610db684612158565b5260405191610dc6606084610c06565b60028352366020840137604051926020840184811067ffffffffffffffff821117610bf2576040525f84527387870bca3f3fd6335c3f4ce8392d69350b4fa4e23b1561011f5760405163ab9c4b5d60e01b815230600482015260e06024820152945160e48601819052859392610104850192915f5b818110610ed55750505093610e778493610e65610e8f945f98600319888303016044890152612168565b85810360031901606487015290612168565b3060848501528381036003190160a48501529061219b565b8360c48301520381837387870bca3f3fd6335c3f4ce8392d69350b4fa4e25af1801561011457610ec5575b50610ec36120c2565b565b5f610ecf91610c06565b5f610eba565b82516001600160a01b0316855288965060209485019490920191600101610e3b565b5050610f0161107b565b610ec36120c2565b508115610d2f565b690c4d9b78bd01d350000003690c4d9b78bd01d35000008111610f345790610d27565b634e487b7160e01b5f52601160045260245ffd5b90506020813d602011610f72575b81610f6360209383610c06565b8101031261011f57515f610d11565b3d9150610f56565b690a968163f0a57b40000003690a968163f0a57b400000811115610cda57634e487b7160e01b5f52601160045260245ffd5b90506020813d602011610fd6575b81610fc760209383610c06565b8101031261011f57515f610cc5565b3d9150610fba565b90506020813d602011611008575b81610ff960209383610c06565b8101031261011f57515f610c83565b3d9150610fec565b60405162461bcd60e51b8152602060048201526011602482015270185b1c9958591e4b585d1d195b5c1d1959607a1b6044820152606490fd5b91908201809211610f3457565b9081602091031261011f5751801515810361011f5790565b91908203918211610f3457565b5f51602061226f5f395f51905f523b1561011f57604051632e1a7d4d60e01b8152683ba1910bf341b0000060048201525f908181602481835f51602061226f5f395f51905f525af18015610114576120af575b50604080516110dd8282610c06565b81368237683ba1910bf341b000008152602081018390528151630b4c7e4d60e01b81529083600483015b6002821061209957505050683635c9adc5dea000006044820152602081606481683ba1910bf341b0000073dc24316b9ae028f1497c275eb9192a3ea0f670225af18015611b475761207a575b50805163038fff2d60e41b81526020816004817332296969ef14eb0c6d29669c550d4a04491302305afa908115611b47578391612048575b506060825161119a8282610c06565b60028152601f1982019283366020840137737f39c581f595b53c5cb19bd0b3f8da6c935e2ca06111c98361214b565b525f51602061226f5f395f51905f526111e183612158565b5284516111ee8482610c06565b6002815284366020830137690a968163f0a57b40000061120d8261214b565b52690c11f9e7b10e91a0000061122282612158565b52855190600160208301528487830152611256826112436080820184612168565b8a8883015203601f198101845283610c06565b86519361126285610bd6565b84526020840152858301528583830152845163095ea7b360e01b815273ba12222222228d8ba445958a75a0704d566bf2c86004820152690a968163f0a57b40000060248201526020816044818a737f39c581f595b53c5cb19bd0b3f8da6c935e2ca05af1908115611fe5578791612029575b5015611fef57845163095ea7b360e01b815273ba12222222228d8ba445958a75a0704d566bf2c86004820152690c11f9e7b10e91a0000060248201526020816044818a5f51602061226f5f395f51905f525af1908115611fe5578791611fc6575b5015611f8e5773ba12222222228d8ba445958a75a0704d566bf2c83b15611dca5761138f9186918651938492839263172b958560e31b845260048401523060248401523060448401526080606484015260848301906121bf565b03818373ba12222222228d8ba445958a75a0704d566bf2c85af18015611b8957908591611f79575b5050825163095ea7b360e01b815273a36be47700c079bd94adc09f35b0fa93a55297bc6004820152683635c9adc5dea000006024820152602081604481887306325440d014e39736583c165c2963ba99faf14e5af1908115611b89578591611f5a575b5015611f255773a36be47700c079bd94adc09f35b0fa93a55297bc3b15611b5357825163259f2d0160e01b81527306325440d014e39736583c165c2963ba99faf14e6004820152683635c9adc5dea00000602482015230604482015284816064818373a36be47700c079bd94adc09f35b0fa93a55297bc5af18015611b8957908591611f10575b505082516370a0823160e01b81523060048201526020816024817332296969ef14eb0c6d29669c550d4a04491302305afa908115611b89578591611ede575b50680ca65d6137250f3c138111611ece575b8015611e9457835163095ea7b360e01b8152736ae5fd07c0bb2264b1f60b33f65920a2b912151c600482015260248101829052602081604481897332296969ef14eb0c6d29669c550d4a04491302305af1908115611bfa578691611e75575b5015611e4357736ae5fd07c0bb2264b1f60b33f65920a2b912151c3b15611c4d5783519063259f2d0160e01b82527332296969ef14eb0c6d29669c550d4a044913023060048301526024820152306044820152848160648183736ae5fd07c0bb2264b1f60b33f65920a2b912151c5af18015611b8957908591611e2e575b50508251632fe4a15f60e21b815230600482015260c081602481739f72dc67cec672bb99e3d02cbea0a21536a2b6575afa908115611b89578591611dfa575b506126de8102908082046126de1490151715611de6576127109004681bd4670912eb21842a8111611dd6575b83516335ea6a7560e01b81525f51602061226f5f395f51905f52600482015261018081602481739f72dc67cec672bb99e3d02cbea0a21536a2b6575afa908115611bfa578691611d0a575b5084516370a0823160e01b81526001600160a01b0390911660048201526020816024815f51602061226f5f395f51905f525afa908115611bfa578691611cd8575b50670de0b6b3a7640000811115611c9f57670de0b6b3a763ffff198101908111611c8b57808211611c83575b508015611c515780600555739f72dc67cec672bb99e3d02cbea0a21536a2b6573b15611c4d5783519063a415bcad60e01b82525f51602061226f5f395f51905f526004830152602482015260026044820152846064820152306084820152848160a48183739f72dc67cec672bb99e3d02cbea0a21536a2b6575af18015611b8957908591611c38575b5050825163038fff2d60e41b8152906020826004817332296969ef14eb0c6d29669c550d4a04491302305afa918215611b89578592611c04575b5083516370a0823160e01b81523060048201526020816024817332296969ef14eb0c6d29669c550d4a04491302305afa908115611bfa578691611bc8575b508015611b935790859185519461180a8387610c06565b6002865280366020880137737f39c581f595b53c5cb19bd0b3f8da6c935e2ca06118338761214b565b528361183e87612158565b5286519061184c8483610c06565b6002825236602083013786519160016020840152878301528682526118718383610c06565b86519561187d87610bd6565b8652602086015285850152830152825163b3596f0760e01b81527310aa9eea35a3102cc47d4d93bc0ba9ae45557746600482015260208160248173e5d78eb340627b8d5bcff63590ebec1ef9118c895afa908115611b89578591611b57575b506002556201000063ffff000019600654161760065573ba12222222228d8ba445958a75a0704d566bf2c83b15611b535761194691849184519384928392638bdb391360e01b845260048401523060248401523060448401526080606484015260848301906121bf565b03818373ba12222222228d8ba445958a75a0704d566bf2c85af18015611b4757908391611b32575b50506006805462ff0000198116909155815163b3596f0760e01b81527310aa9eea35a3102cc47d4d93bc0ba9ae4555774660048201529060208260248173e5d78eb340627b8d5bcff63590ebec1ef9118c895afa8015611b25578490611af2575b60ff925060045560181c1615611abc5773a36be47700c079bd94adc09f35b0fa93a55297bc3b1561077757805163a5fdfc6360e01b81527306325440d014e39736583c165c2963ba99faf14e6004820152683635c9adc5dea000006024820152600a60448201523060648201529082826084818373a36be47700c079bd94adc09f35b0fa93a55297bc5af1908115611ab35750611a9e575b505060035460025481119081611a92575b5061ff0060065491151560081b169061ff00191617600655565b9050600454105f611a78565b611aa9828092610c06565b6101f65780611a67565b513d84823e3d90fd5b5162461bcd60e51b815260206004820152601060248201526f18d85b1b189858dacb5b9bdd0b5a1a5d60821b6044820152606490fd5b506020823d602011611b1d575b81611b0c60209383610c06565b8101031261011f5760ff91516119cf565b3d9150611aff565b50505051903d90823e3d90fd5b81611b3c91610c06565b61077757815f61196e565b505051903d90823e3d90fd5b8380fd5b90506020813d602011611b81575b81611b7260209383610c06565b8101031261011f57515f6118dc565b3d9150611b65565b84513d87823e3d90fd5b845162461bcd60e51b815260206004820152600e60248201526d1b9bcb589c1d0b5d1bcb595e1a5d60921b6044820152606490fd5b90506020813d602011611bf2575b81611be360209383610c06565b8101031261011f57515f6117f3565b3d9150611bd6565b85513d88823e3d90fd5b9091506020813d602011611c30575b81611c2060209383610c06565b8101031261011f5751905f6117b5565b3d9150611c13565b81611c4291610c06565b611b5357835f61177b565b8480fd5b835162461bcd60e51b815260206004820152600b60248201526a7a65726f2d626f72726f7760a81b6044820152606490fd5b90505f6116f2565b634e487b7160e01b86526011600452602486fd5b845162461bcd60e51b8152602060048201526012602482015271776574682d726573657276652d656d70747960701b6044820152606490fd5b90506020813d602011611d02575b81611cf360209383610c06565b8101031261011f57515f6116c6565b3d9150611ce6565b9050610180813d8211611dce575b81611d266101809383610c06565b81010312611dca57611d3a6020820161223d565b50611d4685820161223d565b50611d5283820161223d565b50611d5f6080820161223d565b50611d6c60a0820161223d565b5060c081015164ffffffffff811603611dca57610160611d8e60e0830161225a565b91611d9c610100820161225a565b50611daa610120820161225a565b50611db8610140820161225a565b50015160ff811603611dca575f611685565b8580fd5b3d9150611d18565b50681bd4670912eb21842a61163a565b634e487b7160e01b85526011600452602485fd5b905060c0813d60c011611e26575b81611e1560c09383610c06565b81010312611c4d578301515f61160e565b3d9150611e08565b81611e3891610c06565b611b5357835f6115cf565b835162461bcd60e51b815260206004820152600b60248201526a185c1c1c9bdd994b589c1d60aa1b6044820152606490fd5b611e8e915060203d6020116105ad5761059f8183610c06565b5f611551565b835162461bcd60e51b81526020600482015260136024820152721e995c9bcb589c1d0b58dbdb1b185d195c985b606a1b6044820152606490fd5b50680ca65d6137250f3c136114f2565b90506020813d602011611f08575b81611ef960209383610c06565b8101031261011f57515f6114e0565b3d9150611eec565b81611f1a91610c06565b611b5357835f6114a1565b825162461bcd60e51b815260206004820152600e60248201526d30b8383937bb3296b9ba32b1b93b60911b6044820152606490fd5b611f73915060203d6020116105ad5761059f8183610c06565b5f61141a565b81611f8391610c06565b611b5357835f6113b7565b845162461bcd60e51b81526020600482015260116024820152700c2e0e0e4deecca5ad4ded2dc5aeecae8d607b1b6044820152606490fd5b611fdf915060203d6020116105ad5761059f8183610c06565b5f611335565b86513d89823e3d90fd5b845162461bcd60e51b81526020600482015260136024820152720c2e0e0e4deecca5ad4ded2dc5aeee6e8cae8d606b1b6044820152606490fd5b612042915060203d6020116105ad5761059f8183610c06565b5f6112d4565b90506020813d602011612072575b8161206360209383610c06565b8101031261011f57515f61118b565b3d9150612056565b6120929060203d602011610953576109448183610c06565b505f611153565b6020806001928551815201930191019091611107565b6120bb91505f90610c06565b5f5f6110ce565b6040516370a0823160e01b81523060048201526020816024815f51602061226f5f395f51905f525afa908115610114575f91612119575b50600154808211156121125761210e9161106e565b5f55565b50505f5f55565b90506020813d602011612143575b8161213460209383610c06565b8101031261011f57515f6120f9565b3d9150612127565b805115610a265760200190565b805160011015610a265760400190565b90602080835192838152019201905f5b8181106121855750505090565b8251845260209384019390920191600101612178565b805180835260209291819084018484015e5f828201840152601f01601f1916010190565b9060808101825190608083528151809152602060a084019201905f5b81811061221e575050506060612213612201829360208701518682036020880152612168565b6040860151858203604087015261219b565b930151151591015290565b82516001600160a01b03168452602093840193909201916001016121db565b51906fffffffffffffffffffffffffffffffff8216820361011f57565b51906001600160a01b038216820361011f5756fe000000000000000000000000c02aaa39b223fe8d0a0e5c4f27ead9083c756cc2a2646970667358221220d3df4180a7b920cad3ee9d6020e8958e0ab442091831f2dead9eeb3b02ca044a64736f6c634300081e0033","linkReferences":{}},"methodIdentifiers":{"attempted()":"917f51b4","borrowedWethAmount()":"cde0d4ef","executeOnOpportunity()":"3c2448ed","executeOperation(address[],uint256[],uint256[],address,bytes)":"920f5c84","hypothesisValidated()":"463defd1","oraclePriceAfterExit()":"7ef43d76","oraclePriceBeforeExit()":"1f149c7c","oraclePriceDuringCallback()":"1a1ea498","profitAmount()":"5ff972cc","profitToken()":"49343624"},"id":0}