{"abi":[{"type":"constructor","inputs":[{"name":"owner","type":"address","internalType":"address"},{"name":"target","type":"address","internalType":"address"},{"name":"data","type":"bytes","internalType":"bytes"}],"stateMutability":"nonpayable"},{"type":"function","name":"ok","inputs":[],"outputs":[{"name":"","type":"bool","internalType":"bool"}],"stateMutability":"view"}],"bytecode":{"object":"0x6080806040523461014a5761022e803803809161001c828561014e565b833981019060608183031261014a5761003481610185565b61004060208301610185565b604083015190926001600160401b03821161014a57019183601f8401121561014a5782519361006e85610199565b9061007c604051928361014e565b85825260208201906020878701011161014a576100fd60845f979388602086829a9782849901885e830101526040519384916020830197631cff79cd60e01b895260018060a01b03166024840152604060448401525180918160648501528484015e85838284010152601f801991011681010301601f19810183528261014e565b51925af13d15610145573d61011181610199565b9061011f604051928361014e565b81525f60203d92013e5b60ff80195f541691151516175f55604051607990816101b58239f35b610129565b5f80fd5b601f909101601f19168101906001600160401b0382119082101761017157604052565b634e487b7160e01b5f52604160045260245ffd5b51906001600160a01b038216820361014a57565b6001600160401b03811161017157601f01601f19166020019056fe60808060405260043610156011575f80fd5b5f3560e01c63d909b403146023575f80fd5b34603f575f366003190112603f5760209060ff5f541615158152f35b5f80fdfea2646970667358221220596a8d5c779dc7d69a0478a08c2b529e25627d033100ed9497bfae973334d84164736f6c634300081e0033","linkReferences":{}},"methodIdentifiers":{"ok()":"d909b403"},"id":0}