{"abi":[{"type":"constructor","inputs":[],"stateMutability":"nonpayable"},{"type":"function","name":"TARGET_PAIR","inputs":[],"outputs":[{"name":"","type":"address","internalType":"address"}],"stateMutability":"view"},{"type":"function","name":"activePid","inputs":[],"outputs":[{"name":"","type":"uint256","internalType":"uint256"}],"stateMutability":"view"},{"type":"function","name":"collateralToken","inputs":[],"outputs":[{"name":"","type":"address","internalType":"address"}],"stateMutability":"view"},{"type":"function","name":"convexBooster","inputs":[],"outputs":[{"name":"","type":"address","internalType":"address"}],"stateMutability":"view"},{"type":"function","name":"debtToken","inputs":[],"outputs":[{"name":"","type":"address","internalType":"address"}],"stateMutability":"view"},{"type":"function","name":"executeOnOpportunity","inputs":[],"outputs":[],"stateMutability":"nonpayable"},{"type":"function","name":"executed","inputs":[],"outputs":[{"name":"","type":"bool","internalType":"bool"}],"stateMutability":"view"},{"type":"function","name":"flashBorrowAmount","inputs":[],"outputs":[{"name":"","type":"uint256","internalType":"uint256"}],"stateMutability":"view"},{"type":"function","name":"flashBorrowToken","inputs":[],"outputs":[{"name":"","type":"address","internalType":"address"}],"stateMutability":"view"},{"type":"function","name":"flashPair","inputs":[],"outputs":[{"name":"","type":"address","internalType":"address"}],"stateMutability":"view"},{"type":"function","name":"flashRepayDebtAmount","inputs":[],"outputs":[{"name":"","type":"uint256","internalType":"uint256"}],"stateMutability":"view"},{"type":"function","name":"hiddenCollateral","inputs":[],"outputs":[{"name":"","type":"uint256","internalType":"uint256"}],"stateMutability":"view"},{"type":"function","name":"historicalMigrationState","inputs":[],"outputs":[{"name":"","type":"bool","internalType":"bool"}],"stateMutability":"view"},{"type":"function","name":"pairOwner","inputs":[],"outputs":[{"name":"","type":"address","internalType":"address"}],"stateMutability":"view"},{"type":"function","name":"plannedBorrowAmount","inputs":[],"outputs":[{"name":"","type":"uint256","internalType":"uint256"}],"stateMutability":"view"},{"type":"function","name":"preExistingHiddenCollateral","inputs":[],"outputs":[{"name":"","type":"uint256","internalType":"uint256"}],"stateMutability":"view"},{"type":"function","name":"privilegedMigrationBlocked","inputs":[],"outputs":[{"name":"","type":"bool","internalType":"bool"}],"stateMutability":"view"},{"type":"function","name":"profitAmount","inputs":[],"outputs":[{"name":"","type":"uint256","internalType":"uint256"}],"stateMutability":"view"},{"type":"function","name":"profitToken","inputs":[],"outputs":[{"name":"","type":"address","internalType":"address"}],"stateMutability":"view"},{"type":"function","name":"startingPid","inputs":[],"outputs":[{"name":"","type":"uint256","internalType":"uint256"}],"stateMutability":"view"},{"type":"function","name":"underlyingToken","inputs":[],"outputs":[{"name":"","type":"address","internalType":"address"}],"stateMutability":"view"},{"type":"function","name":"uniswapV2Call","inputs":[{"name":"sender","type":"address","internalType":"address"},{"name":"amount0","type":"uint256","internalType":"uint256"},{"name":"amount1","type":"uint256","internalType":"uint256"},{"name":"data","type":"bytes","internalType":"bytes"}],"outputs":[],"stateMutability":"nonpayable"}],"bytecode":{"object":"0x60808060405234610126575f8080926020810190637b10399960e01b82526004815261002c60248261012a565b5190736e90c85a495d54c6d7e1f3400fef1f6e59f86bd65afa61004d610161565b908061011a575b61008e575b50600e8054610100600160a81b03191660089290921b610100600160a81b031691909117905560405161332b90816101bf8239f35b80515f9182916001600160a01b03916100af9181016020908101910161019f565b166040516020810190637e062a3560e11b8252600481526100d160248261012a565b51915afa6100dd610161565b908061010e575b156100595780516001600160a01b0392506101079160209181018201910161019f565b165f610059565b506020815110156100e4565b50602081511015610054565b5f80fd5b601f909101601f19168101906001600160401b0382119082101761014d57604052565b634e487b7160e01b5f52604160045260245ffd5b3d1561019a573d906001600160401b03821161014d576040519161018f601f8201601f19166020018461012a565b82523d5f602084013e565b606090565b9081602091031261012657516001600160a01b0381168103610126579056fe60806040526004361015610011575f80fd5b5f3560e01c806305bc167c1461017457806310d1e85c1461016f57806320d1d11b1461016a5780632495a59914610165578063254b5f3f146101605780632cdacb501461015b5780632ec2fe3d14610156578063310d40351461015157806331a38c891461014c5780633c2448ed1461014757806349343624146101425780635ff972cc1461013d578063628ccb171461013857806366cfaebb146101335780636f98fb5d1461012e5780638f20f7ed14610129578063ac7ab8d214610124578063b2016bd41461011f578063ba7e1b391461011a578063ee7201ff14610115578063f66102f5146101105763f8d898981461010b575f80fd5b6104c3565b6104a6565b610489565b61046c565b610444565b61041d565b610400565b6103d8565b6103bb565b61039e565b610381565b610355565b61033d565b61031c565b6102f8565b6102cd565b6102a5565b61027d565b610255565b610233565b6101c1565b610187565b5f91031261018357565b5f80fd5b34610183575f366003190112610183576020600c54604051908152f35b6001600160a01b031690565b6001600160a01b0381160361018357565b34610183576080366003190112610183576004356101de816101b0565b602435604435916064359267ffffffffffffffff841161018357366023850112156101835783600401359267ffffffffffffffff84116101835736602485870101116101835760246102319501926106ac565b005b34610183575f36600319011261018357602060ff600e54166040519015158152f35b34610183575f366003190112610183576003546040516001600160a01b039091168152602090f35b34610183575f366003190112610183576008546040516001600160a01b039091168152602090f35b34610183575f366003190112610183576001546040516001600160a01b039091168152602090f35b34610183575f366003190112610183575f5460405160109190911c6001600160a01b03168152602090f35b34610183575f36600319011261018357602060ff5f5460081c166040519015158152f35b34610183575f36600319011261018357602060ff5f54166040519015158152f35b34610183575f36600319011261018357610231610e78565b34610183575f36600319011261018357600e5460405160089190911c6001600160a01b03168152602090f35b34610183575f366003190112610183576020600f54604051908152f35b34610183575f366003190112610183576020600554604051908152f35b34610183575f366003190112610183576020600a54604051908152f35b34610183575f366003190112610183576007546040516001600160a01b039091168152602090f35b34610183575f366003190112610183576020600654604051908152f35b34610183575f3660031901126101835760206040515f5160206132d65f395f51905f528152f35b34610183575f366003190112610183576002546040516001600160a01b039091168152602090f35b34610183575f366003190112610183576020600d54604051908152f35b34610183575f366003190112610183576020600954604051908152f35b34610183575f366003190112610183576020600b54604051908152f35b34610183575f366003190112610183576004546040516001600160a01b039091168152602090f35b156104f257565b60405162461bcd60e51b81526020600482015260086024820152673130b2103830b4b960c11b6044820152606490fd5b1561052957565b60405162461bcd60e51b815260206004820152600a6024820152693130b21039b2b73232b960b11b6044820152606490fd5b90816020910312610183573590565b1561057157565b60405162461bcd60e51b815260206004820152600a60248201526918985908185b5bdd5b9d60b21b6044820152606490fd5b634e487b7160e01b5f52604160045260245ffd5b90601f8019910116810190811067ffffffffffffffff8211176105d957604052565b6105a3565b5190811515820361018357565b90816020910312610183576105ff906105de565b90565b6040513d5f823e3d90fd5b90816020910312610183575190565b1561062357565b60405162461bcd60e51b815260206004820152600d60248201526c1b9bc818dbdb1b185d195c985b609a1b6044820152606490fd5b9081602091031261018357516105ff816101b0565b1561067457565b60405162461bcd60e51b815260206004820152601060248201526f1b5a59dc985d1a5bdb8819985a5b195960821b6044820152606490fd5b936106e66106ee93959492946106d66106cf6101a460075460018060a01b031690565b33146104eb565b6001600160a01b03163014610522565b81019061055b565b918115610d8c57505b610704600954821461056a565b600654610b0d576008546001600160a01b031660035461072c906001600160a01b03166101a4565b6001600160a01b0390911603610a2d57600354610753906101a4906001600160a01b031681565b60405163095ea7b360e01b81525f5160206132d65f395f51905f5260048201526024810183905290602090829060449082905f905af1801561097257610a10575b505f5160206132d65f395f51905f523b156101835760405163cadac47960e01b815260048101919091523060248201525f81604481835f5160206132d65f395f51905f525af18015610972576109f6575b505b604051635ad7983160e11b81523060048201526020816024815f5f5160206132d65f395f51905f525af1801561097257610828915f916109d7575b50600b55565b610835600b54151561061c565b5f5460101c6001600160a01b0316604051637b10399960e01b815291906020836004815f5160206132d65f395f51905f525afa908115610972578261088e9261088992610893965f926109a6575b50611542565b61066d565b600655565b600c5460405163035af68360e61b815260048101919091525f6024820152306044820152602081806064810103815f5f5160206132d65f395f51905f525af1801561097257610977575b505b600454610936906020906108fd906101a4906001600160a01b031681565b600754600a5460405163a9059cbb60e01b81526001600160a01b03909216600483015260248201529283919082905f9082906044820190565b03925af18015610972576109475750565b6109689060203d60201161096b575b61096081836105b7565b8101906105eb565b50565b503d610956565b610602565b6109989060203d60201161099f575b61099081836105b7565b81019061060d565b505f6108dd565b503d610986565b6109c991925060203d6020116109d0575b6109c181836105b7565b810190610658565b905f610883565b503d6109b7565b6109f0915060203d60201161099f5761099081836105b7565b5f610822565b80610a045f610a0a936105b7565b80610179565b5f6107e5565b610a289060203d60201161096b5761096081836105b7565b610794565b600254610a44906101a4906001600160a01b031681565b60405163095ea7b360e01b81525f5160206132d65f395f51905f5260048201526024810183905290602090829060449082905f905af1801561097257610af0575b505f5160206132d65f395f51905f523b15610183576040516360c52d0560e01b815260048101919091523060248201525f81604481835f5160206132d65f395f51905f525af1801561097257610adc575b506107e7565b80610a045f610aea936105b7565b5f610ad6565b610b089060203d60201161096b5761096081836105b7565b610a85565b6008549091506001600160a01b0316600354610b31906001600160a01b03166101a4565b6001600160a01b0390911603610c3357600354610b58906101a4906001600160a01b031681565b60405163095ea7b360e01b81525f5160206132d65f395f51905f526004820152602481018390529190602090839060449082905f905af190811561097257610bd592602092610c18575b50600c5460405163035af68360e61b81526004810191909152602481019190915230604482015291829081906064820190565b03815f5f5160206132d65f395f51905f525af1801561097257610bf9575b506108df565b610c119060203d60201161099f5761099081836105b7565b505f610bf3565b610c2e90833d851161096b5761096081836105b7565b610ba2565b600254610c4a906101a4906001600160a01b031681565b60405163095ea7b360e01b81525f5160206132d65f395f51905f5260048201526024810183905290602090829060449082905f905af1801561097257610d6f575b505f5160206132d65f395f51905f523b15610183576040516360c52d0560e01b815260048101919091523060248201525f81604481835f5160206132d65f395f51905f525af1801561097257610d5b575b50604051635ad7983160e11b81523060048201526020816024815f5f5160206132d65f395f51905f525af1801561097257610d1d915f916109d75750600b55565b610d2a600b54151561061c565b600c5460405163035af68360e61b815260048101919091525f60248201523060448201526020818060648101610bd5565b80610a045f610d69936105b7565b5f610cdc565b610d879060203d60201161096b5761096081836105b7565b610c8b565b90506106f7565b634e487b7160e01b5f52601160045260245ffd5b620186a0019081620186a011610db957565b610d93565b91908201809211610db957565b805180835260209291819084018484015e5f828201840152601f01601f1916010190565b90926080926105ff95948352602083015260018060a01b031660408201528160608201520190610dcb565b60405190610e2960c0836105b7565b565b90610e2960405192836105b7565b3d15610e73573d9067ffffffffffffffff82116105d95760405191610e68601f8201601f1916602001846105b7565b82523d5f602084013e565b606090565b5f5460ff16610e2957610e91600160ff195f5416175f55565b604051637b10399960e01b81526020816004815f5160206132d65f395f51905f525afa908115610972575f916114d8575b50604051638da5cb5b60e01b81526020816004815f5160206132d65f395f51905f525afa801561097257610f20915f916114b9575b505f805462010000600160b01b03191660109290921b62010000600160b01b0316919091179055565b6040516302cdacb560e41b81526020816004815f5160206132d65f395f51905f525afa801561097257610f72915f9161149a575b5060018060a01b03166001600160601b0360a01b6001541617600155565b60405163d8dfeb4560e01b81526020816004815f5160206132d65f395f51905f525afa801561097257610fc4915f9161147b575b5060018060a01b03166001600160601b0360a01b6002541617600255565b604051636f307dc360e01b81526020816004815f5160206132d65f395f51905f525afa801561097257611016915f9161145c575b5060018060a01b03166001600160601b0360a01b6003541617600355565b604051637e062a3560e11b81526020816004816001600160a01b0386165afa801561097257611064915f9161143d575b5060018060a01b03166001600160601b0360a01b6004541617600455565b60045461109b906001600160a01b0316600e8054610100600160a81b03191660089290921b610100600160a81b0316919091179055565b6040516386993bef60e01b81526020816004815f5160206132d65f395f51905f525afa8015610972576110d5915f9161141e575b50600555565b6110e0600554600655565b6001546001600160a01b0316158015611402575b6113f95760055480156113d1575b5f1981146112ae57600554611352575b61111a611c74565b805161112e906001600160a01b03166101a4565b156113395780516004906001600160a01b0316600780546001600160a01b0319166001600160a01b03831617905560208301805190939061118f906001600160a01b031660018060a01b03166001600160601b0360a01b6008541617600855565b60206111c06101a460408401946111a68651600955565b6111b36060860151600a55565b6101a46080860151600c55565b604051630dfe168160e01b815294859182905afa918215610972575f9485948594611314575b50516001600160a01b03165b926001600160a01b0390811690841681148514611304578151936001600160a01b03165b1484146112f857508261123281925b516001600160a01b031690565b9261128f6040519161125e836112508b602083019190602083019252565b03601f1981018552846105b7565b611281604051938492602084019763022c0d9f60e01b8952309160248601610def565b03601f1981018352826105b7565b51925af161129b610e39565b5015806112ed575b806112e3575b6112b8575b5050610e29611774565b5f546112dc926112d69183919060101c6001600160a01b0316611542565b50600655565b5f806112ae565b50600654156112a9565b5060055415156112a3565b61123284915192611225565b84936001600160a01b0316611216565b6111f29194506113329060203d6020116109d0576109c181836105b7565b93906111e6565b506005541515806112e3576112b8575050610e29611774565b61136261135d61194d565b600d55565b61137961135d61137183611a3f565b600d54610dbe565b611393600d54151560ff8019600e54169115151617600e55565b5f546113ac90839060101c6001600160a01b0316611741565b156113bf576113ba5f600655565b611112565b6113ba61010061ff00195f5416175f55565b506001546113f4906001600160a01b03166002546001600160a01b031690611860565b611102565b50610e29611774565b50600454611418906001600160a01b03166101a4565b156110f4565b611437915060203d60201161099f5761099081836105b7565b5f6110cf565b611456915060203d6020116109d0576109c181836105b7565b5f611046565b611475915060203d6020116109d0576109c181836105b7565b5f610ff8565b611494915060203d6020116109d0576109c181836105b7565b5f610fa6565b6114b3915060203d6020116109d0576109c181836105b7565b5f610f54565b6114d2915060203d6020116109d0576109c181836105b7565b5f610ef7565b6114f1915060203d6020116109d0576109c181836105b7565b5f610ec2565b6001600160a01b0390911681526040602082018190526105ff92910190610dcb565b6001600160a01b039182168152911660208201526060604082018190526105ff92910190610dcb565b9291833b1561173a57604051631fa4a5a160e21b602082015260248101919091529061157b82604481015b03601f1981018452836105b7565b5f806040516020810190631cff79cd60e01b82526115ae81611281885f5160206132d65f395f51905f52602484016114f7565b519082885af16115bc610e39565b506117135760405161022e80820182811067ffffffffffffffff8211176105d957845f5160206132d65f395f51905f52886115fd938695612eb48739611519565b03905ff080156109725760405163d909b40360e01b815290602090829060049082906001600160a01b03165afa908115610972575f9161171b575b50611713576040516101f480820182811067ffffffffffffffff8211176105d95782916130e2833903905ff09384156109725760206040518096637ae1ee7d60e11b8252815f8161169b895f5160206132d65f395f51905f528960048501611519565b03926001600160a01b03165af1948515610972575f956116f2575b50846116e9576001600160a01b0382166116cf57505050565b6105ff9394505f5160206132d65f395f51905f5290611e23565b50600193505050565b61170c91955060203d60201161096b5761096081836105b7565b935f6116b6565b506001925050565b611734915060203d60201161096b5761096081836105b7565b5f611638565b505f925050565b9190823b1561176e57604051631fa4a5a160e21b60208201525f60248201529061157b826044810161156d565b505f9150565b600e5460081c6001600160a01b0316156117f857600e546117a2906101a49060081c6001600160a01b031681565b6040516370a0823160e01b815230600482015290602090829060249082905afa801561097257610e29915f916117d9575b50600f55565b6117f2915060203d60201161099f5761099081836105b7565b5f6117d3565b610e295f600f55565b91908260c0910312610183578151611818816101b0565b916020810151611827816101b0565b916040820151611836816101b0565b916060810151611845816101b0565b916105ff60a06080840151611859816101b0565b93016105de565b905f5b6102008110611875575b5050505f1990565b604051631526fe2760e01b81526004810182905260c0816024816001600160a01b0388165afa5f918291829181611905575b506118b45750505061186d565b1591826118d0575b50506118ca57600101611863565b91505090565b6001600160a01b038581169116811492509082156118f2575b50505f806118bc565b6001600160a01b03161490505f806118e9565b9150925061192a915060c03d8111611939575b61192281836105b7565b810190611801565b9492505050929091905f6118a7565b503d611918565b91908203918211610db957565b6002546001600160a01b03168015611a3a57611971906001600160a01b03166101a4565b6040516370a0823160e01b81525f5160206132d65f395f51905f52600482015290602090829060249082905afa908115610972575f91611a1b575b50600654156105ff57604051634ac8eb5f60e01b81526020816004815f5160206132d65f395f51905f525afa908115610972575f916119fc575b50808211156119f8576105ff91611940565b5090565b611a15915060203d60201161099f5761099081836105b7565b5f6119e6565b611a34915060203d60201161099f5761099081836105b7565b5f6119ac565b505f90565b6001545f92916001600160a01b039091169081158015611bed575b61173a57905f90611a73906001600160a01b03166101a4565b905b6102008110611a8357505050565b828114611be557604051631526fe2760e01b81526004810182905260c081602481865afa5f5f91805f945f92611bb9575b50611ac25750505050505050565b8015611ba8575b611b9d57600254611ae2906001600160a01b03166101a4565b6001600160a01b039091168114159182611b89575b5050611b80576040516370a0823160e01b81525f5160206132d65f395f51905f52600482015290602090829060249082906001600160a01b03165afa5f9181611b60575b50611b4c575b506001905b01611a75565b611b599060019296610dbe565b9490611b41565b611b7991925060203d811161099f5761099081836105b7565b905f611b3b565b50600190611b46565b6001600160a01b0316141590505f80611af7565b505050600190611b46565b506001600160a01b03831615611ac9565b9250935050611bd6915060c03d81116119395761192281836105b7565b9592505092919293905f611ab4565b600190611b46565b50600254611c03906001600160a01b03166101a4565b15611a5a565b6040519060c0820182811067ffffffffffffffff8211176105d9576040525f60a0838281528260208201528260408201528260608201528260808201520152565b634e487b7160e01b5f52603260045260245ffd5b906002811015611c6f5760051b0190565b611c4a565b611c7c611c09565b906040611c896040610e2b565b735c69bee701ef814a2b6a3edd4b1652cb9cc5aa6f815273c0aee478e3658e2610c5f7a4a2e1777ce9e4f2ac6020820152611cc46040610e2b565b6002546001600160a01b031681526003546001600160a01b031660208201526004546001600160a01b0316925f5b60028110611d01575050505050565b611d0e6112258286611c5e565b6001600160a01b03165f5b60028110611d2b575050600101611cf2565b611d386112258287611c5e565b6001600160a01b0381168015908115611e10575b50611e0757845163e6a4390560e01b81526001600160a01b03828116600483015289166024820152602081604481875afa908115610972575f91611de9575b506001600160a01b03811615611ddf5790611db3915f5160206132d65f395f51905f5261225a565b611dbc8161253b565b611dc58b61253b565b10611dd6575b506001905b01611d19565b98506001611dcb565b5050600190611dd0565b611e01915060203d81116109d0576109c181836105b7565b5f611d8b565b50600190611dd0565b90506001600160a01b038916145f611d4c565b91929092611e3382828686612628565b6120b25760405163670fb82160e01b81526001600160a01b03919091169082602082600481865afa5f92816121c0575b506121b757611e7691505f5b8686612628565b6120b25760405163d25adeb360e01b815282602082600481865afa5f9281612196575b5061218d57611eab91505f8686612628565b6120b25760405163e8673ef560e01b815282602082600481865afa5f928161216c575b5061216357611ee091505f8686612628565b6120b257604051630abca72960e41b815282602082600481865afa5f9281612142575b5061213957611f1591505f8686612628565b6120b257604051622acab760ea1b815282602082600481865afa5f9281612118575b5061210f57611f4991505f8686612628565b6120b257604051635ebaf1db60e01b815282602082600481865afa5f92816120ee575b506120e557611f7e91505f8686612628565b6120b2576040516361d027b360e01b815282602082600481865afa5f92816120c4575b506120bb57611fb391505f8686612628565b6120b2575f5b60108110612049575b505f5b60208110611fd7575b50505050505f90565b60405163163f8e0160e31b815260048101829052602081602481865afa5f9181612029575b506120075750611fce565b83612013918787612628565b61201f57600101611fc5565b5050505050600190565b61204291925060203d81116109d0576109c181836105b7565b905f611ffc565b604051636928572760e01b81526004810182905283602082602481875afa5f9281612092575b5061207b575050611fc2565b612086918787612628565b61201f57600101611fb9565b6120ab91935060203d81116109d0576109c181836105b7565b915f61206f565b50505050600190565b611fb391611e6f565b6120de91935060203d6020116109d0576109c181836105b7565b915f611fa1565b611f7e91611e6f565b61210891935060203d6020116109d0576109c181836105b7565b915f611f6c565b611f4991611e6f565b61213291935060203d6020116109d0576109c181836105b7565b915f611f37565b611f1591611e6f565b61215c91935060203d6020116109d0576109c181836105b7565b915f611f03565b611ee091611e6f565b61218691935060203d6020116109d0576109c181836105b7565b915f611ece565b611eab91611e6f565b6121b091935060203d6020116109d0576109c181836105b7565b915f611e99565b611e7691611e6f565b6121da91935060203d6020116109d0576109c181836105b7565b915f611e63565b51906001600160701b038216820361018357565b9081606091031261018357612209816121e1565b916040612218602084016121e1565b92015163ffffffff811681036101835790565b90600c811015611c6f5760051b0190565b8115612246570490565b634e487b7160e01b5f52601260045260245ffd5b9290612264611c09565b604051630240bc6b60e21b81526001600160a01b03831695919491906060816004818a5afa968715610972575f915f98612507575b50604051630dfe168160e01b815290602082600481845afa908115610972576004925f926124e5575b506020906040519384809263d21220a760e01b82525afa918215610972575f926124c4575b506001600160a01b0390811691908516908282148061249e575b15612453575050506001600160701b0380911696165b60018711801590612448575b61243f57612332610180610e2b565b966127108852611d4c602089015261138860408901526109c460608901526103e860808901526101f460a089015260fa60c0890152606460e0890152603261010089015260196101208901526014610140890152600a61016089015260405193630463f1b360e11b855260208560048160018060a01b0388165afa948515610972575f9561241e575b505f5b600c81106123d25750505050505050909150565b6123f4866123ea6123e3848e61222b565b518661223c565b8686868c8b612a27565b6123fd8161253b565b6124068b61253b565b10612415575b506001016123be565b9850600161240c565b61243891955060203d60201161099f5761099081836105b7565b935f6123bb565b50505050915090565b506001811115612323565b9298926001600160a01b031614908161247f575b501561243f576001600160701b038091169616612317565b600454909150612497906001600160a01b03166101a4565b145f612467565b506004546124b4906001600160a01b03166101a4565b6001600160a01b03821614612301565b6124de91925060203d6020116109d0576109c181836105b7565b905f6122e7565b602091925061250090823d84116109d0576109c181836105b7565b91906122c2565b90975061252c915060603d606011612534575b61252481836105b7565b8101906121f5565b50965f612299565b503d61251a565b6060608082015191015180821115612559578103908111610db95790565b50505f90565b9190826040910312610183576020612576836105de565b9201516105ff816101b0565b6040805190919061259383826105b7565b6001815291601f1901825f5b8281106125ab57505050565b80606060208093850101520161259f565b805115611c6f5760200190565b602081016020825282518091526040820191602060408360051b8301019401925f915b8383106125fb57505050505090565b9091929394602080612619600193603f198682030187528951610dcb565b970193019301919392906125ec565b91906001600160a01b03821680159081156129ce575b81156129bb575b81156129a8575b50801561299f575b61295257602084015160408051632a6c278160e21b81526001600160a01b038086166004830152841660248201526001600160e01b0319909216604483015281806064810103816001600160a01b0388165afa90815f915f9361296c575b506126c1575050505050505f90565b15908161295a575b5061295257604051631cff79cd60e01b6020820152926126ff846126f18785602484016114f7565b03601f1981018652856105b7565b604051631cff79cd60e01b602082015261272b90612725816112818886602484016114f7565b84612bb0565b61201f57604051635f30016160e11b602082015261275590612725816112818886602484016114f7565b61201f57604051631b8b921d60e01b602082015261277f90612725816112818886602484016114f7565b61201f576040516363799a0960e11b60208201526127a990612725816112818886602484016114f7565b61201f57836127d46127da926112816040519384926376846edd60e01b6020850152602484016114f7565b83612bb0565b6120b257604051631cff79cd60e01b6020820152612804906127d4816112818886602484016114f7565b6120b257604051635f30016160e11b602082015261282e906127d4816112818886602484016114f7565b6120b257604051631b8b921d60e01b6020820152612858906127d4816112818886602484016114f7565b6120b2576040516363799a0960e11b6020820152612882906127d4816112818886602484016114f7565b6120b257836128ad6128b3926112816040519384926376846edd60e01b6020850152602484016114f7565b82612bb0565b61294a576128bf612582565b916128c9836125bc565b526128d3826125bc565b50604051631592ca1b60e31b60208201526128f9906128ad8161128186602483016125c9565b61294a576129388261293d9461291161156d956125bc565b5261291b816125bc565b50604051631592ca1b60e31b6020820152938491602483016125c9565b612bb0565b612945575f90565b600190565b505050600190565b505050505f90565b6001600160a01b03161590505f6126c9565b909250612991915060403d604011612998575b61298981836105b7565b81019061255f565b915f6126b2565b503d61297f565b50813b15612654565b6001600160a01b0383161490505f61264c565b6001600160a01b03851681149150612645565b308114915061263e565b906126de8202918083046126de1490151715610db957565b90670de0b6b3a7640000820291808304670de0b6b3a76400001490151715610db957565b81810292918115918404141715610db957565b949190959392612a35611c09565b9083158015612ba6575b612b1e57600254612a58906001600160a01b03166101a4565b6001600160a01b0384168103612b48575083965b8715612b3c5787612a7c91612c30565b9486861115612b3c5790612a909185612e36565b9384158015612b29575b612b1e57612aaa612ab2916129d8565b612710900490565b9484861190811591612b14575b50612b0a5750612af390612ae3612ad4610e1a565b6001600160a01b039098168852565b6001600160a01b03166020870152565b60408501526060840152608083015260a082015290565b9550505050505090565b905085105f612abf565b509550505050505090565b50612b348686610dbe565b811115612a9a565b50509550505050505090565b60405163ef8b30f760e01b81526004810186905290602090829060249082906001600160a01b03165afa908115610972575f91612b87575b5096612a6c565b612ba0915060203d60201161099f5761099081836105b7565b5f612b80565b5080841015612a3f565b5f91829182602083519301915af16119f8610e39565b90816060910312610183578051612bdc816101b0565b9160208201516001600160601b03811681036101835760409092015190565b51906001600160801b038216820361018357565b9190826040910312610183576105ff6020612c2984612bfb565b9301612bfb565b604051633eeefe5360e21b81526001600160a01b039190911691606082600481865afa918215610972575f92612e02575b508115612d5c57612c71906129f0565b60405163f384bd0560e01b815290602082600481875afa90811561097257612ca0925f92612de1575b50612a14565b6040516313966db560e01b815291602083600481875afa90811561097257612cd6612cdc92612ce2955f91612dc2575b50610da7565b90612a14565b9061223c565b6040805163020a17bd60e61b815291929082600481845afa908115610972576004925f92612d8d575b506020906040519384809263e551d11d60e01b82525afa918215610972575f92612d63575b506001600160801b031680821115612d5c57612d4b91611940565b80821015612d57575090565b905090565b5050505f90565b6001600160801b03919250612d869060203d60201161099f5761099081836105b7565b9190612d30565b6020919250612db39060403d604011612dbb575b612dab81836105b7565b810190612c0f565b509190612d0b565b503d612da1565b612ddb915060203d60201161099f5761099081836105b7565b5f612cd0565b612dfb91925060203d60201161099f5761099081836105b7565b905f612c9a565b612e2591925060603d606011612e2f575b612e1d81836105b7565b810190612bc6565b915050905f612c61565b503d612e13565b9081158015612eab575b8015612ea1575b612d5c5781612e5591612a14565b916103e88302928084046103e81490151715610db95781810391818311610db9576103e583029283046103e51491141715610db957612e939161223c565b60018101809111610db95790565b5081831115612e47565b508015612e4056fe6080806040523461014a5761022e803803809161001c828561014e565b833981019060608183031261014a5761003481610185565b61004060208301610185565b604083015190926001600160401b03821161014a57019183601f8401121561014a5782519361006e85610199565b9061007c604051928361014e565b85825260208201906020878701011161014a576100fd60845f979388602086829a9782849901885e830101526040519384916020830197631cff79cd60e01b895260018060a01b03166024840152604060448401525180918160648501528484015e85838284010152601f801991011681010301601f19810183528261014e565b51925af13d15610145573d61011181610199565b9061011f604051928361014e565b81525f60203d92013e5b60ff80195f541691151516175f55604051607990816101b58239f35b610129565b5f80fd5b601f909101601f19168101906001600160401b0382119082101761017157604052565b634e487b7160e01b5f52604160045260245ffd5b51906001600160a01b038216820361014a57565b6001600160401b03811161017157601f01601f19166020019056fe60808060405260043610156011575f80fd5b5f3560e01c63d909b403146023575f80fd5b34603f575f366003190112603f5760209060ff5f541615158152f35b5f80fdfea2646970667358221220596a8d5c779dc7d69a0478a08c2b529e25627d033100ed9497bfae973334d84164736f6c634300081e0033608080604052346015576101da908161001a8239f35b5f80fdfe60806040526004361015610011575f80fd5b5f3560e01c63f5c3dcfa14610024575f80fd5b3461014e57606036600319011261014e576004356001600160a01b038116810361014e576024356001600160a01b038116919082900361014e5760443567ffffffffffffffff811161014e573660238201121561014e5780600401359161008a83610188565b936100986040519586610152565b8385526020850194366024868601011161014e5760209561011460845f9793888a86829a9760248499018837830101526040519384918b830197631cff79cd60e01b89526024840152604060448401525180918160648501528484015e85838284010152601f801991011681010301601f198101835282610152565b51925af13d15610149573d61012881610188565b906101366040519283610152565b81525f833d92013e5b6040519015158152f35b61013f565b5f80fd5b90601f8019910116810190811067ffffffffffffffff82111761017457604052565b634e487b7160e01b5f52604160045260245ffd5b67ffffffffffffffff811161017457601f01601f19166020019056fea26469706673582212206d9f3d8e49cb95641771bfdf842aa61a5d638d2cbcfa80318a13c873ca37c52e64736f6c634300081e00330000000000000000000000006e90c85a495d54c6d7e1f3400fef1f6e59f86bd6a26469706673582212207bb32c5f03f368995c48b811773e17afdc94c4fc4bb230c757c015ec1494eeaf64736f6c634300081e0033","linkReferences":{}},"methodIdentifiers":{"TARGET_PAIR()":"ac7ab8d2","activePid()":"8f20f7ed","collateralToken()":"b2016bd4","convexBooster()":"2cdacb50","debtToken()":"f8d89898","executeOnOpportunity()":"3c2448ed","executed()":"31a38c89","flashBorrowAmount()":"ee7201ff","flashBorrowToken()":"254b5f3f","flashPair()":"6f98fb5d","flashRepayDebtAmount()":"66cfaebb","hiddenCollateral()":"f66102f5","historicalMigrationState()":"20d1d11b","pairOwner()":"2ec2fe3d","plannedBorrowAmount()":"05bc167c","preExistingHiddenCollateral()":"ba7e1b39","privilegedMigrationBlocked()":"310d4035","profitAmount()":"5ff972cc","profitToken()":"49343624","startingPid()":"628ccb17","underlyingToken()":"2495a599","uniswapV2Call(address,uint256,uint256,bytes)":"10d1e85c"},"id":0}