{"abi":[{"type":"function","name":"exec","inputs":[{"name":"owner","type":"address","internalType":"address"},{"name":"target","type":"address","internalType":"address"},{"name":"data","type":"bytes","internalType":"bytes"}],"outputs":[{"name":"ok","type":"bool","internalType":"bool"}],"stateMutability":"nonpayable"}],"bytecode":{"object":"0x608080604052346015576101da908161001a8239f35b5f80fdfe60806040526004361015610011575f80fd5b5f3560e01c63f5c3dcfa14610024575f80fd5b3461014e57606036600319011261014e576004356001600160a01b038116810361014e576024356001600160a01b038116919082900361014e5760443567ffffffffffffffff811161014e573660238201121561014e5780600401359161008a83610188565b936100986040519586610152565b8385526020850194366024868601011161014e5760209561011460845f9793888a86829a9760248499018837830101526040519384918b830197631cff79cd60e01b89526024840152604060448401525180918160648501528484015e85838284010152601f801991011681010301601f198101835282610152565b51925af13d15610149573d61012881610188565b906101366040519283610152565b81525f833d92013e5b6040519015158152f35b61013f565b5f80fd5b90601f8019910116810190811067ffffffffffffffff82111761017457604052565b634e487b7160e01b5f52604160045260245ffd5b67ffffffffffffffff811161017457601f01601f19166020019056fea26469706673582212206d9f3d8e49cb95641771bfdf842aa61a5d638d2cbcfa80318a13c873ca37c52e64736f6c634300081e0033","linkReferences":{}},"methodIdentifiers":{"exec(address,address,bytes)":"f5c3dcfa"},"id":0}