{"abi":[{"type":"constructor","inputs":[],"stateMutability":"payable"},{"type":"receive","stateMutability":"payable"},{"type":"function","name":"attemptCandidate","inputs":[{"name":"liquidPool","type":"address","internalType":"address"},{"name":"desiredShares","type":"uint256","internalType":"uint256"}],"outputs":[],"stateMutability":"nonpayable"},{"type":"function","name":"executeOnOpportunity","inputs":[],"outputs":[],"stateMutability":"nonpayable"},{"type":"function","name":"profitAmount","inputs":[],"outputs":[{"name":"","type":"uint256","internalType":"uint256"}],"stateMutability":"view"},{"type":"function","name":"profitToken","inputs":[],"outputs":[{"name":"","type":"address","internalType":"address"}],"stateMutability":"view"},{"type":"function","name":"receiveFlashLoan","inputs":[{"name":"tokens","type":"address[]","internalType":"contract IERC20Like[]"},{"name":"amounts","type":"uint256[]","internalType":"uint256[]"},{"name":"feeAmounts","type":"uint256[]","internalType":"uint256[]"},{"name":"userData","type":"bytes","internalType":"bytes"}],"outputs":[],"stateMutability":"nonpayable"}],"bytecode":{"object":"0x6080604052612c58806100115f395ff3fe60806040526004361061004d575f3560e01c80631f876380146100585780633c2448ed1461008057806349343624146100965780635ff972cc146100c0578063f04f2707146100ea57610054565b3661005457005b5f5ffd5b348015610063575f5ffd5b5061007e60048036038101906100799190611703565b610112565b005b34801561008b575f5ffd5b506100946103ba565b005b3480156100a1575f5ffd5b506100aa6107cb565b6040516100b79190611750565b60405180910390f35b3480156100cb575f5ffd5b506100d46107f2565b6040516100e19190611778565b60405180910390f35b3480156100f5575f5ffd5b50610110600480360381019061010b9190611a8c565b6107fb565b005b3073ffffffffffffffffffffffffffffffffffffffff163373ffffffffffffffffffffffffffffffffffffffff1614610180576040517f08c379a000000000000000000000000000000000000000000000000000000000815260040161017790611bba565b60405180910390fd5b5f61019f7348afbbd342f64ef8a9ab1c143719b63c2ad8171084610b98565b90505f6101d883837348afbbd342f64ef8a9ab1c143719b63c2ad8171073ffffffffffffffffffffffffffffffffffffffff1631610caa565b90505f81036101f4576101ed84845f5f610cfa565b50506103b6565b5f600167ffffffffffffffff8111156102105761020f6117a5565b5b60405190808252806020026020018201604052801561023e5781602001602082028036833780820191505090505b50905073c02aaa39b223fe8d0a0e5c4f27ead9083c756cc2815f8151811061026957610268611bd8565b5b602002602001019073ffffffffffffffffffffffffffffffffffffffff16908173ffffffffffffffffffffffffffffffffffffffff16815250505f600167ffffffffffffffff8111156102bf576102be6117a5565b5b6040519080825280602002602001820160405280156102ed5781602001602082028036833780820191505090505b50905082815f8151811061030457610303611bd8565b5b60200260200101818152505073ba12222222228d8ba445958a75a0704d566bf2c873ffffffffffffffffffffffffffffffffffffffff16635c38449e3084848a8a604051602001610356929190611c05565b6040516020818303038152906040526040518563ffffffff1660e01b81526004016103849493929190611e66565b5f604051808303815f87803b15801561039b575f5ffd5b505af11580156103ad573d5f5f3e3d5ffd5b50505050505050505b5050565b5f4790505f7348afbbd342f64ef8a9ab1c143719b63c2ad8171073ffffffffffffffffffffffffffffffffffffffff16639dc162ca6040518163ffffffff1660e01b8152600401602060405180830381865afa15801561041c573d5f5f3e3d5ffd5b505050506040513d601f19601f820116820180604052508101906104409190611ed2565b90505f73ffffffffffffffffffffffffffffffffffffffff168173ffffffffffffffffffffffffffffffffffffffff16036104b0576040517f08c379a00000000000000000000000000000000000000000000000000000000081526004016104a790611f6d565b60405180910390fd5b67016345785d8a00008173ffffffffffffffffffffffffffffffffffffffff16311015610512576040517f08c379a000000000000000000000000000000000000000000000000000000000815260040161050990611ffb565b60405180910390fd5b5f6105317348afbbd342f64ef8a9ab1c143719b63c2ad8171083610b98565b90505f61056a83837348afbbd342f64ef8a9ab1c143719b63c2ad8171073ffffffffffffffffffffffffffffffffffffffff1631611133565b9050662386f26fc100008110156105b6576040517f08c379a00000000000000000000000000000000000000000000000000000000081526004016105ad90612089565b60405180910390fd5b5f6040518060a0016040528083815260200160046003856105d791906120d4565b6105e19190612142565b81526020016002846105f39190612142565b81526020016004846106059190612142565b8152602001662386f26fc1000081525090505f5f5f5f90505b60058110156106e3575f84826005811061063b5761063a611bd8565b5b60200201519050662386f26fc1000081108061065657508281145b1561066157506106d8565b8092503073ffffffffffffffffffffffffffffffffffffffff16631f87638089836040518363ffffffff1660e01b815260040161069f929190611c05565b5f604051808303815f87803b1580156106b6575f5ffd5b505af19250505080156106c7575060015b156106d65760019350506106e3565b505b80600101905061061e565b5081610724576040517f08c379a000000000000000000000000000000000000000000000000000000000815260040161071b906121e2565b60405180910390fd5b5f5f5f6101000a81548173ffffffffffffffffffffffffffffffffffffffff021916908373ffffffffffffffffffffffffffffffffffffffff160217905550864761076f9190612200565b60018190555067016345785d8a000060015410156107c2576040517f08c379a00000000000000000000000000000000000000000000000000000000081526004016107b99061227d565b60405180910390fd5b50505050505050565b5f5f5f9054906101000a900473ffffffffffffffffffffffffffffffffffffffff16905090565b5f600154905090565b73ba12222222228d8ba445958a75a0704d566bf2c873ffffffffffffffffffffffffffffffffffffffff163373ffffffffffffffffffffffffffffffffffffffff161461087d576040517f08c379a0000000000000000000000000000000000000000000000000000000008152600401610874906122e5565b60405180910390fd5b6001845114801561088f575060018351145b801561089c575060018251145b6108db576040517f08c379a00000000000000000000000000000000000000000000000000000000081526004016108d29061234d565b60405180910390fd5b73c02aaa39b223fe8d0a0e5c4f27ead9083c756cc273ffffffffffffffffffffffffffffffffffffffff16845f8151811061091957610918611bd8565b5b602002602001015173ffffffffffffffffffffffffffffffffffffffff1614610977576040517f08c379a000000000000000000000000000000000000000000000000000000000815260040161096e906123b5565b60405180910390fd5b5f5f8280602001905181019061098d9190612422565b9150915073c02aaa39b223fe8d0a0e5c4f27ead9083c756cc273ffffffffffffffffffffffffffffffffffffffff16632e1a7d4d865f815181106109d4576109d3611bd8565b5b60200260200101516040518263ffffffff1660e01b81526004016109f89190611778565b5f604051808303815f87803b158015610a0f575f5ffd5b505af1158015610a21573d5f5f3e3d5ffd5b50505050610a658282875f81518110610a3d57610a3c611bd8565b5b6020026020010151875f81518110610a5857610a57611bd8565b5b6020026020010151610cfa565b5f845f81518110610a7957610a78611bd8565b5b6020026020010151865f81518110610a9457610a93611bd8565b5b6020026020010151610aa69190612460565b905080471015610aeb576040517f08c379a0000000000000000000000000000000000000000000000000000000008152600401610ae290612503565b60405180910390fd5b73c02aaa39b223fe8d0a0e5c4f27ead9083c756cc273ffffffffffffffffffffffffffffffffffffffff1663d0e30db0826040518263ffffffff1660e01b81526004015f604051808303818588803b158015610b45575f5ffd5b505af1158015610b57573d5f5f3e3d5ffd5b5050505050610b8f73c02aaa39b223fe8d0a0e5c4f27ead9083c756cc273ba12222222228d8ba445958a75a0704d566bf2c883611256565b50505050505050565b5f5f5f8473ffffffffffffffffffffffffffffffffffffffff166370a0823160e01b85604051602401610bcb9190611750565b604051602081830303815290604052907bffffffffffffffffffffffffffffffffffffffffffffffffffffffff19166020820180517bffffffffffffffffffffffffffffffffffffffffffffffffffffffff8381831617835250505050604051610c35919061255b565b5f60405180830381855afa9150503d805f8114610c6d576040519150601f19603f3d011682016040523d82523d5f602084013e610c72565b606091505b5091509150818015610c8657506020815110155b15610ca25780806020019051810190610c9f9190612571565b92505b505092915050565b5f5f838510610cb95783610cbb565b845b90505f8103610ccd575f915050610cf3565b5f610cd7826113a5565b905083811115610cf0578381610ced9190612200565b92505b50505b9392505050565b5f610d197348afbbd342f64ef8a9ab1c143719b63c2ad8171030610b98565b90505f73ffffffffffffffffffffffffffffffffffffffff168573ffffffffffffffffffffffffffffffffffffffff1603610d89576040517f08c379a0000000000000000000000000000000000000000000000000000000008152600401610d80906125e6565b60405180910390fd5b5f8314610e38575f83604051610d9e90611658565b6040518091039082f0905080158015610db9573d5f5f3e3d5ffd5b5090508073ffffffffffffffffffffffffffffffffffffffff1663668a2f677348afbbd342f64ef8a9ab1c143719b63c2ad817106040518263ffffffff1660e01b8152600401610e099190612613565b5f604051808303815f87803b158015610e20575f5ffd5b505af1158015610e32573d5f5f3e3d5ffd5b50505050505b7348afbbd342f64ef8a9ab1c143719b63c2ad8171073ffffffffffffffffffffffffffffffffffffffff166394bf804d85306040518363ffffffff1660e01b8152600401610e8792919061262c565b6020604051808303815f875af1158015610ea3573d5f5f3e3d5ffd5b505050506040513d601f19601f82011682018060405250810190610ec79190612571565b505f81610ee87348afbbd342f64ef8a9ab1c143719b63c2ad8171030610b98565b610ef29190612200565b90505f8103610f36576040517f08c379a0000000000000000000000000000000000000000000000000000000008152600401610f2d9061269d565b60405180910390fd5b610f557348afbbd342f64ef8a9ab1c143719b63c2ad81710875f611475565b610f747348afbbd342f64ef8a9ab1c143719b63c2ad817108783611475565b5f5f610f8088846115c4565b9150915081610fc4576040517f08c379a0000000000000000000000000000000000000000000000000000000008152600401610fbb9061272b565b60405180910390fd5b8486610fd09190612460565b8111611011576040517f08c379a0000000000000000000000000000000000000000000000000000000008152600401611008906127b9565b60405180910390fd5b5f4790505f8973ffffffffffffffffffffffffffffffffffffffff166320168730865f6040518363ffffffff1660e01b8152600401611051929190612810565b6020604051808303815f875af115801561106d573d5f5f3e3d5ffd5b505050506040513d601f19601f820116820180604052508101906110919190612571565b90505f82476110a09190612200565b90505f81036110e4576040517f08c379a00000000000000000000000000000000000000000000000000000000081526004016110db90612881565b60405180910390fd5b808214611126576040517f08c379a000000000000000000000000000000000000000000000000000000000815260040161111d906128e9565b60405180910390fd5b5050505050505050505050565b5f5f8473ffffffffffffffffffffffffffffffffffffffff1631905067016345785d8a0000811015611168575f91505061124f565b5f662386f26fc1000090505f60028361118191906120d4565b8661118c9190612460565b90508181101561119a578190505b5b80821161124b575f600283836111b19190612200565b6111bb9190612142565b836111c69190612460565b90505f5f6111d48a846115c4565b915091505f6111e4848b8b610caa565b9050828015611206575067016345785d8a0000816112029190612460565b8210155b156112225783975060018461121b9190612460565b9550611242565b5f8403611232575050505061124b565b60018461123f9190612200565b94505b5050505061119b565b5050505b9392505050565b5f5f8473ffffffffffffffffffffffffffffffffffffffff1663a9059cbb60e01b858560405160240161128a929190611c05565b604051602081830303815290604052907bffffffffffffffffffffffffffffffffffffffffffffffffffffffff19166020820180517bffffffffffffffffffffffffffffffffffffffffffffffffffffffff83818316178352505050506040516112f4919061255b565b5f604051808303815f865af19150503d805f811461132d576040519150601f19603f3d011682016040523d82523d5f602084013e611332565b606091505b509150915081801561135f57505f8151148061135e57508080602001905181019061135d919061293c565b5b5b61139e576040517f08c379a0000000000000000000000000000000000000000000000000000000008152600401611395906129b1565b60405180910390fd5b5050505050565b5f7348afbbd342f64ef8a9ab1c143719b63c2ad8171073ffffffffffffffffffffffffffffffffffffffff1663b3d7f6b9836040518263ffffffff1660e01b81526004016113f39190611778565b602060405180830381865afa92505050801561142d57506040513d601f19601f8201168201806040525081019061142a9190612571565b60015b61146c576040517f08c379a000000000000000000000000000000000000000000000000000000000815260040161146390612a3f565b60405180910390fd5b80915050919050565b5f5f8473ffffffffffffffffffffffffffffffffffffffff1663095ea7b360e01b85856040516024016114a9929190611c05565b604051602081830303815290604052907bffffffffffffffffffffffffffffffffffffffffffffffffffffffff19166020820180517bffffffffffffffffffffffffffffffffffffffffffffffffffffffff8381831617835250505050604051611513919061255b565b5f604051808303815f865af19150503d805f811461154c576040519150601f19603f3d011682016040523d82523d5f602084013e611551565b606091505b509150915081801561157e57505f8151148061157d57508080602001905181019061157c919061293c565b5b5b6115bd576040517f08c379a00000000000000000000000000000000000000000000000000000000081526004016115b490612aa7565b60405180910390fd5b5050505050565b5f5f8373ffffffffffffffffffffffffffffffffffffffff16635c195217846040518263ffffffff1660e01b81526004016115ff9190611778565b6040805180830381865afa92505050801561163857506040513d601f19601f820116820180604052508101906116359190612ac5565b60015b611647575f5f91509150611651565b6001829350935050505b9250929050565b61011f80612b0483390190565b5f604051905090565b5f5ffd5b5f5ffd5b5f73ffffffffffffffffffffffffffffffffffffffff82169050919050565b5f61169f82611676565b9050919050565b6116af81611695565b81146116b9575f5ffd5b50565b5f813590506116ca816116a6565b92915050565b5f819050919050565b6116e2816116d0565b81146116ec575f5ffd5b50565b5f813590506116fd816116d9565b92915050565b5f5f604083850312156117195761171861166e565b5b5f611726858286016116bc565b9250506020611737858286016116ef565b9150509250929050565b61174a81611695565b82525050565b5f6020820190506117635f830184611741565b92915050565b611772816116d0565b82525050565b5f60208201905061178b5f830184611769565b92915050565b5f5ffd5b5f601f19601f8301169050919050565b7f4e487b71000000000000000000000000000000000000000000000000000000005f52604160045260245ffd5b6117db82611795565b810181811067ffffffffffffffff821117156117fa576117f96117a5565b5b80604052505050565b5f61180c611665565b905061181882826117d2565b919050565b5f67ffffffffffffffff821115611837576118366117a5565b5b602082029050602081019050919050565b5f5ffd5b5f61185682611695565b9050919050565b6118668161184c565b8114611870575f5ffd5b50565b5f813590506118818161185d565b92915050565b5f6118996118948461181d565b611803565b905080838252602082019050602084028301858111156118bc576118bb611848565b5b835b818110156118e557806118d18882611873565b8452602084019350506020810190506118be565b5050509392505050565b5f82601f83011261190357611902611791565b5b8135611913848260208601611887565b91505092915050565b5f67ffffffffffffffff821115611936576119356117a5565b5b602082029050602081019050919050565b5f6119596119548461191c565b611803565b9050808382526020820190506020840283018581111561197c5761197b611848565b5b835b818110156119a5578061199188826116ef565b84526020840193505060208101905061197e565b5050509392505050565b5f82601f8301126119c3576119c2611791565b5b81356119d3848260208601611947565b91505092915050565b5f5ffd5b5f67ffffffffffffffff8211156119fa576119f96117a5565b5b611a0382611795565b9050602081019050919050565b828183375f83830152505050565b5f611a30611a2b846119e0565b611803565b905082815260208101848484011115611a4c57611a4b6119dc565b5b611a57848285611a10565b509392505050565b5f82601f830112611a7357611a72611791565b5b8135611a83848260208601611a1e565b91505092915050565b5f5f5f5f60808587031215611aa457611aa361166e565b5b5f85013567ffffffffffffffff811115611ac157611ac0611672565b5b611acd878288016118ef565b945050602085013567ffffffffffffffff811115611aee57611aed611672565b5b611afa878288016119af565b935050604085013567ffffffffffffffff811115611b1b57611b1a611672565b5b611b27878288016119af565b925050606085013567ffffffffffffffff811115611b4857611b47611672565b5b611b5487828801611a5f565b91505092959194509250565b5f82825260208201905092915050565b7f73656c662d63616c6c206f6e6c790000000000000000000000000000000000005f82015250565b5f611ba4600e83611b60565b9150611baf82611b70565b602082019050919050565b5f6020820190508181035f830152611bd181611b98565b9050919050565b7f4e487b71000000000000000000000000000000000000000000000000000000005f52603260045260245ffd5b5f604082019050611c185f830185611741565b611c256020830184611769565b9392505050565b5f819050919050565b5f611c4f611c4a611c4584611676565b611c2c565b611676565b9050919050565b5f611c6082611c35565b9050919050565b5f611c7182611c56565b9050919050565b611c8181611c67565b82525050565b5f81519050919050565b5f82825260208201905092915050565b5f819050602082019050919050565b5f611cba82611c56565b9050919050565b611cca81611cb0565b82525050565b5f611cdb8383611cc1565b60208301905092915050565b5f602082019050919050565b5f611cfd82611c87565b611d078185611c91565b9350611d1283611ca1565b805f5b83811015611d42578151611d298882611cd0565b9750611d3483611ce7565b925050600181019050611d15565b5085935050505092915050565b5f81519050919050565b5f82825260208201905092915050565b5f819050602082019050919050565b611d81816116d0565b82525050565b5f611d928383611d78565b60208301905092915050565b5f602082019050919050565b5f611db482611d4f565b611dbe8185611d59565b9350611dc983611d69565b805f5b83811015611df9578151611de08882611d87565b9750611deb83611d9e565b925050600181019050611dcc565b5085935050505092915050565b5f81519050919050565b5f82825260208201905092915050565b8281835e5f83830152505050565b5f611e3882611e06565b611e428185611e10565b9350611e52818560208601611e20565b611e5b81611795565b840191505092915050565b5f608082019050611e795f830187611c78565b8181036020830152611e8b8186611cf3565b90508181036040830152611e9f8185611daa565b90508181036060830152611eb38184611e2e565b905095945050505050565b5f81519050611ecc816116a6565b92915050565b5f60208284031215611ee757611ee661166e565b5b5f611ef484828501611ebe565b91505092915050565b7f6c6971756964556e7374616b65506f6f6c28292072657475726e6564207a65725f8201527f6f00000000000000000000000000000000000000000000000000000000000000602082015250565b5f611f57602183611b60565b9150611f6282611efd565b604082019050919050565b5f6020820190508181035f830152611f8481611f4b565b9050919050565b7f6c697175696420706f6f6c204554482062656c6f772070726f66697420666c6f5f8201527f6f72000000000000000000000000000000000000000000000000000000000000602082015250565b5f611fe5602283611b60565b9150611ff082611f8b565b604082019050919050565b5f6020820190508181035f83015261201281611fd9565b9050919050565b7f6e6f2071756f746564206d696e742073697a6520636f766572732072657175695f8201527f7265642066756e64696e67000000000000000000000000000000000000000000602082015250565b5f612073602b83611b60565b915061207e82612019565b604082019050919050565b5f6020820190508181035f8301526120a081612067565b9050919050565b7f4e487b71000000000000000000000000000000000000000000000000000000005f52601160045260245ffd5b5f6120de826116d0565b91506120e9836116d0565b92508282026120f7816116d0565b9150828204841483151761210e5761210d6120a7565b5b5092915050565b7f4e487b71000000000000000000000000000000000000000000000000000000005f52601260045260245ffd5b5f61214c826116d0565b9150612157836116d0565b92508261216757612166612115565b5b828204905092915050565b7f616c6c2063616e646964617465206d696e742073697a6573206661696c6564205f8201527f6f6e2d636861696e000000000000000000000000000000000000000000000000602082015250565b5f6121cc602883611b60565b91506121d782612172565b604082019050919050565b5f6020820190508181035f8301526121f9816121c0565b9050919050565b5f61220a826116d0565b9150612215836116d0565b925082820390508181111561222d5761222c6120a7565b5b92915050565b7f6e6574204554482070726f6669742062656c6f77207468726573686f6c6400005f82015250565b5f612267601e83611b60565b915061227282612233565b602082019050919050565b5f6020820190508181035f8301526122948161225b565b9050919050565b7f756e617574686f72697a656420666c6173686c6f616e2063616c6c6261636b005f82015250565b5f6122cf601f83611b60565b91506122da8261229b565b602082019050919050565b5f6020820190508181035f8301526122fc816122c3565b9050919050565b7f756e657870656374656420666c6173686c6f616e2073686170650000000000005f82015250565b5f612337601a83611b60565b915061234282612303565b602082019050919050565b5f6020820190508181035f8301526123648161232b565b9050919050565b7f756e657870656374656420666c6173686c6f616e20746f6b656e0000000000005f82015250565b5f61239f601a83611b60565b91506123aa8261236b565b602082019050919050565b5f6020820190508181035f8301526123cc81612393565b9050919050565b5f6123dd82611676565b9050919050565b6123ed816123d3565b81146123f7575f5ffd5b50565b5f81519050612408816123e4565b92915050565b5f8151905061241c816116d9565b92915050565b5f5f604083850312156124385761243761166e565b5b5f612445858286016123fa565b92505060206124568582860161240e565b9150509250929050565b5f61246a826116d0565b9150612475836116d0565b925082820190508082111561248d5761248c6120a7565b5b92915050565b7f737761702070726f63656564732063616e6e6f7420726570617920666c6173685f8201527f6c6f616e00000000000000000000000000000000000000000000000000000000602082015250565b5f6124ed602483611b60565b91506124f882612493565b604082019050919050565b5f6020820190508181035f83015261251a816124e1565b9050919050565b5f81905092915050565b5f61253582611e06565b61253f8185612521565b935061254f818560208601611e20565b80840191505092915050565b5f612566828461252b565b915081905092915050565b5f602082840312156125865761258561166e565b5b5f6125938482850161240e565b91505092915050565b7f6c697175696420706f6f6c206d697373696e67000000000000000000000000005f82015250565b5f6125d0601383611b60565b91506125db8261259c565b602082019050919050565b5f6020820190508181035f8301526125fd816125c4565b9050919050565b61260d816123d3565b82525050565b5f6020820190506126265f830184612604565b92915050565b5f60408201905061263f5f830185611769565b61264c6020830184611741565b9392505050565b7f6d696e7420706174682070726f6475636564207a65726f206d704554480000005f82015250565b5f612687601d83611b60565b915061269282612653565b602082019050919050565b5f6020820190508181035f8301526126b48161267b565b9050919050565b7f676574416d6f756e744f75742875696e743235362920756e617661696c61626c5f8201527f65206166746572206d696e740000000000000000000000000000000000000000602082015250565b5f612715602c83611b60565b9150612720826126bb565b604082019050919050565b5f6020820190508181035f83015261274281612709565b9050919050565b7f706f73742d6d696e742071756f74652063616e6e6f742072657061792074656d5f8201527f706f72617279206361706974616c000000000000000000000000000000000000602082015250565b5f6127a3602e83611b60565b91506127ae82612749565b604082019050919050565b5f6020820190508181035f8301526127d081612797565b9050919050565b5f819050919050565b5f6127fa6127f56127f0846127d7565b611c2c565b6116d0565b9050919050565b61280a816127e0565b82525050565b5f6040820190506128235f830185611769565b6128306020830184612801565b9392505050565b7f737761702072657475726e6564207a65726f20455448000000000000000000005f82015250565b5f61286b601683611b60565b915061287682612837565b602082019050919050565b5f6020820190508181035f8301526128988161285f565b9050919050565b7f737761702072657475726e206d69736d617463680000000000000000000000005f82015250565b5f6128d3601483611b60565b91506128de8261289f565b602082019050919050565b5f6020820190508181035f830152612900816128c7565b9050919050565b5f8115159050919050565b61291b81612907565b8114612925575f5ffd5b50565b5f8151905061293681612912565b92915050565b5f602082840312156129515761295061166e565b5b5f61295e84828501612928565b91505092915050565b7f7472616e73666572206661696c656400000000000000000000000000000000005f82015250565b5f61299b600f83611b60565b91506129a682612967565b602082019050919050565b5f6020820190508181035f8301526129c88161298f565b9050919050565b7f707265766965774d696e742875696e743235362920756e617661696c61626c655f8201527f206f6e207461726765742070726f787900000000000000000000000000000000602082015250565b5f612a29603083611b60565b9150612a34826129cf565b604082019050919050565b5f6020820190508181035f830152612a5681612a1d565b9050919050565b7f617070726f7665206661696c65640000000000000000000000000000000000005f82015250565b5f612a91600e83611b60565b9150612a9c82612a5d565b602082019050919050565b5f6020820190508181035f830152612abe81612a85565b9050919050565b5f5f60408385031215612adb57612ada61166e565b5b5f612ae88582860161240e565b9250506020612af98582860161240e565b915050925092905056fe608060405261010e806100115f395ff3fe6080604052348015600e575f5ffd5b50600436106026575f3560e01c8063668a2f6714602a575b5f5ffd5b60406004803603810190603c919060b2565b6042565b005b8073ffffffffffffffffffffffffffffffffffffffff16ff5b5f5ffd5b5f73ffffffffffffffffffffffffffffffffffffffff82169050919050565b5f608682605f565b9050919050565b609481607e565b8114609d575f5ffd5b50565b5f8135905060ac81608d565b92915050565b5f6020828403121560c45760c3605b565b5b5f60cf8482850160a0565b9150509291505056fea26469706673582212201d2c3c0ee24eb93d49b3b24c54bb6edf2e489d33163ac3fe974143e9e08de8c964736f6c634300081e0033a2646970667358221220bef8a9d8648a101a32894570370615f7cd39c3394182ab07cac6935cbea975d464736f6c634300081e0033","linkReferences":{}},"methodIdentifiers":{"attemptCandidate(address,uint256)":"1f876380","executeOnOpportunity()":"3c2448ed","profitAmount()":"5ff972cc","profitToken()":"49343624","receiveFlashLoan(address[],uint256[],uint256[],bytes)":"f04f2707"},"id":0}