{"abi":[{"type":"constructor","inputs":[],"stateMutability":"nonpayable"},{"type":"receive","stateMutability":"payable"},{"type":"function","name":"MARKET","inputs":[],"outputs":[{"name":"","type":"address","internalType":"address"}],"stateMutability":"view"},{"type":"function","name":"MAX_TOKEN_ID","inputs":[],"outputs":[{"name":"","type":"uint256","internalType":"uint256"}],"stateMutability":"view"},{"type":"function","name":"MIN_PROFIT_THRESHOLD","inputs":[],"outputs":[{"name":"","type":"uint256","internalType":"uint256"}],"stateMutability":"view"},{"type":"function","name":"PRICE_PER_NFT","inputs":[],"outputs":[{"name":"","type":"uint256","internalType":"uint256"}],"stateMutability":"view"},{"type":"function","name":"STAKE_CREDIT_PER_NFT","inputs":[],"outputs":[{"name":"","type":"uint256","internalType":"uint256"}],"stateMutability":"view"},{"type":"function","name":"acquiredTokenId","inputs":[],"outputs":[{"name":"","type":"uint256","internalType":"uint256"}],"stateMutability":"view"},{"type":"function","name":"executeOnOpportunity","inputs":[],"outputs":[],"stateMutability":"nonpayable"},{"type":"function","name":"fallbackProfitAchieved","inputs":[],"outputs":[{"name":"","type":"bool","internalType":"bool"}],"stateMutability":"view"},{"type":"function","name":"hypothesisValidated","inputs":[],"outputs":[{"name":"","type":"bool","internalType":"bool"}],"stateMutability":"view"},{"type":"function","name":"lastStatus","inputs":[],"outputs":[{"name":"","type":"bytes32","internalType":"bytes32"}],"stateMutability":"view"},{"type":"function","name":"path0_victimStakesNamedNFTIntoSharedPool","inputs":[],"outputs":[{"name":"","type":"bool","internalType":"bool"}],"stateMutability":"view"},{"type":"function","name":"path1_attackerBuysThatSpecificStakedNFTForFixedPrice","inputs":[],"outputs":[{"name":"","type":"bool","internalType":"bool"}],"stateMutability":"view"},{"type":"function","name":"path2_victimLeftOnlyWithFungibleAccountingClaim","inputs":[],"outputs":[{"name":"","type":"bool","internalType":"bool"}],"stateMutability":"view"},{"type":"function","name":"profitAmount","inputs":[],"outputs":[{"name":"","type":"uint256","internalType":"uint256"}],"stateMutability":"view"},{"type":"function","name":"profitToken","inputs":[],"outputs":[{"name":"","type":"address","internalType":"address"}],"stateMutability":"view"},{"type":"function","name":"ruggedBalanceAfter","inputs":[],"outputs":[{"name":"","type":"uint256","internalType":"uint256"}],"stateMutability":"view"},{"type":"function","name":"ruggedBalanceBefore","inputs":[],"outputs":[{"name":"","type":"uint256","internalType":"uint256"}],"stateMutability":"view"},{"type":"function","name":"ruggedSpent","inputs":[],"outputs":[{"name":"","type":"uint256","internalType":"uint256"}],"stateMutability":"view"},{"type":"function","name":"victim","inputs":[],"outputs":[{"name":"","type":"address","internalType":"address"}],"stateMutability":"view"},{"type":"function","name":"victimAccountingClaim","inputs":[],"outputs":[{"name":"","type":"uint256","internalType":"uint256"}],"stateMutability":"view"},{"type":"function","name":"victimStakeObserved","inputs":[],"outputs":[{"name":"","type":"bool","internalType":"bool"}],"stateMutability":"view"},{"type":"function","name":"victimTokenId","inputs":[],"outputs":[{"name":"","type":"uint256","internalType":"uint256"}],"stateMutability":"view"},{"type":"event","name":"AttemptStatus","inputs":[{"name":"status","type":"bytes32","indexed":false,"internalType":"bytes32"},{"name":"tokenId","type":"uint256","indexed":false,"internalType":"uint256"},{"name":"amount","type":"uint256","indexed":false,"internalType":"uint256"}],"anonymous":false}],"bytecode":{"object":"0x608080604052346015576122f7908161001a8239f35b5f80fdfe608080604052600436101561001c575b50361561001a575f80fd5b005b5f3560e01c9081631cf986b5146103de575080631fa8bc18146103c15780632c0be2ff146103a45780633c2448ed1461038c5780634135d2de14610368578063463defd11461034357806347d92d181461031e57806349343624146102f25780635ff972cc146102d55780636da612d8146102b957806374bc5967146102945780637b6729191461027757806391c0a74514610252578063930c200314610226578063a4de304f14610204578063cad41321146101df578063cd40c0a7146101c2578063d3563e52146101a0578063d6d8671214610183578063e002483814610166578063e73d668f146101455763f46f16c21461011a575f61000f565b34610141575f3660031901126101415760206040515f5160206122825f395f51905f528152f35b5f80fd5b34610141575f36600319011261014157602060405166038d7ea4c680008152f35b34610141575f366003190112610141576020600454604051908152f35b34610141575f366003190112610141576020600954604051908152f35b34610141575f366003190112610141576020604051670de0b6b3a76400008152f35b34610141575f366003190112610141576020600754604051908152f35b34610141575f36600319011261014157602060ff60025460301c166040519015158152f35b34610141575f366003190112610141576020604051670f43fc2c04ee00008152f35b34610141575f3660031901126101415760025460405160389190911c6001600160a01b03168152602090f35b34610141575f36600319011261014157602060ff60025460281c166040519015158152f35b34610141575f366003190112610141576020600354604051908152f35b34610141575f36600319011261014157602060ff60025460181c166040519015158152f35b34610141575f3660031901126101415760206040516127108152f35b34610141575f366003190112610141576020600154604051908152f35b34610141575f36600319011261014157602061030c610472565b6040516001600160a01b039091168152f35b34610141575f36600319011261014157602060ff60025460101c166040519015158152f35b34610141575f36600319011261014157602060ff60025460081c166040519015158152f35b34610141575f36600319011261014157602060ff600254821c166040519015158152f35b34610141575f3660031901126101415761001a6103f8565b34610141575f366003190112610141576020600854604051908152f35b34610141575f366003190112610141576020600554604051908152f35b34610141575f366003190112610141576020906006548152f35b60ff600254166104705761040a610522565b6001600160a01b0381169081151580610466575b61043c575b505061042d610c3f565b600160ff196002541617600255565b61045b916bffffffffffffffffffffffff60a01b5f5416175f5561061f565b61042d575f80610423565b50803b151561041e565b565b5f546001600160a01b03168061048b575061048b610522565b90565b90601f8019910116810190811067ffffffffffffffff8211176104b057604052565b634e487b7160e01b5f52604160045260245ffd5b3d156104fe573d9067ffffffffffffffff82116104b057604051916104f3601f8201601f19166020018461048e565b82523d5f602084013e565b606090565b9081602091031261014157516001600160a01b03811681036101415790565b5f8060405160208101906307e03d4160e21b82526004815261054560248261048e565b51905f5160206122825f395f51905f525afa61055f6104c4565b9080610598575b61056f57505f90565b80516001600160a01b039161058c91810160209081019101610503565b16803b61048b57505f90565b50602081511015610566565b8051156105b15760200190565b634e487b7160e01b5f52603260045260245ffd5b60206040818301928281528451809452019201905f5b8181106105e85750505090565b82518452602093840193909201916001016105db565b9190820391821161060b57565b634e487b7160e01b5f52601160045260245ffd5b5f610629826110cb565b906001600160a01b03821615610bc75761064330846111e5565b9261064e8382611225565b908115610b57576002805464ff00ff0000191664010001000017908190556003839055670de0b6b3a7640000906106909060381c6001600160a01b031661139b565b8060055510610adc576106a330826111e5565b80600755670f43fc2c04ee00008110610a6a576106c09082611419565b156109f65760409384516106d4868261048e565b60018152601f198601366020830137836106ed826105a4565b525f5160206122825f395f51905f523b15610141575f61072091875180938192636639406b60e11b8352600483016105c5565b0381835f5160206122825f395f51905f525af180156109ec576109d7575b5030906001600160a01b03906107559085906114a4565b1603610961576002546501000000000065ff0000000000198216178060025583600455670de0b6b3a76400006107bd61078e30866111e5565b9283600855600754848082115f14610959576107a9916105fe565b60065560381c6001600160a01b031661139b565b80600555106108ec5750660101000000010066ffff000000ff001990911617600281905560381c6001600160a01b031680610898575b509160609166038d7ea4c680009561081a5f5160206122a25f395f51905f529530906111e5565b908082111561088d5761082c916105fe565b9485915b826001557fd408ac8632516211f1893cbac9eabdb7291a70b95988c99ebfffeb0d77946be6600955815193507fd408ac8632516211f1893cbac9eabdb7291a70b95988c99ebfffeb0d77946be684526020840152820152a1101590565b505081948591610830565b60208491600487518094819363483ac72760e11b83525af1156107f3579290916020843d6020116108e4575b816108d16020938361048e565b81010312610141579092509060606107f3565b3d91506108c4565b91505060609294505f5160206122a25f395f51905f52937f4f961aa4b98c58fe6f5c7f3cfb9ae0dc0d30fc3f6792efc8a74c071525687b516009558051927f4f961aa4b98c58fe6f5c7f3cfb9ae0dc0d30fc3f6792efc8a74c071525687b5184526020840152820152a190565b5050876107a9565b6060929450926109a45f5160206122a25f395f51905f52947f4d2fc1bb6c1ee82e2c01080d3ce6db06fb0c58fb96388dbd80a20605d42d48ae60095530906111e5565b908051927f4d2fc1bb6c1ee82e2c01080d3ce6db06fb0c58fb96388dbd80a20605d42d48ae84526020840152820152a190565b6109e49194505f9061048e565b5f925f61073e565b86513d5f823e3d90fd5b5090505f5160206122a25f395f51905f529250606091507fcd400c5237ae346977ee020ef8d0d26a880c07edf7eba69a8848f0d31e9a88f2600955600754604051917fcd400c5237ae346977ee020ef8d0d26a880c07edf7eba69a8848f0d31e9a88f2835260208301526040820152a15f90565b919250505f5160206122a25f395f51905f529350606092507f01cc56264ba34e4bac4082b7116bc7bd366e64b14c9455e83d831bffc635287c600955604051917f01cc56264ba34e4bac4082b7116bc7bd366e64b14c9455e83d831bffc635287c835260208301526040820152a15f90565b5f5160206122a25f395f51905f52945060609350610b219192507f6fa063cb4a98a121feb9dca0ef45ef1cac92094d66d76aa046a63e65dad9f18d60095530906111e5565b604051917f6fa063cb4a98a121feb9dca0ef45ef1cac92094d66d76aa046a63e65dad9f18d835260208301526040820152a15f90565b5050505060605f5160206122a25f395f51905f52917fbb419610ecd559c260a37f43f68124e84f8b484da255ba058268842063ebc565600955604051907fbb419610ecd559c260a37f43f68124e84f8b484da255ba058268842063ebc56582525f60208301526040820152a15f90565b50506060610c085f5160206122a25f395f51905f52927f0997bba9161385f79a15ab102dcb93f2a9fb17b99232df2339e373c3c53b648c60095530906111e5565b604051907f0997bba9161385f79a15ab102dcb93f2a9fb17b99232df2339e373c3c53b648c82525f60208301526040820152a15f90565b610c47610522565b5f906001600160a01b031661106157610c5e61151b565b6001600160a01b0381168015610ff557610c778261156e565b15610f80576bffffffffffffffffffffffff60a01b5f5416175f55610c9c30826111e5565b906040918251610cac848261048e565b60018152601f1984013660208301375f610cc5826105a4565b525f5160206122825f395f51905f523b15610141575f610cf8918551809381926307a4524160e11b8352600483016105c5565b0381835f5160206122825f395f51905f525af19081610f6b575b50610d89575091606091610d575f5160206122a25f395f51905f52947f2f80fe1ee923b9cb921cb162383c25c460c57f6553ea38410dfb7d9bca11bb9260095561116b565b908051927f2f80fe1ee923b9cb921cb162383c25c460c57f6553ea38410dfb7d9bca11bb9284526020840152820152a1565b90610d938161116b565b670de0b6b3a7640000811015610f5c57805b66038d7ea4c680008210610ef057505f5160206122825f395f51905f523b15610eec578351906305c2fbcf60e31b825260048201528481602481835f5160206122825f395f51905f525af18015610ee257610ec9575b50915f5160206122a25f395f51905f529391610e1a60609430906111e5565b9080821115610ec057610e2c916105fe565b905b8160015560ff60025463ff00000066038d7ea4c6800085101560181b169063ff0000001916178060025560181c165f14610e99577fed3d667c66db578907e46df5c08e8864c507480e529ff4ae027d8ebe9ec1ceb3925b8360095581519384526020840152820152a1565b7fcf02f4f16f3db1b49727b6474b990603938e4dac62139c54aa1f4fa09f21210692610e85565b50508190610e2e565b610ed485809261048e565b610ede575f610dfb565b8380fd5b84513d87823e3d90fd5b8480fd5b9150505f5160206122a25f395f51905f529391506060927fed332b228aac702eab62cbecbbfcd749fc67f2f50b0d0a285b4a4d5d83de29e76009558051927fed332b228aac702eab62cbecbbfcd749fc67f2f50b0d0a285b4a4d5d83de29e784526020840152820152a1565b670de0b6b3a764000090610da5565b610f789195505f9061048e565b5f935f610d12565b505f5160206122a25f395f51905f529150610fc06060917fbdabcd50db31057e02473068418aefd9c6e38d4dbccdf1617b81afb93945afb360095561116b565b604051907fbdabcd50db31057e02473068418aefd9c6e38d4dbccdf1617b81afb93945afb382525f60208301526040820152a1565b5050507f0b554b52c9d31437c0009db5136d90af9b4cf66d1849c242520ae8947a03bec86009555f5160206122a25f395f51905f5260606040517f0b554b52c9d31437c0009db5136d90af9b4cf66d1849c242520ae8947a03bec881525f60208201525f6040820152a1565b507f426f179494c348e9cfd4045485bbb19535a288130e84f3c67c49dc4bb0e5e17d6009555f5160206122a25f395f51905f5260606040517f426f179494c348e9cfd4045485bbb19535a288130e84f3c67c49dc4bb0e5e17d81525f60208201525f6040820152a1565b803b1561114b576110db816115dc565b61048b575f809160405160208101906313bd07bf60e21b82526004815261110360248261048e565b51915afa61110f6104c4565b90158015611160575b61114b5780516001600160a01b039161113991810160209081019101610503565b16803b158015611150575b61114b5790565b505f90565b5061115a816115dc565b15611144565b506020815110611118565b803b1561114b575f809160405160208101906370a0823160e01b82525f5160206122825f395f51905f526024820152602481526111a960448261048e565b51915afa6111b56104c4565b901580156111da575b61114b5760208151918180820193849201010312610141575190565b5060208151106111be565b90813b1561121f575f91829160405160208101916370a0823160e01b835260018060a01b03166024820152602481526111a960448261048e565b50505f90565b905f906112323082611674565b928315611389575b831561138157604051906108ab80830183811067ffffffffffffffff8211176104b05760809284926119d784395f5160206122825f395f51905f5282526001600160a01b039081166020830152851660408201523060608201520301905ff080156113765760028054670100000000000000600160d81b031916603883811b670100000000000000600160d81b031691909117918290556001600160a01b03928316926112ec9287921c1630856117b5565b1561138157803b15610141575f8091602460405180948193633dc3533760e11b83528960048401525af1801561137657611354575b505f5160206122825f395f51905f52906001600160a01b03906113459085906114a4565b160361134f575090565b905090565b6113619192505f9061048e565b5f905f5160206122825f395f51905f52611321565b6040513d5f823e3d90fd5b505050505f90565b925061139581846116bb565b9261123a565b6001600160a01b0316801561114b575f809160405160208101916348b4573960e11b83526024820152602481526113d360448261048e565b51905f5160206122825f395f51905f525afa6113ed6104c4565b9015801561140e575b61114b57604081805181010312610141576020015190565b5060408151106113f6565b90813b1561121f575f91829182604051602081019263095ea7b360e01b84525f5160206122825f395f51905f52602483015260448201526044815261145f60648261048e565b51925af161146b6104c4565b81611474575090565b805180159250821561148557505090565b8192509060209181010312610141576020015180151581036101415790565b90813b1561121f575f91829160405160208101916331a9108f60e11b83526024820152602481526114d660448261048e565b51915afa6114e26104c4565b90158015611510575b61114b5780516001600160a01b039161150c91810160209081019101610503565b1690565b5060208151106114eb565b5f905f5f5b600e811061153d575066038d7ea4c680001161153857565b5f9150565b61154681611815565b61154f8161116b565b838111611561575b5050600101611520565b909450915060015f611557565b60405163189acdbd60e31b602082019081526001600160a01b0390921660248083018290528252915f918291906115a660448261048e565b5190825f5160206122825f395f51905f525af16115c16104c4565b501561114b576001600160a01b036115d7610522565b161490565b5f809160405160208101906331a9108f60e11b8252600160248201526024815261160760448261048e565b51915afa6116136104c4565b8161161c575090565b6020915051101590565b9060015b61271081111561163a57505f9150565b5f5160206122825f395f51905f526001600160a01b0361165a83866114a4565b1614611670575f19811461060b5760010161162a565b9150565b919060015b61271081111561168a57505f925050565b61169481856114a4565b6001600160a01b038381169116146116b6575f19811461060b57600101611679565b925050565b905f906116c781611626565b928315611381576116d830826111e5565b670f43fc2c04ee000081106117ac576116f091611419565b156117a5576040805190611704818361048e565b60018252601f1981013660208401378461171d836105a4565b525f5160206122825f395f51905f523b15610141575f61175092825180948192636639406b60e11b8352600483016105c5565b0381835f5160206122825f395f51905f525af190811561179c5750611787575b5030906001600160a01b03906113459085906114a4565b6117949192505f9061048e565b5f905f611770565b513d5f823e3d90fd5b5050505f90565b50505050505f90565b90813b15611381576040516323b872dd60e01b602082019081526001600160a01b0392831660248301529190931660448401526064808401949094529282525f928392839061180560848261048e565b51925af16118116104c4565b5090565b80156119bd57600181146119a4576002811461198b5760038114611972576004811461195957600581146119405760068114611927576007811461190e57600881146118f557600981146118dc57600a81146118c357600b81146118aa57600c1461189257736982508145454ce325ddbe47a25d4ec3d231193390565b7395ad61b0a150d79219dcf64e1e6cc01f0b64c4ce90565b5073c011a72400e58ecd99ee497cf89e3775d4bd732f90565b50736b3595068778dd592e39a122f4f5a5cf09c90fe290565b5073c18360217d8f7ab5e7c516566761ea12ce7f9d7290565b50739f8f72aa9304c8b593d555f12ef6589cc3a579a290565b5073c00e94cb662c3520282e6f5717214004a7f2688890565b5073d533a949740bb3306d119cc777fa900ba034cd5290565b50735a98fcbea516cf06857215779fd812ca3bef1b3290565b50737fc66500c84a76ad7e9c93437bfc5ac33e2ddae990565b50731f9840a85d5af5bf1d1762f925bdaddc4201f98490565b5073514910771af9ca656af840dff83e8264ecf986ca90565b50736b175474e89094c44da98b954eedeac495271d0f90565b5073c02aaa39b223fe8d0a0e5c4f27ead9083c756cc29056fe610100346100e257601f6108ab38819003918201601f19168301916001600160401b038311848410176100e6578084926080946040528339810103126100e257610048816100fa565b90610055602082016100fa565b61006d6060610066604085016100fa565b93016100fa565b9260805260a05260c05260e05260405161079c908161010f8239608051818181607101528181610184015281816103e20152610698015260a05181818160fe015281816101cf0152610434015260c0518181816103680152610409015260e05181818160b90152818161014001526103b20152f35b5f80fd5b634e487b7160e01b5f52604160045260245ffd5b51906001600160a01b03821682036100e25756fe60806040526004361015610011575f80fd5b5f5f3560e01c80637b86a66e146103975780637c0b8de21461035257806390758e4e1461012d578063dd45af8d146100e8578063ee0fc121146100a35763f46f16c21461005c575f80fd5b346100a057806003193601126100a0576040517f00000000000000000000000000000000000000000000000000000000000000006001600160a01b03168152602090f35b80fd5b50346100a057806003193601126100a0576040517f00000000000000000000000000000000000000000000000000000000000000006001600160a01b03168152602090f35b50346100a057806003193601126100a0576040517f00000000000000000000000000000000000000000000000000000000000000006001600160a01b03168152602090f35b50346100a057806003193601126100a0577f00000000000000000000000000000000000000000000000000000000000000009080610175336001600160a01b03851614610520565b60405163b88a802f60e01b81527f00000000000000000000000000000000000000000000000000000000000000006001600160a01b03169060208160048186865af161031f575b506101c561066b565b806102da575b50507f00000000000000000000000000000000000000000000000000000000000000006101f830826106f2565b938461020a575b602084604051908152f35b60405163a9059cbb60e01b602082019081526001600160a01b039092166024820152604481018690529293508392839061025181606481015b03601f19810183528261055e565b51925af161025d610594565b816102ab575b5015610274576020905f80806101ff565b60405162461bcd60e51b815260206004820152600f60248201526e1514905394d1915497d19052531151608a1b6044820152606490fd5b80518015925082156102c0575b50505f610263565b6102d392506020809183010191016105d3565b5f806102b8565b813b1561031b578280926024829360405194859384926305c2fbcf60e31b845260048401525af1156101cb57816103109161055e565b6100a057805f6101cb565b8280fd5b6020813d60201161034a575b816103386020938361055e565b8101031261034657516101bc565b5f80fd5b3d915061032b565b50346100a057806003193601126100a0576040517f00000000000000000000000000000000000000000000000000000000000000006001600160a01b03168152602090f35b5034610346576020366003190112610346576004356103e0337f00000000000000000000000000000000000000000000000000000000000000006001600160a01b031614610520565b7f00000000000000000000000000000000000000000000000000000000000000009061042d81837f00000000000000000000000000000000000000000000000000000000000000006105eb565b61045881837f00000000000000000000000000000000000000000000000000000000000000006105eb565b604090815192610468838561055e565b600184526020840191601f19840136843784511561050c5782526001600160a01b031690813b156103465782516307a4524160e11b815260206004820152935160248501819052849160448301915f5b8181106104f35750505091815f81819503925af19081156104ea57506104dc575080f35b6104e891505f9061055e565b005b513d5f823e3d90fd5b82518452879450602093840193909201916001016104b8565b634e487b7160e01b5f52603260045260245ffd5b1561052757565b60405162461bcd60e51b815260206004820152600f60248201526e27a7262cafa1a7a72a2927a62622a960891b6044820152606490fd5b90601f8019910116810190811067ffffffffffffffff82111761058057604052565b634e487b7160e01b5f52604160045260245ffd5b3d156105ce573d9067ffffffffffffffff821161058057604051916105c3601f8201601f19166020018461055e565b82523d5f602084013e565b606090565b90816020910312610346575180151581036103465790565b919091803b156106665760405163095ea7b360e01b602082019081526001600160a01b03909416602482015260448101929092525f92839283906106328160648101610243565b51925af161063e610594565b906106465750565b80519081610652575050565b6020806106639383010191016105d3565b50565b505050565b5f8060405160208101906348b4573960e11b82523060248201526024815261069460448261055e565b51907f00000000000000000000000000000000000000000000000000000000000000005afa6106c1610594565b901580156106e7575b6106e257604081805181010312610346576020015190565b505f90565b5060408151106106ca565b6040516370a0823160e01b602082019081526001600160a01b0390931660248083019190915281525f9283929161072a60448261055e565b51915afa610736610594565b9015801561075b575b6106e25760208151918180820193849201010312610346575190565b50602081511061073f56fea2646970667358221220560f8606cef5bc4f401e8a6182405014943e5b217b1d6dd1b3a4e12ed05ddf0f64736f6c634300081e0033000000000000000000000000fe380fe1db07e531e3519b9ae3ea9f7888ce20c6a66770e5c628a7546f0c6d5076f20b4e1ef5a04b9dabb34a78bf70d249b9b60ba2646970667358221220fd01547bf548c9089d72eac5ae6775af4a45c6fc4ef0d4e655c1e86cb0d7a27c64736f6c634300081e0033","linkReferences":{}},"methodIdentifiers":{"MARKET()":"f46f16c2","MAX_TOKEN_ID()":"6da612d8","MIN_PROFIT_THRESHOLD()":"e73d668f","PRICE_PER_NFT()":"a4de304f","STAKE_CREDIT_PER_NFT()":"d3563e52","acquiredTokenId()":"e0024838","executeOnOpportunity()":"3c2448ed","fallbackProfitAchieved()":"74bc5967","hypothesisValidated()":"463defd1","lastStatus()":"d6d86712","path0_victimStakesNamedNFTIntoSharedPool()":"4135d2de","path1_attackerBuysThatSpecificStakedNFTForFixedPrice()":"91c0a745","path2_victimLeftOnlyWithFungibleAccountingClaim()":"cad41321","profitAmount()":"5ff972cc","profitToken()":"49343624","ruggedBalanceAfter()":"2c0be2ff","ruggedBalanceBefore()":"cd40c0a7","ruggedSpent()":"1cf986b5","victim()":"930c2003","victimAccountingClaim()":"1fa8bc18","victimStakeObserved()":"47d92d18","victimTokenId()":"7b672919"},"id":0}