{"abi":[{"type":"constructor","inputs":[],"stateMutability":"nonpayable"},{"type":"function","name":"executeOnOpportunity","inputs":[],"outputs":[],"stateMutability":"nonpayable"},{"type":"function","name":"hypothesisValidated","inputs":[],"outputs":[{"name":"","type":"bool","internalType":"bool"}],"stateMutability":"view"},{"type":"function","name":"lastFailureReason","inputs":[],"outputs":[{"name":"","type":"string","internalType":"string"}],"stateMutability":"view"},{"type":"function","name":"onERC721Received","inputs":[{"name":"","type":"address","internalType":"address"},{"name":"","type":"address","internalType":"address"},{"name":"","type":"uint256","internalType":"uint256"},{"name":"","type":"bytes","internalType":"bytes"}],"outputs":[{"name":"","type":"bytes4","internalType":"bytes4"}],"stateMutability":"pure"},{"type":"function","name":"pathExecuted","inputs":[],"outputs":[{"name":"","type":"bool","internalType":"bool"}],"stateMutability":"view"},{"type":"function","name":"pathInfeasible","inputs":[],"outputs":[{"name":"","type":"bool","internalType":"bool"}],"stateMutability":"view"},{"type":"function","name":"profitAmount","inputs":[],"outputs":[{"name":"","type":"uint256","internalType":"uint256"}],"stateMutability":"view"},{"type":"function","name":"profitToken","inputs":[],"outputs":[{"name":"","type":"address","internalType":"address"}],"stateMutability":"view"}],"bytecode":{"object":"0x608080604052346024575f80546001600160a01b0319169055610d3090816100298239f35b5f80fdfe6080806040526004361015610012575f80fd5b5f3560e01c90816309584243146101b357508063150b7a02146101425780633c2448ed14610128578063463defd11461010657806349343624146100df57806358c5084a146100ba5780635ff972cc1461009d5763995cade614610074575f80fd5b34610099575f36600319011261009957602060ff60025460101c166040519015158152f35b5f80fd5b34610099575f366003190112610099576020600154604051908152f35b34610099575f36600319011261009957602060ff60025460081c166040519015158152f35b34610099575f366003190112610099575f546040516001600160a01b039091168152602090f35b34610099575f36600319011261009957602060ff600254166040519015158152f35b34610099575f36600319011261009957610140610408565b005b346100995760803660031901126100995761015b6102fc565b50610164610312565b5060643567ffffffffffffffff8111610099573660238201121561009957806004013567ffffffffffffffff8111610099573691016024011161009957604051630a85bd0160e11b8152602090f35b34610099575f36600319011261009957600354905f6101d18361028e565b8083526020830193600181169081156102735750600114610228575b50906101fd8160409303826102c6565b8151928391602083525180918160208501528484015e5f828201840152601f01601f19168101030190f35b91905060035f525f516020610cdb5f395f51905f52915f905b808210610259575090915081016020016101fd6101ed565b919260018160209254838588010152019101909291610241565b60ff1916855250151560051b820160200190506101fd6101ed565b90600182811c921680156102bc575b60208310146102a857565b634e487b7160e01b5f52602260045260245ffd5b91607f169161029d565b90601f8019910116810190811067ffffffffffffffff8211176102e857604052565b634e487b7160e01b5f52604160045260245ffd5b600435906001600160a01b038216820361009957565b602435906001600160a01b038216820361009957565b818110610333575050565b5f8155600101610328565b601f81116103495750565b60035f5261036e90601f0160051c5f516020610cdb5f395f51905f5290810190610328565b565b9190820391821161037d57565b634e487b7160e01b5f52601160045260245ffd5b5f60443d106103f7576040513d600319016004823e8051913d602484011167ffffffffffffffff841117610402578282019283519167ffffffffffffffff83116103fa573d840160031901858401602001116103fa57506103f7929101602001906102c6565b90565b949350505050565b92915050565b5f6bffffffffffffffffffffffff60a01b5f54165f555f60015562ffffff196002541660025561043960035461028e565b601f8111610caf575b505f600355604051634b6406d160e01b815260208160048173b84cbaf116eb90fd445dd5aeadfab3e807d2cbac5afa908115610c3e575f91610c7d575b5060405163669949ef60e11b81529060208260048173b84cbaf116eb90fd445dd5aeadfab3e807d2cbac5afa918215610c3e575f92610c49575b506040516318160ddd60e01b81529160208360048173b84cbaf116eb90fd445dd5aeadfab3e807d2cbac5afa928315610c3e575f93610c0a575b5080821115610bc65761050591610370565b80821015610b1a579061051791610370565b9060018211610b08575b602060405161053082826102c6565b8281525f3681376040516370a0823160e01b815230600482015290828260248173b84cbaf116eb90fd445dd5aeadfab3e807d2cbac5afa918215610afd578492610ace575b506040516358c3de9360e11b8152838160048173b84cbaf116eb90fd445dd5aeadfab3e807d2cbac5afa908115610ac3578591610a89575b50610a395773b84cbaf116eb90fd445dd5aeadfab3e807d2cbac3b15610a1b57604051906307da54df60e51b82528482604481016040600483015283518091528660648301940190835b88828210610a1f575050505080829389602483015203818373b84cbaf116eb90fd445dd5aeadfab3e807d2cbac5af19182610a06575b505061088d575060018260033d1161087d575b6308c379a014610735575b6106c4575b505b60ff60025416610660575050565b73c02aaa39b223fe8d0a0e5c4f27ead9083c756cc26bffffffffffffffffffffffff60a01b82541617815566038d7ea4c6800082029180830466038d7ea4c6800014901517156106b05750600155565b634e487b7160e01b81526011600452602490fd5b6201000062ff00001960025416176002556106e060035461028e565b601f8111610715575b50507f77686974656c697374206d696e7420726576657274656400000000000000002e6003555f610650565b601f61072e92600385528420910160051c810190610328565b5f806106e9565b61073d610391565b80610749575b5061064b565b6002805462ff000019166201000017905580518492509067ffffffffffffffff821161086957819061077c60035461028e565b601f811161082f575b508490601f83116001146107c05786926107b5575b50508160011b915f199060031b1c1916176003555b5f610743565b015190505f8061079a565b600387525f516020610cdb5f395f51905f529250601f198416875b87828210610819575050908460019594939210610801575b505050811b016003556107af565b01515f1960f88460031b161c191690555f80806107f3565b60018596829396860151815501950193016107db565b6108599060038852868820601f850160051c81019188861061085f575b601f0160051c0190610328565b5f610785565b909150819061084c565b634e487b7160e01b85526041600452602485fd5b50600483803e825160e01c610640565b6040516370a0823160e01b815230600482015291935090838160248173b84cbaf116eb90fd445dd5aeadfab3e807d2cbac5afa9081156109fb5783916109ce575b5081811161098a5750506003916201000062ff00001960025416176002556108f6835461028e565b601f8111610968575b505060558255527f6d696e742072657475726e656420776974686f7574204e46542062616c616e635f516020610cdb5f395f51905f5255696520696e63726561736560b01b7fc2575a0e9e593c00f959f8c92f12db2869c3395a3b0502d05e2516446f71f85c55565b6002601f610983938686528520920160051c82019101610328565b5f806108ff565b6002805461ff00191661010017905582546001600160a01b03191673b84cbaf116eb90fd445dd5aeadfab3e807d2cbac179092556109c9925090610370565b600155565b90508381813d83116109f4575b6109e581836102c6565b8101031261009957515f6108ce565b503d6109db565b6040513d85823e3d90fd5b81610a10916102c6565b610a1b57835f61062d565b8380fd5b83518752958601958a9550879450909201916001016105f7565b5050506201000062ff0000196002541617600255610a60610a5b60035461028e565b61033e565b7f6d696e74696e672070617573656420617420666f726b20737461746500000038600355610652565b90508381813d8311610abc575b610aa081836102c6565b81010312610ab857518015158103610ab8575f6105ad565b8480fd5b503d610a96565b6040513d87823e3d90fd5b9091508281813d8311610af6575b610ae681836102c6565b810103126100995751905f610575565b503d610adc565b6040513d86823e3d90fd5b600160ff196002541617600255610521565b50506003906201000062ff0000196002541617600255610b3a825461028e565b601f8111610ba4575b5060478255527f7075626c696320616c6c6f636174696f6e20616c7265616479206578686175735f516020610cdb5f395f51905f5255621d195960ea1b7fc2575a0e9e593c00f959f8c92f12db2869c3395a3b0502d05e2516446f71f85c55565b82825260208220610bc091601f0160051c810190600201610328565b5f610b43565b505050506201000062ff0000196002541617600255610be45f61033e565b7f7265736572766520636f6e73756d65732066756c6c20737570706c7900000038600355565b9092506020813d602011610c36575b81610c26602093836102c6565b810103126100995751915f6104f3565b3d9150610c19565b6040513d5f823e3d90fd5b9091506020813d602011610c75575b81610c65602093836102c6565b810103126100995751905f6104b9565b3d9150610c58565b90506020813d602011610ca7575b81610c98602093836102c6565b8101031261009957515f61047f565b3d9150610c8b565b60035f52610cd490601f0160051c5f516020610cdb5f395f51905f5290810190610328565b5f61044256fec2575a0e9e593c00f959f8c92f12db2869c3395a3b0502d05e2516446f71f85ba2646970667358221220965e48cbcec2a2c986e5294fcf53843fe7d81c81690c22eaa674c8980fc144d264736f6c634300081e0033","linkReferences":{}},"methodIdentifiers":{"executeOnOpportunity()":"3c2448ed","hypothesisValidated()":"463defd1","lastFailureReason()":"09584243","onERC721Received(address,address,uint256,bytes)":"150b7a02","pathExecuted()":"58c5084a","pathInfeasible()":"995cade6","profitAmount()":"5ff972cc","profitToken()":"49343624"},"id":0}