{"abi":[{"type":"constructor","inputs":[],"stateMutability":"nonpayable"},{"type":"function","name":"_loadLiveMetadata","inputs":[],"outputs":[{"name":"liveBento","type":"address","internalType":"address"},{"name":"liveCollateral","type":"address","internalType":"address"}],"stateMutability":"view"},{"type":"function","name":"activePair","inputs":[],"outputs":[{"name":"","type":"address","internalType":"address"}],"stateMutability":"view"},{"type":"function","name":"activeRouter","inputs":[],"outputs":[{"name":"","type":"address","internalType":"address"}],"stateMutability":"view"},{"type":"function","name":"bentoBoxAddress","inputs":[],"outputs":[{"name":"","type":"address","internalType":"address"}],"stateMutability":"view"},{"type":"function","name":"borrowedAmount","inputs":[],"outputs":[{"name":"","type":"uint256","internalType":"uint256"}],"stateMutability":"view"},{"type":"function","name":"collateralToken","inputs":[],"outputs":[{"name":"","type":"address","internalType":"address"}],"stateMutability":"view"},{"type":"function","name":"deployedClone","inputs":[],"outputs":[{"name":"","type":"address","internalType":"address"}],"stateMutability":"view"},{"type":"function","name":"executeOnOpportunity","inputs":[],"outputs":[],"stateMutability":"nonpayable"},{"type":"function","name":"hypothesisValidated","inputs":[],"outputs":[{"name":"","type":"bool","internalType":"bool"}],"stateMutability":"view"},{"type":"function","name":"profitAmount","inputs":[],"outputs":[{"name":"","type":"uint256","internalType":"uint256"}],"stateMutability":"view"},{"type":"function","name":"profitToken","inputs":[],"outputs":[{"name":"","type":"address","internalType":"address"}],"stateMutability":"pure"},{"type":"function","name":"receiveFlashLoan","inputs":[{"name":"tokens","type":"address[]","internalType":"contract IERC20Minimal[]"},{"name":"amounts","type":"uint256[]","internalType":"uint256[]"},{"name":"feeAmounts","type":"uint256[]","internalType":"uint256[]"},{"name":"","type":"bytes","internalType":"bytes"}],"outputs":[],"stateMutability":"nonpayable"},{"type":"function","name":"removedCollateralAmount","inputs":[],"outputs":[{"name":"","type":"uint256","internalType":"uint256"}],"stateMutability":"view"},{"type":"function","name":"uniswapV2Call","inputs":[{"name":"sender","type":"address","internalType":"address"},{"name":"amount0","type":"uint256","internalType":"uint256"},{"name":"amount1","type":"uint256","internalType":"uint256"},{"name":"","type":"bytes","internalType":"bytes"}],"outputs":[],"stateMutability":"nonpayable"},{"type":"function","name":"usedFlashLoan","inputs":[],"outputs":[{"name":"","type":"bool","internalType":"bool"}],"stateMutability":"view"},{"type":"function","name":"withdrawnAmount","inputs":[],"outputs":[{"name":"","type":"uint256","internalType":"uint256"}],"stateMutability":"view"},{"type":"function","name":"zeroRatePersistsAfterUpdate","inputs":[],"outputs":[{"name":"","type":"bool","internalType":"bool"}],"stateMutability":"view"},{"type":"error","name":"FlashLoanUnsupported","inputs":[]},{"type":"error","name":"FlashRepaymentShortfall","inputs":[{"name":"required","type":"uint256","internalType":"uint256"},{"name":"available","type":"uint256","internalType":"uint256"}]},{"type":"error","name":"NoCollateralAdded","inputs":[]},{"type":"error","name":"NoDebtRecorded","inputs":[]},{"type":"error","name":"NoTargetLiquidity","inputs":[]},{"type":"error","name":"OnlyBalancerVault","inputs":[]},{"type":"error","name":"UnexpectedFlashPair","inputs":[{"name":"caller","type":"address","internalType":"address"}]},{"type":"error","name":"UnexpectedFlashSender","inputs":[{"name":"sender","type":"address","internalType":"address"}]},{"type":"error","name":"UnsupportedFlashswap","inputs":[]},{"type":"error","name":"ZeroRateNotObserved","inputs":[]}],"bytecode":{"object":"0x6080604052348015600e575f5ffd5b506180fc8061001c5f395ff3fe608060405234801561000f575f5ffd5b5060043610610109575f3560e01c80636768dc63116100a0578063cbe855881161006f578063cbe8558814610260578063d22d7adb1461027e578063eb77ff0f1461029c578063efb8eed1146102ba578063f04f2707146102d857610109565b80636768dc63146101e8578063830de4b11461020657806392dfc01514610224578063b2016bd41461024257610109565b80633c2448ed116100dc5780633c2448ed14610184578063463defd11461018e57806349343624146101ac5780635ff972cc146101ca57610109565b806302fae74d1461010d57806309cebe001461012c57806310d1e85c1461014a5780631afbb7a414610166575b5f5ffd5b6101156102f4565b6040516101239291906151ae565b60405180910390f35b610134610753565b60405161014191906151ef565b60405180910390f35b610164600480360381019061015f91906152d7565b610766565b005b61016e610fbf565b60405161017b919061536a565b60405180910390f35b61018c610fc5565b005b610196611085565b6040516101a391906151ef565b60405180910390f35b6101b4611096565b6040516101c19190615383565b60405180910390f35b6101d26110b1565b6040516101df919061536a565b60405180910390f35b6101f06110b9565b6040516101fd919061536a565b60405180910390f35b61020e6110bf565b60405161021b919061536a565b60405180910390f35b61022c6110c5565b60405161023991906151ef565b60405180910390f35b61024a6110d8565b6040516102579190615383565b60405180910390f35b6102686110fd565b6040516102759190615383565b60405180910390f35b610286611122565b6040516102939190615383565b60405180910390f35b6102a4611147565b6040516102b19190615383565b60405180910390f35b6102c261116d565b6040516102cf9190615383565b60405180910390f35b6102f260048036038101906102ed919061568f565b611192565b005b5f5f3073ffffffffffffffffffffffffffffffffffffffff163373ffffffffffffffffffffffffffffffffffffffff1614610364576040517f08c379a000000000000000000000000000000000000000000000000000000000815260040161035b906157bd565b60405180910390fd5b5f73bb02a884621fb8f5bfd263a67f58b65df5b090f390505f5f73bb02a884621fb8f5bfd263a67f58b65df5b090f373ffffffffffffffffffffffffffffffffffffffff166040516024016040516020818303038152906040527f9b352ae1000000000000000000000000000000000000000000000000000000007bffffffffffffffffffffffffffffffffffffffffffffffffffffffff19166020820180517bffffffffffffffffffffffffffffffffffffffffffffffffffffffff8381831617835250505050604051610439919061582d565b5f60405180830381855afa9150503d805f8114610471576040519150601f19603f3d011682016040523d82523d5f602084013e610476565b606091505b5091509150811580610489575060208151105b806104e757507399d8a9c45b2eca8864373a26d1459e3dff1e17f373ffffffffffffffffffffffffffffffffffffffff16818060200190518101906104ce919061587e565b73ffffffffffffffffffffffffffffffffffffffff1614155b156104f0575f5ffd5b5f5f73bb02a884621fb8f5bfd263a67f58b65df5b090f373ffffffffffffffffffffffffffffffffffffffff166040516024016040516020818303038152906040527f6b2ace87000000000000000000000000000000000000000000000000000000007bffffffffffffffffffffffffffffffffffffffffffffffffffffffff19166020820180517bffffffffffffffffffffffffffffffffffffffffffffffffffffffff83818316178352505050506040516105ad919061582d565b5f60405180830381855afa9150503d805f81146105e5576040519150601f19603f3d011682016040523d82523d5f602084013e6105ea565b606091505b50915091508115806105fd575060208151105b15610606575f5ffd5b8080602001905181019061061a919061587e565b96505f5f73bb02a884621fb8f5bfd263a67f58b65df5b090f373ffffffffffffffffffffffffffffffffffffffff166040516024016040516020818303038152906040527fd8dfeb45000000000000000000000000000000000000000000000000000000007bffffffffffffffffffffffffffffffffffffffffffffffffffffffff19166020820180517bffffffffffffffffffffffffffffffffffffffffffffffffffffffff83818316178352505050506040516106d9919061582d565b5f60405180830381855afa9150503d805f8114610711576040519150601f19603f3d011682016040523d82523d5f602084013e610716565b606091505b5091509150811580610729575060208151105b15610732575f5ffd5b80806020019051810190610746919061587e565b9750505050505050509091565b600160039054906101000a900460ff1681565b60035f9054906101000a900473ffffffffffffffffffffffffffffffffffffffff1673ffffffffffffffffffffffffffffffffffffffff163373ffffffffffffffffffffffffffffffffffffffff16146107f757336040517fed74b3330000000000000000000000000000000000000000000000000000000081526004016107ee9190615383565b60405180910390fd5b3073ffffffffffffffffffffffffffffffffffffffff168573ffffffffffffffffffffffffffffffffffffffff161461086757846040517f78ab05ff00000000000000000000000000000000000000000000000000000000815260040161085e9190615383565b60405180910390fd5b600160ff1660015f9054906101000a900460ff1660ff16146108b5576040517f163f9c8a00000000000000000000000000000000000000000000000000000000815260040160405180910390fd5b5f5f85116108c357836108c5565b845b90505f8103610900576040517f163f9c8a00000000000000000000000000000000000000000000000000000000815260040160405180910390fd5b5f73bb02a884621fb8f5bfd263a67f58b65df5b090f390505f600160049054906101000a900473ffffffffffffffffffffffffffffffffffffffff1690505f8273ffffffffffffffffffffffffffffffffffffffff16633ba0b9a96040518163ffffffff1660e01b8152600401602060405180830381865afa158015610988573d5f5f3e3d5ffd5b505050506040513d601f19601f820116820180604052508101906109ac91906158bd565b146109e3576040517fee9e413e00000000000000000000000000000000000000000000000000000000815260040160405180910390fd5b5f610a0f8260025f9054906101000a900473ffffffffffffffffffffffffffffffffffffffff16611918565b9050610a1a816119aa565b5f610a4660025f9054906101000a900473ffffffffffffffffffffffffffffffffffffffff1630611fc3565b9050610a9660025f9054906101000a900473ffffffffffffffffffffffffffffffffffffffff16600160049054906101000a900473ffffffffffffffffffffffffffffffffffffffff16836120d5565b5f8373ffffffffffffffffffffffffffffffffffffffff166302b9446c60025f9054906101000a900473ffffffffffffffffffffffffffffffffffffffff163030865f6040518663ffffffff1660e01b8152600401610af995949392919061597c565b60408051808303815f875af1158015610b14573d5f5f3e3d5ffd5b505050506040513d601f19601f82011682018060405250810190610b3891906159cd565b9150505f8103610b74576040517f87a2632500000000000000000000000000000000000000000000000000000000815260040160405180910390fd5b8473ffffffffffffffffffffffffffffffffffffffff1663860ffea1305f846040518463ffffffff1660e01b8152600401610bb193929190615a0b565b5f604051808303815f87803b158015610bc8575f5ffd5b505af1158015610bda573d5f5f3e3d5ffd5b50505050808573ffffffffffffffffffffffffffffffffffffffff16631c9e379b306040518263ffffffff1660e01b8152600401610c189190615383565b602060405180830381865afa158015610c33573d5f5f3e3d5ffd5b505050506040513d601f19601f82011682018060405250810190610c5791906158bd565b1015610c8f576040517f87a2632500000000000000000000000000000000000000000000000000000000815260040160405180910390fd5b610d3b85858673ffffffffffffffffffffffffffffffffffffffff1663f7888aec7399d8a9c45b2eca8864373a26d1459e3dff1e17f373bb02a884621fb8f5bfd263a67f58b65df5b090f36040518363ffffffff1660e01b8152600401610cf7929190615a40565b602060405180830381865afa158015610d12573d5f5f3e3d5ffd5b505050506040513d601f19601f82011682018060405250810190610d3691906158bd565b612123565b8473ffffffffffffffffffffffffffffffffffffffff1663876467f830836040518363ffffffff1660e01b8152600401610d76929190615a67565b5f604051808303815f87803b158015610d8d575f5ffd5b505af1158015610d9f573d5f5f3e3d5ffd5b505050508373ffffffffffffffffffffffffffffffffffffffff16635662311860025f9054906101000a900473ffffffffffffffffffffffffffffffffffffffff16835f6040518463ffffffff1660e01b8152600401610e0193929190615a8e565b602060405180830381865afa158015610e1c573d5f5f3e3d5ffd5b505050506040513d601f19601f82011682018060405250810190610e4091906158bd565b6008819055508373ffffffffffffffffffffffffffffffffffffffff166397da6d3060025f9054906101000a900473ffffffffffffffffffffffffffffffffffffffff1630305f866040518663ffffffff1660e01b8152600401610ea8959493929190615ac3565b60408051808303815f875af1158015610ec3573d5f5f3e3d5ffd5b505050506040513d601f19601f82011682018060405250810190610ee791906159cd565b5050610ef1612458565b610efa84612a63565b610f0385612bb1565b5f610f0d87612cdf565b90505f610f2e7399d8a9c45b2eca8864373a26d1459e3dff1e17f330611fc3565b905081811015610f775781816040517fdde274b0000000000000000000000000000000000000000000000000000000008152600401610f6e929190615b14565b60405180910390fd5b610f967399d8a9c45b2eca8864373a26d1459e3dff1e17f33384612d0e565b60018060016101000a81548160ff02191690831515021790555050505050505050505050505050565b60065481565b610fcd612e5d565b5f610fec7399d8a9c45b2eca8864373a26d1459e3dff1e17f330611fc3565b9050610ff6613036565b1561103d575f61101a7399d8a9c45b2eca8864373a26d1459e3dff1e17f330611fc3565b9050818111156110365781816110309190615b68565b5f819055505b5050611083565b61104561323d565b5f6110647399d8a9c45b2eca8864373a26d1459e3dff1e17f330611fc3565b90508181111561108057818161107a9190615b68565b5f819055505b50505b565b60018054906101000a900460ff1681565b5f7399d8a9c45b2eca8864373a26d1459e3dff1e17f3905090565b5f5f54905090565b60085481565b60075481565b600160029054906101000a900460ff1681565b60025f9054906101000a900473ffffffffffffffffffffffffffffffffffffffff1681565b60055f9054906101000a900473ffffffffffffffffffffffffffffffffffffffff1681565b60045f9054906101000a900473ffffffffffffffffffffffffffffffffffffffff1681565b600160049054906101000a900473ffffffffffffffffffffffffffffffffffffffff1681565b60035f9054906101000a900473ffffffffffffffffffffffffffffffffffffffff1681565b73ba12222222228d8ba445958a75a0704d566bf2c873ffffffffffffffffffffffffffffffffffffffff163373ffffffffffffffffffffffffffffffffffffffff161461120b576040517f9269f18c00000000000000000000000000000000000000000000000000000000815260040160405180910390fd5b600260ff1660015f9054906101000a900460ff1660ff1614158061123157506001845114155b8061123e57506001835114155b8061124b57506001825114155b15611282576040517fa5e8469800000000000000000000000000000000000000000000000000000000815260040160405180910390fd5b7399d8a9c45b2eca8864373a26d1459e3dff1e17f373ffffffffffffffffffffffffffffffffffffffff16845f815181106112c0576112bf615b9b565b5b602002602001015173ffffffffffffffffffffffffffffffffffffffff1614611315576040517fa5e8469800000000000000000000000000000000000000000000000000000000815260040160405180910390fd5b5f835f8151811061132957611328615b9b565b5b602002602001015190505f835f8151811061134757611346615b9b565b5b602002602001015190506001821161138b576040517fa5e8469800000000000000000000000000000000000000000000000000000000815260040160405180910390fd5b5f60055f9054906101000a900473ffffffffffffffffffffffffffffffffffffffff1690506113f07399d8a9c45b2eca8864373a26d1459e3dff1e17f360055f9054906101000a900473ffffffffffffffffffffffffffffffffffffffff1685612d0e565b8073ffffffffffffffffffffffffffffffffffffffff1663c57fed13846040518263ffffffff1660e01b8152600401611429919061536a565b5f604051808303815f87803b158015611440575f5ffd5b505af1158015611452573d5f5f3e3d5ffd5b505050505f8173ffffffffffffffffffffffffffffffffffffffff16633ba0b9a96040518163ffffffff1660e01b8152600401602060405180830381865afa1580156114a0573d5f5f3e3d5ffd5b505050506040513d601f19601f820116820180604052508101906114c491906158bd565b146114fb576040517fee9e413e00000000000000000000000000000000000000000000000000000000815260040160405180910390fd5b8073ffffffffffffffffffffffffffffffffffffffff1663860ffea1306001806040518463ffffffff1660e01b815260040161153993929190615a0b565b5f604051808303815f87803b158015611550575f5ffd5b505af1158015611562573d5f5f3e3d5ffd5b5050505060018173ffffffffffffffffffffffffffffffffffffffff16631c9e379b306040518263ffffffff1660e01b81526004016115a19190615383565b602060405180830381865afa1580156115bc573d5f5f3e3d5ffd5b505050506040513d601f19601f820116820180604052508101906115e091906158bd565b14611617576040517f87a2632500000000000000000000000000000000000000000000000000000000815260040160405180910390fd5b5f8173ffffffffffffffffffffffffffffffffffffffff16634b8a3529306001876116429190615b68565b6040518363ffffffff1660e01b815260040161165f929190615a67565b60408051808303815f875af115801561167a573d5f5f3e3d5ffd5b505050506040513d601f19601f8201168201806040525081019061169e91906159cd565b5090506001846116ae9190615b68565b6006819055505f81148061173857505f8273ffffffffffffffffffffffffffffffffffffffff166348e4163e306040518263ffffffff1660e01b81526004016116f79190615383565b602060405180830381865afa158015611712573d5f5f3e3d5ffd5b505050506040513d601f19601f8201168201806040525081019061173691906158bd565b145b1561176f576040517fea70537f00000000000000000000000000000000000000000000000000000000815260040160405180910390fd5b8173ffffffffffffffffffffffffffffffffffffffff1663876467f83060016040518363ffffffff1660e01b81526004016117ab929190615a67565b5f604051808303815f87803b1580156117c2575f5ffd5b505af11580156117d4573d5f5f3e3d5ffd5b5050505060016008819055506117fe7399d8a9c45b2eca8864373a26d1459e3dff1e17f330611fc3565b60078190555061182e60055f9054906101000a900473ffffffffffffffffffffffffffffffffffffffff16612bb1565b5f838561183b9190615bc8565b90505f61185c7399d8a9c45b2eca8864373a26d1459e3dff1e17f330611fc3565b9050818110156118a55781816040517fdde274b000000000000000000000000000000000000000000000000000000000815260040161189c929190615b14565b60405180910390fd5b6118d87399d8a9c45b2eca8864373a26d1459e3dff1e17f373ba12222222228d8ba445958a75a0704d566bf2c884612d0e565b60018060026101000a81548160ff02191690831515021790555060018060016101000a81548160ff02191690831515021790555050505050505050505050565b5f8273ffffffffffffffffffffffffffffffffffffffff166356623118836001806040518463ffffffff1660e01b815260040161195793929190615a8e565b602060405180830381865afa158015611972573d5f5f3e3d5ffd5b505050506040513d601f19601f8201168201806040525081019061199691906158bd565b90505f81036119a457600190505b92915050565b7399d8a9c45b2eca8864373a26d1459e3dff1e17f373ffffffffffffffffffffffffffffffffffffffff1660025f9054906101000a900473ffffffffffffffffffffffffffffffffffffffff1673ffffffffffffffffffffffffffffffffffffffff160315611fc0575f60045f9054906101000a900473ffffffffffffffffffffffffffffffffffffffff169050611a747399d8a9c45b2eca8864373a26d1459e3dff1e17f382611a6f7399d8a9c45b2eca8864373a26d1459e3dff1e17f330611fc3565b6120d5565b5f73d9e1ce17f2641f24ae83637ab66a2cca9c378b9f73ffffffffffffffffffffffffffffffffffffffff168273ffffffffffffffffffffffffffffffffffffffff1614611ad657735c69bee701ef814a2b6a3edd4b1652cb9cc5aa6f611aec565b73c0aee478e3658e2610c5f7a4a2e1777ce9e4f2ac5b90505f73ffffffffffffffffffffffffffffffffffffffff168173ffffffffffffffffffffffffffffffffffffffff1663e6a439057399d8a9c45b2eca8864373a26d1459e3dff1e17f360025f9054906101000a900473ffffffffffffffffffffffffffffffffffffffff166040518363ffffffff1660e01b8152600401611b759291906151ae565b602060405180830381865afa158015611b90573d5f5f3e3d5ffd5b505050506040513d601f19601f82011682018060405250810190611bb49190615c0f565b73ffffffffffffffffffffffffffffffffffffffff1614611d98575f600267ffffffffffffffff811115611beb57611bea6153ac565b5b604051908082528060200260200182016040528015611c195781602001602082028036833780820191505090505b5090507399d8a9c45b2eca8864373a26d1459e3dff1e17f3815f81518110611c4457611c43615b9b565b5b602002602001019073ffffffffffffffffffffffffffffffffffffffff16908173ffffffffffffffffffffffffffffffffffffffff168152505060025f9054906101000a900473ffffffffffffffffffffffffffffffffffffffff1681600181518110611cb457611cb3615b9b565b5b602002602001019073ffffffffffffffffffffffffffffffffffffffff16908173ffffffffffffffffffffffffffffffffffffffff16815250508273ffffffffffffffffffffffffffffffffffffffff16638803dbee85611d297399d8a9c45b2eca8864373a26d1459e3dff1e17f330611fc3565b8430426040518663ffffffff1660e01b8152600401611d4c959493929190615cf1565b5f604051808303815f875af1158015611d67573d5f5f3e3d5ffd5b505050506040513d5f823e3d601f19601f82011682018060405250810190611d8f9190615dde565b50505050611fc0565b5f600367ffffffffffffffff811115611db457611db36153ac565b5b604051908082528060200260200182016040528015611de25781602001602082028036833780820191505090505b5090507399d8a9c45b2eca8864373a26d1459e3dff1e17f3815f81518110611e0d57611e0c615b9b565b5b602002602001019073ffffffffffffffffffffffffffffffffffffffff16908173ffffffffffffffffffffffffffffffffffffffff168152505073c02aaa39b223fe8d0a0e5c4f27ead9083c756cc281600181518110611e7057611e6f615b9b565b5b602002602001019073ffffffffffffffffffffffffffffffffffffffff16908173ffffffffffffffffffffffffffffffffffffffff168152505060025f9054906101000a900473ffffffffffffffffffffffffffffffffffffffff1681600281518110611ee057611edf615b9b565b5b602002602001019073ffffffffffffffffffffffffffffffffffffffff16908173ffffffffffffffffffffffffffffffffffffffff16815250508273ffffffffffffffffffffffffffffffffffffffff16638803dbee85611f557399d8a9c45b2eca8864373a26d1459e3dff1e17f330611fc3565b8430426040518663ffffffff1660e01b8152600401611f78959493929190615cf1565b5f604051808303815f875af1158015611f93573d5f5f3e3d5ffd5b505050506040513d5f823e3d601f19601f82011682018060405250810190611fbb9190615dde565b505050505b50565b5f5f5f8473ffffffffffffffffffffffffffffffffffffffff166370a0823160e01b85604051602401611ff69190615383565b604051602081830303815290604052907bffffffffffffffffffffffffffffffffffffffffffffffffffffffff19166020820180517bffffffffffffffffffffffffffffffffffffffffffffffffffffffff8381831617835250505050604051612060919061582d565b5f60405180830381855afa9150503d805f8114612098576040519150601f19603f3d011682016040523d82523d5f602084013e61209d565b606091505b50915091508180156120b157506020815110155b156120cd57808060200190518101906120ca91906158bd565b92505b505092915050565b806120e1843085613586565b101561211e576120f283835f61369b565b61211d83837fffffffffffffffffffffffffffffffffffffffffffffffffffffffffffffffff61369b565b5b505050565b5f8373ffffffffffffffffffffffffffffffffffffffff16633ba0b9a96040518163ffffffff1660e01b8152600401602060405180830381865afa15801561216d573d5f5f3e3d5ffd5b505050506040513d601f19601f8201168201806040525081019061219191906158bd565b146121c8576040517fee9e413e00000000000000000000000000000000000000000000000000000000815260040160405180910390fd5b5f6001826121d69190615b68565b90505f8373ffffffffffffffffffffffffffffffffffffffff1663566231187399d8a9c45b2eca8864373a26d1459e3dff1e17f3845f6040518463ffffffff1660e01b815260040161222a93929190615a8e565b602060405180830381865afa158015612245573d5f5f3e3d5ffd5b505050506040513d601f19601f8201168201806040525081019061226991906158bd565b90505f8573ffffffffffffffffffffffffffffffffffffffff16634b8a352930846040518363ffffffff1660e01b81526004016122a7929190615a67565b60408051808303815f875af11580156122c2573d5f5f3e3d5ffd5b505050506040513d601f19601f820116820180604052508101906122e691906159cd565b509050816006819055505f81148061237457505f8673ffffffffffffffffffffffffffffffffffffffff166348e4163e306040518263ffffffff1660e01b81526004016123339190615383565b602060405180830381865afa15801561234e573d5f5f3e3d5ffd5b505050506040513d601f19601f8201168201806040525081019061237291906158bd565b145b156123ab576040517fea70537f00000000000000000000000000000000000000000000000000000000815260040160405180910390fd5b5f8673ffffffffffffffffffffffffffffffffffffffff16633ba0b9a96040518163ffffffff1660e01b8152600401602060405180830381865afa1580156123f5573d5f5f3e3d5ffd5b505050506040513d601f19601f8201168201806040525081019061241991906158bd565b14612450576040517fee9e413e00000000000000000000000000000000000000000000000000000000815260040160405180910390fd5b505050505050565b7399d8a9c45b2eca8864373a26d1459e3dff1e17f373ffffffffffffffffffffffffffffffffffffffff1660025f9054906101000a900473ffffffffffffffffffffffffffffffffffffffff1673ffffffffffffffffffffffffffffffffffffffff160315612a61575f6124ed60025f9054906101000a900473ffffffffffffffffffffffffffffffffffffffff1630611fc3565b90505f81036124fc5750612a61565b5f60045f9054906101000a900473ffffffffffffffffffffffffffffffffffffffff16905061254d60025f9054906101000a900473ffffffffffffffffffffffffffffffffffffffff1682846120d5565b5f73d9e1ce17f2641f24ae83637ab66a2cca9c378b9f73ffffffffffffffffffffffffffffffffffffffff168273ffffffffffffffffffffffffffffffffffffffff16146125af57735c69bee701ef814a2b6a3edd4b1652cb9cc5aa6f6125c5565b73c0aee478e3658e2610c5f7a4a2e1777ce9e4f2ac5b90505f73ffffffffffffffffffffffffffffffffffffffff168173ffffffffffffffffffffffffffffffffffffffff1663e6a439057399d8a9c45b2eca8864373a26d1459e3dff1e17f360025f9054906101000a900473ffffffffffffffffffffffffffffffffffffffff166040518363ffffffff1660e01b815260040161264e9291906151ae565b602060405180830381865afa158015612669573d5f5f3e3d5ffd5b505050506040513d601f19601f8201168201806040525081019061268d9190615c0f565b73ffffffffffffffffffffffffffffffffffffffff1614612855575f600267ffffffffffffffff8111156126c4576126c36153ac565b5b6040519080825280602002602001820160405280156126f25781602001602082028036833780820191505090505b50905060025f9054906101000a900473ffffffffffffffffffffffffffffffffffffffff16815f8151811061272a57612729615b9b565b5b602002602001019073ffffffffffffffffffffffffffffffffffffffff16908173ffffffffffffffffffffffffffffffffffffffff16815250507399d8a9c45b2eca8864373a26d1459e3dff1e17f38160018151811061278d5761278c615b9b565b5b602002602001019073ffffffffffffffffffffffffffffffffffffffff16908173ffffffffffffffffffffffffffffffffffffffff16815250508273ffffffffffffffffffffffffffffffffffffffff166338ed1739855f8430426040518663ffffffff1660e01b8152600401612808959493929190615e25565b5f604051808303815f875af1158015612823573d5f5f3e3d5ffd5b505050506040513d5f823e3d601f19601f8201168201806040525081019061284b9190615dde565b5050505050612a61565b5f600367ffffffffffffffff811115612871576128706153ac565b5b60405190808252806020026020018201604052801561289f5781602001602082028036833780820191505090505b50905060025f9054906101000a900473ffffffffffffffffffffffffffffffffffffffff16815f815181106128d7576128d6615b9b565b5b602002602001019073ffffffffffffffffffffffffffffffffffffffff16908173ffffffffffffffffffffffffffffffffffffffff168152505073c02aaa39b223fe8d0a0e5c4f27ead9083c756cc28160018151811061293a57612939615b9b565b5b602002602001019073ffffffffffffffffffffffffffffffffffffffff16908173ffffffffffffffffffffffffffffffffffffffff16815250507399d8a9c45b2eca8864373a26d1459e3dff1e17f38160028151811061299d5761299c615b9b565b5b602002602001019073ffffffffffffffffffffffffffffffffffffffff16908173ffffffffffffffffffffffffffffffffffffffff16815250508273ffffffffffffffffffffffffffffffffffffffff166338ed1739855f8430426040518663ffffffff1660e01b8152600401612a18959493929190615e25565b5f604051808303815f875af1158015612a33573d5f5f3e3d5ffd5b505050506040513d5f823e3d601f19601f82011682018060405250810190612a5b9190615dde565b50505050505b565b5f8173ffffffffffffffffffffffffffffffffffffffff1663f7888aec7399d8a9c45b2eca8864373a26d1459e3dff1e17f3306040518363ffffffff1660e01b8152600401612ab3929190615a40565b602060405180830381865afa158015612ace573d5f5f3e3d5ffd5b505050506040513d601f19601f82011682018060405250810190612af291906158bd565b90505f8114612bad575f8273ffffffffffffffffffffffffffffffffffffffff166397da6d307399d8a9c45b2eca8864373a26d1459e3dff1e17f330305f876040518663ffffffff1660e01b8152600401612b51959493929190615ac3565b60408051808303815f875af1158015612b6c573d5f5f3e3d5ffd5b505050506040513d601f19601f82011682018060405250810190612b9091906159cd565b5090508060075f828254612ba49190615bc8565b92505081905550505b5050565b8073ffffffffffffffffffffffffffffffffffffffff166302ce728f6040518163ffffffff1660e01b815260040160408051808303815f875af1925050508015612c1957506040513d601f19601f82011682018060405250810190612c169190615ea7565b60015b612c3c575f600160036101000a81548160ff021916908315150217905550612cdc565b81158015612c4957505f81145b8015612cc057505f8373ffffffffffffffffffffffffffffffffffffffff16633ba0b9a96040518163ffffffff1660e01b8152600401602060405180830381865afa158015612c9a573d5f5f3e3d5ffd5b505050506040513d601f19601f82011682018060405250810190612cbe91906158bd565b145b600160036101000a81548160ff02191690831515021790555050505b50565b5f60016103e56103e884612cf39190615ee5565b612cfd9190615f53565b612d079190615bc8565b9050919050565b5f5f8473ffffffffffffffffffffffffffffffffffffffff1663a9059cbb60e01b8585604051602401612d42929190615a67565b604051602081830303815290604052907bffffffffffffffffffffffffffffffffffffffffffffffffffffffff19166020820180517bffffffffffffffffffffffffffffffffffffffffffffffffffffffff8381831617835250505050604051612dac919061582d565b5f604051808303815f865af19150503d805f8114612de5576040519150601f19603f3d011682016040523d82523d5f602084013e612dea565b606091505b5091509150818015612e1757505f81511480612e16575080806020019051810190612e159190615f83565b5b5b612e56576040517f08c379a0000000000000000000000000000000000000000000000000000000008152600401612e4d90615ff8565b60405180910390fd5b5050505050565b5f5f819055505f60015f6101000a81548160ff021916908360ff1602179055505f6001806101000a81548160ff0219169083151502179055505f600160026101000a81548160ff0219169083151502179055505f600160036101000a81548160ff02191690831515021790555073f5bce5077908a1b7370b9ae04add8a2ed8acfae8600160046101000a81548173ffffffffffffffffffffffffffffffffffffffff021916908373ffffffffffffffffffffffffffffffffffffffff1602179055505f60025f6101000a81548173ffffffffffffffffffffffffffffffffffffffff021916908373ffffffffffffffffffffffffffffffffffffffff1602179055505f60035f6101000a81548173ffffffffffffffffffffffffffffffffffffffff021916908373ffffffffffffffffffffffffffffffffffffffff1602179055505f60045f6101000a81548173ffffffffffffffffffffffffffffffffffffffff021916908373ffffffffffffffffffffffffffffffffffffffff1602179055505f60055f6101000a81548173ffffffffffffffffffffffffffffffffffffffff021916908373ffffffffffffffffffffffffffffffffffffffff1602179055505f6006819055505f6007819055505f600881905550565b5f61303f6137ea565b61304b575f905061323a565b5f73bb02a884621fb8f5bfd263a67f58b65df5b090f390505f600160049054906101000a900473ffffffffffffffffffffffffffffffffffffffff1690505f8173ffffffffffffffffffffffffffffffffffffffff1663f7888aec7399d8a9c45b2eca8864373a26d1459e3dff1e17f373bb02a884621fb8f5bfd263a67f58b65df5b090f36040518363ffffffff1660e01b81526004016130ed929190615a40565b602060405180830381865afa158015613108573d5f5f3e3d5ffd5b505050506040513d601f19601f8201168201806040525081019061312c91906158bd565b905060018111613168576040517fdf88b0cf00000000000000000000000000000000000000000000000000000000815260040160405180910390fd5b7399d8a9c45b2eca8864373a26d1459e3dff1e17f373ffffffffffffffffffffffffffffffffffffffff1660025f9054906101000a900473ffffffffffffffffffffffffffffffffffffffff1673ffffffffffffffffffffffffffffffffffffffff16036131e7576131db838383613a0b565b6001935050505061323a565b6001805f6101000a81548160ff021916908360ff16021790555061320c838383613e67565b5f60015f6101000a81548160ff021916908360ff16021790555060018054906101000a900460ff1693505050505b90565b5f60405161324a90615155565b604051809103905ff080158015613263573d5f5f3e3d5ffd5b5090505f60405161327390615162565b604051809103905ff08015801561328c573d5f5f3e3d5ffd5b5090508073ffffffffffffffffffffffffffffffffffffffff1663c0d91eaf8360405180602001604052805f8152506040518363ffffffff1660e01b81526004016132d892919061605e565b5f604051808303815f87803b1580156132ef575f5ffd5b505af1158015613301573d5f5f3e3d5ffd5b505050508060055f6101000a81548173ffffffffffffffffffffffffffffffffffffffff021916908373ffffffffffffffffffffffffffffffffffffffff1602179055507399d8a9c45b2eca8864373a26d1459e3dff1e17f360025f6101000a81548173ffffffffffffffffffffffffffffffffffffffff021916908373ffffffffffffffffffffffffffffffffffffffff1602179055505f600167ffffffffffffffff8111156133b5576133b46153ac565b5b6040519080825280602002602001820160405280156133e35781602001602082028036833780820191505090505b5090507399d8a9c45b2eca8864373a26d1459e3dff1e17f3815f8151811061340e5761340d615b9b565b5b602002602001019073ffffffffffffffffffffffffffffffffffffffff16908173ffffffffffffffffffffffffffffffffffffffff16815250505f600167ffffffffffffffff811115613464576134636153ac565b5b6040519080825280602002602001820160405280156134925781602001602082028036833780820191505090505b509050670de0b6b3a7640000815f815181106134b1576134b0615b9b565b5b602002602001018181525050600260015f6101000a81548160ff021916908360ff16021790555073ba12222222228d8ba445958a75a0704d566bf2c873ffffffffffffffffffffffffffffffffffffffff16635c38449e30848460405180602001604052805f8152506040518563ffffffff1660e01b8152600401613539949392919061620a565b5f604051808303815f87803b158015613550575f5ffd5b505af1158015613562573d5f5f3e3d5ffd5b505050505f60015f6101000a81548160ff021916908360ff16021790555050505050565b5f5f5f8573ffffffffffffffffffffffffffffffffffffffff1663dd62ed3e60e01b86866040516024016135bb9291906151ae565b604051602081830303815290604052907bffffffffffffffffffffffffffffffffffffffffffffffffffffffff19166020820180517bffffffffffffffffffffffffffffffffffffffffffffffffffffffff8381831617835250505050604051613625919061582d565b5f60405180830381855afa9150503d805f811461365d576040519150601f19603f3d011682016040523d82523d5f602084013e613662565b606091505b509150915081801561367657506020815110155b15613692578080602001905181019061368f91906158bd565b92505b50509392505050565b5f5f8473ffffffffffffffffffffffffffffffffffffffff1663095ea7b360e01b85856040516024016136cf929190615a67565b604051602081830303815290604052907bffffffffffffffffffffffffffffffffffffffffffffffffffffffff19166020820180517bffffffffffffffffffffffffffffffffffffffffffffffffffffffff8381831617835250505050604051613739919061582d565b5f604051808303815f865af19150503d805f8114613772576040519150601f19603f3d011682016040523d82523d5f602084013e613777565b606091505b50915091508180156137a457505f815114806137a35750808060200190518101906137a29190615f83565b5b5b6137e3576040517f08c379a00000000000000000000000000000000000000000000000000000000081526004016137da906162ac565b60405180910390fd5b5050505050565b5f5f73bb02a884621fb8f5bfd263a67f58b65df5b090f390508073ffffffffffffffffffffffffffffffffffffffff16633ba0b9a96040518163ffffffff1660e01b8152600401602060405180830381865afa92505050801561386b57506040513d601f19601f8201168201806040525081019061386891906158bd565b60015b613878575f915050613a08565b5f8114613889575f92505050613a08565b508073ffffffffffffffffffffffffffffffffffffffff166348e4163e306040518263ffffffff1660e01b81526004016138c39190615383565b602060405180830381865afa9250505080156138fd57506040513d601f19601f820116820180604052508101906138fa91906158bd565b60015b61390a575f915050613a08565b60019250503073ffffffffffffffffffffffffffffffffffffffff166302fae74d6040518163ffffffff1660e01b81526004016040805180830381865afa92505050801561397657506040513d601f19601f8201168201806040525081019061397391906162ca565b60015b613983575f915050613a08565b81600160046101000a81548173ffffffffffffffffffffffffffffffffffffffff021916908373ffffffffffffffffffffffffffffffffffffffff1602179055508060025f6101000a81548173ffffffffffffffffffffffffffffffffffffffff021916908373ffffffffffffffffffffffffffffffffffffffff1602179055505050505b90565b5f5f8473ffffffffffffffffffffffffffffffffffffffff166302ce728f6040518163ffffffff1660e01b815260040160408051808303815f875af1158015613a56573d5f5f3e3d5ffd5b505050506040513d601f19601f82011682018060405250810190613a7a9190615ea7565b9150915081158015613a8b57505f81145b8015613b0257505f8573ffffffffffffffffffffffffffffffffffffffff16633ba0b9a96040518163ffffffff1660e01b8152600401602060405180830381865afa158015613adc573d5f5f3e3d5ffd5b505050506040513d601f19601f82011682018060405250810190613b0091906158bd565b145b600160036101000a81548160ff0219169083151502179055505f8573ffffffffffffffffffffffffffffffffffffffff16633ba0b9a96040518163ffffffff1660e01b8152600401602060405180830381865afa158015613b65573d5f5f3e3d5ffd5b505050506040513d601f19601f82011682018060405250810190613b8991906158bd565b14613bc0576040517fee9e413e00000000000000000000000000000000000000000000000000000000815260040160405180910390fd5b5f600184613bce9190615b68565b90506001811015613c0b576040517fdf88b0cf00000000000000000000000000000000000000000000000000000000815260040160405180910390fd5b8573ffffffffffffffffffffffffffffffffffffffff1663860ffea1306001806040518463ffffffff1660e01b8152600401613c4993929190615a0b565b5f604051808303815f87803b158015613c60575f5ffd5b505af1158015613c72573d5f5f3e3d5ffd5b5050505060018673ffffffffffffffffffffffffffffffffffffffff16631c9e379b306040518263ffffffff1660e01b8152600401613cb19190615383565b602060405180830381865afa158015613ccc573d5f5f3e3d5ffd5b505050506040513d601f19601f82011682018060405250810190613cf091906158bd565b1015613d28576040517f87a2632500000000000000000000000000000000000000000000000000000000815260040160405180910390fd5b613d33868686612123565b8573ffffffffffffffffffffffffffffffffffffffff1663876467f83060016040518363ffffffff1660e01b8152600401613d6f929190615a67565b5f604051808303815f87803b158015613d86575f5ffd5b505af1158015613d98573d5f5f3e3d5ffd5b505050508473ffffffffffffffffffffffffffffffffffffffff1663566231187399d8a9c45b2eca8864373a26d1459e3dff1e17f360015f6040518463ffffffff1660e01b8152600401613dee93929190615a8e565b602060405180830381865afa158015613e09573d5f5f3e3d5ffd5b505050506040513d601f19601f82011682018060405250810190613e2d91906158bd565b600881905550613e3c85612a63565b613e4586612bb1565b60018060016101000a81548160ff021916908315150217905550505050505050565b5f5f613e9360025f9054906101000a900473ffffffffffffffffffffffffffffffffffffffff16614313565b915091505f73ffffffffffffffffffffffffffffffffffffffff168273ffffffffffffffffffffffffffffffffffffffff161480613efc57505f73ffffffffffffffffffffffffffffffffffffffff168173ffffffffffffffffffffffffffffffffffffffff16145b15613f33576040517fdf88b0cf00000000000000000000000000000000000000000000000000000000815260040160405180910390fd5b5f613f5f8560025f9054906101000a900473ffffffffffffffffffffffffffffffffffffffff16611918565b90505f613f8e8360025f9054906101000a900473ffffffffffffffffffffffffffffffffffffffff1684614735565b90505f66038d7ea4c6800082613fa49190615bc8565b90508460035f6101000a81548173ffffffffffffffffffffffffffffffffffffffff021916908373ffffffffffffffffffffffffffffffffffffffff1602179055508360045f6101000a81548173ffffffffffffffffffffffffffffffffffffffff021916908373ffffffffffffffffffffffffffffffffffffffff16021790555060018060026101000a81548160ff0219169083151502179055505f8573ffffffffffffffffffffffffffffffffffffffff16630dfe16816040518163ffffffff1660e01b8152600401602060405180830381865afa15801561408a573d5f5f3e3d5ffd5b505050506040513d601f19601f820116820180604052508101906140ae9190615c0f565b90505f8673ffffffffffffffffffffffffffffffffffffffff1663d21220a76040518163ffffffff1660e01b8152600401602060405180830381865afa1580156140fa573d5f5f3e3d5ffd5b505050506040513d601f19601f8201168201806040525081019061411e9190615c0f565b90507399d8a9c45b2eca8864373a26d1459e3dff1e17f373ffffffffffffffffffffffffffffffffffffffff168273ffffffffffffffffffffffffffffffffffffffff16036141d6578673ffffffffffffffffffffffffffffffffffffffff1663022c0d9f845f306040518463ffffffff1660e01b81526004016141a493929190616352565b5f604051808303815f87803b1580156141bb575f5ffd5b505af11580156141cd573d5f5f3e3d5ffd5b505050506142bf565b7399d8a9c45b2eca8864373a26d1459e3dff1e17f373ffffffffffffffffffffffffffffffffffffffff168173ffffffffffffffffffffffffffffffffffffffff160361428c578673ffffffffffffffffffffffffffffffffffffffff1663022c0d9f5f85306040518463ffffffff1660e01b815260040161425a9392919061639a565b5f604051808303815f87803b158015614271575f5ffd5b505af1158015614283573d5f5f3e3d5ffd5b505050506142be565b6040517f163f9c8a00000000000000000000000000000000000000000000000000000000815260040160405180910390fd5b5b60035f6101000a81549073ffffffffffffffffffffffffffffffffffffffff021916905560045f6101000a81549073ffffffffffffffffffffffffffffffffffffffff021916905550505050505050505050565b5f5f5f604051806040016040528073c0aee478e3658e2610c5f7a4a2e1777ce9e4f2ac73ffffffffffffffffffffffffffffffffffffffff1673ffffffffffffffffffffffffffffffffffffffff168152602001735c69bee701ef814a2b6a3edd4b1652cb9cc5aa6f73ffffffffffffffffffffffffffffffffffffffff1673ffffffffffffffffffffffffffffffffffffffff1681525090505f604051806040016040528073d9e1ce17f2641f24ae83637ab66a2cca9c378b9f73ffffffffffffffffffffffffffffffffffffffff1673ffffffffffffffffffffffffffffffffffffffff168152602001737a250d5630b4cf539739df2c5dacb4c659f2488d73ffffffffffffffffffffffffffffffffffffffff1673ffffffffffffffffffffffffffffffffffffffff1681525090505f604051806080016040528073c02aaa39b223fe8d0a0e5c4f27ead9083c756cc273ffffffffffffffffffffffffffffffffffffffff1673ffffffffffffffffffffffffffffffffffffffff168152602001736b175474e89094c44da98b954eedeac495271d0f73ffffffffffffffffffffffffffffffffffffffff1673ffffffffffffffffffffffffffffffffffffffff16815260200173a0b86991c6218b36c1d19d4a2e9eb0ce3606eb4873ffffffffffffffffffffffffffffffffffffffff1673ffffffffffffffffffffffffffffffffffffffff16815260200173dac17f958d2ee523a2206206994597c13d831ec773ffffffffffffffffffffffffffffffffffffffff1673ffffffffffffffffffffffffffffffffffffffff1681525090505f5f5f90505b600281101561472b5761459985826002811061458e5761458d615b9b565b5b602002015189614c61565b15614720575f5f90505b600481101561471e575f8683600281106145c0576145bf615b9b565b5b602002015173ffffffffffffffffffffffffffffffffffffffff1663e6a439057399d8a9c45b2eca8864373a26d1459e3dff1e17f387856004811061460857614607615b9b565b5b60200201516040518363ffffffff1660e01b815260040161462a9291906151ae565b602060405180830381865afa158015614645573d5f5f3e3d5ffd5b505050506040513d601f19601f820116820180604052508101906146699190615c0f565b90505f73ffffffffffffffffffffffffffffffffffffffff168173ffffffffffffffffffffffffffffffffffffffff1614806146bb57505f8173ffffffffffffffffffffffffffffffffffffffff163b145b156146c65750614713565b5f6146e5827399d8a9c45b2eca8864373a26d1459e3dff1e17f3614f6d565b9050848111156147105780945081995086846002811061470857614707615b9b565b5b602002015198505b50505b8060010190506145a3565b505b80600101905061456f565b5050505050915091565b5f7399d8a9c45b2eca8864373a26d1459e3dff1e17f373ffffffffffffffffffffffffffffffffffffffff168373ffffffffffffffffffffffffffffffffffffffff160361478557819050614c5a565b5f73d9e1ce17f2641f24ae83637ab66a2cca9c378b9f73ffffffffffffffffffffffffffffffffffffffff168573ffffffffffffffffffffffffffffffffffffffff16146147e757735c69bee701ef814a2b6a3edd4b1652cb9cc5aa6f6147fd565b73c0aee478e3658e2610c5f7a4a2e1777ce9e4f2ac5b90505f73ffffffffffffffffffffffffffffffffffffffff168173ffffffffffffffffffffffffffffffffffffffff1663e6a439057399d8a9c45b2eca8864373a26d1459e3dff1e17f3876040518363ffffffff1660e01b81526004016148659291906151ae565b602060405180830381865afa158015614880573d5f5f3e3d5ffd5b505050506040513d601f19601f820116820180604052508101906148a49190615c0f565b73ffffffffffffffffffffffffffffffffffffffff1614614a5d575f600267ffffffffffffffff8111156148db576148da6153ac565b5b6040519080825280602002602001820160405280156149095781602001602082028036833780820191505090505b5090507399d8a9c45b2eca8864373a26d1459e3dff1e17f3815f8151811061493457614933615b9b565b5b602002602001019073ffffffffffffffffffffffffffffffffffffffff16908173ffffffffffffffffffffffffffffffffffffffff1681525050848160018151811061498357614982615b9b565b5b602002602001019073ffffffffffffffffffffffffffffffffffffffff16908173ffffffffffffffffffffffffffffffffffffffff16815250508573ffffffffffffffffffffffffffffffffffffffff16631f00ca7485836040518363ffffffff1660e01b81526004016149f89291906163e2565b5f60405180830381865afa158015614a12573d5f5f3e3d5ffd5b505050506040513d5f823e3d601f19601f82011682018060405250810190614a3a9190615dde565b5f81518110614a4c57614a4b615b9b565b5b602002602001015192505050614c5a565b5f600367ffffffffffffffff811115614a7957614a786153ac565b5b604051908082528060200260200182016040528015614aa75781602001602082028036833780820191505090505b5090507399d8a9c45b2eca8864373a26d1459e3dff1e17f3815f81518110614ad257614ad1615b9b565b5b602002602001019073ffffffffffffffffffffffffffffffffffffffff16908173ffffffffffffffffffffffffffffffffffffffff168152505073c02aaa39b223fe8d0a0e5c4f27ead9083c756cc281600181518110614b3557614b34615b9b565b5b602002602001019073ffffffffffffffffffffffffffffffffffffffff16908173ffffffffffffffffffffffffffffffffffffffff16815250508481600281518110614b8457614b83615b9b565b5b602002602001019073ffffffffffffffffffffffffffffffffffffffff16908173ffffffffffffffffffffffffffffffffffffffff16815250508573ffffffffffffffffffffffffffffffffffffffff16631f00ca7485836040518363ffffffff1660e01b8152600401614bf99291906163e2565b5f60405180830381865afa158015614c13573d5f5f3e3d5ffd5b505050506040513d5f823e3d601f19601f82011682018060405250810190614c3b9190615dde565b5f81518110614c4d57614c4c615b9b565b5b6020026020010151925050505b9392505050565b5f7399d8a9c45b2eca8864373a26d1459e3dff1e17f373ffffffffffffffffffffffffffffffffffffffff168273ffffffffffffffffffffffffffffffffffffffff1603614cb25760019050614f67565b5f73ffffffffffffffffffffffffffffffffffffffff168373ffffffffffffffffffffffffffffffffffffffff1663e6a439057399d8a9c45b2eca8864373a26d1459e3dff1e17f3856040518363ffffffff1660e01b8152600401614d189291906151ae565b602060405180830381865afa158015614d33573d5f5f3e3d5ffd5b505050506040513d601f19601f82011682018060405250810190614d579190615c0f565b73ffffffffffffffffffffffffffffffffffffffff1614614d7b5760019050614f67565b5f73ffffffffffffffffffffffffffffffffffffffff168373ffffffffffffffffffffffffffffffffffffffff1663e6a439057399d8a9c45b2eca8864373a26d1459e3dff1e17f373c02aaa39b223fe8d0a0e5c4f27ead9083c756cc26040518363ffffffff1660e01b8152600401614df59291906151ae565b602060405180830381865afa158015614e10573d5f5f3e3d5ffd5b505050506040513d601f19601f82011682018060405250810190614e349190615c0f565b73ffffffffffffffffffffffffffffffffffffffff1603614e57575f9050614f67565b73c02aaa39b223fe8d0a0e5c4f27ead9083c756cc273ffffffffffffffffffffffffffffffffffffffff168273ffffffffffffffffffffffffffffffffffffffff1603614ea75760019050614f67565b5f73ffffffffffffffffffffffffffffffffffffffff168373ffffffffffffffffffffffffffffffffffffffff1663e6a4390573c02aaa39b223fe8d0a0e5c4f27ead9083c756cc2856040518363ffffffff1660e01b8152600401614f0d9291906151ae565b602060405180830381865afa158015614f28573d5f5f3e3d5ffd5b505050506040513d601f19601f82011682018060405250810190614f4c9190615c0f565b73ffffffffffffffffffffffffffffffffffffffff16141590505b92915050565b5f5f5f8473ffffffffffffffffffffffffffffffffffffffff16630902f1ac6040518163ffffffff1660e01b8152600401606060405180830381865afa158015614fb9573d5f5f3e3d5ffd5b505050506040513d601f19601f82011682018060405250810190614fdd919061648c565b50915091508373ffffffffffffffffffffffffffffffffffffffff168573ffffffffffffffffffffffffffffffffffffffff16630dfe16816040518163ffffffff1660e01b8152600401602060405180830381865afa158015615042573d5f5f3e3d5ffd5b505050506040513d601f19601f820116820180604052508101906150669190615c0f565b73ffffffffffffffffffffffffffffffffffffffff160361509957816dffffffffffffffffffffffffffff16925061514d565b8373ffffffffffffffffffffffffffffffffffffffff168573ffffffffffffffffffffffffffffffffffffffff1663d21220a76040518163ffffffff1660e01b8152600401602060405180830381865afa1580156150f9573d5f5f3e3d5ffd5b505050506040513d601f19601f8201168201806040525081019061511d9190615c0f565b73ffffffffffffffffffffffffffffffffffffffff160361514c57806dffffffffffffffffffffffffffff1692505b5b505092915050565b6103fb806164dd83390190565b6117ef806168d883390190565b5f73ffffffffffffffffffffffffffffffffffffffff82169050919050565b5f6151988261516f565b9050919050565b6151a88161518e565b82525050565b5f6040820190506151c15f83018561519f565b6151ce602083018461519f565b9392505050565b5f8115159050919050565b6151e9816151d5565b82525050565b5f6020820190506152025f8301846151e0565b92915050565b5f604051905090565b5f5ffd5b5f5ffd5b6152228161518e565b811461522c575f5ffd5b50565b5f8135905061523d81615219565b92915050565b5f819050919050565b61525581615243565b811461525f575f5ffd5b50565b5f813590506152708161524c565b92915050565b5f5ffd5b5f5ffd5b5f5ffd5b5f5f83601f84011261529757615296615276565b5b8235905067ffffffffffffffff8111156152b4576152b361527a565b5b6020830191508360018202830111156152d0576152cf61527e565b5b9250929050565b5f5f5f5f5f608086880312156152f0576152ef615211565b5b5f6152fd8882890161522f565b955050602061530e88828901615262565b945050604061531f88828901615262565b935050606086013567ffffffffffffffff8111156153405761533f615215565b5b61534c88828901615282565b92509250509295509295909350565b61536481615243565b82525050565b5f60208201905061537d5f83018461535b565b92915050565b5f6020820190506153965f83018461519f565b92915050565b5f601f19601f8301169050919050565b7f4e487b71000000000000000000000000000000000000000000000000000000005f52604160045260245ffd5b6153e28261539c565b810181811067ffffffffffffffff82111715615401576154006153ac565b5b80604052505050565b5f615413615208565b905061541f82826153d9565b919050565b5f67ffffffffffffffff82111561543e5761543d6153ac565b5b602082029050602081019050919050565b5f6154598261518e565b9050919050565b6154698161544f565b8114615473575f5ffd5b50565b5f8135905061548481615460565b92915050565b5f61549c61549784615424565b61540a565b905080838252602082019050602084028301858111156154bf576154be61527e565b5b835b818110156154e857806154d48882615476565b8452602084019350506020810190506154c1565b5050509392505050565b5f82601f83011261550657615505615276565b5b813561551684826020860161548a565b91505092915050565b5f67ffffffffffffffff821115615539576155386153ac565b5b602082029050602081019050919050565b5f61555c6155578461551f565b61540a565b9050808382526020820190506020840283018581111561557f5761557e61527e565b5b835b818110156155a857806155948882615262565b845260208401935050602081019050615581565b5050509392505050565b5f82601f8301126155c6576155c5615276565b5b81356155d684826020860161554a565b91505092915050565b5f5ffd5b5f67ffffffffffffffff8211156155fd576155fc6153ac565b5b6156068261539c565b9050602081019050919050565b828183375f83830152505050565b5f61563361562e846155e3565b61540a565b90508281526020810184848401111561564f5761564e6155df565b5b61565a848285615613565b509392505050565b5f82601f83011261567657615675615276565b5b8135615686848260208601615621565b91505092915050565b5f5f5f5f608085870312156156a7576156a6615211565b5b5f85013567ffffffffffffffff8111156156c4576156c3615215565b5b6156d0878288016154f2565b945050602085013567ffffffffffffffff8111156156f1576156f0615215565b5b6156fd878288016155b2565b935050604085013567ffffffffffffffff81111561571e5761571d615215565b5b61572a878288016155b2565b925050606085013567ffffffffffffffff81111561574b5761574a615215565b5b61575787828801615662565b91505092959194509250565b5f82825260208201905092915050565b7f6f6e6c792d73656c6600000000000000000000000000000000000000000000005f82015250565b5f6157a7600983615763565b91506157b282615773565b602082019050919050565b5f6020820190508181035f8301526157d48161579b565b9050919050565b5f81519050919050565b5f81905092915050565b8281835e5f83830152505050565b5f615807826157db565b61581181856157e5565b93506158218185602086016157ef565b80840191505092915050565b5f61583882846157fd565b915081905092915050565b5f61584d8261516f565b9050919050565b61585d81615843565b8114615867575f5ffd5b50565b5f8151905061587881615854565b92915050565b5f6020828403121561589357615892615211565b5b5f6158a08482850161586a565b91505092915050565b5f815190506158b78161524c565b92915050565b5f602082840312156158d2576158d1615211565b5b5f6158df848285016158a9565b91505092915050565b5f819050919050565b5f61590b6159066159018461516f565b6158e8565b61516f565b9050919050565b5f61591c826158f1565b9050919050565b5f61592d82615912565b9050919050565b61593d81615923565b82525050565b5f819050919050565b5f61596661596161595c84615943565b6158e8565b615243565b9050919050565b6159768161594c565b82525050565b5f60a08201905061598f5f830188615934565b61599c602083018761519f565b6159a9604083018661519f565b6159b6606083018561535b565b6159c3608083018461596d565b9695505050505050565b5f5f604083850312156159e3576159e2615211565b5b5f6159f0858286016158a9565b9250506020615a01858286016158a9565b9150509250929050565b5f606082019050615a1e5f83018661519f565b615a2b60208301856151e0565b615a38604083018461535b565b949350505050565b5f604082019050615a535f830185615934565b615a60602083018461519f565b9392505050565b5f604082019050615a7a5f83018561519f565b615a87602083018461535b565b9392505050565b5f606082019050615aa15f830186615934565b615aae602083018561535b565b615abb60408301846151e0565b949350505050565b5f60a082019050615ad65f830188615934565b615ae3602083018761519f565b615af0604083018661519f565b615afd606083018561596d565b615b0a608083018461535b565b9695505050505050565b5f604082019050615b275f83018561535b565b615b34602083018461535b565b9392505050565b7f4e487b71000000000000000000000000000000000000000000000000000000005f52601160045260245ffd5b5f615b7282615243565b9150615b7d83615243565b9250828203905081811115615b9557615b94615b3b565b5b92915050565b7f4e487b71000000000000000000000000000000000000000000000000000000005f52603260045260245ffd5b5f615bd282615243565b9150615bdd83615243565b9250828201905080821115615bf557615bf4615b3b565b5b92915050565b5f81519050615c0981615219565b92915050565b5f60208284031215615c2457615c23615211565b5b5f615c3184828501615bfb565b91505092915050565b5f81519050919050565b5f82825260208201905092915050565b5f819050602082019050919050565b615c6c8161518e565b82525050565b5f615c7d8383615c63565b60208301905092915050565b5f602082019050919050565b5f615c9f82615c3a565b615ca98185615c44565b9350615cb483615c54565b805f5b83811015615ce4578151615ccb8882615c72565b9750615cd683615c89565b925050600181019050615cb7565b5085935050505092915050565b5f60a082019050615d045f83018861535b565b615d11602083018761535b565b8181036040830152615d238186615c95565b9050615d32606083018561519f565b615d3f608083018461535b565b9695505050505050565b5f615d5b615d568461551f565b61540a565b90508083825260208201905060208402830185811115615d7e57615d7d61527e565b5b835b81811015615da75780615d9388826158a9565b845260208401935050602081019050615d80565b5050509392505050565b5f82601f830112615dc557615dc4615276565b5b8151615dd5848260208601615d49565b91505092915050565b5f60208284031215615df357615df2615211565b5b5f82015167ffffffffffffffff811115615e1057615e0f615215565b5b615e1c84828501615db1565b91505092915050565b5f60a082019050615e385f83018861535b565b615e45602083018761596d565b8181036040830152615e578186615c95565b9050615e66606083018561519f565b615e73608083018461535b565b9695505050505050565b615e86816151d5565b8114615e90575f5ffd5b50565b5f81519050615ea181615e7d565b92915050565b5f5f60408385031215615ebd57615ebc615211565b5b5f615eca85828601615e93565b9250506020615edb858286016158a9565b9150509250929050565b5f615eef82615243565b9150615efa83615243565b9250828202615f0881615243565b91508282048414831517615f1f57615f1e615b3b565b5b5092915050565b7f4e487b71000000000000000000000000000000000000000000000000000000005f52601260045260245ffd5b5f615f5d82615243565b9150615f6883615243565b925082615f7857615f77615f26565b5b828204905092915050565b5f60208284031215615f9857615f97615211565b5b5f615fa584828501615e93565b91505092915050565b7f7472616e736665722d6661696c656400000000000000000000000000000000005f82015250565b5f615fe2600f83615763565b9150615fed82615fae565b602082019050919050565b5f6020820190508181035f83015261600f81615fd6565b9050919050565b5f82825260208201905092915050565b5f616030826157db565b61603a8185616016565b935061604a8185602086016157ef565b6160538161539c565b840191505092915050565b5f6040820190506160715f83018561519f565b81810360208301526160838184616026565b90509392505050565b5f61609682615912565b9050919050565b6160a68161608c565b82525050565b5f81519050919050565b5f819050602082019050919050565b6160ce81615923565b82525050565b5f6160df83836160c5565b60208301905092915050565b5f602082019050919050565b5f616101826160ac565b61610b8185615c44565b9350616116836160b6565b805f5b8381101561614657815161612d88826160d4565b9750616138836160eb565b925050600181019050616119565b5085935050505092915050565b5f81519050919050565b5f82825260208201905092915050565b5f819050602082019050919050565b61618581615243565b82525050565b5f616196838361617c565b60208301905092915050565b5f602082019050919050565b5f6161b882616153565b6161c2818561615d565b93506161cd8361616d565b805f5b838110156161fd5781516161e4888261618b565b97506161ef836161a2565b9250506001810190506161d0565b5085935050505092915050565b5f60808201905061621d5f83018761609d565b818103602083015261622f81866160f7565b9050818103604083015261624381856161ae565b905081810360608301526162578184616026565b905095945050505050565b7f617070726f76652d6661696c65640000000000000000000000000000000000005f82015250565b5f616296600e83615763565b91506162a182616262565b602082019050919050565b5f6020820190508181035f8301526162c38161628a565b9050919050565b5f5f604083850312156162e0576162df615211565b5b5f6162ed85828601615bfb565b92505060206162fe85828601615bfb565b9150509250929050565b7f01000000000000000000000000000000000000000000000000000000000000005f82015250565b5f61633c600183616016565b915061634782616308565b602082019050919050565b5f6080820190506163655f83018661535b565b616372602083018561596d565b61637f604083018461519f565b818103606083015261639081616330565b9050949350505050565b5f6080820190506163ad5f83018661596d565b6163ba602083018561535b565b6163c7604083018461519f565b81810360608301526163d881616330565b9050949350505050565b5f6040820190506163f55f83018561535b565b81810360208301526164078184615c95565b90509392505050565b5f6dffffffffffffffffffffffffffff82169050919050565b61643281616410565b811461643c575f5ffd5b50565b5f8151905061644d81616429565b92915050565b5f63ffffffff82169050919050565b61646b81616453565b8114616475575f5ffd5b50565b5f8151905061648681616462565b92915050565b5f5f5f606084860312156164a3576164a2615211565b5b5f6164b08682870161643f565b93505060206164c18682870161643f565b92505060406164d286828701616478565b915050925092509256fe6080604052348015600e575f5ffd5b506103df8061001c5f395ff3fe608060405234801561000f575f5ffd5b5060043610610055575f3560e01c8063c699c4d614610059578063d39bbef014610089578063d568866c146100b9578063d6d7d525146100e9578063eeb8a8d31461011a575b5f5ffd5b610073600480360381019061006e919061025c565b61014b565b6040516100809190610317565b60405180910390f35b6100a3600480360381019061009e919061025c565b61018b565b6040516100b0919061034f565b60405180910390f35b6100d360048036038101906100ce919061025c565b610195565b6040516100e09190610317565b60405180910390f35b61010360048036038101906100fe919061025c565b6101d5565b604051610111929190610382565b60405180910390f35b610134600480360381019061012f919061025c565b6101e4565b604051610142929190610382565b60405180910390f35b60606040518060400160405280600481526020017f5a45524f00000000000000000000000000000000000000000000000000000000815250905092915050565b5f5f905092915050565b60606040518060400160405280601481526020017f416c7761797320556e696e697469616c697a6564000000000000000000000000815250905092915050565b5f5f5f91505f90509250929050565b5f5f5f91505f90509250929050565b5f5ffd5b5f5ffd5b5f5ffd5b5f5ffd5b5f5ffd5b5f5f83601f84011261021c5761021b6101fb565b5b8235905067ffffffffffffffff811115610239576102386101ff565b5b60208301915083600182028301111561025557610254610203565b5b9250929050565b5f5f60208385031215610272576102716101f3565b5b5f83013567ffffffffffffffff81111561028f5761028e6101f7565b5b61029b85828601610207565b92509250509250929050565b5f81519050919050565b5f82825260208201905092915050565b8281835e5f83830152505050565b5f601f19601f8301169050919050565b5f6102e9826102a7565b6102f381856102b1565b93506103038185602086016102c1565b61030c816102cf565b840191505092915050565b5f6020820190508181035f83015261032f81846102df565b905092915050565b5f819050919050565b61034981610337565b82525050565b5f6020820190506103625f830184610340565b92915050565b5f8115159050919050565b61037c81610368565b82525050565b5f6040820190506103955f830185610373565b6103a26020830184610340565b939250505056fea2646970667358221220eca9d3e65e3a857a18eabed4ab628265099247f188833e9bcf964180324ea86164736f6c634300081e00336080604052348015600e575f5ffd5b506117d38061001c5f395ff3fe608060405234801561000f575f5ffd5b50600436106100e8575f3560e01c80637dc0d1d01161008a57806387d283e41161006457806387d283e41461024c57806393697f841461027c578063c0d91eaf1461029a578063c57fed13146102b6576100e8565b80637dc0d1d0146101f6578063860ffea114610214578063876467f814610230576100e8565b8063473e3ce7116100c6578063473e3ce71461015957806348e4163e146101775780634b8a3529146101a757806374645ff3146101d8576100e8565b806302ce728f146100ec5780631c9e379b1461010b5780633ba0b9a91461013b575b5f5ffd5b6100f46102d2565b604051610102929190610c88565b60405180910390f35b61012560048036038101906101209190610d11565b610390565b6040516101329190610d3c565b60405180910390f35b6101436103a5565b6040516101509190610d3c565b60405180910390f35b6101616103ab565b60405161016e9190610d3c565b60405180910390f35b610191600480360381019061018c9190610d11565b6103b1565b60405161019e9190610d3c565b60405180910390f35b6101c160048036038101906101bc9190610d7f565b6103c6565b6040516101cf929190610dbd565b60405180910390f35b6101e06105df565b6040516101ed9190610e54565b60405180910390f35b6101fe61066b565b60405161020b9190610ecf565b60405180910390f35b61022e60048036038101906102299190610f12565b61068f565b005b61024a60048036038101906102459190610d7f565b61082f565b005b61026660048036038101906102619190610d11565b6109ae565b6040516102739190610d3c565b60405180910390f35b6102846109c3565b6040516102919190610d3c565b60405180910390f35b6102b460048036038101906102af9190610fc3565b6109c9565b005b6102d060048036038101906102cb9190611020565b610a1f565b005b5f5f5f5f9054906101000a900473ffffffffffffffffffffffffffffffffffffffff1673ffffffffffffffffffffffffffffffffffffffff1663eeb8a8d360016040518263ffffffff1660e01b815260040161032e919061113b565b6040805180830381865afa158015610348573d5f5f3e3d5ffd5b505050506040513d601f19601f8201168201806040525081019061036c9190611183565b80925081935050508115610386578060028190555061038c565b60025490505b9091565b6006602052805f5260405f205f915090505481565b60025481565b60035481565b6005602052805f5260405f205f915090505481565b5f5f826004541015610404576040517fbb55fd2700000000000000000000000000000000000000000000000000000000815260040160405180910390fd5b8260055f3373ffffffffffffffffffffffffffffffffffffffff1673ffffffffffffffffffffffffffffffffffffffff1681526020019081526020015f205f82825461045091906111ee565b9250508190555061046333600254610b27565b610499576040517ffc22003800000000000000000000000000000000000000000000000000000000815260040160405180910390fd5b8260045f8282546104aa9190611221565b925050819055508260075f8673ffffffffffffffffffffffffffffffffffffffff1673ffffffffffffffffffffffffffffffffffffffff1681526020019081526020015f205f8282546104fd91906111ee565b925050819055507399d8a9c45b2eca8864373a26d1459e3dff1e17f373ffffffffffffffffffffffffffffffffffffffff1663a9059cbb85856040518363ffffffff1660e01b8152600401610553929190611263565b6020604051808303815f875af115801561056f573d5f5f3e3d5ffd5b505050506040513d601f19601f82011682018060405250810190610593919061128a565b6105d2576040517f08c379a00000000000000000000000000000000000000000000000000000000081526004016105c99061130f565b60405180910390fd5b8291508290509250929050565b600180546105ec90611078565b80601f016020809104026020016040519081016040528092919081815260200182805461061890611078565b80156106635780601f1061063a57610100808354040283529160200191610663565b820191905f5260205f20905b81548152906001019060200180831161064657829003601f168201915b505050505081565b5f5f9054906101000a900473ffffffffffffffffffffffffffffffffffffffff1681565b81156106ee578060045410156106d1576040517fb8ceb00b00000000000000000000000000000000000000000000000000000000815260040160405180910390fd5b8060045f8282546106e29190611221565b925050819055506107bf565b7399d8a9c45b2eca8864373a26d1459e3dff1e17f373ffffffffffffffffffffffffffffffffffffffff166323b872dd3330846040518463ffffffff1660e01b815260040161073f9392919061132d565b6020604051808303815f875af115801561075b573d5f5f3e3d5ffd5b505050506040513d601f19601f8201168201806040525081019061077f919061128a565b6107be576040517f08c379a00000000000000000000000000000000000000000000000000000000081526004016107b5906113ac565b60405180910390fd5b5b8060065f8573ffffffffffffffffffffffffffffffffffffffff1673ffffffffffffffffffffffffffffffffffffffff1681526020019081526020015f205f82825461080b91906111ee565b925050819055508060035f82825461082391906111ee565b92505081905550505050565b8060065f3373ffffffffffffffffffffffffffffffffffffffff1673ffffffffffffffffffffffffffffffffffffffff1681526020019081526020015f205f82825461087b9190611221565b925050819055508060035f8282546108939190611221565b925050819055506108a633600254610b27565b6108dc576040517ffc22003800000000000000000000000000000000000000000000000000000000815260040160405180910390fd5b7399d8a9c45b2eca8864373a26d1459e3dff1e17f373ffffffffffffffffffffffffffffffffffffffff1663a9059cbb83836040518363ffffffff1660e01b815260040161092b929190611263565b6020604051808303815f875af1158015610947573d5f5f3e3d5ffd5b505050506040513d601f19601f8201168201806040525081019061096b919061128a565b6109aa576040517f08c379a00000000000000000000000000000000000000000000000000000000081526004016109a19061130f565b60405180910390fd5b5050565b6007602052805f5260405f205f915090505481565b60045481565b825f5f6101000a81548173ffffffffffffffffffffffffffffffffffffffff021916908373ffffffffffffffffffffffffffffffffffffffff160217905550818160019182610a19929190611586565b50505050565b5f7399d8a9c45b2eca8864373a26d1459e3dff1e17f373ffffffffffffffffffffffffffffffffffffffff166370a08231306040518263ffffffff1660e01b8152600401610a6d9190611653565b602060405180830381865afa158015610a88573d5f5f3e3d5ffd5b505050506040513d601f19601f82011682018060405250810190610aac919061166c565b905081600354600454610abf91906111ee565b610ac991906111ee565b811015610b0b576040517f08c379a0000000000000000000000000000000000000000000000000000000008152600401610b02906116e1565b60405180910390fd5b8160045f828254610b1c91906111ee565b925050819055505050565b5f5f60055f8573ffffffffffffffffffffffffffffffffffffffff1673ffffffffffffffffffffffffffffffffffffffff1681526020019081526020015f205490505f8103610b7a576001915050610c50565b5f60065f8673ffffffffffffffffffffffffffffffffffffffff1673ffffffffffffffffffffffffffffffffffffffff1681526020019081526020015f205403610bc7575f915050610c50565b5f670de0b6b3a76400008483610bdd91906116ff565b610be7919061176d565b90505f620186a0620124f860065f8973ffffffffffffffffffffffffffffffffffffffff1673ffffffffffffffffffffffffffffffffffffffff1681526020019081526020015f2054610c3a91906116ff565b610c44919061176d565b90508181101593505050505b92915050565b5f8115159050919050565b610c6a81610c56565b82525050565b5f819050919050565b610c8281610c70565b82525050565b5f604082019050610c9b5f830185610c61565b610ca86020830184610c79565b9392505050565b5f5ffd5b5f5ffd5b5f73ffffffffffffffffffffffffffffffffffffffff82169050919050565b5f610ce082610cb7565b9050919050565b610cf081610cd6565b8114610cfa575f5ffd5b50565b5f81359050610d0b81610ce7565b92915050565b5f60208284031215610d2657610d25610caf565b5b5f610d3384828501610cfd565b91505092915050565b5f602082019050610d4f5f830184610c79565b92915050565b610d5e81610c70565b8114610d68575f5ffd5b50565b5f81359050610d7981610d55565b92915050565b5f5f60408385031215610d9557610d94610caf565b5b5f610da285828601610cfd565b9250506020610db385828601610d6b565b9150509250929050565b5f604082019050610dd05f830185610c79565b610ddd6020830184610c79565b9392505050565b5f81519050919050565b5f82825260208201905092915050565b8281835e5f83830152505050565b5f601f19601f8301169050919050565b5f610e2682610de4565b610e308185610dee565b9350610e40818560208601610dfe565b610e4981610e0c565b840191505092915050565b5f6020820190508181035f830152610e6c8184610e1c565b905092915050565b5f819050919050565b5f610e97610e92610e8d84610cb7565b610e74565b610cb7565b9050919050565b5f610ea882610e7d565b9050919050565b5f610eb982610e9e565b9050919050565b610ec981610eaf565b82525050565b5f602082019050610ee25f830184610ec0565b92915050565b610ef181610c56565b8114610efb575f5ffd5b50565b5f81359050610f0c81610ee8565b92915050565b5f5f5f60608486031215610f2957610f28610caf565b5b5f610f3686828701610cfd565b9350506020610f4786828701610efe565b9250506040610f5886828701610d6b565b9150509250925092565b5f5ffd5b5f5ffd5b5f5ffd5b5f5f83601f840112610f8357610f82610f62565b5b8235905067ffffffffffffffff811115610fa057610f9f610f66565b5b602083019150836001820283011115610fbc57610fbb610f6a565b5b9250929050565b5f5f5f60408486031215610fda57610fd9610caf565b5b5f610fe786828701610cfd565b935050602084013567ffffffffffffffff81111561100857611007610cb3565b5b61101486828701610f6e565b92509250509250925092565b5f6020828403121561103557611034610caf565b5b5f61104284828501610d6b565b91505092915050565b7f4e487b71000000000000000000000000000000000000000000000000000000005f52602260045260245ffd5b5f600282049050600182168061108f57607f821691505b6020821081036110a2576110a161104b565b5b50919050565b5f819050815f5260205f209050919050565b5f81546110c681611078565b6110d08186610dee565b9450600182165f81146110ea576001811461110057611132565b60ff198316865281151560200286019350611132565b611109856110a8565b5f5b8381101561112a5781548189015260018201915060208101905061110b565b808801955050505b50505092915050565b5f6020820190508181035f83015261115381846110ba565b905092915050565b5f8151905061116981610ee8565b92915050565b5f8151905061117d81610d55565b92915050565b5f5f6040838503121561119957611198610caf565b5b5f6111a68582860161115b565b92505060206111b78582860161116f565b9150509250929050565b7f4e487b71000000000000000000000000000000000000000000000000000000005f52601160045260245ffd5b5f6111f882610c70565b915061120383610c70565b925082820190508082111561121b5761121a6111c1565b5b92915050565b5f61122b82610c70565b915061123683610c70565b925082820390508181111561124e5761124d6111c1565b5b92915050565b61125d81610cd6565b82525050565b5f6040820190506112765f830185611254565b6112836020830184610c79565b9392505050565b5f6020828403121561129f5761129e610caf565b5b5f6112ac8482850161115b565b91505092915050565b5f82825260208201905092915050565b7f7472616e736665722d6661696c656400000000000000000000000000000000005f82015250565b5f6112f9600f836112b5565b9150611304826112c5565b602082019050919050565b5f6020820190508181035f830152611326816112ed565b9050919050565b5f6060820190506113405f830186611254565b61134d6020830185611254565b61135a6040830184610c79565b949350505050565b7f7472616e7366657246726f6d2d6661696c6564000000000000000000000000005f82015250565b5f6113966013836112b5565b91506113a182611362565b602082019050919050565b5f6020820190508181035f8301526113c38161138a565b9050919050565b5f82905092915050565b7f4e487b71000000000000000000000000000000000000000000000000000000005f52604160045260245ffd5b5f6020601f8301049050919050565b5f82821b905092915050565b5f6008830261144b7fffffffffffffffffffffffffffffffffffffffffffffffffffffffffffffffff82611410565b6114558683611410565b95508019841693508086168417925050509392505050565b5f61148761148261147d84610c70565b610e74565b610c70565b9050919050565b5f819050919050565b6114a08361146d565b6114b46114ac8261148e565b84845461141c565b825550505050565b5f5f905090565b6114cb6114bc565b6114d6818484611497565b505050565b5b818110156114f9576114ee5f826114c3565b6001810190506114dc565b5050565b601f82111561153e5761150f816110a8565b61151884611401565b81016020851015611527578190505b61153b61153385611401565b8301826114db565b50505b505050565b5f82821c905092915050565b5f61155e5f1984600802611543565b1980831691505092915050565b5f611576838361154f565b9150826002028217905092915050565b61159083836113ca565b67ffffffffffffffff8111156115a9576115a86113d4565b5b6115b38254611078565b6115be8282856114fd565b5f601f8311600181146115eb575f84156115d9578287013590505b6115e3858261156b565b86555061164a565b601f1984166115f9866110a8565b5f5b82811015611620578489013582556001820191506020850194506020810190506115fb565b8683101561163d5784890135611639601f89168261154f565b8355505b6001600288020188555050505b50505050505050565b5f6020820190506116665f830184611254565b92915050565b5f6020828403121561168157611680610caf565b5b5f61168e8482850161116f565b91505092915050565b7f696e73756666696369656e742d6361706974616c0000000000000000000000005f82015250565b5f6116cb6014836112b5565b91506116d682611697565b602082019050919050565b5f6020820190508181035f8301526116f8816116bf565b9050919050565b5f61170982610c70565b915061171483610c70565b925082820261172281610c70565b91508282048414831517611739576117386111c1565b5b5092915050565b7f4e487b71000000000000000000000000000000000000000000000000000000005f52601260045260245ffd5b5f61177782610c70565b915061178283610c70565b92508261179257611791611740565b5b82820490509291505056fea2646970667358221220c841cc2adc336efb2b52b384d1a4673bbe6634c1905eb2575c0b09ceed11451064736f6c634300081e0033a2646970667358221220ffee7eb789edd75c0b43659f1e4e76d2f5c109b6ff93088fcac905854aa19ba764736f6c634300081e0033","linkReferences":{}},"methodIdentifiers":{"_loadLiveMetadata()":"02fae74d","activePair()":"efb8eed1","activeRouter()":"d22d7adb","bentoBoxAddress()":"eb77ff0f","borrowedAmount()":"1afbb7a4","collateralToken()":"b2016bd4","deployedClone()":"cbe85588","executeOnOpportunity()":"3c2448ed","hypothesisValidated()":"463defd1","profitAmount()":"5ff972cc","profitToken()":"49343624","receiveFlashLoan(address[],uint256[],uint256[],bytes)":"f04f2707","removedCollateralAmount()":"6768dc63","uniswapV2Call(address,uint256,uint256,bytes)":"10d1e85c","usedFlashLoan()":"92dfc015","withdrawnAmount()":"830de4b1","zeroRatePersistsAfterUpdate()":"09cebe00"},"id":0}