{"abi":[{"type":"function","name":"addCollateral","inputs":[{"name":"to","type":"address","internalType":"address"},{"name":"skim","type":"bool","internalType":"bool"},{"name":"share","type":"uint256","internalType":"uint256"}],"outputs":[],"stateMutability":"nonpayable"},{"type":"function","name":"availableAssetShare","inputs":[],"outputs":[{"name":"","type":"uint256","internalType":"uint256"}],"stateMutability":"view"},{"type":"function","name":"borrow","inputs":[{"name":"to","type":"address","internalType":"address"},{"name":"amount","type":"uint256","internalType":"uint256"}],"outputs":[{"name":"part","type":"uint256","internalType":"uint256"},{"name":"share","type":"uint256","internalType":"uint256"}],"stateMutability":"nonpayable"},{"type":"function","name":"claimableShare","inputs":[{"name":"","type":"address","internalType":"address"}],"outputs":[{"name":"","type":"uint256","internalType":"uint256"}],"stateMutability":"view"},{"type":"function","name":"exchangeRate","inputs":[],"outputs":[{"name":"","type":"uint256","internalType":"uint256"}],"stateMutability":"view"},{"type":"function","name":"init","inputs":[{"name":"oracle_","type":"address","internalType":"address"},{"name":"oracleData_","type":"bytes","internalType":"bytes"}],"outputs":[],"stateMutability":"nonpayable"},{"type":"function","name":"oracle","inputs":[],"outputs":[{"name":"","type":"address","internalType":"contract IOracleLike"}],"stateMutability":"view"},{"type":"function","name":"oracleData","inputs":[],"outputs":[{"name":"","type":"bytes","internalType":"bytes"}],"stateMutability":"view"},{"type":"function","name":"removeCollateral","inputs":[{"name":"to","type":"address","internalType":"address"},{"name":"share","type":"uint256","internalType":"uint256"}],"outputs":[],"stateMutability":"nonpayable"},{"type":"function","name":"seedLiquidity","inputs":[{"name":"share","type":"uint256","internalType":"uint256"}],"outputs":[],"stateMutability":"nonpayable"},{"type":"function","name":"totalCollateralShare","inputs":[],"outputs":[{"name":"","type":"uint256","internalType":"uint256"}],"stateMutability":"view"},{"type":"function","name":"updateExchangeRate","inputs":[],"outputs":[{"name":"updated","type":"bool","internalType":"bool"},{"name":"rate","type":"uint256","internalType":"uint256"}],"stateMutability":"nonpayable"},{"type":"function","name":"userBorrowPart","inputs":[{"name":"","type":"address","internalType":"address"}],"outputs":[{"name":"","type":"uint256","internalType":"uint256"}],"stateMutability":"view"},{"type":"function","name":"userCollateralShare","inputs":[{"name":"","type":"address","internalType":"address"}],"outputs":[{"name":"","type":"uint256","internalType":"uint256"}],"stateMutability":"view"},{"type":"error","name":"Insolvent","inputs":[]},{"type":"error","name":"InsufficientLiquidity","inputs":[]},{"type":"error","name":"SkimTooMuch","inputs":[]}],"bytecode":{"object":"0x6080604052348015600e575f5ffd5b506117d38061001c5f395ff3fe608060405234801561000f575f5ffd5b50600436106100e8575f3560e01c80637dc0d1d01161008a57806387d283e41161006457806387d283e41461024c57806393697f841461027c578063c0d91eaf1461029a578063c57fed13146102b6576100e8565b80637dc0d1d0146101f6578063860ffea114610214578063876467f814610230576100e8565b8063473e3ce7116100c6578063473e3ce71461015957806348e4163e146101775780634b8a3529146101a757806374645ff3146101d8576100e8565b806302ce728f146100ec5780631c9e379b1461010b5780633ba0b9a91461013b575b5f5ffd5b6100f46102d2565b604051610102929190610c88565b60405180910390f35b61012560048036038101906101209190610d11565b610390565b6040516101329190610d3c565b60405180910390f35b6101436103a5565b6040516101509190610d3c565b60405180910390f35b6101616103ab565b60405161016e9190610d3c565b60405180910390f35b610191600480360381019061018c9190610d11565b6103b1565b60405161019e9190610d3c565b60405180910390f35b6101c160048036038101906101bc9190610d7f565b6103c6565b6040516101cf929190610dbd565b60405180910390f35b6101e06105df565b6040516101ed9190610e54565b60405180910390f35b6101fe61066b565b60405161020b9190610ecf565b60405180910390f35b61022e60048036038101906102299190610f12565b61068f565b005b61024a60048036038101906102459190610d7f565b61082f565b005b61026660048036038101906102619190610d11565b6109ae565b6040516102739190610d3c565b60405180910390f35b6102846109c3565b6040516102919190610d3c565b60405180910390f35b6102b460048036038101906102af9190610fc3565b6109c9565b005b6102d060048036038101906102cb9190611020565b610a1f565b005b5f5f5f5f9054906101000a900473ffffffffffffffffffffffffffffffffffffffff1673ffffffffffffffffffffffffffffffffffffffff1663eeb8a8d360016040518263ffffffff1660e01b815260040161032e919061113b565b6040805180830381865afa158015610348573d5f5f3e3d5ffd5b505050506040513d601f19601f8201168201806040525081019061036c9190611183565b80925081935050508115610386578060028190555061038c565b60025490505b9091565b6006602052805f5260405f205f915090505481565b60025481565b60035481565b6005602052805f5260405f205f915090505481565b5f5f826004541015610404576040517fbb55fd2700000000000000000000000000000000000000000000000000000000815260040160405180910390fd5b8260055f3373ffffffffffffffffffffffffffffffffffffffff1673ffffffffffffffffffffffffffffffffffffffff1681526020019081526020015f205f82825461045091906111ee565b9250508190555061046333600254610b27565b610499576040517ffc22003800000000000000000000000000000000000000000000000000000000815260040160405180910390fd5b8260045f8282546104aa9190611221565b925050819055508260075f8673ffffffffffffffffffffffffffffffffffffffff1673ffffffffffffffffffffffffffffffffffffffff1681526020019081526020015f205f8282546104fd91906111ee565b925050819055507399d8a9c45b2eca8864373a26d1459e3dff1e17f373ffffffffffffffffffffffffffffffffffffffff1663a9059cbb85856040518363ffffffff1660e01b8152600401610553929190611263565b6020604051808303815f875af115801561056f573d5f5f3e3d5ffd5b505050506040513d601f19601f82011682018060405250810190610593919061128a565b6105d2576040517f08c379a00000000000000000000000000000000000000000000000000000000081526004016105c99061130f565b60405180910390fd5b8291508290509250929050565b600180546105ec90611078565b80601f016020809104026020016040519081016040528092919081815260200182805461061890611078565b80156106635780601f1061063a57610100808354040283529160200191610663565b820191905f5260205f20905b81548152906001019060200180831161064657829003601f168201915b505050505081565b5f5f9054906101000a900473ffffffffffffffffffffffffffffffffffffffff1681565b81156106ee578060045410156106d1576040517fb8ceb00b00000000000000000000000000000000000000000000000000000000815260040160405180910390fd5b8060045f8282546106e29190611221565b925050819055506107bf565b7399d8a9c45b2eca8864373a26d1459e3dff1e17f373ffffffffffffffffffffffffffffffffffffffff166323b872dd3330846040518463ffffffff1660e01b815260040161073f9392919061132d565b6020604051808303815f875af115801561075b573d5f5f3e3d5ffd5b505050506040513d601f19601f8201168201806040525081019061077f919061128a565b6107be576040517f08c379a00000000000000000000000000000000000000000000000000000000081526004016107b5906113ac565b60405180910390fd5b5b8060065f8573ffffffffffffffffffffffffffffffffffffffff1673ffffffffffffffffffffffffffffffffffffffff1681526020019081526020015f205f82825461080b91906111ee565b925050819055508060035f82825461082391906111ee565b92505081905550505050565b8060065f3373ffffffffffffffffffffffffffffffffffffffff1673ffffffffffffffffffffffffffffffffffffffff1681526020019081526020015f205f82825461087b9190611221565b925050819055508060035f8282546108939190611221565b925050819055506108a633600254610b27565b6108dc576040517ffc22003800000000000000000000000000000000000000000000000000000000815260040160405180910390fd5b7399d8a9c45b2eca8864373a26d1459e3dff1e17f373ffffffffffffffffffffffffffffffffffffffff1663a9059cbb83836040518363ffffffff1660e01b815260040161092b929190611263565b6020604051808303815f875af1158015610947573d5f5f3e3d5ffd5b505050506040513d601f19601f8201168201806040525081019061096b919061128a565b6109aa576040517f08c379a00000000000000000000000000000000000000000000000000000000081526004016109a19061130f565b60405180910390fd5b5050565b6007602052805f5260405f205f915090505481565b60045481565b825f5f6101000a81548173ffffffffffffffffffffffffffffffffffffffff021916908373ffffffffffffffffffffffffffffffffffffffff160217905550818160019182610a19929190611586565b50505050565b5f7399d8a9c45b2eca8864373a26d1459e3dff1e17f373ffffffffffffffffffffffffffffffffffffffff166370a08231306040518263ffffffff1660e01b8152600401610a6d9190611653565b602060405180830381865afa158015610a88573d5f5f3e3d5ffd5b505050506040513d601f19601f82011682018060405250810190610aac919061166c565b905081600354600454610abf91906111ee565b610ac991906111ee565b811015610b0b576040517f08c379a0000000000000000000000000000000000000000000000000000000008152600401610b02906116e1565b60405180910390fd5b8160045f828254610b1c91906111ee565b925050819055505050565b5f5f60055f8573ffffffffffffffffffffffffffffffffffffffff1673ffffffffffffffffffffffffffffffffffffffff1681526020019081526020015f205490505f8103610b7a576001915050610c50565b5f60065f8673ffffffffffffffffffffffffffffffffffffffff1673ffffffffffffffffffffffffffffffffffffffff1681526020019081526020015f205403610bc7575f915050610c50565b5f670de0b6b3a76400008483610bdd91906116ff565b610be7919061176d565b90505f620186a0620124f860065f8973ffffffffffffffffffffffffffffffffffffffff1673ffffffffffffffffffffffffffffffffffffffff1681526020019081526020015f2054610c3a91906116ff565b610c44919061176d565b90508181101593505050505b92915050565b5f8115159050919050565b610c6a81610c56565b82525050565b5f819050919050565b610c8281610c70565b82525050565b5f604082019050610c9b5f830185610c61565b610ca86020830184610c79565b9392505050565b5f5ffd5b5f5ffd5b5f73ffffffffffffffffffffffffffffffffffffffff82169050919050565b5f610ce082610cb7565b9050919050565b610cf081610cd6565b8114610cfa575f5ffd5b50565b5f81359050610d0b81610ce7565b92915050565b5f60208284031215610d2657610d25610caf565b5b5f610d3384828501610cfd565b91505092915050565b5f602082019050610d4f5f830184610c79565b92915050565b610d5e81610c70565b8114610d68575f5ffd5b50565b5f81359050610d7981610d55565b92915050565b5f5f60408385031215610d9557610d94610caf565b5b5f610da285828601610cfd565b9250506020610db385828601610d6b565b9150509250929050565b5f604082019050610dd05f830185610c79565b610ddd6020830184610c79565b9392505050565b5f81519050919050565b5f82825260208201905092915050565b8281835e5f83830152505050565b5f601f19601f8301169050919050565b5f610e2682610de4565b610e308185610dee565b9350610e40818560208601610dfe565b610e4981610e0c565b840191505092915050565b5f6020820190508181035f830152610e6c8184610e1c565b905092915050565b5f819050919050565b5f610e97610e92610e8d84610cb7565b610e74565b610cb7565b9050919050565b5f610ea882610e7d565b9050919050565b5f610eb982610e9e565b9050919050565b610ec981610eaf565b82525050565b5f602082019050610ee25f830184610ec0565b92915050565b610ef181610c56565b8114610efb575f5ffd5b50565b5f81359050610f0c81610ee8565b92915050565b5f5f5f60608486031215610f2957610f28610caf565b5b5f610f3686828701610cfd565b9350506020610f4786828701610efe565b9250506040610f5886828701610d6b565b9150509250925092565b5f5ffd5b5f5ffd5b5f5ffd5b5f5f83601f840112610f8357610f82610f62565b5b8235905067ffffffffffffffff811115610fa057610f9f610f66565b5b602083019150836001820283011115610fbc57610fbb610f6a565b5b9250929050565b5f5f5f60408486031215610fda57610fd9610caf565b5b5f610fe786828701610cfd565b935050602084013567ffffffffffffffff81111561100857611007610cb3565b5b61101486828701610f6e565b92509250509250925092565b5f6020828403121561103557611034610caf565b5b5f61104284828501610d6b565b91505092915050565b7f4e487b71000000000000000000000000000000000000000000000000000000005f52602260045260245ffd5b5f600282049050600182168061108f57607f821691505b6020821081036110a2576110a161104b565b5b50919050565b5f819050815f5260205f209050919050565b5f81546110c681611078565b6110d08186610dee565b9450600182165f81146110ea576001811461110057611132565b60ff198316865281151560200286019350611132565b611109856110a8565b5f5b8381101561112a5781548189015260018201915060208101905061110b565b808801955050505b50505092915050565b5f6020820190508181035f83015261115381846110ba565b905092915050565b5f8151905061116981610ee8565b92915050565b5f8151905061117d81610d55565b92915050565b5f5f6040838503121561119957611198610caf565b5b5f6111a68582860161115b565b92505060206111b78582860161116f565b9150509250929050565b7f4e487b71000000000000000000000000000000000000000000000000000000005f52601160045260245ffd5b5f6111f882610c70565b915061120383610c70565b925082820190508082111561121b5761121a6111c1565b5b92915050565b5f61122b82610c70565b915061123683610c70565b925082820390508181111561124e5761124d6111c1565b5b92915050565b61125d81610cd6565b82525050565b5f6040820190506112765f830185611254565b6112836020830184610c79565b9392505050565b5f6020828403121561129f5761129e610caf565b5b5f6112ac8482850161115b565b91505092915050565b5f82825260208201905092915050565b7f7472616e736665722d6661696c656400000000000000000000000000000000005f82015250565b5f6112f9600f836112b5565b9150611304826112c5565b602082019050919050565b5f6020820190508181035f830152611326816112ed565b9050919050565b5f6060820190506113405f830186611254565b61134d6020830185611254565b61135a6040830184610c79565b949350505050565b7f7472616e7366657246726f6d2d6661696c6564000000000000000000000000005f82015250565b5f6113966013836112b5565b91506113a182611362565b602082019050919050565b5f6020820190508181035f8301526113c38161138a565b9050919050565b5f82905092915050565b7f4e487b71000000000000000000000000000000000000000000000000000000005f52604160045260245ffd5b5f6020601f8301049050919050565b5f82821b905092915050565b5f6008830261144b7fffffffffffffffffffffffffffffffffffffffffffffffffffffffffffffffff82611410565b6114558683611410565b95508019841693508086168417925050509392505050565b5f61148761148261147d84610c70565b610e74565b610c70565b9050919050565b5f819050919050565b6114a08361146d565b6114b46114ac8261148e565b84845461141c565b825550505050565b5f5f905090565b6114cb6114bc565b6114d6818484611497565b505050565b5b818110156114f9576114ee5f826114c3565b6001810190506114dc565b5050565b601f82111561153e5761150f816110a8565b61151884611401565b81016020851015611527578190505b61153b61153385611401565b8301826114db565b50505b505050565b5f82821c905092915050565b5f61155e5f1984600802611543565b1980831691505092915050565b5f611576838361154f565b9150826002028217905092915050565b61159083836113ca565b67ffffffffffffffff8111156115a9576115a86113d4565b5b6115b38254611078565b6115be8282856114fd565b5f601f8311600181146115eb575f84156115d9578287013590505b6115e3858261156b565b86555061164a565b601f1984166115f9866110a8565b5f5b82811015611620578489013582556001820191506020850194506020810190506115fb565b8683101561163d5784890135611639601f89168261154f565b8355505b6001600288020188555050505b50505050505050565b5f6020820190506116665f830184611254565b92915050565b5f6020828403121561168157611680610caf565b5b5f61168e8482850161116f565b91505092915050565b7f696e73756666696369656e742d6361706974616c0000000000000000000000005f82015250565b5f6116cb6014836112b5565b91506116d682611697565b602082019050919050565b5f6020820190508181035f8301526116f8816116bf565b9050919050565b5f61170982610c70565b915061171483610c70565b925082820261172281610c70565b91508282048414831517611739576117386111c1565b5b5092915050565b7f4e487b71000000000000000000000000000000000000000000000000000000005f52601260045260245ffd5b5f61177782610c70565b915061178283610c70565b92508261179257611791611740565b5b82820490509291505056fea2646970667358221220c841cc2adc336efb2b52b384d1a4673bbe6634c1905eb2575c0b09ceed11451064736f6c634300081e0033","linkReferences":{}},"methodIdentifiers":{"addCollateral(address,bool,uint256)":"860ffea1","availableAssetShare()":"93697f84","borrow(address,uint256)":"4b8a3529","claimableShare(address)":"87d283e4","exchangeRate()":"3ba0b9a9","init(address,bytes)":"c0d91eaf","oracle()":"7dc0d1d0","oracleData()":"74645ff3","removeCollateral(address,uint256)":"876467f8","seedLiquidity(uint256)":"c57fed13","totalCollateralShare()":"473e3ce7","updateExchangeRate()":"02ce728f","userBorrowPart(address)":"48e4163e","userCollateralShare(address)":"1c9e379b"},"id":0}