{"abi":[{"type":"constructor","inputs":[],"stateMutability":"payable"},{"type":"receive","stateMutability":"payable"},{"type":"function","name":"DAI","inputs":[],"outputs":[{"name":"","type":"address","internalType":"address"}],"stateMutability":"view"},{"type":"function","name":"SUSHISWAP_FACTORY","inputs":[],"outputs":[{"name":"","type":"address","internalType":"address"}],"stateMutability":"view"},{"type":"function","name":"SUSHISWAP_ROUTER","inputs":[],"outputs":[{"name":"","type":"address","internalType":"address"}],"stateMutability":"view"},{"type":"function","name":"TARGET","inputs":[],"outputs":[{"name":"","type":"address","internalType":"address"}],"stateMutability":"view"},{"type":"function","name":"UNISWAP_V2_FACTORY","inputs":[],"outputs":[{"name":"","type":"address","internalType":"address"}],"stateMutability":"view"},{"type":"function","name":"UNISWAP_V2_ROUTER","inputs":[],"outputs":[{"name":"","type":"address","internalType":"address"}],"stateMutability":"view"},{"type":"function","name":"UNISWAP_V3_FACTORY","inputs":[],"outputs":[{"name":"","type":"address","internalType":"address"}],"stateMutability":"view"},{"type":"function","name":"UNISWAP_V3_ROUTER","inputs":[],"outputs":[{"name":"","type":"address","internalType":"address"}],"stateMutability":"view"},{"type":"function","name":"USDC","inputs":[],"outputs":[{"name":"","type":"address","internalType":"address"}],"stateMutability":"view"},{"type":"function","name":"USDT","inputs":[],"outputs":[{"name":"","type":"address","internalType":"address"}],"stateMutability":"view"},{"type":"function","name":"WETH","inputs":[],"outputs":[{"name":"","type":"address","internalType":"address"}],"stateMutability":"view"},{"type":"function","name":"deploymentBlock","inputs":[],"outputs":[{"name":"","type":"uint256","internalType":"uint256"}],"stateMutability":"view"},{"type":"function","name":"duplicatedPointProfit","inputs":[],"outputs":[{"name":"","type":"uint256","internalType":"uint256"}],"stateMutability":"view"},{"type":"function","name":"executeOnOpportunity","inputs":[],"outputs":[],"stateMutability":"nonpayable"},{"type":"function","name":"executed","inputs":[],"outputs":[{"name":"","type":"bool","internalType":"bool"}],"stateMutability":"view"},{"type":"function","name":"exploitPathUsed","inputs":[],"outputs":[{"name":"","type":"string","internalType":"string"}],"stateMutability":"pure"},{"type":"function","name":"exploitTriggered","inputs":[],"outputs":[{"name":"","type":"bool","internalType":"bool"}],"stateMutability":"view"},{"type":"function","name":"failureReason","inputs":[],"outputs":[{"name":"","type":"string","internalType":"string"}],"stateMutability":"view"},{"type":"function","name":"finalPointBalance","inputs":[],"outputs":[{"name":"","type":"uint256","internalType":"uint256"}],"stateMutability":"view"},{"type":"function","name":"finalReentryCount","inputs":[],"outputs":[{"name":"","type":"uint256","internalType":"uint256"}],"stateMutability":"view"},{"type":"function","name":"hypothesisRefuted","inputs":[],"outputs":[{"name":"","type":"bool","internalType":"bool"}],"stateMutability":"view"},{"type":"function","name":"hypothesisValidated","inputs":[],"outputs":[{"name":"","type":"bool","internalType":"bool"}],"stateMutability":"view"},{"type":"function","name":"legitimateMint","inputs":[],"outputs":[{"name":"","type":"uint256","internalType":"uint256"}],"stateMutability":"view"},{"type":"function","name":"pendingBeforeExploit","inputs":[],"outputs":[{"name":"","type":"uint256","internalType":"uint256"}],"stateMutability":"view"},{"type":"function","name":"profitAmount","inputs":[],"outputs":[{"name":"","type":"uint256","internalType":"uint256"}],"stateMutability":"view"},{"type":"function","name":"profitToken","inputs":[],"outputs":[{"name":"","type":"address","internalType":"address"}],"stateMutability":"view"},{"type":"function","name":"seedBlock","inputs":[],"outputs":[{"name":"","type":"uint256","internalType":"uint256"}],"stateMutability":"view"},{"type":"function","name":"seededAmount","inputs":[],"outputs":[{"name":"","type":"uint256","internalType":"uint256"}],"stateMutability":"view"},{"type":"function","name":"seededAtDeployment","inputs":[],"outputs":[{"name":"","type":"bool","internalType":"bool"}],"stateMutability":"view"},{"type":"function","name":"seededPid","inputs":[],"outputs":[{"name":"","type":"uint256","internalType":"uint256"}],"stateMutability":"view"},{"type":"function","name":"seededToken","inputs":[],"outputs":[{"name":"","type":"address","internalType":"address"}],"stateMutability":"view"},{"type":"function","name":"staker","inputs":[],"outputs":[{"name":"","type":"address","internalType":"contract ReentrantStaker"}],"stateMutability":"view"}],"bytecode":{"object":"0x60c060408190524360a052610fd9808201906001600160401b03821183831017610110576040918391617bdd83395f516020618c565f395f51905f5281523060208201520301905ff080156101055760805261005c600c54610124565b601f81116100d0575b600e663737ba16b93ab760c91b01600c5561007e6101b5565b60405161470390816134da823960805181818161060701528181610a0a01528181611253015281816113da015281816116bc01528181611bbd01528181611d8c01526120d1015260a051816105b20152f35b600c5f52601f0160051c5f516020618bb65f395f51905f52908101905b8181106100fa5750610065565b5f81556001016100ed565b6040513d5f823e3d90fd5b634e487b7160e01b5f52604160045260245ffd5b90600182811c92168015610152575b602083101461013e57565b634e487b7160e01b5f52602260045260245ffd5b91607f1691610133565b606081019081106001600160401b0382111761011057604052565b604081019081106001600160401b0382111761011057604052565b601f909101601f19168101906001600160401b0382119082101761011057604052565b60ff60025460081c1661041b576101ca61041d565b80156103aa575f5b81811061024b5750506101e6600c54610124565b601f8111610216575b507f6e6f2d7075626c69632d736565642d726f7574652d666f756e64000000000034600c55565b600c5f52601f0160051c5f516020618bb65f395f51905f52908101905b81811061024057506101ef565b5f8155600101610233565b6102548161049d565b50506001600160a01b03811690811580156103a1575b61039757610278908361052d565b61028757506001905b016101d2565b6002805461ff0019166101001790556003829055600480546001600160a01b031916909117815560805160405163169167b560e21b8152918201929092529150602090829060249082906001600160a01b03165afa908115610105575f91610362575b50600555436006556102fd600c54610124565b601f811161032d575b507f7365656465642d6177616974696e672d70656e64696e672d706f696e7473003c600c55565b600c5f52601f0160051c5f516020618bb65f395f51905f52908101905b8181106103575750610306565b5f815560010161034a565b90506020813d821161038f575b8161037c60209383610192565b8101031261038b57515f6102ea565b5f80fd5b3d915061036f565b5050600190610281565b50803b1561026a565b506103b6600c54610124565b601f81116103e6575b507f706f6f6c2d646973636f766572792d6661696c6564000000000000000000002a600c55565b600c5f52601f0160051c5f516020618bb65f395f51905f52908101905b81811061041057506103bf565b5f8155600101610403565b565b60405163040f1f6d60e11b81526020816004815f516020618c565f395f51905f525afa5f9181610455575b5061045257505f90565b90565b9091506020813d602011610481575b8161047160209383610192565b8101031261038b5751905f610448565b3d9150610464565b51906001600160a01b038216820361038b57565b60405190631526fe2760e01b825260048201526060816024815f516020618c565f395f51905f525afa5f815f935f936104e4575b506104e1575050505f905f905f90565b92565b93509150506060823d606011610525575b8161050260609383610192565b8101031261038b5761051382610489565b6020830151604090930151915f6104d1565b3d91506104f5565b906024602060018060a01b03608051166040519283809263169167b560e21b82528760048301525afa908115610105575f91610988575b50610843575f806040516020810190634e71d92d60e01b82526004815261058c602482610192565b519082855af15061059b611375565b505f806040516020810190630f41a04d60e11b8252306024820152602481526105c5604482610192565b519082855af1506105d4611375565b505f8060405160208101906348c54b9d60e01b8252600481526105f8602482610192565b519082855af150610607611375565b505f80604051602081019063df8de3e760e01b825230602482015260248152610631604482610192565b519082855af150610640611375565b505f806040516020810190631e8c5c8960e11b825260048152610664602482610192565b519082855af150610673611375565b505f806040516020810190630c00007b60e41b82523060248201526024815261069d604482610192565b519082855af1506106ac611375565b505f806040516020810190631249c58b60e01b8252600481526106d0602482610192565b519082855af1506106df611375565b505f8060405160208101906335313c2160e11b825230602482015260248152610709604482610192565b519082855af150610718611375565b505f80604051602081019063e522538160e01b82526004815261073c602482610192565b519082855af15061074b611375565b505f80604051602081019062dd82df60e31b825230602482015260248152610774604482610192565b519082855af150610783611375565b505f806040516020810190634fb3c66560e11b8252600481526107a7602482610192565b519082855af1506107b6611375565b505f80604051602081019063de5f72fd60e01b8252600481526107da602482610192565b519082855af1506107e9611375565b506107f26113b3565b6001600160a01b03811661085a575b5061080c81836109db565b6108435761081981610d92565b8061084a575b6108435761082d8183610efc565b610843576104529161083e82611158565b6109db565b5050600190565b5061085581836109db565b61081f565b5f809161086684611423565b82806040516020810190634e71d92d60e01b825260048152610889602482610192565b519082865af150610898611375565b508280604051602081019063379607f560e01b8252846024820152602481526108c2604482610192565b519082865af1506108d1611375565b50828060405192818060208601630f41a04d60e11b815260018060a01b038b169687602482015260248152610907604482610192565b519082895af150610916611375565b506040516020810191636cb504a560e11b835260248201526024815261093d604482610192565b519082865af15061094c611375565b5082604051602081019263f088d54760e01b8452602482015260248152610974604482610192565b51925af150610981611375565b505f610801565b90506020813d6020116109b2575b816109a360209383610192565b8101031261038b57515f610564565b3d9150610996565b919082039182116109c757565b634e487b7160e01b5f52601160045260245ffd5b6040516370a0823160e01b81523060048201525f926001600160a01b03811691602081602481865afa908115610105575f91610d60575b505f516020618bd65f395f51905f5283148181610d57575b5080610d4e575b610c90575b8015610c4e576080516040516370a0823160e01b81526001600160a01b03909116600482015290602082602481875afa918215610c43578692610c0d575b506080519192610a8d926001600160a01b03169061147f565b6080516040516370a0823160e01b81526001600160a01b03909116600482015290602082602481865afa8015610c02578590610bce575b610ace92506109ba565b8015610bc8576080516001600160a01b031691823b15610bc4579060648592836040519586948593637f900de360e11b8552896004860152602485015260448401525af18015610bb957908391610ba0575b505060805160405163169167b560e21b81526004810192909252602090829060249082906001600160a01b03165afa918215610b945791610b62575b50151590565b90506020813d602011610b8c575b81610b7d60209383610192565b8101031261038b57515f610b5c565b3d9150610b70565b604051903d90823e3d90fd5b81610baa91610192565b610bb557815f610b20565b5080fd5b6040513d85823e3d90fd5b8480fd5b50505090565b506020823d602011610bfa575b81610be860209383610192565b8101031261038b57610ace9151610ac4565b3d9150610bdb565b6040513d87823e3d90fd5b91506020823d602011610c3b575b81610c2860209383610192565b8101031261038b57610a8d915191610a74565b3d9150610c1b565b6040513d88823e3d90fd5b505060805160405163169167b560e21b8152600481019390935260209150829060249082906001600160a01b03165afa918215610b945791610b625750151590565b50475f516020618bd65f395f51905f523b1561038b575f60049160405192838092630d0e30db60e41b82525f516020618bd65f395f51905f525af1801561010557610d39575b506040516370a0823160e01b8152306004820152602081602481865afa908115610c02578591610d07575b50610a36565b90506020813d602011610d31575b81610d2260209383610192565b8101031261038b57515f610d01565b3d9150610d15565b610d469194505f90610192565b5f925f610cd6565b50471515610a31565b9050155f610a2a565b90506020813d602011610d8a575b81610d7b60209383610192565b8101031261038b57515f610a12565b3d9150610d6e565b5f906001600160a01b0381165f516020618bd65f395f51905f5214610e5c5747610df4575b610dc08161156c565b61084357610dcd81611761565b61084357610dda81611948565b61084357610de790611b2f565b610dee5790565b50600190565b475f516020618bd65f395f51905f523b15610e58578260049160405192838092630d0e30db60e41b82525f516020618bd65f395f51905f525af18015610bb957908391610e43575b5050610db7565b81610e4d91610192565b610bb557815f610e3c565b8280fd5b5047610e9e575b6040516370a0823160e01b81523060048201526020816024815f516020618bd65f395f51905f525afa918215610b945791610b625750151590565b475f516020618bd65f395f51905f523b1561038b575f60049160405192838092630d0e30db60e41b82525f516020618bd65f395f51905f525af1801561010557610ee9575b50610e63565b610ef591505f90610192565b5f5f610ee3565b5f9147158015611139575b801561111a575b80156110fb575b80156110dc575b6110d557610f2981611d27565b506001600160a01b03821692919083159081156110b4575b506110ab5781610f50916120a1565b909391924793610f618682876122d5565b95861580156110a1575b61109457610f799187612347565b93841590811561108a575b5061107f576080516001600160a01b031693843b1561038b575f9460c49360405197889687956338ef9a7760e21b87528b600488015260018060a01b0316602487015260448601526064850152826084850152151560a48401525af1908161106a575b5061102b5760805160405163169167b560e21b81526004810192909252602090829060249082906001600160a01b03165afa918215610b945791610b625750151590565b60805160405163169167b560e21b81526004810192909252602090829060249082906001600160a01b03165afa918215610b945791610b625750151590565b6110779193505f90610192565b5f915f610fe7565b505050505050505f90565b905084115f610f84565b5050505050505050505f90565b5080871015610f6b565b50505050505f90565b6001600160a01b03165f516020618bd65f395f51905f52141590505f610f41565b5050505f90565b506001600160a01b0381165f516020618bf65f395f51905f5214610f1c565b506001600160a01b0381165f516020618c365f395f51905f5214610f15565b506001600160a01b0381165f516020618c165f395f51905f5214610f0e565b506001600160a01b0381165f516020618bd65f395f51905f5214610f07565b6001600160a01b0381165f516020618bd65f395f51905f521461131c5761117e81610d92565b6112145761118b81611d27565b9092916001600160a01b03811615801561130b575b6112b4576001600160a01b0384165f516020618bd65f395f51905f52811461126957906020602492604051938480926370a0823160e01b82523060048301525afa918215610105575f92611235575b508161122957505047151580611217575b61120957505050565b6112149247926127f2565b50565b506001600160a01b0381161515611200565b91909261121494612762565b9091506020813d602011611261575b8161125160209383610192565b8101031261038b5751905f6111ef565b3d9150611244565b5090919250478061130157506040516370a0823160e01b8152306004820152916020836024815f516020618bd65f395f51905f525afa928315610105575f936112cd575b50826112ba575b50505050565b6112c3936125f2565b505f8080806112b4565b9092506020813d6020116112f9575b816112e960209383610192565b8101031261038b5751915f6112ad565b3d91506112dc565b916112149361245f565b506001600160a01b038416156111a0565b504761132457565b475f516020618bd65f395f51905f523b1561038b575f60049160405192838092630d0e30db60e41b82525f516020618bd65f395f51905f525af180156101055761136b5750565b5f61041b91610192565b3d156113ae573d906001600160401b03821161011057604051916113a3601f8201601f191660200184610192565b82523d5f602084013e565b606090565b604051630881fa0d60e01b81526020816004815f516020618c565f395f51905f525afa5f91816113e7575061045257505f90565b9091506020813d60201161141b575b8161140360209383610192565b8101031261038b5761141490610489565b905f610448565b3d91506113f6565b604051632f30448f60e21b81526001600160a01b0390911660048201526020816024815f516020618c565f395f51905f525afa5f9181610455575061045257505f90565b9081602091031261038b5751801515810361038b5790565b60405163a9059cbb60e01b602082019081526001600160a01b03909316602482015260448101939093525f9283929083906114c781606481015b03601f198101835282610192565b51925af16114d3611375565b81611518575b50156114e157565b60405162461bcd60e51b815260206004820152600f60248201526e1514905394d1915497d19052531151608a1b6044820152606490fd5b805180159250821561152d575b50505f6114d9565b6115409250602080918301019101611467565b5f80611525565b9060038110156115585760051b0190565b634e487b7160e01b5f52603260045260245ffd5b6040516370a0823160e01b81523060048201526020816024815f516020618bd65f395f51905f525afa908115610105575f9161172f575b5080158015611710575b61170a576115c990825f516020618bd65f395f51905f52612952565b610dee57604051906115da8261015c565b5f516020618c165f395f51905f5282525f516020618c365f395f51905f5260208301525f516020618bf65f395f51905f5260408301525f5b60038110611621575050505f90565b6001600160a01b036116338285611547565b51166001600160a01b038316811480156116f4575b6116eb576040516370a0823160e01b8152306004820152906020826024815f516020618bd65f395f51905f525afa9081156101055784905f926116b4575b61169e93505f516020618bd65f395f51905f52612c3e565b6116ac576001905b01611612565b505050600190565b9150506020823d82116116e3575b816116cf60209383610192565b8101031261038b578361169e925191611686565b3d91506116c2565b506001906116a6565b505f516020618bd65f395f51905f528114611648565b50505f90565b505f516020618bd65f395f51905f526001600160a01b038316146115ad565b90506020813d602011611759575b8161174a60209383610192565b8101031261038b57515f6115a3565b3d915061173d565b6040516370a0823160e01b81523060048201526020816024815f516020618c165f395f51905f525afa908115610105575f91611916575b50801580156118f7575b61170a576117be90825f516020618c165f395f51905f52612952565b610dee57604051906117cf8261015c565b5f516020618c165f395f51905f5282525f516020618c365f395f51905f5260208301525f516020618bf65f395f51905f5260408301525f5b60038110611816575050505f90565b6001600160a01b036118288285611547565b51166001600160a01b038316811480156118e1575b6118d8576040516370a0823160e01b8152306004820152906020826024815f516020618c165f395f51905f525afa9081156101055784905f926118a1575b61189393505f516020618c165f395f51905f52612c3e565b6116ac576001905b01611807565b9150506020823d82116118d0575b816118bc60209383610192565b8101031261038b578361189392519161187b565b3d91506118af565b5060019061189b565b505f516020618c165f395f51905f52811461183d565b505f516020618c165f395f51905f526001600160a01b038316146117a2565b90506020813d602011611940575b8161193160209383610192565b8101031261038b57515f611798565b3d9150611924565b6040516370a0823160e01b81523060048201526020816024815f516020618c365f395f51905f525afa908115610105575f91611afd575b5080158015611ade575b61170a576119a590825f516020618c365f395f51905f52612952565b610dee57604051906119b68261015c565b5f516020618c165f395f51905f5282525f516020618c365f395f51905f5260208301525f516020618bf65f395f51905f5260408301525f5b600381106119fd575050505f90565b6001600160a01b03611a0f8285611547565b51166001600160a01b03831681148015611ac8575b611abf576040516370a0823160e01b8152306004820152906020826024815f516020618c365f395f51905f525afa9081156101055784905f92611a88575b611a7a93505f516020618c365f395f51905f52612c3e565b6116ac576001905b016119ee565b9150506020823d8211611ab7575b81611aa360209383610192565b8101031261038b5783611a7a925191611a62565b3d9150611a96565b50600190611a82565b505f516020618c365f395f51905f528114611a24565b505f516020618c365f395f51905f526001600160a01b03831614611989565b90506020813d602011611b27575b81611b1860209383610192565b8101031261038b57515f61197f565b3d9150611b0b565b6040516370a0823160e01b81523060048201526020816024815f516020618bf65f395f51905f525afa908115610105575f91611ce4575b5080158015611cc5575b61170a57611b8c90825f516020618bf65f395f51905f52612952565b610dee5760405190611b9d8261015c565b5f516020618c165f395f51905f5282525f516020618c365f395f51905f5260208301525f516020618bf65f395f51905f5260408301525f5b60038110611be4575050505f90565b6001600160a01b03611bf68285611547565b51166001600160a01b03831681148015611caf575b611ca6576040516370a0823160e01b8152306004820152906020826024815f516020618bf65f395f51905f525afa9081156101055784905f92611c6f575b611c6193505f516020618bf65f395f51905f52612c3e565b6116ac576001905b01611bd5565b9150506020823d8211611c9e575b81611c8a60209383610192565b8101031261038b5783611c61925191611c49565b3d9150611c7d565b50600190611c69565b505f516020618bf65f395f51905f528114611c0b565b505f516020618bf65f395f51905f526001600160a01b03831614611b70565b90506020813d602011611d0e575b81611cff60209383610192565b8101031261038b57515f611b66565b3d9150611cf2565b9060028110156115585760051b0190565b6040515f9283928392608081016001600160401b03811182821017610110576040525f516020618bd65f395f51905f5281525f516020618c165f395f51905f5260208201525f516020618c365f395f51905f5260408201525f516020618bf65f395f51905f52606082015260405191611d9f83610177565b735c69bee701ef814a2b6a3edd4b1652cb9cc5aa6f835273c0aee478e3658e2610c5f7a4a2e1777ce9e4f2ac602084015260405190611ddd82610177565b737a250d5630b4cf539739df2c5dacb4c659f2488d825273d9e1ce17f2641f24ae83637ab66a2cca9c378b9f60208301525f905f905b60028210611e2357505050505050565b9397909498919592965f5b600481101561204257600581901b8a01516001600160a01b038781169116818114612038576001600160a01b03611e658a8f611d16565b511660205f9360446040518094819363e6a4390560e01b835260048301528660248301525afa5f9181611ffd575b50611ff5575b506001600160a01b03821680158015611fec575b611fe157604051630240bc6b60e21b815290606082600481845afa90815f935f93611faa575b50611f1a575050505f5b8a8111611ef2575b5050506001905b01611e2e565b99509094509250905060016001600160a01b03611f0f888b611d16565b511691905f80611ee5565b602060049160405192838092630dfe168160e01b82525afa80156101055784915f91611f6f575b506001600160a01b031603611f5f57506001600160701b0316611edd565b6001600160701b03169050611edd565b9150506020813d8211611fa2575b81611f8a60209383610192565b8101031261038b57611f9c8491610489565b5f611f41565b3d9150611f7d565b909250611fcf91935060603d8111611fda575b611fc78183610192565b81019061206b565b50929092915f611ed3565b503d611fbd565b505050600190611eec565b50823b15611ead565b91505f611e99565b9091506020813d8211612030575b8161201860209383610192565b8101031261038b5761202990610489565b905f611e93565b3d915061200b565b5050600190611eec565b50969295919894600190989491980190611e13565b51906001600160701b038216820361038b57565b9081606091031261038b5761207f81612057565b91604061208e60208401612057565b92015163ffffffff8116810361038b5790565b604051630240bc6b60e21b815292906001600160a01b0316606084600481845afa908115610105575f945f92612188575b50602060049160405192838092630dfe168160e01b82525afa908115610105575f9161214e575b506001600160a01b0316905f516020618bd65f395f51905f528214612133576001600160701b039081169416926001600160a01b03161490565b6001600160701b039485169416926001600160a01b03161490565b90506020813d602011612180575b8161216960209383610192565b8101031261038b5761217a90610489565b5f6120f9565b3d915061215c565b6020955060049192506121a99060603d606011611fda57611fc78183610192565b509590959291506120d2565b604051630240bc6b60e21b81529391906001600160a01b0316606085600481845afa908115610105575f955f92612277575b50602060049160405192838092630dfe168160e01b82525afa908115610105575f9161223d575b506001600160a01b0390811692168214612133576001600160701b039081169416926001600160a01b03161490565b90506020813d60201161226f575b8161225860209383610192565b8101031261038b5761226990610489565b5f61220e565b3d915061224b565b6020965060049192506122989060603d606011611fda57611fc78183610192565b509690969291506121e7565b818102929181159184041417156109c757565b81156122c1570490565b634e487b7160e01b5f52601260045260245ffd5b91821580801561233f575b8015612337575b61232f576103e584029384046103e51417156109c75761230790836122a4565b916103e88202918083046103e814901517156109c75781018091116109c757610452916122b7565b505050505f90565b5081156122e7565b5082156122e0565b9190821580156123cb575b80156123c3575b80156123b9575b6110d5578261236e916122a4565b916103e88302928084046103e814901517156109c75761238d916109ba565b6103e58102908082046103e514901517156109c7576123ab916122b7565b600181018091116109c75790565b5081831015612360565b508115612359565b508015612352565b8051156115585760200190565b8051600110156115585760400190565b90602080835192838152019201905f5b81811061240d5750505090565b82516001600160a01b0316845260209384019390920191600101612400565b61244b60609295949395600183526080602084015260808301906123f0565b6001600160a01b0390951660408201520152565b905f9284156110ab57846124739184612f95565b6125e9576001600160a01b031692831561232f5760405193612496606086610192565b6002855260403660208701375f516020618bd65f395f51905f526124b9866123d3565b526124c3856123e0565b6001600160a01b03909316928390526040516370a0823160e01b815230600482015294602086602481875afa958615610105575f966125b5575b50813b1561038b575f9161252b9160405194858094819363b6f9de9560e01b8352429030906004850161242c565b03925af190816125a0575b506125415750905090565b6020602491604051928380926370a0823160e01b82523060048301525afa918215610b94579161257057501190565b90506020813d602011612598575b8161258b60209383610192565b8101031261038b57511190565b3d915061257e565b6125ad9193505f90610192565b5f915f612536565b9095506020813d6020116125e1575b816125d160209383610192565b8101031261038b5751945f6124fd565b3d91506125c4565b50505050600190565b905f9284156110ab578461261491845f516020618bd65f395f51905f52613206565b6125e9576001600160a01b0381169081156110ab578481612645612658935f516020618bd65f395f51905f52613353565b5f516020618bd65f395f51905f5261349b565b60405193612667606086610192565b6002855260403660208701375f516020618bd65f395f51905f5261268a866123d3565b52612694856123e0565b6001600160a01b03909316928390526040516370a0823160e01b815230600482015294602086602481875afa958615610105575f9661272e575b50823b1561038b5761270d925f9283604051809681958294635c11d79560e01b845260048401526001602484015260a0604484015260a48301906123f0565b30606483015242608483015203925af190816125a057506125415750905090565b9095506020813d60201161275a575b8161274a60209383610192565b8101031261038b5751945f6126ce565b3d915061273d565b939190915f9381156127de578161277a918588613206565b6127e8576001600160a01b0382169182156127de57818161279e6127a49389613353565b8761349b565b604051946127b3606087610192565b6002865260403660208801376127c8866123d3565b6001600160a01b039091169052612694856123e0565b5050505050505f90565b5050505050600190565b9091925f9281158015612941575b8015612930575b8015612911575b6110ab5760405190612821608083610192565b6003825260603660208401375f516020618bd65f395f51905f52612844836123d3565b5261284e826123e0565b6001600160a01b039091169052805160021015611558576001600160a01b03909216606083018190526040516370a0823160e01b815230600482015294909290602086602481875afa958615610105575f966128dd575b506001600160a01b031690813b1561038b575f9161252b9160405194858094819363b6f9de9560e01b8352429030906004850161242c565b9095506020813d602011612909575b816128f960209383610192565b8101031261038b5751945f6128a5565b3d91506128ec565b506001600160a01b0381165f516020618bd65f395f51905f521461280e565b506001600160a01b03811615612807565b506001600160a01b03851615612800565b919081156110d557604051926129678461015c565b6101f48452610bb86020850152612710604085015260018060a01b03821692604051946370a0823160e01b8652306004870152602086602481885afa958615610105575f96612be6575b505f5b600381106129f15750505050506020602491604051928380926370a0823160e01b82523060048301525afa908115610105575f9161257057501190565b6001600160a01b03612a1362ffffff612a0a8486611547565b511687876132b3565b1615612bde57612a2284613410565b612a2c8385613455565b62ffffff612a3a8284611547565b51604051911661010082016001600160401b038111838210176101105760409081526001600160a01b03878116845260208085018b81528584019485523060608701908152426080880190815260a088018b8152600160c08a019081525f60e08b01818152985163414bf38960e01b81529a51881660048c01529451871660248b0152975162ffffff1660448a01529151851660648901525160848801525160a4870152935160c486015291511660e484015290829061010490829073e592427a0aece92de3edee1f18e0157c058615645af15f9181612bab575b50612b26575b506001905b016129b4565b151580612b44575b612b38575f612b1b565b50505050505050600190565b506040516370a0823160e01b81523060048201526020816024818a5afa80156101055788915f91612b77575b5011612b2e565b9150506020813d8211612ba3575b81612b9260209383610192565b8101031261038b578790515f612b70565b3d9150612b85565b9091506020813d8211612bd6575b81612bc660209383610192565b8101031261038b5751905f612b15565b3d9150612bb9565b600190612b20565b9095506020813d602011612c12575b81612c0260209383610192565b8101031261038b5751945f6129b1565b3d9150612bf5565b805180835260209291819084018484015e5f828201840152601f01601f1916010190565b919290811561232f5760405191612c548361015c565b6101f48352610bb86020840152612710604084015260018060a01b03851693604051956370a0823160e01b8752306004880152602087602481895afa968715610105575f97612f61575b505f5b60038110612cdf575050505050506020602491604051928380926370a0823160e01b82523060048301525afa908115610105575f9161257057501190565b6001600160a01b03612d0162ffffff612cf8848a611547565b511687866132b3565b1615612f59575f5b60038110612d1c57506001905b01612ca1565b9097949695906001600160a01b03612d4462ffffff612d3b8486611547565b5116858b6132b3565b1615612f5157612d5384613410565b612d5d8585613455565b612d678983611547565b51612d728284611547565b516040516001600160601b0319606088811b821660208401526001600160e81b031960e895861b811660348501528d821b831660378501529390941b909216604b8201529185901b16604e82015260428152612dcf606282610192565b6040519060a082016001600160401b038111838210176101105760405281526020612e3c818301923084526040810193428552606082018a8152608083019060018252604051968795869563c04b8d5960e01b87528860048801525160a0602488015260c4870190612c1a565b93516001600160a01b031660448601525160648501525160848401525160a483015203815f73e592427a0aece92de3edee1f18e0157c058615645af15f9181612f1e575b50612e97575b506001905b01979095969497612d09565b151580612eb7575b612ea9575f612e86565b505050505050505050600190565b506040516370a0823160e01b81523060048201526020816024818b5afa80156101055787915f91612eea575b5011612e9f565b9150506020813d8211612f16575b81612f0560209383610192565b8101031261038b578690515f612ee3565b3d9150612ef8565b9091506020813d8211612f49575b81612f3960209383610192565b8101031261038b5751905f612e80565b3d9150612f2c565b600190612e8b565b600190612d16565b9096506020813d602011612f8d575b81612f7d60209383610192565b8101031261038b5751955f612c9e565b3d9150612f70565b91906001600160a01b038116156110d5575f516020618bd65f395f51905f523b1561038b57604051630d0e30db60e41b8152925f84600481865f516020618bd65f395f51905f525af19384156101055761045294612ff4575b50613004565b5f612ffe91610192565b5f612fee565b90915f91906001600160a01b038416801580156131fe575b6110ab576040516370a0823160e01b8152306004820152946001600160a01b0384169390602087602481885afa968715610105575f976131c8575b50613087915f516020618bd65f395f51905f52826130798761307e958461147f565b6121b5565b949190916122d5565b9182156127de571561314357604051916130a2602084610192565b848352813b15610bc4579184916130e9938360405180968195829463022c0d9f60e01b84526004840152836024840152306044840152608060648401526084830190612c1a565b03925af18015610bb95790839161312e575b505060206024915b6040516370a0823160e01b815230600482015292839182905afa918215610b94579161257057501190565b8161313891610192565b610bb557815f6130fb565b90604051613152602082610192565b5f8152823b1561038b57613198925f928360405180968195829463022c0d9f60e01b84528460048501526024840152306044840152608060648401526084830190612c1a565b03925af18015610105576131b2575b506020602491613103565b6131bf9192505f90610192565b5f9060206131a7565b9096506020813d6020116131f6575b816131e460209383610192565b8101031261038b575195613087613057565b3d91506131d7565b50811561301c565b91925f92916001600160a01b03851690811580156132ab575b6127de576040516370a0823160e01b8152306004820152956001600160a01b0382169490602088602481895afa978815610105575f9861326f575b50918183613079876130879661307e9661147f565b91929097506020823d6020116132a3575b8161328d60209383610192565b8101031261038b5790519690919061307e61325a565b3d9150613280565b50821561321f565b604051630b4c774160e11b81526001600160a01b0391821660048201529116602482015262ffffff90911660448201525f9190602081606481731f98431c8ad98523631ae4a59f267346ea31f9845afa5f9181613317575b506133135750565b9150565b9091506020813d60201161334b575b8161333360209383610192565b8101031261038b5761334490610489565b905f61330b565b3d9150613326565b60405163095ea7b360e01b602082019081526001600160a01b0390931660248201525f60448083018290528252928392918390613391606482610192565b51925af161339d611375565b816133e1575b50156133ab57565b60405162461bcd60e51b815260206004820152600e60248201526d1054141493d59157d1905253115160921b6044820152606490fd5b80518015925082156133f6575b50505f6133a3565b6134099250602080918301019101611467565b5f806133ee565b5f809160405182602082019163095ea7b360e01b835273e592427a0aece92de3edee1f18e0157c05861564602482015281604482015260448152613391606482610192565b5f9190829182604051602081019263095ea7b360e01b845273e592427a0aece92de3edee1f18e0157c058615646024830152604482015260448152613391606482610192565b60405163095ea7b360e01b602082019081526001600160a01b03909316602482015260448101939093525f92839290839061339181606481016114b956fe608080604052600436101561001c575b50361561001a575f80fd5b005b5f3560e01c908163077db6051461086f5750806326e4dd9e14610852578063277754ed1461082457806331a38c891461080257806337ba5094146107e55780633c2448ed146107cd57806341c64a2f1461079f578063463defd11461077a5780634934362414610753578063495c0f9b14610725578063495f92f1146107015780634f9522a4146106365780635ebaf1db146105f25780635ff972cc146105d557806382100e3f1461059b57806389a302711461057457806399d8fae314610546578063a82ed9ec14610518578063ad5c4648146104f1578063c54e44eb146104ca578063c63e71c6146104a2578063c6e381941461047d578063c8767ceb14610460578063cc1f2afa14610439578063d78c42811461027a578063e0bab4c414610253578063e12e867114610236578063ecc02d5c14610219578063f150354b146101f4578063f184c55e146101d7578063f73e5aab146101a95763f9b0925914610188575f61000f565b346101a5575f3660031901126101a5576020600354604051908152f35b5f80fd5b346101a5575f3660031901126101a5576020604051731f98431c8ad98523631ae4a59f267346ea31f9848152f35b346101a5575f3660031901126101a5576020600b54604051908152f35b346101a5575f3660031901126101a557602060ff60025460081c166040519015158152f35b346101a5575f3660031901126101a5576020600654604051908152f35b346101a5575f3660031901126101a5576020600a54604051908152f35b346101a5575f3660031901126101a55760206040515f51602061464e5f395f51905f528152f35b346101a5575f3660031901126101a55761043561016061029d604051918261090d565b61013781527f636f6e7472616374207374616b657220686f6c64732075546f6b656e2073746160208201527f6b65202d3e206c6174657220626c6f636b20616363727565732070656e64696e60408201527f6720706f696e7473202d3e206465706f736974287069642c3029206f7220776960608201527f746864726177287069642c3029206d696e74732070656e64696e67204552433160808201527f31353520706f696e7473202d3e206f6e4552433131353552656365697665642060a08201527f7265656e74657273206265666f7265207265776172644465627420726566726560c08201527f7368202d3e2073616d652070656e64696e6720616d6f756e74206973206d696e60e08201527f7465642072657065617465646c79202d3e2061747461636b65722065786974736101008201527f2077697468206d616e792074696d657320746865206c65676974696d617465206101208201527f506f696e744661726d20706f696e742062616c616e636500000000000000000061014082015260405191829160208352602083019061092f565b0390f35b346101a5575f3660031901126101a55760206040515f5160206146ae5f395f51905f528152f35b346101a5575f3660031901126101a5576020600854604051908152f35b346101a5575f3660031901126101a557602060ff60025460101c166040519015158152f35b346101a5575f3660031901126101a5576004546040516001600160a01b039091168152602090f35b346101a5575f3660031901126101a55760206040515f51602061468e5f395f51905f528152f35b346101a5575f3660031901126101a55760206040515f51602061462e5f395f51905f528152f35b346101a5575f3660031901126101a5576020604051737a250d5630b4cf539739df2c5dacb4c659f2488d8152f35b346101a5575f3660031901126101a5576020604051735c69bee701ef814a2b6a3edd4b1652cb9cc5aa6f8152f35b346101a5575f3660031901126101a55760206040515f51602061466e5f395f51905f528152f35b346101a5575f3660031901126101a55760206040517f00000000000000000000000000000000000000000000000000000000000000008152f35b346101a5575f3660031901126101a5576020600154604051908152f35b346101a5575f3660031901126101a5576040517f00000000000000000000000000000000000000000000000000000000000000006001600160a01b03168152602090f35b346101a5575f3660031901126101a5576040515f600c5461065681610889565b80845290600181169081156106dd5750600114610692575b6104358361067e8185038261090d565b60405191829160208352602083019061092f565b919050600c5f525f51602061460e5f395f51905f52915f905b8082106106c35750909150810160200161067e61066e565b9192600181602092548385880101520191019092916106ab565b60ff191660208086019190915291151560051b8401909101915061067e905061066e565b346101a5575f3660031901126101a557602060ff600254821c166040519015158152f35b346101a5575f3660031901126101a557602060405173c0aee478e3658e2610c5f7a4a2e1777ce9e4f2ac8152f35b346101a5575f3660031901126101a5575f546040516001600160a01b039091168152602090f35b346101a5575f3660031901126101a557602060ff60025460181c166040519015158152f35b346101a5575f3660031901126101a557602060405173e592427a0aece92de3edee1f18e0157c058615648152f35b346101a5575f3660031901126101a55761001a6109bf565b346101a5575f3660031901126101a5576020600554604051908152f35b346101a5575f3660031901126101a557602060ff600254166040519015158152f35b346101a5575f3660031901126101a557602060405173d9e1ce17f2641f24ae83637ab66a2cca9c378b9f8152f35b346101a5575f3660031901126101a5576020600954604051908152f35b346101a5575f3660031901126101a5576020906007548152f35b90600182811c921680156108b7575b60208310146108a357565b634e487b7160e01b5f52602260045260245ffd5b91607f1691610898565b6060810190811067ffffffffffffffff8211176108dd57604052565b634e487b7160e01b5f52604160045260245ffd5b6040810190811067ffffffffffffffff8211176108dd57604052565b90601f8019910116810190811067ffffffffffffffff8211176108dd57604052565b805180835260209291819084018484015e5f828201840152601f01601f1916010190565b601f811161095e5750565b600c5f52601f0160051c5f51602061460e5f395f51905f52908101905b818110610986575050565b5f815560010161097b565b9190820180921161099e57565b634e487b7160e01b5f52601160045260245ffd5b9190820391821161099e57565b6002545f9060ff811661121d5760ff19166001176002555f5160206146ae5f395f51905f523b1561113a576109f2611221565b1561112d575b610a00611221565b156110a7576003547f00000000000000000000000000000000000000000000000000000000000000006001600160a01b031690610a3e908290611541565b80600755801561105b57600354604051627eeac760e11b81526001600160a01b03841660048201526024810191909152906020826044815f5160206146ae5f395f51905f525afa91821561101c575f92611027575b50600354833b156101a55760405190632021e0e160e21b82526004820152603060248201525f60448201525f8160648183885af1801561101c57611007575b50823b156110035760405163701d815960e01b8152848160048183885af18015610fe357908591610fee575b5050600354604051627eeac760e11b81526001600160a01b038516600482015260248101919091526020816044815f5160206146ae5f395f51905f525afa908115610fe3578591610fb1575b506040516353b3816960e01b8152909384602083600481855afa928315610fa6578793610f72575b5082610b7e8587610991565b821190811591610f69575b50610dcb575b505083600a5580600b55610ba38284610991565b841190811591610dc2575b50610cdc57610bc6610bcb9260ff94836008556109b2565b6109b2565b8060095562ff000060025491151560101b1663ff000000838262ff00001985161760101c16151560181b169064ff0000000084838363ffff0000198716171760101c161560201b169264ffffff000019161717178060025560101c1615610ca25780546001600160a01b0319165f5160206146ae5f395f51905f52178155600954600155600c54610c5b90610889565b90601f8211610c77575b50506008636e6f6e6560e01b01600c55565b600c8152601f60208220920160051c8201915b828110610c975750610c65565b818155600101610c8a565b50610cb6610cb1600c54610889565b610953565b7f6f6e6c792d6c65676974696d6174652d6d696e742d6f6273657276656400003a600c55565b505050610cea600c54610889565b601f8111610d6f575b50600c90604d8255527f7265656e7472792d6469642d6e6f742d6475706c69636174652d70656e64696e5f51602061460e5f395f51905f52556519cb5b5a5b9d60d21b7fdf6966c971051c3d54ec59162606531493a51404a002842f56009d7e5cf4a8c85564010000000064ff00000000196002541617600255565b600c8252601f0160051c5f51602061460e5f395f51905f52017fdf6966c971051c3d54ec59162606531493a51404a002842f56009d7e5cf4a8c95b818110610db75750610cf3565b828155600101610daa565b9050155f610bae565b600354823b15610f655760405190632021e0e160e21b825260048201526030602482015260016044820152878160648183875af18015610ef557908891610f50575b5050813b15610f4c5760405163701d815960e01b8152878160048183875af18015610ef557908891610f37575b5050600354604051627eeac760e11b81526001600160a01b03841660048201526024810191909152906020826044815f5160206146ae5f395f51905f525afa918215610ef5578892610f00575b506020600493604051948580926353b3816960e01b82525afa928315610ef5578893610ec1575b50811115610b8f57945090505f80610b8f565b9092506020813d602011610eed575b81610edd6020938361090d565b810103126101a55751915f610eae565b3d9150610ed0565b6040513d8a823e3d90fd5b9291506020833d602011610f2f575b81610f1c6020938361090d565b810103126101a557915190916020610e87565b3d9150610f0f565b81610f419161090d565b610f4c57865f610e3a565b8680fd5b81610f5a9161090d565b610f4c57865f610e0d565b8780fd5b9050155f610b89565b9092506020813d602011610f9e575b81610f8e6020938361090d565b810103126101a55751915f610b72565b3d9150610f81565b6040513d89823e3d90fd5b90506020813d602011610fdb575b81610fcc6020938361090d565b810103126101a557515f610b4a565b3d9150610fbf565b6040513d87823e3d90fd5b81610ff89161090d565b61100357835f610afe565b8380fd5b6110149194505f9061090d565b5f925f610ad2565b6040513d5f823e3d90fd5b9091506020813d602011611053575b816110436020938361090d565b810103126101a55751905f610a93565b3d9150611036565b50505061106c610cb1600c54610889565b7f6e6f2d70656e64696e672d706f696e74732d616363727565642d79657400003a600c556002805464ff000000001916640100000000179055565b506110b3600c54610889565b601f81116110f8575b507f756e61626c652d746f2d616371756972652d736565642d7374616b6500000038600c556002805464ff000000001916640100000000179055565b600c5f52601f0160051c5f51602061460e5f395f51905f52908101905b81811061112257506110bc565b5f8155600101611115565b6111356112c3565b6109f8565b50611146600c54610889565b601f81116111ca575b506049600c55600c5f527f7461726765742d6e6f742d6465706c6f7965642d6f6e2d63757272656e742d635f51602061460e5f395f51905f5255633430b4b760e11b7fdf6966c971051c3d54ec59162606531493a51404a002842f56009d7e5cf4a8c85564010000000064ff00000000196002541617600255565b600c5f52601f0160051c5f51602061460e5f395f51905f52017fdf6966c971051c3d54ec59162606531493a51404a002842f56009d7e5cf4a8c95b818110611212575061114f565b5f8155600101611205565b5050565b60ff60025460081c16806112325790565b5060035460405163169167b560e21b815260048101919091526020816024817f00000000000000000000000000000000000000000000000000000000000000006001600160a01b03165afa90811561101c575f91611291575b50151590565b90506020813d6020116112bb575b816112ac6020938361090d565b810103126101a557515f61128b565b3d915061129f565b60ff60025460081c1661153f576112d86115c5565b80156114ce575f5b8181106113595750506112f4600c54610889565b601f8111611324575b507f6e6f2d7075626c69632d736565642d726f7574652d666f756e64000000000034600c55565b600c5f52601f0160051c5f51602061460e5f395f51905f52908101905b81811061134e57506112fd565b5f8155600101611341565b6113628161160d565b50506001600160a01b03811690811580156114c5575b6114bb57611386908361169d565b61139557506001905b016112e0565b6002805461ff0019166101001790556003829055600480546001600160a01b031916909117815560405163169167b560e21b81529081019190915290506020816024817f00000000000000000000000000000000000000000000000000000000000000006001600160a01b03165afa90811561101c575f9161148a575b5060055543600655611425600c54610889565b601f8111611455575b507f7365656465642d6177616974696e672d70656e64696e672d706f696e7473003c600c55565b600c5f52601f0160051c5f51602061460e5f395f51905f52908101905b81811061147f575061142e565b5f8155600101611472565b90506020813d82116114b3575b816114a46020938361090d565b810103126101a557515f611412565b3d9150611497565b505060019061138f565b50803b15611378565b506114da600c54610889565b601f811161150a575b507f706f6f6c2d646973636f766572792d6661696c6564000000000000000000002a600c55565b600c5f52601f0160051c5f51602061460e5f395f51905f52908101905b81811061153457506114e3565b5f8155600101611527565b565b60405163a8a77a1960e01b815260048101919091526001600160a01b0390911660248201526020816044815f5160206146ae5f395f51905f525afa5f9181611591575b5061158e57505f90565b90565b9091506020813d6020116115bd575b816115ad6020938361090d565b810103126101a55751905f611584565b3d91506115a0565b60405163040f1f6d60e11b81526020816004815f5160206146ae5f395f51905f525afa5f9181611591575061158e57505f90565b51906001600160a01b03821682036101a557565b60405190631526fe2760e01b825260048201526060816024815f5160206146ae5f395f51905f525afa5f815f935f93611654575b50611651575050505f905f905f90565b92565b93509150506060823d606011611695575b816116726060938361090d565b810103126101a557611683826115f9565b6020830151604090930151915f611641565b3d9150611665565b60405163169167b560e21b8152600481018290529091906020816024817f00000000000000000000000000000000000000000000000000000000000000006001600160a01b03165afa90811561101c575f91611b18575b506119d3575f806040516020810190634e71d92d60e01b82526004815261171c60248261090d565b519082855af15061172b6124bc565b505f806040516020810190630f41a04d60e11b82523060248201526024815261175560448261090d565b519082855af1506117646124bc565b505f8060405160208101906348c54b9d60e01b82526004815261178860248261090d565b519082855af1506117976124bc565b505f80604051602081019063df8de3e760e01b8252306024820152602481526117c160448261090d565b519082855af1506117d06124bc565b505f806040516020810190631e8c5c8960e11b8252600481526117f460248261090d565b519082855af1506118036124bc565b505f806040516020810190630c00007b60e41b82523060248201526024815261182d60448261090d565b519082855af15061183c6124bc565b505f806040516020810190631249c58b60e01b82526004815261186060248261090d565b519082855af15061186f6124bc565b505f8060405160208101906335313c2160e11b82523060248201526024815261189960448261090d565b519082855af1506118a86124bc565b505f80604051602081019063e522538160e01b8252600481526118cc60248261090d565b519082855af1506118db6124bc565b505f80604051602081019062dd82df60e31b82523060248201526024815261190460448261090d565b519082855af1506119136124bc565b505f806040516020810190634fb3c66560e11b82526004815261193760248261090d565b519082855af1506119466124bc565b505f80604051602081019063de5f72fd60e01b82526004815261196a60248261090d565b519082855af1506119796124bc565b506119826124fb565b6001600160a01b0381166119ea575b5061199c8183611b4a565b6119d3576119a981611ece565b806119da575b6119d3576119bd8183612043565b6119d35761158e916119ce8261229f565b611b4a565b5050600190565b506119e58183611b4a565b6119af565b5f80916119f68461256b565b82806040516020810190634e71d92d60e01b825260048152611a1960248261090d565b519082865af150611a286124bc565b508280604051602081019063379607f560e01b825284602482015260248152611a5260448261090d565b519082865af150611a616124bc565b50828060405192818060208601630f41a04d60e11b815260018060a01b038b169687602482015260248152611a9760448261090d565b519082895af150611aa66124bc565b506040516020810191636cb504a560e11b8352602482015260248152611acd60448261090d565b519082865af150611adc6124bc565b5082604051602081019263f088d54760e01b8452602482015260248152611b0460448261090d565b51925af150611b116124bc565b505f611991565b90506020813d602011611b42575b81611b336020938361090d565b810103126101a557515f6116f4565b3d9150611b26565b6040516370a0823160e01b81523060048201525f929091906001600160a01b03811690602084602481855afa93841561101c575f94611e9a575b505f51602061462e5f395f51905f5282148481611e91575b5080611e88575b611dc8575b8315611d6b576040516370a0823160e01b81527f00000000000000000000000000000000000000000000000000000000000000006001600160a01b03166004820181905294602082602481875afa918215610fa65786908893611d33575b50611c1192936125c7565b6040516370a0823160e01b81526004810185905290602082602481865afa8015611d28578690611cf4575b611c4692506109b2565b8015611ced57833b15611ce95760405191637f900de360e11b835283600484015260248301526044820152838160648183875af18015611cde57908491611cc5575b505060209060246040518094819363169167b560e21b835260048301525afa918215611cb957916112915750151590565b604051903d90823e3d90fd5b81611ccf9161090d565b611cda57825f611c88565b8280fd5b6040513d86823e3d90fd5b8480fd5b5050505090565b506020823d602011611d20575b81611d0e6020938361090d565b810103126101a557611c469151611c3c565b3d9150611d01565b6040513d88823e3d90fd5b9250506020823d602011611d63575b81611d4f6020938361090d565b810103126101a55785611c11925192611c06565b3d9150611d42565b505060405163169167b560e21b8152600481019190915290506020816024817f00000000000000000000000000000000000000000000000000000000000000006001600160a01b03165afa918215611cb957916112915750151590565b9250475f51602061462e5f395f51905f523b156101a5575f60049160405192838092630d0e30db60e41b82525f51602061462e5f395f51905f525af1801561101c57611e73575b506040516370a0823160e01b8152306004820152602081602481855afa908115610fe3578591611e41575b5092611ba8565b90506020813d602011611e6b575b81611e5c6020938361090d565b810103126101a557515f611e3a565b3d9150611e4f565b611e809194505f9061090d565b5f925f611e0f565b50471515611ba3565b9050155f611b9c565b9093506020813d602011611ec6575b81611eb66020938361090d565b810103126101a55751925f611b84565b3d9150611ea9565b5f906001600160a01b0381165f51602061462e5f395f51905f5214611fa35747611f30575b611efc816126b4565b6119d357611f09816128a9565b6119d357611f1681612a90565b6119d357611f2390612c77565b611f2a5790565b50600190565b475f51602061462e5f395f51905f523b15611cda578260049160405192838092630d0e30db60e41b82525f51602061462e5f395f51905f525af18015611f9857908391611f7f575b5050611ef3565b81611f899161090d565b611f9457815f611f78565b5080fd5b6040513d85823e3d90fd5b5047611fe5575b6040516370a0823160e01b81523060048201526020816024815f51602061462e5f395f51905f525afa918215611cb957916112915750151590565b475f51602061462e5f395f51905f523b156101a5575f60049160405192838092630d0e30db60e41b82525f51602061462e5f395f51905f525af1801561101c57612030575b50611faa565b61203c91505f9061090d565b5f5f61202a565b905f9147158015612280575b8015612261575b8015612242575b8015612223575b61221c5761207182612e6f565b506001600160a01b038216919082159081156121fb575b506121f25783612097916131e4565b92909247926120a7858286613418565b94851580156121e8575b6121db576120bf918661348b565b9283159081156121d1575b506121c6577f00000000000000000000000000000000000000000000000000000000000000006001600160a01b031695863b156101a5575f9360c49260405196879586946338ef9a7760e21b86528a600487015260018060a01b0316602486015260448501526064840152816084840152151560a4830152875af190816121ad575b50602091906121815760246040518094819363169167b560e21b835260048301525afa918215611cb957916112915750151590565b60246040518094819363169167b560e21b835260048301525afa918215611cb957916112915750151590565b6020929194505f6121bd9161090d565b5f93909161214c565b505050505050505f90565b905083115f6120ca565b5050505050505050505f90565b50808610156120b1565b50505050505f90565b6001600160a01b03165f51602061462e5f395f51905f52141590505f612088565b5050505f90565b506001600160a01b0382165f51602061464e5f395f51905f5214612064565b506001600160a01b0382165f51602061468e5f395f51905f521461205d565b506001600160a01b0382165f51602061466e5f395f51905f5214612056565b506001600160a01b0382165f51602061462e5f395f51905f521461204f565b6001600160a01b0381165f51602061462e5f395f51905f5214612463576122c581611ece565b61235b576122d281612e6f565b9092916001600160a01b038116158015612452575b6123fb576001600160a01b0384165f51602061462e5f395f51905f5281146123b057906020602492604051938480926370a0823160e01b82523060048301525afa91821561101c575f9261237c575b50816123705750504715158061235e575b61235057505050565b61235b924792613936565b50565b506001600160a01b0381161515612347565b91909261235b946138a6565b9091506020813d6020116123a8575b816123986020938361090d565b810103126101a55751905f612336565b3d915061238b565b5090919250478061244857506040516370a0823160e01b8152306004820152916020836024815f51602061462e5f395f51905f525afa92831561101c575f93612414575b5082612401575b50505050565b61240a93613736565b505f8080806123fb565b9092506020813d602011612440575b816124306020938361090d565b810103126101a55751915f6123f4565b3d9150612423565b9161235b936135a3565b506001600160a01b038416156122e7565b504761246b57565b475f51602061462e5f395f51905f523b156101a5575f60049160405192838092630d0e30db60e41b82525f51602061462e5f395f51905f525af1801561101c576124b25750565b5f61153f9161090d565b3d156124f6573d9067ffffffffffffffff82116108dd57604051916124eb601f8201601f19166020018461090d565b82523d5f602084013e565b606090565b604051630881fa0d60e01b81526020816004815f5160206146ae5f395f51905f525afa5f918161252f575061158e57505f90565b9091506020813d602011612563575b8161254b6020938361090d565b810103126101a55761255c906115f9565b905f611584565b3d915061253e565b604051632f30448f60e21b81526001600160a01b0390911660048201526020816024815f5160206146ae5f395f51905f525afa5f9181611591575061158e57505f90565b908160209103126101a5575180151581036101a55790565b60405163a9059cbb60e01b602082019081526001600160a01b03909316602482015260448101939093525f92839290839061260f81606481015b03601f19810183528261090d565b51925af161261b6124bc565b81612660575b501561262957565b60405162461bcd60e51b815260206004820152600f60248201526e1514905394d1915497d19052531151608a1b6044820152606490fd5b8051801592508215612675575b50505f612621565b61268892506020809183010191016125af565b5f8061266d565b9060038110156126a05760051b0190565b634e487b7160e01b5f52603260045260245ffd5b6040516370a0823160e01b81523060048201526020816024815f51602061462e5f395f51905f525afa90811561101c575f91612877575b5080158015612858575b6128525761271190825f51602061462e5f395f51905f52613a96565b611f2a5760405190612722826108c1565b5f51602061466e5f395f51905f5282525f51602061468e5f395f51905f5260208301525f51602061464e5f395f51905f5260408301525f5b60038110612769575050505f90565b6001600160a01b0361277b828561268f565b51166001600160a01b0383168114801561283c575b612833576040516370a0823160e01b8152306004820152906020826024815f51602061462e5f395f51905f525afa90811561101c5784905f926127fc575b6127e693505f51602061462e5f395f51905f52613d5f565b6127f4576001905b0161275a565b505050600190565b9150506020823d821161282b575b816128176020938361090d565b810103126101a557836127e69251916127ce565b3d915061280a565b506001906127ee565b505f51602061462e5f395f51905f528114612790565b50505f90565b505f51602061462e5f395f51905f526001600160a01b038316146126f5565b90506020813d6020116128a1575b816128926020938361090d565b810103126101a557515f6126eb565b3d9150612885565b6040516370a0823160e01b81523060048201526020816024815f51602061466e5f395f51905f525afa90811561101c575f91612a5e575b5080158015612a3f575b6128525761290690825f51602061466e5f395f51905f52613a96565b611f2a5760405190612917826108c1565b5f51602061466e5f395f51905f5282525f51602061468e5f395f51905f5260208301525f51602061464e5f395f51905f5260408301525f5b6003811061295e575050505f90565b6001600160a01b03612970828561268f565b51166001600160a01b03831681148015612a29575b612a20576040516370a0823160e01b8152306004820152906020826024815f51602061466e5f395f51905f525afa90811561101c5784905f926129e9575b6129db93505f51602061466e5f395f51905f52613d5f565b6127f4576001905b0161294f565b9150506020823d8211612a18575b81612a046020938361090d565b810103126101a557836129db9251916129c3565b3d91506129f7565b506001906129e3565b505f51602061466e5f395f51905f528114612985565b505f51602061466e5f395f51905f526001600160a01b038316146128ea565b90506020813d602011612a88575b81612a796020938361090d565b810103126101a557515f6128e0565b3d9150612a6c565b6040516370a0823160e01b81523060048201526020816024815f51602061468e5f395f51905f525afa90811561101c575f91612c45575b5080158015612c26575b61285257612aed90825f51602061468e5f395f51905f52613a96565b611f2a5760405190612afe826108c1565b5f51602061466e5f395f51905f5282525f51602061468e5f395f51905f5260208301525f51602061464e5f395f51905f5260408301525f5b60038110612b45575050505f90565b6001600160a01b03612b57828561268f565b51166001600160a01b03831681148015612c10575b612c07576040516370a0823160e01b8152306004820152906020826024815f51602061468e5f395f51905f525afa90811561101c5784905f92612bd0575b612bc293505f51602061468e5f395f51905f52613d5f565b6127f4576001905b01612b36565b9150506020823d8211612bff575b81612beb6020938361090d565b810103126101a55783612bc2925191612baa565b3d9150612bde565b50600190612bca565b505f51602061468e5f395f51905f528114612b6c565b505f51602061468e5f395f51905f526001600160a01b03831614612ad1565b90506020813d602011612c6f575b81612c606020938361090d565b810103126101a557515f612ac7565b3d9150612c53565b6040516370a0823160e01b81523060048201526020816024815f51602061464e5f395f51905f525afa90811561101c575f91612e2c575b5080158015612e0d575b61285257612cd490825f51602061464e5f395f51905f52613a96565b611f2a5760405190612ce5826108c1565b5f51602061466e5f395f51905f5282525f51602061468e5f395f51905f5260208301525f51602061464e5f395f51905f5260408301525f5b60038110612d2c575050505f90565b6001600160a01b03612d3e828561268f565b51166001600160a01b03831681148015612df7575b612dee576040516370a0823160e01b8152306004820152906020826024815f51602061464e5f395f51905f525afa90811561101c5784905f92612db7575b612da993505f51602061464e5f395f51905f52613d5f565b6127f4576001905b01612d1d565b9150506020823d8211612de6575b81612dd26020938361090d565b810103126101a55783612da9925191612d91565b3d9150612dc5565b50600190612db1565b505f51602061464e5f395f51905f528114612d53565b505f51602061464e5f395f51905f526001600160a01b03831614612cb8565b90506020813d602011612e56575b81612e476020938361090d565b810103126101a557515f612cae565b3d9150612e3a565b9060028110156126a05760051b0190565b6040515f92839283926080810167ffffffffffffffff8111828210176108dd576040525f51602061462e5f395f51905f5281525f51602061466e5f395f51905f5260208201525f51602061468e5f395f51905f5260408201525f51602061464e5f395f51905f52606082015260405191612ee8836108f1565b735c69bee701ef814a2b6a3edd4b1652cb9cc5aa6f835273c0aee478e3658e2610c5f7a4a2e1777ce9e4f2ac602084015260405190612f26826108f1565b737a250d5630b4cf539739df2c5dacb4c659f2488d825273d9e1ce17f2641f24ae83637ab66a2cca9c378b9f60208301525f905f905b60028210612f6c57505050505050565b9397909498919592965f5b600481101561318557600581901b8a01516001600160a01b03878116911681811461317b576001600160a01b03612fae8a8f612e5e565b511660205f9360446040518094819363e6a4390560e01b835260048301528660248301525afa5f9181613140575b50613138575b506001600160a01b0382168015801561312f575b61312457604051630240bc6b60e21b8152606081600481855afa805f925f926130f0575b50613061575050505f5b8a8111613039575b5050506001905b01612f77565b99509094509250905060016001600160a01b03613056888b612e5e565b511691905f8061302c565b602060049360405194858092630dfe168160e01b82525afa801561101c5784905f906130af575b6001600160701b0394506001600160a01b0316036130a7575016613024565b905016613024565b50506020833d82116130e8575b816130c96020938361090d565b810103126101a557836130e36001600160701b03946115f9565b613088565b3d91506130bc565b909250613114915060603d811161311d575b61310c818361090d565b8101906131ae565b5090915f61301a565b503d613102565b505050600190613033565b50823b15612ff6565b91505f612fe2565b9091506020813d8211613173575b8161315b6020938361090d565b810103126101a55761316c906115f9565b905f612fdc565b3d915061314e565b5050600190613033565b50969295919894600190989491980190612f5c565b51906001600160701b03821682036101a557565b908160609103126101a5576131c28161319a565b9160406131d16020840161319a565b92015163ffffffff811681036101a55790565b604051630240bc6b60e21b815292906001600160a01b0316606084600481845afa90811561101c575f945f926132cb575b50602060049160405192838092630dfe168160e01b82525afa90811561101c575f91613291575b506001600160a01b0316905f51602061462e5f395f51905f528214613276576001600160701b039081169416926001600160a01b03161490565b6001600160701b039485169416926001600160a01b03161490565b90506020813d6020116132c3575b816132ac6020938361090d565b810103126101a5576132bd906115f9565b5f61323c565b3d915061329f565b6020955060049192506132ec9060603d60601161311d5761310c818361090d565b50959095929150613215565b604051630240bc6b60e21b81529391906001600160a01b0316606085600481845afa90811561101c575f955f926133ba575b50602060049160405192838092630dfe168160e01b82525afa90811561101c575f91613380575b506001600160a01b0390811692168214613276576001600160701b039081169416926001600160a01b03161490565b90506020813d6020116133b2575b8161339b6020938361090d565b810103126101a5576133ac906115f9565b5f613351565b3d915061338e565b6020965060049192506133db9060603d60601161311d5761310c818361090d565b5096909692915061332a565b8181029291811591840414171561099e57565b8115613404570490565b634e487b7160e01b5f52601260045260245ffd5b918215808015613483575b801561347b575b613473576103e584029384046103e514171561099e5761344a90836133e7565b906103e88102908082046103e8149015171561099e5761158e9261346d91610991565b906133fa565b505050505f90565b50811561342a565b508215613423565b91908215801561350f575b8015613507575b80156134fd575b61221c57826134b2916133e7565b916103e88302928084046103e8149015171561099e576134d1916109b2565b6103e58102908082046103e5149015171561099e576134ef916133fa565b6001810180911161099e5790565b50818310156134a4565b50811561349d565b508015613496565b8051156126a05760200190565b8051600110156126a05760400190565b90602080835192838152019201905f5b8181106135515750505090565b82516001600160a01b0316845260209384019390920191600101613544565b61358f6060929594939560018352608060208401526080830190613534565b6001600160a01b0390951660408201520152565b905f9284156121f257846135b791846140c9565b61372d576001600160a01b031692831561347357604051936135da60608661090d565b6002855260403660208701375f51602061462e5f395f51905f526135fd86613517565b5261360785613524565b6001600160a01b03909316928390526040516370a0823160e01b815230600482015294602086602481875afa95861561101c575f966136f9575b50813b156101a5575f9161366f9160405194858094819363b6f9de9560e01b83524290309060048501613570565b03925af190816136e4575b506136855750905090565b6020602491604051928380926370a0823160e01b82523060048301525afa918215611cb957916136b457501190565b90506020813d6020116136dc575b816136cf6020938361090d565b810103126101a557511190565b3d91506136c2565b6136f19193505f9061090d565b5f915f61367a565b9095506020813d602011613725575b816137156020938361090d565b810103126101a55751945f613641565b3d9150613708565b50505050600190565b905f9284156121f2578461375891845f51602061462e5f395f51905f5261433a565b61372d576001600160a01b0381169081156121f257848161378961379c935f51602061462e5f395f51905f52614487565b5f51602061462e5f395f51905f526145cf565b604051936137ab60608661090d565b6002855260403660208701375f51602061462e5f395f51905f526137ce86613517565b526137d885613524565b6001600160a01b03909316928390526040516370a0823160e01b815230600482015294602086602481875afa95861561101c575f96613872575b50823b156101a557613851925f9283604051809681958294635c11d79560e01b845260048401526001602484015260a0604484015260a4830190613534565b30606483015242608483015203925af190816136e457506136855750905090565b9095506020813d60201161389e575b8161388e6020938361090d565b810103126101a55751945f613812565b3d9150613881565b939190915f93811561392257816138be91858861433a565b61392c576001600160a01b0382169182156139225781816138e26138e89389614487565b876145cf565b604051946138f760608761090d565b60028652604036602088013761390c86613517565b6001600160a01b0390911690526137d885613524565b5050505050505f90565b5050505050600190565b9091925f9281158015613a85575b8015613a74575b8015613a55575b6121f2576040519061396560808361090d565b6003825260603660208401375f51602061462e5f395f51905f5261398883613517565b5261399282613524565b6001600160a01b0390911690528051600210156126a0576001600160a01b03909216606083018190526040516370a0823160e01b815230600482015294909290602086602481875afa95861561101c575f96613a21575b506001600160a01b031690813b156101a5575f9161366f9160405194858094819363b6f9de9560e01b83524290309060048501613570565b9095506020813d602011613a4d575b81613a3d6020938361090d565b810103126101a55751945f6139e9565b3d9150613a30565b506001600160a01b0381165f51602061462e5f395f51905f5214613952565b506001600160a01b0381161561394b565b506001600160a01b03851615613944565b9190811561221c5760405192613aab846108c1565b6101f48452610bb86020850152612710604085015260018060a01b03821692604051946370a0823160e01b8652306004870152602086602481885afa95861561101c575f96613d2b575b505f5b60038110613b355750505050506020602491604051928380926370a0823160e01b82523060048301525afa90811561101c575f916136b457501190565b6001600160a01b03613b5762ffffff613b4e848661268f565b511687876143e7565b1615613d2357613b6684614544565b613b708385614589565b62ffffff613b7e828461268f565b511660405190610100820182811067ffffffffffffffff8211176108dd5760409081526001600160a01b03878116845260208085018b81528584019485523060608701908152426080880190815260a088018b8152600160c08a019081525f60e08b01818152985163414bf38960e01b81529a51881660048c01529451871660248b0152975162ffffff1660448a01529151851660648901525160848801525160a4870152935160c486015291511660e484015290829061010490829073e592427a0aece92de3edee1f18e0157c058615645af15f9181613cf0575b50613c6b575b506001905b01613af8565b151580613c89575b613c7d575f613c60565b50505050505050600190565b506040516370a0823160e01b81523060048201526020816024818a5afa801561101c5788915f91613cbc575b5011613c73565b9150506020813d8211613ce8575b81613cd76020938361090d565b810103126101a5578790515f613cb5565b3d9150613cca565b9091506020813d8211613d1b575b81613d0b6020938361090d565b810103126101a55751905f613c5a565b3d9150613cfe565b600190613c65565b9095506020813d602011613d57575b81613d476020938361090d565b810103126101a55751945f613af5565b3d9150613d3a565b91929081156134735760405191613d75836108c1565b6101f48352610bb86020840152612710604084015260018060a01b03851693604051956370a0823160e01b8752306004880152602087602481895afa96871561101c575f97614095575b505f5b60038110613e00575050505050506020602491604051928380926370a0823160e01b82523060048301525afa90811561101c575f916136b457501190565b6001600160a01b03613e2262ffffff613e19848a61268f565b511687866143e7565b161561408d575f5b60038110613e3d57506001905b01613dc2565b9097949695906001600160a01b03613e6562ffffff613e5c848661268f565b5116858b6143e7565b161561408557613e7484614544565b613e7e8585614589565b613e88898361268f565b51613e93828461268f565b51604051916001600160601b03198760601b16602084015262ffffff60e81b9060e81b1660348301526001600160601b03198a60601b16603783015262ffffff60e81b9060e81b16604b8201526001600160601b03198460601b16604e82015260428152613f0260628261090d565b6040519060a0820182811067ffffffffffffffff8211176108dd5760405281526020613f70818301923084526040810193428552606082018a8152608083019060018252604051968795869563c04b8d5960e01b87528860048801525160a0602488015260c487019061092f565b93516001600160a01b031660448601525160648501525160848401525160a483015203815f73e592427a0aece92de3edee1f18e0157c058615645af15f9181614052575b50613fcb575b506001905b01979095969497613e2a565b151580613feb575b613fdd575f613fba565b505050505050505050600190565b506040516370a0823160e01b81523060048201526020816024818b5afa801561101c5787915f9161401e575b5011613fd3565b9150506020813d821161404a575b816140396020938361090d565b810103126101a5578690515f614017565b3d915061402c565b9091506020813d821161407d575b8161406d6020938361090d565b810103126101a55751905f613fb4565b3d9150614060565b600190613fbf565b600190613e37565b9096506020813d6020116140c1575b816140b16020938361090d565b810103126101a55751955f613dbf565b3d91506140a4565b91906001600160a01b0381161561221c575f51602061462e5f395f51905f523b156101a557604051630d0e30db60e41b8152925f84600481865f51602061462e5f395f51905f525af193841561101c5761158e94614128575b50614138565b5f6141329161090d565b5f614122565b90915f91906001600160a01b03841680158015614332575b6121f2576040516370a0823160e01b8152306004820152946001600160a01b0384169390602087602481885afa96871561101c575f976142fc575b506141bb915f51602061462e5f395f51905f52826141ad876141b295846125c7565b6132f8565b94919091613418565b918215613922571561427757604051916141d660208461090d565b848352813b15611ce95791849161421d938360405180968195829463022c0d9f60e01b8452600484015283602484015230604484015260806064840152608483019061092f565b03925af18015611f9857908391614262575b505060206024915b6040516370a0823160e01b815230600482015292839182905afa918215611cb957916136b457501190565b8161426c9161090d565b611f9457815f61422f565b9060405161428660208261090d565b5f8152823b156101a5576142cc925f928360405180968195829463022c0d9f60e01b8452846004850152602484015230604484015260806064840152608483019061092f565b03925af1801561101c576142e6575b506020602491614237565b6142f39192505f9061090d565b5f9060206142db565b9096506020813d60201161432a575b816143186020938361090d565b810103126101a55751956141bb61418b565b3d915061430b565b508115614150565b91925f92916001600160a01b03851690811580156143df575b613922576040516370a0823160e01b8152306004820152956001600160a01b0382169490602088602481895afa97881561101c575f986143a3575b509181836141ad876141bb966141b2966125c7565b91929097506020823d6020116143d7575b816143c16020938361090d565b810103126101a5579051969091906141b261438e565b3d91506143b4565b508215614353565b604051630b4c774160e11b81526001600160a01b0391821660048201529116602482015262ffffff90911660448201525f9190602081606481731f98431c8ad98523631ae4a59f267346ea31f9845afa5f918161444b575b506144475750565b9150565b9091506020813d60201161447f575b816144676020938361090d565b810103126101a557614478906115f9565b905f61443f565b3d915061445a565b60405163095ea7b360e01b602082019081526001600160a01b0390931660248201525f604480830182905282529283929183906144c560648261090d565b51925af16144d16124bc565b81614515575b50156144df57565b60405162461bcd60e51b815260206004820152600e60248201526d1054141493d59157d1905253115160921b6044820152606490fd5b805180159250821561452a575b50505f6144d7565b61453d92506020809183010191016125af565b5f80614522565b5f809160405182602082019163095ea7b360e01b835273e592427a0aece92de3edee1f18e0157c058615646024820152816044820152604481526144c560648261090d565b5f9190829182604051602081019263095ea7b360e01b845273e592427a0aece92de3edee1f18e0157c0586156460248301526044820152604481526144c560648261090d565b60405163095ea7b360e01b602082019081526001600160a01b03909316602482015260448101939093525f9283929083906144c5816064810161260156fedf6966c971051c3d54ec59162606531493a51404a002842f56009d7e5cf4a8c7000000000000000000000000c02aaa39b223fe8d0a0e5c4f27ead9083c756cc20000000000000000000000006b175474e89094c44da98b954eedeac495271d0f000000000000000000000000a0b86991c6218b36c1d19d4a2e9eb0ce3606eb48000000000000000000000000dac17f958d2ee523a2206206994597c13d831ec7000000000000000000000000d3c41c85be295607e8ea5c58487ec5894300ee67a26469706673582212209a35f2439bd1bc5e32b46a4b8ec48bacbdc3e332bf0068be443cf30f02aced6464736f6c634300081e003360c0346100bb57601f610fd938819003918201601f19168301916001600160401b038311848410176100bf5780849260409485528339810103126100bb57610052602061004b836100d3565b92016100d3565b6001600160a01b0390911660805260a052604051610ef190816100e88239608051818181610106015281816101ec015281816104f80152818161083a015281816108c60152610977015260a05181818160d6015281816103800152818161078401526107e90152f35b5f80fd5b634e487b7160e01b5f52604160045260245ffd5b51906001600160a01b03821682036100bb5756fe608080604052600436101561001c575b50361561001a575f80fd5b005b5f905f3560e01c90816310d1e85c14610a4f5750806313caa01a14610a2c578063352bb4ba14610a0e57806353b38169146109f05780635a459ed414610942578063701d8159146107d2578063808783841461075f57806386b79640146107395780638f20f7ed1461071c578063bc197c8114610680578063e3be69dc1461033b578063f23a6e61146101a45763ff201bc60361000f573461019257606036600319011261019257806100cd610c47565b604435610104337f00000000000000000000000000000000000000000000000000000000000000006001600160a01b031614610d2b565b7f00000000000000000000000000000000000000000000000000000000000000006001600160a01b03169161014690829084906101418282610dc0565b610e7d565b813b156101a0578291604483926040519485938492631c57762b60e31b8452600435600485015260248401525af18015610195576101815750f35b8161018b91610cf5565b6101925780f35b80fd5b6040513d84823e3d90fd5b5050fd5b50346101925760a0366003190112610192576101be610c31565b506101c7610c47565b5060843567ffffffffffffffff8111610337576101e8903690600401610c5d565b50507f00000000000000000000000000000000000000000000000000000000000000006001600160a01b031661021f338214610cbc565b6003549060ff8260081c168061032b575b80610320575b80610313575b610253575b60405163f23a6e6160e01b8152602090f35b60ff8392600160025401600255165f146102bf57815490803b156101a057604483926040519485938492630441a3e760e41b845260048401528160248401525af18015610195576102aa575b50505b5f8080610241565b6102b5828092610cf5565b610192578061029f565b815490803b156101a057604483926040519485938492631c57762b60e31b845260048401528160248401525af18015610195576102fe575b50506102a2565b610309828092610cf5565b61019257806102f7565b506002546001541161023c565b506064351515610236565b50825460443514610230565b5080fd5b5060c036600319011261019257610350610c47565b6044356001600160a01b0381169291908381036105cf5760643560843560a43592831515840361067c576103ae337f00000000000000000000000000000000000000000000000000000000000000006001600160a01b031614610d2b565b8615610648578215158061063f575b1561060a576003805462010000600160b01b03191660109290921b62010000600160b01b031691909117905560045581156106035780915b156105fe5750825b60409485519161040d8784610cf5565b600e835260208301936d11931054d214d5d05417d4d1515160921b8552823b156105fa57908660a4819594938a519788968795869363022c0d9f60e01b855260048501526024840152306044840152608060648401525180918160848501528484015e8181018301849052601f01601f191681010301925af180156105db579083916105e5575b50506003805462010000600160b01b0319169055600482815583516370a0823160e01b815230918101919091526020816024816001600160a01b0386165afa9081156105db5783916105a5575b50801561056e579283610524849560018060a01b037f00000000000000000000000000000000000000000000000000000000000000001685610141828098610dc0565b823b156105695783926044849284519586938492631c57762b60e31b8452600435600485015260248401525af190811561056057506101815750f35b513d84823e3d90fd5b505050fd5b835162461bcd60e51b815260206004820152601060248201526f1393d7d4d1515117d050d4555254915160821b6044820152606490fd5b90506020813d6020116105d3575b816105c060209383610cf5565b810103126105cf57515f6104e1565b8280fd5b3d91506105b3565b84513d85823e3d90fd5b816105ef91610cf5565b61033757815f610494565b8680fd5b6103fd565b83916103f5565b60405162461bcd60e51b815260206004820152600d60248201526c04241445f464c4153485357415609c1b6044820152606490fd5b508115156103bd565b60405162461bcd60e51b815260206004820152600c60248201526b504149525f4d495353494e4760a01b6044820152606490fd5b8580fd5b50346101925760a03660031901126101925761069a610c31565b506106a3610c47565b5060443567ffffffffffffffff8111610337576106c4903690600401610c8b565b505060643567ffffffffffffffff8111610337576106e6903690600401610c8b565b505060843567ffffffffffffffff811161033757610708903690600401610c5d565b505060405163bc197c8160e01b8152602090f35b503461019257806003193601126101925760209054604051908152f35b5034610192578060031936011261019257602060ff60035460081c166040519015158152f35b503461019257606036600319011261019257604435801515809103610337576107b2337f00000000000000000000000000000000000000000000000000000000000000006001600160a01b031614610d2b565b600435825560243560015560ff8019600354169116176003558060025580f35b5034610192578060031936011261019257610817337f00000000000000000000000000000000000000000000000000000000000000006001600160a01b031614610d2b565b60ff60035461010061ff001982161760035582600255165f146108c057805481907f00000000000000000000000000000000000000000000000000000000000000006001600160a01b031690813b156101a0578291604483926040519485938492630441a3e760e41b845260048401528160248401525af18015610195576108ab575b50505b61ff00196003541660035580f35b816108b591610cf5565b61019257805f61089a565b805481907f00000000000000000000000000000000000000000000000000000000000000006001600160a01b031690813b156101a0578291604483926040519485938492631c57762b60e31b845260048401528160248401525af180156101955761092d575b505061089d565b8161093791610cf5565b61019257805f610926565b503461019257602036600319011261019257604080516393f1a40b60e01b8152600480359082015230602482015290816044817f00000000000000000000000000000000000000000000000000000000000000006001600160a01b03165afa9081156101955782916109ba575b602082604051908152f35b90506040813d6040116109e8575b816109d560409383610cf5565b810103126103375760209150515f6109af565b3d91506109c8565b50346101925780600319360112610192576020600254604051908152f35b50346101925780600319360112610192576020600154604051908152f35b5034610192578060031936011261019257602060ff600354166040519015158152f35b905034610c00576080366003190112610c0057610a6a610c31565b9060643567ffffffffffffffff8111610c0057610a8b903690600401610c5d565b505060035460101c6001600160a01b03163303610c045750610ab7906001600160a01b03163014610cbc565b60045473c02aaa39b223fe8d0a0e5c4f27ead9083c756cc23b15610c00575f60049160405192838092630d0e30db60e41b825273c02aaa39b223fe8d0a0e5c4f27ead9083c756cc25af18015610bf557610be2575b5060045460405163a9059cbb60e01b60208201908152336024830152604482019290925282918291610b4b81606481015b03601f198101835282610cf5565b51908273c02aaa39b223fe8d0a0e5c4f27ead9083c756cc25af1610b6d610d69565b81610bb3575b5015610b7c5780f35b60405162461bcd60e51b815260206004820152600f60248201526e1514905394d1915497d19052531151608a1b6044820152606490fd5b8051801592508215610bc8575b50505f610b73565b610bdb9250602080918301019101610da8565b5f80610bc0565b610bee91505f90610cf5565b5f5f610b0c565b6040513d5f823e3d90fd5b5f80fd5b62461bcd60e51b81526020600482015260086024820152672120a22fa820a4a960c11b6044820152606490fd5b600435906001600160a01b0382168203610c0057565b602435906001600160a01b0382168203610c0057565b9181601f84011215610c005782359167ffffffffffffffff8311610c005760208381860195010111610c0057565b9181601f84011215610c005782359167ffffffffffffffff8311610c00576020808501948460051b010111610c0057565b15610cc357565b60405162461bcd60e51b815260206004820152600a6024820152692120a22fa9a2a72222a960b11b6044820152606490fd5b90601f8019910116810190811067ffffffffffffffff821117610d1757604052565b634e487b7160e01b5f52604160045260245ffd5b15610d3257565b60405162461bcd60e51b815260206004820152600f60248201526e27a7262cafa1a7a72a2927a62622a960891b6044820152606490fd5b3d15610da3573d9067ffffffffffffffff8211610d175760405191610d98601f8201601f191660200184610cf5565b82523d5f602084013e565b606090565b90816020910312610c0057518015158103610c005790565b60405163095ea7b360e01b602082019081526001600160a01b0390931660248201525f60448083018290528252928392918390610dfe606482610cf5565b51925af1610e0a610d69565b81610e4e575b5015610e1857565b60405162461bcd60e51b815260206004820152600e60248201526d1054141493d59157d1905253115160921b6044820152606490fd5b8051801592508215610e63575b50505f610e10565b610e769250602080918301019101610da8565b5f80610e5b565b60405163095ea7b360e01b602082019081526001600160a01b03909316602482015260448101939093525f928392908390610dfe8160648101610b3d56fea26469706673582212202a153e3a1c4dd8a9dda83275c3a58fb98df69bcbe81878f6ad30249653d8f06364736f6c634300081e0033df6966c971051c3d54ec59162606531493a51404a002842f56009d7e5cf4a8c7000000000000000000000000c02aaa39b223fe8d0a0e5c4f27ead9083c756cc20000000000000000000000006b175474e89094c44da98b954eedeac495271d0f000000000000000000000000a0b86991c6218b36c1d19d4a2e9eb0ce3606eb48000000000000000000000000dac17f958d2ee523a2206206994597c13d831ec7000000000000000000000000d3c41c85be295607e8ea5c58487ec5894300ee67","linkReferences":{}},"methodIdentifiers":{"DAI()":"e0bab4c4","SUSHISWAP_FACTORY()":"495c0f9b","SUSHISWAP_ROUTER()":"277754ed","TARGET()":"cc1f2afa","UNISWAP_V2_FACTORY()":"99d8fae3","UNISWAP_V2_ROUTER()":"a82ed9ec","UNISWAP_V3_FACTORY()":"f73e5aab","UNISWAP_V3_ROUTER()":"41c64a2f","USDC()":"89a30271","USDT()":"c54e44eb","WETH()":"ad5c4648","deploymentBlock()":"82100e3f","duplicatedPointProfit()":"26e4dd9e","executeOnOpportunity()":"3c2448ed","executed()":"31a38c89","exploitPathUsed()":"d78c4281","exploitTriggered()":"c6e38194","failureReason()":"4f9522a4","finalPointBalance()":"e12e8671","finalReentryCount()":"f184c55e","hypothesisRefuted()":"495f92f1","hypothesisValidated()":"463defd1","legitimateMint()":"c8767ceb","pendingBeforeExploit()":"077db605","profitAmount()":"5ff972cc","profitToken()":"49343624","seedBlock()":"ecc02d5c","seededAmount()":"37ba5094","seededAtDeployment()":"f150354b","seededPid()":"f9b09259","seededToken()":"c63e71c6","staker()":"5ebaf1db"},"id":0}