{"abi":[{"type":"constructor","inputs":[],"stateMutability":"nonpayable"},{"type":"function","name":"owner","inputs":[],"outputs":[{"name":"","type":"address","internalType":"address"}],"stateMutability":"view"},{"type":"function","name":"transferToken","inputs":[{"name":"token","type":"address","internalType":"address"},{"name":"to","type":"address","internalType":"address"},{"name":"amount","type":"uint256","internalType":"uint256"}],"outputs":[],"stateMutability":"nonpayable"}],"bytecode":{"object":"0x60a08060405234602857336080526101e5908161002d8239608051818181606f01526101800152f35b5f80fdfe6080806040526004361015610012575f80fd5b5f3560e01c9081638da5cb5b1461016e575063f5537ede14610032575f80fd5b34610113576060366003190112610113576004356001600160a01b03811690819003610113576024356001600160a01b03811690819003610113577f00000000000000000000000000000000000000000000000000000000000000006001600160a01b0316330361013d575f916044602092604051948593849263a9059cbb60e01b84526004840152833560248401525af18015610132576100d057005b60203d60201161012b575b601f8101601f1916820167ffffffffffffffff8111838210176101175760209183916040528101031261011357518015150361011357005b5f80fd5b634e487b7160e01b5f52604160045260245ffd5b503d6100db565b6040513d5f823e3d90fd5b60405162461bcd60e51b81526020600482015260096024820152683737ba1037bbb732b960b91b6044820152606490fd5b34610113575f366003190112610113577f00000000000000000000000000000000000000000000000000000000000000006001600160a01b03168152602090f3fea26469706673582212206527b912a1a2ce1cd06396246a40135253c273c33d0e978ca0dd65a0d7ad634664736f6c634300081e0033","linkReferences":{}},"methodIdentifiers":{"owner()":"8da5cb5b","transferToken(address,address,uint256)":"f5537ede"},"id":0}