{"abi":[{"type":"constructor","inputs":[],"stateMutability":"nonpayable"},{"type":"receive","stateMutability":"payable"},{"type":"function","name":"TARGET","inputs":[],"outputs":[{"name":"","type":"address","internalType":"address"}],"stateMutability":"view"},{"type":"function","name":"executeOnOpportunity","inputs":[],"outputs":[],"stateMutability":"nonpayable"},{"type":"function","name":"profitAmount","inputs":[],"outputs":[{"name":"","type":"uint256","internalType":"uint256"}],"stateMutability":"view"},{"type":"function","name":"profitToken","inputs":[],"outputs":[{"name":"","type":"address","internalType":"address"}],"stateMutability":"view"}],"bytecode":{"object":"0x60808060405234601557611017908161001a8239f35b5f80fdfe6080604052600436101561001a575b3615610018575f80fd5b005b5f3560e01c80633c2448ed146100c057806349343624146100985780635ff972cc1461007c5763cc1f2afa0361000e5734610078575f3660031901126100785760206040517337ea5f691bce8459c66ffceeb9cf34ffa32fdadc8152f35b5f80fd5b34610078575f3660031901126100785760205f54604051908152f35b34610078575f366003190112610078576001546040516001600160a01b039091168152602090f35b34610078575f36600319011261007857610018610177565b60e0810190811067ffffffffffffffff8211176100f457604052565b634e487b7160e01b5f52604160045260245ffd5b90601f8019910116810190811067ffffffffffffffff8211176100f457604052565b51906001600160a01b038216820361007857565b90816020910312610078575180151581036100785790565b9190820391821161016357565b634e487b7160e01b5f52601160045260245ffd5b600180546001600160a01b03191690555f80556040516320c158af60e21b815247906020816004817337ea5f691bce8459c66ffceeb9cf34ffa32fdadc5afa5f91816105b2575b506101c7575050565b6001600160a01b031680156105ae5760405163387c8aeb60e01b8152602081600481855afa5f9181610572575b506101fe57505050565b916001600160a01b03831680158015610506575b61050057604051610222816100d8565b5f81525f60208201525f60408201525f60608201525f60808201525f60a08201525f60c0820152506040519062d7f52760e31b8252600482015260e0816024817337ea5f691bce8459c66ffceeb9cf34ffa32fdadc5afa5f918161047a575b5061028c5750505050565b6040810192835115801561046e575b6103e7576080820151156103e7576020600491604051928380926303e21fa960e61b82525afa5f9181610432575b506102d5575050505050565b6001600160a01b03169081156103e7576040516315ab88c960e31b8152602081600481865afa5f91816103f6575b5061031057505050505050565b936001600160a01b038516156103ee5751606082015111156103e757604051946080860186811067ffffffffffffffff8211176100f4576040526703782dace9d9000086526706f05b59d3b200006020870152670a688906bd8b00006040870152670de0b6b3a764000060608701525f5b60048110156103db5761039d8160051b8801518484898861066b565b6103a957600101610381565b505050509150505b47908082116103be575050565b6103c791610156565b5f55600180546001600160a01b0319169055565b505050509150506103b1565b5050505050565b505050505050565b9091506020813d60201161042a575b8161041260209383610108565b81010312610078576104239061012a565b905f610303565b3d9150610405565b9091506020813d602011610466575b8161044e60209383610108565b810103126100785761045f9061012a565b905f6102c9565b3d9150610441565b5060608201511561029b565b90915060e0813d60e0116104f8575b8161049660e09383610108565b81010312610078576104ec60c0604051926104b0846100d8565b805184526020810151602085015260408101516040850152606081015160608501526080810151608085015260a081015160a08501520161012a565b60c0820152905f610281565b3d9150610489565b50505050565b50604051630736b32b60e31b815260048101829052602081602481875afa908115610567575f91610538575b50610212565b61055a915060203d602011610560575b6105528183610108565b81019061013e565b5f610532565b503d610548565b6040513d5f823e3d90fd5b9091506020813d6020116105a6575b8161058e60209383610108565b810103126100785761059f9061012a565b905f6101f4565b3d9150610581565b5050565b9091506020813d6020116105e6575b816105ce60209383610108565b81010312610078576105df9061012a565b905f6101be565b3d91506105c1565b9190820180921161016357565b8181029291811591840414171561016357565b8115610618570490565b634e487b7160e01b5f52601260045260245ffd5b3d15610666573d9067ffffffffffffffff82116100f4576040519161065b601f8201601f191660200184610108565b82523d5f602084013e565b606090565b93929391909183156109a657834711156109a6576040516370a0823160e01b815230600482015247956001600160a01b0384169590916020816024818a5afa908115610567575f91610974575b506106c582868887610a1c565b15610934576040516370a0823160e01b8152306004820152906020826024818b5afa8015610567575f90610940575b6106fe9250610156565b9081156109345761072482867337ea5f691bce8459c66ffceeb9cf34ffa32fdadc610ada565b928315801561092b575b6109195761073c84846105ee565b61075861074d6060840151836105fb565b60408401519061060e565b818111156109055761078661078d93608061077d8995670de0b6b3a764000095610156565b910151906105fb565b04926105ee565b67016345785d8a00008101809111610163578111156108f4576107c5837337ea5f691bce8459c66ffceeb9cf34ffa32fdadc316105ee565b106108e4576107d48185610d8a565b156108e4575f9182916040516020810191630577392b60e31b835289602483015260448201528360648201526064815261080f608482610108565b51917337ea5f691bce8459c66ffceeb9cf34ffa32fdadc5af161083061062c565b50156108d2575050505f8091604051602081019163d279c19160e01b8352602482015260248152610862604482610108565b5190827337ea5f691bce8459c66ffceeb9cf34ffa32fdadc5af161088461062c565b50156108cd57600180546001600160a01b0319169055478110156108bd576108b567016345785d8a00009147610156565b805f55101590565b5067016345785d8a00005f6108b5565b505f90565b909192506108e09350610c61565b5f90565b5050909192506108e09350610c61565b505050909192506108e09350610c61565b505050505050909192506108e09350610c61565b50505050909192506108e09350610c61565b5083471061072e565b50505050505050505f90565b506020823d60201161096c575b8161095a60209383610108565b81010312610078576106fe91516106f4565b3d915061094d565b90506020813d60201161099e575b8161098f60209383610108565b8101031261007857515f6106b8565b3d9150610982565b50505050505f90565b8051156109bc5760200190565b634e487b7160e01b5f52603260045260245ffd5b8051600110156109bc5760400190565b90602080835192838152019201905f5b8181106109fd5750505090565b82516001600160a01b03168452602093840193909201916001016109f0565b6040515f94939092610a2f606085610108565b600284526040366020860137610a44846109af565b6001600160a01b039091169052610a5a836109d0565b6001600160a01b0391821690521690813b15610078575f91610aa09160405194858094819363b6f9de9560e01b83528760048401526080602484015260848301906109e0565b30604483015242606483015203925af19081610ac5575b50610abf5790565b50600190565b610ad29192505f90610108565b5f905f610ab7565b60408051630fa6707960e21b81526001600160a01b0393841660048201525f9493859391929183916024918391165afa90815f915f93610c26575b50610c1b575b505080158015610c13575b8015610c0b575b610c0457610b4483610b3f83856105fb565b61060e565b928315610bfc5760405191610120830183811067ffffffffffffffff8211176100f457604052612710835261270f60208401526127116040840152612706606084015261271a60808401526126ac60a084015261277460c084015261264860e08401526127d86101008401525f5b6009811015610bf257612710610bce8260051b860151886105fb565b04610bdb84848884610f5c565b610be85750600101610bb2565b9550505050505090565b5050505050505f90565b505050505f90565b5050505f90565b508115610b2d565b508215610b26565b915092505f80610b1b565b915091506040813d604011610c59575b81610c4360409383610108565b810103126100785760208151910151915f610b15565b3d9150610c36565b6040516370a0823160e01b815230600482015291926001600160a01b03841691602084602481865afa938415610567575f94610d56575b5083156103e7576001600160a01b031693610cb69084908690610ea2565b156105005760405191610cca606084610108565b600283526040366020850137610cdf836109af565b52610ce9826109d0565b6001600160a01b039091169052823b1561007857610d33925f928360405180968195829463791ac94760e01b8452600484015283602484015260a0604484015260a48301906109e0565b30606483015242608483015203925af1610d4a5750565b5f610d5491610108565b565b9093506020813d602011610d82575b81610d7260209383610108565b810103126100785751925f610c98565b3d9150610d65565b905f80604051602081019063095ea7b360e01b82527337ea5f691bce8459c66ffceeb9cf34ffa32fdadc602482015282604482015260448152610dce606482610108565b519082865af1610ddc61062c565b9015908115610e72575b50610e6c575f91829182604051602081019263095ea7b360e01b84527337ea5f691bce8459c66ffceeb9cf34ffa32fdadc6024830152604482015260448152610e30606482610108565b51925af1610e3c61062c565b81610e45575090565b8051801592508215610e5657505090565b610e69925060208091830101910161013e565b90565b50505f90565b8051801515925082610e87575b50505f610de6565b610e9a925060208091830101910161013e565b155f80610e7f565b9190915f8060405194602086019063095ea7b360e01b825260018060a01b03169586602482015282604482015260448152610ede606482610108565b519082855af1610eec61062c565b9015908115610f2c575b50610c04575f9283809360405190602082019363095ea7b360e01b85526024830152604482015260448152610e30606482610108565b8051801515925082610f41575b50505f610ef6565b610f54925060208091830101910161013e565b155f80610f39565b9291909280158015610fd9575b8015610fd1575b8015610fc9575b610bfc57610f8892610b3f916105fb565b908115610e6c576063820282810460630361016357606490048110159182610faf57505090565b909150606581029081046065036101635760649004101590565b508215610f77565b508115610f70565b508315610f6956fea2646970667358221220ae734af99d9223d2bb288625c0e39f854d29f9eaed1122e9af6e1ad4e555b65364736f6c634300081e0033","linkReferences":{}},"methodIdentifiers":{"TARGET()":"cc1f2afa","executeOnOpportunity()":"3c2448ed","profitAmount()":"5ff972cc","profitToken()":"49343624"},"id":0}