{"abi":[{"type":"constructor","inputs":[],"stateMutability":"nonpayable"},{"type":"receive","stateMutability":"payable"},{"type":"function","name":"attempted","inputs":[],"outputs":[{"name":"","type":"bool","internalType":"bool"}],"stateMutability":"view"},{"type":"function","name":"borrowedWethAmount","inputs":[],"outputs":[{"name":"","type":"uint256","internalType":"uint256"}],"stateMutability":"view"},{"type":"function","name":"executeDirectPath","inputs":[],"outputs":[],"stateMutability":"nonpayable"},{"type":"function","name":"executeOnOpportunity","inputs":[],"outputs":[],"stateMutability":"nonpayable"},{"type":"function","name":"executeOperation","inputs":[{"name":"","type":"address[]","internalType":"address[]"},{"name":"","type":"uint256[]","internalType":"uint256[]"},{"name":"","type":"uint256[]","internalType":"uint256[]"},{"name":"","type":"address","internalType":"address"},{"name":"","type":"bytes","internalType":"bytes"}],"outputs":[{"name":"","type":"bool","internalType":"bool"}],"stateMutability":"nonpayable"},{"type":"function","name":"hypothesisValidated","inputs":[],"outputs":[{"name":"","type":"bool","internalType":"bool"}],"stateMutability":"view"},{"type":"function","name":"oraclePriceAfterExit","inputs":[],"outputs":[{"name":"","type":"uint256","internalType":"uint256"}],"stateMutability":"view"},{"type":"function","name":"oraclePriceBeforeExit","inputs":[],"outputs":[{"name":"","type":"uint256","internalType":"uint256"}],"stateMutability":"view"},{"type":"function","name":"oraclePriceDuringCallback","inputs":[],"outputs":[{"name":"","type":"uint256","internalType":"uint256"}],"stateMutability":"view"},{"type":"function","name":"profitAmount","inputs":[],"outputs":[{"name":"","type":"uint256","internalType":"uint256"}],"stateMutability":"view"},{"type":"function","name":"profitToken","inputs":[],"outputs":[{"name":"","type":"address","internalType":"address"}],"stateMutability":"pure"},{"type":"function","name":"requestFlashloan","inputs":[{"name":"","type":"uint256","internalType":"uint256"},{"name":"","type":"uint256","internalType":"uint256"}],"outputs":[],"stateMutability":"nonpayable"}],"bytecode":{"object":"0x6080604052348015600e575f5ffd5b5061089c8061001c5f395ff3fe6080604052600436106100aa575f3560e01c80635ff972cc116100635780635ff972cc146103095780637ef43d7614610333578063917f51b41461035d578063920f5c8414610387578063c3b85220146103c3578063cde0d4ef146103eb57610231565b80631a1ea498146102355780631f149c7c1461025f5780633c2448ed1461028957806340505b191461029f578063463defd1146102b557806349343624146102df57610231565b3661023157600560029054906101000a900460ff1680156100d85750600560039054906101000a900460ff16155b1561022f576001600560036101000a81548160ff02191690831515021790555073e5d78eb340627b8d5bcff63590ebec1ef9118c8973ffffffffffffffffffffffffffffffffffffffff1663b3596f077310aa9eea35a3102cc47d4d93bc0ba9ae455577466040518263ffffffff1660e01b815260040161015991906104e8565b602060405180830381865afa158015610174573d5f5f3e3d5ffd5b505050506040513d601f19601f82011682018060405250810190610198919061053c565b600281905550739f72dc67cec672bb99e3d02cbea0a21536a2b65773ffffffffffffffffffffffffffffffffffffffff16635a3b74b973901247d08bebfd449526da92941b35d756873bcd5f6040518363ffffffff1660e01b8152600401610201929190610581565b5f604051808303815f87803b158015610218575f5ffd5b505af115801561022a573d5f5f3e3d5ffd5b505050505b005b5f5ffd5b348015610240575f5ffd5b50610249610415565b60405161025691906105b7565b60405180910390f35b34801561026a575f5ffd5b5061027361041b565b60405161028091906105b7565b60405180910390f35b348015610294575f5ffd5b5061029d610421565b005b3480156102aa575f5ffd5b506102b361043d565b005b3480156102c0575f5ffd5b506102c961043f565b6040516102d691906105d0565b60405180910390f35b3480156102ea575f5ffd5b506102f3610452565b60405161030091906104e8565b60405180910390f35b348015610314575f5ffd5b5061031d61046d565b60405161032a91906105b7565b60405180910390f35b34801561033e575f5ffd5b50610347610475565b60405161035491906105b7565b60405180910390f35b348015610368575f5ffd5b5061037161047b565b60405161037e91906105d0565b60405180910390f35b348015610392575f5ffd5b506103ad60048036038101906103a8919061071e565b61048d565b6040516103ba91906105d0565b60405180910390f35b3480156103ce575f5ffd5b506103e960048036038101906103e49190610828565b61049f565b005b3480156103f6575f5ffd5b506103ff6104a3565b60405161040c91906105b7565b60405180910390f35b60025481565b60015481565b600160055f6101000a81548160ff021916908315150217905550565b565b600560019054906101000a900460ff1681565b5f73c02aaa39b223fe8d0a0e5c4f27ead9083c756cc2905090565b5f5f54905090565b60035481565b60055f9054906101000a900460ff1681565b5f600190509998505050505050505050565b5050565b60045481565b5f73ffffffffffffffffffffffffffffffffffffffff82169050919050565b5f6104d2826104a9565b9050919050565b6104e2816104c8565b82525050565b5f6020820190506104fb5f8301846104d9565b92915050565b5f5ffd5b5f5ffd5b5f819050919050565b61051b81610509565b8114610525575f5ffd5b50565b5f8151905061053681610512565b92915050565b5f6020828403121561055157610550610501565b5b5f61055e84828501610528565b91505092915050565b5f8115159050919050565b61057b81610567565b82525050565b5f6040820190506105945f8301856104d9565b6105a16020830184610572565b9392505050565b6105b181610509565b82525050565b5f6020820190506105ca5f8301846105a8565b92915050565b5f6020820190506105e35f830184610572565b92915050565b5f5ffd5b5f5ffd5b5f5ffd5b5f5f83601f84011261060a576106096105e9565b5b8235905067ffffffffffffffff811115610627576106266105ed565b5b602083019150836020820283011115610643576106426105f1565b5b9250929050565b5f5f83601f84011261065f5761065e6105e9565b5b8235905067ffffffffffffffff81111561067c5761067b6105ed565b5b602083019150836020820283011115610698576106976105f1565b5b9250929050565b6106a8816104c8565b81146106b2575f5ffd5b50565b5f813590506106c38161069f565b92915050565b5f5f83601f8401126106de576106dd6105e9565b5b8235905067ffffffffffffffff8111156106fb576106fa6105ed565b5b602083019150836001820283011115610717576107166105f1565b5b9250929050565b5f5f5f5f5f5f5f5f5f60a08a8c03121561073b5761073a610501565b5b5f8a013567ffffffffffffffff81111561075857610757610505565b5b6107648c828d016105f5565b995099505060208a013567ffffffffffffffff81111561078757610786610505565b5b6107938c828d0161064a565b975097505060408a013567ffffffffffffffff8111156107b6576107b5610505565b5b6107c28c828d0161064a565b955095505060606107d58c828d016106b5565b93505060808a013567ffffffffffffffff8111156107f6576107f5610505565b5b6108028c828d016106c9565b92509250509295985092959850929598565b5f8135905061082281610512565b92915050565b5f5f6040838503121561083e5761083d610501565b5b5f61084b85828601610814565b925050602061085c85828601610814565b915050925092905056fea2646970667358221220e87a44e5510d7ab78ef2bb5c98d823b88093a87c87a671b3cf76511416c7013164736f6c634300081e0033","linkReferences":{}},"methodIdentifiers":{"attempted()":"917f51b4","borrowedWethAmount()":"cde0d4ef","executeDirectPath()":"40505b19","executeOnOpportunity()":"3c2448ed","executeOperation(address[],uint256[],uint256[],address,bytes)":"920f5c84","hypothesisValidated()":"463defd1","oraclePriceAfterExit()":"7ef43d76","oraclePriceBeforeExit()":"1f149c7c","oraclePriceDuringCallback()":"1a1ea498","profitAmount()":"5ff972cc","profitToken()":"49343624","requestFlashloan(uint256,uint256)":"c3b85220"},"id":0}