{"abi":[{"type":"constructor","inputs":[{"name":"_bridge","type":"address","internalType":"address"},{"name":"_forgedOtherBridge","type":"address","internalType":"address"},{"name":"_operator","type":"address","internalType":"address"}],"stateMutability":"nonpayable"},{"type":"receive","stateMutability":"payable"},{"type":"function","name":"bridge","inputs":[],"outputs":[{"name":"","type":"address","internalType":"contract IL1StandardBridge"}],"stateMutability":"view"},{"type":"function","name":"forgedOtherBridge","inputs":[],"outputs":[{"name":"","type":"address","internalType":"address"}],"stateMutability":"view"},{"type":"function","name":"operator","inputs":[],"outputs":[{"name":"","type":"address","internalType":"address"}],"stateMutability":"view"},{"type":"function","name":"sendMessage","inputs":[{"name":"","type":"address","internalType":"address"},{"name":"","type":"bytes","internalType":"bytes"},{"name":"","type":"uint32","internalType":"uint32"}],"outputs":[],"stateMutability":"payable"},{"type":"function","name":"triggerFinalizeERC20Withdrawal","inputs":[{"name":"l1Token","type":"address","internalType":"address"},{"name":"l2Token","type":"address","internalType":"address"},{"name":"from","type":"address","internalType":"address"},{"name":"to","type":"address","internalType":"address"},{"name":"amount","type":"uint256","internalType":"uint256"},{"name":"extraData","type":"bytes","internalType":"bytes"}],"outputs":[],"stateMutability":"nonpayable"},{"type":"function","name":"triggerFinalizeETHWithdrawal","inputs":[{"name":"from","type":"address","internalType":"address"},{"name":"to","type":"address","internalType":"address"},{"name":"amount","type":"uint256","internalType":"uint256"},{"name":"extraData","type":"bytes","internalType":"bytes"}],"outputs":[],"stateMutability":"payable"},{"type":"function","name":"xDomainMessageSender","inputs":[],"outputs":[{"name":"","type":"address","internalType":"address"}],"stateMutability":"view"}],"bytecode":{"object":"0x60e0346100b857601f61063138819003918201601f19168301916001600160401b038311848410176100bc578084926060946040528339810103126100b857610047816100d0565b906100606040610059602084016100d0565b92016100d0565b6001600160a01b0390921660805260a05260c05260405161054c90816100e582396080518181816087015281816101f7015261033d015260a05181610455015260c05181818160d4015281816101c7015261030d0152f35b5f80fd5b634e487b7160e01b5f52604160045260245ffd5b51906001600160a01b03821682036100b85756fe6080604052600436101561001a575b3615610018575f80fd5b005b5f5f3560e01c80630a97410f146102c157806317804680146101515780633dbb202b14610103578063570ca735146100be5780636e296e45146100b9578063d7e7e755146100b95763e78cea9214610072575061000e565b346100b657806003193601126100b6576040517f00000000000000000000000000000000000000000000000000000000000000006001600160a01b03168152602090f35b80fd5b610440565b50346100b657806003193601126100b6576040517f00000000000000000000000000000000000000000000000000000000000000006001600160a01b03168152602090f35b5060603660031901126100b6576101186103e6565b5060243567ffffffffffffffff811161014d57610139903690600401610412565b505060443563ffffffff8116036100b65780f35b5080fd5b50346100b65760c03660031901126100b6578061016c6103e6565b6101746103fc565b6044356001600160a01b038116908190036102bc576064356001600160a01b03811693908490036102b85760a43567ffffffffffffffff81116102b4576101bf903690600401610412565b93906101f5337f00000000000000000000000000000000000000000000000000000000000000006001600160a01b031614610484565b7f00000000000000000000000000000000000000000000000000000000000000006001600160a01b031692833b156102b05760405163a9f9e67560e01b81526001600160a01b0391821660048201529216602483015260448201939093526064810194909452608480359085015260c060a4850152849284928391859183916102839160c4840191906104f6565b03925af180156102a5576102945750f35b8161029e916104c0565b6100b65780f35b6040513d84823e3d90fd5b8780fd5b8580fd5b8480fd5b505050fd5b5060803660031901126103e2576102d66103e6565b6102de6103fc565b9060443560643567ffffffffffffffff81116103e257610302903690600401610412565b909390919061033b337f00000000000000000000000000000000000000000000000000000000000000006001600160a01b031614610484565b7f00000000000000000000000000000000000000000000000000000000000000006001600160a01b031691823b156103e25760405163054cbb0d60e21b81526001600160a01b0395861660048201529190941660248201526044810184905260806064820152935f938593849283916103b9916084840191906104f6565b03925af180156103d7576103cb575080f35b61001891505f906104c0565b6040513d5f823e3d90fd5b5f80fd5b600435906001600160a01b03821682036103e257565b602435906001600160a01b03821682036103e257565b9181601f840112156103e25782359167ffffffffffffffff83116103e257602083818601950101116103e257565b346103e2575f3660031901126103e2576040517f00000000000000000000000000000000000000000000000000000000000000006001600160a01b03168152602090f35b1561048b57565b60405162461bcd60e51b815260206004820152600d60248201526c6f70657261746f722d6f6e6c7960981b6044820152606490fd5b90601f8019910116810190811067ffffffffffffffff8211176104e257604052565b634e487b7160e01b5f52604160045260245ffd5b908060209392818452848401375f828201840152601f01601f191601019056fea2646970667358221220213ad2bd363cacf95b766e12229b88519b03f2d6b5ebf0e6144e19db53685e8f64736f6c634300081e0033","linkReferences":{}},"methodIdentifiers":{"bridge()":"e78cea92","forgedOtherBridge()":"d7e7e755","operator()":"570ca735","sendMessage(address,bytes,uint32)":"3dbb202b","triggerFinalizeERC20Withdrawal(address,address,address,address,uint256,bytes)":"17804680","triggerFinalizeETHWithdrawal(address,address,uint256,bytes)":"0a97410f","xDomainMessageSender()":"6e296e45"},"id":0}