{"abi":[{"type":"constructor","inputs":[],"stateMutability":"nonpayable"},{"type":"receive","stateMutability":"payable"},{"type":"function","name":"OTHER_BRIDGE","inputs":[],"outputs":[{"name":"","type":"address","internalType":"address"}],"stateMutability":"view"},{"type":"function","name":"TARGET","inputs":[],"outputs":[{"name":"","type":"address","internalType":"address"}],"stateMutability":"view"},{"type":"function","name":"attackerMessenger","inputs":[],"outputs":[{"name":"","type":"address","internalType":"contract AttackerMessenger"}],"stateMutability":"view"},{"type":"function","name":"executeOnOpportunity","inputs":[],"outputs":[],"stateMutability":"nonpayable"},{"type":"function","name":"executed","inputs":[],"outputs":[{"name":"","type":"bool","internalType":"bool"}],"stateMutability":"view"},{"type":"function","name":"exploitPath","inputs":[],"outputs":[{"name":"","type":"string","internalType":"string"}],"stateMutability":"pure"},{"type":"function","name":"forgedMessengerBypassValidated","inputs":[],"outputs":[{"name":"","type":"bool","internalType":"bool"}],"stateMutability":"view"},{"type":"function","name":"hypothesisRefuted","inputs":[],"outputs":[{"name":"","type":"bool","internalType":"bool"}],"stateMutability":"view"},{"type":"function","name":"hypothesisValidated","inputs":[],"outputs":[{"name":"","type":"bool","internalType":"bool"}],"stateMutability":"view"},{"type":"function","name":"messengerTakeoverValidated","inputs":[],"outputs":[{"name":"","type":"bool","internalType":"bool"}],"stateMutability":"view"},{"type":"function","name":"outcome","inputs":[],"outputs":[{"name":"","type":"string","internalType":"string"}],"stateMutability":"view"},{"type":"function","name":"profitAmount","inputs":[],"outputs":[{"name":"","type":"uint256","internalType":"uint256"}],"stateMutability":"view"},{"type":"function","name":"profitToken","inputs":[],"outputs":[{"name":"","type":"address","internalType":"address"}],"stateMutability":"view"}],"bytecode":{"object":"0x60c0806040523461019c577340c31236b228935b0329eff066b1ad96e319595e608052610631818101906001600160401b03821183831017610188576060918391611f1483397340c31236b228935b0329eff066b1ad96e319595e815273420000000000000000000000000000000000001060208201523060408201520301905ff0801561017d5760a052600154600181811c91168015610173575b602082101461015f57601f8111610117575b600e663737ba16b93ab760c91b01600155604051611d7390816101a182396080518181816105bf01528181610c3601526115ab015260a05181818161042c015281816106be01528181610c7401528181610cee01528181610d67015281816119390152611a720152f35b60015f52601f0160051c7fb10e2d527612073b26eecdfd717e6a320cf44b4afac2b0732d9fcbe2b7fa0cf6908101905b81811061015457506100ad565b5f8155600101610147565b634e487b7160e01b5f52602260045260245ffd5b90607f169061009b565b6040513d5f823e3d90fd5b634e487b7160e01b5f52604160045260245ffd5b5f80fdfe608080604052600436101561001c575b50361561001a575f80fd5b005b5f3560e01c90816306be87d41461041a5750806327793f871461034f57806331a38c891461032e5780633c2448ed14610316578063463defd1146102f257806349343624146102ca578063495f92f1146102a75780635ff972cc1461028a5780637f46ddb214610268578063be726d8914610244578063cb707c621461010d578063cc1f2afa146100df5763feaa9457146100b7575f61000f565b346100db575f3660031901126100db57602060ff5f5460101c166040519015158152f35b5f80fd5b346100db575f3660031901126100db5760206040517340c31236b228935b0329eff066b1ad96e319595e8152f35b346100db575f3660031901126100db5761024060405161012f610100826104c3565b60cc81527f4c315374616e646172644272696467652e696e697469616c697a65286174746160208201527f636b65724d657373656e67657229202d3e2061747461636b65724d657373656e60408201527f6765722e78446f6d61696e4d65737361676553656e646572282920726574757260608201527f6e732061646472657373284f544845525f42524944474529202d3e20666f726760808201527f6564206d657373656e6765722063616c6c732066696e616c697a65455448576960a08201527f746864726177616c282e2e2e29202f2066696e616c697a65455243323057697460c08201526b6864726177616c282e2e2e2960a01b60e08201526040519182916020835260208301906104e5565b0390f35b346100db575f3660031901126100db57602060ff5f5460081c166040519015158152f35b346100db575f3660031901126100db576040516010602160991b018152602090f35b346100db575f3660031901126100db576020600354604051908152f35b346100db575f3660031901126100db57602060ff5f54821c166040519015158152f35b346100db575f3660031901126100db576002546040516001600160a01b039091168152602090f35b346100db575f3660031901126100db57602060ff5f5460181c166040519015158152f35b346100db575f3660031901126100db5761001a610571565b346100db575f3660031901126100db57602060ff5f54166040519015158152f35b346100db575f3660031901126100db576040515f60015461036f8161045b565b80845290600181169081156103f657506001146103ab575b61024083610397818503826104c3565b6040519182916020835260208301906104e5565b91905060015f525f516020611cfe5f395f51905f52915f905b8082106103dc57509091508101602001610397610387565b9192600181602092548385880101520191019092916103c4565b60ff191660208086019190915291151560051b840190910191506103979050610387565b346100db575f3660031901126100db577f00000000000000000000000000000000000000000000000000000000000000006001600160a01b03168152602090f35b90600182811c92168015610489575b602083101461047557565b634e487b7160e01b5f52602260045260245ffd5b91607f169161046a565b6040810190811067ffffffffffffffff8211176104af57604052565b634e487b7160e01b5f52604160045260245ffd5b90601f8019910116810190811067ffffffffffffffff8211176104af57604052565b805180835260209291819084018484015e5f828201840152601f01601f1916010190565b601f81116105145750565b60015f52601f0160051c5f516020611cfe5f395f51905f52015f516020611cde5f395f51905f525b818110610547575050565b5f815560010161053c565b908160209103126100db57516001600160a01b03811681036100db5790565b5f5460ff8116610c305764ffffffffff19166001175f908155600280546001600160a01b03191690556003556105a5610c33565b15610b725760405163927ede2d60e01b81526020816004817f00000000000000000000000000000000000000000000000000000000000000006001600160a01b03165afa5f9181610b41575b506106b4575061060260015461045b565b601f8111610674575b50604f60015560015f527f726566757465642d73746167652d312d6d657373656e6765722d6765747465725f516020611cfe5f395f51905f5255660b59985a5b195960ca1b5f516020611d1e5f395f51905f525564010000000064ff00000000195f5416175f55565b60015f52601f0160051c5f516020611cfe5f395f51905f52015f516020611cde5f395f51905f525b8181106106a9575061060b565b5f815560010161069c565b6001600160a01b037f00000000000000000000000000000000000000000000000000000000000000008116911603610a855761010061ff00195f5416175f556106fb610cd9565b156109c157610708610d60565b156108ee576201000062ff0000195f5416175f55610724610f8a565b61087d57610730611706565b6108075761073f60015461045b565b601f81116107c7575b50607560015560015f527f726566757465642d73746167652d332d6e6f2d70726f66697461626c652d65725f516020611cfe5f395f51905f52557f6332302d7769746864726177616c2d726f7574652d666f756e640000000000005f516020611d1e5f395f51905f525564010000000064ff00000000195f5416175f55565b60015f52601f0160051c5f516020611cfe5f395f51905f52015f516020611cde5f395f51905f525b8181106107fc5750610748565b5f81556001016107ef565b630100000063ff000000195f5416175f5561082b61082660015461045b565b610509565b604960015560015f527f76616c6964617465642d776974682d6d696e7461626c652d65726332302d70725f516020611cfe5f395f51905f5255631bd99a5d60e21b5f516020611d1e5f395f51905f5255565b630100000063ff000000195f5416175f5561089c61082660015461045b565b604960015560015f527f76616c6964617465642d776974682d657363726f7765642d65726332302d70725f516020611cfe5f395f51905f5255631bd99a5d60e21b5f516020611d1e5f395f51905f5255565b6108f960015461045b565b601f8111610981575b50607160015560015f527f726566757465642d73746167652d322d666f726765642d66696e616c697a65655f516020611cfe5f395f51905f52557f74687769746864726177616c2d63616c6c2d6661696c656400000000000000005f516020611d1e5f395f51905f525564010000000064ff00000000195f5416175f55565b60015f52601f0160051c5f516020611cfe5f395f51905f52015f516020611cde5f395f51905f525b8181106109b65750610902565b5f81556001016109a9565b6109cc60015461045b565b601f8111610a45575b50605d60015560015f527f726566757465642d73746167652d322d666f726765642d78646f6d61696e2d735f516020611cfe5f395f51905f52556d0cadcc8cae45adad2e6dac2e8c6d60931b5f516020611d1e5f395f51905f525564010000000064ff00000000195f5416175f55565b60015f52601f0160051c5f516020611cfe5f395f51905f52015f516020611cde5f395f51905f525b818110610a7a57506109d5565b5f8155600101610a6d565b610a9060015461045b565b601f8111610b01575b50604d60015560015f527f726566757465642d73746167652d312d6d657373656e6765722d6e6f742d72655f516020611cfe5f395f51905f5255651c1b1858d95960d21b5f516020611d1e5f395f51905f525564010000000064ff00000000195f5416175f55565b60015f52601f0160051c5f516020611cfe5f395f51905f52015f516020611cde5f395f51905f525b818110610b365750610a99565b5f8155600101610b29565b610b6491925060203d602011610b6b575b610b5c81836104c3565b810190610552565b905f6105f1565b503d610b52565b610b7d60015461045b565b601f8111610bf0575b50605160015560015f527f726566757465642d73746167652d312d696e697469616c697a652d7265706c615f516020611cfe5f395f51905f5255671e4b59985a5b195960c21b5f516020611d1e5f395f51905f525564010000000064ff00000000195f5416175f55565b60015f52601f0160051c5f516020611cfe5f395f51905f52015f516020611cde5f395f51905f525b818110610c255750610b86565b5f8155600101610c18565b50565b5f7f00000000000000000000000000000000000000000000000000000000000000006001600160a01b0316803b156100db5760405163189acdbd60e31b81527f00000000000000000000000000000000000000000000000000000000000000006001600160a01b03166004820152905f908290602490829084905af19081610cc4575b50610cbe5790565b50600190565b610cd19192505f906104c3565b5f905f610cb6565b604051636e296e4560e01b81526020816004817f00000000000000000000000000000000000000000000000000000000000000006001600160a01b03165afa5f9181610d3f575b50610d2a57505f90565b6001600160a01b03166010602160991b011490565b610d5991925060203d602011610b6b57610b5c81836104c3565b905f610d20565b6040515f907f00000000000000000000000000000000000000000000000000000000000000006001600160a01b0316610d9a6020836104c3565b5f8252803b156100db57610de45f92918392604051948580948193630a97410f60e01b835230600484015261beef60248401528360448401526080606484015260848301906104e5565b03925af19081610cc45750610cbe5790565b805115610e035760200190565b634e487b7160e01b5f52603260045260245ffd5b805160011015610e035760400190565b805160021015610e035760600190565b805160031015610e035760800190565b805160041015610e035760a00190565b805160051015610e035760c00190565b805160061015610e035760e00190565b805160071015610e03576101000190565b805160081015610e03576101200190565b805160091015610e03576101400190565b8051600a1015610e03576101600190565b8051600b1015610e03576101800190565b8051600c1015610e03576101a00190565b8051600d1015610e03576101c00190565b8051600e1015610e03576101e00190565b8051600f1015610e03576102000190565b805160101015610e03576102200190565b805160111015610e03576102400190565b805160121015610e03576102600190565b805160131015610e03576102800190565b805160141015610e03576102a00190565b805160151015610e03576102c00190565b8051821015610e035760209160051b010190565b6040516102e0610f9a81836104c3565b60168252601f19015f5b8181106116e3575050604051610fb981610493565b73c02aaa39b223fe8d0a0e5c4f27ead9083c756cc281526006602160991b016020820152610fe682610df6565b52610ff081610df6565b50604051610ffd81610493565b736b175474e89094c44da98b954eedeac495271d0f815273da10009cbd5d07dd0cecc66161fc93d7c9000da1602082015261103782610e17565b5261104181610e17565b5060405161104e81610493565b73514910771af9ca656af840dff83e8264ecf986ca815273350a791bfc2c21f9ed5d10980dad2e2638ffa7f6602082015261108882610e27565b5261109281610e27565b5060405161109f81610493565b73c011a73ee8576fb46f5e1c5751ca3b9fe0af2a6f8152738700daec35af8ff88c16bdf041006c17c5c68ba360208201526110d982610e37565b526110e381610e37565b506040516110f081610493565b731f9840a85d5af5bf1d1762f925bdaddc4201f9848152736fd9d7ad17242c41f7131d257212c54a0e816691602082015261112a82610e47565b5261113481610e47565b5060405161114181610493565b735f98805a4e8be255a32880fdec7f6728c6568ba0815273c40f949f8a4e094d1b49a23ea9241d289b7b2819602082015261117b82610e57565b5261118581610e57565b5060405161119281610493565b73853d955acef822db058eb8505911ed77f175b99e8152732e3d870790dc77a83dd1d18184acc7439a53f47560208201526111cc82610e67565b526111d681610e67565b506040516111e381610493565b73a0b86991c6218b36c1d19d4a2e9eb0ce3606eb488152737f5c764cbc14f9669b88837ca1490cca17c31607602082015261121d82610e77565b5261122781610e77565b5060405161123481610493565b73dac17f958d2ee523a2206206994597c13d831ec781527394b008aa00579c1307b0ef2c499ad98a8ce58e58602082015261126e82610e88565b5261127881610e88565b5060405161128581610493565b732260fac5e5542a773aa44fbcfedf7c193bc2c59981527368f180fcce6836688e9084f035309e29bf0a209560208201526112bf82610e99565b526112c981610e99565b506040516112d681610493565b737fc66500c84a76ad7e9c93437bfc5ac33e2ddae981525f60208201526112fc82610eaa565b5261130681610eaa565b5060405161131381610493565b73d533a949740bb3306d119cc777fa900ba034cd5281525f602082015261133982610ebb565b5261134381610ebb565b5060405161135081610493565b739f8f72aa9304c8b593d555f12ef6589cc3a579a281525f602082015261137682610ecc565b5261138081610ecc565b5060405161138d81610493565b73c00e94cb662c3520282e6f5717214004a7f2688881525f60208201526113b382610edd565b526113bd81610edd565b506040516113ca81610493565b736b3595068778dd592e39a122f4f5a5cf09c90fe281525f60208201526113f082610eee565b526113fa81610eee565b5060405161140781610493565b730bc529c00c6401aef6d220be8c6ea1667f6ad93e81525f602082015261142d82610eff565b5261143781610eff565b5060405161144481610493565b735a98fcbea516cf06857215779fd812ca3bef1b3281525f602082015261146a82610f10565b5261147481610f10565b5060405161148181610493565b73d33526068d116ce69f19a9ee46f0bd304f21a51f81525f60208201526114a782610f21565b526114b181610f21565b506040516114be81610493565b73be9895146f7af43049ca1c1ae358b0541ea4970481525f60208201526114e482610f32565b526114ee81610f32565b506040516114fb81610493565b73ae7ab96520de3a18e5e111b5eaab095312d7fe8481525f602082015261152182610f43565b5261152b81610f43565b5060405161153881610493565b73ae78736cd615f374d3085123a210448e74fc639381525f602082015261155e82610f54565b5261156881610f54565b5060405161157581610493565b73c18360217d8f7ab5e7c516566761ea12ce7f9d7281525f602082015261159b82610f65565b526115a581610f65565b508051907f00000000000000000000000000000000000000000000000000000000000000006001600160a01b03165f5b8381106115e457505050505f90565b6001600160a01b036115f68285610f76565b515116906001600160a01b03602061160e8387610f76565b510151169161161c8161184e565b9283156116d8576040516347b00fb360e11b8152826004820152816024820152602081604481895afa5f91816116a5575b5061166057505050600191505b016115d5565b9384156116995761167c93948082105f14611691575091611a57565b6116885760019061165a565b50505050600190565b905091611a57565b5050506001915061165a565b9091506020813d82116116d0575b816116c0602093836104c3565b810103126100db5751905f61164d565b3d91506116b3565b50506001915061165a565b6020906040516116f281610493565b5f81525f8382015282828601015201610fa4565b60405161171460e0826104c3565b6006815260c0366020830137739560e827af36c94d2ac33a39bce1fe78631088db61173e82610df6565b527301ba67aac7f75f647d94220cc98fb30fcc5105bf61175d82610e17565b527303e173ad8d1581a4802d3b532ace27a62c5b81dc61177c82610e27565b5273920cf626a271321c151d027030d5d08af699456b61179b82610e37565b5273bc396689893d065f41bc2c6ecbee5e00852334476117ba82610e47565b526042602160991b016117cc82610e57565b528051905f5b8281106117e0575050505f90565b6001600160a01b036117f28284610f76565b51166117fd81611b2a565b156118455761180b81611c3c565b906001600160a01b0382161561183b57906118259161192a565b611833576001905b016117d2565b505050600190565b505060019061182d565b5060019061182d565b803b156118db576040516370a0823160e01b81527340c31236b228935b0329eff066b1ad96e319595e600482015290602090829060249082906001600160a01b03165afa5f91816118a7575b506118a457505f90565b90565b9091506020813d6020116118d3575b816118c3602093836104c3565b810103126100db5751905f61189a565b3d91506118b6565b505f90565b90813b15611924576040516370a0823160e01b81526001600160a01b0391821660048201529160209183916024918391165afa5f91816118a757506118a457505f90565b50505f90565b61193430826118e0565b6040517f00000000000000000000000000000000000000000000000000000000000000006001600160a01b0316929061196e6020826104c3565b5f8152833b156100db57604051622f008d60e71b81526001600160a01b03838116600483018190529616602482015230604482018190526064820152670de0b6b3a7640000608482015260c060a4820152905f90829081906119d49060c48301906104e5565b0381835a988199f19081611a42575b506119f0575b5050905090565b6119fb9030906118e0565b92818411156119e9576bffffffffffffffffffffffff60a01b60025416176002558203918211611a2e5750600355600190565b634e487b7160e01b81526011600452602490fd5b611a4f9194505f906104c3565b5f925f6119e3565b90915f918115611b2257611a6b30826118e0565b60405190927f00000000000000000000000000000000000000000000000000000000000000006001600160a01b031691611aa66020826104c3565b5f8152823b156100db57604051622f008d60e71b81526001600160a01b03858116600483018190529816602482015230604482018190526064820152608481019290925260c060a483015290915f91839190829084908290611b0c9060c48301906104e5565b03925af19081611a4257506119f0575050905090565b505050505f90565b803b156118db576040516373c6754960e11b81526001600160a01b03821690602081600481855afa5f9181611c1b575b50611bff575060206004916040519283809263ae1f6aaf60e01b82525afa5f9181611bde575b50611bc357507340c31236b228935b0329eff066b1ad96e319595e5f5b6001600160a01b0316036118db576001600160a01b0390611bbd90611c3c565b16151590565b7340c31236b228935b0329eff066b1ad96e319595e90611b9d565b611bf891925060203d602011610b6b57610b5c81836104c3565b905f611b80565b7340c31236b228935b0329eff066b1ad96e319595e9150611b9d565b611c3591925060203d602011610b6b57610b5c81836104c3565b905f611b5a565b6040516335b02cb160e21b81526001600160a01b039190911690602081600481855afa5f9181611cbc575b50611cb7575060206004916040519283809263600f0deb60e11b82525afa5f9181611c9657506118a457505f90565b611cb091925060203d602011610b6b57610b5c81836104c3565b905f61189a565b905090565b611cd691925060203d602011610b6b57610b5c81836104c3565b905f611c6756feb10e2d527612073b26eecdfd717e6a320cf44b4afac2b0732d9fcbe2b7fa0cf8b10e2d527612073b26eecdfd717e6a320cf44b4afac2b0732d9fcbe2b7fa0cf6b10e2d527612073b26eecdfd717e6a320cf44b4afac2b0732d9fcbe2b7fa0cf7a264697066735822122015cd733e1cfacd4f8d7364ba1ba405e960ed2eb0e2d00844bdd43ed2fbcf231164736f6c634300081e003360e0346100b857601f61063138819003918201601f19168301916001600160401b038311848410176100bc578084926060946040528339810103126100b857610047816100d0565b906100606040610059602084016100d0565b92016100d0565b6001600160a01b0390921660805260a05260c05260405161054c90816100e582396080518181816087015281816101f7015261033d015260a05181610455015260c05181818160d4015281816101c7015261030d0152f35b5f80fd5b634e487b7160e01b5f52604160045260245ffd5b51906001600160a01b03821682036100b85756fe6080604052600436101561001a575b3615610018575f80fd5b005b5f5f3560e01c80630a97410f146102c157806317804680146101515780633dbb202b14610103578063570ca735146100be5780636e296e45146100b9578063d7e7e755146100b95763e78cea9214610072575061000e565b346100b657806003193601126100b6576040517f00000000000000000000000000000000000000000000000000000000000000006001600160a01b03168152602090f35b80fd5b610440565b50346100b657806003193601126100b6576040517f00000000000000000000000000000000000000000000000000000000000000006001600160a01b03168152602090f35b5060603660031901126100b6576101186103e6565b5060243567ffffffffffffffff811161014d57610139903690600401610412565b505060443563ffffffff8116036100b65780f35b5080fd5b50346100b65760c03660031901126100b6578061016c6103e6565b6101746103fc565b6044356001600160a01b038116908190036102bc576064356001600160a01b03811693908490036102b85760a43567ffffffffffffffff81116102b4576101bf903690600401610412565b93906101f5337f00000000000000000000000000000000000000000000000000000000000000006001600160a01b031614610484565b7f00000000000000000000000000000000000000000000000000000000000000006001600160a01b031692833b156102b05760405163a9f9e67560e01b81526001600160a01b0391821660048201529216602483015260448201939093526064810194909452608480359085015260c060a4850152849284928391859183916102839160c4840191906104f6565b03925af180156102a5576102945750f35b8161029e916104c0565b6100b65780f35b6040513d84823e3d90fd5b8780fd5b8580fd5b8480fd5b505050fd5b5060803660031901126103e2576102d66103e6565b6102de6103fc565b9060443560643567ffffffffffffffff81116103e257610302903690600401610412565b909390919061033b337f00000000000000000000000000000000000000000000000000000000000000006001600160a01b031614610484565b7f00000000000000000000000000000000000000000000000000000000000000006001600160a01b031691823b156103e25760405163054cbb0d60e21b81526001600160a01b0395861660048201529190941660248201526044810184905260806064820152935f938593849283916103b9916084840191906104f6565b03925af180156103d7576103cb575080f35b61001891505f906104c0565b6040513d5f823e3d90fd5b5f80fd5b600435906001600160a01b03821682036103e257565b602435906001600160a01b03821682036103e257565b9181601f840112156103e25782359167ffffffffffffffff83116103e257602083818601950101116103e257565b346103e2575f3660031901126103e2576040517f00000000000000000000000000000000000000000000000000000000000000006001600160a01b03168152602090f35b1561048b57565b60405162461bcd60e51b815260206004820152600d60248201526c6f70657261746f722d6f6e6c7960981b6044820152606490fd5b90601f8019910116810190811067ffffffffffffffff8211176104e257604052565b634e487b7160e01b5f52604160045260245ffd5b908060209392818452848401375f828201840152601f01601f191601019056fea2646970667358221220213ad2bd363cacf95b766e12229b88519b03f2d6b5ebf0e6144e19db53685e8f64736f6c634300081e0033","linkReferences":{}},"methodIdentifiers":{"OTHER_BRIDGE()":"7f46ddb2","TARGET()":"cc1f2afa","attackerMessenger()":"06be87d4","executeOnOpportunity()":"3c2448ed","executed()":"31a38c89","exploitPath()":"cb707c62","forgedMessengerBypassValidated()":"feaa9457","hypothesisRefuted()":"495f92f1","hypothesisValidated()":"463defd1","messengerTakeoverValidated()":"be726d89","outcome()":"27793f87","profitAmount()":"5ff972cc","profitToken()":"49343624"},"id":0}