{"abi":[{"type":"constructor","inputs":[],"stateMutability":"nonpayable"},{"type":"function","name":"TARGET","inputs":[],"outputs":[{"name":"","type":"address","internalType":"address"}],"stateMutability":"view"},{"type":"function","name":"executeKnownOutputFundedVictimOpportunity","inputs":[{"name":"zeroInputToken","type":"address","internalType":"address"},{"name":"victimToken","type":"address","internalType":"address"},{"name":"victim","type":"address","internalType":"address"},{"name":"amount","type":"uint256","internalType":"uint256"}],"outputs":[],"stateMutability":"nonpayable"},{"type":"function","name":"executeKnownVictimOpportunity","inputs":[{"name":"feeToken","type":"address","internalType":"address"},{"name":"victimToken","type":"address","internalType":"address"},{"name":"victim","type":"address","internalType":"address"},{"name":"amount","type":"uint256","internalType":"uint256"},{"name":"inputBudget","type":"uint112","internalType":"uint112"}],"outputs":[],"stateMutability":"nonpayable"},{"type":"function","name":"executeOnOpportunity","inputs":[],"outputs":[],"stateMutability":"nonpayable"},{"type":"function","name":"profitAmount","inputs":[],"outputs":[{"name":"","type":"uint256","internalType":"uint256"}],"stateMutability":"view"},{"type":"function","name":"profitToken","inputs":[],"outputs":[{"name":"","type":"address","internalType":"address"}],"stateMutability":"view"}],"bytecode":{"object":"0x6080604052348015600e575f5ffd5b50614a798061001c5f395ff3fe608060405234801561000f575f5ffd5b5060043610610060575f3560e01c80631bb7e0d5146100645780633c2448ed14610080578063493436241461008a578063523c5178146100a85780635ff972cc146100c4578063cc1f2afa146100e2575b5f5ffd5b61007e60048036038101906100799190613d11565b610100565b005b61008861019d565b005b61009261025f565b60405161009f9190613d97565b60405180910390f35b6100c260048036038101906100bd9190613db0565b610286565b005b6100cc610331565b6040516100d99190613e23565b60405180910390f35b6100ea61033a565b6040516100f79190613d97565b60405180910390f35b610108610352565b5f610113853061039a565b90505f826dffffffffffffffffffffffffffff160361013e57610139868686865f61043a565b61018b565b61017d8673de62e1b0edaa55aac5ffbe21984d3217064180247fffffffffffffffffffffffffffffffffffffffffffffffffffffffffffffffff6104c7565b61018a868686868661043a565b5b61019585826105f9565b505050505050565b6101a5610352565b5f73de62e1b0edaa55aac5ffbe21984d32170641802473ffffffffffffffffffffffffffffffffffffffff166353e978686040518163ffffffff1660e01b8152600401602060405180830381865afa158015610203573d5f5f3e3d5ffd5b505050506040513d601f19601f820116820180604052508101906102279190613e50565b905061023281610665565b1561023d575061025d565b610246816108d1565b15610251575061025d565b61025a81610c84565b50505b565b5f5f5f9054906101000a900473ffffffffffffffffffffffffffffffffffffffff16905090565b61028e610352565b5f610299843061039a565b905073de62e1b0edaa55aac5ffbe21984d32170641802473ffffffffffffffffffffffffffffffffffffffff1663c3d718a46102d787878787611037565b6040518263ffffffff1660e01b81526004016102f3919061410c565b5f604051808303815f87803b15801561030a575f5ffd5b505af115801561031c573d5f5f3e3d5ffd5b5050505061032a84826105f9565b5050505050565b5f600154905090565b73de62e1b0edaa55aac5ffbe21984d32170641802481565b5f5f5f6101000a81548173ffffffffffffffffffffffffffffffffffffffff021916908373ffffffffffffffffffffffffffffffffffffffff1602179055505f600181905550565b5f6103a48361127f565b6103b0575f9050610434565b8273ffffffffffffffffffffffffffffffffffffffff166370a08231836040518263ffffffff1660e01b81526004016103e99190613d97565b602060405180830381865afa92505050801561042357506040513d601f19601f820116820180604052508101906104209190614140565b60015b61042f575f9050610434565b809150505b92915050565b73de62e1b0edaa55aac5ffbe21984d32170641802473ffffffffffffffffffffffffffffffffffffffff1663c3d718a461047787878787876112a2565b6040518263ffffffff1660e01b8152600401610493919061410c565b5f604051808303815f87803b1580156104aa575f5ffd5b505af11580156104bc573d5f5f3e3d5ffd5b505050505050505050565b6104d08361127f565b156105f4575f6104e18430856114d7565b90508181106104f057506105f4565b6105718463095ea7b360e01b855f60405160240161050f9291906141b0565b604051602081830303815290604052907bffffffffffffffffffffffffffffffffffffffffffffffffffffffff19166020820180517bffffffffffffffffffffffffffffffffffffffffffffffffffffffff838183161783525050505061157a565b6105f28463095ea7b360e01b85856040516024016105909291906141d7565b604051602081830303815290604052907bffffffffffffffffffffffffffffffffffffffffffffffffffffffff19166020820180517bffffffffffffffffffffffffffffffffffffffffffffffffffffffff838183161783525050505061157a565b505b505050565b5f610604833061039a565b90508181111561066057825f5f6101000a81548173ffffffffffffffffffffffffffffffffffffffff021916908373ffffffffffffffffffffffffffffffffffffffff1602179055508181610659919061422b565b6001819055505b505050565b5f8173ffffffffffffffffffffffffffffffffffffffff166371a973056040518163ffffffff1660e01b81526004015f60405180830381865afa9250505080156106d157506040513d5f823e3d601f19601f820116820180604052508101906106ce9190614417565b60015b15610729575f5f90505b81518110156107265761070b848383815181106106fb576106fa61445e565b5b60200260200101515f0151611687565b1561071b576001925050506108cc565b8060010190506106db565b50505b61073b8261073684611b9e565b611687565b1561074957600190506108cc565b61075a82610755611c16565b611687565b1561076857600190506108cc565b6107868273c02aaa39b223fe8d0a0e5c4f27ead9083c756cc2611687565b1561079457600190506108cc565b6107b28273a0b86991c6218b36c1d19d4a2e9eb0ce3606eb48611687565b156107c057600190506108cc565b6107de8273dac17f958d2ee523a2206206994597c13d831ec7611687565b156107ec57600190506108cc565b61080a82736b175474e89094c44da98b954eedeac495271d0f611687565b1561081857600190506108cc565b61083682732260fac5e5542a773aa44fbcfedf7c193bc2c599611687565b1561084457600190506108cc565b6108628273853d955acef822db058eb8505911ed77f175b99e611687565b1561087057600190506108cc565b61088e827399d8a9c45b2ecb8540fe5a0ba0fc5d5b8043d5e9611687565b1561089c57600190506108cc565b6108ba82735f98805a4e8be255a32880fdec7f6728c6568ba0611687565b156108c857600190506108cc565b5f90505b919050565b5f5f604051806060016040528073de62e1b0edaa55aac5ffbe21984d32170641802473ffffffffffffffffffffffffffffffffffffffff166353e978686040518163ffffffff1660e01b8152600401602060405180830381865afa15801561093b573d5f5f3e3d5ffd5b505050506040513d601f19601f8201168201806040525081019061095f9190613e50565b73ffffffffffffffffffffffffffffffffffffffff1673ffffffffffffffffffffffffffffffffffffffff168152602001610998611ca0565b73ffffffffffffffffffffffffffffffffffffffff1673ffffffffffffffffffffffffffffffffffffffff1681526020016109d1611d2a565b73ffffffffffffffffffffffffffffffffffffffff1673ffffffffffffffffffffffffffffffffffffffff1681525090508273ffffffffffffffffffffffffffffffffffffffff166371a973056040518163ffffffff1660e01b81526004015f60405180830381865afa925050508015610a6d57506040513d5f823e3d601f19601f82011682018060405250810190610a6a9190614417565b60015b15610ac7575f5f90505b8151811015610ac457610aa885838381518110610a9757610a9661445e565b5b60200260200101515f015185611db4565b15610ab95760019350505050610c7f565b806001019050610a77565b50505b610ada83610ad485611b9e565b83611db4565b15610ae9576001915050610c7f565b610afb83610af5611c16565b83611db4565b15610b0a576001915050610c7f565b610b298373c02aaa39b223fe8d0a0e5c4f27ead9083c756cc283611db4565b15610b38576001915050610c7f565b610b578373a0b86991c6218b36c1d19d4a2e9eb0ce3606eb4883611db4565b15610b66576001915050610c7f565b610b858373dac17f958d2ee523a2206206994597c13d831ec783611db4565b15610b94576001915050610c7f565b610bb383736b175474e89094c44da98b954eedeac495271d0f83611db4565b15610bc2576001915050610c7f565b610be183732260fac5e5542a773aa44fbcfedf7c193bc2c59983611db4565b15610bf0576001915050610c7f565b610c0f8373853d955acef822db058eb8505911ed77f175b99e83611db4565b15610c1e576001915050610c7f565b610c3d837399d8a9c45b2ecb8540fe5a0ba0fc5d5b8043d5e983611db4565b15610c4c576001915050610c7f565b610c6b83735f98805a4e8be255a32880fdec7f6728c6568ba083611db4565b15610c7a576001915050610c7f565b5f9150505b919050565b5f5f604051806060016040528073de62e1b0edaa55aac5ffbe21984d32170641802473ffffffffffffffffffffffffffffffffffffffff166353e978686040518163ffffffff1660e01b8152600401602060405180830381865afa158015610cee573d5f5f3e3d5ffd5b505050506040513d601f19601f82011682018060405250810190610d129190613e50565b73ffffffffffffffffffffffffffffffffffffffff1673ffffffffffffffffffffffffffffffffffffffff168152602001610d4b611ca0565b73ffffffffffffffffffffffffffffffffffffffff1673ffffffffffffffffffffffffffffffffffffffff168152602001610d84611d2a565b73ffffffffffffffffffffffffffffffffffffffff1673ffffffffffffffffffffffffffffffffffffffff1681525090508273ffffffffffffffffffffffffffffffffffffffff166371a973056040518163ffffffff1660e01b81526004015f60405180830381865afa925050508015610e2057506040513d5f823e3d601f19601f82011682018060405250810190610e1d9190614417565b60015b15610e7a575f5f90505b8151811015610e7757610e5b85838381518110610e4a57610e4961445e565b5b60200260200101515f015185611e58565b15610e6c5760019350505050611032565b806001019050610e2a565b50505b610e8d83610e8785611b9e565b83611e58565b15610e9c576001915050611032565b610eae83610ea8611c16565b83611e58565b15610ebd576001915050611032565b610edc8373c02aaa39b223fe8d0a0e5c4f27ead9083c756cc283611e58565b15610eeb576001915050611032565b610f0a8373a0b86991c6218b36c1d19d4a2e9eb0ce3606eb4883611e58565b15610f19576001915050611032565b610f388373dac17f958d2ee523a2206206994597c13d831ec783611e58565b15610f47576001915050611032565b610f6683736b175474e89094c44da98b954eedeac495271d0f83611e58565b15610f75576001915050611032565b610f9483732260fac5e5542a773aa44fbcfedf7c193bc2c59983611e58565b15610fa3576001915050611032565b610fc28373853d955acef822db058eb8505911ed77f175b99e83611e58565b15610fd1576001915050611032565b610ff0837399d8a9c45b2ecb8540fe5a0ba0fc5d5b8043d5e983611e58565b15610fff576001915050611032565b61101e83735f98805a4e8be255a32880fdec7f6728c6568ba083611e58565b1561102d576001915050611032565b5f9150505b919050565b61103f613b2e565b5f600167ffffffffffffffff81111561105b5761105a614262565b5b60405190808252806020026020018201604052801561109457816020015b611081613b77565b8152602001906001900390816110795790505b50905060405180608001604052808673ffffffffffffffffffffffffffffffffffffffff1681526020018673ffffffffffffffffffffffffffffffffffffffff16815260200160405180604001604052805f6dffffffffffffffffffffffffffff1681526020018973ffffffffffffffffffffffffffffffffffffffff1681525081526020016323b872dd60e01b8673de62e1b0edaa55aac5ffbe21984d3217064180248760405160240161114b9392919061448b565b604051602081830303815290604052907bffffffffffffffffffffffffffffffffffffffffffffffffffffffff19166020820180517bffffffffffffffffffffffffffffffffffffffffffffffffffffffff8381831617835250505050815250815f815181106111be576111bd61445e565b5b602002602001018190525060405180608001604052808673ffffffffffffffffffffffffffffffffffffffff16815260200160405180604001604052805f6dffffffffffffffffffffffffffff1681526020018973ffffffffffffffffffffffffffffffffffffffff16815250815260200160405180604001604052805f6dffffffffffffffffffffffffffff1681526020018873ffffffffffffffffffffffffffffffffffffffff16815250815260200182815250915050949350505050565b5f5f8273ffffffffffffffffffffffffffffffffffffffff163b14159050919050565b6112aa613b2e565b5f600167ffffffffffffffff8111156112c6576112c5614262565b5b6040519080825280602002602001820160405280156112ff57816020015b6112ec613b77565b8152602001906001900390816112e45790505b50905060405180608001604052808773ffffffffffffffffffffffffffffffffffffffff1681526020018773ffffffffffffffffffffffffffffffffffffffff16815260200160405180604001604052805f6dffffffffffffffffffffffffffff1681526020018a73ffffffffffffffffffffffffffffffffffffffff1681525081526020016323b872dd60e01b8730886040516024016113a29392919061448b565b604051602081830303815290604052907bffffffffffffffffffffffffffffffffffffffffffffffffffffffff19166020820180517bffffffffffffffffffffffffffffffffffffffffffffffffffffffff8381831617835250505050815250815f815181106114155761141461445e565b5b602002602001018190525060405180608001604052808873ffffffffffffffffffffffffffffffffffffffff1681526020016040518060400160405280866dffffffffffffffffffffffffffff1681526020018a73ffffffffffffffffffffffffffffffffffffffff16815250815260200160405180604001604052805f6dffffffffffffffffffffffffffff1681526020018973ffffffffffffffffffffffffffffffffffffffff1681525081526020018281525091505095945050505050565b5f6114e18461127f565b6114ed575f9050611573565b8373ffffffffffffffffffffffffffffffffffffffff1663dd62ed3e84846040518363ffffffff1660e01b81526004016115289291906144c0565b602060405180830381865afa92505050801561156257506040513d601f19601f8201168201806040525081019061155f9190614140565b60015b61156e575f9050611573565b809150505b9392505050565b5f5f8373ffffffffffffffffffffffffffffffffffffffff16836040516115a19190614521565b5f604051808303815f865af19150503d805f81146115da576040519150601f19603f3d011682016040523d82523d5f602084013e6115df565b606091505b509150915081611624576040517f08c379a000000000000000000000000000000000000000000000000000000000815260040161161b90614591565b60405180910390fd5b5f81511115611681578080602001905181019061164191906145e4565b611680576040517f08c379a000000000000000000000000000000000000000000000000000000000815260040161167790614659565b60405180910390fd5b5b50505050565b5f6116918261127f565b61169d575f9050611b98565b5f6116bc8373de62e1b0edaa55aac5ffbe21984d32170641802461039a565b90505f81036116ce575f915050611b98565b6116da84848584612011565b156116e9576001915050611b98565b5f6116f385611b9e565b90508373ffffffffffffffffffffffffffffffffffffffff168173ffffffffffffffffffffffffffffffffffffffff1614158015611739575061173885828685612011565b5b1561174957600192505050611b98565b5f611752611c16565b90508473ffffffffffffffffffffffffffffffffffffffff168173ffffffffffffffffffffffffffffffffffffffff1614158015611798575061179786828786612011565b5b156117a95760019350505050611b98565b73c02aaa39b223fe8d0a0e5c4f27ead9083c756cc273ffffffffffffffffffffffffffffffffffffffff168573ffffffffffffffffffffffffffffffffffffffff161415801561181557506118148673c02aaa39b223fe8d0a0e5c4f27ead9083c756cc28786612011565b5b156118265760019350505050611b98565b73a0b86991c6218b36c1d19d4a2e9eb0ce3606eb4873ffffffffffffffffffffffffffffffffffffffff168573ffffffffffffffffffffffffffffffffffffffff161415801561189257506118918673a0b86991c6218b36c1d19d4a2e9eb0ce3606eb488786612011565b5b156118a35760019350505050611b98565b73dac17f958d2ee523a2206206994597c13d831ec773ffffffffffffffffffffffffffffffffffffffff168573ffffffffffffffffffffffffffffffffffffffff161415801561190f575061190e8673dac17f958d2ee523a2206206994597c13d831ec78786612011565b5b156119205760019350505050611b98565b736b175474e89094c44da98b954eedeac495271d0f73ffffffffffffffffffffffffffffffffffffffff168573ffffffffffffffffffffffffffffffffffffffff161415801561198c575061198b86736b175474e89094c44da98b954eedeac495271d0f8786612011565b5b1561199d5760019350505050611b98565b732260fac5e5542a773aa44fbcfedf7c193bc2c59973ffffffffffffffffffffffffffffffffffffffff168573ffffffffffffffffffffffffffffffffffffffff1614158015611a095750611a0886732260fac5e5542a773aa44fbcfedf7c193bc2c5998786612011565b5b15611a1a5760019350505050611b98565b73853d955acef822db058eb8505911ed77f175b99e73ffffffffffffffffffffffffffffffffffffffff168573ffffffffffffffffffffffffffffffffffffffff1614158015611a865750611a858673853d955acef822db058eb8505911ed77f175b99e8786612011565b5b15611a975760019350505050611b98565b7399d8a9c45b2ecb8540fe5a0ba0fc5d5b8043d5e973ffffffffffffffffffffffffffffffffffffffff168573ffffffffffffffffffffffffffffffffffffffff1614158015611b035750611b02867399d8a9c45b2ecb8540fe5a0ba0fc5d5b8043d5e98786612011565b5b15611b145760019350505050611b98565b735f98805a4e8be255a32880fdec7f6728c6568ba073ffffffffffffffffffffffffffffffffffffffff168573ffffffffffffffffffffffffffffffffffffffff1614158015611b805750611b7f86735f98805a4e8be255a32880fdec7f6728c6568ba08786612011565b5b15611b915760019350505050611b98565b5f93505050505b92915050565b5f8173ffffffffffffffffffffffffffffffffffffffff166317fcb39b6040518163ffffffff1660e01b8152600401602060405180830381865afa925050508015611c0757506040513d601f19601f82011682018060405250810190611c049190613e50565b60015b15611c1157809150505b919050565b5f73de62e1b0edaa55aac5ffbe21984d32170641802473ffffffffffffffffffffffffffffffffffffffff1663dd81eb986040518163ffffffff1660e01b8152600401602060405180830381865afa925050508015611c9357506040513d601f19601f82011682018060405250810190611c909190613e50565b60015b15611c9d57809150505b90565b5f73de62e1b0edaa55aac5ffbe21984d32170641802473ffffffffffffffffffffffffffffffffffffffff166361d027b36040518163ffffffff1660e01b8152600401602060405180830381865afa925050508015611d1d57506040513d601f19601f82011682018060405250810190611d1a9190613e50565b60015b15611d2757809150505b90565b5f73de62e1b0edaa55aac5ffbe21984d32170641802473ffffffffffffffffffffffffffffffffffffffff166345c6a8746040518163ffffffff1660e01b8152600401602060405180830381865afa925050508015611da757506040513d601f19601f82011682018060405250810190611da49190613e50565b60015b15611db157809150505b90565b5f611dbe8361127f565b611dca575f9050611e51565b5f5f90505b6003811015611e4c575f838260038110611dec57611deb61445e565b5b60200201519050611dfc816121d8565b611e065750611e41565b5f611e118683612294565b90505f8103611e21575050611e41565b611e2d8787848461233b565b15611e3e5760019350505050611e51565b50505b806001019050611dcf565b505f90505b9392505050565b5f611e628361127f565b1580611e755750611e73848461280d565b155b15611e82575f905061200a565b5f611e8d845f6128ad565b90505f73ffffffffffffffffffffffffffffffffffffffff168173ffffffffffffffffffffffffffffffffffffffff1603611ecb575f91505061200a565b5f5f90505b6003811015612004575f848260038110611eed57611eec61445e565b5b60200201519050611efd816121d8565b611f075750611ff9565b5f611f128783612294565b90505f8103611f22575050611ff9565b5f611f2e898984612eaa565b9050808211611f3f57505050611ff9565b5f611f4a893061039a565b905073de62e1b0edaa55aac5ffbe21984d32170641802473ffffffffffffffffffffffffffffffffffffffff1663c3d718a4611f88888c8888611037565b6040518263ffffffff1660e01b8152600401611fa4919061410c565b5f604051808303815f87803b158015611fbb575f5ffd5b505af1925050508015611fcc575060015b15611ff457611fdb89826105f9565b5f60015414611ff3576001965050505050505061200a565b5b505050505b806001019050611ed0565b505f9150505b9392505050565b5f61201b8461127f565b158061202d575061202b8361127f565b155b8061203f575061203d858561280d565b155b1561204c575f90506121d0565b5f612057853061039a565b90505f8103612069575f9150506121d0565b6120a88573de62e1b0edaa55aac5ffbe21984d3217064180247fffffffffffffffffffffffffffffffffffffffffffffffffffffffffffffffff6104c7565b5f6120b38683612edf565b90505f5f90505b60088110156121c9575f8282600881106120d7576120d661445e565b5b60200201516dffffffffffffffffffffffffffff1603156121be575f6120fd873061039a565b905073de62e1b0edaa55aac5ffbe21984d32170641802473ffffffffffffffffffffffffffffffffffffffff1663c3d718a46121528a8a8a8888600881106121485761214761445e565b5b6020020151613192565b6040518263ffffffff1660e01b815260040161216e919061410c565b5f604051808303815f87803b158015612185575f5ffd5b505af1925050508015612196575060015b156121bc576121a587826105f9565b5f600154146121bb5760019450505050506121d0565b5b505b8060010190506120ba565b505f925050505b949350505050565b5f5f73ffffffffffffffffffffffffffffffffffffffff168273ffffffffffffffffffffffffffffffffffffffff161415801561224157503073ffffffffffffffffffffffffffffffffffffffff168273ffffffffffffffffffffffffffffffffffffffff1614155b801561228d575073de62e1b0edaa55aac5ffbe21984d32170641802473ffffffffffffffffffffffffffffffffffffffff168273ffffffffffffffffffffffffffffffffffffffff1614155b9050919050565b5f61229e8361127f565b15806122d557505f73ffffffffffffffffffffffffffffffffffffffff168273ffffffffffffffffffffffffffffffffffffffff16145b156122e2575f9050612335565b5f6122ed848461039a565b90505f81036122ff575f915050612335565b5f61231f858573de62e1b0edaa55aac5ffbe21984d3217064180246114d7565b905081811061232e5781612330565b805b925050505b92915050565b5f61234985858585886133c4565b156123575760019050612805565b5f61236186611b9e565b90508473ffffffffffffffffffffffffffffffffffffffff168173ffffffffffffffffffffffffffffffffffffffff16141580156123a857506123a786868686856133c4565b5b156123b7576001915050612805565b5f6123c0611c16565b90508573ffffffffffffffffffffffffffffffffffffffff168173ffffffffffffffffffffffffffffffffffffffff1614158015612407575061240687878787856133c4565b5b1561241757600192505050612805565b73c02aaa39b223fe8d0a0e5c4f27ead9083c756cc273ffffffffffffffffffffffffffffffffffffffff168673ffffffffffffffffffffffffffffffffffffffff161415801561248457506124838787878773c02aaa39b223fe8d0a0e5c4f27ead9083c756cc26133c4565b5b1561249457600192505050612805565b73a0b86991c6218b36c1d19d4a2e9eb0ce3606eb4873ffffffffffffffffffffffffffffffffffffffff168673ffffffffffffffffffffffffffffffffffffffff161415801561250157506125008787878773a0b86991c6218b36c1d19d4a2e9eb0ce3606eb486133c4565b5b1561251157600192505050612805565b73dac17f958d2ee523a2206206994597c13d831ec773ffffffffffffffffffffffffffffffffffffffff168673ffffffffffffffffffffffffffffffffffffffff161415801561257e575061257d8787878773dac17f958d2ee523a2206206994597c13d831ec76133c4565b5b1561258e57600192505050612805565b736b175474e89094c44da98b954eedeac495271d0f73ffffffffffffffffffffffffffffffffffffffff168673ffffffffffffffffffffffffffffffffffffffff16141580156125fb57506125fa87878787736b175474e89094c44da98b954eedeac495271d0f6133c4565b5b1561260b57600192505050612805565b732260fac5e5542a773aa44fbcfedf7c193bc2c59973ffffffffffffffffffffffffffffffffffffffff168673ffffffffffffffffffffffffffffffffffffffff1614158015612678575061267787878787732260fac5e5542a773aa44fbcfedf7c193bc2c5996133c4565b5b1561268857600192505050612805565b73853d955acef822db058eb8505911ed77f175b99e73ffffffffffffffffffffffffffffffffffffffff168673ffffffffffffffffffffffffffffffffffffffff16141580156126f557506126f48787878773853d955acef822db058eb8505911ed77f175b99e6133c4565b5b1561270557600192505050612805565b7399d8a9c45b2ecb8540fe5a0ba0fc5d5b8043d5e973ffffffffffffffffffffffffffffffffffffffff168673ffffffffffffffffffffffffffffffffffffffff16141580156127725750612771878787877399d8a9c45b2ecb8540fe5a0ba0fc5d5b8043d5e96133c4565b5b1561278257600192505050612805565b735f98805a4e8be255a32880fdec7f6728c6568ba073ffffffffffffffffffffffffffffffffffffffff168673ffffffffffffffffffffffffffffffffffffffff16141580156127ef57506127ee87878787735f98805a4e8be255a32880fdec7f6728c6568ba06133c4565b5b156127ff57600192505050612805565b5f925050505b949350505050565b5f6128178261127f565b612823575f90506128a7565b8273ffffffffffffffffffffffffffffffffffffffff16635d204718836040518263ffffffff1660e01b815260040161285c9190613d97565b602060405180830381865afa92505050801561289657506040513d601f19601f8201168201806040525081019061289391906145e4565b60015b6128a2575f90506128a7565b809150505b92915050565b5f5f73ffffffffffffffffffffffffffffffffffffffff168273ffffffffffffffffffffffffffffffffffffffff161415801561291657508273ffffffffffffffffffffffffffffffffffffffff168273ffffffffffffffffffffffffffffffffffffffff1614155b801561292757506129268261127f565b5b1561293457819050612ea4565b5f6129be73de62e1b0edaa55aac5ffbe21984d32170641802473ffffffffffffffffffffffffffffffffffffffff166353e978686040518163ffffffff1660e01b8152600401602060405180830381865afa158015612995573d5f5f3e3d5ffd5b505050506040513d601f19601f820116820180604052508101906129b99190613e50565b611b9e565b90505f73ffffffffffffffffffffffffffffffffffffffff168173ffffffffffffffffffffffffffffffffffffffff1614158015612a2857508373ffffffffffffffffffffffffffffffffffffffff168173ffffffffffffffffffffffffffffffffffffffff1614155b8015612a395750612a388161127f565b5b15612a475780915050612ea4565b8373ffffffffffffffffffffffffffffffffffffffff1673c02aaa39b223fe8d0a0e5c4f27ead9083c756cc273ffffffffffffffffffffffffffffffffffffffff1614158015612ab05750612aaf73c02aaa39b223fe8d0a0e5c4f27ead9083c756cc261127f565b5b15612ad25773c02aaa39b223fe8d0a0e5c4f27ead9083c756cc2915050612ea4565b8373ffffffffffffffffffffffffffffffffffffffff1673a0b86991c6218b36c1d19d4a2e9eb0ce3606eb4873ffffffffffffffffffffffffffffffffffffffff1614158015612b3b5750612b3a73a0b86991c6218b36c1d19d4a2e9eb0ce3606eb4861127f565b5b15612b5d5773a0b86991c6218b36c1d19d4a2e9eb0ce3606eb48915050612ea4565b8373ffffffffffffffffffffffffffffffffffffffff1673dac17f958d2ee523a2206206994597c13d831ec773ffffffffffffffffffffffffffffffffffffffff1614158015612bc65750612bc573dac17f958d2ee523a2206206994597c13d831ec761127f565b5b15612be85773dac17f958d2ee523a2206206994597c13d831ec7915050612ea4565b8373ffffffffffffffffffffffffffffffffffffffff16736b175474e89094c44da98b954eedeac495271d0f73ffffffffffffffffffffffffffffffffffffffff1614158015612c515750612c50736b175474e89094c44da98b954eedeac495271d0f61127f565b5b15612c7357736b175474e89094c44da98b954eedeac495271d0f915050612ea4565b8373ffffffffffffffffffffffffffffffffffffffff16732260fac5e5542a773aa44fbcfedf7c193bc2c59973ffffffffffffffffffffffffffffffffffffffff1614158015612cdc5750612cdb732260fac5e5542a773aa44fbcfedf7c193bc2c59961127f565b5b15612cfe57732260fac5e5542a773aa44fbcfedf7c193bc2c599915050612ea4565b8373ffffffffffffffffffffffffffffffffffffffff1673853d955acef822db058eb8505911ed77f175b99e73ffffffffffffffffffffffffffffffffffffffff1614158015612d675750612d6673853d955acef822db058eb8505911ed77f175b99e61127f565b5b15612d895773853d955acef822db058eb8505911ed77f175b99e915050612ea4565b8373ffffffffffffffffffffffffffffffffffffffff167399d8a9c45b2ecb8540fe5a0ba0fc5d5b8043d5e973ffffffffffffffffffffffffffffffffffffffff1614158015612df25750612df17399d8a9c45b2ecb8540fe5a0ba0fc5d5b8043d5e961127f565b5b15612e14577399d8a9c45b2ecb8540fe5a0ba0fc5d5b8043d5e9915050612ea4565b8373ffffffffffffffffffffffffffffffffffffffff16735f98805a4e8be255a32880fdec7f6728c6568ba073ffffffffffffffffffffffffffffffffffffffff1614158015612e7d5750612e7c735f98805a4e8be255a32880fdec7f6728c6568ba061127f565b5b15612e9f57735f98805a4e8be255a32880fdec7f6728c6568ba0915050612ea4565b5f9150505b92915050565b5f5f612eb583613570565b90505f612ec286866137bb565b905080821015612ed25780612ed4565b815b925050509392505050565b612ee7613bcf565b5f82031561318c575f612ef984613a1a565b9050612f11606482612f0b91906146a4565b84613aca565b825f60088110612f2457612f2361445e565b5b60200201906dffffffffffffffffffffffffffff1690816dffffffffffffffffffffffffffff1681525050612f65600a82612f5f91906146a4565b84613aca565b82600160088110612f7957612f7861445e565b5b60200201906dffffffffffffffffffffffffffff1690816dffffffffffffffffffffffffffff1681525050612fae8184613aca565b82600260088110612fc257612fc161445e565b5b60200201906dffffffffffffffffffffffffffff1690816dffffffffffffffffffffffffffff1681525050613003600582612ffd91906146d4565b84613aca565b826003600881106130175761301661445e565b5b60200201906dffffffffffffffffffffffffffff1690816dffffffffffffffffffffffffffff1681525050613058600a8261305291906146d4565b84613aca565b8260046008811061306c5761306b61445e565b5b60200201906dffffffffffffffffffffffffffff1690816dffffffffffffffffffffffffffff16815250506130ad6064846130a791906146a4565b84613aca565b826005600881106130c1576130c061445e565b5b60200201906dffffffffffffffffffffffffffff1690816dffffffffffffffffffffffffffff1681525050613102600a846130fc91906146a4565b84613aca565b826006600881106131165761311561445e565b5b60200201906dffffffffffffffffffffffffffff1690816dffffffffffffffffffffffffffff168152505061314b8384613aca565b8260076008811061315f5761315e61445e565b5b60200201906dffffffffffffffffffffffffffff1690816dffffffffffffffffffffffffffff1681525050505b92915050565b61319a613b2e565b5f600167ffffffffffffffff8111156131b6576131b5614262565b5b6040519080825280602002602001820160405280156131ef57816020015b6131dc613b77565b8152602001906001900390816131d45790505b50905060405180608001604052808673ffffffffffffffffffffffffffffffffffffffff1681526020018673ffffffffffffffffffffffffffffffffffffffff16815260200160405180604001604052805f6dffffffffffffffffffffffffffff1681526020018973ffffffffffffffffffffffffffffffffffffffff16815250815260200163a9059cbb60e01b30876040516024016132909291906141d7565b604051602081830303815290604052907bffffffffffffffffffffffffffffffffffffffffffffffffffffffff19166020820180517bffffffffffffffffffffffffffffffffffffffffffffffffffffffff8381831617835250505050815250815f815181106133035761330261445e565b5b602002602001018190525060405180608001604052808773ffffffffffffffffffffffffffffffffffffffff1681526020016040518060400160405280866dffffffffffffffffffffffffffff1681526020018973ffffffffffffffffffffffffffffffffffffffff16815250815260200160405180604001604052805f6dffffffffffffffffffffffffffff1681526020018873ffffffffffffffffffffffffffffffffffffffff16815250815260200182815250915050949350505050565b5f6133ce8261127f565b15806133e157506133df868361280d565b155b156133ee575f9050613567565b5f6133f9833061039a565b90505f810361340b575f915050613567565b61344a8373de62e1b0edaa55aac5ffbe21984d3217064180247fffffffffffffffffffffffffffffffffffffffffffffffffffffffffffffffff6104c7565b5f6134558483612edf565b90505f5f90505b6008811015613560575f8282600881106134795761347861445e565b5b602002015190505f816dffffffffffffffffffffffffffff160361349d5750613555565b5f6134a88a3061039a565b905073de62e1b0edaa55aac5ffbe21984d32170641802473ffffffffffffffffffffffffffffffffffffffff1663c3d718a46134e7898d8d8d886112a2565b6040518263ffffffff1660e01b8152600401613503919061410c565b5f604051808303815f87803b15801561351a575f5ffd5b505af192505050801561352b575060015b156135525761353a8a826105f9565b5f6001541461355157600195505050505050613567565b5b50505b80600101905061345c565b505f925050505b95945050505050565b5f5f5f90505f5f905073de62e1b0edaa55aac5ffbe21984d32170641802473ffffffffffffffffffffffffffffffffffffffff1663bb4712346040518163ffffffff1660e01b8152600401602060405180830381865afa9250505080156135f557506040513d601f19601f820116820180604052508101906135f2919061474c565b60015b156135ff57809250505b73de62e1b0edaa55aac5ffbe21984d32170641802473ffffffffffffffffffffffffffffffffffffffff1663370fb45b6040518163ffffffff1660e01b8152600401602060405180830381865afa92505050801561367b57506040513d601f19601f82011682018060405250810190613678919061474c565b60015b1561368557809150505b5f61368e611c16565b90506136998161127f565b15613778578073ffffffffffffffffffffffffffffffffffffffff1663a015b6396040518060c001604052805f151581526020013073ffffffffffffffffffffffffffffffffffffffff1681526020018881526020016136f9853061039a565b81526020018661ffff1681526020018561ffff168152506040518263ffffffff1660e01b815260040161372c919061481d565b602060405180830381865afa92505050801561376657506040513d601f19601f820116820180604052508101906137639190614140565b60015b1561377757809450505050506137b6565b5b5f8261ffff168461ffff161161378e5782613790565b835b90506127108161ffff16876137a591906146d4565b6137af91906146a4565b9450505050505b919050565b5f6137c58261127f565b6137d1575f9050613a14565b5f5f905073de62e1b0edaa55aac5ffbe21984d32170641802473ffffffffffffffffffffffffffffffffffffffff16634e0bb8cc6040518163ffffffff1660e01b8152600401602060405180830381865afa92505050801561385157506040513d601f19601f8201168201806040525081019061384e919061484a565b60015b1561385b57809150505b5f816dffffffffffffffffffffffffffff160361387b575f915050613a14565b5f5f90508473ffffffffffffffffffffffffffffffffffffffff1663ce25cb4d856040518263ffffffff1660e01b81526004016138b89190613d97565b602060405180830381865afa9250505080156138f257506040513d601f19601f820116820180604052508101906138ef9190614140565b60015b156138fc57809150505b5f810361390d575f92505050613a14565b5f601290508473ffffffffffffffffffffffffffffffffffffffff1663313ce5676040518163ffffffff1660e01b8152600401602060405180830381865afa92505050801561397a57506040513d601f19601f82011682018060405250810190613977919061489f565b60015b1561398457809150505b60128160ff16111561399557601290505b5f60128260ff16146139c957670de0b6b3a76400008260ff16600a6139ba91906149f9565b6139c491906146a4565b6139cc565b60015b9050826c0c9f2c9cd04674edea4000000082866dffffffffffffffffffffffffffff166139f991906146d4565b613a0391906146d4565b613a0d91906146a4565b9450505050505b92915050565b5f5f60129050613a298361127f565b15613aa1578273ffffffffffffffffffffffffffffffffffffffff1663313ce5676040518163ffffffff1660e01b8152600401602060405180830381865afa925050508015613a9657506040513d601f19601f82011682018060405250810190613a93919061489f565b60015b15613aa057809150505b5b60128160ff161115613ab257601290505b8060ff16600a613ac291906149f9565b915050919050565b5f5f831480613ad857505f82145b15613ae5575f9050613b28565b5f828411613af35783613af5565b825b90506dffffffffffffffffffffffffffff8016811115613b23576dffffffffffffffffffffffffffff801690505b809150505b92915050565b60405180608001604052805f73ffffffffffffffffffffffffffffffffffffffff168152602001613b5d613bf2565b8152602001613b6a613bf2565b8152602001606081525090565b60405180608001604052805f73ffffffffffffffffffffffffffffffffffffffff1681526020015f73ffffffffffffffffffffffffffffffffffffffff168152602001613bc2613bf2565b8152602001606081525090565b604051806101000160405280600890602082028036833780820191505090505090565b60405180604001604052805f6dffffffffffffffffffffffffffff1681526020015f73ffffffffffffffffffffffffffffffffffffffff1681525090565b5f604051905090565b5f5ffd5b5f5ffd5b5f73ffffffffffffffffffffffffffffffffffffffff82169050919050565b5f613c6a82613c41565b9050919050565b613c7a81613c60565b8114613c84575f5ffd5b50565b5f81359050613c9581613c71565b92915050565b5f819050919050565b613cad81613c9b565b8114613cb7575f5ffd5b50565b5f81359050613cc881613ca4565b92915050565b5f6dffffffffffffffffffffffffffff82169050919050565b613cf081613cce565b8114613cfa575f5ffd5b50565b5f81359050613d0b81613ce7565b92915050565b5f5f5f5f5f60a08688031215613d2a57613d29613c39565b5b5f613d3788828901613c87565b9550506020613d4888828901613c87565b9450506040613d5988828901613c87565b9350506060613d6a88828901613cba565b9250506080613d7b88828901613cfd565b9150509295509295909350565b613d9181613c60565b82525050565b5f602082019050613daa5f830184613d88565b92915050565b5f5f5f5f60808587031215613dc857613dc7613c39565b5b5f613dd587828801613c87565b9450506020613de687828801613c87565b9350506040613df787828801613c87565b9250506060613e0887828801613cba565b91505092959194509250565b613e1d81613c9b565b82525050565b5f602082019050613e365f830184613e14565b92915050565b5f81519050613e4a81613c71565b92915050565b5f60208284031215613e6557613e64613c39565b5b5f613e7284828501613e3c565b91505092915050565b5f819050919050565b5f613e9e613e99613e9484613c41565b613e7b565b613c41565b9050919050565b5f613eaf82613e84565b9050919050565b5f613ec082613ea5565b9050919050565b613ed081613eb6565b82525050565b613edf81613cce565b82525050565b604082015f820151613ef95f850182613ed6565b506020820151613f0c6020850182613ec7565b50505050565b5f81519050919050565b5f82825260208201905092915050565b5f819050602082019050919050565b613f4481613c60565b82525050565b5f81519050919050565b5f82825260208201905092915050565b8281835e5f83830152505050565b5f601f19601f8301169050919050565b5f613f8c82613f4a565b613f968185613f54565b9350613fa6818560208601613f64565b613faf81613f72565b840191505092915050565b5f60a083015f830151613fcf5f860182613f3b565b506020830151613fe26020860182613f3b565b506040830151613ff56040860182613ee5565b506060830151848203608086015261400d8282613f82565b9150508091505092915050565b5f6140258383613fba565b905092915050565b5f602082019050919050565b5f61404382613f12565b61404d8185613f1c565b93508360208202850161405f85613f2c565b805f5b8581101561409a578484038952815161407b858261401a565b94506140868361402d565b925060208a01995050600181019050614062565b50829750879550505050505092915050565b5f60c083015f8301516140c15f860182613ec7565b5060208301516140d46020860182613ee5565b5060408301516140e76060860182613ee5565b50606083015184820360a08601526140ff8282614039565b9150508091505092915050565b5f6020820190508181035f83015261412481846140ac565b905092915050565b5f8151905061413a81613ca4565b92915050565b5f6020828403121561415557614154613c39565b5b5f6141628482850161412c565b91505092915050565b5f819050919050565b5f60ff82169050919050565b5f61419a6141956141908461416b565b613e7b565b614174565b9050919050565b6141aa81614180565b82525050565b5f6040820190506141c35f830185613d88565b6141d060208301846141a1565b9392505050565b5f6040820190506141ea5f830185613d88565b6141f76020830184613e14565b9392505050565b7f4e487b71000000000000000000000000000000000000000000000000000000005f52601160045260245ffd5b5f61423582613c9b565b915061424083613c9b565b9250828203905081811115614258576142576141fe565b5b92915050565b5f5ffd5b7f4e487b71000000000000000000000000000000000000000000000000000000005f52604160045260245ffd5b61429882613f72565b810181811067ffffffffffffffff821117156142b7576142b6614262565b5b80604052505050565b5f6142c9613c30565b90506142d5828261428f565b919050565b5f67ffffffffffffffff8211156142f4576142f3614262565b5b602082029050602081019050919050565b5f5ffd5b5f5ffd5b5f6080828403121561432257614321614309565b5b61432c60806142c0565b90505f61433b84828501613e3c565b5f83015250602061434e8482850161412c565b60208301525060406143628482850161412c565b60408301525060606143768482850161412c565b60608301525092915050565b5f61439461438f846142da565b6142c0565b905080838252602082019050608084028301858111156143b7576143b6614305565b5b835b818110156143e057806143cc888261430d565b8452602084019350506080810190506143b9565b5050509392505050565b5f82601f8301126143fe576143fd61425e565b5b815161440e848260208601614382565b91505092915050565b5f6020828403121561442c5761442b613c39565b5b5f82015167ffffffffffffffff81111561444957614448613c3d565b5b614455848285016143ea565b91505092915050565b7f4e487b71000000000000000000000000000000000000000000000000000000005f52603260045260245ffd5b5f60608201905061449e5f830186613d88565b6144ab6020830185613d88565b6144b86040830184613e14565b949350505050565b5f6040820190506144d35f830185613d88565b6144e06020830184613d88565b9392505050565b5f81905092915050565b5f6144fb82613f4a565b61450581856144e7565b9350614515818560208601613f64565b80840191505092915050565b5f61452c82846144f1565b915081905092915050565b5f82825260208201905092915050565b7f544f4b454e5f43414c4c5f4641494c45440000000000000000000000000000005f82015250565b5f61457b601183614537565b915061458682614547565b602082019050919050565b5f6020820190508181035f8301526145a88161456f565b9050919050565b5f8115159050919050565b6145c3816145af565b81146145cd575f5ffd5b50565b5f815190506145de816145ba565b92915050565b5f602082840312156145f9576145f8613c39565b5b5f614606848285016145d0565b91505092915050565b7f544f4b454e5f43414c4c5f46414c5345000000000000000000000000000000005f82015250565b5f614643601083614537565b915061464e8261460f565b602082019050919050565b5f6020820190508181035f83015261467081614637565b9050919050565b7f4e487b71000000000000000000000000000000000000000000000000000000005f52601260045260245ffd5b5f6146ae82613c9b565b91506146b983613c9b565b9250826146c9576146c8614677565b5b828204905092915050565b5f6146de82613c9b565b91506146e983613c9b565b92508282026146f781613c9b565b9150828204841483151761470e5761470d6141fe565b5b5092915050565b5f61ffff82169050919050565b61472b81614715565b8114614735575f5ffd5b50565b5f8151905061474681614722565b92915050565b5f6020828403121561476157614760613c39565b5b5f61476e84828501614738565b91505092915050565b614780816145af565b82525050565b61478f81613c9b565b82525050565b61479e81614715565b82525050565b60c082015f8201516147b85f850182614777565b5060208201516147cb6020850182613f3b565b5060408201516147de6040850182614786565b5060608201516147f16060850182614786565b5060808201516148046080850182614795565b5060a082015161481760a0850182614795565b50505050565b5f60c0820190506148305f8301846147a4565b92915050565b5f8151905061484481613ce7565b92915050565b5f6020828403121561485f5761485e613c39565b5b5f61486c84828501614836565b91505092915050565b61487e81614174565b8114614888575f5ffd5b50565b5f8151905061489981614875565b92915050565b5f602082840312156148b4576148b3613c39565b5b5f6148c18482850161488b565b91505092915050565b5f8160011c9050919050565b5f5f8291508390505b600185111561491f578086048111156148fb576148fa6141fe565b5b600185161561490a5780820291505b8081029050614918856148ca565b94506148df565b94509492505050565b5f8261493757600190506149f2565b81614944575f90506149f2565b816001811461495a576002811461496457614993565b60019150506149f2565b60ff841115614976576149756141fe565b5b8360020a91508482111561498d5761498c6141fe565b5b506149f2565b5060208310610133831016604e8410600b84101617156149c85782820a9050838111156149c3576149c26141fe565b5b6149f2565b6149d584848460016148d6565b925090508184048111156149ec576149eb6141fe565b5b81810290505b9392505050565b5f614a0382613c9b565b9150614a0e83613c9b565b9250614a3b7fffffffffffffffffffffffffffffffffffffffffffffffffffffffffffffffff8484614928565b90509291505056fea264697066735822122068423d2653ccf888ba2b7f51489423ba45006e6ece9e4f98cc0496dbc50114b764736f6c634300081e0033","linkReferences":{}},"methodIdentifiers":{"TARGET()":"cc1f2afa","executeKnownOutputFundedVictimOpportunity(address,address,address,uint256)":"523c5178","executeKnownVictimOpportunity(address,address,address,uint256,uint112)":"1bb7e0d5","executeOnOpportunity()":"3c2448ed","profitAmount()":"5ff972cc","profitToken()":"49343624"},"id":0}