{"abi":[{"type":"function","name":"CLOSE_FACTOR_HF_THRESHOLD","inputs":[],"outputs":[{"name":"","type":"uint256","internalType":"uint256"}],"stateMutability":"view"},{"type":"function","name":"MAX_LIQUIDATION_CLOSE_FACTOR","inputs":[],"outputs":[{"name":"","type":"uint256","internalType":"uint256"}],"stateMutability":"view"},{"type":"event","name":"LiquidationCall","inputs":[{"name":"collateralAsset","type":"address","indexed":true,"internalType":"address"},{"name":"debtAsset","type":"address","indexed":true,"internalType":"address"},{"name":"user","type":"address","indexed":true,"internalType":"address"},{"name":"debtToCover","type":"uint256","indexed":false,"internalType":"uint256"},{"name":"liquidatedCollateralAmount","type":"uint256","indexed":false,"internalType":"uint256"},{"name":"liquidator","type":"address","indexed":false,"internalType":"address"},{"name":"receiveHToken","type":"bool","indexed":false,"internalType":"bool"}],"anonymous":false},{"type":"event","name":"ReserveUsedAsCollateralDisabled","inputs":[{"name":"reserve","type":"address","indexed":true,"internalType":"address"},{"name":"user","type":"address","indexed":true,"internalType":"address"}],"anonymous":false},{"type":"event","name":"ReserveUsedAsCollateralEnabled","inputs":[{"name":"reserve","type":"address","indexed":true,"internalType":"address"},{"name":"user","type":"address","indexed":true,"internalType":"address"}],"anonymous":false}],"bytecode":{"object":"0x61546a610053600b82828239805160001a607314610046577f4e487b7100000000000000000000000000000000000000000000000000000000600052600060045260246000fd5b30600052607381538281f3fe730000000000000000000000000000000000000000301460806040526004361061004b5760003560e01c806383c1087d14610050578063a18964a514610079578063d246754414610097575b600080fd5b81801561005c57600080fd5b5061007760048036038101906100729190614904565b6100b5565b005b610081610a1f565b60405161008e919061498f565b60405180910390f35b61009f610a2b565b6040516100ac919061498f565b60405180910390f35b6100bd614251565b6000866000846040015173ffffffffffffffffffffffffffffffffffffffff1673ffffffffffffffffffffffffffffffffffffffff16815260200190815260200160002090506000876000856060015173ffffffffffffffffffffffffffffffffffffffff1673ffffffffffffffffffffffffffffffffffffffff16815260200190815260200160002090506000866000866080015173ffffffffffffffffffffffffffffffffffffffff1673ffffffffffffffffffffffffffffffffffffffff168152602001908152602001600020905061019882610a31565b8461016001819052506101b984610160015183610e1890919063ffffffff16565b61023f8989886040518060a001604052808660405180602001604052908160008201548152505081526020018a6000015181526020018a6080015173ffffffffffffffffffffffffffffffffffffffff1681526020018a60c0015173ffffffffffffffffffffffffffffffffffffffff1681526020018a60e0015160ff16815250610e81565b909192939450909192935090919250909150508460c001818152505061026f846101600151868660c00151611461565b8660200187604001886060018381525083815250838152505050506102dd818460405180608001604052808861016001518152602001886040015181526020018860c00151815260200189610100015173ffffffffffffffffffffffffffffffffffffffff168152506114f4565b6102e88684876119cc565b8761014001886101000189610120018a60a001848152508473ffffffffffffffffffffffffffffffffffffffff1673ffffffffffffffffffffffffffffffffffffffff168152508473ffffffffffffffffffffffffffffffffffffffff1673ffffffffffffffffffffffffffffffffffffffff168152508473ffffffffffffffffffffffffffffffffffffffff1673ffffffffffffffffffffffffffffffffffffffff168152505050505083610140015173ffffffffffffffffffffffffffffffffffffffff166370a0823186608001516040518263ffffffff1660e01b81526004016103d591906149b9565b602060405180830381865afa1580156103f2573d6000803e3d6000fd5b505050506040513d601f19601f8201168201806040525081019061041691906149e9565b84600001818152505061044e83856101600151866101000151876101200151886060015189600001518a60a001518c60c00151611b7b565b86608001876060018860e00183815250838152508381525050505083606001518460400151036104a5576104a48260030160159054906101000a900461ffff1661ffff16600083611ed09092919063ffffffff16565b5b83600001518460e0015185608001516104be9190614a45565b03610552576104ef8360030160159054906101000a900461ffff1661ffff16600083611f949092919063ffffffff16565b846080015173ffffffffffffffffffffffffffffffffffffffff16856040015173ffffffffffffffffffffffffffffffffffffffff167f44c58d81365b66dd4b1a7f36c25aa97b8c71c361ee4937adc1a00000227db5dd60405160405180910390a35b61055c858561205a565b6105838461016001518660600151866060015160008661228e90949392919063ffffffff16565b6105998989838761016001518860600151612570565b8460a00151156105b6576105b189898986898961283f565b6105c2565b6105c1838686612a46565b5b60008460e00151146107955760006105d984612c31565b905060006105f4828760e00151612d1e90919063ffffffff16565b9050600086610140015173ffffffffffffffffffffffffffffffffffffffff16631da24f3e89608001516040518263ffffffff1660e01b815260040161063a91906149b9565b602060405180830381865afa158015610657573d6000803e3d6000fd5b505050506040513d601f19601f8201168201806040525081019061067b91906149e9565b9050808211156106a2576106988382612d6590919063ffffffff16565b8760e00181815250505b86610140015173ffffffffffffffffffffffffffffffffffffffff1663f866c319896080015189610140015173ffffffffffffffffffffffffffffffffffffffff1663ae1673356040518163ffffffff1660e01b8152600401602060405180830381865afa158015610718573d6000803e3d6000fd5b505050506040513d601f19601f8201168201806040525081019061073c9190614a8e565b8a60e001516040518463ffffffff1660e01b815260040161075f93929190614aca565b600060405180830381600087803b15801561077957600080fd5b505af115801561078d573d6000803e3d6000fd5b505050505050505b6107d4338561016001516101e001518660600151886060015173ffffffffffffffffffffffffffffffffffffffff16612db0909392919063ffffffff16565b8361016001516101e0015173ffffffffffffffffffffffffffffffffffffffff16636fd9767633876080015187606001516040518463ffffffff1660e01b815260040161082393929190614aca565b600060405180830381600087803b15801561083d57600080fd5b505af1158015610851573d6000803e3d6000fd5b5050505060008461016001516101e0015173ffffffffffffffffffffffffffffffffffffffff166310c282b86040518163ffffffff1660e01b8152600401602060405180830381865afa1580156108ac573d6000803e3d6000fd5b505050506040513d601f19601f820116820180604052508101906108d09190614b3f565b9050600073ffffffffffffffffffffffffffffffffffffffff168173ffffffffffffffffffffffffffffffffffffffff1614610979578073ffffffffffffffffffffffffffffffffffffffff16636ecb81146040518163ffffffff1660e01b81526004016020604051808303816000875af1158015610953573d6000803e3d6000fd5b505050506040513d601f19601f820116820180604052508101906109779190614b81565b505b856080015173ffffffffffffffffffffffffffffffffffffffff16866060015173ffffffffffffffffffffffffffffffffffffffff16876040015173ffffffffffffffffffffffffffffffffffffffff167fe413a321e8681d831f4dbccbca790d2952b56f977908e45be37335533e00528688606001518960800151338c60a00151604051610a0b9493929190614bbd565b60405180910390a450505050505050505050565b670d2f13f7789f000081565b61271081565b610a396142fa565b610a416142fa565b82600001604051806020016040529081600082015481525050816101c00181905250610a71816101c00151612e69565b816101a00181815250508260010160009054906101000a90046fffffffffffffffffffffffffffffffff166fffffffffffffffffffffffffffffffff168161010001818152508160e00181815250508260020160009054906101000a90046fffffffffffffffffffffffffffffffff166fffffffffffffffffffffffffffffffff16816101400181815250816101200181815250508260010160109054906101000a90046fffffffffffffffffffffffffffffffff166fffffffffffffffffffffffffffffffff16816101600181815250508260020160109054906101000a90046fffffffffffffffffffffffffffffffff166fffffffffffffffffffffffffffffffff16816101800181815250508260040160009054906101000a900473ffffffffffffffffffffffffffffffffffffffff16816101e0019073ffffffffffffffffffffffffffffffffffffffff16908173ffffffffffffffffffffffffffffffffffffffff16815250508260050160009054906101000a900473ffffffffffffffffffffffffffffffffffffffff1681610200019073ffffffffffffffffffffffffffffffffffffffff16908173ffffffffffffffffffffffffffffffffffffffff16815250508260060160009054906101000a900473ffffffffffffffffffffffffffffffffffffffff1681610220019073ffffffffffffffffffffffffffffffffffffffff16908173ffffffffffffffffffffffffffffffffffffffff16815250508260030160109054906101000a900464ffffffffff1681610240019064ffffffffff16908164ffffffffff168152505080610220015173ffffffffffffffffffffffffffffffffffffffff1663b1bf962d6040518163ffffffff1660e01b8152600401602060405180830381865afa158015610d17573d6000803e3d6000fd5b505050506040513d601f19601f82011682018060405250810190610d3b91906149e9565b816020018181525081600001818152505080610200015173ffffffffffffffffffffffffffffffffffffffff1663797743386040518163ffffffff1660e01b8152600401608060405180830381865afa158015610d9c573d6000803e3d6000fd5b505050506040513d601f19601f82011682018060405250810190610dc09190614c3f565b84604001856080018660600187610260018464ffffffffff1664ffffffffff168152508481525084815250848152505050505080608001518160c001818152505080606001518160a001818152505080915050919050565b4264ffffffffff168260030160109054906101000a900464ffffffffff1664ffffffffff160315610e7d57610e4d8282612e9e565b610e578282612fc2565b428260030160106101000a81548164ffffffffff021916908364ffffffffff1602179055505b5050565b600080600080600080610e97876000015161316f565b15610ed6576000806000807fffffffffffffffffffffffffffffffffffffffffffffffffffffffffffffffff6000955095509550955095509550611454565b610ede6143e9565b6000886080015160ff1614610f3557610f168960008a6080015160ff1660ff168152602001908152602001600020896060015161317f565b836101a001846101c00185610180018381525083815250838152505050505b5b87602001518160c00151101561133e57610f618160c0015189600001516132a790919063ffffffff16565b610f79578060c0018051600101908181525050610f36565b8960008260c00151815260200190815260200160002060009054906101000a900473ffffffffffffffffffffffffffffffffffffffff1681610200019073ffffffffffffffffffffffffffffffffffffffff16908173ffffffffffffffffffffffffffffffffffffffff1681525050600073ffffffffffffffffffffffffffffffffffffffff1681610200015173ffffffffffffffffffffffffffffffffffffffff1603611035578060c0018051600101908181525050610f36565b60008b600083610200015173ffffffffffffffffffffffffffffffffffffffff1673ffffffffffffffffffffffffffffffffffffffff168152602001908152602001600020905061109d81600001604051806020016040529081600082015481525050613344565b909192509050856080018660a00187606001886101e00184815250848152508481525084815250505050508160600151600a0a8260200181815250506000826101800151141580156110fa5750816101e00151896080015160ff16145b61118657886060015173ffffffffffffffffffffffffffffffffffffffff1663b3596f078361020001516040518263ffffffff1660e01b815260040161114091906149b9565b602060405180830381865afa15801561115d573d6000803e3d6000fd5b505050506040513d601f19601f8201168201806040525081019061118191906149e9565b61118d565b8161018001515b82600001818152505060008260a00151141580156111c257506111c18260c001518a6000015161345890919063ffffffff16565b5b156112d7576111df896040015182846000015185602001516134f7565b826040018181525050816040015182610100018181516111ff9190614a45565b9150818152505061121c896080015160ff16836101e001516135e1565b8261024001901515908115158152505060008260800151146112805781610240015161124c578160800151611253565b816101a001515b82604001516112629190614ca6565b82610140018181516112749190614a45565b91508181525050611293565b6001826102200190151590811515815250505b8161024001516112a7578160a001516112ae565b816101c001515b82604001516112bd9190614ca6565b82610160018181516112cf9190614a45565b915081815250505b6112f28260c001518a600001516135fa90919063ffffffff16565b156113295761130f89604001518284600001518560200151613696565b82610120018181516113219190614a45565b915081815250505b8160c001805160010190818152505050610f36565b60008161010001510361135257600061136e565b8061010001518161014001518161136c5761136b614ce8565b5b045b8161014001818152505060008161010001510361138c5760006113a8565b806101000151816101600151816113a6576113a5614ce8565b5b045b816101600181815250506000816101200151146113f8576113f38161012001516113e583610160015184610100015161383490919063ffffffff16565b61386190919063ffffffff16565b61141a565b7fffffffffffffffffffffffffffffffffffffffffffffffffffffffffffffffff5b8160e00181815250508061010001518161012001518261014001518361016001518460e00151856102200151965096509650965096509650505b9499939850945094509450565b60008060008060006114778760800151896138a0565b91509150600081836114899190614a45565b90506000670d2f13f7789f000088116114a4576127106114a8565b6113885b905060006114bf828461383490919063ffffffff16565b90506000818b60200151116114d8578a602001516114da565b815b905084848298509850985050505050505093509350939050565b6114fc614495565b61151d836000016040518060200160405290816000820154815250506139ac565b909192509091509050826000018360200182151515158152508215151515815250505061155282600001516101c001516139ac565b909192509091509050826040018360600182151515158152508215151515815250505080600001518015611587575080604001515b6040518060400160405280600281526020017f3237000000000000000000000000000000000000000000000000000000000000815250906115fe576040517f08c379a00000000000000000000000000000000000000000000000000000000081526004016115f59190614d96565b60405180910390fd5b50806020015115801561161357508060600151155b6040518060400160405280600281526020017f32390000000000000000000000000000000000000000000000000000000000008152509061168a576040517f08c379a00000000000000000000000000000000000000000000000000000000081526004016116819190614d96565b60405180910390fd5b50600073ffffffffffffffffffffffffffffffffffffffff16826060015173ffffffffffffffffffffffffffffffffffffffff1614806116d55750670d2f13f7789f00008260400151105b8061174f5750816060015173ffffffffffffffffffffffffffffffffffffffff16637a5d20ea6040518163ffffffff1660e01b8152600401602060405180830381865afa15801561172a573d6000803e3d6000fd5b505050506040513d601f19601f8201168201806040525081019061174e9190614b81565b5b6040518060400160405280600281526020017f3539000000000000000000000000000000000000000000000000000000000000815250906117c6576040517f08c379a00000000000000000000000000000000000000000000000000000000081526004016117bd9190614d96565b60405180910390fd5b50670de0b6b3a76400008260400151106040518060400160405280600281526020017f34350000000000000000000000000000000000000000000000000000000000008152509061184d576040517f08c379a00000000000000000000000000000000000000000000000000000000081526004016118449190614d96565b60405180910390fd5b50600061187184600001604051806020016040529081600082015481525050613a98565b141580156118b957506118b88360030160159054906101000a900461ffff1661ffff168560405180602001604052908160008201548152505061345890919063ffffffff16565b5b81608001901515908115158152505080608001516040518060400160405280600281526020017f343600000000000000000000000000000000000000000000000000000000000081525090611944576040517f08c379a000000000000000000000000000000000000000000000000000000000815260040161193b9190614d96565b60405180910390fd5b506000826020015114156040518060400160405280600281526020017f3437000000000000000000000000000000000000000000000000000000000000815250906119c5576040517f08c379a00000000000000000000000000000000000000000000000000000000081526004016119bc9190614d96565b60405180910390fd5b5050505050565b60008060008060008660040160009054906101000a900473ffffffffffffffffffffffffffffffffffffffff1690506000611a1e88600001604051806020016040529081600082015481525050613acd565b905060008760400151905060008860600151905060008960e0015160ff1614611b625760008b60008b60e0015160ff1660ff16815260200190815260200160002060000160069054906101000a900473ffffffffffffffffffffffffffffffffffffffff169050611ab68a60e0015160ff16611ab18d600001604051806020016040529081600082015481525050613b02565b6135e1565b15611b28578b60008b60e0015160ff1660ff16815260200190815260200160002060000160049054906101000a900461ffff1661ffff169350600073ffffffffffffffffffffffffffffffffffffffff168173ffffffffffffffffffffffffffffffffffffffff1614611b27578092505b5b600073ffffffffffffffffffffffffffffffffffffffff168173ffffffffffffffffffffffffffffffffffffffff1614611b60578091505b505b8382828597509750975097505050505093509350935093565b6000806000611b886144ce565b8473ffffffffffffffffffffffffffffffffffffffff1663b3596f078b6040518263ffffffff1660e01b8152600401611bc191906149b9565b602060405180830381865afa158015611bde573d6000803e3d6000fd5b505050506040513d601f19601f82011682018060405250810190611c0291906149e9565b8160000181815250508473ffffffffffffffffffffffffffffffffffffffff1663b3596f078a6040518263ffffffff1660e01b8152600401611c4491906149b9565b602060405180830381865afa158015611c61573d6000803e3d6000fd5b505050506040513d601f19601f82011682018060405250810190611c8591906149e9565b816020018181525050611caf8c600001604051806020016040529081600082015481525050613b37565b8160c0018181525050611cc68b6101c00151613b37565b8160a00181815250508060c00151600a0a8160e00181815250508060a00151600a0a81610100018181525050611d138c600001604051806020016040529081600082015481525050613b6c565b816101600181815250508061010001518160000151611d329190614ca6565b8160e00151898360200151611d479190614ca6565b611d519190614ca6565b611d5b9190614db8565b816060018181525050611d7b86826060015161383490919063ffffffff16565b8160400181815250508681604001511115611dff578681610120018181525050611df0868260e001518360200151611db39190614ca6565b8361010001518461012001518560000151611dce9190614ca6565b611dd89190614ca6565b611de29190614db8565b613ba190919063ffffffff16565b81610140018181525050611e1a565b80604001518161012001818152505087816101400181815250505b600081610160015114611eac57611e3f86826101200151613ba190919063ffffffff16565b816101200151611e4f9190614de9565b816080018181525050611e74816101600151826080015161383490919063ffffffff16565b81610180018181525050806101800151816101200151611e949190614de9565b81610140015182610180015193509350935050611ec2565b8061012001518161014001516000935093509350505b985098509895505050505050565b608061ffff1682106040518060400160405280600281526020017f373400000000000000000000000000000000000000000000000000000000000081525090611f4f576040517f08c379a0000000000000000000000000000000000000000000000000000000008152600401611f469190614d96565b60405180910390fd5b506000600183901b6001901b90508115611f7a57808460000160008282541792505081905550611f8e565b801984600001600082825416925050819055505b50505050565b608061ffff1682106040518060400160405280600281526020017f373400000000000000000000000000000000000000000000000000000000000081525090612013576040517f08c379a000000000000000000000000000000000000000000000000000000000815260040161200a9190614d96565b60405180910390fd5b50600060018084901b016001901b9050811561204057808460000160008282541792505081905550612054565b801984600001600082825416925050819055505b50505050565b806060015181602001511061211857806101600151610220015173ffffffffffffffffffffffffffffffffffffffff1663f5298aca8360800151836060015184610160015161014001516040518463ffffffff1660e01b81526004016120c293929190614e1d565b6020604051808303816000875af11580156120e1573d6000803e3d6000fd5b505050506040513d601f19601f8201168201806040525081019061210591906149e9565b816101600151602001818152505061228a565b60008160200151146121cf57806101600151610220015173ffffffffffffffffffffffffffffffffffffffff1663f5298aca8360800151836020015184610160015161014001516040518463ffffffff1660e01b815260040161217d93929190614e1d565b6020604051808303816000875af115801561219c573d6000803e3d6000fd5b505050506040513d601f19601f820116820180604052508101906121c091906149e9565b81610160015160200181815250505b806101600151610200015173ffffffffffffffffffffffffffffffffffffffff16639dc29fac83608001518360200151846060015161220e9190614de9565b6040518363ffffffff1660e01b815260040161222b929190614e54565b60408051808303816000875af1158015612249573d6000803e3d6000fd5b505050506040513d601f19601f8201168201806040525081019061226d9190614e7d565b82610160015160c00183610160015160a001828152508281525050505b5050565b612296614536565b6122b28561014001518660200151612d6590919063ffffffff16565b8160600181815250508560070160009054906101000a900473ffffffffffffffffffffffffffffffffffffffff1673ffffffffffffffffffffffffffffffffffffffff1663a58987096040518061012001604052808960080160109054906101000a90046fffffffffffffffffffffffffffffffff166fffffffffffffffffffffffffffffffff1681526020018681526020018581526020018860c001518152602001846060015181526020018860a001518152602001886101a0015181526020018773ffffffffffffffffffffffffffffffffffffffff168152602001886101e0015173ffffffffffffffffffffffffffffffffffffffff168152506040518263ffffffff1660e01b81526004016123cb9190614f92565b606060405180830381865afa1580156123e8573d6000803e3d6000fd5b505050506040513d601f19601f8201168201806040525081019061240c9190614fae565b8360000184602001856040018381525083815250838152505050506124348160000151613bd4565b8660010160106101000a8154816fffffffffffffffffffffffffffffffff02191690836fffffffffffffffffffffffffffffffff16021790555061247b8160200151613bd4565b8660030160006101000a8154816fffffffffffffffffffffffffffffffff02191690836fffffffffffffffffffffffffffffffff1602179055506124c28160400151613bd4565b8660020160106101000a8154816fffffffffffffffffffffffffffffffff02191690836fffffffffffffffffffffffffffffffff1602179055508373ffffffffffffffffffffffffffffffffffffffff167f804c9b842b2748a22bb64b345453a3de7ca54a6ca45ce00d415894979e22897a8260000151836020015184604001518961010001518a6101400151604051612560959493929190615001565b60405180910390a2505050505050565b60008061259d878787604051806020016040529081600082015481525050613c339092919063ffffffff16565b509150915081156128365760008760008373ffffffffffffffffffffffffffffffffffffffff1673ffffffffffffffffffffffffffffffffffffffff16815260200190815260200160002060090160009054906101000a90046fffffffffffffffffffffffffffffffff169050600061265161261d876101c00151613b37565b600a6126299190615187565b6002600a6126379190615187565b876126429190614ca6565b61264c9190614db8565b613bd4565b9050806fffffffffffffffffffffffffffffffff16826fffffffffffffffffffffffffffffffff161161274b5760008960008573ffffffffffffffffffffffffffffffffffffffff1673ffffffffffffffffffffffffffffffffffffffff16815260200190815260200160002060090160006101000a8154816fffffffffffffffffffffffffffffffff02191690836fffffffffffffffffffffffffffffffff1602179055508273ffffffffffffffffffffffffffffffffffffffff167faef84d3b40895fd58c561f3998000f0583abb992a52fbdc99ace8e8de4d676a5600060405161273e9190615217565b60405180910390a2612833565b60008183612759919061524e565b8a60008673ffffffffffffffffffffffffffffffffffffffff1673ffffffffffffffffffffffffffffffffffffffff16815260200190815260200160002060090160006101000a8154816fffffffffffffffffffffffffffffffff02191690836fffffffffffffffffffffffffffffffff16021790556fffffffffffffffffffffffffffffffff1690508373ffffffffffffffffffffffffffffffffffffffff167faef84d3b40895fd58c561f3998000f0583abb992a52fbdc99ace8e8de4d676a5826040516128299190615292565b60405180910390a2505b50505b50505050505050565b600081610140015173ffffffffffffffffffffffffffffffffffffffff166370a08231336040518263ffffffff1660e01b815260040161287f91906149b9565b602060405180830381865afa15801561289c573d6000803e3d6000fd5b505050506040513d601f19601f820116820180604052508101906128c091906149e9565b905081610140015173ffffffffffffffffffffffffffffffffffffffff1663f866c31984608001513385608001516040518463ffffffff1660e01b815260040161290c93929190614aca565b600060405180830381600087803b15801561292657600080fd5b505af115801561293a573d6000803e3d6000fd5b5050505060008103612a3d5760008560003373ffffffffffffffffffffffffffffffffffffffff1673ffffffffffffffffffffffffffffffffffffffff16815260200190815260200160002090506129ac88888388600001604051806020016040529081600082015481525050613d40565b15612a3b576129dd8560030160159054906101000a900461ffff1661ffff16600183611f949092919063ffffffff16565b3373ffffffffffffffffffffffffffffffffffffffff16846040015173ffffffffffffffffffffffffffffffffffffffff167e058a56ea94653cdf4f152d227ace22d4c00ad99e2a43f58cb7d9e3feb295f260405160405180910390a35b505b50505050505050565b6000612a5184610a31565b9050612a668185610e1890919063ffffffff16565b612a88818460400151600085608001518861228e90949392919063ffffffff16565b81610140015173ffffffffffffffffffffffffffffffffffffffff1663d7020d0a84608001513385608001518561010001516040518563ffffffff1660e01b8152600401612ad994939291906152ad565b600060405180830381600087803b158015612af357600080fd5b505af1158015612b07573d6000803e3d6000fd5b505050506000816101e0015173ffffffffffffffffffffffffffffffffffffffff166310c282b86040518163ffffffff1660e01b8152600401602060405180830381865afa158015612b5d573d6000803e3d6000fd5b505050506040513d601f19601f82011682018060405250810190612b819190614b3f565b9050600073ffffffffffffffffffffffffffffffffffffffff168173ffffffffffffffffffffffffffffffffffffffff1614612c2a578073ffffffffffffffffffffffffffffffffffffffff16636ecb81146040518163ffffffff1660e01b81526004016020604051808303816000875af1158015612c04573d6000803e3d6000fd5b505050506040513d601f19601f82011682018060405250810190612c289190614b81565b505b5050505050565b6000808260030160109054906101000a900464ffffffffff169050428164ffffffffff1603612c95578260010160009054906101000a90046fffffffffffffffffffffffffffffffff166fffffffffffffffffffffffffffffffff16915050612d19565b612d158360010160009054906101000a90046fffffffffffffffffffffffffffffffff166fffffffffffffffffffffffffffffffff16612d078560010160109054906101000a90046fffffffffffffffffffffffffffffffff166fffffffffffffffffffffffffffffffff1684613dbf565b612d6590919063ffffffff16565b9150505b919050565b60006b033b2e3c9fd0803ce80000006002830460001903048311151582151715612d4757600080fd5b81600283046b033b2e3c9fd0803ce800000085020104905092915050565b6000816b019d971e4fe8401e740000006000190304831115821517612d8957600080fd5b6b033b2e3c9fd0803ce80000006b019d971e4fe8401e740000008385020104905092915050565b60006323b872dd60e01b905060405181815273ffffffffffffffffffffffffffffffffffffffff8516600482015273ffffffffffffffffffffffffffffffffffffffff8416602482015282604482015260008060648360008a5af1612e19573d6000803e3d6000fd5b50612e2385613e1a565b612e62576040517f08c379a0000000000000000000000000000000000000000000000000000000008152600401612e599061533e565b60405180910390fd5b5050505050565b600060407fffffffffffffffffffffffffffffffffffffffffffff0000ffffffffffffffff19836000015116901c9050919050565b600081610160015114612f2e576000612ec1826101600151836102400151613dbf565b9050612eda8260e0015182612d6590919063ffffffff16565b82610100018181525050612ef2826101000151613bd4565b8360010160006101000a8154816fffffffffffffffffffffffffffffffff02191690836fffffffffffffffffffffffffffffffff160217905550505b6000816000015114612fbe576000612f50826101800151836102400151613ee7565b9050612f6a82610120015182612d6590919063ffffffff16565b82610140018181525050612f82826101400151613bd4565b8360020160006101000a8154816fffffffffffffffffffffffffffffffff02191690836fffffffffffffffffffffffffffffffff160217905550505b5050565b612fca61455e565b6000826101a0015103612fdd575061316b565b612ff98261012001518360000151612d6590919063ffffffff16565b81602001818152505061301e8261014001518360000151612d6590919063ffffffff16565b816040018181525050613047826060015183610260015184610240015164ffffffffff16613efc565b81606001818152505061306b81606001518360400151612d6590919063ffffffff16565b81600001818152505080600001518160200151836080015183604001516130929190614a45565b61309c9190614de9565b6130a69190614de9565b8160800181815250506130cb826101a00151826080015161383490919063ffffffff16565b8160a001818152505060008160a0015114613169576131046130ff8361010001518360a00151612d1e90919063ffffffff16565b613bd4565b8360080160008282829054906101000a90046fffffffffffffffffffffffffffffffff16613132919061535e565b92506101000a8154816fffffffffffffffffffffffffffffffff02191690836fffffffffffffffffffffffffffffffff1602179055505b505b5050565b6000808260000151149050919050565b6000806000806000905060008660000160069054906101000a900473ffffffffffffffffffffffffffffffffffffffff169050600073ffffffffffffffffffffffffffffffffffffffff168173ffffffffffffffffffffffffffffffffffffffff1614613263578573ffffffffffffffffffffffffffffffffffffffff1663b3596f07826040518263ffffffff1660e01b815260040161321f91906149b9565b602060405180830381865afa15801561323c573d6000803e3d6000fd5b505050506040513d601f19601f8201168201806040525081019061326091906149e9565b91505b8660000160009054906101000a900461ffff168760000160029054906101000a900461ffff16838261ffff1692508161ffff16915094509450945050509250925092565b6000608061ffff1682106040518060400160405280600281526020017f373400000000000000000000000000000000000000000000000000000000000081525090613328576040517f08c379a000000000000000000000000000000000000000000000000000000000815260040161331f9190614d96565b60405180910390fd5b5060006003600184901b8560000151901c161415905092915050565b6000806000806000806000876000015190507fffffffffffffffffffffffffffffffffffffffffffffffffffffffffffff000019811660107fffffffffffffffffffffffffffffffffffffffffffffffffffffffff0000ffff198316901c60207fffffffffffffffffffffffffffffffffffffffffffffffffffff0000ffffffff198416901c60307fffffffffffffffffffffffffffffffffffffffffffffffffff00ffffffffffff198516901c60407fffffffffffffffffffffffffffffffffffffffffffff0000ffffffffffffffff198616901c60a87fffffffffffffffffffff00ffffffffffffffffffffffffffffffffffffffffff198716901c9650965096509650965096505091939550919395565b6000608061ffff1682106040518060400160405280600281526020017f3734000000000000000000000000000000000000000000000000000000000000815250906134d9576040517f08c379a00000000000000000000000000000000000000000000000000000000081526004016134d09190614d96565b60405180910390fd5b506000600180600185901b018560000151901c161415905092915050565b60008061350385612c31565b90506000846135b8838860040160009054906101000a900473ffffffffffffffffffffffffffffffffffffffff1673ffffffffffffffffffffffffffffffffffffffff16631da24f3e8b6040518263ffffffff1660e01b815260040161356991906149b9565b602060405180830381865afa158015613586573d6000803e3d6000fd5b505050506040513d601f19601f820116820180604052508101906135aa91906149e9565b612d6590919063ffffffff16565b6135c29190614ca6565b90508381816135d4576135d3614ce8565b5b0492505050949350505050565b60008083141580156135f257508282145b905092915050565b6000608061ffff1682106040518060400160405280600281526020017f37340000000000000000000000000000000000000000000000000000000000008152509061367b576040517f08c379a00000000000000000000000000000000000000000000000000000000081526004016136729190614d96565b60405180910390fd5b50600060018084901b8560000151901c161415905092915050565b6000808460060160009054906101000a900473ffffffffffffffffffffffffffffffffffffffff1673ffffffffffffffffffffffffffffffffffffffff16631da24f3e876040518263ffffffff1660e01b81526004016136f691906149b9565b602060405180830381865afa158015613713573d6000803e3d6000fd5b505050506040513d601f19601f8201168201806040525081019061373791906149e9565b90506000811461375f5761375c61374d86614069565b82612d6590919063ffffffff16565b90505b8460050160009054906101000a900473ffffffffffffffffffffffffffffffffffffffff1673ffffffffffffffffffffffffffffffffffffffff166370a08231876040518263ffffffff1660e01b81526004016137bc91906149b9565b602060405180830381865afa1580156137d9573d6000803e3d6000fd5b505050506040513d601f19601f820116820180604052508101906137fd91906149e9565b816138089190614a45565b905080846138169190614ca6565b905082818161382857613827614ce8565b5b04915050949350505050565b600081611388600019030483111582151761384e57600080fd5b6127106113888385020104905092915050565b6000670de0b6b3a7640000600283046000190304831115158215171561388657600080fd5b8160028304670de0b6b3a764000085020104905092915050565b60008082610200015173ffffffffffffffffffffffffffffffffffffffff166370a08231856040518263ffffffff1660e01b81526004016138e191906149b9565b602060405180830381865afa1580156138fe573d6000803e3d6000fd5b505050506040513d601f19601f8201168201806040525081019061392291906149e9565b83610220015173ffffffffffffffffffffffffffffffffffffffff166370a08231866040518263ffffffff1660e01b815260040161396091906149b9565b602060405180830381865afa15801561397d573d6000803e3d6000fd5b505050506040513d601f19601f820116820180604052508101906139a191906149e9565b915091509250929050565b6000806000806000808660000151905060007ffffffffffffffffffffffffffffffffffffffffffffffffffeffffffffffffff198216141560007ffffffffffffffffffffffffffffffffffffffffffffffffffdffffffffffffff198316141560007ffffffffffffffffffffffffffffffffffffffffffffffffffbffffffffffffff198416141560007ffffffffffffffffffffffffffffffffffffffffffffffffff7ffffffffffffff198516141560007fffffffffffffffffffffffffffffffffffffffffffffffffefffffffffffffff1986161415955095509550955095505091939590929450565b600060107fffffffffffffffffffffffffffffffffffffffffffffffffffffffff0000ffff19836000015116901c9050919050565b600060207fffffffffffffffffffffffffffffffffffffffffffffffffffff0000ffffffff19836000015116901c9050919050565b600060a87fffffffffffffffffffff00ffffffffffffffffffffffffffffffffffffffffff19836000015116901c9050919050565b600060307fffffffffffffffffffffffffffffffffffffffffffffffffff00ffffffffffff19836000015116901c9050919050565b600060987fffffffffffffffffffffff0000ffffffffffffffffffffffffffffffffffffff19836000015116901c9050919050565b60006127106002830460001903048311151582151715613bc057600080fd5b816002830461271085020104905092915050565b60006fffffffffffffffffffffffffffffffff8016821115613c2b576040517f08c379a0000000000000000000000000000000000000000000000000000000008152600401613c2290615414565b60405180910390fd5b819050919050565b6000806000613c4186614156565b15613d2b576000613c72877faaaaaaaaaaaaaaaaaaaaaaaaaaaaaaaaaaaaaaaaaaaaaaaaaaaaaaaaaaaaaaaa6141a9565b9050600085600083815260200190815260200160002060009054906101000a900473ffffffffffffffffffffffffffffffffffffffff1690506000613d0b8860008473ffffffffffffffffffffffffffffffffffffffff1673ffffffffffffffffffffffffffffffffffffffff1681526020019081526020016000206000016040518060200160405290816000820154815250506141e9565b905060008114613d275760018282955095509550505050613d37565b5050505b60008060009250925092505b93509350939050565b6000613d608360405180602001604052908160008201548152505061421e565b613d6d5760019050613db7565b6000613d99868686604051806020016040529081600082015481525050613c339092919063ffffffff16565b5050905080158015613db357506000613db1846141e9565b145b9150505b949350505050565b6000808264ffffffffff1642613dd59190614de9565b84613de09190614ca6565b90506301e133808181613df657613df5614ce8565b5b049050806b033b2e3c9fd0803ce8000000613e119190614a45565b91505092915050565b6000613e58565b7f08c379a0000000000000000000000000000000000000000000000000000000006000526020600452806024528160445260646000fd5b3d60008114613e995760208114613ed457613e947f475076323a206d616c666f726d6564207472616e7366657220726573756c7400601f613e21565b613ee1565b823b613ecb57613eca7f475076323a206e6f74206120636f6e74726163740000000000000000000000006014613e21565b5b60019150613ee1565b3d6000803e600051151591505b50919050565b6000613ef4838342613efc565b905092915050565b6000808364ffffffffff1683613f129190614de9565b905060008103613f31576b033b2e3c9fd0803ce8000000915050614062565b60008060008060018503935060028511613f4c576000613f51565b600285035b92506301e133808002613f6d8a8b612d6590919063ffffffff16565b81613f7b57613f7a614ce8565b5b0491506301e13380613f968a84612d6590919063ffffffff16565b81613fa457613fa3614ce8565b5b0490506000828587613fb69190614ca6565b613fc09190614ca6565b905060028181613fd357613fd2614ce8565b5b049050600082858789613fe69190614ca6565b613ff09190614ca6565b613ffa9190614ca6565b90506006818161400d5761400c614ce8565b5b04905080826301e13380898e6140239190614ca6565b61402d9190614db8565b6b033b2e3c9fd0803ce80000006140449190614a45565b61404e9190614a45565b6140589190614a45565b9750505050505050505b9392505050565b6000808260030160109054906101000a900464ffffffffff169050428164ffffffffff16036140cd578260020160009054906101000a90046fffffffffffffffffffffffffffffffff166fffffffffffffffffffffffffffffffff16915050614151565b61414d8360020160009054906101000a90046fffffffffffffffffffffffffffffffff166fffffffffffffffffffffffffffffffff1661413f8560020160109054906101000a90046fffffffffffffffffffffffffffffffff166fffffffffffffffffffffffffffffffff1684613ee7565b612d6590919063ffffffff16565b9150505b919050565b6000807faaaaaaaaaaaaaaaaaaaaaaaaaaaaaaaaaaaaaaaaaaaaaaaaaaaaaaaaaaaaaaaa8360000151169050600081141580156141a15750600060018261419d9190614de9565b8216145b915050919050565b600080828460000151169050600060018203198216905060005b6000600283901c925082146141dd576001810190506141c3565b80935050505092915050565b600060d47ff0000000000fffffffffffffffffffffffffffffffffffffffffffffffffffff19836000015116901c9050919050565b6000807faaaaaaaaaaaaaaaaaaaaaaaaaaaaaaaaaaaaaaaaaaaaaaaaaaaaaaaaaaaaaaaa83600001511614159050919050565b6040518061018001604052806000815260200160008152602001600081526020016000815260200160008152602001600081526020016000815260200160008152602001600073ffffffffffffffffffffffffffffffffffffffff168152602001600073ffffffffffffffffffffffffffffffffffffffff168152602001600073ffffffffffffffffffffffffffffffffffffffff1681526020016142f46142fa565b81525090565b6040518061028001604052806000815260200160008152602001600081526020016000815260200160008152602001600081526020016000815260200160008152602001600081526020016000815260200160008152602001600081526020016000815260200160008152602001614370614594565b8152602001600073ffffffffffffffffffffffffffffffffffffffff168152602001600073ffffffffffffffffffffffffffffffffffffffff168152602001600073ffffffffffffffffffffffffffffffffffffffff168152602001600064ffffffffff168152602001600064ffffffffff1681525090565b60405180610260016040528060008152602001600081526020016000815260200160008152602001600081526020016000815260200160008152602001600081526020016000815260200160008152602001600081526020016000815260200160008152602001600081526020016000815260200160008152602001600073ffffffffffffffffffffffffffffffffffffffff1681526020016000151581526020016000151581525090565b6040518060a001604052806000151581526020016000151581526020016000151581526020016000151581526020016000151581525090565b604051806101a00160405280600081526020016000815260200160008152602001600081526020016000815260200160008152602001600081526020016000815260200160008152602001600081526020016000815260200160008152602001600081525090565b6040518060800160405280600081526020016000815260200160008152602001600081525090565b6040518060c001604052806000815260200160008152602001600081526020016000815260200160008152602001600081525090565b6040518060200160405280600081525090565b6000604051905090565b600080fd5b6000819050919050565b6145c9816145b6565b81146145d457600080fd5b50565b6000813590506145e6816145c0565b92915050565b6000819050919050565b6145ff816145ec565b811461460a57600080fd5b50565b60008135905061461c816145f6565b92915050565b6000819050919050565b61463581614622565b811461464057600080fd5b50565b6000813590506146528161462c565b92915050565b6000819050919050565b61466b81614658565b811461467657600080fd5b50565b60008135905061468881614662565b92915050565b600080fd5b6000601f19601f8301169050919050565b7f4e487b7100000000000000000000000000000000000000000000000000000000600052604160045260246000fd5b6146dc82614693565b810181811067ffffffffffffffff821117156146fb576146fa6146a4565b5b80604052505050565b600061470e6145a7565b905061471a82826146d3565b919050565b6000819050919050565b6147328161471f565b811461473d57600080fd5b50565b60008135905061474f81614729565b92915050565b600073ffffffffffffffffffffffffffffffffffffffff82169050919050565b600061478082614755565b9050919050565b61479081614775565b811461479b57600080fd5b50565b6000813590506147ad81614787565b92915050565b60008115159050919050565b6147c8816147b3565b81146147d357600080fd5b50565b6000813590506147e5816147bf565b92915050565b600060ff82169050919050565b614801816147eb565b811461480c57600080fd5b50565b60008135905061481e816147f8565b92915050565b6000610120828403121561483b5761483a61468e565b5b614846610120614704565b9050600061485684828501614740565b600083015250602061486a84828501614740565b602083015250604061487e8482850161479e565b60408301525060606148928482850161479e565b60608301525060806148a68482850161479e565b60808301525060a06148ba848285016147d6565b60a08301525060c06148ce8482850161479e565b60c08301525060e06148e28482850161480f565b60e0830152506101006148f78482850161479e565b6101008301525092915050565b60008060008060006101a08688031215614921576149206145b1565b5b600061492f888289016145d7565b95505060206149408882890161460d565b945050604061495188828901614643565b935050606061496288828901614679565b925050608061497388828901614824565b9150509295509295909350565b6149898161471f565b82525050565b60006020820190506149a46000830184614980565b92915050565b6149b381614775565b82525050565b60006020820190506149ce60008301846149aa565b92915050565b6000815190506149e381614729565b92915050565b6000602082840312156149ff576149fe6145b1565b5b6000614a0d848285016149d4565b91505092915050565b7f4e487b7100000000000000000000000000000000000000000000000000000000600052601160045260246000fd5b6000614a508261471f565b9150614a5b8361471f565b9250828201905080821115614a7357614a72614a16565b5b92915050565b600081519050614a8881614787565b92915050565b600060208284031215614aa457614aa36145b1565b5b6000614ab284828501614a79565b91505092915050565b614ac48161471f565b82525050565b6000606082019050614adf60008301866149aa565b614aec60208301856149aa565b614af96040830184614abb565b949350505050565b6000614b0c82614775565b9050919050565b614b1c81614b01565b8114614b2757600080fd5b50565b600081519050614b3981614b13565b92915050565b600060208284031215614b5557614b546145b1565b5b6000614b6384828501614b2a565b91505092915050565b600081519050614b7b816147bf565b92915050565b600060208284031215614b9757614b966145b1565b5b6000614ba584828501614b6c565b91505092915050565b614bb7816147b3565b82525050565b6000608082019050614bd26000830187614abb565b614bdf6020830186614abb565b614bec60408301856149aa565b614bf96060830184614bae565b95945050505050565b600064ffffffffff82169050919050565b614c1c81614c02565b8114614c2757600080fd5b50565b600081519050614c3981614c13565b92915050565b60008060008060808587031215614c5957614c586145b1565b5b6000614c67878288016149d4565b9450506020614c78878288016149d4565b9350506040614c89878288016149d4565b9250506060614c9a87828801614c2a565b91505092959194509250565b6000614cb18261471f565b9150614cbc8361471f565b9250828202614cca8161471f565b91508282048414831517614ce157614ce0614a16565b5b5092915050565b7f4e487b7100000000000000000000000000000000000000000000000000000000600052601260045260246000fd5b600081519050919050565b600082825260208201905092915050565b60005b83811015614d51578082015181840152602081019050614d36565b60008484015250505050565b6000614d6882614d17565b614d728185614d22565b9350614d82818560208601614d33565b614d8b81614693565b840191505092915050565b60006020820190508181036000830152614db08184614d5d565b905092915050565b6000614dc38261471f565b9150614dce8361471f565b925082614dde57614ddd614ce8565b5b828204905092915050565b6000614df48261471f565b9150614dff8361471f565b9250828203905081811115614e1757614e16614a16565b5b92915050565b6000606082019050614e3260008301866149aa565b614e3f6020830185614abb565b614e4c6040830184614abb565b949350505050565b6000604082019050614e6960008301856149aa565b614e766020830184614abb565b9392505050565b60008060408385031215614e9457614e936145b1565b5b6000614ea2858286016149d4565b9250506020614eb3858286016149d4565b9150509250929050565b614ec68161471f565b82525050565b614ed581614775565b82525050565b61012082016000820151614ef26000850182614ebd565b506020820151614f056020850182614ebd565b506040820151614f186040850182614ebd565b506060820151614f2b6060850182614ebd565b506080820151614f3e6080850182614ebd565b5060a0820151614f5160a0850182614ebd565b5060c0820151614f6460c0850182614ebd565b5060e0820151614f7760e0850182614ecc565b50610100820151614f8c610100850182614ecc565b50505050565b600061012082019050614fa86000830184614edb565b92915050565b600080600060608486031215614fc757614fc66145b1565b5b6000614fd5868287016149d4565b9350506020614fe6868287016149d4565b9250506040614ff7868287016149d4565b9150509250925092565b600060a0820190506150166000830188614abb565b6150236020830187614abb565b6150306040830186614abb565b61503d6060830185614abb565b61504a6080830184614abb565b9695505050505050565b60008160011c9050919050565b6000808291508390505b60018511156150ab5780860481111561508757615086614a16565b5b60018516156150965780820291505b80810290506150a485615054565b945061506b565b94509492505050565b6000826150c45760019050615180565b816150d25760009050615180565b81600181146150e857600281146150f257615121565b6001915050615180565b60ff84111561510457615103614a16565b5b8360020a91508482111561511b5761511a614a16565b5b50615180565b5060208310610133831016604e8410600b84101617156151565782820a90508381111561515157615150614a16565b5b615180565b6151638484846001615061565b9250905081840481111561517a57615179614a16565b5b81810290505b9392505050565b60006151928261471f565b915061519d8361471f565b92506151ca7fffffffffffffffffffffffffffffffffffffffffffffffffffffffffffffffff84846150b4565b905092915050565b6000819050919050565b6000819050919050565b60006152016151fc6151f7846151d2565b6151dc565b61471f565b9050919050565b615211816151e6565b82525050565b600060208201905061522c6000830184615208565b92915050565b60006fffffffffffffffffffffffffffffffff82169050919050565b600061525982615232565b915061526483615232565b925082820390506fffffffffffffffffffffffffffffffff81111561528c5761528b614a16565b5b92915050565b60006020820190506152a76000830184614abb565b92915050565b60006080820190506152c260008301876149aa565b6152cf60208301866149aa565b6152dc6040830185614abb565b6152e96060830184614abb565b95945050505050565b7f475076323a206661696c6564207472616e7366657246726f6d00000000000000600082015250565b6000615328601983614d22565b9150615333826152f2565b602082019050919050565b600060208201905081810360008301526153578161531b565b9050919050565b600061536982615232565b915061537483615232565b925082820190506fffffffffffffffffffffffffffffffff81111561539c5761539b614a16565b5b92915050565b7f53616665436173743a2076616c756520646f65736e27742066697420696e203160008201527f3238206269747300000000000000000000000000000000000000000000000000602082015250565b60006153fe602783614d22565b9150615409826153a2565b604082019050919050565b6000602082019050818103600083015261542d816153f1565b905091905056fea26469706673582212208d16001f2dc72db6f1b4f94a5a64b30cfc39fe240985ff52ca4f9f80346cafc764736f6c63430008110033","linkReferences":{}},"methodIdentifiers":{"CLOSE_FACTOR_HF_THRESHOLD()":"a18964a5","MAX_LIQUIDATION_CLOSE_FACTOR()":"d2467544","executeLiquidationCall(mapping(address => DataTypes.ReserveData) storage,mapping(uint256 => address) storage,mapping(address => DataTypes.UserConfigurationMap) storage,mapping(uint8 => DataTypes.EModeCategory) storage,DataTypes.ExecuteLiquidationCallParams)":"83c1087d"},"id":38}