{"abi":[{"type":"constructor","inputs":[],"stateMutability":"nonpayable"},{"type":"receive","stateMutability":"payable"},{"type":"function","name":"executeOnOpportunity","inputs":[],"outputs":[],"stateMutability":"nonpayable"},{"type":"function","name":"executeOperation","inputs":[{"name":"assets","type":"address[]","internalType":"address[]"},{"name":"amounts","type":"uint256[]","internalType":"uint256[]"},{"name":"premiums","type":"uint256[]","internalType":"uint256[]"},{"name":"","type":"address","internalType":"address"},{"name":"","type":"bytes","internalType":"bytes"}],"outputs":[{"name":"","type":"bool","internalType":"bool"}],"stateMutability":"nonpayable"},{"type":"function","name":"profitAmount","inputs":[],"outputs":[{"name":"","type":"uint256","internalType":"uint256"}],"stateMutability":"view"},{"type":"function","name":"profitToken","inputs":[],"outputs":[{"name":"","type":"address","internalType":"address"}],"stateMutability":"pure"}],"bytecode":{"object":"0x60808060405234601557612476908161001a8239f35b5f80fdfe608080604052600436101561001c575b50361561001a575f80fd5b005b5f905f3560e01c9081633c2448ed14610bce575080634934362414610ba65780635ff972cc14610b895763920f5c840361000f5734610b865760a0366003190112610b865760043567ffffffffffffffff811161070d57610081903690600401610f25565b9060243567ffffffffffffffff8111610b84576100a2903690600401610f25565b9160443567ffffffffffffffff8111610b80576100c3903690600401610f25565b90916064356001600160a01b03811603610b415760843567ffffffffffffffff81116109c057366023820112156109c057806004013567ffffffffffffffff81116106ff5736910160240111610b41577387870bca3f3fd6335c3f4ce8392d69350b4fa4e23303610b50575f5160206124215f395f51905f523b15610b4157604051632e1a7d4d60e01b8152683ba1910bf341b00000600482015287908181602481835f5160206124215f395f51905f525af18015610b4557610b2c575b505060409586516101928882610f56565b87368237683ba1910bf341b0000081528751630b4c7e4d60e01b81529089600483015b60028210610b1657505050683635c9adc5dea000006044820152602081606481683ba1910bf341b0000073dc24316b9ae028f1497c275eb9192a3ea0f670225af1801561068057610af7575b5086516113e88082019082821067ffffffffffffffff831117610ae357828b9392602092611039833930815203019082f08015610ad75788516370a0823160e01b81523060048201526001600160a01b0391909116906020816024815f5160206124215f395f51905f525afa9081156109eb578391610a9f575b50895163a9059cbb60e01b81526001600160a01b03831660048201526024810191909152602081604481865f5160206124215f395f51905f525af180156109eb57610a82575b5088516370a0823160e01b8152306004820152602081602481737f39c581f595b53c5cb19bd0b3f8da6c935e2ca05afa9081156109eb578391610a4a575b50895163a9059cbb60e01b81526001600160a01b0383166004820152602481019190915260208160448186737f39c581f595b53c5cb19bd0b3f8da6c935e2ca05af180156109eb57610a2d575b5088516370a0823160e01b81523060048201526020816024817306325440d014e39736583c165c2963ba99faf14e5afa9081156109eb5783916109f5575b50895163a9059cbb60e01b81526001600160a01b03831660048201526024810191909152602081604481867306325440d014e39736583c165c2963ba99faf14e5af180156109eb576109ce575b50803b1561070d5781809160048b5180948193634c2366cf60e11b83525af180156109c4576109ab575b505086516370a0823160e01b81523060048201526020816024817306325440d014e39736583c165c2963ba99faf14e5afa908115610680578991610979575b508061090a575b5086516370a0823160e01b8152306004820152602081602481737f39c581f595b53c5cb19bd0b3f8da6c935e2ca05afa9081156106805789916108d8575b50861561068a57831561068a5761049e85358735611003565b90818111610846575b5087516370a0823160e01b8152306004820152899060208160248173ae7ab96520de3a18e5e111b5eaab095312d7fe845afa90811561070357829161080d575b5080610711575b50504761069e575b811561068a57889060209089906001600160a01b0361051487611024565b1690825194858094819363095ea7b360e01b83528760048401928301927387870bca3f3fd6335c3f4ce8392d69350b4fa4e28152015203925af1801561068057610663575b506001101561064f576001600160a01b039061057790602001611024565b16936001101561063b5760011015610627579161059e602092838088960135910135611003565b908451809481809463095ea7b360e01b82526004820190878a8301927387870bca3f3fd6335c3f4ce8392d69350b4fa4e28152015203925af1801561061b57602093506105ee575b505160018152f35b61060d90833d8511610614575b6106058183610f56565b810190610feb565b505f6105e6565b503d6105fb565b505051903d90823e3d90fd5b634e487b7160e01b85526032600452602485fd5b634e487b7160e01b86526032600452602486fd5b634e487b7160e01b87526032600452602487fd5b61067b9060203d602011610614576106058183610f56565b610559565b88513d8b823e3d90fd5b634e487b7160e01b89526032600452602489fd5b88475f5160206124215f395f51905f523b1561070d57816004918b5192838092630d0e30db60e41b82525f5160206124215f395f51905f525af18015610703576106ea575b50506104f6565b816106f491610f56565b6106ff57885f6106e3565b8880fd5b8a513d84823e3d90fd5b5080fd5b895163095ea7b360e01b815273dc24316b9ae028f1497c275eb9192a3ea0f670226004820152602481018290526020816044818673ae7ab96520de3a18e5e111b5eaab095312d7fe845af18015610803576107e6575b5073dc24316b9ae028f1497c275eb9192a3ea0f670223b1561070d57895190630f7c084960e21b82526001600483015282602483015260448201526001606482015281816084818373dc24316b9ae028f1497c275eb9192a3ea0f670225af1801561070357156104ee57816107db91610f56565b6106ff57885f6104ee565b6107fe9060203d602011610614576106058183610f56565b610767565b8b513d85823e3d90fd5b9150506020813d60201161083e575b8161082960209383610f56565b8101031261083a578990515f6104e7565b5f80fd5b3d915061081c565b8181039081116108c457885190636f074d1f60e11b825260048201526020816024818d737f39c581f595b53c5cb19bd0b3f8da6c935e2ca05af180156108ba57156104a7576108ac9060203d6020116108b3575b6108a48183610f56565b810190610fdc565b505f6104a7565b503d61089a565b89513d8c823e3d90fd5b634e487b7160e01b8a52601160045260248afd5b90506020813d602011610902575b816108f360209383610f56565b8101031261083a57515f610485565b3d91506108e6565b875190630d2680e960e11b82526004820152886024820152683635c9adc5dea0000060448201526020816064818c73dc24316b9ae028f1497c275eb9192a3ea0f670225af180156106805715610447576109729060203d6020116108b3576108a48183610f56565b505f610447565b90506020813d6020116109a3575b8161099460209383610f56565b8101031261083a57515f610440565b3d9150610987565b816109b591610f56565b6109c057875f610401565b8780fd5b89513d84823e3d90fd5b6109e69060203d602011610614576106058183610f56565b6103d7565b8a513d85823e3d90fd5b9250506020823d602011610a25575b81610a1160209383610f56565b8101031261083a579051899190602061038a565b3d9150610a04565b610a459060203d602011610614576106058183610f56565b61034c565b9250506020823d602011610a7a575b81610a6660209383610f56565b8101031261083a57905189919060206102ff565b3d9150610a59565b610a9a9060203d602011610614576106058183610f56565b6102c1565b9250506020823d602011610acf575b81610abb60209383610f56565b8101031261083a579051899190602061027b565b3d9150610aae565b508751903d90823e3d90fd5b634e487b7160e01b8b52604160045260248bfd5b610b0f9060203d6020116108b3576108a48183610f56565b505f610201565b60208060019285518152019301910190916101b5565b81610b3691610f56565b610b4157865f610181565b8680fd5b6040513d84823e3d90fd5b60405162461bcd60e51b81526020600482015260086024820152676e6f742d6161766560c01b6044820152606490fd5b8580fd5b835b80fd5b5034610b865780600319360112610b865760209054604051908152f35b5034610b865780600319360112610b865760206040515f5160206124215f395f51905f528152f35b90503461083a575f36600319011261083a576001549060ff8216610eef575060019060ff191617600155604051610c06606082610f56565b6002815260208101604080368337737f39c581f595b53c5cb19bd0b3f8da6c935e2ca0610c3284610f78565b525f5160206124215f395f51905f52610c4a84610f99565b5260405190610c5a606083610f56565b6002825280366020840137690a968163f0a57b400000610c7983610f78565b52690cb49b44ba602d800000610c8e83610f99565b5260405190610c9e606083610f56565b600282523660208301375f610cb282610f78565b525f610cbd82610f99565b5260405192602084019284841067ffffffffffffffff851117610edb57836040525f85527387870bca3f3fd6335c3f4ce8392d69350b4fa4e23b1561083a5760405163ab9c4b5d60e01b815230600482015260e06024820152955160e4870181905286949392610104860192915f5b818110610eb95750505092610d688593610d565f9894602097600319888303016044890152610fa9565b85810360031901606487015290610fa9565b913060848501526003198484030160a48501525180918184528584015e858482840101528560c4840152601f801991011601030181837387870bca3f3fd6335c3f4ce8392d69350b4fa4e25af18015610eae57610e9b575b5047610e36575b6040516370a0823160e01b81523060048201526020816024815f5160206124215f395f51905f525afa908115610b45578291610e04575b50815580f35b90506020813d602011610e2e575b81610e1f60209383610f56565b8101031261083a57515f610dfe565b3d9150610e12565b80475f5160206124215f395f51905f523b15610e98578160049160405192838092630d0e30db60e41b82525f5160206124215f395f51905f525af18015610b4557610e83575b5050610dc7565b81610e8d91610f56565b610b8657805f610e7c565b50fd5b610ea791505f90610f56565b5f5f610dc0565b6040513d5f823e3d90fd5b82516001600160a01b0316855289975060209485019490920191600101610d2c565b634e487b7160e01b5f52604160045260245ffd5b62461bcd60e51b8152602060048201526011602482015270185b1c9958591e4b585d1d195b5c1d1959607a1b6044820152606490fd5b9181601f8401121561083a5782359167ffffffffffffffff831161083a576020808501948460051b01011161083a57565b90601f8019910116810190811067ffffffffffffffff821117610edb57604052565b805115610f855760200190565b634e487b7160e01b5f52603260045260245ffd5b805160011015610f855760400190565b90602080835192838152019201905f5b818110610fc65750505090565b8251845260209384019390920191600101610fb9565b9081602091031261083a575190565b9081602091031261083a5751801515810361083a5790565b9190820180921161101057565b634e487b7160e01b5f52601160045260245ffd5b356001600160a01b038116810361083a579056fe60a034606657601f6113e838819003918201601f19168301916001600160401b03831184841017606a57808492602094604052833981010312606657516001600160a01b0381168103606657608052604051611369908161007f82396080518161017c0152f35b5f80fd5b634e487b7160e01b5f52604160045260245ffdfe6080806040526004361015610153575b50361561001a575f80fd5b5f545f19811461013f576001809101805f551461003357005b60405163b3596f0760e01b81527310aa9eea35a3102cc47d4d93bc0ba9ae45557746600482015260208160248173e5d78eb340627b8d5bcff63590ebec1ef9118c895afa801561010157610110575b50739f72dc67cec672bb99e3d02cbea0a21536a2b6573b1561010c57604051635a3b74b960e01b815273901247d08bebfd449526da92941b35d756873bcd60048201525f602482018190528160448183739f72dc67cec672bb99e3d02cbea0a21536a2b6575af18015610101576100f557005b5f6100ff91610e4a565b005b6040513d5f823e3d90fd5b5f80fd5b6020813d602011610137575b8161012960209383610e4a565b8101031261010c5751610082565b3d915061011c565b634e487b7160e01b5f52601160045260245ffd5b5f905f3560e01c639846cd9e1461016a575061000f565b3461010c575f36600319011261010c577f0000000000000000000000000000000000000000000000000000000000000000906001600160a01b0382163303610dec575060405163038fff2d60e41b81526020816004817332296969ef14eb0c6d29669c550d4a04491302305afa908115610101575f91610dba575b506060906040516101f68382610e4a565b60028152601f198301926020820184368237690a968163f0a57b40000061021c84610e84565b52690c11f9e7b10e91a0000061023184610ea5565b52604051946102408387610e4a565b6002865236602087013760405190608082016001602084015283604084015284518091528260a0810183925f5b818110610da157505061028e92505f8683015203601f198101845283610e4a565b737f39c581f595b53c5cb19bd0b3f8da6c935e2ca06102cd604051976102b389610e1a565b8089528660208a0152604089019485525f868a0152610e84565b5273c02aaa39b223fe8d0a0e5c4f27ead9083c756cc26102ed8751610ea5565b52604051639ebbf05d60e01b81525f818061030e8a30808c60048601611005565b03818373e39b5e3b6d74016b2f6a9673d7d7493b6df549d55af1908115610101575f91610d7e575b50604093919351938491608083019360016020850152806040850152875180955260a0840192945f5b818110610d6557505061037e945083015203601f198101845283610e4a565b5261038881610e84565b5160405163095ea7b360e01b815273ba12222222228d8ba445958a75a0704d566bf2c860048201526024810191909152906020826044815f737f39c581f595b53c5cb19bd0b3f8da6c935e2ca05af1918215610101576103ed92610d48575b50610ea5565b5160405163095ea7b360e01b815273ba12222222228d8ba445958a75a0704d566bf2c8600482015260248101919091526020816044815f73c02aaa39b223fe8d0a0e5c4f27ead9083c756cc25af1801561010157610d2b575b5073ba12222222228d8ba445958a75a0704d566bf2c83b1561010c5760405163172b958560e31b8152915f918391829161048891903090819060048601611005565b03818373ba12222222228d8ba445958a75a0704d566bf2c85af1801561010157610d16575b5060405163095ea7b360e01b815273a36be47700c079bd94adc09f35b0fa93a55297bc6004820152683635c9adc5dea000006024820152602081604481867306325440d014e39736583c165c2963ba99faf14e5af18015610a6657610cf9575b5073a36be47700c079bd94adc09f35b0fa93a55297bc3b15610c1d5760405163259f2d0160e01b81527306325440d014e39736583c165c2963ba99faf14e6004820152683635c9adc5dea000006024820152306044820152829081816064818373a36be47700c079bd94adc09f35b0fa93a55297bc5af18015610a2757610ce4575b505060405163095ea7b360e01b8152736ae5fd07c0bb2264b1f60b33f65920a2b912151c6004820152680ca65d6137250f3c136024820152602081604481867332296969ef14eb0c6d29669c550d4a04491302305af18015610a6657610cc7575b50736ae5fd07c0bb2264b1f60b33f65920a2b912151c3b15610c1d5760405163259f2d0160e01b81527332296969ef14eb0c6d29669c550d4a04491302306004820152680ca65d6137250f3c1360248201523060448201528290818160648183736ae5fd07c0bb2264b1f60b33f65920a2b912151c5af18015610a2757610cb2575b5050739f72dc67cec672bb99e3d02cbea0a21536a2b6573b15610c1d578160405163a415bcad60e01b815273c02aaa39b223fe8d0a0e5c4f27ead9083c756cc26004820152681bd4670912eb21842a602482015260026044820152816064820152306084820152818160a48183739f72dc67cec672bb99e3d02cbea0a21536a2b6575af18015610a2757610c9d575b505061070b611037565b73a36be47700c079bd94adc09f35b0fa93a55297bc3b15610c1d5760405163a5fdfc6360e01b81527306325440d014e39736583c165c2963ba99faf14e6004820152683635c9adc5dea000006024820152600a6044820152306064820152829081816084818373a36be47700c079bd94adc09f35b0fa93a55297bc5af18015610a2757610c88575b50604051632fe4a15f60e21b815230600482015260c081602481739f72dc67cec672bb99e3d02cbea0a21536a2b6575afa908115610a27578291610c53575b5060405163095ea7b360e01b8152739f72dc67cec672bb99e3d02cbea0a21536a2b6576004820152602481018290526020816044818673c02aaa39b223fe8d0a0e5c4f27ead9083c756cc25af18015610a6657610c36575b50739f72dc67cec672bb99e3d02cbea0a21536a2b6573b15610c1d576040519062a718a960e01b82527332296969ef14eb0c6d29669c550d4a0449130230600483015273c02aaa39b223fe8d0a0e5c4f27ead9083c756cc260248301523060448301526064820152816084820152818160a48183739f72dc67cec672bb99e3d02cbea0a21536a2b6575af18015610a2757610c21575b50506108ca611037565b47610bad575b6040516370a0823160e01b815230600482015260208160248173c02aaa39b223fe8d0a0e5c4f27ead9083c756cc25afa908115610a66578391610b7b575b5080610b0f575b506040516370a0823160e01b8152306004820152602081602481737f39c581f595b53c5cb19bd0b3f8da6c935e2ca05afa908115610a66578391610add575b5080610a71575b506040516370a0823160e01b8152306004820152906020826024817306325440d014e39736583c165c2963ba99faf14e5afa918215610a66578392610a32575b50816109a5578280f35b60405163a9059cbb60e01b81526001600160a01b039190911660048201526024810191909152602081604481857306325440d014e39736583c165c2963ba99faf14e5af18015610a27576109f857808280f35b610a199060203d602011610a20575b610a118183610e4a565b810190610e6c565b505f808280f35b503d610a07565b6040513d84823e3d90fd5b9091506020813d602011610a5e575b81610a4e60209383610e4a565b8101031261010c5751905f61099b565b3d9150610a41565b6040513d85823e3d90fd5b60405163a9059cbb60e01b81526001600160a01b0383166004820152602481019190915260208160448186737f39c581f595b53c5cb19bd0b3f8da6c935e2ca05af18015610a66571561095b57610ad69060203d602011610a2057610a118183610e4a565b505f61095b565b90506020813d602011610b07575b81610af860209383610e4a565b8101031261010c57515f610954565b3d9150610aeb565b60405163a9059cbb60e01b81526001600160a01b038316600482015260248101919091526020816044818673c02aaa39b223fe8d0a0e5c4f27ead9083c756cc25af18015610a66571561091557610b749060203d602011610a2057610a118183610e4a565b505f610915565b90506020813d602011610ba5575b81610b9660209383610e4a565b8101031261010c57515f61090e565b3d9150610b89565b814773c02aaa39b223fe8d0a0e5c4f27ead9083c756cc23b15610c1d578160049160405192838092630d0e30db60e41b825273c02aaa39b223fe8d0a0e5c4f27ead9083c756cc25af18015610a2757610c08575b50506108d0565b81610c1291610e4a565b610c1d57815f610c01565b5080fd5b81610c2b91610e4a565b610c1d57815f6108c0565b610c4e9060203d602011610a2057610a118183610e4a565b61082a565b905060c0813d60c011610c80575b81610c6e60c09383610e4a565b81010312610c1d57602001515f6107d2565b3d9150610c61565b81610c9291610e4a565b610c1d57815f610793565b81610ca791610e4a565b610c1d57815f610701565b81610cbc91610e4a565b610c1d57815f610672565b610cdf9060203d602011610a2057610a118183610e4a565b6105f0565b81610cee91610e4a565b610c1d57815f61058f565b610d119060203d602011610a2057610a118183610e4a565b61050d565b610d239192505f90610e4a565b5f905f6104ad565b610d439060203d602011610a2057610a118183610e4a565b610446565b610d609060203d602011610a2057610a118183610e4a565b6103e7565b865185526020968701968996509094019360010161035f565b610d9a91503d805f833e610d928183610e4a565b810190610eb5565b505f610336565b845183526020948501948794509092019160010161026d565b90506020813d602011610de4575b81610dd560209383610e4a565b8101031261010c57515f6101e5565b3d9150610dc8565b62461bcd60e51b81526020600482015260096024820152683737ba16b7bbb732b960b91b6044820152606490fd5b6080810190811067ffffffffffffffff821117610e3657604052565b634e487b7160e01b5f52604160045260245ffd5b90601f8019910116810190811067ffffffffffffffff821117610e3657604052565b9081602091031261010c5751801515810361010c5790565b805115610e915760200190565b634e487b7160e01b5f52603260045260245ffd5b805160011015610e915760400190565b919060408382031261010c5782519260208101519067ffffffffffffffff821161010c57019080601f8301121561010c5781519167ffffffffffffffff8311610e36578260051b906020820193610f0f6040519586610e4a565b845260208085019282010192831161010c57602001905b828210610f335750505090565b8151815260209182019101610f26565b9190916080830190805191608085528251809152602060a086019301905f5b818110610fe6575050506020810151918481036020860152602080845192838152019301905f5b818110610fd057505050602092936060808360408795015184870360408601528051958691828952018888015e5f86860188015201511515910152601f01601f1916010190565b8251855260209485019490920191600101610f89565b82516001600160a01b0316855260209485019490920191600101610f62565b9081526001600160a01b0391821660208201529116604082015260806060820181905261103492910190610f43565b90565b60405163038fff2d60e41b81526020816004817332296969ef14eb0c6d29669c550d4a04491302305afa908115610101575f91611301575b506040516370a0823160e01b8152306004820152906020826024817332296969ef14eb0c6d29669c550d4a04491302305afa918215610101575f926112cd575b505f60606040516110bf81610e1a565b8181528160208201528160408201520152606091737f39c581f595b53c5cb19bd0b3f8da6c935e2ca0611163604051946110f98187610e4a565b600286525f601f19820191823660208a0137604051926111198285610e4a565b6002845236602085013760405160016020820152866040820152604081526111418282610e4a565b6040519861114e8a610e1a565b848a5260208a01526040890152870152610e84565b525f61116f8451610ea5565b526040516331ecb14b60e21b81525f81806111908730808960048601611005565b03818373e39b5e3b6d74016b2f6a9673d7d7493b6df549d55af18015610101576112b4575b5060405163095ea7b360e01b815273ba12222222228d8ba445958a75a0704d566bf2c8600482015260248101919091526020816044815f7332296969ef14eb0c6d29669c550d4a04491302305af1801561010157611297575b5073ba12222222228d8ba445958a75a0704d566bf2c83b1561010c57611264915f916040519384928392638bdb391360e01b84526004840152306024840152306044840152608060648401526084830190610f43565b03818373ba12222222228d8ba445958a75a0704d566bf2c85af180156101015761128b5750565b5f61129591610e4a565b565b6112af9060203d602011610a2057610a118183610e4a565b61120e565b6112c7903d805f833e610d928183610e4a565b506111b5565b9091506020813d6020116112f9575b816112e960209383610e4a565b8101031261010c5751905f6110af565b3d91506112dc565b90506020813d60201161132b575b8161131c60209383610e4a565b8101031261010c57515f61106f565b3d915061130f56fea2646970667358221220c5b78dda44004f013fa44fbe0726fa3f4f7d587f7234a510987b4472690c5ee964736f6c634300081e0033000000000000000000000000c02aaa39b223fe8d0a0e5c4f27ead9083c756cc2a2646970667358221220e399dc74268829b07e5b2eed4b7ae9f8bb85fdc76a6ccf76c3dc75afbf3fc16864736f6c634300081e0033","linkReferences":{}},"methodIdentifiers":{"executeOnOpportunity()":"3c2448ed","executeOperation(address[],uint256[],uint256[],address,bytes)":"920f5c84","profitAmount()":"5ff972cc","profitToken()":"49343624"},"id":0}