{"abi":[{"type":"constructor","inputs":[],"stateMutability":"nonpayable"},{"type":"receive","stateMutability":"payable"},{"type":"function","name":"DAI","inputs":[],"outputs":[{"name":"","type":"address","internalType":"address"}],"stateMutability":"view"},{"type":"function","name":"FRAX","inputs":[],"outputs":[{"name":"","type":"address","internalType":"address"}],"stateMutability":"view"},{"type":"function","name":"QTN","inputs":[],"outputs":[{"name":"","type":"address","internalType":"address"}],"stateMutability":"view"},{"type":"function","name":"SHIBASWAP_FACTORY","inputs":[],"outputs":[{"name":"","type":"address","internalType":"address"}],"stateMutability":"view"},{"type":"function","name":"SUSHISWAP_FACTORY","inputs":[],"outputs":[{"name":"","type":"address","internalType":"address"}],"stateMutability":"view"},{"type":"function","name":"UNISWAP_V2_FACTORY","inputs":[],"outputs":[{"name":"","type":"address","internalType":"address"}],"stateMutability":"view"},{"type":"function","name":"UNIV2_USDC_WETH_PAIR","inputs":[],"outputs":[{"name":"","type":"address","internalType":"address"}],"stateMutability":"view"},{"type":"function","name":"USDC","inputs":[],"outputs":[{"name":"","type":"address","internalType":"address"}],"stateMutability":"view"},{"type":"function","name":"USDT","inputs":[],"outputs":[{"name":"","type":"address","internalType":"address"}],"stateMutability":"view"},{"type":"function","name":"WBTC","inputs":[],"outputs":[{"name":"","type":"address","internalType":"address"}],"stateMutability":"view"},{"type":"function","name":"WETH","inputs":[],"outputs":[{"name":"","type":"address","internalType":"address"}],"stateMutability":"view"},{"type":"function","name":"executeOnOpportunity","inputs":[],"outputs":[],"stateMutability":"nonpayable"},{"type":"function","name":"hiddenPairDelta","inputs":[],"outputs":[{"name":"","type":"uint256","internalType":"uint256"}],"stateMutability":"view"},{"type":"function","name":"profitAmount","inputs":[],"outputs":[{"name":"","type":"uint256","internalType":"uint256"}],"stateMutability":"view"},{"type":"function","name":"profitToken","inputs":[],"outputs":[{"name":"","type":"address","internalType":"address"}],"stateMutability":"pure"},{"type":"function","name":"uniswapV2Call","inputs":[{"name":"","type":"address","internalType":"address"},{"name":"amount0","type":"uint256","internalType":"uint256"},{"name":"amount1","type":"uint256","internalType":"uint256"},{"name":"","type":"bytes","internalType":"bytes"}],"outputs":[],"stateMutability":"nonpayable"}],"bytecode":{"object":"0x6080604052348015600e575f5ffd5b5061400d8061001c5f395ff3fe6080604052600436106100f6575f3560e01c806389a3027111610089578063c54e44eb11610058578063c54e44eb146102e3578063e0bab4c41461030d578063e74fb20414610337578063fb62068914610361576100fd565b806389a302711461023b57806399d8fae314610265578063ad5c46481461028f578063b0e4556f146102b9576100fd565b806349343624116100c55780634934362414610193578063495c0f9b146101bd5780634dede3de146101e75780635ff972cc14610211576100fd565b8063080b217a1461010157806310d1e85c1461012b5780631d8e1344146101535780633c2448ed1461017d576100fd565b366100fd57005b5f5ffd5b34801561010c575f5ffd5b5061011561038b565b6040516101229190613801565b60405180910390f35b348015610136575f5ffd5b50610151600480360381019061014c9190613907565b61041f565b005b34801561015e575f5ffd5b50610167610879565b604051610174919061399a565b60405180910390f35b348015610188575f5ffd5b50610191610891565b005b34801561019e575f5ffd5b506101a7610e3f565b6040516101b4919061399a565b60405180910390f35b3480156101c8575f5ffd5b506101d1610e5a565b6040516101de919061399a565b60405180910390f35b3480156101f2575f5ffd5b506101fb610e72565b604051610208919061399a565b60405180910390f35b34801561021c575f5ffd5b50610225610e8a565b6040516102329190613801565b60405180910390f35b348015610246575f5ffd5b5061024f610e92565b60405161025c919061399a565b60405180910390f35b348015610270575f5ffd5b50610279610eaa565b604051610286919061399a565b60405180910390f35b34801561029a575f5ffd5b506102a3610ec2565b6040516102b0919061399a565b60405180910390f35b3480156102c4575f5ffd5b506102cd610eda565b6040516102da919061399a565b60405180910390f35b3480156102ee575f5ffd5b506102f7610ef2565b604051610304919061399a565b60405180910390f35b348015610318575f5ffd5b50610321610f0a565b60405161032e919061399a565b60405180910390f35b348015610342575f5ffd5b5061034b610f22565b604051610358919061399a565b60405180910390f35b34801561036c575f5ffd5b50610375610f3a565b604051610382919061399a565b60405180910390f35b5f5f73c9fa8f4cfd11559b50c5c7f6672b9eea2757e1bd73ffffffffffffffffffffffffffffffffffffffff166349bd5a5e6040518163ffffffff1660e01b8152600401602060405180830381865afa1580156103ea573d5f5f3e3d5ffd5b505050506040513d601f19601f8201168201806040525081019061040e91906139c7565b905061041981610f52565b91505090565b60085f9054906101000a900460ff1661046d576040517f08c379a000000000000000000000000000000000000000000000000000000000815260040161046490613a4c565b60405180910390fd5b73b4e16d0168e52d35cacd2c6185b44281ec28c9dc73ffffffffffffffffffffffffffffffffffffffff163373ffffffffffffffffffffffffffffffffffffffff16146104ef576040517f08c379a00000000000000000000000000000000000000000000000000000000081526004016104e690613ab4565b60405180910390fd5b5f5f85116104fd57836104ff565b845b90505f61050b82611136565b90506106fe6001604051806101200160405290815f82015f9054906101000a900460ff161515151581526020015f820160019054906101000a900460ff161515151581526020015f820160029054906101000a900473ffffffffffffffffffffffffffffffffffffffff1673ffffffffffffffffffffffffffffffffffffffff1673ffffffffffffffffffffffffffffffffffffffff168152602001600182015f9054906101000a900473ffffffffffffffffffffffffffffffffffffffff1673ffffffffffffffffffffffffffffffffffffffff1673ffffffffffffffffffffffffffffffffffffffff168152602001600282015f9054906101000a900473ffffffffffffffffffffffffffffffffffffffff1673ffffffffffffffffffffffffffffffffffffffff1673ffffffffffffffffffffffffffffffffffffffff16815260200160038201548152602001600482015481526020016005820154815260200160068201548152505073c9fa8f4cfd11559b50c5c7f6672b9eea2757e1bd73ffffffffffffffffffffffffffffffffffffffff166349bd5a5e6040518163ffffffff1660e01b8152600401602060405180830381865afa1580156106d5573d5f5f3e3d5ffd5b505050506040513d601f19601f820116820180604052508101906106f991906139c7565b611165565b8073c02aaa39b223fe8d0a0e5c4f27ead9083c756cc273ffffffffffffffffffffffffffffffffffffffff166370a08231306040518263ffffffff1660e01b815260040161074c919061399a565b602060405180830381865afa158015610767573d5f5f3e3d5ffd5b505050506040513d601f19601f8201168201806040525081019061078b9190613ae6565b10156107cc576040517f08c379a00000000000000000000000000000000000000000000000000000000081526004016107c390613b5b565b60405180910390fd5b73c02aaa39b223fe8d0a0e5c4f27ead9083c756cc273ffffffffffffffffffffffffffffffffffffffff1663a9059cbb73b4e16d0168e52d35cacd2c6185b44281ec28c9dc836040518363ffffffff1660e01b815260040161082f929190613b79565b6020604051808303815f875af115801561084b573d5f5f3e3d5ffd5b505050506040513d601f19601f8201168201806040525081019061086f9190613bd5565b5050505050505050565b73c9fa8f4cfd11559b50c5c7f6672b9eea2757e1bd81565b73c9fa8f4cfd11559b50c5c7f6672b9eea2757e1bd73ffffffffffffffffffffffffffffffffffffffff1663fd2dbb0e6040518163ffffffff1660e01b81526004015f604051808303815f87803b1580156108ea575f5ffd5b505af11580156108fc573d5f5f3e3d5ffd5b505050505f47111561097a5773c02aaa39b223fe8d0a0e5c4f27ead9083c756cc273ffffffffffffffffffffffffffffffffffffffff1663d0e30db0476040518263ffffffff1660e01b81526004015f604051808303818588803b158015610962575f5ffd5b505af1158015610974573d5f5f3e3d5ffd5b50505050505b5f73c02aaa39b223fe8d0a0e5c4f27ead9083c756cc273ffffffffffffffffffffffffffffffffffffffff166370a08231306040518263ffffffff1660e01b81526004016109c8919061399a565b602060405180830381865afa1580156109e3573d5f5f3e3d5ffd5b505050506040513d601f19601f82011682018060405250810190610a079190613ae6565b90505f73c9fa8f4cfd11559b50c5c7f6672b9eea2757e1bd73ffffffffffffffffffffffffffffffffffffffff166349bd5a5e6040518163ffffffff1660e01b8152600401602060405180830381865afa158015610a67573d5f5f3e3d5ffd5b505050506040513d601f19601f82011682018060405250810190610a8b91906139c7565b90505f73ffffffffffffffffffffffffffffffffffffffff168173ffffffffffffffffffffffffffffffffffffffff1603610ad057610ac9826112dc565b5050610e3d565b5f610adb835f61138e565b9050806020015115610b0257610af18183611165565b610afa836112dc565b505050610e3d565b5f610b0b6114f7565b90508060200151610b2857610b1f846112dc565b50505050610e3d565b8060015f820151815f015f6101000a81548160ff0219169083151502179055506020820151815f0160016101000a81548160ff0219169083151502179055506040820151815f0160026101000a81548173ffffffffffffffffffffffffffffffffffffffff021916908373ffffffffffffffffffffffffffffffffffffffff1602179055506060820151816001015f6101000a81548173ffffffffffffffffffffffffffffffffffffffff021916908373ffffffffffffffffffffffffffffffffffffffff1602179055506080820151816002015f6101000a81548173ffffffffffffffffffffffffffffffffffffffff021916908373ffffffffffffffffffffffffffffffffffffffff16021790555060a0820151816003015560c0820151816004015560e082015181600501556101008201518160060155905050600160085f6101000a81548160ff0219169083151502179055505f5f610cb873b4e16d0168e52d35cacd2c6185b44281ec28c9dc73c02aaa39b223fe8d0a0e5c4f27ead9083c756cc28560a001516116db565b9150915073b4e16d0168e52d35cacd2c6185b44281ec28c9dc73ffffffffffffffffffffffffffffffffffffffff1663022c0d9f8383306001604051602001610d019190613801565b6040516020818303038152906040526040518563ffffffff1660e01b8152600401610d2f9493929190613c70565b5f604051808303815f87803b158015610d46575f5ffd5b505af1158015610d58573d5f5f3e3d5ffd5b505050505f60085f6101000a81548160ff02191690831515021790555060015f5f82015f6101000a81549060ff02191690555f820160016101000a81549060ff02191690555f820160026101000a81549073ffffffffffffffffffffffffffffffffffffffff0219169055600182015f6101000a81549073ffffffffffffffffffffffffffffffffffffffff0219169055600282015f6101000a81549073ffffffffffffffffffffffffffffffffffffffff0219169055600382015f9055600482015f9055600582015f9055600682015f90555050610e36866112dc565b5050505050505b565b5f73c02aaa39b223fe8d0a0e5c4f27ead9083c756cc2905090565b73c0aee478e3658e2610c5f7a4a2e1777ce9e4f2ac81565b732260fac5e5542a773aa44fbcfedf7c193bc2c59981565b5f5f54905090565b73a0b86991c6218b36c1d19d4a2e9eb0ce3606eb4881565b735c69bee701ef814a2b6a3edd4b1652cb9cc5aa6f81565b73c02aaa39b223fe8d0a0e5c4f27ead9083c756cc281565b73853d955acef822db058eb8505911ed77f175b99e81565b73dac17f958d2ee523a2206206994597c13d831ec781565b736b175474e89094c44da98b954eedeac495271d0f81565b73b4e16d0168e52d35cacd2c6185b44281ec28c9dc81565b73115934131916c8b277dd010ee02de363c09d037c81565b5f5f73c9fa8f4cfd11559b50c5c7f6672b9eea2757e1bd73ffffffffffffffffffffffffffffffffffffffff166370a08231846040518263ffffffff1660e01b8152600401610fa1919061399a565b602060405180830381865afa158015610fbc573d5f5f3e3d5ffd5b505050506040513d601f19601f82011682018060405250810190610fe09190613ae6565b90505f73c9fa8f4cfd11559b50c5c7f6672b9eea2757e1bd73ffffffffffffffffffffffffffffffffffffffff1663c4996f516040518163ffffffff1660e01b8152600401602060405180830381865afa158015611040573d5f5f3e3d5ffd5b505050506040513d601f19601f820116820180604052508101906110649190613ae6565b90505f8103611077575f92505050611131565b5f8173c9fa8f4cfd11559b50c5c7f6672b9eea2757e1bd73ffffffffffffffffffffffffffffffffffffffff166336fed975876040518263ffffffff1660e01b81526004016110c6919061399a565b602060405180830381865afa1580156110e1573d5f5f3e3d5ffd5b505050506040513d601f19601f820116820180604052508101906111059190613ae6565b61110f9190613d14565b905082811161111e575f61112b565b828161112a9190613d44565b5b93505050505b919050565b5f60016103e56103e88461114a9190613d77565b6111549190613d14565b61115e9190613db8565b9050919050565b5f8260c0015111156111805761117f818360c00151611790565b5b5f61118a82610f52565b03156112d8575f73c9fa8f4cfd11559b50c5c7f6672b9eea2757e1bd73ffffffffffffffffffffffffffffffffffffffff166370a08231306040518263ffffffff1660e01b81526004016111de919061399a565b602060405180830381865afa1580156111f9573d5f5f3e3d5ffd5b505050506040513d601f19601f8201168201806040525081019061121d9190613ae6565b90506112288361198f565b5f8173c9fa8f4cfd11559b50c5c7f6672b9eea2757e1bd73ffffffffffffffffffffffffffffffffffffffff166370a08231306040518263ffffffff1660e01b8152600401611277919061399a565b602060405180830381865afa158015611292573d5f5f3e3d5ffd5b505050506040513d601f19601f820116820180604052508101906112b69190613ae6565b6112c09190613d44565b90505f8111156112d5576112d48382611b70565b5b50505b5050565b5f73c02aaa39b223fe8d0a0e5c4f27ead9083c756cc273ffffffffffffffffffffffffffffffffffffffff166370a08231306040518263ffffffff1660e01b815260040161132a919061399a565b602060405180830381865afa158015611345573d5f5f3e3d5ffd5b505050506040513d601f19601f820116820180604052508101906113699190613ae6565b9050818111611378575f611385565b81816113849190613d44565b5b5f819055505050565b61139661367a565b5f8303156114f1575f73c9fa8f4cfd11559b50c5c7f6672b9eea2757e1bd73ffffffffffffffffffffffffffffffffffffffff166349bd5a5e6040518163ffffffff1660e01b8152600401602060405180830381865afa1580156113fc573d5f5f3e3d5ffd5b505050506040513d601f19601f8201168201806040525081019061142091906139c7565b90505f73ffffffffffffffffffffffffffffffffffffffff168173ffffffffffffffffffffffffffffffffffffffff160361145b57506114f1565b5f61146582611cf5565b90505f5f90505b60128110156114ed5781816012811061148857611487613deb565b5b60200201515f0151156114e0575f6114b98787868686601281106114af576114ae613deb565b5b602002015161205c565b9050806020015180156114d55750846101000151816101000151115b156114de578094505b505b808060010191505061146c565b5050505b92915050565b6114ff61367a565b5f73c9fa8f4cfd11559b50c5c7f6672b9eea2757e1bd73ffffffffffffffffffffffffffffffffffffffff166349bd5a5e6040518163ffffffff1660e01b8152600401602060405180830381865afa15801561155d573d5f5f3e3d5ffd5b505050506040513d601f19601f8201168201806040525081019061158191906139c7565b90505f73ffffffffffffffffffffffffffffffffffffffff168173ffffffffffffffffffffffffffffffffffffffff16036115bc57506116d8565b5f6115c6826122ec565b9150505f81036115d75750506116d8565b5f6040518060c001604052806032846115f09190613d14565b81526020016019846116029190613d14565b8152602001600c846116149190613d14565b81526020016008846116269190613d14565b81526020016006846116389190613d14565b815260200160048461164a9190613d14565b81525090505f5f90505b60068110156116d3575f82826006811061167157611670613deb565b5b602002015103156116c6575f61169f83836006811061169357611692613deb565b5b6020020151600161138e565b9050806020015180156116bb5750856101000151816101000151115b156116c4578095505b505b8080600101915050611654565b505050505b90565b5f5f8373ffffffffffffffffffffffffffffffffffffffff168573ffffffffffffffffffffffffffffffffffffffff16630dfe16816040518163ffffffff1660e01b8152600401602060405180830381865afa15801561173d573d5f5f3e3d5ffd5b505050506040513d601f19601f8201168201806040525081019061176191906139c7565b73ffffffffffffffffffffffffffffffffffffffff160361178457829150611788565b8290505b935093915050565b5f8190505f5b5f821180156117a55750600c81105b156119895780806117b590613e18565b9150505f5f6117c3866122ec565b915091505f8214806117d457505f81145b156117e0575050611989565b5f6117e961232a565b90505f60646063836117fb9190613d77565b6118059190613d14565b90505f6005856118159190613d14565b905080821115611823578091505b5f8203611834575050505050611989565b5f611840838688612448565b905087811115611896576118558886886124f4565b925083831115611863578392505b5f830361187557505050505050611989565b611880838688612448565b90508781111561189557505050505050611989565b5b5f6040516118a390613703565b604051809103905ff0801580156118bc573d5f5f3e3d5ffd5b50905073c02aaa39b223fe8d0a0e5c4f27ead9083c756cc273ffffffffffffffffffffffffffffffffffffffff1663a9059cbb8c846040518363ffffffff1660e01b815260040161190e929190613b79565b6020604051808303815f875af115801561192a573d5f5f3e3d5ffd5b505050506040513d601f19601f8201168201806040525081019061194e9190613bd5565b5061196f8b73c9fa8f4cfd11559b50c5c7f6672b9eea2757e1bd8684612564565b818961197b9190613d44565b985050505050505050611796565b50505050565b5f8160e001510315611b6d5773c02aaa39b223fe8d0a0e5c4f27ead9083c756cc273ffffffffffffffffffffffffffffffffffffffff16816060015173ffffffffffffffffffffffffffffffffffffffff1603611a1257611a0d816040015173c02aaa39b223fe8d0a0e5c4f27ead9083c756cc28360e00151612635565b611b6d565b5f816060015173ffffffffffffffffffffffffffffffffffffffff166370a08231306040518263ffffffff1660e01b8152600401611a50919061399a565b602060405180830381865afa158015611a6b573d5f5f3e3d5ffd5b505050506040513d601f19601f82011682018060405250810190611a8f9190613ae6565b9050611abe826080015173c02aaa39b223fe8d0a0e5c4f27ead9083c756cc284606001518560e001513061280d565b505f81836060015173ffffffffffffffffffffffffffffffffffffffff166370a08231306040518263ffffffff1660e01b8152600401611afe919061399a565b602060405180830381865afa158015611b19573d5f5f3e3d5ffd5b505050506040513d601f19601f82011682018060405250810190611b3d9190613ae6565b611b479190613d44565b90505f8103611b57575050611b6d565b611b6a8360400151846060015183612635565b50505b50565b5f8190505f5b5f82118015611b855750600c81105b15611cef578080611b9590613e18565b9150505f5f611ba3866122ec565b915091505f821480611bb457505f81145b15611bc0575050611cef565b5f611bc961232a565b90505f818611611bd95785611bdb565b815b90506064606382611bec9190613d77565b611bf69190613d14565b90505f8103611c085750505050611cef565b5f611c148286866124f4565b90505f8103611c27575050505050611cef565b73c9fa8f4cfd11559b50c5c7f6672b9eea2757e1bd73ffffffffffffffffffffffffffffffffffffffff1663a9059cbb8a846040518363ffffffff1660e01b8152600401611c76929190613b79565b6020604051808303815f875af1158015611c92573d5f5f3e3d5ffd5b505050506040513d601f19601f82011682018060405250810190611cb69190613bd5565b50611cd78973c02aaa39b223fe8d0a0e5c4f27ead9083c756cc28330612564565b8187611ce39190613d44565b96505050505050611b76565b50505050565b611cfd61370f565b5f611d066128fc565b90505f611d11612a26565b90505f5f5f90505b6006811015612052575f838260068110611d3657611d35613deb565b5b602002015190505f5f90505b6003811015612043575f868260038110611d5f57611d5e613deb565b5b602002015173ffffffffffffffffffffffffffffffffffffffff1663e6a4390573c9fa8f4cfd11559b50c5c7f6672b9eea2757e1bd856040518363ffffffff1660e01b8152600401611db2929190613e5f565b602060405180830381865afa158015611dcd573d5f5f3e3d5ffd5b505050506040513d601f19601f82011682018060405250810190611df191906139c7565b90505f73ffffffffffffffffffffffffffffffffffffffff168173ffffffffffffffffffffffffffffffffffffffff161480611e5857508873ffffffffffffffffffffffffffffffffffffffff168173ffffffffffffffffffffffffffffffffffffffff16145b15611e635750612036565b5f5f611e848373c9fa8f4cfd11559b50c5c7f6672b9eea2757e1bd87612c70565b915091505f821480611e9557505f81145b15611ea257505050612036565b5f73c02aaa39b223fe8d0a0e5c4f27ead9083c756cc273ffffffffffffffffffffffffffffffffffffffff168673ffffffffffffffffffffffffffffffffffffffff1614611f8b57611f0873c02aaa39b223fe8d0a0e5c4f27ead9083c756cc287612f3a565b90505f73ffffffffffffffffffffffffffffffffffffffff168173ffffffffffffffffffffffffffffffffffffffff1603611f465750505050612036565b5f5f611f678373c02aaa39b223fe8d0a0e5c4f27ead9083c756cc28a612c70565b915091505f821480611f7857505f81145b15611f8857505050505050612036565b50505b60405180608001604052806001151581526020018573ffffffffffffffffffffffffffffffffffffffff1681526020018773ffffffffffffffffffffffffffffffffffffffff1681526020018273ffffffffffffffffffffffffffffffffffffffff168152508b896012811061200457612003613deb565b5b6020020181905250878061201790613e18565b985050601288036120315750505050505050505050612057565b505050505b8080600101915050611d42565b50508080600101915050611d19565b505050505b919050565b61206461367a565b5f73c9fa8f4cfd11559b50c5c7f6672b9eea2757e1bd73ffffffffffffffffffffffffffffffffffffffff1663bce87b336040518163ffffffff1660e01b8152600401602060405180830381865afa1580156120c2573d5f5f3e3d5ffd5b505050506040513d601f19601f820116820180604052508101906120e69190613ae6565b90505f81036120f557506122e4565b5f5f612100866122ec565b915091505f82148061211157505f81145b1561211e575050506122e4565b5f5f612147876020015173c9fa8f4cfd11559b50c5c7f6672b9eea2757e1bd8960400151612c70565b915091505f82148061215857505f81145b156121675750505050506122e4565b5f5f5f73c02aaa39b223fe8d0a0e5c4f27ead9083c756cc273ffffffffffffffffffffffffffffffffffffffff168a6040015173ffffffffffffffffffffffffffffffffffffffff1614905080612207576121df8a6060015173c02aaa39b223fe8d0a0e5c4f27ead9083c756cc28c60400151612c70565b80935081945050505f8314806121f457505f82145b156122065750505050505050506122e4565b5b5f60405180610120016040528089815260200188815260200187815260200186815260200185815260200184815260200173c9fa8f4cfd11559b50c5c7f6672b9eea2757e1bd73ffffffffffffffffffffffffffffffffffffffff166318160ddd6040518163ffffffff1660e01b8152600401602060405180830381865afa158015612295573d5f5f3e3d5ffd5b505050506040513d601f19601f820116820180604052508101906122b99190613ae6565b81526020018a815260200183151581525090506122d88e8e8d84613037565b99505050505050505050505b949350505050565b5f5f6123218373c9fa8f4cfd11559b50c5c7f6672b9eea2757e1bd73c02aaa39b223fe8d0a0e5c4f27ead9083c756cc2612c70565b91509150915091565b5f606473c9fa8f4cfd11559b50c5c7f6672b9eea2757e1bd73ffffffffffffffffffffffffffffffffffffffff1663bce87b336040518163ffffffff1660e01b8152600401602060405180830381865afa15801561238a573d5f5f3e3d5ffd5b505050506040513d601f19601f820116820180604052508101906123ae9190613ae6565b73c9fa8f4cfd11559b50c5c7f6672b9eea2757e1bd73ffffffffffffffffffffffffffffffffffffffff166318160ddd6040518163ffffffff1660e01b8152600401602060405180830381865afa15801561240b573d5f5f3e3d5ffd5b505050506040513d601f19601f8201168201806040525081019061242f9190613ae6565b6124399190613d77565b6124439190613d14565b905090565b5f5f84148061245657505f83145b8061246057505f82145b8061246b5750818410155b15612498577fffffffffffffffffffffffffffffffffffffffffffffffffffffffffffffffff90506124ed565b5f6103e885856124a89190613d77565b6124b29190613d77565b90505f6103e586856124c49190613d44565b6124ce9190613d77565b9050600181836124de9190613d14565b6124e89190613db8565b925050505b9392505050565b5f5f84148061250257505f83145b8061250c57505f82145b15612519575f905061255d565b5f6103e5856125289190613d77565b9050806103e8856125399190613d77565b6125439190613db8565b838261254f9190613d77565b6125599190613d14565b9150505b9392505050565b5f5f6125718686866116db565b915091508573ffffffffffffffffffffffffffffffffffffffff1663022c0d9f8383865f67ffffffffffffffff8111156125ae576125ad613e86565b5b6040519080825280601f01601f1916602001820160405280156125e05781602001600182028036833780820191505090505b506040518563ffffffff1660e01b81526004016126009493929190613c70565b5f604051808303815f87803b158015612617575f5ffd5b505af1158015612629573d5f5f3e3d5ffd5b50505050505050505050565b5f8190505f5b5f8211801561264a5750600c81105b1561280657808061265a90613e18565b9150505f5f61267e8773c9fa8f4cfd11559b50c5c7f6672b9eea2757e1bd88612c70565b915091505f82148061268f57505f81145b1561269b575050612806565b5f6126a461232a565b90505f60646063836126b69190613d77565b6126c09190613d14565b90505f6005856126d09190613d14565b9050808211156126de578091505b5f82036126ef575050505050612806565b5f6126fb838688612448565b905087811115612751576127108886886124f4565b92508383111561271e578392505b5f830361273057505050505050612806565b61273b838688612448565b90508781111561275057505050505050612806565b5b8973ffffffffffffffffffffffffffffffffffffffff1663a9059cbb8c836040518363ffffffff1660e01b815260040161278c929190613b79565b6020604051808303815f875af11580156127a8573d5f5f3e3d5ffd5b505050506040513d601f19601f820116820180604052508101906127cc9190613bd5565b506127ed8b73c9fa8f4cfd11559b50c5c7f6672b9eea2757e1bd8530612564565b80886127f99190613d44565b975050505050505061263b565b5050505050565b5f5f830361281d575f90506128f3565b5f5f61282a888888612c70565b915091505f82148061283b57505f81145b1561284a575f925050506128f3565b6128558583836124f4565b92505f8303612868575f925050506128f3565b8673ffffffffffffffffffffffffffffffffffffffff1663a9059cbb89876040518363ffffffff1660e01b81526004016128a3929190613b79565b6020604051808303815f875af11580156128bf573d5f5f3e3d5ffd5b505050506040513d601f19601f820116820180604052508101906128e39190613bd5565b506128f088878587612564565b50505b95945050505050565b61290461373d565b735c69bee701ef814a2b6a3edd4b1652cb9cc5aa6f815f6003811061292c5761292b613deb565b5b602002019073ffffffffffffffffffffffffffffffffffffffff16908173ffffffffffffffffffffffffffffffffffffffff168152505073c0aee478e3658e2610c5f7a4a2e1777ce9e4f2ac8160016003811061298c5761298b613deb565b5b602002019073ffffffffffffffffffffffffffffffffffffffff16908173ffffffffffffffffffffffffffffffffffffffff168152505073115934131916c8b277dd010ee02de363c09d037c816002600381106129ec576129eb613deb565b5b602002019073ffffffffffffffffffffffffffffffffffffffff16908173ffffffffffffffffffffffffffffffffffffffff168152505090565b612a2e61375f565b73c02aaa39b223fe8d0a0e5c4f27ead9083c756cc2815f60068110612a5657612a55613deb565b5b602002019073ffffffffffffffffffffffffffffffffffffffff16908173ffffffffffffffffffffffffffffffffffffffff168152505073a0b86991c6218b36c1d19d4a2e9eb0ce3606eb4881600160068110612ab657612ab5613deb565b5b602002019073ffffffffffffffffffffffffffffffffffffffff16908173ffffffffffffffffffffffffffffffffffffffff168152505073dac17f958d2ee523a2206206994597c13d831ec781600260068110612b1657612b15613deb565b5b602002019073ffffffffffffffffffffffffffffffffffffffff16908173ffffffffffffffffffffffffffffffffffffffff1681525050736b175474e89094c44da98b954eedeac495271d0f81600360068110612b7657612b75613deb565b5b602002019073ffffffffffffffffffffffffffffffffffffffff16908173ffffffffffffffffffffffffffffffffffffffff1681525050732260fac5e5542a773aa44fbcfedf7c193bc2c59981600460068110612bd657612bd5613deb565b5b602002019073ffffffffffffffffffffffffffffffffffffffff16908173ffffffffffffffffffffffffffffffffffffffff168152505073853d955acef822db058eb8505911ed77f175b99e81600560068110612c3657612c35613deb565b5b602002019073ffffffffffffffffffffffffffffffffffffffff16908173ffffffffffffffffffffffffffffffffffffffff168152505090565b5f5f5f73ffffffffffffffffffffffffffffffffffffffff168573ffffffffffffffffffffffffffffffffffffffff1603612cb0575f5f91509150612f32565b5f8573ffffffffffffffffffffffffffffffffffffffff16630dfe16816040518163ffffffff1660e01b8152600401602060405180830381865afa158015612cfa573d5f5f3e3d5ffd5b505050506040513d601f19601f82011682018060405250810190612d1e91906139c7565b90505f8673ffffffffffffffffffffffffffffffffffffffff1663d21220a76040518163ffffffff1660e01b8152600401602060405180830381865afa158015612d6a573d5f5f3e3d5ffd5b505050506040513d601f19601f82011682018060405250810190612d8e91906139c7565b90505f5f8873ffffffffffffffffffffffffffffffffffffffff16630902f1ac6040518163ffffffff1660e01b8152600401606060405180830381865afa158015612ddb573d5f5f3e3d5ffd5b505050506040513d601f19601f82011682018060405250810190612dff9190613f2f565b50915091508773ffffffffffffffffffffffffffffffffffffffff168473ffffffffffffffffffffffffffffffffffffffff16148015612e6a57508673ffffffffffffffffffffffffffffffffffffffff168373ffffffffffffffffffffffffffffffffffffffff16145b15612e9a57816dffffffffffffffffffffffffffff169550806dffffffffffffffffffffffffffff169450612f2d565b8673ffffffffffffffffffffffffffffffffffffffff168473ffffffffffffffffffffffffffffffffffffffff16148015612f0057508773ffffffffffffffffffffffffffffffffffffffff168373ffffffffffffffffffffffffffffffffffffffff16145b15612f2c57806dffffffffffffffffffffffffffff169550816dffffffffffffffffffffffffffff1694505b5b505050505b935093915050565b5f5f612f446128fc565b90505f5f90505b600381101561302e57818160038110612f6757612f66613deb565b5b602002015173ffffffffffffffffffffffffffffffffffffffff1663e6a4390586866040518363ffffffff1660e01b8152600401612fa6929190613e5f565b602060405180830381865afa158015612fc1573d5f5f3e3d5ffd5b505050506040513d601f19601f82011682018060405250810190612fe591906139c7565b92505f73ffffffffffffffffffffffffffffffffffffffff168373ffffffffffffffffffffffffffffffffffffffff1614613021575050613031565b8080600101915050612f4b565b50505b92915050565b61303f61367a565b5f6040518060c001604052806109c48152602001610fa0815260200161157c81526020016119648152602001611d4c815260200161213481525090505f5f90505b60068110156130e1575f6130ae888888888787600681106130a4576130a3613deb565b5b60200201516130eb565b9050806020015180156130ca5750836101000151816101000151115b156130d3578093505b508080600101915050613080565b5050949350505050565b6130f361367a565b5f61271083886131039190613d77565b61310d9190613d14565b90505f818861311c9190613d44565b90505f82148061312b57505f81145b15613137575050613207565b5f613143868484613210565b90505f88613151578961315b565b61315a8a611136565b5b905080821161316d5750505050613207565b6040518061012001604052808a15158152602001600115158152602001896020015173ffffffffffffffffffffffffffffffffffffffff168152602001896040015173ffffffffffffffffffffffffffffffffffffffff168152602001896060015173ffffffffffffffffffffffffffffffffffffffff1681526020018b8152602001858152602001848152602001838152509450505050505b95945050505050565b5f5f5f5f5f613231885f015189602001518a60c001518b60e001518b6132ed565b93509350935093505f81148061324657505f84145b8061325057505f83145b15613261575f9450505050506132e6565b5f86905088610100015161329957613282878a608001518b60a001516124f4565b90505f8103613298575f955050505050506132e6565b5b5f6132b38a604001518b6060015184878e60e00151613449565b505090505f81036132cc575f96505050505050506132e6565b6132dd868683878e60e00151613586565b96505050505050505b9392505050565b5f5f5f5f8893508792508691505f5f90505b600c8110801561330e57505f86115b1561343c575f606488856133229190613d77565b61332c9190613d14565b90505f606460638361333e9190613d77565b6133489190613d14565b90505f6005886133589190613d14565b905080821115613366578091505b5f82036133755750505061343c565b5f61338183898b612448565b9050898111156133d3576133968a898b6124f4565b9250838311156133a4578392505b5f83036133b4575050505061343c565b6133bf83898b612448565b9050898111156133d2575050505061343c565b5b808a6133df9190613d44565b995080866133ed9190613db8565b955080886133fb9190613db8565b975082896134099190613d44565b98506005836134189190613d14565b876134239190613db8565b965050505050808061343490613e18565b9150506132ff565b5095509550955095915050565b5f5f5f8791508690505f5f90505b600c8110801561346657505f87115b1561357a575f6064868861347a9190613d77565b6134849190613d14565b90505f60646063836134969190613d77565b6134a09190613d14565b90505f6005866134b09190613d14565b9050808211156134be578091505b5f82036134cd5750505061357a565b5f6134d9838789612448565b90508a81111561352b576134ee8b87896124f4565b9250838311156134fc578392505b5f830361350c575050505061357a565b613517838789612448565b90508a81111561352a575050505061357a565b5b808b6135379190613d44565b9a5082886135459190613db8565b975080866135539190613db8565b955082876135619190613d44565b965050505050808061357290613e18565b915050613457565b50955095509592505050565b5f5f606483856135969190613d77565b6135a09190613d14565b90505f81036135b2575f915050613671565b5f5f90505b600c811080156135c657505f86115b1561366e575f8287116135d957866135db565b825b905060646063826135ec9190613d77565b6135f69190613d14565b90505f8103613605575061366e565b5f613611828b8b6124f4565b90505f810361362157505061366e565b808561362d9190613db8565b9450818a61363b9190613db8565b995080896136499190613d44565b985081886136579190613d44565b97505050808061366690613e18565b9150506135b7565b50505b95945050505050565b6040518061012001604052805f151581526020015f151581526020015f73ffffffffffffffffffffffffffffffffffffffff1681526020015f73ffffffffffffffffffffffffffffffffffffffff1681526020015f73ffffffffffffffffffffffffffffffffffffffff1681526020015f81526020015f81526020015f81526020015f81525090565b605880613f8083390190565b6040518061024001604052806012905b613727613781565b81526020019060019003908161371f5790505090565b6040518060600160405280600390602082028036833780820191505090505090565b6040518060c00160405280600690602082028036833780820191505090505090565b60405180608001604052805f151581526020015f73ffffffffffffffffffffffffffffffffffffffff1681526020015f73ffffffffffffffffffffffffffffffffffffffff1681526020015f73ffffffffffffffffffffffffffffffffffffffff1681525090565b5f819050919050565b6137fb816137e9565b82525050565b5f6020820190506138145f8301846137f2565b92915050565b5f5ffd5b5f5ffd5b5f73ffffffffffffffffffffffffffffffffffffffff82169050919050565b5f61384b82613822565b9050919050565b61385b81613841565b8114613865575f5ffd5b50565b5f8135905061387681613852565b92915050565b613885816137e9565b811461388f575f5ffd5b50565b5f813590506138a08161387c565b92915050565b5f5ffd5b5f5ffd5b5f5ffd5b5f5f83601f8401126138c7576138c66138a6565b5b8235905067ffffffffffffffff8111156138e4576138e36138aa565b5b602083019150836001820283011115613900576138ff6138ae565b5b9250929050565b5f5f5f5f5f608086880312156139205761391f61381a565b5b5f61392d88828901613868565b955050602061393e88828901613892565b945050604061394f88828901613892565b935050606086013567ffffffffffffffff8111156139705761396f61381e565b5b61397c888289016138b2565b92509250509295509295909350565b61399481613841565b82525050565b5f6020820190506139ad5f83018461398b565b92915050565b5f815190506139c181613852565b92915050565b5f602082840312156139dc576139db61381a565b5b5f6139e9848285016139b3565b91505092915050565b5f82825260208201905092915050565b7f666c61736820696e6163746976650000000000000000000000000000000000005f82015250565b5f613a36600e836139f2565b9150613a4182613a02565b602082019050919050565b5f6020820190508181035f830152613a6381613a2a565b9050919050565b7f62616420666c61736820706169720000000000000000000000000000000000005f82015250565b5f613a9e600e836139f2565b9150613aa982613a6a565b602082019050919050565b5f6020820190508181035f830152613acb81613a92565b9050919050565b5f81519050613ae08161387c565b92915050565b5f60208284031215613afb57613afa61381a565b5b5f613b0884828501613ad2565b91505092915050565b7f696e73756666696369656e7420726570617900000000000000000000000000005f82015250565b5f613b456012836139f2565b9150613b5082613b11565b602082019050919050565b5f6020820190508181035f830152613b7281613b39565b9050919050565b5f604082019050613b8c5f83018561398b565b613b9960208301846137f2565b9392505050565b5f8115159050919050565b613bb481613ba0565b8114613bbe575f5ffd5b50565b5f81519050613bcf81613bab565b92915050565b5f60208284031215613bea57613be961381a565b5b5f613bf784828501613bc1565b91505092915050565b5f81519050919050565b5f82825260208201905092915050565b8281835e5f83830152505050565b5f601f19601f8301169050919050565b5f613c4282613c00565b613c4c8185613c0a565b9350613c5c818560208601613c1a565b613c6581613c28565b840191505092915050565b5f608082019050613c835f8301876137f2565b613c9060208301866137f2565b613c9d604083018561398b565b8181036060830152613caf8184613c38565b905095945050505050565b7f4e487b71000000000000000000000000000000000000000000000000000000005f52601260045260245ffd5b7f4e487b71000000000000000000000000000000000000000000000000000000005f52601160045260245ffd5b5f613d1e826137e9565b9150613d29836137e9565b925082613d3957613d38613cba565b5b828204905092915050565b5f613d4e826137e9565b9150613d59836137e9565b9250828203905081811115613d7157613d70613ce7565b5b92915050565b5f613d81826137e9565b9150613d8c836137e9565b9250828202613d9a816137e9565b91508282048414831517613db157613db0613ce7565b5b5092915050565b5f613dc2826137e9565b9150613dcd836137e9565b9250828201905080821115613de557613de4613ce7565b5b92915050565b7f4e487b71000000000000000000000000000000000000000000000000000000005f52603260045260245ffd5b5f613e22826137e9565b91507fffffffffffffffffffffffffffffffffffffffffffffffffffffffffffffffff8203613e5457613e53613ce7565b5b600182019050919050565b5f604082019050613e725f83018561398b565b613e7f602083018461398b565b9392505050565b7f4e487b71000000000000000000000000000000000000000000000000000000005f52604160045260245ffd5b5f6dffffffffffffffffffffffffffff82169050919050565b613ed581613eb3565b8114613edf575f5ffd5b50565b5f81519050613ef081613ecc565b92915050565b5f63ffffffff82169050919050565b613f0e81613ef6565b8114613f18575f5ffd5b50565b5f81519050613f2981613f05565b92915050565b5f5f5f60608486031215613f4657613f4561381a565b5b5f613f5386828701613ee2565b9350506020613f6486828701613ee2565b9250506040613f7586828701613f1b565b915050925092509256fe6080604052348015600e575f5ffd5b50603e80601a5f395ff3fe60806040525f5ffdfea26469706673582212208841fc5e8f7ff8fa3ba76f072b7677e21b700def4df3daa80ef754cd7591fcb464736f6c634300081e0033a26469706673582212209afca6e88a6a5bf77c7a006a56dd9cf161ecd3eb11905a5bcae3785f5a91bf6464736f6c634300081e0033","linkReferences":{}},"methodIdentifiers":{"DAI()":"e0bab4c4","FRAX()":"b0e4556f","QTN()":"1d8e1344","SHIBASWAP_FACTORY()":"fb620689","SUSHISWAP_FACTORY()":"495c0f9b","UNISWAP_V2_FACTORY()":"99d8fae3","UNIV2_USDC_WETH_PAIR()":"e74fb204","USDC()":"89a30271","USDT()":"c54e44eb","WBTC()":"4dede3de","WETH()":"ad5c4648","executeOnOpportunity()":"3c2448ed","hiddenPairDelta()":"080b217a","profitAmount()":"5ff972cc","profitToken()":"49343624","uniswapV2Call(address,uint256,uint256,bytes)":"10d1e85c"},"id":0}