{"abi":[{"type":"function","name":"_borrowGuardianPaused","inputs":[],"outputs":[{"name":"","type":"bool","internalType":"bool"}],"stateMutability":"view"},{"type":"function","name":"_mintGuardianPaused","inputs":[],"outputs":[{"name":"","type":"bool","internalType":"bool"}],"stateMutability":"view"},{"type":"function","name":"accountAssets","inputs":[{"name":"","type":"address","internalType":"address"},{"name":"","type":"uint256","internalType":"uint256"}],"outputs":[{"name":"","type":"address","internalType":"contract BToken"}],"stateMutability":"view"},{"type":"function","name":"admin","inputs":[],"outputs":[{"name":"","type":"address","internalType":"address"}],"stateMutability":"view"},{"type":"function","name":"allMarkets","inputs":[{"name":"","type":"uint256","internalType":"uint256"}],"outputs":[{"name":"","type":"address","internalType":"contract BToken"}],"stateMutability":"view"},{"type":"function","name":"borrowCapGuardian","inputs":[],"outputs":[{"name":"","type":"address","internalType":"address"}],"stateMutability":"view"},{"type":"function","name":"borrowCaps","inputs":[{"name":"","type":"address","internalType":"address"}],"outputs":[{"name":"","type":"uint256","internalType":"uint256"}],"stateMutability":"view"},{"type":"function","name":"borrowGuardianPaused","inputs":[{"name":"","type":"address","internalType":"address"}],"outputs":[{"name":"","type":"bool","internalType":"bool"}],"stateMutability":"view"},{"type":"function","name":"closeFactorMantissa","inputs":[],"outputs":[{"name":"","type":"uint256","internalType":"uint256"}],"stateMutability":"view"},{"type":"function","name":"compAccrued","inputs":[{"name":"","type":"address","internalType":"address"}],"outputs":[{"name":"","type":"uint256","internalType":"uint256"}],"stateMutability":"view"},{"type":"function","name":"compBorrowState","inputs":[{"name":"","type":"address","internalType":"address"}],"outputs":[{"name":"index","type":"uint224","internalType":"uint224"},{"name":"block","type":"uint32","internalType":"uint32"}],"stateMutability":"view"},{"type":"function","name":"compBorrowerIndex","inputs":[{"name":"","type":"address","internalType":"address"},{"name":"","type":"address","internalType":"address"}],"outputs":[{"name":"","type":"uint256","internalType":"uint256"}],"stateMutability":"view"},{"type":"function","name":"compSpeeds","inputs":[{"name":"","type":"address","internalType":"address"}],"outputs":[{"name":"","type":"uint256","internalType":"uint256"}],"stateMutability":"view"},{"type":"function","name":"compSupplierIndex","inputs":[{"name":"","type":"address","internalType":"address"},{"name":"","type":"address","internalType":"address"}],"outputs":[{"name":"","type":"uint256","internalType":"uint256"}],"stateMutability":"view"},{"type":"function","name":"compSupplyState","inputs":[{"name":"","type":"address","internalType":"address"}],"outputs":[{"name":"index","type":"uint224","internalType":"uint224"},{"name":"block","type":"uint32","internalType":"uint32"}],"stateMutability":"view"},{"type":"function","name":"comptrollerImplementation","inputs":[],"outputs":[{"name":"","type":"address","internalType":"address"}],"stateMutability":"view"},{"type":"function","name":"creditLimitManager","inputs":[],"outputs":[{"name":"","type":"address","internalType":"address"}],"stateMutability":"view"},{"type":"function","name":"flashloanGuardianPaused","inputs":[{"name":"","type":"address","internalType":"address"}],"outputs":[{"name":"","type":"bool","internalType":"bool"}],"stateMutability":"view"},{"type":"function","name":"guardian","inputs":[],"outputs":[{"name":"","type":"address","internalType":"address"}],"stateMutability":"view"},{"type":"function","name":"isMarketDelisted","inputs":[{"name":"","type":"address","internalType":"address"}],"outputs":[{"name":"","type":"bool","internalType":"bool"}],"stateMutability":"view"},{"type":"function","name":"liquidationIncentiveMantissa","inputs":[],"outputs":[{"name":"","type":"uint256","internalType":"uint256"}],"stateMutability":"view"},{"type":"function","name":"liquidityMining","inputs":[],"outputs":[{"name":"","type":"address","internalType":"address"}],"stateMutability":"view"},{"type":"function","name":"markets","inputs":[{"name":"","type":"address","internalType":"address"}],"outputs":[{"name":"isListed","type":"bool","internalType":"bool"},{"name":"collateralFactorMantissa","type":"uint256","internalType":"uint256"},{"name":"version","type":"uint8","internalType":"enum ComptrollerV1Storage.Version"}],"stateMutability":"view"},{"type":"function","name":"mintGuardianPaused","inputs":[{"name":"","type":"address","internalType":"address"}],"outputs":[{"name":"","type":"bool","internalType":"bool"}],"stateMutability":"view"},{"type":"function","name":"oracle","inputs":[],"outputs":[{"name":"","type":"address","internalType":"contract PriceOracle"}],"stateMutability":"view"},{"type":"function","name":"pendingAdmin","inputs":[],"outputs":[{"name":"","type":"address","internalType":"address"}],"stateMutability":"view"},{"type":"function","name":"pendingComptrollerImplementation","inputs":[],"outputs":[{"name":"","type":"address","internalType":"address"}],"stateMutability":"view"},{"type":"function","name":"seizeGuardianPaused","inputs":[],"outputs":[{"name":"","type":"bool","internalType":"bool"}],"stateMutability":"view"},{"type":"function","name":"supplyCapGuardian","inputs":[],"outputs":[{"name":"","type":"address","internalType":"address"}],"stateMutability":"view"},{"type":"function","name":"supplyCaps","inputs":[{"name":"","type":"address","internalType":"address"}],"outputs":[{"name":"","type":"uint256","internalType":"uint256"}],"stateMutability":"view"},{"type":"function","name":"transferGuardianPaused","inputs":[],"outputs":[{"name":"","type":"bool","internalType":"bool"}],"stateMutability":"view"}],"bytecode":{"object":"0x608060405234801561001057600080fd5b506110c9806100206000396000f3fe608060405234801561001057600080fd5b50600436106101e55760003560e01c806387f763031161010f578063cc7ebdc4116100a2578063dcfbc0c711610071578063dcfbc0c714610b40578063e6653f3d14610b8a578063e875544614610bac578063f851a44014610bca576101e5565b8063cc7ebdc4146109a2578063d1391149146109fa578063d672d3e214610a56578063dce1544914610ab2576101e5565b8063ac0b0bb7116100de578063ac0b0bb714610846578063b21be7fd14610868578063bb82aa5e146108e0578063ca0af0431461092a576101e5565b806387f76303146106bb5780638c57804e146106dd5780638e8f294b14610784578063a979f0c5146107fc576101e5565b80634a584432116101875780636d154ea5116101565780636d154ea51461056f578063731f0c2b146105cb5780637dc0d1d01461062757806385b2d53514610671576101e5565b80634a584432146103e45780634ada90af1461043c57806352d84d1e1461045a5780636b79c38d146104c8576101e5565b806321af4569116101c357806321af4569146102e4578063267822471461032e5780633c94786f14610378578063452a93201461039a576101e5565b806302c3bcbb146101ea578063178de7eb146102425780631d7b33d71461028c575b600080fd5b61022c6004803603602081101561020057600080fd5b81019080803573ffffffffffffffffffffffffffffffffffffffff169060200190929190505050610c14565b6040518082815260200191505060405180910390f35b61024a610c2c565b604051808273ffffffffffffffffffffffffffffffffffffffff1673ffffffffffffffffffffffffffffffffffffffff16815260200191505060405180910390f35b6102ce600480360360208110156102a257600080fd5b81019080803573ffffffffffffffffffffffffffffffffffffffff169060200190929190505050610c52565b6040518082815260200191505060405180910390f35b6102ec610c6a565b604051808273ffffffffffffffffffffffffffffffffffffffff1673ffffffffffffffffffffffffffffffffffffffff16815260200191505060405180910390f35b610336610c90565b604051808273ffffffffffffffffffffffffffffffffffffffff1673ffffffffffffffffffffffffffffffffffffffff16815260200191505060405180910390f35b610380610cb6565b604051808215151515815260200191505060405180910390f35b6103a2610cc9565b604051808273ffffffffffffffffffffffffffffffffffffffff1673ffffffffffffffffffffffffffffffffffffffff16815260200191505060405180910390f35b610426600480360360208110156103fa57600080fd5b81019080803573ffffffffffffffffffffffffffffffffffffffff169060200190929190505050610cef565b6040518082815260200191505060405180910390f35b610444610d07565b6040518082815260200191505060405180910390f35b6104866004803603602081101561047057600080fd5b8101908080359060200190929190505050610d0d565b604051808273ffffffffffffffffffffffffffffffffffffffff1673ffffffffffffffffffffffffffffffffffffffff16815260200191505060405180910390f35b61050a600480360360208110156104de57600080fd5b81019080803573ffffffffffffffffffffffffffffffffffffffff169060200190929190505050610d49565b60405180837bffffffffffffffffffffffffffffffffffffffffffffffffffffffff167bffffffffffffffffffffffffffffffffffffffffffffffffffffffff1681526020018263ffffffff1663ffffffff1681526020019250505060405180910390f35b6105b16004803603602081101561058557600080fd5b81019080803573ffffffffffffffffffffffffffffffffffffffff169060200190929190505050610da5565b604051808215151515815260200191505060405180910390f35b61060d600480360360208110156105e157600080fd5b81019080803573ffffffffffffffffffffffffffffffffffffffff169060200190929190505050610dc5565b604051808215151515815260200191505060405180910390f35b61062f610de5565b604051808273ffffffffffffffffffffffffffffffffffffffff1673ffffffffffffffffffffffffffffffffffffffff16815260200191505060405180910390f35b610679610e0b565b604051808273ffffffffffffffffffffffffffffffffffffffff1673ffffffffffffffffffffffffffffffffffffffff16815260200191505060405180910390f35b6106c3610e31565b604051808215151515815260200191505060405180910390f35b61071f600480360360208110156106f357600080fd5b81019080803573ffffffffffffffffffffffffffffffffffffffff169060200190929190505050610e44565b60405180837bffffffffffffffffffffffffffffffffffffffffffffffffffffffff167bffffffffffffffffffffffffffffffffffffffffffffffffffffffff1681526020018263ffffffff1663ffffffff1681526020019250505060405180910390f35b6107c66004803603602081101561079a57600080fd5b81019080803573ffffffffffffffffffffffffffffffffffffffff169060200190929190505050610ea0565b60405180841515151581526020018381526020018260028111156107e657fe5b60ff168152602001935050505060405180910390f35b610804610ee4565b604051808273ffffffffffffffffffffffffffffffffffffffff1673ffffffffffffffffffffffffffffffffffffffff16815260200191505060405180910390f35b61084e610f0a565b604051808215151515815260200191505060405180910390f35b6108ca6004803603604081101561087e57600080fd5b81019080803573ffffffffffffffffffffffffffffffffffffffff169060200190929190803573ffffffffffffffffffffffffffffffffffffffff169060200190929190505050610f1d565b6040518082815260200191505060405180910390f35b6108e8610f42565b604051808273ffffffffffffffffffffffffffffffffffffffff1673ffffffffffffffffffffffffffffffffffffffff16815260200191505060405180910390f35b61098c6004803603604081101561094057600080fd5b81019080803573ffffffffffffffffffffffffffffffffffffffff169060200190929190803573ffffffffffffffffffffffffffffffffffffffff169060200190929190505050610f68565b6040518082815260200191505060405180910390f35b6109e4600480360360208110156109b857600080fd5b81019080803573ffffffffffffffffffffffffffffffffffffffff169060200190929190505050610f8d565b6040518082815260200191505060405180910390f35b610a3c60048036036020811015610a1057600080fd5b81019080803573ffffffffffffffffffffffffffffffffffffffff169060200190929190505050610fa5565b604051808215151515815260200191505060405180910390f35b610a9860048036036020811015610a6c57600080fd5b81019080803573ffffffffffffffffffffffffffffffffffffffff169060200190929190505050610fc5565b604051808215151515815260200191505060405180910390f35b610afe60048036036040811015610ac857600080fd5b81019080803573ffffffffffffffffffffffffffffffffffffffff16906020019092919080359060200190929190505050610fe5565b604051808273ffffffffffffffffffffffffffffffffffffffff1673ffffffffffffffffffffffffffffffffffffffff16815260200191505060405180910390f35b610b48611030565b604051808273ffffffffffffffffffffffffffffffffffffffff1673ffffffffffffffffffffffffffffffffffffffff16815260200191505060405180910390f35b610b92611056565b604051808215151515815260200191505060405180910390f35b610bb4611069565b6040518082815260200191505060405180910390f35b610bd261106f565b604051808273ffffffffffffffffffffffffffffffffffffffff1673ffffffffffffffffffffffffffffffffffffffff16815260200191505060405180910390f35b60166020528060005260406000206000915090505481565b601c60009054906101000a900473ffffffffffffffffffffffffffffffffffffffff1681565b600d6020528060005260406000206000915090505481565b601360009054906101000a900473ffffffffffffffffffffffffffffffffffffffff1681565b600160009054906101000a900473ffffffffffffffffffffffffffffffffffffffff1681565b600960149054906101000a900460ff1681565b600960009054906101000a900473ffffffffffffffffffffffffffffffffffffffff1681565b60146020528060005260406000206000915090505481565b60065481565b600c8181548110610d1a57fe5b906000526020600020016000915054906101000a900473ffffffffffffffffffffffffffffffffffffffff1681565b600e6020528060005260406000206000915090508060000160009054906101000a90047bffffffffffffffffffffffffffffffffffffffffffffffffffffffff169080600001601c9054906101000a900463ffffffff16905082565b600b6020528060005260406000206000915054906101000a900460ff1681565b600a6020528060005260406000206000915054906101000a900460ff1681565b600460009054906101000a900473ffffffffffffffffffffffffffffffffffffffff1681565b601960009054906101000a900473ffffffffffffffffffffffffffffffffffffffff1681565b600960169054906101000a900460ff1681565b600f6020528060005260406000206000915090508060000160009054906101000a90047bffffffffffffffffffffffffffffffffffffffffffffffffffffffff169080600001601c9054906101000a900463ffffffff16905082565b60086020528060005260406000206000915090508060000160009054906101000a900460ff16908060010154908060030160009054906101000a900460ff16905083565b601560009054906101000a900473ffffffffffffffffffffffffffffffffffffffff1681565b600960179054906101000a900460ff1681565b6010602052816000526040600020602052806000526040600020600091509150505481565b600260009054906101000a900473ffffffffffffffffffffffffffffffffffffffff1681565b6011602052816000526040600020602052806000526040600020600091509150505481565b60126020528060005260406000206000915090505481565b601b6020528060005260406000206000915054906101000a900460ff1681565b60186020528060005260406000206000915054906101000a900460ff1681565b60076020528160005260406000208181548110610ffe57fe5b906000526020600020016000915091509054906101000a900473ffffffffffffffffffffffffffffffffffffffff1681565b600360009054906101000a900473ffffffffffffffffffffffffffffffffffffffff1681565b600960159054906101000a900460ff1681565b60055481565b6000809054906101000a900473ffffffffffffffffffffffffffffffffffffffff168156fea265627a7a72315820d1168c3b40aa627450dd03d8784e94bb95aa88ae8b8b3ea2cd13070d4ecd495564736f6c63430005100032","linkReferences":{}},"methodIdentifiers":{"_borrowGuardianPaused()":"e6653f3d","_mintGuardianPaused()":"3c94786f","accountAssets(address,uint256)":"dce15449","admin()":"f851a440","allMarkets(uint256)":"52d84d1e","borrowCapGuardian()":"21af4569","borrowCaps(address)":"4a584432","borrowGuardianPaused(address)":"6d154ea5","closeFactorMantissa()":"e8755446","compAccrued(address)":"cc7ebdc4","compBorrowState(address)":"8c57804e","compBorrowerIndex(address,address)":"ca0af043","compSpeeds(address)":"1d7b33d7","compSupplierIndex(address,address)":"b21be7fd","compSupplyState(address)":"6b79c38d","comptrollerImplementation()":"bb82aa5e","creditLimitManager()":"178de7eb","flashloanGuardianPaused(address)":"d672d3e2","guardian()":"452a9320","isMarketDelisted(address)":"d1391149","liquidationIncentiveMantissa()":"4ada90af","liquidityMining()":"85b2d535","markets(address)":"8e8f294b","mintGuardianPaused(address)":"731f0c2b","oracle()":"7dc0d1d0","pendingAdmin()":"26782247","pendingComptrollerImplementation()":"dcfbc0c7","seizeGuardianPaused()":"ac0b0bb7","supplyCapGuardian()":"a979f0c5","supplyCaps(address)":"02c3bcbb","transferGuardianPaused()":"87f76303"},"id":5}