{"abi":[{"type":"constructor","inputs":[{"name":"verifier_","type":"address","internalType":"address"},{"name":"pair_","type":"address","internalType":"address"},{"name":"debtToken_","type":"address","internalType":"address"},{"name":"underlying_","type":"address","internalType":"address"},{"name":"collateral_","type":"address","internalType":"address"}],"stateMutability":"nonpayable"},{"type":"function","name":"collateral","inputs":[],"outputs":[{"name":"","type":"address","internalType":"address"}],"stateMutability":"view"},{"type":"function","name":"configure","inputs":[{"name":"requiredUnderlying_","type":"uint256","internalType":"uint256"}],"outputs":[],"stateMutability":"nonpayable"},{"type":"function","name":"debtToken","inputs":[],"outputs":[{"name":"","type":"address","internalType":"address"}],"stateMutability":"view"},{"type":"function","name":"pair","inputs":[],"outputs":[{"name":"","type":"address","internalType":"address"}],"stateMutability":"view"},{"type":"function","name":"requiredUnderlying","inputs":[],"outputs":[{"name":"","type":"uint256","internalType":"uint256"}],"stateMutability":"view"},{"type":"function","name":"swap","inputs":[{"name":"","type":"address","internalType":"address"},{"name":"amountIn","type":"uint256","internalType":"uint256"},{"name":"","type":"address[]","internalType":"address[]"},{"name":"to","type":"address","internalType":"address"}],"outputs":[],"stateMutability":"nonpayable"},{"type":"function","name":"swapPools","inputs":[{"name":"","type":"address","internalType":"address"},{"name":"","type":"address","internalType":"address"}],"outputs":[{"name":"swappool","type":"address","internalType":"address"},{"name":"tokenInIndex","type":"int32","internalType":"int32"},{"name":"tokenOutIndex","type":"int32","internalType":"int32"},{"name":"swaptype","type":"uint32","internalType":"uint32"}],"stateMutability":"pure"},{"type":"function","name":"underlying","inputs":[],"outputs":[{"name":"","type":"address","internalType":"address"}],"stateMutability":"view"},{"type":"function","name":"verifier","inputs":[],"outputs":[{"name":"","type":"address","internalType":"address"}],"stateMutability":"view"}],"bytecode":{"object":"0x610120604052346101a957604051601f6113c138819003918201601f19168301916001600160401b038311848410176101955780849260a0946040528339810103126101a95761004e816101ad565b9061005b602082016101ad565b610067604083016101ad565b906100806080610079606086016101ad565b94016101ad565b604051909490608081016001600160401b0381118282101761019557604052606481526101f46020820152610bb8604082015261271060608201525f905f5b6004811061016a5750505f5560805260a05260c05260e052610100526040516111ff90816101c2823960805181818161049b015281816108fb015261093d015260a05181818161013d01526101e2015260c05181818160940152818161021c01528181610af801528181610c360152610eab015260e05181818161024a015281816108b701528181610b8101528181610c640152610e8901526101005181818160f901526103400152f35b9091602060019162ffffff8551169062ffffff8560030260031b92831b921b191617930191016100bf565b634e487b7160e01b5f52604160045260245ffd5b5f80fd5b51906001600160a01b03821682036101a95756fe6080806040526004361015610012575f80fd5b5f3560e01c9081631eb25e0a1461092a575080632b7ac3f3146108e65780636f307dc3146108a25780638bfe0df114610863578063969d98aa1461016c578063a8aa1b3114610128578063d8dfeb45146100e4578063e1c52095146100c75763f8d898981461007f575f80fd5b346100c3575f3660031901126100c3576040517f00000000000000000000000000000000000000000000000000000000000000006001600160a01b03168152602090f35b5f80fd5b346100c3575f3660031901126100c3576020600154604051908152f35b346100c3575f3660031901126100c3576040517f00000000000000000000000000000000000000000000000000000000000000006001600160a01b03168152602090f35b346100c3575f3660031901126100c3576040517f00000000000000000000000000000000000000000000000000000000000000006001600160a01b03168152602090f35b346100c35760803660031901126100c3576101856109a5565b5060243560443567ffffffffffffffff81116100c357366023820112156100c35780600401359067ffffffffffffffff82116100c357602490369260051b0101116100c3576064356001600160a01b03811691908290036100c3577f00000000000000000000000000000000000000000000000000000000000000006001600160a01b03163303610832576001549182156107fc577f0000000000000000000000000000000000000000000000000000000000000000926001600160a01b03808516937f0000000000000000000000000000000000000000000000000000000000000000939184168514610759575f80604051602081019063095ea7b360e01b825273e592427a0aece92de3edee1f18e0157c058615646024820152826044820152604481526102b66064826109d1565b5190828a5af16102c4610a07565b8161072a575b501561065e575f80604051602081019063095ea7b360e01b825273e592427a0aece92de3edee1f18e0157c058615646024820152846044820152604481526103136064826109d1565b5190828a5af1610321610a07565b816106fb575b5015610600576103378184610a5e565b10156106bd575b7f000000000000000000000000000000000000000000000000000000000000000092604051935f806020870163095ea7b360e01b815260018060a01b03841697886024820152826044820152604481526103996064826109d1565b519082865af16103a7610a07565b8161068e575b501561065e5760405163095ea7b360e01b602082019081526001600160a01b039092166024820152604481018590525f928392909183906103fb81606481015b03601f1981018352826109d1565b51925af1610407610a07565b8161062f575b50156106005760446020925f6040519586948593636e553f6560e01b8552600485015260248401525af1908115610588575f916105ce575b5015610593576020602491604051928380926370a0823160e01b82523060048301525afa908115610588575f91610556575b508061047f57005b60405163a9059cbb60e01b602082019081526001600160a01b037f000000000000000000000000000000000000000000000000000000000000000016602483015260448201929092525f928392909183906104dd81606481016103ed565b51925af16104e9610a07565b81610527575b50156104f757005b60405162461bcd60e51b81526020600482015260086024820152673a3930b739b332b960c11b6044820152606490fd5b805180159250821561053c575b5050816104ef565b61054f9250602080918301019101610a46565b8180610534565b90506020813d602011610580575b81610571602093836109d1565b810103126100c3575182610477565b3d9150610564565b6040513d5f823e3d90fd5b60405162461bcd60e51b81526020600482015260136024820152721e995c9bd7d8dbdb1b185d195c985b17dbdd5d606a1b6044820152606490fd5b90506020813d6020116105f8575b816105e9602093836109d1565b810103126100c3575183610445565b3d91506105dc565b60405162461bcd60e51b8152602060048201526007602482015266617070726f766560c81b6044820152606490fd5b8051801592508215610644575b50508661040d565b6106579250602080918301019101610a46565b868061063c565b60405162461bcd60e51b81526020600482015260086024820152670617070726f7665360c41b6044820152606490fd5b80518015925082156106a3575b5050886103ad565b6106b69250602080918301019101610a46565b888061069b565b60405162461bcd60e51b81526020600482015260166024820152751cddd85c17d8dbdb9cdd5b595917d85b1b17d919589d60521b6044820152606490fd5b8051801592508215610710575b505087610327565b6107239250602080918301019101610a46565b8780610708565b805180159250821561073f575b5050876102ca565b6107529250602080918301019101610a46565b8780610737565b506040516370a0823160e01b8152306004820152602081602481885afa80156105885783915f916107c7575b501161033e5760405162461bcd60e51b81526020600482015260146024820152731cd85b5957d85cdcd95d17db9bd7dc1c9bd99a5d60621b6044820152606490fd5b9150506020813d6020116107f4575b816107e3602093836109d1565b810103126100c35782905187610785565b3d91506107d6565b60405162461bcd60e51b815260206004820152600e60248201526d1b9bdd17d8dbdb999a59dd5c995960921b6044820152606490fd5b60405162461bcd60e51b8152602060048201526009602482015268706169725f6f6e6c7960b81b6044820152606490fd5b346100c35760403660031901126100c35761087c6109a5565b506108856109bb565b5060806040515f81525f60208201525f60408201525f6060820152f35b346100c3575f3660031901126100c3576040517f00000000000000000000000000000000000000000000000000000000000000006001600160a01b03168152602090f35b346100c3575f3660031901126100c3576040517f00000000000000000000000000000000000000000000000000000000000000006001600160a01b03168152602090f35b346100c35760203660031901126100c3577f00000000000000000000000000000000000000000000000000000000000000006001600160a01b0316330361097357600435600155005b62461bcd60e51b815260206004820152600d60248201526c76657269666965725f6f6e6c7960981b6044820152606490fd5b600435906001600160a01b03821682036100c357565b602435906001600160a01b03821682036100c357565b90601f8019910116810190811067ffffffffffffffff8211176109f357604052565b634e487b7160e01b5f52604160045260245ffd5b3d15610a41573d9067ffffffffffffffff82116109f35760405191610a36601f8201601f1916602001846109d1565b82523d5f602084013e565b606090565b908160209103126100c3575180151581036100c35790565b90610a698183610c34565b60018101610be45750604051916080830183811067ffffffffffffffff8211176109f357604090815273c02aaa39b223fe8d0a0e5c4f27ead9083c756cc2845273a0b86991c6218b36c1d19d4a2e9eb0ce3606eb48602085015273dac17f958d2ee523a2206206994597c13d831ec790840152736b175474e89094c44da98b954eedeac495271d0f60608401527f00000000000000000000000000000000000000000000000000000000000000006001600160a01b03165f5b6004811015610bb057600581901b8501516001600160a01b03169084848484148015610b7e575b610b7357610b579293610e84565b60018101610b6a57506001905b01610b22565b94505050505090565b505060019150610b64565b507f00000000000000000000000000000000000000000000000000000000000000006001600160a01b03168414610b49565b60405162461bcd60e51b815260206004820152600c60248201526b0dcdebee6eec2e0bee0c2e8d60a31b6044820152606490fd5b91505090565b906004821015610c01576003600a80840493060290565b634e487b7160e01b5f52603260045260245ffd5b908160209103126100c357516001600160a01b03811681036100c35790565b7f0000000000000000000000000000000000000000000000000000000000000000916001600160a01b03808416927f000000000000000000000000000000000000000000000000000000000000000091821692915f5b60048110610c9e57505050505050505f1990565b62ffffff610cab82610bea565b9054604051630b4c774160e11b81526001600160a01b038b811660048301528616602482015260039290921b1c9190911662ffffff811660448301529060208180606481010381731f98431c8ad98523631ae4a59f267346ea31f9845afa908115610588575f91610e56575b506001600160a01b031615610e4d5760405190610100820182811067ffffffffffffffff8211176109f357604090815288835260208084018981528483019384523060608601908152426080870190815260a087018a815260c088018c81525f60e08a018181529751631b67c43360e31b815299516001600160a01b0390811660048c01529551861660248b0152975162ffffff1660448a0152925184166064890152905160848801525160a48701525160c4860152915190911660e484015290829061010490829073e592427a0aece92de3edee1f18e0157c058615645af15f9181610e1a575b50610e0f57506001905b01610c8a565b965050505050505090565b9091506020813d8211610e45575b81610e35602093836109d1565b810103126100c35751905f610dff565b3d9150610e28565b50600190610e09565b610e77915060203d8111610e7d575b610e6f81836109d1565b810190610c15565b5f610d17565b503d610e65565b91905f7f0000000000000000000000000000000000000000000000000000000000000000927f0000000000000000000000000000000000000000000000000000000000000000916001600160601b03198560601b16926001600160601b03198160601b16915b60048110610eff5750505050505050505f1990565b610f0881610bea565b9054604051630b4c774160e11b81526001600160a01b038a811660048301528b16602482015260039290921b1c62ffffff8116604483015290602081606481731f98431c8ad98523631ae4a59f267346ea31f9845afa908115610588575f916111ab575b506001600160a01b0316156111a25760e81b6001600160e81b0319165f5b60048110610f9e5750506001905b01610eea565b610fa781610bea565b9054604051630b4c774160e11b81526001600160a01b0387811660048301528d16602482015260039290921b1c62ffffff8116604483015290602081606481731f98431c8ad98523631ae4a59f267346ea31f9845afa908115610588575f91611184575b506001600160a01b03161561117b57604051908860208301528360348301526001600160601b03198c60601b16603783015262ffffff60e81b9060e81b16604b82015285604e820152604281526110636062826109d1565b6040519060a0820182811067ffffffffffffffff8211176109f3576040528152602080820130815260e46040840193428552838d6060830190815260808301908d82526040519788968795631e51809360e31b87528560048801525160a0602488015280519586918260c48a0152018888015e5f87868801015260018060a01b0390511660448601525160648501525160848401525160a4830152601f801991011681010301815f73e592427a0aece92de3edee1f18e0157c058615645af15f9181611148575b5061113a57506001905b01610f8a565b995050505050505050505090565b9091506020813d8211611173575b81611163602093836109d1565b810103126100c35751905f61112a565b3d9150611156565b50600190611134565b61119c915060203d8111610e7d57610e6f81836109d1565b5f61100b565b50600190610f98565b6111c3915060203d8111610e7d57610e6f81836109d1565b5f610f6c56fea2646970667358221220b6cee37ca836faed9080c496a123fbad0fc23a5afcfd08c13228f3c7e6f0385564736f6c634300081e0033","linkReferences":{}},"methodIdentifiers":{"collateral()":"d8dfeb45","configure(uint256)":"1eb25e0a","debtToken()":"f8d89898","pair()":"a8aa1b31","requiredUnderlying()":"e1c52095","swap(address,uint256,address[],address)":"969d98aa","swapPools(address,address)":"8bfe0df1","underlying()":"6f307dc3","verifier()":"2b7ac3f3"},"id":0}