{"abi":[{"type":"constructor","inputs":[],"stateMutability":"nonpayable"},{"type":"function","name":"_runFlashloanBorrow","inputs":[{"name":"borrowAmount","type":"uint256","internalType":"uint256"},{"name":"seedUnderlying","type":"uint256","internalType":"uint256"}],"outputs":[],"stateMutability":"nonpayable"},{"type":"function","name":"executeOnOpportunity","inputs":[],"outputs":[],"stateMutability":"nonpayable"},{"type":"function","name":"executed","inputs":[],"outputs":[{"name":"","type":"bool","internalType":"bool"}],"stateMutability":"view"},{"type":"function","name":"exploitPathUsed","inputs":[],"outputs":[{"name":"","type":"string","internalType":"string"}],"stateMutability":"view"},{"type":"function","name":"hypothesisValidated","inputs":[],"outputs":[{"name":"","type":"bool","internalType":"bool"}],"stateMutability":"view"},{"type":"function","name":"profitAchieved","inputs":[],"outputs":[{"name":"","type":"bool","internalType":"bool"}],"stateMutability":"view"},{"type":"function","name":"profitAmount","inputs":[],"outputs":[{"name":"","type":"uint256","internalType":"uint256"}],"stateMutability":"view"},{"type":"function","name":"profitToken","inputs":[],"outputs":[{"name":"","type":"address","internalType":"address"}],"stateMutability":"view"},{"type":"function","name":"receiveFlashLoan","inputs":[{"name":"tokens","type":"address[]","internalType":"address[]"},{"name":"amounts","type":"uint256[]","internalType":"uint256[]"},{"name":"feeAmounts","type":"uint256[]","internalType":"uint256[]"},{"name":"userData","type":"bytes","internalType":"bytes"}],"outputs":[],"stateMutability":"nonpayable"},{"type":"function","name":"status","inputs":[],"outputs":[{"name":"","type":"string","internalType":"string"}],"stateMutability":"view"}],"bytecode":{"object":"0x608034609457608081016001600160401b03811182821017608057604052606481526101f46020820152610bb8604082015261271060608201525f905f5b60048110605657825f5560405161278a90816100998239f35b9091602060019162ffffff8551169062ffffff8560030260031b92831b921b19161793019101603d565b634e487b7160e01b5f52604160045260245ffd5b5f80fdfe60806040526004361015610011575f80fd5b5f5f3560e01c8063200d2ed214610bec57806331a38c8914610bca5780633c2448ed14610bb2578063463defd114610b8d5780634934362414610b655780635ff972cc14610b4857806395beb7ef1461097d578063d78c428114610896578063f04f2707146100b05763f0a0117614610088575f80fd5b346100ad57806003193601126100ad57602060ff60035460081c166040519015158152f35b80fd5b50346100ad5760803660031901126100ad5760043567ffffffffffffffff811161089257366023820112156108925780600401356100ed81610d35565b916100fb6040519384610cdb565b8183526024602084019260051b8201019036821161086657602401915b81831061086e5750505060243567ffffffffffffffff811161086257610142903690600401610d4d565b9060443567ffffffffffffffff811161086a57610163903690600401610d4d565b916064359167ffffffffffffffff83116108665736602384011215610866578260040135908561019283610daa565b946101a06040519687610cdb565b83865260208601933660248284010111610862578060246020930186378601015273ba12222222228d8ba445958a75a0704d566bf2c8330361082e57600181511480610823575b80610818575b156107e3576001600160a01b039061020490611b68565b516008546001600160a01b03169491168490036107ab57816020828193510101031261063b57519161024961024261023b84611b68565b5193611b68565b5194611b68565b5184018094116107975760018060a01b03600654168580604051602081019063095ea7b360e01b82528460248201528260448201526044815261028d606482610cdb565b519082865af161029b611f09565b81610768575b50156105b05760405163095ea7b360e01b602082019081526001600160a01b0390921660248201526044808201859052815286928392909183906102e6606482610cdb565b51925af16102f2611f09565b81610739575b501561055257602090606460018060a01b03600654169386604051958694859363035af68360e61b8552600485015260248401523060448401525af180156106ff5761070a575b506009546008546001600160a01b0391821691168114610652576040516370a0823160e01b815230600482015290602082602481845afa91821561064757849261060f575b508380604051602081019063095ea7b360e01b825273e592427a0aece92de3edee1f18e0157c058615646024820152826044820152604481526103c8606482610cdb565b519082855af16103d6611f09565b816105e0575b50156105b05783809160405182602082019163095ea7b360e01b835273e592427a0aece92de3edee1f18e0157c05861564602482015286604482015260448152610427606482610cdb565b51925af1610433611f09565b81610581575b5015610552576104498183611f50565b101561051a578180915b60018060a01b03600854169082604051602081019263a9059cbb60e01b845273ba12222222228d8ba445958a75a0704d566bf2c860248301526044820152604481526104a0606482610cdb565b51925af16104ac611f09565b816104eb575b50156104bb5780f35b60405162461bcd60e51b81526020600482015260086024820152673a3930b739b332b960c11b6044820152606490fd5b8051801592508215610500575b50505f6104b2565b6105139250602080918301019101611f38565b5f806104f8565b60405162461bcd60e51b815260206004820152601060248201526f3737afb83937b334ba2fb6b0b933b4b760811b6044820152606490fd5b60405162461bcd60e51b8152602060048201526007602482015266617070726f766560c81b6044820152606490fd5b8051801592508215610596575b50505f610439565b6105a99250602080918301019101611f38565b5f8061058e565b60405162461bcd60e51b81526020600482015260086024820152670617070726f7665360c41b6044820152606490fd5b80518015925082156105f5575b50505f6103dc565b6106089250602080918301019101611f38565b5f806105ed565b9091506020813d60201161063f575b8161062b60209383610cdb565b8101031261063b5751905f610384565b5f80fd5b3d915061061e565b6040513d86823e3d90fd5b6020602491604051928380926370a0823160e01b82523060048301525afa80156106ff57829184916106ca575b50111561068e57818091610453565b60405162461bcd60e51b81526020600482015260146024820152731cd85b5957d85cdcd95d17db9bd7dc1c9bd99a5d60621b6044820152606490fd5b9150506020813d6020116106f7575b816106e660209383610cdb565b8101031261063b578190515f61067f565b3d91506106d9565b6040513d85823e3d90fd5b6020813d602011610731575b8161072360209383610cdb565b8101031261063b575161033f565b3d9150610716565b805180159250821561074e575b50505f6102f8565b6107619250602080918301019101611f38565b5f80610746565b805180159250821561077d575b50505f6102a1565b6107909250602080918301019101611f38565b5f80610775565b634e487b7160e01b85526011600452602485fd5b60405162461bcd60e51b815260206004820152601060248201526f3ab732bc3832b1ba32b22fba37b5b2b760811b6044820152606490fd5b60405162461bcd60e51b815260206004820152600d60248201526c3130b22fb33630b9b43637b0b760991b6044820152606490fd5b5060018551146101ed565b5060018351146101e7565b60405162461bcd60e51b815260206004820152600c60248201526b3737ba2fb130b630b731b2b960a11b6044820152606490fd5b8280fd5b8480fd5b8380fd5b82356001600160a01b038116810361088e57815260209283019201610118565b8580fd5b5080fd5b50346100ad57806003193601126100ad576040519080600454906108b982610ca3565b808552916001811690811561095657506001146108f9575b6108f5846108e181860382610cdb565b604051918291602083526020830190610d11565b0390f35b600481527f8a35acfbc15ff81a39ae7d344fd709f28e8600b4aa8c65c6b64bfe7fe36bd19b939250905b80821061093c575090915081016020016108e1826108d1565b919260018160209254838588010152019101909291610923565b60ff191660208087019190915292151560051b850190920192506108e191508390506108d1565b503461063b57604036600319011261063b57303303610b175760408051906109a58183610cdb565b60018252601f19810160208301813682376008546001600160a01b03166109cb85611b68565b528251906109d98483610cdb565b6001825260208201923684376024356109f183611b68565b52835191600435602084015260208352610a0b8584610cdb565b73ba12222222228d8ba445958a75a0704d566bf2c83b1561063b578451632e1c224f60e11b81523060048201526080602482015295516084870181905292938693909260a4850192915f5b818110610af55750505060209060031985840301604486015251918281520191905f5b818110610adc57505050610a9b82915f94600319848303016064850152610d11565b03818373ba12222222228d8ba445958a75a0704d566bf2c85af1908115610ad35750610ac5575080f35b610ad191505f90610cdb565b005b513d5f823e3d90fd5b8251845287945060209384019390920191600101610a79565b82516001600160a01b0316855289965060209485019490920191600101610a56565b60405162461bcd60e51b815260206004820152600960248201526873656c665f6f6e6c7960b81b6044820152606490fd5b3461063b575f36600319011261063b576020600254604051908152f35b3461063b575f36600319011261063b576001546040516001600160a01b039091168152602090f35b3461063b575f36600319011261063b57602060ff60035460101c166040519015158152f35b3461063b575f36600319011261063b57610ad1610e5f565b3461063b575f36600319011261063b57602060ff600354166040519015158152f35b3461063b575f36600319011261063b576040515f600554610c0c81610ca3565b8084529060018116908115610c7f5750600114610c34575b6108f5836108e181850382610cdb565b60055f9081525f5160206127355f395f51905f52939250905b808210610c65575090915081016020016108e1610c24565b919260018160209254838588010152019101909291610c4d565b60ff191660208086019190915291151560051b840190910191506108e19050610c24565b90600182811c92168015610cd1575b6020831014610cbd57565b634e487b7160e01b5f52602260045260245ffd5b91607f1691610cb2565b90601f8019910116810190811067ffffffffffffffff821117610cfd57604052565b634e487b7160e01b5f52604160045260245ffd5b805180835260209291819084018484015e5f828201840152601f01601f1916010190565b67ffffffffffffffff8111610cfd5760051b60200190565b9080601f8301121561063b578135610d6481610d35565b92610d726040519485610cdb565b81845260208085019260051b82010192831161063b57602001905b828210610d9a5750505090565b8135815260209182019101610d8d565b67ffffffffffffffff8111610cfd57601f01601f191660200190565b51906001600160a01b038216820361063b57565b601f8111610de55750565b60055f819052601f91909101901c5f5160206127355f395f51905f52017f036b6384b5eca791c62761152d0c79bb0604c104a5fb6f4eb0703f3154bb3db25b818110610e2f575050565b5f8155600101610e24565b906004811015610e4b5760051b0190565b634e487b7160e01b5f52603260045260245ffd5b60ff60035416611b5e57600160ff196003541617600355736e90c85a495d54c6d7e1f3400fef1f6e59f86bd66001600160601b0360a01b600654161760065560405163d8dfeb4560e01b8152602081600481736e90c85a495d54c6d7e1f3400fef1f6e59f86bd65afa9081156116dc575f91611b24575b50600780546001600160a01b0319166001600160a01b03929092169182179055604051636f307dc360e01b8152602081600481736e90c85a495d54c6d7e1f3400fef1f6e59f86bd65afa9081156116dc575f91611aea575b50600880546001600160a01b0319166001600160a01b0392909216919091179055604051637b10399960e01b8152602081600481736e90c85a495d54c6d7e1f3400fef1f6e59f86bd65afa9081156116dc575f91611aab575b50604051637e062a3560e11b815290602090829060049082906001600160a01b03165afa9081156116dc575f91611a71575b50600980546001600160a01b0319166001600160a01b03929092169182179055604051633eeefe5360e21b8152909190606081600481736e90c85a495d54c6d7e1f3400fef1f6e59f86bd65afa9081156116dc575f91611a23575b5060018060a01b031691826001600160601b0360a01b600a541617600a556001600160601b0360a01b60015416176001556040519063313ce56760e01b8252602082600481865afa9182156116dc575f926119e4575b506020906024604051809581936315caaba160e21b835260048301525afa9182156116dc575f926119b0575b508115611948576006546040516302ce728f60e01b81529290602090849060049082905f906001600160a01b03165af19283156116dc575f93611914575b50816110df91611c4c565b908183146118b05760ff6012911611908115916118a5575b506117df576201000062ff0000196003541617600355611118600454610ca3565b601f8111611779575b506101bd60045560045f527f6c6976655f6e6f6e5f3138645f6f7261636c655f676574507269636573202d3e7f8a35acfbc15ff81a39ae7d344fd709f28e8600b4aa8c65c6b64bfe7fe36bd19b557f20666c617765645f5f75706461746545786368616e6765526174655f776974687f8a35acfbc15ff81a39ae7d344fd709f28e8600b4aa8c65c6b64bfe7fe36bd19c557f6f75745f494f7261636c655f646563696d616c73202d3e20756e6465727374617f8a35acfbc15ff81a39ae7d344fd709f28e8600b4aa8c65c6b64bfe7fe36bd19d557f7465645f65786368616e6765526174655f316533365f6f7665725f70726963657f8a35acfbc15ff81a39ae7d344fd709f28e8600b4aa8c65c6b64bfe7fe36bd19e557f202d3e20646973746f727465645f5f6973536f6c76656e745f616e645f626f727f8a35acfbc15ff81a39ae7d344fd709f28e8600b4aa8c65c6b64bfe7fe36bd19f557f726f775f6c696d6974202d3e20666c6173686c6f616e5f736565645f756e64657f8a35acfbc15ff81a39ae7d344fd709f28e8600b4aa8c65c6b64bfe7fe36bd1a0557f726c79696e67202d3e206f766572626f72726f775f7265616c5f6465627400007f8a35acfbc15ff81a39ae7d344fd709f28e8600b4aa8c65c6b64bfe7fe36bd1a15560018060a01b0360065416906040519063020a17bd60e61b8252604082600481865afa9182156116dc575f92611730575b5060405163e551d11d60e01b815291602083600481875afa9283156116dc575f936116f5575b506001600160801b0316808311156116e75782039182116115ba576020600492935b604051630463f1b360e11b815293849182905afa9182156116dc575f926116a8575b508183106115ce57604051926113b3608085610cdb565b6080368537605f810290801591818104605f148317156115ba576064900491604b820290828204604b1417156115ba57606490049060011c918481106115b3575b8482106115ab575b8483106115a3575b8552602085015260408401528160608401525f5b6004811061149c575050505061142c611b75565b6002541561143657565b611449611444600554610ca3565b610dda565b604b60055560055f527f76616c6964617465645f6275675f6275745f626f72726f775f726f7574655f665f5160206127355f395f51905f525564185a5b195960da1b5f5160206127155f395f51905f5255565b6114a68185610e3a565b5183811061159a576114b88382611ccf565b64e8d4a51000811061158e575b303b1561063b57604051916395beb7ef60e01b8352600483015260248201525f8160448183305af1908161157e575b50611504575b6001905b01611418565b61150c611b75565b600254156114fa5750505050611523600554610ca3565b601f8111611553575b507f70726f6669745f6163686965766564000000000000000000000000000000001e600555565b60055f52601f60205f20910160051c8101905b818110611573575061152c565b5f8155600101611566565b5f61158891610cdb565b5f6114f4565b5064e8d4a510006114c5565b506001906114fe565b849250611404565b8491506113fc565b50836113f4565b634e487b7160e01b5f52601160045260245ffd5b5050506115dc600554610ca3565b601f8111611651575b50607560055560055f527f76616c6964617465645f6275675f6275745f617661696c61626c655f646562745f5160206127355f395f51905f52557f5f62656c6f775f706169725f6d696e696d756d5f626f72726f770000000000005f5160206127155f395f51905f5255565b60055f819052601f91909101901c5f5160206127355f395f51905f52017f036b6384b5eca791c62761152d0c79bb0604c104a5fb6f4eb0703f3154bb3db25b81811061169d57506115e5565b5f8155600101611690565b9091506020813d6020116116d4575b816116c460209383610cdb565b8101031261063b5751905f61139c565b3d91506116b7565b6040513d5f823e3d90fd5b506004915060205f9361137a565b9092506020813d602011611728575b8161171160209383610cdb565b8101031261063b5751916001600160801b03611358565b3d9150611704565b9091506040813d604011611771575b8161174c60409383610cdb565b8101031261063b57611769602061176283611cbb565b9201611cbb565b50905f611332565b3d915061173f565b60045f52601f0160051c7f8a35acfbc15ff81a39ae7d344fd709f28e8600b4aa8c65c6b64bfe7fe36bd19b017f8a35acfbc15ff81a39ae7d344fd709f28e8600b4aa8c65c6b64bfe7fe36bd1a25b8181106117d45750611121565b5f81556001016117c7565b506117eb600554610ca3565b601f811161184e575b50605760055560055f527f6c6976655f6f7261636c655f646973746f7274696f6e5f6e6f745f626f72726f5f5160206127355f395f51905f52556a775f6661766f7261626c6560a81b5f5160206127155f395f51905f5255565b60055f819052601f91909101901c5f5160206127355f395f51905f52017f036b6384b5eca791c62761152d0c79bb0604c104a5fb6f4eb0703f3154bb3db25b81811061189a57506117f4565b5f815560010161188d565b90508110155f6110f7565b5050506118c1611444600554610ca3565b604b60055560055f527f6c6976655f6f7261636c655f69735f616c72656164795f3138645f6e6f726d615f5160206127355f395f51905f5255641b1a5e995960da1b5f5160206127155f395f51905f5255565b9092506020813d602011611940575b8161193060209383610cdb565b8101031261063b575191816110d4565b3d9150611923565b5050611955600554610ca3565b601f8111611985575b507f6f7261636c655f70726963655f7a65726f000000000000000000000000000022600555565b60055f52601f60205f20910160051c8101905b8181106119a5575061195e565b5f8155600101611998565b9091506020813d6020116119dc575b816119cc60209383610cdb565b8101031261063b5751905f611096565b3d91506119bf565b9091506020813d602011611a1b575b81611a0060209383610cdb565b8101031261063b575160ff8116810361063b5790602061106a565b3d91506119f3565b90506060813d606011611a69575b81611a3e60609383610cdb565b8101031261063b576020611a5182610dc6565b9101516001600160601b0381160361063b575f611014565b3d9150611a31565b90506020813d602011611aa3575b81611a8c60209383610cdb565b8101031261063b57611a9d90610dc6565b5f610fb9565b3d9150611a7f565b90506020813d602011611ae2575b81611ac660209383610cdb565b8101031261063b576020611adb600492610dc6565b9150610f87565b3d9150611ab9565b90506020813d602011611b1c575b81611b0560209383610cdb565b8101031261063b57611b1690610dc6565b5f610f2e565b3d9150611af8565b90506020813d602011611b56575b81611b3f60209383610cdb565b8101031261063b57611b5090610dc6565b5f610ed6565b3d9150611b32565b611b66611b75565b565b805115610e4b5760200190565b6009546001600160a01b031680611ba657505f5b8060025561ff0060035491151560081b169061ff00191617600355565b6020602491604051928380926370a0823160e01b82523060048301525afa9081156116dc575f91611bd8575b50611b89565b90506020813d602011611c02575b81611bf360209383610cdb565b8101031261063b57515f611bd2565b3d9150611be6565b60ff16604d81116115ba57600a0a90565b818102929181159184041417156115ba57565b8115611c38570490565b634e487b7160e01b5f52601260045260245ffd5b8015611c38576ec097ce7bc90715b34b9f1000000000049060ff1660128114611cb75760128111611c98576012039060ff82116115ba57611c8f611c9592611c0a565b90611c2e565b90565b601119019060ff82116115ba57611cb1611c9592611c0a565b90611c1b565b5090565b51906001600160801b038216820361063b57565b60065460405163f384bd0560e01b81529291906001600160a01b0316602084600481845afa9384156116dc575f94611ed2575b50906020600492604051938480926313966db560e01b82525afa9182156116dc575f92611e9e575b50831591828015611e96575b611e8c57620186a0019081620186a0116115ba57620186a091611d5891611c1b565b0492611d648385611c1b565b91620186a0830292808404620186a014901517156115ba57670de0b6b3a76400008202918204670de0b6b3a76400001417156115ba57611da391611c2e565b918215611e83575b905f915b60088310611ddf57505050607d810290808204607d14901517156115ba5760649004600181018091116115ba5790565b909192611dec838261209e565b82811015611e59578281611e1c575050600a810290808204600a14901517156115ba57600190935b019190611daf565b611e2990611e2e93611c1b565b611c2e565b606e810290808204606e14901517156115ba5760649004600181018091116115ba5760019093611e14565b50925050506069810290808204606914901517156115ba5760649004600181018091116115ba5790565b60019250611dab565b5050505050600190565b508315611d36565b9091506020813d602011611eca575b81611eba60209383610cdb565b8101031261063b5751905f611d2a565b3d9150611ead565b919093506020823d602011611f01575b81611eef60209383610cdb565b8101031261063b579051926020611d02565b3d9150611ee2565b3d15611f33573d90611f1a82610daa565b91611f286040519384610cdb565b82523d5f602084013e565b606090565b9081602091031261063b5751801515810361063b5790565b90611f5b81836121d7565b600181016120985750604051916080830183811067ffffffffffffffff821117610cfd5760405273c02aaa39b223fe8d0a0e5c4f27ead9083c756cc2835273a0b86991c6218b36c1d19d4a2e9eb0ce3606eb48602084015273dac17f958d2ee523a2206206994597c13d831ec76040840152736b175474e89094c44da98b954eedeac495271d0f60608401525f5b600481106120255760405162461bcd60e51b815260206004820152600c60248201526b0dcdebee6eec2e0bee0c2e8d60a31b6044820152606490fd5b6001600160a01b036120378286610e3a565b511690838360018060a01b036009541684148015612084575b6120795761205e92936123e6565b6001810161207157506001905b01611fe9565b935050505090565b50506001915061206b565b506008546001600160a01b03168414612050565b91505090565b81156121b9576007546040516363737ac960e11b81526004810192909252602090829060249082906001600160a01b03165afa80156116dc575f90612186575b60065460405163f384bd0560e01b81529250602090839060049082906001600160a01b03165afa9081156116dc575f91612150575b61211d9250611c1b565b670de0b6b3a7640000810290808204670de0b6b3a764000014901517156115ba57620186a09161214c91611c2e565b0490565b90506020823d60201161217e575b8161216b60209383610cdb565b8101031261063b5761211d915190612113565b3d915061215e565b506020813d6020116121b1575b816121a060209383610cdb565b8101031261063b57600490516120de565b3d9150612193565b50505f1990565b906004821015610e4b576003600a80840493060290565b5f5b600481106121e9575050505f1990565b62ffffff6121f6826121c0565b9054600954600854604051630b4c774160e11b81526001600160a01b0392831660048201819052929091166024820181905260039490941b9290921c9390931662ffffff811660448301529060208180606481010381731f98431c8ad98523631ae4a59f267346ea31f9845afa9081156116dc575f916123ad575b506001600160a01b0316156123a25760405192610100840184811067ffffffffffffffff821117610cfd57604090815290845260208085019384528482019283523060608601908152426080870190815260a0870189815260c088018b81525f60e08a018181529651631b67c43360e31b815299516001600160a01b0390811660048c01529851891660248b0152965162ffffff1660448a0152925187166064890152905160848801525160a48701525160c4860152905190921660e4840152829061010490829073e592427a0aece92de3edee1f18e0157c058615645af15f918161236f575b5061236857506001905b016121d9565b9250505090565b9091506020813d821161239a575b8161238a60209383610cdb565b8101031261063b5751905f612358565b3d915061237d565b505050600190612362565b90506020813d82116123de575b816123c760209383610cdb565b8101031261063b576123d890610dc6565b5f612271565b3d91506123ba565b91905f5b600481106123fb57505050505f1990565b612404816121c0565b9054600854604051630b4c774160e11b81526001600160a01b039182166004820152908716602482015260039290921b1c62ffffff8116604483015290602081606481731f98431c8ad98523631ae4a59f267346ea31f9845afa9081156116dc575f916126db575b506001600160a01b0316156126d25760e81b6001600160e81b0319165f5b6004811061249e5750506001905b016123ea565b6124ac8196959293966121c0565b9054600954604051630b4c774160e11b81526001600160a01b0380831660048301528916602482015260039390931b9190911c62ffffff8116604484015291602081606481731f98431c8ad98523631ae4a59f267346ea31f9845afa9081156116dc575f91612699575b506001600160a01b03161561268f5760085491604051926001600160601b03199060601b1660208401528560348401526001600160601b03198860601b16603784015262ffffff60e81b9060e81b16604b8301526001600160601b03199060601b16604e8201526042815261258c606282610cdb565b6040519060a0820182811067ffffffffffffffff821117610cfd57604052815260206125f98183019230845260408101934285526060820189815260808301908882526040519687958695631e51809360e31b87528860048801525160a0602488015260c4870190610d11565b93516001600160a01b031660448601525160648501525160848401525160a483015203815f73e592427a0aece92de3edee1f18e0157c058615645af15f918161265c575b5061265257506001905b01949190939461248a565b9550505050505090565b9091506020813d8211612687575b8161267760209383610cdb565b8101031261063b5751905f61263d565b3d915061266a565b5050600190612647565b90506020813d82116126ca575b816126b360209383610cdb565b8101031261063b576126c490610dc6565b5f612516565b3d91506126a6565b50600190612498565b90506020813d821161270c575b816126f560209383610cdb565b8101031261063b5761270690610dc6565b5f61246c565b3d91506126e856fe036b6384b5eca791c62761152d0c79bb0604c104a5fb6f4eb0703f3154bb3db1036b6384b5eca791c62761152d0c79bb0604c104a5fb6f4eb0703f3154bb3db0a2646970667358221220acf738498ac8ed91abe584fef06b19cb9b116441cba79db6bc99936c09ec6f1964736f6c634300081e0033","linkReferences":{}},"methodIdentifiers":{"_runFlashloanBorrow(uint256,uint256)":"95beb7ef","executeOnOpportunity()":"3c2448ed","executed()":"31a38c89","exploitPathUsed()":"d78c4281","hypothesisValidated()":"463defd1","profitAchieved()":"f0a01176","profitAmount()":"5ff972cc","profitToken()":"49343624","receiveFlashLoan(address[],uint256[],uint256[],bytes)":"f04f2707","status()":"200d2ed2"},"id":0}