{"abi":[{"type":"constructor","inputs":[{"name":"baseOracle_","type":"address","internalType":"address"},{"name":"outputDecimals_","type":"uint8","internalType":"uint8"}],"stateMutability":"nonpayable"},{"type":"function","name":"baseOracle","inputs":[],"outputs":[{"name":"","type":"address","internalType":"contract IOracle"}],"stateMutability":"view"},{"type":"function","name":"decimals","inputs":[],"outputs":[{"name":"","type":"uint8","internalType":"uint8"}],"stateMutability":"view"},{"type":"function","name":"getPrices","inputs":[{"name":"vault","type":"address","internalType":"address"}],"outputs":[{"name":"price","type":"uint256","internalType":"uint256"}],"stateMutability":"view"},{"type":"function","name":"name","inputs":[],"outputs":[{"name":"","type":"string","internalType":"string"}],"stateMutability":"pure"}],"bytecode":{"object":"0x60c03461009457601f61045938819003918201601f19168301916001600160401b038311848410176100985780849260409485528339810103126100945780516001600160a01b038116919082900361009457602001519060ff821682036100945760805260a0526040516103ac90816100ad8239608051818181605d0152610206015260a05181818160e0015261026b0152f35b5f80fd5b634e487b7160e01b5f52604160045260245ffdfe6080806040526004361015610012575f80fd5b5f3560e01c90816306fdde031461010457508063313ce567146100c7578063572aae84146100905763abbcfcfb14610048575f80fd5b3461008c575f36600319011261008c576040517f00000000000000000000000000000000000000000000000000000000000000006001600160a01b03168152602090f35b5f80fd5b3461008c57602036600319011261008c576004356001600160a01b038116810361008c576100bf6020916101e7565b604051908152f35b3461008c575f36600319011261008c57602060405160ff7f0000000000000000000000000000000000000000000000000000000000000000168152f35b3461008c575f36600319011261008c576040810181811067ffffffffffffffff82111761017857604052600e8152604060208201916d29b1b0b632b227b930b1b632999b60911b83528151928391602083525180918160208501528484015e5f828201840152601f01601f19168101030190f35b634e487b7160e01b5f52604160045260245ffd5b90601f8019910116810190811067ffffffffffffffff82111761017857604052565b9060ff8091169116039060ff82116101c257565b634e487b7160e01b5f52601160045260245ffd5b60ff16604d81116101c257600a0a90565b6040516315caaba160e21b81526001600160a01b0391821660048201527f000000000000000000000000000000000000000000000000000000000000000090911690602081602481855afa908115610339575f91610344575b506004602082936040519283809263313ce56760e01b82525afa908115610339575f916102fd575b507f00000000000000000000000000000000000000000000000000000000000000009160ff83169060ff8316908282146102f45750106102d3576102b4916102af916101ae565b6101d6565b9081156102bf570490565b634e487b7160e01b5f52601260045260245ffd5b6102af906102e0926101ae565b908181029181830414901517156101c25790565b94505050505090565b90506020813d602011610331575b816103186020938361018c565b8101031261008c575160ff8116810361008c575f610268565b3d915061030b565b6040513d5f823e3d90fd5b90506020813d60201161036e575b8161035f6020938361018c565b8101031261008c57515f610240565b3d915061035256fea2646970667358221220291a045ff05c1814c669b9fd0e2f1c330fbf6d331e565d2c718a06fb986f919a64736f6c634300081e0033","linkReferences":{}},"methodIdentifiers":{"baseOracle()":"abbcfcfb","decimals()":"313ce567","getPrices(address)":"572aae84","name()":"06fdde03"},"id":0}