{"abi":[{"type":"constructor","inputs":[],"stateMutability":"nonpayable"},{"type":"fallback","stateMutability":"payable"},{"type":"receive","stateMutability":"payable"},{"type":"function","name":"executeOnOpportunity","inputs":[],"outputs":[],"stateMutability":"nonpayable"},{"type":"function","name":"exploitPath","inputs":[],"outputs":[{"name":"","type":"string","internalType":"string"}],"stateMutability":"pure"},{"type":"function","name":"hypothesisValidated","inputs":[],"outputs":[{"name":"","type":"bool","internalType":"bool"}],"stateMutability":"view"},{"type":"function","name":"profitAmount","inputs":[],"outputs":[{"name":"","type":"uint256","internalType":"uint256"}],"stateMutability":"view"},{"type":"function","name":"profitToken","inputs":[],"outputs":[{"name":"","type":"address","internalType":"address"}],"stateMutability":"view"},{"type":"function","name":"trappedEth","inputs":[],"outputs":[{"name":"","type":"uint256","internalType":"uint256"}],"stateMutability":"view"},{"type":"function","name":"trappedWeth","inputs":[],"outputs":[{"name":"","type":"uint256","internalType":"uint256"}],"stateMutability":"view"}],"bytecode":{"object":"0x6080806040523460155761053c908161001a8239f35b5f80fdfe6080604052600436101561000f57005b5f5f3560e01c80633c2448ed146101c9578063463defd1146101a6578063493436241461017f5780635ff972cc14610161578063cb707c62146100a1578063ee09c9a3146100835763ee5e21a11461006357005b346100805780600319360112610080576020600454604051908152f35b80fd5b50346100805780600319360112610080576020600354604051908152f35b5034610080578060031936011261008057604080516100c1608082610415565b605c8152602081017f66756e642076657269666965722077697468204554482c20657865637574652081527f746f20777261702f756e7772617020696e746f20726573696475616c20455448838301527f2b574554482c206f627365727665206e6f20737765657020706174680000000060608301528251938492602084525180928160208601528585015e828201840152601f01601f19168101030190f35b50346100805780600319360112610080576020600154604051908152f35b5034610080578060031936011261008057546040516001600160a01b039091168152602090f35b5034610080578060031936011261008057602060ff600254166040519015158152f35b50346103ca575f3660031901126103ca576bffffffffffffffffffffffff60a01b5f54165f555f60015560ff19600254166002555f6003555f6004554761020f3061044b565b9080158015809161040c575b156103ce57610358575b508160036102323061044b565b04806102de575b505047906102463061044b565b6003839055600481905583546001600160a01b03191673c02aaa39b223fe8d0a0e5c4f27ead9083c756cc217845590808211156102d75781038181116102c3575b80600155151591826102b9575b50816102af575b5060ff801960025416911515161760025580f35b905015155f61029b565b151591505f610294565b634e487b7160e01b84526011600452602484fd5b5082610287565b73c02aaa39b223fe8d0a0e5c4f27ead9083c756cc23b156103495760405190632e1a7d4d60e01b8252600482015281816024818373c02aaa39b223fe8d0a0e5c4f27ead9083c756cc25af1801561034d5715610239578161033e91610415565b61034957815f610239565b5080fd5b6040513d84823e3d90fd5b73c02aaa39b223fe8d0a0e5c4f27ead9083c756cc23b156103ca575f60049160405192838092630d0e30db60e41b825273c02aaa39b223fe8d0a0e5c4f27ead9083c756cc25af180156103bf5715610225576103b79192505f90610415565b5f905f610225565b6040513d5f823e3d90fd5b5f80fd5b60405162461bcd60e51b81526020600482015260166024820152751c1c99599d5b99081d995c9a599a595c88199a5c9cdd60521b6044820152606490fd5b5082151561021b565b90601f8019910116810190811067ffffffffffffffff82111761043757604052565b634e487b7160e01b5f52604160045260245ffd5b5f809160405160208101916370a0823160e01b835260018060a01b031660248201526024815261047c604482610415565b519073c02aaa39b223fe8d0a0e5c4f27ead9083c756cc25afa3d156104fe573d9067ffffffffffffffff821161043757604051916104c4601f8201601f191660200184610415565b82523d5f602084013e5b1580156104f3575b6104ee576020818051810103126103ca576020015190565b505f90565b5060208151106104d6565b6060906104ce56fea2646970667358221220de39a3816958bc215ccc21bc99f3309f165b18ccf13c21ef02d12d686755dee764736f6c634300081e0033","linkReferences":{}},"methodIdentifiers":{"executeOnOpportunity()":"3c2448ed","exploitPath()":"cb707c62","hypothesisValidated()":"463defd1","profitAmount()":"5ff972cc","profitToken()":"49343624","trappedEth()":"ee09c9a3","trappedWeth()":"ee5e21a1"},"id":0}