{"abi":[{"type":"constructor","inputs":[],"stateMutability":"payable"},{"type":"function","name":"destroy","inputs":[{"name":"to","type":"address","internalType":"address payable"}],"outputs":[],"stateMutability":"nonpayable"}],"bytecode":{"object":"0x6080806040526079908160108239f3fe6004361015600b575f80fd5b5f3560e01c62f55d9d14601c575f80fd5b34603f576020366003190112603f576004356001600160a01b0381168103603f57ff5b5f80fdfea264697066735822122050ded455d514f47684d79d6985c750de423aae56d4cb04aee89a8895396c0f0864736f6c634300081e0033","linkReferences":{}},"methodIdentifiers":{"destroy(address)":"00f55d9d"},"id":0}