{"abi":[{"type":"constructor","inputs":[],"stateMutability":"nonpayable"},{"type":"function","name":"bridgeOwner","inputs":[],"outputs":[{"name":"","type":"address","internalType":"address"}],"stateMutability":"view"},{"type":"function","name":"bridgeOwnerCallFeasible","inputs":[],"outputs":[{"name":"","type":"bool","internalType":"bool"}],"stateMutability":"view"},{"type":"function","name":"burnAmountAttempted","inputs":[],"outputs":[{"name":"","type":"uint256","internalType":"uint256"}],"stateMutability":"view"},{"type":"function","name":"burnStageAttempted","inputs":[],"outputs":[{"name":"","type":"bool","internalType":"bool"}],"stateMutability":"view"},{"type":"function","name":"burnStageInfeasible","inputs":[],"outputs":[{"name":"","type":"bool","internalType":"bool"}],"stateMutability":"view"},{"type":"function","name":"burnStageSucceeded","inputs":[],"outputs":[{"name":"","type":"bool","internalType":"bool"}],"stateMutability":"view"},{"type":"function","name":"canImplementInterfaceForAddress","inputs":[{"name":"interfaceHash","type":"bytes32","internalType":"bytes32"},{"name":"","type":"address","internalType":"address"}],"outputs":[{"name":"","type":"bytes32","internalType":"bytes32"}],"stateMutability":"pure"},{"type":"function","name":"endingBalance","inputs":[],"outputs":[{"name":"","type":"uint256","internalType":"uint256"}],"stateMutability":"view"},{"type":"function","name":"executeOnOpportunity","inputs":[],"outputs":[],"stateMutability":"nonpayable"},{"type":"function","name":"lastMintRevertData","inputs":[],"outputs":[{"name":"","type":"bytes","internalType":"bytes"}],"stateMutability":"view"},{"type":"function","name":"mintStageAttempted","inputs":[],"outputs":[{"name":"","type":"bool","internalType":"bool"}],"stateMutability":"view"},{"type":"function","name":"mintStageSucceeded","inputs":[],"outputs":[{"name":"","type":"bool","internalType":"bool"}],"stateMutability":"view"},{"type":"function","name":"profitAmount","inputs":[],"outputs":[{"name":"","type":"uint256","internalType":"uint256"}],"stateMutability":"view"},{"type":"function","name":"profitToken","inputs":[],"outputs":[{"name":"","type":"address","internalType":"address"}],"stateMutability":"pure"},{"type":"function","name":"requestedMintAmount","inputs":[],"outputs":[{"name":"","type":"uint256","internalType":"uint256"}],"stateMutability":"pure"},{"type":"function","name":"startingBalance","inputs":[],"outputs":[{"name":"","type":"uint256","internalType":"uint256"}],"stateMutability":"view"},{"type":"function","name":"tokensReceived","inputs":[{"name":"","type":"address","internalType":"address"},{"name":"","type":"address","internalType":"address"},{"name":"","type":"address","internalType":"address"},{"name":"","type":"uint256","internalType":"uint256"},{"name":"","type":"bytes","internalType":"bytes"},{"name":"","type":"bytes","internalType":"bytes"}],"outputs":[],"stateMutability":"pure"},{"type":"function","name":"tokensReceivedAfter","inputs":[],"outputs":[{"name":"","type":"uint256","internalType":"uint256"}],"stateMutability":"view"},{"type":"function","name":"tokensReceivedBefore","inputs":[],"outputs":[{"name":"","type":"uint256","internalType":"uint256"}],"stateMutability":"view"},{"type":"function","name":"tokensSentAfter","inputs":[],"outputs":[{"name":"","type":"uint256","internalType":"uint256"}],"stateMutability":"view"},{"type":"function","name":"tokensSentBefore","inputs":[],"outputs":[{"name":"","type":"uint256","internalType":"uint256"}],"stateMutability":"view"},{"type":"function","name":"uniswapV2Call","inputs":[{"name":"sender","type":"address","internalType":"address"},{"name":"amount0","type":"uint256","internalType":"uint256"},{"name":"amount1","type":"uint256","internalType":"uint256"},{"name":"","type":"bytes","internalType":"bytes"}],"outputs":[],"stateMutability":"nonpayable"}],"bytecode":{"object":"0x608060405234801561000f575f5ffd5b50731820a4b7618bde71dce8cdc73aab6c95905fad2473ffffffffffffffffffffffffffffffffffffffff166329965a1d307fb281fc8c12954d22544db45de3159a39272895b169a852b314f9cc762e44c53b306040518463ffffffff1660e01b81526004016100819392919061010a565b5f604051808303815f87803b158015610098575f5ffd5b505af11580156100aa573d5f5f3e3d5ffd5b5050505061013f565b5f73ffffffffffffffffffffffffffffffffffffffff82169050919050565b5f6100dc826100b3565b9050919050565b6100ec816100d2565b82525050565b5f819050919050565b610104816100f2565b82525050565b5f60608201905061011d5f8301866100e3565b61012a60208301856100fb565b61013760408301846100e3565b949350505050565b6138158061014c5f395ff3fe608060405234801561000f575f5ffd5b506004361061013f575f3560e01c806394bd2d3b116100b6578063b6fb7e461161007a578063b6fb7e461461031d578063dfc16fdf1461033b578063f302589914610359578063f54a20b314610377578063f5beda8d14610395578063fc9f85f2146103b35761013f565b806394bd2d3b146102875780639c5ac2c5146102a5578063adea533a146102c3578063aeb1deb7146102e1578063b606d092146102ff5761013f565b8063493436241161010857806349343624146101d35780634d52d6b2146101f15780634f4fbd721461020f57806358ff61b81461022d5780635ff972cc1461024b578063864dbfd9146102695761013f565b806223de291461014357806310d1e85c1461015f578063249cb3fa1461017b57806329faed67146101ab5780633c2448ed146101c9575b5f5ffd5b61015d600480360381019061015891906128f3565b6103d1565b005b610179600480360381019061017491906129bd565b6103db565b005b61019560048036038101906101909190612a74565b610856565b6040516101a29190612ac1565b60405180910390f35b6101b36108b0565b6040516101c09190612ae9565b60405180910390f35b6101d16108b6565b005b6101db610f97565b6040516101e89190612b11565b60405180910390f35b6101f9610fb2565b6040516102069190612b11565b60405180910390f35b610217610fda565b6040516102249190612b44565b60405180910390f35b610235610fed565b6040516102429190612b44565b60405180910390f35b610253611000565b6040516102609190612ae9565b60405180910390f35b610271611008565b60405161027e9190612ae9565b60405180910390f35b61028f61100e565b60405161029c9190612ae9565b60405180910390f35b6102ad611017565b6040516102ba9190612ae9565b60405180910390f35b6102cb61101d565b6040516102d89190612ae9565b60405180910390f35b6102e9611023565b6040516102f69190612b44565b60405180910390f35b610307611036565b6040516103149190612bcd565b60405180910390f35b6103256110c2565b6040516103329190612ae9565b60405180910390f35b6103436110cb565b6040516103509190612ae9565b60405180910390f35b6103616110d1565b60405161036e9190612ae9565b60405180910390f35b61037f6110ed565b60405161038c9190612b44565b60405180910390f35b61039d6110ff565b6040516103aa9190612b44565b60405180910390f35b6103bb611112565b6040516103c89190612b44565b60405180910390f35b5050505050505050565b60045f9054906101000a900473ffffffffffffffffffffffffffffffffffffffff1673ffffffffffffffffffffffffffffffffffffffff163373ffffffffffffffffffffffffffffffffffffffff161461046a576040517f08c379a000000000000000000000000000000000000000000000000000000000815260040161046190612c47565b60405180910390fd5b3073ffffffffffffffffffffffffffffffffffffffff168573ffffffffffffffffffffffffffffffffffffffff16146104d8576040517f08c379a00000000000000000000000000000000000000000000000000000000081526004016104cf90612caf565b60405180910390fd5b600c60059054906101000a900460ff16610527576040517f08c379a000000000000000000000000000000000000000000000000000000000815260040161051e90612d17565b60405180910390fd5b5f5f85116105355783610537565b845b9050600554811461057d576040517f08c379a000000000000000000000000000000000000000000000000000000000815260040161057490612d7f565b60405180910390fd5b5f3090505f600190505f8390506001600c5f6101000a81548160ff0219169083151502179055508060078190555073d45740ab9ec920bedbd9bab2e863519e5973194173ffffffffffffffffffffffffffffffffffffffff166331bcd2b783836040518363ffffffff1660e01b81526004016105fa929190612d9d565b5f604051808303815f87803b158015610611575f5ffd5b505af1158015610623573d5f5f3e3d5ffd5b505050506001600c60016101000a81548160ff0219169083151502179055506001600c60026101000a81548160ff0219169083151502179055505f73d45740ab9ec920bedbd9bab2e863519e5973194173ffffffffffffffffffffffffffffffffffffffff166370a08231306040518263ffffffff1660e01b81526004016106ab9190612b11565b602060405180830381865afa1580156106c6573d5f5f3e3d5ffd5b505050506040513d601f19601f820116820180604052508101906106ea9190612dd8565b90505f8390505f670de0b6b3a76400006127106107079190612e30565b90505f63b1e067b260e01b8784845f6040516024016107299493929190612ebf565b604051602081830303815290604052907bffffffffffffffffffffffffffffffffffffffffffffffffffffffff19166020820180517bffffffffffffffffffffffffffffffffffffffffffffffffffffffff838183161783525050505090506107928185611125565b600c60036101000a81548160ff021916908315150217905550600c60039054906101000a900460ff166107fa576040517f08c379a00000000000000000000000000000000000000000000000000000000081526004016107f190612f4c565b60405180910390fd5b5f61080486611431565b905061084673d45740ab9ec920bedbd9bab2e863519e5973194160045f9054906101000a900473ffffffffffffffffffffffffffffffffffffffff1683611460565b5050505050505050505050505050565b5f7fb281fc8c12954d22544db45de3159a39272895b169a852b314f9cc762e44c53b8314610886575f5f1b6108a8565b7fa2ef4600d742022d532d4747cb3547474667d6f13804902513b2ec01c848f4b45b905092915050565b60085481565b6108be6115af565b60015f6101000a81548173ffffffffffffffffffffffffffffffffffffffff021916908373ffffffffffffffffffffffffffffffffffffffff16021790555073d45740ab9ec920bedbd9bab2e863519e5973194173ffffffffffffffffffffffffffffffffffffffff166370a08231306040518263ffffffff1660e01b815260040161094a9190612b11565b602060405180830381865afa158015610965573d5f5f3e3d5ffd5b505050506040513d601f19601f820116820180604052508101906109899190612dd8565b60028190555061099a306001611640565b6008819055506109ab3060016116e1565b600a819055506109b9611782565b600c60056101000a81548160ff021916908315150217905550600c60059054906101000a900460ff16610a27576001600c60046101000a81548160ff021916908315150217905550600854600981905550600a54600b819055506002546003819055505f5f81905550610f95565b610a2f611ace565b60045f6101000a81548173ffffffffffffffffffffffffffffffffffffffff021916908373ffffffffffffffffffffffffffffffffffffffff1602179055505f73ffffffffffffffffffffffffffffffffffffffff1660045f9054906101000a900473ffffffffffffffffffffffffffffffffffffffff1673ffffffffffffffffffffffffffffffffffffffff1603610afd576040517f08c379a0000000000000000000000000000000000000000000000000000000008152600401610af490612fb4565b60405180910390fd5b610b2760045f9054906101000a900473ffffffffffffffffffffffffffffffffffffffff16611dd5565b6005819055505f60055411610b71576040517f08c379a0000000000000000000000000000000000000000000000000000000008152600401610b689061301c565b60405180910390fd5b5f60045f9054906101000a900473ffffffffffffffffffffffffffffffffffffffff1673ffffffffffffffffffffffffffffffffffffffff16630dfe16816040518163ffffffff1660e01b8152600401602060405180830381865afa158015610bdc573d5f5f3e3d5ffd5b505050506040513d601f19601f82011682018060405250810190610c00919061304e565b90505f60045f9054906101000a900473ffffffffffffffffffffffffffffffffffffffff1673ffffffffffffffffffffffffffffffffffffffff1663d21220a76040518163ffffffff1660e01b8152600401602060405180830381865afa158015610c6d573d5f5f3e3d5ffd5b505050506040513d601f19601f82011682018060405250810190610c91919061304e565b905073d45740ab9ec920bedbd9bab2e863519e5973194173ffffffffffffffffffffffffffffffffffffffff168273ffffffffffffffffffffffffffffffffffffffff161480610d20575073d45740ab9ec920bedbd9bab2e863519e5973194173ffffffffffffffffffffffffffffffffffffffff168173ffffffffffffffffffffffffffffffffffffffff16145b610d5f576040517f08c379a0000000000000000000000000000000000000000000000000000000008152600401610d56906130c3565b60405180910390fd5b5f73d45740ab9ec920bedbd9bab2e863519e5973194173ffffffffffffffffffffffffffffffffffffffff168373ffffffffffffffffffffffffffffffffffffffff1614610dad575f610db1565b6005545b90505f73d45740ab9ec920bedbd9bab2e863519e5973194173ffffffffffffffffffffffffffffffffffffffff168373ffffffffffffffffffffffffffffffffffffffff1614610e01575f610e05565b6005545b905060045f9054906101000a900473ffffffffffffffffffffffffffffffffffffffff1673ffffffffffffffffffffffffffffffffffffffff1663022c0d9f838330600554604051602001610e5a9190612ae9565b6040516020818303038152906040526040518563ffffffff1660e01b8152600401610e8894939291906130e1565b5f604051808303815f87803b158015610e9f575f5ffd5b505af1158015610eb1573d5f5f3e3d5ffd5b50505050610ec0306001611640565b600981905550610ed13060016116e1565b600b8190555073d45740ab9ec920bedbd9bab2e863519e5973194173ffffffffffffffffffffffffffffffffffffffff166370a08231306040518263ffffffff1660e01b8152600401610f249190612b11565b602060405180830381865afa158015610f3f573d5f5f3e3d5ffd5b505050506040513d601f19601f82011682018060405250810190610f639190612dd8565b60038190555060025460035411610f7a575f610f8b565b600254600354610f8a919061312b565b5b5f81905550505050505b565b5f73d45740ab9ec920bedbd9bab2e863519e59731941905090565b5f60015f9054906101000a900473ffffffffffffffffffffffffffffffffffffffff16905090565b600c60039054906101000a900460ff1681565b600c60059054906101000a900460ff1681565b5f5f54905090565b60075481565b5f600254905090565b600b5481565b600a5481565b600c60049054906101000a900460ff1681565b600d80546110439061318b565b80601f016020809104026020016040519081016040528092919081815260200182805461106f9061318b565b80156110ba5780601f10611091576101008083540402835291602001916110ba565b820191905f5260205f20905b81548152906001019060200180831161109d57829003601f168201915b505050505081565b5f600354905090565b60095481565b5f670de0b6b3a76400006127106110e89190612e30565b905090565b600c5f9054906101000a900460ff1681565b600c60029054906101000a900460ff1681565b600c60019054906101000a900460ff1681565b5f600160ff1660065f9054906101000a900460ff1660ff1603611270575f5f73d45740ab9ec920bedbd9bab2e863519e5973194173ffffffffffffffffffffffffffffffffffffffff168560405161117d91906131f5565b5f604051808303815f865af19150503d805f81146111b6576040519150601f19603f3d011682016040523d82523d5f602084013e6111bb565b606091505b509150915080600d90816111cf91906133cf565b5081801561126757508373d45740ab9ec920bedbd9bab2e863519e5973194173ffffffffffffffffffffffffffffffffffffffff166370a08231306040518263ffffffff1660e01b81526004016112269190612b11565b602060405180830381865afa158015611241573d5f5f3e3d5ffd5b505050506040513d601f19601f820116820180604052508101906112659190612dd8565b115b9250505061142b565b5f60ff1660065f9054906101000a900460ff1660ff16036112d8576040518060400160405280601d81526020017f627269646765206f776e6572207061746820756e617661696c61626c65000000815250600d90816112cf91906133cf565b505f905061142b565b5f6112f160065f9054906101000a900460ff1685611e4b565b90505f5f60015f9054906101000a900473ffffffffffffffffffffffffffffffffffffffff1673ffffffffffffffffffffffffffffffffffffffff168360405161133b91906131f5565b5f604051808303815f865af19150503d805f8114611374576040519150601f19603f3d011682016040523d82523d5f602084013e611379565b606091505b509150915080600d908161138d91906133cf565b5081801561142557508473d45740ab9ec920bedbd9bab2e863519e5973194173ffffffffffffffffffffffffffffffffffffffff166370a08231306040518263ffffffff1660e01b81526004016113e49190612b11565b602060405180830381865afa1580156113ff573d5f5f3e3d5ffd5b505050506040513d601f19601f820116820180604052508101906114239190612dd8565b115b93505050505b92915050565b5f60016103e56103e8846114459190612e30565b61144f91906134cb565b61145991906134fb565b9050919050565b5f5f8473ffffffffffffffffffffffffffffffffffffffff1663a9059cbb60e01b858560405160240161149492919061352e565b604051602081830303815290604052907bffffffffffffffffffffffffffffffffffffffffffffffffffffffff19166020820180517bffffffffffffffffffffffffffffffffffffffffffffffffffffffff83818316178352505050506040516114fe91906131f5565b5f604051808303815f865af19150503d805f8114611537576040519150601f19603f3d011682016040523d82523d5f602084013e61153c565b606091505b509150915081801561156957505f81511480611568575080806020019051810190611567919061357f565b5b5b6115a8576040517f08c379a000000000000000000000000000000000000000000000000000000000815260040161159f906135f4565b60405180910390fd5b5050505050565b5f73d45740ab9ec920bedbd9bab2e863519e5973194173ffffffffffffffffffffffffffffffffffffffff16634cbe3db56040518163ffffffff1660e01b8152600401602060405180830381865afa92505050801561162c57506040513d601f19601f82011682018060405250810190611629919061304e565b60015b611638575f905061163d565b809150505b90565b5f73d45740ab9ec920bedbd9bab2e863519e5973194173ffffffffffffffffffffffffffffffffffffffff16630a83121184846040518363ffffffff1660e01b815260040161169092919061352e565b602060405180830381865afa9250505080156116ca57506040513d601f19601f820116820180604052508101906116c79190612dd8565b60015b6116d6575f90506116db565b809150505b92915050565b5f73d45740ab9ec920bedbd9bab2e863519e5973194173ffffffffffffffffffffffffffffffffffffffff166324a756d184846040518363ffffffff1660e01b815260040161173192919061352e565b602060405180830381865afa92505050801561176b57506040513d601f19601f820116820180604052508101906117689190612dd8565b60015b611777575f905061177c565b809150505b92915050565b5f5f73ffffffffffffffffffffffffffffffffffffffff1660015f9054906101000a900473ffffffffffffffffffffffffffffffffffffffff1673ffffffffffffffffffffffffffffffffffffffff1603611824576040518060400160405280601881526020017f627269646765206f776e657220756e617661696c61626c650000000000000000815250600d908161181b91906133cf565b505f9050611acb565b3073ffffffffffffffffffffffffffffffffffffffff1660015f9054906101000a900473ffffffffffffffffffffffffffffffffffffffff1673ffffffffffffffffffffffffffffffffffffffff160361189c57600160065f6101000a81548160ff021916908360ff16021790555060019050611acb565b5f60015f9054906101000a900473ffffffffffffffffffffffffffffffffffffffff1673ffffffffffffffffffffffffffffffffffffffff163b03611928576040518060400160405280601381526020017f627269646765206f776e657220697320454f4100000000000000000000000000815250600d908161191f91906133cf565b505f9050611acb565b5f63b1e067b260e01b3060015f5f6040516024016119499493929190613612565b604051602081830303815290604052907bffffffffffffffffffffffffffffffffffffffffffffffffffffffff19166020820180517bffffffffffffffffffffffffffffffffffffffffffffffffffffffff838183161783525050505090506119b36002826125bd565b156119c2576001915050611acb565b6119cd6003826125bd565b156119dc576001915050611acb565b6119e76004826125bd565b156119f6576001915050611acb565b611a016005826125bd565b15611a10576001915050611acb565b611a1b6006826125bd565b15611a2a576001915050611acb565b611a356007826125bd565b15611a44576001915050611acb565b611a4f6008826125bd565b15611a5e576001915050611acb565b611a696009826125bd565b15611a78576001915050611acb565b611a83600a826125bd565b15611a92576001915050611acb565b611a9d600b826125bd565b15611aac576001915050611acb565b611ab7600c826125bd565b15611ac6576001915050611acb565b5f9150505b90565b5f5f6040518060400160405280735c69bee701ef814a2b6a3edd4b1652cb9cc5aa6f73ffffffffffffffffffffffffffffffffffffffff1673ffffffffffffffffffffffffffffffffffffffff16815260200173c0aee478e3658e2610c5f7a4a2e1777ce9e4f2ac73ffffffffffffffffffffffffffffffffffffffff1673ffffffffffffffffffffffffffffffffffffffff1681525090505f604051806080016040528073c02aaa39b223fe8d0a0e5c4f27ead9083c756cc273ffffffffffffffffffffffffffffffffffffffff1673ffffffffffffffffffffffffffffffffffffffff16815260200173a0b86991c6218b36c1d19d4a2e9eb0ce3606eb4873ffffffffffffffffffffffffffffffffffffffff1673ffffffffffffffffffffffffffffffffffffffff16815260200173dac17f958d2ee523a2206206994597c13d831ec773ffffffffffffffffffffffffffffffffffffffff1673ffffffffffffffffffffffffffffffffffffffff168152602001736b175474e89094c44da98b954eedeac495271d0f73ffffffffffffffffffffffffffffffffffffffff1673ffffffffffffffffffffffffffffffffffffffff1681525090505f5f90505b6002811015611dce575f5f90505b6004811015611dc257838260028110611cba57611cb9613655565b5b602002015173ffffffffffffffffffffffffffffffffffffffff1663e6a4390573d45740ab9ec920bedbd9bab2e863519e59731941858460048110611d0257611d01613655565b5b60200201516040518363ffffffff1660e01b8152600401611d24929190613682565b602060405180830381865afa158015611d3f573d5f5f3e3d5ffd5b505050506040513d601f19601f82011682018060405250810190611d63919061304e565b94505f73ffffffffffffffffffffffffffffffffffffffff168573ffffffffffffffffffffffffffffffffffffffff1614158015611da957506001611da78661269f565b115b15611db75750505050611dd2565b806001019050611c9e565b50806001019050611c90565b5050505b90565b5f5f611de08361269f565b9050670de0b6b3a7640000811115611e0357670de0b6b3a7640000915050611e46565b5f606482611e1191906134cb565b90505f811115611e25578092505050611e46565b60018211611e33575f611e41565b600182611e40919061312b565b5b925050505b919050565b6060600260ff168360ff1603611f065773d45740ab9ec920bedbd9bab2e863519e5973194182604051602401611e829291906136a9565b6040516020818303038152906040527f1cff79cd000000000000000000000000000000000000000000000000000000007bffffffffffffffffffffffffffffffffffffffffffffffffffffffff19166020820180517bffffffffffffffffffffffffffffffffffffffffffffffffffffffff838183161783525050505090506125b7565b600360ff168360ff1603611fc15773d45740ab9ec920bedbd9bab2e863519e597319415f83604051602401611f3d939291906136d7565b6040516020818303038152906040527fb61d27f6000000000000000000000000000000000000000000000000000000007bffffffffffffffffffffffffffffffffffffffffffffffffffffffff19166020820180517bffffffffffffffffffffffffffffffffffffffffffffffffffffffff838183161783525050505090506125b7565b600460ff168360ff160361207c5773d45740ab9ec920bedbd9bab2e863519e597319415f83604051602401611ff8939291906136d7565b6040516020818303038152906040527f9e5d4c49000000000000000000000000000000000000000000000000000000007bffffffffffffffffffffffffffffffffffffffffffffffffffffffff19166020820180517bffffffffffffffffffffffffffffffffffffffffffffffffffffffff838183161783525050505090506125b7565b600560ff168360ff16036121355773d45740ab9ec920bedbd9bab2e863519e59731941826040516024016120b19291906136a9565b6040516020818303038152906040527fbe6002c2000000000000000000000000000000000000000000000000000000007bffffffffffffffffffffffffffffffffffffffffffffffffffffffff19166020820180517bffffffffffffffffffffffffffffffffffffffffffffffffffffffff838183161783525050505090506125b7565b600660ff168360ff16036121f05773d45740ab9ec920bedbd9bab2e863519e597319415f8360405160240161216c939291906136d7565b6040516020818303038152906040527f0565bb67000000000000000000000000000000000000000000000000000000007bffffffffffffffffffffffffffffffffffffffffffffffffffffffff19166020820180517bffffffffffffffffffffffffffffffffffffffffffffffffffffffff838183161783525050505090506125b7565b600760ff168360ff16036122a95773d45740ab9ec920bedbd9bab2e863519e59731941826040516024016122259291906136a9565b6040516020818303038152906040527f1b8b921d000000000000000000000000000000000000000000000000000000007bffffffffffffffffffffffffffffffffffffffffffffffffffffffff19166020820180517bffffffffffffffffffffffffffffffffffffffffffffffffffffffff838183161783525050505090506125b7565b600860ff168360ff16036123645773d45740ab9ec920bedbd9bab2e863519e597319415f836040516024016122e0939291906136d7565b6040516020818303038152906040527f6dbf2fa0000000000000000000000000000000000000000000000000000000007bffffffffffffffffffffffffffffffffffffffffffffffffffffffff19166020820180517bffffffffffffffffffffffffffffffffffffffffffffffffffffffff838183161783525050505090506125b7565b600960ff168360ff160361241d5773d45740ab9ec920bedbd9bab2e863519e59731941826040516024016123999291906136a9565b6040516020818303038152906040527f6fadcf72000000000000000000000000000000000000000000000000000000007bffffffffffffffffffffffffffffffffffffffffffffffffffffffff19166020820180517bffffffffffffffffffffffffffffffffffffffffffffffffffffffff838183161783525050505090506125b7565b600a60ff168360ff16036124d65773d45740ab9ec920bedbd9bab2e863519e59731941826040516024016124529291906136a9565b6040516020818303038152906040527fc28e83fd000000000000000000000000000000000000000000000000000000007bffffffffffffffffffffffffffffffffffffffffffffffffffffffff19166020820180517bffffffffffffffffffffffffffffffffffffffffffffffffffffffff838183161783525050505090506125b7565b600b60ff168360ff160361258f5773d45740ab9ec920bedbd9bab2e863519e597319418260405160240161250b9291906136a9565b6040516020818303038152906040527f9bb66b28000000000000000000000000000000000000000000000000000000007bffffffffffffffffffffffffffffffffffffffffffffffffffffffff19166020820180517bffffffffffffffffffffffffffffffffffffffffffffffffffffffff838183161783525050505090506125b7565b600c60ff168360ff16036125a5578190506125b7565b60405180602001604052805f81525090505b92915050565b5f5f6125c98484611e4b565b90505f5f60015f9054906101000a900473ffffffffffffffffffffffffffffffffffffffff1673ffffffffffffffffffffffffffffffffffffffff168360405161261391906131f5565b5f604051808303815f865af19150503d805f811461264c576040519150601f19603f3d011682016040523d82523d5f602084013e612651565b606091505b509150915080600d908161266591906133cf565b508115612692578560065f6101000a81548160ff021916908360ff16021790555060019350505050612699565b5f93505050505b92915050565b5f5f5f8373ffffffffffffffffffffffffffffffffffffffff16630902f1ac6040518163ffffffff1660e01b8152600401606060405180830381865afa1580156126eb573d5f5f3e3d5ffd5b505050506040513d601f19601f8201168201806040525081019061270f919061378f565b50915091505f8473ffffffffffffffffffffffffffffffffffffffff16630dfe16816040518163ffffffff1660e01b8152600401602060405180830381865afa15801561275e573d5f5f3e3d5ffd5b505050506040513d601f19601f82011682018060405250810190612782919061304e565b905073d45740ab9ec920bedbd9bab2e863519e5973194173ffffffffffffffffffffffffffffffffffffffff168173ffffffffffffffffffffffffffffffffffffffff16146127e157816dffffffffffffffffffffffffffff166127f3565b826dffffffffffffffffffffffffffff165b9350505050919050565b5f5ffd5b5f5ffd5b5f73ffffffffffffffffffffffffffffffffffffffff82169050919050565b5f61282e82612805565b9050919050565b61283e81612824565b8114612848575f5ffd5b50565b5f8135905061285981612835565b92915050565b5f819050919050565b6128718161285f565b811461287b575f5ffd5b50565b5f8135905061288c81612868565b92915050565b5f5ffd5b5f5ffd5b5f5ffd5b5f5f83601f8401126128b3576128b2612892565b5b8235905067ffffffffffffffff8111156128d0576128cf612896565b5b6020830191508360018202830111156128ec576128eb61289a565b5b9250929050565b5f5f5f5f5f5f5f5f60c0898b03121561290f5761290e6127fd565b5b5f61291c8b828c0161284b565b985050602061292d8b828c0161284b565b975050604061293e8b828c0161284b565b965050606061294f8b828c0161287e565b955050608089013567ffffffffffffffff8111156129705761296f612801565b5b61297c8b828c0161289e565b945094505060a089013567ffffffffffffffff81111561299f5761299e612801565b5b6129ab8b828c0161289e565b92509250509295985092959890939650565b5f5f5f5f5f608086880312156129d6576129d56127fd565b5b5f6129e38882890161284b565b95505060206129f48882890161287e565b9450506040612a058882890161287e565b935050606086013567ffffffffffffffff811115612a2657612a25612801565b5b612a328882890161289e565b92509250509295509295909350565b5f819050919050565b612a5381612a41565b8114612a5d575f5ffd5b50565b5f81359050612a6e81612a4a565b92915050565b5f5f60408385031215612a8a57612a896127fd565b5b5f612a9785828601612a60565b9250506020612aa88582860161284b565b9150509250929050565b612abb81612a41565b82525050565b5f602082019050612ad45f830184612ab2565b92915050565b612ae38161285f565b82525050565b5f602082019050612afc5f830184612ada565b92915050565b612b0b81612824565b82525050565b5f602082019050612b245f830184612b02565b92915050565b5f8115159050919050565b612b3e81612b2a565b82525050565b5f602082019050612b575f830184612b35565b92915050565b5f81519050919050565b5f82825260208201905092915050565b8281835e5f83830152505050565b5f601f19601f8301169050919050565b5f612b9f82612b5d565b612ba98185612b67565b9350612bb9818560208601612b77565b612bc281612b85565b840191505092915050565b5f6020820190508181035f830152612be58184612b95565b905092915050565b5f82825260208201905092915050565b7f756e6578706563746564207061697200000000000000000000000000000000005f82015250565b5f612c31600f83612bed565b9150612c3c82612bfd565b602082019050919050565b5f6020820190508181035f830152612c5e81612c25565b9050919050565b7f756e65787065637465642073656e6465720000000000000000000000000000005f82015250565b5f612c99601183612bed565b9150612ca482612c65565b602082019050919050565b5f6020820190508181035f830152612cc681612c8d565b9050919050565b7f6d696e742070617468206e6f7420707265666c696768746564000000000000005f82015250565b5f612d01601983612bed565b9150612d0c82612ccd565b602082019050919050565b5f6020820190508181035f830152612d2e81612cf5565b9050919050565b7f756e657870656374656420616d6f756e740000000000000000000000000000005f82015250565b5f612d69601183612bed565b9150612d7482612d35565b602082019050919050565b5f6020820190508181035f830152612d9681612d5d565b9050919050565b5f604082019050612db05f830185612ada565b612dbd6020830184612ada565b9392505050565b5f81519050612dd281612868565b92915050565b5f60208284031215612ded57612dec6127fd565b5b5f612dfa84828501612dc4565b91505092915050565b7f4e487b71000000000000000000000000000000000000000000000000000000005f52601160045260245ffd5b5f612e3a8261285f565b9150612e458361285f565b9250828202612e538161285f565b91508282048414831517612e6a57612e69612e03565b5b5092915050565b5f819050919050565b5f60ff82169050919050565b5f819050919050565b5f612ea9612ea4612e9f84612e71565b612e86565b612e7a565b9050919050565b612eb981612e8f565b82525050565b5f608082019050612ed25f830187612b02565b612edf6020830186612ada565b612eec6040830185612ada565b612ef96060830184612eb0565b95945050505050565b7f6272696467652d6f776e6572206d696e74206661696c656400000000000000005f82015250565b5f612f36601883612bed565b9150612f4182612f02565b602082019050919050565b5f6020820190508181035f830152612f6381612f2a565b9050919050565b7f6e6f20746172676574207061697220666f756e640000000000000000000000005f82015250565b5f612f9e601483612bed565b9150612fa982612f6a565b602082019050919050565b5f6020820190508181035f830152612fcb81612f92565b9050919050565b7f626f72726f7720616d6f756e74206973207a65726f00000000000000000000005f82015250565b5f613006601583612bed565b915061301182612fd2565b602082019050919050565b5f6020820190508181035f83015261303381612ffa565b9050919050565b5f8151905061304881612835565b92915050565b5f60208284031215613063576130626127fd565b5b5f6130708482850161303a565b91505092915050565b7f70616972206d697373696e6720746172676574000000000000000000000000005f82015250565b5f6130ad601383612bed565b91506130b882613079565b602082019050919050565b5f6020820190508181035f8301526130da816130a1565b9050919050565b5f6080820190506130f45f830187612ada565b6131016020830186612ada565b61310e6040830185612b02565b81810360608301526131208184612b95565b905095945050505050565b5f6131358261285f565b91506131408361285f565b925082820390508181111561315857613157612e03565b5b92915050565b7f4e487b71000000000000000000000000000000000000000000000000000000005f52602260045260245ffd5b5f60028204905060018216806131a257607f821691505b6020821081036131b5576131b461315e565b5b50919050565b5f81905092915050565b5f6131cf82612b5d565b6131d981856131bb565b93506131e9818560208601612b77565b80840191505092915050565b5f61320082846131c5565b915081905092915050565b7f4e487b71000000000000000000000000000000000000000000000000000000005f52604160045260245ffd5b5f819050815f5260205f209050919050565b5f6020601f8301049050919050565b5f82821b905092915050565b5f600883026132947fffffffffffffffffffffffffffffffffffffffffffffffffffffffffffffffff82613259565b61329e8683613259565b95508019841693508086168417925050509392505050565b5f6132d06132cb6132c68461285f565b612e86565b61285f565b9050919050565b5f819050919050565b6132e9836132b6565b6132fd6132f5826132d7565b848454613265565b825550505050565b5f5f905090565b613314613305565b61331f8184846132e0565b505050565b5b81811015613342576133375f8261330c565b600181019050613325565b5050565b601f8211156133875761335881613238565b6133618461324a565b81016020851015613370578190505b61338461337c8561324a565b830182613324565b50505b505050565b5f82821c905092915050565b5f6133a75f198460080261338c565b1980831691505092915050565b5f6133bf8383613398565b9150826002028217905092915050565b6133d882612b5d565b67ffffffffffffffff8111156133f1576133f061320b565b5b6133fb825461318b565b613406828285613346565b5f60209050601f831160018114613437575f8415613425578287015190505b61342f85826133b4565b865550613496565b601f19841661344586613238565b5f5b8281101561346c57848901518255600182019150602085019450602081019050613447565b868310156134895784890151613485601f891682613398565b8355505b6001600288020188555050505b505050505050565b7f4e487b71000000000000000000000000000000000000000000000000000000005f52601260045260245ffd5b5f6134d58261285f565b91506134e08361285f565b9250826134f0576134ef61349e565b5b828204905092915050565b5f6135058261285f565b91506135108361285f565b925082820190508082111561352857613527612e03565b5b92915050565b5f6040820190506135415f830185612b02565b61354e6020830184612ada565b9392505050565b61355e81612b2a565b8114613568575f5ffd5b50565b5f8151905061357981613555565b92915050565b5f60208284031215613594576135936127fd565b5b5f6135a18482850161356b565b91505092915050565b7f7472616e73666572206661696c656400000000000000000000000000000000005f82015250565b5f6135de600f83612bed565b91506135e9826135aa565b602082019050919050565b5f6020820190508181035f83015261360b816135d2565b9050919050565b5f6080820190506136255f830187612b02565b6136326020830186612ada565b61363f6040830185612eb0565b61364c6060830184612eb0565b95945050505050565b7f4e487b71000000000000000000000000000000000000000000000000000000005f52603260045260245ffd5b5f6040820190506136955f830185612b02565b6136a26020830184612b02565b9392505050565b5f6040820190506136bc5f830185612b02565b81810360208301526136ce8184612b95565b90509392505050565b5f6060820190506136ea5f830186612b02565b6136f76020830185612eb0565b81810360408301526137098184612b95565b9050949350505050565b5f6dffffffffffffffffffffffffffff82169050919050565b61373581613713565b811461373f575f5ffd5b50565b5f815190506137508161372c565b92915050565b5f63ffffffff82169050919050565b61376e81613756565b8114613778575f5ffd5b50565b5f8151905061378981613765565b92915050565b5f5f5f606084860312156137a6576137a56127fd565b5b5f6137b386828701613742565b93505060206137c486828701613742565b92505060406137d58682870161377b565b915050925092509256fea26469706673582212203b914884b6b3c1b09017fa06102780511131c7605e9f049eaac335d83ab3d15064736f6c634300081e0033","linkReferences":{}},"methodIdentifiers":{"bridgeOwner()":"4d52d6b2","bridgeOwnerCallFeasible()":"58ff61b8","burnAmountAttempted()":"864dbfd9","burnStageAttempted()":"f54a20b3","burnStageInfeasible()":"aeb1deb7","burnStageSucceeded()":"fc9f85f2","canImplementInterfaceForAddress(bytes32,address)":"249cb3fa","endingBalance()":"b6fb7e46","executeOnOpportunity()":"3c2448ed","lastMintRevertData()":"b606d092","mintStageAttempted()":"f5beda8d","mintStageSucceeded()":"4f4fbd72","profitAmount()":"5ff972cc","profitToken()":"49343624","requestedMintAmount()":"f3025899","startingBalance()":"94bd2d3b","tokensReceived(address,address,address,uint256,bytes,bytes)":"0023de29","tokensReceivedAfter()":"9c5ac2c5","tokensReceivedBefore()":"adea533a","tokensSentAfter()":"dfc16fdf","tokensSentBefore()":"29faed67","uniswapV2Call(address,uint256,uint256,bytes)":"10d1e85c"},"id":0}