{"abi":[{"type":"constructor","inputs":[],"stateMutability":"nonpayable"},{"type":"function","name":"executeOnOpportunity","inputs":[],"outputs":[],"stateMutability":"nonpayable"},{"type":"function","name":"exploitPath","inputs":[],"outputs":[{"name":"","type":"string","internalType":"string"}],"stateMutability":"pure"},{"type":"function","name":"hypothesisValidated","inputs":[],"outputs":[{"name":"","type":"bool","internalType":"bool"}],"stateMutability":"view"},{"type":"function","name":"profitAmount","inputs":[],"outputs":[{"name":"","type":"uint256","internalType":"uint256"}],"stateMutability":"view"},{"type":"function","name":"profitToken","inputs":[],"outputs":[{"name":"","type":"address","internalType":"address"}],"stateMutability":"pure"},{"type":"function","name":"target","inputs":[],"outputs":[{"name":"","type":"address","internalType":"address"}],"stateMutability":"pure"}],"bytecode":{"object":"0x6080604052348015600e575f5ffd5b50614aef8061001c5f395ff3fe608060405234801561000f575f5ffd5b5060043610610060575f3560e01c80633c2448ed14610064578063463defd11461006e578063493436241461008c5780635ff972cc146100aa578063cb707c62146100c8578063d4b83992146100e6575b5f5ffd5b61006c610104565b005b610076610449565b60405161008391906104e2565b60405180910390f35b61009461045d565b6040516100a1919061053a565b60405180910390f35b6100b2610478565b6040516100bf919061056b565b60405180910390f35b6100d0610480565b6040516100dd91906105f4565b60405180910390f35b6100ee6104a0565b6040516100fb919061053a565b60405180910390f35b60015f9054906101000a900460ff16610447576001805f6101000a81548160ff0219169083151502179055505f3060405161013e906104bb565b610148919061053a565b604051809103905ff080158015610161573d5f5f3e3d5ffd5b5090505f73c02aaa39b223fe8d0a0e5c4f27ead9083c756cc273ffffffffffffffffffffffffffffffffffffffff166370a08231306040518263ffffffff1660e01b81526004016101b2919061053a565b602060405180830381865afa1580156101cd573d5f5f3e3d5ffd5b505050506040513d601f19601f820116820180604052508101906101f19190610642565b90505f811461038f5773c02aaa39b223fe8d0a0e5c4f27ead9083c756cc273ffffffffffffffffffffffffffffffffffffffff1663a9059cbb83836040518363ffffffff1660e01b815260040161024992919061066d565b6020604051808303815f875af1158015610265573d5f5f3e3d5ffd5b505050506040513d601f19601f8201168201806040525081019061028991906106be565b6102c8576040517f08c379a00000000000000000000000000000000000000000000000000000000081526004016102bf90610733565b60405180910390fd5b8173ffffffffffffffffffffffffffffffffffffffff1663c00499ab826040518263ffffffff1660e01b8152600401610301919061056b565b6020604051808303815f875af192505050801561033c57506040513d601f19601f820116820180604052508101906103399190610642565b60015b610364575f5f819055505f6001806101000a81548160ff021916908315150217905550610388565b805f819055505f8114156001806101000a81548160ff021916908315150217905550505b5050610447565b8173ffffffffffffffffffffffffffffffffffffffff16637f5364ef6040518163ffffffff1660e01b81526004016020604051808303815f875af19250505080156103f857506040513d601f19601f820116820180604052508101906103f59190610642565b60015b610420575f5f819055505f6001806101000a81548160ff021916908315150217905550610444565b805f819055505f8114156001806101000a81548160ff021916908315150217905550505b50505b565b5f60018054906101000a900460ff16905090565b5f73c02aaa39b223fe8d0a0e5c4f27ead9083c756cc2905090565b5f5f54905090565b60606040518060e0016040528060b78152602001614a0360b79139905090565b5f73eda47e13fd1192e32226753dc2261c4a14908fb7905090565b6142b18061075283390190565b5f8115159050919050565b6104dc816104c8565b82525050565b5f6020820190506104f55f8301846104d3565b92915050565b5f73ffffffffffffffffffffffffffffffffffffffff82169050919050565b5f610524826104fb565b9050919050565b6105348161051a565b82525050565b5f60208201905061054d5f83018461052b565b92915050565b5f819050919050565b61056581610553565b82525050565b5f60208201905061057e5f83018461055c565b92915050565b5f81519050919050565b5f82825260208201905092915050565b8281835e5f83830152505050565b5f601f19601f8301169050919050565b5f6105c682610584565b6105d0818561058e565b93506105e081856020860161059e565b6105e9816105ac565b840191505092915050565b5f6020820190508181035f83015261060c81846105bc565b905092915050565b5f5ffd5b61062181610553565b811461062b575f5ffd5b50565b5f8151905061063c81610618565b92915050565b5f6020828403121561065757610656610614565b5b5f6106648482850161062e565b91505092915050565b5f6040820190506106805f83018561052b565b61068d602083018461055c565b9392505050565b61069d816104c8565b81146106a7575f5ffd5b50565b5f815190506106b881610694565b92915050565b5f602082840312156106d3576106d2610614565b5b5f6106e0848285016106aa565b91505092915050565b7f73656564207472616e73666572206661696c65640000000000000000000000005f82015250565b5f61071d60148361058e565b9150610728826106e9565b602082019050919050565b5f6020820190508181035f83015261074a81610711565b905091905056fe60c060405234801561000f575f5ffd5b506040516142b13803806142b18339818101604052810190610031919061013a565b8073ffffffffffffffffffffffffffffffffffffffff1660808173ffffffffffffffffffffffffffffffffffffffff168152505030604051610072906100cf565b61007c9190610174565b604051809103905ff080158015610095573d5f5f3e3d5ffd5b5073ffffffffffffffffffffffffffffffffffffffff1660a08173ffffffffffffffffffffffffffffffffffffffff16815250505061018d565b61089580613a1c83390190565b5f5ffd5b5f73ffffffffffffffffffffffffffffffffffffffff82169050919050565b5f610109826100e0565b9050919050565b610119816100ff565b8114610123575f5ffd5b50565b5f8151905061013481610110565b92915050565b5f6020828403121561014f5761014e6100dc565b5b5f61015c84828501610126565b91505092915050565b61016e816100ff565b82525050565b5f6020820190506101875f830184610165565b92915050565b60805160a05161380c6102105f395f8181610101015281816114d90152818161159f0152818161195f01528181611a5601528181611b1301528181611cb701528181611dae01528181611e6b01528181611f42015261203001525f818161043d015281816109de01528181610aab01528181610ad0015261122a015261380c5ff3fe608060405234801561000f575f5ffd5b5060043610610055575f3560e01c80630c0a15f91461005957806310d1e85c146100775780637f5364ef146100935780638da5cb5b146100b1578063c00499ab146100cf575b5f5ffd5b6100616100ff565b60405161006e91906127a0565b60405180910390f35b610091600480360381019061008c9190612899565b610123565b005b61009b61043a565b6040516100a8919061292c565b60405180910390f35b6100b9610aa9565b6040516100c69190612954565b60405180910390f35b6100e960048036038101906100e4919061296d565b610acd565b6040516100f6919061292c565b60405180910390f35b7f000000000000000000000000000000000000000000000000000000000000000081565b5f5f9054906101000a900473ffffffffffffffffffffffffffffffffffffffff1673ffffffffffffffffffffffffffffffffffffffff163373ffffffffffffffffffffffffffffffffffffffff161415806101aa57503073ffffffffffffffffffffffffffffffffffffffff168573ffffffffffffffffffffffffffffffffffffffff1614155b156101e1576040517ff7a632f500000000000000000000000000000000000000000000000000000000815260040160405180910390fd5b5f5f85146101ef57846101f1565b835b90505f8383810190610203919061296d565b9050808214610247576040517f08c379a000000000000000000000000000000000000000000000000000000000815260040161023e906129f2565b60405180910390fd5b61024f610b7a565b5f60016103e56103e8856102639190612a3d565b61026d9190612aab565b6102779190612adb565b90505f73c02aaa39b223fe8d0a0e5c4f27ead9083c756cc273ffffffffffffffffffffffffffffffffffffffff166370a08231306040518263ffffffff1660e01b81526004016102c79190612954565b602060405180830381865afa1580156102e2573d5f5f3e3d5ffd5b505050506040513d601f19601f820116820180604052508101906103069190612b22565b9050818111610341576040517fa5adf0af00000000000000000000000000000000000000000000000000000000815260040160405180910390fd5b73c02aaa39b223fe8d0a0e5c4f27ead9083c756cc273ffffffffffffffffffffffffffffffffffffffff1663a9059cbb5f5f9054906101000a900473ffffffffffffffffffffffffffffffffffffffff16846040518363ffffffff1660e01b81526004016103b0929190612b4d565b6020604051808303815f875af11580156103cc573d5f5f3e3d5ffd5b505050506040513d601f19601f820116820180604052508101906103f09190612ba9565b61042f576040517f08c379a000000000000000000000000000000000000000000000000000000000815260040161042690612c1e565b60405180910390fd5b505050505050505050565b5f7f000000000000000000000000000000000000000000000000000000000000000073ffffffffffffffffffffffffffffffffffffffff163373ffffffffffffffffffffffffffffffffffffffff16146104c9576040517f08c379a00000000000000000000000000000000000000000000000000000000081526004016104c090612c86565b60405180910390fd5b5f735c69bee701ef814a2b6a3edd4b1652cb9cc5aa6f73ffffffffffffffffffffffffffffffffffffffff1663e6a4390573c02aaa39b223fe8d0a0e5c4f27ead9083c756cc273a0b86991c6218b36c1d19d4a2e9eb0ce3606eb486040518363ffffffff1660e01b8152600401610541929190612ca4565b602060405180830381865afa15801561055c573d5f5f3e3d5ffd5b505050506040513d601f19601f820116820180604052508101906105809190612cdf565b90505f73ffffffffffffffffffffffffffffffffffffffff168173ffffffffffffffffffffffffffffffffffffffff16036105e7576040517f63a68e8e00000000000000000000000000000000000000000000000000000000815260040160405180910390fd5b805f5f6101000a81548173ffffffffffffffffffffffffffffffffffffffff021916908373ffffffffffffffffffffffffffffffffffffffff1602179055505f73eda47e13fd1192e32226753dc2261c4a14908fb773ffffffffffffffffffffffffffffffffffffffff166349bd5a5e6040518163ffffffff1660e01b8152600401602060405180830381865afa158015610684573d5f5f3e3d5ffd5b505050506040513d601f19601f820116820180604052508101906106a89190612cdf565b90505f5f6106ca8373c02aaa39b223fe8d0a0e5c4f27ead9083c756cc2610d41565b915091505f6106d7610fda565b90505f6106e582858561107b565b9050600160646069836106f89190612a3d565b6107029190612aab565b61070c9190612adb565b905073c02aaa39b223fe8d0a0e5c4f27ead9083c756cc273ffffffffffffffffffffffffffffffffffffffff168673ffffffffffffffffffffffffffffffffffffffff16630dfe16816040518163ffffffff1660e01b8152600401602060405180830381865afa158015610782573d5f5f3e3d5ffd5b505050506040513d601f19601f820116820180604052508101906107a69190612cdf565b73ffffffffffffffffffffffffffffffffffffffff1603610851578573ffffffffffffffffffffffffffffffffffffffff1663022c0d9f825f30856040516020016107f1919061292c565b6040516020818303038152906040526040518563ffffffff1660e01b815260040161081f9493929190612db3565b5f604051808303815f87803b158015610836575f5ffd5b505af1158015610848573d5f5f3e3d5ffd5b505050506108dd565b8573ffffffffffffffffffffffffffffffffffffffff1663022c0d9f5f833085604051602001610881919061292c565b6040516020818303038152906040526040518563ffffffff1660e01b81526004016108af9493929190612dfd565b5f604051808303815f87803b1580156108c6575f5ffd5b505af11580156108d8573d5f5f3e3d5ffd5b505050505b5f73c02aaa39b223fe8d0a0e5c4f27ead9083c756cc273ffffffffffffffffffffffffffffffffffffffff166370a08231306040518263ffffffff1660e01b815260040161092b9190612954565b602060405180830381865afa158015610946573d5f5f3e3d5ffd5b505050506040513d601f19601f8201168201806040525081019061096a9190612b22565b90505f81036109a5576040517fa5adf0af00000000000000000000000000000000000000000000000000000000815260040160405180910390fd5b8060028190555073c02aaa39b223fe8d0a0e5c4f27ead9083c756cc273ffffffffffffffffffffffffffffffffffffffff1663a9059cbb7f0000000000000000000000000000000000000000000000000000000000000000836040518363ffffffff1660e01b8152600401610a1b929190612b4d565b6020604051808303815f875af1158015610a37573d5f5f3e3d5ffd5b505050506040513d601f19601f82011682018060405250810190610a5b9190612ba9565b610a9a576040517f08c379a0000000000000000000000000000000000000000000000000000000008152600401610a9190612e91565b60405180910390fd5b60025497505050505050505090565b7f000000000000000000000000000000000000000000000000000000000000000081565b5f7f000000000000000000000000000000000000000000000000000000000000000073ffffffffffffffffffffffffffffffffffffffff163373ffffffffffffffffffffffffffffffffffffffff1614610b5c576040517f08c379a0000000000000000000000000000000000000000000000000000000008152600401610b5390612c86565b60405180910390fd5b81600181905550610b6b610b7a565b610b73611119565b9050919050565b73c02aaa39b223fe8d0a0e5c4f27ead9083c756cc273ffffffffffffffffffffffffffffffffffffffff1663095ea7b3737a250d5630b4cf539739df2c5dacb4c659f2488d7fffffffffffffffffffffffffffffffffffffffffffffffffffffffffffffffff6040518363ffffffff1660e01b8152600401610bfd929190612b4d565b6020604051808303815f875af1158015610c19573d5f5f3e3d5ffd5b505050506040513d601f19601f82011682018060405250810190610c3d9190612ba9565b5073eda47e13fd1192e32226753dc2261c4a14908fb773ffffffffffffffffffffffffffffffffffffffff1663095ea7b3737a250d5630b4cf539739df2c5dacb4c659f2488d7fffffffffffffffffffffffffffffffffffffffffffffffffffffffffffffffff6040518363ffffffff1660e01b8152600401610cc1929190612b4d565b6020604051808303815f875af1158015610cdd573d5f5f3e3d5ffd5b505050506040513d601f19601f82011682018060405250810190610d019190612ba9565b50633b9aca00610fa0610d149190612a3d565b610d1c6112ef565b10610d2a57610d29611395565b5b5f610d33611696565b9050610d3e816117d6565b50565b5f5f5f5f8573ffffffffffffffffffffffffffffffffffffffff16630902f1ac6040518163ffffffff1660e01b8152600401606060405180830381865afa158015610d8e573d5f5f3e3d5ffd5b505050506040513d601f19601f82011682018060405250810190610db29190612f2b565b50915091508473ffffffffffffffffffffffffffffffffffffffff168673ffffffffffffffffffffffffffffffffffffffff16630dfe16816040518163ffffffff1660e01b8152600401602060405180830381865afa158015610e17573d5f5f3e3d5ffd5b505050506040513d601f19601f82011682018060405250810190610e3b9190612cdf565b73ffffffffffffffffffffffffffffffffffffffff1603610e8157816dffffffffffffffffffffffffffff169350806dffffffffffffffffffffffffffff169250610f82565b8473ffffffffffffffffffffffffffffffffffffffff168673ffffffffffffffffffffffffffffffffffffffff1663d21220a76040518163ffffffff1660e01b8152600401602060405180830381865afa158015610ee1573d5f5f3e3d5ffd5b505050506040513d601f19601f82011682018060405250810190610f059190612cdf565b73ffffffffffffffffffffffffffffffffffffffff1614610f5b576040517f08c379a0000000000000000000000000000000000000000000000000000000008152600401610f5290612fc5565b60405180910390fd5b806dffffffffffffffffffffffffffff169350816dffffffffffffffffffffffffffff1692505b5f8414158015610f9257505f8314155b610fd1576040517f08c379a0000000000000000000000000000000000000000000000000000000008152600401610fc89061302d565b60405180910390fd5b50509250929050565b5f5f611000611400611900611f40612710610ff59190612adb565b610fff9190612adb565b6110099190612adb565b6110139190612adb565b612710633b9aca0060fa6110279190612a3d565b633b9aca00610fa06110399190612a3d565b611043919061304b565b61104d9190612a3d565b6110579190612aab565b905080633b9aca00601961106b9190612a3d565b6110759190612adb565b91505090565b5f8184106110be576040517f08c379a00000000000000000000000000000000000000000000000000000000081526004016110b5906130c8565b60405180910390fd5b5f6103e885856110ce9190612a3d565b6110d89190612a3d565b90505f6103e586856110ea919061304b565b6110f49190612a3d565b9050600181836111049190612aab565b61110e9190612adb565b925050509392505050565b5f5f73c02aaa39b223fe8d0a0e5c4f27ead9083c756cc273ffffffffffffffffffffffffffffffffffffffff166370a08231306040518263ffffffff1660e01b81526004016111689190612954565b602060405180830381865afa158015611183573d5f5f3e3d5ffd5b505050506040513d601f19601f820116820180604052508101906111a79190612b22565b905060015481116111e4576040517fa5adf0af00000000000000000000000000000000000000000000000000000000815260040160405180910390fd5b600154816111f2919061304b565b60028190555073c02aaa39b223fe8d0a0e5c4f27ead9083c756cc273ffffffffffffffffffffffffffffffffffffffff1663a9059cbb7f0000000000000000000000000000000000000000000000000000000000000000836040518363ffffffff1660e01b8152600401611267929190612b4d565b6020604051808303815f875af1158015611283573d5f5f3e3d5ffd5b505050506040513d601f19601f820116820180604052508101906112a79190612ba9565b6112e6576040517f08c379a00000000000000000000000000000000000000000000000000000000081526004016112dd90613130565b60405180910390fd5b60025491505090565b5f73eda47e13fd1192e32226753dc2261c4a14908fb773ffffffffffffffffffffffffffffffffffffffff166370a0823173eda47e13fd1192e32226753dc2261c4a14908fb76040518263ffffffff1660e01b81526004016113519190612954565b602060405180830381865afa15801561136c573d5f5f3e3d5ffd5b505050506040513d601f19601f820116820180604052508101906113909190612b22565b905090565b6113ae633b9aca0060196113a99190612a3d565b612343565b6113b661257d565b5f73eda47e13fd1192e32226753dc2261c4a14908fb773ffffffffffffffffffffffffffffffffffffffff166370a08231306040518263ffffffff1660e01b81526004016114049190612954565b602060405180830381865afa15801561141f573d5f5f3e3d5ffd5b505050506040513d601f19601f820116820180604052508101906114439190612b22565b90505f810361147e576040517fe64fe60700000000000000000000000000000000000000000000000000000000815260040160405180910390fd5b5f612710611f40836114909190612a3d565b61149a9190612aab565b90505f81036114a7578190505b73eda47e13fd1192e32226753dc2261c4a14908fb773ffffffffffffffffffffffffffffffffffffffff1663a9059cbb7f0000000000000000000000000000000000000000000000000000000000000000836040518363ffffffff1660e01b8152600401611516929190612b4d565b6020604051808303815f875af1158015611532573d5f5f3e3d5ffd5b505050506040513d601f19601f820116820180604052508101906115569190612ba9565b611595576040517f08c379a000000000000000000000000000000000000000000000000000000000815260040161158c90613198565b60405180910390fd5b61159d61257d565b7f000000000000000000000000000000000000000000000000000000000000000073ffffffffffffffffffffffffffffffffffffffff16635c996d4273eda47e13fd1192e32226753dc2261c4a14908fb7306040518363ffffffff1660e01b815260040161160c929190612ca4565b5f604051808303815f87803b158015611623575f5ffd5b505af1158015611635573d5f5f3e3d5ffd5b5050505061164161257d565b633b9aca00610fa06116539190612a3d565b61165b6112ef565b10611692576040517fe64fe60700000000000000000000000000000000000000000000000000000000815260040160405180910390fd5b5050565b5f5f6116a06112ef565b9050633b9aca00610fa06116b49190612a3d565b633b9aca0060fa6116c59190612a3d565b826116d09190612adb565b10611707576040517f7f92965100000000000000000000000000000000000000000000000000000000815260040160405180910390fd5b5f633b9aca0060fa6117199190612a3d565b82633b9aca00610fa061172c9190612a3d565b611736919061304b565b611740919061304b565b9050611000611400611900611f4061271061175b9190612adb565b6117659190612adb565b61176f9190612adb565b6117799190612adb565b612710826117879190612a3d565b6117919190612aab565b9250633b9aca008310156117d1576040517f7f92965100000000000000000000000000000000000000000000000000000000815260040160405180910390fd5b505090565b6117df81612343565b6117e761257d565b5f612710611f40836117f99190612a3d565b6118039190612aab565b90505f612710611900846118179190612a3d565b6118219190612aab565b90505f612710611400856118359190612a3d565b61183f9190612aab565b90505f612710611000866118539190612a3d565b61185d9190612aab565b90508373eda47e13fd1192e32226753dc2261c4a14908fb773ffffffffffffffffffffffffffffffffffffffff166370a08231306040518263ffffffff1660e01b81526004016118ad9190612954565b602060405180830381865afa1580156118c8573d5f5f3e3d5ffd5b505050506040513d601f19601f820116820180604052508101906118ec9190612b22565b101561192d576040517f08c379a000000000000000000000000000000000000000000000000000000000815260040161192490613200565b60405180910390fd5b73eda47e13fd1192e32226753dc2261c4a14908fb773ffffffffffffffffffffffffffffffffffffffff1663a9059cbb7f0000000000000000000000000000000000000000000000000000000000000000866040518363ffffffff1660e01b815260040161199c929190612b4d565b6020604051808303815f875af11580156119b8573d5f5f3e3d5ffd5b505050506040513d601f19601f820116820180604052508101906119dc9190612ba9565b611a1b576040517f08c379a0000000000000000000000000000000000000000000000000000000008152600401611a1290613268565b60405180910390fd5b611a2361257d565b8273eda47e13fd1192e32226753dc2261c4a14908fb773ffffffffffffffffffffffffffffffffffffffff166370a082317f00000000000000000000000000000000000000000000000000000000000000006040518263ffffffff1660e01b8152600401611a919190612954565b602060405180830381865afa158015611aac573d5f5f3e3d5ffd5b505050506040513d601f19601f82011682018060405250810190611ad09190612b22565b1015611b11576040517f08c379a0000000000000000000000000000000000000000000000000000000008152600401611b08906132d0565b60405180910390fd5b7f000000000000000000000000000000000000000000000000000000000000000073ffffffffffffffffffffffffffffffffffffffff1663be8dacae73eda47e13fd1192e32226753dc2261c4a14908fb730866040518463ffffffff1660e01b8152600401611b82939291906132ee565b5f604051808303815f87803b158015611b99575f5ffd5b505af1158015611bab573d5f5f3e3d5ffd5b50505050611bb761257d565b8173eda47e13fd1192e32226753dc2261c4a14908fb773ffffffffffffffffffffffffffffffffffffffff166370a08231306040518263ffffffff1660e01b8152600401611c059190612954565b602060405180830381865afa158015611c20573d5f5f3e3d5ffd5b505050506040513d601f19601f82011682018060405250810190611c449190612b22565b1015611c85576040517f08c379a0000000000000000000000000000000000000000000000000000000008152600401611c7c9061336d565b60405180910390fd5b73eda47e13fd1192e32226753dc2261c4a14908fb773ffffffffffffffffffffffffffffffffffffffff1663a9059cbb7f0000000000000000000000000000000000000000000000000000000000000000846040518363ffffffff1660e01b8152600401611cf4929190612b4d565b6020604051808303815f875af1158015611d10573d5f5f3e3d5ffd5b505050506040513d601f19601f82011682018060405250810190611d349190612ba9565b611d73576040517f08c379a0000000000000000000000000000000000000000000000000000000008152600401611d6a906133d5565b60405180910390fd5b611d7b61257d565b8073eda47e13fd1192e32226753dc2261c4a14908fb773ffffffffffffffffffffffffffffffffffffffff166370a082317f00000000000000000000000000000000000000000000000000000000000000006040518263ffffffff1660e01b8152600401611de99190612954565b602060405180830381865afa158015611e04573d5f5f3e3d5ffd5b505050506040513d601f19601f82011682018060405250810190611e289190612b22565b1015611e69576040517f08c379a0000000000000000000000000000000000000000000000000000000008152600401611e609061343d565b60405180910390fd5b7f000000000000000000000000000000000000000000000000000000000000000073ffffffffffffffffffffffffffffffffffffffff1663be8dacae73eda47e13fd1192e32226753dc2261c4a14908fb730846040518463ffffffff1660e01b8152600401611eda939291906132ee565b5f604051808303815f87803b158015611ef1575f5ffd5b505af1158015611f03573d5f5f3e3d5ffd5b50505050611f0f61257d565b5f73eda47e13fd1192e32226753dc2261c4a14908fb773ffffffffffffffffffffffffffffffffffffffff166370a082317f00000000000000000000000000000000000000000000000000000000000000006040518263ffffffff1660e01b8152600401611f7d9190612954565b602060405180830381865afa158015611f98573d5f5f3e3d5ffd5b505050506040513d601f19601f82011682018060405250810190611fbc9190612b22565b90505f611fc76112ef565b90505f82141580156120295750633b9aca00610fa0611fe69190612a3d565b633b9aca0060fa611ff79190612a3d565b6127106103e8856120089190612a3d565b6120129190612aab565b8361201d9190612adb565b6120279190612adb565b105b156120d3577f000000000000000000000000000000000000000000000000000000000000000073ffffffffffffffffffffffffffffffffffffffff16635c996d4273eda47e13fd1192e32226753dc2261c4a14908fb7306040518363ffffffff1660e01b815260040161209d929190612ca4565b5f604051808303815f87803b1580156120b4575f5ffd5b505af11580156120c6573d5f5f3e3d5ffd5b505050506120d261257d565b5b5f73eda47e13fd1192e32226753dc2261c4a14908fb773ffffffffffffffffffffffffffffffffffffffff166370a08231306040518263ffffffff1660e01b81526004016121219190612954565b602060405180830381865afa15801561213c573d5f5f3e3d5ffd5b505050506040513d601f19601f820116820180604052508101906121609190612b22565b90505f81036121a4576040517f08c379a000000000000000000000000000000000000000000000000000000000815260040161219b906134a5565b60405180910390fd5b5f600267ffffffffffffffff8111156121c0576121bf6134c3565b5b6040519080825280602002602001820160405280156121ee5781602001602082028036833780820191505090505b50905073eda47e13fd1192e32226753dc2261c4a14908fb7815f81518110612219576122186134f0565b5b602002602001019073ffffffffffffffffffffffffffffffffffffffff16908173ffffffffffffffffffffffffffffffffffffffff168152505073c02aaa39b223fe8d0a0e5c4f27ead9083c756cc28160018151811061227c5761227b6134f0565b5b602002602001019073ffffffffffffffffffffffffffffffffffffffff16908173ffffffffffffffffffffffffffffffffffffffff1681525050737a250d5630b4cf539739df2c5dacb4c659f2488d73ffffffffffffffffffffffffffffffffffffffff16635c11d795835f8430426040518663ffffffff1660e01b815260040161230b9594939291906135d4565b5f604051808303815f87803b158015612322575f5ffd5b505af1158015612334573d5f5f3e3d5ffd5b50505050505050505050505050565b5f600267ffffffffffffffff81111561235f5761235e6134c3565b5b60405190808252806020026020018201604052801561238d5781602001602082028036833780820191505090505b50905073c02aaa39b223fe8d0a0e5c4f27ead9083c756cc2815f815181106123b8576123b76134f0565b5b602002602001019073ffffffffffffffffffffffffffffffffffffffff16908173ffffffffffffffffffffffffffffffffffffffff168152505073eda47e13fd1192e32226753dc2261c4a14908fb78160018151811061241b5761241a6134f0565b5b602002602001019073ffffffffffffffffffffffffffffffffffffffff16908173ffffffffffffffffffffffffffffffffffffffff1681525050737a250d5630b4cf539739df2c5dacb4c659f2488d73ffffffffffffffffffffffffffffffffffffffff16638803dbee8373c02aaa39b223fe8d0a0e5c4f27ead9083c756cc273ffffffffffffffffffffffffffffffffffffffff166370a08231306040518263ffffffff1660e01b81526004016124d39190612954565b602060405180830381865afa1580156124ee573d5f5f3e3d5ffd5b505050506040513d601f19601f820116820180604052508101906125129190612b22565b8430426040518663ffffffff1660e01b815260040161253595949392919061362c565b5f604051808303815f875af1158015612550573d5f5f3e3d5ffd5b505050506040513d5f823e3d601f19601f82011682018060405250810190612578919061378f565b505050565b5f73eda47e13fd1192e32226753dc2261c4a14908fb773ffffffffffffffffffffffffffffffffffffffff166349bd5a5e6040518163ffffffff1660e01b8152600401602060405180830381865afa1580156125db573d5f5f3e3d5ffd5b505050506040513d601f19601f820116820180604052508101906125ff9190612cdf565b90505f6126208273eda47e13fd1192e32226753dc2261c4a14908fb7610d41565b5090505f73eda47e13fd1192e32226753dc2261c4a14908fb773ffffffffffffffffffffffffffffffffffffffff166370a08231846040518263ffffffff1660e01b81526004016126719190612954565b602060405180830381865afa15801561268c573d5f5f3e3d5ffd5b505050506040513d601f19601f820116820180604052508101906126b09190612b22565b905081811115612721578273ffffffffffffffffffffffffffffffffffffffff1663bc25cf77306040518263ffffffff1660e01b81526004016126f39190612954565b5f604051808303815f87803b15801561270a575f5ffd5b505af115801561271c573d5f5f3e3d5ffd5b505050505b505050565b5f73ffffffffffffffffffffffffffffffffffffffff82169050919050565b5f819050919050565b5f61276861276361275e84612726565b612745565b612726565b9050919050565b5f6127798261274e565b9050919050565b5f61278a8261276f565b9050919050565b61279a81612780565b82525050565b5f6020820190506127b35f830184612791565b92915050565b5f604051905090565b5f5ffd5b5f5ffd5b5f6127d482612726565b9050919050565b6127e4816127ca565b81146127ee575f5ffd5b50565b5f813590506127ff816127db565b92915050565b5f819050919050565b61281781612805565b8114612821575f5ffd5b50565b5f813590506128328161280e565b92915050565b5f5ffd5b5f5ffd5b5f5ffd5b5f5f83601f84011261285957612858612838565b5b8235905067ffffffffffffffff8111156128765761287561283c565b5b60208301915083600182028301111561289257612891612840565b5b9250929050565b5f5f5f5f5f608086880312156128b2576128b16127c2565b5b5f6128bf888289016127f1565b95505060206128d088828901612824565b94505060406128e188828901612824565b935050606086013567ffffffffffffffff811115612902576129016127c6565b5b61290e88828901612844565b92509250509295509295909350565b61292681612805565b82525050565b5f60208201905061293f5f83018461291d565b92915050565b61294e816127ca565b82525050565b5f6020820190506129675f830184612945565b92915050565b5f60208284031215612982576129816127c2565b5b5f61298f84828501612824565b91505092915050565b5f82825260208201905092915050565b7f626f72726f77206d69736d6174636800000000000000000000000000000000005f82015250565b5f6129dc600f83612998565b91506129e7826129a8565b602082019050919050565b5f6020820190508181035f830152612a09816129d0565b9050919050565b7f4e487b71000000000000000000000000000000000000000000000000000000005f52601160045260245ffd5b5f612a4782612805565b9150612a5283612805565b9250828202612a6081612805565b91508282048414831517612a7757612a76612a10565b5b5092915050565b7f4e487b71000000000000000000000000000000000000000000000000000000005f52601260045260245ffd5b5f612ab582612805565b9150612ac083612805565b925082612ad057612acf612a7e565b5b828204905092915050565b5f612ae582612805565b9150612af083612805565b9250828201905080821115612b0857612b07612a10565b5b92915050565b5f81519050612b1c8161280e565b92915050565b5f60208284031215612b3757612b366127c2565b5b5f612b4484828501612b0e565b91505092915050565b5f604082019050612b605f830185612945565b612b6d602083018461291d565b9392505050565b5f8115159050919050565b612b8881612b74565b8114612b92575f5ffd5b50565b5f81519050612ba381612b7f565b92915050565b5f60208284031215612bbe57612bbd6127c2565b5b5f612bcb84828501612b95565b91505092915050565b7f7265706179206661696c656400000000000000000000000000000000000000005f82015250565b5f612c08600c83612998565b9150612c1382612bd4565b602082019050919050565b5f6020820190508181035f830152612c3581612bfc565b9050919050565b7f6f6e6c79206f776e6572000000000000000000000000000000000000000000005f82015250565b5f612c70600a83612998565b9150612c7b82612c3c565b602082019050919050565b5f6020820190508181035f830152612c9d81612c64565b9050919050565b5f604082019050612cb75f830185612945565b612cc46020830184612945565b9392505050565b5f81519050612cd9816127db565b92915050565b5f60208284031215612cf457612cf36127c2565b5b5f612d0184828501612ccb565b91505092915050565b5f819050919050565b5f612d2d612d28612d2384612d0a565b612745565b612805565b9050919050565b612d3d81612d13565b82525050565b5f81519050919050565b5f82825260208201905092915050565b8281835e5f83830152505050565b5f601f19601f8301169050919050565b5f612d8582612d43565b612d8f8185612d4d565b9350612d9f818560208601612d5d565b612da881612d6b565b840191505092915050565b5f608082019050612dc65f83018761291d565b612dd36020830186612d34565b612de06040830185612945565b8181036060830152612df28184612d7b565b905095945050505050565b5f608082019050612e105f830187612d34565b612e1d602083018661291d565b612e2a6040830185612945565b8181036060830152612e3c8184612d7b565b905095945050505050565b7f70726f666974207472616e73666572206661696c6564000000000000000000005f82015250565b5f612e7b601683612998565b9150612e8682612e47565b602082019050919050565b5f6020820190508181035f830152612ea881612e6f565b9050919050565b5f6dffffffffffffffffffffffffffff82169050919050565b612ed181612eaf565b8114612edb575f5ffd5b50565b5f81519050612eec81612ec8565b92915050565b5f63ffffffff82169050919050565b612f0a81612ef2565b8114612f14575f5ffd5b50565b5f81519050612f2581612f01565b92915050565b5f5f5f60608486031215612f4257612f416127c2565b5b5f612f4f86828701612ede565b9350506020612f6086828701612ede565b9250506040612f7186828701612f17565b9150509250925092565b7f746f6b656e206d69736d617463680000000000000000000000000000000000005f82015250565b5f612faf600e83612998565b9150612fba82612f7b565b602082019050919050565b5f6020820190508181035f830152612fdc81612fa3565b9050919050565b7f656d7074792072657365727665730000000000000000000000000000000000005f82015250565b5f613017600e83612998565b915061302282612fe3565b602082019050919050565b5f6020820190508181035f8301526130448161300b565b9050919050565b5f61305582612805565b915061306083612805565b925082820390508181111561307857613077612a10565b5b92915050565b7f696e73756666696369656e742072657365727665206f757400000000000000005f82015250565b5f6130b2601883612998565b91506130bd8261307e565b602082019050919050565b5f6020820190508181035f8301526130df816130a6565b9050919050565b7f6361706974616c2072657475726e206661696c656400000000000000000000005f82015250565b5f61311a601583612998565b9150613125826130e6565b602082019050919050565b5f6020820190508181035f8301526131478161310e565b9050919050565b7f636c65616e7570207472616e73666572206f7574206661696c656400000000005f82015250565b5f613182601b83612998565b915061318d8261314e565b602082019050919050565b5f6020820190508181035f8301526131af81613176565b9050919050565b7f696e73756666696369656e7420484f444c20666f7220737465703100000000005f82015250565b5f6131ea601b83612998565b91506131f5826131b6565b602082019050919050565b5f6020820190508181035f830152613217816131de565b9050919050565b7f7374657031206661696c656400000000000000000000000000000000000000005f82015250565b5f613252600c83612998565b915061325d8261321e565b602082019050919050565b5f6020820190508181035f83015261327f81613246565b9050919050565b7f696e73756666696369656e7420484f444c20666f7220737465703200000000005f82015250565b5f6132ba601b83612998565b91506132c582613286565b602082019050919050565b5f6020820190508181035f8301526132e7816132ae565b9050919050565b5f6060820190506133015f830186612945565b61330e6020830185612945565b61331b604083018461291d565b949350505050565b7f696e73756666696369656e7420484f444c20666f7220737465703300000000005f82015250565b5f613357601b83612998565b915061336282613323565b602082019050919050565b5f6020820190508181035f8301526133848161334b565b9050919050565b7f7374657033206661696c656400000000000000000000000000000000000000005f82015250565b5f6133bf600c83612998565b91506133ca8261338b565b602082019050919050565b5f6020820190508181035f8301526133ec816133b3565b9050919050565b7f696e73756666696369656e7420484f444c20666f7220737465703400000000005f82015250565b5f613427601b83612998565b9150613432826133f3565b602082019050919050565b5f6020820190508181035f8301526134548161341b565b9050919050565b7f6e6f20484f444c20746f2073656c6c00000000000000000000000000000000005f82015250565b5f61348f600f83612998565b915061349a8261345b565b602082019050919050565b5f6020820190508181035f8301526134bc81613483565b9050919050565b7f4e487b71000000000000000000000000000000000000000000000000000000005f52604160045260245ffd5b7f4e487b71000000000000000000000000000000000000000000000000000000005f52603260045260245ffd5b5f81519050919050565b5f82825260208201905092915050565b5f819050602082019050919050565b61354f816127ca565b82525050565b5f6135608383613546565b60208301905092915050565b5f602082019050919050565b5f6135828261351d565b61358c8185613527565b935061359783613537565b805f5b838110156135c75781516135ae8882613555565b97506135b98361356c565b92505060018101905061359a565b5085935050505092915050565b5f60a0820190506135e75f83018861291d565b6135f46020830187612d34565b81810360408301526136068186613578565b90506136156060830185612945565b613622608083018461291d565b9695505050505050565b5f60a08201905061363f5f83018861291d565b61364c602083018761291d565b818103604083015261365e8186613578565b905061366d6060830185612945565b61367a608083018461291d565b9695505050505050565b61368d82612d6b565b810181811067ffffffffffffffff821117156136ac576136ab6134c3565b5b80604052505050565b5f6136be6127b9565b90506136ca8282613684565b919050565b5f67ffffffffffffffff8211156136e9576136e86134c3565b5b602082029050602081019050919050565b5f61370c613707846136cf565b6136b5565b9050808382526020820190506020840283018581111561372f5761372e612840565b5b835b8181101561375857806137448882612b0e565b845260208401935050602081019050613731565b5050509392505050565b5f82601f83011261377657613775612838565b5b81516137868482602086016136fa565b91505092915050565b5f602082840312156137a4576137a36127c2565b5b5f82015167ffffffffffffffff8111156137c1576137c06127c6565b5b6137cd84828501613762565b9150509291505056fea2646970667358221220d7cb82204318cc63a47cef2c6f5a6f0463a977e205ae0497d3a10282711467b764736f6c634300081e003360a060405234801561000f575f5ffd5b50604051610895380380610895833981810160405281019061003191906100c9565b8073ffffffffffffffffffffffffffffffffffffffff1660808173ffffffffffffffffffffffffffffffffffffffff1681525050506100f4565b5f5ffd5b5f73ffffffffffffffffffffffffffffffffffffffff82169050919050565b5f6100988261006f565b9050919050565b6100a88161008e565b81146100b2575f5ffd5b50565b5f815190506100c38161009f565b92915050565b5f602082840312156100de576100dd61006b565b5b5f6100eb848285016100b5565b91505092915050565b60805161077c6101195f395f8181609b0152818161026b015261028f015261077c5ff3fe608060405234801561000f575f5ffd5b506004361061003f575f3560e01c80635c996d42146100435780638da5cb5b1461005f578063be8dacae1461007d575b5f5ffd5b61005d60048036038101906100589190610440565b610099565b005b610067610269565b604051610074919061048d565b60405180910390f35b610097600480360381019061009291906104d9565b61028d565b005b7f000000000000000000000000000000000000000000000000000000000000000073ffffffffffffffffffffffffffffffffffffffff163373ffffffffffffffffffffffffffffffffffffffff1614610127576040517f08c379a000000000000000000000000000000000000000000000000000000000815260040161011e90610583565b60405180910390fd5b5f8273ffffffffffffffffffffffffffffffffffffffff166370a08231306040518263ffffffff1660e01b8152600401610161919061048d565b602060405180830381865afa15801561017c573d5f5f3e3d5ffd5b505050506040513d601f19601f820116820180604052508101906101a091906105b5565b90505f8114610264578273ffffffffffffffffffffffffffffffffffffffff1663a9059cbb83836040518363ffffffff1660e01b81526004016101e49291906105ef565b6020604051808303815f875af1158015610200573d5f5f3e3d5ffd5b505050506040513d601f19601f82011682018060405250810190610224919061064b565b610263576040517f08c379a000000000000000000000000000000000000000000000000000000000815260040161025a906106c0565b60405180910390fd5b5b505050565b7f000000000000000000000000000000000000000000000000000000000000000081565b7f000000000000000000000000000000000000000000000000000000000000000073ffffffffffffffffffffffffffffffffffffffff163373ffffffffffffffffffffffffffffffffffffffff161461031b576040517f08c379a000000000000000000000000000000000000000000000000000000000815260040161031290610583565b60405180910390fd5b5f81146103dd578273ffffffffffffffffffffffffffffffffffffffff1663a9059cbb83836040518363ffffffff1660e01b815260040161035d9291906105ef565b6020604051808303815f875af1158015610379573d5f5f3e3d5ffd5b505050506040513d601f19601f8201168201806040525081019061039d919061064b565b6103dc576040517f08c379a00000000000000000000000000000000000000000000000000000000081526004016103d390610728565b60405180910390fd5b5b505050565b5f5ffd5b5f73ffffffffffffffffffffffffffffffffffffffff82169050919050565b5f61040f826103e6565b9050919050565b61041f81610405565b8114610429575f5ffd5b50565b5f8135905061043a81610416565b92915050565b5f5f60408385031215610456576104556103e2565b5b5f6104638582860161042c565b92505060206104748582860161042c565b9150509250929050565b61048781610405565b82525050565b5f6020820190506104a05f83018461047e565b92915050565b5f819050919050565b6104b8816104a6565b81146104c2575f5ffd5b50565b5f813590506104d3816104af565b92915050565b5f5f5f606084860312156104f0576104ef6103e2565b5b5f6104fd8682870161042c565b935050602061050e8682870161042c565b925050604061051f868287016104c5565b9150509250925092565b5f82825260208201905092915050565b7f6f6e6c79206f776e6572000000000000000000000000000000000000000000005f82015250565b5f61056d600a83610529565b915061057882610539565b602082019050919050565b5f6020820190508181035f83015261059a81610561565b9050919050565b5f815190506105af816104af565b92915050565b5f602082840312156105ca576105c96103e2565b5b5f6105d7848285016105a1565b91505092915050565b6105e9816104a6565b82525050565b5f6040820190506106025f83018561047e565b61060f60208301846105e0565b9392505050565b5f8115159050919050565b61062a81610616565b8114610634575f5ffd5b50565b5f8151905061064581610621565b92915050565b5f602082840312156106605761065f6103e2565b5b5f61066d84828501610637565b91505092915050565b7f73656e64416c6c206661696c65640000000000000000000000000000000000005f82015250565b5f6106aa600e83610529565b91506106b582610676565b602082019050919050565b5f6020820190508181035f8301526106d78161069e565b9050919050565b7f73656e64416d6f756e74206661696c65640000000000000000000000000000005f82015250565b5f610712601183610529565b915061071d826106de565b602082019050919050565b5f6020820190508181035f83015261073f81610706565b905091905056fea264697066735822122070b52c543146e9f896e1101a6821ba53d1141abc2e7237b3302c246a5ec70fdc64736f6c634300081e0033605f7472616e7366657260202d3e20605f746f6b656e5472616e7366657260202d3e20605f7472616e736665725374616e6461726460202d3e20605f67657456616c75657360202f20605f6765745256616c75657360202b20605f74616b655465616d603b206c6976652d6275636b657420636c65616e7570202d3e20746178656420627579202d3e2072657065617465642074617865642077616c6c6574207472616e7366657273202d3e2074617865642073656c6ca26469706673582212204c072730cae913bf03d58e56c78a9b0032415eada53c5d9195bc54c6a9e01adf64736f6c634300081e0033","linkReferences":{}},"methodIdentifiers":{"executeOnOpportunity()":"3c2448ed","exploitPath()":"cb707c62","hypothesisValidated()":"463defd1","profitAmount()":"5ff972cc","profitToken()":"49343624","target()":"d4b83992"},"id":0}