{"abi":[{"type":"constructor","inputs":[{"name":"owner_","type":"address","internalType":"address"}],"stateMutability":"nonpayable"},{"type":"function","name":"owner","inputs":[],"outputs":[{"name":"","type":"address","internalType":"address"}],"stateMutability":"view"},{"type":"function","name":"sendAll","inputs":[{"name":"token","type":"address","internalType":"address"},{"name":"to","type":"address","internalType":"address"}],"outputs":[],"stateMutability":"nonpayable"},{"type":"function","name":"sendAmount","inputs":[{"name":"token","type":"address","internalType":"address"},{"name":"to","type":"address","internalType":"address"},{"name":"amount","type":"uint256","internalType":"uint256"}],"outputs":[],"stateMutability":"nonpayable"}],"bytecode":{"object":"0x60a060405234801561000f575f5ffd5b50604051610895380380610895833981810160405281019061003191906100c9565b8073ffffffffffffffffffffffffffffffffffffffff1660808173ffffffffffffffffffffffffffffffffffffffff1681525050506100f4565b5f5ffd5b5f73ffffffffffffffffffffffffffffffffffffffff82169050919050565b5f6100988261006f565b9050919050565b6100a88161008e565b81146100b2575f5ffd5b50565b5f815190506100c38161009f565b92915050565b5f602082840312156100de576100dd61006b565b5b5f6100eb848285016100b5565b91505092915050565b60805161077c6101195f395f8181609b0152818161026b015261028f015261077c5ff3fe608060405234801561000f575f5ffd5b506004361061003f575f3560e01c80635c996d42146100435780638da5cb5b1461005f578063be8dacae1461007d575b5f5ffd5b61005d60048036038101906100589190610440565b610099565b005b610067610269565b604051610074919061048d565b60405180910390f35b610097600480360381019061009291906104d9565b61028d565b005b7f000000000000000000000000000000000000000000000000000000000000000073ffffffffffffffffffffffffffffffffffffffff163373ffffffffffffffffffffffffffffffffffffffff1614610127576040517f08c379a000000000000000000000000000000000000000000000000000000000815260040161011e90610583565b60405180910390fd5b5f8273ffffffffffffffffffffffffffffffffffffffff166370a08231306040518263ffffffff1660e01b8152600401610161919061048d565b602060405180830381865afa15801561017c573d5f5f3e3d5ffd5b505050506040513d601f19601f820116820180604052508101906101a091906105b5565b90505f8114610264578273ffffffffffffffffffffffffffffffffffffffff1663a9059cbb83836040518363ffffffff1660e01b81526004016101e49291906105ef565b6020604051808303815f875af1158015610200573d5f5f3e3d5ffd5b505050506040513d601f19601f82011682018060405250810190610224919061064b565b610263576040517f08c379a000000000000000000000000000000000000000000000000000000000815260040161025a906106c0565b60405180910390fd5b5b505050565b7f000000000000000000000000000000000000000000000000000000000000000081565b7f000000000000000000000000000000000000000000000000000000000000000073ffffffffffffffffffffffffffffffffffffffff163373ffffffffffffffffffffffffffffffffffffffff161461031b576040517f08c379a000000000000000000000000000000000000000000000000000000000815260040161031290610583565b60405180910390fd5b5f81146103dd578273ffffffffffffffffffffffffffffffffffffffff1663a9059cbb83836040518363ffffffff1660e01b815260040161035d9291906105ef565b6020604051808303815f875af1158015610379573d5f5f3e3d5ffd5b505050506040513d601f19601f8201168201806040525081019061039d919061064b565b6103dc576040517f08c379a00000000000000000000000000000000000000000000000000000000081526004016103d390610728565b60405180910390fd5b5b505050565b5f5ffd5b5f73ffffffffffffffffffffffffffffffffffffffff82169050919050565b5f61040f826103e6565b9050919050565b61041f81610405565b8114610429575f5ffd5b50565b5f8135905061043a81610416565b92915050565b5f5f60408385031215610456576104556103e2565b5b5f6104638582860161042c565b92505060206104748582860161042c565b9150509250929050565b61048781610405565b82525050565b5f6020820190506104a05f83018461047e565b92915050565b5f819050919050565b6104b8816104a6565b81146104c2575f5ffd5b50565b5f813590506104d3816104af565b92915050565b5f5f5f606084860312156104f0576104ef6103e2565b5b5f6104fd8682870161042c565b935050602061050e8682870161042c565b925050604061051f868287016104c5565b9150509250925092565b5f82825260208201905092915050565b7f6f6e6c79206f776e6572000000000000000000000000000000000000000000005f82015250565b5f61056d600a83610529565b915061057882610539565b602082019050919050565b5f6020820190508181035f83015261059a81610561565b9050919050565b5f815190506105af816104af565b92915050565b5f602082840312156105ca576105c96103e2565b5b5f6105d7848285016105a1565b91505092915050565b6105e9816104a6565b82525050565b5f6040820190506106025f83018561047e565b61060f60208301846105e0565b9392505050565b5f8115159050919050565b61062a81610616565b8114610634575f5ffd5b50565b5f8151905061064581610621565b92915050565b5f602082840312156106605761065f6103e2565b5b5f61066d84828501610637565b91505092915050565b7f73656e64416c6c206661696c65640000000000000000000000000000000000005f82015250565b5f6106aa600e83610529565b91506106b582610676565b602082019050919050565b5f6020820190508181035f8301526106d78161069e565b9050919050565b7f73656e64416d6f756e74206661696c65640000000000000000000000000000005f82015250565b5f610712601183610529565b915061071d826106de565b602082019050919050565b5f6020820190508181035f83015261073f81610706565b905091905056fea264697066735822122070b52c543146e9f896e1101a6821ba53d1141abc2e7237b3302c246a5ec70fdc64736f6c634300081e0033","linkReferences":{}},"methodIdentifiers":{"owner()":"8da5cb5b","sendAll(address,address)":"5c996d42","sendAmount(address,address,uint256)":"be8dacae"},"id":0}