{"abi":[{"type":"function","name":"balanceOf","inputs":[{"name":"account","type":"address","internalType":"address"}],"outputs":[{"name":"","type":"uint256","internalType":"uint256"}],"stateMutability":"view"},{"type":"function","name":"getFactor","inputs":[],"outputs":[{"name":"","type":"uint256","internalType":"uint256"}],"stateMutability":"view"},{"type":"function","name":"getLargeTotal","inputs":[],"outputs":[{"name":"","type":"uint256","internalType":"uint256"}],"stateMutability":"view"},{"type":"function","name":"getPresaleAddress","inputs":[],"outputs":[{"name":"","type":"address","internalType":"address"}],"stateMutability":"view"},{"type":"function","name":"isPresaleDone","inputs":[],"outputs":[{"name":"","type":"bool","internalType":"bool"}],"stateMutability":"view"},{"type":"function","name":"mint","inputs":[{"name":"","type":"address","internalType":"address"},{"name":"","type":"uint256","internalType":"uint256"}],"outputs":[],"stateMutability":"view"},{"type":"function","name":"owner","inputs":[],"outputs":[{"name":"","type":"address","internalType":"address"}],"stateMutability":"view"},{"type":"function","name":"pauseContract","inputs":[{"name":"","type":"bool","internalType":"bool"}],"outputs":[],"stateMutability":"view"},{"type":"function","name":"transfer","inputs":[{"name":"","type":"address","internalType":"address"},{"name":"","type":"uint256","internalType":"uint256"}],"outputs":[{"name":"","type":"bool","internalType":"bool"}],"stateMutability":"view"}],"bytecode":{"object":"0x6080604052348015600e575f5ffd5b506108cc8061001c5f395ff3fe608060405234801561000f575f5ffd5b5060043610610091575f3560e01c80638da5cb5b116100645780638da5cb5b1461011d578063927ac3861461013b578063a9059cbb14610159578063b72455bd14610189578063e272b892146101a757610091565b80633f96440e1461009557806340c10f19146100b35780635184cc43146100cf57806370a08231146100ed575b5f5ffd5b61009d6101c3565b6040516100aa91906104f6565b60405180910390f35b6100cd60048036038101906100c89190610570565b6101eb565b005b6100d76102ce565b6040516100e491906105bd565b60405180910390f35b610107600480360381019061010291906105d6565b610327565b60405161011491906105bd565b60405180910390f35b610125610384565b60405161013291906104f6565b60405180910390f35b6101436103ab565b604051610150919061061b565b60405180910390f35b610173600480360381019061016e9190610570565b6103c1565b604051610180919061061b565b60405180910390f35b6101916103d4565b60405161019e91906105bd565b60405180910390f35b6101c160048036038101906101bc919061065e565b6103dd565b005b5f60015f9054906101000a900473ffffffffffffffffffffffffffffffffffffffff16905090565b60015f9054906101000a900473ffffffffffffffffffffffffffffffffffffffff1673ffffffffffffffffffffffffffffffffffffffff163373ffffffffffffffffffffffffffffffffffffffff161461027a576040517f08c379a0000000000000000000000000000000000000000000000000000000008152600401610271906106e3565b60405180910390fd5b600160149054906101000a900460ff16156102ca576040517f08c379a00000000000000000000000000000000000000000000000000000000081526004016102c19061074b565b60405180910390fd5b5050565b5f600160149054906101000a900460ff161561030c575f600354036102f5575f9050610324565b6003546002546103059190610796565b9050610324565b66038d7ea4c680006002546103219190610796565b90505b90565b5f5f6103316102ce565b90508060045f8573ffffffffffffffffffffffffffffffffffffffff1673ffffffffffffffffffffffffffffffffffffffff1681526020019081526020015f205461037c9190610796565b915050919050565b5f5f5f9054906101000a900473ffffffffffffffffffffffffffffffffffffffff16905090565b5f600160149054906101000a900460ff16905090565b5f6103ca61046e565b6001905092915050565b5f600254905090565b5f5f9054906101000a900473ffffffffffffffffffffffffffffffffffffffff1673ffffffffffffffffffffffffffffffffffffffff163373ffffffffffffffffffffffffffffffffffffffff161461046b576040517f08c379a000000000000000000000000000000000000000000000000000000000815260040161046290610810565b60405180910390fd5b50565b6104766103ab565b6104b5576040517f08c379a00000000000000000000000000000000000000000000000000000000081526004016104ac90610878565b60405180910390fd5b565b5f73ffffffffffffffffffffffffffffffffffffffff82169050919050565b5f6104e0826104b7565b9050919050565b6104f0816104d6565b82525050565b5f6020820190506105095f8301846104e7565b92915050565b5f5ffd5b61051c816104d6565b8114610526575f5ffd5b50565b5f8135905061053781610513565b92915050565b5f819050919050565b61054f8161053d565b8114610559575f5ffd5b50565b5f8135905061056a81610546565b92915050565b5f5f604083850312156105865761058561050f565b5b5f61059385828601610529565b92505060206105a48582860161055c565b9150509250929050565b6105b78161053d565b82525050565b5f6020820190506105d05f8301846105ae565b92915050565b5f602082840312156105eb576105ea61050f565b5b5f6105f884828501610529565b91505092915050565b5f8115159050919050565b61061581610601565b82525050565b5f60208201905061062e5f83018461060c565b92915050565b61063d81610601565b8114610647575f5ffd5b50565b5f8135905061065881610634565b92915050565b5f602082840312156106735761067261050f565b5b5f6106808482850161064a565b91505092915050565b5f82825260208201905092915050565b7f6d73672e73656e646572203d3d206164647265737328302900000000000000005f82015250565b5f6106cd601883610689565b91506106d882610699565b602082019050919050565b5f6020820190508181035f8301526106fa816106c1565b9050919050565b7f50726573616c65206f76657200000000000000000000000000000000000000005f82015250565b5f610735600c83610689565b915061074082610701565b602082019050919050565b5f6020820190508181035f83015261076281610729565b9050919050565b7f4e487b71000000000000000000000000000000000000000000000000000000005f52601260045260245ffd5b5f6107a08261053d565b91506107ab8361053d565b9250826107bb576107ba610769565b5b828204905092915050565b7f4f776e61626c653a2063616c6c6572206973206e6f7420746865206f776e65725f82015250565b5f6107fa602083610689565b9150610805826107c6565b602082019050919050565b5f6020820190508181035f830152610827816107ee565b9050919050565b7f50726573616c652079657420746f20636c6f73650000000000000000000000005f82015250565b5f610862601483610689565b915061086d8261082e565b602082019050919050565b5f6020820190508181035f83015261088f81610856565b905091905056fea264697066735822122083e428482248d25ed999db61c7cdf8ed4794efe5a85dfdfb579f85e7f641784264736f6c634300081e0033","linkReferences":{}},"methodIdentifiers":{"balanceOf(address)":"70a08231","getFactor()":"5184cc43","getLargeTotal()":"b72455bd","getPresaleAddress()":"3f96440e","isPresaleDone()":"927ac386","mint(address,uint256)":"40c10f19","owner()":"8da5cb5b","pauseContract(bool)":"e272b892","transfer(address,uint256)":"a9059cbb"},"id":0}