{"abi":[{"type":"constructor","inputs":[],"stateMutability":"nonpayable"},{"type":"fallback","stateMutability":"payable"},{"type":"receive","stateMutability":"payable"},{"type":"function","name":"LINK","inputs":[],"outputs":[{"name":"","type":"address","internalType":"address"}],"stateMutability":"view"},{"type":"function","name":"TARGET","inputs":[],"outputs":[{"name":"","type":"address","internalType":"address"}],"stateMutability":"view"},{"type":"function","name":"downstreamCallObserved","inputs":[],"outputs":[{"name":"","type":"bool","internalType":"bool"}],"stateMutability":"view"},{"type":"function","name":"execute","inputs":[],"outputs":[],"stateMutability":"nonpayable"},{"type":"function","name":"executeOnOpportunity","inputs":[],"outputs":[],"stateMutability":"nonpayable"},{"type":"function","name":"executed","inputs":[],"outputs":[{"name":"","type":"bool","internalType":"bool"}],"stateMutability":"view"},{"type":"function","name":"exploit","inputs":[],"outputs":[],"stateMutability":"nonpayable"},{"type":"function","name":"finalAttackerLinkBalance","inputs":[],"outputs":[{"name":"","type":"uint256","internalType":"uint256"}],"stateMutability":"view"},{"type":"function","name":"finalVictimLinkBalance","inputs":[],"outputs":[{"name":"","type":"uint256","internalType":"uint256"}],"stateMutability":"view"},{"type":"function","name":"hypothesisRefuted","inputs":[],"outputs":[{"name":"","type":"bool","internalType":"bool"}],"stateMutability":"view"},{"type":"function","name":"hypothesisValidated","inputs":[],"outputs":[{"name":"","type":"bool","internalType":"bool"}],"stateMutability":"view"},{"type":"function","name":"initSucceeded","inputs":[],"outputs":[{"name":"","type":"bool","internalType":"bool"}],"stateMutability":"view"},{"type":"function","name":"lastCallbackData","inputs":[],"outputs":[{"name":"","type":"bytes","internalType":"bytes"}],"stateMutability":"view"},{"type":"function","name":"lastInitRevertData","inputs":[],"outputs":[{"name":"","type":"bytes","internalType":"bytes"}],"stateMutability":"view"},{"type":"function","name":"lastPayoutRevertData","inputs":[],"outputs":[{"name":"","type":"bytes","internalType":"bytes"}],"stateMutability":"view"},{"type":"function","name":"onTokenTransfer","inputs":[{"name":"sender","type":"address","internalType":"address"},{"name":"amount","type":"uint256","internalType":"uint256"},{"name":"data","type":"bytes","internalType":"bytes"}],"outputs":[],"stateMutability":"nonpayable"},{"type":"function","name":"payoutCallsAttempted","inputs":[],"outputs":[{"name":"","type":"uint256","internalType":"uint256"}],"stateMutability":"view"},{"type":"function","name":"payoutCallsSucceeded","inputs":[],"outputs":[{"name":"","type":"uint256","internalType":"uint256"}],"stateMutability":"view"},{"type":"function","name":"profitAmount","inputs":[],"outputs":[{"name":"","type":"uint256","internalType":"uint256"}],"stateMutability":"view"},{"type":"function","name":"profitToken","inputs":[],"outputs":[{"name":"","type":"address","internalType":"address"}],"stateMutability":"pure"},{"type":"function","name":"run","inputs":[],"outputs":[],"stateMutability":"nonpayable"},{"type":"function","name":"startingAttackerLinkBalance","inputs":[],"outputs":[{"name":"","type":"uint256","internalType":"uint256"}],"stateMutability":"view"},{"type":"function","name":"startingVictimLinkBalance","inputs":[],"outputs":[{"name":"","type":"uint256","internalType":"uint256"}],"stateMutability":"view"}],"bytecode":{"object":"0x60808060405234601557611091908161001a8239f35b5f80fdfe6080806040526004361015610011575b005b5f3560e01c9081631b6b6d231461072d575080631dc777711461070957806331a38c89146106e85780633c2448ed146102be5780633f2301b514610656578063463defd114610632578063493436241461060b578063495f92f1146105e857806357afbf03146105cb5780635ff972cc146105a957806361461954146102be57806363d9b770146102be57806365082b301461058c5780636fde51291461056f578063925d5c781461055257806395bfb68b1461052e578063965055f714610511578063a4c0ed36146102c3578063c0406226146102be578063c45d1859146102a1578063cc1f2afa14610273578063dbb58151146101e15763f44dabfb1461011657005b346101dd575f3660031901126101dd576040515f6009546101368161076a565b80845290600181169081156101b9575060011461016e575b61016a8361015e818503826107a2565b604051918291826107c4565b0390f35b60095f9081525f51602061103c5f395f51905f52939250905b80821061019f5750909150810160200161015e61014e565b919260018160209254838588010152019101909291610187565b60ff191660208086019190915291151560051b8401909101915061015e905061014e565b5f80fd5b346101dd575f3660031901126101dd576040515f600a546102018161076a565b80845290600181169081156101b957506001146102285761016a8361015e818503826107a2565b600a5f9081525f516020610fdc5f395f51905f52939250905b8082106102595750909150810160200161015e61014e565b919260018160209254838588010152019101909291610241565b346101dd575f3660031901126101dd57602060405173f340bd3eb3e82994cff5b8c3493245edbce634368152f35b346101dd575f3660031901126101dd576020600254604051908152f35b610752565b346101dd5760603660031901126101dd576004356001600160a01b038116908190036101dd576044359067ffffffffffffffff82116101dd57366023830112156101dd57816004013567ffffffffffffffff81116101dd5736602482850101116101dd575f516020610ffc5f395f51905f5233036104cc57610387918160a092602460405196879460208601528135604086015260608086015282608086015201848401375f838284010152601f801991011681010301601f1981018352826107a2565b805167ffffffffffffffff81116104b8576103a3600a5461076a565b601f8111610450575b50602091601f82116001146103e8579181925f926103dd575b50505f19600383901b1c191660019190911b17600a55005b0151905082806103c5565b601f19821692600a5f525f516020610fdc5f395f51905f52915f5b85811061043857508360019510610420575b505050811b01600a55005b01515f1960f88460031b161c19169055828080610415565b91926020600181928685015181550194019201610403565b600a5f52601f820160051c5f516020610fdc5f395f51905f520190602083106104a3575b601f0160051c5f516020610fdc5f395f51905f5201905b81811061049857506103ac565b5f815560010161048b565b5f516020610fdc5f395f51905f529150610474565b634e487b7160e01b5f52604160045260245ffd5b60405162461bcd60e51b815260206004820152601960248201527f756e657870656374656420746f6b656e2063616c6c6261636b000000000000006044820152606490fd5b346101dd575f3660031901126101dd576020600154604051908152f35b346101dd575f3660031901126101dd57602060ff5f5460081c166040519015158152f35b346101dd575f3660031901126101dd576020600454604051908152f35b346101dd575f3660031901126101dd576020600654604051908152f35b346101dd575f3660031901126101dd576020600554604051908152f35b346101dd575f3660031901126101dd5760206105c361080f565b604051908152f35b346101dd575f3660031901126101dd576020600354604051908152f35b346101dd575f3660031901126101dd57602060ff5f54821c166040519015158152f35b346101dd575f3660031901126101dd5760206040515f516020610ffc5f395f51905f528152f35b346101dd575f3660031901126101dd57602060ff5f5460181c166040519015158152f35b346101dd575f3660031901126101dd576040515f6008546106768161076a565b80845290600181169081156101b9575060011461069d5761016a8361015e818503826107a2565b60085f9081525f51602061101c5f395f51905f52939250905b8082106106ce5750909150810160200161015e61014e565b9192600181602092548385880101520191019092916106b6565b346101dd575f3660031901126101dd57602060ff5f54166040519015158152f35b346101dd575f3660031901126101dd57602060ff5f5460101c166040519015158152f35b346101dd575f3660031901126101dd57805f516020610ffc5f395f51905f5260209252f35b346101dd575f3660031901126101dd5761000f610904565b90600182811c92168015610798575b602083101461078457565b634e487b7160e01b5f52602260045260245ffd5b91607f1691610779565b90601f8019910116810190811067ffffffffffffffff8211176104b857604052565b602060409281835280519182918282860152018484015e5f828201840152601f01601f1916010190565b919082039182116107fb57565b634e487b7160e01b5f52601160045260245ffd5b60065460ff5f541661083a575b60055480821161082e57505060075490565b610837916107ee565b90565b6040516370a0823160e01b81523060048201526020816024815f516020610ffc5f395f51905f525afa9081156108ba575f91610888575b50818111610880575b5061081c565b90505f61087a565b90506020813d6020116108b2575b816108a3602093836107a2565b810103126101dd57515f610871565b3d9150610896565b6040513d5f823e3d90fd5b3d156108ff573d9067ffffffffffffffff82116104b857604051916108f4601f8201601f1916602001846107a2565b82523d5f602084013e565b606090565b5f905f5460ff8116610e635760ff19166001175f556040516370a0823160e01b81523060048201526020816024815f516020610ffc5f395f51905f525afa9081156108ba575f91610e31575b506005556040516370a0823160e01b815273f340bd3eb3e82994cff5b8c3493245edbce6343660048201526020816024815f516020610ffc5f395f51905f525afa9081156108ba575f91610dff575b5060035573f340bd3eb3e82994cff5b8c3493245edbce634363b156101dd5760405163d73f349b60e01b81523060048201525f516020610ffc5f395f51905f5260248201525f816044818373f340bd3eb3e82994cff5b8c3493245edbce634365af19081610dea575b50610b6757610a156108c5565b9182519067ffffffffffffffff8211610b5357610a3360085461076a565b601f8111610aeb575b50602090601f8311600114610a7f579382939492610a74575b50508160011b915f199060031b1c1916176008555b610a72610e68565b565b015190505f80610a55565b60088152601f198316945f51602061101c5f395f51905f5292915b868110610ad35750836001959610610abb575b505050811b01600855610a6a565b01515f1960f88460031b161c191690555f8080610aad565b91926020600181928685015181550194019201610a9a565b60088252601f830160051c5f51602061101c5f395f51905f52019060208410610b3e575b601f0160051c5f51602061101c5f395f51905f5201905b818110610b335750610a3c565b828155600101610b26565b5f51602061101c5f395f51905f529150610b0f565b634e487b7160e01b81526041600452602490fd5b815461ff00191661010017825590805b60508110610b8a575b5050610a72610e68565b60018101808211610dd657806001558280604051602081019063303eb07360e11b825282602482015260248152610bc26044826107a2565b51908273f340bd3eb3e82994cff5b8c3493245edbce634365af1610be46108c5565b9015610c975750600255815462ff00001916620100001782556040516370a0823160e01b815273f340bd3eb3e82994cff5b8c3493245edbce6343660048201526020816024815f516020610ffc5f395f51905f525afa908115610c8c578391610c5b575b5015610c5657600101610b77565b610b80565b90506020813d8211610c84575b81610c75602093836107a2565b810103126101dd57515f610c48565b3d9150610c68565b6040513d85823e3d90fd5b939291505082519067ffffffffffffffff8211610b5357610cb960095461076a565b601f8111610d6e575b50602090601f8311600114610d02579382939492610cf7575b50508160011b915f199060031b1c1916176009555b5f80610b80565b015190505f80610cdb565b60098152601f198316945f51602061103c5f395f51905f5292915b868110610d565750836001959610610d3e575b505050811b01600955610cf0565b01515f1960f88460031b161c191690555f8080610d30565b91926020600181928685015181550194019201610d1d565b60098252601f830160051c5f51602061103c5f395f51905f52019060208410610dc1575b601f0160051c5f51602061103c5f395f51905f5201905b818110610db65750610cc2565b828155600101610da9565b5f51602061103c5f395f51905f529150610d92565b634e487b7160e01b83526011600452602483fd5b610df79193505f906107a2565b5f915f610a08565b90506020813d602011610e29575b81610e1a602093836107a2565b810103126101dd57515f61099f565b3d9150610e0d565b90506020813d602011610e5b575b81610e4c602093836107a2565b810103126101dd57515f610950565b3d9150610e3f565b509050565b6040516370a0823160e01b81523060048201526020816024815f516020610ffc5f395f51905f525afa9081156108ba575f91610fa9575b5060068190556040516370a0823160e01b815273f340bd3eb3e82994cff5b8c3493245edbce6343660048201526020816024815f516020610ffc5f395f51905f525afa9081156108ba575f91610f77575b50600455600554808211610f64575b50505f5460ff8160081c1680610f57575b80610f4c575b63ff00000090151560181b1664ff0000000060ff8263ff0000001985161760181c161560201b169164ffff000000191617175f55565b506007541515610f16565b5060ff8160101c16610f10565b610f6d916107ee565b6007555f80610eff565b90506020813d602011610fa1575b81610f92602093836107a2565b810103126101dd57515f610ef0565b3d9150610f85565b90506020813d602011610fd3575b81610fc4602093836107a2565b810103126101dd57515f610e9f565b3d9150610fb756fec65a7bb8d6351c1cf70c95a316cc6a92839c986682d98bc35f958f4883f9d2a8000000000000000000000000514910771af9ca656af840dff83e8264ecf986caf3f7a9fe364faab93b216da50a3214154f22a0a2b415b23a84c8169e8b636ee36e1540171b6c0c960b71a7020d9f60077f6af931a8bbf590da0223dacf75c7afa264697066735822122059196572fe4a27118607494b138f50068607695ddb528f007a4b93ca751233eb64736f6c634300081e0033","linkReferences":{}},"methodIdentifiers":{"LINK()":"1b6b6d23","TARGET()":"cc1f2afa","downstreamCallObserved()":"1dc77771","execute()":"61461954","executeOnOpportunity()":"3c2448ed","executed()":"31a38c89","exploit()":"63d9b770","finalAttackerLinkBalance()":"6fde5129","finalVictimLinkBalance()":"925d5c78","hypothesisRefuted()":"495f92f1","hypothesisValidated()":"463defd1","initSucceeded()":"95bfb68b","lastCallbackData()":"dbb58151","lastInitRevertData()":"3f2301b5","lastPayoutRevertData()":"f44dabfb","onTokenTransfer(address,uint256,bytes)":"a4c0ed36","payoutCallsAttempted()":"965055f7","payoutCallsSucceeded()":"c45d1859","profitAmount()":"5ff972cc","profitToken()":"49343624","run()":"c0406226","startingAttackerLinkBalance()":"65082b30","startingVictimLinkBalance()":"57afbf03"},"id":0}