{"abi":[{"type":"constructor","inputs":[{"name":"pool_","type":"address","internalType":"address"},{"name":"parent_","type":"address","internalType":"address"},{"name":"joinValue_","type":"uint256","internalType":"uint256"}],"stateMutability":"payable"},{"type":"receive","stateMutability":"payable"},{"type":"function","name":"doWithdraw","inputs":[],"outputs":[],"stateMutability":"nonpayable"},{"type":"function","name":"owner","inputs":[],"outputs":[{"name":"","type":"address","internalType":"address"}],"stateMutability":"view"},{"type":"function","name":"pool","inputs":[],"outputs":[{"name":"","type":"address","internalType":"address"}],"stateMutability":"view"},{"type":"function","name":"sweep","inputs":[],"outputs":[],"stateMutability":"nonpayable"}],"bytecode":{"object":"0x60c06040526040516103dc3803806103dc833981016040819052610022916100a8565b336080526001600160a01b0383811660a08190526040516302389a2960e41b8152918416600483015290632389a2909083906024015f604051808303818588803b15801561006e575f5ffd5b505af1158015610080573d5f5f3e3d5ffd5b50505050505050506100e1565b80516001600160a01b03811681146100a3575f5ffd5b919050565b5f5f5f606084860312156100ba575f5ffd5b6100c38461008d565b92506100d16020850161008d565b9150604084015190509250925092565b60805160a0516102c061011c5f395f8181605d015261021c01525f818160c2015281816101030152818161016e01526101c101526102c05ff3fe608060405260043610610041575f3560e01c806316f0115b1461004c57806335faa4161461009b5780638da5cb5b146100b1578063b011fcf1146100e4575f5ffd5b3661004857005b5f5ffd5b348015610057575f5ffd5b5061007f7f000000000000000000000000000000000000000000000000000000000000000081565b6040516001600160a01b03909116815260200160405180910390f35b3480156100a6575f5ffd5b506100af6100f8565b005b3480156100bc575f5ffd5b5061007f7f000000000000000000000000000000000000000000000000000000000000000081565b3480156100ef575f5ffd5b506100af6101b6565b336001600160a01b037f000000000000000000000000000000000000000000000000000000000000000016146101615760405162461bcd60e51b81526020600482015260096024820152683737ba1037bbb732b960b91b60448201526064015b60405180910390fd5b6040516001600160a01b037f000000000000000000000000000000000000000000000000000000000000000016904780156108fc02915f818181858888f193505050501580156101b3573d5f5f3e3d5ffd5b50565b336001600160a01b037f0000000000000000000000000000000000000000000000000000000000000000161461021a5760405162461bcd60e51b81526020600482015260096024820152683737ba1037bbb732b960b91b6044820152606401610158565b7f00000000000000000000000000000000000000000000000000000000000000006001600160a01b0316633ccfd60b6040518163ffffffff1660e01b81526004015f604051808303815f87803b158015610272575f5ffd5b505af1158015610284573d5f5f3e3d5ffd5b5050505056fea2646970667358221220f89e3a05b94c25bba62f7ac960bf69d7a130eaa735f111c8fee8a9cf1c351f4b64736f6c634300081e0033","linkReferences":{}},"methodIdentifiers":{"doWithdraw()":"b011fcf1","owner()":"8da5cb5b","pool()":"16f0115b","sweep()":"35faa416"},"id":0}