{"abi":[{"type":"constructor","inputs":[],"stateMutability":"nonpayable"},{"type":"function","name":"executeOnOpportunity","inputs":[],"outputs":[],"stateMutability":"nonpayable"},{"type":"function","name":"exploitPathUsed","inputs":[],"outputs":[{"name":"","type":"string","internalType":"string"}],"stateMutability":"view"},{"type":"function","name":"hypothesisValidated","inputs":[],"outputs":[{"name":"","type":"bool","internalType":"bool"}],"stateMutability":"view"},{"type":"function","name":"outcomeNotes","inputs":[],"outputs":[{"name":"","type":"string","internalType":"string"}],"stateMutability":"view"},{"type":"function","name":"profitAmount","inputs":[],"outputs":[{"name":"","type":"uint256","internalType":"uint256"}],"stateMutability":"view"},{"type":"function","name":"profitToken","inputs":[],"outputs":[{"name":"","type":"address","internalType":"address"}],"stateMutability":"view"},{"type":"function","name":"runFlashVaultEarnAttempt","inputs":[{"name":"vault","type":"address","internalType":"address"},{"name":"pair","type":"address","internalType":"address"},{"name":"borrowDai","type":"uint256","internalType":"uint256"},{"name":"withdrawalBps","type":"uint256","internalType":"uint256"}],"outputs":[{"name":"profit","type":"uint256","internalType":"uint256"}],"stateMutability":"nonpayable"},{"type":"function","name":"uniswapV2Call","inputs":[{"name":"sender","type":"address","internalType":"address"},{"name":"amount0","type":"uint256","internalType":"uint256"},{"name":"amount1","type":"uint256","internalType":"uint256"},{"name":"data","type":"bytes","internalType":"bytes"}],"outputs":[],"stateMutability":"nonpayable"}],"bytecode":{"object":"0x608080604052346015576131d2908161001a8239f35b5f80fdfe6080806040526004361015610012575f80fd5b5f905f3560e01c90816310d1e85c146107ee575080633c2448ed146107d2578063463defd1146107af57806349343624146107885780635ff972cc1461076a57806379db32f3146106d6578063d78c4281146106025763e1f0317014610076575f80fd5b346105ff5760803660031901126105ff5761008f6111a0565b6024356001600160a01b038116908190036105fd5760443590606435923033036105cc576001600160a01b031692831561059c57811561056d57821561053c57801561050e576040516370a0823160e01b8152306004820152936020856024815f5160206130bd5f395f51905f525afa9485156104a35786956104da575b50826001600160601b0360a01b60055416176005556001600160601b0360a01b60065416176006558260075560085560405191630dfe168160e01b8352602083600481855afa9283156104cf5785936104ae575b5060405163d21220a760e01b815292602084600481865afa9384156104a3578694610463575b506001600160a01b03165f5160206130bd5f395f51905f52149283908115610443575b501561040d578492156103865760405160016020820152602081526101d06040826111da565b823b15610382576102139284928360405180968195829463022c0d9f60e01b845260048401528360248401523060448401526080606484015260848301906111b6565b03925af180156103775761035e575b50505b6001600160601b0360a01b600554166005556001600160601b0360a01b6006541660065581600755816008556040516370a0823160e01b81523060048201526020816024815f5160206130bd5f395f51905f525afa928315610352579261031a575b50808211156102e95761029991611d1e565b66038d7ea4c6800081106102b257602090604051908152f35b60405162461bcd60e51b815260206004820152600f60248201526e18995b1bddc81d1a1c995cda1bdb19608a1b6044820152606490fd5b60405162461bcd60e51b81526020600482015260096024820152681b9bc81c1c9bd99a5d60ba1b6044820152606490fd5b9091506020813d60201161034a575b81610336602093836111da565b810103126103465751905f610287565b5f80fd5b3d9150610329565b604051903d90823e3d90fd5b81610368916111da565b61037357815f610222565b5080fd5b6040513d84823e3d90fd5b8380fd5b604051600160208201526020815261039f6040826111da565b823b15610382576103e29284928360405180968195829463022c0d9f60e01b845284600485015260248401523060448401526080606484015260848301906111b6565b03925af18015610377576103f8575b5050610225565b81610402916111da565b61037357815f6103f1565b60405162461bcd60e51b815260206004820152600e60248201526d70616972206c61636b732044414960901b6044820152606490fd5b6001600160a01b03165f5160206130bd5f395f51905f521490505f6101aa565b5f5160206130bd5f395f51905f529194506104959060203d60201161049c575b61048d81836111da565b810190611237565b9390610187565b503d610483565b6040513d88823e3d90fd5b6104c891935060203d60201161049c5761048d81836111da565b915f610161565b6040513d87823e3d90fd5b9094506020813d602011610506575b816104f6602093836111da565b810103126103465751935f61010d565b3d91506104e9565b60405162461bcd60e51b81526020600482015260066024820152656e6f2062707360d01b6044820152606490fd5b60405162461bcd60e51b81526020600482015260096024820152686e6f20626f72726f7760b81b6044820152606490fd5b60405162461bcd60e51b81526020600482015260076024820152663737903830b4b960c91b6044820152606490fd5b60405162461bcd60e51b81526020600482015260086024820152671b9bc81d985d5b1d60c21b6044820152606490fd5b60405162461bcd60e51b815260206004820152600960248201526873656c66206f6e6c7960b81b6044820152606490fd5b825b80fd5b50346105ff57806003193601126105ff5760405190806003549061062582611256565b80855291600181169081156106af5750600114610665575b6106618461064d818603826111da565b6040519182916020835260208301906111b6565b0390f35b600381525f51602061307d5f395f51905f52939250905b8082106106955750909150810160200161064d8261063d565b91926001816020925483858801015201910190929161067c565b60ff191660208087019190915292151560051b8501909201925061064d915083905061063d565b50346105ff57806003193601126105ff576040519080600454906106f982611256565b80855291600181169081156106af5750600114610720576106618461064d818603826111da565b600481525f51602061313d5f395f51905f52939250905b8082106107505750909150810160200161064d8261063d565b919260018160209254838588010152019101909291610737565b50346105ff57806003193601126105ff576020600154604051908152f35b50346105ff57806003193601126105ff57546040516001600160a01b039091168152602090f35b50346105ff57806003193601126105ff57602060ff600254166040519015158152f35b50346105ff57806003193601126105ff576107eb6112a4565b80f35b905034610346576080366003190112610346576108096111a0565b90602435916064359167ffffffffffffffff831161034657366023840112156103465782600401359267ffffffffffffffff8411610346576024843692010111610346576005546001600160a01b0316330361116a5750306001600160a01b039091160361112f57156110f75780156110ee575b60075481036110b5576040516370a0823160e01b81523060048201526020816024815f51602061311d5f395f51905f525afa908115611078575f91611083575b5061090c60405163095ea7b360e01b60208201525f51602061311d5f395f51905f5260248201525f6044820152604481526108f96064826111da565b5f5160206130bd5f395f51905f526128f2565b61094760405163095ea7b360e01b60208201525f51602061311d5f395f51905f526024820152836044820152604481526108f96064826111da565b5f51602061311d5f395f51905f523b156103465760405163b6b55f2560e01b8152600481018390525f81602481835f51602061311d5f395f51905f525af1801561107857611063575b506040516370a0823160e01b8152306004820152906020826024815f51602061311d5f395f51905f525afa8015611058578490611024575b6109d29250611d1e565b8015610ff557610a2660405163095ea7b360e01b60208201525f51602061317d5f395f51905f52602482015284604482015260448152610a136064826111da565b5f51602061311d5f395f51905f526128f2565b610a6160405163095ea7b360e01b60208201525f51602061317d5f395f51905f52602482015282604482015260448152610a136064826111da565b60809083604051610a7284826111da565b833682378281525f51602061317d5f395f51905f523b156103735760405162a6cbcd60e21b815290610aa8906004830190611210565b816084820152818160a481835f51602061317d5f395f51905f525af1801561037757610fe0575b50506040516370a0823160e01b81523060048201529060208260248173df5e0e81dff6faf3a7e52ba697820c5e32d806a85afa9182156104cf578592610fac575b508115610f7d5760065485906001600160a01b0316803b156103735781809160046040518094819363d389800f60e01b83525af1801561037757610f64575b505060085480820291820403610f505790612710859392049081610ec5575b50506040516370a0823160e01b81523060048201529060208260248173df5e0e81dff6faf3a7e52ba697820c5e32d806a85afa918215610eba578392610e83575b5081610df8575b505050610bc1611e55565b610bc9611f54565b610bd1612046565b6040516370a0823160e01b815230600482015282906020816024815f51602061311d5f395f51905f525afa908115610377578291610dc3575b5080610d66575b50506103e88102908082046103e81490151715610d52576103e5900460018101809111610d525760405163a9059cbb60e01b6020820190815233602483015260448083019390935291815282918291610c6b6064826111da565b5190825f5160206130bd5f395f51905f525af13d15610d4a573d90610c8f82612161565b91610c9d60405193846111da565b82523d83602084013e5b15610d1157805180610cb7578280f35b8160209181010312610373576020015180159081150361037357610cdb575f808280f35b60405162461bcd60e51b815260206004820152600e60248201526d746f6b656e206f702066616c736560901b6044820152606490fd5b60405162461bcd60e51b81526020600482015260116024820152701d1bdad95b8818d85b1b0819985a5b1959607a1b6044820152606490fd5b606090610ca7565b634e487b7160e01b82526011600452602482fd5b5f51602061311d5f395f51905f523b156103735760405190632e1a7d4d60e01b825260048201528181602481835f51602061311d5f395f51905f525af180156103775715610c115781610db8916111da565b61037357815f610c11565b9150506020813d602011610df0575b81610ddf602093836111da565b81010312610346578290515f610c0a565b3d9150610dd2565b610e0182611d3f565b60405190610e0f81836111da565b3682375f51602061317d5f395f51905f523b156105fd57610e479060405192637d49d87560e01b845260048401526024830190611210565b818160a481835f51602061317d5f395f51905f525af1801561037757610e6e575b80610bb6565b81610e78916111da565b61037357815f610e68565b925090506020823d602011610eb2575b81610ea0602093836111da565b8101031261034657839151905f610baf565b3d9150610e93565b6040513d85823e3d90fd5b610ece81611d3f565b60405191610edc84846111da565b8336843782525f51602061317d5f395f51905f523b1561038257604051630c53debb60e11b815291610f12906004840190611210565b6084820152828160a481835f51602061317d5f395f51905f525af1908115610eba57839115610b6e5781610f45916111da565b61037357815f610b6e565b634e487b7160e01b85526011600452602485fd5b81610f6e916111da565b610f7957845f610b4f565b8480fd5b60405162461bcd60e51b81526020600482015260076024820152663737903ca1a92b60c91b6044820152606490fd5b9091506020813d602011610fd8575b81610fc8602093836111da565b810103126103465751905f610b10565b3d9150610fbb565b81610fea916111da565b61038257835f610acf565b60405162461bcd60e51b81526020600482015260076024820152666e6f207944414960c81b6044820152606490fd5b506020823d602011611050575b8161103e602093836111da565b81010312610346576109d291516109c8565b3d9150611031565b6040513d86823e3d90fd5b6110709193505f906111da565b5f915f610990565b6040513d5f823e3d90fd5b90506020813d6020116110ad575b8161109e602093836111da565b8101031261034657515f6108bd565b3d9150611091565b60405162461bcd60e51b8152602060048201526011602482015270756e657870656374656420626f72726f7760781b6044820152606490fd5b5060443561087d565b60405162461bcd60e51b815260206004820152601060248201526f6d697373696e672063616c6c6261636b60801b6044820152606490fd5b60405162461bcd60e51b81526020600482015260136024820152723ab730baba3437b934bd32b21039b2b73232b960691b6044820152606490fd5b62461bcd60e51b81526020600482015260116024820152703ab730baba3437b934bd32b2103830b4b960791b6044820152606490fd5b600435906001600160a01b038216820361034657565b805180835260209291819084018484015e5f828201840152601f01601f1916010190565b90601f8019910116810190811067ffffffffffffffff8211176111fc57604052565b634e487b7160e01b5f52604160045260245ffd5b905f905b6004821061122157505050565b6020806001928551815201930191019091611214565b9081602091031261034657516001600160a01b03811681036103465790565b90600182811c92168015611284575b602083101461127057565b634e487b7160e01b5f52602260045260245ffd5b91607f1691611265565b818110611299575050565b5f815560010161128e565b5f6001600160601b0360a01b5f54165f555f60015560ff19600254166002556112ce600354611256565b601f8111611cf3575b505f6003556112e7600454611256565b601f8111611cc8575b505f60045560405163f77c479160e01b815260208160048173af274e912243b19b882f02d731dacd7cd13072d05afa908115611078575f91611ca9575b506001600160a01b031680611c4a57505f905b6001600160a01b038216801592908315611bdb57505f5b60405163722713f760e01b81529360208560048173af274e912243b19b882f02d731dacd7cd13072d05afa948515611078575f95611ba7575b50611aa757801561197e576113eb6113e36113db6113d36113cb6113c36113b5612138565b6113bd612975565b90613059565b6113bd612b81565b6113bd612c79565b6113bd612d71565b6113bd612e69565b6113bd612f61565b80519092906001600160a01b0316158015611972575b61180d5790611410929161217d565b61180957600491611698576114258254611256565b601f8111611676575b5061027d8255527f54686520666f726b207374617274732066726f6d20616e20656d7074792073745f51602061313d5f395f51905f52557f7261746567792c20736f206f6e6c7920746865207075626c6963206465706f735f51602061309d5f395f51905f52557f69742d736964652070617468206973206c697665206265666f726520616e79205f5160206130dd5f395f51905f52557f7072696f72206561726e28292e2054686973207665726966696572206b6570745f5160206130fd5f395f51905f52557f20746865206578706c6f697420616e63686f72656420746f207661756c742e655f51602061315d5f395f51905f52557f61726e2829202d3e2073747261746567792e6465706f7369742829202d3e20617f8a35acfbc15ff81a39ae7d344fd709f28e8600b4aa8c65c6b64bfe7fe36bd1a0557f64645f6c6971756964697479285b5f792c302c302c305d2c2030292c206275747f8a35acfbc15ff81a39ae7d344fd709f28e8600b4aa8c65c6b64bfe7fe36bd1a1557f206e6f6e65206f662074686520746573746564207075626c69632d6c697175697f8a35acfbc15ff81a39ae7d344fd709f28e8600b4aa8c65c6b64bfe7fe36bd1a2557f646974792073616e64776963682073697a657320636c656172656420666c61737f8a35acfbc15ff81a39ae7d344fd709f28e8600b4aa8c65c6b64bfe7fe36bd1a3557f68737761702072657061796d656e74206174207468697320626c6f636b2e00007f8a35acfbc15ff81a39ae7d344fd709f28e8600b4aa8c65c6b64bfe7fe36bd1a455565b8282526020822061169291601f0160051c810190600a0161128e565b5f61142e565b6116a28254611256565b601f81116117e7575b5061017d8255527f54686520766572696669657220707265736572766564207468652073616d65205f51602061313d5f395f51905f52557f7a65726f2d736c697070616765204375727665206465706f73697420726f6f745f51602061309d5f395f51905f52557f20636175736520616e642075736564206f6e6c79207075626c69632d6c6971755f5160206130dd5f395f51905f52557f69646974792066756e64696e672c20627574206e6f20746573746564204c502d5f5160206130fd5f395f51905f52557f73616e64776963682073697a696e67207265616c697a6564206e6574204441495f51602061315d5f395f51905f52557f2061626f76652072657061796d656e74206f6e207468697320666f726b2e00007f8a35acfbc15ff81a39ae7d344fd709f28e8600b4aa8c65c6b64bfe7fe36bd1a055565b8282526020822061180391601f0160051c81019060060161128e565b5f6116ab565b5050565b5050506004915061181e8254611256565b601f8111611950575b506101558255527f4e6f207072652d6578697374696e67207075626c69632056322d7374796c65205f51602061313d5f395f51905f52557f4441492070616972207769746820626f72726f7761626c6520726573657276655f51602061309d5f395f51905f52557f732077617320617661696c61626c6520666f72207468652073616e64776963685f5160206130dd5f395f51905f52557f2066756e64696e67206c65672e2054686520726f6f742063617573652072656d5f5160206130fd5f395f51905f52557f61696e73207468652073616d65207a65726f2d6d696e204375727665206465705f51602061315d5f395f51905f52556937b9b4ba103830ba341760b11b7f8a35acfbc15ff81a39ae7d344fd709f28e8600b4aa8c65c6b64bfe7fe36bd1a055565b8282526020822061196c91601f0160051c81019060060161128e565b5f611827565b50602083015115611401565b50506004915061198e8254611256565b601f8111611a85575b506101258255527f546865206c69766520444149207661756c742068656c64206e6f2069646c65205f51602061313d5f395f51905f52557f444149206174207468697320666f726b20626c6f636b2c20736f207075626c695f51602061309d5f395f51905f52557f63207661756c742e6561726e282920636f756c64206e6f7420726561636820735f5160206130dd5f395f51905f52557f747261746567792e6465706f7369742829202d3e206164645f6c6971756964695f5160206130fd5f395f51905f5255713a3c942dafbc9618161816182e961018149760711b5f51602061315d5f395f51905f5255565b611aa1908383526005601f602085209201811c8201910161128e565b5f611997565b5050505061013960045560045f527f436f6e74726f6c6c65722072657475726e6564206e6f206c69766520444149205f51602061313d5f395f51905f52557f7661756c742c20736f20746865206f6e6c79207075626c6963207472696767655f51602061309d5f395f51905f52557f7220696e746f2073747261746567792e6465706f73697428292077617320756e5f5160206130dd5f395f51905f52557f726561636861626c652e207769746864726177416c6c282920737461797320635f5160206130fd5f395f51905f52557f6f6e74726f6c6c65722d6f6e6c79206f6e207468697320666f726b2e000000005f51602061315d5f395f51905f5255565b9094506020813d602011611bd3575b81611bc3602093836111da565b810103126103465751935f611390565b3d9150611bb6565b604051906370a0823160e01b825260048201526020816024815f5160206130bd5f395f51905f525afa908115611078575f91611c18575b50611357565b90506020813d602011611c42575b81611c33602093836111da565b8101031261034657515f611c12565b3d9150611c26565b602060249160405192838092632988bb9f60e21b82525f5160206130bd5f395f51905f5260048301525afa908115611078575f91611c8a575b5090611340565b611ca3915060203d60201161049c5761048d81836111da565b5f611c83565b611cc2915060203d60201161049c5761048d81836111da565b5f61132d565b60045f52611ced90601f0160051c5f51602061313d5f395f51905f529081019061128e565b5f6112f0565b60035f52611d1890601f0160051c5f51602061307d5f395f51905f529081019061128e565b5f6112d7565b91908203918211611d2b57565b634e487b7160e01b5f52601160045260245ffd5b611dd090611d9860405163095ea7b360e01b60208201525f51602061317d5f395f51905f5260248201525f604482015260448152611d7e6064826111da565b73df5e0e81dff6faf3a7e52ba697820c5e32d806a86128f2565b6040519063095ea7b360e01b60208301525f51602061317d5f395f51905f526024830152604482015260448152611d7e6064826111da565b565b90611dd091611e1860405163095ea7b360e01b60208201525f51602061317d5f395f51905f5260248201525f604482015260448152611e126064826111da565b826128f2565b6040519163095ea7b360e01b60208401525f51602061317d5f395f51905f526024840152604483015260448252611e506064836111da565b6128f2565b6040516370a0823160e01b815230600482015260208160248173d6ad7a6750a7593e092a9b218d66c0a814a3436e5afa908115611078575f91611f22575b508015611f1f57611eb88173d6ad7a6750a7593e092a9b218d66c0a814a3436e611dd2565b5f51602061317d5f395f51905f523b156103465760405190630f7c084960e21b8252600160048301525f602483015260448201525f60648201525f81608481835f51602061317d5f395f51905f525af1801561107857611f155750565b5f611dd0916111da565b50565b90506020813d602011611f4c575b81611f3d602093836111da565b8101031261034657515f611e93565b3d9150611f30565b6040516370a0823160e01b81523060048201526020816024817383f798e925bcd4017eb265844fddabb448f1707d5afa908115611078575f91612014575b508015611f1f57611fb7817383f798e925bcd4017eb265844fddabb448f1707d611dd2565b5f51602061317d5f395f51905f523b156103465760405190630f7c084960e21b8252600260048301525f602483015260448201525f60648201525f81608481835f51602061317d5f395f51905f525af1801561107857611f155750565b90506020813d60201161203e575b8161202f602093836111da565b8101031261034657515f611f92565b3d9150612022565b6040516370a0823160e01b81523060048201526020816024817373a052500105205d34daf004eab301916da8190f5afa908115611078575f91612106575b508015611f1f576120a9817373a052500105205d34daf004eab301916da8190f611dd2565b5f51602061317d5f395f51905f523b156103465760405190630f7c084960e21b8252600360048301525f602483015260448201525f60648201525f81608481835f51602061317d5f395f51905f525af1801561107857611f155750565b90506020813d602011612130575b81612121602093836111da565b8101031261034657515f612084565b3d9150612114565b604051906040820182811067ffffffffffffffff8211176111fc576040525f6020838281520152565b67ffffffffffffffff81116111fc57601f01601f191660200190565b929091600360208201510480156128e95760405193610240850185811067ffffffffffffffff8211176111fc576040526802b5e3af16b1880000855268056bc75e2d631000006020860152680d8d726b7177a800006040860152681b1ae4d6e2ef5000006060860152683635c9adc5dea00000608086015268878678326eac90000060a086015269010f0cf064dd5920000060c086015269021e19e0c9bab240000060e086015269043c33c1937564800000610100860152690878678326eac90000006101208601526910f0cf064dd5920000006101408601528060041c6101608601528060031c6101808601528060021c6101a08601528060011c6101c0860152806101e08601528060011b811590828104600214821715611d2b576102008701528160021b9182046004141715611d2b57610220850152604051610120810181811067ffffffffffffffff8211176111fc576040959295526121348152612328602082015261251c60408201526126166060820152612710608082015261280a60a082015261290460c0820152612af860e0820152612ee06101008201525f945b60128610156128de578560051b83015192831580156128d5575b6128ca575f5b60098110156128ba57600581901b8401518651604051630e1f031760e41b81526001600160a01b038c8116600483015290911660248201526044810187905260648101919091526020816084815f305af15f9181612887575b506123a75750600101612340565b9850505050505050905060c090604051926123c283856111da565b608584527f666c617368737761702844414929202d3e204375727665206164645f6c69717560208501527f6964697479285b61747461636b65725f794441492c302c302c305d2c2030292060408501527f2d3e207661756c742e6561726e2829202d3e2073747261746567792e6465706f60608501527f7369742829202d3e206164645f6c6971756964697479285b5f792c302c302c306080850152645d2c20302960d81b60a08501527f626c6963207661756c742e6561726e282920707573682069646c65207661756c6101a09361249e60405195866111da565b61016185527f426f72726f776564204441492066726f6d20746865206465657065737420707260208601527f652d6578697374696e67207075626c69632056322d7374796c6520444149207060408601527f6169722c206d696e74656420794441492c2066726f6e742d72616e207468652060608601527f73616d6520437572766520792d706f6f6c207769746820612073696e676c652d60808601527f7369646564204c50206d696e742c206c65742074686520686f6e65737420707560a08601528401527f7420444149207468726f756768207468652073747261746567792773207a657260e08401527f6f2d6d696e206164645f6c6971756964697479285b5f792c302c302c305d2c206101008401527f30292c207468656e20756e776f756e64207468652061747461636b6572204c506101208401527f20706f736974696f6e20616e64207265706169642074686520666c61736873776101408401527f61702066726f6d20746865206578747261637465642044414920737072656164610160840152601760f91b6101808401525f5160206130bd5f395f51905f526001600160601b0360a01b5f5416175f558060015560ff66038d7ea4c680008119600254169210151617600255825167ffffffffffffffff81116111fc57612688600354611256565b601f811161284c575b506020601f82116001146127de57819293945f926127d3575b50508160011b915f199060031b1c1916176003555b815167ffffffffffffffff81116111fc576126db600454611256565b601f811161278d575b50602092601f821160011461272157928192935f92612716575b50505f19600383901b1c1916600191821b1760045590565b015190505f806126fe565b601f1982169360045f525f51602061313d5f395f51905f52915f5b868110612775575083600195961061275d575b505050811b01600455600190565b01515f1960f88460031b161c191690555f808061274f565b9192602060018192868501518155019401920161273c565b60045f526127c3905f51602061313d5f395f51905f52601f840160051c810191602085106127c9575b601f0160051c019061128e565b5f6126e4565b90915081906127b6565b015190505f806126aa565b601f1982169060035f525f51602061307d5f395f51905f52915f5b8181106128345750958360019596971061281c575b505050811b016003556126bf565b01515f1960f88460031b161c191690555f808061280e565b9192602060018192868b0151815501940192016127f9565b60035f52612881905f51602061307d5f395f51905f52601f840160051c810191602085106127c957601f0160051c019061128e565b5f612691565b9091506020813d82116128b2575b816128a2602093836111da565b810103126103465751905f612399565b3d9150612895565b509560019193505b019491612320565b9560019193506128c2565b5081841161233a565b505050509150505f90565b50509150505f90565b5f91829182602083519301915af13d15612959573d9061291182612161565b9161291f60405193846111da565b82523d5f602084013e5b15610d1157805180612939575050565b8160209181010312610346576020015180159081150361034657610cdb57565b606090612929565b51906001600160701b038216820361034657565b61297d612138565b9060405163e6a4390560e01b81525f5160206130bd5f395f51905f52600482015273c02aaa39b223fe8d0a0e5c4f27ead9083c756cc26024820152602081604481735c69bee701ef814a2b6a3edd4b1652cb9cc5aa6f5afa908115611078575f91612b62575b506001600160a01b03168015611f1f57604051630240bc6b60e21b8152606081600481855afa918215611078575f915f93612b07575b50808552604051630dfe168160e01b8152602081600481855afa8015611078575f5160206130bd5f395f51905f52915f91612ae8575b506001600160a01b031603612a7057506001600160701b0316602084015250565b60405163d21220a760e01b81529150602090829060049082905afa8015611078575f5160206130bd5f395f51905f52915f91612ac9575b506001600160a01b031614612ab95750565b6001600160701b03166020830152565b612ae2915060203d60201161049c5761048d81836111da565b5f612aa7565b612b01915060203d60201161049c5761048d81836111da565b5f612a4f565b915091506060813d606011612b5a575b81612b24606093836111da565b8101031261034657612b3581612961565b6040612b4360208401612961565b92015163ffffffff8116036103465790915f612a19565b3d9150612b17565b612b7b915060203d60201161049c5761048d81836111da565b5f6129e3565b612b89612138565b9060405163e6a4390560e01b81525f5160206130bd5f395f51905f52600482015273a0b86991c6218b36c1d19d4a2e9eb0ce3606eb486024820152602081604481735c69bee701ef814a2b6a3edd4b1652cb9cc5aa6f5afa908115611078575f91612b6257506001600160a01b03168015611f1f57604051630240bc6b60e21b8152606081600481855afa918215611078575f915f93612b075750808552604051630dfe168160e01b8152602081600481855afa8015611078575f5160206130bd5f395f51905f52915f91612ae857506001600160a01b031603612a7057506001600160701b0316602084015250565b612c81612138565b9060405163e6a4390560e01b81525f5160206130bd5f395f51905f52600482015273dac17f958d2ee523a2206206994597c13d831ec76024820152602081604481735c69bee701ef814a2b6a3edd4b1652cb9cc5aa6f5afa908115611078575f91612b6257506001600160a01b03168015611f1f57604051630240bc6b60e21b8152606081600481855afa918215611078575f915f93612b075750808552604051630dfe168160e01b8152602081600481855afa8015611078575f5160206130bd5f395f51905f52915f91612ae857506001600160a01b031603612a7057506001600160701b0316602084015250565b612d79612138565b9060405163e6a4390560e01b81525f5160206130bd5f395f51905f52600482015273c02aaa39b223fe8d0a0e5c4f27ead9083c756cc2602482015260208160448173c0aee478e3658e2610c5f7a4a2e1777ce9e4f2ac5afa908115611078575f91612b6257506001600160a01b03168015611f1f57604051630240bc6b60e21b8152606081600481855afa918215611078575f915f93612b075750808552604051630dfe168160e01b8152602081600481855afa8015611078575f5160206130bd5f395f51905f52915f91612ae857506001600160a01b031603612a7057506001600160701b0316602084015250565b612e71612138565b9060405163e6a4390560e01b81525f5160206130bd5f395f51905f52600482015273a0b86991c6218b36c1d19d4a2e9eb0ce3606eb48602482015260208160448173c0aee478e3658e2610c5f7a4a2e1777ce9e4f2ac5afa908115611078575f91612b6257506001600160a01b03168015611f1f57604051630240bc6b60e21b8152606081600481855afa918215611078575f915f93612b075750808552604051630dfe168160e01b8152602081600481855afa8015611078575f5160206130bd5f395f51905f52915f91612ae857506001600160a01b031603612a7057506001600160701b0316602084015250565b612f69612138565b9060405163e6a4390560e01b81525f5160206130bd5f395f51905f52600482015273dac17f958d2ee523a2206206994597c13d831ec7602482015260208160448173c0aee478e3658e2610c5f7a4a2e1777ce9e4f2ac5afa908115611078575f91612b6257506001600160a01b03168015611f1f57604051630240bc6b60e21b8152606081600481855afa918215611078575f915f93612b075750808552604051630dfe168160e01b8152602081600481855afa8015611078575f5160206130bd5f395f51905f52915f91612ae857506001600160a01b031603612a7057506001600160701b0316602084015250565b613061612138565b5060208201516020820151105f14613077575090565b90509056fec2575a0e9e593c00f959f8c92f12db2869c3395a3b0502d05e2516446f71f85b8a35acfbc15ff81a39ae7d344fd709f28e8600b4aa8c65c6b64bfe7fe36bd19c0000000000000000000000006b175474e89094c44da98b954eedeac495271d0f8a35acfbc15ff81a39ae7d344fd709f28e8600b4aa8c65c6b64bfe7fe36bd19d8a35acfbc15ff81a39ae7d344fd709f28e8600b4aa8c65c6b64bfe7fe36bd19e00000000000000000000000016de59092dae5ccf4a1e6439d611fd0653f0bd018a35acfbc15ff81a39ae7d344fd709f28e8600b4aa8c65c6b64bfe7fe36bd19b8a35acfbc15ff81a39ae7d344fd709f28e8600b4aa8c65c6b64bfe7fe36bd19f00000000000000000000000045f783cce6b7ff23b2ab2d70e416cdb7d6055f51a2646970667358221220becfaeb9273ee97a9feabf5dc3d55b6c4ab06d23c98a69afdcf9894ef9d345a964736f6c634300081e0033","linkReferences":{}},"methodIdentifiers":{"executeOnOpportunity()":"3c2448ed","exploitPathUsed()":"d78c4281","hypothesisValidated()":"463defd1","outcomeNotes()":"79db32f3","profitAmount()":"5ff972cc","profitToken()":"49343624","runFlashVaultEarnAttempt(address,address,uint256,uint256)":"e1f03170","uniswapV2Call(address,uint256,uint256,bytes)":"10d1e85c"},"id":0}