{"abi":[{"type":"function","name":"pull","inputs":[{"name":"target","type":"address","internalType":"address"},{"name":"from","type":"address","internalType":"address"},{"name":"to","type":"address","internalType":"address"},{"name":"tokenId","type":"uint256","internalType":"uint256"}],"outputs":[],"stateMutability":"nonpayable"}],"bytecode":{"object":"0x60808060405234601557610117908161001a8239f35b5f80fdfe60808060405260043610156011575f80fd5b5f905f3560e01c63dc772e94146025575f80fd5b3460dd57608036600319011260dd576004356001600160a01b0381169081900360dd576024356001600160a01b0381169081900360dd576044356001600160a01b038116929083900360dd57803b1560dd57835f606492819583956323b872dd60e01b855260048501526024840152833560448401525af1801560d25760a9575080f35b905067ffffffffffffffff811160be57604052005b634e487b7160e01b5f52604160045260245ffd5b6040513d5f823e3d90fd5b5f80fdfea264697066735822122067d046bef4dc86fc1892b722856c20e6024dba32af2d5f02a5b9efd69a14f92664736f6c634300081e0033","linkReferences":{}},"methodIdentifiers":{"pull(address,address,address,uint256)":"dc772e94"},"id":0}