{"abi":[{"type":"constructor","inputs":[],"stateMutability":"nonpayable"},{"type":"receive","stateMutability":"payable"},{"type":"function","name":"TARGET","inputs":[],"outputs":[{"name":"","type":"address","internalType":"address"}],"stateMutability":"view"},{"type":"function","name":"USDC_WETH_PAIR","inputs":[],"outputs":[{"name":"","type":"address","internalType":"address"}],"stateMutability":"view"},{"type":"function","name":"WETH","inputs":[],"outputs":[{"name":"","type":"address","internalType":"address"}],"stateMutability":"view"},{"type":"function","name":"allowanceToVerifierPath1","inputs":[],"outputs":[{"name":"","type":"uint256","internalType":"uint256"}],"stateMutability":"view"},{"type":"function","name":"allowanceToVerifierPath2","inputs":[],"outputs":[{"name":"","type":"uint256","internalType":"uint256"}],"stateMutability":"view"},{"type":"function","name":"counterToken","inputs":[],"outputs":[{"name":"","type":"address","internalType":"address"}],"stateMutability":"view"},{"type":"function","name":"executeOnOpportunity","inputs":[],"outputs":[],"stateMutability":"nonpayable"},{"type":"function","name":"executed","inputs":[],"outputs":[{"name":"","type":"bool","internalType":"bool"}],"stateMutability":"view"},{"type":"function","name":"pair","inputs":[],"outputs":[{"name":"","type":"address","internalType":"address"}],"stateMutability":"view"},{"type":"function","name":"path1PressureAfter","inputs":[],"outputs":[{"name":"","type":"uint256","internalType":"uint256"}],"stateMutability":"view"},{"type":"function","name":"path1PressureBefore","inputs":[],"outputs":[{"name":"","type":"uint256","internalType":"uint256"}],"stateMutability":"view"},{"type":"function","name":"path1Touched","inputs":[],"outputs":[{"name":"","type":"bool","internalType":"bool"}],"stateMutability":"view"},{"type":"function","name":"path2PressureAfter","inputs":[],"outputs":[{"name":"","type":"uint256","internalType":"uint256"}],"stateMutability":"view"},{"type":"function","name":"path2PressureBefore","inputs":[],"outputs":[{"name":"","type":"uint256","internalType":"uint256"}],"stateMutability":"view"},{"type":"function","name":"path2Touched","inputs":[],"outputs":[{"name":"","type":"bool","internalType":"bool"}],"stateMutability":"view"},{"type":"function","name":"profitAmount","inputs":[],"outputs":[{"name":"","type":"uint256","internalType":"uint256"}],"stateMutability":"view"},{"type":"function","name":"profitToken","inputs":[],"outputs":[{"name":"","type":"address","internalType":"address"}],"stateMutability":"view"},{"type":"function","name":"steam","inputs":[],"outputs":[{"name":"","type":"address","internalType":"address"}],"stateMutability":"view"},{"type":"function","name":"uniswapV2Call","inputs":[{"name":"","type":"address","internalType":"address"},{"name":"amount0","type":"uint256","internalType":"uint256"},{"name":"amount1","type":"uint256","internalType":"uint256"},{"name":"data","type":"bytes","internalType":"bytes"}],"outputs":[],"stateMutability":"nonpayable"},{"type":"function","name":"victimReleaseProbe","inputs":[],"outputs":[{"name":"","type":"address","internalType":"address"}],"stateMutability":"view"},{"type":"function","name":"victimTxCountAfter","inputs":[],"outputs":[{"name":"","type":"uint256","internalType":"uint256"}],"stateMutability":"view"},{"type":"function","name":"victimTxCountBefore","inputs":[],"outputs":[{"name":"","type":"uint256","internalType":"uint256"}],"stateMutability":"view"},{"type":"function","name":"victimTxCountProbe","inputs":[],"outputs":[{"name":"","type":"address","internalType":"address"}],"stateMutability":"view"}],"bytecode":{"object":"0x6080604052348015600e575f5ffd5b506157ad8061001c5f395ff3fe608060405260043610610143575f3560e01c80637af0d97d116100b5578063af9937121161006e578063af99371214610402578063cc1f2afa1461042c578063d665000e14610456578063f004a86614610480578063f60176ec146104aa578063ffdf376b146104d45761014a565b80637af0d97d14610306578063921c3a8d14610330578063960c77651461035a578063a5876cd014610384578063a8aa1b31146103ae578063ad5c4648146103d85761014a565b80633c2448ed116101075780633c2448ed1461021e57806349343624146102345780635436a3be1461025e5780635fe8f386146102885780635ff972cc146102b257806366c904eb146102dc5761014a565b806310d1e85c1461014e5780631787eb8a146101765780632c3717ba146101a057806331a38c89146101ca578063365d2387146101f45761014a565b3661014a57005b5f5ffd5b348015610159575f5ffd5b50610174600480360381019061016f91906137ad565b6104fe565b005b348015610181575f5ffd5b5061018a611160565b604051610197919061384b565b60405180910390f35b3480156101ab575f5ffd5b506101b4611173565b6040516101c19190613873565b60405180910390f35b3480156101d5575f5ffd5b506101de611179565b6040516101eb919061384b565b60405180910390f35b3480156101ff575f5ffd5b5061020861118b565b604051610215919061389b565b60405180910390f35b348015610229575f5ffd5b506102326111b0565b005b34801561023f575f5ffd5b50610248611ada565b604051610255919061389b565b60405180910390f35b348015610269575f5ffd5b50610272611b01565b60405161027f9190613873565b60405180910390f35b348015610293575f5ffd5b5061029c611b07565b6040516102a9919061389b565b60405180910390f35b3480156102bd575f5ffd5b506102c6611b1f565b6040516102d39190613873565b60405180910390f35b3480156102e7575f5ffd5b506102f0611b28565b6040516102fd919061384b565b60405180910390f35b348015610311575f5ffd5b5061031a611b3b565b6040516103279190613873565b60405180910390f35b34801561033b575f5ffd5b50610344611b41565b604051610351919061389b565b60405180910390f35b348015610365575f5ffd5b5061036e611b66565b60405161037b9190613873565b60405180910390f35b34801561038f575f5ffd5b50610398611b6c565b6040516103a5919061389b565b60405180910390f35b3480156103b9575f5ffd5b506103c2611b91565b6040516103cf919061389b565b60405180910390f35b3480156103e3575f5ffd5b506103ec611bb6565b6040516103f9919061389b565b60405180910390f35b34801561040d575f5ffd5b50610416611bce565b6040516104239190613873565b60405180910390f35b348015610437575f5ffd5b50610440611bd4565b60405161044d919061389b565b60405180910390f35b348015610461575f5ffd5b5061046a611bec565b6040516104779190613873565b60405180910390f35b34801561048b575f5ffd5b50610494611bf2565b6040516104a1919061389b565b60405180910390f35b3480156104b5575f5ffd5b506104be611c17565b6040516104cb9190613873565b60405180910390f35b3480156104df575f5ffd5b506104e8611c1d565b6040516104f59190613873565b60405180910390f35b73b4e16d0168e52d35cacd2c6185b44281ec28c9dc73ffffffffffffffffffffffffffffffffffffffff163373ffffffffffffffffffffffffffffffffffffffff1614610580576040517f08c379a00000000000000000000000000000000000000000000000000000000081526004016105779061390e565b60405180910390fd5b5f5f5f84848101906105929190613abf565b9250925092505f5f88116105a657866105a8565b875b9050835f015181146105ef576040517f08c379a00000000000000000000000000000000000000000000000000000000081526004016105e690613b5c565b60405180910390fd5b6040516105fb9061365c565b604051809103905ff080158015610614573d5f5f3e3d5ffd5b50600f60036101000a81548173ffffffffffffffffffffffffffffffffffffffff021916908373ffffffffffffffffffffffffffffffffffffffff1602179055506040516106619061365c565b604051809103905ff08015801561067a573d5f5f3e3d5ffd5b5060105f6101000a81548173ffffffffffffffffffffffffffffffffffffffff021916908373ffffffffffffffffffffffffffffffffffffffff160217905550600f60039054906101000a900473ffffffffffffffffffffffffffffffffffffffff1660055f6101000a81548173ffffffffffffffffffffffffffffffffffffffff021916908373ffffffffffffffffffffffffffffffffffffffff16021790555060105f9054906101000a900473ffffffffffffffffffffffffffffffffffffffff1660065f6101000a81548173ffffffffffffffffffffffffffffffffffffffff021916908373ffffffffffffffffffffffffffffffffffffffff1602179055505f61078a855f0151611c23565b90508460800151856060015186604001516107a59190613ba7565b6107af9190613ba7565b8110156107f1576040517f08c379a00000000000000000000000000000000000000000000000000000000081526004016107e890613c24565b60405180910390fd5b6108367335a254223960c18b69c0526c46b013d022e93902600f60039054906101000a900473ffffffffffffffffffffffffffffffffffffffff16876040015161212e565b61087a7335a254223960c18b69c0526c46b013d022e9390260105f9054906101000a900473ffffffffffffffffffffffffffffffffffffffff16876060015161212e565b7335a254223960c18b69c0526c46b013d022e9390273ffffffffffffffffffffffffffffffffffffffff1663dd62ed3e600f60039054906101000a900473ffffffffffffffffffffffffffffffffffffffff16306040518363ffffffff1660e01b81526004016108eb929190613c42565b602060405180830381865afa158015610906573d5f5f3e3d5ffd5b505050506040513d601f19601f8201168201806040525081019061092a9190613c7d565b600d819055507335a254223960c18b69c0526c46b013d022e9390273ffffffffffffffffffffffffffffffffffffffff1663dd62ed3e60105f9054906101000a900473ffffffffffffffffffffffffffffffffffffffff16306040518363ffffffff1660e01b81526004016109a0929190613c42565b602060405180830381865afa1580156109bb573d5f5f3e3d5ffd5b505050506040513d601f19601f820116820180604052508101906109df9190613c7d565b600e819055507335a254223960c18b69c0526c46b013d022e9390273ffffffffffffffffffffffffffffffffffffffff1663f184f53d600f60039054906101000a900473ffffffffffffffffffffffffffffffffffffffff166040518263ffffffff1660e01b8152600401610a54919061389b565b602060405180830381865afa158015610a6f573d5f5f3e3d5ffd5b505050506040513d601f19601f82011682018060405250810190610a939190613c7d565b600981905550610adb7335a254223960c18b69c0526c46b013d022e93902600e600f60039054906101000a900473ffffffffffffffffffffffffffffffffffffffff1661227d565b6007819055505f5f90505b6008811015610b5e57610b527335a254223960c18b69c0526c46b013d022e93902600f60039054906101000a900473ffffffffffffffffffffffffffffffffffffffff1660025f9054906101000a900473ffffffffffffffffffffffffffffffffffffffff165f6122d0565b50806001019050610ae6565b50610ba17335a254223960c18b69c0526c46b013d022e93902600e600f60039054906101000a900473ffffffffffffffffffffffffffffffffffffffff1661227d565b600881905550600f60039054906101000a900473ffffffffffffffffffffffffffffffffffffffff1673ffffffffffffffffffffffffffffffffffffffff1663183418b460025f9054906101000a900473ffffffffffffffffffffffffffffffffffffffff167335a254223960c18b69c0526c46b013d022e939026040518363ffffffff1660e01b8152600401610c39929190613c42565b6020604051808303815f875af1158015610c55573d5f5f3e3d5ffd5b505050506040513d601f19601f82011682018060405250810190610c799190613c7d565b507335a254223960c18b69c0526c46b013d022e9390273ffffffffffffffffffffffffffffffffffffffff1663f184f53d600f60039054906101000a900473ffffffffffffffffffffffffffffffffffffffff166040518263ffffffff1660e01b8152600401610ce9919061389b565b602060405180830381865afa158015610d04573d5f5f3e3d5ffd5b505050506040513d601f19601f82011682018060405250810190610d289190613c7d565b600a8190555060075460085411600f60016101000a81548160ff02191690831515021790555060105f9054906101000a900473ffffffffffffffffffffffffffffffffffffffff1673ffffffffffffffffffffffffffffffffffffffff1663183418b460025f9054906101000a900473ffffffffffffffffffffffffffffffffffffffff167335a254223960c18b69c0526c46b013d022e939026040518363ffffffff1660e01b8152600401610ddf929190613c42565b6020604051808303815f875af1158015610dfb573d5f5f3e3d5ffd5b505050506040513d601f19601f82011682018060405250810190610e1f9190613c7d565b507335a254223960c18b69c0526c46b013d022e9390273ffffffffffffffffffffffffffffffffffffffff1663f184f53d60105f9054906101000a900473ffffffffffffffffffffffffffffffffffffffff166040518263ffffffff1660e01b8152600401610e8e919061389b565b602060405180830381865afa158015610ea9573d5f5f3e3d5ffd5b505050506040513d601f19601f82011682018060405250810190610ecd9190613c7d565b600b819055505f600b541115610f5c57610f3f7335a254223960c18b69c0526c46b013d022e9390260105f9054906101000a900473ffffffffffffffffffffffffffffffffffffffff1660105f9054906101000a900473ffffffffffffffffffffffffffffffffffffffff165f6122d0565b506001600f60026101000a81548160ff0219169083151502179055505b7335a254223960c18b69c0526c46b013d022e9390273ffffffffffffffffffffffffffffffffffffffff1663f184f53d60105f9054906101000a900473ffffffffffffffffffffffffffffffffffffffff166040518263ffffffff1660e01b8152600401610fca919061389b565b602060405180830381865afa158015610fe5573d5f5f3e3d5ffd5b505050506040513d601f19601f820116820180604052508101906110099190613c7d565b600c819055505f7335a254223960c18b69c0526c46b013d022e9390273ffffffffffffffffffffffffffffffffffffffff166370a08231306040518263ffffffff1660e01b815260040161105d919061389b565b602060405180830381865afa158015611078573d5f5f3e3d5ffd5b505050506040513d601f19601f8201168201806040525081019061109c9190613c7d565b90505f8111156110b1576110af816123bb565b505b6110dc600f60039054906101000a900473ffffffffffffffffffffffffffffffffffffffff166128c6565b61110660105f9054906101000a900473ffffffffffffffffffffffffffffffffffffffff166128c6565b5f611113875f0151612aca565b905061114873c02aaa39b223fe8d0a0e5c4f27ead9083c756cc273b4e16d0168e52d35cacd2c6185b44281ec28c9dc8361212e565b6111528686612af9565b505050505050505050505050565b600f60019054906101000a900460ff1681565b60095481565b600f5f9054906101000a900460ff1681565b60035f9054906101000a900473ffffffffffffffffffffffffffffffffffffffff1681565b600f5f9054906101000a900460ff16611ad8576001600f5f6101000a81548160ff0219169083151502179055505f7335a254223960c18b69c0526c46b013d022e9390290508073ffffffffffffffffffffffffffffffffffffffff16639dfd117c6040518163ffffffff1660e01b8152600401602060405180830381865afa15801561123e573d5f5f3e3d5ffd5b505050506040513d601f19601f820116820180604052508101906112629190613cbc565b60025f6101000a81548173ffffffffffffffffffffffffffffffffffffffff021916908373ffffffffffffffffffffffffffffffffffffffff1602179055505f73ffffffffffffffffffffffffffffffffffffffff1660025f9054906101000a900473ffffffffffffffffffffffffffffffffffffffff1673ffffffffffffffffffffffffffffffffffffffff16148061136557508073ffffffffffffffffffffffffffffffffffffffff16635c975abb6040518163ffffffff1660e01b8152600401602060405180830381865afa158015611340573d5f5f3e3d5ffd5b505050506040513d601f19601f820116820180604052508101906113649190613cfb565b5b156113705750611ad8565b61138f7335a254223960c18b69c0526c46b013d022e93902600f612dc1565b60035f6101000a81548173ffffffffffffffffffffffffffffffffffffffff021916908373ffffffffffffffffffffffffffffffffffffffff1602179055505f60025f9054906101000a900473ffffffffffffffffffffffffffffffffffffffff1673ffffffffffffffffffffffffffffffffffffffff16630dfe16816040518163ffffffff1660e01b8152600401602060405180830381865afa158015611439573d5f5f3e3d5ffd5b505050506040513d601f19601f8201168201806040525081019061145d9190613cbc565b90505f60025f9054906101000a900473ffffffffffffffffffffffffffffffffffffffff1673ffffffffffffffffffffffffffffffffffffffff1663d21220a76040518163ffffffff1660e01b8152600401602060405180830381865afa1580156114ca573d5f5f3e3d5ffd5b505050506040513d601f19601f820116820180604052508101906114ee9190613cbc565b90507335a254223960c18b69c0526c46b013d022e9390273ffffffffffffffffffffffffffffffffffffffff168273ffffffffffffffffffffffffffffffffffffffff161415801561158057507335a254223960c18b69c0526c46b013d022e9390273ffffffffffffffffffffffffffffffffffffffff168173ffffffffffffffffffffffffffffffffffffffff1614155b1561158d57505050611ad8565b7335a254223960c18b69c0526c46b013d022e9390273ffffffffffffffffffffffffffffffffffffffff168273ffffffffffffffffffffffffffffffffffffffff16146115da57816115dc565b805b60045f6101000a81548173ffffffffffffffffffffffffffffffffffffffff021916908373ffffffffffffffffffffffffffffffffffffffff16021790555073c02aaa39b223fe8d0a0e5c4f27ead9083c756cc273ffffffffffffffffffffffffffffffffffffffff1660045f9054906101000a900473ffffffffffffffffffffffffffffffffffffffff1673ffffffffffffffffffffffffffffffffffffffff161461168b57505050611ad8565b5f73c02aaa39b223fe8d0a0e5c4f27ead9083c756cc273ffffffffffffffffffffffffffffffffffffffff166370a08231306040518263ffffffff1660e01b81526004016116d9919061389b565b602060405180830381865afa1580156116f4573d5f5f3e3d5ffd5b505050506040513d601f19601f820116820180604052508101906117189190613c7d565b90505f5f73ffffffffffffffffffffffffffffffffffffffff1660035f9054906101000a900473ffffffffffffffffffffffffffffffffffffffff1673ffffffffffffffffffffffffffffffffffffffff161461180d5760035f9054906101000a900473ffffffffffffffffffffffffffffffffffffffff1673ffffffffffffffffffffffffffffffffffffffff166370a08231306040518263ffffffff1660e01b81526004016117c9919061389b565b602060405180830381865afa1580156117e4573d5f5f3e3d5ffd5b505050506040513d601f19601f820116820180604052508101906118089190613c7d565b61180f565b5f5b90505f61181a612de8565b905080610100015161183b576118308383612af9565b505050505050611ad8565b5f81848460405160200161185193929190613df9565b60405160208183030381529060405290505f73b4e16d0168e52d35cacd2c6185b44281ec28c9dc905073c02aaa39b223fe8d0a0e5c4f27ead9083c756cc273ffffffffffffffffffffffffffffffffffffffff168173ffffffffffffffffffffffffffffffffffffffff16630dfe16816040518163ffffffff1660e01b8152600401602060405180830381865afa1580156118ee573d5f5f3e3d5ffd5b505050506040513d601f19601f820116820180604052508101906119129190613cbc565b73ffffffffffffffffffffffffffffffffffffffff16036119a1578073ffffffffffffffffffffffffffffffffffffffff1663022c0d9f845f01515f30866040518563ffffffff1660e01b815260040161196f9493929190613ed3565b5f604051808303815f87803b158015611986575f5ffd5b505af1158015611998573d5f5f3e3d5ffd5b50505050611ac5565b73c02aaa39b223fe8d0a0e5c4f27ead9083c756cc273ffffffffffffffffffffffffffffffffffffffff168173ffffffffffffffffffffffffffffffffffffffff1663d21220a76040518163ffffffff1660e01b8152600401602060405180830381865afa158015611a15573d5f5f3e3d5ffd5b505050506040513d601f19601f82011682018060405250810190611a399190613cbc565b73ffffffffffffffffffffffffffffffffffffffff1603611ac4578073ffffffffffffffffffffffffffffffffffffffff1663022c0d9f5f855f015130866040518563ffffffff1660e01b8152600401611a969493929190613f1d565b5f604051808303815f87803b158015611aad575f5ffd5b505af1158015611abf573d5f5f3e3d5ffd5b505050505b5b611acf8585612af9565b50505050505050505b565b5f5f5f9054906101000a900473ffffffffffffffffffffffffffffffffffffffff16905090565b600d5481565b73b4e16d0168e52d35cacd2c6185b44281ec28c9dc81565b5f600154905090565b600f60029054906101000a900460ff1681565b600e5481565b60045f9054906101000a900473ffffffffffffffffffffffffffffffffffffffff1681565b600c5481565b60065f9054906101000a900473ffffffffffffffffffffffffffffffffffffffff1681565b60025f9054906101000a900473ffffffffffffffffffffffffffffffffffffffff1681565b73c02aaa39b223fe8d0a0e5c4f27ead9083c756cc281565b60085481565b7335a254223960c18b69c0526c46b013d022e9390281565b60075481565b60055f9054906101000a900473ffffffffffffffffffffffffffffffffffffffff1681565b600a5481565b600b5481565b5f5f8203611c33575f9050612129565b5f60025f9054906101000a900473ffffffffffffffffffffffffffffffffffffffff1690505f8173ffffffffffffffffffffffffffffffffffffffff16630dfe16816040518163ffffffff1660e01b8152600401602060405180830381865afa158015611ca2573d5f5f3e3d5ffd5b505050506040513d601f19601f82011682018060405250810190611cc69190613cbc565b90505f8273ffffffffffffffffffffffffffffffffffffffff1663d21220a76040518163ffffffff1660e01b8152600401602060405180830381865afa158015611d12573d5f5f3e3d5ffd5b505050506040513d601f19601f82011682018060405250810190611d369190613cbc565b90505f5f8473ffffffffffffffffffffffffffffffffffffffff16630902f1ac6040518163ffffffff1660e01b8152600401606060405180830381865afa158015611d83573d5f5f3e3d5ffd5b505050506040513d601f19601f82011682018060405250810190611da79190613fe3565b50915091507335a254223960c18b69c0526c46b013d022e9390273ffffffffffffffffffffffffffffffffffffffff168473ffffffffffffffffffffffffffffffffffffffff16148015611e3a575073c02aaa39b223fe8d0a0e5c4f27ead9083c756cc273ffffffffffffffffffffffffffffffffffffffff168373ffffffffffffffffffffffffffffffffffffffff16145b15611f6957611e6a87826dffffffffffffffffffffffffffff16846dffffffffffffffffffffffffffff1661301b565b9550611eac73c02aaa39b223fe8d0a0e5c4f27ead9083c756cc260025f9054906101000a900473ffffffffffffffffffffffffffffffffffffffff168961212e565b8473ffffffffffffffffffffffffffffffffffffffff1663022c0d9f875f305f67ffffffffffffffff811115611ee557611ee4613940565b5b6040519080825280601f01601f191660200182016040528015611f175781602001600182028036833780820191505090505b506040518563ffffffff1660e01b8152600401611f379493929190613ed3565b5f604051808303815f87803b158015611f4e575f5ffd5b505af1158015611f60573d5f5f3e3d5ffd5b50505050612123565b7335a254223960c18b69c0526c46b013d022e9390273ffffffffffffffffffffffffffffffffffffffff168373ffffffffffffffffffffffffffffffffffffffff16148015611ff7575073c02aaa39b223fe8d0a0e5c4f27ead9083c756cc273ffffffffffffffffffffffffffffffffffffffff168473ffffffffffffffffffffffffffffffffffffffff16145b156121225761202787836dffffffffffffffffffffffffffff16836dffffffffffffffffffffffffffff1661301b565b955061206973c02aaa39b223fe8d0a0e5c4f27ead9083c756cc260025f9054906101000a900473ffffffffffffffffffffffffffffffffffffffff168961212e565b8473ffffffffffffffffffffffffffffffffffffffff1663022c0d9f5f88305f67ffffffffffffffff8111156120a2576120a1613940565b5b6040519080825280601f01601f1916602001820160405280156120d45781602001600182028036833780820191505090505b506040518563ffffffff1660e01b81526004016120f49493929190613f1d565b5f604051808303815f87803b15801561210b575f5ffd5b505af115801561211d573d5f5f3e3d5ffd5b505050505b5b50505050505b919050565b5f5f8473ffffffffffffffffffffffffffffffffffffffff1663a9059cbb60e01b8585604051602401612162929190614033565b604051602081830303815290604052907bffffffffffffffffffffffffffffffffffffffffffffffffffffffff19166020820180517bffffffffffffffffffffffffffffffffffffffffffffffffffffffff83818316178352505050506040516121cc9190614094565b5f604051808303815f865af19150503d805f8114612205576040519150601f19603f3d011682016040523d82523d5f602084013e61220a565b606091505b509150915081801561223757505f815114806122365750808060200190518101906122359190613cfb565b5b5b612276576040517f08c379a000000000000000000000000000000000000000000000000000000000815260040161226d906140f4565b60405180910390fd5b5050505050565b5f5f8284604051602001612292929190614033565b6040516020818303038152906040528051906020012090505f5f6122b6878461308b565b9150915081156122c657805f1c93505b5050509392505050565b5f8473ffffffffffffffffffffffffffffffffffffffff166323b872dd60e01b85858560405160240161230593929190614112565b604051602081830303815290604052907bffffffffffffffffffffffffffffffffffffffffffffffffffffffff19166020820180517bffffffffffffffffffffffffffffffffffffffffffffffffffffffff838183161783525050505060405161236f9190614094565b5f604051808303815f865af19150503d805f81146123a8576040519150601f19603f3d011682016040523d82523d5f602084013e6123ad565b606091505b505080915050949350505050565b5f5f82036123cb575f90506128c1565b5f60025f9054906101000a900473ffffffffffffffffffffffffffffffffffffffff1690505f8173ffffffffffffffffffffffffffffffffffffffff16630dfe16816040518163ffffffff1660e01b8152600401602060405180830381865afa15801561243a573d5f5f3e3d5ffd5b505050506040513d601f19601f8201168201806040525081019061245e9190613cbc565b90505f8273ffffffffffffffffffffffffffffffffffffffff1663d21220a76040518163ffffffff1660e01b8152600401602060405180830381865afa1580156124aa573d5f5f3e3d5ffd5b505050506040513d601f19601f820116820180604052508101906124ce9190613cbc565b90505f5f8473ffffffffffffffffffffffffffffffffffffffff16630902f1ac6040518163ffffffff1660e01b8152600401606060405180830381865afa15801561251b573d5f5f3e3d5ffd5b505050506040513d601f19601f8201168201806040525081019061253f9190613fe3565b50915091507335a254223960c18b69c0526c46b013d022e9390273ffffffffffffffffffffffffffffffffffffffff168473ffffffffffffffffffffffffffffffffffffffff161480156125d2575073c02aaa39b223fe8d0a0e5c4f27ead9083c756cc273ffffffffffffffffffffffffffffffffffffffff168373ffffffffffffffffffffffffffffffffffffffff16145b156127015761260287836dffffffffffffffffffffffffffff16836dffffffffffffffffffffffffffff1661301b565b95506126447335a254223960c18b69c0526c46b013d022e9390260025f9054906101000a900473ffffffffffffffffffffffffffffffffffffffff168961212e565b8473ffffffffffffffffffffffffffffffffffffffff1663022c0d9f5f88305f67ffffffffffffffff81111561267d5761267c613940565b5b6040519080825280601f01601f1916602001820160405280156126af5781602001600182028036833780820191505090505b506040518563ffffffff1660e01b81526004016126cf9493929190613f1d565b5f604051808303815f87803b1580156126e6575f5ffd5b505af11580156126f8573d5f5f3e3d5ffd5b505050506128bb565b7335a254223960c18b69c0526c46b013d022e9390273ffffffffffffffffffffffffffffffffffffffff168373ffffffffffffffffffffffffffffffffffffffff1614801561278f575073c02aaa39b223fe8d0a0e5c4f27ead9083c756cc273ffffffffffffffffffffffffffffffffffffffff168473ffffffffffffffffffffffffffffffffffffffff16145b156128ba576127bf87826dffffffffffffffffffffffffffff16846dffffffffffffffffffffffffffff1661301b565b95506128017335a254223960c18b69c0526c46b013d022e9390260025f9054906101000a900473ffffffffffffffffffffffffffffffffffffffff168961212e565b8473ffffffffffffffffffffffffffffffffffffffff1663022c0d9f875f305f67ffffffffffffffff81111561283a57612839613940565b5b6040519080825280601f01601f19166020018201604052801561286c5781602001600182028036833780820191505090505b506040518563ffffffff1660e01b815260040161288c9493929190613ed3565b5f604051808303815f87803b1580156128a3575f5ffd5b505af11580156128b5573d5f5f3e3d5ffd5b505050505b5b50505050505b919050565b5f8190508073ffffffffffffffffffffffffffffffffffffffff1663b8dc491b73c02aaa39b223fe8d0a0e5c4f27ead9083c756cc2306040518363ffffffff1660e01b8152600401612919929190613c42565b6020604051808303815f875af1158015612935573d5f5f3e3d5ffd5b505050506040513d601f19601f820116820180604052508101906129599190613c7d565b505f73ffffffffffffffffffffffffffffffffffffffff1660035f9054906101000a900473ffffffffffffffffffffffffffffffffffffffff1673ffffffffffffffffffffffffffffffffffffffff1614612a4c578073ffffffffffffffffffffffffffffffffffffffff1663b8dc491b60035f9054906101000a900473ffffffffffffffffffffffffffffffffffffffff16306040518363ffffffff1660e01b8152600401612a0a929190613c42565b6020604051808303815f875af1158015612a26573d5f5f3e3d5ffd5b505050506040513d601f19601f82011682018060405250810190612a4a9190613c7d565b505b8073ffffffffffffffffffffffffffffffffffffffff16631163b2b0306040518263ffffffff1660e01b8152600401612a859190614167565b6020604051808303815f875af1158015612aa1573d5f5f3e3d5ffd5b505050506040513d601f19601f82011682018060405250810190612ac59190613c7d565b505050565b5f60016103e56103e884612ade9190614180565b612ae891906141ee565b612af29190613ba7565b9050919050565b5f73c02aaa39b223fe8d0a0e5c4f27ead9083c756cc273ffffffffffffffffffffffffffffffffffffffff166370a08231306040518263ffffffff1660e01b8152600401612b47919061389b565b602060405180830381865afa158015612b62573d5f5f3e3d5ffd5b505050506040513d601f19601f82011682018060405250810190612b869190613c7d565b90505f5f73ffffffffffffffffffffffffffffffffffffffff1660035f9054906101000a900473ffffffffffffffffffffffffffffffffffffffff1673ffffffffffffffffffffffffffffffffffffffff1614612c7b5760035f9054906101000a900473ffffffffffffffffffffffffffffffffffffffff1673ffffffffffffffffffffffffffffffffffffffff166370a08231306040518263ffffffff1660e01b8152600401612c37919061389b565b602060405180830381865afa158015612c52573d5f5f3e3d5ffd5b505050506040513d601f19601f82011682018060405250810190612c769190613c7d565b612c7d565b5f5b905083821115612cf35773c02aaa39b223fe8d0a0e5c4f27ead9083c756cc25f5f6101000a81548173ffffffffffffffffffffffffffffffffffffffff021916908373ffffffffffffffffffffffffffffffffffffffff1602179055508382612ce6919061421e565b6001819055505050612dbd565b82811115612d745760035f9054906101000a900473ffffffffffffffffffffffffffffffffffffffff165f5f6101000a81548173ffffffffffffffffffffffffffffffffffffffff021916908373ffffffffffffffffffffffffffffffffffffffff1602179055508281612d67919061421e565b6001819055505050612dbd565b5f5f5f6101000a81548173ffffffffffffffffffffffffffffffffffffffff021916908373ffffffffffffffffffffffffffffffffffffffff1602179055505f60018190555050505b5050565b5f5f5f612dd085855f1b61308b565b915091508115612de057805f1c92505b505092915050565b612df0613669565b5f5f612dfa6131de565b915091505f7335a254223960c18b69c0526c46b013d022e9390273ffffffffffffffffffffffffffffffffffffffff166318160ddd6040518163ffffffff1660e01b8152600401602060405180830381865afa158015612e5c573d5f5f3e3d5ffd5b505050506040513d601f19601f82011682018060405250810190612e809190613c7d565b90505f831480612e8f57505f82145b80612e9957505f81145b15612ea657505050613018565b5f6040518061012001604052806064815260200160c8815260200161012c81526020016101f4815260200161032081526020016103e881526020016105dc81526020016107d08152602001610bb881525090505f6040518060c001604052806107d081526020016109c48152602001610bb88152602001610dac8152602001610fa0815260200161138881525090505f5f90505b6009811015613011575f612710848360098110612f5a57612f59614251565b5b602002015187612f6a9190614180565b612f7491906141ee565b90505f8103612f835750613006565b5f612f8f82888a61301b565b9050612710811015612fa2575050613006565b5f6103e882612fb191906141ee565b90505f8103612fbf57600190505b5f5f90505b600681101561300157612ff48b8b8b8b8888888d8960068110612fea57612fe9614251565b5b602002015161338a565b9a50806001019050612fc4565b505050505b806001019050612f3a565b5050505050505b90565b5f5f84148061302957505f83145b8061303357505f82145b15613040575f9050613084565b5f6103e58561304f9190614180565b9050806103e8856130609190614180565b61306a9190613ba7565b83826130769190614180565b61308091906141ee565b9150505b9392505050565b5f5f60607f885cb69240a935d632d79c317109709ecfa91a80626ff3989d68f67f5b1dd12d5f1c73ffffffffffffffffffffffffffffffffffffffff1685856040516024016130db929190614296565b6040516020818303038152906040527f667f9d70000000000000000000000000000000000000000000000000000000007bffffffffffffffffffffffffffffffffffffffffffffffffffffffff19166020820180517bffffffffffffffffffffffffffffffffffffffffffffffffffffffff83818316178352505050506040516131659190614094565b5f60405180830381855afa9150503d805f811461319d576040519150601f19603f3d011682016040523d82523d5f602084013e6131a2565b606091505b5080925081945050508280156131ba57506020815110155b156131d657808060200190518101906131d391906142e7565b91505b509250929050565b5f5f5f60025f9054906101000a900473ffffffffffffffffffffffffffffffffffffffff1690505f8173ffffffffffffffffffffffffffffffffffffffff16630dfe16816040518163ffffffff1660e01b8152600401602060405180830381865afa15801561324f573d5f5f3e3d5ffd5b505050506040513d601f19601f820116820180604052508101906132739190613cbc565b90505f5f8373ffffffffffffffffffffffffffffffffffffffff16630902f1ac6040518163ffffffff1660e01b8152600401606060405180830381865afa1580156132c0573d5f5f3e3d5ffd5b505050506040513d601f19601f820116820180604052508101906132e49190613fe3565b50915091507335a254223960c18b69c0526c46b013d022e9390273ffffffffffffffffffffffffffffffffffffffff168373ffffffffffffffffffffffffffffffffffffffff160361335b57816dffffffffffffffffffffffffffff169550806dffffffffffffffffffffffffffff169450613382565b806dffffffffffffffffffffffffffff169550816dffffffffffffffffffffffffffff1694505b505050509091565b613392613669565b5f61271083866133a29190614180565b6133ac91906141ee565b90505f8114806133c757508484826133c49190613ba7565b10155b156133d557899150506134e0565b5f8482876133e3919061421e565b6133ed919061421e565b90505f8103613400578a925050506134e0565b5f5f6134118c8c8c8c8b888a6134ec565b915091505f61341f8a612aca565b90508083108061342e57505f82145b15613440578d955050505050506134e0565b5f818461344d919061421e565b90508e6101000151158061347357508e60a001518f60c00151613470919061421e565b81115b8061348157508e60e0015183115b156134d6576040518061012001604052808c81526020018b81526020018a81526020018681526020018781526020018381526020018581526020018481526020016001151581525096505050505050506134e0565b8e96505050505050505b98975050505050505050565b5f5f5f6134fa878a8c61301b565b90508385876135099190613ba7565b6135139190613ba7565b811015613526575f5f9250925050613650565b5f818b613533919061421e565b90505f888b6135429190613ba7565b90505f61355089848461301b565b9050888361355e9190613ba7565b9250808261356c919061421e565b91505f61357a89858561301b565b905088846135889190613ba7565b93508083613596919061421e565b92505f60028d670de0b6b3a7640000876135b09190614180565b6135ba91906141ee565b6135c49190614180565b9050670de0b6b3a7640000816064602e8d6135df9190614180565b6135e991906141ee565b6135f39190614180565b6135fd91906141ee565b965084871061360a575f96505b5f87111561362157868561361e919061421e565b94505b5f61362d8a878761301b565b905080838561363c9190613ba7565b6136469190613ba7565b9850505050505050505b97509795505050505050565b6114658061431383390190565b6040518061012001604052805f81526020015f81526020015f81526020015f81526020015f81526020015f81526020015f81526020015f81526020015f151581525090565b5f604051905090565b5f5ffd5b5f5ffd5b5f73ffffffffffffffffffffffffffffffffffffffff82169050919050565b5f6136e8826136bf565b9050919050565b6136f8816136de565b8114613702575f5ffd5b50565b5f81359050613713816136ef565b92915050565b5f819050919050565b61372b81613719565b8114613735575f5ffd5b50565b5f8135905061374681613722565b92915050565b5f5ffd5b5f5ffd5b5f5ffd5b5f5f83601f84011261376d5761376c61374c565b5b8235905067ffffffffffffffff81111561378a57613789613750565b5b6020830191508360018202830111156137a6576137a5613754565b5b9250929050565b5f5f5f5f5f608086880312156137c6576137c56136b7565b5b5f6137d388828901613705565b95505060206137e488828901613738565b94505060406137f588828901613738565b935050606086013567ffffffffffffffff811115613816576138156136bb565b5b61382288828901613758565b92509250509295509295909350565b5f8115159050919050565b61384581613831565b82525050565b5f60208201905061385e5f83018461383c565b92915050565b61386d81613719565b82525050565b5f6020820190506138865f830184613864565b92915050565b613895816136de565b82525050565b5f6020820190506138ae5f83018461388c565b92915050565b5f82825260208201905092915050565b7f626164206c656e646572000000000000000000000000000000000000000000005f82015250565b5f6138f8600a836138b4565b9150613903826138c4565b602082019050919050565b5f6020820190508181035f830152613925816138ec565b9050919050565b5f5ffd5b5f601f19601f8301169050919050565b7f4e487b71000000000000000000000000000000000000000000000000000000005f52604160045260245ffd5b61397682613930565b810181811067ffffffffffffffff8211171561399557613994613940565b5b80604052505050565b5f6139a76136ae565b90506139b3828261396d565b919050565b6139c181613831565b81146139cb575f5ffd5b50565b5f813590506139dc816139b8565b92915050565b5f61012082840312156139f8576139f761392c565b5b613a0361012061399e565b90505f613a1284828501613738565b5f830152506020613a2584828501613738565b6020830152506040613a3984828501613738565b6040830152506060613a4d84828501613738565b6060830152506080613a6184828501613738565b60808301525060a0613a7584828501613738565b60a08301525060c0613a8984828501613738565b60c08301525060e0613a9d84828501613738565b60e083015250610100613ab2848285016139ce565b6101008301525092915050565b5f5f5f6101608486031215613ad757613ad66136b7565b5b5f613ae4868287016139e2565b935050610120613af686828701613738565b925050610140613b0886828701613738565b9150509250925092565b7f62616420616d6f756e74000000000000000000000000000000000000000000005f82015250565b5f613b46600a836138b4565b9150613b5182613b12565b602082019050919050565b5f6020820190508181035f830152613b7381613b3a565b9050919050565b7f4e487b71000000000000000000000000000000000000000000000000000000005f52601160045260245ffd5b5f613bb182613719565b9150613bbc83613719565b9250828201905080821115613bd457613bd3613b7a565b5b92915050565b7f696e73756666696369656e7420555053000000000000000000000000000000005f82015250565b5f613c0e6010836138b4565b9150613c1982613bda565b602082019050919050565b5f6020820190508181035f830152613c3b81613c02565b9050919050565b5f604082019050613c555f83018561388c565b613c62602083018461388c565b9392505050565b5f81519050613c7781613722565b92915050565b5f60208284031215613c9257613c916136b7565b5b5f613c9f84828501613c69565b91505092915050565b5f81519050613cb6816136ef565b92915050565b5f60208284031215613cd157613cd06136b7565b5b5f613cde84828501613ca8565b91505092915050565b5f81519050613cf5816139b8565b92915050565b5f60208284031215613d1057613d0f6136b7565b5b5f613d1d84828501613ce7565b91505092915050565b613d2f81613719565b82525050565b613d3e81613831565b82525050565b61012082015f820151613d595f850182613d26565b506020820151613d6c6020850182613d26565b506040820151613d7f6040850182613d26565b506060820151613d926060850182613d26565b506080820151613da56080850182613d26565b5060a0820151613db860a0850182613d26565b5060c0820151613dcb60c0850182613d26565b5060e0820151613dde60e0850182613d26565b50610100820151613df3610100850182613d35565b50505050565b5f61016082019050613e0d5f830186613d44565b613e1b610120830185613864565b613e29610140830184613864565b949350505050565b5f819050919050565b5f819050919050565b5f613e5d613e58613e5384613e31565b613e3a565b613719565b9050919050565b613e6d81613e43565b82525050565b5f81519050919050565b5f82825260208201905092915050565b8281835e5f83830152505050565b5f613ea582613e73565b613eaf8185613e7d565b9350613ebf818560208601613e8d565b613ec881613930565b840191505092915050565b5f608082019050613ee65f830187613864565b613ef36020830186613e64565b613f00604083018561388c565b8181036060830152613f128184613e9b565b905095945050505050565b5f608082019050613f305f830187613e64565b613f3d6020830186613864565b613f4a604083018561388c565b8181036060830152613f5c8184613e9b565b905095945050505050565b5f6dffffffffffffffffffffffffffff82169050919050565b613f8981613f67565b8114613f93575f5ffd5b50565b5f81519050613fa481613f80565b92915050565b5f63ffffffff82169050919050565b613fc281613faa565b8114613fcc575f5ffd5b50565b5f81519050613fdd81613fb9565b92915050565b5f5f5f60608486031215613ffa57613ff96136b7565b5b5f61400786828701613f96565b935050602061401886828701613f96565b925050604061402986828701613fcf565b9150509250925092565b5f6040820190506140465f83018561388c565b6140536020830184613864565b9392505050565b5f81905092915050565b5f61406e82613e73565b614078818561405a565b9350614088818560208601613e8d565b80840191505092915050565b5f61409f8284614064565b915081905092915050565b7f7472616e73666572206661696c656400000000000000000000000000000000005f82015250565b5f6140de600f836138b4565b91506140e9826140aa565b602082019050919050565b5f6020820190508181035f83015261410b816140d2565b9050919050565b5f6060820190506141255f83018661388c565b614132602083018561388c565b61413f6040830184613864565b949350505050565b5f614151826136bf565b9050919050565b61416181614147565b82525050565b5f60208201905061417a5f830184614158565b92915050565b5f61418a82613719565b915061419583613719565b92508282026141a381613719565b915082820484148315176141ba576141b9613b7a565b5b5092915050565b7f4e487b71000000000000000000000000000000000000000000000000000000005f52601260045260245ffd5b5f6141f882613719565b915061420383613719565b925082614213576142126141c1565b5b828204905092915050565b5f61422882613719565b915061423383613719565b925082820390508181111561424b5761424a613b7a565b5b92915050565b7f4e487b71000000000000000000000000000000000000000000000000000000005f52603260045260245ffd5b5f819050919050565b6142908161427e565b82525050565b5f6040820190506142a95f83018561388c565b6142b66020830184614287565b9392505050565b6142c68161427e565b81146142d0575f5ffd5b50565b5f815190506142e1816142bd565b92915050565b5f602082840312156142fc576142fb6136b7565b5b5f614309848285016142d3565b9150509291505056fe60a060405234801561000f575f5ffd5b503373ffffffffffffffffffffffffffffffffffffffff1660808173ffffffffffffffffffffffffffffffffffffffff16815250506080516113ed6100785f395f8181610175015281816102be015281816103d701528181610865015261088a01526113ed5ff3fe60806040526004361061004d575f3560e01c80631163b2b014610058578063183418b4146100945780631ec10d13146100d05780638da5cb5b1461010c578063b8dc491b1461013657610054565b3661005457005b5f5ffd5b348015610063575f5ffd5b5061007e60048036038101906100799190610bc7565b610172565b60405161008b9190610c0a565b60405180910390f35b34801561009f575f5ffd5b506100ba60048036038101906100b59190610c5e565b6102bb565b6040516100c79190610c0a565b60405180910390f35b3480156100db575f5ffd5b506100f660048036038101906100f19190610cc6565b6103d4565b6040516101039190610c0a565b60405180910390f35b348015610117575f5ffd5b50610120610863565b60405161012d9190610d25565b60405180910390f35b348015610141575f5ffd5b5061015c60048036038101906101579190610c5e565b610887565b6040516101699190610c0a565b60405180910390f35b5f7f000000000000000000000000000000000000000000000000000000000000000073ffffffffffffffffffffffffffffffffffffffff163373ffffffffffffffffffffffffffffffffffffffff1614610201576040517f08c379a00000000000000000000000000000000000000000000000000000000081526004016101f890610d98565b60405180910390fd5b4790505f8111156102b6575f8273ffffffffffffffffffffffffffffffffffffffff168260405161023190610de3565b5f6040518083038185875af1925050503d805f811461026b576040519150601f19603f3d011682016040523d82523d5f602084013e610270565b606091505b50509050806102b4576040517f08c379a00000000000000000000000000000000000000000000000000000000081526004016102ab90610e41565b60405180910390fd5b505b919050565b5f7f000000000000000000000000000000000000000000000000000000000000000073ffffffffffffffffffffffffffffffffffffffff163373ffffffffffffffffffffffffffffffffffffffff161461034a576040517f08c379a000000000000000000000000000000000000000000000000000000000815260040161034190610d98565b60405180910390fd5b6103cc83838473ffffffffffffffffffffffffffffffffffffffff166370a08231306040518263ffffffff1660e01b81526004016103889190610d25565b602060405180830381865afa1580156103a3573d5f5f3e3d5ffd5b505050506040513d601f19601f820116820180604052508101906103c79190610e73565b6103d4565b905092915050565b5f7f000000000000000000000000000000000000000000000000000000000000000073ffffffffffffffffffffffffffffffffffffffff163373ffffffffffffffffffffffffffffffffffffffff1614610463576040517f08c379a000000000000000000000000000000000000000000000000000000000815260040161045a90610d98565b60405180910390fd5b5f8203610472575f905061085c565b5f8490505f8173ffffffffffffffffffffffffffffffffffffffff16630dfe16816040518163ffffffff1660e01b8152600401602060405180830381865afa1580156104c0573d5f5f3e3d5ffd5b505050506040513d601f19601f820116820180604052508101906104e49190610eb2565b90505f8273ffffffffffffffffffffffffffffffffffffffff1663d21220a76040518163ffffffff1660e01b8152600401602060405180830381865afa158015610530573d5f5f3e3d5ffd5b505050506040513d601f19601f820116820180604052508101906105549190610eb2565b90505f5f8473ffffffffffffffffffffffffffffffffffffffff16630902f1ac6040518163ffffffff1660e01b8152600401606060405180830381865afa1580156105a1573d5f5f3e3d5ffd5b505050506040513d601f19601f820116820180604052508101906105c59190610f59565b50915091508773ffffffffffffffffffffffffffffffffffffffff168473ffffffffffffffffffffffffffffffffffffffff16036106f25761062887836dffffffffffffffffffffffffffff16836dffffffffffffffffffffffffffff166109aa565b9550610635888a89610a1a565b8473ffffffffffffffffffffffffffffffffffffffff1663022c0d9f5f88305f67ffffffffffffffff81111561066e5761066d610fa9565b5b6040519080825280601f01601f1916602001820160405280156106a05781602001600182028036833780820191505090505b506040518563ffffffff1660e01b81526004016106c09493929190611088565b5f604051808303815f87803b1580156106d7575f5ffd5b505af11580156106e9573d5f5f3e3d5ffd5b50505050610856565b8773ffffffffffffffffffffffffffffffffffffffff168373ffffffffffffffffffffffffffffffffffffffff160361081a5761075087826dffffffffffffffffffffffffffff16846dffffffffffffffffffffffffffff166109aa565b955061075d888a89610a1a565b8473ffffffffffffffffffffffffffffffffffffffff1663022c0d9f875f305f67ffffffffffffffff81111561079657610795610fa9565b5b6040519080825280601f01601f1916602001820160405280156107c85781602001600182028036833780820191505090505b506040518563ffffffff1660e01b81526004016107e894939291906110d2565b5f604051808303815f87803b1580156107ff575f5ffd5b505af1158015610811573d5f5f3e3d5ffd5b50505050610855565b6040517f08c379a000000000000000000000000000000000000000000000000000000000815260040161084c90611166565b60405180910390fd5b5b50505050505b9392505050565b7f000000000000000000000000000000000000000000000000000000000000000081565b5f7f000000000000000000000000000000000000000000000000000000000000000073ffffffffffffffffffffffffffffffffffffffff163373ffffffffffffffffffffffffffffffffffffffff1614610916576040517f08c379a000000000000000000000000000000000000000000000000000000000815260040161090d90610d98565b60405180910390fd5b8273ffffffffffffffffffffffffffffffffffffffff166370a08231306040518263ffffffff1660e01b815260040161094f9190610d25565b602060405180830381865afa15801561096a573d5f5f3e3d5ffd5b505050506040513d601f19601f8201168201806040525081019061098e9190610e73565b90505f8111156109a4576109a3838383610a1a565b5b92915050565b5f5f8414806109b857505f83145b806109c257505f82145b156109cf575f9050610a13565b5f6103e5856109de91906111b1565b9050806103e8856109ef91906111b1565b6109f991906111f2565b8382610a0591906111b1565b610a0f9190611252565b9150505b9392505050565b5f5f8473ffffffffffffffffffffffffffffffffffffffff1663a9059cbb60e01b8585604051602401610a4e929190611282565b604051602081830303815290604052907bffffffffffffffffffffffffffffffffffffffffffffffffffffffff19166020820180517bffffffffffffffffffffffffffffffffffffffffffffffffffffffff8381831617835250505050604051610ab891906112d9565b5f604051808303815f865af19150503d805f8114610af1576040519150601f19603f3d011682016040523d82523d5f602084013e610af6565b606091505b5091509150818015610b2357505f81511480610b22575080806020019051810190610b219190611324565b5b5b610b62576040517f08c379a0000000000000000000000000000000000000000000000000000000008152600401610b5990611399565b60405180910390fd5b5050505050565b5f5ffd5b5f73ffffffffffffffffffffffffffffffffffffffff82169050919050565b5f610b9682610b6d565b9050919050565b610ba681610b8c565b8114610bb0575f5ffd5b50565b5f81359050610bc181610b9d565b92915050565b5f60208284031215610bdc57610bdb610b69565b5b5f610be984828501610bb3565b91505092915050565b5f819050919050565b610c0481610bf2565b82525050565b5f602082019050610c1d5f830184610bfb565b92915050565b5f610c2d82610b6d565b9050919050565b610c3d81610c23565b8114610c47575f5ffd5b50565b5f81359050610c5881610c34565b92915050565b5f5f60408385031215610c7457610c73610b69565b5b5f610c8185828601610c4a565b9250506020610c9285828601610c4a565b9150509250929050565b610ca581610bf2565b8114610caf575f5ffd5b50565b5f81359050610cc081610c9c565b92915050565b5f5f5f60608486031215610cdd57610cdc610b69565b5b5f610cea86828701610c4a565b9350506020610cfb86828701610c4a565b9250506040610d0c86828701610cb2565b9150509250925092565b610d1f81610c23565b82525050565b5f602082019050610d385f830184610d16565b92915050565b5f82825260208201905092915050565b7f6f6e6c79206f776e6572000000000000000000000000000000000000000000005f82015250565b5f610d82600a83610d3e565b9150610d8d82610d4e565b602082019050919050565b5f6020820190508181035f830152610daf81610d76565b9050919050565b5f81905092915050565b50565b5f610dce5f83610db6565b9150610dd982610dc0565b5f82019050919050565b5f610ded82610dc3565b9150819050919050565b7f6574682073656e64206661696c656400000000000000000000000000000000005f82015250565b5f610e2b600f83610d3e565b9150610e3682610df7565b602082019050919050565b5f6020820190508181035f830152610e5881610e1f565b9050919050565b5f81519050610e6d81610c9c565b92915050565b5f60208284031215610e8857610e87610b69565b5b5f610e9584828501610e5f565b91505092915050565b5f81519050610eac81610c34565b92915050565b5f60208284031215610ec757610ec6610b69565b5b5f610ed484828501610e9e565b91505092915050565b5f6dffffffffffffffffffffffffffff82169050919050565b610eff81610edd565b8114610f09575f5ffd5b50565b5f81519050610f1a81610ef6565b92915050565b5f63ffffffff82169050919050565b610f3881610f20565b8114610f42575f5ffd5b50565b5f81519050610f5381610f2f565b92915050565b5f5f5f60608486031215610f7057610f6f610b69565b5b5f610f7d86828701610f0c565b9350506020610f8e86828701610f0c565b9250506040610f9f86828701610f45565b9150509250925092565b7f4e487b71000000000000000000000000000000000000000000000000000000005f52604160045260245ffd5b5f819050919050565b5f819050919050565b5f611002610ffd610ff884610fd6565b610fdf565b610bf2565b9050919050565b61101281610fe8565b82525050565b5f81519050919050565b5f82825260208201905092915050565b8281835e5f83830152505050565b5f601f19601f8301169050919050565b5f61105a82611018565b6110648185611022565b9350611074818560208601611032565b61107d81611040565b840191505092915050565b5f60808201905061109b5f830187611009565b6110a86020830186610bfb565b6110b56040830185610d16565b81810360608301526110c78184611050565b905095945050505050565b5f6080820190506110e55f830187610bfb565b6110f26020830186611009565b6110ff6040830185610d16565b81810360608301526111118184611050565b905095945050505050565b7f555053206e6f7420696e207061697200000000000000000000000000000000005f82015250565b5f611150600f83610d3e565b915061115b8261111c565b602082019050919050565b5f6020820190508181035f83015261117d81611144565b9050919050565b7f4e487b71000000000000000000000000000000000000000000000000000000005f52601160045260245ffd5b5f6111bb82610bf2565b91506111c683610bf2565b92508282026111d481610bf2565b915082820484148315176111eb576111ea611184565b5b5092915050565b5f6111fc82610bf2565b915061120783610bf2565b925082820190508082111561121f5761121e611184565b5b92915050565b7f4e487b71000000000000000000000000000000000000000000000000000000005f52601260045260245ffd5b5f61125c82610bf2565b915061126783610bf2565b92508261127757611276611225565b5b828204905092915050565b5f6040820190506112955f830185610d16565b6112a26020830184610bfb565b9392505050565b5f6112b382611018565b6112bd8185610db6565b93506112cd818560208601611032565b80840191505092915050565b5f6112e482846112a9565b915081905092915050565b5f8115159050919050565b611303816112ef565b811461130d575f5ffd5b50565b5f8151905061131e816112fa565b92915050565b5f6020828403121561133957611338610b69565b5b5f61134684828501611310565b91505092915050565b7f7472616e73666572206661696c656400000000000000000000000000000000005f82015250565b5f611383600f83610d3e565b915061138e8261134f565b602082019050919050565b5f6020820190508181035f8301526113b081611377565b905091905056fea2646970667358221220128d5b7e0f1ac9505c3437b20ed11866b130092b0b5ce6500126701a9efdb7ae64736f6c634300081e0033a2646970667358221220cd3e1cf56df563ead6e8a4db70ed57360c5dc589907a72438ebb61a2cfcdf41264736f6c634300081e0033","linkReferences":{}},"methodIdentifiers":{"TARGET()":"cc1f2afa","USDC_WETH_PAIR()":"5fe8f386","WETH()":"ad5c4648","allowanceToVerifierPath1()":"5436a3be","allowanceToVerifierPath2()":"7af0d97d","counterToken()":"921c3a8d","executeOnOpportunity()":"3c2448ed","executed()":"31a38c89","pair()":"a8aa1b31","path1PressureAfter()":"f60176ec","path1PressureBefore()":"2c3717ba","path1Touched()":"1787eb8a","path2PressureAfter()":"960c7765","path2PressureBefore()":"ffdf376b","path2Touched()":"66c904eb","profitAmount()":"5ff972cc","profitToken()":"49343624","steam()":"365d2387","uniswapV2Call(address,uint256,uint256,bytes)":"10d1e85c","victimReleaseProbe()":"a5876cd0","victimTxCountAfter()":"af993712","victimTxCountBefore()":"d665000e","victimTxCountProbe()":"f004a866"},"id":0}