{"abi":[{"type":"constructor","inputs":[],"stateMutability":"nonpayable"},{"type":"receive","stateMutability":"payable"},{"type":"function","name":"owner","inputs":[],"outputs":[{"name":"","type":"address","internalType":"address"}],"stateMutability":"view"},{"type":"function","name":"sellAllToPair","inputs":[{"name":"pair","type":"address","internalType":"address"},{"name":"ups","type":"address","internalType":"address"}],"outputs":[{"name":"amountOut","type":"uint256","internalType":"uint256"}],"stateMutability":"nonpayable"},{"type":"function","name":"sellPortionToPair","inputs":[{"name":"pair","type":"address","internalType":"address"},{"name":"ups","type":"address","internalType":"address"},{"name":"amountIn","type":"uint256","internalType":"uint256"}],"outputs":[{"name":"amountOut","type":"uint256","internalType":"uint256"}],"stateMutability":"nonpayable"},{"type":"function","name":"sweep","inputs":[{"name":"token","type":"address","internalType":"address"},{"name":"to","type":"address","internalType":"address"}],"outputs":[{"name":"amount","type":"uint256","internalType":"uint256"}],"stateMutability":"nonpayable"},{"type":"function","name":"sweepETH","inputs":[{"name":"to","type":"address","internalType":"address payable"}],"outputs":[{"name":"amount","type":"uint256","internalType":"uint256"}],"stateMutability":"nonpayable"}],"bytecode":{"object":"0x60a060405234801561000f575f5ffd5b503373ffffffffffffffffffffffffffffffffffffffff1660808173ffffffffffffffffffffffffffffffffffffffff16815250506080516113ed6100785f395f8181610175015281816102be015281816103d701528181610865015261088a01526113ed5ff3fe60806040526004361061004d575f3560e01c80631163b2b014610058578063183418b4146100945780631ec10d13146100d05780638da5cb5b1461010c578063b8dc491b1461013657610054565b3661005457005b5f5ffd5b348015610063575f5ffd5b5061007e60048036038101906100799190610bc7565b610172565b60405161008b9190610c0a565b60405180910390f35b34801561009f575f5ffd5b506100ba60048036038101906100b59190610c5e565b6102bb565b6040516100c79190610c0a565b60405180910390f35b3480156100db575f5ffd5b506100f660048036038101906100f19190610cc6565b6103d4565b6040516101039190610c0a565b60405180910390f35b348015610117575f5ffd5b50610120610863565b60405161012d9190610d25565b60405180910390f35b348015610141575f5ffd5b5061015c60048036038101906101579190610c5e565b610887565b6040516101699190610c0a565b60405180910390f35b5f7f000000000000000000000000000000000000000000000000000000000000000073ffffffffffffffffffffffffffffffffffffffff163373ffffffffffffffffffffffffffffffffffffffff1614610201576040517f08c379a00000000000000000000000000000000000000000000000000000000081526004016101f890610d98565b60405180910390fd5b4790505f8111156102b6575f8273ffffffffffffffffffffffffffffffffffffffff168260405161023190610de3565b5f6040518083038185875af1925050503d805f811461026b576040519150601f19603f3d011682016040523d82523d5f602084013e610270565b606091505b50509050806102b4576040517f08c379a00000000000000000000000000000000000000000000000000000000081526004016102ab90610e41565b60405180910390fd5b505b919050565b5f7f000000000000000000000000000000000000000000000000000000000000000073ffffffffffffffffffffffffffffffffffffffff163373ffffffffffffffffffffffffffffffffffffffff161461034a576040517f08c379a000000000000000000000000000000000000000000000000000000000815260040161034190610d98565b60405180910390fd5b6103cc83838473ffffffffffffffffffffffffffffffffffffffff166370a08231306040518263ffffffff1660e01b81526004016103889190610d25565b602060405180830381865afa1580156103a3573d5f5f3e3d5ffd5b505050506040513d601f19601f820116820180604052508101906103c79190610e73565b6103d4565b905092915050565b5f7f000000000000000000000000000000000000000000000000000000000000000073ffffffffffffffffffffffffffffffffffffffff163373ffffffffffffffffffffffffffffffffffffffff1614610463576040517f08c379a000000000000000000000000000000000000000000000000000000000815260040161045a90610d98565b60405180910390fd5b5f8203610472575f905061085c565b5f8490505f8173ffffffffffffffffffffffffffffffffffffffff16630dfe16816040518163ffffffff1660e01b8152600401602060405180830381865afa1580156104c0573d5f5f3e3d5ffd5b505050506040513d601f19601f820116820180604052508101906104e49190610eb2565b90505f8273ffffffffffffffffffffffffffffffffffffffff1663d21220a76040518163ffffffff1660e01b8152600401602060405180830381865afa158015610530573d5f5f3e3d5ffd5b505050506040513d601f19601f820116820180604052508101906105549190610eb2565b90505f5f8473ffffffffffffffffffffffffffffffffffffffff16630902f1ac6040518163ffffffff1660e01b8152600401606060405180830381865afa1580156105a1573d5f5f3e3d5ffd5b505050506040513d601f19601f820116820180604052508101906105c59190610f59565b50915091508773ffffffffffffffffffffffffffffffffffffffff168473ffffffffffffffffffffffffffffffffffffffff16036106f25761062887836dffffffffffffffffffffffffffff16836dffffffffffffffffffffffffffff166109aa565b9550610635888a89610a1a565b8473ffffffffffffffffffffffffffffffffffffffff1663022c0d9f5f88305f67ffffffffffffffff81111561066e5761066d610fa9565b5b6040519080825280601f01601f1916602001820160405280156106a05781602001600182028036833780820191505090505b506040518563ffffffff1660e01b81526004016106c09493929190611088565b5f604051808303815f87803b1580156106d7575f5ffd5b505af11580156106e9573d5f5f3e3d5ffd5b50505050610856565b8773ffffffffffffffffffffffffffffffffffffffff168373ffffffffffffffffffffffffffffffffffffffff160361081a5761075087826dffffffffffffffffffffffffffff16846dffffffffffffffffffffffffffff166109aa565b955061075d888a89610a1a565b8473ffffffffffffffffffffffffffffffffffffffff1663022c0d9f875f305f67ffffffffffffffff81111561079657610795610fa9565b5b6040519080825280601f01601f1916602001820160405280156107c85781602001600182028036833780820191505090505b506040518563ffffffff1660e01b81526004016107e894939291906110d2565b5f604051808303815f87803b1580156107ff575f5ffd5b505af1158015610811573d5f5f3e3d5ffd5b50505050610855565b6040517f08c379a000000000000000000000000000000000000000000000000000000000815260040161084c90611166565b60405180910390fd5b5b50505050505b9392505050565b7f000000000000000000000000000000000000000000000000000000000000000081565b5f7f000000000000000000000000000000000000000000000000000000000000000073ffffffffffffffffffffffffffffffffffffffff163373ffffffffffffffffffffffffffffffffffffffff1614610916576040517f08c379a000000000000000000000000000000000000000000000000000000000815260040161090d90610d98565b60405180910390fd5b8273ffffffffffffffffffffffffffffffffffffffff166370a08231306040518263ffffffff1660e01b815260040161094f9190610d25565b602060405180830381865afa15801561096a573d5f5f3e3d5ffd5b505050506040513d601f19601f8201168201806040525081019061098e9190610e73565b90505f8111156109a4576109a3838383610a1a565b5b92915050565b5f5f8414806109b857505f83145b806109c257505f82145b156109cf575f9050610a13565b5f6103e5856109de91906111b1565b9050806103e8856109ef91906111b1565b6109f991906111f2565b8382610a0591906111b1565b610a0f9190611252565b9150505b9392505050565b5f5f8473ffffffffffffffffffffffffffffffffffffffff1663a9059cbb60e01b8585604051602401610a4e929190611282565b604051602081830303815290604052907bffffffffffffffffffffffffffffffffffffffffffffffffffffffff19166020820180517bffffffffffffffffffffffffffffffffffffffffffffffffffffffff8381831617835250505050604051610ab891906112d9565b5f604051808303815f865af19150503d805f8114610af1576040519150601f19603f3d011682016040523d82523d5f602084013e610af6565b606091505b5091509150818015610b2357505f81511480610b22575080806020019051810190610b219190611324565b5b5b610b62576040517f08c379a0000000000000000000000000000000000000000000000000000000008152600401610b5990611399565b60405180910390fd5b5050505050565b5f5ffd5b5f73ffffffffffffffffffffffffffffffffffffffff82169050919050565b5f610b9682610b6d565b9050919050565b610ba681610b8c565b8114610bb0575f5ffd5b50565b5f81359050610bc181610b9d565b92915050565b5f60208284031215610bdc57610bdb610b69565b5b5f610be984828501610bb3565b91505092915050565b5f819050919050565b610c0481610bf2565b82525050565b5f602082019050610c1d5f830184610bfb565b92915050565b5f610c2d82610b6d565b9050919050565b610c3d81610c23565b8114610c47575f5ffd5b50565b5f81359050610c5881610c34565b92915050565b5f5f60408385031215610c7457610c73610b69565b5b5f610c8185828601610c4a565b9250506020610c9285828601610c4a565b9150509250929050565b610ca581610bf2565b8114610caf575f5ffd5b50565b5f81359050610cc081610c9c565b92915050565b5f5f5f60608486031215610cdd57610cdc610b69565b5b5f610cea86828701610c4a565b9350506020610cfb86828701610c4a565b9250506040610d0c86828701610cb2565b9150509250925092565b610d1f81610c23565b82525050565b5f602082019050610d385f830184610d16565b92915050565b5f82825260208201905092915050565b7f6f6e6c79206f776e6572000000000000000000000000000000000000000000005f82015250565b5f610d82600a83610d3e565b9150610d8d82610d4e565b602082019050919050565b5f6020820190508181035f830152610daf81610d76565b9050919050565b5f81905092915050565b50565b5f610dce5f83610db6565b9150610dd982610dc0565b5f82019050919050565b5f610ded82610dc3565b9150819050919050565b7f6574682073656e64206661696c656400000000000000000000000000000000005f82015250565b5f610e2b600f83610d3e565b9150610e3682610df7565b602082019050919050565b5f6020820190508181035f830152610e5881610e1f565b9050919050565b5f81519050610e6d81610c9c565b92915050565b5f60208284031215610e8857610e87610b69565b5b5f610e9584828501610e5f565b91505092915050565b5f81519050610eac81610c34565b92915050565b5f60208284031215610ec757610ec6610b69565b5b5f610ed484828501610e9e565b91505092915050565b5f6dffffffffffffffffffffffffffff82169050919050565b610eff81610edd565b8114610f09575f5ffd5b50565b5f81519050610f1a81610ef6565b92915050565b5f63ffffffff82169050919050565b610f3881610f20565b8114610f42575f5ffd5b50565b5f81519050610f5381610f2f565b92915050565b5f5f5f60608486031215610f7057610f6f610b69565b5b5f610f7d86828701610f0c565b9350506020610f8e86828701610f0c565b9250506040610f9f86828701610f45565b9150509250925092565b7f4e487b71000000000000000000000000000000000000000000000000000000005f52604160045260245ffd5b5f819050919050565b5f819050919050565b5f611002610ffd610ff884610fd6565b610fdf565b610bf2565b9050919050565b61101281610fe8565b82525050565b5f81519050919050565b5f82825260208201905092915050565b8281835e5f83830152505050565b5f601f19601f8301169050919050565b5f61105a82611018565b6110648185611022565b9350611074818560208601611032565b61107d81611040565b840191505092915050565b5f60808201905061109b5f830187611009565b6110a86020830186610bfb565b6110b56040830185610d16565b81810360608301526110c78184611050565b905095945050505050565b5f6080820190506110e55f830187610bfb565b6110f26020830186611009565b6110ff6040830185610d16565b81810360608301526111118184611050565b905095945050505050565b7f555053206e6f7420696e207061697200000000000000000000000000000000005f82015250565b5f611150600f83610d3e565b915061115b8261111c565b602082019050919050565b5f6020820190508181035f83015261117d81611144565b9050919050565b7f4e487b71000000000000000000000000000000000000000000000000000000005f52601160045260245ffd5b5f6111bb82610bf2565b91506111c683610bf2565b92508282026111d481610bf2565b915082820484148315176111eb576111ea611184565b5b5092915050565b5f6111fc82610bf2565b915061120783610bf2565b925082820190508082111561121f5761121e611184565b5b92915050565b7f4e487b71000000000000000000000000000000000000000000000000000000005f52601260045260245ffd5b5f61125c82610bf2565b915061126783610bf2565b92508261127757611276611225565b5b828204905092915050565b5f6040820190506112955f830185610d16565b6112a26020830184610bfb565b9392505050565b5f6112b382611018565b6112bd8185610db6565b93506112cd818560208601611032565b80840191505092915050565b5f6112e482846112a9565b915081905092915050565b5f8115159050919050565b611303816112ef565b811461130d575f5ffd5b50565b5f8151905061131e816112fa565b92915050565b5f6020828403121561133957611338610b69565b5b5f61134684828501611310565b91505092915050565b7f7472616e73666572206661696c656400000000000000000000000000000000005f82015250565b5f611383600f83610d3e565b915061138e8261134f565b602082019050919050565b5f6020820190508181035f8301526113b081611377565b905091905056fea2646970667358221220128d5b7e0f1ac9505c3437b20ed11866b130092b0b5ce6500126701a9efdb7ae64736f6c634300081e0033","linkReferences":{}},"methodIdentifiers":{"owner()":"8da5cb5b","sellAllToPair(address,address)":"183418b4","sellPortionToPair(address,address,uint256)":"1ec10d13","sweep(address,address)":"b8dc491b","sweepETH(address)":"1163b2b0"},"id":0}