{"abi":[{"type":"constructor","inputs":[],"stateMutability":"nonpayable"},{"type":"function","name":"ADDRESSES_PROVIDER","inputs":[],"outputs":[{"name":"","type":"address","internalType":"contract IPoolAddressesProviderMinimal"}],"stateMutability":"view"},{"type":"function","name":"POOL","inputs":[],"outputs":[{"name":"","type":"address","internalType":"contract IPoolMinimal"}],"stateMutability":"view"},{"type":"function","name":"attempted","inputs":[],"outputs":[{"name":"","type":"bool","internalType":"bool"}],"stateMutability":"view"},{"type":"function","name":"callbackTriggered","inputs":[],"outputs":[{"name":"","type":"bool","internalType":"bool"}],"stateMutability":"view"},{"type":"function","name":"emodeAvailableBorrowsBaseBefore","inputs":[],"outputs":[{"name":"","type":"uint256","internalType":"uint256"}],"stateMutability":"view"},{"type":"function","name":"executeOnOpportunity","inputs":[],"outputs":[],"stateMutability":"nonpayable"},{"type":"function","name":"executeOperation","inputs":[{"name":"","type":"address[]","internalType":"address[]"},{"name":"","type":"uint256[]","internalType":"uint256[]"},{"name":"","type":"uint256[]","internalType":"uint256[]"},{"name":"initiator","type":"address","internalType":"address"},{"name":"params","type":"bytes","internalType":"bytes"}],"outputs":[{"name":"","type":"bool","internalType":"bool"}],"stateMutability":"nonpayable"},{"type":"function","name":"exploitPathUsed","inputs":[],"outputs":[{"name":"","type":"string","internalType":"string"}],"stateMutability":"pure"},{"type":"function","name":"exploitPaths","inputs":[],"outputs":[{"name":"paths","type":"string[4]","internalType":"string[4]"}],"stateMutability":"pure"},{"type":"function","name":"finalHealthFactor","inputs":[],"outputs":[{"name":"","type":"uint256","internalType":"uint256"}],"stateMutability":"view"},{"type":"function","name":"hypothesisValidated","inputs":[],"outputs":[{"name":"","type":"bool","internalType":"bool"}],"stateMutability":"view"},{"type":"function","name":"lastFailureReason","inputs":[],"outputs":[{"name":"","type":"string","internalType":"string"}],"stateMutability":"view"},{"type":"function","name":"normalAvailableBorrowsBaseBefore","inputs":[],"outputs":[{"name":"","type":"uint256","internalType":"uint256"}],"stateMutability":"view"},{"type":"function","name":"profitAmount","inputs":[],"outputs":[{"name":"","type":"uint256","internalType":"uint256"}],"stateMutability":"view"},{"type":"function","name":"profitToken","inputs":[],"outputs":[{"name":"","type":"address","internalType":"address"}],"stateMutability":"view"},{"type":"function","name":"selectedBorrowAmount","inputs":[],"outputs":[{"name":"","type":"uint256","internalType":"uint256"}],"stateMutability":"view"},{"type":"function","name":"selectedBorrowAmountBase","inputs":[],"outputs":[{"name":"","type":"uint256","internalType":"uint256"}],"stateMutability":"view"},{"type":"function","name":"selectedBorrowAsset","inputs":[],"outputs":[{"name":"","type":"address","internalType":"address"}],"stateMutability":"view"},{"type":"function","name":"selectedCategory","inputs":[],"outputs":[{"name":"","type":"uint8","internalType":"uint8"}],"stateMutability":"view"},{"type":"function","name":"selectedCollateralAmount","inputs":[],"outputs":[{"name":"","type":"uint256","internalType":"uint256"}],"stateMutability":"view"},{"type":"function","name":"selectedCollateralAsset","inputs":[],"outputs":[{"name":"","type":"address","internalType":"address"}],"stateMutability":"view"},{"type":"function","name":"uniswapV2Call","inputs":[{"name":"sender","type":"address","internalType":"address"},{"name":"amount0","type":"uint256","internalType":"uint256"},{"name":"amount1","type":"uint256","internalType":"uint256"},{"name":"data","type":"bytes","internalType":"bytes"}],"outputs":[],"stateMutability":"nonpayable"}],"bytecode":{"object":"0x60c060405234801561000f575f5ffd5b505f73fd11aba71c06061f446ade4eec057179f19c23c473ffffffffffffffffffffffffffffffffffffffff16630542975c6040518163ffffffff1660e01b8152600401602060405180830381865afa15801561006e573d5f5f3e3d5ffd5b505050506040513d601f19601f82011682018060405250810190610092919061022d565b90505f8173ffffffffffffffffffffffffffffffffffffffff1663026b1d5f6040518163ffffffff1660e01b8152600401602060405180830381865afa1580156100de573d5f5f3e3d5ffd5b505050506040513d601f19601f820116820180604052508101906101029190610282565b90505f73ffffffffffffffffffffffffffffffffffffffff168173ffffffffffffffffffffffffffffffffffffffff160361014f5773fd11aba71c06061f446ade4eec057179f19c23c490505b8173ffffffffffffffffffffffffffffffffffffffff1660a08173ffffffffffffffffffffffffffffffffffffffff16815250508073ffffffffffffffffffffffffffffffffffffffff1660808173ffffffffffffffffffffffffffffffffffffffff168152505050506102ad565b5f5ffd5b5f73ffffffffffffffffffffffffffffffffffffffff82169050919050565b5f6101eb826101c2565b9050919050565b5f6101fc826101e1565b9050919050565b61020c816101f2565b8114610216575f5ffd5b50565b5f8151905061022781610203565b92915050565b5f60208284031215610242576102416101be565b5b5f61024f84828501610219565b91505092915050565b610261816101e1565b811461026b575f5ffd5b50565b5f8151905061027c81610258565b92915050565b5f60208284031215610297576102966101be565b5b5f6102a48482850161026e565b91505092915050565b60805160a051615fc16103455f395f81816103d6015261316501525f81816108b301528181610c9f01528181610d6b01528181610e9d01528181610ee6015281816110c801528181611145015281816111d5015281816112eb015281816115c001528181611ace01528181611e740152818161238001528181612679015281816128dd01528181612d070152612e070152615fc15ff3fe608060405234801561000f575f5ffd5b5060043610610140575f3560e01c806349343624116100b6578063917f51b41161007a578063917f51b41461030e578063920f5c841461032c578063942de40e1461035c578063d78c42811461037a578063d88621a214610398578063e9f60a1c146103b657610140565b806349343624146102785780634a3cb246146102965780635ff972cc146102b45780637535d246146102d257806389058a69146102f057610140565b80631a6fe78b116101085780631a6fe78b146101d857806320cedb55146101f65780632f2e958e146102145780633c2448ed1461023257806343ebbc2a1461023c578063463defd11461025a57610140565b80630542975c146101445780630958424314610162578063105ed87e1461018057806310d1e85c1461019e578063169abc66146101ba575b5f5ffd5b61014c6103d4565b60405161015991906140ce565b60405180910390f35b61016a6103f8565b6040516101779190614157565b60405180910390f35b610188610484565b6040516101959190614197565b60405180910390f35b6101b860048036038101906101b3919061427f565b6104a9565b005b6101c2610758565b6040516101cf9190614312565b60405180910390f35b6101e061075e565b6040516101ed9190614312565b60405180910390f35b6101fe610764565b60405161020b9190614197565b60405180910390f35b61021c610789565b6040516102299190614422565b60405180910390f35b61023a610867565b005b610244610e4c565b6040516102519190614312565b60405180910390f35b610262610e52565b60405161026f919061445c565b60405180910390f35b610280610e64565b60405161028d9190614197565b60405180910390f35b61029e610e8c565b6040516102ab9190614312565b60405180910390f35b6102bc610e92565b6040516102c99190614312565b60405180910390f35b6102da610e9b565b6040516102e79190614495565b60405180910390f35b6102f8610ebf565b60405161030591906144c9565b60405180910390f35b610316610ed2565b604051610323919061445c565b60405180910390f35b6103466004803603810190610341919061458c565b610ee3565b604051610353919061445c565b60405180910390f35b610364611075565b604051610371919061445c565b60405180910390f35b610382611087565b60405161038f9190614157565b60405180910390f35b6103a06110aa565b6040516103ad9190614312565b60405180910390f35b6103be6110b0565b6040516103cb9190614312565b60405180910390f35b7f000000000000000000000000000000000000000000000000000000000000000081565b600b8054610405906146af565b80601f0160208091040260200160405190810160405280929190818152602001828054610431906146af565b801561047c5780601f106104535761010080835404028352916020019161047c565b820191905f5260205f20905b81548152906001019060200180831161045f57829003601f168201915b505050505081565b5f60039054906101000a900473ffffffffffffffffffffffffffffffffffffffff1681565b5f82828101906104b991906148e8565b9050806060015173ffffffffffffffffffffffffffffffffffffffff163373ffffffffffffffffffffffffffffffffffffffff1614158061052657503073ffffffffffffffffffffffffffffffffffffffff168673ffffffffffffffffffffffffffffffffffffffff1614155b1561052f575f5ffd5b5f816060015190505f8173ffffffffffffffffffffffffffffffffffffffff16630dfe16816040518163ffffffff1660e01b8152600401602060405180830381865afa158015610581573d5f5f3e3d5ffd5b505050506040513d601f19601f820116820180604052508101906105a59190614928565b90505f8173ffffffffffffffffffffffffffffffffffffffff168460a0015173ffffffffffffffffffffffffffffffffffffffff16146105e557866105e7565b875b9050836101000151811415806105fc57505f81145b15610605575f5ffd5b61060f84826110b6565b508360400151156106b3578360c0015173ffffffffffffffffffffffffffffffffffffffff1663a9059cbb85606001518661012001516040518363ffffffff1660e01b8152600401610662929190614953565b6020604051808303815f875af115801561067e573d5f5f3e3d5ffd5b505050506040513d601f19601f820116820180604052508101906106a2919061498e565b6106aa575f5ffd5b50505050610751565b6106bc84611753565b8360e0015173ffffffffffffffffffffffffffffffffffffffff1663a9059cbb85606001518661012001516040518363ffffffff1660e01b8152600401610704929190614953565b6020604051808303815f875af1158015610720573d5f5f3e3d5ffd5b505050506040513d601f19601f82011682018060405250810190610744919061498e565b61074c575f5ffd5b505050505b5050505050565b60075481565b60025481565b60015f9054906101000a900473ffffffffffffffffffffffffffffffffffffffff1681565b610791613f18565b6040518060800160405280604b8152602001615bc9604b9139815f600481106107bd576107bc6149b9565b5b60200201819052506040518060a0016040528060648152602001615da160649139816001600481106107f2576107f16149b9565b5b60200201819052506040518060800160405280605d8152602001615f2f605d913981600260048110610827576108266149b9565b5b60200201819052506040518060c0016040528060968152602001615b33609691398160036004811061085c5761085b6149b9565b5b602002018190525090565b5f5f9054906101000a900460ff16610e4a5760015f5f6101000a81548160ff02191690831515021790555060405180602001604052805f815250600b90816108af9190614b7d565b505f7f000000000000000000000000000000000000000000000000000000000000000073ffffffffffffffffffffffffffffffffffffffff1663d1946dbc6040518163ffffffff1660e01b81526004015f60405180830381865afa158015610919573d5f5f3e3d5ffd5b505050506040513d5f823e3d601f19601f820116820180604052508101906109419190614d0c565b90505f81510361097957604051806060016040528060268152602001615e7e60269139600b90816109729190614b7d565b5050610e4a565b5f610983826119a8565b9050805f01516109995761099682611d6d565b90505b805f01516109d0576040518060800160405280605b8152602001615ea4605b9139600b90816109c89190614b7d565b505050610e4a565b8060a001515f60036101000a81548173ffffffffffffffffffffffffffffffffffffffff021916908373ffffffffffffffffffffffffffffffffffffffff1602179055508060c0015160015f6101000a81548173ffffffffffffffffffffffffffffffffffffffff021916908373ffffffffffffffffffffffffffffffffffffffff160217905550806101800151600160146101000a81548160ff021916908360ff1602179055508061010001516002819055508060c0015160085f6101000a81548173ffffffffffffffffffffffffffffffffffffffff021916908373ffffffffffffffffffffffffffffffffffffffff1602179055508060c0015173ffffffffffffffffffffffffffffffffffffffff166370a08231306040518263ffffffff1660e01b8152600401610b059190614197565b602060405180830381865afa158015610b20573d5f5f3e3d5ffd5b505050506040513d601f19601f82011682018060405250810190610b449190614d67565b600a81905550806020015115610bb357610b5d8161202d565b610bae57610b69612112565b5f600b8054610b77906146af565b905003610ba757604051806080016040528060438152602001615c1460439139600b9081610ba59190614b7d565b505b5050610e4a565b610c0e565b610bbc81612162565b610c0d57610bc8612112565b5f600b8054610bd6906146af565b905003610c0657604051806080016040528060418152602001615e3d60419139600b9081610c049190614b7d565b505b5050610e4a565b5b600a548160c0015173ffffffffffffffffffffffffffffffffffffffff166370a08231306040518263ffffffff1660e01b8152600401610c4e9190614197565b602060405180830381865afa158015610c69573d5f5f3e3d5ffd5b505050506040513d601f19601f82011682018060405250810190610c8d9190614d67565b610c979190614dbf565b6009819055507f000000000000000000000000000000000000000000000000000000000000000073ffffffffffffffffffffffffffffffffffffffff1663bf92857c306040518263ffffffff1660e01b8152600401610cf69190614197565b60c060405180830381865afa158015610d11573d5f5f3e3d5ffd5b505050506040513d601f19601f82011682018060405250810190610d359190614df2565b909192939450909192935090919250909150905060075f8291905055505f60019054906101000a900460ff168015610e0357505f7f000000000000000000000000000000000000000000000000000000000000000073ffffffffffffffffffffffffffffffffffffffff1663eddf1b79306040518263ffffffff1660e01b8152600401610dc29190614197565b602060405180830381865afa158015610ddd573d5f5f3e3d5ffd5b505050506040513d601f19601f82011682018060405250810190610e019190614d67565b145b8015610e125750600554600454115b8015610e27575066038d7ea4c6800060095410155b15610e475760015f60026101000a81548160ff0219169083151502179055505b50505b565b60065481565b5f60029054906101000a900460ff1681565b5f60085f9054906101000a900473ffffffffffffffffffffffffffffffffffffffff16905090565b60045481565b5f600954905090565b7f000000000000000000000000000000000000000000000000000000000000000081565b600160149054906101000a900460ff1681565b5f5f9054906101000a900460ff1681565b5f7f000000000000000000000000000000000000000000000000000000000000000073ffffffffffffffffffffffffffffffffffffffff163373ffffffffffffffffffffffffffffffffffffffff16141580610f6b57503073ffffffffffffffffffffffffffffffffffffffff168473ffffffffffffffffffffffffffffffffffffffff1614155b15610fa057604051806060016040528060248152602001615c5760249139600b9081610f979190614b7d565b505f9050611068565b60015f60016101000a81548160ff0219169083151502179055505f8383810190610fca9190614e7b565b90505f8160ff1603611024576040518060400160405280601981526020017f696e76616c69642063616c6c6261636b2063617465676f727900000000000000815250600b908161101a9190614b7d565b505f915050611068565b61102d5f61237c565b61106257604051806060016040528060318152602001615ac860319139600b90816110589190614b7d565b505f915050611068565b60019150505b9998505050505050505050565b5f60019054906101000a900460ff1681565b60606040518061016001604052806101268152602001615c7b6101269139905090565b60055481565b60035481565b5f5f60608060605f6110ed8860a001517f000000000000000000000000000000000000000000000000000000000000000089612483565b611143576040518060400160405280601a81526020017f636f6c6c61746572616c20617070726f76616c206661696c6564000000000000815250600b90816111359190614b7d565b505f9550505050505061174d565b7f000000000000000000000000000000000000000000000000000000000000000073ffffffffffffffffffffffffffffffffffffffff1663617ba0378960a0015189305f6040518563ffffffff1660e01b81526004016111a69493929190614eec565b5f604051808303815f87803b1580156111bd575f5ffd5b505af11580156111cf573d5f5f3e3d5ffd5b505050507f000000000000000000000000000000000000000000000000000000000000000073ffffffffffffffffffffffffffffffffffffffff1663bf92857c306040518263ffffffff1660e01b815260040161122c9190614197565b60c060405180830381865afa158015611247573d5f5f3e3d5ffd5b505050506040513d601f19601f8201168201806040525081019061126b9190614df2565b909192939450909192935090915090505060055f82919050555061129388610180015161237c565b6112e9576040518060400160405280602081526020017f6661696c656420746f20656e61626c65206661766f7261626c6520654d6f6465815250600b90816112db9190614b7d565b505f9550505050505061174d565b7f000000000000000000000000000000000000000000000000000000000000000073ffffffffffffffffffffffffffffffffffffffff1663bf92857c306040518263ffffffff1660e01b81526004016113429190614197565b60c060405180830381865afa15801561135d573d5f5f3e3d5ffd5b505050506040513d601f19601f820116820180604052508101906113819190614df2565b909192939450909192935090915090505060065f829190505550600554600654116113db57604051806060016040528060308152602001615eff60309139600b90816113cd9190614b7d565b505f9550505050505061174d565b6113ee8860c0015189610140015161256e565b94505f850361142c57604051806060016040528060388152602001615e0560389139600b908161141e9190614b7d565b505f9550505050505061174d565b846003819055506114418860c0015186612818565b600481905550600167ffffffffffffffff811115611462576114616146e3565b5b6040519080825280602002602001820160405280156114905781602001602082028036833780820191505090505b5093508760c00151845f815181106114ab576114aa6149b9565b5b602002602001019073ffffffffffffffffffffffffffffffffffffffff16908173ffffffffffffffffffffffffffffffffffffffff1681525050600167ffffffffffffffff811115611500576114ff6146e3565b5b60405190808252806020026020018201604052801561152e5781602001602082028036833780820191505090505b50925084835f81518110611545576115446149b9565b5b602002602001018181525050600167ffffffffffffffff81111561156c5761156b6146e3565b5b60405190808252806020026020018201604052801561159a5781602001602082028036833780820191505090505b5091506002825f815181106115b2576115b16149b9565b5b6020026020010181815250507f000000000000000000000000000000000000000000000000000000000000000073ffffffffffffffffffffffffffffffffffffffff1663ab9c4b5d60e01b30868686308e610180015160405160200161161891906144c9565b6040516020818303038152906040525f60405160240161163e97969594939291906150fe565b604051602081830303815290604052907bffffffffffffffffffffffffffffffffffffffffffffffffffffffff19166020820180517bffffffffffffffffffffffffffffffffffffffffffffffffffffffff83818316178352505050506040516116a891906151c1565b5f604051808303815f865af19150503d805f81146116e1576040519150601f19603f3d011682016040523d82523d5f602084013e6116e6565b606091505b50508091505080611743576040518060400160405280601f81526020017f666c6173684c6f616e2064656274206f70656e696e6720726576657274656400815250600b90816117359190614b7d565b505f9550505050505061174d565b6001955050505050505b92915050565b5f816080015190505f8173ffffffffffffffffffffffffffffffffffffffff16630dfe16816040518163ffffffff1660e01b8152600401602060405180830381865afa1580156117a5573d5f5f3e3d5ffd5b505050506040513d601f19601f820116820180604052508101906117c99190614928565b90508260c0015173ffffffffffffffffffffffffffffffffffffffff1663a9059cbb84608001518561014001516040518363ffffffff1660e01b8152600401611813929190614953565b6020604051808303815f875af115801561182f573d5f5f3e3d5ffd5b505050506040513d601f19601f82011682018060405250810190611853919061498e565b61185b575f5ffd5b5f8173ffffffffffffffffffffffffffffffffffffffff168460e0015173ffffffffffffffffffffffffffffffffffffffff1614611899575f6118a0565b8361012001515b90505f8273ffffffffffffffffffffffffffffffffffffffff168560e0015173ffffffffffffffffffffffffffffffffffffffff16146118e5578461012001516118e7565b5f5b90508373ffffffffffffffffffffffffffffffffffffffff1663022c0d9f8383305f67ffffffffffffffff811115611922576119216146e3565b5b6040519080825280601f01601f1916602001820160405280156119545781602001600182028036833780820191505090505b506040518563ffffffff1660e01b815260040161197494939291906151d7565b5f604051808303815f87803b15801561198b575f5ffd5b505af115801561199d573d5f5f3e3d5ffd5b505050505050505050565b6119b0613f3f565b5f5f90505b8251811015611d67575f8382815181106119d2576119d16149b9565b5b602002602001015190505f73ffffffffffffffffffffffffffffffffffffffff168173ffffffffffffffffffffffffffffffffffffffff1603611a155750611d5c565b5f8173ffffffffffffffffffffffffffffffffffffffff166370a08231306040518263ffffffff1660e01b8152600401611a4f9190614197565b602060405180830381865afa158015611a6a573d5f5f3e3d5ffd5b505050506040513d601f19601f82011682018060405250810190611a8e9190614d67565b90505f8103611a9e575050611d5c565b5f611aa8836128d3565b9050611ab381612afa565b611abf57505050611d5c565b5f8160600151905081602001517f000000000000000000000000000000000000000000000000000000000000000073ffffffffffffffffffffffffffffffffffffffff16636c6f6ae1836040518263ffffffff1660e01b8152600401611b2591906144c9565b5f60405180830381865afa158015611b3f573d5f5f3e3d5ffd5b505050506040513d5f823e3d601f19601f82011682018060405250810190611b679190615392565b5f015161ffff1611611b7c5750505050611d5c565b5f5f90505b8751811015611d56575f888281518110611b9e57611b9d6149b9565b5b602002602001015190505f73ffffffffffffffffffffffffffffffffffffffff168173ffffffffffffffffffffffffffffffffffffffff161480611c0d57508573ffffffffffffffffffffffffffffffffffffffff168173ffffffffffffffffffffffffffffffffffffffff16145b15611c185750611d4b565b5f611c22826128d3565b9050611c32818660600151612b44565b611c3d575050611d4b565b5f611c4a8884878a612b8d565b905066038d7ea4c6800081111580611c6757508961016001518111155b15611c7457505050611d4b565b604051806101a001604052806001151581526020016001151581526020015f151581526020015f73ffffffffffffffffffffffffffffffffffffffff1681526020015f73ffffffffffffffffffffffffffffffffffffffff1681526020018973ffffffffffffffffffffffffffffffffffffffff1681526020018473ffffffffffffffffffffffffffffffffffffffff1681526020015f73ffffffffffffffffffffffffffffffffffffffff1681526020018881526020015f81526020015f81526020018281526020018660ff1681525099505050505b806001019050611b81565b50505050505b8060010190506119b5565b50919050565b611d75613f3f565b5f604051806101000160405280600561ffff1661ffff168152602001600a61ffff168152602001601961ffff168152602001603261ffff168152602001606461ffff16815260200160c861ffff1681526020016101f461ffff1681526020016103e861ffff1681525090505f5f90505b8351811015612026575f848281518110611e0257611e016149b9565b5b602002602001015190505f73ffffffffffffffffffffffffffffffffffffffff168173ffffffffffffffffffffffffffffffffffffffff1603611e45575061201b565b5f611e4f826128d3565b9050611e5a81612afa565b611e6557505061201b565b5f8160600151905081602001517f000000000000000000000000000000000000000000000000000000000000000073ffffffffffffffffffffffffffffffffffffffff16636c6f6ae1836040518263ffffffff1660e01b8152600401611ecb91906144c9565b5f60405180830381865afa158015611ee5573d5f5f3e3d5ffd5b505050506040513d5f823e3d601f19601f82011682018060405250810190611f0d9190615392565b5f015161ffff1611611f215750505061201b565b5f5f90505b8751811015612016575f888281518110611f4357611f426149b9565b5b602002602001015190505f73ffffffffffffffffffffffffffffffffffffffff168173ffffffffffffffffffffffffffffffffffffffff161480611fb257508473ffffffffffffffffffffffffffffffffffffffff168173ffffffffffffffffffffffffffffffffffffffff16145b15611fbd575061200b565b5f611fc7826128d3565b9050611fd7818660600151612b44565b611fe257505061200b565b5f611fef8784878c612f22565b90508961016001518161016001511115612007578099505b5050505b806001019050611f26565b505050505b806001019050611de5565b5050919050565b5f5f8260a0015173ffffffffffffffffffffffffffffffffffffffff166370a08231306040518263ffffffff1660e01b815260040161206c9190614197565b602060405180830381865afa158015612087573d5f5f3e3d5ffd5b505050506040513d601f19601f820116820180604052508101906120ab9190614d67565b90508261010001518110806120c457505f836101000151145b156120fa576040518060600160405280603a8152602001615af9603a9139600b90816120f09190614b7d565b505f91505061210d565b612109838461010001516110b6565b9150505b919050565b5f60085f6101000a81548173ffffffffffffffffffffffffffffffffffffffff021916908373ffffffffffffffffffffffffffffffffffffffff1602179055505f6009819055505f600a81905550565b5f5f826060015190505f8173ffffffffffffffffffffffffffffffffffffffff16630dfe16816040518163ffffffff1660e01b8152600401602060405180830381865afa1580156121b5573d5f5f3e3d5ffd5b505050506040513d601f19601f820116820180604052508101906121d99190614928565b90505f8173ffffffffffffffffffffffffffffffffffffffff168560a0015173ffffffffffffffffffffffffffffffffffffffff1614612219575f612220565b8461010001515b90505f8273ffffffffffffffffffffffffffffffffffffffff168660a0015173ffffffffffffffffffffffffffffffffffffffff161461226557856101000151612267565b5f5b90505f866060015173ffffffffffffffffffffffffffffffffffffffff1663022c0d9f60e01b8484308b6040516020016122a19190615500565b6040516020818303038152906040526040516024016122c394939291906151d7565b604051602081830303815290604052907bffffffffffffffffffffffffffffffffffffffffffffffffffffffff19166020820180517bffffffffffffffffffffffffffffffffffffffffffffffffffffffff838183161783525050505060405161232d91906151c1565b5f604051808303815f865af19150503d805f8114612366576040519150601f19603f3d011682016040523d82523d5f602084013e61236b565b606091505b505090508095505050505050919050565b5f5f7f000000000000000000000000000000000000000000000000000000000000000073ffffffffffffffffffffffffffffffffffffffff166328530a4760e01b846040516024016123ce91906144c9565b604051602081830303815290604052907bffffffffffffffffffffffffffffffffffffffffffffffffffffffff19166020820180517bffffffffffffffffffffffffffffffffffffffffffffffffffffffff838183161783525050505060405161243891906151c1565b5f604051808303815f865af19150503d805f8114612471576040519150601f19603f3d011682016040523d82523d5f602084013e612476565b606091505b5050905080915050919050565b5f5f8473ffffffffffffffffffffffffffffffffffffffff1663dd62ed3e30866040518363ffffffff1660e01b81526004016124c092919061551a565b602060405180830381865afa1580156124db573d5f5f3e3d5ffd5b505050506040513d601f19601f820116820180604052508101906124ff9190614d67565b9050828110612512576001915050612567565b5f811415801561252a575061252885855f61304d565b155b15612538575f915050612567565b61256385857fffffffffffffffffffffffffffffffffffffffffffffffffffffffffffffffff61304d565b9150505b9392505050565b5f5f612579846128d3565b90505f612584613162565b73ffffffffffffffffffffffffffffffffffffffff1663b3596f07866040518263ffffffff1660e01b81526004016125bc9190614197565b602060405180830381865afa1580156125d7573d5f5f3e3d5ffd5b505050506040513d601f19601f820116820180604052508101906125fb9190614d67565b90505f810361260e575f92505050612812565b5f8260400151600a6126209190615670565b90505f828260055461263291906156ba565b61263c9190615728565b90505f838360065461264e91906156ba565b6126589190615728565b90505f8873ffffffffffffffffffffffffffffffffffffffff166370a082317f000000000000000000000000000000000000000000000000000000000000000073ffffffffffffffffffffffffffffffffffffffff166335ea6a758c6040518263ffffffff1660e01b81526004016126d09190614197565b6101e060405180830381865afa1580156126ec573d5f5f3e3d5ffd5b505050506040513d601f19601f820116820180604052508101906127109190615971565b61010001516040518263ffffffff1660e01b81526004016127319190614197565b602060405180830381865afa15801561274c573d5f5f3e3d5ffd5b505050506040513d601f19601f820116820180604052508101906127709190614d67565b90508082111561277e578091505b5f60018461278c919061599d565b90505f600166038d7ea4c680008b6127a4919061599d565b6127ae919061599d565b9050808210156127bc578091505b8184116127d3575f98505050505050505050612812565b5f82856127e09190614dbf565b905060056004826127f191906156ba565b6127fb9190615728565b83612806919061599d565b99505050505050505050505b92915050565b5f5f612823846128d3565b90508060400151600a6128369190615670565b61283e613162565b73ffffffffffffffffffffffffffffffffffffffff1663b3596f07866040518263ffffffff1660e01b81526004016128769190614197565b602060405180830381865afa158015612891573d5f5f3e3d5ffd5b505050506040513d601f19601f820116820180604052508101906128b59190614d67565b846128c091906156ba565b6128ca9190615728565b91505092915050565b6128db614011565b7f000000000000000000000000000000000000000000000000000000000000000073ffffffffffffffffffffffffffffffffffffffff1663c44b11f7836040518263ffffffff1660e01b81526004016129349190614197565b602060405180830381865afa15801561294f573d5f5f3e3d5ffd5b505050506040513d601f19601f8201168201806040525081019061297391906159d0565b5f0151815f0181815250507fffffffffffffffffffffffffffffffffffffffffffffffffffffffffffff000019815f01511681602001818152505060307fffffffffffffffffffffffffffffffffffffffffffffffffff00ffffffffffff19825f015116901c8160400181815250505f7ffffffffffffffffffffffffffffffffffffffffffffffffffeffffffffffffff19825f01511614158160a00190151590811515815250505f7ffffffffffffffffffffffffffffffffffffffffffffffffffbffffffffffffff19825f01511614158160c00190151590811515815250505f7fffffffffffffffffffffffffffffffffffffffffffffffffefffffffffffffff19825f01511614158160e001901515908115158152505060a87fffffffffffffffffffff00ffffffffffffffffffffffffffffffffffffffffff19825f015116901c81606001818152505060d47ff0000000000fffffffffffffffffffffffffffffffffffffffffffffffffffff19825f015116901c816080018181525050919050565b5f5f826060015114158015612b1357505f826020015114155b8015612b2057508160a001515b8015612b2e57508160e00151155b8015612b3d57505f8260800151145b9050919050565b5f818360600151148015612b5d5750600f836040015110155b8015612b6a57508260c001515b8015612b7757508260a001515b8015612b8557508260e00151155b905092915050565b5f5f8203612b9d575f9050612f1a565b5f612ba7866128d3565b90505f612bb3866128d3565b90505f612bbe613162565b73ffffffffffffffffffffffffffffffffffffffff1663b3596f07896040518263ffffffff1660e01b8152600401612bf69190614197565b602060405180830381865afa158015612c11573d5f5f3e3d5ffd5b505050506040513d601f19601f82011682018060405250810190612c359190614d67565b90505f612c40613162565b73ffffffffffffffffffffffffffffffffffffffff1663b3596f07896040518263ffffffff1660e01b8152600401612c789190614197565b602060405180830381865afa158015612c93573d5f5f3e3d5ffd5b505050506040513d601f19601f82011682018060405250810190612cb79190614d67565b90505f821480612cc657505f81145b15612cd7575f945050505050612f1a565b5f8460400151600a612ce99190615670565b8388612cf591906156ba565b612cff9190615728565b90505f6127107f000000000000000000000000000000000000000000000000000000000000000073ffffffffffffffffffffffffffffffffffffffff16636c6f6ae18b6040518263ffffffff1660e01b8152600401612d5e91906144c9565b5f60405180830381865afa158015612d78573d5f5f3e3d5ffd5b505050506040513d5f823e3d601f19601f82011682018060405250810190612da09190615392565b5f015161ffff1683612db291906156ba565b612dbc9190615728565b90505f838660400151600a612dd19190615670565b83612ddc91906156ba565b612de69190615728565b90505f8b73ffffffffffffffffffffffffffffffffffffffff166370a082317f000000000000000000000000000000000000000000000000000000000000000073ffffffffffffffffffffffffffffffffffffffff166335ea6a758f6040518263ffffffff1660e01b8152600401612e5e9190614197565b6101e060405180830381865afa158015612e7a573d5f5f3e3d5ffd5b505050506040513d601f19601f82011682018060405250810190612e9e9190615971565b61010001516040518263ffffffff1660e01b8152600401612ebf9190614197565b602060405180830381865afa158015612eda573d5f5f3e3d5ffd5b505050506040513d601f19601f82011682018060405250810190612efe9190614d67565b9050808210612f0d5780612f0f565b815b985050505050505050505b949350505050565b612f2a613f3f565b5f612f37868686866131f5565b90508161016001518161016001511115612f4f578091505b5f5f90505b6004811015613043575f612f6782613335565b90505f73ffffffffffffffffffffffffffffffffffffffff168173ffffffffffffffffffffffffffffffffffffffff161480612fce57508773ffffffffffffffffffffffffffffffffffffffff168173ffffffffffffffffffffffffffffffffffffffff16145b8061300457508673ffffffffffffffffffffffffffffffffffffffff168173ffffffffffffffffffffffffffffffffffffffff16145b1561300f5750613038565b5f61301d8989848a8a6133ce565b90508461016001518161016001511115613035578094505b50505b806001019050612f54565b5050949350505050565b5f5f5f8573ffffffffffffffffffffffffffffffffffffffff1663095ea7b360e01b8686604051602401613082929190614953565b604051602081830303815290604052907bffffffffffffffffffffffffffffffffffffffffffffffffffffffff19166020820180517bffffffffffffffffffffffffffffffffffffffffffffffffffffffff83818316178352505050506040516130ec91906151c1565b5f604051808303815f865af19150503d805f8114613125576040519150601f19603f3d011682016040523d82523d5f602084013e61312a565b606091505b509150915081801561315757505f81511480613156575080806020019051810190613155919061498e565b5b5b925050509392505050565b5f7f000000000000000000000000000000000000000000000000000000000000000073ffffffffffffffffffffffffffffffffffffffff1663fca513a86040518163ffffffff1660e01b8152600401602060405180830381865afa1580156131cc573d5f5f3e3d5ffd5b505050506040513d601f19601f820116820180604052508101906131f09190614928565b905090565b6131fd613f3f565b5f5f90505b600281101561332c575f61321582613510565b73ffffffffffffffffffffffffffffffffffffffff1663e6a4390588886040518363ffffffff1660e01b815260040161324f92919061551a565b602060405180830381865afa15801561326a573d5f5f3e3d5ffd5b505050506040513d601f19601f8201168201806040525081019061328e9190614928565b90505f73ffffffffffffffffffffffffffffffffffffffff168173ffffffffffffffffffffffffffffffffffffffff16036132c95750613321565b5f5f6132d6838a8a613561565b915091505f8214806132e757505f81145b156132f457505050613321565b5f613304848b8b8b87878d613805565b9050856101600151816101600151111561331c578095505b505050505b806001019050613202565b50949350505050565b5f5f82036133595773c02aaa39b223fe8d0a0e5c4f27ead9083c756cc290506133c9565b6001820361337d5773a0b86991c6218b36c1d19d4a2e9eb0ce3606eb4890506133c9565b600282036133a15773dac17f958d2ee523a2206206994597c13d831ec790506133c9565b600382036133c557736b175474e89094c44da98b954eedeac495271d0f90506133c9565b5f90505b919050565b6133d6613f3f565b5f5f90505b6002811015613506575f6133ee82613510565b73ffffffffffffffffffffffffffffffffffffffff1663e6a4390589886040518363ffffffff1660e01b815260040161342892919061551a565b602060405180830381865afa158015613443573d5f5f3e3d5ffd5b505050506040513d601f19601f820116820180604052508101906134679190614928565b90505f73ffffffffffffffffffffffffffffffffffffffff168173ffffffffffffffffffffffffffffffffffffffff16036134a257506134fb565b5f5f6134af838b8a613561565b915091505f8214806134c057505f81145b156134cd575050506134fb565b5f6134de8b8b8b8b8888888e6139fd565b905085610160015181610160015111156134f6578095505b505050505b8060010190506133db565b5095945050505050565b5f5f820361353457735c69bee701ef814a2b6a3edd4b1652cb9cc5aa6f905061355c565b600182036135585773c0aee478e3658e2610c5f7a4a2e1777ce9e4f2ac905061355c565b5f90505b919050565b5f5f5f8590505f5f8273ffffffffffffffffffffffffffffffffffffffff16630902f1ac6040518163ffffffff1660e01b8152600401606060405180830381865afa1580156135b2573d5f5f3e3d5ffd5b505050506040513d601f19601f820116820180604052508101906135d69190615a77565b50915091505f8373ffffffffffffffffffffffffffffffffffffffff16630dfe16816040518163ffffffff1660e01b8152600401602060405180830381865afa158015613625573d5f5f3e3d5ffd5b505050506040513d601f19601f820116820180604052508101906136499190614928565b90505f8473ffffffffffffffffffffffffffffffffffffffff1663d21220a76040518163ffffffff1660e01b8152600401602060405180830381865afa158015613695573d5f5f3e3d5ffd5b505050506040513d601f19601f820116820180604052508101906136b99190614928565b90508873ffffffffffffffffffffffffffffffffffffffff168273ffffffffffffffffffffffffffffffffffffffff1614801561372157508773ffffffffffffffffffffffffffffffffffffffff168173ffffffffffffffffffffffffffffffffffffffff16145b1561375657836dffffffffffffffffffffffffffff16836dffffffffffffffffffffffffffff169650965050505050506137fd565b8773ffffffffffffffffffffffffffffffffffffffff168273ffffffffffffffffffffffffffffffffffffffff161480156137bc57508873ffffffffffffffffffffffffffffffffffffffff168173ffffffffffffffffffffffffffffffffffffffff16145b156137f157826dffffffffffffffffffffffffffff16846dffffffffffffffffffffffffffff169650965050505050506137fd565b5f5f9650965050505050505b935093915050565b61380d613f3f565b5f5f90505b60088110156139f1575f612710848360088110613832576138316149b9565b5b602002015161ffff168761384691906156ba565b6138509190615728565b90505f8114806138605750858110155b1561386b57506139e6565b5f6138788a8a8a85612b8d565b905066038d7ea4c68000811161388f5750506139e6565b5f61389b83888a613bf7565b90507fffffffffffffffffffffffffffffffffffffffffffffffffffffffffffffffff8114806138dd575066038d7ea4c68000816138d9919061599d565b8211155b156138ea575050506139e6565b5f81836138f79190614dbf565b9050856101600151811161390e57505050506139e6565b604051806101a001604052806001151581526020015f151581526020016001151581526020018e73ffffffffffffffffffffffffffffffffffffffff1681526020015f73ffffffffffffffffffffffffffffffffffffffff1681526020018d73ffffffffffffffffffffffffffffffffffffffff1681526020018c73ffffffffffffffffffffffffffffffffffffffff1681526020018c73ffffffffffffffffffffffffffffffffffffffff1681526020018581526020018381526020018381526020018281526020018b60ff168152509550505050505b806001019050613812565b50979650505050505050565b613a05613f3f565b5f5f90505b6002811015613bea575f613a1d82613510565b73ffffffffffffffffffffffffffffffffffffffff1663e6a439058b8b6040518363ffffffff1660e01b8152600401613a5792919061551a565b602060405180830381865afa158015613a72573d5f5f3e3d5ffd5b505050506040513d601f19601f82011682018060405250810190613a969190614928565b90505f73ffffffffffffffffffffffffffffffffffffffff168173ffffffffffffffffffffffffffffffffffffffff1603613ad15750613bdf565b5f5f613ade838d8d613561565b915091505f821480613aef57505f81145b15613afc57505050613bdf565b5f6040518061014001604052808f73ffffffffffffffffffffffffffffffffffffffff1681526020018e73ffffffffffffffffffffffffffffffffffffffff1681526020018d73ffffffffffffffffffffffffffffffffffffffff1681526020018c60ff1681526020018b73ffffffffffffffffffffffffffffffffffffffff1681526020018573ffffffffffffffffffffffffffffffffffffffff1681526020018a81526020018981526020018481526020018381525090505f613bc18289613c99565b90508661016001518161016001511115613bd9578096505b50505050505b806001019050613a0a565b5098975050505050505050565b5f5f841480613c0557505f83145b80613c105750838211155b15613c3d577fffffffffffffffffffffffffffffffffffffffffffffffffffffffffffffffff9050613c92565b5f6103e88585613c4d91906156ba565b613c5791906156ba565b90505f6103e58685613c699190614dbf565b613c7391906156ba565b905060018183613c839190615728565b613c8d919061599d565b925050505b9392505050565b613ca1613f3f565b5f5f90505b6008811015613f11575f612710848360088110613cc657613cc56149b9565b5b602002015161ffff168660c00151613cde91906156ba565b613ce89190615728565b90505f811480613cfc57508460c001518110155b15613d075750613f06565b5f613d1f865f01518760200151886060015185612b8d565b905066038d7ea4c680008111613d36575050613f06565b5f613d4a838860e001518960c00151613bf7565b90507fffffffffffffffffffffffffffffffffffffffffffffffffffffffffffffffff811480613d7f57508661012001518110155b15613d8c57505050613f06565b5f613da2828961010001518a6101200151613bf7565b90507fffffffffffffffffffffffffffffffffffffffffffffffffffffffffffffffff811480613de4575066038d7ea4c6800081613de0919061599d565b8311155b15613df25750505050613f06565b5f8184613dff9190614dbf565b90508661016001518111613e17575050505050613f06565b604051806101a001604052806001151581526020015f151581526020015f151581526020018a6080015173ffffffffffffffffffffffffffffffffffffffff1681526020018a60a0015173ffffffffffffffffffffffffffffffffffffffff1681526020018a5f015173ffffffffffffffffffffffffffffffffffffffff1681526020018a6020015173ffffffffffffffffffffffffffffffffffffffff1681526020018a6040015173ffffffffffffffffffffffffffffffffffffffff1681526020018681526020018481526020018381526020018281526020018a6060015160ff16815250965050505050505b806001019050613ca6565b5092915050565b60405180608001604052806004905b6060815260200190600190039081613f275790505090565b604051806101a001604052805f151581526020015f151581526020015f151581526020015f73ffffffffffffffffffffffffffffffffffffffff1681526020015f73ffffffffffffffffffffffffffffffffffffffff1681526020015f73ffffffffffffffffffffffffffffffffffffffff1681526020015f73ffffffffffffffffffffffffffffffffffffffff1681526020015f73ffffffffffffffffffffffffffffffffffffffff1681526020015f81526020015f81526020015f81526020015f81526020015f60ff1681525090565b6040518061010001604052805f81526020015f81526020015f81526020015f81526020015f81526020015f151581526020015f151581526020015f151581525090565b5f73ffffffffffffffffffffffffffffffffffffffff82169050919050565b5f819050919050565b5f61409661409161408c84614054565b614073565b614054565b9050919050565b5f6140a78261407c565b9050919050565b5f6140b88261409d565b9050919050565b6140c8816140ae565b82525050565b5f6020820190506140e15f8301846140bf565b92915050565b5f81519050919050565b5f82825260208201905092915050565b8281835e5f83830152505050565b5f601f19601f8301169050919050565b5f614129826140e7565b61413381856140f1565b9350614143818560208601614101565b61414c8161410f565b840191505092915050565b5f6020820190508181035f83015261416f818461411f565b905092915050565b5f61418182614054565b9050919050565b61419181614177565b82525050565b5f6020820190506141aa5f830184614188565b92915050565b5f604051905090565b5f5ffd5b5f5ffd5b6141ca81614177565b81146141d4575f5ffd5b50565b5f813590506141e5816141c1565b92915050565b5f819050919050565b6141fd816141eb565b8114614207575f5ffd5b50565b5f81359050614218816141f4565b92915050565b5f5ffd5b5f5ffd5b5f5ffd5b5f5f83601f84011261423f5761423e61421e565b5b8235905067ffffffffffffffff81111561425c5761425b614222565b5b60208301915083600182028301111561427857614277614226565b5b9250929050565b5f5f5f5f5f60808688031215614298576142976141b9565b5b5f6142a5888289016141d7565b95505060206142b68882890161420a565b94505060406142c78882890161420a565b935050606086013567ffffffffffffffff8111156142e8576142e76141bd565b5b6142f48882890161422a565b92509250509295509295909350565b61430c816141eb565b82525050565b5f6020820190506143255f830184614303565b92915050565b5f60049050919050565b5f81905092915050565b5f819050919050565b5f82825260208201905092915050565b5f614362826140e7565b61436c8185614348565b935061437c818560208601614101565b6143858161410f565b840191505092915050565b5f61439b8383614358565b905092915050565b5f602082019050919050565b5f6143b98261432b565b6143c38185614335565b9350836020820285016143d58561433f565b805f5b8581101561441057848403895281516143f18582614390565b94506143fc836143a3565b925060208a019950506001810190506143d8565b50829750879550505050505092915050565b5f6020820190508181035f83015261443a81846143af565b905092915050565b5f8115159050919050565b61445681614442565b82525050565b5f60208201905061446f5f83018461444d565b92915050565b5f61447f8261409d565b9050919050565b61448f81614475565b82525050565b5f6020820190506144a85f830184614486565b92915050565b5f60ff82169050919050565b6144c3816144ae565b82525050565b5f6020820190506144dc5f8301846144ba565b92915050565b5f5f83601f8401126144f7576144f661421e565b5b8235905067ffffffffffffffff81111561451457614513614222565b5b6020830191508360208202830111156145305761452f614226565b5b9250929050565b5f5f83601f84011261454c5761454b61421e565b5b8235905067ffffffffffffffff81111561456957614568614222565b5b60208301915083602082028301111561458557614584614226565b5b9250929050565b5f5f5f5f5f5f5f5f5f60a08a8c0312156145a9576145a86141b9565b5b5f8a013567ffffffffffffffff8111156145c6576145c56141bd565b5b6145d28c828d016144e2565b995099505060208a013567ffffffffffffffff8111156145f5576145f46141bd565b5b6146018c828d01614537565b975097505060408a013567ffffffffffffffff811115614624576146236141bd565b5b6146308c828d01614537565b955095505060606146438c828d016141d7565b93505060808a013567ffffffffffffffff811115614664576146636141bd565b5b6146708c828d0161422a565b92509250509295985092959850929598565b7f4e487b71000000000000000000000000000000000000000000000000000000005f52602260045260245ffd5b5f60028204905060018216806146c657607f821691505b6020821081036146d9576146d8614682565b5b50919050565b5f5ffd5b7f4e487b71000000000000000000000000000000000000000000000000000000005f52604160045260245ffd5b6147198261410f565b810181811067ffffffffffffffff82111715614738576147376146e3565b5b80604052505050565b5f61474a6141b0565b90506147568282614710565b919050565b5f5ffd5b61476881614442565b8114614772575f5ffd5b50565b5f813590506147838161475f565b92915050565b614792816144ae565b811461479c575f5ffd5b50565b5f813590506147ad81614789565b92915050565b5f6101a082840312156147c9576147c86146df565b5b6147d46101a0614741565b90505f6147e384828501614775565b5f8301525060206147f684828501614775565b602083015250604061480a84828501614775565b604083015250606061481e848285016141d7565b6060830152506080614832848285016141d7565b60808301525060a0614846848285016141d7565b60a08301525060c061485a848285016141d7565b60c08301525060e061486e848285016141d7565b60e0830152506101006148838482850161420a565b610100830152506101206148998482850161420a565b610120830152506101406148af8482850161420a565b610140830152506101606148c58482850161420a565b610160830152506101806148db8482850161479f565b6101808301525092915050565b5f6101a082840312156148fe576148fd6141b9565b5b5f61490b848285016147b3565b91505092915050565b5f81519050614922816141c1565b92915050565b5f6020828403121561493d5761493c6141b9565b5b5f61494a84828501614914565b91505092915050565b5f6040820190506149665f830185614188565b6149736020830184614303565b9392505050565b5f815190506149888161475f565b92915050565b5f602082840312156149a3576149a26141b9565b5b5f6149b08482850161497a565b91505092915050565b7f4e487b71000000000000000000000000000000000000000000000000000000005f52603260045260245ffd5b5f819050815f5260205f209050919050565b5f6020601f8301049050919050565b5f82821b905092915050565b5f60088302614a427fffffffffffffffffffffffffffffffffffffffffffffffffffffffffffffffff82614a07565b614a4c8683614a07565b95508019841693508086168417925050509392505050565b5f614a7e614a79614a74846141eb565b614073565b6141eb565b9050919050565b5f819050919050565b614a9783614a64565b614aab614aa382614a85565b848454614a13565b825550505050565b5f5f905090565b614ac2614ab3565b614acd818484614a8e565b505050565b5b81811015614af057614ae55f82614aba565b600181019050614ad3565b5050565b601f821115614b3557614b06816149e6565b614b0f846149f8565b81016020851015614b1e578190505b614b32614b2a856149f8565b830182614ad2565b50505b505050565b5f82821c905092915050565b5f614b555f1984600802614b3a565b1980831691505092915050565b5f614b6d8383614b46565b9150826002028217905092915050565b614b86826140e7565b67ffffffffffffffff811115614b9f57614b9e6146e3565b5b614ba982546146af565b614bb4828285614af4565b5f60209050601f831160018114614be5575f8415614bd3578287015190505b614bdd8582614b62565b865550614c44565b601f198416614bf3866149e6565b5f5b82811015614c1a57848901518255600182019150602085019450602081019050614bf5565b86831015614c375784890151614c33601f891682614b46565b8355505b6001600288020188555050505b505050505050565b5f67ffffffffffffffff821115614c6657614c656146e3565b5b602082029050602081019050919050565b5f614c89614c8484614c4c565b614741565b90508083825260208201905060208402830185811115614cac57614cab614226565b5b835b81811015614cd55780614cc18882614914565b845260208401935050602081019050614cae565b5050509392505050565b5f82601f830112614cf357614cf261421e565b5b8151614d03848260208601614c77565b91505092915050565b5f60208284031215614d2157614d206141b9565b5b5f82015167ffffffffffffffff811115614d3e57614d3d6141bd565b5b614d4a84828501614cdf565b91505092915050565b5f81519050614d61816141f4565b92915050565b5f60208284031215614d7c57614d7b6141b9565b5b5f614d8984828501614d53565b91505092915050565b7f4e487b71000000000000000000000000000000000000000000000000000000005f52601160045260245ffd5b5f614dc9826141eb565b9150614dd4836141eb565b9250828203905081811115614dec57614deb614d92565b5b92915050565b5f5f5f5f5f5f60c08789031215614e0c57614e0b6141b9565b5b5f614e1989828a01614d53565b9650506020614e2a89828a01614d53565b9550506040614e3b89828a01614d53565b9450506060614e4c89828a01614d53565b9350506080614e5d89828a01614d53565b92505060a0614e6e89828a01614d53565b9150509295509295509295565b5f60208284031215614e9057614e8f6141b9565b5b5f614e9d8482850161479f565b91505092915050565b5f819050919050565b5f61ffff82169050919050565b5f614ed6614ed1614ecc84614ea6565b614073565b614eaf565b9050919050565b614ee681614ebc565b82525050565b5f608082019050614eff5f830187614188565b614f0c6020830186614303565b614f196040830185614188565b614f266060830184614edd565b95945050505050565b5f81519050919050565b5f82825260208201905092915050565b5f819050602082019050919050565b614f6181614177565b82525050565b5f614f728383614f58565b60208301905092915050565b5f602082019050919050565b5f614f9482614f2f565b614f9e8185614f39565b9350614fa983614f49565b805f5b83811015614fd9578151614fc08882614f67565b9750614fcb83614f7e565b925050600181019050614fac565b5085935050505092915050565b5f81519050919050565b5f82825260208201905092915050565b5f819050602082019050919050565b615018816141eb565b82525050565b5f615029838361500f565b60208301905092915050565b5f602082019050919050565b5f61504b82614fe6565b6150558185614ff0565b935061506083615000565b805f5b83811015615090578151615077888261501e565b975061508283615035565b925050600181019050615063565b5085935050505092915050565b5f81519050919050565b5f82825260208201905092915050565b5f6150c18261509d565b6150cb81856150a7565b93506150db818560208601614101565b6150e48161410f565b840191505092915050565b6150f881614eaf565b82525050565b5f60e0820190506151115f83018a614188565b81810360208301526151238189614f8a565b905081810360408301526151378188615041565b9050818103606083015261514b8187615041565b905061515a6080830186614188565b81810360a083015261516c81856150b7565b905061517b60c08301846150ef565b98975050505050505050565b5f81905092915050565b5f61519b8261509d565b6151a58185615187565b93506151b5818560208601614101565b80840191505092915050565b5f6151cc8284615191565b915081905092915050565b5f6080820190506151ea5f830187614303565b6151f76020830186614303565b6152046040830185614188565b818103606083015261521681846150b7565b905095945050505050565b61522a81614eaf565b8114615234575f5ffd5b50565b5f8151905061524581615221565b92915050565b5f5ffd5b5f67ffffffffffffffff821115615269576152686146e3565b5b6152728261410f565b9050602081019050919050565b5f61529161528c8461524f565b614741565b9050828152602081018484840111156152ad576152ac61524b565b5b6152b8848285614101565b509392505050565b5f82601f8301126152d4576152d361421e565b5b81516152e484826020860161527f565b91505092915050565b5f60a08284031215615302576153016146df565b5b61530c60a0614741565b90505f61531b84828501615237565b5f83015250602061532e84828501615237565b602083015250604061534284828501615237565b604083015250606061535684828501614914565b606083015250608082015167ffffffffffffffff81111561537a5761537961475b565b5b615386848285016152c0565b60808301525092915050565b5f602082840312156153a7576153a66141b9565b5b5f82015167ffffffffffffffff8111156153c4576153c36141bd565b5b6153d0848285016152ed565b91505092915050565b6153e281614442565b82525050565b6153f1816144ae565b82525050565b6101a082015f82015161540c5f8501826153d9565b50602082015161541f60208501826153d9565b50604082015161543260408501826153d9565b5060608201516154456060850182614f58565b5060808201516154586080850182614f58565b5060a082015161546b60a0850182614f58565b5060c082015161547e60c0850182614f58565b5060e082015161549160e0850182614f58565b506101008201516154a661010085018261500f565b506101208201516154bb61012085018261500f565b506101408201516154d061014085018261500f565b506101608201516154e561016085018261500f565b506101808201516154fa6101808501826153e8565b50505050565b5f6101a0820190506155145f8301846153f7565b92915050565b5f60408201905061552d5f830185614188565b61553a6020830184614188565b9392505050565b5f8160011c9050919050565b5f5f8291508390505b60018511156155965780860481111561557257615571614d92565b5b60018516156155815780820291505b808102905061558f85615541565b9450615556565b94509492505050565b5f826155ae5760019050615669565b816155bb575f9050615669565b81600181146155d157600281146155db5761560a565b6001915050615669565b60ff8411156155ed576155ec614d92565b5b8360020a91508482111561560457615603614d92565b5b50615669565b5060208310610133831016604e8410600b841016171561563f5782820a90508381111561563a57615639614d92565b5b615669565b61564c848484600161554d565b9250905081840481111561566357615662614d92565b5b81810290505b9392505050565b5f61567a826141eb565b9150615685836141eb565b92506156b27fffffffffffffffffffffffffffffffffffffffffffffffffffffffffffffffff848461559f565b905092915050565b5f6156c4826141eb565b91506156cf836141eb565b92508282026156dd816141eb565b915082820484148315176156f4576156f3614d92565b5b5092915050565b7f4e487b71000000000000000000000000000000000000000000000000000000005f52601260045260245ffd5b5f615732826141eb565b915061573d836141eb565b92508261574d5761574c6156fb565b5b828204905092915050565b5f6020828403121561576d5761576c6146df565b5b6157776020614741565b90505f61578684828501614d53565b5f8301525092915050565b5f6fffffffffffffffffffffffffffffffff82169050919050565b6157b581615791565b81146157bf575f5ffd5b50565b5f815190506157d0816157ac565b92915050565b5f64ffffffffff82169050919050565b6157ef816157d6565b81146157f9575f5ffd5b50565b5f8151905061580a816157e6565b92915050565b5f6101e08284031215615826576158256146df565b5b6158316101e0614741565b90505f61584084828501615758565b5f830152506020615853848285016157c2565b6020830152506040615867848285016157c2565b604083015250606061587b848285016157c2565b606083015250608061588f848285016157c2565b60808301525060a06158a3848285016157c2565b60a08301525060c06158b7848285016157fc565b60c08301525060e06158cb84828501615237565b60e0830152506101006158e084828501614914565b610100830152506101206158f684828501614914565b6101208301525061014061590c84828501614914565b6101408301525061016061592284828501614914565b61016083015250610180615938848285016157c2565b610180830152506101a061594e848285016157c2565b6101a0830152506101c0615964848285016157c2565b6101c08301525092915050565b5f6101e08284031215615987576159866141b9565b5b5f61599484828501615810565b91505092915050565b5f6159a7826141eb565b91506159b2836141eb565b92508282019050808211156159ca576159c9614d92565b5b92915050565b5f602082840312156159e5576159e46141b9565b5b5f6159f284828501615758565b91505092915050565b5f6dffffffffffffffffffffffffffff82169050919050565b615a1d816159fb565b8114615a27575f5ffd5b50565b5f81519050615a3881615a14565b92915050565b5f63ffffffff82169050919050565b615a5681615a3e565b8114615a60575f5ffd5b50565b5f81519050615a7181615a4d565b92915050565b5f5f5f60608486031215615a8e57615a8d6141b9565b5b5f615a9b86828701615a2a565b9350506020615aac86828701615a2a565b9250506040615abd86828701615a63565b915050925092509256fe6661696c656420746f2064697361626c6520654d6f646520696e7369646520666c6173684c6f616e2063616c6c6261636b696e73756666696369656e742076657269666965722d68656c6420636f6c6c61746572616c20666f722064697265637420657865637574696f6e4166746572207468652063616c6c6261636b2c2074686520706f6f6c207374696c6c2076616c696461746573207468652064656274206f70656e696e67207769746820746865207374616c65206361636865642075736572454d6f646543617465676f727920616e64206d696e7473206465627420746861742073686f756c64206e6f206c6f6e67657220626520616c6c6f7765642e41747461636b65722d636f6e74726f6c6c656420636f6e747261637420656e61626c65732061206661766f7261626c6520654d6f64652063617465676f727920666f7220697473656c662e6f776e65642d636f6c6c61746572616c20657865637574696f6e206661696c656420756e6465722063757272656e74206f6e2d636861696e20636f6e646974696f6e73756e657870656374656420666c6173684c6f616e2063616c6c6261636b2063616c6c65726f776e65642062616c616e6365206f72207075626c696320763220666c617368737761702066756e647320636f6c6c61746572616c202d3e20656e61626c65206661766f7261626c6520654d6f6465202d3e20666c6173684c6f616e2872656365697665723d73656c662c6f6e426568616c664f663d73656c662c6d6f64653d7661726961626c6529202d3e2073657455736572454d6f646528302920696e20657865637574654f7065726174696f6e202d3e207374616c652063616368656420654d6f6465207573656420666f722064656274206f70656e696e67202d3e20757365206f6e6c79207075626c6963206c697175696469747920746f20736574746c6520616e792074656d706f726172792065787465726e616c2066756e64696e67206c656754686520636f6e74726163742063616c6c7320666c6173684c6f616e282e2e2e2c207265636569766572416464726573733d73656c662c206f6e426568616c664f663d73656c662c20696e746572657374526174654d6f6465735b695d20213d2030292e756e61626c6520746f2073697a6520626f72726f772061626f7665206e6f726d616c206d6f646520616e6420756e77696e64206e656564737075626c69632d6c69717569646974792066756e64696e67206661696c656420756e6465722063757272656e74206f6e2d636861696e20636f6e646974696f6e736c69766520706f6f6c2070726f787920686173206e6f206c69737465642072657365727665736e6f2070726f66697461626c65207075626c69632d6c6971756964697479206f72206f776e65642d636f6c6c61746572616c20726f75746520666f756e6420666f72207374616c652d656d6f64652064656274206f70656e696e6773656c656374656420726f75746520646f6573206e6f7420696e63726561736520626f72726f77206361706163697479496e7369646520657865637574654f7065726174696f6e2c2074686520636f6e74726163742063616c6c732073657455736572454d6f6465283029206f7220737769746368657320746f2061207765616b65722063617465676f72792ea2646970667358221220a7bb7053de7431d2774f8abc2dd494a47eca5404853ca26d3bf471c241377d6c64736f6c634300081e0033","linkReferences":{}},"methodIdentifiers":{"ADDRESSES_PROVIDER()":"0542975c","POOL()":"7535d246","attempted()":"917f51b4","callbackTriggered()":"942de40e","emodeAvailableBorrowsBaseBefore()":"43ebbc2a","executeOnOpportunity()":"3c2448ed","executeOperation(address[],uint256[],uint256[],address,bytes)":"920f5c84","exploitPathUsed()":"d78c4281","exploitPaths()":"2f2e958e","finalHealthFactor()":"169abc66","hypothesisValidated()":"463defd1","lastFailureReason()":"09584243","normalAvailableBorrowsBaseBefore()":"d88621a2","profitAmount()":"5ff972cc","profitToken()":"49343624","selectedBorrowAmount()":"e9f60a1c","selectedBorrowAmountBase()":"4a3cb246","selectedBorrowAsset()":"20cedb55","selectedCategory()":"89058a69","selectedCollateralAmount()":"1a6fe78b","selectedCollateralAsset()":"105ed87e","uniswapV2Call(address,uint256,uint256,bytes)":"10d1e85c"},"id":0}