{"abi":[{"type":"constructor","inputs":[],"stateMutability":"nonpayable"},{"type":"receive","stateMutability":"payable"},{"type":"function","name":"DAI","inputs":[],"outputs":[{"name":"","type":"address","internalType":"address"}],"stateMutability":"view"},{"type":"function","name":"SUSHI_FACTORY","inputs":[],"outputs":[{"name":"","type":"address","internalType":"address"}],"stateMutability":"view"},{"type":"function","name":"TARGET_POOL","inputs":[],"outputs":[{"name":"","type":"address","internalType":"address"}],"stateMutability":"view"},{"type":"function","name":"UNISWAP_V2_FACTORY","inputs":[],"outputs":[{"name":"","type":"address","internalType":"address"}],"stateMutability":"view"},{"type":"function","name":"USDC","inputs":[],"outputs":[{"name":"","type":"address","internalType":"address"}],"stateMutability":"view"},{"type":"function","name":"USDT","inputs":[],"outputs":[{"name":"","type":"address","internalType":"address"}],"stateMutability":"view"},{"type":"function","name":"WETH","inputs":[],"outputs":[{"name":"","type":"address","internalType":"address"}],"stateMutability":"view"},{"type":"function","name":"attemptDirectMintAndExit","inputs":[],"outputs":[],"stateMutability":"nonpayable"},{"type":"function","name":"attemptDirectMintAndExitWithAsset","inputs":[{"name":"assetIndex","type":"uint256","internalType":"uint256"},{"name":"fractionBps","type":"uint256","internalType":"uint256"}],"outputs":[],"stateMutability":"nonpayable"},{"type":"function","name":"attemptExistingLpExit","inputs":[],"outputs":[],"stateMutability":"nonpayable"},{"type":"function","name":"attemptFlashMintAndExit","inputs":[],"outputs":[],"stateMutability":"nonpayable"},{"type":"function","name":"attemptFlashMintAndExitWithPair","inputs":[{"name":"assetIndex","type":"uint256","internalType":"uint256"},{"name":"pair","type":"address","internalType":"address"}],"outputs":[],"stateMutability":"nonpayable"},{"type":"function","name":"executeOnOpportunity","inputs":[],"outputs":[],"stateMutability":"nonpayable"},{"type":"function","name":"profitAmount","inputs":[],"outputs":[{"name":"","type":"uint256","internalType":"uint256"}],"stateMutability":"view"},{"type":"function","name":"profitToken","inputs":[],"outputs":[{"name":"","type":"address","internalType":"address"}],"stateMutability":"view"},{"type":"function","name":"uniswapV2Call","inputs":[{"name":"sender","type":"address","internalType":"address"},{"name":"amount0","type":"uint256","internalType":"uint256"},{"name":"amount1","type":"uint256","internalType":"uint256"},{"name":"","type":"bytes","internalType":"bytes"}],"outputs":[],"stateMutability":"nonpayable"}],"bytecode":{"object":"0x6080604052348015600e575f5ffd5b5061627e8061001c5f395ff3fe6080604052600436106100f6575f3560e01c806382cd4beb11610089578063af6c255d11610058578063af6c255d146102a5578063b753bb47146102cd578063c54e44eb146102f7578063e0bab4c414610321576100fd565b806382cd4beb1461021157806389a302711461022757806399d8fae314610251578063ad5c46481461027b576100fd565b80633c2448ed116100c55780633c2448ed1461017f5780634934362414610195578063595901b2146101bf5780635ff972cc146101e7576100fd565b80630518d5231461010157806310d1e85c14610117578063159b411e1461013f578063181e0cc614610155576100fd565b366100fd57005b5f5ffd5b34801561010c575f5ffd5b5061011561034b565b005b348015610122575f5ffd5b5061013d60048036038101906101389190614ea9565b610597565b005b34801561014a575f5ffd5b50610153610a81565b005b348015610160575f5ffd5b50610169610d32565b6040516101769190614f3c565b60405180910390f35b34801561018a575f5ffd5b50610193610d4a565b005b3480156101a0575f5ffd5b506101a9610fe7565b6040516101b69190614f3c565b60405180910390f35b3480156101ca575f5ffd5b506101e560048036038101906101e09190614f55565b61100e565b005b3480156101f2575f5ffd5b506101fb6115ef565b6040516102089190614fa2565b60405180910390f35b34801561021c575f5ffd5b506102256115f8565b005b348015610232575f5ffd5b5061023b611a72565b6040516102489190614f3c565b60405180910390f35b34801561025c575f5ffd5b50610265611a8a565b6040516102729190614f3c565b60405180910390f35b348015610286575f5ffd5b5061028f611aa2565b60405161029c9190614f3c565b60405180910390f35b3480156102b0575f5ffd5b506102cb60048036038101906102c69190614fbb565b611aba565b005b3480156102d8575f5ffd5b506102e16121b2565b6040516102ee9190614f3c565b60405180910390f35b348015610302575f5ffd5b5061030b6121ca565b6040516103189190614f3c565b60405180910390f35b34801561032c575f5ffd5b506103356121e2565b6040516103429190614f3c565b60405180910390f35b3073ffffffffffffffffffffffffffffffffffffffff163373ffffffffffffffffffffffffffffffffffffffff16146103b9576040517f08c379a00000000000000000000000000000000000000000000000000000000081526004016103b090615053565b60405180910390fd5b5f73ccd04073f4bdc4510927ea9ba350875c3c65bf8190505f8173ffffffffffffffffffffffffffffffffffffffff16630b36628d6040518163ffffffff1660e01b8152600401602060405180830381865afa15801561041b573d5f5f3e3d5ffd5b505050506040513d601f19601f8201168201806040525081019061043f9190615085565b90505f61044c83836121fa565b90505f5f90505b8281101561055957610465848261232b565b61054e575f82828151811061047d5761047c6150b0565b5b602002602001015190505f6104918261235f565b90505f73ffffffffffffffffffffffffffffffffffffffff168173ffffffffffffffffffffffffffffffffffffffff16036104cd57505061054e565b3073ffffffffffffffffffffffffffffffffffffffff1663595901b284836040518363ffffffff1660e01b81526004016105089291906150dd565b5f604051808303815f87803b15801561051f575f5ffd5b505af1925050508015610530575060015b1561054b575f600154111561054a57505050505050610595565b5b50505b806001019050610453565b506040517f08c379a000000000000000000000000000000000000000000000000000000000815260040161058c9061514e565b60405180910390fd5b565b3073ffffffffffffffffffffffffffffffffffffffff168573ffffffffffffffffffffffffffffffffffffffff1614610605576040517f08c379a00000000000000000000000000000000000000000000000000000000081526004016105fc906151b6565b60405180910390fd5b60016003541461064a576040517f08c379a00000000000000000000000000000000000000000000000000000000081526004016106419061521e565b60405180910390fd5b60045f9054906101000a900473ffffffffffffffffffffffffffffffffffffffff1673ffffffffffffffffffffffffffffffffffffffff163373ffffffffffffffffffffffffffffffffffffffff16146106d9576040517f08c379a00000000000000000000000000000000000000000000000000000000081526004016106d090615286565b60405180910390fd5b5f5f85116106e757836106e9565b845b9050600654811461072f576040517f08c379a0000000000000000000000000000000000000000000000000000000008152600401610726906152ee565b60405180910390fd5b5f73ccd04073f4bdc4510927ea9ba350875c3c65bf8190505f8173ffffffffffffffffffffffffffffffffffffffff16630b36628d6040518163ffffffff1660e01b8152600401602060405180830381865afa158015610791573d5f5f3e3d5ffd5b505050506040513d601f19601f820116820180604052508101906107b59190615085565b90505f6107c283836121fa565b90505f6107ce8261249c565b90506107de8484600854886125ba565b5f8473ffffffffffffffffffffffffffffffffffffffff1663fc0c546a6040518163ffffffff1660e01b8152600401602060405180830381865afa158015610828573d5f5f3e3d5ffd5b505050506040513d601f19601f8201168201806040525081019061084c9190615320565b73ffffffffffffffffffffffffffffffffffffffff166370a08231306040518263ffffffff1660e01b81526004016108849190614f3c565b602060405180830381865afa15801561089f573d5f5f3e3d5ffd5b505050506040513d601f19601f820116820180604052508101906108c39190615085565b90505f8111610907576040517f08c379a00000000000000000000000000000000000000000000000000000000081526004016108fe90615395565b60405180910390fd5b610912858286612741565b61093f838360055f9054906101000a900473ffffffffffffffffffffffffffffffffffffffff165f6127fd565b610948856129b4565b60075460055f9054906101000a900473ffffffffffffffffffffffffffffffffffffffff1673ffffffffffffffffffffffffffffffffffffffff166370a08231306040518263ffffffff1660e01b81526004016109a59190614f3c565b602060405180830381865afa1580156109c0573d5f5f3e3d5ffd5b505050506040513d601f19601f820116820180604052508101906109e49190615085565b1015610a25576040517f08c379a0000000000000000000000000000000000000000000000000000000008152600401610a1c906153fd565b60405180910390fd5b610a7460055f9054906101000a900473ffffffffffffffffffffffffffffffffffffffff1660045f9054906101000a900473ffffffffffffffffffffffffffffffffffffffff16600754612be5565b5050505050505050505050565b3073ffffffffffffffffffffffffffffffffffffffff163373ffffffffffffffffffffffffffffffffffffffff1614610aef576040517f08c379a0000000000000000000000000000000000000000000000000000000008152600401610ae690615053565b60405180910390fd5b5f73ccd04073f4bdc4510927ea9ba350875c3c65bf8190505f8173ffffffffffffffffffffffffffffffffffffffff16630b36628d6040518163ffffffff1660e01b8152600401602060405180830381865afa158015610b51573d5f5f3e3d5ffd5b505050506040513d601f19601f82011682018060405250810190610b759190615085565b90505f610b80612d34565b90505f5f90505b82811015610cf457610b99848261232b565b610ce957610c3273c02aaa39b223fe8d0a0e5c4f27ead9083c756cc28573ffffffffffffffffffffffffffffffffffffffff1663cf35bdd0846040518263ffffffff1660e01b8152600401610bee9190614fa2565b602060405180830381865afa158015610c09573d5f5f3e3d5ffd5b505050506040513d601f19601f82011682018060405250810190610c2d9190615320565b612e9b565b15610ce9575f5f90505b8251811015610ce7573073ffffffffffffffffffffffffffffffffffffffff1663af6c255d83858481518110610c7557610c746150b0565b5b60200260200101516040518363ffffffff1660e01b8152600401610c9a92919061541b565b5f604051808303815f87803b158015610cb1575f5ffd5b505af1925050508015610cc2575060015b15610cdc575f6001541115610cdb575050505050610d30565b5b806001019050610c3c565b505b806001019050610b87565b506040517f08c379a0000000000000000000000000000000000000000000000000000000008152600401610d279061548c565b60405180910390fd5b565b73ccd04073f4bdc4510927ea9ba350875c3c65bf8181565b60025f9054906101000a900460ff1615610d99576040517f08c379a0000000000000000000000000000000000000000000000000000000008152600401610d90906154f4565b60405180910390fd5b600160025f6101000a81548160ff0219169083151502179055505f5f5f6101000a81548173ffffffffffffffffffffffffffffffffffffffff021916908373ffffffffffffffffffffffffffffffffffffffff1602179055505f600181905550610e01613065565b5f610e0a6130e6565b148015610e1c5750610e1a6131ca565b155b15610e3f575f60025f6101000a81548160ff021916908315150217905550610fe5565b3073ffffffffffffffffffffffffffffffffffffffff166382cd4beb6040518163ffffffff1660e01b81526004015f604051808303815f87803b158015610e84575f5ffd5b505af1925050508015610e95575060015b15610ec3575f6001541115610ec2575f60025f6101000a81548160ff021916908315150217905550610fe5565b5b3073ffffffffffffffffffffffffffffffffffffffff1663159b411e6040518163ffffffff1660e01b81526004015f604051808303815f87803b158015610f08575f5ffd5b505af1925050508015610f19575060015b15610f47575f6001541115610f46575f60025f6101000a81548160ff021916908315150217905550610fe5565b5b3073ffffffffffffffffffffffffffffffffffffffff16630518d5236040518163ffffffff1660e01b81526004015f604051808303815f87803b158015610f8c575f5ffd5b505af1925050508015610f9d575060015b15610fcb575f6001541115610fca575f60025f6101000a81548160ff021916908315150217905550610fe5565b5b5f60025f6101000a81548160ff0219169083151502179055505b565b5f5f5f9054906101000a900473ffffffffffffffffffffffffffffffffffffffff16905090565b3073ffffffffffffffffffffffffffffffffffffffff163373ffffffffffffffffffffffffffffffffffffffff161461107c576040517f08c379a000000000000000000000000000000000000000000000000000000000815260040161107390615053565b60405180910390fd5b5f73ccd04073f4bdc4510927ea9ba350875c3c65bf8190505f8173ffffffffffffffffffffffffffffffffffffffff16630b36628d6040518163ffffffff1660e01b8152600401602060405180830381865afa1580156110de573d5f5f3e3d5ffd5b505050506040513d601f19601f820116820180604052508101906111029190615085565b90505f61110f83836121fa565b90505f818681518110611125576111246150b0565b5b60200260200101519050611139848761232b565b15611179576040517f08c379a00000000000000000000000000000000000000000000000000000000081526004016111709061555c565b60405180910390fd5b5f73ffffffffffffffffffffffffffffffffffffffff168573ffffffffffffffffffffffffffffffffffffffff16036111e7576040517f08c379a00000000000000000000000000000000000000000000000000000000081526004016111de906155c4565b60405180910390fd5b6111f182826133b8565b611230576040517f08c379a00000000000000000000000000000000000000000000000000000000081526004016112279061562c565b60405180910390fd5b5f61123961340f565b90505f5f90505b81518110156115af575f61126f8885858581518110611262576112616150b0565b5b602002602001015161352b565b90505f810361127e57506115a4565b60016003819055508760045f6101000a81548173ffffffffffffffffffffffffffffffffffffffff021916908373ffffffffffffffffffffffffffffffffffffffff1602179055508360055f6101000a81548173ffffffffffffffffffffffffffffffffffffffff021916908373ffffffffffffffffffffffffffffffffffffffff160217905550806006819055506113168161377c565b600781905550886008819055505f8473ffffffffffffffffffffffffffffffffffffffff166370a08231306040518263ffffffff1660e01b815260040161135d9190614f3c565b602060405180830381865afa158015611378573d5f5f3e3d5ffd5b505050506040513d601f19601f8201168201806040525081019061139c9190615085565b90505f5f8673ffffffffffffffffffffffffffffffffffffffff168b73ffffffffffffffffffffffffffffffffffffffff16630dfe16816040518163ffffffff1660e01b8152600401602060405180830381865afa158015611400573d5f5f3e3d5ffd5b505050506040513d601f19601f820116820180604052508101906114249190615320565b73ffffffffffffffffffffffffffffffffffffffff1614611446575f84611449565b835f5b915091508a73ffffffffffffffffffffffffffffffffffffffff1663022c0d9f8383306040518060400160405280601281526020017f666c6173682d6465706f7369742d6578697400000000000000000000000000008152506040518563ffffffff1660e01b81526004016114c194939291906156ba565b5f604051808303815f87803b1580156114d8575f5ffd5b505af11580156114ea573d5f5f3e3d5ffd5b505050505f8773ffffffffffffffffffffffffffffffffffffffff166370a08231306040518263ffffffff1660e01b81526004016115289190614f3c565b602060405180830381865afa158015611543573d5f5f3e3d5ffd5b505050506040513d601f19601f820116820180604052508101906115679190615085565b90506115716137ab565b8381111561159e5761158e8885836115899190615731565b613849565b50505050505050505050506115eb565b50505050505b806001019050611240565b506040517f08c379a00000000000000000000000000000000000000000000000000000000081526004016115e2906157ae565b60405180910390fd5b5050565b5f600154905090565b3073ffffffffffffffffffffffffffffffffffffffff163373ffffffffffffffffffffffffffffffffffffffff1614611666576040517f08c379a000000000000000000000000000000000000000000000000000000000815260040161165d90615053565b60405180910390fd5b5f73ccd04073f4bdc4510927ea9ba350875c3c65bf8190505f8173ffffffffffffffffffffffffffffffffffffffff1663fc0c546a6040518163ffffffff1660e01b8152600401602060405180830381865afa1580156116c8573d5f5f3e3d5ffd5b505050506040513d601f19601f820116820180604052508101906116ec9190615320565b90505f8173ffffffffffffffffffffffffffffffffffffffff166370a08231306040518263ffffffff1660e01b81526004016117289190614f3c565b602060405180830381865afa158015611743573d5f5f3e3d5ffd5b505050506040513d601f19601f820116820180604052508101906117679190615085565b90505f81116117ab576040517f08c379a00000000000000000000000000000000000000000000000000000000081526004016117a290615395565b60405180910390fd5b5f8373ffffffffffffffffffffffffffffffffffffffff16630b36628d6040518163ffffffff1660e01b8152600401602060405180830381865afa1580156117f5573d5f5f3e3d5ffd5b505050506040513d601f19601f820116820180604052508101906118199190615085565b90505f61182685836121fa565b90505f61183161389e565b90505f5f90505b8151811015611a34575f612710838381518110611858576118576150b0565b5b60200260200101518761186b91906157cc565b611875919061583a565b90505f81036118845750611a29565b5f73c02aaa39b223fe8d0a0e5c4f27ead9083c756cc273ffffffffffffffffffffffffffffffffffffffff166370a08231306040518263ffffffff1660e01b81526004016118d29190614f3c565b602060405180830381865afa1580156118ed573d5f5f3e3d5ffd5b505050506040513d601f19601f820116820180604052508101906119119190615085565b90505f61191d8661249c565b905061192a8a8489612741565b61194b868273c02aaa39b223fe8d0a0e5c4f27ead9083c756cc260016127fd565b6119548a6129b4565b5f73c02aaa39b223fe8d0a0e5c4f27ead9083c756cc273ffffffffffffffffffffffffffffffffffffffff166370a08231306040518263ffffffff1660e01b81526004016119a29190614f3c565b602060405180830381865afa1580156119bd573d5f5f3e3d5ffd5b505050506040513d601f19601f820116820180604052508101906119e19190615085565b905082811115611a2457611a1473c02aaa39b223fe8d0a0e5c4f27ead9083c756cc28483611a0f9190615731565b613849565b5050505050505050505050611a70565b505050505b806001019050611838565b506040517f08c379a0000000000000000000000000000000000000000000000000000000008152600401611a67906158b4565b60405180910390fd5b565b73a0b86991c6218b36c1d19d4a2e9eb0ce3606eb4881565b735c69bee701ef814a2b6a3edd4b1652cb9cc5aa6f81565b73c02aaa39b223fe8d0a0e5c4f27ead9083c756cc281565b3073ffffffffffffffffffffffffffffffffffffffff163373ffffffffffffffffffffffffffffffffffffffff1614611b28576040517f08c379a0000000000000000000000000000000000000000000000000000000008152600401611b1f90615053565b60405180910390fd5b5f81118015611b3957506127108111155b611b78576040517f08c379a0000000000000000000000000000000000000000000000000000000008152600401611b6f9061591c565b60405180910390fd5b5f73ccd04073f4bdc4510927ea9ba350875c3c65bf8190505f8173ffffffffffffffffffffffffffffffffffffffff16630b36628d6040518163ffffffff1660e01b8152600401602060405180830381865afa158015611bda573d5f5f3e3d5ffd5b505050506040513d601f19601f82011682018060405250810190611bfe9190615085565b90505f611c0b83836121fa565b9050611c17838661232b565b15611c57576040517f08c379a0000000000000000000000000000000000000000000000000000000008152600401611c4e9061555c565b60405180910390fd5b5f818681518110611c6b57611c6a6150b0565b5b602002602001015190505f73c02aaa39b223fe8d0a0e5c4f27ead9083c756cc273ffffffffffffffffffffffffffffffffffffffff166370a08231306040518263ffffffff1660e01b8152600401611cc39190614f3c565b602060405180830381865afa158015611cde573d5f5f3e3d5ffd5b505050506040513d601f19601f82011682018060405250810190611d029190615085565b90505f8111611d46576040517f08c379a0000000000000000000000000000000000000000000000000000000008152600401611d3d90615984565b60405180910390fd5b5f611d508461249c565b90505f6127108884611d6291906157cc565b611d6c919061583a565b90505f8111611db0576040517f08c379a0000000000000000000000000000000000000000000000000000000008152600401611da7906159ec565b60405180910390fd5b5f73c02aaa39b223fe8d0a0e5c4f27ead9083c756cc273ffffffffffffffffffffffffffffffffffffffff168573ffffffffffffffffffffffffffffffffffffffff1614611e0757611e0285836139c0565b611e09565b815b90505f8111611e4d576040517f08c379a0000000000000000000000000000000000000000000000000000000008152600401611e4490615a54565b60405180910390fd5b5f8873ffffffffffffffffffffffffffffffffffffffff1663fc0c546a6040518163ffffffff1660e01b8152600401602060405180830381865afa158015611e97573d5f5f3e3d5ffd5b505050506040513d601f19601f82011682018060405250810190611ebb9190615320565b73ffffffffffffffffffffffffffffffffffffffff166370a08231306040518263ffffffff1660e01b8152600401611ef39190614f3c565b602060405180830381865afa158015611f0e573d5f5f3e3d5ffd5b505050506040513d601f19601f82011682018060405250810190611f329190615085565b9050611f4089898d856125ba565b5f818a73ffffffffffffffffffffffffffffffffffffffff1663fc0c546a6040518163ffffffff1660e01b8152600401602060405180830381865afa158015611f8b573d5f5f3e3d5ffd5b505050506040513d601f19601f82011682018060405250810190611faf9190615320565b73ffffffffffffffffffffffffffffffffffffffff166370a08231306040518263ffffffff1660e01b8152600401611fe79190614f3c565b602060405180830381865afa158015612002573d5f5f3e3d5ffd5b505050506040513d601f19601f820116820180604052508101906120269190615085565b6120309190615731565b90505f8111612074576040517f08c379a000000000000000000000000000000000000000000000000000000000815260040161206b90615395565b60405180910390fd5b61207f8a828b612741565b6120a0888673c02aaa39b223fe8d0a0e5c4f27ead9083c756cc260016127fd565b6120a98a6129b4565b5f73c02aaa39b223fe8d0a0e5c4f27ead9083c756cc273ffffffffffffffffffffffffffffffffffffffff166370a08231306040518263ffffffff1660e01b81526004016120f79190614f3c565b602060405180830381865afa158015612112573d5f5f3e3d5ffd5b505050506040513d601f19601f820116820180604052508101906121369190615085565b905086811161217a576040517f08c379a000000000000000000000000000000000000000000000000000000000815260040161217190615abc565b60405180910390fd5b6121a373c02aaa39b223fe8d0a0e5c4f27ead9083c756cc2888361219e9190615731565b613849565b50505050505050505050505050565b73c0aee478e3658e2610c5f7a4a2e1777ce9e4f2ac81565b73dac17f958d2ee523a2206206994597c13d831ec781565b736b175474e89094c44da98b954eedeac495271d0f81565b60608167ffffffffffffffff81111561221657612215615ada565b5b6040519080825280602002602001820160405280156122445781602001602082028036833780820191505090505b5090505f5f90505b82811015612324578373ffffffffffffffffffffffffffffffffffffffff1663cf35bdd0826040518263ffffffff1660e01b815260040161228d9190614fa2565b602060405180830381865afa1580156122a8573d5f5f3e3d5ffd5b505050506040513d601f19601f820116820180604052508101906122cc9190615320565b8282815181106122df576122de6150b0565b5b602002602001019073ffffffffffffffffffffffffffffffffffffffff16908173ffffffffffffffffffffffffffffffffffffffff168152505080600101905061224c565b5092915050565b5f5f5f6123388585613db0565b915091505f8211801561234a57505f81115b801561235557508181105b9250505092915050565b5f5f61237f8373c02aaa39b223fe8d0a0e5c4f27ead9083c756cc261404f565b90505f73ffffffffffffffffffffffffffffffffffffffff168173ffffffffffffffffffffffffffffffffffffffff16146123bd5780915050612497565b6123db8373a0b86991c6218b36c1d19d4a2e9eb0ce3606eb4861404f565b90505f73ffffffffffffffffffffffffffffffffffffffff168173ffffffffffffffffffffffffffffffffffffffff16146124195780915050612497565b6124378373dac17f958d2ee523a2206206994597c13d831ec761404f565b90505f73ffffffffffffffffffffffffffffffffffffffff168173ffffffffffffffffffffffffffffffffffffffff16146124755780915050612497565b61249383736b175474e89094c44da98b954eedeac495271d0f61404f565b9150505b919050565b6060815167ffffffffffffffff8111156124b9576124b8615ada565b5b6040519080825280602002602001820160405280156124e75781602001602082028036833780820191505090505b5090505f5f90505b82518110156125b45782818151811061250b5761250a6150b0565b5b602002602001015173ffffffffffffffffffffffffffffffffffffffff166370a08231306040518263ffffffff1660e01b815260040161254b9190614f3c565b602060405180830381865afa158015612566573d5f5f3e3d5ffd5b505050506040513d601f19601f8201168201806040525081019061258a9190615085565b82828151811061259d5761259c6150b0565b5b6020026020010181815250508060010190506124ef565b50919050565b5f8367ffffffffffffffff8111156125d5576125d4615ada565b5b6040519080825280602002602001820160405280156126035781602001602082028036833780820191505090505b5090508181848151811061261a576126196150b0565b5b6020026020010181815250506126bc8573ffffffffffffffffffffffffffffffffffffffff1663cf35bdd0856040518263ffffffff1660e01b81526004016126629190614fa2565b602060405180830381865afa15801561267d573d5f5f3e3d5ffd5b505050506040513d601f19601f820116820180604052508101906126a19190615320565b73ccd04073f4bdc4510927ea9ba350875c3c65bf81846141aa565b8473ffffffffffffffffffffffffffffffffffffffff1663a7256d09825f306040518463ffffffff1660e01b81526004016126f993929190615c00565b6020604051808303815f875af1158015612715573d5f5f3e3d5ffd5b505050506040513d601f19601f820116820180604052508101906127399190615085565b505050505050565b5f8167ffffffffffffffff81111561275c5761275b615ada565b5b60405190808252806020026020018201604052801561278a5781602001602082028036833780820191505090505b5090508373ffffffffffffffffffffffffffffffffffffffff16635e604cd28483306040518463ffffffff1660e01b81526004016127ca93929190615c3c565b5f604051808303815f87803b1580156127e1575f5ffd5b505af11580156127f3573d5f5f3e3d5ffd5b5050505050505050565b5f5f90505b84518110156129ad575f85828151811061281f5761281e6150b0565b5b602002602001015190505f8173ffffffffffffffffffffffffffffffffffffffff166370a08231306040518263ffffffff1660e01b81526004016128639190614f3c565b602060405180830381865afa15801561287e573d5f5f3e3d5ffd5b505050506040513d601f19601f820116820180604052508101906128a29190615085565b90508583815181106128b7576128b66150b0565b5b602002602001015181116128cc5750506129a2565b5f8684815181106128e0576128df6150b0565b5b6020026020010151826128f39190615731565b90508573ffffffffffffffffffffffffffffffffffffffff168373ffffffffffffffffffffffffffffffffffffffff16148061292e57505f81145b1561293b575050506129a2565b6129458387612e9b565b61299257841561298a576040517f08c379a000000000000000000000000000000000000000000000000000000000815260040161298190615cc2565b60405180910390fd5b5050506129a2565b61299d838783614443565b505050505b806001019050612802565b5050505050565b5f6129bd6130e6565b90505f811115612b63575f8167ffffffffffffffff8111156129e2576129e1615ada565b5b604051908082528060200260200182016040528015612a105781602001602082028036833780820191505090505b5090505f5f90505f8473ffffffffffffffffffffffffffffffffffffffff16630b36628d6040518163ffffffff1660e01b8152600401602060405180830381865afa158015612a61573d5f5f3e3d5ffd5b505050506040513d601f19601f82011682018060405250810190612a859190615085565b90505f5f90505b81811015612afc575f5f612aa08884613db0565b915091505f82118015612ab257505f81115b8015612abd57508181105b15612aef5782868681518110612ad657612ad56150b0565b5b60200260200101818152505084612aec90615ce0565b94505b5050806001019050612a8c565b508473ffffffffffffffffffffffffffffffffffffffff16634fa0e817846040518263ffffffff1660e01b8152600401612b369190615d27565b5f604051808303815f87803b158015612b4d575f5ffd5b505af1925050508015612b5e575060015b505050505b612b6b6131ca565b15612be1578173ffffffffffffffffffffffffffffffffffffffff1663e355a6d16040518163ffffffff1660e01b81526004016020604051808303815f875af1925050508015612bd957506040513d601f19601f82011682018060405250810190612bd69190615d7c565b60015b15612be057505b5b5050565b5f5f8473ffffffffffffffffffffffffffffffffffffffff1663a9059cbb60e01b8585604051602401612c19929190615da7565b604051602081830303815290604052907bffffffffffffffffffffffffffffffffffffffffffffffffffffffff19166020820180517bffffffffffffffffffffffffffffffffffffffffffffffffffffffff8381831617835250505050604051612c839190615e08565b5f604051808303815f865af19150503d805f8114612cbc576040519150601f19603f3d011682016040523d82523d5f602084013e612cc1565b606091505b5091509150818015612cee57505f81511480612ced575080806020019051810190612cec9190615d7c565b5b5b612d2d576040517f08c379a0000000000000000000000000000000000000000000000000000000008152600401612d2490615e68565b60405180910390fd5b5050505050565b6060600867ffffffffffffffff811115612d5157612d50615ada565b5b604051908082528060200260200182016040528015612d7f5781602001602082028036833780820191505090505b50905060fa815f81518110612d9757612d966150b0565b5b6020026020010181815250506101f481600181518110612dba57612db96150b0565b5b6020026020010181815250506103e881600281518110612ddd57612ddc6150b0565b5b6020026020010181815250506107d081600381518110612e0057612dff6150b0565b5b602002602001018181525050610dac81600481518110612e2357612e226150b0565b5b60200260200101818152505061138881600581518110612e4657612e456150b0565b5b602002602001018181525050611d4c81600681518110612e6957612e686150b0565b5b60200260200101818152505061251c81600781518110612e8c57612e8b6150b0565b5b60200260200101818152505090565b5f8173ffffffffffffffffffffffffffffffffffffffff168373ffffffffffffffffffffffffffffffffffffffff1603612ed8576001905061305f565b5f73ffffffffffffffffffffffffffffffffffffffff16612ef9848461404f565b73ffffffffffffffffffffffffffffffffffffffff1614612f1d576001905061305f565b73c02aaa39b223fe8d0a0e5c4f27ead9083c756cc273ffffffffffffffffffffffffffffffffffffffff168373ffffffffffffffffffffffffffffffffffffffff1614158015612fad575073c02aaa39b223fe8d0a0e5c4f27ead9083c756cc273ffffffffffffffffffffffffffffffffffffffff168273ffffffffffffffffffffffffffffffffffffffff1614155b1561305b575f73ffffffffffffffffffffffffffffffffffffffff16612fe78473c02aaa39b223fe8d0a0e5c4f27ead9083c756cc261404f565b73ffffffffffffffffffffffffffffffffffffffff161415801561305457505f73ffffffffffffffffffffffffffffffffffffffff1661303b73c02aaa39b223fe8d0a0e5c4f27ead9083c756cc28461404f565b73ffffffffffffffffffffffffffffffffffffffff1614155b905061305f565b5f90505b92915050565b5f4790505f8111156130e35773c02aaa39b223fe8d0a0e5c4f27ead9083c756cc273ffffffffffffffffffffffffffffffffffffffff1663d0e30db0826040518263ffffffff1660e01b81526004015f604051808303818588803b1580156130cb575f5ffd5b505af11580156130dd573d5f5f3e3d5ffd5b50505050505b50565b5f5f73ccd04073f4bdc4510927ea9ba350875c3c65bf8190505f8173ffffffffffffffffffffffffffffffffffffffff16630b36628d6040518163ffffffff1660e01b8152600401602060405180830381865afa158015613149573d5f5f3e3d5ffd5b505050506040513d601f19601f8201168201806040525081019061316d9190615085565b90505f5f90505b818110156131c4575f5f6131888584613db0565b915091505f8211801561319a57505f81115b80156131a557508181105b156131b757856131b490615ce0565b95505b5050806001019050613174565b50505090565b5f5f73ccd04073f4bdc4510927ea9ba350875c3c65bf8190505f5f5f8373ffffffffffffffffffffffffffffffffffffffff1663b78d1a2f6040518163ffffffff1660e01b8152600401602060405180830381865afa92505050801561324e57506040513d601f19601f8201168201806040525081019061324b9190615085565b60015b61325e575f9450505050506133b5565b809350508373ffffffffffffffffffffffffffffffffffffffff16632d86ba516040518163ffffffff1660e01b8152600401602060405180830381865afa9250505080156132ca57506040513d601f19601f820116820180604052508101906132c79190615085565b60015b6132da575f9450505050506133b5565b809250508373ffffffffffffffffffffffffffffffffffffffff1663c8d6404a6040518163ffffffff1660e01b8152600401602060405180830381865afa92505050801561334657506040513d601f19601f820116820180604052508101906133439190615085565b60015b613356575f9450505050506133b5565b809150505f81148061336757505f83145b8061337157504283115b15613382575f9450505050506133b5565b428211801561339b57508083426133999190615731565b105b156133ac575f9450505050506133b5565b60019450505050505b90565b5f5f5f90505b8351811015613403576133eb8482815181106133dd576133dc6150b0565b5b602002602001015184612e9b565b6133f8575f915050613409565b8060010190506133be565b50600190505b92915050565b6060600667ffffffffffffffff81111561342c5761342b615ada565b5b60405190808252806020026020018201604052801561345a5781602001602082028036833780820191505090505b5090506064815f81518110613472576134716150b0565b5b602002602001018181525050603281600181518110613494576134936150b0565b5b6020026020010181815250506021816002815181106134b6576134b56150b0565b5b6020026020010181815250506014816003815181106134d8576134d76150b0565b5b602002602001018181525050600c816004815181106134fa576134f96150b0565b5b60200260200101818152505060088160058151811061351c5761351b6150b0565b5b60200260200101818152505090565b5f5f820361353b575f9050613775565b5f8473ffffffffffffffffffffffffffffffffffffffff16630dfe16816040518163ffffffff1660e01b8152600401602060405180830381865afa158015613585573d5f5f3e3d5ffd5b505050506040513d601f19601f820116820180604052508101906135a99190615320565b90505f8573ffffffffffffffffffffffffffffffffffffffff1663d21220a76040518163ffffffff1660e01b8152600401602060405180830381865afa1580156135f5573d5f5f3e3d5ffd5b505050506040513d601f19601f820116820180604052508101906136199190615320565b90505f5f8773ffffffffffffffffffffffffffffffffffffffff16630902f1ac6040518163ffffffff1660e01b8152600401606060405180830381865afa158015613666573d5f5f3e3d5ffd5b505050506040513d601f19601f8201168201806040525081019061368a9190615f02565b50915091505f8773ffffffffffffffffffffffffffffffffffffffff168573ffffffffffffffffffffffffffffffffffffffff1614613713578773ffffffffffffffffffffffffffffffffffffffff168473ffffffffffffffffffffffffffffffffffffffff16146136fc575f61370e565b816dffffffffffffffffffffffffffff165b613725565b826dffffffffffffffffffffffffffff165b90505f810361373b575f95505050505050613775565b5f8782613748919061583a565b90505f8114806137585750818110155b1561376b575f9650505050505050613775565b8096505050505050505b9392505050565b5f60016103e56103e88461379091906157cc565b61379a919061583a565b6137a49190615f52565b9050919050565b5f6003819055505f60045f6101000a81548173ffffffffffffffffffffffffffffffffffffffff021916908373ffffffffffffffffffffffffffffffffffffffff1602179055505f60055f6101000a81548173ffffffffffffffffffffffffffffffffffffffff021916908373ffffffffffffffffffffffffffffffffffffffff1602179055505f6006819055505f6007819055505f600881905550565b60015481111561389a57815f5f6101000a81548173ffffffffffffffffffffffffffffffffffffffff021916908373ffffffffffffffffffffffffffffffffffffffff160217905550806001819055505b5050565b6060600667ffffffffffffffff8111156138bb576138ba615ada565b5b6040519080825280602002602001820160405280156138e95781602001602082028036833780820191505090505b5090506103e8815f81518110613902576139016150b0565b5b6020026020010181815250506109c481600181518110613925576139246150b0565b5b60200260200101818152505061138881600281518110613948576139476150b0565b5b602002602001018181525050611d4c8160038151811061396b5761396a6150b0565b5b6020026020010181815250506123288160048151811061398e5761398d6150b0565b5b602002602001018181525050612710816005815181106139b1576139b06150b0565b5b60200260200101818152505090565b5f73c02aaa39b223fe8d0a0e5c4f27ead9083c756cc273ffffffffffffffffffffffffffffffffffffffff168373ffffffffffffffffffffffffffffffffffffffff1603613a1057819050613daa565b5f613a2f73c02aaa39b223fe8d0a0e5c4f27ead9083c756cc28561404f565b90505f73ffffffffffffffffffffffffffffffffffffffff168173ffffffffffffffffffffffffffffffffffffffff1614613a8d57613a858173c02aaa39b223fe8d0a0e5c4f27ead9083c756cc28686306146b8565b915050613daa565b73a0b86991c6218b36c1d19d4a2e9eb0ce3606eb4873ffffffffffffffffffffffffffffffffffffffff168473ffffffffffffffffffffffffffffffffffffffff1614613bfe575f613b0773c02aaa39b223fe8d0a0e5c4f27ead9083c756cc273a0b86991c6218b36c1d19d4a2e9eb0ce3606eb4861404f565b90505f613b2873a0b86991c6218b36c1d19d4a2e9eb0ce3606eb488761404f565b90505f73ffffffffffffffffffffffffffffffffffffffff168273ffffffffffffffffffffffffffffffffffffffff1614158015613b9257505f73ffffffffffffffffffffffffffffffffffffffff168173ffffffffffffffffffffffffffffffffffffffff1614155b15613bfb575f613bcd8373c02aaa39b223fe8d0a0e5c4f27ead9083c756cc273a0b86991c6218b36c1d19d4a2e9eb0ce3606eb4889306146b8565b9050613bf08273a0b86991c6218b36c1d19d4a2e9eb0ce3606eb488984306146b8565b945050505050613daa565b50505b73dac17f958d2ee523a2206206994597c13d831ec773ffffffffffffffffffffffffffffffffffffffff168473ffffffffffffffffffffffffffffffffffffffff1614613d6f575f613c7873c02aaa39b223fe8d0a0e5c4f27ead9083c756cc273dac17f958d2ee523a2206206994597c13d831ec761404f565b90505f613c9973dac17f958d2ee523a2206206994597c13d831ec78761404f565b90505f73ffffffffffffffffffffffffffffffffffffffff168273ffffffffffffffffffffffffffffffffffffffff1614158015613d0357505f73ffffffffffffffffffffffffffffffffffffffff168173ffffffffffffffffffffffffffffffffffffffff1614155b15613d6c575f613d3e8373c02aaa39b223fe8d0a0e5c4f27ead9083c756cc273dac17f958d2ee523a2206206994597c13d831ec789306146b8565b9050613d618273dac17f958d2ee523a2206206994597c13d831ec78984306146b8565b945050505050613daa565b50505b6040517f08c379a0000000000000000000000000000000000000000000000000000000008152600401613da190615fcf565b60405180910390fd5b92915050565b5f5f8373ffffffffffffffffffffffffffffffffffffffff1663e7ee6ad6846040518263ffffffff1660e01b8152600401613deb9190614fa2565b602060405180830381865afa925050508015613e2557506040513d601f19601f82011682018060405250810190613e229190615085565b60015b613e34575f5f91509150614048565b809250505f5f8573ffffffffffffffffffffffffffffffffffffffff166320b014d5866040518263ffffffff1660e01b8152600401613e739190614fa2565b602060405180830381865afa925050508015613ead57506040513d601f19601f82011682018060405250810190613eaa9190615320565b60015b613ebe57835f935093505050614048565b809250508573ffffffffffffffffffffffffffffffffffffffff1663cf35bdd0866040518263ffffffff1660e01b8152600401613efb9190614fa2565b602060405180830381865afa925050508015613f3557506040513d601f19601f82011682018060405250810190613f329190615320565b60015b613f4657835f935093505050614048565b809150505f73ffffffffffffffffffffffffffffffffffffffff168273ffffffffffffffffffffffffffffffffffffffff161480613faf57505f73ffffffffffffffffffffffffffffffffffffffff168173ffffffffffffffffffffffffffffffffffffffff16145b15613fc157835f935093505050614048565b8173ffffffffffffffffffffffffffffffffffffffff16630ba9d8ca826040518263ffffffff1660e01b8152600401613ffa9190614f3c565b602060405180830381865afa92505050801561403457506040513d601f19601f820116820180604052508101906140319190615085565b60015b614040575f9250614045565b809350505b50505b9250929050565b5f73c0aee478e3658e2610c5f7a4a2e1777ce9e4f2ac73ffffffffffffffffffffffffffffffffffffffff1663e6a4390584846040518363ffffffff1660e01b815260040161409f929190615fed565b602060405180830381865afa1580156140ba573d5f5f3e3d5ffd5b505050506040513d601f19601f820116820180604052508101906140de9190615320565b90505f73ffffffffffffffffffffffffffffffffffffffff168173ffffffffffffffffffffffffffffffffffffffff16036141a457735c69bee701ef814a2b6a3edd4b1652cb9cc5aa6f73ffffffffffffffffffffffffffffffffffffffff1663e6a4390584846040518363ffffffff1660e01b8152600401614162929190615fed565b602060405180830381865afa15801561417d573d5f5f3e3d5ffd5b505050506040513d601f19601f820116820180604052508101906141a19190615320565b90505b92915050565b5f5f8473ffffffffffffffffffffffffffffffffffffffff1663095ea7b360e01b855f6040516024016141de929190615da7565b604051602081830303815290604052907bffffffffffffffffffffffffffffffffffffffffffffffffffffffff19166020820180517bffffffffffffffffffffffffffffffffffffffffffffffffffffffff83818316178352505050506040516142489190615e08565b5f604051808303815f865af19150503d805f8114614281576040519150601f19603f3d011682016040523d82523d5f602084013e614286565b606091505b50915091508180156142b357505f815114806142b25750808060200190518101906142b19190615d7c565b5b5b6142f2576040517f08c379a00000000000000000000000000000000000000000000000000000000081526004016142e99061605e565b60405180910390fd5b5f5f8673ffffffffffffffffffffffffffffffffffffffff1663095ea7b360e01b8787604051602401614326929190615da7565b604051602081830303815290604052907bffffffffffffffffffffffffffffffffffffffffffffffffffffffff19166020820180517bffffffffffffffffffffffffffffffffffffffffffffffffffffffff83818316178352505050506040516143909190615e08565b5f604051808303815f865af19150503d805f81146143c9576040519150601f19603f3d011682016040523d82523d5f602084013e6143ce565b606091505b50915091508180156143fb57505f815114806143fa5750808060200190518101906143f99190615d7c565b5b5b61443a576040517f08c379a0000000000000000000000000000000000000000000000000000000008152600401614431906160c6565b60405180910390fd5b50505050505050565b5f8273ffffffffffffffffffffffffffffffffffffffff168473ffffffffffffffffffffffffffffffffffffffff16148061447d57505f82145b1561448a578190506146b1565b5f614495858561404f565b90505f73ffffffffffffffffffffffffffffffffffffffff168173ffffffffffffffffffffffffffffffffffffffff16146144df576144d781868686306146b8565b9150506146b1565b73c02aaa39b223fe8d0a0e5c4f27ead9083c756cc273ffffffffffffffffffffffffffffffffffffffff168573ffffffffffffffffffffffffffffffffffffffff161415801561456f575073c02aaa39b223fe8d0a0e5c4f27ead9083c756cc273ffffffffffffffffffffffffffffffffffffffff168473ffffffffffffffffffffffffffffffffffffffff1614155b15614676575f6145938673c02aaa39b223fe8d0a0e5c4f27ead9083c756cc261404f565b90505f6145b473c02aaa39b223fe8d0a0e5c4f27ead9083c756cc28761404f565b90505f73ffffffffffffffffffffffffffffffffffffffff168273ffffffffffffffffffffffffffffffffffffffff161415801561461e57505f73ffffffffffffffffffffffffffffffffffffffff168173ffffffffffffffffffffffffffffffffffffffff1614155b15614673575f614645838973c02aaa39b223fe8d0a0e5c4f27ead9083c756cc289306146b8565b90506146688273c02aaa39b223fe8d0a0e5c4f27ead9083c756cc28984306146b8565b9450505050506146b1565b50505b6040517f08c379a00000000000000000000000000000000000000000000000000000000081526004016146a890615cc2565b60405180910390fd5b9392505050565b5f5f5f6146c6888888614944565b915091506146d5858383614d43565b92505f8311614719576040517f08c379a00000000000000000000000000000000000000000000000000000000081526004016147109061612e565b60405180910390fd5b614724878987612be5565b8673ffffffffffffffffffffffffffffffffffffffff168873ffffffffffffffffffffffffffffffffffffffff16630dfe16816040518163ffffffff1660e01b8152600401602060405180830381865afa158015614784573d5f5f3e3d5ffd5b505050506040513d601f19601f820116820180604052508101906147a89190615320565b73ffffffffffffffffffffffffffffffffffffffff1603614880578773ffffffffffffffffffffffffffffffffffffffff1663022c0d9f5f85875f67ffffffffffffffff8111156147fc576147fb615ada565b5b6040519080825280601f01601f19166020018201604052801561482e5781602001600182028036833780820191505090505b506040518563ffffffff1660e01b815260040161484e949392919061614c565b5f604051808303815f87803b158015614865575f5ffd5b505af1158015614877573d5f5f3e3d5ffd5b50505050614939565b8773ffffffffffffffffffffffffffffffffffffffff1663022c0d9f845f875f67ffffffffffffffff8111156148b9576148b8615ada565b5b6040519080825280601f01601f1916602001820160405280156148eb5781602001600182028036833780820191505090505b506040518563ffffffff1660e01b815260040161490b9493929190616196565b5f604051808303815f87803b158015614922575f5ffd5b505af1158015614934573d5f5f3e3d5ffd5b505050505b505095945050505050565b5f5f5f5f8673ffffffffffffffffffffffffffffffffffffffff16630902f1ac6040518163ffffffff1660e01b8152600401606060405180830381865afa158015614991573d5f5f3e3d5ffd5b505050506040513d601f19601f820116820180604052508101906149b59190615f02565b50915091508573ffffffffffffffffffffffffffffffffffffffff168773ffffffffffffffffffffffffffffffffffffffff16630dfe16816040518163ffffffff1660e01b8152600401602060405180830381865afa158015614a1a573d5f5f3e3d5ffd5b505050506040513d601f19601f82011682018060405250810190614a3e9190615320565b73ffffffffffffffffffffffffffffffffffffffff1603614b5e578473ffffffffffffffffffffffffffffffffffffffff168773ffffffffffffffffffffffffffffffffffffffff1663d21220a76040518163ffffffff1660e01b8152600401602060405180830381865afa158015614ab9573d5f5f3e3d5ffd5b505050506040513d601f19601f82011682018060405250810190614add9190615320565b73ffffffffffffffffffffffffffffffffffffffff1614614b33576040517f08c379a0000000000000000000000000000000000000000000000000000000008152600401614b2a9061622a565b60405180910390fd5b816dffffffffffffffffffffffffffff169350806dffffffffffffffffffffffffffff169250614d39565b8573ffffffffffffffffffffffffffffffffffffffff168773ffffffffffffffffffffffffffffffffffffffff1663d21220a76040518163ffffffff1660e01b8152600401602060405180830381865afa158015614bbe573d5f5f3e3d5ffd5b505050506040513d601f19601f82011682018060405250810190614be29190615320565b73ffffffffffffffffffffffffffffffffffffffff1614614c38576040517f08c379a0000000000000000000000000000000000000000000000000000000008152600401614c2f9061622a565b60405180910390fd5b8473ffffffffffffffffffffffffffffffffffffffff168773ffffffffffffffffffffffffffffffffffffffff16630dfe16816040518163ffffffff1660e01b8152600401602060405180830381865afa158015614c98573d5f5f3e3d5ffd5b505050506040513d601f19601f82011682018060405250810190614cbc9190615320565b73ffffffffffffffffffffffffffffffffffffffff1614614d12576040517f08c379a0000000000000000000000000000000000000000000000000000000008152600401614d099061622a565b60405180910390fd5b806dffffffffffffffffffffffffffff169350816dffffffffffffffffffffffffffff1692505b5050935093915050565b5f5f841480614d5157505f83145b80614d5b57505f82145b15614d68575f9050614dac565b5f6103e585614d7791906157cc565b9050806103e885614d8891906157cc565b614d929190615f52565b8382614d9e91906157cc565b614da8919061583a565b9150505b9392505050565b5f5ffd5b5f5ffd5b5f73ffffffffffffffffffffffffffffffffffffffff82169050919050565b5f614de482614dbb565b9050919050565b614df481614dda565b8114614dfe575f5ffd5b50565b5f81359050614e0f81614deb565b92915050565b5f819050919050565b614e2781614e15565b8114614e31575f5ffd5b50565b5f81359050614e4281614e1e565b92915050565b5f5ffd5b5f5ffd5b5f5ffd5b5f5f83601f840112614e6957614e68614e48565b5b8235905067ffffffffffffffff811115614e8657614e85614e4c565b5b602083019150836001820283011115614ea257614ea1614e50565b5b9250929050565b5f5f5f5f5f60808688031215614ec257614ec1614db3565b5b5f614ecf88828901614e01565b9550506020614ee088828901614e34565b9450506040614ef188828901614e34565b935050606086013567ffffffffffffffff811115614f1257614f11614db7565b5b614f1e88828901614e54565b92509250509295509295909350565b614f3681614dda565b82525050565b5f602082019050614f4f5f830184614f2d565b92915050565b5f5f60408385031215614f6b57614f6a614db3565b5b5f614f7885828601614e34565b9250506020614f8985828601614e01565b9150509250929050565b614f9c81614e15565b82525050565b5f602082019050614fb55f830184614f93565b92915050565b5f5f60408385031215614fd157614fd0614db3565b5b5f614fde85828601614e34565b9250506020614fef85828601614e34565b9150509250929050565b5f82825260208201905092915050565b7f73656c66206f6e6c7900000000000000000000000000000000000000000000005f82015250565b5f61503d600983614ff9565b915061504882615009565b602082019050919050565b5f6020820190508181035f83015261506a81615031565b9050919050565b5f8151905061507f81614e1e565b92915050565b5f6020828403121561509a57615099614db3565b5b5f6150a784828501615071565b91505092915050565b7f4e487b71000000000000000000000000000000000000000000000000000000005f52603260045260245ffd5b5f6040820190506150f05f830185614f93565b6150fd6020830184614f2d565b9392505050565b7f666c6173682070617468206661696c65640000000000000000000000000000005f82015250565b5f615138601183614ff9565b915061514382615104565b602082019050919050565b5f6020820190508181035f8301526151658161512c565b9050919050565b7f6261642073656e646572000000000000000000000000000000000000000000005f82015250565b5f6151a0600a83614ff9565b91506151ab8261516c565b602082019050919050565b5f6020820190508181035f8301526151cd81615194565b9050919050565b7f626164206d6f64650000000000000000000000000000000000000000000000005f82015250565b5f615208600883614ff9565b9150615213826151d4565b602082019050919050565b5f6020820190508181035f830152615235816151fc565b9050919050565b7f62616420706169720000000000000000000000000000000000000000000000005f82015250565b5f615270600883614ff9565b915061527b8261523c565b602082019050919050565b5f6020820190508181035f83015261529d81615264565b9050919050565b7f62616420626f72726f77000000000000000000000000000000000000000000005f82015250565b5f6152d8600a83614ff9565b91506152e3826152a4565b602082019050919050565b5f6020820190508181035f830152615305816152cc565b9050919050565b5f8151905061531a81614deb565b92915050565b5f6020828403121561533557615334614db3565b5b5f6153428482850161530c565b91505092915050565b7f6e6f206c700000000000000000000000000000000000000000000000000000005f82015250565b5f61537f600583614ff9565b915061538a8261534b565b602082019050919050565b5f6020820190508181035f8301526153ac81615373565b9050919050565b7f696e736f6c76656e7400000000000000000000000000000000000000000000005f82015250565b5f6153e7600983614ff9565b91506153f2826153b3565b602082019050919050565b5f6020820190508181035f830152615414816153db565b9050919050565b5f60408201905061542e5f830185614f93565b61543b6020830184614f93565b9392505050565b7f6469726563742070617468206661696c656400000000000000000000000000005f82015250565b5f615476601283614ff9565b915061548182615442565b602082019050919050565b5f6020820190508181035f8301526154a38161546a565b9050919050565b7f62757379000000000000000000000000000000000000000000000000000000005f82015250565b5f6154de600483614ff9565b91506154e9826154aa565b602082019050919050565b5f6020820190508181035f83015261550b816154d2565b9050919050565b7f7374616c652061737365740000000000000000000000000000000000000000005f82015250565b5f615546600b83614ff9565b915061555182615512565b602082019050919050565b5f6020820190508181035f8301526155738161553a565b9050919050565b7f6e6f2070616972000000000000000000000000000000000000000000000000005f82015250565b5f6155ae600783614ff9565b91506155b98261557a565b602082019050919050565b5f6020820190508181035f8301526155db816155a2565b9050919050565b7f696c6c6971756964206261736b657400000000000000000000000000000000005f82015250565b5f615616600f83614ff9565b9150615621826155e2565b602082019050919050565b5f6020820190508181035f8301526156438161560a565b9050919050565b5f81519050919050565b5f82825260208201905092915050565b8281835e5f83830152505050565b5f601f19601f8301169050919050565b5f61568c8261564a565b6156968185615654565b93506156a6818560208601615664565b6156af81615672565b840191505092915050565b5f6080820190506156cd5f830187614f93565b6156da6020830186614f93565b6156e76040830185614f2d565b81810360608301526156f98184615682565b905095945050505050565b7f4e487b71000000000000000000000000000000000000000000000000000000005f52601160045260245ffd5b5f61573b82614e15565b915061574683614e15565b925082820390508181111561575e5761575d615704565b5b92915050565b7f6e6f20666c6173682070726f66697400000000000000000000000000000000005f82015250565b5f615798600f83614ff9565b91506157a382615764565b602082019050919050565b5f6020820190508181035f8301526157c58161578c565b9050919050565b5f6157d682614e15565b91506157e183614e15565b92508282026157ef81614e15565b9150828204841483151761580657615805615704565b5b5092915050565b7f4e487b71000000000000000000000000000000000000000000000000000000005f52601260045260245ffd5b5f61584482614e15565b915061584f83614e15565b92508261585f5761585e61580d565b5b828204905092915050565b7f6e6f206578697374696e672d6c702070726f66697400000000000000000000005f82015250565b5f61589e601583614ff9565b91506158a98261586a565b602082019050919050565b5f6020820190508181035f8301526158cb81615892565b9050919050565b7f626164206672616374696f6e00000000000000000000000000000000000000005f82015250565b5f615906600c83614ff9565b9150615911826158d2565b602082019050919050565b5f6020820190508181035f830152615933816158fa565b9050919050565b7f6e6f2077657468000000000000000000000000000000000000000000000000005f82015250565b5f61596e600783614ff9565b91506159798261593a565b602082019050919050565b5f6020820190508181035f83015261599b81615962565b9050919050565b7f7a65726f207370656e64000000000000000000000000000000000000000000005f82015250565b5f6159d6600a83614ff9565b91506159e1826159a2565b602082019050919050565b5f6020820190508181035f830152615a03816159ca565b9050919050565b7f6e6f2066756e64696e67000000000000000000000000000000000000000000005f82015250565b5f615a3e600a83614ff9565b9150615a4982615a0a565b602082019050919050565b5f6020820190508181035f830152615a6b81615a32565b9050919050565b7f6e6f206469726563742070726f666974000000000000000000000000000000005f82015250565b5f615aa6601083614ff9565b9150615ab182615a72565b602082019050919050565b5f6020820190508181035f830152615ad381615a9a565b9050919050565b7f4e487b71000000000000000000000000000000000000000000000000000000005f52604160045260245ffd5b5f81519050919050565b5f82825260208201905092915050565b5f819050602082019050919050565b615b3981614e15565b82525050565b5f615b4a8383615b30565b60208301905092915050565b5f602082019050919050565b5f615b6c82615b07565b615b768185615b11565b9350615b8183615b21565b805f5b83811015615bb1578151615b988882615b3f565b9750615ba383615b56565b925050600181019050615b84565b5085935050505092915050565b5f819050919050565b5f819050919050565b5f615bea615be5615be084615bbe565b615bc7565b614e15565b9050919050565b615bfa81615bd0565b82525050565b5f6060820190508181035f830152615c188186615b62565b9050615c276020830185615bf1565b615c346040830184614f2d565b949350505050565b5f606082019050615c4f5f830186614f93565b8181036020830152615c618185615b62565b9050615c706040830184614f2d565b949350505050565b7f6e6f20726f7574650000000000000000000000000000000000000000000000005f82015250565b5f615cac600883614ff9565b9150615cb782615c78565b602082019050919050565b5f6020820190508181035f830152615cd981615ca0565b9050919050565b5f615cea82614e15565b91507fffffffffffffffffffffffffffffffffffffffffffffffffffffffffffffffff8203615d1c57615d1b615704565b5b600182019050919050565b5f6020820190508181035f830152615d3f8184615b62565b905092915050565b5f8115159050919050565b615d5b81615d47565b8114615d65575f5ffd5b50565b5f81519050615d7681615d52565b92915050565b5f60208284031215615d9157615d90614db3565b5b5f615d9e84828501615d68565b91505092915050565b5f604082019050615dba5f830185614f2d565b615dc76020830184614f93565b9392505050565b5f81905092915050565b5f615de28261564a565b615dec8185615dce565b9350615dfc818560208601615664565b80840191505092915050565b5f615e138284615dd8565b915081905092915050565b7f7472616e73666572206661696c656400000000000000000000000000000000005f82015250565b5f615e52600f83614ff9565b9150615e5d82615e1e565b602082019050919050565b5f6020820190508181035f830152615e7f81615e46565b9050919050565b5f6dffffffffffffffffffffffffffff82169050919050565b615ea881615e86565b8114615eb2575f5ffd5b50565b5f81519050615ec381615e9f565b92915050565b5f63ffffffff82169050919050565b615ee181615ec9565b8114615eeb575f5ffd5b50565b5f81519050615efc81615ed8565b92915050565b5f5f5f60608486031215615f1957615f18614db3565b5b5f615f2686828701615eb5565b9350506020615f3786828701615eb5565b9250506040615f4886828701615eee565b9150509250925092565b5f615f5c82614e15565b9150615f6783614e15565b9250828201905080821115615f7f57615f7e615704565b5b92915050565b7f6e6f2062757920726f75746500000000000000000000000000000000000000005f82015250565b5f615fb9600c83614ff9565b9150615fc482615f85565b602082019050919050565b5f6020820190508181035f830152615fe681615fad565b9050919050565b5f6040820190506160005f830185614f2d565b61600d6020830184614f2d565b9392505050565b7f617070726f7665207265736574206661696c65640000000000000000000000005f82015250565b5f616048601483614ff9565b915061605382616014565b602082019050919050565b5f6020820190508181035f8301526160758161603c565b9050919050565b7f617070726f7665206661696c65640000000000000000000000000000000000005f82015250565b5f6160b0600e83614ff9565b91506160bb8261607c565b602082019050919050565b5f6020820190508181035f8301526160dd816160a4565b9050919050565b7f7a65726f206f75740000000000000000000000000000000000000000000000005f82015250565b5f616118600883614ff9565b9150616123826160e4565b602082019050919050565b5f6020820190508181035f8301526161458161610c565b9050919050565b5f60808201905061615f5f830187615bf1565b61616c6020830186614f93565b6161796040830185614f2d565b818103606083015261618b8184615682565b905095945050505050565b5f6080820190506161a95f830187614f93565b6161b66020830186615bf1565b6161c36040830185614f2d565b81810360608301526161d58184615682565b905095945050505050565b7f70616972206d69736d61746368000000000000000000000000000000000000005f82015250565b5f616214600d83614ff9565b915061621f826161e0565b602082019050919050565b5f6020820190508181035f83015261624181616208565b905091905056fea2646970667358221220f53cd640f55da98731d6e53637fd278e095e59b47d49a9632214e8ff5d62360464736f6c634300081e0033","linkReferences":{}},"methodIdentifiers":{"DAI()":"e0bab4c4","SUSHI_FACTORY()":"b753bb47","TARGET_POOL()":"181e0cc6","UNISWAP_V2_FACTORY()":"99d8fae3","USDC()":"89a30271","USDT()":"c54e44eb","WETH()":"ad5c4648","attemptDirectMintAndExit()":"159b411e","attemptDirectMintAndExitWithAsset(uint256,uint256)":"af6c255d","attemptExistingLpExit()":"82cd4beb","attemptFlashMintAndExit()":"0518d523","attemptFlashMintAndExitWithPair(uint256,address)":"595901b2","executeOnOpportunity()":"3c2448ed","profitAmount()":"5ff972cc","profitToken()":"49343624","uniswapV2Call(address,uint256,uint256,bytes)":"10d1e85c"},"id":0}