{"abi":[{"type":"function","name":"claimAndMint","inputs":[{"name":"market","type":"address","internalType":"address"},{"name":"underlying","type":"address","internalType":"address"}],"outputs":[{"name":"claimedAmount","type":"uint256","internalType":"uint256"}],"stateMutability":"nonpayable"},{"type":"function","name":"claimAndTransfer","inputs":[{"name":"token","type":"address","internalType":"address"},{"name":"to","type":"address","internalType":"address"}],"outputs":[{"name":"claimedAmount","type":"uint256","internalType":"uint256"}],"stateMutability":"nonpayable"}],"bytecode":{"object":"0x60808060405234601557610778908161001a8239f35b5f80fdfe60806040526004361015610011575f80fd5b5f3560e01c80633a1eb28a1461006757639aee1d8e1461002f575f80fd5b3461006357604036600319011261006357602061005b61004d6100ff565b610055610115565b90610161565b604051908152f35b5f80fd5b346100635760403660031901126100635760206100826100ff565b61008a610115565b610093826102aa565b8092816100a6575b505050604051908152f35b60405163a9059cbb60e01b868201526001600160a01b03909316602484015260448301919091526100f791906100e982606481015b03601f19810184528361012b565b6001600160a01b031661067f565b82818161009b565b600435906001600160a01b038216820361006357565b602435906001600160a01b038216820361006357565b90601f8019910116810190811067ffffffffffffffff82111761014d57604052565b634e487b7160e01b5f52604160045260245ffd5b91909161016d836102aa565b9283156102a3575f916101fc8560209360018060a01b03166101f76040519463095ea7b360e01b878701526101c660018060a01b03821696876024820152896044820152604481526101c060648261012b565b8461067f565b60405163095ea7b360e01b888201526001600160a01b039091166024820152604481019390935282606481016100db565b61067f565b60246040518094819363140e25ad60e31b83528860048401525af1908115610298575f91610266575b5061022c57565b60405162461bcd60e51b8152602060048201526012602482015271159250d5125357d352539517d1905253115160721b6044820152606490fd5b90506020813d602011610290575b816102816020938361012b565b8101031261006357515f610225565b3d9150610274565b6040513d5f823e3d90fd5b505f925050565b6040516370a0823160e01b81523060048201525f92916001600160a01b0381169190602082602481865afa918215610298575f9261060b575b506024925f80602093818060405187810190634e71d92d60e01b82526004815261030d8b8261012b565b519082855af15061031c610640565b5081806040518781019063d1058e5960e01b82526004815261033e8b8261012b565b519082855af15061034d610640565b50818060405187810190634fb3c66560e11b82526004815261036f8b8261012b565b519082855af15061037e610640565b5081806040518781019063de5f72fd60e01b8252600481526103a08b8261012b565b519082855af1506103af610640565b50818060405187810190631249c58b60e01b8252600481526103d18b8261012b565b519082855af1506103e0610640565b50818060405187810190631e8c5c8960e11b8252600481526104028b8261012b565b519082855af150610411610640565b508180604051878101906348c54b9d60e01b8252600481526104338b8261012b565b519082855af150610442610640565b5081806040518781019063359cf2b760e01b8252600481526104648b8261012b565b519082855af150610473610640565b50818060405187810190630f41a04d60e11b8252308b8201528a815261049a60448261012b565b519082855af1506104a9610640565b5081806040518781019063144c5ebf60e31b8252308b8201528a81526104d060448261012b565b519082855af1506104df610640565b508180604051878101906333d2e68360e11b8252308b8201528a815261050660448261012b565b519082855af150610515610640565b5081806040518781019063b86d1d6360e01b8252308b8201528a815261053c60448261012b565b519082855af15061054b610640565b5060405182868201916335313c2160e11b8352308a82015289815261057160448261012b565b51925af15061057e610640565b506040516370a0823160e01b815230600482015293849182905afa918215610298575f926105d7575b508082116105b3575050565b9080929350039081116105c35790565b634e487b7160e01b5f52601160045260245ffd5b9091506020813d602011610603575b816105f36020938361012b565b810103126100635751905f6105a7565b3d91506105e6565b9091506020813d602011610638575b816106276020938361012b565b8101031261006357519060246102e3565b3d915061061a565b3d1561067a573d9067ffffffffffffffff821161014d576040519161066f601f8201601f19166020018461012b565b82523d5f602084013e565b606090565b81515f92839260209091019083906001600160a01b03165af16106a0610640565b9015610709578051806106b1575050565b81602091810103126100635760200151801590811503610063576106d157565b60405162461bcd60e51b815260206004820152601060248201526f544f4b454e5f43414c4c5f46414c534560801b6044820152606490fd5b60405162461bcd60e51b81526020600482015260116024820152701513d2d15397d0d0531317d19052531151607a1b6044820152606490fdfea264697066735822122009684a2a93b2c8fdb6c06972f9949f7bfde7419ab44e24289bd1ea355c8e51f664736f6c634300081e0033","linkReferences":{}},"methodIdentifiers":{"claimAndMint(address,address)":"9aee1d8e","claimAndTransfer(address,address)":"3a1eb28a"},"id":0}