{"abi":[{"type":"function","name":"mintInto","inputs":[{"name":"market","type":"address","internalType":"address"},{"name":"underlying","type":"address","internalType":"address"},{"name":"amount","type":"uint256","internalType":"uint256"}],"outputs":[],"stateMutability":"nonpayable"}],"bytecode":{"object":"0x608080604052346015576102de908161001a8239f35b5f80fdfe6080806040526004361015610012575f80fd5b5f3560e01c632cc1729a14610025575f80fd5b34610160576060366003190112610160576004356001600160a01b0381169190829003610160576024356001600160a01b03811692908390036101605760246020926100ce5f9561009f6044359363095ea7b360e01b88820152868682015288604482015260448152610099606482610177565b826101ad565b6040519063095ea7b360e01b878301528585830152836044830152604482526100c9606483610177565b6101ad565b604051948593849263140e25ad60e31b845260048401525af190811561016c575f91610136575b506100fc57005b60405162461bcd60e51b8152602060048201526012602482015271159250d5125357d352539517d1905253115160721b6044820152606490fd5b90506020813d602011610164575b8161015160209383610177565b8101031261016057515f6100f5565b5f80fd5b3d9150610144565b6040513d5f823e3d90fd5b90601f8019910116810190811067ffffffffffffffff82111761019957604052565b634e487b7160e01b5f52604160045260245ffd5b81515f92839260209091019083906001600160a01b03165af13d156102a0573d9067ffffffffffffffff821161019957604051916101f5601f8201601f191660200184610177565b82523d5f602084013e5b156102675780518061020f575050565b816020918101031261016057602001518015908115036101605761022f57565b60405162461bcd60e51b815260206004820152601060248201526f544f4b454e5f43414c4c5f46414c534560801b6044820152606490fd5b60405162461bcd60e51b81526020600482015260116024820152701513d2d15397d0d0531317d19052531151607a1b6044820152606490fd5b6060906101ff56fea26469706673582212205b1be0adfcd412a883ca9963188cad7d8ae6637f74503c012838be90401f4bd664736f6c634300081e0033","linkReferences":{}},"methodIdentifiers":{"mintInto(address,address,uint256)":"2cc1729a"},"id":0}