{"abi":[{"type":"constructor","inputs":[],"stateMutability":"nonpayable"},{"type":"fallback","stateMutability":"payable"},{"type":"receive","stateMutability":"payable"},{"type":"function","name":"BALANCER_VAULT","inputs":[],"outputs":[{"name":"","type":"address","internalType":"address"}],"stateMutability":"view"},{"type":"function","name":"ERC1820_REGISTRY","inputs":[],"outputs":[{"name":"","type":"address","internalType":"address"}],"stateMutability":"view"},{"type":"function","name":"SUSHISWAP_FACTORY","inputs":[],"outputs":[{"name":"","type":"address","internalType":"address"}],"stateMutability":"view"},{"type":"function","name":"TARGET_MARKET","inputs":[],"outputs":[{"name":"","type":"address","internalType":"address"}],"stateMutability":"view"},{"type":"function","name":"UNISWAP_V2_FACTORY","inputs":[],"outputs":[{"name":"","type":"address","internalType":"address"}],"stateMutability":"view"},{"type":"function","name":"chosenVictimMarket","inputs":[],"outputs":[{"name":"","type":"address","internalType":"address"}],"stateMutability":"view"},{"type":"function","name":"chosenVictimUnderlying","inputs":[],"outputs":[{"name":"","type":"address","internalType":"address"}],"stateMutability":"view"},{"type":"function","name":"executeOnOpportunity","inputs":[],"outputs":[],"stateMutability":"nonpayable"},{"type":"function","name":"executed","inputs":[],"outputs":[{"name":"","type":"bool","internalType":"bool"}],"stateMutability":"view"},{"type":"function","name":"exploitPathUsed","inputs":[],"outputs":[{"name":"","type":"string","internalType":"string"}],"stateMutability":"view"},{"type":"function","name":"hypothesisValidated","inputs":[],"outputs":[{"name":"","type":"bool","internalType":"bool"}],"stateMutability":"view"},{"type":"function","name":"lastFailure","inputs":[],"outputs":[{"name":"","type":"string","internalType":"string"}],"stateMutability":"view"},{"type":"function","name":"onTokenTransfer","inputs":[{"name":"","type":"address","internalType":"address"},{"name":"","type":"uint256","internalType":"uint256"},{"name":"","type":"bytes","internalType":"bytes"}],"outputs":[],"stateMutability":"nonpayable"},{"type":"function","name":"onTransferReceived","inputs":[{"name":"","type":"address","internalType":"address"},{"name":"","type":"address","internalType":"address"},{"name":"","type":"uint256","internalType":"uint256"},{"name":"","type":"bytes","internalType":"bytes"}],"outputs":[{"name":"","type":"bytes4","internalType":"bytes4"}],"stateMutability":"nonpayable"},{"type":"function","name":"pancakeCall","inputs":[{"name":"sender","type":"address","internalType":"address"},{"name":"amount0","type":"uint256","internalType":"uint256"},{"name":"amount1","type":"uint256","internalType":"uint256"},{"name":"","type":"bytes","internalType":"bytes"}],"outputs":[],"stateMutability":"nonpayable"},{"type":"function","name":"profitAmount","inputs":[],"outputs":[{"name":"","type":"uint256","internalType":"uint256"}],"stateMutability":"view"},{"type":"function","name":"profitToken","inputs":[],"outputs":[{"name":"","type":"address","internalType":"address"}],"stateMutability":"view"},{"type":"function","name":"receiveFlashLoan","inputs":[{"name":"tokens","type":"address[]","internalType":"address[]"},{"name":"amounts","type":"uint256[]","internalType":"uint256[]"},{"name":"feeAmounts","type":"uint256[]","internalType":"uint256[]"},{"name":"","type":"bytes","internalType":"bytes"}],"outputs":[],"stateMutability":"nonpayable"},{"type":"function","name":"targetComptroller","inputs":[],"outputs":[{"name":"","type":"address","internalType":"address"}],"stateMutability":"view"},{"type":"function","name":"targetUnderlying","inputs":[],"outputs":[{"name":"","type":"address","internalType":"address"}],"stateMutability":"view"},{"type":"function","name":"tokenFallback","inputs":[{"name":"","type":"address","internalType":"address"},{"name":"","type":"uint256","internalType":"uint256"},{"name":"","type":"bytes","internalType":"bytes"}],"outputs":[],"stateMutability":"nonpayable"},{"type":"function","name":"tokensReceived","inputs":[{"name":"","type":"address","internalType":"address"},{"name":"","type":"address","internalType":"address"},{"name":"","type":"address","internalType":"address"},{"name":"","type":"uint256","internalType":"uint256"},{"name":"","type":"bytes","internalType":"bytes"},{"name":"","type":"bytes","internalType":"bytes"}],"outputs":[],"stateMutability":"nonpayable"},{"type":"function","name":"uniswapV2Call","inputs":[{"name":"sender","type":"address","internalType":"address"},{"name":"amount0","type":"uint256","internalType":"uint256"},{"name":"amount1","type":"uint256","internalType":"uint256"},{"name":"","type":"bytes","internalType":"bytes"}],"outputs":[],"stateMutability":"nonpayable"}],"bytecode":{"object":"0x608060405234801561000f575f5ffd5b5061001e61003160201b60201c565b61002c6100f760201b60201c565b610930565b61005473b0f8fe96b4880adbdede0ddf446bd1e7ef122c4e61020f60201b60201c565b60025f6101000a81548173ffffffffffffffffffffffffffffffffffffffff021916908373ffffffffffffffffffffffffffffffffffffffff1602179055506100b673b0f8fe96b4880adbdede0ddf446bd1e7ef122c4e61058560201b60201c565b60035f6101000a81548173ffffffffffffffffffffffffffffffffffffffff021916908373ffffffffffffffffffffffffffffffffffffffff160217905550565b5f731820a4b7618bde71dce8cdc73aab6c95905fad2473ffffffffffffffffffffffffffffffffffffffff166329965a1d60e01b307fb281fc8c12954d22544db45de3159a39272895b169a852b314f9cc762e44c53b3060405160240161016093929190610829565b604051602081830303815290604052907bffffffffffffffffffffffffffffffffffffffffffffffffffffffff19166020820180517bffffffffffffffffffffffffffffffffffffffffffffffffffffffff83818316178352505050506040516101ca91906108b0565b5f604051808303815f865af19150503d805f8114610203576040519150601f19603f3d011682016040523d82523d5f602084013e610208565b606091505b5050905050565b5f5f73ffffffffffffffffffffffffffffffffffffffff168273ffffffffffffffffffffffffffffffffffffffff160361024b575f9050610580565b73b0f8fe96b4880adbdede0ddf446bd1e7ef122c4e73ffffffffffffffffffffffffffffffffffffffff168273ffffffffffffffffffffffffffffffffffffffff16036102ae57735ee08f40b637417bcc9d2c51b62f4820ec9cf5d89050610580565b73e853e5c1edf8c51e81bae81d742dd861df596de773ffffffffffffffffffffffffffffffffffffffff168273ffffffffffffffffffffffffffffffffffffffff16036103115773f4edfad26ee0d23b69ca93112ecce52704e0006f9050610580565b73f7548a6e9daf2e4689cedd8a08189d0d6f3ee91b73ffffffffffffffffffffffffffffffffffffffff168273ffffffffffffffffffffffffffffffffffffffff16036103745773a1e3f062ce5825c1e19207cd93cefdad82a8a6319050610580565b5f636f307dc360e01b604051602401604051602081830303815290604052907bffffffffffffffffffffffffffffffffffffffffffffffffffffffff19166020820180517bffffffffffffffffffffffffffffffffffffffffffffffffffffffff838183161783525050505090505f73104079a87ce46fe2cf27b811f6b406b69f6872b373ffffffffffffffffffffffffffffffffffffffff168473ffffffffffffffffffffffffffffffffffffffff16146104335762013880610438565b6207a1205b90505f5f8573ffffffffffffffffffffffffffffffffffffffff16838560405161046291906108b0565b5f604051808303818686fa925050503d805f811461049b576040519150601f19603f3d011682016040523d82523d5f602084013e6104a0565b606091505b50915091508180156104b457506020815110155b156104d857808060200190518101906104cd9190610905565b945050505050610580565b8573ffffffffffffffffffffffffffffffffffffffff1683856040516104fe91906108b0565b5f604051808303815f8787f1925050503d805f8114610538576040519150601f19603f3d011682016040523d82523d5f602084013e61053d565b606091505b508092508193505050811580610554575060208151105b15610565575f945050505050610580565b808060200190518101906105799190610905565b9450505050505b919050565b5f5f73ffffffffffffffffffffffffffffffffffffffff168273ffffffffffffffffffffffffffffffffffffffff16036105c1575f90506107cd565b5f635fe3b56760e01b604051602401604051602081830303815290604052907bffffffffffffffffffffffffffffffffffffffffffffffffffffffff19166020820180517bffffffffffffffffffffffffffffffffffffffffffffffffffffffff838183161783525050505090505f73104079a87ce46fe2cf27b811f6b406b69f6872b373ffffffffffffffffffffffffffffffffffffffff168473ffffffffffffffffffffffffffffffffffffffff16146106805762013880610685565b6207a1205b90505f5f8573ffffffffffffffffffffffffffffffffffffffff1683856040516106af91906108b0565b5f604051808303818686fa925050503d805f81146106e8576040519150601f19603f3d011682016040523d82523d5f602084013e6106ed565b606091505b509150915081801561070157506020815110155b15610725578080602001905181019061071a9190610905565b9450505050506107cd565b8573ffffffffffffffffffffffffffffffffffffffff16838560405161074b91906108b0565b5f604051808303815f8787f1925050503d805f8114610785576040519150601f19603f3d011682016040523d82523d5f602084013e61078a565b606091505b5080925081935050508115806107a1575060208151105b156107b2575f9450505050506107cd565b808060200190518101906107c69190610905565b9450505050505b919050565b5f73ffffffffffffffffffffffffffffffffffffffff82169050919050565b5f6107fb826107d2565b9050919050565b61080b816107f1565b82525050565b5f819050919050565b61082381610811565b82525050565b5f60608201905061083c5f830186610802565b610849602083018561081a565b6108566040830184610802565b949350505050565b5f81519050919050565b5f81905092915050565b8281835e5f83830152505050565b5f61088a8261085e565b6108948185610868565b93506108a4818560208601610872565b80840191505092915050565b5f6108bb8284610880565b915081905092915050565b5f5ffd5b5f6108d4826107d2565b9050919050565b6108e4816108ca565b81146108ee575f5ffd5b50565b5f815190506108ff816108db565b92915050565b5f6020828403121561091a576109196108c6565b5b5f610927848285016108f1565b91505092915050565b617b678061093d5f395ff3fe608060405260043610610142575f3560e01c806384800812116100b5578063c3a5a1541161006e578063c3a5a15414610419578063c86bc7fd14610443578063d78c42811461046d578063eeb3b5e314610497578063f04f2707146104c1578063fa0eea31146104e957610151565b8063848008121461031157806388a7ca5c1461033957806399d8fae314610375578063a4c0ed361461039f578063bc163846146103c7578063c0ee0b8a146103f157610151565b8063463defd111610107578063463defd114610215578063493436241461023f578063495c0f9b146102695780635ff972cc146102935780636de4d1eb146102bd57806374bbd9ed146102e757610151565b806223de291461015b578063013eb1771461018357806310d1e85c146101ad57806331a38c89146101d55780633c2448ed146101ff57610151565b366101515761014f610513565b005b610159610513565b005b348015610166575f5ffd5b50610181600480360381019061017c9190615c55565b6106ce565b005b34801561018e575f5ffd5b506101976106e0565b6040516101a49190615d2e565b60405180910390f35b3480156101b8575f5ffd5b506101d360048036038101906101ce9190615d47565b6106f8565b005b3480156101e0575f5ffd5b506101e961070a565b6040516101f69190615de5565b60405180910390f35b34801561020a575f5ffd5b5061021361071d565b005b348015610220575f5ffd5b50610229610a01565b6040516102369190615de5565b60405180910390f35b34801561024a575f5ffd5b50610253610a13565b6040516102609190615d2e565b60405180910390f35b348015610274575f5ffd5b5061027d610a3a565b60405161028a9190615d2e565b60405180910390f35b34801561029e575f5ffd5b506102a7610a52565b6040516102b49190615e0d565b60405180910390f35b3480156102c8575f5ffd5b506102d1610a5b565b6040516102de9190615d2e565b60405180910390f35b3480156102f2575f5ffd5b506102fb610a80565b6040516103089190615d2e565b60405180910390f35b34801561031c575f5ffd5b5061033760048036038101906103329190615d47565b610aa5565b005b348015610344575f5ffd5b5061035f600480360381019061035a9190615e26565b610ab7565b60405161036c9190615ee4565b60405180910390f35b348015610380575f5ffd5b50610389610ad3565b6040516103969190615d2e565b60405180910390f35b3480156103aa575f5ffd5b506103c560048036038101906103c09190615efd565b610aeb565b005b3480156103d2575f5ffd5b506103db610af9565b6040516103e89190615d2e565b60405180910390f35b3480156103fc575f5ffd5b5061041760048036038101906104129190615efd565b610b11565b005b348015610424575f5ffd5b5061042d610b1f565b60405161043a9190615fde565b60405180910390f35b34801561044e575f5ffd5b50610457610bab565b6040516104649190615d2e565b60405180910390f35b348015610478575f5ffd5b50610481610bc3565b60405161048e9190615fde565b60405180910390f35b3480156104a2575f5ffd5b506104ab610c4f565b6040516104b89190615d2e565b60405180910390f35b3480156104cc575f5ffd5b506104e760048036038101906104e291906162a6565b610c74565b005b3480156104f4575f5ffd5b506104fd610f36565b60405161050a9190615d2e565b60405180910390f35b60025f9054906101000a900473ffffffffffffffffffffffffffffffffffffffff1673ffffffffffffffffffffffffffffffffffffffff163373ffffffffffffffffffffffffffffffffffffffff1614158061057c5750600860079054906101000a900460ff16155b6106cc576001600860046101000a81548160ff021916908315150217905550600860059054906101000a900460ff166106cc576001600860056101000a81548160ff0219169083151502179055505f600860076101000a81548160ff02191690831515021790555061060f60025f9054906101000a900473ffffffffffffffffffffffffffffffffffffffff1630610f5b565b600a819055505f5f5f6106206110b1565b92509250925082156106c8576001600860066101000a81548160ff0219169083151502179055508160045f6101000a81548173ffffffffffffffffffffffffffffffffffffffff021916908373ffffffffffffffffffffffffffffffffffffffff1602179055508060055f6101000a81548173ffffffffffffffffffffffffffffffffffffffff021916908373ffffffffffffffffffffffffffffffffffffffff1602179055505b5050505b565b6106d6610513565b5050505050505050565b731820a4b7618bde71dce8cdc73aab6c95905fad2481565b610703858585611483565b5050505050565b600860019054906101000a900460ff1681565b6001600860016101000a81548160ff0219169083151502179055505f60085f6101000a81548160ff0219169083151502179055505f60045f6101000a81548173ffffffffffffffffffffffffffffffffffffffff021916908373ffffffffffffffffffffffffffffffffffffffff1602179055505f60055f6101000a81548173ffffffffffffffffffffffffffffffffffffffff021916908373ffffffffffffffffffffffffffffffffffffffff16021790555060405180602001604052805f815250600690816107ee9190616577565b5060405180602001604052805f8152506007908161080c9190616577565b505f5f5f6101000a81548173ffffffffffffffffffffffffffffffffffffffff021916908373ffffffffffffffffffffffffffffffffffffffff1602179055505f60018190555061085b611733565b6108636117ed565b5f73ffffffffffffffffffffffffffffffffffffffff1660025f9054906101000a900473ffffffffffffffffffffffffffffffffffffffff1673ffffffffffffffffffffffffffffffffffffffff16148061090a57505f73ffffffffffffffffffffffffffffffffffffffff1660035f9054906101000a900473ffffffffffffffffffffffffffffffffffffffff1673ffffffffffffffffffffffffffffffffffffffff16145b156109525761094d6040518060400160405280601781526020017f5441524745545f444953434f564552595f4641494c4544000000000000000000815250611905565b6109ff565b61095a611921565b6109ff57610966611c04565b6109ff57610972611d25565b6109ff576109806001611f2b565b6109ff5761098e6002611f2b565b6109ff5761099a612290565b6109ff576109a6612437565b6109ff575f600780546109b8906163a7565b9050036109fe576109fd6040518060400160405280601181526020017f4e4f5f504154485f535543434545444544000000000000000000000000000000815250611905565b5b5b565b60085f9054906101000a900460ff1681565b5f5f5f9054906101000a900473ffffffffffffffffffffffffffffffffffffffff16905090565b73c0aee478e3658e2610c5f7a4a2e1777ce9e4f2ac81565b5f600154905090565b60055f9054906101000a900473ffffffffffffffffffffffffffffffffffffffff1681565b60035f9054906101000a900473ffffffffffffffffffffffffffffffffffffffff1681565b610ab0858585611483565b5050505050565b5f610ac0610513565b6388a7ca5c60e01b905095945050505050565b735c69bee701ef814a2b6a3edd4b1652cb9cc5aa6f81565b610af3610513565b50505050565b73ba12222222228d8ba445958a75a0704d566bf2c881565b610b19610513565b50505050565b60078054610b2c906163a7565b80601f0160208091040260200160405190810160405280929190818152602001828054610b58906163a7565b8015610ba35780601f10610b7a57610100808354040283529160200191610ba3565b820191905f5260205f20905b815481529060010190602001808311610b8657829003601f168201915b505050505081565b73b0f8fe96b4880adbdede0ddf446bd1e7ef122c4e81565b60068054610bd0906163a7565b80601f0160208091040260200160405190810160405280929190818152602001828054610bfc906163a7565b8015610c475780601f10610c1e57610100808354040283529160200191610c47565b820191905f5260205f20905b815481529060010190602001808311610c2a57829003601f168201915b505050505081565b60045f9054906101000a900473ffffffffffffffffffffffffffffffffffffffff1681565b73ba12222222228d8ba445958a75a0704d566bf2c873ffffffffffffffffffffffffffffffffffffffff163373ffffffffffffffffffffffffffffffffffffffff1614610cf6576040517f08c379a0000000000000000000000000000000000000000000000000000000008152600401610ced90616690565b60405180910390fd5b60026003811115610d0a57610d096166ae565b5b600860039054906101000a900460ff166003811115610d2c57610d2b6166ae565b5b14610d6c576040517f08c379a0000000000000000000000000000000000000000000000000000000008152600401610d6390616725565b60405180910390fd5b60018451148015610d7e575060018351145b8015610d8b575060018251145b610dca576040517f08c379a0000000000000000000000000000000000000000000000000000000008152600401610dc19061678d565b60405180910390fd5b60025f9054906101000a900473ffffffffffffffffffffffffffffffffffffffff1673ffffffffffffffffffffffffffffffffffffffff16845f81518110610e1557610e146167ab565b5b602002602001015173ffffffffffffffffffffffffffffffffffffffff1614610e73576040517f08c379a0000000000000000000000000000000000000000000000000000000008152600401610e6a90616822565b60405180910390fd5b610eb1835f81518110610e8957610e886167ab565b5b6020026020010151835f81518110610ea457610ea36167ab565b5b60200260200101516125dd565b610f3060025f9054906101000a900473ffffffffffffffffffffffffffffffffffffffff1673ba12222222228d8ba445958a75a0704d566bf2c8845f81518110610efe57610efd6167ab565b5b6020026020010151865f81518110610f1957610f186167ab565b5b6020026020010151610f2b919061686d565b612a70565b50505050565b60025f9054906101000a900473ffffffffffffffffffffffffffffffffffffffff1681565b5f5f73ffffffffffffffffffffffffffffffffffffffff168373ffffffffffffffffffffffffffffffffffffffff1603610f97575f90506110ab565b5f5f8473ffffffffffffffffffffffffffffffffffffffff166370a0823160e01b85604051602401610fc99190615d2e565b604051602081830303815290604052907bffffffffffffffffffffffffffffffffffffffffffffffffffffffff19166020820180517bffffffffffffffffffffffffffffffffffffffffffffffffffffffff838183161783525050505060405161103391906168e4565b5f60405180830381855afa9150503d805f811461106b576040519150601f19603f3d011682016040523d82523d5f602084013e611070565b606091505b5091509150811580611083575060208151105b15611092575f925050506110ab565b808060200190518101906110a6919061690e565b925050505b92915050565b5f5f5f5f6110bd612af6565b90505f8151036110d6575f5f5f9350935093505061147e565b5f60405180610100016040528060018152602001600981526020016001815260200160018152602001600181526020016001815260200160018152602001600181525090505f60405180610100016040528060018152602001600a81526020016002815260200160048152602001600a81526020016014815260200160328152602001606481525090505f5f90505b6002811015611470575f5f821490505f5f90505b8551811015611463575f868281518110611196576111956167ab565b5b602002602001015190505f73ffffffffffffffffffffffffffffffffffffffff168173ffffffffffffffffffffffffffffffffffffffff161480611219575073b0f8fe96b4880adbdede0ddf446bd1e7ef122c4e73ffffffffffffffffffffffffffffffffffffffff168173ffffffffffffffffffffffffffffffffffffffff16145b156112245750611458565b5f61122e82612cb6565b90505f73ffffffffffffffffffffffffffffffffffffffff168173ffffffffffffffffffffffffffffffffffffffff160361126a575050611458565b83156112d05760025f9054906101000a900473ffffffffffffffffffffffffffffffffffffffff1673ffffffffffffffffffffffffffffffffffffffff168173ffffffffffffffffffffffffffffffffffffffff16036112cb575050611458565b61132c565b60025f9054906101000a900473ffffffffffffffffffffffffffffffffffffffff1673ffffffffffffffffffffffffffffffffffffffff168173ffffffffffffffffffffffffffffffffffffffff161461132b575050611458565b5b5f6113368361302c565b90505f810361134757505050611458565b5f60025f9054906101000a900473ffffffffffffffffffffffffffffffffffffffff1673ffffffffffffffffffffffffffffffffffffffff168373ffffffffffffffffffffffffffffffffffffffff16146113ab576113a68330610f5b565b6113af565b600a545b90505f5f90505b6008811015611452575f8982600881106113d3576113d26167ab565b5b60200201518b83600881106113eb576113ea6167ab565b5b6020020151856113fb9190616939565b61140591906169a7565b90505f81036114145750611447565b61141e868261313b565b156114455782600981905550600186869e509e509e5050505050505050505050505061147e565b505b8060010190506113b6565b50505050505b806001019050611179565b5050806001019050611165565b505f5f5f9550955095505050505b909192565b600b5f9054906101000a900473ffffffffffffffffffffffffffffffffffffffff1673ffffffffffffffffffffffffffffffffffffffff163373ffffffffffffffffffffffffffffffffffffffff1614611512576040517f08c379a000000000000000000000000000000000000000000000000000000000815260040161150990616a21565b60405180910390fd5b600380811115611525576115246166ae565b5b600860039054906101000a900460ff166003811115611547576115466166ae565b5b14611587576040517f08c379a000000000000000000000000000000000000000000000000000000000815260040161157e90616a89565b60405180910390fd5b3073ffffffffffffffffffffffffffffffffffffffff168373ffffffffffffffffffffffffffffffffffffffff16146115f5576040517f08c379a00000000000000000000000000000000000000000000000000000000081526004016115ec90616af1565b60405180910390fd5b5f600b60149054906101000a900460ff166116105781611612565b825b9050600c548114611658576040517f08c379a000000000000000000000000000000000000000000000000000000000815260040161164f90616b59565b60405180910390fd5b61166f8182600d5461166a9190616b77565b6125dd565b600d5461169d60025f9054906101000a900473ffffffffffffffffffffffffffffffffffffffff1630610f5b565b10156116de576040517f08c379a00000000000000000000000000000000000000000000000000000000081526004016116d590616bf4565b60405180910390fd5b61172d60025f9054906101000a900473ffffffffffffffffffffffffffffffffffffffff16600b5f9054906101000a900473ffffffffffffffffffffffffffffffffffffffff16600d54612a70565b50505050565b61175073b0f8fe96b4880adbdede0ddf446bd1e7ef122c4e612cb6565b60025f6101000a81548173ffffffffffffffffffffffffffffffffffffffff021916908373ffffffffffffffffffffffffffffffffffffffff1602179055506117ac73b0f8fe96b4880adbdede0ddf446bd1e7ef122c4e6131d3565b60035f6101000a81548173ffffffffffffffffffffffffffffffffffffffff021916908373ffffffffffffffffffffffffffffffffffffffff160217905550565b5f731820a4b7618bde71dce8cdc73aab6c95905fad2473ffffffffffffffffffffffffffffffffffffffff166329965a1d60e01b307fb281fc8c12954d22544db45de3159a39272895b169a852b314f9cc762e44c53b3060405160240161185693929190616c2a565b604051602081830303815290604052907bffffffffffffffffffffffffffffffffffffffffffffffffffffffff19166020820180517bffffffffffffffffffffffffffffffffffffffffffffffffffffffff83818316178352505050506040516118c091906168e4565b5f604051808303815f865af19150503d805f81146118f9576040519150601f19603f3d011682016040523d82523d5f602084013e6118fe565b606091505b5050905050565b5f81511461191e57806007908161191c9190616577565b505b50565b5f61192d600180613420565b61194a73b0f8fe96b4880adbdede0ddf446bd1e7ef122c4e6135a0565b6119775761196f60405180606001604052806024815260200161795360249139611905565b5f9050611c01565b5f61199673b0f8fe96b4880adbdede0ddf446bd1e7ef122c4e3061363f565b90505f81036119c9576119c060405180606001604052806024815260200161795360249139611905565b5f915050611c01565b5f6040518060c001604052806001815260200160098152602001600181526020016001815260200160018152602001600181525090505f6040518060c0016040528060018152602001600a81526020016002815260200160048152602001600a8152602001606481525090505f5f90505b6006811015611b6b575f828260068110611a5757611a566167ab565b5b6020020151848360068110611a6f57611a6e6167ab565b5b602002015186611a7f9190616939565b611a8991906169a7565b90505f8103611a985750611b60565b611aa061375a565b6001600860076101000a81548160ff0219169083151502179055505f611ada73b0f8fe96b4880adbdede0ddf446bd1e7ef122c4e836137c4565b90505f600860076101000a81548160ff02191690831515021790555080611b02575050611b60565b600860049054906101000a900460ff168015611b2a5750600860069054906101000a900460ff165b15611b5d57611b50604051806080016040528060598152602001617a6f6059913961385c565b9650505050505050611c01565b50505b806001019050611a3a565b50611bfa600860049054906101000a900460ff16611bbe576040518060400160405280601b81526020017f52454445454d5f5452414e534645525f4e4f5f43414c4c4241434b0000000000815250611bf5565b6040518060400160405280601d81526020017f52454445454d5f43414c4c4241434b5f424f52524f575f4641494c45440000008152505b611905565b5f93505050505b90565b5f611c1160026001613420565b611c2e73b0f8fe96b4880adbdede0ddf446bd1e7ef122c4e6135a0565b611c5b57611c536040518060600160405280602481526020016179df60249139611905565b5f9050611d22565b611c63613a72565b15611c9057611c896040518060800160405280605b81526020016178f8605b913961385c565b9050611d22565b611d1e600860049054906101000a900460ff16611ce2576040518060400160405280601b81526020017f424f52524f575f5452414e534645525f4e4f5f43414c4c4241434b0000000000815250611d19565b6040518060400160405280601d81526020017f424f52524f575f43414c4c4241434b5f424f52524f575f4641494c45440000008152505b611905565b5f90505b90565b5f5f611d2f612af6565b90505f815103611d8057611d776040518060400160405280600a81526020017f4e4f5f4d41524b45545300000000000000000000000000000000000000000000815250611905565b5f915050611f28565b5f5f90505b8151811015611e94575f828281518110611da257611da16167ab565b5b602002602001015190505f73ffffffffffffffffffffffffffffffffffffffff168173ffffffffffffffffffffffffffffffffffffffff161480611e25575073b0f8fe96b4880adbdede0ddf446bd1e7ef122c4e73ffffffffffffffffffffffffffffffffffffffff168173ffffffffffffffffffffffffffffffffffffffff16145b15611e305750611e89565b611e3c60026001613420565b611e45816135a0565b611e4f5750611e89565b611e57613a72565b15611e8757611e7d6040518060800160405280605b81526020016178f8605b913961385c565b9350505050611f28565b505b806001019050611d85565b50611f23600860049054906101000a900460ff16611ee7576040518060400160405280601b81526020017f424f52524f575f5452414e534645525f4e4f5f43414c4c4241434b0000000000815250611f1e565b6040518060400160405280601d81526020017f424f52524f575f43414c4c4241434b5f424f52524f575f4641494c45440000008152505b611905565b5f9150505b90565b5f5f611f35613c4f565b90505f73ffffffffffffffffffffffffffffffffffffffff16815f015173ffffffffffffffffffffffffffffffffffffffff161480611f7757505f8160400151145b1561202b5761202260016002811115611f9357611f926166ae565b5b846002811115611fa657611fa56166ae565b5b14611fe6576040518060400160405280601c81526020017f4e4f5f56325f464c4153485f524f5554455f464f525f424f52524f570000000081525061201d565b6040518060400160405280601c81526020017f4e4f5f56325f464c4153485f524f5554455f464f525f52454445454d000000008152505b611905565b5f91505061228b565b5f6040518061010001604052806002815260200160048152602001600a815260200160148152602001603281526020016064815260200160c881526020016103e881525090505f5f90505b60088110156121de575f828260088110612093576120926167ab565b5b602002015184604001516120a791906169a7565b90505f8114806120bb575083604001518110155b156120c657506121d3565b6120d1866003613420565b835f0151600b5f6101000a81548173ffffffffffffffffffffffffffffffffffffffff021916908373ffffffffffffffffffffffffffffffffffffffff1602179055508360200151600b60146101000a81548160ff02191690831515021790555080600c8190555061214281614095565b600d819055506121506140c4565b156121d1575f6001600281111561216a576121696166ae565b5b87600281111561217d5761217c6166ae565b5b146121a0576040518060a00160405280606c8152602001617a03606c91396121ba565b6040518060a00160405280606a8152602001617ac8606a91395b90506121c58161385c565b9550505050505061228b565b505b806001019050612076565b50612285600160028111156121f6576121f56166ae565b5b856002811115612209576122086166ae565b5b14612249576040518060400160405280601681526020017f56325f464c4153485f424f52524f575f4641494c454400000000000000000000815250612280565b6040518060400160405280601681526020017f56325f464c4153485f52454445454d5f4641494c4544000000000000000000008152505b611905565b5f925050505b919050565b5f5f6122d160025f9054906101000a900473ffffffffffffffffffffffffffffffffffffffff1673ba12222222228d8ba445958a75a0704d566bf2c8610f5b565b90505f8103612321576123186040518060400160405280602081526020017f4e4f5f42414c414e4345525f4c49515549444954595f464f525f52454445454d815250611905565b5f915050612434565b5f6040518061010001604052806002815260200160048152602001600a815260200160148152602001603281526020016064815260200160c881526020016103e881525090505f5f90505b600881101561242d575f828260088110612389576123886167ab565b5b60200201518461239991906169a7565b90505f81036123a85750612422565b6123b460016002613420565b6123bd816141cb565b6123c75750612422565b600860049054906101000a900460ff1680156123ef5750600860069054906101000a900460ff165b15612420576124156040518060a00160405280606681526020016178926066913961385c565b945050505050612434565b505b80600101905061236c565b505f925050505b90565b5f5f61247860025f9054906101000a900473ffffffffffffffffffffffffffffffffffffffff1673ba12222222228d8ba445958a75a0704d566bf2c8610f5b565b90505f81036124c8576124bf6040518060400160405280602081526020017f4e4f5f42414c414e4345525f4c49515549444954595f464f525f424f52524f57815250611905565b5f9150506125da565b5f6040518061010001604052806002815260200160048152602001600a815260200160148152602001603281526020016064815260200160c881526020016103e881525090505f5f90505b60088110156125d3575f8282600881106125305761252f6167ab565b5b60200201518461254091906169a7565b90505f810361254f57506125c8565b61255a600280613420565b612563816141cb565b61256d57506125c8565b600860049054906101000a900460ff1680156125955750600860069054906101000a900460ff165b156125c6576125bb6040518060a00160405280606881526020016179776068913961385c565b9450505050506125da565b505b806001019050612513565b505f925050505b90565b6125fd73b0f8fe96b4880adbdede0ddf446bd1e7ef122c4e83600161443d565b61263c576040517f08c379a000000000000000000000000000000000000000000000000000000000815260040161263390616ca9565b60405180910390fd5b600160028111156126505761264f6166ae565b5b600860029054906101000a900460ff166002811115612672576126716166ae565b5b03612895575f61269673b0f8fe96b4880adbdede0ddf446bd1e7ef122c4e3061363f565b90505f81036126da576040517f08c379a00000000000000000000000000000000000000000000000000000000081526004016126d190616d11565b60405180910390fd5b6126e261375a565b6001600860076101000a81548160ff0219169083151502179055505f61271c73b0f8fe96b4880adbdede0ddf446bd1e7ef122c4e836137c4565b90505f600860076101000a81548160ff02191690831515021790555080612778576040517f08c379a000000000000000000000000000000000000000000000000000000000815260040161276f90616d79565b60405180910390fd5b600860049054906101000a900460ff166127c7576040517f08c379a00000000000000000000000000000000000000000000000000000000081526004016127be90616de1565b60405180910390fd5b600860069054906101000a900460ff16612816576040517f08c379a000000000000000000000000000000000000000000000000000000000815260040161280d90616e49565b60405180910390fd5b8284612822919061686d565b61284d60025f9054906101000a900473ffffffffffffffffffffffffffffffffffffffff1630610f5b565b101561288e576040517f08c379a000000000000000000000000000000000000000000000000000000000815260040161288590616eb1565b60405180910390fd5b5050612a6c565b6002808111156128a8576128a76166ae565b5b600860029054906101000a900460ff1660028111156128ca576128c96166ae565b5b03612a31576128d7613a72565b612916576040517f08c379a000000000000000000000000000000000000000000000000000000000815260040161290d90616f19565b60405180910390fd5b600860049054906101000a900460ff16612965576040517f08c379a000000000000000000000000000000000000000000000000000000000815260040161295c90616f81565b60405180910390fd5b600860069054906101000a900460ff166129b4576040517f08c379a00000000000000000000000000000000000000000000000000000000081526004016129ab90616fe9565b60405180910390fd5b80826129c0919061686d565b6129eb60025f9054906101000a900473ffffffffffffffffffffffffffffffffffffffff1630610f5b565b1015612a2c576040517f08c379a0000000000000000000000000000000000000000000000000000000008152600401612a2390616eb1565b60405180910390fd5b612a6c565b6040517f08c379a0000000000000000000000000000000000000000000000000000000008152600401612a6390617051565b60405180910390fd5b5050565b612af18363a9059cbb60e01b8484604051602401612a8f92919061706f565b604051602081830303815290604052907bffffffffffffffffffffffffffffffffffffffffffffffffffffffff19166020820180517bffffffffffffffffffffffffffffffffffffffffffffffffffffffff8381831617835250505050614600565b505050565b60605f612b0161470d565b90505f612b0c614927565b90505f82518251612b1d919061686d565b67ffffffffffffffff811115612b3657612b35615ffe565b5b604051908082528060200260200182016040528015612b645781602001602082028036833780820191505090505b5093505f5f90505b8251811015612c09575f838281518110612b8957612b886167ab565b5b60200260200101519050612b9e868483614b03565b612bfd5780868481518110612bb657612bb56167ab565b5b602002602001019073ffffffffffffffffffffffffffffffffffffffff16908173ffffffffffffffffffffffffffffffffffffffff168152505082612bfa90617096565b92505b50806001019050612b6c565b505f5f90505b8351811015612cac575f848281518110612c2c57612c2b6167ab565b5b60200260200101519050612c41868483614b03565b612ca05780868481518110612c5957612c586167ab565b5b602002602001019073ffffffffffffffffffffffffffffffffffffffff16908173ffffffffffffffffffffffffffffffffffffffff168152505082612c9d90617096565b92505b50806001019050612c0f565b5080845250505090565b5f5f73ffffffffffffffffffffffffffffffffffffffff168273ffffffffffffffffffffffffffffffffffffffff1603612cf2575f9050613027565b73b0f8fe96b4880adbdede0ddf446bd1e7ef122c4e73ffffffffffffffffffffffffffffffffffffffff168273ffffffffffffffffffffffffffffffffffffffff1603612d5557735ee08f40b637417bcc9d2c51b62f4820ec9cf5d89050613027565b73e853e5c1edf8c51e81bae81d742dd861df596de773ffffffffffffffffffffffffffffffffffffffff168273ffffffffffffffffffffffffffffffffffffffff1603612db85773f4edfad26ee0d23b69ca93112ecce52704e0006f9050613027565b73f7548a6e9daf2e4689cedd8a08189d0d6f3ee91b73ffffffffffffffffffffffffffffffffffffffff168273ffffffffffffffffffffffffffffffffffffffff1603612e1b5773a1e3f062ce5825c1e19207cd93cefdad82a8a6319050613027565b5f636f307dc360e01b604051602401604051602081830303815290604052907bffffffffffffffffffffffffffffffffffffffffffffffffffffffff19166020820180517bffffffffffffffffffffffffffffffffffffffffffffffffffffffff838183161783525050505090505f73104079a87ce46fe2cf27b811f6b406b69f6872b373ffffffffffffffffffffffffffffffffffffffff168473ffffffffffffffffffffffffffffffffffffffff1614612eda5762013880612edf565b6207a1205b90505f5f8573ffffffffffffffffffffffffffffffffffffffff168385604051612f0991906168e4565b5f604051808303818686fa925050503d805f8114612f42576040519150601f19603f3d011682016040523d82523d5f602084013e612f47565b606091505b5091509150818015612f5b57506020815110155b15612f7f5780806020019051810190612f749190617118565b945050505050613027565b8573ffffffffffffffffffffffffffffffffffffffff168385604051612fa591906168e4565b5f604051808303815f8787f1925050503d805f8114612fdf576040519150601f19603f3d011682016040523d82523d5f602084013e612fe4565b606091505b508092508193505050811580612ffb575060208151105b1561300c575f945050505050613027565b808060200190518101906130209190617118565b9450505050505b919050565b5f5f5f8373ffffffffffffffffffffffffffffffffffffffff16633b1d21a260e01b604051602401604051602081830303815290604052907bffffffffffffffffffffffffffffffffffffffffffffffffffffffff19166020820180517bffffffffffffffffffffffffffffffffffffffffffffffffffffffff83818316178352505050506040516130be91906168e4565b5f60405180830381855afa9150503d805f81146130f6576040519150601f19603f3d011682016040523d82523d5f602084013e6130fb565b606091505b509150915081158061310e575060208151105b1561311d575f92505050613136565b80806020019051810190613131919061690e565b925050505b919050565b5f5f820361314b575f90506131cd565b6131ca8363c5ebeaec60e01b846040516024016131689190615e0d565b604051602081830303815290604052907bffffffffffffffffffffffffffffffffffffffffffffffffffffffff19166020820180517bffffffffffffffffffffffffffffffffffffffffffffffffffffffff8381831617835250505050614bbb565b90505b92915050565b5f5f73ffffffffffffffffffffffffffffffffffffffff168273ffffffffffffffffffffffffffffffffffffffff160361320f575f905061341b565b5f635fe3b56760e01b604051602401604051602081830303815290604052907bffffffffffffffffffffffffffffffffffffffffffffffffffffffff19166020820180517bffffffffffffffffffffffffffffffffffffffffffffffffffffffff838183161783525050505090505f73104079a87ce46fe2cf27b811f6b406b69f6872b373ffffffffffffffffffffffffffffffffffffffff168473ffffffffffffffffffffffffffffffffffffffff16146132ce57620138806132d3565b6207a1205b90505f5f8573ffffffffffffffffffffffffffffffffffffffff1683856040516132fd91906168e4565b5f604051808303818686fa925050503d805f8114613336576040519150601f19603f3d011682016040523d82523d5f602084013e61333b565b606091505b509150915081801561334f57506020815110155b1561337357808060200190518101906133689190617118565b94505050505061341b565b8573ffffffffffffffffffffffffffffffffffffffff16838560405161339991906168e4565b5f604051808303815f8787f1925050503d805f81146133d3576040519150601f19603f3d011682016040523d82523d5f602084013e6133d8565b606091505b5080925081935050508115806133ef575060208151105b15613400575f94505050505061341b565b808060200190518101906134149190617118565b9450505050505b919050565b81600860026101000a81548160ff02191690836002811115613445576134446166ae565b5b021790555080600860036101000a81548160ff0219169083600381111561346f5761346e6166ae565b5b02179055505f60045f6101000a81548173ffffffffffffffffffffffffffffffffffffffff021916908373ffffffffffffffffffffffffffffffffffffffff1602179055505f60055f6101000a81548173ffffffffffffffffffffffffffffffffffffffff021916908373ffffffffffffffffffffffffffffffffffffffff1602179055505f60098190555061352660025f9054906101000a900473ffffffffffffffffffffffffffffffffffffffff1630610f5b565b600a819055505f600b5f6101000a81548173ffffffffffffffffffffffffffffffffffffffff021916908373ffffffffffffffffffffffffffffffffffffffff1602179055505f600b60146101000a81548160ff0219169083151502179055505f600c819055505f600d8190555061359c61375a565b5050565b5f5f6135ab83612cb6565b90505f73ffffffffffffffffffffffffffffffffffffffff168173ffffffffffffffffffffffffffffffffffffffff16036135e9575f91505061363a565b5f6135f48230610f5b565b90505f811415801561360f575061360d8482600161443d565b155b1561361e575f9250505061363a565b61362784614c7d565b505f613633853061363f565b1415925050505b919050565b5f5f5f8473ffffffffffffffffffffffffffffffffffffffff166370a0823160e01b856040516024016136729190615d2e565b604051602081830303815290604052907bffffffffffffffffffffffffffffffffffffffffffffffffffffffff19166020820180517bffffffffffffffffffffffffffffffffffffffffffffffffffffffff83818316178352505050506040516136dc91906168e4565b5f60405180830381855afa9150503d805f8114613714576040519150601f19603f3d011682016040523d82523d5f602084013e613719565b606091505b509150915081158061372c575060208151105b1561373b575f92505050613754565b8080602001905181019061374f919061690e565b925050505b92915050565b5f600860046101000a81548160ff0219169083151502179055505f600860056101000a81548160ff0219169083151502179055505f600860066101000a81548160ff0219169083151502179055505f600860076101000a81548160ff021916908315150217905550565b5f5f82036137d4575f9050613856565b6138538363db006a7560e01b846040516024016137f19190615e0d565b604051602081830303815290604052907bffffffffffffffffffffffffffffffffffffffffffffffffffffffff19166020820180517bffffffffffffffffffffffffffffffffffffffffffffffffffffffff8381831617835250505050614bbb565b90505b92915050565b5f5f73ffffffffffffffffffffffffffffffffffffffff1660055f9054906101000a900473ffffffffffffffffffffffffffffffffffffffff1673ffffffffffffffffffffffffffffffffffffffff16036138f7576138ef6040518060400160405280600f81526020017f4e4f5f56494354494d5f544f4b454e0000000000000000000000000000000000815250611905565b5f9050613a6d565b5f61392360055f9054906101000a900473ffffffffffffffffffffffffffffffffffffffff1630610f5b565b905060095481116139755761396c6040518060400160405280601281526020017f4e4f5f5245414c495a45445f50524f4649540000000000000000000000000000815250611905565b5f915050613a6d565b60055f9054906101000a900473ffffffffffffffffffffffffffffffffffffffff165f5f6101000a81548173ffffffffffffffffffffffffffffffffffffffff021916908373ffffffffffffffffffffffffffffffffffffffff160217905550600954816139e39190616b77565b60018190555082600690816139f89190616577565b50600160085f6101000a81548160ff0219169083151502179055505f600860026101000a81548160ff02191690836002811115613a3857613a376166ae565b5b02179055505f600860036101000a81548160ff02191690836003811115613a6257613a616166ae565b5b021790555060019150505b919050565b5f5f613a9173b0f8fe96b4880adbdede0ddf446bd1e7ef122c4e61302c565b90505f8103613aa3575f915050613c4c565b5f60405180610100016040528060018152602001600981526020016001815260200160018152602001600181526020016001815260200160018152602001600181525090505f60405180610100016040528060018152602001600a81526020016002815260200160048152602001600a81526020016014815260200160328152602001606481525090505f5f90505b6008811015613c44575f828260088110613b4f57613b4e6167ab565b5b6020020151848360088110613b6757613b666167ab565b5b602002015186613b779190616939565b613b8191906169a7565b90505f8103613b905750613c39565b613b9861375a565b6001600860076101000a81548160ff0219169083151502179055505f613bd273b0f8fe96b4880adbdede0ddf446bd1e7ef122c4e8361313b565b90505f600860076101000a81548160ff02191690831515021790555080613bfa575050613c39565b600860049054906101000a900460ff168015613c225750600860069054906101000a900460ff165b15613c365760019650505050505050613c4c565b50505b806001019050613b32565b505f93505050505b90565b613c57615b20565b5f6040518060400160405280735c69bee701ef814a2b6a3edd4b1652cb9cc5aa6f73ffffffffffffffffffffffffffffffffffffffff1673ffffffffffffffffffffffffffffffffffffffff16815260200173c0aee478e3658e2610c5f7a4a2e1777ce9e4f2ac73ffffffffffffffffffffffffffffffffffffffff1673ffffffffffffffffffffffffffffffffffffffff1681525090505f6040518060a0016040528073c02aaa39b223fe8d0a0e5c4f27ead9083c756cc273ffffffffffffffffffffffffffffffffffffffff1673ffffffffffffffffffffffffffffffffffffffff16815260200173a0b86991c6218b36c1d19d4a2e9eb0ce3606eb4873ffffffffffffffffffffffffffffffffffffffff1673ffffffffffffffffffffffffffffffffffffffff16815260200173dac17f958d2ee523a2206206994597c13d831ec773ffffffffffffffffffffffffffffffffffffffff1673ffffffffffffffffffffffffffffffffffffffff168152602001736b175474e89094c44da98b954eedeac495271d0f73ffffffffffffffffffffffffffffffffffffffff1673ffffffffffffffffffffffffffffffffffffffff168152602001732260fac5e5542a773aa44fbcfedf7c193bc2c59973ffffffffffffffffffffffffffffffffffffffff1673ffffffffffffffffffffffffffffffffffffffff1681525090505f5f90505b600281101561408f575f5f90505b6005811015613f8d575f613ed0858460028110613e8c57613e8b6167ab565b5b602002015160025f9054906101000a900473ffffffffffffffffffffffffffffffffffffffff16868560058110613ec657613ec56167ab565b5b602002015161501a565b90505f73ffffffffffffffffffffffffffffffffffffffff168173ffffffffffffffffffffffffffffffffffffffff1603613f0b5750613f82565b5f5f613f388360025f9054906101000a900473ffffffffffffffffffffffffffffffffffffffff1661542d565b915091508760400151811115613f7e5760405180606001604052808473ffffffffffffffffffffffffffffffffffffffff16815260200183151581526020018281525097505b5050505b806001019050613e6c565b505f613fd2848360028110613fa557613fa46167ab565b5b602002015160025f9054906101000a900473ffffffffffffffffffffffffffffffffffffffff165f61501a565b90505f73ffffffffffffffffffffffffffffffffffffffff168173ffffffffffffffffffffffffffffffffffffffff160361400d5750614084565b5f5f61403a8360025f9054906101000a900473ffffffffffffffffffffffffffffffffffffffff1661542d565b9150915086604001518111156140805760405180606001604052808473ffffffffffffffffffffffffffffffffffffffff16815260200183151581526020018281525096505b5050505b806001019050613e5e565b50505090565b5f60016103e56103e8846140a99190616939565b6140b391906169a7565b6140bd919061686d565b9050919050565b5f5f600b60149054906101000a900460ff166140e0575f6140e4565b600c545b90505f600b60149054906101000a900460ff1661410357600c54614105565b5f5b9050600b5f9054906101000a900473ffffffffffffffffffffffffffffffffffffffff1673ffffffffffffffffffffffffffffffffffffffff1663022c0d9f8383306040518463ffffffff1660e01b81526004016141659392919061719d565b5f604051808303815f87803b15801561417c575f5ffd5b505af192505050801561418d575060015b61419b575f925050506141c8565b600860049054906101000a900460ff1680156141c35750600860069054906101000a900460ff165b925050505b90565b5f5f600167ffffffffffffffff8111156141e8576141e7615ffe565b5b6040519080825280602002602001820160405280156142165781602001602082028036833780820191505090505b50905060025f9054906101000a900473ffffffffffffffffffffffffffffffffffffffff16815f8151811061424e5761424d6167ab565b5b602002602001019073ffffffffffffffffffffffffffffffffffffffff16908173ffffffffffffffffffffffffffffffffffffffff16815250505f600167ffffffffffffffff8111156142a4576142a3615ffe565b5b6040519080825280602002602001820160405280156142d25781602001602082028036833780820191505090505b50905083815f815181106142e9576142e86167ab565b5b60200260200101818152505073ba12222222228d8ba445958a75a0704d566bf2c873ffffffffffffffffffffffffffffffffffffffff16635c38449e3084846040518463ffffffff1660e01b815260040161434693929190617376565b5f604051808303815f87803b15801561435d575f5ffd5b505af192505050801561436e575060015b6144315761442760016002811115614389576143886166ae565b5b600860029054906101000a900460ff1660028111156143ab576143aa6166ae565b5b146143eb576040518060400160405280601c81526020017f42414c414e4345525f424f52524f575f464c4153485f4641494c454400000000815250614422565b6040518060400160405280601c81526020017f42414c414e4345525f52454445454d5f464c4153485f4641494c4544000000008152505b611905565b5f92505050614438565b6001925050505b919050565b5f5f61444885612cb6565b90505f73ffffffffffffffffffffffffffffffffffffffff168173ffffffffffffffffffffffffffffffffffffffff16148061448357505f84145b15614491575f9150506145f9565b61449c818686615846565b5f614537867f67f68fac706e821dcecf77a5a75f2703342affb0da7581b1eec13a873ef18d9c87876040516024016144d59291906173cc565b604051602081830303815290604052907bffffffffffffffffffffffffffffffffffffffffffffffffffffffff19166020820180517bffffffffffffffffffffffffffffffffffffffffffffffffffffffff8381831617835250505050614bbb565b9050806145d9576145d6867fa0712d680358d64f694230b7cc0b277c73686bdf768385d55cd7c547d0ffd30e876040516024016145749190615e0d565b604051602081830303815290604052907bffffffffffffffffffffffffffffffffffffffffffffffffffffffff19166020820180517bffffffffffffffffffffffffffffffffffffffffffffffffffffffff8381831617835250505050614bbb565b90505b806145e8575f925050506145f9565b6145f186614c7d565b506001925050505b9392505050565b5f5f8373ffffffffffffffffffffffffffffffffffffffff168360405161462791906168e4565b5f604051808303815f865af19150503d805f8114614660576040519150601f19603f3d011682016040523d82523d5f602084013e614665565b606091505b5091509150816146aa576040517f08c379a00000000000000000000000000000000000000000000000000000000081526004016146a19061743d565b60405180910390fd5b5f8151111561470757808060200190518101906146c79190617485565b614706576040517f08c379a00000000000000000000000000000000000000000000000000000000081526004016146fd906174fa565b60405180910390fd5b5b50505050565b60605f73ffffffffffffffffffffffffffffffffffffffff1660035f9054906101000a900473ffffffffffffffffffffffffffffffffffffffff1673ffffffffffffffffffffffffffffffffffffffff16036147b3575f67ffffffffffffffff81111561477d5761477c615ffe565b5b6040519080825280602002602001820160405280156147ab5781602001602082028036833780820191505090505b509050614924565b5f5f60035f9054906101000a900473ffffffffffffffffffffffffffffffffffffffff1673ffffffffffffffffffffffffffffffffffffffff1663b0772d0b60e01b604051602401604051602081830303815290604052907bffffffffffffffffffffffffffffffffffffffffffffffffffffffff19166020820180517bffffffffffffffffffffffffffffffffffffffffffffffffffffffff838183161783525050505060405161486591906168e4565b5f60405180830381855afa9150503d805f811461489d576040519150601f19603f3d011682016040523d82523d5f602084013e6148a2565b606091505b50915091508115806148b457505f8151145b1561490b575f67ffffffffffffffff8111156148d3576148d2615ffe565b5b6040519080825280602002602001820160405280156149015781602001602082028036833780820191505090505b5092505050614924565b8080602001905181019061491f91906175c1565b925050505b90565b6060600467ffffffffffffffff81111561494457614943615ffe565b5b6040519080825280602002602001820160405280156149725781602001602082028036833780820191505090505b50905073e853e5c1edf8c51e81bae81d742dd861df596de7815f8151811061499d5761499c6167ab565b5b602002602001019073ffffffffffffffffffffffffffffffffffffffff16908173ffffffffffffffffffffffffffffffffffffffff168152505073f7548a6e9daf2e4689cedd8a08189d0d6f3ee91b81600181518110614a00576149ff6167ab565b5b602002602001019073ffffffffffffffffffffffffffffffffffffffff16908173ffffffffffffffffffffffffffffffffffffffff168152505073104079a87ce46fe2cf27b811f6b406b69f6872b381600281518110614a6357614a626167ab565b5b602002602001019073ffffffffffffffffffffffffffffffffffffffff16908173ffffffffffffffffffffffffffffffffffffffff168152505073b0f8fe96b4880adbdede0ddf446bd1e7ef122c4e81600381518110614ac657614ac56167ab565b5b602002602001019073ffffffffffffffffffffffffffffffffffffffff16908173ffffffffffffffffffffffffffffffffffffffff168152505090565b5f5f73ffffffffffffffffffffffffffffffffffffffff168273ffffffffffffffffffffffffffffffffffffffff1603614b405760019050614bb4565b5f5f90505b83811015614baf578273ffffffffffffffffffffffffffffffffffffffff16858281518110614b7757614b766167ab565b5b602002602001015173ffffffffffffffffffffffffffffffffffffffff1603614ba4576001915050614bb4565b806001019050614b45565b505f90505b9392505050565b5f5f5f8473ffffffffffffffffffffffffffffffffffffffff1684604051614be391906168e4565b5f604051808303815f865af19150503d805f8114614c1c576040519150601f19603f3d011682016040523d82523d5f602084013e614c21565b606091505b509150915081614c35575f92505050614c77565b5f815103614c4857600192505050614c77565b602081511015614c5c575f92505050614c77565b5f81806020019051810190614c71919061690e565b14925050505b92915050565b5f5f73ffffffffffffffffffffffffffffffffffffffff168273ffffffffffffffffffffffffffffffffffffffff1603614cb9575f9050615015565b5f614cc3836131d3565b90505f73ffffffffffffffffffffffffffffffffffffffff168173ffffffffffffffffffffffffffffffffffffffff1603614d1d5760035f9054906101000a900473ffffffffffffffffffffffffffffffffffffffff1690505b5f73ffffffffffffffffffffffffffffffffffffffff168173ffffffffffffffffffffffffffffffffffffffff1603614d59575f915050615015565b5f600167ffffffffffffffff811115614d7557614d74615ffe565b5b604051908082528060200260200182016040528015614da35781602001602082028036833780820191505090505b50905083815f81518110614dba57614db96167ab565b5b602002602001019073ffffffffffffffffffffffffffffffffffffffff16908173ffffffffffffffffffffffffffffffffffffffff16815250505f5f8373ffffffffffffffffffffffffffffffffffffffff167feffd86f59f16e35423b6289626b77440b336e2c60a6fcec8ff448b469dceb0478430604051602401614e41929190617608565b604051602081830303815290604052907bffffffffffffffffffffffffffffffffffffffffffffffffffffffff19166020820180517bffffffffffffffffffffffffffffffffffffffffffffffffffffffff8381831617835250505050604051614eab91906168e4565b5f604051808303815f865af19150503d805f8114614ee4576040519150601f19603f3d011682016040523d82523d5f602084013e614ee9565b606091505b5091509150614ef88282615a8c565b15614f0a576001945050505050615015565b8373ffffffffffffffffffffffffffffffffffffffff167fc29982380c017a6d4d2a7aedfdf859283fa821ce298570871e53efc3420d631384604051602401614f539190617636565b604051602081830303815290604052907bffffffffffffffffffffffffffffffffffffffffffffffffffffffff19166020820180517bffffffffffffffffffffffffffffffffffffffffffffffffffffffff8381831617835250505050604051614fbd91906168e4565b5f604051808303815f865af19150503d805f8114614ff6576040519150601f19603f3d011682016040523d82523d5f602084013e614ffb565b606091505b50809250819350505061500e8282615a8c565b9450505050505b919050565b5f5f73ffffffffffffffffffffffffffffffffffffffff168473ffffffffffffffffffffffffffffffffffffffff16148061508057505f73ffffffffffffffffffffffffffffffffffffffff168373ffffffffffffffffffffffffffffffffffffffff16145b1561508d575f9050615426565b5f73ffffffffffffffffffffffffffffffffffffffff168273ffffffffffffffffffffffffffffffffffffffff161461520e575f5f8573ffffffffffffffffffffffffffffffffffffffff1663e6a4390560e01b86866040516024016150f4929190617656565b604051602081830303815290604052907bffffffffffffffffffffffffffffffffffffffffffffffffffffffff19166020820180517bffffffffffffffffffffffffffffffffffffffffffffffffffffffff838183161783525050505060405161515e91906168e4565b5f60405180830381855afa9150503d805f8114615196576040519150601f19603f3d011682016040523d82523d5f602084013e61519b565b606091505b50915091508180156151af57506020815110155b1561520b575f818060200190518101906151c99190617118565b90505f73ffffffffffffffffffffffffffffffffffffffff168173ffffffffffffffffffffffffffffffffffffffff161461520957809350505050615426565b505b50505b5f615217612af6565b90505f5f90505b8151811015615420575f61524b83838151811061523e5761523d6167ab565b5b6020026020010151612cb6565b90505f73ffffffffffffffffffffffffffffffffffffffff168173ffffffffffffffffffffffffffffffffffffffff1614806152b257508573ffffffffffffffffffffffffffffffffffffffff168173ffffffffffffffffffffffffffffffffffffffff16145b156152bd5750615415565b5f5f8873ffffffffffffffffffffffffffffffffffffffff1663e6a4390560e01b89856040516024016152f1929190617656565b604051602081830303815290604052907bffffffffffffffffffffffffffffffffffffffffffffffffffffffff19166020820180517bffffffffffffffffffffffffffffffffffffffffffffffffffffffff838183161783525050505060405161535b91906168e4565b5f60405180830381855afa9150503d805f8114615393576040519150601f19603f3d011682016040523d82523d5f602084013e615398565b606091505b50915091508115806153ab575060208151105b156153b857505050615415565b5f818060200190518101906153cd9190617118565b90505f73ffffffffffffffffffffffffffffffffffffffff168173ffffffffffffffffffffffffffffffffffffffff161461541057809650505050505050615426565b505050505b80600101905061521e565b505f9150505b9392505050565b5f5f5f73ffffffffffffffffffffffffffffffffffffffff168473ffffffffffffffffffffffffffffffffffffffff160361546d575f5f9150915061583f565b5f5f8573ffffffffffffffffffffffffffffffffffffffff16630dfe168160e01b604051602401604051602081830303815290604052907bffffffffffffffffffffffffffffffffffffffffffffffffffffffff19166020820180517bffffffffffffffffffffffffffffffffffffffffffffffffffffffff83818316178352505050506040516154fe91906168e4565b5f60405180830381855afa9150503d805f8114615536576040519150601f19603f3d011682016040523d82523d5f602084013e61553b565b606091505b50915091505f5f8773ffffffffffffffffffffffffffffffffffffffff1663d21220a760e01b604051602401604051602081830303815290604052907bffffffffffffffffffffffffffffffffffffffffffffffffffffffff19166020820180517bffffffffffffffffffffffffffffffffffffffffffffffffffffffff83818316178352505050506040516155d191906168e4565b5f60405180830381855afa9150503d805f8114615609576040519150601f19603f3d011682016040523d82523d5f602084013e61560e565b606091505b50915091505f5f8973ffffffffffffffffffffffffffffffffffffffff16630902f1ac60e01b604051602401604051602081830303815290604052907bffffffffffffffffffffffffffffffffffffffffffffffffffffffff19166020820180517bffffffffffffffffffffffffffffffffffffffffffffffffffffffff83818316178352505050506040516156a491906168e4565b5f60405180830381855afa9150503d805f81146156dc576040519150601f19603f3d011682016040523d82523d5f602084013e6156e1565b606091505b50915091508515806156f1575083155b806156fa575081155b80615706575060208551105b80615712575060208351105b8061571e575060608151105b15615734575f5f9750975050505050505061583f565b5f858060200190518101906157499190617118565b90505f848060200190518101906157609190617118565b90505f5f8480602001905181019061577891906176f9565b50915091508c73ffffffffffffffffffffffffffffffffffffffff168473ffffffffffffffffffffffffffffffffffffffff16036157d6576001826dffffffffffffffffffffffffffff169b509b505050505050505050505061583f565b8c73ffffffffffffffffffffffffffffffffffffffff168373ffffffffffffffffffffffffffffffffffffffff160361582e575f816dffffffffffffffffffffffffffff169b509b505050505050505050505061583f565b5f5f9b509b50505050505050505050505b9250929050565b5f5f5f8573ffffffffffffffffffffffffffffffffffffffff1663dd62ed3e60e01b308760405160240161587b929190617656565b604051602081830303815290604052907bffffffffffffffffffffffffffffffffffffffffffffffffffffffff19166020820180517bffffffffffffffffffffffffffffffffffffffffffffffffffffffff83818316178352505050506040516158e591906168e4565b5f60405180830381855afa9150503d805f811461591d576040519150601f19603f3d011682016040523d82523d5f602084013e615922565b606091505b509150915081801561593657506020815110155b15615952578080602001905181019061594f919061690e565b92505b83831061596157505050615a87565b6159e28663095ea7b360e01b875f60405160240161598092919061778e565b604051602081830303815290604052907bffffffffffffffffffffffffffffffffffffffffffffffffffffffff19166020820180517bffffffffffffffffffffffffffffffffffffffffffffffffffffffff8381831617835250505050614600565b615a838663095ea7b360e01b877fffffffffffffffffffffffffffffffffffffffffffffffffffffffffffffffff604051602401615a2192919061706f565b604051602081830303815290604052907bffffffffffffffffffffffffffffffffffffffffffffffffffffffff19166020820180517bffffffffffffffffffffffffffffffffffffffffffffffffffffffff8381831617835250505050614600565b5050505b505050565b5f821580615a9a57505f8251145b15615aa7575f9050615b1a565b5f82806020019051810190615abc919061784a565b90505f815103615acf575f915050615b1a565b5f5f90505b8151811015615b13575f828281518110615af157615af06167ab565b5b602002602001015114615b08575f92505050615b1a565b806001019050615ad4565b5060019150505b92915050565b60405180606001604052805f73ffffffffffffffffffffffffffffffffffffffff1681526020015f151581526020015f81525090565b5f604051905090565b5f5ffd5b5f5ffd5b5f73ffffffffffffffffffffffffffffffffffffffff82169050919050565b5f615b9082615b67565b9050919050565b615ba081615b86565b8114615baa575f5ffd5b50565b5f81359050615bbb81615b97565b92915050565b5f819050919050565b615bd381615bc1565b8114615bdd575f5ffd5b50565b5f81359050615bee81615bca565b92915050565b5f5ffd5b5f5ffd5b5f5ffd5b5f5f83601f840112615c1557615c14615bf4565b5b8235905067ffffffffffffffff811115615c3257615c31615bf8565b5b602083019150836001820283011115615c4e57615c4d615bfc565b5b9250929050565b5f5f5f5f5f5f5f5f60c0898b031215615c7157615c70615b5f565b5b5f615c7e8b828c01615bad565b9850506020615c8f8b828c01615bad565b9750506040615ca08b828c01615bad565b9650506060615cb18b828c01615be0565b955050608089013567ffffffffffffffff811115615cd257615cd1615b63565b5b615cde8b828c01615c00565b945094505060a089013567ffffffffffffffff811115615d0157615d00615b63565b5b615d0d8b828c01615c00565b92509250509295985092959890939650565b615d2881615b86565b82525050565b5f602082019050615d415f830184615d1f565b92915050565b5f5f5f5f5f60808688031215615d6057615d5f615b5f565b5b5f615d6d88828901615bad565b9550506020615d7e88828901615be0565b9450506040615d8f88828901615be0565b935050606086013567ffffffffffffffff811115615db057615daf615b63565b5b615dbc88828901615c00565b92509250509295509295909350565b5f8115159050919050565b615ddf81615dcb565b82525050565b5f602082019050615df85f830184615dd6565b92915050565b615e0781615bc1565b82525050565b5f602082019050615e205f830184615dfe565b92915050565b5f5f5f5f5f60808688031215615e3f57615e3e615b5f565b5b5f615e4c88828901615bad565b9550506020615e5d88828901615bad565b9450506040615e6e88828901615be0565b935050606086013567ffffffffffffffff811115615e8f57615e8e615b63565b5b615e9b88828901615c00565b92509250509295509295909350565b5f7fffffffff0000000000000000000000000000000000000000000000000000000082169050919050565b615ede81615eaa565b82525050565b5f602082019050615ef75f830184615ed5565b92915050565b5f5f5f5f60608587031215615f1557615f14615b5f565b5b5f615f2287828801615bad565b9450506020615f3387828801615be0565b935050604085013567ffffffffffffffff811115615f5457615f53615b63565b5b615f6087828801615c00565b925092505092959194509250565b5f81519050919050565b5f82825260208201905092915050565b8281835e5f83830152505050565b5f601f19601f8301169050919050565b5f615fb082615f6e565b615fba8185615f78565b9350615fca818560208601615f88565b615fd381615f96565b840191505092915050565b5f6020820190508181035f830152615ff68184615fa6565b905092915050565b7f4e487b71000000000000000000000000000000000000000000000000000000005f52604160045260245ffd5b61603482615f96565b810181811067ffffffffffffffff8211171561605357616052615ffe565b5b80604052505050565b5f616065615b56565b9050616071828261602b565b919050565b5f67ffffffffffffffff8211156160905761608f615ffe565b5b602082029050602081019050919050565b5f6160b36160ae84616076565b61605c565b905080838252602082019050602084028301858111156160d6576160d5615bfc565b5b835b818110156160ff57806160eb8882615bad565b8452602084019350506020810190506160d8565b5050509392505050565b5f82601f83011261611d5761611c615bf4565b5b813561612d8482602086016160a1565b91505092915050565b5f67ffffffffffffffff8211156161505761614f615ffe565b5b602082029050602081019050919050565b5f61617361616e84616136565b61605c565b9050808382526020820190506020840283018581111561619657616195615bfc565b5b835b818110156161bf57806161ab8882615be0565b845260208401935050602081019050616198565b5050509392505050565b5f82601f8301126161dd576161dc615bf4565b5b81356161ed848260208601616161565b91505092915050565b5f5ffd5b5f67ffffffffffffffff82111561621457616213615ffe565b5b61621d82615f96565b9050602081019050919050565b828183375f83830152505050565b5f61624a616245846161fa565b61605c565b905082815260208101848484011115616266576162656161f6565b5b61627184828561622a565b509392505050565b5f82601f83011261628d5761628c615bf4565b5b813561629d848260208601616238565b91505092915050565b5f5f5f5f608085870312156162be576162bd615b5f565b5b5f85013567ffffffffffffffff8111156162db576162da615b63565b5b6162e787828801616109565b945050602085013567ffffffffffffffff81111561630857616307615b63565b5b616314878288016161c9565b935050604085013567ffffffffffffffff81111561633557616334615b63565b5b616341878288016161c9565b925050606085013567ffffffffffffffff81111561636257616361615b63565b5b61636e87828801616279565b91505092959194509250565b7f4e487b71000000000000000000000000000000000000000000000000000000005f52602260045260245ffd5b5f60028204905060018216806163be57607f821691505b6020821081036163d1576163d061637a565b5b50919050565b5f819050815f5260205f209050919050565b5f6020601f8301049050919050565b5f82821b905092915050565b5f600883026164337fffffffffffffffffffffffffffffffffffffffffffffffffffffffffffffffff826163f8565b61643d86836163f8565b95508019841693508086168417925050509392505050565b5f819050919050565b5f61647861647361646e84615bc1565b616455565b615bc1565b9050919050565b5f819050919050565b6164918361645e565b6164a561649d8261647f565b848454616404565b825550505050565b5f5f905090565b6164bc6164ad565b6164c7818484616488565b505050565b5b818110156164ea576164df5f826164b4565b6001810190506164cd565b5050565b601f82111561652f57616500816163d7565b616509846163e9565b81016020851015616518578190505b61652c616524856163e9565b8301826164cc565b50505b505050565b5f82821c905092915050565b5f61654f5f1984600802616534565b1980831691505092915050565b5f6165678383616540565b9150826002028217905092915050565b61658082615f6e565b67ffffffffffffffff81111561659957616598615ffe565b5b6165a382546163a7565b6165ae8282856164ee565b5f60209050601f8311600181146165df575f84156165cd578287015190505b6165d7858261655c565b86555061663e565b601f1984166165ed866163d7565b5f5b82811015616614578489015182556001820191506020850194506020810190506165ef565b86831015616631578489015161662d601f891682616540565b8355505b6001600288020188555050505b505050505050565b7f4e4f545f42414c414e43455200000000000000000000000000000000000000005f82015250565b5f61667a600c83615f78565b915061668582616646565b602082019050919050565b5f6020820190508181035f8301526166a78161666e565b9050919050565b7f4e487b71000000000000000000000000000000000000000000000000000000005f52602160045260245ffd5b7f464c4153485f4e4f545f414354495645000000000000000000000000000000005f82015250565b5f61670f601083615f78565b915061671a826166db565b602082019050919050565b5f6020820190508181035f83015261673c81616703565b9050919050565b7f4241445f464c4153485f415252415953000000000000000000000000000000005f82015250565b5f616777601083615f78565b915061678282616743565b602082019050919050565b5f6020820190508181035f8301526167a48161676b565b9050919050565b7f4e487b71000000000000000000000000000000000000000000000000000000005f52603260045260245ffd5b7f554e45585045435445445f464c4153485f4153534554000000000000000000005f82015250565b5f61680c601683615f78565b9150616817826167d8565b602082019050919050565b5f6020820190508181035f83015261683981616800565b9050919050565b7f4e487b71000000000000000000000000000000000000000000000000000000005f52601160045260245ffd5b5f61687782615bc1565b915061688283615bc1565b925082820190508082111561689a57616899616840565b5b92915050565b5f81519050919050565b5f81905092915050565b5f6168be826168a0565b6168c881856168aa565b93506168d8818560208601615f88565b80840191505092915050565b5f6168ef82846168b4565b915081905092915050565b5f8151905061690881615bca565b92915050565b5f6020828403121561692357616922615b5f565b5b5f616930848285016168fa565b91505092915050565b5f61694382615bc1565b915061694e83615bc1565b925082820261695c81615bc1565b9150828204841483151761697357616972616840565b5b5092915050565b7f4e487b71000000000000000000000000000000000000000000000000000000005f52601260045260245ffd5b5f6169b182615bc1565b91506169bc83615bc1565b9250826169cc576169cb61697a565b5b828204905092915050565b7f4e4f545f464c4153485f504149520000000000000000000000000000000000005f82015250565b5f616a0b600e83615f78565b9150616a16826169d7565b602082019050919050565b5f6020820190508181035f830152616a38816169ff565b9050919050565b7f56325f4e4f545f414354495645000000000000000000000000000000000000005f82015250565b5f616a73600d83615f78565b9150616a7e82616a3f565b602082019050919050565b5f6020820190508181035f830152616aa081616a67565b9050919050565b7f4241445f464c4153485f53454e444552000000000000000000000000000000005f82015250565b5f616adb601083615f78565b9150616ae682616aa7565b602082019050919050565b5f6020820190508181035f830152616b0881616acf565b9050919050565b7f4241445f464c4153485f414d4f554e54000000000000000000000000000000005f82015250565b5f616b43601083615f78565b9150616b4e82616b0f565b602082019050919050565b5f6020820190508181035f830152616b7081616b37565b9050919050565b5f616b8182615bc1565b9150616b8c83615bc1565b9250828203905081811115616ba457616ba3616840565b5b92915050565b7f56325f52455041595f494e53554646494349454e5400000000000000000000005f82015250565b5f616bde601583615f78565b9150616be982616baa565b602082019050919050565b5f6020820190508181035f830152616c0b81616bd2565b9050919050565b5f819050919050565b616c2481616c12565b82525050565b5f606082019050616c3d5f830186615d1f565b616c4a6020830185616c1b565b616c576040830184615d1f565b949350505050565b7f464c4153485f4d494e545f4641494c45440000000000000000000000000000005f82015250565b5f616c93601183615f78565b9150616c9e82616c5f565b602082019050919050565b5f6020820190508181035f830152616cc081616c87565b9050919050565b7f464c4153485f52454445454d5f4e4f5f43544f4b454e000000000000000000005f82015250565b5f616cfb601683615f78565b9150616d0682616cc7565b602082019050919050565b5f6020820190508181035f830152616d2881616cef565b9050919050565b7f464c4153485f52454445454d5f4641494c4544000000000000000000000000005f82015250565b5f616d63601383615f78565b9150616d6e82616d2f565b602082019050919050565b5f6020820190508181035f830152616d9081616d57565b9050919050565b7f52454445454d5f5452414e534645525f4e4f5f43414c4c4241434b00000000005f82015250565b5f616dcb601b83615f78565b9150616dd682616d97565b602082019050919050565b5f6020820190508181035f830152616df881616dbf565b9050919050565b7f52454445454d5f43414c4c4241434b5f424f52524f575f4641494c45440000005f82015250565b5f616e33601d83615f78565b9150616e3e82616dff565b602082019050919050565b5f6020820190508181035f830152616e6081616e27565b9050919050565b7f464c4153485f52455041595f494e53554646494349454e5400000000000000005f82015250565b5f616e9b601883615f78565b9150616ea682616e67565b602082019050919050565b5f6020820190508181035f830152616ec881616e8f565b9050919050565b7f464c4153485f5441524745545f424f52524f575f4641494c45440000000000005f82015250565b5f616f03601a83615f78565b9150616f0e82616ecf565b602082019050919050565b5f6020820190508181035f830152616f3081616ef7565b9050919050565b7f424f52524f575f5452414e534645525f4e4f5f43414c4c4241434b00000000005f82015250565b5f616f6b601b83615f78565b9150616f7682616f37565b602082019050919050565b5f6020820190508181035f830152616f9881616f5f565b9050919050565b7f424f52524f575f43414c4c4241434b5f424f52524f575f4641494c45440000005f82015250565b5f616fd3601d83615f78565b9150616fde82616f9f565b602082019050919050565b5f6020820190508181035f83015261700081616fc7565b9050919050565b7f4e4f5f4143544956455f504154480000000000000000000000000000000000005f82015250565b5f61703b600e83615f78565b915061704682617007565b602082019050919050565b5f6020820190508181035f8301526170688161702f565b9050919050565b5f6040820190506170825f830185615d1f565b61708f6020830184615dfe565b9392505050565b5f6170a082615bc1565b91507fffffffffffffffffffffffffffffffffffffffffffffffffffffffffffffffff82036170d2576170d1616840565b5b600182019050919050565b5f6170e782615b67565b9050919050565b6170f7816170dd565b8114617101575f5ffd5b50565b5f81519050617112816170ee565b92915050565b5f6020828403121561712d5761712c615b5f565b5b5f61713a84828501617104565b91505092915050565b5f82825260208201905092915050565b7f01000000000000000000000000000000000000000000000000000000000000005f82015250565b5f617187600183617143565b915061719282617153565b602082019050919050565b5f6080820190506171b05f830186615dfe565b6171bd6020830185615dfe565b6171ca6040830184615d1f565b81810360608301526171db8161717b565b9050949350505050565b5f81519050919050565b5f82825260208201905092915050565b5f819050602082019050919050565b61721781615b86565b82525050565b5f617228838361720e565b60208301905092915050565b5f602082019050919050565b5f61724a826171e5565b61725481856171ef565b935061725f836171ff565b805f5b8381101561728f578151617276888261721d565b975061728183617234565b925050600181019050617262565b5085935050505092915050565b5f81519050919050565b5f82825260208201905092915050565b5f819050602082019050919050565b6172ce81615bc1565b82525050565b5f6172df83836172c5565b60208301905092915050565b5f602082019050919050565b5f6173018261729c565b61730b81856172a6565b9350617316836172b6565b805f5b8381101561734657815161732d88826172d4565b9750617338836172eb565b925050600181019050617319565b5085935050505092915050565b50565b5f6173615f83617143565b915061736c82617353565b5f82019050919050565b5f6080820190506173895f830186615d1f565b818103602083015261739b8185617240565b905081810360408301526173af81846172f7565b905081810360608301526173c281617356565b9050949350505050565b5f6040820190506173df5f830185615dfe565b6173ec6020830184615dd6565b9392505050565b7f544f4b454e5f43414c4c5f4641494c45440000000000000000000000000000005f82015250565b5f617427601183615f78565b9150617432826173f3565b602082019050919050565b5f6020820190508181035f8301526174548161741b565b9050919050565b61746481615dcb565b811461746e575f5ffd5b50565b5f8151905061747f8161745b565b92915050565b5f6020828403121561749a57617499615b5f565b5b5f6174a784828501617471565b91505092915050565b7f544f4b454e5f43414c4c5f46414c5345000000000000000000000000000000005f82015250565b5f6174e4601083615f78565b91506174ef826174b0565b602082019050919050565b5f6020820190508181035f830152617511816174d8565b9050919050565b5f8151905061752681615b97565b92915050565b5f61753e61753984616076565b61605c565b9050808382526020820190506020840283018581111561756157617560615bfc565b5b835b8181101561758a57806175768882617518565b845260208401935050602081019050617563565b5050509392505050565b5f82601f8301126175a8576175a7615bf4565b5b81516175b884826020860161752c565b91505092915050565b5f602082840312156175d6576175d5615b5f565b5b5f82015167ffffffffffffffff8111156175f3576175f2615b63565b5b6175ff84828501617594565b91505092915050565b5f6040820190508181035f8301526176208185617240565b905061762f6020830184615d1f565b9392505050565b5f6020820190508181035f83015261764e8184617240565b905092915050565b5f6040820190506176695f830185615d1f565b6176766020830184615d1f565b9392505050565b5f6dffffffffffffffffffffffffffff82169050919050565b61769f8161767d565b81146176a9575f5ffd5b50565b5f815190506176ba81617696565b92915050565b5f63ffffffff82169050919050565b6176d8816176c0565b81146176e2575f5ffd5b50565b5f815190506176f3816176cf565b92915050565b5f5f5f606084860312156177105761770f615b5f565b5b5f61771d868287016176ac565b935050602061772e868287016176ac565b925050604061773f868287016176e5565b9150509250925092565b5f819050919050565b5f60ff82169050919050565b5f61777861777361776e84617749565b616455565b617752565b9050919050565b6177888161775e565b82525050565b5f6040820190506177a15f830185615d1f565b6177ae602083018461777f565b9392505050565b5f6177c76177c284616136565b61605c565b905080838252602082019050602084028301858111156177ea576177e9615bfc565b5b835b8181101561781357806177ff88826168fa565b8452602084019350506020810190506177ec565b5050509392505050565b5f82601f83011261783157617830615bf4565b5b81516178418482602086016177b5565b91505092915050565b5f6020828403121561785f5761785e615b5f565b5b5f82015167ffffffffffffffff81111561787c5761787b615b63565b5b6178888482850161781d565b9150509291505056fe666c6173682d66756e6465642072656465656d28292d3e63616c6c6261636b2d3e63726f73732d6d61726b657420626f72726f77206265666f7265206163636f756e74546f6b656e735b72656465656d65725d2f746f74616c537570706c7920757064617465626f72726f7728292d3e63616c6c6261636b2d3e63726f73732d6d61726b657420626f72726f77206265666f7265206163636f756e74426f72726f77735b626f72726f7765725d2f746f74616c426f72726f7773207570646174654e4f5f5441524745545f434f4c4c41544552414c5f464f525f52454445454d5f50415448666c6173682d66756e64656420626f72726f7728292d3e63616c6c6261636b2d3e63726f73732d6d61726b657420626f72726f77206265666f7265206163636f756e74426f72726f77735b626f72726f7765725d2f746f74616c426f72726f7773207570646174654e4f5f5441524745545f434f4c4c41544552414c5f464f525f424f52524f575f50415448666c617368737761702d66756e64656420626f72726f7728292d3e63616c6c6261636b2d3e63726f73732d6d61726b657420626f72726f77206265666f7265206163636f756e74426f72726f77735b626f72726f7765725d2f746f74616c426f72726f77732075706461746572656465656d28292d3e63616c6c6261636b2d3e63726f73732d6d61726b657420626f72726f77206265666f7265206163636f756e74546f6b656e735b72656465656d65725d2f746f74616c537570706c7920757064617465666c617368737761702d66756e6465642072656465656d28292d3e63616c6c6261636b2d3e63726f73732d6d61726b657420626f72726f77206265666f7265206163636f756e74546f6b656e735b72656465656d65725d2f746f74616c537570706c7920757064617465a2646970667358221220cb45938c2f20cb9b3720c003e2105b55748da798741aa3bd6599d75141ded5d964736f6c634300081e0033","linkReferences":{}},"methodIdentifiers":{"BALANCER_VAULT()":"bc163846","ERC1820_REGISTRY()":"013eb177","SUSHISWAP_FACTORY()":"495c0f9b","TARGET_MARKET()":"c86bc7fd","UNISWAP_V2_FACTORY()":"99d8fae3","chosenVictimMarket()":"eeb3b5e3","chosenVictimUnderlying()":"6de4d1eb","executeOnOpportunity()":"3c2448ed","executed()":"31a38c89","exploitPathUsed()":"d78c4281","hypothesisValidated()":"463defd1","lastFailure()":"c3a5a154","onTokenTransfer(address,uint256,bytes)":"a4c0ed36","onTransferReceived(address,address,uint256,bytes)":"88a7ca5c","pancakeCall(address,uint256,uint256,bytes)":"84800812","profitAmount()":"5ff972cc","profitToken()":"49343624","receiveFlashLoan(address[],uint256[],uint256[],bytes)":"f04f2707","targetComptroller()":"74bbd9ed","targetUnderlying()":"fa0eea31","tokenFallback(address,uint256,bytes)":"c0ee0b8a","tokensReceived(address,address,address,uint256,bytes,bytes)":"0023de29","uniswapV2Call(address,uint256,uint256,bytes)":"10d1e85c"},"id":0}