{"abi":[{"type":"constructor","inputs":[{"name":"_thief","type":"address","internalType":"address payable"}],"stateMutability":"nonpayable"},{"type":"receive","stateMutability":"payable"},{"type":"function","name":"depositERC20To","inputs":[{"name":"l1Token","type":"address","internalType":"address"},{"name":"","type":"address","internalType":"address"},{"name":"","type":"address","internalType":"address"},{"name":"","type":"uint256","internalType":"uint256"},{"name":"","type":"uint32","internalType":"uint32"},{"name":"","type":"bytes","internalType":"bytes"}],"outputs":[],"stateMutability":"nonpayable"},{"type":"function","name":"depositETHTo","inputs":[{"name":"","type":"address","internalType":"address"},{"name":"","type":"uint32","internalType":"uint32"},{"name":"","type":"bytes","internalType":"bytes"}],"outputs":[],"stateMutability":"payable"},{"type":"function","name":"depositTo","inputs":[{"name":"","type":"address","internalType":"address"},{"name":"","type":"uint256","internalType":"uint256"}],"outputs":[],"stateMutability":"nonpayable"},{"type":"function","name":"initiateSynthTransfer","inputs":[{"name":"","type":"bytes32","internalType":"bytes32"},{"name":"","type":"address","internalType":"address"},{"name":"","type":"uint256","internalType":"uint256"}],"outputs":[],"stateMutability":"nonpayable"},{"type":"function","name":"steal","inputs":[{"name":"token","type":"address","internalType":"address"},{"name":"from","type":"address","internalType":"address"}],"outputs":[],"stateMutability":"nonpayable"},{"type":"function","name":"thief","inputs":[],"outputs":[{"name":"","type":"address","internalType":"address payable"}],"stateMutability":"view"}],"bytecode":{"object":"0x60a034607457601f61058b38819003918201601f19168301916001600160401b03831184841017607857808492602094604052833981010312607457516001600160a01b03811681036074576080526040516104fe908161008d82396080518181816101850152818161027f01526103dc0152f35b5f80fd5b634e487b7160e01b5f52604160045260245ffdfe608080604052600436101561001c575b50361561001a575f80fd5b005b5f3560e01c9081633451358914610173575080634873966f1461015a578063838b2520146100f95780639a2ac6d5146100b1578063fa07cf25146100875763ffaad6a51461006a575f61000f565b346100835760403660031901126100835761001a6101ca565b5f80fd5b346100835760403660031901126100835761001a6100a36101ca565b6100ab6101b4565b9061024a565b6060366003190112610083576100c56101ca565b506100ce610209565b5060443567ffffffffffffffff8111610083576100ef90369060040161021c565b505061001a6103cb565b346100835760c0366003190112610083576101126101ca565b61011a6101b4565b506101236101e0565b5061012c6101f6565b5060a4359067ffffffffffffffff82116100835761015161001a92369060040161021c565b5050339061024a565b346100835760603660031901126100835761001a6101b4565b34610083575f366003190112610083577f00000000000000000000000000000000000000000000000000000000000000006001600160a01b03168152602090f35b602435906001600160a01b038216820361008357565b600435906001600160a01b038216820361008357565b604435906001600160a01b038216820361008357565b6084359063ffffffff8216820361008357565b6024359063ffffffff8216820361008357565b9181601f840112156100835782359167ffffffffffffffff8311610083576020838186019501011161008357565b6102548282610453565b908115610351576040516323b872dd60e01b602082019081526001600160a01b0394851660248301527f000000000000000000000000000000000000000000000000000000000000000090941660448201526064808201939093529182525f92839283906102c3608482610356565b51925af16102cf61038c565b81610319575b50156102dd57565b60405162461bcd60e51b81526020600482015260146024820152731514905394d1915497d19493d357d1905253115160621b6044820152606490fd5b805180159250821561032e575b50505f6102d5565b819250906020918101031261008357602001518015158103610083575f80610326565b505050565b90601f8019910116810190811067ffffffffffffffff82111761037857604052565b634e487b7160e01b5f52604160045260245ffd5b3d156103c6573d9067ffffffffffffffff821161037857604051916103bb601f8201601f191660200184610356565b82523d5f602084013e565b606090565b478015610450575f908190819081907f00000000000000000000000000000000000000000000000000000000000000006001600160a01b03165af161040e61038c565b501561041657565b60405162461bcd60e51b815260206004820152601260248201527111551217d193d495d0549117d1905253115160721b6044820152606490fd5b50565b6040516370a0823160e01b602082019081526001600160a01b0390931660248083019190915281525f9283929161048b604482610356565b51915afa61049761038c565b901580156104bd575b6104b857602081805181010312610083576020015190565b505f90565b5060208151106104a056fea2646970667358221220cfd83ced3eb0bc002d88f858db01c8a891517a73945dbfb1cfb64869188e355164736f6c634300081e0033","linkReferences":{}},"methodIdentifiers":{"depositERC20To(address,address,address,uint256,uint32,bytes)":"838b2520","depositETHTo(address,uint32,bytes)":"9a2ac6d5","depositTo(address,uint256)":"ffaad6a5","initiateSynthTransfer(bytes32,address,uint256)":"4873966f","steal(address,address)":"fa07cf25","thief()":"34513589"},"id":0}