{"abi":[{"type":"constructor","inputs":[],"stateMutability":"nonpayable"},{"type":"receive","stateMutability":"payable"},{"type":"function","name":"TARGET_COMPTROLLER","inputs":[],"outputs":[{"name":"","type":"address","internalType":"address"}],"stateMutability":"view"},{"type":"function","name":"executeOnOpportunity","inputs":[],"outputs":[],"stateMutability":"nonpayable"},{"type":"function","name":"profitAmount","inputs":[],"outputs":[{"name":"","type":"uint256","internalType":"uint256"}],"stateMutability":"view"},{"type":"function","name":"profitToken","inputs":[],"outputs":[{"name":"","type":"address","internalType":"address"}],"stateMutability":"view"},{"type":"function","name":"sushiCall","inputs":[{"name":"sender","type":"address","internalType":"address"},{"name":"amount0","type":"uint256","internalType":"uint256"},{"name":"amount1","type":"uint256","internalType":"uint256"},{"name":"","type":"bytes","internalType":"bytes"}],"outputs":[],"stateMutability":"nonpayable"},{"type":"function","name":"uniswapV2Call","inputs":[{"name":"sender","type":"address","internalType":"address"},{"name":"amount0","type":"uint256","internalType":"uint256"},{"name":"amount1","type":"uint256","internalType":"uint256"},{"name":"","type":"bytes","internalType":"bytes"}],"outputs":[],"stateMutability":"nonpayable"}],"bytecode":{"object":"0x6080604052348015600e575f5ffd5b50615ac48061001c5f395ff3fe608060405260043610610057575f3560e01c80629914031461006257806310d1e85c1461008a5780633c2448ed146100b257806349343624146100c85780635ff972cc146100f257806368510be11461011c5761005e565b3661005e57005b5f5ffd5b34801561006d575f5ffd5b50610088600480360381019061008391906149ab565b610146565b005b348015610095575f5ffd5b506100b060048036038101906100ab91906149ab565b610158565b005b3480156100bd575f5ffd5b506100c661016a565b005b3480156100d3575f5ffd5b506100dc610880565b6040516100e99190614a3e565b60405180910390f35b3480156100fd575f5ffd5b506101066108a7565b6040516101139190614a66565b60405180910390f35b348015610127575f5ffd5b506101306108b0565b60405161013d9190614a3e565b60405180910390f35b6101518585856108c8565b5050505050565b6101638585856108c8565b5050505050565b5f5f5f6101000a81548173ffffffffffffffffffffffffffffffffffffffff021916908373ffffffffffffffffffffffffffffffffffffffff1602179055505f6001819055505f6101b9610c91565b90505f73ffffffffffffffffffffffffffffffffffffffff16815f015173ffffffffffffffffffffffffffffffffffffffff160361022c576040517f08c379a000000000000000000000000000000000000000000000000000000000815260040161022390614ad9565b60405180910390fd5b5f61023b826040015130610e13565b905061025b82606001518361012001518460200151856101000151610f2e565b5f610266838361102c565b90505f81036102aa576040517f08c379a00000000000000000000000000000000000000000000000000000000081526004016102a190614b41565b60405180910390fd5b6102b483826110c5565b8082106102ca576102c58382611112565b610837565b5f73ffffffffffffffffffffffffffffffffffffffff1683610140015173ffffffffffffffffffffffffffffffffffffffff160361033d576040517f08c379a000000000000000000000000000000000000000000000000000000000815260040161033490614ba9565b60405180910390fd5b604051806101800160405280845f015173ffffffffffffffffffffffffffffffffffffffff168152602001846020015173ffffffffffffffffffffffffffffffffffffffff168152602001846040015173ffffffffffffffffffffffffffffffffffffffff168152602001846060015173ffffffffffffffffffffffffffffffffffffffff168152602001846080015173ffffffffffffffffffffffffffffffffffffffff16815260200184610140015173ffffffffffffffffffffffffffffffffffffffff16815260200184610160015173ffffffffffffffffffffffffffffffffffffffff16815260200184610180015173ffffffffffffffffffffffffffffffffffffffff16815260200182815260200161045a8361122f565b8152602001846101000151815260200184610120015181525060025f820151815f015f6101000a81548173ffffffffffffffffffffffffffffffffffffffff021916908373ffffffffffffffffffffffffffffffffffffffff1602179055506020820151816001015f6101000a81548173ffffffffffffffffffffffffffffffffffffffff021916908373ffffffffffffffffffffffffffffffffffffffff1602179055506040820151816002015f6101000a81548173ffffffffffffffffffffffffffffffffffffffff021916908373ffffffffffffffffffffffffffffffffffffffff1602179055506060820151816003015f6101000a81548173ffffffffffffffffffffffffffffffffffffffff021916908373ffffffffffffffffffffffffffffffffffffffff1602179055506080820151816004015f6101000a81548173ffffffffffffffffffffffffffffffffffffffff021916908373ffffffffffffffffffffffffffffffffffffffff16021790555060a0820151816005015f6101000a81548173ffffffffffffffffffffffffffffffffffffffff021916908373ffffffffffffffffffffffffffffffffffffffff16021790555060c0820151816006015f6101000a81548173ffffffffffffffffffffffffffffffffffffffff021916908373ffffffffffffffffffffffffffffffffffffffff16021790555060e0820151816007015f6101000a81548173ffffffffffffffffffffffffffffffffffffffff021916908373ffffffffffffffffffffffffffffffffffffffff1602179055506101008201518160080155610120820151816009015561014082015181600a015561016082015181600b01559050506106e683610140015184604001518361125e565b60025f5f82015f6101000a81549073ffffffffffffffffffffffffffffffffffffffff0219169055600182015f6101000a81549073ffffffffffffffffffffffffffffffffffffffff0219169055600282015f6101000a81549073ffffffffffffffffffffffffffffffffffffffff0219169055600382015f6101000a81549073ffffffffffffffffffffffffffffffffffffffff0219169055600482015f6101000a81549073ffffffffffffffffffffffffffffffffffffffff0219169055600582015f6101000a81549073ffffffffffffffffffffffffffffffffffffffff0219169055600682015f6101000a81549073ffffffffffffffffffffffffffffffffffffffff0219169055600782015f6101000a81549073ffffffffffffffffffffffffffffffffffffffff0219169055600882015f9055600982015f9055600a82015f9055600b82015f905550505b5f6001541161087b576040517f08c379a000000000000000000000000000000000000000000000000000000000815260040161087290614c11565b60405180910390fd5b505050565b5f5f5f9054906101000a900473ffffffffffffffffffffffffffffffffffffffff16905090565b5f600154905090565b733f2d1bc6d02522dbcdb216b2e75edddafe04b16f81565b3073ffffffffffffffffffffffffffffffffffffffff168373ffffffffffffffffffffffffffffffffffffffff1614610936576040517f08c379a000000000000000000000000000000000000000000000000000000000815260040161092d90614c79565b60405180910390fd5b60026005015f9054906101000a900473ffffffffffffffffffffffffffffffffffffffff1673ffffffffffffffffffffffffffffffffffffffff163373ffffffffffffffffffffffffffffffffffffffff16146109c8576040517f08c379a00000000000000000000000000000000000000000000000000000000081526004016109bf90614ce1565b60405180910390fd5b5f5f83116109d657816109d8565b825b90506002600801548114610a21576040517f08c379a0000000000000000000000000000000000000000000000000000000008152600401610a1890614d49565b60405180910390fd5b610a78600280015f9054906101000a900473ffffffffffffffffffffffffffffffffffffffff1660026001015f9054906101000a900473ffffffffffffffffffffffffffffffffffffffff166002600801546114ec565b5f60026001015f9054906101000a900473ffffffffffffffffffffffffffffffffffffffff1673ffffffffffffffffffffffffffffffffffffffff1663f5e3c46260025f015f9054906101000a900473ffffffffffffffffffffffffffffffffffffffff1660026008015460026003015f9054906101000a900473ffffffffffffffffffffffffffffffffffffffff166040518463ffffffff1660e01b8152600401610b2693929190614d67565b6020604051808303815f875af1158015610b42573d5f5f3e3d5ffd5b505050506040513d601f19601f82011682018060405250810190610b669190614db0565b14610ba6576040517f08c379a0000000000000000000000000000000000000000000000000000000008152600401610b9d90614e25565b60405180910390fd5b610c046002600b015460026003015f9054906101000a900473ffffffffffffffffffffffffffffffffffffffff166002600a015460026001015f9054906101000a900473ffffffffffffffffffffffffffffffffffffffff1661171b565b610c3160026003015f9054906101000a900473ffffffffffffffffffffffffffffffffffffffff166117ff565b610c39611a4a565b610c8b60026004015f9054906101000a900473ffffffffffffffffffffffffffffffffffffffff1660026003015f9054906101000a900473ffffffffffffffffffffffffffffffffffffffff16611d69565b50505050565b610c99614728565b5f5f610ca3611e79565b90505f610cae611fd1565b90505f82519050610100811115610cc55761010090505b5f825190506040811115610cd857604090505b5f5f90505b82811015610e0a575f858281518110610cf957610cf8614e43565b5b602002602001015190505f73ffffffffffffffffffffffffffffffffffffffff168173ffffffffffffffffffffffffffffffffffffffff1603610d3c5750610dff565b5f5f610d4783612128565b9250509150811580610d5957505f8114155b15610d6657505050610dff565b5f5f90505b85811015610dfa575f888281518110610d8757610d86614e43565b5b602002602001015190505f73ffffffffffffffffffffffffffffffffffffffff168173ffffffffffffffffffffffffffffffffffffffff1603610dca5750610def565b5f5f610dd887848d8c61228e565b915091508c811115610deb57819d50809c505b5050505b806001019050610d6b565b505050505b806001019050610cdd565b50505050505090565b5f5f5f8473ffffffffffffffffffffffffffffffffffffffff166370a0823160e01b85604051602401610e469190614a3e565b604051602081830303815290604052907bffffffffffffffffffffffffffffffffffffffffffffffffffffffff19166020820180517bffffffffffffffffffffffffffffffffffffffffffffffffffffffff8381831617835250505050604051610eb09190614ec2565b5f60405180830381855afa9150503d805f8114610ee8576040519150601f19603f3d011682016040523d82523d5f602084013e610eed565b606091505b5091509150811580610f00575060208151105b15610f0f575f92505050610f28565b80806020019051810190610f239190614db0565b925050505b92915050565b5f610f38846123c1565b90505f610f44836123fe565b9050610f4e612486565b73ffffffffffffffffffffffffffffffffffffffff1663127ffda087846040518363ffffffff1660e01b8152600401610f88929190614ed8565b5f604051808303815f87803b158015610f9f575f5ffd5b505af1158015610fb1573d5f5f3e3d5ffd5b50505050610fbd612486565b73ffffffffffffffffffffffffffffffffffffffff1663127ffda085836040518363ffffffff1660e01b8152600401610ff7929190614ed8565b5f604051808303815f87803b15801561100e575f5ffd5b505af1158015611020573d5f5f3e3d5ffd5b50505050505050505050565b5f5f61103b8460a0015161250d565b90505f810361104d575f9150506110bf565b5f611058828561260d565b90505f5f90505b60088110156110b8575f82826008811061107c5761107b614e43565b5b602002015190505f810361109057506110ad565b61109a87826127bb565b156110ab57809450505050506110bf565b505b80600101905061105f565b505f925050505b92915050565b6110cf82826127bb565b61110e576040517f08c379a000000000000000000000000000000000000000000000000000000000815260040161110590614f49565b60405180910390fd5b5050565b61112582604001518360200151836114ec565b5f826020015173ffffffffffffffffffffffffffffffffffffffff1663f5e3c462845f01518486606001516040518463ffffffff1660e01b815260040161116e93929190614d67565b6020604051808303815f875af115801561118a573d5f5f3e3d5ffd5b505050506040513d601f19601f820116820180604052508101906111ae9190614db0565b146111ee576040517f08c379a00000000000000000000000000000000000000000000000000000000081526004016111e590614e25565b60405180910390fd5b61120c8261012001518360600151846101000151856020015161171b565b61121982606001516117ff565b61122b82608001518360600151611d69565b5050565b5f60016103e56103e8846112439190614f94565b61124d9190615002565b6112579190615032565b9050919050565b5f8373ffffffffffffffffffffffffffffffffffffffff16630dfe16816040518163ffffffff1660e01b8152600401602060405180830381865afa1580156112a8573d5f5f3e3d5ffd5b505050506040513d601f19601f820116820180604052508101906112cc9190615079565b90505f8473ffffffffffffffffffffffffffffffffffffffff1663d21220a76040518163ffffffff1660e01b8152600401602060405180830381865afa158015611318573d5f5f3e3d5ffd5b505050506040513d601f19601f8201168201806040525081019061133c9190615079565b90505f60016040516020016113519190614a66565b60405160208183030381529060405290508473ffffffffffffffffffffffffffffffffffffffff168373ffffffffffffffffffffffffffffffffffffffff1603611409578573ffffffffffffffffffffffffffffffffffffffff1663022c0d9f855f30856040518563ffffffff1660e01b81526004016113d4949392919061513e565b5f604051808303815f87803b1580156113eb575f5ffd5b505af11580156113fd573d5f5f3e3d5ffd5b505050505050506114e7565b8473ffffffffffffffffffffffffffffffffffffffff168273ffffffffffffffffffffffffffffffffffffffff1614611477576040517f08c379a000000000000000000000000000000000000000000000000000000000815260040161146e906151d2565b60405180910390fd5b8573ffffffffffffffffffffffffffffffffffffffff1663022c0d9f5f8630856040518563ffffffff1660e01b81526004016114b694939291906151f0565b5f604051808303815f87803b1580156114cd575f5ffd5b505af11580156114df573d5f5f3e3d5ffd5b505050505050505b505050565b5f8373ffffffffffffffffffffffffffffffffffffffff1663095ea7b360e01b845f60405160240161151f929190615276565b604051602081830303815290604052907bffffffffffffffffffffffffffffffffffffffffffffffffffffffff19166020820180517bffffffffffffffffffffffffffffffffffffffffffffffffffffffff83818316178352505050506040516115899190614ec2565b5f604051808303815f865af19150503d805f81146115c2576040519150601f19603f3d011682016040523d82523d5f602084013e6115c7565b606091505b505090505f5f8573ffffffffffffffffffffffffffffffffffffffff1663095ea7b360e01b86866040516024016115ff929190614ed8565b604051602081830303815290604052907bffffffffffffffffffffffffffffffffffffffffffffffffffffffff19166020820180517bffffffffffffffffffffffffffffffffffffffffffffffffffffffff83818316178352505050506040516116699190614ec2565b5f604051808303815f865af19150503d805f81146116a2576040519150601f19603f3d011682016040523d82523d5f602084013e6116a7565b606091505b50915091508180156116d457505f815114806116d35750808060200190518101906116d291906152d2565b5b5b611713576040517f08c379a000000000000000000000000000000000000000000000000000000000815260040161170a90615347565b60405180910390fd5b505050505050565b611723612486565b73ffffffffffffffffffffffffffffffffffffffff1663127ffda084866040518363ffffffff1660e01b815260040161175d929190614ed8565b5f604051808303815f87803b158015611774575f5ffd5b505af1158015611786573d5f5f3e3d5ffd5b50505050611792612486565b73ffffffffffffffffffffffffffffffffffffffff1663127ffda082846040518363ffffffff1660e01b81526004016117cc929190614ed8565b5f604051808303815f87803b1580156117e3575f5ffd5b505af11580156117f5573d5f5f3e3d5ffd5b5050505050505050565b5f61180a8230612876565b90505f811161184e576040517f08c379a0000000000000000000000000000000000000000000000000000000008152600401611845906153af565b60405180910390fd5b5f8273ffffffffffffffffffffffffffffffffffffffff1663182df0f56040518163ffffffff1660e01b8152600401602060405180830381865afa158015611898573d5f5f3e3d5ffd5b505050506040513d601f19601f820116820180604052508101906118bc9190614db0565b90505f8373ffffffffffffffffffffffffffffffffffffffff16633b1d21a26040518163ffffffff1660e01b8152600401602060405180830381865afa158015611908573d5f5f3e3d5ffd5b505050506040513d601f19601f8201168201806040525081019061192c9190614db0565b90505f6119398284612991565b905083811115611947578390505b5f8111611989576040517f08c379a000000000000000000000000000000000000000000000000000000000815260040161198090615417565b60405180910390fd5b5f8573ffffffffffffffffffffffffffffffffffffffff1663db006a75836040518263ffffffff1660e01b81526004016119c39190614a66565b6020604051808303815f875af11580156119df573d5f5f3e3d5ffd5b505050506040513d601f19601f82011682018060405250810190611a039190614db0565b14611a43576040517f08c379a0000000000000000000000000000000000000000000000000000000008152600401611a3a9061547f565b60405180910390fd5b5050505050565b600280015f9054906101000a900473ffffffffffffffffffffffffffffffffffffffff1673ffffffffffffffffffffffffffffffffffffffff1660026004015f9054906101000a900473ffffffffffffffffffffffffffffffffffffffff1673ffffffffffffffffffffffffffffffffffffffff1603611b2057611b1b600280015f9054906101000a900473ffffffffffffffffffffffffffffffffffffffff1660026005015f9054906101000a900473ffffffffffffffffffffffffffffffffffffffff166002600901546129c9565b611d67565b5f611b4f60026004015f9054906101000a900473ffffffffffffffffffffffffffffffffffffffff1630610e13565b90505f8111611b93576040517f08c379a0000000000000000000000000000000000000000000000000000000008152600401611b8a906154e7565b60405180910390fd5b611be660026004015f9054906101000a900473ffffffffffffffffffffffffffffffffffffffff1660026006015f9054906101000a900473ffffffffffffffffffffffffffffffffffffffff16836114ec565b5f611c5d60026004015f9054906101000a900473ffffffffffffffffffffffffffffffffffffffff16600280015f9054906101000a900473ffffffffffffffffffffffffffffffffffffffff1660026007015f9054906101000a900473ffffffffffffffffffffffffffffffffffffffff16612b18565b905060026006015f9054906101000a900473ffffffffffffffffffffffffffffffffffffffff1673ffffffffffffffffffffffffffffffffffffffff16638803dbee600260090154848430426040518663ffffffff1660e01b8152600401611cc99594939291906155bc565b5f604051808303815f875af1158015611ce4573d5f5f3e3d5ffd5b505050506040513d5f823e3d601f19601f82011682018060405250810190611d0c919061574c565b50611d64600280015f9054906101000a900473ffffffffffffffffffffffffffffffffffffffff1660026005015f9054906101000a900473ffffffffffffffffffffffffffffffffffffffff166002600901546129c9565b50505b565b5f611d748330610e13565b90505f811115611dca57825f5f6101000a81548173ffffffffffffffffffffffffffffffffffffffff021916908373ffffffffffffffffffffffffffffffffffffffff1602179055508060018190555050611e75565b5f611dd58330612876565b90505f811115611e2c57825f5f6101000a81548173ffffffffffffffffffffffffffffffffffffffff021916908373ffffffffffffffffffffffffffffffffffffffff160217905550806001819055505050611e75565b5f5f5f6101000a81548173ffffffffffffffffffffffffffffffffffffffff021916908373ffffffffffffffffffffffffffffffffffffffff1602179055505f60018190555050505b5050565b6060733f2d1bc6d02522dbcdb216b2e75edddafe04b16f73ffffffffffffffffffffffffffffffffffffffff166332abcdbe6040518163ffffffff1660e01b81526004015f60405180830381865afa925050508015611efa57506040513d5f823e3d601f19601f82011682018060405250810190611ef79190615853565b60015b611fc4575f61010090508067ffffffffffffffff811115611f1e57611f1d615614565b5b604051908082528060200260200182016040528015611f4c5781602001602082028036833780820191505090505b5091505f5f90505b81811015611fbd57611f6581612d7b565b838281518110611f7857611f77614e43565b5b602002602001019073ffffffffffffffffffffffffffffffffffffffff16908173ffffffffffffffffffffffffffffffffffffffff1681525050806001019050611f54565b5050611fcd565b80915050611fce565b5b90565b6060733f2d1bc6d02522dbcdb216b2e75edddafe04b16f73ffffffffffffffffffffffffffffffffffffffff1663b0772d0b6040518163ffffffff1660e01b81526004015f60405180830381865afa92505050801561205257506040513d5f823e3d601f19601f8201168201806040525081019061204f9190615853565b60015b61211b575f604090508067ffffffffffffffff81111561207557612074615614565b5b6040519080825280602002602001820160405280156120a35781602001602082028036833780820191505090505b5091505f5f90505b81811015612114576120bc81612e19565b8382815181106120cf576120ce614e43565b5b602002602001019073ffffffffffffffffffffffffffffffffffffffff16908173ffffffffffffffffffffffffffffffffffffffff16815250508060010190506120ab565b5050612124565b80915050612125565b5b90565b5f5f5f5f5f733f2d1bc6d02522dbcdb216b2e75edddafe04b16f73ffffffffffffffffffffffffffffffffffffffff16635ec88c7960e01b876040516024016121719190614a3e565b604051602081830303815290604052907bffffffffffffffffffffffffffffffffffffffffffffffffffffffff19166020820180517bffffffffffffffffffffffffffffffffffffffffffffffffffffffff83818316178352505050506040516121db9190614ec2565b5f60405180830381855afa9150503d805f8114612213576040519150601f19603f3d011682016040523d82523d5f602084013e612218565b606091505b509150915081158061222b575060608151105b15612240575f5f5f9450945094505050612287565b5f5f5f83806020019051810190612257919061589a565b9250925092505f8314612277575f5f5f9750975097505050505050612287565b6001828297509750975050505050505b9193909250565b612296614728565b5f5f5f6122a287612eb7565b915091508115806122b257505f81145b156122c457835f9350935050506123b8565b5f5f6122d08a8a612f5c565b91509150806122e857855f95509550505050506123b8565b5f5f90505b878110156123b2575f89828151811061230957612308614e43565b5b602002602001015190505f73ffffffffffffffffffffffffffffffffffffffff168173ffffffffffffffffffffffffffffffffffffffff16148061237857508a73ffffffffffffffffffffffffffffffffffffffff168173ffffffffffffffffffffffffffffffffffffffff16145b1561238357506123a7565b5f5f6123908e8785613089565b91509150888111156123a3578199508098505b5050505b8060010190506122ed565b50505050505b94509492505050565b5f600182116123d357600190506123f9565b5f620f4240836123e39190615002565b90505f81146123f257806123f5565b60015b9150505b919050565b5f5f820361240e575f9050612481565b5f620f42409050807fffffffffffffffffffffffffffffffffffffffffffffffffffffffffffffffff6124419190615002565b831115612471577fffffffffffffffffffffffffffffffffffffffffffffffffffffffffffffffff915050612481565b808361247d9190614f94565b9150505b919050565b5f733f2d1bc6d02522dbcdb216b2e75edddafe04b16f73ffffffffffffffffffffffffffffffffffffffff16637dc0d1d06040518163ffffffff1660e01b8152600401602060405180830381865afa1580156124e4573d5f5f3e3d5ffd5b505050506040513d601f19601f820116820180604052508101906125089190615079565b905090565b5f5f733f2d1bc6d02522dbcdb216b2e75edddafe04b16f73ffffffffffffffffffffffffffffffffffffffff1663e87554466040518163ffffffff1660e01b8152600401602060405180830381865afa92505050801561258b57506040513d601f19601f820116820180604052508101906125889190614db0565b60015b612597575f905061259c565b809150505b5f8114806125b15750670de0b6b3a764000081115b156125bf5782915050612608565b5f670de0b6b3a764000082856125d59190614f94565b6125df9190615002565b90505f810361260257600184116125f657836125f9565b60015b92505050612608565b80925050505b919050565b612615614833565b5f8211801561262357508282105b61262d578261262f565b815b815f6008811061264257612641614e43565b5b6020020181815250506002836126589190615002565b8160016008811061266c5761266b614e43565b5b6020020181815250506004836126829190615002565b8160026008811061269657612695614e43565b5b602002018181525050600a836126ac9190615002565b816003600881106126c0576126bf614e43565b5b6020020181815250506064836126d69190615002565b816004600881106126ea576126e9614e43565b5b6020020181815250506103e8836127019190615002565b8160056008811061271557612714614e43565b5b60200201818152505060018160066008811061273457612733614e43565b5b602002018181525050620f42408160076008811061275557612754614e43565b5b6020020181815250505f5f90505b60088110156127b457838282600881106127805761277f614e43565b5b602002015111156127a9578382826008811061279f5761279e614e43565b5b6020020181815250505b806001019050612763565b5092915050565b5f5f8214806127cd57508260a0015182115b156127da575f9050612870565b5f5f6127e8855f0151612128565b92505091508115806127f957505f81145b15612808575f92505050612870565b5f5f5f61281e88602001518960600151896133aa565b92509250925082158061283157505f8214155b15612843575f95505050505050612870565b5f81148061285457508760e0015181115b15612866575f95505050505050612870565b6001955050505050505b92915050565b5f5f5f8473ffffffffffffffffffffffffffffffffffffffff166370a0823160e01b856040516024016128a99190614a3e565b604051602081830303815290604052907bffffffffffffffffffffffffffffffffffffffffffffffffffffffff19166020820180517bffffffffffffffffffffffffffffffffffffffffffffffffffffffff83818316178352505050506040516129139190614ec2565b5f60405180830381855afa9150503d805f811461294b576040519150601f19603f3d011682016040523d82523d5f602084013e612950565b606091505b5091509150811580612963575060208151105b15612972575f9250505061298b565b808060200190518101906129869190614db0565b925050505b92915050565b5f5f82036129a1575f90506129c3565b81670de0b6b3a7640000846129b69190614f94565b6129c09190615002565b90505b92915050565b5f5f8473ffffffffffffffffffffffffffffffffffffffff1663a9059cbb60e01b85856040516024016129fd929190614ed8565b604051602081830303815290604052907bffffffffffffffffffffffffffffffffffffffffffffffffffffffff19166020820180517bffffffffffffffffffffffffffffffffffffffffffffffffffffffff8381831617835250505050604051612a679190614ec2565b5f604051808303815f865af19150503d805f8114612aa0576040519150601f19603f3d011682016040523d82523d5f602084013e612aa5565b606091505b5091509150818015612ad257505f81511480612ad1575080806020019051810190612ad091906152d2565b5b5b612b11576040517f08c379a0000000000000000000000000000000000000000000000000000000008152600401612b0890615934565b60405180910390fd5b5050505050565b60605f73ffffffffffffffffffffffffffffffffffffffff168273ffffffffffffffffffffffffffffffffffffffff1603612c3b57600267ffffffffffffffff811115612b6857612b67615614565b5b604051908082528060200260200182016040528015612b965781602001602082028036833780820191505090505b50905083815f81518110612bad57612bac614e43565b5b602002602001019073ffffffffffffffffffffffffffffffffffffffff16908173ffffffffffffffffffffffffffffffffffffffff16815250508281600181518110612bfc57612bfb614e43565b5b602002602001019073ffffffffffffffffffffffffffffffffffffffff16908173ffffffffffffffffffffffffffffffffffffffff1681525050612d74565b600367ffffffffffffffff811115612c5657612c55615614565b5b604051908082528060200260200182016040528015612c845781602001602082028036833780820191505090505b50905083815f81518110612c9b57612c9a614e43565b5b602002602001019073ffffffffffffffffffffffffffffffffffffffff16908173ffffffffffffffffffffffffffffffffffffffff16815250508181600181518110612cea57612ce9614e43565b5b602002602001019073ffffffffffffffffffffffffffffffffffffffff16908173ffffffffffffffffffffffffffffffffffffffff16815250508281600281518110612d3957612d38614e43565b5b602002602001019073ffffffffffffffffffffffffffffffffffffffff16908173ffffffffffffffffffffffffffffffffffffffff16815250505b9392505050565b5f733f2d1bc6d02522dbcdb216b2e75edddafe04b16f73ffffffffffffffffffffffffffffffffffffffff16637515bafa836040518263ffffffff1660e01b8152600401612dc99190614a66565b602060405180830381865afa925050508015612e0357506040513d601f19601f82011682018060405250810190612e009190615079565b60015b612e0f575f9050612e14565b809150505b919050565b5f733f2d1bc6d02522dbcdb216b2e75edddafe04b16f73ffffffffffffffffffffffffffffffffffffffff166352d84d1e836040518263ffffffff1660e01b8152600401612e679190614a66565b602060405180830381865afa925050508015612ea157506040513d601f19601f82011682018060405250810190612e9e9190615079565b60015b612ead575f9050612eb2565b809150505b919050565b5f5f733f2d1bc6d02522dbcdb216b2e75edddafe04b16f73ffffffffffffffffffffffffffffffffffffffff16638e8f294b846040518263ffffffff1660e01b8152600401612f069190614a3e565b6040805180830381865afa925050508015612f3f57506040513d601f19601f82011682018060405250810190612f3c9190615952565b60015b612f4e575f5f91509150612f57565b81819350935050505b915091565b612f64614856565b5f5f5f612f70856134f2565b9150915080612f8657835f935093505050613082565b5f5f612f91876135a7565b9150915080612fa957855f9550955050505050613082565b5f5f5f612fb68b8b6136d2565b925092509250821580612fc857505f82145b80612fd257505f81145b15612fe957885f9850985050505050505050613082565b89895f019073ffffffffffffffffffffffffffffffffffffffff16908173ffffffffffffffffffffffffffffffffffffffff168152505086896020019073ffffffffffffffffffffffffffffffffffffffff16908173ffffffffffffffffffffffffffffffffffffffff168152505081896040018181525050808960600181815250508489608001818152505060019750505050505050505b9250929050565b613091614728565b5f5f5f61309d856134f2565b91509150806130b357835f9350935050506133a2565b5f5f6130bf878a6137a0565b915091508115806130cf57505f81145b156130e357855f95509550505050506133a2565b5f5f6130ee896135a7565b915091508061310857875f975097505050505050506133a2565b8a885f019073ffffffffffffffffffffffffffffffffffffffff16908173ffffffffffffffffffffffffffffffffffffffff168152505088886020019073ffffffffffffffffffffffffffffffffffffffff16908173ffffffffffffffffffffffffffffffffffffffff168152505085886040019073ffffffffffffffffffffffffffffffffffffffff16908173ffffffffffffffffffffffffffffffffffffffff1681525050895f0151886060019073ffffffffffffffffffffffffffffffffffffffff16908173ffffffffffffffffffffffffffffffffffffffff16815250508960200151886080019073ffffffffffffffffffffffffffffffffffffffff16908173ffffffffffffffffffffffffffffffffffffffff1681525050828860a001818152505089604001518860c001818152505089606001518860e0018181525050818861010001818152505089608001518861012001818152505061326f886137f3565b96505f870361328957875f975097505050505050506133a2565b5f613298896040015130610e13565b0361339b576132af88604001518960800151613857565b8a610140018b610160018c610180018373ffffffffffffffffffffffffffffffffffffffff1673ffffffffffffffffffffffffffffffffffffffff168152508373ffffffffffffffffffffffffffffffffffffffff1673ffffffffffffffffffffffffffffffffffffffff168152508373ffffffffffffffffffffffffffffffffffffffff1673ffffffffffffffffffffffffffffffffffffffff168152505050505f73ffffffffffffffffffffffffffffffffffffffff1688610140015173ffffffffffffffffffffffffffffffffffffffff160361339a57875f975097505050505050506133a2565b5b5050505050505b935093915050565b5f5f5f5f5f733f2d1bc6d02522dbcdb216b2e75edddafe04b16f73ffffffffffffffffffffffffffffffffffffffff1663c488847b60e01b8989896040516024016133f793929190615990565b604051602081830303815290604052907bffffffffffffffffffffffffffffffffffffffffffffffffffffffff19166020820180517bffffffffffffffffffffffffffffffffffffffffffffffffffffffff83818316178352505050506040516134619190614ec2565b5f60405180830381855afa9150503d805f8114613499576040519150601f19603f3d011682016040523d82523d5f602084013e61349e565b606091505b50915091508115806134b1575060408151105b156134c6575f5f5f94509450945050506134e9565b808060200190518101906134da91906159c5565b80945081955050506001945050505b93509350939050565b5f5f8273ffffffffffffffffffffffffffffffffffffffff16636f307dc36040518163ffffffff1660e01b8152600401602060405180830381865afa92505050801561355c57506040513d601f19601f820116820180604052508101906135599190615079565b60015b61356b575f5f915091506135a2565b805f73ffffffffffffffffffffffffffffffffffffffff168273ffffffffffffffffffffffffffffffffffffffff16141592509250505b915091565b5f5f5f5f6135b3612486565b73ffffffffffffffffffffffffffffffffffffffff1663fc57d4df60e01b866040516024016135e29190614a3e565b604051602081830303815290604052907bffffffffffffffffffffffffffffffffffffffffffffffffffffffff19166020820180517bffffffffffffffffffffffffffffffffffffffffffffffffffffffff838183161783525050505060405161364c9190614ec2565b5f60405180830381855afa9150503d805f8114613684576040519150601f19603f3d011682016040523d82523d5f602084013e613689565b606091505b509150915081158061369c575060208151105b156136ae575f5f9350935050506136cd565b808060200190518101906136c29190614db0565b93505f841415925050505b915091565b5f5f5f5f5f5f5f6136e3888a6139e9565b9450509350935093508315806136f957505f8314155b8061370357505f82145b8061370d57505f81145b15613724575f5f5f96509650965050505050613799565b5f5f61372f8a613b2a565b9150915080158061373f57505f82145b15613758575f5f5f985098509850505050505050613799565b6137628284612991565b965083871115613770578396505b5f870361378b575f5f5f985098509850505050505050613799565b600184985098505050505050505b9250925092565b5f5f5f5f5f6137af87876139e9565b50935050925092508215806137c457505f8214155b806137ce57505f81145b156137e1575f5f945094505050506137ec565b600181945094505050505b9250929050565b5f5f8260a00151148061380957505f8260e00151145b15613816575f9050613852565b5f826101000151148061382d57505f826101200151145b1561383a575f9050613852565b8161010001518260a0015161384f9190614f94565b90505b919050565b5f5f5f613878735c69bee701ef814a2b6a3edd4b1652cb9cc5aa6f86613c41565b50809350505f73ffffffffffffffffffffffffffffffffffffffff168373ffffffffffffffffffffffffffffffffffffffff16141580156138d457506138d3735c69bee701ef814a2b6a3edd4b1652cb9cc5aa6f8587613ec6565b5b15613919576138f8735c69bee701ef814a2b6a3edd4b1652cb9cc5aa6f85876142fa565b905082737a250d5630b4cf539739df2c5dacb4c659f2488d925092506139e2565b61393773c0aee478e3658e2610c5f7a4a2e1777ce9e4f2ac86613c41565b50809350505f73ffffffffffffffffffffffffffffffffffffffff168373ffffffffffffffffffffffffffffffffffffffff1614158015613993575061399273c0aee478e3658e2610c5f7a4a2e1777ce9e4f2ac8587613ec6565b5b156139d8576139b773c0aee478e3658e2610c5f7a4a2e1777ce9e4f2ac85876142fa565b90508273d9e1ce17f2641f24ae83637ab66a2cca9c378b9f925092506139e2565b5f5f5f9250925092505b9250925092565b5f5f5f5f5f5f5f8873ffffffffffffffffffffffffffffffffffffffff1663c37f68e260e01b89604051602401613a209190614a3e565b604051602081830303815290604052907bffffffffffffffffffffffffffffffffffffffffffffffffffffffff19166020820180517bffffffffffffffffffffffffffffffffffffffffffffffffffffffff8381831617835250505050604051613a8a9190614ec2565b5f60405180830381855afa9150503d805f8114613ac2576040519150601f19603f3d011682016040523d82523d5f602084013e613ac7565b606091505b5091509150811580613ada575060808151105b15613af5575f5f5f5f5f965096509650965096505050613b20565b80806020019051810190613b099190615a03565b809650819750829850839950505050506001965050505b9295509295909350565b5f5f5f5f8473ffffffffffffffffffffffffffffffffffffffff16633b1d21a260e01b604051602401604051602081830303815290604052907bffffffffffffffffffffffffffffffffffffffffffffffffffffffff19166020820180517bffffffffffffffffffffffffffffffffffffffffffffffffffffffff8381831617835250505050604051613bbd9190614ec2565b5f60405180830381855afa9150503d805f8114613bf5576040519150601f19603f3d011682016040523d82523d5f602084013e613bfa565b606091505b5091509150811580613c0d575060208151105b15613c1f575f5f935093505050613c3c565b80806020019051810190613c339190614db0565b93506001925050505b915091565b5f5f5f604051806080016040528073c02aaa39b223fe8d0a0e5c4f27ead9083c756cc273ffffffffffffffffffffffffffffffffffffffff1673ffffffffffffffffffffffffffffffffffffffff16815260200173a0b86991c6218b36c1d19d4a2e9eb0ce3606eb4873ffffffffffffffffffffffffffffffffffffffff1673ffffffffffffffffffffffffffffffffffffffff16815260200173dac17f958d2ee523a2206206994597c13d831ec773ffffffffffffffffffffffffffffffffffffffff1673ffffffffffffffffffffffffffffffffffffffff168152602001736b175474e89094c44da98b954eedeac495271d0f73ffffffffffffffffffffffffffffffffffffffff1673ffffffffffffffffffffffffffffffffffffffff1681525090505f5f90505b6004811015613eb6578473ffffffffffffffffffffffffffffffffffffffff16828260048110613d9f57613d9e614e43565b5b602002015173ffffffffffffffffffffffffffffffffffffffff160315613eab578573ffffffffffffffffffffffffffffffffffffffff1663e6a4390586848460048110613df057613def614e43565b5b60200201516040518363ffffffff1660e01b8152600401613e12929190615a67565b602060405180830381865afa158015613e2d573d5f5f3e3d5ffd5b505050506040513d601f19601f82011682018060405250810190613e519190615079565b93505f73ffffffffffffffffffffffffffffffffffffffff168473ffffffffffffffffffffffffffffffffffffffff1614613eaa5783828260048110613e9a57613e99614e43565b5b6020020151935093505050613ebf565b5b806001019050613d6c565b505f5f92509250505b9250929050565b5f8173ffffffffffffffffffffffffffffffffffffffff168373ffffffffffffffffffffffffffffffffffffffff1603613f0357600190506142f3565b5f73ffffffffffffffffffffffffffffffffffffffff168473ffffffffffffffffffffffffffffffffffffffff1663e6a4390585856040518363ffffffff1660e01b8152600401613f55929190615a67565b602060405180830381865afa158015613f70573d5f5f3e3d5ffd5b505050506040513d601f19601f82011682018060405250810190613f949190615079565b73ffffffffffffffffffffffffffffffffffffffff1614613fb857600190506142f3565b5f604051806080016040528073c02aaa39b223fe8d0a0e5c4f27ead9083c756cc273ffffffffffffffffffffffffffffffffffffffff1673ffffffffffffffffffffffffffffffffffffffff16815260200173a0b86991c6218b36c1d19d4a2e9eb0ce3606eb4873ffffffffffffffffffffffffffffffffffffffff1673ffffffffffffffffffffffffffffffffffffffff16815260200173dac17f958d2ee523a2206206994597c13d831ec773ffffffffffffffffffffffffffffffffffffffff1673ffffffffffffffffffffffffffffffffffffffff168152602001736b175474e89094c44da98b954eedeac495271d0f73ffffffffffffffffffffffffffffffffffffffff1673ffffffffffffffffffffffffffffffffffffffff1681525090505f5f90505b60048110156142ed575f8282600481106140fe576140fd614e43565b5b602002015190508573ffffffffffffffffffffffffffffffffffffffff168173ffffffffffffffffffffffffffffffffffffffff16148061416a57508473ffffffffffffffffffffffffffffffffffffffff168173ffffffffffffffffffffffffffffffffffffffff16145b1561417557506142e2565b5f73ffffffffffffffffffffffffffffffffffffffff168773ffffffffffffffffffffffffffffffffffffffff1663e6a4390588846040518363ffffffff1660e01b81526004016141c7929190615a67565b602060405180830381865afa1580156141e2573d5f5f3e3d5ffd5b505050506040513d601f19601f820116820180604052508101906142069190615079565b73ffffffffffffffffffffffffffffffffffffffff16141580156142cf57505f73ffffffffffffffffffffffffffffffffffffffff168773ffffffffffffffffffffffffffffffffffffffff1663e6a4390583886040518363ffffffff1660e01b8152600401614277929190615a67565b602060405180830381865afa158015614292573d5f5f3e3d5ffd5b505050506040513d601f19601f820116820180604052508101906142b69190615079565b73ffffffffffffffffffffffffffffffffffffffff1614155b156142e057600193505050506142f3565b505b8060010190506140e1565b505f9150505b9392505050565b5f8173ffffffffffffffffffffffffffffffffffffffff168373ffffffffffffffffffffffffffffffffffffffff1614806143da57505f73ffffffffffffffffffffffffffffffffffffffff168473ffffffffffffffffffffffffffffffffffffffff1663e6a4390585856040518363ffffffff1660e01b8152600401614382929190615a67565b602060405180830381865afa15801561439d573d5f5f3e3d5ffd5b505050506040513d601f19601f820116820180604052508101906143c19190615079565b73ffffffffffffffffffffffffffffffffffffffff1614155b156143e7575f9050614721565b5f604051806080016040528073c02aaa39b223fe8d0a0e5c4f27ead9083c756cc273ffffffffffffffffffffffffffffffffffffffff1673ffffffffffffffffffffffffffffffffffffffff16815260200173a0b86991c6218b36c1d19d4a2e9eb0ce3606eb4873ffffffffffffffffffffffffffffffffffffffff1673ffffffffffffffffffffffffffffffffffffffff16815260200173dac17f958d2ee523a2206206994597c13d831ec773ffffffffffffffffffffffffffffffffffffffff1673ffffffffffffffffffffffffffffffffffffffff168152602001736b175474e89094c44da98b954eedeac495271d0f73ffffffffffffffffffffffffffffffffffffffff1673ffffffffffffffffffffffffffffffffffffffff1681525090505f5f90505b600481101561471b575f82826004811061452d5761452c614e43565b5b602002015190508573ffffffffffffffffffffffffffffffffffffffff168173ffffffffffffffffffffffffffffffffffffffff16148061459957508473ffffffffffffffffffffffffffffffffffffffff168173ffffffffffffffffffffffffffffffffffffffff16145b156145a45750614710565b5f73ffffffffffffffffffffffffffffffffffffffff168773ffffffffffffffffffffffffffffffffffffffff1663e6a4390588846040518363ffffffff1660e01b81526004016145f6929190615a67565b602060405180830381865afa158015614611573d5f5f3e3d5ffd5b505050506040513d601f19601f820116820180604052508101906146359190615079565b73ffffffffffffffffffffffffffffffffffffffff16141580156146fe57505f73ffffffffffffffffffffffffffffffffffffffff168773ffffffffffffffffffffffffffffffffffffffff1663e6a4390583886040518363ffffffff1660e01b81526004016146a6929190615a67565b602060405180830381865afa1580156146c1573d5f5f3e3d5ffd5b505050506040513d601f19601f820116820180604052508101906146e59190615079565b73ffffffffffffffffffffffffffffffffffffffff1614155b1561470e57809350505050614721565b505b806001019050614510565b505f9150505b9392505050565b604051806101a001604052805f73ffffffffffffffffffffffffffffffffffffffff1681526020015f73ffffffffffffffffffffffffffffffffffffffff1681526020015f73ffffffffffffffffffffffffffffffffffffffff1681526020015f73ffffffffffffffffffffffffffffffffffffffff1681526020015f73ffffffffffffffffffffffffffffffffffffffff1681526020015f81526020015f81526020015f81526020015f81526020015f81526020015f73ffffffffffffffffffffffffffffffffffffffff1681526020015f73ffffffffffffffffffffffffffffffffffffffff1681526020015f73ffffffffffffffffffffffffffffffffffffffff1681525090565b604051806101000160405280600890602082028036833780820191505090505090565b6040518060a001604052805f73ffffffffffffffffffffffffffffffffffffffff1681526020015f73ffffffffffffffffffffffffffffffffffffffff1681526020015f81526020015f81526020015f81525090565b5f604051905090565b5f5ffd5b5f5ffd5b5f73ffffffffffffffffffffffffffffffffffffffff82169050919050565b5f6148e6826148bd565b9050919050565b6148f6816148dc565b8114614900575f5ffd5b50565b5f81359050614911816148ed565b92915050565b5f819050919050565b61492981614917565b8114614933575f5ffd5b50565b5f8135905061494481614920565b92915050565b5f5ffd5b5f5ffd5b5f5ffd5b5f5f83601f84011261496b5761496a61494a565b5b8235905067ffffffffffffffff8111156149885761498761494e565b5b6020830191508360018202830111156149a4576149a3614952565b5b9250929050565b5f5f5f5f5f608086880312156149c4576149c36148b5565b5b5f6149d188828901614903565b95505060206149e288828901614936565b94505060406149f388828901614936565b935050606086013567ffffffffffffffff811115614a1457614a136148b9565b5b614a2088828901614956565b92509250509295509295909350565b614a38816148dc565b82525050565b5f602082019050614a515f830184614a2f565b92915050565b614a6081614917565b82525050565b5f602082019050614a795f830184614a57565b92915050565b5f82825260208201905092915050565b7f6e6f2d63616e64696461746500000000000000000000000000000000000000005f82015250565b5f614ac3600c83614a7f565b9150614ace82614a8f565b602082019050919050565b5f6020820190508181035f830152614af081614ab7565b9050919050565b7f6e6f2d766961626c652d726570617900000000000000000000000000000000005f82015250565b5f614b2b600f83614a7f565b9150614b3682614af7565b602082019050919050565b5f6020820190508181035f830152614b5881614b1f565b9050919050565b7f6e6f2d666c6173682d726f7574650000000000000000000000000000000000005f82015250565b5f614b93600e83614a7f565b9150614b9e82614b5f565b602082019050919050565b5f6020820190508181035f830152614bc081614b87565b9050919050565b7f6e6f2d70726f6669742d7265616c697a656400000000000000000000000000005f82015250565b5f614bfb601283614a7f565b9150614c0682614bc7565b602082019050919050565b5f6020820190508181035f830152614c2881614bef565b9050919050565b7f6261642d73656e646572000000000000000000000000000000000000000000005f82015250565b5f614c63600a83614a7f565b9150614c6e82614c2f565b602082019050919050565b5f6020820190508181035f830152614c9081614c57565b9050919050565b7f6261642d706169720000000000000000000000000000000000000000000000005f82015250565b5f614ccb600883614a7f565b9150614cd682614c97565b602082019050919050565b5f6020820190508181035f830152614cf881614cbf565b9050919050565b7f6261642d616d6f756e74000000000000000000000000000000000000000000005f82015250565b5f614d33600a83614a7f565b9150614d3e82614cff565b602082019050919050565b5f6020820190508181035f830152614d6081614d27565b9050919050565b5f606082019050614d7a5f830186614a2f565b614d876020830185614a57565b614d946040830184614a2f565b949350505050565b5f81519050614daa81614920565b92915050565b5f60208284031215614dc557614dc46148b5565b5b5f614dd284828501614d9c565b91505092915050565b7f6c69717569646174652d6661696c6564000000000000000000000000000000005f82015250565b5f614e0f601083614a7f565b9150614e1a82614ddb565b602082019050919050565b5f6020820190508181035f830152614e3c81614e03565b9050919050565b7f4e487b71000000000000000000000000000000000000000000000000000000005f52603260045260245ffd5b5f81519050919050565b5f81905092915050565b8281835e5f83830152505050565b5f614e9c82614e70565b614ea68185614e7a565b9350614eb6818560208601614e84565b80840191505092915050565b5f614ecd8284614e92565b915081905092915050565b5f604082019050614eeb5f830185614a2f565b614ef86020830184614a57565b9392505050565b7f6d616e6970756c6174696f6e2d696e73756666696369656e74000000000000005f82015250565b5f614f33601983614a7f565b9150614f3e82614eff565b602082019050919050565b5f6020820190508181035f830152614f6081614f27565b9050919050565b7f4e487b71000000000000000000000000000000000000000000000000000000005f52601160045260245ffd5b5f614f9e82614917565b9150614fa983614917565b9250828202614fb781614917565b91508282048414831517614fce57614fcd614f67565b5b5092915050565b7f4e487b71000000000000000000000000000000000000000000000000000000005f52601260045260245ffd5b5f61500c82614917565b915061501783614917565b92508261502757615026614fd5565b5b828204905092915050565b5f61503c82614917565b915061504783614917565b925082820190508082111561505f5761505e614f67565b5b92915050565b5f81519050615073816148ed565b92915050565b5f6020828403121561508e5761508d6148b5565b5b5f61509b84828501615065565b91505092915050565b5f819050919050565b5f819050919050565b5f6150d06150cb6150c6846150a4565b6150ad565b614917565b9050919050565b6150e0816150b6565b82525050565b5f82825260208201905092915050565b5f601f19601f8301169050919050565b5f61511082614e70565b61511a81856150e6565b935061512a818560208601614e84565b615133816150f6565b840191505092915050565b5f6080820190506151515f830187614a57565b61515e60208301866150d7565b61516b6040830185614a2f565b818103606083015261517d8184615106565b905095945050505050565b7f706169722d6d69736d61746368000000000000000000000000000000000000005f82015250565b5f6151bc600d83614a7f565b91506151c782615188565b602082019050919050565b5f6020820190508181035f8301526151e9816151b0565b9050919050565b5f6080820190506152035f8301876150d7565b6152106020830186614a57565b61521d6040830185614a2f565b818103606083015261522f8184615106565b905095945050505050565b5f60ff82169050919050565b5f61526061525b615256846150a4565b6150ad565b61523a565b9050919050565b61527081615246565b82525050565b5f6040820190506152895f830185614a2f565b6152966020830184615267565b9392505050565b5f8115159050919050565b6152b18161529d565b81146152bb575f5ffd5b50565b5f815190506152cc816152a8565b92915050565b5f602082840312156152e7576152e66148b5565b5b5f6152f4848285016152be565b91505092915050565b7f617070726f76652d6661696c65640000000000000000000000000000000000005f82015250565b5f615331600e83614a7f565b915061533c826152fd565b602082019050919050565b5f6020820190508181035f83015261535e81615325565b9050919050565b7f6e6f2d636f6c6c61746572616c2d7365697a65640000000000000000000000005f82015250565b5f615399601483614a7f565b91506153a482615365565b602082019050919050565b5f6020820190508181035f8301526153c68161538d565b9050919050565b7f6e6f2d72656465656d61626c652d636f6c6c61746572616c00000000000000005f82015250565b5f615401601883614a7f565b915061540c826153cd565b602082019050919050565b5f6020820190508181035f83015261542e816153f5565b9050919050565b7f72656465656d2d6661696c6564000000000000000000000000000000000000005f82015250565b5f615469600d83614a7f565b915061547482615435565b602082019050919050565b5f6020820190508181035f8301526154968161545d565b9050919050565b7f6e6f2d636f6c6c61746572616c2d756e6465726c79696e6700000000000000005f82015250565b5f6154d1601883614a7f565b91506154dc8261549d565b602082019050919050565b5f6020820190508181035f8301526154fe816154c5565b9050919050565b5f81519050919050565b5f82825260208201905092915050565b5f819050602082019050919050565b615537816148dc565b82525050565b5f615548838361552e565b60208301905092915050565b5f602082019050919050565b5f61556a82615505565b615574818561550f565b935061557f8361551f565b805f5b838110156155af578151615596888261553d565b97506155a183615554565b925050600181019050615582565b5085935050505092915050565b5f60a0820190506155cf5f830188614a57565b6155dc6020830187614a57565b81810360408301526155ee8186615560565b90506155fd6060830185614a2f565b61560a6080830184614a57565b9695505050505050565b7f4e487b71000000000000000000000000000000000000000000000000000000005f52604160045260245ffd5b61564a826150f6565b810181811067ffffffffffffffff8211171561566957615668615614565b5b80604052505050565b5f61567b6148ac565b90506156878282615641565b919050565b5f67ffffffffffffffff8211156156a6576156a5615614565b5b602082029050602081019050919050565b5f6156c96156c48461568c565b615672565b905080838252602082019050602084028301858111156156ec576156eb614952565b5b835b8181101561571557806157018882614d9c565b8452602084019350506020810190506156ee565b5050509392505050565b5f82601f8301126157335761573261494a565b5b81516157438482602086016156b7565b91505092915050565b5f60208284031215615761576157606148b5565b5b5f82015167ffffffffffffffff81111561577e5761577d6148b9565b5b61578a8482850161571f565b91505092915050565b5f67ffffffffffffffff8211156157ad576157ac615614565b5b602082029050602081019050919050565b5f6157d06157cb84615793565b615672565b905080838252602082019050602084028301858111156157f3576157f2614952565b5b835b8181101561581c57806158088882615065565b8452602084019350506020810190506157f5565b5050509392505050565b5f82601f83011261583a5761583961494a565b5b815161584a8482602086016157be565b91505092915050565b5f60208284031215615868576158676148b5565b5b5f82015167ffffffffffffffff811115615885576158846148b9565b5b61589184828501615826565b91505092915050565b5f5f5f606084860312156158b1576158b06148b5565b5b5f6158be86828701614d9c565b93505060206158cf86828701614d9c565b92505060406158e086828701614d9c565b9150509250925092565b7f7472616e736665722d6661696c656400000000000000000000000000000000005f82015250565b5f61591e600f83614a7f565b9150615929826158ea565b602082019050919050565b5f6020820190508181035f83015261594b81615912565b9050919050565b5f5f60408385031215615968576159676148b5565b5b5f615975858286016152be565b925050602061598685828601614d9c565b9150509250929050565b5f6060820190506159a35f830186614a2f565b6159b06020830185614a2f565b6159bd6040830184614a57565b949350505050565b5f5f604083850312156159db576159da6148b5565b5b5f6159e885828601614d9c565b92505060206159f985828601614d9c565b9150509250929050565b5f5f5f5f60808587031215615a1b57615a1a6148b5565b5b5f615a2887828801614d9c565b9450506020615a3987828801614d9c565b9350506040615a4a87828801614d9c565b9250506060615a5b87828801614d9c565b91505092959194509250565b5f604082019050615a7a5f830185614a2f565b615a876020830184614a2f565b939250505056fea264697066735822122095d811a35be9cf74af9bfba71ef03169a4b45d38a62da56a9ef1deef2869fd3264736f6c634300081e0033","linkReferences":{}},"methodIdentifiers":{"TARGET_COMPTROLLER()":"68510be1","executeOnOpportunity()":"3c2448ed","profitAmount()":"5ff972cc","profitToken()":"49343624","sushiCall(address,uint256,uint256,bytes)":"00991403","uniswapV2Call(address,uint256,uint256,bytes)":"10d1e85c"},"id":0}