{"abi":[{"type":"constructor","inputs":[],"stateMutability":"nonpayable"},{"type":"function","name":"TARGET_PAIR","inputs":[],"outputs":[{"name":"","type":"address","internalType":"address"}],"stateMutability":"view"},{"type":"function","name":"executeOnOpportunity","inputs":[],"outputs":[],"stateMutability":"nonpayable"},{"type":"function","name":"exploitPath","inputs":[],"outputs":[{"name":"","type":"uint8","internalType":"uint8"}],"stateMutability":"view"},{"type":"function","name":"failureCode","inputs":[],"outputs":[{"name":"","type":"uint8","internalType":"uint8"}],"stateMutability":"view"},{"type":"function","name":"hypothesisValidated","inputs":[],"outputs":[{"name":"","type":"bool","internalType":"bool"}],"stateMutability":"view"},{"type":"function","name":"pancakeCall","inputs":[{"name":"sender","type":"address","internalType":"address"},{"name":"amount0","type":"uint256","internalType":"uint256"},{"name":"amount1","type":"uint256","internalType":"uint256"},{"name":"data","type":"bytes","internalType":"bytes"}],"outputs":[],"stateMutability":"nonpayable"},{"type":"function","name":"profitAmount","inputs":[],"outputs":[{"name":"","type":"uint256","internalType":"uint256"}],"stateMutability":"view"},{"type":"function","name":"profitToken","inputs":[],"outputs":[{"name":"","type":"address","internalType":"address"}],"stateMutability":"view"},{"type":"function","name":"sushiCall","inputs":[{"name":"sender","type":"address","internalType":"address"},{"name":"amount0","type":"uint256","internalType":"uint256"},{"name":"amount1","type":"uint256","internalType":"uint256"},{"name":"data","type":"bytes","internalType":"bytes"}],"outputs":[],"stateMutability":"nonpayable"},{"type":"function","name":"uniswapV2Call","inputs":[{"name":"sender","type":"address","internalType":"address"},{"name":"amount0","type":"uint256","internalType":"uint256"},{"name":"amount1","type":"uint256","internalType":"uint256"},{"name":"data","type":"bytes","internalType":"bytes"}],"outputs":[],"stateMutability":"nonpayable"}],"bytecode":{"object":"0x60808060405234601557611b45908161001a8239f35b5f80fdfe60806040526004361015610011575f80fd5b5f3560e01c80629914031461019d57806310d1e85c146100f25780631895f0351461017a5780633c2448ed14610160578063463defd11461013b57806349343624146101145780635ff972cc146100f757806384800812146100f2578063ac7ab8d2146100cb5763cb707c6214610086575f80fd5b346100c7575f3660031901126100c75760ff60025460101c1660038110156100b357602090604051908152f35b634e487b7160e01b5f52602160045260245ffd5b5f80fd5b346100c7575f3660031901126100c75760206040515f516020611af05f395f51905f528152f35b61019d565b346100c7575f3660031901126100c7576020600154604051908152f35b346100c7575f3660031901126100c7575f546040516001600160a01b039091168152602090f35b346100c7575f3660031901126100c757602060ff60025460081c166040519015158152f35b346100c7575f3660031901126100c757610178610bb8565b005b346100c7575f3660031901126100c757602060ff60025460181c16604051908152f35b346100c75760803660031901126100c7576004356001600160a01b038116908181036100c757505f90602435906044356064359167ffffffffffffffff83116100c757366023840112156100c75782600401359267ffffffffffffffff84116100c7576024810193808201903660248301116100c757506020919003126100c7576040519261022b84610afd565b356001600160a01b03811681036100c7578084526001600160a01b03163303610acb573003610a99578151604051630dfe168160e01b815293906001600160a01b0316602085600481845afa90811561092f576004955f92610a77575b506020906040519687809263d21220a760e01b82525afa94851561092f575f95610a47575b506001600160a01b03165f516020611ad05f395f51905f5214918215610a3f5750925b8115610a1f575b50156109e857600182036109af57604051630dfe168160e01b81526020816004815f516020611af05f395f51905f525afa90811561092f575f91610990575b5060405163d21220a760e01b8152906020826004815f516020611af05f395f51905f525afa91821561092f575f9261095f575b50604051630240bc6b60e21b81526060816004815f516020611af05f395f51905f525afa801561092f5786935f925f9261093a575b506001600160a01b0381165f516020611ad05f395f51905f52036107815750906001600160701b03806103b393169116611176565b6103be811515610fd5565b6103c661124d565b604051906103d5602083610b2d565b8382525f516020611af05f395f51905f523b1561077d5760405163022c0d9f60e01b8152918491839182916104109190309060048501611090565b0381835f516020611af05f395f51905f525af190811561075d578391610768575b5050604051630240bc6b60e21b81526060816004815f516020611af05f395f51905f525afa801561075d5761049191610480918591869161071d575b506001600160701b0380911691166110f2565b9161048c83151561105b565b6112eb565b604051906104a0602083610b2d565b8282525f516020611af05f395f51905f523b1561070e5760405163022c0d9f60e01b8152918391839182916104db919030906004850161102e565b0381835f516020611af05f395f51905f525af18015610712576106f9575b50505b516001600160a01b0316906103e880820291801590830490911417156106e55782908190806106be57509181925b60405190602082019263a9059cbb60e01b84526024830152604482015260448152610556606482610b2d565b5190825f516020611ad05f395f51905f525af161057161120e565b81610686575b501561064f575f516020611ad05f395f51905f526bffffffffffffffffffffffff60a01b825416178155808060405160208101906370a0823160e01b8252306024820152602481526105ca604482610b2d565b51905f516020611ad05f395f51905f525afa6105e461120e565b9080610643575b1561060b57602081805181010312610607576020015160015580f35b5080fd5b60405162461bcd60e51b815260206004820152601060248201526f18985b185b98d953d98819985a5b195960821b6044820152606490fd5b506020815110156105eb565b60405162461bcd60e51b815260206004820152600f60248201526e1d1c985b9cd9995c8819985a5b1959608a1b6044820152606490fd5b805180159250821561069b575b50505f610577565b819250906020918101031261060757602001518015158103610607575f80610693565b5f1981019250821190506106e5576103e59004600181018091116106e5578291829161052a565b634e487b7160e01b83526011600452602483fd5b8161070391610b2d565b61070e57825f6104f9565b8280fd5b6040513d84823e3d90fd5b6001600160701b03925082915061074b9060603d606011610756575b6107438183610b2d565b810190610b82565b50929092915061046d565b503d610739565b6040513d85823e3d90fd5b8161077291610b2d565b61060757815f610431565b8380fd5b935061079a92506001600160701b0380911691166110f2565b6107a5811515610fd5565b6107ad61124d565b604051906107bc602083610b2d565b5f82525f516020611af05f395f51905f523b156100c75760405163022c0d9f60e01b8152915f91839182916107f7919030906004850161102e565b0381835f516020611af05f395f51905f525af1801561092f5761091a575b50604051630240bc6b60e21b81528491906060816004815f516020611af05f395f51905f525afa801561075d576108669161048091859186916108ea575b506001600160701b038091169116611176565b60405190610875602083610b2d565b8282525f516020611af05f395f51905f523b1561070e5760405163022c0d9f60e01b8152918391839182916108b09190309060048501611090565b0381835f516020611af05f395f51905f525af18015610712576108d5575b50506104fc565b816108df91610b2d565b61070e57825f6108ce565b6001600160701b03925082915061090f9060603d606011610756576107438183610b2d565b509290929150610853565b6109279194505f90610b2d565b5f925f610815565b6040513d5f823e3d90fd5b909250610956915060603d606011610756576107438183610b2d565b5090915f61037e565b61098291925060203d602011610989575b61097a8183610b2d565b810190610b4f565b905f610349565b503d610970565b6109a9915060203d6020116109895761097a8183610b2d565b5f610316565b60405162461bcd60e51b81526020600482015260116024820152701d5b995e1c1958dd195908185b5bdd5b9d607a1b6044820152606490fd5b60405162461bcd60e51b815260206004820152600f60248201526e3737b716bbb2ba34103632b73232b960891b6044820152606490fd5b6001600160a01b03165f516020611ad05f395f51905f521490505f6102d7565b9050926102d0565b5f516020611ad05f395f51905f52919550610a709060203d6020116109895761097a8183610b2d565b94906102ad565b6020919250610a9290823d84116109895761097a8183610b2d565b9190610288565b60405162461bcd60e51b815260206004820152600a6024820152693130b21039b2b73232b960b11b6044820152606490fd5b60405162461bcd60e51b815260206004820152600a6024820152693130b2103632b73232b960b11b6044820152606490fd5b6020810190811067ffffffffffffffff821117610b1957604052565b634e487b7160e01b5f52604160045260245ffd5b90601f8019910116810190811067ffffffffffffffff821117610b1957604052565b908160209103126100c757516001600160a01b03811681036100c75790565b51906001600160701b03821682036100c757565b908160609103126100c757610b9681610b6e565b916040610ba560208401610b6e565b92015163ffffffff811681036100c75790565b6002545f9060ff8116610f9d5760ff198116600117600255604051630dfe168160e01b8152906020826004815f516020611af05f395f51905f525afa91821561092f575f92610f7c575b5060405163d21220a760e01b8152906020826004815f516020611af05f395f51905f525afa91821561092f575f92610f5b575b50604051630240bc6b60e21b81526060816004815f516020611af05f395f51905f525afa90811561092f575f905f92610f31575b506001600160701b03169160018311801590610f1d575b610f0657506001600160701b03610ca29116610c9c81846110f2565b92611176565b90159081610efd575b50610ee5576002805461ff0019811661010017909155916001600160a01b03165f516020611ad05f395f51905f5203610e9f5750506202000062ff00001960025416176002555b6001600160a01b03610d026111d8565b168015610e8857604051630dfe168160e01b8152602081600481855afa90811561092f575f91610e69575b505f516020611ad05f395f51905f5260405191610d4983610afd565b8383526001600160a01b031603610dea576040805191516001600160a01b03166020808401919091528252610d7e9082610b2d565b813b1561070e57610dc38392839260405194858094819363022c0d9f60e01b83526001600484015283602484015230604484015260806064840152608483019061100a565b03925af1801561071257610dd5575050565b610de0828092610b2d565b610de75750565b80fd5b5090506040519080602083015260208252610e06604083610b2d565b803b156100c757610e4c5f9291839260405194858094819363022c0d9f60e01b83528360048401526001602484015230604484015260806064840152608483019061100a565b03925af1801561092f57610e5d5750565b5f610e6791610b2d565b565b610e82915060203d6020116109895761097a8183610b2d565b5f610d2d565b5050630400000063ff000000196002541617600255565b6001600160a01b03165f516020611ad05f395f51905f5203610ed257506201000062ff0000196002541617600255610cf2565b63ff00ff00191663030001001760025550565b505050630200000063ff000000196002541617600255565b9050155f610cab565b63ff0000ff19166301000001176002555050505050565b5060016001600160701b0383161115610c80565b6001600160701b039250610f54915060603d606011610756576107438183610b2d565b5091610c69565b610f7591925060203d6020116109895761097a8183610b2d565b905f610c35565b610f9691925060203d6020116109895761097a8183610b2d565b905f610c02565b60405162461bcd60e51b815260206004820152601060248201526f185b1c9958591e48195e1958dd5d195960821b6044820152606490fd5b15610fdc57565b60405162461bcd60e51b815260206004820152600660248201526573746167653160d01b6044820152606490fd5b805180835260209291819084018484015e5f828201840152601f01601f1916010190565b61105893926080925f8352602083015260018060a01b03166040820152816060820152019061100a565b90565b1561106257565b60405162461bcd60e51b815260206004820152600660248201526539ba30b3b29960d11b6044820152606490fd5b9081525f60208201526001600160a01b0390911660408201526080606082018190526110589291019061100a565b818102929181159184041417156110d157565b634e487b7160e01b5f52601160045260245ffd5b919082039182116110d157565b801580801561116b575b8015611164575b61115d576127108202908282046127101417156110d15761270681018091116110d157816064029160648304036110d15761114183611146936110be565b611336565b8181101561115757611058916110e5565b50505f90565b5050505f90565b505f611103565b5060018311156110fc565b9080158080156111cd575b80156111c6575b61115d576127108202908282046127101417156110d15761270681018091116110d157826064026064810484036110d15761114692611141916110be565b505f611188565b506001831115611181565b6111e0611375565b6001600160a01b03811661105857506111f76115cb565b6001600160a01b03811661105857506110586117f4565b3d15611248573d9067ffffffffffffffff8211610b19576040519161123d601f8201601f191660200184610b2d565b82523d5f602084013e565b606090565b5f80604051602081019063a9059cbb60e01b82525f516020611af05f395f51905f526024820152600160448201526044815261128a606482610b2d565b5190825f516020611ad05f395f51905f525af16112a561120e565b816112b3575b501561064f57565b80518015925082156112c8575b50505f6112ab565b81925090602091810103126100c7576020015180151581036100c7575f806112c0565b5f809160405182602082019163a9059cbb60e01b83525f516020611af05f395f51905f526024820152600160448201526044815261132a606482610b2d565b51925af16112a561120e565b806113415750505f90565b5f1981019081116110d15781156113615704600181018091116110d15790565b634e487b7160e01b5f52601260045260245ffd5b60405163e6a4390560e01b81525f516020611ad05f395f51905f52600482015273a0b86991c6218b36c1d19d4a2e9eb0ce3606eb486024820152602081604481735c69bee701ef814a2b6a3edd4b1652cb9cc5aa6f5afa90811561092f575f916115ac575b506113e481611a1d565b611058575060405163e6a4390560e01b81525f516020611ad05f395f51905f52600482015273dac17f958d2ee523a2206206994597c13d831ec76024820152602081604481735c69bee701ef814a2b6a3edd4b1652cb9cc5aa6f5afa90811561092f575f9161158d575b5061145881611a1d565b611058575060405163e6a4390560e01b81525f516020611ad05f395f51905f526004820152736b175474e89094c44da98b954eedeac495271d0f6024820152602081604481735c69bee701ef814a2b6a3edd4b1652cb9cc5aa6f5afa90811561092f575f9161156e575b506114cc81611a1d565b611058575060405163e6a4390560e01b81525f516020611ad05f395f51905f526004820152732260fac5e5542a773aa44fbcfedf7c193bc2c599602482015290602082604481735c69bee701ef814a2b6a3edd4b1652cb9cc5aa6f5afa91821561092f575f9261154d575b508161154281611a1d565b6115495750565b9150565b61156791925060203d6020116109895761097a8183610b2d565b905f611537565b611587915060203d6020116109895761097a8183610b2d565b5f6114c2565b6115a6915060203d6020116109895761097a8183610b2d565b5f61144e565b6115c5915060203d6020116109895761097a8183610b2d565b5f6113da565b60405163e6a4390560e01b81525f516020611ad05f395f51905f52600482015273a0b86991c6218b36c1d19d4a2e9eb0ce3606eb48602482015260208160448173c0aee478e3658e2610c5f7a4a2e1777ce9e4f2ac5afa90811561092f575f916117d5575b5061163a81611a1d565b611058575060405163e6a4390560e01b81525f516020611ad05f395f51905f52600482015273dac17f958d2ee523a2206206994597c13d831ec7602482015260208160448173c0aee478e3658e2610c5f7a4a2e1777ce9e4f2ac5afa90811561092f575f916117b6575b506116ae81611a1d565b611058575060405163e6a4390560e01b81525f516020611ad05f395f51905f526004820152736b175474e89094c44da98b954eedeac495271d0f602482015260208160448173c0aee478e3658e2610c5f7a4a2e1777ce9e4f2ac5afa90811561092f575f91611797575b5061172281611a1d565b611058575060405163e6a4390560e01b81525f516020611ad05f395f51905f526004820152732260fac5e5542a773aa44fbcfedf7c193bc2c59960248201529060208260448173c0aee478e3658e2610c5f7a4a2e1777ce9e4f2ac5afa91821561092f575f9261154d57508161154281611a1d565b6117b0915060203d6020116109895761097a8183610b2d565b5f611718565b6117cf915060203d6020116109895761097a8183610b2d565b5f6116a4565b6117ee915060203d6020116109895761097a8183610b2d565b5f611630565b60405163e6a4390560e01b81525f516020611ad05f395f51905f52600482015273a0b86991c6218b36c1d19d4a2e9eb0ce3606eb48602482015260208160448173115934131916c8b277dd010ee02de363c09d037c5afa90811561092f575f916119fe575b5061186381611a1d565b611058575060405163e6a4390560e01b81525f516020611ad05f395f51905f52600482015273dac17f958d2ee523a2206206994597c13d831ec7602482015260208160448173115934131916c8b277dd010ee02de363c09d037c5afa90811561092f575f916119df575b506118d781611a1d565b611058575060405163e6a4390560e01b81525f516020611ad05f395f51905f526004820152736b175474e89094c44da98b954eedeac495271d0f602482015260208160448173115934131916c8b277dd010ee02de363c09d037c5afa90811561092f575f916119c0575b5061194b81611a1d565b611058575060405163e6a4390560e01b81525f516020611ad05f395f51905f526004820152732260fac5e5542a773aa44fbcfedf7c193bc2c59960248201529060208260448173115934131916c8b277dd010ee02de363c09d037c5afa91821561092f575f9261154d57508161154281611a1d565b6119d9915060203d6020116109895761097a8183610b2d565b5f611941565b6119f8915060203d6020116109895761097a8183610b2d565b5f6118cd565b611a17915060203d6020116109895761097a8183610b2d565b5f611859565b6001600160a01b031680158015611ab9575b611ab457606060049160405192838092630240bc6b60e21b82525afa90811561092f575f905f92611a84575b506001600160701b0360019116119081611a73575090565b600191506001600160701b03161190565b6001600160701b03925060019150611aaa9060603d606011610756576107438183610b2d565b5092909150611a5b565b505f90565b505f516020611af05f395f51905f528114611a2f56fe000000000000000000000000c02aaa39b223fe8d0a0e5c4f27ead9083c756cc20000000000000000000000008ce2f9286f50fbe2464bfd881fab8effc8dc584fa2646970667358221220b18d7e9342c0c20d0c79dcfb0a2f6c0031f6847de3ed598e42ef0b4886ba655664736f6c634300081e0033","linkReferences":{}},"methodIdentifiers":{"TARGET_PAIR()":"ac7ab8d2","executeOnOpportunity()":"3c2448ed","exploitPath()":"cb707c62","failureCode()":"1895f035","hypothesisValidated()":"463defd1","pancakeCall(address,uint256,uint256,bytes)":"84800812","profitAmount()":"5ff972cc","profitToken()":"49343624","sushiCall(address,uint256,uint256,bytes)":"00991403","uniswapV2Call(address,uint256,uint256,bytes)":"10d1e85c"},"id":0}