{"abi":[{"type":"constructor","inputs":[],"stateMutability":"payable"},{"type":"receive","stateMutability":"payable"},{"type":"function","name":"LIVE_TARGET","inputs":[],"outputs":[{"name":"","type":"address","internalType":"address"}],"stateMutability":"view"},{"type":"function","name":"executeOnOpportunity","inputs":[],"outputs":[],"stateMutability":"nonpayable"},{"type":"function","name":"executed","inputs":[],"outputs":[{"name":"","type":"bool","internalType":"bool"}],"stateMutability":"view"},{"type":"function","name":"finalWethBalance","inputs":[],"outputs":[{"name":"","type":"uint256","internalType":"uint256"}],"stateMutability":"view"},{"type":"function","name":"firstExecutor","inputs":[],"outputs":[{"name":"","type":"address","internalType":"address"}],"stateMutability":"view"},{"type":"function","name":"firstObservedEthGain","inputs":[],"outputs":[{"name":"","type":"uint256","internalType":"uint256"}],"stateMutability":"view"},{"type":"function","name":"firstObservedWethGain","inputs":[],"outputs":[{"name":"","type":"uint256","internalType":"uint256"}],"stateMutability":"view"},{"type":"function","name":"firstSelectorTried","inputs":[],"outputs":[{"name":"","type":"bytes4","internalType":"bytes4"}],"stateMutability":"view"},{"type":"function","name":"firstTargetCallRevertHash","inputs":[],"outputs":[{"name":"","type":"bytes32","internalType":"bytes32"}],"stateMutability":"view"},{"type":"function","name":"firstTargetCallSucceeded","inputs":[],"outputs":[{"name":"","type":"bool","internalType":"bool"}],"stateMutability":"view"},{"type":"function","name":"initialWethBalance","inputs":[],"outputs":[{"name":"","type":"uint256","internalType":"uint256"}],"stateMutability":"view"},{"type":"function","name":"pairMutationAttempted","inputs":[],"outputs":[{"name":"","type":"bool","internalType":"bool"}],"stateMutability":"view"},{"type":"function","name":"pairMutationSucceeded","inputs":[],"outputs":[{"name":"","type":"bool","internalType":"bool"}],"stateMutability":"view"},{"type":"function","name":"pairResolved","inputs":[],"outputs":[{"name":"","type":"bool","internalType":"bool"}],"stateMutability":"view"},{"type":"function","name":"path0OperatorPrefundObserved","inputs":[],"outputs":[{"name":"","type":"bool","internalType":"bool"}],"stateMutability":"view"},{"type":"function","name":"path1ThirdPartyTriggerObserved","inputs":[],"outputs":[{"name":"","type":"bool","internalType":"bool"}],"stateMutability":"view"},{"type":"function","name":"path2OneShotOpportunityConsumed","inputs":[],"outputs":[{"name":"","type":"bool","internalType":"bool"}],"stateMutability":"view"},{"type":"function","name":"prefundUsedForceEther","inputs":[],"outputs":[{"name":"","type":"bool","internalType":"bool"}],"stateMutability":"view"},{"type":"function","name":"prefundUsedLocalBalance","inputs":[],"outputs":[{"name":"","type":"bool","internalType":"bool"}],"stateMutability":"view"},{"type":"function","name":"profitAmount","inputs":[],"outputs":[{"name":"","type":"uint256","internalType":"uint256"}],"stateMutability":"view"},{"type":"function","name":"profitToken","inputs":[],"outputs":[{"name":"","type":"address","internalType":"address"}],"stateMutability":"view"},{"type":"function","name":"reserve0After","inputs":[],"outputs":[{"name":"","type":"uint112","internalType":"uint112"}],"stateMutability":"view"},{"type":"function","name":"reserve0Before","inputs":[],"outputs":[{"name":"","type":"uint112","internalType":"uint112"}],"stateMutability":"view"},{"type":"function","name":"reserve1After","inputs":[],"outputs":[{"name":"","type":"uint112","internalType":"uint112"}],"stateMutability":"view"},{"type":"function","name":"reserve1Before","inputs":[],"outputs":[{"name":"","type":"uint112","internalType":"uint112"}],"stateMutability":"view"},{"type":"function","name":"secondObservedEthGain","inputs":[],"outputs":[{"name":"","type":"uint256","internalType":"uint256"}],"stateMutability":"view"},{"type":"function","name":"secondObservedWethGain","inputs":[],"outputs":[{"name":"","type":"uint256","internalType":"uint256"}],"stateMutability":"view"},{"type":"function","name":"secondSelectorTried","inputs":[],"outputs":[{"name":"","type":"bytes4","internalType":"bytes4"}],"stateMutability":"view"},{"type":"function","name":"secondTargetCallRevertHash","inputs":[],"outputs":[{"name":"","type":"bytes32","internalType":"bytes32"}],"stateMutability":"view"},{"type":"function","name":"secondTargetCallSucceeded","inputs":[],"outputs":[{"name":"","type":"bool","internalType":"bool"}],"stateMutability":"view"},{"type":"function","name":"targetEthAfterFirstCall","inputs":[],"outputs":[{"name":"","type":"uint256","internalType":"uint256"}],"stateMutability":"view"},{"type":"function","name":"targetEthAfterPrefund","inputs":[],"outputs":[{"name":"","type":"uint256","internalType":"uint256"}],"stateMutability":"view"},{"type":"function","name":"targetEthAfterSecondCall","inputs":[],"outputs":[{"name":"","type":"uint256","internalType":"uint256"}],"stateMutability":"view"},{"type":"function","name":"targetEthBefore","inputs":[],"outputs":[{"name":"","type":"uint256","internalType":"uint256"}],"stateMutability":"view"},{"type":"function","name":"targetPair","inputs":[],"outputs":[{"name":"","type":"address","internalType":"address"}],"stateMutability":"view"},{"type":"function","name":"targetWethAfterFirstCall","inputs":[],"outputs":[{"name":"","type":"uint256","internalType":"uint256"}],"stateMutability":"view"},{"type":"function","name":"targetWethAfterPrefund","inputs":[],"outputs":[{"name":"","type":"uint256","internalType":"uint256"}],"stateMutability":"view"},{"type":"function","name":"targetWethAfterSecondCall","inputs":[],"outputs":[{"name":"","type":"uint256","internalType":"uint256"}],"stateMutability":"view"},{"type":"function","name":"usedDirectPairFallback","inputs":[],"outputs":[{"name":"","type":"bool","internalType":"bool"}],"stateMutability":"view"},{"type":"function","name":"wethPulledOut","inputs":[],"outputs":[{"name":"","type":"uint256","internalType":"uint256"}],"stateMutability":"view"},{"type":"function","name":"wethSeedSent","inputs":[],"outputs":[{"name":"","type":"bool","internalType":"bool"}],"stateMutability":"view"},{"type":"function","name":"wethWrapped","inputs":[],"outputs":[{"name":"","type":"uint256","internalType":"uint256"}],"stateMutability":"view"},{"type":"event","name":"PermissionlessTrigger","inputs":[{"name":"caller","type":"address","indexed":true,"internalType":"address"},{"name":"target","type":"address","indexed":true,"internalType":"address"},{"name":"firstSelector","type":"bytes4","indexed":true,"internalType":"bytes4"},{"name":"targetEthBefore","type":"uint256","indexed":false,"internalType":"uint256"},{"name":"targetEthAfterPrefund","type":"uint256","indexed":false,"internalType":"uint256"},{"name":"targetWethAfterPrefund","type":"uint256","indexed":false,"internalType":"uint256"},{"name":"targetEthAfterFirstCall","type":"uint256","indexed":false,"internalType":"uint256"},{"name":"targetWethAfterFirstCall","type":"uint256","indexed":false,"internalType":"uint256"},{"name":"targetEthAfterSecondCall","type":"uint256","indexed":false,"internalType":"uint256"},{"name":"targetWethAfterSecondCall","type":"uint256","indexed":false,"internalType":"uint256"}],"anonymous":false}],"bytecode":{"object":"0x60a08060405261000d610041565b60805261206290816100f982396080518181816106030152818161068e015281816110830152818161123c0152611b420152f35b600146146100e057600a461480156100d5575b6100bd5761a4b146146100a5576038461461008d5760894614610075575f90565b730d500b1d8e8ef31e21c99d1db9a6444d3adf127090565b73bb4cdb9cbd36b01bd1cbaebf2de08d9173bc095c90565b7382af49447d8a07e3bd95bd0d56f35241523fbab190565b73420000000000000000000000000000000000000690565b506121054614610054565b73c02aaa39b223fe8d0a0e5c4f27ead9083c756cc29056fe608080604052600436101561001c575b50361561001a575f80fd5b005b5f905f3560e01c908163121513b614610e7757508063125a142614610e4e57806317c6265114610e295780631e83f19f14610e0457806320367a3114610ddf57806322b616ec14610dc2578063245db1e314610da55780632b532c6214610d885780632be77e2d14610d6b57806330b6ade614610d4e57806331a38c8914610d2c5780633c2448ed1461063257806349343624146105ed57806349386477146105cf57806356efdfb9146105b15780635ff972cc146105945780636205a08a146105765780636891e3c014610558578063738d23631461052b5780637ad1fc8f146105015780637e68c85d146104d7578063903f4a0c146104b9578063923009001461049b578063954af3b414610475578063977ef447146104575780639a98b2bc146104395780639faaa19314610416578063a659f594146103f8578063b91c8691146103ce578063be9b5ab4146103a8578063c6c6c5ab1461037f578063d14128d314610359578063d1badad31461033b578063d20c7fe41461031d578063d4e90bfe146102f7578063e45c99ae146102d1578063e62f5996146102a9578063ed7a139f14610282578063ee29d91314610264578063f100d28614610241578063f849a2d11461021b5763f8fa884b0361000f573461021857806003193601126102185760206001600160701b0360135416604051908152f35b80fd5b5034610218578060031936011261021857602060ff60015460b01c166040519015158152f35b5034610218578060031936011261021857602060ff600254166040519015158152f35b50346102185780600319360112610218576020600e54604051908152f35b503461021857806003193601126102185760206001600160701b0360125416604051908152f35b503461021857806003193601126102185760206040515f51602061200d5f395f51905f528152f35b5034610218578060031936011261021857602060ff60015460c81c166040519015158152f35b5034610218578060031936011261021857602060ff60015460d01c166040519015158152f35b50346102185780600319360112610218576020600a54604051908152f35b50346102185780600319360112610218576020600754604051908152f35b5034610218578060031936011261021857602060ff60015460d81c166040519015158152f35b50346102185780600319360112610218576014546040516001600160a01b039091168152602090f35b5034610218578060031936011261021857602060ff60015460f01c166040519015158152f35b5034610218578060031936011261021857601454604051602091821b6001600160e01b0319168152f35b50346102185780600319360112610218576020600c54604051908152f35b5034610218578060031936011261021857602060015460f81c6040519015158152f35b50346102185780600319360112610218576020600554604051908152f35b50346102185780600319360112610218576020600454604051908152f35b5034610218578060031936011261021857602060ff60015460a81c166040519015158152f35b50346102185780600319360112610218576020601554604051908152f35b50346102185780600319360112610218576020600854604051908152f35b503461021857806003193601126102185760206001600160701b0360125460701c16604051908152f35b5034610218578060031936011261021857602063ffffffff60e01b60145460401b16604051908152f35b503461021857806003193601126102185760015460405160089190911c6001600160a01b03168152602090f35b50346102185780600319360112610218576020600354604051908152f35b50346102185780600319360112610218576020601054604051908152f35b503461021857806003193601126102185760209054604051908152f35b50346102185780600319360112610218576020601154604051908152f35b50346102185780600319360112610218576020600954604051908152f35b50346102185780600319360112610218576040517f00000000000000000000000000000000000000000000000000000000000000006001600160a01b03168152602090f35b5034610c16575f366003190112610c165760015460ff8116610cf4576001600160a81b031981163360081b610100600160a81b0316908117600190811781555f51602061200d5f395f51905f5280316003553110610c2c575b507f000000000000000000000000000000000000000000000000000000000000000090506001600160a01b03811680151580610c1a575b610ad9575b5061071260ff5f51602061200d5f395f51905f5231806004556106e984610f45565b6005556001549060018360a81b91101560a81b16908260a81b1916178060015560a81c16610e99565b61071a611067565b6014805463ffffffff60a01b191660409290921c63ffffffff60a01b169190911790556001805460ff60d81b19811692151560d890811b60ff60d81b169384179283905585939192901c60ff1615610a81575b505060015460ff60b01b60ff8260d81c16151560b01b169060ff60b01b19161790816001555f51602061200d5f395f51905f523190816006556107af84610f45565b91826007556004548082115f14610a78576107c991611217565b915b82600a556005548082115f14610a6f576107e491611217565b915b82600b55818655828111610a67575b508111610a5f575b5060ff8160d81c1615610a235767016345785d8a00008354106109e557829060e81c60ff161561098857505f51602061200d5f395f51905f5261083e611238565b6001805460ff60e01b191692151560e01b60ff60e01b16929092179091556014805463ffffffff60c01b19169055915b61087d82319182600855610f45565b80600955600654918281115f14610982576108988382611217565b80600c55600754958684115f1461097b576108b38785611217565b915b82600d55828111610973575b5081811161096b575b506001549060ff8260e01c1615908115610960575b5060ff60b81b90151560b81b169060ff60b81b19161760015563ffffffff60e01b60145460401b16946003549360045460055490604051968752602087015260408601526060850152608084015260a083015260c08201527f6fd0868fc1502a823dd4067e37dc58e810a3c444d1a708d31310733466112ad360e03392a480f35b90508754115f6108df565b90505f6108ca565b91505f6108c1565b87916108b5565b85610898565b905f51602061200d5f395f51905f52906109a0611067565b6014805463ffffffff60c01b191660209290921c63ffffffff60c01b169190911790556001805460ff60e01b191691151560e01b60ff60e01b1691909117905561086e565b60405162461bcd60e51b81526020600482015260166024820152751c1c9bd99a5d0818995b1bddc81d1a1c995cda1bdb1960521b6044820152606490fd5b60405162461bcd60e51b8152602060048201526014602482015273199a5c9cdd081d1c9a59d9d95c8819985a5b195960621b6044820152606490fd5b83555f6107fd565b91505f6107f5565b505084916107e6565b505084916107cb565b62ff00ff60d81b1990911617600160e81b1760015550610a9f611238565b6002805492151560ff1660ff1993909316831790556001805460ff60d81b191692151560d81b60ff60d81b16929092179091555f8061076d565b803b15610c16575f670de0b6b3a764000091600460405180948193630d0e30db60e41b83525af18015610c0b57610bf6575b508180604051602081019063a9059cbb60e01b82525f51602061200d5f395f51905f526024820152670de0b6b3a7640000604482015260448152610b50606482610ed8565b519082855af1610b5e610f16565b81610bba575b5015610b83576001805460ff60d01b1916600160d01b1790555f6106c7565b60405162461bcd60e51b815260206004820152600f60248201526e1514905394d1915497d19052531151608a1b6044820152606490fd5b8051801592508215610bcf575b50505f610b64565b8192509060209181010312610bf257602001518015158103610bf2575f80610bc7565b8280fd5b610c039192505f90610ed8565b5f905f610b0b565b6040513d5f823e3d90fd5b5f80fd5b50670de0b6b3a76400004710156106c2565b610c396001471015610e99565b60018060c01b926affffffffffffff00ffffff60a81b161717176001555f80808060015f51602061200d5f395f51905f525af1610c74610f16565b5015610c82575b5f8061068b565b6001805460ff60c81b1916600160c81b17905560405160618082019067ffffffffffffffff821183831017610ce0576020918391611fac83395f51602061200d5f395f51905f5281520301906001f0610c7b576040513d5f823e3d90fd5b634e487b7160e01b5f52604160045260245ffd5b60405162461bcd60e51b815260206004820152601060248201526f185b1c9958591e48195e1958dd5d195960821b6044820152606490fd5b34610c16575f366003190112610c1657602060ff600154166040519015158152f35b34610c16575f366003190112610c16576020600f54604051908152f35b34610c16575f366003190112610c16576020600d54604051908152f35b34610c16575f366003190112610c16576020600b54604051908152f35b34610c16575f366003190112610c16576020600654604051908152f35b34610c16575f366003190112610c16576020601654604051908152f35b34610c16575f366003190112610c1657602060ff60015460e81c166040519015158152f35b34610c16575f366003190112610c1657602060ff60015460b81c166040519015158152f35b34610c16575f366003190112610c1657602060ff60015460e01c166040519015158152f35b34610c16575f366003190112610c165760206001600160701b0360135460701c16604051908152f35b34610c16575f366003190112610c165760209060ff60015460c01c1615158152f35b15610ea057565b60405162461bcd60e51b815260206004820152601060248201526f1c1c99599d5b99081c995c5d5a5c995960821b6044820152606490fd5b90601f8019910116810190811067ffffffffffffffff821117610ce057604052565b67ffffffffffffffff8111610ce057601f01601f191660200190565b3d15610f40573d90610f2782610efa565b91610f356040519384610ed8565b82523d5f602084013e565b606090565b6001600160a01b038116908115908115610fcf575b50610fca576020602491604051928380926370a0823160e01b82525f51602061200d5f395f51905f5260048301525afa908115610c0b575f91610f9b575090565b90506020813d602011610fc2575b81610fb660209383610ed8565b81010312610c16575190565b3d9150610fa9565b505f90565b90503b155f610f5a565b6001600160a01b03811691908215908115611035575b5061102f576040516370a0823160e01b81526001600160a01b03909116600482015290602090829060249082905afa908115610c0b575f91610f9b575090565b50505f90565b90503b155f610fef565b80518210156110535760209160051b010190565b634e487b7160e01b5f52603260045260245ffd5b5f90611071611724565b905f51602061200d5f395f51905f52317f00000000000000000000000000000000000000000000000000000000000000006110ab81610f45565b905f915f5b8651811015611200576001600160e01b03196110cc828961103f565b511680156111f7575f806040516020810190848252600481526110f0602482610ed8565b5190825f51602061200d5f395f51905f525af161110b610f16565b90156111af57505f51602061200d5f395f51905f523161112a85610f45565b84808211156111a75761113c91611217565b8091888082115f1461119e5761115191611217565b905b8111611196575b5085811161118a575b67016345785d8a0000111561117d57506001905b016110b0565b6001985096505050505050565b90985093508784611163565b90505f61115a565b50505f90611153565b50505f61113c565b60019291506020815191012063ffffffff60e01b8a16156111d1575b50611177565b60145460401b6001600160e01b0319166111ef576015555b5f6111cb565b6016556111e9565b50600190611177565b505050506001600160e01b03198416151593925050565b9190820391821161122457565b634e487b7160e01b5f52601160045260245ffd5b5f907f00000000000000000000000000000000000000000000000000000000000000006001600160a01b03811680156116d2576014546001600160a01b03811691908215611688575b506001600160a01b03821690811561167c5761129c83611de5565b6112a585611e5c565b9215908115611673575b5061165d576001600160a01b03918216831492911681149081158061166b575b61165d576112dc85611e94565b90911561164d576001600160701b03601254918160701b9060701b1692169063ffffffff60e01b1617176012556113133087610fd9565b600e5560014710156115f5575b50600161132d3087610fd9565b106115ec578680604051602081019063a9059cbb60e01b82528660248201526001604482015260448152611362606482610ed8565b519082895af1611370610f16565b816115b4575b5015610b8357600180546001600160f81b0316600160f81b179055823b156115b05760405160016209351760e01b0319815287808260048183895af19182611597575b50506113c85750505050508190565b600160ff1960025416176002556113de84611e94565b911561158c576001600160701b03918315611583575016905b60018211156115795715611571575f19810181811161155d578790925b1561155357505f19810190811161153f57908691925b60405190611439602083610ed8565b83825260208201945f368737813b1561153b578460a481956040519889968795869363022c0d9f60e01b855260048501526024840152306044840152608060648401525180918160848501528484015e8181018301849052601f01601f191681010301925af19182611526575b50506114b25750508190565b9190926114ec906114c66001953090610fd9565b80600f55600e54908181115f1461151e576114e19250611217565b925b83601155611e94565b90916114f6575050565b6001600160701b03601354918160701b9060701b1692169063ffffffff60e01b161717601355565b5050926114e3565b8161153091610ed8565b61153b57845f6114a6565b8480fd5b634e487b7160e01b87526011600452602487fd5b809291509261142a565b634e487b7160e01b88526011600452602488fd5b868092611414565b5050505050508190565b905016906113f7565b505050505050508190565b816115a191610ed8565b6115ac57875f6113b9565b8780fd5b8680fd5b80518015925082156115c9575b50505f611376565b81925090602091810103126115ac576020015180151581036115ac575f806115c1565b50505050508190565b803b15610c16575f600191600460405180948193630d0e30db60e41b83525af18015610c0b57611638575b506010546001810180911161155d576010555f611320565b6116459197505f90610ed8565b5f955f611620565b505050505050505090505f905f90565b50505050505090505f905f90565b5082156112cf565b9050155f6112af565b5050505090505f905f90565b9150611692611b40565b916001600160a01b03831690816116aa575b50611281565b6001600160a01b031916176014556001805460ff60f01b1916600160f01b1790555f806116a4565b505090505f905f90565b67ffffffffffffffff8111610ce05760051b60200190565b5f1981146112245760010190565b908151811015611053570160200190565b9060048110156110535760051b0190565b5f51602061200d5f395f51905f523b9061173d82610efa565b9161174b6040519384610ed8565b8083525f602084015f51602061200d5f395f51905f523c815115611aca578151916101408311611ac0575b604051926104206117878186610ed8565b60208552506104003660208601375f925f5b60048101908181116112245783821015611ab5576117b78186611702565b5160f81c606381146117fc576117de92506060811015806117f1575b6117e3575b506116f4565b611799565b605e190160ff16015f6117d8565b50607f8111156117d3565b50600181018082116112245763ff000000611818819288611702565b5160e01c1616600282018083116112245762ff0000611838819289611702565b5160e81c16161790600381018091116112245761ff00611859819288611702565b5160f01c16169061186a8387611702565b51911760f89190911c1760e01b6001600160e01b0319166370a0823160e01b81148015611aa5575b8015611a95575b8015611a82575b8015611a72575b8015611a62575b8015611a52575b8015611a42575b1580611a30575b6118d2575b506117de906116f4565b94600191956118e1828961103f565b520193855185146118f2575f6118c8565b50929150505b604051906080820182811067ffffffffffffffff821117610ce0576040908152633c2448ed60e01b8352631851865560e21b602084015263063d9b7760e41b90830152636020311360e11b60608301525f5b6004811080611a26575b156119bd576119786001600160e01b031961196f8386611713565b51168387611f22565b1561198c575b611987906116f4565b61194a565b90611987906001906001600160e01b03196119a78587611713565b51166119b3828961103f565b520191905061197e565b5090506119c9816116dc565b6119d66040519182610ed8565b818152601f196119e5836116dc565b0136602083013780935f5b8381106119fd5750505050565b6001906001600160e01b0319611a13828561103f565b5116611a1f828661103f565b52016119f0565b5084518210611954565b50611a3c818789611f22565b156118c3565b5063022c0d9f60e01b81146118bc565b5063d21220a760e01b81146118b5565b50630dfe168160e01b81146118ae565b50630240bc6b60e21b81146118a7565b5060016209351760e01b031981146118a0565b50630d0e30db60e41b8114611899565b5063a9059cbb60e01b8114611892565b5050929150506118f8565b6101409250611776565b9050604051611ada60a082610ed8565b6004815260208101608036823781511561105357633c2448ed60e01b905280516001101561105357631851865560e21b60408201528051600210156110535763063d9b7760e41b606082015280516003101561105357636020311360e11b608082015290565b7f00000000000000000000000000000000000000000000000000000000000000006001600160a01b0316905f8215611ddf575f51602061200d5f395f51905f523b92611b8b84610efa565b93611b996040519586610ed8565b8085525f602086015f51602061200d5f395f51905f523c60405191610820611bc18185610ed8565b60408452601f19013660208501375f915f915f5b8751811015611dd657611be88189611702565b5160f81c6073811480611dc2575b611c185790816060611c13931015806117f1576117e357506116f4565b611bd5565b5060018101808211611224575f905f905b60148210611d7f5750506001600160a01b031680151580611d68575b80611d5e575b80611d54575b80611d42575b611c71575b506014810180911161122457611c13906116f4565b948086611c806001938a61103f565b520194611c8c81611de5565b90611c9683611e5c565b9082611d3a575b5081611d08575b50611cb0575b50611c5c565b84611cba83611e94565b91929092611ccb575b505050611caa565b6001600160701b03936001600160a01b031603611d005750165b858111611cf5575b808086611cc3565b945091505f80611ced565b905016611ce5565b6001600160a01b0383168714915086908215611d27575b50505f611ca4565b6001600160a01b0316149050855f611d1f565b91505f611c9d565b50611d4e818789611f6c565b15611c57565b50803b1515611c51565b5083811415611c4b565b505f51602061200d5f395f51905f52811415611c45565b9091600183850101908183116112245773ffffffffffffffffffffffffffffffffffffff00611db06001938e611702565b5160f81c9160081b1617920190611c29565b506014820180831161122457895111611bf6565b50955050505050565b505f9150565b5f80916040516020810190630dfe168160e01b825260048152611e09602482610ed8565b51915afa90611e16610f16565b82158015611e51575b611e4957602081805181010312610c1657602001516001600160a01b03811690819003610c165790565b505f91508190565b506020815110611e1f565b5f8091604051602081019063d21220a760e01b825260048152611e09602482610ed8565b51906001600160701b0382168203610c1657565b5f80916040516020810190630240bc6b60e21b825260048152611eb8602482610ed8565b51915afa90611ec5610f16565b82158015611f17575b611f0d57606081805181010312610c1657611eeb60208201611e80565b906060611efa60408301611e80565b91015163ffffffff811603610c16579091565b505f915081908190565b506060815110611ece565b9190915f5b838110611f3657505050505f90565b6001600160e01b0319611f49828461103f565b51166001600160e01b0319841614611f6357600101611f27565b50505050600190565b9190915f5b838110611f8057505050505f90565b6001600160a01b03611f92828461103f565b51166001600160a01b03841614611f6357600101611f7156fe6080601f606138819003918201601f19168301916001600160401b03831184841017604c57808492602094604052833981010312604857516001600160a01b0381168103604857ff5b5f80fd5b634e487b7160e01b5f52604160045260245ffdfe00000000000000000000000076ea342bc038d665e8a116392c82552d2605eda1a2646970667358221220c4ca4185eb7fe4384d90369752be1a45fadf0451b90dbe43fd80ecc7b249012e64736f6c634300081e0033","linkReferences":{}},"methodIdentifiers":{"LIVE_TARGET()":"e62f5996","executeOnOpportunity()":"3c2448ed","executed()":"31a38c89","finalWethBalance()":"30b6ade6","firstExecutor()":"738d2363","firstObservedEthGain()":"d20c7fe4","firstObservedWethGain()":"2b532c62","firstSelectorTried()":"7ad1fc8f","firstTargetCallRevertHash()":"92300900","firstTargetCallSucceeded()":"d14128d3","initialWethBalance()":"ee29d913","pairMutationAttempted()":"9faaa193","pairMutationSucceeded()":"f100d286","pairResolved()":"be9b5ab4","path0OperatorPrefundObserved()":"954af3b4","path1ThirdPartyTriggerObserved()":"f849a2d1","path2OneShotOpportunityConsumed()":"1e83f19f","prefundUsedForceEther()":"e45c99ae","prefundUsedLocalBalance()":"121513b6","profitAmount()":"5ff972cc","profitToken()":"49343624","reserve0After()":"f8fa884b","reserve0Before()":"ed7a139f","reserve1After()":"125a1426","reserve1Before()":"7e68c85d","secondObservedEthGain()":"a659f594","secondObservedWethGain()":"2be77e2d","secondSelectorTried()":"b91c8691","secondTargetCallRevertHash()":"22b616ec","secondTargetCallSucceeded()":"17c62651","targetEthAfterFirstCall()":"245db1e3","targetEthAfterPrefund()":"977ef447","targetEthAfterSecondCall()":"903f4a0c","targetEthBefore()":"6891e3c0","targetPair()":"c6c6c5ab","targetWethAfterFirstCall()":"d1badad3","targetWethAfterPrefund()":"9a98b2bc","targetWethAfterSecondCall()":"49386477","usedDirectPairFallback()":"20367a31","wethPulledOut()":"56efdfb9","wethSeedSent()":"d4e90bfe","wethWrapped()":"6205a08a"},"id":0}