{"abi":[{"type":"receive","stateMutability":"payable"},{"type":"function","name":"executeOnOpportunity","inputs":[],"outputs":[],"stateMutability":"nonpayable"},{"type":"function","name":"profitToken","inputs":[],"outputs":[{"name":"","type":"address","internalType":"address"}],"stateMutability":"pure"}],"bytecode":{"object":"0x60808060405234601557610609908161001a8239f35b5f80fdfe608080604052600436101561001c575b50361561001a575f80fd5b005b5f905f3560e01c9081633c2448ed1461006b575063493436240361000f5734610068578060031936011261006857602060405173c02aaa39b223fe8d0a0e5c4f27ead9083c756cc28152f35b80fd5b905034610355575f366003190112610355576370a0823160e01b81523060048201524760208260248173c02aaa39b223fe8d0a0e5c4f27ead9083c756cc25afa91821561049e575f92610548575b5060405163095ea7b360e01b815273764c64b2a09b09acb100b80d8c505aa6a0302ef260048201525f1960248201526020816044815f73f65b5c5104c4fafd4b709d9d60a185eae063276c5af1801561049e57610511575b5060405163c59d563360e01b81526ac6e3ae8e2cbab1298abaa3600482015260208160248173764c64b2a09b09acb100b80d8c505aa6a0302ef25afa90811561049e575f916104df575b506104a95773764c64b2a09b09acb100b80d8c505aa6a0302ef23b156103555760405163a029621560e01b81526ac6e3ae8e2cbab1298abaa360048201525f816024818373764c64b2a09b09acb100b80d8c505aa6a0302ef25af1801561049e57610489575b5060405163669949ef60e11b815260208160048173764c64b2a09b09acb100b80d8c505aa6a0302ef25afa908115610438578491610457575b50670de0b6b3a7640000810290808204670de0b6b3a764000014901517156104435790653003c8f610078492046040516370a0823160e01b815230600482015260208160248173f65b5c5104c4fafd4b709d9d60a185eae063276c5afa908115610438578491610403575b508082116103fb575b5073764c64b2a09b09acb100b80d8c505aa6a0302ef23b156103f7576040519063c471b10b60e01b8252600482015282816024818373764c64b2a09b09acb100b80d8c505aa6a0302ef25af19081156103615783916103e2575b50506102d490476105b2565b8061036c575b50506040516370a0823160e01b81523060048201529060208260248173c02aaa39b223fe8d0a0e5c4f27ead9083c756cc25afa8015610361578390610329575b61032492506105b2565b815580f35b506020823d602011610359575b816103436020938361057c565b8101031261035557610324915161031a565b5f80fd5b3d9150610336565b6040513d85823e3d90fd5b73c02aaa39b223fe8d0a0e5c4f27ead9083c756cc23b156103d3578160049160405192838092630d0e30db60e41b825273c02aaa39b223fe8d0a0e5c4f27ead9083c756cc25af180156103d757156102da57816103c89161057c565b6103d357815f6102da565b5080fd5b6040513d84823e3d90fd5b816103ec9161057c565b6103d357815f6102c8565b8280fd5b90505f61026e565b9350506020833d602011610430575b8161041f6020938361057c565b81010312610355578492515f610265565b3d9150610412565b6040513d86823e3d90fd5b634e487b7160e01b84526011600452602484fd5b90506020813d602011610481575b816104726020938361057c565b8101031261035557515f6101fa565b3d9150610465565b6104969193505f9061057c565b5f915f6101c1565b6040513d5f823e3d90fd5b60405162461bcd60e51b815260206004820152600e60248201526d71756f7465206e6f74207a65726f60901b6044820152606490fd5b90506020813d602011610509575b816104fa6020938361057c565b8101031261035557515f61015b565b3d91506104ed565b6020813d602011610540575b8161052a6020938361057c565b8101031261035557518015158114610111575f80fd5b3d915061051d565b9091506020813d602011610574575b816105646020938361057c565b810103126103555751905f6100b9565b3d9150610557565b90601f8019910116810190811067ffffffffffffffff82111761059e57604052565b634e487b7160e01b5f52604160045260245ffd5b919082039182116105bf57565b634e487b7160e01b5f52601160045260245ffdfea2646970667358221220f06dc1e169d0e5f924abe6f8e742e4c7d4adcefa03fdffdb9b01f6c0736ecf8164736f6c634300081e0033","linkReferences":{}},"methodIdentifiers":{"executeOnOpportunity()":"3c2448ed","profitToken()":"49343624"},"id":0}