{"abi":[{"type":"constructor","inputs":[],"stateMutability":"nonpayable"},{"type":"function","name":"BAT","inputs":[],"outputs":[{"name":"","type":"address","internalType":"address"}],"stateMutability":"view"},{"type":"function","name":"BZRX","inputs":[],"outputs":[{"name":"","type":"address","internalType":"address"}],"stateMutability":"view"},{"type":"function","name":"DAI","inputs":[],"outputs":[{"name":"","type":"address","internalType":"address"}],"stateMutability":"view"},{"type":"function","name":"LINK","inputs":[],"outputs":[{"name":"","type":"address","internalType":"address"}],"stateMutability":"view"},{"type":"function","name":"MKR","inputs":[],"outputs":[{"name":"","type":"address","internalType":"address"}],"stateMutability":"view"},{"type":"function","name":"PAXG","inputs":[],"outputs":[{"name":"","type":"address","internalType":"address"}],"stateMutability":"view"},{"type":"function","name":"REP","inputs":[],"outputs":[{"name":"","type":"address","internalType":"address"}],"stateMutability":"view"},{"type":"function","name":"STA","inputs":[],"outputs":[{"name":"","type":"address","internalType":"address"}],"stateMutability":"view"},{"type":"function","name":"SUSHI_FACTORY","inputs":[],"outputs":[{"name":"","type":"address","internalType":"address"}],"stateMutability":"view"},{"type":"function","name":"TARGET","inputs":[],"outputs":[{"name":"","type":"address","internalType":"address"}],"stateMutability":"view"},{"type":"function","name":"UNI_V2_FACTORY","inputs":[],"outputs":[{"name":"","type":"address","internalType":"address"}],"stateMutability":"view"},{"type":"function","name":"USDC","inputs":[],"outputs":[{"name":"","type":"address","internalType":"address"}],"stateMutability":"view"},{"type":"function","name":"USDT","inputs":[],"outputs":[{"name":"","type":"address","internalType":"address"}],"stateMutability":"view"},{"type":"function","name":"WBTC","inputs":[],"outputs":[{"name":"","type":"address","internalType":"address"}],"stateMutability":"view"},{"type":"function","name":"WETH","inputs":[],"outputs":[{"name":"","type":"address","internalType":"address"}],"stateMutability":"view"},{"type":"function","name":"XAUT","inputs":[],"outputs":[{"name":"","type":"address","internalType":"address"}],"stateMutability":"view"},{"type":"function","name":"YFI","inputs":[],"outputs":[{"name":"","type":"address","internalType":"address"}],"stateMutability":"view"},{"type":"function","name":"ZRX","inputs":[],"outputs":[{"name":"","type":"address","internalType":"address"}],"stateMutability":"view"},{"type":"function","name":"executeOnOpportunity","inputs":[],"outputs":[],"stateMutability":"nonpayable"},{"type":"function","name":"executed","inputs":[],"outputs":[{"name":"","type":"bool","internalType":"bool"}],"stateMutability":"view"},{"type":"function","name":"exploitPathUsed","inputs":[],"outputs":[{"name":"","type":"string","internalType":"string"}],"stateMutability":"view"},{"type":"function","name":"hypothesisRefuted","inputs":[],"outputs":[{"name":"","type":"bool","internalType":"bool"}],"stateMutability":"view"},{"type":"function","name":"hypothesisValidated","inputs":[],"outputs":[{"name":"","type":"bool","internalType":"bool"}],"stateMutability":"view"},{"type":"function","name":"profitAchieved","inputs":[],"outputs":[{"name":"","type":"bool","internalType":"bool"}],"stateMutability":"view"},{"type":"function","name":"profitAmount","inputs":[],"outputs":[{"name":"","type":"uint256","internalType":"uint256"}],"stateMutability":"view"},{"type":"function","name":"profitToken","inputs":[],"outputs":[{"name":"","type":"address","internalType":"address"}],"stateMutability":"view"},{"type":"function","name":"status","inputs":[],"outputs":[{"name":"","type":"string","internalType":"string"}],"stateMutability":"view"},{"type":"function","name":"sushiCall","inputs":[{"name":"sender","type":"address","internalType":"address"},{"name":"amount0","type":"uint256","internalType":"uint256"},{"name":"amount1","type":"uint256","internalType":"uint256"},{"name":"","type":"bytes","internalType":"bytes"}],"outputs":[],"stateMutability":"nonpayable"},{"type":"function","name":"uniswapV2Call","inputs":[{"name":"sender","type":"address","internalType":"address"},{"name":"amount0","type":"uint256","internalType":"uint256"},{"name":"amount1","type":"uint256","internalType":"uint256"},{"name":"","type":"bytes","internalType":"bytes"}],"outputs":[],"stateMutability":"nonpayable"}],"bytecode":{"object":"0x60a0806040523461012d576103d18181016001600160401b03811183821017610119578291613874833903905ff0801561010e57608052600380546001600160a01b03191673c02aaa39b223fe8d0a0e5c4f27ead9083c756cc2179055600254600181811c91168015610104575b60208210146100f057601f81116100a8575b600e663737ba16b93ab760c91b016002556040516137429081610132823960805181612db80152f35b60025f52601f0160051c7f405787fa12a823e0f2b7631cc41b3ba8828b3321ca811111fa75cd3aa3bb5ace908101905b8181106100e5575061007f565b5f81556001016100d8565b634e487b7160e01b5f52602260045260245ffd5b90607f169061006d565b6040513d5f823e3d90fd5b634e487b7160e01b5f52604160045260245ffd5b5f80fdfe60806040526004361015610011575f80fd5b5f3560e01c8062991403146106db578063062f67b2146106ad57806310d1e85c146106a85780631b6b6d231461067a578063200d2ed2146105e857806331a38c89146105c75780633c2448ed146105ad5780633d31a4af1461057f578063463defd11461055b5780634934362414610533578063495f92f11461050f57806349eb3334146104e15780634dede3de146104b35780635b7ab891146104855780635ff972cc14610468578063669096371461043a57806389a302711461040c5780638d75b0df146103de5780639ca6da2e146103b0578063ad5c464814610389578063b753bb471461035b578063c54e44eb1461032d578063cc1f2afa14610306578063d40fa8bf146102d8578063d78c428114610209578063d82d41ac146101db578063e0bab4c4146101ad578063f0a01176146101895763f30127a514610157575f80fd5b34610185575f3660031901126101855760206040517356d811088235f11c8920698a204a5010a788f4b38152f35b5f80fd5b34610185575f36600319011261018557602060ff5f5460081c166040519015158152f35b34610185575f366003190112610185576020604051736b175474e89094c44da98b954eedeac495271d0f8152f35b34610185575f366003190112610185576020604051730bc529c00c6401aef6d220be8c6ea1667f6ad93e8152f35b34610185575f366003190112610185576040515f600154610229816114f2565b80845290600181169081156102b45750600114610269575b6102658361025181850382611576565b604051918291602083526020830190611598565b0390f35b60015f9081525f5160206136ed5f395f51905f52939250905b80821061029a57509091508101602001610251610241565b919260018160209254838588010152019101909291610282565b60ff191660208086019190915291151560051b840190910191506102519050610241565b34610185575f36600319011261018557602060405173e41d2489571d322189246dafa5ebde1f4699f4988152f35b34610185575f3660031901126101855760206040515f5160206136cd5f395f51905f528152f35b34610185575f36600319011261018557602060405173dac17f958d2ee523a2206206994597c13d831ec78152f35b34610185575f36600319011261018557602060405173c0aee478e3658e2610c5f7a4a2e1777ce9e4f2ac8152f35b34610185575f3660031901126101855760206040515f5160206136ad5f395f51905f528152f35b34610185575f3660031901126101855760206040517345804880de22913dafe09f4980848ece6ecbaf788152f35b34610185575f3660031901126101855760206040517368749665ff8d2d112fa859aa293f07a622782f388152f35b34610185575f36600319011261018557602060405173a0b86991c6218b36c1d19d4a2e9eb0ce3606eb488152f35b34610185575f36600319011261018557602060405173a7de087329bfcda5639247f96140f9dabe3deed18152f35b34610185575f366003190112610185576020600454604051908152f35b34610185575f366003190112610185576020604051730d8775f648430679a709e98d2b0cb6250d2887ef8152f35b34610185575f366003190112610185576020604051732260fac5e5542a773aa44fbcfedf7c193bc2c5998152f35b34610185575f366003190112610185576020604051735c69bee701ef814a2b6a3edd4b1652cb9cc5aa6f8152f35b34610185575f36600319011261018557602060ff5f5460181c166040519015158152f35b34610185575f366003190112610185576003546040516001600160a01b039091168152602090f35b34610185575f36600319011261018557602060ff5f5460101c166040519015158152f35b34610185575f366003190112610185576020604051739f8f72aa9304c8b593d555f12ef6589cc3a579a28152f35b34610185575f366003190112610185576105c5611636565b005b34610185575f36600319011261018557602060ff5f54166040519015158152f35b34610185575f366003190112610185576040515f600254610608816114f2565b80845290600181169081156102b4575060011461062f576102658361025181850382611576565b60025f9081525f51602061368d5f395f51905f52939250905b80821061066057509091508101602001610251610241565b919260018160209254838588010152019101909291610648565b34610185575f36600319011261018557602060405173514910771af9ca656af840dff83e8264ecf986ca8152f35b6106db565b34610185575f366003190112610185576020604051731985365e9f78359a9b6ad760e32412f4a445e8628152f35b34610185576080366003190112610185576004356001600160a01b0381169081810361018557506024359060443560643567ffffffffffffffff811161018557366023820112156101855780600401359067ffffffffffffffff82116101855736602483830101116101855750505f92604051916107588361152a565b6005546001600160a01b039081168085526006548216602086019081526007549092166040860152600854606086015260095460ff166080860190815295919490156114c057516001600160a01b0316330361149057300361145e5781156114565750905b80516107d39030906001600160a01b0316612918565b928315158061144c575b15611414575160ff16600103610cf757516001600160a01b031691908110908115610ce6575b5015610ca1576108133082612918565b61081d8183612f7b565b6040516370a0823160e01b81523060048201526020816024815f5160206136cd5f395f51905f525afa908115610c96578491610c64575b506040516340c10f1960e01b815230600482015260248101839052602081604481885f5160206136cd5f395f51905f525af1859181610c30575b506108cb5760405162461bcd60e51b815260206004820152601060248201526f1352539517d410551217d1905253115160821b6044820152606490fd5b908115610b9c575b508015610b6b5760206109cf916201000062ff0000198754161786556108fa6001546114f2565b601f8111610b49575b506085600190815586527f6d696e74286465706f736974416d6f756e7429206f76657263726564697473205f5160206136ed5f395f51905f52557f6665652d6f6e2d7472616e73666572206c6f616e546f6b656e206465706f73697fb10e2d527612073b26eecdfd717e6a320cf44b4afac2b0732d9fcbe2b7fa0cf75561747360f01b7fb10e2d527612073b26eecdfd717e6a320cf44b4afac2b0732d9fcbe2b7fa0cf855604051632770a7eb60e21b8152306004820152602481019190915291829081906044820190565b0381875f5160206136cd5f395f51905f525af19081610b1a575b50610a265760405162461bcd60e51b815260206004820152601060248201526f1095549397d410551217d1905253115160821b6044820152606490fd5b610a303083612918565b81811115610ae457610a54926001600160601b0360a01b600354161760035561211f565b8060045561ff0067016345785d8a0000835492101560081b169061ff0019161781555b806080604051610a868161152a565b82815282602082015282604082015282606082015201526001600160601b0360a01b600554166005556001600160601b0360a01b600654166006556001600160601b0360a01b600754166007558060085560ff196009541660095580f35b60405162461bcd60e51b815260206004820152600e60248201526d1393d7d352539517d4d41491505160921b6044820152606490fd5b6020813d602011610b41575b81610b3360209383611576565b8101031261018557516109e9565b3d9150610b26565b60018752828720610b6591601f0160051c8101906003016115db565b5f610903565b60405162461bcd60e51b81526020600482015260096024820152684e4f5f53484152455360b81b6044820152606490fd5b6040516370a0823160e01b81523060048201526020816024815f5160206136cd5f395f51905f525afa908115610c25578691610bf3575b50818111610be2575b506108d3565b610bec925061211f565b5f80610bdc565b90506020813d602011610c1d575b81610c0e60209383611576565b8101031261018557515f610bd3565b3d9150610c01565b6040513d88823e3d90fd5b9091506020813d602011610c5c575b81610c4c60209383611576565b810103126101855751905f61088e565b3d9150610c3f565b90506020813d602011610c8e575b81610c7f60209383611576565b8101031261018557515f610854565b3d9150610c72565b6040513d86823e3d90fd5b60405162461bcd60e51b815260206004820152601e60248201527f4c4f414e5f544f4b454e5f4e4f545f4645455f4f4e5f5452414e5346455200006044820152606490fd5b610cf1915082612d88565b5f610803565b516001600160a01b031691610d0c3084612918565b9182156113df57119081156113ce575b501561138957610d2c3082612918565b801561134457610d3c8183612f7b565b600754600854610d54916001600160a01b0316612ffd565b5f19811461130a57604051906247979360e41b82528260048301526224ea0060248301528360448301526020826064815f5160206136cd5f395f51905f525afa918215611150575f926112d6575b5067016345785d8a000081018091116112c25781111561128c57610dcd816103e8606093049061211f565b610dd63061289d565b93610df960405194859384936317514afd60e11b85523092309260048701612170565b03815f5f5160206136cd5f395f51905f525af1908161125f575b50610e525760405162461bcd60e51b81526020600482015260126024820152711093d49493d5d7d410551217d1905253115160721b6044820152606490fd5b6201000062ff0000195f5416175f55610e6c6001546114f2565b601f8111611216575b5060ad60015560015f527f626f72726f7728636f6c6c61746572616c546f6b656e53656e7429206e6f6d695f5160206136ed5f395f51905f52557f6e616c206163636f756e74696e67207573696e6720636865617065737420666c7fb10e2d527612073b26eecdfd717e6a320cf44b4afac2b0732d9fcbe2b7fa0cf75575185cda1cddd85c081999594818dbdb1b185d195c985b60521b7fb10e2d527612073b26eecdfd717e6a320cf44b4afac2b0732d9fcbe2b7fa0cf855610f373061289d565b11156111de576007546001600160a01b03165f5160206136ad5f395f51905f5281036110005750600554600854610f76916001600160a01b031661305b565b610f7f3061289d565b67016345785d8a00008110610fc257815461ff001916610100178255600380546001600160a01b0319165f5160206136ad5f395f51905f52179055600455610a77565b60405162461bcd60e51b8152602060048201526016602482015275141493d1925517d0915313d5d7d512149154d213d31160521b6044820152606490fd5b6008549061100d816135ef565b6001600160a01b038116929083156111a35761102c6110359382613239565b94919084612ce4565b8015611167576110449161305b565b81156111605780915b1561115b57505f5b6040516020936110658583611576565b5f8252601f1985013686840137803b156101855761109f935f80946040519687958694859363022c0d9f60e01b8552309160048601611c44565b03925af180156111505761113b575b5060075460055460085460405163a9059cbb60e01b858201526001600160a01b0392831660248201526044808201929092529081526110fa929091166110f5606483611576565b6135af565b156111055750610f76565b6064906040519062461bcd60e51b82526004820152600f60248201526e1514905394d1915497d19052531151608a1b6044820152fd5b6111489192505f90611576565b5f905f6110ae565b6040513d5f823e3d90fd5b611055565b5f9161104d565b60405162461bcd60e51b81526020600482015260146024820152734241445f574554485f52455041595f51554f544560601b6044820152606490fd5b60405162461bcd60e51b81526020600482015260136024820152724e4f5f574554485f52455041595f524f55544560681b6044820152606490fd5b60405162461bcd60e51b815260206004820152601060248201526f1393d7d5d1551217d093d49493d5d15160821b6044820152606490fd5b60015f5261125990601f0160051c5f5160206136ed5f395f51905f52017fb10e2d527612073b26eecdfd717e6a320cf44b4afac2b0732d9fcbe2b7fa0cf96115db565b5f610e75565b6112809060603d606011611285575b6112788183611576565b81019061212c565b610e13565b503d61126e565b60405162461bcd60e51b815260206004820152600e60248201526d4e4f545f50524f46495441424c4560901b6044820152606490fd5b634e487b7160e01b5f52601160045260245ffd5b9091506020813d602011611302575b816112f260209383611576565b810103126101855751905f610da2565b3d91506112e5565b60405162461bcd60e51b81526020600482015260126024820152714e4f5f52455041594d454e545f524f55544560701b6044820152606490fd5b60405162461bcd60e51b815260206004820152601960248201527f4e4f5f434f4c4c41544552414c5f41465445525f50524f4245000000000000006044820152606490fd5b60405162461bcd60e51b815260206004820152601e60248201527f434f4c4c41544552414c5f4e4f545f4645455f4f4e5f5452414e5346455200006044820152606490fd5b6113d9915082612d88565b5f610d1c565b60405162461bcd60e51b815260206004820152600d60248201526c1393d7d0d3d313105511549053609a1b6044820152606490fd5b60405162461bcd60e51b815260206004820152601060248201526f10905117d1931054d217d05353d5539560821b6044820152606490fd5b50828411156107dd565b9050906107bd565b60405162461bcd60e51b815260206004820152600a6024820152692120a22fa9a2a72222a960b11b6044820152606490fd5b60405162461bcd60e51b81526020600482015260086024820152672120a22fa820a4a960c11b6044820152606490fd5b60405162461bcd60e51b815260206004820152600a6024820152691393d7d0d3d39511561560b21b6044820152606490fd5b90600182811c92168015611520575b602083101461150c57565b634e487b7160e01b5f52602260045260245ffd5b91607f1691611501565b60a0810190811067ffffffffffffffff82111761154657604052565b634e487b7160e01b5f52604160045260245ffd5b60c0810190811067ffffffffffffffff82111761154657604052565b90601f8019910116810190811067ffffffffffffffff82111761154657604052565b805180835260209291819084018484015e5f828201840152601f01601f1916010190565b9081602091031261018557516001600160a01b03811681036101855790565b8181106115e6575050565b5f81556001016115db565b90601f82116115fe575050565b61162a9160025f5260205f20906020601f840160051c8301931061162c575b601f0160051c01906115db565b565b909150819061161d565b5f5460ff8116611b3a5760ff19166001175f55600380546001600160a01b0319165f5160206136ad5f395f51905f5217905560405163797bf38560e01b81526020816004815f5160206136cd5f395f51905f525afa908115611150575f91611b0b575b505f906116a581611b72565b80611afc575b611af2576040516101a06116bf8183611576565b3682377345804880de22913dafe09f4980848ece6ecbaf7881527368749665ff8d2d112fa859aa293f07a622782f38602082015273a7de087329bfcda5639247f96140f9dabe3deed1604082015273dac17f958d2ee523a2206206994597c13d831ec760608201527356d811088235f11c8920698a204a5010a788f4b36080820152732260fac5e5542a773aa44fbcfedf7c193bc2c59960a082015273514910771af9ca656af840dff83e8264ecf986ca60c0820152739f8f72aa9304c8b593d555f12ef6589cc3a579a260e0820152730d8775f648430679a709e98d2b0cb6250d2887ef61010082015273e41d2489571d322189246dafa5ebde1f4699f498610120820152731985365e9f78359a9b6ad760e32412f4a445e862610140820152730bc529c00c6401aef6d220be8c6ea1667f6ad93e610160820152736b175474e89094c44da98b954eedeac495271d0f6101808201525f5b600d81101561188f57600581901b8201516001600160a01b0316938415801561187d575b611873575061184a846121c0565b611867576118596001946124ac565b611867576001905b01611818565b5050505061162a611f44565b9350600190611861565b506001600160a01b038416851461183c565b50505060ff5f5460081c16611ae95760ff5f5460101c16611a24575f805463ff00000019166301000000179055156119d7576040516118cf606082611576565b602b81527f6665652d746f6b656e2d70617468732d70726f6265642d6275742d6e6f742d7360208201526a656c662d66756e64696e6760a81b6040820152905b815167ffffffffffffffff8111611546576119348161192f6002546114f2565b6115f1565b602092601f821160011461196e57928192935f92611963575b50508160011b915f199060031b1c191617600255565b015190505f8061194d565b601f1982169360025f525f51602061368d5f395f51905f52915f5b8681106119bf57508360019596106119a7575b505050811b01600255565b01515f1960f88460031b161c191690555f808061199c565b91926020600181928685015181550194019201611989565b6040516119e5606082611576565b602681527f6e6f2d737570706f727465642d6665652d746f6b656e2d706174682d646973636020820152651bdd995c995960d21b60408201529061190f565b50611a306002546114f2565b601f8111611aa0575b50604b60025560025f527f76616c6964617465642d776974686f75742d706f7369746976652d6e65742d705f51602061368d5f395f51905f5255641c9bd99a5d60da1b7f405787fa12a823e0f2b7631cc41b3ba8828b3321ca811111fa75cd3aa3bb5acf55565b60025f52611ae390601f0160051c5f51602061368d5f395f51905f52017f405787fa12a823e0f2b7631cc41b3ba8828b3321ca811111fa75cd3aa3bb5ad06115db565b5f611a39565b5061162a611f44565b505061162a611f44565b50611b0681611c72565b6116ab565b611b2d915060203d602011611b33575b611b258183611576565b8101906115bc565b5f611699565b503d611b1b565b60405162461bcd60e51b815260206004820152601060248201526f1053149150511657d1561150d555115160821b6044820152606490fd5b60018060a01b031673a7de087329bfcda5639247f96140f9dabe3deed18114908115611c08575b8115611bea575b8115611bcc575b8115611bb1575090565b7356d811088235f11c8920698a204a5010a788f4b391501490565b73dac17f958d2ee523a2206206994597c13d831ec781149150611ba7565b7368749665ff8d2d112fa859aa293f07a622782f3881149150611ba0565b7345804880de22913dafe09f4980848ece6ecbaf7881149150611b99565b8115611c30570490565b634e487b7160e01b5f52601260045260245ffd5b9092608092611c6f95948352602083015260018060a01b031660408201528160608201520190611598565b90565b611c7b8161295c565b80519091906001600160a01b0316158015611f20575b611f1a5760405191611ca28361155a565b6103e883526101f4602084015260c860408401526064606084015260326080840152601460a08401525f906040810192606082019360808301935b6006811015611f0f57611cf882518260051b89015190611c26565b6001811115611f0657611d0f875184519083612ce4565b8015611efc578551604051611d9f91611d82906001600160a01b0316611d348361152a565b80835260016080818060a01b038b16948560208201525f5160206136ad5f395f51905f526040820152876060820152015260018060a01b03166001600160601b0360a01b6005541617600555565b60018060a01b03166001600160601b0360a01b6006541617600655565b600780546001600160a01b0319165f5160206136ad5f395f51905f521790556008556009805460ff1916600117905584518651158015926001600160a01b03929092169190611ef55780925b15611eef57505f905b604051906001602083015260208252611e0e604083611576565b803b1561018557611e3b935f80946040519687958694859363022c0d9f60e01b8552309160048601611c44565b03925af19081611edf575b50611ebf576001905f6080604051611e5d8161152a565b82815282602082015282604082015282606082015201526001600160601b0360a01b600554166005556001600160601b0360a01b600654166006556001600160601b0360a01b600754166007555f60085560ff19600954166009555b01611cdd565b60ff5f5460081c16611ed357600190611eb9565b50505050505050600190565b5f611ee991611576565b5f611e46565b90611df4565b5f92611deb565b5050600190611eb9565b50600190611eb9565b505050505050505f90565b50505f90565b5060208201516001600160a01b03165f5160206136ad5f395f51905f521415611c91565b6003546001600160a01b038116156120fd575b506003546001600160a01b03165f5160206136ad5f395f51905f52611f7c3083612918565b91036120e5576004555b60ff67016345785d8a0000600454101561ff005f549160081b1662ff00008161ff0019841617848160101c169081156120d8575b50151560101b169162ffff0019161717805f5560081c165f146120a157604051611fe5604082611576565b600f81526e1c1c9bd99a5d0b5858da1a595d9959608a1b6020820152905b815167ffffffffffffffff8111611546576120238161192f6002546114f2565b602092601f821160011461205157928192935f926119635750508160011b915f199060031b1c191617600255565b601f1982169360025f525f51602061368d5f395f51905f52915f5b86811061208957508360019596106119a757505050811b01600255565b9192602060018192868501518155019401920161206c565b6040516120af604082611576565b60168152751c1c9bd99a5d0b58995b1bddcb5d1a1c995cda1bdb1960521b602082015290612003565b85915060081c165f611fba565b600454156120f4575b50611f86565b6004555f6120ee565b6001600160a01b0319165f5160206136ad5f395f51905f52176003555f611f57565b919082039182116112c257565b908160609103126101855760405190606082019082821067ffffffffffffffff83111761154657604091825280518352602081015160208401520151604082015290565b5f80825260208201929092526224ea00604082015260608101929092526001600160a01b03928316608083015292821660a0820152921660c083015261010060e083018190528201526101200190565b6121c981611b72565b156124a7576121d83082612918565b8015611f1a576121e89082612d88565b156124a7576121f73082612918565b8015611f1a576040516247979360e41b8152600481018290526224ea0060248201526001600160a01b03831660448201526020816064815f5160206136cd5f395f51905f525afa908115611150575f91612475575b5067016345785d8a000081111561246e5761227860609161226d8486612f7b565b6103e881049061211f565b6122813061289d565b936122a460405194859384936317514afd60e11b85523092309260048701612170565b03815f5f5160206136cd5f395f51905f525af19081612451575b506122c857505f90565b6122d13061289d565b9080821180612436575b6122e55750505f90565b5f805462ffff00191662010100179055600380546001600160a01b0319165f5160206136ad5f395f51905f5217905561231d9161211f565b60045561232b6001546114f2565b601f81116123ed575b5060a360015560015f527f626f72726f7728636f6c6c61746572616c546f6b656e53656e7429206e6f6d695f5160206136ed5f395f51905f52557f6e616c206163636f756e74696e67207573696e672076657269666965722d68657fb10e2d527612073b26eecdfd717e6a320cf44b4afac2b0732d9fcbe2b7fa0cf755701b19081999594818dbdb1b185d195c985b607a1b7fb10e2d527612073b26eecdfd717e6a320cf44b4afac2b0732d9fcbe2b7fa0cf855600190565b60015f5261243090601f0160051c5f5160206136ed5f395f51905f52017fb10e2d527612073b26eecdfd717e6a320cf44b4afac2b0732d9fcbe2b7fa0cf96115db565b5f612334565b5067016345785d8a000061244a828461211f565b10156122db565b6124699060603d606011611285576112788183611576565b6122be565b5050505f90565b90506020813d60201161249f575b8161249060209383611576565b8101031261018557515f61224c565b3d9150612483565b505f90565b6124b581611b72565b156124a7576124c38161295c565b80519091906001600160a01b031615611f1a576040516101c0810181811067ffffffffffffffff82111761154657604093919352620186a0835261c35060208401526161a86040840152612710606084015261138860808401526109c460a08401526107d060c08401526103e860e08401526101f461010084015260fa610120840152606461014084015260326101608401526014610180840152600a6101a08401525f9060408101926060820193602083019060808401945b600e8110156128525761259882518260051b8a015190611c26565b6001811115612849576125af885184519083612ce4565b801561283f576040516247979360e41b8152600481018390526224ea0060248201526001600160a01b03871660448201819052906020816064815f5160206136cd5f395f51905f525afa908115611150575f9161280e575b50865161261e9084906001600160a01b0316612ffd565b5f1981149182156127f0575b50506127e55761269060018060a01b0389511691611d8260018060a01b03895116936002608060405161265c8161152a565b838152856020820152876040820152886060820152015260018060a01b03166001600160601b0360a01b6005541617600555565b600780546001600160a01b0319166001600160a01b039283161790556008919091556009805460ff19166002179055865188511580159391909216916127de5780925b156127d857505f905b6040519060026020830152602082526126f6604083611576565b803b1561018557612723935f80946040519687958694859363022c0d9f60e01b8552309160048601611c44565b03925af190816127c8575b506127a7576001905f60806040516127458161152a565b82815282602082015282604082015282606082015201526001600160601b0360a01b600554166005556001600160601b0360a01b600654166006556001600160601b0360a01b600754166007555f60085560ff19600954166009555b0161257d565b60ff5f5460081c166127bb576001906127a1565b5050505050505050600190565b5f6127d291611576565b5f61272e565b906126dc565b5f926126d3565b5050506001906127a1565b90915067016345785d8a000082018092116112c25711155f8061262a565b90506020813d8211612837575b8161282860209383611576565b8101031261018557515f612607565b3d915061281b565b50506001906127a1565b506001906127a1565b50505050505050505f90565b3d15612898573d9067ffffffffffffffff8211611546576040519161288d601f8201601f191660200184611576565b82523d5f602084013e565b606090565b5f809160405160208101916370a0823160e01b835260018060a01b03166024820152602481526128ce604482611576565b51905f5160206136ad5f395f51905f525afa6128e861285e565b9015801561290d575b6124a75760208151918180820193849201010312610185575190565b5060208151106128f1565b6040516370a0823160e01b602082019081526001600160a01b0390931660248083019190915281525f92839291612950604482611576565b51915afa6128e861285e565b906040516129698161155a565b5f81525f60208201525f60408201525f60608201525f60808201525f60a0820152916101806040519061299c8183611576565b3682375f5160206136ad5f395f51905f52815273a0b86991c6218b36c1d19d4a2e9eb0ce3606eb48602082015273dac17f958d2ee523a2206206994597c13d831ec76040820152736b175474e89094c44da98b954eedeac495271d0f6060820152732260fac5e5542a773aa44fbcfedf7c193bc2c599608082015273514910771af9ca656af840dff83e8264ecf986ca60a0820152739f8f72aa9304c8b593d555f12ef6589cc3a579a260c0820152730d8775f648430679a709e98d2b0cb6250d2887ef60e082015273e41d2489571d322189246dafa5ebde1f4699f498610100820152731985365e9f78359a9b6ad760e32412f4a445e862610120820152730bc529c00c6401aef6d220be8c6ea1667f6ad93e6101408201527356d811088235f11c8920698a204a5010a788f4b361016082018181526001600160a01b038416918214612cb4575b506040908151612af58382611576565b82368237735c69bee701ef814a2b6a3edd4b1652cb9cc5aa6f815273c0aee478e3658e2610c5f7a4a2e1777ce9e4f2ac60208201525f19935f965b600c881015612caa57600588901b8201516001600160a01b03169384158015612ca1575b612c96575f5b6002811015612c8757600581901b850151612b819087908b906001600160a01b03166131dd565b6001600160a01b0381169087908b908315612c705790612ba1929161342f565b600183949311801590612c7c575b612c705761271084046001811115612c65575b60018111801590612c5b575b612c4e578483612bdd92612ce4565b8015612c4e57612bed908b612ffd565b915f198314612c4e578c8310612c0d575b50505050506001905b01612b5a565b90916001959f508093949c509b8b5194612c268661155a565b85528a60208601528b85015260608401521515608083015260a08201529a905f808080612bfe565b5050505050600190612c07565b5084811015612bce565b506103e88404612bc2565b50505050600190612c07565b506001821115612baf565b509350966001905b0196612b30565b935096600190612c8f565b50808514612b54565b9650505050505050565b7345804880de22913dafe09f4980848ece6ecbaf7890525f612ae5565b818102929181159184041417156112c257565b919082158015612d68575b8015612d60575b8015612d56575b61246e5782612d0b91612cd1565b916103e88302928084046103e814901517156112c257612d2a9161211f565b6103e58102908082046103e514901517156112c257612d4891611c26565b600181018091116112c25790565b5081831015612cfd565b508115612cf6565b508015612cef565b90816020910312610185575180151581036101855790565b905f916103e88204918215612f70575b8215612f67575b80831015612f5c575b50811561246e5760018060a01b037f000000000000000000000000000000000000000000000000000000000000000016612e0c60405163095ea7b360e01b60208201528260248201525f604482015260448152612e06606482611576565b836135af565b5060405163095ea7b360e01b60208201526001600160a01b038216602482015260448101849052612e4e90612e0681606481015b03601f198101835282611576565b50612e598183612918565b604051637372c2b560e01b81526001600160a01b0384166004820152306024820152604481018590529092906020816064815f875af1908115611150575f91612f2d575b5015612f2457612ead8282612918565b91803b156101855760405163b8dc491b60e01b81526001600160a01b039290921660048301523060248301525f908290604490829084905af1801561115057612f0f575b5081811115612f0957612f0592935061211f565b1090565b50505090565b612f1c9194505f90611576565b5f925f612ef1565b50505050505f90565b612f4f915060203d602011612f55575b612f478183611576565b810190612d70565b5f612e9d565b503d612f3d565b60011c91505f612da8565b60019250612d9f565b606481049250612d98565b90612ffa91612fc160405163095ea7b360e01b60208201525f5160206136cd5f395f51905f5260248201525f604482015260448152612fbb606482611576565b826135af565b506040519163095ea7b360e01b60208401525f5160206136cd5f395f51905f5260248401526044830152604482526110f5606483611576565b50565b908015611f1a576001600160a01b0382165f5160206136ad5f395f51905f52146130565761302a826135ef565b6001600160a01b0381161561304e57611c6f9261304691613239565b509091612ce4565b5050505f1990565b905090565b60405163a9059cbb60e01b60208201526001600160a01b03909116602482015260448101919091526130a7906130948160648101612e40565b5f5160206136ad5f395f51905f526135af565b156130ae57565b60405162461bcd60e51b815260206004820152600f60248201526e1514905394d1915497d19052531151608a1b6044820152606490fd5b60405163e6a4390560e01b602082019081526001600160a01b0392831660248301529290911660448201525f9182916131218160648101612e40565b5190735c69bee701ef814a2b6a3edd4b1652cb9cc5aa6f5afa61314261285e565b90158015613175575b6124a75760208180518101031261018557602001516001600160a01b038116908190036101855790565b50602081511061314b565b60405163e6a4390560e01b602082019081526001600160a01b0392831660248301529290911660448201525f9182916131bc8160648101612e40565b519073c0aee478e3658e2610c5f7a4a2e1777ce9e4f2ac5afa61314261285e565b60405163e6a4390560e01b602082019081526001600160a01b0393841660248301529390921660448301525f9283926132198160648101612e40565b51915afa61314261285e565b51906001600160701b038216820361018557565b604051630dfe168160e01b81526001600160a01b039091169291602082600481875afa918215611150575f9261340e575b50604051630240bc6b60e21b815293606085600481845afa928315611150575f955f946133b3575b506001600160a01b039081169216821461330257505f5160206136ad5f395f51905f52036132cc576001600160701b038091169216905f90565b60405162461bcd60e51b815260206004820152600e60248201526d4241445f504149525f51554f544560901b6044820152606490fd5b60405163d21220a760e01b81529294929150602090829060049082905afa8015611150575f5160206136ad5f395f51905f52915f91613394575b506001600160a01b03160361335e576001600160701b03809116921690600190565b60405162461bcd60e51b815260206004820152600e60248201526d10905117d410525497d054d4d15560921b6044820152606490fd5b6133ad915060203d602011611b3357611b258183611576565b5f61333c565b955092506060853d606011613406575b816133d060609383611576565b81010312610185576133e185613225565b60406133ef60208801613225565b96015163ffffffff8116036101855794925f613292565b3d91506133c3565b61342891925060203d602011611b3357611b258183611576565b905f61326a565b604051630dfe168160e01b81526001600160a01b039091169392909190602083600481885afa928315611150575f9361358e575b50604051630240bc6b60e21b815294606086600481845afa938415611150575f965f95613533575b506001600160a01b03908116931683146134c057506001600160a01b0316036132cc576001600160701b038091169216905f90565b60405163d21220a760e01b81529395939250602090839060049082905afa918215611150575f92613512575b506001600160a01b0390811691160361335e576001600160701b03809116921690600190565b61352c91925060203d602011611b3357611b258183611576565b905f6134ec565b965093506060863d606011613586575b8161355060609383611576565b810103126101855761356186613225565b604061356f60208901613225565b97015163ffffffff8116036101855795935f61348b565b3d9150613543565b6135a891935060203d602011611b3357611b258183611576565b915f613463565b5f91829182602083519301915af16135c561285e565b90156124a75780519081159182156135dc57505090565b611c6f9250602080918301019101612d70565b6136065f5160206136ad5f395f51905f52826130e5565b61361d5f5160206136ad5f395f51905f5283613180565b916001600160a01b03821615613687576001600160a01b03831615613681576136775f5160206136ad5f395f51905f5261367161366861365e83868861342f565b509390958861342f565b50929094612cd1565b92612cd1565b1115613056575090565b50905090565b50509056fe405787fa12a823e0f2b7631cc41b3ba8828b3321ca811111fa75cd3aa3bb5ace000000000000000000000000c02aaa39b223fe8d0a0e5c4f27ead9083c756cc2000000000000000000000000b983e01458529665007ff7e0cddecdb74b967eb6b10e2d527612073b26eecdfd717e6a320cf44b4afac2b0732d9fcbe2b7fa0cf6a26469706673582212209b620149aa9170a213abe1cf9d26674347a87cc0a74f01c4f0ec0a69394a58cd64736f6c634300081e003360a08060405234602e573360805261039e90816100338239608051818181607f0152818160db01526101f40152f35b5f80fdfe60806040526004361015610011575f80fd5b5f3560e01c80637372c2b5146100ae5780638da5cb5b1461006a5763b8dc491b1461003a575f80fd5b3461006657604036600319011261006657610064610056610152565b61005e610168565b906101ed565b005b5f80fd5b34610066575f366003190112610066576040517f00000000000000000000000000000000000000000000000000000000000000006001600160a01b03168152602090f35b346100665760603660031901126100665760206101486100cc610152565b6100d4610168565b90610109337f00000000000000000000000000000000000000000000000000000000000000006001600160a01b03161461017e565b604051916323b872dd60e01b8584015260018060a01b031660248301523060448301526044356064830152606482526101436084836101b7565b6102df565b6040519015158152f35b600435906001600160a01b038216820361006657565b602435906001600160a01b038216820361006657565b1561018557565b60405162461bcd60e51b815260206004820152600a60248201526927a7262cafa7aba722a960b11b6044820152606490fd5b90601f8019910116810190811067ffffffffffffffff8211176101d957604052565b634e487b7160e01b5f52604160045260245ffd5b90610222337f00000000000000000000000000000000000000000000000000000000000000006001600160a01b03161461017e565b6040516370a0823160e01b8152306004820152916020836024816001600160a01b0385165afa9283156102d4575f936102a0575b50821561029b5760405163a9059cbb60e01b60208201526001600160a01b039092166024830152604480830193909352918152610298916101436064836101b7565b50565b505050565b9092506020813d6020116102cc575b816102bc602093836101b7565b810103126100665751915f610256565b3d91506102af565b6040513d5f823e3d90fd5b5f91829182602083519301915af13d15610360573d9067ffffffffffffffff82116101d9576040519161031c601f8201601f1916602001846101b7565b82523d5f602084013e5b1561035b57805190811591821561033c57505090565b8192509060209181010312610066576020015180151581036100665790565b505f90565b60609061032656fea264697066735822122026f80b96910d31cf02c3a0f38d7771cd262bc6a4316d9ebf72df875ea163d87064736f6c634300081e0033","linkReferences":{}},"methodIdentifiers":{"BAT()":"5b7ab891","BZRX()":"f30127a5","DAI()":"e0bab4c4","LINK()":"1b6b6d23","MKR()":"3d31a4af","PAXG()":"9ca6da2e","REP()":"062f67b2","STA()":"66909637","SUSHI_FACTORY()":"b753bb47","TARGET()":"cc1f2afa","UNI_V2_FACTORY()":"49eb3334","USDC()":"89a30271","USDT()":"c54e44eb","WBTC()":"4dede3de","WETH()":"ad5c4648","XAUT()":"8d75b0df","YFI()":"d82d41ac","ZRX()":"d40fa8bf","executeOnOpportunity()":"3c2448ed","executed()":"31a38c89","exploitPathUsed()":"d78c4281","hypothesisRefuted()":"495f92f1","hypothesisValidated()":"463defd1","profitAchieved()":"f0a01176","profitAmount()":"5ff972cc","profitToken()":"49343624","status()":"200d2ed2","sushiCall(address,uint256,uint256,bytes)":"00991403","uniswapV2Call(address,uint256,uint256,bytes)":"10d1e85c"},"id":0}