{"abi":[{"type":"constructor","inputs":[],"stateMutability":"nonpayable"},{"type":"receive","stateMutability":"payable"},{"type":"function","name":"executeOnOpportunity","inputs":[],"outputs":[],"stateMutability":"nonpayable"},{"type":"function","name":"exploitPathUsed","inputs":[],"outputs":[{"name":"","type":"string","internalType":"string"}],"stateMutability":"view"},{"type":"function","name":"failureReason","inputs":[],"outputs":[{"name":"","type":"string","internalType":"string"}],"stateMutability":"view"},{"type":"function","name":"hypothesisValidated","inputs":[],"outputs":[{"name":"","type":"bool","internalType":"bool"}],"stateMutability":"view"},{"type":"function","name":"isValidSignature","inputs":[{"name":"","type":"bytes32","internalType":"bytes32"},{"name":"","type":"bytes","internalType":"bytes"}],"outputs":[{"name":"","type":"bytes4","internalType":"bytes4"}],"stateMutability":"pure"},{"type":"function","name":"profitAmount","inputs":[],"outputs":[{"name":"","type":"uint256","internalType":"uint256"}],"stateMutability":"view"},{"type":"function","name":"profitToken","inputs":[],"outputs":[{"name":"","type":"address","internalType":"address"}],"stateMutability":"view"}],"bytecode":{"object":"0x608080604052346100e3575f80546001600160a01b03191673dac17f958d2ee523a2206206994597c13d831ec71781556370a0823160e01b6020830190815230602480850191909152835290918291829161005b60448261010f565b519073dac17f958d2ee523a2206206994597c13d831ec75afa3d15610107573d906001600160401b0382116100f357604051916100a2601f8201601f19166020018461010f565b82523d5f602084013e5b806100e7575b6100ca575b50600255604051612b8e90816101338239f35b90506020818051810103126100e357602001515f6100b7565b5f80fd5b506020815110156100b2565b634e487b7160e01b5f52604160045260245ffd5b6060906100ac565b601f909101601f19168101906001600160401b038211908210176100f35760405256fe6080604052600436101561001a575b3615610018575f80fd5b005b5f3560e01c80631626ba7e146100895780633c2448ed14610084578063463defd11461007f578063493436241461007a5780634f9522a4146100755780635ff972cc146100705763d78c42810361000e57610279565b61025c565b610195565b610136565b610111565b6100f9565b346100eb5760403660031901126100eb5760243567ffffffffffffffff81116100eb57366023820112156100eb57806004013567ffffffffffffffff81116100eb57369101602401116100eb57630b135d3f60e11b608052607f1960a0016080f35b5f80fd5b5f9103126100eb57565b346100eb575f3660031901126100eb57610018610b0e565b346100eb575f3660031901126100eb57602060ff60035460081c166040519015158152f35b346100eb575f3660031901126100eb575f546040516001600160a01b039091168152602090f35b805180835260209291819084018484015e5f828201840152601f01601f1916010190565b90602061019292818152019061015d565b90565b346100eb575f3660031901126100eb576040515f6005546101b58161030b565b808452906001811690811561023857506001146101ed575b6101e9836101dd818503826109e2565b60405191829182610181565b0390f35b91905060055f525f5160206129f95f395f51905f52915f905b80821061021e575090915081016020016101dd6101cd565b919260018160209254838588010152019101909291610206565b60ff191660208086019190915291151560051b840190910191506101dd90506101cd565b346100eb575f3660031901126100eb576020600154604051908152f35b346100eb575f3660031901126100eb576040515f6004546102998161030b565b808452906001811690811561023857506001146102c0576101e9836101dd818503826109e2565b91905060045f525f516020612ab95f395f51905f52915f905b8082106102f1575090915081016020016101dd6101cd565b9192600181602092548385880101520191019092916102d9565b90600182811c92168015610339575b602083101461032557565b634e487b7160e01b5f52602260045260245ffd5b91607f169161031a565b601f821161034f575050565b5f52600e601f60205f20920160051c820191015b81811061036e575050565b5f8155600101610363565b601f8211610385575050565b5f526007601f60205f20920160051c820191015b8181106103a4575050565b5f8155600101610399565b601f81116103ba5750565b60055f819052601f91909101901c5f5160206129f95f395f51905f52015f516020612b195f395f51905f525b8181106103f1575050565b5f81556001016103e6565b61041161040a60045461030b565b6004610343565b61037760049081555f527f3129206f627461696e206f72207265757365207468652076696374696d2773205f516020612ab95f395f51905f52557f7374616e64696e67205553445420617070726f76616c20666f722069747320315f516020612a595f395f51905f52557f696e6368206c696d69742d6f72646572207370656e64657220766961207468655f516020612a795f395f51905f52557f2073616d65205f707265706172654d616b65724361706974616c2829202f20635f516020612a995f395f51905f52557f616c6c6261636b20616c6c6f77616e6365207374616765202d3e20322920666f5f516020612af95f395f51905f52557f72676520616e20617262697472617279206f726465722077686f73652076756c5f516020612ad95f395f51905f52557f6e657261626c652d636f6e74726163742d736964652073656d616e74696373205f516020612b395f395f51905f52557f617265206d616b6572203d206164647265737328746869732920616e642061747f8a35acfbc15ff81a39ae7d344fd709f28e8600b4aa8c65c6b64bfe7fe36bd1a2557f7461636b65722d6661766f7261626c652070726963652c207768696368206d617f8a35acfbc15ff81a39ae7d344fd709f28e8600b4aa8c65c6b64bfe7fe36bd1a3557f707320746f206d616b65723d5441524745542066726f6d2074686973207665727f8a35acfbc15ff81a39ae7d344fd709f28e8600b4aa8c65c6b64bfe7fe36bd1a4557f6966696572202d3e2033292066696c6c206974207468726f75676820746865207f8a35acfbc15ff81a39ae7d344fd709f28e8600b4aa8c65c6b64bfe7fe36bd1a5557f617070726f7665642031696e63682070726f746f636f6c2072656c79696e67207f8a35acfbc15ff81a39ae7d344fd709f28e8600b4aa8c65c6b64bfe7fe36bd1a6557f6f6e2074686520746172676574277320756e636f6e646974696f6e616c2069737f8a35acfbc15ff81a39ae7d344fd709f28e8600b4aa8c65c6b64bfe7fe36bd1a7557f56616c69645369676e6174757265282920616363657074616e636500000000007f8a35acfbc15ff81a39ae7d344fd709f28e8600b4aa8c65c6b64bfe7fe36bd1a855565b61074d60055461030b565b601f81116107b9575b50606960059081555f527f544152474554206973206e6f7420756e6976657273616c6c79204552433132375f5160206129f95f395f51905f525573312d76616c6964206f6e207468697320666f726b60601b5f5160206129d95f395f51905f5255565b60055f819052601f91909101901c5f5160206129f95f395f51905f52015f516020612b195f395f51905f525b8181106107f25750610756565b5f81556001016107e5565b61080860055461030b565b601f811161087d575b50607560059081555f527f7265736f6c76656420617070726f766564207370656e646572206275742054415f5160206129f95f395f51905f52557f5247455420686173206e6f20647261696e61626c6520555344540000000000005f5160206129d95f395f51905f5255565b60055f819052601f91909101901c5f5160206129f95f395f51905f52015f516020612b195f395f51905f525b8181106108b65750610811565b5f81556001016108a9565b6108cc60055461030b565b601f811161095e575b50609560059081555f527f7665726966696572206c61636b73206475737420455448206e656564656420745f5160206129f95f395f51905f52557f6f20737570706c792074686520666f72676564206f7264657227732074696e795f5160206129d95f395f51905f5255692074616b6572206c656760b01b5f516020612b195f395f51905f5255565b60055f819052601f91909101901c5f5160206129f95f395f51905f52017f036b6384b5eca791c62761152d0c79bb0604c104a5fb6f4eb0703f3154bb3db35b8181106109aa57506108d5565b5f815560010161099d565b634e487b7160e01b5f52604160045260245ffd5b67ffffffffffffffff81116109dd57604052565b6109b5565b90601f8019910116810190811067ffffffffffffffff8211176109dd57604052565b6040513d5f823e3d90fd5b610a1a60055461030b565b601f8111610a84575b50606560059081555f527f666f72676564206f72646572207061746820657865637574656420776974686f5f5160206129f95f395f51905f5255717574206e6574205553445420696e666c6f7760701b5f5160206129d95f395f51905f5255565b60055f819052601f91909101901c5f5160206129f95f395f51905f52015f516020612b195f395f51905f525b818110610abd5750610a23565b5f8155600101610ab0565b610ad360055461030b565b601f8111610ae3575b505f600555565b60055f52601f60205f20910160051c8101905b818110610b035750610adc565b5f8155600101610af6565b60035460ff16610cb857610b2a600160ff196003541617600355565b5f80546001600160a01b03191673dac17f958d2ee523a2206206994597c13d831ec7179055610b60610b5b30610dba565b600255565b610b686103fc565b610b77610b73610e95565b1590565b610cf157610b86610b73611483565b610cb857610bb3610b95610e3d565b600354610bad9060281c6001600160a01b03166115b9565b906115ff565b8015610ce85760014710610cdf575f516020612a195f395f51905f523b156100eb57604051630d0e30db60e41b81525f8160048160015f516020612a195f395f51905f525af18015610cda57610cc0575b50600354610c1d9060281c6001600160a01b03166116a4565b610c49610b73610c2c8361186f565b610c44630100000063ff000000196003541617600355565b6119ca565b610c9f575b50610c6964010000000064ff00000000196003541617600355565b610c71610d0d565b60015415610c9757610c8d61010061ff00196003541617600355565b610c95610ac8565b565b610c95610a0f565b610b73610c44610cae9261192d565b610cb8575f610c4e565b610c95610d0d565b80610cce5f610cd4936109e2565b806100ef565b5f610c04565b610a04565b50610cb86108c1565b50610cb86107fd565b610cb8610742565b634e487b7160e01b5f52601160045260245ffd5b610d1630610dba565b60025480821115610d34578103908111610d2f57600155565b610cf9565b50505f600155565b60405190610c95610140836109e2565b67ffffffffffffffff81116109dd57601f01601f191660200190565b60405190610d776020836109e2565b5f8252565b3d15610da6573d90610d8d82610d4c565b91610d9b60405193846109e2565b82523d5f602084013e565b606090565b908160209103126100eb575190565b905f80809360405160208101916370a0823160e01b835260018060a01b0316602482015260248152610ded6044826109e2565b519073dac17f958d2ee523a2206206994597c13d831ec75afa610e0e610d7c565b9080610e31575b610e1c5750565b61019291925060208082518301019101610dab565b50602081511015610e15565b5f905f8060405160208101906370a0823160e01b82525f516020612a395f395f51905f52602482015260248152610ded6044826109e2565b908160209103126100eb57516001600160e01b0319811681036100eb5790565b60205f80604051610ea684826109e2565b818152604051610ee681610ed887820194630b135d3f60e11b865286602484015260406044840152606483019061015d565b03601f1981018352826109e2565b51905f516020612a395f395f51905f525afa90610f01610d7c565b9082610f3d575b82610f1257505090565b8151630b135d3f60e11b93506001600160e01b031992610f389291810182019101610e75565b161490565b8092508151101591610f08565b610f5560045461030b565b601f811161108b575b5061017d60049081555f527f666f726b20616c7265616479206578706f736573207468652076756c6e6572615f516020612ab95f395f51905f52557f626c65207374616e64696e67205553445420616c6c6f77616e6365206f6e20545f516020612a595f395f51905f52557f4152474554202d3e20666f72676520617262697472617279206d616b6572206f5f516020612a795f395f51905f52557f72646572206e616d696e6720544152474554202d3e2066696c6c2069742076695f516020612a995f395f51905f52557f612074686520617070726f7665642031696e63682070726f746f636f6c2075735f516020612af95f395f51905f52557f696e672066616b65204552433132373120617574686f72697a6174696f6e00005f516020612ad95f395f51905f5255565b60045f52601f0160051c5f516020612ab95f395f51905f52015f516020612b395f395f51905f525b8181106110c05750610f5e565b5f81556001016110b3565b6110e06110d960045461030b565b6004610379565b6101a760049081555f527f74726967676572205441524745542e657865637574654f6e4f70706f7274756e5f516020612ab95f395f51905f52557f697479282920736f20697473206d616b65722d6361706974616c2070617468205f516020612a595f395f51905f52557f696e7374616c6c7320746865205553445420617070726f76616c202d3e20666f5f516020612a795f395f51905f52557f72676520617262697472617279206d616b6572206f72646572206e616d696e675f516020612a995f395f51905f52557f20544152474554202d3e2066696c6c206974207669612074686520617070726f5f516020612af95f395f51905f52557f7665642031696e63682070726f746f636f6c207573696e672066616b652045525f516020612ad95f395f51905f5255722198991b989030baba3437b934bd30ba34b7b760691b5f516020612b395f395f51905f5255565b6112406110d960045461030b565b61018d60049081555f527f7265616368207468652073616d652076756c6e657261626c6520617070726f765f516020612ab95f395f51905f52557f616c207374616765207468726f75676820544152474554277320666c6173682d5f516020612a595f395f51905f52557f737761702063616c6c6261636b202d3e20666f726765206172626974726172795f516020612a795f395f51905f52557f206d616b6572206f72646572206e616d696e6720544152474554202d3e2066695f516020612a995f395f51905f52557f6c6c206974207669612074686520617070726f7665642031696e63682070726f5f516020612af95f395f51905f52557f746f636f6c207573696e672066616b65204552433132373120617574686f72695f516020612ad95f395f51905f5255653d30ba34b7b760d11b5f516020612b395f395f51905f5255565b61139060055461030b565b601f811161142c575b5060a960059081555f527f636f756c64206e6f74206f62736572766520616e7920617070726f76656420315f5160206129f95f395f51905f52557f696e6368207370656e6465722061667465722064697265637420616e642063615f5160206129d95f395f51905f5255736c6c6261636b2d7061746820617474656d70747360601b5f516020612b195f395f51905f5255565b60055f819052601f91909101901c5f5160206129f95f395f51905f52017f036b6384b5eca791c62761152d0c79bb0604c104a5fb6f4eb0703f3154bb3db35b8181106114785750611399565b5f815560010161146b565b6114bd61148e611b37565b6003805465010000000000600160c81b03191660289290921b65010000000000600160c81b0316919091179055565b60035460281c6001600160a01b03166001600160a01b038116151590816115a7575b50611589576114ec611bcd565b6114f761148e611b37565b60035460281c6001600160a01b03166001600160a01b03811615159081611577575b5061155957611526611c6d565b61153657611532611385565b5f90565b61154c6201000062ff0000196003541617600355565b611554611232565b600190565b61156f6201000062ff0000196003541617600355565b6115546110cb565b61158191506115b9565b15155f611519565b61159f6201000062ff0000196003541617600355565b611554610f4a565b6115b191506115b9565b15155f6114df565b905f8080936040516020810191636eb1769f60e11b83525f516020612a395f395f51905f52602483015260018060a01b0316604482015260448152610ded6064826109e2565b908082101561160c575090565b905090565b908160209103126100eb575180151581036100eb5790565b1561163057565b60405162461bcd60e51b815260206004820152600f60248201526e185c1c1c9bdd994c0819985a5b1959608a1b6044820152606490fd5b1561166e57565b60405162461bcd60e51b815260206004820152600e60248201526d185c1c1c9bdd994819985a5b195960921b6044820152606490fd5b60405163095ea7b360e01b602082019081526001600160a01b03831660248301525f60448301819052610c95939092839261171191849182916116ea8160648101610ed8565b5190825f516020612a195f395f51905f525af1611705610d7c565b8161179d575b50611629565b60405163095ea7b360e01b602082019081526001600160a01b039092166024820152821960448201526117478160648101610ed8565b5190825f516020612a195f395f51905f525af1611762610d7c565b8161176e575b50611667565b8051801592508215611783575b50505f611768565b6117969250602080918301019101611611565b5f8061177b565b80518015925082156117b2575b50505f61170b565b6117c59250602080918301019101611611565b5f806117aa565b60405190610140820182811067ffffffffffffffff8211176109dd576040526060610120835f81525f60208201525f60408201525f838201525f60808201525f60a08201525f60c08201525f60e08201525f6101008201520152565b9391608895939185526bffffffffffffffffffffffff199060601b166020850152603484015260548301526bffffffffffffffffffffffff199060601b1660748201520190565b6118776117cc565b5060405160208101906118a081610ed85f516020612a395f395f51905f52600187304689611828565b519020906118ac610d3c565b91825273dac17f958d2ee523a2206206994597c13d831ec760208301525f516020612a195f395f51905f5260408301525f516020612a395f395f51905f5260608301525f516020612a395f395f51905f5260808301525b5f60a083015260c0820152600160e08201525f610100820152611924610d68565b61012082015290565b6119356117cc565b50604051602081019061195181610ed85f600187304689611828565b5190209061195d610d3c565b91825273dac17f958d2ee523a2206206994597c13d831ec760208301525f516020612a195f395f51905f5260408301525f516020612a395f395f51905f5260608301525f6080830152611903565b604051906119ba6040836109e2565b60018252600160f81b6020830152565b604051906119d96020836109e2565b5f82526119e46119ab565b91611a0c600182604051956119fa6080886109e2565b60418752606036602089013785611df7565b611aa057611a1c92600192611df7565b61155457611a33611a2e60055461030b565b6103af565b607160055560055f527f617070726f766564207370656e6465722072656a656374656420616c6c20666f5f5160206129f95f395f51905f52557f726765642d6f726465722066696c6c2076617269616e747300000000000000005f5160206129d95f395f51905f52555f90565b505050600190565b5f516020612a395f395f51905f523b90611ac182610d4c565b91611acf60405193846109e2565b8083525f602084015f516020612a395f395f51905f523c565b5f198114610d2f5760010190565b9060158201809211610d2f57565b9060018201809211610d2f57565b908151811015611b23570160200190565b634e487b7160e01b5f52603260045260245ffd5b611b3f611f48565b6001600160a01b0381166101925750611b56611aa8565b8051905f5b82611b6582611af6565b11611bc657607360ff611b788385611b12565b8160f81b90511660f81c1603611bbd57611b9a611b9482611b04565b8361202b565b611ba3816120c5565b611bb65750611bb190611ae8565b611b5b565b9250505090565b611bb190611ae8565b5050505f90565b5f806040516020810190633c2448ed60e01b825260048152611bf06024826109e2565b5190825f516020612a395f395f51905f525af150611c0c610d7c565b50565b6001600160a01b0390911681525f6020820152600160408201526080606082018190526101929291019061015d565b6001600160a01b039091168152600160208201525f60408201526080606082018190526101929291019061015d565b611c756119ab565b5f8060405160208101906304347a1760e21b8252611c9b81610ed8873060248401611c0f565b5190825f516020612a395f395f51905f525af150611cb7610d7c565b50611cc361148e611b37565b60035460281c6001600160a01b03166001600160a01b03811615159081611de5575b50611dcd575f8060405160208101906304347a1760e21b8252611d1081610ed8873060248401611c3e565b5190825f516020612a395f395f51905f525af150611d2c610d7c565b50611d3861148e611b37565b60035460281c6001600160a01b03166001600160a01b03811615159081611dd3575b50611dcd57611d67612138565b906001600160a01b03821615611dc757611d8091612321565b611d88575f90565b611d9361148e611b37565b60035460281c6001600160a01b03166001600160a01b03811615159081611db8575090565b611dc291506115b9565b151590565b50505f90565b50600190565b611ddd91506115b9565b15155f611d5a565b611def91506115b9565b15155f611ce5565b9192909260c08301611e0e815130908488886125a8565b611eb557611e1f30848488886125f7565b611eb557611e303082518787612636565b611eb557611e40308487876126be565b611eb557611e51815183878761277f565b611eb557611e61838387876127bb565b611eb557611e7281518387876127f7565b611eb557611e8283838787612833565b611eb557611e959030905183878761286f565b611eac57611ea49330936128ae565b611554575f90565b50505050600190565b5050505050600190565b60405190611ece6040836109e2565b60148252736c696d69744f7264657250726f746f636f6c282960601b6020830152565b60405190611f006040836109e2565b60168252756c696d69744f7264657250726f746f636f6c5634282960501b6020830152565b60405190611f346040836109e2565b60058252644c4f50282960d81b6020830152565b611f81604051611f596040826109e2565b60168152754c494d49545f4f524445525f50524f544f434f4c282960501b60208201526128ed565b611f8a816120c5565b6101925750611f9f611f9a611ebf565b6128ed565b611fa8816120c5565b6101925750611fb8611f9a611ef1565b611fc1816120c5565b6101925750611fd1611f9a611f25565b611fda816120c5565b6101925750611fe7612049565b61201357611ff3612087565b611ffb575f90565b73111111125421ca6dc452d289314280a0f8842a6590565b731111111254eeb25477b68fb85ed929f73a96058290565b9060148101808211610d2f57825110611dc757016020015160601c90565b731111111254eeb25477b68fb85ed929f73a9605823b1515806120695790565b50611dc2731111111254eeb25477b68fb85ed929f73a9605826115b9565b73111111125421ca6dc452d289314280a0f8842a653b1515806120a75790565b50611dc273111111125421ca6dc452d289314280a0f8842a656115b9565b6001600160a01b038116151590816120e1575b81611db8575090565b803b151591506120d8565b604051906120fb6040836109e2565b6008825267746f6b656e30282960c01b6020830152565b604051906121216040836109e2565b6008825267746f6b656e31282960c01b6020830152565b612140611aa8565b8051905f5b8261214f82611af6565b11611bc657607361218361217d6121776121698587611b12565b516001600160f81b03191690565b60f81c90565b60ff1690565b036122b657612194611b9482611b04565b6001600160a01b0381161580156122ad575b6122a3576121bb6121b56120ec565b8261298d565b6121cc6121c6612112565b8361298d565b73dac17f958d2ee523a2206206994597c13d831ec76001600160a01b0390921691821491821561228c575b8215612265575b8215612245575b82612220575b5050611bb6575061221b90611ae8565b612145565b1580159250612232575b505f8061220b565b6001600160a01b0316151590505f61222a565b6001600160a01b0382165f516020612a195f395f51905f52149250612205565b6001600160a01b03821673dac17f958d2ee523a2206206994597c13d831ec71492506121fe565b5f516020612a195f395f51905f52811492506121f7565b5061221b90611ae8565b50803b156121a6565b61221b90611ae8565b90608061019292600181525f60208201525f516020612a395f395f51905f526040820152816060820152019061015d565b906080610192925f8152600160208201525f516020612a395f395f51905f526040820152816060820152019061015d565b61232c6121b56120ec565b6123376121c6612112565b906001600160a01b0316801580612498575b6124905773dac17f958d2ee523a2206206994597c13d831ec78114908115612479575b5061241b575b60018060a01b031673dac17f958d2ee523a2206206994597c13d831ec78114908115612404575b506123a45750505f90565b6001600160a01b0316803b156100eb5760405163022c0d9f60e01b8152915f9183918290849082906123d990600483016122f0565b03925af190816123f0575b50611554575f80611dc7565b80610cce5f6123fe936109e2565b5f6123e4565b5f516020612a195f395f51905f529150145f612399565b6001600160a01b038216803b156100eb575f604051809263022c0d9f60e01b825281838161244c8a600483016122bf565b03925af19081612465575b501561237257505050600190565b80610cce5f612473936109e2565b5f612457565b5f516020612a195f395f51905f529150145f61236c565b505050505f90565b506001600160a01b03821615612349565b805182526020808201516001600160a01b031690830152610192919061014090610120906040818101516001600160a01b0316908501526060818101516001600160a01b0316908501526080818101516001600160a01b03169085015260a0818101516001600160a01b03169085015260c081015160c085015260e081015160e085015261010081015161010085015201519181610120820152019061015d565b959261257a60c0969361256c612588949b9a979b60e08b5260e08b01906124a9565b9089820360208b015261015d565b90878203604089015261015d565b6060860197909752608085015260a08401526001600160a01b0316910152565b905f94926125e786959492610ed88794858060018060a01b0360035460281c1699604051978896602088019b6372ebdef360e11b8d526024890161254a565b51925af16125f3610d7c565b5090565b905f94926125e786959492610ed887948560018060a01b0360035460281c169881604051978896602088019b6372ebdef360e11b8d526024890161254a565b5f61268c6125e7829694839660018060a01b0360035460281c169660405194859361267a6020860199633cfdd2a760e01b8b5260c0602488015260e48701906124a9565b8581036023190160448701529061015d565b60648401929092526084830186905260a483018690526001600160a01b031660c483015203601f1981018352826109e2565b5f6127026125e7829694839660018060a01b0360035460281c169660405194859361267a6020860199633cfdd2a760e01b8b5260c0602488015260e48701906124a9565b60648401879052608484019290925260a483018690526001600160a01b031660c483015203601f1981018352826109e2565b9261276260a095989796936127546127709460c0885260c08801906124a9565b90868203602088015261015d565b90848203604086015261015d565b95606083015260808201520152565b5f809492936125e78295610ed8848060018060a01b0360035460281c1698604051968795602087019a6362e238bb60e01b8c5260248801612734565b5f809492936125e78295610ed88460018060a01b0360035460281c169781604051968795602087019a6362e238bb60e01b8c5260248801612734565b5f809492936125e78295610ed8848060018060a01b0360035460281c1698604051968795602087019a637eb087d760e01b8c5260248801612734565b5f809492936125e78295610ed88460018060a01b0360035460281c169781604051968795602087019a637eb087d760e01b8c5260248801612734565b905f94926125e786959492610ed88794858060018060a01b0360035460281c1699604051978896602088019b639c89ca8d60e01b8d526024890161254a565b905f94926125e786959492610ed887948560018060a01b0360035460281c169881604051978896602088019b639c89ca8d60e01b8d526024890161254a565b905f8080936129106040519163ffffffff60e01b906020815191012016916109c9565b60405160208101918252600481526129296024826109e2565b51905f516020612a395f395f51905f525afa612943610d7c565b9080612981575b6129515750565b9091506020818051810103126100eb57602001516001600160a01b03811681036100eb576001600160a01b031690565b5060208151101561294a565b5f809193929381946129b36040519163ffffffff60e01b906020815191012016916109c9565b60405160208101918252600481526129cc6024826109e2565b51915afa612943610d7c56fe036b6384b5eca791c62761152d0c79bb0604c104a5fb6f4eb0703f3154bb3db1036b6384b5eca791c62761152d0c79bb0604c104a5fb6f4eb0703f3154bb3db0000000000000000000000000c02aaa39b223fe8d0a0e5c4f27ead9083c756cc2000000000000000000000000a88800cd213da5ae406ce248380802bd53b476478a35acfbc15ff81a39ae7d344fd709f28e8600b4aa8c65c6b64bfe7fe36bd19c8a35acfbc15ff81a39ae7d344fd709f28e8600b4aa8c65c6b64bfe7fe36bd19d8a35acfbc15ff81a39ae7d344fd709f28e8600b4aa8c65c6b64bfe7fe36bd19e8a35acfbc15ff81a39ae7d344fd709f28e8600b4aa8c65c6b64bfe7fe36bd19b8a35acfbc15ff81a39ae7d344fd709f28e8600b4aa8c65c6b64bfe7fe36bd1a08a35acfbc15ff81a39ae7d344fd709f28e8600b4aa8c65c6b64bfe7fe36bd19f036b6384b5eca791c62761152d0c79bb0604c104a5fb6f4eb0703f3154bb3db28a35acfbc15ff81a39ae7d344fd709f28e8600b4aa8c65c6b64bfe7fe36bd1a1a2646970667358221220add76bfd8106c4774b7b2bd308253336a700b8cd5d2a6e755879cd3ba341be3064736f6c634300081e0033","linkReferences":{}},"methodIdentifiers":{"executeOnOpportunity()":"3c2448ed","exploitPathUsed()":"d78c4281","failureReason()":"4f9522a4","hypothesisValidated()":"463defd1","isValidSignature(bytes32,bytes)":"1626ba7e","profitAmount()":"5ff972cc","profitToken()":"49343624"},"id":0}