{"abi":[{"type":"constructor","inputs":[],"stateMutability":"nonpayable"},{"type":"receive","stateMutability":"payable"},{"type":"function","name":"ROUTER","inputs":[],"outputs":[{"name":"","type":"address","internalType":"address"}],"stateMutability":"view"},{"type":"function","name":"TARGET","inputs":[],"outputs":[{"name":"","type":"address","internalType":"address"}],"stateMutability":"view"},{"type":"function","name":"UNISWAP_V2_FACTORY","inputs":[],"outputs":[{"name":"","type":"address","internalType":"address"}],"stateMutability":"view"},{"type":"function","name":"WETH","inputs":[],"outputs":[{"name":"","type":"address","internalType":"address"}],"stateMutability":"view"},{"type":"function","name":"executeOnOpportunity","inputs":[],"outputs":[],"stateMutability":"nonpayable"},{"type":"function","name":"profitAmount","inputs":[],"outputs":[{"name":"","type":"uint256","internalType":"uint256"}],"stateMutability":"view"},{"type":"function","name":"profitToken","inputs":[],"outputs":[{"name":"","type":"address","internalType":"address"}],"stateMutability":"pure"},{"type":"function","name":"status","inputs":[],"outputs":[{"name":"","type":"uint8","internalType":"enum FlawVerifier.ExecutionStatus"}],"stateMutability":"view"}],"bytecode":{"object":"0x60808060405234601557610d8c908161001a8239f35b5f80fdfe608080604052600436101561001c575b50361561001a575f80fd5b005b5f905f3560e01c908163200d2ed2146103535750806332fe7b26146103255780633c2448ed1461012157806349343624146100a65780635ff972cc1461010457806399d8fae3146100d5578063ad5c4648146100a65763cc1f2afa0361000f57346100a357806003193601126100a35760206040515f516020610d375f395f51905f528152f35b80fd5b50346100a357806003193601126100a357602060405173c02aaa39b223fe8d0a0e5c4f27ead9083c756cc28152f35b50346100a357806003193601126100a3576020604051735c69bee701ef814a2b6a3edd4b1652cb9cc5aa6f8152f35b50346100a357806003193601126100a35760209054604051908152f35b503461026a575f36600319011261026a576040516370a0823160e01b815230600482015260208160248173c02aaa39b223fe8d0a0e5c4f27ead9083c756cc25afa9081156102e8575f916102f3575b506101796103fb565b904780610281575b506040516370a0823160e01b81523060048201529160208360248173c02aaa39b223fe8d0a0e5c4f27ead9083c756cc25afa92831561027657849361023e575b50818311156101fa575081039081116101e6578155600360ff19600154161760015580f35b634e487b7160e01b82526011600452602482fd5b9150508180555f146102375760025b60048110156102235760ff80196001541691161760015580f35b634e487b7160e01b82526021600452602482fd5b6001610209565b9092506020813d60201161026e575b8161025a6020938361038e565b8101031261026a5751915f6101c1565b5f80fd5b3d915061024d565b6040513d86823e3d90fd5b73c02aaa39b223fe8d0a0e5c4f27ead9083c756cc23b1561026a575f60049160405192838092630d0e30db60e41b825273c02aaa39b223fe8d0a0e5c4f27ead9083c756cc25af180156102e85715610181576102e09193505f9061038e565b5f915f610181565b6040513d5f823e3d90fd5b90506020813d60201161031d575b8161030e6020938361038e565b8101031261026a57515f610170565b3d9150610301565b3461026a575f36600319011261026a576020604051737a250d5630b4cf539739df2c5dacb4c659f2488d8152f35b3461026a575f36600319011261026a5760ff6001541690600482101561037a576020918152f35b634e487b7160e01b5f52602160045260245ffd5b90601f8019910116810190811067ffffffffffffffff8211176103b057604052565b634e487b7160e01b5f52604160045260245ffd5b9081602091031261026a57516001600160a01b038116810361026a5790565b9081602091031261026a5751801515810361026a5790565b604051638da5cb5b60e01b81525f906020816004815f516020610d375f395f51905f525afa9081156102e8575f9161097c575b506104376109ab565b906001600160a01b0382161561063b575b5061045281610b13565b15610637576040516370a0823160e01b815230600482015291906001600160a01b0316602083602481845afa9283156105f2578293610603575b5082156105fd576020829160446040518094819363095ea7b360e01b8352737a250d5630b4cf539739df2c5dacb4c659f2488d60048401528860248401525af19081156105f25782916105c3575b501561058a576040519163af2979eb60e01b83525f516020610d375f395f51905f52600484015260248301528060448301528060648301523060848301524260a483015260208260c48184737a250d5630b4cf539739df2c5dacb4c659f2488d5af190811561057e575061054f575b50600190565b6020813d602011610576575b816105686020938361038e565b8101031261026a5751610549565b3d915061055b565b604051903d90823e3d90fd5b60405162461bcd60e51b81526020600482015260116024820152701b1c08185c1c1c9bdd994819985a5b1959607a1b6044820152606490fd5b6105e5915060203d6020116105eb575b6105dd818361038e565b8101906103e3565b5f6104da565b503d6105d3565b6040513d84823e3d90fd5b50905090565b9092506020813d60201161062f575b8161061f6020938361038e565b8101031261026a5751915f61048c565b3d9150610612565b5090565b306001600160a01b0390911603905061087a576040516370a0823160e01b81525f516020610d375f395f51905f5260048201526020816024815f516020610d375f395f51905f525afa9081156102e8575f9161094a575b501561079a575b5f808080475f516020610d375f395f51905f525af13d15610795573d67ffffffffffffffff81116103b057604051906106dc601f8201601f19166020018361038e565b81525f60203d92013e5b1561075e575f516020610d375f395f51905f523b1561026a5760405163c9567bf960e01b81525f81600481835f516020610d375f395f51905f525af180156102e85761074b575b506107366109ab565b6001600160a01b03811615610637575f610448565b61075791505f9061038e565b5f5f61072d565b60405162461bcd60e51b815260206004820152600f60248201526e195d1a081cd959590819985a5b1959608a1b6044820152606490fd5b6106e6565b6040516370a0823160e01b81523060048201526020816024815f516020610d375f395f51905f525afa9081156102e8575f91610918575b5080158015610910575b61090a576040519063a9059cbb60e01b82525f516020610d375f395f51905f52600483015260248201526020816044815f5f516020610d375f395f51905f525af19081156102e8575f916108eb575b50156108b1576040516370a0823160e01b81525f516020610d375f395f51905f5260048201526020816024815f516020610d375f395f51905f525afa9081156102e8575f9161087f575b50610699575b505f90565b90506020813d6020116108a9575b8161089a6020938361038e565b8101031261026a57515f610874565b3d915061088d565b60405162461bcd60e51b81526020600482015260126024820152711b185d5b98da081cd959590819985a5b195960721b6044820152606490fd5b610904915060203d6020116105eb576105dd818361038e565b5f61082a565b50505f90565b5047156107db565b90506020813d602011610942575b816109336020938361038e565b8101031261026a57515f6107d1565b3d9150610926565b90506020813d602011610974575b816109656020938361038e565b8101031261026a57515f610692565b3d9150610958565b61099e915060203d6020116109a4575b610996818361038e565b8101906103c4565b5f61042e565b503d61098c565b60405163e6a4390560e01b81525f516020610d375f395f51905f52600482015273c02aaa39b223fe8d0a0e5c4f27ead9083c756cc26024820152602081604481735c69bee701ef814a2b6a3edd4b1652cb9cc5aa6f5afa9081156102e8575f91610af4575b506001600160a01b038116610af15750604051736015551cd911ff4685072e2793f56c841e3ab66160611b6020820190815273e5c6f5fef89b64f36bfccb063962820136bac42f60601b60348301526028825290610a6f60488261038e565b51902060405190602082019060ff60f81b8252735c69bee701ef814a2b6a3edd4b1652cb9cc5aa6f60601b602184015260358301527f96e8ac4277198ff8b6f785478aa9a39f403cb768dd02cbee326c3e7da348845f605583015260558252610ad960758361038e565b905190206001600160a01b0316803b610af157505f90565b90565b610b0d915060203d6020116109a457610996818361038e565b5f610a10565b6001600160a01b03811680158015610c61575b61090a57604051630dfe168160e01b8152602081600481855afa5f9181610c40575b50610b54575050505f90565b60206004926040519384809263d21220a760e01b82525afa9182156102e8575f92610c1f575b506001600160a01b03165f516020610d375f395f51905f52811480610bf9575b610bee5773c02aaa39b223fe8d0a0e5c4f27ead9083c756cc2149081610bce575b50610bc557505f90565b610af190610c7e565b6001600160a01b03165f516020610d375f395f51905f521490505f610bbb565b5050610af190610c7e565b506001600160a01b03821673c02aaa39b223fe8d0a0e5c4f27ead9083c756cc214610b9a565b610c3991925060203d6020116109a457610996818361038e565b905f610b7a565b610c5a91925060203d6020116109a457610996818361038e565b905f610b48565b50813b15610b26565b51906001600160701b038216820361026a57565b604051630240bc6b60e21b815290606090829060049082906001600160a01b03165afa9081156102e8575f905f92610cd7575b506001600160701b031615159081610cc7575090565b6001600160701b03915016151590565b9150506060813d606011610d2e575b81610cf36060938361038e565b8101031261026a57610d0481610c6a565b6040610d1260208401610c6a565b92015163ffffffff81160361026a576001600160701b03610cb1565b3d9150610ce656fe000000000000000000000000e5c6f5fef89b64f36bfccb063962820136bac42fa26469706673582212205fcd3ed5f7d3b3b4035bf94a2e762717d1a866d875a96c5c218c90b2ed7bd68164736f6c634300081e0033","linkReferences":{}},"methodIdentifiers":{"ROUTER()":"32fe7b26","TARGET()":"cc1f2afa","UNISWAP_V2_FACTORY()":"99d8fae3","WETH()":"ad5c4648","executeOnOpportunity()":"3c2448ed","profitAmount()":"5ff972cc","profitToken()":"49343624","status()":"200d2ed2"},"id":0}