{"abi":[{"type":"constructor","inputs":[],"stateMutability":"nonpayable"},{"type":"receive","stateMutability":"payable"},{"type":"function","name":"AAVE_V3_POOL","inputs":[],"outputs":[{"name":"","type":"address","internalType":"address"}],"stateMutability":"view"},{"type":"function","name":"TARGET","inputs":[],"outputs":[{"name":"","type":"address","internalType":"address"}],"stateMutability":"view"},{"type":"function","name":"UNISWAP_V3_FACTORY","inputs":[],"outputs":[{"name":"","type":"address","internalType":"address"}],"stateMutability":"view"},{"type":"function","name":"UNISWAP_V3_QUOTER","inputs":[],"outputs":[{"name":"","type":"address","internalType":"address"}],"stateMutability":"view"},{"type":"function","name":"UNISWAP_V3_ROUTER","inputs":[],"outputs":[{"name":"","type":"address","internalType":"address"}],"stateMutability":"view"},{"type":"function","name":"WETH","inputs":[],"outputs":[{"name":"","type":"address","internalType":"address"}],"stateMutability":"view"},{"type":"function","name":"actualWithdraw","inputs":[],"outputs":[{"name":"","type":"uint256","internalType":"uint256"}],"stateMutability":"view"},{"type":"function","name":"borrowedShares","inputs":[],"outputs":[{"name":"","type":"uint256","internalType":"uint256"}],"stateMutability":"view"},{"type":"function","name":"controllerBalanceBeforeWithdraw","inputs":[],"outputs":[{"name":"","type":"uint256","internalType":"uint256"}],"stateMutability":"view"},{"type":"function","name":"estimatedControllerGross","inputs":[],"outputs":[{"name":"","type":"uint256","internalType":"uint256"}],"stateMutability":"view"},{"type":"function","name":"estimatedControllerNet","inputs":[],"outputs":[{"name":"","type":"uint256","internalType":"uint256"}],"stateMutability":"view"},{"type":"function","name":"estimatedShortfall","inputs":[],"outputs":[{"name":"","type":"uint256","internalType":"uint256"}],"stateMutability":"view"},{"type":"function","name":"executeOnOpportunity","inputs":[],"outputs":[],"stateMutability":"nonpayable"},{"type":"function","name":"executeOperation","inputs":[{"name":"asset","type":"address","internalType":"address"},{"name":"amount","type":"uint256","internalType":"uint256"},{"name":"premium","type":"uint256","internalType":"uint256"},{"name":"initiator","type":"address","internalType":"address"},{"name":"params","type":"bytes","internalType":"bytes"}],"outputs":[{"name":"","type":"bool","internalType":"bool"}],"stateMutability":"nonpayable"},{"type":"function","name":"expectedWithdraw","inputs":[],"outputs":[{"name":"","type":"uint256","internalType":"uint256"}],"stateMutability":"view"},{"type":"function","name":"exploitPathUsed","inputs":[],"outputs":[{"name":"","type":"string","internalType":"string"}],"stateMutability":"pure"},{"type":"function","name":"finalWethBalance","inputs":[],"outputs":[{"name":"","type":"uint256","internalType":"uint256"}],"stateMutability":"view"},{"type":"function","name":"fundingFeeTier","inputs":[],"outputs":[{"name":"","type":"uint24","internalType":"uint24"}],"stateMutability":"view"},{"type":"function","name":"fundingPool","inputs":[],"outputs":[{"name":"","type":"address","internalType":"address"}],"stateMutability":"view"},{"type":"function","name":"hypothesisValidated","inputs":[],"outputs":[{"name":"","type":"bool","internalType":"bool"}],"stateMutability":"view"},{"type":"function","name":"idleBeforeWithdraw","inputs":[],"outputs":[{"name":"","type":"uint256","internalType":"uint256"}],"stateMutability":"view"},{"type":"function","name":"initialWethBalance","inputs":[],"outputs":[{"name":"","type":"uint256","internalType":"uint256"}],"stateMutability":"view"},{"type":"function","name":"investedBeforeWithdraw","inputs":[],"outputs":[{"name":"","type":"uint256","internalType":"uint256"}],"stateMutability":"view"},{"type":"function","name":"outcome","inputs":[],"outputs":[{"name":"","type":"uint8","internalType":"enum FlawVerifier.Outcome"}],"stateMutability":"view"},{"type":"function","name":"profitAmount","inputs":[],"outputs":[{"name":"","type":"uint256","internalType":"uint256"}],"stateMutability":"view"},{"type":"function","name":"profitToken","inputs":[],"outputs":[{"name":"","type":"address","internalType":"address"}],"stateMutability":"pure"},{"type":"function","name":"quotedStonePurchaseCost","inputs":[],"outputs":[{"name":"","type":"uint256","internalType":"uint256"}],"stateMutability":"view"},{"type":"function","name":"repayAmount","inputs":[],"outputs":[{"name":"","type":"uint256","internalType":"uint256"}],"stateMutability":"view"},{"type":"function","name":"roundsRolled","inputs":[],"outputs":[{"name":"","type":"uint256","internalType":"uint256"}],"stateMutability":"view"},{"type":"function","name":"sharesBurned","inputs":[],"outputs":[{"name":"","type":"uint256","internalType":"uint256"}],"stateMutability":"view"},{"type":"function","name":"verifiedLossAmount","inputs":[],"outputs":[{"name":"","type":"uint256","internalType":"uint256"}],"stateMutability":"view"}],"bytecode":{"object":"0x6080604052348015600e575f5ffd5b50613a178061001c5f395ff3fe6080604052600436106101db575f3560e01c8063546a306011610101578063c5c8fb6111610094578063d78c428111610063578063d78c428114610652578063ee29d9131461067c578063f6a1fe94146106a6578063f73e5aab146106d0576101e2565b8063c5c8fb61146105aa578063cc1f2afa146105d4578063d0efe753146105fe578063d604aae514610628576101e2565b80637aca04b7116100d05780637aca04b714610502578063916263081461052c578063ad5c464814610556578063c3a792a214610580576101e2565b8063546a30601461045a5780635dda2fbd146104845780635ff972cc146104ae57806371c5c4ab146104d8576101e2565b806330b6ade6116101795780634585ef9e116101485780634585ef9e146103b2578063463defd1146103dc57806347f1b75c146104065780634934362414610430576101e2565b806330b6ade61461031e5780633b303705146103485780633c2448ed1461037257806341c64a2f14610388576101e2565b80631ca62a22116101b55780631ca62a22146102765780631f3de348146102a057806323cdbd3c146102ca57806327793f87146102f4576101e2565b806312234e8e146101e65780631712540a146102105780631b11d0ff1461023a576101e2565b366101e257005b5f5ffd5b3480156101f1575f5ffd5b506101fa6106fa565b60405161020791906129bc565b60405180910390f35b34801561021b575f5ffd5b50610224610700565b60405161023191906129f2565b60405180910390f35b348015610245575f5ffd5b50610260600480360381019061025b9190612b01565b610714565b60405161026d9190612bb1565b60405180910390f35b348015610281575f5ffd5b5061028a610d8a565b60405161029791906129bc565b60405180910390f35b3480156102ab575f5ffd5b506102b4610d90565b6040516102c191906129bc565b60405180910390f35b3480156102d5575f5ffd5b506102de610d96565b6040516102eb91906129bc565b60405180910390f35b3480156102ff575f5ffd5b50610308610d9c565b6040516103159190612c3d565b60405180910390f35b348015610329575f5ffd5b50610332610daf565b60405161033f91906129bc565b60405180910390f35b348015610353575f5ffd5b5061035c610db5565b6040516103699190612c65565b60405180910390f35b34801561037d575f5ffd5b50610386610dcd565b005b348015610393575f5ffd5b5061039c611430565b6040516103a99190612c65565b60405180910390f35b3480156103bd575f5ffd5b506103c6611448565b6040516103d391906129bc565b60405180910390f35b3480156103e7575f5ffd5b506103f061144e565b6040516103fd9190612bb1565b60405180910390f35b348015610411575f5ffd5b5061041a611461565b60405161042791906129bc565b60405180910390f35b34801561043b575f5ffd5b50610444611467565b6040516104519190612c65565b60405180910390f35b348015610465575f5ffd5b5061046e611482565b60405161047b91906129bc565b60405180910390f35b34801561048f575f5ffd5b50610498611488565b6040516104a591906129bc565b60405180910390f35b3480156104b9575f5ffd5b506104c261148e565b6040516104cf91906129bc565b60405180910390f35b3480156104e3575f5ffd5b506104ec6114b7565b6040516104f991906129bc565b60405180910390f35b34801561050d575f5ffd5b506105166114bd565b60405161052391906129bc565b60405180910390f35b348015610537575f5ffd5b506105406114c3565b60405161054d91906129bc565b60405180910390f35b348015610561575f5ffd5b5061056a6114c9565b6040516105779190612c65565b60405180910390f35b34801561058b575f5ffd5b506105946114e1565b6040516105a191906129bc565b60405180910390f35b3480156105b5575f5ffd5b506105be6114e7565b6040516105cb9190612c65565b60405180910390f35b3480156105df575f5ffd5b506105e86114ff565b6040516105f59190612c65565b60405180910390f35b348015610609575f5ffd5b50610612611517565b60405161061f91906129bc565b60405180910390f35b348015610633575f5ffd5b5061063c61151d565b60405161064991906129bc565b60405180910390f35b34801561065d575f5ffd5b50610666611523565b6040516106739190612cee565b60405180910390f35b348015610687575f5ffd5b50610690611546565b60405161069d91906129bc565b60405180910390f35b3480156106b1575f5ffd5b506106ba61154b565b6040516106c79190612c65565b60405180910390f35b3480156106db575f5ffd5b506106e4611571565b6040516106f19190612c65565b60405180910390f35b600f5481565b60105f9054906101000a900462ffffff1681565b5f7387870bca3f3fd6335c3f4ce8392d69350b4fa4e273ffffffffffffffffffffffffffffffffffffffff163373ffffffffffffffffffffffffffffffffffffffff1614610797576040517f08c379a000000000000000000000000000000000000000000000000000000000815260040161078e90612d58565b60405180910390fd5b73c02aaa39b223fe8d0a0e5c4f27ead9083c756cc273ffffffffffffffffffffffffffffffffffffffff168773ffffffffffffffffffffffffffffffffffffffff1614610819576040517f08c379a000000000000000000000000000000000000000000000000000000000815260040161081090612dc0565b60405180910390fd5b3073ffffffffffffffffffffffffffffffffffffffff168473ffffffffffffffffffffffffffffffffffffffff1614610887576040517f08c379a000000000000000000000000000000000000000000000000000000000815260040161087e90612e28565b60405180910390fd5b5f5f84848101906108989190612e70565b915091505f73a62f9c5af106feee069f38de51098d9d81b9057273ffffffffffffffffffffffffffffffffffffffff16630167eb856040518163ffffffff1660e01b8152600401602060405180830381865afa1580156108fa573d5f5f3e3d5ffd5b505050506040513d601f19601f8201168201806040525081019061091e9190612ec2565b905061095373c02aaa39b223fe8d0a0e5c4f27ead9083c756cc273e592427a0aece92de3edee1f18e0157c058615648b611589565b5f60405180610100016040528073c02aaa39b223fe8d0a0e5c4f27ead9083c756cc273ffffffffffffffffffffffffffffffffffffffff1681526020018373ffffffffffffffffffffffffffffffffffffffff1681526020018462ffffff1681526020013073ffffffffffffffffffffffffffffffffffffffff1681526020014281526020018581526020018b81526020015f73ffffffffffffffffffffffffffffffffffffffff16815250905073e592427a0aece92de3edee1f18e0157c0586156473ffffffffffffffffffffffffffffffffffffffff1663db3e2198826040518263ffffffff1660e01b8152600401610a4e9190612fc9565b6020604051808303815f875af1158015610a6a573d5f5f3e3d5ffd5b505050506040513d601f19601f82011682018060405250810190610a8e9190612ff7565b600f819055505f4790505f8373ffffffffffffffffffffffffffffffffffffffff166370a08231306040518263ffffffff1660e01b8152600401610ad29190612c65565b602060405180830381865afa158015610aed573d5f5f3e3d5ffd5b505050506040513d601f19601f82011682018060405250810190610b119190612ff7565b905073a62f9c5af106feee069f38de51098d9d81b9057273ffffffffffffffffffffffffffffffffffffffff1663b18f2e915f886040518363ffffffff1660e01b8152600401610b62929190613064565b6020604051808303815f875af1158015610b7e573d5f5f3e3d5ffd5b505050506040513d601f19601f82011682018060405250810190610ba29190612ff7565b505f8247610bb091906130b8565b90505f8573ffffffffffffffffffffffffffffffffffffffff166370a08231306040518263ffffffff1660e01b8152600401610bec9190612c65565b602060405180830381865afa158015610c07573d5f5f3e3d5ffd5b505050506040513d601f19601f82011682018060405250810190610c2b9190612ff7565b905081600481905550808311610c41575f610c4e565b8083610c4d91906130b8565b5b600d81905550610c5c611702565b5f8d8f610c6991906130eb565b9050806005819055508073c02aaa39b223fe8d0a0e5c4f27ead9083c756cc273ffffffffffffffffffffffffffffffffffffffff166370a08231306040518263ffffffff1660e01b8152600401610cc09190612c65565b602060405180830381865afa158015610cdb573d5f5f3e3d5ffd5b505050506040513d601f19601f82011682018060405250810190610cff9190612ff7565b1015610d40576040517f08c379a0000000000000000000000000000000000000000000000000000000008152600401610d3790613168565b60405180910390fd5b610d7373c02aaa39b223fe8d0a0e5c4f27ead9083c756cc27387870bca3f3fd6335c3f4ce8392d69350b4fa4e283611589565b600199505050505050505050509695505050505050565b600e5481565b60085481565b600c5481565b601060189054906101000a900460ff1681565b60015481565b7387870bca3f3fd6335c3f4ce8392d69350b4fa4e281565b5f73a62f9c5af106feee069f38de51098d9d81b90572905073c02aaa39b223fe8d0a0e5c4f27ead9083c756cc273ffffffffffffffffffffffffffffffffffffffff166370a08231306040518263ffffffff1660e01b8152600401610e329190612c65565b602060405180830381865afa158015610e4d573d5f5f3e3d5ffd5b505050506040513d601f19601f82011682018060405250810190610e719190612ff7565b5f819055505f546001819055505f6002819055505f6003819055505f6004819055505f6005819055505f6006819055505f6007819055505f6008819055505f6009819055505f600a819055505f600b819055505f600c819055505f600d819055505f600e819055505f600f819055505f60105f6101000a81548162ffffff021916908362ffffff1602179055505f601060046101000a81548173ffffffffffffffffffffffffffffffffffffffff021916908373ffffffffffffffffffffffffffffffffffffffff1602179055505f601060036101000a81548160ff0219169083151502179055505f601060186101000a81548160ff02191690836005811115610f7e57610f7d612bca565b5b02179055505f610f8d82611782565b90505f73ffffffffffffffffffffffffffffffffffffffff16815f015173ffffffffffffffffffffffffffffffffffffffff1603610ff7576001601060186101000a81548160ff02191690836005811115610feb57610fea612bca565b5b0217905550505061142e565b80604001516002819055508060600151600f8190555080608001516005819055508060a00151600381905550805f0151601060046101000a81548173ffffffffffffffffffffffffffffffffffffffff021916908373ffffffffffffffffffffffffffffffffffffffff160217905550806020015160105f6101000a81548162ffffff021916908362ffffff1602179055508060c001516009819055508060e00151600a819055508061010001516008819055508173ffffffffffffffffffffffffffffffffffffffff166382f1631f6040518163ffffffff1660e01b815260040160408051808303815f875af11580156110f4573d5f5f3e3d5ffd5b505050506040513d601f19601f820116820180604052508101906111189190613186565b60065f60075f84919050558391905055505060085460065461113a91906130eb565b60035411611174576002601060186101000a81548160ff0219169083600581111561116857611167612bca565b5b0217905550505061142e565b60095460035411611185575f611196565b60095460035461119591906130b8565b5b600b819055505f600b54036111d7576002601060186101000a81548160ff021916908360058111156111cb576111ca612bca565b5b0217905550505061142e565b66038d7ea4c680006005546111ec91906130eb565b600a5411611226576003601060186101000a81548160ff0219169083600581111561121a57611219612bca565b5b0217905550505061142e565b7387870bca3f3fd6335c3f4ce8392d69350b4fa4e273ffffffffffffffffffffffffffffffffffffffff166342b0b77c3073c02aaa39b223fe8d0a0e5c4f27ead9083c756cc284606001518560400151866020015160405160200161128c9291906131c4565b6040516020818303038152906040525f6040518663ffffffff1660e01b81526004016112bc95949392919061327a565b5f604051808303815f87803b1580156112d3575f5ffd5b505af11580156112e5573d5f5f3e3d5ffd5b505050506112f1611702565b73c02aaa39b223fe8d0a0e5c4f27ead9083c756cc273ffffffffffffffffffffffffffffffffffffffff166370a08231306040518263ffffffff1660e01b815260040161133e9190612c65565b602060405180830381865afa158015611359573d5f5f3e3d5ffd5b505050506040513d601f19601f8201168201806040525081019061137d9190612ff7565b600181905550600254600d541480156113995750600354600454105b156113ff576004546003546113ae91906130b8565b600c819055506001601060036101000a81548160ff0219169083151502179055506005601060186101000a81548160ff021916908360058111156113f5576113f4612bca565b5b021790555061142b565b6004601060186101000a81548160ff0219169083600581111561142557611424612bca565b5b02179055505b50505b565b73e592427a0aece92de3edee1f18e0157c0586156481565b60075481565b601060039054906101000a900460ff1681565b60045481565b5f73c02aaa39b223fe8d0a0e5c4f27ead9083c756cc2905090565b60095481565b600a5481565b5f5f5460015411156114b0575f546001546114a991906130b8565b90506114b4565b5f90505b90565b600d5481565b600b5481565b60035481565b73c02aaa39b223fe8d0a0e5c4f27ead9083c756cc281565b60065481565b73b27308f9f90d607463bb33ea1bebb41c27ce5ab681565b73a62f9c5af106feee069f38de51098d9d81b9057281565b60055481565b60025481565b606060405180610160016040528061013d81526020016138a561013d9139905090565b5f5481565b601060049054906101000a900473ffffffffffffffffffffffffffffffffffffffff1681565b731f98431c8ad98523631ae4a59f267346ea31f98481565b8273ffffffffffffffffffffffffffffffffffffffff1663095ea7b3835f6040518363ffffffff1660e01b81526004016115c49291906132d2565b6020604051808303815f875af11580156115e0573d5f5f3e3d5ffd5b505050506040513d601f19601f820116820180604052508101906116049190613323565b611643576040517f08c379a000000000000000000000000000000000000000000000000000000000815260040161163a90613398565b60405180910390fd5b8273ffffffffffffffffffffffffffffffffffffffff1663095ea7b383836040518363ffffffff1660e01b815260040161167e9291906133b6565b6020604051808303815f875af115801561169a573d5f5f3e3d5ffd5b505050506040513d601f19601f820116820180604052508101906116be9190613323565b6116fd576040517f08c379a00000000000000000000000000000000000000000000000000000000081526004016116f490613427565b60405180910390fd5b505050565b5f4790505f811461177f5773c02aaa39b223fe8d0a0e5c4f27ead9083c756cc273ffffffffffffffffffffffffffffffffffffffff1663d0e30db0826040518263ffffffff1660e01b81526004015f604051808303818588803b158015611767575f5ffd5b505af1158015611779573d5f5f3e3d5ffd5b50505050505b50565b61178a6128cd565b5f8273ffffffffffffffffffffffffffffffffffffffff16630167eb856040518163ffffffff1660e01b8152600401602060405180830381865afa1580156117d4573d5f5f3e3d5ffd5b505050506040513d601f19601f820116820180604052508101906117f89190612ec2565b90505f5b60048110156118ce575f61181085846118d6565b90505f73ffffffffffffffffffffffffffffffffffffffff16815f015173ffffffffffffffffffffffffffffffffffffffff1614611853578093505050506118d1565b8473ffffffffffffffffffffffffffffffffffffffff16635069fb576040518163ffffffff1660e01b81526004015f604051808303815f87803b158015611898575f5ffd5b505af19250505080156118a9575060015b6118b357506118ce565b600e5f815460010191905081905550508060010190506117fc565b50505b919050565b6118de6128cd565b5f6118e884611b8b565b90505f61195f8573ffffffffffffffffffffffffffffffffffffffff1662258d6b6040518163ffffffff1660e01b8152600401602060405180830381865afa158015611936573d5f5f3e3d5ffd5b505050506040513d601f19601f8201168201806040525081019061195a9190612ec2565b611e24565b90505f815f015151148061197c5750806020015151815f01515114155b15611988575050611b85565b5f8160400151146119e0575f6119b4836060015183604001516119ab91906130eb565b845f015161200f565b90505f6002826119c49190613472565b90508360a001518111156119dd57808460a00181815250505b50505b5f6040518060800160405280606462ffffff1662ffffff1681526020016101f462ffffff1662ffffff168152602001610bb862ffffff1662ffffff16815260200161271062ffffff1662ffffff1681525090505f5f90505b6004811015611b80575f731f98431c8ad98523631ae4a59f267346ea31f98473ffffffffffffffffffffffffffffffffffffffff16631698ee828873c02aaa39b223fe8d0a0e5c4f27ead9083c756cc2868660048110611a9b57611a9a6134a2565b5b60200201516040518463ffffffff1660e01b8152600401611abe939291906134cf565b602060405180830381865afa158015611ad9573d5f5f3e3d5ffd5b505050506040513d601f19601f82011682018060405250810190611afd9190612ec2565b90505f73ffffffffffffffffffffffffffffffffffffffff168173ffffffffffffffffffffffffffffffffffffffff1603611b385750611b75565b5f611b5d82858560048110611b5057611b4f6134a2565b5b60200201518a898961204e565b9050611b69818861227d565b15611b72578096505b50505b806001019050611a38565b505050505b92915050565b611b9361292b565b611b9c8261237a565b815f0181815250508173ffffffffffffffffffffffffffffffffffffffff1663ea99e6896040518163ffffffff1660e01b8152600401602060405180830381865afa158015611bed573d5f5f3e3d5ffd5b505050506040513d601f19601f82011682018060405250810190611c119190612ff7565b8160200181815250508173ffffffffffffffffffffffffffffffffffffffff166382f1631f6040518163ffffffff1660e01b815260040160408051808303815f875af1158015611c63573d5f5f3e3d5ffd5b505050506040513d601f19601f82011682018060405250810190611c879190613186565b508160400181815250508173ffffffffffffffffffffffffffffffffffffffff1662258d6b6040518163ffffffff1660e01b8152600401602060405180830381865afa158015611cd9573d5f5f3e3d5ffd5b505050506040513d601f19601f82011682018060405250810190611cfd9190612ec2565b73ffffffffffffffffffffffffffffffffffffffff16318160600181815250507387870bca3f3fd6335c3f4ce8392d69350b4fa4e273ffffffffffffffffffffffffffffffffffffffff1663074b2e436040518163ffffffff1660e01b8152600401602060405180830381865afa158015611d7a573d5f5f3e3d5ffd5b505050506040513d601f19601f82011682018060405250810190611d9e9190613549565b6fffffffffffffffffffffffffffffffff168160c0018181525050611de5600182606001518360400151611dd291906130eb565b611ddc91906130eb565b825f015161200f565b8160800181815250505f816080015103611e055760018160800181815250505b60208160800151611e169190613574565b8160a0018181525050919050565b611e2c612961565b5f5f8373ffffffffffffffffffffffffffffffffffffffff1663b49a60bb6040518163ffffffff1660e01b81526004015f60405180830381865afa158015611e76573d5f5f3e3d5ffd5b505050506040513d5f823e3d601f19601f82011682018060405250810190611e9e91906137ad565b915091505f82511480611eb357508051825114155b15611ebf57505061200a565b80835f0181905250815167ffffffffffffffff811115611ee257611ee16135b5565b5b604051908082528060200260200182016040528015611f105781602001602082028036833780820191505090505b5083602001819052505f5f90505b8251811015612006575f8573ffffffffffffffffffffffffffffffffffffffff1663f25ddb62858481518110611f5757611f566134a2565b5b60200260200101516040518263ffffffff1660e01b8152600401611f7b9190612c65565b6020604051808303815f875af1158015611f97573d5f5f3e3d5ffd5b505050506040513d601f19601f82011682018060405250810190611fbb9190612ff7565b90508085602001518381518110611fd557611fd46134a2565b5b602002602001018181525050808560400151611ff191906130eb565b85604001818152505050806001019050611f1e565b5050505b919050565b5f81600183670de0b6b3a7640000866120289190613574565b61203291906130eb565b61203c91906130b8565b6120469190613472565b905092915050565b6120566128cd565b61205e612981565b8360800151815f600a8110612076576120756134a2565b5b602002018181525050600284608001516120909190613574565b816001600a81106120a4576120a36134a2565b5b602002018181525050600484608001516120be9190613574565b816002600a81106120d2576120d16134a2565b5b602002018181525050600884608001516120ec9190613574565b816003600a8110612100576120ff6134a2565b5b6020020181815250506010846080015161211a9190613574565b816004600a811061212e5761212d6134a2565b5b60200201818152505060408460a001516121489190613472565b816005600a811061215c5761215b6134a2565b5b60200201818152505060208460a001516121769190613472565b816006600a811061218a576121896134a2565b5b60200201818152505060108460a001516121a49190613472565b816007600a81106121b8576121b76134a2565b5b60200201818152505060088460a001516121d29190613472565b816008600a81106121e6576121e56134a2565b5b60200201818152505060048460a001516122009190613472565b816009600a8110612214576122136134a2565b5b6020020181815250505f5f90505b600a811015612272575f6122518989898686600a8110612245576122446134a2565b5b60200201518a8a612515565b905061225d818561227d565b15612266578093505b50806001019050612222565b505095945050505050565b5f5f73ffffffffffffffffffffffffffffffffffffffff16835f015173ffffffffffffffffffffffffffffffffffffffff16036122bc575f9050612374565b5f73ffffffffffffffffffffffffffffffffffffffff16825f015173ffffffffffffffffffffffffffffffffffffffff16036122fb5760019050612374565b5f83608001518460e0015161231091906130b8565b90505f83608001518460e0015161232791906130b8565b905080821461233c5780821192505050612374565b5f8560c001518660a0015161235191906130b8565b90505f8560c001518660a0015161236891906130b8565b90508082119450505050505b92915050565b5f5f8273ffffffffffffffffffffffffffffffffffffffff1663f76339dc6040518163ffffffff1660e01b8152600401602060405180830381865afa1580156123c5573d5f5f3e3d5ffd5b505050506040513d601f19601f820116820180604052508101906123e99190612ff7565b90505f810361240357670de0b6b3a7640000915050612510565b5f8373ffffffffffffffffffffffffffffffffffffffff166328a795766040518163ffffffff1660e01b81526004016020604051808303815f875af115801561244e573d5f5f3e3d5ffd5b505050506040513d601f19601f820116820180604052508101906124729190612ff7565b90505f8473ffffffffffffffffffffffffffffffffffffffff166387153eb160018561249e91906130b8565b6040518263ffffffff1660e01b81526004016124ba91906129bc565b602060405180830381865afa1580156124d5573d5f5f3e3d5ffd5b505050506040513d601f19601f820116820180604052508101906124f99190612ff7565b9050818110612508578161250a565b805b93505050505b919050565b61251d6128cd565b5f849050836080015181101561253557836080015190505b5f81148061254657508360a0015181115b1561255157506126b6565b5f61255f82865f01516126c0565b90508460600151856040015161257591906130eb565b81116125825750506126b6565b5f61259f8287604001518860600151885f015189602001516126e8565b90508082116125b0575050506126b6565b5f6125bf8288602001516127d2565b90505f6125cd8a8c87612810565b90505f81036125e05750505050506126b6565b5f61271060016127106125f391906130b8565b8a60c00151846126039190613574565b61260d91906130eb565b6126179190613472565b90505f818361262691906130eb565b905066038d7ea4c680008161263b91906130eb565b841161264d57505050505050506126b6565b6040518061012001604052808f73ffffffffffffffffffffffffffffffffffffffff1681526020018e62ffffff1681526020018881526020018481526020018281526020018781526020018681526020018581526020018b606001518152509750505050505050505b9695505050505050565b5f670de0b6b3a764000082846126d69190613574565b6126e09190613472565b905092915050565b5f8490508486116126fb578590506127c9565b5f858761270891906130b8565b9050848261271691906130eb565b915084811161272557506127c9565b5f858261273291906130b8565b90505f855190505f5f90505b818110156127c4575f620f424088838151811061275e5761275d6134a2565b5b6020026020010151856127719190613574565b61277b9190613472565b90505f878381518110612791576127906134a2565b5b602002602001015190508082106127a857806127aa565b815b876127b591906130eb565b9650505080600101905061273e565b505050505b95945050505050565b5f5f82036127e25782905061280a565b620f424082846127f29190613574565b6127fc9190613472565b8361280791906130b8565b90505b92915050565b5f73b27308f9f90d607463bb33ea1bebb41c27ce5ab673ffffffffffffffffffffffffffffffffffffffff166330d07f2173c02aaa39b223fe8d0a0e5c4f27ead9083c756cc28686865f6040518663ffffffff1660e01b815260040161287a959493929190613853565b6020604051808303815f875af19250505080156128b557506040513d601f19601f820116820180604052508101906128b29190612ff7565b60015b6128c1575f90506128c6565b809150505b9392505050565b6040518061012001604052805f73ffffffffffffffffffffffffffffffffffffffff1681526020015f62ffffff1681526020015f81526020015f81526020015f81526020015f81526020015f81526020015f81526020015f81525090565b6040518060e001604052805f81526020015f81526020015f81526020015f81526020015f81526020015f81526020015f81525090565b604051806060016040528060608152602001606081526020015f81525090565b604051806101400160405280600a90602082028036833780820191505090505090565b5f819050919050565b6129b6816129a4565b82525050565b5f6020820190506129cf5f8301846129ad565b92915050565b5f62ffffff82169050919050565b6129ec816129d5565b82525050565b5f602082019050612a055f8301846129e3565b92915050565b5f604051905090565b5f5ffd5b5f5ffd5b5f73ffffffffffffffffffffffffffffffffffffffff82169050919050565b5f612a4582612a1c565b9050919050565b612a5581612a3b565b8114612a5f575f5ffd5b50565b5f81359050612a7081612a4c565b92915050565b612a7f816129a4565b8114612a89575f5ffd5b50565b5f81359050612a9a81612a76565b92915050565b5f5ffd5b5f5ffd5b5f5ffd5b5f5f83601f840112612ac157612ac0612aa0565b5b8235905067ffffffffffffffff811115612ade57612add612aa4565b5b602083019150836001820283011115612afa57612af9612aa8565b5b9250929050565b5f5f5f5f5f5f60a08789031215612b1b57612b1a612a14565b5b5f612b2889828a01612a62565b9650506020612b3989828a01612a8c565b9550506040612b4a89828a01612a8c565b9450506060612b5b89828a01612a62565b935050608087013567ffffffffffffffff811115612b7c57612b7b612a18565b5b612b8889828a01612aac565b92509250509295509295509295565b5f8115159050919050565b612bab81612b97565b82525050565b5f602082019050612bc45f830184612ba2565b92915050565b7f4e487b71000000000000000000000000000000000000000000000000000000005f52602160045260245ffd5b60068110612c0857612c07612bca565b5b50565b5f819050612c1882612bf7565b919050565b5f612c2782612c0b565b9050919050565b612c3781612c1d565b82525050565b5f602082019050612c505f830184612c2e565b92915050565b612c5f81612a3b565b82525050565b5f602082019050612c785f830184612c56565b92915050565b5f81519050919050565b5f82825260208201905092915050565b8281835e5f83830152505050565b5f601f19601f8301169050919050565b5f612cc082612c7e565b612cca8185612c88565b9350612cda818560208601612c98565b612ce381612ca6565b840191505092915050565b5f6020820190508181035f830152612d068184612cb6565b905092915050565b7f62616420706f6f6c0000000000000000000000000000000000000000000000005f82015250565b5f612d42600883612c88565b9150612d4d82612d0e565b602082019050919050565b5f6020820190508181035f830152612d6f81612d36565b9050919050565b7f62616420617373657400000000000000000000000000000000000000000000005f82015250565b5f612daa600983612c88565b9150612db582612d76565b602082019050919050565b5f6020820190508181035f830152612dd781612d9e565b9050919050565b7f62616420696e69746961746f72000000000000000000000000000000000000005f82015250565b5f612e12600d83612c88565b9150612e1d82612dde565b602082019050919050565b5f6020820190508181035f830152612e3f81612e06565b9050919050565b612e4f816129d5565b8114612e59575f5ffd5b50565b5f81359050612e6a81612e46565b92915050565b5f5f60408385031215612e8657612e85612a14565b5b5f612e9385828601612a8c565b9250506020612ea485828601612e5c565b9150509250929050565b5f81519050612ebc81612a4c565b92915050565b5f60208284031215612ed757612ed6612a14565b5b5f612ee484828501612eae565b91505092915050565b612ef681612a3b565b82525050565b612f05816129d5565b82525050565b612f14816129a4565b82525050565b612f2381612a1c565b82525050565b61010082015f820151612f3e5f850182612eed565b506020820151612f516020850182612eed565b506040820151612f646040850182612efc565b506060820151612f776060850182612eed565b506080820151612f8a6080850182612f0b565b5060a0820151612f9d60a0850182612f0b565b5060c0820151612fb060c0850182612f0b565b5060e0820151612fc360e0850182612f1a565b50505050565b5f61010082019050612fdd5f830184612f29565b92915050565b5f81519050612ff181612a76565b92915050565b5f6020828403121561300c5761300b612a14565b5b5f61301984828501612fe3565b91505092915050565b5f819050919050565b5f819050919050565b5f61304e61304961304484613022565b61302b565b6129a4565b9050919050565b61305e81613034565b82525050565b5f6040820190506130775f830185613055565b61308460208301846129ad565b9392505050565b7f4e487b71000000000000000000000000000000000000000000000000000000005f52601160045260245ffd5b5f6130c2826129a4565b91506130cd836129a4565b92508282039050818111156130e5576130e461308b565b5b92915050565b5f6130f5826129a4565b9150613100836129a4565b92508282019050808211156131185761311761308b565b5b92915050565b7f696e73756666696369656e7420726570617900000000000000000000000000005f82015250565b5f613152601283612c88565b915061315d8261311e565b602082019050919050565b5f6020820190508181035f83015261317f81613146565b9050919050565b5f5f6040838503121561319c5761319b612a14565b5b5f6131a985828601612fe3565b92505060206131ba85828601612fe3565b9150509250929050565b5f6040820190506131d75f8301856129ad565b6131e460208301846129e3565b9392505050565b5f81519050919050565b5f82825260208201905092915050565b5f61320f826131eb565b61321981856131f5565b9350613229818560208601612c98565b61323281612ca6565b840191505092915050565b5f61ffff82169050919050565b5f61326461325f61325a84613022565b61302b565b61323d565b9050919050565b6132748161324a565b82525050565b5f60a08201905061328d5f830188612c56565b61329a6020830187612c56565b6132a760408301866129ad565b81810360608301526132b98185613205565b90506132c8608083018461326b565b9695505050505050565b5f6040820190506132e55f830185612c56565b6132f26020830184613055565b9392505050565b61330281612b97565b811461330c575f5ffd5b50565b5f8151905061331d816132f9565b92915050565b5f6020828403121561333857613337612a14565b5b5f6133458482850161330f565b91505092915050565b7f617070726f7665207265736574206661696c65640000000000000000000000005f82015250565b5f613382601483612c88565b915061338d8261334e565b602082019050919050565b5f6020820190508181035f8301526133af81613376565b9050919050565b5f6040820190506133c95f830185612c56565b6133d660208301846129ad565b9392505050565b7f617070726f7665206661696c65640000000000000000000000000000000000005f82015250565b5f613411600e83612c88565b915061341c826133dd565b602082019050919050565b5f6020820190508181035f83015261343e81613405565b9050919050565b7f4e487b71000000000000000000000000000000000000000000000000000000005f52601260045260245ffd5b5f61347c826129a4565b9150613487836129a4565b92508261349757613496613445565b5b828204905092915050565b7f4e487b71000000000000000000000000000000000000000000000000000000005f52603260045260245ffd5b5f6060820190506134e25f830186612c56565b6134ef6020830185612c56565b6134fc60408301846129e3565b949350505050565b5f6fffffffffffffffffffffffffffffffff82169050919050565b61352881613504565b8114613532575f5ffd5b50565b5f815190506135438161351f565b92915050565b5f6020828403121561355e5761355d612a14565b5b5f61356b84828501613535565b91505092915050565b5f61357e826129a4565b9150613589836129a4565b9250828202613597816129a4565b915082820484148315176135ae576135ad61308b565b5b5092915050565b7f4e487b71000000000000000000000000000000000000000000000000000000005f52604160045260245ffd5b6135eb82612ca6565b810181811067ffffffffffffffff8211171561360a576136096135b5565b5b80604052505050565b5f61361c612a0b565b905061362882826135e2565b919050565b5f67ffffffffffffffff821115613647576136466135b5565b5b602082029050602081019050919050565b5f61366a6136658461362d565b613613565b9050808382526020820190506020840283018581111561368d5761368c612aa8565b5b835b818110156136b657806136a28882612eae565b84526020840193505060208101905061368f565b5050509392505050565b5f82601f8301126136d4576136d3612aa0565b5b81516136e4848260208601613658565b91505092915050565b5f67ffffffffffffffff821115613707576137066135b5565b5b602082029050602081019050919050565b5f61372a613725846136ed565b613613565b9050808382526020820190506020840283018581111561374d5761374c612aa8565b5b835b8181101561377657806137628882612fe3565b84526020840193505060208101905061374f565b5050509392505050565b5f82601f83011261379457613793612aa0565b5b81516137a4848260208601613718565b91505092915050565b5f5f604083850312156137c3576137c2612a14565b5b5f83015167ffffffffffffffff8111156137e0576137df612a18565b5b6137ec858286016136c0565b925050602083015167ffffffffffffffff81111561380d5761380c612a18565b5b61381985828601613780565b9150509250929050565b5f61383d61383861383384613022565b61302b565b612a1c565b9050919050565b61384d81613823565b82525050565b5f60a0820190506138665f830188612c56565b6138736020830187612c56565b61388060408301866129e3565b61388d60608301856129ad565b61389a6080830184613844565b969550505050505056fe41617665205745544820666c6173686c6f616e202d3e207075626c696320556e697377617056332073706f7420627579206f66206578697374696e672053544f4e4520736861726573202d3e206f7074696f6e616c207075626c696320726f6c6c546f4e657874526f756e6420746f207265647563652069646c65206c6971756964697479202d3e20696e7374616e7457697468647261772866756c6c20626f756768742073686172657329206275726e7320736861726573206669727374202d3e20636f6e74726f6c6c657220666f72636557697468647261772061736b7320726174696f2d736c69636564207374726174656779207769746864726177616c73202d3e207661756c742072657475726e73206f6e6c79207061727469616c20455448207768696c65207368617265732073746179206275726e6564a2646970667358221220b7b57e3d254c80c1f3c8953ced1912b2632bbddfa9147f408533c6421f833acd64736f6c634300081e0033","linkReferences":{}},"methodIdentifiers":{"AAVE_V3_POOL()":"3b303705","TARGET()":"cc1f2afa","UNISWAP_V3_FACTORY()":"f73e5aab","UNISWAP_V3_QUOTER()":"c5c8fb61","UNISWAP_V3_ROUTER()":"41c64a2f","WETH()":"ad5c4648","actualWithdraw()":"47f1b75c","borrowedShares()":"d604aae5","controllerBalanceBeforeWithdraw()":"1f3de348","estimatedControllerGross()":"546a3060","estimatedControllerNet()":"5dda2fbd","estimatedShortfall()":"7aca04b7","executeOnOpportunity()":"3c2448ed","executeOperation(address,uint256,uint256,address,bytes)":"1b11d0ff","expectedWithdraw()":"91626308","exploitPathUsed()":"d78c4281","finalWethBalance()":"30b6ade6","fundingFeeTier()":"1712540a","fundingPool()":"f6a1fe94","hypothesisValidated()":"463defd1","idleBeforeWithdraw()":"c3a792a2","initialWethBalance()":"ee29d913","investedBeforeWithdraw()":"4585ef9e","outcome()":"27793f87","profitAmount()":"5ff972cc","profitToken()":"49343624","quotedStonePurchaseCost()":"12234e8e","repayAmount()":"d0efe753","roundsRolled()":"1ca62a22","sharesBurned()":"71c5c4ab","verifiedLossAmount()":"23cdbd3c"},"id":0}