{"abi":[{"type":"constructor","inputs":[],"stateMutability":"nonpayable"},{"type":"function","name":"executeDirect","inputs":[{"name":"totalUnderlying","type":"uint256","internalType":"uint256"}],"outputs":[],"stateMutability":"nonpayable"},{"type":"function","name":"executeOnOpportunity","inputs":[],"outputs":[],"stateMutability":"nonpayable"},{"type":"function","name":"executeOperation","inputs":[{"name":"asset","type":"address","internalType":"address"},{"name":"amount","type":"uint256","internalType":"uint256"},{"name":"premium","type":"uint256","internalType":"uint256"},{"name":"initiator","type":"address","internalType":"address"},{"name":"params","type":"bytes","internalType":"bytes"}],"outputs":[{"name":"","type":"bool","internalType":"bool"}],"stateMutability":"nonpayable"},{"type":"function","name":"hypothesisValidatedFlag","inputs":[],"outputs":[{"name":"","type":"bool","internalType":"bool"}],"stateMutability":"view"},{"type":"function","name":"profitAmount","inputs":[],"outputs":[{"name":"","type":"uint256","internalType":"uint256"}],"stateMutability":"view"},{"type":"function","name":"profitToken","inputs":[],"outputs":[{"name":"","type":"address","internalType":"address"}],"stateMutability":"view"},{"type":"function","name":"receiveFlashLoan","inputs":[{"name":"tokens","type":"address[]","internalType":"contract IERC20Like[]"},{"name":"amounts","type":"uint256[]","internalType":"uint256[]"},{"name":"feeAmounts","type":"uint256[]","internalType":"uint256[]"},{"name":"userData","type":"bytes","internalType":"bytes"}],"outputs":[],"stateMutability":"nonpayable"}],"bytecode":{"object":"0x60808060405234609c57737109709ecfa91a80626ff3989d68f67f5b1dd12d3b15609c57632bf116ef60e11b81523060048201525f8160248183737109709ecfa91a80626ff3989d68f67f5b1dd12d5af180156091576068575b604051613e9d90816100a18239f35b6001600160401b038111607d576040525f6059565b634e487b7160e01b5f52604160045260245ffd5b6040513d5f823e3d90fd5b5f80fdfe60806040526004361015610011575f80fd5b5f3560e01c80631b11d0ff146100845780633c2448ed1461007f578063406e848c1461007a57806349343624146100755780635ff972cc14610070578063d02acef11461006b5763f04f270714610066575f80fd5b610b20565b6109cc565b6109af565b610987565b610161565b610138565b346101195760a0366003190112610119576004356100a18161011d565b60243590604435606435916100b58361011d565b608435926001600160401b0384116101195736602385011215610119578360040135926001600160401b03841161011957366024858701011161011957610115956024610103960193610d65565b60405190151581529081906020820190565b0390f35b5f80fd5b6001600160a01b0381160361011957565b5f91031261011957565b34610119575f36600319011261011957610150610fdd565b005b90816020910312610119573590565b346101195760203660031901126101195760043530330361095657600a546001600160a01b0316906101af6001600160a01b03831660095490939060081c6001600160a01b03165b90612196565b6009546101d5906101c99060081c6001600160a01b031681565b6001600160a01b031690565b803b1561011957604051635f35110d60e11b81525f516020613e485f395f51905f526004820152905f908290602490829084905af1801561059257610942575b50604051630d56517960e31b8152906020826004815f516020613e485f395f51905f525afa918215610592575f92610921575b5060405163ad7a672f60e01b81526020816004815f516020613e485f395f51905f525afa908115610592575f91610902575b5060405163dfcb48bd60e01b81526020816004815f516020613e485f395f51905f525afa8015610592576102c0926102b9925f926108e1575b50611919565b6064900490565b8092101561089c57916102d161194a565b600a546102fa906001600160a01b03165b6102eb83610f56565b6001600160a01b039091169052565b6001600160a01b03909116925f91905b600883106106d7575050604051630d56517960e31b81529190506020826004815f516020613e485f395f51905f525afa801561059257610371925f916106b8575b506002821161069257101563ff0000005f5491151560181b169063ff0000001916175f55565b5f546103859060181c60ff161590565b1590565b610638576001545f516020613e285f395f51905f523b15610119576040516335d320e960e21b8152600481019190915263014e5b5860248201525f81604481835f516020613e285f395f51905f525af180156105925761061e575b505f906103ed5f80610d58565b5f925b600c54841015610616575f8061041261040887611a4f565b90549060031b1c90565b60405163b07f0a4160e01b60208201908152602482019290925261044381604481015b03601f198101835282610a04565b5190825f516020613e485f395f51905f525af161045e611ab5565b50156104775761046f600191611ae4565b9301926103f0565b90925061048e6201000062ff0000195f5416175f55565b156105d1576104ab64010000000064ff00000000195f5416175f55565b5f546104bb9060101c60ff161590565b610597576104d96501000000000065ff0000000000195f5416175f55565b6040516370a0823160e01b815230600482015290602090829060249082905afa908115610592575f91610563575b501061050f57005b60405162461bcd60e51b815260206004820152602660248201527f70726f66697420646964206e6f7420636f7665722074656d706f726172792063604482015265185c1a5d185b60d21b6064820152608490fd5b610585915060203d60201161058b575b61057d8183610a04565b810190610ec1565b5f610507565b503d610573565b610f14565b60405162461bcd60e51b8152602060048201526012602482015271185b1b08195e195c98da5cd95cc81c185a5960721b6044820152606490fd5b60405162461bcd60e51b815260206004820152601b60248201527f6e6f206561726c792065786572636973652073756363656564656400000000006044820152606490fd5b90925061048e565b8061062c5f61063293610a04565b8061012e565b5f6103e0565b60405162461bcd60e51b815260206004820152602c60248201527f6361706974616c20696e73756666696369656e7420746f20736174757261746560448201526b103aba34b634bd30ba34b7b760a11b6064820152608490fd5b61069b90610cfb565b101563ff0000005f5491151560181b169063ff0000001916175f55565b6106d1915060203d60201161058b5761057d8183610a04565b5f61034b565b6106e96106e38461198f565b8261192c565b801561089257600b54600492919060209061070e906101c9906001600160a01b031681565b604051631d5e528f60e21b815294859182905afa928315610592575f93610872575b506040516370a0823160e01b8152306004820152916020836024818b5afa928315610592575f93610852575b50600954610777906101c99060081c6001600160a01b031681565b600454600354823b15610119578792855f80946107aa604051978896879586946360242e7b60e11b8652600486016119dc565b03925af180156105925761083e575b506040516370a0823160e01b81523060048201526020816024818c5afa9485156105925761080b6108066107fe60019861081598610810965f9261081e575b506119cf565b600654610d58565b600655565b611a67565b6119cf565b925b019161030a565b61083791925060203d811161058b5761057d8183610a04565b905f6107f8565b8061062c5f61084c93610a04565b5f6107b9565b61086b91935060203d811161058b5761057d8183610a04565b915f61075c565b61088b91935060203d811161058b5761057d8183610a04565b915f610730565b5091600190610817565b60405162461bcd60e51b815260206004820152601760248201527f6e6f207574696c697a6174696f6e2068656164726f6f6d0000000000000000006044820152606490fd5b6108fb91925060203d60201161058b5761057d8183610a04565b905f6102b3565b61091b915060203d60201161058b5761057d8183610a04565b5f61027a565b61093b91925060203d60201161058b5761057d8183610a04565b905f610248565b8061062c5f61095093610a04565b5f610215565b60405162461bcd60e51b815260206004820152600960248201526873656c66206f6e6c7960b81b6044820152606490fd5b34610119575f36600319011261011957600a546040516001600160a01b039091168152602090f35b34610119575f366003190112610119576020600854604051908152f35b34610119575f36600319011261011957602060ff5f5460281c166040519015158152f35b634e487b7160e01b5f52604160045260245ffd5b90601f801991011681019081106001600160401b03821117610a2557604052565b6109f0565b60405190610a3960c083610a04565b565b60405190610a3961012083610a04565b6001600160401b038111610a255760051b60200190565b9080601f83011215610119578135610a7981610a4b565b92610a876040519485610a04565b81845260208085019260051b82010192831161011957602001905b828210610aaf5750505090565b8135815260209182019101610aa2565b6001600160401b038111610a2557601f01601f191660200190565b81601f8201121561011957803590610af182610abf565b92610aff6040519485610a04565b8284526020838301011161011957815f926020809301838601378301015290565b34610119576080366003190112610119576004356001600160401b038111610119573660238201121561011957806004013590610b5c82610a4b565b91610b6a6040519384610a04565b8083526024602084019160051b8301019136831161011957602401905b828210610bf757836024356001600160401b03811161011957610bae903690600401610a62565b906044356001600160401b03811161011957610bce903690600401610a62565b606435926001600160401b03841161011957610bf1610150943690600401610ada565b926117e6565b602080918335610c068161011d565b815201910190610b87565b60031115610c1b57565b634e487b7160e01b5f52602160045260245ffd5b15610c3657565b60405162461bcd60e51b8152602060048201526015602482015274756e6578706563746564206161766520737461746560581b6044820152606490fd5b15610c7a57565b60405162461bcd60e51b815260206004820152600d60248201526c3130b21034b734ba34b0ba37b960991b6044820152606490fd5b15610cb657565b60405162461bcd60e51b815260206004820152600960248201526818985908185cdcd95d60ba1b6044820152606490fd5b634e487b7160e01b5f52601160045260245ffd5b9060028201809211610d0957565b610ce7565b906113888201809211610d0957565b90620151808201809211610d0957565b906107d08201809211610d0957565b9060c88201809211610d0957565b9060018201809211610d0957565b91908201809211610d0957565b9392947387870bca3f3fd6335c3f4ce8392d69350b4fa4e23303610e2257610dfd610e0994610e0492610dcc610e0f996002610da360095460ff1690565b610dac81610c11565b1480610e14575b610dbc90610c2f565b6001600160a01b03163014610c73565b600a54610df590610de5906001600160a01b03166101c9565b6001600160a01b038a1614610caf565b810190610152565b8383611af2565b610d58565b906120a3565b600190565b505f5460081c60ff16610db3565b60405162461bcd60e51b81526020600482015260166024820152753ab732bc3832b1ba32b21030b0bb329039b2b73232b960511b6044820152606490fd5b60405190610e6f606083610a04565b603a82527f6d2f76322f7567413354445733746c586877686333534866756b0000000000006040837f68747470733a2f2f6574682d6d61696e6e65742e672e616c6368656d792e636f60208201520152565b90816020910312610119575190565b805180835260209291819084018484015e5f828201840152601f01601f1916010190565b91906020610f0f63014e5b5892604086526040860190610ed0565b930152565b6040513d5f823e3d90fd5b5190610a398261011d565b908160209103126101195751610f3f8161011d565b90565b634e487b7160e01b5f52603260045260245ffd5b805115610f635760200190565b610f42565b805160011015610f635760400190565b805160021015610f635760600190565b805160041015610f635760a00190565b805160051015610f635760c00190565b805160061015610f635760e00190565b805160071015610f63576101000190565b8051821015610f635760209160051b010190565b5f5460ff16610a3957610ff6600160ff195f5416175f55565b61101d6020611003610e60565b604051809381926371ee464d60e01b835260048301610ef4565b03815f5f516020613e285f395f51905f525af15f91816116eb575b506110405750565b600155604051637e062a3560e11b81526020816004815f516020613e485f395f51905f525afa80156105925761109a915f916116cc575b5060018060a01b03166bffffffffffffffffffffffff60a01b600a541617600a55565b60405163399735bf60e01b81526020816004815f516020613e485f395f51905f525afa8015610592576110f1915f916116ad575b5060018060a01b03166bffffffffffffffffffffffff60a01b600b541617600b55565b60405163a6138ed960e01b81526020816004815f516020613e485f395f51905f525afa80156105925761112b915f9161168e575b50612228565b6276a7008111611684575b6202a300811061165257600154604051635c4443cf60e11b815291906020836004815f516020613e485f395f51905f525afa801561059257611189935f91611655575b506001600160a01b0316906122df565b61119961038160a0830151151590565b611652576111a78151600255565b604081016111b58151600355565b608082016111c38151600455565b600154600254905f516020613e285f395f51905f523b15610119576040516335d320e960e21b8152600481019190915260248101919091525f81604481835f516020613e285f395f51905f525af180156105925761163e575b506112286002546126f9565b928351156116385760015490600254915f516020613e285f395f51905f523b15610119576040516335d320e960e21b8152600481019190915260248101929092525f82604481835f516020613e285f395f51905f525af19081156105925761129d92606092611624575b500151835190612825565b91909283156115fe576112af83600755565b60405163ad7a672f60e01b81526020816004815f516020613e485f395f51905f525afa908115610592575f91611605575b508311156115fe576112f6915190519084612b0d565b600a54909190611310906101c9906001600160a01b031681565b6040516370a0823160e01b815230600482015290602090829060249082905afa908115610592575f916115df575b505f945b80518610156115b95761137061038161136b61135e8985610fc9565b516001600160a01b031690565b612bee565b6115d6576113ab61138461135e8884610fc9565b60098054610100600160a81b03191660089290921b610100600160a81b0316919091179055565b6009546113c39060081c6001600160a01b0316612cc5565b83821015806115c7575b6115b95760405163ad7a672f60e01b81526020816004815f516020613e485f395f51905f525afa9081156105925761140f9185915f9161159b575b50866130c9565b93600154600254905f516020613e285f395f51905f523b15610119576040516335d320e960e21b8152600481019190915260248101919091525f81604481835f516020613e285f395f51905f525af1801561059257611587575b505f5b85518110156114bf5761147f8187610fc9565b51156114b757611499876114938389610fc9565b51613214565b6114a7576001905b0161146c565b5050505050505050610a39613021565b6001906114a1565b50909192600154600254905f516020613e285f395f51905f523b15610119576040516335d320e960e21b8152600481019190915260248101919091525f81604481835f516020613e285f395f51905f525af1801561059257611573575b505f5b8551811015611562576115328187610fc9565b511561155a5761154c876115468389610fc9565b5161341f565b6114a7576001905b0161151f565b600190611554565b5092919560019194505b0194611342565b8061062c5f61158193610a04565b5f61151c565b8061062c5f61159593610a04565b5f611469565b6115b3915060203d811161058b5761057d8183610a04565b5f611408565b505050505050610a39613021565b506115d185612ec9565b6113cd565b9460019061156c565b6115f8915060203d60201161058b5761057d8183610a04565b5f61133e565b5050505050565b61161e915060203d60201161058b5761057d8183610a04565b5f6112e0565b8061062c5f61163293610a04565b5f611292565b50505050565b8061062c5f61164c93610a04565b5f61121c565b50565b611677915060203d60201161167d575b61166f8183610a04565b810190610f2a565b5f611179565b503d611665565b506276a700611136565b6116a7915060203d60201161167d5761166f8183610a04565b5f611125565b6116c6915060203d60201161167d5761166f8183610a04565b5f6110ce565b6116e5915060203d60201161167d5761166f8183610a04565b5f611077565b61170591925060203d60201161058b5761057d8183610a04565b905f611038565b1561171357565b60405162461bcd60e51b815260206004820152601a60248201527f756e65787065637465642062616c616e6365722073656e6465720000000000006044820152606490fd5b1561175f57565b60405162461bcd60e51b815260206004820152601960248201527f756e65787065637465642062616c616e636572207374617465000000000000006044820152606490fd5b156117ab57565b60405162461bcd60e51b81526020600482015260136024820152726261642062616c616e6365722061727261797360681b6044820152606490fd5b916118a06118996118936101c961135e6118a7969761188e611874610a399b61182473ba12222222228d8ba445958a75a0704d566bf2c8331461170c565b600161183260095460ff1690565b61183b81610c11565b14806118c3575b61184b90611758565b6001845114806118b8575b806118ad575b611865906117a4565b60208082518301019101610ec1565b61187d8b610f56565b516118878a610f56565b5190611af2565b610f56565b94610f56565b5191610f56565b5190610d58565b9061358d565b50895160011461185c565b5060018c5114611856565b505f5460081c60ff16611842565b906305f5e1008202918083046305f5e1001490151715610d0957565b90606482029180830460641490151715610d0957565b908160011b9180830460021490151715610d0957565b81810292918115918404141715610d0957565b8115611936570490565b634e487b7160e01b5f52601260045260245ffd5b6040805190919061195b8382610a04565b6001815291601f1901366020840137565b604051610120919061197e8382610a04565b6008815291601f1901366020840137565b6008039060088211610d0957565b63014e5b58039063014e5b588211610d0957565b6107cf19810191908211610d0957565b5f19810191908211610d0957565b91908203918211610d0957565b949392909160c08601925f516020613e485f395f51905f52875260208701526040860152606085015260c060808501528151809152602060e085019201905f5b818110611a30575050509160a05f19910152565b82516001600160a01b0316845260209384019390920191600101611a1c565b600c54811015610f6357600c5f5260205f2001905f90565b600c5468010000000000000000811015610a255760018101600c55600c54811015610f6357600c5f527fdf6966c971051c3d54ec59162606531493a51404a002842f56009d7e5cf4a8c70155565b3d15611adf573d90611ac682610abf565b91611ad46040519384610a04565b82523d5f602084013e565b606090565b5f198114610d095760010190565b600a54929390929091906001600160a01b031693611b2a6001600160a01b03861660095490969060081c6001600160a01b03166101a9565b600954611b44906101c99060081c6001600160a01b031681565b803b1561011957604051635f35110d60e11b81525f516020613e485f395f51905f526004820152905f908290602490829084905af1801561059257612052575b50604051630d56517960e31b8152906020826004815f516020613e485f395f51905f525afa918215610592575f92612031575b5060405163ad7a672f60e01b81526020816004815f516020613e485f395f51905f525afa908115610592575f91612012575b5060405163dfcb48bd60e01b81526020816004815f516020613e485f395f51905f525afa801561059257611c27926102b9925f926108e15750611919565b8092101561089c5794611c3861194a565b600a54611c4d906001600160a01b03166102e2565b6001600160a01b03909116955f91905b60088310611e8b575050604051630d56517960e31b81529190506020826004815f516020613e485f395f51905f525afa801561059257611cc3925f916106b857506002821161069257101563ff0000005f5491151560181b169063ff0000001916175f55565b5f54611cd39060181c60ff161590565b61063857600154905f516020613e285f395f51905f523b15610119576040516335d320e960e21b8152600481019290925263014e5b5860248301525f82604481835f516020613e285f395f51905f525af191821561059257611d3c92611e77575b505f93610d58565b5f925b600c54841015611e6c575f80611d5761040887611a4f565b60405163b07f0a4160e01b602082019081526024820192909252611d7e8160448101610435565b5190825f516020613e485f395f51905f525af1611d99611ab5565b5015611db257611daa600191611ae4565b930192611d3f565b909250611dcc9391936201000062ff0000195f5416175f55565b156105d157611de964010000000064ff00000000195f5416175f55565b5f54611df99060101c60ff161590565b61059757611e176501000000000065ff0000000000195f5416175f55565b6040516370a0823160e01b815230600482015290602090829060249082905afa908115610592575f91611e4d575b501061050f57565b611e66915060203d60201161058b5761057d8183610a04565b5f611e45565b909250929092611dcc565b8061062c5f611e8593610a04565b5f611d34565b611e976106e38461198f565b801561200857600b546004929190602090611ebc906101c9906001600160a01b031681565b604051631d5e528f60e21b815294859182905afa928315610592575f93611fe8575b506040516370a0823160e01b8152306004820152916020836024818e5afa928315610592575f93611fc8575b50600954611f25906101c99060081c6001600160a01b031681565b600454600354823b15610119578792855f8094611f58604051978896879586946360242e7b60e11b8652600486016119dc565b03925af1801561059257611fb4575b506040516370a0823160e01b81523060048201526020816024818f5afa9485156105925761080b6108066107fe600198611fab98610810965f9261081e57506119cf565b925b0191611c5d565b8061062c5f611fc293610a04565b5f611f67565b611fe191935060203d811161058b5761057d8183610a04565b915f611f0a565b61200191935060203d811161058b5761057d8183610a04565b915f611ede565b5091600190611fad565b61202b915060203d60201161058b5761057d8183610a04565b5f611be9565b61204b91925060203d60201161058b5761057d8183610a04565b905f611bb7565b8061062c5f61206093610a04565b5f611b84565b1561206d57565b60405162461bcd60e51b815260206004820152600e60248201526d185c1c1c9bdd994819985a5b195960921b6044820152606490fd5b5f80604051602081019063095ea7b360e01b82527387870bca3f3fd6335c3f4ce8392d69350b4fa4e26024820152826044820152604481526120e6606482610a04565b519082855af16120f4611ab5565b501561215a5760405163095ea7b360e01b602082019081527387870bca3f3fd6335c3f4ce8392d69350b4fa4e260248301526044820193909352610a39925f92839290919083906121488160648101610435565b51925af1612154611ab5565b50612066565b60405162461bcd60e51b8152602060048201526014602482015273185c1c1c9bdd99481c995cd95d0819985a5b195960621b6044820152606490fd5b60405163095ea7b360e01b602082019081526001600160a01b03841660248301525f60448084018290528352918291906121d1606482610a04565b519082855af16121df611ab5565b501561215a5760405163095ea7b360e01b602082019081526001600160a01b0390931660248201525f196044820152610a39925f92839290919083906121488160648101610435565b905f80809360405160208101906349b9a67f60e01b82526004815261224e602482610a04565b51915afa61225a611ab5565b9080612293575b612277575b50811561226f57565b62278d009150565b61228c91925060208082518301019101610ec1565b905f612266565b50602081511015612261565b6040519060c082018281106001600160401b03821117610a25576040525f60a0838281528260208201528260408201528260608201528260808201520152565b9192906122ea61229f565b935f516020613e285f395f51905f523b15610119576040516335d320e960e21b81526004810185905263014e5b5860248201525f81604481835f516020613e285f395f51905f525af18015610592576126e5575b5060405163796b89b960e01b8152906020826004815f516020613e285f395f51905f525afa918215610592575f926126c4575b5061237b8361366c565b5f9586939061238c600c8504610d0e565b620aae6081116126ba575b8063014e5b58115f146126b1576123ad9061199d565b975b63014e5b585b898111612593575b50909192858195969798995015918215612588575b5050612580576107d0851115612575576123f46123ee866119b1565b95610d2d565b9463014e5b588611612569575b858111156124125750505050505050565b5f516020613e285f395f51905f523b15610119576040516335d320e960e21b815260048101839052602481018290525f81604481835f516020613e285f395f51905f525af1801561059257612555575b5060405163796b89b960e01b81526020816004815f516020613e285f395f51905f525afa908115610592575f91612537575b50808411801590612522575b612518576124ad8861366c565b60408b015181116124c9575b50506124c490610d3c565b612401565b6124c4929a506124e16124dc83876119cf565b610d1d565b906124ea610a2a565b928c845260208401526040830152856060830152608082015261251060a0820160019052565b98905f6124b9565b506124c490610d3c565b50856125316124dc83876119cf565b116124a0565b61254f915060203d811161058b5761057d8183610a04565b5f612494565b8061062c5f61256393610a04565b5f612462565b63014e5b589550612401565b6123f4600195610d2d565b505050505050565b11159050835f6123d2565b5f516020613e285f395f51905f523b15610119576040516335d320e960e21b815260048101849052602481018290525f81604481835f516020613e285f395f51905f525af180156105925761269d575b5060405163796b89b960e01b81526020816004815f516020613e285f395f51905f525afa908115610592575f9161267f575b50868186119182612667575b5050612657576126308861366c565b82811161265c575b506126428a610d2d565b81111561265757612652906119b1565b6123b5565b6123bd565b91509550855f612638565b6126779192506124dc90876119cf565b11865f612621565b612697915060203d811161058b5761057d8183610a04565b5f612615565b8061062c5f6126ab93610a04565b5f6125e3565b506001976123af565b50620aae60612397565b6126de91925060203d60201161058b5761057d8183610a04565b905f612371565b8061062c5f6126f393610a04565b5f61233e565b9061270261196c565b9161270c816136f6565b80156127f4576001545f516020613e285f395f51905f523b15610119576040516335d320e960e21b81526004810191909152602481018390525f81604481835f516020613e285f395f51905f525af180156105925761277492869285926127e0575b50613ac4565b906001545f516020613e285f395f51905f523b15610119576040516335d320e960e21b8152600481019190915260248101919091525f81604481835f516020613e285f395f51905f525af18015610592576127ce57508252565b8061062c5f6127dc93610a04565b8252565b8061062c5f6127ee93610a04565b5f61276e565b50505f8252565b90816020910312610119575160ff811681036101195790565b60ff16604d8111610d0957600a0a90565b60405163ad7a672f60e01b8152919291906020826004815f516020613e485f395f51905f525afa918215610592575f92612ad6575b50604051630d56517960e31b8152916020836004815f516020613e485f395f51905f525afa928315610592575f93612ab5575b5060405163dfcb48bd60e01b81526020816004815f516020613e485f395f51905f525afa8015610592576128cb926102b9925f926108e15750611919565b9082821115612aaa57600a546004906020906128f1906101c9906001600160a01b031681565b60405163313ce56760e01b815292839182905afa80156105925761291c915f91612a5e575b50612814565b604051635c4443cf60e11b815290926020826004815f516020613e485f395f51905f525afa918215610592576004926020915f91612a8d575b5060405163313ce56760e01b815293849182906001600160a01b03165afa908115610592576129a461299f6129976129a9946129ae965f91612a5e5750612814565b9788936119cf565b6118d1565b611919565b6118ed565b60405163372be71160e21b8152906020826004815f516020613e485f395f51905f525afa801561059257846129a4896129f1936129f7965f91612a3f5750611919565b9061192c565b9485158015612a35575b612a2d57610f3f93926129a4876129a4612a2895612a1e956119cf565b6305f5e100900490565b61192c565b505050505f90565b5081811115612a01565b612a58915060203d60201161058b5761057d8183610a04565b5f6102b3565b612a80915060203d602011612a86575b612a788183610a04565b8101906127fb565b5f612916565b503d612a6e565b612aa49150823d841161167d5761166f8183610a04565b5f612955565b50505090505f905f90565b612acf91935060203d60201161058b5761057d8183610a04565b915f61288d565b612af091925060203d60201161058b5761057d8183610a04565b905f61285a565b9190826040910312610119576020825192015190565b9291905f93915f915b60088310612b245750505050565b90919294612b3a612b348561198f565b8761192c565b8015612be3576040805163d07a1c5760e01b81526004810185905260248101839052604481018690529190826064815f516020613e485f395f51905f525afa801561059257600193612b9c612ba292612ba8955f905f92612bb2575b50610d58565b90610d58565b976119cf565b935b019190612b16565b9050612bd5915060403d8111612bdc575b612bcd8183610a04565b810190612af7565b905f612b96565b503d612bc3565b509492600190612baa565b604051635f35110d60e11b602082019081525f516020613e485f395f51905f5260248301525f91829190612c258160448101610435565b519082855af1612c33611ab5565b5015612cb557600a54604051636eb1769f60e11b602082019081526001600160a01b0393841660248301525f516020613e485f395f51905f5260448301525f9384931691612c848160648101610435565b51915afa612c90611ab5565b90158015612cba575b612cb55780602080612cb093518301019101610ec1565b151590565b505f90565b506020815110612c99565b5f516020613e285f395f51905f523b1561011957604051632bf116ef60e11b81525f516020613e485f395f51905f5260048201525f81602481835f516020613e285f395f51905f525af1801561059257612e66575b50600a546001600160a01b03165f516020613e285f395f51905f523b1561011957604051632bf116ef60e11b81526001600160a01b039190911660048201525f81602481835f516020613e285f395f51905f525af1801561059257612e52575b50600b546001600160a01b03165f516020613e285f395f51905f523b1561011957604051632bf116ef60e11b81526001600160a01b039190911660048201525f81602481835f516020613e285f395f51905f525af1801561059257612e3e575b505f516020613e285f395f51905f523b1561011957604051632bf116ef60e11b81526001600160a01b039190911660048201525f81602481835f516020613e285f395f51905f525af1801561059257612e305750565b8061062c5f610a3993610a04565b8061062c5f612e4c93610a04565b5f612dda565b8061062c5f612e6093610a04565b5f612d7a565b8061062c5f612e7493610a04565b5f612d1a565b600c545f600c5580612e895750565b600c5f527fdf6966c971051c3d54ec59162606531493a51404a002842f56009d7e5cf4a8c7908101905b818110612ebe575050565b5f8155600101612eb3565b612ed1612e7a565b612eda5f600655565b612ee962ff0000195f54165f55565b612ef963ff000000195f54165f55565b612f0a64ff00000000195f54165f55565b600a54612f21906101c9906001600160a01b031681565b6040516370a0823160e01b815230600482015290602090829060249082905afa801561059257612f58915f91613002575b50600555565b303b156101195760405163101ba12360e21b815260048101919091525f8160248183305af19081612fee575b50612f8d575f90565b5f54601881901c60ff169081612fdf575b81612fd1575b50612fb2575b610f3f613c4c565b612fcc6501000000000065ff0000000000195f5416175f55565b612faa565b60101c60ff1690505f612fa4565b60ff602082901c169150612f9e565b8061062c5f612ffc93610a04565b5f612f84565b61301b915060203d60201161058b5761057d8183610a04565b5f612f52565b600a546001600160a01b0316156130c057600a54613049906101c9906001600160a01b031681565b6040516370a0823160e01b815230600482015290602090829060249082905afa908115610592575f916130a1575b5060055481111561309757613092610a3991600554906119cf565b600855565b50610a395f600855565b6130ba915060203d60201161058b5761057d8183610a04565b5f613077565b610a395f600855565b9092916130d461196c565b93845115610f63578260208601528260011c8301808411610d09576130f886610f68565b5261310283611903565b61310b86610f78565b528260021b9280840460041490151715610d0957845160031015610f635761316a92608086015261313c8160011c90565b61314586610f88565b5261314f85610f98565b5261315a8160021c90565b61316385610fa8565b5260011c90565b61317383610fb8565b52565b6001600160a01b03909116815260806020808301829052835191830182905260a0830196959301905f5b8181106131f55750505080850360408201526020808451968781520193015f955b8087106131dd575050610f3f9394506060818403910152610ed0565b909360208060019287518152019501960195906131c1565b82516001600160a01b03168852602097880197909201916001016131a0565b90613227600160ff196009541617600955565b61322f612e7a565b6132385f600655565b61324762ff0000195f54165f55565b61325763ff000000195f54165f55565b61326864ff00000000195f54165f55565b600a5461327f906101c9906001600160a01b031681565b6040516370a0823160e01b81523060048201529290602090849060249082905afa92831561059257613324936132bb915f916130025750600555565b6132cd61010061ff00195f5416175f55565b6133326132d861194a565b600a549093906132fd906132f4906001600160a01b03166101c9565b6102eb86610f56565b61330561194a565b9261330f84610f56565b52604051948591602083019190602083019252565b03601f198101855284610a04565b73ba12222222228d8ba445958a75a0704d566bf2c83b15610119575f9161336e6040519485938493632e1c224f60e11b85523060048601613176565b03818373ba12222222228d8ba445958a75a0704d566bf2c85af190816133d2575b506133b5576133a261ff00195f54165f55565b6133b160ff1960095416600955565b5f90565b6133c361ff00195f54165f55565b612f8d60ff1960095416600955565b8061062c5f6133e093610a04565b5f61338f565b6001600160a01b03918216815291166020820152604081019190915260a0606082018190529092915f91608091610f0f91860190610ed0565b90613432600260ff196009541617600955565b61343a612e7a565b6134435f600655565b61345262ff0000195f54165f55565b61346263ff000000195f54165f55565b61347364ff00000000195f54165f55565b600a5461348a906101c9906001600160a01b031681565b6040516370a0823160e01b81523060048201529290602090849060249082905afa92831561059257613324936134c6915f916130025750600555565b6134d861010061ff00195f5416175f55565b600a546134fd906001600160a01b031692604051948591602083019190602083019252565b7387870bca3f3fd6335c3f4ce8392d69350b4fa4e23b15610119575f9161353960405194859384936310ac2ddf60e21b855230600486016133e6565b0381837387870bca3f3fd6335c3f4ce8392d69350b4fa4e25af190816133d257506133b5576133a261ff00195f54165f55565b5190811515820361011957565b9081602091031261011957610f3f9061356c565b60405163a9059cbb60e01b6020820190815273ba12222222228d8ba445958a75a0704d566bf2c8602483015260448201939093525f9283929183906135d58160648101610435565b51925af16135e1611ab5565b81613626575b50156135ef57565b60405162461bcd60e51b815260206004820152600f60248201526e1d1c985b9cd9995c8819985a5b1959608a1b6044820152606490fd5b805180159250821561363b575b50505f6135e7565b61364e9250602080918301019101613579565b5f80613633565b519069ffffffffffffffffffff8216820361011957565b604051633fabe5a360e21b81529060a090829060049082906001600160a01b03165afa908115610592575f916136a9575b505f811315612cb55790565b905060a0813d60a0116136ee575b816136c460a09383610a04565b81010312610119576136d581613655565b506136e7608060208301519201613655565b505f61369d565b3d91506136b7565b905f916001905b80821061378857506001545f516020613e285f395f51905f523b15610119576040516335d320e960e21b81526004810191909152602481018290525f81604481835f516020613e285f395f51905f525af1801561059257613774575b505f516020613e485f395f51905f523b6137705750565b9150565b8061062c5f61378293610a04565b5f613759565b906137a561379f61379983856119cf565b60011c90565b82610d58565b906001545f516020613e285f395f51905f523b15610119576040516335d320e960e21b81526004810191909152602481018390525f81604481835f516020613e285f395f51905f525af1801561059257613825575b505f516020613e485f395f51905f523b61381e575061381890610d4a565b906136fd565b91506136fd565b8061062c5f61383393610a04565b5f6137fa565b6040516060919061384a8382610a04565b6002815291601f1901366020840137565b9080601f8301121561011957815161387281610a4b565b926138806040519485610a04565b81845260208085019260051b82010192831161011957602001905b8282106138a85750505090565b815181526020918201910161389b565b81601f82011215610119578051906138cf82610abf565b926138dd6040519485610a04565b8284526020838301011161011957815f9260208093018386015e8301015290565b51906001600160401b038216820361011957565b602081830312610119578051906001600160401b03821161011957019080601f830112156101195781519161394683610a4b565b926139546040519485610a04565b80845260208085019160051b830101918383116101195760208101915b83831061398057505050505090565b82516001600160401b03811161011957820190610120828703601f190112610119576139aa610a3b565b906139b760208401610f1f565b825260408301516001600160401b038111610119578760206139db9286010161385b565b60208301526060830151916001600160401b03831161011957613a5961012085613a0d8b6020809998819901016138b8565b604085015260808101516060850152613a2860a082016138fe565b608085015260c081015160a0850152613a4360e082016138fe565b60c085015261010081015160e08501520161356c565b610100820152815201920191613971565b60a0906020929360808201948252838201525f516020613e485f395f51905f526040820152608060608201528451809452019201905f5b818110613aae5750505090565b8251845260209384019390920191600101613aa1565b91905f91613ad0613839565b937f2f8788117e7eff1d82e926ec794901d17c78024a50270940304540a733656f0d613afb86610f56565b527f43f25613eb2f15fb17222a5d424ca2655743e71265d98e4b93c05e5fb589ecde613b2686610f68565b529061c350915b8381111580613c42575b15613bb757613b4e613b498483610d58565b6119c1565b90848211613c3a575b6040516335e1349b60e01b81525f8180613b768b878760048501613a6a565b03815f516020613e285f395f51905f525afa5f9181613c16575b50613bcd575060c88411613bc05750838114613bb757613baf90610d4a565b945b94613b2d565b50505050905090565b959260011c905091613bb1565b613bdb929691508390613c99565b93838114613bb757613bec90610d4a565b9461c350831015613bb15791613c0190611903565b9161c350831115613bb15761c3509250613bb1565b613c339192503d805f833e613c2b8183610a04565b810190613912565b905f613b90565b849150613b57565b5081518510613b37565b613c54613021565b5f5460ff8160181c169081613c8a575b81613c7c575b5080613c735790565b50600854151590565b60ff915060101c165f613c6a565b905060ff8160201c1690613c64565b915f905b8351821015613dd85760036020613cb48487610fc9565b5101515110613dcf57613cda6101c961135e6020613cd28689610fc9565b510151610f78565b803b158015613dbe575b613d8657604051632474521560e21b81527f43f25613eb2f15fb17222a5d424ca2655743e71265d98e4b93c05e5fb589ecde60048201526001600160a01b03821660248201526020816044815f516020613e485f395f51905f525afa908115610592575f91613d90575b5015613d865790613d66613d6b926102eb8387610fc9565b611ae4565b9082518214613d7f576001905b0190613c9d565b5091505090565b5090600190613d78565b613db1915060203d8111613db7575b613da98183610a04565b810190613579565b5f613d4e565b503d613d9f565b50613dca818386613ddf565b613ce4565b90600190613d78565b9250505090565b9190915f5b838110613df357505050505f90565b6001600160a01b03613e058284610fc9565b51166001600160a01b03841614613e1e57600101613de4565b5050505060019056fe0000000000000000000000007109709ecfa91a80626ff3989d68f67f5b1dd12d0000000000000000000000007094e706e75e13d1e0ea237f71a7c4511e9d270ba2646970667358221220004429462ad563df14364303fa55ba059a211293e6ad892101005bde8f1301a064736f6c634300081e0033","linkReferences":{}},"methodIdentifiers":{"executeDirect(uint256)":"406e848c","executeOnOpportunity()":"3c2448ed","executeOperation(address,uint256,uint256,address,bytes)":"1b11d0ff","hypothesisValidatedFlag()":"d02acef1","profitAmount()":"5ff972cc","profitToken()":"49343624","receiveFlashLoan(address[],uint256[],uint256[],bytes)":"f04f2707"},"id":0}