{"abi":[{"type":"constructor","inputs":[],"stateMutability":"nonpayable"},{"type":"function","name":"brickConfirmed","inputs":[],"outputs":[{"name":"","type":"bool","internalType":"bool"}],"stateMutability":"view"},{"type":"function","name":"executeOnOpportunity","inputs":[],"outputs":[],"stateMutability":"nonpayable"},{"type":"function","name":"profitAmount","inputs":[],"outputs":[{"name":"","type":"uint256","internalType":"uint256"}],"stateMutability":"view"},{"type":"function","name":"profitToken","inputs":[],"outputs":[{"name":"","type":"address","internalType":"address"}],"stateMutability":"pure"}],"bytecode":{"object":"0x60a08060405234607b576101fc818101906001600160401b03821183831017606757602091839161051983393081520301905ff08015605c576001600160a01b031660805260405161049990816100808239608051816101740152f35b6040513d5f823e3d90fd5b634e487b7160e01b5f52604160045260245ffd5b5f80fdfe60806040526004361015610011575f80fd5b5f3560e01c80633c2448ed146100b1578063493436241461008a5780635ff972cc1461006e5763ce407e1114610045575f80fd5b3461006a575f36600319011261006a57602060ff60015460081c166040519015158152f35b5f80fd5b3461006a575f36600319011261006a5760205f54604051908152f35b3461006a575f36600319011261006a5760206040515f5160206104445f395f51905f528152f35b3461006a575f36600319011261006a576100c9610101565b005b90601f8019910116810190811067ffffffffffffffff8211176100ed57604052565b634e487b7160e01b5f52604160045260245ffd5b6001545f9060ff811661043f5760ff1916600190811790556040516370a0823160e01b81523060048201526020816024815f5160206104445f395f51905f525afa908115610402575f9161040d575b505f5160206104445f395f51905f523b1561006a57604051632a47b83760e21b81527f00000000000000000000000000000000000000000000000000000000000000006001600160a01b031660048201525f81602481835f5160206104445f395f51905f525af18015610402576103ed575b505f5160206104445f395f51905f523b156103e9576040516340c10f1960e01b815230600482015269d3c21bcecceda100000060248201528281604481835f5160206104445f395f51905f525af180156103c9579083916103d4575b50506040516370a0823160e01b8152306004820152906020826024815f5160206104445f395f51905f525afa9182156103c9578392610395575b5081039081116103815781555f5160206104445f395f51905f523b1561037357604051632a47b83760e21b8152600481018290528181602481835f5160206104445f395f51905f525af180156103765790829161035e575b508060405160208101906340c10f1960e01b825230602482015260016044820152604481526102e06064826100cb565b5190825f5160206104445f395f51905f525af1903d15610358573d9067ffffffffffffffff82116103445760405191610323601f8201601f1916602001846100cb565b825260203d92013e5b61ff00600154911560081b169061ff00191617600155565b634e487b7160e01b81526041600452602490fd5b5061032c565b81610368916100cb565b61037357805f6102b0565b80fd5b6040513d84823e3d90fd5b634e487b7160e01b82526011600452602482fd5b9091506020813d6020116103c1575b816103b1602093836100cb565b8101031261006a5751905f610258565b3d91506103a4565b6040513d85823e3d90fd5b816103de916100cb565b6103e957815f61021e565b5080fd5b6103fa9192505f906100cb565b5f905f6101c2565b6040513d5f823e3d90fd5b90506020813d602011610437575b81610428602093836100cb565b8101031261006a57515f610150565b3d915061041b565b505056fe0000000000000000000000003541499cda8ca51b24724bb8e7ce569727406e04a26469706673582212203f9d89f9de832ab392d64feac9570af65857ecacf87c011ed274a75706b6e20e64736f6c634300081e003360a034606657601f6101fc38819003918201601f19168301916001600160401b03831184841017606a57808492602094604052833981010312606657516001600160a01b038116810360665760805260405161017d908161007f8239608051816101250152f35b5f80fd5b634e487b7160e01b5f52604160045260245ffdfe60806040526004361015610011575f80fd5b5f3560e01c6304433bbc14610024575f80fd5b346100b55760203660031901126100b55760043567ffffffffffffffff81116100b557366023820112156100b55780600401359067ffffffffffffffff82116100b95761007a601f8301601f19166020016100cd565b82815236602484840101116100b5575f602084819560246100a3960183860137830101526100f3565b6040516001600160a01b039091168152f35b5f80fd5b634e487b7160e01b5f52604160045260245ffd5b6040519190601f01601f1916820167ffffffffffffffff8111838210176100b957604052565b602081519101206007602061010860406100cd565b8281520166536176696e677360c81b81522014610123575f90565b7f00000000000000000000000000000000000000000000000000000000000000009056fea2646970667358221220c16d330e97e9d5874f089f6e8728699ab7e41ceea0c94206890ebac5cdc66e0864736f6c634300081e0033","linkReferences":{}},"methodIdentifiers":{"brickConfirmed()":"ce407e11","executeOnOpportunity()":"3c2448ed","profitAmount()":"5ff972cc","profitToken()":"49343624"},"id":0}