{"abi":[{"type":"constructor","inputs":[],"stateMutability":"nonpayable"},{"type":"fallback","stateMutability":"payable"},{"type":"receive","stateMutability":"payable"},{"type":"function","name":"configure","inputs":[{"name":"controller_","type":"address","internalType":"address"},{"name":"thief_","type":"address","internalType":"address"},{"name":"token_","type":"address","internalType":"address"}],"outputs":[],"stateMutability":"nonpayable"},{"type":"function","name":"controller","inputs":[],"outputs":[{"name":"","type":"address","internalType":"address"}],"stateMutability":"view"},{"type":"function","name":"thief","inputs":[],"outputs":[{"name":"","type":"address","internalType":"address"}],"stateMutability":"view"},{"type":"function","name":"token","inputs":[],"outputs":[{"name":"","type":"address","internalType":"address"}],"stateMutability":"view"}],"bytecode":{"object":"0x60808060405234602757600180546001600160a01b0319163317905561039f908161002c8239f35b5f80fdfe6080806040526004361015610020575b50361561001e5761001e61015a565b005b5f3560e01c90816334513589146101375750806355d28f20146100ab578063f77c4791146100845763fc0c546a14610058575f61000f565b34610080575f366003190112610080576002546040516001600160a01b039091168152602090f35b5f80fd5b34610080575f366003190112610080575f546040516001600160a01b039091168152602090f35b34610080576060366003190112610080576004356001600160a01b03811690819003610080576024356001600160a01b03811690819003610080576044356001600160a01b0381169290839003610080576001600160601b0360a01b5f5416175f556001600160601b0360a01b60015416176001556001600160601b0360a01b60025416176002555f80f35b34610080575f366003190112610080576001546001600160a01b03168152602090f35b6002545f546001600160a01b0390811691168115801561026c575b6102685761018382826102e9565b908115610263575f9283809360018060a01b0360015416906040519160208301946323b872dd60e01b8652602484015260448301526064820152606481526101cc608482610274565b51925af16101d86102aa565b8161022b575b50156101e657565b60405162461bcd60e51b815260206004820152601a60248201527f445241494e5f5452414e534645525f46524f4d5f4641494c45440000000000006044820152606490fd5b8051801592508215610240575b50505f6101de565b819250906020918101031261008057602001518015158103610080575f80610238565b505050565b5050565b508015610175565b90601f8019910116810190811067ffffffffffffffff82111761029657604052565b634e487b7160e01b5f52604160045260245ffd5b3d156102e4573d9067ffffffffffffffff821161029657604051916102d9601f8201601f191660200184610274565b82523d5f602084013e565b606090565b5f9291813b15610362575f91829160405160208101916370a0823160e01b835260018060a01b0316602482015260248152610325604482610274565b51915afa6103316102aa565b9080610356575b61033f5750565b909150602081805181010312610080576020015190565b50602081511015610338565b505f92505056fea26469706673582212203e47f127dfccfd0ef1752008df8097ef77b93459aa0b6a134e8b0ec0ccfb8dad64736f6c634300081e0033","linkReferences":{}},"methodIdentifiers":{"configure(address,address,address)":"55d28f20","controller()":"f77c4791","thief()":"34513589","token()":"fc0c546a"},"id":0}