{"abi":[{"type":"constructor","inputs":[{"name":"controller_","type":"address","internalType":"address"},{"name":"thief_","type":"address","internalType":"address"}],"stateMutability":"nonpayable"},{"type":"fallback","stateMutability":"payable"},{"type":"receive","stateMutability":"payable"},{"type":"function","name":"controller","inputs":[],"outputs":[{"name":"","type":"address","internalType":"address"}],"stateMutability":"view"},{"type":"function","name":"setToken","inputs":[{"name":"newToken","type":"address","internalType":"address"}],"outputs":[],"stateMutability":"nonpayable"},{"type":"function","name":"thief","inputs":[],"outputs":[{"name":"","type":"address","internalType":"address"}],"stateMutability":"view"},{"type":"function","name":"token","inputs":[],"outputs":[{"name":"","type":"address","internalType":"address"}],"stateMutability":"view"}],"bytecode":{"object":"0x60c03461008657601f61045038819003918201601f19168301916001600160401b0383118484101761008a57808492604094855283398101031261008657610052602061004b8361009e565b920161009e565b9060805260a05260405161039d90816100b3823960805181818160980152610177015260a05181818160d901526101f30152f35b5f80fd5b634e487b7160e01b5f52604160045260245ffd5b51906001600160a01b03821682036100865756fe6080806040526004361015610020575b50361561001e5761001e610148565b005b5f3560e01c908163144fa6d71461010857816334513589146100c757508063f77c4791146100835763fc0c546a14610058575f61000f565b3461007f575f36600319011261007f575f546040516001600160a01b039091168152602090f35b5f80fd5b3461007f575f36600319011261007f576040517f00000000000000000000000000000000000000000000000000000000000000006001600160a01b03168152602090f35b3461007f575f36600319011261007f577f00000000000000000000000000000000000000000000000000000000000000006001600160a01b03168152602090f35b3461007f57602036600319011261007f576004356001600160a01b0381169081900361007f576bffffffffffffffffffffffff60a01b5f5416175f555f80f35b5f546001600160a01b031680156102ef575f604051915f80602085016370a0823160e01b815260018060a01b037f00000000000000000000000000000000000000000000000000000000000000001695866024820152602481526101ad6044826102f2565b5190845afa6101ba610328565b90806102e3575b6102c8575b5081156102c3575f928380936040519060208201936323b872dd60e01b8552602483015260018060a01b037f000000000000000000000000000000000000000000000000000000000000000016604483015260648201526064815261022c6084826102f2565b51925af1610238610328565b8161028b575b501561024657565b60405162461bcd60e51b815260206004820152601a60248201527f445241494e5f5452414e534645525f46524f4d5f4641494c45440000000000006044820152606490fd5b80518015925082156102a0575b50505f61023e565b819250906020918101031261007f5760200151801515810361007f575f80610298565b505050565b90915060208180518101031261007f5760200151905f6101c6565b506020815110156101c1565b50565b90601f8019910116810190811067ffffffffffffffff82111761031457604052565b634e487b7160e01b5f52604160045260245ffd5b3d15610362573d9067ffffffffffffffff82116103145760405191610357601f8201601f1916602001846102f2565b82523d5f602084013e565b60609056fea2646970667358221220f3cb2bf248287eea0978dcc103c96dcd993d88a0065fa6981a8d3f4e960489fe64736f6c634300081e0033","linkReferences":{}},"methodIdentifiers":{"controller()":"f77c4791","setToken(address)":"144fa6d7","thief()":"34513589","token()":"fc0c546a"},"id":0}