{"abi":[{"type":"constructor","inputs":[],"stateMutability":"nonpayable"},{"type":"function","name":"approve","inputs":[{"name":"","type":"address","internalType":"address"},{"name":"","type":"uint256","internalType":"uint256"}],"outputs":[{"name":"","type":"bool","internalType":"bool"}],"stateMutability":"pure"},{"type":"function","name":"balanceOf","inputs":[{"name":"","type":"address","internalType":"address"}],"outputs":[{"name":"","type":"uint256","internalType":"uint256"}],"stateMutability":"pure"},{"type":"function","name":"claimInsurance","inputs":[],"outputs":[],"stateMutability":"nonpayable"},{"type":"function","name":"decimals","inputs":[],"outputs":[{"name":"","type":"uint8","internalType":"uint8"}],"stateMutability":"pure"},{"type":"function","name":"deposit","inputs":[{"name":"","type":"uint256","internalType":"uint256"}],"outputs":[],"stateMutability":"nonpayable"},{"type":"function","name":"earn","inputs":[],"outputs":[],"stateMutability":"nonpayable"},{"type":"function","name":"getRatio","inputs":[],"outputs":[{"name":"","type":"uint256","internalType":"uint256"}],"stateMutability":"pure"},{"type":"function","name":"setUnderlying","inputs":[{"name":"newUnderlying","type":"address","internalType":"address"}],"outputs":[],"stateMutability":"nonpayable"},{"type":"function","name":"token","inputs":[],"outputs":[{"name":"","type":"address","internalType":"address"}],"stateMutability":"view"},{"type":"function","name":"transfer","inputs":[{"name":"","type":"address","internalType":"address"},{"name":"","type":"uint256","internalType":"uint256"}],"outputs":[{"name":"","type":"bool","internalType":"bool"}],"stateMutability":"pure"},{"type":"function","name":"transferFrom","inputs":[{"name":"","type":"address","internalType":"address"},{"name":"","type":"address","internalType":"address"},{"name":"","type":"uint256","internalType":"uint256"}],"outputs":[{"name":"","type":"bool","internalType":"bool"}],"stateMutability":"pure"},{"type":"function","name":"underlying","inputs":[],"outputs":[{"name":"","type":"address","internalType":"address"}],"stateMutability":"view"},{"type":"function","name":"withdraw","inputs":[{"name":"","type":"uint256","internalType":"uint256"}],"outputs":[],"stateMutability":"nonpayable"}],"bytecode":{"object":"0x60808060405234603a575f80546001600160a01b031916736b175474e89094c44da98b954eedeac495271d0f17905561024d908161003f8239f35b5f80fdfe60806040526004361015610011575f80fd5b5f3560e01c8063095ea7b31461013b57806323b872dd1461017f5780632e1a7d4d14610136578063313ce567146101645780636f307dc3146100a857806370a0823114610140578063a75ac608146100f5578063a9059cbb1461013b578063b6b55f2514610136578063bdb2321f146100fa578063d389800f146100f5578063ec1ebd7a146100d35763fc0c546a146100a8575f80fd5b346100cf575f3660031901126100cf575f546040516001600160a01b039091168152602090f35b5f80fd5b346100cf575f3660031901126100cf576020604051670de0b6b3a76400008152f35b610205565b346100cf5760203660031901126100cf576001600160a01b0361011b6101ad565b166bffffffffffffffffffffffff60a01b5f5416175f555f80f35b6101f2565b6101d9565b346100cf5760203660031901126100cf576101596101ad565b5060206040515f8152f35b346100cf575f3660031901126100cf57602060405160128152f35b346100cf5760603660031901126100cf576101986101ad565b506101a16101c3565b50602060405160018152f35b600435906001600160a01b03821682036100cf57565b602435906001600160a01b03821682036100cf57565b346100cf5760403660031901126100cf576101a16101ad565b346100cf5760203660031901126100cf57005b346100cf575f3660031901126100cf5700fea2646970667358221220a0b7be9d945fd69df4e61da6401534eeee6873b26a233b2ac4b0ac32230b07a564736f6c634300081e0033","linkReferences":{}},"methodIdentifiers":{"approve(address,uint256)":"095ea7b3","balanceOf(address)":"70a08231","claimInsurance()":"a75ac608","decimals()":"313ce567","deposit(uint256)":"b6b55f25","earn()":"d389800f","getRatio()":"ec1ebd7a","setUnderlying(address)":"bdb2321f","token()":"fc0c546a","transfer(address,uint256)":"a9059cbb","transferFrom(address,address,uint256)":"23b872dd","underlying()":"6f307dc3","withdraw(uint256)":"2e1a7d4d"},"id":0}