{"abi":[{"type":"constructor","inputs":[],"stateMutability":"nonpayable"},{"type":"function","name":"approve","inputs":[{"name":"","type":"address","internalType":"address"},{"name":"","type":"uint256","internalType":"uint256"}],"outputs":[{"name":"","type":"bool","internalType":"bool"}],"stateMutability":"pure"},{"type":"function","name":"balanceOf","inputs":[{"name":"","type":"address","internalType":"address"}],"outputs":[{"name":"","type":"uint256","internalType":"uint256"}],"stateMutability":"pure"},{"type":"function","name":"decimals","inputs":[],"outputs":[{"name":"","type":"uint8","internalType":"uint8"}],"stateMutability":"pure"},{"type":"function","name":"deposit","inputs":[{"name":"","type":"uint256","internalType":"uint256"}],"outputs":[],"stateMutability":"nonpayable"},{"type":"function","name":"getRatio","inputs":[],"outputs":[{"name":"","type":"uint256","internalType":"uint256"}],"stateMutability":"pure"},{"type":"function","name":"setUnderlying","inputs":[{"name":"newUnderlying","type":"address","internalType":"address"}],"outputs":[],"stateMutability":"nonpayable"},{"type":"function","name":"token","inputs":[],"outputs":[{"name":"","type":"address","internalType":"address"}],"stateMutability":"view"},{"type":"function","name":"transfer","inputs":[{"name":"","type":"address","internalType":"address"},{"name":"","type":"uint256","internalType":"uint256"}],"outputs":[{"name":"","type":"bool","internalType":"bool"}],"stateMutability":"pure"},{"type":"function","name":"transferFrom","inputs":[{"name":"","type":"address","internalType":"address"},{"name":"","type":"address","internalType":"address"},{"name":"","type":"uint256","internalType":"uint256"}],"outputs":[{"name":"","type":"bool","internalType":"bool"}],"stateMutability":"pure"},{"type":"function","name":"underlying","inputs":[],"outputs":[{"name":"","type":"address","internalType":"address"}],"stateMutability":"view"},{"type":"function","name":"withdraw","inputs":[{"name":"","type":"uint256","internalType":"uint256"}],"outputs":[],"stateMutability":"nonpayable"}],"bytecode":{"object":"0x60808060405234603a575f80546001600160a01b031916736b175474e89094c44da98b954eedeac495271d0f179055610220908161003f8239f35b5f80fdfe60806040526004361015610011575f80fd5b5f3560e01c8063095ea7b31461012057806323b872dd146101645780632e1a7d4d1461011b578063313ce567146101495780636f307dc31461009257806370a0823114610125578063a9059cbb14610120578063b6b55f251461011b578063bdb2321f146100df578063ec1ebd7a146100bd5763fc0c546a14610092575f80fd5b346100b9575f3660031901126100b9575f546040516001600160a01b039091168152602090f35b5f80fd5b346100b9575f3660031901126100b9576020604051670de0b6b3a76400008152f35b346100b95760203660031901126100b9576001600160a01b03610100610192565b166bffffffffffffffffffffffff60a01b5f5416175f555f80f35b6101d7565b6101be565b346100b95760203660031901126100b95761013e610192565b5060206040515f8152f35b346100b9575f3660031901126100b957602060405160128152f35b346100b95760603660031901126100b95761017d610192565b506101866101a8565b50602060405160018152f35b600435906001600160a01b03821682036100b957565b602435906001600160a01b03821682036100b957565b346100b95760403660031901126100b957610186610192565b346100b95760203660031901126100b95700fea26469706673582212208a78bf0a1e1c8a423a01d1d1647bb73e089b7cee99f0b41d9009938fafa804bb64736f6c634300081e0033","linkReferences":{}},"methodIdentifiers":{"approve(address,uint256)":"095ea7b3","balanceOf(address)":"70a08231","decimals()":"313ce567","deposit(uint256)":"b6b55f25","getRatio()":"ec1ebd7a","setUnderlying(address)":"bdb2321f","token()":"fc0c546a","transfer(address,uint256)":"a9059cbb","transferFrom(address,address,uint256)":"23b872dd","underlying()":"6f307dc3","withdraw(uint256)":"2e1a7d4d"},"id":0}