{"abi":[{"type":"constructor","inputs":[],"stateMutability":"nonpayable"},{"type":"function","name":"CDAI","inputs":[],"outputs":[{"name":"","type":"address","internalType":"address"}],"stateMutability":"view"},{"type":"function","name":"COMP","inputs":[],"outputs":[{"name":"","type":"address","internalType":"address"}],"stateMutability":"view"},{"type":"function","name":"CRV","inputs":[],"outputs":[{"name":"","type":"address","internalType":"address"}],"stateMutability":"view"},{"type":"function","name":"CYFI","inputs":[],"outputs":[{"name":"","type":"address","internalType":"address"}],"stateMutability":"view"},{"type":"function","name":"DAI","inputs":[],"outputs":[{"name":"","type":"address","internalType":"address"}],"stateMutability":"view"},{"type":"function","name":"RENBTC","inputs":[],"outputs":[{"name":"","type":"address","internalType":"address"}],"stateMutability":"view"},{"type":"function","name":"SNX","inputs":[],"outputs":[{"name":"","type":"address","internalType":"address"}],"stateMutability":"view"},{"type":"function","name":"SUSD","inputs":[],"outputs":[{"name":"","type":"address","internalType":"address"}],"stateMutability":"view"},{"type":"function","name":"TARGET","inputs":[],"outputs":[{"name":"","type":"address","internalType":"address"}],"stateMutability":"view"},{"type":"function","name":"THREECRV","inputs":[],"outputs":[{"name":"","type":"address","internalType":"address"}],"stateMutability":"view"},{"type":"function","name":"UNISWAP_V2_FACTORY","inputs":[],"outputs":[{"name":"","type":"address","internalType":"address"}],"stateMutability":"view"},{"type":"function","name":"USDC","inputs":[],"outputs":[{"name":"","type":"address","internalType":"address"}],"stateMutability":"view"},{"type":"function","name":"USDT","inputs":[],"outputs":[{"name":"","type":"address","internalType":"address"}],"stateMutability":"view"},{"type":"function","name":"WBTC","inputs":[],"outputs":[{"name":"","type":"address","internalType":"address"}],"stateMutability":"view"},{"type":"function","name":"WETH","inputs":[],"outputs":[{"name":"","type":"address","internalType":"address"}],"stateMutability":"view"},{"type":"function","name":"executeOnOpportunity","inputs":[],"outputs":[],"stateMutability":"nonpayable"},{"type":"function","name":"profitAmount","inputs":[],"outputs":[{"name":"","type":"uint256","internalType":"uint256"}],"stateMutability":"view"},{"type":"function","name":"profitToken","inputs":[],"outputs":[{"name":"","type":"address","internalType":"address"}],"stateMutability":"view"},{"type":"function","name":"uniswapV2Call","inputs":[{"name":"","type":"address","internalType":"address"},{"name":"amount0","type":"uint256","internalType":"uint256"},{"name":"amount1","type":"uint256","internalType":"uint256"},{"name":"","type":"bytes","internalType":"bytes"}],"outputs":[],"stateMutability":"nonpayable"}],"bytecode":{"object":"0x60c080604052346101135761025f8181016001600160401b038111838210176100f45782916122ca833903905ff08015610108576080526040516104568082016001600160401b038111838210176100f4578291612529833903905ff080156101085760a08190526001600160a01b0316803b15610113575f8091602460405180948193636165863760e01b83523060048401525af18015610108576100dd575b6040516121b2908161011882396080518181816113970152818161172d01528181611784015261186f015260a0518181816106fc01526113730152f35b6001600160401b0381116100f4576040525f6100a0565b634e487b7160e01b5f52604160045260245ffd5b6040513d5f823e3d90fd5b5f80fdfe6080806040526004361015610012575f80fd5b5f3560e01c9081630c14034d146104405750806310d1e85c146103d357806315d8eeba146103a55780633c2448ed1461038b57806349343624146103645780634dede3de146103365780635ff972cc14610319578063878f7603146102eb57806389a30271146102bd578063945c91421461028f57806399d8fae314610261578063ad5c464814610233578063b71501bc14610205578063c54e44eb146101d7578063cc1f2afa146101a9578063d7f269fe1461017b578063e0bab4c41461014d578063e8d6101e1461011f5763f03ae745146100ed575f80fd5b3461011b575f36600319011261011b576020604051736c3f90f043a72fa612cbac8115ee7e52bde6e4908152f35b5f80fd5b3461011b575f36600319011261011b57602060405173c011a73ee8576fb46f5e1c5751ca3b9fe0af2a6f8152f35b3461011b575f36600319011261011b576020604051736b175474e89094c44da98b954eedeac495271d0f8152f35b3461011b575f36600319011261011b57602060405173eb4c2781e4eba804ce9a9803c67d0893436bb27d8152f35b3461011b575f36600319011261011b576020604051736847259b2b3a4c17e7c43c54409810af48ba52108152f35b3461011b575f36600319011261011b57602060405173dac17f958d2ee523a2206206994597c13d831ec78152f35b3461011b575f36600319011261011b57602060405173c00e94cb662c3520282e6f5717214004a7f268888152f35b3461011b575f36600319011261011b57602060405173c02aaa39b223fe8d0a0e5c4f27ead9083c756cc28152f35b3461011b575f36600319011261011b576020604051735c69bee701ef814a2b6a3edd4b1652cb9cc5aa6f8152f35b3461011b575f36600319011261011b57602060405173d533a949740bb3306d119cc777fa900ba034cd528152f35b3461011b575f36600319011261011b57602060405173a0b86991c6218b36c1d19d4a2e9eb0ce3606eb488152f35b3461011b575f36600319011261011b576020604051735d3a536e4d6dbd6114cc1ead35777bab948e36438152f35b3461011b575f36600319011261011b576020600154604051908152f35b3461011b575f36600319011261011b576020604051732260fac5e5542a773aa44fbcfedf7c193bc2c5998152f35b3461011b575f36600319011261011b575f546040516001600160a01b039091168152602090f35b3461011b575f36600319011261011b576103a3610a12565b005b3461011b575f36600319011261011b5760206040517357ab1ec28d129707052df4df418d58a2d46d5f518152f35b3461011b57608036600319011261011b576004356001600160a01b0381160361011b5760643567ffffffffffffffff811161011b573660238201121561011b57806004013567ffffffffffffffff811161011b573691016024011161011b576103a36044356024356105ca565b3461011b575f36600319011261011b578073fa3472f7319477c9bfecdd66e4b948569e7621b960209252f35b60a0810190811067ffffffffffffffff82111761048857604052565b634e487b7160e01b5f52604160045260245ffd5b90601f8019910116810190811067ffffffffffffffff82111761048857604052565b604051906104cd60208361049c565b5f80835282815b8281106104e057505050565b8060606020809385010152016104d4565b90602080835192838152019201905f5b81811061050e5750505090565b82516001600160a01b0316845260209384019390920191600101610501565b805180835260209291819084018484015e5f828201840152601f01601f1916010190565b9080602083519182815201916020808360051b8301019401925f915b83831061057c57505050505090565b909192939460208061059a600193601f19868203018752895161052d565b9701930193019193929061056d565b919082039182116105b657565b634e487b7160e01b5f52601160045260245ffd5b5f90604051926105d98461046c565b6002546001600160a01b039081168552600354811660208601908152600454909116604086019081526005546060870190815260065460ff16158015608089015292969194909391929091906109e35782516001600160a01b031633036109b35781156109ab5750915b51820361097957845183516106669184916001600160a01b039081169116610ad5565b156106a85782516001600160a01b0316803b1561011b575f809160246040518094819363b6b55f2560e01b83528860048401525af19081610964575b506106b9575b505050505060ff1960065416600655565b82516106cf9030906001600160a01b0316610c43565b80156109525783516106eb9082906001600160a01b0316610a3b565b156109525785516001600160a01b037f00000000000000000000000000000000000000000000000000000000000000008116959116853b1561094e5760405190621b66cb60e81b825260048201528681602481838a5af180156109435790879161092a575b505060209485916107d060405191610768858461049c565b8983525f3681376107be61077a6104be565b9160018060a01b0390511693604051978896879663ff3f186960e01b88526004880152602487015260448601528b606486015260c0608486015260c48501906104f1565b8381036003190160a485015290610551565b038188736847259b2b3a4c17e7c43c54409810af48ba52105af19081610900575b50156106a85760038202828104600314831517156108ec576103e5900482018092116108d857600182018092116108d85784516108389030906001600160a01b0316610c43565b9082821015610848575b506106a8565b8551905160405163a9059cbb60e01b958101959095526001600160a01b039081166024860152604485018490526108a29461089c9290911661089782606481015b03601f19810184528361049c565b611eb4565b506105a9565b91826108b1575b808080610842565b5181546001600160a01b0319166001600160a01b03919091161790556001555f80806108a9565b634e487b7160e01b84526011600452602484fd5b634e487b7160e01b85526011600452602485fd5b8481813d8311610923575b610915818361049c565b8101031261011b57516107f1565b503d61090b565b816109349161049c565b61093f57855f610750565b8580fd5b6040513d89823e3d90fd5b8680fd5b50505050505060ff1960065416600655565b6109719195505f9061049c565b5f935f6106a2565b60405162461bcd60e51b815260206004820152600a60248201526910905117d05353d5539560b21b6044820152606490fd5b905091610643565b60405162461bcd60e51b81526020600482015260086024820152672120a22fa820a4a960c11b6044820152606490fd5b60405162461bcd60e51b81526020600482015260076024820152662727afa82620a760c91b6044820152606490fd5b600154610a3957610a21610d8e565b610a3957610a2d611563565b610a3957610a39611a1c565b565b90610a8460405163095ea7b360e01b6020820152736847259b2b3a4c17e7c43c54409810af48ba521060248201525f604482015260448152610a7e60648261049c565b83611eb4565b15610acf57610acc916040519163095ea7b360e01b6020840152736847259b2b3a4c17e7c43c54409810af48ba5210602484015260448301526044825261089760648361049c565b90565b50505f90565b60405163095ea7b360e01b60208201526001600160a01b03831660248201525f6044808301919091528152919291610b1890610b1260648261049c565b82611eb4565b15610b575760405163095ea7b360e01b60208201526001600160a01b0390931660248401526044830191909152610acc91906108978260648101610889565b5050505f90565b3d15610b98573d9067ffffffffffffffff82116104885760405191610b8d601f8201601f19166020018461049c565b82523d5f602084013e565b606090565b5f91906001600160a01b038116158015610c3a575b610c34575f809160405160208101906370a0823160e01b8252736847259b2b3a4c17e7c43c54409810af48ba5210602482015260248152610bf460448261049c565b51915afa610c00610b5e565b9080610c28575b610c0e5750565b80519192506020808201928201919091031261011b575190565b50602081511015610c07565b505f9150565b50803b15610bb2565b5f92916001600160a01b038216158015610c95575b610c8e575f91829160405160208101916370a0823160e01b835260018060a01b0316602482015260248152610bf460448261049c565b505f925050565b50813b15610c58565b805115610cab5760200190565b634e487b7160e01b5f52603260045260245ffd5b805160011015610cab5760400190565b805160021015610cab5760600190565b805160031015610cab5760800190565b805160041015610cab5760a00190565b805160051015610cab5760c00190565b805160061015610cab5760e00190565b805160071015610cab576101000190565b8051821015610cab5760209160051b010190565b6001600160a01b039182168152911660208201525f60408201819052606082015260c060808201819052610acc939192610d80918401906104f1565b9160a0818403910152610551565b604051610540610d9e818361049c565b60298252601f190136602083013773429881672b9ae42b8eba0e26cd9c73711b891ca5610dca82610c9e565b52731f9840a85d5af5bf1d1762f925bdaddc4201f984610de982610cbf565b52736b175474e89094c44da98b954eedeac495271d0f610e0882610ccf565b5273a0b86991c6218b36c1d19d4a2e9eb0ce3606eb48610e2782610cdf565b5273dac17f958d2ee523a2206206994597c13d831ec7610e4682610cef565b5273c02aaa39b223fe8d0a0e5c4f27ead9083c756cc2610e6582610cff565b52732260fac5e5542a773aa44fbcfedf7c193bc2c599610e8482610d0f565b527357ab1ec28d129707052df4df418d58a2d46d5f51610ea382610d1f565b52805160081015610cab57736c3f90f043a72fa612cbac8115ee7e52bde6e490610120820152805160091015610cab577349849c98ae39fff122806c06791fa73784fb36756101408201528051600a1015610cab5773c25a3a3b969415c80451098fa907ec722572917f6101608201528051600b1015610cab5773eb4c2781e4eba804ce9a9803c67d0893436bb27d6101808201528051600c1015610cab57735d3a536e4d6dbd6114cc1ead35777bab948e36436101a08201528051600d1015610cab57734ddc2d193948926d02f9b1fe9e1daa0718270ed56101c08201528051600e1015610cab5773c00e94cb662c3520282e6f5717214004a7f268886101e08201528051600f1015610cab5773d533a949740bb3306d119cc777fa900ba034cd52610200820152805160101015610cab5773c011a73ee8576fb46f5e1c5751ca3b9fe0af2a6f610220820152805160111015610cab5773a1484c3aa22a66c62b77e0ae78e15258bd0cb711610240820152805160121015610cab5773b4e16d0168e52d35cacd2c6185b44281ec28c9dc610260820152805160131015610cab57730d4a11d5eeaac28ec3f61d100daf4d40471f1852610280820152805160141015610cab5773bb2b8038a1640196fbe3e38816f3e67cba72d9406102a0820152805160151015610cab5773bebc44782c7db0a1a60cb6fe97d0b483032ff1c76102c0820152805160161015610cab57736c3e4cb2e96b01f4b866965a91ed4437839a121a6102e0820152805160171015610cab57732f50d538606fa9edd2b11e2446beb18c9d5846bb610300820152805160181015610cab5773594a198048501a304267e63b3bad0f0638da7628610320820152805160191015610cab57735f3b5dfeb7b28cdbd7faba78963ee202a494e2a26103408201528051601a1015610cab5773a478c2975ab1ea89e8196811f51a7b7ade33eb116103608201528051601b1015610cab5773a90996896660decc6e997655e065b237888578496103808201528051601c1015610cab5773b1f2cdec61db658f091671f5f199635aef202cac6103a08201528051601d1015610cab5773d061d61a4d941c39e5453435b6345dc261c2fce06103c08201528051601e1015610cab5773d513d22422a3062bd342ae374b4b9c20e0a9a0746103e08201528051601f1015610cab5773bfcf63294ad7105dea65aa58f8ae5be2d9d0952a610400820152805160201015610cab5773dc98556ce24f007a5ef6dc1ce96322d65832a819610420820152805160211015610cab57733d9819210a31b4961b30ef54be2aed79b9c9cd3b610440820152805160221015610cab57737109709ecfa91a80626ff3989d68f67f5b1dd12d610460820152805160231015610cab577357f1887a8bf19b14fc0df6fd9b2acc9af147ea85610480820152805160241015610cab57730bc529c00c6401aef6d220be8c6ea1667f6ad93e6104a0820152805160251015610cab5773514910771af9ca656af840dff83e8264ecf986ca6104c0820152805160261015610cab57730bc529c00c6401aef6d220be8c6ea1667f6ad93e6104e0820152805160271015610cab5773853d955acef822db058eb8505911ed77f175b99e610500820152805160281015610cab5773fa3472f7319477c9bfecdd66e4b948569e7621b96105208201526001600160a01b037f00000000000000000000000000000000000000000000000000000000000000008116907f0000000000000000000000000000000000000000000000000000000000000000165f5b835181101561155b576001600160a01b036113d48286610d30565b51166113df81610b9d565b15611552576113ee3082610c43565b833b1561011b5760405163bdb2321f60e01b8152600481018390525f8160248183895af1801561153757611542575b50843b1561011b57604051621b66cb60e81b8152600481018390525f81602481838a5af1801561153757611527575b50602061149081604051611460828261049c565b5f81525f36813761146f6104be565b604051600162c0e79760e01b031981529384928392908c8c60048601610d44565b03815f736847259b2b3a4c17e7c43c54409810af48ba52105af191826114fd575b50506114c4575b50506001905b016113b9565b6114d7906114d23084610c43565b6105a9565b9081156114b8579350935050506001600160601b0360a01b5f5416175f55600155600190565b81813d8311611520575b611511818361049c565b8101031261011b57515f6114b1565b503d611507565b5f6115319161049c565b5f61144c565b6040513d5f823e3d90fd5b5f61154c9161049c565b5f61141d565b506001906114be565b505050505f90565b60405161157160a08261049c565b6004815260809081366020830137737fba4b8dc5e7616e59622806932dbea72537a56b61159d82610c9e565b5273ca35e32e7926b96a9988f61d510e038108d8068e6115bc82610cbf565b5273fcba3e75865d2d561be8d220616520c171f128516115db82610ccf565b5273c586bef4a0992c495cf22e1aeee4e446cecdee0e6115fa82610cdf565b526040519161160a60a08461049c565b6004835236602084013773a478c2975ab1ea89e8196811f51a7b7ade33eb1161163283610c9e565b5273b4e16d0168e52d35cacd2c6185b44281ec28c9dc61165183610cbf565b52730d4a11d5eeaac28ec3f61d100daf4d40471f185261167083610ccf565b5273bb2b8038a1640196fbe3e38816f3e67cba72d94061168f83610cdf565b525f916040905b825184101561155b576001600160a01b036116b18585610d30565b5116926116bd84611f17565b156119fd575f5b82518110156119ed576001600160a01b036116df8285610d30565b51166116ea81611fd2565b91906001600160a01b0381161580156119dc575b6119d15761170c3082610c43565b6117163085610c43565b9261172083610b9d565b15806119c1575b6119b4577f00000000000000000000000000000000000000000000000000000000000000006001600160a01b03163b1561011b57885163bdb2321f60e01b81526001600160a01b0384811660048301525f908290602490829084907f0000000000000000000000000000000000000000000000000000000000000000165af180156119aa5761199a575b5088516117be8a8261049c565b60018152601f198a013660208301378951916117db60408461049c565b6001835260205f5b81811061198957505091816118a1938d6117fe602095610c9e565b528c51637a8e419160e01b8582019081526001600160a01b0390921660248083019190915230928101929092526004818f018290039081018252909161184591018261049c565b61184e83610c9e565b5261185882610c9e565b508b51600162c0e79760e01b0319815293849283927f00000000000000000000000000000000000000000000000000000000000000006001600160a01b03168060048601610d44565b03815f736847259b2b3a4c17e7c43c54409810af48ba52105af1908161195b575b506118d6575b505050506001905b016116c4565b6118e4906114d23084610c43565b90816119305750506118fa906114d23084610c43565b90816119075780806118c8565b955095505050505060018060a01b03166001600160601b0360a01b5f5416175f55600155600190565b9750975050505050505060018060a01b03166001600160601b0360a01b5f5416175f55600155600190565b6020813d8211611981575b816119736020938361049c565b8101031261011b57516118c2565b3d9150611966565b8060606020809388010152016117e3565b5f6119a49161049c565b5f6117b1565b8a513d5f823e3d90fd5b50505050506001906118d0565b506119cb85610b9d565b15611727565b5050506001906118d0565b506001600160a01b038316156116fe565b509360019193505b019291611696565b9360019193506119f5565b51906001600160701b038216820361011b57565b604051610120611a2c818361049c565b60088252601f1901366020830137736b175474e89094c44da98b954eedeac495271d0f611a5882610c9e565b5273a0b86991c6218b36c1d19d4a2e9eb0ce3606eb48611a7782610cbf565b5273dac17f958d2ee523a2206206994597c13d831ec7611a9682610ccf565b52732260fac5e5542a773aa44fbcfedf7c193bc2c599611ab582610cdf565b52736c3f90f043a72fa612cbac8115ee7e52bde6e490611ad482610cef565b527357ab1ec28d129707052df4df418d58a2d46d5f51611af382610cff565b5273eb4c2781e4eba804ce9a9803c67d0893436bb27d611b1282610d0f565b5273c02aaa39b223fe8d0a0e5c4f27ead9083c756cc2611b3182610d1f565b525f5b8151811015611d8657600154611d86576001600160a01b03611b568284610d30565b5116611b6181610b9d565b906001821115611e92575f91604051636535246160e11b8152826004820152602081602481736847259b2b3a4c17e7c43c54409810af48ba52105afa5f9181611e62575b50611e5a575b506001600160a01b038316928315908115611e50575b50611e4557611bcf82612099565b6001600160a01b03811693908415611da657611bea90611fd2565b6001600160a01b0390911693908415908115611e33575b50611da657604051630240bc6b60e21b8152606081600481895afa948515611537575f915f96611dd9575b508214946001600160701b0391908615611dd257505b16928315611dbb5760149004928315611dc9575b6103e890048015611dbb57808411611db3575b508215611da65760016080604051611c808161046c565b8781528360208201528460408201528560608201520152846001600160601b0360a01b60025416176002556001600160601b0360a01b60035416176003556001600160601b0360a01b600454161760045580600555600160ff196006541617600655815f14611d9f5780915b15611d9a57505f5b604092835191611d04858461049c565b60068352657069636b6c6560d01b6020840152813b1561011b575f8094611d5896519687958694859363022c0d9f60e01b85526004850152602484015230604484015260806064840152608483019061052d565b03925af19081611d8a575b50611d7d575b60019060ff19600654166006555b01611b34565b60015415611d69575b5050565b5f611d949161049c565b5f611d63565b611cf4565b5f91611cec565b5050505050600190611d77565b92505f611c69565b505050505050600190611d77565b60019350611c56565b9050611c42565b915094506060813d8211611e2b575b81611df56060938361049c565b8101031261011b57611e0681611a08565b906040611e1560208301611a08565b91015163ffffffff81160361011b579482611c2c565b3d9150611de8565b6001600160a01b03161590505f611c01565b505050600190611d77565b90503b155f611bc1565b92505f611bab565b611e8491925060203d8111611e8b575b611e7c818361049c565b810190611fb3565b905f611ba5565b503d611e72565b5050600190611d77565b9081602091031261011b5751801515810361011b5790565b6001600160a01b038116158015611f0e575b610acf57815f92918360208194519301915af1611ee1610b5e565b81611eea575090565b8051801592508215611efb57505090565b610acc9250602080918301019101611e9c565b50803b15611ec6565b5f91906001600160a01b038116908115908115611fa9575b50610c345760405190636ee2c86f60e01b82526004820152602081602481736847259b2b3a4c17e7c43c54409810af48ba52105afa5f9181611f78575b50611f745750565b9150565b611f9b91925060203d602011611fa2575b611f93818361049c565b810190611e9c565b905f611f6c565b503d611f89565b90503b155f611f2f565b9081602091031261011b57516001600160a01b038116810361011b5790565b6001600160a01b0381169190821590811561208f575b5061208857604051630dfe168160e01b8152602081600481865afa5f9181612067575b5061201857505f91508190565b6020600491936040519283809263d21220a760e01b82525afa5f9181612046575b50610acc57505f91508190565b61206091925060203d602011611e8b57611e7c818361049c565b905f612039565b61208191925060203d602011611e8b57611e7c818361049c565b905f61200b565b5f91508190565b90503b155f611fe8565b5f91906001600160a01b0381169081158015612175575b8015612158575b610c8e573b15801561213b575b610c34576040519063e6a4390560e01b8252600482015273c02aaa39b223fe8d0a0e5c4f27ead9083c756cc26024820152602081604481735c69bee701ef814a2b6a3edd4b1652cb9cc5aa6f5afa5f91816121215750611f745750565b611f9b91925060203d602011611e8b57611e7c818361049c565b5073c02aaa39b223fe8d0a0e5c4f27ead9083c756cc23b156120c4565b5073c02aaa39b223fe8d0a0e5c4f27ead9083c756cc282146120b7565b505f6120b056fea264697066735822122061c2936da89df3a1db4668d39e093f7640f884a4a98ec285f23589b4edd063a964736f6c634300081e003360808060405234603a575f80546001600160a01b031916736b175474e89094c44da98b954eedeac495271d0f179055610220908161003f8239f35b5f80fdfe60806040526004361015610011575f80fd5b5f3560e01c8063095ea7b31461012057806323b872dd146101645780632e1a7d4d1461011b578063313ce567146101495780636f307dc31461009257806370a0823114610125578063a9059cbb14610120578063b6b55f251461011b578063bdb2321f146100df578063ec1ebd7a146100bd5763fc0c546a14610092575f80fd5b346100b9575f3660031901126100b9575f546040516001600160a01b039091168152602090f35b5f80fd5b346100b9575f3660031901126100b9576020604051670de0b6b3a76400008152f35b346100b95760203660031901126100b9576001600160a01b03610100610192565b166bffffffffffffffffffffffff60a01b5f5416175f555f80f35b6101d7565b6101be565b346100b95760203660031901126100b95761013e610192565b5060206040515f8152f35b346100b9575f3660031901126100b957602060405160128152f35b346100b95760603660031901126100b95761017d610192565b506101866101a8565b50602060405160018152f35b600435906001600160a01b03821682036100b957565b602435906001600160a01b03821682036100b957565b346100b95760403660031901126100b957610186610192565b346100b95760203660031901126100b95700fea26469706673582212208a78bf0a1e1c8a423a01d1d1647bb73e089b7cee99f0b41d9009938fafa804bb64736f6c634300081e0033608080604052346048575f80546001600160a01b0319908116736b175474e89094c44da98b954eedeac495271d0f179091556001805490911633179055610409908161004d8239f35b5f80fdfe60806040526004361015610011575f80fd5b5f3560e01c8063095ea7b3146101135780631b66cb00146101fe57806323b872dd146101d05780632e1a7d4d146101bd578063313ce567146101a2578063327107f7146100a8578063345135891461017a578063616586371461013c57806370a0823114610118578063a9059cbb14610113578063b6b55f25146100f5578063ec1ebd7a146100d35763fc0c546a146100a8575f80fd5b346100cf575f3660031901126100cf575f546040516001600160a01b039091168152602090f35b5f80fd5b346100cf575f3660031901126100cf576020604051670de0b6b3a76400008152f35b346100cf5760203660031901126100cf576101116004356102b5565b005b610266565b346100cf5760203660031901126100cf5761013161023a565b5060206040515f8152f35b346100cf5760203660031901126100cf576001600160a01b0361015d61023a565b166bffffffffffffffffffffffff60a01b60015416176001555f80f35b346100cf575f3660031901126100cf576001546040516001600160a01b039091168152602090f35b346100cf575f3660031901126100cf57602060405160128152f35b346100cf5760203660031901126100cf57005b346100cf5760603660031901126100cf576101e961023a565b506101f2610250565b50602060405160018152f35b346100cf5760203660031901126100cf576001600160a01b0361021f61023a565b166bffffffffffffffffffffffff60a01b5f5416175f555f80f35b600435906001600160a01b03821682036100cf57565b602435906001600160a01b03821682036100cf57565b346100cf5760403660031901126100cf576101f261023a565b90601f8019910116810190811067ffffffffffffffff8211176102a157604052565b634e487b7160e01b5f52604160045260245ffd5b80156103d0575f80546001546040516323b872dd60e01b602082019081523360248301526001600160a01b039283166044830152606480830196909652948152929384939290911691839061030b60848261027f565b51925af13d156103c9573d67ffffffffffffffff81116102a1576040519061033d601f8201601f19166020018361027f565b81523d5f602083013e5b81610391575b501561035557565b60405162461bcd60e51b81526020600482015260146024820152731514905394d1915497d19493d357d1905253115160621b6044820152606490fd5b80518015925082156103a6575b50505f61034d565b81925090602091810103126100cf576020015180151581036100cf575f8061039e565b6060610347565b5056fea26469706673582212206d739923e0209d947635eaeba27c08cd2e62f5a3807ef29dac6fad2bbd8cb4b964736f6c634300081e0033","linkReferences":{}},"methodIdentifiers":{"CDAI()":"878f7603","COMP()":"b71501bc","CRV()":"945c9142","CYFI()":"0c14034d","DAI()":"e0bab4c4","RENBTC()":"d7f269fe","SNX()":"e8d6101e","SUSD()":"15d8eeba","TARGET()":"cc1f2afa","THREECRV()":"f03ae745","UNISWAP_V2_FACTORY()":"99d8fae3","USDC()":"89a30271","USDT()":"c54e44eb","WBTC()":"4dede3de","WETH()":"ad5c4648","executeOnOpportunity()":"3c2448ed","profitAmount()":"5ff972cc","profitToken()":"49343624","uniswapV2Call(address,uint256,uint256,bytes)":"10d1e85c"},"id":0}