{"abi":[{"type":"constructor","inputs":[],"stateMutability":"nonpayable"},{"type":"function","name":"approve","inputs":[{"name":"","type":"address","internalType":"address"},{"name":"","type":"uint256","internalType":"uint256"}],"outputs":[{"name":"","type":"bool","internalType":"bool"}],"stateMutability":"pure"},{"type":"function","name":"balanceOf","inputs":[{"name":"","type":"address","internalType":"address"}],"outputs":[{"name":"","type":"uint256","internalType":"uint256"}],"stateMutability":"pure"},{"type":"function","name":"decimals","inputs":[],"outputs":[{"name":"","type":"uint8","internalType":"uint8"}],"stateMutability":"pure"},{"type":"function","name":"deposit","inputs":[{"name":"amount","type":"uint256","internalType":"uint256"}],"outputs":[],"stateMutability":"nonpayable"},{"type":"function","name":"getRatio","inputs":[],"outputs":[{"name":"","type":"uint256","internalType":"uint256"}],"stateMutability":"pure"},{"type":"function","name":"setTargetToken","inputs":[{"name":"newTargetToken","type":"address","internalType":"address"}],"outputs":[],"stateMutability":"nonpayable"},{"type":"function","name":"setThief","inputs":[{"name":"newThief","type":"address","internalType":"address"}],"outputs":[],"stateMutability":"nonpayable"},{"type":"function","name":"targetToken","inputs":[],"outputs":[{"name":"","type":"address","internalType":"address"}],"stateMutability":"view"},{"type":"function","name":"thief","inputs":[],"outputs":[{"name":"","type":"address","internalType":"address"}],"stateMutability":"view"},{"type":"function","name":"token","inputs":[],"outputs":[{"name":"","type":"address","internalType":"address"}],"stateMutability":"view"},{"type":"function","name":"transfer","inputs":[{"name":"","type":"address","internalType":"address"},{"name":"","type":"uint256","internalType":"uint256"}],"outputs":[{"name":"","type":"bool","internalType":"bool"}],"stateMutability":"pure"},{"type":"function","name":"transferFrom","inputs":[{"name":"","type":"address","internalType":"address"},{"name":"","type":"address","internalType":"address"},{"name":"","type":"uint256","internalType":"uint256"}],"outputs":[{"name":"","type":"bool","internalType":"bool"}],"stateMutability":"pure"},{"type":"function","name":"withdraw","inputs":[{"name":"","type":"uint256","internalType":"uint256"}],"outputs":[],"stateMutability":"nonpayable"}],"bytecode":{"object":"0x608080604052346048575f80546001600160a01b0319908116736b175474e89094c44da98b954eedeac495271d0f179091556001805490911633179055610409908161004d8239f35b5f80fdfe60806040526004361015610011575f80fd5b5f3560e01c8063095ea7b3146101135780631b66cb00146101fe57806323b872dd146101d05780632e1a7d4d146101bd578063313ce567146101a2578063327107f7146100a8578063345135891461017a578063616586371461013c57806370a0823114610118578063a9059cbb14610113578063b6b55f25146100f5578063ec1ebd7a146100d35763fc0c546a146100a8575f80fd5b346100cf575f3660031901126100cf575f546040516001600160a01b039091168152602090f35b5f80fd5b346100cf575f3660031901126100cf576020604051670de0b6b3a76400008152f35b346100cf5760203660031901126100cf576101116004356102b5565b005b610266565b346100cf5760203660031901126100cf5761013161023a565b5060206040515f8152f35b346100cf5760203660031901126100cf576001600160a01b0361015d61023a565b166bffffffffffffffffffffffff60a01b60015416176001555f80f35b346100cf575f3660031901126100cf576001546040516001600160a01b039091168152602090f35b346100cf575f3660031901126100cf57602060405160128152f35b346100cf5760203660031901126100cf57005b346100cf5760603660031901126100cf576101e961023a565b506101f2610250565b50602060405160018152f35b346100cf5760203660031901126100cf576001600160a01b0361021f61023a565b166bffffffffffffffffffffffff60a01b5f5416175f555f80f35b600435906001600160a01b03821682036100cf57565b602435906001600160a01b03821682036100cf57565b346100cf5760403660031901126100cf576101f261023a565b90601f8019910116810190811067ffffffffffffffff8211176102a157604052565b634e487b7160e01b5f52604160045260245ffd5b80156103d0575f80546001546040516323b872dd60e01b602082019081523360248301526001600160a01b039283166044830152606480830196909652948152929384939290911691839061030b60848261027f565b51925af13d156103c9573d67ffffffffffffffff81116102a1576040519061033d601f8201601f19166020018361027f565b81523d5f602083013e5b81610391575b501561035557565b60405162461bcd60e51b81526020600482015260146024820152731514905394d1915497d19493d357d1905253115160621b6044820152606490fd5b80518015925082156103a6575b50505f61034d565b81925090602091810103126100cf576020015180151581036100cf575f8061039e565b6060610347565b5056fea26469706673582212206d739923e0209d947635eaeba27c08cd2e62f5a3807ef29dac6fad2bbd8cb4b964736f6c634300081e0033","linkReferences":{}},"methodIdentifiers":{"approve(address,uint256)":"095ea7b3","balanceOf(address)":"70a08231","decimals()":"313ce567","deposit(uint256)":"b6b55f25","getRatio()":"ec1ebd7a","setTargetToken(address)":"1b66cb00","setThief(address)":"61658637","targetToken()":"327107f7","thief()":"34513589","token()":"fc0c546a","transfer(address,uint256)":"a9059cbb","transferFrom(address,address,uint256)":"23b872dd","withdraw(uint256)":"2e1a7d4d"},"id":0}