{"abi":[{"type":"constructor","inputs":[],"stateMutability":"nonpayable"},{"type":"receive","stateMutability":"payable"},{"type":"function","name":"executeOnOpportunity","inputs":[],"outputs":[],"stateMutability":"nonpayable"},{"type":"function","name":"exploitPath","inputs":[],"outputs":[{"name":"","type":"string","internalType":"string"}],"stateMutability":"pure"},{"type":"function","name":"failureReason","inputs":[],"outputs":[{"name":"","type":"string","internalType":"string"}],"stateMutability":"view"},{"type":"function","name":"hypothesisValidated","inputs":[],"outputs":[{"name":"","type":"bool","internalType":"bool"}],"stateMutability":"view"},{"type":"function","name":"profitAchieved","inputs":[],"outputs":[{"name":"","type":"bool","internalType":"bool"}],"stateMutability":"view"},{"type":"function","name":"profitAmount","inputs":[],"outputs":[{"name":"","type":"uint256","internalType":"uint256"}],"stateMutability":"view"},{"type":"function","name":"profitToken","inputs":[],"outputs":[{"name":"","type":"address","internalType":"address"}],"stateMutability":"pure"}],"bytecode":{"object":"0x6080604052348015600e575f5ffd5b50612eb18061001c5f395ff3fe608060405260043610610073575f3560e01c80634f9522a41161004d5780634f9522a4146100e85780635ff972cc14610112578063cb707c621461013c578063f0a01176146101665761007a565b80633c2448ed1461007e578063463defd11461009457806349343624146100be5761007a565b3661007a57005b5f5ffd5b348015610089575f5ffd5b50610092610190565b005b34801561009f575f5ffd5b506100a86105c4565b6040516100b59190611ad6565b60405180910390f35b3480156100c9575f5ffd5b506100d26105d8565b6040516100df9190611b2e565b60405180910390f35b3480156100f3575f5ffd5b506100fc6105f3565b6040516101099190611bb7565b60405180910390f35b34801561011d575f5ffd5b50610126610683565b6040516101339190611bef565b60405180910390f35b348015610147575f5ffd5b5061015061068b565b60405161015d9190611bb7565b60405180910390f35b348015610171575f5ffd5b5061017a6106b0565b6040516101879190611ad6565b60405180910390f35b6101986106c5565b5f736b175474e89094c44da98b954eedeac495271d0f73ffffffffffffffffffffffffffffffffffffffff166370a0823173f39fd6e51aad88f6f4ce6ab8827279cfffb922666040518263ffffffff1660e01b81526004016101fa9190611b2e565b602060405180830381865afa158015610215573d5f5f3e3d5ffd5b505050506040513d601f19601f820116820180604052508101906102399190611c36565b90505f6002600161024a9190611ca9565b6fffffffffffffffffffffffffffffffff168210156102935781600260016102729190611ca9565b6fffffffffffffffffffffffffffffffff1661028e9190611ce5565b610295565b5f5b90506102a08161071d565b6102e9575f600280546102b290611d45565b9050036102e2576040518060600160405280603f8152602001612c8f603f9139600290816102e09190611f42565b505b50506105c2565b5f81141580156102ff57506102fd8161096f565b155b1561033357604051806060016040528060378152602001612d74603791396002908161032b9190611f42565b5050506105c2565b61033b6109aa565b610384575f6002805461034d90611d45565b90500361037d57604051806060016040528060368152602001612dde603691396002908161037b9190611f42565b505b50506105c2565b5f61038d610ed0565b90505f6103986110c5565b90505f73f3f84ce038442ae4c4dcb6a8ca8bacd7f28c9bde73ffffffffffffffffffffffffffffffffffffffff1663992cc7cb8484670de0b6b3a76400006040518463ffffffff1660e01b81526004016103f4939291906121fb565b5f604051808303815f87803b15801561040b575f5ffd5b505af192505050801561041c575060015b61044d57604051806060016040528060288152602001612c1860289139600290816104479190611f42565b50610452565b600190505b5f81156105115773f3f84ce038442ae4c4dcb6a8ca8bacd7f28c9bde73ffffffffffffffffffffffffffffffffffffffff1663992cc7cb8585670de0b6b3a76400006040518463ffffffff1660e01b81526004016104b2939291906121fb565b5f604051808303815f87803b1580156104c9575f5ffd5b505af19250505080156104da575060015b61050b57604051806060016040528060228152602001612c6d60229139600290816105059190611f42565b50610510565b600190505b5b81801561051b5750805b6001806101000a81548160ff0219169083151502179055505f5f9050821561055f5760016fffffffffffffffffffffffffffffffff168161055c919061223a565b90505b81156105875760016fffffffffffffffffffffffffffffffff1681610584919061223a565b90505b858111156105ba576001805f6101000a81548160ff02191690831515021790555085816105b49190611ce5565b5f819055505b505050505050505b565b5f60018054906101000a900460ff16905090565b5f736b175474e89094c44da98b954eedeac495271d0f905090565b60606002805461060290611d45565b80601f016020809104026020016040519081016040528092919081815260200182805461062e90611d45565b80156106795780601f1061065057610100808354040283529160200191610679565b820191905f5260205f20905b81548152906001019060200180831161065c57829003601f168201915b5050505050905090565b5f5f54905090565b606060405160200161069c906125fb565b604051602081830303815290604052905090565b5f60015f9054906101000a900460ff16905090565b5f5f819055505f60015f6101000a81548160ff0219169083151502179055505f6001806101000a81548160ff02191690831515021790555060405180602001604052805f8152506002908161071a9190611f42565b50565b5f5f820361072e576001905061096a565b5f4790505f810361076a57604051806060016040528060318152602001612e1460319139600290816107609190611f42565b505f91505061096a565b5f610774826110e5565b90505f73ffffffffffffffffffffffffffffffffffffffff168173ffffffffffffffffffffffffffffffffffffffff16036107f8576040518060400160405280601e81526020017f4e6f20766961626c6520574554482f44414920706f6f6c20666f756e642e0000815250600290816107ed9190611f42565b505f9250505061096a565b73c02aaa39b223fe8d0a0e5c4f27ead9083c756cc273ffffffffffffffffffffffffffffffffffffffff1663d0e30db0836040518263ffffffff1660e01b81526004015f604051808303818588803b158015610852575f5ffd5b505af1158015610864573d5f5f3e3d5ffd5b505050505061089e8173c02aaa39b223fe8d0a0e5c4f27ead9083c756cc2736b175474e89094c44da98b954eedeac495271d0f85306111db565b83736b175474e89094c44da98b954eedeac495271d0f73ffffffffffffffffffffffffffffffffffffffff166370a08231306040518263ffffffff1660e01b81526004016108ec9190611b2e565b602060405180830381865afa158015610907573d5f5f3e3d5ffd5b505050506040513d601f19601f8201168201806040525081019061092b9190611c36565b101561096357604051806060016040528060388152602001612d3c60389139600290816109589190611f42565b505f9250505061096a565b6001925050505b919050565b5f6109a3736b175474e89094c44da98b954eedeac495271d0f73f39fd6e51aad88f6f4ce6ab8827279cfffb922668461140b565b9050919050565b5f60016fffffffffffffffffffffffffffffffff16736b175474e89094c44da98b954eedeac495271d0f73ffffffffffffffffffffffffffffffffffffffff1663dd62ed3e73f39fd6e51aad88f6f4ce6ab8827279cfffb9226673f3f84ce038442ae4c4dcb6a8ca8bacd7f28c9bde6040518363ffffffff1660e01b8152600401610a36929190612646565b602060405180830381865afa158015610a51573d5f5f3e3d5ffd5b505050506040513d601f19601f82011682018060405250810190610a759190611c36565b10610a835760019050610ecd565b5f736b175474e89094c44da98b954eedeac495271d0f73ffffffffffffffffffffffffffffffffffffffff16637ecebe0073f39fd6e51aad88f6f4ce6ab8827279cfffb922666040518263ffffffff1660e01b8152600401610ae59190611b2e565b602060405180830381865afa158015610b00573d5f5f3e3d5ffd5b505050506040513d601f19601f82011682018060405250810190610b249190611c36565b90505f8103610c5c57736b175474e89094c44da98b954eedeac495271d0f73ffffffffffffffffffffffffffffffffffffffff16638fcbaf0c73f39fd6e51aad88f6f4ce6ab8827279cfffb9226673f3f84ce038442ae4c4dcb6a8ca8bacd7f28c9bde5f63967a76006001601b7fe58f297d02bae6d2bb96782e1c0c6a1df168b77ddecc4c118da93e8d7b9a3f585f1b7f371419ad79aeb0ebb80841010f7938843ed9ff64480eaa823f1ab8a62f76a11e5f1b6040518963ffffffff1660e01b8152600401610bfa9897969594939291906126d9565b5f604051808303815f87803b158015610c11575f5ffd5b505af1925050508015610c22575060015b610c57576040518060600160405280602d8152602001612d0f602d913960029081610c4d9190611f42565b505f915050610ecd565b610dc6565b60038103610d9457736b175474e89094c44da98b954eedeac495271d0f73ffffffffffffffffffffffffffffffffffffffff16638fcbaf0c73f39fd6e51aad88f6f4ce6ab8827279cfffb9226673f3f84ce038442ae4c4dcb6a8ca8bacd7f28c9bde600363967a76006001601b7fbac1650de238632e1af90edeac61a176464a1d6f0c8154f3456f8a4635ad8cd75f1b7f69483608a02858ca8e9337dbaa573e9720e72c734d2d5c621d193a6e128bf6805f1b6040518963ffffffff1660e01b8152600401610d3298979695949392919061278e565b5f604051808303815f87803b158015610d49575f5ffd5b505af1925050508015610d5a575060015b610d8f576040518060600160405280602d8152602001612c40602d913960029081610d859190611f42565b505f915050610ecd565b610dc5565b604051806060016040528060338152602001612dab6033913960029081610dbb9190611f42565b505f915050610ecd565b5b60016fffffffffffffffffffffffffffffffff16736b175474e89094c44da98b954eedeac495271d0f73ffffffffffffffffffffffffffffffffffffffff1663dd62ed3e73f39fd6e51aad88f6f4ce6ab8827279cfffb9226673f3f84ce038442ae4c4dcb6a8ca8bacd7f28c9bde6040518363ffffffff1660e01b8152600401610e51929190612646565b602060405180830381865afa158015610e6c573d5f5f3e3d5ffd5b505050506040513d601f19601f82011682018060405250810190610e909190611c36565b1015610ec757604051806060016040528060378152602001612e456037913960029081610ebd9190611f42565b505f915050610ecd565b60019150505b90565b610ed8611927565b73f39fd6e51aad88f6f4ce6ab8827279cfffb92266815f019073ffffffffffffffffffffffffffffffffffffffff16908173ffffffffffffffffffffffffffffffffffffffff16815250505f816020019073ffffffffffffffffffffffffffffffffffffffff16908173ffffffffffffffffffffffffffffffffffffffff168152505063967a7600816040019065ffffffffffff16908165ffffffffffff1681525050736b175474e89094c44da98b954eedeac495271d0f816060019073ffffffffffffffffffffffffffffffffffffffff16908173ffffffffffffffffffffffffffffffffffffffff1681525050600181608001906fffffffffffffffffffffffffffffffff1690816fffffffffffffffffffffffffffffffff16815250505f8160c001906fffffffffffffffffffffffffffffffff1690816fffffffffffffffffffffffffffffffff16815250505f8160e0019073ffffffffffffffffffffffffffffffffffffffff16908173ffffffffffffffffffffffffffffffffffffffff16815250505f8161010001906fffffffffffffffffffffffffffffffff1690816fffffffffffffffffffffffffffffffff16815250505f8161014001906fffffffffffffffffffffffffffffffff1690816fffffffffffffffffffffffffffffffff168152505090565b6060604051806080016040528060418152602001612cce60419139905090565b5f5f61112f73a478c2975ab1ea89e8196811f51a7b7ade33eb1173c02aaa39b223fe8d0a0e5c4f27ead9083c756cc2736b175474e89094c44da98b954eedeac495271d0f86611520565b90505f61117a73c3d03e4f041fd4cd388c549ee2a29a9e5075882f73c02aaa39b223fe8d0a0e5c4f27ead9083c756cc2736b175474e89094c44da98b954eedeac495271d0f87611520565b90505f8214801561118a57505f81145b15611199575f925050506111d6565b808210156111bb5773c3d03e4f041fd4cd388c549ee2a29a9e5075882f6111d1565b73a478c2975ab1ea89e8196811f51a7b7ade33eb115b925050505b919050565b5f5f6111e8878787611549565b915091505f6111f88584846118ad565b90505f810361123c576040517f08c379a000000000000000000000000000000000000000000000000000000000815260040161123390612854565b60405180910390fd5b61124787898761140b565b611286576040517f08c379a000000000000000000000000000000000000000000000000000000000815260040161127d906128bc565b60405180910390fd5b5f8873ffffffffffffffffffffffffffffffffffffffff16630dfe16816040518163ffffffff1660e01b8152600401602060405180830381865afa1580156112d0573d5f5f3e3d5ffd5b505050506040513d601f19601f820116820180604052508101906112f49190612904565b90505f8773ffffffffffffffffffffffffffffffffffffffff168273ffffffffffffffffffffffffffffffffffffffff1614611330575f611332565b825b90505f5f8214611342575f611344565b835b90508a73ffffffffffffffffffffffffffffffffffffffff1663022c0d9f83838a5f67ffffffffffffffff81111561137f5761137e611d75565b5b6040519080825280601f01601f1916602001820160405280156113b15781602001600182028036833780820191505090505b506040518563ffffffff1660e01b81526004016113d1949392919061292f565b5f604051808303815f87803b1580156113e8575f5ffd5b505af11580156113fa573d5f5f3e3d5ffd5b505050505050505050505050505050565b5f5f5f8573ffffffffffffffffffffffffffffffffffffffff1663a9059cbb60e01b8686604051602401611440929190612979565b604051602081830303815290604052907bffffffffffffffffffffffffffffffffffffffffffffffffffffffff19166020820180517bffffffffffffffffffffffffffffffffffffffffffffffffffffffff83818316178352505050506040516114aa91906129da565b5f604051808303815f865af19150503d805f81146114e3576040519150601f19603f3d011682016040523d82523d5f602084013e6114e8565b606091505b509150915081801561151557505f815114806115145750808060200190518101906115139190612a1a565b5b5b925050509392505050565b5f5f5f61152e878787611549565b9150915061153d8483836118ad565b92505050949350505050565b5f5f5f5f8673ffffffffffffffffffffffffffffffffffffffff16630902f1ac6040518163ffffffff1660e01b8152600401606060405180830381865afa158015611596573d5f5f3e3d5ffd5b505050506040513d601f19601f820116820180604052508101906115ba9190612ac1565b50915091505f8773ffffffffffffffffffffffffffffffffffffffff16630dfe16816040518163ffffffff1660e01b8152600401602060405180830381865afa158015611609573d5f5f3e3d5ffd5b505050506040513d601f19601f8201168201806040525081019061162d9190612904565b90508673ffffffffffffffffffffffffffffffffffffffff168173ffffffffffffffffffffffffffffffffffffffff160361176a578573ffffffffffffffffffffffffffffffffffffffff168873ffffffffffffffffffffffffffffffffffffffff1663d21220a76040518163ffffffff1660e01b8152600401602060405180830381865afa1580156116c2573d5f5f3e3d5ffd5b505050506040513d601f19601f820116820180604052508101906116e69190612904565b73ffffffffffffffffffffffffffffffffffffffff161461173c576040517f08c379a000000000000000000000000000000000000000000000000000000000815260040161173390612b5b565b60405180910390fd5b826dffffffffffffffffffffffffffff16826dffffffffffffffffffffffffffff16945094505050506118a5565b8573ffffffffffffffffffffffffffffffffffffffff168173ffffffffffffffffffffffffffffffffffffffff1614801561183c57508673ffffffffffffffffffffffffffffffffffffffff168873ffffffffffffffffffffffffffffffffffffffff1663d21220a76040518163ffffffff1660e01b8152600401602060405180830381865afa158015611800573d5f5f3e3d5ffd5b505050506040513d601f19601f820116820180604052508101906118249190612904565b73ffffffffffffffffffffffffffffffffffffffff16145b61187b576040517f08c379a000000000000000000000000000000000000000000000000000000000815260040161187290612b5b565b60405180910390fd5b816dffffffffffffffffffffffffffff16836dffffffffffffffffffffffffffff16945094505050505b935093915050565b5f5f8414806118bb57505f83145b806118c557505f82145b156118d2575f9050611920565b5f6103e5856118e19190612b79565b90505f83826118f09190612b79565b90505f826103e8876119029190612b79565b61190c919061223a565b9050808261191a9190612be7565b93505050505b9392505050565b6040518061016001604052805f73ffffffffffffffffffffffffffffffffffffffff1681526020015f73ffffffffffffffffffffffffffffffffffffffff1681526020015f65ffffffffffff1681526020015f73ffffffffffffffffffffffffffffffffffffffff1681526020015f6fffffffffffffffffffffffffffffffff1681526020016119b5611a2c565b81526020015f6fffffffffffffffffffffffffffffffff1681526020015f73ffffffffffffffffffffffffffffffffffffffff1681526020015f6fffffffffffffffffffffffffffffffff168152602001611a0e611a2c565b81526020015f6fffffffffffffffffffffffffffffffff1681525090565b6040518060c001604052805f6fffffffffffffffffffffffffffffffff1681526020015f6fffffffffffffffffffffffffffffffff1681526020015f73ffffffffffffffffffffffffffffffffffffffff1681526020015f65ffffffffffff1681526020015f65ffffffffffff1681526020015f73ffffffffffffffffffffffffffffffffffffffff1681525090565b5f8115159050919050565b611ad081611abc565b82525050565b5f602082019050611ae95f830184611ac7565b92915050565b5f73ffffffffffffffffffffffffffffffffffffffff82169050919050565b5f611b1882611aef565b9050919050565b611b2881611b0e565b82525050565b5f602082019050611b415f830184611b1f565b92915050565b5f81519050919050565b5f82825260208201905092915050565b8281835e5f83830152505050565b5f601f19601f8301169050919050565b5f611b8982611b47565b611b938185611b51565b9350611ba3818560208601611b61565b611bac81611b6f565b840191505092915050565b5f6020820190508181035f830152611bcf8184611b7f565b905092915050565b5f819050919050565b611be981611bd7565b82525050565b5f602082019050611c025f830184611be0565b92915050565b5f5ffd5b611c1581611bd7565b8114611c1f575f5ffd5b50565b5f81519050611c3081611c0c565b92915050565b5f60208284031215611c4b57611c4a611c08565b5b5f611c5884828501611c22565b91505092915050565b5f6fffffffffffffffffffffffffffffffff82169050919050565b7f4e487b71000000000000000000000000000000000000000000000000000000005f52601160045260245ffd5b5f611cb382611c61565b9150611cbe83611c61565b9250828202611ccc81611c61565b9150808214611cde57611cdd611c7c565b5b5092915050565b5f611cef82611bd7565b9150611cfa83611bd7565b9250828203905081811115611d1257611d11611c7c565b5b92915050565b7f4e487b71000000000000000000000000000000000000000000000000000000005f52602260045260245ffd5b5f6002820490506001821680611d5c57607f821691505b602082108103611d6f57611d6e611d18565b5b50919050565b7f4e487b71000000000000000000000000000000000000000000000000000000005f52604160045260245ffd5b5f819050815f5260205f209050919050565b5f6020601f8301049050919050565b5f82821b905092915050565b5f60088302611dfe7fffffffffffffffffffffffffffffffffffffffffffffffffffffffffffffffff82611dc3565b611e088683611dc3565b95508019841693508086168417925050509392505050565b5f819050919050565b5f611e43611e3e611e3984611bd7565b611e20565b611bd7565b9050919050565b5f819050919050565b611e5c83611e29565b611e70611e6882611e4a565b848454611dcf565b825550505050565b5f5f905090565b611e87611e78565b611e92818484611e53565b505050565b5b81811015611eb557611eaa5f82611e7f565b600181019050611e98565b5050565b601f821115611efa57611ecb81611da2565b611ed484611db4565b81016020851015611ee3578190505b611ef7611eef85611db4565b830182611e97565b50505b505050565b5f82821c905092915050565b5f611f1a5f1984600802611eff565b1980831691505092915050565b5f611f328383611f0b565b9150826002028217905092915050565b611f4b82611b47565b67ffffffffffffffff811115611f6457611f63611d75565b5b611f6e8254611d45565b611f79828285611eb9565b5f60209050601f831160018114611faa575f8415611f98578287015190505b611fa28582611f27565b865550612009565b601f198416611fb886611da2565b5f5b82811015611fdf57848901518255600182019150602085019450602081019050611fba565b86831015611ffc5784890151611ff8601f891682611f0b565b8355505b6001600288020188555050505b505050505050565b61201a81611b0e565b82525050565b5f65ffffffffffff82169050919050565b61203a81612020565b82525050565b61204981611c61565b82525050565b60c082015f8201516120635f850182612040565b5060208201516120766020850182612040565b5060408201516120896040850182612011565b50606082015161209c6060850182612031565b5060808201516120af6080850182612031565b5060a08201516120c260a0850182612011565b50505050565b6102a082015f8201516120dd5f850182612011565b5060208201516120f06020850182612011565b5060408201516121036040850182612031565b5060608201516121166060850182612011565b5060808201516121296080850182612040565b5060a082015161213c60a085018261204f565b5060c0820151612150610160850182612040565b5060e0820151612164610180850182612011565b506101008201516121796101a0850182612040565b5061012082015161218e6101c085018261204f565b506101408201516121a3610280850182612040565b50505050565b5f81519050919050565b5f82825260208201905092915050565b5f6121cd826121a9565b6121d781856121b3565b93506121e7818560208601611b61565b6121f081611b6f565b840191505092915050565b5f6102e08201905061220f5f8301866120c8565b8181036102a083015261222281856121c3565b90506122326102c0830184611be0565b949350505050565b5f61224482611bd7565b915061224f83611bd7565b925082820190508082111561226757612266611c7c565b5b92915050565b5f81905092915050565b7f7075626c6963204554482d3e574554482d3e44414920776f726b696e672063615f8201527f706974616c206163717569726573206578697374696e67206f6e2d636861696e60208201527f20444149206e656564656420746f206578656375746520746865206f7264657260408201527f206f6e207468697320666f726b202d3e20000000000000000000000000000000606082015250565b5f61231d60718361226d565b915061232882612277565b607182019050919050565b7f6d616b6572207369676e73206f6e65206f7264657220696e74656e64656420665f8201527f6f7220612073696e676c652066696c6c202d3e20000000000000000000000000602082015250565b5f61238d60348361226d565b915061239882612333565b603482019050919050565b7f74616b65722066696c6c73206f6e636520776974682066696c6c4f72646572285f8201527f6f726465722c7369676e61747572652c3165313829202d3e2000000000000000602082015250565b5f6123fd60398361226d565b9150612408826123a3565b603982019050919050565b7f74617267657420706572666f726d73207472616e736665727320616e64206f6e5f8201527f6c79207468656e207265636f726473207346696c6c65644672616374696f6e5b60208201527f6f72646572486173685d203d2031653138202d3e200000000000000000000000604082015250565b5f61249360558361226d565b915061249e82612413565b605582019050919050565b7f73616d65206f7264657220616e64207369676e617475726520617265207265705f8201527f6c6179656420776974682066696c6c4f72646572286f726465722c7369676e6160208201527f747572652c316531382920616761696e2062656361757365206e6f207072652d60408201527f636865636b207265616473207346696c6c65644672616374696f6e202d3e2000606082015250565b5f61254f607f8361226d565b915061255a826124a9565b607f82019050919050565b7f746865206d616b6572277320757066726f6e7420444149206973207472616e735f8201527f66657272656420616761696e2066726f6d207468652073616d652073696e676c60208201527f6520617574686f72697a6174696f6e0000000000000000000000000000000000604082015250565b5f6125e5604f8361226d565b91506125f082612565565b604f82019050919050565b5f61260582612311565b915061261082612381565b915061261b826123f1565b915061262682612487565b915061263182612543565b915061263c826125d9565b9150819050919050565b5f6040820190506126595f830185611b1f565b6126666020830184611b1f565b9392505050565b5f819050919050565b5f61269061268b6126868461266d565b611e20565b611bd7565b9050919050565b6126a081612676565b82525050565b5f60ff82169050919050565b6126bb816126a6565b82525050565b5f819050919050565b6126d3816126c1565b82525050565b5f610100820190506126ed5f83018b611b1f565b6126fa602083018a611b1f565b6127076040830189612697565b6127146060830188611be0565b6127216080830187611ac7565b61272e60a08301866126b2565b61273b60c08301856126ca565b61274860e08301846126ca565b9998505050505050505050565b5f819050919050565b5f61277861277361276e84612755565b611e20565b611bd7565b9050919050565b6127888161275e565b82525050565b5f610100820190506127a25f83018b611b1f565b6127af602083018a611b1f565b6127bc604083018961277f565b6127c96060830188611be0565b6127d66080830187611ac7565b6127e360a08301866126b2565b6127f060c08301856126ca565b6127fd60e08301846126ca565b9998505050505050505050565b7f7a65726f206f75747075740000000000000000000000000000000000000000005f82015250565b5f61283e600b83611b51565b91506128498261280a565b602082019050919050565b5f6020820190508181035f83015261286b81612832565b9050919050565b7f70616972207472616e73666572206661696c65640000000000000000000000005f82015250565b5f6128a6601483611b51565b91506128b182612872565b602082019050919050565b5f6020820190508181035f8301526128d38161289a565b9050919050565b6128e381611b0e565b81146128ed575f5ffd5b50565b5f815190506128fe816128da565b92915050565b5f6020828403121561291957612918611c08565b5b5f612926848285016128f0565b91505092915050565b5f6080820190506129425f830187611be0565b61294f6020830186611be0565b61295c6040830185611b1f565b818103606083015261296e81846121c3565b905095945050505050565b5f60408201905061298c5f830185611b1f565b6129996020830184611be0565b9392505050565b5f81905092915050565b5f6129b4826121a9565b6129be81856129a0565b93506129ce818560208601611b61565b80840191505092915050565b5f6129e582846129aa565b915081905092915050565b6129f981611abc565b8114612a03575f5ffd5b50565b5f81519050612a14816129f0565b92915050565b5f60208284031215612a2f57612a2e611c08565b5b5f612a3c84828501612a06565b91505092915050565b5f6dffffffffffffffffffffffffffff82169050919050565b612a6781612a45565b8114612a71575f5ffd5b50565b5f81519050612a8281612a5e565b92915050565b5f63ffffffff82169050919050565b612aa081612a88565b8114612aaa575f5ffd5b50565b5f81519050612abb81612a97565b92915050565b5f5f5f60608486031215612ad857612ad7611c08565b5b5f612ae586828701612a74565b9350506020612af686828701612a74565b9250506040612b0786828701612aad565b9150509250925092565b7f62616420706169720000000000000000000000000000000000000000000000005f82015250565b5f612b45600883611b51565b9150612b5082612b11565b602082019050919050565b5f6020820190508181035f830152612b7281612b39565b9050919050565b5f612b8382611bd7565b9150612b8e83611bd7565b9250828202612b9c81611bd7565b91508282048414831517612bb357612bb2611c7c565b5b5092915050565b7f4e487b71000000000000000000000000000000000000000000000000000000005f52601260045260245ffd5b5f612bf182611bd7565b9150612bfc83611bd7565b925082612c0c57612c0b612bba565b5b82820490509291505056fe4669727374207369676e65642066696c6c207265766572746564206f6e207468697320666f726b2e4d616b6572206e6f6e63652d3320444149207065726d6974206661696c6564206f6e207468697320666f726b2e5265706c61792066696c6c207265766572746564206f6e207468697320666f726b2e556e61626c6520746f2061637175697265206f6e2d636861696e204441492066726f6d207468652076657269666965722773204554482062616c616e63652e436c4c994a561774e460277cec21350799508c00cc8a897804965dee701ff362210547eb313c01c25a74c64caa9a9f77694dad6c8863c2b41a9c248e47310f4f1c4d616b6572206e6f6e63652d3020444149207065726d6974206661696c6564206f6e207468697320666f726b2e4554482d3e4441492066756e64696e672070726f647563656420746f6f206c6974746c652044414920666f7220746865207265706c61792e5265706c61792066756e64696e67206661696c6564207768696c652073656564696e6720746865206d616b65722077697468204441492e4d616b657220444149207065726d6974206e6f6e636520697320756e737570706f72746564206f6e207468697320666f726b2e4d616b65722044414920617070726f76616c20636f756c64206e6f7420626520726573746f726564206f6e207468697320666f726b2e566572696669657220686173206e6f2045544820776f726b696e67206361706974616c206f6e207468697320666f726b2e4d616b65722044414920616c6c6f77616e63652072656d61696e656420696e73756666696369656e74206166746572207065726d69742ea2646970667358221220763268e5f7a5cb526cceb58e44f4f82df80cb029da0f16f20deaa3b3acf9533664736f6c634300081e0033","linkReferences":{}},"methodIdentifiers":{"executeOnOpportunity()":"3c2448ed","exploitPath()":"cb707c62","failureReason()":"4f9522a4","hypothesisValidated()":"463defd1","profitAchieved()":"f0a01176","profitAmount()":"5ff972cc","profitToken()":"49343624"},"id":0}