{"abi":[{"type":"constructor","inputs":[],"stateMutability":"nonpayable"},{"type":"receive","stateMutability":"payable"},{"type":"function","name":"executeOnOpportunity","inputs":[],"outputs":[],"stateMutability":"nonpayable"},{"type":"function","name":"profitAmount","inputs":[],"outputs":[{"name":"","type":"uint256","internalType":"uint256"}],"stateMutability":"view"},{"type":"function","name":"profitToken","inputs":[],"outputs":[{"name":"","type":"address","internalType":"address"}],"stateMutability":"view"},{"type":"function","name":"receiveFlashLoan","inputs":[{"name":"tokens","type":"address[]","internalType":"contract IERC20Minimal[]"},{"name":"amounts","type":"uint256[]","internalType":"uint256[]"},{"name":"feeAmounts","type":"uint256[]","internalType":"uint256[]"},{"name":"userData","type":"bytes","internalType":"bytes"}],"outputs":[],"stateMutability":"nonpayable"},{"type":"function","name":"requestFlashLoanAttack","inputs":[{"name":"token","type":"address","internalType":"address"},{"name":"bootstrapAmount","type":"uint256","internalType":"uint256"},{"name":"borrowAmount","type":"uint256","internalType":"uint256"},{"name":"withdrawAmount","type":"uint256","internalType":"uint256"},{"name":"startingBalance","type":"uint256","internalType":"uint256"}],"outputs":[{"name":"","type":"uint256","internalType":"uint256"}],"stateMutability":"nonpayable"},{"type":"function","name":"runDirectAttack","inputs":[{"name":"token","type":"address","internalType":"address"},{"name":"bootstrapAmount","type":"uint256","internalType":"uint256"},{"name":"borrowAmount","type":"uint256","internalType":"uint256"},{"name":"withdrawAmount","type":"uint256","internalType":"uint256"},{"name":"startingBalance","type":"uint256","internalType":"uint256"}],"outputs":[{"name":"","type":"uint256","internalType":"uint256"}],"stateMutability":"nonpayable"},{"type":"error","name":"BorrowPathUnavailable","inputs":[]},{"type":"error","name":"FlashLoanNotFromVault","inputs":[]},{"type":"error","name":"NoProfitableOpportunity","inputs":[]},{"type":"error","name":"PoolPreconditionsNotMet","inputs":[]},{"type":"error","name":"Unauthorized","inputs":[]},{"type":"error","name":"WithdrawPathUnavailable","inputs":[]}],"bytecode":{"object":"0x6080604052348015600e575f5ffd5b506139078061001c5f395ff3fe608060405260043610610058575f3560e01c806304f76795146100635780633412fb5d1461009f5780633c2448ed146100db57806349343624146100f15780635ff972cc1461011b578063f04f2707146101455761005f565b3661005f57005b5f5ffd5b34801561006e575f5ffd5b5061008960048036038101906100849190612a31565b61016d565b6040516100969190612ab7565b60405180910390f35b3480156100aa575f5ffd5b506100c560048036038101906100c09190612a31565b6102ac565b6040516100d29190612ab7565b60405180910390f35b3480156100e6575f5ffd5b506100ef6105c8565b005b3480156100fc575f5ffd5b50610105610675565b6040516101129190612adf565b60405180910390f35b348015610126575f5ffd5b5061012f61069c565b60405161013c9190612ab7565b60405180910390f35b348015610150575f5ffd5b5061016b60048036038101906101669190612df3565b6106a5565b005b5f3073ffffffffffffffffffffffffffffffffffffffff163373ffffffffffffffffffffffffffffffffffffffff16146101d3576040517f82b4290000000000000000000000000000000000000000000000000000000000815260040160405180910390fd5b6101e0868686865f6107ee565b5f8673ffffffffffffffffffffffffffffffffffffffff166370a08231306040518263ffffffff1660e01b815260040161021a9190612adf565b602060405180830381865afa158015610235573d5f5f3e3d5ffd5b505050506040513d601f19601f820116820180604052508101906102599190612edb565b9050828111610294576040517fd7a956e600000000000000000000000000000000000000000000000000000000815260040160405180910390fd5b82816102a09190612f33565b91505095945050505050565b5f3073ffffffffffffffffffffffffffffffffffffffff163373ffffffffffffffffffffffffffffffffffffffff1614610312576040517f82b4290000000000000000000000000000000000000000000000000000000000815260040160405180910390fd5b5f600167ffffffffffffffff81111561032e5761032d612b0c565b5b60405190808252806020026020018201604052801561035c5781602001602082028036833780820191505090505b5090505f600167ffffffffffffffff81111561037b5761037a612b0c565b5b6040519080825280602002602001820160405280156103a95781602001602082028036833780820191505090505b50905087825f815181106103c0576103bf612f66565b5b602002602001019073ffffffffffffffffffffffffffffffffffffffff16908173ffffffffffffffffffffffffffffffffffffffff168152505086815f8151811061040e5761040d612f66565b5b6020026020010181815250505f6040518060a001604052808a73ffffffffffffffffffffffffffffffffffffffff168152602001898152602001888152602001878152602001868152506040516020016104689190613017565b604051602081830303815290604052905073ba12222222228d8ba445958a75a0704d566bf2c873ffffffffffffffffffffffffffffffffffffffff16635c38449e308585856040518563ffffffff1660e01b81526004016104cc949392919061325b565b5f604051808303815f87803b1580156104e3575f5ffd5b505af11580156104f5573d5f5f3e3d5ffd5b505050505f8973ffffffffffffffffffffffffffffffffffffffff166370a08231306040518263ffffffff1660e01b81526004016105339190612adf565b602060405180830381865afa15801561054e573d5f5f3e3d5ffd5b505050506040513d601f19601f820116820180604052508101906105729190612edb565b90508581116105ad576040517fd7a956e600000000000000000000000000000000000000000000000000000000815260040160405180910390fd5b85816105b99190612f33565b94505050505095945050505050565b5f5f5f6101000a81548173ffffffffffffffffffffffffffffffffffffffff021916908373ffffffffffffffffffffffffffffffffffffffff1602179055505f6001819055505f610617610d91565b9050610622816113a3565b1561062d5750610673565b610636816115b6565b156106415750610673565b6040517fd7a956e600000000000000000000000000000000000000000000000000000000815260040160405180910390fd5b565b5f5f5f9054906101000a900473ffffffffffffffffffffffffffffffffffffffff16905090565b5f600154905090565b73ba12222222228d8ba445958a75a0704d566bf2c873ffffffffffffffffffffffffffffffffffffffff163373ffffffffffffffffffffffffffffffffffffffff161461071e576040517f561a091200000000000000000000000000000000000000000000000000000000815260040160405180910390fd5b5f818060200190518101906107339190613354565b9050610786815f01518260200151836040015184606001516001885f815181106107605761075f612f66565b5b60200260200101518760200151610777919061337f565b610781919061337f565b6107ee565b6107e7815f015173ba12222222228d8ba445958a75a0704d566bf2c8855f815181106107b5576107b4612f66565b5b6020026020010151875f815181106107d0576107cf612f66565b5b60200260200101516107e2919061337f565b6117c8565b5050505050565b6107f88584611917565b158061080b575061080985836119b0565b155b15610842576040517f44fd294400000000000000000000000000000000000000000000000000000000815260040160405180910390fd5b610881857384524baa1951247b3a2617a843e6ece915bb96747fffffffffffffffffffffffffffffffffffffffffffffffffffffffffffffffff611a49565b5f61088a611dfa565b90507384524baa1951247b3a2617a843e6ece915bb967473ffffffffffffffffffffffffffffffffffffffff1663d30f62928288886040518463ffffffff1660e01b81526004016108dd939291906133b2565b6020604051808303815f875af11580156108f9573d5f5f3e3d5ffd5b505050506040513d601f19601f8201168201806040525081019061091d9190612edb565b507384524baa1951247b3a2617a843e6ece915bb967473ffffffffffffffffffffffffffffffffffffffff1663f26f1ea682886040518363ffffffff1660e01b815260040161096d9291906133e7565b5f604051808303815f87803b158015610984575f5ffd5b505af1925050508015610995575060015b505f5f5f5f90505b610400811015610af957867384524baa1951247b3a2617a843e6ece915bb967473ffffffffffffffffffffffffffffffffffffffff16632ab88d1c8b6040518263ffffffff1660e01b81526004016109f59190612adf565b602060405180830381865afa158015610a10573d5f5f3e3d5ffd5b505050506040513d601f19601f82011682018060405250810190610a349190612edb565b10610af957610a438988611917565b15610af957610a53848a89611f58565b15610af9577384524baa1951247b3a2617a843e6ece915bb967473ffffffffffffffffffffffffffffffffffffffff1663c7c5c4a7858b8a6040518463ffffffff1660e01b8152600401610aa9939291906133b2565b6020604051808303815f875af1158015610ac5573d5f5f3e3d5ffd5b505050506040513d601f19601f82011682018060405250810190610ae99190612edb565b506001925080600101905061099d565b5081610b31576040517f5302aa3d00000000000000000000000000000000000000000000000000000000815260040160405180910390fd5b5f5f90505b610400811015610c9257857384524baa1951247b3a2617a843e6ece915bb967473ffffffffffffffffffffffffffffffffffffffff16632ab88d1c8b6040518263ffffffff1660e01b8152600401610b8e9190612adf565b602060405180830381865afa158015610ba9573d5f5f3e3d5ffd5b505050506040513d601f19601f82011682018060405250810190610bcd9190612edb565b10610c9257610bdc89876119b0565b15610c9257610bec848a88612057565b15610c92577384524baa1951247b3a2617a843e6ece915bb967473ffffffffffffffffffffffffffffffffffffffff166377cfd4a5858b896040518463ffffffff1660e01b8152600401610c42939291906133b2565b6020604051808303815f875af1158015610c5e573d5f5f3e3d5ffd5b505050506040513d601f19601f82011682018060405250810190610c829190612edb565b5060019150806001019050610b36565b5080610cca576040517fdc6ee71800000000000000000000000000000000000000000000000000000000815260040160405180910390fd5b5f8414158015610d505750838873ffffffffffffffffffffffffffffffffffffffff166370a08231306040518263ffffffff1660e01b8152600401610d0f9190612adf565b602060405180830381865afa158015610d2a573d5f5f3e3d5ffd5b505050506040513d601f19601f82011682018060405250810190610d4e9190612edb565b105b15610d87576040517fd7a956e600000000000000000000000000000000000000000000000000000000815260040160405180910390fd5b5050505050505050565b6060600e67ffffffffffffffff811115610dae57610dad612b0c565b5b604051908082528060200260200182016040528015610ddc5781602001602082028036833780820191505090505b5090507384524baa1951247b3a2617a843e6ece915bb967473ffffffffffffffffffffffffffffffffffffffff1663040141e56040518163ffffffff1660e01b8152600401602060405180830381865afa158015610e3c573d5f5f3e3d5ffd5b505050506040513d601f19601f82011682018060405250810190610e60919061340e565b815f81518110610e7357610e72612f66565b5b602002602001019073ffffffffffffffffffffffffffffffffffffffff16908173ffffffffffffffffffffffffffffffffffffffff168152505073a0b86991c6218b36c1d19d4a2e9eb0ce3606eb4881600181518110610ed657610ed5612f66565b5b602002602001019073ffffffffffffffffffffffffffffffffffffffff16908173ffffffffffffffffffffffffffffffffffffffff168152505073dac17f958d2ee523a2206206994597c13d831ec781600281518110610f3957610f38612f66565b5b602002602001019073ffffffffffffffffffffffffffffffffffffffff16908173ffffffffffffffffffffffffffffffffffffffff1681525050736b175474e89094c44da98b954eedeac495271d0f81600381518110610f9c57610f9b612f66565b5b602002602001019073ffffffffffffffffffffffffffffffffffffffff16908173ffffffffffffffffffffffffffffffffffffffff1681525050732260fac5e5542a773aa44fbcfedf7c193bc2c59981600481518110610fff57610ffe612f66565b5b602002602001019073ffffffffffffffffffffffffffffffffffffffff16908173ffffffffffffffffffffffffffffffffffffffff168152505073ae7ab96520de3a18e5e111b5eaab095312d7fe848160058151811061106257611061612f66565b5b602002602001019073ffffffffffffffffffffffffffffffffffffffff16908173ffffffffffffffffffffffffffffffffffffffff1681525050737f39c581f595b53c5cb5b5f0dda6c935e2ca0a0b816006815181106110c5576110c4612f66565b5b602002602001019073ffffffffffffffffffffffffffffffffffffffff16908173ffffffffffffffffffffffffffffffffffffffff168152505073be9895146f7af43049ca1c1ae358b0541ea497048160078151811061112857611127612f66565b5b602002602001019073ffffffffffffffffffffffffffffffffffffffff16908173ffffffffffffffffffffffffffffffffffffffff168152505073ae78736cd615f374d3085123a210448e74fc63938160088151811061118b5761118a612f66565b5b602002602001019073ffffffffffffffffffffffffffffffffffffffff16908173ffffffffffffffffffffffffffffffffffffffff1681525050735f98805a4e8be255a32880fdec7f6728c6568ba0816009815181106111ee576111ed612f66565b5b602002602001019073ffffffffffffffffffffffffffffffffffffffff16908173ffffffffffffffffffffffffffffffffffffffff168152505073853d955acef822db058eb8505911ed77f175b99e81600a8151811061125157611250612f66565b5b602002602001019073ffffffffffffffffffffffffffffffffffffffff16908173ffffffffffffffffffffffffffffffffffffffff16815250505f81600b815181106112a05761129f612f66565b5b602002602001019073ffffffffffffffffffffffffffffffffffffffff16908173ffffffffffffffffffffffffffffffffffffffff16815250507357ab1ec28d129707052df4df418d58a2d46d5f5181600c8151811061130357611302612f66565b5b602002602001019073ffffffffffffffffffffffffffffffffffffffff16908173ffffffffffffffffffffffffffffffffffffffff168152505073f939e0a03fb07f59a73314e73794be0e57ac1b4e81600d8151811061136657611365612f66565b5b602002602001019073ffffffffffffffffffffffffffffffffffffffff16908173ffffffffffffffffffffffffffffffffffffffff168152505090565b5f5f6113b0836001612156565b90505f5f5f90505b60048110156115ab575f8382600481106113d5576113d4612f66565b5b602002015190505f73ffffffffffffffffffffffffffffffffffffffff16815f015173ffffffffffffffffffffffffffffffffffffffff16148061141c57505f8160800151145b1561142757506115a0565b5f815f015173ffffffffffffffffffffffffffffffffffffffff166370a08231306040518263ffffffff1660e01b81526004016114649190612adf565b602060405180830381865afa15801561147f573d5f5f3e3d5ffd5b505050506040513d601f19601f820116820180604052508101906114a39190612edb565b90503073ffffffffffffffffffffffffffffffffffffffff166304f76795835f0151846020015185604001518660600151866040518663ffffffff1660e01b81526004016114f5959493929190613439565b6020604051808303815f875af192505050801561153057506040513d601f19601f8201168201806040525081019061152d9190612edb565b60015b61153b5750506115a0565b60015481111561158f57825f01515f5f6101000a81548173ffffffffffffffffffffffffffffffffffffffff021916908373ffffffffffffffffffffffffffffffffffffffff160217905550806001819055505b848061159a57505f81115b94505050505b8060010190506113b8565b508092505050919050565b5f5f6115c2835f612156565b90505f5f5f90505b60048110156117bd575f8382600481106115e7576115e6612f66565b5b602002015190505f73ffffffffffffffffffffffffffffffffffffffff16815f015173ffffffffffffffffffffffffffffffffffffffff16148061162e57505f8160800151145b1561163957506117b2565b5f815f015173ffffffffffffffffffffffffffffffffffffffff166370a08231306040518263ffffffff1660e01b81526004016116769190612adf565b602060405180830381865afa158015611691573d5f5f3e3d5ffd5b505050506040513d601f19601f820116820180604052508101906116b59190612edb565b90503073ffffffffffffffffffffffffffffffffffffffff16633412fb5d835f0151846020015185604001518660600151866040518663ffffffff1660e01b8152600401611707959493929190613439565b6020604051808303815f875af192505050801561174257506040513d601f19601f8201168201806040525081019061173f9190612edb565b60015b61174d5750506117b2565b6001548111156117a157825f01515f5f6101000a81548173ffffffffffffffffffffffffffffffffffffffff021916908373ffffffffffffffffffffffffffffffffffffffff160217905550806001819055505b84806117ac57505f81115b94505050505b8060010190506115ca565b508092505050919050565b5f5f8473ffffffffffffffffffffffffffffffffffffffff1663a9059cbb60e01b85856040516024016117fc92919061348a565b604051602081830303815290604052907bffffffffffffffffffffffffffffffffffffffffffffffffffffffff19166020820180517bffffffffffffffffffffffffffffffffffffffffffffffffffffffff838183161783525050505060405161186691906134eb565b5f604051808303815f865af19150503d805f811461189f576040519150601f19603f3d011682016040523d82523d5f602084013e6118a4565b606091505b50915091508180156118d157505f815114806118d05750808060200190518101906118cf9190613536565b5b5b611910576040517f08c379a0000000000000000000000000000000000000000000000000000000008152600401611907906135bb565b60405180910390fd5b5050505050565b5f5f7384524baa1951247b3a2617a843e6ece915bb967473ffffffffffffffffffffffffffffffffffffffff1663e577f70685856040518363ffffffff1660e01b815260040161196892919061348a565b602060405180830381865afa158015611983573d5f5f3e3d5ffd5b505050506040513d601f19601f820116820180604052508101906119a79190612edb565b14905092915050565b5f5f7384524baa1951247b3a2617a843e6ece915bb967473ffffffffffffffffffffffffffffffffffffffff1663cb22767085856040518363ffffffff1660e01b8152600401611a0192919061348a565b602060405180830381865afa158015611a1c573d5f5f3e3d5ffd5b505050506040513d601f19601f82011682018060405250810190611a409190612edb565b14905092915050565b5f5f8473ffffffffffffffffffffffffffffffffffffffff1663095ea7b360e01b8585604051602401611a7d92919061348a565b604051602081830303815290604052907bffffffffffffffffffffffffffffffffffffffffffffffffffffffff19166020820180517bffffffffffffffffffffffffffffffffffffffffffffffffffffffff8381831617835250505050604051611ae791906134eb565b5f604051808303815f865af19150503d805f8114611b20576040519150601f19603f3d011682016040523d82523d5f602084013e611b25565b606091505b5091509150818015611b5257505f81511480611b51575080806020019051810190611b509190613536565b5b5b15611b5e575050611df5565b8473ffffffffffffffffffffffffffffffffffffffff1663095ea7b360e01b855f604051602401611b9092919061361e565b604051602081830303815290604052907bffffffffffffffffffffffffffffffffffffffffffffffffffffffff19166020820180517bffffffffffffffffffffffffffffffffffffffffffffffffffffffff8381831617835250505050604051611bfa91906134eb565b5f604051808303815f865af19150503d805f8114611c33576040519150601f19603f3d011682016040523d82523d5f602084013e611c38565b606091505b508092508193505050818015611c6957505f81511480611c68575080806020019051810190611c679190613536565b5b5b611ca8576040517f08c379a0000000000000000000000000000000000000000000000000000000008152600401611c9f9061368f565b60405180910390fd5b8473ffffffffffffffffffffffffffffffffffffffff1663095ea7b360e01b8585604051602401611cda92919061348a565b604051602081830303815290604052907bffffffffffffffffffffffffffffffffffffffffffffffffffffffff19166020820180517bffffffffffffffffffffffffffffffffffffffffffffffffffffffff8381831617835250505050604051611d4491906134eb565b5f604051808303815f865af19150503d805f8114611d7d576040519150601f19603f3d011682016040523d82523d5f602084013e611d82565b606091505b508092508193505050818015611db357505f81511480611db2575080806020019051810190611db19190613536565b5b5b611df2576040517f08c379a0000000000000000000000000000000000000000000000000000000008152600401611de9906136f7565b60405180910390fd5b50505b505050565b5f5f7384524baa1951247b3a2617a843e6ece915bb967473ffffffffffffffffffffffffffffffffffffffff16637c854ec76040518163ffffffff1660e01b8152600401602060405180830381865afa158015611e59573d5f5f3e3d5ffd5b505050506040513d601f19601f82011682018060405250810190611e7d919061340e565b90508073ffffffffffffffffffffffffffffffffffffffff1663ffa1af9d6040518163ffffffff1660e01b81526004015f604051808303815f87803b158015611ec4575f5ffd5b505af1158015611ed6573d5f5f3e3d5ffd5b505050508073ffffffffffffffffffffffffffffffffffffffff1663da9425e2306040518263ffffffff1660e01b8152600401611f139190612adf565b602060405180830381865afa158015611f2e573d5f5f3e3d5ffd5b505050506040513d601f19601f82011682018060405250810190611f529190612edb565b91505090565b5f7384524baa1951247b3a2617a843e6ece915bb967473ffffffffffffffffffffffffffffffffffffffff16630f9f234d6040518163ffffffff1660e01b8152600401602060405180830381865afa158015611fb6573d5f5f3e3d5ffd5b505050506040513d601f19601f82011682018060405250810190611fda919061340e565b73ffffffffffffffffffffffffffffffffffffffff1663fe03cca9853086866040518563ffffffff1660e01b81526004016120189493929190613715565b5f6040518083038186803b15801561202e575f5ffd5b505afa92505050801561203f575060015b61204b575f9050612050565b600190505b9392505050565b5f7384524baa1951247b3a2617a843e6ece915bb967473ffffffffffffffffffffffffffffffffffffffff16630f9f234d6040518163ffffffff1660e01b8152600401602060405180830381865afa1580156120b5573d5f5f3e3d5ffd5b505050506040513d601f19601f820116820180604052508101906120d9919061340e565b73ffffffffffffffffffffffffffffffffffffffff1663ec4f7043853086866040518563ffffffff1660e01b81526004016121179493929190613715565b5f6040518083038186803b15801561212d575f5ffd5b505afa92505050801561213e575060015b61214a575f905061214f565b600190505b9392505050565b61215e6128e7565b5f5f90505b83518110156122e7575f8482815181106121805761217f612f66565b5b602002602001015190505f73ffffffffffffffffffffffffffffffffffffffff168173ffffffffffffffffffffffffffffffffffffffff16036121c357506122dc565b5f5f5f5f5f6121d1866122ee565b945094509450945094508415806121e757505f81145b156121f7575050505050506122dc565b88801561227a5750838673ffffffffffffffffffffffffffffffffffffffff166370a08231306040518263ffffffff1660e01b81526004016122399190612adf565b602060405180830381865afa158015612254573d5f5f3e3d5ffd5b505050506040513d601f19601f820116820180604052508101906122789190612edb565b105b1561228a575050505050506122dc565b5f6040518060a001604052808873ffffffffffffffffffffffffffffffffffffffff1681526020018681526020018581526020018481526020018381525090506122d489826127c1565b505050505050505b806001019050612163565b5092915050565b5f5f5f5f5f6122fb612914565b5f7384524baa1951247b3a2617a843e6ece915bb967473ffffffffffffffffffffffffffffffffffffffff166381cc49a3896040518263ffffffff1660e01b81526004016123499190612adf565b608060405180830381865afa158015612364573d5f5f3e3d5ffd5b505050506040513d601f19601f820116820180604052508101906123889190613758565b50845f018560200186604001838152508381525083151515158152505050507384524baa1951247b3a2617a843e6ece915bb967473ffffffffffffffffffffffffffffffffffffffff1663c1919dd9896040518263ffffffff1660e01b81526004016123f49190612adf565b606060405180830381865afa15801561240f573d5f5f3e3d5ffd5b505050506040513d601f19601f8201168201806040525081019061243391906137bc565b84606001856080018660a001838152508381525083815250505050815f0151158061246157505f8260200151145b8061247157506001826040015111155b8061247f57505f8260600151145b8061248f57506001826080015111155b156124aa575f5f5f5f5f9650965096509650965050506127b8565b8160400151600183602001516124c09190612f33565b6124ca9190613839565b94508160800151600183606001516124e29190612f33565b6124ec9190613839565b93505f8514806124fb57505f84145b15612516575f5f5f5f5f9650965096509650965050506127b8565b5f8260a0015103612537575f5f5f5f5f9650965096509650965050506127b8565b612558670de0b6b3a76400008661254e9190613869565b8360a00151612894565b8260c001818152505060018461256e919061337f565b955060018260c00151612581919061337f565b86101561259c5760018260c00151612599919061337f565b95505b7384524baa1951247b3a2617a843e6ece915bb967473ffffffffffffffffffffffffffffffffffffffff1663cb22767089886040518363ffffffff1660e01b81526004016125eb92919061348a565b602060405180830381865afa158015612606573d5f5f3e3d5ffd5b505050506040513d601f19601f8201168201806040525081019061262a9190612edb565b8260e00181815250505f8260e0015103612654575f5f5f5f5f9650965096509650965050506127b8565b5f8260e001518360800151612669919061337f565b600188856060015161267b919061337f565b6126859190612f33565b61268f9190613839565b036126aa575f5f5f5f5f9650965096509650965050506127b8565b7384524baa1951247b3a2617a843e6ece915bb967473ffffffffffffffffffffffffffffffffffffffff16632ab88d1c896040518263ffffffff1660e01b81526004016126f79190612adf565b602060405180830381865afa158015612712573d5f5f3e3d5ffd5b505050506040513d601f19601f820116820180604052508101906127369190612edb565b90508385612744919061337f565b8682612750919061337f565b101561276c575f5f5f5f5f9650965096509650965050506127b8565b61278e868261277b919061337f565b610400866127899190613869565b6128cf565b6127a582610400886127a09190613869565b6128cf565b6127af919061337f565b92506001965050505b91939590929450565b5f5f90505b600481101561288e578281600481106127e2576127e1612f66565b5b60200201516080015182608001511115612883575f600160046128059190612f33565b90505b81811115612860578360018261281e9190612f33565b6004811061282f5761282e612f66565b5b602002015184826004811061284757612846612f66565b5b602002018190525080612859906138aa565b9050612808565b508183826004811061287557612874612f66565b5b602002018190525050612890565b8060010190506127c6565b505b5050565b5f5f83146128c5576001826001856128ac9190612f33565b6128b69190613839565b6128c0919061337f565b6128c7565b5f5b905092915050565b5f8183106128dd57816128df565b825b905092915050565b60405180608001604052806004905b6128fe612953565b8152602001906001900390816128f65790505090565b6040518061010001604052805f151581526020015f81526020015f81526020015f81526020015f81526020015f81526020015f81526020015f81525090565b6040518060a001604052805f73ffffffffffffffffffffffffffffffffffffffff1681526020015f81526020015f81526020015f81526020015f81525090565b5f604051905090565b5f5ffd5b5f5ffd5b5f73ffffffffffffffffffffffffffffffffffffffff82169050919050565b5f6129cd826129a4565b9050919050565b6129dd816129c3565b81146129e7575f5ffd5b50565b5f813590506129f8816129d4565b92915050565b5f819050919050565b612a10816129fe565b8114612a1a575f5ffd5b50565b5f81359050612a2b81612a07565b92915050565b5f5f5f5f5f60a08688031215612a4a57612a4961299c565b5b5f612a57888289016129ea565b9550506020612a6888828901612a1d565b9450506040612a7988828901612a1d565b9350506060612a8a88828901612a1d565b9250506080612a9b88828901612a1d565b9150509295509295909350565b612ab1816129fe565b82525050565b5f602082019050612aca5f830184612aa8565b92915050565b612ad9816129c3565b82525050565b5f602082019050612af25f830184612ad0565b92915050565b5f5ffd5b5f601f19601f8301169050919050565b7f4e487b71000000000000000000000000000000000000000000000000000000005f52604160045260245ffd5b612b4282612afc565b810181811067ffffffffffffffff82111715612b6157612b60612b0c565b5b80604052505050565b5f612b73612993565b9050612b7f8282612b39565b919050565b5f67ffffffffffffffff821115612b9e57612b9d612b0c565b5b602082029050602081019050919050565b5f5ffd5b5f612bbd826129c3565b9050919050565b612bcd81612bb3565b8114612bd7575f5ffd5b50565b5f81359050612be881612bc4565b92915050565b5f612c00612bfb84612b84565b612b6a565b90508083825260208201905060208402830185811115612c2357612c22612baf565b5b835b81811015612c4c5780612c388882612bda565b845260208401935050602081019050612c25565b5050509392505050565b5f82601f830112612c6a57612c69612af8565b5b8135612c7a848260208601612bee565b91505092915050565b5f67ffffffffffffffff821115612c9d57612c9c612b0c565b5b602082029050602081019050919050565b5f612cc0612cbb84612c83565b612b6a565b90508083825260208201905060208402830185811115612ce357612ce2612baf565b5b835b81811015612d0c5780612cf88882612a1d565b845260208401935050602081019050612ce5565b5050509392505050565b5f82601f830112612d2a57612d29612af8565b5b8135612d3a848260208601612cae565b91505092915050565b5f5ffd5b5f67ffffffffffffffff821115612d6157612d60612b0c565b5b612d6a82612afc565b9050602081019050919050565b828183375f83830152505050565b5f612d97612d9284612d47565b612b6a565b905082815260208101848484011115612db357612db2612d43565b5b612dbe848285612d77565b509392505050565b5f82601f830112612dda57612dd9612af8565b5b8135612dea848260208601612d85565b91505092915050565b5f5f5f5f60808587031215612e0b57612e0a61299c565b5b5f85013567ffffffffffffffff811115612e2857612e276129a0565b5b612e3487828801612c56565b945050602085013567ffffffffffffffff811115612e5557612e546129a0565b5b612e6187828801612d16565b935050604085013567ffffffffffffffff811115612e8257612e816129a0565b5b612e8e87828801612d16565b925050606085013567ffffffffffffffff811115612eaf57612eae6129a0565b5b612ebb87828801612dc6565b91505092959194509250565b5f81519050612ed581612a07565b92915050565b5f60208284031215612ef057612eef61299c565b5b5f612efd84828501612ec7565b91505092915050565b7f4e487b71000000000000000000000000000000000000000000000000000000005f52601160045260245ffd5b5f612f3d826129fe565b9150612f48836129fe565b9250828203905081811115612f6057612f5f612f06565b5b92915050565b7f4e487b71000000000000000000000000000000000000000000000000000000005f52603260045260245ffd5b612f9c816129c3565b82525050565b612fab816129fe565b82525050565b60a082015f820151612fc55f850182612f93565b506020820151612fd86020850182612fa2565b506040820151612feb6040850182612fa2565b506060820151612ffe6060850182612fa2565b5060808201516130116080850182612fa2565b50505050565b5f60a08201905061302a5f830184612fb1565b92915050565b5f819050919050565b5f61305361304e613049846129a4565b613030565b6129a4565b9050919050565b5f61306482613039565b9050919050565b5f6130758261305a565b9050919050565b6130858161306b565b82525050565b5f81519050919050565b5f82825260208201905092915050565b5f819050602082019050919050565b5f6130be8261305a565b9050919050565b6130ce816130b4565b82525050565b5f6130df83836130c5565b60208301905092915050565b5f602082019050919050565b5f6131018261308b565b61310b8185613095565b9350613116836130a5565b805f5b8381101561314657815161312d88826130d4565b9750613138836130eb565b925050600181019050613119565b5085935050505092915050565b5f81519050919050565b5f82825260208201905092915050565b5f819050602082019050919050565b5f6131878383612fa2565b60208301905092915050565b5f602082019050919050565b5f6131a982613153565b6131b3818561315d565b93506131be8361316d565b805f5b838110156131ee5781516131d5888261317c565b97506131e083613193565b9250506001810190506131c1565b5085935050505092915050565b5f81519050919050565b5f82825260208201905092915050565b8281835e5f83830152505050565b5f61322d826131fb565b6132378185613205565b9350613247818560208601613215565b61325081612afc565b840191505092915050565b5f60808201905061326e5f83018761307c565b818103602083015261328081866130f7565b90508181036040830152613294818561319f565b905081810360608301526132a88184613223565b905095945050505050565b5f5ffd5b5f815190506132c5816129d4565b92915050565b5f60a082840312156132e0576132df6132b3565b5b6132ea60a0612b6a565b90505f6132f9848285016132b7565b5f83015250602061330c84828501612ec7565b602083015250604061332084828501612ec7565b604083015250606061333484828501612ec7565b606083015250608061334884828501612ec7565b60808301525092915050565b5f60a082840312156133695761336861299c565b5b5f613376848285016132cb565b91505092915050565b5f613389826129fe565b9150613394836129fe565b92508282019050808211156133ac576133ab612f06565b5b92915050565b5f6060820190506133c55f830186612aa8565b6133d26020830185612ad0565b6133df6040830184612aa8565b949350505050565b5f6040820190506133fa5f830185612aa8565b6134076020830184612ad0565b9392505050565b5f602082840312156134235761342261299c565b5b5f613430848285016132b7565b91505092915050565b5f60a08201905061344c5f830188612ad0565b6134596020830187612aa8565b6134666040830186612aa8565b6134736060830185612aa8565b6134806080830184612aa8565b9695505050505050565b5f60408201905061349d5f830185612ad0565b6134aa6020830184612aa8565b9392505050565b5f81905092915050565b5f6134c5826131fb565b6134cf81856134b1565b93506134df818560208601613215565b80840191505092915050565b5f6134f682846134bb565b915081905092915050565b5f8115159050919050565b61351581613501565b811461351f575f5ffd5b50565b5f815190506135308161350c565b92915050565b5f6020828403121561354b5761354a61299c565b5b5f61355884828501613522565b91505092915050565b5f82825260208201905092915050565b7f7472616e736665720000000000000000000000000000000000000000000000005f82015250565b5f6135a5600883613561565b91506135b082613571565b602082019050919050565b5f6020820190508181035f8301526135d281613599565b9050919050565b5f819050919050565b5f60ff82169050919050565b5f6136086136036135fe846135d9565b613030565b6135e2565b9050919050565b613618816135ee565b82525050565b5f6040820190506136315f830185612ad0565b61363e602083018461360f565b9392505050565b7f617070726f76652d7265736574000000000000000000000000000000000000005f82015250565b5f613679600d83613561565b915061368482613645565b602082019050919050565b5f6020820190508181035f8301526136a68161366d565b9050919050565b7f617070726f76652d7365740000000000000000000000000000000000000000005f82015250565b5f6136e1600b83613561565b91506136ec826136ad565b602082019050919050565b5f6020820190508181035f83015261370e816136d5565b9050919050565b5f6080820190506137285f830187612aa8565b6137356020830186612ad0565b6137426040830185612ad0565b61374f6060830184612aa8565b95945050505050565b5f5f5f5f608085870312156137705761376f61299c565b5b5f61377d87828801613522565b945050602061378e87828801612ec7565b935050604061379f87828801612ec7565b92505060606137b087828801612ec7565b91505092959194509250565b5f5f5f606084860312156137d3576137d261299c565b5b5f6137e086828701612ec7565b93505060206137f186828701612ec7565b925050604061380286828701612ec7565b9150509250925092565b7f4e487b71000000000000000000000000000000000000000000000000000000005f52601260045260245ffd5b5f613843826129fe565b915061384e836129fe565b92508261385e5761385d61380c565b5b828204905092915050565b5f613873826129fe565b915061387e836129fe565b925082820261388c816129fe565b915082820484148315176138a3576138a2612f06565b5b5092915050565b5f6138b4826129fe565b91505f82036138c6576138c5612f06565b5b60018203905091905056fea2646970667358221220637ccceaf40e3907f086e2725f8aafd7573f9aa7a536173b53f3e418652661d664736f6c634300081e0033","linkReferences":{}},"methodIdentifiers":{"executeOnOpportunity()":"3c2448ed","profitAmount()":"5ff972cc","profitToken()":"49343624","receiveFlashLoan(address[],uint256[],uint256[],bytes)":"f04f2707","requestFlashLoanAttack(address,uint256,uint256,uint256,uint256)":"3412fb5d","runDirectAttack(address,uint256,uint256,uint256,uint256)":"04f76795"},"id":0}