{"abi":[{"type":"function","name":"ACL_ADMIN_CANNOT_BE_ZERO","inputs":[],"outputs":[{"name":"","type":"string","internalType":"string"}],"stateMutability":"view"},{"type":"function","name":"ADDRESSES_PROVIDER_ALREADY_ADDED","inputs":[],"outputs":[{"name":"","type":"string","internalType":"string"}],"stateMutability":"view"},{"type":"function","name":"ADDRESSES_PROVIDER_NOT_REGISTERED","inputs":[],"outputs":[{"name":"","type":"string","internalType":"string"}],"stateMutability":"view"},{"type":"function","name":"AMOUNT_BIGGER_THAN_MAX_LOAN_SIZE_STABLE","inputs":[],"outputs":[{"name":"","type":"string","internalType":"string"}],"stateMutability":"view"},{"type":"function","name":"ASSET_NOT_BORROWABLE_IN_ISOLATION","inputs":[],"outputs":[{"name":"","type":"string","internalType":"string"}],"stateMutability":"view"},{"type":"function","name":"ASSET_NOT_LISTED","inputs":[],"outputs":[{"name":"","type":"string","internalType":"string"}],"stateMutability":"view"},{"type":"function","name":"BORROWING_NOT_ENABLED","inputs":[],"outputs":[{"name":"","type":"string","internalType":"string"}],"stateMutability":"view"},{"type":"function","name":"BORROW_CAP_EXCEEDED","inputs":[],"outputs":[{"name":"","type":"string","internalType":"string"}],"stateMutability":"view"},{"type":"function","name":"BRIDGE_PROTOCOL_FEE_INVALID","inputs":[],"outputs":[{"name":"","type":"string","internalType":"string"}],"stateMutability":"view"},{"type":"function","name":"CALLER_MUST_BE_LENDING_GAUGE","inputs":[],"outputs":[{"name":"","type":"string","internalType":"string"}],"stateMutability":"view"},{"type":"function","name":"CALLER_MUST_BE_POOL","inputs":[],"outputs":[{"name":"","type":"string","internalType":"string"}],"stateMutability":"view"},{"type":"function","name":"CALLER_NOT_ASSET_LISTING_OR_POOL_ADMIN","inputs":[],"outputs":[{"name":"","type":"string","internalType":"string"}],"stateMutability":"view"},{"type":"function","name":"CALLER_NOT_BRIDGE","inputs":[],"outputs":[{"name":"","type":"string","internalType":"string"}],"stateMutability":"view"},{"type":"function","name":"CALLER_NOT_EMERGENCY_ADMIN","inputs":[],"outputs":[{"name":"","type":"string","internalType":"string"}],"stateMutability":"view"},{"type":"function","name":"CALLER_NOT_HTOKEN","inputs":[],"outputs":[{"name":"","type":"string","internalType":"string"}],"stateMutability":"view"},{"type":"function","name":"CALLER_NOT_POOL_ADMIN","inputs":[],"outputs":[{"name":"","type":"string","internalType":"string"}],"stateMutability":"view"},{"type":"function","name":"CALLER_NOT_POOL_CONFIGURATOR","inputs":[],"outputs":[{"name":"","type":"string","internalType":"string"}],"stateMutability":"view"},{"type":"function","name":"CALLER_NOT_POOL_OR_EMERGENCY_ADMIN","inputs":[],"outputs":[{"name":"","type":"string","internalType":"string"}],"stateMutability":"view"},{"type":"function","name":"CALLER_NOT_RISK_OR_POOL_ADMIN","inputs":[],"outputs":[{"name":"","type":"string","internalType":"string"}],"stateMutability":"view"},{"type":"function","name":"COLLATERAL_BALANCE_IS_ZERO","inputs":[],"outputs":[{"name":"","type":"string","internalType":"string"}],"stateMutability":"view"},{"type":"function","name":"COLLATERAL_CANNOT_BE_LIQUIDATED","inputs":[],"outputs":[{"name":"","type":"string","internalType":"string"}],"stateMutability":"view"},{"type":"function","name":"COLLATERAL_CANNOT_COVER_NEW_BORROW","inputs":[],"outputs":[{"name":"","type":"string","internalType":"string"}],"stateMutability":"view"},{"type":"function","name":"COLLATERAL_SAME_AS_BORROWING_CURRENCY","inputs":[],"outputs":[{"name":"","type":"string","internalType":"string"}],"stateMutability":"view"},{"type":"function","name":"DEBT_CEILING_EXCEEDED","inputs":[],"outputs":[{"name":"","type":"string","internalType":"string"}],"stateMutability":"view"},{"type":"function","name":"DEBT_CEILING_NOT_ZERO","inputs":[],"outputs":[{"name":"","type":"string","internalType":"string"}],"stateMutability":"view"},{"type":"function","name":"EMODE_CATEGORY_RESERVED","inputs":[],"outputs":[{"name":"","type":"string","internalType":"string"}],"stateMutability":"view"},{"type":"function","name":"FAILOVER_ALREADY_ACTIVE","inputs":[],"outputs":[{"name":"","type":"string","internalType":"string"}],"stateMutability":"view"},{"type":"function","name":"FAILOVER_ALREADY_DEACTIVATED","inputs":[],"outputs":[{"name":"","type":"string","internalType":"string"}],"stateMutability":"view"},{"type":"function","name":"FLASHLOAN_DISABLED","inputs":[],"outputs":[{"name":"","type":"string","internalType":"string"}],"stateMutability":"view"},{"type":"function","name":"FLASHLOAN_PREMIUM_INVALID","inputs":[],"outputs":[{"name":"","type":"string","internalType":"string"}],"stateMutability":"view"},{"type":"function","name":"HEALTH_FACTOR_LOWER_THAN_LIQUIDATION_THRESHOLD","inputs":[],"outputs":[{"name":"","type":"string","internalType":"string"}],"stateMutability":"view"},{"type":"function","name":"HEALTH_FACTOR_NOT_BELOW_THRESHOLD","inputs":[],"outputs":[{"name":"","type":"string","internalType":"string"}],"stateMutability":"view"},{"type":"function","name":"INCONSISTENT_EMODE_CATEGORY","inputs":[],"outputs":[{"name":"","type":"string","internalType":"string"}],"stateMutability":"view"},{"type":"function","name":"INCONSISTENT_FLASHLOAN_PARAMS","inputs":[],"outputs":[{"name":"","type":"string","internalType":"string"}],"stateMutability":"view"},{"type":"function","name":"INCONSISTENT_PARAMS_LENGTH","inputs":[],"outputs":[{"name":"","type":"string","internalType":"string"}],"stateMutability":"view"},{"type":"function","name":"INTEREST_RATE_REBALANCE_CONDITIONS_NOT_MET","inputs":[],"outputs":[{"name":"","type":"string","internalType":"string"}],"stateMutability":"view"},{"type":"function","name":"INVALID_ADDRESSES_PROVIDER","inputs":[],"outputs":[{"name":"","type":"string","internalType":"string"}],"stateMutability":"view"},{"type":"function","name":"INVALID_ADDRESSES_PROVIDER_ID","inputs":[],"outputs":[{"name":"","type":"string","internalType":"string"}],"stateMutability":"view"},{"type":"function","name":"INVALID_AMOUNT","inputs":[],"outputs":[{"name":"","type":"string","internalType":"string"}],"stateMutability":"view"},{"type":"function","name":"INVALID_BORROW_CAP","inputs":[],"outputs":[{"name":"","type":"string","internalType":"string"}],"stateMutability":"view"},{"type":"function","name":"INVALID_BURN_AMOUNT","inputs":[],"outputs":[{"name":"","type":"string","internalType":"string"}],"stateMutability":"view"},{"type":"function","name":"INVALID_DEBT_CEILING","inputs":[],"outputs":[{"name":"","type":"string","internalType":"string"}],"stateMutability":"view"},{"type":"function","name":"INVALID_DECIMALS","inputs":[],"outputs":[{"name":"","type":"string","internalType":"string"}],"stateMutability":"view"},{"type":"function","name":"INVALID_EMODE_CATEGORY","inputs":[],"outputs":[{"name":"","type":"string","internalType":"string"}],"stateMutability":"view"},{"type":"function","name":"INVALID_EMODE_CATEGORY_ASSIGNMENT","inputs":[],"outputs":[{"name":"","type":"string","internalType":"string"}],"stateMutability":"view"},{"type":"function","name":"INVALID_EMODE_CATEGORY_PARAMS","inputs":[],"outputs":[{"name":"","type":"string","internalType":"string"}],"stateMutability":"view"},{"type":"function","name":"INVALID_EXPIRATION","inputs":[],"outputs":[{"name":"","type":"string","internalType":"string"}],"stateMutability":"view"},{"type":"function","name":"INVALID_FEE_TO_VAULT_PERCENT","inputs":[],"outputs":[{"name":"","type":"string","internalType":"string"}],"stateMutability":"view"},{"type":"function","name":"INVALID_FLASHLOAN_EXECUTOR_RETURN","inputs":[],"outputs":[{"name":"","type":"string","internalType":"string"}],"stateMutability":"view"},{"type":"function","name":"INVALID_INTEREST_RATE_MODE_SELECTED","inputs":[],"outputs":[{"name":"","type":"string","internalType":"string"}],"stateMutability":"view"},{"type":"function","name":"INVALID_LIQUIDATION_PROTOCOL_FEE","inputs":[],"outputs":[{"name":"","type":"string","internalType":"string"}],"stateMutability":"view"},{"type":"function","name":"INVALID_LIQ_BONUS","inputs":[],"outputs":[{"name":"","type":"string","internalType":"string"}],"stateMutability":"view"},{"type":"function","name":"INVALID_LIQ_THRESHOLD","inputs":[],"outputs":[{"name":"","type":"string","internalType":"string"}],"stateMutability":"view"},{"type":"function","name":"INVALID_LTV","inputs":[],"outputs":[{"name":"","type":"string","internalType":"string"}],"stateMutability":"view"},{"type":"function","name":"INVALID_MINT_AMOUNT","inputs":[],"outputs":[{"name":"","type":"string","internalType":"string"}],"stateMutability":"view"},{"type":"function","name":"INVALID_OPTIMAL_STABLE_TO_TOTAL_DEBT_RATIO","inputs":[],"outputs":[{"name":"","type":"string","internalType":"string"}],"stateMutability":"view"},{"type":"function","name":"INVALID_OPTIMAL_USAGE_RATIO","inputs":[],"outputs":[{"name":"","type":"string","internalType":"string"}],"stateMutability":"view"},{"type":"function","name":"INVALID_PHASES_LENGTH","inputs":[],"outputs":[{"name":"","type":"string","internalType":"string"}],"stateMutability":"view"},{"type":"function","name":"INVALID_RESERVE_FACTOR","inputs":[],"outputs":[{"name":"","type":"string","internalType":"string"}],"stateMutability":"view"},{"type":"function","name":"INVALID_RESERVE_INDEX","inputs":[],"outputs":[{"name":"","type":"string","internalType":"string"}],"stateMutability":"view"},{"type":"function","name":"INVALID_RESERVE_PARAMS","inputs":[],"outputs":[{"name":"","type":"string","internalType":"string"}],"stateMutability":"view"},{"type":"function","name":"INVALID_SIGNATURE","inputs":[],"outputs":[{"name":"","type":"string","internalType":"string"}],"stateMutability":"view"},{"type":"function","name":"INVALID_SUPPLY_CAP","inputs":[],"outputs":[{"name":"","type":"string","internalType":"string"}],"stateMutability":"view"},{"type":"function","name":"INVALID_UNBACKED_MINT_CAP","inputs":[],"outputs":[{"name":"","type":"string","internalType":"string"}],"stateMutability":"view"},{"type":"function","name":"LENDING_GAUGE_PERCENTAGE_NOT_MATCH","inputs":[],"outputs":[{"name":"","type":"string","internalType":"string"}],"stateMutability":"view"},{"type":"function","name":"LTV_VALIDATION_FAILED","inputs":[],"outputs":[{"name":"","type":"string","internalType":"string"}],"stateMutability":"view"},{"type":"function","name":"MUST_BE_NON_NEGATIVE","inputs":[],"outputs":[{"name":"","type":"string","internalType":"string"}],"stateMutability":"view"},{"type":"function","name":"NOT_CONTRACT","inputs":[],"outputs":[{"name":"","type":"string","internalType":"string"}],"stateMutability":"view"},{"type":"function","name":"NOT_ENOUGH_AVAILABLE_USER_BALANCE","inputs":[],"outputs":[{"name":"","type":"string","internalType":"string"}],"stateMutability":"view"},{"type":"function","name":"NO_DEBT_OF_SELECTED_TYPE","inputs":[],"outputs":[{"name":"","type":"string","internalType":"string"}],"stateMutability":"view"},{"type":"function","name":"NO_EXPLICIT_AMOUNT_TO_REPAY_ON_BEHALF","inputs":[],"outputs":[{"name":"","type":"string","internalType":"string"}],"stateMutability":"view"},{"type":"function","name":"NO_MORE_RESERVES_ALLOWED","inputs":[],"outputs":[{"name":"","type":"string","internalType":"string"}],"stateMutability":"view"},{"type":"function","name":"NO_OUTSTANDING_STABLE_DEBT","inputs":[],"outputs":[{"name":"","type":"string","internalType":"string"}],"stateMutability":"view"},{"type":"function","name":"NO_OUTSTANDING_VARIABLE_DEBT","inputs":[],"outputs":[{"name":"","type":"string","internalType":"string"}],"stateMutability":"view"},{"type":"function","name":"OPERATION_NOT_SUPPORTED","inputs":[],"outputs":[{"name":"","type":"string","internalType":"string"}],"stateMutability":"view"},{"type":"function","name":"PARAMETER_ADDRESS_NOT_ZERO","inputs":[],"outputs":[{"name":"","type":"string","internalType":"string"}],"stateMutability":"view"},{"type":"function","name":"PHASES_NOT_DEFINED","inputs":[],"outputs":[{"name":"","type":"string","internalType":"string"}],"stateMutability":"view"},{"type":"function","name":"POOL_ADDRESSES_DO_NOT_MATCH","inputs":[],"outputs":[{"name":"","type":"string","internalType":"string"}],"stateMutability":"view"},{"type":"function","name":"PRICE_ORACLE_SENTINEL_CHECK_FAILED","inputs":[],"outputs":[{"name":"","type":"string","internalType":"string"}],"stateMutability":"view"},{"type":"function","name":"RESERVE_ALREADY_ADDED","inputs":[],"outputs":[{"name":"","type":"string","internalType":"string"}],"stateMutability":"view"},{"type":"function","name":"RESERVE_ALREADY_INITIALIZED","inputs":[],"outputs":[{"name":"","type":"string","internalType":"string"}],"stateMutability":"view"},{"type":"function","name":"RESERVE_DEBT_NOT_ZERO","inputs":[],"outputs":[{"name":"","type":"string","internalType":"string"}],"stateMutability":"view"},{"type":"function","name":"RESERVE_FROZEN","inputs":[],"outputs":[{"name":"","type":"string","internalType":"string"}],"stateMutability":"view"},{"type":"function","name":"RESERVE_INACTIVE","inputs":[],"outputs":[{"name":"","type":"string","internalType":"string"}],"stateMutability":"view"},{"type":"function","name":"RESERVE_LIQUIDITY_NOT_ZERO","inputs":[],"outputs":[{"name":"","type":"string","internalType":"string"}],"stateMutability":"view"},{"type":"function","name":"RESERVE_PAUSED","inputs":[],"outputs":[{"name":"","type":"string","internalType":"string"}],"stateMutability":"view"},{"type":"function","name":"SILOED_BORROWING_VIOLATION","inputs":[],"outputs":[{"name":"","type":"string","internalType":"string"}],"stateMutability":"view"},{"type":"function","name":"SPECIFIED_CURRENCY_NOT_BORROWED_BY_USER","inputs":[],"outputs":[{"name":"","type":"string","internalType":"string"}],"stateMutability":"view"},{"type":"function","name":"STABLE_BORROWING_ENABLED","inputs":[],"outputs":[{"name":"","type":"string","internalType":"string"}],"stateMutability":"view"},{"type":"function","name":"STABLE_BORROWING_NOT_ENABLED","inputs":[],"outputs":[{"name":"","type":"string","internalType":"string"}],"stateMutability":"view"},{"type":"function","name":"STABLE_DEBT_NOT_ZERO","inputs":[],"outputs":[{"name":"","type":"string","internalType":"string"}],"stateMutability":"view"},{"type":"function","name":"SUPPLY_CAP_EXCEEDED","inputs":[],"outputs":[{"name":"","type":"string","internalType":"string"}],"stateMutability":"view"},{"type":"function","name":"UNBACKED_MINT_CAP_EXCEEDED","inputs":[],"outputs":[{"name":"","type":"string","internalType":"string"}],"stateMutability":"view"},{"type":"function","name":"UNDERLYING_BALANCE_ZERO","inputs":[],"outputs":[{"name":"","type":"string","internalType":"string"}],"stateMutability":"view"},{"type":"function","name":"UNDERLYING_CANNOT_BE_RESCUED","inputs":[],"outputs":[{"name":"","type":"string","internalType":"string"}],"stateMutability":"view"},{"type":"function","name":"UNDERLYING_CLAIMABLE_RIGHTS_NOT_ZERO","inputs":[],"outputs":[{"name":"","type":"string","internalType":"string"}],"stateMutability":"view"},{"type":"function","name":"USER_IN_ISOLATION_MODE","inputs":[],"outputs":[{"name":"","type":"string","internalType":"string"}],"stateMutability":"view"},{"type":"function","name":"VARIABLE_DEBT_SUPPLY_NOT_ZERO","inputs":[],"outputs":[{"name":"","type":"string","internalType":"string"}],"stateMutability":"view"},{"type":"function","name":"ZERO_ADDRESS_NOT_VALID","inputs":[],"outputs":[{"name":"","type":"string","internalType":"string"}],"stateMutability":"view"}],"bytecode":{"object":"0x61281d610053600b82828239805160001a607314610046577f4e487b7100000000000000000000000000000000000000000000000000000000600052600060045260246000fd5b30600052607381538281f3fe730000000000000000000000000000000000000000301460806040526004361061058b5760003560e01c806389c5d45f116102ef578063bad8308c11610197578063de24948c116100fe578063f10727db116100b7578063fae8279111610091578063fae82791146110b2578063fb7957ca146110d0578063fd1828ff146110ee578063ff51bfd61461110c5761058b565b8063f10727db14611058578063f479ea1114611076578063fa163a83146110945761058b565b8063de24948c14610fa4578063e02f07ee14610fc2578063e3fa20f514610fe0578063e4dd8b7414610ffe578063e981483a1461101c578063f07f67851461103a5761058b565b8063d1cd8b1d11610150578063d1cd8b1d14610ef0578063d6f9fcde14610f0e578063d9adda8514610f2c578063dc191bd914610f4a578063dcc56db614610f68578063dd1dd95f14610f865761058b565b8063bad8308c14610e3c578063c08a114614610e5a578063c863808214610e78578063c899301a14610e96578063cd23367c14610eb4578063d14bb17a14610ed25761058b565b8063a3402a3811610256578063ac7532361161020f578063b5e79366116101e9578063b5e7936614610dc4578063b68774e914610de2578063b7f5e22414610e00578063b87041c214610e1e5761058b565b8063ac75323614610d6a578063b051005414610d88578063b4a4573014610da65761058b565b8063a3402a3814610cb6578063a4868dca14610cd4578063a6bd817414610cf2578063a8c9785314610d10578063ab883ca014610d2e578063abd351b114610d4c5761058b565b806394f9fd8a116102a857806394f9fd8a14610c02578063952633c514610c205780639527e9d914610c3e57806399ce53f314610c5c578063a2797c8014610c7a578063a29bbd0a14610c985761058b565b806389c5d45f14610b4e5780638a34400014610b6c5780638aa3ca4c14610b8a5780638b8b98d714610ba85780638eda46bd14610bc65780638f7722b214610be45761058b565b80634e01e3c11161045257806365e7ef4c116103b957806374459b14116103725780637aa0767e1161034c5780637aa0767e14610ad65780637fea6f3614610af45780638596aad514610b12578063895f7dc814610b305761058b565b806374459b1414610a7c578063747fa55614610a9a57806376ae8fca14610ab85761058b565b806365e7ef4c146109c85780636b3f7cc7146109e65780636cd3cfbc14610a04578063712f536a14610a2257806373dea5e314610a40578063744465cc14610a5e5761058b565b80635b8bda361161040b5780635b8bda36146109145780635d610821146109325780635d9c76c01461095057806360c3de801461096e57806361c111d21461098c57806365a83bab146109aa5761058b565b80634e01e3c1146108605780634e3aed371461087e5780634ef999ff1461089c5780634f77647b146108ba57806351267450146108d857806352ba9dbe146108f65761058b565b80632926c971116104f6578063471df685116104af578063471df685146107ac57806347ba93d8146107ca57806347cf1523146107e8578063485c8ff6146108065780634ba7c90d146108245780634d86f393146108425761058b565b80632926c971146106f85780632c8e3b4c146107165780632eed17e814610734578063335763de14610752578063366eb54d14610770578063379307821461078e5761058b565b8063198d6a6b11610548578063198d6a6b146106445780631abbb00114610662578063208974251461068057806322a734461461069e57806326bbd053146106bc57806326e7b312146106da5761058b565b80630219aa5914610590578063084dfa0d146105ae57806311d7b006146105cc57806312dcade8146105ea57806314dcfbbc1461060857806316cf468e14610626575b600080fd5b61059861112a565b6040516105a591906127c5565b60405180910390f35b6105b6611163565b6040516105c391906127c5565b60405180910390f35b6105d461119c565b6040516105e191906127c5565b60405180910390f35b6105f26111d5565b6040516105ff91906127c5565b60405180910390f35b61061061120e565b60405161061d91906127c5565b60405180910390f35b61062e611247565b60405161063b91906127c5565b60405180910390f35b61064c611280565b60405161065991906127c5565b60405180910390f35b61066a6112b9565b60405161067791906127c5565b60405180910390f35b6106886112f2565b60405161069591906127c5565b60405180910390f35b6106a661132b565b6040516106b391906127c5565b60405180910390f35b6106c4611364565b6040516106d191906127c5565b60405180910390f35b6106e261139d565b6040516106ef91906127c5565b60405180910390f35b6107006113d6565b60405161070d91906127c5565b60405180910390f35b61071e61140f565b60405161072b91906127c5565b60405180910390f35b61073c611448565b60405161074991906127c5565b60405180910390f35b61075a611481565b60405161076791906127c5565b60405180910390f35b6107786114ba565b60405161078591906127c5565b60405180910390f35b6107966114f3565b6040516107a391906127c5565b60405180910390f35b6107b461152c565b6040516107c191906127c5565b60405180910390f35b6107d2611565565b6040516107df91906127c5565b60405180910390f35b6107f061159e565b6040516107fd91906127c5565b60405180910390f35b61080e6115d7565b60405161081b91906127c5565b60405180910390f35b61082c611610565b60405161083991906127c5565b60405180910390f35b61084a611649565b60405161085791906127c5565b60405180910390f35b610868611682565b60405161087591906127c5565b60405180910390f35b6108866116bb565b60405161089391906127c5565b60405180910390f35b6108a46116f4565b6040516108b191906127c5565b60405180910390f35b6108c261172d565b6040516108cf91906127c5565b60405180910390f35b6108e0611766565b6040516108ed91906127c5565b60405180910390f35b6108fe61179f565b60405161090b91906127c5565b60405180910390f35b61091c6117d8565b60405161092991906127c5565b60405180910390f35b61093a611811565b60405161094791906127c5565b60405180910390f35b61095861184a565b60405161096591906127c5565b60405180910390f35b610976611883565b60405161098391906127c5565b60405180910390f35b6109946118bc565b6040516109a191906127c5565b60405180910390f35b6109b26118f5565b6040516109bf91906127c5565b60405180910390f35b6109d061192e565b6040516109dd91906127c5565b60405180910390f35b6109ee611967565b6040516109fb91906127c5565b60405180910390f35b610a0c6119a0565b604051610a1991906127c5565b60405180910390f35b610a2a6119d9565b604051610a3791906127c5565b60405180910390f35b610a48611a12565b604051610a5591906127c5565b60405180910390f35b610a66611a4b565b604051610a7391906127c5565b60405180910390f35b610a84611a84565b604051610a9191906127c5565b60405180910390f35b610aa2611abd565b604051610aaf91906127c5565b60405180910390f35b610ac0611af6565b604051610acd91906127c5565b60405180910390f35b610ade611b2f565b604051610aeb91906127c5565b60405180910390f35b610afc611b68565b604051610b0991906127c5565b60405180910390f35b610b1a611ba1565b604051610b2791906127c5565b60405180910390f35b610b38611bda565b604051610b4591906127c5565b60405180910390f35b610b56611c13565b604051610b6391906127c5565b60405180910390f35b610b74611c4c565b604051610b8191906127c5565b60405180910390f35b610b92611c85565b604051610b9f91906127c5565b60405180910390f35b610bb0611cbe565b604051610bbd91906127c5565b60405180910390f35b610bce611cf7565b604051610bdb91906127c5565b60405180910390f35b610bec611d30565b604051610bf991906127c5565b60405180910390f35b610c0a611d69565b604051610c1791906127c5565b60405180910390f35b610c28611da2565b604051610c3591906127c5565b60405180910390f35b610c46611ddb565b604051610c5391906127c5565b60405180910390f35b610c64611e14565b604051610c7191906127c5565b60405180910390f35b610c82611e4d565b604051610c8f91906127c5565b60405180910390f35b610ca0611e86565b604051610cad91906127c5565b60405180910390f35b610cbe611ebf565b604051610ccb91906127c5565b60405180910390f35b610cdc611ef8565b604051610ce991906127c5565b60405180910390f35b610cfa611f31565b604051610d0791906127c5565b60405180910390f35b610d18611f6a565b604051610d2591906127c5565b60405180910390f35b610d36611fa3565b604051610d4391906127c5565b60405180910390f35b610d54611fdc565b604051610d6191906127c5565b60405180910390f35b610d72612015565b604051610d7f91906127c5565b60405180910390f35b610d9061204e565b604051610d9d91906127c5565b60405180910390f35b610dae612087565b604051610dbb91906127c5565b60405180910390f35b610dcc6120c0565b604051610dd991906127c5565b60405180910390f35b610dea6120f9565b604051610df791906127c5565b60405180910390f35b610e08612132565b604051610e1591906127c5565b60405180910390f35b610e2661216b565b604051610e3391906127c5565b60405180910390f35b610e446121a4565b604051610e5191906127c5565b60405180910390f35b610e626121dd565b604051610e6f91906127c5565b60405180910390f35b610e80612216565b604051610e8d91906127c5565b60405180910390f35b610e9e61224f565b604051610eab91906127c5565b60405180910390f35b610ebc612288565b604051610ec991906127c5565b60405180910390f35b610eda6122c1565b604051610ee791906127c5565b60405180910390f35b610ef86122fa565b604051610f0591906127c5565b60405180910390f35b610f16612333565b604051610f2391906127c5565b60405180910390f35b610f3461236c565b604051610f4191906127c5565b60405180910390f35b610f526123a5565b604051610f5f91906127c5565b60405180910390f35b610f706123de565b604051610f7d91906127c5565b60405180910390f35b610f8e612417565b604051610f9b91906127c5565b60405180910390f35b610fac612450565b604051610fb991906127c5565b60405180910390f35b610fca612489565b604051610fd791906127c5565b60405180910390f35b610fe86124c2565b604051610ff591906127c5565b60405180910390f35b6110066124fb565b60405161101391906127c5565b60405180910390f35b611024612534565b60405161103191906127c5565b60405180910390f35b61104261256d565b60405161104f91906127c5565b60405180910390f35b6110606125a6565b60405161106d91906127c5565b60405180910390f35b61107e6125df565b60405161108b91906127c5565b60405180910390f35b61109c612618565b6040516110a991906127c5565b60405180910390f35b6110ba612651565b6040516110c791906127c5565b60405180910390f35b6110d861268a565b6040516110e591906127c5565b60405180910390f35b6110f66126c3565b60405161110391906127c5565b60405180910390f35b6111146126fc565b60405161112191906127c5565b60405180910390f35b6040518060400160405280600281526020017f393300000000000000000000000000000000000000000000000000000000000081525081565b6040518060400160405280600281526020017f313800000000000000000000000000000000000000000000000000000000000081525081565b6040518060400160405280600181526020017f390000000000000000000000000000000000000000000000000000000000000081525081565b6040518060400160405280600281526020017f313400000000000000000000000000000000000000000000000000000000000081525081565b6040518060400160405280600281526020017f383600000000000000000000000000000000000000000000000000000000000081525081565b6040518060400160405280600281526020017f393400000000000000000000000000000000000000000000000000000000000081525081565b6040518060400160405280600281526020017f383800000000000000000000000000000000000000000000000000000000000081525081565b6040518060400160405280600281526020017f383700000000000000000000000000000000000000000000000000000000000081525081565b6040518060400160405280600281526020017f393200000000000000000000000000000000000000000000000000000000000081525081565b6040518060400160405280600281526020017f343700000000000000000000000000000000000000000000000000000000000081525081565b6040518060400160405280600281526020017f363900000000000000000000000000000000000000000000000000000000000081525081565b6040518060400160405280600181526020017f330000000000000000000000000000000000000000000000000000000000000081525081565b6040518060400160405280600281526020017f343400000000000000000000000000000000000000000000000000000000000081525081565b6040518060400160405280600181526020017f350000000000000000000000000000000000000000000000000000000000000081525081565b6040518060400160405280600281526020017f353000000000000000000000000000000000000000000000000000000000000081525081565b6040518060400160405280600281526020017f323000000000000000000000000000000000000000000000000000000000000081525081565b6040518060400160405280600281526020017f333500000000000000000000000000000000000000000000000000000000000081525081565b6040518060400160405280600281526020017f313200000000000000000000000000000000000000000000000000000000000081525081565b6040518060400160405280600281526020017f323300000000000000000000000000000000000000000000000000000000000081525081565b6040518060400160405280600281526020017f373200000000000000000000000000000000000000000000000000000000000081525081565b6040518060400160405280600281526020017f323100000000000000000000000000000000000000000000000000000000000081525081565b6040518060400160405280600181526020017f320000000000000000000000000000000000000000000000000000000000000081525081565b6040518060400160405280600281526020017f393500000000000000000000000000000000000000000000000000000000000081525081565b6040518060400160405280600281526020017f333100000000000000000000000000000000000000000000000000000000000081525081565b6040518060400160405280600281526020017f333400000000000000000000000000000000000000000000000000000000000081525081565b6040518060400160405280600281526020017f383300000000000000000000000000000000000000000000000000000000000081525081565b6040518060400160405280600281526020017f333000000000000000000000000000000000000000000000000000000000000081525081565b6040518060400160405280600181526020017f360000000000000000000000000000000000000000000000000000000000000081525081565b6040518060400160405280600281526020017f323500000000000000000000000000000000000000000000000000000000000081525081565b6040518060400160405280600281526020017f323700000000000000000000000000000000000000000000000000000000000081525081565b6040518060400160405280600381526020017f313030000000000000000000000000000000000000000000000000000000000081525081565b6040518060400160405280600281526020017f393900000000000000000000000000000000000000000000000000000000000081525081565b6040518060400160405280600281526020017f313700000000000000000000000000000000000000000000000000000000000081525081565b6040518060400160405280600181526020017f380000000000000000000000000000000000000000000000000000000000000081525081565b6040518060400160405280600281526020017f313000000000000000000000000000000000000000000000000000000000000081525081565b6040518060400160405280600281526020017f353300000000000000000000000000000000000000000000000000000000000081525081565b6040518060400160405280600281526020017f353500000000000000000000000000000000000000000000000000000000000081525081565b6040518060400160405280600281526020017f353200000000000000000000000000000000000000000000000000000000000081525081565b6040518060400160405280600281526020017f323800000000000000000000000000000000000000000000000000000000000081525081565b6040518060400160405280600281526020017f343000000000000000000000000000000000000000000000000000000000000081525081565b6040518060400160405280600281526020017f343900000000000000000000000000000000000000000000000000000000000081525081565b6040518060400160405280600281526020017f363200000000000000000000000000000000000000000000000000000000000081525081565b6040518060400160405280600281526020017f343100000000000000000000000000000000000000000000000000000000000081525081565b6040518060400160405280600281526020017f313900000000000000000000000000000000000000000000000000000000000081525081565b6040518060400160405280600281526020017f313500000000000000000000000000000000000000000000000000000000000081525081565b6040518060400160405280600281526020017f323200000000000000000000000000000000000000000000000000000000000081525081565b6040518060400160405280600281526020017f313300000000000000000000000000000000000000000000000000000000000081525081565b6040518060400160405280600281526020017f363000000000000000000000000000000000000000000000000000000000000081525081565b6040518060400160405280600281526020017f343600000000000000000000000000000000000000000000000000000000000081525081565b6040518060400160405280600281526020017f333300000000000000000000000000000000000000000000000000000000000081525081565b6040518060400160405280600281526020017f333700000000000000000000000000000000000000000000000000000000000081525081565b6040518060400160405280600281526020017f393100000000000000000000000000000000000000000000000000000000000081525081565b6040518060400160405280600281526020017f383000000000000000000000000000000000000000000000000000000000000081525081565b6040518060400160405280600281526020017f373000000000000000000000000000000000000000000000000000000000000081525081565b6040518060400160405280600281526020017f353800000000000000000000000000000000000000000000000000000000000081525081565b6040518060400160405280600281526020017f353400000000000000000000000000000000000000000000000000000000000081525081565b6040518060400160405280600281526020017f343500000000000000000000000000000000000000000000000000000000000081525081565b6040518060400160405280600281526020017f363500000000000000000000000000000000000000000000000000000000000081525081565b6040518060400160405280600281526020017f363300000000000000000000000000000000000000000000000000000000000081525081565b6040518060400160405280600281526020017f343300000000000000000000000000000000000000000000000000000000000081525081565b6040518060400160405280600281526020017f393800000000000000000000000000000000000000000000000000000000000081525081565b6040518060400160405280600281526020017f373900000000000000000000000000000000000000000000000000000000000081525081565b6040518060400160405280600281526020017f363700000000000000000000000000000000000000000000000000000000000081525081565b6040518060400160405280600281526020017f393700000000000000000000000000000000000000000000000000000000000081525081565b6040518060400160405280600281526020017f373100000000000000000000000000000000000000000000000000000000000081525081565b6040518060400160405280600281526020017f383500000000000000000000000000000000000000000000000000000000000081525081565b6040518060400160405280600281526020017f323400000000000000000000000000000000000000000000000000000000000081525081565b6040518060400160405280600181526020017f310000000000000000000000000000000000000000000000000000000000000081525081565b6040518060400160405280600281526020017f353100000000000000000000000000000000000000000000000000000000000081525081565b6040518060400160405280600281526020017f343200000000000000000000000000000000000000000000000000000000000081525081565b6040518060400160405280600181526020017f340000000000000000000000000000000000000000000000000000000000000081525081565b6040518060400160405280600281526020017f323900000000000000000000000000000000000000000000000000000000000081525081565b6040518060400160405280600281526020017f333200000000000000000000000000000000000000000000000000000000000081525081565b6040518060400160405280600281526020017f353700000000000000000000000000000000000000000000000000000000000081525081565b6040518060400160405280600281526020017f373600000000000000000000000000000000000000000000000000000000000081525081565b6040518060400160405280600281526020017f373800000000000000000000000000000000000000000000000000000000000081525081565b6040518060400160405280600281526020017f353900000000000000000000000000000000000000000000000000000000000081525081565b6040518060400160405280600281526020017f383400000000000000000000000000000000000000000000000000000000000081525081565b6040518060400160405280600281526020017f383200000000000000000000000000000000000000000000000000000000000081525081565b6040518060400160405280600281526020017f373700000000000000000000000000000000000000000000000000000000000081525081565b6040518060400160405280600281526020017f373400000000000000000000000000000000000000000000000000000000000081525081565b6040518060400160405280600281526020017f363800000000000000000000000000000000000000000000000000000000000081525081565b6040518060400160405280600281526020017f363100000000000000000000000000000000000000000000000000000000000081525081565b6040518060400160405280600281526020017f333900000000000000000000000000000000000000000000000000000000000081525081565b6040518060400160405280600281526020017f373300000000000000000000000000000000000000000000000000000000000081525081565b6040518060400160405280600281526020017f363400000000000000000000000000000000000000000000000000000000000081525081565b6040518060400160405280600281526020017f383900000000000000000000000000000000000000000000000000000000000081525081565b6040518060400160405280600181526020017f370000000000000000000000000000000000000000000000000000000000000081525081565b6040518060400160405280600281526020017f333600000000000000000000000000000000000000000000000000000000000081525081565b6040518060400160405280600281526020017f383100000000000000000000000000000000000000000000000000000000000081525081565b6040518060400160405280600281526020017f393000000000000000000000000000000000000000000000000000000000000081525081565b6040518060400160405280600281526020017f333800000000000000000000000000000000000000000000000000000000000081525081565b6040518060400160405280600281526020017f353600000000000000000000000000000000000000000000000000000000000081525081565b6040518060400160405280600281526020017f313600000000000000000000000000000000000000000000000000000000000081525081565b6040518060400160405280600281526020017f363600000000000000000000000000000000000000000000000000000000000081525081565b6040518060400160405280600281526020017f323600000000000000000000000000000000000000000000000000000000000081525081565b6040518060400160405280600281526020017f393600000000000000000000000000000000000000000000000000000000000081525081565b6040518060400160405280600281526020017f373500000000000000000000000000000000000000000000000000000000000081525081565b6040518060400160405280600281526020017f313100000000000000000000000000000000000000000000000000000000000081525081565b600081519050919050565b600082825260208201905092915050565b60005b8381101561276f578082015181840152602081019050612754565b60008484015250505050565b6000601f19601f8301169050919050565b600061279782612735565b6127a18185612740565b93506127b1818560208601612751565b6127ba8161277b565b840191505092915050565b600060208201905081810360008301526127df818461278c565b90509291505056fea2646970667358221220c88d776f50de3508a4307dc51f2ff3e4c46721f373d1c70a6c4d14a57d42518864736f6c63430008110033","linkReferences":{}},"methodIdentifiers":{"ACL_ADMIN_CANNOT_BE_ZERO()":"fd1828ff","ADDRESSES_PROVIDER_ALREADY_ADDED()":"14dcfbbc","ADDRESSES_PROVIDER_NOT_REGISTERED()":"e02f07ee","AMOUNT_BIGGER_THAN_MAX_LOAN_SIZE_STABLE()":"f07f6785","ASSET_NOT_BORROWABLE_IN_ISOLATION()":"8596aad5","ASSET_NOT_LISTED()":"cd23367c","BORROWING_NOT_ENABLED()":"4ef999ff","BORROW_CAP_EXCEEDED()":"2eed17e8","BRIDGE_PROTOCOL_FEE_INVALID()":"7aa0767e","CALLER_MUST_BE_LENDING_GAUGE()":"16cf468e","CALLER_MUST_BE_POOL()":"471df685","CALLER_NOT_ASSET_LISTING_OR_POOL_ADMIN()":"2c8e3b4c","CALLER_NOT_BRIDGE()":"4f77647b","CALLER_NOT_EMERGENCY_ADMIN()":"485c8ff6","CALLER_NOT_HTOKEN()":"ff51bfd6","CALLER_NOT_POOL_ADMIN()":"ac753236","CALLER_NOT_POOL_CONFIGURATOR()":"61c111d2","CALLER_NOT_POOL_OR_EMERGENCY_ADMIN()":"26e7b312","CALLER_NOT_RISK_OR_POOL_ADMIN()":"b5e79366","COLLATERAL_BALANCE_IS_ZERO()":"4e01e3c1","COLLATERAL_CANNOT_BE_LIQUIDATED()":"895f7dc8","COLLATERAL_CANNOT_COVER_NEW_BORROW()":"e3fa20f5","COLLATERAL_SAME_AS_BORROWING_CURRENCY()":"8a344000","DEBT_CEILING_EXCEEDED()":"65a83bab","DEBT_CEILING_NOT_ZERO()":"e4dd8b74","EMODE_CATEGORY_RESERVED()":"f479ea11","FAILOVER_ALREADY_ACTIVE()":"20897425","FAILOVER_ALREADY_DEACTIVATED()":"0219aa59","FLASHLOAN_DISABLED()":"8aa3ca4c","FLASHLOAN_PREMIUM_INVALID()":"747fa556","HEALTH_FACTOR_LOWER_THAN_LIQUIDATION_THRESHOLD()":"366eb54d","HEALTH_FACTOR_NOT_BELOW_THRESHOLD()":"952633c5","INCONSISTENT_EMODE_CATEGORY()":"8f7722b2","INCONSISTENT_FLASHLOAN_PARAMS()":"73dea5e3","INCONSISTENT_PARAMS_LENGTH()":"bad8308c","INTEREST_RATE_REBALANCE_CONDITIONS_NOT_MET()":"2926c971","INVALID_ADDRESSES_PROVIDER()":"37930782","INVALID_ADDRESSES_PROVIDER_ID()":"60c3de80","INVALID_AMOUNT()":"fae82791","INVALID_BORROW_CAP()":"d6f9fcde","INVALID_BURN_AMOUNT()":"51267450","INVALID_DEBT_CEILING()":"dcc56db6","INVALID_DECIMALS()":"fa163a83","INVALID_EMODE_CATEGORY()":"a8c97853","INVALID_EMODE_CATEGORY_ASSIGNMENT()":"5d9c76c0","INVALID_EMODE_CATEGORY_PARAMS()":"47cf1523","INVALID_EXPIRATION()":"c08a1146","INVALID_FEE_TO_VAULT_PERCENT()":"5b8bda36","INVALID_FLASHLOAN_EXECUTOR_RETURN()":"7fea6f36","INVALID_INTEREST_RATE_MODE_SELECTED()":"89c5d45f","INVALID_LIQUIDATION_PROTOCOL_FEE()":"8eda46bd","INVALID_LIQ_BONUS()":"9527e9d9","INVALID_LIQ_THRESHOLD()":"dd1dd95f","INVALID_LTV()":"99ce53f3","INVALID_MINT_AMOUNT()":"abd351b1","INVALID_OPTIMAL_STABLE_TO_TOTAL_DEBT_RATIO()":"c899301a","INVALID_OPTIMAL_USAGE_RATIO()":"4e3aed37","INVALID_PHASES_LENGTH()":"a6bd8174","INVALID_RESERVE_FACTOR()":"a4868dca","INVALID_RESERVE_INDEX()":"d1cd8b1d","INVALID_RESERVE_PARAMS()":"335763de","INVALID_SIGNATURE()":"a3402a38","INVALID_SUPPLY_CAP()":"26bbd053","INVALID_UNBACKED_MINT_CAP()":"47ba93d8","LENDING_GAUGE_PERCENTAGE_NOT_MATCH()":"fb7957ca","LTV_VALIDATION_FAILED()":"b87041c2","MUST_BE_NON_NEGATIVE()":"5d610821","NOT_CONTRACT()":"11d7b006","NOT_ENOUGH_AVAILABLE_USER_BALANCE()":"b7f5e224","NO_DEBT_OF_SELECTED_TYPE()":"dc191bd9","NO_EXPLICIT_AMOUNT_TO_REPAY_ON_BEHALF()":"712f536a","NO_MORE_RESERVES_ALLOWED()":"76ae8fca","NO_OUTSTANDING_STABLE_DEBT()":"74459b14","NO_OUTSTANDING_VARIABLE_DEBT()":"b4a45730","OPERATION_NOT_SUPPORTED()":"8b8b98d7","PARAMETER_ADDRESS_NOT_ZERO()":"4ba7c90d","PHASES_NOT_DEFINED()":"a29bbd0a","POOL_ADDRESSES_DO_NOT_MATCH()":"1abbb001","PRICE_ORACLE_SENTINEL_CHECK_FAILED()":"c8638082","RESERVE_ALREADY_ADDED()":"12dcade8","RESERVE_ALREADY_INITIALIZED()":"d9adda85","RESERVE_DEBT_NOT_ZERO()":"e981483a","RESERVE_FROZEN()":"6cd3cfbc","RESERVE_INACTIVE()":"52ba9dbe","RESERVE_LIQUIDITY_NOT_ZERO()":"084dfa0d","RESERVE_PAUSED()":"b68774e9","SILOED_BORROWING_VIOLATION()":"de24948c","SPECIFIED_CURRENCY_NOT_BORROWED_BY_USER()":"22a73446","STABLE_BORROWING_ENABLED()":"198d6a6b","STABLE_BORROWING_NOT_ENABLED()":"4d86f393","STABLE_DEBT_NOT_ZERO()":"65e7ef4c","SUPPLY_CAP_EXCEEDED()":"b0510054","UNBACKED_MINT_CAP_EXCEEDED()":"6b3f7cc7","UNDERLYING_BALANCE_ZERO()":"a2797c80","UNDERLYING_CANNOT_BE_RESCUED()":"ab883ca0","UNDERLYING_CLAIMABLE_RIGHTS_NOT_ZERO()":"94f9fd8a","USER_IN_ISOLATION_MODE()":"744465cc","VARIABLE_DEBT_SUPPLY_NOT_ZERO()":"f10727db","ZERO_ADDRESS_NOT_VALID()":"d14bb17a"},"id":29}