{"abi":[{"type":"function","name":"ACL_ADMIN_CANNOT_BE_ZERO","inputs":[],"outputs":[{"name":"","type":"string","internalType":"string"}],"stateMutability":"view"},{"type":"function","name":"ADDRESSES_PROVIDER_ALREADY_ADDED","inputs":[],"outputs":[{"name":"","type":"string","internalType":"string"}],"stateMutability":"view"},{"type":"function","name":"ADDRESSES_PROVIDER_NOT_REGISTERED","inputs":[],"outputs":[{"name":"","type":"string","internalType":"string"}],"stateMutability":"view"},{"type":"function","name":"AMOUNT_BIGGER_THAN_MAX_LOAN_SIZE_STABLE","inputs":[],"outputs":[{"name":"","type":"string","internalType":"string"}],"stateMutability":"view"},{"type":"function","name":"ASSET_NOT_BORROWABLE_IN_ISOLATION","inputs":[],"outputs":[{"name":"","type":"string","internalType":"string"}],"stateMutability":"view"},{"type":"function","name":"ASSET_NOT_LISTED","inputs":[],"outputs":[{"name":"","type":"string","internalType":"string"}],"stateMutability":"view"},{"type":"function","name":"ATOKEN_SUPPLY_NOT_ZERO","inputs":[],"outputs":[{"name":"","type":"string","internalType":"string"}],"stateMutability":"view"},{"type":"function","name":"BORROWING_NOT_ENABLED","inputs":[],"outputs":[{"name":"","type":"string","internalType":"string"}],"stateMutability":"view"},{"type":"function","name":"BORROW_CAP_EXCEEDED","inputs":[],"outputs":[{"name":"","type":"string","internalType":"string"}],"stateMutability":"view"},{"type":"function","name":"BRIDGE_PROTOCOL_FEE_INVALID","inputs":[],"outputs":[{"name":"","type":"string","internalType":"string"}],"stateMutability":"view"},{"type":"function","name":"CALLER_MUST_BE_POOL","inputs":[],"outputs":[{"name":"","type":"string","internalType":"string"}],"stateMutability":"view"},{"type":"function","name":"CALLER_NOT_ASSET_LISTING_OR_POOL_ADMIN","inputs":[],"outputs":[{"name":"","type":"string","internalType":"string"}],"stateMutability":"view"},{"type":"function","name":"CALLER_NOT_ATOKEN","inputs":[],"outputs":[{"name":"","type":"string","internalType":"string"}],"stateMutability":"view"},{"type":"function","name":"CALLER_NOT_BRIDGE","inputs":[],"outputs":[{"name":"","type":"string","internalType":"string"}],"stateMutability":"view"},{"type":"function","name":"CALLER_NOT_EMERGENCY_ADMIN","inputs":[],"outputs":[{"name":"","type":"string","internalType":"string"}],"stateMutability":"view"},{"type":"function","name":"CALLER_NOT_POOL_ADMIN","inputs":[],"outputs":[{"name":"","type":"string","internalType":"string"}],"stateMutability":"view"},{"type":"function","name":"CALLER_NOT_POOL_CONFIGURATOR","inputs":[],"outputs":[{"name":"","type":"string","internalType":"string"}],"stateMutability":"view"},{"type":"function","name":"CALLER_NOT_POOL_OR_EMERGENCY_ADMIN","inputs":[],"outputs":[{"name":"","type":"string","internalType":"string"}],"stateMutability":"view"},{"type":"function","name":"CALLER_NOT_RISK_OR_POOL_ADMIN","inputs":[],"outputs":[{"name":"","type":"string","internalType":"string"}],"stateMutability":"view"},{"type":"function","name":"COLLATERAL_BALANCE_IS_ZERO","inputs":[],"outputs":[{"name":"","type":"string","internalType":"string"}],"stateMutability":"view"},{"type":"function","name":"COLLATERAL_CANNOT_BE_LIQUIDATED","inputs":[],"outputs":[{"name":"","type":"string","internalType":"string"}],"stateMutability":"view"},{"type":"function","name":"COLLATERAL_CANNOT_COVER_NEW_BORROW","inputs":[],"outputs":[{"name":"","type":"string","internalType":"string"}],"stateMutability":"view"},{"type":"function","name":"COLLATERAL_SAME_AS_BORROWING_CURRENCY","inputs":[],"outputs":[{"name":"","type":"string","internalType":"string"}],"stateMutability":"view"},{"type":"function","name":"DEBT_CEILING_EXCEEDED","inputs":[],"outputs":[{"name":"","type":"string","internalType":"string"}],"stateMutability":"view"},{"type":"function","name":"DEBT_CEILING_NOT_ZERO","inputs":[],"outputs":[{"name":"","type":"string","internalType":"string"}],"stateMutability":"view"},{"type":"function","name":"EMODE_CATEGORY_RESERVED","inputs":[],"outputs":[{"name":"","type":"string","internalType":"string"}],"stateMutability":"view"},{"type":"function","name":"FLASHLOAN_PREMIUM_INVALID","inputs":[],"outputs":[{"name":"","type":"string","internalType":"string"}],"stateMutability":"view"},{"type":"function","name":"HEALTH_FACTOR_LOWER_THAN_LIQUIDATION_THRESHOLD","inputs":[],"outputs":[{"name":"","type":"string","internalType":"string"}],"stateMutability":"view"},{"type":"function","name":"HEALTH_FACTOR_NOT_BELOW_THRESHOLD","inputs":[],"outputs":[{"name":"","type":"string","internalType":"string"}],"stateMutability":"view"},{"type":"function","name":"INCONSISTENT_EMODE_CATEGORY","inputs":[],"outputs":[{"name":"","type":"string","internalType":"string"}],"stateMutability":"view"},{"type":"function","name":"INCONSISTENT_FLASHLOAN_PARAMS","inputs":[],"outputs":[{"name":"","type":"string","internalType":"string"}],"stateMutability":"view"},{"type":"function","name":"INCONSISTENT_PARAMS_LENGTH","inputs":[],"outputs":[{"name":"","type":"string","internalType":"string"}],"stateMutability":"view"},{"type":"function","name":"INTEREST_RATE_REBALANCE_CONDITIONS_NOT_MET","inputs":[],"outputs":[{"name":"","type":"string","internalType":"string"}],"stateMutability":"view"},{"type":"function","name":"INVALID_ADDRESSES_PROVIDER","inputs":[],"outputs":[{"name":"","type":"string","internalType":"string"}],"stateMutability":"view"},{"type":"function","name":"INVALID_ADDRESSES_PROVIDER_ID","inputs":[],"outputs":[{"name":"","type":"string","internalType":"string"}],"stateMutability":"view"},{"type":"function","name":"INVALID_AMOUNT","inputs":[],"outputs":[{"name":"","type":"string","internalType":"string"}],"stateMutability":"view"},{"type":"function","name":"INVALID_BORROW_CAP","inputs":[],"outputs":[{"name":"","type":"string","internalType":"string"}],"stateMutability":"view"},{"type":"function","name":"INVALID_BURN_AMOUNT","inputs":[],"outputs":[{"name":"","type":"string","internalType":"string"}],"stateMutability":"view"},{"type":"function","name":"INVALID_DEBT_CEILING","inputs":[],"outputs":[{"name":"","type":"string","internalType":"string"}],"stateMutability":"view"},{"type":"function","name":"INVALID_DECIMALS","inputs":[],"outputs":[{"name":"","type":"string","internalType":"string"}],"stateMutability":"view"},{"type":"function","name":"INVALID_EMODE_CATEGORY","inputs":[],"outputs":[{"name":"","type":"string","internalType":"string"}],"stateMutability":"view"},{"type":"function","name":"INVALID_EMODE_CATEGORY_ASSIGNMENT","inputs":[],"outputs":[{"name":"","type":"string","internalType":"string"}],"stateMutability":"view"},{"type":"function","name":"INVALID_EMODE_CATEGORY_PARAMS","inputs":[],"outputs":[{"name":"","type":"string","internalType":"string"}],"stateMutability":"view"},{"type":"function","name":"INVALID_EXPIRATION","inputs":[],"outputs":[{"name":"","type":"string","internalType":"string"}],"stateMutability":"view"},{"type":"function","name":"INVALID_FLASHLOAN_EXECUTOR_RETURN","inputs":[],"outputs":[{"name":"","type":"string","internalType":"string"}],"stateMutability":"view"},{"type":"function","name":"INVALID_INTEREST_RATE_MODE_SELECTED","inputs":[],"outputs":[{"name":"","type":"string","internalType":"string"}],"stateMutability":"view"},{"type":"function","name":"INVALID_LIQUIDATION_PROTOCOL_FEE","inputs":[],"outputs":[{"name":"","type":"string","internalType":"string"}],"stateMutability":"view"},{"type":"function","name":"INVALID_LIQ_BONUS","inputs":[],"outputs":[{"name":"","type":"string","internalType":"string"}],"stateMutability":"view"},{"type":"function","name":"INVALID_LIQ_THRESHOLD","inputs":[],"outputs":[{"name":"","type":"string","internalType":"string"}],"stateMutability":"view"},{"type":"function","name":"INVALID_LTV","inputs":[],"outputs":[{"name":"","type":"string","internalType":"string"}],"stateMutability":"view"},{"type":"function","name":"INVALID_MINT_AMOUNT","inputs":[],"outputs":[{"name":"","type":"string","internalType":"string"}],"stateMutability":"view"},{"type":"function","name":"INVALID_OPTIMAL_STABLE_TO_TOTAL_DEBT_RATIO","inputs":[],"outputs":[{"name":"","type":"string","internalType":"string"}],"stateMutability":"view"},{"type":"function","name":"INVALID_OPTIMAL_USAGE_RATIO","inputs":[],"outputs":[{"name":"","type":"string","internalType":"string"}],"stateMutability":"view"},{"type":"function","name":"INVALID_RESERVE_FACTOR","inputs":[],"outputs":[{"name":"","type":"string","internalType":"string"}],"stateMutability":"view"},{"type":"function","name":"INVALID_RESERVE_INDEX","inputs":[],"outputs":[{"name":"","type":"string","internalType":"string"}],"stateMutability":"view"},{"type":"function","name":"INVALID_RESERVE_PARAMS","inputs":[],"outputs":[{"name":"","type":"string","internalType":"string"}],"stateMutability":"view"},{"type":"function","name":"INVALID_SIGNATURE","inputs":[],"outputs":[{"name":"","type":"string","internalType":"string"}],"stateMutability":"view"},{"type":"function","name":"INVALID_SUPPLY_CAP","inputs":[],"outputs":[{"name":"","type":"string","internalType":"string"}],"stateMutability":"view"},{"type":"function","name":"INVALID_UNBACKED_MINT_CAP","inputs":[],"outputs":[{"name":"","type":"string","internalType":"string"}],"stateMutability":"view"},{"type":"function","name":"LTV_VALIDATION_FAILED","inputs":[],"outputs":[{"name":"","type":"string","internalType":"string"}],"stateMutability":"view"},{"type":"function","name":"NOT_CONTRACT","inputs":[],"outputs":[{"name":"","type":"string","internalType":"string"}],"stateMutability":"view"},{"type":"function","name":"NOT_ENOUGH_AVAILABLE_USER_BALANCE","inputs":[],"outputs":[{"name":"","type":"string","internalType":"string"}],"stateMutability":"view"},{"type":"function","name":"NO_DEBT_OF_SELECTED_TYPE","inputs":[],"outputs":[{"name":"","type":"string","internalType":"string"}],"stateMutability":"view"},{"type":"function","name":"NO_EXPLICIT_AMOUNT_TO_REPAY_ON_BEHALF","inputs":[],"outputs":[{"name":"","type":"string","internalType":"string"}],"stateMutability":"view"},{"type":"function","name":"NO_MORE_RESERVES_ALLOWED","inputs":[],"outputs":[{"name":"","type":"string","internalType":"string"}],"stateMutability":"view"},{"type":"function","name":"NO_OUTSTANDING_STABLE_DEBT","inputs":[],"outputs":[{"name":"","type":"string","internalType":"string"}],"stateMutability":"view"},{"type":"function","name":"NO_OUTSTANDING_VARIABLE_DEBT","inputs":[],"outputs":[{"name":"","type":"string","internalType":"string"}],"stateMutability":"view"},{"type":"function","name":"OPERATION_NOT_SUPPORTED","inputs":[],"outputs":[{"name":"","type":"string","internalType":"string"}],"stateMutability":"view"},{"type":"function","name":"POOL_ADDRESSES_DO_NOT_MATCH","inputs":[],"outputs":[{"name":"","type":"string","internalType":"string"}],"stateMutability":"view"},{"type":"function","name":"PRICE_ORACLE_SENTINEL_CHECK_FAILED","inputs":[],"outputs":[{"name":"","type":"string","internalType":"string"}],"stateMutability":"view"},{"type":"function","name":"RESERVE_ALREADY_ADDED","inputs":[],"outputs":[{"name":"","type":"string","internalType":"string"}],"stateMutability":"view"},{"type":"function","name":"RESERVE_ALREADY_INITIALIZED","inputs":[],"outputs":[{"name":"","type":"string","internalType":"string"}],"stateMutability":"view"},{"type":"function","name":"RESERVE_DEBT_NOT_ZERO","inputs":[],"outputs":[{"name":"","type":"string","internalType":"string"}],"stateMutability":"view"},{"type":"function","name":"RESERVE_FROZEN","inputs":[],"outputs":[{"name":"","type":"string","internalType":"string"}],"stateMutability":"view"},{"type":"function","name":"RESERVE_INACTIVE","inputs":[],"outputs":[{"name":"","type":"string","internalType":"string"}],"stateMutability":"view"},{"type":"function","name":"RESERVE_LIQUIDITY_NOT_ZERO","inputs":[],"outputs":[{"name":"","type":"string","internalType":"string"}],"stateMutability":"view"},{"type":"function","name":"RESERVE_PAUSED","inputs":[],"outputs":[{"name":"","type":"string","internalType":"string"}],"stateMutability":"view"},{"type":"function","name":"SAME_BLOCK_BORROW_REPAY","inputs":[],"outputs":[{"name":"","type":"string","internalType":"string"}],"stateMutability":"view"},{"type":"function","name":"SILOED_BORROWING_VIOLATION","inputs":[],"outputs":[{"name":"","type":"string","internalType":"string"}],"stateMutability":"view"},{"type":"function","name":"SPECIFIED_CURRENCY_NOT_BORROWED_BY_USER","inputs":[],"outputs":[{"name":"","type":"string","internalType":"string"}],"stateMutability":"view"},{"type":"function","name":"STABLE_BORROWING_ENABLED","inputs":[],"outputs":[{"name":"","type":"string","internalType":"string"}],"stateMutability":"view"},{"type":"function","name":"STABLE_BORROWING_NOT_ENABLED","inputs":[],"outputs":[{"name":"","type":"string","internalType":"string"}],"stateMutability":"view"},{"type":"function","name":"STABLE_DEBT_NOT_ZERO","inputs":[],"outputs":[{"name":"","type":"string","internalType":"string"}],"stateMutability":"view"},{"type":"function","name":"SUPPLY_CAP_EXCEEDED","inputs":[],"outputs":[{"name":"","type":"string","internalType":"string"}],"stateMutability":"view"},{"type":"function","name":"UNBACKED_MINT_CAP_EXCEEDED","inputs":[],"outputs":[{"name":"","type":"string","internalType":"string"}],"stateMutability":"view"},{"type":"function","name":"UNDERLYING_BALANCE_ZERO","inputs":[],"outputs":[{"name":"","type":"string","internalType":"string"}],"stateMutability":"view"},{"type":"function","name":"UNDERLYING_CANNOT_BE_RESCUED","inputs":[],"outputs":[{"name":"","type":"string","internalType":"string"}],"stateMutability":"view"},{"type":"function","name":"USER_IN_ISOLATION_MODE","inputs":[],"outputs":[{"name":"","type":"string","internalType":"string"}],"stateMutability":"view"},{"type":"function","name":"VARIABLE_DEBT_SUPPLY_NOT_ZERO","inputs":[],"outputs":[{"name":"","type":"string","internalType":"string"}],"stateMutability":"view"},{"type":"function","name":"ZERO_ADDRESS_NOT_VALID","inputs":[],"outputs":[{"name":"","type":"string","internalType":"string"}],"stateMutability":"view"}],"bytecode":{"object":"0x612484610053600b82828239805160001a607314610046577f4e487b7100000000000000000000000000000000000000000000000000000000600052600060045260246000fd5b30600052607381538281f3fe73000000000000000000000000000000000000000030146080604052600436106104f85760003560e01c806389c5d45f11610298578063bad8308c11610171578063dd1dd95f116100e3578063f07f67851161009c578063f07f678514610ed5578063f10727db14610ef3578063f479ea1114610f11578063fa163a8314610f2f578063fae8279114610f4d578063fd1828ff14610f6b576104f8565b8063dd1dd95f14610e21578063de24948c14610e3f578063e02f07ee14610e5d578063e3fa20f514610e7b578063e4dd8b7414610e99578063e981483a14610eb7576104f8565b8063d14bb17a11610135578063d14bb17a14610d6d578063d1cd8b1d14610d8b578063d6f9fcde14610da9578063d9adda8514610dc7578063dc191bd914610de5578063dcc56db614610e03576104f8565b8063bad8308c14610cd7578063c08a114614610cf5578063c863808214610d13578063c899301a14610d31578063cd23367c14610d4f576104f8565b8063a4868dca1161020a578063b0510054116101ce578063b051005414610c23578063b4a4573014610c41578063b5e7936614610c5f578063b68774e914610c7d578063b7f5e22414610c9b578063b87041c214610cb9576104f8565b8063a4868dca14610b8d578063a8c9785314610bab578063ab883ca014610bc9578063abd351b114610be7578063ac75323614610c05576104f8565b8063952633c51161025c578063952633c514610ad95780639527e9d914610af757806399ce53f314610b15578063a2797c8014610b33578063a2e976c614610b51578063a3402a3814610b6f576104f8565b806389c5d45f14610a435780638a34400014610a615780638b8b98d714610a7f5780638eda46bd14610a9d5780638f7722b214610abb576104f8565b80634e3aed37116103d55780636b3f7cc711610347578063747fa55611610300578063747fa5561461098f57806376ae8fca146109ad5780637aa0767e146109cb5780637fea6f36146109e95780638596aad514610a07578063895f7dc814610a25576104f8565b80636b3f7cc7146108db5780636cd3cfbc146108f9578063712f536a1461091757806373dea5e314610935578063744465cc1461095357806374459b1414610971576104f8565b8063570e354711610399578063570e3547146108275780635d9c76c01461084557806360c3de801461086357806361c111d21461088157806365a83bab1461089f57806365e7ef4c146108bd576104f8565b80634e3aed37146107915780634ef999ff146107af5780634f77647b146107cd57806351267450146107eb57806352ba9dbe14610809576104f8565b80632eed17e81161046e578063471df68511610432578063471df685146106dd57806347ba93d8146106fb57806347cf152314610719578063485c8ff6146107375780634d86f393146107555780634e01e3c114610773576104f8565b80632eed17e814610647578063335763de14610665578063366eb54d1461068357806337930782146106a157806343e97c6b146106bf576104f8565b80631abbb001116104c05780631abbb0011461059357806322a73446146105b157806326bbd053146105cf57806326e7b312146105ed5780632926c9711461060b5780632c8e3b4c14610629576104f8565b8063084dfa0d146104fd57806311d7b0061461051b57806312dcade81461053957806314dcfbbc14610557578063198d6a6b14610575575b600080fd5b610505610f89565b604051610512919061242c565b60405180910390f35b610523610fc2565b604051610530919061242c565b60405180910390f35b610541610ffb565b60405161054e919061242c565b60405180910390f35b61055f611034565b60405161056c919061242c565b60405180910390f35b61057d61106d565b60405161058a919061242c565b60405180910390f35b61059b6110a6565b6040516105a8919061242c565b60405180910390f35b6105b96110df565b6040516105c6919061242c565b60405180910390f35b6105d7611118565b6040516105e4919061242c565b60405180910390f35b6105f5611151565b604051610602919061242c565b60405180910390f35b61061361118a565b604051610620919061242c565b60405180910390f35b6106316111c3565b60405161063e919061242c565b60405180910390f35b61064f6111fc565b60405161065c919061242c565b60405180910390f35b61066d611235565b60405161067a919061242c565b60405180910390f35b61068b61126e565b604051610698919061242c565b60405180910390f35b6106a96112a7565b6040516106b6919061242c565b60405180910390f35b6106c76112e0565b6040516106d4919061242c565b60405180910390f35b6106e5611319565b6040516106f2919061242c565b60405180910390f35b610703611352565b604051610710919061242c565b60405180910390f35b61072161138b565b60405161072e919061242c565b60405180910390f35b61073f6113c4565b60405161074c919061242c565b60405180910390f35b61075d6113fd565b60405161076a919061242c565b60405180910390f35b61077b611436565b604051610788919061242c565b60405180910390f35b61079961146f565b6040516107a6919061242c565b60405180910390f35b6107b76114a8565b6040516107c4919061242c565b60405180910390f35b6107d56114e1565b6040516107e2919061242c565b60405180910390f35b6107f361151a565b604051610800919061242c565b60405180910390f35b610811611553565b60405161081e919061242c565b60405180910390f35b61082f61158c565b60405161083c919061242c565b60405180910390f35b61084d6115c5565b60405161085a919061242c565b60405180910390f35b61086b6115fe565b604051610878919061242c565b60405180910390f35b610889611637565b604051610896919061242c565b60405180910390f35b6108a7611670565b6040516108b4919061242c565b60405180910390f35b6108c56116a9565b6040516108d2919061242c565b60405180910390f35b6108e36116e2565b6040516108f0919061242c565b60405180910390f35b61090161171b565b60405161090e919061242c565b60405180910390f35b61091f611754565b60405161092c919061242c565b60405180910390f35b61093d61178d565b60405161094a919061242c565b60405180910390f35b61095b6117c6565b604051610968919061242c565b60405180910390f35b6109796117ff565b604051610986919061242c565b60405180910390f35b610997611838565b6040516109a4919061242c565b60405180910390f35b6109b5611871565b6040516109c2919061242c565b60405180910390f35b6109d36118aa565b6040516109e0919061242c565b60405180910390f35b6109f16118e3565b6040516109fe919061242c565b60405180910390f35b610a0f61191c565b604051610a1c919061242c565b60405180910390f35b610a2d611955565b604051610a3a919061242c565b60405180910390f35b610a4b61198e565b604051610a58919061242c565b60405180910390f35b610a696119c7565b604051610a76919061242c565b60405180910390f35b610a87611a00565b604051610a94919061242c565b60405180910390f35b610aa5611a39565b604051610ab2919061242c565b60405180910390f35b610ac3611a72565b604051610ad0919061242c565b60405180910390f35b610ae1611aab565b604051610aee919061242c565b60405180910390f35b610aff611ae4565b604051610b0c919061242c565b60405180910390f35b610b1d611b1d565b604051610b2a919061242c565b60405180910390f35b610b3b611b56565b604051610b48919061242c565b60405180910390f35b610b59611b8f565b604051610b66919061242c565b60405180910390f35b610b77611bc8565b604051610b84919061242c565b60405180910390f35b610b95611c01565b604051610ba2919061242c565b60405180910390f35b610bb3611c3a565b604051610bc0919061242c565b60405180910390f35b610bd1611c73565b604051610bde919061242c565b60405180910390f35b610bef611cac565b604051610bfc919061242c565b60405180910390f35b610c0d611ce5565b604051610c1a919061242c565b60405180910390f35b610c2b611d1e565b604051610c38919061242c565b60405180910390f35b610c49611d57565b604051610c56919061242c565b60405180910390f35b610c67611d90565b604051610c74919061242c565b60405180910390f35b610c85611dc9565b604051610c92919061242c565b60405180910390f35b610ca3611e02565b604051610cb0919061242c565b60405180910390f35b610cc1611e3b565b604051610cce919061242c565b60405180910390f35b610cdf611e74565b604051610cec919061242c565b60405180910390f35b610cfd611ead565b604051610d0a919061242c565b60405180910390f35b610d1b611ee6565b604051610d28919061242c565b60405180910390f35b610d39611f1f565b604051610d46919061242c565b60405180910390f35b610d57611f58565b604051610d64919061242c565b60405180910390f35b610d75611f91565b604051610d82919061242c565b60405180910390f35b610d93611fca565b604051610da0919061242c565b60405180910390f35b610db1612003565b604051610dbe919061242c565b60405180910390f35b610dcf61203c565b604051610ddc919061242c565b60405180910390f35b610ded612075565b604051610dfa919061242c565b60405180910390f35b610e0b6120ae565b604051610e18919061242c565b60405180910390f35b610e296120e7565b604051610e36919061242c565b60405180910390f35b610e47612120565b604051610e54919061242c565b60405180910390f35b610e65612159565b604051610e72919061242c565b60405180910390f35b610e83612192565b604051610e90919061242c565b60405180910390f35b610ea16121cb565b604051610eae919061242c565b60405180910390f35b610ebf612204565b604051610ecc919061242c565b60405180910390f35b610edd61223d565b604051610eea919061242c565b60405180910390f35b610efb612276565b604051610f08919061242c565b60405180910390f35b610f196122af565b604051610f26919061242c565b60405180910390f35b610f376122e8565b604051610f44919061242c565b60405180910390f35b610f55612321565b604051610f62919061242c565b60405180910390f35b610f7361235a565b604051610f80919061242c565b60405180910390f35b6040518060400160405280600281526020017f313800000000000000000000000000000000000000000000000000000000000081525081565b6040518060400160405280600181526020017f390000000000000000000000000000000000000000000000000000000000000081525081565b6040518060400160405280600281526020017f313400000000000000000000000000000000000000000000000000000000000081525081565b6040518060400160405280600281526020017f383600000000000000000000000000000000000000000000000000000000000081525081565b6040518060400160405280600281526020017f383800000000000000000000000000000000000000000000000000000000000081525081565b6040518060400160405280600281526020017f383700000000000000000000000000000000000000000000000000000000000081525081565b6040518060400160405280600281526020017f343700000000000000000000000000000000000000000000000000000000000081525081565b6040518060400160405280600281526020017f363900000000000000000000000000000000000000000000000000000000000081525081565b6040518060400160405280600181526020017f330000000000000000000000000000000000000000000000000000000000000081525081565b6040518060400160405280600281526020017f343400000000000000000000000000000000000000000000000000000000000081525081565b6040518060400160405280600181526020017f350000000000000000000000000000000000000000000000000000000000000081525081565b6040518060400160405280600281526020017f353000000000000000000000000000000000000000000000000000000000000081525081565b6040518060400160405280600281526020017f323000000000000000000000000000000000000000000000000000000000000081525081565b6040518060400160405280600281526020017f333500000000000000000000000000000000000000000000000000000000000081525081565b6040518060400160405280600281526020017f313200000000000000000000000000000000000000000000000000000000000081525081565b6040518060400160405280600281526020017f353400000000000000000000000000000000000000000000000000000000000081525081565b6040518060400160405280600281526020017f323300000000000000000000000000000000000000000000000000000000000081525081565b6040518060400160405280600281526020017f373200000000000000000000000000000000000000000000000000000000000081525081565b6040518060400160405280600281526020017f323100000000000000000000000000000000000000000000000000000000000081525081565b6040518060400160405280600181526020017f320000000000000000000000000000000000000000000000000000000000000081525081565b6040518060400160405280600281526020017f333100000000000000000000000000000000000000000000000000000000000081525081565b6040518060400160405280600281526020017f333400000000000000000000000000000000000000000000000000000000000081525081565b6040518060400160405280600281526020017f383300000000000000000000000000000000000000000000000000000000000081525081565b6040518060400160405280600281526020017f333000000000000000000000000000000000000000000000000000000000000081525081565b6040518060400160405280600181526020017f360000000000000000000000000000000000000000000000000000000000000081525081565b6040518060400160405280600281526020017f323500000000000000000000000000000000000000000000000000000000000081525081565b6040518060400160405280600281526020017f323700000000000000000000000000000000000000000000000000000000000081525081565b6040518060400160405280600281526020017f343800000000000000000000000000000000000000000000000000000000000081525081565b6040518060400160405280600281526020017f313700000000000000000000000000000000000000000000000000000000000081525081565b6040518060400160405280600181526020017f380000000000000000000000000000000000000000000000000000000000000081525081565b6040518060400160405280600281526020017f313000000000000000000000000000000000000000000000000000000000000081525081565b6040518060400160405280600281526020017f353300000000000000000000000000000000000000000000000000000000000081525081565b6040518060400160405280600281526020017f353500000000000000000000000000000000000000000000000000000000000081525081565b6040518060400160405280600281526020017f353200000000000000000000000000000000000000000000000000000000000081525081565b6040518060400160405280600281526020017f323800000000000000000000000000000000000000000000000000000000000081525081565b6040518060400160405280600281526020017f343000000000000000000000000000000000000000000000000000000000000081525081565b6040518060400160405280600281526020017f343900000000000000000000000000000000000000000000000000000000000081525081565b6040518060400160405280600281526020017f363200000000000000000000000000000000000000000000000000000000000081525081565b6040518060400160405280600281526020017f343100000000000000000000000000000000000000000000000000000000000081525081565b6040518060400160405280600281526020017f313900000000000000000000000000000000000000000000000000000000000081525081565b6040518060400160405280600281526020017f313500000000000000000000000000000000000000000000000000000000000081525081565b6040518060400160405280600281526020017f323200000000000000000000000000000000000000000000000000000000000081525081565b6040518060400160405280600281526020017f313300000000000000000000000000000000000000000000000000000000000081525081565b6040518060400160405280600281526020017f363000000000000000000000000000000000000000000000000000000000000081525081565b6040518060400160405280600281526020017f343600000000000000000000000000000000000000000000000000000000000081525081565b6040518060400160405280600281526020017f333300000000000000000000000000000000000000000000000000000000000081525081565b6040518060400160405280600281526020017f333700000000000000000000000000000000000000000000000000000000000081525081565b6040518060400160405280600281526020017f383000000000000000000000000000000000000000000000000000000000000081525081565b6040518060400160405280600281526020017f373000000000000000000000000000000000000000000000000000000000000081525081565b6040518060400160405280600281526020017f353800000000000000000000000000000000000000000000000000000000000081525081565b6040518060400160405280600281526020017f343500000000000000000000000000000000000000000000000000000000000081525081565b6040518060400160405280600281526020017f363500000000000000000000000000000000000000000000000000000000000081525081565b6040518060400160405280600281526020017f363300000000000000000000000000000000000000000000000000000000000081525081565b6040518060400160405280600281526020017f343300000000000000000000000000000000000000000000000000000000000081525081565b6040518060400160405280600281526020017f313100000000000000000000000000000000000000000000000000000000000081525081565b6040518060400160405280600281526020017f373900000000000000000000000000000000000000000000000000000000000081525081565b6040518060400160405280600281526020017f363700000000000000000000000000000000000000000000000000000000000081525081565b6040518060400160405280600281526020017f373100000000000000000000000000000000000000000000000000000000000081525081565b6040518060400160405280600281526020017f383500000000000000000000000000000000000000000000000000000000000081525081565b6040518060400160405280600281526020017f323400000000000000000000000000000000000000000000000000000000000081525081565b6040518060400160405280600181526020017f310000000000000000000000000000000000000000000000000000000000000081525081565b6040518060400160405280600281526020017f353100000000000000000000000000000000000000000000000000000000000081525081565b6040518060400160405280600281526020017f343200000000000000000000000000000000000000000000000000000000000081525081565b6040518060400160405280600181526020017f340000000000000000000000000000000000000000000000000000000000000081525081565b6040518060400160405280600281526020017f323900000000000000000000000000000000000000000000000000000000000081525081565b6040518060400160405280600281526020017f333200000000000000000000000000000000000000000000000000000000000081525081565b6040518060400160405280600281526020017f353700000000000000000000000000000000000000000000000000000000000081525081565b6040518060400160405280600281526020017f373600000000000000000000000000000000000000000000000000000000000081525081565b6040518060400160405280600281526020017f373800000000000000000000000000000000000000000000000000000000000081525081565b6040518060400160405280600281526020017f353900000000000000000000000000000000000000000000000000000000000081525081565b6040518060400160405280600281526020017f383400000000000000000000000000000000000000000000000000000000000081525081565b6040518060400160405280600281526020017f383200000000000000000000000000000000000000000000000000000000000081525081565b6040518060400160405280600281526020017f373700000000000000000000000000000000000000000000000000000000000081525081565b6040518060400160405280600281526020017f373400000000000000000000000000000000000000000000000000000000000081525081565b6040518060400160405280600281526020017f363800000000000000000000000000000000000000000000000000000000000081525081565b6040518060400160405280600281526020017f363100000000000000000000000000000000000000000000000000000000000081525081565b6040518060400160405280600281526020017f333900000000000000000000000000000000000000000000000000000000000081525081565b6040518060400160405280600281526020017f373300000000000000000000000000000000000000000000000000000000000081525081565b6040518060400160405280600281526020017f363400000000000000000000000000000000000000000000000000000000000081525081565b6040518060400160405280600281526020017f383900000000000000000000000000000000000000000000000000000000000081525081565b6040518060400160405280600181526020017f370000000000000000000000000000000000000000000000000000000000000081525081565b6040518060400160405280600281526020017f333600000000000000000000000000000000000000000000000000000000000081525081565b6040518060400160405280600281526020017f383100000000000000000000000000000000000000000000000000000000000081525081565b6040518060400160405280600281526020017f393000000000000000000000000000000000000000000000000000000000000081525081565b6040518060400160405280600281526020017f333800000000000000000000000000000000000000000000000000000000000081525081565b6040518060400160405280600281526020017f353600000000000000000000000000000000000000000000000000000000000081525081565b6040518060400160405280600281526020017f313600000000000000000000000000000000000000000000000000000000000081525081565b6040518060400160405280600281526020017f363600000000000000000000000000000000000000000000000000000000000081525081565b6040518060400160405280600281526020017f323600000000000000000000000000000000000000000000000000000000000081525081565b6040518060400160405280600281526020017f373500000000000000000000000000000000000000000000000000000000000081525081565b600081519050919050565b600082825260208201905092915050565b60005b838110156123cd5780820151818401526020810190506123b2565b838111156123dc576000848401525b50505050565b6000601f19601f8301169050919050565b60006123fe82612393565b612408818561239e565b93506124188185602086016123af565b612421816123e2565b840191505092915050565b6000602082019050818103600083015261244681846123f3565b90509291505056fea2646970667358221220efc1d5f4da835b523622e27e1ba1b23888c478aea4c8521a924a5e513fc3b06064736f6c634300080a0033","linkReferences":{}},"methodIdentifiers":{"ACL_ADMIN_CANNOT_BE_ZERO()":"fd1828ff","ADDRESSES_PROVIDER_ALREADY_ADDED()":"14dcfbbc","ADDRESSES_PROVIDER_NOT_REGISTERED()":"e02f07ee","AMOUNT_BIGGER_THAN_MAX_LOAN_SIZE_STABLE()":"f07f6785","ASSET_NOT_BORROWABLE_IN_ISOLATION()":"8596aad5","ASSET_NOT_LISTED()":"cd23367c","ATOKEN_SUPPLY_NOT_ZERO()":"43e97c6b","BORROWING_NOT_ENABLED()":"4ef999ff","BORROW_CAP_EXCEEDED()":"2eed17e8","BRIDGE_PROTOCOL_FEE_INVALID()":"7aa0767e","CALLER_MUST_BE_POOL()":"471df685","CALLER_NOT_ASSET_LISTING_OR_POOL_ADMIN()":"2c8e3b4c","CALLER_NOT_ATOKEN()":"a2e976c6","CALLER_NOT_BRIDGE()":"4f77647b","CALLER_NOT_EMERGENCY_ADMIN()":"485c8ff6","CALLER_NOT_POOL_ADMIN()":"ac753236","CALLER_NOT_POOL_CONFIGURATOR()":"61c111d2","CALLER_NOT_POOL_OR_EMERGENCY_ADMIN()":"26e7b312","CALLER_NOT_RISK_OR_POOL_ADMIN()":"b5e79366","COLLATERAL_BALANCE_IS_ZERO()":"4e01e3c1","COLLATERAL_CANNOT_BE_LIQUIDATED()":"895f7dc8","COLLATERAL_CANNOT_COVER_NEW_BORROW()":"e3fa20f5","COLLATERAL_SAME_AS_BORROWING_CURRENCY()":"8a344000","DEBT_CEILING_EXCEEDED()":"65a83bab","DEBT_CEILING_NOT_ZERO()":"e4dd8b74","EMODE_CATEGORY_RESERVED()":"f479ea11","FLASHLOAN_PREMIUM_INVALID()":"747fa556","HEALTH_FACTOR_LOWER_THAN_LIQUIDATION_THRESHOLD()":"366eb54d","HEALTH_FACTOR_NOT_BELOW_THRESHOLD()":"952633c5","INCONSISTENT_EMODE_CATEGORY()":"8f7722b2","INCONSISTENT_FLASHLOAN_PARAMS()":"73dea5e3","INCONSISTENT_PARAMS_LENGTH()":"bad8308c","INTEREST_RATE_REBALANCE_CONDITIONS_NOT_MET()":"2926c971","INVALID_ADDRESSES_PROVIDER()":"37930782","INVALID_ADDRESSES_PROVIDER_ID()":"60c3de80","INVALID_AMOUNT()":"fae82791","INVALID_BORROW_CAP()":"d6f9fcde","INVALID_BURN_AMOUNT()":"51267450","INVALID_DEBT_CEILING()":"dcc56db6","INVALID_DECIMALS()":"fa163a83","INVALID_EMODE_CATEGORY()":"a8c97853","INVALID_EMODE_CATEGORY_ASSIGNMENT()":"5d9c76c0","INVALID_EMODE_CATEGORY_PARAMS()":"47cf1523","INVALID_EXPIRATION()":"c08a1146","INVALID_FLASHLOAN_EXECUTOR_RETURN()":"7fea6f36","INVALID_INTEREST_RATE_MODE_SELECTED()":"89c5d45f","INVALID_LIQUIDATION_PROTOCOL_FEE()":"8eda46bd","INVALID_LIQ_BONUS()":"9527e9d9","INVALID_LIQ_THRESHOLD()":"dd1dd95f","INVALID_LTV()":"99ce53f3","INVALID_MINT_AMOUNT()":"abd351b1","INVALID_OPTIMAL_STABLE_TO_TOTAL_DEBT_RATIO()":"c899301a","INVALID_OPTIMAL_USAGE_RATIO()":"4e3aed37","INVALID_RESERVE_FACTOR()":"a4868dca","INVALID_RESERVE_INDEX()":"d1cd8b1d","INVALID_RESERVE_PARAMS()":"335763de","INVALID_SIGNATURE()":"a3402a38","INVALID_SUPPLY_CAP()":"26bbd053","INVALID_UNBACKED_MINT_CAP()":"47ba93d8","LTV_VALIDATION_FAILED()":"b87041c2","NOT_CONTRACT()":"11d7b006","NOT_ENOUGH_AVAILABLE_USER_BALANCE()":"b7f5e224","NO_DEBT_OF_SELECTED_TYPE()":"dc191bd9","NO_EXPLICIT_AMOUNT_TO_REPAY_ON_BEHALF()":"712f536a","NO_MORE_RESERVES_ALLOWED()":"76ae8fca","NO_OUTSTANDING_STABLE_DEBT()":"74459b14","NO_OUTSTANDING_VARIABLE_DEBT()":"b4a45730","OPERATION_NOT_SUPPORTED()":"8b8b98d7","POOL_ADDRESSES_DO_NOT_MATCH()":"1abbb001","PRICE_ORACLE_SENTINEL_CHECK_FAILED()":"c8638082","RESERVE_ALREADY_ADDED()":"12dcade8","RESERVE_ALREADY_INITIALIZED()":"d9adda85","RESERVE_DEBT_NOT_ZERO()":"e981483a","RESERVE_FROZEN()":"6cd3cfbc","RESERVE_INACTIVE()":"52ba9dbe","RESERVE_LIQUIDITY_NOT_ZERO()":"084dfa0d","RESERVE_PAUSED()":"b68774e9","SAME_BLOCK_BORROW_REPAY()":"570e3547","SILOED_BORROWING_VIOLATION()":"de24948c","SPECIFIED_CURRENCY_NOT_BORROWED_BY_USER()":"22a73446","STABLE_BORROWING_ENABLED()":"198d6a6b","STABLE_BORROWING_NOT_ENABLED()":"4d86f393","STABLE_DEBT_NOT_ZERO()":"65e7ef4c","SUPPLY_CAP_EXCEEDED()":"b0510054","UNBACKED_MINT_CAP_EXCEEDED()":"6b3f7cc7","UNDERLYING_BALANCE_ZERO()":"a2797c80","UNDERLYING_CANNOT_BE_RESCUED()":"ab883ca0","USER_IN_ISOLATION_MODE()":"744465cc","VARIABLE_DEBT_SUPPLY_NOT_ZERO()":"f10727db","ZERO_ADDRESS_NOT_VALID()":"d14bb17a"},"id":23}