{"abi":[{"type":"constructor","inputs":[],"stateMutability":"nonpayable"},{"type":"receive","stateMutability":"payable"},{"type":"function","name":"MIM","inputs":[],"outputs":[{"name":"","type":"address","internalType":"address"}],"stateMutability":"view"},{"type":"function","name":"SUSHI_ROUTER","inputs":[],"outputs":[{"name":"","type":"address","internalType":"address"}],"stateMutability":"view"},{"type":"function","name":"TARGET","inputs":[],"outputs":[{"name":"","type":"address","internalType":"address"}],"stateMutability":"view"},{"type":"function","name":"UNISWAP_V2_ROUTER","inputs":[],"outputs":[{"name":"","type":"address","internalType":"address"}],"stateMutability":"view"},{"type":"function","name":"WETH","inputs":[],"outputs":[{"name":"","type":"address","internalType":"address"}],"stateMutability":"view"},{"type":"function","name":"addCollateralStageReached","inputs":[],"outputs":[{"name":"","type":"bool","internalType":"bool"}],"stateMutability":"view"},{"type":"function","name":"bentoBoxAddress","inputs":[],"outputs":[{"name":"","type":"address","internalType":"address"}],"stateMutability":"view"},{"type":"function","name":"borrowStageReached","inputs":[],"outputs":[{"name":"","type":"bool","internalType":"bool"}],"stateMutability":"view"},{"type":"function","name":"borrowedMimAmount","inputs":[],"outputs":[{"name":"","type":"uint256","internalType":"uint256"}],"stateMutability":"view"},{"type":"function","name":"borrowedMimShare","inputs":[],"outputs":[{"name":"","type":"uint256","internalType":"uint256"}],"stateMutability":"view"},{"type":"function","name":"cachedRateAfter","inputs":[],"outputs":[{"name":"","type":"uint256","internalType":"uint256"}],"stateMutability":"view"},{"type":"function","name":"cachedRateBefore","inputs":[],"outputs":[{"name":"","type":"uint256","internalType":"uint256"}],"stateMutability":"view"},{"type":"function","name":"collateralSeedAmount","inputs":[],"outputs":[{"name":"","type":"uint256","internalType":"uint256"}],"stateMutability":"view"},{"type":"function","name":"collateralShareAdded","inputs":[],"outputs":[{"name":"","type":"uint256","internalType":"uint256"}],"stateMutability":"view"},{"type":"function","name":"collateralToken","inputs":[],"outputs":[{"name":"","type":"address","internalType":"address"}],"stateMutability":"view"},{"type":"function","name":"directOracleRate","inputs":[],"outputs":[{"name":"","type":"uint256","internalType":"uint256"}],"stateMutability":"view"},{"type":"function","name":"directOracleSuccess","inputs":[],"outputs":[{"name":"","type":"bool","internalType":"bool"}],"stateMutability":"view"},{"type":"function","name":"execute","inputs":[],"outputs":[{"name":"","type":"uint256","internalType":"uint256"}],"stateMutability":"nonpayable"},{"type":"function","name":"executeAttempt","inputs":[],"outputs":[{"name":"","type":"uint256","internalType":"uint256"}],"stateMutability":"nonpayable"},{"type":"function","name":"executeOnOpportunity","inputs":[],"outputs":[{"name":"","type":"uint256","internalType":"uint256"}],"stateMutability":"nonpayable"},{"type":"function","name":"exploit","inputs":[],"outputs":[{"name":"","type":"uint256","internalType":"uint256"}],"stateMutability":"nonpayable"},{"type":"function","name":"feeTopUpSpentMim","inputs":[],"outputs":[{"name":"","type":"uint256","internalType":"uint256"}],"stateMutability":"view"},{"type":"function","name":"flashCollateralAmount","inputs":[],"outputs":[{"name":"","type":"uint256","internalType":"uint256"}],"stateMutability":"view"},{"type":"function","name":"flashCollateralFee","inputs":[],"outputs":[{"name":"","type":"uint256","internalType":"uint256"}],"stateMutability":"view"},{"type":"function","name":"hypothesisRefuted","inputs":[],"outputs":[{"name":"","type":"bool","internalType":"bool"}],"stateMutability":"view"},{"type":"function","name":"hypothesisValidated","inputs":[],"outputs":[{"name":"","type":"bool","internalType":"bool"}],"stateMutability":"view"},{"type":"function","name":"infeasibleReason","inputs":[],"outputs":[{"name":"","type":"bytes32","internalType":"bytes32"}],"stateMutability":"view"},{"type":"function","name":"liquidateStageReached","inputs":[],"outputs":[{"name":"","type":"bool","internalType":"bool"}],"stateMutability":"view"},{"type":"function","name":"liquidationBlocked","inputs":[],"outputs":[{"name":"","type":"bool","internalType":"bool"}],"stateMutability":"view"},{"type":"function","name":"onFlashLoan","inputs":[{"name":"sender","type":"address","internalType":"address"},{"name":"token","type":"address","internalType":"address"},{"name":"amount","type":"uint256","internalType":"uint256"},{"name":"fee","type":"uint256","internalType":"uint256"},{"name":"","type":"bytes","internalType":"bytes"}],"outputs":[],"stateMutability":"nonpayable"},{"type":"function","name":"oracleAddress","inputs":[],"outputs":[{"name":"","type":"address","internalType":"address"}],"stateMutability":"view"},{"type":"function","name":"oracleDataBlob","inputs":[],"outputs":[{"name":"","type":"bytes","internalType":"bytes"}],"stateMutability":"view"},{"type":"function","name":"oracleStageReached","inputs":[],"outputs":[{"name":"","type":"bool","internalType":"bool"}],"stateMutability":"view"},{"type":"function","name":"path0OracleReturnedTrueZeroOrTargetCachedZero","inputs":[],"outputs":[{"name":"","type":"bool","internalType":"bool"}],"stateMutability":"view"},{"type":"function","name":"path1UpdateExchangeRateCachedZero","inputs":[],"outputs":[{"name":"","type":"bool","internalType":"bool"}],"stateMutability":"view"},{"type":"function","name":"path2DustCollateralAddedThenBorrowed","inputs":[],"outputs":[{"name":"","type":"bool","internalType":"bool"}],"stateMutability":"view"},{"type":"function","name":"path3LiquidationBlockedAtZeroRate","inputs":[],"outputs":[{"name":"","type":"bool","internalType":"bool"}],"stateMutability":"view"},{"type":"function","name":"postBorrowSolvent","inputs":[],"outputs":[{"name":"","type":"bool","internalType":"bool"}],"stateMutability":"view"},{"type":"function","name":"profitAmount","inputs":[],"outputs":[{"name":"","type":"uint256","internalType":"uint256"}],"stateMutability":"view"},{"type":"function","name":"profitToken","inputs":[],"outputs":[{"name":"","type":"address","internalType":"address"}],"stateMutability":"pure"},{"type":"function","name":"removeCollateralStageReached","inputs":[],"outputs":[{"name":"","type":"bool","internalType":"bool"}],"stateMutability":"view"},{"type":"function","name":"residualCollateralShare","inputs":[],"outputs":[{"name":"","type":"uint256","internalType":"uint256"}],"stateMutability":"view"},{"type":"function","name":"run","inputs":[],"outputs":[{"name":"","type":"uint256","internalType":"uint256"}],"stateMutability":"nonpayable"},{"type":"function","name":"targetMimAmount","inputs":[],"outputs":[{"name":"","type":"uint256","internalType":"uint256"}],"stateMutability":"view"},{"type":"function","name":"targetMimShare","inputs":[],"outputs":[{"name":"","type":"uint256","internalType":"uint256"}],"stateMutability":"view"},{"type":"function","name":"updateRateStageReached","inputs":[],"outputs":[{"name":"","type":"bool","internalType":"bool"}],"stateMutability":"view"},{"type":"function","name":"zeroRateObserved","inputs":[],"outputs":[{"name":"","type":"bool","internalType":"bool"}],"stateMutability":"view"},{"type":"error","name":"Infeasible","inputs":[{"name":"reason","type":"bytes32","internalType":"bytes32"}]}],"bytecode":{"object":"0x6080604052348015600e575f5ffd5b506159078061001c5f395ff3fe60806040526004361061028b575f3560e01c80639348a23811610159578063bd3d49c5116100c0578063daec383d11610079578063daec383d1461094e578063de4226f614610978578063e3fc037b146109a2578063e7cda06d146109cc578063e8c28fee146109f6578063eb77ff0f14610a2057610292565b8063bd3d49c514610852578063c04062261461087c578063c957fb1f146108a6578063cc1f2afa146108d0578063d40d4fdf146108fa578063d5b5a5571461092457610292565b8063a89ae4ba11610112578063a89ae4ba14610756578063a8b81f5514610780578063ad5c4648146107aa578063ae7bbb9e146107d4578063b2016bd4146107fe578063b7021f771461082857610292565b80639348a2381461065a578063943b91d814610684578063a539b246146106ae578063a6652157146106d8578063a692768314610702578063a82ed9ec1461072c57610292565b806361461954116101fd5780637c27e19f116101b65780637c27e19f1461055e5780638469ff16146105885780638594a2fb146105b2578063892d0bd2146105dc5780638b4a719c146106065780638d0f8c871461063057610292565b806361461954146104625780636208fdd81461048c57806363d9b770146104b6578063668f67f1146104e05780636ce2b01d1461050a5780636d02b5ca1461053457610292565b8063463defd11161024f578063463defd1146103665780634934362414610390578063495f92f1146103ba57806358ea35a6146103e45780635a6e402b1461040e5780635ff972cc1461043857610292565b80630c24f4fa146102965780630c269f6e146102c057806323e30c8b146102ea5780633c2448ed146103125780634071084d1461033c57610292565b3661029257005b5f5ffd5b3480156102a1575f5ffd5b506102aa610a4a565b6040516102b79190614619565b60405180910390f35b3480156102cb575f5ffd5b506102d4610a62565b6040516102e1919061464a565b60405180910390f35b3480156102f5575f5ffd5b50610310600480360381019061030b9190614729565b610a68565b005b34801561031d575f5ffd5b5061032661138d565b604051610333919061464a565b60405180910390f35b348015610347575f5ffd5b5061035061139b565b60405161035d919061464a565b60405180910390f35b348015610371575f5ffd5b5061037a6113a1565b60405161038791906147d9565b60405180910390f35b34801561039b575f5ffd5b506103a46113b4565b6040516103b19190614619565b60405180910390f35b3480156103c5575f5ffd5b506103ce6113cf565b6040516103db91906147d9565b60405180910390f35b3480156103ef575f5ffd5b506103f86113e2565b60405161040591906147d9565b60405180910390f35b348015610419575f5ffd5b506104226113f5565b60405161042f919061464a565b60405180910390f35b348015610443575f5ffd5b5061044c6113fb565b604051610459919061464a565b60405180910390f35b34801561046d575f5ffd5b50610476611404565b604051610483919061464a565b60405180910390f35b348015610497575f5ffd5b506104a0611412565b6040516104ad919061464a565b60405180910390f35b3480156104c1575f5ffd5b506104ca611418565b6040516104d7919061464a565b60405180910390f35b3480156104eb575f5ffd5b506104f4611426565b60405161050191906147d9565b60405180910390f35b348015610515575f5ffd5b5061051e611438565b60405161052b919061464a565b60405180910390f35b34801561053f575f5ffd5b5061054861143e565b604051610555919061464a565b60405180910390f35b348015610569575f5ffd5b50610572611444565b60405161057f91906147d9565b60405180910390f35b348015610593575f5ffd5b5061059c611457565b6040516105a991906147d9565b60405180910390f35b3480156105bd575f5ffd5b506105c6611468565b6040516105d391906147d9565b60405180910390f35b3480156105e7575f5ffd5b506105f061147b565b6040516105fd919061464a565b60405180910390f35b348015610611575f5ffd5b5061061a611481565b604051610627919061464a565b60405180910390f35b34801561063b575f5ffd5b50610644611487565b604051610651919061464a565b60405180910390f35b348015610665575f5ffd5b5061066e61148d565b60405161067b91906147d9565b60405180910390f35b34801561068f575f5ffd5b506106986114a0565b6040516106a5919061464a565b60405180910390f35b3480156106b9575f5ffd5b506106c26114a6565b6040516106cf91906147d9565b60405180910390f35b3480156106e3575f5ffd5b506106ec6114b9565b6040516106f9919061480a565b60405180910390f35b34801561070d575f5ffd5b506107166114bf565b60405161072391906147d9565b60405180910390f35b348015610737575f5ffd5b506107406114d2565b60405161074d9190614619565b60405180910390f35b348015610761575f5ffd5b5061076a6114ea565b6040516107779190614619565b60405180910390f35b34801561078b575f5ffd5b5061079461150f565b6040516107a191906147d9565b60405180910390f35b3480156107b5575f5ffd5b506107be611522565b6040516107cb9190614619565b60405180910390f35b3480156107df575f5ffd5b506107e861153a565b6040516107f5919061464a565b60405180910390f35b348015610809575f5ffd5b50610812611d01565b60405161081f9190614619565b60405180910390f35b348015610833575f5ffd5b5061083c611d26565b60405161084991906147d9565b60405180910390f35b34801561085d575f5ffd5b50610866611d39565b604051610873919061464a565b60405180910390f35b348015610887575f5ffd5b50610890611d3f565b60405161089d919061464a565b60405180910390f35b3480156108b1575f5ffd5b506108ba611d4d565b6040516108c791906147d9565b60405180910390f35b3480156108db575f5ffd5b506108e4611d60565b6040516108f19190614619565b60405180910390f35b348015610905575f5ffd5b5061090e611d78565b60405161091b91906147d9565b60405180910390f35b34801561092f575f5ffd5b50610938611d8b565b60405161094591906147d9565b60405180910390f35b348015610959575f5ffd5b50610962611d9e565b60405161096f9190614619565b60405180910390f35b348015610983575f5ffd5b5061098c611db6565b604051610999919061464a565b60405180910390f35b3480156109ad575f5ffd5b506109b6611dbc565b6040516109c39190614893565b60405180910390f35b3480156109d7575f5ffd5b506109e0611e48565b6040516109ed919061464a565b60405180910390f35b348015610a01575f5ffd5b50610a0a611e4e565b604051610a1791906147d9565b60405180910390f35b348015610a2b575f5ffd5b50610a34611e61565b604051610a419190614619565b60405180910390f35b73d9e1ce17f2641f24ae83637ab66a2cca9c378b9f81565b60145481565b60025f9054906101000a900473ffffffffffffffffffffffffffffffffffffffff1673ffffffffffffffffffffffffffffffffffffffff163373ffffffffffffffffffffffffffffffffffffffff1614610afb57610afa6040518060400160405280601281526020017f6261642d62656e746f2d63616c6c6261636b0000000000000000000000000000815250611e86565b5b3073ffffffffffffffffffffffffffffffffffffffff168673ffffffffffffffffffffffffffffffffffffffff1614610b6d57610b6c6040518060400160405280601081526020017f6261642d666c6173682d73656e64657200000000000000000000000000000000815250611e86565b5b60045f9054906101000a900473ffffffffffffffffffffffffffffffffffffffff1673ffffffffffffffffffffffffffffffffffffffff168573ffffffffffffffffffffffffffffffffffffffff1614610c0057610bff6040518060400160405280600f81526020017f6261642d666c6173682d746f6b656e0000000000000000000000000000000000815250611e86565b5b82600f819055505f60025f9054906101000a900473ffffffffffffffffffffffffffffffffffffffff1690505f7346f54d434063e5f1a2b2cc6d9aaa657b1b9ff82c90508173ffffffffffffffffffffffffffffffffffffffff166302b9446c60045f9054906101000a900473ffffffffffffffffffffffffffffffffffffffff16307346f54d434063e5f1a2b2cc6d9aaa657b1b9ff82c8a5f6040518663ffffffff1660e01b8152600401610cba9594939291906148f5565b60408051808303815f875af1158015610cd5573d5f5f3e3d5ffd5b505050506040513d601f19601f82011682018060405250810190610cf9919061495a565b9050600c5f8291905055506001600c5411610d4d57610d4c6040518060400160405280601481526020017f647573742d73686172652d746f6f2d736d616c6c000000000000000000000000815250611e86565b5b8073ffffffffffffffffffffffffffffffffffffffff1663860ffea1306001600c546040518463ffffffff1660e01b8152600401610d8d93929190614998565b5f604051808303815f87803b158015610da4575f5ffd5b505af1158015610db6573d5f5f3e3d5ffd5b50505050600c548173ffffffffffffffffffffffffffffffffffffffff16631c9e379b306040518263ffffffff1660e01b8152600401610df69190614619565b602060405180830381865afa158015610e11573d5f5f3e3d5ffd5b505050506040513d601f19601f82011682018060405250810190610e3591906149cd565b10156006806101000a81548160ff02191690831515021790555060068054906101000a900460ff16610ea057610e9f6040518060400160405280601581526020017f6164642d636f6c6c61746572616c2d6661696c65640000000000000000000000815250611e86565b5b8073ffffffffffffffffffffffffffffffffffffffff16634b8a3529306010546040518363ffffffff1660e01b8152600401610edd9291906149f8565b60408051808303815f875af1158015610ef8573d5f5f3e3d5ffd5b505050506040513d601f19601f82011682018060405250810190610f1c919061495a565b905060115f8291905055505f6011541415600660076101000a81548160ff021916908315150217905550600660079054906101000a900460ff16610f9957610f986040518060400160405280601a81526020017f626f72726f772d72657475726e65642d7a65726f2d7368617265000000000000815250611e86565b5b8173ffffffffffffffffffffffffffffffffffffffff166397da6d307399d8a9c45b2eca8864373a26d1459e3dff1e17f330305f6011546040518663ffffffff1660e01b8152600401610ff0959493929190614a1f565b60408051808303815f875af115801561100b573d5f5f3e3d5ffd5b505050506040513d601f19601f8201168201806040525081019061102f919061495a565b50505f6011819055508073ffffffffffffffffffffffffffffffffffffffff166338b51ce1306040518263ffffffff1660e01b81526004016110719190614619565b602060405180830381865afa15801561108c573d5f5f3e3d5ffd5b505050506040513d601f19601f820116820180604052508101906110b09190614a9a565b6006600b6101000a81548160ff0219169083151502179055506006600b9054906101000a900460ff166110ff576110fe60405180606001604052806021815260200161588c60219139611e86565b5b60068054906101000a900460ff1680156111255750600660079054906101000a900460ff165b801561113d57506006600b9054906101000a900460ff165b600660026101000a81548160ff0219169083151502179055506111608183611eca565b61116981612182565b5f60045f9054906101000a900473ffffffffffffffffffffffffffffffffffffffff1673ffffffffffffffffffffffffffffffffffffffff166370a08231306040518263ffffffff1660e01b81526004016111c49190614619565b602060405180830381865afa1580156111df573d5f5f3e3d5ffd5b505050506040513d601f19601f8201168201806040525081019061120391906149cd565b905085876112119190614af2565b81101561132a575f8187896112269190614af2565b6112309190614b25565b905061123b81612767565b60045f9054906101000a900473ffffffffffffffffffffffffffffffffffffffff1673ffffffffffffffffffffffffffffffffffffffff166370a08231306040518263ffffffff1660e01b81526004016112959190614619565b602060405180830381865afa1580156112b0573d5f5f3e3d5ffd5b505050506040513d601f19601f820116820180604052508101906112d491906149cd565b915086886112e29190614af2565b821015611328576113276040518060400160405280601c81526020017f666c6173682d6c6f616e2d6665652d6e6f742d636f76657261626c6500000000815250611e86565b5b505b61138260045f9054906101000a900473ffffffffffffffffffffffffffffffffffffffff1660025f9054906101000a900473ffffffffffffffffffffffffffffffffffffffff16888a61137d9190614af2565b6129db565b505050505050505050565b5f611396612b2a565b905090565b600c5481565b6006600e9054906101000a900460ff1681565b5f7399d8a9c45b2eca8864373a26d1459e3dff1e17f3905090565b6006600f9054906101000a900460ff1681565b600660019054906101000a900460ff1681565b600f5481565b5f600154905090565b5f61140d612b2a565b905090565b60115481565b5f611421612b2a565b905090565b60065f9054906101000a900460ff1681565b60095481565b60085481565b600660079054906101000a900460ff1681565b60068054906101000a900460ff1681565b600660089054906101000a900460ff1681565b600e5481565b600d5481565b60135481565b600660099054906101000a900460ff1681565b600a5481565b600660059054906101000a900460ff1681565b60075481565b600660039054906101000a900460ff1681565b737a250d5630b4cf539739df2c5dacb4c659f2488d81565b60035f9054906101000a900473ffffffffffffffffffffffffffffffffffffffff1681565b6006600d9054906101000a900460ff1681565b73c02aaa39b223fe8d0a0e5c4f27ead9083c756cc281565b5f3073ffffffffffffffffffffffffffffffffffffffff163373ffffffffffffffffffffffffffffffffffffffff16146115e7576040518060400160405280600e81526020017f73656c662d63616c6c2d6f6e6c79000000000000000000000000000000000000815250805190602001206040517f5c9c02660000000000000000000000000000000000000000000000000000000081526004016115de919061480a565b60405180910390fd5b5f7346f54d434063e5f1a2b2cc6d9aaa657b1b9ff82c90508073ffffffffffffffffffffffffffffffffffffffff16633ba0b9a96040518163ffffffff1660e01b8152600401602060405180830381865afa158015611648573d5f5f3e3d5ffd5b505050506040513d601f19601f8201168201806040525081019061166c91906149cd565b60098190555061167a612d25565b5f8173ffffffffffffffffffffffffffffffffffffffff166302ce728f6040518163ffffffff1660e01b815260040160408051808303815f875af11580156116c4573d5f5f3e3d5ffd5b505050506040513d601f19601f820116820180604052508101906116e89190614b58565b9150508173ffffffffffffffffffffffffffffffffffffffff16633ba0b9a96040518163ffffffff1660e01b8152600401602060405180830381865afa158015611734573d5f5f3e3d5ffd5b505050506040513d601f19601f8201168201806040525081019061175891906149cd565b600a819055505f600a5414158061176f57505f8114155b156117b3576117b26040518060400160405280601d81526020017f6f7261636c652d6e657665722d6361636865642d7a65726f2d72617465000000815250611e86565b5b60016006600c6101000a81548160ff0219169083151502179055506001600660046101000a81548160ff0219169083151502179055505f600954148061181257506006600d9054906101000a900460ff16801561181157505f600854145b5b8061181c57505f81145b60065f6101000a81548160ff0219169083151502179055506001600660056101000a81548160ff0219169083151502179055506001600660016101000a81548160ff021916908315150217905550611872612e8c565b600e81905550600e54600b819055505f600e54036118c9576118c86040518060400160405280601b81526020017f647573742d636f6c6c61746572616c2d756e617661696c61626c650000000000815250611e86565b5b60025f9054906101000a900473ffffffffffffffffffffffffffffffffffffffff1673ffffffffffffffffffffffffffffffffffffffff1663f7888aec7399d8a9c45b2eca8864373a26d1459e3dff1e17f37346f54d434063e5f1a2b2cc6d9aaa657b1b9ff82c6040518363ffffffff1660e01b815260040161194d929190614b96565b602060405180830381865afa158015611968573d5f5f3e3d5ffd5b505050506040513d601f19601f8201168201806040525081019061198c91906149cd565b60128190555060025f9054906101000a900473ffffffffffffffffffffffffffffffffffffffff1673ffffffffffffffffffffffffffffffffffffffff1663566231187399d8a9c45b2eca8864373a26d1459e3dff1e17f36012545f6040518463ffffffff1660e01b8152600401611a0693929190614bbd565b602060405180830381865afa158015611a21573d5f5f3e3d5ffd5b505050506040513d601f19601f82011682018060405250810190611a4591906149cd565b601381905550611a5782601354613065565b6010819055505f60105403611aa557611aa46040518060400160405280601f81526020017f696e73756666696369656e742d6c6976652d6d696d2d6c697175696469747900815250611e86565b5b60025f9054906101000a900473ffffffffffffffffffffffffffffffffffffffff1673ffffffffffffffffffffffffffffffffffffffff1663f1676d37303060045f9054906101000a900473ffffffffffffffffffffffffffffffffffffffff16600e5460405180602001604052805f8152506040518663ffffffff1660e01b8152600401611b38959493929190614c44565b5f604051808303815f87803b158015611b4f575f5ffd5b505af1158015611b61573d5f5f3e3d5ffd5b505050507399d8a9c45b2eca8864373a26d1459e3dff1e17f373ffffffffffffffffffffffffffffffffffffffff166370a08231306040518263ffffffff1660e01b8152600401611bb29190614619565b602060405180830381865afa158015611bcd573d5f5f3e3d5ffd5b505050506040513d601f19601f82011682018060405250810190611bf191906149cd565b60018190555060065f9054906101000a900460ff168015611c1e5750600660019054906101000a900460ff165b8015611c365750600660029054906101000a900460ff165b8015611c4e5750600660039054906101000a900460ff165b8015611c6657506006600b9054906101000a900460ff165b8015611c7e57506006600a9054906101000a900460ff165b8015611c8b57505f600154115b6006600e6101000a81548160ff0219169083151502179055506006600e9054906101000a900460ff16611cf757611cf66040518060400160405280601281526020017f706174682d6e6f742d636f6d706c657465640000000000000000000000000000815250611e86565b5b6001549250505090565b60045f9054906101000a900473ffffffffffffffffffffffffffffffffffffffff1681565b6006600a9054906101000a900460ff1681565b600b5481565b5f611d48612b2a565b905090565b600660029054906101000a900460ff1681565b7346f54d434063e5f1a2b2cc6d9aaa657b1b9ff82c81565b6006600c9054906101000a900460ff1681565b6006600b9054906101000a900460ff1681565b7399d8a9c45b2eca8864373a26d1459e3dff1e17f381565b60125481565b60058054611dc990614cc9565b80601f0160208091040260200160405190810160405280929190818152602001828054611df590614cc9565b8015611e405780601f10611e1757610100808354040283529160200191611e40565b820191905f5260205f20905b815481529060010190602001808311611e2357829003601f168201915b505050505081565b60105481565b600660049054906101000a900460ff1681565b60025f9054906101000a900473ffffffffffffffffffffffffffffffffffffffff1681565b80805190602001206040517f5c9c0266000000000000000000000000000000000000000000000000000000008152600401611ec1919061480a565b60405180910390fd5b6001600d819055505f8273ffffffffffffffffffffffffffffffffffffffff16631c9e379b306040518263ffffffff1660e01b8152600401611f0c9190614619565b602060405180830381865afa158015611f27573d5f5f3e3d5ffd5b505050506040513d601f19601f82011682018060405250810190611f4b91906149cd565b9050600d548111611f7857611f776040518060600160405280602581526020016158ad60259139611e86565b5b5f600d5482611f879190614b25565b90508373ffffffffffffffffffffffffffffffffffffffff1663876467f830836040518363ffffffff1660e01b8152600401611fc49291906149f8565b5f604051808303815f87803b158015611fdb575f5ffd5b505af1158015611fed573d5f5f3e3d5ffd5b50505050600d548473ffffffffffffffffffffffffffffffffffffffff16631c9e379b306040518263ffffffff1660e01b815260040161202d9190614619565b602060405180830381865afa158015612048573d5f5f3e3d5ffd5b505050506040513d601f19601f8201168201806040525081019061206c91906149cd565b14600660086101000a81548160ff021916908315150217905550600660089054906101000a900460ff166120d9576120d86040518060400160405280601881526020017f72656d6f76652d636f6c6c61746572616c2d6661696c65640000000000000000815250611e86565b5b8273ffffffffffffffffffffffffffffffffffffffff166397da6d3060045f9054906101000a900473ffffffffffffffffffffffffffffffffffffffff1630305f866040518663ffffffff1660e01b815260040161213b959493929190614a1f565b60408051808303815f875af1158015612156573d5f5f3e3d5ffd5b505050506040513d601f19601f8201168201806040525081019061217a919061495a565b505050505050565b5f600167ffffffffffffffff81111561219e5761219d614cf9565b5b6040519080825280602002602001820160405280156121cc5781602001602082028036833780820191505090505b50905030815f815181106121e3576121e2614d26565b5b602002602001019073ffffffffffffffffffffffffffffffffffffffff16908173ffffffffffffffffffffffffffffffffffffffff16815250505f600167ffffffffffffffff81111561223957612238614cf9565b5b6040519080825280602002602001820160405280156122675781602001602082028036833780820191505090505b5090508273ffffffffffffffffffffffffffffffffffffffff166348e4163e306040518263ffffffff1660e01b81526004016122a39190614619565b602060405180830381865afa1580156122be573d5f5f3e3d5ffd5b505050506040513d601f19601f820116820180604052508101906122e291906149cd565b815f815181106122f5576122f4614d26565b5b6020026020010181815250505f815f8151811061231557612314614d26565b5b602002602001015190505f8473ffffffffffffffffffffffffffffffffffffffff16631c9e379b306040518263ffffffff1660e01b81526004016123599190614619565b602060405180830381865afa158015612374573d5f5f3e3d5ffd5b505050506040513d601f19601f8201168201806040525081019061239891906149cd565b90505f5f8673ffffffffffffffffffffffffffffffffffffffff1663ff6ff84b60e01b8787305f60405180602001604052805f8152506040516024016123e2959493929190614ec1565b604051602081830303815290604052907bffffffffffffffffffffffffffffffffffffffffffffffffffffffff19166020820180517bffffffffffffffffffffffffffffffffffffffffffffffffffffffff838183161783525050505060405161244c9190614f61565b5f604051808303815f865af19150503d805f8114612485576040519150601f19603f3d011682016040523d82523d5f602084013e61248a565b606091505b50915091506001600660096101000a81548160ff0219169083151502179055505f8773ffffffffffffffffffffffffffffffffffffffff166348e4163e306040518263ffffffff1660e01b81526004016124e49190614619565b602060405180830381865afa1580156124ff573d5f5f3e3d5ffd5b505050506040513d601f19601f8201168201806040525081019061252391906149cd565b90505f8873ffffffffffffffffffffffffffffffffffffffff16631c9e379b306040518263ffffffff1660e01b815260040161255f9190614619565b602060405180830381865afa15801561257a573d5f5f3e3d5ffd5b505050506040513d601f19601f8201168201806040525081019061259e91906149cd565b90508315801561263257506125b283613398565b8061263157508873ffffffffffffffffffffffffffffffffffffffff166338b51ce1306040518263ffffffff1660e01b81526004016125f19190614619565b602060405180830381865afa15801561260c573d5f5f3e3d5ffd5b505050506040513d601f19601f820116820180604052508101906126309190614a9a565b5b5b80612650575083801561264457508582145b801561264f57508481145b5b6006600a6101000a81548160ff0219169083151502179055506006600a9054906101000a900460ff1680156126f057505f8973ffffffffffffffffffffffffffffffffffffffff16633ba0b9a96040518163ffffffff1660e01b8152600401602060405180830381865afa1580156126ca573d5f5f3e3d5ffd5b505050506040513d601f19601f820116820180604052508101906126ee91906149cd565b145b600660036101000a81548160ff0219169083151502179055506006600a9054906101000a900460ff1661275c5761275b6040518060400160405280601781526020017f6c69717569646174696f6e2d6e6f742d626c6f636b6564000000000000000000815250611e86565b5b505050505050505050565b5f8103156129d8575f7399d8a9c45b2eca8864373a26d1459e3dff1e17f373ffffffffffffffffffffffffffffffffffffffff166370a08231306040518263ffffffff1660e01b81526004016127bd9190614619565b602060405180830381865afa1580156127d8573d5f5f3e3d5ffd5b505050506040513d601f19601f820116820180604052508101906127fc91906149cd565b90505f8103612844576128436040518060400160405280601c81526020017f666c6173682d6c6f616e2d6665652d6e6f742d636f76657261626c6500000000815250611e86565b5b6128977399d8a9c45b2eca8864373a26d1459e3dff1e17f373d9e1ce17f2641f24ae83637ab66a2cca9c378b9f7fffffffffffffffffffffffffffffffffffffffffffffffffffffffffffffffff613536565b6128ea7399d8a9c45b2eca8864373a26d1459e3dff1e17f3737a250d5630b4cf539739df2c5dacb4c659f2488d7fffffffffffffffffffffffffffffffffffffffffffffffffffffffffffffffff613536565b61290a73d9e1ce17f2641f24ae83637ab66a2cca9c378b9f83835f6135db565b1561291557506129d8565b61293673d9e1ce17f2641f24ae83637ab66a2cca9c378b9f838360016135db565b1561294157506129d8565b612961737a250d5630b4cf539739df2c5dacb4c659f2488d83835f6135db565b1561296c57506129d8565b61298d737a250d5630b4cf539739df2c5dacb4c659f2488d838360016135db565b1561299857506129d8565b6129d66040518060400160405280601c81526020017f666c6173682d6c6f616e2d6665652d6e6f742d636f76657261626c6500000000815250611e86565b505b50565b5f5f8473ffffffffffffffffffffffffffffffffffffffff1663a9059cbb60e01b8585604051602401612a0f9291906149f8565b604051602081830303815290604052907bffffffffffffffffffffffffffffffffffffffffffffffffffffffff19166020820180517bffffffffffffffffffffffffffffffffffffffffffffffffffffffff8381831617835250505050604051612a799190614f61565b5f604051808303815f865af19150503d805f8114612ab2576040519150601f19603f3d011682016040523d82523d5f602084013e612ab7565b606091505b5091509150818015612ae457505f81511480612ae3575080806020019051810190612ae29190614a9a565b5b5b612b23576040517f08c379a0000000000000000000000000000000000000000000000000000000008152600401612b1a90614fd1565b60405180910390fd5b5050505050565b5f5f5f9054906101000a900460ff1615612b48576001549050612d22565b60015f5f6101000a81548160ff021916908315150217905550612b69613be5565b612bd35760016006600f6101000a81548160ff0219169083151502179055506040518060400160405280601281526020017f7461726765742d6c6f61642d6661696c65640000000000000000000000000000815250805190602001206007819055505f9050612d22565b612bdb613efe565b612be3614109565b5f5f3073ffffffffffffffffffffffffffffffffffffffff1663ae7bbb9e60e01b604051602401604051602081830303815290604052907bffffffffffffffffffffffffffffffffffffffffffffffffffffffff19166020820180517bffffffffffffffffffffffffffffffffffffffffffffffffffffffff8381831617835250505050604051612c749190614f61565b5f604051808303815f865af19150503d805f8114612cad576040519150601f19603f3d011682016040523d82523d5f602084013e612cb2565b606091505b509150915081612cf757612cc581614178565b60078190555060016006600f6101000a81548160ff0219169083151502179055505f6001819055505f92505050612d22565b5f5f1b6007819055505f6006600f6101000a81548160ff021916908315150217905550600154925050505b90565b60035f9054906101000a900473ffffffffffffffffffffffffffffffffffffffff1673ffffffffffffffffffffffffffffffffffffffff1663d6d7d52560056040518263ffffffff1660e01b8152600401612d809190615082565b60408051808303815f875af1925050508015612dba57506040513d601f19601f82011682018060405250810190612db79190614b58565b60015b612e04575f6006600d6101000a81548160ff0219169083151502179055507fffffffffffffffffffffffffffffffffffffffffffffffffffffffffffffffff600881905550612e8a565b816006600d6101000a81548160ff02191690831515021790555080600881905550818015612e3157505f81145b15612e875760016006600c6101000a81548160ff0219169083151502179055506001600660046101000a81548160ff021916908315150217905550600160065f6101000a81548160ff0219169083151502179055505b50505b565b5f5f60025f9054906101000a900473ffffffffffffffffffffffffffffffffffffffff1690505f60045f9054906101000a900473ffffffffffffffffffffffffffffffffffffffff1673ffffffffffffffffffffffffffffffffffffffff166370a0823160025f9054906101000a900473ffffffffffffffffffffffffffffffffffffffff166040518263ffffffff1660e01b8152600401612f2e9190614619565b602060405180830381865afa158015612f49573d5f5f3e3d5ffd5b505050506040513d601f19601f82011682018060405250810190612f6d91906149cd565b9050600192505f5f90505b601281101561305b575f8373ffffffffffffffffffffffffffffffffffffffff1663da5139ca60045f9054906101000a900473ffffffffffffffffffffffffffffffffffffffff16875f6040518463ffffffff1660e01b8152600401612fe093929190614bbd565b602060405180830381865afa158015612ffb573d5f5f3e3d5ffd5b505050506040513d601f19601f8201168201806040525081019061301f91906149cd565b905060018111801561303057508285105b1561303e5750505050613062565b600a8561304b91906150a2565b9450508080600101915050612f78565b505f925050505b90565b5f60018211613076575f9050613392565b6001826130839190614b25565b90505f5f5f5f5f5f5f8973ffffffffffffffffffffffffffffffffffffffff1663e551d11d6040518163ffffffff1660e01b81526004016040805180830381865afa9250505080156130f357506040513d601f19601f820116820180604052508101906130f09190615128565b60015b15613105578198508097506001935050505b8973ffffffffffffffffffffffffffffffffffffffff16638285ef406040518163ffffffff1660e01b81526004016040805180830381865afa92505050801561316c57506040513d601f19601f820116820180604052508101906131699190615128565b60015b1561317e578196508095506001925050505b8973ffffffffffffffffffffffffffffffffffffffff1663aba024f46040518163ffffffff1660e01b8152600401602060405180830381865afa9250505080156131e657506040513d601f19601f820116820180604052508101906131e391906149cd565b60015b6131f2575f92506131f7565b809350505b8180156132275750846fffffffffffffffffffffffffffffffff16876fffffffffffffffffffffffffffffffff16115b1561327b575f856fffffffffffffffffffffffffffffffff16886fffffffffffffffffffffffffffffffff1661325d9190614b25565b90505f61326a828661422a565b905089811015613278578099505b50505b81801561329a57505f866fffffffffffffffffffffffffffffffff1614155b15613371575f8180156132bf57505f866fffffffffffffffffffffffffffffffff1614155b80156132dd57505f856fffffffffffffffffffffffffffffffff1614155b15613344575f856fffffffffffffffffffffffffffffffff16876fffffffffffffffffffffffffffffffff16896fffffffffffffffffffffffffffffffff1661332691906150a2565b6133309190615193565b905061333c818661422a565b915050613363565b613360876fffffffffffffffffffffffffffffffff168561422a565b90505b8881101561336f578098505b505b600188111561338a576001886133879190614b25565b97505b505050505050505b92915050565b5f6044825110156133ab575f9050613531565b5f602083015190506308c379a060e01b817bffffffffffffffffffffffffffffffffffffffffffffffffffffffff1916146133e9575f915050613531565b5f600484516133f89190614b25565b67ffffffffffffffff81111561341157613410614cf9565b5b6040519080825280601f01601f1916602001820160405280156134435781602001600182028036833780820191505090505b5090505f600490505b84518110156134cd5784818151811061346857613467614d26565b5b602001015160f81c60f81b826004836134819190614b25565b8151811061349257613491614d26565b5b60200101907effffffffffffffffffffffffffffffffffffffffffffffffffffffffffffff191690815f1a905350808060010191505061344c565b505f818060200190518101906134e391906152b0565b90506040518060400160405280601981526020017f4361756c64726f6e3a20616c6c2061726520736f6c76656e74000000000000008152508051906020012081805190602001201493505050505b919050565b8273ffffffffffffffffffffffffffffffffffffffff1663dd62ed3e30846040518363ffffffff1660e01b8152600401613571929190614b96565b602060405180830381865afa9250505080156135ab57506040513d601f19601f820116820180604052508101906135a891906149cd565b60015b156135bf578181106135bd57506135d6565b505b6135ca83835f61426b565b6135d583838361426b565b5b505050565b5f606082156137db5773c02aaa39b223fe8d0a0e5c4f27ead9083c756cc273ffffffffffffffffffffffffffffffffffffffff1660045f9054906101000a900473ffffffffffffffffffffffffffffffffffffffff1673ffffffffffffffffffffffffffffffffffffffff1603613655575f915050613bdd565b600367ffffffffffffffff8111156136705761366f614cf9565b5b60405190808252806020026020018201604052801561369e5781602001602082028036833780820191505090505b5090507399d8a9c45b2eca8864373a26d1459e3dff1e17f3815f815181106136c9576136c8614d26565b5b602002602001019073ffffffffffffffffffffffffffffffffffffffff16908173ffffffffffffffffffffffffffffffffffffffff168152505073c02aaa39b223fe8d0a0e5c4f27ead9083c756cc28160018151811061372c5761372b614d26565b5b602002602001019073ffffffffffffffffffffffffffffffffffffffff16908173ffffffffffffffffffffffffffffffffffffffff168152505060045f9054906101000a900473ffffffffffffffffffffffffffffffffffffffff168160028151811061379c5761379b614d26565b5b602002602001019073ffffffffffffffffffffffffffffffffffffffff16908173ffffffffffffffffffffffffffffffffffffffff16815250506138fa565b600267ffffffffffffffff8111156137f6576137f5614cf9565b5b6040519080825280602002602001820160405280156138245781602001602082028036833780820191505090505b5090507399d8a9c45b2eca8864373a26d1459e3dff1e17f3815f8151811061384f5761384e614d26565b5b602002602001019073ffffffffffffffffffffffffffffffffffffffff16908173ffffffffffffffffffffffffffffffffffffffff168152505060045f9054906101000a900473ffffffffffffffffffffffffffffffffffffffff16816001815181106138bf576138be614d26565b5b602002602001019073ffffffffffffffffffffffffffffffffffffffff16908173ffffffffffffffffffffffffffffffffffffffff16815250505b5f8673ffffffffffffffffffffffffffffffffffffffff16631f00ca7487846040518363ffffffff1660e01b81526004016139369291906152f7565b5f60405180830381865afa92505050801561397357506040513d5f823e3d601f19601f8201168201806040525081019061397091906153e5565b60015b613981575f92505050613bdd565b805f8151811061399457613993614d26565b5b60200260200101519150505f8114806139ac57508481115b156139bb575f92505050613bdd565b5f7399d8a9c45b2eca8864373a26d1459e3dff1e17f373ffffffffffffffffffffffffffffffffffffffff166370a08231306040518263ffffffff1660e01b8152600401613a099190614619565b602060405180830381865afa158015613a24573d5f5f3e3d5ffd5b505050506040513d601f19601f82011682018060405250810190613a4891906149cd565b90508773ffffffffffffffffffffffffffffffffffffffff16638803dbee88888630426040518663ffffffff1660e01b8152600401613a8b95949392919061542c565b5f604051808303815f875af1925050508015613ac957506040513d5f823e3d601f19601f82011682018060405250810190613ac691906153e5565b60015b613ad8575f9350505050613bdd565b5f7399d8a9c45b2eca8864373a26d1459e3dff1e17f373ffffffffffffffffffffffffffffffffffffffff166370a08231306040518263ffffffff1660e01b8152600401613b269190614619565b602060405180830381865afa158015613b41573d5f5f3e3d5ffd5b505050506040513d601f19601f82011682018060405250810190613b6591906149cd565b905080831115613b97578083613b7b9190614b25565b60145f828254613b8b9190614af2565b92505081905550613bd3565b5f825114613bd257815f81518110613bb257613bb1614d26565b5b602002602001015160145f828254613bca9190614af2565b925050819055505b5b6001955050505050505b949350505050565b5f5f5f5f5f6060613c117346f54d434063e5f1a2b2cc6d9aaa657b1b9ff82c639b352ae160e01b6143ba565b8096508197505050851580613c6657507399d8a9c45b2eca8864373a26d1459e3dff1e17f373ffffffffffffffffffffffffffffffffffffffff168573ffffffffffffffffffffffffffffffffffffffff1614155b15613c78575f95505050505050613efb565b613c9d7346f54d434063e5f1a2b2cc6d9aaa657b1b9ff82c636b2ace8760e01b6143ba565b809550819750505085613cb7575f95505050505050613efb565b613cdc7346f54d434063e5f1a2b2cc6d9aaa657b1b9ff82c637dc0d1d060e01b6143ba565b809450819750505085613cf6575f95505050505050613efb565b613d1b7346f54d434063e5f1a2b2cc6d9aaa657b1b9ff82c63d8dfeb4560e01b6143ba565b809350819750505085613d35575f95505050505050613efb565b613d5a7346f54d434063e5f1a2b2cc6d9aaa657b1b9ff82c6374645ff360e01b6144ca565b809250819750505085613d74575f95505050505050613efb565b5f73ffffffffffffffffffffffffffffffffffffffff168473ffffffffffffffffffffffffffffffffffffffff161480613dd957505f73ffffffffffffffffffffffffffffffffffffffff168373ffffffffffffffffffffffffffffffffffffffff16145b80613e0f57505f73ffffffffffffffffffffffffffffffffffffffff168273ffffffffffffffffffffffffffffffffffffffff16145b15613e21575f95505050505050613efb565b8360025f6101000a81548173ffffffffffffffffffffffffffffffffffffffff021916908373ffffffffffffffffffffffffffffffffffffffff1602179055508260035f6101000a81548173ffffffffffffffffffffffffffffffffffffffff021916908373ffffffffffffffffffffffffffffffffffffffff1602179055508160045f6101000a81548173ffffffffffffffffffffffffffffffffffffffff021916908373ffffffffffffffffffffffffffffffffffffffff1602179055508060059081613ef09190615609565b506001955050505050505b90565b5f60065f6101000a81548160ff0219169083151502179055505f600660016101000a81548160ff0219169083151502179055505f600660026101000a81548160ff0219169083151502179055505f600660036101000a81548160ff0219169083151502179055505f600660046101000a81548160ff0219169083151502179055505f600660056101000a81548160ff0219169083151502179055505f6006806101000a81548160ff0219169083151502179055505f600660076101000a81548160ff0219169083151502179055505f600660086101000a81548160ff0219169083151502179055505f600660096101000a81548160ff0219169083151502179055505f6006600a6101000a81548160ff0219169083151502179055505f6006600b6101000a81548160ff0219169083151502179055505f6006600c6101000a81548160ff0219169083151502179055505f6006600d6101000a81548160ff0219169083151502179055505f6006600e6101000a81548160ff0219169083151502179055505f6006600f6101000a81548160ff0219169083151502179055505f5f1b6007819055505f6008819055505f6009819055505f600a819055505f600b819055505f600c819055505f600d819055505f600e819055505f600f819055505f6010819055505f6011819055505f6012819055505f6013819055505f6014819055505f600181905550565b61417660045f9054906101000a900473ffffffffffffffffffffffffffffffffffffffff1660025f9054906101000a900473ffffffffffffffffffffffffffffffffffffffff167fffffffffffffffffffffffffffffffffffffffffffffffffffffffffffffffff613536565b565b5f60248251106141e5575f60208301519050635c9c026660e01b7bffffffffffffffffffffffffffffffffffffffffffffffffffffffff1916817bffffffffffffffffffffffffffffffffffffffffffffffffffffffff1916036141e3576044830151915050614225565b505b6040518060400160405280601081526020017f617474656d70742d7265766572746564000000000000000000000000000000008152508051906020012090505b919050565b5f5f830361423a575f9050614265565b81620186a06142499190614af2565b620186a08461425891906150a2565b6142629190615193565b90505b92915050565b5f5f8473ffffffffffffffffffffffffffffffffffffffff1663095ea7b360e01b858560405160240161429f9291906149f8565b604051602081830303815290604052907bffffffffffffffffffffffffffffffffffffffffffffffffffffffff19166020820180517bffffffffffffffffffffffffffffffffffffffffffffffffffffffff83818316178352505050506040516143099190614f61565b5f604051808303815f865af19150503d805f8114614342576040519150601f19603f3d011682016040523d82523d5f602084013e614347565b606091505b509150915081801561437457505f815114806143735750808060200190518101906143729190614a9a565b5b5b6143b3576040517f08c379a00000000000000000000000000000000000000000000000000000000081526004016143aa90615722565b60405180910390fd5b5050505050565b5f5f60608473ffffffffffffffffffffffffffffffffffffffff1684604051602401604051602081830303815290604052907bffffffffffffffffffffffffffffffffffffffffffffffffffffffff19166020820180517bffffffffffffffffffffffffffffffffffffffffffffffffffffffff83818316178352505050506040516144469190614f61565b5f60405180830381855afa9150503d805f811461447e576040519150601f19603f3d011682016040523d82523d5f602084013e614483565b606091505b50809250819450505082158061449a575060208151105b156144ab575f5f92509250506144c3565b808060200190518101906144bf919061577b565b9150505b9250929050565b5f6060808473ffffffffffffffffffffffffffffffffffffffff1684604051602401604051602081830303815290604052907bffffffffffffffffffffffffffffffffffffffffffffffffffffffff19166020820180517bffffffffffffffffffffffffffffffffffffffffffffffffffffffff83818316178352505050506040516145569190614f61565b5f60405180830381855afa9150503d805f811461458e576040519150601f19603f3d011682016040523d82523d5f602084013e614593565b606091505b508092508194505050826145bb575f60405180602001604052805f81525092509250506145d3565b808060200190518101906145cf9190615844565b9150505b9250929050565b5f73ffffffffffffffffffffffffffffffffffffffff82169050919050565b5f614603826145da565b9050919050565b614613816145f9565b82525050565b5f60208201905061462c5f83018461460a565b92915050565b5f819050919050565b61464481614632565b82525050565b5f60208201905061465d5f83018461463b565b92915050565b5f604051905090565b5f5ffd5b5f5ffd5b61467d816145f9565b8114614687575f5ffd5b50565b5f8135905061469881614674565b92915050565b6146a781614632565b81146146b1575f5ffd5b50565b5f813590506146c28161469e565b92915050565b5f5ffd5b5f5ffd5b5f5ffd5b5f5f83601f8401126146e9576146e86146c8565b5b8235905067ffffffffffffffff811115614706576147056146cc565b5b602083019150836001820283011115614722576147216146d0565b5b9250929050565b5f5f5f5f5f5f60a087890312156147435761474261466c565b5b5f61475089828a0161468a565b965050602061476189828a0161468a565b955050604061477289828a016146b4565b945050606061478389828a016146b4565b935050608087013567ffffffffffffffff8111156147a4576147a3614670565b5b6147b089828a016146d4565b92509250509295509295509295565b5f8115159050919050565b6147d3816147bf565b82525050565b5f6020820190506147ec5f8301846147ca565b92915050565b5f819050919050565b614804816147f2565b82525050565b5f60208201905061481d5f8301846147fb565b92915050565b5f81519050919050565b5f82825260208201905092915050565b8281835e5f83830152505050565b5f601f19601f8301169050919050565b5f61486582614823565b61486f818561482d565b935061487f81856020860161483d565b6148888161484b565b840191505092915050565b5f6020820190508181035f8301526148ab818461485b565b905092915050565b5f819050919050565b5f819050919050565b5f6148df6148da6148d5846148b3565b6148bc565b614632565b9050919050565b6148ef816148c5565b82525050565b5f60a0820190506149085f83018861460a565b614915602083018761460a565b614922604083018661460a565b61492f606083018561463b565b61493c60808301846148e6565b9695505050505050565b5f815190506149548161469e565b92915050565b5f5f604083850312156149705761496f61466c565b5b5f61497d85828601614946565b925050602061498e85828601614946565b9150509250929050565b5f6060820190506149ab5f83018661460a565b6149b860208301856147ca565b6149c5604083018461463b565b949350505050565b5f602082840312156149e2576149e161466c565b5b5f6149ef84828501614946565b91505092915050565b5f604082019050614a0b5f83018561460a565b614a18602083018461463b565b9392505050565b5f60a082019050614a325f83018861460a565b614a3f602083018761460a565b614a4c604083018661460a565b614a5960608301856148e6565b614a66608083018461463b565b9695505050505050565b614a79816147bf565b8114614a83575f5ffd5b50565b5f81519050614a9481614a70565b92915050565b5f60208284031215614aaf57614aae61466c565b5b5f614abc84828501614a86565b91505092915050565b7f4e487b71000000000000000000000000000000000000000000000000000000005f52601160045260245ffd5b5f614afc82614632565b9150614b0783614632565b9250828201905080821115614b1f57614b1e614ac5565b5b92915050565b5f614b2f82614632565b9150614b3a83614632565b9250828203905081811115614b5257614b51614ac5565b5b92915050565b5f5f60408385031215614b6e57614b6d61466c565b5b5f614b7b85828601614a86565b9250506020614b8c85828601614946565b9150509250929050565b5f604082019050614ba95f83018561460a565b614bb6602083018461460a565b9392505050565b5f606082019050614bd05f83018661460a565b614bdd602083018561463b565b614bea60408301846147ca565b949350505050565b5f614c0c614c07614c02846145da565b6148bc565b6145da565b9050919050565b5f614c1d82614bf2565b9050919050565b5f614c2e82614c13565b9050919050565b614c3e81614c24565b82525050565b5f60a082019050614c575f830188614c35565b614c64602083018761460a565b614c71604083018661460a565b614c7e606083018561463b565b8181036080830152614c90818461485b565b90509695505050505050565b7f4e487b71000000000000000000000000000000000000000000000000000000005f52602260045260245ffd5b5f6002820490506001821680614ce057607f821691505b602082108103614cf357614cf2614c9c565b5b50919050565b7f4e487b71000000000000000000000000000000000000000000000000000000005f52604160045260245ffd5b7f4e487b71000000000000000000000000000000000000000000000000000000005f52603260045260245ffd5b5f81519050919050565b5f82825260208201905092915050565b5f819050602082019050919050565b614d85816145f9565b82525050565b5f614d968383614d7c565b60208301905092915050565b5f602082019050919050565b5f614db882614d53565b614dc28185614d5d565b9350614dcd83614d6d565b805f5b83811015614dfd578151614de48882614d8b565b9750614def83614da2565b925050600181019050614dd0565b5085935050505092915050565b5f81519050919050565b5f82825260208201905092915050565b5f819050602082019050919050565b614e3c81614632565b82525050565b5f614e4d8383614e33565b60208301905092915050565b5f602082019050919050565b5f614e6f82614e0a565b614e798185614e14565b9350614e8483614e24565b805f5b83811015614eb4578151614e9b8882614e42565b9750614ea683614e59565b925050600181019050614e87565b5085935050505092915050565b5f60a0820190508181035f830152614ed98188614dae565b90508181036020830152614eed8187614e65565b9050614efc604083018661460a565b614f09606083018561460a565b8181036080830152614f1b818461485b565b90509695505050505050565b5f81905092915050565b5f614f3b82614823565b614f458185614f27565b9350614f5581856020860161483d565b80840191505092915050565b5f614f6c8284614f31565b915081905092915050565b5f82825260208201905092915050565b7f7472616e736665722d6661696c656400000000000000000000000000000000005f82015250565b5f614fbb600f83614f77565b9150614fc682614f87565b602082019050919050565b5f6020820190508181035f830152614fe881614faf565b9050919050565b5f819050815f5260205f209050919050565b5f815461500d81614cc9565b615017818661482d565b9450600182165f8114615031576001811461504757615079565b60ff198316865281151560200286019350615079565b61505085614fef565b5f5b8381101561507157815481890152600182019150602081019050615052565b808801955050505b50505092915050565b5f6020820190508181035f83015261509a8184615001565b905092915050565b5f6150ac82614632565b91506150b783614632565b92508282026150c581614632565b915082820484148315176150dc576150db614ac5565b5b5092915050565b5f6fffffffffffffffffffffffffffffffff82169050919050565b615107816150e3565b8114615111575f5ffd5b50565b5f81519050615122816150fe565b92915050565b5f5f6040838503121561513e5761513d61466c565b5b5f61514b85828601615114565b925050602061515c85828601615114565b9150509250929050565b7f4e487b71000000000000000000000000000000000000000000000000000000005f52601260045260245ffd5b5f61519d82614632565b91506151a883614632565b9250826151b8576151b7615166565b5b828204905092915050565b5f5ffd5b6151d08261484b565b810181811067ffffffffffffffff821117156151ef576151ee614cf9565b5b80604052505050565b5f615201614663565b905061520d82826151c7565b919050565b5f67ffffffffffffffff82111561522c5761522b614cf9565b5b6152358261484b565b9050602081019050919050565b5f61525461524f84615212565b6151f8565b9050828152602081018484840111156152705761526f6151c3565b5b61527b84828561483d565b509392505050565b5f82601f830112615297576152966146c8565b5b81516152a7848260208601615242565b91505092915050565b5f602082840312156152c5576152c461466c565b5b5f82015167ffffffffffffffff8111156152e2576152e1614670565b5b6152ee84828501615283565b91505092915050565b5f60408201905061530a5f83018561463b565b818103602083015261531c8184614dae565b90509392505050565b5f67ffffffffffffffff82111561533f5761533e614cf9565b5b602082029050602081019050919050565b5f61536261535d84615325565b6151f8565b90508083825260208201905060208402830185811115615385576153846146d0565b5b835b818110156153ae578061539a8882614946565b845260208401935050602081019050615387565b5050509392505050565b5f82601f8301126153cc576153cb6146c8565b5b81516153dc848260208601615350565b91505092915050565b5f602082840312156153fa576153f961466c565b5b5f82015167ffffffffffffffff81111561541757615416614670565b5b615423848285016153b8565b91505092915050565b5f60a08201905061543f5f83018861463b565b61544c602083018761463b565b818103604083015261545e8186614dae565b905061546d606083018561460a565b61547a608083018461463b565b9695505050505050565b5f6020601f8301049050919050565b5f82821b905092915050565b5f600883026154ce7fffffffffffffffffffffffffffffffffffffffffffffffffffffffffffffffff82615493565b6154d88683615493565b95508019841693508086168417925050509392505050565b5f61550a61550561550084614632565b6148bc565b614632565b9050919050565b5f819050919050565b615523836154f0565b61553761552f82615511565b84845461549f565b825550505050565b5f5f905090565b61554e61553f565b61555981848461551a565b505050565b5b8181101561557c576155715f82615546565b60018101905061555f565b5050565b601f8211156155c15761559281614fef565b61559b84615484565b810160208510156155aa578190505b6155be6155b685615484565b83018261555e565b50505b505050565b5f82821c905092915050565b5f6155e15f19846008026155c6565b1980831691505092915050565b5f6155f983836155d2565b9150826002028217905092915050565b61561282614823565b67ffffffffffffffff81111561562b5761562a614cf9565b5b6156358254614cc9565b615640828285615580565b5f60209050601f831160018114615671575f841561565f578287015190505b61566985826155ee565b8655506156d0565b601f19841661567f86614fef565b5f5b828110156156a657848901518255600182019150602085019450602081019050615681565b868310156156c357848901516156bf601f8916826155d2565b8355505b6001600288020188555050505b505050505050565b7f617070726f76652d6661696c65640000000000000000000000000000000000005f82015250565b5f61570c600e83614f77565b9150615717826156d8565b602082019050919050565b5f6020820190508181035f83015261573981615700565b9050919050565b5f61574a826145da565b9050919050565b61575a81615740565b8114615764575f5ffd5b50565b5f8151905061577581615751565b92915050565b5f602082840312156157905761578f61466c565b5b5f61579d84828501615767565b91505092915050565b5f67ffffffffffffffff8211156157c0576157bf614cf9565b5b6157c98261484b565b9050602081019050919050565b5f6157e86157e3846157a6565b6151f8565b905082815260208101848484011115615804576158036151c3565b5b61580f84828561483d565b509392505050565b5f82601f83011261582b5761582a6146c8565b5b815161583b8482602086016157d6565b91505092915050565b5f602082840312156158595761585861466c565b5b5f82015167ffffffffffffffff81111561587657615875614670565b5b61588284828501615817565b9150509291505056fe626f72726f7765722d6e6f742d736f6c76656e742d61667465722d626f72726f77696e73756666696369656e742d636f6c6c61746572616c2d746f2d6c656176652d64757374a264697066735822122032866ef080ca1d73146e64f7958335082c0d17ae73f2b323c2bd0320208c2a9764736f6c634300081e0033","linkReferences":{}},"methodIdentifiers":{"MIM()":"daec383d","SUSHI_ROUTER()":"0c24f4fa","TARGET()":"cc1f2afa","UNISWAP_V2_ROUTER()":"a82ed9ec","WETH()":"ad5c4648","addCollateralStageReached()":"8469ff16","bentoBoxAddress()":"eb77ff0f","borrowStageReached()":"7c27e19f","borrowedMimAmount()":"e7cda06d","borrowedMimShare()":"6208fdd8","cachedRateAfter()":"943b91d8","cachedRateBefore()":"6ce2b01d","collateralSeedAmount()":"bd3d49c5","collateralShareAdded()":"4071084d","collateralToken()":"b2016bd4","directOracleRate()":"6d02b5ca","directOracleSuccess()":"a8b81f55","execute()":"61461954","executeAttempt()":"ae7bbb9e","executeOnOpportunity()":"3c2448ed","exploit()":"63d9b770","feeTopUpSpentMim()":"0c269f6e","flashCollateralAmount()":"892d0bd2","flashCollateralFee()":"5a6e402b","hypothesisRefuted()":"495f92f1","hypothesisValidated()":"463defd1","infeasibleReason()":"a6652157","liquidateStageReached()":"9348a238","liquidationBlocked()":"b7021f77","onFlashLoan(address,address,uint256,uint256,bytes)":"23e30c8b","oracleAddress()":"a89ae4ba","oracleDataBlob()":"e3fc037b","oracleStageReached()":"e8c28fee","path0OracleReturnedTrueZeroOrTargetCachedZero()":"668f67f1","path1UpdateExchangeRateCachedZero()":"58ea35a6","path2DustCollateralAddedThenBorrowed()":"c957fb1f","path3LiquidationBlockedAtZeroRate()":"a6927683","postBorrowSolvent()":"d5b5a557","profitAmount()":"5ff972cc","profitToken()":"49343624","removeCollateralStageReached()":"8594a2fb","residualCollateralShare()":"8b4a719c","run()":"c0406226","targetMimAmount()":"8d0f8c87","targetMimShare()":"de4226f6","updateRateStageReached()":"a539b246","zeroRateObserved()":"d40d4fdf"},"id":0}