{"abi":[{"type":"constructor","inputs":[],"stateMutability":"nonpayable"},{"type":"receive","stateMutability":"payable"},{"type":"function","name":"executeOnOpportunity","inputs":[],"outputs":[],"stateMutability":"nonpayable"},{"type":"function","name":"exploitPath","inputs":[],"outputs":[{"name":"","type":"string","internalType":"string"}],"stateMutability":"view"},{"type":"function","name":"pancakeCall","inputs":[{"name":"sender","type":"address","internalType":"address"},{"name":"amount0","type":"uint256","internalType":"uint256"},{"name":"amount1","type":"uint256","internalType":"uint256"},{"name":"data","type":"bytes","internalType":"bytes"}],"outputs":[],"stateMutability":"nonpayable"},{"type":"function","name":"profitAmount","inputs":[],"outputs":[{"name":"","type":"uint256","internalType":"uint256"}],"stateMutability":"view"},{"type":"function","name":"profitToken","inputs":[],"outputs":[{"name":"","type":"address","internalType":"address"}],"stateMutability":"view"},{"type":"function","name":"sushiCall","inputs":[{"name":"sender","type":"address","internalType":"address"},{"name":"amount0","type":"uint256","internalType":"uint256"},{"name":"amount1","type":"uint256","internalType":"uint256"},{"name":"data","type":"bytes","internalType":"bytes"}],"outputs":[],"stateMutability":"nonpayable"},{"type":"function","name":"uniswapV2Call","inputs":[{"name":"sender","type":"address","internalType":"address"},{"name":"amount0","type":"uint256","internalType":"uint256"},{"name":"amount1","type":"uint256","internalType":"uint256"},{"name":"data","type":"bytes","internalType":"bytes"}],"outputs":[],"stateMutability":"nonpayable"},{"type":"function","name":"validatedOrRefuted","inputs":[],"outputs":[{"name":"","type":"string","internalType":"string"}],"stateMutability":"view"}],"bytecode":{"object":"0x608060405234801561000f575f5ffd5b506040518060e0016040528060b481526020016161c260b491396002908161003791906102bf565b506040518060400160405280600781526020017f72656675746564000000000000000000000000000000000000000000000000008152506003908161007c91906102bf565b5061038e565b5f81519050919050565b7f4e487b71000000000000000000000000000000000000000000000000000000005f52604160045260245ffd5b7f4e487b71000000000000000000000000000000000000000000000000000000005f52602260045260245ffd5b5f60028204905060018216806100fd57607f821691505b6020821081036101105761010f6100b9565b5b50919050565b5f819050815f5260205f209050919050565b5f6020601f8301049050919050565b5f82821b905092915050565b5f600883026101727fffffffffffffffffffffffffffffffffffffffffffffffffffffffffffffffff82610137565b61017c8683610137565b95508019841693508086168417925050509392505050565b5f819050919050565b5f819050919050565b5f6101c06101bb6101b684610194565b61019d565b610194565b9050919050565b5f819050919050565b6101d9836101a6565b6101ed6101e5826101c7565b848454610143565b825550505050565b5f5f905090565b6102046101f5565b61020f8184846101d0565b505050565b5b81811015610232576102275f826101fc565b600181019050610215565b5050565b601f8211156102775761024881610116565b61025184610128565b81016020851015610260578190505b61027461026c85610128565b830182610214565b50505b505050565b5f82821c905092915050565b5f6102975f198460080261027c565b1980831691505092915050565b5f6102af8383610288565b9150826002028217905092915050565b6102c882610082565b67ffffffffffffffff8111156102e1576102e061008c565b5b6102eb82546100e6565b6102f6828285610236565b5f60209050601f831160018114610327575f8415610315578287015190505b61031f85826102a4565b865550610386565b601f19841661033586610116565b5f5b8281101561035c57848901518255600182019150602085019450602081019050610337565b868310156103795784890151610375601f891682610288565b8355505b6001600288020188555050505b505050505050565b615e278061039b5f395ff3fe60806040526004361061007d575f3560e01c80635ff972cc1161004d5780635ff972cc146101185780638480081214610142578063b62a92561461016a578063cb707c621461019457610084565b80629914031461008857806310d1e85c146100b05780633c2448ed146100d857806349343624146100ee57610084565b3661008457005b5f5ffd5b348015610093575f5ffd5b506100ae60048036038101906100a991906145de565b6101be565b005b3480156100bb575f5ffd5b506100d660048036038101906100d191906145de565b6101d2565b005b3480156100e3575f5ffd5b506100ec6101e6565b005b3480156100f9575f5ffd5b506101026103f3565b60405161010f9190614671565b60405180910390f35b348015610123575f5ffd5b5061012c61041a565b6040516101399190614699565b60405180910390f35b34801561014d575f5ffd5b50610168600480360381019061016391906145de565b610423565b005b348015610175575f5ffd5b5061017e610437565b60405161018b9190614722565b60405180910390f35b34801561019f575f5ffd5b506101a86104c7565b6040516101b59190614722565b60405180910390f35b6101cb8585858585610557565b5050505050565b6101df8585858585610557565b5050505050565b5f600154036103f1575f6101f8610b1f565b90505f61020b6102066110ac565b611136565b90505f6102166112dd565b90505f610221611732565b90505f5f5f5f5f90505b87518110156102725761025788828151811061024a57610249614742565b5b6020026020010151611c46565b156102655760019350610272565b808060010191505061022b565b505f5f90505b8551811015610315575f86828151811061029557610294614742565b5b602002602001015190505f6102be82733335a88bb18fd3b6824b59af62b50ce494143333611d0b565b90505f81036102ce575050610308565b600194506102de828b8b8a611e33565b156102f257505050505050505050506103f1565b6102fb82612089565b1561030557600193505b50505b8080600101915050610278565b508261034f576040518060a00160405280606d8152602001615b2c606d9139600290816103429190614999565b50505050505050506103f1565b81610388576040518060a0016040528060778152602001615a0f607791396002908161037b9190614999565b50505050505050506103f1565b806103c1576040518060a00160405280606e8152602001615b99606e9139600290816103b49190614999565b50505050505050506103f1565b6040518060e0016040528060a68152602001615a8660a69139600290816103e89190614999565b50505050505050505b565b5f5f5f9054906101000a900473ffffffffffffffffffffffffffffffffffffffff16905090565b5f600154905090565b6104308585858585610557565b5050505050565b606060038054610446906147c9565b80601f0160208091040260200160405190810160405280929190818152602001828054610472906147c9565b80156104bd5780601f10610494576101008083540402835291602001916104bd565b820191905f5260205f20905b8154815290600101906020018083116104a057829003601f168201915b5050505050905090565b6060600280546104d6906147c9565b80601f0160208091040260200160405190810160405280929190818152602001828054610502906147c9565b801561054d5780601f106105245761010080835404028352916020019161054d565b820191905f5260205f20905b81548152906001019060200180831161053057829003601f168201915b5050505050905090565b5f82828101906105679190614c64565b9050805f015173ffffffffffffffffffffffffffffffffffffffff163373ffffffffffffffffffffffffffffffffffffffff16146105da576040517f08c379a00000000000000000000000000000000000000000000000000000000081526004016105d190614cf5565b60405180910390fd5b3073ffffffffffffffffffffffffffffffffffffffff168673ffffffffffffffffffffffffffffffffffffffff1614610648576040517f08c379a000000000000000000000000000000000000000000000000000000000815260040161063f90614d5d565b60405180910390fd5b5f5f86116106565784610658565b855b90508160c001518114801561066d57505f8114155b6106ac576040517f08c379a00000000000000000000000000000000000000000000000000000000081526004016106a390614dc5565b60405180910390fd5b5f60016103e56103e8846106c09190614e10565b6106ca9190614e7e565b6106d49190614eae565b90505f6106df6110ac565b9050808311610723576040517f08c379a000000000000000000000000000000000000000000000000000000000815260040161071a90614f2b565b60405180910390fd5b5f61074285604001518660800151848761073d9190614f49565b6121bb565b90505f8103610786576040517f08c379a000000000000000000000000000000000000000000000000000000000815260040161077d90614fc6565b60405180910390fd5b5f6107a98660200151733335a88bb18fd3b6824b59af62b50ce494143333611d0b565b90505f81036107ed576040517f08c379a00000000000000000000000000000000000000000000000000000000081526004016107e49061502e565b60405180910390fd5b5f831461086f5773c02aaa39b223fe8d0a0e5c4f27ead9083c756cc273ffffffffffffffffffffffffffffffffffffffff16632e1a7d4d846040518263ffffffff1660e01b81526004016108419190614699565b5f604051808303815f87803b158015610858575f5ffd5b505af115801561086a573d5f5f3e3d5ffd5b505050505b5f61087c87848487612390565b9050806108be576040517f08c379a00000000000000000000000000000000000000000000000000000000081526004016108b590615096565b60405180910390fd5b6108d5876020015188606001518960a0015161249c565b5f4790505f81146109525773c02aaa39b223fe8d0a0e5c4f27ead9083c756cc273ffffffffffffffffffffffffffffffffffffffff1663d0e30db0826040518263ffffffff1660e01b81526004015f604051808303818588803b15801561093a575f5ffd5b505af115801561094c573d5f5f3e3d5ffd5b50505050505b5f61097173c02aaa39b223fe8d0a0e5c4f27ead9083c756cc230611d0b565b905066038d7ea4c68000876109869190614eae565b81116109c7576040517f08c379a00000000000000000000000000000000000000000000000000000000081526004016109be906150fe565b60405180910390fd5b6109e973c02aaa39b223fe8d0a0e5c4f27ead9083c756cc28a5f01518961262c565b610a28576040517f08c379a0000000000000000000000000000000000000000000000000000000008152600401610a1f90615166565b60405180910390fd5b73c02aaa39b223fe8d0a0e5c4f27ead9083c756cc25f5f6101000a81548173ffffffffffffffffffffffffffffffffffffffff021916908373ffffffffffffffffffffffffffffffffffffffff160217905550610a9973c02aaa39b223fe8d0a0e5c4f27ead9083c756cc230611d0b565b6001819055506040518060400160405280600981526020017f76616c696461746564000000000000000000000000000000000000000000000081525060039081610ae39190614999565b506040518061022001604052806101eb8152602001615c076101eb913960029081610b0e9190614999565b505050505050505050505050505050565b6060600967ffffffffffffffff811115610b3c57610b3b61476f565b5b604051908082528060200260200182016040528015610b6a5781602001602082028036833780820191505090505b509050610bb4735c69bee701ef814a2b6a3edd4b1652cb9cc5aa6f73a0b86991c6218b36c1d19d4a2e9eb0ce3606eb4873c02aaa39b223fe8d0a0e5c4f27ead9083c756cc2612723565b815f81518110610bc757610bc6614742565b5b602002602001019073ffffffffffffffffffffffffffffffffffffffff16908173ffffffffffffffffffffffffffffffffffffffff1681525050610c48735c69bee701ef814a2b6a3edd4b1652cb9cc5aa6f73dac17f958d2ee523a2206206994597c13d831ec773c02aaa39b223fe8d0a0e5c4f27ead9083c756cc2612723565b81600181518110610c5c57610c5b614742565b5b602002602001019073ffffffffffffffffffffffffffffffffffffffff16908173ffffffffffffffffffffffffffffffffffffffff1681525050610cdd735c69bee701ef814a2b6a3edd4b1652cb9cc5aa6f736b175474e89094c44da98b954eedeac495271d0f73c02aaa39b223fe8d0a0e5c4f27ead9083c756cc2612723565b81600281518110610cf157610cf0614742565b5b602002602001019073ffffffffffffffffffffffffffffffffffffffff16908173ffffffffffffffffffffffffffffffffffffffff1681525050610d7273c0aee478e3658e2610c5f7a4a2e1777ce9e4f2ac73a0b86991c6218b36c1d19d4a2e9eb0ce3606eb4873c02aaa39b223fe8d0a0e5c4f27ead9083c756cc2612723565b81600381518110610d8657610d85614742565b5b602002602001019073ffffffffffffffffffffffffffffffffffffffff16908173ffffffffffffffffffffffffffffffffffffffff1681525050610e0773c0aee478e3658e2610c5f7a4a2e1777ce9e4f2ac73dac17f958d2ee523a2206206994597c13d831ec773c02aaa39b223fe8d0a0e5c4f27ead9083c756cc2612723565b81600481518110610e1b57610e1a614742565b5b602002602001019073ffffffffffffffffffffffffffffffffffffffff16908173ffffffffffffffffffffffffffffffffffffffff1681525050610e9c73c0aee478e3658e2610c5f7a4a2e1777ce9e4f2ac736b175474e89094c44da98b954eedeac495271d0f73c02aaa39b223fe8d0a0e5c4f27ead9083c756cc2612723565b81600581518110610eb057610eaf614742565b5b602002602001019073ffffffffffffffffffffffffffffffffffffffff16908173ffffffffffffffffffffffffffffffffffffffff1681525050610f3173115934131916c8b277dd010ee02de363c09d037c73a0b86991c6218b36c1d19d4a2e9eb0ce3606eb4873c02aaa39b223fe8d0a0e5c4f27ead9083c756cc2612723565b81600681518110610f4557610f44614742565b5b602002602001019073ffffffffffffffffffffffffffffffffffffffff16908173ffffffffffffffffffffffffffffffffffffffff1681525050610fc673115934131916c8b277dd010ee02de363c09d037c73dac17f958d2ee523a2206206994597c13d831ec773c02aaa39b223fe8d0a0e5c4f27ead9083c756cc2612723565b81600781518110610fda57610fd9614742565b5b602002602001019073ffffffffffffffffffffffffffffffffffffffff16908173ffffffffffffffffffffffffffffffffffffffff168152505061105b73115934131916c8b277dd010ee02de363c09d037c736b175474e89094c44da98b954eedeac495271d0f73c02aaa39b223fe8d0a0e5c4f27ead9083c756cc2612723565b8160088151811061106f5761106e614742565b5b602002602001019073ffffffffffffffffffffffffffffffffffffffff16908173ffffffffffffffffffffffffffffffffffffffff168152505090565b5f733335a88bb18fd3b6824b59af62b50ce49414333373ffffffffffffffffffffffffffffffffffffffff166348d8b9a46040518163ffffffff1660e01b8152600401602060405180830381865afa92505050801561112957506040513d601f19601f820116820180604052508101906111269190615198565b60015b1561113357809150505b90565b6060600567ffffffffffffffff8111156111535761115261476f565b5b6040519080825280602002602001820160405280156111815781602001602082028036833780820191505090505b5090505f6702c68af0bb140000836111999190614eae565b90506706f05b59d3b2000081116111b8576706f05b59d3b200006111ba565b805b825f815181106111cd576111cc614742565b5b602002602001018181525050671bc16d674ec8000081116111f657671bc16d674ec800006111f8565b805b8260018151811061120c5761120b614742565b5b602002602001018181525050674563918244f40000811161123557674563918244f40000611237565b805b8260028151811061124b5761124a614742565b5b60200260200101818152505067d02ab486cedc000081116112745767d02ab486cedc0000611276565b805b8260038151811061128a57611289614742565b5b60200260200101818152505068022b1c8c1227a0000081116112b55768022b1c8c1227a000006112b7565b805b826004815181106112cb576112ca614742565b5b60200260200101818152505050919050565b6060602067ffffffffffffffff8111156112fa576112f961476f565b5b6040519080825280602002602001820160405280156113285781602001602082028036833780820191505090505b5090505f61134b8282738076c74c5e3f5852037f31b99536ca5a1d8c6f7d61284e565b905061136c828273a2b4c0af19cc16a6cfacce81f192b024d625817d61284e565b905061138d828273389999216860ab8e0175387a0c90e5c52522c94561284e565b90506113ae828273fad45e47083e4607302aa43c65fb3106f1cd760761284e565b90506113cf828273a7de087329bfcda5639247f96140f9dabe3deed161284e565b90506113f082827328dee01d53fed0edf5f6e310bf8ef9311513ae4061284e565b9050611411828273f0f9d895aca5c8678f706fb8216fa22957685a1361284e565b9050611432828273761d38e5ddf6ccf6cf7c55759d5210750b5d60f361284e565b9050611453828273ce3f08e664693ca792cace4af1364d5e220827b261284e565b9050611474828273a57ac35ce91ee92caefaa8dc04140c8e232c2e5061284e565b905061149582827312b6893ce26ea6341919fe289212ef77e51688c861284e565b90506114b68282737f792db54b0e580cdc755178443f0430cf799aca61284e565b90506114d78282739a962c70bb4b0538667ee47ca36934bf39781c5261284e565b90506114f882827343f11c02439e2736800433b4594994bd43cd066d61284e565b9050611519828273d45740ab9ec920bedbd9bab2e863519e5973194161284e565b905061153a8282739c87a5726e98f2f404cdd8ac8968e9b2c80c096761284e565b905061155b828273d248b30a3207a766d318c7a87f5cf334a439446d61284e565b905061157c82827331a4f372aa891b46ba44dc64be1d8947c889e9c661284e565b905061159d8282732d0e64b6bf13660a4c0de42a0b88144a7c10991f61284e565b90506115be8282731a7981d87e3b6a95c1516eb820e223fe979896b361284e565b90506115df828273f7ef0d57277ad6c2babf87ab64ba61abdd2590d261284e565b90506116008282738ebd6c7d2b79ca4dc5fbdec239a8bb0f214212b861284e565b90506116218282738390a1da07e376ef7add4be859ba74fb83aa02d561284e565b90506116428282730c6c80d2061afa35e160f3799411d83bdeea0a5a61284e565b9050611663828273b57e874082417b66877429481473cf9fcd8e0b8a61284e565b9050611684828273e5c6f5fef89b64f36bfccb063962820136bac42f61284e565b90506116a5828273a6447f6156effd23ec3b57d5edd978349e4e192d61284e565b90506116c6828273d1456d1b9ceb59abd4423a49d40942a9485ceef661284e565b90506116e782827305641e33fd15baf819729df55500b07b82eb8e8961284e565b9050611708828273b016bf5055a45ba926a9ceb1fb5edc759fa94b0e61284e565b9050611729828273671af5ce24c256292a22ef074707579d09193fb461284e565b90508082525090565b60605f600367ffffffffffffffff8111156117505761174f61476f565b5b60405190808252806020026020018201604052801561177e5781602001602082028036833780820191505090505b509050737a250d5630b4cf539739df2c5dacb4c659f2488d815f815181106117a9576117a8614742565b5b602002602001019073ffffffffffffffffffffffffffffffffffffffff16908173ffffffffffffffffffffffffffffffffffffffff168152505073d9e1ce17f2641f24ae83637ab66a2cca9c378b9f8160018151811061180c5761180b614742565b5b602002602001019073ffffffffffffffffffffffffffffffffffffffff16908173ffffffffffffffffffffffffffffffffffffffff16815250507303f7724180aa6b939894b5ca4314783b0b36b3298160028151811061186f5761186e614742565b5b602002602001019073ffffffffffffffffffffffffffffffffffffffff16908173ffffffffffffffffffffffffffffffffffffffff16815250506060733335a88bb18fd3b6824b59af62b50ce49414333373ffffffffffffffffffffffffffffffffffffffff16633a68ff836040518163ffffffff1660e01b81526004015f60405180830381865afa92505050801561192a57506040513d5f823e3d601f19601f82011682018060405250810190611927919061526c565b60015b611a4157815167ffffffffffffffff8111156119495761194861476f565b5b6040519080825280602002602001820160405280156119775781602001602082028036833780820191505090505b5092505f5f5f90505b8351811015611a35576119ac84828151811061199f5761199e614742565b5b6020026020010151612960565b15611a28578381815181106119c4576119c3614742565b5b60200260200101518583815181106119df576119de614742565b5b602002602001019073ffffffffffffffffffffffffffffffffffffffff16908173ffffffffffffffffffffffffffffffffffffffff16815250508180611a24906152b3565b9250505b8080600101915050611980565b50808452505050611c43565b80915050815167ffffffffffffffff811115611a6057611a5f61476f565b5b604051908082528060200260200182016040528015611a8e5781602001602082028036833780820191505090505b5092505f5f5f90505b8351811015611b7857611ac3848281518110611ab657611ab5614742565b5b6020026020010151612960565b8015611aef5750611aee83858381518110611ae157611ae0614742565b5b6020026020010151612983565b5b15611b6b57838181518110611b0757611b06614742565b5b6020026020010151858381518110611b2257611b21614742565b5b602002602001019073ffffffffffffffffffffffffffffffffffffffff16908173ffffffffffffffffffffffffffffffffffffffff16815250508180611b67906152b3565b9250505b8080600101915050611a97565b505f8103611c3c575f5f90505b8351811015611c3a57611bb1848281518110611ba457611ba3614742565b5b6020026020010151612960565b15611c2d57838181518110611bc957611bc8614742565b5b6020026020010151858381518110611be457611be3614742565b5b602002602001019073ffffffffffffffffffffffffffffffffffffffff16908173ffffffffffffffffffffffffffffffffffffffff16815250508180611c29906152b3565b9250505b8080600101915050611b85565b505b8084525050505b90565b5f611c5082612960565b611c5c575f9050611d06565b8173ffffffffffffffffffffffffffffffffffffffff16630902f1ac6040518163ffffffff1660e01b8152600401606060405180830381865afa925050508015611cc457506040513d601f19601f82011682018060405250810190611cc19190615376565b60015b611cd0575f9050611d06565b5f836dffffffffffffffffffffffffffff1614158015611d0057505f826dffffffffffffffffffffffffffff1614155b93505050505b919050565b5f611d1583612960565b611d21575f9050611e2d565b5f5f8473ffffffffffffffffffffffffffffffffffffffff166370a0823160e01b85604051602401611d539190614671565b604051602081830303815290604052907bffffffffffffffffffffffffffffffffffffffffffffffffffffffff19166020820180517bffffffffffffffffffffffffffffffffffffffffffffffffffffffff8381831617835250505050604051611dbd919061540a565b5f60405180830381855afa9150503d805f8114611df5576040519150601f19603f3d011682016040523d82523d5f602084013e611dfa565b606091505b5091509150818015611e0e57506020815110155b15611e2a5780806020019051810190611e279190615198565b92505b50505b92915050565b5f5f6040518060a0016040528073c02aaa39b223fe8d0a0e5c4f27ead9083c756cc273ffffffffffffffffffffffffffffffffffffffff1673ffffffffffffffffffffffffffffffffffffffff1681526020017395ad61b0a150d79219dcf64e1e6cc01f0b64c4ce73ffffffffffffffffffffffffffffffffffffffff1673ffffffffffffffffffffffffffffffffffffffff16815260200173a0b86991c6218b36c1d19d4a2e9eb0ce3606eb4873ffffffffffffffffffffffffffffffffffffffff1673ffffffffffffffffffffffffffffffffffffffff16815260200173dac17f958d2ee523a2206206994597c13d831ec773ffffffffffffffffffffffffffffffffffffffff1673ffffffffffffffffffffffffffffffffffffffff168152602001736b175474e89094c44da98b954eedeac495271d0f73ffffffffffffffffffffffffffffffffffffffff1673ffffffffffffffffffffffffffffffffffffffff1681525090505f5f90505b600381101561207b575f611fb682612a01565b90505f611fc283612a66565b9050611fcd82612960565b1580611fdf5750611fdd81612960565b155b15611feb57505061206e565b5f5f90505b600581101561206a575f85826005811061200d5761200c614742565b5b6020020151905061201f8b8483612acb565b612029575061205d565b5f6120348c83612c13565b90506120458c86838e8e8e8d612eb1565b1561205a576001975050505050505050612081565b50505b8080600101915050611ff0565b5050505b8080600101915050611fa3565b505f9150505b949350505050565b5f5f5f90505b60038110156121b1575f6120a282612a66565b90506120ad81612960565b6120b757506121a4565b6120d6848273c02aaa39b223fe8d0a0e5c4f27ead9083c756cc2612acb565b156120e6576001925050506121b6565b61210584827395ad61b0a150d79219dcf64e1e6cc01f0b64c4ce612acb565b15612115576001925050506121b6565b612134848273a0b86991c6218b36c1d19d4a2e9eb0ce3606eb48612acb565b15612144576001925050506121b6565b612163848273dac17f958d2ee523a2206206994597c13d831ec7612acb565b15612173576001925050506121b6565b6121928482736b175474e89094c44da98b954eedeac495271d0f612acb565b156121a2576001925050506121b6565b505b808060010191505061208f565b505f90505b919050565b5f5f73ffffffffffffffffffffffffffffffffffffffff168473ffffffffffffffffffffffffffffffffffffffff1614806121f7575060028351105b8061225c575073c02aaa39b223fe8d0a0e5c4f27ead9083c756cc273ffffffffffffffffffffffffffffffffffffffff16835f8151811061223b5761223a614742565b5b602002602001015173ffffffffffffffffffffffffffffffffffffffff1614155b8061226657505f82145b15612273575f9050612389565b5f83600185516122839190614f49565b8151811061229457612293614742565b5b602002602001015190505f6122a98230611d0b565b90506122ea73c02aaa39b223fe8d0a0e5c4f27ead9083c756cc2877fffffffffffffffffffffffffffffffffffffffffffffffffffffffffffffffff612fa1565b6122f8575f92505050612389565b8573ffffffffffffffffffffffffffffffffffffffff16635c11d795855f8830426040518663ffffffff1660e01b8152600401612339959493929190615510565b5f604051808303815f87803b158015612350575f5ffd5b505af1925050508015612361575060015b61236f575f92505050612389565b8061237a8330611d0b565b6123849190614f49565b925050505b9392505050565b5f5f6123a186602001518686613291565b90505f5f90505b815181101561248e575f8282815181106123c5576123c4614742565b5b602002602001015190505f81036123dc5750612481565b5f6123e682613446565b90505f81036123f6575050612481565b6124198960200151733335a88bb18fd3b6824b59af62b50ce4941433335f612fa1565b612424575050612481565b6124478960200151733335a88bb18fd3b6824b59af62b50ce49414333384612fa1565b612452575050612481565b61246c89602001518383898d606001518e60a00151613503565b1561247e576001945050505050612494565b50505b80806001019150506123a8565b505f9150505b949350505050565b5f6124a78430611d0b565b90505f8114806124b8575060028251105b8061250957508373ffffffffffffffffffffffffffffffffffffffff16825f815181106124e8576124e7614742565b5b602002602001015173ffffffffffffffffffffffffffffffffffffffff1614155b8061257b575073c02aaa39b223fe8d0a0e5c4f27ead9083c756cc273ffffffffffffffffffffffffffffffffffffffff1682600184516125499190614f49565b8151811061255a57612559614742565b5b602002602001015173ffffffffffffffffffffffffffffffffffffffff1614155b156125865750612627565b6125b184847fffffffffffffffffffffffffffffffffffffffffffffffffffffffffffffffff612fa1565b6125bb5750612627565b8273ffffffffffffffffffffffffffffffffffffffff16635c11d795825f8530426040518663ffffffff1660e01b81526004016125fc959493929190615510565b5f604051808303815f87803b158015612613575f5ffd5b505af1925050508015612624575060015b50505b505050565b5f5f5f8573ffffffffffffffffffffffffffffffffffffffff1663a9059cbb60e01b8686604051602401612661929190615568565b604051602081830303815290604052907bffffffffffffffffffffffffffffffffffffffffffffffffffffffff19166020820180517bffffffffffffffffffffffffffffffffffffffffffffffffffffffff83818316178352505050506040516126cb919061540a565b5f604051808303815f865af19150503d805f8114612704576040519150601f19603f3d011682016040523d82523d5f602084013e612709565b606091505b50915091506127188282613635565b925050509392505050565b5f61272d84612960565b612739575f9050612847565b5f5f8573ffffffffffffffffffffffffffffffffffffffff1663e6a4390560e01b868660405160240161276d92919061558f565b604051602081830303815290604052907bffffffffffffffffffffffffffffffffffffffffffffffffffffffff19166020820180517bffffffffffffffffffffffffffffffffffffffffffffffffffffffff83818316178352505050506040516127d7919061540a565b5f60405180830381855afa9150503d805f811461280f576040519150601f19603f3d011682016040523d82523d5f602084013e612814565b606091505b509150915081801561282857506020815110155b15612844578080602001905181019061284191906155f1565b92505b50505b9392505050565b5f5f73ffffffffffffffffffffffffffffffffffffffff168273ffffffffffffffffffffffffffffffffffffffff160361288a57829050612959565b5f5f90505b838110156128fa578273ffffffffffffffffffffffffffffffffffffffff168582815181106128c1576128c0614742565b5b602002602001015173ffffffffffffffffffffffffffffffffffffffff16036128ed5783915050612959565b808060010191505061288f565b508184848151811061290f5761290e614742565b5b602002602001019073ffffffffffffffffffffffffffffffffffffffff16908173ffffffffffffffffffffffffffffffffffffffff16815250506001836129569190614eae565b90505b9392505050565b5f5f8273ffffffffffffffffffffffffffffffffffffffff163b14159050919050565b5f5f5f90505b83518110156129f6578273ffffffffffffffffffffffffffffffffffffffff168482815181106129bc576129bb614742565b5b602002602001015173ffffffffffffffffffffffffffffffffffffffff16036129e95760019150506129fb565b8080600101915050612989565b505f90505b92915050565b5f5f8203612a2557737a250d5630b4cf539739df2c5dacb4c659f2488d9050612a61565b60018203612a495773d9e1ce17f2641f24ae83637ab66a2cca9c378b9f9050612a61565b7303f7724180aa6b939894b5ca4314783b0b36b32990505b919050565b5f5f8203612a8a57735c69bee701ef814a2b6a3edd4b1652cb9cc5aa6f9050612ac6565b60018203612aae5773c0aee478e3658e2610c5f7a4a2e1777ce9e4f2ac9050612ac6565b73115934131916c8b277dd010ee02de363c09d037c90505b919050565b5f8173ffffffffffffffffffffffffffffffffffffffff168473ffffffffffffffffffffffffffffffffffffffff161480612b45575073c02aaa39b223fe8d0a0e5c4f27ead9083c756cc273ffffffffffffffffffffffffffffffffffffffff168473ffffffffffffffffffffffffffffffffffffffff16145b15612b52575f9050612c0c565b73c02aaa39b223fe8d0a0e5c4f27ead9083c756cc273ffffffffffffffffffffffffffffffffffffffff168273ffffffffffffffffffffffffffffffffffffffff1603612bc757612bc0612bbb848673c02aaa39b223fe8d0a0e5c4f27ead9083c756cc2612723565b611c46565b9050612c0c565b612bda612bd5848685612723565b611c46565b8015612c095750612c08612c03848473c02aaa39b223fe8d0a0e5c4f27ead9083c756cc2612723565b611c46565b5b90505b9392505050565b606073c02aaa39b223fe8d0a0e5c4f27ead9083c756cc273ffffffffffffffffffffffffffffffffffffffff168273ffffffffffffffffffffffffffffffffffffffff1603612d5e57600267ffffffffffffffff811115612c7757612c7661476f565b5b604051908082528060200260200182016040528015612ca55781602001602082028036833780820191505090505b50905073c02aaa39b223fe8d0a0e5c4f27ead9083c756cc2815f81518110612cd057612ccf614742565b5b602002602001019073ffffffffffffffffffffffffffffffffffffffff16908173ffffffffffffffffffffffffffffffffffffffff16815250508281600181518110612d1f57612d1e614742565b5b602002602001019073ffffffffffffffffffffffffffffffffffffffff16908173ffffffffffffffffffffffffffffffffffffffff1681525050612eab565b600367ffffffffffffffff811115612d7957612d7861476f565b5b604051908082528060200260200182016040528015612da75781602001602082028036833780820191505090505b50905073c02aaa39b223fe8d0a0e5c4f27ead9083c756cc2815f81518110612dd257612dd1614742565b5b602002602001019073ffffffffffffffffffffffffffffffffffffffff16908173ffffffffffffffffffffffffffffffffffffffff16815250508181600181518110612e2157612e20614742565b5b602002602001019073ffffffffffffffffffffffffffffffffffffffff16908173ffffffffffffffffffffffffffffffffffffffff16815250508281600281518110612e7057612e6f614742565b5b602002602001019073ffffffffffffffffffffffffffffffffffffffff16908173ffffffffffffffffffffffffffffffffffffffff16815250505b92915050565b5f5f5f90505b6003811015612f91575f612eca82612a01565b90505f612ed683612a66565b9050612ee182612960565b1580612ef35750612ef181612960565b155b80612f055750612f038683612983565b155b15612f11575050612f84565b5f5f90505b6005811015612f80575f868260058110612f3357612f32614742565b5b60200201519050612f458d8483612acb565b612f4f5750612f73565b612f5e8d8d8d87858f8f613666565b15612f7157600195505050505050612f96565b505b8080600101915050612f16565b5050505b8080600101915050612eb7565b505f90505b979650505050505050565b5f5f5f8573ffffffffffffffffffffffffffffffffffffffff1663095ea7b360e01b8686604051602401612fd6929190615568565b604051602081830303815290604052907bffffffffffffffffffffffffffffffffffffffffffffffffffffffff19166020820180517bffffffffffffffffffffffffffffffffffffffffffffffffffffffff8381831617835250505050604051613040919061540a565b5f604051808303815f865af19150503d805f8114613079576040519150601f19603f3d011682016040523d82523d5f602084013e61307e565b606091505b509150915061308d8282613635565b1561309d5760019250505061328a565b8573ffffffffffffffffffffffffffffffffffffffff1663095ea7b360e01b865f6040516024016130cf929190615658565b604051602081830303815290604052907bffffffffffffffffffffffffffffffffffffffffffffffffffffffff19166020820180517bffffffffffffffffffffffffffffffffffffffffffffffffffffffff8381831617835250505050604051613139919061540a565b5f604051808303815f865af19150503d805f8114613172576040519150601f19603f3d011682016040523d82523d5f602084013e613177565b606091505b50809250819350505061318a8282613635565b613198575f9250505061328a565b8573ffffffffffffffffffffffffffffffffffffffff1663095ea7b360e01b86866040516024016131ca929190615568565b604051602081830303815290604052907bffffffffffffffffffffffffffffffffffffffffffffffffffffffff19166020820180517bffffffffffffffffffffffffffffffffffffffffffffffffffffffff8381831617835250505050604051613234919061540a565b5f604051808303815f865af19150503d805f811461326d576040519150601f19603f3d011682016040523d82523d5f602084013e613272565b606091505b5080925081935050506132858282613635565b925050505b9392505050565b6060600667ffffffffffffffff8111156132ae576132ad61476f565b5b6040519080825280602002602001820160405280156132dc5781602001602082028036833780820191505090505b5090505f8390505f6132ed866137ec565b90505f81141580156132fe57508082115b15613307578091505b5f600a856133159190614e10565b90505f811415801561332657508083115b1561332f578092505b82845f8151811061334357613342614742565b5b602002602001018181525050600460038461335e9190614e10565b6133689190614e7e565b8460018151811061337c5761337b614742565b5b6020026020010181815250506002836133959190614e7e565b846002815181106133a9576133a8614742565b5b6020026020010181815250506003836133c29190614e7e565b846003815181106133d6576133d5614742565b5b6020026020010181815250506004836133ef9190614e7e565b8460048151811061340357613402614742565b5b602002602001018181525050600a8361341c9190614e7e565b846005815181106134305761342f614742565b5b6020026020010181815250505050509392505050565b5f5f733335a88bb18fd3b6824b59af62b50ce49414333373ffffffffffffffffffffffffffffffffffffffff1663c75b3d416040518163ffffffff1660e01b8152600401602060405180830381865afa9250505080156134c457506040513d601f19601f820116820180604052508101906134c19190615198565b60015b6134d1575f9150506134fe565b80915050620f424081846134e59190614e10565b6134ef9190614e7e565b836134fa9190614f49565b9150505b919050565b5f5f6040518061010001604052808973ffffffffffffffffffffffffffffffffffffffff1681526020018881526020016001815260200173c02aaa39b223fe8d0a0e5c4f27ead9083c756cc273ffffffffffffffffffffffffffffffffffffffff1681526020015f81526020013073ffffffffffffffffffffffffffffffffffffffff1681526020015f73ffffffffffffffffffffffffffffffffffffffff1681526020018573ffffffffffffffffffffffffffffffffffffffff1681525090505f6135cf8488613883565b90505f5f90505b8151811015613624576136068a8888868686815181106135f9576135f8614742565b5b6020026020010151613bb3565b15613617576001935050505061362b565b80806001019150506135d6565b505f925050505b9695505050505050565b5f82801561365e57505f8251148061365d57508180602001905181019061365c91906156b4565b5b5b905092915050565b5f5f6136728986613ded565b90505f5f90505b84518110156137db575f85828151811061369657613695614742565b5b602002602001015190505f73ffffffffffffffffffffffffffffffffffffffff168173ffffffffffffffffffffffffffffffffffffffff1614806136e057506136de81611c46565b155b156136eb57506137ce565b5f5f90505b85518110156137cb575f6040518060e001604052808473ffffffffffffffffffffffffffffffffffffffff1681526020018e73ffffffffffffffffffffffffffffffffffffffff1681526020018d73ffffffffffffffffffffffffffffffffffffffff1681526020018b73ffffffffffffffffffffffffffffffffffffffff1681526020018c815260200186815260200188848151811061379457613793614742565b5b602002602001015181525090506137aa8161408b565b156137bd576001955050505050506137e1565b5080806001019150506136f0565b50505b8080600101915050613679565b505f9150505b979650505050505050565b5f733335a88bb18fd3b6824b59af62b50ce49414333373ffffffffffffffffffffffffffffffffffffffff16630f4fb373836040518263ffffffff1660e01b815260040161383a9190614671565b602060405180830381865afa92505050801561387457506040513d601f19601f820116820180604052508101906138719190615198565b60015b1561387e57809150505b919050565b6060600467ffffffffffffffff8111156138a05761389f61476f565b5b6040519080825280602002602001820160405280156138d357816020015b60608152602001906001900390816138be5790505b5090507f5c11d79526ce10b4a02fad7c13a4f0c7482b8f962c004e4f4d599003116c5f92825f8530426040516024016139109594939291906156df565b604051602081830303815290604052907bffffffffffffffffffffffffffffffffffffffffffffffffffffffff19166020820180517bffffffffffffffffffffffffffffffffffffffffffffffffffffffff8381831617835250505050815f815181106139805761397f614742565b5b60200260200101819052507f791ac9477e2d4606a81a205cf3dd7bdb27673037d74725aff8c552ad981cf090825f8530426040516024016139c59594939291906156df565b604051602081830303815290604052907bffffffffffffffffffffffffffffffffffffffffffffffffffffffff19166020820180517bffffffffffffffffffffffffffffffffffffffffffffffffffffffff838183161783525050505081600181518110613a3657613a35614742565b5b60200260200101819052507f38ed1739ee07daf49933f1800d1a9bc8d39a6876ea11e643f9c4c39c66df0ee8825f853042604051602401613a7b9594939291906156df565b604051602081830303815290604052907bffffffffffffffffffffffffffffffffffffffffffffffffffffffff19166020820180517bffffffffffffffffffffffffffffffffffffffffffffffffffffffff838183161783525050505081600281518110613aec57613aeb614742565b5b60200260200101819052507f18cbafe5fb6ab7d2558a55ccc138a3172aa304c3a08214c1ab07223dcb9e7f8e825f853042604051602401613b319594939291906156df565b604051602081830303815290604052907bffffffffffffffffffffffffffffffffffffffffffffffffffffffff19166020820180517bffffffffffffffffffffffffffffffffffffffffffffffffffffffff838183161783525050505081600381518110613ba257613ba1614742565b5b602002602001018190525092915050565b5f5f613bd387733335a88bb18fd3b6824b59af62b50ce494143333611d0b565b90505f613bf473c02aaa39b223fe8d0a0e5c4f27ead9083c756cc230611d0b565b90505f4790505f733335a88bb18fd3b6824b59af62b50ce49414333373ffffffffffffffffffffffffffffffffffffffff168963e515ae4060e01b898b8a604051602401613c449392919061582e565b604051602081830303815290604052907bffffffffffffffffffffffffffffffffffffffffffffffffffffffff19166020820180517bffffffffffffffffffffffffffffffffffffffffffffffffffffffff8381831617835250505050604051613cae919061540a565b5f6040518083038185875af1925050503d805f8114613ce8576040519150601f19603f3d011682016040523d82523d5f602084013e613ced565b606091505b5050905080613d02575f945050505050613de4565b5f8247613d0f9190614f49565b90505f8114613d8a5773c02aaa39b223fe8d0a0e5c4f27ead9083c756cc273ffffffffffffffffffffffffffffffffffffffff1663d0e30db0826040518263ffffffff1660e01b81526004015f604051808303818588803b158015613d72575f5ffd5b505af1158015613d84573d5f5f3e3d5ffd5b50505050505b5f613da98c733335a88bb18fd3b6824b59af62b50ce494143333611d0b565b90505f613dca73c02aaa39b223fe8d0a0e5c4f27ead9083c756cc230611d0b565b90508682108015613dda57508581115b9750505050505050505b95945050505050565b606073c02aaa39b223fe8d0a0e5c4f27ead9083c756cc273ffffffffffffffffffffffffffffffffffffffff168273ffffffffffffffffffffffffffffffffffffffff1603613f3857600267ffffffffffffffff811115613e5157613e5061476f565b5b604051908082528060200260200182016040528015613e7f5781602001602082028036833780820191505090505b50905082815f81518110613e9657613e95614742565b5b602002602001019073ffffffffffffffffffffffffffffffffffffffff16908173ffffffffffffffffffffffffffffffffffffffff168152505073c02aaa39b223fe8d0a0e5c4f27ead9083c756cc281600181518110613ef957613ef8614742565b5b602002602001019073ffffffffffffffffffffffffffffffffffffffff16908173ffffffffffffffffffffffffffffffffffffffff1681525050614085565b600367ffffffffffffffff811115613f5357613f5261476f565b5b604051908082528060200260200182016040528015613f815781602001602082028036833780820191505090505b50905082815f81518110613f9857613f97614742565b5b602002602001019073ffffffffffffffffffffffffffffffffffffffff16908173ffffffffffffffffffffffffffffffffffffffff16815250508181600181518110613fe757613fe6614742565b5b602002602001019073ffffffffffffffffffffffffffffffffffffffff16908173ffffffffffffffffffffffffffffffffffffffff168152505073c02aaa39b223fe8d0a0e5c4f27ead9083c756cc28160028151811061404a57614049614742565b5b602002602001019073ffffffffffffffffffffffffffffffffffffffff16908173ffffffffffffffffffffffffffffffffffffffff16815250505b92915050565b5f5f6140af8360200151733335a88bb18fd3b6824b59af62b50ce494143333611d0b565b14806140c957506140c7825f01518360c00151614263565b155b156140d6575f905061425e565b5f73c02aaa39b223fe8d0a0e5c4f27ead9083c756cc273ffffffffffffffffffffffffffffffffffffffff16835f015173ffffffffffffffffffffffffffffffffffffffff16630dfe16816040518163ffffffff1660e01b8152600401602060405180830381865afa15801561414e573d5f5f3e3d5ffd5b505050506040513d601f19601f82011682018060405250810190614172919061586d565b73ffffffffffffffffffffffffffffffffffffffff161490505f81614197575f61419d565b8360c001515b90505f826141af578460c001516141b1565b5f5b9050845f015173ffffffffffffffffffffffffffffffffffffffff1663022c0d9f838330896040516020016141e691906159a4565b6040516020818303038152906040526040518563ffffffff1660e01b815260040161421494939291906159c4565b5f604051808303815f87803b15801561422b575f5ffd5b505af192505050801561423c575060015b61424b575f935050505061425e565b66038d7ea4c68000600154101593505050505b919050565b5f61426d83611c46565b614279575f90506144d9565b5f8373ffffffffffffffffffffffffffffffffffffffff16630dfe16816040518163ffffffff1660e01b8152600401602060405180830381865afa1580156142c3573d5f5f3e3d5ffd5b505050506040513d601f19601f820116820180604052508101906142e7919061586d565b90505f8473ffffffffffffffffffffffffffffffffffffffff1663d21220a76040518163ffffffff1660e01b8152600401602060405180830381865afa158015614333573d5f5f3e3d5ffd5b505050506040513d601f19601f82011682018060405250810190614357919061586d565b905073c02aaa39b223fe8d0a0e5c4f27ead9083c756cc273ffffffffffffffffffffffffffffffffffffffff168273ffffffffffffffffffffffffffffffffffffffff16141580156143e9575073c02aaa39b223fe8d0a0e5c4f27ead9083c756cc273ffffffffffffffffffffffffffffffffffffffff168173ffffffffffffffffffffffffffffffffffffffff1614155b156143f8575f925050506144d9565b5f5f8673ffffffffffffffffffffffffffffffffffffffff16630902f1ac6040518163ffffffff1660e01b8152600401606060405180830381865afa158015614443573d5f5f3e3d5ffd5b505050506040513d601f19601f820116820180604052508101906144679190615376565b50915091505f73c02aaa39b223fe8d0a0e5c4f27ead9083c756cc273ffffffffffffffffffffffffffffffffffffffff168573ffffffffffffffffffffffffffffffffffffffff16146144ba57816144bc565b825b6dffffffffffffffffffffffffffff169050868111955050505050505b92915050565b5f604051905090565b5f5ffd5b5f5ffd5b5f73ffffffffffffffffffffffffffffffffffffffff82169050919050565b5f614519826144f0565b9050919050565b6145298161450f565b8114614533575f5ffd5b50565b5f8135905061454481614520565b92915050565b5f819050919050565b61455c8161454a565b8114614566575f5ffd5b50565b5f8135905061457781614553565b92915050565b5f5ffd5b5f5ffd5b5f5ffd5b5f5f83601f84011261459e5761459d61457d565b5b8235905067ffffffffffffffff8111156145bb576145ba614581565b5b6020830191508360018202830111156145d7576145d6614585565b5b9250929050565b5f5f5f5f5f608086880312156145f7576145f66144e8565b5b5f61460488828901614536565b955050602061461588828901614569565b945050604061462688828901614569565b935050606086013567ffffffffffffffff811115614647576146466144ec565b5b61465388828901614589565b92509250509295509295909350565b61466b8161450f565b82525050565b5f6020820190506146845f830184614662565b92915050565b6146938161454a565b82525050565b5f6020820190506146ac5f83018461468a565b92915050565b5f81519050919050565b5f82825260208201905092915050565b8281835e5f83830152505050565b5f601f19601f8301169050919050565b5f6146f4826146b2565b6146fe81856146bc565b935061470e8185602086016146cc565b614717816146da565b840191505092915050565b5f6020820190508181035f83015261473a81846146ea565b905092915050565b7f4e487b71000000000000000000000000000000000000000000000000000000005f52603260045260245ffd5b7f4e487b71000000000000000000000000000000000000000000000000000000005f52604160045260245ffd5b7f4e487b71000000000000000000000000000000000000000000000000000000005f52602260045260245ffd5b5f60028204905060018216806147e057607f821691505b6020821081036147f3576147f261479c565b5b50919050565b5f819050815f5260205f209050919050565b5f6020601f8301049050919050565b5f82821b905092915050565b5f600883026148557fffffffffffffffffffffffffffffffffffffffffffffffffffffffffffffffff8261481a565b61485f868361481a565b95508019841693508086168417925050509392505050565b5f819050919050565b5f61489a6148956148908461454a565b614877565b61454a565b9050919050565b5f819050919050565b6148b383614880565b6148c76148bf826148a1565b848454614826565b825550505050565b5f5f905090565b6148de6148cf565b6148e98184846148aa565b505050565b5b8181101561490c576149015f826148d6565b6001810190506148ef565b5050565b601f82111561495157614922816147f9565b61492b8461480b565b8101602085101561493a578190505b61494e6149468561480b565b8301826148ee565b50505b505050565b5f82821c905092915050565b5f6149715f1984600802614956565b1980831691505092915050565b5f6149898383614962565b9150826002028217905092915050565b6149a2826146b2565b67ffffffffffffffff8111156149bb576149ba61476f565b5b6149c582546147c9565b6149d0828285614910565b5f60209050601f831160018114614a01575f84156149ef578287015190505b6149f9858261497e565b865550614a60565b601f198416614a0f866147f9565b5f5b82811015614a3657848901518255600182019150602085019450602081019050614a11565b86831015614a535784890151614a4f601f891682614962565b8355505b6001600288020188555050505b505050505050565b5f5ffd5b614a75826146da565b810181811067ffffffffffffffff82111715614a9457614a9361476f565b5b80604052505050565b5f614aa66144df565b9050614ab28282614a6c565b919050565b5f5ffd5b5f67ffffffffffffffff821115614ad557614ad461476f565b5b602082029050602081019050919050565b5f614af8614af384614abb565b614a9d565b90508083825260208201905060208402830185811115614b1b57614b1a614585565b5b835b81811015614b445780614b308882614536565b845260208401935050602081019050614b1d565b5050509392505050565b5f82601f830112614b6257614b6161457d565b5b8135614b72848260208601614ae6565b91505092915050565b5f60e08284031215614b9057614b8f614a68565b5b614b9a60e0614a9d565b90505f614ba984828501614536565b5f830152506020614bbc84828501614536565b6020830152506040614bd084828501614536565b6040830152506060614be484828501614536565b606083015250608082013567ffffffffffffffff811115614c0857614c07614ab7565b5b614c1484828501614b4e565b60808301525060a082013567ffffffffffffffff811115614c3857614c37614ab7565b5b614c4484828501614b4e565b60a08301525060c0614c5884828501614569565b60c08301525092915050565b5f60208284031215614c7957614c786144e8565b5b5f82013567ffffffffffffffff811115614c9657614c956144ec565b5b614ca284828501614b7b565b91505092915050565b7f70616972000000000000000000000000000000000000000000000000000000005f82015250565b5f614cdf6004836146bc565b9150614cea82614cab565b602082019050919050565b5f6020820190508181035f830152614d0c81614cd3565b9050919050565b7f73656e64657200000000000000000000000000000000000000000000000000005f82015250565b5f614d476006836146bc565b9150614d5282614d13565b602082019050919050565b5f6020820190508181035f830152614d7481614d3b565b9050919050565b7f626f72726f7700000000000000000000000000000000000000000000000000005f82015250565b5f614daf6006836146bc565b9150614dba82614d7b565b602082019050919050565b5f6020820190508181035f830152614ddc81614da3565b9050919050565b7f4e487b71000000000000000000000000000000000000000000000000000000005f52601160045260245ffd5b5f614e1a8261454a565b9150614e258361454a565b9250828202614e338161454a565b91508282048414831517614e4a57614e49614de3565b5b5092915050565b7f4e487b71000000000000000000000000000000000000000000000000000000005f52601260045260245ffd5b5f614e888261454a565b9150614e938361454a565b925082614ea357614ea2614e51565b5b828204905092915050565b5f614eb88261454a565b9150614ec38361454a565b9250828201905080821115614edb57614eda614de3565b5b92915050565b7f66656500000000000000000000000000000000000000000000000000000000005f82015250565b5f614f156003836146bc565b9150614f2082614ee1565b602082019050919050565b5f6020820190508181035f830152614f4281614f09565b9050919050565b5f614f538261454a565b9150614f5e8361454a565b9250828203905081811115614f7657614f75614de3565b5b92915050565b7f62757900000000000000000000000000000000000000000000000000000000005f82015250565b5f614fb06003836146bc565b9150614fbb82614f7c565b602082019050919050565b5f6020820190508181035f830152614fdd81614fa4565b9050919050565b7f70726f78792d62616c616e6365000000000000000000000000000000000000005f82015250565b5f615018600d836146bc565b915061502382614fe4565b602082019050919050565b5f6020820190508181035f8301526150458161500c565b9050919050565b7f726f7574650000000000000000000000000000000000000000000000000000005f82015250565b5f6150806005836146bc565b915061508b8261504c565b602082019050919050565b5f6020820190508181035f8301526150ad81615074565b9050919050565b7f6e6f2d70726f66697400000000000000000000000000000000000000000000005f82015250565b5f6150e86009836146bc565b91506150f3826150b4565b602082019050919050565b5f6020820190508181035f830152615115816150dc565b9050919050565b7f72657061790000000000000000000000000000000000000000000000000000005f82015250565b5f6151506005836146bc565b915061515b8261511c565b602082019050919050565b5f6020820190508181035f83015261517d81615144565b9050919050565b5f8151905061519281614553565b92915050565b5f602082840312156151ad576151ac6144e8565b5b5f6151ba84828501615184565b91505092915050565b5f815190506151d181614520565b92915050565b5f6151e96151e484614abb565b614a9d565b9050808382526020820190506020840283018581111561520c5761520b614585565b5b835b81811015615235578061522188826151c3565b84526020840193505060208101905061520e565b5050509392505050565b5f82601f8301126152535761525261457d565b5b81516152638482602086016151d7565b91505092915050565b5f60208284031215615281576152806144e8565b5b5f82015167ffffffffffffffff81111561529e5761529d6144ec565b5b6152aa8482850161523f565b91505092915050565b5f6152bd8261454a565b91507fffffffffffffffffffffffffffffffffffffffffffffffffffffffffffffffff82036152ef576152ee614de3565b5b600182019050919050565b5f6dffffffffffffffffffffffffffff82169050919050565b61531c816152fa565b8114615326575f5ffd5b50565b5f8151905061533781615313565b92915050565b5f63ffffffff82169050919050565b6153558161533d565b811461535f575f5ffd5b50565b5f815190506153708161534c565b92915050565b5f5f5f6060848603121561538d5761538c6144e8565b5b5f61539a86828701615329565b93505060206153ab86828701615329565b92505060406153bc86828701615362565b9150509250925092565b5f81519050919050565b5f81905092915050565b5f6153e4826153c6565b6153ee81856153d0565b93506153fe8185602086016146cc565b80840191505092915050565b5f61541582846153da565b915081905092915050565b5f819050919050565b5f61544361543e61543984615420565b614877565b61454a565b9050919050565b61545381615429565b82525050565b5f81519050919050565b5f82825260208201905092915050565b5f819050602082019050919050565b61548b8161450f565b82525050565b5f61549c8383615482565b60208301905092915050565b5f602082019050919050565b5f6154be82615459565b6154c88185615463565b93506154d383615473565b805f5b838110156155035781516154ea8882615491565b97506154f5836154a8565b9250506001810190506154d6565b5085935050505092915050565b5f60a0820190506155235f83018861468a565b615530602083018761544a565b818103604083015261554281866154b4565b90506155516060830185614662565b61555e608083018461468a565b9695505050505050565b5f60408201905061557b5f830185614662565b615588602083018461468a565b9392505050565b5f6040820190506155a25f830185614662565b6155af6020830184614662565b9392505050565b5f6155c0826144f0565b9050919050565b6155d0816155b6565b81146155da575f5ffd5b50565b5f815190506155eb816155c7565b92915050565b5f60208284031215615606576156056144e8565b5b5f615613848285016155dd565b91505092915050565b5f60ff82169050919050565b5f61564261563d61563884615420565b614877565b61561c565b9050919050565b61565281615628565b82525050565b5f60408201905061566b5f830185614662565b6156786020830184615649565b9392505050565b5f8115159050919050565b6156938161567f565b811461569d575f5ffd5b50565b5f815190506156ae8161568a565b92915050565b5f602082840312156156c9576156c86144e8565b5b5f6156d6848285016156a0565b91505092915050565b5f60a0820190506156f25f83018861468a565b6156ff6020830187615649565b818103604083015261571181866154b4565b90506157206060830185614662565b61572d608083018461468a565b9695505050505050565b6157408161454a565b82525050565b61010082015f82015161575b5f850182615482565b50602082015161576e6020850182615737565b5060408201516157816040850182615737565b5060608201516157946060850182615482565b5060808201516157a76080850182615737565b5060a08201516157ba60a0850182615482565b5060c08201516157cd60c0850182615482565b5060e08201516157e060e0850182615482565b50505050565b5f82825260208201905092915050565b5f615800826153c6565b61580a81856157e6565b935061581a8185602086016146cc565b615823816146da565b840191505092915050565b5f610140820190506158425f830186615746565b615850610100830185614662565b81810361012083015261586381846157f6565b9050949350505050565b5f60208284031215615882576158816144e8565b5b5f61588f848285016151c3565b91505092915050565b5f82825260208201905092915050565b5f6158b282615459565b6158bc8185615898565b93506158c783615473565b805f5b838110156158f75781516158de8882615491565b97506158e9836154a8565b9250506001810190506158ca565b5085935050505092915050565b5f60e083015f8301516159195f860182615482565b50602083015161592c6020860182615482565b50604083015161593f6040860182615482565b5060608301516159526060860182615482565b506080830151848203608086015261596a82826158a8565b91505060a083015184820360a086015261598482826158a8565b91505060c083015161599960c0860182615737565b508091505092915050565b5f6020820190508181035f8301526159bc8184615904565b905092915050565b5f6080820190506159d75f83018761468a565b6159e4602083018661468a565b6159f16040830185614662565b8181036060830152615a0381846157f6565b90509594505050505056fe496e6665617369626c652061742074686520666f726b20626c6f636b3a206e6f207363616e6e6564206665652d6f6e2d7472616e736665722063616e64696461746520746f6b656e206861642061207072652d6578697374696e672062616c616e6365206f6e207468652052756269632070726f78792e496e6665617369626c652061742074686520666f726b20626c6f636b3a20746573746564207075626c696320563220726f75746573207374696c6c20646964206e6f742066696e6420612070726f66697461626c65206e6f6d696e616c205f616d6f756e74496e207370656e64207468617420636f6e73756d65642070726f787920726573657276657320616e6420736574746c6564206261636b20696e746f20574554482e496e6665617369626c652061742074686520666f726b20626c6f636b3a206e6f207265757361626c6520574554482056322066756e64696e6720706169722077617320617661696c61626c6520666f72207265616c697374696320666c61736873776170206361706974616c2e496e6665617369626c652061742074686520666f726b20626c6f636b3a2070726f78792d68656c64206665652d6f6e2d7472616e736665722063616e64696461746573206c61636b6564206120757361626c65207075626c696320563220726f75746520696e746f20574554482e412070726f78792d68656c64206665652d6f6e2d7472616e7366657220746f6b656e207265736572766520657869737465643b20726f7574657243616c6c207472616e7366657272656420746865206e6f6d696e616c20737263496e707574416d6f756e742c20616363727565546f6b656e46656573207374696c6c20636f6d7075746564206e6f6d696e616c205f616d6f756e74496e2c20536d617274417070726f7665206578706f7365642074686174206e6f6d696e616c205f616d6f756e74496e20746f207468652073616d6520616c6c6f776c697374656420563220726f757465722c2074686520726f75746572207370656e7420746865206e6f6d696e616c207472616e7366657246726f6d20616d6f756e74207768696c65207468652070726f787920686164207265636569766564206c6573732c20616e6420746865206d697373696e6720706f7274696f6e207761732073696c656e746c792066756e6465642066726f6d207468652070726f787927732072657365727665206265666f7265206265696e6720636f6e766572746564207468726f756768207075626c6963205632206c697175696469747920696e746f205745544820616e6420726570616964207468726f75676820612064657465726d696e697374696320666c617368737761702ea26469706673582212200e503c5ab45bcc8c227b6c0849a12d4a2ac607f950f30837ada1d4d0c400414a64736f6c634300081e0033496e6665617369626c652061742074686520666f726b20626c6f636b3a206e6f20746573746564206665652d6f6e2d7472616e7366657220746f6b656e20706c7573207075626c6963205632206c697175696469747920726f7574652070726f6475636564206120726573657276652d66756e646564206e6f6d696e616c205f616d6f756e74496e207370656e642077697468206e657420574554482070726f6669742061667465722072657061796d656e742e","linkReferences":{}},"methodIdentifiers":{"executeOnOpportunity()":"3c2448ed","exploitPath()":"cb707c62","pancakeCall(address,uint256,uint256,bytes)":"84800812","profitAmount()":"5ff972cc","profitToken()":"49343624","sushiCall(address,uint256,uint256,bytes)":"00991403","uniswapV2Call(address,uint256,uint256,bytes)":"10d1e85c","validatedOrRefuted()":"b62a9256"},"id":0}