{"abi":[{"type":"constructor","inputs":[],"stateMutability":"nonpayable"},{"type":"receive","stateMutability":"payable"},{"type":"function","name":"allowance","inputs":[{"name":"","type":"address","internalType":"address"},{"name":"","type":"address","internalType":"address"}],"outputs":[{"name":"","type":"uint256","internalType":"uint256"}],"stateMutability":"pure"},{"type":"function","name":"approve","inputs":[{"name":"","type":"address","internalType":"address"},{"name":"","type":"uint256","internalType":"uint256"}],"outputs":[{"name":"","type":"bool","internalType":"bool"}],"stateMutability":"pure"},{"type":"function","name":"balanceOf","inputs":[{"name":"","type":"address","internalType":"address"}],"outputs":[{"name":"","type":"uint256","internalType":"uint256"}],"stateMutability":"view"},{"type":"function","name":"decimals","inputs":[],"outputs":[{"name":"","type":"uint8","internalType":"uint8"}],"stateMutability":"pure"},{"type":"function","name":"execute","inputs":[{"name":"target","type":"address","internalType":"address"},{"name":"data","type":"bytes","internalType":"bytes"}],"outputs":[{"name":"result","type":"bytes","internalType":"bytes"}],"stateMutability":"nonpayable"},{"type":"function","name":"symbol","inputs":[],"outputs":[{"name":"","type":"string","internalType":"string"}],"stateMutability":"pure"},{"type":"function","name":"transfer","inputs":[{"name":"to","type":"address","internalType":"address"},{"name":"value","type":"uint256","internalType":"uint256"}],"outputs":[{"name":"","type":"bool","internalType":"bool"}],"stateMutability":"nonpayable"},{"type":"function","name":"transferFrom","inputs":[{"name":"","type":"address","internalType":"address"},{"name":"to","type":"address","internalType":"address"},{"name":"value","type":"uint256","internalType":"uint256"}],"outputs":[{"name":"","type":"bool","internalType":"bool"}],"stateMutability":"nonpayable"}],"bytecode":{"object":"0x60a080604052346022573360805261041490816100278239608051816101f70152f35b5f80fdfe608080604052600436101561001c575b50361561001a575f80fd5b005b5f3560e01c908163095ea7b31461030d575080631cff79cd1461019d57806323b872dd1461016d578063313ce5671461015257806370a082311461011b57806395d89b41146100e3578063a9059cbb146100b25763dd62ed3e14610080575f61000f565b346100ae5760403660031901126100ae57610099610330565b506100a2610346565b5060206040515f198152f35b5f80fd5b346100ae5760403660031901126100ae5760206100d96100d0610330565b602435906103a6565b6040519015158152f35b346100ae575f3660031901126100ae576101176101006020610380565b5f815260405191829160208352602083019061035c565b0390f35b346100ae5760203660031901126100ae576001600160a01b0361013c610330565b165f525f602052602060405f2054604051908152f35b346100ae575f3660031901126100ae57602060405160128152f35b346100ae5760603660031901126100ae57610186610330565b5060206100d9610194610346565b604435906103a6565b346100ae5760403660031901126100ae576101b6610330565b6024359067ffffffffffffffff82116100ae57366023830112156100ae5781600401359067ffffffffffffffff82116100ae5736602483850101116100ae577f00000000000000000000000000000000000000000000000000000000000000006001600160a01b031633036102e05760245f8094848295604051948593018337810182815203925af13d156102d8573d9067ffffffffffffffff82116102c457610269601f8301601f1916602001610380565b9182523d5f602084013e5b15610291576101179060405191829160208352602083019061035c565b60405162461bcd60e51b815260206004820152600b60248201526a18d85b1b0819985a5b195960aa1b6044820152606490fd5b634e487b7160e01b5f52604160045260245ffd5b606090610274565b60405162461bcd60e51b815260206004820152600560248201526437bbb732b960d91b6044820152606490fd5b346100ae5760403660031901126100ae57602090610329610330565b5060018152f35b600435906001600160a01b03821682036100ae57565b602435906001600160a01b03821682036100ae57565b805180835260209291819084018484015e5f828201840152601f01601f1916010190565b6040519190601f01601f1916820167ffffffffffffffff8111838210176102c457604052565b60018060a01b03165f525f60205260405f2080549182018092116103ca5755600190565b634e487b7160e01b5f52601160045260245ffdfea2646970667358221220d70cdb5311f0af28bd267b311eb7c4988cd098e1358f018c9514decf9436282364736f6c634300081e0033","linkReferences":{}},"methodIdentifiers":{"allowance(address,address)":"dd62ed3e","approve(address,uint256)":"095ea7b3","balanceOf(address)":"70a08231","decimals()":"313ce567","execute(address,bytes)":"1cff79cd","symbol()":"95d89b41","transfer(address,uint256)":"a9059cbb","transferFrom(address,address,uint256)":"23b872dd"},"id":0}