{"abi":[{"type":"function","name":"allowance","inputs":[{"name":"","type":"address","internalType":"address"},{"name":"","type":"address","internalType":"address"}],"outputs":[{"name":"","type":"uint256","internalType":"uint256"}],"stateMutability":"pure"},{"type":"function","name":"approve","inputs":[{"name":"","type":"address","internalType":"address"},{"name":"","type":"uint256","internalType":"uint256"}],"outputs":[{"name":"","type":"bool","internalType":"bool"}],"stateMutability":"pure"},{"type":"function","name":"balanceOf","inputs":[{"name":"","type":"address","internalType":"address"}],"outputs":[{"name":"","type":"uint256","internalType":"uint256"}],"stateMutability":"view"},{"type":"function","name":"decimals","inputs":[],"outputs":[{"name":"","type":"uint8","internalType":"uint8"}],"stateMutability":"pure"},{"type":"function","name":"executeOnOpportunity","inputs":[],"outputs":[],"stateMutability":"nonpayable"},{"type":"function","name":"mint","inputs":[{"name":"","type":"address","internalType":"address"},{"name":"","type":"uint16","internalType":"uint16"},{"name":"","type":"uint8","internalType":"uint8"},{"name":"","type":"tuple","internalType":"struct FlawVerifier.Reserves","components":[{"name":"reserveApes","type":"uint144","internalType":"uint144"},{"name":"reserveLPers","type":"uint144","internalType":"uint144"},{"name":"tickPriceX42","type":"int64","internalType":"int64"}]},{"name":"","type":"uint144","internalType":"uint144"}],"outputs":[{"name":"newReserves","type":"tuple","internalType":"struct FlawVerifier.Reserves","components":[{"name":"reserveApes","type":"uint144","internalType":"uint144"},{"name":"reserveLPers","type":"uint144","internalType":"uint144"},{"name":"tickPriceX42","type":"int64","internalType":"int64"}]},{"name":"fees","type":"tuple","internalType":"struct FlawVerifier.Fees","components":[{"name":"collateralInOrWithdrawn","type":"uint144","internalType":"uint144"},{"name":"collateralFeeToStakers","type":"uint144","internalType":"uint144"},{"name":"collateralFeeToLPers","type":"uint144","internalType":"uint144"}]},{"name":"amount","type":"uint256","internalType":"uint256"}],"stateMutability":"view"},{"type":"function","name":"profitAmount","inputs":[],"outputs":[{"name":"","type":"uint256","internalType":"uint256"}],"stateMutability":"view"},{"type":"function","name":"profitToken","inputs":[],"outputs":[{"name":"","type":"address","internalType":"address"}],"stateMutability":"pure"},{"type":"function","name":"symbol","inputs":[],"outputs":[{"name":"","type":"string","internalType":"string"}],"stateMutability":"pure"},{"type":"function","name":"transfer","inputs":[{"name":"to","type":"address","internalType":"address"},{"name":"value","type":"uint256","internalType":"uint256"}],"outputs":[{"name":"","type":"bool","internalType":"bool"}],"stateMutability":"nonpayable"},{"type":"function","name":"transferFrom","inputs":[{"name":"","type":"address","internalType":"address"},{"name":"to","type":"address","internalType":"address"},{"name":"value","type":"uint256","internalType":"uint256"}],"outputs":[{"name":"","type":"bool","internalType":"bool"}],"stateMutability":"nonpayable"}],"bytecode":{"object":"0x6080806040523460155761193f908161001a8239f35b5f80fdfe6080806040526004361015610012575f80fd5b5f905f3560e01c908163095ea7b314610be65750806323b872dd14610bb6578063313ce56714610b9b5780633c2448ed146102fa57806349343624146102cb5780635ff972cc146102ae5780636bc601d71461017057806370a082311461013757806395d89b41146100fa578063a9059cbb146100c85763dd62ed3e14610097575f80fd5b346100c55760403660031901126100c5576100b0610c09565b506100b9610c1f565b5060206040515f198152f35b80fd5b50346100c55760403660031901126100c55760206100f06100e7610c09565b60243590610cad565b6040519015158152f35b50346100c557806003193601126100c5576040516101339161011d602083610c51565b8152604051918291602083526020830190610c89565b0390f35b50346100c55760203660031901126100c5576020906040906001600160a01b0361015f610c09565b168152600283522054604051908152f35b50346100c55760e03660031901126100c55761018a610c09565b5060243561ffff8116036100c55760443560ff8116036100c55760603660631901126100c557604051906101bd82610c35565b6064356001600160901b03811681036102aa5782526084356001600160901b03811681036102aa57602083015260a4358060070b81036102aa57604060e0930152610206610c73565b5061020f610ce9565b50610218610ce9565b506040519061022682610c35565b6402540be40082526001600160901b03602083019180835281604085018281528160405161025381610c35565b8481526020810192858452604082019586528260018060a01b0360015460081c1698816040519b51168b52511660208a01525160070b60408901525116606087015251166080850152511660a083015260c0820152f35b5080fd5b50346100c557806003193601126100c55760209054604051908152f35b50346100c557806003193601126100c557602060405173a0b86991c6218b36c1d19d4a2e9eb0ce3606eb488152f35b5034610882575f3660031901126108825760015460ff8116610b6b5760ff1916600190811790556040516370a0823160e01b81525f5160206118ea5f395f51905f52600482015260208160248173a0b86991c6218b36c1d19d4a2e9eb0ce3606eb485afa9081156108ec575f91610b39575b5015801590610ab3575b8015610a2d575b156109f5576040516370a0823160e01b815230600482015260208160248173a0b86991c6218b36c1d19d4a2e9eb0ce3606eb485afa9081156108ec575f916109c3575b5060405161043b80820182811067ffffffffffffffff8211176109265782916114af833903905ff080156108ec5760018054610100600160a81b031916600883811b610100600160a81b0316919091179182905561042991901c6001600160a01b031630610d07565b6040516309f56ab160e11b81526001600160a01b03928316600482018190529290911660248201819052606460448301819052600160601b90830152906020816084815f73c36442b4a4522e871399cd717abdd847ab11fe885af180156108ec57610985575b5060405191610160830183811067ffffffffffffffff821117610926576040528252602082019081526040820160648152606083016202e62f198152608084016202e630815260a085016d055d8abd7a31c2fbed457af4d52f815260c08601906d055d8abd7a31c2fbed457af4d52f825260e08701925f84526101008801945f865262ffffff6101208a01973089526101408b0199428b526040519b634418b22b60e11b8d5260018060a01b0390511660048d015260018060a01b0390511660248c0152511660448a01525160020b60648901525160020b60848801525160a48701525160c48601525160e48501525161010484015260018060a01b0390511661012483015251610144820152608081610164815f73c36442b4a4522e871399cd717abdd847ab11fe885af180156108ec5761093a575b506001546040519060081c6001600160a01b0316610100820167ffffffffffffffff81118382101761092657604090815230808452602080850193845260648584018181526060870193845242608088019081526e161ccda12382af0674b6f91000000060a089019081525f60c08a0181815260e08b01828152985163414bf38960e01b81529a516001600160a01b0390811660048d015299518a1660248c0152935162ffffff1660448b01529551881693890193909352516084880152905160a48701525160c4860152915190921660e484015290829061010490829073e592427a0aece92de3edee1f18e0157c058615645af180156108ec576108f7575b50600154604051919060081c6001600160a01b03166106e483610c35565b82523060208301525f60408301525f5160206118ea5f395f51905f523b1561088257604080516303aa886760e41b815283516001600160a01b0390811660048301526020850151166024820152908301515f0b60448201525f81606481835f5160206118ea5f395f51905f525af180156108ec576108d7575b506040805163cdf3a83760e01b81526001600482015283516001600160a01b03908116602483015260208501511660448201529201515f0b60648301526e1ae5536855121039aa60ddecf76e656084830152600160a483015260208260c481875f5160206118ea5f395f51905f525af180156108cc57610899575b6107f491506107e681610d96565b6107ef81611033565b611218565b6040516370a0823160e01b81523060048201529060208260248173a0b86991c6218b36c1d19d4a2e9eb0ce3606eb485afa91821561088e578392610856575b50810390811161084257815580f35b634e487b7160e01b82526011600452602482fd5b9091506020813d602011610886575b8161087260209383610c51565b810103126108825751905f610833565b5f80fd5b3d9150610865565b6040513d85823e3d90fd5b6020823d6020116108c4575b816108b260209383610c51565b81010312610882576107f491506107d8565b3d91506108a5565b6040513d86823e3d90fd5b6108e49194505f90610c51565b5f925f61075d565b6040513d5f823e3d90fd5b6020813d60201161091e575b8161091060209383610c51565b8101031261088257516106c6565b3d9150610903565b634e487b7160e01b5f52604160045260245ffd5b6080813d60801161097d575b8161095360809383610c51565b8101031261088257602001516fffffffffffffffffffffffffffffffff811603610882575f6105c6565b3d9150610946565b6020813d6020116109bb575b8161099e60209383610c51565b8101031261088257516001600160a01b038116811461048f575f80fd5b3d9150610991565b90506020813d6020116109ed575b816109de60209383610c51565b8101031261088257515f6103c0565b3d91506109d1565b60405162461bcd60e51b815260206004820152601060248201526f1d985d5b1d081b9bdd08199d5b99195960821b6044820152606490fd5b506040516370a0823160e01b81525f5160206118ea5f395f51905f52600482015260208160248173c02aaa39b223fe8d0a0e5c4f27ead9083c756cc25afa9081156108ec575f91610a81575b50151561037d565b90506020813d602011610aab575b81610a9c60209383610c51565b8101031261088257515f610a79565b3d9150610a8f565b506040516370a0823160e01b81525f5160206118ea5f395f51905f526004820152602081602481732260fac5e5542a773aa44fbcfedf7c193bc2c5995afa9081156108ec575f91610b07575b501515610376565b90506020813d602011610b31575b81610b2260209383610c51565b8101031261088257515f610aff565b3d9150610b15565b90506020813d602011610b63575b81610b5460209383610c51565b8101031261088257515f61036c565b3d9150610b47565b60405162461bcd60e51b8152602060048201526008602482015267195e1958dd5d195960c21b6044820152606490fd5b34610882575f36600319011261088257602060405160128152f35b3461088257606036600319011261088257610bcf610c09565b5060206100f0610bdd610c1f565b60443590610cad565b3461088257604036600319011261088257602090610c02610c09565b5060018152f35b600435906001600160a01b038216820361088257565b602435906001600160a01b038216820361088257565b6060810190811067ffffffffffffffff82111761092657604052565b90601f8019910116810190811067ffffffffffffffff82111761092657604052565b60c435906001600160901b038216820361088257565b805180835260209291819084018484015e5f828201840152601f01601f1916010190565b6001600160a01b03165f9081526002602052604090208054918201918210610cd55755600190565b634e487b7160e01b5f52601160045260245ffd5b60405190610cf682610c35565b5f6040838281528260208201520152565b91906001600160a01b0380821690841610610d20579190565b90565b6020818303126108825780519067ffffffffffffffff8211610882570181601f820112156108825780519067ffffffffffffffff82116109265760405192610d75601f8401601f191660200185610c51565b8284526020838301011161088257815f9260208093018386015e8301015290565b6040516370a0823160e01b81525f5160206118ea5f395f51905f5260048201529060208260248173a0b86991c6218b36c1d19d4a2e9eb0ce3606eb485afa9182156108ec575f92610fff575b508115610ffb576001600160a01b031690610eb3905f90610e7e610e3d610e38610e338080808080808030610e2e73a0b86991c6218b36c1d19d4a2e9eb0ce3606eb48818381816113fd565b611481565b611428565b611454565b91610e7060405193849263fa461e3360e01b60208501528660248501526044840152606060648401526084830190610c89565b03601f198101835282610c51565b60405180938192631cff79cd60e01b83525f5160206118ea5f395f51905f526004840152604060248401526044830190610c89565b038183865af180156108ec57610fe3575b506040516370a0823160e01b8152600481018290529060208260248173a0b86991c6218b36c1d19d4a2e9eb0ce3606eb485afa9182156108ec575f92610faf575b5081610f0f575050565b610f805f929183926040519063a9059cbb60e01b6020830152306024830152604482015260448152610f42606482610c51565b604051948580948193631cff79cd60e01b835273a0b86991c6218b36c1d19d4a2e9eb0ce3606eb486004840152604060248401526044830190610c89565b03925af180156108ec57610f915750565b610fac903d805f833e610fa48183610c51565b810190610d23565b50565b9091506020813d602011610fdb575b81610fcb60209383610c51565b810103126108825751905f610f05565b3d9150610fbe565b610ff6903d805f833e610fa48183610c51565b610ec4565b5050565b9091506020813d60201161102b575b8161101b60209383610c51565b810103126108825751905f610de2565b3d915061100e565b6040516370a0823160e01b81525f5160206118ea5f395f51905f52600482015290602082602481732260fac5e5542a773aa44fbcfedf7c193bc2c5995afa9182156108ec575f926111e4575b508115610ffb576001600160a01b0316906110cb905f90610e7e610e3d610e38610e338080808080808030610e2e732260fac5e5542a773aa44fbcfedf7c193bc2c599818381816113fd565b038183865af180156108ec576111cc575b506040516370a0823160e01b81526004810182905290602082602481732260fac5e5542a773aa44fbcfedf7c193bc2c5995afa9182156108ec575f92611198575b5081611127575050565b610f805f929183926040519063a9059cbb60e01b602083015230602483015260448201526044815261115a606482610c51565b604051948580948193631cff79cd60e01b8352732260fac5e5542a773aa44fbcfedf7c193bc2c5996004840152604060248401526044830190610c89565b9091506020813d6020116111c4575b816111b460209383610c51565b810103126108825751905f61111d565b3d91506111a7565b6111df903d805f833e610fa48183610c51565b6110dc565b9091506020813d602011611210575b8161120060209383610c51565b810103126108825751905f61107f565b3d91506111f3565b6040516370a0823160e01b81525f5160206118ea5f395f51905f5260048201529060208260248173c02aaa39b223fe8d0a0e5c4f27ead9083c756cc25afa9182156108ec575f926113c9575b508115610ffb576001600160a01b0316906112b0905f90610e7e610e3d610e38610e338080808080808030610e2e73c02aaa39b223fe8d0a0e5c4f27ead9083c756cc2818381816113fd565b038183865af180156108ec576113b1575b506040516370a0823160e01b8152600481018290529060208260248173c02aaa39b223fe8d0a0e5c4f27ead9083c756cc25afa9182156108ec575f9261137d575b508161130c575050565b610f805f929183926040519063a9059cbb60e01b602083015230602483015260448201526044815261133f606482610c51565b604051948580948193631cff79cd60e01b835273c02aaa39b223fe8d0a0e5c4f27ead9083c756cc26004840152604060248401526044830190610c89565b9091506020813d6020116113a9575b8161139960209383610c51565b810103126108825751905f611302565b3d915061138c565b6113c4903d805f833e610fa48183610c51565b6112c1565b9091506020813d6020116113f5575b816113e560209383610c51565b810103126108825751905f611264565b3d91506113d8565b9061142660208060405180956060518060808585015e8201908382015203018085520183610c51565b565b9061142660208080946040519581879251918291018484015e81015f8382015203018085520183610c51565b9061142660208080946040519581879251918291018484015e810160018382015203018085520183610c51565b602080611426928195946040519682889351918291018585015e8201908382015203018085520183610c5156fe60a080604052346022573360805261041490816100278239608051816101f70152f35b5f80fdfe608080604052600436101561001c575b50361561001a575f80fd5b005b5f3560e01c908163095ea7b31461030d575080631cff79cd1461019d57806323b872dd1461016d578063313ce5671461015257806370a082311461011b57806395d89b41146100e3578063a9059cbb146100b25763dd62ed3e14610080575f61000f565b346100ae5760403660031901126100ae57610099610330565b506100a2610346565b5060206040515f198152f35b5f80fd5b346100ae5760403660031901126100ae5760206100d96100d0610330565b602435906103a6565b6040519015158152f35b346100ae575f3660031901126100ae576101176101006020610380565b5f815260405191829160208352602083019061035c565b0390f35b346100ae5760203660031901126100ae576001600160a01b0361013c610330565b165f525f602052602060405f2054604051908152f35b346100ae575f3660031901126100ae57602060405160128152f35b346100ae5760603660031901126100ae57610186610330565b5060206100d9610194610346565b604435906103a6565b346100ae5760403660031901126100ae576101b6610330565b6024359067ffffffffffffffff82116100ae57366023830112156100ae5781600401359067ffffffffffffffff82116100ae5736602483850101116100ae577f00000000000000000000000000000000000000000000000000000000000000006001600160a01b031633036102e05760245f8094848295604051948593018337810182815203925af13d156102d8573d9067ffffffffffffffff82116102c457610269601f8301601f1916602001610380565b9182523d5f602084013e5b15610291576101179060405191829160208352602083019061035c565b60405162461bcd60e51b815260206004820152600b60248201526a18d85b1b0819985a5b195960aa1b6044820152606490fd5b634e487b7160e01b5f52604160045260245ffd5b606090610274565b60405162461bcd60e51b815260206004820152600560248201526437bbb732b960d91b6044820152606490fd5b346100ae5760403660031901126100ae57602090610329610330565b5060018152f35b600435906001600160a01b03821682036100ae57565b602435906001600160a01b03821682036100ae57565b805180835260209291819084018484015e5f828201840152601f01601f1916010190565b6040519190601f01601f1916820167ffffffffffffffff8111838210176102c457604052565b60018060a01b03165f525f60205260405f2080549182018092116103ca5755600190565b634e487b7160e01b5f52601160045260245ffdfea2646970667358221220d70cdb5311f0af28bd267b311eb7c4988cd098e1358f018c9514decf9436282364736f6c634300081e0033000000000000000000000000b91ae2c8365fd45030aba84a4666c4db074e53e7a26469706673582212200dfcdbe29a033b7d41cb6f4174f49299be7c3ab1c0f94af9ddf0cc1b8827635864736f6c634300081e0033","linkReferences":{}},"methodIdentifiers":{"allowance(address,address)":"dd62ed3e","approve(address,uint256)":"095ea7b3","balanceOf(address)":"70a08231","decimals()":"313ce567","executeOnOpportunity()":"3c2448ed","mint(address,uint16,uint8,(uint144,uint144,int64),uint144)":"6bc601d7","profitAmount()":"5ff972cc","profitToken()":"49343624","symbol()":"95d89b41","transfer(address,uint256)":"a9059cbb","transferFrom(address,address,uint256)":"23b872dd"},"id":0}