{"abi":[{"type":"constructor","inputs":[],"stateMutability":"nonpayable"},{"type":"function","name":"REWARD_TOKEN","inputs":[],"outputs":[{"name":"","type":"address","internalType":"address"}],"stateMutability":"view"},{"type":"function","name":"STAKING_TOKEN","inputs":[],"outputs":[{"name":"","type":"address","internalType":"address"}],"stateMutability":"view"},{"type":"function","name":"TARGET","inputs":[],"outputs":[{"name":"","type":"address","internalType":"address"}],"stateMutability":"view"},{"type":"function","name":"attacker","inputs":[],"outputs":[{"name":"","type":"address","internalType":"address"}],"stateMutability":"view"},{"type":"function","name":"attackerCanExternallyMint","inputs":[],"outputs":[{"name":"","type":"bool","internalType":"bool"}],"stateMutability":"view"},{"type":"function","name":"attackerCanSchedule","inputs":[],"outputs":[{"name":"","type":"bool","internalType":"bool"}],"stateMutability":"view"},{"type":"function","name":"canonicalReplayAttempted","inputs":[],"outputs":[{"name":"","type":"bool","internalType":"bool"}],"stateMutability":"view"},{"type":"function","name":"canonicalReplayExternalMinted","inputs":[],"outputs":[{"name":"","type":"bool","internalType":"bool"}],"stateMutability":"view"},{"type":"function","name":"canonicalReplayScheduled","inputs":[],"outputs":[{"name":"","type":"bool","internalType":"bool"}],"stateMutability":"view"},{"type":"function","name":"drainedRounds","inputs":[],"outputs":[{"name":"","type":"uint256","internalType":"uint256"}],"stateMutability":"view"},{"type":"function","name":"everMintedBefore","inputs":[],"outputs":[{"name":"","type":"uint256","internalType":"uint256"}],"stateMutability":"view"},{"type":"function","name":"executeOnOpportunity","inputs":[],"outputs":[],"stateMutability":"nonpayable"},{"type":"function","name":"executed","inputs":[],"outputs":[{"name":"","type":"bool","internalType":"bool"}],"stateMutability":"view"},{"type":"function","name":"exploitPathUsed","inputs":[],"outputs":[{"name":"","type":"string","internalType":"string"}],"stateMutability":"view"},{"type":"function","name":"farmCanMint","inputs":[],"outputs":[{"name":"","type":"bool","internalType":"bool"}],"stateMutability":"view"},{"type":"function","name":"farmStakingBalanceAfter","inputs":[],"outputs":[{"name":"","type":"uint256","internalType":"uint256"}],"stateMutability":"view"},{"type":"function","name":"farmStakingBalanceBefore","inputs":[],"outputs":[{"name":"","type":"uint256","internalType":"uint256"}],"stateMutability":"view"},{"type":"function","name":"farmTotalSupplyBefore","inputs":[],"outputs":[{"name":"","type":"uint256","internalType":"uint256"}],"stateMutability":"view"},{"type":"function","name":"farmTrackedRewardsBefore","inputs":[],"outputs":[{"name":"","type":"uint256","internalType":"uint256"}],"stateMutability":"view"},{"type":"function","name":"finalReason","inputs":[],"outputs":[{"name":"","type":"string","internalType":"string"}],"stateMutability":"view"},{"type":"function","name":"hypothesisStatus","inputs":[],"outputs":[{"name":"","type":"uint8","internalType":"enum FlawVerifier.HypothesisStatus"}],"stateMutability":"view"},{"type":"function","name":"localEarnedBefore","inputs":[],"outputs":[{"name":"","type":"uint256","internalType":"uint256"}],"stateMutability":"view"},{"type":"function","name":"localStakeBefore","inputs":[],"outputs":[{"name":"","type":"uint256","internalType":"uint256"}],"stateMutability":"view"},{"type":"function","name":"payoutPhaseReachable","inputs":[],"outputs":[{"name":"","type":"bool","internalType":"bool"}],"stateMutability":"view"},{"type":"function","name":"payoutRevertedAtCap","inputs":[],"outputs":[{"name":"","type":"bool","internalType":"bool"}],"stateMutability":"view"},{"type":"function","name":"perRoundBootstrapAmount","inputs":[],"outputs":[{"name":"","type":"uint256","internalType":"uint256"}],"stateMutability":"view"},{"type":"function","name":"preExistingMintedSupply","inputs":[],"outputs":[{"name":"","type":"bool","internalType":"bool"}],"stateMutability":"view"},{"type":"function","name":"profitAmount","inputs":[],"outputs":[{"name":"","type":"uint256","internalType":"uint256"}],"stateMutability":"view"},{"type":"function","name":"profitToken","inputs":[],"outputs":[{"name":"","type":"address","internalType":"address"}],"stateMutability":"view"},{"type":"function","name":"publicBootstrapUsed","inputs":[],"outputs":[{"name":"","type":"bool","internalType":"bool"}],"stateMutability":"view"},{"type":"function","name":"realizedBalanceAfter","inputs":[],"outputs":[{"name":"","type":"uint256","internalType":"uint256"}],"stateMutability":"view"},{"type":"function","name":"realizedBalanceBefore","inputs":[],"outputs":[{"name":"","type":"uint256","internalType":"uint256"}],"stateMutability":"view"},{"type":"function","name":"rewardCap","inputs":[],"outputs":[{"name":"","type":"uint256","internalType":"uint256"}],"stateMutability":"view"},{"type":"function","name":"rewardRateBefore","inputs":[],"outputs":[{"name":"","type":"uint256","internalType":"uint256"}],"stateMutability":"view"},{"type":"function","name":"rewardTokenOwner","inputs":[],"outputs":[{"name":"","type":"address","internalType":"address"}],"stateMutability":"view"},{"type":"function","name":"rewardsDistribution","inputs":[],"outputs":[{"name":"","type":"address","internalType":"address"}],"stateMutability":"view"},{"type":"function","name":"rewardsToken","inputs":[],"outputs":[{"name":"","type":"address","internalType":"address"}],"stateMutability":"view"},{"type":"function","name":"sharedMintCap","inputs":[],"outputs":[{"name":"","type":"bool","internalType":"bool"}],"stateMutability":"view"},{"type":"function","name":"stakingToken","inputs":[],"outputs":[{"name":"","type":"address","internalType":"address"}],"stateMutability":"view"},{"type":"function","name":"targetOwner","inputs":[],"outputs":[{"name":"","type":"address","internalType":"address"}],"stateMutability":"view"},{"type":"function","name":"unreservedRewardFloor","inputs":[],"outputs":[{"name":"","type":"uint256","internalType":"uint256"}],"stateMutability":"view"}],"bytecode":{"object":"0x60a0806040523460365773b1bbeea2da2905e6b0a30203aef55c399c53d04260805261287a908161003b8239608051816106620152f35b5f80fdfe6080806040526004361015610012575f80fd5b5f3560e01c90816303ce560b1461088e575080630479d64414610860578063048e00ee1461083b578063072b0a261461081e57806319c06fdd146107f657806331a38c89146107d557806334c7f894146107ad5780633c2448ed146107935780633e64045d146107765780633fc6df6e1461074e57806344d28655146106bc57806348eb76ee14610691578063493436241461064d5780635105f3711461063057806351e6ac971461060b57806353438beb146105e65780635ff972cc146105c957806365da5942146105ac57806371edc3b81461058f57806372f702f314610567578063821986301461054a578063860f9382146105255780638e547f1d146105085780639532e287146104eb57806398c54277146104c657806399248ea71461049f578063aa7035c914610482578063b034a6bc14610465578063c2dda9a614610448578063cc1f2afa14610421578063ccd84930146103fc578063cdb077db146103df578063cf06b28a146103ba578063d1af0c7d14610392578063d36e6cdd1461036d578063d57c5aa814610350578063d78c428114610289578063dd43123114610264578063f13bf62c1461023f578063fbbd0637146102005763fc09c87c146101df575f80fd5b346101fc575f3660031901126101fc576020600e54604051908152f35b5f80fd5b346101fc575f3660031901126101fc5760ff5f5460081c16604051600382101561022b576020918152f35b634e487b7160e01b5f52602160045260245ffd5b346101fc575f3660031901126101fc57602060ff60055460f01c166040519015158152f35b346101fc575f3660031901126101fc57602060ff60055460b01c166040519015158152f35b346101fc575f3660031901126101fc576040515f6014546102a9816108b0565b808452906001811690811561032c57506001146102e1575b6102dd836102d1818503826108e8565b6040519182918261091e565b0390f35b60145f9081525f5160206128255f395f51905f52939250905b808210610312575090915081016020016102d16102c1565b9192600181602092548385880101520191019092916102fa565b60ff191660208086019190915291151560051b840190910191506102d190506102c1565b346101fc575f3660031901126101fc576020600c54604051908152f35b346101fc575f3660031901126101fc57602060ff60055460b81c166040519015158152f35b346101fc575f3660031901126101fc576004546040516001600160a01b039091168152602090f35b346101fc575f3660031901126101fc57602060ff60055460e81c166040519015158152f35b346101fc575f3660031901126101fc576020600f54604051908152f35b346101fc575f3660031901126101fc57602060ff60055460a81c166040519015158152f35b346101fc575f3660031901126101fc5760206040515f5160206127c55f395f51905f528152f35b346101fc575f3660031901126101fc576020601254604051908152f35b346101fc575f3660031901126101fc576020600854604051908152f35b346101fc575f3660031901126101fc576020601054604051908152f35b346101fc575f3660031901126101fc5760206040515f5160206128055f395f51905f528152f35b346101fc575f3660031901126101fc57602060ff60055460a01c166040519015158152f35b346101fc575f3660031901126101fc576020600654604051908152f35b346101fc575f3660031901126101fc576020601354604051908152f35b346101fc575f3660031901126101fc57602060ff60055460d01c166040519015158152f35b346101fc575f3660031901126101fc576020601154604051908152f35b346101fc575f3660031901126101fc576003546040516001600160a01b039091168152602090f35b346101fc575f3660031901126101fc576020600d54604051908152f35b346101fc575f3660031901126101fc576020600b54604051908152f35b346101fc575f3660031901126101fc576020601654604051908152f35b346101fc575f3660031901126101fc57602060ff60055460c01c166040519015158152f35b346101fc575f3660031901126101fc57602060ff60055460e01c166040519015158152f35b346101fc575f3660031901126101fc576020600754604051908152f35b346101fc575f3660031901126101fc576040517f00000000000000000000000000000000000000000000000000000000000000006001600160a01b03168152602090f35b346101fc575f3660031901126101fc575f5460405160109190911c6001600160a01b03168152602090f35b346101fc575f3660031901126101fc576040515f6015546106dc816108b0565b808452906001811690811561032c5750600114610703576102dd836102d1818503826108e8565b60155f9081525f5160206127a55f395f51905f52939250905b808210610734575090915081016020016102d16102c1565b91926001816020925483858801015201910190929161071c565b346101fc575f3660031901126101fc576002546040516001600160a01b039091168152602090f35b346101fc575f3660031901126101fc576020600954604051908152f35b346101fc575f3660031901126101fc576107ab6109bf565b005b346101fc575f3660031901126101fc576001546040516001600160a01b039091168152602090f35b346101fc575f3660031901126101fc57602060ff5f54166040519015158152f35b346101fc575f3660031901126101fc576005546040516001600160a01b039091168152602090f35b346101fc575f3660031901126101fc576020600a54604051908152f35b346101fc575f3660031901126101fc57602060ff60055460c81c166040519015158152f35b346101fc575f3660031901126101fc57602060405173b1bbeea2da2905e6b0a30203aef55c399c53d0428152f35b346101fc575f3660031901126101fc5760209060ff60055460d81c1615158152f35b90600182811c921680156108de575b60208310146108ca57565b634e487b7160e01b5f52602260045260245ffd5b91607f16916108bf565b90601f8019910116810190811067ffffffffffffffff82111761090a57604052565b634e487b7160e01b5f52604160045260245ffd5b602060409281835280519182918282860152018484015e5f828201840152601f01601f1916010190565b908160209103126101fc57516001600160a01b03811681036101fc5790565b519063ffffffff821682036101fc57565b908160209103126101fc575180151581036101fc5790565b5f19811461099e5760010190565b634e487b7160e01b5f52601160045260245ffd5b9190820391821161099e57565b5f5460ff811661203e5761ff01600160b01b0319163060101b62010000600160b01b0316176001175f557fa4764db54158a702c5da01d6864ee828f5301384a16ef270c5eb19845c18afa3601755604051638da5cb5b60e01b81526020816004815f5160206127c55f395f51905f525afa9081156114d1575f9161201f575b50600180546001600160a01b0319166001600160a01b03929092169182179055604051631fe36fb760e11b81526020816004815f5160206127c55f395f51905f525afa9081156114d1575f91612000575b50600280546001600160a01b0319166001600160a01b039290921691821790556040516372f702f360e01b81526020816004815f5160206127c55f395f51905f525afa9081156114d1575f91611fe1575b50600380546001600160a01b0319166001600160a01b039290921691909117905560405163d1af0c7d60e01b81526020816004815f5160206127c55f395f51905f525afa9081156114d1575f91611fc2575b5060018060a01b03166001600160601b0360a01b600454161760045560405190633d8523f760e11b82526020826004815f5160206127c55f395f51905f525afa9182156114d1575f92611f8e575b50600882905560405163a0e4395960e01b8152926080846004815f5160206127c55f395f51905f525afa80156114d1575f905f955f91611f19575b506001600160601b031691826009556040516318160ddd60e01b81526020816004815f5160206127c55f395f51905f525afa9081156114d1575f91611ee7575b50600a556040516370a0823160e01b81523060048201526020816024815f5160206127c55f395f51905f525afa9081156114d1575f91611eb5575b50600b556040516246613160e11b81523060048201526020816024815f5160206127c55f395f51905f525afa9081156114d1575f91611e83575b50600c55604051638da5cb5b60e01b81526020816004815f5160206128055f395f51905f525afa9081156114d1575f91611e54575b5060018060a01b03169360055491856001600160601b0360a01b841617600555604051956304f905cb60e21b87526020876004815f5160206128055f395f51905f525afa9687156114d1575f97611e20575b5060068790556040516347aebe8360e01b8152906020826004815f5160206128055f395f51905f525afa9182156114d1575f92611dec575b50816007555f5160206127c55f395f51905f5281148015611d82575b6001600160b01b0319909516811794151560a01b60ff60a01b1685811792151560a81b60ff60a81b169283176005559491926001600160a01b039091165f5160206127c55f395f51905f521480159190611d23575b8115611cc4575b5060ff60b81b1990941661ffff60b01b19909116171791151560b01b60ff60b01b168281173092831460b81b60ff60b81b169081176005559092916001600160a01b038316148015611c4e575b9263ffffffff9360ff60c01b90151560c01b169260ff60c01b19161717179182600555161593841594611c44575b508315611c3a575b60a01c60ff1615928315611c31575b508215611c27575b5050611a1b5760055460ff8160a81c16159081611a0c575b506118275761010061ff00195f5416175f55610e766014546108b0565b601f81116117d4575b5060e160145560145f527f6e6f74696679526577617264416d6f756e742829202d3e204f6e44656d616e645f5160206128255f395f51905f52557f546f6b656e2e6d696e74282920656c73657768657265202d3e206765745265777fce6d7b5282bd9a3661ae061feed1dbda4e52ab073b1f9285be6e155d9c38d4ed557f61726428292f657869742829202d3e204d696e7461626c65546f6b656e2e5f617fce6d7b5282bd9a3661ae061feed1dbda4e52ab073b1f9285be6e155d9c38d4ee556f73736572744d6178537570706c79282960801b7fce6d7b5282bd9a3661ae061feed1dbda4e52ab073b1f9285be6e155d9c38d4ef5560055460ff8160b81c169081156117c6575b506117b7575b506040516370a0823160e01b815230600482015260208160248173b1bbeea2da2905e6b0a30203aef55c399c53d0425afa9081156114d1575f91611785575b50600d8190556040516370a0823160e01b81525f5160206127c55f395f51905f52600482015260208160248173b1bbeea2da2905e6b0a30203aef55c399c53d0425afa9081156114d1575f91611753575b5080601155600b5415801590611748575b6005805460ff60e01b191691151560e01b60ff60e01b16919091179055611053612678565b600f5515611621575060115460068104908115611619575b50806013555f905f905f6002905b600682111561150e575b5050506010556040516370a0823160e01b81525f5160206127c55f395f51905f52600482015260208160248173b1bbeea2da2905e6b0a30203aef55c399c53d0425afa9081156114d1575f916114dc575b506012556040516370a0823160e01b815230600482015260208160248173b1bbeea2da2905e6b0a30203aef55c399c53d0425afa9081156114d1575f9161149f575b50600e55601655601554611129816108b0565b156111315750565b60055460ff8160f01c165f1461129857505061114e6015546108b0565b601f8111611245575b5061011d60155560155f527f74686520766572696669657220636f6e6669726d6564207468652073686172655f5160206127a55f395f51905f52557f642d63617020696e736f6c76656e637920736574757020616e64207468656e205f5160206127455f395f51905f52557f7573656420746865207461726765742773207075626c696320737572666163655f5160206127855f395f51905f52557f20746f20626f6f747374726170206c6976652065636f6e6f6d69632076616c755f5160206127e55f395f51905f52556d65206f6e207468697320666f726b60901b5f5160206127655f395f51905f5255565b60155f52601f0160051c5f5160206127a55f395f51905f52017f55f448fdea98c4d29eb340757ef0a66cd03dbb9538908a6a81d96026b71ec47a5b81811061128d5750611157565b5f8155600101611280565b60e81c60ff161561138157506112af6015546108b0565b601f8111611341575b50609560155560155f527f67657452657761726428292f65786974282920626563616d6520756e706179615f5160206127a55f395f51905f52557f626c65206f6e63652074686520736861726564206d696e7420636170207761735f5160206127455f395f51905f52556908195e1a185d5cdd195960b21b5f5160206127855f395f51905f5255565b60155f52601f0160051c5f5160206127a55f395f51905f52015f5160206127e55f395f51905f525b81811061137657506112b8565b5f8155600101611369565b61138a906108b0565b601f811161145f575b5060ff60155560155f527f746865207368617265642d63617020696e736f6c76656e637920636f6e6669675f5160206127a55f395f51905f52557f75726174696f6e206973206c6976652c20627574207468697320666f726b20655f5160206127455f395f51905f52557f78706f736573206e6f207075626c6963206d696e74657220726f6c6520616e645f5160206127855f395f51905f52557f206e6f207072652d6578697374696e672061747461636b6572207374616b65005f5160206127e55f395f51905f5255565b60155f52601f0160051c5f5160206127a55f395f51905f52015f5160206127655f395f51905f525b8181106114945750611393565b5f8155600101611487565b90506020813d6020116114c9575b816114ba602093836108e8565b810103126101fc57515f611116565b3d91506114ad565b6040513d5f823e3d90fd5b90506020813d602011611506575b816114f7602093836108e8565b810103126101fc57515f6110d4565b3d91506114ea565b91939290925b8383106115df575b6040516370a0823160e01b815230600482015260208160248173b1bbeea2da2905e6b0a30203aef55c399c53d0425afa9081156114d1575f916115ae575b50600d54808211156115a55761156f916109b2565b915b60028514801561159c575b156115945750509261158d83610990565b9091611079565b935093611083565b5081831161157c565b50505f91611571565b90506020813d82116115d7575b816115c8602093836108e8565b810103126101fc57515f61155a565b3d91506115bb565b90916115ea856126c8565b15611612576005805460ff60f01b1916600160f01b17905561160b90610990565b9190611514565b919061151c565b90505f61106b565b600e555f6016556116336015546108b0565b601f8111611708575b5060f360155560155f527f7368617265642d63617020696e736f6c76656e6379206973206f6273657276615f5160206127a55f395f51905f52557f626c652c2062757420746865206661726d2063757272656e746c7920686f6c645f5160206127455f395f51905f52557f73206e6f207374616b696e672d746f6b656e20696e76656e746f727920666f725f5160206127855f395f51905f52557f20746865207075626c696320626f6f747374726170206c6567000000000000005f5160206127e55f395f51905f5255565b60155f52601f0160051c5f5160206127a55f395f51905f52015f5160206127655f395f51905f525b81811061173d575061163c565b5f8155600101611730565b50600c54151561102e565b90506020813d60201161177d575b8161176e602093836108e8565b810103126101fc57515f61101d565b3d9150611761565b90506020813d6020116117af575b816117a0602093836108e8565b810103126101fc57515f610fcc565b3d9150611793565b6117c090612041565b5f610f8d565b60ff915060c01c165f610f87565b60145f52601f0160051c5f5160206128255f395f51905f52017fce6d7b5282bd9a3661ae061feed1dbda4e52ab073b1f9285be6e155d9c38d4f05b81811061181c5750610e7f565b5f815560010161180f565b5061020061ff00195f5416175f556118406014546108b0565b601f81116119d7575b507f6e6f207072696f722f7368617265642063617020636f6e73756d7074696f6e3e60145560155461187a906108b0565b601f8111611997575b5060bd60159081555f527f7468652072657761726420746f6b656e20646f6573206e6f742063757272656e5f5160206127a55f395f51905f52557f746c792073686f7720656974686572207072696f72206d696e746564207375705f5160206127455f395f51905f52557f706c79206f722061206e6f6e2d6661726d206f776e65722f6d696e74657200005f5160206127855f395f51905f52556040516370a0823160e01b815230600482015260208160248173b1bbeea2da2905e6b0a30203aef55c399c53d0425afa9081156114d1575f91611965575b5080600d55600e55565b90506020813d60201161198f575b81611980602093836108e8565b810103126101fc57515f61195b565b3d9150611973565b60155f52601f0160051c5f5160206127a55f395f51905f52015f5160206127e55f395f51905f525b8181106119cc5750611883565b5f81556001016119bf565b60145f52601f0160051c5f5160206128255f395f51905f52908101905b818110611a015750611849565b5f81556001016119f4565b60ff915060b01c16155f610e59565b5061020061ff00195f5416175f55611a346014546108b0565b601f8111611bd4575b50606160145560145f527f6e6f74696679526577617264416d6f756e74282920707265636f6e646974696f5f5160206128255f395f51905f52556f6e206e6f74206f627365727661626c6560801b7fce6d7b5282bd9a3661ae061feed1dbda4e52ab073b1f9285be6e155d9c38d4ed55611ab86015546108b0565b601f8111611b94575b50609f60159081555f527f746865206c697665206661726d20646f6573206e6f74206578706f73652074685f5160206127a55f395f51905f52557f65207265776172642d7363686564756c696e672073696465206f6620746865205f5160206127455f395f51905f52556e0e6d0c2e4cac85ac6c2e040e0c2e8d608b1b5f5160206127855f395f51905f52556040516370a0823160e01b815230600482015260208160248173b1bbeea2da2905e6b0a30203aef55c399c53d0425afa9081156114d1575f91611965575080600d55600e55565b60155f52601f0160051c5f5160206127a55f395f51905f52015f5160206127e55f395f51905f525b818110611bc95750611ac1565b5f8155600101611bbc565b60145f52601f0160051c5f5160206128255f395f51905f52017fce6d7b5282bd9a3661ae061feed1dbda4e52ab073b1f9285be6e155d9c38d4ee5b818110611c1c5750611a3d565b5f8155600101611c0f565b1190505f80610e41565b1592505f610e39565b8115159350610e2a565b151593505f610e22565b50604051633d1bb33160e21b8152306004820152926020846024815f5160206128055f395f51905f525afa80156114d15763ffffffff945f91611c95575b50909350610df4565b611cb7915060203d602011611cbd575b611caf81836108e8565b810190610978565b5f611c8c565b503d611ca5565b905060405190633d1bb33160e21b825260048201526020816024815f5160206128055f395f51905f525afa9081156114d1575f91611d04575b505f610da7565b611d1d915060203d602011611cbd57611caf81836108e8565b5f611cfd565b9050604051633d1bb33160e21b81528460048201526020816024815f5160206128055f395f51905f525afa9081156114d1575f91611d63575b5090610da0565b611d7c915060203d602011611cbd57611caf81836108e8565b5f611d5c565b50604051633d1bb33160e21b81525f5160206127c55f395f51905f5260048201526020816024815f5160206128055f395f51905f525afa9081156114d1575f91611dcd575b50610d4b565b611de6915060203d602011611cbd57611caf81836108e8565b5f611dc7565b9091506020813d602011611e18575b81611e08602093836108e8565b810103126101fc5751905f610d2f565b3d9150611dfb565b9096506020813d602011611e4c575b81611e3c602093836108e8565b810103126101fc5751955f610cf7565b3d9150611e2f565b611e76915060203d602011611e7c575b611e6e81836108e8565b810190610948565b5f610ca5565b503d611e64565b90506020813d602011611ead575b81611e9e602093836108e8565b810103126101fc57515f610c70565b3d9150611e91565b90506020813d602011611edf575b81611ed0602093836108e8565b810103126101fc57515f610c36565b3d9150611ec3565b90506020813d602011611f11575b81611f02602093836108e8565b810103126101fc57515f610bfb565b3d9150611ef5565b955050506080843d608011611f86575b81611f36608093836108e8565b810103126101fc57611f4784610967565b936060611f5660208301610967565b91611f6360408201610967565b500151946001600160601b03861686036101fc5790946001600160601b03610bbb565b3d9150611f29565b9091506020813d602011611fba575b81611faa602093836108e8565b810103126101fc5751905f610b80565b3d9150611f9d565b611fdb915060203d602011611e7c57611e6e81836108e8565b5f610b32565b611ffa915060203d602011611e7c57611e6e81836108e8565b5f610ae0565b612019915060203d602011611e7c57611e6e81836108e8565b5f610a8f565b612038915060203d602011611e7c57611e6e81836108e8565b5f610a3e565b50565b6005805460ff60c81b1916600160c81b1790556006546007545f929190808211156126705761206f916109b2565b60018111156125685760ff60055460b81c166123ae575b505060ff60055460c01c166120985750565b6040516347aebe8360e01b81526020816004815f5160206128055f395f51905f525afa9081156123a3578291612371575b506006549080821115612369576120df916109b2565b806120e8575050565b5f5160206128055f395f51905f523b1561236557604051906340c10f1960e01b82523060048301526024820152818082604481835f5160206128055f395f51905f525af19182612350575b505061223b57601554612145816108b0565b1561214e575050565b612157906108b0565b601f81116121fb575b5060159060b78255527f6e6f74696679526577617264416d6f756e742829207375636365656465642c205f5160206127a55f395f51905f52557f627574207468652065787465726e616c206361702d636f6e73756d696e67206d5f5160206127455f395f51905f52557f696e74207265706c617920776173206e6f7420616363657074656400000000005f5160206127855f395f51905f5255565b60158252601f0160051c5f5160206127a55f395f51905f52015f5160206127e55f395f51905f525b8181106122305750612160565b828155600101612223565b6005805460ff60d81b1916600160d81b17905560155461225a816108b0565b15612263575050565b61226c906108b0565b601f8111612310575b5060159060b18255527f70726976696c65676564207265706c617920636f6e73756d65642074686520725f5160206127a55f395f51905f52557f656d61696e696e6720736861726564206d696e742063617061636974792061665f5160206127455f395f51905f52557f746572206e6f74696679526577617264416d6f756e74282900000000000000005f5160206127855f395f51905f5255565b60158252601f0160051c5f5160206127a55f395f51905f52015f5160206127e55f395f51905f525b8181106123455750612275565b828155600101612338565b8161235a916108e8565b61236557815f612133565b5080fd5b5050806120df565b90506020813d60201161239b575b8161238c602093836108e8565b810103126101fc57515f6120c9565b3d915061237f565b6040513d84823e3d90fd5b63ffffffff8160011c9216808310612560575b508082101561254e575b50806123d8575b80612086565b5f5160206127c55f395f51905f523b156101fc5760405190633c6b16ab60e01b825260048201525f81602481835f5160206127c55f395f51905f525af19081612539575b506125215760155461242d816108b0565b1561243b575b505b5f6123d2565b612444906108b0565b601f81116124e1575b5060a3601555601581527f70726976696c65676564206e6f74696679526577617264416d6f756e742829205f5160206127a55f395f51905f52557f7265706c617920776173206e6f74206163636570746564206f6e2074686520635f5160206127455f395f51905f525570757272656e7420666f726b20737461746560781b5f5160206127855f395f51905f52555f612433565b60158252601f0160051c5f5160206127a55f395f51905f52015f5160206127e55f395f51905f525b818110612516575061244d565b828155600101612509565b6005805460ff60d01b1916600160d01b179055612435565b6125469192505f906108e8565b5f905f61241c565b5f1981019150811161099e575f6123cb565b91505f6123c1565b5050506125766015546108b0565b601f8111612630575b5060c560155560155f527f7368617265642063617020697320616c726561647920657868617573746564205f5160206127a55f395f51905f52557f6265666f7265207468652076657269666965722063616e207265706c617920745f5160206127455f395f51905f52557f68652070726976696c65676564207363686564756c652f6d696e7420737461675f5160206127855f395f51905f525561657360f01b5f5160206127e55f395f51905f5255565b60155f52601f0160051c5f5160206127a55f395f51905f52015f5160206127655f395f51905f525b818110612665575061257f565b5f8155600101612658565b50505f61206f565b60095480156126c35760075490808210156126bc57505b60055460ff8160b01c169081156126ae575b506126ab57505f90565b90565b60ff915060a81c165f6126a1565b905061268f565b505f90565b80156126c3575f80916040516020810191632e1a7d4d60e01b83526024820152602481526126f76044826108e8565b5190825f5160206127c55f395f51905f525af13d156126ab573d67ffffffffffffffff811161090a5760405190612738601f8201601f1916602001836108e8565b81525f60203d92013e9056fe55f448fdea98c4d29eb340757ef0a66cd03dbb9538908a6a81d96026b71ec47655f448fdea98c4d29eb340757ef0a66cd03dbb9538908a6a81d96026b71ec47955f448fdea98c4d29eb340757ef0a66cd03dbb9538908a6a81d96026b71ec47755f448fdea98c4d29eb340757ef0a66cd03dbb9538908a6a81d96026b71ec475000000000000000000000000b3fb1d01b07a706736ca175f827e4f56021b85de55f448fdea98c4d29eb340757ef0a66cd03dbb9538908a6a81d96026b71ec478000000000000000000000000ae9aca5d20f5b139931935378c4489308394ca2cce6d7b5282bd9a3661ae061feed1dbda4e52ab073b1f9285be6e155d9c38d4eca2646970667358221220ef4713c033b346abdb01a190d2c4be0d1f537935f169613bf1ad979ff8fe8c5f64736f6c634300081e0033","linkReferences":{}},"methodIdentifiers":{"REWARD_TOKEN()":"99248ea7","STAKING_TOKEN()":"0479d644","TARGET()":"cc1f2afa","attacker()":"48eb76ee","attackerCanExternallyMint()":"53438beb","attackerCanSchedule()":"d36e6cdd","canonicalReplayAttempted()":"048e00ee","canonicalReplayExternalMinted()":"03ce560b","canonicalReplayScheduled()":"860f9382","drainedRounds()":"aa7035c9","everMintedBefore()":"5105f371","executeOnOpportunity()":"3c2448ed","executed()":"31a38c89","exploitPathUsed()":"d78c4281","farmCanMint()":"98c54277","farmStakingBalanceAfter()":"c2dda9a6","farmStakingBalanceBefore()":"82198630","farmTotalSupplyBefore()":"072b0a26","farmTrackedRewardsBefore()":"3e64045d","finalReason()":"44d28655","hypothesisStatus()":"fbbd0637","localEarnedBefore()":"d57c5aa8","localStakeBefore()":"65da5942","payoutPhaseReachable()":"51e6ac97","payoutRevertedAtCap()":"cf06b28a","perRoundBootstrapAmount()":"8e547f1d","preExistingMintedSupply()":"ccd84930","profitAmount()":"5ff972cc","profitToken()":"49343624","publicBootstrapUsed()":"f13bf62c","realizedBalanceAfter()":"fc09c87c","realizedBalanceBefore()":"71edc3b8","rewardCap()":"9532e287","rewardRateBefore()":"b034a6bc","rewardTokenOwner()":"19c06fdd","rewardsDistribution()":"3fc6df6e","rewardsToken()":"d1af0c7d","sharedMintCap()":"dd431231","stakingToken()":"72f702f3","targetOwner()":"34c7f894","unreservedRewardFloor()":"cdb077db"},"id":0}