{"abi":[{"type":"constructor","inputs":[],"stateMutability":"nonpayable"},{"type":"receive","stateMutability":"payable"},{"type":"function","name":"attempted","inputs":[],"outputs":[{"name":"","type":"bool","internalType":"bool"}],"stateMutability":"view"},{"type":"function","name":"borrowedWethAmount","inputs":[],"outputs":[{"name":"","type":"uint256","internalType":"uint256"}],"stateMutability":"view"},{"type":"function","name":"executeDirectPath","inputs":[],"outputs":[],"stateMutability":"nonpayable"},{"type":"function","name":"executeOnOpportunity","inputs":[],"outputs":[],"stateMutability":"nonpayable"},{"type":"function","name":"executeOperation","inputs":[{"name":"","type":"address[]","internalType":"address[]"},{"name":"","type":"uint256[]","internalType":"uint256[]"},{"name":"","type":"uint256[]","internalType":"uint256[]"},{"name":"","type":"address","internalType":"address"},{"name":"","type":"bytes","internalType":"bytes"}],"outputs":[{"name":"","type":"bool","internalType":"bool"}],"stateMutability":"nonpayable"},{"type":"function","name":"hypothesisValidated","inputs":[],"outputs":[{"name":"","type":"bool","internalType":"bool"}],"stateMutability":"view"},{"type":"function","name":"oraclePriceAfterExit","inputs":[],"outputs":[{"name":"","type":"uint256","internalType":"uint256"}],"stateMutability":"view"},{"type":"function","name":"oraclePriceBeforeExit","inputs":[],"outputs":[{"name":"","type":"uint256","internalType":"uint256"}],"stateMutability":"view"},{"type":"function","name":"oraclePriceDuringCallback","inputs":[],"outputs":[{"name":"","type":"uint256","internalType":"uint256"}],"stateMutability":"view"},{"type":"function","name":"profitAmount","inputs":[],"outputs":[{"name":"","type":"uint256","internalType":"uint256"}],"stateMutability":"view"},{"type":"function","name":"profitToken","inputs":[],"outputs":[{"name":"","type":"address","internalType":"address"}],"stateMutability":"pure"},{"type":"function","name":"requestFlashloan","inputs":[{"name":"wstEthShortfall","type":"uint256","internalType":"uint256"},{"name":"wethShortfall","type":"uint256","internalType":"uint256"}],"outputs":[],"stateMutability":"nonpayable"}],"bytecode":{"object":"0x6080604052348015600e575f5ffd5b50610fae8061001c5f395ff3fe6080604052600436106100aa575f3560e01c80635ff972cc116100635780635ff972cc146103095780637ef43d7614610333578063917f51b41461035d578063920f5c8414610387578063c3b85220146103c3578063cde0d4ef146103eb57610231565b80631a1ea498146102355780631f149c7c1461025f5780633c2448ed1461028957806340505b191461029f578063463defd1146102b557806349343624146102df57610231565b3661023157600560029054906101000a900460ff1680156100d85750600560039054906101000a900460ff16155b1561022f576001600560036101000a81548160ff02191690831515021790555073e5d78eb340627b8d5bcff63590ebec1ef9118c8973ffffffffffffffffffffffffffffffffffffffff1663b3596f077310aa9eea35a3102cc47d4d93bc0ba9ae455577466040518263ffffffff1660e01b81526004016101599190610872565b602060405180830381865afa158015610174573d5f5f3e3d5ffd5b505050506040513d601f19601f8201168201806040525081019061019891906108c6565b600281905550739f72dc67cec672bb99e3d02cbea0a21536a2b65773ffffffffffffffffffffffffffffffffffffffff16635a3b74b973901247d08bebfd449526da92941b35d756873bcd5f6040518363ffffffff1660e01b815260040161020192919061090b565b5f604051808303815f87803b158015610218575f5ffd5b505af115801561022a573d5f5f3e3d5ffd5b505050505b005b5f5ffd5b348015610240575f5ffd5b50610249610415565b6040516102569190610941565b60405180910390f35b34801561026a575f5ffd5b5061027361041b565b6040516102809190610941565b60405180910390f35b348015610294575f5ffd5b5061029d610421565b005b3480156102aa575f5ffd5b506102b361043d565b005b3480156102c0575f5ffd5b506102c9610446565b6040516102d6919061095a565b60405180910390f35b3480156102ea575f5ffd5b506102f3610459565b6040516103009190610872565b60405180910390f35b348015610314575f5ffd5b5061031d610474565b60405161032a9190610941565b60405180910390f35b34801561033e575f5ffd5b5061034761047c565b6040516103549190610941565b60405180910390f35b348015610368575f5ffd5b50610371610482565b60405161037e919061095a565b60405180910390f35b348015610392575f5ffd5b506103ad60048036038101906103a89190610aa8565b610494565b6040516103ba919061095a565b60405180910390f35b3480156103ce575f5ffd5b506103e960048036038101906103e49190610bb2565b6104a6565b005b3480156103f6575f5ffd5b506103ff61082d565b60405161040c9190610941565b60405180910390f35b60025481565b60015481565b600160055f6101000a81548160ff021916908315150217905550565b60015f81905550565b600560019054906101000a900460ff1681565b5f73c02aaa39b223fe8d0a0e5c4f27ead9083c756cc2905090565b5f5f54905090565b60035481565b60055f9054906101000a900460ff1681565b5f600190509998505050505050505050565b3073ffffffffffffffffffffffffffffffffffffffff163373ffffffffffffffffffffffffffffffffffffffff1614610514576040517f08c379a000000000000000000000000000000000000000000000000000000000815260040161050b90610c4a565b60405180910390fd5b5f600267ffffffffffffffff8111156105305761052f610c68565b5b60405190808252806020026020018201604052801561055e5781602001602082028036833780820191505090505b509050737f39c581f595b53c5cb19bd0b3f8da6c935e2ca0815f8151811061058957610588610c95565b5b602002602001019073ffffffffffffffffffffffffffffffffffffffff16908173ffffffffffffffffffffffffffffffffffffffff168152505073c02aaa39b223fe8d0a0e5c4f27ead9083c756cc2816001815181106105ec576105eb610c95565b5b602002602001019073ffffffffffffffffffffffffffffffffffffffff16908173ffffffffffffffffffffffffffffffffffffffff16815250505f600267ffffffffffffffff81111561064257610641610c68565b5b6040519080825280602002602001820160405280156106705781602001602082028036833780820191505090505b50905083815f8151811061068757610686610c95565b5b60200260200101818152505082816001815181106106a8576106a7610c95565b5b6020026020010181815250505f600267ffffffffffffffff8111156106d0576106cf610c68565b5b6040519080825280602002602001820160405280156106fe5781602001602082028036833780820191505090505b5090507387870bca3f3fd6335c3f4ce8392d69350b4fa4e273ffffffffffffffffffffffffffffffffffffffff1663ab9c4b5d308585853060405180602001604052805f8152505f6040518863ffffffff1660e01b81526004016107689796959493929190610eef565b5f604051808303815f87803b15801561077f575f5ffd5b505af1158015610791573d5f5f3e3d5ffd5b5050505073c02aaa39b223fe8d0a0e5c4f27ead9083c756cc273ffffffffffffffffffffffffffffffffffffffff166370a08231306040518263ffffffff1660e01b81526004016107e29190610872565b602060405180830381865afa1580156107fd573d5f5f3e3d5ffd5b505050506040513d601f19601f8201168201806040525081019061082191906108c6565b5f819055505050505050565b60045481565b5f73ffffffffffffffffffffffffffffffffffffffff82169050919050565b5f61085c82610833565b9050919050565b61086c81610852565b82525050565b5f6020820190506108855f830184610863565b92915050565b5f5ffd5b5f5ffd5b5f819050919050565b6108a581610893565b81146108af575f5ffd5b50565b5f815190506108c08161089c565b92915050565b5f602082840312156108db576108da61088b565b5b5f6108e8848285016108b2565b91505092915050565b5f8115159050919050565b610905816108f1565b82525050565b5f60408201905061091e5f830185610863565b61092b60208301846108fc565b9392505050565b61093b81610893565b82525050565b5f6020820190506109545f830184610932565b92915050565b5f60208201905061096d5f8301846108fc565b92915050565b5f5ffd5b5f5ffd5b5f5ffd5b5f5f83601f84011261099457610993610973565b5b8235905067ffffffffffffffff8111156109b1576109b0610977565b5b6020830191508360208202830111156109cd576109cc61097b565b5b9250929050565b5f5f83601f8401126109e9576109e8610973565b5b8235905067ffffffffffffffff811115610a0657610a05610977565b5b602083019150836020820283011115610a2257610a2161097b565b5b9250929050565b610a3281610852565b8114610a3c575f5ffd5b50565b5f81359050610a4d81610a29565b92915050565b5f5f83601f840112610a6857610a67610973565b5b8235905067ffffffffffffffff811115610a8557610a84610977565b5b602083019150836001820283011115610aa157610aa061097b565b5b9250929050565b5f5f5f5f5f5f5f5f5f60a08a8c031215610ac557610ac461088b565b5b5f8a013567ffffffffffffffff811115610ae257610ae161088f565b5b610aee8c828d0161097f565b995099505060208a013567ffffffffffffffff811115610b1157610b1061088f565b5b610b1d8c828d016109d4565b975097505060408a013567ffffffffffffffff811115610b4057610b3f61088f565b5b610b4c8c828d016109d4565b95509550506060610b5f8c828d01610a3f565b93505060808a013567ffffffffffffffff811115610b8057610b7f61088f565b5b610b8c8c828d01610a53565b92509250509295985092959850929598565b5f81359050610bac8161089c565b92915050565b5f5f60408385031215610bc857610bc761088b565b5b5f610bd585828601610b9e565b9250506020610be685828601610b9e565b9150509250929050565b5f82825260208201905092915050565b7f6f6e6c792d73656c6600000000000000000000000000000000000000000000005f82015250565b5f610c34600983610bf0565b9150610c3f82610c00565b602082019050919050565b5f6020820190508181035f830152610c6181610c28565b9050919050565b7f4e487b71000000000000000000000000000000000000000000000000000000005f52604160045260245ffd5b7f4e487b71000000000000000000000000000000000000000000000000000000005f52603260045260245ffd5b5f81519050919050565b5f82825260208201905092915050565b5f819050602082019050919050565b610cf481610852565b82525050565b5f610d058383610ceb565b60208301905092915050565b5f602082019050919050565b5f610d2782610cc2565b610d318185610ccc565b9350610d3c83610cdc565b805f5b83811015610d6c578151610d538882610cfa565b9750610d5e83610d11565b925050600181019050610d3f565b5085935050505092915050565b5f81519050919050565b5f82825260208201905092915050565b5f819050602082019050919050565b610dab81610893565b82525050565b5f610dbc8383610da2565b60208301905092915050565b5f602082019050919050565b5f610dde82610d79565b610de88185610d83565b9350610df383610d93565b805f5b83811015610e23578151610e0a8882610db1565b9750610e1583610dc8565b925050600181019050610df6565b5085935050505092915050565b5f81519050919050565b5f82825260208201905092915050565b8281835e5f83830152505050565b5f601f19601f8301169050919050565b5f610e7282610e30565b610e7c8185610e3a565b9350610e8c818560208601610e4a565b610e9581610e58565b840191505092915050565b5f819050919050565b5f61ffff82169050919050565b5f819050919050565b5f610ed9610ed4610ecf84610ea0565b610eb6565b610ea9565b9050919050565b610ee981610ebf565b82525050565b5f60e082019050610f025f83018a610863565b8181036020830152610f148189610d1d565b90508181036040830152610f288188610dd4565b90508181036060830152610f3c8187610dd4565b9050610f4b6080830186610863565b81810360a0830152610f5d8185610e68565b9050610f6c60c0830184610ee0565b9897505050505050505056fea264697066735822122024aac41ba7b36e3f9fedb5ae6cb2aeb0ed34dbd19ce64fda125f30bf4a70d5cc64736f6c634300081e0033","linkReferences":{}},"methodIdentifiers":{"attempted()":"917f51b4","borrowedWethAmount()":"cde0d4ef","executeDirectPath()":"40505b19","executeOnOpportunity()":"3c2448ed","executeOperation(address[],uint256[],uint256[],address,bytes)":"920f5c84","hypothesisValidated()":"463defd1","oraclePriceAfterExit()":"7ef43d76","oraclePriceBeforeExit()":"1f149c7c","oraclePriceDuringCallback()":"1a1ea498","profitAmount()":"5ff972cc","profitToken()":"49343624","requestFlashloan(uint256,uint256)":"c3b85220"},"id":0}