{"abi":[{"type":"constructor","inputs":[],"stateMutability":"nonpayable"},{"type":"function","name":"TARGET","inputs":[],"outputs":[{"name":"","type":"address","internalType":"address"}],"stateMutability":"view"},{"type":"function","name":"UNISWAP_V2_FACTORY","inputs":[],"outputs":[{"name":"","type":"address","internalType":"address"}],"stateMutability":"view"},{"type":"function","name":"actualReceivedOnDirectPath","inputs":[],"outputs":[{"name":"","type":"uint256","internalType":"uint256"}],"stateMutability":"view"},{"type":"function","name":"actualReceivedOnNativePath","inputs":[],"outputs":[{"name":"","type":"uint256","internalType":"uint256"}],"stateMutability":"view"},{"type":"function","name":"actualReceivedOnTokensPath","inputs":[],"outputs":[{"name":"","type":"uint256","internalType":"uint256"}],"stateMutability":"view"},{"type":"function","name":"configure","inputs":[{"name":"anyToken","type":"address","internalType":"address"},{"name":"amount","type":"uint256","internalType":"uint256"},{"name":"toChainId","type":"uint256","internalType":"uint256"},{"name":"deadline","type":"uint256","internalType":"uint256"},{"name":"receiver","type":"address","internalType":"address"},{"name":"configuredTokensPath","type":"address[]","internalType":"address[]"},{"name":"configuredNativePath","type":"address[]","internalType":"address[]"}],"outputs":[],"stateMutability":"nonpayable"},{"type":"function","name":"configuredAmount","inputs":[],"outputs":[{"name":"","type":"uint256","internalType":"uint256"}],"stateMutability":"view"},{"type":"function","name":"configuredAnyToken","inputs":[],"outputs":[{"name":"","type":"address","internalType":"address"}],"stateMutability":"view"},{"type":"function","name":"configuredDeadline","inputs":[],"outputs":[{"name":"","type":"uint256","internalType":"uint256"}],"stateMutability":"view"},{"type":"function","name":"configuredReceiver","inputs":[],"outputs":[{"name":"","type":"address","internalType":"address"}],"stateMutability":"view"},{"type":"function","name":"configuredToChainId","inputs":[],"outputs":[{"name":"","type":"uint256","internalType":"uint256"}],"stateMutability":"view"},{"type":"function","name":"configuredUnderlying","inputs":[],"outputs":[{"name":"","type":"address","internalType":"address"}],"stateMutability":"view"},{"type":"function","name":"destinationSettlementInfeasible","inputs":[],"outputs":[{"name":"","type":"bool","internalType":"bool"}],"stateMutability":"view"},{"type":"function","name":"directUnderlyingPathAttempted","inputs":[],"outputs":[{"name":"","type":"bool","internalType":"bool"}],"stateMutability":"view"},{"type":"function","name":"executeOnOpportunity","inputs":[],"outputs":[],"stateMutability":"nonpayable"},{"type":"function","name":"executed","inputs":[],"outputs":[{"name":"","type":"bool","internalType":"bool"}],"stateMutability":"view"},{"type":"function","name":"failureReason","inputs":[],"outputs":[{"name":"","type":"string","internalType":"string"}],"stateMutability":"view"},{"type":"function","name":"hypothesisValidated","inputs":[],"outputs":[{"name":"","type":"bool","internalType":"bool"}],"stateMutability":"view"},{"type":"function","name":"lastRouterRevert","inputs":[],"outputs":[{"name":"","type":"string","internalType":"string"}],"stateMutability":"view"},{"type":"function","name":"missingCandidateConfiguration","inputs":[],"outputs":[{"name":"","type":"bool","internalType":"bool"}],"stateMutability":"view"},{"type":"function","name":"missingDirectUnderlyingBalance","inputs":[],"outputs":[{"name":"","type":"bool","internalType":"bool"}],"stateMutability":"view"},{"type":"function","name":"missingTradeUnderlyingBalance","inputs":[],"outputs":[{"name":"","type":"bool","internalType":"bool"}],"stateMutability":"view"},{"type":"function","name":"nativePath","inputs":[],"outputs":[{"name":"","type":"address[]","internalType":"address[]"}],"stateMutability":"view"},{"type":"function","name":"nativeUnderlyingPathAttempted","inputs":[],"outputs":[{"name":"","type":"bool","internalType":"bool"}],"stateMutability":"view"},{"type":"function","name":"noFeeObserved","inputs":[],"outputs":[{"name":"","type":"bool","internalType":"bool"}],"stateMutability":"view"},{"type":"function","name":"nominalAmountTried","inputs":[],"outputs":[{"name":"","type":"uint256","internalType":"uint256"}],"stateMutability":"view"},{"type":"function","name":"pathUsed","inputs":[],"outputs":[{"name":"","type":"string","internalType":"string"}],"stateMutability":"view"},{"type":"function","name":"permitPathInfeasible","inputs":[],"outputs":[{"name":"","type":"bool","internalType":"bool"}],"stateMutability":"view"},{"type":"function","name":"profitAmount","inputs":[],"outputs":[{"name":"","type":"uint256","internalType":"uint256"}],"stateMutability":"view"},{"type":"function","name":"profitToken","inputs":[],"outputs":[{"name":"","type":"address","internalType":"address"}],"stateMutability":"view"},{"type":"function","name":"tokensPath","inputs":[],"outputs":[{"name":"","type":"address[]","internalType":"address[]"}],"stateMutability":"view"},{"type":"function","name":"tokensUnderlyingPathAttempted","inputs":[],"outputs":[{"name":"","type":"bool","internalType":"bool"}],"stateMutability":"view"},{"type":"function","name":"transferPermitPathInfeasible","inputs":[],"outputs":[{"name":"","type":"bool","internalType":"bool"}],"stateMutability":"view"},{"type":"function","name":"uniswapV2Call","inputs":[{"name":"sender","type":"address","internalType":"address"},{"name":"amount0","type":"uint256","internalType":"uint256"},{"name":"amount1","type":"uint256","internalType":"uint256"},{"name":"data","type":"bytes","internalType":"bytes"}],"outputs":[],"stateMutability":"nonpayable"}],"bytecode":{"object":"0x60808060405234603c575f80546001600160a01b031990811690915560098054909116301790556038600b555f19600c556147e890816100418239f35b5f80fdfe60806040526004361015610011575f80fd5b5f3560e01c806310d1e85c146102345780631b2f575c1461022f5780631c79acb91461022a57806331a38c89146102255780633c2448ed1461022057806342c6a6b31461021b578063463defd11461021657806349343624146102115780634eaa9b3b1461020c5780634f9522a414610207578063510cbaa81461020257806358357d66146101fd5780635d04f026146101f85780635ff972cc146101f3578063688aad89146101ee578063688e747b146101e95780636d352e59146101e4578063720ebd95146101df5780637283898d146101da57806374c05555146101d557806376b18ecc146101d05780638e6adea1146101cb578063900cec84146101c65780639773b300146101c157806399d8fae3146101bc578063bc8d30c8146101b7578063c1a51e72146101b2578063c9335204146101ad578063cb3a27a2146101a8578063cc1f2afa146101a3578063d92a80ec1461019e578063f536214914610199578063f75d0734146101945763f90967731461018f575f80fd5b610a3b565b610a13565b6109ee565b6109d1565b6109a3565b610986565b610961565b61093c565b610921565b6108f3565b61086c565b6107aa565b61078d565b610768565b610743565b61069e565b610676565b610651565b61062c565b61060f565b6105f2565b6105cd565b6105a9565b61058c565b6104c9565b6103ec565b610389565b610364565b61033c565b610324565b610302565b6102e5565b6102c8565b61024e565b6001600160a01b0381160361024a57565b5f80fd5b3461024a57608036600319011261024a5760043561026b81610239565b60243560443591606435926001600160401b03841161024a573660238501121561024a578360040135926001600160401b03841161024a57366024858701011161024a5760246102bc950192610c30565b005b5f91031261024a57565b3461024a575f36600319011261024a576020600b54604051908152f35b3461024a575f36600319011261024a576020600654604051908152f35b3461024a575f36600319011261024a57602060ff600254166040519015158152f35b3461024a575f36600319011261024a576102bc61185d565b3461024a575f36600319011261024a576008546040516001600160a01b039091168152602090f35b3461024a575f36600319011261024a57602060ff60025460081c166040519015158152f35b3461024a575f36600319011261024a575f546040516001600160a01b039091168152602090f35b90602080835192838152019201905f5b8181106103cd5750505090565b82516001600160a01b03168452602093840193909201916001016103c0565b3461024a575f36600319011261024a5761041b610407612fb3565b6040519182916020835260208301906103b0565b0390f35b90600182811c9216801561044d575b602083101461043957565b634e487b7160e01b5f52602260045260245ffd5b91607f169161042e565b634e487b7160e01b5f52604160045260245ffd5b90601f801991011681019081106001600160401b0382111761048c57604052565b610457565b805180835260209291819084018484015e5f828201840152601f01601f1916010190565b9060206104c6928181520190610491565b90565b3461024a575f36600319011261024a576040515f6010546104e98161041f565b8084529060018116908115610568575060011461051d575b61041b836105118185038261046b565b604051918291826104b5565b60105f9081525f5160206147935f395f51905f52939250905b80821061054e57509091508101602001610511610501565b919260018160209254838588010152019101909291610536565b60ff191660208086019190915291151560051b840190910191506105119050610501565b3461024a575f36600319011261024a576020600554604051908152f35b3461024a575f36600319011261024a57602060ff600254821c166040519015158152f35b3461024a575f36600319011261024a57602060ff60025460501c166040519015158152f35b3461024a575f36600319011261024a576020600154604051908152f35b3461024a575f36600319011261024a576020600454604051908152f35b3461024a575f36600319011261024a57602060ff60025460581c166040519015158152f35b3461024a575f36600319011261024a57602060ff60025460281c166040519015158152f35b3461024a575f36600319011261024a576007546040516001600160a01b039091168152602090f35b3461024a575f36600319011261024a576040515f600f546106be8161041f565b808452906001811690811561056857506001146106e55761041b836105118185038261046b565b600f5f9081527f8d1108e10bcb7c27dddfc02ed9d693a074039d026cf4ea4240b40f7d581ac802939250905b80821061072957509091508101602001610511610501565b919260018160209254838588010152019101909291610711565b3461024a575f36600319011261024a57602060ff60025460181c166040519015158152f35b3461024a575f36600319011261024a57602060ff60025460301c166040519015158152f35b3461024a575f36600319011261024a576020600354604051908152f35b3461024a575f36600319011261024a576040515f6011546107ca8161041f565b808452906001811690811561056857506001146107f15761041b836105118185038261046b565b60115f9081525f5160206147735f395f51905f52939250905b80821061082257509091508101602001610511610501565b91926001816020925483858801015201910190929161080a565b9181601f8401121561024a578235916001600160401b03831161024a576020808501948460051b01011161024a57565b3461024a5760e036600319011261024a5760043561088981610239565b6024356044359161089960643590565b608435906108a682610239565b60a4356001600160401b03811161024a576108c590369060040161083c565b92909160c435966001600160401b03881161024a576108eb6102bc98369060040161083c565b979096611e6d565b3461024a575f36600319011261024a576020604051735c69bee701ef814a2b6a3edd4b1652cb9cc5aa6f8152f35b3461024a575f36600319011261024a5761041b610407613039565b3461024a575f36600319011261024a57602060ff60025460401c166040519015158152f35b3461024a575f36600319011261024a57602060ff60025460381c166040519015158152f35b3461024a575f36600319011261024a576020600a54604051908152f35b3461024a575f36600319011261024a576020604051736b7a87899490ece95443e979ca9485cbe7e715228152f35b3461024a575f36600319011261024a576020600c54604051908152f35b3461024a575f36600319011261024a57602060ff60025460481c166040519015158152f35b3461024a575f36600319011261024a576009546040516001600160a01b039091168152602090f35b3461024a575f36600319011261024a57602060ff60025460101c166040519015158152f35b91908260c091031261024a578135610a7781610239565b916020810135610a8681610239565b916040820135610a9581610239565b916060810135610aa481610239565b9160a06080830135610ab581610239565b9201356104c681610239565b15610ac857565b60405162461bcd60e51b815260206004820152601860248201527f756e65787065637465642d63616c6c6261636b2d7061697200000000000000006044820152606490fd5b15610b1457565b60405162461bcd60e51b815260206004820152601a60248201527f756e65787065637465642d63616c6c6261636b2d73656e6465720000000000006044820152606490fd5b15610b6057565b60405162461bcd60e51b815260206004820152600b60248201526a7a65726f2d626f72726f7760a81b6044820152606490fd5b9081602091031261024a575190565b6040513d5f823e3d90fd5b15610bb457565b60405162461bcd60e51b815260206004820152601060248201526f189bdc9c9bddcb5d1bdbcb5cdb585b1b60821b6044820152606490fd5b15610bf357565b60405162461bcd60e51b81526020600482015260156024820152741b9bcb5cda1bdc9d19985b1b0b5bd89cd95c9d9959605a1b6044820152606490fd5b909193610c7d93610c4391810190610a60565b92986001600160a01b03948516989185169793851696928516959094169391610c6d338714610ac1565b6001600160a01b03163014610b0d565b8115610d325750945b610c91861515610b59565b6040516370a0823160e01b815230600482015296602088602481855afa8015610d2d57610ce8610ced91610cfc9a5f91610cfe575b50610cd46103e88211610bad565b610ce181898b888a611f90565b8486612187565b610bec565b6001600160a01b0316916124c8565b565b610d20915060203d602011610d26575b610d18818361046b565b810190610b93565b5f610cc6565b503d610d0e565b610ba2565b905094610c86565b60018060a01b03166001600160601b0360a01b6008541617600855565b9081602091031261024a57516104c681610239565b818110610d77575050565b5f8155600101610d6c565b90601f8111610d8f575050565b610cfc915f52601f60205f20910160051c810190610d6c565b90601f8211610db5575050565b610cfc9160115f5260205f20906020601f840160051c83019310610de1575b601f0160051c0190610d6c565b9091508190610dd4565b9190601f8111610dfa57505050565b610cfc925f5260205f20906020601f840160051c83019310610de157601f0160051c0190610d6c565b610e38610e31600f5461041f565b600f610d82565b5f600f55565b610e53610e4c60105461041f565b6010610d82565b5f601055565b610e6e610e6760115461041f565b6011610d82565b5f601155565b90610cfc604051928361046b565b610e8d60105461041f565b601f8111610f9b575b5060f160109081555f527f6e6f20636f6e666967757265642063616e6469646174652073756363656564655f5160206147935f395f51905f52557f6420616e64207075626c69632d6c6971756964697479207363616e7320666f757f1b6847dc741a1b0cd08d278845f9d819d87b734759afb55fe2de5cb82a9ae673557f6e64206e6f206578706c6f697461626c6520616e79546f6b656e2f756e6465727f1b6847dc741a1b0cd08d278845f9d819d87b734759afb55fe2de5cb82a9ae674557f6c79696e6720726f757465206f6e207468697320666f726b00000000000000007f1b6847dc741a1b0cd08d278845f9d819d87b734759afb55fe2de5cb82a9ae67555565b60105f52610fde90601f0160051c5f5160206147935f395f51905f52017f1b6847dc741a1b0cd08d278845f9d819d87b734759afb55fe2de5cb82a9ae676610d6c565b5f610e96565b610fef60105461041f565b601f81116110ec575b5060d960109081555f527f7363616e6e656420616e79546f6b656e2063616e646964617465732070726f645f5160206147935f395f51905f52557f75636564206e6f206d656173757261626c6520756e6465726c79696e672073687f1b6847dc741a1b0cd08d278845f9d819d87b734759afb55fe2de5cb82a9ae673557f6f727466616c6c206f6e207468652076756c6e657261626c6520726f757465727f1b6847dc741a1b0cd08d278845f9d819d87b734759afb55fe2de5cb82a9ae674556b20656e747279706f696e747360a01b7f1b6847dc741a1b0cd08d278845f9d819d87b734759afb55fe2de5cb82a9ae67555565b60105f5261112f90601f0160051c5f5160206147935f395f51905f52017f1b6847dc741a1b0cd08d278845f9d819d87b734759afb55fe2de5cb82a9ae676610d6c565b5f610ff8565b61114060105461041f565b601f8111611309575b5061019d60109081555f527f6272696467652d6f7574206163636f756e74696e672073686f727466616c6c205f5160206147935f395f51905f52557f726570726f64756365642c20627574207363616e6e6564207075626c69632d6c7f1b6847dc741a1b0cd08d278845f9d819d87b734759afb55fe2de5cb82a9ae673557f697175696469747920726f7574657320636f756c64206e6f7420636f6e7665727f1b6847dc741a1b0cd08d278845f9d819d87b734759afb55fe2de5cb82a9ae674557f7420746865206e6f6d696e616c6c79206d696e74656420616e79546f6b656e207f1b6847dc741a1b0cd08d278845f9d819d87b734759afb55fe2de5cb82a9ae675557f696e76656e746f727920696e746f20656e6f7567682073616d652d636861696e7f1b6847dc741a1b0cd08d278845f9d819d87b734759afb55fe2de5cb82a9ae676557f2076616c75652061667465722064657465726d696e697374696320666c6173687f1b6847dc741a1b0cd08d278845f9d819d87b734759afb55fe2de5cb82a9ae677556d1cddd85c081c995c185e5b595b9d60921b7f1b6847dc741a1b0cd08d278845f9d819d87b734759afb55fe2de5cb82a9ae67855565b60105f5261134c90601f0160051c5f5160206147935f395f51905f52017f1b6847dc741a1b0cd08d278845f9d819d87b734759afb55fe2de5cb82a9ae679610d6c565b5f611149565b6001600160401b03811161048c57601f01601f191660200190565b6040519061137c60808361046b565b605f82527f29202d3e206275726e2f627269646765206e6f6d696e616c20616d6f756e74006060837f616e79537761704f7574556e6465726c79696e673a207472616e73666572207560208201527f6e6465726c79696e67202d3e206465706f7369745661756c7428616d6f756e7460408201520152565b6040519061140360a08361046b565b607c82527f496e29202d3e206275726e206e6f6d696e616c20616d6f756e74496e000000006080837f616e79537761704f75744578616374546f6b656e73466f72546f6b656e73556e60208201527f6465726c79696e672a3a207472616e7366657220756e6465726c79696e67207460408201527f6f20706174685b305d202d3e206465706f7369745661756c7428616d6f756e7460608201520152565b604051906114b060a08361046b565b607c82527f496e29202d3e206275726e206e6f6d696e616c20616d6f756e74496e000000006080837f616e79537761704f75744578616374546f6b656e73466f724e6174697665556e60208201527f6465726c79696e672a3a207472616e7366657220756e6465726c79696e67207460408201527f6f20706174685b305d202d3e206465706f7369745661756c7428616d6f756e7460608201520152565b805191908290602001825e015f815290565b60e39061159561158595946003611585610cfc96826040519a8b97602089019061154e565b620103e160ed1b8152019061154e565b7f2e205065726d69742076617269616e74732072656d61696e207369676e61747581527f72652d67617465643b2064657374696e6174696f6e20616e7953776170496e2060208201527f736574746c656d656e742072656d61696e73204d50432d67617465642c20736f60408201527f2073616d652d636861696e206d6f6e6574697a6174696f6e207265757365732060608201527f7468652073616d65207472616e736665722d7468656e2d6e6f6d696e616c2d6460808201527f65706f7369745661756c74207072696d69746976652061667465722076616c6960a08201527f646174696e6720746865207075626c6963206272696467652d6f75742070617460c08201526234399760e91b60e08201520360c381018552018361046b565b9081516001600160401b03811161048c576116dd816116d6600f5461041f565b600f610deb565b602092601f821160011461171d5761170d929382915f92611712575b50508160011b915f199060031b1c19161790565b600f55565b015190505f806116f9565b600f5f52601f198216937f8d1108e10bcb7c27dddfc02ed9d693a074039d026cf4ea4240b40f7d581ac802915f5b8681106117815750836001959610611769575b505050811b01600f55565b01515f1960f88460031b161c191690555f808061175e565b9192602060018192868501518155019401920161174b565b9081516001600160401b03811161048c576117c0816117b960115461041f565b6011610deb565b602092601f82116001146117f4576117ef929382915f926117125750508160011b915f199060031b1c19161790565b601155565b60115f52601f198216935f5160206147735f395f51905f52915f5b868110611845575083600195961061182d575b505050811b01601155565b01515f1960f88460031b161c191690555f8080611822565b9192602060018192868501518155019401920161180f565b60025460ff16610cfc57611879600160ff196002541617600255565b5f80546001600160a01b031916815560015561189b61ff001960025416600255565b6118ac62ff00001960025416600255565b6118be63ff0000001960025416600255565b6118d164ff000000001960025416600255565b6118ed6501000000000065ff0000000000196002541617600255565b61190b660100000000000066ff000000000000196002541617600255565b604051633dd7099960e21b8152602081600481736b7a87899490ece95443e979ca9485cbe7e715225afa8015610d2d57611979915f91611c5e575b506002805467ff0000000000000019166001600160a01b0392909216151560381b67ff0000000000000016919091179055565b61198b60ff60401b1960025416600255565b6119a369ff0000000000000000001960025416600255565b6002805461ffff60501b191690555f6003556119be5f600455565b6119c75f600555565b6119d05f600655565b6119d8610e23565b6119e0610e3e565b6119e8610e59565b60405163c45a015560e01b8152602081600481736b7a87899490ece95443e979ca9485cbe7e715225afa908115610d2d575f91611c3f575b50604051638fd903f560e01b815290602082600481736b7a87899490ece95443e979ca9485cbe7e715225afa918215610d2d575f92611c0e575b50611a656040610e74565b6001600160a01b038216815290735c69bee701ef814a2b6a3edd4b1652cb9cc5aa6f6020830152611a968383612a78565b611c03578282611aa592612c55565b611bf95781611ab48183612d58565b918215611be8575b5050611bdf57611acb90612b77565b600254601081901c60ff16908115611bd0575b8115611bc2575b5015611ba257600354611afa60045482612f81565b1590811591611b8c575b8115611b76575b5015611b5657611b2561010061ff00196002541617600255565b611b2d611135565b610cfc611b51611b3b61136d565b611b436113f4565b611b4b6114a1565b91611560565b6116b6565b6002805460ff60581b1916600160581b179055611b71610fe4565b611b2d565b611b84915060065490612f81565b15155f611b0b565b9050611b9a60055482612f81565b151590611b04565b611bba600160401b60ff60401b196002541617600255565b611b71610e82565b60201c60ff1690505f611ae5565b60ff601882901c169150611ade565b610cfc90612b77565b611bf29250612e85565b815f611abc565b50610cfc90612b77565b5050610cfc90612b77565b611c3191925060203d602011611c38575b611c29818361046b565b810190610d57565b905f611a5a565b503d611c1f565b611c58915060203d602011611c3857611c29818361046b565b5f611a20565b611c77915060203d602011611c3857611c29818361046b565b5f611946565b634e487b7160e01b5f52601160045260245ffd5b9061283c82029180830461283c1490151715611ca957565b611c7d565b906103e58202918083046103e51490151715611ca957565b81810292918115918404141715611ca957565b600d545f600d5580611ce85750565b600d5f52610cfc907fd7b6990105719101dabeb77144f2a3385c8033acd3af97e9423a695e81ad1eb590810190610d6c565b600e545f600e5580611d295750565b600e5f52610cfc907fbb7b4a454dc3493923482f07822329ed19e8244eff582cc204f8554c3620c3fd90810190610d6c565b634e487b7160e01b5f52603260045260245ffd5b9190811015611d7f5760051b0190565b611d5b565b356104c681610239565b8054821015611d7f575f5260205f2001905f90565b600d54600160401b81101561048c5760018101600d55600d54811015611d7f57600d5f527fd7b6990105719101dabeb77144f2a3385c8033acd3af97e9423a695e81ad1eb50180546001600160a01b0319166001600160a01b03909216919091179055565b600e54600160401b81101561048c5760018101600e55600e54811015611d7f57600e5f527fbb7b4a454dc3493923482f07822329ed19e8244eff582cc204f8554c3620c3fd0180546001600160a01b0319166001600160a01b03909216919091179055565b600780546001600160a01b0319166001600160a01b038316179055969796949594611ed19392611ecc929091611ec791906001600160a01b038116611f845750600880546001600160a01b0319169055600a55565b600a55565b600b55565b600c55565b6001600160a01b038116611f605750600980546001600160a01b031916301790555b611efb611cd9565b5f5b818110611f4157505050611f0f611d1a565b5f5b818110611f1d57505050565b80611f3b611f36611f316001948688611d6f565b611d84565b611e08565b01611f11565b80611f5a611f55611f316001948688611d6f565b611da3565b01611efd565b600980546001600160a01b0319166001600160a01b03909216919091179055611ef3565b610d3a611ec2916130ee565b600780546001600160a01b0319166001600160a01b0383161790556120fb9491939192612035929091611f3691600880546001600160a01b0319166001600160a01b038916179055600980546001600160a01b03191630179055600b541561215f575b5f19600c55612000611cd9565b61200982611da3565b6001600160a01b038116801590811561214c575b5015612143575061202d83611da3565b611f36611d1a565b6120ac60405163095ea7b360e01b6020820152736b7a87899490ece95443e979ca9485cbe7e7152260248201525f60448201526044815261207760648261046b565b6040519061208660408361046b565b6013825272185c1c1c9bdd994b5e995c9bcb59985a5b1959606a1b602083015284613b05565b60405163095ea7b360e01b6020820152736b7a87899490ece95443e979ca9485cbe7e7152260248201526044808201929092529081526120ed60648261046b565b6120f5613157565b91613b05565b6121116201000062ff0000196002541617600255565b612129630100000063ff000000196002541617600255565b610cfc64010000000064ff00000000196002541617600255565b61202d90611da3565b6001600160a01b0384161490505f61201d565b6038600b55611ff3565b8115612173570490565b634e487b7160e01b5f52601260045260245ffd5b9290916107d08104906103e8821061225f575b80821015612253575b8115159081612249575b5015612212576121bc81600355565b6121c781848661318a565b926121d382828761327f565b612209575b6121e3929394613383565b612200575b6002805461ff00191683151560081b61ff0016179055565b600191506121e8565b600193506121d8565b60405162461bcd60e51b815260206004820152600f60248201526e1c1c9bd8994b5d1bdbcb5cdb585b1b608a1b6044820152606490fd5b905081105f6121ad565b80915060021c906121a3565b6103e8915061219a565b1561227057565b60405162461bcd60e51b81526020600482015260126024820152711b9bcb5d5b99195c9b1e5a5b99cb5b19599d60721b6044820152606490fd5b156122b157565b60405162461bcd60e51b815260206004820152600d60248201526c1b9bcb585b9e4b5b5a5b9d1959609a1b6044820152606490fd5b5f19810191908211611ca957565b91908203918211611ca957565b1561230857565b60405162461bcd60e51b815260206004820152601a60248201527f696e73756666696369656e742d666f722d72657061796d656e740000000000006044820152606490fd5b1561235457565b60405162461bcd60e51b81526020600482015260126024820152711b9bcb5c1c9bd99a5d0b5c99585b1a5e995960721b6044820152606490fd5b60df906123b361158595946003611585610cfc96826040519a8b97602089019061154e565b7f2e2053616d652d636861696e207265616c697a6174696f6e206b65657073207481527f6865206578706c6f69742063617573616c69747920696e74616374206279207660208201527f616c69646174696e6720746865207075626c6963206272696467652d6f75742060408201527f706174687320666972737420616e64207468656e2073656c6c696e67206f6e6c60608201527f7920746865206d696e696d756d206e6f6d696e616c6c79206d696e746564206160808201527f6e79546f6b656e20696e76656e746f7279206e656564656420666f722064657460a08201527f65726d696e697374696320666c617368737761702072657061796d656e742e0060c08201520360bf81018552018361046b565b6040516370a0823160e01b815230600482015291966001600160a01b03881696919493929091906020816024818b5afa908115610d2d575f91612a59575b50612512811515612269565b6040516370a0823160e01b81523060048201526001600160a01b0387169790916020836024818c5afa928315610d2d578b89915f95612a29575b509161255e8160209361258595613467565b604051630bebbf4d60e41b8152600481019190915230602482015291829081906044820190565b03815f8d5af18015610d2d57612a0c575b506040516370a0823160e01b81523060048201526020816024818c5afa908115610d2d578a936125d8926125d1925f916129ed575b506134db565b15156122aa565b6001600160a01b03160361280c57506125f090613755565b6040516370a0823160e01b815230600482015290916020826024818a5afa918215610d2d575f926127eb575b5081838110612779575b5050916126388261263e941015612301565b86613467565b6040516370a0823160e01b815230600482015292602090849060249082905afa928315610d2d575f93612758575b506040516370a0823160e01b815230600482015291602090839060249082905afa918215610d2d575f92612737575b50821580159061272e575b6126af9061234d565b8183106127035750506126da6126df9260018060a01b03166001600160601b0360a01b5f5416175f55565b600155565b610cfc611b516126ed61136d565b6126f56113f4565b6126fd6114a1565b9161238e565b61272993506126da91925060018060a01b03166001600160601b0360a01b5f5416175f55565b6126df565b508115156126a6565b61275191925060203d602011610d2657610d18818361046b565b905f61269b565b61277291935060203d602011610d2657610d18818361046b565b915f61266c565b612790925061278890846122f4565b9088866135aa565b6040516370a0823160e01b815230600482015291602083602481895afa8015610d2d57826126389161263e955f916127cc575b50929450612626565b6127e5915060203d602011610d2657610d18818361046b565b5f6127c3565b61280591925060203d602011610d2657610d18818361046b565b905f61261c565b61281c92959650809497846134f0565b6040516370a0823160e01b81523060048201526001600160a01b03841694602082602481895afa918215610d2d575f926129cc575b508183811061295a575b50509161286d82612873941015612301565b83613467565b6040516370a0823160e01b815230600482015292602090849060249082905afa928315610d2d575f93612939575b506040516370a0823160e01b815230600482015291602090839060249082905afa918215610d2d575f92612918575b50821580159061290f575b6128e49061234d565b8183106127035750506126da6127299260018060a01b03166001600160601b0360a01b5f5416175f55565b508115156128db565b61293291925060203d602011610d2657610d18818361046b565b905f6128d0565b61295391935060203d602011610d2657610d18818361046b565b915f6128a1565b612971925061296990846122f4565b9085896135aa565b6040516370a0823160e01b815230600482015291602083602481885afa8015610d2d578261286d91612873955f916129ad575b5092945061285b565b6129c6915060203d602011610d2657610d18818361046b565b5f6129a4565b6129e691925060203d602011610d2657610d18818361046b565b905f612851565b612a06915060203d602011610d2657610d18818361046b565b5f6125cb565b612a249060203d602011610d2657610d18818361046b565b612596565b8361258594929650602093612a4d61255e93863d8811610d2657610d18818361046b565b9793509350935061254c565b612a72915060203d602011610d2657610d18818361046b565b5f612506565b6007546001600160a01b0316919082908115612b26576008546001600160a01b0316918215612b4b575b6001600160a01b038316801591908215612b38575b8215612b2e575b5050612b2657612ad09083838661377d565b929091906001600160a01b038216158015612b15575b8015612b04575b612afa576104c695613833565b5050505050505f90565b506001600160a01b03841615612aed565b506001600160a01b03831615612ae6565b505050505f90565b1490505f80612abe565b6001600160a01b03861681149250612ab7565b9150612b56846130ee565b600880546001600160a01b0319166001600160a01b03831617905591612aa2565b5f546001600160a01b031680612c0457505f80546001600160a01b0319166001600160a01b0383161790556040516370a0823160e01b815230600482015290602090829081806024810103916001600160a01b03165afa8015610d2d57610cfc915f91612be5575b50600155565b612bfe915060203d602011610d2657610d18818361046b565b5f612bdf565b612c1f91506001600160a01b03165b6001600160a01b031690565b6040516370a0823160e01b815230600482015290602090829060249082905afa8015610d2d57610cfc915f91612be55750600155565b90916001600160a01b03909116908115612d405760405163574f2ba360e01b8152602081600481865afa908115610d2d575f91612d21575b50610a28811115612d1b5750610a28925b5f5b848110612cb05750505050505f90565b604051631e3dd18b60e01b815260048101829052602081602481885afa8015610d2d57838591612ce7935f91612cfd575b50613a20565b612cf357600101612ca0565b5050505050600190565b612d15915060203d8111611c3857611c29818361046b565b5f612ce1565b92612c9e565b612d3a915060203d602011610d2657610d18818361046b565b5f612c8d565b5050505f90565b906002811015611d7f5760051b0190565b5f5b60028110612d69575050505f90565b6001600160a01b03612d8b612d7e8385612d47565b516001600160a01b031690565b168015612e7c5760405163574f2ba360e01b815290602082600481845afa918215610d2d575f92612e5c575b50610200821115612e5657610200915b5f5b838110612dde57505050506001905b01612d5a565b612e1a6020612dfb83612df6869b999b9a989a6122e6565b6122f4565b60405180938192631e3dd18b60e01b8352600483019190602083019252565b0381875afa8015610d2d57858791612e38935f91612cfd5750613a20565b612e4a57600101959395949294612dc9565b50505050505050600190565b81612dc7565b612e7591925060203d8111610d2657610d18818361046b565b905f612db7565b50600190612dd8565b5f5b60028110612e96575050505f90565b6001600160a01b03612eab612d7e8385612d47565b168015612f785760405163574f2ba360e01b8152602081600481855afa908115610d2d575f91612f5a575b5060c0811115612f54575060c0905b5f5b828110612efb575050506001905b01612e87565b604051631e3dd18b60e01b815260048101829052939592949193602081602481885afa8015610d2d57838591612f37935f91612cfd5750613a20565b612f4957600101949290939194612ee7565b505050505050600190565b90612ee5565b612f72915060203d8111610d2657610d18818361046b565b5f612ed6565b50600190612ef5565b9081811015612f96578103908111611ca95790565b50505f90565b6001600160401b03811161048c5760051b60200190565b600e5490612fc082612f9c565b612fcd604051918261046b565b828152601f19612fdc84612f9c565b0136602083013780925f5b818110612ff357505050565b612ffe81600e611d8e565b9054845160039290921b1c6001600160a01b03169190811015611d7f576001600160a01b03909116600582901b840160200152600101612fe7565b600d549061304682612f9c565b613053604051918261046b565b828152601f1961306284612f9c565b0136602083013780925f5b81811061307957505050565b61308481600d611d8e565b9054845160039290921b1c6001600160a01b03169190811015611d7f576001600160a01b03909116600582901b84016020015260010161306d565b3d156130e9573d906130d082611352565b916130de604051938461046b565b82523d5f602084013e565b606090565b5f80916040516020810190636f307dc360e01b82526004815261311260248261046b565b5191617530fa6131206130bf565b9015801561314c575b6131475760208180518101031261024a5760200151612c1381610239565b505f90565b506020815110613129565b6040519061316660408361046b565b6015825274185c1c1c9bdd994b585b5bdd5b9d0b59985a5b1959605a1b6020830152565b9161319791819493613b8a565b93916132755750508151806131ad575b505f9150565b6001600160401b03811161048c576131cf816131ca60115461041f565b610da8565b602092601f8211600114613209576131fe929382915f926117125750508160011b915f199060031b1c19161790565b6011555b805f6131a7565b60115f52601f198216935f5160206147735f395f51905f52915f5b86811061325d5750836001959610613245575b505050811b01601155613202565b01515f1960f88460031b161c191690555f8080613237565b91926020600181928685015181550194019201613224565b6004819055109150565b61328a918391613d00565b92916133785750508051151580613366575b6132a557505f90565b9081516001600160401b03811161048c576132c5816131ca60115461041f565b602092601f82116001146132fb576132f4929382915f926117125750508160011b915f199060031b1c19161790565b6011555f90565b60115f52601f198216935f5160206147735f395f51905f52915f5b86811061334e5750836001959610613336575b505050811b016011555f90565b01515f1960f88460031b161c191690555f8080613329565b91926020600181928685015181550194019201613316565b5061337260115461041f565b1561329c565b809192506005551090565b61338e918391613da9565b929161345c575050805115158061344a575b6133a957505f90565b9081516001600160401b03811161048c576133c9816131ca60115461041f565b602092601f82116001146133f8576132f4929382915f926117125750508160011b915f199060031b1c19161790565b60115f52601f198216935f5160206147735f395f51905f52915f5b868110613432575083600195961061333657505050811b016011555f90565b91926020600181928685015181550194019201613413565b5061345660115461041f565b156133a0565b809192506006551090565b60405163a9059cbb60e01b60208201526001600160a01b0390921660248301526044820192909252610cfc91906134ab81606481015b03601f19810183528261046b565b604051916134ba60408461046b565b600f83526e1d1c985b9cd9995c8b59985a5b1959608a1b6020840152613b05565b9080821115612f96578103908111611ca95790565b916134ff916104c69493613ede565b90916140aa565b5f198114611ca95760010190565b1561351b57565b60405162461bcd60e51b815260206004820152600f60248201526e6e6f2d73656c6c2d62616c616e636560881b6044820152606490fd5b9060018201809211611ca957565b91908201809211611ca957565b1561357457565b60405162461bcd60e51b815260206004820152600e60248201526d1cd85b194b5b9bcb5bdd5d1c1d5d60921b6044820152606490fd5b905f5b8415158061374b575b15613744576135c490613506565b6040516370a0823160e01b81523060048201529094906020816024816001600160a01b0388165afa908115610d2d575f91613726575b50613606811515613514565b61363661363161362961362461361d87898b613ede565b90876140aa565b611c91565b612710900490565b613552565b9080821161371e575b506040516370a0823160e01b81523060048201526001600160a01b03841691602082602481865afa918215610d2d575f926136fa575b50613682908786886141ad565b6040516370a0823160e01b815230600482015291602090839060249082905afa8015610d2d576136b8925f916136e257506134db565b6136c381151561356d565b818110156136da576136d4916122f4565b936135ad565b505050505050565b612a06915060203d8111610d2657610d18818361046b565b6136829192506137179060203d8111610d2657610d18818361046b565b9190613675565b90505f61363f565b61373e915060203d8111610d2657610d18818361046b565b5f6135fa565b5050505050565b50600481106135b6565b6103e88102908082046103e81490151715611ca9576103e5900460018101809111611ca95790565b909293919361378d858583614290565b50936001600160a01b038516156137e9576137a9818484614290565b506001600160a01b0381166137e15750506137c5918591614290565b50926001600160a01b038416156137d95790565b505f92508290565b955092915050565b5050509150505f905f905f90565b90600b811015611d7f5760051b0190565b90926080926104c695948352602083015260018060a01b031660408201528160608201520190610491565b929493919094613844610160610e74565b926040845260306020850152602060408501526018606085015260146080850152601060a0850152600c60c0850152600a60e08501526008610100850152600661012085015260046101408501525f955b600b87106138aa575b50505050505050505f90565b600a54968715613a03575b8888156139f457604080516001600160a01b038a81166020830152838116928201929092528782166060820152868216608082015284821660a082015290851660c08083019190915281525f9182916139449161391f908d9061391960e08561046b565b8a61431b565b929061349d604051938492602084019663022c0d9f60e01b8852309160248601613808565b519082885af16139526130bf565b90156139c0575050505050505061398792610d3a611ec29260018060a01b03166001600160601b0360a01b6007541617600755565b600980546001600160a01b03191630179055600b54156139b1575b5f19600c55600190565b600190565b6139bb6038600b55565b6139a2565b6139d991929394959698506139d4906143d6565b611799565b600a546139ef576001905b019593929190613895565b61389e565b506001919293949597506139e4565b9650613a1a613a1288876137f7565b5189856142f3565b966138b5565b604051630dfe168160e01b81526001600160a01b03909116929190602081600481875afa908115610d2d575f91613ae6575b50613a5e838383614499565b613add5760206004946040519586809263d21220a760e01b82525afa938415610d2d575f94613abc575b506001600160a01b03848116911614159283613aaa575b5050506139ac575f90565b613ab49350614499565b5f8080613a9f565b613ad691945060203d602011611c3857611c29818361046b565b925f613a88565b50505050600190565b613aff915060203d602011611c3857611c29818361046b565b5f613a52565b5f91829182602083519301915af1613b1b6130bf565b81613b52575b5015613b2a5750565b60405162461bcd60e51b815260206004820152908190613b4e906024830190610491565b0390fd5b8051801592508215613b67575b50505f613b21565b819250906020918101031261024a5760200151801515810361024a575f80613b5f565b6040516370a0823160e01b81526001600160a01b0382811660048301529290921693926060929190602083602481895afa928315610d2d575f93613ca0575b50600954600b546040516376defaf160e11b602082019081526001600160a01b0386811660248401529093166044820152606481019390935260848301525f91829190613c198160a4810161349d565b519082736b7a87899490ece95443e979ca9485cbe7e715225af194613c3c6130bf565b8615613c8957506040516370a0823160e01b81526001600160a01b03929092166004830152909190602090839060249082905afa8015610d2d57613c86925f916129ed57506134db565b91565b9350505050613c999192506143d6565b5f915f9190565b5f919350613cbd829160203d602011610d2657610d18818361046b565b939150613bc9565b91613cea9060a0949796959284525f602085015260c0604085015260c08401906103b0565b95600180851b0316606083015260808201520152565b6040516370a0823160e01b81526001600160a01b0382811660048301529290921693926060929190602083602481895afa928315610d2d575f93613d84575b505f8091613d4b613039565b600954613c19906001600160a01b03169161349d600c54600b54906040519586946020860198630d8b9f6160e41b8a5260248701613cc5565b5f919350613da1829160203d602011610d2657610d18818361046b565b939150613d3f565b6040516370a0823160e01b81526001600160a01b0382811660048301529290921693926060929190602083602481895afa928315610d2d575f93613e2d575b505f8091613df4612fb3565b600954613c19906001600160a01b03169161349d600c54600b549060405195869460208601986335229cb960e11b8a5260248701613cc5565b5f919350613e4a829160203d602011610d2657610d18818361046b565b939150613de8565b51906001600160701b038216820361024a57565b9081606091031261024a57613e7a81613e52565b916040613e8960208401613e52565b92015163ffffffff8116810361024a5790565b15613ea357565b60405162461bcd60e51b81526020600482015260136024820152720e0c2d2e45ae8ded6cadc5adad2e6dac2e8c6d606b1b6044820152606490fd5b604051630dfe168160e01b81526001600160a01b0390911693929091602083600481885afa928315610d2d575f93614044575b5060405163d21220a760e01b815294602086600481845afa908115610d2d576004965f92614020575b5060609060405197888092630240bc6b60e21b82525afa938415610d2d575f965f95613fe8575b506001600160a01b0390811692169081831480613fd3575b613fbe57926001600160701b039492613fa592869560018060a01b0316149182613fab575b5050613e9c565b16921690565b6001600160a01b03161490505f80613f9e565b50505050916001600160701b03809116921690565b506001600160a01b0384811690821614613f79565b90945061400e91965060603d606011614019575b614006818361046b565b810190613e66565b50959095935f613f61565b503d613ffc565b606091925061403d9060203d602011611c3857611c29818361046b565b9190613f3a565b61405e91935060203d602011611c3857611c29818361046b565b915f613f11565b1561406c57565b60405162461bcd60e51b8152602060048201526016602482015275696e73756666696369656e742d6c697175696469747960501b6044820152606490fd5b919082156141195782816140d492151580614110575b80614107575b6140cf90614065565b611cc6565b6103e88102908082046103e81490151715611ca9576141016140fc6104c694613631946122f4565b611cae565b90612169565b508382106140c6565b508315156140c0565b60405162461bcd60e51b81526020600482015260136024820152721a5b9cdd59999a58da595b9d0b5bdd5d1c1d5d606a1b6044820152606490fd5b1561415b57565b60405162461bcd60e51b815260206004820152600f60248201526e1e995c9bcb5cd85b194b5a5b9c1d5d608a1b6044820152606490fd5b604051906141a160208361046b565b5f808352366020840137565b9291926141c86141be838387613ede565b9190948684613467565b6040516370a0823160e01b81526001600160a01b038681166004830152909260209184916024918391165afa938415610d2d576142138161422a96614223955f916129ed57506134db565b61421e811515614154565b6144fb565b908361431b565b90916001600160a01b031661423d614192565b90803b1561024a5761426b935f80946040519687958694859363022c0d9f60e01b8552309160048601613808565b03925af18015610d2d5761427c5750565b8061428a5f610cfc9361046b565b806102be565b9092916142c3906142ab818660018060a01b03865116614594565b602090940151939590936001600160a01b0316614594565b9390916001600160a01b0381161515806142e9575b6142e25750509190565b9350919050565b50848210156142d8565b906142fd91614697565b50908115612f965761430e91612169565b6103e88111156131475790565b604051630dfe168160e01b81525f93928492909190602090829060049082906001600160a01b03165afa908115610d2d575f91614370575b506001600160a01b0391821691160361436a575091565b92915090565b614389915060203d602011611c3857611c29818361046b565b5f614353565b6040519061439e60608361046b565b6023825262696e6760e81b6040837f726f757465722d63616c6c2d72657665727465642d776974686f75742d73747260208201520152565b5f8151600481101561448d575b604411159081614473575b506143fc57506104c661438f565b600481015181016024810191906020908290031261024a576024810151906001600160401b03821161024a57018160438201121561024a5760248101519061444382611352565b92614451604051948561046b565b8284526044828401011161024a57815f926044602093018386015e8301015290565b6001600160e01b03191662461bcd60e51b1490505f6143ee565b602083015191506143e3565b91906001600160a01b03831690811580156144e9575b612b26576144bc846130ee565b916001600160a01b038316801591908215612b38578215612b2e575050612b2657612ad09083838661377d565b506001600160a01b03831682146144af565b91821561455a5781151580614551575b61451490614065565b6103e583029283046103e503611ca95761452e9083611cc6565b906103e88102908082046103e81490151715611ca9576104c69261410191613560565b5080151561450b565b60405162461bcd60e51b81526020600482015260126024820152711a5b9cdd59999a58da595b9d0b5a5b9c1d5d60721b6044820152606490fd5b6001600160a01b031692919083158015614686575b8015614675575b8015614660575b6146355760405163e6a4390560e01b81526001600160a01b0382811660048301528316602482015293602090859060449082905afa938415610d2d575f9461463f575b506001600160a01b0384161561463557906146159184613ede565b9015801561462d575b6146255790565b505f91508190565b50801561461e565b505090505f905f90565b61465991945060203d602011611c3857611c29818361046b565b925f6145fa565b506001600160a01b03818116908316146145b7565b506001600160a01b038216156145b0565b506001600160a01b038116156145a9565b604051630dfe168160e01b815292916001600160a01b0390911690602084600481855afa918215610d2d576004945f9361474e575b5060609060405195868092630240bc6b60e21b82525afa918215610d2d575f945f93614726575b506001600160a01b03918216911614614716576001600160701b03809116921690565b6001600160701b03928316921690565b90925061474391945060603d60601161401957614006818361046b565b50939093915f6146f3565b606091935061476b9060203d602011611c3857611c29818361046b565b92906146cc56fe31ecc21a745e3968a04e9570e4425bc18fa8019c68028196b546d1669c200c681b6847dc741a1b0cd08d278845f9d819d87b734759afb55fe2de5cb82a9ae672a2646970667358221220fc92279e612f44bb8c8437207e2f3f2a64066d4538ea6fdf9e0672f0e240f6ce64736f6c634300081e0033","linkReferences":{}},"methodIdentifiers":{"TARGET()":"cc1f2afa","UNISWAP_V2_FACTORY()":"99d8fae3","actualReceivedOnDirectPath()":"688aad89","actualReceivedOnNativePath()":"1c79acb9","actualReceivedOnTokensPath()":"510cbaa8","configure(address,uint256,uint256,uint256,address,address[],address[])":"9773b300","configuredAmount()":"cb3a27a2","configuredAnyToken()":"720ebd95","configuredDeadline()":"d92a80ec","configuredReceiver()":"f75d0734","configuredToChainId()":"1b2f575c","configuredUnderlying()":"42c6a6b3","destinationSettlementInfeasible()":"c9335204","directUnderlyingPathAttempted()":"f9096773","executeOnOpportunity()":"3c2448ed","executed()":"31a38c89","failureReason()":"4f9522a4","hypothesisValidated()":"463defd1","lastRouterRevert()":"900cec84","missingCandidateConfiguration()":"c1a51e72","missingDirectUnderlyingBalance()":"f5362149","missingTradeUnderlyingBalance()":"5d04f026","nativePath()":"4eaa9b3b","nativeUnderlyingPathAttempted()":"58357d66","noFeeObserved()":"688e747b","nominalAmountTried()":"8e6adea1","pathUsed()":"7283898d","permitPathInfeasible()":"6d352e59","profitAmount()":"5ff972cc","profitToken()":"49343624","tokensPath()":"bc8d30c8","tokensUnderlyingPathAttempted()":"74c05555","transferPermitPathInfeasible()":"76b18ecc","uniswapV2Call(address,uint256,uint256,bytes)":"10d1e85c"},"id":0}