{"abi":[{"type":"fallback","stateMutability":"payable"},{"type":"receive","stateMutability":"payable"},{"type":"function","name":"executeOnOpportunity","inputs":[],"outputs":[],"stateMutability":"nonpayable"}],"bytecode":{"object":"0x608080604052346015576104fe908161001a8239f35b5f80fdfe6080806040526004361015610011575b005b5f3560e01c633c2448ed0361000f573461031d575f36600319011261031d57479073ae60ac8e69414c2dc362d0e6a03af643d1d85b9231906702c68af0bb1400008211156103de575060011c90683635c9adc5dea0000082116103cd575b67016345785d8a00008210610393578160011b90828204600214831517156102e15760405161009f606082610415565b60028152604036602083013773eeeeeeeeeeeeeeeeeeeeeeeeeeeeeeeeeeeeeeee6100c98261044b565b5273eeeeeeeeeeeeeeeeeeeeeeeeeeeeeeeeeeeeeeee6100e88261046c565b52604051936100f8608086610415565b60038552602085019460609485368837826101128361044b565b5261011c8261046c565b52610e1042018042116102e1576101328261047c565b5260405194610142608087610415565b60038652366020870137306101568661044b565b52306101618661046c565b523061016c8661047c565b5260409586519061017d8883610415565b60018252601f1988013660208401377399f3f4685a7178f26eb4f4ca8b75a1724f1577b96101aa8361044b565b526020968851936101bb8986610415565b5f855291889593916101ea979593878c51998a9863b7d29a3560e01b8a5260a060048b015260a48a019061048c565b8881036003190160248a01529151808352910192905f5b81811061037a5750505085820360031901604487015261023792916102259161048c565b8581036003190160648701529061048c565b60031984820301608485015281518082528582019186808360051b8301019401925f915b838310610332575050505050828091039173ae60ac8e69414c2dc362d0e6a03af643d1d85b925af18015610328576102f5575b504767016345785d8a000082018092116102e157106102a957005b606491519062461bcd60e51b825260048201526013602482015272125b9cdd59999a58da595b9d081c1c9bd99a5d606a1b6044820152fd5b634e487b7160e01b5f52601160045260245ffd5b8281813d8311610321575b61030a8183610415565b8101031261031d5751801515811461028e575b5f80fd5b503d610300565b84513d5f823e3d90fd5b92959780809295985060019396601f19868203018752818a518051918291828552018484015e5f838284010152601f801991011601019701930193018795938a97959261025b565b825185528c998b99509485019490920191600101610201565b60405162461bcd60e51b8152602060048201526012602482015271185b5bdd5b9d125b881d1bdbc81cdb585b1b60721b6044820152606490fd5b683635c9adc5dea00000915061006f565b62461bcd60e51b8152602060048201526012602482015271526f757465722045544820746f6f206c6f7760701b6044820152606490fd5b90601f8019910116810190811067ffffffffffffffff82111761043757604052565b634e487b7160e01b5f52604160045260245ffd5b8051156104585760200190565b634e487b7160e01b5f52603260045260245ffd5b8051600110156104585760400190565b8051600210156104585760600190565b90602080835192838152019201905f5b8181106104a95750505090565b82516001600160a01b031684526020938401939092019160010161049c56fea264697066735822122096f3c30c71aee90f6d5a9109669477ab067608323e6a3613646a36078aaf504e64736f6c634300081e0033","linkReferences":{}},"methodIdentifiers":{"executeOnOpportunity()":"3c2448ed"},"id":0}