{"abi":[{"type":"constructor","inputs":[],"stateMutability":"nonpayable"},{"type":"function","name":"executeOnOpportunity","inputs":[],"outputs":[],"stateMutability":"nonpayable"},{"type":"function","name":"profitAmount","inputs":[],"outputs":[{"name":"","type":"uint256","internalType":"uint256"}],"stateMutability":"view"},{"type":"function","name":"profitToken","inputs":[],"outputs":[{"name":"","type":"address","internalType":"address"}],"stateMutability":"view"},{"type":"function","name":"uniswapV2Call","inputs":[{"name":"","type":"address","internalType":"address"},{"name":"amount0","type":"uint256","internalType":"uint256"},{"name":"amount1","type":"uint256","internalType":"uint256"},{"name":"data","type":"bytes","internalType":"bytes"}],"outputs":[],"stateMutability":"nonpayable"}],"bytecode":{"object":"0x608080604052346015576116e6908161001a8239f35b5f80fdfe6080806040526004361015610012575f80fd5b5f905f3560e01c90816310d1e85c146100ad575080633c2448ed14610091578063493436241461006a57635ff972cc1461004a575f80fd5b346100675780600319360112610067576020600154604051908152f35b80fd5b5034610067578060031936011261006757546040516001600160a01b039091168152602090f35b50346100675780600319360112610067576100aa6108ac565b80f35b82346104bc5760803660031901126104bc576004356001600160a01b038116036104bc576064359160243567ffffffffffffffff84116104bc57366023850112156104bc57836004013567ffffffffffffffff81116104bc5784013660248201116104bc5760a090859003126104bc5761012960248501610843565b61013560448601610843565b9161014260648701610843565b9161015b60a461015460848a01610843565b9801610843565b6001600160a01b0393841697908416959184169484169316903385900361080f5750604051630dfe168160e01b815291602083600481885afa9283156104b1575f936107ec575b50801580159383929161079e57935b1561079457925b6001600160a01b03160361075a576001821061071f576101d781610cc6565b156106eb57604051630240bc6b60e21b815290606082600481885afa9182156104b1575f905f936106c6575b50604051630dfe168160e01b81526020816004818a5afa9081156104b1575f916106a7575b506001600160a01b0316898103610688575060405163d21220a760e01b8152906020826004818a5afa9182156104b1576001600160701b0393849361027e925f91610669575b506001600160a01b031614610ec7565b169116905b81831015610634578261029591610f04565b916103e88302928084046103e81490151715610505576102b491610cb9565b6103e58102908082046103e51490151715610505576102d291610c9b565b926001840180941161050557604051630dfe168160e01b815290602082600481865afa9182156104b1575f92610613575b50604051630240bc6b60e21b815290606082600481875afa9182156104b1575f905f936105de575b505f9384908a906001600160a01b03168481036105bb57505060405163d21220a760e01b81529050602081600481895afa9182156104b1576103898b6001600160701b039485945f9161058c575b506001600160a01b031614610f17565b16921686925b8715610556578015158061054d575b1561051957876103ad91610f04565b906103e88202918083046103e8149015171561050557876103cd91610cb9565b6103e58102908082046103e51490151715610505576103eb91610c9b565b60018101809111610505578461040092610f5a565b156104c057823b156104bc5760a45f9283604051958694859363022c0d9f60e01b855260048501526024840152306044840152608060648401528160848401525af180156104b15761049b575b506104589293610f5a565b156104605780f35b60405162461bcd60e51b8152602060048201526013602482015272189c9a5919d94b5c995c185e4b59985a5b1959606a1b6044820152606490fd5b61045893505f6104aa91610857565b5f9261044d565b6040513d5f823e3d90fd5b5f80fd5b60405162461bcd60e51b815260206004820152601b60248201527f6c69717569646174696f6e2d7472616e736665722d6661696c656400000000006044820152606490fd5b634e487b7160e01b5f52601160045260245ffd5b60405162461bcd60e51b815260206004820152600c60248201526b6261642d726573657276657360a01b6044820152606490fd5b5087821161039e565b60405162461bcd60e51b815260206004820152600e60248201526d1898590b585b5bdd5b9d0b5bdd5d60921b6044820152606490fd5b6105ae915060203d6020116105b4575b6105a68183610857565b81019061088d565b8e610379565b503d61059c565b6001600160701b03939650839295916105d49114610f17565b169316869361038f565b905061060391925060603d60601161060c575b6105fb8183610857565b810190610c65565b5091908961032b565b503d6105f1565b61062d91925060203d6020116105b4576105a68183610857565b9087610303565b60405162461bcd60e51b815260206004820152600d60248201526c6578636573732d626f72726f7760981b6044820152606490fd5b610682915060203d6020116105b4576105a68183610857565b8d61026e565b9261069e6001600160701b039384939514610ec7565b16911690610283565b6106c0915060203d6020116105b4576105a68183610857565b8a610228565b90506106e291925060603d60601161060c576105fb8183610857565b50919089610203565b60405162461bcd60e51b815260206004820152600c60248201526b1c185d1a0c4b59985a5b195960a21b6044820152606490fd5b60405162461bcd60e51b8152602060048201526013602482015272696e73756666696369656e742d626f72726f7760681b6044820152606490fd5b60405162461bcd60e51b81526020600482015260126024820152713bb937b73396b137b93937bb96ba37b5b2b760711b6044820152606490fd5b50604435926101b8565b5060405163d21220a760e01b81529150602082600481895afa80156104b15783925f916107cd575b50936101b1565b6107e6915060203d6020116105b4576105a68183610857565b8a6107c6565b829193506108089060203d6020116105b4576105a68183610857565b92906101a2565b62461bcd60e51b815260206004820152600f60248201526e3ab732bc3832b1ba32b216b830b4b960891b6044820152606490fd5b35906001600160a01b03821682036104bc57565b90601f8019910116810190811067ffffffffffffffff82111761087957604052565b634e487b7160e01b5f52604160045260245ffd5b908160209103126104bc57516001600160a01b03811681036104bc5790565b5f80546001600160a01b0319168155600155604051630dfe168160e01b815260208160048173c0a6b8c534fad86df8fa1abb17084a70f86eddc15afa9081156104b1575f91610c32575b5060405163d21220a760e01b81529060208260048173c0a6b8c534fad86df8fa1abb17084a70f86eddc15afa9182156104b1575f92610c11575b506040516370a0823160e01b81523060048201526001600160a01b03821692602082602481875afa9182156104b1575f92610bdd575b506040516370a0823160e01b8152306004820152926001600160a01b038216602085602481845afa9485156104b1575f95610ba9575b506001841015610b7f575b6109b18383611181565b976001600160a01b0390921691908215610b4857604051630dfe168160e01b81526001600160a01b03919091169190602081600481865afa80156104b15782915f91610b29575b506001600160a01b031603610b22576001935b60405163d21220a760e01b8152602081600481875afa80156104b15783915f91610b03575b506001600160a01b031603610afc576001915b60405194602086019b858d5260018060a01b031660408701526060860152608085015260a084015260a08352610a7a60c084610857565b813b156104bc575f60a481956040519b8c968795869363022c0d9f60e01b855260048501526024840152306044840152608060648401525180918160848501528484015e8181018301849052601f01601f191681010301925af19485156104b157610aea95610aec575b50611010565b565b5f610af691610857565b5f610ae4565b5f91610a43565b610b1c915060203d6020116105b4576105a68183610857565b5f610a30565b5f93610a0b565b610b42915060203d6020116105b4576105a68183610857565b5f6109f8565b60405162461bcd60e51b815260206004820152600f60248201526e6e6f2d7075626c69632d726f75746560881b6044820152606490fd5b610b8882610cc6565b156109a757610b9985858585611010565b600154156109a757505050505050565b9094506020813d602011610bd5575b81610bc560209383610857565b810103126104bc5751935f61099c565b3d9150610bb8565b9091506020813d602011610c09575b81610bf960209383610857565b810103126104bc5751905f610966565b3d9150610bec565b610c2b91925060203d6020116105b4576105a68183610857565b905f610930565b610c4b915060203d6020116105b4576105a68183610857565b5f6108f6565b51906001600160701b03821682036104bc57565b908160609103126104bc57610c7981610c51565b916040610c8860208401610c51565b92015163ffffffff811681036104bc5790565b8115610ca5570490565b634e487b7160e01b5f52601260045260245ffd5b9190820391821161050557565b604051630240bc6b60e21b81525f919060608160048173c0a6b8c534fad86df8fa1abb17084a70f86eddc15afa80156104b1576001600160701b03915f91610ea5575b5016906001821115610e9357610d226064830483610cb9565b918215908115610e9a575b50610e93575f809160405182602082019163a9059cbb60e01b835273c0a6b8c534fad86df8fa1abb17084a70f86eddc160248201526001604482015260448152610d78606482610857565b51925af13d15610e8c573d67ffffffffffffffff81116108795760405190610daa601f8201601f191660200183610857565b81523d5f602083013e5b81610e54575b5015610e4e5773c0a6b8c534fad86df8fa1abb17084a70f86eddc13b156104bc576040519063022c0d9f60e01b82525f60048301526024820152306044820152608060648201525f60848201525f8160a4818373c0a6b8c534fad86df8fa1abb17084a70f86eddc15af19081610e39575b50610e335790565b50600190565b610e469192505f90610857565b5f905f610e2b565b50505f90565b8051801592508215610e69575b50505f610dba565b81925090602091810103126104bc576020015180151581036104bc575f80610e61565b6060610db4565b5050505f90565b90508210155f610d2d565b610ebe915060603d60601161060c576105fb8183610857565b5090505f610d09565b15610ece57565b60405162461bcd60e51b815260206004820152600e60248201526d3130b216b830b4b916b7b93232b960911b6044820152606490fd5b8181029291811591840414171561050557565b15610f1e57565b60405162461bcd60e51b81526020600482015260146024820152733130b216b634b8bab4b230ba34b7b716b830b4b960611b6044820152606490fd5b5f929183809360405190602082019363a9059cbb60e01b855260018060a01b03166024830152604482015260448152610f94606482610857565b51925af13d15611009573d67ffffffffffffffff81116108795760405190610fc6601f8201601f191660200183610857565b81523d5f602083013e5b81610fd9575090565b8051801592508215610fea57505090565b81925090602091810103126104bc576020015180151581036104bc5790565b6060610fd0565b6040516370a0823160e01b81523060048201526001600160a01b0391909116929091602083602481875afa9283156104b1575f9361114d575b506040516370a0823160e01b81523060048201526001600160a01b0391909116929091602083602481875afa9283156104b1575f93611119575b50808211156111105761109591610cb9565b935b80821115611107576110a891610cb9565b905b81841015806110fe575b156110d65750506bffffffffffffffffffffffff60a01b5f5416175f55600155565b91508092506110e3575050565b6bffffffffffffffffffffffff60a01b5f5416175f55600155565b508315156110b4565b50505f906110aa565b50505f93611097565b9092506020813d602011611145575b8161113560209383610857565b810103126104bc5751915f611083565b3d9150611128565b9092506020813d602011611179575b8161116960209383610857565b810103126104bc5751915f611049565b3d915061115c565b90916040516080810181811067ffffffffffffffff821117610879576040949391945273c02aaa39b223fe8d0a0e5c4f27ead9083c756cc2845273a0b86991c6218b36c1d19d4a2e9eb0ce3606eb486020850152736b175474e89094c44da98b954eedeac495271d0f604085015273dac17f958d2ee523a2206206994597c13d831ec760608501525f925b60048410156112f957600584901b8501516001600160a01b031691821580156112e7575b80156112d5575b6112c9576112458382611306565b956001600160a01b038716156112bc5761126087858561140f565b956001600160a01b038716156112ad57600161127c848a611516565b106112ad5761128b8588611516565b156112995750505050929190565b919550925060019195505b0192909361120c565b919550925060019195506112a4565b92509360019195506112a4565b936001919592506112a4565b506001600160a01b0382168314611237565b506001600160a01b0381168314611230565b50509150505f905f905f90565b60405163e6a4390560e01b81526001600160a01b03828116600483015283166024820152602081604481735c69bee701ef814a2b6a3edd4b1652cb9cc5aa6f5afa9081156104b1575f916113f0575b506113605f826115e2565b6113ea575060405163e6a4390560e01b81526001600160a01b0391821660048201529116602482015260208160448173c0aee478e3658e2610c5f7a4a2e1777ce9e4f2ac5afa9081156104b1575f916113cb575b506113bf5f826115e2565b6113c857505f90565b90565b6113e4915060203d6020116105b4576105a68183610857565b5f6113b4565b91505090565b611409915060203d6020116105b4576105a68183610857565b5f611355565b60405163e6a4390560e01b81526001600160a01b03828116600483015283166024820152919291602081604481735c69bee701ef814a2b6a3edd4b1652cb9cc5aa6f5afa9081156104b1575f916114f7575b5061146c83826115e2565b6114f0575060405163e6a4390560e01b81526001600160a01b0391821660048201529216602483015260208260448173c0aee478e3658e2610c5f7a4a2e1777ce9e4f2ac5afa9182156104b1575f926114cb575b506113bf90826115e2565b6113bf9192506114e99060203d6020116105b4576105a68183610857565b91906114c0565b9250505090565b611510915060203d6020116105b4576105a68183610857565b5f611461565b604051630240bc6b60e21b81526001600160a01b039190911691606082600481865afa9081156104b1576004935f935f936115b9575b5060209060405195868092630dfe168160e01b82525afa9081156104b1576001600160701b03945f92611598575b506001600160a01b0391821691160361159257501690565b90501690565b6115b291925060203d6020116105b4576105a68183610857565b905f61157a565b602094506115d791935060603d60601161060c576105fb8183610857565b50939093929061154c565b6001600160a01b0316908115908115611692575b811561167f575b5061167a57606060049160405192838092630240bc6b60e21b82525afa9081156104b1575f905f92611650575b506001600160701b031615159081611640575090565b6001600160701b03915016151590565b6001600160701b039250611673915060603d60601161060c576105fb8183610857565b509161162a565b505f90565b6001600160a01b0316821490505f6115fd565b73c0a6b8c534fad86df8fa1abb17084a70f86eddc1831491506115f656fea26469706673582212205ca8baba8d0ddeb926b99ceefec2ea37eae5d1b990ccb5b1d06fbf6116d031ff64736f6c634300081e0033","linkReferences":{}},"methodIdentifiers":{"executeOnOpportunity()":"3c2448ed","profitAmount()":"5ff972cc","profitToken()":"49343624","uniswapV2Call(address,uint256,uint256,bytes)":"10d1e85c"},"id":0}