{"abi":[{"type":"constructor","inputs":[],"stateMutability":"nonpayable"},{"type":"function","name":"ACCOUNTING_TOKEN","inputs":[],"outputs":[{"name":"","type":"address","internalType":"address"}],"stateMutability":"view"},{"type":"function","name":"IMPLEMENTATION","inputs":[],"outputs":[{"name":"","type":"address","internalType":"address"}],"stateMutability":"view"},{"type":"function","name":"TARGET","inputs":[],"outputs":[{"name":"","type":"address","internalType":"address"}],"stateMutability":"view"},{"type":"function","name":"VALIDATION_PROFIT_FLOOR","inputs":[],"outputs":[{"name":"","type":"uint256","internalType":"uint256"}],"stateMutability":"view"},{"type":"function","name":"deployedProxy","inputs":[],"outputs":[{"name":"","type":"address","internalType":"address"}],"stateMutability":"view"},{"type":"function","name":"executeOnOpportunity","inputs":[],"outputs":[],"stateMutability":"nonpayable"},{"type":"function","name":"executed","inputs":[],"outputs":[{"name":"","type":"bool","internalType":"bool"}],"stateMutability":"view"},{"type":"function","name":"exploitPath","inputs":[],"outputs":[{"name":"","type":"string","internalType":"string"}],"stateMutability":"view"},{"type":"function","name":"hypothesisValidated","inputs":[],"outputs":[{"name":"","type":"bool","internalType":"bool"}],"stateMutability":"view"},{"type":"function","name":"implementationUsed","inputs":[],"outputs":[{"name":"","type":"address","internalType":"address"}],"stateMutability":"view"},{"type":"function","name":"initializeAddressSucceeded","inputs":[],"outputs":[{"name":"","type":"bool","internalType":"bool"}],"stateMutability":"view"},{"type":"function","name":"initializeNoArgsSucceeded","inputs":[],"outputs":[{"name":"","type":"bool","internalType":"bool"}],"stateMutability":"view"},{"type":"function","name":"observedClaimStart","inputs":[],"outputs":[{"name":"","type":"uint256","internalType":"uint256"}],"stateMutability":"view"},{"type":"function","name":"observedClaimStartReadable","inputs":[],"outputs":[{"name":"","type":"bool","internalType":"bool"}],"stateMutability":"view"},{"type":"function","name":"observedDynamicSaleState","inputs":[],"outputs":[{"name":"","type":"bool","internalType":"bool"}],"stateMutability":"view"},{"type":"function","name":"observedDynamicSaleStateReadable","inputs":[],"outputs":[{"name":"","type":"bool","internalType":"bool"}],"stateMutability":"view"},{"type":"function","name":"observedEndTime","inputs":[],"outputs":[{"name":"","type":"uint256","internalType":"uint256"}],"stateMutability":"view"},{"type":"function","name":"observedEndTimeReadable","inputs":[],"outputs":[{"name":"","type":"bool","internalType":"bool"}],"stateMutability":"view"},{"type":"function","name":"observedMaxTokensToSell","inputs":[],"outputs":[{"name":"","type":"uint256","internalType":"uint256"}],"stateMutability":"view"},{"type":"function","name":"observedMaxTokensToSellReadable","inputs":[],"outputs":[{"name":"","type":"bool","internalType":"bool"}],"stateMutability":"view"},{"type":"function","name":"observedOwner","inputs":[],"outputs":[{"name":"","type":"address","internalType":"address"}],"stateMutability":"view"},{"type":"function","name":"observedOwnerReadable","inputs":[],"outputs":[{"name":"","type":"bool","internalType":"bool"}],"stateMutability":"view"},{"type":"function","name":"observedPaymentWallet","inputs":[],"outputs":[{"name":"","type":"address","internalType":"address"}],"stateMutability":"view"},{"type":"function","name":"observedPaymentWalletReadable","inputs":[],"outputs":[{"name":"","type":"bool","internalType":"bool"}],"stateMutability":"view"},{"type":"function","name":"observedRouter","inputs":[],"outputs":[{"name":"","type":"address","internalType":"address"}],"stateMutability":"view"},{"type":"function","name":"observedRouterReadable","inputs":[],"outputs":[{"name":"","type":"bool","internalType":"bool"}],"stateMutability":"view"},{"type":"function","name":"observedSaleToken","inputs":[],"outputs":[{"name":"","type":"address","internalType":"address"}],"stateMutability":"view"},{"type":"function","name":"observedSaleTokenReadable","inputs":[],"outputs":[{"name":"","type":"bool","internalType":"bool"}],"stateMutability":"view"},{"type":"function","name":"observedStakingContract","inputs":[],"outputs":[{"name":"","type":"address","internalType":"address"}],"stateMutability":"view"},{"type":"function","name":"observedStakingContractReadable","inputs":[],"outputs":[{"name":"","type":"bool","internalType":"bool"}],"stateMutability":"view"},{"type":"function","name":"observedStartTime","inputs":[],"outputs":[{"name":"","type":"uint256","internalType":"uint256"}],"stateMutability":"view"},{"type":"function","name":"observedStartTimeReadable","inputs":[],"outputs":[{"name":"","type":"bool","internalType":"bool"}],"stateMutability":"view"},{"type":"function","name":"observedStaticTokenPrice","inputs":[],"outputs":[{"name":"","type":"uint256","internalType":"uint256"}],"stateMutability":"view"},{"type":"function","name":"observedStaticTokenPriceReadable","inputs":[],"outputs":[{"name":"","type":"bool","internalType":"bool"}],"stateMutability":"view"},{"type":"function","name":"observedUsdt","inputs":[],"outputs":[{"name":"","type":"address","internalType":"address"}],"stateMutability":"view"},{"type":"function","name":"observedUsdtReadable","inputs":[],"outputs":[{"name":"","type":"bool","internalType":"bool"}],"stateMutability":"view"},{"type":"function","name":"pauseSucceeded","inputs":[],"outputs":[{"name":"","type":"bool","internalType":"bool"}],"stateMutability":"view"},{"type":"function","name":"profitAchieved","inputs":[],"outputs":[{"name":"","type":"bool","internalType":"bool"}],"stateMutability":"view"},{"type":"function","name":"profitAmount","inputs":[],"outputs":[{"name":"","type":"uint256","internalType":"uint256"}],"stateMutability":"view"},{"type":"function","name":"profitToken","inputs":[],"outputs":[{"name":"","type":"address","internalType":"address"}],"stateMutability":"view"},{"type":"function","name":"reinitializeSucceeded","inputs":[],"outputs":[{"name":"","type":"bool","internalType":"bool"}],"stateMutability":"view"},{"type":"function","name":"startClaimSucceeded","inputs":[],"outputs":[{"name":"","type":"bool","internalType":"bool"}],"stateMutability":"view"},{"type":"function","name":"status","inputs":[],"outputs":[{"name":"","type":"string","internalType":"string"}],"stateMutability":"view"}],"bytecode":{"object":"0x6080604052346103c257610014600e546103c6565b601f811161036f575b5061028d600e9081555f527f6465706c6f792050726573616c65563520626568696e6420612070726f7879205f5160206124055f395f51905f52557f2d3e206f6273657276652074686174206e6f2065787465726e616c20696e69747fbb7b4a454dc3493923482f07822329ed19e8244eff582cc204f8554c3620c3fe557f69616c697a652f7265696e697469616c697a652066756e6374696f6e206578697fbb7b4a454dc3493923482f07822329ed19e8244eff582cc204f8554c3620c3ff557f73747320746f20736574206f776e6572206f7220636f726520706172616d65747fbb7b4a454dc3493923482f07822329ed19e8244eff582cc204f8554c3620c400557f657273202d3e2072656164206f776e65722f636f72652073616c6520636f6e667fbb7b4a454dc3493923482f07822329ed19e8244eff582cc204f8554c3620c401557f696775726174696f6e2066726f6d207468652066726573682070726f787920617fbb7b4a454dc3493923482f07822329ed19e8244eff582cc204f8554c3620c402557f6e64206f627365727665207a65726f2064656661756c7473202d3e2063616c6c7fbb7b4a454dc3493923482f07822329ed19e8244eff582cc204f8554c3620c403557f206f6e6c794f776e65722061646d696e697374726174696f6e206f6e207468617fbb7b4a454dc3493923482f07822329ed19e8244eff582cc204f8554c3620c404557f742070726f787920616e64206f627365727665207065726d616e656e742066617fbb7b4a454dc3493923482f07822329ed19e8244eff582cc204f8554c3620c405557f696c7572652062656361757365206f776e65722072656d61696e7320616464727fbb7b4a454dc3493923482f07822329ed19e8244eff582cc204f8554c3620c406556565737328302960d01b7fbb7b4a454dc3493923482f07822329ed19e8244eff582cc204f8554c3620c40755600f546102eb906103c6565b601f8111610327575b7f6e6f742065786563757465640000000000000000000000000000000000000018600f5560405161200690816103ff8239f35b600f5f52601f0160051c7f8d1108e10bcb7c27dddfc02ed9d693a074039d026cf4ea4240b40f7d581ac802908101905b81811061036457506102f4565b5f8155600101610357565b600e5f52601f0160051c5f5160206124055f395f51905f52017fbb7b4a454dc3493923482f07822329ed19e8244eff582cc204f8554c3620c4085b8181106103b7575061001d565b5f81556001016103aa565b5f80fd5b90600182811c921680156103f4575b60208310146103e057565b634e487b7160e01b5f52602260045260245ffd5b91607f16916103d556fe6080806040526004361015610012575f80fd5b5f3560e01c9081630374cbfc146109235750806313abee5c146108fe57806314585a3f146108d0578063200d2ed21461083e578063229ba87914610819578063244e8140146107f157806325c1fe33146107d057806328e95296146107ab5780632e3773fc1461078057806331a38c891461075f57806336a60746146107375780633a4741bd146107095780633c2448ed146106ef578063463defd1146106cb57806349343624146106a3578063526131c61461067e5780635772d153146106595780635b47b20f146106345780635d0395d3146106175780635eb65bc6146105fa5780635ff972cc146105dd5780636235d8d5146105c057806363371a2b146105a357806364c2980c1461057b578063659ac88b14610556578063671aa1bc146105325780636e64fbcd1461050a57806379965d8b146104de5780638e5a0133146104b6578063923b9414146104915780639278d9151461046c57806393b96a791461044f578063a73c62db1461042d578063c8c706c514610408578063cb707c6214610326578063cc1f2afa146102f8578063ccc5803d146102d6578063d196d470146102b1578063d25837b71461028c578063dd794fe814610264578063e6d99aae14610242578063f0a011761461021e5763f44afaf4146101f5575f80fd5b3461021a575f36600319011261021a57602060ff60025460101c166040519015158152f35b5f80fd5b3461021a575f36600319011261021a57602060ff5f5460081c166040519015158152f35b3461021a575f36600319011261021a57602060015460f81c6040519015158152f35b3461021a575f36600319011261021a576003546040516001600160a01b039091168152602090f35b3461021a575f36600319011261021a57602060ff60015460c01c166040519015158152f35b3461021a575f36600319011261021a57602060ff60015460a01c166040519015158152f35b3461021a575f36600319011261021a57602060ff600254166040519015158152f35b3461021a575f36600319011261021a576020604051731f006f43f57c45ceb3659e543352b4fae4662df78152f35b3461021a575f36600319011261021a576040515f600e5461034681610969565b80845290600181169081156103e45750600114610386575b6103828361036e818503826109a1565b604051918291602083526020830190610945565b0390f35b919050600e5f527fbb7b4a454dc3493923482f07822329ed19e8244eff582cc204f8554c3620c3fd915f905b8082106103ca5750909150810160200161036e61035e565b9192600181602092548385880101520191019092916103b2565b60ff191660208086019190915291151560051b8401909101915061036e905061035e565b3461021a575f36600319011261021a57602060ff60015460b01c166040519015158152f35b3461021a575f36600319011261021a57602060ff600d54166040519015158152f35b3461021a575f36600319011261021a576020600b54604051908152f35b3461021a575f36600319011261021a57602060ff60015460b81c166040519015158152f35b3461021a575f36600319011261021a57602060ff60015460e81c166040519015158152f35b3461021a575f36600319011261021a576007546040516001600160a01b039091168152602090f35b3461021a575f36600319011261021a5760025460405160289190911c6001600160a01b03168152602090f35b3461021a575f36600319011261021a576004546040516001600160a01b039091168152602090f35b3461021a575f36600319011261021a57602060ff600254821c166040519015158152f35b3461021a575f36600319011261021a57602060ff60015460e01c166040519015158152f35b3461021a575f36600319011261021a576001546040516001600160a01b039091168152602090f35b3461021a575f36600319011261021a576020600854604051908152f35b3461021a575f36600319011261021a576020600954604051908152f35b3461021a575f36600319011261021a576020601154604051908152f35b3461021a575f36600319011261021a576020600c54604051908152f35b3461021a575f36600319011261021a576020600a54604051908152f35b3461021a575f36600319011261021a57602060ff60015460f01c166040519015158152f35b3461021a575f36600319011261021a57602060ff60025460181c166040519015158152f35b3461021a575f36600319011261021a57602060ff60015460c81c166040519015158152f35b3461021a575f36600319011261021a576010546040516001600160a01b039091168152602090f35b3461021a575f36600319011261021a57602060ff5f5460101c166040519015158152f35b3461021a575f36600319011261021a576107076109ed565b005b3461021a575f36600319011261021a57602060405173e69be7d6b306b4fbce516e3f07c8f438a68600848152f35b3461021a575f36600319011261021a576006546040516001600160a01b039091168152602090f35b3461021a575f36600319011261021a57602060ff5f54166040519015158152f35b3461021a575f36600319011261021a575f5460405160189190911c6001600160a01b03168152602090f35b3461021a575f36600319011261021a57602060ff60025460081c166040519015158152f35b3461021a575f36600319011261021a57602060405166038d7ea4c680008152f35b3461021a575f36600319011261021a576005546040516001600160a01b039091168152602090f35b3461021a575f36600319011261021a57602060ff60015460a81c166040519015158152f35b3461021a575f36600319011261021a576040515f600f5461085e81610969565b80845290600181169081156103e45750600114610885576103828361036e818503826109a1565b919050600f5f525f516020611fb15f395f51905f52915f905b8082106108b65750909150810160200161036e61035e565b91926001816020925483858801015201910190929161089e565b3461021a575f36600319011261021a57602060405173c02aaa39b223fe8d0a0e5c4f27ead9083c756cc28152f35b3461021a575f36600319011261021a57602060ff60015460d01c166040519015158152f35b3461021a575f36600319011261021a5760209060ff60015460d81c1615158152f35b805180835260209291819084018484015e5f828201840152601f01601f1916010190565b90600182811c92168015610997575b602083101461098357565b634e487b7160e01b5f52602260045260245ffd5b91607f1691610978565b90601f8019910116810190811067ffffffffffffffff8211176109c357604052565b634e487b7160e01b5f52604160045260245ffd5b8181106109e2575050565b5f81556001016109d7565b5f5460ff8116610c8f5760ff19166001175f55600f54610a0c90610969565b601f8111610c64575b50600e6672756e6e696e6760c81b01600f55610a2f610cd1565b610c095760405161039780820182811067ffffffffffffffff8211176109c35782916119f7833903905ff08015610bfe57610a72906001600160a01b0316611652565b610b7d57610a81600f54610969565b601f8111610b34575b50608b600f55600f5f527f726566757465643a2070726f787920646964206e6f742072656d61696e2070655f516020611fb15f395f51905f52557f726d616e656e746c79206f776e65726c65737320616e6420756e696e697469617f8d1108e10bcb7c27dddfc02ed9d693a074039d026cf4ea4240b40f7d581ac80355641b1a5e995960da1b7f8d1108e10bcb7c27dddfc02ed9d693a074039d026cf4ea4240b40f7d581ac80455565b600f5f52610b7790601f0160051c5f516020611fb15f395f51905f52017f8d1108e10bcb7c27dddfc02ed9d693a074039d026cf4ea4240b40f7d581ac8056109d7565b5f610a8a565b610bfc604051610b8e6080826109a1565b605081527f76616c6964617465642076696120666169746866756c206c6f63616c2072657060208201527f726f64756374696f6e206f66207468652073616d65206f776e65726c6573732060408201526f1c1c9bde1e4819195c1b1bde5b595b9d60821b60608201526117bd565b565b6040513d5f823e3d90fd5b610bfc604051610c1a6060826109a1565b603281527f76616c69646174656420616761696e7374206578697374696e67206f6e2d636860208201527130b4b71034b6b83632b6b2b73a30ba34b7b760711b60408201526117bd565b600f5f52610c8990601f0160051c5f516020611fb15f395f51905f52908101906109d7565b5f610a15565b50565b3d15610ccc573d9067ffffffffffffffff82116109c35760405191610cc1601f8201601f1916602001846109a1565b82523d5f602084013e565b606090565b73e69be7d6b306b4fbce516e3f07c8f438a68600843b1561164e575f805462ffff0019168155601080546001600160a01b03199081169091556011829055600180546001600160a01b03169055600280546001600160c81b0319169055600380548216905560048054821690556005805482169055600680548216905560078054909116905560088190556009819055600a819055600b819055600c55600d805460ff19169055604051602090610d8882826109a1565b5f815260405190610223908183019083821067ffffffffffffffff8311176109c3576040610dda928594611d8e863973e69be7d6b306b4fbce516e3f07c8f438a6860084815281878201520190610945565b03905ff0908115610bfe575f80546301000000600160b81b031916601884901b6301000000600160b81b0316178155600180546001600160a01b03191673e69be7d6b306b4fbce516e3f07c8f438a686008417905560405163204a7f0760e21b8382019081526004825260ff9483926001600160a01b03909116918391829190610e656024826109a1565b519082855af1610e73610c92565b50600154908660a01b90151560a01b16908660a01b19161760015581806040518681019063189acdbd60e31b825230602482015260248152610eb66044826109a1565b519082855af1610ec4610c92565b50600154908660a81b90151560a81b16908660a81b19161760015581806040518681019063039ef21760e11b82526001602482015260248152610f086044826109a1565b519082855af1610f16610c92565b50600154908660b01b90151560b01b16808760b01b19831617600155610f59604051638da5cb5b60e01b8882015260048152610f536024826109a1565b8461190d565b6002805465010000000000600160c81b0360289390931b9290921665010000000000600160c81b031983168117909155911515891660c81b63ff0000ff60b01b1985168417811760015560405163e985e36760e01b8a82015260048152919492939091610fd190610fcb6024826109a1565b8761190d565b600380546001600160a01b0319166001600160a01b039290921691909117905564ffff0000ff60b01b19909316178181179215158a1660d01b92831760015560405163e32204dd60e01b8a820152600481529092919061103690610fcb6024826109a1565b60018060a09693961b03166001600160601b0360a01b60045416176004558a60d81b191617918960d81b90151560d81b1690818382171760015561109160405163f597573f60e01b8b82015260048152610fcb6024826109a1565b60018060a09693961b03166001600160601b0360a01b60055416176005558a60e01b191617918960e01b90151560e01b169081838217176001556110ec604051633ba6481760e21b8b82015260048152610fcb6024826109a1565b60018060a09693961b03166001600160601b0360a01b60065416176006558a60e81b191617918960e81b90151560e81b169081838217176001556111476040516303e21fa960e61b8b82015260048152610fcb6024826109a1565b60018060a09693961b03166001600160601b0360a01b60075416176007558a60f01b191617918960f01b90151560f01b169081838217176001556111a86040516378e9792560e01b8b820152600481526111a26024826109a1565b87611969565b6008556001600160f81b039093161717901515881660f81b176001556040516318cbe5db60e11b878201526004815263ff0000009062ff00009061ff00908a906111fd906111f76024826109a1565b88611969565b60095515151693848164ffffffff01600160c81b03198816171760025561123b60405163f04d688f60e01b8c820152600481526111f76024826109a1565b600a9791975564ffffff0001600160c81b0319161794151560081b16928385821717600255611281604051635a03d67960e01b8b820152600481526111a26024826109a1565b600b969196558219161793151560101b169182848217176002556112c260405163d0139bf760e01b8a820152600481526112bc6024826109a1565b86611969565b600c959195558219161792151560181b1690818382171760025564ff00000000611309604051631ee98ef960e11b8a820152600481526113036024826109a1565b866119ab565b8a8019600d54169115151617600d551515881b169264ff000000001916171717600255818060405186810190638456cb5960e01b82526004815261134e6024826109a1565b519082855af161135c610c92565b50600154908660b81b90151560b81b16908660b81b1916176001556040518285820191634560404160e11b8352600160248201528160448201526001606482015260016084820152608481526113b360a4826109a1565b51925af16113bf610c92565b50600154908360c01b90151560c01b16908360c01b19161780600155828160c81c169182611640575b82611632575b82611624575b82611616575b82611608575b826115fc575b826115f0575b826115e1575b826115d2575b6003546001600160a01b031615806115bf575b806115ac575b80611599575b80611586575b8061157c575b80611572575b80611568575b8061155e575b600254858160181c1615928315611553575b83611530575b508461151b575b5083611513575b508261150b575b50816114fc575b816114ed575b816114de575b816114cf575b816114c1575b5062ff00005f5491151560101b169062ff0000191617805f5560101c1690565b82915060c01c16155f6114a1565b9050818160b81c16159061149b565b9050818160b01c161590611495565b9050818160a81c16159061148f565b9050818160a01c161590611489565b91505f611482565b92505f61147b565b60281c6001600160a01b03161593505f611474565b8193509086911c16158015611547575b915f61146d565b5084600d541615611540565b600c54159350611467565b50600b5415611455565b50600a541561144f565b5060095415611449565b5060085415611443565b506007546001600160a01b03161561143d565b506006546001600160a01b031615611437565b506005546001600160a01b031615611431565b506004546001600160a01b03161561142b565b60025460101c84169250611418565b60025460081c84169250611412565b6002548416925061140c565b91508060f81c91611406565b9150828160f01c1691611400565b9150828160e81c16916113fa565b9150828160e01c16916113f4565b9150828160d81c16916113ee565b9150828160d01c16916113e8565b5f90565b803b156117b8575f805462ffff0019168155601080546001600160a01b03199081169091556011829055600180546001600160a01b03169055600280546001600160c81b0319169055600380548216905560048054821690556005805482169055600680548216905560078054909116905560088190556009819055600a819055600b819055600c55600d805460ff19169055604051906020906116f682846109a1565b5f835260405190610223908183019483861067ffffffffffffffff8711176109c357604061173f928594611d8e86396001600160a01b0316808852868801829052960190610945565b03905ff08015610bfe575f80546301000000600160b81b031916601883901b6301000000600160b81b0316178155600180546001600160a01b03191690941790935560405163204a7f0760e21b8382019081526004825260ff949283926001600160a01b03909116918391829190610e656024826109a1565b505f90565b9073c02aaa39b223fe8d0a0e5c4f27ead9083c756cc26001600160601b0360a01b601054161760105566038d7ea4c6800060115561010061ff00195f5416175f55815167ffffffffffffffff81116109c35761181a600f54610969565b601f81116118c7575b50602092601f821160011461185e57928192935f92611853575b50508160011b915f199060031b1c191617600f55565b015190505f8061183d565b601f19821693600f5f525f516020611fb15f395f51905f52915f5b8681106118af5750836001959610611897575b505050811b01600f55565b01515f1960f88460031b161c191690555f808061188c565b91926020600181928685015181550194019201611879565b600f5f526118fd905f516020611fb15f395f51905f52601f840160051c81019160208510611903575b601f0160051c01906109d7565b5f611823565b90915081906118f0565b5f918291602082519201905afa90611923610c92565b8215801561195e575b6119565760208180518101031261021a57602001516001600160a01b0381169081900361021a5790565b505f91508190565b50602081511061192c565b5f918291602082519201905afa9061197f610c92565b821580156119a0575b6119565760208180518101031261021a576020015190565b506020815110611988565b5f918291602082519201905afa906119c1610c92565b821580156119eb575b6119565760208180518101031261021a5760200151801515810361021a5790565b5060208151106119ca56fe6080806040523460245761010061ff0019600b541617600b5561036e90816100298239f35b5f80fdfe6080806040526004361015610012575f80fd5b5f3560e01c9081633197cbb6146102a7575080633dd31df2146102855780635a03d6791461026857806378e979251461024b5780638456cb59146102255780638ac08082146101e35780638da5cb5b146101bc578063d0139bf71461019f578063e32204dd14610177578063e985e3671461014f578063ee99205c14610127578063f04d688f1461010a578063f597573f146100e25763f887ea40146100b6575f80fd5b346100de575f3660031901126100de576008546040516001600160a01b039091168152602090f35b5f80fd5b346100de575f3660031901126100de576006546040516001600160a01b039091168152602090f35b346100de575f3660031901126100de576020600354604051908152f35b346100de575f3660031901126100de576007546040516001600160a01b039091168152602090f35b346100de575f3660031901126100de576004546040516001600160a01b039091168152602090f35b346100de575f3660031901126100de576005546040516001600160a01b039091168152602090f35b346100de575f3660031901126100de576020600a54604051908152f35b346100de575f3660031901126100de575f546040516001600160a01b039091168152602090f35b346100de5760803660031901126100de576101fc6102c1565b506102056102d7565b5061021a60018060a01b035f541633146102ed565b602060405160018152f35b346100de575f3660031901126100de5761024960018060a01b035f541633146102ed565b005b346100de575f3660031901126100de576020600154604051908152f35b346100de575f3660031901126100de576020600954604051908152f35b346100de575f3660031901126100de57602060ff600b54166040519015158152f35b346100de575f3660031901126100de576020906002548152f35b604435906001600160a01b03821682036100de57565b606435906001600160a01b03821682036100de57565b156102f457565b606460405162461bcd60e51b815260206004820152602060248201527f4f776e61626c653a2063616c6c6572206973206e6f7420746865206f776e65726044820152fdfea26469706673582212205adc1ecabefe01d464ba090bd02465eb4129e4f8b4b0eae197854f915935f6f464736f6c634300081e0033608060405261022380380380610014816100b7565b928339810160408282031261009f578151916001600160a01b038316830361009f576020810151906001600160401b03821161009f57019181601f8401121561009f57825161006a610065826100e1565b6100b7565b928184526020828601011161009f576020815f928261009197018387015e840101526100fc565b60405160b5908161016e8239f35b5f80fd5b634e487b7160e01b5f52604160045260245ffd5b6040519190601f01601f191682016001600160401b038111838210176100dc57604052565b6100a3565b6001600160401b0381116100dc57601f01601f191660200190565b90817f360894a13ba1a3210667c828492db98dca3e2076cc3735a920a3ca505d382bbc5580518061012c57505050565b5f926020849301905af43d15610165573d9061014a610065836100e1565b9182523d5f602084013e5b1561015d5750565b602081519101fd5b60609061015556fe608060405236156046575f807f360894a13ba1a3210667c828492db98dca3e2076cc3735a920a3ca505d382bbc54368280378136915af43d5f803e156042573d5ff35b3d5ffd5b5f807f360894a13ba1a3210667c828492db98dca3e2076cc3735a920a3ca505d382bbc54368280378136915af43d5f803e156042573d5ff3fea2646970667358221220ddc85efc4bae3bd3e931e28931432dab4b235397d7b09b3795004a473a97d16d64736f6c634300081e00338d1108e10bcb7c27dddfc02ed9d693a074039d026cf4ea4240b40f7d581ac802a264697066735822122071b4403de39f4af0e7e4544f8791aefe2f84c7710e4e70e04b1269e937f80cd464736f6c634300081e0033bb7b4a454dc3493923482f07822329ed19e8244eff582cc204f8554c3620c3fd","linkReferences":{}},"methodIdentifiers":{"ACCOUNTING_TOKEN()":"14585a3f","IMPLEMENTATION()":"3a4741bd","TARGET()":"cc1f2afa","VALIDATION_PROFIT_FLOOR()":"25c1fe33","deployedProxy()":"2e3773fc","executeOnOpportunity()":"3c2448ed","executed()":"31a38c89","exploitPath()":"cb707c62","hypothesisValidated()":"463defd1","implementationUsed()":"64c2980c","initializeAddressSucceeded()":"229ba879","initializeNoArgsSucceeded()":"d196d470","observedClaimStart()":"5d0395d3","observedClaimStartReadable()":"28e95296","observedDynamicSaleState()":"a73c62db","observedDynamicSaleStateReadable()":"671aa1bc","observedEndTime()":"6235d8d5","observedEndTimeReadable()":"ccc5803d","observedMaxTokensToSell()":"93b96a79","observedMaxTokensToSellReadable()":"f44afaf4","observedOwner()":"79965d8b","observedOwnerReadable()":"526131c6","observedPaymentWallet()":"6e64fbcd","observedPaymentWalletReadable()":"0374cbfc","observedRouter()":"8e5a0133","observedRouterReadable()":"5b47b20f","observedSaleToken()":"dd794fe8","observedSaleTokenReadable()":"13abee5c","observedStakingContract()":"36a60746","observedStakingContractReadable()":"923b9414","observedStartTime()":"63371a2b","observedStartTimeReadable()":"e6d99aae","observedStaticTokenPrice()":"5eb65bc6","observedStaticTokenPriceReadable()":"5772d153","observedUsdt()":"244e8140","observedUsdtReadable()":"659ac88b","pauseSucceeded()":"9278d915","profitAchieved()":"f0a01176","profitAmount()":"5ff972cc","profitToken()":"49343624","reinitializeSucceeded()":"c8c706c5","startClaimSucceeded()":"d25837b7","status()":"200d2ed2"},"id":0}