{"abi":[{"type":"constructor","inputs":[],"stateMutability":"nonpayable"},{"type":"function","name":"USDTInterface","inputs":[],"outputs":[{"name":"","type":"address","internalType":"address"}],"stateMutability":"view"},{"type":"function","name":"claimStart","inputs":[],"outputs":[{"name":"","type":"uint256","internalType":"uint256"}],"stateMutability":"view"},{"type":"function","name":"dynamicSaleState","inputs":[],"outputs":[{"name":"","type":"bool","internalType":"bool"}],"stateMutability":"view"},{"type":"function","name":"endTime","inputs":[],"outputs":[{"name":"","type":"uint256","internalType":"uint256"}],"stateMutability":"view"},{"type":"function","name":"maxTokensToSell","inputs":[],"outputs":[{"name":"","type":"uint256","internalType":"uint256"}],"stateMutability":"view"},{"type":"function","name":"owner","inputs":[],"outputs":[{"name":"","type":"address","internalType":"address"}],"stateMutability":"view"},{"type":"function","name":"pause","inputs":[],"outputs":[],"stateMutability":"nonpayable"},{"type":"function","name":"paymentWallet","inputs":[],"outputs":[{"name":"","type":"address","internalType":"address"}],"stateMutability":"view"},{"type":"function","name":"router","inputs":[],"outputs":[{"name":"","type":"address","internalType":"address"}],"stateMutability":"view"},{"type":"function","name":"saleToken","inputs":[],"outputs":[{"name":"","type":"address","internalType":"address"}],"stateMutability":"view"},{"type":"function","name":"stakingContract","inputs":[],"outputs":[{"name":"","type":"address","internalType":"address"}],"stateMutability":"view"},{"type":"function","name":"startClaim","inputs":[{"name":"","type":"uint256","internalType":"uint256"},{"name":"","type":"uint256","internalType":"uint256"},{"name":"","type":"address","internalType":"address"},{"name":"","type":"address","internalType":"address"}],"outputs":[{"name":"","type":"bool","internalType":"bool"}],"stateMutability":"nonpayable"},{"type":"function","name":"startTime","inputs":[],"outputs":[{"name":"","type":"uint256","internalType":"uint256"}],"stateMutability":"view"},{"type":"function","name":"staticTokenPrice","inputs":[],"outputs":[{"name":"","type":"uint256","internalType":"uint256"}],"stateMutability":"view"}],"bytecode":{"object":"0x6080806040523460245761010061ff0019600b541617600b5561036e90816100298239f35b5f80fdfe6080806040526004361015610012575f80fd5b5f3560e01c9081633197cbb6146102a7575080633dd31df2146102855780635a03d6791461026857806378e979251461024b5780638456cb59146102255780638ac08082146101e35780638da5cb5b146101bc578063d0139bf71461019f578063e32204dd14610177578063e985e3671461014f578063ee99205c14610127578063f04d688f1461010a578063f597573f146100e25763f887ea40146100b6575f80fd5b346100de575f3660031901126100de576008546040516001600160a01b039091168152602090f35b5f80fd5b346100de575f3660031901126100de576006546040516001600160a01b039091168152602090f35b346100de575f3660031901126100de576020600354604051908152f35b346100de575f3660031901126100de576007546040516001600160a01b039091168152602090f35b346100de575f3660031901126100de576004546040516001600160a01b039091168152602090f35b346100de575f3660031901126100de576005546040516001600160a01b039091168152602090f35b346100de575f3660031901126100de576020600a54604051908152f35b346100de575f3660031901126100de575f546040516001600160a01b039091168152602090f35b346100de5760803660031901126100de576101fc6102c1565b506102056102d7565b5061021a60018060a01b035f541633146102ed565b602060405160018152f35b346100de575f3660031901126100de5761024960018060a01b035f541633146102ed565b005b346100de575f3660031901126100de576020600154604051908152f35b346100de575f3660031901126100de576020600954604051908152f35b346100de575f3660031901126100de57602060ff600b54166040519015158152f35b346100de575f3660031901126100de576020906002548152f35b604435906001600160a01b03821682036100de57565b606435906001600160a01b03821682036100de57565b156102f457565b606460405162461bcd60e51b815260206004820152602060248201527f4f776e61626c653a2063616c6c6572206973206e6f7420746865206f776e65726044820152fdfea26469706673582212205adc1ecabefe01d464ba090bd02465eb4129e4f8b4b0eae197854f915935f6f464736f6c634300081e0033","linkReferences":{}},"methodIdentifiers":{"USDTInterface()":"f597573f","claimStart()":"f04d688f","dynamicSaleState()":"3dd31df2","endTime()":"3197cbb6","maxTokensToSell()":"5a03d679","owner()":"8da5cb5b","pause()":"8456cb59","paymentWallet()":"e32204dd","router()":"f887ea40","saleToken()":"e985e367","stakingContract()":"ee99205c","startClaim(uint256,uint256,address,address)":"8ac08082","startTime()":"78e97925","staticTokenPrice()":"d0139bf7"},"id":0}