{"abi":[{"type":"constructor","inputs":[],"stateMutability":"nonpayable"},{"type":"function","name":"executeOnOpportunity","inputs":[],"outputs":[],"stateMutability":"nonpayable"},{"type":"function","name":"exploitPathUsed","inputs":[],"outputs":[{"name":"","type":"string","internalType":"string"}],"stateMutability":"pure"},{"type":"function","name":"hypothesisValidated","inputs":[],"outputs":[{"name":"","type":"bool","internalType":"bool"}],"stateMutability":"view"},{"type":"function","name":"infeasibilityReason","inputs":[],"outputs":[{"name":"","type":"string","internalType":"string"}],"stateMutability":"view"},{"type":"function","name":"marketUsed","inputs":[],"outputs":[{"name":"","type":"address","internalType":"address"}],"stateMutability":"view"},{"type":"function","name":"profitAmount","inputs":[],"outputs":[{"name":"","type":"uint256","internalType":"uint256"}],"stateMutability":"view"},{"type":"function","name":"profitToken","inputs":[],"outputs":[{"name":"","type":"address","internalType":"address"}],"stateMutability":"view"},{"type":"event","name":"ExecutionFinished","inputs":[{"name":"validated","type":"bool","indexed":false,"internalType":"bool"},{"name":"market","type":"address","indexed":true,"internalType":"address"},{"name":"profitToken","type":"address","indexed":false,"internalType":"address"},{"name":"profitAmount","type":"uint256","indexed":false,"internalType":"uint256"}],"anonymous":false},{"type":"event","name":"PathResult","inputs":[{"name":"market","type":"address","indexed":true,"internalType":"address"},{"name":"path","type":"string","indexed":false,"internalType":"string"},{"name":"blocked","type":"bool","indexed":false,"internalType":"bool"},{"name":"data","type":"bytes","indexed":false,"internalType":"bytes"}],"anonymous":false}],"bytecode":{"object":"0x60808060405234601557611313908161001a8239f35b5f80fdfe60806040526004361015610011575f80fd5b5f3560e01c80633c2448ed14610363578063463defd11461033f57806349343624146102f95780635ff972cc146102dc578063d78c428114610164578063dfa6be1b146100955763e246f6c314610066575f80fd5b34610091575f366003190112610091575f5460405160109190911c6001600160a01b03168152602090f35b5f80fd5b34610091575f366003190112610091576040515f6003546100b5816103d7565b808452906001811690811561014057506001146100f5575b6100f1836100dd818503826103a1565b60405191829160208352602083019061037d565b0390f35b91905060035f525f51602061129e5f395f51905f52915f905b808210610126575090915081016020016100dd6100cd565b91926001816020925483858801015201910190929161010e565b60ff191660208086019190915291151560051b840190910191506100dd90506100cd565b34610091575f366003190112610091576100f161014061018760405191826103a1565b61010181527f72656465656d28292f72656465656d556e6465726c79696e672829202d3e207260208201527f656465656d46726573682829202d3e20636f6d7074726f6c6c65722e7265646560408201527f656d416c6c6f7765642829202d3e2072656465656d416c6c6f776564496e746560608201527f726e616c2829202d3e20626c6f636b3b20657869744d61726b65742829202d3e60808201527f2072656465656d416c6c6f776564496e7465726e616c2829202d3e20626c6f6360a08201527f6b3b207472616e7366657228292f7472616e7366657246726f6d2829202d3e2060c08201527f636f6d7074726f6c6c65722e7472616e73666572416c6c6f7765642829202d3e60e08201527f2072656465656d416c6c6f776564496e7465726e616c2829202d3e20626c6f63610100820152606b60f81b61012082015260405191829160208352602083019061037d565b34610091575f366003190112610091576020600254604051908152f35b34610091575f366003190112610091576001546001600160a01b03168061033757506020610325610fe4565b6040516001600160a01b039091168152f35b602090610325565b34610091575f36600319011261009157602060ff5f5460081c166040519015158152f35b34610091575f3660031901126100915761037b61040f565b005b805180835260209291819084018484015e5f828201840152601f01601f1916010190565b90601f8019910116810190811067ffffffffffffffff8211176103c357604052565b634e487b7160e01b5f52604160045260245ffd5b90600182811c92168015610405575b60208310146103f157565b634e487b7160e01b5f52602260045260245ffd5b91607f16916103e6565b5f5460ff8116610fa25761ff01600160b01b031916753c710b981f5ef28da1807ce7ed3f2a28580e07540001175f556001600160a01b0361044e610fe4565b166bffffffffffffffffffffffff60a01b60015416176001556040805161047582826103a1565b6001815260208101601f198301368237815115610f8e575f5160206112be5f395f51905f5281528251631853304760e31b815260206004820152915160248301819052829160448301915f5b818110610f6c5750505090805f92038183733d5bc3c8d13dcb8bf317092d84783c2697ae92585af1610ed3575b50805160e0810181811067ffffffffffffffff8211176103c35782525f815260208101905f82528281015f8152606082015f815260808301905f825260a08401925f845260c08501945f86525f5160206112be5f395f51905f525f51602061127e5f395f51905f5289610604610593825163eabe7d9160e01b6020820152856024820152306044820152600160648201526064815261058e6084826103a1565b6111a3565b919015159182875260c0845194859460608652603660608701527f72656465656d416c6c6f7765642863555344432c73656c662c3129202d3e2072608087015275656465656d416c6c6f776564496e7465726e616c282960501b60a0870152602086015284015260c083019061037d565b0390a25f5160206112be5f395f51905f525f51602061127e5f395f51905f52896106e661066382516317b9b84b60e31b602082015285602482015230604482015261beef6064820152600160848201526084815261058e60a4826103a1565b9190151591828d5260e0845194859460608652604260608701527f7472616e73666572416c6c6f7765642863555344432c73656c662c726563697060808701527f69656e742c3129202d3e2072656465656d416c6c6f776564496e7465726e616c60a087015261282960f01b60c0870152602086015284015260e083019061037d565b0390a25f5160206112be5f395f51905f525f51602061127e5f395f51905f52896107ae610736825163db006a7560e01b602082015260016024820152602481526107316044826103a1565b611207565b919015159182885260c0845194859460608652603960608701527f72656465656d283129202d3e2072656465656d46726573682829202d3e20636f60808701527f6d7074726f6c6c65722e72656465656d416c6c6f77656428290000000000000060a0870152602086015284015260c083019061037d565b0390a25f5160206112be5f395f51905f525f51602061127e5f395f51905f528961087d6107f9825163852a12e360e01b602082015260016024820152602481526107316044826103a1565b919015159182895260e0845194859460608652604360608701527f72656465656d556e6465726c79696e67283129202d3e2072656465656d46726560808701527f73682829202d3e20636f6d7074726f6c6c65722e72656465656d416c6c6f776560a08701526264282960e81b60c0870152602086015284015260e083019061037d565b0390a25f5160206112be5f395f51905f525f51602061127e5f395f51905f52896109466108d5825163a9059cbb60e01b602082015261beef602482015260016044820152604481526108d06064826103a1565b61122a565b9190151591828a5260c0845194859460608652603660608701527f7472616e7366657228726563697069656e742c3129202d3e20636f6d7074726f6080870152756c6c65722e7472616e73666572416c6c6f776564282960501b60a0870152602086015284015260c083019061037d565b0390a25f5160206112be5f395f51905f525f51602061127e5f395f51905f5289610a1761099f82516323b872dd60e01b602082015230602482015261beef604482015260016064820152606481526108d06084826103a1565b9190151591828b5260c0845194859460608652603f60608701527f7472616e7366657246726f6d2873656c662c726563697069656e742c3129202d60808701527f3e20636f6d7074726f6c6c65722e7472616e73666572416c6c6f77656428290060a0870152602086015284015260c083019061037d565b0390a25f5160206112be5f395f51905f525f51602061127e5f395f51905f5289610ae5610a618251630ede4edd60e41b60208201528560248201526024815261058e6044826103a1565b9190151591828c5260e0845194859460608652604360608701527f656e7465724d61726b65747328635553444329202d3e20657869744d61726b6560808701527f7428635553444329202d3e2072656465656d416c6c6f776564496e7465726e6160a0870152626c282960e81b60c0870152602086015284015260e083019061037d565b0390a25115159586610ec8575b5085610ebd575b5084610eb2575b5083610ea7575b5082610e9c575b5081610e91575b50610cc2575f600255610b296003546103d7565b601f8111610c6f575b507f6c08705cea9a8ff231d6894de821cc4e849731466f1baf1644282088c529b65560605f5160206112be5f395f51905f529260c960035560035f527f6f6e65206f72206d6f726520726571756972656420726564656d7074696f6e2c5f51602061129e5f395f51905f52557f20657869742c206f722063546f6b656e2d7472616e736665722070726f6265737fc2575a0e9e593c00f959f8c92f12db2869c3395a3b0502d05e2516446f71f85c557f20756e65787065637465646c7920636f6d706c65746564206f6e2074686973207fc2575a0e9e593c00f959f8c92f12db2869c3395a3b0502d05e2516446f71f85d5563666f726b60e01b7fc2575a0e9e593c00f959f8c92f12db2869c3395a3b0502d05e2516446f71f85e5560018060a01b036001541690600254908051925f84526020840152820152a2565b60035f52601f0160051c5f51602061129e5f395f51905f52017fc2575a0e9e593c00f959f8c92f12db2869c3395a3b0502d05e2516446f71f85f5b818110610cb75750610b32565b5f8155600101610caa565b61010061ff00195f5416175f55610cd7611089565b600255610ce56003546103d7565b601f8111610e3e575b507f6c08705cea9a8ff231d6894de821cc4e849731466f1baf1644282088c529b65560605f5160206112be5f395f51905f529260ed60035560035f527f76616c69646174656420746861742072656465656d2c2072656465656d556e645f51602061129e5f395f51905f52557f65726c79696e672c20657869744d61726b65742c207472616e736665722c20617fc2575a0e9e593c00f959f8c92f12db2869c3395a3b0502d05e2516446f71f85c557f6e64207472616e7366657246726f6d2061726520616c6c20626c6f636b6564207fc2575a0e9e593c00f959f8c92f12db2869c3395a3b0502d05e2516446f71f85d5575666f72206355534443206f6e207468697320666f726b60501b7fc2575a0e9e593c00f959f8c92f12db2869c3395a3b0502d05e2516446f71f85e5560018060a01b03600154169060025490805192600184526020840152820152a2565b60035f52601f0160051c5f51602061129e5f395f51905f52017fc2575a0e9e593c00f959f8c92f12db2869c3395a3b0502d05e2516446f71f85f5b818110610e865750610cee565b5f8155600101610e79565b90505115155f610b15565b51151591505f610b0e565b51151592505f610b07565b51151593505f610b00565b51151594505f610af9565b51151595505f610af2565b3d805f833e610ee281836103a1565b8101906020818303126100915780519067ffffffffffffffff821161009157019080601f830112156100915781519167ffffffffffffffff83116103c3578260051b906020820193610f36865195866103a1565b845260208085019282010192831161009157602001905b828210610f5c575050506104ee565b8151815260209182019101610f4d565b82516001600160a01b03168452859450602093840193909201916001016104c1565b634e487b7160e01b5f52603260045260245ffd5b50565b3d15610fdf573d9067ffffffffffffffff82116103c35760405191610fd4601f8201601f1916602001846103a1565b82523d5f602084013e565b606090565b5f806040516020810190636f307dc360e01b8252600481526110076024826103a1565b51905f5160206112be5f395f51905f525afa611021610fa5565b9015801561107e575b61106c5760208180518101031261009157602001516001600160a01b038116919082900361009157811561105a57565b5f5160206112be5f395f51905f529150565b505f5160206112be5f395f51905f5290565b50602081511061102a565b5f8060405160208101906318160ddd60e01b8252600481526110ac6024826103a1565b51905f5160206112be5f395f51905f525afa6110c6610fa5565b5f80604051602081019063182df0f560e01b8252600481526110e96024826103a1565b51905f5160206112be5f395f51905f525afa611103610fa5565b921590811561119a575b50801561118f575b8015611184575b61117e57602081519181808201938492010103126100915751906020815191818082019384920101031261009157519081810291818304149015171561116a57670de0b6b3a7640000900490565b634e487b7160e01b5f52601160045260245ffd5b50505f90565b50602082511061111c565b506020815110611115565b9050155f61110d565b5f809160208151910182733d5bc3c8d13dcb8bf317092d84783c2697ae92585af1906111cd610fa5565b9182901561120057805190602082106111f85760208082019282019190910312610091575115159190565b505060019190565b5060019190565b5f8091602081519101825f5160206112be5f395f51905f525af1906111cd610fa5565b5f8091602081519101825f5160206112be5f395f51905f525af19061124d610fa5565b91829015611200578051602081106111f8578160209181010312610091576020015180159081150361009157919056fe74f64ef75b68607a7853afac2c8ad6dd23925b1fd557b1f957e93ee139b58eb0c2575a0e9e593c00f959f8c92f12db2869c3395a3b0502d05e2516446f71f85b0000000000000000000000003c710b981f5ef28da1807ce7ed3f2a28580e0754a2646970667358221220ad197a1b2f6c694b4109a067a7a2040765453a42c4f15ffbb2eb28fb0e22333764736f6c634300081e0033","linkReferences":{}},"methodIdentifiers":{"executeOnOpportunity()":"3c2448ed","exploitPathUsed()":"d78c4281","hypothesisValidated()":"463defd1","infeasibilityReason()":"dfa6be1b","marketUsed()":"e246f6c3","profitAmount()":"5ff972cc","profitToken()":"49343624"},"id":0}