{"abi":[{"type":"constructor","inputs":[],"stateMutability":"nonpayable"},{"type":"receive","stateMutability":"payable"},{"type":"function","name":"executeOnOpportunity","inputs":[],"outputs":[],"stateMutability":"nonpayable"},{"type":"function","name":"exploitPathUsed","inputs":[],"outputs":[{"name":"","type":"string","internalType":"string"}],"stateMutability":"view"},{"type":"function","name":"failureReason","inputs":[],"outputs":[{"name":"","type":"string","internalType":"string"}],"stateMutability":"view"},{"type":"function","name":"hypothesisValidated","inputs":[],"outputs":[{"name":"","type":"bool","internalType":"bool"}],"stateMutability":"view"},{"type":"function","name":"isValidSignature","inputs":[{"name":"","type":"bytes32","internalType":"bytes32"},{"name":"","type":"bytes","internalType":"bytes"}],"outputs":[{"name":"","type":"bytes4","internalType":"bytes4"}],"stateMutability":"pure"},{"type":"function","name":"lastForgedPayload","inputs":[],"outputs":[{"name":"","type":"bytes","internalType":"bytes"}],"stateMutability":"view"},{"type":"function","name":"lastRevertSelector","inputs":[],"outputs":[{"name":"","type":"bytes4","internalType":"bytes4"}],"stateMutability":"view"},{"type":"function","name":"profitAmount","inputs":[],"outputs":[{"name":"","type":"uint256","internalType":"uint256"}],"stateMutability":"view"},{"type":"function","name":"profitToken","inputs":[],"outputs":[{"name":"","type":"address","internalType":"address"}],"stateMutability":"view"},{"type":"function","name":"resolveOrders","inputs":[{"name":"","type":"address","internalType":"address"},{"name":"","type":"bytes","internalType":"bytes"},{"name":"","type":"bytes","internalType":"bytes"}],"outputs":[],"stateMutability":"view"}],"bytecode":{"object":"0x608060405234610049575f80546001600160a01b03191673a0b86991c6218b36c1d19d4a2e9eb0ce3606eb4817905561003730610084565b600355604051612393908161013f8239f35b5f80fd5b601f909101601f19168101906001600160401b0382119082101761007057604052565b634e487b7160e01b5f52604160045260245ffd5b5f809160405160208101916370a0823160e01b835260018060a01b03166024820152602481526100b560448261004d565b519073a0b86991c6218b36c1d19d4a2e9eb0ce3606eb485afa3d15610136573d906001600160401b03821161007057604051916100fc601f8201601f19166020018461004d565b82523d5f602084013e5b15801561012b575b61012657602081805181010312610049576020015190565b505f90565b50602081511061010e565b60609061010656fe6080604052600436101561001a575b3615610018575f80fd5b005b5f3560e01c80631626ba7e146100b95780631944799f146100b45780633c2448ed146100af578063463defd1146100aa57806349343624146100a55780634f9522a4146100a05780635ff972cc1461009b5780636d093fe91461009657806376514153146100915763d78c42810361000e57610472565b610449565b6103a4565b610387565b6102c0565b610261565b61023c565b610224565b610135565b6100f0565b9181601f840112156100ec5782359167ffffffffffffffff83116100ec57602083818601950101116100ec57565b5f80fd5b346100ec5760403660031901126100ec5760243567ffffffffffffffff81116100ec576101219036906004016100be565b5050604051630b135d3f60e11b8152602090f35b346100ec5760603660031901126100ec576004356001600160a01b038116036100ec5760243567ffffffffffffffff81116100ec576101789036906004016100be565b505060443567ffffffffffffffff81116100ec5761019a9036906004016100be565b505073a88800cd213da5ae406ce248380802bd53b47647331480156101fd575b156101c157005b60405162461bcd60e51b81526020600482015260146024820152730dedcd8f240e6cae8e8d8cadacadce840e0c2e8d60631b6044820152606490fd5b5073019bfc71d43c3492926d4a9a6c781f36706970c933146101ba565b5f9103126100ec57565b346100ec575f3660031901126100ec576100186108c3565b346100ec575f3660031901126100ec57602060ff60045460081c166040519015158152f35b346100ec575f3660031901126100ec575f546040516001600160a01b039091168152602090f35b805180835260209291819084018484015e5f828201840152601f01601f1916010190565b9060206102bd928181520190610288565b90565b346100ec575f3660031901126100ec576040515f6005546102e081610504565b80845290600181169081156103635750600114610318575b6103148361030881850382610a16565b604051918291826102ac565b0390f35b91905060055f525f5160206122be5f395f51905f52915f905b808210610349575090915081016020016103086102f8565b919260018160209254838588010152019101909291610331565b60ff191660208086019190915291151560051b8401909101915061030890506102f8565b346100ec575f3660031901126100ec576020600154604051908152f35b346100ec575f3660031901126100ec576040515f6008546103c481610504565b808452906001811690811561036357506001146103eb576103148361030881850382610a16565b91905060085f527ff3f7a9fe364faab93b216da50a3214154f22a0a2b415b23a84c8169e8b636ee3915f905b80821061042f575090915081016020016103086102f8565b919260018160209254838588010152019101909291610417565b346100ec575f3660031901126100ec57602060075460e01b6040519063ffffffff60e01b168152f35b346100ec575f3660031901126100ec576040515f60065461049281610504565b808452906001811690811561036357506001146104b9576103148361030881850382610a16565b91905060065f525f51602061231e5f395f51905f52915f905b8082106104ea575090915081016020016103086102f8565b9192600181602092548385880101520191019092916104d2565b90600182811c92168015610532575b602083101461051e57565b634e487b7160e01b5f52602260045260245ffd5b91607f1691610513565b818110610547575050565b5f815560010161053c565b9190601f811161056157505050565b61058b925f5260205f20906020601f840160051c8301931061058d575b601f0160051c019061053c565b565b909150819061057e565b6105a2600554610504565b601f8111610617575b50607160059081555f527f6e6f20706f736974697665206e657420555344432062616c616e636520696e635f5160206122be5f395f51905f52557f7265617365206174207468697320666f726b20737461746500000000000000005f51602061229e5f395f51905f5255565b60055f81905261064891601f01901c5f5160206122be5f395f51905f52015f51602061233e5f395f51905f5261053c565b5f6105ab565b610659600554610504565b601f81116106bb575b50605560059081555f527f696e73756666696369656e74206d616b657220555344542061742074686973205f5160206122be5f395f51905f525569666f726b20737461746560b01b5f51602061229e5f395f51905f5255565b60055f8190526106ec91601f01901c5f5160206122be5f395f51905f52015f51602061233e5f395f51905f5261053c565b5f610662565b6106fd600554610504565b601f811161078e575b50609360059081555f527f686973746f726963616c2076696374696d20686173206e6f20757361626c65205f5160206122be5f395f51905f52557f5553444320616c6c6f77616e63652f62616c616e6365206174207468697320665f51602061229e5f395f51905f5255686f726b20737461746560b81b5f51602061233e5f395f51905f5255565b60055f8190526107d291601f01901c5f5160206122be5f395f51905f52017f036b6384b5eca791c62761152d0c79bb0604c104a5fb6f4eb0703f3154bb3db361053c565b5f610706565b6107e3600554610504565b601f8111610850575b50606b60059081555f527f736574746c656d656e742070617468207265766572746564206265666f7265205f5160206122be5f395f51905f525574616e79206e6574205553444320696e63726561736560581b5f51602061229e5f395f51905f5255565b60055f81905261088191601f01901c5f5160206122be5f395f51905f52015f51602061233e5f395f51905f5261053c565b5f6107ec565b610892600554610504565b601f81116108a2575b505f600555565b6108bd9060055f52601f60205f20910160051c81019061053c565b5f61089b565b60045460ff166109d8576108df600160ff196004541617600455565b5f80546001600160a01b0319165f5160206122de5f395f51905f52179055600354156109c2575b61090e610c30565b600661091930610ba8565b10156109b5575b610928610a4c565b6001541561094c5761094461010061ff00196004541617600455565b61058b610887565b60075460e01b6001600160e01b031916156109695761058b6107d8565b610971610c80565b15806109a6575b156109855761058b6106f2565b600661099030610ba8565b101561099e5761058b61064e565b61058b610597565b506109af610cb2565b15610978565b6109bd610c59565b610920565b6109d36109ce30610b2d565b600355565b610906565b61058b610a4c565b634e487b7160e01b5f52604160045260245ffd5b610140810190811067ffffffffffffffff821117610a1157604052565b6109e0565b90601f8019910116810190811067ffffffffffffffff821117610a1157604052565b634e487b7160e01b5f52601160045260245ffd5b610a5530610b2d565b60035480821115610ab7578103908111610ab2575b5f5160206122de5f395f51905f526bffffffffffffffffffffffff60a01b5f5416175f558060025564e8d4a5100081029080820464e8d4a510001490151715610ab257600155565b610a38565b50505f610a6a565b67ffffffffffffffff8111610a1157601f01601f191660200190565b60405190610aea602083610a16565b5f8252565b3d15610b19573d90610b0082610abf565b91610b0e6040519384610a16565b82523d5f602084013e565b606090565b908160209103126100ec575190565b5f809160405160208101916370a0823160e01b835260018060a01b0316602482015260248152610b5e604482610a16565b51905f5160206122de5f395f51905f525afa610b78610aef565b90158015610b9d575b610b9857806020806102bd93518301019101610b1e565b505f90565b506020815110610b81565b5f809160405160208101916370a0823160e01b835260018060a01b0316602482015260248152610bd9604482610a16565b51905f5160206122fe5f395f51905f525afa610b78610aef565b5f8060405160208101906370a0823160e01b825273b02f39e382c90160eb816de5e0e428ac771d77b5602482015260248152610b5e604482610a16565b6006610c3b30610ba8565b10610c4c575b610c49611004565b50565b610c54610edc565b610c41565b610c69610c64610c80565b611412565b60025461058b5761058b610c7b610cb2565b6117a1565b6102bd610c8b610bf3565b610c9361186b565b610c9b6118c2565b80821115610caa575090611970565b905090611970565b6102bd610cbd610bf3565b610cc5611919565b90610cce61186b565b610cd66118c2565b90838111610cf6575b50828111610cee575b50611970565b91505f610ce8565b92505f610cdf565b805115610d0b5760200190565b634e487b7160e01b5f52603260045260245ffd5b805160011015610d0b5760400190565b91909493929460808301908352608060208401528151809152602060a084019201905f5b818110610d73575050506001600160a01b03909416604082015260600152565b82516001600160a01b0316845260209384019390920191600101610d53565b610d9d600654610504565b601f8111610e93575b5060cb60069081555f527f657865637574654f6e4f70706f7274756e697479202d3e2073656564206d616b5f51602061231e5f395f51905f52557f657220555344542066726f6d207075626c696320556e6973776170206c6971757ff652222313e28459528d920b65115c16c04f3efc82aaedc97be59f3f377c0d40557f6964697479202d3e205f7472795265706c617943616c6c64617461436f7272757ff652222313e28459528d920b65115c16c04f3efc82aaedc97be59f3f377c0d415564383a34b7b760d91b7ff652222313e28459528d920b65115c16c04f3efc82aaedc97be59f3f377c0d4255565b60065f52610ed690601f0160051c5f51602061231e5f395f51905f52017ff652222313e28459528d920b65115c16c04f3efc82aaedc97be59f3f377c0d4361053c565b5f610da6565b476601c6bf526340008111610fde575b8015610c4957604051906060610f028184610a16565b60028352601f1901366020840137610f35610f1c83610cfe565b73c02aaa39b223fe8d0a0e5c4f27ead9083c756cc29052565b610f53610f4183610d1f565b5f5160206122fe5f395f51905f529052565b737a250d5630b4cf539739df2c5dacb4c659f2488d3b156100ec57610f95915f91604051808095819463b6f9de9560e01b835242903090600160048601610d2f565b0391737a250d5630b4cf539739df2c5dacb4c659f2488d5af19081610fc4575b50610fbc57565b61058b610d92565b80610fd25f610fd893610a16565b8061021a565b5f610fb5565b506601c6bf52634000610eec565b908160209103126100ec575180151581036100ec5790565b60405163095ea7b360e01b60208201908152731111111254eeb25477b68fb85ed929f73a96058260248301525f604483018190529182919061105381606481015b03601f198101835282610a16565b5190825f5160206122fe5f395f51905f525af161106e610aef565b901590811561110e575b5061110a5760405163095ea7b360e01b60208201908152731111111254eeb25477b68fb85ed929f73a96058260248301525f1960448301525f918291906110c28160648101611045565b5190825f5160206122fe5f395f51905f525af16110dd610aef565b816110e6575090565b80518015925082156110f757505090565b6102bd9250602080918301019101610fec565b5f90565b8051801515925082611123575b50505f611078565b61113e92509060208061113a938301019101610fec565b1590565b5f8061111b565b90815167ffffffffffffffff8111610a115761116d81611166600854610504565b6008610552565b602092601f82116001146111ad5761119d929382915f926111a2575b50508160011b915f199060031b1c19161790565b600855565b015190505f80611189565b60085f52601f198216937ff3f7a9fe364faab93b216da50a3214154f22a0a2b415b23a84c8169e8b636ee3915f5b86811061121157508360019596106111f9575b505050811b01600855565b01515f1960f88460031b161c191690555f80806111ee565b919260206001819286850151815501940192016111db565b611234600654610504565b601f81116113c9575b5061017960069081555f527f657865637574654f6e4f70706f7274756e697479202d3e205f7472795265706c5f51602061231e5f395f51905f52557f617943616c6c64617461436f7272757074696f6e202d3e20736574746c654f727ff652222313e28459528d920b65115c16c04f3efc82aaedc97be59f3f377c0d40557f6465727328666f72676564206e657374656420696e746572616374696f6e73297ff652222313e28459528d920b65115c16c04f3efc82aaedc97be59f3f377c0d41557f202d3e207465726d696e616c20636f7272757074656420696e746572616374697ff652222313e28459528d920b65115c16c04f3efc82aaedc97be59f3f377c0d42557f6f6e207769746820666f72676564206f6666736574732f6c656e677468202d3e7ff652222313e28459528d920b65115c16c04f3efc82aaedc97be59f3f377c0d43557f20617070656e64656420686973746f726963616c20747261696c6572000000007ff652222313e28459528d920b65115c16c04f3efc82aaedc97be59f3f377c0d4455565b60065f5261140c90601f0160051c5f51602061231e5f395f51905f52017ff652222313e28459528d920b65115c16c04f3efc82aaedc97be59f3f377c0d4561053c565b5f61123d565b61141b9061199c565b620186a0811015806114ca575b15610c49575f8061143883611af4565b61144181611145565b611449611229565b60405161146b816110456020820194630965d04b60e01b8652602483016102ac565b51908273a88800cd213da5ae406ce248380802bd53b476475af19061148e610aef565b916114c0576114b56114a26114bb93611d50565b60e01c63ffffffff196007541617600755565b60011c90565b61141b565b505061058b610a4c565b5060025415611428565b6114df600654610504565b601f81116116aa575b506101a160069081555f527f657865637574654f6e4f70706f7274756e697479202d3e205f7472795265706c5f51602061231e5f395f51905f52557f617943616c6c64617461436f7272757074696f6e202d3e20686973746f7269637ff652222313e28459528d920b65115c16c04f3efc82aaedc97be59f3f377c0d40557f616c2072656c617920736574746c6528627974657329202d3e20666f726765647ff652222313e28459528d920b65115c16c04f3efc82aaedc97be59f3f377c0d41557f206e657374656420696e746572616374696f6e73202d3e207465726d696e616c7ff652222313e28459528d920b65115c16c04f3efc82aaedc97be59f3f377c0d42557f20636f7272757074656420696e746572616374696f6e207769746820666f72677ff652222313e28459528d920b65115c16c04f3efc82aaedc97be59f3f377c0d43557f6564206f6666736574732f6c656e677468202d3e20617070656e6465642068697ff652222313e28459528d920b65115c16c04f3efc82aaedc97be59f3f377c0d44556f39ba37b934b1b0b6103a3930b4b632b960811b7ff652222313e28459528d920b65115c16c04f3efc82aaedc97be59f3f377c0d4555565b60065f526116ed90601f0160051c5f51602061231e5f395f51905f52017ff652222313e28459528d920b65115c16c04f3efc82aaedc97be59f3f377c0d4661053c565b5f6114e8565b6116fe600554610504565b601f811161176a575b50606960059081555f527f626f74682064697265637420736574746c656d656e7420616e6420686973746f5f5160206122be5f395f51905f5255731c9a58d85b081c995b185e481c995d995c9d195960621b5f51602061229e5f395f51905f5255565b60055f81905261179b91601f01901c5f5160206122be5f395f51905f52015f51602061233e5f395f51905f5261053c565b5f611707565b6117aa9061199c565b620186a081101580611861575b15611836575f806117c783611af4565b6117d081611145565b6117d86114d4565b6040516117fa81611045602082019463d0322fbf60e01b8652602483016102ac565b51908273019bfc71d43c3492926d4a9a6c781f36706970c95af19061181d610aef565b916114c0576114b56114a261183193611d50565b6117aa565b50611842600554610504565b1580611857575b61184f57565b61058b6116f3565b5060025415611849565b50600254156117b7565b5f806040516020810190636eb1769f60e11b825273b02f39e382c90160eb816de5e0e428ac771d77b5602482015273a88800cd213da5ae406ce248380802bd53b47647604482015260448152610b5e606482610a16565b5f806040516020810190636eb1769f60e11b825273b02f39e382c90160eb816de5e0e428ac771d77b56024820152731111111254eeb25477b68fb85ed929f73a960582604482015260448152610b5e606482610a16565b5f806040516020810190636eb1769f60e11b825273b02f39e382c90160eb816de5e0e428ac771d77b5602482015273019bfc71d43c3492926d4a9a6c781f36706970c9604482015260448152610b5e606482610a16565b908082101561199557505b64e8d4a5100081101561198b5790565b5064e8d4a5100090565b905061197b565b64e8d4a51000811161198b5790565b805182526020808201516001600160a01b0316908301526102bd919061014090610120906040818101516001600160a01b0316908501526060818101516001600160a01b0316908501526080818101516001600160a01b03169085015260a0818101516001600160a01b03169085015260c081015160c085015260e081015160e0850152610100810151610100850152015191816101208201520190610288565b9392611a9b90611a8d73019bfc71d43c3492926d4a9a6c781f36706970c994611a7f60c09560e08a5260e08a01906119ab565b9088820360208a0152610288565b908682036040880152610288565b935f6060820152600160808201525f60a08201520152565b805191908290602001825e015f815290565b73a88800cd213da5ae406ce248380802bd53b4764760601b81525f60148201526102bd91601590910190611ab3565b611afc610adb565b90611b0690611e81565b90611b0f611fe1565b91604051928391836020840192611b2593611a4c565b03601f1981018352611b379083610a16565b604051630965d04b60e01b6020820152918290611b5790602483016102ac565b03601f1981018352611b699083610a16565b60405180926020820190611b7c91611ac5565b03601f1981018352611b8e9083610a16565b611b9661206d565b91604051928391836020840192611bac93611a4c565b03601f1981018352611bbe9083610a16565b604051630965d04b60e01b6020820152918290611bde90602483016102ac565b03601f1981018352611bf09083610a16565b60405180926020820190611c0391611ac5565b03601f1981018352611c159083610a16565b611c1d6120d8565b91604051928391836020840192611c3393611a4c565b03601f1981018352611c459083610a16565b604051630965d04b60e01b6020820152918290611c6590602483016102ac565b03601f1981018352611c779083610a16565b60405180926020820190611c8a91611ac5565b03601f1981018352611c9c9083610a16565b611ca4612143565b91604051928391836020840192611cba93611a4c565b03601f1981018352611ccc9083610a16565b604051630965d04b60e01b6020820152918290611cec90602483016102ac565b03601f1981018352611cfe9083610a16565b60405180926020820190611d1191611ac5565b03601f1981018352611d239083610a16565b611d2b6121ae565b604051928392611d3e9260208501611a4c565b03601f19810182526102bd9082610a16565b6004815110610b98576020015190565b60408051909190611d718382610a16565b6017815291601f1901366020840137565b90611d8c82610abf565b611d996040519182610a16565b8281528092611daa601f1991610abf565b0190602036910137565b73a88800cd213da5ae406ce248380802bd53b4764760601b8152600160f81b601482015273b02f39e382c90160eb816de5e0e428ac771d77b560601b60158201526102bd9291611e079160290190611ab3565b90611ab3565b60c090611e3a73019bfc71d43c3492926d4a9a6c781f36706970c99395949560e0835260e08301906119ab565b94610240602083015261046060408301525f606083015260808201525f60a08201520152565b6102bd9392611e07611e7492602094611ab3565b6101ff1981520190611ab3565b6102bd611045611f8861104593611f6c611e9c610220611d82565b91611045604051611f1481611045856020830160e06040919392936101008101945f825273b02f39e382c90160eb816de5e0e428ac771d77b560208301525f5160206122de5f395f51905f52848301525f60608301525f60808301525f5160206122de5f395f51905f5260a083015260c08201520152565b611f31611f1f611d60565b61104560405193849260208401611db4565b611f5d611f3d84612219565b611f4f60405195869260208401611e0d565b03601f198101855284610a16565b60405194859360208501611e60565b604051630965d04b60e01b6020820152928391602483016102ac565b60405192839160208301611ac5565b60405190611fa4826109f4565b6060610120835f81525f60208201525f60408201525f838201525f60808201525f60a08201525f60c08201525f60e08201525f6101008201520152565b611fe9611f97565b50604051611ff6816109f4565b5f81525f5160206122fe5f395f51905f5260208201525f5160206122de5f395f51905f5260408201523060608201819052608082015273a88800cd213da5ae406ce248380802bd53b4764760a08201525b600160c0820152600160e08201525f610100820152612064610adb565b61012082015290565b612075611f97565b50604051612082816109f4565b600181525f5160206122fe5f395f51905f5260208201525f5160206122de5f395f51905f5260408201523060608201819052608082015273a88800cd213da5ae406ce248380802bd53b4764760a0820152612047565b6120e0611f97565b506040516120ed816109f4565b600281525f5160206122fe5f395f51905f5260208201525f5160206122de5f395f51905f5260408201523060608201819052608082015273a88800cd213da5ae406ce248380802bd53b4764760a0820152612047565b61214b611f97565b50604051612158816109f4565b600381525f5160206122fe5f395f51905f5260208201525f5160206122de5f395f51905f5260408201523060608201819052608082015273a88800cd213da5ae406ce248380802bd53b4764760a0820152612047565b6121b6611f97565b506040516121c3816109f4565b600481525f5160206122fe5f395f51905f5260208201525f5160206122de5f395f51905f5260408201523060608201819052608082015273a88800cd213da5ae406ce248380802bd53b4764760a0820152612047565b612221611f97565b506040519061222f826109f4565b5f8083525f5160206122fe5f395f51905f5260208401525f5160206122de5f395f51905f5260408401523060608401819052608084015273a88800cd213da5ae406ce248380802bd53b4764760a0840152600160c084015260e0830191909152610100820152612064610adb56fe036b6384b5eca791c62761152d0c79bb0604c104a5fb6f4eb0703f3154bb3db1036b6384b5eca791c62761152d0c79bb0604c104a5fb6f4eb0703f3154bb3db0000000000000000000000000a0b86991c6218b36c1d19d4a2e9eb0ce3606eb48000000000000000000000000dac17f958d2ee523a2206206994597c13d831ec7f652222313e28459528d920b65115c16c04f3efc82aaedc97be59f3f377c0d3f036b6384b5eca791c62761152d0c79bb0604c104a5fb6f4eb0703f3154bb3db2a264697066735822122029dfb6d36371df328910e65fa154406a3329e8a95ab4135faeb1afe861f986d964736f6c634300081e0033","linkReferences":{}},"methodIdentifiers":{"executeOnOpportunity()":"3c2448ed","exploitPathUsed()":"d78c4281","failureReason()":"4f9522a4","hypothesisValidated()":"463defd1","isValidSignature(bytes32,bytes)":"1626ba7e","lastForgedPayload()":"6d093fe9","lastRevertSelector()":"76514153","profitAmount()":"5ff972cc","profitToken()":"49343624","resolveOrders(address,bytes,bytes)":"1944799f"},"id":0}