{"abi":[{"type":"constructor","inputs":[],"stateMutability":"nonpayable"},{"type":"function","name":"executeOnOpportunity","inputs":[],"outputs":[],"stateMutability":"nonpayable"},{"type":"function","name":"exploitPath","inputs":[],"outputs":[{"name":"","type":"string","internalType":"string"}],"stateMutability":"pure"},{"type":"function","name":"hypothesisValidated","inputs":[],"outputs":[{"name":"","type":"bool","internalType":"bool"}],"stateMutability":"view"},{"type":"function","name":"profitAmount","inputs":[],"outputs":[{"name":"","type":"uint256","internalType":"uint256"}],"stateMutability":"view"},{"type":"function","name":"profitToken","inputs":[],"outputs":[{"name":"","type":"address","internalType":"address"}],"stateMutability":"pure"},{"type":"function","name":"target","inputs":[],"outputs":[{"name":"","type":"address","internalType":"address"}],"stateMutability":"pure"}],"bytecode":{"object":"0x608080604052346015576129be908161001a8239f35b5f80fdfe60806040526004361015610011575f80fd5b5f3560e01c80633c2448ed14610253578063463defd11461022e57806349343624146102005780635ff972cc146101e4578063cb707c621461008d5763d4b839921461005b575f80fd5b34610089575f36600319011261008957602060405173eda47e13fd1192e32226753dc2261c4a14908fb78152f35b5f80fd5b34610089575f3660031901126100895760405160e0810181811067ffffffffffffffff8211176101d05760405260b78152604060208201917f605f7472616e7366657260202d3e20605f746f6b656e5472616e73666572602083527f2d3e20605f7472616e736665725374616e6461726460202d3e20605f67657456828201527f616c75657360202f20605f6765745256616c75657360202b20605f74616b655460608201527f65616d603b206c6976652d6275636b657420636c65616e7570202d3e2074617860808201527f656420627579202d3e2072657065617465642074617865642077616c6c65742060a08201527f7472616e7366657273202d3e2074617865642073656c6c00000000000000000060c08201528151928391602083525180918160208501528484015e5f828201840152601f01601f19168101030190f35b634e487b7160e01b5f52604160045260245ffd5b34610089575f3660031901126100895760205f54604051908152f35b34610089575f36600319011261008957602060405173c02aaa39b223fe8d0a0e5c4f27ead9083c756cc28152f35b34610089575f36600319011261008957602060ff60015460081c166040519015158152f35b34610089575f3660031901126100895761026b61028f565b005b90601f8019910116810190811067ffffffffffffffff8211176101d057604052565b60015460ff81166104fc5760019060ff1916176001556040516124898082019082821067ffffffffffffffff8311176101d057602091839161050083393081520301905ff080156104bf576040516370a0823160e01b815230600482015260208160248173c02aaa39b223fe8d0a0e5c4f27ead9083c756cc25afa9081156104bf575f916104ca575b50806103b25750604051637f5364ef60e01b815290602090829060049082905f906001600160a01b03165af15f918161037e575b5061036257505f805561ff001960015416600155565b805f5561ff0060015491151560081b169061ff00191617600155565b9091506020813d6020116103aa575b8161039a6020938361026d565b810103126100895751905f61034c565b3d915061038d565b60405163a9059cbb60e01b81526001600160a01b039092166004830181905260248301829052916020816044815f73c02aaa39b223fe8d0a0e5c4f27ead9083c756cc25af19081156104bf575f91610484575b5015610448575f916024602092604051948593849263c00499ab60e01b845260048401525af15f918161037e575061036257505f805561ff001960015416600155565b60405162461bcd60e51b81526020600482015260146024820152731cd95959081d1c985b9cd9995c8819985a5b195960621b6044820152606490fd5b90506020813d6020116104b7575b8161049f6020938361026d565b8101031261008957518015158103610089575f610405565b3d9150610492565b6040513d5f823e3d90fd5b90506020813d6020116104f4575b816104e56020938361026d565b8101031261008957515f610318565b3d91506104d8565b5056fe60c0346100e457601f61248938819003918201601f19168301916001600160401b038311848410176100d0578084926020946040528339810103126100e457516001600160a01b03811681036100e457608052604051610480808201906001600160401b038211838310176100d057602091839161200983393081520301905ff080156100c55760a052604051611f2090816100e98239608051818181606801528181610248015261028a015260a051818181610bf801528181610eeb01526117a50152f35b6040513d5f823e3d90fd5b634e487b7160e01b5f52604160045260245ffd5b5f80fdfe6080806040526004361015610012575f80fd5b5f905f3560e01c9081630c0a15f914610be65750806310d1e85c146109875780637f5364ef146102775780638da5cb5b146102325763c00499ab14610055575f80fd5b3461022f57602036600319011261022f577f000000000000000000000000000000000000000000000000000000000000000061009b336001600160a01b03831614610c8c565b6004356001556100a9610d08565b6040516370a0823160e01b8152306004820152906020826024815f516020611eab5f395f51905f525afa9182156102245783926101ec575b50600154808311156101dd57916020916100fe6101329483611980565b60025560405163a9059cbb60e01b81526001600160a01b039091166004820152602481019190915291829081906044820190565b0381855f516020611eab5f395f51905f525af19182156101d157916101a2575b5015610165576020600254604051908152f35b60405162461bcd60e51b815260206004820152601560248201527418d85c1a5d185b081c995d1d5c9b8819985a5b1959605a1b6044820152606490fd5b6101c4915060203d6020116101ca575b6101bc8183610c3e565b810190610c74565b5f610152565b503d6101b2565b604051903d90823e3d90fd5b63a5adf0af60e01b8452600484fd5b9091506020813d60201161021c575b8161020860209383610c3e565b810103126102185751905f6100e1565b5f80fd5b3d91506101fb565b6040513d85823e3d90fd5b80fd5b503461022f578060031936011261022f576040517f00000000000000000000000000000000000000000000000000000000000000006001600160a01b03168152602090f35b5034610218575f366003190112610218577f00000000000000000000000000000000000000000000000000000000000000006102bd336001600160a01b03831614610c8c565b60405163e6a4390560e01b81525f516020611eab5f395f51905f52600482015273a0b86991c6218b36c1d19d4a2e9eb0ce3606eb486024820152602081604481735c69bee701ef814a2b6a3edd4b1652cb9cc5aa6f5afa908115610730575f91610968575b506001600160a01b03168015610959575f80546001600160a01b031916821790556040516324dead2f60e11b81526020816004815f516020611ecb5f395f51905f525afa908115610730575f9161093a575b50604051630240bc6b60e21b8152906001600160a01b0316606082600481845afa908115610730575f925f926108df575b50604051630dfe168160e01b8152602081600481855afa8015610730575f516020611eab5f395f51905f52915f916108c0575b506001600160a01b03160361081657506001600160701b0391821691165b811580158061080d575b156107d7576501098d7e9e3f908282101561077e578184029384048214171561076a576103e88302928084046103e8149015171561076a5761044191611980565b6103e58102908082046103e5149015171561076a5761045f91610c27565b6001810180911161076a5760698102908082046069149015171561076a5760649004906001820180921161076a57604051630dfe168160e01b815291602083600481855afa9283156107305785935f516020611eab5f395f51905f52915f9161073b575b506001600160a01b0316036106a857604051816020820152602081526104ea604082610c3e565b823b156106a45761052d9284928360405180968195829463022c0d9f60e01b84526004840152836024840152306044840152608060648401526084830190610ce4565b03925af1801561069957610680575b50505b6040516370a0823160e01b8152306004820152906020826024815f516020611eab5f395f51905f525afa91821561022457839261064c575b50811561063d57600282905560405163a9059cbb60e01b81526001600160a01b039190911660048201526024810191909152602081604481855f516020611eab5f395f51905f525af19182156101d1579161061e575b50156105e0576020600254604051908152f35b60405162461bcd60e51b81526020600482015260166024820152751c1c9bd99a5d081d1c985b9cd9995c8819985a5b195960521b6044820152606490fd5b610637915060203d6020116101ca576101bc8183610c3e565b5f6105cd565b63a5adf0af60e01b8352600483fd5b9091506020813d602011610678575b8161066860209383610c3e565b810103126102185751905f610577565b3d915061065b565b8161068a91610c3e565b61069557815f61053c565b5080fd5b6040513d84823e3d90fd5b8380fd5b909150604051816020820152602081526106c3604082610c3e565b823b1561021857610706925f928360405180968195829463022c0d9f60e01b84528460048501526024840152306044840152608060648401526084830190610ce4565b03925af180156107305761071b575b5061053f565b6107289192505f90610c3e565b5f905f610715565b6040513d5f823e3d90fd5b61075d915060203d602011610763575b6107558183610c3e565b810190610cc5565b5f6104c3565b503d61074b565b634e487b7160e01b5f52601160045260245ffd5b60405162461bcd60e51b815260206004820152601860248201527f696e73756666696369656e742072657365727665206f757400000000000000006044820152606490fd5b634e487b7160e01b5f52601260045260245ffd5b60405162461bcd60e51b815260206004820152600e60248201526d656d70747920726573657276657360901b6044820152606490fd5b50811515610400565b60206004916040519283809263d21220a760e01b82525afa8015610730575f516020611eab5f395f51905f52915f916108a1575b506001600160a01b03160361086b576001600160701b0380911691166103f6565b60405162461bcd60e51b815260206004820152600e60248201526d0e8ded6cadc40dad2e6dac2e8c6d60931b6044820152606490fd5b6108ba915060203d602011610763576107558183610c3e565b5f61084a565b6108d9915060203d602011610763576107558183610c3e565b5f6103d8565b925090506060823d606011610932575b816108fc60609383610c3e565b810103126102185761090d8261196c565b604061091b6020850161196c565b93015163ffffffff8116036102185791905f6103a5565b3d91506108ef565b610953915060203d602011610763576107558183610c3e565b5f610374565b6331d3474760e11b5f5260045ffd5b610981915060203d602011610763576107558183610c3e565b5f610322565b34610218576080366003190112610218576004356001600160a01b038116908190036102185760643560243567ffffffffffffffff8211610218573660238301121561021857816004013567ffffffffffffffff811161021857820192366024850111610218575f546001600160a01b0316331480159190610bdb575b50610bcc5780610bc1575060206024604435935b83900301602319011261021857602401358103610b8a57610a37610d08565b6103e88102908082046103e8149015171561076a576103e590046001810180911161076a576040516370a0823160e01b81523060048201526020816024815f516020611eab5f395f51905f525afa80156107305782915f91610b55575b501115610b46575f5460405163a9059cbb60e01b81526001600160a01b0390911660048201526024810191909152602081806044810103815f5f516020611eab5f395f51905f525af1908115610730575f91610b27575b5015610af357005b60405162461bcd60e51b815260206004820152600c60248201526b1c995c185e4819985a5b195960a21b6044820152606490fd5b610b40915060203d6020116101ca576101bc8183610c3e565b81610aeb565b63a5adf0af60e01b5f5260045ffd5b9150506020813d602011610b82575b81610b7160209383610c3e565b810103126102185781905183610a94565b3d9150610b64565b60405162461bcd60e51b815260206004820152600f60248201526e0c4dee4e4deee40dad2e6dac2e8c6d608b1b6044820152606490fd5b602460209193610a18565b63f7a632f560e01b5f5260045ffd5b905030141584610a04565b34610218575f366003190112610218577f00000000000000000000000000000000000000000000000000000000000000006001600160a01b03168152602090f35b81156107c3570490565b9190820180921161076a57565b90601f8019910116810190811067ffffffffffffffff821117610c6057604052565b634e487b7160e01b5f52604160045260245ffd5b90816020910312610218575180151581036102185790565b15610c9357565b60405162461bcd60e51b815260206004820152600a60248201526937b7363c9037bbb732b960b11b6044820152606490fd5b9081602091031261021857516001600160a01b03811681036102185790565b805180835260209291819084018484015e5f828201840152601f01601f1916010190565b60405163095ea7b360e01b8152737a250d5630b4cf539739df2c5dacb4c659f2488d60048201525f1960248201525f90602081604481855f516020611eab5f395f51905f525af180156107305761194f575b5060405163095ea7b360e01b8152737a250d5630b4cf539739df2c5dacb4c659f2488d60048201525f1960248201526020816044815f5f516020611ecb5f395f51905f525af1801561073057611932575b50610db461198d565b6503a3529440008091101561171c575b610dcc61198d565b643a352944009081810180821161076a578311156116f957820382811161076a5781810390811161076a57612710810290808204612710149015171561170857618350900491633b9aca0083106116f957610e2683611a70565b610e2e611c21565b611f40830292801593818104611f4014851715611399576127109004936119008202828104611900148217156116d1576127109004916114008102818104611400148317156116e55761271090049181600c1b9182046110001417156116d1576127109004916040516370a0823160e01b81523060048201526020816024815f516020611ecb5f395f51905f525afa9081156115f957908791899161169c575b50106116575760405163a9059cbb60e01b81526001600160a01b037f0000000000000000000000000000000000000000000000000000000000000000166004820181905260248201979097526020816044818b5f516020611ecb5f395f51905f525af19081156115f9578891611638575b501561160457610f4d611c21565b6040516370a0823160e01b8152600481018790526020816024815f516020611ecb5f395f51905f525afa9081156115f95790829189916115c4575b501061157f57853b1561157b5760405190635f46d65760e11b82525f516020611ecb5f395f51905f52600483015230602483015260448201528681606481838a5af1801561155757908791611562575b5050610fe2611c21565b6040516370a0823160e01b81523060048201526020816024815f516020611ecb5f395f51905f525afa908115611557579082918891611522575b50106114dd5760405163a9059cbb60e01b81526001600160a01b03861660048201526024810191909152602081604481895f516020611ecb5f395f51905f525af190811561147f5786916114be575b501561148a57611079611c21565b6040516370a0823160e01b8152600481018590526020816024815f516020611ecb5f395f51905f525afa90811561147f57908291879161144a575b501061140557833b156114015760405190635f46d65760e11b82525f516020611ecb5f395f51905f5260048301523060248301526044820152848160648183885af180156113e1579085916113ec575b505061110e611c21565b6040516370a0823160e01b815260048101849052916020836024815f516020611ecb5f395f51905f525afa9283156113e15785936113ad575b5061115061198d565b8315938415948561135d575b50505050506112f2575b506040516370a0823160e01b81523060048201526020816024815f516020611ecb5f395f51905f525afa9081156106995782916112c0575b50801561128957604051906111b4606083610c3e565b6002825260403660208401375f516020611ecb5f395f51905f526111d783611a03565b525f516020611eab5f395f51905f526111ef83611a24565b52737a250d5630b4cf539739df2c5dacb4c659f2488d3b156112855761123f9183916040519384928392635c11d79560e01b8452600484015284602484015260a0604484015260a4830190611a34565b306064830152426084830152038183737a250d5630b4cf539739df2c5dacb4c659f2488d5af1801561069957611273575050565b61127e828092610c3e565b61022f5750565b8280fd5b60405162461bcd60e51b815260206004820152600f60248201526e1b9bc81213d113081d1bc81cd95b1b608a1b6044820152606490fd5b90506020813d6020116112ea575b816112db60209383610c3e565b8101031261021857515f61119e565b3d91506112ce565b803b1561069557818091604460405180948193632e4cb6a160e11b83525f516020611ecb5f395f51905f5260048401523060248401525af1801561069957908291611348575b5050611342611c21565b5f611166565b8161135291610c3e565b61022f57805f611338565b9091929394506103e882029182046103e81417156113995790612710611384920490610c31565b90810180911161076a57105f8080808061115c565b634e487b7160e01b86526011600452602486fd5b9092506020813d6020116113d9575b816113c960209383610c3e565b810103126102185751915f611147565b3d91506113bc565b6040513d87823e3d90fd5b816113f691610c3e565b6106a457835f611104565b8480fd5b60405162461bcd60e51b815260206004820152601b60248201527f696e73756666696369656e7420484f444c20666f7220737465703400000000006044820152606490fd5b9150506020813d602011611477575b8161146660209383610c3e565b81010312610218578190515f6110b4565b3d9150611459565b6040513d88823e3d90fd5b60405162461bcd60e51b815260206004820152600c60248201526b1cdd195c0cc819985a5b195960a21b6044820152606490fd5b6114d7915060203d6020116101ca576101bc8183610c3e565b5f61106b565b60405162461bcd60e51b815260206004820152601b60248201527f696e73756666696369656e7420484f444c20666f7220737465703300000000006044820152606490fd5b9150506020813d60201161154f575b8161153e60209383610c3e565b81010312610218578190515f61101c565b3d9150611531565b6040513d89823e3d90fd5b8161156c91610c3e565b61157757855f610fd8565b8580fd5b8680fd5b60405162461bcd60e51b815260206004820152601b60248201527f696e73756666696369656e7420484f444c20666f7220737465703200000000006044820152606490fd5b9150506020813d6020116115f1575b816115e060209383610c3e565b81010312610218578190515f610f88565b3d91506115d3565b6040513d8a823e3d90fd5b60405162461bcd60e51b815260206004820152600c60248201526b1cdd195c0c4819985a5b195960a21b6044820152606490fd5b611651915060203d6020116101ca576101bc8183610c3e565b5f610f3f565b60405162461bcd60e51b815260206004820152601b60248201527f696e73756666696369656e7420484f444c20666f7220737465703100000000006044820152606490fd5b9150506020813d6020116116c9575b816116b860209383610c3e565b81010312610218578690515f610ece565b3d91506116ab565b634e487b7160e01b87526011600452602487fd5b634e487b7160e01b88526011600452602488fd5b637f92965160e01b8452600484fd5b634e487b7160e01b84526011600452602484fd5b61172a6405d21dba00611a70565b611732611c21565b6040516370a0823160e01b81523060048201526020816024815f516020611ecb5f395f51905f525afa908115610730575f91611900575b5080156118f157611f408102818104611f400361076a5761271090049081156118e9575b5060405163a9059cbb60e01b81526001600160a01b037f0000000000000000000000000000000000000000000000000000000000000000166004820181905260248201929092526020816044815f5f516020611ecb5f395f51905f525af1908115610730575f916118ca575b501561188557611807611c21565b803b15610218575f8091604460405180948193632e4cb6a160e11b83525f516020611ecb5f395f51905f5260048401523060248401525af1801561073057611870575b50611853611c21565b8061185c61198d565b10610dc45763e64fe60760e01b8252600482fd5b61187d9192505f90610c3e565b5f905f61184a565b60405162461bcd60e51b815260206004820152601b60248201527f636c65616e7570207472616e73666572206f7574206661696c656400000000006044820152606490fd5b6118e3915060203d6020116101ca576101bc8183610c3e565b5f6117f9565b90505f61178d565b63e64fe60760e01b5f5260045ffd5b90506020813d60201161192a575b8161191b60209383610c3e565b8101031261021857515f611769565b3d915061190e565b61194a9060203d6020116101ca576101bc8183610c3e565b610dab565b6119679060203d6020116101ca576101bc8183610c3e565b610d5a565b51906001600160701b038216820361021857565b9190820391821161076a57565b6040516370a0823160e01b81525f516020611ecb5f395f51905f5260048201526020816024815f516020611ecb5f395f51905f525afa908115610730575f916119d4575090565b90506020813d6020116119fb575b816119ef60209383610c3e565b81010312610218575190565b3d91506119e2565b805115611a105760200190565b634e487b7160e01b5f52603260045260245ffd5b805160011015611a105760400190565b90602080835192838152019201905f5b818110611a515750505090565b82516001600160a01b0316845260209384019390920191600101611a44565b60405190611a7f606083610c3e565b6002825260403660208401375f516020611eab5f395f51905f52611aa283611a03565b525f516020611ecb5f395f51905f52611aba83611a24565b526040516370a0823160e01b8152306004820152906020826024815f516020611eab5f395f51905f525afa908115610730575f91611bed575b5f9250611b266040519485938493634401edf760e11b85526004850152602484015260a0604484015260a4830190611a34565b306064830152426084830152038183737a250d5630b4cf539739df2c5dacb4c659f2488d5af1801561073057611b595750565b3d805f833e611b688183610c3e565b8101906020818303126102185780519067ffffffffffffffff8211610218570181601f820112156102185780519067ffffffffffffffff8211610c60576020808360051b9381850190611bbe6040519283610c3e565b8152019282010192831161021857602001905b828210611bdd57505050565b8151815260209182019101611bd1565b90506020823d602011611c19575b81611c0860209383610c3e565b81010312610218575f915190611af3565b3d9150611bfb565b6040516324dead2f60e11b81526020816004815f516020611ecb5f395f51905f525afa908115610730575f91611e8b575b50604051630240bc6b60e21b81526001600160a01b039190911690606081600481855afa908115610730575f905f92611e33575b50604051630dfe168160e01b8152602081600481875afa8015610730575f516020611ecb5f395f51905f52915f91611e14575b506001600160a01b031603611da1576001600160701b0380911691165b8115159081611d97575b50156107d7576040516370a0823160e01b8152600481018390526020816024815f516020611ecb5f395f51905f525afa908115610730575f91611d65575b5011611d275750565b803b15610218575f809160246040518094819363bc25cf7760e01b83523060048401525af1801561073057611d595750565b5f611d6391610c3e565b565b90506020813d602011611d8f575b81611d8060209383610c3e565b8101031261021857515f611d1e565b3d9150611d73565b905015155f611ce0565b9060405163d21220a760e01b8152602081600481875afa8015610730575f516020611ecb5f395f51905f52915f91611df5575b506001600160a01b03160361086b576001600160701b038091169116611cd6565b611e0e915060203d602011610763576107558183610c3e565b5f611dd4565b611e2d915060203d602011610763576107558183610c3e565b5f611cb9565b9150506060813d606011611e83575b81611e4f60609383610c3e565b8101031261021857611e608161196c565b6040611e6e6020840161196c565b92015163ffffffff811603610218575f611c86565b3d9150611e42565b611ea4915060203d602011610763576107558183610c3e565b5f611c5256fe000000000000000000000000c02aaa39b223fe8d0a0e5c4f27ead9083c756cc2000000000000000000000000eda47e13fd1192e32226753dc2261c4a14908fb7a264697066735822122098e2142c31bcf5d0d88f5811e9ab09f2eabd08fca557d943ecef8ec5556774d464736f6c634300081e003360a034607357601f61048038819003918201601f19168301916001600160401b03831184841017607757808492602094604052833981010312607357516001600160a01b03811681036073576080526040516103f4908161008c823960805181818160640152818161017701526101ce0152f35b5f80fd5b634e487b7160e01b5f52604160045260245ffdfe60806040526004361015610011575f80fd5b5f3560e01c80635c996d42146101a65780638da5cb5b146101625763be8dacae1461003a575f80fd5b3461015e57606036600319011261015e5761005361030b565b61005b610321565b604435610092337f00000000000000000000000000000000000000000000000000000000000000006001600160a01b031614610337565b8061009957005b60405163a9059cbb60e01b81526001600160a01b0390921660048301526024820152906020908290815f816044810103926001600160a01b03165af1908115610153575f91610124575b50156100eb57005b60405162461bcd60e51b81526020600482015260116024820152701cd95b99105b5bdd5b9d0819985a5b1959607a1b6044820152606490fd5b610146915060203d60201161014c575b61013e8183610370565b8101906103a6565b5f6100e3565b503d610134565b6040513d5f823e3d90fd5b5f80fd5b3461015e575f36600319011261015e576040517f00000000000000000000000000000000000000000000000000000000000000006001600160a01b03168152602090f35b3461015e57604036600319011261015e576101bf61030b565b6101c7610321565b906101fc337f00000000000000000000000000000000000000000000000000000000000000006001600160a01b031614610337565b6040516370a0823160e01b81523060048201526001600160a01b03919091169190602081602481865afa908115610153575f916102d9575b508061023c57005b60405163a9059cbb60e01b81526001600160a01b03929092166004830152602482015290602090829060449082905f905af1908115610153575f916102ba575b501561028457005b60405162461bcd60e51b815260206004820152600e60248201526d1cd95b99105b1b0819985a5b195960921b6044820152606490fd5b6102d3915060203d60201161014c5761013e8183610370565b8161027c565b90506020813d602011610303575b816102f460209383610370565b8101031261015e575183610234565b3d91506102e7565b600435906001600160a01b038216820361015e57565b602435906001600160a01b038216820361015e57565b1561033e57565b60405162461bcd60e51b815260206004820152600a60248201526937b7363c9037bbb732b960b11b6044820152606490fd5b90601f8019910116810190811067ffffffffffffffff82111761039257604052565b634e487b7160e01b5f52604160045260245ffd5b9081602091031261015e5751801515810361015e579056fea26469706673582212205e392779a015c08e7283f9445f2021f6278488769dd8c902ef7a50fd994df20164736f6c634300081e0033a2646970667358221220801381d590c351c6cf1c847cad8deac286cf1379328c01a28695fed540823cee64736f6c634300081e0033","linkReferences":{}},"methodIdentifiers":{"executeOnOpportunity()":"3c2448ed","exploitPath()":"cb707c62","hypothesisValidated()":"463defd1","profitAmount()":"5ff972cc","profitToken()":"49343624","target()":"d4b83992"},"id":0}