{"abi":[{"type":"constructor","inputs":[],"stateMutability":"nonpayable"},{"type":"function","name":"configureVictim","inputs":[{"name":"victim","type":"address","internalType":"address"},{"name":"token","type":"address","internalType":"address"}],"outputs":[],"stateMutability":"nonpayable"},{"type":"function","name":"configuredVictim","inputs":[],"outputs":[{"name":"","type":"address","internalType":"address"}],"stateMutability":"view"},{"type":"function","name":"configuredVictimToken","inputs":[],"outputs":[{"name":"","type":"address","internalType":"address"}],"stateMutability":"view"},{"type":"function","name":"executeOnOpportunity","inputs":[],"outputs":[],"stateMutability":"nonpayable"},{"type":"function","name":"profitAmount","inputs":[],"outputs":[{"name":"","type":"uint256","internalType":"uint256"}],"stateMutability":"view"},{"type":"function","name":"profitToken","inputs":[],"outputs":[{"name":"","type":"address","internalType":"address"}],"stateMutability":"view"},{"type":"function","name":"uniswapV2Call","inputs":[{"name":"sender","type":"address","internalType":"address"},{"name":"amount0","type":"uint256","internalType":"uint256"},{"name":"amount1","type":"uint256","internalType":"uint256"},{"name":"","type":"bytes","internalType":"bytes"}],"outputs":[],"stateMutability":"nonpayable"}],"bytecode":{"object":"0x60a060405234801561001057600080fd5b503073044b75f554b886a065b9567891e45c79542d735760405161003390610078565b6001600160a01b03928316815291166020820152604001604051809103906000f080158015610066573d6000803e3d6000fd5b506001600160a01b0316608052610085565b61091b80611c4283390190565b608051611b7f6100c3600039600081816102470152818161051001528181610b31015281816110450152818161132501526117660152611b7f6000f3fe608060405234801561001057600080fd5b506004361061007d5760003560e01c8063493436241161005b57806349343624146100cf5780635ff972cc146100e05780636740612b146100f15780639f776aa71461012d57600080fd5b806302f0ff8a1461008257806310d1e85c146100b25780633c2448ed146100c7575b600080fd5b600254610095906001600160a01b031681565b6040516001600160a01b0390911681526020015b60405180910390f35b6100c56100c03660046117fa565b610140565b005b6100c561039e565b6000546001600160a01b0316610095565b6001546040519081526020016100a9565b6100c56100ff366004611890565b600280546001600160a01b039384166001600160a01b03199182161790915560038054929093169116179055565b600354610095906001600160a01b031681565b6004546001600160a01b0316331461018e5760405162461bcd60e51b815260206004820152600c60248201526b3ab735b737bbb7103830b4b960a11b60448201526064015b60405180910390fd5b6001600160a01b03851630146101d35760405162461bcd60e51b815260206004820152600a6024820152693130b21039b2b73232b960b11b6044820152606401610185565b60008085116101e257836101e4565b845b905060075481146102245760405162461bcd60e51b815260206004820152600a60248201526918985908185b5bdd5b9d60b21b6044820152606401610185565b600554600654600a546009546040516343b0298160e01b81526001600160a01b037f00000000000000000000000000000000000000000000000000000000000000008116956343b029819561028b9591831694921692309260ff90921691906004016118c3565b600060405180830381600087803b1580156102a557600080fd5b505af11580156102b9573d6000803e3d6000fd5b5050600554600a54600093506102de92506001600160a01b039091169060ff166104d3565b600554600754604051632646478b60e01b815292935073044b75f554b886a065b9567891e45c79542d735792632646478b92610331926001600160a01b0390911691829060009030908990600401611947565b6020604051808303816000875af1158015610350573d6000803e3d6000fd5b505050506040513d601f19601f820116820180604052508101906103749190611995565b50600554600454600854610395926001600160a01b0390811692169061057b565b50505050505050565b600154156103a857565b6103b26000610688565b806103c257506103c26001610688565b156103c957565b6103d3600061070c565b806103e357506103e3600161070c565b156103ea57565b6103f33361077c565b156103fa57565b32331480159061040e575061040e3261077c565b1561041557565b6002546001600160a01b03161580159061043957506003546001600160a01b031615155b156104d15760025460035461045c916001600160a01b0390811691166000610850565b1561046357565b600254600354610481916001600160a01b0390811691166001610850565b1561048857565b6002546003546104a6916001600160a01b0390811691166000610abf565b506001546000036104d1576002546003546104cf916001600160a01b0390811691166001610abf565b505b565b6060600283600161ffff6040516020016104f094939291906119ae565b6040516020818303038152906040528261050b57600161050e565b60055b7f00000000000000000000000000000000000000000000000000000000000000006001306040516020016105459493929190611a02565b60408051601f19818403018152908290526105639291602001611a49565b60405160208183030381529060405290505b92915050565b604080516001600160a01b038481166024830152604480830185905283518084039091018152606490920183526020820180516001600160e01b031663a9059cbb60e01b17905291516000928392908716916105d79190611a78565b6000604051808303816000865af19150503d8060008114610614576040519150601f19603f3d011682016040523d82523d6000602084013e610619565b606091505b50915091508180156106435750805115806106435750808060200190518101906106439190611a94565b6106815760405162461bcd60e51b815260206004820152600f60248201526e1d1c985b9cd9995c8819985a5b1959608a1b6044820152606401610185565b5050505050565b6000805b60148110156107035760006106a082610c73565b905060006106c28273044b75f554b886a065b9567891e45c79542d7357610f24565b9050600181116106d35750506106fb565b6106e882866106e3600185611acc565b61101e565b156106f857506001949350505050565b50505b60010161068c565b50600092915050565b6000805b600881101561070357600061072482611180565b905060006107468273044b75f554b886a065b9567891e45c79542d7357611292565b905060018111610757575050610774565b61076182866112fe565b1561077157506001949350505050565b50505b600101610710565b60006001600160a01b03821661079457506000919050565b6107b48273c02aaa39b223fe8d0a0e5c4f27ead9083c756cc26000610850565b156107c157506001919050565b6107e18273c02aaa39b223fe8d0a0e5c4f27ead9083c756cc26001610850565b156107ee57506001919050565b61080e82736b175474e89094c44da98b954eedeac495271d0f6000610850565b1561081b57506001919050565b61083b82736b175474e89094c44da98b954eedeac495271d0f6001610850565b1561084857506001919050565b506000919050565b60006001600160a01b038416158061086f57506001600160a01b038316155b1561087c57506000610ab8565b600080600061088a86611458565b919450925090506001600160a01b0383166108ab5760009350505050610ab8565b60006108cc878973044b75f554b886a065b9567891e45c79542d73576114fd565b905060006108da888a610f24565b905060006108e883836115f0565b905066038d7ea4c6800081116109075760009650505050505050610ab8565b60016002600061091e66038d7ea4c6800083611adf565b90508084101561093a5760009950505050505050505050610ab8565b60006109468d30610f24565b905089600460006101000a8154816001600160a01b0302191690836001600160a01b031602179055508c600560006101000a8154816001600160a01b0302191690836001600160a01b031602179055508d600660006101000a8154816001600160a01b0302191690836001600160a01b031602179055508360078190555082600881905550816009819055508b600a60006101000a81548160ff021916908315150217905550896001600160a01b031663022c0d9f8a8a306040518463ffffffff1660e01b8152600401610a4f9392919092835260208301919091526001600160a01b03166040820152608060608201819052600190820152600160f81b60a082015260c00190565b600060405180830381600087803b158015610a6957600080fd5b505af1925050508015610a7a575060015b610a9957610a86611606565b60009a5050505050505050505050610ab8565b610aa1611606565b610aab8d82611645565b9a50505050505050505050505b9392505050565b600080610ae1848673044b75f554b886a065b9567891e45c79542d73576114fd565b90506000610aef8587610f24565b90506000610afd83836115f0565b905066038d7ea4c680008111610b195760009350505050610ab8565b6000610b258730610f24565b90506001600160a01b037f0000000000000000000000000000000000000000000000000000000000000000166343b02981888a308a610b6c66038d7ea4c680006001611adf565b6040518663ffffffff1660e01b8152600401610b8c9594939291906118c3565b600060405180830381600087803b158015610ba657600080fd5b505af1158015610bba573d6000803e3d6000fd5b505050506000610bca88886104d3565b604051632646478b60e01b815290915073044b75f554b886a065b9567891e45c79542d735790632646478b90610c0f908b906000908290829030908990600401611947565b6020604051808303816000875af1925050508015610c4a575060408051601f3d908101601f19168201909252610c4791810190611995565b60015b610c5c57600095505050505050610ab8565b610c668984611645565b9650505050505050610ab8565b600081600003610c98575073a0b86991c6218b36c1d19d4a2e9eb0ce3606eb48919050565b81600103610cbb575073dac17f958d2ee523a2206206994597c13d831ec7919050565b81600203610cde5750736b175474e89094c44da98b954eedeac495271d0f919050565b81600303610d01575073c02aaa39b223fe8d0a0e5c4f27ead9083c756cc2919050565b81600403610d245750732260fac5e5542a773aa44fbcfedf7c193bc2c599919050565b81600503610d475750736b3595068778dd592e39a122f4f5a5cf09c90fe2919050565b81600603610d6a575073514910771af9ca656af840dff83e8264ecf986ca919050565b81600703610d8d575073d533a949740bb3306d119cc777fa900ba034cd52919050565b81600803610db05750737fc66500c84a76ad7e9c93437bfc5ac33e2ddae9919050565b81600903610dd35750739f8f72aa9304c8b593d555f12ef6589cc3a579a2919050565b81600a03610df6575073c00e94cb662c3520282e6f5717214004a7f26888919050565b81600b03610e19575073c011a73ee8576fb46f5e1c5751ca3b9fe0af2a6f919050565b81600c03610e3c5750731f9840a85d5af5bf1d1762f925bdaddc4201f984919050565b81600d03610e5f5750730bc529c00c6401aef6d220be8c6ea1667f6ad93e919050565b81600e03610e82575073111111111117dc0aa78b770fa6a738034120c302919050565b81600f03610ea55750730d8775f648430679a709e98d2b0cb6250d2887ef919050565b81601003610ec8575073e41d2489571d322189246dafa5ebde1f4699f498919050565b81601103610ee657506e085d4780b73119b644ae5ecd22b376919050565b81601203610f095750734fabb145d64652a948d72533023f6e7a623c7c53919050565b50735f98805a4e8be255a32880fdec7f6728c6568ba0919050565b6000826001600160a01b03163b600003610f4057506000610575565b6040516001600160a01b03838116602483015260009182918616906370a0823160e01b906044015b60408051601f198184030181529181526020820180516001600160e01b03166001600160e01b0319909416939093179092529051610fa69190611a78565b600060405180830381855afa9150503d8060008114610fe1576040519150601f19603f3d011682016040523d82523d6000602084013e610fe6565b606091505b5091509150818015610ffa57506020815110155b1561101657808060200190518101906110139190611995565b92505b505092915050565b60008061102b8530610f24565b6040516343b0298160e01b81529091506001600160a01b037f000000000000000000000000000000000000000000000000000000000000000016906343b029819061109690889073044b75f554b886a065b9567891e45c79542d73579030908a908a906004016118c3565b600060405180830381600087803b1580156110b057600080fd5b505af11580156110c4573d6000803e3d6000fd5b5050505060006110d48686611699565b604051632646478b60e01b815290915073044b75f554b886a065b9567891e45c79542d735790632646478b906111199089906000908290829030908990600401611947565b6020604051808303816000875af1925050508015611154575060408051601f3d908101601f1916820190925261115191810190611995565b60015b61116357600092505050610ab8565b61116d8784611645565b9350505050610ab8565b50509392505050565b6000816000036111a55750736b175474e89094c44da98b954eedeac495271d0f919050565b816001036111c8575073c02aaa39b223fe8d0a0e5c4f27ead9083c756cc2919050565b816002036111eb575073a0b86991c6218b36c1d19d4a2e9eb0ce3606eb48919050565b8160030361120e575073dac17f958d2ee523a2206206994597c13d831ec7919050565b816004036112315750732260fac5e5542a773aa44fbcfedf7c193bc2c599919050565b816005036112545750736b3595068778dd592e39a122f4f5a5cf09c90fe2919050565b816006036112775750735f98805a4e8be255a32880fdec7f6728c6568ba0919050565b5073853d955acef822db058eb8505911ed77f175b99e919050565b600073f5bce5077908a1b7370b9ae04adf887a3ecf7ccf3b81036112b857506000610575565b6040516001600160a01b03848116602483015283166044820152600090819073f5bce5077908a1b7370b9ae04adf887a3ecf7ccf90633de222bb60e21b90606401610f68565b60008061130b8430610f24565b6040516343b0298160e01b81529091506001600160a01b037f000000000000000000000000000000000000000000000000000000000000000016906343b029819061137790879073044b75f554b886a065b9567891e45c79542d735790309089906000906004016118c3565b600060405180830381600087803b15801561139157600080fd5b505af11580156113a5573d6000803e3d6000fd5b5050505060006113b585856116b6565b604051632646478b60e01b815290915073044b75f554b886a065b9567891e45c79542d735790632646478b906113fa9088906000908290829030908990600401611947565b6020604051808303816000875af1925050508015611435575060408051601f3d908101601f1916820190925261143291810190611995565b60015b61144457600092505050610575565b61144e8684611645565b9350505050610575565b60008080736b175474e89094c44da98b954eedeac495271d0e196001600160a01b038516016114a4575073a478c2975ab1ea89e8196811f51a7b7ade33eb1191506001905060006114f6565b73c02aaa39b223fe8d0a0e5c4f27ead9083c756cc1196001600160a01b038516016114ec575073a478c2975ab1ea89e8196811f51a7b7ade33eb1191506000905060016114f6565b5060009150819050805b9193909250565b6000836001600160a01b03163b60000361151957506000610ab8565b604080516001600160a01b03858116602483015284811660448084019190915283518084039091018152606490920183526020820180516001600160e01b0316636eb1769f60e11b17905291516000928392908816916115799190611a78565b600060405180830381855afa9150503d80600081146115b4576040519150601f19603f3d011682016040523d82523d6000602084013e6115b9565b606091505b50915091508180156115cd57506020815110155b1561117757808060200190518101906115e69190611995565b9695505050505050565b60008183106115ff5781610ab8565b5090919050565b600480546001600160a01b03199081169091556005805482169055600680549091169055600060078190556008819055600955600a805460ff19169055565b6000806116528430610f24565b90508281111561168f57600080546001600160a01b0319166001600160a01b0386161790556116818382611acc565b600190815591506105759050565b5060009392505050565b6060600183600161ffff6040516020016104f094939291906119ae565b60606000600584600161ffff6040516020016116d594939291906119ae565b60408051808303601f19018152828252600360f81b602084015260006021840181905273044b75f554b886a065b9567891e45c79542d735760601b602285015282516016818603018152603685019093529093509091611742906001908890829061ffff906056016119ae565b6040516020818303038152906040529050600085611761576001611764565b60055b7f000000000000000000000000000000000000000000000000000000000000000060013060405160200161179b9493929190611a02565b6040516020818303038152906040529050838383836040516020016117c39493929190611af2565b60405160208183030381529060405294505050505092915050565b80356001600160a01b03811681146117f557600080fd5b919050565b60008060008060006080868803121561181257600080fd5b61181b866117de565b94506020860135935060408601359250606086013567ffffffffffffffff81111561184557600080fd5b8601601f8101881361185657600080fd5b803567ffffffffffffffff81111561186d57600080fd5b88602082840101111561187f57600080fd5b959894975092955050506020019190565b600080604083850312156118a357600080fd5b6118ac836117de565b91506118ba602084016117de565b90509250929050565b6001600160a01b03958616815293851660208501529190931660408301529115156060820152608081019190915260a00190565b60005b838110156119125781810151838201526020016118fa565b50506000910152565b600081518084526119338160208601602086016118f7565b601f01601f19169290920160200192915050565b6001600160a01b038781168252602082018790528581166040830152606082018590528316608082015260c060a082018190526000906119899083018461191b565b98975050505050505050565b6000602082840312156119a757600080fd5b5051919050565b60f894851b6001600160f81b0319908116825260609490941b6bffffffffffffffffffffffff191660018201529190931b909116601582015260f09190911b6001600160f01b031916601682015260180190565b6001600160f81b031960f895861b811682526bffffffffffffffffffffffff19606095861b811660018401529390951b909416601585015290911b166016820152602a0190565b60008351611a5b8184602088016118f7565b835190830190611a6f8183602088016118f7565b01949350505050565b60008251611a8a8184602087016118f7565b9190910192915050565b600060208284031215611aa657600080fd5b81518015158114610ab857600080fd5b634e487b7160e01b600052601160045260246000fd5b8181038181111561057557610575611ab6565b8082018082111561057557610575611ab6565b60008551611b04818460208a016118f7565b855190830190611b18818360208a016118f7565b8551910190611b2b8183602089016118f7565b8451910190611b3e8183602088016118f7565b01969550505050505056fea26469706673582212200f9ef07cb244d32c0e95b4ea6a6d715fb25c1e52fa2a81cdde967609d14a984764736f6c634300081e003360c060405234801561001057600080fd5b5060405161091b38038061091b83398101604081905261002f91610062565b6001600160a01b039182166080521660a052610095565b80516001600160a01b038116811461005d57600080fd5b919050565b6000806040838503121561007557600080fd5b61007e83610046565b915061008c60208401610046565b90509250929050565b60805160a0516108546100c7600039600081816101a20152818161029b01526103230152600060dc01526108546000f3fe608060405234801561001057600080fd5b50600436106100415760003560e01c8063128acb081461004657806321a761181461007257806343b0298114610085575b600080fd5b6100596100543660046105b5565b61009a565b6040805192835260208301919091520160405180910390f35b61005961008036600461063a565b6100b5565b6100986100933660046106d2565b6100d1565b005b6000806100a686610194565b91509150965096945050505050565b6000806100c187610194565b9150915097509795505050505050565b336001600160a01b037f0000000000000000000000000000000000000000000000000000000000000000161461013d5760405162461bcd60e51b815260206004820152600c60248201526b3737ba103b32b934b334b2b960a11b60448201526064015b60405180910390fd5b600080546001600160a01b03199081166001600160a01b0397881617909155600180548216958716959095179094556002805490941692909416919091179091556004805460ff1916911515919091179055600355565b600080336001600160a01b037f000000000000000000000000000000000000000000000000000000000000000016146101fc5760405162461bcd60e51b815260206004820152600a6024820152693737ba103937baba32b960b11b6044820152606401610134565b600354600081900361024757600084136102445760405162461bcd60e51b81526020600482015260096024820152681b9bc8185b5bdd5b9d60ba1b6044820152606401610134565b50825b600054600154604080516001600160a01b03938416602082015292909116828201528051808303820181526060909201905260045460ff161561030c5760405163e2a7b50160e01b81526001600160a01b037f0000000000000000000000000000000000000000000000000000000000000000169063e2a7b501906102d5908590600090869060040161075a565b600060405180830381600087803b1580156102ef57600080fd5b505af1158015610303573d6000803e3d6000fd5b50505050610390565b60405163fa461e3360e01b81526001600160a01b037f0000000000000000000000000000000000000000000000000000000000000000169063fa461e339061035d908590600090869060040161075a565b600060405180830381600087803b15801561037757600080fd5b505af115801561038b573d6000803e3d6000fd5b505050505b600080546040516370a0823160e01b81523060048201526001600160a01b03909116906370a0823190602401602060405180830381865afa1580156103d9573d6000803e3d6000fd5b505050506040513d601f19601f820116820180604052508101906103fd919061079b565b9050801561042257600054600254610422916001600160a01b03908116911683610439565b8294508261042f906107b4565b9350505050915091565b604080516001600160a01b038481166024830152604480830185905283518084039091018152606490920183526020820180516001600160e01b031663a9059cbb60e01b179052915160009283929087169161049591906107de565b6000604051808303816000865af19150503d80600081146104d2576040519150601f19603f3d011682016040523d82523d6000602084013e6104d7565b606091505b509150915081801561050157508051158061050157508080602001905181019061050191906107fa565b61053f5760405162461bcd60e51b815260206004820152600f60248201526e1d1c985b9cd9995c8819985a5b1959608a1b6044820152606401610134565b5050505050565b6001600160a01b038116811461055b57600080fd5b50565b801515811461055b57600080fd5b60008083601f84011261057e57600080fd5b50813567ffffffffffffffff81111561059657600080fd5b6020830191508360208285010111156105ae57600080fd5b9250929050565b60008060008060008060a087890312156105ce57600080fd5b86356105d981610546565b955060208701356105e98161055e565b945060408701359350606087013561060081610546565b9250608087013567ffffffffffffffff81111561061c57600080fd5b61062889828a0161056c565b979a9699509497509295939492505050565b600080600080600080600060c0888a03121561065557600080fd5b873561066081610546565b965060208801356106708161055e565b955060408801359450606088013561068781610546565b935060808801356106978161055e565b925060a088013567ffffffffffffffff8111156106b357600080fd5b6106bf8a828b0161056c565b989b979a50959850939692959293505050565b600080600080600060a086880312156106ea57600080fd5b85356106f581610546565b9450602086013561070581610546565b9350604086013561071581610546565b925060608601356107258161055e565b949793965091946080013592915050565b60005b83811015610751578181015183820152602001610739565b50506000910152565b8381528260208201526060604082015260008251806060840152610785816080850160208701610736565b601f01601f191691909101608001949350505050565b6000602082840312156107ad57600080fd5b5051919050565b6000600160ff1b82016107d757634e487b7160e01b600052601160045260246000fd5b5060000390565b600082516107f0818460208701610736565b9190910192915050565b60006020828403121561080c57600080fd5b81516108178161055e565b939250505056fea264697066735822122090ece14b1e80232162681e40a9955f323a57a6217a09b93651594db082931e5864736f6c634300081e0033","linkReferences":{}},"methodIdentifiers":{"configureVictim(address,address)":"6740612b","configuredVictim()":"02f0ff8a","configuredVictimToken()":"9f776aa7","executeOnOpportunity()":"3c2448ed","profitAmount()":"5ff972cc","profitToken()":"49343624","uniswapV2Call(address,uint256,uint256,bytes)":"10d1e85c"},"id":0}