{"abi":[{"type":"constructor","inputs":[],"stateMutability":"nonpayable"},{"type":"receive","stateMutability":"payable"},{"type":"function","name":"FLASH_WETH_PAIR","inputs":[],"outputs":[{"name":"","type":"address","internalType":"contract IUniswapV2PairLike"}],"stateMutability":"view"},{"type":"function","name":"NFTX_FACTORY","inputs":[],"outputs":[{"name":"","type":"address","internalType":"contract INFTXVaultFactoryLike"}],"stateMutability":"view"},{"type":"function","name":"SUSHISWAP_FACTORY","inputs":[],"outputs":[{"name":"","type":"address","internalType":"contract IUniswapV2FactoryLike"}],"stateMutability":"view"},{"type":"function","name":"TARGET","inputs":[],"outputs":[{"name":"","type":"address","internalType":"address"}],"stateMutability":"view"},{"type":"function","name":"UNISWAP_V2_FACTORY","inputs":[],"outputs":[{"name":"","type":"address","internalType":"contract IUniswapV2FactoryLike"}],"stateMutability":"view"},{"type":"function","name":"WETH","inputs":[],"outputs":[{"name":"","type":"address","internalType":"contract IWETH9"}],"stateMutability":"view"},{"type":"function","name":"executeOnOpportunity","inputs":[],"outputs":[],"stateMutability":"payable"},{"type":"function","name":"executed","inputs":[],"outputs":[{"name":"","type":"bool","internalType":"bool"}],"stateMutability":"view"},{"type":"function","name":"onERC721Received","inputs":[{"name":"","type":"address","internalType":"address"},{"name":"","type":"address","internalType":"address"},{"name":"","type":"uint256","internalType":"uint256"},{"name":"","type":"bytes","internalType":"bytes"}],"outputs":[{"name":"","type":"bytes4","internalType":"bytes4"}],"stateMutability":"pure"},{"type":"function","name":"profitAmount","inputs":[],"outputs":[{"name":"","type":"uint256","internalType":"uint256"}],"stateMutability":"view"},{"type":"function","name":"profitToken","inputs":[],"outputs":[{"name":"","type":"address","internalType":"address"}],"stateMutability":"view"},{"type":"function","name":"stolenCollection","inputs":[],"outputs":[{"name":"","type":"address","internalType":"address"}],"stateMutability":"view"},{"type":"function","name":"stolenTokenId","inputs":[],"outputs":[{"name":"","type":"uint256","internalType":"uint256"}],"stateMutability":"view"},{"type":"function","name":"uniswapV2Call","inputs":[{"name":"sender","type":"address","internalType":"address"},{"name":"amount0","type":"uint256","internalType":"uint256"},{"name":"amount1","type":"uint256","internalType":"uint256"},{"name":"","type":"bytes","internalType":"bytes"}],"outputs":[],"stateMutability":"nonpayable"},{"type":"error","name":"AlreadyExecuted","inputs":[]},{"type":"error","name":"FlashPairUnavailable","inputs":[]},{"type":"error","name":"InsufficientFlashProceeds","inputs":[{"name":"obtained","type":"uint256","internalType":"uint256"},{"name":"repayment","type":"uint256","internalType":"uint256"}]},{"type":"error","name":"JayAcquisitionFailed","inputs":[{"name":"ethSpent","type":"uint256","internalType":"uint256"},{"name":"jayObtained","type":"uint256","internalType":"uint256"},{"name":"jayRequired","type":"uint256","internalType":"uint256"}]},{"type":"error","name":"NoLiquidVictimFound","inputs":[]},{"type":"error","name":"NoVaultInventoryFound","inputs":[]},{"type":"error","name":"NotEnoughVerifierFunding","inputs":[{"name":"ethAvailable","type":"uint256","internalType":"uint256"},{"name":"jayAvailable","type":"uint256","internalType":"uint256"},{"name":"ethRequired","type":"uint256","internalType":"uint256"},{"name":"jayRequired","type":"uint256","internalType":"uint256"}]},{"type":"error","name":"RedemptionFailed","inputs":[{"name":"token","type":"address","internalType":"address"},{"name":"tokenId","type":"uint256","internalType":"uint256"}]},{"type":"error","name":"TokenTransferFailed","inputs":[{"name":"token","type":"address","internalType":"address"},{"name":"to","type":"address","internalType":"address"},{"name":"amount","type":"uint256","internalType":"uint256"}]},{"type":"error","name":"UnexpectedFlashCaller","inputs":[{"name":"caller","type":"address","internalType":"address"}]},{"type":"error","name":"UnexpectedFlashSender","inputs":[{"name":"sender","type":"address","internalType":"address"}]}],"bytecode":{"object":"0x6080604052348015600f57600080fd5b5061465b8061001f6000396000f3fe6080604052600436106100e15760003560e01c80634f81cd041161007f57806399d8fae31161005957806399d8fae31461028a578063ad5c4648146102b5578063cc1f2afa146102e0578063e417ab891461030b576100e8565b80634f81cd04146102095780635ff972cc146102345780637f73c33a1461025f576100e8565b806331a38c89116100bb57806331a38c891461017e5780633c2448ed146101a957806349343624146101b3578063495c0f9b146101de576100e8565b806310d1e85c146100ed578063150b7a021461011657806320b987b914610153576100e8565b366100e857005b600080fd5b3480156100f957600080fd5b50610114600480360381019061010f91906138aa565b610336565b005b34801561012257600080fd5b5061013d60048036038101906101389190613932565b61074c565b60405161014a91906139f5565b60405180910390f35b34801561015f57600080fd5b50610168610761565b6040516101759190613a6f565b60405180910390f35b34801561018a57600080fd5b50610193610779565b6040516101a09190613aa5565b60405180910390f35b6101b161078a565b005b3480156101bf57600080fd5b506101c8610e78565b6040516101d59190613acf565b60405180910390f35b3480156101ea57600080fd5b506101f3610ea1565b6040516102009190613b0b565b60405180910390f35b34801561021557600080fd5b5061021e610eb9565b60405161022b9190613b47565b60405180910390f35b34801561024057600080fd5b50610249610ed1565b6040516102569190613b71565b60405180910390f35b34801561026b57600080fd5b50610274610edb565b6040516102819190613acf565b60405180910390f35b34801561029657600080fd5b5061029f610f01565b6040516102ac9190613b0b565b60405180910390f35b3480156102c157600080fd5b506102ca610f19565b6040516102d79190613bad565b60405180910390f35b3480156102ec57600080fd5b506102f5610f31565b6040516103029190613acf565b60405180910390f35b34801561031757600080fd5b50610320610f49565b60405161032d9190613b71565b60405180910390f35b73b4e16d0168e52d35cacd2c6185b44281ec28c9dc73ffffffffffffffffffffffffffffffffffffffff163373ffffffffffffffffffffffffffffffffffffffff16146103ba57336040517feed5f0390000000000000000000000000000000000000000000000000000000081526004016103b19190613acf565b60405180910390fd5b3073ffffffffffffffffffffffffffffffffffffffff168573ffffffffffffffffffffffffffffffffffffffff161461042a57846040517f78ab05ff0000000000000000000000000000000000000000000000000000000081526004016104219190613acf565b60405180910390fd5b6000808511610439578361043b565b845b905073c02aaa39b223fe8d0a0e5c4f27ead9083c756cc273ffffffffffffffffffffffffffffffffffffffff16632e1a7d4d826040518263ffffffff1660e01b815260040161048a9190613b71565b600060405180830381600087803b1580156104a457600080fd5b505af11580156104b8573d6000803e3d6000fd5b505050506104ca600954600854610f4f565b610541600460009054906101000a900473ffffffffffffffffffffffffffffffffffffffff16600554600854600660009054906101000a900473ffffffffffffffffffffffffffffffffffffffff16600760009054906101000a900473ffffffffffffffffffffffffffffffffffffffff1661127c565b610549611386565b60006105548261140d565b9050600073c02aaa39b223fe8d0a0e5c4f27ead9083c756cc273ffffffffffffffffffffffffffffffffffffffff166370a08231306040518263ffffffff1660e01b81526004016105a59190613acf565b602060405180830381865afa1580156105c2573d6000803e3d6000fd5b505050506040513d601f19601f820116820180604052508101906105e69190613bdd565b90508181101561062f5780826040517f128bfe7e000000000000000000000000000000000000000000000000000000008152600401610626929190613c0a565b60405180910390fd5b73c02aaa39b223fe8d0a0e5c4f27ead9083c756cc273ffffffffffffffffffffffffffffffffffffffff1663a9059cbb73b4e16d0168e52d35cacd2c6185b44281ec28c9dc846040518363ffffffff1660e01b8152600401610692929190613c33565b6020604051808303816000875af11580156106b1573d6000803e3d6000fd5b505050506040513d601f19601f820116820180604052508101906106d59190613c88565b6107425773c02aaa39b223fe8d0a0e5c4f27ead9083c756cc273b4e16d0168e52d35cacd2c6185b44281ec28c9dc836040517fc877679800000000000000000000000000000000000000000000000000000000815260040161073993929190613cb5565b60405180910390fd5b5050505050505050565b600063150b7a0260e01b905095945050505050565b73b4e16d0168e52d35cacd2c6185b44281ec28c9dc81565b60008054906101000a900460ff1681565b60008054906101000a900460ff16156107cf576040517f0dc1019700000000000000000000000000000000000000000000000000000000815260040160405180910390fd5b60016000806101000a81548160ff0219169083151502179055506000806107f461143d565b915091506000806000806108066114d4565b9350935093509350600073ffffffffffffffffffffffffffffffffffffffff168473ffffffffffffffffffffffffffffffffffffffff1603610874576040517f4a346c7000000000000000000000000000000000000000000000000000000000815260040160405180910390fd5b83600260006101000a81548173ffffffffffffffffffffffffffffffffffffffff021916908373ffffffffffffffffffffffffffffffffffffffff1602179055508260038190555083600460006101000a81548173ffffffffffffffffffffffffffffffffffffffff021916908373ffffffffffffffffffffffffffffffffffffffff1602179055508260058190555081600660006101000a81548173ffffffffffffffffffffffffffffffffffffffff021916908373ffffffffffffffffffffffffffffffffffffffff16021790555080600760006101000a81548173ffffffffffffffffffffffffffffffffffffffff021916908373ffffffffffffffffffffffffffffffffffffffff160217905550856008819055508460098190555061099e8686611662565b156109c8576109ae856000610f4f565b6109bb848488858561127c565b6109c3611386565b610d87565b60006109dc866703782dace9d90000611787565b9050600081036109f2576703782dace9d9000090505b600066071afd498d00008289610a089190613d1b565b610a129190613d1b565b9050600073b4e16d0168e52d35cacd2c6185b44281ec28c9dc73ffffffffffffffffffffffffffffffffffffffff16630dfe16816040518163ffffffff1660e01b8152600401602060405180830381865afa158015610a75573d6000803e3d6000fd5b505050506040513d601f19601f82011682018060405250810190610a999190613d64565b9050600073b4e16d0168e52d35cacd2c6185b44281ec28c9dc73ffffffffffffffffffffffffffffffffffffffff1663d21220a76040518163ffffffff1660e01b8152600401602060405180830381865afa158015610afc573d6000803e3d6000fd5b505050506040513d601f19601f82011682018060405250810190610b209190613d64565b905073c02aaa39b223fe8d0a0e5c4f27ead9083c756cc273ffffffffffffffffffffffffffffffffffffffff168273ffffffffffffffffffffffffffffffffffffffff1614158015610bb2575073c02aaa39b223fe8d0a0e5c4f27ead9083c756cc273ffffffffffffffffffffffffffffffffffffffff168173ffffffffffffffffffffffffffffffffffffffff1614155b15610be9576040517f50e2db5e00000000000000000000000000000000000000000000000000000000815260040160405180910390fd5b73c02aaa39b223fe8d0a0e5c4f27ead9083c756cc273ffffffffffffffffffffffffffffffffffffffff168273ffffffffffffffffffffffffffffffffffffffff1603610cdb5773b4e16d0168e52d35cacd2c6185b44281ec28c9dc73ffffffffffffffffffffffffffffffffffffffff1663022c0d9f846000306001604051602001610c769190613b71565b6040516020818303038152906040526040518563ffffffff1660e01b8152600401610ca49493929190613e5c565b600060405180830381600087803b158015610cbe57600080fd5b505af1158015610cd2573d6000803e3d6000fd5b50505050610d82565b73b4e16d0168e52d35cacd2c6185b44281ec28c9dc73ffffffffffffffffffffffffffffffffffffffff1663022c0d9f600085306001604051602001610d219190613b71565b6040516020818303038152906040526040518563ffffffff1660e01b8152600401610d4f9493929190613ea8565b600060405180830381600087803b158015610d6957600080fd5b505af1158015610d7d573d6000803e3d6000fd5b505050505b505050505b73c02aaa39b223fe8d0a0e5c4f27ead9083c756cc2600060016101000a81548173ffffffffffffffffffffffffffffffffffffffff021916908373ffffffffffffffffffffffffffffffffffffffff16021790555073c02aaa39b223fe8d0a0e5c4f27ead9083c756cc273ffffffffffffffffffffffffffffffffffffffff166370a08231306040518263ffffffff1660e01b8152600401610e299190613acf565b602060405180830381865afa158015610e46573d6000803e3d6000fd5b505050506040513d601f19601f82011682018060405250810190610e6a9190613bdd565b600181905550505050505050565b60008060019054906101000a900473ffffffffffffffffffffffffffffffffffffffff16905090565b73c0aee478e3658e2610c5f7a4a2e1777ce9e4f2ac81565b73be86f647b167567525ccaafcd6f881f1ee55821681565b6000600154905090565b600260009054906101000a900473ffffffffffffffffffffffffffffffffffffffff1681565b735c69bee701ef814a2b6a3edd4b1652cb9cc5aa6f81565b73c02aaa39b223fe8d0a0e5c4f27ead9083c756cc281565b73f2919d1d80aff2940274014bef534f7791906ff281565b60035481565b600073f2919d1d80aff2940274014bef534f7791906ff273ffffffffffffffffffffffffffffffffffffffff166370a08231306040518263ffffffff1660e01b8152600401610f9e9190613acf565b602060405180830381865afa158015610fbb573d6000803e3d6000fd5b505050506040513d601f19601f82011682018060405250810190610fdf9190613bdd565b9050828110610fee5750611278565b600047905082811161103d57478284866040517f2f8cc52f0000000000000000000000000000000000000000000000000000000081526004016110349493929190613ef4565b60405180910390fd5b82816110499190613f39565b90506000611062838661105c9190613f39565b83611787565b905060008103611070578190505b600073f2919d1d80aff2940274014bef534f7791906ff273ffffffffffffffffffffffffffffffffffffffff166370a08231306040518263ffffffff1660e01b81526004016110bf9190613acf565b602060405180830381865afa1580156110dc573d6000803e3d6000fd5b505050506040513d601f19601f820116820180604052508101906111009190613bdd565b905073f2919d1d80aff2940274014bef534f7791906ff273ffffffffffffffffffffffffffffffffffffffff1663bcca665f836040518263ffffffff1660e01b81526004016000604051808303818588803b15801561115e57600080fd5b505af1158015611172573d6000803e3d6000fd5b5050505050600073f2919d1d80aff2940274014bef534f7791906ff273ffffffffffffffffffffffffffffffffffffffff166370a08231306040518263ffffffff1660e01b81526004016111c69190613acf565b602060405180830381865afa1580156111e3573d6000803e3d6000fd5b505050506040513d601f19601f820116820180604052508101906112079190613bdd565b90506000828211611219576000611226565b82826112259190613f39565b5b905087821015611271578381896040517fe57a8fa300000000000000000000000000000000000000000000000000000000815260040161126893929190613f6d565b60405180910390fd5b5050505050505b5050565b6112878585856118e5565b3073ffffffffffffffffffffffffffffffffffffffff168573ffffffffffffffffffffffffffffffffffffffff16636352211e866040518263ffffffff1660e01b81526004016112d79190613b71565b602060405180830381865afa1580156112f4573d6000803e3d6000fd5b505050506040513d601f19601f820116820180604052508101906113189190613d64565b73ffffffffffffffffffffffffffffffffffffffff16146113725784846040517f3649528b000000000000000000000000000000000000000000000000000000008152600401611369929190613c33565b60405180910390fd5b61137e85858484611b5b565b505050505050565b6000479050600081111561140a5773c02aaa39b223fe8d0a0e5c4f27ead9083c756cc273ffffffffffffffffffffffffffffffffffffffff1663d0e30db0826040518263ffffffff1660e01b81526004016000604051808303818588803b1580156113f057600080fd5b505af1158015611404573d6000803e3d6000fd5b50505050505b50565b600060016103e56103e8846114229190613fa4565b61142c9190614015565b6114369190613d1b565b9050919050565b60008073f2919d1d80aff2940274014bef534f7791906ff273ffffffffffffffffffffffffffffffffffffffff1663db8d55f16040518163ffffffff1660e01b8152600401608060405180830381865afa15801561149f573d6000803e3d6000fd5b505050506040513d601f19601f820116820180604052508101906114c39190614046565b909192505080925081935050509091565b600080600080600073be86f647b167567525ccaafcd6f881f1ee55821673ffffffffffffffffffffffffffffffffffffffff1663264a62086040518163ffffffff1660e01b8152600401602060405180830381865afa92505050801561155857506040513d601f19601f820116820180604052508101906115559190613bdd565b60015b6115705760008060008094509450945094505061165c565b80915050600061157e61372c565b61158a60008383611e48565b80925081935050506000600190505b8381116115c6576115ab818484611e48565b809350819450505080806115be906140ad565b915050611599565b50600073ffffffffffffffffffffffffffffffffffffffff16816000015173ffffffffffffffffffffffffffffffffffffffff16148015611605575081155b1561163c576040517ff8d9068300000000000000000000000000000000000000000000000000000000815260040160405180910390fd5b806000015181602001518260400151836060015196509650965096505050505b90919293565b60008073f2919d1d80aff2940274014bef534f7791906ff273ffffffffffffffffffffffffffffffffffffffff166370a08231306040518263ffffffff1660e01b81526004016116b29190613acf565b602060405180830381865afa1580156116cf573d6000803e3d6000fd5b505050506040513d601f19601f820116820180604052508101906116f39190613bdd565b90508281101580156117055750834710155b15611714576001915050611781565b834711611725576000915050611781565b6000818411611735576000611742565b81846117419190613f39565b5b90506000810361175757600192505050611781565b600085476117659190613f39565b905060006117738383611787565b905060008114159450505050505b92915050565b60008083148061179c575064174876e8008211155b156117aa57600090506118df565b6000600164174876e8006117be9190613d1b565b905060006117cb82611f40565b90505b83821080156117dc57508481105b156118365760006002836117f09190613fa4565b9050828111158061180057508481115b1561180d57849250611811565b8092505b61181a83611f40565b91506000820361183057600093505050506118df565b506117ce565b84811015611849576000925050506118df565b6000600164174876e80061185d9190613d1b565b90505b828110156118d8576000600282856118789190613f39565b6118829190614015565b8261188d9190613d1b565b9050600061189a82611f40565b9050600081036118b2576000955050505050506118df565b8781106118c1578194506118d1565b6001826118ce9190613d1b565b92505b5050611860565b8293505050505b92915050565b6000600167ffffffffffffffff811115611902576119016140f5565b5b6040519080825280602002602001820160405280156119305781602001602082028036833780820191505090505b509050838160008151811061194857611947614124565b5b602002602001019073ffffffffffffffffffffffffffffffffffffffff16908173ffffffffffffffffffffffffffffffffffffffff16815250506000600167ffffffffffffffff81111561199f5761199e6140f5565b5b6040519080825280602002602001820160405280156119cd5781602001602082028036833780820191505090505b50905083816000815181106119e5576119e4614124565b5b60200260200101818152505073f2919d1d80aff2940274014bef534f7791906ff273ffffffffffffffffffffffffffffffffffffffff16634ef26f6a848484600067ffffffffffffffff811115611a3f57611a3e6140f5565b5b604051908082528060200260200182016040528015611a6d5781602001602082028036833780820191505090505b50600067ffffffffffffffff811115611a8957611a886140f5565b5b604051908082528060200260200182016040528015611ab75781602001602082028036833780820191505090505b50600067ffffffffffffffff811115611ad357611ad26140f5565b5b604051908082528060200260200182016040528015611b015781602001602082028036833780820191505090505b506040518763ffffffff1660e01b8152600401611b229594939291906142cf565b6000604051808303818588803b158015611b3b57600080fd5b505af1158015611b4f573d6000803e3d6000fd5b50505050505050505050565b60008473ffffffffffffffffffffffffffffffffffffffff1663095ea7b384866040518363ffffffff1660e01b8152600401611b98929190613c33565b600060405180830381600087803b158015611bb257600080fd5b505af1158015611bc6573d6000803e3d6000fd5b505050506000600167ffffffffffffffff811115611be757611be66140f5565b5b604051908082528060200260200182016040528015611c155781602001602082028036833780820191505090505b5090508481600081518110611c2d57611c2c614124565b5b6020026020010181815250506000600167ffffffffffffffff811115611c5657611c556140f5565b5b604051908082528060200260200182016040528015611c845781602001602082028036833780820191505090505b509050600181600081518110611c9d57611c9c614124565b5b60200260200101818152505060008573ffffffffffffffffffffffffffffffffffffffff166370a08231306040518263ffffffff1660e01b8152600401611ce49190613acf565b602060405180830381865afa158015611d01573d6000803e3d6000fd5b505050506040513d601f19601f82011682018060405250810190611d259190613bdd565b90508573ffffffffffffffffffffffffffffffffffffffff16633d5d190c84846040518363ffffffff1660e01b8152600401611d62929190614345565b6020604051808303816000875af1158015611d81573d6000803e3d6000fd5b505050506040513d601f19601f82011682018060405250810190611da59190613bdd565b506000818773ffffffffffffffffffffffffffffffffffffffff166370a08231306040518263ffffffff1660e01b8152600401611de29190613acf565b602060405180830381865afa158015611dff573d6000803e3d6000fd5b505050506040513d601f19601f82011682018060405250810190611e239190613bdd565b611e2d9190613f39565b9050611e3a878783611fd8565b945050505050949350505050565b6000611e5261372c565b600080600080600080611e648b6125b5565b9550955095509550955095508515611e7b57600199505b600073ffffffffffffffffffffffffffffffffffffffff168573ffffffffffffffffffffffffffffffffffffffff1614158015611ebb5750886080015181115b15611f2c576040518060a001604052808673ffffffffffffffffffffffffffffffffffffffff1681526020018581526020018473ffffffffffffffffffffffffffffffffffffffff1681526020018373ffffffffffffffffffffffffffffffffffffffff1681526020018281525098505b898997509750505050505050935093915050565b600073f2919d1d80aff2940274014bef534f7791906ff273ffffffffffffffffffffffffffffffffffffffff1663adb866e8836040518263ffffffff1660e01b8152600401611f8f9190613b71565b602060405180830381865afa925050508015611fc957506040513d601f19601f82011682018060405250810190611fc69190613bdd565b60015b15611fd357809150505b919050565b60008060008473ffffffffffffffffffffffffffffffffffffffff16630902f1ac6040518163ffffffff1660e01b8152600401606060405180830381865afa158015612028573d6000803e3d6000fd5b505050506040513d601f19601f8201168201806040525081019061204c91906143fe565b509150915060008573ffffffffffffffffffffffffffffffffffffffff16630dfe16816040518163ffffffff1660e01b8152600401602060405180830381865afa15801561209e573d6000803e3d6000fd5b505050506040513d601f19601f820116820180604052508101906120c29190613d64565b905060008673ffffffffffffffffffffffffffffffffffffffff1663d21220a76040518163ffffffff1660e01b8152600401602060405180830381865afa158015612111573d6000803e3d6000fd5b505050506040513d601f19601f820116820180604052508101906121359190613d64565b90508773ffffffffffffffffffffffffffffffffffffffff168273ffffffffffffffffffffffffffffffffffffffff161480156121b1575073c02aaa39b223fe8d0a0e5c4f27ead9083c756cc273ffffffffffffffffffffffffffffffffffffffff168173ffffffffffffffffffffffffffffffffffffffff16145b1561236e576121e186856dffffffffffffffffffffffffffff16856dffffffffffffffffffffffffffff166127b1565b94508773ffffffffffffffffffffffffffffffffffffffff1663a9059cbb88886040518363ffffffff1660e01b815260040161221e929190613c33565b6020604051808303816000875af115801561223d573d6000803e3d6000fd5b505050506040513d601f19601f820116820180604052508101906122619190613c88565b6122a6578787876040517fc877679800000000000000000000000000000000000000000000000000000000815260040161229d93929190613cb5565b60405180910390fd5b8673ffffffffffffffffffffffffffffffffffffffff1663022c0d9f60008730600067ffffffffffffffff8111156122e1576122e06140f5565b5b6040519080825280601f01601f1916602001820160405280156123135781602001600182028036833780820191505090505b506040518563ffffffff1660e01b81526004016123339493929190613ea8565b600060405180830381600087803b15801561234d57600080fd5b505af1158015612361573d6000803e3d6000fd5b50505050505050506125ae565b8773ffffffffffffffffffffffffffffffffffffffff168173ffffffffffffffffffffffffffffffffffffffff161480156123e8575073c02aaa39b223fe8d0a0e5c4f27ead9083c756cc273ffffffffffffffffffffffffffffffffffffffff168273ffffffffffffffffffffffffffffffffffffffff16145b156125a55761241886846dffffffffffffffffffffffffffff16866dffffffffffffffffffffffffffff166127b1565b94508773ffffffffffffffffffffffffffffffffffffffff1663a9059cbb88886040518363ffffffff1660e01b8152600401612455929190613c33565b6020604051808303816000875af1158015612474573d6000803e3d6000fd5b505050506040513d601f19601f820116820180604052508101906124989190613c88565b6124dd578787876040517fc87767980000000000000000000000000000000000000000000000000000000081526004016124d493929190613cb5565b60405180910390fd5b8673ffffffffffffffffffffffffffffffffffffffff1663022c0d9f86600030600067ffffffffffffffff811115612518576125176140f5565b5b6040519080825280601f01601f19166020018201604052801561254a5781602001600182028036833780820191505090505b506040518563ffffffff1660e01b815260040161256a9493929190613e5c565b600060405180830381600087803b15801561258457600080fd5b505af1158015612598573d6000803e3d6000fd5b50505050505050506125ae565b60009450505050505b9392505050565b6000806000806000806125c787612832565b9250600073ffffffffffffffffffffffffffffffffffffffff168373ffffffffffffffffffffffffffffffffffffffff1603612617576000806000806000809550955095509550955095506127a8565b612620836128ca565b9450600073ffffffffffffffffffffffffffffffffffffffff168573ffffffffffffffffffffffffffffffffffffffff161480612663575061266185612943565b155b15612682576000806000806000809550955095509550955095506127a8565b60006126a28673f2919d1d80aff2940274014bef534f7791906ff26129a0565b036126c1576000806000806000809550955095509550955095506127a8565b600195506000806126e68773f2919d1d80aff2940274014bef534f7791906ff2612ac1565b915091508161270c576001600080600080600097509750975097509750975050506127a8565b61271585612b1e565b9350600073ffffffffffffffffffffffffffffffffffffffff168473ffffffffffffffffffffffffffffffffffffffff1603612768576001600080600080600097509750975097509750975050506127a8565b61277b8486670de0b6b3a7640000612d47565b9250600083036127a2576001600080600080600097509750975097509750975050506127a8565b80955050505b91939550919395565b6000808414806127c15750600083145b806127cc5750600082145b156127da576000905061282b565b60006103e5856127ea9190613fa4565b9050600083826127fa9190613fa4565b90506000826103e88761280d9190613fa4565b6128179190613d1b565b905080826128259190614015565b93505050505b9392505050565b600073be86f647b167567525ccaafcd6f881f1ee55821673ffffffffffffffffffffffffffffffffffffffff166381a36fb6836040518263ffffffff1660e01b81526004016128819190613b71565b602060405180830381865afa9250505080156128bb57506040513d601f19601f820116820180604052508101906128b89190613d64565b60015b156128c557809150505b919050565b60008173ffffffffffffffffffffffffffffffffffffffff16631ba46cfd6040518163ffffffff1660e01b8152600401602060405180830381865afa92505050801561293457506040513d601f19601f820116820180604052508101906129319190613d64565b60015b1561293e57809150505b919050565b60008073ffffffffffffffffffffffffffffffffffffffff168273ffffffffffffffffffffffffffffffffffffffff1614158015612999575060008273ffffffffffffffffffffffffffffffffffffffff163b14155b9050919050565b60008060008473ffffffffffffffffffffffffffffffffffffffff166370a0823160e01b856040516024016129d59190613acf565b604051602081830303815290604052907bffffffffffffffffffffffffffffffffffffffffffffffffffffffff19166020820180517bffffffffffffffffffffffffffffffffffffffffffffffffffffffff8381831617835250505050604051612a3f919061448d565b600060405180830381855afa9150503d8060008114612a7a576040519150601f19603f3d011682016040523d82523d6000602084013e612a7f565b606091505b5091509150811580612a92575060208151105b15612aa257600092505050612abb565b80806020019051810190612ab69190613bdd565b925050505b92915050565b600080612ad084846000613020565b80925081935050508115612ae75760019150612b17565b612af1848461314d565b80925081935050508115612b085760019150612b17565b612b1284846132b0565b915091505b9250929050565b600080612bce73c0aee478e3658e2610c5f7a4a2e1777ce9e4f2ac73ffffffffffffffffffffffffffffffffffffffff1663e6a439058573c02aaa39b223fe8d0a0e5c4f27ead9083c756cc26040518363ffffffff1660e01b8152600401612b879291906144a4565b602060405180830381865afa158015612ba4573d6000803e3d6000fd5b505050506040513d601f19601f82011682018060405250810190612bc89190613d64565b84613413565b90506000612c7f735c69bee701ef814a2b6a3edd4b1652cb9cc5aa6f73ffffffffffffffffffffffffffffffffffffffff1663e6a439058673c02aaa39b223fe8d0a0e5c4f27ead9083c756cc26040518363ffffffff1660e01b8152600401612c389291906144a4565b602060405180830381865afa158015612c55573d6000803e3d6000fd5b505050506040513d601f19601f82011682018060405250810190612c799190613d64565b85613413565b9050600073ffffffffffffffffffffffffffffffffffffffff168273ffffffffffffffffffffffffffffffffffffffff1603612cbf578092505050612d42565b600073ffffffffffffffffffffffffffffffffffffffff168173ffffffffffffffffffffffffffffffffffffffff1603612cfd578192505050612d42565b6000612d128386670de0b6b3a7640000612d47565b90506000612d298387670de0b6b3a7640000612d47565b905080821015612d395782612d3b565b835b9450505050505b919050565b60008060008573ffffffffffffffffffffffffffffffffffffffff16630902f1ac6040518163ffffffff1660e01b8152600401606060405180830381865afa158015612d97573d6000803e3d6000fd5b505050506040513d601f19601f82011682018060405250810190612dbb91906143fe565b509150915060008673ffffffffffffffffffffffffffffffffffffffff16630dfe16816040518163ffffffff1660e01b8152600401602060405180830381865afa158015612e0d573d6000803e3d6000fd5b505050506040513d601f19601f82011682018060405250810190612e319190613d64565b905060008773ffffffffffffffffffffffffffffffffffffffff1663d21220a76040518163ffffffff1660e01b8152600401602060405180830381865afa158015612e80573d6000803e3d6000fd5b505050506040513d601f19601f82011682018060405250810190612ea49190613d64565b90508673ffffffffffffffffffffffffffffffffffffffff168273ffffffffffffffffffffffffffffffffffffffff16148015612f20575073c02aaa39b223fe8d0a0e5c4f27ead9083c756cc273ffffffffffffffffffffffffffffffffffffffff168173ffffffffffffffffffffffffffffffffffffffff16145b15612f5b57612f5086856dffffffffffffffffffffffffffff16856dffffffffffffffffffffffffffff166127b1565b945050505050613019565b8673ffffffffffffffffffffffffffffffffffffffff168173ffffffffffffffffffffffffffffffffffffffff16148015612fd5575073c02aaa39b223fe8d0a0e5c4f27ead9083c756cc273ffffffffffffffffffffffffffffffffffffffff168273ffffffffffffffffffffffffffffffffffffffff16145b156130105761300586846dffffffffffffffffffffffffffff16866dffffffffffffffffffffffffffff166127b1565b945050505050613019565b60009450505050505b9392505050565b6000806000808673ffffffffffffffffffffffffffffffffffffffff16632f745c5960e01b8787604051602401613058929190613c33565b604051602081830303815290604052907bffffffffffffffffffffffffffffffffffffffffffffffffffffffff19166020820180517bffffffffffffffffffffffffffffffffffffffffffffffffffffffff83818316178352505050506040516130c2919061448d565b600060405180830381855afa9150503d80600081146130fd576040519150601f19603f3d011682016040523d82523d6000602084013e613102565b606091505b5091509150811580613115575060208151105b1561312857600080935093505050613145565b60018180602001905181019061313e9190613bdd565b9350935050505b935093915050565b6000806000808573ffffffffffffffffffffffffffffffffffffffff16638462151c60e01b866040516024016131839190613acf565b604051602081830303815290604052907bffffffffffffffffffffffffffffffffffffffffffffffffffffffff19166020820180517bffffffffffffffffffffffffffffffffffffffffffffffffffffffff83818316178352505050506040516131ed919061448d565b600060405180830381855afa9150503d8060008114613228576040519150601f19603f3d011682016040523d82523d6000602084013e61322d565b606091505b5091509150811580613240575060208151105b15613253576000809350935050506132a9565b60008180602001905181019061326991906145dc565b9050600081510361328357600080945094505050506132a9565b60018160008151811061329957613298614124565b5b6020026020010151945094505050505b9250929050565b6000806000808573ffffffffffffffffffffffffffffffffffffffff1663438b630060e01b866040516024016132e69190613acf565b604051602081830303815290604052907bffffffffffffffffffffffffffffffffffffffffffffffffffffffff19166020820180517bffffffffffffffffffffffffffffffffffffffffffffffffffffffff8381831617835250505050604051613350919061448d565b600060405180830381855afa9150503d806000811461338b576040519150601f19603f3d011682016040523d82523d6000602084013e613390565b606091505b50915091508115806133a3575060208151105b156133b65760008093509350505061340c565b6000818060200190518101906133cc91906145dc565b905060008151036133e6576000809450945050505061340c565b6001816000815181106133fc576133fb614124565b5b6020026020010151945094505050505b9250929050565b60008073ffffffffffffffffffffffffffffffffffffffff168373ffffffffffffffffffffffffffffffffffffffff16036134515760009050613726565b6000806000808673ffffffffffffffffffffffffffffffffffffffff16630dfe16816040518163ffffffff1660e01b8152600401602060405180830381865afa9250505080156134bf57506040513d601f19601f820116820180604052508101906134bc9190613d64565b60015b6134d0576000945050505050613726565b809450508673ffffffffffffffffffffffffffffffffffffffff1663d21220a76040518163ffffffff1660e01b8152600401602060405180830381865afa92505050801561353c57506040513d601f19601f820116820180604052508101906135399190613d64565b60015b61354d576000945050505050613726565b809350508673ffffffffffffffffffffffffffffffffffffffff16630902f1ac6040518163ffffffff1660e01b8152600401606060405180830381865afa9250505080156135b957506040513d601f19601f820116820180604052508101906135b691906143fe565b60015b6135ca576000945050505050613726565b82945081935050505060008673ffffffffffffffffffffffffffffffffffffffff168573ffffffffffffffffffffffffffffffffffffffff1614801561364f575073c02aaa39b223fe8d0a0e5c4f27ead9083c756cc273ffffffffffffffffffffffffffffffffffffffff168473ffffffffffffffffffffffffffffffffffffffff16145b806136d057508673ffffffffffffffffffffffffffffffffffffffff168473ffffffffffffffffffffffffffffffffffffffff161480156136cf575073c02aaa39b223fe8d0a0e5c4f27ead9083c756cc273ffffffffffffffffffffffffffffffffffffffff168573ffffffffffffffffffffffffffffffffffffffff16145b5b90508015806136ef57506000836dffffffffffffffffffffffffffff16145b8061370a57506000826dffffffffffffffffffffffffffff16145b1561371d57600095505050505050613726565b87955050505050505b92915050565b6040518060a00160405280600073ffffffffffffffffffffffffffffffffffffffff16815260200160008152602001600073ffffffffffffffffffffffffffffffffffffffff168152602001600073ffffffffffffffffffffffffffffffffffffffff168152602001600081525090565b6000604051905090565b600080fd5b600080fd5b600073ffffffffffffffffffffffffffffffffffffffff82169050919050565b60006137dc826137b1565b9050919050565b6137ec816137d1565b81146137f757600080fd5b50565b600081359050613809816137e3565b92915050565b6000819050919050565b6138228161380f565b811461382d57600080fd5b50565b60008135905061383f81613819565b92915050565b600080fd5b600080fd5b600080fd5b60008083601f84011261386a57613869613845565b5b8235905067ffffffffffffffff8111156138875761388661384a565b5b6020830191508360018202830111156138a3576138a261384f565b5b9250929050565b6000806000806000608086880312156138c6576138c56137a7565b5b60006138d4888289016137fa565b95505060206138e588828901613830565b94505060406138f688828901613830565b935050606086013567ffffffffffffffff811115613917576139166137ac565b5b61392388828901613854565b92509250509295509295909350565b60008060008060006080868803121561394e5761394d6137a7565b5b600061395c888289016137fa565b955050602061396d888289016137fa565b945050604061397e88828901613830565b935050606086013567ffffffffffffffff81111561399f5761399e6137ac565b5b6139ab88828901613854565b92509250509295509295909350565b60007fffffffff0000000000000000000000000000000000000000000000000000000082169050919050565b6139ef816139ba565b82525050565b6000602082019050613a0a60008301846139e6565b92915050565b6000819050919050565b6000613a35613a30613a2b846137b1565b613a10565b6137b1565b9050919050565b6000613a4782613a1a565b9050919050565b6000613a5982613a3c565b9050919050565b613a6981613a4e565b82525050565b6000602082019050613a846000830184613a60565b92915050565b60008115159050919050565b613a9f81613a8a565b82525050565b6000602082019050613aba6000830184613a96565b92915050565b613ac9816137d1565b82525050565b6000602082019050613ae46000830184613ac0565b92915050565b6000613af582613a3c565b9050919050565b613b0581613aea565b82525050565b6000602082019050613b206000830184613afc565b92915050565b6000613b3182613a3c565b9050919050565b613b4181613b26565b82525050565b6000602082019050613b5c6000830184613b38565b92915050565b613b6b8161380f565b82525050565b6000602082019050613b866000830184613b62565b92915050565b6000613b9782613a3c565b9050919050565b613ba781613b8c565b82525050565b6000602082019050613bc26000830184613b9e565b92915050565b600081519050613bd781613819565b92915050565b600060208284031215613bf357613bf26137a7565b5b6000613c0184828501613bc8565b91505092915050565b6000604082019050613c1f6000830185613b62565b613c2c6020830184613b62565b9392505050565b6000604082019050613c486000830185613ac0565b613c556020830184613b62565b9392505050565b613c6581613a8a565b8114613c7057600080fd5b50565b600081519050613c8281613c5c565b92915050565b600060208284031215613c9e57613c9d6137a7565b5b6000613cac84828501613c73565b91505092915050565b6000606082019050613cca6000830186613ac0565b613cd76020830185613ac0565b613ce46040830184613b62565b949350505050565b7f4e487b7100000000000000000000000000000000000000000000000000000000600052601160045260246000fd5b6000613d268261380f565b9150613d318361380f565b9250828201905080821115613d4957613d48613cec565b5b92915050565b600081519050613d5e816137e3565b92915050565b600060208284031215613d7a57613d796137a7565b5b6000613d8884828501613d4f565b91505092915050565b6000819050919050565b6000613db6613db1613dac84613d91565b613a10565b61380f565b9050919050565b613dc681613d9b565b82525050565b600081519050919050565b600082825260208201905092915050565b60005b83811015613e06578082015181840152602081019050613deb565b60008484015250505050565b6000601f19601f8301169050919050565b6000613e2e82613dcc565b613e388185613dd7565b9350613e48818560208601613de8565b613e5181613e12565b840191505092915050565b6000608082019050613e716000830187613b62565b613e7e6020830186613dbd565b613e8b6040830185613ac0565b8181036060830152613e9d8184613e23565b905095945050505050565b6000608082019050613ebd6000830187613dbd565b613eca6020830186613b62565b613ed76040830185613ac0565b8181036060830152613ee98184613e23565b905095945050505050565b6000608082019050613f096000830187613b62565b613f166020830186613b62565b613f236040830185613b62565b613f306060830184613b62565b95945050505050565b6000613f448261380f565b9150613f4f8361380f565b9250828203905081811115613f6757613f66613cec565b5b92915050565b6000606082019050613f826000830186613b62565b613f8f6020830185613b62565b613f9c6040830184613b62565b949350505050565b6000613faf8261380f565b9150613fba8361380f565b9250828202613fc88161380f565b91508282048414831517613fdf57613fde613cec565b5b5092915050565b7f4e487b7100000000000000000000000000000000000000000000000000000000600052601260045260246000fd5b60006140208261380f565b915061402b8361380f565b92508261403b5761403a613fe6565b5b828204905092915050565b600080600080608085870312156140605761405f6137a7565b5b600061406e87828801613bc8565b945050602061407f87828801613bc8565b935050604061409087828801613bc8565b92505060606140a187828801613bc8565b91505092959194509250565b60006140b88261380f565b91507fffffffffffffffffffffffffffffffffffffffffffffffffffffffffffffffff82036140ea576140e9613cec565b5b600182019050919050565b7f4e487b7100000000000000000000000000000000000000000000000000000000600052604160045260246000fd5b7f4e487b7100000000000000000000000000000000000000000000000000000000600052603260045260246000fd5b600081519050919050565b600082825260208201905092915050565b6000819050602082019050919050565b614188816137d1565b82525050565b600061419a838361417f565b60208301905092915050565b6000602082019050919050565b60006141be82614153565b6141c8818561415e565b93506141d38361416f565b8060005b838110156142045781516141eb888261418e565b97506141f6836141a6565b9250506001810190506141d7565b5085935050505092915050565b600081519050919050565b600082825260208201905092915050565b6000819050602082019050919050565b6142468161380f565b82525050565b6000614258838361423d565b60208301905092915050565b6000602082019050919050565b600061427c82614211565b614286818561421c565b93506142918361422d565b8060005b838110156142c25781516142a9888261424c565b97506142b483614264565b925050600181019050614295565b5085935050505092915050565b600060a08201905081810360008301526142e981886141b3565b905081810360208301526142fd8187614271565b9050818103604083015261431181866141b3565b905081810360608301526143258185614271565b905081810360808301526143398184614271565b90509695505050505050565b6000604082019050818103600083015261435f8185614271565b905081810360208301526143738184614271565b90509392505050565b60006dffffffffffffffffffffffffffff82169050919050565b61439f8161437c565b81146143aa57600080fd5b50565b6000815190506143bc81614396565b92915050565b600063ffffffff82169050919050565b6143db816143c2565b81146143e657600080fd5b50565b6000815190506143f8816143d2565b92915050565b600080600060608486031215614417576144166137a7565b5b6000614425868287016143ad565b9350506020614436868287016143ad565b9250506040614447868287016143e9565b9150509250925092565b600081905092915050565b600061446782613dcc565b6144718185614451565b9350614481818560208601613de8565b80840191505092915050565b6000614499828461445c565b915081905092915050565b60006040820190506144b96000830185613ac0565b6144c66020830184613ac0565b9392505050565b6144d682613e12565b810181811067ffffffffffffffff821117156144f5576144f46140f5565b5b80604052505050565b600061450861379d565b905061451482826144cd565b919050565b600067ffffffffffffffff821115614534576145336140f5565b5b602082029050602081019050919050565b600061455861455384614519565b6144fe565b9050808382526020820190506020840283018581111561457b5761457a61384f565b5b835b818110156145a457806145908882613bc8565b84526020840193505060208101905061457d565b5050509392505050565b600082601f8301126145c3576145c2613845565b5b81516145d3848260208601614545565b91505092915050565b6000602082840312156145f2576145f16137a7565b5b600082015167ffffffffffffffff8111156146105761460f6137ac565b5b61461c848285016145ae565b9150509291505056fea2646970667358221220d65e9303744244cb5f416f886e4bf3eec557550cfe30bbbdc6f95450a2c66e3f64736f6c634300081e0033","linkReferences":{}},"methodIdentifiers":{"FLASH_WETH_PAIR()":"20b987b9","NFTX_FACTORY()":"4f81cd04","SUSHISWAP_FACTORY()":"495c0f9b","TARGET()":"cc1f2afa","UNISWAP_V2_FACTORY()":"99d8fae3","WETH()":"ad5c4648","executeOnOpportunity()":"3c2448ed","executed()":"31a38c89","onERC721Received(address,address,uint256,bytes)":"150b7a02","profitAmount()":"5ff972cc","profitToken()":"49343624","stolenCollection()":"7f73c33a","stolenTokenId()":"e417ab89","uniswapV2Call(address,uint256,uint256,bytes)":"10d1e85c"},"id":0}