{"abi":[{"type":"constructor","inputs":[],"stateMutability":"nonpayable"},{"type":"receive","stateMutability":"payable"},{"type":"function","name":"executeOnOpportunity","inputs":[],"outputs":[],"stateMutability":"nonpayable"},{"type":"function","name":"profitAmount","inputs":[],"outputs":[{"name":"","type":"uint256","internalType":"uint256"}],"stateMutability":"view"},{"type":"function","name":"profitToken","inputs":[],"outputs":[{"name":"","type":"address","internalType":"address"}],"stateMutability":"pure"},{"type":"function","name":"receiveFlashLoan","inputs":[{"name":"","type":"address[]","internalType":"address[]"},{"name":"amounts","type":"uint256[]","internalType":"uint256[]"},{"name":"feeAmounts","type":"uint256[]","internalType":"uint256[]"},{"name":"","type":"bytes","internalType":"bytes"}],"outputs":[],"stateMutability":"nonpayable"}],"bytecode":{"object":"0x60808060405234601557610dd4908161001a8239f35b5f80fdfe608080604052600436101561001c575b50361561001a575f80fd5b005b5f905f3560e01c9081633c2448ed1461044a5750806349343624146104225780635ff972cc146104045763f04f27070361000f57346104015760803660031901126104015760043567ffffffffffffffff81116102ed57366023820112156102ed578060040135906024602061009184610878565b61009e6040519182610842565b848152019260051b820101903682116103c357602401915b8183106103df578360243567ffffffffffffffff81116102ed576100de903690600401610890565b60443567ffffffffffffffff81116103db576100fe903690600401610890565b60643567ffffffffffffffff81116103c357366023820112156103c357806004013567ffffffffffffffff81116103c7576040518592919061014a601f8301601f191660200182610842565b81815236602483850101116103c357816024602094018483013701015273ba12222222228d8ba445958a75a0704d566bf2c833036103925760ff600354161561035d57600182511480610352575b15610319576101cd6101c6836101b96101b36101d4966108ed565b5161093c565b6101c16109a7565b6108ed565b51916108ed565b519061090e565b6101dd8161093c565b5f516020610d7f5f395f51905f523b156102ed57604051630d0e30db60e41b815282908181600481865f516020610d7f5f395f51905f525af180156102f957610304575b50506040519063a9059cbb60e01b825273ba12222222228d8ba445958a75a0704d566bf2c860048301526024820152602081604481855f516020610d7f5f395f51905f525af19081156102f95782916102ba575b501561028657610283610c8f565b80f35b60405162461bcd60e51b815260206004820152600c60248201526b1c995c185e4819985a5b195960a21b6044820152606490fd5b90506020813d6020116102f1575b816102d560209383610842565b810103126102ed575180151581036102ed5782610275565b5080fd5b3d91506102c8565b6040513d84823e3d90fd5b8161030e91610842565b6102ed578183610221565b60405162461bcd60e51b8152602060048201526011602482015270756e65787065637465642061727261797360781b6044820152606490fd5b506001815114610198565b60405162461bcd60e51b815260206004820152600d60248201526c6e6f7420657865637574696e6760981b6044820152606490fd5b60405162461bcd60e51b81526020600482015260096024820152681b9bdd081d985d5b1d60ba1b6044820152606490fd5b8380fd5b634e487b7160e01b85526041600452602485fd5b8280fd5b82356001600160a01b03811681036103ff578152602092830192016100b6565b845b80fd5b50346104015780600319360112610401576020600254604051908152f35b503461040157806003193601126104015760206040515f516020610d7f5f395f51905f528152f35b905034610791575f366003190112610791576003549060ff8260081c1661080d575061ff00198116610100176003556040516370a0823160e01b81523060048201526020816024815f516020610d7f5f395f51905f525afa9081156107d0575f916107db575b505f55476001556040516370a0823160e01b815230600482015247906020816024815f516020610d7f5f395f51905f525afa9081156107d0575f91610795575b50610505906802c3c465ca58ec00009261090e565b106105db5750476802c3c465ca58ec00008110610544575b506105266109a7565b61052e610c8f565b610536610c8f565b61053e610cde565b60025580f35b6802c3c465ca58ec0000036802c3c465ca58ec000081116105c75781905f516020610d7f5f395f51905f523b156105c45760405190632e1a7d4d60e01b825260048201528181602481835f516020610d7f5f395f51905f525af180156102f9576105af575b5061051d565b816105b991610842565b61040157805f6105a9565b50fd5b634e487b7160e01b82526011600452602482fd5b61ffff19166101011760035560408051906105f68183610842565b6001825260208201601f198201803683375f516020610d7f5f395f51905f5261061e856108ed565b52825161062b8482610842565b6001815260208101913683376802c3c465ca58ec000061064a826108ed565b5260209284519161065b8584610842565b5f835273ba12222222228d8ba445958a75a0704d566bf2c83b15610791578551632e1c224f60e11b8152306004820152608060248201529651608488018190528794939260a486019287929091905f5b81811061076f5750505085830360031901604487015251808352910192905f5b8181106107585750505083915f9484926003198484030160648501528051918291828552018584015e8181018401869052601f01601f1916010301818373ba12222222228d8ba445958a75a0704d566bf2c85af190811561074f575061073c575b5060ff196003541660035561052e565b61074891505f90610842565b5f5f61072c565b513d5f823e3d90fd5b8251855288955093860193918601916001016106cb565b82516001600160a01b031686528b9850948401948994909201916001016106ab565b5f80fd5b90506020813d6020116107c8575b816107b060209383610842565b8101031261079157516802c3c465ca58ec00006104f0565b3d91506107a3565b6040513d5f823e3d90fd5b90506020813d602011610805575b816107f660209383610842565b8101031261079157515f6104b0565b3d91506107e9565b62461bcd60e51b815260206004820152601060248201526f185b1c9958591e48195e1958dd5d195960821b6044820152606490fd5b90601f8019910116810190811067ffffffffffffffff82111761086457604052565b634e487b7160e01b5f52604160045260245ffd5b67ffffffffffffffff81116108645760051b60200190565b9080601f830112156107915781356108a781610878565b926108b56040519485610842565b81845260208085019260051b82010192831161079157602001905b8282106108dd5750505090565b81358152602091820191016108d0565b8051156108fa5760200190565b634e487b7160e01b5f52603260045260245ffd5b9190820180921161091b57565b634e487b7160e01b5f52601160045260245ffd5b9190820391821161091b57565b47818110610948575050565b6109519161092f565b5f516020610d7f5f395f51905f523b156107915760405190632e1a7d4d60e01b825260048201525f81602481835f516020610d7f5f395f51905f525af180156107d05761099b5750565b5f6109a591610842565b565b734822d9172e5b76b9db37b75f5552f9988f98a8883b1561079157604051631e573fb760e31b81525f90738125afd067094cd573255f82795339b9fe2a40ab60048201526802b5e3af16b188000060248201525f816044816802b5e3af16b1880000734822d9172e5b76b9db37b75f5552f9988f98a8885af180156107d057610c7c575b50734822d9172e5b76b9db37b75f5552f9988f98a8883b1561040157604051634b8a352960e01b8152738125afd067094cd573255f82795339b9fe2a40ab60048201526802242c30b853ee00006024820152818160448183734822d9172e5b76b9db37b75f5552f9988f98a8885af180156102f957908291610c67575b505060405163118e31b760e01b8152306004820152738125afd067094cd573255f82795339b9fe2a40ab6024820152602081604481734822d9172e5b76b9db37b75f5552f9988f98a8885afa9081156102f9578291610c35575b50734822d9172e5b76b9db37b75f5552f9988f98a8883b156102ed57816084916040519283809263e61604cf60e01b8252306004830152738125afd067094cd573255f82795339b9fe2a40ab6024830152738125afd067094cd573255f82795339b9fe2a40ab6044830152806064830152734822d9172e5b76b9db37b75f5552f9988f98a8885af180156102f957908291610c20575b5050734822d9172e5b76b9db37b75f5552f9988f98a8883b156104015760405163f3fef3a360e01b8152738125afd067094cd573255f82795339b9fe2a40ab60048201525f196024820152818160448183734822d9172e5b76b9db37b75f5552f9988f98a8885af180156102f957610c0e575050565b610c19828092610842565b6104015750565b81610c2a91610842565b61040157805f610b98565b90506020813d602011610c5f575b81610c5060209383610842565b8101031261079157515f610b02565b3d9150610c43565b81610c7191610842565b61040157805f610aa8565b610c8891505f90610842565b5f5f610a2b565b4780610c985750565b5f516020610d7f5f395f51905f523b15610791575f60049160405192838092630d0e30db60e41b82525f516020610d7f5f395f51905f525af180156107d05761099b5750565b6040516370a0823160e01b8152306004820152476020826024815f516020610d7f5f395f51905f525afa9081156107d0575f91610d48575b610d20925061090e565b610d2e6001545f549061090e565b80821115610d4257610d3f9161092f565b90565b50505f90565b90506020823d602011610d76575b81610d6360209383610842565b8101031261079157610d20915190610d16565b3d9150610d5656fe000000000000000000000000c02aaa39b223fe8d0a0e5c4f27ead9083c756cc2a2646970667358221220fa89579c9a4555fb75419ecc8de8f8c2bd769179e86e97c86a3e958ff41c1ba464736f6c634300081e0033","linkReferences":{}},"methodIdentifiers":{"executeOnOpportunity()":"3c2448ed","profitAmount()":"5ff972cc","profitToken()":"49343624","receiveFlashLoan(address[],uint256[],uint256[],bytes)":"f04f2707"},"id":0}