{"abi":[{"type":"constructor","inputs":[],"stateMutability":"nonpayable"},{"type":"receive","stateMutability":"payable"},{"type":"function","name":"NimbusCall","inputs":[{"name":"sender","type":"address","internalType":"address"},{"name":"","type":"uint256","internalType":"uint256"},{"name":"","type":"uint256","internalType":"uint256"},{"name":"data","type":"bytes","internalType":"bytes"}],"outputs":[],"stateMutability":"nonpayable"},{"type":"function","name":"TARGET","inputs":[],"outputs":[{"name":"","type":"address","internalType":"address"}],"stateMutability":"view"},{"type":"function","name":"attempted","inputs":[],"outputs":[{"name":"","type":"bool","internalType":"bool"}],"stateMutability":"view"},{"type":"function","name":"executeOnOpportunity","inputs":[],"outputs":[],"stateMutability":"nonpayable"},{"type":"function","name":"hypothesisValidated","inputs":[],"outputs":[{"name":"","type":"bool","internalType":"bool"}],"stateMutability":"view"},{"type":"function","name":"pathUsed","inputs":[],"outputs":[{"name":"","type":"string","internalType":"string"}],"stateMutability":"view"},{"type":"function","name":"profitAmount","inputs":[],"outputs":[{"name":"","type":"uint256","internalType":"uint256"}],"stateMutability":"view"},{"type":"function","name":"profitToken","inputs":[],"outputs":[{"name":"","type":"address","internalType":"address"}],"stateMutability":"view"}],"bytecode":{"object":"0x608060405234801561000f575f5ffd5b5061001e61006260201b60201c565b60025f6101000a81548173ffffffffffffffffffffffffffffffffffffffff021916908373ffffffffffffffffffffffffffffffffffffffff16021790555061017c565b5f73a0ff0e694275023f4986dc3ca12a6eb5d6056c6273ffffffffffffffffffffffffffffffffffffffff16630dfe16816040518163ffffffff1660e01b8152600401602060405180830381865afa9250505080156100df57506040513d601f19601f820116820180604052508101906100dc9190610151565b60015b6100eb575f90506100f0565b809150505b90565b5f5ffd5b5f73ffffffffffffffffffffffffffffffffffffffff82169050919050565b5f610120826100f7565b9050919050565b61013081610116565b811461013a575f5ffd5b50565b5f8151905061014b81610127565b92915050565b5f60208284031215610166576101656100f3565b5b5f6101738482850161013d565b91505092915050565b612726806101895f395ff3fe60806040526004361061007e575f3560e01c80637283898d1161004d5780637283898d1461011d578063806693a314610147578063917f51b41461016f578063cc1f2afa1461019957610085565b80633c2448ed14610089578063463defd11461009f57806349343624146100c95780635ff972cc146100f357610085565b3661008557005b5f5ffd5b348015610094575f5ffd5b5061009d6101c3565b005b3480156100aa575f5ffd5b506100b3610766565b6040516100c09190611742565b60405180910390f35b3480156100d4575f5ffd5b506100dd610778565b6040516100ea919061179a565b60405180910390f35b3480156100fe575f5ffd5b506101076107e3565b60405161011491906117cb565b60405180910390f35b348015610128575f5ffd5b506101316107ec565b60405161013e9190611854565b60405180910390f35b348015610152575f5ffd5b5061016d6004803603810190610168919061193a565b610878565b005b34801561017a575f5ffd5b506101836109b5565b6040516101909190611742565b60405180910390f35b3480156101a4575f5ffd5b506101ad6109c6565b6040516101ba919061179a565b60405180910390f35b5f5f9054906101000a900460ff1615610211576040517f08c379a000000000000000000000000000000000000000000000000000000000815260040161020890611a08565b60405180910390fd5b60015f5f6101000a81548160ff0219169083151502179055505f73a0ff0e694275023f4986dc3ca12a6eb5d6056c6290505f8173ffffffffffffffffffffffffffffffffffffffff16630dfe16816040518163ffffffff1660e01b8152600401602060405180830381865afa15801561028c573d5f5f3e3d5ffd5b505050506040513d601f19601f820116820180604052508101906102b09190611a3a565b90505f8273ffffffffffffffffffffffffffffffffffffffff1663d21220a76040518163ffffffff1660e01b8152600401602060405180830381865afa1580156102fc573d5f5f3e3d5ffd5b505050506040513d601f19601f820116820180604052508101906103209190611a3a565b90505f5f8473ffffffffffffffffffffffffffffffffffffffff16630902f1ac6040518163ffffffff1660e01b8152600401606060405180830381865afa15801561036d573d5f5f3e3d5ffd5b505050506040513d601f19601f820116820180604052508101906103919190611ae1565b50915091506001826dffffffffffffffffffffffffffff161115806103c757506001816dffffffffffffffffffffffffffff1611155b1561042f576040518060600160405280602f815260200161258c602f91396040516020016103f59190611bdb565b604051602081830303815290604052600190816104129190611e26565b5061041d84846109de565b610425610ba0565b5050505050610764565b5f61043a8530610c90565b90505f6104478530610c90565b90505f61045685858989610d11565b905080801561046d57508161046b8730610c90565b115b156105085760015f60016101000a81548160ff0219169083151502179055506040518060600160405280602f815260200161258c602f9139604051806080016040528060608152602001612691606091396040518060c00160405280609f81526020016125f2609f91396040516020016104e993929190611f1b565b604051602081830303815290604052600190816105069190611e26565b505b8773ffffffffffffffffffffffffffffffffffffffff16630902f1ac6040518163ffffffff1660e01b8152600401606060405180830381865afa158015610551573d5f5f3e3d5ffd5b505050506040513d601f19601f820116820180604052508101906105759190611ae1565b5080955081965050505f5f90506001866dffffffffffffffffffffffffffff161180156105b257506001856dffffffffffffffffffffffffffff16115b1561070c576105c386868a8a610e52565b90508080156105da5750836105d88930610c90565b115b1561070b5760015f60016101000a81548160ff0219169083151502179055505f6001805461060790611c56565b90500361068e576040518060600160405280602f815260200161258c602f9139604051806080016040528060608152602001612691606091396040518060c00160405280609f81526020016125f2609f913960405160200161066b93929190611f1b565b604051602081830303815290604052600190816106889190611e26565b5061070a565b6040518060600160405280602f815260200161258c602f9139604051806080016040528060608152602001612691606091396040518060c00160405280609f81526020016125f2609f91396040516020016106eb93929190611fd9565b604051602081830303815290604052600190816107089190611e26565b505b5b5b5f60019054906101000a900460ff16610748576040518060600160405280603781526020016125bb60379139600190816107469190611e26565b505b61075288886109de565b61075a610ba0565b5050505050505050505b565b5f60019054906101000a900460ff1681565b5f5f60025f9054906101000a900473ffffffffffffffffffffffffffffffffffffffff1690505f73ffffffffffffffffffffffffffffffffffffffff168173ffffffffffffffffffffffffffffffffffffffff16036107dc576107d9610f93565b90505b8091505090565b5f600354905090565b600180546107f990611c56565b80601f016020809104026020016040519081016040528092919081815260200182805461082590611c56565b80156108705780601f1061084757610100808354040283529160200191610870565b820191905f5260205f20905b81548152906001019060200180831161085357829003601f168201915b505050505081565b73a0ff0e694275023f4986dc3ca12a6eb5d6056c6273ffffffffffffffffffffffffffffffffffffffff163373ffffffffffffffffffffffffffffffffffffffff16146108fa576040517f08c379a00000000000000000000000000000000000000000000000000000000081526004016108f19061206d565b60405180910390fd5b3073ffffffffffffffffffffffffffffffffffffffff168573ffffffffffffffffffffffffffffffffffffffff1614610968576040517f08c379a000000000000000000000000000000000000000000000000000000000815260040161095f906120d5565b60405180910390fd5b5f8282810190610978919061218f565b90505f816020015111156109ad576109ac815f015173a0ff0e694275023f4986dc3ca12a6eb5d6056c628360200151611024565b5b505050505050565b5f5f9054906101000a900460ff1681565b73a0ff0e694275023f4986dc3ca12a6eb5d6056c6281565b5f73ffffffffffffffffffffffffffffffffffffffff1660025f9054906101000a900473ffffffffffffffffffffffffffffffffffffffff1673ffffffffffffffffffffffffffffffffffffffff1603610b9c575f610a3d8330610c90565b90505f610a4a8330610c90565b9050610a5584611173565b8015610a6057505f82115b15610aac578360025f6101000a81548173ffffffffffffffffffffffffffffffffffffffff021916908373ffffffffffffffffffffffffffffffffffffffff1602179055505050610b9c565b610ab583611173565b8015610ac057505f81115b15610b0c578260025f6101000a81548173ffffffffffffffffffffffffffffffffffffffff021916908373ffffffffffffffffffffffffffffffffffffffff1602179055505050610b9c565b808210610b58578360025f6101000a81548173ffffffffffffffffffffffffffffffffffffffff021916908373ffffffffffffffffffffffffffffffffffffffff160217905550610b99565b8260025f6101000a81548173ffffffffffffffffffffffffffffffffffffffff021916908373ffffffffffffffffffffffffffffffffffffffff1602179055505b50505b5050565b5f60025f9054906101000a900473ffffffffffffffffffffffffffffffffffffffff1690505f73ffffffffffffffffffffffffffffffffffffffff168173ffffffffffffffffffffffffffffffffffffffff1603610c4357610c00610f93565b90508060025f6101000a81548173ffffffffffffffffffffffffffffffffffffffff021916908373ffffffffffffffffffffffffffffffffffffffff1602179055505b5f73ffffffffffffffffffffffffffffffffffffffff168173ffffffffffffffffffffffffffffffffffffffff1614610c8557610c808130610c90565b610c87565b5f5b60038190555050565b5f8273ffffffffffffffffffffffffffffffffffffffff166370a08231836040518263ffffffff1660e01b8152600401610cca919061179a565b602060405180830381865afa158015610ce5573d5f5f3e3d5ffd5b505050506040513d601f19601f82011682018060405250810190610d0991906121ce565b905092915050565b5f5f610d2d84876dffffffffffffffffffffffffffff166112e6565b90505f5f821490505f81610d415782610d5b565b610d5a886dffffffffffffffffffffffffffff16611360565b5b90505f811480610d7b5750876dffffffffffffffffffffffffffff168110155b15610d8b575f9350505050610e4a565b5f82610dc157610dbc896dffffffffffffffffffffffffffff16896dffffffffffffffffffffffffffff16846113b2565b610ded565b610dec896dffffffffffffffffffffffffffff16896dffffffffffffffffffffffffffff1684611459565b5b90505f8103610e02575f945050505050610e4a565b610e4383610e10575f610e12565b825b8260405180604001604052808b73ffffffffffffffffffffffffffffffffffffffff168152602001868152506114ff565b9450505050505b949350505050565b5f5f610e6e83866dffffffffffffffffffffffffffff166112e6565b90505f5f821490505f81610e825782610e9c565b610e9b876dffffffffffffffffffffffffffff16611360565b5b90505f811480610ebc5750866dffffffffffffffffffffffffffff168110155b15610ecc575f9350505050610f8b565b5f82610f0257610efd886dffffffffffffffffffffffffffff168a6dffffffffffffffffffffffffffff16846113b2565b610f2e565b610f2d886dffffffffffffffffffffffffffff168a6dffffffffffffffffffffffffffff1684611459565b5b90505f8103610f43575f945050505050610f8b565b610f848184610f52575f610f54565b835b60405180604001604052808a73ffffffffffffffffffffffffffffffffffffffff168152602001868152506114ff565b9450505050505b949350505050565b5f73a0ff0e694275023f4986dc3ca12a6eb5d6056c6273ffffffffffffffffffffffffffffffffffffffff16630dfe16816040518163ffffffff1660e01b8152600401602060405180830381865afa92505050801561101057506040513d601f19601f8201168201806040525081019061100d9190611a3a565b60015b61101c575f9050611021565b809150505b90565b5f5f8473ffffffffffffffffffffffffffffffffffffffff1663a9059cbb60e01b85856040516024016110589291906121f9565b604051602081830303815290604052907bffffffffffffffffffffffffffffffffffffffffffffffffffffffff19166020820180517bffffffffffffffffffffffffffffffffffffffffffffffffffffffff83818316178352505050506040516110c29190612264565b5f604051808303815f865af19150503d805f81146110fb576040519150601f19603f3d011682016040523d82523d5f602084013e611100565b606091505b509150915081801561112d57505f8151148061112c57508080602001905181019061112b91906122a4565b5b5b61116c576040517f08c379a000000000000000000000000000000000000000000000000000000000815260040161116390612319565b60405180910390fd5b5050505050565b5f73c02aaa39b223fe8d0a0e5c4f27ead9083c756cc273ffffffffffffffffffffffffffffffffffffffff168273ffffffffffffffffffffffffffffffffffffffff161480611201575073a0b86991c6218b36c1d19d4a2e9eb0ce3606eb4873ffffffffffffffffffffffffffffffffffffffff168273ffffffffffffffffffffffffffffffffffffffff16145b8061124b575073dac17f958d2ee523a2206206994597c13d831ec773ffffffffffffffffffffffffffffffffffffffff168273ffffffffffffffffffffffffffffffffffffffff16145b806112955750736b175474e89094c44da98b954eedeac495271d0f73ffffffffffffffffffffffffffffffffffffffff168273ffffffffffffffffffffffffffffffffffffffff16145b806112df5750732260fac5e5542a773aa44fbcfedf7c193bc2c59973ffffffffffffffffffffffffffffffffffffffff168273ffffffffffffffffffffffffffffffffffffffff16145b9050919050565b5f5f6112f28430610c90565b90505f811480611303575060018311155b15611311575f91505061135a565b5f64e8d4a51000846113239190612391565b90505f810361133157600190505b8181111561133d578190505b8381106113545760018461135191906123c1565b90505b80925050505b92915050565b5f60018211611371575f90506113ad565b5f64e8d4a51000836113839190612391565b90505f810361139157600190505b8281106113a8576001836113a591906123c1565b90505b809150505b919050565b5f5f612701836113c291906123f4565b612710866113d091906123f4565b6113da9190612435565b90505f81036113ec575f915050611452565b5f61140e606486886113fe91906123f4565b61140891906123f4565b836116ed565b9050848110611421575f92505050611452565b5f818661142e91906123c1565b90506001811161143e575f61144c565b60018161144b91906123c1565b5b93505050505b9392505050565b5f5f600f8361146891906123f4565b6127108661147691906123f4565b61148091906123c1565b90505f8103611492575f9150506114f8565b5f6114b4606486886114a491906123f4565b6114ae91906123f4565b836116ed565b90508481106114c7575f925050506114f8565b5f81866114d491906123c1565b9050600181116114e4575f6114f2565b6001816114f191906123c1565b5b93505050505b9392505050565b5f5f73a0ff0e694275023f4986dc3ca12a6eb5d6056c6290505f5f86116115265784611528565b855b90505f6040518060c0016040528083815260200161271061270f8561154d91906123f4565b6115579190612391565b81526020016103e86103e78561156d91906123f4565b6115779190612391565b81526020016103e86103e38561158d91906123f4565b6115979190612391565b815260200160646063856115ab91906123f4565b6115b59190612391565b81526020016064605f856115c991906123f4565b6115d39190612391565b81525090505f5f90505b60068110156116de575f8282600681106115fa576115f9612468565b5b602002015190505f810361160e57506116d1565b5f5f8a1161161c578961161e565b815b90505f5f8a1161162e5789611630565b825b90508673ffffffffffffffffffffffffffffffffffffffff1663022c0d9f8383308d60405160200161166291906124e0565b6040516020818303038152906040526040518563ffffffff1660e01b81526004016116909493929190612541565b5f604051808303815f87803b1580156116a7575f5ffd5b505af19250505080156116b8575060015b156116cd5760019750505050505050506116e6565b5050505b80806001019150506115dd565b505f93505050505b9392505050565b5f5f831461171e5760018260018561170591906123c1565b61170f9190612391565b6117199190612435565b611720565b5f5b905092915050565b5f8115159050919050565b61173c81611728565b82525050565b5f6020820190506117555f830184611733565b92915050565b5f73ffffffffffffffffffffffffffffffffffffffff82169050919050565b5f6117848261175b565b9050919050565b6117948161177a565b82525050565b5f6020820190506117ad5f83018461178b565b92915050565b5f819050919050565b6117c5816117b3565b82525050565b5f6020820190506117de5f8301846117bc565b92915050565b5f81519050919050565b5f82825260208201905092915050565b8281835e5f83830152505050565b5f601f19601f8301169050919050565b5f611826826117e4565b61183081856117ee565b93506118408185602086016117fe565b6118498161180c565b840191505092915050565b5f6020820190508181035f83015261186c818461181c565b905092915050565b5f604051905090565b5f5ffd5b5f5ffd5b61188e8161177a565b8114611898575f5ffd5b50565b5f813590506118a981611885565b92915050565b6118b8816117b3565b81146118c2575f5ffd5b50565b5f813590506118d3816118af565b92915050565b5f5ffd5b5f5ffd5b5f5ffd5b5f5f83601f8401126118fa576118f96118d9565b5b8235905067ffffffffffffffff811115611917576119166118dd565b5b602083019150836001820283011115611933576119326118e1565b5b9250929050565b5f5f5f5f5f608086880312156119535761195261187d565b5b5f6119608882890161189b565b9550506020611971888289016118c5565b9450506040611982888289016118c5565b935050606086013567ffffffffffffffff8111156119a3576119a2611881565b5b6119af888289016118e5565b92509250509295509295909350565b7f616c72656164792d617474656d707465640000000000000000000000000000005f82015250565b5f6119f26011836117ee565b91506119fd826119be565b602082019050919050565b5f6020820190508181035f830152611a1f816119e6565b9050919050565b5f81519050611a3481611885565b92915050565b5f60208284031215611a4f57611a4e61187d565b5b5f611a5c84828501611a26565b91505092915050565b5f6dffffffffffffffffffffffffffff82169050919050565b611a8781611a65565b8114611a91575f5ffd5b50565b5f81519050611aa281611a7e565b92915050565b5f63ffffffff82169050919050565b611ac081611aa8565b8114611aca575f5ffd5b50565b5f81519050611adb81611ab7565b92915050565b5f5f5f60608486031215611af857611af761187d565b5b5f611b0586828701611a94565b9350506020611b1686828701611a94565b9250506040611b2786828701611acd565b9150509250925092565b5f81905092915050565b5f611b45826117e4565b611b4f8185611b31565b9350611b5f8185602086016117fe565b80840191505092915050565b7f20696e6665617369626c65206f6e207468697320666f726b3a20696e737566665f8201527f696369656e742072657365727665732e00000000000000000000000000000000602082015250565b5f611bc5603083611b31565b9150611bd082611b6b565b603082019050919050565b5f611be68284611b3b565b9150611bf182611bb9565b915081905092915050565b7f4e487b71000000000000000000000000000000000000000000000000000000005f52604160045260245ffd5b7f4e487b71000000000000000000000000000000000000000000000000000000005f52602260045260245ffd5b5f6002820490506001821680611c6d57607f821691505b602082108103611c8057611c7f611c29565b5b50919050565b5f819050815f5260205f209050919050565b5f6020601f8301049050919050565b5f82821b905092915050565b5f60088302611ce27fffffffffffffffffffffffffffffffffffffffffffffffffffffffffffffffff82611ca7565b611cec8683611ca7565b95508019841693508086168417925050509392505050565b5f819050919050565b5f611d27611d22611d1d846117b3565b611d04565b6117b3565b9050919050565b5f819050919050565b611d4083611d0d565b611d54611d4c82611d2e565b848454611cb3565b825550505050565b5f5f905090565b611d6b611d5c565b611d76818484611d37565b505050565b5b81811015611d9957611d8e5f82611d63565b600181019050611d7c565b5050565b601f821115611dde57611daf81611c86565b611db884611c98565b81016020851015611dc7578190505b611ddb611dd385611c98565b830182611d7b565b50505b505050565b5f82821c905092915050565b5f611dfe5f1984600802611de3565b1980831691505092915050565b5f611e168383611def565b9150826002028217905092915050565b611e2f826117e4565b67ffffffffffffffff811115611e4857611e47611bfc565b5b611e528254611c56565b611e5d828285611d9d565b5f60209050601f831160018114611e8e575f8415611e7c578287015190505b611e868582611e0b565b865550611eed565b601f198416611e9c86611c86565b5f5b82811015611ec357848901518255600182019150602085019450602081019050611e9e565b86831015611ee05784890151611edc601f891682611def565b8355505b6001600288020188555050505b505050505050565b7f2000000000000000000000000000000000000000000000000000000000000000815250565b5f611f268286611b3b565b9150611f3182611ef5565b600182019150611f418285611b3b565b9150611f4c82611ef5565b600182019150611f5c8284611b3b565b9150819050949350505050565b7f20526570656174656420696e20746865206f70706f73697465206469726563745f8201527f696f6e2e20000000000000000000000000000000000000000000000000000000602082015250565b5f611fc3602583611b31565b9150611fce82611f69565b602582019050919050565b5f611fe48286611b3b565b9150611fef82611ef5565b600182019150611fff8285611b3b565b915061200a82611fb7565b91506120168284611b3b565b9150819050949350505050565b7f756e617574686f72697a65642d706169720000000000000000000000000000005f82015250565b5f6120576011836117ee565b915061206282612023565b602082019050919050565b5f6020820190508181035f8301526120848161204b565b9050919050565b7f756e617574686f72697a65642d73656e646572000000000000000000000000005f82015250565b5f6120bf6013836117ee565b91506120ca8261208b565b602082019050919050565b5f6020820190508181035f8301526120ec816120b3565b9050919050565b5f5ffd5b6121008261180c565b810181811067ffffffffffffffff8211171561211f5761211e611bfc565b5b80604052505050565b5f612131611874565b905061213d82826120f7565b919050565b5f60408284031215612157576121566120f3565b5b6121616040612128565b90505f6121708482850161189b565b5f830152506020612183848285016118c5565b60208301525092915050565b5f604082840312156121a4576121a361187d565b5b5f6121b184828501612142565b91505092915050565b5f815190506121c8816118af565b92915050565b5f602082840312156121e3576121e261187d565b5b5f6121f0848285016121ba565b91505092915050565b5f60408201905061220c5f83018561178b565b61221960208301846117bc565b9392505050565b5f81519050919050565b5f81905092915050565b5f61223e82612220565b612248818561222a565b93506122588185602086016117fe565b80840191505092915050565b5f61226f8284612234565b915081905092915050565b61228381611728565b811461228d575f5ffd5b50565b5f8151905061229e8161227a565b92915050565b5f602082840312156122b9576122b861187d565b5b5f6122c684828501612290565b91505092915050565b7f7472616e736665722d6661696c656400000000000000000000000000000000005f82015250565b5f612303600f836117ee565b915061230e826122cf565b602082019050919050565b5f6020820190508181035f830152612330816122f7565b9050919050565b7f4e487b71000000000000000000000000000000000000000000000000000000005f52601260045260245ffd5b7f4e487b71000000000000000000000000000000000000000000000000000000005f52601160045260245ffd5b5f61239b826117b3565b91506123a6836117b3565b9250826123b6576123b5612337565b5b828204905092915050565b5f6123cb826117b3565b91506123d6836117b3565b92508282039050818111156123ee576123ed612364565b5b92915050565b5f6123fe826117b3565b9150612409836117b3565b9250828202612417816117b3565b9150828204841483151761242e5761242d612364565b5b5092915050565b5f61243f826117b3565b915061244a836117b3565b925082820190508082111561246257612461612364565b5b92915050565b7f4e487b71000000000000000000000000000000000000000000000000000000005f52603260045260245ffd5b61249e8161177a565b82525050565b6124ad816117b3565b82525050565b604082015f8201516124c75f850182612495565b5060208201516124da60208501826124a4565b50505050565b5f6040820190506124f35f8301846124b3565b92915050565b5f82825260208201905092915050565b5f61251382612220565b61251d81856124f9565b935061252d8185602086016117fe565b6125368161180c565b840191505092915050565b5f6080820190506125545f8301876117bc565b61256160208301866117bc565b61256e604083018561178b565b81810360608301526125808184612509565b90509594505050505056fe53656564206f7220746172676574206120706f6f6c2077697468206d65616e696e6766756c2072657365727665732e726566757465642d6f6e2d666f726b3a20626f746820726573657276652d647261696e20646972656374696f6e7320726576657274656442656361757365207468652072696768742d68616e642073696465206f662074686520696e76617269616e7420697320756e6465722d7363616c656420627920313030782c20746865207472616e73616374696f6e20706173736573206576656e2074686f75676820746865207265616c20636f6e7374616e742d70726f6475637420636f6e646974696f6e206973206261646c792076696f6c617465642e43616c6c207377617028292077697468206120736d616c6c20696e707574206f6e206f6e65207369646520616e64207265717565737420616c6d6f737420616c6c206c69717569646974792066726f6d20746865206f7468657220736964652ea26469706673582212208119c4ccc6d071c38782aa7b64510c8f350aec28226c0165cf0c312abf6af18464736f6c634300081e0033","linkReferences":{}},"methodIdentifiers":{"NimbusCall(address,uint256,uint256,bytes)":"806693a3","TARGET()":"cc1f2afa","attempted()":"917f51b4","executeOnOpportunity()":"3c2448ed","hypothesisValidated()":"463defd1","pathUsed()":"7283898d","profitAmount()":"5ff972cc","profitToken()":"49343624"},"id":0}