{"abi":[{"type":"constructor","inputs":[{"name":"_owner","type":"address","internalType":"address"}],"stateMutability":"nonpayable"},{"type":"function","name":"cook","inputs":[{"name":"flpToken","type":"address","internalType":"address"},{"name":"strategy","type":"address","internalType":"address"},{"name":"bill","type":"address","internalType":"address"},{"name":"amountLP","type":"uint256","internalType":"uint256"},{"name":"path0","type":"address[]","internalType":"address[]"},{"name":"path1","type":"address[]","internalType":"address[]"},{"name":"beneficiary","type":"address","internalType":"address"},{"name":"stakeDuration","type":"uint256","internalType":"uint256"}],"outputs":[{"name":"fTokensToUser","type":"uint256","internalType":"uint256"}],"stateMutability":"nonpayable"},{"type":"function","name":"owner","inputs":[],"outputs":[{"name":"","type":"address","internalType":"address"}],"stateMutability":"view"},{"type":"function","name":"sweep","inputs":[{"name":"token","type":"address","internalType":"address"},{"name":"to","type":"address","internalType":"address"}],"outputs":[],"stateMutability":"nonpayable"},{"type":"function","name":"withdrawBill","inputs":[{"name":"bill","type":"address","internalType":"address"},{"name":"amount","type":"uint256","internalType":"uint256"},{"name":"beneficiary","type":"address","internalType":"address"}],"outputs":[],"stateMutability":"nonpayable"}],"bytecode":{"object":"0x60a03461007e57601f610a9338819003918201601f19168301916001600160401b038311848410176100825780849260209460405283398101031261007e57516001600160a01b038116810361007e576080526040516109fc9081610097823960805181818160730152818161013f0152818161028101526106890152f35b5f80fd5b634e487b7160e01b5f52604160045260245ffdfe6080806040526004361015610012575f80fd5b5f905f3560e01c9081638da5cb5b14610677575080639b834180146101f3578063b8dc491b146101165763f7bd5a431461004a575f80fd5b3461010457606036600319011261010457806100646106b8565b61006c6106e4565b906100a1337f00000000000000000000000000000000000000000000000000000000000000006001600160a01b03161461072b565b6001600160a01b0316803b1561011257604051627b8a6760e11b81526024803560048301526001600160a01b03939093169281019290925282908290604490829084905af18015610107576100f35750f35b816100fd91610763565b6101045780f35b80fd5b6040513d84823e3d90fd5b5050fd5b5034610104576040366003190112610104576101306106b8565b6101386106ce565b9061016d337f00000000000000000000000000000000000000000000000000000000000000006001600160a01b03161461072b565b6040516370a0823160e01b8152306004820152916020836024816001600160a01b0386165afa9182156101e85784926101ae575b6101ab93506108fe565b80f35b91506020833d6020116101e0575b816101c960209383610763565b810103126101dc576101ab9251916101a1565b5f80fd5b3d91506101bc565b6040513d86823e3d90fd5b50346101dc576101003660031901126101dc5761020e6106b8565b906102176106ce565b916102206106e4565b9060843567ffffffffffffffff81116101dc576102419036906004016106fa565b60a49591953567ffffffffffffffff81116101dc576102649036906004016106fa565b60c435979091906001600160a01b03891689036101dc576102af337f00000000000000000000000000000000000000000000000000000000000000006001600160a01b03161461072b565b604051635fcbd28560e01b81526001600160a01b0387169490602081600481895afa801561062f5788905f9061063a575b6102ea925061083d565b843b156101dc576103365f936103249560405196879586956202e03560e31b8752606435600488015260c0602488015260c48701916107ad565b848103600319016044860152916107ad565b8360648301523060848301524260a4830152038183865af1801561062f5761060d575b5091602493916020869794604051968780926370a0823160e01b82523060048301525afa9485156106025786956105cb575b506040516395da4c3160e01b8152946001600160a01b03919091169190602086600481865afa9182156105c05787968793610571575b5082916103d36101609460a49361083d565b6040519889938492634360451760e01b8452876004850152602484015260e435604484015230606484015281608484015260018060a01b03165af19485156101e8578495610510575b5060206004916040519283809263a8694e5760e01b82525afa80156101e857829085906104cf575b61044e925061083d565b6001600160a01b031690813b156104cb57604051636e553f6560e01b8152600481018590526001600160a01b0391909116602482015291908290604490829084905af180156104c0576104a7575b602082604051908152f35b6104b2838092610763565b6104bc578161049c565b5080fd5b6040513d85823e3d90fd5b8280fd5b50506020813d602011610508575b816104ea60209383610763565b8101031261050457816104ff61044e92610799565b610444565b8380fd5b3d91506104dd565b909450610160813d8211610569575b8161052d6101609383610763565b8101031261050457602060e082610545600494610799565b50610551838201610799565b5061055e60a082016107f1565b50015195915061041c565b3d915061051f565b96509091506020863d6020116105b8575b8161058f60209383610763565b810103126105b45760a4610160926103d36105aa8a99610799565b94505091906103c1565b8680fd5b3d9150610582565b6040513d89823e3d90fd5b955093506020853d6020116105fa575b816105e860209383610763565b810103126101dc57859451935f61038b565b3d91506105db565b6040513d88823e3d90fd5b60209693919550916106225f60249694610763565b5f95919396509193610359565b6040513d5f823e3d90fd5b50506020813d60201161066f575b8161065560209383610763565b810103126101dc578761066a6102ea92610799565b6102e0565b3d9150610648565b346101dc575f3660031901126101dc577f00000000000000000000000000000000000000000000000000000000000000006001600160a01b03168152602090f35b600435906001600160a01b03821682036101dc57565b602435906001600160a01b03821682036101dc57565b604435906001600160a01b03821682036101dc57565b9181601f840112156101dc5782359167ffffffffffffffff83116101dc576020808501948460051b0101116101dc57565b1561073257565b60405162461bcd60e51b81526020600482015260096024820152683737ba16b7bbb732b960b91b6044820152606490fd5b90601f8019910116810190811067ffffffffffffffff82111761078557604052565b634e487b7160e01b5f52604160045260245ffd5b51906001600160a01b03821682036101dc57565b916020908281520191905f905b8082106107c75750505090565b90919283359060018060a01b0382168092036101dc576020816001938293520194019201906107ba565b519081151582036101dc57565b3d15610838573d9067ffffffffffffffff8211610785576040519161082d601f8201601f191660200184610763565b82523d5f602084013e565b606090565b60405163095ea7b360e01b602082019081526001600160a01b0390931660248201525f1960448083019190915281525f92839291839061087e606482610763565b51925af161088a6107fe565b816108c7575b501561089857565b60405162461bcd60e51b8152602060048201526007602482015266617070726f766560c81b6044820152606490fd5b80518015925082156108dc575b50505f610890565b81925090602091810103126101dc5760206108f791016107f1565b5f806108d4565b91909181156109c1575f9283809360405190602082019363a9059cbb60e01b855260018060a01b03166024830152604482015260448152610940606482610763565b51925af161094c6107fe565b8161098a575b501561095a57565b60405162461bcd60e51b81526020600482015260086024820152673a3930b739b332b960c11b6044820152606490fd5b805180159250821561099f575b50505f610952565b81925090602091810103126101dc5760206109ba91016107f1565b5f80610997565b50505056fea26469706673582212203ee6006f4e17fd8630b9fa55f15eb829a95b8e7c9e569865f00d38b98f12adb264736f6c634300081e0033","linkReferences":{}},"methodIdentifiers":{"cook(address,address,address,uint256,address[],address[],address,uint256)":"9b834180","owner()":"8da5cb5b","sweep(address,address)":"b8dc491b","withdrawBill(address,uint256,address)":"f7bd5a43"},"id":0}