{"abi":[{"type":"constructor","inputs":[{"name":"_owner","type":"address","internalType":"address"}],"stateMutability":"nonpayable"},{"type":"function","name":"claimRewards","inputs":[{"name":"bill","type":"address","internalType":"address"},{"name":"rewardTo","type":"address","internalType":"address"}],"outputs":[],"stateMutability":"nonpayable"},{"type":"function","name":"owner","inputs":[],"outputs":[{"name":"","type":"address","internalType":"address"}],"stateMutability":"view"},{"type":"function","name":"transferBill","inputs":[{"name":"bill","type":"address","internalType":"address"},{"name":"to","type":"address","internalType":"address"},{"name":"amount","type":"uint256","internalType":"uint256"}],"outputs":[],"stateMutability":"nonpayable"}],"bytecode":{"object":"0x60a034607357601f6103a538819003918201601f19168301916001600160401b03831184841017607757808492602094604052833981010312607357516001600160a01b0381168103607357608052604051610319908161008c8239608051818181606701528181610128015261021a0152f35b5f80fd5b634e487b7160e01b5f52604160045260245ffdfe6080806040526004361015610012575f80fd5b5f905f3560e01c9081638da5cb5b146102085750806397125c5a146100fc5763f1e42ccd1461003f575f80fd5b346100f85760403660031901126100f857610058610249565b61006061025f565b90610095337f00000000000000000000000000000000000000000000000000000000000000006001600160a01b031614610275565b6001600160a01b031690813b156100f857604051633bd73ee360e21b81526001600160a01b039091166004820152905f908290602490829084905af180156100ed576100df575080f35b6100eb91505f906102ad565b005b6040513d5f823e3d90fd5b5f80fd5b346100f85760603660031901126100f8575f6020610118610249565b604461012261025f565b610156337f00000000000000000000000000000000000000000000000000000000000000006001600160a01b031614610275565b60405163a9059cbb60e01b81526001600160a01b039182166004820152823560248201529485938492165af19081156100ed575f916101cd575b501561019857005b60405162461bcd60e51b815260206004820152600d60248201526c3134b63616ba3930b739b332b960991b6044820152606490fd5b90506020813d602011610200575b816101e8602093836102ad565b810103126100f8575180151581036100f85781610190565b3d91506101db565b346100f8575f3660031901126100f8577f00000000000000000000000000000000000000000000000000000000000000006001600160a01b03168152602090f35b600435906001600160a01b03821682036100f857565b602435906001600160a01b03821682036100f857565b1561027c57565b60405162461bcd60e51b81526020600482015260096024820152683737ba16b7bbb732b960b91b6044820152606490fd5b90601f8019910116810190811067ffffffffffffffff8211176102cf57604052565b634e487b7160e01b5f52604160045260245ffdfea2646970667358221220ec19570aa7f9bc2e66ff5ff2adace451c44ec9b9799e931275b3ee10c6c4381864736f6c634300081e0033","linkReferences":{}},"methodIdentifiers":{"claimRewards(address,address)":"f1e42ccd","owner()":"8da5cb5b","transferBill(address,address,uint256)":"97125c5a"},"id":0}