{"abi":[{"type":"constructor","inputs":[{"name":"_prizeTokenURI","type":"string","internalType":"string"},{"name":"_baseTokenURI","type":"string","internalType":"string"}],"stateMutability":"nonpayable"},{"type":"function","name":"addBonusPool","inputs":[],"outputs":[],"stateMutability":"payable"},{"type":"function","name":"approve","inputs":[{"name":"to","type":"address","internalType":"address"},{"name":"tokenId","type":"uint256","internalType":"uint256"}],"outputs":[],"stateMutability":"nonpayable"},{"type":"function","name":"balanceOf","inputs":[{"name":"owner","type":"address","internalType":"address"}],"outputs":[{"name":"","type":"uint256","internalType":"uint256"}],"stateMutability":"view"},{"type":"function","name":"freeMint","inputs":[{"name":"_user","type":"address","internalType":"address"}],"outputs":[],"stateMutability":"nonpayable"},{"type":"function","name":"getApproved","inputs":[{"name":"tokenId","type":"uint256","internalType":"uint256"}],"outputs":[{"name":"","type":"address","internalType":"address"}],"stateMutability":"view"},{"type":"function","name":"isApprovedForAll","inputs":[{"name":"owner","type":"address","internalType":"address"},{"name":"operator","type":"address","internalType":"address"}],"outputs":[{"name":"","type":"bool","internalType":"bool"}],"stateMutability":"view"},{"type":"function","name":"isPrize","inputs":[{"name":"tokenId","type":"uint256","internalType":"uint256"}],"outputs":[{"name":"","type":"bool","internalType":"bool"}],"stateMutability":"view"},{"type":"function","name":"isWhiteList","inputs":[{"name":"_user","type":"address","internalType":"address"}],"outputs":[{"name":"","type":"bool","internalType":"bool"}],"stateMutability":"view"},{"type":"function","name":"maxTotal","inputs":[],"outputs":[{"name":"","type":"uint256","internalType":"uint256"}],"stateMutability":"view"},{"type":"function","name":"name","inputs":[],"outputs":[{"name":"","type":"string","internalType":"string"}],"stateMutability":"view"},{"type":"function","name":"owner","inputs":[],"outputs":[{"name":"","type":"address","internalType":"address"}],"stateMutability":"view"},{"type":"function","name":"ownerOf","inputs":[{"name":"tokenId","type":"uint256","internalType":"uint256"}],"outputs":[{"name":"","type":"address","internalType":"address"}],"stateMutability":"view"},{"type":"function","name":"pauseMint","inputs":[],"outputs":[{"name":"","type":"bool","internalType":"bool"}],"stateMutability":"view"},{"type":"function","name":"price","inputs":[],"outputs":[{"name":"","type":"uint256","internalType":"uint256"}],"stateMutability":"view"},{"type":"function","name":"publicMint","inputs":[],"outputs":[],"stateMutability":"payable"},{"type":"function","name":"removeWhitelistUser","inputs":[{"name":"_user","type":"address","internalType":"address"}],"outputs":[],"stateMutability":"nonpayable"},{"type":"function","name":"renounceOwnership","inputs":[],"outputs":[],"stateMutability":"nonpayable"},{"type":"function","name":"safeTransferFrom","inputs":[{"name":"from","type":"address","internalType":"address"},{"name":"to","type":"address","internalType":"address"},{"name":"tokenId","type":"uint256","internalType":"uint256"}],"outputs":[],"stateMutability":"nonpayable"},{"type":"function","name":"safeTransferFrom","inputs":[{"name":"from","type":"address","internalType":"address"},{"name":"to","type":"address","internalType":"address"},{"name":"tokenId","type":"uint256","internalType":"uint256"},{"name":"_data","type":"bytes","internalType":"bytes"}],"outputs":[],"stateMutability":"nonpayable"},{"type":"function","name":"setApprovalForAll","inputs":[{"name":"operator","type":"address","internalType":"address"},{"name":"approved","type":"bool","internalType":"bool"}],"outputs":[],"stateMutability":"nonpayable"},{"type":"function","name":"setMintPrice","inputs":[{"name":"_price","type":"uint256","internalType":"uint256"}],"outputs":[],"stateMutability":"nonpayable"},{"type":"function","name":"setPauseMint","inputs":[],"outputs":[],"stateMutability":"nonpayable"},{"type":"function","name":"setWhiteLists","inputs":[{"name":"to","type":"address[]","internalType":"address[]"}],"outputs":[],"stateMutability":"nonpayable"},{"type":"function","name":"supportsInterface","inputs":[{"name":"interfaceId","type":"bytes4","internalType":"bytes4"}],"outputs":[{"name":"","type":"bool","internalType":"bool"}],"stateMutability":"view"},{"type":"function","name":"symbol","inputs":[],"outputs":[{"name":"","type":"string","internalType":"string"}],"stateMutability":"view"},{"type":"function","name":"tokenURI","inputs":[{"name":"tokenId","type":"uint256","internalType":"uint256"}],"outputs":[{"name":"","type":"string","internalType":"string"}],"stateMutability":"view"},{"type":"function","name":"totalSupply","inputs":[],"outputs":[{"name":"","type":"uint256","internalType":"uint256"}],"stateMutability":"view"},{"type":"function","name":"transferFrom","inputs":[{"name":"from","type":"address","internalType":"address"},{"name":"to","type":"address","internalType":"address"},{"name":"tokenId","type":"uint256","internalType":"uint256"}],"outputs":[],"stateMutability":"nonpayable"},{"type":"function","name":"transferOwnership","inputs":[{"name":"newOwner","type":"address","internalType":"address"}],"outputs":[],"stateMutability":"nonpayable"},{"type":"function","name":"withdraw","inputs":[],"outputs":[],"stateMutability":"nonpayable"},{"type":"function","name":"withdrawAddress","inputs":[],"outputs":[{"name":"","type":"address","internalType":"address"}],"stateMutability":"view"},{"type":"event","name":"Approval","inputs":[{"name":"owner","type":"address","indexed":true,"internalType":"address"},{"name":"approved","type":"address","indexed":true,"internalType":"address"},{"name":"tokenId","type":"uint256","indexed":true,"internalType":"uint256"}],"anonymous":false},{"type":"event","name":"ApprovalForAll","inputs":[{"name":"owner","type":"address","indexed":true,"internalType":"address"},{"name":"operator","type":"address","indexed":true,"internalType":"address"},{"name":"approved","type":"bool","indexed":false,"internalType":"bool"}],"anonymous":false},{"type":"event","name":"NEWLucky","inputs":[{"name":"_tokenId","type":"uint256","indexed":false,"internalType":"uint256"},{"name":"lucky","type":"bool","indexed":false,"internalType":"bool"}],"anonymous":false},{"type":"event","name":"OwnershipTransferred","inputs":[{"name":"previousOwner","type":"address","indexed":true,"internalType":"address"},{"name":"newOwner","type":"address","indexed":true,"internalType":"address"}],"anonymous":false},{"type":"event","name":"Transfer","inputs":[{"name":"from","type":"address","indexed":true,"internalType":"address"},{"name":"to","type":"address","indexed":true,"internalType":"address"},{"name":"tokenId","type":"uint256","indexed":true,"internalType":"uint256"}],"anonymous":false},{"type":"error","name":"ApprovalCallerNotOwnerNorApproved","inputs":[]},{"type":"error","name":"ApprovalQueryForNonexistentToken","inputs":[]},{"type":"error","name":"ApprovalToCurrentOwner","inputs":[]},{"type":"error","name":"ApproveToCaller","inputs":[]},{"type":"error","name":"BalanceQueryForZeroAddress","inputs":[]},{"type":"error","name":"MintToZeroAddress","inputs":[]},{"type":"error","name":"MintZeroQuantity","inputs":[]},{"type":"error","name":"OwnerQueryForNonexistentToken","inputs":[]},{"type":"error","name":"TransferCallerNotOwnerNorApproved","inputs":[]},{"type":"error","name":"TransferFromIncorrectOwner","inputs":[]},{"type":"error","name":"TransferToNonERC721ReceiverImplementer","inputs":[]},{"type":"error","name":"TransferToZeroAddress","inputs":[]}],"bytecode":{"object":"0x608060405273511604e18d63d32ac2605b5f0af0cf580d21fa49600b5f6101000a81548173ffffffffffffffffffffffffffffffffffffffff021916908373ffffffffffffffffffffffffffffffffffffffff160217905550662386f26fc10000600c5534801561006e575f5ffd5b50604051613e91380380613e9183398181016040528101906100909190610393565b6040518060400160405280600a81526020017f6c75636b797469676572000000000000000000000000000000000000000000008152506040518060400160405280600281526020017f4c54000000000000000000000000000000000000000000000000000000000000815250816002908161010b9190610619565b50806003908161011b9190610619565b5061012a61017460201b60201c565b5f81905550505061014d61014261017c60201b60201c565b61018360201b60201c565b816009908161015c9190610619565b5080600a908161016c9190610619565b5050506106e8565b5f6001905090565b5f33905090565b5f60085f9054906101000a900473ffffffffffffffffffffffffffffffffffffffff1690508160085f6101000a81548173ffffffffffffffffffffffffffffffffffffffff021916908373ffffffffffffffffffffffffffffffffffffffff1602179055508173ffffffffffffffffffffffffffffffffffffffff168173ffffffffffffffffffffffffffffffffffffffff167f8be0079c531659141344cd1fd0a4f28419497f9722a3daafe3b4186f6b6457e060405160405180910390a35050565b5f604051905090565b5f5ffd5b5f5ffd5b5f5ffd5b5f5ffd5b5f601f19601f8301169050919050565b7f4e487b71000000000000000000000000000000000000000000000000000000005f52604160045260245ffd5b6102a58261025f565b810181811067ffffffffffffffff821117156102c4576102c361026f565b5b80604052505050565b5f6102d6610246565b90506102e2828261029c565b919050565b5f67ffffffffffffffff8211156103015761030061026f565b5b61030a8261025f565b9050602081019050919050565b8281835e5f83830152505050565b5f610337610332846102e7565b6102cd565b9050828152602081018484840111156103535761035261025b565b5b61035e848285610317565b509392505050565b5f82601f83011261037a57610379610257565b5b815161038a848260208601610325565b91505092915050565b5f5f604083850312156103a9576103a861024f565b5b5f83015167ffffffffffffffff8111156103c6576103c5610253565b5b6103d285828601610366565b925050602083015167ffffffffffffffff8111156103f3576103f2610253565b5b6103ff85828601610366565b9150509250929050565b5f81519050919050565b7f4e487b71000000000000000000000000000000000000000000000000000000005f52602260045260245ffd5b5f600282049050600182168061045757607f821691505b60208210810361046a57610469610413565b5b50919050565b5f819050815f5260205f209050919050565b5f6020601f8301049050919050565b5f82821b905092915050565b5f600883026104cc7fffffffffffffffffffffffffffffffffffffffffffffffffffffffffffffffff82610491565b6104d68683610491565b95508019841693508086168417925050509392505050565b5f819050919050565b5f819050919050565b5f61051a610515610510846104ee565b6104f7565b6104ee565b9050919050565b5f819050919050565b61053383610500565b61054761053f82610521565b84845461049d565b825550505050565b5f5f905090565b61055e61054f565b61056981848461052a565b505050565b5b8181101561058c576105815f82610556565b60018101905061056f565b5050565b601f8211156105d1576105a281610470565b6105ab84610482565b810160208510156105ba578190505b6105ce6105c685610482565b83018261056e565b50505b505050565b5f82821c905092915050565b5f6105f15f19846008026105d6565b1980831691505092915050565b5f61060983836105e2565b9150826002028217905092915050565b61062282610409565b67ffffffffffffffff81111561063b5761063a61026f565b5b6106458254610440565b610650828285610590565b5f60209050601f831160018114610681575f841561066f578287015190505b61067985826105fe565b8655506106e0565b601f19841661068f86610470565b5f5b828110156106b657848901518255600182019150602085019450602081019050610691565b868310156106d357848901516106cf601f8916826105e2565b8355505b6001600288020188555050505b505050505050565b61379c806106f55f395ff3fe6080604052600436106101d7575f3560e01c806370a0823111610101578063cd85cdb511610094578063f4a0a52811610063578063f4a0a5281461063d578063f99031a714610665578063fa07ce1d146106a1578063fc31f0bf146106c9576101d7565b8063cd85cdb5146105a5578063e20c4ec8146105cf578063e985e9c5146105d9578063f2fde38b14610615576101d7565b8063a035b1fe116100d0578063a035b1fe146104ef578063a22cb46514610519578063b88d4fde14610541578063c87b56dd14610569576101d7565b806370a0823114610449578063715018a6146104855780638da5cb5b1461049b57806395d89b41146104c5576101d7565b806326092b831161017957806342842e0e1161014857806342842e0e146103a557806360d8d3d9146103cd5780636352211e146103e3578063648e3c261461041f576101d7565b806326092b83146103215780632c88af5e1461032b57806330cc7ae0146103675780633ccfd60b1461038f576101d7565b8063095ea7b3116101b5578063095ea7b31461027d5780631581b600146102a557806318160ddd146102cf57806323b872dd146102f9576101d7565b806301ffc9a7146101db57806306fdde0314610217578063081812fc14610241575b5f5ffd5b3480156101e6575f5ffd5b5061020160048036038101906101fc919061299c565b6106f1565b60405161020e91906129e1565b60405180910390f35b348015610222575f5ffd5b5061022b6107d2565b6040516102389190612a6a565b60405180910390f35b34801561024c575f5ffd5b5061026760048036038101906102629190612abd565b610862565b6040516102749190612b27565b60405180910390f35b348015610288575f5ffd5b506102a3600480360381019061029e9190612b6a565b6108da565b005b3480156102b0575f5ffd5b506102b96109e3565b6040516102c69190612b27565b60405180910390f35b3480156102da575f5ffd5b506102e3610a08565b6040516102f09190612bb7565b60405180910390f35b348015610304575f5ffd5b5061031f600480360381019061031a9190612bd0565b610a1d565b005b610329610a2d565b005b348015610336575f5ffd5b50610351600480360381019061034c9190612abd565b610cab565b60405161035e91906129e1565b60405180910390f35b348015610372575f5ffd5b5061038d60048036038101906103889190612c20565b610d19565b005b34801561039a575f5ffd5b506103a3610d78565b005b3480156103b0575f5ffd5b506103cb60048036038101906103c69190612bd0565b610ddf565b005b3480156103d8575f5ffd5b506103e1610dfe565b005b3480156103ee575f5ffd5b5061040960048036038101906104049190612abd565b610e32565b6040516104169190612b27565b60405180910390f35b34801561042a575f5ffd5b50610433610e46565b6040516104409190612bb7565b60405180910390f35b348015610454575f5ffd5b5061046f600480360381019061046a9190612c20565b610e4c565b60405161047c9190612bb7565b60405180910390f35b348015610490575f5ffd5b50610499610f16565b005b3480156104a6575f5ffd5b506104af610f29565b6040516104bc9190612b27565b60405180910390f35b3480156104d0575f5ffd5b506104d9610f51565b6040516104e69190612a6a565b60405180910390f35b3480156104fa575f5ffd5b50610503610fe1565b6040516105109190612bb7565b60405180910390f35b348015610524575f5ffd5b5061053f600480360381019061053a9190612c75565b610fe7565b005b34801561054c575f5ffd5b5061056760048036038101906105629190612ddf565b611159565b005b348015610574575f5ffd5b5061058f600480360381019061058a9190612abd565b6111d5565b60405161059c9190612a6a565b60405180910390f35b3480156105b0575f5ffd5b506105b96112a7565b6040516105c691906129e1565b60405180910390f35b6105d76112ba565b005b3480156105e4575f5ffd5b506105ff60048036038101906105fa9190612e5f565b6112bc565b60405161060c91906129e1565b60405180910390f35b348015610620575f5ffd5b5061063b60048036038101906106369190612c20565b61134a565b005b348015610648575f5ffd5b50610663600480360381019061065e9190612abd565b6113cc565b005b348015610670575f5ffd5b5061068b60048036038101906106869190612c20565b6113de565b60405161069891906129e1565b60405180910390f35b3480156106ac575f5ffd5b506106c760048036038101906106c29190612c20565b611430565b005b3480156106d4575f5ffd5b506106ef60048036038101906106ea9190612efa565b611747565b005b5f7f80ac58cd000000000000000000000000000000000000000000000000000000007bffffffffffffffffffffffffffffffffffffffffffffffffffffffff1916827bffffffffffffffffffffffffffffffffffffffffffffffffffffffff191614806107bb57507f5b5e139f000000000000000000000000000000000000000000000000000000007bffffffffffffffffffffffffffffffffffffffffffffffffffffffff1916827bffffffffffffffffffffffffffffffffffffffffffffffffffffffff1916145b806107cb57506107ca82611804565b5b9050919050565b6060600280546107e190612f72565b80601f016020809104026020016040519081016040528092919081815260200182805461080d90612f72565b80156108585780601f1061082f57610100808354040283529160200191610858565b820191905f5260205f20905b81548152906001019060200180831161083b57829003601f168201915b5050505050905090565b5f61086c8261186d565b6108a2576040517fcf4700e400000000000000000000000000000000000000000000000000000000815260040160405180910390fd5b60065f8381526020019081526020015f205f9054906101000a900473ffffffffffffffffffffffffffffffffffffffff169050919050565b5f6108e482610e32565b90508073ffffffffffffffffffffffffffffffffffffffff168373ffffffffffffffffffffffffffffffffffffffff160361094b576040517f943f7b8c00000000000000000000000000000000000000000000000000000000815260040160405180910390fd5b8073ffffffffffffffffffffffffffffffffffffffff1661096a6118b6565b73ffffffffffffffffffffffffffffffffffffffff161415801561099c575061099a816109956118b6565b6112bc565b155b156109d3576040517fcfb3b94200000000000000000000000000000000000000000000000000000000815260040160405180910390fd5b6109de8383836118bd565b505050565b600b5f9054906101000a900473ffffffffffffffffffffffffffffffffffffffff1681565b5f610a1161196c565b6001545f540303905090565b610a28838383611974565b505050565b5f610a36610a08565b9050600b60149054906101000a900460ff1615610a88576040517f08c379a0000000000000000000000000000000000000000000000000000000008152600401610a7f90612fec565b60405180910390fd5b600c54341015610acd576040517f08c379a0000000000000000000000000000000000000000000000000000000008152600401610ac490613054565b60405180910390fd5b6103e8600182610add919061309f565b1115610b1e576040517f08c379a0000000000000000000000000000000000000000000000000000000008152600401610b159061311c565b60405180910390fd5b610b29336001611e0a565b5f610b32611e27565b90505f610b3d611eb1565b90507f6dd0b1196e80c465d51f2d7a9488c932354b5b80e48a0e074a1e964081efcc908183604051610b7092919061313a565b60405180910390a1600b60159054906101000a900460ff16600e5f8381526020019081526020015f205f6101000a81548160ff02191690831515021790555060011515600e5f8381526020019081526020015f205f9054906101000a900460ff16151503610ca6573373ffffffffffffffffffffffffffffffffffffffff166108fc606460be600c54610c039190613161565b610c0d91906131cf565b90811502906040515f60405180830381858888f19350505050610c2e575f5ffd5b600b5f9054906101000a900473ffffffffffffffffffffffffffffffffffffffff1673ffffffffffffffffffffffffffffffffffffffff166108fc6064600a600c54610c7a9190613161565b610c8491906131cf565b90811502906040515f60405180830381858888f19350505050610ca5575f5ffd5b5b505050565b5f610cb58261186d565b610cf4576040517f08c379a0000000000000000000000000000000000000000000000000000000008152600401610ceb9061326f565b60405180910390fd5b600e5f8381526020019081526020015f205f9054906101000a900460ff169050919050565b610d21611ec2565b5f600d5f8373ffffffffffffffffffffffffffffffffffffffff1673ffffffffffffffffffffffffffffffffffffffff1681526020019081526020015f205f6101000a81548160ff02191690831515021790555050565b610d80611ec2565b600b5f9054906101000a900473ffffffffffffffffffffffffffffffffffffffff1673ffffffffffffffffffffffffffffffffffffffff166108fc4790811502906040515f60405180830381858888f19350505050610ddd575f5ffd5b565b610df983838360405180602001604052805f815250611159565b505050565b610e06611ec2565b600b60149054906101000a900460ff1615600b60146101000a81548160ff021916908315150217905550565b5f610e3c82611f40565b5f01519050919050565b6103e881565b5f5f73ffffffffffffffffffffffffffffffffffffffff168273ffffffffffffffffffffffffffffffffffffffff1603610eb2576040517f8f4eb60400000000000000000000000000000000000000000000000000000000815260040160405180910390fd5b60055f8373ffffffffffffffffffffffffffffffffffffffff1673ffffffffffffffffffffffffffffffffffffffff1681526020019081526020015f205f015f9054906101000a900467ffffffffffffffff1667ffffffffffffffff169050919050565b610f1e611ec2565b610f275f6121bc565b565b5f60085f9054906101000a900473ffffffffffffffffffffffffffffffffffffffff16905090565b606060038054610f6090612f72565b80601f0160208091040260200160405190810160405280929190818152602001828054610f8c90612f72565b8015610fd75780601f10610fae57610100808354040283529160200191610fd7565b820191905f5260205f20905b815481529060010190602001808311610fba57829003601f168201915b5050505050905090565b600c5481565b610fef6118b6565b73ffffffffffffffffffffffffffffffffffffffff168273ffffffffffffffffffffffffffffffffffffffff1603611053576040517fb06307db00000000000000000000000000000000000000000000000000000000815260040160405180910390fd5b8060075f61105f6118b6565b73ffffffffffffffffffffffffffffffffffffffff1673ffffffffffffffffffffffffffffffffffffffff1681526020019081526020015f205f8473ffffffffffffffffffffffffffffffffffffffff1673ffffffffffffffffffffffffffffffffffffffff1681526020019081526020015f205f6101000a81548160ff0219169083151502179055508173ffffffffffffffffffffffffffffffffffffffff166111086118b6565b73ffffffffffffffffffffffffffffffffffffffff167f17307eab39ab6107e8899845ad3d59bd9653f200f220920489ca2b5937696c318360405161114d91906129e1565b60405180910390a35050565b611164848484611974565b6111838373ffffffffffffffffffffffffffffffffffffffff1661227f565b80156111985750611196848484846122a1565b155b156111cf576040517fd1a57ed600000000000000000000000000000000000000000000000000000000815260040160405180910390fd5b50505050565b60606111e08261186d565b61121f576040517f08c379a00000000000000000000000000000000000000000000000000000000081526004016112169061326f565b60405180910390fd5b600e5f8381526020019081526020015f205f9054906101000a900460ff161561127457600961124d836123ec565b60405160200161125e9291906133a3565b60405160208183030381529060405290506112a2565b600a61127f836123ec565b6040516020016112909291906133a3565b60405160208183030381529060405290505b919050565b600b60149054906101000a900460ff1681565b565b5f60075f8473ffffffffffffffffffffffffffffffffffffffff1673ffffffffffffffffffffffffffffffffffffffff1681526020019081526020015f205f8373ffffffffffffffffffffffffffffffffffffffff1673ffffffffffffffffffffffffffffffffffffffff1681526020019081526020015f205f9054906101000a900460ff16905092915050565b611352611ec2565b5f73ffffffffffffffffffffffffffffffffffffffff168173ffffffffffffffffffffffffffffffffffffffff16036113c0576040517f08c379a00000000000000000000000000000000000000000000000000000000081526004016113b790613441565b60405180910390fd5b6113c9816121bc565b50565b6113d4611ec2565b80600c8190555050565b5f600d5f8373ffffffffffffffffffffffffffffffffffffffff1673ffffffffffffffffffffffffffffffffffffffff1681526020019081526020015f205f9054906101000a900460ff169050919050565b5f611439610a08565b9050600b60149054906101000a900460ff161561148b576040517f08c379a000000000000000000000000000000000000000000000000000000000815260040161148290612fec565b60405180910390fd5b600d5f8373ffffffffffffffffffffffffffffffffffffffff1673ffffffffffffffffffffffffffffffffffffffff1681526020019081526020015f205f9054906101000a900460ff16611514576040517f08c379a000000000000000000000000000000000000000000000000000000000815260040161150b906134a9565b60405180910390fd5b6103e8600182611524919061309f565b1115611565576040517f08c379a000000000000000000000000000000000000000000000000000000000815260040161155c9061311c565b60405180910390fd5b611570336001611e0a565b5f600d5f8473ffffffffffffffffffffffffffffffffffffffff1673ffffffffffffffffffffffffffffffffffffffff1681526020019081526020015f205f6101000a81548160ff0219169083151502179055505f6115cd611e27565b90505f6115d8611eb1565b90507f6dd0b1196e80c465d51f2d7a9488c932354b5b80e48a0e074a1e964081efcc90818360405161160b92919061313a565b60405180910390a1600b60159054906101000a900460ff16600e5f8381526020019081526020015f205f6101000a81548160ff02191690831515021790555060011515600e5f8381526020019081526020015f205f9054906101000a900460ff16151503611741573373ffffffffffffffffffffffffffffffffffffffff166108fc6064605f600c5461169e9190613161565b6116a891906131cf565b90811502906040515f60405180830381858888f193505050506116c9575f5ffd5b600b5f9054906101000a900473ffffffffffffffffffffffffffffffffffffffff1673ffffffffffffffffffffffffffffffffffffffff166108fc60646005600c546117159190613161565b61171f91906131cf565b90811502906040515f60405180830381858888f19350505050611740575f5ffd5b5b50505050565b61174f611ec2565b5f5f90505b828290508163ffffffff1610156117ff575f83838363ffffffff1681811061177f5761177e6134c7565b5b90506020020160208101906117949190612c20565b90506001600d5f8373ffffffffffffffffffffffffffffffffffffffff1673ffffffffffffffffffffffffffffffffffffffff1681526020019081526020015f205f6101000a81548160ff0219169083151502179055505080806117f790613503565b915050611754565b505050565b5f7f01ffc9a7000000000000000000000000000000000000000000000000000000007bffffffffffffffffffffffffffffffffffffffffffffffffffffffff1916827bffffffffffffffffffffffffffffffffffffffffffffffffffffffff1916149050919050565b5f8161187761196c565b1115801561188557505f5482105b80156118af575060045f8381526020019081526020015f205f01601c9054906101000a900460ff16155b9050919050565b5f33905090565b8260065f8481526020019081526020015f205f6101000a81548173ffffffffffffffffffffffffffffffffffffffff021916908373ffffffffffffffffffffffffffffffffffffffff160217905550818373ffffffffffffffffffffffffffffffffffffffff168273ffffffffffffffffffffffffffffffffffffffff167f8c5be1e5ebec7d5bd14f71427d1e84f3dd0314c0f7b2291e5b200ac8c7c3b92560405160405180910390a4505050565b5f6001905090565b5f61197e82611f40565b90508373ffffffffffffffffffffffffffffffffffffffff16815f015173ffffffffffffffffffffffffffffffffffffffff16146119e8576040517fa114810000000000000000000000000000000000000000000000000000000000815260040160405180910390fd5b5f8473ffffffffffffffffffffffffffffffffffffffff16611a086118b6565b73ffffffffffffffffffffffffffffffffffffffff161480611a375750611a3685611a316118b6565b6112bc565b5b80611a7c5750611a456118b6565b73ffffffffffffffffffffffffffffffffffffffff16611a6484610862565b73ffffffffffffffffffffffffffffffffffffffff16145b905080611ab5576040517f59c896be00000000000000000000000000000000000000000000000000000000815260040160405180910390fd5b5f73ffffffffffffffffffffffffffffffffffffffff168473ffffffffffffffffffffffffffffffffffffffff1603611b1a576040517fea553b3400000000000000000000000000000000000000000000000000000000815260040160405180910390fd5b611b278585856001612545565b611b325f84876118bd565b600160055f8773ffffffffffffffffffffffffffffffffffffffff1673ffffffffffffffffffffffffffffffffffffffff1681526020019081526020015f205f015f8282829054906101000a900467ffffffffffffffff160392506101000a81548167ffffffffffffffff021916908367ffffffffffffffff160217905550600160055f8673ffffffffffffffffffffffffffffffffffffffff1673ffffffffffffffffffffffffffffffffffffffff1681526020019081526020015f205f015f8282829054906101000a900467ffffffffffffffff160192506101000a81548167ffffffffffffffff021916908367ffffffffffffffff1602179055505f60045f8581526020019081526020015f20905084815f015f6101000a81548173ffffffffffffffffffffffffffffffffffffffff021916908373ffffffffffffffffffffffffffffffffffffffff16021790555042815f0160146101000a81548167ffffffffffffffff021916908367ffffffffffffffff1602179055505f6001850190505f60045f8381526020019081526020015f2090505f73ffffffffffffffffffffffffffffffffffffffff16815f015f9054906101000a900473ffffffffffffffffffffffffffffffffffffffff1673ffffffffffffffffffffffffffffffffffffffff1603611d98575f548214611d975787815f015f6101000a81548173ffffffffffffffffffffffffffffffffffffffff021916908373ffffffffffffffffffffffffffffffffffffffff1602179055508460200151815f0160146101000a81548167ffffffffffffffff021916908367ffffffffffffffff1602179055505b5b505050828473ffffffffffffffffffffffffffffffffffffffff168673ffffffffffffffffffffffffffffffffffffffff167fddf252ad1be2c89b69c2b068fc378daa952ba7f163c4a11628f55a4df523b3ef60405160405180910390a4611e03858585600161254b565b5050505050565b611e23828260405180602001604052805f815250612551565b5050565b5f5f4442604051602001611e3c92919061354e565b604051602081830303815290604052805190602001205f1c90505f600282611e649190613579565b90505f8103611e8f575f600b60156101000a81548160ff021916908315150217905592505050611eae565b6001600b60156101000a81548160ff0219169083151502179055925050505b90565b5f611eba61196c565b5f5403905090565b611eca6118b6565b73ffffffffffffffffffffffffffffffffffffffff16611ee8610f29565b73ffffffffffffffffffffffffffffffffffffffff1614611f3e576040517f08c379a0000000000000000000000000000000000000000000000000000000008152600401611f35906135f3565b60405180910390fd5b565b611f486128f6565b5f82905080611f5561196c565b11158015611f6357505f5481105b15612185575f60045f8381526020019081526020015f206040518060600160405290815f82015f9054906101000a900473ffffffffffffffffffffffffffffffffffffffff1673ffffffffffffffffffffffffffffffffffffffff1673ffffffffffffffffffffffffffffffffffffffff1681526020015f820160149054906101000a900467ffffffffffffffff1667ffffffffffffffff1667ffffffffffffffff1681526020015f8201601c9054906101000a900460ff16151515158152505090508060400151612183575f73ffffffffffffffffffffffffffffffffffffffff16815f015173ffffffffffffffffffffffffffffffffffffffff161461206f5780925050506121b7565b5b6001156121825781806001900392505060045f8381526020019081526020015f206040518060600160405290815f82015f9054906101000a900473ffffffffffffffffffffffffffffffffffffffff1673ffffffffffffffffffffffffffffffffffffffff1673ffffffffffffffffffffffffffffffffffffffff1681526020015f820160149054906101000a900467ffffffffffffffff1667ffffffffffffffff1667ffffffffffffffff1681526020015f8201601c9054906101000a900460ff16151515158152505090505f73ffffffffffffffffffffffffffffffffffffffff16815f015173ffffffffffffffffffffffffffffffffffffffff161461217d5780925050506121b7565b612070565b5b505b6040517fdf2d9b4200000000000000000000000000000000000000000000000000000000815260040160405180910390fd5b919050565b5f60085f9054906101000a900473ffffffffffffffffffffffffffffffffffffffff1690508160085f6101000a81548173ffffffffffffffffffffffffffffffffffffffff021916908373ffffffffffffffffffffffffffffffffffffffff1602179055508173ffffffffffffffffffffffffffffffffffffffff168173ffffffffffffffffffffffffffffffffffffffff167f8be0079c531659141344cd1fd0a4f28419497f9722a3daafe3b4186f6b6457e060405160405180910390a35050565b5f5f8273ffffffffffffffffffffffffffffffffffffffff163b119050919050565b5f8373ffffffffffffffffffffffffffffffffffffffff1663150b7a026122c66118b6565b8786866040518563ffffffff1660e01b81526004016122e89493929190613663565b6020604051808303815f875af192505050801561232357506040513d601f19601f8201168201806040525081019061232091906136c1565b60015b612399573d805f8114612351576040519150601f19603f3d011682016040523d82523d5f602084013e612356565b606091505b505f815103612391576040517fd1a57ed600000000000000000000000000000000000000000000000000000000815260040160405180910390fd5b805181602001fd5b63150b7a0260e01b7bffffffffffffffffffffffffffffffffffffffffffffffffffffffff1916817bffffffffffffffffffffffffffffffffffffffffffffffffffffffff191614915050949350505050565b60605f8203612432576040518060400160405280600181526020017f30000000000000000000000000000000000000000000000000000000000000008152509050612540565b5f8290505f5b5f821461246157808061244a906136ec565b915050600a8261245a91906131cf565b9150612438565b5f8167ffffffffffffffff81111561247c5761247b612cbb565b5b6040519080825280601f01601f1916602001820160405280156124ae5781602001600182028036833780820191505090505b5090505b5f8514612539576001826124c69190613733565b9150600a856124d59190613579565b60306124e1919061309f565b60f81b8183815181106124f7576124f66134c7565b5b60200101907effffffffffffffffffffffffffffffffffffffffffffffffffffffffffffff191690815f1a905350600a8561253291906131cf565b94506124b2565b8093505050505b919050565b50505050565b50505050565b5f5f5490505f73ffffffffffffffffffffffffffffffffffffffff168473ffffffffffffffffffffffffffffffffffffffff16036125bb576040517f2e07630000000000000000000000000000000000000000000000000000000000815260040160405180910390fd5b5f83036125f4576040517fb562e8dd00000000000000000000000000000000000000000000000000000000815260040160405180910390fd5b6126005f858386612545565b8260055f8673ffffffffffffffffffffffffffffffffffffffff1673ffffffffffffffffffffffffffffffffffffffff1681526020019081526020015f205f015f8282829054906101000a900467ffffffffffffffff160192506101000a81548167ffffffffffffffff021916908367ffffffffffffffff1602179055508260055f8673ffffffffffffffffffffffffffffffffffffffff1673ffffffffffffffffffffffffffffffffffffffff1681526020019081526020015f205f0160088282829054906101000a900467ffffffffffffffff160192506101000a81548167ffffffffffffffff021916908367ffffffffffffffff1602179055508360045f8381526020019081526020015f205f015f6101000a81548173ffffffffffffffffffffffffffffffffffffffff021916908373ffffffffffffffffffffffffffffffffffffffff1602179055504260045f8381526020019081526020015f205f0160146101000a81548167ffffffffffffffff021916908367ffffffffffffffff1602179055505f8190505f84820190506127b18673ffffffffffffffffffffffffffffffffffffffff1661227f565b15612872575b818673ffffffffffffffffffffffffffffffffffffffff165f73ffffffffffffffffffffffffffffffffffffffff167fddf252ad1be2c89b69c2b068fc378daa952ba7f163c4a11628f55a4df523b3ef60405160405180910390a46128245f8784806001019550876122a1565b61285a576040517fd1a57ed600000000000000000000000000000000000000000000000000000000815260040160405180910390fd5b8082036127b757825f541461286d575f5ffd5b6128dc565b5b818060010192508673ffffffffffffffffffffffffffffffffffffffff165f73ffffffffffffffffffffffffffffffffffffffff167fddf252ad1be2c89b69c2b068fc378daa952ba7f163c4a11628f55a4df523b3ef60405160405180910390a4808203612873575b815f8190555050506128f05f85838661254b565b50505050565b60405180606001604052805f73ffffffffffffffffffffffffffffffffffffffff1681526020015f67ffffffffffffffff1681526020015f151581525090565b5f604051905090565b5f5ffd5b5f5ffd5b5f7fffffffff0000000000000000000000000000000000000000000000000000000082169050919050565b61297b81612947565b8114612985575f5ffd5b50565b5f8135905061299681612972565b92915050565b5f602082840312156129b1576129b061293f565b5b5f6129be84828501612988565b91505092915050565b5f8115159050919050565b6129db816129c7565b82525050565b5f6020820190506129f45f8301846129d2565b92915050565b5f81519050919050565b5f82825260208201905092915050565b8281835e5f83830152505050565b5f601f19601f8301169050919050565b5f612a3c826129fa565b612a468185612a04565b9350612a56818560208601612a14565b612a5f81612a22565b840191505092915050565b5f6020820190508181035f830152612a828184612a32565b905092915050565b5f819050919050565b612a9c81612a8a565b8114612aa6575f5ffd5b50565b5f81359050612ab781612a93565b92915050565b5f60208284031215612ad257612ad161293f565b5b5f612adf84828501612aa9565b91505092915050565b5f73ffffffffffffffffffffffffffffffffffffffff82169050919050565b5f612b1182612ae8565b9050919050565b612b2181612b07565b82525050565b5f602082019050612b3a5f830184612b18565b92915050565b612b4981612b07565b8114612b53575f5ffd5b50565b5f81359050612b6481612b40565b92915050565b5f5f60408385031215612b8057612b7f61293f565b5b5f612b8d85828601612b56565b9250506020612b9e85828601612aa9565b9150509250929050565b612bb181612a8a565b82525050565b5f602082019050612bca5f830184612ba8565b92915050565b5f5f5f60608486031215612be757612be661293f565b5b5f612bf486828701612b56565b9350506020612c0586828701612b56565b9250506040612c1686828701612aa9565b9150509250925092565b5f60208284031215612c3557612c3461293f565b5b5f612c4284828501612b56565b91505092915050565b612c54816129c7565b8114612c5e575f5ffd5b50565b5f81359050612c6f81612c4b565b92915050565b5f5f60408385031215612c8b57612c8a61293f565b5b5f612c9885828601612b56565b9250506020612ca985828601612c61565b9150509250929050565b5f5ffd5b5f5ffd5b7f4e487b71000000000000000000000000000000000000000000000000000000005f52604160045260245ffd5b612cf182612a22565b810181811067ffffffffffffffff82111715612d1057612d0f612cbb565b5b80604052505050565b5f612d22612936565b9050612d2e8282612ce8565b919050565b5f67ffffffffffffffff821115612d4d57612d4c612cbb565b5b612d5682612a22565b9050602081019050919050565b828183375f83830152505050565b5f612d83612d7e84612d33565b612d19565b905082815260208101848484011115612d9f57612d9e612cb7565b5b612daa848285612d63565b509392505050565b5f82601f830112612dc657612dc5612cb3565b5b8135612dd6848260208601612d71565b91505092915050565b5f5f5f5f60808587031215612df757612df661293f565b5b5f612e0487828801612b56565b9450506020612e1587828801612b56565b9350506040612e2687828801612aa9565b925050606085013567ffffffffffffffff811115612e4757612e46612943565b5b612e5387828801612db2565b91505092959194509250565b5f5f60408385031215612e7557612e7461293f565b5b5f612e8285828601612b56565b9250506020612e9385828601612b56565b9150509250929050565b5f5ffd5b5f5ffd5b5f5f83601f840112612eba57612eb9612cb3565b5b8235905067ffffffffffffffff811115612ed757612ed6612e9d565b5b602083019150836020820283011115612ef357612ef2612ea1565b5b9250929050565b5f5f60208385031215612f1057612f0f61293f565b5b5f83013567ffffffffffffffff811115612f2d57612f2c612943565b5b612f3985828601612ea5565b92509250509250929050565b7f4e487b71000000000000000000000000000000000000000000000000000000005f52602260045260245ffd5b5f6002820490506001821680612f8957607f821691505b602082108103612f9c57612f9b612f45565b5b50919050565b7f5061757365206d696e74000000000000000000000000000000000000000000005f82015250565b5f612fd6600a83612a04565b9150612fe182612fa2565b602082019050919050565b5f6020820190508181035f83015261300381612fca565b9050919050565b7f45746865722073656e74206973206e6f7420636f7272656374000000000000005f82015250565b5f61303e601983612a04565b91506130498261300a565b602082019050919050565b5f6020820190508181035f83015261306b81613032565b9050919050565b7f4e487b71000000000000000000000000000000000000000000000000000000005f52601160045260245ffd5b5f6130a982612a8a565b91506130b483612a8a565b92508282019050808211156130cc576130cb613072565b5b92915050565b7f45786365656473206d6178696d756d20737570706c79000000000000000000005f82015250565b5f613106601683612a04565b9150613111826130d2565b602082019050919050565b5f6020820190508181035f830152613133816130fa565b9050919050565b5f60408201905061314d5f830185612ba8565b61315a60208301846129d2565b9392505050565b5f61316b82612a8a565b915061317683612a8a565b925082820261318481612a8a565b9150828204841483151761319b5761319a613072565b5b5092915050565b7f4e487b71000000000000000000000000000000000000000000000000000000005f52601260045260245ffd5b5f6131d982612a8a565b91506131e483612a8a565b9250826131f4576131f36131a2565b5b828204905092915050565b7f4552433732314d657461646174613a2055524920717565727920666f72206e6f5f8201527f6e6578697374656e7420746f6b656e0000000000000000000000000000000000602082015250565b5f613259602f83612a04565b9150613264826131ff565b604082019050919050565b5f6020820190508181035f8301526132868161324d565b9050919050565b5f81905092915050565b5f819050815f5260205f209050919050565b5f81546132b581612f72565b6132bf818661328d565b9450600182165f81146132d957600181146132ee57613320565b60ff1983168652811515820286019350613320565b6132f785613297565b5f5b83811015613318578154818901526001820191506020810190506132f9565b838801955050505b50505092915050565b5f613333826129fa565b61333d818561328d565b935061334d818560208601612a14565b80840191505092915050565b7f2e6a736f6e0000000000000000000000000000000000000000000000000000005f82015250565b5f61338d60058361328d565b915061339882613359565b600582019050919050565b5f6133ae82856132a9565b91506133ba8284613329565b91506133c582613381565b91508190509392505050565b7f4f776e61626c653a206e6577206f776e657220697320746865207a65726f20615f8201527f6464726573730000000000000000000000000000000000000000000000000000602082015250565b5f61342b602683612a04565b9150613436826133d1565b604082019050919050565b5f6020820190508181035f8301526134588161341f565b9050919050565b7f4e6f742077686974654c697374732075736572000000000000000000000000005f82015250565b5f613493601383612a04565b915061349e8261345f565b602082019050919050565b5f6020820190508181035f8301526134c081613487565b9050919050565b7f4e487b71000000000000000000000000000000000000000000000000000000005f52603260045260245ffd5b5f63ffffffff82169050919050565b5f61350d826134f4565b915063ffffffff820361352357613522613072565b5b600182019050919050565b5f819050919050565b61354861354382612a8a565b61352e565b82525050565b5f6135598285613537565b6020820191506135698284613537565b6020820191508190509392505050565b5f61358382612a8a565b915061358e83612a8a565b92508261359e5761359d6131a2565b5b828206905092915050565b7f4f776e61626c653a2063616c6c6572206973206e6f7420746865206f776e65725f82015250565b5f6135dd602083612a04565b91506135e8826135a9565b602082019050919050565b5f6020820190508181035f83015261360a816135d1565b9050919050565b5f81519050919050565b5f82825260208201905092915050565b5f61363582613611565b61363f818561361b565b935061364f818560208601612a14565b61365881612a22565b840191505092915050565b5f6080820190506136765f830187612b18565b6136836020830186612b18565b6136906040830185612ba8565b81810360608301526136a2818461362b565b905095945050505050565b5f815190506136bb81612972565b92915050565b5f602082840312156136d6576136d561293f565b5b5f6136e3848285016136ad565b91505092915050565b5f6136f682612a8a565b91507fffffffffffffffffffffffffffffffffffffffffffffffffffffffffffffffff820361372857613727613072565b5b600182019050919050565b5f61373d82612a8a565b915061374883612a8a565b92508282039050818111156137605761375f613072565b5b9291505056fea2646970667358221220c8192d2151987ef724c088eb6020a92f74dd236d713b0293307da19ee9437c3a64736f6c634300081e0033","linkReferences":{}},"methodIdentifiers":{"addBonusPool()":"e20c4ec8","approve(address,uint256)":"095ea7b3","balanceOf(address)":"70a08231","freeMint(address)":"fa07ce1d","getApproved(uint256)":"081812fc","isApprovedForAll(address,address)":"e985e9c5","isPrize(uint256)":"2c88af5e","isWhiteList(address)":"f99031a7","maxTotal()":"648e3c26","name()":"06fdde03","owner()":"8da5cb5b","ownerOf(uint256)":"6352211e","pauseMint()":"cd85cdb5","price()":"a035b1fe","publicMint()":"26092b83","removeWhitelistUser(address)":"30cc7ae0","renounceOwnership()":"715018a6","safeTransferFrom(address,address,uint256)":"42842e0e","safeTransferFrom(address,address,uint256,bytes)":"b88d4fde","setApprovalForAll(address,bool)":"a22cb465","setMintPrice(uint256)":"f4a0a528","setPauseMint()":"60d8d3d9","setWhiteLists(address[])":"fc31f0bf","supportsInterface(bytes4)":"01ffc9a7","symbol()":"95d89b41","tokenURI(uint256)":"c87b56dd","totalSupply()":"18160ddd","transferFrom(address,address,uint256)":"23b872dd","transferOwnership(address)":"f2fde38b","withdraw()":"3ccfd60b","withdrawAddress()":"1581b600"},"id":1}