{"abi":[{"type":"constructor","inputs":[],"stateMutability":"nonpayable"},{"type":"function","name":"REASON_BORROW_REVERTED_BEFORE_BYPASS","inputs":[],"outputs":[{"name":"","type":"uint8","internalType":"uint8"}],"stateMutability":"view"},{"type":"function","name":"REASON_LIQUIDITY_BELOW_REMAINING_CEILING","inputs":[],"outputs":[{"name":"","type":"uint8","internalType":"uint8"}],"stateMutability":"view"},{"type":"function","name":"REASON_LOOP_COUNT_EXCEEDS_SINGLE_TX_GAS","inputs":[],"outputs":[{"name":"","type":"uint8","internalType":"uint8"}],"stateMutability":"view"},{"type":"function","name":"REASON_NONE","inputs":[],"outputs":[{"name":"","type":"uint8","internalType":"uint8"}],"stateMutability":"view"},{"type":"function","name":"REASON_NO_BORROWABLE_ISOLATION_ASSET","inputs":[],"outputs":[{"name":"","type":"uint8","internalType":"uint8"}],"stateMutability":"view"},{"type":"function","name":"REASON_NO_DIRECT_COLLATERAL_AND_NOT_SELF_FUNDING","inputs":[],"outputs":[{"name":"","type":"uint8","internalType":"uint8"}],"stateMutability":"view"},{"type":"function","name":"REASON_NO_ISOLATED_COLLATERAL","inputs":[],"outputs":[{"name":"","type":"uint8","internalType":"uint8"}],"stateMutability":"view"},{"type":"function","name":"REASON_SUB_UNIT_BORROW_NOT_POSSIBLE","inputs":[],"outputs":[{"name":"","type":"uint8","internalType":"uint8"}],"stateMutability":"view"},{"type":"function","name":"accountingUnitRaw","inputs":[],"outputs":[{"name":"","type":"uint256","internalType":"uint256"}],"stateMutability":"view"},{"type":"function","name":"actualBorrowedRaw","inputs":[],"outputs":[{"name":"","type":"uint256","internalType":"uint256"}],"stateMutability":"view"},{"type":"function","name":"actualCeilingToBypassRaw","inputs":[],"outputs":[{"name":"","type":"uint256","internalType":"uint256"}],"stateMutability":"view"},{"type":"function","name":"bootstrapFundingCostInDebtAssetRaw","inputs":[],"outputs":[{"name":"","type":"uint256","internalType":"uint256"}],"stateMutability":"view"},{"type":"function","name":"bootstrapProfitShortfallRaw","inputs":[],"outputs":[{"name":"","type":"uint256","internalType":"uint256"}],"stateMutability":"view"},{"type":"function","name":"borrowChunkRaw","inputs":[],"outputs":[{"name":"","type":"uint256","internalType":"uint256"}],"stateMutability":"view"},{"type":"function","name":"borrowableIsolationReserveCount","inputs":[],"outputs":[{"name":"","type":"uint256","internalType":"uint256"}],"stateMutability":"view"},{"type":"function","name":"ceilingBypassed","inputs":[],"outputs":[{"name":"","type":"bool","internalType":"bool"}],"stateMutability":"view"},{"type":"function","name":"executeOnOpportunity","inputs":[],"outputs":[],"stateMutability":"nonpayable"},{"type":"function","name":"executedBorrowLoops","inputs":[],"outputs":[{"name":"","type":"uint256","internalType":"uint256"}],"stateMutability":"view"},{"type":"function","name":"hypothesisValidated","inputs":[],"outputs":[{"name":"","type":"bool","internalType":"bool"}],"stateMutability":"view"},{"type":"function","name":"infeasibilityReason","inputs":[],"outputs":[{"name":"","type":"uint8","internalType":"uint8"}],"stateMutability":"view"},{"type":"function","name":"isolatedCollateralReserveCount","inputs":[],"outputs":[{"name":"","type":"uint256","internalType":"uint256"}],"stateMutability":"view"},{"type":"function","name":"lastScannedConfigData","inputs":[],"outputs":[{"name":"","type":"uint256","internalType":"uint256"}],"stateMutability":"view"},{"type":"function","name":"lastScannedReserve","inputs":[],"outputs":[{"name":"","type":"address","internalType":"address"}],"stateMutability":"view"},{"type":"function","name":"maxBorrowableAgainstHeldCollateralRaw","inputs":[],"outputs":[{"name":"","type":"uint256","internalType":"uint256"}],"stateMutability":"view"},{"type":"function","name":"poolPriceOracle","inputs":[],"outputs":[{"name":"","type":"address","internalType":"address"}],"stateMutability":"view"},{"type":"function","name":"profitAmount","inputs":[],"outputs":[{"name":"","type":"uint256","internalType":"uint256"}],"stateMutability":"view"},{"type":"function","name":"profitToken","inputs":[],"outputs":[{"name":"","type":"address","internalType":"address"}],"stateMutability":"view"},{"type":"function","name":"remainingCeilingUnitsBefore","inputs":[],"outputs":[{"name":"","type":"uint256","internalType":"uint256"}],"stateMutability":"view"},{"type":"function","name":"requiredBorrowLoops","inputs":[],"outputs":[{"name":"","type":"uint256","internalType":"uint256"}],"stateMutability":"view"},{"type":"function","name":"requiredCollateralValueBase","inputs":[],"outputs":[{"name":"","type":"uint256","internalType":"uint256"}],"stateMutability":"view"},{"type":"function","name":"scannedReserveCount","inputs":[],"outputs":[{"name":"","type":"uint256","internalType":"uint256"}],"stateMutability":"view"},{"type":"function","name":"selectedCollateralAsset","inputs":[],"outputs":[{"name":"","type":"address","internalType":"address"}],"stateMutability":"view"},{"type":"function","name":"selectedCollateralBalance","inputs":[],"outputs":[{"name":"","type":"uint256","internalType":"uint256"}],"stateMutability":"view"},{"type":"function","name":"selectedCollateralLtv","inputs":[],"outputs":[{"name":"","type":"uint256","internalType":"uint256"}],"stateMutability":"view"},{"type":"function","name":"selectedCollateralOraclePrice","inputs":[],"outputs":[{"name":"","type":"uint256","internalType":"uint256"}],"stateMutability":"view"},{"type":"function","name":"selectedDebtAsset","inputs":[],"outputs":[{"name":"","type":"address","internalType":"address"}],"stateMutability":"view"},{"type":"function","name":"selectedDebtAssetLiquidity","inputs":[],"outputs":[{"name":"","type":"uint256","internalType":"uint256"}],"stateMutability":"view"},{"type":"function","name":"selectedDebtCeiling","inputs":[],"outputs":[{"name":"","type":"uint256","internalType":"uint256"}],"stateMutability":"view"},{"type":"function","name":"selectedDebtDecimals","inputs":[],"outputs":[{"name":"","type":"uint256","internalType":"uint256"}],"stateMutability":"view"},{"type":"function","name":"selectedDebtOraclePrice","inputs":[],"outputs":[{"name":"","type":"uint256","internalType":"uint256"}],"stateMutability":"view"},{"type":"function","name":"selectedFlashBorrowAmountRaw","inputs":[],"outputs":[{"name":"","type":"uint256","internalType":"uint256"}],"stateMutability":"view"},{"type":"function","name":"selectedFlashCollateralTopUpRaw","inputs":[],"outputs":[{"name":"","type":"uint256","internalType":"uint256"}],"stateMutability":"view"},{"type":"function","name":"selectedFlashPair","inputs":[],"outputs":[{"name":"","type":"address","internalType":"address"}],"stateMutability":"view"},{"type":"function","name":"selectedFlashPathMid","inputs":[],"outputs":[{"name":"","type":"address","internalType":"address"}],"stateMutability":"view"},{"type":"function","name":"selectedFlashRepayAmountRaw","inputs":[],"outputs":[{"name":"","type":"uint256","internalType":"uint256"}],"stateMutability":"view"},{"type":"function","name":"selectedFlashRouter","inputs":[],"outputs":[{"name":"","type":"address","internalType":"address"}],"stateMutability":"view"},{"type":"function","name":"selectedHTokenCollateralBalance","inputs":[],"outputs":[{"name":"","type":"uint256","internalType":"uint256"}],"stateMutability":"view"},{"type":"function","name":"selectedUnderlyingCollateralBalance","inputs":[],"outputs":[{"name":"","type":"uint256","internalType":"uint256"}],"stateMutability":"view"},{"type":"function","name":"trackedDebtAfter","inputs":[],"outputs":[{"name":"","type":"uint256","internalType":"uint256"}],"stateMutability":"view"},{"type":"function","name":"trackedDebtBefore","inputs":[],"outputs":[{"name":"","type":"uint256","internalType":"uint256"}],"stateMutability":"view"},{"type":"function","name":"uniswapV2Call","inputs":[{"name":"","type":"address","internalType":"address"},{"name":"amount0","type":"uint256","internalType":"uint256"},{"name":"amount1","type":"uint256","internalType":"uint256"},{"name":"","type":"bytes","internalType":"bytes"}],"outputs":[],"stateMutability":"nonpayable"}],"bytecode":{"object":"0x6080604052348015600e575f5ffd5b50615f188061001c5f395ff3fe608060405234801561000f575f5ffd5b50600436106102ef575f3560e01c80637d45c0da1161019b578063c748959a116100e7578063df45eabc116100a0578063e60d16b01161007a578063e60d16b01461085f578063ee04b7d21461087d578063f4bbeffa1461089b578063fb04b958146108b9576102ef565b8063df45eabc14610805578063dfa6be1b14610823578063e225beac14610841576102ef565b8063c748959a14610751578063c7aa5caa1461076f578063c8a248111461078d578063cd9b5556146107ab578063d0275c13146107c9578063d3b7bda0146107e7576102ef565b80639af284d111610154578063afad6bfc1161012e578063afad6bfc146106d9578063b7edc2d9146106f7578063bcdac01014610715578063c04f828914610733576102ef565b80639af284d11461067f5780639c9b1f161461069d578063ae63d6ec146106bb576102ef565b80637d45c0da146105cb5780638676df91146105e95780638d3ed004146106075780638f19d35c1461062557806390f7a89e14610643578063989b765514610661576102ef565b806341a0c5b21161025a578063510a9f0f116102135780635d7d5cf4116101ed5780635d7d5cf4146105535780635ff972cc1461057157806360db9d451461058f5780636f367408146105ad576102ef565b8063510a9f0f146104f9578063513cc44d14610517578063589b48f814610535576102ef565b806341a0c5b214610445578063441b120014610463578063463defd114610481578063477fe3681461049f57806349343624146104bd5780634b8d55c6146104db576102ef565b806328b0fddf116102ac57806328b0fddf146103a5578063303b36e4146103c357806333ac125d146103e1578063393e1944146103ff5780633a9f9b041461041d5780633c2448ed1461043b576102ef565b8063028a4ceb146102f35780630979ddf214610311578063105ed87e1461032f57806310d1e85c1461034d5780631c1d10901461036957806326fa905614610387575b5f5ffd5b6102fb6108d7565b6040516103089190614df2565b60405180910390f35b6103196108dc565b6040516103269190614e23565b60405180910390f35b6103376108e2565b6040516103449190614e7b565b60405180910390f35b61036760048036038101906103629190614f5a565b610907565b005b6103716112b6565b60405161037e9190614e7b565b60405180910390f35b61038f6112db565b60405161039c9190614df2565b60405180910390f35b6103ad6112e0565b6040516103ba9190614e23565b60405180910390f35b6103cb6112e6565b6040516103d89190614e23565b60405180910390f35b6103e96112ec565b6040516103f69190614e23565b60405180910390f35b6104076112f2565b6040516104149190614e7b565b60405180910390f35b610425611317565b6040516104329190614df2565b60405180910390f35b61044361131c565b005b61044d611557565b60405161045a9190614e23565b60405180910390f35b61046b61155d565b6040516104789190614e7b565b60405180910390f35b610489611582565b6040516104969190614ff8565b60405180910390f35b6104a7611595565b6040516104b49190614e23565b60405180910390f35b6104c561159b565b6040516104d29190614e7b565b60405180910390f35b6104e36115c2565b6040516104f09190614e7b565b60405180910390f35b6105016115e7565b60405161050e9190614e23565b60405180910390f35b61051f6115ed565b60405161052c9190614e23565b60405180910390f35b61053d6115f3565b60405161054a9190614df2565b60405180910390f35b61055b6115f8565b6040516105689190614df2565b60405180910390f35b6105796115fd565b6040516105869190614e23565b60405180910390f35b610597611606565b6040516105a49190614e23565b60405180910390f35b6105b561160c565b6040516105c29190614e23565b60405180910390f35b6105d3611612565b6040516105e09190614e23565b60405180910390f35b6105f1611618565b6040516105fe9190614e23565b60405180910390f35b61060f61161e565b60405161061c9190614e23565b60405180910390f35b61062d611624565b60405161063a9190614e7b565b60405180910390f35b61064b611649565b6040516106589190614e23565b60405180910390f35b61066961164f565b6040516106769190614e23565b60405180910390f35b610687611655565b6040516106949190614e7b565b60405180910390f35b6106a561167a565b6040516106b29190614e23565b60405180910390f35b6106c3611680565b6040516106d09190614e23565b60405180910390f35b6106e1611686565b6040516106ee9190614e23565b60405180910390f35b6106ff61168c565b60405161070c9190614e23565b60405180910390f35b61071d611692565b60405161072a9190614df2565b60405180910390f35b61073b611696565b6040516107489190614df2565b60405180910390f35b61075961169b565b6040516107669190614e23565b60405180910390f35b6107776116a1565b6040516107849190614ff8565b60405180910390f35b6107956116b4565b6040516107a29190614e23565b60405180910390f35b6107b36116ba565b6040516107c09190614e23565b60405180910390f35b6107d16116c0565b6040516107de9190614e23565b60405180910390f35b6107ef6116c6565b6040516107fc9190614e23565b60405180910390f35b61080d6116cc565b60405161081a9190614e23565b60405180910390f35b61082b6116d2565b6040516108389190614df2565b60405180910390f35b6108496116e4565b6040516108569190614e23565b60405180910390f35b6108676116ea565b6040516108749190614e23565b60405180910390f35b6108856116f0565b6040516108929190614df2565b60405180910390f35b6108a36116f5565b6040516108b09190614e23565b60405180910390f35b6108c16116fb565b6040516108ce9190614e23565b60405180910390f35b600181565b600b5481565b60025f9054906101000a900473ffffffffffffffffffffffffffffffffffffffff1681565b60275f9054906101000a900473ffffffffffffffffffffffffffffffffffffffff1673ffffffffffffffffffffffffffffffffffffffff163373ffffffffffffffffffffffffffffffffffffffff161480156109b057505f73ffffffffffffffffffffffffffffffffffffffff1660275f9054906101000a900473ffffffffffffffffffffffffffffffffffffffff1673ffffffffffffffffffffffffffffffffffffffff1614155b6109ef576040517f08c379a00000000000000000000000000000000000000000000000000000000081526004016109e69061506b565b60405180910390fd5b5f5f85146109fd57846109ff565b835b9050602c548114610a45576040517f08c379a0000000000000000000000000000000000000000000000000000000008152600401610a3c906150d3565b60405180910390fd5b5f602a5467ffffffffffffffff811115610a6257610a616150f1565b5b604051908082528060200260200182016040528015610a905781602001602082028036833780820191505090505b50905060035f9054906101000a900473ffffffffffffffffffffffffffffffffffffffff16815f81518110610ac857610ac761511e565b5b602002602001019073ffffffffffffffffffffffffffffffffffffffff16908173ffffffffffffffffffffffffffffffffffffffff16815250506002602a5403610b815760025f9054906101000a900473ffffffffffffffffffffffffffffffffffffffff1681600181518110610b4257610b4161511e565b5b602002602001019073ffffffffffffffffffffffffffffffffffffffff16908173ffffffffffffffffffffffffffffffffffffffff1681525050610c62565b60295f9054906101000a900473ffffffffffffffffffffffffffffffffffffffff1681600181518110610bb757610bb661511e565b5b602002602001019073ffffffffffffffffffffffffffffffffffffffff16908173ffffffffffffffffffffffffffffffffffffffff168152505060025f9054906101000a900473ffffffffffffffffffffffffffffffffffffffff1681600281518110610c2757610c2661511e565b5b602002602001019073ffffffffffffffffffffffffffffffffffffffff16908173ffffffffffffffffffffffffffffffffffffffff16815250505b5f602b5414610d6557610cba60035f9054906101000a900473ffffffffffffffffffffffffffffffffffffffff1660285f9054906101000a900473ffffffffffffffffffffffffffffffffffffffff16602c54611701565b60285f9054906101000a900473ffffffffffffffffffffffffffffffffffffffff1673ffffffffffffffffffffffffffffffffffffffff16638803dbee602b54602c548430426040518663ffffffff1660e01b8152600401610d20959493929190615202565b5f604051808303815f875af1158015610d3b573d5f5f3e3d5ffd5b505050506040513d5f823e3d601f19601f82011682018060405250810190610d639190615389565b505b5f60025f9054906101000a900473ffffffffffffffffffffffffffffffffffffffff1673ffffffffffffffffffffffffffffffffffffffff166370a08231306040518263ffffffff1660e01b8152600401610dc09190614e7b565b602060405180830381865afa158015610ddb573d5f5f3e3d5ffd5b505050506040513d601f19601f82011682018060405250810190610dff91906153d0565b90505f8114610eea57610e4860025f9054906101000a900473ffffffffffffffffffffffffffffffffffffffff167353fbcada1201a465740f2d64ecdf6fac425f903083611701565b7353fbcada1201a465740f2d64ecdf6fac425f903073ffffffffffffffffffffffffffffffffffffffff1663617ba03760025f9054906101000a900473ffffffffffffffffffffffffffffffffffffffff1683305f6040518563ffffffff1660e01b8152600401610ebc949392919061544a565b5f604051808303815f87803b158015610ed3575f5ffd5b505af1158015610ee5573d5f5f3e3d5ffd5b505050505b7353fbcada1201a465740f2d64ecdf6fac425f903073ffffffffffffffffffffffffffffffffffffffff16635a3b74b960025f9054906101000a900473ffffffffffffffffffffffffffffffffffffffff1660016040518363ffffffff1660e01b8152600401610f5b92919061548d565b5f604051808303815f87803b158015610f72575f5ffd5b505af1158015610f84573d5f5f3e3d5ffd5b50505050610fb260035f9054906101000a900473ffffffffffffffffffffffffffffffffffffffff1661171c565b7353fbcada1201a465740f2d64ecdf6fac425f903073ffffffffffffffffffffffffffffffffffffffff166335ea6a7560025f9054906101000a900473ffffffffffffffffffffffffffffffffffffffff166040518263ffffffff1660e01b81526004016110209190614e7b565b6101e060405180830381865afa15801561103c573d5f5f3e3d5ffd5b505050506040513d601f19601f82011682018060405250810190611060919061570f565b6101c001516fffffffffffffffffffffffffffffffff16600e819055506110cc60035f9054906101000a900473ffffffffffffffffffffffffffffffffffffffff1660275f9054906101000a900473ffffffffffffffffffffffffffffffffffffffff16602d54611896565b5f60035f9054906101000a900473ffffffffffffffffffffffffffffffffffffffff1673ffffffffffffffffffffffffffffffffffffffff166370a08231306040518263ffffffff1660e01b81526004016111279190614e7b565b602060405180830381865afa158015611142573d5f5f3e3d5ffd5b505050506040513d601f19601f8201168201806040525081019061116691906153d0565b90505f602e548211611178575f611187565b602e54826111869190615768565b5b9050601054601354101580156111a05750600d54600e54145b601460026101000a81548160ff021916908315150217905550601460029054906101000a900460ff16601460016101000a81548160ff021916908315150217905550601460029054906101000a900460ff1680156111fe57505f8114155b156112745760035f9054906101000a900473ffffffffffffffffffffffffffffffffffffffff165f5f6101000a81548173ffffffffffffffffffffffffffffffffffffffff021916908373ffffffffffffffffffffffffffffffffffffffff1602179055508060018190555050505050506112af565b6040517f08c379a00000000000000000000000000000000000000000000000000000000081526004016112a6906157e5565b60405180910390fd5b5050505050565b60235f9054906101000a900473ffffffffffffffffffffffffffffffffffffffff1681565b600481565b601b5481565b60065481565b60245481565b60225f9054906101000a900473ffffffffffffffffffffffffffffffffffffffff1681565b600681565b6113246119e5565b5f61132d611d0e565b90505f73ffffffffffffffffffffffffffffffffffffffff16815f015173ffffffffffffffffffffffffffffffffffffffff161415801561139f57505f73ffffffffffffffffffffffffffffffffffffffff1681610140015173ffffffffffffffffffffffffffffffffffffffff1614155b156113bc576113ad81612136565b6113b681612373565b50611555565b5f6113c561275e565b90505f73ffffffffffffffffffffffffffffffffffffffff16815f015173ffffffffffffffffffffffffffffffffffffffff1603611473575f6016540361142657600160145f6101000a81548160ff021916908360ff16021790555061146c565b5f6017540361144f57600260145f6101000a81548160ff021916908360ff16021790555061146b565b600660145f6101000a81548160ff021916908360ff1602179055505b5b5050611555565b61147c81612136565b5f73ffffffffffffffffffffffffffffffffffffffff1660215f9054906101000a900473ffffffffffffffffffffffffffffffffffffffff1673ffffffffffffffffffffffffffffffffffffffff16148061152357505f73ffffffffffffffffffffffffffffffffffffffff1660225f9054906101000a900473ffffffffffffffffffffffffffffffffffffffff1673ffffffffffffffffffffffffffffffffffffffff16145b1561154a57600660145f6101000a81548160ff021916908360ff1602179055505050611555565b611552612e00565b50505b565b60175481565b601a5f9054906101000a900473ffffffffffffffffffffffffffffffffffffffff1681565b601460019054906101000a900460ff1681565b60155481565b5f5f5f9054906101000a900473ffffffffffffffffffffffffffffffffffffffff16905090565b60195f9054906101000a900473ffffffffffffffffffffffffffffffffffffffff1681565b60255481565b60095481565b600281565b600581565b5f600154905090565b600e5481565b60075481565b600f5481565b601c5481565b601d5481565b60035f9054906101000a900473ffffffffffffffffffffffffffffffffffffffff1681565b60105481565b600c5481565b60215f9054906101000a900473ffffffffffffffffffffffffffffffffffffffff1681565b60165481565b60045481565b60135481565b60055481565b5f81565b600381565b601e5481565b601460029054906101000a900460ff1681565b600a5481565b601f5481565b60265481565b60205481565b60085481565b60145f9054906101000a900460ff1681565b60125481565b60115481565b600781565b60185481565b600d5481565b61170c83835f6132cd565b6117178383836132cd565b505050565b5f5f90505b601154811080156117345750620557305a115b15611892575f7353fbcada1201a465740f2d64ecdf6fac425f903073ffffffffffffffffffffffffffffffffffffffff1663a415bcad60e01b84600c5460025f30604051602401611789959493929190615833565b604051602081830303815290604052907bffffffffffffffffffffffffffffffffffffffffffffffffffffffff19166020820180517bffffffffffffffffffffffffffffffffffffffffffffffffffffffff83818316178352505050506040516117f391906158d6565b5f604051808303815f865af19150503d805f811461182c576040519150601f19603f3d011682016040523d82523d5f602084013e611831565b606091505b50509050806118405750611892565b60125f815461184e906158ec565b91905081905550600c5460135f8282546118689190615933565b92505081905550601054601354106118805750611892565b508061188b906158ec565b9050611721565b5050565b5f5f8473ffffffffffffffffffffffffffffffffffffffff1663a9059cbb60e01b85856040516024016118ca929190615966565b604051602081830303815290604052907bffffffffffffffffffffffffffffffffffffffffffffffffffffffff19166020820180517bffffffffffffffffffffffffffffffffffffffffffffffffffffffff838183161783525050505060405161193491906158d6565b5f604051808303815f865af19150503d805f811461196d576040519150601f19603f3d011682016040523d82523d5f602084013e611972565b606091505b509150915081801561199f57505f8151148061199e57508080602001905181019061199d91906159b7565b5b5b6119de576040517f08c379a00000000000000000000000000000000000000000000000000000000081526004016119d590615a2c565b60405180910390fd5b5050505050565b5f5f5f6101000a81548173ffffffffffffffffffffffffffffffffffffffff021916908373ffffffffffffffffffffffffffffffffffffffff1602179055505f6001819055505f60025f6101000a81548173ffffffffffffffffffffffffffffffffffffffff021916908373ffffffffffffffffffffffffffffffffffffffff1602179055505f60035f6101000a81548173ffffffffffffffffffffffffffffffffffffffff021916908373ffffffffffffffffffffffffffffffffffffffff1602179055505f6004819055505f6005819055505f6006819055505f6007819055505f6008819055505f6009819055505f600a819055505f600b819055505f600c819055505f600d819055505f600e819055505f600f819055505f6010819055505f6011819055505f6012819055505f6013819055505f60145f6101000a81548160ff021916908360ff1602179055505f601460016101000a81548160ff0219169083151502179055505f601460026101000a81548160ff0219169083151502179055505f6015819055505f6016819055505f6017819055505f6018819055505f60195f6101000a81548173ffffffffffffffffffffffffffffffffffffffff021916908373ffffffffffffffffffffffffffffffffffffffff1602179055505f601a5f6101000a81548173ffffffffffffffffffffffffffffffffffffffff021916908373ffffffffffffffffffffffffffffffffffffffff1602179055505f601b819055505f601c819055505f601d819055505f601e819055505f601f819055505f6020819055505f60215f6101000a81548173ffffffffffffffffffffffffffffffffffffffff021916908373ffffffffffffffffffffffffffffffffffffffff1602179055505f60225f6101000a81548173ffffffffffffffffffffffffffffffffffffffff021916908373ffffffffffffffffffffffffffffffffffffffff1602179055505f60235f6101000a81548173ffffffffffffffffffffffffffffffffffffffff021916908373ffffffffffffffffffffffffffffffffffffffff1602179055505f6024819055505f6025819055505f602681905550611d0c61341c565b565b611d16614c57565b5f7353fbcada1201a465740f2d64ecdf6fac425f903073ffffffffffffffffffffffffffffffffffffffff1663d1946dbc6040518163ffffffff1660e01b81526004015f60405180830381865afa158015611d73573d5f5f3e3d5ffd5b505050506040513d5f823e3d601f19601f82011682018060405250810190611d9b9190615b0a565b905080516015819055505f7353fbcada1201a465740f2d64ecdf6fac425f903073ffffffffffffffffffffffffffffffffffffffff16630542975c6040518163ffffffff1660e01b8152600401602060405180830381865afa158015611e03573d5f5f3e3d5ffd5b505050506040513d601f19601f82011682018060405250810190611e279190615b51565b73ffffffffffffffffffffffffffffffffffffffff1663fca513a86040518163ffffffff1660e01b8152600401602060405180830381865afa158015611e6f573d5f5f3e3d5ffd5b505050506040513d601f19601f82011682018060405250810190611e939190615b51565b905080601a5f6101000a81548173ffffffffffffffffffffffffffffffffffffffff021916908373ffffffffffffffffffffffffffffffffffffffff1602179055505f5f90505b8251811015612038575f838281518110611ef757611ef661511e565b5b602002602001015190505f7353fbcada1201a465740f2d64ecdf6fac425f903073ffffffffffffffffffffffffffffffffffffffff166335ea6a75836040518263ffffffff1660e01b8152600401611f4f9190614e7b565b6101e060405180830381865afa158015611f6b573d5f5f3e3d5ffd5b505050506040513d601f19601f82011682018060405250810190611f8f919061570f565b90505f815f01515f015190508260195f6101000a81548173ffffffffffffffffffffffffffffffffffffffff021916908373ffffffffffffffffffffffffffffffffffffffff16021790555080601881905550611feb81613501565b156120065760175f8154611ffe906158ec565b919050819055505b61200f81613562565b1561202a5760165f8154612022906158ec565b919050819055505b505050806001019050611eda565b505f5f90505b8251811015612130575f61206c84838151811061205e5761205d61511e565b5b6020026020010151846135c3565b90505f73ffffffffffffffffffffffffffffffffffffffff16815f015173ffffffffffffffffffffffffffffffffffffffff1614806120ae57505f8160600151145b156120b95750612125565b5f5f90505b8451811015612122575f6120ed838784815181106120df576120de61511e565b5b6020026020010151876138ec565b90506120f881613caf565b6121025750612117565b61210c8188613d76565b15612115578096505b505b8060010190506120be565b50505b80600101905061203e565b50505090565b5f73ffffffffffffffffffffffffffffffffffffffff1681610140015173ffffffffffffffffffffffffffffffffffffffff16031561237057805f015160025f6101000a81548173ffffffffffffffffffffffffffffffffffffffff021916908373ffffffffffffffffffffffffffffffffffffffff16021790555080610140015160035f6101000a81548173ffffffffffffffffffffffffffffffffffffffff021916908373ffffffffffffffffffffffffffffffffffffffff16021790555080606001516004819055508060200151600581905550806040015160068190555080608001516007819055508060c00151601b819055508060e00151600881905550806101800151600981905550806101600151600a81905550806101a00151601c81905550806101000151600d81905550806101200151600f81905550806101c00151601d819055506002816101800151116122ae57600360145f6101000a81548160ff021916908360ff160217905550612370565b60028161018001516122c09190615768565b600a6122cc9190615cab565b600b819055506001600b546122e19190615768565b600c81905550806101e0015160108190555080610200015160118190555061230e816101e0015182613f0f565b601e81905550601054816101600151101561234357600460145f6101000a81548160ff021916908360ff160217905550612370565b610100601154111561236f57600560145f6101000a81548160ff021916908360ff160217905550612370565b5b50565b5f81610140015173ffffffffffffffffffffffffffffffffffffffff166370a08231306040518263ffffffff1660e01b81526004016123b29190614e7b565b602060405180830381865afa1580156123cd573d5f5f3e3d5ffd5b505050506040513d601f19601f820116820180604052508101906123f191906153d0565b90505f8260200151146124ac57612424825f01517353fbcada1201a465740f2d64ecdf6fac425f90308460200151611701565b7353fbcada1201a465740f2d64ecdf6fac425f903073ffffffffffffffffffffffffffffffffffffffff1663617ba037835f01518460200151305f6040518563ffffffff1660e01b815260040161247e949392919061544a565b5f604051808303815f87803b158015612495575f5ffd5b505af11580156124a7573d5f5f3e3d5ffd5b505050505b7353fbcada1201a465740f2d64ecdf6fac425f903073ffffffffffffffffffffffffffffffffffffffff16635a3b74b9835f015160016040518363ffffffff1660e01b81526004016124ff92919061548d565b5f604051808303815f87803b158015612516575f5ffd5b505af1158015612528573d5f5f3e3d5ffd5b5050505061253a82610140015161171c565b7353fbcada1201a465740f2d64ecdf6fac425f903073ffffffffffffffffffffffffffffffffffffffff166335ea6a75835f01516040518263ffffffff1660e01b815260040161258a9190614e7b565b6101e060405180830381865afa1580156125a6573d5f5f3e3d5ffd5b505050506040513d601f19601f820116820180604052508101906125ca919061570f565b6101c001516fffffffffffffffffffffffffffffffff16600e819055505f82610140015173ffffffffffffffffffffffffffffffffffffffff166370a08231306040518263ffffffff1660e01b81526004016126269190614e7b565b602060405180830381865afa158015612641573d5f5f3e3d5ffd5b505050506040513d601f19601f8201168201806040525081019061266591906153d0565b90506010546013541015801561267e5750600d54600e54145b601460026101000a81548160ff021916908315150217905550601460029054906101000a900460ff16601460016101000a81548160ff021916908315150217905550601460029054906101000a900460ff1680156126db57508181115b1561273d578261014001515f5f6101000a81548173ffffffffffffffffffffffffffffffffffffffff021916908373ffffffffffffffffffffffffffffffffffffffff16021790555081816127309190615768565b600181905550505061275b565b600760145f6101000a81548160ff021916908360ff16021790555050505b50565b612766614c57565b5f7353fbcada1201a465740f2d64ecdf6fac425f903073ffffffffffffffffffffffffffffffffffffffff1663d1946dbc6040518163ffffffff1660e01b81526004015f60405180830381865afa1580156127c3573d5f5f3e3d5ffd5b505050506040513d5f823e3d601f19601f820116820180604052508101906127eb9190615b0a565b905080516015819055505f601a5f9054906101000a900473ffffffffffffffffffffffffffffffffffffffff1690505f73ffffffffffffffffffffffffffffffffffffffff168173ffffffffffffffffffffffffffffffffffffffff160361297d577353fbcada1201a465740f2d64ecdf6fac425f903073ffffffffffffffffffffffffffffffffffffffff16630542975c6040518163ffffffff1660e01b8152600401602060405180830381865afa1580156128aa573d5f5f3e3d5ffd5b505050506040513d601f19601f820116820180604052508101906128ce9190615b51565b73ffffffffffffffffffffffffffffffffffffffff1663fca513a86040518163ffffffff1660e01b8152600401602060405180830381865afa158015612916573d5f5f3e3d5ffd5b505050506040513d601f19601f8201168201806040525081019061293a9190615b51565b905080601a5f6101000a81548173ffffffffffffffffffffffffffffffffffffffff021916908373ffffffffffffffffffffffffffffffffffffffff1602179055505b5f6016819055505f6017819055505f5f90505b8251811015612aee575f8382815181106129ad576129ac61511e565b5b602002602001015190505f7353fbcada1201a465740f2d64ecdf6fac425f903073ffffffffffffffffffffffffffffffffffffffff166335ea6a75836040518263ffffffff1660e01b8152600401612a059190614e7b565b6101e060405180830381865afa158015612a21573d5f5f3e3d5ffd5b505050506040513d601f19601f82011682018060405250810190612a45919061570f565b90505f815f01515f015190508260195f6101000a81548173ffffffffffffffffffffffffffffffffffffffff021916908373ffffffffffffffffffffffffffffffffffffffff16021790555080601881905550612aa181613501565b15612abc5760175f8154612ab4906158ec565b919050819055505b612ac581613562565b15612ae05760165f8154612ad8906158ec565b919050819055505b505050806001019050612990565b50612af7614cf6565b5f5f90505b8351811015612c99575f612b2a858381518110612b1c57612b1b61511e565b5b6020026020010151856135c3565b90505f73ffffffffffffffffffffffffffffffffffffffff16815f015173ffffffffffffffffffffffffffffffffffffffff1603612b685750612c8e565b5f5f90505b8551811015612c8b575f612b9c83888481518110612b8e57612b8d61511e565b5b6020026020010151886138ec565b9050612ba781613f64565b612bb15750612c80565b5f612bbb82614047565b90505f73ffffffffffffffffffffffffffffffffffffffff16815f015173ffffffffffffffffffffffffffffffffffffffff161480612bfd57505f8160e00151145b15612c09575050612c80565b5f73ffffffffffffffffffffffffffffffffffffffff16895f015173ffffffffffffffffffffffffffffffffffffffff161480612c4d57508560e001518160e00151115b80612c7157508560e001518160e00151148015612c705750612c6f828a613d76565b5b5b15612c7d578198508095505b50505b806001019050612b6d565b50505b806001019050612afc565b505f73ffffffffffffffffffffffffffffffffffffffff16845f015173ffffffffffffffffffffffffffffffffffffffff1614612dfa57805f015160215f6101000a81548173ffffffffffffffffffffffffffffffffffffffff021916908373ffffffffffffffffffffffffffffffffffffffff160217905550806020015160225f6101000a81548173ffffffffffffffffffffffffffffffffffffffff021916908373ffffffffffffffffffffffffffffffffffffffff160217905550806040015160235f6101000a81548173ffffffffffffffffffffffffffffffffffffffff021916908373ffffffffffffffffffffffffffffffffffffffff16021790555080608001516024819055508060a001516025819055508060c001516026819055508060c00151601f819055508060c00151846101e0015111612df157836101e001518160c00151612dec9190615768565b612df3565b5f5b6020819055505b50505090565b60215f9054906101000a900473ffffffffffffffffffffffffffffffffffffffff1660275f6101000a81548173ffffffffffffffffffffffffffffffffffffffff021916908373ffffffffffffffffffffffffffffffffffffffff16021790555060225f9054906101000a900473ffffffffffffffffffffffffffffffffffffffff1660285f6101000a81548173ffffffffffffffffffffffffffffffffffffffff021916908373ffffffffffffffffffffffffffffffffffffffff16021790555060235f9054906101000a900473ffffffffffffffffffffffffffffffffffffffff1660295f6101000a81548173ffffffffffffffffffffffffffffffffffffffff021916908373ffffffffffffffffffffffffffffffffffffffff1602179055505f73ffffffffffffffffffffffffffffffffffffffff1660235f9054906101000a900473ffffffffffffffffffffffffffffffffffffffff1673ffffffffffffffffffffffffffffffffffffffff1614612f7e576003612f81565b60025b60ff16602a81905550602454602b81905550602554602c81905550602654602d8190555060035f9054906101000a900473ffffffffffffffffffffffffffffffffffffffff1673ffffffffffffffffffffffffffffffffffffffff166370a08231306040518263ffffffff1660e01b8152600401612fff9190614e7b565b602060405180830381865afa15801561301a573d5f5f3e3d5ffd5b505050506040513d601f19601f8201168201806040525081019061303e91906153d0565b602e819055505f60215f9054906101000a900473ffffffffffffffffffffffffffffffffffffffff1673ffffffffffffffffffffffffffffffffffffffff16630dfe16816040518163ffffffff1660e01b8152600401602060405180830381865afa1580156130af573d5f5f3e3d5ffd5b505050506040513d601f19601f820116820180604052508101906130d39190615b51565b90505f60035f9054906101000a900473ffffffffffffffffffffffffffffffffffffffff1673ffffffffffffffffffffffffffffffffffffffff168273ffffffffffffffffffffffffffffffffffffffff1614613130575f613134565b6025545b90505f5f8214613144575f613148565b6025545b90505f60215f9054906101000a900473ffffffffffffffffffffffffffffffffffffffff1673ffffffffffffffffffffffffffffffffffffffff1663022c0d9f60e01b8484306040518060400160405280600881526020017f686f70656c656e640000000000000000000000000000000000000000000000008152506040516024016131d79493929190615d3d565b604051602081830303815290604052907bffffffffffffffffffffffffffffffffffffffffffffffffffffffff19166020820180517bffffffffffffffffffffffffffffffffffffffffffffffffffffffff838183161783525050505060405161324191906158d6565b5f604051808303815f865af19150503d805f811461327a576040519150601f19603f3d011682016040523d82523d5f602084013e61327f565b606091505b5050905061328b61341c565b801580156132a65750601460029054906101000a900460ff16155b156132c757600760145f6101000a81548160ff021916908360ff1602179055505b50505050565b5f5f8473ffffffffffffffffffffffffffffffffffffffff1663095ea7b360e01b8585604051602401613301929190615966565b604051602081830303815290604052907bffffffffffffffffffffffffffffffffffffffffffffffffffffffff19166020820180517bffffffffffffffffffffffffffffffffffffffffffffffffffffffff838183161783525050505060405161336b91906158d6565b5f604051808303815f865af19150503d805f81146133a4576040519150601f19603f3d011682016040523d82523d5f602084013e6133a9565b606091505b50915091508180156133d657505f815114806133d55750808060200190518101906133d491906159b7565b5b5b613415576040517f08c379a000000000000000000000000000000000000000000000000000000000815260040161340c90615dd1565b60405180910390fd5b5050505050565b5f60275f6101000a81548173ffffffffffffffffffffffffffffffffffffffff021916908373ffffffffffffffffffffffffffffffffffffffff1602179055505f60285f6101000a81548173ffffffffffffffffffffffffffffffffffffffff021916908373ffffffffffffffffffffffffffffffffffffffff1602179055505f60295f6101000a81548173ffffffffffffffffffffffffffffffffffffffff021916908373ffffffffffffffffffffffffffffffffffffffff1602179055505f602a819055505f602b819055505f602c819055505f602d819055505f602e81905550565b5f61350d826038614103565b8015613521575061351f826039614103565b155b8015613535575061353382603c614103565b155b8015613548575061354782603a614103565b5b801561355b575061355a82603d614103565b5b9050919050565b5f61356e826038614103565b80156135825750613580826039614103565b155b8015613596575061359482603c614103565b155b80156135a957505f6135a783614116565b115b80156135bc57505f6135ba83614123565b115b9050919050565b6135cb614d78565b5f7353fbcada1201a465740f2d64ecdf6fac425f903073ffffffffffffffffffffffffffffffffffffffff166335ea6a75856040518263ffffffff1660e01b81526004016136199190614e7b565b6101e060405180830381865afa158015613635573d5f5f3e3d5ffd5b505050506040513d601f19601f82011682018060405250810190613659919061570f565b90505f815f01515f0151905061366e81613562565b6136795750506138e6565b84835f019073ffffffffffffffffffffffffffffffffffffffff16908173ffffffffffffffffffffffffffffffffffffffff16815250508473ffffffffffffffffffffffffffffffffffffffff166370a08231306040518263ffffffff1660e01b81526004016136e99190614e7b565b602060405180830381865afa158015613704573d5f5f3e3d5ffd5b505050506040513d601f19601f8201168201806040525081019061372891906153d0565b83602001818152505081610100015173ffffffffffffffffffffffffffffffffffffffff166370a08231306040518263ffffffff1660e01b815260040161376f9190614e7b565b602060405180830381865afa15801561378a573d5f5f3e3d5ffd5b505050506040513d601f19601f820116820180604052508101906137ae91906153d0565b836040018181525050826040015183602001516137cb9190615933565b8360600181815250506137dd81614116565b8360800181815250506137ef81614137565b8360a00181815250508373ffffffffffffffffffffffffffffffffffffffff1663b3596f07866040518263ffffffff1660e01b81526004016138319190614e7b565b602060405180830381865afa15801561384c573d5f5f3e3d5ffd5b505050506040513d601f19601f8201168201806040525081019061387091906153d0565b8360c001818152505061388281614123565b8360e0018181525050816101c001516fffffffffffffffffffffffffffffffff16836101000181815250508261010001518360e00151116138c3575f6138d9565b8261010001518360e001516138d89190615768565b5b8361012001818152505050505b92915050565b6138f4614c57565b5f7353fbcada1201a465740f2d64ecdf6fac425f903073ffffffffffffffffffffffffffffffffffffffff166335ea6a75856040518263ffffffff1660e01b81526004016139429190614e7b565b6101e060405180830381865afa15801561395e573d5f5f3e3d5ffd5b505050506040513d601f19601f82011682018060405250810190613982919061570f565b90505f815f01515f0151905061399781613501565b6139a2575050613ca8565b5f6139ac82614137565b9050600281116139be57505050613ca8565b5f6002826139cc9190615768565b600a6139d89190615cab565b90505f6001826139e89190615768565b90505f5f8a610120015114613a19576001838b6101200151613a0a9190615def565b613a149190615933565b613a1b565b815b90505f8873ffffffffffffffffffffffffffffffffffffffff1663b3596f078b6040518263ffffffff1660e01b8152600401613a579190614e7b565b602060405180830381865afa158015613a72573d5f5f3e3d5ffd5b505050506040513d601f19601f82011682018060405250810190613a9691906153d0565b90505f5f8c606001511480613aae57505f8c60c00151145b80613ab857505f82145b613adf57613ada8c606001518d60a001518e60c001518f608001518a87614147565b613ae1565b5f5b90508b5f0151895f019073ffffffffffffffffffffffffffffffffffffffff16908173ffffffffffffffffffffffffffffffffffffffff16815250508b602001518960200181815250508b604001518960400181815250508b606001518960600181815250508b608001518960800181815250508b60a001518960a00181815250508b60c001518960c00181815250508b60e001518960e00181815250508b6101000151896101000181815250508b6101200151896101200181815250508a89610140019073ffffffffffffffffffffffffffffffffffffffff16908173ffffffffffffffffffffffffffffffffffffffff16815250508a73ffffffffffffffffffffffffffffffffffffffff166370a082318961010001516040518263ffffffff1660e01b8152600401613c169190614e7b565b602060405180830381865afa158015613c31573d5f5f3e3d5ffd5b505050506040513d601f19601f82011682018060405250810190613c5591906153d0565b89610160018181525050858961018001818152505081896101a001818152505080896101c001818152505082896101e0018181525050613c9583856141ea565b8961020001818152505050505050505050505b9392505050565b5f5f73ffffffffffffffffffffffffffffffffffffffff16825f015173ffffffffffffffffffffffffffffffffffffffff1614158015613d2057505f73ffffffffffffffffffffffffffffffffffffffff1682610140015173ffffffffffffffffffffffffffffffffffffffff1614155b8015613d3057505f826060015114155b8015613d465750816101e00151826101c0015110155b8015613d5c5750816101e0015182610160015110155b8015613d6f575061010082610200015111155b9050919050565b5f5f73ffffffffffffffffffffffffffffffffffffffff16835f015173ffffffffffffffffffffffffffffffffffffffff161480613de457505f73ffffffffffffffffffffffffffffffffffffffff1683610140015173ffffffffffffffffffffffffffffffffffffffff16145b15613df1575f9050613f09565b5f73ffffffffffffffffffffffffffffffffffffffff16825f015173ffffffffffffffffffffffffffffffffffffffff1603613e305760019050613f09565b5f5f8460600151141590505f5f84606001511415905080151582151514613e5b578192505050613f09565b83610180015185610180015114613e82578361018001518561018001511192505050613f09565b83610200015185610200015114613ea9578361020001518561020001511092505050613f09565b836101e00151856101e0015114613ed057836101e00151856101e001511192505050613f09565b836101c00151856101c0015114613ef757836101c00151856101c001511192505050613f09565b83610160015185610160015111925050505b92915050565b5f5f826101800151600a613f239190615cab565b836101a0015185613f349190615def565b613f3e9190615e5d565b9050613f5b61271082613f519190615def565b84608001516141ea565b91505092915050565b5f5f73ffffffffffffffffffffffffffffffffffffffff16825f015173ffffffffffffffffffffffffffffffffffffffff1614158015613fd557505f73ffffffffffffffffffffffffffffffffffffffff1682610140015173ffffffffffffffffffffffffffffffffffffffff1614155b8015613fe657506002826101800151115b8015613ff657505f826080015114155b801561400657505f8260c0015114155b801561401757505f826101a0015114155b801561402d5750816101e0015182610160015110155b8015614040575061010082610200015111155b9050919050565b61404f614cf6565b5f61405983614225565b90508260600151811161406c57506140fe565b5f83606001518261407d9190615768565b90505f6140b48583735c69bee701ef814a2b6a3edd4b1652cb9cc5aa6f737a250d5630b4cf539739df2c5dacb4c659f2488d614275565b90505f6140eb868473c0aee478e3658e2610c5f7a4a2e1777ce9e4f2ac73d9e1ce17f2641f24ae83637ab66a2cca9c378b9f614275565b90506140f78282614848565b9450505050505b919050565b5f5f60018385901c161415905092915050565b5f61ffff82169050919050565b5f64ffffffffff60d483901c169050919050565b5f60ff603083901c169050919050565b5f5f87148061415557505f85145b8061415f57505f84145b8061416957505f82145b15614176575f90506141e0565b5f86600a6141849190615cab565b86896141909190615def565b61419a9190615e5d565b90505f61271086836141ac9190615def565b6141b69190615e5d565b90508385600a6141c69190615cab565b826141d19190615def565b6141db9190615e5d565b925050505b9695505050505050565b5f5f831461421b576001826001856142029190615768565b61420c9190615e5d565b6142169190615933565b61421d565b5f5b905092915050565b5f5f614236836101e0015184613f0f565b905060016142638460a00151600a61424e9190615cab565b836142599190615def565b8560c001516141ea565b61426d9190615933565b915050919050565b61427d614cf6565b845f015173ffffffffffffffffffffffffffffffffffffffff1685610140015173ffffffffffffffffffffffffffffffffffffffff1614806142be57505f84145b614840575f8373ffffffffffffffffffffffffffffffffffffffff1663e6a43905876101400151885f01516040518363ffffffff1660e01b8152600401614306929190615e8d565b602060405180830381865afa158015614321573d5f5f3e3d5ffd5b505050506040513d601f19601f820116820180604052508101906143459190615b51565b90505f73ffffffffffffffffffffffffffffffffffffffff168173ffffffffffffffffffffffffffffffffffffffff161461447e575f600267ffffffffffffffff811115614396576143956150f1565b5b6040519080825280602002602001820160405280156143c45781602001602082028036833780820191505090505b509050866101400151815f815181106143e0576143df61511e565b5b602002602001019073ffffffffffffffffffffffffffffffffffffffff16908173ffffffffffffffffffffffffffffffffffffffff1681525050865f0151816001815181106144325761443161511e565b5b602002602001019073ffffffffffffffffffffffffffffffffffffffff16908173ffffffffffffffffffffffffffffffffffffffff168152505061447a87878685855f61491e565b9250505b73c02aaa39b223fe8d0a0e5c4f27ead9083c756cc273ffffffffffffffffffffffffffffffffffffffff1686610140015173ffffffffffffffffffffffffffffffffffffffff1614158015614516575073c02aaa39b223fe8d0a0e5c4f27ead9083c756cc273ffffffffffffffffffffffffffffffffffffffff16865f015173ffffffffffffffffffffffffffffffffffffffff1614155b1561483e575f8473ffffffffffffffffffffffffffffffffffffffff1663e6a4390588610140015173c02aaa39b223fe8d0a0e5c4f27ead9083c756cc26040518363ffffffff1660e01b8152600401614570929190615e8d565b602060405180830381865afa15801561458b573d5f5f3e3d5ffd5b505050506040513d601f19601f820116820180604052508101906145af9190615b51565b90505f8573ffffffffffffffffffffffffffffffffffffffff1663e6a4390573c02aaa39b223fe8d0a0e5c4f27ead9083c756cc28a5f01516040518363ffffffff1660e01b8152600401614604929190615e8d565b602060405180830381865afa15801561461f573d5f5f3e3d5ffd5b505050506040513d601f19601f820116820180604052508101906146439190615b51565b90505f73ffffffffffffffffffffffffffffffffffffffff168273ffffffffffffffffffffffffffffffffffffffff16141580156146ad57505f73ffffffffffffffffffffffffffffffffffffffff168173ffffffffffffffffffffffffffffffffffffffff1614155b1561483b575f600367ffffffffffffffff8111156146ce576146cd6150f1565b5b6040519080825280602002602001820160405280156146fc5781602001602082028036833780820191505090505b509050886101400151815f815181106147185761471761511e565b5b602002602001019073ffffffffffffffffffffffffffffffffffffffff16908173ffffffffffffffffffffffffffffffffffffffff168152505073c02aaa39b223fe8d0a0e5c4f27ead9083c756cc28160018151811061477b5761477a61511e565b5b602002602001019073ffffffffffffffffffffffffffffffffffffffff16908173ffffffffffffffffffffffffffffffffffffffff1681525050885f0151816002815181106147cd576147cc61511e565b5b602002602001019073ffffffffffffffffffffffffffffffffffffffff16908173ffffffffffffffffffffffffffffffffffffffff16815250505f61482a8a8a89878673c02aaa39b223fe8d0a0e5c4f27ead9083c756cc261491e565b90506148368682614848565b955050505b50505b505b949350505050565b614850614cf6565b5f73ffffffffffffffffffffffffffffffffffffffff16835f015173ffffffffffffffffffffffffffffffffffffffff160361488e57819050614918565b5f73ffffffffffffffffffffffffffffffffffffffff16825f015173ffffffffffffffffffffffffffffffffffffffff16036148cc57829050614918565b8260e001518260e0015111156148e457819050614918565b8260e001518260e0015110156148fc57829050614918565b8260c001518260c00151101561491457819050614918565b8290505b92915050565b614926614cf6565b5f5f614933878987614b22565b9150915081158061494457505f8151145b15614950575050614b18565b5f815f815181106149645761496361511e565b5b602002602001015190505f61497882614c36565b90505f82148061498d57508a6101e001518110155b80614a135750818b610140015173ffffffffffffffffffffffffffffffffffffffff166370a082318a6040518263ffffffff1660e01b81526004016149d29190614e7b565b602060405180830381865afa1580156149ed573d5f5f3e3d5ffd5b505050506040513d601f19601f82011682018060405250810190614a1191906153d0565b105b15614a215750505050614b18565b87855f019073ffffffffffffffffffffffffffffffffffffffff16908173ffffffffffffffffffffffffffffffffffffffff168152505088856020019073ffffffffffffffffffffffffffffffffffffffff16908173ffffffffffffffffffffffffffffffffffffffff168152505085856040019073ffffffffffffffffffffffffffffffffffffffff16908173ffffffffffffffffffffffffffffffffffffffff16815250508651856060019060ff16908160ff168152505089856080018181525050818560a0018181525050808560c0018181525050808b6101e00151614b0a9190615768565b8560e0018181525050505050505b9695505050505050565b5f6060808573ffffffffffffffffffffffffffffffffffffffff16631f00ca7460e01b8686604051602401614b58929190615eb4565b604051602081830303815290604052907bffffffffffffffffffffffffffffffffffffffffffffffffffffffff19166020820180517bffffffffffffffffffffffffffffffffffffffffffffffffffffffff8381831617835250505050604051614bc291906158d6565b5f60405180830381855afa9150503d805f8114614bfa576040519150601f19603f3d011682016040523d82523d5f602084013e614bff565b606091505b50809250819450505082614c16575f925050614c2e565b80806020019051810190614c2a9190615389565b9150505b935093915050565b5f614c506103e883614c489190615def565b6103e56141ea565b9050919050565b6040518061022001604052805f73ffffffffffffffffffffffffffffffffffffffff1681526020015f81526020015f81526020015f81526020015f81526020015f81526020015f81526020015f81526020015f81526020015f81526020015f73ffffffffffffffffffffffffffffffffffffffff1681526020015f81526020015f81526020015f81526020015f81526020015f81526020015f81525090565b6040518061010001604052805f73ffffffffffffffffffffffffffffffffffffffff1681526020015f73ffffffffffffffffffffffffffffffffffffffff1681526020015f73ffffffffffffffffffffffffffffffffffffffff1681526020015f60ff1681526020015f81526020015f81526020015f81526020015f81525090565b6040518061014001604052805f73ffffffffffffffffffffffffffffffffffffffff1681526020015f81526020015f81526020015f81526020015f81526020015f81526020015f81526020015f81526020015f81526020015f81525090565b5f60ff82169050919050565b614dec81614dd7565b82525050565b5f602082019050614e055f830184614de3565b92915050565b5f819050919050565b614e1d81614e0b565b82525050565b5f602082019050614e365f830184614e14565b92915050565b5f73ffffffffffffffffffffffffffffffffffffffff82169050919050565b5f614e6582614e3c565b9050919050565b614e7581614e5b565b82525050565b5f602082019050614e8e5f830184614e6c565b92915050565b5f604051905090565b5f5ffd5b5f5ffd5b614eae81614e5b565b8114614eb8575f5ffd5b50565b5f81359050614ec981614ea5565b92915050565b614ed881614e0b565b8114614ee2575f5ffd5b50565b5f81359050614ef381614ecf565b92915050565b5f5ffd5b5f5ffd5b5f5ffd5b5f5f83601f840112614f1a57614f19614ef9565b5b8235905067ffffffffffffffff811115614f3757614f36614efd565b5b602083019150836001820283011115614f5357614f52614f01565b5b9250929050565b5f5f5f5f5f60808688031215614f7357614f72614e9d565b5b5f614f8088828901614ebb565b9550506020614f9188828901614ee5565b9450506040614fa288828901614ee5565b935050606086013567ffffffffffffffff811115614fc357614fc2614ea1565b5b614fcf88828901614f05565b92509250509295509295909350565b5f8115159050919050565b614ff281614fde565b82525050565b5f60208201905061500b5f830184614fe9565b92915050565b5f82825260208201905092915050565b7f464c4153485f43414c4c4241434b0000000000000000000000000000000000005f82015250565b5f615055600e83615011565b915061506082615021565b602082019050919050565b5f6020820190508181035f83015261508281615049565b9050919050565b7f464c4153485f414d4f554e5400000000000000000000000000000000000000005f82015250565b5f6150bd600c83615011565b91506150c882615089565b602082019050919050565b5f6020820190508181035f8301526150ea816150b1565b9050919050565b7f4e487b71000000000000000000000000000000000000000000000000000000005f52604160045260245ffd5b7f4e487b71000000000000000000000000000000000000000000000000000000005f52603260045260245ffd5b5f81519050919050565b5f82825260208201905092915050565b5f819050602082019050919050565b61517d81614e5b565b82525050565b5f61518e8383615174565b60208301905092915050565b5f602082019050919050565b5f6151b08261514b565b6151ba8185615155565b93506151c583615165565b805f5b838110156151f55781516151dc8882615183565b97506151e78361519a565b9250506001810190506151c8565b5085935050505092915050565b5f60a0820190506152155f830188614e14565b6152226020830187614e14565b818103604083015261523481866151a6565b90506152436060830185614e6c565b6152506080830184614e14565b9695505050505050565b5f601f19601f8301169050919050565b6152738261525a565b810181811067ffffffffffffffff82111715615292576152916150f1565b5b80604052505050565b5f6152a4614e94565b90506152b0828261526a565b919050565b5f67ffffffffffffffff8211156152cf576152ce6150f1565b5b602082029050602081019050919050565b5f815190506152ee81614ecf565b92915050565b5f615306615301846152b5565b61529b565b9050808382526020820190506020840283018581111561532957615328614f01565b5b835b81811015615352578061533e88826152e0565b84526020840193505060208101905061532b565b5050509392505050565b5f82601f8301126153705761536f614ef9565b5b81516153808482602086016152f4565b91505092915050565b5f6020828403121561539e5761539d614e9d565b5b5f82015167ffffffffffffffff8111156153bb576153ba614ea1565b5b6153c78482850161535c565b91505092915050565b5f602082840312156153e5576153e4614e9d565b5b5f6153f2848285016152e0565b91505092915050565b5f819050919050565b5f61ffff82169050919050565b5f819050919050565b5f61543461542f61542a846153fb565b615411565b615404565b9050919050565b6154448161541a565b82525050565b5f60808201905061545d5f830187614e6c565b61546a6020830186614e14565b6154776040830185614e6c565b615484606083018461543b565b95945050505050565b5f6040820190506154a05f830185614e6c565b6154ad6020830184614fe9565b9392505050565b5f5ffd5b5f602082840312156154cd576154cc6154b4565b5b6154d7602061529b565b90505f6154e6848285016152e0565b5f8301525092915050565b5f6fffffffffffffffffffffffffffffffff82169050919050565b615515816154f1565b811461551f575f5ffd5b50565b5f815190506155308161550c565b92915050565b5f64ffffffffff82169050919050565b61554f81615536565b8114615559575f5ffd5b50565b5f8151905061556a81615546565b92915050565b61557981615404565b8114615583575f5ffd5b50565b5f8151905061559481615570565b92915050565b5f815190506155a881614ea5565b92915050565b5f6101e082840312156155c4576155c36154b4565b5b6155cf6101e061529b565b90505f6155de848285016154b8565b5f8301525060206155f184828501615522565b602083015250604061560584828501615522565b604083015250606061561984828501615522565b606083015250608061562d84828501615522565b60808301525060a061564184828501615522565b60a08301525060c06156558482850161555c565b60c08301525060e061566984828501615586565b60e08301525061010061567e8482850161559a565b610100830152506101206156948482850161559a565b610120830152506101406156aa8482850161559a565b610140830152506101606156c08482850161559a565b610160830152506101806156d684828501615522565b610180830152506101a06156ec84828501615522565b6101a0830152506101c061570284828501615522565b6101c08301525092915050565b5f6101e0828403121561572557615724614e9d565b5b5f615732848285016155ae565b91505092915050565b7f4e487b71000000000000000000000000000000000000000000000000000000005f52601160045260245ffd5b5f61577282614e0b565b915061577d83614e0b565b92508282039050818111156157955761579461573b565b5b92915050565b7f464c4153485f4259504153535f4641494c4544000000000000000000000000005f82015250565b5f6157cf601383615011565b91506157da8261579b565b602082019050919050565b5f6020820190508181035f8301526157fc816157c3565b9050919050565b5f61581d615818615813846153fb565b615411565b614dd7565b9050919050565b61582d81615803565b82525050565b5f60a0820190506158465f830188614e6c565b6158536020830187614e14565b6158606040830186614e14565b61586d6060830185615824565b61587a6080830184614e6c565b9695505050505050565b5f81519050919050565b5f81905092915050565b8281835e5f83830152505050565b5f6158b082615884565b6158ba818561588e565b93506158ca818560208601615898565b80840191505092915050565b5f6158e182846158a6565b915081905092915050565b5f6158f682614e0b565b91507fffffffffffffffffffffffffffffffffffffffffffffffffffffffffffffffff82036159285761592761573b565b5b600182019050919050565b5f61593d82614e0b565b915061594883614e0b565b92508282019050808211156159605761595f61573b565b5b92915050565b5f6040820190506159795f830185614e6c565b6159866020830184614e14565b9392505050565b61599681614fde565b81146159a0575f5ffd5b50565b5f815190506159b18161598d565b92915050565b5f602082840312156159cc576159cb614e9d565b5b5f6159d9848285016159a3565b91505092915050565b7f5452414e534645525f4641494c454400000000000000000000000000000000005f82015250565b5f615a16600f83615011565b9150615a21826159e2565b602082019050919050565b5f6020820190508181035f830152615a4381615a0a565b9050919050565b5f67ffffffffffffffff821115615a6457615a636150f1565b5b602082029050602081019050919050565b5f615a87615a8284615a4a565b61529b565b90508083825260208201905060208402830185811115615aaa57615aa9614f01565b5b835b81811015615ad35780615abf888261559a565b845260208401935050602081019050615aac565b5050509392505050565b5f82601f830112615af157615af0614ef9565b5b8151615b01848260208601615a75565b91505092915050565b5f60208284031215615b1f57615b1e614e9d565b5b5f82015167ffffffffffffffff811115615b3c57615b3b614ea1565b5b615b4884828501615add565b91505092915050565b5f60208284031215615b6657615b65614e9d565b5b5f615b738482850161559a565b91505092915050565b5f8160011c9050919050565b5f5f8291508390505b6001851115615bd157808604811115615bad57615bac61573b565b5b6001851615615bbc5780820291505b8081029050615bca85615b7c565b9450615b91565b94509492505050565b5f82615be95760019050615ca4565b81615bf6575f9050615ca4565b8160018114615c0c5760028114615c1657615c45565b6001915050615ca4565b60ff841115615c2857615c2761573b565b5b8360020a915084821115615c3f57615c3e61573b565b5b50615ca4565b5060208310610133831016604e8410600b8410161715615c7a5782820a905083811115615c7557615c7461573b565b5b615ca4565b615c878484846001615b88565b92509050818404811115615c9e57615c9d61573b565b5b81810290505b9392505050565b5f615cb582614e0b565b9150615cc083614e0b565b9250615ced7fffffffffffffffffffffffffffffffffffffffffffffffffffffffffffffffff8484615bda565b905092915050565b5f82825260208201905092915050565b5f615d0f82615884565b615d198185615cf5565b9350615d29818560208601615898565b615d328161525a565b840191505092915050565b5f608082019050615d505f830187614e14565b615d5d6020830186614e14565b615d6a6040830185614e6c565b8181036060830152615d7c8184615d05565b905095945050505050565b7f415050524f56455f4641494c45440000000000000000000000000000000000005f82015250565b5f615dbb600e83615011565b9150615dc682615d87565b602082019050919050565b5f6020820190508181035f830152615de881615daf565b9050919050565b5f615df982614e0b565b9150615e0483614e0b565b9250828202615e1281614e0b565b91508282048414831517615e2957615e2861573b565b5b5092915050565b7f4e487b71000000000000000000000000000000000000000000000000000000005f52601260045260245ffd5b5f615e6782614e0b565b9150615e7283614e0b565b925082615e8257615e81615e30565b5b828204905092915050565b5f604082019050615ea05f830185614e6c565b615ead6020830184614e6c565b9392505050565b5f604082019050615ec75f830185614e14565b8181036020830152615ed981846151a6565b9050939250505056fea26469706673582212200d41849f3035fc38bbce0199445ab0e2419e468aa505182288101bed2428c78e64736f6c634300081e0033","linkReferences":{}},"methodIdentifiers":{"REASON_BORROW_REVERTED_BEFORE_BYPASS()":"ee04b7d2","REASON_LIQUIDITY_BELOW_REMAINING_CEILING()":"26fa9056","REASON_LOOP_COUNT_EXCEEDS_SINGLE_TX_GAS()":"5d7d5cf4","REASON_NONE()":"bcdac010","REASON_NO_BORROWABLE_ISOLATION_ASSET()":"589b48f8","REASON_NO_DIRECT_COLLATERAL_AND_NOT_SELF_FUNDING()":"3a9f9b04","REASON_NO_ISOLATED_COLLATERAL()":"028a4ceb","REASON_SUB_UNIT_BORROW_NOT_POSSIBLE()":"c04f8289","accountingUnitRaw()":"0979ddf2","actualBorrowedRaw()":"afad6bfc","actualCeilingToBypassRaw()":"90f7a89e","bootstrapFundingCostInDebtAssetRaw()":"cd9b5556","bootstrapProfitShortfallRaw()":"d3b7bda0","borrowChunkRaw()":"989b7655","borrowableIsolationReserveCount()":"41a0c5b2","ceilingBypassed()":"c7aa5caa","executeOnOpportunity()":"3c2448ed","executedBorrowLoops()":"e225beac","hypothesisValidated()":"463defd1","infeasibilityReason()":"dfa6be1b","isolatedCollateralReserveCount()":"9c9b1f16","lastScannedConfigData()":"f4bbeffa","lastScannedReserve()":"4b8d55c6","maxBorrowableAgainstHeldCollateralRaw()":"8d3ed004","poolPriceOracle()":"441b1200","profitAmount()":"5ff972cc","profitToken()":"49343624","remainingCeilingUnitsBefore()":"7d45c0da","requiredBorrowLoops()":"e60d16b0","requiredCollateralValueBase()":"c748959a","scannedReserveCount()":"477fe368","selectedCollateralAsset()":"105ed87e","selectedCollateralBalance()":"ae63d6ec","selectedCollateralLtv()":"6f367408","selectedCollateralOraclePrice()":"28b0fddf","selectedDebtAsset()":"8f19d35c","selectedDebtAssetLiquidity()":"c8a24811","selectedDebtCeiling()":"df45eabc","selectedDebtDecimals()":"513cc44d","selectedDebtOraclePrice()":"8676df91","selectedFlashBorrowAmountRaw()":"510a9f0f","selectedFlashCollateralTopUpRaw()":"33ac125d","selectedFlashPair()":"9af284d1","selectedFlashPathMid()":"1c1d1090","selectedFlashRepayAmountRaw()":"d0275c13","selectedFlashRouter()":"393e1944","selectedHTokenCollateralBalance()":"303b36e4","selectedUnderlyingCollateralBalance()":"b7edc2d9","trackedDebtAfter()":"60db9d45","trackedDebtBefore()":"fb04b958","uniswapV2Call(address,uint256,uint256,bytes)":"10d1e85c"},"id":0}