{"abi":[{"type":"constructor","inputs":[],"stateMutability":"payable"},{"type":"receive","stateMutability":"payable"},{"type":"function","name":"INVALIDATED","inputs":[],"outputs":[{"name":"","type":"bytes32","internalType":"bytes32"}],"stateMutability":"view"},{"type":"function","name":"TARGET","inputs":[],"outputs":[{"name":"","type":"address","internalType":"address"}],"stateMutability":"view"},{"type":"function","name":"canonicalTxHashes","inputs":[],"outputs":[{"name":"","type":"bytes32[]","internalType":"bytes32[]"}],"stateMutability":"view"},{"type":"function","name":"directReplayReverted","inputs":[],"outputs":[{"name":"","type":"bool","internalType":"bool"}],"stateMutability":"view"},{"type":"function","name":"ethCapitalSupplied","inputs":[],"outputs":[{"name":"","type":"uint256","internalType":"uint256"}],"stateMutability":"view"},{"type":"function","name":"ethSpentOnOracle","inputs":[],"outputs":[{"name":"","type":"uint256","internalType":"uint256"}],"stateMutability":"view"},{"type":"function","name":"executeOnOpportunity","inputs":[],"outputs":[],"stateMutability":"payable"},{"type":"function","name":"exploitPath","inputs":[],"outputs":[{"name":"","type":"string","internalType":"string"}],"stateMutability":"pure"},{"type":"function","name":"hypothesisRefuted","inputs":[],"outputs":[{"name":"","type":"bool","internalType":"bool"}],"stateMutability":"view"},{"type":"function","name":"hypothesisValidated","inputs":[],"outputs":[{"name":"","type":"bool","internalType":"bool"}],"stateMutability":"view"},{"type":"function","name":"lastStatus","inputs":[],"outputs":[{"name":"","type":"string","internalType":"string"}],"stateMutability":"view"},{"type":"function","name":"nonceReplayReverted","inputs":[],"outputs":[{"name":"","type":"bool","internalType":"bool"}],"stateMutability":"view"},{"type":"function","name":"phase","inputs":[],"outputs":[{"name":"","type":"uint8","internalType":"enum FlawVerifier.Phase"}],"stateMutability":"view"},{"type":"function","name":"plannedAmount","inputs":[],"outputs":[{"name":"","type":"uint256","internalType":"uint256"}],"stateMutability":"view"},{"type":"function","name":"plannedAsset","inputs":[],"outputs":[{"name":"","type":"address","internalType":"address"}],"stateMutability":"view"},{"type":"function","name":"plannedData","inputs":[],"outputs":[{"name":"","type":"bytes","internalType":"bytes"}],"stateMutability":"view"},{"type":"function","name":"plannedExecutor","inputs":[],"outputs":[{"name":"","type":"address","internalType":"address"}],"stateMutability":"view"},{"type":"function","name":"plannedOperation","inputs":[],"outputs":[{"name":"","type":"uint8","internalType":"uint8"}],"stateMutability":"view"},{"type":"function","name":"plannedTarget","inputs":[],"outputs":[{"name":"","type":"address","internalType":"address"}],"stateMutability":"view"},{"type":"function","name":"plannedTxHash","inputs":[],"outputs":[{"name":"","type":"bytes32","internalType":"bytes32"}],"stateMutability":"view"},{"type":"function","name":"plannedValue","inputs":[],"outputs":[{"name":"","type":"uint256","internalType":"uint256"}],"stateMutability":"view"},{"type":"function","name":"profitAmount","inputs":[],"outputs":[{"name":"","type":"uint256","internalType":"uint256"}],"stateMutability":"view"},{"type":"function","name":"profitToken","inputs":[],"outputs":[{"name":"","type":"address","internalType":"address"}],"stateMutability":"view"},{"type":"function","name":"proposalId","inputs":[],"outputs":[{"name":"","type":"string","internalType":"string"}],"stateMutability":"view"},{"type":"function","name":"trackedFinalResult","inputs":[],"outputs":[{"name":"","type":"bytes32","internalType":"bytes32"}],"stateMutability":"view"},{"type":"function","name":"trackedQuestionHash","inputs":[],"outputs":[{"name":"","type":"bytes32","internalType":"bytes32"}],"stateMutability":"view"},{"type":"function","name":"trackedQuestionId","inputs":[],"outputs":[{"name":"","type":"bytes32","internalType":"bytes32"}],"stateMutability":"view"}],"bytecode":{"object":"0x60806040523415600e5734600c555b612f198061001b5f395ff3fe608060405260043610610198575f3560e01c80635ff972cc116100e7578063a1f0878e11610087578063cc1f2afa11610062578063cc1f2afa14610434578063d6d867121461045b578063db2e12ec1461046f578063ff0394eb14610484575f5ffd5b8063a1f0878e146103e6578063b1c9fe6e146103fb578063cb707c6214610420575f5ffd5b80637d9b7e22116100c25780637d9b7e22146103885780638f54f9a21461039d5780639b1c06d2146103bc5780639db9c10f146103d1575f5ffd5b80635ff972cc146103415780636a375af51461035557806377561a251461036a575f5ffd5b8063479fe9b3116101525780635001c9af1161012d5780635001c9af146102d45780635102698f146102f5578063578c1610146103095780635d5374e31461032c575f5ffd5b8063479fe9b31461027557806349343624146102a0578063495f92f1146102b4575f5ffd5b8063078a6aeb146101a35780631c8bb26c146101d15780632dfca445146102085780633153949b146102295780633c2448ed1461024c578063463defd114610256575f5ffd5b3661019f57005b5f5ffd5b3480156101ae575f5ffd5b50600b546101bc9060ff1681565b60405190151581526020015b60405180910390f35b3480156101dc575f5ffd5b506003546101f0906001600160a01b031681565b6040516001600160a01b0390911681526020016101c8565b348015610213575f5ffd5b5061021c610498565b6040516101c89190612362565b348015610234575f5ffd5b505f546101f09061010090046001600160a01b031681565b61025461054f565b005b348015610261575f5ffd5b50600b546101bc9062010000900460ff1681565b348015610280575f5ffd5b5060065461028e9060ff1681565b60405160ff90911681526020016101c8565b3480156102ab575f5ffd5b506101f0610f1d565b3480156102bf575f5ffd5b50600b546101bc906301000000900460ff1681565b3480156102df575f5ffd5b506102e8610f81565b6040516101c891906123ae565b348015610300575f5ffd5b5061021c610fad565b348015610314575f5ffd5b5061031e60045481565b6040519081526020016101c8565b348015610337575f5ffd5b5061031e60075481565b34801561034c575f5ffd5b5061031e611039565b348015610360575f5ffd5b5061031e600d5481565b348015610375575f5ffd5b50600b546101bc90610100900460ff1681565b348015610393575f5ffd5b5061031e60085481565b3480156103a8575f5ffd5b506002546101f0906001600160a01b031681565b3480156103c7575f5ffd5b5061031e60015481565b3480156103dc575f5ffd5b5061031e600c5481565b3480156103f1575f5ffd5b5061031e600a5481565b348015610406575f5ffd5b505f546104139060ff1681565b6040516101c891906123d4565b34801561042b575f5ffd5b5061021c6110f9565b34801561043f575f5ffd5b506101f0738f9036732b9aa9b82d8f35e54b71faeb2f573e2f81565b348015610466575f5ffd5b5061021c61111c565b34801561047a575f5ffd5b5061031e60095481565b34801561048f575f5ffd5b5061031e5f1981565b6007546060906104d05750604080518082019091526013815272118b4c0c0c4b5d5b9a5b9a5d1a585b1a5e9959606a1b602082015290565b5f8054600154600254600354600454604051610509956001600160a01b03610100909104811695948116931691906005906020016124b1565b60405160208183030381529060405280519060200120905061052a81611129565b60405160200161053a91906124fe565b60405160208183030381529060405291505090565b341561056c5734600c5f828254610566919061253f565b90915550505b5f738f9036732b9aa9b82d8f35e54b71faeb2f573e2f90505f816001600160a01b0316637dc0d1d06040518163ffffffff1660e01b8152600401602060405180830381865afa1580156105c1573d5f5f3e3d5ffd5b505050506040513d601f19601f820116820180604052508101906105e59190612552565b60075490915061067a576105f88261121c565b610647575f805460ff19166007179055600b8054630100000063ff0000001990911617905560408051608081019091526059808252612bd96020830139600e9061064290826125d0565b505050565b5f805460ff19166001179055604080516060810190915260358082526129da6020830139600e9061067890826125d0565b505b5f610683610498565b90505f61069160075461199e565b90505f61069e83836119e4565b80516020909101206008819055604051631b91343360e31b8152600481018290529091505f906001600160a01b0387169063dc89a19890602401602060405180830381865afa1580156106f3573d5f5f3e3d5ffd5b505050506040513d601f19601f82011682018060405250810190610717919061268b565b90508061086557604051638dcd266160e01b81526001600160a01b03871690638dcd26619061074c90879087906004016126a2565b5f604051808303815f87803b158015610763575f5ffd5b505af1925050508015610774575060015b6107c7575f805460ff19166007179055600b8054630100000063ff000000199091161790556040805160808101909152605b808252612b4b6020830139600e906107be90826125d0565b50505050505050565b604051631b91343360e31b8152600481018390526001600160a01b0387169063dc89a19890602401602060405180830381865afa15801561080a573d5f5f3e3d5ffd5b505050506040513d601f19601f8201168201806040525081019061082e919061268b565b5f805460ff191660021790556040805160808101909152604580825291925090612a0f6020830139600e9061086390826125d0565b505b600981905580158061087757505f1981145b156108c2575f805460ff19166007179055600b8054630100000063ff0000001990911617905560408051608081019091526048808252612b036020830139600e906107be90826125d0565b6108cc8582611a4d565b610983575f6108db8683611b28565b90505f6108e9888885611c01565b90506108f6838284611cb8565b156109465780600d5f82825461090c919061253f565b90915550505f805460ff191660031790556040805160608101825281815290612e276020830139600e9061094090826125d0565b50610979565b5f805460ff1916600417905560408051608081019091526043808252612ac06020830139600e9061097790826125d0565b505b5050505050505050565b5f61098e8683611dec565b600a819055600b5490915060ff16610a1757604051638dcd266160e01b81526001600160a01b03881690638dcd2661906109ce90889088906004016126a2565b5f604051808303815f87803b1580156109e5575f5ffd5b505af19250505080156109f6575060015b610a0c57600b805460ff19166001179055610a17565b600b805460ff191690555b600b54610100900460ff16610aa35760405163089c543f60e11b81526001600160a01b03881690631138a87e90610a5790889088906001906004016126c6565b5f604051808303815f87803b158015610a6e575f5ffd5b505af1925050508015610a7f575060015b610a9757600b805461ff001916610100179055610aa3565b600b805461ff00191690555b60018114610b26575f805460ff19166007179055600b8054630100000063ff0000001990911617905560018101610b00576040518060a0016040528060628152602001612dc560629139600e90610afa90826125d0565b506107be565b604051806080016040528060418152602001612ea360419139600e9061097990826125d0565b5f610b318784611eb2565b90505f886001600160a01b03166314f5a3956040518163ffffffff1660e01b8152600401602060405180830381865afa158015610b70573d5f5f3e3d5ffd5b505050506040513d601f19601f82011682018060405250810190610b9491906126fb565b63ffffffff168263ffffffff16610bab919061253f565b9050804211610bf1575f805460ff191660051790556040805160608101909152603c808252612e676020830139600e90610be590826125d0565b50505050505050505050565b5f896001600160a01b031663d07acb5b6040518163ffffffff1660e01b8152600401602060405180830381865afa158015610c2e573d5f5f3e3d5ffd5b505050506040513d601f19601f82011682018060405250810190610c5291906126fb565b905063ffffffff811615801590610c7a5750610c7763ffffffff80831690851661253f565b42115b15610cd2575f805460ff19166007179055600b8054630100000063ff0000001990911617905560408051606081019091526033808252612ba66020830139600e90610cc590826125d0565b5050505050505050505050565b896001600160a01b03166314604b8c898960035f9054906101000a90046001600160a01b0316600454600560065f9054906101000a900460ff165f6040518863ffffffff1660e01b8152600401610d2f979695949392919061271e565b5f604051808303815f87803b158015610d46575f5ffd5b505af1925050508015610d57575060015b610da7575f805460ff19166007179055600b8054630100000063ff00000019909116179055604080516080810190915260458082526129956020830139600e90610da190826125d0565b50610be5565b5f5473c02aaa39b223fe8d0a0e5c4f27ead9083c756cc1196101009091046001600160a01b031601610de057610ddb611f8b565b610e42565b5f5461010090046001600160a01b031615610e42575f54610e0e9061010090046001600160a01b0316612056565b5f5473c02aaa39b223fe8d0a0e5c4f27ead9083c756cc1196101009091046001600160a01b031601610e4257610e42611f8b565b5f805460ff19166006178155610e56611039565b1115610ed757600b5460ff168015610e755750600b54610100900460ff165b600b8054630100000062010000931515840262ff000019831681179490940460ff16150263ff0000001990931663ffff0000199091161791909117905560408051606081019091526031808252612a8f6020830139600e90610da190826125d0565b5f805460ff19166007179055600b8054630100000063ff000000199091161790556040805160608101909152603b808252612a546020830139600e90610cc590826125d0565b5f60065f5460ff166007811115610f3657610f366123c0565b14610f4057505f90565b5f600c544711610f50575f610f5d565b600c54610f5d9047612786565b90508015610f6c575f91505090565b50505f5461010090046001600160a01b031690565b600754606090610f9d5750604080515f81526020810190915290565b610fa860075461199e565b905090565b60058054610fba906123fa565b80601f0160208091040260200160405190810160405280929190818152602001828054610fe6906123fa565b80156110315780601f1061100857610100808354040283529160200191611031565b820191905f5260205f20905b81548152906001019060200180831161101457829003601f168201915b505050505081565b5f60065f5460ff166007811115611052576110526123c0565b1461105c57505f90565b600c5447111561107357600c54610fa89047612786565b5f5461010090046001600160a01b031661108c57505f90565b5f546040516370a0823160e01b81523060048201526101009091046001600160a01b0316906370a0823190602401602060405180830381865afa1580156110d5573d5f5f3e3d5ffd5b505050506040513d601f19601f82011682018060405250810190610fa8919061268b565b6060604051806101c001604052806101938152602001612c326101939139905090565b600e8054610fba906123fa565b6040805181815260608181018352915f91906020820181803683370190505090505f5b6020811015611215575f611161826008612799565b85901b60f81c90505f6111756010836127c4565b90505f6111836010846127e5565b905061118e826121d8565b8561119a866002612799565b815181106111aa576111aa612806565b60200101906001600160f81b03191690815f1a9053506111c9816121d8565b856111d5866002612799565b6111e090600161253f565b815181106111f0576111f0612806565b60200101906001600160f81b03191690815f1a905350506001909201915061114c9050565b5092915050565b5f5f826001600160a01b031663c34c08e56040518163ffffffff1660e01b8152600401602060405180830381865afa15801561125a573d5f5f3e3d5ffd5b505050506040513d601f19601f8201168201806040525081019061127e9190612552565b600280546001600160a01b0319166001600160a01b0383169081179091556006805460ff1916905590915031801561137e575f8054610100600160a81b03191681556001829055600380546001600160a01b03191630179055600482905560408051602081019091529081526005906112f790826125d0565b5060035460048054600654604051632b50004160e01b81526001600160a01b0389811695632b5000419561133b959290911693919260059260ff16915f910161281a565b602060405180830381865afa158015611356573d5f5f3e3d5ffd5b505050506040513d601f19601f8201168201806040525081019061137a919061268b565b6007555b604080516104208101825273c02aaa39b223fe8d0a0e5c4f27ead9083c756cc2815273a0b86991c6218b36c1d19d4a2e9eb0ce3606eb48602082015273dac17f958d2ee523a2206206994597c13d831ec791810191909152736b175474e89094c44da98b954eedeac495271d0f606082015273853d955acef822db058eb8505911ed77f175b99e6080820152732260fac5e5542a773aa44fbcfedf7c193bc2c59960a0820152735f98805a4e8be255a32880fdec7f6728c6568ba060c08201527399d8a9c45b2ecb5ba8f3d56b3f4c7e0c8cbea2ff60e082015273d533a949740bb3306d119cc777fa900ba034cd52610100820152734e3fbd56cd56c3e72c1403e103b45db9da5b9d2b61012082015273ba100000625a3754423978a60c9317c58a424e3d610140820152737fc66500c84a76ad7e9c93437bfc5ac33e2ddae961016082015273c00e94cb662c3520282e6f5717214004a7f26888610180820152731f9840a85d5af5bf1d1762f925bdaddc4201f9846101a0820152736b3595068778dd592e39a122f4f5a5cf09c90fe26101c082015273514910771af9ca656af840dff83e8264ecf986ca6101e082015273c011a72400e58ecd99ee497cf89e3775d4bd732f610200820152739f8f72aa9304c8b593d555f12ef6589cc3a579a2610220820152735a98fcbea516cf06857215779fd812ca3bef1b32610240820152736810e776880c02933d47db1b9fc05908e5386b96610260820152733432b6a60d23ca0dfca7761b7ab56459d9c964d06102808201526e085d4780b73119b644ae5ecd22b3766102a0820152734fabb145d64652a948d72533023f6e7a623c7c536102c082015273956f47f50a910163d8bf957cf5846d573e7f87ca6102e082015273ae7ab96520de3a18e5e111b5eaab095312d7fe84610300820152736c3f90f043a72fa612cbac8115ee7e52bde6e4906103208201527362b9c7356a2dc64a1969e19c23e4fa9a8d2a0cae61034082015273db25f211ab05b1c97d595516f45794528a807ad8610360820152731a7e4e63778b4f12a199c062f3efdd288afcbce86103808201527331429d1856c131d3d4221b7e7a4f263d3f37aa116103a082015273bc6da0feda7647a8ab7c2061c2e118a18a936f136103c082015273d33526068d116ce69f19a9ee46f0bd304f21a51f6103e082015273c18360217d8f7ab5e7c516566761ea12ce7f9d726104008201525f80805b6021811015611754575f61172485836021811061171957611719612806565b602002015188612204565b90508281111561174b5780925084826021811061174357611743612806565b602002015193505b506001016116fa565b5060408051608081018252730bc529c00c6401aef6d220be8c6ea1667f6ad93e81527357ab1ec28d129707052df4df418d58a2d46d5f51602082015273d632f22692fac7611d2aa1c0d552930d43caed3b91810191909152736dea81c8171d0ba574754ef6f8b412f2ed88c54d60608201525f5b6004811015611822575f6117f28383600481106117e7576117e7612806565b602002015189612204565b9050838111156118195780935082826004811061181157611811612806565b602002015194505b506001016117c8565b505f6118427370e8de73ce538da2beed35d14187f6959a8eca9688612204565b905082811115611867578092507370e8de73ce538da2beed35d14187f6959a8eca9693505b821561198c575f8054610100600160a81b0319166101006001600160a01b0387169081029190911782556001859055600380546001600160a01b03191690911790556004556040805130602482015260448082018690528251808303909101815260649091019091526020810180516001600160e01b031663a9059cbb60e01b1790526005906118f790826125d0565b5060035460048054600654604051632b50004160e01b81526001600160a01b038e811695632b5000419561193b959290911693919260059260ff16915f910161281a565b602060405180830381865afa158015611956573d5f5f3e3d5ffd5b505050506040513d601f19601f8201168201806040525081019061197a919061268b565b60075550600198975050505050505050565b50506007541515979650505050505050565b6040805160018082528183019092526060916020808301908036833701905050905081815f815181106119d3576119d3612806565b602002602001018181525050919050565b60605f611a16836040516020016119fb9190612857565b60405160208183030381529060405280519060200120611129565b604051909150611a3490859062e2909f60e81b90849060200161288c565b6040516020818303038152906040529150505b92915050565b5f5f5f846001600160a01b0316637f8d429e60e01b85604051602401611a7591815260200190565b60408051601f198184030181529181526020820180516001600160e01b03166001600160e01b0319909416939093179092529051611ab391906128ce565b5f60405180830381855afa9150503d805f8114611aeb576040519150601f19603f3d011682016040523d82523d5f602084013e611af0565b606091505b5091509150818015611b0457506020815110155b8015611b1f575080806020019051810190611b1f91906128e9565b95945050505050565b5f5f5f846001600160a01b03166326d6c97b60e01b85604051602401611b5091815260200190565b60408051601f198184030181529181526020820180516001600160e01b03166001600160e01b0319909416939093179092529051611b8e91906128ce565b5f60405180830381855afa9150503d805f8114611bc6576040519150601f19603f3d011682016040523d82523d5f602084013e611bcb565b606091505b5091509150811580611bde575060208151105b15611bed575f92505050611a47565b80806020019051810190611b1f919061268b565b5f5f611c0d8484611b28565b90505f856001600160a01b031663aa7517e16040518163ffffffff1660e01b8152600401602060405180830381865afa158015611c4c573d5f5f3e3d5ffd5b505050506040513d601f19601f82011682018060405250810190611c70919061268b565b90505f8215611c8957611c84836002612799565b611c8c565b60015b905081811015611c995750805b805f03611cac5760019350505050611cb1565b925050505b9392505050565b5f82471015611cc857505f611cb1565b5f738f9036732b9aa9b82d8f35e54b71faeb2f573e2f6001600160a01b0316637dc0d1d06040518163ffffffff1660e01b8152600401602060405180830381865afa158015611d19573d5f5f3e3d5ffd5b505050506040513d601f19601f82011682018060405250810190611d3d9190612552565b604080516024810188905260016044820152606480820187905282518083039091018152608490910182526020810180516001600160e01b03166377f325df60e01b17905290519192505f916001600160a01b038416918791611da091906128ce565b5f6040518083038185875af1925050503d805f8114611dda576040519150601f19603f3d011682016040523d82523d5f602084013e611ddf565b606091505b5090979650505050505050565b5f5f5f846001600160a01b031663d09cc57e60e01b85604051602401611e1491815260200190565b60408051601f198184030181529181526020820180516001600160e01b03166001600160e01b0319909416939093179092529051611e5291906128ce565b5f60405180830381855afa9150503d805f8114611e8a576040519150601f19603f3d011682016040523d82523d5f602084013e611e8f565b606091505b5091509150811580611ea2575060208151105b15611bed57505f9150611a479050565b5f5f5f846001600160a01b031663acae8f4e60e01b85604051602401611eda91815260200190565b60408051601f198184030181529181526020820180516001600160e01b03166001600160e01b0319909416939093179092529051611f1891906128ce565b5f60405180830381855afa9150503d805f8114611f50576040519150601f19603f3d011682016040523d82523d5f602084013e611f55565b606091505b5091509150811580611f68575060208151105b15611f77575f92505050611a47565b80806020019051810190611b1f91906126fb565b5f611faa73c02aaa39b223fe8d0a0e5c4f27ead9083c756cc230612204565b9050805f03611fb65750565b60408051602480820184905282518083039091018152604490910182526020810180516001600160e01b0316632e1a7d4d60e01b17905290515f9173c02aaa39b223fe8d0a0e5c4f27ead9083c756cc29161201191906128ce565b5f604051808303815f865af19150503d805f811461204a576040519150601f19603f3d011682016040523d82523d5f602084013e61204f565b606091505b5050505050565b5f6120618230612204565b905080158061207757506001600160a01b038216155b15612080575050565b61209f82737a250d5630b4cf539739df2c5dacb4c659f2488d83612232565b6120a7575050565b6040805160028082526060820183525f9260208301908036833701905050905082815f815181106120da576120da612806565b60200260200101906001600160a01b031690816001600160a01b03168152505073c02aaa39b223fe8d0a0e5c4f27ead9083c756cc28160018151811061212257612122612806565b60200260200101906001600160a01b031690816001600160a01b031681525050612161737a250d5630b4cf539739df2c5dacb4c659f2488d83836122e8565b1561216b57505050565b61218a83737a250d5630b4cf539739df2c5dacb4c659f2488d5f612232565b506121aa8373d9e1ce17f2641f24ae83637ab66a2cca9c378b9f84612232565b6121b357505050565b6121d273d9e1ce17f2641f24ae83637ab66a2cca9c378b9f83836122e8565b50505050565b5f600a8260ff1610156121f9576121f0826030612908565b60f81b92915050565b6121f0826057612908565b6040516001600160a01b0382811660248301525f9182918291908616906370a0823160e01b90604401611b50565b6040516001600160a01b038381166024830152604482018390525f91829186169063095ea7b360e01b906064015b60408051601f198184030181529181526020820180516001600160e01b03166001600160e01b031990941693909317909252905161229e91906128ce565b5f604051808303815f865af19150503d805f81146122d7576040519150601f19603f3d011682016040523d82523d5f602084013e6122dc565b606091505b50909695505050505050565b5f5f846001600160a01b031663791ac94760e01b855f863042604051602401612260959493929190612921565b5f5b8381101561232f578181015183820152602001612317565b50505f910152565b5f815180845261234e816020860160208601612315565b601f01601f19169290920160200192915050565b602081525f611cb16020830184612337565b5f8151808452602084019350602083015f5b828110156123a4578151865260209586019590910190600101612386565b5093949350505050565b602081525f611cb16020830184612374565b634e487b7160e01b5f52602160045260245ffd5b60208101600883106123f457634e487b7160e01b5f52602160045260245ffd5b91905290565b600181811c9082168061240e57607f821691505b60208210810361242c57634e487b7160e01b5f52602260045260245ffd5b50919050565b5f815461243e816123fa565b8085526001821680156124585760018114612474576124a8565b60ff1983166020870152602082151560051b87010193506124a8565b845f5260205f205f5b8381101561249f5781546020828a01015260018201915060208101905061247d565b87016020019450505b50505092915050565b6001600160a01b038781168252602082018790528581166040830152841660608201526080810183905260c060a082018190525f906124f290830184612432565b98975050505050505050565b65462d3030312d60d01b81525f825161251e816006850160208701612315565b9190910160060192915050565b634e487b7160e01b5f52601160045260245ffd5b80820180821115611a4757611a4761252b565b5f60208284031215612562575f5ffd5b81516001600160a01b0381168114611cb1575f5ffd5b634e487b7160e01b5f52604160045260245ffd5b601f82111561064257805f5260205f20601f840160051c810160208510156125b15750805b601f840160051c820191505b8181101561204f575f81556001016125bd565b815167ffffffffffffffff8111156125ea576125ea612578565b6125fe816125f884546123fa565b8461258c565b6020601f821160018114612630575f83156126195750848201515b5f19600385901b1c1916600184901b17845561204f565b5f84815260208120601f198516915b8281101561265f578785015182556020948501946001909201910161263f565b508482101561267c57868401515f19600387901b60f8161c191681555b50505050600190811b01905550565b5f6020828403121561269b575f5ffd5b5051919050565b604081525f6126b46040830185612337565b8281036020840152611b1f8185612374565b606081525f6126d86060830186612337565b82810360208401526126ea8186612374565b915050826040830152949350505050565b5f6020828403121561270b575f5ffd5b815163ffffffff81168114611cb1575f5ffd5b60e081525f61273060e083018a612337565b8281036020840152612742818a612374565b6001600160a01b0389166040850152606084018890528381036080850152905061276c8187612432565b60ff9590951660a0840152505060c0015295945050505050565b81810381811115611a4757611a4761252b565b8082028115828204841417611a4757611a4761252b565b634e487b7160e01b5f52601260045260245ffd5b5f60ff8316806127d6576127d66127b0565b8060ff84160491505092915050565b5f60ff8316806127f7576127f76127b0565b8060ff84160691505092915050565b634e487b7160e01b5f52603260045260245ffd5b60018060a01b038616815284602082015260a060408201525f61284060a0830186612432565b60ff94909416606083015250608001529392505050565b81515f90829060208501835b82811015612881578151845260209384019390910190600101612863565b509195945050505050565b5f845161289d818460208901612315565b6001600160e81b0319851690830190815283516128c1816003840160208801612315565b0160030195945050505050565b5f82516128df818460208701612315565b9190910192915050565b5f602082840312156128f9575f5ffd5b81518015158114611cb1575f5ffd5b60ff8181168382160190811115611a4757611a4761252b565b5f60a0820187835260ff8716602084015260a0604084015280865180835260c0850191506020880192505f5b818110156129745783516001600160a01b031683526020938401939092019160010161294d565b50506001600160a01b03959095166060840152505060800152939250505056fe6578656375746550726f706f73616c57697468496e64657820726576657274656420756e6465722063757272656e7420666f726b2d737461746520636f6e646974696f6e7353656c6563746564206120646972656374207377656570207472616e73616374696f6e2066726f6d20746865206578656375746f7252656769737465726564207468652070726f706f73616c206265666f726520616e79206c65676974696d617465206f6e2d636861696e2044414f207375626d697373696f6e457865637574696f6e2072657475726e656420627574206e6f2070726f666974206173736574207265616368656420746865207665726966696572457865637574656420746865206d616c6963696f75732062756e646c6520616e64207265616c697a65642070726f6669744d6f72652045544820697320726571756972656420746f2073617469736679207468652063757272656e74206f7261636c6520626f6e6420726571756972656d656e745175657374696f6e20696420697320756e736574206f7220696e76616c6964617465642c20736f20746865206578706c6f697420706174682063616e6e6f742070726f677265737361646450726f706f73616c2072657665727465643b20726567697374726174696f6e2077617320626c6f636b65642062792063757272656e74206f6e2d636861696e206f7261636c652f6d6f64756c6520636f6e646974696f6e7354686520706f736974697665206f7261636c6520616e737765722065787069726564206265666f726520657865637574696f6e4e6f20737765657061626c65206578697374696e67206578656375746f722061737365742077617320666f756e64206163726f7373207468652062726f616465722074726561737572792d746f6b656e20756e69766572736553656c65637420616e20616c72656164792d66756e646564206578656375746f7220617373657420286f722074686520686967686573742d76616c756520747265617375727920746f6b656e20616c72656164792073697474696e67206f6e20746865206578656375746f7229202d3e207065726d697373696f6e6c6573736c792063616c6c2061646450726f706f73616c206265666f726520616e79206c65676974696d6174652044414f207375626d697373696f6e202d3e20616e7377657220746865205265616c6974696f207175657374696f6e20696d6d6564696174656c792062656361757365206f70656e696e675f74732069732068617264636f64656420746f2030202d3e2077616974207468726f7567682074696d656f757420616e6420636f6f6c646f776e202d3e20657865637574652074686520707265636f6d6d69747465642053616665207472616e73616374696f6e2062756e646c652074686174207472616e736665727320746865206578656375746f7220617373657420746f207468652076657269666965724f7261636c652066696e616c697a656420746f20494e56414c4944415445442c20736f207468652070726f706f73616c206e616d657370616365206973207265757361626c6520616e642074686973206578706c6f69742070617468206661696c735375626d69747465642059455320696d6d6564696174656c793b207761697420666f7220746865206f7261636c652074696d656f757420746f20656c617073655945532069732066696e616c697a65642062757420746865206d6f64756c6520636f6f6c646f776e20686173206e6f7420656c6170736564207965744f7261636c652066696e616c697a656420746f2061206e6f6e2d59455320616e737765722c20736f20657865637574696f6e2063616e6e6f742070726f63656564a2646970667358221220809890fb4154dc0823ab6187da3e012e1b81b652e2be8707e88c31138634f15b64736f6c634300081e0033","linkReferences":{}},"methodIdentifiers":{"INVALIDATED()":"ff0394eb","TARGET()":"cc1f2afa","canonicalTxHashes()":"5001c9af","directReplayReverted()":"078a6aeb","ethCapitalSupplied()":"9db9c10f","ethSpentOnOracle()":"6a375af5","executeOnOpportunity()":"3c2448ed","exploitPath()":"cb707c62","hypothesisRefuted()":"495f92f1","hypothesisValidated()":"463defd1","lastStatus()":"d6d86712","nonceReplayReverted()":"77561a25","phase()":"b1c9fe6e","plannedAmount()":"9b1c06d2","plannedAsset()":"3153949b","plannedData()":"5102698f","plannedExecutor()":"8f54f9a2","plannedOperation()":"479fe9b3","plannedTarget()":"1c8bb26c","plannedTxHash()":"5d5374e3","plannedValue()":"578c1610","profitAmount()":"5ff972cc","profitToken()":"49343624","proposalId()":"2dfca445","trackedFinalResult()":"a1f0878e","trackedQuestionHash()":"7d9b7e22","trackedQuestionId()":"db2e12ec"},"id":0}