{"abi":[{"type":"constructor","inputs":[{"name":"market_","type":"address","internalType":"address"},{"name":"rugged_","type":"address","internalType":"address"},{"name":"nft_","type":"address","internalType":"address"},{"name":"controller_","type":"address","internalType":"address"}],"stateMutability":"nonpayable"},{"type":"function","name":"CONTROLLER","inputs":[],"outputs":[{"name":"","type":"address","internalType":"address"}],"stateMutability":"view"},{"type":"function","name":"MARKET","inputs":[],"outputs":[{"name":"","type":"address","internalType":"address"}],"stateMutability":"view"},{"type":"function","name":"NFT","inputs":[],"outputs":[{"name":"","type":"address","internalType":"address"}],"stateMutability":"view"},{"type":"function","name":"RUGGED","inputs":[],"outputs":[{"name":"","type":"address","internalType":"address"}],"stateMutability":"view"},{"type":"function","name":"stakeSingle","inputs":[{"name":"tokenId","type":"uint256","internalType":"uint256"}],"outputs":[],"stateMutability":"nonpayable"},{"type":"function","name":"unwindToController","inputs":[],"outputs":[{"name":"forwarded","type":"uint256","internalType":"uint256"}],"stateMutability":"nonpayable"}],"bytecode":{"object":"0x610100346100e257601f6108ab38819003918201601f19168301916001600160401b038311848410176100e6578084926080946040528339810103126100e257610048816100fa565b90610055602082016100fa565b61006d6060610066604085016100fa565b93016100fa565b9260805260a05260c05260e05260405161079c908161010f8239608051818181607101528181610184015281816103e20152610698015260a05181818160fe015281816101cf0152610434015260c0518181816103680152610409015260e05181818160b90152818161014001526103b20152f35b5f80fd5b634e487b7160e01b5f52604160045260245ffd5b51906001600160a01b03821682036100e25756fe60806040526004361015610011575f80fd5b5f5f3560e01c80637b86a66e146103975780637c0b8de21461035257806390758e4e1461012d578063dd45af8d146100e8578063ee0fc121146100a35763f46f16c21461005c575f80fd5b346100a057806003193601126100a0576040517f00000000000000000000000000000000000000000000000000000000000000006001600160a01b03168152602090f35b80fd5b50346100a057806003193601126100a0576040517f00000000000000000000000000000000000000000000000000000000000000006001600160a01b03168152602090f35b50346100a057806003193601126100a0576040517f00000000000000000000000000000000000000000000000000000000000000006001600160a01b03168152602090f35b50346100a057806003193601126100a0577f00000000000000000000000000000000000000000000000000000000000000009080610175336001600160a01b03851614610520565b60405163b88a802f60e01b81527f00000000000000000000000000000000000000000000000000000000000000006001600160a01b03169060208160048186865af161031f575b506101c561066b565b806102da575b50507f00000000000000000000000000000000000000000000000000000000000000006101f830826106f2565b938461020a575b602084604051908152f35b60405163a9059cbb60e01b602082019081526001600160a01b039092166024820152604481018690529293508392839061025181606481015b03601f19810183528261055e565b51925af161025d610594565b816102ab575b5015610274576020905f80806101ff565b60405162461bcd60e51b815260206004820152600f60248201526e1514905394d1915497d19052531151608a1b6044820152606490fd5b80518015925082156102c0575b50505f610263565b6102d392506020809183010191016105d3565b5f806102b8565b813b1561031b578280926024829360405194859384926305c2fbcf60e31b845260048401525af1156101cb57816103109161055e565b6100a057805f6101cb565b8280fd5b6020813d60201161034a575b816103386020938361055e565b8101031261034657516101bc565b5f80fd5b3d915061032b565b50346100a057806003193601126100a0576040517f00000000000000000000000000000000000000000000000000000000000000006001600160a01b03168152602090f35b5034610346576020366003190112610346576004356103e0337f00000000000000000000000000000000000000000000000000000000000000006001600160a01b031614610520565b7f00000000000000000000000000000000000000000000000000000000000000009061042d81837f00000000000000000000000000000000000000000000000000000000000000006105eb565b61045881837f00000000000000000000000000000000000000000000000000000000000000006105eb565b604090815192610468838561055e565b600184526020840191601f19840136843784511561050c5782526001600160a01b031690813b156103465782516307a4524160e11b815260206004820152935160248501819052849160448301915f5b8181106104f35750505091815f81819503925af19081156104ea57506104dc575080f35b6104e891505f9061055e565b005b513d5f823e3d90fd5b82518452879450602093840193909201916001016104b8565b634e487b7160e01b5f52603260045260245ffd5b1561052757565b60405162461bcd60e51b815260206004820152600f60248201526e27a7262cafa1a7a72a2927a62622a960891b6044820152606490fd5b90601f8019910116810190811067ffffffffffffffff82111761058057604052565b634e487b7160e01b5f52604160045260245ffd5b3d156105ce573d9067ffffffffffffffff821161058057604051916105c3601f8201601f19166020018461055e565b82523d5f602084013e565b606090565b90816020910312610346575180151581036103465790565b919091803b156106665760405163095ea7b360e01b602082019081526001600160a01b03909416602482015260448101929092525f92839283906106328160648101610243565b51925af161063e610594565b906106465750565b80519081610652575050565b6020806106639383010191016105d3565b50565b505050565b5f8060405160208101906348b4573960e11b82523060248201526024815261069460448261055e565b51907f00000000000000000000000000000000000000000000000000000000000000005afa6106c1610594565b901580156106e7575b6106e257604081805181010312610346576020015190565b505f90565b5060408151106106ca565b6040516370a0823160e01b602082019081526001600160a01b0390931660248083019190915281525f9283929161072a60448261055e565b51915afa610736610594565b9015801561075b575b6106e25760208151918180820193849201010312610346575190565b50602081511061073f56fea2646970667358221220560f8606cef5bc4f401e8a6182405014943e5b217b1d6dd1b3a4e12ed05ddf0f64736f6c634300081e0033","linkReferences":{}},"methodIdentifiers":{"CONTROLLER()":"ee0fc121","MARKET()":"f46f16c2","NFT()":"7c0b8de2","RUGGED()":"dd45af8d","stakeSingle(uint256)":"7b86a66e","unwindToController()":"90758e4e"},"id":0}