{"abi":[{"type":"constructor","inputs":[],"stateMutability":"nonpayable"},{"type":"receive","stateMutability":"payable"},{"type":"function","name":"TARGET","inputs":[],"outputs":[{"name":"","type":"address","internalType":"contract ILuckyTiger"}],"stateMutability":"view"},{"type":"function","name":"UNIV2_WETH_USDC","inputs":[],"outputs":[{"name":"","type":"address","internalType":"contract IUniswapV2Pair"}],"stateMutability":"view"},{"type":"function","name":"WETH","inputs":[],"outputs":[{"name":"","type":"address","internalType":"contract IWETH9"}],"stateMutability":"view"},{"type":"function","name":"discoveredVictim","inputs":[],"outputs":[{"name":"","type":"address","internalType":"address"}],"stateMutability":"view"},{"type":"function","name":"executeOnOpportunity","inputs":[],"outputs":[],"stateMutability":"nonpayable"},{"type":"function","name":"hypothesisValidated","inputs":[],"outputs":[{"name":"","type":"bool","internalType":"bool"}],"stateMutability":"view"},{"type":"function","name":"mintedTokenId","inputs":[],"outputs":[{"name":"","type":"uint256","internalType":"uint256"}],"stateMutability":"view"},{"type":"function","name":"onERC721Received","inputs":[{"name":"","type":"address","internalType":"address"},{"name":"","type":"address","internalType":"address"},{"name":"","type":"uint256","internalType":"uint256"},{"name":"","type":"bytes","internalType":"bytes"}],"outputs":[{"name":"","type":"bytes4","internalType":"bytes4"}],"stateMutability":"pure"},{"type":"function","name":"profitAmount","inputs":[],"outputs":[{"name":"","type":"uint256","internalType":"uint256"}],"stateMutability":"view"},{"type":"function","name":"profitToken","inputs":[],"outputs":[{"name":"","type":"address","internalType":"address"}],"stateMutability":"pure"},{"type":"function","name":"uniswapV2Call","inputs":[{"name":"sender","type":"address","internalType":"address"},{"name":"amount0","type":"uint256","internalType":"uint256"},{"name":"amount1","type":"uint256","internalType":"uint256"},{"name":"","type":"bytes","internalType":"bytes"}],"outputs":[],"stateMutability":"nonpayable"},{"type":"error","name":"FlashswapSenderMismatch","inputs":[{"name":"sender","type":"address","internalType":"address"}]},{"type":"error","name":"MintNotAssignedToAttacker","inputs":[{"name":"tokenId","type":"uint256","internalType":"uint256"}]},{"type":"error","name":"MissingRepaymentLiquidity","inputs":[{"name":"requiredWeth","type":"uint256","internalType":"uint256"},{"name":"currentWeth","type":"uint256","internalType":"uint256"}]},{"type":"error","name":"UnexpectedFlashswapCaller","inputs":[{"name":"caller","type":"address","internalType":"address"}]},{"type":"error","name":"WhitelistNotConsumed","inputs":[{"name":"victim","type":"address","internalType":"address"}]}],"bytecode":{"object":"0x6080604052348015600e575f5ffd5b506122568061001c5f395ff3fe60806040526004361061009f575f3560e01c80635ff972cc116100635780635ff972cc146101785780636d0d2c2a146101a257806372c60172146101cc578063ad5c4648146101f6578063cc1f2afa14610220578063fabae3eb1461024a576100a6565b806310d1e85c146100aa578063150b7a02146100d25780633c2448ed1461010e578063463defd114610124578063493436241461014e576100a6565b366100a657005b5f5ffd5b3480156100b5575f5ffd5b506100d060048036038101906100cb9190611a39565b610274565b005b3480156100dd575f5ffd5b506100f860048036038101906100f39190611abd565b6106c0565b6040516101059190611b7b565b60405180910390f35b348015610119575f5ffd5b506101226106d4565b005b34801561012f575f5ffd5b50610138610b0b565b6040516101459190611bae565b60405180910390f35b348015610159575f5ffd5b50610162610b1d565b60405161016f9190611bd6565b60405180910390f35b348015610183575f5ffd5b5061018c610b38565b6040516101999190611bfe565b60405180910390f35b3480156101ad575f5ffd5b506101b6610b41565b6040516101c39190611c72565b60405180910390f35b3480156101d7575f5ffd5b506101e0610b59565b6040516101ed9190611bd6565b60405180910390f35b348015610201575f5ffd5b5061020a610b7d565b6040516102179190611cab565b60405180910390f35b34801561022b575f5ffd5b50610234610b95565b6040516102419190611ce4565b60405180910390f35b348015610255575f5ffd5b5061025e610bad565b60405161026b9190611bfe565b60405180910390f35b73b4e16d0168e52d35cacd2c6185b44281ec28c9dc73ffffffffffffffffffffffffffffffffffffffff163373ffffffffffffffffffffffffffffffffffffffff16146102f857336040517fd49432a30000000000000000000000000000000000000000000000000000000081526004016102ef9190611bd6565b60405180910390fd5b3073ffffffffffffffffffffffffffffffffffffffff168573ffffffffffffffffffffffffffffffffffffffff161461036857846040517f6e53d6fb00000000000000000000000000000000000000000000000000000000815260040161035f9190611bd6565b60405180910390fd5b5f5f84116103765784610378565b835b90505f739c87a5726e98f2f404cdd8ac8968e9b2c80c096773ffffffffffffffffffffffffffffffffffffffff1663a035b1fe6040518163ffffffff1660e01b8152600401602060405180830381865afa1580156103d8573d5f5f3e3d5ffd5b505050506040513d601f19601f820116820180604052508101906103fc9190611d11565b905073c02aaa39b223fe8d0a0e5c4f27ead9083c756cc273ffffffffffffffffffffffffffffffffffffffff16632e1a7d4d826040518263ffffffff1660e01b815260040161044b9190611bfe565b5f604051808303815f87803b158015610462575f5ffd5b505af1158015610474573d5f5f3e3d5ffd5b50505050739c87a5726e98f2f404cdd8ac8968e9b2c80c096773ffffffffffffffffffffffffffffffffffffffff166326092b83826040518263ffffffff1660e01b81526004015f604051808303818588803b1580156104d2575f5ffd5b505af11580156104e4573d5f5f3e3d5ffd5b50505050506104f1610bb3565b5f6104fb83610c34565b90505f73c02aaa39b223fe8d0a0e5c4f27ead9083c756cc273ffffffffffffffffffffffffffffffffffffffff166370a08231306040518263ffffffff1660e01b815260040161054b9190611bd6565b602060405180830381865afa158015610566573d5f5f3e3d5ffd5b505050506040513d601f19601f8201168201806040525081019061058a9190611d11565b9050818110156105d35781816040517fe29682130000000000000000000000000000000000000000000000000000000081526004016105ca929190611d3c565b60405180910390fd5b73c02aaa39b223fe8d0a0e5c4f27ead9083c756cc273ffffffffffffffffffffffffffffffffffffffff1663a9059cbb73b4e16d0168e52d35cacd2c6185b44281ec28c9dc846040518363ffffffff1660e01b8152600401610636929190611d63565b6020604051808303815f875af1158015610652573d5f5f3e3d5ffd5b505050506040513d601f19601f820116820180604052508101906106769190611db4565b6106b5576040517f08c379a00000000000000000000000000000000000000000000000000000000081526004016106ac90611e39565b60405180910390fd5b505050505050505050565b5f63150b7a0260e01b905095945050505050565b739c87a5726e98f2f404cdd8ac8968e9b2c80c096773ffffffffffffffffffffffffffffffffffffffff1663cd85cdb56040518163ffffffff1660e01b8152600401602060405180830381865afa158015610731573d5f5f3e3d5ffd5b505050506040513d601f19601f820116820180604052508101906107559190611db4565b610b09575f739c87a5726e98f2f404cdd8ac8968e9b2c80c096773ffffffffffffffffffffffffffffffffffffffff166318160ddd6040518163ffffffff1660e01b8152600401602060405180830381865afa1580156107b7573d5f5f3e3d5ffd5b505050506040513d601f19601f820116820180604052508101906107db9190611d11565b9050739c87a5726e98f2f404cdd8ac8968e9b2c80c096773ffffffffffffffffffffffffffffffffffffffff1663648e3c266040518163ffffffff1660e01b8152600401602060405180830381865afa15801561083a573d5f5f3e3d5ffd5b505050506040513d601f19601f8201168201806040525081019061085e9190611d11565b811061086a5750610b09565b5f73c02aaa39b223fe8d0a0e5c4f27ead9083c756cc273ffffffffffffffffffffffffffffffffffffffff166370a08231306040518263ffffffff1660e01b81526004016108b89190611bd6565b602060405180830381865afa1580156108d3573d5f5f3e3d5ffd5b505050506040513d601f19601f820116820180604052508101906108f79190611d11565b90505f6001836109079190611e84565b90506109138184610c63565b156109c557610920610bb3565b8173c02aaa39b223fe8d0a0e5c4f27ead9083c756cc273ffffffffffffffffffffffffffffffffffffffff166370a08231306040518263ffffffff1660e01b815260040161096e9190611bd6565b602060405180830381865afa158015610989573d5f5f3e3d5ffd5b505050506040513d601f19601f820116820180604052508101906109ad9190611d11565b6109b79190611eb7565b600281905550505050610b09565b6109cd61103b565b6109d957505050610b09565b6109e1611080565b739c87a5726e98f2f404cdd8ac8968e9b2c80c096773ffffffffffffffffffffffffffffffffffffffff166318160ddd6040518163ffffffff1660e01b8152600401602060405180830381865afa158015610a3e573d5f5f3e3d5ffd5b505050506040513d601f19601f82011682018060405250810190610a629190611d11565b6001819055508173c02aaa39b223fe8d0a0e5c4f27ead9083c756cc273ffffffffffffffffffffffffffffffffffffffff166370a08231306040518263ffffffff1660e01b8152600401610ab69190611bd6565b602060405180830381865afa158015610ad1573d5f5f3e3d5ffd5b505050506040513d601f19601f82011682018060405250810190610af59190611d11565b610aff9190611eb7565b6002819055505050505b565b60035f9054906101000a900460ff1681565b5f73c02aaa39b223fe8d0a0e5c4f27ead9083c756cc2905090565b5f600254905090565b73b4e16d0168e52d35cacd2c6185b44281ec28c9dc81565b5f5f9054906101000a900473ffffffffffffffffffffffffffffffffffffffff1681565b73c02aaa39b223fe8d0a0e5c4f27ead9083c756cc281565b739c87a5726e98f2f404cdd8ac8968e9b2c80c096781565b60015481565b5f4790505f811115610c315773c02aaa39b223fe8d0a0e5c4f27ead9083c756cc273ffffffffffffffffffffffffffffffffffffffff1663d0e30db0826040518263ffffffff1660e01b81526004015f604051808303818588803b158015610c19575f5ffd5b505af1158015610c2b573d5f5f3e3d5ffd5b50505050505b50565b5f60016103e56103e884610c489190611eea565b610c529190611f58565b610c5c9190611e84565b9050919050565b5f5f6040518060800160405280739c87a5726e98f2f404cdd8ac8968e9b2c80c096773ffffffffffffffffffffffffffffffffffffffff16638da5cb5b6040518163ffffffff1660e01b8152600401602060405180830381865afa158015610ccd573d5f5f3e3d5ffd5b505050506040513d601f19601f82011682018060405250810190610cf19190611f9c565b73ffffffffffffffffffffffffffffffffffffffff1673ffffffffffffffffffffffffffffffffffffffff168152602001739c87a5726e98f2f404cdd8ac8968e9b2c80c096773ffffffffffffffffffffffffffffffffffffffff16631581b6006040518163ffffffff1660e01b8152600401602060405180830381865afa158015610d7f573d5f5f3e3d5ffd5b505050506040513d601f19601f82011682018060405250810190610da39190611f9c565b73ffffffffffffffffffffffffffffffffffffffff1673ffffffffffffffffffffffffffffffffffffffff168152602001739c87a5726e98f2f404cdd8ac8968e9b2c80c096773ffffffffffffffffffffffffffffffffffffffff1673ffffffffffffffffffffffffffffffffffffffff1681526020013073ffffffffffffffffffffffffffffffffffffffff1673ffffffffffffffffffffffffffffffffffffffff1681525090505f5f90505b6004811015610e9857610e7b828260048110610e7057610e6f611fc7565b5b6020020151866114ec565b15610e8b57600192505050611035565b8080600101915050610e51565b505f8367ffffffffffffffff811115610eb457610eb3611ff4565b5b604051908082528060200260200182016040528015610ee25781602001602082028036833780820191505090505b5090505f5f600190505b85811161102d575f739c87a5726e98f2f404cdd8ac8968e9b2c80c096773ffffffffffffffffffffffffffffffffffffffff16636352211e836040518263ffffffff1660e01b8152600401610f419190611bfe565b602060405180830381865afa925050508015610f7b57506040513d601f19601f82011682018060405250810190610f789190611f9c565b60015b610f85575061101a565b80915050610f948484836118c5565b15610f9f575061101a565b80848481518110610fb357610fb2611fc7565b5b602002602001019073ffffffffffffffffffffffffffffffffffffffff16908173ffffffffffffffffffffffffffffffffffffffff16815250508280610ff890612021565b93505061100581896114ec565b1561101857600195505050505050611035565b505b808061102590612021565b915050610eec565b505f93505050505b92915050565b5f5f4442604051602001611050929190612088565b604051602081830303815290604052805190602001205f1c9050600160028261107991906120b3565b1491505090565b73c02aaa39b223fe8d0a0e5c4f27ead9083c756cc273ffffffffffffffffffffffffffffffffffffffff1673b4e16d0168e52d35cacd2c6185b44281ec28c9dc73ffffffffffffffffffffffffffffffffffffffff1663d21220a76040518163ffffffff1660e01b8152600401602060405180830381865afa158015611108573d5f5f3e3d5ffd5b505050506040513d601f19601f8201168201806040525081019061112c9190611f9c565b73ffffffffffffffffffffffffffffffffffffffff1614158015611210575073c02aaa39b223fe8d0a0e5c4f27ead9083c756cc273ffffffffffffffffffffffffffffffffffffffff1673b4e16d0168e52d35cacd2c6185b44281ec28c9dc73ffffffffffffffffffffffffffffffffffffffff16630dfe16816040518163ffffffff1660e01b8152600401602060405180830381865afa1580156111d3573d5f5f3e3d5ffd5b505050506040513d601f19601f820116820180604052508101906111f79190611f9c565b73ffffffffffffffffffffffffffffffffffffffff1614155b156112665773b4e16d0168e52d35cacd2c6185b44281ec28c9dc6040517fd49432a300000000000000000000000000000000000000000000000000000000815260040161125d9190611bd6565b60405180910390fd5b5f739c87a5726e98f2f404cdd8ac8968e9b2c80c096773ffffffffffffffffffffffffffffffffffffffff1663a035b1fe6040518163ffffffff1660e01b8152600401602060405180830381865afa1580156112c4573d5f5f3e3d5ffd5b505050506040513d601f19601f820116820180604052508101906112e89190611d11565b90505f81036112f757506114ea565b5f816040516020016113099190611bfe565b604051602081830303815290604052905073c02aaa39b223fe8d0a0e5c4f27ead9083c756cc273ffffffffffffffffffffffffffffffffffffffff1673b4e16d0168e52d35cacd2c6185b44281ec28c9dc73ffffffffffffffffffffffffffffffffffffffff1663d21220a76040518163ffffffff1660e01b8152600401602060405180830381865afa1580156113a2573d5f5f3e3d5ffd5b505050506040513d601f19601f820116820180604052508101906113c69190611f9c565b73ffffffffffffffffffffffffffffffffffffffff16036114665773b4e16d0168e52d35cacd2c6185b44281ec28c9dc73ffffffffffffffffffffffffffffffffffffffff1663022c0d9f5f8430856040518563ffffffff1660e01b8152600401611434949392919061218c565b5f604051808303815f87803b15801561144b575f5ffd5b505af115801561145d573d5f5f3e3d5ffd5b505050506114e7565b73b4e16d0168e52d35cacd2c6185b44281ec28c9dc73ffffffffffffffffffffffffffffffffffffffff1663022c0d9f835f30856040518563ffffffff1660e01b81526004016114b994939291906121d6565b5f604051808303815f87803b1580156114d0575f5ffd5b505af11580156114e2573d5f5f3e3d5ffd5b505050505b50505b565b5f5f73ffffffffffffffffffffffffffffffffffffffff168373ffffffffffffffffffffffffffffffffffffffff16148061157257505f5f9054906101000a900473ffffffffffffffffffffffffffffffffffffffff1673ffffffffffffffffffffffffffffffffffffffff168373ffffffffffffffffffffffffffffffffffffffff16145b1561157f575f90506118bf565b739c87a5726e98f2f404cdd8ac8968e9b2c80c096773ffffffffffffffffffffffffffffffffffffffff1663f99031a7846040518263ffffffff1660e01b81526004016115cc9190611bd6565b602060405180830381865afa1580156115e7573d5f5f3e3d5ffd5b505050506040513d601f19601f8201168201806040525081019061160b9190611db4565b611617575f90506118bf565b739c87a5726e98f2f404cdd8ac8968e9b2c80c096773ffffffffffffffffffffffffffffffffffffffff1663fa07ce1d846040518263ffffffff1660e01b81526004016116649190611bd6565b5f604051808303815f87803b15801561167b575f5ffd5b505af115801561168d573d5f5f3e3d5ffd5b505050503073ffffffffffffffffffffffffffffffffffffffff16739c87a5726e98f2f404cdd8ac8968e9b2c80c096773ffffffffffffffffffffffffffffffffffffffff16636352211e846040518263ffffffff1660e01b81526004016116f59190611bfe565b602060405180830381865afa158015611710573d5f5f3e3d5ffd5b505050506040513d601f19601f820116820180604052508101906117349190611f9c565b73ffffffffffffffffffffffffffffffffffffffff161461178c57816040517f6b12a7dc0000000000000000000000000000000000000000000000000000000081526004016117839190611bfe565b60405180910390fd5b739c87a5726e98f2f404cdd8ac8968e9b2c80c096773ffffffffffffffffffffffffffffffffffffffff1663f99031a7846040518263ffffffff1660e01b81526004016117d99190611bd6565b602060405180830381865afa1580156117f4573d5f5f3e3d5ffd5b505050506040513d601f19601f820116820180604052508101906118189190611db4565b1561185a57826040517fca088ca40000000000000000000000000000000000000000000000000000000081526004016118519190611bd6565b60405180910390fd5b825f5f6101000a81548173ffffffffffffffffffffffffffffffffffffffff021916908373ffffffffffffffffffffffffffffffffffffffff16021790555081600181905550600160035f6101000a81548160ff021916908315150217905550600190505b92915050565b5f5f5f90505b83811015611937578273ffffffffffffffffffffffffffffffffffffffff168582815181106118fd576118fc611fc7565b5b602002602001015173ffffffffffffffffffffffffffffffffffffffff160361192a57600191505061193c565b80806001019150506118cb565b505f90505b9392505050565b5f5ffd5b5f5ffd5b5f73ffffffffffffffffffffffffffffffffffffffff82169050919050565b5f6119748261194b565b9050919050565b6119848161196a565b811461198e575f5ffd5b50565b5f8135905061199f8161197b565b92915050565b5f819050919050565b6119b7816119a5565b81146119c1575f5ffd5b50565b5f813590506119d2816119ae565b92915050565b5f5ffd5b5f5ffd5b5f5ffd5b5f5f83601f8401126119f9576119f86119d8565b5b8235905067ffffffffffffffff811115611a1657611a156119dc565b5b602083019150836001820283011115611a3257611a316119e0565b5b9250929050565b5f5f5f5f5f60808688031215611a5257611a51611943565b5b5f611a5f88828901611991565b9550506020611a70888289016119c4565b9450506040611a81888289016119c4565b935050606086013567ffffffffffffffff811115611aa257611aa1611947565b5b611aae888289016119e4565b92509250509295509295909350565b5f5f5f5f5f60808688031215611ad657611ad5611943565b5b5f611ae388828901611991565b9550506020611af488828901611991565b9450506040611b05888289016119c4565b935050606086013567ffffffffffffffff811115611b2657611b25611947565b5b611b32888289016119e4565b92509250509295509295909350565b5f7fffffffff0000000000000000000000000000000000000000000000000000000082169050919050565b611b7581611b41565b82525050565b5f602082019050611b8e5f830184611b6c565b92915050565b5f8115159050919050565b611ba881611b94565b82525050565b5f602082019050611bc15f830184611b9f565b92915050565b611bd08161196a565b82525050565b5f602082019050611be95f830184611bc7565b92915050565b611bf8816119a5565b82525050565b5f602082019050611c115f830184611bef565b92915050565b5f819050919050565b5f611c3a611c35611c308461194b565b611c17565b61194b565b9050919050565b5f611c4b82611c20565b9050919050565b5f611c5c82611c41565b9050919050565b611c6c81611c52565b82525050565b5f602082019050611c855f830184611c63565b92915050565b5f611c9582611c41565b9050919050565b611ca581611c8b565b82525050565b5f602082019050611cbe5f830184611c9c565b92915050565b5f611cce82611c41565b9050919050565b611cde81611cc4565b82525050565b5f602082019050611cf75f830184611cd5565b92915050565b5f81519050611d0b816119ae565b92915050565b5f60208284031215611d2657611d25611943565b5b5f611d3384828501611cfd565b91505092915050565b5f604082019050611d4f5f830185611bef565b611d5c6020830184611bef565b9392505050565b5f604082019050611d765f830185611bc7565b611d836020830184611bef565b9392505050565b611d9381611b94565b8114611d9d575f5ffd5b50565b5f81519050611dae81611d8a565b92915050565b5f60208284031215611dc957611dc8611943565b5b5f611dd684828501611da0565b91505092915050565b5f82825260208201905092915050565b7f57455448207265706179206661696c65640000000000000000000000000000005f82015250565b5f611e23601183611ddf565b9150611e2e82611def565b602082019050919050565b5f6020820190508181035f830152611e5081611e17565b9050919050565b7f4e487b71000000000000000000000000000000000000000000000000000000005f52601160045260245ffd5b5f611e8e826119a5565b9150611e99836119a5565b9250828201905080821115611eb157611eb0611e57565b5b92915050565b5f611ec1826119a5565b9150611ecc836119a5565b9250828203905081811115611ee457611ee3611e57565b5b92915050565b5f611ef4826119a5565b9150611eff836119a5565b9250828202611f0d816119a5565b91508282048414831517611f2457611f23611e57565b5b5092915050565b7f4e487b71000000000000000000000000000000000000000000000000000000005f52601260045260245ffd5b5f611f62826119a5565b9150611f6d836119a5565b925082611f7d57611f7c611f2b565b5b828204905092915050565b5f81519050611f968161197b565b92915050565b5f60208284031215611fb157611fb0611943565b5b5f611fbe84828501611f88565b91505092915050565b7f4e487b71000000000000000000000000000000000000000000000000000000005f52603260045260245ffd5b7f4e487b71000000000000000000000000000000000000000000000000000000005f52604160045260245ffd5b5f61202b826119a5565b91507fffffffffffffffffffffffffffffffffffffffffffffffffffffffffffffffff820361205d5761205c611e57565b5b600182019050919050565b5f819050919050565b61208261207d826119a5565b612068565b82525050565b5f6120938285612071565b6020820191506120a38284612071565b6020820191508190509392505050565b5f6120bd826119a5565b91506120c8836119a5565b9250826120d8576120d7611f2b565b5b828206905092915050565b5f819050919050565b5f6121066121016120fc846120e3565b611c17565b6119a5565b9050919050565b612116816120ec565b82525050565b5f81519050919050565b5f82825260208201905092915050565b8281835e5f83830152505050565b5f601f19601f8301169050919050565b5f61215e8261211c565b6121688185612126565b9350612178818560208601612136565b61218181612144565b840191505092915050565b5f60808201905061219f5f83018761210d565b6121ac6020830186611bef565b6121b96040830185611bc7565b81810360608301526121cb8184612154565b905095945050505050565b5f6080820190506121e95f830187611bef565b6121f6602083018661210d565b6122036040830185611bc7565b81810360608301526122158184612154565b90509594505050505056fea2646970667358221220581cac0cc9be81a3fcba71df9ed337057de15d7ca9a40a7770024282e9bd23f764736f6c634300081e0033","linkReferences":{}},"methodIdentifiers":{"TARGET()":"cc1f2afa","UNIV2_WETH_USDC()":"6d0d2c2a","WETH()":"ad5c4648","discoveredVictim()":"72c60172","executeOnOpportunity()":"3c2448ed","hypothesisValidated()":"463defd1","mintedTokenId()":"fabae3eb","onERC721Received(address,address,uint256,bytes)":"150b7a02","profitAmount()":"5ff972cc","profitToken()":"49343624","uniswapV2Call(address,uint256,uint256,bytes)":"10d1e85c"},"id":0}