{"abi":[{"type":"constructor","inputs":[],"stateMutability":"nonpayable"},{"type":"receive","stateMutability":"payable"},{"type":"function","name":"buyCreditReservedIdPath","inputs":[],"outputs":[{"name":"","type":"tuple","internalType":"struct FlawVerifier.PathResult","components":[{"name":"attempted","type":"bool","internalType":"bool"},{"name":"feasible","type":"bool","internalType":"bool"},{"name":"succeeded","type":"bool","internalType":"bool"},{"name":"reason","type":"string","internalType":"string"}]}],"stateMutability":"view"},{"type":"function","name":"executeOnOpportunity","inputs":[],"outputs":[],"stateMutability":"nonpayable"},{"type":"function","name":"exploitPathUsed","inputs":[],"outputs":[{"name":"","type":"string","internalType":"string"}],"stateMutability":"view"},{"type":"function","name":"liquidateWithReplacementPath","inputs":[],"outputs":[{"name":"","type":"tuple","internalType":"struct FlawVerifier.PathResult","components":[{"name":"attempted","type":"bool","internalType":"bool"},{"name":"feasible","type":"bool","internalType":"bool"},{"name":"succeeded","type":"bool","internalType":"bool"},{"name":"reason","type":"string","internalType":"string"}]}],"stateMutability":"view"},{"type":"function","name":"profitAmount","inputs":[],"outputs":[{"name":"","type":"uint256","internalType":"uint256"}],"stateMutability":"view"},{"type":"function","name":"profitToken","inputs":[],"outputs":[{"name":"","type":"address","internalType":"address"}],"stateMutability":"view"},{"type":"function","name":"sellCreditReservedIdPath","inputs":[],"outputs":[{"name":"","type":"tuple","internalType":"struct FlawVerifier.PathResult","components":[{"name":"attempted","type":"bool","internalType":"bool"},{"name":"feasible","type":"bool","internalType":"bool"},{"name":"succeeded","type":"bool","internalType":"bool"},{"name":"reason","type":"string","internalType":"string"}]}],"stateMutability":"view"},{"type":"function","name":"validationState","inputs":[],"outputs":[{"name":"","type":"uint8","internalType":"enum FlawVerifier.ValidationState"}],"stateMutability":"view"},{"type":"event","name":"PathEvaluated","inputs":[{"name":"pathId","type":"uint8","indexed":true,"internalType":"uint8"},{"name":"feasible","type":"bool","indexed":false,"internalType":"bool"},{"name":"succeeded","type":"bool","indexed":false,"internalType":"bool"},{"name":"reason","type":"string","indexed":false,"internalType":"string"}],"anonymous":false},{"type":"event","name":"ProgressiveRoundsEvaluated","inputs":[{"name":"rounds","type":"uint256","indexed":false,"internalType":"uint256"},{"name":"estimatedNetProfit","type":"uint256","indexed":false,"internalType":"uint256"}],"anonymous":false},{"type":"event","name":"Summary","inputs":[{"name":"profitToken","type":"address","indexed":false,"internalType":"address"},{"name":"profitAmount","type":"uint256","indexed":false,"internalType":"uint256"},{"name":"validationState","type":"uint8","indexed":false,"internalType":"enum FlawVerifier.ValidationState"},{"name":"exploitPathUsed","type":"string","indexed":false,"internalType":"string"}],"anonymous":false}],"bytecode":{"object":"0x608060405234801561000f575f5ffd5b50736b175474e89094c44da98b954eedeac495271d0f5f5f6101000a81548173ffffffffffffffffffffffffffffffffffffffff021916908373ffffffffffffffffffffffffffffffffffffffff1602179055506040518060400160405280601c81526020017f73656c6c4372656469744d61726b65745f52455345525645445f494400000000815250600290816100a79190610313565b505f60035f6101000a81548160ff021916908360038111156100cc576100cb6103e2565b5b021790555061040f565b5f81519050919050565b7f4e487b71000000000000000000000000000000000000000000000000000000005f52604160045260245ffd5b7f4e487b71000000000000000000000000000000000000000000000000000000005f52602260045260245ffd5b5f600282049050600182168061015157607f821691505b6020821081036101645761016361010d565b5b50919050565b5f819050815f5260205f209050919050565b5f6020601f8301049050919050565b5f82821b905092915050565b5f600883026101c67fffffffffffffffffffffffffffffffffffffffffffffffffffffffffffffffff8261018b565b6101d0868361018b565b95508019841693508086168417925050509392505050565b5f819050919050565b5f819050919050565b5f61021461020f61020a846101e8565b6101f1565b6101e8565b9050919050565b5f819050919050565b61022d836101fa565b6102416102398261021b565b848454610197565b825550505050565b5f5f905090565b610258610249565b610263818484610224565b505050565b5b818110156102865761027b5f82610250565b600181019050610269565b5050565b601f8211156102cb5761029c8161016a565b6102a58461017c565b810160208510156102b4578190505b6102c86102c08561017c565b830182610268565b50505b505050565b5f82821c905092915050565b5f6102eb5f19846008026102d0565b1980831691505092915050565b5f61030383836102dc565b9150826002028217905092915050565b61031c826100d6565b67ffffffffffffffff811115610335576103346100e0565b5b61033f825461013a565b61034a82828561028a565b5f60209050601f83116001811461037b575f8415610369578287015190505b61037385826102f8565b8655506103da565b601f1984166103898661016a565b5f5b828110156103b05784890151825560018201915060208501945060208101905061038b565b868310156103cd57848901516103c9601f8916826102dc565b8355505b6001600288020188555050505b505050505050565b7f4e487b71000000000000000000000000000000000000000000000000000000005f52602160045260245ffd5b61343e8061041c5f395ff3fe60806040526004361061007e575f3560e01c8063493436241161004d578063493436241461011d5780635ff972cc146101475780637d4c12f214610171578063d78c42811461019b57610085565b80631b94a1ce146100895780631e59680b146100b357806332b91014146100dd5780633c2448ed1461010757610085565b3661008557005b5f5ffd5b348015610094575f5ffd5b5061009d6101c5565b6040516100aa9190611f23565b60405180910390f35b3480156100be575f5ffd5b506100c76102bc565b6040516100d49190611fb6565b60405180910390f35b3480156100e8575f5ffd5b506100f16102d1565b6040516100fe9190611f23565b60405180910390f35b348015610112575f5ffd5b5061011b6103c8565b005b348015610128575f5ffd5b50610131610a57565b60405161013e919061200e565b60405180910390f35b348015610152575f5ffd5b5061015b610a7e565b604051610168919061203f565b60405180910390f35b34801561017c575f5ffd5b50610185610a87565b6040516101929190611f23565b60405180910390f35b3480156101a6575f5ffd5b506101af610b7e565b6040516101bc91906120a0565b60405180910390f35b6101cd611df6565b60066040518060800160405290815f82015f9054906101000a900460ff161515151581526020015f820160019054906101000a900460ff161515151581526020015f820160029054906101000a900460ff16151515158152602001600182018054610237906120ed565b80601f0160208091040260200160405190810160405280929190818152602001828054610263906120ed565b80156102ae5780601f10610285576101008083540402835291602001916102ae565b820191905f5260205f20905b81548152906001019060200180831161029157829003601f168201915b505050505081525050905090565b5f60035f9054906101000a900460ff16905090565b6102d9611df6565b60086040518060800160405290815f82015f9054906101000a900460ff161515151581526020015f820160019054906101000a900460ff161515151581526020015f820160029054906101000a900460ff16151515158152602001600182018054610343906120ed565b80601f016020809104026020016040519081016040528092919081815260200182805461036f906120ed565b80156103ba5780601f10610391576101008083540402835291602001916103ba565b820191905f5260205f20905b81548152906001019060200180831161039d57829003601f168201915b505050505081525050905090565b5f736b175474e89094c44da98b954eedeac495271d0f73ffffffffffffffffffffffffffffffffffffffff166370a08231306040518263ffffffff1660e01b8152600401610416919061200e565b602060405180830381865afa158015610431573d5f5f3e3d5ffd5b505050506040513d601f19601f820116820180604052508101906104559190612158565b9050736b175474e89094c44da98b954eedeac495271d0f5f5f6101000a81548173ffffffffffffffffffffffffffffffffffffffff021916908373ffffffffffffffffffffffffffffffffffffffff1602179055505f6001819055506040518060400160405280601c81526020017f73656c6c4372656469744d61726b65745f52455345525645445f494400000000815250600290816104f59190612350565b505f60035f6101000a81548160ff0219169083600381111561051a57610519611f43565b5b02179055505f5f5f5f5f61052c610c0e565b945094509450945094506105408585610ed2565b60045f820151815f015f6101000a81548160ff0219169083151502179055506020820151815f0160016101000a81548160ff0219169083151502179055506040820151815f0160026101000a81548160ff02191690831515021790555060608201518160010190816105b29190612350565b5090505060017f07f553c1616bbf0b11f5886ef3db1fad5fe920b5d1306f0dc06bb5b296e6492760045f0160019054906101000a900460ff1660045f0160029054906101000a900460ff166004600101604051610611939291906124af565b60405180910390a261062285610f6f565b60065f820151815f015f6101000a81548160ff0219169083151502179055506020820151815f0160016101000a81548160ff0219169083151502179055506040820151815f0160026101000a81548160ff02191690831515021790555060608201518160010190816106949190612350565b5090505060027f07f553c1616bbf0b11f5886ef3db1fad5fe920b5d1306f0dc06bb5b296e6492760065f0160019054906101000a900460ff1660065f0160029054906101000a900460ff1660066001016040516106f3939291906124af565b60405180910390a261070485610fd2565b60085f820151815f015f6101000a81548160ff0219169083151502179055506020820151815f0160016101000a81548160ff0219169083151502179055506040820151815f0160026101000a81548160ff02191690831515021790555060608201518160010190816107769190612350565b5090505060037f07f553c1616bbf0b11f5886ef3db1fad5fe920b5d1306f0dc06bb5b296e6492760085f0160019054906101000a900460ff1660085f0160029054906101000a900460ff1660086001016040516107d5939291906124af565b60405180910390a25f6107e6611035565b90508580156107f6575060028510155b801561080157505f81115b801561083957505f73ffffffffffffffffffffffffffffffffffffffff168273ffffffffffffffffffffffffffffffffffffffff1614155b156108ab575f61084b868685856110a4565b90507fc588cf851df9132f2201cc5001538aafcde7bc357cae3225ee137fbc1933658d815f015182602001516040516108859291906124eb565b60405180910390a16002815f0151106108a9576108a8815f0151868686866111df565b5b505b5f736b175474e89094c44da98b954eedeac495271d0f73ffffffffffffffffffffffffffffffffffffffff166370a08231306040518263ffffffff1660e01b81526004016108f9919061200e565b602060405180830381865afa158015610914573d5f5f3e3d5ffd5b505050506040513d601f19601f820116820180604052508101906109389190612158565b9050878111156109a057878161094e919061253f565b600181905550600160045f0160026101000a81548160ff021916908315150217905550600260035f6101000a81548160ff0219169083600381111561099657610995611f43565b5b02179055506109df565b5f600181905550866109b35760036109b6565b60015b60035f6101000a81548160ff021916908360038111156109d9576109d8611f43565b5b02179055505b7ff0c1f0a0aa84b3b887f230f9392259d339dd06f69ce47c02e803a135f4d9ae395f5f9054906101000a900473ffffffffffffffffffffffffffffffffffffffff1660015460035f9054906101000a900460ff166002604051610a459493929190612572565b60405180910390a15050505050505050565b5f5f5f9054906101000a900473ffffffffffffffffffffffffffffffffffffffff16905090565b5f600154905090565b610a8f611df6565b60046040518060800160405290815f82015f9054906101000a900460ff161515151581526020015f820160019054906101000a900460ff161515151581526020015f820160029054906101000a900460ff16151515158152602001600182018054610af9906120ed565b80601f0160208091040260200160405190810160405280929190818152602001828054610b25906120ed565b8015610b705780601f10610b4757610100808354040283529160200191610b70565b820191905f5260205f20905b815481529060010190602001808311610b5357829003601f168201915b505050505081525050905090565b606060028054610b8d906120ed565b80601f0160208091040260200160405190810160405280929190818152602001828054610bb9906120ed565b8015610c045780601f10610bdb57610100808354040283529160200191610c04565b820191905f5260205f20905b815481529060010190602001808311610be757829003601f168201915b5050505050905090565b5f5f5f5f5f5f73f4a21ac7e51d17a0e1c8b59f7a98bb7a97806f1473ffffffffffffffffffffffffffffffffffffffff163b11945084610c5c575f5f5f5f5f94509450945094509450610ecb565b73f4a21ac7e51d17a0e1c8b59f7a98bb7a97806f1473ffffffffffffffffffffffffffffffffffffffff16631d92c26d6040518163ffffffff1660e01b8152600401602060405180830381865afa925050508015610cd857506040513d601f19601f82011682018060405250810190610cd59190612158565b60015b610cf0575f5f5f5f5f94509450945094509450610ecb565b8094505073f4a21ac7e51d17a0e1c8b59f7a98bb7a97806f1473ffffffffffffffffffffffffffffffffffffffff16631694505e6040518163ffffffff1660e01b8152600401602060405180830381865afa925050508015610d7057506040513d601f19601f82011682018060405250810190610d6d91906125e6565b60015b15610d7a57809350505b73f4a21ac7e51d17a0e1c8b59f7a98bb7a97806f1473ffffffffffffffffffffffffffffffffffffffff16632c76d7a66040518163ffffffff1660e01b8152600401602060405180830381865afa925050508015610df657506040513d601f19601f82011682018060405250810190610df391906125e6565b60015b15610e0057809250505b5f73ffffffffffffffffffffffffffffffffffffffff168373ffffffffffffffffffffffffffffffffffffffff1614158015610e5257505f8373ffffffffffffffffffffffffffffffffffffffff163b115b15610eca578273ffffffffffffffffffffffffffffffffffffffff1663ad5c46486040518163ffffffff1660e01b8152600401602060405180830381865afa925050508015610ebf57506040513d601f19601f82011682018060405250810190610ebc91906125e6565b60015b15610ec957809150505b5b5b9091929394565b610eda611df6565b6001815f019015159081151581525050828015610ef8575060028210155b8160200190151590811515815250505f81604001901515908115158152505082610f42576040518060600160405280602881526020016133e1602891398160600181905250610f69565b604051602001610f519061295d565b60405160208183030381529060405281606001819052505b92915050565b610f77611df6565b6001815f019015159081151581525050818160200190151590811515815250505f816040019015159081151581525050604051602001610fb690612b71565b6040516020818303038152906040528160600181905250919050565b610fda611df6565b6001815f019015159081151581525050818160200190151590811515815250505f81604001901515908115158152505060405160200161101990612d7a565b6040516020818303038152906040528160600181905250919050565b5f5f4790506001811161104b575f9150506110a1565b5f6005826110599190612dc6565b9050655af3107a400081111561107357655af3107a400090505b80821161109057600182611087919061253f565b925050506110a1565b808261109c919061253f565b925050505b90565b6110ac611e21565b5f85905060068111156110be57600690505b60028110806110cc57505f83145b8061110257505f73ffffffffffffffffffffffffffffffffffffffff168573ffffffffffffffffffffffffffffffffffffffff16145b8061113857505f73ffffffffffffffffffffffffffffffffffffffff168473ffffffffffffffffffffffffffffffffffffffff16145b1561115a5760405180604001604052805f81526020015f8152509150506111d7565b6002825f018181525050611171600286868661139a565b8260200181815250505f600390505b8181116111d4575f6111948288888861139a565b905083602001518111156111ba5781845f018181525050808460200181815250506111c0565b506111d4565b5080806111cc90612df6565b915050611180565b50505b949350505050565b5f736b175474e89094c44da98b954eedeac495271d0f73ffffffffffffffffffffffffffffffffffffffff166370a08231306040518263ffffffff1660e01b815260040161122d919061200e565b602060405180830381865afa158015611248573d5f5f3e3d5ffd5b505050506040513d601f19601f8201168201806040525081019061126c9190612158565b90505f73ffffffffffffffffffffffffffffffffffffffff168573ffffffffffffffffffffffffffffffffffffffff16141580156112b257506112b186868585611642565b5b156113515780736b175474e89094c44da98b954eedeac495271d0f73ffffffffffffffffffffffffffffffffffffffff166370a08231306040518263ffffffff1660e01b8152600401611305919061200e565b602060405180830381865afa158015611320573d5f5f3e3d5ffd5b505050506040513d601f19601f820116820180604052508101906113449190612158565b11156113505750611393565b5b5f73ffffffffffffffffffffffffffffffffffffffff168473ffffffffffffffffffffffffffffffffffffffff1614611391576113908685858561187f565b5b505b5050505050565b5f60028510806113a957505f82145b806113df57505f73ffffffffffffffffffffffffffffffffffffffff168473ffffffffffffffffffffffffffffffffffffffff16145b8061141557505f73ffffffffffffffffffffffffffffffffffffffff168373ffffffffffffffffffffffffffffffffffffffff16145b15611422575f905061163a565b5f600267ffffffffffffffff81111561143e5761143d612183565b5b60405190808252806020026020018201604052801561146c5781602001602082028036833780820191505090505b50905083815f8151811061148357611482612e3d565b5b602002602001019073ffffffffffffffffffffffffffffffffffffffff16908173ffffffffffffffffffffffffffffffffffffffff1681525050736b175474e89094c44da98b954eedeac495271d0f816001815181106114e6576114e5612e3d565b5b602002602001019073ffffffffffffffffffffffffffffffffffffffff16908173ffffffffffffffffffffffffffffffffffffffff16815250505f8390505f5f5f90505b88811015611632575f818a61153f919061253f565b8461154a9190612dc6565b90505f81036115595750611632565b8084611565919061253f565b93508873ffffffffffffffffffffffffffffffffffffffff1663d06ca61f82876040518363ffffffff1660e01b81526004016115a2929190612f21565b5f60405180830381865afa9250505080156115df57506040513d5f823e3d601f19601f820116820180604052508101906115dc9190613062565b60015b6115f0575f9550505050505061163a565b6002815110611623578060018151811061160d5761160c612e3d565b5b60200260200101518461162091906130a9565b93505b5050808060010191505061152a565b508093505050505b949350505050565b5f600285108061165157505f82145b1561165e575f9050611877565b5f600267ffffffffffffffff81111561167a57611679612183565b5b6040519080825280602002602001820160405280156116a85781602001602082028036833780820191505090505b50905083815f815181106116bf576116be612e3d565b5b602002602001019073ffffffffffffffffffffffffffffffffffffffff16908173ffffffffffffffffffffffffffffffffffffffff1681525050736b175474e89094c44da98b954eedeac495271d0f8160018151811061172257611721612e3d565b5b602002602001019073ffffffffffffffffffffffffffffffffffffffff16908173ffffffffffffffffffffffffffffffffffffffff16815250505f8390505f5f90505b87811015611873575f818961177a919061253f565b836117859190612dc6565b90505f81036117945750611873565b80836117a0919061253f565b92508773ffffffffffffffffffffffffffffffffffffffff16637ff36ab5825f8730426040518663ffffffff1660e01b81526004016117e29493929190613115565b5f6040518083038185885af19350505050801561182157506040513d5f823e3d601f19601f8201168201806040525081019061181e9190613062565b60015b61182e5750505050611877565b600281511015801561185a57505f816001815181106118505761184f612e3d565b5b6020026020010151115b1561186457600195505b50508080600101915050611765565b5050505b949350505050565b600284108061188d57505f81145b806118c357505f73ffffffffffffffffffffffffffffffffffffffff168273ffffffffffffffffffffffffffffffffffffffff16145b611aac575f8190505f5f90505b85811015611aa9575f81876118e5919061253f565b836118f09190612dc6565b90505f81036118ff5750611aa9565b808361190b919061253f565b92508473ffffffffffffffffffffffffffffffffffffffff1663d0e30db0826040518263ffffffff1660e01b81526004015f604051808303818588803b158015611953575f5ffd5b505af1158015611965573d5f5f3e3d5ffd5b5050505050611975858783611ab2565b8573ffffffffffffffffffffffffffffffffffffffff166304e45aaf6040518060e001604052808873ffffffffffffffffffffffffffffffffffffffff168152602001736b175474e89094c44da98b954eedeac495271d0f73ffffffffffffffffffffffffffffffffffffffff168152602001610bb862ffffff1681526020013073ffffffffffffffffffffffffffffffffffffffff1681526020018481526020015f81526020015f73ffffffffffffffffffffffffffffffffffffffff168152506040518263ffffffff1660e01b8152600401611a539190613226565b6020604051808303815f875af1925050508015611a8e57506040513d601f19601f82011682018060405250810190611a8b9190612158565b60015b611a9a57505050611aac565b505080806001019150506118d0565b50505b50505050565b5f5f8473ffffffffffffffffffffffffffffffffffffffff1663095ea7b360e01b8585604051602401611ae692919061323f565b604051602081830303815290604052907bffffffffffffffffffffffffffffffffffffffffffffffffffffffff19166020820180517bffffffffffffffffffffffffffffffffffffffffffffffffffffffff8381831617835250505050604051611b5091906132aa565b5f604051808303815f865af19150503d805f8114611b89576040519150601f19603f3d011682016040523d82523d5f602084013e611b8e565b606091505b5091509150818015611bbb57505f81511480611bba575080806020019051810190611bb991906132ea565b5b5b15611bc7575050611df1565b8473ffffffffffffffffffffffffffffffffffffffff1663095ea7b360e01b855f604051602401611bf9929190613351565b604051602081830303815290604052907bffffffffffffffffffffffffffffffffffffffffffffffffffffffff19166020820180517bffffffffffffffffffffffffffffffffffffffffffffffffffffffff8381831617835250505050604051611c6391906132aa565b5f604051808303815f865af19150503d805f8114611c9c576040519150601f19603f3d011682016040523d82523d5f602084013e611ca1565b606091505b5050508473ffffffffffffffffffffffffffffffffffffffff1663095ea7b360e01b8585604051602401611cd692919061323f565b604051602081830303815290604052907bffffffffffffffffffffffffffffffffffffffffffffffffffffffff19166020820180517bffffffffffffffffffffffffffffffffffffffffffffffffffffffff8381831617835250505050604051611d4091906132aa565b5f604051808303815f865af19150503d805f8114611d79576040519150601f19603f3d011682016040523d82523d5f602084013e611d7e565b606091505b508092508193505050818015611daf57505f81511480611dae575080806020019051810190611dad91906132ea565b5b5b611dee576040517f08c379a0000000000000000000000000000000000000000000000000000000008152600401611de5906133c2565b60405180910390fd5b50505b505050565b60405180608001604052805f151581526020015f151581526020015f15158152602001606081525090565b60405180604001604052805f81526020015f81525090565b5f8115159050919050565b611e4d81611e39565b82525050565b5f81519050919050565b5f82825260208201905092915050565b8281835e5f83830152505050565b5f601f19601f8301169050919050565b5f611e9582611e53565b611e9f8185611e5d565b9350611eaf818560208601611e6d565b611eb881611e7b565b840191505092915050565b5f608083015f830151611ed85f860182611e44565b506020830151611eeb6020860182611e44565b506040830151611efe6040860182611e44565b5060608301518482036060860152611f168282611e8b565b9150508091505092915050565b5f6020820190508181035f830152611f3b8184611ec3565b905092915050565b7f4e487b71000000000000000000000000000000000000000000000000000000005f52602160045260245ffd5b60048110611f8157611f80611f43565b5b50565b5f819050611f9182611f70565b919050565b5f611fa082611f84565b9050919050565b611fb081611f96565b82525050565b5f602082019050611fc95f830184611fa7565b92915050565b5f73ffffffffffffffffffffffffffffffffffffffff82169050919050565b5f611ff882611fcf565b9050919050565b61200881611fee565b82525050565b5f6020820190506120215f830184611fff565b92915050565b5f819050919050565b61203981612027565b82525050565b5f6020820190506120525f830184612030565b92915050565b5f82825260208201905092915050565b5f61207282611e53565b61207c8185612058565b935061208c818560208601611e6d565b61209581611e7b565b840191505092915050565b5f6020820190508181035f8301526120b88184612068565b905092915050565b7f4e487b71000000000000000000000000000000000000000000000000000000005f52602260045260245ffd5b5f600282049050600182168061210457607f821691505b602082108103612117576121166120c0565b5b50919050565b5f604051905090565b5f5ffd5b5f5ffd5b61213781612027565b8114612141575f5ffd5b50565b5f815190506121528161212e565b92915050565b5f6020828403121561216d5761216c612126565b5b5f61217a84828501612144565b91505092915050565b7f4e487b71000000000000000000000000000000000000000000000000000000005f52604160045260245ffd5b5f819050815f5260205f209050919050565b5f6020601f8301049050919050565b5f82821b905092915050565b5f6008830261220c7fffffffffffffffffffffffffffffffffffffffffffffffffffffffffffffffff826121d1565b61221686836121d1565b95508019841693508086168417925050509392505050565b5f819050919050565b5f61225161224c61224784612027565b61222e565b612027565b9050919050565b5f819050919050565b61226a83612237565b61227e61227682612258565b8484546121dd565b825550505050565b5f5f905090565b612295612286565b6122a0818484612261565b505050565b5b818110156122c3576122b85f8261228d565b6001810190506122a6565b5050565b601f821115612308576122d9816121b0565b6122e2846121c2565b810160208510156122f1578190505b6123056122fd856121c2565b8301826122a5565b50505b505050565b5f82821c905092915050565b5f6123285f198460080261230d565b1980831691505092915050565b5f6123408383612319565b9150826002028217905092915050565b61235982611e53565b67ffffffffffffffff81111561237257612371612183565b5b61237c82546120ed565b6123878282856122c7565b5f60209050601f8311600181146123b8575f84156123a6578287015190505b6123b08582612335565b865550612417565b601f1984166123c6866121b0565b5f5b828110156123ed578489015182556001820191506020850194506020810190506123c8565b8683101561240a5784890151612406601f891682612319565b8355505b6001600288020188555050505b505050505050565b61242881611e39565b82525050565b5f815461243a816120ed565b6124448186612058565b9450600182165f811461245e5760018114612474576124a6565b60ff1983168652811515602002860193506124a6565b61247d856121b0565b5f5b8381101561249e5781548189015260018201915060208101905061247f565b808801955050505b50505092915050565b5f6060820190506124c25f83018661241f565b6124cf602083018561241f565b81810360408301526124e1818461242e565b9050949350505050565b5f6040820190506124fe5f830185612030565b61250b6020830184612030565b9392505050565b7f4e487b71000000000000000000000000000000000000000000000000000000005f52601160045260245ffd5b5f61254982612027565b915061255483612027565b925082820390508181111561256c5761256b612512565b5b92915050565b5f6080820190506125855f830187611fff565b6125926020830186612030565b61259f6040830185611fa7565b81810360608301526125b1818461242e565b905095945050505050565b6125c581611fee565b81146125cf575f5ffd5b50565b5f815190506125e0816125bc565b92915050565b5f602082840312156125fb576125fa612126565b5b5f612608848285016125d2565b91505092915050565b5f81905092915050565b7f5072696d6172792070617468207072657365727665643a2073656c6c437265645f8201527f69744d61726b6574207769746820637265646974506f736974696f6e4964203d60208201527f3d2052455345525645445f49442072656163686573206372656174654465627460408201527f416e64437265646974506f736974696f6e732000000000000000000000000000606082015250565b5f6126c1607383612611565b91506126cc8261261b565b607382019050919050565b7f6265666f72652076616c69646174655573657249734e6f7442656c6f774f70655f8201527f6e696e674c696d6974426f72726f7743522c20736f206672657368206465627460208201527f2063616e206265206d696e74656420666f72206f6e426568616c664f6620616e60408201527f64206c656e64657220636173682063616e206d6f766520746f2074686520726560608201527f63697069656e742e200000000000000000000000000000000000000000000000608082015250565b5f6127a3608983612611565b91506127ae826126d7565b608982019050919050565b7f54686973207665726966696572206b65657073207468652070726f67726573735f8201527f69766520322d3e332d3e342d3e352d3e36206c6f6f7020736561726368206d6160208201527f6e646174656420666f722072657065617461626c65207068617365732e20496e60408201527f207468652069736f6c6174656420617274696661637420636f6e746578742c2060608201527f636f756e746572706172747920646973636f76657279206973206e6f7420656e60808201527f756d657261626c652066726f6d20636f6e747261637420737461746520616c6f60a08201527f6e652c20736f207265616c697a656420506e4c20697320736574746c6564206960c08201527f6e20444149207573696e67207075626c696320444558206c697175696469747960e08201527f20616c726561647920776972656420696e746f20746865206465706c6f7965646101008201527f2068656c7065722e00000000000000000000000000000000000000000000000061012082015250565b5f61294661012883612611565b9150612951826127b9565b61012882019050919050565b5f612967826126b5565b915061297282612797565b915061297d82612939565b9150819050919050565b7f5365636f6e646172792070617468207072657365727665643a206275794372655f8201527f6469744d61726b6574207769746820637265646974506f736974696f6e49642060208201527f3d3d2052455345525645445f494420616c736f2072656163686573206372656160408201527f746544656274416e64437265646974506f736974696f6e732000000000000000606082015250565b5f612a2d607983612611565b9150612a3882612987565b607982019050919050565b7f776974686f757420656e666f7263696e672063724f70656e696e67206f7220745f8201527f686520626f72726f7765722773207374726963746572206f70656e696e674c6960208201527f6d6974426f72726f7743522e20426f72726f7765722d6f66666572206469736360408201527f6f76657279206c696b6577697365206e656564732065787465726e616c206f7260608201527f646572666c6f77206b6e6f776c65646765207468617420697320756e6176616960808201527f6c61626c6520746f20746869732073656c662d636f6e7461696e65642076657260a08201527f69666965722e000000000000000000000000000000000000000000000000000060c082015250565b5f612b5b60c683612611565b9150612b6682612a43565b60c682019050919050565b5f612b7b82612a21565b9150612b8682612b4f565b9150819050919050565b7f54657274696172792070617468207072657365727665643a206c6971756964615f8201527f7465576974685265706c6163656d656e742063616e207265706179207468652060208201527f6f6c6420626f72726f7765722c207468656e2072656d696e742074686520736160408201527f6d652066757475726556616c7565206f6e746f20706172616d732e626f72726f60608201527f7765722000000000000000000000000000000000000000000000000000000000608082015250565b5f612c5c608483612611565b9150612c6782612b90565b608482019050919050565b7f776974686f75742076616c69646174696e6720746865207265706c6163656d655f8201527f6e74206163636f756e7420616761696e73742063724f70656e696e67206f722060208201527f69747320637573746f6d206f70656e696e67206c696d69742e20446562742d7060408201527f6f736974696f6e20646973636f76657279206973206e6f7420656e756d65726160608201527f626c65206865726520776974686f7574206f66662d636f6e747261637420696e60808201527f646578696e672e0000000000000000000000000000000000000000000000000060a082015250565b5f612d6460a783612611565b9150612d6f82612c72565b60a782019050919050565b5f612d8482612c50565b9150612d8f82612d58565b9150819050919050565b7f4e487b71000000000000000000000000000000000000000000000000000000005f52601260045260245ffd5b5f612dd082612027565b9150612ddb83612027565b925082612deb57612dea612d99565b5b828204905092915050565b5f612e0082612027565b91507fffffffffffffffffffffffffffffffffffffffffffffffffffffffffffffffff8203612e3257612e31612512565b5b600182019050919050565b7f4e487b71000000000000000000000000000000000000000000000000000000005f52603260045260245ffd5b5f81519050919050565b5f82825260208201905092915050565b5f819050602082019050919050565b612e9c81611fee565b82525050565b5f612ead8383612e93565b60208301905092915050565b5f602082019050919050565b5f612ecf82612e6a565b612ed98185612e74565b9350612ee483612e84565b805f5b83811015612f14578151612efb8882612ea2565b9750612f0683612eb9565b925050600181019050612ee7565b5085935050505092915050565b5f604082019050612f345f830185612030565b8181036020830152612f468184612ec5565b90509392505050565b5f5ffd5b612f5c82611e7b565b810181811067ffffffffffffffff82111715612f7b57612f7a612183565b5b80604052505050565b5f612f8d61211d565b9050612f998282612f53565b919050565b5f67ffffffffffffffff821115612fb857612fb7612183565b5b602082029050602081019050919050565b5f5ffd5b5f612fdf612fda84612f9e565b612f84565b9050808382526020820190506020840283018581111561300257613001612fc9565b5b835b8181101561302b57806130178882612144565b845260208401935050602081019050613004565b5050509392505050565b5f82601f83011261304957613048612f4f565b5b8151613059848260208601612fcd565b91505092915050565b5f6020828403121561307757613076612126565b5b5f82015167ffffffffffffffff8111156130945761309361212a565b5b6130a084828501613035565b91505092915050565b5f6130b382612027565b91506130be83612027565b92508282019050808211156130d6576130d5612512565b5b92915050565b5f819050919050565b5f6130ff6130fa6130f5846130dc565b61222e565b612027565b9050919050565b61310f816130e5565b82525050565b5f6080820190506131285f830187613106565b818103602083015261313a8186612ec5565b90506131496040830185611fff565b6131566060830184612030565b95945050505050565b5f62ffffff82169050919050565b6131768161315f565b82525050565b61318581612027565b82525050565b61319481611fcf565b82525050565b60e082015f8201516131ae5f850182612e93565b5060208201516131c16020850182612e93565b5060408201516131d4604085018261316d565b5060608201516131e76060850182612e93565b5060808201516131fa608085018261317c565b5060a082015161320d60a085018261317c565b5060c082015161322060c085018261318b565b50505050565b5f60e0820190506132395f83018461319a565b92915050565b5f6040820190506132525f830185611fff565b61325f6020830184612030565b9392505050565b5f81519050919050565b5f81905092915050565b5f61328482613266565b61328e8185613270565b935061329e818560208601611e6d565b80840191505092915050565b5f6132b5828461327a565b915081905092915050565b6132c981611e39565b81146132d3575f5ffd5b50565b5f815190506132e4816132c0565b92915050565b5f602082840312156132ff576132fe612126565b5b5f61330c848285016132d6565b91505092915050565b5f60ff82169050919050565b5f61333b613336613331846130dc565b61222e565b613315565b9050919050565b61334b81613321565b82525050565b5f6040820190506133645f830185611fff565b6133716020830184613342565b9392505050565b7f617070726f7665206661696c65640000000000000000000000000000000000005f82015250565b5f6133ac600e83612058565b91506133b782613378565b602082019050919050565b5f6020820190508181035f8301526133d9816133a0565b905091905056fe7461726765742068656c70657220697320756e617661696c61626c65206f6e2074686520666f726ba2646970667358221220835ae54491843bea59ab50683b3ec88ba6736121dab005e5ec4b9a0b871345c264736f6c634300081e0033","linkReferences":{}},"methodIdentifiers":{"buyCreditReservedIdPath()":"1b94a1ce","executeOnOpportunity()":"3c2448ed","exploitPathUsed()":"d78c4281","liquidateWithReplacementPath()":"32b91014","profitAmount()":"5ff972cc","profitToken()":"49343624","sellCreditReservedIdPath()":"7d4c12f2","validationState()":"1e59680b"},"id":0}