{"abi":[{"type":"constructor","inputs":[],"stateMutability":"nonpayable"},{"type":"fallback","stateMutability":"payable"},{"type":"receive","stateMutability":"payable"},{"type":"function","name":"callback","inputs":[{"name":"data","type":"bytes","internalType":"bytes"}],"outputs":[],"stateMutability":"nonpayable"},{"type":"function","name":"executeOnOpportunity","inputs":[],"outputs":[],"stateMutability":"nonpayable"}],"bytecode":{"object":"0x60808060405234601557611fef908161001a8239f35b5f80fdfe6080806040526004361015610011575b005b5f3560e01c9081633c2448ed146101c7575063e98a56541461002f57005b3461016e57602036600319011261016e5760043567ffffffffffffffff811161016e573660238201121561016e57806004013567ffffffffffffffff811161016e573691016024011161016e575f516020611f9a5f395f51905f5233036101955760018060a01b035f54166001545f516020611f9a5f395f51905f523b1561016e576040519163528a9b3560e11b8352600483015260248201525f81604481835f516020611f9a5f395f51905f525af1801561017a57610185575b506040516370a0823160e01b81523060048201526020816024815f516020611f9a5f395f51905f525afa90811561017a575f91610144575b506003548082111561013c5761013791610ec0565b600255005b50505f600255005b90506020813d602011610172575b8161015f60209383610dd1565b8101031261016e57515f610122565b5f80fd5b3d9150610152565b6040513d5f823e3d90fd5b5f61018f91610dd1565b5f6100ea565b60405162461bcd60e51b815260206004820152600a60248201526909edcd8f240d2dcc8caf60b31b6044820152606490fd5b3461016e575f36600319011261016e57632acada4d60e01b81525f816004815f516020611f9a5f395f51905f525afa90811561017a575f91610cc8575b5080518015610c97575f5b818110610b825750604051634b6f164960e01b8152906020826004815f516020611f9a5f395f51905f525afa91821561017a575f92610b4e575b5060405163313ce56760e01b81526020816004815f516020611f3a5f395f51905f525afa801561017a575f90610b11575b60ff915016604d811161091c57600a0a9182810292818404149015171561091c575f80604051602081019063095ea7b360e01b82525f516020611f9a5f395f51905f526024820152826044820152604481526102d7606482610dd1565b5190825f516020611f3a5f395f51905f525af1506102f3610ecd565b505f80604051602081019063095ea7b360e01b82525f516020611f9a5f395f51905f5260248201528219604482015260448152610331606482610dd1565b5190825f516020611f3a5f395f51905f525af161034c610ecd565b81610ad9575b5015610a6b575f80604051602081019063095ea7b360e01b8252737a250d5630b4cf539739df2c5dacb4c659f2488d60248201528260448201526044815261039b606482610dd1565b5190825f516020611f3a5f395f51905f525af1506103b7610ecd565b505f80604051602081019063095ea7b360e01b8252737a250d5630b4cf539739df2c5dacb4c659f2488d602482015282196044820152604481526103fc606482610dd1565b5190825f516020611f3a5f395f51905f525af1610417610ecd565b81610aa1575b5015610a6b57602460206001600160a01b0361043886610e1f565b515116806bffffffffffffffffffffffff60a01b5f5416175f55604051928380926370a0823160e01b82525f516020611f9a5f395f51905f5260048301525afa90811561017a575f91610a39575b508060015515610a0a57607882028281046078148315171561091c5768056bc75e2d63100000810180911161091c576104be90611071565b5f5b6078811061072b575b506040516370a0823160e01b81523060048201529091506020816024815f516020611f9a5f395f51905f525afa90811561017a575f916106f9575b508061061f575b505f5b8181106105f95761051d611255565b610525611399565b61052d6114dd565b610535611621565b6040516370a0823160e01b81523060048201526020816024815f516020611f1a5f395f51905f525afa90811561017a575f916105c7575b508061057457005b5f516020611f1a5f395f51905f523b1561016e5760405190632e1a7d4d60e01b825260048201525f81602481835f516020611f1a5f395f51905f525af1801561017a576105bd57005b5f61000f91610dd1565b90506020813d6020116105f1575b816105e260209383610dd1565b8101031261016e57518161056c565b3d91506105d5565b6001906106196001600160a01b036106118387610e70565b515116611765565b0161050e565b604051602061062e8183610dd1565b5f82525f368137604051916106438284610dd1565b5f83525f3681375f516020611f9a5f395f51905f523b1561016e57929061068960405194859363774e3ced60e11b85526004850152606060248501526064840190610e84565b8281036003190160448401528351808252908201938201915f5b8281106106df5750505050805f920381835f516020611f9a5f395f51905f525af1801561017a571561050b575f6106d991610dd1565b8261050b565b835160ff16865294810194869450928101926001016106a3565b90506020813d602011610723575b8161071460209383610dd1565b8101031261016e575183610504565b3d9150610707565b6040516370a0823160e01b81523060048201526020816024815f516020611f3a5f395f51905f525afa801561017a5784915f916109d6575b50106108a1576040516370a0823160e01b81523060048201526020816024815f516020611f9a5f395f51905f525afa90811561017a575f916109a5575b506003555f60025560018060a01b035f5416600154602091604051916107c68484610dd1565b5f83525f516020611f9a5f395f51905f523b1561016e5760a45f9285604051958694859363bdbc91ab60e01b855230600486015260248501526044840152608060648401528051918291826084860152018484015e8181018301859052601f01601f19168101030181835f516020611f9a5f395f51905f525af1801561017a57610995575b506002541561098f576040516318160ddd60e01b81529080826004815f516020611f9a5f395f51905f525afa91821561017a575f92610960575b50811591821592836108a6575b5050506108a1576001016104c0565b6104c9565b6040516370a0823160e01b8152306004820152929350909183816024815f516020611f9a5f395f51905f525afa93841561017a575f94610930575b505060648302928084046064149015171561091c5761090857606391041015858080610892565b634e487b7160e01b5f52601260045260245ffd5b634e487b7160e01b5f52601160045260245ffd5b9080929450813d8311610959575b6109488183610dd1565b8101031261016e57519187806108e1565b503d61093e565b9080925081813d8311610988575b6109788183610dd1565b8101031261016e57519086610885565b503d61096e565b506104c9565b5f61099f91610dd1565b8561084b565b90506020813d82116109ce575b816109bf60209383610dd1565b8101031261016e5751856107a0565b3d91506109b2565b9150506020813d8211610a02575b816109f160209383610dd1565b8101031261016e5783905186610763565b3d91506109e4565b60405162461bcd60e51b81526020600482015260076024820152664e6f206261736560c81b6044820152606490fd5b90506020813d602011610a63575b81610a5460209383610dd1565b8101031261016e575184610486565b3d9150610a47565b60405162461bcd60e51b815260206004820152600e60248201526d105c1c1c9bdd994819985a5b195960921b6044820152606490fd5b8051801592508215610ab6575b50508461041d565b819250906020918101031261016e5760200151801515810361016e578480610aae565b8051801592508215610aee575b505084610352565b819250906020918101031261016e5760200151801515810361016e578480610ae6565b506020813d602011610b46575b81610b2b60209383610dd1565b8101031261016e575160ff8116810361016e5760ff9061027a565b3d9150610b1e565b9091506020813d602011610b7a575b81610b6a60209383610dd1565b8101031261016e57519083610249565b3d9150610b5d565b5f806001600160a01b03610b968487610e70565b5151168180604051602081019063095ea7b360e01b82525f516020611f9a5f395f51905f52602482015282604482015260448152610bd5606482610dd1565b519082855af150610be4610ecd565b5060405182602082019163095ea7b360e01b83525f516020611f9a5f395f51905f5260248201528119604482015260448152610c21606482610dd1565b51925af1610c2d610ecd565b81610c5f575b5015610a6b57600190610c596001600160a01b03610c518387610e70565b515116610f0c565b0161020f565b8051801592508215610c74575b505084610c33565b819250906020918101031261016e5760200151801515810361016e578480610c6c565b60405162461bcd60e51b81526020600482015260096024820152684e6f2061737365747360b81b6044820152606490fd5b90503d805f833e610cd98183610dd1565b81019060208183031261016e5780519067ffffffffffffffff821161016e570181601f8201121561016e57805190610d1082610df3565b92610d1e6040519485610dd1565b828452602060a081860194028301019181831161016e57602001925b828410610d4b575050505081610204565b60a08483031261016e576040519060a082019082821067ffffffffffffffff831117610dbd5760a092602092604052610d8387610e0b565b8152828701518382015260408701516040820152610da360608801610e0b565b606082015260808701516080820152815201930192610d3a565b634e487b7160e01b5f52604160045260245ffd5b90601f8019910116810190811067ffffffffffffffff821117610dbd57604052565b67ffffffffffffffff8111610dbd5760051b60200190565b51906001600160a01b038216820361016e57565b805115610e2c5760200190565b634e487b7160e01b5f52603260045260245ffd5b805160011015610e2c5760400190565b805160021015610e2c5760600190565b805160031015610e2c5760800190565b8051821015610e2c5760209160051b010190565b90602080835192838152019201905f5b818110610ea15750505090565b82516001600160a01b0316845260209384019390920191600101610e94565b9190820391821161091c57565b3d15610f07573d9067ffffffffffffffff8211610dbd5760405191610efc601f8201601f191660200184610dd1565b82523d5f602084013e565b606090565b5f80918180604051602081019063095ea7b360e01b8252737a250d5630b4cf539739df2c5dacb4c659f2488d602482015282604482015260448152610f52606482610dd1565b519082855af150610f61610ecd565b5060405182602082019163095ea7b360e01b8352737a250d5630b4cf539739df2c5dacb4c659f2488d60248201528119604482015260448152610fa5606482610dd1565b51925af1610fb1610ecd565b81610fbf575b5015610a6b57565b8051801592508215610fd4575b50505f610fb7565b819250906020918101031261016e5760200151801515810361016e575f80610fcc565b60208183031261016e5780519067ffffffffffffffff821161016e57019080601f8301121561016e57815161102b81610df3565b926110396040519485610dd1565b81845260208085019260051b82010192831161016e57602001905b8282106110615750505090565b8151815260209182019101611054565b6040516370a0823160e01b81523060048201526020816024815f516020611f3a5f395f51905f525afa90811561017a575f91611223575b508181101561121f576110ba91610ec0565b604051906110c9606083610dd1565b6002825260403660208401375f516020611f1a5f395f51905f526110ec83610e1f565b525f516020611f3a5f395f51905f5261110483610e40565b526040516307c0329d60e21b8152816004820152604060248201525f818061112f6044820187610e84565b0381737a250d5630b4cf539739df2c5dacb4c659f2488d5afa801561017a5761115f915f91611205575b50610e1f565b516103f28102908082046103f2149015171561091c576103e89004916001830180931161091c576111b5925f9260405180958194829363fb3bdb4160e01b84526004840152608060248401526084830190610e84565b3060448301524260648301520391737a250d5630b4cf539739df2c5dacb4c659f2488d5af1801561017a576111e75750565b611202903d805f833e6111fa8183610dd1565b810190610ff7565b50565b61121991503d805f833e6111fa8183610dd1565b5f611159565b5050565b90506020813d60201161124d575b8161123e60209383610dd1565b8101031261016e57515f6110a8565b3d9150611231565b6040516370a0823160e01b81523060048201526020816024815f516020611f9a5f395f51905f525afa90811561017a575f91611367575b508015611202576112aa815f516020611f9a5f395f51905f5261185e565b611202576112c5815f516020611f9a5f395f51905f526118e5565b611202576112e0815f516020611f9a5f395f51905f526119a9565b611202576112fb815f516020611f9a5f395f51905f52611a55565b61120257611316815f516020611f9a5f395f51905f52611b01565b61120257611331815f516020611f9a5f395f51905f52611bbb565b6112025761134c815f516020611f9a5f395f51905f52611caf565b61120257611202905f516020611f9a5f395f51905f52611d73565b90506020813d602011611391575b8161138260209383610dd1565b8101031261016e57515f61128c565b3d9150611375565b6040516370a0823160e01b81523060048201526020816024815f516020611f3a5f395f51905f525afa90811561017a575f916114ab575b508015611202576113ee815f516020611f3a5f395f51905f5261185e565b61120257611409815f516020611f3a5f395f51905f526118e5565b61120257611424815f516020611f3a5f395f51905f526119a9565b6112025761143f815f516020611f3a5f395f51905f52611a55565b6112025761145a815f516020611f3a5f395f51905f52611b01565b61120257611475815f516020611f3a5f395f51905f52611bbb565b61120257611490815f516020611f3a5f395f51905f52611caf565b61120257611202905f516020611f3a5f395f51905f52611d73565b90506020813d6020116114d5575b816114c660209383610dd1565b8101031261016e57515f6113d0565b3d91506114b9565b6040516370a0823160e01b81523060048201526020816024815f516020611f5a5f395f51905f525afa90811561017a575f916115ef575b50801561120257611532815f516020611f5a5f395f51905f5261185e565b6112025761154d815f516020611f5a5f395f51905f526118e5565b61120257611568815f516020611f5a5f395f51905f526119a9565b61120257611583815f516020611f5a5f395f51905f52611a55565b6112025761159e815f516020611f5a5f395f51905f52611b01565b611202576115b9815f516020611f5a5f395f51905f52611bbb565b611202576115d4815f516020611f5a5f395f51905f52611caf565b61120257611202905f516020611f5a5f395f51905f52611d73565b90506020813d602011611619575b8161160a60209383610dd1565b8101031261016e57515f611514565b3d91506115fd565b6040516370a0823160e01b81523060048201526020816024815f516020611f7a5f395f51905f525afa90811561017a575f91611733575b50801561120257611676815f516020611f7a5f395f51905f5261185e565b61120257611691815f516020611f7a5f395f51905f526118e5565b611202576116ac815f516020611f7a5f395f51905f526119a9565b611202576116c7815f516020611f7a5f395f51905f52611a55565b611202576116e2815f516020611f7a5f395f51905f52611b01565b611202576116fd815f516020611f7a5f395f51905f52611bbb565b61120257611718815f516020611f7a5f395f51905f52611caf565b61120257611202905f516020611f7a5f395f51905f52611d73565b90506020813d60201161175d575b8161174e60209383610dd1565b8101031261016e57515f611658565b3d9150611741565b6001600160a01b038116801561121f576040516370a0823160e01b815230600482015290602082602481845afa91821561017a575f9261182a575b508115611825575f516020611f1a5f395f51905f521461121f576117c4818361185e565b61121f576117d281836118e5565b61121f576117e081836119a9565b61121f576117ee8183611a55565b61121f576117fc8183611b01565b61121f5761180a8183611bbb565b61121f576118188183611caf565b61121f5761120291611d73565b505050565b9091506020813d602011611856575b8161184660209383610dd1565b8101031261016e5751905f6117a0565b3d9150611839565b90801580156118c6575b6118c0576040516118bd9261187e606083610dd1565b60028252604036602084013761189382610e1f565b6001600160a01b0390911690525f516020611f1a5f395f51905f526118b782610e40565b52611e5d565b90565b50505f90565b506001600160a01b0382165f516020611f1a5f395f51905f5214611868565b908015801561198a575b8015611983575b8015611964575b6118c0576040516118bd92611913608083610dd1565b60038252606036602084013761192882610e1f565b6001600160a01b0390911690525f516020611f3a5f395f51905f5261194c82610e40565b525f516020611f1a5f395f51905f526118b782610e50565b506001600160a01b0382165f516020611f1a5f395f51905f52146118fd565b505f6118f6565b506001600160a01b0382165f516020611f3a5f395f51905f52146118ef565b9080158015611a36575b8015611a2f575b8015611a10575b6118c0576040516118bd926119d7608083610dd1565b6003825260603660208401376119ec82610e1f565b6001600160a01b0390911690525f516020611f5a5f395f51905f5261194c82610e40565b506001600160a01b0382165f516020611f1a5f395f51905f52146119c1565b505f6119ba565b506001600160a01b0382165f516020611f5a5f395f51905f52146119b3565b9080158015611ae2575b8015611adb575b8015611abc575b6118c0576040516118bd92611a83608083610dd1565b600382526060366020840137611a9882610e1f565b6001600160a01b0390911690525f516020611f7a5f395f51905f5261194c82610e40565b506001600160a01b0382165f516020611f1a5f395f51905f5214611a6d565b505f611a66565b506001600160a01b0382165f516020611f7a5f395f51905f5214611a5f565b9080158015611b95575b8015611b8e575b8015611b6f575b6118c0576040516118bd92611b2f608083610dd1565b600382526060366020840137611b4482610e1f565b6001600160a01b039091169052732260fac5e5542a773aa44fbcfedf7c193bc2c59961194c82610e40565b506001600160a01b0382165f516020611f1a5f395f51905f5214611b19565b505f611b12565b506001600160a01b038216732260fac5e5542a773aa44fbcfedf7c193bc2c59914611b0b565b9080158015611c90575b8015611c71575b8015611c52575b6118c0576040516118bd92611be960a083610dd1565b600482526080366020840137611bfe82610e1f565b6001600160a01b0390911690525f516020611f5a5f395f51905f52611c2282610e40565b525f516020611f3a5f395f51905f52611c3a82610e50565b525f516020611f1a5f395f51905f526118b782610e60565b506001600160a01b0382165f516020611f1a5f395f51905f5214611bd3565b506001600160a01b0382165f516020611f3a5f395f51905f5214611bcc565b506001600160a01b0382165f516020611f5a5f395f51905f5214611bc5565b9080158015611d54575b8015611d35575b8015611d16575b6118c0576040516118bd92611cdd60a083610dd1565b600482526080366020840137611cf282610e1f565b6001600160a01b0390911690525f516020611f7a5f395f51905f52611c2282610e40565b506001600160a01b0382165f516020611f1a5f395f51905f5214611cc7565b506001600160a01b0382165f516020611f3a5f395f51905f5214611cc0565b506001600160a01b0382165f516020611f7a5f395f51905f5214611cb9565b9080158015611e37575b8015611e18575b8015611df9575b6118c0576040516118bd92611da160a083610dd1565b600482526080366020840137611db682610e1f565b6001600160a01b039091169052732260fac5e5542a773aa44fbcfedf7c193bc2c599611de182610e40565b525f516020611f5a5f395f51905f52611c3a82610e50565b506001600160a01b0382165f516020611f1a5f395f51905f5214611d8b565b506001600160a01b0382165f516020611f5a5f395f51905f5214611d84565b506001600160a01b038216732260fac5e5542a773aa44fbcfedf7c193bc2c59914611d7d565b5f91611e7a6001600160a01b03611e7384610e1f565b5116610f0c565b737a250d5630b4cf539739df2c5dacb4c659f2488d3b1561016e57611ec9915f916040519384928392635c11d79560e01b8452600484015284602484015260a0604484015260a4830190610e84565b306064830152426084830152038183737a250d5630b4cf539739df2c5dacb4c659f2488d5af19081611f04575b50611efe5790565b50600190565b611f119192505f90610dd1565b5f905f611ef656fe000000000000000000000000c02aaa39b223fe8d0a0e5c4f27ead9083c756cc20000000000000000000000006b175474e89094c44da98b954eedeac495271d0f000000000000000000000000a0b86991c6218b36c1d19d4a2e9eb0ce3606eb48000000000000000000000000dac17f958d2ee523a2206206994597c13d831ec7000000000000000000000000dbb20a979a92cccce15229e41c9b082d5b5d7e31a26469706673582212205f898ad3823345f51d062afbeda5b48d2f0058c5c94f75b72b9dfe5553ba2c0364736f6c634300081e0033","linkReferences":{}},"methodIdentifiers":{"callback(bytes)":"e98a5654","executeOnOpportunity()":"3c2448ed"},"id":0}