{"abi":[{"type":"constructor","inputs":[],"stateMutability":"nonpayable"},{"type":"receive","stateMutability":"payable"},{"type":"function","name":"executeOnOpportunity","inputs":[],"outputs":[],"stateMutability":"nonpayable"},{"type":"function","name":"failureReason","inputs":[],"outputs":[{"name":"","type":"string","internalType":"string"}],"stateMutability":"view"},{"type":"function","name":"hypothesisValidated","inputs":[],"outputs":[{"name":"","type":"bool","internalType":"bool"}],"stateMutability":"view"},{"type":"function","name":"isValidSignature","inputs":[{"name":"","type":"bytes32","internalType":"bytes32"},{"name":"","type":"bytes","internalType":"bytes"}],"outputs":[{"name":"","type":"bytes4","internalType":"bytes4"}],"stateMutability":"pure"},{"type":"function","name":"lastForgedPayload","inputs":[],"outputs":[{"name":"","type":"bytes","internalType":"bytes"}],"stateMutability":"view"},{"type":"function","name":"lastRevertSelector","inputs":[],"outputs":[{"name":"","type":"bytes4","internalType":"bytes4"}],"stateMutability":"view"},{"type":"function","name":"profitAmount","inputs":[],"outputs":[{"name":"","type":"uint256","internalType":"uint256"}],"stateMutability":"view"},{"type":"function","name":"profitToken","inputs":[],"outputs":[{"name":"","type":"address","internalType":"address"}],"stateMutability":"view"},{"type":"function","name":"resolveOrders","inputs":[{"name":"","type":"address","internalType":"address"},{"name":"","type":"bytes","internalType":"bytes"},{"name":"","type":"bytes","internalType":"bytes"}],"outputs":[],"stateMutability":"view"},{"type":"function","name":"uniswapV2Call","inputs":[{"name":"sender","type":"address","internalType":"address"},{"name":"amount0","type":"uint256","internalType":"uint256"},{"name":"amount1","type":"uint256","internalType":"uint256"},{"name":"","type":"bytes","internalType":"bytes"}],"outputs":[],"stateMutability":"nonpayable"}],"bytecode":{"object":"0x60808060405234603a575f80546001600160a01b03191673c02aaa39b223fe8d0a0e5c4f27ead9083c756cc21790556121a7908161003f8239f35b5f80fdfe6080604052600436101561001a575b3615610018575f80fd5b005b5f3560e01c806310d1e85c146100b95780631626ba7e146100b45780631944799f146100af5780633c2448ed146100aa578063463defd1146100a557806349343624146100a05780634f9522a41461009b5780635ff972cc146100965780636d093fe9146100915763765141530361000e576105cf565b61052a565b61050d565b610446565b6103e7565b6103c2565b6103aa565b6102ec565b6102a7565b610101565b6001600160a01b038116036100cf57565b5f80fd5b9181601f840112156100cf5782359167ffffffffffffffff83116100cf57602083818601950101116100cf57565b346100cf5760803660031901126100cf5760043561011e816100be565b602435604435916064359067ffffffffffffffff82116100cf5761014961015b9236906004016100d3565b50506001600160a01b031630146105f8565b60405163e6a4390560e01b81525f5160206121325f395f51905f52600482015273c02aaa39b223fe8d0a0e5c4f27ead9083c756cc2602482015291602083604481735c69bee701ef814a2b6a3edd4b1652cb9cc5aa6f5afa9283156102a2576102116102419361021e936101e861001897610219955f91610273575b506001600160a01b031633146106a9565b811561026c57505b6101fb8115156106e0565b610203610c72565b5061020c61104c565b61072a565b6103e5900490565b61075d565b61022730611142565b81808210610246575b61023b911015610778565b336114ba565b6107d0565b610258916102539161076b565b6113b1565b61023b8161026530611142565b9150610230565b90506101f0565b610295915060203d60201161029b575b61028d8183610667565b810190610689565b5f6101d7565b503d610283565b61069e565b346100cf5760403660031901126100cf5760243567ffffffffffffffff81116100cf576102d89036906004016100d3565b5050604051630b135d3f60e11b8152602090f35b346100cf5760603660031901126100cf576103086004356100be565b60243567ffffffffffffffff81116100cf576103289036906004016100d3565b505060443567ffffffffffffffff81116100cf5761034a9036906004016100d3565b505073a88800cd213da5ae406ce248380802bd53b47647330361036957005b60405162461bcd60e51b815260206004820152600f60248201526e1bdb9b1e481cd95d1d1b195b595b9d608a1b6044820152606490fd5b5f9103126100cf57565b346100cf575f3660031901126100cf57610018610b2b565b346100cf575f3660031901126100cf57602060ff60045460081c166040519015158152f35b346100cf575f3660031901126100cf575f546040516001600160a01b039091168152602090f35b805180835260209291819084018484015e5f828201840152601f01601f1916010190565b90602061044392818152019061040e565b90565b346100cf575f3660031901126100cf576040515f6005546104668161080b565b80845290600181169081156104e9575060011461049e575b61049a8361048e81850382610667565b60405191829182610432565b0390f35b91905060055f525f5160206120f25f395f51905f52915f905b8082106104cf5750909150810160200161048e61047e565b9192600181602092548385880101520191019092916104b7565b60ff191660208086019190915291151560051b8401909101915061048e905061047e565b346100cf575f3660031901126100cf576020600154604051908152f35b346100cf575f3660031901126100cf576040515f60075461054a8161080b565b80845290600181169081156104e957506001146105715761049a8361048e81850382610667565b91905060075f527fa66cc928b5edb82af9bd49922954155ab7b0942694bea4ce44661d9a8736c688915f905b8082106105b55750909150810160200161048e61047e565b91926001816020925483858801015201910190929161059d565b346100cf575f3660031901126100cf57602060065460e01b6040519063ffffffff60e01b168152f35b156105ff57565b60405162461bcd60e51b815260206004820152600a6024820152693130b21039b2b73232b960b11b6044820152606490fd5b634e487b7160e01b5f52604160045260245ffd5b610140810190811067ffffffffffffffff82111761066257604052565b610631565b90601f8019910116810190811067ffffffffffffffff82111761066257604052565b908160209103126100cf5751610443816100be565b6040513d5f823e3d90fd5b156106b057565b60405162461bcd60e51b81526020600482015260086024820152673130b2103830b4b960c11b6044820152606490fd5b156106e757565b60405162461bcd60e51b81526020600482015260076024820152661b9bc81cd9595960ca1b6044820152606490fd5b634e487b7160e01b5f52601160045260245ffd5b906103e88202918083046103e8149015171561074257565b610716565b908160021b918083046004149015171561074257565b906001820180921161074257565b9190820391821161074257565b1561077f57565b60405162461bcd60e51b8152602060048201526024808201527f666c61736820726570617920696e6665617369626c6520617420666f726b20736044820152637461746560e01b6064820152608490fd5b156107d757565b60405162461bcd60e51b815260206004820152600c60248201526b1c995c185e4819985a5b195960a21b6044820152606490fd5b90600182811c92168015610839575b602083101461082557565b634e487b7160e01b5f52602260045260245ffd5b91607f169161081a565b81811061084e575050565b5f8155600101610843565b9190601f811161086857505050565b610892925f5260205f20906020601f840160051c83019310610894575b601f0160051c0190610843565b565b9091508190610885565b6108a960055461080b565b601f811161091e575b50607760059081555f527f6e6f20706f736974697665206e65742070726f666974207265616c697a6564205f5160206120f25f395f51905f52557f6f6e2d636861696e206174207468697320666f726b20737461746500000000005f5160206120d25f395f51905f5255565b60055f81905261094f91601f01901c5f5160206120f25f395f51905f52015f5160206121525f395f51905f52610843565b5f6108b2565b61096060055461080b565b601f81116109cd575b50606b60059081555f527f736574746c656d656e742070617468207265766572746564206265666f7265205f5160206120f25f395f51905f525574185b9e481c99585b1a5e98589b19481c1c9bd99a5d605a1b5f5160206120d25f395f51905f5255565b60055f8190526109fe91601f01901c5f5160206120f25f395f51905f52015f5160206121525f395f51905f52610843565b5f610969565b610a0f60055461080b565b601f8111610aa5575b50609d60059081555f527f696e73756666696369656e74206d616b657220555344543a20666c61736820735f5160206120f25f395f51905f52557f65656420756e617661696c61626c65206f72206e6f7420726570617961626c655f5160206120d25f395f51905f52556d20617420666f726b20737461746560901b5f5160206121525f395f51905f5255565b60055f819052610ae991601f01901c5f5160206120f25f395f51905f52017f036b6384b5eca791c62761152d0c79bb0604c104a5fb6f4eb0703f3154bb3db3610843565b5f610a18565b610afa60055461080b565b601f8111610b0a575b505f600555565b610b259060055f52601f60205f20910160051c810190610843565b5f610b03565b60045460ff16610bf357610b47600160ff196004541617600455565b610b58610b53306111b9565b600255565b610b69610b6430611204565b600355565b610b71611676565b610b79611855565b610b8161104c565b610b8961194a565b610b916114f6565b60015415610bb557610bad61010061ff00196004541617600455565b610892610aef565b6006610bc030611142565b1015610bce57610892610a04565b60065460e01b6001600160e01b03191615610beb57610892610955565b61089261089e565b6108926114f6565b67ffffffffffffffff811161066257601f01601f191660200190565b60405190610c26602083610667565b5f8252565b3d15610c55573d90610c3c82610bfb565b91610c4a6040519384610667565b82523d5f602084013e565b606090565b908160209103126100cf575180151581036100cf5790565b60405163095ea7b360e01b60208201908152731111111254eeb25477b68fb85ed929f73a96058260248301525f6044830181905291829190610cc181606481015b03601f198101835282610667565b5190825f5160206121325f395f51905f525af1610cdc610c2b565b9015908115610d7c575b50610d785760405163095ea7b360e01b60208201908152731111111254eeb25477b68fb85ed929f73a96058260248301525f1960448301525f91829190610d308160648101610cb3565b5190825f5160206121325f395f51905f525af1610d4b610c2b565b81610d54575090565b8051801592508215610d6557505090565b6104439250602080918301019101610c5a565b5f90565b8051801515925082610d91575b50505f610ce6565b610dac925090602080610da8938301019101610c5a565b1590565b5f80610d89565b60405163095ea7b360e01b60208201908152737a250d5630b4cf539739df2c5dacb4c659f2488d60248301525f6044830181905291829190610df88160648101610cb3565b5190825f5160206121125f395f51905f525af1610e13610c2b565b9015908115610e87575b50610e825760405163095ea7b360e01b60208201908152737a250d5630b4cf539739df2c5dacb4c659f2488d602483015260448201929092525f918291610e678160648101610cb3565b5190825f5160206121125f395f51905f525af1610d4b610c2b565b505f90565b8051801515925082610e9c575b50505f610e1d565b610eb3925090602080610da8938301019101610c5a565b5f80610e94565b90815167ffffffffffffffff811161066257610ee281610edb60075461080b565b6007610859565b602092601f8211600114610f2257610f12929382915f92610f17575b50508160011b915f199060031b1c19161790565b600755565b015190505f80610efe565b60075f52601f198216937fa66cc928b5edb82af9bd49922954155ab7b0942694bea4ce44661d9a8736c688915f5b868110610f865750836001959610610f6e575b505050811b01600755565b01515f1960f88460031b161c191690555f8080610f63565b91926020600181928685015181550194019201610f50565b610fa960055461080b565b601f8111611015575b50606960059081555f527f626f74682064697265637420736574746c656d656e7420616e6420686973746f5f5160206120f25f395f51905f5255731c9a58d85b081c995b185e481c995d995c9d195960621b5f5160206120d25f395f51905f5255565b60055f81905261104691601f01901c5f5160206120f25f395f51905f52015f5160206121525f395f51905f52610843565b5f610fb2565b600661105730611142565b1061089257611064611b1c565b61106d81610eba565b5f806040516020810190630965d04b60e01b825261109281610cb38760248301610432565b51908273a88800cd213da5ae406ce248380802bd53b476475af16110b4610c2b565b90156110be575050565b5f916110e06110cd8493611bad565b60e01c63ffffffff196006541617600655565b60405161110281610cb3602082019463d0322fbf60e01b865260248301610432565b51908273019bfc71d43c3492926d4a9a6c781f36706970c95af1611124610c2b565b901561112e575b50565b6110cd61113a91611bad565b610892610f9e565b5f809160405160208101916370a0823160e01b835260018060a01b0316602482015260248152611173604482610667565b51905f5160206121325f395f51905f525afa61118d610c2b565b901580156111ae575b610e82576020818051810103126100cf576020015190565b506020815110611196565b5f809160405160208101916370a0823160e01b835260018060a01b03166024820152602481526111ea604482610667565b51905f5160206121125f395f51905f525afa61118d610c2b565b5f809160405160208101916370a0823160e01b835260018060a01b0316602482015260248152611235604482610667565b519073c02aaa39b223fe8d0a0e5c4f27ead9083c756cc25afa61118d610c2b565b67ffffffffffffffff81116106625760051b60200190565b6040516060919061127f8382610667565b6002815291601f1901366020840137565b80511561129d5760200190565b634e487b7160e01b5f52603260045260245ffd5b80516001101561129d5760400190565b6020818303126100cf5780519067ffffffffffffffff82116100cf57019080601f830112156100cf5781516112f581611256565b926113036040519485610667565b81845260208085019260051b8201019283116100cf57602001905b82821061132b5750505090565b815181526020918201910161131e565b90602080835192838152019201905f5b8181106113585750505090565b82516001600160a01b031684526020938401939092019160010161134b565b9060809261139d919695949683526001602084015260a0604084015260a083019061133b565b6001600160a01b0390951660608201520152565b6113ba306111b9565b9081156114b6576113ca90610747565b90620f424082106114ab575b8082116114a3575b5080158015611491575b61112b575f611455916113f961126e565b9061141861140683611290565b5f5160206121125f395f51905f529052565b611436611424836112b1565b5f5160206121325f395f51905f529052565b6040516338ed173960e01b815293849283924291309160048601611377565b038183737a250d5630b4cf539739df2c5dacb4c659f2488d5af16114765750565b61112b903d805f833e6114898183610667565b8101906112c1565b5061149e610da882610db3565b6113e8565b90505f6113de565b620f424091506113d6565b5050565b60405163a9059cbb60e01b602082019081526001600160a01b03909216602482015260448101929092525f91829190610d308160648101610cb3565b6114ff306111b9565b61150830611204565b6003548082111561159657810390811161074257905b6002548082111561158d57810390811161074257905b8015611569575f80546001600160a01b03191673c02aaa39b223fe8d0a0e5c4f27ead9083c756cc21790556108929150600155565b505f80546001600160a01b0319165f5160206121125f395f51905f52179055600155565b50505f90611534565b50505f9061151e565b909260809261044395948352602083015260018060a01b03166040820152816060820152019061040e565b6115d560055461080b565b601f811161163f575b50606560059081555f527f666c61736820736565642070617468207265766572746564206265666f7265205f5160206120f25f395f51905f52557118d85b1b189858dac818dbdb5c1b195d195960721b5f5160206120d25f395f51905f5255565b60055f81905261167091601f01901c5f5160206120f25f395f51905f52015f5160206121525f395f51905f52610843565b5f6115de565b600661168130611142565b10156108925760405163e6a4390560e01b81525f5160206121325f395f51905f52600482015273c02aaa39b223fe8d0a0e5c4f27ead9083c756cc26024820152602081604481735c69bee701ef814a2b6a3edd4b1652cb9cc5aa6f5afa9081156102a2575f91611803575b506001600160a01b0381169081156114b657602060049260405193848092630dfe168160e01b82525afa9081156102a2575f5160206121325f395f51905f525f9392849384916117e4575b506001600160a01b0316148281146117dd57620f4240905b83146117d2578280915b6117a960405191611786836117786020820190620f4240602083019252565b03601f198101855284610667565b610cb3604051938492602084019763022c0d9f60e01b895230916024860161159f565b51925af16117b5610c2b565b90156117be5750565b6110cd6117ca91611bad565b6108926115ca565b82620f424091611759565b829061174f565b6117fd915060203d60201161029b5761028d8183610667565b5f611737565b61181c915060203d60201161029b5761028d8183610667565b5f6116ec565b611841606092959493956001835260806020840152608083019061133b565b6001600160a01b0390951660408201520152565b6298968061186230611142565b1080611939575b611876575b61112b610c72565b61187e61126e565b73c02aaa39b223fe8d0a0e5c4f27ead9083c756cc261189c82611290565b525f5160206121325f395f51905f526118b4826112b1565b52737a250d5630b4cf539739df2c5dacb4c659f2488d3b156100cf575f6118f3916040518093819263b6f9de9560e01b83524290309060048501611822565b0381662386f26fc10000737a250d5630b4cf539739df2c5dacb4c659f2488d5af161191f575b5061186e565b8061192d5f61193393610667565b806103a0565b5f611919565b50662386f26fc10000471015611869565b611953306111b9565b600254808211156114b6576119679161076b565b633b9aca0081116119c8575b801561112b57611985610da882610db3565b61112b575f6114559161199661126e565b906119a361140683611290565b6114366119af836112b1565b73c02aaa39b223fe8d0a0e5c4f27ead9083c756cc29052565b50633b9aca00611973565b805182526020808201516001600160a01b031690830152610443919061014090610120906040818101516001600160a01b0316908501526060818101516001600160a01b0316908501526080818101516001600160a01b03169085015260a0818101516001600160a01b03169085015260c081015160c085015260e081015160e085015261010081015161010085015201519181610120820152019061040e565b9392611ac390611ab573019bfc71d43c3492926d4a9a6c781f36706970c994611aa760c09560e08a5260e08a01906119d3565b9088820360208a015261040e565b90868203604088015261040e565b935f6060820152600160808201525f60a08201520152565b805191908290602001825e015f815290565b73a88800cd213da5ae406ce248380802bd53b4764760601b81525f601482015261044391601590910190611adb565b611b24610c17565b610443610cb3611ba283611b72610cb3611b9783611b72610cb3611b8c83611b72610cb3611b8183611b72611b57611cd4565b610cb3611b62611e13565b9160405194859360208501611a74565b60405192839160208301611aed565b610cb3611b62611e9f565b610cb3611b62611f0a565b610cb3611b62611f75565b610cb3611b62611fe0565b6004815110610e82576020015190565b60408051909190611bce8382610667565b6017815291601f1901366020840137565b73a88800cd213da5ae406ce248380802bd53b4764760601b8152600160f81b601482015273b02f39e382c90160eb816de5e0e428ac771d77b560601b60158201526104439291611c329160290190611adb565b90611adb565b919060c0611c6373019bfc71d43c3492926d4a9a6c781f36706970c99260e0865260e08601906119d3565b93610240602082015261046060408201525f606082015264e8d4a5100060808201525f60a08201520152565b6104439392611c326020936015611cc79473a88800cd213da5ae406ce248380802bd53b4764760601b81525f60148201520190611adb565b6101ff1981520190611adb565b610220611ce081610bfb565b90611cee6040519283610667565b808252611cfd601f1991610bfb565b01366020830137610443611778610cb3604051611d8381610cb36020820190604060e06101008401935f815273b02f39e382c90160eb816de5e0e428ac771d77b560208201525f5160206121125f395f51905f52838201525f60608201525f60808201525f5160206121125f395f51905f5260a082015264e8d4a5100060c08201520152565b611da0611d8e611bbd565b610cb360405193849260208401611bdf565b611dba611dab61204b565b60405194859160208301611c38565b60405194859360208501611c8f565b60405190611dd682610645565b6060610120835f81525f60208201525f60408201525f838201525f60808201525f60a08201525f60c08201525f60e08201525f6101008201520152565b611e1b611dc9565b50604051611e2881610645565b5f81525f5160206121325f395f51905f5260208201525f5160206121125f395f51905f5260408201523060608201819052608082015273a88800cd213da5ae406ce248380802bd53b4764760a08201525b600160c0820152600160e08201525f610100820152611e96610c17565b61012082015290565b611ea7611dc9565b50604051611eb481610645565b600181525f5160206121325f395f51905f5260208201525f5160206121125f395f51905f5260408201523060608201819052608082015273a88800cd213da5ae406ce248380802bd53b4764760a0820152611e79565b611f12611dc9565b50604051611f1f81610645565b600281525f5160206121325f395f51905f5260208201525f5160206121125f395f51905f5260408201523060608201819052608082015273a88800cd213da5ae406ce248380802bd53b4764760a0820152611e79565b611f7d611dc9565b50604051611f8a81610645565b600381525f5160206121325f395f51905f5260208201525f5160206121125f395f51905f5260408201523060608201819052608082015273a88800cd213da5ae406ce248380802bd53b4764760a0820152611e79565b611fe8611dc9565b50604051611ff581610645565b600481525f5160206121325f395f51905f5260208201525f5160206121125f395f51905f5260408201523060608201819052608082015273a88800cd213da5ae406ce248380802bd53b4764760a0820152611e79565b612053611dc9565b5060405161206081610645565b5f81525f5160206121325f395f51905f5260208201525f5160206121125f395f51905f5260408201523060608201819052608082015273a88800cd213da5ae406ce248380802bd53b4764760a0820152600160c082015264e8d4a5100060e08201525f610100820152611e96610c1756fe036b6384b5eca791c62761152d0c79bb0604c104a5fb6f4eb0703f3154bb3db1036b6384b5eca791c62761152d0c79bb0604c104a5fb6f4eb0703f3154bb3db0000000000000000000000000a0b86991c6218b36c1d19d4a2e9eb0ce3606eb48000000000000000000000000dac17f958d2ee523a2206206994597c13d831ec7036b6384b5eca791c62761152d0c79bb0604c104a5fb6f4eb0703f3154bb3db2a264697066735822122007f0aae80634b279ef4d45f4a1df933ab44c78e7f1b9e48540ad6753949020a064736f6c634300081e0033","linkReferences":{}},"methodIdentifiers":{"executeOnOpportunity()":"3c2448ed","failureReason()":"4f9522a4","hypothesisValidated()":"463defd1","isValidSignature(bytes32,bytes)":"1626ba7e","lastForgedPayload()":"6d093fe9","lastRevertSelector()":"76514153","profitAmount()":"5ff972cc","profitToken()":"49343624","resolveOrders(address,bytes,bytes)":"1944799f","uniswapV2Call(address,uint256,uint256,bytes)":"10d1e85c"},"id":0}