{"abi":[{"type":"function","name":"get","inputs":[{"name":"","type":"bytes","internalType":"bytes"}],"outputs":[{"name":"success","type":"bool","internalType":"bool"},{"name":"rate","type":"uint256","internalType":"uint256"}],"stateMutability":"pure"}],"bytecode":{"object":"0x6080604052348015600e575f5ffd5b506101b08061001c5f395ff3fe608060405234801561000f575f5ffd5b5060043610610029575f3560e01c8063d6d7d5251461002d575b5f5ffd5b610047600480360381019061004291906100d6565b61005e565b604051610055929190610153565b60405180910390f35b5f5f5f5f915091509250929050565b5f5ffd5b5f5ffd5b5f5ffd5b5f5ffd5b5f5ffd5b5f5f83601f84011261009657610095610075565b5b8235905067ffffffffffffffff8111156100b3576100b2610079565b5b6020830191508360018202830111156100cf576100ce61007d565b5b9250929050565b5f5f602083850312156100ec576100eb61006d565b5b5f83013567ffffffffffffffff81111561010957610108610071565b5b61011585828601610081565b92509250509250929050565b5f8115159050919050565b61013581610121565b82525050565b5f819050919050565b61014d8161013b565b82525050565b5f6040820190506101665f83018561012c565b6101736020830184610144565b939250505056fea264697066735822122020cb475d4f7318f98ef8acb4efc314f7e6442de46b391cbc4905b32af022ddb464736f6c634300081e0033","linkReferences":{}},"methodIdentifiers":{"get(bytes)":"d6d7d525"},"id":0}