{"abi":[{"type":"constructor","inputs":[],"stateMutability":"nonpayable"},{"type":"receive","stateMutability":"payable"},{"type":"function","name":"MIM","inputs":[],"outputs":[{"name":"","type":"address","internalType":"address"}],"stateMutability":"view"},{"type":"function","name":"TARGET_CAULDRON","inputs":[],"outputs":[{"name":"","type":"address","internalType":"address"}],"stateMutability":"view"},{"type":"function","name":"attemptLiveTarget","inputs":[],"outputs":[],"stateMutability":"nonpayable"},{"type":"function","name":"attemptValidationPath","inputs":[],"outputs":[],"stateMutability":"nonpayable"},{"type":"function","name":"bentoBox","inputs":[],"outputs":[{"name":"","type":"address","internalType":"address"}],"stateMutability":"view"},{"type":"function","name":"borrowSucceeded","inputs":[],"outputs":[{"name":"","type":"bool","internalType":"bool"}],"stateMutability":"view"},{"type":"function","name":"collateralToken","inputs":[],"outputs":[{"name":"","type":"address","internalType":"address"}],"stateMutability":"view"},{"type":"function","name":"executeOnOpportunity","inputs":[],"outputs":[{"name":"","type":"uint256","internalType":"uint256"}],"stateMutability":"nonpayable"},{"type":"function","name":"initAcceptedFailedOracleRead","inputs":[],"outputs":[{"name":"","type":"bool","internalType":"bool"}],"stateMutability":"view"},{"type":"function","name":"liquidationBlocked","inputs":[],"outputs":[{"name":"","type":"bool","internalType":"bool"}],"stateMutability":"view"},{"type":"function","name":"liveTargetAttempted","inputs":[],"outputs":[{"name":"","type":"bool","internalType":"bool"}],"stateMutability":"view"},{"type":"function","name":"liveTargetCachedZeroObserved","inputs":[],"outputs":[{"name":"","type":"bool","internalType":"bool"}],"stateMutability":"view"},{"type":"function","name":"liveTargetInitializationStageInfeasible","inputs":[],"outputs":[{"name":"","type":"bool","internalType":"bool"}],"stateMutability":"view"},{"type":"function","name":"liveTargetProfitable","inputs":[],"outputs":[{"name":"","type":"bool","internalType":"bool"}],"stateMutability":"view"},{"type":"function","name":"probeLiveLiquidation","inputs":[],"outputs":[],"stateMutability":"nonpayable"},{"type":"function","name":"profitAmount","inputs":[],"outputs":[{"name":"","type":"uint256","internalType":"uint256"}],"stateMutability":"view"},{"type":"function","name":"profitToken","inputs":[],"outputs":[{"name":"","type":"address","internalType":"address"}],"stateMutability":"pure"},{"type":"function","name":"status","inputs":[],"outputs":[{"name":"","type":"bytes32","internalType":"bytes32"}],"stateMutability":"view"},{"type":"function","name":"uniswapV2Call","inputs":[{"name":"sender","type":"address","internalType":"address"},{"name":"amount0","type":"uint256","internalType":"uint256"},{"name":"amount1","type":"uint256","internalType":"uint256"},{"name":"","type":"bytes","internalType":"bytes"}],"outputs":[],"stateMutability":"nonpayable"},{"type":"function","name":"validationCauldron","inputs":[],"outputs":[{"name":"","type":"address","internalType":"address"}],"stateMutability":"view"},{"type":"function","name":"validationOracle","inputs":[],"outputs":[{"name":"","type":"address","internalType":"address"}],"stateMutability":"view"}],"bytecode":{"object":"0x6080604052348015600e575f5ffd5b50615a108061001c5f395ff3fe60806040526004361061012c575f3560e01c80636b2ace87116100aa578063b7021f771161006e578063b7021f7714610383578063bd7a598c146103ad578063c5bd196f146103d7578063c5d948e714610401578063daec383d1461042b578063f10a3d811461045557610133565b80636b2ace87146102b157806386316ffb146102db57806386e8a1a214610305578063983dae111461032f578063b2016bd41461035957610133565b80633c2448ed116100f15780633c2448ed146101df5780634686aeb01461020957806349343624146102335780634f8d51ce1461025d5780635ff972cc1461028757610133565b8062a4c06414610137578063072d5e471461016157806310d1e85c14610177578063200d2ed21461019f5780633a634811146101c957610133565b3661013357005b5f5ffd5b348015610142575f5ffd5b5061014b61046b565b6040516101589190613c99565b60405180910390f35b34801561016c575f5ffd5b5061017561047e565b005b348015610182575f5ffd5b5061019d60048036038101906101989190613db1565b6104f6565b005b3480156101aa575f5ffd5b506101b3610bfe565b6040516101c09190613e4d565b60405180910390f35b3480156101d4575f5ffd5b506101dd610c04565b005b3480156101ea575f5ffd5b506101f3610c7c565b6040516102009190613e75565b60405180910390f35b348015610214575f5ffd5b5061021d61121d565b60405161022a9190613c99565b60405180910390f35b34801561023e575f5ffd5b50610247611230565b6040516102549190613e9d565b60405180910390f35b348015610268575f5ffd5b5061027161124b565b60405161027e9190613c99565b60405180910390f35b348015610292575f5ffd5b5061029b61125e565b6040516102a89190613e75565b60405180910390f35b3480156102bc575f5ffd5b506102c5611266565b6040516102d29190613e9d565b60405180910390f35b3480156102e6575f5ffd5b506102ef61128c565b6040516102fc9190613e9d565b60405180910390f35b348015610310575f5ffd5b506103196112b1565b6040516103269190613c99565b60405180910390f35b34801561033a575f5ffd5b506103436112c4565b6040516103509190613e9d565b60405180910390f35b348015610364575f5ffd5b5061036d6112e9565b60405161037a9190613e9d565b60405180910390f35b34801561038e575f5ffd5b5061039761130e565b6040516103a49190613c99565b60405180910390f35b3480156103b8575f5ffd5b506103c1611321565b6040516103ce9190613e9d565b60405180910390f35b3480156103e2575f5ffd5b506103eb611339565b6040516103f89190613c99565b60405180910390f35b34801561040c575f5ffd5b5061041561134c565b6040516104229190613c99565b60405180910390f35b348015610436575f5ffd5b5061043f61135f565b60405161044c9190613e9d565b60405180910390f35b348015610460575f5ffd5b50610469611377565b005b600560149054906101000a900460ff1681565b3073ffffffffffffffffffffffffffffffffffffffff163373ffffffffffffffffffffffffffffffffffffffff16146104ec576040517f08c379a00000000000000000000000000000000000000000000000000000000081526004016104e390613f10565b60405180910390fd5b6104f46115fc565b565b6001600d541461053b576040517f08c379a000000000000000000000000000000000000000000000000000000000815260040161053290613f78565b60405180910390fd5b3073ffffffffffffffffffffffffffffffffffffffff168573ffffffffffffffffffffffffffffffffffffffff16146105a9576040517f08c379a00000000000000000000000000000000000000000000000000000000081526004016105a090613fe0565b60405180910390fd5b60075f9054906101000a900473ffffffffffffffffffffffffffffffffffffffff1673ffffffffffffffffffffffffffffffffffffffff163373ffffffffffffffffffffffffffffffffffffffff1614610638576040517f08c379a000000000000000000000000000000000000000000000000000000000815260040161062f90614048565b60405180910390fd5b5f5f85116106465783610648565b845b90505f810361068c576040517f08c379a0000000000000000000000000000000000000000000000000000000008152600401610683906140b0565b60405180910390fd5b6106da60035f9054906101000a900473ffffffffffffffffffffffffffffffffffffffff16600260019054906101000a900473ffffffffffffffffffffffffffffffffffffffff1683611ab3565b5f600260019054906101000a900473ffffffffffffffffffffffffffffffffffffffff1673ffffffffffffffffffffffffffffffffffffffff166302b9446c60035f9054906101000a900473ffffffffffffffffffffffffffffffffffffffff163030865f6040518663ffffffff1660e01b815260040161075f959493929190614110565b60408051808303815f875af115801561077a573d5f5f3e3d5ffd5b505050506040513d601f19601f8201168201806040525081019061079e9190614175565b9150505f81036107e3576040517f08c379a00000000000000000000000000000000000000000000000000000000081526004016107da906141fd565b60405180910390fd5b7346f54d434063e5f1a2b2cc6d9aaa657b1b9ff82c73ffffffffffffffffffffffffffffffffffffffff1663860ffea1305f846040518463ffffffff1660e01b81526004016108349392919061421b565b5f604051808303815f87803b15801561084b575f5ffd5b505af115801561085d573d5f5f3e3d5ffd5b505050505f7346f54d434063e5f1a2b2cc6d9aaa657b1b9ff82c73ffffffffffffffffffffffffffffffffffffffff16634b8a352930600b546040518363ffffffff1660e01b81526004016108b3929190614250565b60408051808303815f875af11580156108ce573d5f5f3e3d5ffd5b505050506040513d601f19601f820116820180604052508101906108f29190614175565b915050600260019054906101000a900473ffffffffffffffffffffffffffffffffffffffff1673ffffffffffffffffffffffffffffffffffffffff166397da6d307399d8a9c45b2eca8864373a26d1459e3dff1e17f330305f866040518663ffffffff1660e01b815260040161096c959493929190614277565b60408051808303815f875af1158015610987573d5f5f3e3d5ffd5b505050506040513d601f19601f820116820180604052508101906109ab9190614175565b50505f7399d8a9c45b2eca8864373a26d1459e3dff1e17f373ffffffffffffffffffffffffffffffffffffffff166370a08231306040518263ffffffff1660e01b81526004016109fb9190613e9d565b602060405180830381865afa158015610a16573d5f5f3e3d5ffd5b505050506040513d601f19601f82011682018060405250810190610a3a91906142c8565b1415600560186101000a81548160ff0219169083151502179055503073ffffffffffffffffffffffffffffffffffffffff1663f10a3d816040518163ffffffff1660e01b81526004015f604051808303815f87803b158015610a9a575f5ffd5b505af1925050508015610aab575060015b610acf576001600560196101000a81548160ff021916908315150217905550610aea565b5f600560196101000a81548160ff0219169083151502179055505b5f610b3860075f9054906101000a900473ffffffffffffffffffffffffffffffffffffffff1660035f9054906101000a900473ffffffffffffffffffffffffffffffffffffffff1686611bba565b9050610b4381611d3f565b6001547399d8a9c45b2eca8864373a26d1459e3dff1e17f373ffffffffffffffffffffffffffffffffffffffff166370a08231306040518263ffffffff1660e01b8152600401610b939190613e9d565b602060405180830381865afa158015610bae573d5f5f3e3d5ffd5b505050506040513d601f19601f82011682018060405250810190610bd291906142c8565b11600560156101000a81548160ff0219169083151502179055505f600d81905550505050505050505050565b60065481565b3073ffffffffffffffffffffffffffffffffffffffff163373ffffffffffffffffffffffffffffffffffffffff1614610c72576040517f08c379a0000000000000000000000000000000000000000000000000000000008152600401610c6990613f10565b60405180910390fd5b610c7a611ef4565b565b5f60025f9054906101000a900460ff1615610c9a575f54905061121a565b600160025f6101000a81548160ff0219169083151502179055507399d8a9c45b2eca8864373a26d1459e3dff1e17f373ffffffffffffffffffffffffffffffffffffffff166370a08231306040518263ffffffff1660e01b8152600401610d019190613e9d565b602060405180830381865afa158015610d1c573d5f5f3e3d5ffd5b505050506040513d601f19601f82011682018060405250810190610d4091906142c8565b6001819055507346f54d434063e5f1a2b2cc6d9aaa657b1b9ff82c73ffffffffffffffffffffffffffffffffffffffff16636b2ace876040518163ffffffff1660e01b8152600401602060405180830381865afa158015610da3573d5f5f3e3d5ffd5b505050506040513d601f19601f82011682018060405250810190610dc79190614307565b600260016101000a81548173ffffffffffffffffffffffffffffffffffffffff021916908373ffffffffffffffffffffffffffffffffffffffff1602179055507346f54d434063e5f1a2b2cc6d9aaa657b1b9ff82c73ffffffffffffffffffffffffffffffffffffffff1663d8dfeb456040518163ffffffff1660e01b8152600401602060405180830381865afa158015610e64573d5f5f3e3d5ffd5b505050506040513d601f19601f82011682018060405250810190610e889190614307565b60035f6101000a81548173ffffffffffffffffffffffffffffffffffffffff021916908373ffffffffffffffffffffffffffffffffffffffff1602179055507399d8a9c45b2eca8864373a26d1459e3dff1e17f373ffffffffffffffffffffffffffffffffffffffff167346f54d434063e5f1a2b2cc6d9aaa657b1b9ff82c73ffffffffffffffffffffffffffffffffffffffff16639b352ae16040518163ffffffff1660e01b8152600401602060405180830381865afa158015610f4f573d5f5f3e3d5ffd5b505050506040513d601f19601f82011682018060405250810190610f739190614307565b73ffffffffffffffffffffffffffffffffffffffff1614610fc9576040517f08c379a0000000000000000000000000000000000000000000000000000000008152600401610fc09061437c565b60405180910390fd5b3073ffffffffffffffffffffffffffffffffffffffff1663072d5e476040518163ffffffff1660e01b81526004015f604051808303815f87803b15801561100e575f5ffd5b505af192505050801561101f575060015b611043576001600560176101000a81548160ff021916908315150217905550611081565b600560159054906101000a900460ff1615611080577f465fe967114895a6ceb349f1f083901ad81ae56d5a3ec9e13d7f3c59867e8b3d6006819055505b5b600560159054906101000a900460ff16611162573073ffffffffffffffffffffffffffffffffffffffff16633a6348116040518163ffffffff1660e01b81526004015f604051808303815f87803b1580156110da575f5ffd5b505af19250505080156110eb575060015b1561112e576005601a9054906101000a900460ff161561112d577f9bdb7051edc747410090a34e3942184fbfc1eedcbf1dfcab33a0b786e650276a6006819055505b5b5f5f1b60065403611161577f62e9a9d918642b1185ba3e148da42ba038e7e65b23e46e61cca58803eae656986006819055505b5b5f7399d8a9c45b2eca8864373a26d1459e3dff1e17f373ffffffffffffffffffffffffffffffffffffffff166370a08231306040518263ffffffff1660e01b81526004016111b09190613e9d565b602060405180830381865afa1580156111cb573d5f5f3e3d5ffd5b505050506040513d601f19601f820116820180604052508101906111ef91906142c8565b90506001548111611200575f61120f565b6001548161120e91906143c7565b5b5f819055505f549150505b90565b600560179054906101000a900460ff1681565b5f7399d8a9c45b2eca8864373a26d1459e3dff1e17f3905090565b600560169054906101000a900460ff1681565b5f5f54905090565b600260019054906101000a900473ffffffffffffffffffffffffffffffffffffffff1681565b60055f9054906101000a900473ffffffffffffffffffffffffffffffffffffffff1681565b600560159054906101000a900460ff1681565b60045f9054906101000a900473ffffffffffffffffffffffffffffffffffffffff1681565b60035f9054906101000a900473ffffffffffffffffffffffffffffffffffffffff1681565b600560199054906101000a900460ff1681565b7346f54d434063e5f1a2b2cc6d9aaa657b1b9ff82c81565b6005601a9054906101000a900460ff1681565b600560189054906101000a900460ff1681565b7399d8a9c45b2eca8864373a26d1459e3dff1e17f381565b3073ffffffffffffffffffffffffffffffffffffffff163373ffffffffffffffffffffffffffffffffffffffff16146113e5576040517f08c379a00000000000000000000000000000000000000000000000000000000081526004016113dc90613f10565b60405180910390fd5b5f600167ffffffffffffffff811115611401576114006143fa565b5b60405190808252806020026020018201604052801561142f5781602001602082028036833780820191505090505b50905030815f8151811061144657611445614427565b5b602002602001019073ffffffffffffffffffffffffffffffffffffffff16908173ffffffffffffffffffffffffffffffffffffffff16815250505f600167ffffffffffffffff81111561149c5761149b6143fa565b5b6040519080825280602002602001820160405280156114ca5781602001602082028036833780820191505090505b5090507346f54d434063e5f1a2b2cc6d9aaa657b1b9ff82c73ffffffffffffffffffffffffffffffffffffffff166348e4163e306040518263ffffffff1660e01b815260040161151a9190613e9d565b602060405180830381865afa158015611535573d5f5f3e3d5ffd5b505050506040513d601f19601f8201168201806040525081019061155991906142c8565b815f8151811061156c5761156b614427565b5b6020026020010181815250507346f54d434063e5f1a2b2cc6d9aaa657b1b9ff82c73ffffffffffffffffffffffffffffffffffffffff1663ff6ff84b8383305f6040518563ffffffff1660e01b81526004016115cb9493929190614647565b5f604051808303815f87803b1580156115e2575f5ffd5b505af11580156115f4573d5f5f3e3d5ffd5b505050505050565b6001600560146101000a81548160ff0219169083151502179055505f5f7346f54d434063e5f1a2b2cc6d9aaa657b1b9ff82c73ffffffffffffffffffffffffffffffffffffffff166302ce728f6040518163ffffffff1660e01b815260040160408051808303815f875af1158015611676573d5f5f3e3d5ffd5b505050506040513d601f19601f8201168201806040525081019061169a91906146d5565b915091505f811415806116aa5750815b156116d1576001600560176101000a81548160ff0219169083151502179055505050611ab1565b6001600560166101000a81548160ff0219169083151502179055506116f46122e5565b600b819055505f600b5403611725576001600560176101000a81548160ff0219169083151502179055505050611ab1565b61174f60035f9054906101000a900473ffffffffffffffffffffffffffffffffffffffff166126d9565b600c81905550611760600c54612794565b60075f60085f60095f600a5f8891906101000a81548173ffffffffffffffffffffffffffffffffffffffff021916908373ffffffffffffffffffffffffffffffffffffffff1602179055508791906101000a81548173ffffffffffffffffffffffffffffffffffffffff021916908373ffffffffffffffffffffffffffffffffffffffff1602179055508691906101000a81548173ffffffffffffffffffffffffffffffffffffffff021916908373ffffffffffffffffffffffffffffffffffffffff1602179055508591906101000a81548173ffffffffffffffffffffffffffffffffffffffff021916908373ffffffffffffffffffffffffffffffffffffffff160217905550505050505f73ffffffffffffffffffffffffffffffffffffffff1660075f9054906101000a900473ffffffffffffffffffffffffffffffffffffffff1673ffffffffffffffffffffffffffffffffffffffff16036118e2576001600560176101000a81548160ff0219169083151502179055505050611ab1565b5f60075f9054906101000a900473ffffffffffffffffffffffffffffffffffffffff1690506001600d8190555060035f9054906101000a900473ffffffffffffffffffffffffffffffffffffffff1673ffffffffffffffffffffffffffffffffffffffff168173ffffffffffffffffffffffffffffffffffffffff16630dfe16816040518163ffffffff1660e01b8152600401602060405180830381865afa158015611990573d5f5f3e3d5ffd5b505050506040513d601f19601f820116820180604052508101906119b49190614307565b73ffffffffffffffffffffffffffffffffffffffff1603611a40578073ffffffffffffffffffffffffffffffffffffffff1663022c0d9f600c545f306040518463ffffffff1660e01b8152600401611a0e9392919061475d565b5f604051808303815f87803b158015611a25575f5ffd5b505af1158015611a37573d5f5f3e3d5ffd5b50505050611aad565b8073ffffffffffffffffffffffffffffffffffffffff1663022c0d9f5f600c54306040518463ffffffff1660e01b8152600401611a7f939291906147a5565b5f604051808303815f87803b158015611a96575f5ffd5b505af1158015611aa8573d5f5f3e3d5ffd5b505050505b5050505b565b611b348363095ea7b360e01b845f604051602401611ad2929190614829565b604051602081830303815290604052907bffffffffffffffffffffffffffffffffffffffffffffffffffffffff19166020820180517bffffffffffffffffffffffffffffffffffffffffffffffffffffffff8381831617835250505050612851565b611bb58363095ea7b360e01b8484604051602401611b53929190614250565b604051602081830303815290604052907bffffffffffffffffffffffffffffffffffffffffffffffffffffffff19166020820180517bffffffffffffffffffffffffffffffffffffffffffffffffffffffff8381831617835250505050612851565b505050565b5f5f8490505f5f8273ffffffffffffffffffffffffffffffffffffffff16630902f1ac6040518163ffffffff1660e01b8152600401606060405180830381865afa158015611c0a573d5f5f3e3d5ffd5b505050506040513d601f19601f82011682018060405250810190611c2e91906148cc565b50915091508573ffffffffffffffffffffffffffffffffffffffff168373ffffffffffffffffffffffffffffffffffffffff16630dfe16816040518163ffffffff1660e01b8152600401602060405180830381865afa158015611c93573d5f5f3e3d5ffd5b505050506040513d601f19601f82011682018060405250810190611cb79190614307565b73ffffffffffffffffffffffffffffffffffffffff1603611d0757611cfd85826dffffffffffffffffffffffffffff16846dffffffffffffffffffffffffffff16612928565b9350505050611d38565b611d3285836dffffffffffffffffffffffffffff16836dffffffffffffffffffffffffffff16612928565b93505050505b9392505050565b7399d8a9c45b2eca8864373a26d1459e3dff1e17f373ffffffffffffffffffffffffffffffffffffffff1660095f9054906101000a900473ffffffffffffffffffffffffffffffffffffffff1673ffffffffffffffffffffffffffffffffffffffff1603611dec57611de77399d8a9c45b2eca8864373a26d1459e3dff1e17f360075f9054906101000a900473ffffffffffffffffffffffffffffffffffffffff16836129d4565b611ef1565b5f611e5c60085f9054906101000a900473ffffffffffffffffffffffffffffffffffffffff1660095f9054906101000a900473ffffffffffffffffffffffffffffffffffffffff16600a5f9054906101000a900473ffffffffffffffffffffffffffffffffffffffff1685612a5a565b9050600b548110611ea2576040517f08c379a0000000000000000000000000000000000000000000000000000000008152600401611e9990614966565b60405180910390fd5b611eef60095f9054906101000a900473ffffffffffffffffffffffffffffffffffffffff1660075f9054906101000a900473ffffffffffffffffffffffffffffffffffffffff16846129d4565b505b50565b604051611f0090613c65565b604051809103905ff080158015611f19573d5f5f3e3d5ffd5b5060045f6101000a81548173ffffffffffffffffffffffffffffffffffffffff021916908373ffffffffffffffffffffffffffffffffffffffff16021790555060035f9054906101000a900473ffffffffffffffffffffffffffffffffffffffff167399d8a9c45b2eca8864373a26d1459e3dff1e17f360045f9054906101000a900473ffffffffffffffffffffffffffffffffffffffff167346f54d434063e5f1a2b2cc6d9aaa657b1b9ff82c73ffffffffffffffffffffffffffffffffffffffff1663c7ee2a7b6040518163ffffffff1660e01b8152600401602060405180830381865afa15801561200f573d5f5f3e3d5ffd5b505050506040513d601f19601f8201168201806040525081019061203391906142c8565b7346f54d434063e5f1a2b2cc6d9aaa657b1b9ff82c73ffffffffffffffffffffffffffffffffffffffff1663aba024f46040518163ffffffff1660e01b8152600401602060405180830381865afa158015612090573d5f5f3e3d5ffd5b505050506040513d601f19601f820116820180604052508101906120b491906142c8565b6040516120c090613c72565b6120ce959493929190614984565b604051809103905ff0801580156120e7573d5f5f3e3d5ffd5b5060055f6101000a81548173ffffffffffffffffffffffffffffffffffffffff021916908373ffffffffffffffffffffffffffffffffffffffff16021790555060055f9054906101000a900473ffffffffffffffffffffffffffffffffffffffff1673ffffffffffffffffffffffffffffffffffffffff1663e1c7392a6040518163ffffffff1660e01b81526004015f604051808303815f87803b15801561218d575f5ffd5b505af115801561219f573d5f5f3e3d5ffd5b5050505060055f9054906101000a900473ffffffffffffffffffffffffffffffffffffffff1673ffffffffffffffffffffffffffffffffffffffff166375587d3c6040518163ffffffff1660e01b8152600401602060405180830381865afa15801561220d573d5f5f3e3d5ffd5b505050506040513d601f19601f8201168201806040525081019061223191906149d5565b1580156122ca57505f60055f9054906101000a900473ffffffffffffffffffffffffffffffffffffffff1673ffffffffffffffffffffffffffffffffffffffff16633ba0b9a96040518163ffffffff1660e01b8152600401602060405180830381865afa1580156122a4573d5f5f3e3d5ffd5b505050506040513d601f19601f820116820180604052508101906122c891906142c8565b145b6005601a6101000a81548160ff021916908315150217905550565b5f5f6122ef612f1d565b90505f8103612301575f9150506126d6565b5f5f7346f54d434063e5f1a2b2cc6d9aaa657b1b9ff82c73ffffffffffffffffffffffffffffffffffffffff1663e551d11d6040518163ffffffff1660e01b81526004016040805180830381865afa15801561235f573d5f5f3e3d5ffd5b505050506040513d601f19601f820116820180604052508101906123839190614a45565b915091505f5f7346f54d434063e5f1a2b2cc6d9aaa657b1b9ff82c73ffffffffffffffffffffffffffffffffffffffff16638285ef406040518163ffffffff1660e01b81526004016040805180830381865afa1580156123e5573d5f5f3e3d5ffd5b505050506040513d601f19601f820116820180604052508101906124099190614a45565b915091505f6fffffffffffffffffffffffffffffffff8016856fffffffffffffffffffffffffffffffff161461248e57826fffffffffffffffffffffffffffffffff16856fffffffffffffffffffffffffffffffff161161246a575f612477565b82856124769190614a83565b5b6fffffffffffffffffffffffffffffffff166124b0565b7fffffffffffffffffffffffffffffffffffffffffffffffffffffffffffffffff5b90505f7fffffffffffffffffffffffffffffffffffffffffffffffffffffffffffffffff90506fffffffffffffffffffffffffffffffff8016856fffffffffffffffffffffffffffffffff16146126b9575f836fffffffffffffffffffffffffffffffff16148061253257505f846fffffffffffffffffffffffffffffffff16145b156125da576125d3856fffffffffffffffffffffffffffffffff167346f54d434063e5f1a2b2cc6d9aaa657b1b9ff82c73ffffffffffffffffffffffffffffffffffffffff1663aba024f46040518163ffffffff1660e01b8152600401602060405180830381865afa1580156125aa573d5f5f3e3d5ffd5b505050506040513d601f19601f820116820180604052508101906125ce91906142c8565b6130ae565b90506126b8565b5f836fffffffffffffffffffffffffffffffff16856fffffffffffffffffffffffffffffffff16876fffffffffffffffffffffffffffffffff1661261e9190614ac6565b6126289190614b34565b90506126b4817346f54d434063e5f1a2b2cc6d9aaa657b1b9ff82c73ffffffffffffffffffffffffffffffffffffffff1663aba024f46040518163ffffffff1660e01b8152600401602060405180830381865afa15801561268b573d5f5f3e3d5ffd5b505050506040513d601f19601f820116820180604052508101906126af91906142c8565b6130ae565b9150505b5b6126cc876126c784846130df565b6130df565b9750505050505050505b90565b5f5f600260019054906101000a900473ffffffffffffffffffffffffffffffffffffffff1673ffffffffffffffffffffffffffffffffffffffff166356623118846001806040518463ffffffff1660e01b815260040161273b93929190614b9d565b602060405180830381865afa158015612756573d5f5f3e3d5ffd5b505050506040513d601f19601f8201168201806040525081019061277a91906142c8565b90505f8114612789578061278c565b60015b915050919050565b5f5f5f5f6127cb735c69bee701ef814a2b6a3edd4b1652cb9cc5aa6f737a250d5630b4cf539739df2c5dacb4c659f2488d876130f7565b809450819550829650839750505050505f73ffffffffffffffffffffffffffffffffffffffff168473ffffffffffffffffffffffffffffffffffffffff160361284a5761284173c0aee478e3658e2610c5f7a4a2e1777ce9e4f2ac73d9e1ce17f2641f24ae83637ab66a2cca9c378b9f876130f7565b93509350935093505b9193509193565b5f5f8373ffffffffffffffffffffffffffffffffffffffff16836040516128789190614c24565b5f604051808303815f865af19150503d805f81146128b1576040519150601f19603f3d011682016040523d82523d5f602084013e6128b6565b606091505b50915091508180156128e357505f815114806128e25750808060200190518101906128e191906149d5565b5b5b612922576040517f08c379a000000000000000000000000000000000000000000000000000000000815260040161291990614c84565b60405180910390fd5b50505050565b5f5f841415801561293957505f8314155b801561294457508382115b612983576040517f08c379a000000000000000000000000000000000000000000000000000000000815260040161297a90614cec565b60405180910390fd5b60016103e5858461299491906143c7565b61299e9190614ac6565b6103e886866129ad9190614ac6565b6129b79190614ac6565b6129c19190614b34565b6129cb9190614d0a565b90509392505050565b612a558363a9059cbb60e01b84846040516024016129f3929190614250565b604051602081830303815290604052907bffffffffffffffffffffffffffffffffffffffffffffffffffffffff19166020820180517bffffffffffffffffffffffffffffffffffffffffffffffffffffffff8381831617835250505050612851565b505050565b5f612b057399d8a9c45b2eca8864373a26d1459e3dff1e17f3867399d8a9c45b2eca8864373a26d1459e3dff1e17f373ffffffffffffffffffffffffffffffffffffffff166370a08231306040518263ffffffff1660e01b8152600401612ac19190613e9d565b602060405180830381865afa158015612adc573d5f5f3e3d5ffd5b505050506040513d601f19601f82011682018060405250810190612b0091906142c8565b611ab3565b5f73ffffffffffffffffffffffffffffffffffffffff168373ffffffffffffffffffffffffffffffffffffffff1603612d01575f600267ffffffffffffffff811115612b5457612b536143fa565b5b604051908082528060200260200182016040528015612b825781602001602082028036833780820191505090505b5090507399d8a9c45b2eca8864373a26d1459e3dff1e17f3815f81518110612bad57612bac614427565b5b602002602001019073ffffffffffffffffffffffffffffffffffffffff16908173ffffffffffffffffffffffffffffffffffffffff16815250508481600181518110612bfc57612bfb614427565b5b602002602001019073ffffffffffffffffffffffffffffffffffffffff16908173ffffffffffffffffffffffffffffffffffffffff16815250505f8673ffffffffffffffffffffffffffffffffffffffff16638803dbee857fffffffffffffffffffffffffffffffffffffffffffffffffffffffffffffffff8530426040518663ffffffff1660e01b8152600401612c98959493929190614d3d565b5f604051808303815f875af1158015612cb3573d5f5f3e3d5ffd5b505050506040513d5f823e3d601f19601f82011682018060405250810190612cdb9190614eb0565b9050805f81518110612cf057612cef614427565b5b602002602001015192505050612f15565b5f600367ffffffffffffffff811115612d1d57612d1c6143fa565b5b604051908082528060200260200182016040528015612d4b5781602001602082028036833780820191505090505b5090507399d8a9c45b2eca8864373a26d1459e3dff1e17f3815f81518110612d7657612d75614427565b5b602002602001019073ffffffffffffffffffffffffffffffffffffffff16908173ffffffffffffffffffffffffffffffffffffffff16815250508381600181518110612dc557612dc4614427565b5b602002602001019073ffffffffffffffffffffffffffffffffffffffff16908173ffffffffffffffffffffffffffffffffffffffff16815250508481600281518110612e1457612e13614427565b5b602002602001019073ffffffffffffffffffffffffffffffffffffffff16908173ffffffffffffffffffffffffffffffffffffffff16815250505f8673ffffffffffffffffffffffffffffffffffffffff16638803dbee857fffffffffffffffffffffffffffffffffffffffffffffffffffffffffffffffff8530426040518663ffffffff1660e01b8152600401612eb0959493929190614d3d565b5f604051808303815f875af1158015612ecb573d5f5f3e3d5ffd5b505050506040513d5f823e3d601f19601f82011682018060405250810190612ef39190614eb0565b9050805f81518110612f0857612f07614427565b5b6020026020010151925050505b949350505050565b5f5f600260019054906101000a900473ffffffffffffffffffffffffffffffffffffffff1673ffffffffffffffffffffffffffffffffffffffff1663f7888aec7399d8a9c45b2eca8864373a26d1459e3dff1e17f37346f54d434063e5f1a2b2cc6d9aaa657b1b9ff82c6040518363ffffffff1660e01b8152600401612fa4929190614ef7565b602060405180830381865afa158015612fbf573d5f5f3e3d5ffd5b505050506040513d601f19601f82011682018060405250810190612fe391906142c8565b90505f8103612ff5575f9150506130ab565b600260019054906101000a900473ffffffffffffffffffffffffffffffffffffffff1673ffffffffffffffffffffffffffffffffffffffff1663566231187399d8a9c45b2eca8864373a26d1459e3dff1e17f3835f6040518463ffffffff1660e01b815260040161306893929190614f1e565b602060405180830381865afa158015613083573d5f5f3e3d5ffd5b505050506040513d601f19601f820116820180604052508101906130a791906142c8565b9150505b90565b5f81620186a06130be9190614d0a565b620186a0846130cd9190614ac6565b6130d79190614b34565b905092915050565b5f8183106130ed57816130ef565b825b905092915050565b5f5f5f5f8592508673ffffffffffffffffffffffffffffffffffffffff1663e6a4390560035f9054906101000a900473ffffffffffffffffffffffffffffffffffffffff167399d8a9c45b2eca8864373a26d1459e3dff1e17f36040518363ffffffff1660e01b815260040161316e929190614ef7565b602060405180830381865afa158015613189573d5f5f3e3d5ffd5b505050506040513d601f19601f820116820180604052508101906131ad9190614307565b93505f73ffffffffffffffffffffffffffffffffffffffff168473ffffffffffffffffffffffffffffffffffffffff16141580156131f157506131f08486613395565b5b1561321b5783867399d8a9c45b2eca8864373a26d1459e3dff1e17f35f935093509350935061338c565b61323b87878773c02aaa39b223fe8d0a0e5c4f27ead9083c756cc2613505565b8093508194508296505050505f73ffffffffffffffffffffffffffffffffffffffff168473ffffffffffffffffffffffffffffffffffffffff16146132855783869350935061338c565b6132a587878773a0b86991c6218b36c1d19d4a2e9eb0ce3606eb48613505565b8093508194508296505050505f73ffffffffffffffffffffffffffffffffffffffff168473ffffffffffffffffffffffffffffffffffffffff16146132ef5783869350935061338c565b61330f87878773dac17f958d2ee523a2206206994597c13d831ec7613505565b8093508194508296505050505f73ffffffffffffffffffffffffffffffffffffffff168473ffffffffffffffffffffffffffffffffffffffff16146133595783869350935061338c565b613379878787736b175474e89094c44da98b954eedeac495271d0f613505565b8093508194508296505050508386935093505b93509350935093565b5f5f8390505f5f8273ffffffffffffffffffffffffffffffffffffffff16630902f1ac6040518163ffffffff1660e01b8152600401606060405180830381865afa1580156133e5573d5f5f3e3d5ffd5b505050506040513d601f19601f8201168201806040525081019061340991906148cc565b509150915060035f9054906101000a900473ffffffffffffffffffffffffffffffffffffffff1673ffffffffffffffffffffffffffffffffffffffff168373ffffffffffffffffffffffffffffffffffffffff16630dfe16816040518163ffffffff1660e01b8152600401602060405180830381865afa15801561348f573d5f5f3e3d5ffd5b505050506040513d601f19601f820116820180604052508101906134b39190614307565b73ffffffffffffffffffffffffffffffffffffffff16146134e65784816dffffffffffffffffffffffffffff16116134fa565b84826dffffffffffffffffffffffffffff16115b935050505092915050565b5f5f5f8673ffffffffffffffffffffffffffffffffffffffff1663e6a4390560035f9054906101000a900473ffffffffffffffffffffffffffffffffffffffff16866040518363ffffffff1660e01b8152600401613564929190614ef7565b602060405180830381865afa15801561357f573d5f5f3e3d5ffd5b505050506040513d601f19601f820116820180604052508101906135a39190614307565b92505f73ffffffffffffffffffffffffffffffffffffffff168373ffffffffffffffffffffffffffffffffffffffff1614806135e657506135e48386613395565b155b156135f9575f5f5f92509250925061362a565b5f5f6136058887613634565b915091508161361e575f5f5f945094509450505061362a565b84868294509450945050505b9450945094915050565b5f5f613640848461389f565b156136515760015f91509150613898565b73c02aaa39b223fe8d0a0e5c4f27ead9083c756cc273ffffffffffffffffffffffffffffffffffffffff168373ffffffffffffffffffffffffffffffffffffffff16141580156136bc57506136bb8473c02aaa39b223fe8d0a0e5c4f27ead9083c756cc285613a5a565b5b156136e157600173c02aaa39b223fe8d0a0e5c4f27ead9083c756cc291509150613898565b73a0b86991c6218b36c1d19d4a2e9eb0ce3606eb4873ffffffffffffffffffffffffffffffffffffffff168373ffffffffffffffffffffffffffffffffffffffff161415801561374c575061374b8473a0b86991c6218b36c1d19d4a2e9eb0ce3606eb4885613a5a565b5b1561377157600173a0b86991c6218b36c1d19d4a2e9eb0ce3606eb4891509150613898565b73dac17f958d2ee523a2206206994597c13d831ec773ffffffffffffffffffffffffffffffffffffffff168373ffffffffffffffffffffffffffffffffffffffff16141580156137dc57506137db8473dac17f958d2ee523a2206206994597c13d831ec785613a5a565b5b1561380157600173dac17f958d2ee523a2206206994597c13d831ec791509150613898565b736b175474e89094c44da98b954eedeac495271d0f73ffffffffffffffffffffffffffffffffffffffff168373ffffffffffffffffffffffffffffffffffffffff161415801561386c575061386b84736b175474e89094c44da98b954eedeac495271d0f85613a5a565b5b15613891576001736b175474e89094c44da98b954eedeac495271d0f91509150613898565b5f5f915091505b9250929050565b5f5f600267ffffffffffffffff8111156138bc576138bb6143fa565b5b6040519080825280602002602001820160405280156138ea5781602001602082028036833780820191505090505b5090507399d8a9c45b2eca8864373a26d1459e3dff1e17f3815f8151811061391557613914614427565b5b602002602001019073ffffffffffffffffffffffffffffffffffffffff16908173ffffffffffffffffffffffffffffffffffffffff1681525050828160018151811061396457613963614427565b5b602002602001019073ffffffffffffffffffffffffffffffffffffffff16908173ffffffffffffffffffffffffffffffffffffffff16815250508373ffffffffffffffffffffffffffffffffffffffff16631f00ca746001836040518363ffffffff1660e01b81526004016139da929190614f53565b5f60405180830381865afa925050508015613a1757506040513d5f823e3d601f19601f82011682018060405250810190613a149190614eb0565b60015b613a24575f915050613a54565b60028151148015613a4f57505f815f81518110613a4457613a43614427565b5b602002602001015114155b925050505b92915050565b5f5f600367ffffffffffffffff811115613a7757613a766143fa565b5b604051908082528060200260200182016040528015613aa55781602001602082028036833780820191505090505b5090507399d8a9c45b2eca8864373a26d1459e3dff1e17f3815f81518110613ad057613acf614427565b5b602002602001019073ffffffffffffffffffffffffffffffffffffffff16908173ffffffffffffffffffffffffffffffffffffffff16815250508381600181518110613b1f57613b1e614427565b5b602002602001019073ffffffffffffffffffffffffffffffffffffffff16908173ffffffffffffffffffffffffffffffffffffffff16815250508281600281518110613b6e57613b6d614427565b5b602002602001019073ffffffffffffffffffffffffffffffffffffffff16908173ffffffffffffffffffffffffffffffffffffffff16815250508473ffffffffffffffffffffffffffffffffffffffff16631f00ca746001836040518363ffffffff1660e01b8152600401613be4929190614f53565b5f60405180830381865afa925050508015613c2157506040513d5f823e3d601f19601f82011682018060405250810190613c1e9190614eb0565b60015b613c2e575f915050613c5e565b60038151148015613c5957505f815f81518110613c4e57613c4d614427565b5b602002602001015114155b925050505b9392505050565b6101cc80614f8283390190565b61088d8061514e83390190565b5f8115159050919050565b613c9381613c7f565b82525050565b5f602082019050613cac5f830184613c8a565b92915050565b5f604051905090565b5f5ffd5b5f5ffd5b5f73ffffffffffffffffffffffffffffffffffffffff82169050919050565b5f613cec82613cc3565b9050919050565b613cfc81613ce2565b8114613d06575f5ffd5b50565b5f81359050613d1781613cf3565b92915050565b5f819050919050565b613d2f81613d1d565b8114613d39575f5ffd5b50565b5f81359050613d4a81613d26565b92915050565b5f5ffd5b5f5ffd5b5f5ffd5b5f5f83601f840112613d7157613d70613d50565b5b8235905067ffffffffffffffff811115613d8e57613d8d613d54565b5b602083019150836001820283011115613daa57613da9613d58565b5b9250929050565b5f5f5f5f5f60808688031215613dca57613dc9613cbb565b5b5f613dd788828901613d09565b9550506020613de888828901613d3c565b9450506040613df988828901613d3c565b935050606086013567ffffffffffffffff811115613e1a57613e19613cbf565b5b613e2688828901613d5c565b92509250509295509295909350565b5f819050919050565b613e4781613e35565b82525050565b5f602082019050613e605f830184613e3e565b92915050565b613e6f81613d1d565b82525050565b5f602082019050613e885f830184613e66565b92915050565b613e9781613ce2565b82525050565b5f602082019050613eb05f830184613e8e565b92915050565b5f82825260208201905092915050565b7f4f4e4c595f53454c4600000000000000000000000000000000000000000000005f82015250565b5f613efa600983613eb6565b9150613f0582613ec6565b602082019050919050565b5f6020820190508181035f830152613f2781613eee565b9050919050565b7f4e4f5f43414c4c4241434b5f45585045435445440000000000000000000000005f82015250565b5f613f62601483613eb6565b9150613f6d82613f2e565b602082019050919050565b5f6020820190508181035f830152613f8f81613f56565b9050919050565b7f4241445f53454e444552000000000000000000000000000000000000000000005f82015250565b5f613fca600a83613eb6565b9150613fd582613f96565b602082019050919050565b5f6020820190508181035f830152613ff781613fbe565b9050919050565b7f4241445f504149520000000000000000000000000000000000000000000000005f82015250565b5f614032600883613eb6565b915061403d82613ffe565b602082019050919050565b5f6020820190508181035f83015261405f81614026565b9050919050565b7f4e4f5f434f4c4c41544552414c000000000000000000000000000000000000005f82015250565b5f61409a600d83613eb6565b91506140a582614066565b602082019050919050565b5f6020820190508181035f8301526140c78161408e565b9050919050565b5f819050919050565b5f819050919050565b5f6140fa6140f56140f0846140ce565b6140d7565b613d1d565b9050919050565b61410a816140e0565b82525050565b5f60a0820190506141235f830188613e8e565b6141306020830187613e8e565b61413d6040830186613e8e565b61414a6060830185613e66565b6141576080830184614101565b9695505050505050565b5f8151905061416f81613d26565b92915050565b5f5f6040838503121561418b5761418a613cbb565b5b5f61419885828601614161565b92505060206141a985828601614161565b9150509250929050565b7f5a45524f5f5348415245000000000000000000000000000000000000000000005f82015250565b5f6141e7600a83613eb6565b91506141f2826141b3565b602082019050919050565b5f6020820190508181035f830152614214816141db565b9050919050565b5f60608201905061422e5f830186613e8e565b61423b6020830185613c8a565b6142486040830184613e66565b949350505050565b5f6040820190506142635f830185613e8e565b6142706020830184613e66565b9392505050565b5f60a08201905061428a5f830188613e8e565b6142976020830187613e8e565b6142a46040830186613e8e565b6142b16060830185614101565b6142be6080830184613e66565b9695505050505050565b5f602082840312156142dd576142dc613cbb565b5b5f6142ea84828501614161565b91505092915050565b5f8151905061430181613cf3565b92915050565b5f6020828403121561431c5761431b613cbb565b5b5f614329848285016142f3565b91505092915050565b7f554e45585045435445445f4d494d0000000000000000000000000000000000005f82015250565b5f614366600e83613eb6565b915061437182614332565b602082019050919050565b5f6020820190508181035f8301526143938161435a565b9050919050565b7f4e487b71000000000000000000000000000000000000000000000000000000005f52601160045260245ffd5b5f6143d182613d1d565b91506143dc83613d1d565b92508282039050818111156143f4576143f361439a565b5b92915050565b7f4e487b71000000000000000000000000000000000000000000000000000000005f52604160045260245ffd5b7f4e487b71000000000000000000000000000000000000000000000000000000005f52603260045260245ffd5b5f81519050919050565b5f82825260208201905092915050565b5f819050602082019050919050565b61448681613ce2565b82525050565b5f614497838361447d565b60208301905092915050565b5f602082019050919050565b5f6144b982614454565b6144c3818561445e565b93506144ce8361446e565b805f5b838110156144fe5781516144e5888261448c565b97506144f0836144a3565b9250506001810190506144d1565b5085935050505092915050565b5f81519050919050565b5f82825260208201905092915050565b5f819050602082019050919050565b61453d81613d1d565b82525050565b5f61454e8383614534565b60208301905092915050565b5f602082019050919050565b5f6145708261450b565b61457a8185614515565b935061458583614525565b805f5b838110156145b557815161459c8882614543565b97506145a78361455a565b925050600181019050614588565b5085935050505092915050565b5f6145dc6145d76145d284613cc3565b6140d7565b613cc3565b9050919050565b5f6145ed826145c2565b9050919050565b5f6145fe826145e3565b9050919050565b61460e816145f4565b82525050565b5f82825260208201905092915050565b50565b5f6146325f83614614565b915061463d82614624565b5f82019050919050565b5f60a0820190508181035f83015261465f81876144af565b905081810360208301526146738186614566565b90506146826040830185613e8e565b61468f6060830184614605565b81810360808301526146a081614627565b905095945050505050565b6146b481613c7f565b81146146be575f5ffd5b50565b5f815190506146cf816146ab565b92915050565b5f5f604083850312156146eb576146ea613cbb565b5b5f6146f8858286016146c1565b925050602061470985828601614161565b9150509250929050565b7f01000000000000000000000000000000000000000000000000000000000000005f82015250565b5f614747600183614614565b915061475282614713565b602082019050919050565b5f6080820190506147705f830186613e66565b61477d6020830185614101565b61478a6040830184613e8e565b818103606083015261479b8161473b565b9050949350505050565b5f6080820190506147b85f830186614101565b6147c56020830185613e66565b6147d26040830184613e8e565b81810360608301526147e38161473b565b9050949350505050565b5f60ff82169050919050565b5f61481361480e614809846140ce565b6140d7565b6147ed565b9050919050565b614823816147f9565b82525050565b5f60408201905061483c5f830185613e8e565b614849602083018461481a565b9392505050565b5f6dffffffffffffffffffffffffffff82169050919050565b61487281614850565b811461487c575f5ffd5b50565b5f8151905061488d81614869565b92915050565b5f63ffffffff82169050919050565b6148ab81614893565b81146148b5575f5ffd5b50565b5f815190506148c6816148a2565b92915050565b5f5f5f606084860312156148e3576148e2613cbb565b5b5f6148f08682870161487f565b93505060206149018682870161487f565b9250506040614912868287016148b8565b9150509250925092565b7f4e4f5f4e45545f50524f464954000000000000000000000000000000000000005f82015250565b5f614950600d83613eb6565b915061495b8261491c565b602082019050919050565b5f6020820190508181035f83015261497d81614944565b9050919050565b5f60a0820190506149975f830188613e8e565b6149a46020830187613e8e565b6149b16040830186613e8e565b6149be6060830185613e66565b6149cb6080830184613e66565b9695505050505050565b5f602082840312156149ea576149e9613cbb565b5b5f6149f7848285016146c1565b91505092915050565b5f6fffffffffffffffffffffffffffffffff82169050919050565b614a2481614a00565b8114614a2e575f5ffd5b50565b5f81519050614a3f81614a1b565b92915050565b5f5f60408385031215614a5b57614a5a613cbb565b5b5f614a6885828601614a31565b9250506020614a7985828601614a31565b9150509250929050565b5f614a8d82614a00565b9150614a9883614a00565b925082820390506fffffffffffffffffffffffffffffffff811115614ac057614abf61439a565b5b92915050565b5f614ad082613d1d565b9150614adb83613d1d565b9250828202614ae981613d1d565b91508282048414831517614b0057614aff61439a565b5b5092915050565b7f4e487b71000000000000000000000000000000000000000000000000000000005f52601260045260245ffd5b5f614b3e82613d1d565b9150614b4983613d1d565b925082614b5957614b58614b07565b5b828204905092915050565b5f819050919050565b5f614b87614b82614b7d84614b64565b6140d7565b613d1d565b9050919050565b614b9781614b6d565b82525050565b5f606082019050614bb05f830186613e8e565b614bbd6020830185614b8e565b614bca6040830184613c8a565b949350505050565b5f81519050919050565b5f81905092915050565b8281835e5f83830152505050565b5f614bfe82614bd2565b614c088185614bdc565b9350614c18818560208601614be6565b80840191505092915050565b5f614c2f8284614bf4565b915081905092915050565b7f544f4b454e5f43414c4c5f4641494c45440000000000000000000000000000005f82015250565b5f614c6e601183613eb6565b9150614c7982614c3a565b602082019050919050565b5f6020820190508181035f830152614c9b81614c62565b9050919050565b7f4241445f52455041595f51554f544500000000000000000000000000000000005f82015250565b5f614cd6600f83613eb6565b9150614ce182614ca2565b602082019050919050565b5f6020820190508181035f830152614d0381614cca565b9050919050565b5f614d1482613d1d565b9150614d1f83613d1d565b9250828201905080821115614d3757614d3661439a565b5b92915050565b5f60a082019050614d505f830188613e66565b614d5d6020830187613e66565b8181036040830152614d6f81866144af565b9050614d7e6060830185613e8e565b614d8b6080830184613e66565b9695505050505050565b5f601f19601f8301169050919050565b614dae82614d95565b810181811067ffffffffffffffff82111715614dcd57614dcc6143fa565b5b80604052505050565b5f614ddf613cb2565b9050614deb8282614da5565b919050565b5f67ffffffffffffffff821115614e0a57614e096143fa565b5b602082029050602081019050919050565b5f614e2d614e2884614df0565b614dd6565b90508083825260208201905060208402830185811115614e5057614e4f613d58565b5b835b81811015614e795780614e658882614161565b845260208401935050602081019050614e52565b5050509392505050565b5f82601f830112614e9757614e96613d50565b5b8151614ea7848260208601614e1b565b91505092915050565b5f60208284031215614ec557614ec4613cbb565b5b5f82015167ffffffffffffffff811115614ee257614ee1613cbf565b5b614eee84828501614e83565b91505092915050565b5f604082019050614f0a5f830185613e8e565b614f176020830184613e8e565b9392505050565b5f606082019050614f315f830186613e8e565b614f3e6020830185613e66565b614f4b6040830184613c8a565b949350505050565b5f604082019050614f665f830185614b8e565b8181036020830152614f7881846144af565b9050939250505056fe6080604052348015600e575f5ffd5b506101b08061001c5f395ff3fe608060405234801561000f575f5ffd5b5060043610610029575f3560e01c8063d6d7d5251461002d575b5f5ffd5b610047600480360381019061004291906100d6565b61005e565b604051610055929190610153565b60405180910390f35b5f5f5f5f915091509250929050565b5f5ffd5b5f5ffd5b5f5ffd5b5f5ffd5b5f5ffd5b5f5f83601f84011261009657610095610075565b5b8235905067ffffffffffffffff8111156100b3576100b2610079565b5b6020830191508360018202830111156100cf576100ce61007d565b5b9250929050565b5f5f602083850312156100ec576100eb61006d565b5b5f83013567ffffffffffffffff81111561010957610108610071565b5b61011585828601610081565b92509250509250929050565b5f8115159050919050565b61013581610121565b82525050565b5f819050919050565b61014d8161013b565b82525050565b5f6040820190506101665f83018561012c565b6101736020830184610144565b939250505056fea264697066735822122020cb475d4f7318f98ef8acb4efc314f7e6442de46b391cbc4905b32af022ddb464736f6c634300081e0033610120604052348015610010575f5ffd5b5060405161088d38038061088d8339818101604052810190610032919061017a565b8473ffffffffffffffffffffffffffffffffffffffff1660808173ffffffffffffffffffffffffffffffffffffffff16815250508373ffffffffffffffffffffffffffffffffffffffff1660a08173ffffffffffffffffffffffffffffffffffffffff16815250508273ffffffffffffffffffffffffffffffffffffffff1660c08173ffffffffffffffffffffffffffffffffffffffff16815250508160e0818152505080610100818152505050505050506101f1565b5f5ffd5b5f73ffffffffffffffffffffffffffffffffffffffff82169050919050565b5f610116826100ed565b9050919050565b6101268161010c565b8114610130575f5ffd5b50565b5f815190506101418161011d565b92915050565b5f819050919050565b61015981610147565b8114610163575f5ffd5b50565b5f8151905061017481610150565b92915050565b5f5f5f5f5f60a08688031215610193576101926100e9565b5b5f6101a088828901610133565b95505060206101b188828901610133565b94505060406101c288828901610133565b93505060606101d388828901610166565b92505060806101e488828901610166565b9150509295509295909350565b60805160a05160c05160e051610100516106586102355f395f61020201525f61022601525f81816101ba01526102d701525f6101de01525f61024a01526106585ff3fe608060405234801561000f575f5ffd5b5060043610610091575f3560e01c80639b352ae1116100645780639b352ae11461010d578063aba024f41461012b578063c7ee2a7b14610149578063d8dfeb4514610167578063e1c7392a1461018557610091565b8063158ef93e146100955780633ba0b9a9146100b357806375587d3c146100d15780637dc0d1d0146100ef575b5f5ffd5b61009d61018f565b6040516100aa91906103ad565b60405180910390f35b6100bb6101a0565b6040516100c891906103de565b60405180910390f35b6100d96101a6565b6040516100e691906103ad565b60405180910390f35b6100f76101b8565b6040516101049190610471565b60405180910390f35b6101156101dc565b60405161012291906104aa565b60405180910390f35b610133610200565b60405161014091906103de565b60405180910390f35b610151610224565b60405161015e91906103de565b60405180910390f35b61016f610248565b60405161017c91906104aa565b60405180910390f35b61018d61026c565b005b5f5f9054906101000a900460ff1681565b60015481565b5f60019054906101000a900460ff1681565b7f000000000000000000000000000000000000000000000000000000000000000081565b7f000000000000000000000000000000000000000000000000000000000000000081565b7f000000000000000000000000000000000000000000000000000000000000000081565b7f000000000000000000000000000000000000000000000000000000000000000081565b7f000000000000000000000000000000000000000000000000000000000000000081565b5f5f9054906101000a900460ff16156102ba576040517f08c379a00000000000000000000000000000000000000000000000000000000081526004016102b19061051d565b60405180910390fd5b60015f5f6101000a81548160ff0219169083151502179055505f5f7f000000000000000000000000000000000000000000000000000000000000000073ffffffffffffffffffffffffffffffffffffffff1663d6d7d5256040518163ffffffff1660e01b815260040161032c9061056e565b60408051808303815f875af1158015610347573d5f5f3e3d5ffd5b505050506040513d601f19601f8201168201806040525081019061036b91906105e4565b91509150815f60016101000a81548160ff021916908315150217905550806001819055505050565b5f8115159050919050565b6103a781610393565b82525050565b5f6020820190506103c05f83018461039e565b92915050565b5f819050919050565b6103d8816103c6565b82525050565b5f6020820190506103f15f8301846103cf565b92915050565b5f73ffffffffffffffffffffffffffffffffffffffff82169050919050565b5f819050919050565b5f61043961043461042f846103f7565b610416565b6103f7565b9050919050565b5f61044a8261041f565b9050919050565b5f61045b82610440565b9050919050565b61046b81610451565b82525050565b5f6020820190506104845f830184610462565b92915050565b5f610494826103f7565b9050919050565b6104a48161048a565b82525050565b5f6020820190506104bd5f83018461049b565b92915050565b5f82825260208201905092915050565b7f414c52454144595f494e495449414c495a4544000000000000000000000000005f82015250565b5f6105076013836104c3565b9150610512826104d3565b602082019050919050565b5f6020820190508181035f830152610534816104fb565b9050919050565b5f82825260208201905092915050565b50565b5f6105595f8361053b565b91506105648261054b565b5f82019050919050565b5f6020820190508181035f8301526105858161054e565b9050919050565b5f5ffd5b61059981610393565b81146105a3575f5ffd5b50565b5f815190506105b481610590565b92915050565b6105c3816103c6565b81146105cd575f5ffd5b50565b5f815190506105de816105ba565b92915050565b5f5f604083850312156105fa576105f961058c565b5b5f610607858286016105a6565b9250506020610618858286016105d0565b915050925092905056fea264697066735822122037596b39d2010b6db95c7268a6f839045535e30060865f73f0f8b0ee91459f0d64736f6c634300081e0033a26469706673582212205be36c94c23e988fe49867cb214ddeb2291a878f0cd2e7b4dac8a49b6e7a832a64736f6c634300081e0033","linkReferences":{}},"methodIdentifiers":{"MIM()":"daec383d","TARGET_CAULDRON()":"bd7a598c","attemptLiveTarget()":"072d5e47","attemptValidationPath()":"3a634811","bentoBox()":"6b2ace87","borrowSucceeded()":"c5d948e7","collateralToken()":"b2016bd4","executeOnOpportunity()":"3c2448ed","initAcceptedFailedOracleRead()":"c5bd196f","liquidationBlocked()":"b7021f77","liveTargetAttempted()":"00a4c064","liveTargetCachedZeroObserved()":"4f8d51ce","liveTargetInitializationStageInfeasible()":"4686aeb0","liveTargetProfitable()":"86e8a1a2","probeLiveLiquidation()":"f10a3d81","profitAmount()":"5ff972cc","profitToken()":"49343624","status()":"200d2ed2","uniswapV2Call(address,uint256,uint256,bytes)":"10d1e85c","validationCauldron()":"86316ffb","validationOracle()":"983dae11"},"id":0}