{"abi":[{"type":"constructor","inputs":[],"stateMutability":"nonpayable"},{"type":"receive","stateMutability":"payable"},{"type":"function","name":"executeOnOpportunity","inputs":[],"outputs":[],"stateMutability":"nonpayable"},{"type":"function","name":"previewAmount","inputs":[],"outputs":[{"name":"","type":"uint256","internalType":"uint256"}],"stateMutability":"view"},{"type":"function","name":"profitAmount","inputs":[],"outputs":[{"name":"","type":"uint256","internalType":"uint256"}],"stateMutability":"view"},{"type":"function","name":"profitToken","inputs":[],"outputs":[{"name":"","type":"address","internalType":"address"}],"stateMutability":"pure"}],"bytecode":{"object":"0x608080604052346015576106d5908161001a8239f35b5f80fdfe6080604052600436101561001a575b3615610018575f80fd5b005b5f3560e01c80633c2448ed146100ba578063493436241461008c5780635ff972cc146100705763dbcb80600361000e573461006c575f36600319011261006c57602061006461055f565b604051908152f35b5f80fd5b3461006c575f36600319011261006c5760205f54604051908152f35b3461006c575f36600319011261006c5760206040517368bbed6a47194eff1cf514b50ea91895597fc91e8152f35b3461006c575f36600319011261006c576100d261055f565b80156104a8576040516060810181811067ffffffffffffffff821117610494576040525f8152602081015f815260408201925f845260409283519161011785846104f8565b60018352601f1985015f5b8181106104835750506101d66101c8918651906323b872dd60e01b602083015273382ffce2287252f930e1c8dc9328dac5bf282ba160248301523060448301526064820152606481526101766084826104f8565b86516338c9c14760e01b60208201525f6024820181905261271060448301527368bbed6a47194eff1cf514b50ea91895597fc91e6064830152608482015260a060a482015292839160c483019061053b565b03601f1981018352826104f8565b6101df8361051a565b526101e98261051a565b5083516370a0823160e01b8152306004820152946020866024817368bbed6a47194eff1cf514b50ea91895597fc91e5afa958615610479575f96610445575b508451631fff991f60e01b815291516001600160a01b039081166004840152935190931660248201529151604483015260a06064830152805160a4830181905260c4600582901b840181019284926020909101915f9084015b8282106104185750505050806020925f608483015203815f73df31a70a21a1931e02033dbba7deace6c45cfd0f5af190811561040e575f916103d3575b50156103975780516370a0823160e01b8152306004820152906020826024817368bbed6a47194eff1cf514b50ea91895597fc91e5afa91821561038d575f92610359575b50828211156103165750035f54015f555f80f35b5162461bcd60e51b815260206004820152601860248201527f6e6f20746f6b656e2070726f666974207265616c697a656400000000000000006044820152606490fd5b9091506020813d602011610385575b81610375602093836104f8565b8101031261006c57519083610302565b3d9150610368565b50513d5f823e3d90fd5b5162461bcd60e51b8152602060048201526016602482015275736574746c65722072657475726e65642066616c736560501b6044820152606490fd5b90506020813d602011610406575b816103ee602093836104f8565b8101031261006c5751801515810361006c57836102be565b3d91506103e1565b82513d5f823e3d90fd5b919350919360208061043660019360c3198a8203018652885161053b565b96019201920185939192610281565b9095506020813d602011610471575b81610461602093836104f8565b8101031261006c57519486610228565b3d9150610454565b85513d5f823e3d90fd5b806060602080938801015201610122565b634e487b7160e01b5f52604160045260245ffd5b60405162461bcd60e51b815260206004820152602260248201527f6e6f20617070726f7665642076696374696d2062616c616e636520617420666f604482015261726b60f01b6064820152608490fd5b90601f8019910116810190811067ffffffffffffffff82111761049457604052565b8051156105275760200190565b634e487b7160e01b5f52603260045260245ffd5b805180835260209291819084018484015e5f828201840152601f01601f1916010190565b6040516370a0823160e01b815273382ffce2287252f930e1c8dc9328dac5bf282ba160048201526020816024817368bbed6a47194eff1cf514b50ea91895597fc91e5afa908115610662575f9161066d575b50604051636eb1769f60e11b815273382ffce2287252f930e1c8dc9328dac5bf282ba1600482015273df31a70a21a1931e02033dbba7deace6c45cfd0f60248201526020816044817368bbed6a47194eff1cf514b50ea91895597fc91e5afa908115610662575f91610630575b508082101561062b575090565b905090565b90506020813d60201161065a575b8161064b602093836104f8565b8101031261006c57515f61061e565b3d915061063e565b6040513d5f823e3d90fd5b90506020813d602011610697575b81610688602093836104f8565b8101031261006c57515f6105b1565b3d915061067b56fea26469706673582212207c2fbc2d1d664ff6c58cbb4df36328eadbe7c99f5c5ff7bbe2e00db0c24d635364736f6c634300081e0033","linkReferences":{}},"methodIdentifiers":{"executeOnOpportunity()":"3c2448ed","previewAmount()":"dbcb8060","profitAmount()":"5ff972cc","profitToken()":"49343624"},"id":0}