{"abi":[{"type":"constructor","inputs":[],"stateMutability":"nonpayable"},{"type":"receive","stateMutability":"payable"},{"type":"function","name":"DAI","inputs":[],"outputs":[{"name":"","type":"address","internalType":"address"}],"stateMutability":"view"},{"type":"function","name":"SUSHISWAP_FACTORY","inputs":[],"outputs":[{"name":"","type":"address","internalType":"address"}],"stateMutability":"view"},{"type":"function","name":"TARGET","inputs":[],"outputs":[{"name":"","type":"address","internalType":"address"}],"stateMutability":"view"},{"type":"function","name":"UNISWAP_V2_FACTORY","inputs":[],"outputs":[{"name":"","type":"address","internalType":"address"}],"stateMutability":"view"},{"type":"function","name":"USDC","inputs":[],"outputs":[{"name":"","type":"address","internalType":"address"}],"stateMutability":"view"},{"type":"function","name":"USDT","inputs":[],"outputs":[{"name":"","type":"address","internalType":"address"}],"stateMutability":"view"},{"type":"function","name":"WETH","inputs":[],"outputs":[{"name":"","type":"address","internalType":"address"}],"stateMutability":"view"},{"type":"function","name":"_attemptForcedDeposit","inputs":[{"name":"chosenAmount","type":"uint256","internalType":"uint256"}],"outputs":[],"stateMutability":"nonpayable"},{"type":"function","name":"_attemptForcedWithdraw","inputs":[{"name":"chosenAmount","type":"uint256","internalType":"uint256"},{"name":"shareAmount","type":"uint256","internalType":"uint256"}],"outputs":[],"stateMutability":"nonpayable"},{"type":"function","name":"_runFlashswap","inputs":[{"name":"seedWeth","type":"uint256","internalType":"uint256"}],"outputs":[],"stateMutability":"nonpayable"},{"type":"function","name":"attempted","inputs":[],"outputs":[{"name":"","type":"bool","internalType":"bool"}],"stateMutability":"view"},{"type":"function","name":"executeOnOpportunity","inputs":[],"outputs":[],"stateMutability":"nonpayable"},{"type":"function","name":"profitAmount","inputs":[],"outputs":[{"name":"","type":"uint256","internalType":"uint256"}],"stateMutability":"view"},{"type":"function","name":"profitToken","inputs":[],"outputs":[{"name":"","type":"address","internalType":"address"}],"stateMutability":"pure"},{"type":"function","name":"uniswapV2Call","inputs":[{"name":"sender","type":"address","internalType":"address"},{"name":"amount0","type":"uint256","internalType":"uint256"},{"name":"amount1","type":"uint256","internalType":"uint256"},{"name":"data","type":"bytes","internalType":"bytes"}],"outputs":[],"stateMutability":"nonpayable"}],"bytecode":{"object":"0x6080604052348015600e575f5ffd5b50612e058061001c5f395ff3fe6080604052600436106100eb575f3560e01c806389a3027111610089578063c54e44eb11610058578063c54e44eb146102aa578063cc1f2afa146102d4578063e0bab4c4146102fe578063f6251ca614610328576100f2565b806389a3027114610202578063917f51b41461022c57806399d8fae314610256578063ad5c464814610280576100f2565b806349343624116100c5578063493436241461015c578063495c0f9b146101865780635ff972cc146101b057806360eaf3db146101da576100f2565b806310d1e85c146100f65780633c2448ed1461011e57806342f422f014610134576100f2565b366100f257005b5f5ffd5b348015610101575f5ffd5b5061011c6004803603810190610117919061214c565b610350565b005b348015610129575f5ffd5b50610132610820565b005b34801561013f575f5ffd5b5061015a600480360381019061015591906121d0565b6109c3565b005b348015610167575f5ffd5b50610170610d20565b60405161017d919061220a565b60405180910390f35b348015610191575f5ffd5b5061019a610d3b565b6040516101a7919061220a565b60405180910390f35b3480156101bb575f5ffd5b506101c4610d53565b6040516101d19190612232565b60405180910390f35b3480156101e5575f5ffd5b5061020060048036038101906101fb91906121d0565b610d5c565b005b34801561020d575f5ffd5b50610216610e0c565b604051610223919061220a565b60405180910390f35b348015610237575f5ffd5b50610240610e24565b60405161024d9190612265565b60405180910390f35b348015610261575f5ffd5b5061026a610e35565b604051610277919061220a565b60405180910390f35b34801561028b575f5ffd5b50610294610e4d565b6040516102a1919061220a565b60405180910390f35b3480156102b5575f5ffd5b506102be610e65565b6040516102cb919061220a565b60405180910390f35b3480156102df575f5ffd5b506102e8610e7d565b6040516102f5919061220a565b60405180910390f35b348015610309575f5ffd5b50610312610e95565b60405161031f919061220a565b60405180910390f35b348015610333575f5ffd5b5061034e6004803603810190610349919061227e565b610ead565b005b60025f9054906101000a900473ffffffffffffffffffffffffffffffffffffffff1673ffffffffffffffffffffffffffffffffffffffff163373ffffffffffffffffffffffffffffffffffffffff16146103df576040517f08c379a00000000000000000000000000000000000000000000000000000000081526004016103d690612316565b60405180910390fd5b3073ffffffffffffffffffffffffffffffffffffffff168573ffffffffffffffffffffffffffffffffffffffff161461044d576040517f08c379a00000000000000000000000000000000000000000000000000000000081526004016104449061237e565b60405180910390fd5b5f5f851161045b578361045d565b845b90505f838381019061046f91906121d0565b90508082148015610481575060035482145b6104c0576040517f08c379a00000000000000000000000000000000000000000000000000000000081526004016104b7906123e6565b60405180910390fd5b5f73e39fd820b58f83205db1d9225f28105971c3d30990505f8173ffffffffffffffffffffffffffffffffffffffff1663647a51dd6040518163ffffffff1660e01b8152600401602060405180830381865afa158015610522573d5f5f3e3d5ffd5b505050506040513d601f19601f820116820180604052508101906105469190612418565b905073c02aaa39b223fe8d0a0e5c4f27ead9083c756cc273ffffffffffffffffffffffffffffffffffffffff16632e1a7d4d846040518263ffffffff1660e01b81526004016105959190612232565b5f604051808303815f87803b1580156105ac575f5ffd5b505af11580156105be573d5f5f3e3d5ffd5b505050508173ffffffffffffffffffffffffffffffffffffffff1663b6b55f2584856040518363ffffffff1660e01b81526004016105fc9190612232565b5f604051808303818588803b158015610613575f5ffd5b505af1158015610625573d5f5f3e3d5ffd5b50505050505f8173ffffffffffffffffffffffffffffffffffffffff166370a08231306040518263ffffffff1660e01b8152600401610664919061220a565b602060405180830381865afa15801561067f573d5f5f3e3d5ffd5b505050506040513d601f19601f820116820180604052508101906106a39190612457565b90505f81116106e7576040517f08c379a00000000000000000000000000000000000000000000000000000000081526004016106de906124cc565b60405180910390fd5b6106f18382611180565b610730576040517f08c379a000000000000000000000000000000000000000000000000000000000815260040161072790612534565b60405180910390fd5b5f61073a856112cf565b9050610745816112fe565b73c02aaa39b223fe8d0a0e5c4f27ead9083c756cc273ffffffffffffffffffffffffffffffffffffffff1663a9059cbb33836040518363ffffffff1660e01b8152600401610794929190612552565b6020604051808303815f875af11580156107b0573d5f5f3e3d5ffd5b505050506040513d601f19601f820116820180604052508101906107d491906125a3565b610813576040517f08c379a000000000000000000000000000000000000000000000000000000000815260040161080a90612618565b60405180910390fd5b5050505050505050505050565b5f5f9054906101000a900460ff166109c15760015f5f6101000a81548160ff0219169083151502179055505f610854611463565b90505f73e39fd820b58f83205db1d9225f28105971c3d309905061087781611500565b505f6040518060e00160405280666a94d74f430000815260200167016345785d8a00008152602001670429d069189e00008152602001670de0b6b3a764000081526020016729a2241af62c00008152602001678ac7230489e8000081526020016801a055690d9db8000081525090505f5f90505b600781101561098d573073ffffffffffffffffffffffffffffffffffffffff166342f422f083836007811061092357610922612636565b5b60200201516040518263ffffffff1660e01b81526004016109449190612232565b5f604051808303815f87803b15801561095b575f5ffd5b505af192505050801561096c575060015b15610980578361097a611463565b1161098d575b80806001019150506108eb565b50610996611596565b5f61099f611463565b9050838111156109bc5783816109b59190612690565b6001819055505b505050505b565b3073ffffffffffffffffffffffffffffffffffffffff163373ffffffffffffffffffffffffffffffffffffffff1614610a31576040517f08c379a0000000000000000000000000000000000000000000000000000000008152600401610a289061270d565b60405180910390fd5b5f8111610a73576040517f08c379a0000000000000000000000000000000000000000000000000000000008152600401610a6a90612775565b60405180910390fd5b5f610a7c611617565b90505f73ffffffffffffffffffffffffffffffffffffffff168173ffffffffffffffffffffffffffffffffffffffff1603610aec576040517f08c379a0000000000000000000000000000000000000000000000000000000008152600401610ae3906127dd565b60405180910390fd5b8060025f6101000a81548173ffffffffffffffffffffffffffffffffffffffff021916908373ffffffffffffffffffffffffffffffffffffffff160217905550816003819055505f8173ffffffffffffffffffffffffffffffffffffffff16630dfe16816040518163ffffffff1660e01b8152600401602060405180830381865afa158015610b7d573d5f5f3e3d5ffd5b505050506040513d601f19601f82011682018060405250810190610ba19190612418565b90505f73c02aaa39b223fe8d0a0e5c4f27ead9083c756cc273ffffffffffffffffffffffffffffffffffffffff168273ffffffffffffffffffffffffffffffffffffffff1614610bf1575f610bf3565b835b90505f73c02aaa39b223fe8d0a0e5c4f27ead9083c756cc273ffffffffffffffffffffffffffffffffffffffff168373ffffffffffffffffffffffffffffffffffffffff1614610c435784610c45565b5f5b90508373ffffffffffffffffffffffffffffffffffffffff1663022c0d9f83833089604051602001610c779190612232565b6040516020818303038152906040526040518563ffffffff1660e01b8152600401610ca5949392919061286b565b5f604051808303815f87803b158015610cbc575f5ffd5b505af1158015610cce573d5f5f3e3d5ffd5b505050505f60025f6101000a81548173ffffffffffffffffffffffffffffffffffffffff021916908373ffffffffffffffffffffffffffffffffffffffff1602179055505f6003819055505050505050565b5f73c02aaa39b223fe8d0a0e5c4f27ead9083c756cc2905090565b73c0aee478e3658e2610c5f7a4a2e1777ce9e4f2ac81565b5f600154905090565b3073ffffffffffffffffffffffffffffffffffffffff163373ffffffffffffffffffffffffffffffffffffffff1614610dca576040517f08c379a0000000000000000000000000000000000000000000000000000000008152600401610dc19061270d565b60405180910390fd5b610e09816040518060400160405280600381526020017f3078310000000000000000000000000000000000000000000000000000000000815250611b6b565b50565b73a0b86991c6218b36c1d19d4a2e9eb0ce3606eb4881565b5f5f9054906101000a900460ff1681565b735c69bee701ef814a2b6a3edd4b1652cb9cc5aa6f81565b73c02aaa39b223fe8d0a0e5c4f27ead9083c756cc281565b73dac17f958d2ee523a2206206994597c13d831ec781565b73e39fd820b58f83205db1d9225f28105971c3d30981565b736b175474e89094c44da98b954eedeac495271d0f81565b3073ffffffffffffffffffffffffffffffffffffffff163373ffffffffffffffffffffffffffffffffffffffff1614610f1b576040517f08c379a0000000000000000000000000000000000000000000000000000000008152600401610f129061270d565b60405180910390fd5b5f73e39fd820b58f83205db1d9225f28105971c3d30990505f8173ffffffffffffffffffffffffffffffffffffffff1663647a51dd6040518163ffffffff1660e01b8152600401602060405180830381865afa158015610f7d573d5f5f3e3d5ffd5b505050506040513d601f19601f82011682018060405250810190610fa19190612418565b90505f8311801561102957508073ffffffffffffffffffffffffffffffffffffffff166370a08231306040518263ffffffff1660e01b8152600401610fe6919061220a565b602060405180830381865afa158015611001573d5f5f3e3d5ffd5b505050506040513d601f19601f820116820180604052508101906110259190612457565b8311155b611068576040517f08c379a000000000000000000000000000000000000000000000000000000000815260040161105f906128ff565b60405180910390fd5b6110a7846040518060400160405280600381526020017f3078320000000000000000000000000000000000000000000000000000000000815250611b6b565b5f73e39fd820b58f83205db1d9225f28105971c3d30973ffffffffffffffffffffffffffffffffffffffff163111611114576040517f08c379a000000000000000000000000000000000000000000000000000000000815260040161110b90612967565b60405180910390fd5b8173ffffffffffffffffffffffffffffffffffffffff16632e1a7d4d846040518263ffffffff1660e01b815260040161114d9190612232565b5f604051808303815f87803b158015611164575f5ffd5b505af1158015611176573d5f5f3e3d5ffd5b5050505050505050565b5f5f8373ffffffffffffffffffffffffffffffffffffffff166314a6bf0f6040518163ffffffff1660e01b8152600401602060405180830381865afa1580156111cb573d5f5f3e3d5ffd5b505050506040513d601f19601f820116820180604052508101906111ef9190612457565b905060018111611202575f9150506112c9565b5f60028261121091906129b2565b90505f8114806112205750818110155b15611235576001826112329190612690565b90505b5f81148061124257508181115b15611251575f925050506112c9565b3073ffffffffffffffffffffffffffffffffffffffff1663f6251ca682866040518363ffffffff1660e01b815260040161128c9291906129e2565b5f604051808303815f87803b1580156112a3575f5ffd5b505af19250505080156112b4575060015b6112c2575f925050506112c9565b6001925050505b92915050565b5f60016103e56103e8846112e39190612a09565b6112ed91906129b2565b6112f79190612a4a565b9050919050565b5f73c02aaa39b223fe8d0a0e5c4f27ead9083c756cc273ffffffffffffffffffffffffffffffffffffffff166370a08231306040518263ffffffff1660e01b815260040161134c919061220a565b602060405180830381865afa158015611367573d5f5f3e3d5ffd5b505050506040513d601f19601f8201168201806040525081019061138b9190612457565b905081811061139a5750611460565b5f81836113a79190612690565b9050804710156113ec576040517f08c379a00000000000000000000000000000000000000000000000000000000081526004016113e390612ac7565b60405180910390fd5b73c02aaa39b223fe8d0a0e5c4f27ead9083c756cc273ffffffffffffffffffffffffffffffffffffffff1663d0e30db0826040518263ffffffff1660e01b81526004015f604051808303818588803b158015611446575f5ffd5b505af1158015611458573d5f5f3e3d5ffd5b505050505050505b50565b5f4773c02aaa39b223fe8d0a0e5c4f27ead9083c756cc273ffffffffffffffffffffffffffffffffffffffff166370a08231306040518263ffffffff1660e01b81526004016114b2919061220a565b602060405180830381865afa1580156114cd573d5f5f3e3d5ffd5b505050506040513d601f19601f820116820180604052508101906114f19190612457565b6114fb9190612a4a565b905090565b5f5f61150b83611ec2565b90505f810361151d575f915050611591565b3073ffffffffffffffffffffffffffffffffffffffff166360eaf3db826040518263ffffffff1660e01b81526004016115569190612232565b5f604051808303815f87803b15801561156d575f5ffd5b505af192505050801561157e575060015b61158b575f915050611591565b60019150505b919050565b5f4790505f8111156116145773c02aaa39b223fe8d0a0e5c4f27ead9083c756cc273ffffffffffffffffffffffffffffffffffffffff1663d0e30db0826040518263ffffffff1660e01b81526004015f604051808303818588803b1580156115fc575f5ffd5b505af115801561160e573d5f5f3e3d5ffd5b50505050505b50565b5f735c69bee701ef814a2b6a3edd4b1652cb9cc5aa6f73ffffffffffffffffffffffffffffffffffffffff1663e6a4390573c02aaa39b223fe8d0a0e5c4f27ead9083c756cc273a0b86991c6218b36c1d19d4a2e9eb0ce3606eb486040518363ffffffff1660e01b815260040161168f929190612ae5565b602060405180830381865afa1580156116aa573d5f5f3e3d5ffd5b505050506040513d601f19601f820116820180604052508101906116ce9190612418565b90505f73ffffffffffffffffffffffffffffffffffffffff168173ffffffffffffffffffffffffffffffffffffffff1603611b6857735c69bee701ef814a2b6a3edd4b1652cb9cc5aa6f73ffffffffffffffffffffffffffffffffffffffff1663e6a4390573c02aaa39b223fe8d0a0e5c4f27ead9083c756cc2736b175474e89094c44da98b954eedeac495271d0f6040518363ffffffff1660e01b815260040161177a929190612ae5565b602060405180830381865afa158015611795573d5f5f3e3d5ffd5b505050506040513d601f19601f820116820180604052508101906117b99190612418565b90505f73ffffffffffffffffffffffffffffffffffffffff168173ffffffffffffffffffffffffffffffffffffffff1603611b6857735c69bee701ef814a2b6a3edd4b1652cb9cc5aa6f73ffffffffffffffffffffffffffffffffffffffff1663e6a4390573c02aaa39b223fe8d0a0e5c4f27ead9083c756cc273dac17f958d2ee523a2206206994597c13d831ec76040518363ffffffff1660e01b8152600401611865929190612ae5565b602060405180830381865afa158015611880573d5f5f3e3d5ffd5b505050506040513d601f19601f820116820180604052508101906118a49190612418565b90505f73ffffffffffffffffffffffffffffffffffffffff168173ffffffffffffffffffffffffffffffffffffffff1603611b685773c0aee478e3658e2610c5f7a4a2e1777ce9e4f2ac73ffffffffffffffffffffffffffffffffffffffff1663e6a4390573c02aaa39b223fe8d0a0e5c4f27ead9083c756cc273a0b86991c6218b36c1d19d4a2e9eb0ce3606eb486040518363ffffffff1660e01b8152600401611950929190612ae5565b602060405180830381865afa15801561196b573d5f5f3e3d5ffd5b505050506040513d601f19601f8201168201806040525081019061198f9190612418565b90505f73ffffffffffffffffffffffffffffffffffffffff168173ffffffffffffffffffffffffffffffffffffffff1603611b685773c0aee478e3658e2610c5f7a4a2e1777ce9e4f2ac73ffffffffffffffffffffffffffffffffffffffff1663e6a4390573c02aaa39b223fe8d0a0e5c4f27ead9083c756cc2736b175474e89094c44da98b954eedeac495271d0f6040518363ffffffff1660e01b8152600401611a3b929190612ae5565b602060405180830381865afa158015611a56573d5f5f3e3d5ffd5b505050506040513d601f19601f82011682018060405250810190611a7a9190612418565b90505f73ffffffffffffffffffffffffffffffffffffffff168173ffffffffffffffffffffffffffffffffffffffff1603611b685773c0aee478e3658e2610c5f7a4a2e1777ce9e4f2ac73ffffffffffffffffffffffffffffffffffffffff1663e6a4390573c02aaa39b223fe8d0a0e5c4f27ead9083c756cc273dac17f958d2ee523a2206206994597c13d831ec76040518363ffffffff1660e01b8152600401611b26929190612ae5565b602060405180830381865afa158015611b41573d5f5f3e3d5ffd5b505050506040513d601f19601f82011682018060405250810190611b659190612418565b90505b90565b5f73e39fd820b58f83205db1d9225f28105971c3d309905073c02aaa39b223fe8d0a0e5c4f27ead9083c756cc273ffffffffffffffffffffffffffffffffffffffff168173ffffffffffffffffffffffffffffffffffffffff16633fc8cef36040518163ffffffff1660e01b8152600401602060405180830381865afa158015611bf7573d5f5f3e3d5ffd5b505050506040513d601f19601f82011682018060405250810190611c1b9190612418565b73ffffffffffffffffffffffffffffffffffffffff1614611c71576040517f08c379a0000000000000000000000000000000000000000000000000000000008152600401611c6890612b56565b60405180910390fd5b5f8311611cb3576040517f08c379a0000000000000000000000000000000000000000000000000000000008152600401611caa90612bbe565b60405180910390fd5b5f600167ffffffffffffffff811115611ccf57611cce612bdc565b5b604051908082528060200260200182016040528015611cfd5781602001602082028036833780820191505090505b5090505f600167ffffffffffffffff811115611d1c57611d1b612bdc565b5b604051908082528060200260200182016040528015611d4a5781602001602082028036833780820191505090505b50905073c02aaa39b223fe8d0a0e5c4f27ead9083c756cc2825f81518110611d7557611d74612636565b5b602002602001019073ffffffffffffffffffffffffffffffffffffffff16908173ffffffffffffffffffffffffffffffffffffffff168152505084815f81518110611dc357611dc2612636565b5b6020026020010181815250508273ffffffffffffffffffffffffffffffffffffffff1663e563037e6040518163ffffffff1660e01b8152600401602060405180830381865afa158015611e18573d5f5f3e3d5ffd5b505050506040513d601f19601f82011682018060405250810190611e3c9190612418565b73ffffffffffffffffffffffffffffffffffffffff16635c38449e73e39fd820b58f83205db1d9225f28105971c3d3098484886040518563ffffffff1660e01b8152600401611e8e9493929190612d77565b5f604051808303815f87803b158015611ea5575f5ffd5b505af1158015611eb7573d5f5f3e3d5ffd5b505050505050505050565b5f73c02aaa39b223fe8d0a0e5c4f27ead9083c756cc273ffffffffffffffffffffffffffffffffffffffff168273ffffffffffffffffffffffffffffffffffffffff16633fc8cef36040518163ffffffff1660e01b8152600401602060405180830381865afa158015611f37573d5f5f3e3d5ffd5b505050506040513d601f19601f82011682018060405250810190611f5b9190612418565b73ffffffffffffffffffffffffffffffffffffffff1614611f7e575f9050612051565b5f8273ffffffffffffffffffffffffffffffffffffffff166314a6bf0f6040518163ffffffff1660e01b8152600401602060405180830381865afa158015611fc8573d5f5f3e3d5ffd5b505050506040513d601f19601f82011682018060405250810190611fec9190612457565b90505f810361200557662386f26fc10000915050612051565b5f60148261201391906129b2565b9050662386f26fc1000081101561202f57662386f26fc1000090505b670de0b6b3a764000081111561204b57670de0b6b3a764000090505b80925050505b919050565b5f5ffd5b5f5ffd5b5f73ffffffffffffffffffffffffffffffffffffffff82169050919050565b5f6120878261205e565b9050919050565b6120978161207d565b81146120a1575f5ffd5b50565b5f813590506120b28161208e565b92915050565b5f819050919050565b6120ca816120b8565b81146120d4575f5ffd5b50565b5f813590506120e5816120c1565b92915050565b5f5ffd5b5f5ffd5b5f5ffd5b5f5f83601f84011261210c5761210b6120eb565b5b8235905067ffffffffffffffff811115612129576121286120ef565b5b602083019150836001820283011115612145576121446120f3565b5b9250929050565b5f5f5f5f5f6080868803121561216557612164612056565b5b5f612172888289016120a4565b9550506020612183888289016120d7565b9450506040612194888289016120d7565b935050606086013567ffffffffffffffff8111156121b5576121b461205a565b5b6121c1888289016120f7565b92509250509295509295909350565b5f602082840312156121e5576121e4612056565b5b5f6121f2848285016120d7565b91505092915050565b6122048161207d565b82525050565b5f60208201905061221d5f8301846121fb565b92915050565b61222c816120b8565b82525050565b5f6020820190506122455f830184612223565b92915050565b5f8115159050919050565b61225f8161224b565b82525050565b5f6020820190506122785f830184612256565b92915050565b5f5f6040838503121561229457612293612056565b5b5f6122a1858286016120d7565b92505060206122b2858286016120d7565b9150509250929050565b5f82825260208201905092915050565b7f62616420706169720000000000000000000000000000000000000000000000005f82015250565b5f6123006008836122bc565b915061230b826122cc565b602082019050919050565b5f6020820190508181035f83015261232d816122f4565b9050919050565b7f6261642073656e646572000000000000000000000000000000000000000000005f82015250565b5f612368600a836122bc565b915061237382612334565b602082019050919050565b5f6020820190508181035f8301526123958161235c565b9050919050565b7f62616420626f72726f77000000000000000000000000000000000000000000005f82015250565b5f6123d0600a836122bc565b91506123db8261239c565b602082019050919050565b5f6020820190508181035f8301526123fd816123c4565b9050919050565b5f815190506124128161208e565b92915050565b5f6020828403121561242d5761242c612056565b5b5f61243a84828501612404565b91505092915050565b5f81519050612451816120c1565b92915050565b5f6020828403121561246c5761246b612056565b5b5f61247984828501612443565b91505092915050565b7f6e6f2073686172657300000000000000000000000000000000000000000000005f82015250565b5f6124b66009836122bc565b91506124c182612482565b602082019050919050565b5f6020820190508181035f8301526124e3816124aa565b9050919050565b7f666f7263656420756e77696e64206661696c65640000000000000000000000005f82015250565b5f61251e6014836122bc565b9150612529826124ea565b602082019050919050565b5f6020820190508181035f83015261254b81612512565b9050919050565b5f6040820190506125655f8301856121fb565b6125726020830184612223565b9392505050565b6125828161224b565b811461258c575f5ffd5b50565b5f8151905061259d81612579565b92915050565b5f602082840312156125b8576125b7612056565b5b5f6125c58482850161258f565b91505092915050565b7f7265706179206661696c656400000000000000000000000000000000000000005f82015250565b5f612602600c836122bc565b915061260d826125ce565b602082019050919050565b5f6020820190508181035f83015261262f816125f6565b9050919050565b7f4e487b71000000000000000000000000000000000000000000000000000000005f52603260045260245ffd5b7f4e487b71000000000000000000000000000000000000000000000000000000005f52601160045260245ffd5b5f61269a826120b8565b91506126a5836120b8565b92508282039050818111156126bd576126bc612663565b5b92915050565b7f73656c66206f6e6c7900000000000000000000000000000000000000000000005f82015250565b5f6126f76009836122bc565b9150612702826126c3565b602082019050919050565b5f6020820190508181035f830152612724816126eb565b9050919050565b7f7a65726f207365656400000000000000000000000000000000000000000000005f82015250565b5f61275f6009836122bc565b915061276a8261272b565b602082019050919050565b5f6020820190508181035f83015261278c81612753565b9050919050565b7f6e6f2070616972000000000000000000000000000000000000000000000000005f82015250565b5f6127c76007836122bc565b91506127d282612793565b602082019050919050565b5f6020820190508181035f8301526127f4816127bb565b9050919050565b5f81519050919050565b5f82825260208201905092915050565b8281835e5f83830152505050565b5f601f19601f8301169050919050565b5f61283d826127fb565b6128478185612805565b9350612857818560208601612815565b61286081612823565b840191505092915050565b5f60808201905061287e5f830187612223565b61288b6020830186612223565b61289860408301856121fb565b81810360608301526128aa8184612833565b905095945050505050565b7f62616420736861726573000000000000000000000000000000000000000000005f82015250565b5f6128e9600a836122bc565b91506128f4826128b5565b602082019050919050565b5f6020820190508181035f830152612916816128dd565b9050919050565b7f6e6f20737472616e6465642065746800000000000000000000000000000000005f82015250565b5f612951600f836122bc565b915061295c8261291d565b602082019050919050565b5f6020820190508181035f83015261297e81612945565b9050919050565b7f4e487b71000000000000000000000000000000000000000000000000000000005f52601260045260245ffd5b5f6129bc826120b8565b91506129c7836120b8565b9250826129d7576129d6612985565b5b828204905092915050565b5f6040820190506129f55f830185612223565b612a026020830184612223565b9392505050565b5f612a13826120b8565b9150612a1e836120b8565b9250828202612a2c816120b8565b91508282048414831517612a4357612a42612663565b5b5092915050565b5f612a54826120b8565b9150612a5f836120b8565b9250828201905080821115612a7757612a76612663565b5b92915050565b7f696e73756666696369656e7420657468000000000000000000000000000000005f82015250565b5f612ab16010836122bc565b9150612abc82612a7d565b602082019050919050565b5f6020820190508181035f830152612ade81612aa5565b9050919050565b5f604082019050612af85f8301856121fb565b612b0560208301846121fb565b9392505050565b7f756e6578706563746564207765746800000000000000000000000000000000005f82015250565b5f612b40600f836122bc565b9150612b4b82612b0c565b602082019050919050565b5f6020820190508181035f830152612b6d81612b34565b9050919050565b7f7a65726f20616d6f756e740000000000000000000000000000000000000000005f82015250565b5f612ba8600b836122bc565b9150612bb382612b74565b602082019050919050565b5f6020820190508181035f830152612bd581612b9c565b9050919050565b7f4e487b71000000000000000000000000000000000000000000000000000000005f52604160045260245ffd5b5f81519050919050565b5f82825260208201905092915050565b5f819050602082019050919050565b612c3b8161207d565b82525050565b5f612c4c8383612c32565b60208301905092915050565b5f602082019050919050565b5f612c6e82612c09565b612c788185612c13565b9350612c8383612c23565b805f5b83811015612cb3578151612c9a8882612c41565b9750612ca583612c58565b925050600181019050612c86565b5085935050505092915050565b5f81519050919050565b5f82825260208201905092915050565b5f819050602082019050919050565b612cf2816120b8565b82525050565b5f612d038383612ce9565b60208301905092915050565b5f602082019050919050565b5f612d2582612cc0565b612d2f8185612cca565b9350612d3a83612cda565b805f5b83811015612d6a578151612d518882612cf8565b9750612d5c83612d0f565b925050600181019050612d3d565b5085935050505092915050565b5f608082019050612d8a5f8301876121fb565b8181036020830152612d9c8186612c64565b90508181036040830152612db08185612d1b565b90508181036060830152612dc48184612833565b90509594505050505056fea264697066735822122046c0b30811adff49d3cd67ad65224f477530bee2b8f26c2c27fb6e10d112ef3364736f6c634300081e0033","linkReferences":{}},"methodIdentifiers":{"DAI()":"e0bab4c4","SUSHISWAP_FACTORY()":"495c0f9b","TARGET()":"cc1f2afa","UNISWAP_V2_FACTORY()":"99d8fae3","USDC()":"89a30271","USDT()":"c54e44eb","WETH()":"ad5c4648","_attemptForcedDeposit(uint256)":"60eaf3db","_attemptForcedWithdraw(uint256,uint256)":"f6251ca6","_runFlashswap(uint256)":"42f422f0","attempted()":"917f51b4","executeOnOpportunity()":"3c2448ed","profitAmount()":"5ff972cc","profitToken()":"49343624","uniswapV2Call(address,uint256,uint256,bytes)":"10d1e85c"},"id":0}