{"abi":[{"type":"constructor","inputs":[],"stateMutability":"nonpayable"},{"type":"function","name":"createLock","inputs":[{"name":"","type":"uint256","internalType":"uint256"},{"name":"","type":"uint256","internalType":"uint256"},{"name":"","type":"bytes","internalType":"bytes"}],"outputs":[],"stateMutability":"nonpayable"},{"type":"function","name":"executeOnOpportunity","inputs":[],"outputs":[],"stateMutability":"nonpayable"},{"type":"function","name":"executeOperation","inputs":[{"name":"assets","type":"address[]","internalType":"address[]"},{"name":"amounts","type":"uint256[]","internalType":"uint256[]"},{"name":"premiums","type":"uint256[]","internalType":"uint256[]"},{"name":"initiator","type":"address","internalType":"address"},{"name":"","type":"bytes","internalType":"bytes"}],"outputs":[{"name":"","type":"bool","internalType":"bool"}],"stateMutability":"nonpayable"},{"type":"function","name":"exploitPath","inputs":[],"outputs":[{"name":"","type":"string","internalType":"string"}],"stateMutability":"view"},{"type":"function","name":"finalizeMonetization","inputs":[{"name":"collidedId","type":"uint256","internalType":"uint256"}],"outputs":[{"name":"","type":"bool","internalType":"bool"}],"stateMutability":"nonpayable"},{"type":"function","name":"getAddressRegistry","inputs":[],"outputs":[{"name":"","type":"address","internalType":"address"}],"stateMutability":"view"},{"type":"function","name":"getDisplayValues","inputs":[{"name":"","type":"uint256","internalType":"uint256"},{"name":"","type":"uint256","internalType":"uint256"}],"outputs":[{"name":"","type":"bytes","internalType":"bytes"}],"stateMutability":"pure"},{"type":"function","name":"getMetadata","inputs":[],"outputs":[{"name":"","type":"string","internalType":"string"}],"stateMutability":"pure"},{"type":"function","name":"hypothesisValidated","inputs":[],"outputs":[{"name":"","type":"bool","internalType":"bool"}],"stateMutability":"view"},{"type":"function","name":"isUnlockable","inputs":[{"name":"","type":"uint256","internalType":"uint256"},{"name":"","type":"uint256","internalType":"uint256"}],"outputs":[{"name":"","type":"bool","internalType":"bool"}],"stateMutability":"pure"},{"type":"function","name":"lastFailure","inputs":[],"outputs":[{"name":"","type":"string","internalType":"string"}],"stateMutability":"view"},{"type":"function","name":"needsUpdate","inputs":[],"outputs":[{"name":"","type":"bool","internalType":"bool"}],"stateMutability":"pure"},{"type":"function","name":"onERC1155BatchReceived","inputs":[{"name":"","type":"address","internalType":"address"},{"name":"","type":"address","internalType":"address"},{"name":"","type":"uint256[]","internalType":"uint256[]"},{"name":"","type":"uint256[]","internalType":"uint256[]"},{"name":"","type":"bytes","internalType":"bytes"}],"outputs":[{"name":"","type":"bytes4","internalType":"bytes4"}],"stateMutability":"pure"},{"type":"function","name":"onERC1155Received","inputs":[{"name":"","type":"address","internalType":"address"},{"name":"","type":"address","internalType":"address"},{"name":"id","type":"uint256","internalType":"uint256"},{"name":"","type":"uint256","internalType":"uint256"},{"name":"","type":"bytes","internalType":"bytes"}],"outputs":[{"name":"","type":"bytes4","internalType":"bytes4"}],"stateMutability":"nonpayable"},{"type":"function","name":"profitAmount","inputs":[],"outputs":[{"name":"","type":"uint256","internalType":"uint256"}],"stateMutability":"view"},{"type":"function","name":"profitToken","inputs":[],"outputs":[{"name":"","type":"address","internalType":"address"}],"stateMutability":"pure"},{"type":"function","name":"requestFlashLoan","inputs":[{"name":"amount","type":"uint256","internalType":"uint256"}],"outputs":[],"stateMutability":"nonpayable"},{"type":"function","name":"setAddressRegistry","inputs":[{"name":"revest","type":"address","internalType":"address"}],"outputs":[],"stateMutability":"nonpayable"},{"type":"function","name":"supportsInterface","inputs":[{"name":"interfaceId","type":"bytes4","internalType":"bytes4"}],"outputs":[{"name":"","type":"bool","internalType":"bool"}],"stateMutability":"pure"},{"type":"function","name":"updateLock","inputs":[{"name":"","type":"uint256","internalType":"uint256"},{"name":"","type":"uint256","internalType":"uint256"},{"name":"","type":"bytes","internalType":"bytes"}],"outputs":[],"stateMutability":"view"}],"bytecode":{"object":"0x60808060405234601557612e0b908161001a8239f35b5f80fdfe6080806040526004361015610012575f80fd5b5f905f3560e01c90816301ffc9a714610c9a57508063045c225514610c70578063175cec2314610c555780631c84781614610c3b57806327c7812c14610bfd578063346c940914610be35780633c2448ed14610bc9578063463defd114610ba55780634934362414610b7e5780635ff972cc14610b615780637a5b4f5914610b405780637e3c2ad814610b085780638d9d670514610ae0578063920f5c8414610774578063a7f150bf146104d7578063a87eba3c14610364578063bc197c81146102cb578063c3a5a15414610237578063cb707c62146101635763f23a6e61146100fa575f80fd5b346101605760a036600319011261016057610113610d7e565b5061011c610d94565b506084356001600160401b03811161015e5761013c903690600401610d05565b5050602061014b60443561123c565b6040516001600160e01b03199091168152f35b505b80fd5b50346101605780600319360112610160576040519080600d549061018682610dfe565b808552916001811690811561021057506001146101c6575b6101c2846101ae81860382610e66565b604051918291602083526020830190610daa565b0390f35b600d81525f516020612d965f395f51905f52939250905b8082106101f6575090915081016020016101ae8261019e565b9192600181602092548385880101520191019092916101dd565b60ff191660208087019190915292151560051b850190920192506101ae915083905061019e565b50346101605780600319360112610160576040519080600e549061025a82610dfe565b80855291600181169081156102105750600114610281576101c2846101ae81860382610e66565b600e81525f516020612d765f395f51905f52939250905b8082106102b1575090915081016020016101ae8261019e565b919260018160209254838588010152019101909291610298565b50346101605760a0366003190112610160576102e5610d7e565b506102ee610d94565b506044356001600160401b03811161015e5761030e903690600401610dce565b50506064356001600160401b03811161015e5761032f903690600401610dce565b50506084356001600160401b03811161015e57610350903690600401610d05565b505060405163bc197c8160e01b8152602090f35b503461016057602036600319011261016057610381303314611188565b8060408051906103918183610e66565b60018252601f19810191823660208301375f516020612d565f395f51905f526103b9826111c0565b5281516103c68382610e66565b60018152833660208301376004356103dd826111c0565b528251936103eb8486610e66565b60018552366020860137846103ff856111c0565b526001600160a01b03610410611fdd565b1683519461041f602087610e66565b5f8652813b156104d3578680946104a061047698610488610464958a519b8c998a98899763ab9c4b5d60e01b89523060048a015260e060248a015260e48901906111cd565b87810360031901604489015290611209565b85810360031901606487015290611209565b3060848501528381036003190160a485015290610daa565b8260c483015203925af19081156104ca57506104b95750f35b816104c391610e66565b6101605780f35b513d84823e3d90fd5b8680fd5b5034610709576020366003190112610709576004356104f7303314611188565b604051632ee5bd5960e11b81528160048201525f6024820152600160448201526020816064815f5f516020612d365f395f51905f525af19081156106fe575f91610742575b50801561070d5781600b5580600c555f516020612d365f395f51905f523b15610709576040519063f2465f0960e01b82526004820152600160248201525f81604481835f516020612d365f395f51905f525af180156106fe576106e9575b505f516020612d365f395f51905f523b1561015e576040519063f2465f0960e01b82526004820152600160248201528181604481835f516020612d365f395f51905f525af180156106de576106c9575b50600d90630100000063ff000000198254161781556106098254610dfe565b601f81116106a7575b5060a38255525f516020612d165f395f51905f525f516020612d965f395f51905f52557f7265656e7472616e63795f7468656e5f6465706f7369744164646974696f6e615f516020612db65f395f51905f525570362fb6b0ba32b934b0b634bd30ba34b7b760791b7fd7b6990105719101dabeb77144f2a3385c8033acd3af97e9423a695e81ad1eb755602060405160018152f35b828252602082206106c391601f0160051c810190600301610f3c565b5f610612565b6106d4828092610e66565b610160575f6105ea565b6040513d84823e3d90fd5b6106f69192505f90610e66565b5f905f61059a565b6040513d5f823e3d90fd5b5f80fd5b60405162461bcd60e51b815260206004820152600d60248201526c4e4f5f4e45575f53455249455360981b6044820152606490fd5b90506020813d60201161076c575b8161075d60209383610e66565b8101031261070957515f61053c565b3d9150610750565b346107095760a0366003190112610709576004356001600160401b038111610709576107a4903690600401610dce565b906024356001600160401b038111610709576107c4903690600401610dce565b6044356001600160401b038111610709576107e3903690600401610dce565b9490936064356001600160a01b03811690819003610709576084356001600160401b0381116107095761081a903690600401610d05565b506001600160a01b03905061082d611fdd565b163303610aaa573003610a6f57600182149182610a3e575b505015610a06576108546117a6565b156109f2573591156109f25761086982612041565b5f1981146109ad576040519063a7f150bf60e01b825260048201526020816024815f305af19081156106fe575f9161098e575b5015610949576108aa611fdd565b903582018092116109355760405163095ea7b360e01b81526001600160a01b0391909116600482015260248101919091526020816044815f5f516020612d565f395f51905f525af180156106fe57610908575b602060405160018152f35b6109299060203d60201161092e575b6109218183610e66565b810190611170565b6108fd565b503d610917565b634e487b7160e01b5f52601160045260245ffd5b60405162461bcd60e51b815260206004820152601860248201527f4d4f4e4554495a455f46494e414c495a455f4641494c454400000000000000006044820152606490fd5b6109a7915060203d60201161092e576109218183610e66565b8361089c565b60405162461bcd60e51b815260206004820152601960248201527f4d4f4e4554495a455f434f4c4c4953494f4e5f4641494c4544000000000000006044820152606490fd5b634e487b7160e01b5f52603260045260245ffd5b60405162461bcd60e51b815260206004820152601060248201526f15539156141150d5115117d054d4d15560821b6044820152606490fd5b909150156109f257356001600160a01b03811690819003610709575f516020612d565f395f51905f52148580610845565b60405162461bcd60e51b815260206004820152601360248201527227a7262cafa9a2a6232fa4a724aa24a0aa27a960691b6044820152606490fd5b60405162461bcd60e51b815260206004820152600e60248201526d13d3931657d050559157d413d3d360921b6044820152606490fd5b34610709575f36600319011261070957600f546040516001600160a01b039091168152602090f35b3461070957610b1636610d68565b50506101c2604051610b29602082610e66565b5f8152604051918291602083526020830190610daa565b34610709575f366003190112610709576101c2604051610b29602082610e66565b34610709575f366003190112610709576020600654604051908152f35b34610709575f3660031901126107095760206040515f516020612d565f395f51905f528152f35b34610709575f36600319011261070957602060ff5f5460181c166040519015158152f35b34610709575f36600319011261070957610be1611037565b005b34610709575f3660031901126107095760206040515f8152f35b34610709576020366003190112610709576001600160a01b03610c1e610d7e565b166bffffffffffffffffffffffff60a01b600f541617600f555f80f35b3461070957610c4936610d32565b50505050610be1610ec1565b3461070957610c6336610d68565b5050602060405160018152f35b3461070957610c7e36610d32565b50505050610be15f516020612d365f395f51905f523314610e87565b34610709576020366003190112610709576004359063ffffffff60e01b8216809203610709576020916301ffc9a760e01b8114908115610cf4575b8115610ce3575b5015158152f35b6370d7b80960e01b14905083610cdc565b630271189760e51b81149150610cd5565b9181601f84011215610709578235916001600160401b038311610709576020838186019501011161070957565b6060600319820112610709576004359160243591604435906001600160401b03821161070957610d6491600401610d05565b9091565b6040906003190112610709576004359060243590565b600435906001600160a01b038216820361070957565b602435906001600160a01b038216820361070957565b805180835260209291819084018484015e5f828201840152601f01601f1916010190565b9181601f84011215610709578235916001600160401b038311610709576020808501948460051b01011161070957565b90600182811c92168015610e2c575b6020831014610e1857565b634e487b7160e01b5f52602260045260245ffd5b91607f1691610e0d565b61012081019081106001600160401b03821117610e5257604052565b634e487b7160e01b5f52604160045260245ffd5b90601f801991011681019081106001600160401b03821117610e5257604052565b15610e8e57565b60405162461bcd60e51b815260206004820152600b60248201526a13d3931657d5105491d15560aa1b6044820152606490fd5b610ed95f516020612d365f395f51905f523314610e87565b5f5460ff8160081c168015610f11575b610f0e5761ff001916610100175f55610f00611330565b60025561ff00195f54165f55565b50565b5060ff81166006811015610f285760011415610ee9565b634e487b7160e01b5f52602160045260245ffd5b818110610f47575050565b5f8155600101610f3c565b601f8111610f5d5750565b600e5f52610fa090601f0160051c5f516020612d765f395f51905f52017fbb7b4a454dc3493923482f07822329ed19e8244eff582cc204f8554c3620c3ff610f3c565b565b601f8111610fad5750565b600e5f52610fa090601f0160051c5f516020612d765f395f51905f5290810190610f3c565b601f8111610fdd5750565b600d5f52610fa090601f0160051c5f516020612d965f395f51905f52017fd7b6990105719101dabeb77144f2a3385c8033acd3af97e9423a695e81ad1eb7610f3c565b6006811015610f285760ff80195f54169116175f55565b61103f61173d565b6005555f60065563ff000000195f54165f555f196001555f196002555f6003555f6004555f600755600160085560ff19600954166009555f600a555f19600b555f19600c5561108f600d54610dfe565b601f8111611145575b505f600d556110a8600e54610dfe565b601f811161111a575b505f600e819055805461ffff191690556110c96117a6565b6110d1611896565b611112576110dd61198e565b611112576110e9611a87565b611112576110f5611b75565b61111257611101611e1b565b6111125761110d61196a565b600655565b61110d61196a565b600e5f5261113f90601f0160051c5f516020612d765f395f51905f5290810190610f3c565b5f6110b1565b600d5f5261116a90601f0160051c5f516020612d965f395f51905f5290810190610f3c565b5f611098565b90816020910312610709575180151581036107095790565b1561118f57565b60405162461bcd60e51b815260206004820152600960248201526827a7262cafa9a2a62360b91b6044820152606490fd5b8051156109f25760200190565b90602080835192838152019201905f5b8181106111ea5750505090565b82516001600160a01b03168452602093840193909201916001016111dd565b90602080835192838152019201905f5b8181106112265750505090565b8251845260209384019390920191600101611219565b6001600160a01b0361124c6120a9565b16330361132457806001555f549060ff8260081c166113165760ff821690600682101580610f285760028314159081611309575b816112f7575b816112e6575b506112d7576101006112c19361ff001916175f556112b960075460085460ff6009541690600a5492611686565b60025561276d565b505f805461ff001916905563f23a6e6160e01b90565b5063f23a6e6160e01b92915050565b9050610f285760058214155f61128c565b809150610f2857600483141590611286565b505060038214155f611280565b5063f23a6e6160e01b919050565b5063f23a6e6160e01b90565b60405161133c81610e36565b5f516020612d565f395f51905f52815260208101905f825260408101905f825260608101905f825260808101905f825260a081015f815260c082015f815260e08301905f82526101008401925f845260409586519761139b888a610e66565b60018952601f198801998a3660208c0137306113b68b6111c0565b5288519a6113c48a8d610e66565b60018c523660208d01376113d78b6111c0565b600190528851986113e960208b610e66565b5f8a525162b88daf60e21b81523060048201526101a060248201529b8c9b8c9b8c9b61141a906101a48e0190610daa565b8c81036003190160448e015261142f916111cd565b8b81036003190160648d015261144491611209565b98516001600160a01b0390811660848c015290511660a48a01525160c48901525160e48801525161010487015251610124860152511515610144850152511515610164840152511515610184830152035a925f5f516020612d365f395f51905f52602095f15f91816114bf575b506114bc57505f1990565b90565b9091506020813d6020116114eb575b816114db60209383610e66565b810103126107095751905f6114b1565b3d91506114ce565b6040516114ff81610e36565b5f516020612d565f395f51905f52815260208101905f825260408101905f825260608101905f825260808101906001825260a081015f815260c082015f815260e08301905f82526101008401925f845260409586519761139b888a610e66565b60405161156b81610e36565b5f516020612d565f395f51905f52815260208101905f825260408101905f825260608101905f825260808101905f825260a081015f815260c082015f815260e0830190600182526101008401925f84526040958651976115cb888a610e66565b60018952601f198801998a3660208c0137306115e68b6111c0565b5288519a6115f48a8d610e66565b60018c523660208d01376116078b6111c0565b600290528851986113e960208b610e66565b6040519061162682610e36565b5f516020612d565f395f51905f52825260208201915f83526040810191825260608101905f825260808101906001825260a081015f815260c082015f815260e0830190600182526101008401925f845260409586519761139b888a610e66565b60405161169281610e36565b5f516020612d565f395f51905f52815260208101945f86526040820192835260608201945f86526080830191825260a083015f815260c08401905f825260e0850192151583526101008501935f855260409889978851996116f38a8c610e66565b60018b52601f198a01803660208e01373061170d8d6111c0565b528a519c61171b908e610e66565b60018d523660208e013761172e8c6111c0565b528851986113e960208b610e66565b6040516370a0823160e01b81523060048201526020816024815f516020612d565f395f51905f525afa9081156106fe575f91611777575090565b90506020813d60201161179e575b8161179260209383610e66565b81010312610709575190565b3d9150611785565b60ff5f5460101c16610fa05760405163095ea7b360e01b81525f516020612d365f395f51905f5260048201525f1960248201526020816044815f5f516020612d565f395f51905f525af180156106fe57611879575b50611804611fdd565b60405163095ea7b360e01b81526001600160a01b0390911660048201525f1960248201526020816044815f5f516020612d565f395f51905f525af180156106fe5761185c575b506201000062ff0000195f5416175f55565b6118749060203d60201161092e576109218183610e66565b61184a565b6118919060203d60201161092e576109218183610e66565b6117fb565b5f303b1561070957604051632a1fae8f60e21b8152670de0b6b3a764000060048201525f8160248183305af19081611955575b5061190e576114bc6040516118df604082610e66565b601b81527f4d4f4e4554495a455f464c4153484c4f414e5f524556455254454400000000006020820152612b48565b61191661196a565b61194f576114bc60405161192b604082610e66565b60128152711353d3915512569157d393d7d41493d1925560721b6020820152612b48565b50600190565b6119629192505f90610e66565b5f905f6118c9565b61197261173d565b6005548082116119825750505f90565b81039081116109355790565b6119986001611020565b61ff00195f54165f555f196001555f196002555f6004555f6003555f600755600160085560ff19600954166009555f600a556119d2611330565b5f805460ff191690555f198114611a39576119ec90612152565b611a3457611a30604051611a01604082610e66565b601d81527f50415448315f4352454154454c4f434b5f4e4f5f434f4c4c4953494f4e0000006020820152612b48565b5f90565b600190565b50611a30604051611a4b606082610e66565b602481527f50415448315f4352454154454c4f434b5f4f555445525f4d494e545f524556456020820152631495115160e21b6040820152612b48565b611a916002611020565b61ff00195f54165f555f196001555f196002555f6004555f6003555f600755600160085560ff19600954166009555f600a55611acb611330565b5f805460ff191690555f198114611b2957611ae5906122a0565b611a3457611a30604051611afa604082610e66565b601b81527f50415448325f52454345495645525f4e4f5f434f4c4c4953494f4e00000000006020820152612b48565b50611a30604051611b3b606082610e66565b602281527f50415448325f52454345495645525f4f555445525f4d494e545f524556455254602082015261115160f21b6040820152612b48565b611b7d6114f3565b5f198114611dda5760405190611b94606083610e66565b6002825260403660208401376001611bab836111c0565b528151600110156109f257815f9160016040611c27950152611bcd6003611020565b61ff0019835416835582196001558219600255826004558260035582600755600160085560ff196009541660095582600a556040519384928392630fccc19d60e41b84526004840152606060248401526064830190611209565b600160448301520381835f516020612d365f395f51905f525af15f9181611d3d575b50611c97575060ff195f54165f55611a30604051611c68604082610e66565b601981527f50415448335f53504c49545f43414c4c5f5245564552544544000000000000006020820152612b48565b60ff195f54165f55805115611cfc57611cb2611cb8916111c0565b516123b8565b611a3457611a30604051611ccd604082610e66565b601881527f50415448335f53504c49545f4e4f5f434f4c4c4953494f4e00000000000000006020820152612b48565b50611a30604051611d0e604082610e66565b601881527f50415448335f53504c49545f4e4f5f4348494c445f49445300000000000000006020820152612b48565b9091503d805f833e611d4f8183610e66565b810190602081830312610709578051906001600160401b03821161070957019080601f83011215610709578151916001600160401b038311610e52578260051b906020820193611da26040519586610e66565b845260208085019282010192831161070957602001905b828210611dca57505050905f611c49565b8151815260209182019101611db9565b50611a30604051611dec604082610e66565b601e81527f50415448335f53504c49545f424153455f4d494e545f524556455254454400006020820152612b48565b611e2361155f565b5f198114611f7d57611e356004611020565b61ff00195f54165f555f196001555f196002555f6004555f6003555f600755600160085560ff19600954166009555f600a5560405190632ee5bd5960e11b825260048201525f6024820152600160448201526020816064815f5f516020612d365f395f51905f525af15f9181611f49575b50611ef4575060ff195f54165f55611a30604051611ec5604082610e66565b601b81527f50415448345f4445504f5349545f43414c4c5f524556455254454400000000006020820152612b48565b611f059060ff195f54165f556124dd565b611a3457611a30604051611f1a604082610e66565b601a81527f50415448345f4445504f5349545f4e4f5f434f4c4c4953494f4e0000000000006020820152612b48565b9091506020813d602011611f75575b81611f6560209383610e66565b810103126107095751905f611ea6565b3d9150611f58565b50611a30604051611f8f604082610e66565b602081527f50415448345f4445504f5349545f424153455f4d494e545f52455645525445446020820152612b48565b9081602091031261070957516001600160a01b03811681036107095790565b604051630261bf8b60e01b815260208160048173b53c1a33016b2dc2ff3653530bff1848a515c8c55afa9081156106fe575f91612018575090565b6114bc915060203d60201161203a575b6120328183610e66565b810190611fbe565b503d612028565b6120869061204f6005611020565b61ff00195f54165f555f196001555f196002555f6004555f6003555f600755600160085560ff19600954166009555f600a55611619565b60ff195f54165f5561209781612610565b156120a35780600b5590565b505f1990565b604051637f32d67f60e11b81526020816004815f516020612d365f395f51905f525afa9081156106fe575f9161210f575b50604051636acf14b760e11b815290602090829060049082906001600160a01b03165afa9081156106fe575f91612018575090565b90506020813d60201161214a575b8161212a60209383610e66565b8101031261070957516001600160a01b03811681036107095760206120da565b3d915061211d565b5f905f1981148015612294575b61224457600261217b61217183612c6c565b9283600455612cce565b918260035510908115612239575b506114bc57630100000063ff000000198254161781556121aa600d54610dfe565b156121b55750600190565b8061222557506121ce6121c9600d54610dfe565b610fd2565b604b600d55600d5f527f6d696e74416464726573734c6f636b5f6372656174654c6f636b5f7265656e745f516020612d965f395f51905f52556472616e637960d81b5f516020612db65f395f51905f52555f61194f565b634e487b7160e01b81526021600452602490fd5b60029150105f612189565b50612250600e54610dfe565b156122585790565b505f61226d612268600e54610dfe565b610fa2565b7f50415448315f5245454e5452595f4449445f4e4f545f52455553455f4944003c600e5590565b5080600254141561215f565b5f905f19811480156123ac575b6123615760026122bf61217183612c6c565b918260035510908115612356575b506114bc57630100000063ff000000198254161781556122ee600d54610dfe565b156122f95750600190565b80612225575061230d6121c9600d54610dfe565b6055600d55600d5f525f516020612d165f395f51905f525f516020612d965f395f51905f5255697265656e7472616e637960b01b5f516020612db65f395f51905f52555f61194f565b60029150105f6122cd565b5061236d600e54610dfe565b156123755790565b505f612385612268600e54610dfe565b7f50415448325f5245454e5452595f4449445f4e4f545f52455553455f4944003c600e5590565b508060025414156122ad565b5f905f19811480156124d1575b6124865760026123d761217183612c6c565b91826003551090811561247b575b506114bc57630100000063ff00000019825416178155612406600d54610dfe565b156124115750600190565b8061222557506124256121c9600d54610dfe565b6049600d55600d5f527f73706c6974464e46545f6572633131353552656365697665725f7265656e74725f516020612d965f395f51905f525563616e637960e01b5f516020612db65f395f51905f52555f61194f565b60029150105f6123e5565b50612492600e54610dfe565b1561249a5790565b505f6124aa612268600e54610dfe565b7f50415448335f5245454e5452595f4449445f4e4f545f52455553455f4944003c600e5590565b508060025414156123c5565b5f905f1981148015612604575b6125b95760026124fc61217183612c6c565b9182600355109081156125ae575b506114bc57630100000063ff0000001982541617815561252b600d54610dfe565b156125365750600190565b80612225575061254a6121c9600d54610dfe565b6065600d55600d5f527f6465706f7369744164646974696f6e616c546f464e46545f65726331313535525f516020612d965f395f51905f525571656365697665725f7265656e7472616e637960701b5f516020612db65f395f51905f52555f61194f565b60029150105f61250a565b506125c5600e54610dfe565b156125cd5790565b505f6125dd612268600e54610dfe565b7f50415448345f5245454e5452595f4449445f4e4f545f52455553455f4944003c600e5590565b508060025414156124ea565b5f905f1981148015612761575b6126d457600261262f61217183612c6c565b9182600355109081156126c9575b506114bc57805463ff00000019166301000000178155600d549061266082610dfe565b1561266d575b5050600190565b8061222557506121c961267f91610dfe565b6055600d55600d5f525f516020612d165f395f51905f525f516020612d965f395f51905f5255697265656e7472616e637960b01b5f516020612db65f395f51905f52555f80612666565b60029150105f61263d565b50600e546126e181610dfe565b156126ea575090565b90506126fe6126f95f92610dfe565b610f52565b6043600e55600e5f527f4d4f4e4554495a455f5245454e5452595f4449445f4e4f545f52455553455f495f516020612d765f395f51905f5255601160fa1b7fbb7b4a454dc3493923482f07822329ed19e8244eff582cc204f8554c3620c3fe5590565b5080600254141561261d565b5f1981148015612b3c575b6129a357600261278a61217183612c6c565b918260035510908115612998575b5061299357630100000063ff000000195f5416175f55600d54906127bb82610dfe565b156127c7575050600190565b6006811015610f2857600181036128415750506127e86121c9600d54610dfe565b604b600d55600d5f527f6d696e74416464726573734c6f636b5f6372656174654c6f636b5f7265656e745f516020612d965f395f51905f52556472616e637960d81b5f516020612db65f395f51905f52555b5f80612666565b600281036128a15750506128596121c9600d54610dfe565b6055600d55600d5f525f516020612d165f395f51905f525f516020612d965f395f51905f5255697265656e7472616e637960b01b5f516020612db65f395f51905f525561283a565b6003810361290e5750506128b96121c9600d54610dfe565b6049600d55600d5f527f73706c6974464e46545f6572633131353552656365697665725f7265656e74725f516020612d965f395f51905f525563616e637960e01b5f516020612db65f395f51905f525561283a565b60040361298757506129246121c9600d54610dfe565b6065600d55600d5f527f6465706f7369744164646974696f6e616c546f464e46545f65726331313535525f516020612d965f395f51905f525571656365697665725f7265656e7472616e637960701b5f516020612db65f395f51905f525561283a565b6121c961285991610dfe565b505f90565b60029150105f612798565b50600e54906129b182610dfe565b156129bd575b50505f90565b6006811015610f285760018103612a0a5750506129de612268600e54610dfe565b7f50415448315f5245454e5452595f4449445f4e4f545f52455553455f4944003c600e555b5f806129b7565b60028103612a4b575050612a22612268600e54610dfe565b7f50415448325f5245454e5452595f4449445f4e4f545f52455553455f4944003c600e55612a03565b60038103612a8c575050612a63612268600e54610dfe565b7f50415448335f5245454e5452595f4449445f4e4f545f52455553455f4944003c600e55612a03565b600403612acb5750612aa2612268600e54610dfe565b7f50415448345f5245454e5452595f4449445f4e4f545f52455553455f4944003c600e55612a03565b6126f9612ad791610dfe565b6043600e55600e5f527f4d4f4e4554495a455f5245454e5452595f4449445f4e4f545f52455553455f495f516020612d765f395f51905f5255601160fa1b7fbb7b4a454dc3493923482f07822329ed19e8244eff582cc204f8554c3620c3fe55612a03565b50806002541415612778565b90600e54612b5581610dfe565b15612b5f57509050565b8251906001600160401b038211610e5257612b7990610dfe565b601f8111612c26575b50602092601f8211600114612bbd57928192935f92612bb2575b50508160011b915f199060031b1c191617600e55565b015190505f80612b9c565b601f19821693600e5f525f516020612d765f395f51905f52915f5b868110612c0e5750836001959610612bf6575b505050811b01600e55565b01515f1960f88460031b161c191690555f8080612beb565b91926020600181928685015181550194019201612bd8565b600e5f52612c5c905f516020612d765f395f51905f52601f840160051c81019160208510612c62575b601f0160051c0190610f3c565b5f612b82565b9091508190612c4f565b5f19811461299357612cb9906020906001600160a01b03612c8b6120a9565b60405162ac13a160e61b81523060048201526024810193909352919384929190911690829081906044820190565b03915afa9081156106fe575f91611777575090565b5f1981146129935760206001600160a01b03612ce86120a9565b169160246040518094819363f77ee79d60e01b835260048301525afa9081156106fe575f9161177757509056fe6d696e74416464726573734c6f636b5f6572633131353552656365697665725f0000000000000000000000002320a28f52334d62622cc2eafa15de55f9987ed9000000000000000000000000c02aaa39b223fe8d0a0e5c4f27ead9083c756cc2bb7b4a454dc3493923482f07822329ed19e8244eff582cc204f8554c3620c3fdd7b6990105719101dabeb77144f2a3385c8033acd3af97e9423a695e81ad1eb5d7b6990105719101dabeb77144f2a3385c8033acd3af97e9423a695e81ad1eb6a2646970667358221220b2e0eebe7034baf14e45e30cdc020471b5e7c7fcc00531caab53dcfb00285fe164736f6c634300081e0033","linkReferences":{}},"methodIdentifiers":{"createLock(uint256,uint256,bytes)":"1c847816","executeOnOpportunity()":"3c2448ed","executeOperation(address[],uint256[],uint256[],address,bytes)":"920f5c84","exploitPath()":"cb707c62","finalizeMonetization(uint256)":"a7f150bf","getAddressRegistry()":"8d9d6705","getDisplayValues(uint256,uint256)":"7e3c2ad8","getMetadata()":"7a5b4f59","hypothesisValidated()":"463defd1","isUnlockable(uint256,uint256)":"175cec23","lastFailure()":"c3a5a154","needsUpdate()":"346c9409","onERC1155BatchReceived(address,address,uint256[],uint256[],bytes)":"bc197c81","onERC1155Received(address,address,uint256,uint256,bytes)":"f23a6e61","profitAmount()":"5ff972cc","profitToken()":"49343624","requestFlashLoan(uint256)":"a87eba3c","setAddressRegistry(address)":"27c7812c","supportsInterface(bytes4)":"01ffc9a7","updateLock(uint256,uint256,bytes)":"045c2255"},"id":0}