{"abi":[{"type":"constructor","inputs":[],"stateMutability":"nonpayable"},{"type":"receive","stateMutability":"payable"},{"type":"function","name":"executeOnOpportunity","inputs":[],"outputs":[],"stateMutability":"nonpayable"},{"type":"function","name":"onTokenTransfer","inputs":[{"name":"","type":"address","internalType":"address"},{"name":"","type":"uint256","internalType":"uint256"},{"name":"","type":"bytes","internalType":"bytes"}],"outputs":[{"name":"","type":"bool","internalType":"bool"}],"stateMutability":"pure"},{"type":"function","name":"profitAmount","inputs":[],"outputs":[{"name":"","type":"uint256","internalType":"uint256"}],"stateMutability":"view"},{"type":"function","name":"profitToken","inputs":[],"outputs":[{"name":"","type":"address","internalType":"address"}],"stateMutability":"view"},{"type":"error","name":"MintDidNotProduceGd","inputs":[]},{"type":"error","name":"MintFailed","inputs":[]},{"type":"error","name":"MissingCDai","inputs":[]},{"type":"error","name":"MissingController","inputs":[]},{"type":"error","name":"MissingGoodDollar","inputs":[]},{"type":"error","name":"MissingHelper","inputs":[]},{"type":"error","name":"MissingNameService","inputs":[]},{"type":"error","name":"MissingReserve","inputs":[]},{"type":"error","name":"RedirectFailed","inputs":[]},{"type":"error","name":"RemainingCapExhausted","inputs":[]},{"type":"error","name":"SellDidNotProduceProfit","inputs":[]},{"type":"error","name":"StaleAvatarNotFound","inputs":[]}],"bytecode":{"object":"0x6080604052348015600e575f5ffd5b506124738061001c5f395ff3fe608060405260043610610042575f3560e01c80633c2448ed1461004d57806349343624146100635780635ff972cc1461008d578063a4c0ed36146100b757610049565b3661004957005b5f5ffd5b348015610058575f5ffd5b506100616100f3565b005b34801561006e575f5ffd5b50610077610e1c565b6040516100849190611958565b60405180910390f35b348015610098575f5ffd5b506100a1610e43565b6040516100ae9190611989565b60405180910390f35b3480156100c2575f5ffd5b506100dd60048036038101906100d89190611a68565b610e4c565b6040516100ea9190611af3565b60405180910390f35b5f5f5f6101000a81548173ffffffffffffffffffffffffffffffffffffffff021916908373ffffffffffffffffffffffffffffffffffffffff1602179055505f6001819055505f730c6c80d2061afa35e160f3799411d83bdeea0a5a73ffffffffffffffffffffffffffffffffffffffff16633e6326fc6040518163ffffffff1660e01b8152600401602060405180830381865afa158015610197573d5f5f3e3d5ffd5b505050506040513d601f19601f820116820180604052508101906101bb9190611b20565b90505f73ffffffffffffffffffffffffffffffffffffffff168173ffffffffffffffffffffffffffffffffffffffff1603610222576040517f83432e1300000000000000000000000000000000000000000000000000000000815260040160405180910390fd5b5f8173ffffffffffffffffffffffffffffffffffffffff1663bf40fac16040518163ffffffff1660e01b815260040161025a90611ba5565b602060405180830381865afa158015610275573d5f5f3e3d5ffd5b505050506040513d601f19601f820116820180604052508101906102999190611b20565b90505f73ffffffffffffffffffffffffffffffffffffffff168173ffffffffffffffffffffffffffffffffffffffff160361035257730c6c80d2061afa35e160f3799411d83bdeea0a5a73ffffffffffffffffffffffffffffffffffffffff16634162169f6040518163ffffffff1660e01b8152600401602060405180830381865afa15801561032b573d5f5f3e3d5ffd5b505050506040513d601f19601f8201168201806040525081019061034f9190611b20565b90505b5f73ffffffffffffffffffffffffffffffffffffffff168173ffffffffffffffffffffffffffffffffffffffff16036103b7576040517f5d2b06a000000000000000000000000000000000000000000000000000000000815260040160405180910390fd5b5f8190505f8373ffffffffffffffffffffffffffffffffffffffff1663bf40fac16040518163ffffffff1660e01b81526004016103f390611c0d565b602060405180830381865afa15801561040e573d5f5f3e3d5ffd5b505050506040513d601f19601f820116820180604052508101906104329190611b20565b90505f73ffffffffffffffffffffffffffffffffffffffff168173ffffffffffffffffffffffffffffffffffffffff1603610499576040517f1f36603100000000000000000000000000000000000000000000000000000000815260040160405180910390fd5b5f8190505f8173ffffffffffffffffffffffffffffffffffffffff16634899bb276040518163ffffffff1660e01b8152600401602060405180830381865afa1580156104e7573d5f5f3e3d5ffd5b505050506040513d601f19601f8201168201806040525081019061050b9190611b20565b90505f73ffffffffffffffffffffffffffffffffffffffff168173ffffffffffffffffffffffffffffffffffffffff16036105b9578573ffffffffffffffffffffffffffffffffffffffff1663bf40fac16040518163ffffffff1660e01b815260040161057790611c75565b602060405180830381865afa158015610592573d5f5f3e3d5ffd5b505050506040513d601f19601f820116820180604052508101906105b69190611b20565b90505b5f73ffffffffffffffffffffffffffffffffffffffff168173ffffffffffffffffffffffffffffffffffffffff160361061e576040517fb54515a900000000000000000000000000000000000000000000000000000000815260040160405180910390fd5b5f8190505f8773ffffffffffffffffffffffffffffffffffffffff1663bf40fac16040518163ffffffff1660e01b815260040161065a90611cdd565b602060405180830381865afa158015610675573d5f5f3e3d5ffd5b505050506040513d601f19601f820116820180604052508101906106999190611b20565b90505f73ffffffffffffffffffffffffffffffffffffffff168173ffffffffffffffffffffffffffffffffffffffff1603610700576040517f0fa01c8700000000000000000000000000000000000000000000000000000000815260040160405180910390fd5b5f8473ffffffffffffffffffffffffffffffffffffffff1663f2c65bf96040518163ffffffff1660e01b8152600401602060405180830381865afa15801561074a573d5f5f3e3d5ffd5b505050506040513d601f19601f8201168201806040525081019061076e9190611b20565b90505f73ffffffffffffffffffffffffffffffffffffffff168173ffffffffffffffffffffffffffffffffffffffff160361081c578873ffffffffffffffffffffffffffffffffffffffff1663bf40fac16040518163ffffffff1660e01b81526004016107da90611d45565b602060405180830381865afa1580156107f5573d5f5f3e3d5ffd5b505050506040513d601f19601f820116820180604052508101906108199190611b20565b90505b5f73ffffffffffffffffffffffffffffffffffffffff168173ffffffffffffffffffffffffffffffffffffffff1603610881576040517f1535071800000000000000000000000000000000000000000000000000000000815260040160405180910390fd5b5f8273ffffffffffffffffffffffffffffffffffffffff166370a08231306040518263ffffffff1660e01b81526004016108bb9190611958565b602060405180830381865afa1580156108d6573d5f5f3e3d5ffd5b505050506040513d601f19601f820116820180604052508101906108fa9190611d77565b90505f8273ffffffffffffffffffffffffffffffffffffffff166370a08231306040518263ffffffff1660e01b81526004016109369190611958565b602060405180830381865afa158015610951573d5f5f3e3d5ffd5b505050506040513d601f19601f820116820180604052508101906109759190611d77565b90505f8973ffffffffffffffffffffffffffffffffffffffff16635aef7de66040518163ffffffff1660e01b8152600401602060405180830381865afa1580156109c1573d5f5f3e3d5ffd5b505050506040513d601f19601f820116820180604052508101906109e59190611b20565b90505f6109f3898884610e59565b90505f73ffffffffffffffffffffffffffffffffffffffff168173ffffffffffffffffffffffffffffffffffffffff1603610a5a576040517f2d665fbc00000000000000000000000000000000000000000000000000000000815260040160405180910390fd5b5f610a668a878961117b565b90505f8103610aa1576040517fef1af2de00000000000000000000000000000000000000000000000000000000815260040160405180910390fd5b610aae8c838c8985611532565b610ae4576040517f07637bd800000000000000000000000000000000000000000000000000000000815260040160405180910390fd5b5f8773ffffffffffffffffffffffffffffffffffffffff166370a08231306040518263ffffffff1660e01b8152600401610b1e9190611958565b602060405180830381865afa158015610b39573d5f5f3e3d5ffd5b505050506040513d601f19601f82011682018060405250810190610b5d9190611d77565b90505f8682610b6c9190611dcf565b90505f8103610ba7576040517fa0c063d100000000000000000000000000000000000000000000000000000000815260040160405180910390fd5b8873ffffffffffffffffffffffffffffffffffffffff1663095ea7b38e7fffffffffffffffffffffffffffffffffffffffffffffffffffffffffffffffff6040518363ffffffff1660e01b8152600401610c02929190611e02565b6020604051808303815f875af1158015610c1e573d5f5f3e3d5ffd5b505050506040513d601f19601f82011682018060405250810190610c429190611e53565b508b73ffffffffffffffffffffffffffffffffffffffff16634f8f0218825f30306040518563ffffffff1660e01b8152600401610c829493929190611ec0565b60408051808303815f875af1158015610c9d573d5f5f3e3d5ffd5b505050506040513d601f19601f82011682018060405250810190610cc19190611f03565b50505f868973ffffffffffffffffffffffffffffffffffffffff166370a08231306040518263ffffffff1660e01b8152600401610cfe9190611958565b602060405180830381865afa158015610d19573d5f5f3e3d5ffd5b505050506040513d601f19601f82011682018060405250810190610d3d9190611d77565b610d479190611dcf565b90505f8103610d82576040517f09594f8900000000000000000000000000000000000000000000000000000000815260040160405180910390fd5b610d8d8f868d6115a8565b610dc3576040517f613f5a7300000000000000000000000000000000000000000000000000000000815260040160405180910390fd5b885f5f6101000a81548173ffffffffffffffffffffffffffffffffffffffff021916908373ffffffffffffffffffffffffffffffffffffffff160217905550806001819055505050505050505050505050505050505050565b5f5f5f9054906101000a900473ffffffffffffffffffffffffffffffffffffffff16905090565b5f600154905090565b5f60019050949350505050565b5f5f8473ffffffffffffffffffffffffffffffffffffffff1663ca15c8737f82ce2ced7fc86cde9b16f1f3a5508a82078c42c54a7cf0af011ce529199a18bb6040518263ffffffff1660e01b8152600401610eb49190611f59565b602060405180830381865afa158015610ecf573d5f5f3e3d5ffd5b505050506040513d601f19601f82011682018060405250810190610ef39190611d77565b90505f8473ffffffffffffffffffffffffffffffffffffffff1663ca15c8735f5f1b6040518263ffffffff1660e01b8152600401610f319190611f59565b602060405180830381865afa158015610f4c573d5f5f3e3d5ffd5b505050506040513d601f19601f82011682018060405250810190610f709190611d77565b90505f5f90505b8281101561116d575f8773ffffffffffffffffffffffffffffffffffffffff16639010d07c7f82ce2ced7fc86cde9b16f1f3a5508a82078c42c54a7cf0af011ce529199a18bb846040518363ffffffff1660e01b8152600401610fdb929190611f72565b602060405180830381865afa158015610ff6573d5f5f3e3d5ffd5b505050506040513d601f19601f8201168201806040525081019061101a9190611b20565b90505f73ffffffffffffffffffffffffffffffffffffffff168173ffffffffffffffffffffffffffffffffffffffff16148061108157508573ffffffffffffffffffffffffffffffffffffffff168173ffffffffffffffffffffffffffffffffffffffff16145b1561108c5750611162565b5f5f90505b8381101561115f578173ffffffffffffffffffffffffffffffffffffffff168873ffffffffffffffffffffffffffffffffffffffff16639010d07c5f5f1b846040518363ffffffff1660e01b81526004016110ed929190611f72565b602060405180830381865afa158015611108573d5f5f3e3d5ffd5b505050506040513d601f19601f8201168201806040525081019061112c9190611b20565b73ffffffffffffffffffffffffffffffffffffffff1603611154578195505050505050611174565b806001019050611091565b50505b806001019050610f77565b505f925050505b9392505050565b5f5f8273ffffffffffffffffffffffffffffffffffffffff166318160ddd6040518163ffffffff1660e01b8152600401602060405180830381865afa1580156111c6573d5f5f3e3d5ffd5b505050506040513d601f19601f820116820180604052508101906111ea9190611d77565b90505f8573ffffffffffffffffffffffffffffffffffffffff1663355274ea6040518163ffffffff1660e01b8152600401602060405180830381865afa158015611236573d5f5f3e3d5ffd5b505050506040513d601f19601f8201168201806040525081019061125a9190611d77565b905081811161126d575f9250505061152b565b5f828261127a9190611dcf565b90505f8673ffffffffffffffffffffffffffffffffffffffff166370a08231896040518263ffffffff1660e01b81526004016112b69190611958565b602060405180830381865afa1580156112d1573d5f5f3e3d5ffd5b505050506040513d601f19601f820116820180604052508101906112f59190611d77565b90505f8873ffffffffffffffffffffffffffffffffffffffff1663e092b0676040518163ffffffff1660e01b8152600401602060405180830381865afa158015611341573d5f5f3e3d5ffd5b505050506040513d601f19601f820116820180604052508101906113659190611b20565b90505f6103e8836113769190611fc6565b90505f810361138457600190505b5f600190505f620f424090505b85811080156114185750828473ffffffffffffffffffffffffffffffffffffffff16636a989e6e8d846040518363ffffffff1660e01b81526004016113d7929190611e02565b602060405180830381865afa1580156113f2573d5f5f3e3d5ffd5b505050506040513d601f19601f820116820180604052508101906114169190611d77565b105b1561142c57809150600181901b9050611391565b85811115611438578590505b5f5f90505b6020811080156114585750816001846114569190611ff6565b105b1561151e575f6001848461146c9190611dcf565b901c846114799190611ff6565b90505f8673ffffffffffffffffffffffffffffffffffffffff16636a989e6e8f846040518363ffffffff1660e01b81526004016114b7929190611e02565b602060405180830381865afa1580156114d2573d5f5f3e3d5ffd5b505050506040513d601f19601f820116820180604052508101906114f69190611d77565b90508581106115075781935061150b565b8194505b50508061151790612029565b905061143d565b5080985050505050505050505b9392505050565b5f5f83308460405160240161154993929190612070565b60405160208183030381529060405263f8a9978f60e01b6020820180517bffffffffffffffffffffffffffffffffffffffffffffffffffffffff8381831617835250505050905061159c87878784611665565b91505095945050505050565b5f5f6040518060800160405280600163ffffffff168152602001600163ffffffff1681526020013073ffffffffffffffffffffffffffffffffffffffff168152602001600360ff1681525090505f816040516024016116079190612140565b6040516020818303038152906040526386d97a1a60e01b6020820180517bffffffffffffffffffffffffffffffffffffffffffffffffffffffff8381831617835250505050905061165a86868684611665565b925050509392505050565b5f5f5f90505f8573ffffffffffffffffffffffffffffffffffffffff163b146116945761169185611703565b90505b6116a0818585886117e9565b156116af5760019150506116fb565b8073ffffffffffffffffffffffffffffffffffffffff168673ffffffffffffffffffffffffffffffffffffffff16146116f6576116ee868585886117e9565b9150506116fb565b5f9150505b949350505050565b5f5f5f8373ffffffffffffffffffffffffffffffffffffffff16604051602401604051602081830303815290604052638da5cb5b60e01b6020820180517bffffffffffffffffffffffffffffffffffffffffffffffffffffffff838183161783525050505060405161177591906121ab565b5f60405180830381855afa9150503d805f81146117ad576040519150601f19603f3d011682016040523d82523d5f602084013e6117b2565b606091505b50915091508180156117c657506020815110155b156117e257808060200190518101906117df91906121fc565b92505b5050919050565b5f5f8573ffffffffffffffffffffffffffffffffffffffff163b03611810575f9050611911565b5f5f8673ffffffffffffffffffffffffffffffffffffffff168686865f604051602401611840949392919061227f565b60405160208183030381529060405263d1b7089a60e01b6020820180517bffffffffffffffffffffffffffffffffffffffffffffffffffffffff838183161783525050505060405161189291906121ab565b5f604051808303815f865af19150503d805f81146118cb576040519150601f19603f3d011682016040523d82523d5f602084013e6118d0565b606091505b50915091508115806118e3575060408151105b156118f2575f92505050611911565b5f8180602001905181019061190791906123e3565b5090508093505050505b949350505050565b5f73ffffffffffffffffffffffffffffffffffffffff82169050919050565b5f61194282611919565b9050919050565b61195281611938565b82525050565b5f60208201905061196b5f830184611949565b92915050565b5f819050919050565b61198381611971565b82525050565b5f60208201905061199c5f83018461197a565b92915050565b5f604051905090565b5f5ffd5b5f5ffd5b6119bc81611938565b81146119c6575f5ffd5b50565b5f813590506119d7816119b3565b92915050565b6119e681611971565b81146119f0575f5ffd5b50565b5f81359050611a01816119dd565b92915050565b5f5ffd5b5f5ffd5b5f5ffd5b5f5f83601f840112611a2857611a27611a07565b5b8235905067ffffffffffffffff811115611a4557611a44611a0b565b5b602083019150836001820283011115611a6157611a60611a0f565b5b9250929050565b5f5f5f5f60608587031215611a8057611a7f6119ab565b5b5f611a8d878288016119c9565b9450506020611a9e878288016119f3565b935050604085013567ffffffffffffffff811115611abf57611abe6119af565b5b611acb87828801611a13565b925092505092959194509250565b5f8115159050919050565b611aed81611ad9565b82525050565b5f602082019050611b065f830184611ae4565b92915050565b5f81519050611b1a816119b3565b92915050565b5f60208284031215611b3557611b346119ab565b5b5f611b4284828501611b0c565b91505092915050565b5f82825260208201905092915050565b7f434f4e54524f4c4c4552000000000000000000000000000000000000000000005f82015250565b5f611b8f600a83611b4b565b9150611b9a82611b5b565b602082019050919050565b5f6020820190508181035f830152611bbc81611b83565b9050919050565b7f52455345525645000000000000000000000000000000000000000000000000005f82015250565b5f611bf7600783611b4b565b9150611c0282611bc3565b602082019050919050565b5f6020820190508181035f830152611c2481611beb565b9050919050565b7f444953545249425554494f4e5f48454c504552000000000000000000000000005f82015250565b5f611c5f601383611b4b565b9150611c6a82611c2b565b602082019050919050565b5f6020820190508181035f830152611c8c81611c53565b9050919050565b7f474f4f44444f4c4c4152000000000000000000000000000000000000000000005f82015250565b5f611cc7600a83611b4b565b9150611cd282611c93565b602082019050919050565b5f6020820190508181035f830152611cf481611cbb565b9050919050565b7f43444149000000000000000000000000000000000000000000000000000000005f82015250565b5f611d2f600483611b4b565b9150611d3a82611cfb565b602082019050919050565b5f6020820190508181035f830152611d5c81611d23565b9050919050565b5f81519050611d71816119dd565b92915050565b5f60208284031215611d8c57611d8b6119ab565b5b5f611d9984828501611d63565b91505092915050565b7f4e487b71000000000000000000000000000000000000000000000000000000005f52601160045260245ffd5b5f611dd982611971565b9150611de483611971565b9250828203905081811115611dfc57611dfb611da2565b5b92915050565b5f604082019050611e155f830185611949565b611e22602083018461197a565b9392505050565b611e3281611ad9565b8114611e3c575f5ffd5b50565b5f81519050611e4d81611e29565b92915050565b5f60208284031215611e6857611e676119ab565b5b5f611e7584828501611e3f565b91505092915050565b5f819050919050565b5f819050919050565b5f611eaa611ea5611ea084611e7e565b611e87565b611971565b9050919050565b611eba81611e90565b82525050565b5f608082019050611ed35f83018761197a565b611ee06020830186611eb1565b611eed6040830185611949565b611efa6060830184611949565b95945050505050565b5f5f60408385031215611f1957611f186119ab565b5b5f611f2685828601611d63565b9250506020611f3785828601611d63565b9150509250929050565b5f819050919050565b611f5381611f41565b82525050565b5f602082019050611f6c5f830184611f4a565b92915050565b5f604082019050611f855f830185611f4a565b611f92602083018461197a565b9392505050565b7f4e487b71000000000000000000000000000000000000000000000000000000005f52601260045260245ffd5b5f611fd082611971565b9150611fdb83611971565b925082611feb57611fea611f99565b5b828204905092915050565b5f61200082611971565b915061200b83611971565b925082820190508082111561202357612022611da2565b5b92915050565b5f61203382611971565b91507fffffffffffffffffffffffffffffffffffffffffffffffffffffffffffffffff820361206557612064611da2565b5b600182019050919050565b5f6060820190506120835f830186611949565b6120906020830185611949565b61209d604083018461197a565b949350505050565b5f63ffffffff82169050919050565b6120bd816120a5565b82525050565b6120cc81611938565b82525050565b5f60ff82169050919050565b6120e7816120d2565b82525050565b608082015f8201516121015f8501826120b4565b50602082015161211460208501826120b4565b50604082015161212760408501826120c3565b50606082015161213a60608501826120de565b50505050565b5f6080820190506121535f8301846120ed565b92915050565b5f81519050919050565b5f81905092915050565b8281835e5f83830152505050565b5f61218582612159565b61218f8185612163565b935061219f81856020860161216d565b80840191505092915050565b5f6121b6828461217b565b915081905092915050565b5f6121cb82611919565b9050919050565b6121db816121c1565b81146121e5575f5ffd5b50565b5f815190506121f6816121d2565b92915050565b5f60208284031215612211576122106119ab565b5b5f61221e848285016121e8565b91505092915050565b5f82825260208201905092915050565b5f601f19601f8301169050919050565b5f61225182612159565b61225b8185612227565b935061226b81856020860161216d565b61227481612237565b840191505092915050565b5f6080820190506122925f830187611949565b81810360208301526122a48186612247565b90506122b36040830185611949565b6122c06060830184611eb1565b95945050505050565b5f5ffd5b7f4e487b71000000000000000000000000000000000000000000000000000000005f52604160045260245ffd5b61230382612237565b810181811067ffffffffffffffff82111715612322576123216122cd565b5b80604052505050565b5f6123346119a2565b905061234082826122fa565b919050565b5f67ffffffffffffffff82111561235f5761235e6122cd565b5b61236882612237565b9050602081019050919050565b5f61238761238284612345565b61232b565b9050828152602081018484840111156123a3576123a26122c9565b5b6123ae84828561216d565b509392505050565b5f82601f8301126123ca576123c9611a07565b5b81516123da848260208601612375565b91505092915050565b5f5f604083850312156123f9576123f86119ab565b5b5f61240685828601611e3f565b925050602083015167ffffffffffffffff811115612427576124266119af565b5b612433858286016123b6565b915050925092905056fea2646970667358221220dfed25e6666c407088ca7874fac0fcfa56b9693259222ad8f6ec384c122f1a8d64736f6c634300081e0033","linkReferences":{}},"methodIdentifiers":{"executeOnOpportunity()":"3c2448ed","onTokenTransfer(address,uint256,bytes)":"a4c0ed36","profitAmount()":"5ff972cc","profitToken()":"49343624"},"id":0}