{"abi":[{"type":"constructor","inputs":[],"stateMutability":"nonpayable"},{"type":"receive","stateMutability":"payable"},{"type":"function","name":"executeOnOpportunity","inputs":[],"outputs":[],"stateMutability":"nonpayable"},{"type":"function","name":"onTokenTransfer","inputs":[{"name":"","type":"address","internalType":"address"},{"name":"","type":"uint256","internalType":"uint256"},{"name":"","type":"bytes","internalType":"bytes"}],"outputs":[{"name":"","type":"bool","internalType":"bool"}],"stateMutability":"pure"},{"type":"function","name":"profitAmount","inputs":[],"outputs":[{"name":"","type":"uint256","internalType":"uint256"}],"stateMutability":"view"},{"type":"function","name":"profitToken","inputs":[],"outputs":[{"name":"","type":"address","internalType":"address"}],"stateMutability":"view"},{"type":"error","name":"MintDidNotProduceGd","inputs":[]},{"type":"error","name":"MintFailed","inputs":[]},{"type":"error","name":"MissingCDai","inputs":[]},{"type":"error","name":"MissingController","inputs":[]},{"type":"error","name":"MissingGoodDollar","inputs":[]},{"type":"error","name":"MissingHelper","inputs":[]},{"type":"error","name":"MissingNameService","inputs":[]},{"type":"error","name":"MissingReserve","inputs":[]},{"type":"error","name":"RedirectFailed","inputs":[]},{"type":"error","name":"RemainingCapExhausted","inputs":[]},{"type":"error","name":"SellDidNotProduceProfit","inputs":[]},{"type":"error","name":"StaleAvatarNotFound","inputs":[]}],"bytecode":{"object":"0x60808060405234601557611239908161001a8239f35b5f80fdfe608080604052600436101561001c575b50361561001a575f80fd5b005b5f3560e01c9081633c2448ed146101065750806349343624146100df5780635ff972cc146100c25763a4c0ed3614610054575f61000f565b346100be5760603660031901126100be576004356001600160a01b038116036100be5760443567ffffffffffffffff81116100be57366023820112156100be57806004013567ffffffffffffffff81116100be57369101602401116100be57602060405160018152f35b5f80fd5b346100be575f3660031901126100be576020600154604051908152f35b346100be575f3660031901126100be575f546040516001600160a01b039091168152602090f35b346100be575f3660031901126100be575f80546001600160a01b0319168155600155630f98c9bf60e21b8152602081600481730c6c80d2061afa35e160f3799411d83bdeea0a5a5afa9081156105ef575f916109a1575b506001600160a01b031680156109925760405163bf40fac160e01b8152602060048201819052600a60248301526921a7a72a2927a62622a960b11b604483015281606481855afa9081156105ef575f91610973575b506001600160a01b03811615610915575b6001600160a01b031680156109065760405163bf40fac160e01b815260206004820181905260076024830152665245534552564560c81b604483015281606481865afa9081156105ef575f916108e7575b506001600160a01b03169081156108d857604051634899bb2760e01b8152602081600481865afa9081156105ef575f916108b9575b506001600160a01b03811615610845575b6001600160a01b0316928315610836576040519063bf40fac160e01b825260206004830152600a60248301526923a7a7a22227a62620a960b11b6044830152602082606481845afa9182156105ef575f92610815575b506001600160a01b0382169384156108065760405163f2c65bf960e01b815291602083600481855afa9283156105ef575f936107e5575b506001600160a01b0383161561077b575b506001600160a01b03821694851561076c576040516370a0823160e01b8152306004820152602081602481855afa9081156105ef575f9161073a575b506040516370a0823160e01b8152306004820152936020856024818b5afa9485156105ef575f95610706575b50604051632d77bef360e11b81526020816004818b5afa80156105ef57610390915f916106d7575b508a86610a2f565b956001600160a01b038716156106c8576103aa9185610c65565b80156106b9576103ed906040519063f8a9978f60e01b60208301528960248301523060448301526064820152606481526103e56084826109c0565b848789610fbe565b156106ab576040516370a0823160e01b815230600482015290602082602481865afa80156105ef575f90610677575b6104269250610a01565b9081156106685760205f9160446040518094819363095ea7b360e01b8352886004840152811960248401525af180156105ef57610625575b505f916084604092835194859384926309f1e04360e31b845260048401528160248401523060448401523060648401525af180156105ef576105fa575b506040516370a0823160e01b815230600482015290602082602481885afa80156105ef575f906105bb575b6104d09250610a01565b9384156105ac5760405191608083019383851067ffffffffffffffff86111761059857610567946040526001845260ff60208501600181526040860130815263ffffffff606088019260038452816040519963436cbd0d60e11b60208c0152511660248a01525116604488015260018060a01b039051166064870152511660848501526084845261056260a4856109c0565b610fbe565b15610589576bffffffffffffffffffffffff60a01b5f5416175f556001555f80f35b63613f5a7360e01b5f5260045ffd5b634e487b7160e01b5f52604160045260245ffd5b6309594f8960e01b5f5260045ffd5b506020823d6020116105e7575b816105d5602093836109c0565b810103126100be576104d091516104c6565b3d91506105c8565b6040513d5f823e3d90fd5b604090813d831161061e575b61061081836109c0565b810103126100be578561049b565b503d610606565b916020833d602011610660575b8161063f602093836109c0565b810103126100be5760846040926106565f95610a22565b509250509161045e565b3d9150610632565b63a0c063d160e01b5f5260045ffd5b506020823d6020116106a3575b81610691602093836109c0565b810103126100be57610426915161041c565b3d9150610684565b62ec6f7b60e31b5f5260045ffd5b63778d796f60e11b5f5260045ffd5b630b5997ef60e21b5f5260045ffd5b6106f9915060203d6020116106ff575b6106f181836109c0565b8101906109e2565b8b610388565b503d6106e7565b9094506020813d602011610732575b81610722602093836109c0565b810103126100be57519389610360565b3d9150610715565b90506020813d602011610764575b81610755602093836109c0565b810103126100be575188610334565b3d9150610748565b6302a6a0e360e31b5f5260045ffd5b60649192506020906040519283809263bf40fac160e01b825284600483015260046024830152634344414960e01b60448301525afa9081156105ef575f916107c6575b5090866102f8565b6107df915060203d6020116106ff576106f181836109c0565b866107be565b6107ff91935060203d6020116106ff576106f181836109c0565b91876102e7565b630fa01c8760e01b5f5260045ffd5b61082f91925060203d6020116106ff576106f181836109c0565b90856102b0565b63b54515a960e01b5f5260045ffd5b5060405163bf40fac160e01b815260206004820181905260136024830152722224a9aa2924a12aaa24a7a72fa422a62822a960691b604483015281606481875afa9081156105ef575f9161089a575b5061025a565b6108b3915060203d6020116106ff576106f181836109c0565b84610894565b6108d2915060203d6020116106ff576106f181836109c0565b84610249565b631f36603160e01b5f5260045ffd5b610900915060203d6020116106ff576106f181836109c0565b83610214565b6302e9583560e51b5f5260045ffd5b50604051634162169f60e01b8152602081600481730c6c80d2061afa35e160f3799411d83bdeea0a5a5afa9081156105ef575f91610954575b506101c3565b61096d915060203d6020116106ff576106f181836109c0565b8261094e565b61098c915060203d6020116106ff576106f181836109c0565b826101b2565b6383432e1360e01b5f5260045ffd5b6109ba915060203d6020116106ff576106f181836109c0565b8161015d565b90601f8019910116810190811067ffffffffffffffff82111761059857604052565b908160209103126100be57516001600160a01b03811681036100be5790565b91908203918211610a0e57565b634e487b7160e01b5f52601160045260245ffd5b519081151582036100be57565b60405163ca15c87360e01b81527f82ce2ced7fc86cde9b16f1f3a5508a82078c42c54a7cf0af011ce529199a18bb600482015292916001600160a01b0390911690602084602481855afa9384156105ef575f94610c31575b5060405163ca15c87360e01b81525f600482015292906001600160a01b0316602084602481845afa9384156105ef575f94610bfd575b505f5b858110610ad1575050505050505f90565b604051632404341f60e21b81527f82ce2ced7fc86cde9b16f1f3a5508a82078c42c54a7cf0af011ce529199a18bb600482015260248101829052602081604481885afa9081156105ef575f91610bdf575b506001600160a01b03811680158015610bcd575b610bc3575f5b878110610b50575050506001905b01610ac0565b604051632404341f60e21b81525f600482015260248101829052602081604481895afa80156105ef5783915f91610ba5575b506001600160a01b031614610b9957600101610b3c565b50509550505050505090565b610bbd915060203d81116106ff576106f181836109c0565b5f610b82565b5050600190610b4a565b506001600160a01b0385168114610b36565b610bf7915060203d81116106ff576106f181836109c0565b5f610b22565b9093506020813d602011610c29575b81610c19602093836109c0565b810103126100be5751925f610abd565b3d9150610c0c565b9093506020813d602011610c5d575b81610c4d602093836109c0565b810103126100be5751925f610a87565b3d9150610c40565b6040516318160ddd60e01b8152919392602090839060049082906001600160a01b03165afa9182156105ef575f92610f8a575b50604051631aa93a7560e11b81526001600160a01b03919091169190602081600481865afa9081156105ef575f91610f58575b5081811115610f505790610cde91610a01565b6040516370a0823160e01b815260048101839052909390916020836024816001600160a01b0386165afa9283156105ef575f93610f1b575b509160206004936040519485809263e092b06760e01b82525afa9283156105ef575f93610ef6575b506103e89004908115610eed575b620f42409260015b86851080610e69575b15610d6d57508360011b93610d54565b94959390919293808211610e61575b505f905b6020821080610e4e575b15610e4557610d998682610a01565b60011c860190818711610a0e5760405163354c4f3760e11b81526001600160a01b038616600482015260248101839052602081806044810103816001600160a01b0389165afa80156105ef5787915f91610e11575b5010610e085750905b5f198114610a0e5760010190610d80565b91955094610df7565b9150506020813d8211610e3d575b81610e2c602093836109c0565b810103126100be578690515f610dee565b3d9150610e1f565b94505050505090565b5060018601808711610a0e578111610d8a565b90505f610d7c565b5060405163354c4f3760e11b81526001600160a01b038416600482015260248101869052602081806044810103816001600160a01b0387165afa80156105ef5785915f91610eb9575b5010610d5d565b9150506020813d8211610ee5575b81610ed4602093836109c0565b810103126100be578490515f610eb2565b3d9150610ec7565b60019150610d4c565b6103e8919350610f149060203d6020116106ff576106f181836109c0565b9290610d3e565b92506020833d602011610f48575b81610f36602093836109c0565b810103126100be579151916020610d16565b3d9150610f29565b505f93505050565b90506020813d602011610f82575b81610f73602093836109c0565b810103126100be57515f610ccb565b3d9150610f66565b9091506020813d602011610fb6575b81610fa6602093836109c0565b810103126100be5751905f610c98565b3d9150610f99565b9290915f93833b61100b575b610fd6848484886110d3565b611001576001600160a01b0390811694168403610ff557505050505f90565b610ffe936110d3565b90565b5050505050600190565b93505f5f806040516020810190638da5cb5b60e01b8252600481526110316024826109c0565b5190875afa61103e6110a4565b908061107c575b611051575b5093610fca565b90506020818051810103126100be57602001516001600160a01b038116908190036100be575f61104a565b50602081511015611045565b67ffffffffffffffff811161059857601f01601f191660200190565b3d156110ce573d906110b582611088565b916110c360405193846109c0565b82523d5f602084013e565b606090565b90929192813b156111fb575f80949361115560c483966020604051948592828401986368db844d60e11b8a5260018060a01b031660248501526080604485015280519283918260a4870152018585015e8684838501015260018060a01b03166064830152856084830152601f801991011681010301601f1981018352826109c0565b51925af16111616110a4565b901580156111f0575b6111eb5780518101604082602083019203126100be5761118c60208301610a22565b9160408101519067ffffffffffffffff82116100be570181603f820112156100be5760208101516111bc81611088565b926111ca60405194856109c0565b818452604083830101116100be575f92816040602094018483015e01015290565b505f90565b50604081511061116a565b505050505f9056fea264697066735822122086a13d3fd915c9f4260183e2eb29a0dfaf4d60a2dff5520fbc9be1b5efdb3a2964736f6c634300081e0033","linkReferences":{}},"methodIdentifiers":{"executeOnOpportunity()":"3c2448ed","onTokenTransfer(address,uint256,bytes)":"a4c0ed36","profitAmount()":"5ff972cc","profitToken()":"49343624"},"id":0}