{"abi":[{"type":"constructor","inputs":[{"name":"underlying_","type":"address","internalType":"address"}],"stateMutability":"nonpayable"},{"type":"function","name":"burn","inputs":[{"name":"","type":"address","internalType":"address"},{"name":"","type":"uint256","internalType":"uint256"}],"outputs":[],"stateMutability":"pure"},{"type":"function","name":"expiry","inputs":[],"outputs":[{"name":"","type":"uint48","internalType":"uint48"}],"stateMutability":"pure"},{"type":"function","name":"underlying","inputs":[],"outputs":[{"name":"","type":"address","internalType":"contract IERC20"}],"stateMutability":"view"},{"type":"function","name":"underlyingToken","inputs":[],"outputs":[{"name":"","type":"address","internalType":"address"}],"stateMutability":"view"}],"bytecode":{"object":"0x60a034606b57601f6101ca38819003918201601f19168301916001600160401b03831184841017606f57808492602094604052833981010312606b57516001600160a01b0381168103606b576080526040516101469081610084823960805181818160a0015260e10152f35b5f80fd5b634e487b7160e01b5f52604160045260245ffdfe6080806040526004361015610012575f80fd5b5f3560e01c9081632495a599146100cf575080636f307dc31461008b5780639dc29fac146100665763e184c9be14610048575f80fd5b34610062575f3660031901126100625760206040515f8152f35b5f80fd5b34610062576040366003190112610062576004356001600160a01b0381160361006257005b34610062575f366003190112610062576040517f00000000000000000000000000000000000000000000000000000000000000006001600160a01b03168152602090f35b34610062575f366003190112610062577f00000000000000000000000000000000000000000000000000000000000000006001600160a01b03168152602090f3fea26469706673582212200070b3c14b4f5b433ca3a4024bc9eaa6e00f29bd09c14b2abbbb090f64e7f07b64736f6c634300081e0033","linkReferences":{}},"methodIdentifiers":{"burn(address,uint256)":"9dc29fac","expiry()":"e184c9be","underlying()":"6f307dc3","underlyingToken()":"2495a599"},"id":0}