{"abi":[{"type":"constructor","inputs":[],"stateMutability":"nonpayable"},{"type":"function","name":"burn","inputs":[{"name":"","type":"address","internalType":"address"},{"name":"","type":"uint256","internalType":"uint256"}],"outputs":[],"stateMutability":"pure"},{"type":"function","name":"expiry","inputs":[],"outputs":[{"name":"","type":"uint48","internalType":"uint48"}],"stateMutability":"pure"},{"type":"function","name":"setUnderlying","inputs":[{"name":"underlying_","type":"address","internalType":"address"}],"outputs":[],"stateMutability":"nonpayable"},{"type":"function","name":"underlying","inputs":[],"outputs":[{"name":"","type":"address","internalType":"address"}],"stateMutability":"view"}],"bytecode":{"object":"0x6080806040523460155761011a908161001a8239f35b5f80fdfe60808060405260043610156011575f80fd5b5f3560e01c9081636f307dc31460af575080639dc29fac146098578063bdb2321f1460605763e184c9be146043575f80fd5b34605c575f366003190112605c57602060405160018152f35b5f80fd5b34605c576020366003190112605c576001600160a01b03607d60cf565b166bffffffffffffffffffffffff60a01b5f5416175f555f80f35b34605c576040366003190112605c5760ad60cf565b005b34605c575f366003190112605c575f546001600160a01b03168152602090f35b600435906001600160a01b0382168203605c5756fea2646970667358221220a82e1b6cc9317242c0a044b2ca825fb3a42cce49ed7f868cc1f4d94d95f7c02a64736f6c634300081e0033","linkReferences":{}},"methodIdentifiers":{"burn(address,uint256)":"9dc29fac","expiry()":"e184c9be","setUnderlying(address)":"bdb2321f","underlying()":"6f307dc3"},"id":0}