{"abi":[{"type":"constructor","inputs":[{"name":"target_","type":"address","internalType":"address"},{"name":"parent_","type":"address","internalType":"address"}],"stateMutability":"payable"},{"type":"receive","stateMutability":"payable"},{"type":"function","name":"callWithdraw","inputs":[],"outputs":[{"name":"ok","type":"bool","internalType":"bool"},{"name":"ret","type":"bytes","internalType":"bytes"}],"stateMutability":"nonpayable"},{"type":"function","name":"joinErrorHash","inputs":[],"outputs":[{"name":"","type":"bytes32","internalType":"bytes32"}],"stateMutability":"view"},{"type":"function","name":"joined","inputs":[],"outputs":[{"name":"","type":"bool","internalType":"bool"}],"stateMutability":"view"},{"type":"function","name":"owner","inputs":[],"outputs":[{"name":"","type":"address","internalType":"address"}],"stateMutability":"view"},{"type":"function","name":"sweepEth","inputs":[{"name":"to","type":"address","internalType":"address payable"}],"outputs":[{"name":"amount","type":"uint256","internalType":"uint256"}],"stateMutability":"nonpayable"},{"type":"function","name":"target","inputs":[],"outputs":[{"name":"","type":"address","internalType":"address"}],"stateMutability":"view"}],"bytecode":{"object":"0x60c0604052604061055280380380916100178261013a565b60c03912610122575f80610029610183565b61003360e0610199565b336080528160a05260405160208101916302389a2960e41b835260018060a01b0316602482015260248152610069604482610160565b519134905af13d1561011a573d906001600160401b038211610115576040519161009d601f8201601f191660200184610160565b82523d5f602084013e5b6100bb8160ff80195f541691151516175f55565b1580610109575b6100fc575b6040516103a490816101ae82396080518181816096015281816101620152610292015260a0518181816101b801526102300152f35b602001516001555f6100c7565b506020815110156100c2565b610126565b6060906100a7565b5f80fd5b634e487b7160e01b5f52604160045260245ffd5b60c0601f91909101601f19168101906001600160401b0382119082101761011557604052565b601f909101601f19168101906001600160401b0382119082101761011557604052565b60c051906001600160a01b038216820361012257565b51906001600160a01b03821682036101225756fe608080604052600436101561001c575b50361561001a575f80fd5b005b5f3560e01c9081638da5cb5b1461028057508063af2b4ee21461025f578063d4b839921461021b578063dad901be1461014c578063e890d83e1461012f5763fe7746af1461006a575f61000f565b3461012b57602036600319011261012b576004356001600160a01b0381169081900361012b576100c4337f00000000000000000000000000000000000000000000000000000000000000006001600160a01b0316146102c1565b4790816100d7575b602082604051908152f35b5f80808481945af16100e761032f565b50156100f3575f6100cc565b60405162461bcd60e51b815260206004820152601060248201526f195d1a0b5cddd9595c0b59985a5b195960821b6044820152606490fd5b5f80fd5b3461012b575f36600319011261012b576020600154604051908152f35b3461012b575f36600319011261012b57610190337f00000000000000000000000000000000000000000000000000000000000000006001600160a01b0316146102c1565b5f806040516020810190633ccfd60b60e01b8252600481526101b36024826102f9565b5190827f00000000000000000000000000000000000000000000000000000000000000005af160606101e361032f565b916020604051938492151583526040828401528051918291826040860152018484015e5f828201840152601f01601f19168101030190f35b3461012b575f36600319011261012b576040517f00000000000000000000000000000000000000000000000000000000000000006001600160a01b03168152602090f35b3461012b575f36600319011261012b57602060ff5f54166040519015158152f35b3461012b575f36600319011261012b577f00000000000000000000000000000000000000000000000000000000000000006001600160a01b03168152602090f35b156102c857565b60405162461bcd60e51b81526020600482015260096024820152683737ba16b7bbb732b960b91b6044820152606490fd5b90601f8019910116810190811067ffffffffffffffff82111761031b57604052565b634e487b7160e01b5f52604160045260245ffd5b3d15610369573d9067ffffffffffffffff821161031b576040519161035e601f8201601f1916602001846102f9565b82523d5f602084013e565b60609056fea2646970667358221220f35f7937863324e4d666c0e0bb5fe7dc01bd7a49f40e42cd8efd289fb55b059164736f6c634300081e0033","linkReferences":{}},"methodIdentifiers":{"callWithdraw()":"dad901be","joinErrorHash()":"e890d83e","joined()":"af2b4ee2","owner()":"8da5cb5b","sweepEth(address)":"fe7746af","target()":"d4b83992"},"id":0}