{"abi":[{"type":"constructor","inputs":[],"stateMutability":"nonpayable"},{"type":"receive","stateMutability":"payable"},{"type":"function","name":"attackRid","inputs":[],"outputs":[{"name":"","type":"uint256","internalType":"uint256"}],"stateMutability":"view"},{"type":"function","name":"attackerPid","inputs":[],"outputs":[{"name":"","type":"uint256","internalType":"uint256"}],"stateMutability":"view"},{"type":"function","name":"calcIterations","inputs":[],"outputs":[{"name":"","type":"uint256","internalType":"uint256"}],"stateMutability":"view"},{"type":"function","name":"calcStepUsed","inputs":[],"outputs":[{"name":"","type":"bool","internalType":"bool"}],"stateMutability":"view"},{"type":"function","name":"executeOnOpportunity","inputs":[],"outputs":[],"stateMutability":"nonpayable"},{"type":"function","name":"finalClaimAmount","inputs":[],"outputs":[{"name":"","type":"uint256","internalType":"uint256"}],"stateMutability":"view"},{"type":"function","name":"forgedMintAmount","inputs":[],"outputs":[{"name":"","type":"uint256","internalType":"uint256"}],"stateMutability":"view"},{"type":"function","name":"hypothesisValidated","inputs":[],"outputs":[{"name":"","type":"bool","internalType":"bool"}],"stateMutability":"view"},{"type":"function","name":"joinBurnAdc","inputs":[],"outputs":[{"name":"","type":"uint256","internalType":"uint256"}],"stateMutability":"view"},{"type":"function","name":"joinValueUsed","inputs":[],"outputs":[{"name":"","type":"uint256","internalType":"uint256"}],"stateMutability":"view"},{"type":"function","name":"joinedGame","inputs":[],"outputs":[{"name":"","type":"bool","internalType":"bool"}],"stateMutability":"view"},{"type":"function","name":"lastFailure","inputs":[],"outputs":[{"name":"","type":"bytes32","internalType":"bytes32"}],"stateMutability":"view"},{"type":"function","name":"postJoinWithdrawBalance","inputs":[],"outputs":[{"name":"","type":"uint256","internalType":"uint256"}],"stateMutability":"view"},{"type":"function","name":"preJoinWithdrawBalance","inputs":[],"outputs":[{"name":"","type":"uint256","internalType":"uint256"}],"stateMutability":"view"},{"type":"function","name":"preMintWithdrawable","inputs":[],"outputs":[{"name":"","type":"uint256","internalType":"uint256"}],"stateMutability":"view"},{"type":"function","name":"profitAmount","inputs":[],"outputs":[{"name":"","type":"uint256","internalType":"uint256"}],"stateMutability":"view"},{"type":"function","name":"profitToken","inputs":[],"outputs":[{"name":"","type":"address","internalType":"address"}],"stateMutability":"pure"},{"type":"function","name":"receiveFlashLoan","inputs":[{"name":"tokens","type":"address[]","internalType":"contract IERC20Like[]"},{"name":"amounts","type":"uint256[]","internalType":"uint256[]"},{"name":"feeAmounts","type":"uint256[]","internalType":"uint256[]"},{"name":"userData","type":"bytes","internalType":"bytes"}],"outputs":[],"stateMutability":"nonpayable"},{"type":"function","name":"uniswapV2Call","inputs":[{"name":"sender","type":"address","internalType":"address"},{"name":"amount0","type":"uint256","internalType":"uint256"},{"name":"amount1","type":"uint256","internalType":"uint256"},{"name":"data","type":"bytes","internalType":"bytes"}],"outputs":[],"stateMutability":"nonpayable"},{"type":"function","name":"usedFlashloan","inputs":[],"outputs":[{"name":"","type":"bool","internalType":"bool"}],"stateMutability":"view"},{"type":"function","name":"withdrawBurnAdc","inputs":[],"outputs":[{"name":"","type":"uint256","internalType":"uint256"}],"stateMutability":"view"},{"type":"function","name":"withdrewProfit","inputs":[],"outputs":[{"name":"","type":"bool","internalType":"bool"}],"stateMutability":"view"}],"bytecode":{"object":"0x60808060405234601557613585908161001a8239f35b5f80fdfe608080604052600436101561001c575b50361561001a575f80fd5b005b5f905f3560e01c90816310d1e85c14610723575080631a83e1e91461070557806326470e67146106e75780633be4b4af146106c15780633c2448ed146106a5578063463defd114610682578063493436241461065a5780635f5c8f63146106345780635ff972cc1461061657806378326345146105f057806381d4eb9e146105d25780638d4b0c58146105b45780639ba5033b14610596578063a8b942c214610578578063b155693514610553578063c3a5a15414610535578063c53fab8b14610517578063ea7f216b146104f9578063ed7b07d4146104db578063f04f270714610154578063f16c6f75146101365763fc1471c90361000f57346101335780600319360112610133576020600d54604051908152f35b80fd5b50346101335780600319360112610133576020600e54604051908152f35b5034610133576080366003190112610133576004356001600160401b0381116103d757366023820112156103d757806004013561019081610a8c565b9161019e6040519384610a6b565b8183526024602084019260051b820101903682116104af57602401915b8183106104b7575050506024356001600160401b0381116104ab576101e4903690600401610aa3565b6044356001600160401b0381116104b357610203903690600401610aa3565b906064356001600160401b0381116104af57366023820112156104af578060040135938561023086610b00565b9261023e6040519485610a6b565b868452602084019636602482840101116104ab578060246020930189378401015273ba12222222228d8ba445958a75a0704d566bf2c833036104775760018151148061046c575b80610461575b15610429575f5160206135105f395f51905f52906001600160a01b03906102b190610e0e565b5116036103f25783602080926102d36102c986610e0e565b5160075414610b1b565b8051010103126103ee576102f66102fd916102f16103049551610ee3565b610e0e565b5191610e0e565b5190610e53565b61030d81611847565b6040519063a9059cbb60e01b825273ba12222222228d8ba445958a75a0704d566bf2c860048301526024820152602081604481855f5160206135105f395f51905f525af19081156103e35782916103a5575b50156103685780f35b60405162461bcd60e51b815260206004820152601560248201527418985b185b98d95c8b5c995c185e4b59985a5b1959605a1b6044820152606490fd5b90506020813d6020116103db575b816103c060209383610a6b565b810103126103d7576103d190610b54565b5f61035f565b5080fd5b3d91506103b3565b6040513d84823e3d90fd5b5f80fd5b60405162461bcd60e51b815260206004820152600f60248201526e3130b216b33630b9b416ba37b5b2b760891b6044820152606490fd5b60405162461bcd60e51b815260206004820152601060248201526f6261642d666c6173682d61727261797360801b6044820152606490fd5b50600184511461028b565b506001835114610285565b60405162461bcd60e51b815260206004820152600c60248201526b3737ba16b130b630b731b2b960a11b6044820152606490fd5b8280fd5b8480fd5b8380fd5b82356001600160a01b03811681036104d7578152602092830192016101bb565b8580fd5b50346101335780600319360112610133576020600f54604051908152f35b50346101335780600319360112610133576020601154604051908152f35b50346101335780600319360112610133576020600b54604051908152f35b50346101335780600319360112610133576020601454604051908152f35b5034610133578060031936011261013357602060ff600854821c166040519015158152f35b50346101335780600319360112610133576020600c54604051908152f35b50346101335780600319360112610133576020600a54604051908152f35b50346101335780600319360112610133576020600954604051908152f35b50346101335780600319360112610133576020601354604051908152f35b5034610133578060031936011261013357602060ff60085460181c166040519015158152f35b50346101335780600319360112610133576020600254604051908152f35b5034610133578060031936011261013357602060ff60085460081c166040519015158152f35b503461013357806003193601126101335760206040515f5160206135105f395f51905f528152f35b5034610133578060031936011261013357602060ff600854166040519015158152f35b50346101335780600319360112610133576106be610b8f565b80f35b5034610133578060031936011261013357602060ff60085460101c166040519015158152f35b50346101335780600319360112610133576020601054604051908152f35b50346101335780600319360112610133576020601254604051908152f35b9050346103ee5760803660031901126103ee576004356001600160a01b038116908190036103ee57602435606435916001600160401b0383116103ee57366023840112156103ee5782600401356001600160401b0381116103ee578301933660248601116103ee576006546001600160a01b031633036109ee575030036109bc5780156109b057602090925b6107bc6007548514610b1b565b829003126103ee5760246107d1910135610ee3565b6103e88102908082046103e8149015171561099c576103e590046001810180911161099c5760208161080561082c93611847565b60405163a9059cbb60e01b8152336004820152602481019190915291829081906044820190565b03815f5f5160206135105f395f51905f525af19081156108eb575f91610962575b5015610928576040516370a0823160e01b81523060048201526020816024815f5160206135105f395f51905f525afa9081156108eb575f916108f6575b5080610894575080f35b5f5160206135105f395f51905f523b156103ee5760405190632e1a7d4d60e01b825260048201525f81602481835f5160206135105f395f51905f525af180156108eb576108df575080f35b61001a91505f90610a6b565b6040513d5f823e3d90fd5b90506020813d602011610920575b8161091160209383610a6b565b810103126103ee57515f61088a565b3d9150610904565b60405162461bcd60e51b8152602060048201526012602482015271199b185cda0b5c995c185e4b59985a5b195960721b6044820152606490fd5b90506020813d602011610994575b8161097d60209383610a6b565b810103126103ee5761098e90610b54565b5f61084d565b3d9150610970565b634e487b7160e01b5f52601160045260245ffd5b506020604435926107af565b60405162461bcd60e51b815260206004820152600a6024820152693130b216b9b2b73232b960b11b6044820152606490fd5b62461bcd60e51b815260206004820152600e60248201526d3737ba16b33630b9b416b830b4b960911b6044820152606490fd5b604081019081106001600160401b03821117610a3c57604052565b634e487b7160e01b5f52604160045260245ffd5b608081019081106001600160401b03821117610a3c57604052565b90601f801991011681019081106001600160401b03821117610a3c57604052565b6001600160401b038111610a3c5760051b60200190565b9080601f830112156103ee578135610aba81610a8c565b92610ac86040519485610a6b565b81845260208085019260051b8201019283116103ee57602001905b828210610af05750505090565b8135815260209182019101610ae3565b6001600160401b038111610a3c57601f01601f191660200190565b15610b2257565b60405162461bcd60e51b815260206004820152600a6024820152696261642d626f72726f7760b01b6044820152606490fd5b519081151582036103ee57565b908160209103126103ee575190565b908160209103126103ee57516001600160a01b03811681036103ee5790565b60ff60035416610d14576003805460ff198116600117909155475f556040516370a0823160e01b81523060048201526020816024815f5160206135105f395f51905f525afa9081156108eb575f91610ddc575b506001556040519063d502db9760e01b825260206004830152600360248301526241444360e81b60448301526020826064817349e298b95bda30e6518509187ff348e01117f4045afa80156108eb576001925f91610dbd575b506101008360a81b039060081b16906affffffffffffffffffffff60a81b1617178060035560405163d502db9760e01b8152602060048201526006602482015265151250d2d15560d21b60448201526020816064817349e298b95bda30e6518509187ff348e01117f4045afa9081156108eb575f91610d8e575b50600480546001600160a01b0319166001600160a01b0392831690811790915560089290921c1615908115610d85575b50610d5957610cf2611a63565b610cfb81611be9565b610d058183611c54565b159182610d47575b5050610d1e575b610d1c611962565b565b7f4db6c84996cb55819be99506b0fee36546e41868d400ed9f4d1d700b9e8c6437601455610d14565b610d519250611e36565b155f80610d0d565b7f8c73e09f0afe3e186e8528434b6e8ae9a32fca539071cb27bdcbf69766735e73601455610d1c611962565b9050155f610ce5565b610db0915060203d602011610db6575b610da88183610a6b565b810190610b70565b5f610cb5565b503d610d9e565b610dd6915060203d602011610db657610da88183610a6b565b5f610c3b565b90506020813d602011610e06575b81610df760209383610a6b565b810103126103ee57515f610be2565b3d9150610dea565b805115610e1b5760200190565b634e487b7160e01b5f52603260045260245ffd5b805160011015610e1b5760400190565b8051821015610e1b5760209160051b010190565b9190820180921161099c57565b908160a09103126103ee578051916020820151916040810151916080606083015192015190565b90816101609103126103ee5780519160208201519160408101519160608201519160808101519160a08201519160c08101519160e0820151916101008101519161014061012083015192015190565b9190820391821161099c57565b60405163e6347b7160e01b8152906020826004815f5160206135305f395f51905f525afa9182156108eb575f92611813575b508160095560405190632f380b3560e01b825282600483015260a0826024815f5160206135305f395f51905f525afa9182156108eb575f926117dd575b506040519263a9da1fb960e01b845260048401526020836024815f5160206135305f395f51905f525afa9081156108eb575f916117a7575b610f98935081600c5561214b565b80600b55670de0b6b3a7640000811061178057610fb4906121cf565b9015611759578060115561055260405191610fd26020830184610a6b565b818352612fbe9260208101838582396110576040519160208084015f5160206135305f395f51905f52815273953ad059b61aa4a23fa48d5eca617d4920e3343e604086015260408552611026606086610a6b565b60405194859383850197518091895e840190838201905f8252519283915e01015f815203601f198101835282610a6b565b51902060405190602082019060ff60f81b82523060601b60218401527fb3c2c389b9fe5e506e7b42ccd48cbf9480a38ed8e6d69a605054d363093d14ff60358401526055830152605582526110ad607583610a6b565b905190206001600160a01b0316906001810190811061099c576110cf91612290565b15611731576110df600b546123ff565b600b549060405190808201938285106001600160401b03861117610a3c577fb3c2c389b9fe5e506e7b42ccd48cbf9480a38ed8e6d69a605054d363093d14ff94604092849283395f5160206135305f395f51905f52815273953ad059b61aa4a23fa48d5eca617d4920e3343e6020820152030191f580156108eb57600580546001600160a01b0319166001600160a01b03929092169182179055604051635795a77160e11b8152602081600481855afa9081156108eb575f916116f7575b50156116d0576040516302e79a0d60e01b8152600481018290526020816024815f5160206135305f395f51905f525afa9081156108eb575f9161169e575b5080600a558015611677576008805461ff0019166101001790556009546040516349c8e3bd60e11b81526001600160a01b038416600482015260248101829052909190610160816044815f5160206135305f395f51905f525afa9283156108eb575f925f925f95611634575b5060405163a9da1fb960e01b815260048101839052926020846024815f5160206135305f395f51905f525afa9384156108eb575f94611600575b5083600d5585600e55156115d45760405191636d8ed94160e01b8352600483015260248201526020816044815f5160206135305f395f51905f525afa9081156108eb575f916115a2575b50801561157757828082111561156e576112e491610ed6565b905b6001840180851161099c5784908211156115665761130391610ed6565b5f19810190811161099c575b8082101561155f57505b80600f558015611535576113306113399184610e53565b80601055612250565b901561150b57806012556001810180911161099c576113589084612290565b156114e257611377908261136e600f5483610e53565b6010549261244f565b11156114bb57604051636d6c80df60e11b81525f8160048183865af19081156108eb575f91611438575b50156114115760205f91630100000163ff0000ff19600854161760085560246040518094819363fe7746af60e01b83523060048401525af180156108eb576113e65750565b6114079060203d60201161140a575b6113ff8183610a6b565b810190610b61565b50565b503d6113f5565b507fea3959386f39f83261e91091deec85169879b04b0c7d80f40743ae99f5b707c3601455565b90503d805f833e6114498183610a6b565b81016040828203126103ee5761145e82610b54565b916020810151906001600160401b0382116103ee570181601f820112156103ee57805161148a81610b00565b926114986040519485610a6b565b818452602082840101116103ee575f928160208094018483015e0101525f6113a1565b507f0282b7a3ae06dc6568c51cc17acec38056f2caf49096aa4d8eda7beeed921f56601455565b5050507f12b94c4e830c0f4ac9cc81b753ebc278c926bc5c3cf0877b9384abd31a5ca153601455565b505050507f0979a7317e0219da9722092323576c646950b341c8bc7ccb4cc871bf0cc4b1ba601455565b505050507ff9637122f926e3e689a1b80d4606e3ded6d83076b9395c718fea9c0d0de0270f601455565b9050611319565b50505f61130f565b50505f906112e6565b50505050507f42421f62987a1e07ae83909cd61386bf144df26effdf78f0898b8cedfda92462601455565b90506020813d6020116115cc575b816115bd60209383610a6b565b810103126103ee57515f6112cb565b3d91506115b0565b5050505050507f1028c67f2c8960af1594fa9d57cacd30286a2fd2d77e8e1e07f01a1424a2e6f9601455565b9093506020813d60201161162c575b8161161c60209383610a6b565b810103126103ee5751925f611281565b3d915061160f565b919350935061165b91506101603d8111611670575b6116538183610a6b565b810190610e87565b5050975097955050925050509291935f611247565b503d611649565b50507ee9e3ed0b23fb3ead1dc7ee41d9d013f4c34d8213ece26ad76baea6dcdc9bf4601455565b90506020813d6020116116c8575b816116b960209383610a6b565b810103126103ee57515f6111db565b3d91506116ac565b507f41a078f3ef3b3937dd0372363d2b8c951f092cecacaafbe1963bd2e0e3b2a1d0601455565b90506020813d602011611729575b8161171260209383610a6b565b810103126103ee5761172390610b54565b5f61119d565b3d9150611705565b50507ff1e5f113472fbea4882cb71c527203b7c260c78199c9642014f40c85ad379108601455565b507ff68376ec6ca893ce76ae0d273e4eca7eaaf938fdd97440655f142002fa76e3a3601455565b507fd04fb9b6713b3197ac13d2f0f2600be00370dffc6c69d8a671217f3db1f61853601455565b90506020833d6020116117d5575b816117c260209383610a6b565b810103126103ee57610f98925190610f8a565b3d91506117b5565b61180091925060a03d60a01161180c575b6117f88183610a6b565b810190610e60565b5050509050905f610f52565b503d6117ee565b9091506020813d60201161183f575b8161182f60209383610a6b565b810103126103ee5751905f610f15565b3d9150611822565b6040516370a0823160e01b81523060048201526020816024815f5160206135105f395f51905f525afa9081156108eb575f91611930575b508181101561192c5761189091610ed6565b8047106118e7575f5160206135105f395f51905f523b156103ee575f60049160405192838092630d0e30db60e41b82525f5160206135105f395f51905f525af180156108eb576118dd5750565b5f610d1c91610a6b565b60405162461bcd60e51b815260206004820152601b60248201527f696e73756666696369656e742d776574682d666f722d726570617900000000006044820152606490fd5b5050565b90506020813d60201161195a575b8161194b60209383610a6b565b810103126103ee57515f61187e565b3d915061193e565b475f905f548082116119fd575b50506040516370a0823160e01b81523060048201526020816024815f5160206135105f395f51905f525afa9081156103e35782916119cb575b5060015490818111156119c4576119bf9250610ed6565b600255565b5050600255565b90506020813d6020116119f5575b816119e660209383610a6b565b810103126103ee57515f6119a8565b3d91506119d9565b611a0691610ed6565b5f5160206135105f395f51905f523b156103ee575f60049160405192838092630d0e30db60e41b82525f5160206135105f395f51905f525af180156108eb57611a50575b8061196f565b611a5c91505f90610a6b565b5f5f611a4a565b60405163e6347b7160e01b81526020816004815f5160206135305f395f51905f525afa9081156108eb575f91611bb7575b50604051632f380b3560e01b8152600481018290529060a0826024815f5160206135305f395f51905f525afa9182156108eb575f92611b91575b506040519063a9da1fb960e01b825260048201526020816024815f5160206135305f395f51905f525afa9081156108eb575f91611b5f575b5080821015611b5857505b680340aad21b3b700000811015611b4a576801158e460913d000001115611b3e57670de0b6b3a764000090565b6798a7d9b8314c000090565b506801ae361fc1451c000090565b9050611b11565b90506020813d602011611b89575b81611b7a60209383610a6b565b810103126103ee57515f611b06565b3d9150611b6d565b611bab91925060a03d60a01161180c576117f88183610a6b565b5050509050905f611ace565b90506020813d602011611be1575b81611bd260209383610a6b565b810103126103ee57515f611a94565b3d9150611bc5565b6801ae361fc1451c0000811015611c22576798a7d9b8314c00001115611c1557678ac7230489e8000090565b6801e5b8fa8fe2ac000090565b506804563918244f40000090565b805180835260209291819084018484015e5f828201840152601f01601f1916010190565b905f9164010000000064ff0000000019600854161760085581600755604090815192611c808385610a6b565b600184526020840190601f19840193843684375f5160206135105f395f51905f52611caa87610e0e565b52805191611cb88284610a6b565b600183526020830195368737611ccd83610e0e565b52805193602085015260208452611ce48185610a6b565b73ba12222222228d8ba445958a75a0704d566bf2c83b156103ee5751632e1c224f60e11b81523060048201526080602482015294516084860181905292938593909260a4850192915f5b818110611dd45750505060209060031985840301604486015251918281520191905f5b818110611dbb57505050611d7382915f94600319848303016064850152611c30565b03818373ba12222222228d8ba445958a75a0704d566bf2c85af19081611da6575b50611da0578060075590565b50600190565b611db39192505f90610a6b565b5f905f611d94565b8251845286945060209384019390920191600101611d51565b82516001600160a01b0316855288965060209485019490920191600101611d2e565b906002811015610e1b5760051b0190565b3d15611e31573d90611e1882610b00565b91611e266040519384610a6b565b82523d5f602084013e565b606090565b60405191611e4383610a21565b737a250d5630b4cf539739df2c5dacb4c659f2488d835273d9e1ce17f2641f24ae83637ab66a2cca9c378b9f602084015260405192606084018481106001600160401b03821117610a3c5760405273dac17f958d2ee523a2206206994597c13d831ec7845273a0b86991c6218b36c1d19d4a2e9eb0ce3606eb486020850152736b175474e89094c44da98b954eedeac495271d0f604085015264010000000064ff00000000196008541617600855816007555f935b60028510611f245750505050506bffffffffffffffffffffffff60a01b600654166006555f6007555f90565b60049160206001600160a01b03611f3b8884611df6565b51166040519485809263c45a015560e01b82525afa9283156108eb575f9361212b575b505f5b600381101561211e57600581901b83015160405163e6a4390560e01b81525f5160206135105f395f51905f5260048201526001600160a01b039182166024820152906020908290604490829089165afa9081156108eb575f91612100575b506001600160a01b0381169081156120f657604051630dfe168160e01b815290602082600481865afa9283156108eb575f5f5160206135105f395f51905f528195829583916120d8575b506001600160a01b031614918183146120d1578a925b82146120ca5781905b6bffffffffffffffffffffffff60a01b60065416176006556120a3604051918d60208401526020835261205c604084610a6b565b612095604051938492602084019763022c0d9f60e01b8952602485015260448401523060648401526080608484015260a4830190611c30565b03601f198101835282610a6b565b51925af16120af611e07565b506120be576001905b01611f61565b50505050505050600190565b8a90612028565b819261201f565b6120f0915060203d8111610db657610da88183610a6b565b5f612009565b50506001906120b8565b612118915060203d8111610db657610da88183610a6b565b5f611fbf565b5091509360010193611ef8565b61214491935060203d8111610db657610da88183610a6b565b915f611f5e565b91808210156121c75750905b6801ae361fc1451c0000811015806121b4575b6121a5576798a7d9b8314c000011159081612191575b50611b3e57670de0b6b3a764000090565b6801158e460913d00000915010155f612180565b50506801ae361fc1451c000090565b50680340aad21b3b70000082101561216a565b905090612157565b5f809160018060a01b0360045416906040516020810191635529f8cd60e01b83526024820152600160448201526044815261220b606482610a6b565b51915afa90612218611e07565b82158015612245575b61223d57602081519181808201938492010103126103ee575190565b505f91508190565b506020815110612221565b600454604051635529f8cd60e01b6020820190815260248201939093525f604480830182905282529283926001600160a01b03169161220b606482610a6b565b81156123f8576003546040516370a0823160e01b81526001600160a01b038381166004830181905293926020918391602491839160081c165afa9081156108eb575f916123c6575b50838110156123bd576122f56122ef859283610ed6565b83612633565b612378576123029161297a565b6003546040516370a0823160e01b815260048101929092526020908290602490829060081c6001600160a01b03165afa9081156108eb575f91612346575b50101590565b90506020813d602011612370575b8161236160209383610a6b565b810103126103ee57515f612340565b3d9150612354565b50506003546040516370a0823160e01b815260048101929092526020908290602490829060081c6001600160a01b03165afa9081156108eb575f916123465750101590565b50505050600190565b90506020813d6020116123f0575b816123e160209383610a6b565b810103126103ee57515f6122d8565b3d91506123d4565b5050600190565b8015611407575f5160206135105f395f51905f523b156103ee5760405190632e1a7d4d60e01b825260048201525f81602481835f5160206135105f395f51905f525af180156108eb576118dd5750565b9291925b81811080156125dd575b156125835761246c9082610ed6565b600a54905f5160206135305f395f51905f523b156103ee576040519163aed3d0dd60e01b835260048301526024820152606460448201525f81606481835f5160206135305f395f51905f525af190816125cd575b506124ee5750507f7e02ac2b4ea0b0b11740e3e00fb9cdaab47a8e8601ee35633352b4db0b4c926560145590565b6008805462ff000019166201000017905560138054600101908190556005546009546040516349c8e3bd60e11b81526001600160a01b0390921660048301526024820152909350909190610160816044815f5160206135305f395f51905f525afa80156108eb575f915f916125a0575b50809483858410159283612595575b50508115612589575b5061258357919091612453565b50505090565b6003915010155f612576565b10159150835f61256d565b90506125bb91506101603d8111611670576116538183610a6b565b5050975050509350505050905f61255e565b5f6125d791610a6b565b5f6124c0565b5082841061245d565b906004811015610e1b5760051b0190565b90602080835192838152019201905f5b8181106126145750505090565b82516001600160a01b0316845260209384019390920191600101612607565b906040519161264183610a21565b737a250d5630b4cf539739df2c5dacb4c659f2488d835273d9e1ce17f2641f24ae83637ab66a2cca9c378b9f60208401526040519161267f83610a50565b5f835273dac17f958d2ee523a2206206994597c13d831ec7602084015273a0b86991c6218b36c1d19d4a2e9eb0ce3606eb486040840152736b175474e89094c44da98b954eedeac495271d0f60608401525f5b600281106126e35750505050505f90565b5f5b600481106126f657506001016126d2565b9094906127156001600160a01b0361270e83886125e6565b5116612cdc565b612732816001600160a01b0361272b8a87611df6565b5116612d9e565b15612971575f806001600160a01b0361274b8a87611df6565b511660405160208101906307c0329d60e21b82528860248201526040604482015261277d8161209560648201896125f7565b51915afa612789611e07565b90158015612968575b6128dd5780518101906020818184019303126103ee576020810151906001600160401b0382116103ee57019080603f830112156103ee5760208201516127d781610a8c565b926127e56040519485610a6b565b8184526020808086019360051b830101019283116103ee57604001905b8282106129585750505061281590610e0e565b51801580156128e7575b6128dd575f918291612844816001600160a01b0361283d8d8a611df6565b5116612eb9565b826128916128b46001600160a01b0361285d8e8b611df6565b5116946040519283916020830196634401edf760e11b88528d6024850152604484015260a0606484015260c48301906125f7565b6001600160a01b038d1660848301524260a483015203601f198101835282610a6b565b51925af16128c0611e07565b506128d2576001905b019490946126e5565b505050505050600190565b50506001906128c9565b506040516370a0823160e01b81523060048201526020816024815f5160206135105f395f51905f525afa9081156108eb575f91612927575b50811161281f565b90506020813d8211612950575b8161294160209383610a6b565b810103126103ee57515f61291f565b3d9150612934565b8151815260209182019101612802565b50805115612792565b506001906128c9565b6040519061298782610a21565b737a250d5630b4cf539739df2c5dacb4c659f2488d825273d9e1ce17f2641f24ae83637ab66a2cca9c378b9f6020830152604051906129c582610a50565b5f825273dac17f958d2ee523a2206206994597c13d831ec7602083015273a0b86991c6218b36c1d19d4a2e9eb0ce3606eb486040830152736b175474e89094c44da98b954eedeac495271d0f60608301526040519260e084018481106001600160401b03821117610a3c57604052662386f26fc10000845266b1a2bc2ec5000060208501526702c68af0bb1400006040850152670de0b6b3a76400006060850152674563918244f400006080850152678ac7230489e8000060a08501526801158e460913d0000060c08501525f5b60028110612aa357505050505050565b5f5b60048110612ab65750600101612a93565b9396939592949192909190612ad66001600160a01b0361270e898b6125e6565b97612aed896001600160a01b0361272b8789611df6565b15612ccd575f5b6007811015612cb4576003546040516370a0823160e01b81526001600160a01b038a811660048301819052926020918391602491839160081c165afa80156108eb5785915f91612c80575b501015612c7357600582901b8501516040516370a0823160e01b81523060048201526020816024815f5160206135105f395f51905f525afa9081156108eb575f91612c42575b50808211612c3a575b508015612c2c575f6001939282828f612c18612bfe918e612bca8f612bbe879b8e8060a01b0361283d8487611df6565b8c8060a01b0392611df6565b5116956040519384926020840197635c11d79560e01b8952602485015286604485015260a0606485015260c48401906125f7565b9060848301524260a483015203601f198101835282610a6b565b51925af150612c25611e07565b5001612af4565b505050505050505092505050565b90505f612b8e565b90506020813d8211612c6b575b81612c5c60209383610a6b565b810103126103ee57515f612b85565b3d9150612c4f565b5050505050505092505050565b9150506020813d8211612cac575b81612c9b60209383610a6b565b810103126103ee578490515f612b3f565b3d9150612c8e565b50959493929660019198505b0196959094939296612aa5565b95949392966001919850612cc0565b6001600160a01b03169060608215612d4c5750604051612cfd608082610a6b565b60038152606036602083013780925f5160206135105f395f51905f52612d2283610e0e565b52612d2c82610e2f565b5260018060a01b0360035460081c1690805160021015610e1b5760600152565b604051919250612d5c8183610a6b565b60028252601f19013660208301375f5160206135105f395f51905f52612d8182610e0e565b5260035460081c6001600160a01b0316612d9a82610e2f565b5290565b60405163c45a015560e01b815291929190602090829060049082906001600160a01b03165afa9081156108eb575f91612e9a575b505f5b6001810180821161099c578451811015612e91576001600160a01b03612dfb8387610e3f565b5116906001600160a01b0390612e119087610e3f565b5160405163e6a4390560e01b815260048101939093521660248201526020816044816001600160a01b0387165afa9081156108eb575f91612e73575b506001600160a01b031615612e6c575f19811461099c57600101612dd5565b505f925050565b612e8b915060203d8111610db657610da88183610a6b565b5f612e4d565b50600193505050565b612eb3915060203d602011610db657610da88183610a6b565b5f612dd2565b9060405163095ea7b360e01b815260018060a01b03831660048201525f60248201526020816044815f5f5160206135105f395f51905f525af180156108eb57612f7b575b5060405163095ea7b360e01b81526001600160a01b039092166004830152602482015260208180604481015b03815f5f5160206135105f395f51905f525af180156108eb57612f495750565b6020813d602011612f73575b81612f6260209383610a6b565b810103126103ee5761140790610b54565b3d9150612f55565b906020823d602011612fb5575b81612f9560209383610a6b565b810103126103ee57612f2992612fac602093610b54565b50925090612efd565b3d9150612f8856fe60c0604052604061055280380380916100178261013a565b60c03912610122575f80610029610183565b61003360e0610199565b336080528160a05260405160208101916302389a2960e41b835260018060a01b0316602482015260248152610069604482610160565b519134905af13d1561011a573d906001600160401b038211610115576040519161009d601f8201601f191660200184610160565b82523d5f602084013e5b6100bb8160ff80195f541691151516175f55565b1580610109575b6100fc575b6040516103a490816101ae82396080518181816096015281816101620152610292015260a0518181816101b801526102300152f35b602001516001555f6100c7565b506020815110156100c2565b610126565b6060906100a7565b5f80fd5b634e487b7160e01b5f52604160045260245ffd5b60c0601f91909101601f19168101906001600160401b0382119082101761011557604052565b601f909101601f19168101906001600160401b0382119082101761011557604052565b60c051906001600160a01b038216820361012257565b51906001600160a01b03821682036101225756fe608080604052600436101561001c575b50361561001a575f80fd5b005b5f3560e01c9081638da5cb5b1461028057508063af2b4ee21461025f578063d4b839921461021b578063dad901be1461014c578063e890d83e1461012f5763fe7746af1461006a575f61000f565b3461012b57602036600319011261012b576004356001600160a01b0381169081900361012b576100c4337f00000000000000000000000000000000000000000000000000000000000000006001600160a01b0316146102c1565b4790816100d7575b602082604051908152f35b5f80808481945af16100e761032f565b50156100f3575f6100cc565b60405162461bcd60e51b815260206004820152601060248201526f195d1a0b5cddd9595c0b59985a5b195960821b6044820152606490fd5b5f80fd5b3461012b575f36600319011261012b576020600154604051908152f35b3461012b575f36600319011261012b57610190337f00000000000000000000000000000000000000000000000000000000000000006001600160a01b0316146102c1565b5f806040516020810190633ccfd60b60e01b8252600481526101b36024826102f9565b5190827f00000000000000000000000000000000000000000000000000000000000000005af160606101e361032f565b916020604051938492151583526040828401528051918291826040860152018484015e5f828201840152601f01601f19168101030190f35b3461012b575f36600319011261012b576040517f00000000000000000000000000000000000000000000000000000000000000006001600160a01b03168152602090f35b3461012b575f36600319011261012b57602060ff5f54166040519015158152f35b3461012b575f36600319011261012b577f00000000000000000000000000000000000000000000000000000000000000006001600160a01b03168152602090f35b156102c857565b60405162461bcd60e51b81526020600482015260096024820152683737ba16b7bbb732b960b91b6044820152606490fd5b90601f8019910116810190811067ffffffffffffffff82111761031b57604052565b634e487b7160e01b5f52604160045260245ffd5b3d15610369573d9067ffffffffffffffff821161031b576040519161035e601f8201601f1916602001846102f9565b82523d5f602084013e565b60609056fea2646970667358221220f35f7937863324e4d666c0e0bb5fe7dc01bd7a49f40e42cd8efd289fb55b059164736f6c634300081e0033000000000000000000000000c02aaa39b223fe8d0a0e5c4f27ead9083c756cc2000000000000000000000000de46fcf6ab7559e4355b8ee3d7fba0f2730cddd8a26469706673582212202f3ade9240d430217f02c886a4876edd124dc44d6f987d28404e2e609d12830164736f6c634300081e0033","linkReferences":{}},"methodIdentifiers":{"attackRid()":"8d4b0c58","attackerPid()":"9ba5033b","calcIterations()":"81d4eb9e","calcStepUsed()":"3be4b4af","executeOnOpportunity()":"3c2448ed","finalClaimAmount()":"26470e67","forgedMintAmount()":"ed7b07d4","hypothesisValidated()":"463defd1","joinBurnAdc()":"ea7f216b","joinValueUsed()":"c53fab8b","joinedGame()":"5f5c8f63","lastFailure()":"c3a5a154","postJoinWithdrawBalance()":"fc1471c9","preJoinWithdrawBalance()":"a8b942c2","preMintWithdrawable()":"f16c6f75","profitAmount()":"5ff972cc","profitToken()":"49343624","receiveFlashLoan(address[],uint256[],uint256[],bytes)":"f04f2707","uniswapV2Call(address,uint256,uint256,bytes)":"10d1e85c","usedFlashloan()":"b1556935","withdrawBurnAdc()":"1a83e1e9","withdrewProfit()":"78326345"},"id":0}