{"abi":[{"type":"constructor","inputs":[],"stateMutability":"nonpayable"},{"type":"function","name":"TARGET","inputs":[],"outputs":[{"name":"","type":"address","internalType":"address"}],"stateMutability":"view"},{"type":"function","name":"TRACE_IMPLEMENTATION","inputs":[],"outputs":[{"name":"","type":"address","internalType":"address"}],"stateMutability":"view"},{"type":"function","name":"deployerHint","inputs":[],"outputs":[{"name":"","type":"address","internalType":"address"}],"stateMutability":"view"},{"type":"function","name":"drainAttempted","inputs":[],"outputs":[{"name":"","type":"bool","internalType":"bool"}],"stateMutability":"view"},{"type":"function","name":"drainedPool","inputs":[],"outputs":[{"name":"","type":"address","internalType":"address"}],"stateMutability":"view"},{"type":"function","name":"executeCalled","inputs":[],"outputs":[{"name":"","type":"bool","internalType":"bool"}],"stateMutability":"view"},{"type":"function","name":"executeOnOpportunity","inputs":[],"outputs":[],"stateMutability":"nonpayable"},{"type":"function","name":"failureCode","inputs":[],"outputs":[{"name":"","type":"uint8","internalType":"uint8"}],"stateMutability":"view"},{"type":"function","name":"getCurrentInterestRate","inputs":[{"name":"","type":"uint256","internalType":"uint256"},{"name":"","type":"uint256","internalType":"uint256"}],"outputs":[{"name":"","type":"uint256","internalType":"uint256"}],"stateMutability":"pure"},{"type":"function","name":"hostileInitSucceeded","inputs":[],"outputs":[{"name":"","type":"bool","internalType":"bool"}],"stateMutability":"view"},{"type":"function","name":"hypothesisValidated","inputs":[],"outputs":[{"name":"","type":"bool","internalType":"bool"}],"stateMutability":"view"},{"type":"function","name":"implementationNonceHint","inputs":[],"outputs":[{"name":"","type":"uint256","internalType":"uint256"}],"stateMutability":"view"},{"type":"function","name":"initializerLockedOut","inputs":[],"outputs":[{"name":"","type":"bool","internalType":"bool"}],"stateMutability":"view"},{"type":"function","name":"lateInitAttemptInterestRate","inputs":[],"outputs":[{"name":"","type":"address","internalType":"address"}],"stateMutability":"view"},{"type":"function","name":"lateInitializerAttempted","inputs":[],"outputs":[{"name":"","type":"bool","internalType":"bool"}],"stateMutability":"view"},{"type":"function","name":"lateInitializerRejected","inputs":[],"outputs":[{"name":"","type":"bool","internalType":"bool"}],"stateMutability":"view"},{"type":"function","name":"lockoutCausedByInitFlag","inputs":[],"outputs":[{"name":"","type":"bool","internalType":"bool"}],"stateMutability":"view"},{"type":"function","name":"path0_uninitializedWindow","inputs":[],"outputs":[{"name":"","type":"bool","internalType":"bool"}],"stateMutability":"view"},{"type":"function","name":"path1_hostileInitFirst","inputs":[],"outputs":[{"name":"","type":"bool","internalType":"bool"}],"stateMutability":"view"},{"type":"function","name":"path2_legitimateInitializerLockedOut","inputs":[],"outputs":[{"name":"","type":"bool","internalType":"bool"}],"stateMutability":"view"},{"type":"function","name":"path3_privilegedDrainOrMisconfig","inputs":[],"outputs":[{"name":"","type":"bool","internalType":"bool"}],"stateMutability":"view"},{"type":"function","name":"privilegeMutationAttempted","inputs":[],"outputs":[{"name":"","type":"bool","internalType":"bool"}],"stateMutability":"view"},{"type":"function","name":"privilegeMutationProved","inputs":[],"outputs":[{"name":"","type":"bool","internalType":"bool"}],"stateMutability":"view"},{"type":"function","name":"profitAchieved","inputs":[],"outputs":[{"name":"","type":"bool","internalType":"bool"}],"stateMutability":"view"},{"type":"function","name":"profitAmount","inputs":[],"outputs":[{"name":"","type":"uint256","internalType":"uint256"}],"stateMutability":"view"},{"type":"function","name":"profitToken","inputs":[],"outputs":[{"name":"","type":"address","internalType":"address"}],"stateMutability":"view"},{"type":"function","name":"scannedNonceCount","inputs":[],"outputs":[{"name":"","type":"uint256","internalType":"uint256"}],"stateMutability":"view"},{"type":"function","name":"seizeAttempted","inputs":[],"outputs":[{"name":"","type":"bool","internalType":"bool"}],"stateMutability":"view"},{"type":"function","name":"seized","inputs":[],"outputs":[{"name":"","type":"bool","internalType":"bool"}],"stateMutability":"view"},{"type":"function","name":"seizedPoolCount","inputs":[],"outputs":[{"name":"","type":"uint256","internalType":"uint256"}],"stateMutability":"view"},{"type":"function","name":"seizedPoolForProof","inputs":[],"outputs":[{"name":"","type":"address","internalType":"address"}],"stateMutability":"view"},{"type":"function","name":"selectedToken0","inputs":[],"outputs":[{"name":"","type":"address","internalType":"address"}],"stateMutability":"view"},{"type":"function","name":"selectedToken1","inputs":[],"outputs":[{"name":"","type":"address","internalType":"address"}],"stateMutability":"view"},{"type":"function","name":"targetNonceHint","inputs":[],"outputs":[{"name":"","type":"uint256","internalType":"uint256"}],"stateMutability":"view"}],"bytecode":{"object":"0x60808060405234601557613478908161001a8239f35b5f80fdfe60806040526004361015610011575f80fd5b5f3560e01c80630d280111146102345780631663e4f11461022f5780631895f0351461022a5780631dd07bae146102255780631e5519c81461022057806321483c441461021b57806324a3dcc41461021657806325b89fb7146102115780632a6fc9831461020c5780633c2448ed146102075780634561761a14610202578063463defd1146101fd57806349343624146101f85780634c8f48bb146101f35780634e5bfee5146101ee578063509aa2df146101e957806357ae3162146101e45780635ff972cc146101df578063601cb0fe146101da57806373ed3b59146101d5578063752293bf146101d057806376dfd472146101cb5780637818ff4a146101c6578063813ae720146101c15780638a16ea30146101bc578063a54217d9146101b7578063a6c84c4f146101b2578063b1de9463146101ad578063b2477376146101a8578063b94b6e6c146101a3578063cc1f2afa1461019e578063e7539a3114610199578063eba04fa0146101945763f0a011761461018f575f80fd5b6106d2565b6106ad565b610688565b610661565b610639565b610614565b6105f2565b6105cd565b6105b0565b610589565b610561565b61053c565b610517565b6104f2565b6104cd565b6104a8565b61048b565b61046e565b610446565b610429565b61040e565b6103e7565b6103c2565b61039d565b610383565b61035b565b610336565b610312565b6102ea565b6102c2565b61029d565b61027a565b610255565b34610251575f366003190112610251576020600654604051908152f35b5f80fd5b34610251575f36600319011261025157602060ff60025460781c166040519015158152f35b34610251575f36600319011261025157602060ff60025460881c16604051908152f35b34610251575f36600319011261025157602060ff60025460081c166040519015158152f35b34610251575f366003190112610251576003546040516001600160a01b039091168152602090f35b34610251575f36600319011261025157600a546040516001600160a01b039091168152602090f35b34610251575f36600319011261025157602060ff600254821c166040519015158152f35b34610251575f36600319011261025157602060ff60025460181c166040519015158152f35b34610251575f366003190112610251576009546040516001600160a01b039091168152602090f35b34610251575f3660031901126102515761039b6106f7565b005b34610251575f36600319011261025157602060ff60025460701c166040519015158152f35b34610251575f36600319011261025157602060ff60025460601c166040519015158152f35b34610251575f366003190112610251575f546040516001600160a01b039091168152602090f35b346102515760403660031901126102515760206040515f8152f35b34610251575f366003190112610251576020600554604051908152f35b34610251575f366003190112610251576008546040516001600160a01b039091168152602090f35b34610251575f366003190112610251576020600754604051908152f35b34610251575f366003190112610251576020600154604051908152f35b34610251575f36600319011261025157602060ff60025460681c166040519015158152f35b34610251575f36600319011261025157602060ff60025460801c166040519015158152f35b34610251575f36600319011261025157602060ff60025460381c166040519015158152f35b34610251575f36600319011261025157602060ff60025460481c166040519015158152f35b34610251575f36600319011261025157602060ff60025460401c166040519015158152f35b34610251575f36600319011261025157600b546040516001600160a01b039091168152602090f35b34610251575f3660031901126102515760206040515f5160206134035f395f51905f528152f35b34610251575f366003190112610251576020600454604051908152f35b34610251575f36600319011261025157602060ff60025460281c166040519015158152f35b34610251575f36600319011261025157602060ff600254166040519015158152f35b34610251575f36600319011261025157602060ff60025460101c166040519015158152f35b34610251575f36600319011261025157600c546040516001600160a01b039091168152602090f35b34610251575f3660031901126102515760206040515f5160206134235f395f51905f528152f35b34610251575f36600319011261025157602060ff60025460501c166040519015158152f35b34610251575f36600319011261025157602060ff60025460301c166040519015158152f35b34610251575f36600319011261025157602060ff60025460581c166040519015158152f35b610709600160ff196002541617600255565b60025461071e9060081c60ff161590565b1590565b6107cd575b60025460ff607082901c16156107ab57506002546107459060201c60ff161590565b61079e575b60025460ff607882901c161561077c575060025461076c9060401c60ff161590565b61077257565b61077a610cdc565b565b60881c60ff161561078957565b6002805460ff60881b1916600360881b179055565b6107a6610a27565b61074a565b60881c60ff16156107b857565b6002805460ff60881b1916600160881b179055565b6107d5610801565b610723565b634e487b7160e01b5f52601160045260245ffd5b5f1981146107fc5760010190565b6107da565b61081561010061ff00196002541617600255565b61081d611c40565b600380546001600160a01b0319166001600160a01b0383161790555f5160206134035f395f51905f523f5f5160206134235f395f51905f523f6001600160a01b038316610878575b505050610870611167565b61077a611335565b60015b61100081111561088b5750610865565b806108986108fd92600655565b6108a28186610eba565b803f5f5160206134035f395f51905f526001600160a01b0383165f5160206134235f395f51905f528114610928575b1461091a575b80156109135785858214159182610908575b5050610902576108f89061149c565b6107ee565b61087b565b506107ee565b14159050855f6108e9565b50506107ee565b61092383600555565b6108d7565b61093185600455565b6108d1565b634e487b7160e01b5f52604160045260245ffd5b6040513d5f823e3d90fd5b90601f8019910116810190811067ffffffffffffffff82111761097757604052565b610936565b9061077a6040519283610955565b67ffffffffffffffff811161097757601f01601f191660200190565b9291926109b28261098a565b916109c06040519384610955565b829481845281830111610251578281602093845f96015e010152565b91906040838203126102515782518015158103610251579260208101519067ffffffffffffffff821161025157019080601f83011215610251578151610a24926020016109a6565b90565b610a4164010000000064ff00000000196002541617600255565b600d546001600160a01b0390610a609082165b6001600160a01b031690565b1615610c8b575b600854610a7c906001600160a01b0316610a54565b1561077a57600c80546001600160a01b03191630179055600d54610b32905f90610aae906001600160a01b0316610a54565b600854600c5460405163060a3a9160e21b81526001600160a01b039283166004820152736b175474e89094c44da98b954eedeac495271d0f602482015273dac17f958d2ee523a2206206994597c13d831ec760448201529116606482015260016084820181905260a4820181905260c48201529283919082908490829060e4820190565b03925af18015610c8657610b9f915f905f92610c5f575b506002805465ff00000000001916911560281b65ff0000000000169190911790555b60025460281c60ff169081610c4f575b5066ff00000000000060025491151560301b169066ff000000000000191617600255565b600254602881901c60ff169081610c41575b5080610c20575b610bd99060ff60381b60025491151560381b169060ff60381b191617600255565b6002805460ff60781b60ff603883901c16151560781b1660ff60781b1990911617905560025460381c60ff16610c0b57565b6002805460ff60601b1916600160601b179055565b50600854610bd990610c3a906001600160a01b0316611691565b9050610bb8565b60301c60ff1690505f610bb1565b610c599150611606565b5f610b7b565b610b6b9250610c8091503d805f833e610c788183610955565b8101906109dc565b91610b49565b61094a565b60405161020280820182811067ffffffffffffffff821117610977578291613201833903905ff08015610c8657600d80546001600160a01b0319166001600160a01b03909216919091179055610a67565b610cfe6801000000000000000068ff0000000000000000196002541617600255565b6008546001600160a01b031615610eaa57600854610d24906001600160a01b03166116a8565b60025460ff604882901c1615610e8457506002805460ff60501b1916600160501b179055600354610d5d906001600160a01b0316610a54565b610df3575b610d6a6117a5565b610d7261197a565b60015415610da6576002805460ff60581b1916600160581b1790555b6002805460ff60801b1916600160801b179055610c0b565b60025460481c60ff16610db557565b6002805464010000000160601b64ff000000ff60601b19909116179081905560881c60ff1661077a576002805460ff60881b1916600160891b179055565b5f5160206134235f395f51905f523f5f5160206134035f395f51905f523f60015b6006548111610e7c57600354610e6c9190610e399082906001600160a01b0316610eba565b803f80156109135784868214159182610e71575b505061090257610e5f61071a82611691565b610902576108f890611b4f565b610e14565b14159050845f610e4d565b505050610d62565b60ff9060881c81165b1615610e9557565b6002805460ff60881b19166001608a1b179055565b60025460ff9060881c8116610e8d565b610a5490610a249280155f14610f2c5750604051606b60f91b6020820152602560fa1b602182015260609190911b6001600160601b0319166022820152600160ff1b6036820152610f1881603781015b03601f198101835282610955565b80516020909101206001600160a01b031690565b607f8111610f8457604051606b60f91b6020820152602560fa1b602182015260609290921b6001600160601b031916602283015260f81b6001600160f81b0319166036820152610f7f8160378101610f0a565b610f18565b60ff8111610fe15760405160d760f81b6020820152602560fa1b602182015260609290921b6001600160601b0319166022830152608160f81b603683015260f81b6001600160f81b0319166037820152610f7f8160388101610f0a565b61ffff811161103f57604051601b60fb1b6020820152602560fa1b602182015260609290921b6001600160601b0319166022830152604160f91b603683015260f01b6001600160f01b0319166037820152610f7f8160398101610f0a565b62ffffff811161109e5760405160d960f81b6020820152602560fa1b602182015260609290921b6001600160601b0319166022830152608360f81b603683015260e81b6001600160e81b0319166037820152610f7f81603a8101610f0a565b604051606d60f91b6020820152602560fa1b602182015260609290921b6001600160601b0319166022830152602160fa1b603683015260e01b6001600160e01b0319166037820152610f7f81603b8101610f0a565b6001600160a01b03918216815291811660208301529091166040820152606460608201525f6080820181905260a082015260c00190565b3d15611154573d9061113b8261098a565b916111496040519384610955565b82523d5f602084013e565b606090565b90600182018092116107fc57565b5f5160206134035f395f51905f523f158015611319575b61077a576111985f5160206134035f395f51905f52611da8565b5f806040516020810190627fdd4560e01b82526111be81610f0a30888a602485016110f3565b5190825f5160206134035f395f51905f525af16111d961112a565b90156112f157506111f961071a5f5160206134035f395f51905f52611691565b6112ed5761121861071a82845f5160206134035f395f51905f52612092565b6112ed576112326201000062ff0000196002541617600255565b61124a630100000063ff000000196002541617600255565b6002805462ffffff60601b19166201010160601b1790556007546112769061127190611159565b600755565b6008546001600160a01b03161561128b575050565b600880546001600160a01b0319165f5160206134035f395f51905f5217905561077a916112d0905b60018060a01b03166001600160601b0360a01b600a541617600a55565b60018060a01b03166001600160601b0360a01b600b541617600b55565b5050565b90506112fd9150611606565b80611309575b6107b857565b5060025460881c60ff1615611303565b506113305f5160206134035f395f51905f52611691565b61117e565b5f5160206134235f395f51905f523f158015611480575b61077a576113665f5160206134235f395f51905f52611da8565b5f806040516020810190627fdd4560e01b825261138c81610f0a30888a602485016110f3565b5190825f5160206134235f395f51905f525af16113a761112a565b90156112f157506113c761071a5f5160206134235f395f51905f52611691565b6112ed576113e661071a82845f5160206134235f395f51905f52612092565b6112ed576114006201000062ff0000196002541617600255565b611418630100000063ff000000196002541617600255565b6002805462ffffff60601b19166201010160601b17905560075461143f9061127190611159565b6008546001600160a01b031615611454575050565b600880546001600160a01b0319165f5160206134235f395f51905f5217905561077a916112d0906112b3565b506114975f5160206134235f395f51905f52611691565b61134c565b803f1580156115ba575b6115b7576114b381611da8565b90915f806040516020810190627fdd4560e01b82526114db81610f0a30898b602485016110f3565b519082855af16114e961112a565b90156115aa57506114fc61071a82611691565b6115a55761150e61071a838584612092565b6115a5576115286201000062ff0000196002541617600255565b611540630100000063ff000000196002541617600255565b6002805462ffffff60601b19166201010160601b1790556007546115679061127190611159565b6008546001600160a01b03161561157d57505050565b61077a926112b36112d09260018060a01b03166001600160601b0360a01b6008541617600855565b505050565b9150506112fd9150611606565b50565b506115c481611691565b6114a6565b601c60206040516115db604082610955565b828152017f556e696c656e6456323a20504f4f4c20414c524541445920494e49540000000081522090565b604481511061168c5760208101516001600160e01b0319166307b9e43360e51b0161168c57611634906120f0565b80518101906020818184019303126102515760208101519067ffffffffffffffff821161025157019080603f83011215610251576020820151611679926040016109a6565b602081519101206116886115c9565b1490565b505f90565b61169a90611ce2565b6001600160a01b0316301490565b604051637374838160e01b60208201523060248201526116d99061071a906116d38160448101610f0a565b83612189565b6115b75760405163aad2476d60e01b6020820152600160248201526117099061071a906116d38160448101610f0a565b6115b757604051631e880e0960e11b6020820152600160248201526117399061071a906116d38160448101610f0a565b6115b7576040516307dc8ce360e01b6020820152600160248201526117699061071a906116d38160448101610f0a565b6115b75761177961179691611691565b60ff60481b60025491151560481b169060ff60481b191617600255565b60025460481c60ff16610d8e57565b6117be61071a5f5160206134035f395f51905f52611691565b61077a576118066117f36117de5f5160206134035f395f51905f526121b1565b91905f5160206134035f395f51905f526121d4565b5f5160206134035f395f51905f5261229b565b61181c5f5160206134035f395f51905f52612310565b6118325f5160206134035f395f51905f526123fd565b6118485f5160206134035f395f51905f526124ea565b61185e5f5160206134035f395f51905f526125d7565b6118745f5160206134035f395f51905f526126c4565b61188a5f5160206134035f395f51905f526127b1565b6118a05f5160206134035f395f51905f5261289e565b6118b65f5160206134035f395f51905f5261298b565b6118cc5f5160206134035f395f51905f52612a78565b6118e25f5160206134035f395f51905f52612b65565b6118f85f5160206134035f395f51905f52612c52565b61190e5f5160206134035f395f51905f52612d3f565b6119245f5160206134035f395f51905f52612e2c565b61193a5f5160206134035f395f51905f52612f19565b6119505f5160206134035f395f51905f52613006565b60015461195957565b600980546001600160a01b0319165f5160206134035f395f51905f52179055565b61199361071a5f5160206134235f395f51905f52611691565b61077a576119db6119c86119b35f5160206134235f395f51905f526121b1565b91905f5160206134235f395f51905f526121d4565b5f5160206134235f395f51905f5261229b565b6119f15f5160206134235f395f51905f52612310565b611a075f5160206134235f395f51905f526123fd565b611a1d5f5160206134235f395f51905f526124ea565b611a335f5160206134235f395f51905f526125d7565b611a495f5160206134235f395f51905f526126c4565b611a5f5f5160206134235f395f51905f526127b1565b611a755f5160206134235f395f51905f5261289e565b611a8b5f5160206134235f395f51905f5261298b565b611aa15f5160206134235f395f51905f52612a78565b611ab75f5160206134235f395f51905f52612b65565b611acd5f5160206134235f395f51905f52612c52565b611ae35f5160206134235f395f51905f52612d3f565b611af95f5160206134235f395f51905f52612e2c565b611b0f5f5160206134235f395f51905f52612f19565b611b255f5160206134235f395f51905f52613006565b600154611b2e57565b600980546001600160a01b0319165f5160206134235f395f51905f52179055565b611b5881611ce2565b306001600160a01b03909116036115b757611b8e611b7582611d22565b611b88611b8184611d50565b91846121d4565b8261229b565b611b9781612310565b611ba0816123fd565b611ba9816124ea565b611bb2816125d7565b611bbb816126c4565b611bc4816127b1565b611bcd8161289e565b611bd68161298b565b611bdf81612a78565b611be881612b65565b611bf181612c52565b611bfa81612d3f565b611c0381612e2c565b611c0c81612f19565b611c1581613006565b600154611c1f5750565b600980546001600160a01b0319166001600160a01b03909216919091179055565b5f905f5160206134035f395f51905f523f15611cdd575f80604051602081019063797a759360e11b825260048152611c79602482610955565b51905f5160206134035f395f51905f525afa611c9361112a565b9080611cd1575b611ca15750565b90915060208180518101031261025157602001516001600160a01b0381168103610251576001600160a01b031690565b50602081511015611c9a565b5f9150565b905f91803f15611d1c575f8091604051602081019063797a759360e11b825260048152611d10602482610955565b51915afa611c9361112a565b505f9150565b905f91803f15611d1c575f80916040516020810190630dfe168160e01b825260048152611d10602482610955565b905f91803f15611d1c575f8091604051602081019063d21220a760e01b825260048152611d10602482610955565b634e487b7160e01b5f52603260045260245ffd5b90600f811015611da35760051b0190565b611d7e565b5f915f91611db76101e061097c565b73c02aaa39b223fe8d0a0e5c4f27ead9083c756cc281529073a0b86991c6218b36c1d19d4a2e9eb0ce3606eb48602083015273dac17f958d2ee523a2206206994597c13d831ec76040830152736b175474e89094c44da98b954eedeac495271d0f6060830152732260fac5e5542a773aa44fbcfedf7c193bc2c599608083015273cbb7c0000ab88b473b1f5afd9ef808440eed33bf60a083015273ae7ab96520de3a18e5e111b5eaab095312d7fe8460c0830152737f39c581f595b53c5cb5bedea0dffd6a935e2ca060e0830152735a98fcbea516cf06857215779fd812ca3bef1b3261010083015273514910771af9ca656af840dff83e8264ecf986ca610120830152731f9840a85d5af5bf1d1762f925bdaddc4201f984610140830152737fc66500c84a76ad7e9c93437bfc5ac33e2ddae961016083015273d533a949740bb3306d119cc777fa900ba034cd52610180830152739f8f72aa9304c8b593d555f12ef6589cc3a579a26101a083015273c00e94cb662c3520282e6f5717214004a7f268886101c08301525f918291825b600f851061200657505050506001600160a01b038416159050611fea575b6001600160a01b0382168015908115611fd7575b50611f8157565b90506001600160a01b03821673c02aaa39b223fe8d0a0e5c4f27ead9083c756cc203611fbf5773a0b86991c6218b36c1d19d4a2e9eb0ce3606eb4890565b73c02aaa39b223fe8d0a0e5c4f27ead9083c756cc290565b6001600160a01b0385161490505f611f7a565b73c02aaa39b223fe8d0a0e5c4f27ead9083c756cc29250611f66565b61202761201a8685979a9599949699611d92565b516001600160a01b031690565b9161203285846130f3565b978289111561204f575050600190929691975b0193919290611f48565b93989097919290916001600160a01b03808316908b16141580612089575b61207c575b5050600190612045565b909750925060015f612072565b5084811161206d565b6120a461209e82611d22565b91611d50565b6001600160a01b03918216919092161491826120bf57505090565b6001600160a01b03918216911614919050565b919082039182116107fc57565b908151811015611da3570160200190565b90815191600483106121825760031983019283116107fc576121118361098a565b9261211f6040519485610955565b808452601f1961212e8261098a565b01366020860137835f5b8281106121455750505050565b8060040190816004116107fc5761216f612161600193876120df565b516001600160f81b03191690565b5f1a61217b82856120df565b5301612138565b5060609150565b803f156121ab57815f92918360208194519301915af16121a761112a565b5090565b50505f90565b90610a246121be83611d22565b92611d50565b600160ff1b81146107fc575f0390565b906001600160a01b038116156112ed576121ee82826130f3565b918215801561228b575b6115a5576122416122549161224f61221961221330876130f3565b966121c4565b604051638c3b690d60e01b602082015230602482015260448101919091529283906064820190565b03601f198101845283610955565b612189565b61225c575050565b61077a9161226a30836130f3565b90808211156122825761227c916120d2565b90613176565b50505f90613176565b506001600160ff1b0383116121f8565b906001600160a01b038116156112ed576122b582826130f3565b9182158015612300575b6115a5576122416122549161224f6122d730866130f3565b604051638c3b690d60e01b60208201523060248201526044810197909752959283906064820190565b506001600160ff1b0383116122bf565b61232e8173c02aaa39b223fe8d0a0e5c4f27ead9083c756cc26130f3565b80156112ed5761239c906123563073c02aaa39b223fe8d0a0e5c4f27ead9083c756cc26130f3565b9260405191635fef16a960e11b602084015230602484015273c02aaa39b223fe8d0a0e5c4f27ead9083c756cc2604484015260648301526064825261224f608483610955565b6123a35750565b6123c13073c02aaa39b223fe8d0a0e5c4f27ead9083c756cc26130f3565b90808211156123f25781039081116107fc5761077a905b73c02aaa39b223fe8d0a0e5c4f27ead9083c756cc2613176565b505061077a5f6123d8565b61241b8173a0b86991c6218b36c1d19d4a2e9eb0ce3606eb486130f3565b80156112ed57612489906124433073a0b86991c6218b36c1d19d4a2e9eb0ce3606eb486130f3565b9260405191635fef16a960e11b602084015230602484015273a0b86991c6218b36c1d19d4a2e9eb0ce3606eb48604484015260648301526064825261224f608483610955565b6124905750565b6124ae3073a0b86991c6218b36c1d19d4a2e9eb0ce3606eb486130f3565b90808211156124df5781039081116107fc5761077a905b73a0b86991c6218b36c1d19d4a2e9eb0ce3606eb48613176565b505061077a5f6124c5565b6125088173dac17f958d2ee523a2206206994597c13d831ec76130f3565b80156112ed57612576906125303073dac17f958d2ee523a2206206994597c13d831ec76130f3565b9260405191635fef16a960e11b602084015230602484015273dac17f958d2ee523a2206206994597c13d831ec7604484015260648301526064825261224f608483610955565b61257d5750565b61259b3073dac17f958d2ee523a2206206994597c13d831ec76130f3565b90808211156125cc5781039081116107fc5761077a905b73dac17f958d2ee523a2206206994597c13d831ec7613176565b505061077a5f6125b2565b6125f581736b175474e89094c44da98b954eedeac495271d0f6130f3565b80156112ed576126639061261d30736b175474e89094c44da98b954eedeac495271d0f6130f3565b9260405191635fef16a960e11b6020840152306024840152736b175474e89094c44da98b954eedeac495271d0f604484015260648301526064825261224f608483610955565b61266a5750565b61268830736b175474e89094c44da98b954eedeac495271d0f6130f3565b90808211156126b95781039081116107fc5761077a905b736b175474e89094c44da98b954eedeac495271d0f613176565b505061077a5f61269f565b6126e281732260fac5e5542a773aa44fbcfedf7c193bc2c5996130f3565b80156112ed576127509061270a30732260fac5e5542a773aa44fbcfedf7c193bc2c5996130f3565b9260405191635fef16a960e11b6020840152306024840152732260fac5e5542a773aa44fbcfedf7c193bc2c599604484015260648301526064825261224f608483610955565b6127575750565b61277530732260fac5e5542a773aa44fbcfedf7c193bc2c5996130f3565b90808211156127a65781039081116107fc5761077a905b732260fac5e5542a773aa44fbcfedf7c193bc2c599613176565b505061077a5f61278c565b6127cf8173cbb7c0000ab88b473b1f5afd9ef808440eed33bf6130f3565b80156112ed5761283d906127f73073cbb7c0000ab88b473b1f5afd9ef808440eed33bf6130f3565b9260405191635fef16a960e11b602084015230602484015273cbb7c0000ab88b473b1f5afd9ef808440eed33bf604484015260648301526064825261224f608483610955565b6128445750565b6128623073cbb7c0000ab88b473b1f5afd9ef808440eed33bf6130f3565b90808211156128935781039081116107fc5761077a905b73cbb7c0000ab88b473b1f5afd9ef808440eed33bf613176565b505061077a5f612879565b6128bc8173ae7ab96520de3a18e5e111b5eaab095312d7fe846130f3565b80156112ed5761292a906128e43073ae7ab96520de3a18e5e111b5eaab095312d7fe846130f3565b9260405191635fef16a960e11b602084015230602484015273ae7ab96520de3a18e5e111b5eaab095312d7fe84604484015260648301526064825261224f608483610955565b6129315750565b61294f3073ae7ab96520de3a18e5e111b5eaab095312d7fe846130f3565b90808211156129805781039081116107fc5761077a905b73ae7ab96520de3a18e5e111b5eaab095312d7fe84613176565b505061077a5f612966565b6129a981737f39c581f595b53c5cb5bedea0dffd6a935e2ca06130f3565b80156112ed57612a17906129d130737f39c581f595b53c5cb5bedea0dffd6a935e2ca06130f3565b9260405191635fef16a960e11b6020840152306024840152737f39c581f595b53c5cb5bedea0dffd6a935e2ca0604484015260648301526064825261224f608483610955565b612a1e5750565b612a3c30737f39c581f595b53c5cb5bedea0dffd6a935e2ca06130f3565b9080821115612a6d5781039081116107fc5761077a905b737f39c581f595b53c5cb5bedea0dffd6a935e2ca0613176565b505061077a5f612a53565b612a9681735a98fcbea516cf06857215779fd812ca3bef1b326130f3565b80156112ed57612b0490612abe30735a98fcbea516cf06857215779fd812ca3bef1b326130f3565b9260405191635fef16a960e11b6020840152306024840152735a98fcbea516cf06857215779fd812ca3bef1b32604484015260648301526064825261224f608483610955565b612b0b5750565b612b2930735a98fcbea516cf06857215779fd812ca3bef1b326130f3565b9080821115612b5a5781039081116107fc5761077a905b735a98fcbea516cf06857215779fd812ca3bef1b32613176565b505061077a5f612b40565b612b838173514910771af9ca656af840dff83e8264ecf986ca6130f3565b80156112ed57612bf190612bab3073514910771af9ca656af840dff83e8264ecf986ca6130f3565b9260405191635fef16a960e11b602084015230602484015273514910771af9ca656af840dff83e8264ecf986ca604484015260648301526064825261224f608483610955565b612bf85750565b612c163073514910771af9ca656af840dff83e8264ecf986ca6130f3565b9080821115612c475781039081116107fc5761077a905b73514910771af9ca656af840dff83e8264ecf986ca613176565b505061077a5f612c2d565b612c7081731f9840a85d5af5bf1d1762f925bdaddc4201f9846130f3565b80156112ed57612cde90612c9830731f9840a85d5af5bf1d1762f925bdaddc4201f9846130f3565b9260405191635fef16a960e11b6020840152306024840152731f9840a85d5af5bf1d1762f925bdaddc4201f984604484015260648301526064825261224f608483610955565b612ce55750565b612d0330731f9840a85d5af5bf1d1762f925bdaddc4201f9846130f3565b9080821115612d345781039081116107fc5761077a905b731f9840a85d5af5bf1d1762f925bdaddc4201f984613176565b505061077a5f612d1a565b612d5d81737fc66500c84a76ad7e9c93437bfc5ac33e2ddae96130f3565b80156112ed57612dcb90612d8530737fc66500c84a76ad7e9c93437bfc5ac33e2ddae96130f3565b9260405191635fef16a960e11b6020840152306024840152737fc66500c84a76ad7e9c93437bfc5ac33e2ddae9604484015260648301526064825261224f608483610955565b612dd25750565b612df030737fc66500c84a76ad7e9c93437bfc5ac33e2ddae96130f3565b9080821115612e215781039081116107fc5761077a905b737fc66500c84a76ad7e9c93437bfc5ac33e2ddae9613176565b505061077a5f612e07565b612e4a8173d533a949740bb3306d119cc777fa900ba034cd526130f3565b80156112ed57612eb890612e723073d533a949740bb3306d119cc777fa900ba034cd526130f3565b9260405191635fef16a960e11b602084015230602484015273d533a949740bb3306d119cc777fa900ba034cd52604484015260648301526064825261224f608483610955565b612ebf5750565b612edd3073d533a949740bb3306d119cc777fa900ba034cd526130f3565b9080821115612f0e5781039081116107fc5761077a905b73d533a949740bb3306d119cc777fa900ba034cd52613176565b505061077a5f612ef4565b612f3781739f8f72aa9304c8b593d555f12ef6589cc3a579a26130f3565b80156112ed57612fa590612f5f30739f8f72aa9304c8b593d555f12ef6589cc3a579a26130f3565b9260405191635fef16a960e11b6020840152306024840152739f8f72aa9304c8b593d555f12ef6589cc3a579a2604484015260648301526064825261224f608483610955565b612fac5750565b612fca30739f8f72aa9304c8b593d555f12ef6589cc3a579a26130f3565b9080821115612ffb5781039081116107fc5761077a905b739f8f72aa9304c8b593d555f12ef6589cc3a579a2613176565b505061077a5f612fe1565b6130248173c00e94cb662c3520282e6f5717214004a7f268886130f3565b80156112ed576130929061304c3073c00e94cb662c3520282e6f5717214004a7f268886130f3565b9260405191635fef16a960e11b602084015230602484015273c00e94cb662c3520282e6f5717214004a7f26888604484015260648301526064825261224f608483610955565b6130995750565b6130b73073c00e94cb662c3520282e6f5717214004a7f268886130f3565b90808211156130e85781039081116107fc5761077a905b73c00e94cb662c3520282e6f5717214004a7f26888613176565b505061077a5f6130ce565b5f9291813f1561316f575f91829160405160208101916370a0823160e01b835260018060a01b031660248201526024815261312f604482610955565b51915afa61313b61112a565b9080613163575b6131495750565b805191925060208082019282019190910312610251575190565b50602081511015613142565b505f925050565b9080156112ed57600154156131e1575f546001600160a01b038381169116146131cd5760015481116131a6575050565b6131c861077a9260018060a01b03166001600160601b0360a01b5f5416175f55565b600155565b90506001549081018091116107fc57600155565b9060018060a01b03166001600160601b0360a01b5f5416175f5560015556fe608080604052346015576101e8908161001a8239f35b5f80fdfe6080806040526004361015610012575f80fd5b5f3560e01c631828ea4414610025575f80fd5b3461018c5760e036600319011261018c576004356001600160a01b038116810361018c576024356001600160a01b038116919082900361018c576044356001600160a01b038116929083900361018c576064356001600160a01b038116939084900361018c576084359460ff861680960361018c5760a43560ff811680910361018c5760c4359060ff821680920361018c575f97889788956020860197627fdd4560e01b8952602487015260448601526064850152608484015260a483015260c482015260c481526100f860e482610190565b51925af13d15610183573d9067ffffffffffffffff821161016f576060906040519261012e6020601f19601f8401160185610190565b83523d5f602085013e5b6020604051938492151583526040828401528051918291826040860152018484015e5f828201840152601f01601f19168101030190f35b634e487b7160e01b5f52604160045260245ffd5b60608091610138565b5f80fd5b90601f8019910116810190811067ffffffffffffffff82111761016f5760405256fea2646970667358221220202dcd1968a3fef0b63dc87cf6d1eebfa2d0e7a6435493498c5e61d4cd0ebd8664736f6c634300081e0033000000000000000000000000c86d2555f8c360d3c5e8e4364f42c1f2d169330e0000000000000000000000004e34dd25dbd367b1bf82e1b5527dbbe799fad0d0a2646970667358221220ff6ba52dbe1c95df3f7f3cb97ed54bec5978d73f6d73eea60c6487ed598ca0d564736f6c634300081e0033","linkReferences":{}},"methodIdentifiers":{"TARGET()":"cc1f2afa","TRACE_IMPLEMENTATION()":"8a16ea30","deployerHint()":"1e5519c8","drainAttempted()":"e7539a31","drainedPool()":"2a6fc983","executeCalled()":"b1de9463","executeOnOpportunity()":"3c2448ed","failureCode()":"1895f035","getCurrentInterestRate(uint256,uint256)":"4c8f48bb","hostileInitSucceeded()":"25b89fb7","hypothesisValidated()":"463defd1","implementationNonceHint()":"4e5bfee5","initializerLockedOut()":"752293bf","lateInitAttemptInterestRate()":"b94b6e6c","lateInitializerAttempted()":"24a3dcc4","lateInitializerRejected()":"a6c84c4f","lockoutCausedByInitFlag()":"eba04fa0","path0_uninitializedWindow()":"601cb0fe","path1_hostileInitFirst()":"4561761a","path2_legitimateInitializerLockedOut()":"1663e4f1","path3_privilegedDrainOrMisconfig()":"73ed3b59","privilegeMutationAttempted()":"7818ff4a","privilegeMutationProved()":"76dfd472","profitAchieved()":"f0a01176","profitAmount()":"5ff972cc","profitToken()":"49343624","scannedNonceCount()":"0d280111","seizeAttempted()":"1dd07bae","seized()":"b2477376","seizedPoolCount()":"57ae3162","seizedPoolForProof()":"509aa2df","selectedToken0()":"21483c44","selectedToken1()":"813ae720","targetNonceHint()":"a54217d9"},"id":0}