{"abi":[{"type":"constructor","inputs":[],"stateMutability":"nonpayable"},{"type":"function","name":"attempt","inputs":[{"name":"target","type":"address","internalType":"address"},{"name":"token0_","type":"address","internalType":"address"},{"name":"token1_","type":"address","internalType":"address"},{"name":"interestRate_","type":"address","internalType":"address"},{"name":"ltv_","type":"uint8","internalType":"uint8"},{"name":"lb_","type":"uint8","internalType":"uint8"},{"name":"rf_","type":"uint8","internalType":"uint8"}],"outputs":[{"name":"success","type":"bool","internalType":"bool"},{"name":"revertData","type":"bytes","internalType":"bytes"}],"stateMutability":"nonpayable"}],"bytecode":{"object":"0x608080604052346015576101e8908161001a8239f35b5f80fdfe6080806040526004361015610012575f80fd5b5f3560e01c631828ea4414610025575f80fd5b3461018c5760e036600319011261018c576004356001600160a01b038116810361018c576024356001600160a01b038116919082900361018c576044356001600160a01b038116929083900361018c576064356001600160a01b038116939084900361018c576084359460ff861680960361018c5760a43560ff811680910361018c5760c4359060ff821680920361018c575f97889788956020860197627fdd4560e01b8952602487015260448601526064850152608484015260a483015260c482015260c481526100f860e482610190565b51925af13d15610183573d9067ffffffffffffffff821161016f576060906040519261012e6020601f19601f8401160185610190565b83523d5f602085013e5b6020604051938492151583526040828401528051918291826040860152018484015e5f828201840152601f01601f19168101030190f35b634e487b7160e01b5f52604160045260245ffd5b60608091610138565b5f80fd5b90601f8019910116810190811067ffffffffffffffff82111761016f5760405256fea2646970667358221220202dcd1968a3fef0b63dc87cf6d1eebfa2d0e7a6435493498c5e61d4cd0ebd8664736f6c634300081e0033","linkReferences":{}},"methodIdentifiers":{"attempt(address,address,address,address,uint8,uint8,uint8)":"1828ea44"},"id":0}