{"abi":[{"type":"constructor","inputs":[],"stateMutability":"nonpayable"},{"type":"function","name":"TARGET","inputs":[],"outputs":[{"name":"","type":"address","internalType":"address"}],"stateMutability":"view"},{"type":"function","name":"attemptUsdtPlan","inputs":[{"name":"flashAmount","type":"uint256","internalType":"uint256"},{"name":"manipulateBps","type":"uint256","internalType":"uint256"},{"name":"buyIndex","type":"uint8","internalType":"uint8"}],"outputs":[],"stateMutability":"nonpayable"},{"type":"function","name":"executeOnOpportunity","inputs":[],"outputs":[],"stateMutability":"nonpayable"},{"type":"function","name":"hypothesisValidated","inputs":[],"outputs":[{"name":"","type":"bool","internalType":"bool"}],"stateMutability":"view"},{"type":"function","name":"onFlashLoan","inputs":[{"name":"sender","type":"address","internalType":"address"},{"name":"token","type":"address","internalType":"address"},{"name":"amount","type":"uint256","internalType":"uint256"},{"name":"fee","type":"uint256","internalType":"uint256"},{"name":"data","type":"bytes","internalType":"bytes"}],"outputs":[],"stateMutability":"nonpayable"},{"type":"function","name":"pathUsed","inputs":[],"outputs":[{"name":"","type":"string","internalType":"string"}],"stateMutability":"view"},{"type":"function","name":"profitAmount","inputs":[],"outputs":[{"name":"","type":"uint256","internalType":"uint256"}],"stateMutability":"view"},{"type":"function","name":"profitToken","inputs":[],"outputs":[{"name":"","type":"address","internalType":"address"}],"stateMutability":"view"}],"bytecode":{"object":"0x6080604052348015600e575f5ffd5b506172818061001c5f395ff3fe608060405234801561000f575f5ffd5b5060043610610086575f3560e01c80635ff972cc116100595780635ff972cc146100ec5780637283898d1461010a578063c517189b14610128578063cc1f2afa1461014457610086565b806323e30c8b1461008a5780633c2448ed146100a6578063463defd1146100b057806349343624146100ce575b5f5ffd5b6100a4600480360381019061009f9190615065565b610162565b005b6100ae610406565b005b6100b8610ec8565b6040516100c59190615115565b60405180910390f35b6100d6610ede565b6040516100e3919061513d565b60405180910390f35b6100f4610f05565b6040516101019190615165565b60405180910390f35b610112610f0e565b60405161011f91906151ee565b60405180910390f35b610142600480360381019061013d9190615244565b610f9e565b005b61014c61121b565b604051610159919061513d565b60405180910390f35b60065f9054906101000a900460ff166101b0576040517f08c379a00000000000000000000000000000000000000000000000000000000081526004016101a7906152de565b60405180910390fd5b3073ffffffffffffffffffffffffffffffffffffffff168673ffffffffffffffffffffffffffffffffffffffff161461021e576040517f08c379a000000000000000000000000000000000000000000000000000000000815260040161021590615346565b60405180910390fd5b73dac17f958d2ee523a2206206994597c13d831ec773ffffffffffffffffffffffffffffffffffffffff168573ffffffffffffffffffffffffffffffffffffffff16146102a0576040517f08c379a0000000000000000000000000000000000000000000000000000000008152600401610297906153ae565b60405180910390fd5b5f737259e152103756e1616a77ae982353c3751a6a9090508073ffffffffffffffffffffffffffffffffffffffff16636b2ace876040518163ffffffff1660e01b8152600401602060405180830381865afa158015610301573d5f5f3e3d5ffd5b505050506040513d601f19601f8201168201806040525081019061032591906153e0565b73ffffffffffffffffffffffffffffffffffffffff163373ffffffffffffffffffffffffffffffffffffffff1614610392576040517f08c379a000000000000000000000000000000000000000000000000000000000815260040161038990615455565b60405180910390fd5b5f5f5f85858101906103a49190615244565b9250925092508783146103ec576040517f08c379a00000000000000000000000000000000000000000000000000000000081526004016103e3906154bd565b60405180910390fd5b6103fa848989858533611233565b50505050505050505050565b60025f9054906101000a900460ff16610ec657600160025f6101000a81548160ff0219169083151502179055505f737259e152103756e1616a77ae982353c3751a6a9090508073ffffffffffffffffffffffffffffffffffffffff16639b352ae16040518163ffffffff1660e01b8152600401602060405180830381865afa158015610494573d5f5f3e3d5ffd5b505050506040513d601f19601f820116820180604052508101906104b891906153e0565b5f5f6101000a81548173ffffffffffffffffffffffffffffffffffffffff021916908373ffffffffffffffffffffffffffffffffffffffff1602179055505f5f9054906101000a900473ffffffffffffffffffffffffffffffffffffffff1673ffffffffffffffffffffffffffffffffffffffff166370a08231306040518263ffffffff1660e01b815260040161054f919061513d565b602060405180830381865afa15801561056a573d5f5f3e3d5ffd5b505050506040513d601f19601f8201168201806040525081019061058e91906154ef565b6004819055507399d8a9c45b2eca8864373a26d1459e3dff1e17f373ffffffffffffffffffffffffffffffffffffffff165f5f9054906101000a900473ffffffffffffffffffffffffffffffffffffffff1673ffffffffffffffffffffffffffffffffffffffff16146106315760405180606001604052806022815260200161715060229139600390816106229190615744565b5061062b611647565b50610ec6565b5f8173ffffffffffffffffffffffffffffffffffffffff1663d8dfeb456040518163ffffffff1660e01b8152600401602060405180830381865afa15801561067b573d5f5f3e3d5ffd5b505050506040513d601f19601f8201168201806040525081019061069f91906153e0565b90505f73ffffffffffffffffffffffffffffffffffffffff168173ffffffffffffffffffffffffffffffffffffffff1603610728576040518060400160405280601f81526020017f696e6665617369626c655f756e696e697469616c697a65645f74617267657400815250600390816107189190615744565b50610721611647565b5050610ec6565b610731816116f8565b61076c57604051806060016040528060298152602001617172602991396003908161075c9190615744565b50610765611647565b5050610ec6565b8173ffffffffffffffffffffffffffffffffffffffff16633ba0b9a96040518163ffffffff1660e01b8152600401602060405180830381865afa1580156107b5573d5f5f3e3d5ffd5b505050506040513d601f19601f820116820180604052508101906107d991906154ef565b6005819055505f8273ffffffffffffffffffffffffffffffffffffffff166374645ff36040518163ffffffff1660e01b81526004015f60405180830381865afa158015610828573d5f5f3e3d5ffd5b505050506040513d5f823e3d601f19601f820116820180604052508101906108509190615900565b90508273ffffffffffffffffffffffffffffffffffffffff16637dc0d1d06040518163ffffffff1660e01b8152600401602060405180830381865afa15801561089b573d5f5f3e3d5ffd5b505050506040513d601f19601f820116820180604052508101906108bf91906153e0565b73ffffffffffffffffffffffffffffffffffffffff1663eeb8a8d3826040518263ffffffff1660e01b81526004016108f79190615999565b6040805180830381865afa92505050801561093057506040513d601f19601f8201168201806040525081019061092d91906159e3565b60015b156109925781801561094257505f8114155b801561095057508060055410155b1561098f5760405180606001604052806026815260200161719b602691396003908161097c9190615744565b50610985611647565b5050505050610ec6565b50505b505f8273ffffffffffffffffffffffffffffffffffffffff16636b2ace876040518163ffffffff1660e01b8152600401602060405180830381865afa1580156109dd573d5f5f3e3d5ffd5b505050506040513d601f19601f82011682018060405250810190610a0191906153e0565b73ffffffffffffffffffffffffffffffffffffffff1663f7888aec7399d8a9c45b2eca8864373a26d1459e3dff1e17f3737259e152103756e1616a77ae982353c3751a6a906040518363ffffffff1660e01b8152600401610a63929190615a21565b602060405180830381865afa158015610a7e573d5f5f3e3d5ffd5b505050506040513d601f19601f82011682018060405250810190610aa291906154ef565b90505f8373ffffffffffffffffffffffffffffffffffffffff16636b2ace876040518163ffffffff1660e01b8152600401602060405180830381865afa158015610aee573d5f5f3e3d5ffd5b505050506040513d601f19601f82011682018060405250810190610b1291906153e0565b73ffffffffffffffffffffffffffffffffffffffff1663566231187399d8a9c45b2eca8864373a26d1459e3dff1e17f3845f6040518463ffffffff1660e01b8152600401610b6293929190615a48565b602060405180830381865afa158015610b7d573d5f5f3e3d5ffd5b505050506040513d601f19601f82011682018060405250810190610ba191906154ef565b90505f610bae858361183f565b905066038d7ea4c680008111610c15576040518060400160405280601d81526020017f696e6665617369626c655f6e6f5f626f72726f775f636170616369747900000081525060039081610c029190615744565b50610c0b611647565b5050505050610ec6565b5f60405180610100016040528064174876e8008152602001643a35294400815260200164746a528800815260200164e8d4a5100081526020016501d1a94a200081526020016503a3529440008152602001650574fbde60008152602001650746a528800081525090505f60405180608001604052806109c481526020016113888152602001611d4c815260200161232881525090505f5f90505b600881108015610ccc5750600260019054906101000a900460ff16155b15610e5d575f5f90505b600481108015610cf35750600260019054906101000a900460ff16155b15610e49573073ffffffffffffffffffffffffffffffffffffffff1663c517189b858460088110610d2757610d26615a7d565b5b6020020151858460048110610d3f57610d3e615a7d565b5b602002015160016040518463ffffffff1660e01b8152600401610d6493929190615ae3565b5f604051808303815f87803b158015610d7b575f5ffd5b505af1925050508015610d8c575060015b50600260019054906101000a900460ff16610e49573073ffffffffffffffffffffffffffffffffffffffff1663c517189b858460088110610dd057610dcf615a7d565b5b6020020151858460048110610de857610de7615a7d565b5b602002015160026040518463ffffffff1660e01b8152600401610e0d93929190615b51565b5f604051808303815f87803b158015610e24575f5ffd5b505af1925050508015610e35575060015b508080610e4190615bb3565b915050610cd6565b508080610e5590615bb3565b915050610caf565b50600260019054906101000a900460ff16158015610e8857505f60038054610e8490615574565b9050145b15610eb6576040518060600160405280602c8152602001617220602c913960039081610eb49190615744565b505b610ebe611647565b505050505050505b565b5f600260019054906101000a900460ff16905090565b5f5f5f9054906101000a900473ffffffffffffffffffffffffffffffffffffffff16905090565b5f600154905090565b606060038054610f1d90615574565b80601f0160208091040260200160405190810160405280929190818152602001828054610f4990615574565b8015610f945780601f10610f6b57610100808354040283529160200191610f94565b820191905f5260205f20905b815481529060010190602001808311610f7757829003601f168201915b5050505050905090565b3073ffffffffffffffffffffffffffffffffffffffff163373ffffffffffffffffffffffffffffffffffffffff161461100c576040517f08c379a000000000000000000000000000000000000000000000000000000000815260040161100390615c44565b60405180910390fd5b60018160ff161480611021575060028160ff16145b611060576040517f08c379a000000000000000000000000000000000000000000000000000000000815260040161105790615cac565b60405180910390fd5b5f737259e152103756e1616a77ae982353c3751a6a9090505f8173ffffffffffffffffffffffffffffffffffffffff16636b2ace876040518163ffffffff1660e01b8152600401602060405180830381865afa1580156110c2573d5f5f3e3d5ffd5b505050506040513d601f19601f820116820180604052508101906110e691906153e0565b90505f8585856040516020016110fe93929190615cd9565b6040516020818303038152906040529050600160065f6101000a81548160ff0219169083151502179055508173ffffffffffffffffffffffffffffffffffffffff1663f1676d37303073dac17f958d2ee523a2206206994597c13d831ec78a866040518663ffffffff1660e01b815260040161117e959493929190615d0e565b5f604051808303815f87803b158015611195575f5ffd5b505af11580156111a7573d5f5f3e3d5ffd5b505050505f60065f6101000a81548160ff021916908315150217905550600260019054906101000a900460ff16611213576040517f08c379a000000000000000000000000000000000000000000000000000000000815260040161120a90615db0565b60405180910390fd5b505050505050565b737259e152103756e1616a77ae982353c3751a6a9081565b5f8673ffffffffffffffffffffffffffffffffffffffff1663d8dfeb456040518163ffffffff1660e01b8152600401602060405180830381865afa15801561127d573d5f5f3e3d5ffd5b505050506040513d601f19601f820116820180604052508101906112a191906153e0565b905073d51a44d3fae010294c616388b506acda1bfaae4673ffffffffffffffffffffffffffffffffffffffff168173ffffffffffffffffffffffffffffffffffffffff1663fc0c546a6040518163ffffffff1660e01b8152600401602060405180830381865afa158015611317573d5f5f3e3d5ffd5b505050506040513d601f19601f8201168201806040525081019061133b91906153e0565b73ffffffffffffffffffffffffffffffffffffffff1614611391576040517f08c379a000000000000000000000000000000000000000000000000000000000815260040161138890615e18565b60405180910390fd5b5f61271085886113a19190615e36565b6113ab9190615ea4565b90505f81886113ba9190615ed4565b90505f82141580156113cc57505f8114155b61140b576040517f08c379a000000000000000000000000000000000000000000000000000000000815260040161140290615f51565b60405180910390fd5b5f6114168684611bc8565b90505f810361145a576040517f08c379a000000000000000000000000000000000000000000000000000000000815260040161145190615fb9565b60405180910390fd5b5f61146483611fb8565b90505f81036114a8576040517f08c379a000000000000000000000000000000000000000000000000000000000815260040161149f90616021565b60405180910390fd5b5f6114b386836122a2565b90505f81036114f7576040517f08c379a00000000000000000000000000000000000000000000000000000000081526004016114ee90616089565b60405180910390fd5b5f6115038d8884612605565b90506115118d88838c612cae565b6115268b8d61152091906160a7565b89612e75565b6004547399d8a9c45b2eca8864373a26d1459e3dff1e17f373ffffffffffffffffffffffffffffffffffffffff166370a08231306040518263ffffffff1660e01b8152600401611576919061513d565b602060405180830381865afa158015611591573d5f5f3e3d5ffd5b505050506040513d601f19601f820116820180604052508101906115b591906154ef565b116115f5576040517f08c379a00000000000000000000000000000000000000000000000000000000081526004016115ec90616124565b60405180910390fd5b6001600260016101000a81548160ff0219169083151502179055506040518060800160405280605f81526020016171c1605f9139600390816116379190615744565b5050505050505050505050505050565b5f7399d8a9c45b2eca8864373a26d1459e3dff1e17f373ffffffffffffffffffffffffffffffffffffffff166370a08231306040518263ffffffff1660e01b8152600401611695919061513d565b602060405180830381865afa1580156116b0573d5f5f3e3d5ffd5b505050506040513d601f19601f820116820180604052508101906116d491906154ef565b90506004548111156116f557600454816116ee9190615ed4565b6001819055505b50565b5f8173ffffffffffffffffffffffffffffffffffffffff1663fc0c546a6040518163ffffffff1660e01b8152600401602060405180830381865afa92505050801561176157506040513d601f19601f8201168201806040525081019061175e91906153e0565b60015b61176d575f905061183a565b73d51a44d3fae010294c616388b506acda1bfaae4673ffffffffffffffffffffffffffffffffffffffff168173ffffffffffffffffffffffffffffffffffffffff16146117bd575f91505061183a565b508173ffffffffffffffffffffffffffffffffffffffff166399530b066040518163ffffffff1660e01b8152600401602060405180830381865afa92505050801561182657506040513d601f19601f8201168201806040525081019061182391906154ef565b60015b611832575f905061183a565b5f8114159150505b919050565b5f5f5f8473ffffffffffffffffffffffffffffffffffffffff1663e551d11d6040518163ffffffff1660e01b81526004016040805180830381865afa15801561188a573d5f5f3e3d5ffd5b505050506040513d601f19601f820116820180604052508101906118ae9190616187565b915091505f5f8673ffffffffffffffffffffffffffffffffffffffff16638285ef406040518163ffffffff1660e01b81526004016040805180830381865afa1580156118fc573d5f5f3e3d5ffd5b505050506040513d601f19601f820116820180604052508101906119209190616187565b915091505f8773ffffffffffffffffffffffffffffffffffffffff166348e4163e306040518263ffffffff1660e01b815260040161195e919061513d565b602060405180830381865afa158015611979573d5f5f3e3d5ffd5b505050506040513d601f19601f8201168201806040525081019061199d91906154ef565b90505f8873ffffffffffffffffffffffffffffffffffffffff1663aba024f46040518163ffffffff1660e01b8152600401602060405180830381865afa1580156119e9573d5f5f3e3d5ffd5b505050506040513d601f19601f82011682018060405250810190611a0d91906154ef565b90505f8890505f5b81811015611bb7575f6001808484611a2d91906160a7565b611a3791906160a7565b901c90505f620186a08583611a4c9190615e36565b611a569190615ea4565b90505f8183611a6591906160a7565b90505f818a6fffffffffffffffffffffffffffffffff16611a8691906160a7565b90508b6fffffffffffffffffffffffffffffffff16811115611aba57600184611aaf9190615ed4565b955050505050611a15565b5f5f8a6fffffffffffffffffffffffffffffffff1603611adc57829050611b6c565b8a6fffffffffffffffffffffffffffffffff168a6fffffffffffffffffffffffffffffffff1684611b0d9190615e36565b611b179190615ea4565b9050828a6fffffffffffffffffffffffffffffffff168c6fffffffffffffffffffffffffffffffff1683611b4b9190615e36565b611b559190615ea4565b1015611b6b57600181611b6891906160a7565b90505b5b8b6fffffffffffffffffffffffffffffffff16818a611b8b91906160a7565b1115611baa57600185611b9e9190615ed4565b96505050505050611a15565b8495505050505050611a15565b809850505050505050505092915050565b5f5f60018460ff1614611bef5773c02aaa39b223fe8d0a0e5c4f27ead9083c756cc2611c05565b732260fac5e5542a773aa44fbcfedf7c193bc2c5995b9050611c3a73dac17f958d2ee523a2206206994597c13d831ec773d51a44d3fae010294c616388b506acda1bfaae4685613016565b5f8173ffffffffffffffffffffffffffffffffffffffff166370a08231306040518263ffffffff1660e01b8152600401611c74919061513d565b602060405180830381865afa158015611c8f573d5f5f3e3d5ffd5b505050506040513d601f19601f82011682018060405250810190611cb391906154ef565b90505f5f8660ff16866001604051602401611cd194939291906161c5565b6040516020818303038152906040527f5b41b908000000000000000000000000000000000000000000000000000000007bffffffffffffffffffffffffffffffffffffffffffffffffffffffff19166020820180517bffffffffffffffffffffffffffffffffffffffffffffffffffffffff838183161783525050505090505f73d51a44d3fae010294c616388b506acda1bfaae4673ffffffffffffffffffffffffffffffffffffffff1682604051611d8a9190616242565b5f604051808303815f865af19150503d805f8114611dc3576040519150601f19603f3d011682016040523d82523d5f602084013e611dc8565b606091505b5050905080611ee9575f8760ff16876001604051602401611dec9493929190616273565b6040516020818303038152906040527f3df02124000000000000000000000000000000000000000000000000000000007bffffffffffffffffffffffffffffffffffffffffffffffffffffffff19166020820180517bffffffffffffffffffffffffffffffffffffffffffffffffffffffff8381831617835250505050915073d51a44d3fae010294c616388b506acda1bfaae4673ffffffffffffffffffffffffffffffffffffffff1682604051611ea49190616242565b5f604051808303815f865af19150503d805f8114611edd576040519150601f19603f3d011682016040523d82523d5f602084013e611ee2565b606091505b5050809150505b80611f29576040517f08c379a0000000000000000000000000000000000000000000000000000000008152600401611f2090616300565b60405180910390fd5b828473ffffffffffffffffffffffffffffffffffffffff166370a08231306040518263ffffffff1660e01b8152600401611f63919061513d565b602060405180830381865afa158015611f7e573d5f5f3e3d5ffd5b505050506040513d601f19601f82011682018060405250810190611fa291906154ef565b611fac9190615ed4565b94505050505092915050565b5f5f8203611fc8575f905061229d565b611ffb73dac17f958d2ee523a2206206994597c13d831ec773d51a44d3fae010294c616388b506acda1bfaae4684613016565b612003614f44565b82815f6003811061201757612016615a7d565b5b6020020181815250505f73d51a44d3fae010294c616388b506acda1bfaae4673ffffffffffffffffffffffffffffffffffffffff166370a08231306040518263ffffffff1660e01b815260040161206e919061513d565b602060405180830381865afa158015612089573d5f5f3e3d5ffd5b505050506040513d601f19601f820116820180604052508101906120ad91906154ef565b90505f8260016040516024016120c49291906163c3565b6040516020818303038152906040527f4515cef3000000000000000000000000000000000000000000000000000000007bffffffffffffffffffffffffffffffffffffffffffffffffffffffff19166020820180517bffffffffffffffffffffffffffffffffffffffffffffffffffffffff838183161783525050505090505f73d51a44d3fae010294c616388b506acda1bfaae4673ffffffffffffffffffffffffffffffffffffffff168260405161217d9190616242565b5f604051808303815f865af19150503d805f81146121b6576040519150601f19603f3d011682016040523d82523d5f602084013e6121bb565b606091505b50509050806121ff576040517f08c379a00000000000000000000000000000000000000000000000000000000081526004016121f690616434565b60405180910390fd5b8273d51a44d3fae010294c616388b506acda1bfaae4673ffffffffffffffffffffffffffffffffffffffff166370a08231306040518263ffffffff1660e01b815260040161224d919061513d565b602060405180830381865afa158015612268573d5f5f3e3d5ffd5b505050506040513d601f19601f8201168201806040525081019061228c91906154ef565b6122969190615ed4565b9450505050505b919050565b5f6122c273d51a44d3fae010294c616388b506acda1bfaae468484613016565b5f8373ffffffffffffffffffffffffffffffffffffffff166370a08231306040518263ffffffff1660e01b81526004016122fc919061513d565b602060405180830381865afa158015612317573d5f5f3e3d5ffd5b505050506040513d601f19601f8201168201806040525081019061233b91906154ef565b90505f8330604051602401612351929190616452565b6040516020818303038152906040527f6e553f65000000000000000000000000000000000000000000000000000000007bffffffffffffffffffffffffffffffffffffffffffffffffffffffff19166020820180517bffffffffffffffffffffffffffffffffffffffffffffffffffffffff838183161783525050505090505f8573ffffffffffffffffffffffffffffffffffffffff16826040516123f69190616242565b5f604051808303815f865af19150503d805f811461242f576040519150601f19603f3d011682016040523d82523d5f602084013e612434565b606091505b5050905080612537578460405160240161244e9190615165565b6040516020818303038152906040527fb6b55f25000000000000000000000000000000000000000000000000000000007bffffffffffffffffffffffffffffffffffffffffffffffffffffffff19166020820180517bffffffffffffffffffffffffffffffffffffffffffffffffffffffff838183161783525050505091508573ffffffffffffffffffffffffffffffffffffffff16826040516124f29190616242565b5f604051808303815f865af19150503d805f811461252b576040519150601f19603f3d011682016040523d82523d5f602084013e612530565b606091505b5050809150505b80612577576040517f08c379a000000000000000000000000000000000000000000000000000000000815260040161256e906164c3565b60405180910390fd5b828673ffffffffffffffffffffffffffffffffffffffff166370a08231306040518263ffffffff1660e01b81526004016125b1919061513d565b602060405180830381865afa1580156125cc573d5f5f3e3d5ffd5b505050506040513d601f19601f820116820180604052508101906125f091906154ef565b6125fa9190615ed4565b935050505092915050565b5f5f8473ffffffffffffffffffffffffffffffffffffffff16636b2ace876040518163ffffffff1660e01b8152600401602060405180830381865afa158015612650573d5f5f3e3d5ffd5b505050506040513d601f19601f8201168201806040525081019061267491906153e0565b9050612681848285613016565b5f8173ffffffffffffffffffffffffffffffffffffffff166302b9446c8630737259e152103756e1616a77ae982353c3751a6a90885f6040518663ffffffff1660e01b81526004016126d795949392919061651a565b60408051808303815f875af11580156126f2573d5f5f3e3d5ffd5b505050506040513d601f19601f82011682018060405250810190612716919061656b565b9150505f810361275b576040517f08c379a0000000000000000000000000000000000000000000000000000000008152600401612752906165f3565b60405180910390fd5b5f8273ffffffffffffffffffffffffffffffffffffffff1663f7888aec7399d8a9c45b2eca8864373a26d1459e3dff1e17f3737259e152103756e1616a77ae982353c3751a6a906040518363ffffffff1660e01b81526004016127bf929190615a21565b602060405180830381865afa1580156127da573d5f5f3e3d5ffd5b505050506040513d601f19601f820116820180604052508101906127fe91906154ef565b90505f8373ffffffffffffffffffffffffffffffffffffffff1663566231187399d8a9c45b2eca8864373a26d1459e3dff1e17f3845f6040518463ffffffff1660e01b815260040161285293929190615a48565b602060405180830381865afa15801561286d573d5f5f3e3d5ffd5b505050506040513d601f19601f8201168201806040525081019061289191906154ef565b90505f61289e898361183f565b90505f81036128e2576040517f08c379a00000000000000000000000000000000000000000000000000000000081526004016128d99061665b565b60405180910390fd5b5f6128f18a60055487856131c9565b90506001811115612937575f60016103e88361290d9190615ea4565b61291791906160a7565b90508181106129265781612933565b80826129329190615ed4565b5b9150505b5f8103612979576040517f08c379a0000000000000000000000000000000000000000000000000000000008152600401612970906166c3565b60405180910390fd5b5f6129878b60055484613253565b90508086116129cb576040517f08c379a00000000000000000000000000000000000000000000000000000000081526004016129c29061672b565b60405180910390fd5b80866129d79190615ed4565b97505f600367ffffffffffffffff8111156129f5576129f461551a565b5b604051908082528060200260200182016040528015612a235781602001602082028036833780820191505090505b509050600a815f81518110612a3b57612a3a615a7d565b5b602002602001019060ff16908160ff1681525050600581600181518110612a6557612a64615a7d565b5b602002602001019060ff16908160ff1681525050600481600281518110612a8f57612a8e615a7d565b5b602002602001019060ff16908160ff16815250505f600367ffffffffffffffff811115612abf57612abe61551a565b5b604051908082528060200260200182016040528015612aed5781602001602082028036833780820191505090505b5090505f600367ffffffffffffffff811115612b0c57612b0b61551a565b5b604051908082528060200260200182016040528015612b3f57816020015b6060815260200190600190039081612b2a5790505b509050612b4b8961379c565b306001604051602001612b6093929190616761565b604051602081830303815290604052815f81518110612b8257612b81615a7d565b5b6020026020010181905250612b968561379c565b30604051602001612ba8929190616796565b60405160208183030381529060405281600181518110612bcb57612bca615a7d565b5b6020026020010181905250612bdf8b61379c565b30604051602001612bf1929190616796565b60405160208183030381529060405281600281518110612c1457612c13615a7d565b5b60200260200101819052508d73ffffffffffffffffffffffffffffffffffffffff1663656f3d648484846040518463ffffffff1660e01b8152600401612c5c93929190616a08565b60408051808303815f875af1158015612c77573d5f5f3e3d5ffd5b505050506040513d601f19601f82011682018060405250810190612c9b919061656b565b5050505050505050505050509392505050565b612ccb7399d8a9c45b2eca8864373a26d1459e3dff1e17f3613808565b5f8214612dc1578373ffffffffffffffffffffffffffffffffffffffff16636b2ace876040518163ffffffff1660e01b8152600401602060405180830381865afa158015612d1b573d5f5f3e3d5ffd5b505050506040513d601f19601f82011682018060405250810190612d3f91906153e0565b73ffffffffffffffffffffffffffffffffffffffff166397da6d308430305f876040518663ffffffff1660e01b8152600401612d7f959493929190616a52565b60408051808303815f875af1158015612d9a573d5f5f3e3d5ffd5b505050506040513d601f19601f82011682018060405250810190612dbe919061656b565b50505b5f8373ffffffffffffffffffffffffffffffffffffffff166370a08231306040518263ffffffff1660e01b8152600401612dfb919061513d565b602060405180830381865afa158015612e16573d5f5f3e3d5ffd5b505050506040513d601f19601f82011682018060405250810190612e3a91906154ef565b90505f8114612e64575f612e4e8583613a04565b90505f8114612e6257612e6081613e74565b505b505b612e6d8261423e565b505050505050565b5f73dac17f958d2ee523a2206206994597c13d831ec773ffffffffffffffffffffffffffffffffffffffff166370a08231306040518263ffffffff1660e01b8152600401612ec3919061513d565b602060405180830381865afa158015612ede573d5f5f3e3d5ffd5b505050506040513d601f19601f82011682018060405250810190612f0291906154ef565b905082811015612faf57612f208184612f1b9190615ed4565b6146cf565b73dac17f958d2ee523a2206206994597c13d831ec773ffffffffffffffffffffffffffffffffffffffff166370a08231306040518263ffffffff1660e01b8152600401612f6d919061513d565b602060405180830381865afa158015612f88573d5f5f3e3d5ffd5b505050506040513d601f19601f82011682018060405250810190612fac91906154ef565b90505b82811015612ff2576040517f08c379a0000000000000000000000000000000000000000000000000000000008152600401612fe990616aed565b60405180910390fd5b61301173dac17f958d2ee523a2206206994597c13d831ec78385614d28565b505050565b5f8373ffffffffffffffffffffffffffffffffffffffff1663dd62ed3e30856040518363ffffffff1660e01b8152600401613052929190615a21565b602060405180830381865afa15801561306d573d5f5f3e3d5ffd5b505050506040513d601f19601f8201168201806040525081019061309191906154ef565b90508181106130a057506131c4565b6131218463095ea7b360e01b855f6040516024016130bf929190616b3b565b604051602081830303815290604052907bffffffffffffffffffffffffffffffffffffffffffffffffffffffff19166020820180517bffffffffffffffffffffffffffffffffffffffffffffffffffffffff8381831617835250505050614dae565b6131c28463095ea7b360e01b857fffffffffffffffffffffffffffffffffffffffffffffffffffffffffffffffff604051602401613160929190616b62565b604051602081830303815290604052907bffffffffffffffffffffffffffffffffffffffffffffffffffffffff19166020820180517bffffffffffffffffffffffffffffffffffffffffffffffffffffffff8381831617835250505050614dae565b505b505050565b5f5f8314806131d757505f82145b156131e4575f905061324b565b5f5f8390505b80821015613245575f600180838561320291906160a7565b61320c91906160a7565b901c90505f61321c898984613253565b90508681101561322e5781935061323e565b60018261323b9190615ed4565b92505b50506131ea565b81925050505b949350505050565b5f5f8203613263575f9050613795565b5f5f8573ffffffffffffffffffffffffffffffffffffffff16638285ef406040518163ffffffff1660e01b81526004016040805180830381865afa1580156132ad573d5f5f3e3d5ffd5b505050506040513d601f19601f820116820180604052508101906132d19190616187565b915091505f8673ffffffffffffffffffffffffffffffffffffffff1663aba024f46040518163ffffffff1660e01b8152600401602060405180830381865afa15801561331f573d5f5f3e3d5ffd5b505050506040513d601f19601f8201168201806040525081019061334391906154ef565b90505f620186a082876133569190615e36565b6133609190615ea4565b8661336b91906160a7565b90505f5f5f5f866fffffffffffffffffffffffffffffffff160361339757839250839150839050613467565b866fffffffffffffffffffffffffffffffff16866fffffffffffffffffffffffffffffffff16856133c89190615e36565b6133d29190615ea4565b925083866fffffffffffffffffffffffffffffffff16886fffffffffffffffffffffffffffffffff16856134069190615e36565b6134109190615ea4565b10156134265760018361342391906160a7565b92505b83876fffffffffffffffffffffffffffffffff1661344491906160a7565b915082866fffffffffffffffffffffffffffffffff1661346491906160a7565b90505b5f818b84866134769190615e36565b6134809190615e36565b61348a9190615ea4565b90505f81036134a3575f98505050505050505050613795565b5f6135878d73ffffffffffffffffffffffffffffffffffffffff16636b2ace876040518163ffffffff1660e01b8152600401602060405180830381865afa1580156134f0573d5f5f3e3d5ffd5b505050506040513d601f19601f8201168201806040525081019061351491906153e0565b8e73ffffffffffffffffffffffffffffffffffffffff1663d8dfeb456040518163ffffffff1660e01b8152600401602060405180830381865afa15801561355d573d5f5f3e3d5ffd5b505050506040513d601f19601f8201168201806040525081019061358191906153e0565b84614eba565b90505f8114801561359857505f8214155b1561368f5761368c8d73ffffffffffffffffffffffffffffffffffffffff16636b2ace876040518163ffffffff1660e01b8152600401602060405180830381865afa1580156135e9573d5f5f3e3d5ffd5b505050506040513d601f19601f8201168201806040525081019061360d91906153e0565b8e73ffffffffffffffffffffffffffffffffffffffff1663d8dfeb456040518163ffffffff1660e01b8152600401602060405180830381865afa158015613656573d5f5f3e3d5ffd5b505050506040513d601f19601f8201168201806040525081019061367a91906153e0565b60018561368791906160a7565b614eba565b90505b5f8d73ffffffffffffffffffffffffffffffffffffffff1663c7ee2a7b6040518163ffffffff1660e01b8152600401602060405180830381865afa1580156136d9573d5f5f3e3d5ffd5b505050506040513d601f19601f820116820180604052508101906136fd91906154ef565b6509184e72a00061370e9190615e36565b90505f82148061371d57505f81145b15613754577fffffffffffffffffffffffffffffffffffffffffffffffffffffffffffffffff9a5050505050505050505050613795565b5f81836137619190615ea4565b90508282826137709190615e36565b10156137865760018161378391906160a7565b90505b809b5050505050505050505050505b9392505050565b5f7f7fffffffffffffffffffffffffffffffffffffffffffffffffffffffffffffff821115613800576040517f08c379a00000000000000000000000000000000000000000000000000000000081526004016137f790616bd3565b60405180910390fd5b819050919050565b5f737259e152103756e1616a77ae982353c3751a6a9090505f8173ffffffffffffffffffffffffffffffffffffffff16636b2ace876040518163ffffffff1660e01b8152600401602060405180830381865afa15801561386a573d5f5f3e3d5ffd5b505050506040513d601f19601f8201168201806040525081019061388e91906153e0565b73ffffffffffffffffffffffffffffffffffffffff1663f7888aec84306040518363ffffffff1660e01b81526004016138c8929190615a21565b602060405180830381865afa1580156138e3573d5f5f3e3d5ffd5b505050506040513d601f19601f8201168201806040525081019061390791906154ef565b90505f81146139ff578173ffffffffffffffffffffffffffffffffffffffff16636b2ace876040518163ffffffff1660e01b8152600401602060405180830381865afa158015613959573d5f5f3e3d5ffd5b505050506040513d601f19601f8201168201806040525081019061397d91906153e0565b73ffffffffffffffffffffffffffffffffffffffff166397da6d308430305f866040518663ffffffff1660e01b81526004016139bd959493929190616a52565b60408051808303815f875af11580156139d8573d5f5f3e3d5ffd5b505050506040513d601f19601f820116820180604052508101906139fc919061656b565b50505b505050565b5f5f73d51a44d3fae010294c616388b506acda1bfaae4673ffffffffffffffffffffffffffffffffffffffff166370a08231306040518263ffffffff1660e01b8152600401613a53919061513d565b602060405180830381865afa158015613a6e573d5f5f3e3d5ffd5b505050506040513d601f19601f82011682018060405250810190613a9291906154ef565b90505f8330612710604051602401613aac93929190616c37565b6040516020818303038152906040527fe63697c8000000000000000000000000000000000000000000000000000000007bffffffffffffffffffffffffffffffffffffffffffffffffffffffff19166020820180517bffffffffffffffffffffffffffffffffffffffffffffffffffffffff838183161783525050505090505f8573ffffffffffffffffffffffffffffffffffffffff1682604051613b519190616242565b5f604051808303815f865af19150503d805f8114613b8a576040519150601f19603f3d011682016040523d82523d5f602084013e613b8f565b606091505b5050905080613c93578430604051602401613bab929190616452565b6040516020818303038152906040527ef714ce000000000000000000000000000000000000000000000000000000007bffffffffffffffffffffffffffffffffffffffffffffffffffffffff19166020820180517bffffffffffffffffffffffffffffffffffffffffffffffffffffffff838183161783525050505091508573ffffffffffffffffffffffffffffffffffffffff1682604051613c4e9190616242565b5f604051808303815f865af19150503d805f8114613c87576040519150601f19603f3d011682016040523d82523d5f602084013e613c8c565b606091505b5050809150505b80613d925784604051602401613ca99190615165565b6040516020818303038152906040527f2e1a7d4d000000000000000000000000000000000000000000000000000000007bffffffffffffffffffffffffffffffffffffffffffffffffffffffff19166020820180517bffffffffffffffffffffffffffffffffffffffffffffffffffffffff838183161783525050505091508573ffffffffffffffffffffffffffffffffffffffff1682604051613d4d9190616242565b5f604051808303815f865af19150503d805f8114613d86576040519150601f19603f3d011682016040523d82523d5f602084013e613d8b565b606091505b5050809150505b80613dd2576040517f08c379a0000000000000000000000000000000000000000000000000000000008152600401613dc990616cb6565b60405180910390fd5b8273d51a44d3fae010294c616388b506acda1bfaae4673ffffffffffffffffffffffffffffffffffffffff166370a08231306040518263ffffffff1660e01b8152600401613e20919061513d565b602060405180830381865afa158015613e3b573d5f5f3e3d5ffd5b505050506040513d601f19601f82011682018060405250810190613e5f91906154ef565b613e699190615ed4565b935050505092915050565b5f5f8203613e84575f9050614239565b613ea373d51a44d3fae010294c616388b506acda1bfaae468084613016565b5f73dac17f958d2ee523a2206206994597c13d831ec773ffffffffffffffffffffffffffffffffffffffff166370a08231306040518263ffffffff1660e01b8152600401613ef1919061513d565b602060405180830381865afa158015613f0c573d5f5f3e3d5ffd5b505050506040513d601f19601f82011682018060405250810190613f3091906154ef565b90505f835f6001604051602401613f4993929190616cd4565b6040516020818303038152906040527ff1dc3cc9000000000000000000000000000000000000000000000000000000007bffffffffffffffffffffffffffffffffffffffffffffffffffffffff19166020820180517bffffffffffffffffffffffffffffffffffffffffffffffffffffffff838183161783525050505090505f73d51a44d3fae010294c616388b506acda1bfaae4673ffffffffffffffffffffffffffffffffffffffff16826040516140029190616242565b5f604051808303815f865af19150503d805f811461403b576040519150601f19603f3d011682016040523d82523d5f602084013e614040565b606091505b505090508061415c57845f600160405160240161405f93929190616d09565b6040516020818303038152906040527f1a4d01d2000000000000000000000000000000000000000000000000000000007bffffffffffffffffffffffffffffffffffffffffffffffffffffffff19166020820180517bffffffffffffffffffffffffffffffffffffffffffffffffffffffff8381831617835250505050915073d51a44d3fae010294c616388b506acda1bfaae4673ffffffffffffffffffffffffffffffffffffffff16826040516141179190616242565b5f604051808303815f865af19150503d805f8114614150576040519150601f19603f3d011682016040523d82523d5f602084013e614155565b606091505b5050809150505b8061419c576040517f08c379a000000000000000000000000000000000000000000000000000000000815260040161419390616d88565b60405180910390fd5b8273dac17f958d2ee523a2206206994597c13d831ec773ffffffffffffffffffffffffffffffffffffffff166370a08231306040518263ffffffff1660e01b81526004016141ea919061513d565b602060405180830381865afa158015614205573d5f5f3e3d5ffd5b505050506040513d601f19601f8201168201806040525081019061422991906154ef565b6142339190615ed4565b93505050505b919050565b5f5f60018360ff16146142655773c02aaa39b223fe8d0a0e5c4f27ead9083c756cc261427b565b732260fac5e5542a773aa44fbcfedf7c193bc2c5995b90505f8173ffffffffffffffffffffffffffffffffffffffff166370a08231306040518263ffffffff1660e01b81526004016142b7919061513d565b602060405180830381865afa1580156142d2573d5f5f3e3d5ffd5b505050506040513d601f19601f820116820180604052508101906142f691906154ef565b90505f8103614309575f925050506146ca565b6143288273d51a44d3fae010294c616388b506acda1bfaae4683613016565b5f73dac17f958d2ee523a2206206994597c13d831ec773ffffffffffffffffffffffffffffffffffffffff166370a08231306040518263ffffffff1660e01b8152600401614376919061513d565b602060405180830381865afa158015614391573d5f5f3e3d5ffd5b505050506040513d601f19601f820116820180604052508101906143b591906154ef565b90505f8560ff165f8460016040516024016143d394939291906161c5565b6040516020818303038152906040527f5b41b908000000000000000000000000000000000000000000000000000000007bffffffffffffffffffffffffffffffffffffffffffffffffffffffff19166020820180517bffffffffffffffffffffffffffffffffffffffffffffffffffffffff838183161783525050505090505f73d51a44d3fae010294c616388b506acda1bfaae4673ffffffffffffffffffffffffffffffffffffffff168260405161448c9190616242565b5f604051808303815f865af19150503d805f81146144c5576040519150601f19603f3d011682016040523d82523d5f602084013e6144ca565b606091505b50509050806145eb578660ff165f8560016040516024016144ee9493929190616273565b6040516020818303038152906040527f3df02124000000000000000000000000000000000000000000000000000000007bffffffffffffffffffffffffffffffffffffffffffffffffffffffff19166020820180517bffffffffffffffffffffffffffffffffffffffffffffffffffffffff8381831617835250505050915073d51a44d3fae010294c616388b506acda1bfaae4673ffffffffffffffffffffffffffffffffffffffff16826040516145a69190616242565b5f604051808303815f865af19150503d805f81146145df576040519150601f19603f3d011682016040523d82523d5f602084013e6145e4565b606091505b5050809150505b8061462b576040517f08c379a000000000000000000000000000000000000000000000000000000000815260040161462290616df0565b60405180910390fd5b8273dac17f958d2ee523a2206206994597c13d831ec773ffffffffffffffffffffffffffffffffffffffff166370a08231306040518263ffffffff1660e01b8152600401614679919061513d565b602060405180830381865afa158015614694573d5f5f3e3d5ffd5b505050506040513d601f19601f820116820180604052508101906146b891906154ef565b6146c29190615ed4565b955050505050505b919050565b5f7399d8a9c45b2eca8864373a26d1459e3dff1e17f373ffffffffffffffffffffffffffffffffffffffff166370a08231306040518263ffffffff1660e01b815260040161471d919061513d565b602060405180830381865afa158015614738573d5f5f3e3d5ffd5b505050506040513d601f19601f8201168201806040525081019061475c91906154ef565b90505f810361476b5750614d25565b5f66038d7ea4c680006032846147819190615ea4565b8461478c91906160a7565b61479691906160a7565b9050818111156147a4578190505b5f81036147b2575050614d25565b6147e57399d8a9c45b2eca8864373a26d1459e3dff1e17f373d9e1ce17f2641f24ae83637ab66a2cca9c378b9f83613016565b6148187399d8a9c45b2eca8864373a26d1459e3dff1e17f3737a250d5630b4cf539739df2c5dacb4c659f2488d83613016565b5f600267ffffffffffffffff8111156148345761483361551a565b5b6040519080825280602002602001820160405280156148625781602001602082028036833780820191505090505b5090507399d8a9c45b2eca8864373a26d1459e3dff1e17f3815f8151811061488d5761488c615a7d565b5b602002602001019073ffffffffffffffffffffffffffffffffffffffff16908173ffffffffffffffffffffffffffffffffffffffff168152505073dac17f958d2ee523a2206206994597c13d831ec7816001815181106148f0576148ef615a7d565b5b602002602001019073ffffffffffffffffffffffffffffffffffffffff16908173ffffffffffffffffffffffffffffffffffffffff168152505073d9e1ce17f2641f24ae83637ab66a2cca9c378b9f73ffffffffffffffffffffffffffffffffffffffff166338ed17398360018430426040518663ffffffff1660e01b8152600401614980959493929190616ef5565b5f604051808303815f875af19250505080156149be57506040513d5f823e3d601f19601f820116820180604052508101906149bb919061700d565b60015b156149cc5750505050614d25565b737a250d5630b4cf539739df2c5dacb4c659f2488d73ffffffffffffffffffffffffffffffffffffffff166338ed17398360018430426040518663ffffffff1660e01b8152600401614a22959493929190616ef5565b5f604051808303815f875af1925050508015614a6057506040513d5f823e3d601f19601f82011682018060405250810190614a5d919061700d565b60015b15614a6e5750505050614d25565b5f600367ffffffffffffffff811115614a8a57614a8961551a565b5b604051908082528060200260200182016040528015614ab85781602001602082028036833780820191505090505b5090507399d8a9c45b2eca8864373a26d1459e3dff1e17f3815f81518110614ae357614ae2615a7d565b5b602002602001019073ffffffffffffffffffffffffffffffffffffffff16908173ffffffffffffffffffffffffffffffffffffffff168152505073c02aaa39b223fe8d0a0e5c4f27ead9083c756cc281600181518110614b4657614b45615a7d565b5b602002602001019073ffffffffffffffffffffffffffffffffffffffff16908173ffffffffffffffffffffffffffffffffffffffff168152505073dac17f958d2ee523a2206206994597c13d831ec781600281518110614ba957614ba8615a7d565b5b602002602001019073ffffffffffffffffffffffffffffffffffffffff16908173ffffffffffffffffffffffffffffffffffffffff168152505073d9e1ce17f2641f24ae83637ab66a2cca9c378b9f73ffffffffffffffffffffffffffffffffffffffff166338ed17398460018430426040518663ffffffff1660e01b8152600401614c39959493929190616ef5565b5f604051808303815f875af1925050508015614c7757506040513d5f823e3d601f19601f82011682018060405250810190614c74919061700d565b60015b15614c86575050505050614d25565b737a250d5630b4cf539739df2c5dacb4c659f2488d73ffffffffffffffffffffffffffffffffffffffff166338ed17398460018430426040518663ffffffff1660e01b8152600401614cdc959493929190616ef5565b5f604051808303815f875af1158015614cf7573d5f5f3e3d5ffd5b505050506040513d5f823e3d601f19601f82011682018060405250810190614d1f919061700d565b50505050505b50565b614da98363a9059cbb60e01b8484604051602401614d47929190616b62565b604051602081830303815290604052907bffffffffffffffffffffffffffffffffffffffffffffffffffffffff19166020820180517bffffffffffffffffffffffffffffffffffffffffffffffffffffffff8381831617835250505050614dae565b505050565b5f5f8373ffffffffffffffffffffffffffffffffffffffff1683604051614dd59190616242565b5f604051808303815f865af19150503d805f8114614e0e576040519150601f19603f3d011682016040523d82523d5f602084013e614e13565b606091505b509150915081614e58576040517f08c379a0000000000000000000000000000000000000000000000000000000008152600401614e4f9061709e565b60405180910390fd5b5f815114614eb45780806020019051810190614e7491906170bc565b614eb3576040517f08c379a0000000000000000000000000000000000000000000000000000000008152600401614eaa90617131565b60405180910390fd5b5b50505050565b5f8373ffffffffffffffffffffffffffffffffffffffff1663da5139ca848460016040518463ffffffff1660e01b8152600401614ef993929190615a48565b602060405180830381865afa925050508015614f3357506040513d601f19601f82011682018060405250810190614f3091906154ef565b60015b15614f3d57809150505b9392505050565b6040518060600160405280600390602082028036833780820191505090505090565b5f604051905090565b5f5ffd5b5f5ffd5b5f73ffffffffffffffffffffffffffffffffffffffff82169050919050565b5f614fa082614f77565b9050919050565b614fb081614f96565b8114614fba575f5ffd5b50565b5f81359050614fcb81614fa7565b92915050565b5f819050919050565b614fe381614fd1565b8114614fed575f5ffd5b50565b5f81359050614ffe81614fda565b92915050565b5f5ffd5b5f5ffd5b5f5ffd5b5f5f83601f84011261502557615024615004565b5b8235905067ffffffffffffffff81111561504257615041615008565b5b60208301915083600182028301111561505e5761505d61500c565b5b9250929050565b5f5f5f5f5f5f60a0878903121561507f5761507e614f6f565b5b5f61508c89828a01614fbd565b965050602061509d89828a01614fbd565b95505060406150ae89828a01614ff0565b94505060606150bf89828a01614ff0565b935050608087013567ffffffffffffffff8111156150e0576150df614f73565b5b6150ec89828a01615010565b92509250509295509295509295565b5f8115159050919050565b61510f816150fb565b82525050565b5f6020820190506151285f830184615106565b92915050565b61513781614f96565b82525050565b5f6020820190506151505f83018461512e565b92915050565b61515f81614fd1565b82525050565b5f6020820190506151785f830184615156565b92915050565b5f81519050919050565b5f82825260208201905092915050565b8281835e5f83830152505050565b5f601f19601f8301169050919050565b5f6151c08261517e565b6151ca8185615188565b93506151da818560208601615198565b6151e3816151a6565b840191505092915050565b5f6020820190508181035f83015261520681846151b6565b905092915050565b5f60ff82169050919050565b6152238161520e565b811461522d575f5ffd5b50565b5f8135905061523e8161521a565b92915050565b5f5f5f6060848603121561525b5761525a614f6f565b5b5f61526886828701614ff0565b935050602061527986828701614ff0565b925050604061528a86828701615230565b9150509250925092565b7f666c617368206e6f7420657870656374656400000000000000000000000000005f82015250565b5f6152c8601283615188565b91506152d382615294565b602082019050919050565b5f6020820190508181035f8301526152f5816152bc565b9050919050565b7f6261642073656e646572000000000000000000000000000000000000000000005f82015250565b5f615330600a83615188565b915061533b826152fc565b602082019050919050565b5f6020820190508181035f83015261535d81615324565b9050919050565b7f62616420746f6b656e00000000000000000000000000000000000000000000005f82015250565b5f615398600983615188565b91506153a382615364565b602082019050919050565b5f6020820190508181035f8301526153c58161538c565b9050919050565b5f815190506153da81614fa7565b92915050565b5f602082840312156153f5576153f4614f6f565b5b5f615402848285016153cc565b91505092915050565b7f626164206c656e646572000000000000000000000000000000000000000000005f82015250565b5f61543f600a83615188565b915061544a8261540b565b602082019050919050565b5f6020820190508181035f83015261546c81615433565b9050919050565b7f616d6f756e74206d69736d6174636800000000000000000000000000000000005f82015250565b5f6154a7600f83615188565b91506154b282615473565b602082019050919050565b5f6020820190508181035f8301526154d48161549b565b9050919050565b5f815190506154e981614fda565b92915050565b5f6020828403121561550457615503614f6f565b5b5f615511848285016154db565b91505092915050565b7f4e487b71000000000000000000000000000000000000000000000000000000005f52604160045260245ffd5b7f4e487b71000000000000000000000000000000000000000000000000000000005f52602260045260245ffd5b5f600282049050600182168061558b57607f821691505b60208210810361559e5761559d615547565b5b50919050565b5f819050815f5260205f209050919050565b5f6020601f8301049050919050565b5f82821b905092915050565b5f600883026156007fffffffffffffffffffffffffffffffffffffffffffffffffffffffffffffffff826155c5565b61560a86836155c5565b95508019841693508086168417925050509392505050565b5f819050919050565b5f61564561564061563b84614fd1565b615622565b614fd1565b9050919050565b5f819050919050565b61565e8361562b565b61567261566a8261564c565b8484546155d1565b825550505050565b5f5f905090565b61568961567a565b615694818484615655565b505050565b5b818110156156b7576156ac5f82615681565b60018101905061569a565b5050565b601f8211156156fc576156cd816155a4565b6156d6846155b6565b810160208510156156e5578190505b6156f96156f1856155b6565b830182615699565b50505b505050565b5f82821c905092915050565b5f61571c5f1984600802615701565b1980831691505092915050565b5f615734838361570d565b9150826002028217905092915050565b61574d8261517e565b67ffffffffffffffff8111156157665761576561551a565b5b6157708254615574565b61577b8282856156bb565b5f60209050601f8311600181146157ac575f841561579a578287015190505b6157a48582615729565b86555061580b565b601f1984166157ba866155a4565b5f5b828110156157e1578489015182556001820191506020850194506020810190506157bc565b868310156157fe57848901516157fa601f89168261570d565b8355505b6001600288020188555050505b505050505050565b5f5ffd5b615820826151a6565b810181811067ffffffffffffffff8211171561583f5761583e61551a565b5b80604052505050565b5f615851614f66565b905061585d8282615817565b919050565b5f67ffffffffffffffff82111561587c5761587b61551a565b5b615885826151a6565b9050602081019050919050565b5f6158a461589f84615862565b615848565b9050828152602081018484840111156158c0576158bf615813565b5b6158cb848285615198565b509392505050565b5f82601f8301126158e7576158e6615004565b5b81516158f7848260208601615892565b91505092915050565b5f6020828403121561591557615914614f6f565b5b5f82015167ffffffffffffffff81111561593257615931614f73565b5b61593e848285016158d3565b91505092915050565b5f81519050919050565b5f82825260208201905092915050565b5f61596b82615947565b6159758185615951565b9350615985818560208601615198565b61598e816151a6565b840191505092915050565b5f6020820190508181035f8301526159b18184615961565b905092915050565b6159c2816150fb565b81146159cc575f5ffd5b50565b5f815190506159dd816159b9565b92915050565b5f5f604083850312156159f9576159f8614f6f565b5b5f615a06858286016159cf565b9250506020615a17858286016154db565b9150509250929050565b5f604082019050615a345f83018561512e565b615a41602083018461512e565b9392505050565b5f606082019050615a5b5f83018661512e565b615a686020830185615156565b615a756040830184615106565b949350505050565b7f4e487b71000000000000000000000000000000000000000000000000000000005f52603260045260245ffd5b5f819050919050565b5f615acd615ac8615ac384615aaa565b615622565b61520e565b9050919050565b615add81615ab3565b82525050565b5f606082019050615af65f830186615156565b615b036020830185615156565b615b106040830184615ad4565b949350505050565b5f819050919050565b5f615b3b615b36615b3184615b18565b615622565b61520e565b9050919050565b615b4b81615b21565b82525050565b5f606082019050615b645f830186615156565b615b716020830185615156565b615b7e6040830184615b42565b949350505050565b7f4e487b71000000000000000000000000000000000000000000000000000000005f52601160045260245ffd5b5f615bbd82614fd1565b91507fffffffffffffffffffffffffffffffffffffffffffffffffffffffffffffffff8203615bef57615bee615b86565b5b600182019050919050565b7f73656c66206f6e6c7900000000000000000000000000000000000000000000005f82015250565b5f615c2e600983615188565b9150615c3982615bfa565b602082019050919050565b5f6020820190508181035f830152615c5b81615c22565b9050919050565b7f62616420636f696e0000000000000000000000000000000000000000000000005f82015250565b5f615c96600883615188565b9150615ca182615c62565b602082019050919050565b5f6020820190508181035f830152615cc381615c8a565b9050919050565b615cd38161520e565b82525050565b5f606082019050615cec5f830186615156565b615cf96020830185615156565b615d066040830184615cca565b949350505050565b5f60a082019050615d215f83018861512e565b615d2e602083018761512e565b615d3b604083018661512e565b615d486060830185615156565b8181036080830152615d5a8184615961565b90509695505050505050565b7f706c616e206661696c65640000000000000000000000000000000000000000005f82015250565b5f615d9a600b83615188565b9150615da582615d66565b602082019050919050565b5f6020820190508181035f830152615dc781615d8e565b9050919050565b7f756e657870656374656420756e6465726c79696e6700000000000000000000005f82015250565b5f615e02601583615188565b9150615e0d82615dce565b602082019050919050565b5f6020820190508181035f830152615e2f81615df6565b9050919050565b5f615e4082614fd1565b9150615e4b83614fd1565b9250828202615e5981614fd1565b91508282048414831517615e7057615e6f615b86565b5b5092915050565b7f4e487b71000000000000000000000000000000000000000000000000000000005f52601260045260245ffd5b5f615eae82614fd1565b9150615eb983614fd1565b925082615ec957615ec8615e77565b5b828204905092915050565b5f615ede82614fd1565b9150615ee983614fd1565b9250828203905081811115615f0157615f00615b86565b5b92915050565b7f6261642073706c697400000000000000000000000000000000000000000000005f82015250565b5f615f3b600983615188565b9150615f4682615f07565b602082019050919050565b5f6020820190508181035f830152615f6881615f2f565b9050919050565b7f6375727665206d616e6970756c6174696f6e206661696c6564000000000000005f82015250565b5f615fa3601983615188565b9150615fae82615f6f565b602082019050919050565b5f6020820190508181035f830152615fd081615f97565b9050919050565b7f6e6f206c700000000000000000000000000000000000000000000000000000005f82015250565b5f61600b600583615188565b915061601682615fd7565b602082019050919050565b5f6020820190508181035f83015261603881615fff565b9050919050565b7f6e6f207661756c742073686172657300000000000000000000000000000000005f82015250565b5f616073600f83615188565b915061607e8261603f565b602082019050919050565b5f6020820190508181035f8301526160a081616067565b9050919050565b5f6160b182614fd1565b91506160bc83614fd1565b92508282019050808211156160d4576160d3615b86565b5b92915050565b7f6e6f207265616c697a6564206d696d2070726f666974000000000000000000005f82015250565b5f61610e601683615188565b9150616119826160da565b602082019050919050565b5f6020820190508181035f83015261613b81616102565b9050919050565b5f6fffffffffffffffffffffffffffffffff82169050919050565b61616681616142565b8114616170575f5ffd5b50565b5f815190506161818161615d565b92915050565b5f5f6040838503121561619d5761619c614f6f565b5b5f6161aa85828601616173565b92505060206161bb85828601616173565b9150509250929050565b5f6080820190506161d85f830187615156565b6161e56020830186615156565b6161f26040830185615156565b6161ff6060830184615156565b95945050505050565b5f81905092915050565b5f61621c82615947565b6162268185616208565b9350616236818560208601615198565b80840191505092915050565b5f61624d8284616212565b915081905092915050565b5f81600f0b9050919050565b61626d81616258565b82525050565b5f6080820190506162865f830187616264565b6162936020830186616264565b6162a06040830185615156565b6162ad6060830184615156565b95945050505050565b7f63757276652065786368616e6765206661696c656400000000000000000000005f82015250565b5f6162ea601583615188565b91506162f5826162b6565b602082019050919050565b5f6020820190508181035f830152616317816162de565b9050919050565b5f60039050919050565b5f81905092915050565b5f819050919050565b61634481614fd1565b82525050565b5f616355838361633b565b60208301905092915050565b5f602082019050919050565b6163768161631e565b6163808184616328565b925061638b82616332565b805f5b838110156163bb5781516163a2878261634a565b96506163ad83616361565b92505060018101905061638e565b505050505050565b5f6080820190506163d65f83018561636d565b6163e36060830184615ad4565b9392505050565b7f637572766520616464206c6971756964697479206661696c65640000000000005f82015250565b5f61641e601a83615188565b9150616429826163ea565b602082019050919050565b5f6020820190508181035f83015261644b81616412565b9050919050565b5f6040820190506164655f830185615156565b616472602083018461512e565b9392505050565b7f796561726e206465706f736974206661696c65640000000000000000000000005f82015250565b5f6164ad601483615188565b91506164b882616479565b602082019050919050565b5f6020820190508181035f8301526164da816164a1565b9050919050565b5f819050919050565b5f6165046164ff6164fa846164e1565b615622565b614fd1565b9050919050565b616514816164ea565b82525050565b5f60a08201905061652d5f83018861512e565b61653a602083018761512e565b616547604083018661512e565b6165546060830185615156565b616561608083018461650b565b9695505050505050565b5f5f6040838503121561658157616580614f6f565b5b5f61658e858286016154db565b925050602061659f858286016154db565b9150509250929050565b7f6e6f20636f6c6c61746572616c207368617265000000000000000000000000005f82015250565b5f6165dd601383615188565b91506165e8826165a9565b602082019050919050565b5f6020820190508181035f83015261660a816165d1565b9050919050565b7f6e6f20626f72726f7720636170000000000000000000000000000000000000005f82015250565b5f616645600d83615188565b915061665082616611565b602082019050919050565b5f6020820190508181035f83015261667281616639565b9050919050565b7f6e6f20626f72726f7700000000000000000000000000000000000000000000005f82015250565b5f6166ad600983615188565b91506166b882616679565b602082019050919050565b5f6020820190508181035f8301526166da816166a1565b9050919050565b7f6e6f2072656d6f7661626c6520736861726500000000000000000000000000005f82015250565b5f616715601283615188565b9150616720826166e1565b602082019050919050565b5f6020820190508181035f83015261674281616709565b9050919050565b5f819050919050565b61675b81616749565b82525050565b5f6060820190506167745f830186616752565b616781602083018561512e565b61678e6040830184615106565b949350505050565b5f6040820190506167a95f830185616752565b6167b6602083018461512e565b9392505050565b5f81519050919050565b5f82825260208201905092915050565b5f819050602082019050919050565b6167ef8161520e565b82525050565b5f61680083836167e6565b60208301905092915050565b5f602082019050919050565b5f616822826167bd565b61682c81856167c7565b9350616837836167d7565b805f5b8381101561686757815161684e88826167f5565b97506168598361680c565b92505060018101905061683a565b5085935050505092915050565b5f81519050919050565b5f82825260208201905092915050565b5f819050602082019050919050565b5f602082019050919050565b5f6168b382616874565b6168bd818561687e565b93506168c88361688e565b805f5b838110156168f85781516168df888261634a565b97506168ea8361689d565b9250506001810190506168cb565b5085935050505092915050565b5f81519050919050565b5f82825260208201905092915050565b5f819050602082019050919050565b5f82825260208201905092915050565b5f61694882615947565b616952818561692e565b9350616962818560208601615198565b61696b816151a6565b840191505092915050565b5f616981838361693e565b905092915050565b5f602082019050919050565b5f61699f82616905565b6169a9818561690f565b9350836020820285016169bb8561691f565b805f5b858110156169f657848403895281516169d78582616976565b94506169e283616989565b925060208a019950506001810190506169be565b50829750879550505050505092915050565b5f6060820190508181035f830152616a208186616818565b90508181036020830152616a3481856168a9565b90508181036040830152616a488184616995565b9050949350505050565b5f60a082019050616a655f83018861512e565b616a72602083018761512e565b616a7f604083018661512e565b616a8c606083018561650b565b616a996080830184615156565b9695505050505050565b7f696e73756666696369656e7420757364742072657061790000000000000000005f82015250565b5f616ad7601783615188565b9150616ae282616aa3565b602082019050919050565b5f6020820190508181035f830152616b0481616acb565b9050919050565b5f616b25616b20616b1b846164e1565b615622565b61520e565b9050919050565b616b3581616b0b565b82525050565b5f604082019050616b4e5f83018561512e565b616b5b6020830184616b2c565b9392505050565b5f604082019050616b755f83018561512e565b616b826020830184615156565b9392505050565b7f696e74206f766572666c6f7700000000000000000000000000000000000000005f82015250565b5f616bbd600c83615188565b9150616bc882616b89565b602082019050919050565b5f6020820190508181035f830152616bea81616bb1565b9050919050565b5f819050919050565b5f61ffff82169050919050565b5f616c21616c1c616c1784616bf1565b615622565b616bfa565b9050919050565b616c3181616c07565b82525050565b5f606082019050616c4a5f830186615156565b616c57602083018561512e565b616c646040830184616c28565b949350505050565b7f796561726e207769746864726177206661696c656400000000000000000000005f82015250565b5f616ca0601583615188565b9150616cab82616c6c565b602082019050919050565b5f6020820190508181035f830152616ccd81616c94565b9050919050565b5f606082019050616ce75f830186615156565b616cf46020830185615156565b616d016040830184615156565b949350505050565b5f606082019050616d1c5f830186615156565b616d296020830185616264565b616d366040830184615156565b949350505050565b7f63757276652072656d6f7665206c6971756964697479206661696c65640000005f82015250565b5f616d72601d83615188565b9150616d7d82616d3e565b602082019050919050565b5f6020820190508181035f830152616d9f81616d66565b9050919050565b7f637572766520726576657273652065786368616e6765206661696c65640000005f82015250565b5f616dda601d83615188565b9150616de582616da6565b602082019050919050565b5f6020820190508181035f830152616e0781616dce565b9050919050565b5f616e28616e23616e1e84615aaa565b615622565b614fd1565b9050919050565b616e3881616e0e565b82525050565b5f81519050919050565b5f82825260208201905092915050565b5f819050602082019050919050565b616e7081614f96565b82525050565b5f616e818383616e67565b60208301905092915050565b5f602082019050919050565b5f616ea382616e3e565b616ead8185616e48565b9350616eb883616e58565b805f5b83811015616ee8578151616ecf8882616e76565b9750616eda83616e8d565b925050600181019050616ebb565b5085935050505092915050565b5f60a082019050616f085f830188615156565b616f156020830187616e2f565b8181036040830152616f278186616e99565b9050616f36606083018561512e565b616f436080830184615156565b9695505050505050565b5f67ffffffffffffffff821115616f6757616f6661551a565b5b602082029050602081019050919050565b5f616f8a616f8584616f4d565b615848565b90508083825260208201905060208402830185811115616fad57616fac61500c565b5b835b81811015616fd65780616fc288826154db565b845260208401935050602081019050616faf565b5050509392505050565b5f82601f830112616ff457616ff3615004565b5b8151617004848260208601616f78565b91505092915050565b5f6020828403121561702257617021614f6f565b5b5f82015167ffffffffffffffff81111561703f5761703e614f73565b5b61704b84828501616fe0565b91505092915050565b7f746f6b656e2063616c6c206661696c65640000000000000000000000000000005f82015250565b5f617088601183615188565b915061709382617054565b602082019050919050565b5f6020820190508181035f8301526170b58161707c565b9050919050565b5f602082840312156170d1576170d0614f6f565b5b5f6170de848285016159cf565b91505092915050565b7f746f6b656e206f70206661696c656400000000000000000000000000000000005f82015250565b5f61711b600f83615188565b9150617126826170e7565b602082019050919050565b5f6020820190508181035f8301526171488161710f565b905091905056fe696e6665617369626c655f756e65787065637465645f70726f6669745f746f6b656e696e6665617369626c655f636f6c6c61746572616c5f726f7574655f6e6f745f737570706f72746564696e6665617369626c655f6361636865645f726174655f6e6f745f756e646572737461746564696e69745f706f69736f6e65645f63616368655f7468656e5f63757276655f6f7261636c655f6661696c7572655f7468656e5f636f6f6b5f6164645f636f6c6c61746572616c5f626f72726f775f72656d6f76655f636f6c6c61746572616c696e6665617369626c655f616c6c5f7075626c69635f6c69717569646974795f706c616e735f6661696c6564a26469706673582212202b7e6a3b0a3c1e51c2d0f31f945aa3f829052eb2a391035634cbccbaa288fbe264736f6c634300081e0033","linkReferences":{}},"methodIdentifiers":{"TARGET()":"cc1f2afa","attemptUsdtPlan(uint256,uint256,uint8)":"c517189b","executeOnOpportunity()":"3c2448ed","hypothesisValidated()":"463defd1","onFlashLoan(address,address,uint256,uint256,bytes)":"23e30c8b","pathUsed()":"7283898d","profitAmount()":"5ff972cc","profitToken()":"49343624"},"id":0}