{"abi":[{"type":"constructor","inputs":[],"stateMutability":"nonpayable"},{"type":"receive","stateMutability":"payable"},{"type":"function","name":"approvalObserved","inputs":[],"outputs":[{"name":"","type":"bool","internalType":"bool"}],"stateMutability":"view"},{"type":"function","name":"attempted","inputs":[],"outputs":[{"name":"","type":"bool","internalType":"bool"}],"stateMutability":"view"},{"type":"function","name":"executeOnOpportunity","inputs":[],"outputs":[],"stateMutability":"nonpayable"},{"type":"function","name":"exploitSucceeded","inputs":[],"outputs":[{"name":"","type":"bool","internalType":"bool"}],"stateMutability":"view"},{"type":"function","name":"lastError","inputs":[],"outputs":[{"name":"","type":"bytes","internalType":"bytes"}],"stateMutability":"view"},{"type":"function","name":"observedApprovalForAll","inputs":[],"outputs":[{"name":"","type":"bool","internalType":"bool"}],"stateMutability":"view"},{"type":"function","name":"observedApprovedOperator","inputs":[],"outputs":[{"name":"","type":"address","internalType":"address"}],"stateMutability":"view"},{"type":"function","name":"observedOwner","inputs":[],"outputs":[{"name":"","type":"address","internalType":"address"}],"stateMutability":"view"},{"type":"function","name":"observedTokenId","inputs":[],"outputs":[{"name":"","type":"uint256","internalType":"uint256"}],"stateMutability":"view"},{"type":"function","name":"profitAmount","inputs":[],"outputs":[{"name":"","type":"uint256","internalType":"uint256"}],"stateMutability":"view"},{"type":"function","name":"profitToken","inputs":[],"outputs":[{"name":"","type":"address","internalType":"address"}],"stateMutability":"view"}],"bytecode":{"object":"0x60808060405234603a575f80546001600160a01b03191673c02aaa39b223fe8d0a0e5c4f27ead9083c756cc21790556121bc908161003f8239f35b5f80fdfe608080604052600436101561001c575b50361561001a575f80fd5b005b5f3560e01c908163162aeb16146102a95750806329f0de3f146101da5780633c2448ed146101c2578063493436241461019b5780635ff972cc1461017e57806379965d8b14610156578063917f51b414610134578063956c42ae1461010f578063b422c2b5146100ea578063f03ab81a146100cd5763f9e74936146100a1575f61000f565b346100c9575f3660031901126100c9576003546040516001600160a01b039091168152602090f35b5f80fd5b346100c9575f3660031901126100c9576020600454604051908152f35b346100c9575f3660031901126100c957602060ff60025460181c166040519015158152f35b346100c9575f3660031901126100c957602060ff60025460101c166040519015158152f35b346100c9575f3660031901126100c957602060ff600254166040519015158152f35b346100c9575f3660031901126100c957600254604051602091821c6001600160a01b03168152f35b346100c9575f3660031901126100c9576020600154604051908152f35b346100c9575f3660031901126100c9575f546040516001600160a01b039091168152602090f35b346100c9575f3660031901126100c95761001a61039b565b346100c9575f3660031901126100c9576040515f6005546101fa816102cb565b8084529060018116908115610285575060011461023a575b6102368361022281850382610334565b604051918291602083526020830190610356565b0390f35b91905060055f525f5160206121475f395f51905f52915f905b80821061026b57509091508101602001610222610212565b919260018160209254838588010152019101909291610253565b60ff191660208086019190915291151560051b840190910191506102229050610212565b346100c9575f3660031901126100c95760209060ff60025460081c1615158152f35b90600182811c921680156102f9575b60208310146102e557565b634e487b7160e01b5f52602260045260245ffd5b91607f16916102da565b6102a0810190811067ffffffffffffffff82111761032057604052565b634e487b7160e01b5f52604160045260245ffd5b90601f8019910116810190811067ffffffffffffffff82111761032057604052565b805180835260209291819084018484015e5f828201840152601f01601f1916010190565b9190820391821161038757565b634e487b7160e01b5f52601160045260245ffd5b60ff6002541661043557600160ff1960025416176002556103ba610579565b6103d45760015b6104008111156103d657506103d4610439565b565b80620673e20180620673e211610387576103ef906107c7565b6104135780620673e21180610416575b610413575f198114610387576001016103c1565b50565b5080620673e203620673e2811161038757610430906107c7565b6103ff565b6103d45b5f5461044d906001600160a01b03166109fe565b600155565b5f54610466906001600160a01b03166109fe565b6001600160a01b038216918215908180610568575b61055d57610488906109fe565b94808611156105555761049b908661037a565b935b5f966001600160a01b038216968715159283610514575b505050848711908161050c575b50156104e157505050506001600160601b0360a01b5f5416175f55600155565b919350919350155f1461050557506001600160601b0360a01b5f5416175f55600155565b6001555050565b90505f6104c1565b92985090918786036105455750905b8082111561053d576105349161037a565b955f80806104b4565b50505f610534565b61054f91506109fe565b90610523565b505f9361049d565b505060015550505050565b506001600160a01b0385161561047b565b6040516331a9108f60e11b8152620673e260048201525f906020816024815f5160206121675f395f51905f525afa5f918161078b575b50610783575b506001600160a01b038116801561077d5760405163020604bf60e21b8152620673e260048201525f906020816024815f5160206121675f395f51905f525afa5f9181610741575b50610739575b506001600160a01b0381163081146107295715158061071f575b610710575061062b308361184d565b610700575f906040519063c455279160e01b8252600482015260208160248173a5409ec958c83c3f309868babaca7c86dcb077c15afa5f91816106c4575b506106bc575b506001600160a01b0381161515806106b2575b806106a2575b6106925750505f90565b620673e261069f926117b3565b90565b506106ad818361184d565b610688565b50803b1515610682565b90505f61066f565b9091506020813d6020116106f8575b816106e060209383610334565b810103126100c9576106f190610a90565b905f610669565b3d91506106d3565b5061069f90620673e23091611369565b9050620673e261069f92611070565b50803b151561061c565b509050620673e261069f92610aa4565b90505f610602565b9091506020813d602011610775575b8161075d60209383610334565b810103126100c95761076e90610a90565b905f6105fc565b3d9150610750565b50505f90565b90505f6105b5565b9091506020813d6020116107bf575b816107a760209383610334565b810103126100c9576107b890610a90565b905f6105af565b3d915061079a565b5f906040516331a9108f60e11b81528160048201526020816024815f5160206121675f395f51905f525afa5f91816109c2575b506109ba575b506001600160a01b0382169081156109b3575f60405163020604bf60e21b81528260048201526020816024815f5160206121675f395f51905f525afa5f9181610977575b5061096f575b506001600160a01b03811630811461096357151580610959575b61094e5750610873308461184d565b610942575f916040519063c455279160e01b8252600482015260208160248173a5409ec958c83c3f309868babaca7c86dcb077c15afa5f9181610906575b506108fe575b506001600160a01b0382161515806108f4575b806108e4575b6108db575050505f90565b61069f926117b3565b506108ef828461184d565b6108d0565b50813b15156108ca565b91505f6108b7565b9091506020813d60201161093a575b8161092260209383610334565b810103126100c95761093390610a90565b905f6108b1565b3d9150610915565b61069f92309250611369565b915061069f92611070565b50803b1515610864565b50915061069f92610aa4565b90505f61084a565b9091506020813d6020116109ab575b8161099360209383610334565b810103126100c9576109a490610a90565b905f610844565b3d9150610986565b5050505f90565b91505f610800565b9091506020813d6020116109f6575b816109de60209383610334565b810103126100c9576109ef90610a90565b905f6107fa565b3d91506109d1565b6001600160a01b038116908115908115610a86575b50610a81576020602491604051928380926370a0823160e01b82523060048301525afa908115610a76575f91610a47575090565b90506020813d602011610a6e575b81610a6260209383610334565b810103126100c9575190565b3d9150610a55565b6040513d5f823e3d90fd5b505f90565b90503b155f610a13565b51906001600160a01b03821682036100c957565b919091610ab183826118fd565b9290158015611064575b610ee657600484905560028054600380546001600160a01b0319166001600160a01b0394851617905562010000600160c01b031916602084811b640100000000600160c01b031691909117620100001790915583018051909491610b1f91166109fe565b60408401805186519294919391926001600160a01b0391821691168103611055575083945b6001600160801b03608060018060a01b03606084015116920151169260405191610b6d83610303565b5f83525f60208401525f60408401525f6060840152606060808401525f60a08401525f60c0840152606060e08401525f6101008401525f6101208401525f6101408401525f6101608401525f6101808401525f6101a08401525f6101c08401525f6101e08401525f6102008401525f6102208401525f610240840152606061026084015260606102808401526001835260208301525f60408301525f6060830152602093604051610c1e8682610334565b5f815260808401525f60a08401525f60c0840152604051610c3f8682610334565b5f815260e08401526001600160801b036101008401526001600160801b036101208401525f6101408401525f6101608401525f6101808401526101a08301525f6101c08301525f6101e083015242610200830152306102208301525f610240830152604051610cae8582610334565b5f8152610260830152604051610cc48582610334565b5f815261028083015260405184808201528251926003841015611041575f94610e5883610e4a610e86948998604084015260018060a01b03602082015116606084015260408101516080840152606081015160a0840152610280610e35610d6b610d3f60808501516102a060c08901526102e0880190610356565b60a085015160e088015260c085015161010088015260e0850151603f1988830301610120890152610356565b6001600160801b03610100850151166101408701526001600160801b036101208501511661016087015262ffffff6101408501511661018087015261016084015160020b6101a087015261018084015160020b6101c08701526001600160801b036101a0850151166101e08701526101c08401516102008701526101e084015161022087015261020084015161024087015260018060a01b0361022085015116610260870152610240840151151583870152610260840151603f19878303016102a0880152610356565b910151838203603f19016102c0850152610356565b03601f198101855284610334565b610e7860405193849289840196635c46a7ef60e11b885260248501611b5c565b03601f198101835282610334565b5190825f5160206121675f395f51905f525af1610ea1611f05565b811592908380611037575b610eee575b505050610ee6576002805461ff00191661010017905592519251610ee1936001600160a01b039182169116610452565b600190565b505050505f90565b80519167ffffffffffffffff8311610320578291610f0d6005546102cb565b601f8111610fc4575b5081601f8411600114610f5257505f92610f47575b50508160011b915f199060031b1c1916176005555b5f80610eb1565b015190505f80610f2b565b60055f9081525f5160206121475f395f51905f529450601f198616915b828210610fac575050908460019594939210610f94575b505050811b01600555610f40565b01515f1960f88460031b161c191690555f8080610f86565b80600186978294978701518155019601940190610f6f565b9091925060055f52601f840160051c5f5160206121475f395f51905f520190838510611022575b90601f859493920160051c5f5160206121475f395f51905f5201905b8181106110145750610f16565b5f8155859450600101611007565b5f5160206121475f395f51905f529150610feb565b5080511515610eac565b634e487b7160e01b5f52602160045260245ffd5b61105e906109fe565b94610b44565b5060a083015115610abb565b909161107c83836118fd565b939015801561135d575b610ee657600481905560028054600380546001600160a01b0319166001600160a01b038681169190911790915562010000600160c01b0319909116602086811b640100000000600160c01b031691909117620100001790925590850180519095916110f191166109fe565b60408201805187519295919491926001600160a01b039182169116810361134e575084955b6001600160801b03608060018060a01b0360608701511695015116926040519461113f86610303565b5f86525f60208701525f60408701525f6060870152606060808701525f60a08701525f60c0870152606060e08701525f6101008701525f6101208701525f6101408701525f6101608701525f6101808701525f6101a08701525f6101c08701525f6101e08701525f6102008701525f6102208701525f610240870152606061026087015260606102808701526001865260208601525f60408601525f60608601526020936040516111f08682610334565b5f815260808701525f60a08701525f60c08701526040516112118682610334565b5f815260e08701526001600160801b036101008701526001600160801b036101208701525f6101408701525f6101608701525f6101808701526101a08601525f6101c08601525f6101e086015242610200860152306102208601525f6102408601526040516112808582610334565b5f81526102608601526040516112968582610334565b5f8152610280860152604051938085015284516003811015611041578461130d6113209761131b93604084015260018060a01b03602082015116606084015260408101516080840152606081015160a0840152610280610e35610d6b610d3f60808501516102a060c08901526102e0880190610356565b03601f198101865285610334565b611b9a565b15610ee6576002805461ff00191661010017905592519251610ee1936001600160a01b039182169116610452565b611357906109fe565b95611116565b5060a084015115611086565b91909161137683826118fd565b92901580156117a7575b610ee657600484905560028054600380546001600160a01b0319166001600160a01b039485161790556301000000600160c01b031916602084811b640100000000600160c01b03169190911763010000001762ff000019166201000017909155830180519094916113f191166109fe565b60408401805186519294919391926001600160a01b0391821691168103611798575083945b6001600160801b03608060018060a01b0360608401511692015116926040519161143f83610303565b5f83525f60208401525f60408401525f6060840152606060808401525f60a08401525f60c0840152606060e08401525f6101008401525f6101208401525f6101408401525f6101608401525f6101808401525f6101a08401525f6101c08401525f6101e08401525f6102008401525f6102208401525f610240840152606061026084015260606102808401526001835260208301525f60408301525f60608301526020936040516114f08682610334565b5f815260808401525f60a08401525f60c08401526040516115118682610334565b5f815260e08401526001600160801b036101008401526001600160801b036101208401525f6101408401525f6101608401525f6101808401526101a08301525f6101c08301525f6101e083015242610200830152306102208301525f6102408301526040516115808582610334565b5f81526102608301526040516115968582610334565b5f815261028083015260405184808201528251926003841015611041575f94610e5883610e4a611611948998604084015260018060a01b03602082015116606084015260408101516080840152606081015160a0840152610280610e35610d6b610d3f60808501516102a060c08901526102e0880190610356565b5190825f5160206121675f395f51905f525af161162c611f05565b81159290838061178e575b61166b57505050610ee6576002805461ff00191661010017905592519251610ee1936001600160a01b039182169116610452565b80519167ffffffffffffffff831161032057829161168a6005546102cb565b601f811161171b575b5081601f84116001146116c257505f92610f475750508160011b915f199060031b1c1916176005555f80610eb1565b60055f9081525f5160206121475f395f51905f529450601f198616915b828210611703575050908460019594939210610f9457505050811b01600555610f40565b806001869782949787015181550196019401906116df565b9091925060055f52601f840160051c5f5160206121475f395f51905f520190838510611779575b90601f859493920160051c5f5160206121475f395f51905f5201905b81811061176b5750611693565b5f815585945060010161175e565b5f5160206121475f395f51905f529150611742565b5080511515611637565b6117a1906109fe565b94611416565b5060a083015115611380565b90916117bf83836118fd565b9390158015611841575b610ee657600481905560028054600380546001600160a01b0319166001600160a01b03868116919091179091556301000000600160c01b0319909116602086811b640100000000600160c01b03169190911763010000001762ff00001916620100001790925590850180519095916110f191166109fe565b5060a0840151156117c9565b60405163e985e9c560e01b81526001600160a01b039182166004820152911660248201525f91906020816044815f5160206121675f395f51905f525afa5f918161189e575b5061189a5750565b9150565b9091506020813d6020116118d3575b816118ba60209383610334565b810103126100c9575180151581036100c957905f611892565b3d91506118ad565b51908160020b82036100c957565b51906001600160801b03821682036100c957565b604051929160c0840167ffffffffffffffff8111858210176103205760405260208401905f825260408501915f83525f606087015260808601905f82525f60a0880152869460018060a01b031687526040519263133f757160e31b84526004840152610180836024815f5160206121675f395f51905f525afa935f915f905f93875f975f99611a95575b5061199a575050505050505050505f9190565b6001600160a01b039081169091529081169091526001600160801b039190911690915260208401805194965091931673c02aaa39b223fe8d0a0e5c4f27ead9083c756cc28103611a495750516001600160a01b031660608501525b6001600160801b036080850151161591821592611a36575b508115611a23575b50151560a083015260019190565b6001600160801b0391501615155f611a15565b6001600160801b0316151591505f611a0d565b6040860180519092506001600160a01b031673c02aaa39b223fe8d0a0e5c4f27ead9083c756cc203611a8a5750516001600160a01b031660608501526119f5565b6060860152506119f5565b9550975050945050610180823d8211611b54575b81611ab76101809383610334565b810103126100c95781516001600160601b038116036100c957611adc60208301610a90565b50611ae960408301610a90565b93611af660608401610a90565b90608084015162ffffff8116036100c957611b1360a085016118db565b50611b2060c085016118db565b50611b2d60e085016118e9565b91611b48610160611b4161014088016118e9565b96016118e9565b9690929496975f611987565b3d9150611aa9565b61069f939260809260018060a01b0316825273531110418d8591c92e9cbbfc722db8ffb604fafd602083015260408201528160608201520190610356565b9092604051635c46a7ef60e11b6020820152611bbf81610e7884878960248501611b5c565b604051631cff79cd60e01b6020820152611bea90611be481610e788560248301611f44565b84611fe2565b611efb57604051635b0e93fb60e11b6020820152611c1390611be481610e788560248301611f68565b611efb5760405163e27c3e9160e01b60208201525f5160206121675f395f51905f5260248201525f604482015260606064820152611c5c90611be481610e786084820186610356565b611efb57604051631b8b921d60e01b6020820152611c8590611be481610e788560248301611f44565b611efb5760405163036df97d60e51b6020820152611cae90611be481610e788560248301611f68565b611efb57604051631376cd6560e31b6020820152611cd790611be481610e788560248301611f44565b611efb576040516347b7819960e11b6020820152611d0090611be481610e788560248301611f68565b611efb57604051635f30016160e11b6020820152611d2990611be481610e788560248301611f44565b611efb57604051630565bb6760e01b6020820152611d5290611be481610e788560248301611f68565b611efb57604051631b0f7ba960e01b60208201525f5160206121675f395f51905f5260248201525f604482015260606064820152611d9b90611be481610e786084820186610356565b611efb57604051631b0f7ba960e01b60208201525f5160206121675f395f51905f5260248201526001604482015260606064820152611de590611be481610e786084820186610356565b611efb57604051633f801f9160e01b60208201525f5160206121675f395f51905f5260248201525f604482015260606064820152611e2e90611be481610e786084820186610356565b611efb57604051633f801f9160e01b60208201525f5160206121675f395f51905f5260248201526001604482015260606064820152611e8191611e7b908290610e78906084830190610356565b83611fe2565b611ef25760405163711fbbe560e01b6020820152611eac90611e7b81610e7885888a60248501611f92565b611ef257611eea93611ed7611ee592604051958693632d8bf0c560e01b602086015260248501611f92565b03601f198101845283610334565b611fe2565b610ee1575f90565b50505050600190565b5050505050600190565b3d15611f3f573d9067ffffffffffffffff82116103205760405191611f34601f8201601f191660200184610334565b82523d5f602084013e565b606090565b90604061069f925f5160206121675f395f51905f5281528160208201520190610356565b90606061069f925f5160206121675f395f51905f5281525f60208201528160408201520190610356565b61069f939260a0925f5160206121675f395f51905f528352600180851b0316602083015273531110418d8591c92e9cbbfc722db8ffb604fafd604083015260608201528160808201520190610356565b5f91829182602083519301915af190611ff9611f05565b82158061213c575b6120085750565b9190825167ffffffffffffffff8111610320576120266005546102cb565b601f81116120d4575b506020601f821160011461206957819293945f9261205e575b50508160011b915f199060031b1c191617600555565b015190505f80612048565b601f1982169060055f525f5160206121475f395f51905f52915f5b8181106120bc575095836001959697106120a4575b505050811b01600555565b01515f1960f88460031b161c191690555f8080612099565b9192602060018192868b015181550194019201612084565b60055f52601f820160051c5f5160206121475f395f51905f52019060208310612127575b601f0160051c5f5160206121475f395f51905f5201905b81811061211c575061202f565b5f815560010161210f565b5f5160206121475f395f51905f5291506120f8565b508051151561200156fe036b6384b5eca791c62761152d0c79bb0604c104a5fb6f4eb0703f3154bb3db0000000000000000000000000c36442b4a4522e871399cd717abdd847ab11fe88a2646970667358221220e76e8d7b6455373c87e5ed850f1edc0d152074aa62b62b36b03d9b48fb43e8a664736f6c634300081e0033","linkReferences":{}},"methodIdentifiers":{"approvalObserved()":"956c42ae","attempted()":"917f51b4","executeOnOpportunity()":"3c2448ed","exploitSucceeded()":"162aeb16","lastError()":"29f0de3f","observedApprovalForAll()":"b422c2b5","observedApprovedOperator()":"f9e74936","observedOwner()":"79965d8b","observedTokenId()":"f03ab81a","profitAmount()":"5ff972cc","profitToken()":"49343624"},"id":0}