{"abi":[{"type":"constructor","inputs":[],"stateMutability":"nonpayable"},{"type":"function","name":"REASON_BORROW_FAILED","inputs":[],"outputs":[{"name":"","type":"uint8","internalType":"uint8"}],"stateMutability":"view"},{"type":"function","name":"REASON_ENTER_MARKET_FAILED","inputs":[],"outputs":[{"name":"","type":"uint8","internalType":"uint8"}],"stateMutability":"view"},{"type":"function","name":"REASON_FLASHLOAN_FAILED","inputs":[],"outputs":[{"name":"","type":"uint8","internalType":"uint8"}],"stateMutability":"view"},{"type":"function","name":"REASON_INVALID_TARGET","inputs":[],"outputs":[{"name":"","type":"uint8","internalType":"uint8"}],"stateMutability":"view"},{"type":"function","name":"REASON_LIQUIDATION_FAILED","inputs":[],"outputs":[{"name":"","type":"uint8","internalType":"uint8"}],"stateMutability":"view"},{"type":"function","name":"REASON_NONE","inputs":[],"outputs":[{"name":"","type":"uint8","internalType":"uint8"}],"stateMutability":"view"},{"type":"function","name":"REASON_NO_BACKFILL","inputs":[],"outputs":[{"name":"","type":"uint8","internalType":"uint8"}],"stateMutability":"view"},{"type":"function","name":"REASON_NO_LIQUIDATION_ROUTE","inputs":[],"outputs":[{"name":"","type":"uint8","internalType":"uint8"}],"stateMutability":"view"},{"type":"function","name":"REASON_NO_LIQUIDITY","inputs":[],"outputs":[{"name":"","type":"uint8","internalType":"uint8"}],"stateMutability":"view"},{"type":"function","name":"REASON_NO_ROUTE","inputs":[],"outputs":[{"name":"","type":"uint8","internalType":"uint8"}],"stateMutability":"view"},{"type":"function","name":"REASON_REPAY_SWAP_FAILED","inputs":[],"outputs":[{"name":"","type":"uint8","internalType":"uint8"}],"stateMutability":"view"},{"type":"function","name":"TARGET","inputs":[],"outputs":[{"name":"","type":"address","internalType":"address"}],"stateMutability":"view"},{"type":"function","name":"VULNERABLE_IMPLEMENTATION","inputs":[],"outputs":[{"name":"","type":"address","internalType":"address"}],"stateMutability":"view"},{"type":"function","name":"accountLiquidityAfter","inputs":[],"outputs":[{"name":"","type":"uint256","internalType":"uint256"}],"stateMutability":"view"},{"type":"function","name":"accountShortfallAfter","inputs":[],"outputs":[{"name":"","type":"uint256","internalType":"uint256"}],"stateMutability":"view"},{"type":"function","name":"borrowAttemptAmount","inputs":[],"outputs":[{"name":"","type":"uint256","internalType":"uint256"}],"stateMutability":"view"},{"type":"function","name":"borrowResultCode","inputs":[],"outputs":[{"name":"","type":"uint256","internalType":"uint256"}],"stateMutability":"view"},{"type":"function","name":"chosenAmpRepay","inputs":[],"outputs":[{"name":"","type":"uint256","internalType":"uint256"}],"stateMutability":"view"},{"type":"function","name":"chosenBuyPair","inputs":[],"outputs":[{"name":"","type":"address","internalType":"address"}],"stateMutability":"view"},{"type":"function","name":"chosenCAmpOut","inputs":[],"outputs":[{"name":"","type":"uint256","internalType":"uint256"}],"stateMutability":"view"},{"type":"function","name":"chosenExitPair","inputs":[],"outputs":[{"name":"","type":"address","internalType":"address"}],"stateMutability":"view"},{"type":"function","name":"chosenProjectedProfit","inputs":[],"outputs":[{"name":"","type":"uint256","internalType":"uint256"}],"stateMutability":"view"},{"type":"function","name":"chosenQuoteRepay","inputs":[],"outputs":[{"name":"","type":"uint256","internalType":"uint256"}],"stateMutability":"view"},{"type":"function","name":"chosenQuoteToken","inputs":[],"outputs":[{"name":"","type":"address","internalType":"address"}],"stateMutability":"view"},{"type":"function","name":"collateralCapObserved","inputs":[],"outputs":[{"name":"","type":"uint256","internalType":"uint256"}],"stateMutability":"view"},{"type":"function","name":"executeOnOpportunity","inputs":[],"outputs":[],"stateMutability":"nonpayable"},{"type":"function","name":"exploitPath","inputs":[],"outputs":[{"name":"","type":"string","internalType":"string"}],"stateMutability":"pure"},{"type":"function","name":"exploitPathAt","inputs":[{"name":"index","type":"uint256","internalType":"uint256"}],"outputs":[{"name":"","type":"string","internalType":"string"}],"stateMutability":"pure"},{"type":"function","name":"hypothesisValidated","inputs":[],"outputs":[{"name":"","type":"bool","internalType":"bool"}],"stateMutability":"view"},{"type":"function","name":"lastFailureReason","inputs":[],"outputs":[{"name":"","type":"uint8","internalType":"uint8"}],"stateMutability":"view"},{"type":"function","name":"liquidationBorrower","inputs":[],"outputs":[{"name":"","type":"address","internalType":"address"}],"stateMutability":"view"},{"type":"function","name":"liquidationFlashFee","inputs":[],"outputs":[{"name":"","type":"uint256","internalType":"uint256"}],"stateMutability":"view"},{"type":"function","name":"liquidationRepayAmount","inputs":[],"outputs":[{"name":"","type":"uint256","internalType":"uint256"}],"stateMutability":"view"},{"type":"function","name":"liquidationSeizeTokens","inputs":[],"outputs":[{"name":"","type":"uint256","internalType":"uint256"}],"stateMutability":"view"},{"type":"function","name":"onFlashLoan","inputs":[{"name":"initiator","type":"address","internalType":"address"},{"name":"token","type":"address","internalType":"address"},{"name":"amount","type":"uint256","internalType":"uint256"},{"name":"fee","type":"uint256","internalType":"uint256"},{"name":"data","type":"bytes","internalType":"bytes"}],"outputs":[{"name":"","type":"bytes32","internalType":"bytes32"}],"stateMutability":"nonpayable"},{"type":"function","name":"profitAmount","inputs":[],"outputs":[{"name":"","type":"uint256","internalType":"uint256"}],"stateMutability":"view"},{"type":"function","name":"profitToken","inputs":[],"outputs":[{"name":"","type":"address","internalType":"address"}],"stateMutability":"view"},{"type":"function","name":"startRoute","inputs":[{"name":"buyPair","type":"address","internalType":"address"},{"name":"quoteToken","type":"address","internalType":"address"},{"name":"exitPair","type":"address","internalType":"address"},{"name":"cAmpOut","type":"uint256","internalType":"uint256"},{"name":"quoteRepay","type":"uint256","internalType":"uint256"},{"name":"ampRepay","type":"uint256","internalType":"uint256"},{"name":"minProfitRequired","type":"uint256","internalType":"uint256"}],"outputs":[],"stateMutability":"nonpayable"},{"type":"function","name":"sushiCall","inputs":[{"name":"","type":"address","internalType":"address"},{"name":"","type":"uint256","internalType":"uint256"},{"name":"","type":"uint256","internalType":"uint256"},{"name":"data","type":"bytes","internalType":"bytes"}],"outputs":[],"stateMutability":"nonpayable"},{"type":"function","name":"totalCollateralTokensAfter","inputs":[],"outputs":[{"name":"","type":"uint256","internalType":"uint256"}],"stateMutability":"view"},{"type":"function","name":"totalCollateralTokensBefore","inputs":[],"outputs":[{"name":"","type":"uint256","internalType":"uint256"}],"stateMutability":"view"},{"type":"function","name":"uniswapV2Call","inputs":[{"name":"","type":"address","internalType":"address"},{"name":"","type":"uint256","internalType":"uint256"},{"name":"","type":"uint256","internalType":"uint256"},{"name":"data","type":"bytes","internalType":"bytes"}],"outputs":[],"stateMutability":"nonpayable"},{"type":"function","name":"verifierCTokenBalanceBefore","inputs":[],"outputs":[{"name":"","type":"uint256","internalType":"uint256"}],"stateMutability":"view"},{"type":"function","name":"verifierCollateralAfter","inputs":[],"outputs":[{"name":"","type":"uint256","internalType":"uint256"}],"stateMutability":"view"},{"type":"function","name":"verifierCollateralBefore","inputs":[],"outputs":[{"name":"","type":"uint256","internalType":"uint256"}],"stateMutability":"view"}],"bytecode":{"object":"0x60c060405234801561000f575f5ffd5b505f732db6c82ce72c8d7d770ba1b5f5ed0b6e075066d690508073ffffffffffffffffffffffffffffffffffffffff16636f307dc36040518163ffffffff1660e01b8152600401602060405180830381865afa158015610071573d5f5f3e3d5ffd5b505050506040513d601f19601f8201168201806040525081019061009591906101a6565b73ffffffffffffffffffffffffffffffffffffffff1660808173ffffffffffffffffffffffffffffffffffffffff16815250505f8173ffffffffffffffffffffffffffffffffffffffff1663d2bb18e96040518163ffffffff1660e01b8152600401602060405180830381865afa158015610112573d5f5f3e3d5ffd5b505050506040513d601f19601f820116820180604052508101906101369190610204565b11151560a0811515815250505061022f565b5f5ffd5b5f73ffffffffffffffffffffffffffffffffffffffff82169050919050565b5f6101758261014c565b9050919050565b6101858161016b565b811461018f575f5ffd5b50565b5f815190506101a08161017c565b92915050565b5f602082840312156101bb576101ba610148565b5b5f6101c884828501610192565b91505092915050565b5f819050919050565b6101e3816101d1565b81146101ed575f5ffd5b50565b5f815190506101fe816101da565b92915050565b5f6020828403121561021957610218610148565b5b5f610226848285016101f0565b91505092915050565b60805160a0516170686102dc5f395f8181611206015261158501525f818161092d01528181610ab401528181610eca0152818161125f0152818161138d01528181611533015281816115ac015281816116d4015281816118950152818161216e015281816130c40152818161315c0152818161322b015281816133e70152818161365201528181614e8b01528181614ef901528181614fb90152818161517a015261525801526170685ff3fe608060405234801561000f575f5ffd5b506004361061027c575f3560e01c8063820e48e61161015a578063c9d9935f116100cc578063e3a2523211610085578063e3a252321461071c578063e8deff231461073a578063ee7d956414610758578063f9ae333814610776578063fa1cb2ca14610794578063fde8ae28146107b25761027c565b8063c9d9935f14610656578063cb707c6214610674578063cc1f2afa14610692578063cce87ae2146106b0578063cfd9ed44146106e0578063d963d53f146106fe5761027c565b806395d23e881161011e57806395d23e88146105a4578063a935b118146105c2578063ac855c99146105e0578063bcdac010146105fc578063be1629101461061a578063c3f5d6bc146106385761027c565b8063820e48e61461050e578063844286351461052c5780638a5985a81461054a578063901370c214610568578063938252fe146105865761027c565b806345b66629116101f35780635ff972cc116101b75780635ff972cc1461045a578063659321151461047857806366c9120c1461049657806374b4b955146104b45780637635b424146104d25780637c2774df146104f05761027c565b806345b66629146103c4578063463defd1146103e257806349343624146104005780634b054bea1461041e5780635f9289bf1461043c5761027c565b806310d1e85c1161024557806310d1e85c146103145780631e06f12b1461033057806323e30c8b1461034e5780632cbd91f01461037e57806338bac30f1461039c5780633c2448ed146103ba5761027c565b80629914031461028057806303ecf3d51461029c57806304a99dbb146102ba57806309584243146102d85780630eb0061b146102f6575b5f5ffd5b61029a600480360381019061029591906153c8565b6107d0565b005b6102a46107e1565b6040516102b1919061545b565b60405180910390f35b6102c2610806565b6040516102cf9190615483565b60405180910390f35b6102e061080c565b6040516102ed91906154b7565b60405180910390f35b6102fe61081d565b60405161030b9190615483565b60405180910390f35b61032e600480360381019061032991906153c8565b610823565b005b610338610834565b6040516103459190615483565b60405180910390f35b610368600480360381019061036391906154d0565b61083a565b604051610375919061557e565b60405180910390f35b610386610f43565b604051610393919061545b565b60405180910390f35b6103a4610f68565b6040516103b19190615483565b60405180910390f35b6103c2610f6e565b005b6103cc61157c565b6040516103d99190615483565b60405180910390f35b6103ea611582565b6040516103f791906155b1565b60405180910390f35b6104086115a9565b604051610415919061545b565b60405180910390f35b6104266115d0565b6040516104339190615483565b60405180910390f35b6104446115d6565b60405161045191906154b7565b60405180910390f35b6104626115db565b60405161046f9190615483565b60405180910390f35b6104806115e3565b60405161048d9190615483565b60405180910390f35b61049e6115e9565b6040516104ab9190615483565b60405180910390f35b6104bc6115ef565b6040516104c99190615483565b60405180910390f35b6104da6115f5565b6040516104e791906154b7565b60405180910390f35b6104f86115fa565b6040516105059190615483565b60405180910390f35b610516611600565b60405161052391906154b7565b60405180910390f35b610534611605565b60405161054191906154b7565b60405180910390f35b61055261160a565b60405161055f91906154b7565b60405180910390f35b61057061160f565b60405161057d9190615483565b60405180910390f35b61058e611615565b60405161059b919061545b565b60405180910390f35b6105ac61163a565b6040516105b9919061545b565b60405180910390f35b6105ca611652565b6040516105d79190615483565b60405180910390f35b6105fa60048036038101906105f591906155ca565b611658565b005b610604611917565b60405161061191906154b7565b60405180910390f35b61062261191b565b60405161062f9190615483565b60405180910390f35b610640611921565b60405161064d91906154b7565b60405180910390f35b61065e611926565b60405161066b91906154b7565b60405180910390f35b61067c61192b565b60405161068991906156d7565b60405180910390f35b61069a61194c565b6040516106a7919061545b565b60405180910390f35b6106ca60048036038101906106c591906156f7565b611964565b6040516106d791906156d7565b60405180910390f35b6106e8611a45565b6040516106f59190615483565b60405180910390f35b610706611a4b565b60405161071391906154b7565b60405180910390f35b610724611a50565b6040516107319190615483565b60405180910390f35b610742611a56565b60405161074f91906154b7565b60405180910390f35b610760611a5b565b60405161076d9190615483565b60405180910390f35b61077e611a61565b60405161078b9190615483565b60405180910390f35b61079c611a67565b6040516107a9919061545b565b60405180910390f35b6107ba611a8c565b6040516107c791906154b7565b60405180910390f35b6107da8282611a91565b5050505050565b600c5f9054906101000a900473ffffffffffffffffffffffffffffffffffffffff1681565b60155481565b60018054906101000a900460ff1681565b60035481565b61082d8282611a91565b5050505050565b600a5481565b5f732db6c82ce72c8d7d770ba1b5f5ed0b6e075066d673ffffffffffffffffffffffffffffffffffffffff163373ffffffffffffffffffffffffffffffffffffffff16146108bd576040517f08c379a00000000000000000000000000000000000000000000000000000000081526004016108b49061576c565b60405180910390fd5b3073ffffffffffffffffffffffffffffffffffffffff168773ffffffffffffffffffffffffffffffffffffffff161461092b576040517f08c379a0000000000000000000000000000000000000000000000000000000008152600401610922906157d4565b60405180910390fd5b7f000000000000000000000000000000000000000000000000000000000000000073ffffffffffffffffffffffffffffffffffffffff168673ffffffffffffffffffffffffffffffffffffffff16146109b9576040517f08c379a00000000000000000000000000000000000000000000000000000000081526004016109b09061583c565b60405180910390fd5b5f5f84848101906109ca9190615895565b915091508160135f6101000a81548173ffffffffffffffffffffffffffffffffffffffff021916908373ffffffffffffffffffffffffffffffffffffffff16021790555080601481905550856016819055505f732db6c82ce72c8d7d770ba1b5f5ed0b6e075066d690505f8173ffffffffffffffffffffffffffffffffffffffff166370a08231306040518263ffffffff1660e01b8152600401610a6e919061545b565b602060405180830381865afa158015610a89573d5f5f3e3d5ffd5b505050506040513d601f19601f82011682018060405250810190610aad91906158e7565b9050610aee7f0000000000000000000000000000000000000000000000000000000000000000732db6c82ce72c8d7d770ba1b5f5ed0b6e075066d685611bcc565b5f8273ffffffffffffffffffffffffffffffffffffffff1663f5e3c4628686732db6c82ce72c8d7d770ba1b5f5ed0b6e075066d66040518463ffffffff1660e01b8152600401610b4093929190615912565b6020604051808303815f875af1158015610b5c573d5f5f3e3d5ffd5b505050506040513d601f19601f82011682018060405250810190610b8091906158e7565b90505f8114610bdf57600a6001806101000a81548160ff021916908360ff1602179055506040517f08c379a0000000000000000000000000000000000000000000000000000000008152600401610bd690615991565b60405180910390fd5b5f8373ffffffffffffffffffffffffffffffffffffffff166370a08231306040518263ffffffff1660e01b8152600401610c19919061545b565b602060405180830381865afa158015610c34573d5f5f3e3d5ffd5b505050506040513d601f19601f82011682018060405250810190610c5891906158e7565b9050828111610c9c576040517f08c379a0000000000000000000000000000000000000000000000000000000008152600401610c93906159f9565b60405180910390fd5b8281610ca89190615a44565b601581905550826005819055508373ffffffffffffffffffffffffffffffffffffffff1663d240d64a306040518263ffffffff1660e01b8152600401610cee919061545b565b602060405180830381865afa158015610d09573d5f5f3e3d5ffd5b505050506040513d601f19601f82011682018060405250810190610d2d91906158e7565b6007819055508373ffffffffffffffffffffffffffffffffffffffff166319a4dd3c6040518163ffffffff1660e01b8152600401602060405180830381865afa158015610d7c573d5f5f3e3d5ffd5b505050506040513d601f19601f82011682018060405250810190610da091906158e7565b60048190555060035460045411610e075760036001806101000a81548160ff021916908360ff1602179055506040517f08c379a0000000000000000000000000000000000000000000000000000000008152600401610dfe90615ac1565b60405180910390fd5b5f8473ffffffffffffffffffffffffffffffffffffffff1663db006a75836040518263ffffffff1660e01b8152600401610e419190615483565b6020604051808303815f875af1158015610e5d573d5f5f3e3d5ffd5b505050506040513d601f19601f82011682018060405250810190610e8191906158e7565b90505f8114610ec5576040517f08c379a0000000000000000000000000000000000000000000000000000000008152600401610ebc90615b29565b60405180910390fd5b610f0f7f0000000000000000000000000000000000000000000000000000000000000000732db6c82ce72c8d7d770ba1b5f5ed0b6e075066d68d8f610f0a9190615b47565b611bcc565b7f7968ba28153757de2da7bce4c2ba9ebaf94445061f3050de1b0de5c34bb7d5d89750505050505050509695505050505050565b60135f9054906101000a900473ffffffffffffffffffffffffffffffffffffffff1681565b60105481565b60015f9054906101000a900460ff1661157a576001805f6101000a81548160ff0219169083151502179055505f732db6c82ce72c8d7d770ba1b5f5ed0b6e075066d690505f8173ffffffffffffffffffffffffffffffffffffffff16635fe3b5676040518163ffffffff1660e01b8152600401602060405180830381865afa158015610ffc573d5f5f3e3d5ffd5b505050506040513d601f19601f820116820180604052508101906110209190615b8e565b90508173ffffffffffffffffffffffffffffffffffffffff1663d2bb18e96040518163ffffffff1660e01b8152600401602060405180830381865afa15801561106b573d5f5f3e3d5ffd5b505050506040513d601f19601f8201168201806040525081019061108f91906158e7565b6002819055508173ffffffffffffffffffffffffffffffffffffffff166319a4dd3c6040518163ffffffff1660e01b8152600401602060405180830381865afa1580156110de573d5f5f3e3d5ffd5b505050506040513d601f19601f8201168201806040525081019061110291906158e7565b6003819055508173ffffffffffffffffffffffffffffffffffffffff166370a08231306040518263ffffffff1660e01b8152600401611141919061545b565b602060405180830381865afa15801561115c573d5f5f3e3d5ffd5b505050506040513d601f19601f8201168201806040525081019061118091906158e7565b6005819055508173ffffffffffffffffffffffffffffffffffffffff1663d240d64a306040518263ffffffff1660e01b81526004016111bf919061545b565b602060405180830381865afa1580156111da573d5f5f3e3d5ffd5b505050506040513d601f19601f820116820180604052508101906111fe91906158e7565b6006819055507f0000000000000000000000000000000000000000000000000000000000000000158061123257505f600254145b156112595760018060016101000a81548160ff021916908360ff160217905550505061157a565b5f6112847f000000000000000000000000000000000000000000000000000000000000000030611f20565b9050611291838383611fa1565b156113d7578273ffffffffffffffffffffffffffffffffffffffff166319a4dd3c6040518163ffffffff1660e01b8152600401602060405180830381865afa1580156112df573d5f5f3e3d5ffd5b505050506040513d601f19601f8201168201806040525081019061130391906158e7565b6004819055508273ffffffffffffffffffffffffffffffffffffffff1663d240d64a306040518263ffffffff1660e01b8152600401611342919061545b565b602060405180830381865afa15801561135d573d5f5f3e3d5ffd5b505050506040513d601f19601f8201168201806040525081019061138191906158e7565b6007819055505f6113b27f000000000000000000000000000000000000000000000000000000000000000030611f20565b9050818111156113ce5781816113c89190615a44565b5f819055505b5050505061157a565b5f6113e38484846121e7565b9050806113f8576113f5848484612475565b90505b8061143c575f60ff1660018054906101000a900460ff1660ff16036114335760026001806101000a81548160ff021916908360ff1602179055505b5050505061157a565b8373ffffffffffffffffffffffffffffffffffffffff166319a4dd3c6040518163ffffffff1660e01b8152600401602060405180830381865afa158015611485573d5f5f3e3d5ffd5b505050506040513d601f19601f820116820180604052508101906114a991906158e7565b6004819055508373ffffffffffffffffffffffffffffffffffffffff1663d240d64a306040518263ffffffff1660e01b81526004016114e8919061545b565b602060405180830381865afa158015611503573d5f5f3e3d5ffd5b505050506040513d601f19601f8201168201806040525081019061152791906158e7565b6007819055505f6115587f000000000000000000000000000000000000000000000000000000000000000030611f20565b90508281111561157457828161156e9190615a44565b5f819055505b50505050505b565b60165481565b5f7f0000000000000000000000000000000000000000000000000000000000000000905090565b5f7f0000000000000000000000000000000000000000000000000000000000000000905090565b600b5481565b600a81565b5f5f54905090565b60055481565b60115481565b60085481565b600481565b60065481565b600681565b600981565b600181565b60075481565b600d5f9054906101000a900473ffffffffffffffffffffffffffffffffffffffff1681565b7396cc0f947b6c8f4675159ea03144f8c17d5a2fc881565b60025481565b3073ffffffffffffffffffffffffffffffffffffffff163373ffffffffffffffffffffffffffffffffffffffff16146116c6576040517f08c379a00000000000000000000000000000000000000000000000000000000081526004016116bd90615c03565b60405180910390fd5b6116ce61267d565b5f6116f97f000000000000000000000000000000000000000000000000000000000000000030611f20565b905087600c5f6101000a81548173ffffffffffffffffffffffffffffffffffffffff021916908373ffffffffffffffffffffffffffffffffffffffff16021790555085600d5f6101000a81548173ffffffffffffffffffffffffffffffffffffffff021916908373ffffffffffffffffffffffffffffffffffffffff16021790555086600e5f6101000a81548173ffffffffffffffffffffffffffffffffffffffff021916908373ffffffffffffffffffffffffffffffffffffffff16021790555084600f819055508360108190555082601181905550816012819055505f5f6117f88a732db6c82ce72c8d7d770ba1b5f5ed0b6e075066d6896128b3565b915091508973ffffffffffffffffffffffffffffffffffffffff1663022c0d9f8383308e8e8e8d8d604051602001611834959493929190615c21565b6040516020818303038152906040526040518563ffffffff1660e01b81526004016118629493929190615cc4565b5f604051808303815f87803b158015611879575f5ffd5b505af115801561188b573d5f5f3e3d5ffd5b505050505f6118ba7f000000000000000000000000000000000000000000000000000000000000000030611f20565b905084846118c89190615b47565b81101561190a576040517f08c379a000000000000000000000000000000000000000000000000000000000815260040161190190615d58565b60405180910390fd5b5050505050505050505050565b5f81565b60125481565b600781565b600281565b606060405180610120016040528060e18152602001616efd60e19139905090565b732db6c82ce72c8d7d770ba1b5f5ed0b6e075066d681565b60605f820361198d57604051806080016040528060558152602001616fde605591399050611a40565b600182036119b5576040518060e0016040528060b88152602001616d2a60b891399050611a40565b600282036119dd576040518060c0016040528060828152602001616e7b608291399050611a40565b60038203611a05576040518060c0016040528060998152602001616de2609991399050611a40565b6040517f08c379a0000000000000000000000000000000000000000000000000000000008152600401611a3790615dc0565b60405180910390fd5b919050565b60145481565b600581565b600f5481565b600381565b60095481565b60045481565b600e5f9054906101000a900473ffffffffffffffffffffffffffffffffffffffff1681565b600881565b5f5f5f5f5f8686810190611aa59190615dde565b945094509450945094508473ffffffffffffffffffffffffffffffffffffffff163373ffffffffffffffffffffffffffffffffffffffff1614611b1d576040517f08c379a0000000000000000000000000000000000000000000000000000000008152600401611b1490615e9f565b60405180910390fd5b5f732db6c82ce72c8d7d770ba1b5f5ed0b6e075066d690505f8173ffffffffffffffffffffffffffffffffffffffff16635fe3b5676040518163ffffffff1660e01b8152600401602060405180830381865afa158015611b7f573d5f5f3e3d5ffd5b505050506040513d601f19601f82011682018060405250810190611ba39190615b8e565b90505f611bb0838361296e565b9050611bc08888888888866130c2565b50505050505050505050565b5f5f8473ffffffffffffffffffffffffffffffffffffffff1663095ea7b38585604051602401611bfd929190615ebd565b6040516020818303038152906040529060e01b6020820180517bffffffffffffffffffffffffffffffffffffffffffffffffffffffff8381831617835250505050604051611c4b9190615f1e565b5f604051808303815f865af19150503d805f8114611c84576040519150601f19603f3d011682016040523d82523d5f602084013e611c89565b606091505b5091509150818015611cb657505f81511480611cb5575080806020019051810190611cb49190615f5e565b5b5b15611cc2575050611f1b565b8473ffffffffffffffffffffffffffffffffffffffff1663095ea7b3855f604051602401611cf1929190615fcb565b6040516020818303038152906040529060e01b6020820180517bffffffffffffffffffffffffffffffffffffffffffffffffffffffff8381831617835250505050604051611d3f9190615f1e565b5f604051808303815f865af19150503d805f8114611d78576040519150601f19603f3d011682016040523d82523d5f602084013e611d7d565b606091505b508092508193505050818015611dae57505f81511480611dad575080806020019051810190611dac9190615f5e565b5b5b611ded576040517f08c379a0000000000000000000000000000000000000000000000000000000008152600401611de49061603c565b60405180910390fd5b8473ffffffffffffffffffffffffffffffffffffffff1663095ea7b38585604051602401611e1c929190615ebd565b6040516020818303038152906040529060e01b6020820180517bffffffffffffffffffffffffffffffffffffffffffffffffffffffff8381831617835250505050604051611e6a9190615f1e565b5f604051808303815f865af19150503d805f8114611ea3576040519150601f19603f3d011682016040523d82523d5f602084013e611ea8565b606091505b508092508193505050818015611ed957505f81511480611ed8575080806020019051810190611ed79190615f5e565b5b5b611f18576040517f08c379a0000000000000000000000000000000000000000000000000000000008152600401611f0f906160a4565b60405180910390fd5b50505b505050565b5f8273ffffffffffffffffffffffffffffffffffffffff166370a08231836040518263ffffffff1660e01b8152600401611f5a919061545b565b602060405180830381865afa158015611f75573d5f5f3e3d5ffd5b505050506040513d601f19601f82011682018060405250810190611f9991906158e7565b905092915050565b5f5f60055490505f81148061202a57508473ffffffffffffffffffffffffffffffffffffffff166385d8a2e6306040518263ffffffff1660e01b8152600401611fea919061545b565b602060405180830381865afa158015612005573d5f5f3e3d5ffd5b505050506040513d601f19601f820116820180604052508101906120299190615f5e565b5b15612038575f9150506121e0565b61204061267d565b5f8573ffffffffffffffffffffffffffffffffffffffff1663db006a755f6040518263ffffffff1660e01b815260040161207a91906160f2565b6020604051808303815f875af1158015612096573d5f5f3e3d5ffd5b505050506040513d601f19601f820116820180604052508101906120ba91906158e7565b90505f81146121195760036001806101000a81548160ff021916908360ff1602179055506040517f08c379a000000000000000000000000000000000000000000000000000000000815260040161211090616155565b60405180910390fd5b5f612124878761296e565b90505f8103612168576040517f08c379a000000000000000000000000000000000000000000000000000000000815260040161215f906161bd565b60405180910390fd5b5f6121937f000000000000000000000000000000000000000000000000000000000000000030611f20565b90508581116121d7576040517f08c379a00000000000000000000000000000000000000000000000000000000081526004016121ce90616225565b60405180910390fd5b60019450505050505b9392505050565b5f5f8373ffffffffffffffffffffffffffffffffffffffff16638e8f294b732db6c82ce72c8d7d770ba1b5f5ed0b6e075066d66040518263ffffffff1660e01b8152600401612236919061545b565b608060405180830381865afa158015612251573d5f5f3e3d5ffd5b505050506040513d601f19601f82011682018060405250810190612275919061626d565b50509150505f81036122a55760046001806101000a81548160ff021916908360ff1602179055505f91505061246e565b5f8573ffffffffffffffffffffffffffffffffffffffff1663182df0f56040518163ffffffff1660e01b8152600401602060405180830381865afa1580156122ef573d5f5f3e3d5ffd5b505050506040513d601f19601f8201168201806040525081019061231391906158e7565b90505f8673ffffffffffffffffffffffffffffffffffffffff16633b1d21a26040518163ffffffff1660e01b8152600401602060405180830381865afa15801561235f573d5f5f3e3d5ffd5b505050506040513d601f19601f8201168201806040525081019061238391906158e7565b90505f82148061239257505f81145b156123bd5760046001806101000a81548160ff021916908360ff1602179055505f935050505061246e565b81601781905550826018819055508060198190555084601a819055505f5f90505b600281101561244b575f6123f18261339c565b90505f5f90505b600581101561243c575f61240b826133dd565b905061241983828d8d613496565b1561242e57600197505050505050505061246e565b5080806001019150506123f8565b505080806001019150506123de565b5060026001806101000a81548160ff021916908360ff1602179055505f93505050505b9392505050565b5f5f8373ffffffffffffffffffffffffffffffffffffffff1663e87554466040518163ffffffff1660e01b8152600401602060405180830381865afa1580156124c0573d5f5f3e3d5ffd5b505050506040513d601f19601f820116820180604052508101906124e491906158e7565b90505f8573ffffffffffffffffffffffffffffffffffffffff1663182df0f56040518163ffffffff1660e01b8152600401602060405180830381865afa158015612530573d5f5f3e3d5ffd5b505050506040513d601f19601f8201168201806040525081019061255491906158e7565b90505f8673ffffffffffffffffffffffffffffffffffffffff1663242c127c6040518163ffffffff1660e01b8152600401602060405180830381865afa1580156125a0573d5f5f3e3d5ffd5b505050506040513d601f19601f820116820180604052508101906125c491906158e7565b90505f8314806125d357505f82145b806125dd57505f81145b156126085760086001806101000a81548160ff021916908360ff1602179055505f9350505050612676565b5f5f90505b612615613716565b811015612653575f6126268261371e565b90506126328782613de7565b1561264557600195505050505050612676565b50808060010191505061260d565b5060086001806101000a81548160ff021916908360ff1602179055505f93505050505b9392505050565b5f600167ffffffffffffffff811115612699576126986162d1565b5b6040519080825280602002602001820160405280156126c75781602001602082028036833780820191505090505b509050732db6c82ce72c8d7d770ba1b5f5ed0b6e075066d6815f815181106126f2576126f16162fe565b5b602002602001019073ffffffffffffffffffffffffffffffffffffffff16908173ffffffffffffffffffffffffffffffffffffffff16815250505f732db6c82ce72c8d7d770ba1b5f5ed0b6e075066d673ffffffffffffffffffffffffffffffffffffffff16635fe3b5676040518163ffffffff1660e01b8152600401602060405180830381865afa15801561278a573d5f5f3e3d5ffd5b505050506040513d601f19601f820116820180604052508101906127ae9190615b8e565b73ffffffffffffffffffffffffffffffffffffffff1663c2998238836040518263ffffffff1660e01b81526004016127e691906163e2565b5f604051808303815f875af1158015612801573d5f5f3e3d5ffd5b505050506040513d5f823e3d601f19601f82011682018060405250810190612829919061650d565b90505f8151148061285457505f815f81518110612849576128486162fe565b5b602002602001015114155b156128af5760076001806101000a81548160ff021916908360ff1602179055506040517f08c379a00000000000000000000000000000000000000000000000000000000081526004016128a69061659e565b60405180910390fd5b5050565b5f5f8373ffffffffffffffffffffffffffffffffffffffff168573ffffffffffffffffffffffffffffffffffffffff16630dfe16816040518163ffffffff1660e01b8152600401602060405180830381865afa158015612915573d5f5f3e3d5ffd5b505050506040513d601f19601f820116820180604052508101906129399190615b8e565b73ffffffffffffffffffffffffffffffffffffffff160361295f578291505f9050612966565b5f91508290505b935093915050565b5f8273ffffffffffffffffffffffffffffffffffffffff1663d240d64a306040518263ffffffff1660e01b81526004016129a8919061545b565b602060405180830381865afa1580156129c3573d5f5f3e3d5ffd5b505050506040513d601f19601f820116820180604052508101906129e791906158e7565b6007819055508273ffffffffffffffffffffffffffffffffffffffff166319a4dd3c6040518163ffffffff1660e01b8152600401602060405180830381865afa158015612a36573d5f5f3e3d5ffd5b505050506040513d601f19601f82011682018060405250810190612a5a91906158e7565b6004819055505f6007541480612a74575060035460045411155b15612acf5760036001806101000a81548160ff021916908360ff1602179055506040517f08c379a0000000000000000000000000000000000000000000000000000000008152600401612ac690616606565b60405180910390fd5b5f600167ffffffffffffffff811115612aeb57612aea6162d1565b5b604051908082528060200260200182016040528015612b195781602001602082028036833780820191505090505b509050732db6c82ce72c8d7d770ba1b5f5ed0b6e075066d6815f81518110612b4457612b436162fe565b5b602002602001019073ffffffffffffffffffffffffffffffffffffffff16908173ffffffffffffffffffffffffffffffffffffffff16815250505f8373ffffffffffffffffffffffffffffffffffffffff1663c2998238836040518263ffffffff1660e01b8152600401612bb891906163e2565b5f604051808303815f875af1158015612bd3573d5f5f3e3d5ffd5b505050506040513d5f823e3d601f19601f82011682018060405250810190612bfb919061650d565b90505f815114158015612c2757505f815f81518110612c1d57612c1c6162fe565b5b6020026020010151145b612c66576040517f08c379a0000000000000000000000000000000000000000000000000000000008152600401612c5d9061659e565b60405180910390fd5b5f5f5f8673ffffffffffffffffffffffffffffffffffffffff16635ec88c79306040518263ffffffff1660e01b8152600401612ca2919061545b565b606060405180830381865afa158015612cbd573d5f5f3e3d5ffd5b505050506040513d601f19601f82011682018060405250810190612ce19190616624565b92509250925081600881905550806009819055505f83141580612d0357505f82145b80612d0e57505f8114155b15612d695760046001806101000a81548160ff021916908360ff1602179055506040517f08c379a0000000000000000000000000000000000000000000000000000000008152600401612d60906166be565b60405180910390fd5b5f8773ffffffffffffffffffffffffffffffffffffffff16637dc0d1d06040518163ffffffff1660e01b8152600401602060405180830381865afa158015612db3573d5f5f3e3d5ffd5b505050506040513d601f19601f82011682018060405250810190612dd79190615b8e565b73ffffffffffffffffffffffffffffffffffffffff1663fc57d4df732db6c82ce72c8d7d770ba1b5f5ed0b6e075066d66040518263ffffffff1660e01b8152600401612e23919061545b565b602060405180830381865afa158015612e3e573d5f5f3e3d5ffd5b505050506040513d601f19601f82011682018060405250810190612e6291906158e7565b90505f8973ffffffffffffffffffffffffffffffffffffffff16633b1d21a26040518163ffffffff1660e01b8152600401602060405180830381865afa158015612eae573d5f5f3e3d5ffd5b505050506040513d601f19601f82011682018060405250810190612ed291906158e7565b90505f8214158015612ee457505f8114155b612f23576040517f08c379a0000000000000000000000000000000000000000000000000000000008152600401612f1a90616726565b60405180910390fd5b5f82670de0b6b3a764000086612f399190616744565b612f4391906167b2565b90505f61271061270684612f579190616744565b612f6191906167b2565b90506127106126de83612f749190616744565b612f7e91906167b2565b9950808a1115612f8c578099505b5f8a03612fce576040517f08c379a0000000000000000000000000000000000000000000000000000000008152600401612fc59061682c565b60405180910390fd5b89600a819055508b73ffffffffffffffffffffffffffffffffffffffff1663c5ebeaec8b6040518263ffffffff1660e01b815260040161300e9190615483565b6020604051808303815f875af115801561302a573d5f5f3e3d5ffd5b505050506040513d601f19601f8201168201806040525081019061304e91906158e7565b600b819055505f600b54146130b35760056001806101000a81548160ff021916908360ff1602179055506040517f08c379a00000000000000000000000000000000000000000000000000000000081526004016130aa90616894565b60405180910390fd5b50505050505050505092915050565b7f000000000000000000000000000000000000000000000000000000000000000073ffffffffffffffffffffffffffffffffffffffff168573ffffffffffffffffffffffffffffffffffffffff160361318757828111613157576040517f08c379a000000000000000000000000000000000000000000000000000000000815260040161314e906168fc565b60405180910390fd5b6131827f000000000000000000000000000000000000000000000000000000000000000087856145ba565b613394565b5f73ffffffffffffffffffffffffffffffffffffffff168473ffffffffffffffffffffffffffffffffffffffff1614806131c057505f82145b806131cb5750818111155b156132265760066001806101000a81548160ff021916908360ff1602179055506040517f08c379a000000000000000000000000000000000000000000000000000000000815260040161321d90616964565b60405180910390fd5b6132517f000000000000000000000000000000000000000000000000000000000000000085846145ba565b5f5f61325e8688876128b3565b915091508573ffffffffffffffffffffffffffffffffffffffff1663022c0d9f8383305f67ffffffffffffffff81111561329b5761329a6162d1565b5b6040519080825280601f01601f1916602001820160405280156132cd5781602001600182028036833780820191505090505b506040518563ffffffff1660e01b81526004016132ed9493929190615cc4565b5f604051808303815f87803b158015613304575f5ffd5b505af1158015613316573d5f5f3e3d5ffd5b505050505f6133258830611f20565b9050858110156133855760066001806101000a81548160ff021916908360ff1602179055506040517f08c379a000000000000000000000000000000000000000000000000000000000815260040161337c906169cc565b60405180910390fd5b613390888a886145ba565b5050505b505050505050565b5f5f82036133c057735c69bee701ef814a2b6a3edd4b1652cb9cc5aa6f90506133d8565b73c0aee478e3658e2610c5f7a4a2e1777ce9e4f2ac90505b919050565b5f5f820361340d577f00000000000000000000000000000000000000000000000000000000000000009050613491565b600182036134315773c02aaa39b223fe8d0a0e5c4f27ead9083c756cc29050613491565b6002820361345557736b175474e89094c44da98b954eedeac495271d0f9050613491565b600382036134795773a0b86991c6218b36c1d19d4a2e9eb0ce3606eb489050613491565b73dac17f958d2ee523a2206206994597c13d831ec790505b919050565b5f5f8573ffffffffffffffffffffffffffffffffffffffff1663e6a43905732db6c82ce72c8d7d770ba1b5f5ed0b6e075066d6876040518363ffffffff1660e01b81526004016134e79291906169ea565b602060405180830381865afa158015613502573d5f5f3e3d5ffd5b505050506040513d601f19601f820116820180604052508101906135269190615b8e565b90505f73ffffffffffffffffffffffffffffffffffffffff168173ffffffffffffffffffffffffffffffffffffffff1603613564575f91505061370e565b61356f8185856146ea565b61357c575f91505061370e565b5f5f61359d8388732db6c82ce72c8d7d770ba1b5f5ed0b6e075066d661489c565b915091505f8214806135ae57505f81145b156135be575f935050505061370e565b5f5f90505b6009811015613706575f6135d682614c2e565b836135e191906167b2565b90505f8114806135f15750828110155b156135fc57506136f9565b5f613608828686614ccb565b90505f8114806136185750848110155b156136245750506136f9565b5f61363783601754601854601954614d4d565b905067016345785d8a00008111613650575050506136f9565b7f000000000000000000000000000000000000000000000000000000000000000073ffffffffffffffffffffffffffffffffffffffff168b73ffffffffffffffffffffffffffffffffffffffff16036136d0576136b3878c858585601a54614dcc565b156136c857600197505050505050505061370e565b5050506136f9565b6136e08b88858585601a54614ebf565b156136f557600197505050505050505061370e565b5050505b80806001019150506135c3565b505f93505050505b949350505050565b5f6030905090565b5f5f8203613742577322b243b96495c547598d9042b6f94b01c22b2e9e9050613de2565b600182036137665773c7fd8dcee4697ceef5a2fd4608a7bd6a94c774809050613de2565b6002820361378a57735864c777697bf9881220328bf2f16908c9afcd7e9050613de2565b600382036137ae57732f2c0c1727ce8c429a237ddfbbb87357893fbd5d9050613de2565b600482036137d25773b092b4601850e23903a42eacbc9d8a0eec26a4d59050613de2565b600582036137f65773bba12740de905707251525477bad74985dec46d29050613de2565b6006820361381a5773ce4fe9b4b8ff61949dcfeb7e03bc9faca59d2eb39050613de2565b6007820361383e57738379baa817c5c5ab929b03ee8e3c48e45018ae419050613de2565b600882036138625773d956188795ca6f4a74092ddca33e0ea4ca3a13959050613de2565b600982036138865773e89a6d0509faf730bd707bf868d9a2a744a363c79050613de2565b600a82036138aa5773bb0e17ef65f82ab018d8edd776e8dd940327b28b9050613de2565b600b82036138ce5773011a014d5e8eb4771e575bb1000318d509230afa9050613de2565b600c82036138f2577321011bc93d9e515b9511a817a1ed1d6d468f49fc9050613de2565b600d8203613916577371fc860f7d3a592a4a98740e39db31d25db65ae89050613de2565b600e820361393a57732847a5d7ce69790cb40471d454feb21a0be1f2e39050613de2565b600f820361395e57735dbcf33d8c2e976c6b560249878e6f1491bca25c9050613de2565b6010820361398257737f67ca2ce5299a67acd83d52a064c5b8e41ddb809050613de2565b601182036139a65773523effc8bfefc2948211a05a905f761cba5e8e9e9050613de2565b601282036139ca57731e0447b19bb6ecfdae1e4ae1694b0c3659614e4e9050613de2565b601382036139ee577345406ba53bb84cd32a58e7098a2d4d1b11b107f69050613de2565b60148203613a12577310fdbd1e48ee2fd9336a482d746138ae19e649db9050613de2565b60158203613a36577373a052500105205d34daf004eab301916da8190f9050613de2565b60168203613a5a57731ceb5cb57c4d4e2b2433641b95dd330a33185a449050613de2565b60178203613a7e57738b3ff1ed4f36c2c2be675afb13cc3aa5d73685a59050613de2565b60188203613aa25773ba4cfe5741b357fa371b506e5db0774abfecf8fc9050613de2565b60198203613ac6577325555933a8246ab67cbf907ce3d1949884e82b559050613de2565b601a8203613aea577319d1666f543d42ef17f66e376944a22aea1a8e469050613de2565b601b8203613b0e5773dbb5e3081def4b6cdd8864ac2aeda4cbf778fecf9050613de2565b601c8203613b3257737de0d6fce0c128395c488cb4df667cdbfb35d7de9050613de2565b601d8203613b5657734b0181102a0112a2ef11abee5563bb4a3176c9d79050613de2565b601e8203613b7a5773476c5e26a75bd202a9683ffd34359c0cc15be0ff9050613de2565b601f8203613b9e5773d37295796c8b885783bd0a4a6c890e3ddeae67059050613de2565b60208203613bc257736ba0c66c48641e220cf78177c144323b3838d3759050613de2565b60218203613be6577381fbef4704776cc5bba0a5df3a90056d2c6900b39050613de2565b60228203613c0a577385759961b116f1d36fd697855c57a6ae40793d9b9050613de2565b60238203613c2e5773cbc1065255cbc3ab41a6868c22d1f1c573ab89fd9050613de2565b60248203613c52577358da9c9fc3eb30abbcbbab5ddabb1e6e2ef3d2ef9050613de2565b60258203613c765773f04ce2e71d32d789a259428ddcd02d3c9f97fb4e9050613de2565b60268203613c9a57730eed07ced0c8c36d4a5bff44f2536422bb09be459050613de2565b60278203613cbe57731337def18c680af1f9f45cbcab6309562975b1dd9050613de2565b60288203613ce257732ba592f78db6436527729929aaf6c908497cb2009050613de2565b60298203613d065773338286c0bc081891a4bda39c7667ae150bf5d2069050613de2565b602a8203613d2a5773e11ba472f74869176652c35d30db89854b5ae84d9050613de2565b602b8203613d4e57730391d2021f89dc339f60fff84546ea23e337750f9050613de2565b602c8203613d7257731f573d6fb3f13d689ff844b4ce37794d79a7ff1c9050613de2565b602d8203613d9657731c8645bec146ae9a3489fc5821b69c91915773319050613de2565b602e8203613dba577303ab458634910aad20ef5f1c8ee96f1d6ac549199050613de2565b602f8203613dde577357ab1ec28d129707052df4df418d58a2d46d5f519050613de2565b5f90505b919050565b5f5f732db6c82ce72c8d7d770ba1b5f5ed0b6e075066d690505f8173ffffffffffffffffffffffffffffffffffffffff16635fe3b5676040518163ffffffff1660e01b8152600401602060405180830381865afa158015613e4a573d5f5f3e3d5ffd5b505050506040513d601f19601f82011682018060405250810190613e6e9190615b8e565b9050613e7861528c565b5f73ffffffffffffffffffffffffffffffffffffffff168573ffffffffffffffffffffffffffffffffffffffff161480613edd57503073ffffffffffffffffffffffffffffffffffffffff168573ffffffffffffffffffffffffffffffffffffffff16145b15613eed575f93505050506145b4565b8273ffffffffffffffffffffffffffffffffffffffff166385d8a2e6866040518263ffffffff1660e01b8152600401613f26919061545b565b602060405180830381865afa158015613f41573d5f5f3e3d5ffd5b505050506040513d601f19601f82011682018060405250810190613f659190615f5e565b15613f75575f93505050506145b4565b8173ffffffffffffffffffffffffffffffffffffffff1663929fe9a186732db6c82ce72c8d7d770ba1b5f5ed0b6e075066d66040518363ffffffff1660e01b8152600401613fc49291906169ea565b602060405180830381865afa158015613fdf573d5f5f3e3d5ffd5b505050506040513d601f19601f820116820180604052508101906140039190615f5e565b614012575f93505050506145b4565b8273ffffffffffffffffffffffffffffffffffffffff166370a08231866040518263ffffffff1660e01b815260040161404b919061545b565b602060405180830381865afa158015614066573d5f5f3e3d5ffd5b505050506040513d601f19601f8201168201806040525081019061408a91906158e7565b815f0181815250505f815f0151036140a7575f93505050506145b4565b5f8273ffffffffffffffffffffffffffffffffffffffff16635ec88c79876040518263ffffffff1660e01b81526004016140e1919061545b565b606060405180830381865afa1580156140fc573d5f5f3e3d5ffd5b505050506040513d601f19601f820116820180604052508101906141209190616624565b90508360e0018181525081925050505f8114158061414157505f8260e00151145b15614152575f9450505050506145b4565b8373ffffffffffffffffffffffffffffffffffffffff166395dd9193876040518263ffffffff1660e01b815260040161418b919061545b565b602060405180830381865afa1580156141a6573d5f5f3e3d5ffd5b505050506040513d601f19601f820116820180604052508101906141ca91906158e7565b8260200181815250505f8260200151036141ea575f9450505050506145b4565b5f8373ffffffffffffffffffffffffffffffffffffffff1663e87554466040518163ffffffff1660e01b8152600401602060405180830381865afa158015614234573d5f5f3e3d5ffd5b505050506040513d601f19601f8201168201806040525081019061425891906158e7565b90505f8573ffffffffffffffffffffffffffffffffffffffff1663242c127c6040518163ffffffff1660e01b8152600401602060405180830381865afa1580156142a4573d5f5f3e3d5ffd5b505050506040513d601f19601f820116820180604052508101906142c891906158e7565b9050670de0b6b3a76400008285602001516142e39190616744565b6142ed91906167b2565b846040018181525050612710612706856040015161430b9190616744565b61431591906167b2565b8460400181815250505f846040015114806143335750808460400151115b15614358575f810361434d575f96505050505050506145b4565b808460400181815250505b5f8573ffffffffffffffffffffffffffffffffffffffff1663c488847b732db6c82ce72c8d7d770ba1b5f5ed0b6e075066d68088604001516040518463ffffffff1660e01b81526004016143ae93929190616a11565b6040805180830381865afa1580156143c8573d5f5f3e3d5ffd5b505050506040513d601f19601f820116820180604052508101906143ec9190616a46565b866060018181525081925050505f8114158061440b57505f8560600151145b8061441c5750845f01518560600151115b15614430575f9750505050505050506145b4565b8673ffffffffffffffffffffffffffffffffffffffff1663a7af467a86604001516040518263ffffffff1660e01b815260040161446d9190615483565b602060405180830381865afa158015614488573d5f5f3e3d5ffd5b505050506040513d601f19601f820116820180604052508101906144ac91906158e7565b8560800181815250508673ffffffffffffffffffffffffffffffffffffffff1663182df0f56040518163ffffffff1660e01b8152600401602060405180830381865afa1580156144fe573d5f5f3e3d5ffd5b505050506040513d601f19601f8201168201806040525081019061452291906158e7565b8560a0018181525050670de0b6b3a76400008560a0015186606001516145489190616744565b61455291906167b2565b8560c001818152505067016345785d8a0000856080015186604001516145789190615b47565b6145829190615b47565b8560c001511161459b575f9750505050505050506145b4565b6145aa8986604001518c6150a4565b9750505050505050505b92915050565b5f5f8473ffffffffffffffffffffffffffffffffffffffff1663a9059cbb85856040516024016145eb929190615ebd565b6040516020818303038152906040529060e01b6020820180517bffffffffffffffffffffffffffffffffffffffffffffffffffffffff83818316178352505050506040516146399190615f1e565b5f604051808303815f865af19150503d805f8114614672576040519150601f19603f3d011682016040523d82523d5f602084013e614677565b606091505b50915091508180156146a457505f815114806146a35750808060200190518101906146a29190615f5e565b5b5b6146e3576040517f08c379a00000000000000000000000000000000000000000000000000000000081526004016146da90616ace565b60405180910390fd5b5050505050565b5f5f8373ffffffffffffffffffffffffffffffffffffffff166370a08231866040518263ffffffff1660e01b8152600401614725919061545b565b602060405180830381865afa158015614740573d5f5f3e3d5ffd5b505050506040513d601f19601f8201168201806040525081019061476491906158e7565b03614771575f9050614895565b8273ffffffffffffffffffffffffffffffffffffffff166385d8a2e6856040518263ffffffff1660e01b81526004016147aa919061545b565b602060405180830381865afa1580156147c5573d5f5f3e3d5ffd5b505050506040513d601f19601f820116820180604052508101906147e99190615f5e565b156147f6575f9050614895565b8173ffffffffffffffffffffffffffffffffffffffff1663929fe9a185732db6c82ce72c8d7d770ba1b5f5ed0b6e075066d66040518363ffffffff1660e01b81526004016148459291906169ea565b602060405180830381865afa158015614860573d5f5f3e3d5ffd5b505050506040513d601f19601f820116820180604052508101906148849190615f5e565b614890575f9050614895565b600190505b9392505050565b5f5f5f5f8673ffffffffffffffffffffffffffffffffffffffff16630902f1ac6040518163ffffffff1660e01b8152600401606060405180830381865afa1580156148e9573d5f5f3e3d5ffd5b505050506040513d601f19601f8201168201806040525081019061490d9190616b68565b50915091508573ffffffffffffffffffffffffffffffffffffffff168773ffffffffffffffffffffffffffffffffffffffff16630dfe16816040518163ffffffff1660e01b8152600401602060405180830381865afa158015614972573d5f5f3e3d5ffd5b505050506040513d601f19601f820116820180604052508101906149969190615b8e565b73ffffffffffffffffffffffffffffffffffffffff16148015614a5057508473ffffffffffffffffffffffffffffffffffffffff168773ffffffffffffffffffffffffffffffffffffffff1663d21220a76040518163ffffffff1660e01b8152600401602060405180830381865afa158015614a14573d5f5f3e3d5ffd5b505050506040513d601f19601f82011682018060405250810190614a389190615b8e565b73ffffffffffffffffffffffffffffffffffffffff16145b15614a8057816dffffffffffffffffffffffffffff169350806dffffffffffffffffffffffffffff169250614c24565b8473ffffffffffffffffffffffffffffffffffffffff168773ffffffffffffffffffffffffffffffffffffffff16630dfe16816040518163ffffffff1660e01b8152600401602060405180830381865afa158015614ae0573d5f5f3e3d5ffd5b505050506040513d601f19601f82011682018060405250810190614b049190615b8e565b73ffffffffffffffffffffffffffffffffffffffff16148015614bbe57508573ffffffffffffffffffffffffffffffffffffffff168773ffffffffffffffffffffffffffffffffffffffff1663d21220a76040518163ffffffff1660e01b8152600401602060405180830381865afa158015614b82573d5f5f3e3d5ffd5b505050506040513d601f19601f82011682018060405250810190614ba69190615b8e565b73ffffffffffffffffffffffffffffffffffffffff16145b614bfd576040517f08c379a0000000000000000000000000000000000000000000000000000000008152600401614bf490616c02565b60405180910390fd5b806dffffffffffffffffffffffffffff169350816dffffffffffffffffffffffffffff1692505b5050935093915050565b5f5f8203614c415762030d409050614cc6565b60018203614c5457620186a09050614cc6565b60028203614c665761c3509050614cc6565b60038203614c7857614e209050614cc6565b60048203614c8a576127109050614cc6565b60058203614c9c576113889050614cc6565b60068203614cae576107d09050614cc6565b60078203614cc0576103e89050614cc6565b6101f490505b919050565b5f5f841480614cd957505f83145b80614ce45750838211155b15614cf1575f9050614d46565b5f6103e88585614d019190616744565b614d0b9190616744565b90505f6103e58685614d1d9190615a44565b614d279190616744565b905060018183614d3791906167b2565b614d419190615b47565b925050505b9392505050565b5f5f670de0b6b3a76400008587614d649190616744565b614d6e91906167b2565b90505f670de0b6b3a76400008583614d869190616744565b614d9091906167b2565b90505f6127106126de86614da49190616744565b614dae91906167b2565b9050808210614dbd5780614dbf565b815b9350505050949350505050565b5f5f848411614ddb575f614de8565b8484614de79190615a44565b5b905067016345785d8a0000811015614e03575f915050614eb5565b3073ffffffffffffffffffffffffffffffffffffffff1663ac855c9989895f8a8a8b67016345785d8a00006040518863ffffffff1660e01b8152600401614e509796959493929190616c20565b5f604051808303815f87803b158015614e67575f5ffd5b505af1925050508015614e78575060015b614e85575f915050614eb5565b82614eb07f000000000000000000000000000000000000000000000000000000000000000030611f20565b119150505b9695505050505050565b5f5f5f90505b6002811015615095575f614ed88261339c565b90505f8173ffffffffffffffffffffffffffffffffffffffff1663e6a439057f00000000000000000000000000000000000000000000000000000000000000008c6040518363ffffffff1660e01b8152600401614f369291906169ea565b602060405180830381865afa158015614f51573d5f5f3e3d5ffd5b505050506040513d601f19601f82011682018060405250810190614f759190615b8e565b90505f73ffffffffffffffffffffffffffffffffffffffff168173ffffffffffffffffffffffffffffffffffffffff1603614fb1575050615088565b5f5f614fde837f00000000000000000000000000000000000000000000000000000000000000008e61489c565b915091505f821480614fef57505f81145b80614ffa5750808910155b156150085750505050615088565b5f6150148a8484614ccb565b90505f8114806150245750888110155b15615033575050505050615088565b5f818a6150409190615a44565b905067016345785d8a000081101561505d57505050505050615088565b61506c8d8f878f8f878f6151d0565b1561508157600197505050505050505061509a565b5050505050505b8080600101915050614ec5565b505f90505b9695505050505050565b5f5f732db6c82ce72c8d7d770ba1b5f5ed0b6e075066d690508073ffffffffffffffffffffffffffffffffffffffff16635cffe9de30308789896040516020016150ef929190615ebd565b6040516020818303038152906040526040518563ffffffff1660e01b815260040161511d9493929190616cdf565b6020604051808303815f875af192505050801561515857506040513d601f19601f820116820180604052508101906151559190615f5e565b60015b615165575f9150506151c9565b80615174575f925050506151c9565b5f61519f7f000000000000000000000000000000000000000000000000000000000000000030611f20565b905084811180156151c3575067016345785d8a000085826151c09190615a44565b10155b93505050505b9392505050565b5f3073ffffffffffffffffffffffffffffffffffffffff1663ac855c9989898989898967016345785d8a00006040518863ffffffff1660e01b815260040161521e9796959493929190616c20565b5f604051808303815f87803b158015615235575f5ffd5b505af1925050508015615246575060015b615252575f9050615281565b8161527d7f000000000000000000000000000000000000000000000000000000000000000030611f20565b1190505b979650505050505050565b6040518061010001604052805f81526020015f81526020015f81526020015f81526020015f81526020015f81526020015f81526020015f81525090565b5f604051905090565b5f5ffd5b5f5ffd5b5f73ffffffffffffffffffffffffffffffffffffffff82169050919050565b5f615303826152da565b9050919050565b615313816152f9565b811461531d575f5ffd5b50565b5f8135905061532e8161530a565b92915050565b5f819050919050565b61534681615334565b8114615350575f5ffd5b50565b5f813590506153618161533d565b92915050565b5f5ffd5b5f5ffd5b5f5ffd5b5f5f83601f84011261538857615387615367565b5b8235905067ffffffffffffffff8111156153a5576153a461536b565b5b6020830191508360018202830111156153c1576153c061536f565b5b9250929050565b5f5f5f5f5f608086880312156153e1576153e06152d2565b5b5f6153ee88828901615320565b95505060206153ff88828901615353565b945050604061541088828901615353565b935050606086013567ffffffffffffffff811115615431576154306152d6565b5b61543d88828901615373565b92509250509295509295909350565b615455816152f9565b82525050565b5f60208201905061546e5f83018461544c565b92915050565b61547d81615334565b82525050565b5f6020820190506154965f830184615474565b92915050565b5f60ff82169050919050565b6154b18161549c565b82525050565b5f6020820190506154ca5f8301846154a8565b92915050565b5f5f5f5f5f5f60a087890312156154ea576154e96152d2565b5b5f6154f789828a01615320565b965050602061550889828a01615320565b955050604061551989828a01615353565b945050606061552a89828a01615353565b935050608087013567ffffffffffffffff81111561554b5761554a6152d6565b5b61555789828a01615373565b92509250509295509295509295565b5f819050919050565b61557881615566565b82525050565b5f6020820190506155915f83018461556f565b92915050565b5f8115159050919050565b6155ab81615597565b82525050565b5f6020820190506155c45f8301846155a2565b92915050565b5f5f5f5f5f5f5f60e0888a0312156155e5576155e46152d2565b5b5f6155f28a828b01615320565b97505060206156038a828b01615320565b96505060406156148a828b01615320565b95505060606156258a828b01615353565b94505060806156368a828b01615353565b93505060a06156478a828b01615353565b92505060c06156588a828b01615353565b91505092959891949750929550565b5f81519050919050565b5f82825260208201905092915050565b8281835e5f83830152505050565b5f601f19601f8301169050919050565b5f6156a982615667565b6156b38185615671565b93506156c3818560208601615681565b6156cc8161568f565b840191505092915050565b5f6020820190508181035f8301526156ef818461569f565b905092915050565b5f6020828403121561570c5761570b6152d2565b5b5f61571984828501615353565b91505092915050565b7f62616420666c617368206c656e646572000000000000000000000000000000005f82015250565b5f615756601083615671565b915061576182615722565b602082019050919050565b5f6020820190508181035f8301526157838161574a565b9050919050565b7f62616420666c61736820696e69746961746f72000000000000000000000000005f82015250565b5f6157be601383615671565b91506157c98261578a565b602082019050919050565b5f6020820190508181035f8301526157eb816157b2565b9050919050565b7f62616420666c61736820746f6b656e00000000000000000000000000000000005f82015250565b5f615826600f83615671565b9150615831826157f2565b602082019050919050565b5f6020820190508181035f8301526158538161581a565b9050919050565b5f615864826152da565b9050919050565b6158748161585a565b811461587e575f5ffd5b50565b5f8135905061588f8161586b565b92915050565b5f5f604083850312156158ab576158aa6152d2565b5b5f6158b885828601615881565b92505060206158c985828601615353565b9150509250929050565b5f815190506158e18161533d565b92915050565b5f602082840312156158fc576158fb6152d2565b5b5f615909848285016158d3565b91505092915050565b5f6060820190506159255f83018661544c565b6159326020830185615474565b61593f604083018461544c565b949350505050565b7f6c69717569646174696f6e206661696c656400000000000000000000000000005f82015250565b5f61597b601283615671565b915061598682615947565b602082019050919050565b5f6020820190508181035f8301526159a88161596f565b9050919050565b7f6e6f207365697a650000000000000000000000000000000000000000000000005f82015250565b5f6159e3600883615671565b91506159ee826159af565b602082019050919050565b5f6020820190508181035f830152615a10816159d7565b9050919050565b7f4e487b71000000000000000000000000000000000000000000000000000000005f52601160045260245ffd5b5f615a4e82615334565b9150615a5983615334565b9250828203905081811115615a7157615a70615a17565b5b92915050565b7f6e6f20756e636170706564206261636b66696c6c0000000000000000000000005f82015250565b5f615aab601483615671565b9150615ab682615a77565b602082019050919050565b5f6020820190508181035f830152615ad881615a9f565b9050919050565b7f72656465656d207365697a65642063414d50206661696c6564000000000000005f82015250565b5f615b13601983615671565b9150615b1e82615adf565b602082019050919050565b5f6020820190508181035f830152615b4081615b07565b9050919050565b5f615b5182615334565b9150615b5c83615334565b9250828201905080821115615b7457615b73615a17565b5b92915050565b5f81519050615b888161530a565b92915050565b5f60208284031215615ba357615ba26152d2565b5b5f615bb084828501615b7a565b91505092915050565b7f73656c66206f6e6c7900000000000000000000000000000000000000000000005f82015250565b5f615bed600983615671565b9150615bf882615bb9565b602082019050919050565b5f6020820190508181035f830152615c1a81615be1565b9050919050565b5f60a082019050615c345f83018861544c565b615c41602083018761544c565b615c4e604083018661544c565b615c5b6060830185615474565b615c686080830184615474565b9695505050505050565b5f81519050919050565b5f82825260208201905092915050565b5f615c9682615c72565b615ca08185615c7c565b9350615cb0818560208601615681565b615cb98161568f565b840191505092915050565b5f608082019050615cd75f830187615474565b615ce46020830186615474565b615cf1604083018561544c565b8181036060830152615d038184615c8c565b905095945050505050565b7f726f757465206e6f742070726f66697461626c6520656e6f75676800000000005f82015250565b5f615d42601b83615671565b9150615d4d82615d0e565b602082019050919050565b5f6020820190508181035f830152615d6f81615d36565b9050919050565b7f70617468206f7574206f6620626f756e647300000000000000000000000000005f82015250565b5f615daa601283615671565b9150615db582615d76565b602082019050919050565b5f6020820190508181035f830152615dd781615d9e565b9050919050565b5f5f5f5f5f60a08688031215615df757615df66152d2565b5b5f615e0488828901615881565b9550506020615e1588828901615881565b9450506040615e2688828901615881565b9350506060615e3788828901615353565b9250506080615e4888828901615353565b9150509295509295909350565b7f6261642063616c6c6261636b2073656e646572000000000000000000000000005f82015250565b5f615e89601383615671565b9150615e9482615e55565b602082019050919050565b5f6020820190508181035f830152615eb681615e7d565b9050919050565b5f604082019050615ed05f83018561544c565b615edd6020830184615474565b9392505050565b5f81905092915050565b5f615ef882615c72565b615f028185615ee4565b9350615f12818560208601615681565b80840191505092915050565b5f615f298284615eee565b915081905092915050565b615f3d81615597565b8114615f47575f5ffd5b50565b5f81519050615f5881615f34565b92915050565b5f60208284031215615f7357615f726152d2565b5b5f615f8084828501615f4a565b91505092915050565b5f819050919050565b5f819050919050565b5f615fb5615fb0615fab84615f89565b615f92565b61549c565b9050919050565b615fc581615f9b565b82525050565b5f604082019050615fde5f83018561544c565b615feb6020830184615fbc565b9392505050565b7f617070726f7665207265736574206661696c65640000000000000000000000005f82015250565b5f616026601483615671565b915061603182615ff2565b602082019050919050565b5f6020820190508181035f8301526160538161601a565b9050919050565b7f617070726f7665206661696c65640000000000000000000000000000000000005f82015250565b5f61608e600e83615671565b91506160998261605a565b602082019050919050565b5f6020820190508181035f8301526160bb81616082565b9050919050565b5f6160dc6160d76160d284615f89565b615f92565b615334565b9050919050565b6160ec816160c2565b82525050565b5f6020820190506161055f8301846160e3565b92915050565b7f64697265637420746f756368206661696c6564000000000000000000000000005f82015250565b5f61613f601383615671565b915061614a8261610b565b602082019050919050565b5f6020820190508181035f83015261616c81616133565b9050919050565b7f64697265637420626f72726f77206661696c65640000000000000000000000005f82015250565b5f6161a7601483615671565b91506161b282616173565b602082019050919050565b5f6020820190508181035f8301526161d48161619b565b9050919050565b7f646972656374207061746820756e70726f66697461626c6500000000000000005f82015250565b5f61620f601883615671565b915061621a826161db565b602082019050919050565b5f6020820190508181035f83015261623c81616203565b9050919050565b61624c8161549c565b8114616256575f5ffd5b50565b5f8151905061626781616243565b92915050565b5f5f5f5f60808587031215616285576162846152d2565b5b5f61629287828801615f4a565b94505060206162a3878288016158d3565b93505060406162b487828801615f4a565b92505060606162c587828801616259565b91505092959194509250565b7f4e487b71000000000000000000000000000000000000000000000000000000005f52604160045260245ffd5b7f4e487b71000000000000000000000000000000000000000000000000000000005f52603260045260245ffd5b5f81519050919050565b5f82825260208201905092915050565b5f819050602082019050919050565b61635d816152f9565b82525050565b5f61636e8383616354565b60208301905092915050565b5f602082019050919050565b5f6163908261632b565b61639a8185616335565b93506163a583616345565b805f5b838110156163d55781516163bc8882616363565b97506163c78361637a565b9250506001810190506163a8565b5085935050505092915050565b5f6020820190508181035f8301526163fa8184616386565b905092915050565b61640b8261568f565b810181811067ffffffffffffffff8211171561642a576164296162d1565b5b80604052505050565b5f61643c6152c9565b90506164488282616402565b919050565b5f67ffffffffffffffff821115616467576164666162d1565b5b602082029050602081019050919050565b5f61648a6164858461644d565b616433565b905080838252602082019050602084028301858111156164ad576164ac61536f565b5b835b818110156164d657806164c288826158d3565b8452602084019350506020810190506164af565b5050509392505050565b5f82601f8301126164f4576164f3615367565b5b8151616504848260208601616478565b91505092915050565b5f60208284031215616522576165216152d2565b5b5f82015167ffffffffffffffff81111561653f5761653e6152d6565b5b61654b848285016164e0565b91505092915050565b7f656e746572206d61726b6574206661696c6564000000000000000000000000005f82015250565b5f616588601383615671565b915061659382616554565b602082019050919050565b5f6020820190508181035f8301526165b58161657c565b9050919050565b7f6e6f206261636b66696c6c0000000000000000000000000000000000000000005f82015250565b5f6165f0600b83615671565b91506165fb826165bc565b602082019050919050565b5f6020820190508181035f83015261661d816165e4565b9050919050565b5f5f5f6060848603121561663b5761663a6152d2565b5b5f616648868287016158d3565b9350506020616659868287016158d3565b925050604061666a868287016158d3565b9150509250925092565b7f6e6f206c697175696469747900000000000000000000000000000000000000005f82015250565b5f6166a8600c83615671565b91506166b382616674565b602082019050919050565b5f6020820190508181035f8301526166d58161669c565b9050919050565b7f626164207072696365206f7220636173680000000000000000000000000000005f82015250565b5f616710601183615671565b915061671b826166dc565b602082019050919050565b5f6020820190508181035f83015261673d81616704565b9050919050565b5f61674e82615334565b915061675983615334565b925082820261676781615334565b9150828204841483151761677e5761677d615a17565b5b5092915050565b7f4e487b71000000000000000000000000000000000000000000000000000000005f52601260045260245ffd5b5f6167bc82615334565b91506167c783615334565b9250826167d7576167d6616785565b5b828204905092915050565b7f626f72726f77207a65726f0000000000000000000000000000000000000000005f82015250565b5f616816600b83615671565b9150616821826167e2565b602082019050919050565b5f6020820190508181035f8301526168438161680a565b9050919050565b7f626f72726f77206661696c6564000000000000000000000000000000000000005f82015250565b5f61687e600d83615671565b91506168898261684a565b602082019050919050565b5f6020820190508181035f8301526168ab81616872565b9050919050565b7f696e73756666696369656e7420646972656374207265706179000000000000005f82015250565b5f6168e6601983615671565b91506168f1826168b2565b602082019050919050565b5f6020820190508181035f830152616913816168da565b9050919050565b7f6e6f2072657061792070617468000000000000000000000000000000000000005f82015250565b5f61694e600d83615671565b91506169598261691a565b602082019050919050565b5f6020820190508181035f83015261697b81616942565b9050919050565b7f71756f74652073686f727466616c6c00000000000000000000000000000000005f82015250565b5f6169b6600f83615671565b91506169c182616982565b602082019050919050565b5f6020820190508181035f8301526169e3816169aa565b9050919050565b5f6040820190506169fd5f83018561544c565b616a0a602083018461544c565b9392505050565b5f606082019050616a245f83018661544c565b616a31602083018561544c565b616a3e6040830184615474565b949350505050565b5f5f60408385031215616a5c57616a5b6152d2565b5b5f616a69858286016158d3565b9250506020616a7a858286016158d3565b9150509250929050565b7f7472616e73666572206661696c656400000000000000000000000000000000005f82015250565b5f616ab8600f83615671565b9150616ac382616a84565b602082019050919050565b5f6020820190508181035f830152616ae581616aac565b9050919050565b5f6dffffffffffffffffffffffffffff82169050919050565b616b0e81616aec565b8114616b18575f5ffd5b50565b5f81519050616b2981616b05565b92915050565b5f63ffffffff82169050919050565b616b4781616b2f565b8114616b51575f5ffd5b50565b5f81519050616b6281616b3e565b92915050565b5f5f5f60608486031215616b7f57616b7e6152d2565b5b5f616b8c86828701616b1b565b9350506020616b9d86828701616b1b565b9250506040616bae86828701616b54565b9150509250925092565b7f70616972206d69736d61746368000000000000000000000000000000000000005f82015250565b5f616bec600d83615671565b9150616bf782616bb8565b602082019050919050565b5f6020820190508181035f830152616c1981616be0565b9050919050565b5f60e082019050616c335f83018a61544c565b616c40602083018961544c565b616c4d604083018861544c565b616c5a6060830187615474565b616c676080830186615474565b616c7460a0830185615474565b616c8160c0830184615474565b98975050505050505050565b5f616ca7616ca2616c9d846152da565b615f92565b6152da565b9050919050565b5f616cb882616c8d565b9050919050565b5f616cc982616cae565b9050919050565b616cd981616cbf565b82525050565b5f608082019050616cf25f830187616cd0565b616cff602083018661544c565b616d0c6040830185615474565b8181036060830152616d1e8184615c8c565b90509594505050505056fe42656361757365205f6265636f6d65496d706c656d656e746174696f6e20646f6573206e6f74206d69677261746520636f6c6c61746572616c206163636f756e74696e672c20746f74616c436f6c6c61746572616c546f6b656e73207374617274732062656c6f772061637475616c20636f6c6c61746572616c207573616765207768696c65206c65676163792062616c616e636573207374696c6c20636f756e7420696e206163636f756e7420736e617073686f74732e546861742066756e6374696f6e206372656469747320746865206163636f756e7427732066756c6c206c65676163792062616c616e636520617320636f6c6c61746572616c20616e6420696e6372656d656e747320746f74616c436f6c6c61746572616c546f6b656e7320776974686f7574206170706c79696e672074686520636f6e6669677572656420636f6c6c61746572616c4361702e41207072652d7570677261646520737570706c696572206c61746572206d696e74732c2072656465656d732c207472616e73666572732c206f7220697320696e766f6c76656420696e2061207365697a7572652c2074726967676572696e6720696e697469616c697a654163636f756e74436f6c6c61746572616c546f6b656e732e686973746f726963616c2043457263323044656c656761746f722075706772616465202d3e206d697373696e6720636f6c6c61746572616c206d6967726174696f6e202d3e206c656761637920737570706c69657220746f75636820766961207075626c6963205632207472616e73666572207768656e20617661696c61626c652c206f7468657277697365207075626c696320696e2d6d61726b6574207365697a75726520746f756368202d3e20756e63617070656420636f6c6c61746572616c206261636b66696c6c202d3e207265616c697a6520414d502070726f6669745570677261646520616e206578697374696e67206c6976652043457263323044656c656761746f72206d61726b657420746f2074686520636f6c6c61746572616c2d63617020696d706c656d656e746174696f6e2ea26469706673582212208c3d259fd265b5d5370154eb585294feca990b3505e73571db8334810577cfbc64736f6c634300081e0033","linkReferences":{}},"methodIdentifiers":{"REASON_BORROW_FAILED()":"d963d53f","REASON_ENTER_MARKET_FAILED()":"c3f5d6bc","REASON_FLASHLOAN_FAILED()":"84428635","REASON_INVALID_TARGET()":"8a5985a8","REASON_LIQUIDATION_FAILED()":"5f9289bf","REASON_NONE()":"bcdac010","REASON_NO_BACKFILL()":"e8deff23","REASON_NO_LIQUIDATION_ROUTE()":"fde8ae28","REASON_NO_LIQUIDITY()":"7635b424","REASON_NO_ROUTE()":"c9d9935f","REASON_REPAY_SWAP_FAILED()":"820e48e6","TARGET()":"cc1f2afa","VULNERABLE_IMPLEMENTATION()":"95d23e88","accountLiquidityAfter()":"74b4b955","accountShortfallAfter()":"ee7d9564","borrowAttemptAmount()":"1e06f12b","borrowResultCode()":"4b054bea","chosenAmpRepay()":"66c9120c","chosenBuyPair()":"03ecf3d5","chosenCAmpOut()":"e3a25232","chosenExitPair()":"938252fe","chosenProjectedProfit()":"be162910","chosenQuoteRepay()":"38bac30f","chosenQuoteToken()":"fa1cb2ca","collateralCapObserved()":"a935b118","executeOnOpportunity()":"3c2448ed","exploitPath()":"cb707c62","exploitPathAt(uint256)":"cce87ae2","hypothesisValidated()":"463defd1","lastFailureReason()":"09584243","liquidationBorrower()":"2cbd91f0","liquidationFlashFee()":"45b66629","liquidationRepayAmount()":"cfd9ed44","liquidationSeizeTokens()":"04a99dbb","onFlashLoan(address,address,uint256,uint256,bytes)":"23e30c8b","profitAmount()":"5ff972cc","profitToken()":"49343624","startRoute(address,address,address,uint256,uint256,uint256,uint256)":"ac855c99","sushiCall(address,uint256,uint256,bytes)":"00991403","totalCollateralTokensAfter()":"f9ae3338","totalCollateralTokensBefore()":"0eb0061b","uniswapV2Call(address,uint256,uint256,bytes)":"10d1e85c","verifierCTokenBalanceBefore()":"65932115","verifierCollateralAfter()":"901370c2","verifierCollateralBefore()":"7c2774df"},"id":0}