{"abi":[{"type":"constructor","inputs":[],"stateMutability":"nonpayable"},{"type":"receive","stateMutability":"payable"},{"type":"function","name":"DAI","inputs":[],"outputs":[{"name":"","type":"address","internalType":"address"}],"stateMutability":"view"},{"type":"function","name":"MIM","inputs":[],"outputs":[{"name":"","type":"address","internalType":"address"}],"stateMutability":"view"},{"type":"function","name":"PROVIDED_TARGET","inputs":[],"outputs":[{"name":"","type":"address","internalType":"address"}],"stateMutability":"view"},{"type":"function","name":"SUSHI_ROUTER","inputs":[],"outputs":[{"name":"","type":"address","internalType":"address"}],"stateMutability":"view"},{"type":"function","name":"TARGET_CAULDRON","inputs":[],"outputs":[{"name":"","type":"address","internalType":"address"}],"stateMutability":"view"},{"type":"function","name":"UNISWAP_V2_ROUTER","inputs":[],"outputs":[{"name":"","type":"address","internalType":"address"}],"stateMutability":"view"},{"type":"function","name":"USDC","inputs":[],"outputs":[{"name":"","type":"address","internalType":"address"}],"stateMutability":"view"},{"type":"function","name":"USDT","inputs":[],"outputs":[{"name":"","type":"address","internalType":"address"}],"stateMutability":"view"},{"type":"function","name":"WETH","inputs":[],"outputs":[{"name":"","type":"address","internalType":"address"}],"stateMutability":"view"},{"type":"function","name":"activeCauldron","inputs":[],"outputs":[{"name":"","type":"address","internalType":"address"}],"stateMutability":"view"},{"type":"function","name":"addCollateralStageReached","inputs":[],"outputs":[{"name":"","type":"bool","internalType":"bool"}],"stateMutability":"view"},{"type":"function","name":"bentoBoxAddress","inputs":[],"outputs":[{"name":"","type":"address","internalType":"address"}],"stateMutability":"view"},{"type":"function","name":"borrowStageReached","inputs":[],"outputs":[{"name":"","type":"bool","internalType":"bool"}],"stateMutability":"view"},{"type":"function","name":"borrowedMimAmount","inputs":[],"outputs":[{"name":"","type":"uint256","internalType":"uint256"}],"stateMutability":"view"},{"type":"function","name":"borrowedMimShare","inputs":[],"outputs":[{"name":"","type":"uint256","internalType":"uint256"}],"stateMutability":"view"},{"type":"function","name":"collateralDepositAmount","inputs":[],"outputs":[{"name":"","type":"uint256","internalType":"uint256"}],"stateMutability":"view"},{"type":"function","name":"collateralLeaveShare","inputs":[],"outputs":[{"name":"","type":"uint256","internalType":"uint256"}],"stateMutability":"view"},{"type":"function","name":"collateralLpDetected","inputs":[],"outputs":[{"name":"","type":"bool","internalType":"bool"}],"stateMutability":"view"},{"type":"function","name":"collateralLpToken0","inputs":[],"outputs":[{"name":"","type":"address","internalType":"address"}],"stateMutability":"view"},{"type":"function","name":"collateralLpToken1","inputs":[],"outputs":[{"name":"","type":"address","internalType":"address"}],"stateMutability":"view"},{"type":"function","name":"collateralShareAdded","inputs":[],"outputs":[{"name":"","type":"uint256","internalType":"uint256"}],"stateMutability":"view"},{"type":"function","name":"collateralToken","inputs":[],"outputs":[{"name":"","type":"address","internalType":"address"}],"stateMutability":"view"},{"type":"function","name":"collateralTopUpAmount","inputs":[],"outputs":[{"name":"","type":"uint256","internalType":"uint256"}],"stateMutability":"view"},{"type":"function","name":"collateralTopUpSpentMim","inputs":[],"outputs":[{"name":"","type":"uint256","internalType":"uint256"}],"stateMutability":"view"},{"type":"function","name":"directOracleRate","inputs":[],"outputs":[{"name":"","type":"uint256","internalType":"uint256"}],"stateMutability":"view"},{"type":"function","name":"directOracleSuccess","inputs":[],"outputs":[{"name":"","type":"bool","internalType":"bool"}],"stateMutability":"view"},{"type":"function","name":"execute","inputs":[],"outputs":[{"name":"","type":"uint256","internalType":"uint256"}],"stateMutability":"nonpayable"},{"type":"function","name":"executeOnOpportunity","inputs":[],"outputs":[{"name":"","type":"uint256","internalType":"uint256"}],"stateMutability":"nonpayable"},{"type":"function","name":"exploit","inputs":[],"outputs":[{"name":"","type":"uint256","internalType":"uint256"}],"stateMutability":"nonpayable"},{"type":"function","name":"feeBufferBought","inputs":[],"outputs":[{"name":"","type":"uint256","internalType":"uint256"}],"stateMutability":"view"},{"type":"function","name":"flashCollateralAmount","inputs":[],"outputs":[{"name":"","type":"uint256","internalType":"uint256"}],"stateMutability":"view"},{"type":"function","name":"flashCollateralFee","inputs":[],"outputs":[{"name":"","type":"uint256","internalType":"uint256"}],"stateMutability":"view"},{"type":"function","name":"flashMimAmount","inputs":[],"outputs":[{"name":"","type":"uint256","internalType":"uint256"}],"stateMutability":"view"},{"type":"function","name":"flashMimFee","inputs":[],"outputs":[{"name":"","type":"uint256","internalType":"uint256"}],"stateMutability":"view"},{"type":"function","name":"grossMimBalance","inputs":[],"outputs":[{"name":"","type":"uint256","internalType":"uint256"}],"stateMutability":"view"},{"type":"function","name":"hypothesisRefuted","inputs":[],"outputs":[{"name":"","type":"bool","internalType":"bool"}],"stateMutability":"view"},{"type":"function","name":"hypothesisValidated","inputs":[],"outputs":[{"name":"","type":"bool","internalType":"bool"}],"stateMutability":"view"},{"type":"function","name":"infeasibleReason","inputs":[],"outputs":[{"name":"","type":"bytes32","internalType":"bytes32"}],"stateMutability":"view"},{"type":"function","name":"liquidateStageReached","inputs":[],"outputs":[{"name":"","type":"bool","internalType":"bool"}],"stateMutability":"view"},{"type":"function","name":"liquidationBlocked","inputs":[],"outputs":[{"name":"","type":"bool","internalType":"bool"}],"stateMutability":"view"},{"type":"function","name":"liveTargetCachedZero","inputs":[],"outputs":[{"name":"","type":"bool","internalType":"bool"}],"stateMutability":"view"},{"type":"function","name":"liveTargetInitPathOnly","inputs":[],"outputs":[{"name":"","type":"bool","internalType":"bool"}],"stateMutability":"view"},{"type":"function","name":"liveTargetUpdateZeroWorked","inputs":[],"outputs":[{"name":"","type":"bool","internalType":"bool"}],"stateMutability":"view"},{"type":"function","name":"liveTargetZeroRateMissing","inputs":[],"outputs":[{"name":"","type":"bool","internalType":"bool"}],"stateMutability":"view"},{"type":"function","name":"liveUpdateRate","inputs":[],"outputs":[{"name":"","type":"uint256","internalType":"uint256"}],"stateMutability":"view"},{"type":"function","name":"liveUpdateReturnedUpdated","inputs":[],"outputs":[{"name":"","type":"bool","internalType":"bool"}],"stateMutability":"view"},{"type":"function","name":"liveUpdateWorked","inputs":[],"outputs":[{"name":"","type":"bool","internalType":"bool"}],"stateMutability":"view"},{"type":"function","name":"mimLiquiditySeededShare","inputs":[],"outputs":[{"name":"","type":"uint256","internalType":"uint256"}],"stateMutability":"view"},{"type":"function","name":"onFlashLoan","inputs":[{"name":"sender","type":"address","internalType":"address"},{"name":"token","type":"address","internalType":"address"},{"name":"amount","type":"uint256","internalType":"uint256"},{"name":"fee","type":"uint256","internalType":"uint256"},{"name":"","type":"bytes","internalType":"bytes"}],"outputs":[],"stateMutability":"nonpayable"},{"type":"function","name":"oracleAddress","inputs":[],"outputs":[{"name":"","type":"address","internalType":"address"}],"stateMutability":"view"},{"type":"function","name":"oracleDataBlob","inputs":[],"outputs":[{"name":"","type":"bytes","internalType":"bytes"}],"stateMutability":"view"},{"type":"function","name":"oracleStageReached","inputs":[],"outputs":[{"name":"","type":"bool","internalType":"bool"}],"stateMutability":"view"},{"type":"function","name":"path0LiveOracleZeroObserved","inputs":[],"outputs":[{"name":"","type":"bool","internalType":"bool"}],"stateMutability":"view"},{"type":"function","name":"path1ZeroExchangeRateCached","inputs":[],"outputs":[{"name":"","type":"bool","internalType":"bool"}],"stateMutability":"view"},{"type":"function","name":"path2DustCollateralAddedAndBorrowed","inputs":[],"outputs":[{"name":"","type":"bool","internalType":"bool"}],"stateMutability":"view"},{"type":"function","name":"path3ResidualCollateralBlocksLiquidation","inputs":[],"outputs":[{"name":"","type":"bool","internalType":"bool"}],"stateMutability":"view"},{"type":"function","name":"postBorrowSolvent","inputs":[],"outputs":[{"name":"","type":"bool","internalType":"bool"}],"stateMutability":"view"},{"type":"function","name":"profitAmount","inputs":[],"outputs":[{"name":"","type":"uint256","internalType":"uint256"}],"stateMutability":"view"},{"type":"function","name":"profitToken","inputs":[],"outputs":[{"name":"","type":"address","internalType":"address"}],"stateMutability":"pure"},{"type":"function","name":"run","inputs":[],"outputs":[{"name":"","type":"uint256","internalType":"uint256"}],"stateMutability":"nonpayable"},{"type":"function","name":"selectedTarget","inputs":[],"outputs":[{"name":"","type":"address","internalType":"address"}],"stateMutability":"view"},{"type":"function","name":"updateRateStageReached","inputs":[],"outputs":[{"name":"","type":"bool","internalType":"bool"}],"stateMutability":"view"},{"type":"function","name":"usedLiveTarget","inputs":[],"outputs":[{"name":"","type":"bool","internalType":"bool"}],"stateMutability":"view"},{"type":"function","name":"usedValidationClone","inputs":[],"outputs":[{"name":"","type":"bool","internalType":"bool"}],"stateMutability":"view"},{"type":"function","name":"validationClone","inputs":[],"outputs":[{"name":"","type":"address","internalType":"address"}],"stateMutability":"view"},{"type":"function","name":"zeroOracle","inputs":[],"outputs":[{"name":"","type":"address","internalType":"address"}],"stateMutability":"view"}],"bytecode":{"object":"0x6080604052348015600e575f5ffd5b50618fab8061001c5f395ff3fe6080604052600436106103dc575f3560e01c806395458914116101fc578063cf30cf7b11610117578063e3fc037b116100aa578063ea54459311610079578063ea54459314610de7578063eb77ff0f14610e11578063f1f361a414610e3b578063f9d3cc0514610e65578063fcafc31914610e8f576103e3565b8063e3fc037b14610d3f578063e6687f0514610d69578063e7cda06d14610d93578063e8c28fee14610dbd576103e3565b8063dbe7b09f116100e6578063dbe7b09f14610c97578063de02cfdf14610cc1578063e0bab4c414610ceb578063e2708ebb14610d15576103e3565b8063cf30cf7b14610bef578063d5b5a55714610c19578063d87bf97f14610c43578063daec383d14610c6d576103e3565b8063ace5cb581161018f578063b7021f771161015e578063b7021f7714610b47578063bd7a598c14610b71578063c040622614610b9b578063c54e44eb14610bc5576103e3565b8063ace5cb5814610a9f578063ad5c464814610ac9578063b2016bd414610af3578063b40d2e9814610b1d576103e3565b8063a6652157116101cb578063a6652157146109f7578063a82ed9ec14610a21578063a89ae4ba14610a4b578063a8b81f5514610a75576103e3565b8063954589141461094f578063981c88f714610979578063a3bb46dd146109a3578063a539b246146109cd576103e3565b80635a6e402b116102f75780636d02b5ca1161028a5780638469ff16116102595780638469ff161461087d578063892d0bd2146108a757806389a30271146108d15780638f310cf0146108fb5780639348a23814610925576103e3565b80636d02b5ca146107d557806372ea4809146107ff5780637c27e19f14610829578063810c7a4014610853576103e3565b80636208fdd8116102c65780636208fdd81461072d57806362d2c2661461075757806363d9b7701461078157806369ffcac6146107ab576103e3565b80635a6e402b146106855780635bf39ab9146106af5780635ff972cc146106d95780636146195414610703576103e3565b80633c2448ed1161036f578063495f92f11161033e578063495f92f1146105dd5780634af5e4e614610607578063552fd94a146106315780635a41b82a1461065b576103e3565b80633c2448ed146105355780634071084d1461055f578063463defd11461058957806349343624146105b3576103e3565b80632759f2f1116103ab5780632759f2f11461048d5780632edf00fb146104b7578063370be116146104e157806337fc93991461050b576103e3565b80630c24f4fa146103e75780631018911e1461041157806322cb9ca31461043b57806323e30c8b14610465576103e3565b366103e357005b5f5ffd5b3480156103f2575f5ffd5b506103fb610eb9565b60405161040891906172f9565b60405180910390f35b34801561041c575f5ffd5b50610425610ed1565b60405161043291906172f9565b60405180910390f35b348015610446575f5ffd5b5061044f610ee9565b60405161045c91906172f9565b60405180910390f35b348015610470575f5ffd5b5061048b600480360381019061048691906173e1565b610f0e565b005b348015610498575f5ffd5b506104a1611103565b6040516104ae9190617491565b60405180910390f35b3480156104c2575f5ffd5b506104cb611116565b6040516104d891906172f9565b60405180910390f35b3480156104ec575f5ffd5b506104f561113a565b60405161050291906172f9565b60405180910390f35b348015610516575f5ffd5b5061051f61115f565b60405161052c9190617491565b60405180910390f35b348015610540575f5ffd5b50610549611172565b60405161055691906174b9565b60405180910390f35b34801561056a575f5ffd5b50610573611180565b60405161058091906174b9565b60405180910390f35b348015610594575f5ffd5b5061059d611186565b6040516105aa9190617491565b60405180910390f35b3480156105be575f5ffd5b506105c7611199565b6040516105d491906172f9565b60405180910390f35b3480156105e8575f5ffd5b506105f16111b4565b6040516105fe9190617491565b60405180910390f35b348015610612575f5ffd5b5061061b6111c7565b60405161062891906174b9565b60405180910390f35b34801561063c575f5ffd5b506106456111cd565b6040516106529190617491565b60405180910390f35b348015610666575f5ffd5b5061066f6111e0565b60405161067c9190617491565b60405180910390f35b348015610690575f5ffd5b506106996111f3565b6040516106a691906174b9565b60405180910390f35b3480156106ba575f5ffd5b506106c36111f9565b6040516106d091906174b9565b60405180910390f35b3480156106e4575f5ffd5b506106ed6111ff565b6040516106fa91906174b9565b60405180910390f35b34801561070e575f5ffd5b50610717611208565b60405161072491906174b9565b60405180910390f35b348015610738575f5ffd5b50610741611216565b60405161074e91906174b9565b60405180910390f35b348015610762575f5ffd5b5061076b61121c565b6040516107789190617491565b60405180910390f35b34801561078c575f5ffd5b5061079561122f565b6040516107a291906174b9565b60405180910390f35b3480156107b6575f5ffd5b506107bf61123d565b6040516107cc9190617491565b60405180910390f35b3480156107e0575f5ffd5b506107e9611250565b6040516107f691906174b9565b60405180910390f35b34801561080a575f5ffd5b50610813611256565b60405161082091906174b9565b60405180910390f35b348015610834575f5ffd5b5061083d61125c565b60405161084a9190617491565b60405180910390f35b34801561085e575f5ffd5b5061086761126f565b60405161087491906174b9565b60405180910390f35b348015610888575f5ffd5b50610891611275565b60405161089e9190617491565b60405180910390f35b3480156108b2575f5ffd5b506108bb611288565b6040516108c891906174b9565b60405180910390f35b3480156108dc575f5ffd5b506108e561128e565b6040516108f291906172f9565b60405180910390f35b348015610906575f5ffd5b5061090f6112a6565b60405161091c9190617491565b60405180910390f35b348015610930575f5ffd5b506109396112b8565b6040516109469190617491565b60405180910390f35b34801561095a575f5ffd5b506109636112cb565b60405161097091906174b9565b60405180910390f35b348015610984575f5ffd5b5061098d6112d1565b60405161099a91906172f9565b60405180910390f35b3480156109ae575f5ffd5b506109b76112f6565b6040516109c491906174b9565b60405180910390f35b3480156109d8575f5ffd5b506109e16112fc565b6040516109ee9190617491565b60405180910390f35b348015610a02575f5ffd5b50610a0b61130e565b604051610a1891906174ea565b60405180910390f35b348015610a2c575f5ffd5b50610a35611314565b604051610a4291906172f9565b60405180910390f35b348015610a56575f5ffd5b50610a5f61132c565b604051610a6c91906172f9565b60405180910390f35b348015610a80575f5ffd5b50610a89611351565b604051610a969190617491565b60405180910390f35b348015610aaa575f5ffd5b50610ab3611364565b604051610ac09190617491565b60405180910390f35b348015610ad4575f5ffd5b50610add611377565b604051610aea91906172f9565b60405180910390f35b348015610afe575f5ffd5b50610b0761138f565b604051610b1491906172f9565b60405180910390f35b348015610b28575f5ffd5b50610b316113b4565b604051610b3e9190617491565b60405180910390f35b348015610b52575f5ffd5b50610b5b6113c6565b604051610b689190617491565b60405180910390f35b348015610b7c575f5ffd5b50610b856113d9565b604051610b9291906172f9565b60405180910390f35b348015610ba6575f5ffd5b50610baf6113f1565b604051610bbc91906174b9565b60405180910390f35b348015610bd0575f5ffd5b50610bd96113ff565b604051610be691906172f9565b60405180910390f35b348015610bfa575f5ffd5b50610c03611417565b604051610c109190617491565b60405180910390f35b348015610c24575f5ffd5b50610c2d61142a565b604051610c3a9190617491565b60405180910390f35b348015610c4e575f5ffd5b50610c5761143c565b604051610c6491906174b9565b60405180910390f35b348015610c78575f5ffd5b50610c81611442565b604051610c8e91906172f9565b60405180910390f35b348015610ca2575f5ffd5b50610cab61145a565b604051610cb891906172f9565b60405180910390f35b348015610ccc575f5ffd5b50610cd5611480565b604051610ce291906174b9565b60405180910390f35b348015610cf6575f5ffd5b50610cff611486565b604051610d0c91906172f9565b60405180910390f35b348015610d20575f5ffd5b50610d2961149e565b604051610d3691906174b9565b60405180910390f35b348015610d4a575f5ffd5b50610d536114a4565b604051610d609190617573565b60405180910390f35b348015610d74575f5ffd5b50610d7d611530565b604051610d8a91906174b9565b60405180910390f35b348015610d9e575f5ffd5b50610da7611536565b604051610db491906174b9565b60405180910390f35b348015610dc8575f5ffd5b50610dd161153c565b604051610dde9190617491565b60405180910390f35b348015610df2575f5ffd5b50610dfb61154d565b604051610e089190617491565b60405180910390f35b348015610e1c575f5ffd5b50610e25611560565b604051610e3291906172f9565b60405180910390f35b348015610e46575f5ffd5b50610e4f611585565b604051610e5c91906172f9565b60405180910390f35b348015610e70575f5ffd5b50610e796115aa565b604051610e869190617491565b60405180910390f35b348015610e9a575f5ffd5b50610ea36115bc565b604051610eb09190617491565b60405180910390f35b73d9e1ce17f2641f24ae83637ab66a2cca9c378b9f81565b73289424add4a1a503870eb475fd8bf1d586b134ed81565b601e5f9054906101000a900473ffffffffffffffffffffffffffffffffffffffff1681565b601b5f9054906101000a900473ffffffffffffffffffffffffffffffffffffffff1673ffffffffffffffffffffffffffffffffffffffff163373ffffffffffffffffffffffffffffffffffffffff1614610f9d576040517f08c379a0000000000000000000000000000000000000000000000000000000008152600401610f94906175ed565b60405180910390fd5b3073ffffffffffffffffffffffffffffffffffffffff168673ffffffffffffffffffffffffffffffffffffffff161461100b576040517f08c379a000000000000000000000000000000000000000000000000000000000815260040161100290617655565b60405180910390fd5b60195f9054906101000a900473ffffffffffffffffffffffffffffffffffffffff1673ffffffffffffffffffffffffffffffffffffffff168573ffffffffffffffffffffffffffffffffffffffff160361106e5761106984846115cf565b6110fb565b7399d8a9c45b2eca8864373a26d1459e3dff1e17f373ffffffffffffffffffffffffffffffffffffffff168573ffffffffffffffffffffffffffffffffffffffff16146110f0576040517f08c379a00000000000000000000000000000000000000000000000000000000081526004016110e7906176bd565b60405180910390fd5b6110fa848461181a565b5b505050505050565b6002600f9054906101000a900460ff1681565b5f5f9054906101000a900473ffffffffffffffffffffffffffffffffffffffff1681565b601d5f9054906101000a900473ffffffffffffffffffffffffffffffffffffffff1681565b600260089054906101000a900460ff1681565b5f61117b611ade565b905090565b600d5481565b6002600a9054906101000a900460ff1681565b5f7399d8a9c45b2eca8864373a26d1459e3dff1e17f3905090565b6002600b9054906101000a900460ff1681565b600c5481565b600260069054906101000a900460ff1681565b6002600e9054906101000a900460ff1681565b600a5481565b60115481565b5f600154905090565b5f611211611ade565b905090565b60085481565b600260079054906101000a900460ff1681565b5f611238611ade565b905090565b600260099054906101000a900460ff1681565b60035481565b600e5481565b600260039054906101000a900460ff1681565b60125481565b600260019054906101000a900460ff1681565b60095481565b73a0b86991c6218b36c1d19d4a2e9eb0ce3606eb4881565b60045f9054906101000a900460ff1681565b600260049054906101000a900460ff1681565b60145481565b601c5f9054906101000a900473ffffffffffffffffffffffffffffffffffffffff1681565b60105481565b60025f9054906101000a900460ff1681565b60165481565b737a250d5630b4cf539739df2c5dacb4c659f2488d81565b601a5f9054906101000a900473ffffffffffffffffffffffffffffffffffffffff1681565b600260109054906101000a900460ff1681565b600660019054906101000a900460ff1681565b73c02aaa39b223fe8d0a0e5c4f27ead9083c756cc281565b60195f9054906101000a900473ffffffffffffffffffffffffffffffffffffffff1681565b60065f9054906101000a900460ff1681565b600260059054906101000a900460ff1681565b7346f54d434063e5f1a2b2cc6d9aaa657b1b9ff82c81565b5f6113fa611ade565b905090565b73dac17f958d2ee523a2206206994597c13d831ec781565b6002600c9054906101000a900460ff1681565b60155f9054906101000a900460ff1681565b60135481565b7399d8a9c45b2eca8864373a26d1459e3dff1e17f381565b601760019054906101000a900473ffffffffffffffffffffffffffffffffffffffff1681565b60055481565b736b175474e89094c44da98b954eedeac495271d0f81565b600f5481565b601f80546114b190617708565b80601f01602080910402602001604051908101604052809291908181526020018280546114dd90617708565b80156115285780601f106114ff57610100808354040283529160200191611528565b820191905f5260205f20905b81548152906001019060200180831161150b57829003601f168201915b505050505081565b600b5481565b60075481565b60028054906101000a900460ff1681565b6002600d9054906101000a900460ff1681565b601b5f9054906101000a900473ffffffffffffffffffffffffffffffffffffffff1681565b60185f9054906101000a900473ffffffffffffffffffffffffffffffffffffffff1681565b60175f9054906101000a900460ff1681565b600460019054906101000a900460ff1681565b80600a819055505f601b5f9054906101000a900473ffffffffffffffffffffffffffffffffffffffff1690506002600f9054906101000a900460ff16156116a7578073ffffffffffffffffffffffffffffffffffffffff1663f1676d3730307399d8a9c45b2eca8864373a26d1459e3dff1e17f3600b5460405180602001604052805f8152506040518663ffffffff1660e01b8152600401611675959493929190617793565b5f604051808303815f87803b15801561168c575f5ffd5b505af115801561169e573d5f5f3e3d5ffd5b505050506116d2565b6116d1601c5f9054906101000a900473ffffffffffffffffffffffffffffffffffffffff16612723565b5b5f60195f9054906101000a900473ffffffffffffffffffffffffffffffffffffffff1673ffffffffffffffffffffffffffffffffffffffff166370a08231306040518263ffffffff1660e01b815260040161172d91906172f9565b602060405180830381865afa158015611748573d5f5f3e3d5ffd5b505050506040513d601f19601f8201168201806040525081019061176c91906177ff565b9050828461177a9190617857565b8110156117bc576040517f08c379a00000000000000000000000000000000000000000000000000000000081526004016117b3906178d4565b60405180910390fd5b61181460195f9054906101000a900473ffffffffffffffffffffffffffffffffffffffff16601b5f9054906101000a900473ffffffffffffffffffffffffffffffffffffffff16858761180f9190617857565b613569565b50505050565b6002600f9054906101000a900460ff16611869576040517f08c379a00000000000000000000000000000000000000000000000000000000081526004016118609061793c565b60405180910390fd5b80600c819055505f601b5f9054906101000a900473ffffffffffffffffffffffffffffffffffffffff1690508073ffffffffffffffffffffffffffffffffffffffff166302b9446c7399d8a9c45b2eca8864373a26d1459e3dff1e17f330601c5f9054906101000a900473ffffffffffffffffffffffffffffffffffffffff16875f6040518663ffffffff1660e01b815260040161190b959493929190617993565b60408051808303815f875af1158015611926573d5f5f3e3d5ffd5b505050506040513d601f19601f8201168201806040525081019061194a91906179e4565b905060125f8291905055505f60125403611999576040517f08c379a000000000000000000000000000000000000000000000000000000000815260040161199090617a6c565b60405180910390fd5b5f8214611aaf57817399d8a9c45b2eca8864373a26d1459e3dff1e17f373ffffffffffffffffffffffffffffffffffffffff166370a08231306040518263ffffffff1660e01b81526004016119ee91906172f9565b602060405180830381865afa158015611a09573d5f5f3e3d5ffd5b505050506040513d601f19601f82011682018060405250810190611a2d91906177ff565b1015611a6e576040517f08c379a0000000000000000000000000000000000000000000000000000000008152600401611a6590617ad4565b60405180910390fd5b611aae7399d8a9c45b2eca8864373a26d1459e3dff1e17f3601b5f9054906101000a900473ffffffffffffffffffffffffffffffffffffffff1684613569565b5b611ad9601c5f9054906101000a900473ffffffffffffffffffffffffffffffffffffffff16612723565b505050565b5f5f60149054906101000a900460ff1615611afd576001549050612720565b60015f60146101000a81548160ff021916908315150217905550611b1f6136b8565b5f5f6101000a81548173ffffffffffffffffffffffffffffffffffffffff021916908373ffffffffffffffffffffffffffffffffffffffff1602179055505f73ffffffffffffffffffffffffffffffffffffffff165f5f9054906101000a900473ffffffffffffffffffffffffffffffffffffffff1673ffffffffffffffffffffffffffffffffffffffff1603611bfa5760016002600b6101000a81548160ff0219169083151502179055507f38ed9f55514e3edd71f8851d7534fe642e7b0c697d86250a1c6790ad7b43d7e06016819055505f9050612720565b5f5f5f9054906101000a900473ffffffffffffffffffffffffffffffffffffffff1690507399d8a9c45b2eca8864373a26d1459e3dff1e17f373ffffffffffffffffffffffffffffffffffffffff168173ffffffffffffffffffffffffffffffffffffffff16639b352ae16040518163ffffffff1660e01b8152600401602060405180830381865afa158015611c92573d5f5f3e3d5ffd5b505050506040513d601f19601f82011682018060405250810190611cb69190617b06565b73ffffffffffffffffffffffffffffffffffffffff1614611d1c5760016002600b6101000a81548160ff0219169083151502179055507f365a7ff08c8322c57603f9d881ad4ef803926f04a09ddcbc98d1ff67b1555cca6016819055505f915050612720565b8073ffffffffffffffffffffffffffffffffffffffff1663d8dfeb456040518163ffffffff1660e01b8152600401602060405180830381865afa158015611d65573d5f5f3e3d5ffd5b505050506040513d601f19601f82011682018060405250810190611d899190617b06565b60195f6101000a81548173ffffffffffffffffffffffffffffffffffffffff021916908373ffffffffffffffffffffffffffffffffffffffff1602179055508073ffffffffffffffffffffffffffffffffffffffff16637dc0d1d06040518163ffffffff1660e01b8152600401602060405180830381865afa158015611e11573d5f5f3e3d5ffd5b505050506040513d601f19601f82011682018060405250810190611e359190617b06565b601a5f6101000a81548173ffffffffffffffffffffffffffffffffffffffff021916908373ffffffffffffffffffffffffffffffffffffffff1602179055508073ffffffffffffffffffffffffffffffffffffffff166374645ff36040518163ffffffff1660e01b81526004015f60405180830381865afa158015611ebc573d5f5f3e3d5ffd5b505050506040513d5f823e3d601f19601f82011682018060405250810190611ee49190617c4b565b601f9081611ef29190617e29565b508073ffffffffffffffffffffffffffffffffffffffff16636b2ace876040518163ffffffff1660e01b8152600401602060405180830381865afa158015611f3c573d5f5f3e3d5ffd5b505050506040513d601f19601f82011682018060405250810190611f609190617b06565b601b5f6101000a81548173ffffffffffffffffffffffffffffffffffffffff021916908373ffffffffffffffffffffffffffffffffffffffff1602179055505f73ffffffffffffffffffffffffffffffffffffffff1660195f9054906101000a900473ffffffffffffffffffffffffffffffffffffffff1673ffffffffffffffffffffffffffffffffffffffff16148061204657505f73ffffffffffffffffffffffffffffffffffffffff16601a5f9054906101000a900473ffffffffffffffffffffffffffffffffffffffff1673ffffffffffffffffffffffffffffffffffffffff16145b8061209d57505f73ffffffffffffffffffffffffffffffffffffffff16601b5f9054906101000a900473ffffffffffffffffffffffffffffffffffffffff1673ffffffffffffffffffffffffffffffffffffffff16145b156120ed5760016002600b6101000a81548160ff0219169083151502179055507fc36d260585e1e637e41b8f34b284c3ac0a0dd7119e0b4574932855a97eb23f716016819055505f915050612720565b6120f56136fb565b6120fd613870565b600f819055505f600f54036121575760016002600b6101000a81548160ff0219169083151502179055507fcf609d0601476db69bfdfcca9001e93b9592563c93281a23ed5bedba069abebf6016819055505f915050612720565b61215f613878565b6009819055505f600954036121b95760016002600b6101000a81548160ff0219169083151502179055507fe62aa29de1d75a8317ada22b1ef4807f9478b75ee9f1c7431eca788282ba4a9b6016819055505f915050612720565b6121c1613a57565b60065f9054906101000a900460ff16806121e75750600660019054906101000a900460ff165b156122bb575f5f9054906101000a900473ffffffffffffffffffffffffffffffffffffffff16601c5f6101000a81548173ffffffffffffffffffffffffffffffffffffffff021916908373ffffffffffffffffffffffffffffffffffffffff16021790555060016002600e6101000a81548160ff02191690831515021790555060016002806101000a81548160ff021916908315150217905550600160025f6101000a81548160ff0219169083151502179055506001600260076101000a81548160ff0219169083151502179055506124d1565b60016002600c6101000a81548160ff02191690831515021790555060016002600d6101000a81548160ff0219169083151502179055506122f9613ddb565b601d5f9054906101000a900473ffffffffffffffffffffffffffffffffffffffff16601c5f6101000a81548173ffffffffffffffffffffffffffffffffffffffff021916908373ffffffffffffffffffffffffffffffffffffffff16021790555060016002600f6101000a81548160ff02191690831515021790555061237d61456d565b7399d8a9c45b2eca8864373a26d1459e3dff1e17f373ffffffffffffffffffffffffffffffffffffffff166370a08231306040518263ffffffff1660e01b81526004016123ca91906172f9565b602060405180830381865afa1580156123e5573d5f5f3e3d5ffd5b505050506040513d601f19601f8201168201806040525081019061240991906177ff565b6013819055505f601354036124635760016002600b6101000a81548160ff0219169083151502179055507ffcfb2f4d021db9b6947e6190c6da0f6415bd8d3d496d21699a112b93fa9791296016819055505f915050612720565b61246e601354614978565b600b8190555067016345785d8a0000600b54116124d05760016002600b6101000a81548160ff0219169083151502179055507f75c4b12af9078110608299b054ff7c246969bbb5bd51bf71ab83dbd4323cf3036016819055505f915050612720565b5b601b5f9054906101000a900473ffffffffffffffffffffffffffffffffffffffff1673ffffffffffffffffffffffffffffffffffffffff1663f1676d37303060195f9054906101000a900473ffffffffffffffffffffffffffffffffffffffff1660095460405180602001604052805f8152506040518663ffffffff1660e01b8152600401612564959493929190617793565b5f604051808303815f87803b15801561257b575f5ffd5b505af115801561258d573d5f5f3e3d5ffd5b505050507399d8a9c45b2eca8864373a26d1459e3dff1e17f373ffffffffffffffffffffffffffffffffffffffff166370a08231306040518263ffffffff1660e01b81526004016125de91906172f9565b602060405180830381865afa1580156125f9573d5f5f3e3d5ffd5b505050506040513d601f19601f8201168201806040525081019061261d91906177ff565b60148190555060135460145411612634575f612645565b6013546014546126449190617ef8565b5b60018190555060025f9054906101000a900460ff1680156126725750600260019054906101000a900460ff165b801561268a5750600260039054906101000a900460ff165b80156126a25750600260049054906101000a900460ff165b80156126ba5750600260059054906101000a900460ff165b80156126d0575067016345785d8a000060015410155b6002600a6101000a81548160ff0219169083151502179055506002600a9054906101000a900460ff166127195760016002600b6101000a81548160ff0219169083151502179055505b6001549150505b90565b5f601b5f9054906101000a900473ffffffffffffffffffffffffffffffffffffffff169050600a546009541161278e576040517f08c379a000000000000000000000000000000000000000000000000000000000815260040161278590617f75565b60405180910390fd5b600a5460095461279e9190617ef8565b600e819055508073ffffffffffffffffffffffffffffffffffffffff166302b9446c60195f9054906101000a900473ffffffffffffffffffffffffffffffffffffffff1630601c5f9054906101000a900473ffffffffffffffffffffffffffffffffffffffff16600e545f6040518663ffffffff1660e01b8152600401612829959493929190617993565b60408051808303815f875af1158015612844573d5f5f3e3d5ffd5b505050506040513d601f19601f8201168201806040525081019061286891906179e4565b9050600d5f829190505550600f54600d54116128b9576040517f08c379a00000000000000000000000000000000000000000000000000000000081526004016128b090617fdd565b60405180910390fd5b8173ffffffffffffffffffffffffffffffffffffffff1663860ffea1306001600d546040518463ffffffff1660e01b81526004016128f993929190617ffb565b5f604051808303815f87803b158015612910575f5ffd5b505af1158015612922573d5f5f3e3d5ffd5b505050506001600260016101000a81548160ff0219169083151502179055505f8173ffffffffffffffffffffffffffffffffffffffff1663f7888aec7399d8a9c45b2eca8864373a26d1459e3dff1e17f3601c5f9054906101000a900473ffffffffffffffffffffffffffffffffffffffff166040518363ffffffff1660e01b81526004016129b2929190618030565b602060405180830381865afa1580156129cd573d5f5f3e3d5ffd5b505050506040513d601f19601f820116820180604052508101906129f191906177ff565b90505f8273ffffffffffffffffffffffffffffffffffffffff1663566231187399d8a9c45b2eca8864373a26d1459e3dff1e17f3845f6040518463ffffffff1660e01b8152600401612a4593929190618057565b602060405180830381865afa158015612a60573d5f5f3e3d5ffd5b505050506040513d601f19601f82011682018060405250810190612a8491906177ff565b905060018111612ac9576040517f08c379a0000000000000000000000000000000000000000000000000000000008152600401612ac0906180d6565b60405180910390fd5b600181612ad69190617ef8565b6007819055508373ffffffffffffffffffffffffffffffffffffffff16634b8a3529306007546040518363ffffffff1660e01b8152600401612b199291906180f4565b60408051808303815f875af1158015612b34573d5f5f3e3d5ffd5b505050506040513d601f19601f82011682018060405250810190612b5891906179e4565b905060085f8291905055506001600260036101000a81548160ff021916908315150217905550600260019054906101000a900460ff168015612ba65750600260039054906101000a900460ff165b600260086101000a81548160ff0219169083151502179055505f60085414612c68578273ffffffffffffffffffffffffffffffffffffffff166397da6d307399d8a9c45b2eca8864373a26d1459e3dff1e17f330305f6008546040518663ffffffff1660e01b8152600401612c1f95949392919061811b565b60408051808303815f875af1158015612c3a573d5f5f3e3d5ffd5b505050506040513d601f19601f82011682018060405250810190612c5e91906179e4565b50505f6008819055505b8373ffffffffffffffffffffffffffffffffffffffff166338b51ce1306040518263ffffffff1660e01b8152600401612ca191906172f9565b602060405180830381865afa158015612cbc573d5f5f3e3d5ffd5b505050506040513d601f19601f82011682018060405250810190612ce09190618196565b60155f6101000a81548160ff0219169083151502179055505f8473ffffffffffffffffffffffffffffffffffffffff16631c9e379b306040518263ffffffff1660e01b8152600401612d3291906172f9565b602060405180830381865afa158015612d4d573d5f5f3e3d5ffd5b505050506040513d601f19601f82011682018060405250810190612d7191906177ff565b9050600f54811115612f42575f600f5482612d8c9190617ef8565b90508573ffffffffffffffffffffffffffffffffffffffff1663876467f830836040518363ffffffff1660e01b8152600401612dc99291906180f4565b5f604051808303815f87803b158015612de0575f5ffd5b505af1158015612df2573d5f5f3e3d5ffd5b505050505f8573ffffffffffffffffffffffffffffffffffffffff1663f7888aec60195f9054906101000a900473ffffffffffffffffffffffffffffffffffffffff16306040518363ffffffff1660e01b8152600401612e53929190618030565b602060405180830381865afa158015612e6e573d5f5f3e3d5ffd5b505050506040513d601f19601f82011682018060405250810190612e9291906177ff565b90505f8114612f3f578573ffffffffffffffffffffffffffffffffffffffff166397da6d3060195f9054906101000a900473ffffffffffffffffffffffffffffffffffffffff1630305f866040518663ffffffff1660e01b8152600401612efd95949392919061811b565b60408051808303815f875af1158015612f18573d5f5f3e3d5ffd5b505050506040513d601f19601f82011682018060405250810190612f3c91906179e4565b50505b50505b5f600a54600954612f539190617857565b90505f60195f9054906101000a900473ffffffffffffffffffffffffffffffffffffffff1673ffffffffffffffffffffffffffffffffffffffff166370a08231306040518263ffffffff1660e01b8152600401612fb091906172f9565b602060405180830381865afa158015612fcb573d5f5f3e3d5ffd5b505050506040513d601f19601f82011682018060405250810190612fef91906177ff565b90505f6010819055505f601181905550818110156131065780826130139190617ef8565b601081905550613024601054614a8e565b6011819055508160195f9054906101000a900473ffffffffffffffffffffffffffffffffffffffff1673ffffffffffffffffffffffffffffffffffffffff166370a08231306040518263ffffffff1660e01b815260040161308591906172f9565b602060405180830381865afa1580156130a0573d5f5f3e3d5ffd5b505050506040513d601f19601f820116820180604052508101906130c491906177ff565b1015613105576040517f08c379a00000000000000000000000000000000000000000000000000000000081526004016130fc9061820b565b60405180910390fd5b5b5f600167ffffffffffffffff81111561312257613121617b35565b5b6040519080825280602002602001820160405280156131505781602001602082028036833780820191505090505b50905030815f8151811061316757613166618229565b5b602002602001019073ffffffffffffffffffffffffffffffffffffffff16908173ffffffffffffffffffffffffffffffffffffffff16815250505f600167ffffffffffffffff8111156131bd576131bc617b35565b5b6040519080825280602002602001820160405280156131eb5781602001602082028036833780820191505090505b5090508873ffffffffffffffffffffffffffffffffffffffff166348e4163e306040518263ffffffff1660e01b815260040161322791906172f9565b602060405180830381865afa158015613242573d5f5f3e3d5ffd5b505050506040513d601f19601f8201168201806040525081019061326691906177ff565b815f8151811061327957613278618229565b5b6020026020010181815250505f5f601c5f9054906101000a900473ffffffffffffffffffffffffffffffffffffffff1673ffffffffffffffffffffffffffffffffffffffff1663ff6ff84b60e01b8585305f60405180602001604052805f8152506040516024016132ee9594939291906183c4565b604051602081830303815290604052907bffffffffffffffffffffffffffffffffffffffffffffffffffffffff19166020820180517bffffffffffffffffffffffffffffffffffffffffffffffffffffffff83818316178352505050506040516133589190618464565b5f604051808303815f865af19150503d805f8114613391576040519150601f19603f3d011682016040523d82523d5f602084013e613396565b606091505b50915091506001600260046101000a81548160ff0219169083151502179055508115801561344857506133c881614bf8565b8061344757508a73ffffffffffffffffffffffffffffffffffffffff166338b51ce1306040518263ffffffff1660e01b815260040161340791906172f9565b602060405180830381865afa158015613422573d5f5f3e3d5ffd5b505050506040513d601f19601f820116820180604052508101906134469190618196565b5b5b600260056101000a81548160ff021916908315150217905550600260059054906101000a900460ff1680156134f457505f8b73ffffffffffffffffffffffffffffffffffffffff16631c9e379b306040518263ffffffff1660e01b81526004016134b291906172f9565b602060405180830381865afa1580156134cd573d5f5f3e3d5ffd5b505050506040513d601f19601f820116820180604052508101906134f191906177ff565b14155b600260096101000a81548160ff021916908315150217905550600260059054906101000a900460ff1661355c576040517f08c379a0000000000000000000000000000000000000000000000000000000008152600401613553906184c4565b60405180910390fd5b5050505050505050505050565b5f5f8473ffffffffffffffffffffffffffffffffffffffff1663a9059cbb60e01b858560405160240161359d9291906180f4565b604051602081830303815290604052907bffffffffffffffffffffffffffffffffffffffffffffffffffffffff19166020820180517bffffffffffffffffffffffffffffffffffffffffffffffffffffffff83818316178352505050506040516136079190618464565b5f604051808303815f865af19150503d805f8114613640576040519150601f19603f3d011682016040523d82523d5f602084013e613645565b606091505b509150915081801561367257505f815114806136715750808060200190518101906136709190618196565b5b5b6136b1576040517f08c379a00000000000000000000000000000000000000000000000000000000081526004016136a89061852c565b60405180910390fd5b5050505050565b5f6136d67346f54d434063e5f1a2b2cc6d9aaa657b1b9ff82c614d96565b156136f7577346f54d434063e5f1a2b2cc6d9aaa657b1b9ff82c90506136f8565b5b90565b61376860195f9054906101000a900473ffffffffffffffffffffffffffffffffffffffff16601b5f9054906101000a900473ffffffffffffffffffffffffffffffffffffffff167fffffffffffffffffffffffffffffffffffffffffffffffffffffffffffffffff614e93565b6137c87399d8a9c45b2eca8864373a26d1459e3dff1e17f3601b5f9054906101000a900473ffffffffffffffffffffffffffffffffffffffff167fffffffffffffffffffffffffffffffffffffffffffffffffffffffffffffffff614e93565b61381b7399d8a9c45b2eca8864373a26d1459e3dff1e17f373d9e1ce17f2641f24ae83637ab66a2cca9c378b9f7fffffffffffffffffffffffffffffffffffffffffffffffffffffffffffffffff614e93565b61386e7399d8a9c45b2eca8864373a26d1459e3dff1e17f3737a250d5630b4cf539739df2c5dacb4c659f2488d7fffffffffffffffffffffffffffffffffffffffffffffffffffffffffffffffff614e93565b565b5f6001905090565b5f5f601b5f9054906101000a900473ffffffffffffffffffffffffffffffffffffffff1690505f60195f9054906101000a900473ffffffffffffffffffffffffffffffffffffffff1673ffffffffffffffffffffffffffffffffffffffff166370a08231601b5f9054906101000a900473ffffffffffffffffffffffffffffffffffffffff166040518263ffffffff1660e01b815260040161391a91906172f9565b602060405180830381865afa158015613935573d5f5f3e3d5ffd5b505050506040513d601f19601f8201168201806040525081019061395991906177ff565b90506103e7811161396e575f92505050613a54565b6103e792505b6107cf8311613a4e5780831061398e575f92505050613a54565b600f548273ffffffffffffffffffffffffffffffffffffffff1663da5139ca60195f9054906101000a900473ffffffffffffffffffffffffffffffffffffffff16865f6040518463ffffffff1660e01b81526004016139ef93929190618057565b602060405180830381865afa158015613a0a573d5f5f3e3d5ffd5b505050506040513d601f19601f82011682018060405250810190613a2e91906177ff565b1115613a3b575050613a54565b8280613a469061854a565b935050613974565b5f925050505b90565b5f5f5f9054906101000a900473ffffffffffffffffffffffffffffffffffffffff1690505f8173ffffffffffffffffffffffffffffffffffffffff16633ba0b9a96040518163ffffffff1660e01b8152600401602060405180830381865afa158015613ac5573d5f5f3e3d5ffd5b505050506040513d601f19601f82011682018060405250810190613ae991906177ff565b90505f811460065f6101000a81548160ff02191690831515021790555060065f9054906101000a900460ff1615613b56576001600260066101000a81548160ff0219169083151502179055505f6002600d6101000a81548160ff0219169083151502179055505050613dd9565b601a5f9054906101000a900473ffffffffffffffffffffffffffffffffffffffff1673ffffffffffffffffffffffffffffffffffffffff1663d6d7d525601f6040518263ffffffff1660e01b8152600401613bb19190618612565b60408051808303815f875af1158015613bcc573d5f5f3e3d5ffd5b505050506040513d601f19601f82011682018060405250810190613bf09190618632565b6002601060035f84919050558391906101000a81548160ff0219169083151502179055505050600260109054906101000a900460ff168015613c3357505f600354145b15613d96576001600260066101000a81548160ff0219169083151502179055505f5f613c5d614f38565b9150915081600460016101000a81548160ff021916908315150217905550818015613c8757505f81145b60045f6101000a81548160ff02191690831515021790555080600581905550818015613cb257505f81145b8015613d2957505f8473ffffffffffffffffffffffffffffffffffffffff16633ba0b9a96040518163ffffffff1660e01b8152600401602060405180830381865afa158015613d03573d5f5f3e3d5ffd5b505050506040513d601f19601f82011682018060405250810190613d2791906177ff565b145b600660016101000a81548160ff021916908315150217905550600660019054906101000a900460ff1660025f6101000a81548160ff021916908315150217905550600660019054906101000a900460ff16600260076101000a81548160ff02191690831515021790555050505b60065f9054906101000a900460ff1680613dbc5750600660019054906101000a900460ff165b156002600d6101000a81548160ff02191690831515021790555050505b565b5f73ffffffffffffffffffffffffffffffffffffffff16601d5f9054906101000a900473ffffffffffffffffffffffffffffffffffffffff1673ffffffffffffffffffffffffffffffffffffffff1614613f02575f601d5f9054906101000a900473ffffffffffffffffffffffffffffffffffffffff1673ffffffffffffffffffffffffffffffffffffffff16633ba0b9a96040518163ffffffff1660e01b8152600401602060405180830381865afa158015613e9a573d5f5f3e3d5ffd5b505050506040513d601f19601f82011682018060405250810190613ebe91906177ff565b146002806101000a81548160ff02191690831515021790555060028054906101000a900460ff1660025f6101000a81548160ff02191690831515021790555061456b565b604051613f0e906172ad565b604051809103905ff080158015613f27573d5f5f3e3d5ffd5b50601e5f6101000a81548173ffffffffffffffffffffffffffffffffffffffff021916908373ffffffffffffffffffffffffffffffffffffffff1602179055505f5f601e5f9054906101000a900473ffffffffffffffffffffffffffffffffffffffff1673ffffffffffffffffffffffffffffffffffffffff1663d6d7d52560405180602001604052805f8152506040518263ffffffff1660e01b8152600401613fd19190617573565b60408051808303815f875af1158015613fec573d5f5f3e3d5ffd5b505050506040513d601f19601f820116820180604052508101906140109190618632565b9150915081801561402057505f81145b61405f576040517f08c379a0000000000000000000000000000000000000000000000000000000008152600401614056906186ba565b60405180910390fd5b5f601b5f9054906101000a900473ffffffffffffffffffffffffffffffffffffffff1673ffffffffffffffffffffffffffffffffffffffff1663bafe4f145f5f9054906101000a900473ffffffffffffffffffffffffffffffffffffffff166040518263ffffffff1660e01b81526004016140da91906172f9565b602060405180830381865afa1580156140f5573d5f5f3e3d5ffd5b505050506040513d601f19601f820116820180604052508101906141199190617b06565b90505f73ffffffffffffffffffffffffffffffffffffffff168173ffffffffffffffffffffffffffffffffffffffff1603614189576040517f08c379a000000000000000000000000000000000000000000000000000000000815260040161418090618722565b60405180910390fd5b5f60195f9054906101000a900473ffffffffffffffffffffffffffffffffffffffff16601e5f9054906101000a900473ffffffffffffffffffffffffffffffffffffffff1660405180602001604052805f8152505f6201b580620124f85f6040516020016141fd9796959493929190618762565b6040516020818303038152906040529050601b5f9054906101000a900473ffffffffffffffffffffffffffffffffffffffff1673ffffffffffffffffffffffffffffffffffffffff16631f54245b83835f6040518463ffffffff1660e01b815260040161426c939291906187d6565b6020604051808303815f875af1158015614288573d5f5f3e3d5ffd5b505050506040513d601f19601f820116820180604052508101906142ac9190617b06565b601d5f6101000a81548173ffffffffffffffffffffffffffffffffffffffff021916908373ffffffffffffffffffffffffffffffffffffffff1602179055505f73ffffffffffffffffffffffffffffffffffffffff16601d5f9054906101000a900473ffffffffffffffffffffffffffffffffffffffff1673ffffffffffffffffffffffffffffffffffffffff160361437a576040517f08c379a00000000000000000000000000000000000000000000000000000000081526004016143719061885c565b60405180910390fd5b5f5f601d5f9054906101000a900473ffffffffffffffffffffffffffffffffffffffff1673ffffffffffffffffffffffffffffffffffffffff166302ce728f6040518163ffffffff1660e01b815260040160408051808303815f875af11580156143e6573d5f5f3e3d5ffd5b505050506040513d601f19601f8201168201806040525081019061440a9190618632565b9150915081801561441a57505f81145b80156144b257505f601d5f9054906101000a900473ffffffffffffffffffffffffffffffffffffffff1673ffffffffffffffffffffffffffffffffffffffff16633ba0b9a96040518163ffffffff1660e01b8152600401602060405180830381865afa15801561448c573d5f5f3e3d5ffd5b505050506040513d601f19601f820116820180604052508101906144b091906177ff565b145b6002806101000a81548160ff02191690831515021790555060028054906101000a900460ff1660025f6101000a81548160ff02191690831515021790555060028054906101000a900460ff16600260076101000a81548160ff02191690831515021790555060028054906101000a900460ff16614564576040517f08c379a000000000000000000000000000000000000000000000000000000000815260040161455b906188c4565b60405180910390fd5b5050505050505b565b5f7399d8a9c45b2eca8864373a26d1459e3dff1e17f373ffffffffffffffffffffffffffffffffffffffff166370a08231306040518263ffffffff1660e01b81526004016145bb91906172f9565b602060405180830381865afa1580156145d6573d5f5f3e3d5ffd5b505050506040513d601f19601f820116820180604052508101906145fa91906177ff565b14158061460657505f47145b614976575f479050660110d9316ec00081111561462857660110d9316ec00090505b61467873d9e1ce17f2641f24ae83637ab66a2cca9c378b9f61467273c02aaa39b223fe8d0a0e5c4f27ead9083c756cc27399d8a9c45b2eca8864373a26d1459e3dff1e17f3614fde565b836150cf565b156146835750614976565b6146e873d9e1ce17f2641f24ae83637ab66a2cca9c378b9f6146e273c02aaa39b223fe8d0a0e5c4f27ead9083c756cc273dac17f958d2ee523a2206206994597c13d831ec77399d8a9c45b2eca8864373a26d1459e3dff1e17f3615212565b836150cf565b156146f35750614976565b61475873d9e1ce17f2641f24ae83637ab66a2cca9c378b9f61475273c02aaa39b223fe8d0a0e5c4f27ead9083c756cc273a0b86991c6218b36c1d19d4a2e9eb0ce3606eb487399d8a9c45b2eca8864373a26d1459e3dff1e17f3615212565b836150cf565b156147635750614976565b6147c873d9e1ce17f2641f24ae83637ab66a2cca9c378b9f6147c273c02aaa39b223fe8d0a0e5c4f27ead9083c756cc2736b175474e89094c44da98b954eedeac495271d0f7399d8a9c45b2eca8864373a26d1459e3dff1e17f3615212565b836150cf565b156147d35750614976565b614823737a250d5630b4cf539739df2c5dacb4c659f2488d61481d73c02aaa39b223fe8d0a0e5c4f27ead9083c756cc27399d8a9c45b2eca8864373a26d1459e3dff1e17f3614fde565b836150cf565b1561482e5750614976565b614893737a250d5630b4cf539739df2c5dacb4c659f2488d61488d73c02aaa39b223fe8d0a0e5c4f27ead9083c756cc273dac17f958d2ee523a2206206994597c13d831ec77399d8a9c45b2eca8864373a26d1459e3dff1e17f3615212565b836150cf565b1561489e5750614976565b614903737a250d5630b4cf539739df2c5dacb4c659f2488d6148fd73c02aaa39b223fe8d0a0e5c4f27ead9083c756cc273a0b86991c6218b36c1d19d4a2e9eb0ce3606eb487399d8a9c45b2eca8864373a26d1459e3dff1e17f3615212565b836150cf565b1561490e5750614976565b614973737a250d5630b4cf539739df2c5dacb4c659f2488d61496d73c02aaa39b223fe8d0a0e5c4f27ead9083c756cc2736b175474e89094c44da98b954eedeac495271d0f7399d8a9c45b2eca8864373a26d1459e3dff1e17f3615212565b836150cf565b50505b565b5f5f7399d8a9c45b2eca8864373a26d1459e3dff1e17f373ffffffffffffffffffffffffffffffffffffffff166370a08231601b5f9054906101000a900473ffffffffffffffffffffffffffffffffffffffff166040518263ffffffff1660e01b81526004016149e891906172f9565b602060405180830381865afa158015614a03573d5f5f3e3d5ffd5b505050506040513d601f19601f82011682018060405250810190614a2791906177ff565b905060018111614a3a575f915050614a89565b5f60646107d0614a4a9190617ef8565b84614a5591906188e2565b9050680ad78ebc5ac6200000925080831115614a6f578092505b818310614a8657600182614a839190617ef8565b92505b50505b919050565b5f5f8203614a9e575f9050614bf3565b5f7399d8a9c45b2eca8864373a26d1459e3dff1e17f373ffffffffffffffffffffffffffffffffffffffff166370a08231306040518263ffffffff1660e01b8152600401614aec91906172f9565b602060405180830381865afa158015614b07573d5f5f3e3d5ffd5b505050506040513d601f19601f82011682018060405250810190614b2b91906177ff565b9050614b3683615353565b614b4557614b4383615712565b505b5f7399d8a9c45b2eca8864373a26d1459e3dff1e17f373ffffffffffffffffffffffffffffffffffffffff166370a08231306040518263ffffffff1660e01b8152600401614b9391906172f9565b602060405180830381865afa158015614bae573d5f5f3e3d5ffd5b505050506040513d601f19601f82011682018060405250810190614bd291906177ff565b9050808211614be1575f614bee565b8082614bed9190617ef8565b5b925050505b919050565b5f604482511015614c0b575f9050614d91565b5f602083015190506308c379a060e01b817bffffffffffffffffffffffffffffffffffffffffffffffffffffffff191614614c49575f915050614d91565b5f60048451614c589190617ef8565b67ffffffffffffffff811115614c7157614c70617b35565b5b6040519080825280601f01601f191660200182016040528015614ca35781602001600182028036833780820191505090505b5090505f600490505b8451811015614d2d57848181518110614cc857614cc7618229565b5b602001015160f81c60f81b82600483614ce19190617ef8565b81518110614cf257614cf1618229565b5b60200101907effffffffffffffffffffffffffffffffffffffffffffffffffffffffffffff191690815f1a9053508080600101915050614cac565b505f81806020019051810190614d4391906189c1565b90506040518060400160405280601981526020017f4361756c64726f6e3a20616c6c2061726520736f6c76656e74000000000000008152508051906020012081805190602001201493505050505b919050565b5f5f73ffffffffffffffffffffffffffffffffffffffff168273ffffffffffffffffffffffffffffffffffffffff1603614dd2575f9050614e8e565b8173ffffffffffffffffffffffffffffffffffffffff16639b352ae16040518163ffffffff1660e01b8152600401602060405180830381865afa925050508015614e3a57506040513d601f19601f82011682018060405250810190614e379190617b06565b60015b614e46575f9050614e8d565b7399d8a9c45b2eca8864373a26d1459e3dff1e17f373ffffffffffffffffffffffffffffffffffffffff168173ffffffffffffffffffffffffffffffffffffffff16149150505b5b919050565b8273ffffffffffffffffffffffffffffffffffffffff1663dd62ed3e30846040518363ffffffff1660e01b8152600401614ece929190618030565b602060405180830381865afa925050508015614f0857506040513d601f19601f82011682018060405250810190614f0591906177ff565b60015b15614f1c57818110614f1a5750614f33565b505b614f2783835f6162c2565b614f328383836162c2565b5b505050565b5f5f5f5f9054906101000a900473ffffffffffffffffffffffffffffffffffffffff1673ffffffffffffffffffffffffffffffffffffffff166302ce728f6040518163ffffffff1660e01b815260040160408051808303815f875af1925050508015614fc257506040513d601f19601f82011682018060405250810190614fbf9190618632565b60015b614fd1575f91505f9050614fda565b81935080925050505b9091565b6060600267ffffffffffffffff811115614ffb57614ffa617b35565b5b6040519080825280602002602001820160405280156150295781602001602082028036833780820191505090505b50905082815f815181106150405761503f618229565b5b602002602001019073ffffffffffffffffffffffffffffffffffffffff16908173ffffffffffffffffffffffffffffffffffffffff1681525050818160018151811061508f5761508e618229565b5b602002602001019073ffffffffffffffffffffffffffffffffffffffff16908173ffffffffffffffffffffffffffffffffffffffff168152505092915050565b5f5f82036150df575f905061520b565b8373ffffffffffffffffffffffffffffffffffffffff16637ff36ab5835f8630426040518663ffffffff1660e01b815260040161511f9493929190618a08565b5f6040518083038185885af19350505050801561515e57506040513d5f823e3d601f19601f8201168201806040525081019061515b9190618b12565b60015b61516a575f905061520a565b5f81511415801561520657505f7399d8a9c45b2eca8864373a26d1459e3dff1e17f373ffffffffffffffffffffffffffffffffffffffff166370a08231306040518263ffffffff1660e01b81526004016151c491906172f9565b602060405180830381865afa1580156151df573d5f5f3e3d5ffd5b505050506040513d601f19601f8201168201806040525081019061520391906177ff565b14155b9150505b5b9392505050565b6060600367ffffffffffffffff81111561522f5761522e617b35565b5b60405190808252806020026020018201604052801561525d5781602001602082028036833780820191505090505b50905083815f8151811061527457615273618229565b5b602002602001019073ffffffffffffffffffffffffffffffffffffffff16908173ffffffffffffffffffffffffffffffffffffffff168152505082816001815181106152c3576152c2618229565b5b602002602001019073ffffffffffffffffffffffffffffffffffffffff16908173ffffffffffffffffffffffffffffffffffffffff1681525050818160028151811061531257615311618229565b5b602002602001019073ffffffffffffffffffffffffffffffffffffffff16908173ffffffffffffffffffffffffffffffffffffffff16815250509392505050565b5f5f8203615364576001905061570d565b5f5f5f5f5f5f61539460195f9054906101000a900473ffffffffffffffffffffffffffffffffffffffff16616411565b9550955095509550955095508515806153ac57505f81145b806153c657505f836dffffffffffffffffffffffffffff16145b806153e057505f826dffffffffffffffffffffffffffff16145b156153f3575f965050505050505061570d565b600160175f6101000a81548160ff02191690831515021790555084601760016101000a81548173ffffffffffffffffffffffffffffffffffffffff021916908373ffffffffffffffffffffffffffffffffffffffff1602179055508360185f6101000a81548173ffffffffffffffffffffffffffffffffffffffff021916908373ffffffffffffffffffffffffffffffffffffffff1602179055505f6154b4846dffffffffffffffffffffffffffff168a6154ae91906188e2565b836168cc565b90505f6154dc846dffffffffffffffffffffffffffff168b6154d691906188e2565b846168cc565b90505f82036154ea57600191505b5f81036154f657600190505b6001826155039190617857565b91506001816155129190617857565b905061551e8783616907565b615532575f9850505050505050505061570d565b61553c8682616907565b615550575f9850505050505050505061570d565b61557c8760195f9054906101000a900473ffffffffffffffffffffffffffffffffffffffff1684613569565b6155a88660195f9054906101000a900473ffffffffffffffffffffffffffffffffffffffff1683613569565b60195f9054906101000a900473ffffffffffffffffffffffffffffffffffffffff1673ffffffffffffffffffffffffffffffffffffffff16636a627842306040518263ffffffff1660e01b815260040161560291906172f9565b6020604051808303815f875af192505050801561563d57506040513d601f19601f8201168201806040525081019061563a91906177ff565b60015b615649575f9850615704565b8a81101580156157005750600a546009546156649190617857565b60195f9054906101000a900473ffffffffffffffffffffffffffffffffffffffff1673ffffffffffffffffffffffffffffffffffffffff166370a08231306040518263ffffffff1660e01b81526004016156be91906172f9565b602060405180830381865afa1580156156d9573d5f5f3e3d5ffd5b505050506040513d601f19601f820116820180604052508101906156fd91906177ff565b10155b9950505b50505050505050505b919050565b5f5f8203615722575f90506162bd565b5f7399d8a9c45b2eca8864373a26d1459e3dff1e17f373ffffffffffffffffffffffffffffffffffffffff166370a08231306040518263ffffffff1660e01b815260040161577091906172f9565b602060405180830381865afa15801561578b573d5f5f3e3d5ffd5b505050506040513d601f19601f820116820180604052508101906157af91906177ff565b905067016345785d8a000081116157c9575f9150506162bd565b5f67016345785d8a0000826157de9190617ef8565b90505f81036157f1575f925050506162bd565b61584f73d9e1ce17f2641f24ae83637ab66a2cca9c378b9f6158487399d8a9c45b2eca8864373a26d1459e3dff1e17f360195f9054906101000a900473ffffffffffffffffffffffffffffffffffffffff16614fde565b8684616b6d565b156158f4577399d8a9c45b2eca8864373a26d1459e3dff1e17f373ffffffffffffffffffffffffffffffffffffffff166370a08231306040518263ffffffff1660e01b81526004016158a191906172f9565b602060405180830381865afa1580156158bc573d5f5f3e3d5ffd5b505050506040513d601f19601f820116820180604052508101906158e091906177ff565b826158eb9190617ef8565b925050506162bd565b61596773d9e1ce17f2641f24ae83637ab66a2cca9c378b9f6159607399d8a9c45b2eca8864373a26d1459e3dff1e17f373c02aaa39b223fe8d0a0e5c4f27ead9083c756cc260195f9054906101000a900473ffffffffffffffffffffffffffffffffffffffff16615212565b8684616b6d565b15615a0c577399d8a9c45b2eca8864373a26d1459e3dff1e17f373ffffffffffffffffffffffffffffffffffffffff166370a08231306040518263ffffffff1660e01b81526004016159b991906172f9565b602060405180830381865afa1580156159d4573d5f5f3e3d5ffd5b505050506040513d601f19601f820116820180604052508101906159f891906177ff565b82615a039190617ef8565b925050506162bd565b615a7f73d9e1ce17f2641f24ae83637ab66a2cca9c378b9f615a787399d8a9c45b2eca8864373a26d1459e3dff1e17f373dac17f958d2ee523a2206206994597c13d831ec760195f9054906101000a900473ffffffffffffffffffffffffffffffffffffffff16615212565b8684616b6d565b15615b24577399d8a9c45b2eca8864373a26d1459e3dff1e17f373ffffffffffffffffffffffffffffffffffffffff166370a08231306040518263ffffffff1660e01b8152600401615ad191906172f9565b602060405180830381865afa158015615aec573d5f5f3e3d5ffd5b505050506040513d601f19601f82011682018060405250810190615b1091906177ff565b82615b1b9190617ef8565b925050506162bd565b615b9773d9e1ce17f2641f24ae83637ab66a2cca9c378b9f615b907399d8a9c45b2eca8864373a26d1459e3dff1e17f373a0b86991c6218b36c1d19d4a2e9eb0ce3606eb4860195f9054906101000a900473ffffffffffffffffffffffffffffffffffffffff16615212565b8684616b6d565b15615c3c577399d8a9c45b2eca8864373a26d1459e3dff1e17f373ffffffffffffffffffffffffffffffffffffffff166370a08231306040518263ffffffff1660e01b8152600401615be991906172f9565b602060405180830381865afa158015615c04573d5f5f3e3d5ffd5b505050506040513d601f19601f82011682018060405250810190615c2891906177ff565b82615c339190617ef8565b925050506162bd565b615caf73d9e1ce17f2641f24ae83637ab66a2cca9c378b9f615ca87399d8a9c45b2eca8864373a26d1459e3dff1e17f3736b175474e89094c44da98b954eedeac495271d0f60195f9054906101000a900473ffffffffffffffffffffffffffffffffffffffff16615212565b8684616b6d565b15615d54577399d8a9c45b2eca8864373a26d1459e3dff1e17f373ffffffffffffffffffffffffffffffffffffffff166370a08231306040518263ffffffff1660e01b8152600401615d0191906172f9565b602060405180830381865afa158015615d1c573d5f5f3e3d5ffd5b505050506040513d601f19601f82011682018060405250810190615d4091906177ff565b82615d4b9190617ef8565b925050506162bd565b615db2737a250d5630b4cf539739df2c5dacb4c659f2488d615dab7399d8a9c45b2eca8864373a26d1459e3dff1e17f360195f9054906101000a900473ffffffffffffffffffffffffffffffffffffffff16614fde565b8684616b6d565b15615e57577399d8a9c45b2eca8864373a26d1459e3dff1e17f373ffffffffffffffffffffffffffffffffffffffff166370a08231306040518263ffffffff1660e01b8152600401615e0491906172f9565b602060405180830381865afa158015615e1f573d5f5f3e3d5ffd5b505050506040513d601f19601f82011682018060405250810190615e4391906177ff565b82615e4e9190617ef8565b925050506162bd565b615eca737a250d5630b4cf539739df2c5dacb4c659f2488d615ec37399d8a9c45b2eca8864373a26d1459e3dff1e17f373c02aaa39b223fe8d0a0e5c4f27ead9083c756cc260195f9054906101000a900473ffffffffffffffffffffffffffffffffffffffff16615212565b8684616b6d565b15615f6f577399d8a9c45b2eca8864373a26d1459e3dff1e17f373ffffffffffffffffffffffffffffffffffffffff166370a08231306040518263ffffffff1660e01b8152600401615f1c91906172f9565b602060405180830381865afa158015615f37573d5f5f3e3d5ffd5b505050506040513d601f19601f82011682018060405250810190615f5b91906177ff565b82615f669190617ef8565b925050506162bd565b615fe2737a250d5630b4cf539739df2c5dacb4c659f2488d615fdb7399d8a9c45b2eca8864373a26d1459e3dff1e17f373dac17f958d2ee523a2206206994597c13d831ec760195f9054906101000a900473ffffffffffffffffffffffffffffffffffffffff16615212565b8684616b6d565b15616087577399d8a9c45b2eca8864373a26d1459e3dff1e17f373ffffffffffffffffffffffffffffffffffffffff166370a08231306040518263ffffffff1660e01b815260040161603491906172f9565b602060405180830381865afa15801561604f573d5f5f3e3d5ffd5b505050506040513d601f19601f8201168201806040525081019061607391906177ff565b8261607e9190617ef8565b925050506162bd565b6160fa737a250d5630b4cf539739df2c5dacb4c659f2488d6160f37399d8a9c45b2eca8864373a26d1459e3dff1e17f373a0b86991c6218b36c1d19d4a2e9eb0ce3606eb4860195f9054906101000a900473ffffffffffffffffffffffffffffffffffffffff16615212565b8684616b6d565b1561619f577399d8a9c45b2eca8864373a26d1459e3dff1e17f373ffffffffffffffffffffffffffffffffffffffff166370a08231306040518263ffffffff1660e01b815260040161614c91906172f9565b602060405180830381865afa158015616167573d5f5f3e3d5ffd5b505050506040513d601f19601f8201168201806040525081019061618b91906177ff565b826161969190617ef8565b925050506162bd565b616212737a250d5630b4cf539739df2c5dacb4c659f2488d61620b7399d8a9c45b2eca8864373a26d1459e3dff1e17f3736b175474e89094c44da98b954eedeac495271d0f60195f9054906101000a900473ffffffffffffffffffffffffffffffffffffffff16615212565b8684616b6d565b156162b7577399d8a9c45b2eca8864373a26d1459e3dff1e17f373ffffffffffffffffffffffffffffffffffffffff166370a08231306040518263ffffffff1660e01b815260040161626491906172f9565b602060405180830381865afa15801561627f573d5f5f3e3d5ffd5b505050506040513d601f19601f820116820180604052508101906162a391906177ff565b826162ae9190617ef8565b925050506162bd565b5f925050505b919050565b5f5f8473ffffffffffffffffffffffffffffffffffffffff1663095ea7b360e01b85856040516024016162f69291906180f4565b604051602081830303815290604052907bffffffffffffffffffffffffffffffffffffffffffffffffffffffff19166020820180517bffffffffffffffffffffffffffffffffffffffffffffffffffffffff83818316178352505050506040516163609190618464565b5f604051808303815f865af19150503d805f8114616399576040519150601f19603f3d011682016040523d82523d5f602084013e61639e565b606091505b50915091508180156163cb57505f815114806163ca5750808060200190518101906163c99190618196565b5b5b61640a576040517f08c379a000000000000000000000000000000000000000000000000000000000815260040161640190618ba3565b60405180910390fd5b5050505050565b5f5f5f5f5f5f5f5f8873ffffffffffffffffffffffffffffffffffffffff16630dfe168160e01b604051602401604051602081830303815290604052907bffffffffffffffffffffffffffffffffffffffffffffffffffffffff19166020820180517bffffffffffffffffffffffffffffffffffffffffffffffffffffffff83818316178352505050506040516164a89190618464565b5f60405180830381855afa9150503d805f81146164e0576040519150601f19603f3d011682016040523d82523d5f602084013e6164e5565b606091505b50915091505f5f8a73ffffffffffffffffffffffffffffffffffffffff1663d21220a760e01b604051602401604051602081830303815290604052907bffffffffffffffffffffffffffffffffffffffffffffffffffffffff19166020820180517bffffffffffffffffffffffffffffffffffffffffffffffffffffffff838183161783525050505060405161657b9190618464565b5f60405180830381855afa9150503d805f81146165b3576040519150601f19603f3d011682016040523d82523d5f602084013e6165b8565b606091505b50915091505f5f8c73ffffffffffffffffffffffffffffffffffffffff16630902f1ac60e01b604051602401604051602081830303815290604052907bffffffffffffffffffffffffffffffffffffffffffffffffffffffff19166020820180517bffffffffffffffffffffffffffffffffffffffffffffffffffffffff838183161783525050505060405161664e9190618464565b5f60405180830381855afa9150503d805f8114616686576040519150601f19603f3d011682016040523d82523d5f602084013e61668b565b606091505b50915091505f5f8e73ffffffffffffffffffffffffffffffffffffffff166318160ddd60e01b604051602401604051602081830303815290604052907bffffffffffffffffffffffffffffffffffffffffffffffffffffffff19166020820180517bffffffffffffffffffffffffffffffffffffffffffffffffffffffff83818316178352505050506040516167219190618464565b5f60405180830381855afa9150503d805f8114616759576040519150601f19603f3d011682016040523d82523d5f602084013e61675e565b606091505b509150915087158061676e575085155b80616777575083155b80616780575081155b156167a4575f5f5f5f5f5f9d509d509d509d509d509d5050505050505050506168c3565b6020875110806167b5575060208551105b806167c1575060608351105b806167cd575060208151105b156167f1575f5f5f5f5f5f9d509d509d509d509d509d5050505050505050506168c3565b868060200190518101906168059190618bfc565b9c508480602001905181019061681b9190618bfc565b9b50828060200190518101906168319190618ca3565b50809b50819c5050508080602001905181019061684e91906177ff565b98505f73ffffffffffffffffffffffffffffffffffffffff168d73ffffffffffffffffffffffffffffffffffffffff16141580156168b857505f73ffffffffffffffffffffffffffffffffffffffff168c73ffffffffffffffffffffffffffffffffffffffff1614155b9d5050505050505050505b91939550919395565b5f5f83146168fd576001826001856168e49190617ef8565b6168ee9190618d20565b6168f89190617857565b6168ff565b5f5b905092915050565b5f5f8373ffffffffffffffffffffffffffffffffffffffff166370a08231306040518263ffffffff1660e01b815260040161694291906172f9565b602060405180830381865afa15801561695d573d5f5f3e3d5ffd5b505050506040513d601f19601f8201168201806040525081019061698191906177ff565b9050828110616994576001915050616b67565b5f81846169a19190617ef8565b90507399d8a9c45b2eca8864373a26d1459e3dff1e17f373ffffffffffffffffffffffffffffffffffffffff168573ffffffffffffffffffffffffffffffffffffffff1603616a8257837399d8a9c45b2eca8864373a26d1459e3dff1e17f373ffffffffffffffffffffffffffffffffffffffff166370a08231306040518263ffffffff1660e01b8152600401616a3891906172f9565b602060405180830381865afa158015616a53573d5f5f3e3d5ffd5b505050506040513d601f19601f82011682018060405250810190616a7791906177ff565b101592505050616b67565b5f7399d8a9c45b2eca8864373a26d1459e3dff1e17f373ffffffffffffffffffffffffffffffffffffffff166370a08231306040518263ffffffff1660e01b8152600401616ad091906172f9565b602060405180830381865afa158015616aeb573d5f5f3e3d5ffd5b505050506040513d601f19601f82011682018060405250810190616b0f91906177ff565b905067016345785d8a00008111616b2b575f9350505050616b67565b5f67016345785d8a000082616b409190617ef8565b90505f8103616b55575f945050505050616b67565b616b60878483616cd8565b9450505050505b92915050565b5f5f831480616b7b57505f82145b15616b88575f9050616cd0565b8473ffffffffffffffffffffffffffffffffffffffff16638803dbee84848730426040518663ffffffff1660e01b8152600401616bc9959493929190618d50565b5f604051808303815f875af1925050508015616c0757506040513d5f823e3d601f19601f82011682018060405250810190616c049190618b12565b60015b616c13575f9050616ccf565b5f815114158015616ccb5750600a54600954616c2f9190617857565b60195f9054906101000a900473ffffffffffffffffffffffffffffffffffffffff1673ffffffffffffffffffffffffffffffffffffffff166370a08231306040518263ffffffff1660e01b8152600401616c8991906172f9565b602060405180830381865afa158015616ca4573d5f5f3e3d5ffd5b505050506040513d601f19601f82011682018060405250810190616cc891906177ff565b10155b9150505b5b949350505050565b5f5f8303616ce9576001905061716a565b7399d8a9c45b2eca8864373a26d1459e3dff1e17f373ffffffffffffffffffffffffffffffffffffffff168473ffffffffffffffffffffffffffffffffffffffff1603616dc657827399d8a9c45b2eca8864373a26d1459e3dff1e17f373ffffffffffffffffffffffffffffffffffffffff166370a08231306040518263ffffffff1660e01b8152600401616d7e91906172f9565b602060405180830381865afa158015616d99573d5f5f3e3d5ffd5b505050506040513d601f19601f82011682018060405250810190616dbd91906177ff565b1015905061716a565b616e0473d9e1ce17f2641f24ae83637ab66a2cca9c378b9f616dfc7399d8a9c45b2eca8864373a26d1459e3dff1e17f387614fde565b868686617171565b15616e12576001905061716a565b616e6573d9e1ce17f2641f24ae83637ab66a2cca9c378b9f616e5d7399d8a9c45b2eca8864373a26d1459e3dff1e17f373c02aaa39b223fe8d0a0e5c4f27ead9083c756cc288615212565b868686617171565b15616e73576001905061716a565b616ec673d9e1ce17f2641f24ae83637ab66a2cca9c378b9f616ebe7399d8a9c45b2eca8864373a26d1459e3dff1e17f373dac17f958d2ee523a2206206994597c13d831ec788615212565b868686617171565b15616ed4576001905061716a565b616f2773d9e1ce17f2641f24ae83637ab66a2cca9c378b9f616f1f7399d8a9c45b2eca8864373a26d1459e3dff1e17f373a0b86991c6218b36c1d19d4a2e9eb0ce3606eb4888615212565b868686617171565b15616f35576001905061716a565b616f8873d9e1ce17f2641f24ae83637ab66a2cca9c378b9f616f807399d8a9c45b2eca8864373a26d1459e3dff1e17f3736b175474e89094c44da98b954eedeac495271d0f88615212565b868686617171565b15616f96576001905061716a565b616fd4737a250d5630b4cf539739df2c5dacb4c659f2488d616fcc7399d8a9c45b2eca8864373a26d1459e3dff1e17f387614fde565b868686617171565b15616fe2576001905061716a565b617035737a250d5630b4cf539739df2c5dacb4c659f2488d61702d7399d8a9c45b2eca8864373a26d1459e3dff1e17f373c02aaa39b223fe8d0a0e5c4f27ead9083c756cc288615212565b868686617171565b15617043576001905061716a565b617096737a250d5630b4cf539739df2c5dacb4c659f2488d61708e7399d8a9c45b2eca8864373a26d1459e3dff1e17f373dac17f958d2ee523a2206206994597c13d831ec788615212565b868686617171565b156170a4576001905061716a565b6170f7737a250d5630b4cf539739df2c5dacb4c659f2488d6170ef7399d8a9c45b2eca8864373a26d1459e3dff1e17f373a0b86991c6218b36c1d19d4a2e9eb0ce3606eb4888615212565b868686617171565b15617105576001905061716a565b617158737a250d5630b4cf539739df2c5dacb4c659f2488d6171507399d8a9c45b2eca8864373a26d1459e3dff1e17f3736b175474e89094c44da98b954eedeac495271d0f88615212565b868686617171565b15617166576001905061716a565b5f90505b9392505050565b5f5f83148061717f57505f82145b1561718c575f90506172a4565b8573ffffffffffffffffffffffffffffffffffffffff16638803dbee84848830426040518663ffffffff1660e01b81526004016171cd959493929190618d50565b5f604051808303815f875af192505050801561720b57506040513d5f823e3d601f19601f820116820180604052508101906172089190618b12565b60015b617217575f90506172a3565b5f81511415801561729f5750838573ffffffffffffffffffffffffffffffffffffffff166370a08231306040518263ffffffff1660e01b815260040161725d91906172f9565b602060405180830381865afa158015617278573d5f5f3e3d5ffd5b505050506040513d601f19601f8201168201806040525081019061729c91906177ff565b10155b9150505b5b95945050505050565b6101cd80618da983390190565b5f73ffffffffffffffffffffffffffffffffffffffff82169050919050565b5f6172e3826172ba565b9050919050565b6172f3816172d9565b82525050565b5f60208201905061730c5f8301846172ea565b92915050565b5f604051905090565b5f5ffd5b5f5ffd5b61732c816172d9565b8114617336575f5ffd5b50565b5f8135905061734781617323565b92915050565b5f819050919050565b61735f8161734d565b8114617369575f5ffd5b50565b5f8135905061737a81617356565b92915050565b5f5ffd5b5f5ffd5b5f5ffd5b5f5f83601f8401126173a1576173a0617380565b5b8235905067ffffffffffffffff8111156173be576173bd617384565b5b6020830191508360018202830111156173da576173d9617388565b5b9250929050565b5f5f5f5f5f5f60a087890312156173fb576173fa61731b565b5b5f61740889828a01617339565b965050602061741989828a01617339565b955050604061742a89828a0161736c565b945050606061743b89828a0161736c565b935050608087013567ffffffffffffffff81111561745c5761745b61731f565b5b61746889828a0161738c565b92509250509295509295509295565b5f8115159050919050565b61748b81617477565b82525050565b5f6020820190506174a45f830184617482565b92915050565b6174b38161734d565b82525050565b5f6020820190506174cc5f8301846174aa565b92915050565b5f819050919050565b6174e4816174d2565b82525050565b5f6020820190506174fd5f8301846174db565b92915050565b5f81519050919050565b5f82825260208201905092915050565b8281835e5f83830152505050565b5f601f19601f8301169050919050565b5f61754582617503565b61754f818561750d565b935061755f81856020860161751d565b6175688161752b565b840191505092915050565b5f6020820190508181035f83015261758b818461753b565b905092915050565b5f82825260208201905092915050565b7f6261642d62656e746f00000000000000000000000000000000000000000000005f82015250565b5f6175d7600983617593565b91506175e2826175a3565b602082019050919050565b5f6020820190508181035f830152617604816175cb565b9050919050565b7f6261642d73656e646572000000000000000000000000000000000000000000005f82015250565b5f61763f600a83617593565b915061764a8261760b565b602082019050919050565b5f6020820190508181035f83015261766c81617633565b9050919050565b7f6261642d746f6b656e00000000000000000000000000000000000000000000005f82015250565b5f6176a7600983617593565b91506176b282617673565b602082019050919050565b5f6020820190508181035f8301526176d48161769b565b9050919050565b7f4e487b71000000000000000000000000000000000000000000000000000000005f52602260045260245ffd5b5f600282049050600182168061771f57607f821691505b602082108103617732576177316176db565b5b50919050565b5f819050919050565b5f61775b617756617751846172ba565b617738565b6172ba565b9050919050565b5f61776c82617741565b9050919050565b5f61777d82617762565b9050919050565b61778d81617773565b82525050565b5f60a0820190506177a65f830188617784565b6177b360208301876172ea565b6177c060408301866172ea565b6177cd60608301856174aa565b81810360808301526177df818461753b565b90509695505050505050565b5f815190506177f981617356565b92915050565b5f602082840312156178145761781361731b565b5b5f617821848285016177eb565b91505092915050565b7f4e487b71000000000000000000000000000000000000000000000000000000005f52601160045260245ffd5b5f6178618261734d565b915061786c8361734d565b92508282019050808211156178845761788361782a565b5b92915050565b7f696e73756666696369656e742d636f6c6c61746572616c2d72657061790000005f82015250565b5f6178be601d83617593565b91506178c98261788a565b602082019050919050565b5f6020820190508181035f8301526178eb816178b2565b9050919050565b7f756e65787065637465642d6d696d2d666c6173680000000000000000000000005f82015250565b5f617926601483617593565b9150617931826178f2565b602082019050919050565b5f6020820190508181035f8301526179538161791a565b9050919050565b5f819050919050565b5f61797d6179786179738461795a565b617738565b61734d565b9050919050565b61798d81617963565b82525050565b5f60a0820190506179a65f8301886172ea565b6179b360208301876172ea565b6179c060408301866172ea565b6179cd60608301856174aa565b6179da6080830184617984565b9695505050505050565b5f5f604083850312156179fa576179f961731b565b5b5f617a07858286016177eb565b9250506020617a18858286016177eb565b9150509250929050565b7f7a65726f2d6d696d2d736565642d7368617265000000000000000000000000005f82015250565b5f617a56601383617593565b9150617a6182617a22565b602082019050919050565b5f6020820190508181035f830152617a8381617a4a565b9050919050565b7f696e73756666696369656e742d6d696d2d6665650000000000000000000000005f82015250565b5f617abe601483617593565b9150617ac982617a8a565b602082019050919050565b5f6020820190508181035f830152617aeb81617ab2565b9050919050565b5f81519050617b0081617323565b92915050565b5f60208284031215617b1b57617b1a61731b565b5b5f617b2884828501617af2565b91505092915050565b5f5ffd5b7f4e487b71000000000000000000000000000000000000000000000000000000005f52604160045260245ffd5b617b6b8261752b565b810181811067ffffffffffffffff82111715617b8a57617b89617b35565b5b80604052505050565b5f617b9c617312565b9050617ba88282617b62565b919050565b5f67ffffffffffffffff821115617bc757617bc6617b35565b5b617bd08261752b565b9050602081019050919050565b5f617bef617bea84617bad565b617b93565b905082815260208101848484011115617c0b57617c0a617b31565b5b617c1684828561751d565b509392505050565b5f82601f830112617c3257617c31617380565b5b8151617c42848260208601617bdd565b91505092915050565b5f60208284031215617c6057617c5f61731b565b5b5f82015167ffffffffffffffff811115617c7d57617c7c61731f565b5b617c8984828501617c1e565b91505092915050565b5f819050815f5260205f209050919050565b5f6020601f8301049050919050565b5f82821b905092915050565b5f60088302617cee7fffffffffffffffffffffffffffffffffffffffffffffffffffffffffffffffff82617cb3565b617cf88683617cb3565b95508019841693508086168417925050509392505050565b5f617d2a617d25617d208461734d565b617738565b61734d565b9050919050565b5f819050919050565b617d4383617d10565b617d57617d4f82617d31565b848454617cbf565b825550505050565b5f5f905090565b617d6e617d5f565b617d79818484617d3a565b505050565b5b81811015617d9c57617d915f82617d66565b600181019050617d7f565b5050565b601f821115617de157617db281617c92565b617dbb84617ca4565b81016020851015617dca578190505b617dde617dd685617ca4565b830182617d7e565b50505b505050565b5f82821c905092915050565b5f617e015f1984600802617de6565b1980831691505092915050565b5f617e198383617df2565b9150826002028217905092915050565b617e3282617503565b67ffffffffffffffff811115617e4b57617e4a617b35565b5b617e558254617708565b617e60828285617da0565b5f60209050601f831160018114617e91575f8415617e7f578287015190505b617e898582617e0e565b865550617ef0565b601f198416617e9f86617c92565b5f5b82811015617ec657848901518255600182019150602085019450602081019050617ea1565b86831015617ee35784890151617edf601f891682617df2565b8355505b6001600288020188555050505b505050505050565b5f617f028261734d565b9150617f0d8361734d565b9250828203905081811115617f2557617f2461782a565b5b92915050565b7f636f6c6c61746572616c2d6665652d746f6f2d6c6172676500000000000000005f82015250565b5f617f5f601883617593565b9150617f6a82617f2b565b602082019050919050565b5f6020820190508181035f830152617f8c81617f53565b9050919050565b7f647573742d73686172652d7a65726f00000000000000000000000000000000005f82015250565b5f617fc7600f83617593565b9150617fd282617f93565b602082019050919050565b5f6020820190508181035f830152617ff481617fbb565b9050919050565b5f60608201905061800e5f8301866172ea565b61801b6020830185617482565b61802860408301846174aa565b949350505050565b5f6040820190506180435f8301856172ea565b61805060208301846172ea565b9392505050565b5f60608201905061806a5f8301866172ea565b61807760208301856174aa565b6180846040830184617482565b949350505050565b7f6e6f2d6d696d2d6c6971756964697479000000000000000000000000000000005f82015250565b5f6180c0601083617593565b91506180cb8261808c565b602082019050919050565b5f6020820190508181035f8301526180ed816180b4565b9050919050565b5f6040820190506181075f8301856172ea565b61811460208301846174aa565b9392505050565b5f60a08201905061812e5f8301886172ea565b61813b60208301876172ea565b61814860408301866172ea565b6181556060830185617984565b61816260808301846174aa565b9695505050505050565b61817581617477565b811461817f575f5ffd5b50565b5f815190506181908161816c565b92915050565b5f602082840312156181ab576181aa61731b565b5b5f6181b884828501618182565b91505092915050565b7f636f6c6c61746572616c2d746f7075702d6661696c65640000000000000000005f82015250565b5f6181f5601783617593565b9150618200826181c1565b602082019050919050565b5f6020820190508181035f830152618222816181e9565b9050919050565b7f4e487b71000000000000000000000000000000000000000000000000000000005f52603260045260245ffd5b5f81519050919050565b5f82825260208201905092915050565b5f819050602082019050919050565b618288816172d9565b82525050565b5f618299838361827f565b60208301905092915050565b5f602082019050919050565b5f6182bb82618256565b6182c58185618260565b93506182d083618270565b805f5b838110156183005781516182e7888261828e565b97506182f2836182a5565b9250506001810190506182d3565b5085935050505092915050565b5f81519050919050565b5f82825260208201905092915050565b5f819050602082019050919050565b61833f8161734d565b82525050565b5f6183508383618336565b60208301905092915050565b5f602082019050919050565b5f6183728261830d565b61837c8185618317565b935061838783618327565b805f5b838110156183b757815161839e8882618345565b97506183a98361835c565b92505060018101905061838a565b5085935050505092915050565b5f60a0820190508181035f8301526183dc81886182b1565b905081810360208301526183f08187618368565b90506183ff60408301866172ea565b61840c60608301856172ea565b818103608083015261841e818461753b565b90509695505050505050565b5f81905092915050565b5f61843e82617503565b618448818561842a565b935061845881856020860161751d565b80840191505092915050565b5f61846f8284618434565b915081905092915050565b7f6c69717569646174696f6e2d6e6f742d626c6f636b65640000000000000000005f82015250565b5f6184ae601783617593565b91506184b98261847a565b602082019050919050565b5f6020820190508181035f8301526184db816184a2565b9050919050565b7f7472616e736665722d6661696c656400000000000000000000000000000000005f82015250565b5f618516600f83617593565b9150618521826184e2565b602082019050919050565b5f6020820190508181035f8301526185438161850a565b9050919050565b5f6185548261734d565b91507fffffffffffffffffffffffffffffffffffffffffffffffffffffffffffffffff82036185865761858561782a565b5b600182019050919050565b5f815461859d81617708565b6185a7818661750d565b9450600182165f81146185c157600181146185d757618609565b60ff198316865281151560200286019350618609565b6185e085617c92565b5f5b83811015618601578154818901526001820191506020810190506185e2565b808801955050505b50505092915050565b5f6020820190508181035f83015261862a8184618591565b905092915050565b5f5f604083850312156186485761864761731b565b5b5f61865585828601618182565b9250506020618666858286016177eb565b9150509250929050565b7f6261642d7a65726f2d6f7261636c6500000000000000000000000000000000005f82015250565b5f6186a4600f83617593565b91506186af82618670565b602082019050919050565b5f6020820190508181035f8301526186d181618698565b9050919050565b7f6d697373696e672d6d61737465720000000000000000000000000000000000005f82015250565b5f61870c600e83617593565b9150618717826186d8565b602082019050919050565b5f6020820190508181035f83015261873981618700565b9050919050565b5f67ffffffffffffffff82169050919050565b61875c81618740565b82525050565b5f60e0820190506187755f83018a6172ea565b61878260208301896172ea565b8181036040830152618794818861753b565b90506187a36060830187618753565b6187b060808301866174aa565b6187bd60a08301856174aa565b6187ca60c08301846174aa565b98975050505050505050565b5f6060820190506187e95f8301866172ea565b81810360208301526187fb818561753b565b905061880a6040830184617482565b949350505050565b7f636c6f6e652d6465706c6f792d6661696c6564000000000000000000000000005f82015250565b5f618846601383617593565b915061885182618812565b602082019050919050565b5f6020820190508181035f8301526188738161883a565b9050919050565b7f696e69742d7a65726f2d726174652d6d697373696e67000000000000000000005f82015250565b5f6188ae601683617593565b91506188b98261887a565b602082019050919050565b5f6020820190508181035f8301526188db816188a2565b9050919050565b5f6188ec8261734d565b91506188f78361734d565b92508282026189058161734d565b9150828204841483151761891c5761891b61782a565b5b5092915050565b5f67ffffffffffffffff82111561893d5761893c617b35565b5b6189468261752b565b9050602081019050919050565b5f61896561896084618923565b617b93565b90508281526020810184848401111561898157618980617b31565b5b61898c84828561751d565b509392505050565b5f82601f8301126189a8576189a7617380565b5b81516189b8848260208601618953565b91505092915050565b5f602082840312156189d6576189d561731b565b5b5f82015167ffffffffffffffff8111156189f3576189f261731f565b5b6189ff84828501618994565b91505092915050565b5f608082019050618a1b5f830187617984565b8181036020830152618a2d81866182b1565b9050618a3c60408301856172ea565b618a4960608301846174aa565b95945050505050565b5f67ffffffffffffffff821115618a6c57618a6b617b35565b5b602082029050602081019050919050565b5f618a8f618a8a84618a52565b617b93565b90508083825260208201905060208402830185811115618ab257618ab1617388565b5b835b81811015618adb5780618ac788826177eb565b845260208401935050602081019050618ab4565b5050509392505050565b5f82601f830112618af957618af8617380565b5b8151618b09848260208601618a7d565b91505092915050565b5f60208284031215618b2757618b2661731b565b5b5f82015167ffffffffffffffff811115618b4457618b4361731f565b5b618b5084828501618ae5565b91505092915050565b7f617070726f76652d6661696c65640000000000000000000000000000000000005f82015250565b5f618b8d600e83617593565b9150618b9882618b59565b602082019050919050565b5f6020820190508181035f830152618bba81618b81565b9050919050565b5f618bcb826172ba565b9050919050565b618bdb81618bc1565b8114618be5575f5ffd5b50565b5f81519050618bf681618bd2565b92915050565b5f60208284031215618c1157618c1061731b565b5b5f618c1e84828501618be8565b91505092915050565b5f6dffffffffffffffffffffffffffff82169050919050565b618c4981618c27565b8114618c53575f5ffd5b50565b5f81519050618c6481618c40565b92915050565b5f63ffffffff82169050919050565b618c8281618c6a565b8114618c8c575f5ffd5b50565b5f81519050618c9d81618c79565b92915050565b5f5f5f60608486031215618cba57618cb961731b565b5b5f618cc786828701618c56565b9350506020618cd886828701618c56565b9250506040618ce986828701618c8f565b9150509250925092565b7f4e487b71000000000000000000000000000000000000000000000000000000005f52601260045260245ffd5b5f618d2a8261734d565b9150618d358361734d565b925082618d4557618d44618cf3565b5b828204905092915050565b5f60a082019050618d635f8301886174aa565b618d7060208301876174aa565b8181036040830152618d8281866182b1565b9050618d9160608301856172ea565b618d9e60808301846174aa565b969550505050505056fe6080604052348015600e575f5ffd5b506101b18061001c5f395ff3fe608060405234801561000f575f5ffd5b5060043610610029575f3560e01c8063d6d7d5251461002d575b5f5ffd5b610047600480360381019061004291906100d7565b61005e565b604051610055929190610154565b60405180910390f35b5f5f600191505f90509250929050565b5f5ffd5b5f5ffd5b5f5ffd5b5f5ffd5b5f5ffd5b5f5f83601f84011261009757610096610076565b5b8235905067ffffffffffffffff8111156100b4576100b361007a565b5b6020830191508360018202830111156100d0576100cf61007e565b5b9250929050565b5f5f602083850312156100ed576100ec61006e565b5b5f83013567ffffffffffffffff81111561010a57610109610072565b5b61011685828601610082565b92509250509250929050565b5f8115159050919050565b61013681610122565b82525050565b5f819050919050565b61014e8161013c565b82525050565b5f6040820190506101675f83018561012d565b6101746020830184610145565b939250505056fea2646970667358221220cdb0fe89cffb226145f3732ef699aac70d5a291d4bb75b976d890023e1b9ec1264736f6c634300081e0033a264697066735822122095812b32269e5b461b24d0b86b7790c7ca97f87cfcf5806bb8fc481fbb0464b864736f6c634300081e0033","linkReferences":{}},"methodIdentifiers":{"DAI()":"e0bab4c4","MIM()":"daec383d","PROVIDED_TARGET()":"1018911e","SUSHI_ROUTER()":"0c24f4fa","TARGET_CAULDRON()":"bd7a598c","UNISWAP_V2_ROUTER()":"a82ed9ec","USDC()":"89a30271","USDT()":"c54e44eb","WETH()":"ad5c4648","activeCauldron()":"981c88f7","addCollateralStageReached()":"8469ff16","bentoBoxAddress()":"eb77ff0f","borrowStageReached()":"7c27e19f","borrowedMimAmount()":"e7cda06d","borrowedMimShare()":"6208fdd8","collateralDepositAmount()":"72ea4809","collateralLeaveShare()":"e2708ebb","collateralLpDetected()":"f9d3cc05","collateralLpToken0()":"dbe7b09f","collateralLpToken1()":"f1f361a4","collateralShareAdded()":"4071084d","collateralToken()":"b2016bd4","collateralTopUpAmount()":"a3bb46dd","collateralTopUpSpentMim()":"5bf39ab9","directOracleRate()":"6d02b5ca","directOracleSuccess()":"a8b81f55","execute()":"61461954","executeOnOpportunity()":"3c2448ed","exploit()":"63d9b770","feeBufferBought()":"d87bf97f","flashCollateralAmount()":"892d0bd2","flashCollateralFee()":"5a6e402b","flashMimAmount()":"e6687f05","flashMimFee()":"4af5e4e6","grossMimBalance()":"95458914","hypothesisRefuted()":"495f92f1","hypothesisValidated()":"463defd1","infeasibleReason()":"a6652157","liquidateStageReached()":"9348a238","liquidationBlocked()":"b7021f77","liveTargetCachedZero()":"b40d2e98","liveTargetInitPathOnly()":"cf30cf7b","liveTargetUpdateZeroWorked()":"ace5cb58","liveTargetZeroRateMissing()":"ea544593","liveUpdateRate()":"de02cfdf","liveUpdateReturnedUpdated()":"fcafc319","liveUpdateWorked()":"8f310cf0","mimLiquiditySeededShare()":"810c7a40","onFlashLoan(address,address,uint256,uint256,bytes)":"23e30c8b","oracleAddress()":"a89ae4ba","oracleDataBlob()":"e3fc037b","oracleStageReached()":"e8c28fee","path0LiveOracleZeroObserved()":"552fd94a","path1ZeroExchangeRateCached()":"62d2c266","path2DustCollateralAddedAndBorrowed()":"37fc9399","path3ResidualCollateralBlocksLiquidation()":"69ffcac6","postBorrowSolvent()":"d5b5a557","profitAmount()":"5ff972cc","profitToken()":"49343624","run()":"c0406226","selectedTarget()":"2edf00fb","updateRateStageReached()":"a539b246","usedLiveTarget()":"5a41b82a","usedValidationClone()":"2759f2f1","validationClone()":"370be116","zeroOracle()":"22cb9ca3"},"id":0}