{"abi":[{"type":"constructor","inputs":[],"stateMutability":"nonpayable"},{"type":"function","name":"TARGET","inputs":[],"outputs":[{"name":"","type":"address","internalType":"address"}],"stateMutability":"view"},{"type":"function","name":"TRACE_IMPLEMENTATION","inputs":[],"outputs":[{"name":"","type":"address","internalType":"address"}],"stateMutability":"view"},{"type":"function","name":"deployerHint","inputs":[],"outputs":[{"name":"","type":"address","internalType":"address"}],"stateMutability":"view"},{"type":"function","name":"drainAttempted","inputs":[],"outputs":[{"name":"","type":"bool","internalType":"bool"}],"stateMutability":"view"},{"type":"function","name":"drainedPool","inputs":[],"outputs":[{"name":"","type":"address","internalType":"address"}],"stateMutability":"view"},{"type":"function","name":"executeCalled","inputs":[],"outputs":[{"name":"","type":"bool","internalType":"bool"}],"stateMutability":"view"},{"type":"function","name":"executeOnOpportunity","inputs":[],"outputs":[],"stateMutability":"nonpayable"},{"type":"function","name":"failureCode","inputs":[],"outputs":[{"name":"","type":"uint8","internalType":"uint8"}],"stateMutability":"view"},{"type":"function","name":"getCurrentInterestRate","inputs":[{"name":"","type":"uint256","internalType":"uint256"},{"name":"","type":"uint256","internalType":"uint256"}],"outputs":[{"name":"","type":"uint256","internalType":"uint256"}],"stateMutability":"pure"},{"type":"function","name":"hostileInitSucceeded","inputs":[],"outputs":[{"name":"","type":"bool","internalType":"bool"}],"stateMutability":"view"},{"type":"function","name":"hypothesisValidated","inputs":[],"outputs":[{"name":"","type":"bool","internalType":"bool"}],"stateMutability":"view"},{"type":"function","name":"implementationNonceHint","inputs":[],"outputs":[{"name":"","type":"uint256","internalType":"uint256"}],"stateMutability":"view"},{"type":"function","name":"initializerLockedOut","inputs":[],"outputs":[{"name":"","type":"bool","internalType":"bool"}],"stateMutability":"view"},{"type":"function","name":"lateInitAttemptInterestRate","inputs":[],"outputs":[{"name":"","type":"address","internalType":"address"}],"stateMutability":"view"},{"type":"function","name":"lateInitializerAttempted","inputs":[],"outputs":[{"name":"","type":"bool","internalType":"bool"}],"stateMutability":"view"},{"type":"function","name":"lateInitializerRejected","inputs":[],"outputs":[{"name":"","type":"bool","internalType":"bool"}],"stateMutability":"view"},{"type":"function","name":"lockoutCausedByInitFlag","inputs":[],"outputs":[{"name":"","type":"bool","internalType":"bool"}],"stateMutability":"view"},{"type":"function","name":"path0_uninitializedWindow","inputs":[],"outputs":[{"name":"","type":"bool","internalType":"bool"}],"stateMutability":"view"},{"type":"function","name":"path1_hostileInitFirst","inputs":[],"outputs":[{"name":"","type":"bool","internalType":"bool"}],"stateMutability":"view"},{"type":"function","name":"path2_legitimateInitializerLockedOut","inputs":[],"outputs":[{"name":"","type":"bool","internalType":"bool"}],"stateMutability":"view"},{"type":"function","name":"path3_privilegedDrainOrMisconfig","inputs":[],"outputs":[{"name":"","type":"bool","internalType":"bool"}],"stateMutability":"view"},{"type":"function","name":"privilegeMutationAttempted","inputs":[],"outputs":[{"name":"","type":"bool","internalType":"bool"}],"stateMutability":"view"},{"type":"function","name":"privilegeMutationProved","inputs":[],"outputs":[{"name":"","type":"bool","internalType":"bool"}],"stateMutability":"view"},{"type":"function","name":"profitAchieved","inputs":[],"outputs":[{"name":"","type":"bool","internalType":"bool"}],"stateMutability":"view"},{"type":"function","name":"profitAmount","inputs":[],"outputs":[{"name":"","type":"uint256","internalType":"uint256"}],"stateMutability":"view"},{"type":"function","name":"profitToken","inputs":[],"outputs":[{"name":"","type":"address","internalType":"address"}],"stateMutability":"view"},{"type":"function","name":"scannedNonceCount","inputs":[],"outputs":[{"name":"","type":"uint256","internalType":"uint256"}],"stateMutability":"view"},{"type":"function","name":"seizeAttempted","inputs":[],"outputs":[{"name":"","type":"bool","internalType":"bool"}],"stateMutability":"view"},{"type":"function","name":"seized","inputs":[],"outputs":[{"name":"","type":"bool","internalType":"bool"}],"stateMutability":"view"},{"type":"function","name":"seizedPoolCount","inputs":[],"outputs":[{"name":"","type":"uint256","internalType":"uint256"}],"stateMutability":"view"},{"type":"function","name":"seizedPoolForProof","inputs":[],"outputs":[{"name":"","type":"address","internalType":"address"}],"stateMutability":"view"},{"type":"function","name":"selectedToken0","inputs":[],"outputs":[{"name":"","type":"address","internalType":"address"}],"stateMutability":"view"},{"type":"function","name":"selectedToken1","inputs":[],"outputs":[{"name":"","type":"address","internalType":"address"}],"stateMutability":"view"},{"type":"function","name":"targetNonceHint","inputs":[],"outputs":[{"name":"","type":"uint256","internalType":"uint256"}],"stateMutability":"view"}],"bytecode":{"object":"0x6080604052348015600e575f5ffd5b50613b0d8061001c5f395ff3fe608060405234801561000f575f5ffd5b5060043610610204575f3560e01c80635ff972cc11610118578063a54217d9116100ab578063b94b6e6c1161007a578063b94b6e6c1461056c578063cc1f2afa1461058a578063e7539a31146105a8578063eba04fa0146105c6578063f0a01176146105e457610204565b8063a54217d9146104f4578063a6c84c4f14610512578063b1de946314610530578063b24773761461054e57610204565b806376dfd472116100e757806376dfd4721461047c5780637818ff4a1461049a578063813ae720146104b85780638a16ea30146104d657610204565b80635ff972cc14610404578063601cb0fe1461042257806373ed3b5914610440578063752293bf1461045e57610204565b80632a6fc9831161019b578063493436241161016a578063493436241461035c5780634c8f48bb1461037a5780634e5bfee5146103aa578063509aa2df146103c857806357ae3162146103e657610204565b80632a6fc983146102f85780633c2448ed146103165780634561761a14610320578063463defd11461033e57610204565b80631e5519c8116101d75780631e5519c81461028057806321483c441461029e57806324a3dcc4146102bc57806325b89fb7146102da57610204565b80630d280111146102085780631663e4f1146102265780631895f035146102445780631dd07bae14610262575b5f5ffd5b610210610602565b60405161021d9190612b76565b60405180910390f35b61022e610608565b60405161023b9190612ba9565b60405180910390f35b61024c61061b565b6040516102599190612bdd565b60405180910390f35b61026a61062e565b6040516102779190612ba9565b60405180910390f35b610288610641565b6040516102959190612c35565b60405180910390f35b6102a6610666565b6040516102b39190612c35565b60405180910390f35b6102c461068b565b6040516102d19190612ba9565b60405180910390f35b6102e261069e565b6040516102ef9190612ba9565b60405180910390f35b6103006106b1565b60405161030d9190612c35565b60405180910390f35b61031e6106d6565b005b6103286107e8565b6040516103359190612ba9565b60405180910390f35b6103466107fb565b6040516103539190612ba9565b60405180910390f35b61036461080e565b6040516103719190612c35565b60405180910390f35b610394600480360381019061038f9190612c89565b610835565b6040516103a19190612b76565b60405180910390f35b6103b261083f565b6040516103bf9190612b76565b60405180910390f35b6103d0610845565b6040516103dd9190612c35565b60405180910390f35b6103ee61086a565b6040516103fb9190612b76565b60405180910390f35b61040c610870565b6040516104199190612b76565b60405180910390f35b61042a610879565b6040516104379190612ba9565b60405180910390f35b61044861088c565b6040516104559190612ba9565b60405180910390f35b61046661089f565b6040516104739190612ba9565b60405180910390f35b6104846108b2565b6040516104919190612ba9565b60405180910390f35b6104a26108c5565b6040516104af9190612ba9565b60405180910390f35b6104c06108d8565b6040516104cd9190612c35565b60405180910390f35b6104de6108fd565b6040516104eb9190612c35565b60405180910390f35b6104fc610915565b6040516105099190612b76565b60405180910390f35b61051a61091b565b6040516105279190612ba9565b60405180910390f35b61053861092e565b6040516105459190612ba9565b60405180910390f35b610556610940565b6040516105639190612ba9565b60405180910390f35b610574610951565b6040516105819190612c35565b60405180910390f35b610592610976565b60405161059f9190612c35565b60405180910390f35b6105b061098e565b6040516105bd9190612ba9565b60405180910390f35b6105ce6109a1565b6040516105db9190612ba9565b60405180910390f35b6105ec6109b4565b6040516105f99190612ba9565b60405180910390f35b60065481565b6002600f9054906101000a900460ff1681565b600260119054906101000a900460ff1681565b600260019054906101000a900460ff1681565b60035f9054906101000a900473ffffffffffffffffffffffffffffffffffffffff1681565b600a5f9054906101000a900473ffffffffffffffffffffffffffffffffffffffff1681565b600260049054906101000a900460ff1681565b600260039054906101000a900460ff1681565b60095f9054906101000a900473ffffffffffffffffffffffffffffffffffffffff1681565b600160025f6101000a81548160ff021916908315150217905550600260019054906101000a900460ff1661070d5761070c6109c7565b5b6002600e9054906101000a900460ff1661075c575f600260119054906101000a900460ff1660ff1603610757576001600260116101000a81548160ff021916908360ff1602179055505b6107e6565b600260049054906101000a900460ff1661077957610778610c0e565b5b6002600f9054906101000a900460ff166107c8575f600260119054906101000a900460ff1660ff16036107c3576003600260116101000a81548160ff021916908360ff1602179055505b6107e6565b600260089054906101000a900460ff166107e5576107e4610fba565b5b5b565b6002600e9054906101000a900460ff1681565b6002600c9054906101000a900460ff1681565b5f5f5f9054906101000a900473ffffffffffffffffffffffffffffffffffffffff16905090565b5f5f905092915050565b60055481565b60085f9054906101000a900473ffffffffffffffffffffffffffffffffffffffff1681565b60075481565b5f600154905090565b6002600d9054906101000a900460ff1681565b600260109054906101000a900460ff1681565b600260079054906101000a900460ff1681565b600260099054906101000a900460ff1681565b600260089054906101000a900460ff1681565b600b5f9054906101000a900473ffffffffffffffffffffffffffffffffffffffff1681565b73c86d2555f8c360d3c5e8e4364f42c1f2d169330e81565b60045481565b600260059054906101000a900460ff1681565b60025f9054906101000a900460ff1681565b60028054906101000a900460ff1681565b600c5f9054906101000a900473ffffffffffffffffffffffffffffffffffffffff1681565b734e34dd25dbd367b1bf82e1b5527dbbe799fad0d081565b6002600a9054906101000a900460ff1681565b600260069054906101000a900460ff1681565b6002600b9054906101000a900460ff1681565b6001600260016101000a81548160ff0219169083151502179055505f610a0073c86d2555f8c360d3c5e8e4364f42c1f2d169330e611346565b90508060035f6101000a81548173ffffffffffffffffffffffffffffffffffffffff021916908373ffffffffffffffffffffffffffffffffffffffff1602179055505f610a60734e34dd25dbd367b1bf82e1b5527dbbe799fad0d06113be565b90505f610a8073c86d2555f8c360d3c5e8e4364f42c1f2d169330e6113be565b90505f73ffffffffffffffffffffffffffffffffffffffff168373ffffffffffffffffffffffffffffffffffffffff1614610bcf575f600190505b6110008111610bcd57806006819055505f610ad685836113c8565b9050734e34dd25dbd367b1bf82e1b5527dbbe799fad0d073ffffffffffffffffffffffffffffffffffffffff168173ffffffffffffffffffffffffffffffffffffffff1603610b2757816004819055505b73c86d2555f8c360d3c5e8e4364f42c1f2d169330e73ffffffffffffffffffffffffffffffffffffffff168173ffffffffffffffffffffffffffffffffffffffff1603610b7657816005819055505b5f610b80826113be565b90505f5f1b8103610b92575050610bba565b848114158015610ba25750838114155b15610bae575050610bba565b610bb782611571565b50505b8080610bc590612cf4565b915050610abb565b505b610bec73c86d2555f8c360d3c5e8e4364f42c1f2d169330e611571565b610c09734e34dd25dbd367b1bf82e1b5527dbbe799fad0d0611571565b505050565b6001600260046101000a81548160ff0219169083151502179055505f73ffffffffffffffffffffffffffffffffffffffff16600d5f9054906101000a900473ffffffffffffffffffffffffffffffffffffffff1673ffffffffffffffffffffffffffffffffffffffff1603610ce357604051610c8990612b51565b604051809103905ff080158015610ca2573d5f5f3e3d5ffd5b50600d5f6101000a81548173ffffffffffffffffffffffffffffffffffffffff021916908373ffffffffffffffffffffffffffffffffffffffff1602179055505b5f73ffffffffffffffffffffffffffffffffffffffff1660085f9054906101000a900473ffffffffffffffffffffffffffffffffffffffff1673ffffffffffffffffffffffffffffffffffffffff160315610fb85730600c5f6101000a81548173ffffffffffffffffffffffffffffffffffffffff021916908373ffffffffffffffffffffffffffffffffffffffff1602179055505f5f600d5f9054906101000a900473ffffffffffffffffffffffffffffffffffffffff1673ffffffffffffffffffffffffffffffffffffffff16631828ea4460085f9054906101000a900473ffffffffffffffffffffffffffffffffffffffff16736b175474e89094c44da98b954eedeac495271d0f73dac17f958d2ee523a2206206994597c13d831ec7600c5f9054906101000a900473ffffffffffffffffffffffffffffffffffffffff1660018060016040518863ffffffff1660e01b8152600401610e4c9796959493929190612d7d565b5f604051808303815f875af1158015610e67573d5f5f3e3d5ffd5b505050506040513d5f823e3d601f19601f82011682018060405250810190610e8f9190612f50565b915091508115600260056101000a81548160ff021916908315150217905550600260059054906101000a900460ff168015610ecf5750610ece816118ec565b5b600260066101000a81548160ff021916908315150217905550600260059054906101000a900460ff168015610f105750600260069054906101000a900460ff165b8015610f425750610f4160085f9054906101000a900473ffffffffffffffffffffffffffffffffffffffff166119d2565b5b600260076101000a81548160ff021916908315150217905550600260079054906101000a900460ff166002600f6101000a81548160ff021916908315150217905550600260079054906101000a900460ff1615610fb55760016002600c6101000a81548160ff0219169083151502179055505b50505b565b6001600260086101000a81548160ff0219169083151502179055505f73ffffffffffffffffffffffffffffffffffffffff1660085f9054906101000a900473ffffffffffffffffffffffffffffffffffffffff1673ffffffffffffffffffffffffffffffffffffffff1603611064575f600260119054906101000a900460ff1660ff160361105f576004600260116101000a81548160ff021916908360ff1602179055505b611344565b61108e60085f9054906101000a900473ffffffffffffffffffffffffffffffffffffffff16611a11565b600260099054906101000a900460ff166110dd575f600260119054906101000a900460ff1660ff16036110d8576004600260116101000a81548160ff021916908360ff1602179055505b611344565b60016002600a6101000a81548160ff0219169083151502179055505f73ffffffffffffffffffffffffffffffffffffffff1660035f9054906101000a900473ffffffffffffffffffffffffffffffffffffffff1673ffffffffffffffffffffffffffffffffffffffff1614611227575f61116a734e34dd25dbd367b1bf82e1b5527dbbe799fad0d06113be565b90505f61118a73c86d2555f8c360d3c5e8e4364f42c1f2d169330e6113be565b90505f600190505b6006548111611223575f6111c760035f9054906101000a900473ffffffffffffffffffffffffffffffffffffffff16836113c8565b90506111d2816119d2565b6111dc5750611210565b5f6111e6826113be565b90508481141580156111f85750838114155b15611204575050611210565b61120d82611c21565b50505b808061121b90612cf4565b915050611192565b5050505b61124473c86d2555f8c360d3c5e8e4364f42c1f2d169330e611c21565b611261734e34dd25dbd367b1bf82e1b5527dbbe799fad0d0611c21565b5f60015411156112c15760016002600b6101000a81548160ff0219169083151502179055506001600260106101000a81548160ff02191690831515021790555060016002600c6101000a81548160ff021916908315150217905550611343565b600260099054906101000a900460ff1615611342576001600260106101000a81548160ff02191690831515021790555060016002600c6101000a81548160ff0219169083151502179055505f600260119054906101000a900460ff1660ff16036113415760028060116101000a81548160ff021916908360ff1602179055505b5b5b5b565b5f8173ffffffffffffffffffffffffffffffffffffffff1663f2f4eb266040518163ffffffff1660e01b8152600401602060405180830381865afa9250505080156113af57506040513d601f19601f820116820180604052508101906113ac9190612fd4565b60015b156113b957809150505b919050565b5f813f9050919050565b5f60605f830361140b5760d660f81b609460f81b85608060f81b6040516020016113f5949392919061308f565b604051602081830303815290604052905061155e565b607f831161144b5760d660f81b609460f81b858560f81b604051602001611435949392919061308f565b604051602081830303815290604052905061155d565b60ff83116114915760d760f81b609460f81b85608160f81b8660f81b60405160200161147b9594939291906130dc565b604051602081830303815290604052905061155c565b61ffff83116114d85760d860f81b609460f81b85608260f81b8660f01b6040516020016114c2959493929190613185565b604051602081830303815290604052905061155b565b62ffffff83116115205760d960f81b609460f81b85608360f81b8660e81b60405160200161150a95949392919061322e565b604051602081830303815290604052905061155a565b60da60f81b609460f81b85608460f81b8660e01b6040516020016115489594939291906132d7565b60405160208183030381529060405290505b5b5b5b5b80805190602001205f1c91505092915050565b5f73ffffffffffffffffffffffffffffffffffffffff168173ffffffffffffffffffffffffffffffffffffffff1614806115b057506115af816119d2565b5b6118e9575f5f6115bf83611e68565b915091505f5f8473ffffffffffffffffffffffffffffffffffffffff16627fdd4560e01b85853060645f5f6040516024016115ff96959493929190613335565b604051602081830303815290604052907bffffffffffffffffffffffffffffffffffffffffffffffffffffffff19166020820180517bffffffffffffffffffffffffffffffffffffffffffffffffffffffff838183161783525050505060405161166991906133d8565b5f604051808303815f865af19150503d805f81146116a2576040519150601f19603f3d011682016040523d82523d5f602084013e6116a7565b606091505b509150915081611702576116ba816118ec565b80156116d757505f600260119054906101000a900460ff1660ff16145b156116f9576001600260116101000a81548160ff021916908360ff1602179055505b505050506118e9565b61170b856119d2565b61171857505050506118e9565b611723858585612471565b61173057505050506118e9565b60016002806101000a81548160ff0219169083151502179055506001600260036101000a81548160ff02191690831515021790555060016002600d6101000a81548160ff02191690831515021790555060016002600e6101000a81548160ff02191690831515021790555060016002600c6101000a81548160ff021916908315150217905550600160075f8282546117c891906133ee565b925050819055505f73ffffffffffffffffffffffffffffffffffffffff1660085f9054906101000a900473ffffffffffffffffffffffffffffffffffffffff1673ffffffffffffffffffffffffffffffffffffffff16036118e4578460085f6101000a81548173ffffffffffffffffffffffffffffffffffffffff021916908373ffffffffffffffffffffffffffffffffffffffff16021790555083600a5f6101000a81548173ffffffffffffffffffffffffffffffffffffffff021916908373ffffffffffffffffffffffffffffffffffffffff16021790555082600b5f6101000a81548173ffffffffffffffffffffffffffffffffffffffff021916908373ffffffffffffffffffffffffffffffffffffffff1602179055505b505050505b50565b5f6044825110156118ff575f90506119cd565b5f602083015190506308c379a060e01b7bffffffffffffffffffffffffffffffffffffffffffffffffffffffff1916817bffffffffffffffffffffffffffffffffffffffffffffffffffffffff19161461195c575f9150506119cd565b5f6119688460046124f2565b90505f8180602001905181019061197f91906134bf565b90506040518060400160405280601c81526020017f556e696c656e6456323a20504f4f4c20414c524541445920494e4954000000008152508051906020012081805190602001201493505050505b919050565b5f3073ffffffffffffffffffffffffffffffffffffffff166119f383611346565b73ffffffffffffffffffffffffffffffffffffffff16149050919050565b8073ffffffffffffffffffffffffffffffffffffffff166373748381306040518263ffffffff1660e01b8152600401611a4a9190612c35565b5f604051808303815f87803b158015611a61575f5ffd5b505af1925050508015611a72575060015b15611bd2578073ffffffffffffffffffffffffffffffffffffffff1663aad2476d60016040518263ffffffff1660e01b8152600401611ab19190613506565b5f604051808303815f87803b158015611ac8575f5ffd5b505af1925050508015611ad9575060015b15611bd1578073ffffffffffffffffffffffffffffffffffffffff16633d101c1260016040518263ffffffff1660e01b8152600401611b189190613506565b5f604051808303815f87803b158015611b2f575f5ffd5b505af1925050508015611b40575060015b15611bd0578073ffffffffffffffffffffffffffffffffffffffff166307dc8ce360016040518263ffffffff1660e01b8152600401611b7f9190613506565b5f604051808303815f87803b158015611b96575f5ffd5b505af1925050508015611ba7575060015b15611bcf57611bb5816119d2565b600260096101000a81548160ff0219169083151502179055505b5b5b5b600260099054906101000a900460ff1615611c1e576001600260106101000a81548160ff02191690831515021790555060016002600c6101000a81548160ff0219169083151502179055505b50565b611c2a816119d2565b15611e65575f5f611c3a836125e8565b91509150611c4a838360016126d3565b611c5583825f6126d3565b611c738373c02aaa39b223fe8d0a0e5c4f27ead9083c756cc261281a565b611c918373a0b86991c6218b36c1d19d4a2e9eb0ce3606eb4861281a565b611caf8373dac17f958d2ee523a2206206994597c13d831ec761281a565b611ccd83736b175474e89094c44da98b954eedeac495271d0f61281a565b611ceb83732260fac5e5542a773aa44fbcfedf7c193bc2c59961281a565b611d098373cbb7c0000ab88b473b1f5afd9ef808440eed33bf61281a565b611d278373ae7ab96520de3a18e5e111b5eaab095312d7fe8461281a565b611d4583737f39c581f595b53c5cb5bedea0dffd6a935e2ca061281a565b611d6383735a98fcbea516cf06857215779fd812ca3bef1b3261281a565b611d818373514910771af9ca656af840dff83e8264ecf986ca61281a565b611d9f83731f9840a85d5af5bf1d1762f925bdaddc4201f98461281a565b611dbd83737fc66500c84a76ad7e9c93437bfc5ac33e2ddae961281a565b611ddb8373d533a949740bb3306d119cc777fa900ba034cd5261281a565b611df983739f8f72aa9304c8b593d555f12ef6589cc3a579a261281a565b611e178373c00e94cb662c3520282e6f5717214004a7f2688861281a565b5f6001541115611e62578260095f6101000a81548173ffffffffffffffffffffffffffffffffffffffff021916908373ffffffffffffffffffffffffffffffffffffffff1602179055505b50505b50565b5f5f5f604051806101e0016040528073c02aaa39b223fe8d0a0e5c4f27ead9083c756cc273ffffffffffffffffffffffffffffffffffffffff1673ffffffffffffffffffffffffffffffffffffffff16815260200173a0b86991c6218b36c1d19d4a2e9eb0ce3606eb4873ffffffffffffffffffffffffffffffffffffffff1673ffffffffffffffffffffffffffffffffffffffff16815260200173dac17f958d2ee523a2206206994597c13d831ec773ffffffffffffffffffffffffffffffffffffffff1673ffffffffffffffffffffffffffffffffffffffff168152602001736b175474e89094c44da98b954eedeac495271d0f73ffffffffffffffffffffffffffffffffffffffff1673ffffffffffffffffffffffffffffffffffffffff168152602001732260fac5e5542a773aa44fbcfedf7c193bc2c59973ffffffffffffffffffffffffffffffffffffffff1673ffffffffffffffffffffffffffffffffffffffff16815260200173cbb7c0000ab88b473b1f5afd9ef808440eed33bf73ffffffffffffffffffffffffffffffffffffffff1673ffffffffffffffffffffffffffffffffffffffff16815260200173ae7ab96520de3a18e5e111b5eaab095312d7fe8473ffffffffffffffffffffffffffffffffffffffff1673ffffffffffffffffffffffffffffffffffffffff168152602001737f39c581f595b53c5cb5bedea0dffd6a935e2ca073ffffffffffffffffffffffffffffffffffffffff1673ffffffffffffffffffffffffffffffffffffffff168152602001735a98fcbea516cf06857215779fd812ca3bef1b3273ffffffffffffffffffffffffffffffffffffffff1673ffffffffffffffffffffffffffffffffffffffff16815260200173514910771af9ca656af840dff83e8264ecf986ca73ffffffffffffffffffffffffffffffffffffffff1673ffffffffffffffffffffffffffffffffffffffff168152602001731f9840a85d5af5bf1d1762f925bdaddc4201f98473ffffffffffffffffffffffffffffffffffffffff1673ffffffffffffffffffffffffffffffffffffffff168152602001737fc66500c84a76ad7e9c93437bfc5ac33e2ddae973ffffffffffffffffffffffffffffffffffffffff1673ffffffffffffffffffffffffffffffffffffffff16815260200173d533a949740bb3306d119cc777fa900ba034cd5273ffffffffffffffffffffffffffffffffffffffff1673ffffffffffffffffffffffffffffffffffffffff168152602001739f8f72aa9304c8b593d555f12ef6589cc3a579a273ffffffffffffffffffffffffffffffffffffffff1673ffffffffffffffffffffffffffffffffffffffff16815260200173c00e94cb662c3520282e6f5717214004a7f2688873ffffffffffffffffffffffffffffffffffffffff1673ffffffffffffffffffffffffffffffffffffffff1681525090505f5f5f5f90505b600f811015612339575f8482600f81106122b5576122b461351f565b5b602002015190505f6122c7828a61291d565b9050848111156122e25784935087965080945081975061232a565b8773ffffffffffffffffffffffffffffffffffffffff168273ffffffffffffffffffffffffffffffffffffffff161415801561231d57508381115b15612329578093508196505b5b50508080600101915050612298565b505f73ffffffffffffffffffffffffffffffffffffffff168573ffffffffffffffffffffffffffffffffffffffff16036123855773c02aaa39b223fe8d0a0e5c4f27ead9083c756cc294505b5f73ffffffffffffffffffffffffffffffffffffffff168473ffffffffffffffffffffffffffffffffffffffff1614806123ea57508473ffffffffffffffffffffffffffffffffffffffff168473ffffffffffffffffffffffffffffffffffffffff16145b156124695773c02aaa39b223fe8d0a0e5c4f27ead9083c756cc273ffffffffffffffffffffffffffffffffffffffff168573ffffffffffffffffffffffffffffffffffffffff16146124505773c02aaa39b223fe8d0a0e5c4f27ead9083c756cc2612466565b73a0b86991c6218b36c1d19d4a2e9eb0ce3606eb485b93505b505050915091565b5f5f5f61247d866125e8565b915091508473ffffffffffffffffffffffffffffffffffffffff168273ffffffffffffffffffffffffffffffffffffffff161480156124e757508373ffffffffffffffffffffffffffffffffffffffff168173ffffffffffffffffffffffffffffffffffffffff16145b925050509392505050565b6060818351106125e2575f82845161250a919061354c565b90508067ffffffffffffffff81111561252657612525612e2c565b5b6040519080825280601f01601f1916602001820160405280156125585781602001600182028036833780820191505090505b5091505f5f90505b818110156125df5784818561257591906133ee565b815181106125865761258561351f565b5b602001015160f81c60f81b8382815181106125a4576125a361351f565b5b60200101907effffffffffffffffffffffffffffffffffffffffffffffffffffffffffffff191690815f1a9053508080600101915050612560565b50505b92915050565b5f5f8273ffffffffffffffffffffffffffffffffffffffff16630dfe16816040518163ffffffff1660e01b8152600401602060405180830381865afa92505050801561265257506040513d601f19601f8201168201806040525081019061264f9190612fd4565b60015b1561265c57809250505b8273ffffffffffffffffffffffffffffffffffffffff1663d21220a76040518163ffffffff1660e01b8152600401602060405180830381865afa9250505080156126c457506040513d601f19601f820116820180604052508101906126c19190612fd4565b60015b156126ce57809150505b915091565b5f73ffffffffffffffffffffffffffffffffffffffff168273ffffffffffffffffffffffffffffffffffffffff160315612815575f612712838561291d565b90505f81148061274157507f7fffffffffffffffffffffffffffffffffffffffffffffffffffffffffffffff81115b1561274c5750612815565b5f612757843061291d565b90505f836127655782612770565b8261276f90613588565b5b90508573ffffffffffffffffffffffffffffffffffffffff16638c3b690d30836040518363ffffffff1660e01b81526004016127ad9291906135dd565b5f604051808303815f87803b1580156127c4575f5ffd5b505af19250505080156127d5575060015b15612811575f6127e5863061291d565b90505f8382116127f5575f612802565b8382612801919061354c565b5b905061280e8782612a2f565b50505b5050505b505050565b5f73ffffffffffffffffffffffffffffffffffffffff168173ffffffffffffffffffffffffffffffffffffffff160315612919575f612859828461291d565b90505f81036128685750612919565b5f612873833061291d565b90508373ffffffffffffffffffffffffffffffffffffffff1663bfde2d523085856040518463ffffffff1660e01b81526004016128b293929190613604565b5f604051808303815f87803b1580156128c9575f5ffd5b505af19250505080156128da575060015b15612916575f6128ea843061291d565b90505f8282116128fa575f612907565b8282612906919061354c565b5b90506129138582612a2f565b50505b50505b5050565b5f5f5f8473ffffffffffffffffffffffffffffffffffffffff166370a0823160e01b856040516024016129509190612c35565b604051602081830303815290604052907bffffffffffffffffffffffffffffffffffffffffffffffffffffffff19166020820180517bffffffffffffffffffffffffffffffffffffffffffffffffffffffff83818316178352505050506040516129ba91906133d8565b5f60405180830381855afa9150503d805f81146129f2576040519150601f19603f3d011682016040523d82523d5f602084013e6129f7565b606091505b5091509150818015612a0b57506020815110155b15612a275780806020019051810190612a24919061364d565b92505b505092915050565b5f810315612b4d575f60015403612a8b57815f5f6101000a81548173ffffffffffffffffffffffffffffffffffffffff021916908373ffffffffffffffffffffffffffffffffffffffff16021790555080600181905550612b4d565b5f5f9054906101000a900473ffffffffffffffffffffffffffffffffffffffff1673ffffffffffffffffffffffffffffffffffffffff168273ffffffffffffffffffffffffffffffffffffffff1603612afb578060015f828254612aef91906133ee565b92505081905550612b4d565b600154811115612b4c57815f5f6101000a81548173ffffffffffffffffffffffffffffffffffffffff021916908373ffffffffffffffffffffffffffffffffffffffff160217905550806001819055505b5b5050565b61045f8061367983390190565b5f819050919050565b612b7081612b5e565b82525050565b5f602082019050612b895f830184612b67565b92915050565b5f8115159050919050565b612ba381612b8f565b82525050565b5f602082019050612bbc5f830184612b9a565b92915050565b5f60ff82169050919050565b612bd781612bc2565b82525050565b5f602082019050612bf05f830184612bce565b92915050565b5f73ffffffffffffffffffffffffffffffffffffffff82169050919050565b5f612c1f82612bf6565b9050919050565b612c2f81612c15565b82525050565b5f602082019050612c485f830184612c26565b92915050565b5f604051905090565b5f5ffd5b5f5ffd5b612c6881612b5e565b8114612c72575f5ffd5b50565b5f81359050612c8381612c5f565b92915050565b5f5f60408385031215612c9f57612c9e612c57565b5b5f612cac85828601612c75565b9250506020612cbd85828601612c75565b9150509250929050565b7f4e487b71000000000000000000000000000000000000000000000000000000005f52601160045260245ffd5b5f612cfe82612b5e565b91507fffffffffffffffffffffffffffffffffffffffffffffffffffffffffffffffff8203612d3057612d2f612cc7565b5b600182019050919050565b5f819050919050565b5f819050919050565b5f612d67612d62612d5d84612d3b565b612d44565b612bc2565b9050919050565b612d7781612d4d565b82525050565b5f60e082019050612d905f83018a612c26565b612d9d6020830189612c26565b612daa6040830188612c26565b612db76060830187612c26565b612dc46080830186612d6e565b612dd160a0830185612d6e565b612dde60c0830184612d6e565b98975050505050505050565b612df381612b8f565b8114612dfd575f5ffd5b50565b5f81519050612e0e81612dea565b92915050565b5f5ffd5b5f5ffd5b5f601f19601f8301169050919050565b7f4e487b71000000000000000000000000000000000000000000000000000000005f52604160045260245ffd5b612e6282612e1c565b810181811067ffffffffffffffff82111715612e8157612e80612e2c565b5b80604052505050565b5f612e93612c4e565b9050612e9f8282612e59565b919050565b5f67ffffffffffffffff821115612ebe57612ebd612e2c565b5b612ec782612e1c565b9050602081019050919050565b8281835e5f83830152505050565b5f612ef4612eef84612ea4565b612e8a565b905082815260208101848484011115612f1057612f0f612e18565b5b612f1b848285612ed4565b509392505050565b5f82601f830112612f3757612f36612e14565b5b8151612f47848260208601612ee2565b91505092915050565b5f5f60408385031215612f6657612f65612c57565b5b5f612f7385828601612e00565b925050602083015167ffffffffffffffff811115612f9457612f93612c5b565b5b612fa085828601612f23565b9150509250929050565b612fb381612c15565b8114612fbd575f5ffd5b50565b5f81519050612fce81612faa565b92915050565b5f60208284031215612fe957612fe8612c57565b5b5f612ff684828501612fc0565b91505092915050565b5f7fff0000000000000000000000000000000000000000000000000000000000000082169050919050565b5f819050919050565b61304461303f82612fff565b61302a565b82525050565b5f8160601b9050919050565b5f6130608261304a565b9050919050565b5f61307182613056565b9050919050565b61308961308482612c15565b613067565b82525050565b5f61309a8287613033565b6001820191506130aa8286613033565b6001820191506130ba8285613078565b6014820191506130ca8284613033565b60018201915081905095945050505050565b5f6130e78288613033565b6001820191506130f78287613033565b6001820191506131078286613078565b6014820191506131178285613033565b6001820191506131278284613033565b6001820191508190509695505050505050565b5f7fffff00000000000000000000000000000000000000000000000000000000000082169050919050565b5f819050919050565b61317f61317a8261313a565b613165565b82525050565b5f6131908288613033565b6001820191506131a08287613033565b6001820191506131b08286613078565b6014820191506131c08285613033565b6001820191506131d0828461316e565b6002820191508190509695505050505050565b5f7fffffff000000000000000000000000000000000000000000000000000000000082169050919050565b5f819050919050565b613228613223826131e3565b61320e565b82525050565b5f6132398288613033565b6001820191506132498287613033565b6001820191506132598286613078565b6014820191506132698285613033565b6001820191506132798284613217565b6003820191508190509695505050505050565b5f7fffffffff0000000000000000000000000000000000000000000000000000000082169050919050565b5f819050919050565b6132d16132cc8261328c565b6132b7565b82525050565b5f6132e28288613033565b6001820191506132f28287613033565b6001820191506133028286613078565b6014820191506133128285613033565b60018201915061332282846132c0565b6004820191508190509695505050505050565b5f60c0820190506133485f830189612c26565b6133556020830188612c26565b6133626040830187612c26565b61336f6060830186612bce565b61337c6080830185612bce565b61338960a0830184612bce565b979650505050505050565b5f81519050919050565b5f81905092915050565b5f6133b282613394565b6133bc818561339e565b93506133cc818560208601612ed4565b80840191505092915050565b5f6133e382846133a8565b915081905092915050565b5f6133f882612b5e565b915061340383612b5e565b925082820190508082111561341b5761341a612cc7565b5b92915050565b5f67ffffffffffffffff82111561343b5761343a612e2c565b5b61344482612e1c565b9050602081019050919050565b5f61346361345e84613421565b612e8a565b90508281526020810184848401111561347f5761347e612e18565b5b61348a848285612ed4565b509392505050565b5f82601f8301126134a6576134a5612e14565b5b81516134b6848260208601613451565b91505092915050565b5f602082840312156134d4576134d3612c57565b5b5f82015167ffffffffffffffff8111156134f1576134f0612c5b565b5b6134fd84828501613492565b91505092915050565b5f6020820190506135195f830184612d6e565b92915050565b7f4e487b71000000000000000000000000000000000000000000000000000000005f52603260045260245ffd5b5f61355682612b5e565b915061356183612b5e565b925082820390508181111561357957613578612cc7565b5b92915050565b5f819050919050565b5f6135928261357f565b91507f800000000000000000000000000000000000000000000000000000000000000082036135c4576135c3612cc7565b5b815f039050919050565b6135d78161357f565b82525050565b5f6040820190506135f05f830185612c26565b6135fd60208301846135ce565b9392505050565b5f6060820190506136175f830186612c26565b6136246020830185612c26565b6136316040830184612b67565b949350505050565b5f8151905061364781612c5f565b92915050565b5f6020828403121561366257613661612c57565b5b5f61366f84828501613639565b9150509291505056fe6080604052348015600e575f5ffd5b506104438061001c5f395ff3fe608060405234801561000f575f5ffd5b5060043610610029575f3560e01c80631828ea441461002d575b5f5ffd5b610047600480360381019061004291906101eb565b61005e565b604051610055929190610312565b60405180910390f35b5f60608873ffffffffffffffffffffffffffffffffffffffff16627fdd4560e01b89898989898960405160240161009a9695949392919061035e565b604051602081830303815290604052907bffffffffffffffffffffffffffffffffffffffffffffffffffffffff19166020820180517bffffffffffffffffffffffffffffffffffffffffffffffffffffffff838183161783525050505060405161010491906103f7565b5f604051808303815f865af19150503d805f811461013d576040519150601f19603f3d011682016040523d82523d5f602084013e610142565b606091505b50809250819350505097509795505050505050565b5f5ffd5b5f73ffffffffffffffffffffffffffffffffffffffff82169050919050565b5f6101848261015b565b9050919050565b6101948161017a565b811461019e575f5ffd5b50565b5f813590506101af8161018b565b92915050565b5f60ff82169050919050565b6101ca816101b5565b81146101d4575f5ffd5b50565b5f813590506101e5816101c1565b92915050565b5f5f5f5f5f5f5f60e0888a03121561020657610205610157565b5b5f6102138a828b016101a1565b97505060206102248a828b016101a1565b96505060406102358a828b016101a1565b95505060606102468a828b016101a1565b94505060806102578a828b016101d7565b93505060a06102688a828b016101d7565b92505060c06102798a828b016101d7565b91505092959891949750929550565b5f8115159050919050565b61029c81610288565b82525050565b5f81519050919050565b5f82825260208201905092915050565b8281835e5f83830152505050565b5f601f19601f8301169050919050565b5f6102e4826102a2565b6102ee81856102ac565b93506102fe8185602086016102bc565b610307816102ca565b840191505092915050565b5f6040820190506103255f830185610293565b818103602083015261033781846102da565b90509392505050565b6103498161017a565b82525050565b610358816101b5565b82525050565b5f60c0820190506103715f830189610340565b61037e6020830188610340565b61038b6040830187610340565b610398606083018661034f565b6103a5608083018561034f565b6103b260a083018461034f565b979650505050505050565b5f81905092915050565b5f6103d1826102a2565b6103db81856103bd565b93506103eb8185602086016102bc565b80840191505092915050565b5f61040282846103c7565b91508190509291505056fea26469706673582212202dab68fd276911c7ee5df9a2c2c61d6de9117405c5175b48c2a07f87d88672d364736f6c634300081e0033a2646970667358221220738143bf077996efcc7f3367e0704d41c1ed643b1d02260d0b107711f0f52d5864736f6c634300081e0033","linkReferences":{}},"methodIdentifiers":{"TARGET()":"cc1f2afa","TRACE_IMPLEMENTATION()":"8a16ea30","deployerHint()":"1e5519c8","drainAttempted()":"e7539a31","drainedPool()":"2a6fc983","executeCalled()":"b1de9463","executeOnOpportunity()":"3c2448ed","failureCode()":"1895f035","getCurrentInterestRate(uint256,uint256)":"4c8f48bb","hostileInitSucceeded()":"25b89fb7","hypothesisValidated()":"463defd1","implementationNonceHint()":"4e5bfee5","initializerLockedOut()":"752293bf","lateInitAttemptInterestRate()":"b94b6e6c","lateInitializerAttempted()":"24a3dcc4","lateInitializerRejected()":"a6c84c4f","lockoutCausedByInitFlag()":"eba04fa0","path0_uninitializedWindow()":"601cb0fe","path1_hostileInitFirst()":"4561761a","path2_legitimateInitializerLockedOut()":"1663e4f1","path3_privilegedDrainOrMisconfig()":"73ed3b59","privilegeMutationAttempted()":"7818ff4a","privilegeMutationProved()":"76dfd472","profitAchieved()":"f0a01176","profitAmount()":"5ff972cc","profitToken()":"49343624","scannedNonceCount()":"0d280111","seizeAttempted()":"1dd07bae","seized()":"b2477376","seizedPoolCount()":"57ae3162","seizedPoolForProof()":"509aa2df","selectedToken0()":"21483c44","selectedToken1()":"813ae720","targetNonceHint()":"a54217d9"},"id":0}