{"abi":[{"type":"function","name":"core","inputs":[],"outputs":[{"name":"","type":"address","internalType":"address payable"}],"stateMutability":"view"},{"type":"function","name":"token0","inputs":[],"outputs":[{"name":"","type":"address","internalType":"address"}],"stateMutability":"view"},{"type":"function","name":"token1","inputs":[],"outputs":[{"name":"","type":"address","internalType":"address"}],"stateMutability":"view"}],"bytecode":{"object":"0x6080604052348015600e575f5ffd5b506101d28061001c5f395ff3fe608060405234801561000f575f5ffd5b506004361061003f575f3560e01c80630dfe168114610043578063d21220a714610061578063f2f4eb261461007f575b5f5ffd5b61004b61009d565b604051610058919061014a565b60405180910390f35b6100696100c1565b604051610076919061014a565b60405180910390f35b6100876100e6565b6040516100949190610183565b60405180910390f35b5f5f9054906101000a900473ffffffffffffffffffffffffffffffffffffffff1681565b60015f9054906101000a900473ffffffffffffffffffffffffffffffffffffffff1681565b60025f9054906101000a900473ffffffffffffffffffffffffffffffffffffffff1681565b5f73ffffffffffffffffffffffffffffffffffffffff82169050919050565b5f6101348261010b565b9050919050565b6101448161012a565b82525050565b5f60208201905061015d5f83018461013b565b92915050565b5f61016d8261010b565b9050919050565b61017d81610163565b82525050565b5f6020820190506101965f830184610174565b9291505056fea2646970667358221220559a2c608ae5d50ca11706300d79184b29ec119d92319e1b89548cd328deef1364736f6c634300081e0033","linkReferences":{}},"methodIdentifiers":{"core()":"f2f4eb26","token0()":"0dfe1681","token1()":"d21220a7"},"id":6}