{"abi":[{"type":"constructor","inputs":[{"name":"startFeeBps","type":"uint256","internalType":"uint256"},{"name":"initialOwner","type":"address","internalType":"address"},{"name":"alkimiyaTreasury","type":"address","internalType":"address"},{"name":"gracePeriod","type":"uint256","internalType":"uint256"},{"name":"maxBountyFrac","type":"uint256","internalType":"uint256"},{"name":"bountyIncreasePerSecond","type":"uint256","internalType":"uint256"}],"stateMutability":"nonpayable"},{"type":"function","name":"INVERSE_BASIS_POINT","inputs":[],"outputs":[{"name":"","type":"uint256","internalType":"uint256"}],"stateMutability":"view"},{"type":"function","name":"MAX_FILL_FEE_BPS","inputs":[],"outputs":[{"name":"","type":"uint256","internalType":"uint256"}],"stateMutability":"view"},{"type":"function","name":"TOKENID_SALT","inputs":[],"outputs":[{"name":"","type":"bytes32","internalType":"bytes32"}],"stateMutability":"view"},{"type":"function","name":"acceptOwnership","inputs":[],"outputs":[],"stateMutability":"nonpayable"},{"type":"function","name":"balanceOf","inputs":[{"name":"account","type":"address","internalType":"address"},{"name":"id","type":"uint256","internalType":"uint256"}],"outputs":[{"name":"","type":"uint256","internalType":"uint256"}],"stateMutability":"view"},{"type":"function","name":"balanceOfBatch","inputs":[{"name":"accounts","type":"address[]","internalType":"address[]"},{"name":"ids","type":"uint256[]","internalType":"uint256[]"}],"outputs":[{"name":"","type":"uint256[]","internalType":"uint256[]"}],"stateMutability":"view"},{"type":"function","name":"bountyFractionIncreasePerSecond","inputs":[],"outputs":[{"name":"","type":"uint256","internalType":"uint256"}],"stateMutability":"view"},{"type":"function","name":"bountyGracePeriod","inputs":[],"outputs":[{"name":"","type":"uint256","internalType":"uint256"}],"stateMutability":"view"},{"type":"function","name":"cancelOrders","inputs":[{"name":"orders","type":"tuple[]","internalType":"struct ISilicaPools.SilicaOrder[]","components":[{"name":"maker","type":"address","internalType":"address"},{"name":"taker","type":"address","internalType":"address"},{"name":"expiry","type":"uint48","internalType":"uint48"},{"name":"offeredUpfrontToken","type":"address","internalType":"address"},{"name":"offeredUpfrontAmount","type":"uint128","internalType":"uint128"},{"name":"offeredLongSharesParams","type":"tuple","internalType":"struct ISilicaPools.PoolParams","components":[{"name":"floor","type":"uint128","internalType":"uint128"},{"name":"cap","type":"uint128","internalType":"uint128"},{"name":"index","type":"address","internalType":"address"},{"name":"targetStartTimestamp","type":"uint48","internalType":"uint48"},{"name":"targetEndTimestamp","type":"uint48","internalType":"uint48"},{"name":"payoutToken","type":"address","internalType":"address"}]},{"name":"offeredLongShares","type":"uint128","internalType":"uint128"},{"name":"requestedUpfrontToken","type":"address","internalType":"address"},{"name":"requestedUpfrontAmount","type":"uint128","internalType":"uint128"},{"name":"requestedLongSharesParams","type":"tuple","internalType":"struct ISilicaPools.PoolParams","components":[{"name":"floor","type":"uint128","internalType":"uint128"},{"name":"cap","type":"uint128","internalType":"uint128"},{"name":"index","type":"address","internalType":"address"},{"name":"targetStartTimestamp","type":"uint48","internalType":"uint48"},{"name":"targetEndTimestamp","type":"uint48","internalType":"uint48"},{"name":"payoutToken","type":"address","internalType":"address"}]},{"name":"requestedLongShares","type":"uint128","internalType":"uint128"}]}],"outputs":[],"stateMutability":"nonpayable"},{"type":"function","name":"collateralRefund","inputs":[{"name":"poolParams","type":"tuple[]","internalType":"struct ISilicaPools.PoolParams[]","components":[{"name":"floor","type":"uint128","internalType":"uint128"},{"name":"cap","type":"uint128","internalType":"uint128"},{"name":"index","type":"address","internalType":"address"},{"name":"targetStartTimestamp","type":"uint48","internalType":"uint48"},{"name":"targetEndTimestamp","type":"uint48","internalType":"uint48"},{"name":"payoutToken","type":"address","internalType":"address"}]},{"name":"shares","type":"uint256[]","internalType":"uint256[]"}],"outputs":[],"stateMutability":"nonpayable"},{"type":"function","name":"collateralizedMint","inputs":[{"name":"poolParams","type":"tuple","internalType":"struct ISilicaPools.PoolParams","components":[{"name":"floor","type":"uint128","internalType":"uint128"},{"name":"cap","type":"uint128","internalType":"uint128"},{"name":"index","type":"address","internalType":"address"},{"name":"targetStartTimestamp","type":"uint48","internalType":"uint48"},{"name":"targetEndTimestamp","type":"uint48","internalType":"uint48"},{"name":"payoutToken","type":"address","internalType":"address"}]},{"name":"orderHash","type":"bytes32","internalType":"bytes32"},{"name":"shares","type":"uint256","internalType":"uint256"},{"name":"longRecipient","type":"address","internalType":"address"},{"name":"shortRecipient","type":"address","internalType":"address"}],"outputs":[],"stateMutability":"nonpayable"},{"type":"function","name":"domainSeparatorV4","inputs":[],"outputs":[{"name":"","type":"bytes32","internalType":"bytes32"}],"stateMutability":"view"},{"type":"function","name":"eip712Domain","inputs":[],"outputs":[{"name":"fields","type":"bytes1","internalType":"bytes1"},{"name":"name","type":"string","internalType":"string"},{"name":"version","type":"string","internalType":"string"},{"name":"chainId","type":"uint256","internalType":"uint256"},{"name":"verifyingContract","type":"address","internalType":"address"},{"name":"salt","type":"bytes32","internalType":"bytes32"},{"name":"extensions","type":"uint256[]","internalType":"uint256[]"}],"stateMutability":"view"},{"type":"function","name":"endBounty","inputs":[{"name":"poolParams","type":"tuple[]","internalType":"struct ISilicaPools.PoolParams[]","components":[{"name":"floor","type":"uint128","internalType":"uint128"},{"name":"cap","type":"uint128","internalType":"uint128"},{"name":"index","type":"address","internalType":"address"},{"name":"targetStartTimestamp","type":"uint48","internalType":"uint48"},{"name":"targetEndTimestamp","type":"uint48","internalType":"uint48"},{"name":"payoutToken","type":"address","internalType":"address"}]}],"outputs":[{"name":"","type":"uint256[]","internalType":"uint256[]"}],"stateMutability":"view"},{"type":"function","name":"endPool","inputs":[{"name":"poolParams","type":"tuple","internalType":"struct ISilicaPools.PoolParams","components":[{"name":"floor","type":"uint128","internalType":"uint128"},{"name":"cap","type":"uint128","internalType":"uint128"},{"name":"index","type":"address","internalType":"address"},{"name":"targetStartTimestamp","type":"uint48","internalType":"uint48"},{"name":"targetEndTimestamp","type":"uint48","internalType":"uint48"},{"name":"payoutToken","type":"address","internalType":"address"}]}],"outputs":[],"stateMutability":"nonpayable"},{"type":"function","name":"endPools","inputs":[{"name":"poolParams","type":"tuple[]","internalType":"struct ISilicaPools.PoolParams[]","components":[{"name":"floor","type":"uint128","internalType":"uint128"},{"name":"cap","type":"uint128","internalType":"uint128"},{"name":"index","type":"address","internalType":"address"},{"name":"targetStartTimestamp","type":"uint48","internalType":"uint48"},{"name":"targetEndTimestamp","type":"uint48","internalType":"uint48"},{"name":"payoutToken","type":"address","internalType":"address"}]}],"outputs":[],"stateMutability":"nonpayable"},{"type":"function","name":"fillFeeBps","inputs":[],"outputs":[{"name":"","type":"uint256","internalType":"uint256"}],"stateMutability":"view"},{"type":"function","name":"fillOrder","inputs":[{"name":"order","type":"tuple","internalType":"struct ISilicaPools.SilicaOrder","components":[{"name":"maker","type":"address","internalType":"address"},{"name":"taker","type":"address","internalType":"address"},{"name":"expiry","type":"uint48","internalType":"uint48"},{"name":"offeredUpfrontToken","type":"address","internalType":"address"},{"name":"offeredUpfrontAmount","type":"uint128","internalType":"uint128"},{"name":"offeredLongSharesParams","type":"tuple","internalType":"struct ISilicaPools.PoolParams","components":[{"name":"floor","type":"uint128","internalType":"uint128"},{"name":"cap","type":"uint128","internalType":"uint128"},{"name":"index","type":"address","internalType":"address"},{"name":"targetStartTimestamp","type":"uint48","internalType":"uint48"},{"name":"targetEndTimestamp","type":"uint48","internalType":"uint48"},{"name":"payoutToken","type":"address","internalType":"address"}]},{"name":"offeredLongShares","type":"uint128","internalType":"uint128"},{"name":"requestedUpfrontToken","type":"address","internalType":"address"},{"name":"requestedUpfrontAmount","type":"uint128","internalType":"uint128"},{"name":"requestedLongSharesParams","type":"tuple","internalType":"struct ISilicaPools.PoolParams","components":[{"name":"floor","type":"uint128","internalType":"uint128"},{"name":"cap","type":"uint128","internalType":"uint128"},{"name":"index","type":"address","internalType":"address"},{"name":"targetStartTimestamp","type":"uint48","internalType":"uint48"},{"name":"targetEndTimestamp","type":"uint48","internalType":"uint48"},{"name":"payoutToken","type":"address","internalType":"address"}]},{"name":"requestedLongShares","type":"uint128","internalType":"uint128"}]},{"name":"signature","type":"bytes","internalType":"bytes"},{"name":"fraction","type":"uint256","internalType":"uint256"}],"outputs":[],"stateMutability":"nonpayable"},{"type":"function","name":"fillOrders","inputs":[{"name":"orders","type":"tuple[]","internalType":"struct ISilicaPools.SilicaOrder[]","components":[{"name":"maker","type":"address","internalType":"address"},{"name":"taker","type":"address","internalType":"address"},{"name":"expiry","type":"uint48","internalType":"uint48"},{"name":"offeredUpfrontToken","type":"address","internalType":"address"},{"name":"offeredUpfrontAmount","type":"uint128","internalType":"uint128"},{"name":"offeredLongSharesParams","type":"tuple","internalType":"struct ISilicaPools.PoolParams","components":[{"name":"floor","type":"uint128","internalType":"uint128"},{"name":"cap","type":"uint128","internalType":"uint128"},{"name":"index","type":"address","internalType":"address"},{"name":"targetStartTimestamp","type":"uint48","internalType":"uint48"},{"name":"targetEndTimestamp","type":"uint48","internalType":"uint48"},{"name":"payoutToken","type":"address","internalType":"address"}]},{"name":"offeredLongShares","type":"uint128","internalType":"uint128"},{"name":"requestedUpfrontToken","type":"address","internalType":"address"},{"name":"requestedUpfrontAmount","type":"uint128","internalType":"uint128"},{"name":"requestedLongSharesParams","type":"tuple","internalType":"struct ISilicaPools.PoolParams","components":[{"name":"floor","type":"uint128","internalType":"uint128"},{"name":"cap","type":"uint128","internalType":"uint128"},{"name":"index","type":"address","internalType":"address"},{"name":"targetStartTimestamp","type":"uint48","internalType":"uint48"},{"name":"targetEndTimestamp","type":"uint48","internalType":"uint48"},{"name":"payoutToken","type":"address","internalType":"address"}]},{"name":"requestedLongShares","type":"uint128","internalType":"uint128"}]},{"name":"signatures","type":"bytes[]","internalType":"bytes[]"},{"name":"fractions","type":"uint256[]","internalType":"uint256[]"}],"outputs":[],"stateMutability":"nonpayable"},{"type":"function","name":"fromLongTokenId","inputs":[{"name":"longTokenId","type":"uint256","internalType":"uint256"}],"outputs":[{"name":"","type":"bytes32","internalType":"bytes32"}],"stateMutability":"pure"},{"type":"function","name":"fromShortTokenId","inputs":[{"name":"shortTokenId","type":"uint256","internalType":"uint256"}],"outputs":[{"name":"","type":"bytes32","internalType":"bytes32"}],"stateMutability":"pure"},{"type":"function","name":"hashOrder","inputs":[{"name":"order","type":"tuple","internalType":"struct ISilicaPools.SilicaOrder","components":[{"name":"maker","type":"address","internalType":"address"},{"name":"taker","type":"address","internalType":"address"},{"name":"expiry","type":"uint48","internalType":"uint48"},{"name":"offeredUpfrontToken","type":"address","internalType":"address"},{"name":"offeredUpfrontAmount","type":"uint128","internalType":"uint128"},{"name":"offeredLongSharesParams","type":"tuple","internalType":"struct ISilicaPools.PoolParams","components":[{"name":"floor","type":"uint128","internalType":"uint128"},{"name":"cap","type":"uint128","internalType":"uint128"},{"name":"index","type":"address","internalType":"address"},{"name":"targetStartTimestamp","type":"uint48","internalType":"uint48"},{"name":"targetEndTimestamp","type":"uint48","internalType":"uint48"},{"name":"payoutToken","type":"address","internalType":"address"}]},{"name":"offeredLongShares","type":"uint128","internalType":"uint128"},{"name":"requestedUpfrontToken","type":"address","internalType":"address"},{"name":"requestedUpfrontAmount","type":"uint128","internalType":"uint128"},{"name":"requestedLongSharesParams","type":"tuple","internalType":"struct ISilicaPools.PoolParams","components":[{"name":"floor","type":"uint128","internalType":"uint128"},{"name":"cap","type":"uint128","internalType":"uint128"},{"name":"index","type":"address","internalType":"address"},{"name":"targetStartTimestamp","type":"uint48","internalType":"uint48"},{"name":"targetEndTimestamp","type":"uint48","internalType":"uint48"},{"name":"payoutToken","type":"address","internalType":"address"}]},{"name":"requestedLongShares","type":"uint128","internalType":"uint128"}]},{"name":"domainSeparator","type":"bytes32","internalType":"bytes32"}],"outputs":[{"name":"","type":"bytes32","internalType":"bytes32"}],"stateMutability":"pure"},{"type":"function","name":"hashPool","inputs":[{"name":"poolParams","type":"tuple","internalType":"struct ISilicaPools.PoolParams","components":[{"name":"floor","type":"uint128","internalType":"uint128"},{"name":"cap","type":"uint128","internalType":"uint128"},{"name":"index","type":"address","internalType":"address"},{"name":"targetStartTimestamp","type":"uint48","internalType":"uint48"},{"name":"targetEndTimestamp","type":"uint48","internalType":"uint48"},{"name":"payoutToken","type":"address","internalType":"address"}]}],"outputs":[{"name":"","type":"bytes32","internalType":"bytes32"}],"stateMutability":"pure"},{"type":"function","name":"isApprovedForAll","inputs":[{"name":"account","type":"address","internalType":"address"},{"name":"operator","type":"address","internalType":"address"}],"outputs":[{"name":"","type":"bool","internalType":"bool"}],"stateMutability":"view"},{"type":"function","name":"maxBountyFraction","inputs":[],"outputs":[{"name":"","type":"uint256","internalType":"uint256"}],"stateMutability":"view"},{"type":"function","name":"maxCollateralRefund","inputs":[{"name":"poolParams","type":"tuple[]","internalType":"struct ISilicaPools.PoolParams[]","components":[{"name":"floor","type":"uint128","internalType":"uint128"},{"name":"cap","type":"uint128","internalType":"uint128"},{"name":"index","type":"address","internalType":"address"},{"name":"targetStartTimestamp","type":"uint48","internalType":"uint48"},{"name":"targetEndTimestamp","type":"uint48","internalType":"uint48"},{"name":"payoutToken","type":"address","internalType":"address"}]}],"outputs":[],"stateMutability":"nonpayable"},{"type":"function","name":"orderCancelled","inputs":[{"name":"orderHash","type":"bytes32","internalType":"bytes32"}],"outputs":[{"name":"","type":"bool","internalType":"bool"}],"stateMutability":"view"},{"type":"function","name":"owner","inputs":[],"outputs":[{"name":"","type":"address","internalType":"address"}],"stateMutability":"view"},{"type":"function","name":"pause","inputs":[],"outputs":[],"stateMutability":"nonpayable"},{"type":"function","name":"paused","inputs":[],"outputs":[{"name":"","type":"bool","internalType":"bool"}],"stateMutability":"view"},{"type":"function","name":"pendingOwner","inputs":[],"outputs":[{"name":"","type":"address","internalType":"address"}],"stateMutability":"view"},{"type":"function","name":"poolState","inputs":[{"name":"poolHash","type":"bytes32","internalType":"bytes32"}],"outputs":[{"name":"","type":"tuple","internalType":"struct ISilicaPools.PoolState","components":[{"name":"collateralMinted","type":"uint128","internalType":"uint128"},{"name":"sharesMinted","type":"uint128","internalType":"uint128"},{"name":"indexShares","type":"uint128","internalType":"uint128"},{"name":"indexInitialBalance","type":"uint128","internalType":"uint128"},{"name":"actualStartTimestamp","type":"uint48","internalType":"uint48"},{"name":"actualEndTimestamp","type":"uint48","internalType":"uint48"},{"name":"balanceChangePerShare","type":"uint128","internalType":"uint128"}]}],"stateMutability":"view"},{"type":"function","name":"redeem","inputs":[{"name":"longPoolParams","type":"tuple[]","internalType":"struct ISilicaPools.PoolParams[]","components":[{"name":"floor","type":"uint128","internalType":"uint128"},{"name":"cap","type":"uint128","internalType":"uint128"},{"name":"index","type":"address","internalType":"address"},{"name":"targetStartTimestamp","type":"uint48","internalType":"uint48"},{"name":"targetEndTimestamp","type":"uint48","internalType":"uint48"},{"name":"payoutToken","type":"address","internalType":"address"}]},{"name":"shortPoolParams","type":"tuple[]","internalType":"struct ISilicaPools.PoolParams[]","components":[{"name":"floor","type":"uint128","internalType":"uint128"},{"name":"cap","type":"uint128","internalType":"uint128"},{"name":"index","type":"address","internalType":"address"},{"name":"targetStartTimestamp","type":"uint48","internalType":"uint48"},{"name":"targetEndTimestamp","type":"uint48","internalType":"uint48"},{"name":"payoutToken","type":"address","internalType":"address"}]}],"outputs":[],"stateMutability":"nonpayable"},{"type":"function","name":"redeemLong","inputs":[{"name":"longParams","type":"tuple","internalType":"struct ISilicaPools.PoolParams","components":[{"name":"floor","type":"uint128","internalType":"uint128"},{"name":"cap","type":"uint128","internalType":"uint128"},{"name":"index","type":"address","internalType":"address"},{"name":"targetStartTimestamp","type":"uint48","internalType":"uint48"},{"name":"targetEndTimestamp","type":"uint48","internalType":"uint48"},{"name":"payoutToken","type":"address","internalType":"address"}]}],"outputs":[],"stateMutability":"nonpayable"},{"type":"function","name":"redeemShort","inputs":[{"name":"shortParams","type":"tuple","internalType":"struct ISilicaPools.PoolParams","components":[{"name":"floor","type":"uint128","internalType":"uint128"},{"name":"cap","type":"uint128","internalType":"uint128"},{"name":"index","type":"address","internalType":"address"},{"name":"targetStartTimestamp","type":"uint48","internalType":"uint48"},{"name":"targetEndTimestamp","type":"uint48","internalType":"uint48"},{"name":"payoutToken","type":"address","internalType":"address"}]}],"outputs":[],"stateMutability":"nonpayable"},{"type":"function","name":"renounceOwnership","inputs":[],"outputs":[],"stateMutability":"nonpayable"},{"type":"function","name":"sBountyFractionIncreasePerSecond","inputs":[],"outputs":[{"name":"","type":"uint256","internalType":"uint256"}],"stateMutability":"view"},{"type":"function","name":"sBountyGracePeriod","inputs":[],"outputs":[{"name":"","type":"uint256","internalType":"uint256"}],"stateMutability":"view"},{"type":"function","name":"sMaxBountyFraction","inputs":[],"outputs":[{"name":"","type":"uint256","internalType":"uint256"}],"stateMutability":"view"},{"type":"function","name":"safeBatchTransferFrom","inputs":[{"name":"from","type":"address","internalType":"address"},{"name":"to","type":"address","internalType":"address"},{"name":"ids","type":"uint256[]","internalType":"uint256[]"},{"name":"values","type":"uint256[]","internalType":"uint256[]"},{"name":"data","type":"bytes","internalType":"bytes"}],"outputs":[],"stateMutability":"nonpayable"},{"type":"function","name":"safeTransferFrom","inputs":[{"name":"from","type":"address","internalType":"address"},{"name":"to","type":"address","internalType":"address"},{"name":"id","type":"uint256","internalType":"uint256"},{"name":"value","type":"uint256","internalType":"uint256"},{"name":"data","type":"bytes","internalType":"bytes"}],"outputs":[],"stateMutability":"nonpayable"},{"type":"function","name":"setApprovalForAll","inputs":[{"name":"operator","type":"address","internalType":"address"},{"name":"approved","type":"bool","internalType":"bool"}],"outputs":[],"stateMutability":"nonpayable"},{"type":"function","name":"setBountyFractionIncreasePerSecond","inputs":[{"name":"newIncreaseAmount","type":"uint256","internalType":"uint256"}],"outputs":[],"stateMutability":"nonpayable"},{"type":"function","name":"setBountyGracePeriod","inputs":[{"name":"newGracePeriod","type":"uint256","internalType":"uint256"}],"outputs":[],"stateMutability":"nonpayable"},{"type":"function","name":"setFillFeeBps","inputs":[{"name":"newFillFeeBps","type":"uint256","internalType":"uint256"}],"outputs":[],"stateMutability":"nonpayable"},{"type":"function","name":"setMaxBountyFraction","inputs":[{"name":"newMaxFraction","type":"uint256","internalType":"uint256"}],"outputs":[],"stateMutability":"nonpayable"},{"type":"function","name":"setTreasuryAddress","inputs":[{"name":"newTreasury","type":"address","internalType":"address"}],"outputs":[],"stateMutability":"nonpayable"},{"type":"function","name":"startBounty","inputs":[{"name":"poolParams","type":"tuple[]","internalType":"struct ISilicaPools.PoolParams[]","components":[{"name":"floor","type":"uint128","internalType":"uint128"},{"name":"cap","type":"uint128","internalType":"uint128"},{"name":"index","type":"address","internalType":"address"},{"name":"targetStartTimestamp","type":"uint48","internalType":"uint48"},{"name":"targetEndTimestamp","type":"uint48","internalType":"uint48"},{"name":"payoutToken","type":"address","internalType":"address"}]}],"outputs":[{"name":"","type":"uint256[]","internalType":"uint256[]"}],"stateMutability":"view"},{"type":"function","name":"startPool","inputs":[{"name":"poolParams","type":"tuple","internalType":"struct ISilicaPools.PoolParams","components":[{"name":"floor","type":"uint128","internalType":"uint128"},{"name":"cap","type":"uint128","internalType":"uint128"},{"name":"index","type":"address","internalType":"address"},{"name":"targetStartTimestamp","type":"uint48","internalType":"uint48"},{"name":"targetEndTimestamp","type":"uint48","internalType":"uint48"},{"name":"payoutToken","type":"address","internalType":"address"}]}],"outputs":[],"stateMutability":"nonpayable"},{"type":"function","name":"startPools","inputs":[{"name":"poolParams","type":"tuple[]","internalType":"struct ISilicaPools.PoolParams[]","components":[{"name":"floor","type":"uint128","internalType":"uint128"},{"name":"cap","type":"uint128","internalType":"uint128"},{"name":"index","type":"address","internalType":"address"},{"name":"targetStartTimestamp","type":"uint48","internalType":"uint48"},{"name":"targetEndTimestamp","type":"uint48","internalType":"uint48"},{"name":"payoutToken","type":"address","internalType":"address"}]}],"outputs":[],"stateMutability":"nonpayable"},{"type":"function","name":"supportsInterface","inputs":[{"name":"interfaceId","type":"bytes4","internalType":"bytes4"}],"outputs":[{"name":"","type":"bool","internalType":"bool"}],"stateMutability":"view"},{"type":"function","name":"toLongTokenId","inputs":[{"name":"poolHash","type":"bytes32","internalType":"bytes32"}],"outputs":[{"name":"","type":"uint256","internalType":"uint256"}],"stateMutability":"pure"},{"type":"function","name":"toShortTokenId","inputs":[{"name":"poolHash","type":"bytes32","internalType":"bytes32"}],"outputs":[{"name":"","type":"uint256","internalType":"uint256"}],"stateMutability":"pure"},{"type":"function","name":"transferOwnership","inputs":[{"name":"newOwner","type":"address","internalType":"address"}],"outputs":[],"stateMutability":"nonpayable"},{"type":"function","name":"treasuryAddress","inputs":[],"outputs":[{"name":"","type":"address","internalType":"address"}],"stateMutability":"view"},{"type":"function","name":"unpause","inputs":[],"outputs":[],"stateMutability":"nonpayable"},{"type":"function","name":"uri","inputs":[{"name":"","type":"uint256","internalType":"uint256"}],"outputs":[{"name":"","type":"string","internalType":"string"}],"stateMutability":"view"},{"type":"function","name":"viewCollateralRefund","inputs":[{"name":"poolParams","type":"tuple[]","internalType":"struct ISilicaPools.PoolParams[]","components":[{"name":"floor","type":"uint128","internalType":"uint128"},{"name":"cap","type":"uint128","internalType":"uint128"},{"name":"index","type":"address","internalType":"address"},{"name":"targetStartTimestamp","type":"uint48","internalType":"uint48"},{"name":"targetEndTimestamp","type":"uint48","internalType":"uint48"},{"name":"payoutToken","type":"address","internalType":"address"}]},{"name":"shares","type":"uint256[]","internalType":"uint256[]"}],"outputs":[{"name":"expectedRefunds","type":"uint256[]","internalType":"uint256[]"}],"stateMutability":"view"},{"type":"function","name":"viewMaxCollateralRefund","inputs":[{"name":"poolParams","type":"tuple[]","internalType":"struct ISilicaPools.PoolParams[]","components":[{"name":"floor","type":"uint128","internalType":"uint128"},{"name":"cap","type":"uint128","internalType":"uint128"},{"name":"index","type":"address","internalType":"address"},{"name":"targetStartTimestamp","type":"uint48","internalType":"uint48"},{"name":"targetEndTimestamp","type":"uint48","internalType":"uint48"},{"name":"payoutToken","type":"address","internalType":"address"}]},{"name":"accounts","type":"address[]","internalType":"address[]"}],"outputs":[{"name":"expectedRefund","type":"uint256[]","internalType":"uint256[]"}],"stateMutability":"view"},{"type":"function","name":"viewRedeemLong","inputs":[{"name":"longParams","type":"tuple","internalType":"struct ISilicaPools.PoolParams","components":[{"name":"floor","type":"uint128","internalType":"uint128"},{"name":"cap","type":"uint128","internalType":"uint128"},{"name":"index","type":"address","internalType":"address"},{"name":"targetStartTimestamp","type":"uint48","internalType":"uint48"},{"name":"targetEndTimestamp","type":"uint48","internalType":"uint48"},{"name":"payoutToken","type":"address","internalType":"address"}]},{"name":"account","type":"address","internalType":"address"}],"outputs":[{"name":"expectedPayout","type":"uint256","internalType":"uint256"}],"stateMutability":"view"},{"type":"function","name":"viewRedeemShort","inputs":[{"name":"shortParams","type":"tuple","internalType":"struct ISilicaPools.PoolParams","components":[{"name":"floor","type":"uint128","internalType":"uint128"},{"name":"cap","type":"uint128","internalType":"uint128"},{"name":"index","type":"address","internalType":"address"},{"name":"targetStartTimestamp","type":"uint48","internalType":"uint48"},{"name":"targetEndTimestamp","type":"uint48","internalType":"uint48"},{"name":"payoutToken","type":"address","internalType":"address"}]},{"name":"account","type":"address","internalType":"address"}],"outputs":[{"name":"expectedPayout","type":"uint256","internalType":"uint256"}],"stateMutability":"view"},{"type":"event","name":"ApprovalForAll","inputs":[{"name":"account","type":"address","indexed":true,"internalType":"address"},{"name":"operator","type":"address","indexed":true,"internalType":"address"},{"name":"approved","type":"bool","indexed":false,"internalType":"bool"}],"anonymous":false},{"type":"event","name":"EIP712DomainChanged","inputs":[],"anonymous":false},{"type":"event","name":"OwnershipTransferStarted","inputs":[{"name":"previousOwner","type":"address","indexed":true,"internalType":"address"},{"name":"newOwner","type":"address","indexed":true,"internalType":"address"}],"anonymous":false},{"type":"event","name":"OwnershipTransferred","inputs":[{"name":"previousOwner","type":"address","indexed":true,"internalType":"address"},{"name":"newOwner","type":"address","indexed":true,"internalType":"address"}],"anonymous":false},{"type":"event","name":"SilicaPools__BountyIncreaseRateChanged","inputs":[{"name":"newRate","type":"uint256","indexed":false,"internalType":"uint256"}],"anonymous":false},{"type":"event","name":"SilicaPools__BountyPaid","inputs":[{"name":"poolHash","type":"bytes32","indexed":true,"internalType":"bytes32"},{"name":"bountyAmount","type":"uint256","indexed":false,"internalType":"uint256"},{"name":"receiver","type":"address","indexed":false,"internalType":"address"}],"anonymous":false},{"type":"event","name":"SilicaPools__CollateralizedMint","inputs":[{"name":"poolHash","type":"bytes32","indexed":true,"internalType":"bytes32"},{"name":"orderHash","type":"bytes32","indexed":true,"internalType":"bytes32"},{"name":"shortRecipient","type":"address","indexed":false,"internalType":"address"},{"name":"longRecipient","type":"address","indexed":false,"internalType":"address"},{"name":"payer","type":"address","indexed":true,"internalType":"address"},{"name":"payoutToken","type":"address","indexed":false,"internalType":"address"},{"name":"sharesMinted","type":"uint256","indexed":false,"internalType":"uint256"},{"name":"collateralAmount","type":"uint256","indexed":false,"internalType":"uint256"}],"anonymous":false},{"type":"event","name":"SilicaPools__FillFeeChanged","inputs":[{"name":"newFeeBps","type":"uint256","indexed":false,"internalType":"uint256"}],"anonymous":false},{"type":"event","name":"SilicaPools__FillFeePaid","inputs":[{"name":"payer","type":"address","indexed":true,"internalType":"address"},{"name":"poolHash","type":"bytes32","indexed":true,"internalType":"bytes32"},{"name":"orderHash","type":"bytes32","indexed":true,"internalType":"bytes32"},{"name":"tokenId","type":"uint256","indexed":false,"internalType":"uint256"},{"name":"tokenPaid","type":"address","indexed":false,"internalType":"address"},{"name":"amount","type":"uint256","indexed":false,"internalType":"uint256"}],"anonymous":false},{"type":"event","name":"SilicaPools__GracePeriodChanged","inputs":[{"name":"newGracePeriod","type":"uint256","indexed":false,"internalType":"uint256"}],"anonymous":false},{"type":"event","name":"SilicaPools__MaxBountyFractionChanged","inputs":[{"name":"newMaxFraction","type":"uint256","indexed":false,"internalType":"uint256"}],"anonymous":false},{"type":"event","name":"SilicaPools__OrderCancelled","inputs":[{"name":"orderHash","type":"bytes32","indexed":true,"internalType":"bytes32"}],"anonymous":false},{"type":"event","name":"SilicaPools__PauseProtocol","inputs":[],"anonymous":false},{"type":"event","name":"SilicaPools__PoolEnded","inputs":[{"name":"poolHash","type":"bytes32","indexed":true,"internalType":"bytes32"},{"name":"endingIndexBalance","type":"uint256","indexed":false,"internalType":"uint256"},{"name":"balanceChangePerShare","type":"uint128","indexed":false,"internalType":"uint128"}],"anonymous":false},{"type":"event","name":"SilicaPools__PoolStarted","inputs":[{"name":"poolHash","type":"bytes32","indexed":true,"internalType":"bytes32"},{"name":"floor","type":"uint128","indexed":false,"internalType":"uint128"},{"name":"cap","type":"uint128","indexed":false,"internalType":"uint128"},{"name":"targetStartTime","type":"uint48","indexed":false,"internalType":"uint48"},{"name":"targetEndTime","type":"uint48","indexed":false,"internalType":"uint48"},{"name":"index","type":"address","indexed":true,"internalType":"address"},{"name":"payoutToken","type":"address","indexed":true,"internalType":"address"},{"name":"indexShares","type":"uint128","indexed":false,"internalType":"uint128"},{"name":"indexInitialBalance","type":"uint128","indexed":false,"internalType":"uint128"}],"anonymous":false},{"type":"event","name":"SilicaPools__SharesRedeemed","inputs":[{"name":"poolHash","type":"bytes32","indexed":true,"internalType":"bytes32"},{"name":"recipient","type":"address","indexed":true,"internalType":"address"},{"name":"payoutToken","type":"address","indexed":true,"internalType":"address"},{"name":"tokenId","type":"uint256","indexed":false,"internalType":"uint256"},{"name":"sharesRedeemed","type":"uint256","indexed":false,"internalType":"uint256"},{"name":"payoutTokenAmount","type":"uint256","indexed":false,"internalType":"uint256"}],"anonymous":false},{"type":"event","name":"SilicaPools__SharesRefunded","inputs":[{"name":"poolHash","type":"bytes32","indexed":true,"internalType":"bytes32"},{"name":"recipient","type":"address","indexed":true,"internalType":"address"},{"name":"payoutToken","type":"address","indexed":true,"internalType":"address"},{"name":"sharesRefunded","type":"uint256","indexed":false,"internalType":"uint256"},{"name":"payoutTokenAmount","type":"uint256","indexed":false,"internalType":"uint256"}],"anonymous":false},{"type":"event","name":"SilicaPools__TradeHistoryEvent","inputs":[{"name":"orderHash","type":"bytes32","indexed":true,"internalType":"bytes32"},{"name":"maker","type":"address","indexed":true,"internalType":"address"},{"name":"taker","type":"address","indexed":true,"internalType":"address"},{"name":"offeredPoolHash","type":"bytes32","indexed":false,"internalType":"bytes32"},{"name":"requestedPoolHash","type":"bytes32","indexed":false,"internalType":"bytes32"},{"name":"offeredIndex","type":"address","indexed":false,"internalType":"address"},{"name":"requestedIndex","type":"address","indexed":false,"internalType":"address"},{"name":"filledFraction","type":"uint256","indexed":false,"internalType":"uint256"},{"name":"remainingFraction","type":"uint256","indexed":false,"internalType":"uint256"}],"anonymous":false},{"type":"event","name":"SilicaPools__TreasuryAddressChanged","inputs":[{"name":"newTreasuryAddress","type":"address","indexed":false,"internalType":"address"}],"anonymous":false},{"type":"event","name":"SilicaPools__UnpauseProtocol","inputs":[],"anonymous":false},{"type":"event","name":"SilicaPools__VolumeAccountingEvent","inputs":[{"name":"orderHash","type":"bytes32","indexed":true,"internalType":"bytes32"},{"name":"poolHash","type":"bytes32","indexed":false,"internalType":"bytes32"},{"name":"index","type":"address","indexed":true,"internalType":"address"},{"name":"payoutToken","type":"address","indexed":false,"internalType":"address"},{"name":"capMinusFloor","type":"uint256","indexed":false,"internalType":"uint256"},{"name":"sharesMinted","type":"uint256","indexed":false,"internalType":"uint256"},{"name":"sharesTransferred","type":"uint256","indexed":false,"internalType":"uint256"},{"name":"upfrontTokenAddr","type":"address","indexed":true,"internalType":"address"},{"name":"upfrontTokenAmount","type":"uint256","indexed":false,"internalType":"uint256"}],"anonymous":false},{"type":"event","name":"TransferBatch","inputs":[{"name":"operator","type":"address","indexed":true,"internalType":"address"},{"name":"from","type":"address","indexed":true,"internalType":"address"},{"name":"to","type":"address","indexed":true,"internalType":"address"},{"name":"ids","type":"uint256[]","indexed":false,"internalType":"uint256[]"},{"name":"values","type":"uint256[]","indexed":false,"internalType":"uint256[]"}],"anonymous":false},{"type":"event","name":"TransferSingle","inputs":[{"name":"operator","type":"address","indexed":true,"internalType":"address"},{"name":"from","type":"address","indexed":true,"internalType":"address"},{"name":"to","type":"address","indexed":true,"internalType":"address"},{"name":"id","type":"uint256","indexed":false,"internalType":"uint256"},{"name":"value","type":"uint256","indexed":false,"internalType":"uint256"}],"anonymous":false},{"type":"event","name":"URI","inputs":[{"name":"value","type":"string","indexed":false,"internalType":"string"},{"name":"id","type":"uint256","indexed":true,"internalType":"uint256"}],"anonymous":false},{"type":"error","name":"AddressEmptyCode","inputs":[{"name":"target","type":"address","internalType":"address"}]},{"type":"error","name":"AddressInsufficientBalance","inputs":[{"name":"account","type":"address","internalType":"address"}]},{"type":"error","name":"ECDSAInvalidSignature","inputs":[]},{"type":"error","name":"ECDSAInvalidSignatureLength","inputs":[{"name":"length","type":"uint256","internalType":"uint256"}]},{"type":"error","name":"ECDSAInvalidSignatureS","inputs":[{"name":"s","type":"bytes32","internalType":"bytes32"}]},{"type":"error","name":"ERC1155InsufficientBalance","inputs":[{"name":"sender","type":"address","internalType":"address"},{"name":"balance","type":"uint256","internalType":"uint256"},{"name":"needed","type":"uint256","internalType":"uint256"},{"name":"tokenId","type":"uint256","internalType":"uint256"}]},{"type":"error","name":"ERC1155InvalidApprover","inputs":[{"name":"approver","type":"address","internalType":"address"}]},{"type":"error","name":"ERC1155InvalidArrayLength","inputs":[{"name":"idsLength","type":"uint256","internalType":"uint256"},{"name":"valuesLength","type":"uint256","internalType":"uint256"}]},{"type":"error","name":"ERC1155InvalidOperator","inputs":[{"name":"operator","type":"address","internalType":"address"}]},{"type":"error","name":"ERC1155InvalidReceiver","inputs":[{"name":"receiver","type":"address","internalType":"address"}]},{"type":"error","name":"ERC1155InvalidSender","inputs":[{"name":"sender","type":"address","internalType":"address"}]},{"type":"error","name":"ERC1155MissingApprovalForAll","inputs":[{"name":"operator","type":"address","internalType":"address"},{"name":"owner","type":"address","internalType":"address"}]},{"type":"error","name":"FailedInnerCall","inputs":[]},{"type":"error","name":"InvalidShortString","inputs":[]},{"type":"error","name":"OwnableInvalidOwner","inputs":[{"name":"owner","type":"address","internalType":"address"}]},{"type":"error","name":"OwnableUnauthorizedAccount","inputs":[{"name":"account","type":"address","internalType":"address"}]},{"type":"error","name":"ReentrancyGuardReentrantCall","inputs":[]},{"type":"error","name":"SafeERC20FailedOperation","inputs":[{"name":"token","type":"address","internalType":"address"}]},{"type":"error","name":"SilicaPools__ArrayLengthMismatch","inputs":[]},{"type":"error","name":"SilicaPools__InvalidCaller","inputs":[{"name":"caller","type":"address","internalType":"address"},{"name":"expectedCaller","type":"address","internalType":"address"}]},{"type":"error","name":"SilicaPools__InvalidSignature","inputs":[{"name":"signature","type":"bytes","internalType":"bytes"}]},{"type":"error","name":"SilicaPools__OrderExpired","inputs":[{"name":"expiry","type":"uint256","internalType":"uint256"},{"name":"blockTimestamp","type":"uint256","internalType":"uint256"}]},{"type":"error","name":"SilicaPools__OrderIsCancelled","inputs":[{"name":"orderHash","type":"bytes32","internalType":"bytes32"}]},{"type":"error","name":"SilicaPools__PartialOrdersNotSupported","inputs":[{"name":"orderHash","type":"bytes32","internalType":"bytes32"}]},{"type":"error","name":"SilicaPools__Paused","inputs":[]},{"type":"error","name":"SilicaPools__PoolAlreadyEnded","inputs":[{"name":"poolHash","type":"bytes32","internalType":"bytes32"}]},{"type":"error","name":"SilicaPools__PoolAlreadyStarted","inputs":[{"name":"poolHash","type":"bytes32","internalType":"bytes32"}]},{"type":"error","name":"SilicaPools__PoolNotEnded","inputs":[{"name":"poolHash","type":"bytes32","internalType":"bytes32"}]},{"type":"error","name":"SilicaPools__TooEarlyToEnd","inputs":[{"name":"attemptedTimestamp","type":"uint256","internalType":"uint256"},{"name":"targetTimestamp","type":"uint256","internalType":"uint256"}]},{"type":"error","name":"SilicaPools__TooEarlyToStart","inputs":[{"name":"attemptedTimestamp","type":"uint256","internalType":"uint256"},{"name":"targetTimestamp","type":"uint256","internalType":"uint256"}]},{"type":"error","name":"StringTooLong","inputs":[{"name":"str","type":"string","internalType":"string"}]}],"bytecode":{"object":"0x6101606040523480156200001257600080fd5b5060405162005dcd38038062005dcd833981016040819052620000359162000433565b846040518060400160405280600b81526020016a53696c696361506f6f6c7360a81b815250604051806040016040528060018152602001603160f81b8152506040518060200160405280600081525062000095816200031860201b60201c565b50620000a38260036200032a565b61012052620000b48160046200032a565b61014052815160208084019190912060e052815190820120610100524660a0526200014260e05161010051604080517f8b73c3c69bb8fe3d512ecc4cf759cc79239f7b179b0ffacaa9a75d522b39400f60208201529081019290925260608201524660808201523060a082015260009060c00160405160208183030381529060405280519060200120905090565b60805250503060c0526001600160a01b0381166200017b57604051631e4fbdf760e01b8152600060048201526024015b60405180910390fd5b620001868162000363565b5060016007556001600160a01b038416620001a557620001a562000490565b600980546001600160a01b0319166001600160a01b0386161790556103e8861115620001d557620001d562000490565b6008869055600d839055600e829055600f8190556040518681527fd5862782a16cfe1b4efd87aa8ff52fe97b1b3300d25bbf2719b5cbd413cd9cd49060200160405180910390a17fa8d4f499ed89ed61915e14bec2bd7bea8fb6c9701f14ce893bbc2e847d920d32600d546040516200025091815260200190565b60405180910390a16040516001600160a01b03851681527f2c8741c51ef15572035be75af521ed4878a6e3406c7fdea3494b5fbffdc107c69060200160405180910390a17f9ee70d55a8fb5949bbafdc2c166db4f6b56a7f6827fcfc91202d433174fddd0d600e54604051620002c891815260200190565b60405180910390a17f2e54a66023bd119d7da51cb6619e461b9f2d33f3749d492dcec52d5c6ce5f34b600f546040516200030491815260200190565b60405180910390a15050505050506200068c565b60026200032682826200054b565b5050565b60006020835110156200034a57620003428362000381565b90506200035d565b816200035784826200054b565b5060ff90505b92915050565b600680546001600160a01b03191690556200037e81620003c4565b50565b600080829050601f81511115620003af578260405163305a27a960e01b815260040162000172919062000617565b8051620003bc8262000667565b179392505050565b600580546001600160a01b038381166001600160a01b0319831681179093556040519116919082907f8be0079c531659141344cd1fd0a4f28419497f9722a3daafe3b4186f6b6457e090600090a35050565b80516001600160a01b03811681146200042e57600080fd5b919050565b60008060008060008060c087890312156200044d57600080fd5b865195506200045f6020880162000416565b94506200046f6040880162000416565b9350606087015192506080870151915060a087015190509295509295509295565b634e487b7160e01b600052600160045260246000fd5b634e487b7160e01b600052604160045260246000fd5b600181811c90821680620004d157607f821691505b602082108103620004f257634e487b7160e01b600052602260045260246000fd5b50919050565b601f8211156200054657600081815260208120601f850160051c81016020861015620005215750805b601f850160051c820191505b8181101562000542578281556001016200052d565b5050505b505050565b81516001600160401b03811115620005675762000567620004a6565b6200057f81620005788454620004bc565b84620004f8565b602080601f831160018114620005b757600084156200059e5750858301515b600019600386901b1c1916600185901b17855562000542565b600085815260208120601f198616915b82811015620005e857888601518255948401946001909101908401620005c7565b5085821015620006075787850151600019600388901b60f8161c191681555b5050505050600190811b01905550565b600060208083528351808285015260005b81811015620006465785810183015185820160400152820162000628565b506000604082860101526040601f19601f8301168501019250505092915050565b80516020808301519190811015620004f25760001960209190910360031b1b16919050565b60805160a05160c05160e0516101005161012051610140516156e6620006e760003960006139e2015260006139b50152600061395d0152600061393501526000613890015260006138ba015260006138e401526156e66000f3fe608060405234801561001057600080fd5b50600436106103ae5760003560e01c80638ac86f1a116101f4578063ccaaa5201161011a578063ec9f8ae8116100ad578063f2fde38b1161007c578063f2fde38b146108cd578063f50ec602146108e0578063f5d213f2146108e9578063fe2de08c146108fc57600080fd5b8063ec9f8ae81461089e578063f0cd6751146108a7578063f242432a146108ba578063f2499585146106a357600080fd5b8063e1c67091116100e9578063e1c6709114610872578063e30c39781461087a578063e5c168a81461071e578063e985e9c51461088b57600080fd5b8063ccaaa520146106f8578063d6dc6b041461070b578063d7e5ae9f1461071e578063e0b01bac1461072f57600080fd5b8063a0fadc3511610192578063c4cde46b11610161578063c4cde46b146106b8578063c5f956af146106cb578063c837a941146106dc578063cae6047f146106ef57600080fd5b8063a0fadc351461066a578063a22cb4651461067d578063a2b597ee14610690578063bda9f386146106a357600080fd5b80638f409d26116101ce5780638f409d2614610628578063934ed7321461063b578063992cc7cb1461064e5780639c9b381c1461066157600080fd5b80638ac86f1a146105e75780638c8c29ce146105fa5780638da5cb5b1461060357600080fd5b80634e1273f4116102d9578063715018a6116102775780637d1a7558116102465780637d1a75581461059e5780638456cb59146105b157806384b0196e146105b957806388018540146105d457600080fd5b8063715018a61461057357806371e109d41461057b57806378e890ba1461058e57806379ba50971461059657600080fd5b80635b72928c116102b35780635b72928c146105385780635c975abb1461054b5780636605bfda146105585780636c0dc9791461056b57600080fd5b80634e1273f4146104ef57806351594173146105025780635889bf5e1461051557600080fd5b806329fa8b871161035157806334d2efe51161032057806334d2efe5146104a15780633ba1a0df146104c15780633f4ba83a146104d45780634cd21543146104dc57600080fd5b806329fa8b87146104555780632eb2c2d614610468578063312f14ba1461047b5780633305d6b11461048e57600080fd5b806313208d1b1161038d57806313208d1b1461041c57806319b87556146104315780631d0fa9cf146104445780632556bc151461044c57600080fd5b8062fdd58e146103b357806301ffc9a7146103d95780630e89341c146103fc575b600080fd5b6103c66103c13660046146fb565b610904565b6040519081526020015b60405180910390f35b6103ec6103e736600461473b565b61092c565b60405190151581526020016103d0565b61040f61040a366004614758565b61097c565b6040516103d091906147c1565b61042f61042a366004614758565b610a10565b005b61042f61043f3660046147ec565b610a54565b600f546103c6565b6103c66103e881565b61042f610463366004614853565b610dbd565b61042f6104763660046149d7565b610e65565b61042f6104893660046147ec565b610ecc565b61042f61049c3660046147ec565b6111e3565b6104b46104af366004614853565b61135e565b6040516103d09190614abb565b61042f6104cf366004614b57565b611406565b61042f6114b5565b6103c66104ea366004614bf0565b6114f2565b6104b46104fd366004614c24565b6115ed565b61042f6105103660046147ec565b6116b9565b6103ec610523366004614758565b6000908152600b602052604090205460ff1690565b6104b4610546366004614853565b61179c565b6010546103ec9060ff1681565b61042f610566366004614ce3565b61183c565b600e546103c6565b61042f6118a8565b61042f610589366004614cfe565b6118bc565b6103c66118d1565b61042f6118e0565b61042f6105ac366004614853565b611924565b61042f611964565b6105c16119a4565b6040516103d09796959493929190614d59565b61042f6105e2366004614758565b6119ea565b6103c66105f5366004614bf0565b611a27565b6103c6600e5481565b6005546001600160a01b03165b6040516001600160a01b0390911681526020016103d0565b6104b4610636366004614dc9565b611b08565b61042f610649366004614dc9565b611c2e565b61042f61065c366004614e47565b611cbb565b6103c6600f5481565b61042f610678366004614ed3565b6128d4565b61042f61068b366004614f16565b61298d565b61042f61069e366004614758565b612998565b6103c66106b1366004614758565b61ac1d1890565b6103c66106c6366004614f4d565b612a27565b6009546001600160a01b0316610610565b6103c66106ea3660046147ec565b612bed565b6103c661271081565b6104b4610706366004614dc9565b612cde565b61042f610719366004614758565b612e4a565b6103c661072c366004614758565b90565b6107fb61073d366004614758565b6040805160e081018252600080825260208201819052918101829052606081018290526080810182905260a0810182905260c0810191909152506000908152600a6020908152604091829020825160e08101845281546001600160801b038082168352600160801b91829004811694830194909452600183015480851695830195909552909304821660608401526002015465ffffffffffff8082166080850152600160301b82041660a0840152600160601b90041660c082015290565b6040516103d09190600060e0820190506001600160801b03808451168352806020850151166020840152806040850151166040840152806060850151166060840152608084015165ffffffffffff80821660808601528060a08701511660a086015250508060c08501511660c08401525092915050565b600d546103c6565b6006546001600160a01b0316610610565b6103ec610899366004614f7a565b612e87565b6103c661ac1d81565b61042f6108b5366004614fa4565b612eb5565b61042f6108c8366004615003565b612f2c565b61042f6108db366004614ce3565b612f8b565b6103c6600d5481565b61042f6108f7366004614853565b612ffc565b6008546103c6565b6000818152602081815260408083206001600160a01b03861684529091529020545b92915050565b60006001600160e01b03198216636cdb3d1360e11b148061095d57506001600160e01b031982166303a24d0760e21b145b8061092657506301ffc9a760e01b6001600160e01b0319831614610926565b60606002805461098b90615067565b80601f01602080910402602001604051908101604052809291908181526020018280546109b790615067565b8015610a045780601f106109d957610100808354040283529160200191610a04565b820191906000526020600020905b8154815290600101906020018083116109e757829003601f168201915b50505050509050919050565b610a18613037565b600f8190556040518181527f2e54a66023bd119d7da51cb6619e461b9f2d33f3749d492dcec52d5c6ce5f34b906020015b60405180910390a150565b6000610a5f82612bed565b6000818152600a6020526040808220929350610a819060608601908601614ce3565b9050610a9360808501606086016150b1565b65ffffffffffff16421015610ae25742610ab360808601606087016150b1565b60405163c7b7b42d60e01b8152600481019290925265ffffffffffff1660248201526044015b60405180910390fd5b600282015465ffffffffffff1615610b10576040516309ed6f7160e11b815260048101849052602401610ad9565b60028201805465ffffffffffff19164265ffffffffffff1617905560408051630198a77d60e11b815290516001600160a01b038316916303314efa9160048083019260209291908290030181865afa158015610b70573d6000803e3d6000fd5b505050506040513d601f19601f82011682018060405250810190610b9491906150cc565b8260010160006101000a8154816001600160801b0302191690836001600160801b03160217905550806001600160a01b031663b69ef8a86040518163ffffffff1660e01b8152600401602060405180830381865afa158015610bfa573d6000803e3d6000fd5b505050506040513d601f19601f82011682018060405250810190610c1e91906150cc565b6001830180546001600160801b03928316600160801b0292169190911790556000610c4885613064565b835490915081908490600090610c689084906001600160801b03166150fb565b92506101000a8154816001600160801b0302191690836001600160801b03160217905550610ca98560a0016020810190610ca29190614ce3565b3383613136565b6040805182815233602082015285917f39cc814c3df1705a9d1bd4ec3a061f6fb23cb831bb8bc16c733ea10f0228624b910160405180910390a2610cf360c0860160a08701614ce3565b6001600160a01b03908116908316857f9361bce27c5f68d35152d4a7f6dfae0f68bb882ebdb8bc14128a632dda9ab69a610d3060208a018a615139565b610d4060408b0160208c01615139565b610d5060808c0160608d016150b1565b610d6060a08d0160808e016150b1565b60018b0154604080516001600160801b039687168152948616602086015265ffffffffffff93841690850152911660608301528281166080830152600160801b900490911660a082015260c0015b60405180910390a45050505050565b610dc5613195565b60005b81811015610e56576000610df2848484818110610de757610de7615154565b905060c00201612bed565b90506000610e003383610904565b90506000610e123361ac1d8518610904565b9050610e42868686818110610e2957610e29615154565b905060c00201828410610e3c57826131bf565b836131bf565b50505080610e4f9061516a565b9050610dc8565b50610e616001600755565b5050565b336001600160a01b0386168114801590610e865750610e848682612e87565b155b15610eb75760405163711bec9160e11b81526001600160a01b03808316600483015287166024820152604401610ad9565b610ec48686868686613325565b505050505050565b6000610ed782612bed565b6000818152600a6020526040808220929350610ef99060608601908601614ce3565b6002830154909150600160301b900465ffffffffffff1615610f31576040516366ddd3a160e11b815260048101849052602401610ad9565b610f4160a08501608086016150b1565b65ffffffffffff16421015610f8b5742610f6160a08601608087016150b1565b60405163bd7d315f60e01b8152600481019290925265ffffffffffff166024820152604401610ad9565b6000816001600160a01b031663b69ef8a86040518163ffffffff1660e01b8152600401602060405180830381865afa158015610fcb573d6000803e3d6000fd5b505050506040513d601f19601f82011682018060405250810190610fef91906150cc565b60018401546040805163313ce56760e01b8152905192935061109d9284926001600160801b03600160801b82048116939116916001600160a01b0388169163313ce5679160048083019260209291908290030181865afa158015611057573d6000803e3d6000fd5b505050506040513d601f19601f8201168201806040525081019061107b91906150cc565b61108860208b018b615139565b61109860408c0160208d01615139565b613385565b6002840180546601000000000000600160e01b031916600160601b6001600160801b0393909316929092026bffffffffffff000000000000191691909117600160301b4265ffffffffffff160217905560006110f8866133c1565b8454909150819085906000906111189084906001600160801b03166150fb565b92506101000a8154816001600160801b0302191690836001600160801b031602179055506111528660a0016020810190610ca29190614ce3565b6040805182815233602082015286917f39cc814c3df1705a9d1bd4ec3a061f6fb23cb831bb8bc16c733ea10f0228624b910160405180910390a2600284015460408051848152600160601b9092046001600160801b0316602083015286917fafeed4501a6753eefb924ea0eeb9a58b8d2ad05c8610190cd5f2c7160341a255910160405180910390a2505050505050565b60006111ee82612bed565b6000818152600a60205260408120600281015492935091600160301b900465ffffffffffff16900361123657604051631fd4ba0360e01b815260048101839052602401610ad9565b61ac1d821860006112473383610904565b905060006112d461125d36889003880188615183565b6040805160e08101825287546001600160801b038082168352600160801b918290048116602084015260018a015480821694840194909452920482166060820152600288015465ffffffffffff8082166080840152600160301b82041660a0830152600160601b900490911660c08201528461348d565b90506112e1338484613516565b6112f4610ca260c0880160a08901614ce3565b61130460c0870160a08801614ce3565b60408051858152602081018590529081018390526001600160a01b039190911690339087907f25f71c4ab7405b63d0d765b761387ed58069d4c408f6562a526104549f8fb5da9060600160405180910390a4505050505050565b60606000826001600160401b0381111561137a5761137a614894565b6040519080825280602002602001820160405280156113a3578160200160208202803683370190505b50905060005b838110156113fe576113d18585838181106113c6576113c6615154565b905060c002016133c1565b8282815181106113e3576113e3615154565b60209081029190910101526113f78161516a565b90506113a9565b509392505050565b84831415806114155750848114155b1561143357604051633009a29d60e01b815260040160405180910390fd5b60005b858110156114ac5761149c87878381811061145357611453615154565b90506102a0020186868481811061146c5761146c615154565b905060200281019061147e9190615221565b86868681811061149057611490615154565b90506020020135611cbb565b6114a58161516a565b9050611436565b50505050505050565b6114bd613037565b6010805460ff191690556040517ff9b5d9ff43c04557eb813158a432098c5d195947516dd9795ef5a11ecb047f3690600090a1565b6000806114fe84612bed565b6000818152600a60205260408120600281015492935091600160301b900465ffffffffffff16900361154657604051631fd4ba0360e01b815260048101839052602401610ad9565b61ac1d821860006115578683610904565b90506115e261156b36899003890189615183565b6040805160e08101825286546001600160801b038082168352600160801b9182900481166020840152600189015480821694840194909452920482166060820152600287015465ffffffffffff8082166080840152600160301b82041660a0830152600160601b900490911660c08201528361348d565b979650505050505050565b6060815183511461161e5781518351604051635b05999160e01b815260048101929092526024820152604401610ad9565b600083516001600160401b0381111561163957611639614894565b604051908082528060200260200182016040528015611662578160200160208202803683370190505b50905060005b84518110156113fe5760208082028601015161168c90602080840287010151610904565b82828151811061169e5761169e615154565b60209081029190910101526116b28161516a565b9050611668565b60006116c482612bed565b6000818152600a60205260408120600281015492935091600160301b900465ffffffffffff16900361170c57604051631fd4ba0360e01b815260048101839052602401610ad9565b8160006117193383610904565b6040805160e08101825285546001600160801b038082168352600160801b9182900481166020840152600188015480821694840194909452920482166060820152600286015465ffffffffffff8082166080840152600160301b82041660a0830152600160601b900490911660c08201529091506000906112d49087908461357e565b60606000826001600160401b038111156117b8576117b8614894565b6040519080825280602002602001820160405280156117e1578160200160208202803683370190505b50905060005b838110156113fe5761180f85858381811061180457611804615154565b905060c00201613064565b82828151811061182157611821615154565b60209081029190910101526118358161516a565b90506117e7565b611844613037565b6001600160a01b03811661185a5761185a615267565b600980546001600160a01b0319166001600160a01b0383169081179091556040519081527f2c8741c51ef15572035be75af521ed4878a6e3406c7fdea3494b5fbffdc107c690602001610a49565b6118b0613037565b6118ba60006135e7565b565b6118ca858585338686613600565b5050505050565b60006118db613883565b905090565b60065433906001600160a01b031681146119185760405163118cdaa760e01b81526001600160a01b0382166004820152602401610ad9565b611921816135e7565b50565b60005b8181101561195f5761194f83838381811061194457611944615154565b905060c00201610ecc565b6119588161516a565b9050611927565b505050565b61196c613037565b6010805460ff191660011790556040517f05204c23a38d23799ab593b867a0a8f7bb23ba80aa8308107716de014e257d9b90600090a1565b6000606080600080600060606119b86139ae565b6119c06139db565b60408051600080825260208201909252600f60f81b9b939a50919850469750309650945092509050565b6119f2613037565b600d8190556040518181527fa8d4f499ed89ed61915e14bec2bd7bea8fb6c9701f14ce893bbc2e847d920d3290602001610a49565b600080611a3384612bed565b6000818152600a60205260408120600281015492935091600160301b900465ffffffffffff169003611a7b57604051631fd4ba0360e01b815260048101839052602401610ad9565b816000611a888683610904565b6040805160e08101825285546001600160801b038082168352600160801b9182900481166020840152600188015480821694840194909452920482166060820152600286015465ffffffffffff8082166080840152600160301b82041660a0830152600160601b900490911660c08201529091506115e29088908361357e565b6060838214611b2a57604051633009a29d60e01b815260040160405180910390fd5b836001600160401b03811115611b4257611b42614894565b604051908082528060200260200182016040528015611b6b578160200160208202803683370190505b50905060005b84811015611c25576000611b90878784818110610de757610de7615154565b6000818152600a60205260408120805492935091600160801b90046001600160801b0316878786818110611bc657611bc6615154565b8554611be6936020909202919091013591506001600160801b031661527d565b611bf09190615294565b905080858581518110611c0557611c05615154565b60200260200101818152505050505080611c1e9061516a565b9050611b71565b50949350505050565b611c36613195565b828114611c5657604051633009a29d60e01b815260040160405180910390fd5b60005b83811015611caa57611c9a858583818110611c7657611c76615154565b905060c00201848484818110611c8e57611c8e615154565b905060200201356131bf565b611ca38161516a565b9050611c59565b50611cb56001600755565b50505050565b611cc3613195565b60105460ff1615611ce757604051634815836b60e11b815260040160405180910390fd5b6000611cf5856106c6613883565b905081670de0b6b3a764000014611d22576040516318f8b05760e21b815260048101829052602401610ad9565b6000818152600b602052604090205460ff1615611d555760405163310cc63360e21b815260048101829052602401610ad9565b611d626020860186614ce3565b6001600160a01b0316611dab8286868080601f016020809104026020016040519081016040528093929190818152602001838380828437600092019190915250613a0892505050565b6001600160a01b031614611dd6578383604051634f11230760e01b8152600401610ad99291906152b6565b6000611de86040870160208801614ce3565b6001600160a01b031614158015611e17575033611e0b6040870160208801614ce3565b6001600160a01b031614155b15611e595733611e2d6040870160208801614ce3565b6040516365d0b58b60e11b81526001600160a01b03928316600482015291166024820152604401610ad9565b42611e6a60608701604088016150b1565b65ffffffffffff161015611eb257611e8860608601604087016150b1565b604051632676a8cd60e21b815265ffffffffffff9091166004820152426024820152604401610ad9565b600a6000611ec28760a001612bed565b8152602081019190915260400160002060020154600160301b900465ffffffffffff1615611f1257611ef68560a001612bed565b6040516366ddd3a160e11b8152600401610ad991815260200190565b600a6000611f23876101c001612bed565b8152602081019190915260400160002060020154600160301b900465ffffffffffff1615611f5857611ef6856101c001612bed565b611f6860a0860160808701615139565b6001600160801b031615611fd357611fd3611f896080870160608801614ce3565b611f966020880188614ce3565b33670de0b6b3a764000086611fb160a08c0160808d01615139565b6001600160801b0316611fc4919061527d565b611fce9190615294565b613a32565b611fe56101c086016101a08701615139565b6001600160801b031615612032576120326120086101a087016101808801614ce3565b336120166020890189614ce3565b670de0b6b3a764000086611fb16101c08c016101a08d01615139565b61204461018086016101608701615139565b6001600160801b03161561226f576000612065610100870160e08801614ce3565b6001600160a01b031663313ce5676040518163ffffffff1660e01b8152600401602060405180830381865afa1580156120a2573d6000803e3d6000fd5b505050506040513d601f19601f820116820180604052508101906120c691906150cc565b9050600061212e60016120df60c08a0160a08b01615139565b6120ef60e08b0160c08c01615139565b670de0b6b3a76400008861210b6101808e016101608f01615139565b6001600160801b031661211e919061527d565b6121289190615294565b86613a6b565b9050600061271060085483612143919061527d565b61214d9190615294565b90506121786121646101608a016101408b01614ce3565b60095433906001600160a01b031684613a32565b60006121896106b18a60a001612bed565b9050846121988a60a001612bed565b336001600160a01b03167fd251a84f70b303473d1a800f3bee17030d3936ce3f7c39e96744648d74906411848d60a00160a00160208101906121da9190614ce3565b604080519283526001600160a01b039091166020830152810187905260600160405180910390a461226a8960a00186670de0b6b3a7640000898d6101600160208101906122279190615139565b6001600160801b031661223a919061527d565b6122449190615294565b61225160208e018e614ce3565b338e60000160208101906122659190614ce3565b613600565b505050505b6122816102a086016102808701615139565b6001600160801b03161561246c5760006122a361022087016102008801614ce3565b6001600160a01b031663313ce5676040518163ffffffff1660e01b8152600401602060405180830381865afa1580156122e0573d6000803e3d6000fd5b505050506040513d601f19601f8201168201806040525081019061230491906150cc565b9050600061234d600161231f6101e08a016101c08b01615139565b6123316102008b016101e08c01615139565b670de0b6b3a76400008861210b6102a08e016102808f01615139565b9050600061271060085483612362919061527d565b61236c9190615294565b90506123836121646102808a016102608b01614ce3565b600061239561072c8a6101c001612bed565b9050846123a58a6101c001612bed565b336001600160a01b03167fd251a84f70b303473d1a800f3bee17030d3936ce3f7c39e96744648d74906411848d6101c00160a00160208101906123e89190614ce3565b604080519283526001600160a01b039091166020830152810187905260600160405180910390a4612467896101c00186670de0b6b3a7640000898d6102800160208101906124369190615139565b6001600160801b0316612449919061527d565b6124539190615294565b3361246160208f018f614ce3565b33613600565b505050505b6000818152600c60205260408120546124869084906152e5565b6000838152600c6020908152604090912082905590915033906124ab90880188614ce3565b6001600160a01b0316837fcdf14d08097048aab3781991ddff2f475333d35622e832d85d62b58f3fd0461e6124e28a60a001612bed565b6124ef8b6101c001612bed565b6125006101008d0160e08e01614ce3565b6125126102208e016102008f01614ce3565b8a6125258a670de0b6b3a76400006152f8565b6040805196875260208701959095526001600160a01b039384169486019490945291166060840152608083015260a082015260c00160405180910390a450600061257761018087016101608801615139565b6001600160801b031611806125a65750600061259b6101c087016101a08801615139565b6001600160801b0316115b15612716576125bd6101a086016101808701614ce3565b6001600160a01b03166125d7610100870160e08801614ce3565b6001600160a01b0316827fb42203ebc07d143dd2ce369b83b2713ddf67a9c96ec5e9e25f425ed88c02862561260e8960a001612bed565b6126206101608b016101408c01614ce3565b61263060c08c0160a08d01615139565b61264060e08d0160c08e01615139565b61264a91906150fb565b670de0b6b3a7640000898d6101600160208101906126689190615139565b6001600160801b031661267b919061527d565b6126859190615294565b670de0b6b3a76400008a8e6101600160208101906126a39190615139565b6001600160801b03166126b6919061527d565b6126c09190615294565b670de0b6b3a76400008b8f6101a00160208101906126de9190615139565b6001600160801b03166126f1919061527d565b6126fb9190615294565b60405161270d9695949392919061530b565b60405180910390a45b600061272a6102a087016102808801615139565b6001600160801b031611806127575750600061274c60a0870160808801615139565b6001600160801b0316115b15611caa5761276c6080860160608701614ce3565b6001600160a01b031661278761022087016102008801614ce3565b6001600160a01b0316827fb42203ebc07d143dd2ce369b83b2713ddf67a9c96ec5e9e25f425ed88c0286256127bf896101c001612bed565b6127d16102808b016102608c01614ce3565b6127e36101e08c016101c08d01615139565b6127f56102008d016101e08e01615139565b6127ff91906150fb565b670de0b6b3a7640000898d61028001602081019061281d9190615139565b6001600160801b0316612830919061527d565b61283a9190615294565b670de0b6b3a76400008a8e6102800160208101906128589190615139565b6001600160801b031661286b919061527d565b6128759190615294565b670de0b6b3a76400008b8f60800160208101906128929190615139565b6001600160801b03166128a5919061527d565b6128af9190615294565b6040516128c19695949392919061530b565b60405180910390a450611cb56001600755565b60005b8181101561195f57368383838181106128f2576128f2615154565b6102a00291909101915033905061290c6020830183614ce3565b6001600160a01b0316146129285733611e2d6020830183614ce3565b6000612936826106c6613883565b6000818152600b6020526040808220805460ff191660011790555191925082917fdae6f8929d076546361068a77fbf488bf65e58a76625628ede047a30311456a99190a25050806129869061516a565b90506128d7565b610e61338383613ac1565b6129a0613037565b6103e88111156129f25760405162461bcd60e51b815260206004820152601960248201527f43616e6e6f7420657863656564206d61782066656520425053000000000000006044820152606401610ad9565b60088190556040518181527fd5862782a16cfe1b4efd87aa8ff52fe97b1b3300d25bbf2719b5cbd413cd9cd490602001610a49565b6000807f25036ae61bfc8d8512539bb2b64fb5ba7dcad72dca292e53cbc1b911b11a73e08460a001604051602001612a60929190615345565b60405160208183030381529060405280519060200120905060007f25036ae61bfc8d8512539bb2b64fb5ba7dcad72dca292e53cbc1b911b11a73e0856101c001604051602001612ab1929190615345565b60408051601f19818403018152919052805160209182012091506000907fe150cacb97f549f136b51aebe10986dc8bb73d35181d725b8a20dac1ac0c26b790612afc90880188614ce3565b612b0c6040890160208a01614ce3565b612b1c60608a0160408b016150b1565b612b2c60808b0160608c01614ce3565b612b3c60a08c0160808d01615139565b612b4e6101808d016101608e01615139565b898d610180016020810190612b639190614ce3565b8e6101a0016020810190612b779190615139565b8f610280016020810190612b8b9190615139565b8c604051602001612ba79c9b9a999897969594939291906153e0565b604051602081830303815290604052805190602001209050612be3858260405161190160f01b8152600281019290925260228201526042902090565b9695505050505050565b6000612bfc6020830183615139565b612c0c6040840160208501615139565b612c1c6060850160408601614ce3565b612c2c60808601606087016150b1565b612c3c60a08701608088016150b1565b612c4c60c0880160a08901614ce3565b604080516fffffffffffffffffffffffffffffffff19608098891b811660208301529690971b90951660308701526bffffffffffffffffffffffff19606094851b8116958701959095526001600160d01b031960d093841b811660548801529190921b16605a850152811b90911690820152607401604051602081830303815290604052805190602001209050919050565b6060838214612d0057604051633009a29d60e01b815260040160405180910390fd5b836001600160401b03811115612d1857612d18614894565b604051908082528060200260200182016040528015612d41578160200160208202803683370190505b50905060005b84811015611c25576000612d66878784818110610de757610de7615154565b90506000612d743383610904565b90506000612d863361ac1d8518610904565b6000848152600a6020526040902090915081831015612dec5780546001600160801b03600160801b8204811691612dbf9186911661527d565b612dc99190615294565b868681518110612ddb57612ddb615154565b602002602001018181525050612e35565b80546001600160801b03600160801b8204811691612e0c9185911661527d565b612e169190615294565b868681518110612e2857612e28615154565b6020026020010181815250505b5050505080612e439061516a565b9050612d47565b612e52613037565b600e8190556040518181527f9ee70d55a8fb5949bbafdc2c166db4f6b56a7f6827fcfc91202d433174fddd0d90602001610a49565b6001600160a01b03918216600090815260016020908152604080832093909416825291909152205460ff1690565b60005b83811015612ef057612ee0858583818110612ed557612ed5615154565b905060c002016116b9565b612ee98161516a565b9050612eb8565b5060005b818110156118ca57612f1c838383818110612f1157612f11615154565b905060c002016111e3565b612f258161516a565b9050612ef4565b336001600160a01b0386168114801590612f4d5750612f4b8682612e87565b155b15612f7e5760405163711bec9160e11b81526001600160a01b03808316600483015287166024820152604401610ad9565b610ec48686868686613b57565b612f93613037565b600680546001600160a01b0383166001600160a01b03199091168117909155612fc46005546001600160a01b031690565b6001600160a01b03167f38d16b8cac22d99fc7c124b9cd0de2d3fa1faef420bfe791d8c362d765e2270060405160405180910390a350565b60005b8181101561195f5761302783838381811061301c5761301c615154565b905060c00201610a54565b6130308161516a565b9050612fff565b6005546001600160a01b031633146118ba5760405163118cdaa760e01b8152336004820152602401610ad9565b60008061307083612bed565b6000818152600a602052604081208054600d5493945090926001600160801b0390911691906130a560808801606089016150b1565b65ffffffffffff166130b791906152e5565b42116130c4576000613100565b600f54600d546130da6080890160608a016150b1565b6130ec9065ffffffffffff16426152f8565b6130f691906152f8565b613100919061527d565b90506000600e5482116131135781613117565b600e545b9050670de0b6b3a764000061312c848361527d565b6115e29190615294565b6040516001600160a01b0383811660248301526044820183905261195f91859182169063a9059cbb906064015b604051602081830303815290604052915060e01b6020820180516001600160e01b038381831617835250505050613bdc565b6002600754036131b857604051633ee5aeb560e01b815260040160405180910390fd5b6002600755565b60006131ca83612bed565b6000818152600a602052604081208054929350916001600160801b03600160801b82048116916131fc9187911661527d565b6132069190615294565b82549091508490839060109061322d908490600160801b90046001600160801b03166150fb565b92506101000a8154816001600160801b0302191690836001600160801b031602179055506132623361325c8590565b86613516565b6132703361ac1d851861325c565b81548190839060009061328d9084906001600160801b03166150fb565b92506101000a8154816001600160801b0302191690836001600160801b031602179055506132c78560a0016020810190610ca29190614ce3565b6132d760c0860160a08701614ce3565b6001600160a01b0316336001600160a01b0316847fcf1a3ef0f593752183a234e8be19cfee17604bb89ac440a2082af12cb1e521298785604051610dae929190918252602082015260400190565b6001600160a01b03841661334f57604051632bfa23e760e11b815260006004820152602401610ad9565b6001600160a01b03851661337857604051626a0d4560e21b815260006004820152602401610ad9565b6118ca8585858585613c3f565b60006115e2836001600160801b0316836001600160801b03166133bc8a8a6001600160801b03168a6001600160801b03168a613c92565b613da6565b6000806133cd83612bed565b6000818152600a6020526040812054600d549293506001600160801b0316916133fc60a08701608088016150b1565b65ffffffffffff1661340e91906152e5565b421161341b576000613457565b600f54600d5461343160a08801608089016150b1565b6134439065ffffffffffff16426152f8565b61344d91906152f8565b613457919061527d565b90506000600e54821161346a578161346e565b600e545b9050670de0b6b3a7640000613483848361527d565b612be39190615294565b600082602001516001600160801b031682856000015186602001516134b291906150fb565b6001600160801b031685600001516001600160801b03168660c0015188602001516134dd91906150fb565b6001600160801b03166134f0919061527d565b6134fa9190615294565b613504919061527d565b61350e9190615294565b949350505050565b6001600160a01b03831661353f57604051626a0d4560e21b815260006004820152602401610ad9565b604080516001808252602082018590528183019081526060820184905260a082019092526000608082018181529192916118ca91879185908590613c3f565b600082602001516001600160801b0316828560000160208101906135a29190615139565b6135b26040880160208901615139565b6135bc91906150fb565b85516001600160801b0391821691166135d86020890189615139565b8760c001516134dd91906150fb565b600680546001600160a01b031916905561192181613dc2565b600061360b87612bed565b6000818152600a6020526040902060020154909150600160301b900465ffffffffffff1615613650576040516366ddd3a160e11b815260048101829052602401610ad9565b60006136626060890160408a01614ce3565b6000838152600a60209081526040822092935061370090600190613688908d018d615139565b61369860408e0160208f01615139565b8b876001600160a01b031663313ce5676040518163ffffffff1660e01b8152600401602060405180830381865afa1580156136d7573d6000803e3d6000fd5b505050506040513d601f19601f820116820180604052508101906136fb91906150cc565b613a6b565b8254909150819083906000906137209084906001600160801b0316615477565b92506101000a8154816001600160801b0302191690836001600160801b031602179055506137628a60a001602081019061375a9190614ce3565b883084613a32565b6001600160a01b038616613774573395505b6001600160a01b038516613786573394505b8154889083906010906137aa908490600160801b90046001600160801b0316615477565b92506101000a8154816001600160801b0302191690836001600160801b031602179055506137ef866137d98690565b8a60405180602001604052806000815250613e14565b6137fd8561ac1d86186137d9565b866001600160a01b031689857f62ff7808ea00e583fb19d210477379494262a6440049251a11f0c05357947757888a8f60a001602081019061383f9190614ce3565b604080516001600160a01b0394851681529284166020840152921681830152606081018e90526080810187905290519081900360a00190a450505050505050505050565b6000306001600160a01b037f0000000000000000000000000000000000000000000000000000000000000000161480156138dc57507f000000000000000000000000000000000000000000000000000000000000000046145b1561390657507f000000000000000000000000000000000000000000000000000000000000000090565b6118db604080517f8b73c3c69bb8fe3d512ecc4cf759cc79239f7b179b0ffacaa9a75d522b39400f60208201527f0000000000000000000000000000000000000000000000000000000000000000918101919091527f000000000000000000000000000000000000000000000000000000000000000060608201524660808201523060a082015260009060c00160405160208183030381529060405280519060200120905090565b60606118db7f00000000000000000000000000000000000000000000000000000000000000006003613e71565b60606118db7f00000000000000000000000000000000000000000000000000000000000000006004613e71565b600080600080613a188686613f1c565b925092509250613a288282613f69565b5090949350505050565b6040516001600160a01b038481166024830152838116604483015260648201839052611cb59186918216906323b872dd90608401613163565b60008083613a7987876150fb565b6001600160801b0316613a8c919061527d565b905086613aad57613a9e83600a61557b565b613aa89082615294565b6115e2565b6115e281613abc85600a61557b565b614022565b6001600160a01b038216613aea5760405162ced3e160e81b815260006004820152602401610ad9565b6001600160a01b03838116600081815260016020908152604080832094871680845294825291829020805460ff191686151590811790915591519182527f17307eab39ab6107e8899845ad3d59bd9653f200f220920489ca2b5937696c31910160405180910390a3505050565b6001600160a01b038416613b8157604051632bfa23e760e11b815260006004820152602401610ad9565b6001600160a01b038516613baa57604051626a0d4560e21b815260006004820152602401610ad9565b604080516001808252602082018690528183019081526060820185905260808201909252906114ac8787848487613c3f565b6000613bf16001600160a01b03841683614043565b90508051600014158015613c16575080806020019051810190613c149190615587565b155b1561195f57604051635274afe760e01b81526001600160a01b0384166004820152602401610ad9565b613c4b85858585614051565b6001600160a01b038416156118ca5782513390600103613c845760208481015190840151613c7d83898985858961425f565b5050610ec4565b610ec4818787878787614383565b6000808311613cf25760405162461bcd60e51b815260206004820152602660248201527f496e64657820736861726573206d7573742062652067726561746572207468616044820152656e207a65726f60d01b6064820152608401610ad9565b83851015613d735760405162461bcd60e51b815260206004820152604260248201527f496e6465782062616c616e6365206d757374206265206772656174657220746860448201527f616e206f7220657175616c20746f2074686520696e697469616c2062616c616e606482015261636560f01b608482015260a401610ad9565b82613d7f83600a61557b565b613d8986886152f8565b613d93919061527d565b613d9d9190615294565b95945050505050565b600061350e84613db6858561446c565b614482565b9392505050565b600580546001600160a01b038381166001600160a01b0319831681179093556040519116919082907f8be0079c531659141344cd1fd0a4f28419497f9722a3daafe3b4186f6b6457e090600090a35050565b6001600160a01b038416613e3e57604051632bfa23e760e11b815260006004820152602401610ad9565b60408051600180825260208201869052818301908152606082018590526080820190925290610ec4600087848487613c3f565b606060ff8314613e8b57613e8483614491565b9050610926565b818054613e9790615067565b80601f0160208091040260200160405190810160405280929190818152602001828054613ec390615067565b8015613f105780601f10613ee557610100808354040283529160200191613f10565b820191906000526020600020905b815481529060010190602001808311613ef357829003601f168201915b50505050509050610926565b60008060008351604103613f565760208401516040850151606086015160001a613f48888285856144d0565b955095509550505050613f62565b50508151600091506002905b9250925092565b6000826003811115613f7d57613f7d6155a4565b03613f86575050565b6001826003811115613f9a57613f9a6155a4565b03613fb85760405163f645eedf60e01b815260040160405180910390fd5b6002826003811115613fcc57613fcc6155a4565b03613fed5760405163fce698f760e01b815260048101829052602401610ad9565b6003826003811115614001576140016155a4565b03610e61576040516335e2f38360e21b815260048101829052602401610ad9565b600081614037576365244e4e6000526004601cfd5b50808206151591040190565b6060613dbb8383600061459f565b80518251146140805781518151604051635b05999160e01b815260048101929092526024820152604401610ad9565b3360005b835181101561418f576020818102858101820151908501909101516001600160a01b03881615614137576000828152602081815260408083206001600160a01b038c16845290915290205481811015614110576040516303dee4c560e01b81526001600160a01b038a166004820152602481018290526044810183905260648101849052608401610ad9565b6000838152602081815260408083206001600160a01b038d16845290915290209082900390555b6001600160a01b0387161561417c576000828152602081815260408083206001600160a01b038b168452909152812080548392906141769084906152e5565b90915550505b5050806141889061516a565b9050614084565b5082516001036142105760208301516000906020840151909150856001600160a01b0316876001600160a01b0316846001600160a01b03167fc3d58168c5ae7397731d063d5bbf3d657854427343f4c083240f7aacaa2d0f628585604051614201929190918252602082015260400190565b60405180910390a450506118ca565b836001600160a01b0316856001600160a01b0316826001600160a01b03167f4a39dc06d4c0dbc64b70af90fd698a233a518aa5d07e595d983b8c0526c8f7fb8686604051610dae9291906155ba565b6001600160a01b0384163b15610ec45760405163f23a6e6160e01b81526001600160a01b0385169063f23a6e61906142a390899089908890889088906004016155df565b6020604051808303816000875af19250505080156142de575060408051601f3d908101601f191682019092526142db91810190615619565b60015b614347573d80801561430c576040519150601f19603f3d011682016040523d82523d6000602084013e614311565b606091505b50805160000361433f57604051632bfa23e760e11b81526001600160a01b0386166004820152602401610ad9565b805181602001fd5b6001600160e01b0319811663f23a6e6160e01b146114ac57604051632bfa23e760e11b81526001600160a01b0386166004820152602401610ad9565b6001600160a01b0384163b15610ec45760405163bc197c8160e01b81526001600160a01b0385169063bc197c81906143c79089908990889088908890600401615636565b6020604051808303816000875af1925050508015614402575060408051601f3d908101601f191682019092526143ff91810190615619565b60015b614430573d80801561430c576040519150601f19603f3d011682016040523d82523d6000602084013e614311565b6001600160e01b0319811663bc197c8160e01b146114ac57604051632bfa23e760e11b81526001600160a01b0386166004820152602401610ad9565b600081831061447b5781613dbb565b5090919050565b600081831161447b5781613dbb565b6060600061449e83614632565b604080516020808252818301909252919250600091906020820181803683375050509182525060208101929092525090565b600080807f7fffffffffffffffffffffffffffffff5d576e7357a4501ddfe92f46681b20a084111561450b5750600091506003905082614595565b604080516000808252602082018084528a905260ff891692820192909252606081018790526080810186905260019060a0016020604051602081039080840390855afa15801561455f573d6000803e3d6000fd5b5050604051601f1901519150506001600160a01b03811661458b57506000925060019150829050614595565b9250600091508190505b9450945094915050565b6060814710156145c45760405163cd78605960e01b8152306004820152602401610ad9565b600080856001600160a01b031684866040516145e09190615694565b60006040518083038185875af1925050503d806000811461461d576040519150601f19603f3d011682016040523d82523d6000602084013e614622565b606091505b5091509150612be386838361465a565b600060ff8216601f81111561092657604051632cd44ac360e21b815260040160405180910390fd5b60608261466f5761466a826146b6565b613dbb565b815115801561468657506001600160a01b0384163b155b156146af57604051639996b31560e01b81526001600160a01b0385166004820152602401610ad9565b5080613dbb565b8051156146c65780518082602001fd5b604051630a12f52160e11b815260040160405180910390fd5b80356001600160a01b03811681146146f657600080fd5b919050565b6000806040838503121561470e57600080fd5b614717836146df565b946020939093013593505050565b6001600160e01b03198116811461192157600080fd5b60006020828403121561474d57600080fd5b8135613dbb81614725565b60006020828403121561476a57600080fd5b5035919050565b60005b8381101561478c578181015183820152602001614774565b50506000910152565b600081518084526147ad816020860160208601614771565b601f01601f19169290920160200192915050565b602081526000613dbb6020830184614795565b600060c082840312156147e657600080fd5b50919050565b600060c082840312156147fe57600080fd5b613dbb83836147d4565b60008083601f84011261481a57600080fd5b5081356001600160401b0381111561483157600080fd5b60208301915083602060c08302850101111561484c57600080fd5b9250929050565b6000806020838503121561486657600080fd5b82356001600160401b0381111561487c57600080fd5b61488885828601614808565b90969095509350505050565b634e487b7160e01b600052604160045260246000fd5b604051601f8201601f191681016001600160401b03811182821017156148d2576148d2614894565b604052919050565b60006001600160401b038211156148f3576148f3614894565b5060051b60200190565b600082601f83011261490e57600080fd5b8135602061492361491e836148da565b6148aa565b82815260059290921b8401810191818101908684111561494257600080fd5b8286015b8481101561495d5780358352918301918301614946565b509695505050505050565b600082601f83011261497957600080fd5b81356001600160401b0381111561499257614992614894565b6149a5601f8201601f19166020016148aa565b8181528460208386010111156149ba57600080fd5b816020850160208301376000918101602001919091529392505050565b600080600080600060a086880312156149ef57600080fd5b6149f8866146df565b9450614a06602087016146df565b935060408601356001600160401b0380821115614a2257600080fd5b614a2e89838a016148fd565b94506060880135915080821115614a4457600080fd5b614a5089838a016148fd565b93506080880135915080821115614a6657600080fd5b50614a7388828901614968565b9150509295509295909350565b600081518084526020808501945080840160005b83811015614ab057815187529582019590820190600101614a94565b509495945050505050565b602081526000613dbb6020830184614a80565b60008083601f840112614ae057600080fd5b5081356001600160401b03811115614af757600080fd5b6020830191508360206102a08302850101111561484c57600080fd5b60008083601f840112614b2557600080fd5b5081356001600160401b03811115614b3c57600080fd5b6020830191508360208260051b850101111561484c57600080fd5b60008060008060008060608789031215614b7057600080fd5b86356001600160401b0380821115614b8757600080fd5b614b938a838b01614ace565b90985096506020890135915080821115614bac57600080fd5b614bb88a838b01614b13565b90965094506040890135915080821115614bd157600080fd5b50614bde89828a01614b13565b979a9699509497509295939492505050565b60008060e08385031215614c0357600080fd5b614c0d84846147d4565b9150614c1b60c084016146df565b90509250929050565b60008060408385031215614c3757600080fd5b82356001600160401b0380821115614c4e57600080fd5b818501915085601f830112614c6257600080fd5b81356020614c7261491e836148da565b82815260059290921b84018101918181019089841115614c9157600080fd5b948201945b83861015614cb657614ca7866146df565b82529482019490820190614c96565b96505086013592505080821115614ccc57600080fd5b50614cd9858286016148fd565b9150509250929050565b600060208284031215614cf557600080fd5b613dbb826146df565b60008060008060006101408688031215614d1757600080fd5b614d2187876147d4565b945060c0860135935060e08601359250614d3e61010087016146df565b9150614d4d61012087016146df565b90509295509295909350565b60ff60f81b8816815260e060208201526000614d7860e0830189614795565b8281036040840152614d8a8189614795565b606084018890526001600160a01b038716608085015260a0840186905283810360c08501529050614dbb8185614a80565b9a9950505050505050505050565b60008060008060408587031215614ddf57600080fd5b84356001600160401b0380821115614df657600080fd5b614e0288838901614808565b90965094506020870135915080821115614e1b57600080fd5b50614e2887828801614b13565b95989497509550505050565b60006102a082840312156147e657600080fd5b6000806000806102e08587031215614e5e57600080fd5b614e688686614e34565b93506102a08501356001600160401b0380821115614e8557600080fd5b818701915087601f830112614e9957600080fd5b813581811115614ea857600080fd5b886020828501011115614eba57600080fd5b9598602092909201975094956102c00135945092505050565b60008060208385031215614ee657600080fd5b82356001600160401b03811115614efc57600080fd5b61488885828601614ace565b801515811461192157600080fd5b60008060408385031215614f2957600080fd5b614f32836146df565b91506020830135614f4281614f08565b809150509250929050565b6000806102c08385031215614f6157600080fd5b614f6b8484614e34565b946102a0939093013593505050565b60008060408385031215614f8d57600080fd5b614f96836146df565b9150614c1b602084016146df565b60008060008060408587031215614fba57600080fd5b84356001600160401b0380821115614fd157600080fd5b614fdd88838901614808565b90965094506020870135915080821115614ff657600080fd5b50614e2887828801614808565b600080600080600060a0868803121561501b57600080fd5b615024866146df565b9450615032602087016146df565b9350604086013592506060860135915060808601356001600160401b0381111561505b57600080fd5b614a7388828901614968565b600181811c9082168061507b57607f821691505b6020821081036147e657634e487b7160e01b600052602260045260246000fd5b803565ffffffffffff811681146146f657600080fd5b6000602082840312156150c357600080fd5b613dbb8261509b565b6000602082840312156150de57600080fd5b5051919050565b634e487b7160e01b600052601160045260246000fd5b6001600160801b0382811682821603908082111561511b5761511b6150e5565b5092915050565b80356001600160801b03811681146146f657600080fd5b60006020828403121561514b57600080fd5b613dbb82615122565b634e487b7160e01b600052603260045260246000fd5b60006001820161517c5761517c6150e5565b5060010190565b600060c0828403121561519557600080fd5b60405160c081018181106001600160401b03821117156151b7576151b7614894565b6040526151c383615122565b81526151d160208401615122565b60208201526151e2604084016146df565b60408201526151f36060840161509b565b60608201526152046080840161509b565b608082015261521560a084016146df565b60a08201529392505050565b6000808335601e1984360301811261523857600080fd5b8301803591506001600160401b0382111561525257600080fd5b60200191503681900382131561484c57600080fd5b634e487b7160e01b600052600160045260246000fd5b8082028115828204841417610926576109266150e5565b6000826152b157634e487b7160e01b600052601260045260246000fd5b500490565b60208152816020820152818360408301376000818301604090810191909152601f909201601f19160101919050565b80820180821115610926576109266150e5565b81810381811115610926576109266150e5565b9586526001600160a01b039490941660208601526001600160801b039290921660408501526060840152608083015260a082015260c00190565b82815260e081016001600160801b038061535e85615122565b1660208401528061537160208601615122565b16604084015250615384604084016146df565b60018060a01b03808216606085015261539f6060860161509b565b915065ffffffffffff8083166080860152806153bd6080880161509b565b1660a086015250806153d160a087016146df565b1660c085015250509392505050565b8c81526001600160a01b038c811660208301528b8116604083015265ffffffffffff8b16606083015289811660808301526001600160801b0389811660a0840152881660c083015260e08201879052851661010082015261018081016154526101208301866001600160801b03169052565b6001600160801b039390931661014082015261016001529a9950505050505050505050565b6001600160801b0381811683821601908082111561511b5761511b6150e5565b600181815b808511156154d25781600019048211156154b8576154b86150e5565b808516156154c557918102915b93841c939080029061549c565b509250929050565b6000826154e957506001610926565b816154f657506000610926565b816001811461550c576002811461551657615532565b6001915050610926565b60ff841115615527576155276150e5565b50506001821b610926565b5060208310610133831016604e8410600b8410161715615555575081810a610926565b61555f8383615497565b8060001904821115615573576155736150e5565b029392505050565b6000613dbb83836154da565b60006020828403121561559957600080fd5b8151613dbb81614f08565b634e487b7160e01b600052602160045260246000fd5b6040815260006155cd6040830185614a80565b8281036020840152613d9d8185614a80565b6001600160a01b03868116825285166020820152604081018490526060810183905260a0608082018190526000906115e290830184614795565b60006020828403121561562b57600080fd5b8151613dbb81614725565b6001600160a01b0386811682528516602082015260a06040820181905260009061566290830186614a80565b82810360608401526156748186614a80565b905082810360808401526156888185614795565b98975050505050505050565b600082516156a6818460208701614771565b919091019291505056fea26469706673582212204c28f4e6e87d818eb79588dbd01812f54731a3e2af40416dbf0664674ea7e31764736f6c63430008140033","linkReferences":{}},"methodIdentifiers":{"INVERSE_BASIS_POINT()":"cae6047f","MAX_FILL_FEE_BPS()":"2556bc15","TOKENID_SALT()":"ec9f8ae8","acceptOwnership()":"79ba5097","balanceOf(address,uint256)":"00fdd58e","balanceOfBatch(address[],uint256[])":"4e1273f4","bountyFractionIncreasePerSecond()":"1d0fa9cf","bountyGracePeriod()":"e1c67091","cancelOrders((address,address,uint48,address,uint128,(uint128,uint128,address,uint48,uint48,address),uint128,address,uint128,(uint128,uint128,address,uint48,uint48,address),uint128)[])":"a0fadc35","collateralRefund((uint128,uint128,address,uint48,uint48,address)[],uint256[])":"934ed732","collateralizedMint((uint128,uint128,address,uint48,uint48,address),bytes32,uint256,address,address)":"71e109d4","domainSeparatorV4()":"78e890ba","eip712Domain()":"84b0196e","endBounty((uint128,uint128,address,uint48,uint48,address)[])":"34d2efe5","endPool((uint128,uint128,address,uint48,uint48,address))":"312f14ba","endPools((uint128,uint128,address,uint48,uint48,address)[])":"7d1a7558","fillFeeBps()":"fe2de08c","fillOrder((address,address,uint48,address,uint128,(uint128,uint128,address,uint48,uint48,address),uint128,address,uint128,(uint128,uint128,address,uint48,uint48,address),uint128),bytes,uint256)":"992cc7cb","fillOrders((address,address,uint48,address,uint128,(uint128,uint128,address,uint48,uint48,address),uint128,address,uint128,(uint128,uint128,address,uint48,uint48,address),uint128)[],bytes[],uint256[])":"3ba1a0df","fromLongTokenId(uint256)":"d7e5ae9f","fromShortTokenId(uint256)":"f2499585","hashOrder((address,address,uint48,address,uint128,(uint128,uint128,address,uint48,uint48,address),uint128,address,uint128,(uint128,uint128,address,uint48,uint48,address),uint128),bytes32)":"c4cde46b","hashPool((uint128,uint128,address,uint48,uint48,address))":"c837a941","isApprovedForAll(address,address)":"e985e9c5","maxBountyFraction()":"6c0dc979","maxCollateralRefund((uint128,uint128,address,uint48,uint48,address)[])":"29fa8b87","orderCancelled(bytes32)":"5889bf5e","owner()":"8da5cb5b","pause()":"8456cb59","paused()":"5c975abb","pendingOwner()":"e30c3978","poolState(bytes32)":"e0b01bac","redeem((uint128,uint128,address,uint48,uint48,address)[],(uint128,uint128,address,uint48,uint48,address)[])":"f0cd6751","redeemLong((uint128,uint128,address,uint48,uint48,address))":"51594173","redeemShort((uint128,uint128,address,uint48,uint48,address))":"3305d6b1","renounceOwnership()":"715018a6","sBountyFractionIncreasePerSecond()":"9c9b381c","sBountyGracePeriod()":"f50ec602","sMaxBountyFraction()":"8c8c29ce","safeBatchTransferFrom(address,address,uint256[],uint256[],bytes)":"2eb2c2d6","safeTransferFrom(address,address,uint256,uint256,bytes)":"f242432a","setApprovalForAll(address,bool)":"a22cb465","setBountyFractionIncreasePerSecond(uint256)":"13208d1b","setBountyGracePeriod(uint256)":"88018540","setFillFeeBps(uint256)":"a2b597ee","setMaxBountyFraction(uint256)":"d6dc6b04","setTreasuryAddress(address)":"6605bfda","startBounty((uint128,uint128,address,uint48,uint48,address)[])":"5b72928c","startPool((uint128,uint128,address,uint48,uint48,address))":"19b87556","startPools((uint128,uint128,address,uint48,uint48,address)[])":"f5d213f2","supportsInterface(bytes4)":"01ffc9a7","toLongTokenId(bytes32)":"e5c168a8","toShortTokenId(bytes32)":"bda9f386","transferOwnership(address)":"f2fde38b","treasuryAddress()":"c5f956af","unpause()":"3f4ba83a","uri(uint256)":"0e89341c","viewCollateralRefund((uint128,uint128,address,uint48,uint48,address)[],uint256[])":"8f409d26","viewMaxCollateralRefund((uint128,uint128,address,uint48,uint48,address)[],address[])":"ccaaa520","viewRedeemLong((uint128,uint128,address,uint48,uint48,address),address)":"8ac86f1a","viewRedeemShort((uint128,uint128,address,uint48,uint48,address),address)":"4cd21543"},"id":0}