{"abi":[{"type":"constructor","inputs":[],"stateMutability":"nonpayable"},{"type":"function","name":"sweep","inputs":[{"name":"target","type":"address","internalType":"address"},{"name":"to","type":"address","internalType":"address"}],"outputs":[],"stateMutability":"nonpayable"}],"bytecode":{"object":"0x60808060405234601557610548908161001a8239f35b5f80fdfe60806040526004361015610011575f80fd5b5f3560e01c63b8dc491b14610024575f80fd5b34610137576040366003190112610137576004356001600160a01b03811690819003610137576024356001600160a01b038116908181036101375761006883610221565b915f5b6008811061014e575b50506040516370a0823160e01b8152306004820152909150602081602481865afa908115610143575f9161010d575b50806100ab57005b60405163a9059cbb60e01b81526001600160a01b03929092166004830152602482015290602090829060449082905f905af16100e357005b6101049060203d602011610106575b6100fc81836101d3565b810190610209565b005b503d6100f2565b90506020813d60201161013b575b81610128602093836101d3565b8101031261013757515f6100a3565b5f80fd5b3d915061011b565b6040513d5f823e3d90fd5b61015984308761037f565b90156101cd57604051906323b872dd60e01b825230600483015283602483015260448201526020816064815f8a5af15f91816101ad575b5061019b5750610074565b156101a85760010161006b565b610074565b6101c691925060203d8111610106576100fc81836101d3565b905f610190565b50610074565b90601f8019910116810190811067ffffffffffffffff8211176101f557604052565b634e487b7160e01b5f52604160045260245ffd5b90816020910312610137575180151581036101375790565b604051635afcc2f560e01b81526001600160a01b038216602082600481845afa918215610143575f9261034b575b508115610343576020600491604051928380926318160ddd60e01b82525afa908115610143575f91610311575b500491600183018093116102d8579160015b600181018082116102d8578211156102ec578082038281116102d85760011c8101908181116102d8576102c1828561043f565b156102cf5750925b9261028e565b939150906102c9565b634e487b7160e01b5f52601160045260245ffd5b6102f89150809261043f565b1561030b57600181018091116102d85790565b50600190565b90506020813d60201161033b575b8161032c602093836101d3565b8101031261013757515f61027c565b3d915061031f565b505050600190565b9091506020813d602011610377575b81610367602093836101d3565b810103126101375751905f61024f565b3d915061035a565b919291906001600160a01b038116158015610434575b61042a5760015b8481106103ae5750505090505f905f90565b6040516362dc7bb960e11b81526001600160a01b038316600482015260248101829052602081806044810103816001600160a01b0388165afa908115610143575f9161040c575b506104025760010161039c565b9350505060019190565b610424915060203d8111610106576100fc81836101d3565b5f6103f5565b505090505f905f90565b506001841115610395565b90801561050c5760405163c87b56dd60e01b81526004810191909152905f90829060249082906001600160a01b03165afa9081610485575b50610480575f90565b600190565b3d805f833e61049481836101d3565b8101906020818303126101375780519067ffffffffffffffff8211610137570181601f820112156101375780519067ffffffffffffffff82116101f557604051926104e9601f8401601f1916602001856101d3565b8284526020838301011161013757815f9260208093018386015e83010152610477565b50505f9056fea264697066735822122050a552eac9344ccd613319f7179c3ab5494adfc8569bd47f147f6bbb1d5a06f164736f6c634300081e0033","linkReferences":{}},"methodIdentifiers":{"sweep(address,address)":"b8dc491b"},"id":0}