{"abi":[{"type":"constructor","inputs":[],"stateMutability":"nonpayable"},{"type":"function","name":"EXPECTED_REWARD_TOKEN","inputs":[],"outputs":[{"name":"","type":"address","internalType":"address"}],"stateMutability":"view"},{"type":"function","name":"EXPECTED_STAKING_TOKEN","inputs":[],"outputs":[{"name":"","type":"address","internalType":"address"}],"stateMutability":"view"},{"type":"function","name":"TARGET","inputs":[],"outputs":[{"name":"","type":"address","internalType":"address"}],"stateMutability":"view"},{"type":"function","name":"attackerRecordedStakeAfter","inputs":[],"outputs":[{"name":"","type":"uint256","internalType":"uint256"}],"stateMutability":"view"},{"type":"function","name":"attackerRecordedStakeBefore","inputs":[],"outputs":[{"name":"","type":"uint256","internalType":"uint256"}],"stateMutability":"view"},{"type":"function","name":"attackerWalletBalanceAfter","inputs":[],"outputs":[{"name":"","type":"uint256","internalType":"uint256"}],"stateMutability":"view"},{"type":"function","name":"attackerWalletBalanceBefore","inputs":[],"outputs":[{"name":"","type":"uint256","internalType":"uint256"}],"stateMutability":"view"},{"type":"function","name":"drainedRounds","inputs":[],"outputs":[{"name":"","type":"uint256","internalType":"uint256"}],"stateMutability":"view"},{"type":"function","name":"executeOnOpportunity","inputs":[],"outputs":[],"stateMutability":"nonpayable"},{"type":"function","name":"executed","inputs":[],"outputs":[{"name":"","type":"bool","internalType":"bool"}],"stateMutability":"view"},{"type":"function","name":"exploitPathUsed","inputs":[],"outputs":[{"name":"","type":"string","internalType":"string"}],"stateMutability":"view"},{"type":"function","name":"failureReason","inputs":[],"outputs":[{"name":"","type":"string","internalType":"string"}],"stateMutability":"view"},{"type":"function","name":"farmStakingBalanceAfter","inputs":[],"outputs":[{"name":"","type":"uint256","internalType":"uint256"}],"stateMutability":"view"},{"type":"function","name":"farmStakingBalanceBefore","inputs":[],"outputs":[{"name":"","type":"uint256","internalType":"uint256"}],"stateMutability":"view"},{"type":"function","name":"farmTotalSupplyAfter","inputs":[],"outputs":[{"name":"","type":"uint256","internalType":"uint256"}],"stateMutability":"view"},{"type":"function","name":"farmTotalSupplyBefore","inputs":[],"outputs":[{"name":"","type":"uint256","internalType":"uint256"}],"stateMutability":"view"},{"type":"function","name":"hypothesisResult","inputs":[],"outputs":[{"name":"","type":"string","internalType":"string"}],"stateMutability":"view"},{"type":"function","name":"hypothesisValidated","inputs":[],"outputs":[{"name":"","type":"bool","internalType":"bool"}],"stateMutability":"view"},{"type":"function","name":"profitAchieved","inputs":[],"outputs":[{"name":"","type":"bool","internalType":"bool"}],"stateMutability":"view"},{"type":"function","name":"profitAmount","inputs":[],"outputs":[{"name":"","type":"uint256","internalType":"uint256"}],"stateMutability":"view"},{"type":"function","name":"profitToken","inputs":[],"outputs":[{"name":"","type":"address","internalType":"address"}],"stateMutability":"view"},{"type":"function","name":"rewardsTokenObserved","inputs":[],"outputs":[{"name":"","type":"address","internalType":"address"}],"stateMutability":"view"},{"type":"function","name":"stakingTokenObserved","inputs":[],"outputs":[{"name":"","type":"address","internalType":"address"}],"stateMutability":"view"}],"bytecode":{"object":"0x608060405234801561000f575f5ffd5b5073b1bbeea2da2905e6b0a30203aef55c399c53d042600f5f6101000a81548173ffffffffffffffffffffffffffffffffffffffff021916908373ffffffffffffffffffffffffffffffffffffffff1602179055506040518060400160405280600a81526020017f756e657865637574656400000000000000000000000000000000000000000000815250600190816100a891906102eb565b506103ba565b5f81519050919050565b7f4e487b71000000000000000000000000000000000000000000000000000000005f52604160045260245ffd5b7f4e487b71000000000000000000000000000000000000000000000000000000005f52602260045260245ffd5b5f600282049050600182168061012957607f821691505b60208210810361013c5761013b6100e5565b5b50919050565b5f819050815f5260205f209050919050565b5f6020601f8301049050919050565b5f82821b905092915050565b5f6008830261019e7fffffffffffffffffffffffffffffffffffffffffffffffffffffffffffffffff82610163565b6101a88683610163565b95508019841693508086168417925050509392505050565b5f819050919050565b5f819050919050565b5f6101ec6101e76101e2846101c0565b6101c9565b6101c0565b9050919050565b5f819050919050565b610205836101d2565b610219610211826101f3565b84845461016f565b825550505050565b5f5f905090565b610230610221565b61023b8184846101fc565b505050565b5b8181101561025e576102535f82610228565b600181019050610241565b5050565b601f8211156102a35761027481610142565b61027d84610154565b8101602085101561028c578190505b6102a061029885610154565b830182610240565b50505b505050565b5f82821c905092915050565b5f6102c35f19846008026102a8565b1980831691505092915050565b5f6102db83836102b4565b9150826002028217905092915050565b6102f4826100ae565b67ffffffffffffffff81111561030d5761030c6100b8565b5b6103178254610112565b610322828285610262565b5f60209050601f831160018114610353575f8415610341578287015190505b61034b85826102d0565b8655506103b2565b601f19841661036186610142565b5f5b8281101561038857848901518255600182019150602085019450602081019050610363565b868310156103a557848901516103a1601f8916826102b4565b8355505b6001600288020188555050505b505050505050565b611b99806103c75f395ff3fe608060405234801561000f575f5ffd5b506004361061014b575f3560e01c80635ff972cc116100c1578063aa7035c91161007a578063aa7035c914610339578063c2dda9a614610357578063cc1f2afa14610375578063d78c428114610393578063ef4ab04c146103b1578063f0a01176146103cf5761014b565b80635ff972cc1461028557806372cdc3d4146102a357806376a0387f146102c15780637fd9f283146102df57806382198630146102fd5780638ec63e141461031b5761014b565b8063463defd111610113578063463defd1146101d157806347d6042e146101ef578063493436241461020d5780634f9522a41461022b57806350e85e82146102495780635b540c8f146102675761014b565b80630263ccc81461014f578063072b0a261461016d57806331a38c891461018b5780633651b7ef146101a95780633c2448ed146101c7575b5f5ffd5b6101576103ed565b6040516101649190611374565b60405180910390f35b610175610412565b60405161018291906113a5565b60405180910390f35b610193610418565b6040516101a091906113d8565b60405180910390f35b6101b1610429565b6040516101be9190611374565b60405180910390f35b6101cf610441565b005b6101d9610e71565b6040516101e691906113d8565b60405180910390f35b6101f7610e83565b60405161020491906113a5565b60405180910390f35b610215610e89565b6040516102229190611374565b60405180910390f35b610233610eb1565b6040516102409190611461565b60405180910390f35b610251610f3d565b60405161025e9190611374565b60405180910390f35b61026f610f62565b60405161027c91906113a5565b60405180910390f35b61028d610f68565b60405161029a91906113a5565b60405180910390f35b6102ab610f71565b6040516102b891906113a5565b60405180910390f35b6102c9610f77565b6040516102d69190611461565b60405180910390f35b6102e7611003565b6040516102f491906113a5565b60405180910390f35b610305611009565b60405161031291906113a5565b60405180910390f35b61032361100f565b60405161033091906113a5565b60405180910390f35b610341611015565b60405161034e91906113a5565b60405180910390f35b61035f61101b565b60405161036c91906113a5565b60405180910390f35b61037d611021565b60405161038a9190611374565b60405180910390f35b61039b611039565b6040516103a89190611461565b60405180910390f35b6103b96110c5565b6040516103c69190611374565b60405180910390f35b6103d76110dd565b6040516103e491906113d8565b60405180910390f35b60035f9054906101000a900473ffffffffffffffffffffffffffffffffffffffff1681565b60065481565b5f5f9054906101000a900460ff1681565b73b1bbeea2da2905e6b0a30203aef55c399c53d04281565b5f5f9054906101000a900460ff16610e6f5760015f5f6101000a81548160ff0219169083151502179055505f73b3fb1d01b07a706736ca175f827e4f56021b85de90508073ffffffffffffffffffffffffffffffffffffffff166372f702f36040518163ffffffff1660e01b8152600401602060405180830381865afa1580156104cd573d5f5f3e3d5ffd5b505050506040513d601f19601f820116820180604052508101906104f191906114b8565b60025f6101000a81548173ffffffffffffffffffffffffffffffffffffffff021916908373ffffffffffffffffffffffffffffffffffffffff1602179055508073ffffffffffffffffffffffffffffffffffffffff1663d1af0c7d6040518163ffffffff1660e01b8152600401602060405180830381865afa158015610579573d5f5f3e3d5ffd5b505050506040513d601f19601f8201168201806040525081019061059d91906114b8565b60035f6101000a81548173ffffffffffffffffffffffffffffffffffffffff021916908373ffffffffffffffffffffffffffffffffffffffff16021790555060025f9054906101000a900473ffffffffffffffffffffffffffffffffffffffff16600f5f6101000a81548173ffffffffffffffffffffffffffffffffffffffff021916908373ffffffffffffffffffffffffffffffffffffffff1602179055508073ffffffffffffffffffffffffffffffffffffffff166370a08231306040518263ffffffff1660e01b81526004016106769190611374565b602060405180830381865afa158015610691573d5f5f3e3d5ffd5b505050506040513d601f19601f820116820180604052508101906106b5919061150d565b6004819055508073ffffffffffffffffffffffffffffffffffffffff166318160ddd6040518163ffffffff1660e01b8152600401602060405180830381865afa158015610704573d5f5f3e3d5ffd5b505050506040513d601f19601f82011682018060405250810190610728919061150d565b60068190555060025f9054906101000a900473ffffffffffffffffffffffffffffffffffffffff1673ffffffffffffffffffffffffffffffffffffffff166370a0823173b3fb1d01b07a706736ca175f827e4f56021b85de6040518263ffffffff1660e01b815260040161079c9190611374565b602060405180830381865afa1580156107b7573d5f5f3e3d5ffd5b505050506040513d601f19601f820116820180604052508101906107db919061150d565b60088190555060025f9054906101000a900473ffffffffffffffffffffffffffffffffffffffff1673ffffffffffffffffffffffffffffffffffffffff166370a08231306040518263ffffffff1660e01b815260040161083b9190611374565b602060405180830381865afa158015610856573d5f5f3e3d5ffd5b505050506040513d601f19601f8201168201806040525081019061087a919061150d565b600a8190555060405180610140016040528061011781526020016119e46101179139600d90816108aa9190611762565b5073b1bbeea2da2905e6b0a30203aef55c399c53d04273ffffffffffffffffffffffffffffffffffffffff1660025f9054906101000a900473ffffffffffffffffffffffffffffffffffffffff1673ffffffffffffffffffffffffffffffffffffffff1614158061097c575073ae9aca5d20f5b139931935378c4489308394ca2c73ffffffffffffffffffffffffffffffffffffffff1660035f9054906101000a900473ffffffffffffffffffffffffffffffffffffffff1673ffffffffffffffffffffffffffffffffffffffff1614155b156109fd57604051806060016040528060398152602001611b2b60399139600e90816109a89190611762565b506109b2816110ef565b6040518060400160405280600781526020017f7265667574656400000000000000000000000000000000000000000000000000815250600190816109f69190611762565b5050610e6f565b5f60085403610a8257604051806060016040528060308152602001611afb60309139600e9081610a2d9190611762565b50610a37816110ef565b6040518060400160405280600781526020017f726566757465640000000000000000000000000000000000000000000000000081525060019081610a7b9190611762565b5050610e6f565b5f60085490505f8190505b5f8214610c8c578273ffffffffffffffffffffffffffffffffffffffff16632e1a7d4d836040518263ffffffff1660e01b8152600401610acd91906113a5565b5f604051808303815f87803b158015610ae4575f5ffd5b505af1925050508015610af5575060015b610b8257610b0161183d565b806308c379a003610b365750610b1561188d565b80610b205750610b38565b80600e9081610b2f9190611762565b5050610c8c565b505b6040518060400160405280601181526020017f7769746864726177207265766572746564000000000000000000000000000000815250600e9081610b7c9190611762565b50610c8c565b6001600c5f828254610b949190611949565b925050819055505f60025f9054906101000a900473ffffffffffffffffffffffffffffffffffffffff1673ffffffffffffffffffffffffffffffffffffffff166370a0823173b3fb1d01b07a706736ca175f827e4f56021b85de6040518263ffffffff1660e01b8152600401610c0a9190611374565b602060405180830381865afa158015610c25573d5f5f3e3d5ffd5b505050506040513d601f19601f82011682018060405250810190610c49919061150d565b9050818110610c80576040518060600160405280603481526020016119b060349139600e9081610c799190611762565b5050610c8c565b80915080925050610a8d565b610c95836110ef565b600a54600b541115610cd257600a54600b54610cb1919061197c565b60108190555060015f60016101000a81548160ff0219169083151502179055505b5f60105414158015610ce75750600854600454105b8015610d53575073b1bbeea2da2905e6b0a30203aef55c399c53d04273ffffffffffffffffffffffffffffffffffffffff1660025f9054906101000a900473ffffffffffffffffffffffffffffffffffffffff1673ffffffffffffffffffffffffffffffffffffffff16145b8015610dbf575073ae9aca5d20f5b139931935378c4489308394ca2c73ffffffffffffffffffffffffffffffffffffffff1660035f9054906101000a900473ffffffffffffffffffffffffffffffffffffffff1673ffffffffffffffffffffffffffffffffffffffff16145b5f60026101000a81548160ff0219169083151502179055505f60029054906101000a900460ff16610e25576040518060400160405280600781526020017f7265667574656400000000000000000000000000000000000000000000000000815250610e5c565b6040518060400160405280600981526020017f76616c69646174656400000000000000000000000000000000000000000000008152505b60019081610e6a9190611762565b505050505b565b5f60029054906101000a900460ff1681565b600b5481565b5f600f5f9054906101000a900473ffffffffffffffffffffffffffffffffffffffff16905090565b600e8054610ebe90611592565b80601f0160208091040260200160405190810160405280929190818152602001828054610eea90611592565b8015610f355780601f10610f0c57610100808354040283529160200191610f35565b820191905f5260205f20905b815481529060010190602001808311610f1857829003601f168201915b505050505081565b60025f9054906101000a900473ffffffffffffffffffffffffffffffffffffffff1681565b60075481565b5f601054905090565b60045481565b60018054610f8490611592565b80601f0160208091040260200160405190810160405280929190818152602001828054610fb090611592565b8015610ffb5780601f10610fd257610100808354040283529160200191610ffb565b820191905f5260205f20905b815481529060010190602001808311610fde57829003601f168201915b505050505081565b600a5481565b60085481565b60055481565b600c5481565b60095481565b73b3fb1d01b07a706736ca175f827e4f56021b85de81565b600d805461104690611592565b80601f016020809104026020016040519081016040528092919081815260200182805461107290611592565b80156110bd5780601f10611094576101008083540402835291602001916110bd565b820191905f5260205f20905b8154815290600101906020018083116110a057829003601f168201915b505050505081565b73ae9aca5d20f5b139931935378c4489308394ca2c81565b5f60019054906101000a900460ff1681565b8073ffffffffffffffffffffffffffffffffffffffff166370a08231306040518263ffffffff1660e01b81526004016111289190611374565b602060405180830381865afa158015611143573d5f5f3e3d5ffd5b505050506040513d601f19601f82011682018060405250810190611167919061150d565b6005819055508073ffffffffffffffffffffffffffffffffffffffff166318160ddd6040518163ffffffff1660e01b8152600401602060405180830381865afa1580156111b6573d5f5f3e3d5ffd5b505050506040513d601f19601f820116820180604052508101906111da919061150d565b60078190555060025f9054906101000a900473ffffffffffffffffffffffffffffffffffffffff1673ffffffffffffffffffffffffffffffffffffffff166370a0823173b3fb1d01b07a706736ca175f827e4f56021b85de6040518263ffffffff1660e01b815260040161124e9190611374565b602060405180830381865afa158015611269573d5f5f3e3d5ffd5b505050506040513d601f19601f8201168201806040525081019061128d919061150d565b60098190555060025f9054906101000a900473ffffffffffffffffffffffffffffffffffffffff1673ffffffffffffffffffffffffffffffffffffffff166370a08231306040518263ffffffff1660e01b81526004016112ed9190611374565b602060405180830381865afa158015611308573d5f5f3e3d5ffd5b505050506040513d601f19601f8201168201806040525081019061132c919061150d565b600b8190555050565b5f73ffffffffffffffffffffffffffffffffffffffff82169050919050565b5f61135e82611335565b9050919050565b61136e81611354565b82525050565b5f6020820190506113875f830184611365565b92915050565b5f819050919050565b61139f8161138d565b82525050565b5f6020820190506113b85f830184611396565b92915050565b5f8115159050919050565b6113d2816113be565b82525050565b5f6020820190506113eb5f8301846113c9565b92915050565b5f81519050919050565b5f82825260208201905092915050565b8281835e5f83830152505050565b5f601f19601f8301169050919050565b5f611433826113f1565b61143d81856113fb565b935061144d81856020860161140b565b61145681611419565b840191505092915050565b5f6020820190508181035f8301526114798184611429565b905092915050565b5f604051905090565b5f5ffd5b61149781611354565b81146114a1575f5ffd5b50565b5f815190506114b28161148e565b92915050565b5f602082840312156114cd576114cc61148a565b5b5f6114da848285016114a4565b91505092915050565b6114ec8161138d565b81146114f6575f5ffd5b50565b5f81519050611507816114e3565b92915050565b5f602082840312156115225761152161148a565b5b5f61152f848285016114f9565b91505092915050565b7f4e487b71000000000000000000000000000000000000000000000000000000005f52604160045260245ffd5b7f4e487b71000000000000000000000000000000000000000000000000000000005f52602260045260245ffd5b5f60028204905060018216806115a957607f821691505b6020821081036115bc576115bb611565565b5b50919050565b5f819050815f5260205f209050919050565b5f6020601f8301049050919050565b5f82821b905092915050565b5f6008830261161e7fffffffffffffffffffffffffffffffffffffffffffffffffffffffffffffffff826115e3565b61162886836115e3565b95508019841693508086168417925050509392505050565b5f819050919050565b5f61166361165e6116598461138d565b611640565b61138d565b9050919050565b5f819050919050565b61167c83611649565b6116906116888261166a565b8484546115ef565b825550505050565b5f5f905090565b6116a7611698565b6116b2818484611673565b505050565b5b818110156116d5576116ca5f8261169f565b6001810190506116b8565b5050565b601f82111561171a576116eb816115c2565b6116f4846115d4565b81016020851015611703578190505b61171761170f856115d4565b8301826116b7565b50505b505050565b5f82821c905092915050565b5f61173a5f198460080261171f565b1980831691505092915050565b5f611752838361172b565b9150826002028217905092915050565b61176b826113f1565b67ffffffffffffffff81111561178457611783611538565b5b61178e8254611592565b6117998282856116d9565b5f60209050601f8311600181146117ca575f84156117b8578287015190505b6117c28582611747565b865550611829565b601f1984166117d8866115c2565b5f5b828110156117ff578489015182556001820191506020850194506020810190506117da565b8683101561181c5784890151611818601f89168261172b565b8355505b6001600288020188555050505b505050505050565b5f8160e01c9050919050565b5f60033d11156118595760045f5f3e6118565f51611831565b90505b90565b61186582611419565b810181811067ffffffffffffffff8211171561188457611883611538565b5b80604052505050565b5f60443d106119195761189e611481565b60043d036004823e80513d602482011167ffffffffffffffff821117156118c6575050611919565b808201805167ffffffffffffffff8111156118e45750505050611919565b80602083010160043d038501811115611901575050505050611919565b6119108260200185018661185c565b82955050505050505b90565b7f4e487b71000000000000000000000000000000000000000000000000000000005f52601160045260245ffd5b5f6119538261138d565b915061195e8361138d565b92508282019050808211156119765761197561191c565b5b92915050565b5f6119868261138d565b91506119918361138d565b92508282039050818111156119a9576119a861191c565b5b9291505056fe6661726d207374616b696e672062616c616e636520646964206e6f7420646563726561736520616674657220776974686472617763616c6c20776974686472617728616d6f756e74292066726f6d20616e20616464726573732077697468207a65726f206f7220696e73756666696369656e74207265636f72646564207374616b65202d3e205f62616c616e6365735b757365725d20616e64205f746f74616c537570706c7920756e646572666c6f7720696e73696465205f776974686472617728616d6f756e7429202d3e207374616b696e67546f6b656e2e7472616e7366657228726563697069656e742c20616d6f756e74292073656e6473207265616c207374616b696e6720746f6b656e73202d3e2072657065617420756e74696c20746865206661726d207374616b696e672d746f6b656e2062616c616e6365206973206578686175737465646661726d20686f6c6473207a65726f207374616b696e6720746f6b656e732061742074686520666f726b20626c6f636b756e6578706563746564206c69766520746f6b656e2061646472657373657320666f722074686520636f6e6669677572656420746172676574a2646970667358221220706e901dd5dad0617f123e2532013d4feecfbed96bd8450682c413e813147b6764736f6c634300081e0033","linkReferences":{}},"methodIdentifiers":{"EXPECTED_REWARD_TOKEN()":"ef4ab04c","EXPECTED_STAKING_TOKEN()":"3651b7ef","TARGET()":"cc1f2afa","attackerRecordedStakeAfter()":"8ec63e14","attackerRecordedStakeBefore()":"72cdc3d4","attackerWalletBalanceAfter()":"47d6042e","attackerWalletBalanceBefore()":"7fd9f283","drainedRounds()":"aa7035c9","executeOnOpportunity()":"3c2448ed","executed()":"31a38c89","exploitPathUsed()":"d78c4281","failureReason()":"4f9522a4","farmStakingBalanceAfter()":"c2dda9a6","farmStakingBalanceBefore()":"82198630","farmTotalSupplyAfter()":"5b540c8f","farmTotalSupplyBefore()":"072b0a26","hypothesisResult()":"76a0387f","hypothesisValidated()":"463defd1","profitAchieved()":"f0a01176","profitAmount()":"5ff972cc","profitToken()":"49343624","rewardsTokenObserved()":"0263ccc8","stakingTokenObserved()":"50e85e82"},"id":0}