{"abi":[{"type":"function","name":"getFeeRate","inputs":[{"name":"","type":"address","internalType":"address"}],"outputs":[{"name":"","type":"uint256","internalType":"uint256"}],"stateMutability":"pure"}],"bytecode":{"object":"0x6080604052348015600e575f5ffd5b506101568061001c5f395ff3fe608060405234801561000f575f5ffd5b5060043610610029575f3560e01c80638198edbf1461002d575b5f5ffd5b610047600480360381019061004291906100c4565b61005d565b6040516100549190610107565b60405180910390f35b5f5f9050919050565b5f5ffd5b5f73ffffffffffffffffffffffffffffffffffffffff82169050919050565b5f6100938261006a565b9050919050565b6100a381610089565b81146100ad575f5ffd5b50565b5f813590506100be8161009a565b92915050565b5f602082840312156100d9576100d8610066565b5b5f6100e6848285016100b0565b91505092915050565b5f819050919050565b610101816100ef565b82525050565b5f60208201905061011a5f8301846100f8565b9291505056fea2646970667358221220f8fd3eea30ba7790b34b99bae8c03e8039ba82fd6983d9fcdf5403a66734dccb64736f6c634300081e0033","linkReferences":{}},"methodIdentifiers":{"getFeeRate(address)":"8198edbf"},"id":0}