{"abi":[{"type":"constructor","inputs":[],"stateMutability":"nonpayable"},{"type":"function","name":"ADDRESSES_PROVIDER","inputs":[],"outputs":[{"name":"","type":"address","internalType":"contract IPoolAddressesProviderMinimal"}],"stateMutability":"view"},{"type":"function","name":"POOL","inputs":[],"outputs":[{"name":"","type":"address","internalType":"contract IPoolMinimal"}],"stateMutability":"view"},{"type":"function","name":"attempted","inputs":[],"outputs":[{"name":"","type":"bool","internalType":"bool"}],"stateMutability":"view"},{"type":"function","name":"callbackTriggered","inputs":[],"outputs":[{"name":"","type":"bool","internalType":"bool"}],"stateMutability":"view"},{"type":"function","name":"emodeAvailableBorrowsBaseBefore","inputs":[],"outputs":[{"name":"","type":"uint256","internalType":"uint256"}],"stateMutability":"view"},{"type":"function","name":"executeOnOpportunity","inputs":[],"outputs":[],"stateMutability":"nonpayable"},{"type":"function","name":"executeOperation","inputs":[{"name":"","type":"address[]","internalType":"address[]"},{"name":"","type":"uint256[]","internalType":"uint256[]"},{"name":"","type":"uint256[]","internalType":"uint256[]"},{"name":"initiator","type":"address","internalType":"address"},{"name":"params","type":"bytes","internalType":"bytes"}],"outputs":[{"name":"","type":"bool","internalType":"bool"}],"stateMutability":"nonpayable"},{"type":"function","name":"exploitPathUsed","inputs":[],"outputs":[{"name":"","type":"string","internalType":"string"}],"stateMutability":"pure"},{"type":"function","name":"exploitPaths","inputs":[],"outputs":[{"name":"paths","type":"string[4]","internalType":"string[4]"}],"stateMutability":"pure"},{"type":"function","name":"finalHealthFactor","inputs":[],"outputs":[{"name":"","type":"uint256","internalType":"uint256"}],"stateMutability":"view"},{"type":"function","name":"hypothesisValidated","inputs":[],"outputs":[{"name":"","type":"bool","internalType":"bool"}],"stateMutability":"view"},{"type":"function","name":"lastFailureReason","inputs":[],"outputs":[{"name":"","type":"string","internalType":"string"}],"stateMutability":"view"},{"type":"function","name":"normalAvailableBorrowsBaseBefore","inputs":[],"outputs":[{"name":"","type":"uint256","internalType":"uint256"}],"stateMutability":"view"},{"type":"function","name":"profitAmount","inputs":[],"outputs":[{"name":"","type":"uint256","internalType":"uint256"}],"stateMutability":"view"},{"type":"function","name":"profitToken","inputs":[],"outputs":[{"name":"","type":"address","internalType":"address"}],"stateMutability":"view"},{"type":"function","name":"selectedBorrowAmount","inputs":[],"outputs":[{"name":"","type":"uint256","internalType":"uint256"}],"stateMutability":"view"},{"type":"function","name":"selectedBorrowAmountBase","inputs":[],"outputs":[{"name":"","type":"uint256","internalType":"uint256"}],"stateMutability":"view"},{"type":"function","name":"selectedBorrowAsset","inputs":[],"outputs":[{"name":"","type":"address","internalType":"address"}],"stateMutability":"view"},{"type":"function","name":"selectedCategory","inputs":[],"outputs":[{"name":"","type":"uint8","internalType":"uint8"}],"stateMutability":"view"},{"type":"function","name":"selectedCollateralAmount","inputs":[],"outputs":[{"name":"","type":"uint256","internalType":"uint256"}],"stateMutability":"view"},{"type":"function","name":"selectedCollateralAsset","inputs":[],"outputs":[{"name":"","type":"address","internalType":"address"}],"stateMutability":"view"},{"type":"function","name":"uniswapV2Call","inputs":[{"name":"sender","type":"address","internalType":"address"},{"name":"amount0","type":"uint256","internalType":"uint256"},{"name":"amount1","type":"uint256","internalType":"uint256"},{"name":"data","type":"bytes","internalType":"bytes"}],"outputs":[],"stateMutability":"nonpayable"}],"bytecode":{"object":"0x60c0806040523461015457630150a5d760e21b815260208160048173fd11aba71c06061f446ade4eec057179f19c23c45afa908115610160575f9161016b575b5060405163026b1d5f60e01b8152906020826004816001600160a01b0385165afa918215610160575f92610118575b506001600160a01b038216156100fc575b60a0526001600160a01b031660805260405161433d90816101e5823960805181818161042e015281816110920152818161118e015281816114f2015281816115aa01528181611c9a0152818161277001528181612aac0152818161388201528181613a8b0152613cef015260a0518181816109be0152613ed60152f35b73fd11aba71c06061f446ade4eec057179f19c23c4915061007f565b9091506020813d602011610158575b81610134602093836101ad565b8101031261015457516001600160a01b038116810361015457905f61006e565b5f80fd5b3d9150610127565b6040513d5f823e3d90fd5b90506020813d6020116101a5575b81610186602093836101ad565b8101031261015457516001600160a01b0381168103610154575f61003f565b3d9150610179565b601f909101601f19168101906001600160401b038211908210176101d057604052565b634e487b7160e01b5f52604160045260245ffdfe610240806040526004361015610013575f80fd5b5f3560e01c9081630542975c146109ac5750806309584243146108e1578063105ed87e146108b657806310d1e85c14610861578063169abc66146108445780631a6fe78b1461082757806320cedb55146107ff5780632f2e958e1461051a5780633c2448ed1461050057806343ebbc2a146104e3578063463defd1146104bf57806349343624146104975780634a3cb2461461047a5780635ff972cc1461045d5780637535d2461461041957806389058a69146103f6578063917f51b4146103d5578063920f5c8414610319578063942de40e146102f5578063d78c42811461014d578063d88621a2146101305763e9f60a1c1461010f575f80fd5b3461012c575f36600319011261012c576020600354604051908152f35b5f80fd5b3461012c575f36600319011261012c576020600554604051908152f35b3461012c575f36600319011261012c576102f16101606101706040519182610a71565b61012681527f6f776e65642062616c616e6365206f72207075626c696320763220666c61736860208201527f737761702066756e647320636f6c6c61746572616c202d3e20656e61626c652060408201527f6661766f7261626c6520654d6f6465202d3e20666c6173684c6f616e2872656360608201527f65697665723d73656c662c6f6e426568616c664f663d73656c662c6d6f64653d60808201527f7661726961626c6529202d3e2073657455736572454d6f646528302920696e2060a08201527f657865637574654f7065726174696f6e202d3e207374616c652063616368656460c08201527f20654d6f6465207573656420666f722064656274206f70656e696e67202d3e2060e08201527f757365206f6e6c79207075626c6963206c697175696469747920746f207365746101008201527f746c6520616e792074656d706f726172792065787465726e616c2066756e6469610120820152656e67206c656760d01b610140820152604051918291602083526020830190610a92565b0390f35b3461012c575f36600319011261012c57602060ff5f5460081c166040519015158152f35b3461012c5760a036600319011261012c576004356001600160401b03811161012c57610349903690600401610af7565b50506024356001600160401b03811161012c5761036a903690600401610af7565b50506044356001600160401b03811161012c5761038b903690600401610af7565b50506064356001600160a01b038116810361012c576084356001600160401b03811161012c576020916103c56103cb923690600401610aca565b9161276e565b6040519015158152f35b3461012c575f36600319011261012c57602060ff5f54166040519015158152f35b3461012c575f36600319011261012c57602060ff60015460a01c16604051908152f35b3461012c575f36600319011261012c576040517f00000000000000000000000000000000000000000000000000000000000000006001600160a01b03168152602090f35b3461012c575f36600319011261012c576020600954604051908152f35b3461012c575f36600319011261012c576020600454604051908152f35b3461012c575f36600319011261012c576008546040516001600160a01b039091168152602090f35b3461012c575f36600319011261012c57602060ff5f5460101c166040519015158152f35b3461012c575f36600319011261012c576020600654604051908152f35b3461012c575f36600319011261012c5761051861104a565b005b3461012c575f36600319011261012c5760405160806105398183610a71565b5f5b8181106107f157506040516105508282610a71565b604b81527f41747461636b65722d636f6e74726f6c6c656420636f6e747261637420656e6160208201527f626c65732061206661766f7261626c6520654d6f64652063617465676f72792060408201526a3337b91034ba39b2b6331760a91b606082015282526040516105c460a082610a71565b606481527f54686520636f6e74726163742063616c6c7320666c6173684c6f616e282e2e2e60208201527f2c207265636569766572416464726573733d73656c662c206f6e426568616c6660408201527f4f663d73656c662c20696e746572657374526174654d6f6465735b695d20213d6060820152631018149760e11b8282015260208301526040516106588282610a71565b605d81527f496e7369646520657865637574654f7065726174696f6e2c2074686520636f6e60208201527f74726163742063616c6c732073657455736572454d6f6465283029206f72207360408201527f7769746368657320746f2061207765616b65722063617465676f72792e000000606082015260408301527f65676f727920616e64206d696e7473206465627420746861742073686f756c646040519161070360c084610a71565b609683527f4166746572207468652063616c6c6261636b2c2074686520706f6f6c2073746960208401527f6c6c2076616c696461746573207468652064656274206f70656e696e6720776960408401527f746820746865207374616c65206361636865642075736572454d6f6465436174606084015282015275103737903637b733b2b91031329030b63637bbb2b21760511b60a082015260608201526040518091602082016020835260a0830191905f5b600481106107c4575050500390f35b919350916020806107e1600193601f198982030187528751610a92565b95019301910190849392916107b5565b60608382015260200161053b565b3461012c575f36600319011261012c576001546040516001600160a01b039091168152602090f35b3461012c575f36600319011261012c576020600254604051908152f35b3461012c575f36600319011261012c576020600754604051908152f35b3461012c57608036600319011261012c576004356001600160a01b038116810361012c57606435906001600160401b03821161012c576108a8610518923690600401610aca565b916044359060243590610b6e565b3461012c575f36600319011261012c575f5460405160189190911c6001600160a01b03168152602090f35b3461012c575f36600319011261012c576040515f600b54610901816109ed565b8084529060018116908115610988575060011461093d575b6102f18361092981850382610a71565b604051918291602083526020830190610a92565b919050600b5f525f5160206142a85f395f51905f52915f905b80821061096e57509091508101602001610929610919565b919260018160209254838588010152019101909291610956565b60ff191660208086019190915291151560051b840190910191506109299050610919565b3461012c575f36600319011261012c577f00000000000000000000000000000000000000000000000000000000000000006001600160a01b03168152602090f35b90600182811c92168015610a1b575b6020831014610a0757565b634e487b7160e01b5f52602260045260245ffd5b91607f16916109fc565b6101a081019081106001600160401b03821117610a4157604052565b634e487b7160e01b5f52604160045260245ffd5b61010081019081106001600160401b03821117610a4157604052565b90601f801991011681019081106001600160401b03821117610a4157604052565b805180835260209291819084018484015e5f828201840152601f01601f1916010190565b35906001600160a01b038216820361012c57565b9181601f8401121561012c578235916001600160401b03831161012c576020838186019501011161012c57565b9181601f8401121561012c578235916001600160401b03831161012c576020808501948460051b01011161012c57565b3590811515820361012c57565b359060ff8216820361012c57565b51906001600160a01b038216820361012c57565b9081602091031261012c5751801515810361012c5790565b929190926101a0835f968101031261012c5760405191610b8d83610a25565b610b9684610b27565b8352610ba460208501610b27565b6020840152610bb560408501610b27565b9360408401948552610bc960608201610ab6565b946060850194868652610bde60808401610ab6565b9760808201988952610bf260a08501610ab6565b9060a08301918252610c0660c08601610ab6565b9560c08401968752610c1a60e08701610ab6565b9760e08501988952610100850193610100880135855261012086019b6101208901358d52610c6461018061014089019a6101408101358c526101608101356101608b015201610b34565b6101808801526001600160a01b03169133831480159190610fcc575b5061012c57602060049260405193848092630dfe168160e01b82525afa918215610e8e575f92610f90575b50516001600160a01b03918216911603610f885750905b518114801590610f80575b61012c57610cda91612a97565b5051610f0d578551604051630dfe168160e01b81526001600160a01b039091169690926020846004818b5afa938415610e8e575f94610ec6575b50519051915160405163a9059cbb60e01b81526001600160a01b039384166004820152602481019190915291602091839116815f81604481015b03925af1908115610e8e575f91610ea7575b501561012c5781516001600160a01b039182169116148015610ea0578351905b15610e99575f5b604051602096610d978883610a71565b5f8252601f1988013689840137803b1561012c57610dd1935f80946040519687958694859363022c0d9f60e01b8552309160048601613195565b03925af18015610e8e57610e70575b50519051915160405163a9059cbb60e01b81526001600160a01b0393841660048201526024810191909152918391839116818681604481015b03925af1918215610e65578392610e38575b505015610e355750565b80fd5b610e579250803d10610e5e575b610e4f8183610a71565b810190610b56565b5f80610e2b565b503d610e45565b6040513d85823e3d90fd5b610e199391955091610e835f8694610a71565b5f9591935091610de0565b6040513d5f823e3d90fd5b8351610d87565b5f90610d80565b610ec0915060203d602011610e5e57610e4f8183610a71565b5f610d60565b91929093506020823d602011610f05575b81610ee460209383610a71565b8101031261012c57610d4e92610efb602093610b42565b9491935091610d14565b3d9150610ed7565b50519151925160405163a9059cbb60e01b81526001600160a01b039485166004820152602481019190915294506020935084926044928492505f91165af1908115610e8e575f91610f61575b501561012c57565b610f7a915060203d602011610e5e57610e4f8183610a71565b5f610f59565b508015610ccd565b905090610cc2565b9091506020813d602011610fc4575b81610fac60209383610a71565b8101031261012c57610fbd90610b42565b905f610cab565b3d9150610f9f565b6001600160a01b031630141590505f610c80565b6001600160401b038111610a4157601f01601f191660200190565b9190820391821161100857565b634e487b7160e01b5f52601160045260245ffd5b91908260c091031261012c5781519160208101519160408201519160608101519160a0608083015192015190565b5f610180525f5460ff811661276b5760ff19166001175f55600b5461106e906109ed565b601f8111612736575b505f600b8190556040516334651b6f60e21b815290816004817f00000000000000000000000000000000000000000000000000000000000000006001600160a01b03165afa8015610e8e575f61014052612691575b50610140515115612638576110df6131c3565b9061018051905b610140515182101561139d57610140516001600160a01b039061110a908490612a21565b5116908115611393576040516370a0823160e01b815230600482015290602082602481865afa918215611339576101805192611360575b5081156113545761115183613a19565b9161115b83613b53565b15611347576060830160ff81511693604051636c6f6ae160e01b8152856004820152610180518160248160018060a01b037f0000000000000000000000000000000000000000000000000000000000000000165afa9081156113395760209161ffff916101805191611314575b50511691015110156113065761018051965b61014051518810156112f357610140516001600160a01b03906111fe908a90612a21565b511690811580156112ea575b6112e05761122261121a83613a19565b845190613ba9565b156112e0576112338487848a613c03565b9066038d7ea4c6800082118015906112d1575b6112c55750906001916040519161125c83610a25565b8383528360208401526101805160408401526101805160608401526101805160808401528860a084015260c08301526101805160e083015284610100830152610180516101208301526101805161014083015261016082015285610180820152975b01966111da565b989050600191506112be565b50610160810151821115611246565b97600191506112be565b5086821461120a565b96505050929050600191505b01906110e6565b5050929050600191506112ff565b61133391503d8061018051833e61132b8183610a71565b810190613231565b5f6111c8565b6040513d61018051823e3d90fd5b50929050600191506112ff565b929050600191506112ff565b9091506020813d821161138b575b8161137b60209383610a71565b8101031261012c5751905f611141565b3d915061136e565b91600191506112ff565b919050805115611b92575b805115611aa75760a0810180516101805154906301000000600160b81b039060181b16906301000000600160b81b03191617610180515560c082019160018060a01b038351166001546101808301908260ff60a01b835160a01b16916affffffffffffffffffffff60a81b161717600155602460206101008501938451600255806001600160601b0360a01b6008541617600855604051928380926370a0823160e01b82523060048301525afa908115611339576101805191611a75575b50600a556020830180519092901561178a575050506114859150613313565b156116885760206024915b516040516370a0823160e01b815230600482015292839182906001600160a01b03165afa8015611339576101805190611654575b6114d29150600a5490610ffb565b6009819055604051632fe4a15f60e21b815230600482015260c0816024817f00000000000000000000000000000000000000000000000000000000000000006001600160a01b03165afa90811561133957610180519161161f575b5060075561018051549060ff8260081c16908161158c575b8161157e575b8161156c575b506115595750565b620100009062ff00001916176101805155565b66038d7ea4c68000915010155f611551565b60045460055410915061154b565b60405163eddf1b7960e01b81523060048201529091506020816024817f00000000000000000000000000000000000000000000000000000000000000006001600160a01b03165afa9081156113395761018051916115ed575b501590611545565b90506020813d602011611617575b8161160860209383610a71565b8101031261012c57515f6115e5565b3d91506115fb565b611641915060c03d60c01161164d575b6116398183610a71565b81019061101c565b9450505050505f61152d565b503d61162f565b506020813d602011611680575b8161166e60209383610a71565b8101031261012c576114d290516114c4565b3d9150611661565b506116a86001600160601b0360a01b600854166008555f6009555f600a55565b600b546116b4816109ed565b156116bc5750565b6116c5906109ed565b601f8111611753575b506087600b55600b61018051527f6f776e65642d636f6c6c61746572616c20657865637574696f6e206661696c655f5160206142a85f395f51905f52557f6420756e6465722063757272656e74206f6e2d636861696e20636f6e646974695f5160206142e85f395f51905f5255626f6e7360e81b5f5160206142c85f395f51905f5255565b600b61018051526003601f60206101805120920160051c820191015b81811061177c57506116ce565b61018051815560010161176f565b606084018051604051630dfe168160e01b81529495919490602090829060049082906001600160a01b03165afa908115611339576101805191611a26575b5086516118e9946001600160a01b0392831691909216149260ff92610160918515611a1c578051955b15611a145761018051995b60018060a01b03895116986040519a8451151560208d015251151560408c01526040840151151560608c015260018060a01b0390511660808b015260018060a01b0360808401511660a08b015260018060a01b0390511660c08a015260018060a01b038b511660e08a015260018060a01b0360e0830151166101008a01525161012089015261012081015161014089015261014081015182890152015161018087015251166101a08501526101a084526118b86101c085610a71565b6118db604051948592602084019763022c0d9f60e01b8952309160248601613195565b03601f198101845283610a71565b61018051926101805192519161018051905af1611904612a68565b5015611914576020602491611490565b506119346001600160601b0360a01b600854166008555f6009555f600a55565b600b54611940816109ed565b156119485750565b611951906109ed565b601f81116119dd575b506083600b55600b61018051527f7075626c69632d6c69717569646974792066756e64696e67206661696c6564205f5160206142a85f395f51905f52557f756e6465722063757272656e74206f6e2d636861696e20636f6e646974696f6e5f5160206142e85f395f51905f5255607360f81b5f5160206142c85f395f51905f5255565b600b61018051526003601f60206101805120920160051c820191015b818110611a06575061195a565b6101805181556001016119f9565b8051996117fc565b61018051956117f1565b9390506020843d602011611a6d575b81611a4260209383610a71565b81010312611a665761016060ff92611a5c6118e996610b42565b92955092506117c8565b6101805180fd5b3d9150611a35565b90506020813d602011611a9f575b81611a9060209383610a71565b8101031261012c57515f611466565b3d9150611a83565b50611ab3600b546109ed565b601f8111611b5b575b5060b7600b55600b61018051527f6e6f2070726f66697461626c65207075626c69632d6c6971756964697479206f5f5160206142a85f395f51905f52557f72206f776e65642d636f6c6c61746572616c20726f75746520666f756e6420665f5160206142e85f395f51905f52557f6f72207374616c652d656d6f64652064656274206f70656e696e6700000000005f5160206142c85f395f51905f5255565b600b61018051526003601f60206101805120920160051c820191015b818110611b845750611abc565b610180518155600101611b77565b50610180516101c052611ba36131c3565b6101c0526040516101a052611bba6101a051610a55565b60056101a05152600a60206101a0510152601960406101a0510152603260606101a0510152606460806101a051015260c860a06101a05101526101f460c06101a05101526103e860e06101a051015261018051610200525b610140515161020051101561262f5761020051610140516001600160a01b0391611c3b91612a21565b511661022052610220511561260d57611c5661022051613a19565b61016052611c6661016051613b53565b1561260d57610160516060015160ff166101e0908152604051636c6f6ae160e01b81529051600482015261018051816024817f00000000000000000000000000000000000000000000000000000000000000006001600160a01b03165afa80156113395761ffff916101805191612612575b5051166020610160510151101561260d5761018051610120525b61014051516101205110156125fd5761012051610140516001600160a01b0391611d1b91612a21565b511660e05260e0511580156125ef575b6125ea57611d4b611d3d60e051613a19565b606061016051015190613ba9565b156125ea576101805161010052611d606131c3565b61010052611d6c6131c3565b610180515b6002811061236557506101608101516101606101005101511061235b575b506101805160c0525b600460c05110611dd7576101606101005101516101606101c051015110611dca575b6001610120510161012052611cf2565b610100516101c052611dba565b611de260c051613f55565b60808190526001600160a01b0316158015612344575b801561232e575b612329576101805160a052611e126131c3565b60a052610180515b60028110611e54575061016060a051015161016061010051015110611e48575b600160c0510160c052611d98565b60a05161010052611e3a565b6001600160a01b03611e6582613fd9565b60405163e6a4390560e01b8152608051610220516001600160a01b0390811660048401521660248201529160209183916044918391165afa9081156113395761018051916122f0575b506001600160a01b038116156122e757611ece608051610220518361402f565b8192911580156122df575b6122d457611ee56131c3565b92610180515b60028110611f2057505050509081610160600193015161016060a051015110611f17575b505b01611e1a565b60a0525f611f0f565b6001600160a01b03611f3182613fd9565b60405163e6a4390560e01b815260805160e0516001600160a01b0390811660048401521660248201529160209183916044918391165afa90811561133957610180519161229b575b506001600160a01b0381161561229257611f9860805160e0518361402f565b908015801561228a575b61227f5760405192836101408101106001600160401b0361014086011117612265576101408401604090815261022051855260e080516020870152608080516001600160a01b03908116938801939093526101e05160608801528a831690870152911660a085015260c08401869052830186905261010083015261012082015261202a6131c3565b9061018051905b6008821061206157505061016081015161016087015110612058575b506001905b01611eeb565b9450600161204d565b61271061208960c0830151610180515061ffff612081866101a051614211565b51169061361a565b0480158015612257575b61224d578151602083015160608401516120c192849260ff909216916001600160a01b039081169116613c03565b9066038d7ea4c680008211156122425760e083015160c08401516120e59183614222565b915f1983148015612233575b6122275761010084015161012085015161210b9185614222565b905f19821480156121ea575b6121dd578161212591610ffb565b6101608701519091908211156121dd57608085015160a0860151865160208801516040808a015160608b015191519b9c50999a60019a909960ff90921698919591946001600160a01b03918216949382169382169290821691166121888b610a25565b8b8b526101805160208c01526101805160408c015260608b015260808a015260a089015260c088015260e0870152610100860152610120850152610140840152610160830152610180820152925b0190612031565b50505050906001906121d6565b5066038d7ea4c680008201821161220d5766038d7ea4c680008201811115612117565b634e487b7160e01b61018051526011600452602461018051fd5b505050906001906121d6565b506101208401518310156120f1565b5050906001906121d6565b50906001906121d6565b5060c0820151811015612093565b634e487b7160e01b61018051526041600452602461018051fd5b505050600190612052565b508115611fa2565b50600190612052565b90506020813d82116122cc575b816122b560209383610a71565b81010312611a66576122c690610b42565b5f611f79565b3d91506122a8565b505050600190611f11565b508015611ed9565b50600190611f11565b90506020813d8211612321575b8161230a60209383610a71565b81010312611a665761231b90610b42565b5f611eae565b3d91506122fd565b611e3a565b5060e0516080516001600160a01b031614611dff565b50610220516080516001600160a01b031614611df8565b610100525f611d8f565b6001600160a01b0361237682613fd9565b60405163e6a4390560e01b815260e051610220516001600160a01b0390811660048401521660248201529160209183916044918391165afa9081156113395761018051916125b1575b506001600160a01b038116156125a8576123df60e051610220518361402f565b9190801580156125a0575b6125955791906123f86131c3565b9261018051925b60088410612431575050505061016081015161016084015110612428575b506001905b01611d71565b9150600161241d565b9091929361271061245361ffff61244b886101a051614211565b51168561361a565b04908115801561258b575b61258157612476826101e05160e05161022051613c03565b66038d7ea4c6800081111561257657612490858585614222565b905f1982148015612553575b61254757816124aa91610ffb565b9161016081015183111561253a57509060019291604051926124cb84610a25565b848452610180516020850152846040850152848060a01b03881660608501526101805160808501526102205160a085015260e05160c085015260e05160e0850152610100840152806101208401526101408301526101608201526101e051610180820152945b019291906123ff565b9691505060019150612531565b50509460019150612531565b5066038d7ea4c680008201821161220d5766038d7ea4c68000820181111561249c565b509460019150612531565b9460019150612531565b508382101561245e565b505050600190612422565b5082156123ea565b50600190612422565b90506020813d82116125e2575b816125cb60209383610a71565b81010312611a66576125dc90610b42565b5f6123bf565b3d91506125be565b611dba565b506102205160e05114611d2b565b6001610200510161020052611c12565b6125fd565b61262991503d8061018051833e61132b8183610a71565b5f611cd8565b6101c0516113a8565b5f61018052604d600b55600b5f527f6c69766520706f6f6c2070726f787920686173206e6f206c69737465642072655f5160206142a85f395f51905f52556573657276657360d01b5f5160206142e85f395f51905f5255565b3d805f833e6126a08183610a71565b81019060208183031261012c578051906001600160401b03821161012c57019080601f8301121561012c578151916001600160401b038311610a41578260051b9060208201936126f36040519586610a71565b845260208085019282010192831161012c57602001905b82821061271e57505050610140525f6110cc565b6020809161272b84610b42565b81520191019061270a565b600b5f52601f0160051c5f5160206142a85f395f51905f52908101905b8181106127605750611077565b5f8155600101612753565b50565b7f00000000000000000000000000000000000000000000000000000000000000006001600160a01b03169290338414801591906129ec575b50612940578160209161010061ff00195f5416175f558101031261012c576127cf60ff91610b34565b16156128cd575f80916040518260208201916328530a4760e01b835281602482015260248152612800604482610a71565b51925af161280c612a68565b501561281757600190565b612822600b546109ed565b601f811161288d575b506063600b55600b5f527f6661696c656420746f2064697361626c6520654d6f646520696e7369646520665f5160206142a85f395f51905f5255706c6173684c6f616e2063616c6c6261636b60781b5f5160206142e85f395f51905f52555f90565b600b5f52601f0160051c5f5160206142a85f395f51905f52015f5160206142c85f395f51905f525b8181106128c2575061282b565b5f81556001016128b5565b506128d9600b546109ed565b601f811161290b575b507f696e76616c69642063616c6c6261636b2063617465676f727900000000000032600b555f90565b600b5f52601f0160051c5f5160206142a85f395f51905f52908101905b81811061293557506128e2565b5f8155600101612928565b50505061294e600b546109ed565b601f81116129ac575b506049600b55600b5f527f756e657870656374656420666c6173684c6f616e2063616c6c6261636b2063615f5160206142a85f395f51905f525563363632b960e11b5f5160206142e85f395f51905f52555f90565b600b5f52601f0160051c5f5160206142a85f395f51905f52015f5160206142c85f395f51905f525b8181106129e15750612957565b5f81556001016129d4565b6001600160a01b031630141590505f6127a6565b805115612a0d5760200190565b634e487b7160e01b5f52603260045260245ffd5b8051821015612a0d5760209160051b010190565b90602080835192838152019201905f5b818110612a525750505090565b8251845260209384019390920191600101612a45565b3d15612a92573d90612a7982610fe0565b91612a876040519384610a71565b82523d5f602084013e565b606090565b60a0810180519193925f926001600160a01b037f000000000000000000000000000000000000000000000000000000000000000081169391612add918491869116613475565b1561311d57516001600160a01b031690823b1561012c576040519163617ba03760e01b8352600483015260248201523060448201525f60648201525f8160848183865af18015610e8e57613108575b50604051632fe4a15f60e21b815230600482015260c081602481855afa908115610e655783916130e3575b50600555610180840193828060ff87511660405160208101916328530a4760e01b8352602482015260248152612b8e604482610a71565b519082865af1612b9c612a68565b501561304d57604051632fe4a15f60e21b815230600482015260c081602481865afa90811561304257849161301d575b50806006556005541015612f645760c081018051610140909201519091612bfc91906001600160a01b03166137d3565b8015612e9d57600381905581516001600160a01b0316612c1b81613a19565b60206001600160a01b03612c2d613ec1565b169260246040518095819363b3596f0760e01b835260048301525afa918215612e92578692612e5c575b50612c726040612c6a612c78948661361a565b92015161360c565b9061362d565b6004556040805192612c8a8285610a71565b6001845260ff6020850198601f1984019283368c37516001600160a01b0316612cb287612a00565b52835194612cc08587610a71565b6001865283366020880137612cd486612a00565b52835192612ce28585610a71565b600184523660208501376002612cf784612a00565b52511691805192602084015260208352612d118184610a71565b5192602084019463ab9c4b5d60e01b865261010485019030602487015260e060448701525180915261012485019990885b818110612e3d5750505083612da088999a94612d888a99989795612d768b98612db497602319888303016064890152612a35565b85810360231901608487015290612a35565b3060a48501528381036023190160c485015290610a92565b8460e483015203601f198101835282610a71565b51925af1612dc0612a68565b5015612dcc5750600190565b612dd7600b546109ed565b601f8111612e08575b507f666c6173684c6f616e2064656274206f70656e696e672072657665727465643e600b5590565b600b8252601f0160051c5f5160206142a85f395f51905f52908101905b818110612e325750612de0565b828155600101612e25565b82516001600160a01b03168c5260209b8c019b90920191600101612d42565b91506020823d602011612e8a575b81612e7760209383610a71565b8101031261012c57905190612c72612c57565b3d9150612e6a565b6040513d88823e3d90fd5b505050909150612eae600b546109ed565b601f8111612f24575b506071600b55600b81527f756e61626c6520746f2073697a6520626f72726f772061626f7665206e6f726d5f5160206142a85f395f51905f52557f616c206d6f646520616e6420756e77696e64206e6565647300000000000000005f5160206142e85f395f51905f525590565b600b8252601f0160051c5f5160206142a85f395f51905f52015f5160206142c85f395f51905f525b818110612f595750612eb7565b828155600101612f4c565b5050909150612f74600b546109ed565b601f8111612fdd575b506061600b55600b81527f73656c656374656420726f75746520646f6573206e6f7420696e6372656173655f5160206142a85f395f51905f52556f20626f72726f7720636170616369747960801b5f5160206142e85f395f51905f525590565b600b8252601f0160051c5f5160206142a85f395f51905f52015f5160206142c85f395f51905f525b8181106130125750612f7d565b828155600101613005565b613036915060c03d60c01161164d576116398183610a71565b5050509150505f612bcc565b6040513d86823e3d90fd5b505090915061305d600b546109ed565b601f81116130a3575b506041600b55600b81527f6661696c656420746f20656e61626c65206661766f7261626c6520654d6f64655f5160206142a85f395f51905f525590565b600b8252601f0160051c5f5160206142a85f395f51905f52015f5160206142e85f395f51905f525b8181106130d85750613066565b8281556001016130cb565b6130fc915060c03d60c01161164d576116398183610a71565b5050509150505f612b57565b6131159192505f90610a71565b5f905f612b2c565b50505050905061312e600b546109ed565b601f8111613160575b507f636f6c6c61746572616c20617070726f76616c206661696c6564000000000034600b555f90565b600b5f52601f0160051c5f5160206142a85f395f51905f52908101905b81811061318a5750613137565b5f815560010161317d565b90926080926131c095948352602083015260018060a01b031660408201528160608201520190610a92565b90565b604051906131d082610a25565b5f610180838281528260208201528260408201528260608201528260808201528260a08201528260c08201528260e0820152826101008201528261012082015282610140820152826101608201520152565b519061ffff8216820361012c57565b60208183031261012c578051906001600160401b03821161012c57019060a08282031261012c576040519160a083018381106001600160401b03821117610a415760405261327e81613222565b835261328c60208201613222565b602084015261329d60408201613222565b60408401526132ae60608201610b42565b60608401526080810151906001600160401b03821161012c570181601f8201121561012c578051906132df82610fe0565b926132ed6040519485610a71565b8284526020838301011161012c57815f9260208093018386015e83010152608082015290565b60a08101516040516370a0823160e01b81523060048201529190602090839060249082906001600160a01b03165afa918215610e8e575f92613441575b506101008101918251809110908115613438575b50613374576131c0915190612a97565b5050613381600b546109ed565b601f81116133f8575b506075600b55600b5f527f696e73756666696369656e742076657269666965722d68656c6420636f6c6c615f5160206142a85f395f51905f52557f746572616c20666f722064697265637420657865637574696f6e0000000000005f5160206142e85f395f51905f52555f90565b600b5f52601f0160051c5f5160206142a85f395f51905f52015f5160206142c85f395f51905f525b81811061342d575061338a565b5f8155600101613420565b9050155f613364565b9091506020813d60201161346d575b8161345d60209383610a71565b8101031261012c5751905f613350565b3d9150613450565b604051636eb1769f60e11b81523060048201526001600160a01b03831660248201529092602082806044810103816001600160a01b0388165afa918215610e8e575f926135d8575b508110156135d05715158061354a575b613544575f91829182604051602081019263095ea7b360e01b845260018060a01b03166024820152811960448201526044815261350b606482610a71565b51925af1613517612a68565b81613520575090565b805180159250821561353157505090565b6131c09250602080918301019101610b56565b50505f90565b5060405163095ea7b360e01b602082019081526001600160a01b03831660248301525f6044808401829052835291829190613586606482610a71565b519082865af1613594612a68565b816135a1575b50156134cd565b80518015925082156135b6575b50505f61359a565b6135c99250602080918301019101610b56565b5f806135ae565b505050600190565b9091506020813d602011613604575b816135f460209383610a71565b8101031261012c5751905f6134bd565b3d91506135e7565b604d811161100857600a0a90565b8181029291811591840414171561100857565b8115613637570490565b634e487b7160e01b5f52601260045260245ffd5b919082602091031261012c57604051602081018181106001600160401b03821117610a415760405291518252565b51906fffffffffffffffffffffffffffffffff8216820361012c57565b6101e08183031261012c57604051916101e08301908382106001600160401b03831117610a41576136ca916040528261364b565b82526136d860208201613679565b60208301526136e960408201613679565b60408301526136fa60608201613679565b606083015261370b60808201613679565b608083015261371c60a08201613679565b60a083015260c081015164ffffffffff8116810361012c576137ca916101c09160c085015261374d60e08201613222565b60e085015261375f6101008201610b42565b6101008501526137726101208201610b42565b6101208501526137856101408201610b42565b6101408501526137986101608201610b42565b6101608501526137ab6101808201613679565b6101808501526137be6101a08201613679565b6101a085015201613679565b6101c082015290565b6024916137df82613a19565b60206001600160a01b036137f1613ec1565b60405163b3596f0760e01b81526001600160a01b03909616600487018190529596879290918391165afa938415610e8e575f946139e5575b5083156139dd57613840604061386292015161360c565b93613854613859826138548860055461361a565b61362d565b9560065461361a565b6040516335ea6a7560e01b8152600481018490529092906101e0816024817f00000000000000000000000000000000000000000000000000000000000000006001600160a01b03165afa8015610e8e576020915f916139ae575b5061010001516040516370a0823160e01b81526001600160a01b03909116600482015291829060249082905afa908115610e8e575f9161397c575b50808311613974575b5060018301809311611008578266038d7ea4c680008201918281116110085766038d7ea4c680010180921161100857811161396c575b5081811115613544578161394991610ffb565b8060021b9080820460041490151715611008576005900481018091116110085790565b91505f613936565b91505f613900565b90506020813d6020116139a6575b8161399760209383610a71565b8101031261012c57515f6138f7565b3d915061398a565b6139d091506101e03d81116139d6575b6139c88183610a71565b810190613696565b5f6138bc565b503d6139be565b505050505f90565b9093506020813d602011613a11575b81613a0160209383610a71565b8101031261012c5751925f613829565b3d91506139f4565b90604051613a2681610a55565b5f815260208101925f845260408201915f8352606081015f815260808201935f855260a083015f815260c08401905f825260e08501925f845285996040519763c44b11f760e01b895260018060a01b0316600489015260208860248160018060a01b037f0000000000000000000000000000000000000000000000000000000000000000165afa8015610e8e575f90613b14575b64ffffffffff98505180975261ffff8716905260ff8660301c16905267010000000000000085161515905267040000000000000084161515905267100000000000000083161515905260ff8260a81c16905260d41c169052565b5060203d602011613b4c575b613b2a818a610a71565b8801976020818a031261012c5764ffffffffff98613b479161364b565b613aba565b503d613b20565b606081015115159081613b9b575b81613b8d575b81613b80575b81613b76575090565b6080915001511590565b60e0810151159150613b6d565b60a081015115159150613b67565b602081015115159150613b61565b906060820151149081613bf2575b81613be4575b81613bd6575b81613bcc575090565b60e0915001511590565b60a081015115159150613bc3565b60c081015115159150613bbd565b9050600f6040820151101590613bb7565b92909181156139dd57613c1584613a19565b91613c1f84613a19565b9260206001600160a01b03613c32613ec1565b60405163b3596f0760e01b81526001600160a01b0390991660048a015288916024918391165afa918215610e8e575f92613e8c575b6024965060206001600160a01b03613c7d613ec1565b60405163b3596f0760e01b81526001600160a01b0390991660048a0181905298998a9290918391165afa968715610e8e575f97613e58575b5082158015613e50575b613e45576040612c6a613cd594612c729361361a565b604051636c6f6ae160e01b815260ff9290921660048301527f00000000000000000000000000000000000000000000000000000000000000006001600160a01b0316945f83602481895afa928315610e8e57602494613d5d6040612710613d54613d639761ffff6101e09a613854985f91613e2b575b5051169061361a565b0492015161360c565b9061361a565b93604051928380926335ea6a7560e01b82528660048301525afa8015610e8e576020915f91613e0c575b5061010001516040516370a0823160e01b81526001600160a01b03909116600482015291829060249082905afa908115610e8e575f91613dda575b5080821015613dd5575090565b905090565b90506020813d602011613e04575b81613df560209383610a71565b8101031261012c57515f613dc8565b3d9150613de8565b613e2591506101e03d81116139d6576139c88183610a71565b5f613d8d565b613e3f91503d805f833e61132b8183610a71565b5f613d4b565b505050505050505f90565b508615613cbf565b9096506020813d602011613e84575b81613e7460209383610a71565b8101031261012c5751955f613cb5565b3d9150613e67565b91506020863d602011613eb9575b81613ea760209383610a71565b8101031261012c576024955191613c67565b3d9150613e9a565b604051631f94a27560e31b81526020816004817f00000000000000000000000000000000000000000000000000000000000000006001600160a01b03165afa908115610e8e575f91613f1b575b506001600160a01b031690565b90506020813d602011613f4d575b81613f3660209383610a71565b8101031261012c57613f4790610b42565b5f613f0e565b3d9150613f29565b8015613fc05760018114613fa75760028114613f8e57600314613f76575f90565b736b175474e89094c44da98b954eedeac495271d0f90565b5073dac17f958d2ee523a2206206994597c13d831ec790565b5073a0b86991c6218b36c1d19d4a2e9eb0ce3606eb4890565b5073c02aaa39b223fe8d0a0e5c4f27ead9083c756cc290565b801561400257600114613fea575f90565b73c0aee478e3658e2610c5f7a4a2e1777ce9e4f2ac90565b50735c69bee701ef814a2b6a3edd4b1652cb9cc5aa6f90565b51906001600160701b038216820361012c57565b604051630240bc6b60e21b81529392916001600160a01b0390911690606085600481855afa928315610e8e575f955f946141b6575b50604051630dfe168160e01b815291602083600481875afa928315610e8e575f93614175575b5060206004946040519586809263d21220a760e01b82525afa938415610e8e575f94614139575b506001600160a01b0390811692169081831480614124575b61410f576001600160a01b03161491826140fc575b50506140ec57505f91508190565b6001600160701b03809116921690565b6001600160a01b03161490505f806140de565b50505050916001600160701b03809116921690565b506001600160a01b03848116908216146140c9565b9093506020813d60201161416d575b8161415560209383610a71565b8101031261012c5761416690610b42565b925f6140b1565b3d9150614148565b9392506020843d6020116141ae575b8161419160209383610a71565b8101031261012c5760206141a6600495610b42565b93945061408a565b3d9150614184565b955092506060853d606011614209575b816141d360609383610a71565b8101031261012c576141e48561401b565b60406141f26020880161401b565b96015163ffffffff81160361012c5794925f614064565b3d91506141c6565b906008811015612a0d5760051b0190565b91908215801561429f575b8015614295575b61428d57826142429161361a565b916103e88302928084046103e814901517156110085761426191610ffb565b6103e58102908082046103e514901517156110085761427f9161362d565b600181018091116110085790565b5050505f1990565b5082821115614234565b50801561422d56fe0175b7a638427703f0dbe7bb9bbf987a2551717b34e79f33b5b1008d1fa01db90175b7a638427703f0dbe7bb9bbf987a2551717b34e79f33b5b1008d1fa01dbb0175b7a638427703f0dbe7bb9bbf987a2551717b34e79f33b5b1008d1fa01dbaa2646970667358221220626bcebc7799575b30d6ac99fed8617822106616db4b211fc5c4d5170d4397b464736f6c634300081e0033","linkReferences":{}},"methodIdentifiers":{"ADDRESSES_PROVIDER()":"0542975c","POOL()":"7535d246","attempted()":"917f51b4","callbackTriggered()":"942de40e","emodeAvailableBorrowsBaseBefore()":"43ebbc2a","executeOnOpportunity()":"3c2448ed","executeOperation(address[],uint256[],uint256[],address,bytes)":"920f5c84","exploitPathUsed()":"d78c4281","exploitPaths()":"2f2e958e","finalHealthFactor()":"169abc66","hypothesisValidated()":"463defd1","lastFailureReason()":"09584243","normalAvailableBorrowsBaseBefore()":"d88621a2","profitAmount()":"5ff972cc","profitToken()":"49343624","selectedBorrowAmount()":"e9f60a1c","selectedBorrowAmountBase()":"4a3cb246","selectedBorrowAsset()":"20cedb55","selectedCategory()":"89058a69","selectedCollateralAmount()":"1a6fe78b","selectedCollateralAsset()":"105ed87e","uniswapV2Call(address,uint256,uint256,bytes)":"10d1e85c"},"id":0}