{"abi":[{"type":"constructor","inputs":[],"stateMutability":"nonpayable"},{"type":"function","name":"executeOnOpportunity","inputs":[],"outputs":[],"stateMutability":"nonpayable"},{"type":"function","name":"profitAmount","inputs":[],"outputs":[{"name":"","type":"uint256","internalType":"uint256"}],"stateMutability":"view"},{"type":"function","name":"profitToken","inputs":[],"outputs":[{"name":"","type":"address","internalType":"address"}],"stateMutability":"pure"},{"type":"function","name":"startFlash","inputs":[{"name":"pair","type":"address","internalType":"address"},{"name":"amount0Out","type":"uint256","internalType":"uint256"},{"name":"amount1Out","type":"uint256","internalType":"uint256"}],"outputs":[],"stateMutability":"nonpayable"},{"type":"function","name":"uniswapV2Call","inputs":[{"name":"sender","type":"address","internalType":"address"},{"name":"amount0","type":"uint256","internalType":"uint256"},{"name":"amount1","type":"uint256","internalType":"uint256"},{"name":"","type":"bytes","internalType":"bytes"}],"outputs":[],"stateMutability":"nonpayable"}],"bytecode":{"object":"0x6080604052348015600e575f5ffd5b50611f118061001c5f395ff3fe608060405234801561000f575f5ffd5b5060043610610055575f3560e01c806310d1e85c146100595780633c2448ed14610075578063493436241461007f5780635ff972cc1461009d578063fee4ef66146100bb575b5f5ffd5b610073600480360381019061006e91906116c6565b6100d7565b005b61007d6103c5565b005b610087610772565b6040516100949190611759565b60405180910390f35b6100a561078d565b6040516100b29190611781565b60405180910390f35b6100d560048036038101906100d0919061179a565b610796565b005b5f5f9054906101000a900473ffffffffffffffffffffffffffffffffffffffff1673ffffffffffffffffffffffffffffffffffffffff163373ffffffffffffffffffffffffffffffffffffffff1614610165576040517f08c379a000000000000000000000000000000000000000000000000000000000815260040161015c90611844565b60405180910390fd5b3073ffffffffffffffffffffffffffffffffffffffff168573ffffffffffffffffffffffffffffffffffffffff16146101d3576040517f08c379a00000000000000000000000000000000000000000000000000000000081526004016101ca906118ac565b60405180910390fd5b5f5f85116101e157836101e3565b845b90505f60016103e56103e8846101f991906118f7565b6102039190611965565b61020d9190611995565b905061021761089b565b610256576040517f08c379a000000000000000000000000000000000000000000000000000000000815260040161024d90611a12565b60405180910390fd5b5f5f6102606109dc565b91509150816102a4576040517f08c379a000000000000000000000000000000000000000000000000000000000815260040161029b90611a7a565b60405180910390fd5b6102ad81610b6d565b6102ec576040517f08c379a00000000000000000000000000000000000000000000000000000000081526004016102e390611ae2565b60405180910390fd5b73bb9bc244d798123fde783fcc1c72d3bb8c18941373ffffffffffffffffffffffffffffffffffffffff1663a9059cbb33856040518363ffffffff1660e01b815260040161033b929190611b00565b6020604051808303815f875af1158015610357573d5f5f3e3d5ffd5b505050506040513d601f19601f8201168201806040525081019061037b9190611b5c565b6103ba576040517f08c379a00000000000000000000000000000000000000000000000000000000081526004016103b190611bd1565b60405180910390fd5b505050505050505050565b5f73bb9bc244d798123fde783fcc1c72d3bb8c18941373ffffffffffffffffffffffffffffffffffffffff166370a08231306040518263ffffffff1660e01b81526004016104139190611759565b602060405180830381865afa15801561042e573d5f5f3e3d5ffd5b505050506040513d601f19601f820116820180604052508101906104529190611c03565b90505f5f5f61045f6109dc565b9150915081156104795761047281610b6d565b92506106a9565b662386f26fc1000084101580156105365750662386f26fc1000073bb9bc244d798123fde783fcc1c72d3bb8c18941373ffffffffffffffffffffffffffffffffffffffff166370a082317379a7d3559d73ea032120a69e59223d4375deb5956040518263ffffffff1660e01b81526004016104f49190611759565b602060405180830381865afa15801561050f573d5f5f3e3d5ffd5b505050506040513d601f19601f820116820180604052508101906105339190611c03565b10155b156105725761054361089b565b1561056d576105506109dc565b809250819350505081801561056a575061056981610b6d565b5b92505b6106a8565b5f5f5f61057d6110a0565b9250925092505f73ffffffffffffffffffffffffffffffffffffffff168373ffffffffffffffffffffffffffffffffffffffff16146106a457825f5f6101000a81548173ffffffffffffffffffffffffffffffffffffffff021916908373ffffffffffffffffffffffffffffffffffffffff1602179055503073ffffffffffffffffffffffffffffffffffffffff1663fee4ef668484846040518463ffffffff1660e01b815260040161063293929190611c2e565b5f604051808303815f87803b158015610649575f5ffd5b505af192505050801561065a575060015b1561066457600195505b5f5f5f6101000a81548173ffffffffffffffffffffffffffffffffffffffff021916908373ffffffffffffffffffffffffffffffffffffffff1602179055505b5050505b5b821561076c575f73bb9bc244d798123fde783fcc1c72d3bb8c18941373ffffffffffffffffffffffffffffffffffffffff166370a08231306040518263ffffffff1660e01b81526004016106fd9190611759565b602060405180830381865afa158015610718573d5f5f3e3d5ffd5b505050506040513d601f19601f8201168201806040525081019061073c9190611c03565b90508481111561076a5784816107529190611c63565b60015f8282546107629190611995565b925050819055505b505b50505050565b5f73bb9bc244d798123fde783fcc1c72d3bb8c189413905090565b5f600154905090565b3073ffffffffffffffffffffffffffffffffffffffff163373ffffffffffffffffffffffffffffffffffffffff1614610804576040517f08c379a00000000000000000000000000000000000000000000000000000000081526004016107fb90611ce0565b60405180910390fd5b8273ffffffffffffffffffffffffffffffffffffffff1663022c0d9f838330662386f26fc1000060405160200161083b9190611781565b6040516020818303038152906040526040518563ffffffff1660e01b81526004016108699493929190611d6e565b5f604051808303815f87803b158015610880575f5ffd5b505af1158015610892573d5f5f3e3d5ffd5b50505050505050565b5f73bb9bc244d798123fde783fcc1c72d3bb8c18941373ffffffffffffffffffffffffffffffffffffffff1663095ea7b37379a7d3559d73ea032120a69e59223d4375deb595662386f26fc100006040518363ffffffff1660e01b8152600401610906929190611b00565b6020604051808303815f875af1158015610922573d5f5f3e3d5ffd5b505050506040513d601f19601f820116820180604052508101906109469190611b5c565b610952575f90506109d9565b7379a7d3559d73ea032120a69e59223d4375deb59573ffffffffffffffffffffffffffffffffffffffff1663a0712d6860016040518263ffffffff1660e01b81526004016109a09190611dfa565b5f604051808303815f87803b1580156109b7575f5ffd5b505af19250505080156109c8575060015b6109d4575f90506109d9565b600190505b90565b5f5f5f7379a7d3559d73ea032120a69e59223d4375deb59573ffffffffffffffffffffffffffffffffffffffff166370a08231306040518263ffffffff1660e01b8152600401610a2c9190611759565b602060405180830381865afa158015610a47573d5f5f3e3d5ffd5b505050506040513d601f19601f82011682018060405250810190610a6b9190611c03565b03610a7b575f5f91509150610b69565b5f5b610708811015610b61577379a7d3559d73ea032120a69e59223d4375deb59573ffffffffffffffffffffffffffffffffffffffff16636352211e826040518263ffffffff1660e01b8152600401610ad49190611781565b602060405180830381865afa925050508015610b0e57506040513d601f19601f82011682018060405250810190610b0b9190611e27565b60015b15610b56573073ffffffffffffffffffffffffffffffffffffffff168173ffffffffffffffffffffffffffffffffffffffff1603610b5457600182935093505050610b69565b505b806001019050610a7d565b505f5f915091505b9091565b5f66470de4df82000073bb9bc244d798123fde783fcc1c72d3bb8c18941373ffffffffffffffffffffffffffffffffffffffff166370a082317379a7d3559d73ea032120a69e59223d4375deb5956040518263ffffffff1660e01b8152600401610bd79190611759565b602060405180830381865afa158015610bf2573d5f5f3e3d5ffd5b505050506040513d601f19601f82011682018060405250810190610c169190611c03565b1015610c24575f905061109b565b7379a7d3559d73ea032120a69e59223d4375deb59573ffffffffffffffffffffffffffffffffffffffff1663095ea7b330846040518363ffffffff1660e01b8152600401610c73929190611b00565b5f604051808303815f87803b158015610c8a575f5ffd5b505af1158015610c9c573d5f5f3e3d5ffd5b505050505f73bb9bc244d798123fde783fcc1c72d3bb8c18941373ffffffffffffffffffffffffffffffffffffffff166370a08231306040518263ffffffff1660e01b8152600401610cee9190611759565b602060405180830381865afa158015610d09573d5f5f3e3d5ffd5b505050506040513d601f19601f82011682018060405250810190610d2d9190611c03565b90507379a7d3559d73ea032120a69e59223d4375deb59573ffffffffffffffffffffffffffffffffffffffff166342966c68846040518263ffffffff1660e01b8152600401610d7c9190611781565b5f604051808303815f87803b158015610d93575f5ffd5b505af1158015610da5573d5f5f3e3d5ffd5b505050505f73bb9bc244d798123fde783fcc1c72d3bb8c18941373ffffffffffffffffffffffffffffffffffffffff166370a08231306040518263ffffffff1660e01b8152600401610df79190611759565b602060405180830381865afa158015610e12573d5f5f3e3d5ffd5b505050506040513d601f19601f82011682018060405250810190610e369190611c03565b9050662386f26fc1000082610e4b9190611995565b811015610e5c575f9250505061109b565b7379a7d3559d73ea032120a69e59223d4375deb59573ffffffffffffffffffffffffffffffffffffffff166323b872dd6274eda030876040518463ffffffff1660e01b8152600401610eb093929190611e52565b5f604051808303815f87803b158015610ec7575f5ffd5b505af1925050508015610ed8575060015b610ee6575f9250505061109b565b5f73bb9bc244d798123fde783fcc1c72d3bb8c18941373ffffffffffffffffffffffffffffffffffffffff166370a08231306040518263ffffffff1660e01b8152600401610f349190611759565b602060405180830381865afa158015610f4f573d5f5f3e3d5ffd5b505050506040513d601f19601f82011682018060405250810190610f739190611c03565b90507379a7d3559d73ea032120a69e59223d4375deb59573ffffffffffffffffffffffffffffffffffffffff166342966c68866040518263ffffffff1660e01b8152600401610fc29190611781565b5f604051808303815f87803b158015610fd9575f5ffd5b505af1158015610feb573d5f5f3e3d5ffd5b505050505f73bb9bc244d798123fde783fcc1c72d3bb8c18941373ffffffffffffffffffffffffffffffffffffffff166370a08231306040518263ffffffff1660e01b815260040161103d9190611759565b602060405180830381865afa158015611058573d5f5f3e3d5ffd5b505050506040513d601f19601f8201168201806040525081019061107c9190611c03565b9050662386f26fc10000826110919190611995565b8110159450505050505b919050565b5f5f5f5f6040518060400160405280735c69bee701ef814a2b6a3edd4b1652cb9cc5aa6f73ffffffffffffffffffffffffffffffffffffffff1673ffffffffffffffffffffffffffffffffffffffff16815260200173c0aee478e3658e2610c5f7a4a2e1777ce9e4f2ac73ffffffffffffffffffffffffffffffffffffffff1673ffffffffffffffffffffffffffffffffffffffff1681525090505f604051806080016040528073c02aaa39b223fe8d0a0e5c4f27ead9083c756cc273ffffffffffffffffffffffffffffffffffffffff1673ffffffffffffffffffffffffffffffffffffffff16815260200173a0b86991c6218b36c1d19d4a2e9eb0ce3606eb4873ffffffffffffffffffffffffffffffffffffffff1673ffffffffffffffffffffffffffffffffffffffff16815260200173dac17f958d2ee523a2206206994597c13d831ec773ffffffffffffffffffffffffffffffffffffffff1673ffffffffffffffffffffffffffffffffffffffff168152602001736b175474e89094c44da98b954eedeac495271d0f73ffffffffffffffffffffffffffffffffffffffff1673ffffffffffffffffffffffffffffffffffffffff1681525090505f5b60028110156115c7575f5b60048110156115bb575f84836002811061128957611288611e87565b5b602002015173ffffffffffffffffffffffffffffffffffffffff1663e6a4390573bb9bc244d798123fde783fcc1c72d3bb8c1894138685600481106112d1576112d0611e87565b5b60200201516040518363ffffffff1660e01b81526004016112f3929190611eb4565b602060405180830381865afa15801561130e573d5f5f3e3d5ffd5b505050506040513d601f19601f820116820180604052508101906113329190611e27565b90505f73ffffffffffffffffffffffffffffffffffffffff168173ffffffffffffffffffffffffffffffffffffffff160361136d57506115b0565b662386f26fc1000073bb9bc244d798123fde783fcc1c72d3bb8c18941373ffffffffffffffffffffffffffffffffffffffff166370a08231836040518263ffffffff1660e01b81526004016113c29190611759565b602060405180830381865afa1580156113dd573d5f5f3e3d5ffd5b505050506040513d601f19601f820116820180604052508101906114019190611c03565b101561140d57506115b0565b5f8173ffffffffffffffffffffffffffffffffffffffff16630dfe16816040518163ffffffff1660e01b8152600401602060405180830381865afa158015611457573d5f5f3e3d5ffd5b505050506040513d601f19601f8201168201806040525081019061147b9190611e27565b905073bb9bc244d798123fde783fcc1c72d3bb8c18941373ffffffffffffffffffffffffffffffffffffffff168173ffffffffffffffffffffffffffffffffffffffff16036114df5781662386f26fc100005f9850985098505050505050506115cb565b73bb9bc244d798123fde783fcc1c72d3bb8c18941373ffffffffffffffffffffffffffffffffffffffff168273ffffffffffffffffffffffffffffffffffffffff1663d21220a76040518163ffffffff1660e01b8152600401602060405180830381865afa158015611553573d5f5f3e3d5ffd5b505050506040513d601f19601f820116820180604052508101906115779190611e27565b73ffffffffffffffffffffffffffffffffffffffff16036115ad57815f662386f26fc100009850985098505050505050506115cb565b50505b80600101905061126c565b50806001019050611261565b5050505b909192565b5f5ffd5b5f5ffd5b5f73ffffffffffffffffffffffffffffffffffffffff82169050919050565b5f611601826115d8565b9050919050565b611611816115f7565b811461161b575f5ffd5b50565b5f8135905061162c81611608565b92915050565b5f819050919050565b61164481611632565b811461164e575f5ffd5b50565b5f8135905061165f8161163b565b92915050565b5f5ffd5b5f5ffd5b5f5ffd5b5f5f83601f84011261168657611685611665565b5b8235905067ffffffffffffffff8111156116a3576116a2611669565b5b6020830191508360018202830111156116bf576116be61166d565b5b9250929050565b5f5f5f5f5f608086880312156116df576116de6115d0565b5b5f6116ec8882890161161e565b95505060206116fd88828901611651565b945050604061170e88828901611651565b935050606086013567ffffffffffffffff81111561172f5761172e6115d4565b5b61173b88828901611671565b92509250509295509295909350565b611753816115f7565b82525050565b5f60208201905061176c5f83018461174a565b92915050565b61177b81611632565b82525050565b5f6020820190506117945f830184611772565b92915050565b5f5f5f606084860312156117b1576117b06115d0565b5b5f6117be8682870161161e565b93505060206117cf86828701611651565b92505060406117e086828701611651565b9150509250925092565b5f82825260208201905092915050565b7f696e76616c6964207061697200000000000000000000000000000000000000005f82015250565b5f61182e600c836117ea565b9150611839826117fa565b602082019050919050565b5f6020820190508181035f83015261185b81611822565b9050919050565b7f696e76616c69642073656e6465720000000000000000000000000000000000005f82015250565b5f611896600e836117ea565b91506118a182611862565b602082019050919050565b5f6020820190508181035f8301526118c38161188a565b9050919050565b7f4e487b71000000000000000000000000000000000000000000000000000000005f52601160045260245ffd5b5f61190182611632565b915061190c83611632565b925082820261191a81611632565b91508282048414831517611931576119306118ca565b5b5092915050565b7f4e487b71000000000000000000000000000000000000000000000000000000005f52601260045260245ffd5b5f61196f82611632565b915061197a83611632565b92508261198a57611989611938565b5b828204905092915050565b5f61199f82611632565b91506119aa83611632565b92508282019050808211156119c2576119c16118ca565b5b92915050565b7f6d696e74206661696c65640000000000000000000000000000000000000000005f82015250565b5f6119fc600b836117ea565b9150611a07826119c8565b602082019050919050565b5f6020820190508181035f830152611a29816119f0565b9050919050565b7f6e6f20746f6b656e0000000000000000000000000000000000000000000000005f82015250565b5f611a646008836117ea565b9150611a6f82611a30565b602082019050919050565b5f6020820190508181035f830152611a9181611a58565b9050919050565b7f6578706c6f6974206661696c65640000000000000000000000000000000000005f82015250565b5f611acc600e836117ea565b9150611ad782611a98565b602082019050919050565b5f6020820190508181035f830152611af981611ac0565b9050919050565b5f604082019050611b135f83018561174a565b611b206020830184611772565b9392505050565b5f8115159050919050565b611b3b81611b27565b8114611b45575f5ffd5b50565b5f81519050611b5681611b32565b92915050565b5f60208284031215611b7157611b706115d0565b5b5f611b7e84828501611b48565b91505092915050565b7f7265706179206661696c656400000000000000000000000000000000000000005f82015250565b5f611bbb600c836117ea565b9150611bc682611b87565b602082019050919050565b5f6020820190508181035f830152611be881611baf565b9050919050565b5f81519050611bfd8161163b565b92915050565b5f60208284031215611c1857611c176115d0565b5b5f611c2584828501611bef565b91505092915050565b5f606082019050611c415f83018661174a565b611c4e6020830185611772565b611c5b6040830184611772565b949350505050565b5f611c6d82611632565b9150611c7883611632565b9250828203905081811115611c9057611c8f6118ca565b5b92915050565b7f73656c66206f6e6c7900000000000000000000000000000000000000000000005f82015250565b5f611cca6009836117ea565b9150611cd582611c96565b602082019050919050565b5f6020820190508181035f830152611cf781611cbe565b9050919050565b5f81519050919050565b5f82825260208201905092915050565b8281835e5f83830152505050565b5f601f19601f8301169050919050565b5f611d4082611cfe565b611d4a8185611d08565b9350611d5a818560208601611d18565b611d6381611d26565b840191505092915050565b5f608082019050611d815f830187611772565b611d8e6020830186611772565b611d9b604083018561174a565b8181036060830152611dad8184611d36565b905095945050505050565b5f819050919050565b5f819050919050565b5f611de4611ddf611dda84611db8565b611dc1565b611632565b9050919050565b611df481611dca565b82525050565b5f602082019050611e0d5f830184611deb565b92915050565b5f81519050611e2181611608565b92915050565b5f60208284031215611e3c57611e3b6115d0565b5b5f611e4984828501611e13565b91505092915050565b5f606082019050611e655f83018661174a565b611e72602083018561174a565b611e7f6040830184611772565b949350505050565b7f4e487b71000000000000000000000000000000000000000000000000000000005f52603260045260245ffd5b5f604082019050611ec75f83018561174a565b611ed4602083018461174a565b939250505056fea2646970667358221220593992d1fc29e24530c85eaac6ffc8ec503ba20c51c559305731f081e8c5075f64736f6c634300081e0033","linkReferences":{}},"methodIdentifiers":{"executeOnOpportunity()":"3c2448ed","profitAmount()":"5ff972cc","profitToken()":"49343624","startFlash(address,uint256,uint256)":"fee4ef66","uniswapV2Call(address,uint256,uint256,bytes)":"10d1e85c"},"id":0}