{"abi":[{"type":"constructor","inputs":[],"stateMutability":"nonpayable"},{"type":"function","name":"DEFAULT_AAVE","inputs":[],"outputs":[{"name":"","type":"address","internalType":"address"}],"stateMutability":"view"},{"type":"function","name":"TARGET","inputs":[],"outputs":[{"name":"","type":"address","internalType":"address"}],"stateMutability":"view"},{"type":"function","name":"UNISWAP_V2_ROUTER","inputs":[],"outputs":[{"name":"","type":"address","internalType":"address"}],"stateMutability":"view"},{"type":"function","name":"USDC","inputs":[],"outputs":[{"name":"","type":"address","internalType":"address"}],"stateMutability":"view"},{"type":"function","name":"WETH","inputs":[],"outputs":[{"name":"","type":"address","internalType":"address"}],"stateMutability":"view"},{"type":"function","name":"_execute","inputs":[{"name":"amount","type":"uint256","internalType":"uint256"}],"outputs":[],"stateMutability":"nonpayable"},{"type":"function","name":"_probe","inputs":[{"name":"amount","type":"uint256","internalType":"uint256"}],"outputs":[],"stateMutability":"nonpayable"},{"type":"function","name":"aaveToken","inputs":[],"outputs":[{"name":"","type":"address","internalType":"address"}],"stateMutability":"view"},{"type":"function","name":"executeOnOpportunity","inputs":[],"outputs":[],"stateMutability":"nonpayable"},{"type":"function","name":"executed","inputs":[],"outputs":[{"name":"","type":"bool","internalType":"bool"}],"stateMutability":"view"},{"type":"function","name":"exploitPath","inputs":[],"outputs":[{"name":"","type":"string","internalType":"string"}],"stateMutability":"view"},{"type":"function","name":"fundingPair","inputs":[],"outputs":[{"name":"","type":"address","internalType":"address"}],"stateMutability":"view"},{"type":"function","name":"hypothesisValidated","inputs":[],"outputs":[{"name":"","type":"bool","internalType":"bool"}],"stateMutability":"view"},{"type":"function","name":"pair","inputs":[],"outputs":[{"name":"","type":"address","internalType":"address"}],"stateMutability":"view"},{"type":"function","name":"pairDiscovered","inputs":[],"outputs":[{"name":"","type":"bool","internalType":"bool"}],"stateMutability":"view"},{"type":"function","name":"profitAmount","inputs":[],"outputs":[{"name":"","type":"uint256","internalType":"uint256"}],"stateMutability":"view"},{"type":"function","name":"profitToken","inputs":[],"outputs":[{"name":"","type":"address","internalType":"address"}],"stateMutability":"pure"},{"type":"function","name":"targetCallSucceeded","inputs":[],"outputs":[{"name":"","type":"bool","internalType":"bool"}],"stateMutability":"view"},{"type":"function","name":"uniswapV2Call","inputs":[{"name":"sender","type":"address","internalType":"address"},{"name":"amount0","type":"uint256","internalType":"uint256"},{"name":"amount1","type":"uint256","internalType":"uint256"},{"name":"data","type":"bytes","internalType":"bytes"}],"outputs":[],"stateMutability":"nonpayable"},{"type":"error","name":"ProbeResult","inputs":[{"name":"profit","type":"uint256","internalType":"uint256"}]}],"bytecode":{"object":"0x61010080604052346101f6575f808092602081019063819faf7b60e01b82526004815261002d602482610247565b519073d2933c86216dc0c938ffafeca3c8a2d6e633e2ca5afa61004e61027e565b908061023b575b610216575b506001600160a01b03811661020d5750610096737fc66500c84a76ad7e9c93437bfc5ac33e2ddae95b60808190526001600160a01b03166102db565b8060a0526100a26103f3565b60c08190526001600160a01b031680151591905f9083610159575b5060e0526001600160a01b031615159081610151575b5063ff0000005f5491151560181b169063ff0000001916175f5560405161221690816104cf8239608051818181610167015281816109260152611895015260a051818181610523015261181d015260c05181818161022e0152818161086c01528181611b900152611c99015260e0518181816108e00152611b5f0152f35b90505f6100d3565b604051630dfe168160e01b81529150602090829060049082905afa8015610202575f906101a8575b6001600160a01b031673c02aaa39b223fe8d0a0e5c4f27ead9083c756cc21490505f6100bd565b506020813d6020116101fa575b816101c260209383610247565b810103126101f657516001600160a01b03811681036101f65773c02aaa39b223fe8d0a0e5c4f27ead9083c756cc290610181565b5f80fd5b3d91506101b5565b6040513d5f823e3d90fd5b61009690610083565b80516001600160a01b039250610234916020918101820191016102bc565b165f61005a565b50602081511015610055565b601f909101601f19168101906001600160401b0382119082101761026a57604052565b634e487b7160e01b5f52604160045260245ffd5b3d156102b7573d906001600160401b03821161026a57604051916102ac601f8201601f191660200184610247565b82523d5f602084013e565b606090565b908160209103126101f657516001600160a01b03811681036101f65790565b905f915f80604051602081019063c45a015560e01b825260048152610301602482610247565b5190737a250d5630b4cf539739df2c5dacb4c659f2488d5afa61032261027e565b901580156103e8575b6103e1575f91829161034d60018060a01b0391602080825183010191016102bc565b1690604051602081019163e6a4390560e01b835260018060a01b0316602482015273c02aaa39b223fe8d0a0e5c4f27ead9083c756cc2604482015260448152610397606482610247565b51915afa6103a361027e565b90806103d5575b6103b15750565b80519192506001600160a01b03916103d1916020918101820191016102bc565b1690565b506020815110156103aa565b505f925050565b50602081511061032b565b5f905f80604051602081019063c45a015560e01b825260048152610418602482610247565b5190737a250d5630b4cf539739df2c5dacb4c659f2488d5afa61043961027e565b901580156104c3575b6104bd5780515f9182916001600160a01b0391610467918101602090810191016102bc565b16604051602081019063e6a4390560e01b825273a0b86991c6218b36c1d19d4a2e9eb0ce3606eb48602482015273c02aaa39b223fe8d0a0e5c4f27ead9083c756cc2604482015260448152610397606482610247565b505f9150565b50602081511061044256fe60806040526004361015610011575f80fd5b5f3560e01c806306a3fe591461013f57806310d1e85c1461013a5780631b56f6681461013557806331a38c89146101305780633a3bfa171461012b5780633c2448ed14610126578063463defd11461012157806349343624146100fe5780635170c1e31461011c5780635ff972cc1461011757806389a30271146101125780638d746a0b1461010d578063a82ed9ec14610108578063a8aa1b3114610103578063ad5c4648146100fe578063ad8af491146100f9578063cb707c62146100f4578063cc1f2afa146100ef5763ceab208b146100ea575f80fd5b6105fb565b6105cd565b61059a565b610552565b6102de565b61050e565b6104e0565b6104ac565b61047e565b610461565b61030c565b6102ba565b6102a2565b61027e565b61025d565b610219565b6101a7565b610152565b5f91031261014e57565b5f80fd5b3461014e575f36600319011261014e576040517f00000000000000000000000000000000000000000000000000000000000000006001600160a01b03168152602090f35b6001600160a01b0381160361014e57565b3461014e57608036600319011261014e576004356101c481610196565b602435604435916064359267ffffffffffffffff841161014e573660238501121561014e5783600401359267ffffffffffffffff841161014e57366024858701011161014e57602461021795019261086a565b005b3461014e575f36600319011261014e576040517f00000000000000000000000000000000000000000000000000000000000000006001600160a01b03168152602090f35b3461014e575f36600319011261014e57602060ff5f54166040519015158152f35b3461014e575f36600319011261014e57602060ff5f5460181c166040519015158152f35b3461014e575f36600319011261014e57610217610f2d565b3461014e575f36600319011261014e57602060ff5f5460101c166040519015158152f35b3461014e575f36600319011261014e57602060405173c02aaa39b223fe8d0a0e5c4f27ead9083c756cc28152f35b3461014e57602036600319011261014e5761033360043561032e303314611035565b611ae0565b8060025561033f61106d565b80519067ffffffffffffffff821161045c5761036582610360600354610d7e565b610db6565b602090601f83116001146103cc578267016345785d8a00009361021795936103a2935f926103c1575b50508160011b915f199060031b1c19161790565b6003555b101562ff00005f5491151560101b169062ff00001916175f55565b015190505f8061038e565b60035f52601f19831691907fc2575a0e9e593c00f959f8c92f12db2869c3395a3b0502d05e2516446f71f85b925f5b818110610444575092600192859267016345785d8a00009661021798961061042c575b505050811b016003556103a6565b01515f1960f88460031b161c191690555f808061041e565b929360206001819287860151815501950193016103fb565b61076f565b3461014e575f36600319011261014e576020600254604051908152f35b3461014e575f36600319011261014e57602060405173a0b86991c6218b36c1d19d4a2e9eb0ce3606eb488152f35b3461014e57602036600319011261014e576104ce60043561032e303314611035565b634ef9a67760e01b5f5260045260245ffd5b3461014e575f36600319011261014e576020604051737a250d5630b4cf539739df2c5dacb4c659f2488d8152f35b3461014e575f36600319011261014e576040517f00000000000000000000000000000000000000000000000000000000000000006001600160a01b03168152602090f35b3461014e575f36600319011261014e57602060ff5f5460081c166040519015158152f35b805180835260209291819084018484015e5f828201840152601f01601f1916010190565b3461014e575f36600319011261014e576105c96105b56111c7565b604051918291602083526020830190610576565b0390f35b3461014e575f36600319011261014e57602060405173d2933c86216dc0c938ffafeca3c8a2d6e633e2ca8152f35b3461014e575f36600319011261014e576020604051737fc66500c84a76ad7e9c93437bfc5ac33e2ddae98152f35b1561063057565b60405162461bcd60e51b815260206004820152601160248201527066756e64696e672070616972206f6e6c7960781b6044820152606490fd5b1561067057565b60405162461bcd60e51b815260206004820152600e60248201526d34b73b30b634b21039b2b73232b960911b6044820152606490fd5b600211156106b057565b634e487b7160e01b5f52602160045260245ffd5b156106cb57565b60405162461bcd60e51b8152602060048201526008602482015267696e61637469766560c01b6044820152606490fd5b1561070257565b60405162461bcd60e51b815260206004820152600f60248201526e0c4dee4e4deee40dad2e6dac2e8c6d608b1b6044820152606490fd5b1561074057565b60405162461bcd60e51b81526020600482015260076024820152666e6f206461746160c81b6044820152606490fd5b634e487b7160e01b5f52604160045260245ffd5b90601f8019910116810190811067ffffffffffffffff82111761045c57604052565b6040513d5f823e3d90fd5b9081602091031261014e575190565b156107c657565b60405162461bcd60e51b8152602060048201526024808201527f696e73756666696369656e74205745544820746f20726570617920666c6173686044820152630737761760e41b6064820152608490fd5b9081602091031261014e5751801515810361014e5790565b1561083657565b60405162461bcd60e51b815260206004820152600c60248201526b1c995c185e4819985a5b195960a21b6044820152606490fd5b7f000000000000000000000000000000000000000000000000000000000000000094935061091b92906108bb906108ab336001600160a01b03891614610629565b6001600160a01b03163014610669565b6108de60016108cf5f5460ff9060201c1690565b6108d8816106a6565b146106c4565b7f000000000000000000000000000000000000000000000000000000000000000015610b7c5750915b61091460015484146106fb565b1515610739565b61092481611325565b7f0000000000000000000000000000000000000000000000000000000000000000906109508183611631565b73d2933c86216dc0c938ffafeca3c8a2d6e633e2ca3b1561014e57604051633c2448ed60e01b81525f816004818373d2933c86216dc0c938ffafeca3c8a2d6e633e2ca5af18015610af757610b62575b506109b361010061ff00195f5416175f55565b6040516370a0823160e01b8152306004820152916020836024816001600160a01b0385165afa8015610af7576109f8935f91610b43575b5080610b29575b5050611787565b6040516370a0823160e01b81523060048201529060208260248173c02aaa39b223fe8d0a0e5c4f27ead9083c756cc25afa928315610af757610a4a82610a7b956020955f91610afc575b5010156107bf565b60405163a9059cbb60e01b81526001600160a01b039091166004820152602481019190915291829081906044820190565b03815f73c02aaa39b223fe8d0a0e5c4f27ead9083c756cc25af18015610af757610aac915f91610ac8575b5061082f565b610ab55f600155565b610ac664ff00000000195f54165f55565b565b610aea915060203d602011610af0575b610ae28183610783565b810190610817565b5f610aa6565b503d610ad8565b6107a5565b610b1c9150863d8811610b22575b610b148183610783565b8101906107b0565b5f610a42565b503d610b0a565b81610b3782610b3c9461143a565b6116e4565b5f806109f1565b610b5c915060203d602011610b2257610b148183610783565b5f6109ea565b80610b705f610b7693610783565b80610144565b5f6109a0565b905091610907565b60405190610b946101c083610783565b61018c82526b2d70726f666974206261722960a01b6101a0837f4f62736572766520657865637574654f6e4f70706f7274756e6974792829206960208201527f6e20746865207075626c6963206d656d706f6f6c202d3e2066726f6e742d727560408201527f6e20746f20776f7273656e2074686520414156452f574554482070726963652060608201527f6265666f7265206f6e65206f7220626f7468207377617073202d3e206c65742060808201527f74686520766572696669657220617474656d70742069747320616d6f756e744f60a08201527f75744d696e203d2030207377617020617420746865206d616e6970756c61746560c08201527f64207072696365202d3e206261636b2d72756e20746f20726573746f7265207060e08201527f7269636520616e64206b65657020746865207370726561642028696e666561736101008201527f69626c65206f6e207468697320666f726b206f6e6c79206966206576657279206101208201527f7265616c6973746963207075626c696320666c6173682d66756e6465642073616101408201527f6e64776963682073697a652065697468657220726576657274732074686520746101608201527f6172676574206f722073746179732062656c6f7720746865206d696e696d756d6101808201520152565b90600182811c92168015610dac575b6020831014610d9857565b634e487b7160e01b5f52602260045260245ffd5b91607f1691610d8d565b601f8111610dc2575050565b60035f5260205f20906020601f840160051c83019310610dfc575b601f0160051c01905b818110610df1575050565b5f8155600101610de6565b9091508190610ddd565b601f8211610e1357505050565b5f5260205f20906020601f840160051c83019310610e4b575b601f0160051c01905b818110610e40575050565b5f8155600101610e35565b9091508190610e2c565b90815167ffffffffffffffff811161045c57610e7d81610e76600354610d7e565b6003610e06565b602092601f8211600114610eb157610eac929382915f926103c15750508160011b915f199060031b1c19161790565b600355565b60035f52601f198216937fc2575a0e9e593c00f959f8c92f12db2869c3395a3b0502d05e2516446f71f85b915f5b868110610f155750836001959610610efd575b505050811b01600355565b01515f1960f88460031b161c191690555f8080610ef2565b91926020600181928685015181550194019201610edf565b5f5460ff16801561102a575b610ac657610f4d600160ff195f5416175f55565b5f54610f5d9060181c60ff161590565b61101f57610f73610f6c61180e565b9050611983565b811590811561100d575b5061100157303b1561014e57604051635170c1e360e01b815260048101919091525f8160248183305af19081610fed575b50610fc357610ac6610fbe610b84565b610e55565b610ac667016345785d8a0000600254101562ff00005f5491151560101b169062ff00001916175f55565b80610b705f610ffb93610783565b5f610fae565b50610ac6610fbe610b84565b67016345785d8a00009150105f610f7d565b610ac6610fbe610b84565b506002541515610f39565b1561103c57565b60405162461bcd60e51b815260206004820152600960248201526873656c66206f6e6c7960b81b6044820152606490fd5b6040519061107d61014083610783565b61010882526719481cdc1c99585960c21b610120837f4f62736572766520657865637574654f6e4f70706f7274756e6974792829206960208201527f6e20746865207075626c6963206d656d706f6f6c202d3e2066726f6e742d727560408201527f6e20746f20776f7273656e2074686520414156452f574554482070726963652060608201527f6265666f7265207468652076657269666965722773207365656420574554482f60808201527f4141564520627579202d3e206c6574207468652076657269666965722065786560a08201527f637574652069747320616d6f756e744f75744d696e203d20302073776170206160c08201527f7420746865206d616e6970756c61746564207072696365202d3e206261636b2d60e08201527f72756e20746f20726573746f726520707269636520616e64206b6565702074686101008201520152565b6003546111d381610d7e565b6111f857505f5460181c60ff16156111f0576111ed61106d565b90565b6111ed610b84565b60405190815f61120783610d7e565b808352926001811690811561128a575060011461122b575b6111ed92500382610783565b509060035f527fc2575a0e9e593c00f959f8c92f12db2869c3395a3b0502d05e2516446f71f85b905f915b81831061126e5750509060206111ed9282010161121f565b6020919350806001915483858801015201910190918392611256565b602092506111ed94915060ff191682840152151560051b82010161121f565b3d156112e3573d9067ffffffffffffffff821161045c57604051916112d8601f8201601f191660200184610783565b82523d5f602084013e565b606090565b156112ef57565b60405162461bcd60e51b815260206004820152600e60248201526d185c1c1c9bdd994819985a5b195960921b6044820152606490fd5b5f80610ac6928180604051602081019063095ea7b360e01b8252737a250d5630b4cf539739df2c5dacb4c659f2488d60248201528260448201526044815261136e606482610783565b51908273c02aaa39b223fe8d0a0e5c4f27ead9083c756cc25af1506113916112a9565b5060405163095ea7b360e01b60208201908152737a250d5630b4cf539739df2c5dacb4c659f2488d602483015260448201929092526113dd81606481015b03601f198101835282610783565b51908273c02aaa39b223fe8d0a0e5c4f27ead9083c756cc25af16113ff6112a9565b8161140b575b506112e8565b8051801592508215611420575b50505f611405565b6114339250602080918301019101610817565b5f80611418565b5f8091610ac6938280604051602081019063095ea7b360e01b8252737a250d5630b4cf539739df2c5dacb4c659f2488d602482015282604482015260448152611484606482610783565b519082865af1506114936112a9565b5060405163095ea7b360e01b60208201908152737a250d5630b4cf539739df2c5dacb4c659f2488d6024830152604482019290925283906114d781606481016113cf565b51925af16113ff6112a9565b67ffffffffffffffff811161045c5760051b60200190565b6040516060919061150c8382610783565b6002815291601f1901366020840137565b80511561152a5760200190565b634e487b7160e01b5f52603260045260245ffd5b80516001101561152a5760400190565b60208183031261014e5780519067ffffffffffffffff821161014e57019080601f8301121561014e578151611582816114e3565b926115906040519485610783565b81845260208085019260051b82010192831161014e57602001905b8282106115b85750505090565b81518152602091820191016115ab565b91909493929460a083019083525f602084015260a060408401528151809152602060c084019201905f5b818110611612575050506001600160a01b03909416606082015260800152565b82516001600160a01b03168452602093840193909201916001016115f2565b9080156116e05761169b915f916116466114fb565b9173c02aaa39b223fe8d0a0e5c4f27ead9083c756cc26116658461151d565b5261166f8361153e565b6001600160a01b0390911690526040516338ed173960e01b8152938492839242913091600486016115c8565b038183737a250d5630b4cf539739df2c5dacb4c659f2488d5af18015610af7576116c25750565b6116dd903d805f833e6116d58183610783565b81019061154e565b50565b5050565b9080156116e05761169b915f916116f96114fb565b916117038361151d565b6001600160a01b03909116905273c02aaa39b223fe8d0a0e5c4f27ead9083c756cc261172e8361153e565b526040516338ed173960e01b8152938492839242913091600486016115c8565b634e487b7160e01b5f52601160045260245ffd5b8181029291811591840414171561177557565b61174e565b9190820180921161177557565b6103e88102908082046103e81490151715611775576103e59004600181018091116117755790565b51906001600160701b038216820361014e57565b9081606091031261014e576117d7816117af565b9160406117e6602084016117af565b92015163ffffffff8116810361014e5790565b9081602091031261014e57516111ed81610196565b604051630240bc6b60e21b81527f00000000000000000000000000000000000000000000000000000000000000006001600160a01b03169190606081600481865afa928315610af7575f915f9461190b575b50602060049160405192838092630dfe168160e01b82525afa908115610af7575f916118dc575b506001600160a01b039081167f0000000000000000000000000000000000000000000000000000000000000000909116036118cc576001600160701b03809116921690565b6001600160701b03928316921690565b6118fe915060203d602011611904575b6118f68183610783565b8101906117f9565b5f611887565b503d6118ec565b6004919450602092506119359060603d606011611941575b61192d8183610783565b8101906117c3565b50929092949150611860565b503d611923565b6040519060a0820182811067ffffffffffffffff82111761045c576040525f6080838281528260208201528260408201528260608201520152565b61198b611948565b905f5b602781106119e4575060408201519081156119db57826119c19160606119c695015180155f146119d15750928391611fd5565b612063565b906020825192015190565b9050928391611fd5565b5050505f905f90565b91611a026119fa6119f485611d46565b84611762565b612710900490565b9081158015611a34575b611a2a5781816001936080611a22940152611f6e565b925b0161198e565b9260019150611a24565b5060808101518214611a0c565b15611a4857565b60405162461bcd60e51b815260206004820152600b60248201526a1e995c9bc8185b5bdd5b9d60aa1b6044820152606490fd5b6111ed93926080925f8352602083015260018060a01b031660408201528160608201520190610576565b9081525f60208201526001600160a01b0390911660408201526080606082018190526111ed92910190610576565b9190820391821161177557565b905f91611aee811515611a41565b6040516370a0823160e01b81523060048201529060208260248173c02aaa39b223fe8d0a0e5c4f27ead9083c756cc25afa918215610af7575f92611d25575b50611b4664010000000064ff00000000195f5416175f55565b611b4f81600155565b611b5d61ff00195f54165f55565b7f000000000000000000000000000000000000000000000000000000000000000015611c8c5760408051602081018390527f00000000000000000000000000000000000000000000000000000000000000006001600160a01b03169291611bc790829081016113cf565b823b1561014e57611bf3925f928360405180968195829463022c0d9f60e01b8452309060048501611aa5565b03925af18015610af757611c78575b505b6040516370a0823160e01b815230600482015260208160248173c02aaa39b223fe8d0a0e5c4f27ead9083c756cc25afa908115610af7575f91611c59575b50818111611c4e575050565b6111ed929350611ad3565b611c72915060203d602011610b2257610b148183610783565b5f611c42565b80610b705f611c8693610783565b5f611c02565b60408051602081018390527f00000000000000000000000000000000000000000000000000000000000000006001600160a01b03169291611cd090829081016113cf565b823b1561014e57611cfc925f928360405180968195829463022c0d9f60e01b8452309060048501611a7b565b03925af18015610af757611d11575b50611c04565b80610b705f611d1f93610783565b5f611d0b565b611d3f91925060203d602011610b2257610b148183610783565b905f611b2d565b8015611f685760018114611f625760028114611f5c5760038114611f565760048114611f505760058114611f4a5760068114611f445760078114611f3e5760088114611f385760098114611f3257600a8114611f2c57600b8114611f2657600c8114611f2057600d8114611f1a57600e8114611f1457600f8114611f0e5760108114611f085760118114611f025760128114611efc5760138114611ef65760148114611eef5760158114611ee85760168114611ee15760178114611eda5760188114611ed35760198114611ecc57601a8114611ec557601b8114611ebe57601c8114611eb757601d8114611eb057601e8114611ea957601f8114611ea25760208114611e9b5760218114611e945760228114611e8d5760238114611e865760248114611e7f57602514611e795761138890565b61119490565b50610fa090565b50610dac90565b50610bb890565b506109c490565b506108ca90565b506107d090565b506106d690565b506105dc90565b506104e290565b506103e890565b5061038490565b506102ee90565b5061025890565b506101f490565b5061019090565b5061015e90565b5061012c90565b5060fa90565b5060c890565b5060af90565b50609690565b50607d90565b50606490565b50604b90565b50603290565b50602890565b50601e90565b50601990565b50601490565b50600f90565b50600c90565b50600a90565b50600890565b50600590565b50600390565b50600290565b50600190565b90611f77611948565b50611f8181612146565b9015611fab578160408401526020830180518211611fa0575b50505090565b5281525f8080611f9a565b506040820151151580611fc9575b611fc1575090565b606082015290565b50606082015115611fb9565b91611fde611948565b505f5b60128110611fef5750505090565b600183018084116117755782111561205e57828203828111611775576120199060011c5b8461177a565b61202281612146565b94901561205257509081600192946020870180518211612047575b5050505b01611fe1565b5285525f808061203d565b93509150600190612041565b611f9a565b91909161206e611948565b50805160031c928151848082115f1461213c5761208a91611ad3565b935b61209781845161177a565b821115612135576120aa9150825161177a565b925b80841061212d575b5f5b600c81106120c5575090925050565b806120e86120136120e16001946120dc878b611ad3565b611762565b600b900490565b8015612127576120f781612146565b908061211a575b61210c575b50505b016120b6565b602086015284525f80612103565b50602086015181116120fe565b50612106565b9250826120b4565b50926120ac565b505060019361208c565b303b1561014e57604051638d746a0b60e01b81525f9160048201525f8160248183305af19081612190575b5061218b57506121876121826112a9565b6121a5565b9091565b908190565b61219d9192505f90610783565b5f905f612171565b60248151036121d957602081015163b106598960e01b60e09190911c6001600160e01b031916016121d95760440151600191565b505f905f9056fea2646970667358221220b2d51acb77d93ef81f4630b906eb34307106ed3afb89e5cc4bf5b5d45980672064736f6c634300081e0033","linkReferences":{}},"methodIdentifiers":{"DEFAULT_AAVE()":"ceab208b","TARGET()":"cc1f2afa","UNISWAP_V2_ROUTER()":"a82ed9ec","USDC()":"89a30271","WETH()":"ad5c4648","_execute(uint256)":"5170c1e3","_probe(uint256)":"8d746a0b","aaveToken()":"06a3fe59","executeOnOpportunity()":"3c2448ed","executed()":"31a38c89","exploitPath()":"cb707c62","fundingPair()":"1b56f668","hypothesisValidated()":"463defd1","pair()":"a8aa1b31","pairDiscovered()":"3a3bfa17","profitAmount()":"5ff972cc","profitToken()":"49343624","targetCallSucceeded()":"ad8af491","uniswapV2Call(address,uint256,uint256,bytes)":"10d1e85c"},"id":0}