{"cases/yETH/src/FlawVerifier.sol":{"FlawVerifier":{"abi":[{"type":"constructor","inputs":[],"stateMutability":"nonpayable"},{"type":"function","name":"DAI","inputs":[],"outputs":[{"name":"","type":"address","internalType":"address"}],"stateMutability":"view"},{"type":"function","name":"SUSHI_FACTORY","inputs":[],"outputs":[{"name":"","type":"address","internalType":"address"}],"stateMutability":"view"},{"type":"function","name":"TARGET_POOL","inputs":[],"outputs":[{"name":"","type":"address","internalType":"address"}],"stateMutability":"view"},{"type":"function","name":"UNISWAP_V2_FACTORY","inputs":[],"outputs":[{"name":"","type":"address","internalType":"address"}],"stateMutability":"view"},{"type":"function","name":"USDC","inputs":[],"outputs":[{"name":"","type":"address","internalType":"address"}],"stateMutability":"view"},{"type":"function","name":"USDT","inputs":[],"outputs":[{"name":"","type":"address","internalType":"address"}],"stateMutability":"view"},{"type":"function","name":"WETH","inputs":[],"outputs":[{"name":"","type":"address","internalType":"address"}],"stateMutability":"view"},{"type":"function","name":"attemptFlashLp","inputs":[],"outputs":[],"stateMutability":"nonpayable"},{"type":"function","name":"attemptFlashSwapExactOut","inputs":[],"outputs":[],"stateMutability":"nonpayable"},{"type":"function","name":"executeOnOpportunity","inputs":[],"outputs":[],"stateMutability":"nonpayable"},{"type":"function","name":"profitAmount","inputs":[],"outputs":[{"name":"","type":"uint256","internalType":"uint256"}],"stateMutability":"view"},{"type":"function","name":"profitToken","inputs":[],"outputs":[{"name":"","type":"address","internalType":"address"}],"stateMutability":"view"},{"type":"function","name":"uniswapV2Call","inputs":[{"name":"sender","type":"address","internalType":"address"},{"name":"amount0","type":"uint256","internalType":"uint256"},{"name":"amount1","type":"uint256","internalType":"uint256"},{"name":"","type":"bytes","internalType":"bytes"}],"outputs":[],"stateMutability":"nonpayable"}],"userdoc":{},"devdoc":{},"evm":{"bytecode":{"object":"6080604052348015600e575f5ffd5b50616a048061001c5f395ff3fe608060405234801561000f575f5ffd5b50600436106100cd575f3560e01c806389a302711161008a578063ad5c464811610064578063ad5c4648146101a1578063b753bb47146101bf578063c54e44eb146101dd578063e0bab4c4146101fb576100cd565b806389a302711461015b57806399d036691461017957806399d8fae314610183576100cd565b806310d1e85c146100d1578063181e0cc6146100ed5780633c2448ed1461010b57806342ab78f014610115578063493436241461011f5780635ff972cc1461013d575b5f5ffd5b6100eb60048036038101906100e6919061581e565b610219565b005b6100f561042d565b60405161010291906158b1565b60405180910390f35b610113610445565b005b61011d610681565b005b610127610b50565b60405161013491906158b1565b60405180910390f35b610145610b77565b60405161015291906158d9565b60405180910390f35b610163610b80565b60405161017091906158b1565b60405180910390f35b610181610b98565b005b61018b611069565b60405161019891906158b1565b60405180910390f35b6101a9611081565b6040516101b691906158b1565b60405180910390f35b6101c7611099565b6040516101d491906158b1565b60405180910390f35b6101e56110b1565b6040516101f291906158b1565b60405180910390f35b6102036110c9565b60405161021091906158b1565b60405180910390f35b3073ffffffffffffffffffffffffffffffffffffffff168573ffffffffffffffffffffffffffffffffffffffff1614610287576040517f08c379a000000000000000000000000000000000000000000000000000000000815260040161027e9061594c565b60405180910390fd5b60045f9054906101000a900473ffffffffffffffffffffffffffffffffffffffff1673ffffffffffffffffffffffffffffffffffffffff163373ffffffffffffffffffffffffffffffffffffffff1614610316576040517f08c379a000000000000000000000000000000000000000000000000000000000815260040161030d906159b4565b60405180910390fd5b5f5f85116103245783610326565b845b9050600654811461036c576040517f08c379a000000000000000000000000000000000000000000000000000000000815260040161036390615a1c565b60405180910390fd5b6001600354036103835761037e6110e1565b6103d6565b60026003540361039a57610395611482565b6103d5565b6040517f08c379a00000000000000000000000000000000000000000000000000000000081526004016103cc90615a84565b60405180910390fd5b5b61042560055f9054906101000a900473ffffffffffffffffffffffffffffffffffffffff1660045f9054906101000a900473ffffffffffffffffffffffffffffffffffffffff16600754611ae8565b505050505050565b73ccd04073f4bdc4510927ea9ba350875c3c65bf8181565b60025f9054906101000a900460ff1615610494576040517f08c379a000000000000000000000000000000000000000000000000000000000815260040161048b90615aec565b60405180910390fd5b600160025f6101000a81548160ff0219169083151502179055505f5f5f6101000a81548173ffffffffffffffffffffffffffffffffffffffff021916908373ffffffffffffffffffffffffffffffffffffffff1602179055505f6001819055505f73ccd04073f4bdc4510927ea9ba350875c3c65bf8190505f8173ffffffffffffffffffffffffffffffffffffffff16630b36628d6040518163ffffffff1660e01b8152600401602060405180830381865afa158015610556573d5f5f3e3d5ffd5b505050506040513d601f19601f8201168201806040525081019061057a9190615b1e565b90505f7fffffffffffffffffffffffffffffffffffffffffffffffffffffffffffffffff90505f5f90505f5f90505b83811015610612575f5f6105bd8784611c37565b915091505f8214806105ce57505f81145b806105d95750818110155b156105e5575050610607565b5f81836105f29190615b76565b905084811115610603578094508395505b5050505b8060010190506105a9565b507fffffffffffffffffffffffffffffffffffffffffffffffffffffffffffffffff821461066257610645848484611eba565b610650848484611fe1565b6106615761065f84848461229b565b505b5b5f60025f6101000a81548160ff02191690831515021790555050505050565b3073ffffffffffffffffffffffffffffffffffffffff163373ffffffffffffffffffffffffffffffffffffffff16146106ef576040517f08c379a00000000000000000000000000000000000000000000000000000000081526004016106e690615bf3565b60405180910390fd5b5f73ccd04073f4bdc4510927ea9ba350875c3c65bf8190505f8173ffffffffffffffffffffffffffffffffffffffff1663cf35bdd06013546040518263ffffffff1660e01b815260040161074391906158d9565b602060405180830381865afa15801561075e573d5f5f3e3d5ffd5b505050506040513d601f19601f820116820180604052508101906107829190615c25565b90505f8273ffffffffffffffffffffffffffffffffffffffff1663cf35bdd06014546040518263ffffffff1660e01b81526004016107c091906158d9565b602060405180830381865afa1580156107db573d5f5f3e3d5ffd5b505050506040513d601f19601f820116820180604052508101906107ff9190615c25565b90505f8273ffffffffffffffffffffffffffffffffffffffff166370a08231306040518263ffffffff1660e01b815260040161083b91906158b1565b602060405180830381865afa158015610856573d5f5f3e3d5ffd5b505050506040513d601f19601f8201168201806040525081019061087a9190615b1e565b90505f8273ffffffffffffffffffffffffffffffffffffffff166370a08231306040518263ffffffff1660e01b81526004016108b691906158b1565b602060405180830381865afa1580156108d1573d5f5f3e3d5ffd5b505050506040513d601f19601f820116820180604052508101906108f59190615b1e565b90506002600381905550600f5f9054906101000a900473ffffffffffffffffffffffffffffffffffffffff1660045f6101000a81548173ffffffffffffffffffffffffffffffffffffffff021916908373ffffffffffffffffffffffffffffffffffffffff1602179055508360055f6101000a81548173ffffffffffffffffffffffffffffffffffffffff021916908373ffffffffffffffffffffffffffffffffffffffff1602179055506016546006819055506109b4601654612555565b600781905550601354600881905550601454600981905550601554600a819055505f600b8190555060105f9054906101000a900473ffffffffffffffffffffffffffffffffffffffff16600c5f6101000a81548173ffffffffffffffffffffffffffffffffffffffff021916908373ffffffffffffffffffffffffffffffffffffffff16021790555060115f9054906101000a900473ffffffffffffffffffffffffffffffffffffffff16600d5f6101000a81548173ffffffffffffffffffffffffffffffffffffffff021916908373ffffffffffffffffffffffffffffffffffffffff16021790555060125f9054906101000a900473ffffffffffffffffffffffffffffffffffffffff16600e5f6101000a81548173ffffffffffffffffffffffffffffffffffffffff021916908373ffffffffffffffffffffffffffffffffffffffff160217905550610b2d60045f9054906101000a900473ffffffffffffffffffffffffffffffffffffffff1685601654612584565b610b418484848466038d7ea4c68000612707565b610b4961298e565b5050505050565b5f5f5f9054906101000a900473ffffffffffffffffffffffffffffffffffffffff16905090565b5f600154905090565b73a0b86991c6218b36c1d19d4a2e9eb0ce3606eb4881565b3073ffffffffffffffffffffffffffffffffffffffff163373ffffffffffffffffffffffffffffffffffffffff1614610c06576040517f08c379a0000000000000000000000000000000000000000000000000000000008152600401610bfd90615bf3565b60405180910390fd5b5f73ccd04073f4bdc4510927ea9ba350875c3c65bf8190505f8173ffffffffffffffffffffffffffffffffffffffff1663cf35bdd06013546040518263ffffffff1660e01b8152600401610c5a91906158d9565b602060405180830381865afa158015610c75573d5f5f3e3d5ffd5b505050506040513d601f19601f82011682018060405250810190610c999190615c25565b90505f8273ffffffffffffffffffffffffffffffffffffffff1663cf35bdd06014546040518263ffffffff1660e01b8152600401610cd791906158d9565b602060405180830381865afa158015610cf2573d5f5f3e3d5ffd5b505050506040513d601f19601f82011682018060405250810190610d169190615c25565b90505f8273ffffffffffffffffffffffffffffffffffffffff166370a08231306040518263ffffffff1660e01b8152600401610d5291906158b1565b602060405180830381865afa158015610d6d573d5f5f3e3d5ffd5b505050506040513d601f19601f82011682018060405250810190610d919190615b1e565b90505f8273ffffffffffffffffffffffffffffffffffffffff166370a08231306040518263ffffffff1660e01b8152600401610dcd91906158b1565b602060405180830381865afa158015610de8573d5f5f3e3d5ffd5b505050506040513d601f19601f82011682018060405250810190610e0c9190615b1e565b90506001600381905550600f5f9054906101000a900473ffffffffffffffffffffffffffffffffffffffff1660045f6101000a81548173ffffffffffffffffffffffffffffffffffffffff021916908373ffffffffffffffffffffffffffffffffffffffff1602179055508360055f6101000a81548173ffffffffffffffffffffffffffffffffffffffff021916908373ffffffffffffffffffffffffffffffffffffffff160217905550601654600681905550610ecb601654612555565b600781905550601354600881905550601454600981905550601554600a81905550601754600b8190555060105f9054906101000a900473ffffffffffffffffffffffffffffffffffffffff16600c5f6101000a81548173ffffffffffffffffffffffffffffffffffffffff021916908373ffffffffffffffffffffffffffffffffffffffff16021790555060115f9054906101000a900473ffffffffffffffffffffffffffffffffffffffff16600d5f6101000a81548173ffffffffffffffffffffffffffffffffffffffff021916908373ffffffffffffffffffffffffffffffffffffffff16021790555060125f9054906101000a900473ffffffffffffffffffffffffffffffffffffffff16600e5f6101000a81548173ffffffffffffffffffffffffffffffffffffffff021916908373ffffffffffffffffffffffffffffffffffffffff16021790555061104660045f9054906101000a900473ffffffffffffffffffffffffffffffffffffffff1685601654612584565b61105a8484848466038d7ea4c68000612707565b61106261298e565b5050505050565b735c69bee701ef814a2b6a3edd4b1652cb9cc5aa6f81565b73c02aaa39b223fe8d0a0e5c4f27ead9083c756cc281565b73c0aee478e3658e2610c5f7a4a2e1777ce9e4f2ac81565b73dac17f958d2ee523a2206206994597c13d831ec781565b736b175474e89094c44da98b954eedeac495271d0f81565b600a5460085403611127576040517f08c379a000000000000000000000000000000000000000000000000000000000815260040161111e90615c9a565b60405180910390fd5b600a546009540361116d576040517f08c379a000000000000000000000000000000000000000000000000000000000815260040161116490615d02565b60405180910390fd5b600954600854036111b3576040517f08c379a00000000000000000000000000000000000000000000000000000000081526004016111aa90615d6a565b60405180910390fd5b5f600b54116111f7576040517f08c379a00000000000000000000000000000000000000000000000000000000081526004016111ee90615dd2565b60405180910390fd5b5f73ccd04073f4bdc4510927ea9ba350875c3c65bf8190505f8173ffffffffffffffffffffffffffffffffffffffff1663cf35bdd06008546040518263ffffffff1660e01b815260040161124b91906158d9565b602060405180830381865afa158015611266573d5f5f3e3d5ffd5b505050506040513d601f19601f8201168201806040525081019061128a9190615c25565b90505f8273ffffffffffffffffffffffffffffffffffffffff1663cf35bdd06009546040518263ffffffff1660e01b81526004016112c891906158d9565b602060405180830381865afa1580156112e3573d5f5f3e3d5ffd5b505050506040513d601f19601f820116820180604052508101906113079190615c25565b905061132a8273ccd04073f4bdc4510927ea9ba350875c3c65bf81600654612b09565b8273ffffffffffffffffffffffffffffffffffffffff1663bbddbca0600854600954600b54600654306040518663ffffffff1660e01b8152600401611373959493929190615df0565b6020604051808303815f875af115801561138f573d5f5f3e3d5ffd5b505050506040513d601f19601f820116820180604052508101906113b39190615b1e565b506113c18282600754612da2565b6007548273ffffffffffffffffffffffffffffffffffffffff166370a08231306040518263ffffffff1660e01b81526004016113fd91906158b1565b602060405180830381865afa158015611418573d5f5f3e3d5ffd5b505050506040513d601f19601f8201168201806040525081019061143c9190615b1e565b101561147d576040517f08c379a000000000000000000000000000000000000000000000000000000000815260040161147490615e8b565b60405180910390fd5b505050565b600a54600854036114c8576040517f08c379a00000000000000000000000000000000000000000000000000000000081526004016114bf90615ef3565b60405180910390fd5b600a546009540361150e576040517f08c379a000000000000000000000000000000000000000000000000000000000815260040161150590615f5b565b60405180910390fd5b60095460085403611554576040517f08c379a000000000000000000000000000000000000000000000000000000000815260040161154b90615d6a565b60405180910390fd5b5f73ccd04073f4bdc4510927ea9ba350875c3c65bf8190505f8173ffffffffffffffffffffffffffffffffffffffff1663cf35bdd06008546040518263ffffffff1660e01b81526004016115a891906158d9565b602060405180830381865afa1580156115c3573d5f5f3e3d5ffd5b505050506040513d601f19601f820116820180604052508101906115e79190615c25565b90505f8273ffffffffffffffffffffffffffffffffffffffff1663cf35bdd06009546040518263ffffffff1660e01b815260040161162591906158d9565b602060405180830381865afa158015611640573d5f5f3e3d5ffd5b505050506040513d601f19601f820116820180604052508101906116649190615c25565b90505f8373ffffffffffffffffffffffffffffffffffffffff1663fc0c546a6040518163ffffffff1660e01b8152600401602060405180830381865afa1580156116b0573d5f5f3e3d5ffd5b505050506040513d601f19601f820116820180604052508101906116d49190615c25565b90505f8473ffffffffffffffffffffffffffffffffffffffff16630b36628d6040518163ffffffff1660e01b8152600401602060405180830381865afa158015611720573d5f5f3e3d5ffd5b505050506040513d601f19601f820116820180604052508101906117449190615b1e565b67ffffffffffffffff81111561175d5761175c615f79565b5b60405190808252806020026020018201604052801561178b5781602001602082028036833780820191505090505b50905060065481600854815181106117a6576117a5615fa6565b5b6020026020010181815250506117d38473ccd04073f4bdc4510927ea9ba350875c3c65bf81600654612b09565b5f8273ffffffffffffffffffffffffffffffffffffffff166370a08231306040518263ffffffff1660e01b815260040161180d91906158b1565b602060405180830381865afa158015611828573d5f5f3e3d5ffd5b505050506040513d601f19601f8201168201806040525081019061184c9190615b1e565b90508573ffffffffffffffffffffffffffffffffffffffff1663a7256d09835f306040518463ffffffff1660e01b815260040161188b939291906160cc565b6020604051808303815f875af11580156118a7573d5f5f3e3d5ffd5b505050506040513d601f19601f820116820180604052508101906118cb9190615b1e565b505f818473ffffffffffffffffffffffffffffffffffffffff166370a08231306040518263ffffffff1660e01b815260040161190791906158b1565b602060405180830381865afa158015611922573d5f5f3e3d5ffd5b505050506040513d601f19601f820116820180604052508101906119469190615b1e565b6119509190615b76565b90505f8111611994576040517f08c379a000000000000000000000000000000000000000000000000000000000815260040161198b90616152565b60405180910390fd5b8673ffffffffffffffffffffffffffffffffffffffff166380ef1f0d600954835f306040518563ffffffff1660e01b81526004016119d59493929190616170565b6020604051808303815f875af11580156119f1573d5f5f3e3d5ffd5b505050506040513d601f19601f82011682018060405250810190611a159190615b1e565b50611a238686600754612da2565b6007548673ffffffffffffffffffffffffffffffffffffffff166370a08231306040518263ffffffff1660e01b8152600401611a5f91906158b1565b602060405180830381865afa158015611a7a573d5f5f3e3d5ffd5b505050506040513d601f19601f82011682018060405250810190611a9e9190615b1e565b1015611adf576040517f08c379a0000000000000000000000000000000000000000000000000000000008152600401611ad690615e8b565b60405180910390fd5b50505050505050565b5f5f8473ffffffffffffffffffffffffffffffffffffffff1663a9059cbb60e01b8585604051602401611b1c9291906161b3565b604051602081830303815290604052907bffffffffffffffffffffffffffffffffffffffffffffffffffffffff19166020820180517bffffffffffffffffffffffffffffffffffffffffffffffffffffffff8381831617835250505050604051611b86919061622c565b5f604051808303815f865af19150503d805f8114611bbf576040519150601f19603f3d011682016040523d82523d5f602084013e611bc4565b606091505b5091509150818015611bf157505f81511480611bf0575080806020019051810190611bef9190616277565b5b5b611c30576040517f08c379a0000000000000000000000000000000000000000000000000000000008152600401611c27906162ec565b60405180910390fd5b5050505050565b5f5f8373ffffffffffffffffffffffffffffffffffffffff1663e7ee6ad6846040518263ffffffff1660e01b8152600401611c7291906158d9565b602060405180830381865afa925050508015611cac57506040513d601f19601f82011682018060405250810190611ca99190615b1e565b60015b611cbb575f5f91509150611eb3565b809250505f8473ffffffffffffffffffffffffffffffffffffffff166320b014d5856040518263ffffffff1660e01b8152600401611cf991906158d9565b602060405180830381865afa158015611d14573d5f5f3e3d5ffd5b505050506040513d601f19601f82011682018060405250810190611d389190615c25565b90505f8573ffffffffffffffffffffffffffffffffffffffff1663cf35bdd0866040518263ffffffff1660e01b8152600401611d7491906158d9565b602060405180830381865afa158015611d8f573d5f5f3e3d5ffd5b505050506040513d601f19601f82011682018060405250810190611db39190615c25565b90505f73ffffffffffffffffffffffffffffffffffffffff168273ffffffffffffffffffffffffffffffffffffffff161480611e1a57505f73ffffffffffffffffffffffffffffffffffffffff168173ffffffffffffffffffffffffffffffffffffffff16145b15611e2c57835f935093505050611eb3565b8173ffffffffffffffffffffffffffffffffffffffff16630ba9d8ca826040518263ffffffff1660e01b8152600401611e6591906158b1565b602060405180830381865afa925050508015611e9f57506040513d601f19601f82011682018060405250810190611e9c9190615b1e565b60015b611eab575f9250611eb0565b809350505b50505b9250929050565b6001821115611fdc575f600183611ed19190615b76565b67ffffffffffffffff811115611eea57611ee9615f79565b5b604051908082528060200260200182016040528015611f185781602001602082028036833780820191505090505b5090505f5f5f90505b84811015611f695783810315611f5e5780838381518110611f4557611f44615fa6565b5b60200260200101818152505081611f5b9061630a565b91505b806001019050611f21565b505f811115611fd9578473ffffffffffffffffffffffffffffffffffffffff16634fa0e817836040518263ffffffff1660e01b8152600401611fab9190616351565b5f604051808303815f87803b158015611fc2575f5ffd5b505af1158015611fd4573d5f5f3e3d5ffd5b505050505b50505b505050565b5f5f5f90505b8381101561228f5782811480612004575061200285826130af565b155b612284575f8573ffffffffffffffffffffffffffffffffffffffff1663cf35bdd0836040518263ffffffff1660e01b815260040161204291906158d9565b602060405180830381865afa15801561205d573d5f5f3e3d5ffd5b505050506040513d601f19601f820116820180604052508101906120819190615c25565b90505f61208d82613105565b90505f5f90505b8681101561228057858114806120a957508381145b806120bb57506120b988826130af565b155b612275575f8873ffffffffffffffffffffffffffffffffffffffff1663cf35bdd0836040518263ffffffff1660e01b81526004016120f991906158d9565b602060405180830381865afa158015612114573d5f5f3e3d5ffd5b505050506040513d601f19601f820116820180604052508101906121389190615c25565b90505f8173ffffffffffffffffffffffffffffffffffffffff166370a0823173ccd04073f4bdc4510927ea9ba350875c3c65bf816040518263ffffffff1660e01b815260040161218891906158b1565b602060405180830381865afa1580156121a3573d5f5f3e3d5ffd5b505050506040513d601f19601f820116820180604052508101906121c79190615b1e565b905066038d7ea4c6800081116121de575050612275565b5f5f90505b6008811015612271575f858260088110612200576121ff615fa6565b5b602002015190505f73ffffffffffffffffffffffffffffffffffffffff168173ffffffffffffffffffffffffffffffffffffffff16036122405750612266565b61224e8c8b8a888588613501565b1561226457600198505050505050505050612294565b505b8060010190506121e3565b5050505b806001019050612094565b5050505b806001019050611fe7565b505f90505b9392505050565b5f5f5f90505b8381101561254957828114806122be57506122bc85826130af565b155b61253e575f8573ffffffffffffffffffffffffffffffffffffffff1663cf35bdd0836040518263ffffffff1660e01b81526004016122fc91906158d9565b602060405180830381865afa158015612317573d5f5f3e3d5ffd5b505050506040513d601f19601f8201168201806040525081019061233b9190615c25565b90505f61234782613105565b90505f5f90505b8681101561253a578581148061236357508381145b80612375575061237388826130af565b155b61252f575f8873ffffffffffffffffffffffffffffffffffffffff1663cf35bdd0836040518263ffffffff1660e01b81526004016123b391906158d9565b602060405180830381865afa1580156123ce573d5f5f3e3d5ffd5b505050506040513d601f19601f820116820180604052508101906123f29190615c25565b90505f8173ffffffffffffffffffffffffffffffffffffffff166370a0823173ccd04073f4bdc4510927ea9ba350875c3c65bf816040518263ffffffff1660e01b815260040161244291906158b1565b602060405180830381865afa15801561245d573d5f5f3e3d5ffd5b505050506040513d601f19601f820116820180604052508101906124819190615b1e565b905066038d7ea4c68000811161249857505061252f565b5f5f90505b600881101561252b575f8582600881106124ba576124b9615fa6565b5b602002015190505f73ffffffffffffffffffffffffffffffffffffffff168173ffffffffffffffffffffffffffffffffffffffff16036124fa5750612520565b6125088c8b8a8885886137ea565b1561251e5760019850505050505050505061254e565b505b80600101905061249d565b5050505b80600101905061234e565b5050505b8060010190506122a1565b505f90505b9392505050565b5f60016103e56103e8846125699190616371565b61257391906163df565b61257d919061640f565b9050919050565b5f8390508273ffffffffffffffffffffffffffffffffffffffff168173ffffffffffffffffffffffffffffffffffffffff16630dfe16816040518163ffffffff1660e01b8152600401602060405180830381865afa1580156125e8573d5f5f3e3d5ffd5b505050506040513d601f19601f8201168201806040525081019061260c9190615c25565b73ffffffffffffffffffffffffffffffffffffffff1603612696578073ffffffffffffffffffffffffffffffffffffffff1663022c0d9f835f306040518463ffffffff1660e01b81526004016126649392919061649c565b5f604051808303815f87803b15801561267b575f5ffd5b505af115801561268d573d5f5f3e3d5ffd5b50505050612701565b8073ffffffffffffffffffffffffffffffffffffffff1663022c0d9f5f84306040518463ffffffff1660e01b81526004016126d3939291906164e4565b5f604051808303815f87803b1580156126ea575f5ffd5b505af11580156126fc573d5f5f3e3d5ffd5b505050505b50505050565b5f8473ffffffffffffffffffffffffffffffffffffffff166370a08231306040518263ffffffff1660e01b815260040161274191906158b1565b602060405180830381865afa15801561275c573d5f5f3e3d5ffd5b505050506040513d601f19601f820116820180604052508101906127809190615b1e565b905082811115612829575f83826127979190615b76565b9050828110156127dc576040517f08c379a00000000000000000000000000000000000000000000000000000000081526004016127d390616576565b60405180910390fd5b855f5f6101000a81548173ffffffffffffffffffffffffffffffffffffffff021916908373ffffffffffffffffffffffffffffffffffffffff160217905550806001819055505050612987565b5f8673ffffffffffffffffffffffffffffffffffffffff166370a08231306040518263ffffffff1660e01b815260040161286391906158b1565b602060405180830381865afa15801561287e573d5f5f3e3d5ffd5b505050506040513d601f19601f820116820180604052508101906128a29190615b1e565b90508481111561294c575f85826128b99190615b76565b9050838110156128fe576040517f08c379a00000000000000000000000000000000000000000000000000000000081526004016128f590616576565b60405180910390fd5b875f5f6101000a81548173ffffffffffffffffffffffffffffffffffffffff021916908373ffffffffffffffffffffffffffffffffffffffff16021790555080600181905550505050612987565b6040517f08c379a000000000000000000000000000000000000000000000000000000000815260040161297e906165de565b60405180910390fd5b5050505050565b5f6003819055505f60045f6101000a81548173ffffffffffffffffffffffffffffffffffffffff021916908373ffffffffffffffffffffffffffffffffffffffff1602179055505f60055f6101000a81548173ffffffffffffffffffffffffffffffffffffffff021916908373ffffffffffffffffffffffffffffffffffffffff1602179055505f6006819055505f6007819055505f6008819055505f6009819055505f600a819055505f600b819055505f600c5f6101000a81548173ffffffffffffffffffffffffffffffffffffffff021916908373ffffffffffffffffffffffffffffffffffffffff1602179055505f600d5f6101000a81548173ffffffffffffffffffffffffffffffffffffffff021916908373ffffffffffffffffffffffffffffffffffffffff1602179055505f600e5f6101000a81548173ffffffffffffffffffffffffffffffffffffffff021916908373ffffffffffffffffffffffffffffffffffffffff160217905550612b07613ad2565b565b5f5f8473ffffffffffffffffffffffffffffffffffffffff1663095ea7b360e01b855f604051602401612b3d929190616638565b604051602081830303815290604052907bffffffffffffffffffffffffffffffffffffffffffffffffffffffff19166020820180517bffffffffffffffffffffffffffffffffffffffffffffffffffffffff8381831617835250505050604051612ba7919061622c565b5f604051808303815f865af19150503d805f8114612be0576040519150601f19603f3d011682016040523d82523d5f602084013e612be5565b606091505b5091509150818015612c1257505f81511480612c11575080806020019051810190612c109190616277565b5b5b612c51576040517f08c379a0000000000000000000000000000000000000000000000000000000008152600401612c48906166a9565b60405180910390fd5b5f5f8673ffffffffffffffffffffffffffffffffffffffff1663095ea7b360e01b8787604051602401612c859291906161b3565b604051602081830303815290604052907bffffffffffffffffffffffffffffffffffffffffffffffffffffffff19166020820180517bffffffffffffffffffffffffffffffffffffffffffffffffffffffff8381831617835250505050604051612cef919061622c565b5f604051808303815f865af19150503d805f8114612d28576040519150601f19603f3d011682016040523d82523d5f602084013e612d2d565b606091505b5091509150818015612d5a57505f81511480612d59575080806020019051810190612d589190616277565b5b5b612d99576040517f08c379a0000000000000000000000000000000000000000000000000000000008152600401612d9090616711565b60405180910390fd5b50505050505050565b5f8373ffffffffffffffffffffffffffffffffffffffff166370a08231306040518263ffffffff1660e01b8152600401612ddc91906158b1565b602060405180830381865afa158015612df7573d5f5f3e3d5ffd5b505050506040513d601f19601f82011682018060405250810190612e1b9190615b1e565b9050818110612e2a57506130aa565b5f8183612e379190615b76565b9050612e44848683613bf7565b15612e505750506130aa565b5f6040518061018001604052806001815260200160018152602001600181526020016001815260200160018152602001600281526020016003815260200160048152602001600181526020016001815260200160018152602001600181525090505f6040518061018001604052806040815260200160208152602001601081526020016008815260200160048152602001600581526020016007815260200160098152602001600381526020016002815260200160018152602001600181525090505f5f90505b600c8110156130a457858873ffffffffffffffffffffffffffffffffffffffff166370a08231306040518263ffffffff1660e01b8152600401612f5a91906158b1565b602060405180830381865afa158015612f75573d5f5f3e3d5ffd5b505050506040513d601f19601f82011682018060405250810190612f999190615b1e565b10612fa85750505050506130aa565b5f8773ffffffffffffffffffffffffffffffffffffffff166370a08231306040518263ffffffff1660e01b8152600401612fe291906158b1565b602060405180830381865afa158015612ffd573d5f5f3e3d5ffd5b505050506040513d601f19601f820116820180604052508101906130219190615b1e565b90505f8103613035575050505050506130aa565b5f8383600c811061304957613048615fa6565b5b60200201518584600c811061306157613060615fa6565b5b6020020151836130719190616371565b61307b91906163df565b90505f810361308b575050613099565b6130958982613f1f565b5050505b806001019050612f17565b50505050505b505050565b5f5f5f6130bc8585611c37565b915091505f8214806130cd57505f81145b156130dc575f925050506130ff565b6126de826130ea9190616371565b612710826130f89190616371565b1015925050505b92915050565b61310d615705565b613140735c69bee701ef814a2b6a3edd4b1652cb9cc5aa6f8373c02aaa39b223fe8d0a0e5c4f27ead9083c756cc2613ffa565b815f6008811061315357613152615fa6565b5b602002019073ffffffffffffffffffffffffffffffffffffffff16908173ffffffffffffffffffffffffffffffffffffffff16815250506131bd73c0aee478e3658e2610c5f7a4a2e1777ce9e4f2ac8373c02aaa39b223fe8d0a0e5c4f27ead9083c756cc2613ffa565b816001600881106131d1576131d0615fa6565b5b602002019073ffffffffffffffffffffffffffffffffffffffff16908173ffffffffffffffffffffffffffffffffffffffff168152505061323b735c69bee701ef814a2b6a3edd4b1652cb9cc5aa6f8373a0b86991c6218b36c1d19d4a2e9eb0ce3606eb48613ffa565b8160026008811061324f5761324e615fa6565b5b602002019073ffffffffffffffffffffffffffffffffffffffff16908173ffffffffffffffffffffffffffffffffffffffff16815250506132b973c0aee478e3658e2610c5f7a4a2e1777ce9e4f2ac8373a0b86991c6218b36c1d19d4a2e9eb0ce3606eb48613ffa565b816003600881106132cd576132cc615fa6565b5b602002019073ffffffffffffffffffffffffffffffffffffffff16908173ffffffffffffffffffffffffffffffffffffffff1681525050613337735c69bee701ef814a2b6a3edd4b1652cb9cc5aa6f8373dac17f958d2ee523a2206206994597c13d831ec7613ffa565b8160046008811061334b5761334a615fa6565b5b602002019073ffffffffffffffffffffffffffffffffffffffff16908173ffffffffffffffffffffffffffffffffffffffff16815250506133b573c0aee478e3658e2610c5f7a4a2e1777ce9e4f2ac8373dac17f958d2ee523a2206206994597c13d831ec7613ffa565b816005600881106133c9576133c8615fa6565b5b602002019073ffffffffffffffffffffffffffffffffffffffff16908173ffffffffffffffffffffffffffffffffffffffff1681525050613433735c69bee701ef814a2b6a3edd4b1652cb9cc5aa6f83736b175474e89094c44da98b954eedeac495271d0f613ffa565b8160066008811061344757613446615fa6565b5b602002019073ffffffffffffffffffffffffffffffffffffffff16908173ffffffffffffffffffffffffffffffffffffffff16815250506134b173c0aee478e3658e2610c5f7a4a2e1777ce9e4f2ac83736b175474e89094c44da98b954eedeac495271d0f613ffa565b816007600881106134c5576134c4615fa6565b5b602002019073ffffffffffffffffffffffffffffffffffffffff16908173ffffffffffffffffffffffffffffffffffffffff1681525050919050565b5f5f8773ffffffffffffffffffffffffffffffffffffffff1663cf35bdd0876040518263ffffffff1660e01b815260040161353c91906158d9565b602060405180830381865afa158015613557573d5f5f3e3d5ffd5b505050506040513d601f19601f8201168201806040525081019061357b9190615c25565b90505f8873ffffffffffffffffffffffffffffffffffffffff1663cf35bdd0876040518263ffffffff1660e01b81526004016135b791906158d9565b602060405180830381865afa1580156135d2573d5f5f3e3d5ffd5b505050506040513d601f19601f820116820180604052508101906135f69190615c25565b90505f5f5f61360684868a6140c3565b9250925092505f73ffffffffffffffffffffffffffffffffffffffff168373ffffffffffffffffffffffffffffffffffffffff160361364c575f955050505050506137e0565b5f6136578987614384565b905066038d7ea4c680008111613675575f96505050505050506137e0565b5f61369860058361368691906163df565b60038b61369391906163df565b61457e565b905066038d7ea4c6800081116136b7575f9750505050505050506137e0565b89600f5f6101000a81548173ffffffffffffffffffffffffffffffffffffffff021916908373ffffffffffffffffffffffffffffffffffffffff1602179055508460105f6101000a81548173ffffffffffffffffffffffffffffffffffffffff021916908373ffffffffffffffffffffffffffffffffffffffff1602179055508360115f6101000a81548173ffffffffffffffffffffffffffffffffffffffff021916908373ffffffffffffffffffffffffffffffffffffffff1602179055508260125f6101000a81548173ffffffffffffffffffffffffffffffffffffffff021916908373ffffffffffffffffffffffffffffffffffffffff1602179055508b6013819055508a6014819055508c6015819055506137d6818a614596565b9750505050505050505b9695505050505050565b5f5f8773ffffffffffffffffffffffffffffffffffffffff1663cf35bdd0876040518263ffffffff1660e01b815260040161382591906158d9565b602060405180830381865afa158015613840573d5f5f3e3d5ffd5b505050506040513d601f19601f820116820180604052508101906138649190615c25565b90505f8873ffffffffffffffffffffffffffffffffffffffff1663cf35bdd0876040518263ffffffff1660e01b81526004016138a091906158d9565b602060405180830381865afa1580156138bb573d5f5f3e3d5ffd5b505050506040513d601f19601f820116820180604052508101906138df9190615c25565b90505f5f5f6138ef84868a6140c3565b9250925092505f73ffffffffffffffffffffffffffffffffffffffff168373ffffffffffffffffffffffffffffffffffffffff1603613935575f95505050505050613ac8565b5f6139408987614384565b905066038d7ea4c68000811161395e575f9650505050505050613ac8565b5f61398160068361396f91906163df565b60048b61397c91906163df565b61457e565b905066038d7ea4c6800081116139a0575f975050505050505050613ac8565b89600f5f6101000a81548173ffffffffffffffffffffffffffffffffffffffff021916908373ffffffffffffffffffffffffffffffffffffffff1602179055508460105f6101000a81548173ffffffffffffffffffffffffffffffffffffffff021916908373ffffffffffffffffffffffffffffffffffffffff1602179055508360115f6101000a81548173ffffffffffffffffffffffffffffffffffffffff021916908373ffffffffffffffffffffffffffffffffffffffff1602179055508260125f6101000a81548173ffffffffffffffffffffffffffffffffffffffff021916908373ffffffffffffffffffffffffffffffffffffffff1602179055508b6013819055508a6014819055508c601581905550613abe81614789565b9750505050505050505b9695505050505050565b5f600f5f6101000a81548173ffffffffffffffffffffffffffffffffffffffff021916908373ffffffffffffffffffffffffffffffffffffffff1602179055505f60105f6101000a81548173ffffffffffffffffffffffffffffffffffffffff021916908373ffffffffffffffffffffffffffffffffffffffff1602179055505f60115f6101000a81548173ffffffffffffffffffffffffffffffffffffffff021916908373ffffffffffffffffffffffffffffffffffffffff1602179055505f60125f6101000a81548173ffffffffffffffffffffffffffffffffffffffff021916908373ffffffffffffffffffffffffffffffffffffffff1602179055505f6013819055505f6014819055505f6015819055505f6016819055505f601781905550565b5f5f821480613c5257505f73ffffffffffffffffffffffffffffffffffffffff16600c5f9054906101000a900473ffffffffffffffffffffffffffffffffffffffff1673ffffffffffffffffffffffffffffffffffffffff16145b15613c5f575f9050613f18565b5f8473ffffffffffffffffffffffffffffffffffffffff166370a08231306040518263ffffffff1660e01b8152600401613c9991906158b1565b602060405180830381865afa158015613cb4573d5f5f3e3d5ffd5b505050506040513d601f19601f82011682018060405250810190613cd89190615b1e565b90505f8103613cea575f915050613f18565b5f73ffffffffffffffffffffffffffffffffffffffff16600d5f9054906101000a900473ffffffffffffffffffffffffffffffffffffffff1673ffffffffffffffffffffffffffffffffffffffff1603613dc3575f613d6b600c5f9054906101000a900473ffffffffffffffffffffffffffffffffffffffff1687866148c0565b90505f811480613d7a57508181115b15613d89575f92505050613f18565b613db7600c5f9054906101000a900473ffffffffffffffffffffffffffffffffffffffff1687878730614b33565b50600192505050613f18565b5f613e11600d5f9054906101000a900473ffffffffffffffffffffffffffffffffffffffff16600e5f9054906101000a900473ffffffffffffffffffffffffffffffffffffffff16866148c0565b90505f8103613e24575f92505050613f18565b5f613e51600c5f9054906101000a900473ffffffffffffffffffffffffffffffffffffffff1688846148c0565b90505f811480613e6057508281115b15613e70575f9350505050613f18565b613ebf600c5f9054906101000a900473ffffffffffffffffffffffffffffffffffffffff1688600e5f9054906101000a900473ffffffffffffffffffffffffffffffffffffffff168530614b33565b50613f0f600d5f9054906101000a900473ffffffffffffffffffffffffffffffffffffffff16600e5f9054906101000a900473ffffffffffffffffffffffffffffffffffffffff16888830614b33565b50600193505050505b9392505050565b5f613f4d600c5f9054906101000a900473ffffffffffffffffffffffffffffffffffffffff16848430614fd5565b90505f73ffffffffffffffffffffffffffffffffffffffff16600d5f9054906101000a900473ffffffffffffffffffffffffffffffffffffffff1673ffffffffffffffffffffffffffffffffffffffff1614613ff457613ff1600d5f9054906101000a900473ffffffffffffffffffffffffffffffffffffffff16600e5f9054906101000a900473ffffffffffffffffffffffffffffffffffffffff168330614fd5565b90505b92915050565b5f8173ffffffffffffffffffffffffffffffffffffffff168373ffffffffffffffffffffffffffffffffffffffff1603614036575f90506140bc565b8373ffffffffffffffffffffffffffffffffffffffff1663e6a4390584846040518363ffffffff1660e01b815260040161407192919061672f565b602060405180830381865afa9250505080156140ab57506040513d601f19601f820116820180604052508101906140a89190615c25565b60015b6140b7575f90506140bc565b809150505b9392505050565b5f5f5f6140d28686865f615408565b92505f73ffffffffffffffffffffffffffffffffffffffff168373ffffffffffffffffffffffffffffffffffffffff161461411557825f5f92509250925061437b565b5f604051806080016040528073c02aaa39b223fe8d0a0e5c4f27ead9083c756cc273ffffffffffffffffffffffffffffffffffffffff1673ffffffffffffffffffffffffffffffffffffffff16815260200173a0b86991c6218b36c1d19d4a2e9eb0ce3606eb4873ffffffffffffffffffffffffffffffffffffffff1673ffffffffffffffffffffffffffffffffffffffff16815260200173dac17f958d2ee523a2206206994597c13d831ec773ffffffffffffffffffffffffffffffffffffffff1673ffffffffffffffffffffffffffffffffffffffff168152602001736b175474e89094c44da98b954eedeac495271d0f73ffffffffffffffffffffffffffffffffffffffff1673ffffffffffffffffffffffffffffffffffffffff1681525090505f5f90505b6004811015614378575f82826004811061425b5761425a615fa6565b5b602002015190508873ffffffffffffffffffffffffffffffffffffffff168173ffffffffffffffffffffffffffffffffffffffff1614806142c757508773ffffffffffffffffffffffffffffffffffffffff168173ffffffffffffffffffffffffffffffffffffffff16145b156142d2575061436d565b6142de8982895f615408565b95505f73ffffffffffffffffffffffffffffffffffffffff168673ffffffffffffffffffffffffffffffffffffffff1603614319575061436d565b61432581898989615408565b94505f73ffffffffffffffffffffffffffffffffffffffff168573ffffffffffffffffffffffffffffffffffffffff161461436b5785858295509550955050505061437b565b505b80600101905061423e565b50505b93509350939050565b5f5f8390505f5f8273ffffffffffffffffffffffffffffffffffffffff16630902f1ac6040518163ffffffff1660e01b8152600401606060405180830381865afa1580156143d4573d5f5f3e3d5ffd5b505050506040513d601f19601f820116820180604052508101906143f891906167d2565b50915091508473ffffffffffffffffffffffffffffffffffffffff168373ffffffffffffffffffffffffffffffffffffffff16630dfe16816040518163ffffffff1660e01b8152600401602060405180830381865afa15801561445d573d5f5f3e3d5ffd5b505050506040513d601f19601f820116820180604052508101906144819190615c25565b73ffffffffffffffffffffffffffffffffffffffff16036144b757816dffffffffffffffffffffffffffff169350505050614578565b8473ffffffffffffffffffffffffffffffffffffffff168373ffffffffffffffffffffffffffffffffffffffff1663d21220a76040518163ffffffff1660e01b8152600401602060405180830381865afa158015614517573d5f5f3e3d5ffd5b505050506040513d601f19601f8201168201806040525081019061453b9190615c25565b73ffffffffffffffffffffffffffffffffffffffff160361457157806dffffffffffffffffffffffffffff169350505050614578565b5f93505050505b92915050565b5f81831061458c578161458e565b825b905092915050565b5f5f60405180610180016040528060088152602001600c8152602001601081526020016014815260200160188152602001602081526020016028815260200160328152602001604081526020016050815260200160648152602001607d81525090505f604051806101800160405280600c8152602001601081526020016014815260200160188152602001602081526020016028815260200160328152602001604081526020016050815260200160648152602001607d815260200160a081525090505f5f90505b600c81101561477c575f8382600c811061467b5761467a615fa6565b5b60200201518761468b91906163df565b905066038d7ea4c6800081116146a15750614771565b5f5f90505b600c81101561476e575f8482600c81106146c3576146c2615fa6565b5b6020020151886146d391906163df565b905066038d7ea4c6800081116146e95750614763565b82601681905550806017819055503073ffffffffffffffffffffffffffffffffffffffff166399d036696040518163ffffffff1660e01b81526004015f604051808303815f87803b15801561473c575f5ffd5b505af192505050801561474d575060015b156147615760019650505050505050614783565b505b8060010190506146a6565b50505b80600101905061465e565b505f925050505b92915050565b5f5f604051806101800160405280600c8152602001601081526020016014815260200160188152602001602081526020016028815260200160328152602001604081526020016050815260200160648152602001607d815260200160a081525090505f5f90505b600c8110156148b5575f8282600c811061480d5761480c615fa6565b5b60200201518561481d91906163df565b905066038d7ea4c68000811161483357506148aa565b806016819055505f6017819055503073ffffffffffffffffffffffffffffffffffffffff166342ab78f06040518163ffffffff1660e01b81526004015f604051808303815f87803b158015614886575f5ffd5b505af1925050508015614897575060015b156148a857600193505050506148bb565b505b8060010190506147f0565b505f9150505b919050565b5f5f8490505f5f8273ffffffffffffffffffffffffffffffffffffffff16630902f1ac6040518163ffffffff1660e01b8152600401606060405180830381865afa158015614910573d5f5f3e3d5ffd5b505050506040513d601f19601f8201168201806040525081019061493491906167d2565b50915091508573ffffffffffffffffffffffffffffffffffffffff168373ffffffffffffffffffffffffffffffffffffffff16630dfe16816040518163ffffffff1660e01b8152600401602060405180830381865afa158015614999573d5f5f3e3d5ffd5b505050506040513d601f19601f820116820180604052508101906149bd9190615c25565b73ffffffffffffffffffffffffffffffffffffffff1603614a2f5784816dffffffffffffffffffffffffffff16116149fa575f9350505050614b2c565b614a2585836dffffffffffffffffffffffffffff16836dffffffffffffffffffffffffffff166155b8565b9350505050614b2c565b8573ffffffffffffffffffffffffffffffffffffffff168373ffffffffffffffffffffffffffffffffffffffff1663d21220a76040518163ffffffff1660e01b8152600401602060405180830381865afa158015614a8f573d5f5f3e3d5ffd5b505050506040513d601f19601f82011682018060405250810190614ab39190615c25565b73ffffffffffffffffffffffffffffffffffffffff1603614b255784826dffffffffffffffffffffffffffff1611614af0575f9350505050614b2c565b614b1b85826dffffffffffffffffffffffffffff16846dffffffffffffffffffffffffffff166155b8565b9350505050614b2c565b5f93505050505b9392505050565b5f5f8690505f8173ffffffffffffffffffffffffffffffffffffffff16630dfe16816040518163ffffffff1660e01b8152600401602060405180830381865afa158015614b82573d5f5f3e3d5ffd5b505050506040513d601f19601f82011682018060405250810190614ba69190615c25565b90505f8273ffffffffffffffffffffffffffffffffffffffff1663d21220a76040518163ffffffff1660e01b8152600401602060405180830381865afa158015614bf2573d5f5f3e3d5ffd5b505050506040513d601f19601f82011682018060405250810190614c169190615c25565b90508173ffffffffffffffffffffffffffffffffffffffff168873ffffffffffffffffffffffffffffffffffffffff16148015614c7e57508073ffffffffffffffffffffffffffffffffffffffff168773ffffffffffffffffffffffffffffffffffffffff16145b80614ceb57508073ffffffffffffffffffffffffffffffffffffffff168873ffffffffffffffffffffffffffffffffffffffff16148015614cea57508173ffffffffffffffffffffffffffffffffffffffff168773ffffffffffffffffffffffffffffffffffffffff16145b5b614d2a576040517f08c379a0000000000000000000000000000000000000000000000000000000008152600401614d219061686c565b60405180910390fd5b5f5f8473ffffffffffffffffffffffffffffffffffffffff16630902f1ac6040518163ffffffff1660e01b8152600401606060405180830381865afa158015614d75573d5f5f3e3d5ffd5b505050506040513d601f19601f82011682018060405250810190614d9991906167d2565b50915091505f8473ffffffffffffffffffffffffffffffffffffffff168b73ffffffffffffffffffffffffffffffffffffffff161490505f81614dec57826dffffffffffffffffffffffffffff16614dfe565b836dffffffffffffffffffffffffffff165b90505f82614e1c57846dffffffffffffffffffffffffffff16614e2e565b836dffffffffffffffffffffffffffff165b9050614e3b8b83836155b8565b9850614e488d8f8b611ae8565b8215614f0b578773ffffffffffffffffffffffffffffffffffffffff1663022c0d9f5f8d8d5f67ffffffffffffffff811115614e8757614e86615f79565b5b6040519080825280601f01601f191660200182016040528015614eb95781602001600182028036833780820191505090505b506040518563ffffffff1660e01b8152600401614ed994939291906168d2565b5f604051808303815f87803b158015614ef0575f5ffd5b505af1158015614f02573d5f5f3e3d5ffd5b50505050614fc4565b8773ffffffffffffffffffffffffffffffffffffffff1663022c0d9f8c5f8d5f67ffffffffffffffff811115614f4457614f43615f79565b5b6040519080825280601f01601f191660200182016040528015614f765781602001600182028036833780820191505090505b506040518563ffffffff1660e01b8152600401614f96949392919061691c565b5f604051808303815f87803b158015614fad575f5ffd5b505af1158015614fbf573d5f5f3e3d5ffd5b505050505b505050505050505095945050505050565b5f5f8590505f8173ffffffffffffffffffffffffffffffffffffffff16630dfe16816040518163ffffffff1660e01b8152600401602060405180830381865afa158015615024573d5f5f3e3d5ffd5b505050506040513d601f19601f820116820180604052508101906150489190615c25565b90505f8273ffffffffffffffffffffffffffffffffffffffff1663d21220a76040518163ffffffff1660e01b8152600401602060405180830381865afa158015615094573d5f5f3e3d5ffd5b505050506040513d601f19601f820116820180604052508101906150b89190615c25565b90508173ffffffffffffffffffffffffffffffffffffffff168773ffffffffffffffffffffffffffffffffffffffff16148061511f57508073ffffffffffffffffffffffffffffffffffffffff168773ffffffffffffffffffffffffffffffffffffffff16145b61515e576040517f08c379a00000000000000000000000000000000000000000000000000000000081526004016151559061686c565b60405180910390fd5b5f5f8473ffffffffffffffffffffffffffffffffffffffff16630902f1ac6040518163ffffffff1660e01b8152600401606060405180830381865afa1580156151a9573d5f5f3e3d5ffd5b505050506040513d601f19601f820116820180604052508101906151cd91906167d2565b50915091505f8473ffffffffffffffffffffffffffffffffffffffff168a73ffffffffffffffffffffffffffffffffffffffff161490505f8161522057826dffffffffffffffffffffffffffff16615232565b836dffffffffffffffffffffffffffff165b90505f8261525057846dffffffffffffffffffffffffffff16615262565b836dffffffffffffffffffffffffffff165b905061526f8b8383615662565b985061527c8c8e8d611ae8565b821561533f578773ffffffffffffffffffffffffffffffffffffffff1663022c0d9f5f8b8d5f67ffffffffffffffff8111156152bb576152ba615f79565b5b6040519080825280601f01601f1916602001820160405280156152ed5781602001600182028036833780820191505090505b506040518563ffffffff1660e01b815260040161530d94939291906168d2565b5f604051808303815f87803b158015615324575f5ffd5b505af1158015615336573d5f5f3e3d5ffd5b505050506153f8565b8773ffffffffffffffffffffffffffffffffffffffff1663022c0d9f8a5f8d5f67ffffffffffffffff81111561537857615377615f79565b5b6040519080825280601f01601f1916602001820160405280156153aa5781602001600182028036833780820191505090505b506040518563ffffffff1660e01b81526004016153ca949392919061691c565b5f604051808303815f87803b1580156153e1575f5ffd5b505af11580156153f3573d5f5f3e3d5ffd5b505050505b5050505050505050949350505050565b5f5f615429735c69bee701ef814a2b6a3edd4b1652cb9cc5aa6f8787613ffa565b90505f73ffffffffffffffffffffffffffffffffffffffff168173ffffffffffffffffffffffffffffffffffffffff161415801561549357508373ffffffffffffffffffffffffffffffffffffffff168173ffffffffffffffffffffffffffffffffffffffff1614155b80156154cb57508273ffffffffffffffffffffffffffffffffffffffff168173ffffffffffffffffffffffffffffffffffffffff1614155b156154d957809150506155b0565b5f6154f973c0aee478e3658e2610c5f7a4a2e1777ce9e4f2ac8888613ffa565b90505f73ffffffffffffffffffffffffffffffffffffffff168173ffffffffffffffffffffffffffffffffffffffff161415801561556357508473ffffffffffffffffffffffffffffffffffffffff168173ffffffffffffffffffffffffffffffffffffffff1614155b801561559b57508373ffffffffffffffffffffffffffffffffffffffff168173ffffffffffffffffffffffffffffffffffffffff1614155b156155aa5780925050506155b0565b5f925050505b949350505050565b5f5f841180156155c757505f83115b80156155d257508382115b615611576040517f08c379a0000000000000000000000000000000000000000000000000000000008152600401615608906169b0565b60405180910390fd5b60016103e585846156229190615b76565b61562c9190616371565b6103e8868661563b9190616371565b6156459190616371565b61564f91906163df565b615659919061640f565b90509392505050565b5f5f8411801561567157505f83115b801561567c57505f82115b6156bb576040517f08c379a00000000000000000000000000000000000000000000000000000000081526004016156b2906169b0565b60405180910390fd5b5f6103e5856156ca9190616371565b9050806103e8856156db9190616371565b6156e5919061640f565b83826156f19190616371565b6156fb91906163df565b9150509392505050565b604051806101000160405280600890602082028036833780820191505090505090565b5f5ffd5b5f5ffd5b5f73ffffffffffffffffffffffffffffffffffffffff82169050919050565b5f61575982615730565b9050919050565b6157698161574f565b8114615773575f5ffd5b50565b5f8135905061578481615760565b92915050565b5f819050919050565b61579c8161578a565b81146157a6575f5ffd5b50565b5f813590506157b781615793565b92915050565b5f5ffd5b5f5ffd5b5f5ffd5b5f5f83601f8401126157de576157dd6157bd565b5b8235905067ffffffffffffffff8111156157fb576157fa6157c1565b5b602083019150836001820283011115615817576158166157c5565b5b9250929050565b5f5f5f5f5f6080868803121561583757615836615728565b5b5f61584488828901615776565b9550506020615855888289016157a9565b9450506040615866888289016157a9565b935050606086013567ffffffffffffffff8111156158875761588661572c565b5b615893888289016157c9565b92509250509295509295909350565b6158ab8161574f565b82525050565b5f6020820190506158c45f8301846158a2565b92915050565b6158d38161578a565b82525050565b5f6020820190506158ec5f8301846158ca565b92915050565b5f82825260208201905092915050565b7f6261642073656e646572000000000000000000000000000000000000000000005f82015250565b5f615936600a836158f2565b915061594182615902565b602082019050919050565b5f6020820190508181035f8301526159638161592a565b9050919050565b7f62616420706169720000000000000000000000000000000000000000000000005f82015250565b5f61599e6008836158f2565b91506159a98261596a565b602082019050919050565b5f6020820190508181035f8301526159cb81615992565b9050919050565b7f62616420616d6f756e74000000000000000000000000000000000000000000005f82015250565b5f615a06600a836158f2565b9150615a11826159d2565b602082019050919050565b5f6020820190508181035f830152615a33816159fa565b9050919050565b7f626164206d6f64650000000000000000000000000000000000000000000000005f82015250565b5f615a6e6008836158f2565b9150615a7982615a3a565b602082019050919050565b5f6020820190508181035f830152615a9b81615a62565b9050919050565b7f62757379000000000000000000000000000000000000000000000000000000005f82015250565b5f615ad66004836158f2565b9150615ae182615aa2565b602082019050919050565b5f6020820190508181035f830152615b0381615aca565b9050919050565b5f81519050615b1881615793565b92915050565b5f60208284031215615b3357615b32615728565b5b5f615b4084828501615b0a565b91505092915050565b7f4e487b71000000000000000000000000000000000000000000000000000000005f52601160045260245ffd5b5f615b808261578a565b9150615b8b8361578a565b9250828203905081811115615ba357615ba2615b49565b5b92915050565b7f73656c66206f6e6c7900000000000000000000000000000000000000000000005f82015250565b5f615bdd6009836158f2565b9150615be882615ba9565b602082019050919050565b5f6020820190508181035f830152615c0a81615bd1565b9050919050565b5f81519050615c1f81615760565b92915050565b5f60208284031215615c3a57615c39615728565b5b5f615c4784828501615c11565b91505092915050565b7f7374616c6520696e0000000000000000000000000000000000000000000000005f82015250565b5f615c846008836158f2565b9150615c8f82615c50565b602082019050919050565b5f6020820190508181035f830152615cb181615c78565b9050919050565b7f7374616c65206f757400000000000000000000000000000000000000000000005f82015250565b5f615cec6009836158f2565b9150615cf782615cb8565b602082019050919050565b5f6020820190508181035f830152615d1981615ce0565b9050919050565b7f73616d65206173736574000000000000000000000000000000000000000000005f82015250565b5f615d54600a836158f2565b9150615d5f82615d20565b602082019050919050565b5f6020820190508181035f830152615d8181615d48565b9050919050565b7f6e6f206f757400000000000000000000000000000000000000000000000000005f82015250565b5f615dbc6006836158f2565b9150615dc782615d88565b602082019050919050565b5f6020820190508181035f830152615de981615db0565b9050919050565b5f60a082019050615e035f8301886158ca565b615e1060208301876158ca565b615e1d60408301866158ca565b615e2a60608301856158ca565b615e3760808301846158a2565b9695505050505050565b7f72657061792073686f727466616c6c00000000000000000000000000000000005f82015250565b5f615e75600f836158f2565b9150615e8082615e41565b602082019050919050565b5f6020820190508181035f830152615ea281615e69565b9050919050565b7f7374616c65206465706f736974000000000000000000000000000000000000005f82015250565b5f615edd600d836158f2565b9150615ee882615ea9565b602082019050919050565b5f6020820190508181035f830152615f0a81615ed1565b9050919050565b7f7374616c652077697468647261770000000000000000000000000000000000005f82015250565b5f615f45600e836158f2565b9150615f5082615f11565b602082019050919050565b5f6020820190508181035f830152615f7281615f39565b9050919050565b7f4e487b71000000000000000000000000000000000000000000000000000000005f52604160045260245ffd5b7f4e487b71000000000000000000000000000000000000000000000000000000005f52603260045260245ffd5b5f81519050919050565b5f82825260208201905092915050565b5f819050602082019050919050565b6160058161578a565b82525050565b5f6160168383615ffc565b60208301905092915050565b5f602082019050919050565b5f61603882615fd3565b6160428185615fdd565b935061604d83615fed565b805f5b8381101561607d578151616064888261600b565b975061606f83616022565b925050600181019050616050565b5085935050505092915050565b5f819050919050565b5f819050919050565b5f6160b66160b16160ac8461608a565b616093565b61578a565b9050919050565b6160c68161609c565b82525050565b5f6060820190508181035f8301526160e4818661602e565b90506160f360208301856160bd565b61610060408301846158a2565b949350505050565b7f6e6f206c700000000000000000000000000000000000000000000000000000005f82015250565b5f61613c6005836158f2565b915061614782616108565b602082019050919050565b5f6020820190508181035f83015261616981616130565b9050919050565b5f6080820190506161835f8301876158ca565b61619060208301866158ca565b61619d60408301856160bd565b6161aa60608301846158a2565b95945050505050565b5f6040820190506161c65f8301856158a2565b6161d360208301846158ca565b9392505050565b5f81519050919050565b5f81905092915050565b8281835e5f83830152505050565b5f616206826161da565b61621081856161e4565b93506162208185602086016161ee565b80840191505092915050565b5f61623782846161fc565b915081905092915050565b5f8115159050919050565b61625681616242565b8114616260575f5ffd5b50565b5f815190506162718161624d565b92915050565b5f6020828403121561628c5761628b615728565b5b5f61629984828501616263565b91505092915050565b7f7472616e73666572206661696c656400000000000000000000000000000000005f82015250565b5f6162d6600f836158f2565b91506162e1826162a2565b602082019050919050565b5f6020820190508181035f830152616303816162ca565b9050919050565b5f6163148261578a565b91507fffffffffffffffffffffffffffffffffffffffffffffffffffffffffffffffff820361634657616345615b49565b5b600182019050919050565b5f6020820190508181035f830152616369818461602e565b905092915050565b5f61637b8261578a565b91506163868361578a565b92508282026163948161578a565b915082820484148315176163ab576163aa615b49565b5b5092915050565b7f4e487b71000000000000000000000000000000000000000000000000000000005f52601260045260245ffd5b5f6163e98261578a565b91506163f48361578a565b925082616404576164036163b2565b5b828204905092915050565b5f6164198261578a565b91506164248361578a565b925082820190508082111561643c5761643b615b49565b5b92915050565b5f82825260208201905092915050565b7f01000000000000000000000000000000000000000000000000000000000000005f82015250565b5f616486600183616442565b915061649182616452565b602082019050919050565b5f6080820190506164af5f8301866158ca565b6164bc60208301856160bd565b6164c960408301846158a2565b81810360608301526164da8161647a565b9050949350505050565b5f6080820190506164f75f8301866160bd565b61650460208301856158ca565b61651160408301846158a2565b81810360608301526165228161647a565b9050949350505050565b7f70726f6669742062656c6f77207468726573686f6c64000000000000000000005f82015250565b5f6165606016836158f2565b915061656b8261652c565b602082019050919050565b5f6020820190508181035f83015261658d81616554565b9050919050565b7f6e6f2070726f66697400000000000000000000000000000000000000000000005f82015250565b5f6165c86009836158f2565b91506165d382616594565b602082019050919050565b5f6020820190508181035f8301526165f5816165bc565b9050919050565b5f60ff82169050919050565b5f61662261661d6166188461608a565b616093565b6165fc565b9050919050565b61663281616608565b82525050565b5f60408201905061664b5f8301856158a2565b6166586020830184616629565b9392505050565b7f617070726f7665207265736574206661696c65640000000000000000000000005f82015250565b5f6166936014836158f2565b915061669e8261665f565b602082019050919050565b5f6020820190508181035f8301526166c081616687565b9050919050565b7f617070726f7665206661696c65640000000000000000000000000000000000005f82015250565b5f6166fb600e836158f2565b9150616706826166c7565b602082019050919050565b5f6020820190508181035f830152616728816166ef565b9050919050565b5f6040820190506167425f8301856158a2565b61674f60208301846158a2565b9392505050565b5f6dffffffffffffffffffffffffffff82169050919050565b61677881616756565b8114616782575f5ffd5b50565b5f815190506167938161676f565b92915050565b5f63ffffffff82169050919050565b6167b181616799565b81146167bb575f5ffd5b50565b5f815190506167cc816167a8565b92915050565b5f5f5f606084860312156167e9576167e8615728565b5b5f6167f686828701616785565b935050602061680786828701616785565b9250506040616818868287016167be565b9150509250925092565b7f62616420726f75746500000000000000000000000000000000000000000000005f82015250565b5f6168566009836158f2565b915061686182616822565b602082019050919050565b5f6020820190508181035f8301526168838161684a565b9050919050565b5f601f19601f8301169050919050565b5f6168a4826161da565b6168ae8185616442565b93506168be8185602086016161ee565b6168c78161688a565b840191505092915050565b5f6080820190506168e55f8301876160bd565b6168f260208301866158ca565b6168ff60408301856158a2565b8181036060830152616911818461689a565b905095945050505050565b5f60808201905061692f5f8301876158ca565b61693c60208301866160bd565b61694960408301856158a2565b818103606083015261695b818461689a565b905095945050505050565b7f6261642071756f746500000000000000000000000000000000000000000000005f82015250565b5f61699a6009836158f2565b91506169a582616966565b602082019050919050565b5f6020820190508181035f8301526169c78161698e565b905091905056fea2646970667358221220e68f904f4887f59a396cdbfbe600aea7d16d8013b02ae37e53e51c8d28b5cdf364736f6c634300081e0033","linkReferences":{}},"methodIdentifiers":{"DAI()":"e0bab4c4","SUSHI_FACTORY()":"b753bb47","TARGET_POOL()":"181e0cc6","UNISWAP_V2_FACTORY()":"99d8fae3","USDC()":"89a30271","USDT()":"c54e44eb","WETH()":"ad5c4648","attemptFlashLp()":"42ab78f0","attemptFlashSwapExactOut()":"99d03669","executeOnOpportunity()":"3c2448ed","profitAmount()":"5ff972cc","profitToken()":"49343624","uniswapV2Call(address,uint256,uint256,bytes)":"10d1e85c"}}}}}