{"abi":[{"type":"constructor","inputs":[],"stateMutability":"nonpayable"},{"type":"receive","stateMutability":"payable"},{"type":"function","name":"MIM","inputs":[],"outputs":[{"name":"","type":"address","internalType":"address"}],"stateMutability":"view"},{"type":"function","name":"TARGET","inputs":[],"outputs":[{"name":"","type":"address","internalType":"address"}],"stateMutability":"view"},{"type":"function","name":"bentoBoxAddress","inputs":[],"outputs":[{"name":"","type":"address","internalType":"address"}],"stateMutability":"view"},{"type":"function","name":"borrowFailureReason","inputs":[],"outputs":[{"name":"","type":"bytes32","internalType":"bytes32"}],"stateMutability":"view"},{"type":"function","name":"borrowPathAction100Used","inputs":[],"outputs":[{"name":"","type":"bool","internalType":"bool"}],"stateMutability":"view"},{"type":"function","name":"borrowPathAction8Used","inputs":[],"outputs":[{"name":"","type":"bool","internalType":"bool"}],"stateMutability":"view"},{"type":"function","name":"borrowedMimAmount","inputs":[],"outputs":[{"name":"","type":"uint256","internalType":"uint256"}],"stateMutability":"view"},{"type":"function","name":"borrowedMimShare","inputs":[],"outputs":[{"name":"","type":"uint256","internalType":"uint256"}],"stateMutability":"view"},{"type":"function","name":"collateralShareAdded","inputs":[],"outputs":[{"name":"","type":"uint256","internalType":"uint256"}],"stateMutability":"view"},{"type":"function","name":"collateralShareRemoved","inputs":[],"outputs":[{"name":"","type":"uint256","internalType":"uint256"}],"stateMutability":"view"},{"type":"function","name":"collateralToken","inputs":[],"outputs":[{"name":"","type":"address","internalType":"address"}],"stateMutability":"view"},{"type":"function","name":"execute","inputs":[],"outputs":[],"stateMutability":"nonpayable"},{"type":"function","name":"executeOnOpportunity","inputs":[],"outputs":[],"stateMutability":"nonpayable"},{"type":"function","name":"exploit","inputs":[],"outputs":[],"stateMutability":"nonpayable"},{"type":"function","name":"flashCollateralAmount","inputs":[],"outputs":[{"name":"","type":"uint256","internalType":"uint256"}],"stateMutability":"view"},{"type":"function","name":"flashCollateralFee","inputs":[],"outputs":[{"name":"","type":"uint256","internalType":"uint256"}],"stateMutability":"view"},{"type":"function","name":"hypothesisRefuted","inputs":[],"outputs":[{"name":"","type":"bool","internalType":"bool"}],"stateMutability":"view"},{"type":"function","name":"hypothesisValidated","inputs":[],"outputs":[{"name":"","type":"bool","internalType":"bool"}],"stateMutability":"view"},{"type":"function","name":"onFlashLoan","inputs":[{"name":"sender","type":"address","internalType":"address"},{"name":"token","type":"address","internalType":"address"},{"name":"amount","type":"uint256","internalType":"uint256"},{"name":"fee","type":"uint256","internalType":"uint256"},{"name":"data","type":"bytes","internalType":"bytes"}],"outputs":[],"stateMutability":"nonpayable"},{"type":"function","name":"postBorrowSolvent","inputs":[],"outputs":[{"name":"","type":"bool","internalType":"bool"}],"stateMutability":"view"},{"type":"function","name":"profitAmount","inputs":[],"outputs":[{"name":"","type":"uint256","internalType":"uint256"}],"stateMutability":"view"},{"type":"function","name":"profitToken","inputs":[],"outputs":[{"name":"","type":"address","internalType":"address"}],"stateMutability":"pure"},{"type":"function","name":"removeFailureReason","inputs":[],"outputs":[{"name":"","type":"bytes32","internalType":"bytes32"}],"stateMutability":"view"},{"type":"function","name":"removePathAction100Used","inputs":[],"outputs":[{"name":"","type":"bool","internalType":"bool"}],"stateMutability":"view"},{"type":"function","name":"removePathAction8Used","inputs":[],"outputs":[{"name":"","type":"bool","internalType":"bool"}],"stateMutability":"view"},{"type":"function","name":"run","inputs":[],"outputs":[],"stateMutability":"nonpayable"},{"type":"error","name":"Infeasible","inputs":[{"name":"reason","type":"bytes32","internalType":"bytes32"}]}],"bytecode":{"object":"0x608080604052346015576128bb908161001a8239f35b5f80fdfe6080604052600436101561001a575b3615610018575f80fd5b005b5f3560e01c806323e30c8b146101a55780633c2448ed146101555780633d258d8a146101a05780634071084d1461019b578063463defd1146101965780634934362414610146578063495f92f114610191578063588486de1461018c5780635a6e402b146101875780635ff972cc1461018257806361461954146101555780636208fdd81461017d57806363d9b770146101555780636687d11b146101785780636fb9eb6b146101735780637de342f71461016e578063892d0bd2146101695780639580955814610164578063b2016bd41461015f578063b2c90eeb1461015a578063c040622614610155578063cc1f2afa14610150578063d5b5a5571461014b578063daec383d14610146578063e7cda06d146101415763eb77ff0f0361000e576104da565b6104bd565b6102c3565b610498565b610471565b610244565b61044c565b610424565b610407565b6103ea565b6103c5565b6103a0565b610383565b610366565b610349565b61032c565b61030f565b6102ea565b61029e565b610281565b61025c565b6101bf565b6001600160a01b038116036101bb57565b5f80fd5b346101bb5760a03660031901126101bb576004356101dc816101aa565b6024356101e8816101aa565b6084359160643560443567ffffffffffffffff85116101bb57366023860112156101bb5784600401359367ffffffffffffffff85116101bb5736602486880101116101bb5760246100189601936107fb565b5f9103126101bb57565b346101bb575f3660031901126101bb576100186111f1565b346101bb575f3660031901126101bb57602060ff60035460b81c166040519015158152f35b346101bb575f3660031901126101bb576020600854604051908152f35b346101bb575f3660031901126101bb57602060ff60035460c81c166040519015158152f35b346101bb575f3660031901126101bb5760206040515f5160206128465f395f51905f528152f35b346101bb575f3660031901126101bb57602060ff60035460d01c166040519015158152f35b346101bb575f3660031901126101bb576020600a54604051908152f35b346101bb575f3660031901126101bb576020600754604051908152f35b346101bb575f3660031901126101bb576020600154604051908152f35b346101bb575f3660031901126101bb576020600554604051908152f35b346101bb575f3660031901126101bb576020600b54604051908152f35b346101bb575f3660031901126101bb57602060ff60035460a81c166040519015158152f35b346101bb575f3660031901126101bb57602060ff60035460b01c166040519015158152f35b346101bb575f3660031901126101bb576020600654604051908152f35b346101bb575f3660031901126101bb576020600954604051908152f35b346101bb575f3660031901126101bb576003546040516001600160a01b039091168152602090f35b346101bb575f3660031901126101bb57602060ff60035460a01c166040519015158152f35b346101bb575f3660031901126101bb5760206040515f5160206128665f395f51905f528152f35b346101bb575f3660031901126101bb57602060ff60035460c01c166040519015158152f35b346101bb575f3660031901126101bb576020600454604051908152f35b346101bb575f3660031901126101bb576002546040516001600160a01b039091168152602090f35b634e487b7160e01b5f52604160045260245ffd5b90601f8019910116810190811067ffffffffffffffff82111761053857604052565b610502565b9061054b6040519283610516565b565b67ffffffffffffffff811161053857601f01601f191660200190565b60405190610578602083610516565b5f8252565b6040519061058c604083610516565b60128252716261642d62656e746f2d63616c6c6261636b60701b6020830152565b604051906105bc604083610516565b601082526f3130b216b33630b9b416b9b2b73232b960811b6020830152565b604051906105ea604083610516565b600f82526e3130b216b33630b9b416ba37b5b2b760891b6020830152565b908160209103126101bb573560ff811681036101bb5790565b60405190610630604083610516565b601082526f3130b216b932b9b2ba16b0b1ba34b7b760811b6020830152565b908160209103126101bb575190565b6040513d5f823e3d90fd5b91908260409103126101bb576020825192015190565b6040519061068e604083610516565b60158252747a65726f2d636f6c6c61746572616c2d736861726560581b6020830152565b604051906106c1604083610516565b601c82527f72656d6f76652d636f6f6b2d616374696f6e3130302d6661696c6564000000006020830152565b604051906106fc604083610516565b601a82527f72656d6f76652d636f6f6b2d616374696f6e382d6661696c65640000000000006020830152565b634e487b7160e01b5f52601160045260245ffd5b5f1981019190821161074a57565b610728565b620f423f1981019190821161074a57565b9190820391821161074a57565b6040519061077c604083610516565b60168252751b9bcb58dbdb1b185d195c985b0b5c995d1d5c9b995960521b6020830152565b620186a0019081620186a01161074a57565b9190820180921161074a57565b604051906107cf604083610516565b601982527f666c6173682d72657061796d656e742d73686f727466616c6c000000000000006020830152565b949192939061082061081460025460018060a01b031690565b6001600160a01b031690565b95863303610ca757306001600160a01b0390911603610c9c5760035461084e906001600160a01b0316610814565b6001600160a01b0390911603610c915761086a91810190610608565b60ff811693600885149485159081610c85575b50610c7a5761088b83600655565b61089484600755565b6003546108b6906001600160a01b03166002546001600160a01b031690610cb2565b600354604051633de222bb60e21b81526001600160a01b039182166004820181905230602483015292909116959192906020816044818a5afa938415610b655785915f95610c4e575b506040805162ae511b60e21b81526001600160a01b0390921660048301523060248301525f5160206128665f395f51905f52604483015260648201929092525f60848201529190828060a481015b03815f8b5af1918215610b65575f92610c2b575b508115610c205761097182600855565b5f5160206128665f395f51905f523b156101bb5760405163860ffea160e01b81523060048201526001602482015260448101839052915f83606481835f5160206128665f395f51905f525af1918215610b65576109db936109d793610c06575b50610f94565b1590565b610bcd5750600354604051633de222bb60e21b81526001600160a01b03909116600482015230602482015290602082604481885afa918215610b65575f92610bac575b5080821115610ba357610a3091610760565b925b8315610b985783604091610a48610a9296600955565b600354835163097da6d360e41b81526001600160a01b039091166004820152306024820181905260448201525f6064820181905260848201939093529586928391829060a4820190565b03925af1928315610b6557610aac93610b6a575b506107b3565b6003546001600160a01b031690610ac282610814565b6040516370a0823160e01b815230600482015290602090829060249082905afa8015610b655782915f91610b36575b5010610b0e5760025461054b92906001600160a01b0316906110e3565b610b33610b196107c0565b8051602090910120632e4e013360e11b5f52600452602490565b5ffd5b610b58915060203d602011610b5e575b610b508183610516565b81019061064f565b5f610af1565b503d610b46565b61065e565b610b8b9060403d604011610b91575b610b838183610516565b810190610669565b50610aa6565b503d610b79565b610b33610b1961076d565b50505f92610a32565b610bc691925060203d602011610b5e57610b508183610516565b905f610a1e565b15610bef57610b33610b196106ed565b632e4e013360e11b5f52600452602490565b610b33610bfa6106b2565b60208151910120610bdd565b80610c145f610c1a93610516565b8061023a565b5f6109d1565b610b33610b1961067f565b610c4591925060403d604011610b9157610b838183610516565b9050905f610961565b604091955091610c7061094d949360203d602011610b5e57610b508183610516565b95915091926108ff565b610b33610b19610621565b6064915014155f61087d565b610b33610b196105db565b610b33610b196105ad565b610b33610b1961057d565b604051636eb1769f60e11b81523060048201526001600160a01b0383166024820152602081806044810103816001600160a01b0386165afa5f9181610dda575b50610dc8575b5060405163095ea7b360e01b602082019081526001600160a01b03841660248301525f6044830181905291829190610d3d81606481015b03601f198101835282610516565b519082855af1610d4b611093565b81610d99575b5015610d635761054b915f199161145a565b60405162461bcd60e51b815260206004820152600e60248201526d185c1c1c9bdd994b59985a5b195960921b6044820152606490fd5b8051801592508215610dae575b50505f610d51565b610dc192506020809183010191016110cf565b5f80610da6565b5f191115610dd6575f610cf8565b5050565b610df491925060203d602011610b5e57610b508183610516565b905f610cf2565b60405160609190610e0c8382610516565b6002815291601f1901366020840137565b634e487b7160e01b5f52603260045260245ffd5b805115610e3e5760200190565b610e1d565b805160011015610e3e5760400190565b60405160609190610e648382610516565b6002815291601f1901825f5b828110610e7c57505050565b806060602080938501015201610e70565b805180835260209291819084018484015e5f828201840152601f01601f1916010190565b9080602083519182815201916020808360051b8301019401925f915b838310610edc57505050505090565b9091929394602080610efa600193601f198682030187528951610e8d565b97019301930191939290610ecd565b6060808252825190820181905260808201959492602001905f5b818110610f7b5750505080850360208201526020808451968781520193015f955b808710610f63575050610f609394506040818403910152610eb1565b90565b90936020806001928751815201950196019590610f44565b825160ff16885260209788019790920191600101610f23565b604090610fc6610fa2610dfb565b91610fb5610faf84610e31565b60049052565b610fbe83610e43565b9060ff169052565b610fce610dfb565b90610d2f611000610fe6610fe0610e53565b966114e1565b855160208101919091523060408201529182906060820190565b61100985610e31565b5261101384610e31565b5061101c610569565b61102585610e43565b5261102f84610e43565b5061104d8351948593849363195bcf5960e21b855260048501610f09565b03815f5f5160206128665f395f51905f525af19081611075575b50611070575f90565b600190565b61108d9060403d604011610b9157610b838183610516565b50611067565b3d156110bd573d906110a48261054d565b916110b26040519384610516565b82523d5f602084013e565b606090565b519081151582036101bb57565b908160209103126101bb57610f60906110c2565b60405163a9059cbb60e01b602082019081526001600160a01b03909316602482015260448101939093525f9283929083906111218160648101610d2f565b51925af161112d611093565b81611172575b501561113b57565b60405162461bcd60e51b815260206004820152600f60248201526e1d1c985b9cd9995c8b59985a5b1959608a1b6044820152606490fd5b8051801592508215611187575b50505f611133565b61119a92506020809183010191016110cf565b5f8061117f565b908160209103126101bb5751610f60816101aa565b604051906111c5604083610516565b601b82527f72656d6f76652d706174682d6e656564732d6c6976652d6465627400000000006020830152565b5f5460ff1661054b5761120a600160ff195f5416175f55565b604051636b2ace8760e01b81526020816004815f5160206128665f395f51905f525afa8015610b6557611261915f9161143b575b5060018060a01b03166bffffffffffffffffffffffff60a01b6002541617600255565b60405163d8dfeb4560e01b81526020816004815f5160206128665f395f51905f525afa8015610b65576112b8915f9161140c575b5060018060a01b03166bffffffffffffffffffffffff60a01b6003541617600355565b6112c061157e565b600454156113f0576112d06116cb565b6040516370a0823160e01b81523060048201526020816024815f5160206128465f395f51905f525afa8015610b6557611310915f916113d1575b50600155565b6113606003546113248160ff9060a01c1690565b9081156113c2575b816113b2575b81156113a3575b8115611395575b506003805460ff60c81b191691151560c81b60ff60c81b16919091179055565b61054b6113766109d760035460ff9060c81c1690565b6003805460ff60d01b191691151560d01b60ff60d01b16919091179055565b60b81c60ff1690505f611340565b60ff60b082901c169150611339565b60c081901c60ff16159150611332565b60ff60a882901c16915061132c565b6113ea915060203d602011610b5e57610b508183610516565b5f61130a565b6114076113fb6111b6565b60208151910120600b55565b6112d0565b61142e915060203d602011611434575b6114268183610516565b8101906111a1565b5f611295565b503d61141c565b611454915060203d602011611434576114268183610516565b5f61123e565b60405163095ea7b360e01b602082019081526001600160a01b03909316602482015260448101939093525f9283929083906114988160648101610d2f565b51925af16114a4611093565b816114b2575b5015610d6357565b80518015925082156114c7575b50505f6114aa565b6114da92506020809183010191016110cf565b5f806114bf565b6001600160ff1b0381116114f25790565b60405162461bcd60e51b815260206004820152600c60248201526b696e742d6f766572666c6f7760a01b6044820152606490fd5b91908260409103126101bb57602061153d836110c2565b92015190565b60405190611552604083610516565b601782527f616c6c2d626f72726f772d70617468732d6661696c65640000000000000000006020830152565b6115945f5160206128665f395f51905f526118d8565b6115aa5f5160206128665f395f51905f526119db565b604080516302ce728f60e01b815290816004815f5f5160206128665f395f51905f525af161169d575b506040516338b51ce160e01b81523060048201526020816024815f5160206128665f395f51905f525afa5f918161166c575b5061164a57506003805460ff60c01b191690555b6004541580611640575b61162957565b61054b611634611543565b60208151910120600a55565b50600a5415611623565b6003805460ff60c01b191691151560c01b60ff60c01b16919091179055611619565b61168f91925060203d602011611696575b6116878183610516565b8101906110cf565b905f611605565b503d61167d565b6116be9060403d6040116116c4575b6116b68183610516565b810190611526565b506115d3565b503d6116ac565b6116d3611ba4565b60ff60035460b01c161561177c575b60035460ff8160b01c1615908161176d575b5080611763575b61170157565b61054b604051611712604082610516565b601781527f616c6c2d72656d6f76652d70617468732d6661696c65640000000000000000006020909101527f420b587a198baec018d59d8b8e7aa017b2dd22bcfbd1028d8cfbfee47cfbd31b600b55565b50600b54156116fb565b60ff915060b81c16155f6116f4565b611784611db8565b6116e2565b60405190611798604083610516565b601a82527f6e6f2d6c69717569646974792d6f722d626f72726f772d6361700000000000006020830152565b9060638202918083046063149015171561074a57565b90605f820291808304605f149015171561074a57565b90605a820291808304605a149015171561074a57565b90620186a0820291808304620186a0149015171561074a57565b8181029291811591840414171561074a57565b811561183d570490565b634e487b7160e01b5f52601260045260245ffd5b906008811015610e3e5760051b0190565b60405190611871604083610516565b601982527f626f72726f772d616374696f6e3130302d7265766572746564000000000000006020830152565b604051906118ac604083610516565b601782527f626f72726f772d616374696f6e382d72657665727465640000000000000000006020830152565b6118e190611fdb565b80156119c5576119586118f561010061053d565b9180835261190c611905826117c4565b6064900490565b602084015261191d611905826117da565b604084015261192e611905826117f0565b606084015261193d8160011c90565b608084015261194c8160021c90565b60a0840152600a900490565b60c0820152600160e08201525f5b6008811061197b57505061054b61163461189d565b6119858183611851565b5180156119bc57611997906008612361565b6119a5576001905b01611966565b50506003805460ff60a01b1916600160a01b179055565b5060019061199f565b50600a54156119d057565b61054b611634611789565b6119e490611fdb565b80156119c5576119f86118f561010061053d565b60c0820152600160e08201525f5b60088110611a1b57505061054b611634611862565b611a258183611851565b518015611a5c57611a37906064612361565b611a45576001905b01611a06565b50506003805460ff60a81b1916600160a81b179055565b50600190611a3f565b6001600160a01b03918216815291811660208301529091166040820152606081019190915260a060808201819052610f6092910190610e8d565b5f9060033d11611aab57565b905060045f803e5f5160e01c90565b5f60443d10610f60576040513d600319016004823e8051913d602484011167ffffffffffffffff841117611b28578282019283519167ffffffffffffffff8311611b20573d84016003190185840160200111611b205750610f6092910160200190610516565b949350505050565b92915050565b60405190611b3d604083610516565b601982527f72656d6f76652d616374696f6e3130302d7265766572746564000000000000006020830152565b60405190611b78604083610516565b601782527f72656d6f76652d616374696f6e382d72657665727465640000000000000000006020830152565b600254611bb9906001600160a01b0316610814565b611bc461010061053d565b6001815260026020820152600a6040820152606460608201526103e86080820152620f424060a082015264e8d4a5100060c0820152670de0b6b3a764000060e0820152906001600160a01b03165f5b60088110611c2057505050565b6003546001600160a01b0316611c726020611c3b8487611851565b51604051630acc462360e31b81526001600160a01b038516600482015260248101919091525f604482015291829081906064820190565b0381875afa5f9181611d98575b50611d9257505f905b8115611d885760408051600860208201529290611cb290849081015b03601f198101855284610516565b843b156101bb575f91611cdb604051948593849363f1676d3760e01b8552303060048701611a65565b038183875af19081611d74575b50611d5c5760019081611cf9611a9f565b6308c379a014611d3d575b611d0f575b01611c13565b611d1f611d1a611093565b612802565b80611d355750611d306113fb611b69565b611d09565b600b55611d09565b611d45611aba565b15611d0457505f611d576113fb611b69565b611d04565b50506003805460ff60b01b1916600160b01b17905550565b80610c145f611d8293610516565b5f611ce8565b5050600190611d09565b90611c88565b611db191925060203d8111610b5e57610b508183610516565b905f611c7f565b600254611dcd906001600160a01b0316610814565b611dd861010061053d565b6001815260026020820152600a6040820152606460608201526103e86080820152620f424060a082015264e8d4a5100060c0820152670de0b6b3a764000060e0820152906001600160a01b03165f5b60088110611e3457505050565b6003546001600160a01b0316611e4f6020611c3b8487611851565b0381875afa5f9181611f66575b50611f6057505f905b8115611f565760408051606460208201529290611e859084908101611ca4565b843b156101bb575f91611eae604051948593849363f1676d3760e01b8552303060048701611a65565b038183875af19081611f42575b50611f2a5760019081611ecc611a9f565b6308c379a014611f0b575b611ee2575b01611e27565b611eed611d1a611093565b80611f035750611efe6113fb611b2e565b611edc565b600b55611edc565b611f13611aba565b15611ed757505f611f256113fb611b2e565b611ed7565b50506003805460ff60b81b1916600160b81b17905550565b80610c145f611f5093610516565b5f611ebb565b5050600190611edc565b90611e65565b611f7f91925060203d8111610b5e57610b508183610516565b905f611e5c565b51906001600160801b03821682036101bb57565b91908260409103126101bb57610f606020611fb484611f86565b9301611f86565b906001600160801b03809116911603906001600160801b03821161074a57565b600254611ff290610814906001600160a01b031681565b604051633de222bb60e21b81525f5160206128465f395f51905f5260048201525f5160206128665f395f51905f526024820152909190602081604481865afa8015610b6557612081936020925f92612342575b506040518080968194630acc462360e31b83526004830160405f9193929360608101945f5160206128465f395f51905f52825260208201520152565b03915afa918215610b65575f92612321575b508115612226576040805163e551d11d60e01b8152926001600160a01b0392909216919083600481855afa8015610b65575f935f916122fc575b506040805163020a17bd60e61b81529081600481875afa948515610b65575f915f966122c9575b506040516324720b1f60e11b815230600482015290602082602481895afa918215610b65575f926122a8575b506001600160801b03831692836001600160801b038316115f146122975761215361215f916001600160801b0393611fbb565b6001600160801b031690565b935b16908082111561228e5761217491610760565b905b82158015612286575b61227c57602060049560405196878092632ae8093d60e21b82525afa948515610b65575f95612246575b50906121d592916001600160801b036121db969716908115801561223e575b1561222c57505090612833565b90612833565b908115612226576121f76121f16121fd93611806565b916107a1565b90611833565b620f424081111561221157610f609061074f565b906001821161221c57565b90610f609061073c565b50505f90565b612239906121d593611820565b611833565b5080156121c8565b6121db9550906001600160801b036122716121d595949360203d602011610b5e57610b508183610516565b9650509091926121a9565b5050505050505f90565b50811561217f565b50505f90612176565b50506001600160801b035f93612161565b6122c291925060203d602011610b5e57610b508183610516565b905f612120565b9095506122ee915060403d6040116122f5575b6122e68183610516565b810190611f9a565b945f6120f4565b503d6122dc565b905061231891935060403d6040116122f5576122e68183610516565b9290925f6120cd565b61233b91925060203d602011610b5e57610b508183610516565b905f612093565b61235a919250833d8511610b5e57610b508183610516565b905f612045565b60025490919061237b90610814906001600160a01b031681565b604051633de222bb60e21b81525f5160206128465f395f51905f5260048201523060248201529091602082604481865afa918215610b65575f926127e1575b506040516370a0823160e01b8152306004820152936020856024815f5160206128465f395f51905f525afa948515610b65575f956127bd575b50604090612415612402610dfb565b91610fb561240f84610e31565b60059052565b61241d610dfb565b90610d2f61242f610fe6610fe0610e53565b61243885610e31565b5261244284610e31565b5061244b610569565b61245485610e43565b5261245e84610e43565b5061247c8351948593849363195bcf5960e21b855260048501610f09565b03815f5f5160206128665f395f51905f525af1908161279f575b506124a2575050505f90565b604051633de222bb60e21b81525f5160206128465f395f51905f52600482015230602482015290602082604481865afa918215610b65575f9261277e575b5080821115612775576124f291610760565b905b811561265e5761250e612509836005546107b3565b600555565b604051630acc462360e31b81525f5160206128465f395f51905f526004820152602481018390525f6044820152602081606481855afa918215610b65575f9361256f61256a6040956125b895889161263f575b506004546107b3565b600455565b835163097da6d360e41b81525f5160206128465f395f51905f526004820152306024820181905260448201525f60648201526084810191909152938492839190829060a4820190565b03925af18015610b6557612621575b505b6040516370a0823160e01b81523060048201526020816024815f5160206128465f395f51905f525afa908115610b65575f9161260457501190565b61261d915060203d602011610b5e57610b508183610516565b1190565b6126399060403d604011610b9157610b838183610516565b506125c7565b612658915060203d602011610b5e57610b508183610516565b5f612561565b6040516370a0823160e01b81523060048201529091506020816024815f5160206128465f395f51905f525afa918215610b655783915f93612754575b508183116126ab575b5050506125c9565b6126ba60209261270594610760565b906126ca61256a836004546107b3565b6040518080958194636d289ce560e11b83526004830160405f9193929360608101945f5160206128465f395f51905f52825260208201520152565b03915afa5f9181612733575b5061271e575b81816126a3565b61250961272d916005546107b3565b5f612717565b61274d91925060203d602011610b5e57610b508183610516565b905f612711565b61276e91935060203d602011610b5e57610b508183610516565b915f61269a565b50505f906124f4565b61279891925060203d602011610b5e57610b508183610516565b905f6124e0565b6127b79060403d604011610b9157610b838183610516565b50612496565b60409195506127da9060203d602011610b5e57610b508183610516565b94906123f3565b6127fb91925060203d602011610b5e57610b508183610516565b905f6123ba565b604481511061282e5760208101516001600160e01b0319166351b1fecd60e11b0161282e576044015190565b505f90565b9080821015612840575090565b90509056fe00000000000000000000000099d8a9c45b2eca8864373a26d1459e3dff1e17f3000000000000000000000000c6d3b82f9774db8f92095b5e4352a8bb8b0dc20da2646970667358221220bd8017ab28ef4928e87e1dfb820123b02f6421b00d1e524652706068f8d592f764736f6c634300081e0033","linkReferences":{}},"methodIdentifiers":{"MIM()":"daec383d","TARGET()":"cc1f2afa","bentoBoxAddress()":"eb77ff0f","borrowFailureReason()":"588486de","borrowPathAction100Used()":"6fb9eb6b","borrowPathAction8Used()":"b2c90eeb","borrowedMimAmount()":"e7cda06d","borrowedMimShare()":"6208fdd8","collateralShareAdded()":"4071084d","collateralShareRemoved()":"95809558","collateralToken()":"b2016bd4","execute()":"61461954","executeOnOpportunity()":"3c2448ed","exploit()":"63d9b770","flashCollateralAmount()":"892d0bd2","flashCollateralFee()":"5a6e402b","hypothesisRefuted()":"495f92f1","hypothesisValidated()":"463defd1","onFlashLoan(address,address,uint256,uint256,bytes)":"23e30c8b","postBorrowSolvent()":"d5b5a557","profitAmount()":"5ff972cc","profitToken()":"49343624","removeFailureReason()":"6687d11b","removePathAction100Used()":"3d258d8a","removePathAction8Used()":"7de342f7","run()":"c0406226"},"id":0}