{"abi":[{"type":"function","name":"get","inputs":[{"name":"","type":"bytes","internalType":"bytes"}],"outputs":[{"name":"success","type":"bool","internalType":"bool"},{"name":"rate","type":"uint256","internalType":"uint256"}],"stateMutability":"nonpayable"}],"bytecode":{"object":"0x6080604052348015600e575f5ffd5b506101e58061001c5f395ff3fe608060405234801561000f575f5ffd5b5060043610610029575f3560e01c8063d6d7d5251461002d575b5f5ffd5b6100476004803603810190610042919061010b565b61005e565b604051610055929190610188565b60405180910390f35b5f5f5f90505f5f9054906101000a900460ff166100965760015f5f6101000a81548160ff0219169083151502179055505f915061009b565b600191505b9250929050565b5f5ffd5b5f5ffd5b5f5ffd5b5f5ffd5b5f5ffd5b5f5f83601f8401126100cb576100ca6100aa565b5b8235905067ffffffffffffffff8111156100e8576100e76100ae565b5b602083019150836001820283011115610104576101036100b2565b5b9250929050565b5f5f60208385031215610121576101206100a2565b5b5f83013567ffffffffffffffff81111561013e5761013d6100a6565b5b61014a858286016100b6565b92509250509250929050565b5f8115159050919050565b61016a81610156565b82525050565b5f819050919050565b61018281610170565b82525050565b5f60408201905061019b5f830185610161565b6101a86020830184610179565b939250505056fea26469706673582212206704180348f0a5349cecbe4119e1e80d47a092f94acea42c4dafb81fb9e9c6db64736f6c634300081e0033","linkReferences":{}},"methodIdentifiers":{"get(bytes)":"d6d7d525"},"id":0}