{"abi":[{"type":"constructor","inputs":[],"stateMutability":"nonpayable"},{"type":"receive","stateMutability":"payable"},{"type":"function","name":"DAI","inputs":[],"outputs":[{"name":"","type":"address","internalType":"address"}],"stateMutability":"view"},{"type":"function","name":"MIM","inputs":[],"outputs":[{"name":"","type":"address","internalType":"address"}],"stateMutability":"view"},{"type":"function","name":"SUSHI_ROUTER","inputs":[],"outputs":[{"name":"","type":"address","internalType":"address"}],"stateMutability":"view"},{"type":"function","name":"TARGET_CAULDRON","inputs":[],"outputs":[{"name":"","type":"address","internalType":"address"}],"stateMutability":"view"},{"type":"function","name":"UNISWAP_V2_ROUTER","inputs":[],"outputs":[{"name":"","type":"address","internalType":"address"}],"stateMutability":"view"},{"type":"function","name":"USDC","inputs":[],"outputs":[{"name":"","type":"address","internalType":"address"}],"stateMutability":"view"},{"type":"function","name":"USDT","inputs":[],"outputs":[{"name":"","type":"address","internalType":"address"}],"stateMutability":"view"},{"type":"function","name":"WETH","inputs":[],"outputs":[{"name":"","type":"address","internalType":"address"}],"stateMutability":"view"},{"type":"function","name":"activeCauldron","inputs":[],"outputs":[{"name":"","type":"address","internalType":"address"}],"stateMutability":"view"},{"type":"function","name":"addCollateralStageReached","inputs":[],"outputs":[{"name":"","type":"bool","internalType":"bool"}],"stateMutability":"view"},{"type":"function","name":"bentoBoxAddress","inputs":[],"outputs":[{"name":"","type":"address","internalType":"address"}],"stateMutability":"view"},{"type":"function","name":"borrowStageReached","inputs":[],"outputs":[{"name":"","type":"bool","internalType":"bool"}],"stateMutability":"view"},{"type":"function","name":"borrowedMimAmount","inputs":[],"outputs":[{"name":"","type":"uint256","internalType":"uint256"}],"stateMutability":"view"},{"type":"function","name":"borrowedMimShare","inputs":[],"outputs":[{"name":"","type":"uint256","internalType":"uint256"}],"stateMutability":"view"},{"type":"function","name":"collateralDepositAmount","inputs":[],"outputs":[{"name":"","type":"uint256","internalType":"uint256"}],"stateMutability":"view"},{"type":"function","name":"collateralLeaveShare","inputs":[],"outputs":[{"name":"","type":"uint256","internalType":"uint256"}],"stateMutability":"view"},{"type":"function","name":"collateralLpDetected","inputs":[],"outputs":[{"name":"","type":"bool","internalType":"bool"}],"stateMutability":"view"},{"type":"function","name":"collateralLpToken0","inputs":[],"outputs":[{"name":"","type":"address","internalType":"address"}],"stateMutability":"view"},{"type":"function","name":"collateralLpToken1","inputs":[],"outputs":[{"name":"","type":"address","internalType":"address"}],"stateMutability":"view"},{"type":"function","name":"collateralShareAdded","inputs":[],"outputs":[{"name":"","type":"uint256","internalType":"uint256"}],"stateMutability":"view"},{"type":"function","name":"collateralToken","inputs":[],"outputs":[{"name":"","type":"address","internalType":"address"}],"stateMutability":"view"},{"type":"function","name":"collateralTopUpAmount","inputs":[],"outputs":[{"name":"","type":"uint256","internalType":"uint256"}],"stateMutability":"view"},{"type":"function","name":"collateralTopUpSpentMim","inputs":[],"outputs":[{"name":"","type":"uint256","internalType":"uint256"}],"stateMutability":"view"},{"type":"function","name":"directOracleRate","inputs":[],"outputs":[{"name":"","type":"uint256","internalType":"uint256"}],"stateMutability":"view"},{"type":"function","name":"directOracleSuccess","inputs":[],"outputs":[{"name":"","type":"bool","internalType":"bool"}],"stateMutability":"view"},{"type":"function","name":"execute","inputs":[],"outputs":[{"name":"","type":"uint256","internalType":"uint256"}],"stateMutability":"nonpayable"},{"type":"function","name":"executeOnOpportunity","inputs":[],"outputs":[{"name":"","type":"uint256","internalType":"uint256"}],"stateMutability":"nonpayable"},{"type":"function","name":"exploit","inputs":[],"outputs":[{"name":"","type":"uint256","internalType":"uint256"}],"stateMutability":"nonpayable"},{"type":"function","name":"feeBufferBought","inputs":[],"outputs":[{"name":"","type":"uint256","internalType":"uint256"}],"stateMutability":"view"},{"type":"function","name":"flashCollateralAmount","inputs":[],"outputs":[{"name":"","type":"uint256","internalType":"uint256"}],"stateMutability":"view"},{"type":"function","name":"flashCollateralFee","inputs":[],"outputs":[{"name":"","type":"uint256","internalType":"uint256"}],"stateMutability":"view"},{"type":"function","name":"flashMimAmount","inputs":[],"outputs":[{"name":"","type":"uint256","internalType":"uint256"}],"stateMutability":"view"},{"type":"function","name":"flashMimFee","inputs":[],"outputs":[{"name":"","type":"uint256","internalType":"uint256"}],"stateMutability":"view"},{"type":"function","name":"grossMimBalance","inputs":[],"outputs":[{"name":"","type":"uint256","internalType":"uint256"}],"stateMutability":"view"},{"type":"function","name":"hypothesisRefuted","inputs":[],"outputs":[{"name":"","type":"bool","internalType":"bool"}],"stateMutability":"view"},{"type":"function","name":"hypothesisValidated","inputs":[],"outputs":[{"name":"","type":"bool","internalType":"bool"}],"stateMutability":"view"},{"type":"function","name":"infeasibleReason","inputs":[],"outputs":[{"name":"","type":"bytes32","internalType":"bytes32"}],"stateMutability":"view"},{"type":"function","name":"liquidateStageReached","inputs":[],"outputs":[{"name":"","type":"bool","internalType":"bool"}],"stateMutability":"view"},{"type":"function","name":"liquidationBlocked","inputs":[],"outputs":[{"name":"","type":"bool","internalType":"bool"}],"stateMutability":"view"},{"type":"function","name":"liveTargetCachedZero","inputs":[],"outputs":[{"name":"","type":"bool","internalType":"bool"}],"stateMutability":"view"},{"type":"function","name":"liveTargetInitPathOnly","inputs":[],"outputs":[{"name":"","type":"bool","internalType":"bool"}],"stateMutability":"view"},{"type":"function","name":"liveTargetUpdateZeroWorked","inputs":[],"outputs":[{"name":"","type":"bool","internalType":"bool"}],"stateMutability":"view"},{"type":"function","name":"liveTargetZeroRateMissing","inputs":[],"outputs":[{"name":"","type":"bool","internalType":"bool"}],"stateMutability":"view"},{"type":"function","name":"liveUpdateRate","inputs":[],"outputs":[{"name":"","type":"uint256","internalType":"uint256"}],"stateMutability":"view"},{"type":"function","name":"liveUpdateReturnedUpdated","inputs":[],"outputs":[{"name":"","type":"bool","internalType":"bool"}],"stateMutability":"view"},{"type":"function","name":"liveUpdateWorked","inputs":[],"outputs":[{"name":"","type":"bool","internalType":"bool"}],"stateMutability":"view"},{"type":"function","name":"mimLiquiditySeededShare","inputs":[],"outputs":[{"name":"","type":"uint256","internalType":"uint256"}],"stateMutability":"view"},{"type":"function","name":"onFlashLoan","inputs":[{"name":"sender","type":"address","internalType":"address"},{"name":"token","type":"address","internalType":"address"},{"name":"amount","type":"uint256","internalType":"uint256"},{"name":"fee","type":"uint256","internalType":"uint256"},{"name":"","type":"bytes","internalType":"bytes"}],"outputs":[],"stateMutability":"nonpayable"},{"type":"function","name":"oracleAddress","inputs":[],"outputs":[{"name":"","type":"address","internalType":"address"}],"stateMutability":"view"},{"type":"function","name":"oracleDataBlob","inputs":[],"outputs":[{"name":"","type":"bytes","internalType":"bytes"}],"stateMutability":"view"},{"type":"function","name":"oracleStageReached","inputs":[],"outputs":[{"name":"","type":"bool","internalType":"bool"}],"stateMutability":"view"},{"type":"function","name":"path0LiveOracleZeroObserved","inputs":[],"outputs":[{"name":"","type":"bool","internalType":"bool"}],"stateMutability":"view"},{"type":"function","name":"path1ZeroExchangeRateCached","inputs":[],"outputs":[{"name":"","type":"bool","internalType":"bool"}],"stateMutability":"view"},{"type":"function","name":"path2DustCollateralAddedAndBorrowed","inputs":[],"outputs":[{"name":"","type":"bool","internalType":"bool"}],"stateMutability":"view"},{"type":"function","name":"path3ResidualCollateralBlocksLiquidation","inputs":[],"outputs":[{"name":"","type":"bool","internalType":"bool"}],"stateMutability":"view"},{"type":"function","name":"postBorrowSolvent","inputs":[],"outputs":[{"name":"","type":"bool","internalType":"bool"}],"stateMutability":"view"},{"type":"function","name":"profitAmount","inputs":[],"outputs":[{"name":"","type":"uint256","internalType":"uint256"}],"stateMutability":"view"},{"type":"function","name":"profitToken","inputs":[],"outputs":[{"name":"","type":"address","internalType":"address"}],"stateMutability":"pure"},{"type":"function","name":"removeCollateralStageReached","inputs":[],"outputs":[{"name":"","type":"bool","internalType":"bool"}],"stateMutability":"view"},{"type":"function","name":"run","inputs":[],"outputs":[{"name":"","type":"uint256","internalType":"uint256"}],"stateMutability":"nonpayable"},{"type":"function","name":"selectedTarget","inputs":[],"outputs":[{"name":"","type":"address","internalType":"address"}],"stateMutability":"view"},{"type":"function","name":"stage_add_collateral","inputs":[],"outputs":[{"name":"","type":"bool","internalType":"bool"}],"stateMutability":"view"},{"type":"function","name":"stage_block_liquidation","inputs":[],"outputs":[{"name":"","type":"bool","internalType":"bool"}],"stateMutability":"view"},{"type":"function","name":"stage_borrow","inputs":[],"outputs":[{"name":"","type":"bool","internalType":"bool"}],"stateMutability":"view"},{"type":"function","name":"stage_remove_collateral","inputs":[],"outputs":[{"name":"","type":"bool","internalType":"bool"}],"stateMutability":"view"},{"type":"function","name":"stage_update_rate","inputs":[],"outputs":[{"name":"","type":"bool","internalType":"bool"}],"stateMutability":"view"},{"type":"function","name":"underlyingToken","inputs":[],"outputs":[{"name":"","type":"address","internalType":"address"}],"stateMutability":"view"},{"type":"function","name":"updateRateStageReached","inputs":[],"outputs":[{"name":"","type":"bool","internalType":"bool"}],"stateMutability":"view"},{"type":"function","name":"usedLiveTarget","inputs":[],"outputs":[{"name":"","type":"bool","internalType":"bool"}],"stateMutability":"view"},{"type":"function","name":"usedValidationClone","inputs":[],"outputs":[{"name":"","type":"bool","internalType":"bool"}],"stateMutability":"view"},{"type":"function","name":"validationClone","inputs":[],"outputs":[{"name":"","type":"address","internalType":"address"}],"stateMutability":"view"},{"type":"function","name":"zeroOracle","inputs":[],"outputs":[{"name":"","type":"address","internalType":"address"}],"stateMutability":"view"}],"bytecode":{"object":"0x6080604052348015600e575f5ffd5b5061b0f38061001c5f395ff3fe60806040526004361061041e575f3560e01c80639348a2381161021d578063cf30cf7b11610122578063e6687f05116100aa578063eb77ff0f11610079578063eb77ff0f14610f25578063f1f361a414610f4f578063f9d3cc0514610f79578063fb30952014610fa3578063fcafc31914610fcd57610425565b8063e6687f0514610e7d578063e7cda06d14610ea7578063e8c28fee14610ed1578063ea54459314610efb57610425565b8063dbe7b09f116100f1578063dbe7b09f14610dab578063de02cfdf14610dd5578063e0bab4c414610dff578063e2708ebb14610e29578063e3fc037b14610e5357610425565b8063cf30cf7b14610d03578063d5b5a55714610d2d578063d87bf97f14610d57578063daec383d14610d8157610425565b8063ace5cb58116101a5578063b7021f7711610174578063b7021f7714610c31578063bd7a598c14610c5b578063c040622614610c85578063c54e44eb14610caf578063cde2facd14610cd957610425565b8063ace5cb5814610b89578063ad5c464814610bb3578063b2016bd414610bdd578063b40d2e9814610c0757610425565b8063a539b246116101ec578063a539b24614610ab7578063a665215714610ae1578063a82ed9ec14610b0b578063a89ae4ba14610b35578063a8b81f5514610b5f57610425565b80639348a23814610a0f5780639545891414610a39578063981c88f714610a63578063a3bb46dd14610a8d57610425565b80635a6e402b1161032357806372915d1e116102ab5780638469ff161161027a5780638469ff161461093d5780638594a2fb14610967578063892d0bd21461099157806389a30271146109bb5780638f310cf0146109e557610425565b806372915d1e1461089557806372ea4809146108bf5780637c27e19f146108e9578063810c7a401461091357610425565b80636208fdd8116102f25780636208fdd8146107c357806362d2c266146107ed57806363d9b7701461081757806369ffcac6146108415780636d02b5ca1461086b57610425565b80635a6e402b1461071b5780635bf39ab9146107455780635ff972cc1461076f578063614619541461079957610425565b80633f28ccea116103a6578063495f92f111610375578063495f92f1146106495780634af5e4e6146106735780634e8554f31461069d578063552fd94a146106c75780635a41b82a146106f157610425565b80633f28ccea146105a15780634071084d146105cb578063463defd1146105f5578063493436241461061f57610425565b80632759f2f1116103ed5780632759f2f1146104cf5780632edf00fb146104f9578063370be1161461052357806337fc93991461054d5780633c2448ed1461057757610425565b80630c24f4fa1461042957806322cb9ca31461045357806323e30c8b1461047d5780632495a599146104a557610425565b3661042557005b5f5ffd5b348015610434575f5ffd5b5061043d610ff7565b60405161044a9190619326565b60405180910390f35b34801561045e575f5ffd5b5061046761100f565b6040516104749190619326565b60405180910390f35b348015610488575f5ffd5b506104a3600480360381019061049e919061940e565b611034565b005b3480156104b0575f5ffd5b506104b9611229565b6040516104c69190619326565b60405180910390f35b3480156104da575f5ffd5b506104e361124e565b6040516104f091906194be565b60405180910390f35b348015610504575f5ffd5b5061050d611261565b60405161051a9190619326565b60405180910390f35b34801561052e575f5ffd5b50610537611285565b6040516105449190619326565b60405180910390f35b348015610558575f5ffd5b506105616112aa565b60405161056e91906194be565b60405180910390f35b348015610582575f5ffd5b5061058b6112bd565b60405161059891906194e6565b60405180910390f35b3480156105ac575f5ffd5b506105b56112cb565b6040516105c291906194be565b60405180910390f35b3480156105d6575f5ffd5b506105df6112de565b6040516105ec91906194e6565b60405180910390f35b348015610600575f5ffd5b506106096112e4565b60405161061691906194be565b60405180910390f35b34801561062a575f5ffd5b506106336112f7565b6040516106409190619326565b60405180910390f35b348015610654575f5ffd5b5061065d611312565b60405161066a91906194be565b60405180910390f35b34801561067e575f5ffd5b50610687611325565b60405161069491906194e6565b60405180910390f35b3480156106a8575f5ffd5b506106b161132b565b6040516106be91906194be565b60405180910390f35b3480156106d2575f5ffd5b506106db61133e565b6040516106e891906194be565b60405180910390f35b3480156106fc575f5ffd5b50610705611351565b60405161071291906194be565b60405180910390f35b348015610726575f5ffd5b5061072f611364565b60405161073c91906194e6565b60405180910390f35b348015610750575f5ffd5b5061075961136a565b60405161076691906194e6565b60405180910390f35b34801561077a575f5ffd5b50610783611370565b60405161079091906194e6565b60405180910390f35b3480156107a4575f5ffd5b506107ad611379565b6040516107ba91906194e6565b60405180910390f35b3480156107ce575f5ffd5b506107d7611387565b6040516107e491906194e6565b60405180910390f35b3480156107f8575f5ffd5b5061080161138d565b60405161080e91906194be565b60405180910390f35b348015610822575f5ffd5b5061082b6113a0565b60405161083891906194e6565b60405180910390f35b34801561084c575f5ffd5b506108556113ae565b60405161086291906194be565b60405180910390f35b348015610876575f5ffd5b5061087f6113c1565b60405161088c91906194e6565b60405180910390f35b3480156108a0575f5ffd5b506108a96113c7565b6040516108b691906194be565b60405180910390f35b3480156108ca575f5ffd5b506108d36113da565b6040516108e091906194e6565b60405180910390f35b3480156108f4575f5ffd5b506108fd6113e0565b60405161090a91906194be565b60405180910390f35b34801561091e575f5ffd5b506109276113f3565b60405161093491906194e6565b60405180910390f35b348015610948575f5ffd5b506109516113f9565b60405161095e91906194be565b60405180910390f35b348015610972575f5ffd5b5061097b61140c565b60405161098891906194be565b60405180910390f35b34801561099c575f5ffd5b506109a561141f565b6040516109b291906194e6565b60405180910390f35b3480156109c6575f5ffd5b506109cf611425565b6040516109dc9190619326565b60405180910390f35b3480156109f0575f5ffd5b506109f961143d565b604051610a0691906194be565b60405180910390f35b348015610a1a575f5ffd5b50610a2361144f565b604051610a3091906194be565b60405180910390f35b348015610a44575f5ffd5b50610a4d611462565b604051610a5a91906194e6565b60405180910390f35b348015610a6e575f5ffd5b50610a77611468565b604051610a849190619326565b60405180910390f35b348015610a98575f5ffd5b50610aa161148d565b604051610aae91906194e6565b60405180910390f35b348015610ac2575f5ffd5b50610acb611493565b604051610ad891906194be565b60405180910390f35b348015610aec575f5ffd5b50610af56114a5565b604051610b029190619517565b60405180910390f35b348015610b16575f5ffd5b50610b1f6114ab565b604051610b2c9190619326565b60405180910390f35b348015610b40575f5ffd5b50610b496114c3565b604051610b569190619326565b60405180910390f35b348015610b6a575f5ffd5b50610b736114e8565b604051610b8091906194be565b60405180910390f35b348015610b94575f5ffd5b50610b9d6114fb565b604051610baa91906194be565b60405180910390f35b348015610bbe575f5ffd5b50610bc761150e565b604051610bd49190619326565b60405180910390f35b348015610be8575f5ffd5b50610bf1611526565b604051610bfe9190619326565b60405180910390f35b348015610c12575f5ffd5b50610c1b61154b565b604051610c2891906194be565b60405180910390f35b348015610c3c575f5ffd5b50610c4561155d565b604051610c5291906194be565b60405180910390f35b348015610c66575f5ffd5b50610c6f611570565b604051610c7c9190619326565b60405180910390f35b348015610c90575f5ffd5b50610c99611588565b604051610ca691906194e6565b60405180910390f35b348015610cba575f5ffd5b50610cc3611596565b604051610cd09190619326565b60405180910390f35b348015610ce4575f5ffd5b50610ced6115ae565b604051610cfa91906194be565b60405180910390f35b348015610d0e575f5ffd5b50610d176115c1565b604051610d2491906194be565b60405180910390f35b348015610d38575f5ffd5b50610d416115d4565b604051610d4e91906194be565b60405180910390f35b348015610d62575f5ffd5b50610d6b6115e6565b604051610d7891906194e6565b60405180910390f35b348015610d8c575f5ffd5b50610d956115ec565b604051610da29190619326565b60405180910390f35b348015610db6575f5ffd5b50610dbf611604565b604051610dcc9190619326565b60405180910390f35b348015610de0575f5ffd5b50610de961162a565b604051610df691906194e6565b60405180910390f35b348015610e0a575f5ffd5b50610e13611630565b604051610e209190619326565b60405180910390f35b348015610e34575f5ffd5b50610e3d611648565b604051610e4a91906194e6565b60405180910390f35b348015610e5e575f5ffd5b50610e6761164e565b604051610e7491906195a0565b60405180910390f35b348015610e88575f5ffd5b50610e916116da565b604051610e9e91906194e6565b60405180910390f35b348015610eb2575f5ffd5b50610ebb6116e0565b604051610ec891906194e6565b60405180910390f35b348015610edc575f5ffd5b50610ee56116e6565b604051610ef291906194be565b60405180910390f35b348015610f06575f5ffd5b50610f0f6116f7565b604051610f1c91906194be565b60405180910390f35b348015610f30575f5ffd5b50610f3961170a565b604051610f469190619326565b60405180910390f35b348015610f5a575f5ffd5b50610f6361172f565b604051610f709190619326565b60405180910390f35b348015610f84575f5ffd5b50610f8d611754565b604051610f9a91906194be565b60405180910390f35b348015610fae575f5ffd5b50610fb7611766565b604051610fc491906194be565b60405180910390f35b348015610fd8575f5ffd5b50610fe1611779565b604051610fee91906194be565b60405180910390f35b73d9e1ce17f2641f24ae83637ab66a2cca9c378b9f81565b601f5f9054906101000a900473ffffffffffffffffffffffffffffffffffffffff1681565b601c5f9054906101000a900473ffffffffffffffffffffffffffffffffffffffff1673ffffffffffffffffffffffffffffffffffffffff163373ffffffffffffffffffffffffffffffffffffffff16146110c3576040517f08c379a00000000000000000000000000000000000000000000000000000000081526004016110ba9061961a565b60405180910390fd5b3073ffffffffffffffffffffffffffffffffffffffff168673ffffffffffffffffffffffffffffffffffffffff1614611131576040517f08c379a000000000000000000000000000000000000000000000000000000000815260040161112890619682565b60405180910390fd5b60195f9054906101000a900473ffffffffffffffffffffffffffffffffffffffff1673ffffffffffffffffffffffffffffffffffffffff168573ffffffffffffffffffffffffffffffffffffffff16036111945761118f848461178c565b611221565b7399d8a9c45b2eca8864373a26d1459e3dff1e17f373ffffffffffffffffffffffffffffffffffffffff168573ffffffffffffffffffffffffffffffffffffffff1614611216576040517f08c379a000000000000000000000000000000000000000000000000000000000815260040161120d906196ea565b60405180910390fd5b61122084846119d7565b5b505050505050565b601a5f9054906101000a900473ffffffffffffffffffffffffffffffffffffffff1681565b600260159054906101000a900460ff1681565b5f5f9054906101000a900473ffffffffffffffffffffffffffffffffffffffff1681565b601e5f9054906101000a900473ffffffffffffffffffffffffffffffffffffffff1681565b6002600e9054906101000a900460ff1681565b5f6112c6611c9b565b905090565b600260099054906101000a900460ff1681565b600d5481565b600260109054906101000a900460ff1681565b5f7399d8a9c45b2eca8864373a26d1459e3dff1e17f3905090565b600260119054906101000a900460ff1681565b600c5481565b6002600b9054906101000a900460ff1681565b6002600c9054906101000a900460ff1681565b600260149054906101000a900460ff1681565b600a5481565b60115481565b5f600154905090565b5f611382611c9b565b905090565b60085481565b6002600d9054906101000a900460ff1681565b5f6113a9611c9b565b905090565b6002600f9054906101000a900460ff1681565b60035481565b6002600a9054906101000a900460ff1681565b600e5481565b600260039054906101000a900460ff1681565b60125481565b600260019054906101000a900460ff1681565b600260049054906101000a900460ff1681565b60095481565b73a0b86991c6218b36c1d19d4a2e9eb0ce3606eb4881565b60045f9054906101000a900460ff1681565b600260059054906101000a900460ff1681565b60145481565b601d5f9054906101000a900473ffffffffffffffffffffffffffffffffffffffff1681565b60105481565b60025f9054906101000a900460ff1681565b60165481565b737a250d5630b4cf539739df2c5dacb4c659f2488d81565b601b5f9054906101000a900473ffffffffffffffffffffffffffffffffffffffff1681565b600260169054906101000a900460ff1681565b600660019054906101000a900460ff1681565b73c02aaa39b223fe8d0a0e5c4f27ead9083c756cc281565b60195f9054906101000a900473ffffffffffffffffffffffffffffffffffffffff1681565b60065f9054906101000a900460ff1681565b600260069054906101000a900460ff1681565b7346f54d434063e5f1a2b2cc6d9aaa657b1b9ff82c81565b5f611591611c9b565b905090565b73dac17f958d2ee523a2206206994597c13d831ec781565b600260089054906101000a900460ff1681565b600260129054906101000a900460ff1681565b60155f9054906101000a900460ff1681565b60135481565b7399d8a9c45b2eca8864373a26d1459e3dff1e17f381565b601760019054906101000a900473ffffffffffffffffffffffffffffffffffffffff1681565b60055481565b736b175474e89094c44da98b954eedeac495271d0f81565b600f5481565b6020805461165b90619735565b80601f016020809104026020016040519081016040528092919081815260200182805461168790619735565b80156116d25780601f106116a9576101008083540402835291602001916116d2565b820191905f5260205f20905b8154815290600101906020018083116116b557829003601f168201915b505050505081565b600b5481565b60075481565b60028054906101000a900460ff1681565b600260139054906101000a900460ff1681565b601c5f9054906101000a900473ffffffffffffffffffffffffffffffffffffffff1681565b60185f9054906101000a900473ffffffffffffffffffffffffffffffffffffffff1681565b60175f9054906101000a900460ff1681565b600260079054906101000a900460ff1681565b600460019054906101000a900460ff1681565b80600a819055505f601c5f9054906101000a900473ffffffffffffffffffffffffffffffffffffffff169050600260159054906101000a900460ff1615611864578073ffffffffffffffffffffffffffffffffffffffff1663f1676d3730307399d8a9c45b2eca8864373a26d1459e3dff1e17f3600b5460405180602001604052805f8152506040518663ffffffff1660e01b81526004016118329594939291906197c0565b5f604051808303815f87803b158015611849575f5ffd5b505af115801561185b573d5f5f3e3d5ffd5b5050505061188f565b61188e601d5f9054906101000a900473ffffffffffffffffffffffffffffffffffffffff16612c7d565b5b5f60195f9054906101000a900473ffffffffffffffffffffffffffffffffffffffff1673ffffffffffffffffffffffffffffffffffffffff166370a08231306040518263ffffffff1660e01b81526004016118ea9190619326565b602060405180830381865afa158015611905573d5f5f3e3d5ffd5b505050506040513d601f19601f82011682018060405250810190611929919061982c565b905082846119379190619884565b811015611979576040517f08c379a000000000000000000000000000000000000000000000000000000000815260040161197090619901565b60405180910390fd5b6119d160195f9054906101000a900473ffffffffffffffffffffffffffffffffffffffff16601c5f9054906101000a900473ffffffffffffffffffffffffffffffffffffffff1685876119cc9190619884565b613cb8565b50505050565b600260159054906101000a900460ff16611a26576040517f08c379a0000000000000000000000000000000000000000000000000000000008152600401611a1d90619969565b60405180910390fd5b80600c819055505f601c5f9054906101000a900473ffffffffffffffffffffffffffffffffffffffff1690508073ffffffffffffffffffffffffffffffffffffffff166302b9446c7399d8a9c45b2eca8864373a26d1459e3dff1e17f330601d5f9054906101000a900473ffffffffffffffffffffffffffffffffffffffff16875f6040518663ffffffff1660e01b8152600401611ac89594939291906199c0565b60408051808303815f875af1158015611ae3573d5f5f3e3d5ffd5b505050506040513d601f19601f82011682018060405250810190611b079190619a11565b905060125f8291905055505f60125403611b56576040517f08c379a0000000000000000000000000000000000000000000000000000000008152600401611b4d90619a99565b60405180910390fd5b5f8214611c6c57817399d8a9c45b2eca8864373a26d1459e3dff1e17f373ffffffffffffffffffffffffffffffffffffffff166370a08231306040518263ffffffff1660e01b8152600401611bab9190619326565b602060405180830381865afa158015611bc6573d5f5f3e3d5ffd5b505050506040513d601f19601f82011682018060405250810190611bea919061982c565b1015611c2b576040517f08c379a0000000000000000000000000000000000000000000000000000000008152600401611c2290619b01565b60405180910390fd5b611c6b7399d8a9c45b2eca8864373a26d1459e3dff1e17f3601c5f9054906101000a900473ffffffffffffffffffffffffffffffffffffffff1684613cb8565b5b611c96601d5f9054906101000a900473ffffffffffffffffffffffffffffffffffffffff16612c7d565b505050565b5f5f60149054906101000a900460ff1615611cba576001549050612c7a565b60015f60146101000a81548160ff021916908315150217905550611cdc613e07565b5f5f6101000a81548173ffffffffffffffffffffffffffffffffffffffff021916908373ffffffffffffffffffffffffffffffffffffffff1602179055505f73ffffffffffffffffffffffffffffffffffffffff165f5f9054906101000a900473ffffffffffffffffffffffffffffffffffffffff1673ffffffffffffffffffffffffffffffffffffffff1603611db7576001600260116101000a81548160ff0219169083151502179055507f38ed9f55514e3edd71f8851d7534fe642e7b0c697d86250a1c6790ad7b43d7e06016819055505f9050612c7a565b5f5f5f9054906101000a900473ffffffffffffffffffffffffffffffffffffffff1690507399d8a9c45b2eca8864373a26d1459e3dff1e17f373ffffffffffffffffffffffffffffffffffffffff168173ffffffffffffffffffffffffffffffffffffffff16639b352ae16040518163ffffffff1660e01b8152600401602060405180830381865afa158015611e4f573d5f5f3e3d5ffd5b505050506040513d601f19601f82011682018060405250810190611e739190619b33565b73ffffffffffffffffffffffffffffffffffffffff1614611ed9576001600260116101000a81548160ff0219169083151502179055507f365a7ff08c8322c57603f9d881ad4ef803926f04a09ddcbc98d1ff67b1555cca6016819055505f915050612c7a565b8073ffffffffffffffffffffffffffffffffffffffff1663d8dfeb456040518163ffffffff1660e01b8152600401602060405180830381865afa158015611f22573d5f5f3e3d5ffd5b505050506040513d601f19601f82011682018060405250810190611f469190619b33565b60195f6101000a81548173ffffffffffffffffffffffffffffffffffffffff021916908373ffffffffffffffffffffffffffffffffffffffff160217905550611faf60195f9054906101000a900473ffffffffffffffffffffffffffffffffffffffff16613e4a565b601a5f6101000a81548173ffffffffffffffffffffffffffffffffffffffff021916908373ffffffffffffffffffffffffffffffffffffffff1602179055508073ffffffffffffffffffffffffffffffffffffffff16637dc0d1d06040518163ffffffff1660e01b8152600401602060405180830381865afa158015612037573d5f5f3e3d5ffd5b505050506040513d601f19601f8201168201806040525081019061205b9190619b33565b601b5f6101000a81548173ffffffffffffffffffffffffffffffffffffffff021916908373ffffffffffffffffffffffffffffffffffffffff1602179055508073ffffffffffffffffffffffffffffffffffffffff166374645ff36040518163ffffffff1660e01b81526004015f60405180830381865afa1580156120e2573d5f5f3e3d5ffd5b505050506040513d5f823e3d601f19601f8201168201806040525081019061210a9190619c78565b602090816121189190619e56565b508073ffffffffffffffffffffffffffffffffffffffff16636b2ace876040518163ffffffff1660e01b8152600401602060405180830381865afa158015612162573d5f5f3e3d5ffd5b505050506040513d601f19601f820116820180604052508101906121869190619b33565b601c5f6101000a81548173ffffffffffffffffffffffffffffffffffffffff021916908373ffffffffffffffffffffffffffffffffffffffff1602179055505f73ffffffffffffffffffffffffffffffffffffffff1660195f9054906101000a900473ffffffffffffffffffffffffffffffffffffffff1673ffffffffffffffffffffffffffffffffffffffff16148061226c57505f73ffffffffffffffffffffffffffffffffffffffff16601b5f9054906101000a900473ffffffffffffffffffffffffffffffffffffffff1673ffffffffffffffffffffffffffffffffffffffff16145b806122c357505f73ffffffffffffffffffffffffffffffffffffffff16601c5f9054906101000a900473ffffffffffffffffffffffffffffffffffffffff1673ffffffffffffffffffffffffffffffffffffffff16145b15612313576001600260116101000a81548160ff0219169083151502179055507fc36d260585e1e637e41b8f34b284c3ac0a0dd7119e0b4574932855a97eb23f716016819055505f915050612c7a565b61231b6146a4565b612323614819565b600f819055505f600f540361237d576001600260116101000a81548160ff0219169083151502179055507fcf609d0601476db69bfdfcca9001e93b9592563c93281a23ed5bedba069abebf6016819055505f915050612c7a565b612385614821565b6009819055505f600954036123df576001600260116101000a81548160ff0219169083151502179055507fe62aa29de1d75a8317ada22b1ef4807f9478b75ee9f1c7431eca788282ba4a9b6016819055505f915050612c7a565b6123e7614a00565b600260169054906101000a900460ff16801561240457505f600354145b15612489575f5f9054906101000a900473ffffffffffffffffffffffffffffffffffffffff16601d5f6101000a81548173ffffffffffffffffffffffffffffffffffffffff021916908373ffffffffffffffffffffffffffffffffffffffff1602179055506001600260146101000a81548160ff02191690831515021790555061269f565b6001600260126101000a81548160ff0219169083151502179055506001600260136101000a81548160ff0219169083151502179055506124c7614bd3565b601e5f9054906101000a900473ffffffffffffffffffffffffffffffffffffffff16601d5f6101000a81548173ffffffffffffffffffffffffffffffffffffffff021916908373ffffffffffffffffffffffffffffffffffffffff1602179055506001600260156101000a81548160ff02191690831515021790555061254b61507b565b7399d8a9c45b2eca8864373a26d1459e3dff1e17f373ffffffffffffffffffffffffffffffffffffffff166370a08231306040518263ffffffff1660e01b81526004016125989190619326565b602060405180830381865afa1580156125b3573d5f5f3e3d5ffd5b505050506040513d601f19601f820116820180604052508101906125d7919061982c565b6013819055505f60135403612631576001600260116101000a81548160ff0219169083151502179055507ffcfb2f4d021db9b6947e6190c6da0f6415bd8d3d496d21699a112b93fa9791296016819055505f915050612c7a565b61263c601354615486565b600b8190555067016345785d8a0000600b541161269e576001600260116101000a81548160ff0219169083151502179055507f75c4b12af9078110608299b054ff7c246969bbb5bd51bf71ab83dbd4323cf3036016819055505f915050612c7a565b5b5f5f601d5f9054906101000a900473ffffffffffffffffffffffffffffffffffffffff1673ffffffffffffffffffffffffffffffffffffffff166302ce728f6040518163ffffffff1660e01b815260040160408051808303815f875af115801561270b573d5f5f3e3d5ffd5b505050506040513d601f19601f8201168201806040525081019061272f9190619f4f565b9150915081600460016101000a81548160ff0219169083151502179055508060058190555081801561276057505f81145b60045f6101000a81548160ff02191690831515021790555060045f9054906101000a900460ff166002806101000a81548160ff02191690831515021790555060028054906101000a900460ff16801561284557505f601d5f9054906101000a900473ffffffffffffffffffffffffffffffffffffffff1673ffffffffffffffffffffffffffffffffffffffff16633ba0b9a96040518163ffffffff1660e01b8152600401602060405180830381865afa15801561281f573d5f5f3e3d5ffd5b505050506040513d601f19601f82011682018060405250810190612843919061982c565b145b60025f6101000a81548160ff02191690831515021790555060025f9054906101000a900460ff16600260076101000a81548160ff02191690831515021790555060025f9054906101000a900460ff166002600d6101000a81548160ff0219169083151502179055505f5f9054906101000a900473ffffffffffffffffffffffffffffffffffffffff1673ffffffffffffffffffffffffffffffffffffffff16601d5f9054906101000a900473ffffffffffffffffffffffffffffffffffffffff1673ffffffffffffffffffffffffffffffffffffffff160361294a5760025f9054906101000a900460ff16600660016101000a81548160ff0219169083151502179055505b6002600d9054906101000a900460ff16612999576040517f08c379a000000000000000000000000000000000000000000000000000000000815260040161299090619fd7565b60405180910390fd5b601c5f9054906101000a900473ffffffffffffffffffffffffffffffffffffffff1673ffffffffffffffffffffffffffffffffffffffff1663f1676d37303060195f9054906101000a900473ffffffffffffffffffffffffffffffffffffffff1660095460405180602001604052805f8152506040518663ffffffff1660e01b8152600401612a2c9594939291906197c0565b5f604051808303815f87803b158015612a43575f5ffd5b505af1158015612a55573d5f5f3e3d5ffd5b505050507399d8a9c45b2eca8864373a26d1459e3dff1e17f373ffffffffffffffffffffffffffffffffffffffff166370a08231306040518263ffffffff1660e01b8152600401612aa69190619326565b602060405180830381865afa158015612ac1573d5f5f3e3d5ffd5b505050506040513d601f19601f82011682018060405250810190612ae5919061982c565b60148190555060135460145411612afc575f612b0d565b601354601454612b0c9190619ff5565b5b60018190555060025f9054906101000a900460ff168015612b3a5750600260019054906101000a900460ff165b8015612b525750600260039054906101000a900460ff165b8015612b6a5750600260049054906101000a900460ff165b8015612b825750600260059054906101000a900460ff165b8015612b9a5750600260069054906101000a900460ff165b8015612bb25750600260079054906101000a900460ff165b8015612bca5750600260089054906101000a900460ff165b8015612be25750600260099054906101000a900460ff165b8015612bfa57506002600a9054906101000a900460ff165b8015612c1257506002600b9054906101000a900460ff165b8015612c28575067016345785d8a000060015410155b600260106101000a81548160ff021916908315150217905550600260109054906101000a900460ff16612c71576001600260116101000a81548160ff0219169083151502179055505b60015493505050505b90565b5f601c5f9054906101000a900473ffffffffffffffffffffffffffffffffffffffff169050600a5460095411612ce8576040517f08c379a0000000000000000000000000000000000000000000000000000000008152600401612cdf9061a072565b60405180910390fd5b600a54600954612cf89190619ff5565b600e819055508073ffffffffffffffffffffffffffffffffffffffff166302b9446c60195f9054906101000a900473ffffffffffffffffffffffffffffffffffffffff1630601d5f9054906101000a900473ffffffffffffffffffffffffffffffffffffffff16600e545f6040518663ffffffff1660e01b8152600401612d839594939291906199c0565b60408051808303815f875af1158015612d9e573d5f5f3e3d5ffd5b505050506040513d601f19601f82011682018060405250810190612dc29190619a11565b9050600d5f829190505550600f54600d5411612e13576040517f08c379a0000000000000000000000000000000000000000000000000000000008152600401612e0a9061a0da565b60405180910390fd5b8173ffffffffffffffffffffffffffffffffffffffff1663860ffea1306001600d546040518463ffffffff1660e01b8152600401612e539392919061a0f8565b5f604051808303815f87803b158015612e6a575f5ffd5b505af1158015612e7c573d5f5f3e3d5ffd5b50505050600d548273ffffffffffffffffffffffffffffffffffffffff16631c9e379b306040518263ffffffff1660e01b8152600401612ebc9190619326565b602060405180830381865afa158015612ed7573d5f5f3e3d5ffd5b505050506040513d601f19601f82011682018060405250810190612efb919061982c565b1015600260016101000a81548160ff021916908315150217905550600260019054906101000a900460ff16600260086101000a81548160ff0219169083151502179055505f8173ffffffffffffffffffffffffffffffffffffffff1663f7888aec7399d8a9c45b2eca8864373a26d1459e3dff1e17f3601d5f9054906101000a900473ffffffffffffffffffffffffffffffffffffffff166040518363ffffffff1660e01b8152600401612fb092919061a12d565b602060405180830381865afa158015612fcb573d5f5f3e3d5ffd5b505050506040513d601f19601f82011682018060405250810190612fef919061982c565b90505f8273ffffffffffffffffffffffffffffffffffffffff1663566231187399d8a9c45b2eca8864373a26d1459e3dff1e17f3845f6040518463ffffffff1660e01b81526004016130439392919061a154565b602060405180830381865afa15801561305e573d5f5f3e3d5ffd5b505050506040513d601f19601f82011682018060405250810190613082919061982c565b9050600181116130c7576040517f08c379a00000000000000000000000000000000000000000000000000000000081526004016130be9061a1d3565b60405180910390fd5b6001816130d49190619ff5565b6007819055508373ffffffffffffffffffffffffffffffffffffffff16634b8a3529306007546040518363ffffffff1660e01b815260040161311792919061a1f1565b60408051808303815f875af1158015613132573d5f5f3e3d5ffd5b505050506040513d601f19601f820116820180604052508101906131569190619a11565b905060085f8291905055506001600260036101000a81548160ff0219169083151502179055506001600260096101000a81548160ff021916908315150217905550600260019054906101000a900460ff1680156131bf5750600260039054906101000a900460ff165b6002600e6101000a81548160ff0219169083151502179055505f60085414613281578273ffffffffffffffffffffffffffffffffffffffff166397da6d307399d8a9c45b2eca8864373a26d1459e3dff1e17f330305f6008546040518663ffffffff1660e01b815260040161323895949392919061a218565b60408051808303815f875af1158015613253573d5f5f3e3d5ffd5b505050506040513d601f19601f820116820180604052508101906132779190619a11565b50505f6008819055505b8373ffffffffffffffffffffffffffffffffffffffff166338b51ce1306040518263ffffffff1660e01b81526004016132ba9190619326565b602060405180830381865afa1580156132d5573d5f5f3e3d5ffd5b505050506040513d601f19601f820116820180604052508101906132f9919061a269565b60155f6101000a81548160ff0219169083151502179055505f8473ffffffffffffffffffffffffffffffffffffffff16631c9e379b306040518263ffffffff1660e01b815260040161334b9190619326565b602060405180830381865afa158015613366573d5f5f3e3d5ffd5b505050506040513d601f19601f8201168201806040525081019061338a919061982c565b9050600f5481111561355b575f600f54826133a59190619ff5565b90508573ffffffffffffffffffffffffffffffffffffffff1663876467f830836040518363ffffffff1660e01b81526004016133e292919061a1f1565b5f604051808303815f87803b1580156133f9575f5ffd5b505af115801561340b573d5f5f3e3d5ffd5b505050505f8573ffffffffffffffffffffffffffffffffffffffff1663f7888aec60195f9054906101000a900473ffffffffffffffffffffffffffffffffffffffff16306040518363ffffffff1660e01b815260040161346c92919061a12d565b602060405180830381865afa158015613487573d5f5f3e3d5ffd5b505050506040513d601f19601f820116820180604052508101906134ab919061982c565b90505f8114613558578573ffffffffffffffffffffffffffffffffffffffff166397da6d3060195f9054906101000a900473ffffffffffffffffffffffffffffffffffffffff1630305f866040518663ffffffff1660e01b815260040161351695949392919061a218565b60408051808303815f875af1158015613531573d5f5f3e3d5ffd5b505050506040513d601f19601f820116820180604052508101906135559190619a11565b50505b50505b600f548573ffffffffffffffffffffffffffffffffffffffff16631c9e379b306040518263ffffffff1660e01b81526004016135979190619326565b602060405180830381865afa1580156135b2573d5f5f3e3d5ffd5b505050506040513d601f19601f820116820180604052508101906135d6919061982c565b14600260046101000a81548160ff021916908315150217905550600260049054906101000a900460ff166002600a6101000a81548160ff021916908315150217905550600260049054906101000a900460ff16613668576040517f08c379a000000000000000000000000000000000000000000000000000000000815260040161365f9061a2de565b60405180910390fd5b5f600a546009546136799190619884565b90505f60195f9054906101000a900473ffffffffffffffffffffffffffffffffffffffff1673ffffffffffffffffffffffffffffffffffffffff166370a08231306040518263ffffffff1660e01b81526004016136d69190619326565b602060405180830381865afa1580156136f1573d5f5f3e3d5ffd5b505050506040513d601f19601f82011682018060405250810190613715919061982c565b90505f6010819055505f6011819055508181101561382c5780826137399190619ff5565b60108190555061374a60105461559c565b6011819055508160195f9054906101000a900473ffffffffffffffffffffffffffffffffffffffff1673ffffffffffffffffffffffffffffffffffffffff166370a08231306040518263ffffffff1660e01b81526004016137ab9190619326565b602060405180830381865afa1580156137c6573d5f5f3e3d5ffd5b505050506040513d601f19601f820116820180604052508101906137ea919061982c565b101561382b576040517f08c379a00000000000000000000000000000000000000000000000000000000081526004016138229061a346565b60405180910390fd5b5b5f600167ffffffffffffffff81111561384857613847619b62565b5b6040519080825280602002602001820160405280156138765781602001602082028036833780820191505090505b50905030815f8151811061388d5761388c61a364565b5b602002602001019073ffffffffffffffffffffffffffffffffffffffff16908173ffffffffffffffffffffffffffffffffffffffff16815250505f600167ffffffffffffffff8111156138e3576138e2619b62565b5b6040519080825280602002602001820160405280156139115781602001602082028036833780820191505090505b5090508873ffffffffffffffffffffffffffffffffffffffff166348e4163e306040518263ffffffff1660e01b815260040161394d9190619326565b602060405180830381865afa158015613968573d5f5f3e3d5ffd5b505050506040513d601f19601f8201168201806040525081019061398c919061982c565b815f8151811061399f5761399e61a364565b5b6020026020010181815250505f5f601d5f9054906101000a900473ffffffffffffffffffffffffffffffffffffffff1673ffffffffffffffffffffffffffffffffffffffff1663ff6ff84b60e01b8585305f60405180602001604052805f815250604051602401613a1495949392919061a4ff565b604051602081830303815290604052907bffffffffffffffffffffffffffffffffffffffffffffffffffffffff19166020820180517bffffffffffffffffffffffffffffffffffffffffffffffffffffffff8381831617835250505050604051613a7e919061a59f565b5f604051808303815f865af19150503d805f8114613ab7576040519150601f19603f3d011682016040523d82523d5f602084013e613abc565b606091505b50915091506001600260056101000a81548160ff02191690831515021790555081158015613b6e5750613aee81615736565b80613b6d57508a73ffffffffffffffffffffffffffffffffffffffff166338b51ce1306040518263ffffffff1660e01b8152600401613b2d9190619326565b602060405180830381865afa158015613b48573d5f5f3e3d5ffd5b505050506040513d601f19601f82011682018060405250810190613b6c919061a269565b5b5b600260066101000a81548160ff021916908315150217905550600260069054906101000a900460ff166002600b6101000a81548160ff021916908315150217905550600260069054906101000a900460ff168015613c4357505f8b73ffffffffffffffffffffffffffffffffffffffff16631c9e379b306040518263ffffffff1660e01b8152600401613c019190619326565b602060405180830381865afa158015613c1c573d5f5f3e3d5ffd5b505050506040513d601f19601f82011682018060405250810190613c40919061982c565b14155b6002600f6101000a81548160ff021916908315150217905550600260069054906101000a900460ff16613cab576040517f08c379a0000000000000000000000000000000000000000000000000000000008152600401613ca29061a5ff565b60405180910390fd5b5050505050505050505050565b5f5f8473ffffffffffffffffffffffffffffffffffffffff1663a9059cbb60e01b8585604051602401613cec92919061a1f1565b604051602081830303815290604052907bffffffffffffffffffffffffffffffffffffffffffffffffffffffff19166020820180517bffffffffffffffffffffffffffffffffffffffffffffffffffffffff8381831617835250505050604051613d56919061a59f565b5f604051808303815f865af19150503d805f8114613d8f576040519150601f19603f3d011682016040523d82523d5f602084013e613d94565b606091505b5091509150818015613dc157505f81511480613dc0575080806020019051810190613dbf919061a269565b5b5b613e00576040517f08c379a0000000000000000000000000000000000000000000000000000000008152600401613df79061a667565b60405180910390fd5b5050505050565b5f613e257346f54d434063e5f1a2b2cc6d9aaa657b1b9ff82c6158d4565b15613e46577346f54d434063e5f1a2b2cc6d9aaa657b1b9ff82c9050613e47565b5b90565b5f5f73ffffffffffffffffffffffffffffffffffffffff168273ffffffffffffffffffffffffffffffffffffffff1603613e86575f905061469f565b613f12826040516024016040516020818303038152906040527f38d52e0f000000000000000000000000000000000000000000000000000000007bffffffffffffffffffffffffffffffffffffffffffffffffffffffff19166020820180517bffffffffffffffffffffffffffffffffffffffffffffffffffffffff83818316178352505050506159d1565b90505f73ffffffffffffffffffffffffffffffffffffffff168173ffffffffffffffffffffffffffffffffffffffff160361469f57613fd3826040516024016040516020818303038152906040527ffc0c546a000000000000000000000000000000000000000000000000000000007bffffffffffffffffffffffffffffffffffffffffffffffffffffffff19166020820180517bffffffffffffffffffffffffffffffffffffffffffffffffffffffff83818316178352505050506159d1565b90505f73ffffffffffffffffffffffffffffffffffffffff168173ffffffffffffffffffffffffffffffffffffffff160361469f57614094826040516024016040516020818303038152906040527f6f307dc3000000000000000000000000000000000000000000000000000000007bffffffffffffffffffffffffffffffffffffffffffffffffffffffff19166020820180517bffffffffffffffffffffffffffffffffffffffffffffffffffffffff83818316178352505050506159d1565b90505f73ffffffffffffffffffffffffffffffffffffffff168173ffffffffffffffffffffffffffffffffffffffff160361469f57614155826040516024016040516020818303038152906040527f72f702f3000000000000000000000000000000000000000000000000000000007bffffffffffffffffffffffffffffffffffffffffffffffffffffffff19166020820180517bffffffffffffffffffffffffffffffffffffffffffffffffffffffff83818316178352505050506159d1565b90505f73ffffffffffffffffffffffffffffffffffffffff168173ffffffffffffffffffffffffffffffffffffffff160361469f57614216826040516024016040516020818303038152906040527fc89039c5000000000000000000000000000000000000000000000000000000007bffffffffffffffffffffffffffffffffffffffffffffffffffffffff19166020820180517bffffffffffffffffffffffffffffffffffffffffffffffffffffffff83818316178352505050506159d1565b90505f73ffffffffffffffffffffffffffffffffffffffff168173ffffffffffffffffffffffffffffffffffffffff160361469f576142d7826040516024016040516020818303038152906040527f1f1fcd51000000000000000000000000000000000000000000000000000000007bffffffffffffffffffffffffffffffffffffffffffffffffffffffff19166020820180517bffffffffffffffffffffffffffffffffffffffffffffffffffffffff83818316178352505050506159d1565b90505f73ffffffffffffffffffffffffffffffffffffffff168173ffffffffffffffffffffffffffffffffffffffff160361469f57614398826040516024016040516020818303038152906040527f5fcbd285000000000000000000000000000000000000000000000000000000007bffffffffffffffffffffffffffffffffffffffffffffffffffffffff19166020820180517bffffffffffffffffffffffffffffffffffffffffffffffffffffffff83818316178352505050506159d1565b90505f73ffffffffffffffffffffffffffffffffffffffff168173ffffffffffffffffffffffffffffffffffffffff160361469f57614459826040516024016040516020818303038152906040527fa8aa1b31000000000000000000000000000000000000000000000000000000007bffffffffffffffffffffffffffffffffffffffffffffffffffffffff19166020820180517bffffffffffffffffffffffffffffffffffffffffffffffffffffffff83818316178352505050506159d1565b90505f73ffffffffffffffffffffffffffffffffffffffff168173ffffffffffffffffffffffffffffffffffffffff160361469f5761451a826040516024016040516020818303038152906040527f16f0115b000000000000000000000000000000000000000000000000000000007bffffffffffffffffffffffffffffffffffffffffffffffffffffffff19166020820180517bffffffffffffffffffffffffffffffffffffffffffffffffffffffff83818316178352505050506159d1565b90505f73ffffffffffffffffffffffffffffffffffffffff168173ffffffffffffffffffffffffffffffffffffffff160361469f576145db826040516024016040516020818303038152906040527f4cf088d9000000000000000000000000000000000000000000000000000000007bffffffffffffffffffffffffffffffffffffffffffffffffffffffff19166020820180517bffffffffffffffffffffffffffffffffffffffffffffffffffffffff83818316178352505050506159d1565b90505f73ffffffffffffffffffffffffffffffffffffffff168173ffffffffffffffffffffffffffffffffffffffff160361469f5761469c826040516024016040516020818303038152906040527f76636722000000000000000000000000000000000000000000000000000000007bffffffffffffffffffffffffffffffffffffffffffffffffffffffff19166020820180517bffffffffffffffffffffffffffffffffffffffffffffffffffffffff83818316178352505050506159d1565b90505b919050565b61471160195f9054906101000a900473ffffffffffffffffffffffffffffffffffffffff16601c5f9054906101000a900473ffffffffffffffffffffffffffffffffffffffff167fffffffffffffffffffffffffffffffffffffffffffffffffffffffffffffffff615a6e565b6147717399d8a9c45b2eca8864373a26d1459e3dff1e17f3601c5f9054906101000a900473ffffffffffffffffffffffffffffffffffffffff167fffffffffffffffffffffffffffffffffffffffffffffffffffffffffffffffff615a6e565b6147c47399d8a9c45b2eca8864373a26d1459e3dff1e17f373d9e1ce17f2641f24ae83637ab66a2cca9c378b9f7fffffffffffffffffffffffffffffffffffffffffffffffffffffffffffffffff615a6e565b6148177399d8a9c45b2eca8864373a26d1459e3dff1e17f3737a250d5630b4cf539739df2c5dacb4c659f2488d7fffffffffffffffffffffffffffffffffffffffffffffffffffffffffffffffff615a6e565b565b5f6001905090565b5f5f601c5f9054906101000a900473ffffffffffffffffffffffffffffffffffffffff1690505f60195f9054906101000a900473ffffffffffffffffffffffffffffffffffffffff1673ffffffffffffffffffffffffffffffffffffffff166370a08231601c5f9054906101000a900473ffffffffffffffffffffffffffffffffffffffff166040518263ffffffff1660e01b81526004016148c39190619326565b602060405180830381865afa1580156148de573d5f5f3e3d5ffd5b505050506040513d601f19601f82011682018060405250810190614902919061982c565b90506103e78111614917575f925050506149fd565b6103e792505b6107cf83116149f757808310614937575f925050506149fd565b600f548273ffffffffffffffffffffffffffffffffffffffff1663da5139ca60195f9054906101000a900473ffffffffffffffffffffffffffffffffffffffff16865f6040518463ffffffff1660e01b81526004016149989392919061a154565b602060405180830381865afa1580156149b3573d5f5f3e3d5ffd5b505050506040513d601f19601f820116820180604052508101906149d7919061982c565b11156149e45750506149fd565b82806149ef9061a685565b93505061491d565b5f925050505b90565b5f5f5f9054906101000a900473ffffffffffffffffffffffffffffffffffffffff1690505f8173ffffffffffffffffffffffffffffffffffffffff16633ba0b9a96040518163ffffffff1660e01b8152600401602060405180830381865afa158015614a6e573d5f5f3e3d5ffd5b505050506040513d601f19601f82011682018060405250810190614a92919061982c565b90505f811460065f6101000a81548160ff021916908315150217905550601b5f9054906101000a900473ffffffffffffffffffffffffffffffffffffffff1673ffffffffffffffffffffffffffffffffffffffff1663d6d7d52560206040518263ffffffff1660e01b8152600401614b0a919061a74d565b60408051808303815f875af1158015614b25573d5f5f3e3d5ffd5b505050506040513d601f19601f82011682018060405250810190614b499190619f4f565b6002601660035f84919050558391906101000a81548160ff0219169083151502179055505050600260169054906101000a900460ff168015614b8c57505f600354145b6002600c6101000a81548160ff0219169083151502179055506002600c9054906101000a900460ff1615600260136101000a81548160ff0219169083151502179055505050565b5f73ffffffffffffffffffffffffffffffffffffffff16601e5f9054906101000a900473ffffffffffffffffffffffffffffffffffffffff1673ffffffffffffffffffffffffffffffffffffffff160361507957604051614c33906192da565b604051809103905ff080158015614c4c573d5f5f3e3d5ffd5b50601f5f6101000a81548173ffffffffffffffffffffffffffffffffffffffff021916908373ffffffffffffffffffffffffffffffffffffffff1602179055505f601c5f9054906101000a900473ffffffffffffffffffffffffffffffffffffffff1673ffffffffffffffffffffffffffffffffffffffff1663bafe4f145f5f9054906101000a900473ffffffffffffffffffffffffffffffffffffffff166040518263ffffffff1660e01b8152600401614d079190619326565b602060405180830381865afa158015614d22573d5f5f3e3d5ffd5b505050506040513d601f19601f82011682018060405250810190614d469190619b33565b90505f73ffffffffffffffffffffffffffffffffffffffff168173ffffffffffffffffffffffffffffffffffffffff1603614db6576040517f08c379a0000000000000000000000000000000000000000000000000000000008152600401614dad9061a7b7565b60405180910390fd5b5f60195f9054906101000a900473ffffffffffffffffffffffffffffffffffffffff16601f5f9054906101000a900473ffffffffffffffffffffffffffffffffffffffff1660405180602001604052805f8152505f6201b580620124f85f604051602001614e2a979695949392919061a7f7565b6040516020818303038152906040529050601c5f9054906101000a900473ffffffffffffffffffffffffffffffffffffffff1673ffffffffffffffffffffffffffffffffffffffff16631f54245b83835f6040518463ffffffff1660e01b8152600401614e999392919061a86b565b6020604051808303815f875af1158015614eb5573d5f5f3e3d5ffd5b505050506040513d601f19601f82011682018060405250810190614ed99190619b33565b601e5f6101000a81548173ffffffffffffffffffffffffffffffffffffffff021916908373ffffffffffffffffffffffffffffffffffffffff1602179055505f73ffffffffffffffffffffffffffffffffffffffff16601e5f9054906101000a900473ffffffffffffffffffffffffffffffffffffffff1673ffffffffffffffffffffffffffffffffffffffff1603614fa7576040517f08c379a0000000000000000000000000000000000000000000000000000000008152600401614f9e9061a8f1565b60405180910390fd5b5f601e5f9054906101000a900473ffffffffffffffffffffffffffffffffffffffff1673ffffffffffffffffffffffffffffffffffffffff16633ba0b9a96040518163ffffffff1660e01b8152600401602060405180830381865afa158015615012573d5f5f3e3d5ffd5b505050506040513d601f19601f82011682018060405250810190615036919061982c565b14615076576040517f08c379a000000000000000000000000000000000000000000000000000000000815260040161506d9061a959565b60405180910390fd5b50505b565b5f7399d8a9c45b2eca8864373a26d1459e3dff1e17f373ffffffffffffffffffffffffffffffffffffffff166370a08231306040518263ffffffff1660e01b81526004016150c99190619326565b602060405180830381865afa1580156150e4573d5f5f3e3d5ffd5b505050506040513d601f19601f82011682018060405250810190615108919061982c565b14158061511457505f47145b615484575f479050660110d9316ec00081111561513657660110d9316ec00090505b61518673d9e1ce17f2641f24ae83637ab66a2cca9c378b9f61518073c02aaa39b223fe8d0a0e5c4f27ead9083c756cc27399d8a9c45b2eca8864373a26d1459e3dff1e17f3615b13565b83615c04565b156151915750615484565b6151f673d9e1ce17f2641f24ae83637ab66a2cca9c378b9f6151f073c02aaa39b223fe8d0a0e5c4f27ead9083c756cc273dac17f958d2ee523a2206206994597c13d831ec77399d8a9c45b2eca8864373a26d1459e3dff1e17f3615d47565b83615c04565b156152015750615484565b61526673d9e1ce17f2641f24ae83637ab66a2cca9c378b9f61526073c02aaa39b223fe8d0a0e5c4f27ead9083c756cc273a0b86991c6218b36c1d19d4a2e9eb0ce3606eb487399d8a9c45b2eca8864373a26d1459e3dff1e17f3615d47565b83615c04565b156152715750615484565b6152d673d9e1ce17f2641f24ae83637ab66a2cca9c378b9f6152d073c02aaa39b223fe8d0a0e5c4f27ead9083c756cc2736b175474e89094c44da98b954eedeac495271d0f7399d8a9c45b2eca8864373a26d1459e3dff1e17f3615d47565b83615c04565b156152e15750615484565b615331737a250d5630b4cf539739df2c5dacb4c659f2488d61532b73c02aaa39b223fe8d0a0e5c4f27ead9083c756cc27399d8a9c45b2eca8864373a26d1459e3dff1e17f3615b13565b83615c04565b1561533c5750615484565b6153a1737a250d5630b4cf539739df2c5dacb4c659f2488d61539b73c02aaa39b223fe8d0a0e5c4f27ead9083c756cc273dac17f958d2ee523a2206206994597c13d831ec77399d8a9c45b2eca8864373a26d1459e3dff1e17f3615d47565b83615c04565b156153ac5750615484565b615411737a250d5630b4cf539739df2c5dacb4c659f2488d61540b73c02aaa39b223fe8d0a0e5c4f27ead9083c756cc273a0b86991c6218b36c1d19d4a2e9eb0ce3606eb487399d8a9c45b2eca8864373a26d1459e3dff1e17f3615d47565b83615c04565b1561541c5750615484565b615481737a250d5630b4cf539739df2c5dacb4c659f2488d61547b73c02aaa39b223fe8d0a0e5c4f27ead9083c756cc2736b175474e89094c44da98b954eedeac495271d0f7399d8a9c45b2eca8864373a26d1459e3dff1e17f3615d47565b83615c04565b50505b565b5f5f7399d8a9c45b2eca8864373a26d1459e3dff1e17f373ffffffffffffffffffffffffffffffffffffffff166370a08231601c5f9054906101000a900473ffffffffffffffffffffffffffffffffffffffff166040518263ffffffff1660e01b81526004016154f69190619326565b602060405180830381865afa158015615511573d5f5f3e3d5ffd5b505050506040513d601f19601f82011682018060405250810190615535919061982c565b905060018111615548575f915050615597565b5f60646107d06155589190619ff5565b84615563919061a977565b9050680ad78ebc5ac620000092508083111561557d578092505b818310615594576001826155919190619ff5565b92505b50505b919050565b5f5f82036155ac575f9050615731565b5f7399d8a9c45b2eca8864373a26d1459e3dff1e17f373ffffffffffffffffffffffffffffffffffffffff166370a08231306040518263ffffffff1660e01b81526004016155fa9190619326565b602060405180830381865afa158015615615573d5f5f3e3d5ffd5b505050506040513d601f19601f82011682018060405250810190615639919061982c565b905061566660195f9054906101000a900473ffffffffffffffffffffffffffffffffffffffff1684615e88565b6156835761567383616278565b6156825761568083616cbf565b505b5b5f7399d8a9c45b2eca8864373a26d1459e3dff1e17f373ffffffffffffffffffffffffffffffffffffffff166370a08231306040518263ffffffff1660e01b81526004016156d19190619326565b602060405180830381865afa1580156156ec573d5f5f3e3d5ffd5b505050506040513d601f19601f82011682018060405250810190615710919061982c565b905080821161571f575f61572c565b808261572b9190619ff5565b5b925050505b919050565b5f604482511015615749575f90506158cf565b5f602083015190506308c379a060e01b817bffffffffffffffffffffffffffffffffffffffffffffffffffffffff191614615787575f9150506158cf565b5f600484516157969190619ff5565b67ffffffffffffffff8111156157af576157ae619b62565b5b6040519080825280601f01601f1916602001820160405280156157e15781602001600182028036833780820191505090505b5090505f600490505b845181101561586b578481815181106158065761580561a364565b5b602001015160f81c60f81b8260048361581f9190619ff5565b815181106158305761582f61a364565b5b60200101907effffffffffffffffffffffffffffffffffffffffffffffffffffffffffffff191690815f1a90535080806001019150506157ea565b505f81806020019051810190615881919061aa56565b90506040518060400160405280601981526020017f4361756c64726f6e3a20616c6c2061726520736f6c76656e74000000000000008152508051906020012081805190602001201493505050505b919050565b5f5f73ffffffffffffffffffffffffffffffffffffffff168273ffffffffffffffffffffffffffffffffffffffff1603615910575f90506159cc565b8173ffffffffffffffffffffffffffffffffffffffff16639b352ae16040518163ffffffff1660e01b8152600401602060405180830381865afa92505050801561597857506040513d601f19601f820116820180604052508101906159759190619b33565b60015b615984575f90506159cb565b7399d8a9c45b2eca8864373a26d1459e3dff1e17f373ffffffffffffffffffffffffffffffffffffffff168173ffffffffffffffffffffffffffffffffffffffff16149150505b5b919050565b5f5f5f8473ffffffffffffffffffffffffffffffffffffffff16846040516159f9919061a59f565b5f60405180830381855afa9150503d805f8114615a31576040519150601f19603f3d011682016040523d82523d5f602084013e615a36565b606091505b5091509150818015615a4a57506020815110155b15615a665780806020019051810190615a63919061aad8565b92505b505092915050565b8273ffffffffffffffffffffffffffffffffffffffff1663dd62ed3e30846040518363ffffffff1660e01b8152600401615aa992919061a12d565b602060405180830381865afa925050508015615ae357506040513d601f19601f82011682018060405250810190615ae0919061982c565b60015b15615af757818110615af55750615b0e565b505b615b0283835f617922565b615b0d838383617922565b5b505050565b6060600267ffffffffffffffff811115615b3057615b2f619b62565b5b604051908082528060200260200182016040528015615b5e5781602001602082028036833780820191505090505b50905082815f81518110615b7557615b7461a364565b5b602002602001019073ffffffffffffffffffffffffffffffffffffffff16908173ffffffffffffffffffffffffffffffffffffffff16815250508181600181518110615bc457615bc361a364565b5b602002602001019073ffffffffffffffffffffffffffffffffffffffff16908173ffffffffffffffffffffffffffffffffffffffff168152505092915050565b5f5f8203615c14575f9050615d40565b8373ffffffffffffffffffffffffffffffffffffffff16637ff36ab5835f8630426040518663ffffffff1660e01b8152600401615c54949392919061ab03565b5f6040518083038185885af193505050508015615c9357506040513d5f823e3d601f19601f82011682018060405250810190615c90919061ac0d565b60015b615c9f575f9050615d3f565b5f815114158015615d3b57505f7399d8a9c45b2eca8864373a26d1459e3dff1e17f373ffffffffffffffffffffffffffffffffffffffff166370a08231306040518263ffffffff1660e01b8152600401615cf99190619326565b602060405180830381865afa158015615d14573d5f5f3e3d5ffd5b505050506040513d601f19601f82011682018060405250810190615d38919061982c565b14155b9150505b5b9392505050565b6060600367ffffffffffffffff811115615d6457615d63619b62565b5b604051908082528060200260200182016040528015615d925781602001602082028036833780820191505090505b50905083815f81518110615da957615da861a364565b5b602002602001019073ffffffffffffffffffffffffffffffffffffffff16908173ffffffffffffffffffffffffffffffffffffffff16815250508281600181518110615df857615df761a364565b5b602002602001019073ffffffffffffffffffffffffffffffffffffffff16908173ffffffffffffffffffffffffffffffffffffffff16815250508181600281518110615e4757615e4661a364565b5b602002602001019073ffffffffffffffffffffffffffffffffffffffff16908173ffffffffffffffffffffffffffffffffffffffff16815250509392505050565b5f5f8203615e995760019050616272565b5f8373ffffffffffffffffffffffffffffffffffffffff166370a08231306040518263ffffffff1660e01b8152600401615ed39190619326565b602060405180830381865afa158015615eee573d5f5f3e3d5ffd5b505050506040513d601f19601f82011682018060405250810190615f12919061982c565b90505f5f5f5f5f5f615f238a617a71565b955095509550955095509550851580615f3b57505f81145b80615f5557505f836dffffffffffffffffffffffffffff16145b80615f6f57505f826dffffffffffffffffffffffffffff16145b15615f83575f975050505050505050616272565b60195f9054906101000a900473ffffffffffffffffffffffffffffffffffffffff1673ffffffffffffffffffffffffffffffffffffffff168a73ffffffffffffffffffffffffffffffffffffffff160361607357600160175f6101000a81548160ff02191690831515021790555084601760016101000a81548173ffffffffffffffffffffffffffffffffffffffff021916908373ffffffffffffffffffffffffffffffffffffffff1602179055508360185f6101000a81548173ffffffffffffffffffffffffffffffffffffffff021916908373ffffffffffffffffffffffffffffffffffffffff1602179055505b5f616099846dffffffffffffffffffffffffffff168b616093919061a977565b83617f2c565b90505f6160c1846dffffffffffffffffffffffffffff168c6160bb919061a977565b84617f2c565b90505f82036160cf57600191505b5f81036160db57600190505b6001826160e89190619884565b91506001816160f79190619884565b90506161038783617f67565b616118575f9950505050505050505050616272565b6161228682617f67565b616137575f9950505050505050505050616272565b616142878d84613cb8565b61614d868d83613cb8565b8b73ffffffffffffffffffffffffffffffffffffffff16636a627842306040518263ffffffff1660e01b81526004016161869190619326565b6020604051808303815f875af19250505080156161c157506040513d601f19601f820116820180604052508101906161be919061982c565b60015b6161cd575f9950616268565b5f8d73ffffffffffffffffffffffffffffffffffffffff166370a08231306040518263ffffffff1660e01b81526004016162079190619326565b602060405180830381865afa158015616222573d5f5f3e3d5ffd5b505050506040513d601f19601f82011682018060405250810190616246919061982c565b90508c821015801561626357508c8b61625f9190619884565b8110155b9b5050505b5050505050505050505b92915050565b5f5f73ffffffffffffffffffffffffffffffffffffffff16601a5f9054906101000a900473ffffffffffffffffffffffffffffffffffffffff1673ffffffffffffffffffffffffffffffffffffffff161480616341575060195f9054906101000a900473ffffffffffffffffffffffffffffffffffffffff1673ffffffffffffffffffffffffffffffffffffffff16601a5f9054906101000a900473ffffffffffffffffffffffffffffffffffffffff1673ffffffffffffffffffffffffffffffffffffffff16145b1561634e575f9050616cba565b5f60195f9054906101000a900473ffffffffffffffffffffffffffffffffffffffff1673ffffffffffffffffffffffffffffffffffffffff166370a08231306040518263ffffffff1660e01b81526004016163a99190619326565b602060405180830381865afa1580156163c4573d5f5f3e3d5ffd5b505050506040513d601f19601f820116820180604052508101906163e8919061982c565b90505f8390505f81036163fa57600190505b5f5f90505b600481101561654657616433601a5f9054906101000a900473ffffffffffffffffffffffffffffffffffffffff1683615e88565b156164f5576164406181ba565b80156164e357508260195f9054906101000a900473ffffffffffffffffffffffffffffffffffffffff1673ffffffffffffffffffffffffffffffffffffffff166370a08231306040518263ffffffff1660e01b81526004016164a29190619326565b602060405180830381865afa1580156164bd573d5f5f3e3d5ffd5b505050506040513d601f19601f820116820180604052508101906164e1919061982c565b115b156164f45760019350505050616cba565b5b6103e87fffffffffffffffffffffffffffffffffffffffffffffffffffffffffffffffff616523919061ac81565b8211616546576103e882616537919061a977565b915080806001019150506163ff565b505f7399d8a9c45b2eca8864373a26d1459e3dff1e17f373ffffffffffffffffffffffffffffffffffffffff166370a08231306040518263ffffffff1660e01b81526004016165959190619326565b602060405180830381865afa1580156165b0573d5f5f3e3d5ffd5b505050506040513d601f19601f820116820180604052508101906165d4919061982c565b905067016345785d8a000081116165f0575f9350505050616cba565b5f67016345785d8a0000826166059190619ff5565b905061668673d9e1ce17f2641f24ae83637ab66a2cca9c378b9f61665e7399d8a9c45b2eca8864373a26d1459e3dff1e17f3601a5f9054906101000a900473ffffffffffffffffffffffffffffffffffffffff16615b13565b601a5f9054906101000a900473ffffffffffffffffffffffffffffffffffffffff168461876e565b158015616724575061672273d9e1ce17f2641f24ae83637ab66a2cca9c378b9f6166fa7399d8a9c45b2eca8864373a26d1459e3dff1e17f373c02aaa39b223fe8d0a0e5c4f27ead9083c756cc2601a5f9054906101000a900473ffffffffffffffffffffffffffffffffffffffff16615d47565b601a5f9054906101000a900473ffffffffffffffffffffffffffffffffffffffff168461876e565b155b80156167c157506167bf73d9e1ce17f2641f24ae83637ab66a2cca9c378b9f6167977399d8a9c45b2eca8864373a26d1459e3dff1e17f373dac17f958d2ee523a2206206994597c13d831ec7601a5f9054906101000a900473ffffffffffffffffffffffffffffffffffffffff16615d47565b601a5f9054906101000a900473ffffffffffffffffffffffffffffffffffffffff168461876e565b155b801561685e575061685c73d9e1ce17f2641f24ae83637ab66a2cca9c378b9f6168347399d8a9c45b2eca8864373a26d1459e3dff1e17f373a0b86991c6218b36c1d19d4a2e9eb0ce3606eb48601a5f9054906101000a900473ffffffffffffffffffffffffffffffffffffffff16615d47565b601a5f9054906101000a900473ffffffffffffffffffffffffffffffffffffffff168461876e565b155b80156168fb57506168f973d9e1ce17f2641f24ae83637ab66a2cca9c378b9f6168d17399d8a9c45b2eca8864373a26d1459e3dff1e17f3736b175474e89094c44da98b954eedeac495271d0f601a5f9054906101000a900473ffffffffffffffffffffffffffffffffffffffff16615d47565b601a5f9054906101000a900473ffffffffffffffffffffffffffffffffffffffff168461876e565b155b80156169835750616981737a250d5630b4cf539739df2c5dacb4c659f2488d6169597399d8a9c45b2eca8864373a26d1459e3dff1e17f3601a5f9054906101000a900473ffffffffffffffffffffffffffffffffffffffff16615b13565b601a5f9054906101000a900473ffffffffffffffffffffffffffffffffffffffff168461876e565b155b8015616a205750616a1e737a250d5630b4cf539739df2c5dacb4c659f2488d6169f67399d8a9c45b2eca8864373a26d1459e3dff1e17f373c02aaa39b223fe8d0a0e5c4f27ead9083c756cc2601a5f9054906101000a900473ffffffffffffffffffffffffffffffffffffffff16615d47565b601a5f9054906101000a900473ffffffffffffffffffffffffffffffffffffffff168461876e565b155b8015616abd5750616abb737a250d5630b4cf539739df2c5dacb4c659f2488d616a937399d8a9c45b2eca8864373a26d1459e3dff1e17f373dac17f958d2ee523a2206206994597c13d831ec7601a5f9054906101000a900473ffffffffffffffffffffffffffffffffffffffff16615d47565b601a5f9054906101000a900473ffffffffffffffffffffffffffffffffffffffff168461876e565b155b8015616b5a5750616b58737a250d5630b4cf539739df2c5dacb4c659f2488d616b307399d8a9c45b2eca8864373a26d1459e3dff1e17f373a0b86991c6218b36c1d19d4a2e9eb0ce3606eb48601a5f9054906101000a900473ffffffffffffffffffffffffffffffffffffffff16615d47565b601a5f9054906101000a900473ffffffffffffffffffffffffffffffffffffffff168461876e565b155b8015616bf75750616bf5737a250d5630b4cf539739df2c5dacb4c659f2488d616bcd7399d8a9c45b2eca8864373a26d1459e3dff1e17f3736b175474e89094c44da98b954eedeac495271d0f601a5f9054906101000a900473ffffffffffffffffffffffffffffffffffffffff16615d47565b601a5f9054906101000a900473ffffffffffffffffffffffffffffffffffffffff168461876e565b155b15616c08575f945050505050616cba565b616c106181ba565b8015616cb357508360195f9054906101000a900473ffffffffffffffffffffffffffffffffffffffff1673ffffffffffffffffffffffffffffffffffffffff166370a08231306040518263ffffffff1660e01b8152600401616c729190619326565b602060405180830381865afa158015616c8d573d5f5f3e3d5ffd5b505050506040513d601f19601f82011682018060405250810190616cb1919061982c565b115b9450505050505b919050565b5f5f8203616ccf575f905061791d565b5f60195f9054906101000a900473ffffffffffffffffffffffffffffffffffffffff1673ffffffffffffffffffffffffffffffffffffffff166370a08231306040518263ffffffff1660e01b8152600401616d2a9190619326565b602060405180830381865afa158015616d45573d5f5f3e3d5ffd5b505050506040513d601f19601f82011682018060405250810190616d69919061982c565b90505f7399d8a9c45b2eca8864373a26d1459e3dff1e17f373ffffffffffffffffffffffffffffffffffffffff166370a08231306040518263ffffffff1660e01b8152600401616db99190619326565b602060405180830381865afa158015616dd4573d5f5f3e3d5ffd5b505050506040513d601f19601f82011682018060405250810190616df8919061982c565b905067016345785d8a00008111616e13575f9250505061791d565b5f67016345785d8a000082616e289190619ff5565b90505f8103616e3c575f935050505061791d565b616e9b73d9e1ce17f2641f24ae83637ab66a2cca9c378b9f616e937399d8a9c45b2eca8864373a26d1459e3dff1e17f360195f9054906101000a900473ffffffffffffffffffffffffffffffffffffffff16615b13565b85888561899d565b15616f41577399d8a9c45b2eca8864373a26d1459e3dff1e17f373ffffffffffffffffffffffffffffffffffffffff166370a08231306040518263ffffffff1660e01b8152600401616eed9190619326565b602060405180830381865afa158015616f08573d5f5f3e3d5ffd5b505050506040513d601f19601f82011682018060405250810190616f2c919061982c565b82616f379190619ff5565b935050505061791d565b616fb573d9e1ce17f2641f24ae83637ab66a2cca9c378b9f616fad7399d8a9c45b2eca8864373a26d1459e3dff1e17f373c02aaa39b223fe8d0a0e5c4f27ead9083c756cc260195f9054906101000a900473ffffffffffffffffffffffffffffffffffffffff16615d47565b85888561899d565b1561705b577399d8a9c45b2eca8864373a26d1459e3dff1e17f373ffffffffffffffffffffffffffffffffffffffff166370a08231306040518263ffffffff1660e01b81526004016170079190619326565b602060405180830381865afa158015617022573d5f5f3e3d5ffd5b505050506040513d601f19601f82011682018060405250810190617046919061982c565b826170519190619ff5565b935050505061791d565b6170cf73d9e1ce17f2641f24ae83637ab66a2cca9c378b9f6170c77399d8a9c45b2eca8864373a26d1459e3dff1e17f373dac17f958d2ee523a2206206994597c13d831ec760195f9054906101000a900473ffffffffffffffffffffffffffffffffffffffff16615d47565b85888561899d565b15617175577399d8a9c45b2eca8864373a26d1459e3dff1e17f373ffffffffffffffffffffffffffffffffffffffff166370a08231306040518263ffffffff1660e01b81526004016171219190619326565b602060405180830381865afa15801561713c573d5f5f3e3d5ffd5b505050506040513d601f19601f82011682018060405250810190617160919061982c565b8261716b9190619ff5565b935050505061791d565b6171e973d9e1ce17f2641f24ae83637ab66a2cca9c378b9f6171e17399d8a9c45b2eca8864373a26d1459e3dff1e17f373a0b86991c6218b36c1d19d4a2e9eb0ce3606eb4860195f9054906101000a900473ffffffffffffffffffffffffffffffffffffffff16615d47565b85888561899d565b1561728f577399d8a9c45b2eca8864373a26d1459e3dff1e17f373ffffffffffffffffffffffffffffffffffffffff166370a08231306040518263ffffffff1660e01b815260040161723b9190619326565b602060405180830381865afa158015617256573d5f5f3e3d5ffd5b505050506040513d601f19601f8201168201806040525081019061727a919061982c565b826172859190619ff5565b935050505061791d565b61730373d9e1ce17f2641f24ae83637ab66a2cca9c378b9f6172fb7399d8a9c45b2eca8864373a26d1459e3dff1e17f3736b175474e89094c44da98b954eedeac495271d0f60195f9054906101000a900473ffffffffffffffffffffffffffffffffffffffff16615d47565b85888561899d565b156173a9577399d8a9c45b2eca8864373a26d1459e3dff1e17f373ffffffffffffffffffffffffffffffffffffffff166370a08231306040518263ffffffff1660e01b81526004016173559190619326565b602060405180830381865afa158015617370573d5f5f3e3d5ffd5b505050506040513d601f19601f82011682018060405250810190617394919061982c565b8261739f9190619ff5565b935050505061791d565b617408737a250d5630b4cf539739df2c5dacb4c659f2488d6174007399d8a9c45b2eca8864373a26d1459e3dff1e17f360195f9054906101000a900473ffffffffffffffffffffffffffffffffffffffff16615b13565b85888561899d565b156174ae577399d8a9c45b2eca8864373a26d1459e3dff1e17f373ffffffffffffffffffffffffffffffffffffffff166370a08231306040518263ffffffff1660e01b815260040161745a9190619326565b602060405180830381865afa158015617475573d5f5f3e3d5ffd5b505050506040513d601f19601f82011682018060405250810190617499919061982c565b826174a49190619ff5565b935050505061791d565b617522737a250d5630b4cf539739df2c5dacb4c659f2488d61751a7399d8a9c45b2eca8864373a26d1459e3dff1e17f373c02aaa39b223fe8d0a0e5c4f27ead9083c756cc260195f9054906101000a900473ffffffffffffffffffffffffffffffffffffffff16615d47565b85888561899d565b156175c8577399d8a9c45b2eca8864373a26d1459e3dff1e17f373ffffffffffffffffffffffffffffffffffffffff166370a08231306040518263ffffffff1660e01b81526004016175749190619326565b602060405180830381865afa15801561758f573d5f5f3e3d5ffd5b505050506040513d601f19601f820116820180604052508101906175b3919061982c565b826175be9190619ff5565b935050505061791d565b61763c737a250d5630b4cf539739df2c5dacb4c659f2488d6176347399d8a9c45b2eca8864373a26d1459e3dff1e17f373dac17f958d2ee523a2206206994597c13d831ec760195f9054906101000a900473ffffffffffffffffffffffffffffffffffffffff16615d47565b85888561899d565b156176e2577399d8a9c45b2eca8864373a26d1459e3dff1e17f373ffffffffffffffffffffffffffffffffffffffff166370a08231306040518263ffffffff1660e01b815260040161768e9190619326565b602060405180830381865afa1580156176a9573d5f5f3e3d5ffd5b505050506040513d601f19601f820116820180604052508101906176cd919061982c565b826176d89190619ff5565b935050505061791d565b617756737a250d5630b4cf539739df2c5dacb4c659f2488d61774e7399d8a9c45b2eca8864373a26d1459e3dff1e17f373a0b86991c6218b36c1d19d4a2e9eb0ce3606eb4860195f9054906101000a900473ffffffffffffffffffffffffffffffffffffffff16615d47565b85888561899d565b156177fc577399d8a9c45b2eca8864373a26d1459e3dff1e17f373ffffffffffffffffffffffffffffffffffffffff166370a08231306040518263ffffffff1660e01b81526004016177a89190619326565b602060405180830381865afa1580156177c3573d5f5f3e3d5ffd5b505050506040513d601f19601f820116820180604052508101906177e7919061982c565b826177f29190619ff5565b935050505061791d565b617870737a250d5630b4cf539739df2c5dacb4c659f2488d6178687399d8a9c45b2eca8864373a26d1459e3dff1e17f3736b175474e89094c44da98b954eedeac495271d0f60195f9054906101000a900473ffffffffffffffffffffffffffffffffffffffff16615d47565b85888561899d565b15617916577399d8a9c45b2eca8864373a26d1459e3dff1e17f373ffffffffffffffffffffffffffffffffffffffff166370a08231306040518263ffffffff1660e01b81526004016178c29190619326565b602060405180830381865afa1580156178dd573d5f5f3e3d5ffd5b505050506040513d601f19601f82011682018060405250810190617901919061982c565b8261790c9190619ff5565b935050505061791d565b5f93505050505b919050565b5f5f8473ffffffffffffffffffffffffffffffffffffffff1663095ea7b360e01b858560405160240161795692919061a1f1565b604051602081830303815290604052907bffffffffffffffffffffffffffffffffffffffffffffffffffffffff19166020820180517bffffffffffffffffffffffffffffffffffffffffffffffffffffffff83818316178352505050506040516179c0919061a59f565b5f604051808303815f865af19150503d805f81146179f9576040519150601f19603f3d011682016040523d82523d5f602084013e6179fe565b606091505b5091509150818015617a2b57505f81511480617a2a575080806020019051810190617a29919061a269565b5b5b617a6a576040517f08c379a0000000000000000000000000000000000000000000000000000000008152600401617a619061acfb565b60405180910390fd5b5050505050565b5f5f5f5f5f5f5f5f8873ffffffffffffffffffffffffffffffffffffffff16630dfe168160e01b604051602401604051602081830303815290604052907bffffffffffffffffffffffffffffffffffffffffffffffffffffffff19166020820180517bffffffffffffffffffffffffffffffffffffffffffffffffffffffff8381831617835250505050604051617b08919061a59f565b5f60405180830381855afa9150503d805f8114617b40576040519150601f19603f3d011682016040523d82523d5f602084013e617b45565b606091505b50915091505f5f8a73ffffffffffffffffffffffffffffffffffffffff1663d21220a760e01b604051602401604051602081830303815290604052907bffffffffffffffffffffffffffffffffffffffffffffffffffffffff19166020820180517bffffffffffffffffffffffffffffffffffffffffffffffffffffffff8381831617835250505050604051617bdb919061a59f565b5f60405180830381855afa9150503d805f8114617c13576040519150601f19603f3d011682016040523d82523d5f602084013e617c18565b606091505b50915091505f5f8c73ffffffffffffffffffffffffffffffffffffffff16630902f1ac60e01b604051602401604051602081830303815290604052907bffffffffffffffffffffffffffffffffffffffffffffffffffffffff19166020820180517bffffffffffffffffffffffffffffffffffffffffffffffffffffffff8381831617835250505050604051617cae919061a59f565b5f60405180830381855afa9150503d805f8114617ce6576040519150601f19603f3d011682016040523d82523d5f602084013e617ceb565b606091505b50915091505f5f8e73ffffffffffffffffffffffffffffffffffffffff166318160ddd60e01b604051602401604051602081830303815290604052907bffffffffffffffffffffffffffffffffffffffffffffffffffffffff19166020820180517bffffffffffffffffffffffffffffffffffffffffffffffffffffffff8381831617835250505050604051617d81919061a59f565b5f60405180830381855afa9150503d805f8114617db9576040519150601f19603f3d011682016040523d82523d5f602084013e617dbe565b606091505b5091509150871580617dce575085155b80617dd7575083155b80617de0575081155b15617e04575f5f5f5f5f5f9d509d509d509d509d509d505050505050505050617f23565b602087511080617e15575060208551105b80617e21575060608351105b80617e2d575060208151105b15617e51575f5f5f5f5f5f9d509d509d509d509d509d505050505050505050617f23565b86806020019051810190617e65919061aad8565b9c5084806020019051810190617e7b919061aad8565b9b5082806020019051810190617e91919061ad95565b50809b50819c50505080806020019051810190617eae919061982c565b98505f73ffffffffffffffffffffffffffffffffffffffff168d73ffffffffffffffffffffffffffffffffffffffff1614158015617f1857505f73ffffffffffffffffffffffffffffffffffffffff168c73ffffffffffffffffffffffffffffffffffffffff1614155b9d5050505050505050505b91939550919395565b5f5f8314617f5d57600182600185617f449190619ff5565b617f4e919061ac81565b617f589190619884565b617f5f565b5f5b905092915050565b5f5f8373ffffffffffffffffffffffffffffffffffffffff166370a08231306040518263ffffffff1660e01b8152600401617fa29190619326565b602060405180830381865afa158015617fbd573d5f5f3e3d5ffd5b505050506040513d601f19601f82011682018060405250810190617fe1919061982c565b9050828110617ff45760019150506181b4565b7399d8a9c45b2eca8864373a26d1459e3dff1e17f373ffffffffffffffffffffffffffffffffffffffff168473ffffffffffffffffffffffffffffffffffffffff16036180d257827399d8a9c45b2eca8864373a26d1459e3dff1e17f373ffffffffffffffffffffffffffffffffffffffff166370a08231306040518263ffffffff1660e01b81526004016180899190619326565b602060405180830381865afa1580156180a4573d5f5f3e3d5ffd5b505050506040513d601f19601f820116820180604052508101906180c8919061982c565b10159150506181b4565b5f7399d8a9c45b2eca8864373a26d1459e3dff1e17f373ffffffffffffffffffffffffffffffffffffffff166370a08231306040518263ffffffff1660e01b81526004016181209190619326565b602060405180830381865afa15801561813b573d5f5f3e3d5ffd5b505050506040513d601f19601f8201168201806040525081019061815f919061982c565b905067016345785d8a0000811161817a575f925050506181b4565b5f67016345785d8a00008261818f9190619ff5565b90505f81036181a3575f93505050506181b4565b6181ae868683618b05565b93505050505b92915050565b5f5f73ffffffffffffffffffffffffffffffffffffffff16601a5f9054906101000a900473ffffffffffffffffffffffffffffffffffffffff1673ffffffffffffffffffffffffffffffffffffffff161480618283575060195f9054906101000a900473ffffffffffffffffffffffffffffffffffffffff1673ffffffffffffffffffffffffffffffffffffffff16601a5f9054906101000a900473ffffffffffffffffffffffffffffffffffffffff1673ffffffffffffffffffffffffffffffffffffffff16145b15618290575f905061876b565b5f601a5f9054906101000a900473ffffffffffffffffffffffffffffffffffffffff1673ffffffffffffffffffffffffffffffffffffffff166370a08231306040518263ffffffff1660e01b81526004016182eb9190619326565b602060405180830381865afa158015618306573d5f5f3e3d5ffd5b505050506040513d601f19601f8201168201806040525081019061832a919061982c565b90505f810361833c575f91505061876b565b618389601a5f9054906101000a900473ffffffffffffffffffffffffffffffffffffffff1660195f9054906101000a900473ffffffffffffffffffffffffffffffffffffffff1683615a6e565b5f60195f9054906101000a900473ffffffffffffffffffffffffffffffffffffffff1673ffffffffffffffffffffffffffffffffffffffff166370a08231306040518263ffffffff1660e01b81526004016183e49190619326565b602060405180830381865afa1580156183ff573d5f5f3e3d5ffd5b505050506040513d601f19601f82011682018060405250810190618423919061982c565b90506184bc8260405160240161843991906194e6565b6040516020818303038152906040527fa59f3e0c000000000000000000000000000000000000000000000000000000007bffffffffffffffffffffffffffffffffffffffffffffffffffffffff19166020820180517bffffffffffffffffffffffffffffffffffffffffffffffffffffffff83818316178352505050508261905b565b925082156184cf5760019250505061876b565b618566826040516024016184e391906194e6565b6040516020818303038152906040527fea598cb0000000000000000000000000000000000000000000000000000000007bffffffffffffffffffffffffffffffffffffffffffffffffffffffff19166020820180517bffffffffffffffffffffffffffffffffffffffffffffffffffffffff83818316178352505050508261905b565b925082156185795760019250505061876b565b618612823060405160240161858f92919061ade5565b6040516020818303038152906040527f6e553f65000000000000000000000000000000000000000000000000000000007bffffffffffffffffffffffffffffffffffffffffffffffffffffffff19166020820180517bffffffffffffffffffffffffffffffffffffffffffffffffffffffff83818316178352505050508261905b565b925082156186255760019250505061876b565b6186bc8260405160240161863991906194e6565b6040516020818303038152906040527fb6b55f25000000000000000000000000000000000000000000000000000000007bffffffffffffffffffffffffffffffffffffffffffffffffffffffff19166020820180517bffffffffffffffffffffffffffffffffffffffffffffffffffffffff83818316178352505050508261905b565b925082156186cf5760019250505061876b565b618766826040516024016186e391906194e6565b6040516020818303038152906040527fa694fc3a000000000000000000000000000000000000000000000000000000007bffffffffffffffffffffffffffffffffffffffffffffffffffffffff19166020820180517bffffffffffffffffffffffffffffffffffffffffffffffffffffffff83818316178352505050508261905b565b925050505b90565b5f5f82148061877e575060028451105b806187f5575083600185516187939190619ff5565b815181106187a4576187a361a364565b5b602002602001015173ffffffffffffffffffffffffffffffffffffffff16845f815181106187d5576187d461a364565b5b602002602001015173ffffffffffffffffffffffffffffffffffffffff16145b15618802575f9050618995565b5f8373ffffffffffffffffffffffffffffffffffffffff166370a08231306040518263ffffffff1660e01b815260040161883c9190619326565b602060405180830381865afa158015618857573d5f5f3e3d5ffd5b505050506040513d601f19601f8201168201806040525081019061887b919061982c565b90508573ffffffffffffffffffffffffffffffffffffffff166338ed1739845f8830426040518663ffffffff1660e01b81526004016188be95949392919061ae0c565b5f604051808303815f875af19250505080156188fc57506040513d5f823e3d601f19601f820116820180604052508101906188f9919061ac0d565b60015b618908575f9150618993565b5f81511415801561898f5750818573ffffffffffffffffffffffffffffffffffffffff166370a08231306040518263ffffffff1660e01b815260040161894e9190619326565b602060405180830381865afa158015618969573d5f5f3e3d5ffd5b505050506040513d601f19601f8201168201806040525081019061898d919061982c565b115b9250505b505b949350505050565b5f5f8314806189ab57505f82145b156189b8575f9050618afc565b8573ffffffffffffffffffffffffffffffffffffffff16638803dbee84848830426040518663ffffffff1660e01b81526004016189f995949392919061ae64565b5f604051808303815f875af1925050508015618a3757506040513d5f823e3d601f19601f82011682018060405250810190618a34919061ac0d565b60015b618a43575f9050618afb565b5f815114158015618af757508385618a5b9190619884565b60195f9054906101000a900473ffffffffffffffffffffffffffffffffffffffff1673ffffffffffffffffffffffffffffffffffffffff166370a08231306040518263ffffffff1660e01b8152600401618ab59190619326565b602060405180830381865afa158015618ad0573d5f5f3e3d5ffd5b505050506040513d601f19601f82011682018060405250810190618af4919061982c565b10155b9150505b5b95945050505050565b5f5f8303618b165760019050619054565b5f8473ffffffffffffffffffffffffffffffffffffffff166370a08231306040518263ffffffff1660e01b8152600401618b509190619326565b602060405180830381865afa158015618b6b573d5f5f3e3d5ffd5b505050506040513d601f19601f82011682018060405250810190618b8f919061982c565b9050838110618ba2576001915050619054565b5f8185618baf9190619ff5565b90507399d8a9c45b2eca8864373a26d1459e3dff1e17f373ffffffffffffffffffffffffffffffffffffffff168673ffffffffffffffffffffffffffffffffffffffff1603618c9057847399d8a9c45b2eca8864373a26d1459e3dff1e17f373ffffffffffffffffffffffffffffffffffffffff166370a08231306040518263ffffffff1660e01b8152600401618c469190619326565b602060405180830381865afa158015618c61573d5f5f3e3d5ffd5b505050506040513d601f19601f82011682018060405250810190618c85919061982c565b101592505050619054565b618ccf73d9e1ce17f2641f24ae83637ab66a2cca9c378b9f618cc67399d8a9c45b2eca8864373a26d1459e3dff1e17f389615b13565b88858589619192565b15618cdf57600192505050619054565b618d3373d9e1ce17f2641f24ae83637ab66a2cca9c378b9f618d2a7399d8a9c45b2eca8864373a26d1459e3dff1e17f373c02aaa39b223fe8d0a0e5c4f27ead9083c756cc28a615d47565b88858589619192565b15618d4357600192505050619054565b618d9773d9e1ce17f2641f24ae83637ab66a2cca9c378b9f618d8e7399d8a9c45b2eca8864373a26d1459e3dff1e17f373dac17f958d2ee523a2206206994597c13d831ec78a615d47565b88858589619192565b15618da757600192505050619054565b618dfb73d9e1ce17f2641f24ae83637ab66a2cca9c378b9f618df27399d8a9c45b2eca8864373a26d1459e3dff1e17f373a0b86991c6218b36c1d19d4a2e9eb0ce3606eb488a615d47565b88858589619192565b15618e0b57600192505050619054565b618e5f73d9e1ce17f2641f24ae83637ab66a2cca9c378b9f618e567399d8a9c45b2eca8864373a26d1459e3dff1e17f3736b175474e89094c44da98b954eedeac495271d0f8a615d47565b88858589619192565b15618e6f57600192505050619054565b618eae737a250d5630b4cf539739df2c5dacb4c659f2488d618ea57399d8a9c45b2eca8864373a26d1459e3dff1e17f389615b13565b88858589619192565b15618ebe57600192505050619054565b618f12737a250d5630b4cf539739df2c5dacb4c659f2488d618f097399d8a9c45b2eca8864373a26d1459e3dff1e17f373c02aaa39b223fe8d0a0e5c4f27ead9083c756cc28a615d47565b88858589619192565b15618f2257600192505050619054565b618f76737a250d5630b4cf539739df2c5dacb4c659f2488d618f6d7399d8a9c45b2eca8864373a26d1459e3dff1e17f373dac17f958d2ee523a2206206994597c13d831ec78a615d47565b88858589619192565b15618f8657600192505050619054565b618fda737a250d5630b4cf539739df2c5dacb4c659f2488d618fd17399d8a9c45b2eca8864373a26d1459e3dff1e17f373a0b86991c6218b36c1d19d4a2e9eb0ce3606eb488a615d47565b88858589619192565b15618fea57600192505050619054565b61903e737a250d5630b4cf539739df2c5dacb4c659f2488d6190357399d8a9c45b2eca8864373a26d1459e3dff1e17f3736b175474e89094c44da98b954eedeac495271d0f8a615d47565b88858589619192565b1561904e57600192505050619054565b5f925050505b9392505050565b5f60195f9054906101000a900473ffffffffffffffffffffffffffffffffffffffff1673ffffffffffffffffffffffffffffffffffffffff16836040516190a2919061a59f565b5f604051808303815f865af19150503d805f81146190db576040519150601f19603f3d011682016040523d82523d5f602084013e6190e0565b606091505b50508091505080801561918a57508160195f9054906101000a900473ffffffffffffffffffffffffffffffffffffffff1673ffffffffffffffffffffffffffffffffffffffff166370a08231306040518263ffffffff1660e01b81526004016191499190619326565b602060405180830381865afa158015619164573d5f5f3e3d5ffd5b505050506040513d601f19601f82011682018060405250810190619188919061982c565b115b905092915050565b5f5f8314806191a057505f82145b156191ad575f90506192d0565b8673ffffffffffffffffffffffffffffffffffffffff16638803dbee84848930426040518663ffffffff1660e01b81526004016191ee95949392919061ae64565b5f604051808303815f875af192505050801561922c57506040513d5f823e3d601f19601f82011682018060405250810190619229919061ac0d565b60015b619238575f90506192cf565b5f8151141580156192cb575083856192509190619884565b8673ffffffffffffffffffffffffffffffffffffffff166370a08231306040518263ffffffff1660e01b81526004016192899190619326565b602060405180830381865afa1580156192a4573d5f5f3e3d5ffd5b505050506040513d601f19601f820116820180604052508101906192c8919061982c565b10155b9150505b5b9695505050505050565b6102018061aebd83390190565b5f73ffffffffffffffffffffffffffffffffffffffff82169050919050565b5f619310826192e7565b9050919050565b61932081619306565b82525050565b5f6020820190506193395f830184619317565b92915050565b5f604051905090565b5f5ffd5b5f5ffd5b61935981619306565b8114619363575f5ffd5b50565b5f8135905061937481619350565b92915050565b5f819050919050565b61938c8161937a565b8114619396575f5ffd5b50565b5f813590506193a781619383565b92915050565b5f5ffd5b5f5ffd5b5f5ffd5b5f5f83601f8401126193ce576193cd6193ad565b5b8235905067ffffffffffffffff8111156193eb576193ea6193b1565b5b602083019150836001820283011115619407576194066193b5565b5b9250929050565b5f5f5f5f5f5f60a0878903121561942857619427619348565b5b5f61943589828a01619366565b965050602061944689828a01619366565b955050604061945789828a01619399565b945050606061946889828a01619399565b935050608087013567ffffffffffffffff8111156194895761948861934c565b5b61949589828a016193b9565b92509250509295509295509295565b5f8115159050919050565b6194b8816194a4565b82525050565b5f6020820190506194d15f8301846194af565b92915050565b6194e08161937a565b82525050565b5f6020820190506194f95f8301846194d7565b92915050565b5f819050919050565b619511816194ff565b82525050565b5f60208201905061952a5f830184619508565b92915050565b5f81519050919050565b5f82825260208201905092915050565b8281835e5f83830152505050565b5f601f19601f8301169050919050565b5f61957282619530565b61957c818561953a565b935061958c81856020860161954a565b61959581619558565b840191505092915050565b5f6020820190508181035f8301526195b88184619568565b905092915050565b5f82825260208201905092915050565b7f6261642d62656e746f00000000000000000000000000000000000000000000005f82015250565b5f6196046009836195c0565b915061960f826195d0565b602082019050919050565b5f6020820190508181035f830152619631816195f8565b9050919050565b7f6261642d73656e646572000000000000000000000000000000000000000000005f82015250565b5f61966c600a836195c0565b915061967782619638565b602082019050919050565b5f6020820190508181035f83015261969981619660565b9050919050565b7f6261642d746f6b656e00000000000000000000000000000000000000000000005f82015250565b5f6196d46009836195c0565b91506196df826196a0565b602082019050919050565b5f6020820190508181035f830152619701816196c8565b9050919050565b7f4e487b71000000000000000000000000000000000000000000000000000000005f52602260045260245ffd5b5f600282049050600182168061974c57607f821691505b60208210810361975f5761975e619708565b5b50919050565b5f819050919050565b5f61978861978361977e846192e7565b619765565b6192e7565b9050919050565b5f6197998261976e565b9050919050565b5f6197aa8261978f565b9050919050565b6197ba816197a0565b82525050565b5f60a0820190506197d35f8301886197b1565b6197e06020830187619317565b6197ed6040830186619317565b6197fa60608301856194d7565b818103608083015261980c8184619568565b90509695505050505050565b5f8151905061982681619383565b92915050565b5f6020828403121561984157619840619348565b5b5f61984e84828501619818565b91505092915050565b7f4e487b71000000000000000000000000000000000000000000000000000000005f52601160045260245ffd5b5f61988e8261937a565b91506198998361937a565b92508282019050808211156198b1576198b0619857565b5b92915050565b7f696e73756666696369656e742d636f6c6c61746572616c2d72657061790000005f82015250565b5f6198eb601d836195c0565b91506198f6826198b7565b602082019050919050565b5f6020820190508181035f830152619918816198df565b9050919050565b7f756e65787065637465642d6d696d2d666c6173680000000000000000000000005f82015250565b5f6199536014836195c0565b915061995e8261991f565b602082019050919050565b5f6020820190508181035f83015261998081619947565b9050919050565b5f819050919050565b5f6199aa6199a56199a084619987565b619765565b61937a565b9050919050565b6199ba81619990565b82525050565b5f60a0820190506199d35f830188619317565b6199e06020830187619317565b6199ed6040830186619317565b6199fa60608301856194d7565b619a0760808301846199b1565b9695505050505050565b5f5f60408385031215619a2757619a26619348565b5b5f619a3485828601619818565b9250506020619a4585828601619818565b9150509250929050565b7f7a65726f2d6d696d2d736565642d7368617265000000000000000000000000005f82015250565b5f619a836013836195c0565b9150619a8e82619a4f565b602082019050919050565b5f6020820190508181035f830152619ab081619a77565b9050919050565b7f696e73756666696369656e742d6d696d2d6665650000000000000000000000005f82015250565b5f619aeb6014836195c0565b9150619af682619ab7565b602082019050919050565b5f6020820190508181035f830152619b1881619adf565b9050919050565b5f81519050619b2d81619350565b92915050565b5f60208284031215619b4857619b47619348565b5b5f619b5584828501619b1f565b91505092915050565b5f5ffd5b7f4e487b71000000000000000000000000000000000000000000000000000000005f52604160045260245ffd5b619b9882619558565b810181811067ffffffffffffffff82111715619bb757619bb6619b62565b5b80604052505050565b5f619bc961933f565b9050619bd58282619b8f565b919050565b5f67ffffffffffffffff821115619bf457619bf3619b62565b5b619bfd82619558565b9050602081019050919050565b5f619c1c619c1784619bda565b619bc0565b905082815260208101848484011115619c3857619c37619b5e565b5b619c4384828561954a565b509392505050565b5f82601f830112619c5f57619c5e6193ad565b5b8151619c6f848260208601619c0a565b91505092915050565b5f60208284031215619c8d57619c8c619348565b5b5f82015167ffffffffffffffff811115619caa57619ca961934c565b5b619cb684828501619c4b565b91505092915050565b5f819050815f5260205f209050919050565b5f6020601f8301049050919050565b5f82821b905092915050565b5f60088302619d1b7fffffffffffffffffffffffffffffffffffffffffffffffffffffffffffffffff82619ce0565b619d258683619ce0565b95508019841693508086168417925050509392505050565b5f619d57619d52619d4d8461937a565b619765565b61937a565b9050919050565b5f819050919050565b619d7083619d3d565b619d84619d7c82619d5e565b848454619cec565b825550505050565b5f5f905090565b619d9b619d8c565b619da6818484619d67565b505050565b5b81811015619dc957619dbe5f82619d93565b600181019050619dac565b5050565b601f821115619e0e57619ddf81619cbf565b619de884619cd1565b81016020851015619df7578190505b619e0b619e0385619cd1565b830182619dab565b50505b505050565b5f82821c905092915050565b5f619e2e5f1984600802619e13565b1980831691505092915050565b5f619e468383619e1f565b9150826002028217905092915050565b619e5f82619530565b67ffffffffffffffff811115619e7857619e77619b62565b5b619e828254619735565b619e8d828285619dcd565b5f60209050601f831160018114619ebe575f8415619eac578287015190505b619eb68582619e3b565b865550619f1d565b601f198416619ecc86619cbf565b5f5b82811015619ef357848901518255600182019150602085019450602081019050619ece565b86831015619f105784890151619f0c601f891682619e1f565b8355505b6001600288020188555050505b505050505050565b619f2e816194a4565b8114619f38575f5ffd5b50565b5f81519050619f4981619f25565b92915050565b5f5f60408385031215619f6557619f64619348565b5b5f619f7285828601619f3b565b9250506020619f8385828601619818565b9150509250929050565b7f7a65726f2d726174652d6e6f742d6361636865640000000000000000000000005f82015250565b5f619fc16014836195c0565b9150619fcc82619f8d565b602082019050919050565b5f6020820190508181035f830152619fee81619fb5565b9050919050565b5f619fff8261937a565b915061a00a8361937a565b925082820390508181111561a0225761a021619857565b5b92915050565b7f636f6c6c61746572616c2d6665652d746f6f2d6c6172676500000000000000005f82015250565b5f61a05c6018836195c0565b915061a0678261a028565b602082019050919050565b5f6020820190508181035f83015261a0898161a050565b9050919050565b7f647573742d73686172652d7a65726f00000000000000000000000000000000005f82015250565b5f61a0c4600f836195c0565b915061a0cf8261a090565b602082019050919050565b5f6020820190508181035f83015261a0f18161a0b8565b9050919050565b5f60608201905061a10b5f830186619317565b61a11860208301856194af565b61a12560408301846194d7565b949350505050565b5f60408201905061a1405f830185619317565b61a14d6020830184619317565b9392505050565b5f60608201905061a1675f830186619317565b61a17460208301856194d7565b61a18160408301846194af565b949350505050565b7f6e6f2d6d696d2d6c6971756964697479000000000000000000000000000000005f82015250565b5f61a1bd6010836195c0565b915061a1c88261a189565b602082019050919050565b5f6020820190508181035f83015261a1ea8161a1b1565b9050919050565b5f60408201905061a2045f830185619317565b61a21160208301846194d7565b9392505050565b5f60a08201905061a22b5f830188619317565b61a2386020830187619317565b61a2456040830186619317565b61a25260608301856199b1565b61a25f60808301846194d7565b9695505050505050565b5f6020828403121561a27e5761a27d619348565b5b5f61a28b84828501619f3b565b91505092915050565b7f72656d6f76652d636f6c6c61746572616c2d73746167652d6d697373656400005f82015250565b5f61a2c8601e836195c0565b915061a2d38261a294565b602082019050919050565b5f6020820190508181035f83015261a2f58161a2bc565b9050919050565b7f636f6c6c61746572616c2d746f7075702d6661696c65640000000000000000005f82015250565b5f61a3306017836195c0565b915061a33b8261a2fc565b602082019050919050565b5f6020820190508181035f83015261a35d8161a324565b9050919050565b7f4e487b71000000000000000000000000000000000000000000000000000000005f52603260045260245ffd5b5f81519050919050565b5f82825260208201905092915050565b5f819050602082019050919050565b61a3c381619306565b82525050565b5f61a3d4838361a3ba565b60208301905092915050565b5f602082019050919050565b5f61a3f68261a391565b61a400818561a39b565b935061a40b8361a3ab565b805f5b8381101561a43b57815161a422888261a3c9565b975061a42d8361a3e0565b92505060018101905061a40e565b5085935050505092915050565b5f81519050919050565b5f82825260208201905092915050565b5f819050602082019050919050565b61a47a8161937a565b82525050565b5f61a48b838361a471565b60208301905092915050565b5f602082019050919050565b5f61a4ad8261a448565b61a4b7818561a452565b935061a4c28361a462565b805f5b8381101561a4f257815161a4d9888261a480565b975061a4e48361a497565b92505060018101905061a4c5565b5085935050505092915050565b5f60a0820190508181035f83015261a517818861a3ec565b9050818103602083015261a52b818761a4a3565b905061a53a6040830186619317565b61a5476060830185619317565b818103608083015261a5598184619568565b90509695505050505050565b5f81905092915050565b5f61a57982619530565b61a583818561a565565b935061a59381856020860161954a565b80840191505092915050565b5f61a5aa828461a56f565b915081905092915050565b7f6c69717569646174696f6e2d6e6f742d626c6f636b65640000000000000000005f82015250565b5f61a5e96017836195c0565b915061a5f48261a5b5565b602082019050919050565b5f6020820190508181035f83015261a6168161a5dd565b9050919050565b7f7472616e736665722d6661696c656400000000000000000000000000000000005f82015250565b5f61a651600f836195c0565b915061a65c8261a61d565b602082019050919050565b5f6020820190508181035f83015261a67e8161a645565b9050919050565b5f61a68f8261937a565b91507fffffffffffffffffffffffffffffffffffffffffffffffffffffffffffffffff820361a6c15761a6c0619857565b5b600182019050919050565b5f815461a6d881619735565b61a6e2818661953a565b9450600182165f811461a6fc576001811461a7125761a744565b60ff19831686528115156020028601935061a744565b61a71b85619cbf565b5f5b8381101561a73c5781548189015260018201915060208101905061a71d565b808801955050505b50505092915050565b5f6020820190508181035f83015261a765818461a6cc565b905092915050565b7f6d697373696e672d6d61737465720000000000000000000000000000000000005f82015250565b5f61a7a1600e836195c0565b915061a7ac8261a76d565b602082019050919050565b5f6020820190508181035f83015261a7ce8161a795565b9050919050565b5f67ffffffffffffffff82169050919050565b61a7f18161a7d5565b82525050565b5f60e08201905061a80a5f83018a619317565b61a8176020830189619317565b818103604083015261a8298188619568565b905061a838606083018761a7e8565b61a84560808301866194d7565b61a85260a08301856194d7565b61a85f60c08301846194d7565b98975050505050505050565b5f60608201905061a87e5f830186619317565b818103602083015261a8908185619568565b905061a89f60408301846194af565b949350505050565b7f636c6f6e652d6465706c6f792d6661696c6564000000000000000000000000005f82015250565b5f61a8db6013836195c0565b915061a8e68261a8a7565b602082019050919050565b5f6020820190508181035f83015261a9088161a8cf565b9050919050565b7f696e69742d7a65726f2d726174652d6d697373696e67000000000000000000005f82015250565b5f61a9436016836195c0565b915061a94e8261a90f565b602082019050919050565b5f6020820190508181035f83015261a9708161a937565b9050919050565b5f61a9818261937a565b915061a98c8361937a565b925082820261a99a8161937a565b9150828204841483151761a9b15761a9b0619857565b5b5092915050565b5f67ffffffffffffffff82111561a9d25761a9d1619b62565b5b61a9db82619558565b9050602081019050919050565b5f61a9fa61a9f58461a9b8565b619bc0565b90508281526020810184848401111561aa165761aa15619b5e565b5b61aa2184828561954a565b509392505050565b5f82601f83011261aa3d5761aa3c6193ad565b5b815161aa4d84826020860161a9e8565b91505092915050565b5f6020828403121561aa6b5761aa6a619348565b5b5f82015167ffffffffffffffff81111561aa885761aa8761934c565b5b61aa948482850161aa29565b91505092915050565b5f61aaa7826192e7565b9050919050565b61aab78161aa9d565b811461aac1575f5ffd5b50565b5f8151905061aad28161aaae565b92915050565b5f6020828403121561aaed5761aaec619348565b5b5f61aafa8482850161aac4565b91505092915050565b5f60808201905061ab165f8301876199b1565b818103602083015261ab28818661a3ec565b905061ab376040830185619317565b61ab4460608301846194d7565b95945050505050565b5f67ffffffffffffffff82111561ab675761ab66619b62565b5b602082029050602081019050919050565b5f61ab8a61ab858461ab4d565b619bc0565b9050808382526020820190506020840283018581111561abad5761abac6193b5565b5b835b8181101561abd6578061abc28882619818565b84526020840193505060208101905061abaf565b5050509392505050565b5f82601f83011261abf45761abf36193ad565b5b815161ac0484826020860161ab78565b91505092915050565b5f6020828403121561ac225761ac21619348565b5b5f82015167ffffffffffffffff81111561ac3f5761ac3e61934c565b5b61ac4b8482850161abe0565b91505092915050565b7f4e487b71000000000000000000000000000000000000000000000000000000005f52601260045260245ffd5b5f61ac8b8261937a565b915061ac968361937a565b92508261aca65761aca561ac54565b5b828204905092915050565b7f617070726f76652d6661696c65640000000000000000000000000000000000005f82015250565b5f61ace5600e836195c0565b915061acf08261acb1565b602082019050919050565b5f6020820190508181035f83015261ad128161acd9565b9050919050565b5f6dffffffffffffffffffffffffffff82169050919050565b61ad3b8161ad19565b811461ad45575f5ffd5b50565b5f8151905061ad568161ad32565b92915050565b5f63ffffffff82169050919050565b61ad748161ad5c565b811461ad7e575f5ffd5b50565b5f8151905061ad8f8161ad6b565b92915050565b5f5f5f6060848603121561adac5761adab619348565b5b5f61adb98682870161ad48565b935050602061adca8682870161ad48565b925050604061addb8682870161ad81565b9150509250925092565b5f60408201905061adf85f8301856194d7565b61ae056020830184619317565b9392505050565b5f60a08201905061ae1f5f8301886194d7565b61ae2c60208301876199b1565b818103604083015261ae3e818661a3ec565b905061ae4d6060830185619317565b61ae5a60808301846194d7565b9695505050505050565b5f60a08201905061ae775f8301886194d7565b61ae8460208301876194d7565b818103604083015261ae96818661a3ec565b905061aea56060830185619317565b61aeb260808301846194d7565b969550505050505056fe6080604052348015600e575f5ffd5b506101e58061001c5f395ff3fe608060405234801561000f575f5ffd5b5060043610610029575f3560e01c8063d6d7d5251461002d575b5f5ffd5b6100476004803603810190610042919061010b565b61005e565b604051610055929190610188565b60405180910390f35b5f5f5f90505f5f9054906101000a900460ff166100965760015f5f6101000a81548160ff0219169083151502179055505f915061009b565b600191505b9250929050565b5f5ffd5b5f5ffd5b5f5ffd5b5f5ffd5b5f5ffd5b5f5f83601f8401126100cb576100ca6100aa565b5b8235905067ffffffffffffffff8111156100e8576100e76100ae565b5b602083019150836001820283011115610104576101036100b2565b5b9250929050565b5f5f60208385031215610121576101206100a2565b5b5f83013567ffffffffffffffff81111561013e5761013d6100a6565b5b61014a858286016100b6565b92509250509250929050565b5f8115159050919050565b61016a81610156565b82525050565b5f819050919050565b61018281610170565b82525050565b5f60408201905061019b5f830185610161565b6101a86020830184610179565b939250505056fea26469706673582212206704180348f0a5349cecbe4119e1e80d47a092f94acea42c4dafb81fb9e9c6db64736f6c634300081e0033a264697066735822122043ec788272933ca139545e83bf5b3ac8162c6554f40df6bfdabd0a55f9ec83ec64736f6c634300081e0033","linkReferences":{}},"methodIdentifiers":{"DAI()":"e0bab4c4","MIM()":"daec383d","SUSHI_ROUTER()":"0c24f4fa","TARGET_CAULDRON()":"bd7a598c","UNISWAP_V2_ROUTER()":"a82ed9ec","USDC()":"89a30271","USDT()":"c54e44eb","WETH()":"ad5c4648","activeCauldron()":"981c88f7","addCollateralStageReached()":"8469ff16","bentoBoxAddress()":"eb77ff0f","borrowStageReached()":"7c27e19f","borrowedMimAmount()":"e7cda06d","borrowedMimShare()":"6208fdd8","collateralDepositAmount()":"72ea4809","collateralLeaveShare()":"e2708ebb","collateralLpDetected()":"f9d3cc05","collateralLpToken0()":"dbe7b09f","collateralLpToken1()":"f1f361a4","collateralShareAdded()":"4071084d","collateralToken()":"b2016bd4","collateralTopUpAmount()":"a3bb46dd","collateralTopUpSpentMim()":"5bf39ab9","directOracleRate()":"6d02b5ca","directOracleSuccess()":"a8b81f55","execute()":"61461954","executeOnOpportunity()":"3c2448ed","exploit()":"63d9b770","feeBufferBought()":"d87bf97f","flashCollateralAmount()":"892d0bd2","flashCollateralFee()":"5a6e402b","flashMimAmount()":"e6687f05","flashMimFee()":"4af5e4e6","grossMimBalance()":"95458914","hypothesisRefuted()":"495f92f1","hypothesisValidated()":"463defd1","infeasibleReason()":"a6652157","liquidateStageReached()":"9348a238","liquidationBlocked()":"b7021f77","liveTargetCachedZero()":"b40d2e98","liveTargetInitPathOnly()":"cf30cf7b","liveTargetUpdateZeroWorked()":"ace5cb58","liveTargetZeroRateMissing()":"ea544593","liveUpdateRate()":"de02cfdf","liveUpdateReturnedUpdated()":"fcafc319","liveUpdateWorked()":"8f310cf0","mimLiquiditySeededShare()":"810c7a40","onFlashLoan(address,address,uint256,uint256,bytes)":"23e30c8b","oracleAddress()":"a89ae4ba","oracleDataBlob()":"e3fc037b","oracleStageReached()":"e8c28fee","path0LiveOracleZeroObserved()":"552fd94a","path1ZeroExchangeRateCached()":"62d2c266","path2DustCollateralAddedAndBorrowed()":"37fc9399","path3ResidualCollateralBlocksLiquidation()":"69ffcac6","postBorrowSolvent()":"d5b5a557","profitAmount()":"5ff972cc","profitToken()":"49343624","removeCollateralStageReached()":"8594a2fb","run()":"c0406226","selectedTarget()":"2edf00fb","stage_add_collateral()":"cde2facd","stage_block_liquidation()":"4e8554f3","stage_borrow()":"3f28ccea","stage_remove_collateral()":"72915d1e","stage_update_rate()":"fb309520","underlyingToken()":"2495a599","updateRateStageReached()":"a539b246","usedLiveTarget()":"5a41b82a","usedValidationClone()":"2759f2f1","validationClone()":"370be116","zeroOracle()":"22cb9ca3"},"id":0}