{"abi":[{"type":"constructor","inputs":[],"stateMutability":"nonpayable"},{"type":"function","name":"TARGET","inputs":[],"outputs":[{"name":"","type":"address","internalType":"address"}],"stateMutability":"view"},{"type":"function","name":"attempted","inputs":[],"outputs":[{"name":"","type":"bool","internalType":"bool"}],"stateMutability":"view"},{"type":"function","name":"executeDirectAttempt","inputs":[{"name":"collateralAsset","type":"address","internalType":"address"},{"name":"collateralAmount","type":"uint256","internalType":"uint256"}],"outputs":[{"name":"","type":"bool","internalType":"bool"}],"stateMutability":"nonpayable"},{"type":"function","name":"executeOnOpportunity","inputs":[],"outputs":[],"stateMutability":"nonpayable"},{"type":"function","name":"profitAmount","inputs":[],"outputs":[{"name":"","type":"uint256","internalType":"uint256"}],"stateMutability":"view"},{"type":"function","name":"profitToken","inputs":[],"outputs":[{"name":"","type":"address","internalType":"address"}],"stateMutability":"view"},{"type":"error","name":"NoExecutablePath","inputs":[]}],"bytecode":{"object":"0x6080806040523460155761119f908161001a8239f35b5f80fdfe6080806040526004361015610012575f80fd5b5f905f3560e01c908163063f4c431461010f575080633c2448ed146100f357806349343624146100ca5780635ff972cc146100ac578063917f51b41461008a5763cc1f2afa14610060575f80fd5b3461008757806003193601126100875760206040515f51602061114a5f395f51905f528152f35b80fd5b503461008757806003193601126100875760ff60209154166040519015158152f35b50346100875780600319360112610087576020600254604051908152f35b50346100875780600319360112610087576001546040516001600160a01b039091168152602090f35b503461008757806003193601126100875761010c610426565b80f35b905034610315576040366003190112610315576004356001600160a01b03811680820361031557602435923033036103965750604051630150a5d760e21b81526020816004815f51602061114a5f395f51905f525afa90811561030a575f91610353575b50604051631f94a27560e31b815290602090829060049082906001600160a01b03165afa90811561030a575f91610319575b505f546101bd9060081c6001600160a01b031661076a565b916101c78461076a565b9461020960405163095ea7b360e01b60208201525f51602061114a5f395f51905f5260248201525f6044820152604481526102036064826103c4565b86610b72565b61024460405163095ea7b360e01b60208201525f51602061114a5f395f51905f526024820152826044820152604481526102036064826103c4565b5f51602061114a5f395f51905f523b15610315576040519163617ba03760e01b8352600483015260248201523060448201525f60648201525f81608481835f51602061114a5f395f51905f525af1801561030a576102f5575b506102b29083906001600160a01b03166107fa565b156102e65792546102d7936102d29160081c6001600160a01b03166108b2565b6108b2565b60206002541515604051908152f35b63a495385f60e01b8452600484fd5b6103029195505f906103c4565b5f938261029d565b6040513d5f823e3d90fd5b5f80fd5b90506020813d60201161034b575b81610334602093836103c4565b8101031261031557610345906103fa565b5f6101a5565b3d9150610327565b90506020813d60201161038e575b8161036e602093836103c4565b8101031261031557516001600160a01b0381168103610315576020610173565b3d9150610361565b62461bcd60e51b815260206004820152600960248201526873656c662d6f6e6c7960b81b6044820152606490fd5b90601f8019910116810190811067ffffffffffffffff8211176103e657604052565b634e487b7160e01b5f52604160045260245ffd5b51906001600160a01b038216820361031557565b90816020910312610315575180151581036103155790565b5f5460ff811661073157600160ff19821681175f5590610100600160a81b0361044d6109fc565b60081b16906affffffffffffffffffffff60a81b161717805f5560018060a01b039060081c1690811561072d576040516334651b6f60e21b81525f9182919082826004815f51602061114a5f395f51905f525afa91821561030a575f92610709575b505f5b8251811015610674576001600160a01b036104cd82856109a5565b51168015801561066b575b8015610662575b6105785760405163c44b11f760e01b8152600481018290526020816024815f51602061114a5f395f51905f525afa90811561030a575f91610634575b5051600f8160a81c1615808091610625575b80610617575b80610609575b806105fc575b15918215610581575b5050610578576105578161076a565b9085821161056c575b50506001905b016104b2565b9550935060015f610560565b50600190610566565b909150816105eb575b816105db575b816105ca575b816105ba575b816105ab575b50155f80610548565b60019150603e1c16155f6105a2565b9050600181603c1c16159061059c565b9050600181603a1c16151590610596565b905060018160391c161590610590565b905060018160381c1615159061058a565b5061ffff8216151561053f565b50600182603c1c1615610539565b5060018260391c1615610533565b5060018260381c16151561052d565b610655915060203d811161065b575b61064d81836103c4565b8101906109cd565b5f61051b565b503d610643565b50803b156104df565b508681146104d8565b509350506001600160a01b039091169081158015610701575b6106fd576040519163063f4c4360e01b8352600483015260248201526020816044815f305af15f91816106cc575b506106c35750565b156106ca57565b565b6106ef91925060203d6020116106f6575b6106e781836103c4565b81019061040e565b905f6106bb565b503d6106dd565b5050565b50801561068d565b6107269192503d805f833e61071e81836103c4565b810190610918565b905f6104af565b9050565b60405162461bcd60e51b8152602060048201526011602482015270185b1c9958591e4b585d1d195b5c1d1959607a1b6044820152606490fd5b6001600160a01b0381169081159081156107f0575b506107eb576020602491604051928380926370a0823160e01b82523060048301525afa5f91816107b7575b506107b457505f90565b90565b9091506020813d6020116107e3575b816107d3602093836103c4565b810103126103155751905f6107aa565b3d91506107c6565b505f90565b90503b155f61077f565b906108115f51602061114a5f395f51905f52610c35565b9081156108ab576108318282855f51602061114a5f395f51905f52610cca565b6108a35761084e8282855f51602061114a5f395f51905f52610ded565b6108a35761086b8282855f51602061114a5f395f51905f52610e0e565b6108a3576108888282855f51602061114a5f395f51905f52610ead565b6108a3576107b4925f51602061114a5f395f51905f52610f4c565b505050600190565b5050505f90565b6108bb8161076a565b91808311156109135782039182116108ff5760025482116108da575050565b60018060a01b03166bffffffffffffffffffffffff60a01b6001541617600155600255565b634e487b7160e01b5f52601160045260245ffd5b505050565b6020818303126103155780519067ffffffffffffffff821161031557019080601f830112156103155781519167ffffffffffffffff83116103e6578260051b906040519361096960208401866103c4565b845260208085019282010192831161031557602001905b82821061098d5750505090565b6020809161099a846103fa565b815201910190610980565b80518210156109b95760209160051b010190565b634e487b7160e01b5f52603260045260245ffd5b9081602091031261031557604051906020820182811067ffffffffffffffff8211176103e65760405251815290565b6040516334651b6f60e21b81525f816004815f51602061114a5f395f51905f525afa90811561030a575f91610b58575b505f5b8151811015610b52576001600160a01b03610a4a82846109a5565b511680158015610b49575b610b405760405163c44b11f760e01b8152600481018290526020816024815f51602061114a5f395f51905f525afa90811561030a575f91610b22575b5051600f8160a81c16159081610b11575b81610b01575b81610af0575b81610ae0575b81610ad0575b50610aca57506001905b01610a2f565b91505090565b60019150603e1c1615155f610aba565b9050600181603c1c161590610ab4565b9050600181603a1c16151590610aae565b905060018160391c161590610aa8565b905060018160381c16151590610aa2565b610b3a915060203d811161065b5761064d81836103c4565b5f610a91565b50600190610ac4565b50803b15610a55565b50505f90565b610b6c91503d805f833e61071e81836103c4565b5f610a2c565b5f91829182602083519301915af13d15610c2e573d67ffffffffffffffff81116103e65760405190610bae601f8201601f1916602001836103c4565b81523d5f602083013e5b81610bff575b5015610bc657565b60405162461bcd60e51b81526020600482015260116024820152701d1bdad95b8b58d85b1b0b59985a5b1959607a1b6044820152606490fd5b8051801592508215610c14575b50505f610bbe565b610c27925060208091830101910161040e565b5f80610c0c565b6060610bb8565b604051632fe4a15f60e21b81523060048201529060e090829060249082906001600160a01b03165afa90811561030a575f91610c6f575090565b905060e0813d60e011610c99575b81610c8a60e093836103c4565b81010312610315576040015190565b3d9150610c7d565b6001600160a01b03918216815260208101929092525f6040830152909116606082015260800190565b9290925f93610ceb6103e860018060a01b035f5460081c1694858486610ffe565b928315610de3576001600160a01b03831693843b1561031557604051631d5d723760e01b8152915f9183918291610d289130919060048501610ca1565b038183885af1801561030a57610dc4575b508184606492610d4b610d5195610c35565b92610ffe565b8015610dbe57813b15610dba57918391610d849383604051809681958294631d5d723760e01b8452309160048501610ca1565b03925af18015610daf57610d9a575b5050600190565b610da58280926103c4565b6100875780610d93565b6040513d84823e3d90fd5b8380fd5b50505090565b606491955091610dd75f610d51946103c4565b845f9692505091610d39565b5050505050505f90565b9290925f93610ceb6101f460018060a01b035f5460081c1694858486610ffe565b9290925f93610e2e60fa60018060a01b035f5460081c1694858486610ffe565b928315610de3576001600160a01b03831693843b1561031557604051631d5d723760e01b8152915f9183918291610e6b9130919060048501610ca1565b038183885af1801561030a57610e8e575b508184603292610d4b610d5195610c35565b603291955091610ea15f610d51946103c4565b845f9692505091610e7c565b9290925f93610ecd606460018060a01b035f5460081c1694858486610ffe565b928315610de3576001600160a01b03831693843b1561031557604051631d5d723760e01b8152915f9183918291610f0a9130919060048501610ca1565b038183885af1801561030a57610f2d575b508184601992610d4b610d5195610c35565b601991955091610f405f610d51946103c4565b845f9692505091610f1b565b9290925f93610f6c603260018060a01b035f5460081c1694858486610ffe565b928315610de3576001600160a01b03831693843b1561031557604051631d5d723760e01b8152915f9183918291610fa99130919060048501610ca1565b038183885af1801561030a57610fcc575b508184600a92610d4b610d5195610c35565b600a91955091610fdf5f610d51946103c4565b845f9692505091610fba565b818102929181159184041417156108ff57565b60405163c44b11f760e01b81526001600160a01b0393841660048201819052929592949293909160209183916024918391165afa801561030a5760ff915f9161112a575b505160301c1692604d84116111215760405163b3596f0760e01b8152600481019190915293602090859060249082906001600160a01b03165afa93841561030a575f946110eb575b506127109161109891610feb565b04908215918280156110e3575b6110db576110b691600a0a90610feb565b906110c75704806107b45750600190565b634e487b7160e01b5f52601260045260245ffd5b505050505f90565b5080156110a5565b9093506020813d602011611119575b81611107602093836103c4565b8101031261031557519261271061108a565b3d91506110fa565b50505050505f90565b611143915060203d60201161065b5761064d81836103c4565b5f61104256fe000000000000000000000000638a98bbb92a7582d07c52ff407d49664dc8b3eea26469706673582212206d4aad284b561178c8b1dab8ca779d5d97f6e9869130296df94553a462404ec564736f6c634300081e0033","linkReferences":{}},"methodIdentifiers":{"TARGET()":"cc1f2afa","attempted()":"917f51b4","executeDirectAttempt(address,uint256)":"063f4c43","executeOnOpportunity()":"3c2448ed","profitAmount()":"5ff972cc","profitToken()":"49343624"},"id":0}