{"abi":[{"type":"constructor","inputs":[{"name":"attacker_","type":"address","internalType":"address"}],"stateMutability":"nonpayable"},{"type":"function","name":"attacker","inputs":[],"outputs":[{"name":"","type":"address","internalType":"address"}],"stateMutability":"view"},{"type":"function","name":"delegatedTransferERC20","inputs":[{"name":"","type":"address","internalType":"address"},{"name":"","type":"address","internalType":"address"},{"name":"","type":"uint256","internalType":"uint256"}],"outputs":[],"stateMutability":"nonpayable"},{"type":"function","name":"owner","inputs":[],"outputs":[{"name":"","type":"address","internalType":"address"}],"stateMutability":"view"}],"bytecode":{"object":"0x60a034606457601f61017b38819003918201601f19168301916001600160401b03831184841017606857808492602094604052833981010312606457516001600160a01b038116810360645760805260405160fe908161007d82396080518160990152f35b5f80fd5b634e487b7160e01b5f52604160045260245ffdfe608060405260043610156010575f80fd5b5f3560e01c80632e88fb9714603a57806348eb76ee14603657638da5cb5b146036575f80fd5b6086565b346058576060366003190112605857604f605c565b5060566071565b005b5f80fd5b600435906001600160a01b0382168203605857565b602435906001600160a01b0382168203605857565b346058575f3660031901126058576040517f00000000000000000000000000000000000000000000000000000000000000006001600160a01b03168152602090f3fea264697066735822122007dd65867bdaa68cb986c8428caedf3d9461bbf7115b4a96db0b0c0ba09f5c8964736f6c634300081e0033","linkReferences":{}},"methodIdentifiers":{"attacker()":"48eb76ee","delegatedTransferERC20(address,address,uint256)":"2e88fb97","owner()":"8da5cb5b"},"id":0}