{"abi":[{"type":"constructor","inputs":[],"stateMutability":"nonpayable"},{"type":"function","name":"TARGET","inputs":[],"outputs":[{"name":"","type":"address","internalType":"address"}],"stateMutability":"view"},{"type":"function","name":"attacker","inputs":[],"outputs":[{"name":"","type":"address","internalType":"address"}],"stateMutability":"view"},{"type":"function","name":"depositAmountUsed","inputs":[],"outputs":[{"name":"","type":"uint256","internalType":"uint256"}],"stateMutability":"view"},{"type":"function","name":"depositSucceeded","inputs":[],"outputs":[{"name":"","type":"bool","internalType":"bool"}],"stateMutability":"view"},{"type":"function","name":"executeOnOpportunity","inputs":[],"outputs":[],"stateMutability":"nonpayable"},{"type":"function","name":"executed","inputs":[],"outputs":[{"name":"","type":"bool","internalType":"bool"}],"stateMutability":"view"},{"type":"function","name":"fakeVisor","inputs":[],"outputs":[{"name":"","type":"address","internalType":"address"}],"stateMutability":"view"},{"type":"function","name":"hugeAmount","inputs":[],"outputs":[{"name":"","type":"uint256","internalType":"uint256"}],"stateMutability":"view"},{"type":"function","name":"hypervisorVisrAfter","inputs":[],"outputs":[{"name":"","type":"uint256","internalType":"uint256"}],"stateMutability":"view"},{"type":"function","name":"hypervisorVisrBefore","inputs":[],"outputs":[{"name":"","type":"uint256","internalType":"uint256"}],"stateMutability":"view"},{"type":"function","name":"mintedShares","inputs":[],"outputs":[{"name":"","type":"uint256","internalType":"uint256"}],"stateMutability":"view"},{"type":"function","name":"profitAmount","inputs":[],"outputs":[{"name":"","type":"uint256","internalType":"uint256"}],"stateMutability":"view"},{"type":"function","name":"profitToken","inputs":[],"outputs":[{"name":"","type":"address","internalType":"address"}],"stateMutability":"view"},{"type":"function","name":"shareSupplyAfter","inputs":[],"outputs":[{"name":"","type":"uint256","internalType":"uint256"}],"stateMutability":"view"},{"type":"function","name":"shareSupplyBefore","inputs":[],"outputs":[{"name":"","type":"uint256","internalType":"uint256"}],"stateMutability":"view"},{"type":"function","name":"visrBalanceAfter","inputs":[],"outputs":[{"name":"","type":"uint256","internalType":"uint256"}],"stateMutability":"view"},{"type":"function","name":"visrBalanceBefore","inputs":[],"outputs":[{"name":"","type":"uint256","internalType":"uint256"}],"stateMutability":"view"},{"type":"function","name":"withdrawSucceeded","inputs":[],"outputs":[{"name":"","type":"bool","internalType":"bool"}],"stateMutability":"view"}],"bytecode":{"object":"0x60808060405234602757600180546001600160a01b03191630179055610d70908161002c8239f35b5f80fdfe6080806040526004361015610012575f80fd5b5f3560e01c90816331a38c8914610a7157508063344a931f14610a545780633c2448ed1461034457806348eb76ee1461031c57806349343624146102875780634d0891cd146102655780635ff972cc146102495780637bf6cf261461022c5780638c623b721461020f578063b6c974a7146101ea578063b84f1011146101cd578063beee2976146101b0578063cc1f2afa14610182578063e135dd951461015a578063e77797cf1461013d578063eb4a5b8a14610120578063f4514d2e146101035763fc85a29e146100e2575f80fd5b346100ff575f3660031901126100ff576020600854604051908152f35b5f80fd5b346100ff575f3660031901126100ff576020600554604051908152f35b346100ff575f3660031901126100ff576020600354604051908152f35b346100ff575f3660031901126100ff576020600954604051908152f35b346100ff575f3660031901126100ff576002546040516001600160a01b039091168152602090f35b346100ff575f3660031901126100ff57602060405173c9f27a50f82571c1c8423a42970613b8dbda14ef8152f35b346100ff575f3660031901126100ff576020600a54604051908152f35b346100ff575f3660031901126100ff576020600754604051908152f35b346100ff575f3660031901126100ff57602060ff600c5460081c166040519015158152f35b346100ff575f3660031901126100ff576020600454604051908152f35b346100ff575f3660031901126100ff576020600654604051908152f35b346100ff575f3660031901126100ff5760205f54604051908152f35b346100ff575f3660031901126100ff57602060ff600c54166040519015158152f35b346100ff575f3660031901126100ff5760405163468ee2b560e11b815260208160048173c9f27a50f82571c1c8423a42970613b8dbda14ef5afa8015610311576020915f916102e4575b506040516001600160a01b039091168152f35b6103049150823d841161030a575b6102fc8183610a93565b810190610ab5565b826102d1565b503d6102f2565b6040513d5f823e3d90fd5b346100ff575f3660031901126100ff576001546040516001600160a01b039091168152602090f35b346100ff575f3660031901126100ff57600c5460ff8160101c16610a1c5762ff000019166201000017600c5560405163468ee2b560e11b815260208160048173c9f27a50f82571c1c8423a42970613b8dbda14ef5afa908115610311575f916109fd575b506040516305888dfd60e01b81529060208260048173c9f27a50f82571c1c8423a42970613b8dbda14ef5afa918215610311575f926109dc575b506001546040516370a0823160e01b81526001600160a01b039182166004820181905293929091169190602081602481865afa908115610311575f916109aa575b506006556040516318160ddd60e01b81526001600160a01b03919091169290602081600481875afa908115610311575f91610978575b506008556040516370a0823160e01b815273c9f27a50f82571c1c8423a42970613b8dbda14ef6004820152602081602481865afa908115610311575f91610946575b5080600a551561090e576040519061017b80830183811067ffffffffffffffff8211176108fa576020928492610bc0843981520301905ff0801561031157600280546001600160a01b0319166001600160a01b03929092169182179055600a5460085461050791610af5565b806003558060045580156108c4576001546040516370a0823160e01b81526001600160a01b03909116600482018190529092602084602481895afa938415610311575f94610890575b5060405192630b8b4a6160e21b84526004840152602483015260448201526020816064815f73c9f27a50f82571c1c8423a42970613b8dbda14ef5af1908115610311575f9161085e575b50600c805460ff19166001908117909155546040516370a0823160e01b81526001600160a01b03919091166004820181905292602082602481895afa8015610311575f9061082a575b6105ed9250610ad4565b8060055515610821575b506005549081156107e95760405191632d182be560e21b8352600483015280602483015260448201526020816064815f73c9f27a50f82571c1c8423a42970613b8dbda14ef5af18015610311576107ba575b50600c805461ff0019166101001790556001546040516370a0823160e01b81526001600160a01b0391909116600482015291602083602481855afa928315610311575f93610785575b50602060049184600755604051928380926318160ddd60e01b82525afa908115610311575f91610752575b506009556040516370a0823160e01b815273c9f27a50f82571c1c8423a42970613b8dbda14ef600482015290602090829060249082905afa908115610311575f91610720575b50600b5560065480821161071357005b61071c91610ad4565b5f55005b90506020813d60201161074a575b8161073b60209383610a93565b810103126100ff575182610703565b3d915061072e565b90506020813d60201161077d575b8161076d60209383610a93565b810103126100ff575160246106bd565b3d9150610760565b9092506020813d6020116107b2575b816107a160209383610a93565b810103126100ff5751916020610692565b3d9150610794565b6020813d6020116107e1575b816107d360209383610a93565b810103126100ff5751610649565b3d91506107c6565b60405162461bcd60e51b815260206004820152601060248201526f1b9bc81cda185c995cc81b5a5b9d195960821b6044820152606490fd5b600555836105f7565b506020823d602011610856575b8161084460209383610a93565b810103126100ff576105ed91516105e3565b3d9150610837565b90506020813d602011610888575b8161087960209383610a93565b810103126100ff57518461059a565b3d915061086c565b9093506020813d6020116108bc575b816108ac60209383610a93565b810103126100ff57519286610550565b3d915061089f565b60405162461bcd60e51b815260206004820152600e60248201526d1a5b9d985b1a5908185b5bdd5b9d60921b6044820152606490fd5b634e487b7160e01b5f52604160045260245ffd5b60405162461bcd60e51b815260206004820152601060248201526f3737902b24a9a9103a3790323930b4b760811b6044820152606490fd5b90506020813d602011610970575b8161096160209383610a93565b810103126100ff57518461049b565b3d9150610954565b90506020813d6020116109a2575b8161099360209383610a93565b810103126100ff575184610459565b3d9150610986565b90506020813d6020116109d4575b816109c560209383610a93565b810103126100ff575184610423565b3d91506109b8565b6109f691925060203d60201161030a576102fc8183610a93565b90826103e2565b610a16915060203d60201161030a576102fc8183610a93565b816103a8565b60405162461bcd60e51b815260206004820152601060248201526f185b1c9958591e48195e1958dd5d195960821b6044820152606490fd5b346100ff575f3660031901126100ff576020600b54604051908152f35b346100ff575f3660031901126100ff5760209060ff600c5460101c1615158152f35b90601f8019910116810190811067ffffffffffffffff8211176108fa57604052565b908160209103126100ff57516001600160a01b03811681036100ff5790565b91908203918211610ae157565b634e487b7160e01b5f52601160045260245ffd5b9091907d10c6f7a0b5ed8d36b4c7f34938583621fafc8b0079a2834d26fa3fcc9ea9811115610ba257507d10c6f7a0b5ed8d36b4c7f34938583621fafc8b0079a2834d26fa3fcc9ea9915b8215610b99575b80158015610b53575050565b610b85575f19046001811115610b7f5780831015610b6e5750565b9091505f198101908111610ae15790565b505f9150565b634e487b7160e01b5f52601260045260245ffd5b60019250610b47565b620f4240810290808204620f42401490151715610ae15791610b4056fe60a034606457601f61017b38819003918201601f19168301916001600160401b03831184841017606857808492602094604052833981010312606457516001600160a01b038116810360645760805260405160fe908161007d82396080518160990152f35b5f80fd5b634e487b7160e01b5f52604160045260245ffdfe608060405260043610156010575f80fd5b5f3560e01c80632e88fb9714603a57806348eb76ee14603657638da5cb5b146036575f80fd5b6086565b346058576060366003190112605857604f605c565b5060566071565b005b5f80fd5b600435906001600160a01b0382168203605857565b602435906001600160a01b0382168203605857565b346058575f3660031901126058576040517f00000000000000000000000000000000000000000000000000000000000000006001600160a01b03168152602090f3fea264697066735822122007dd65867bdaa68cb986c8428caedf3d9461bbf7115b4a96db0b0c0ba09f5c8964736f6c634300081e0033a264697066735822122097025dce35059783d0ee05f7d2938ff37ad2623a3c52c564082632c8a5ff3ea564736f6c634300081e0033","linkReferences":{}},"methodIdentifiers":{"TARGET()":"cc1f2afa","attacker()":"48eb76ee","depositAmountUsed()":"8c623b72","depositSucceeded()":"4d0891cd","executeOnOpportunity()":"3c2448ed","executed()":"31a38c89","fakeVisor()":"e135dd95","hugeAmount()":"eb4a5b8a","hypervisorVisrAfter()":"344a931f","hypervisorVisrBefore()":"beee2976","mintedShares()":"f4514d2e","profitAmount()":"5ff972cc","profitToken()":"49343624","shareSupplyAfter()":"e77797cf","shareSupplyBefore()":"fc85a29e","visrBalanceAfter()":"b84f1011","visrBalanceBefore()":"7bf6cf26","withdrawSucceeded()":"b6c974a7"},"id":0}