{"abi":[{"type":"constructor","inputs":[],"stateMutability":"nonpayable"},{"type":"receive","stateMutability":"payable"},{"type":"function","name":"executeOnOpportunity","inputs":[],"outputs":[],"stateMutability":"nonpayable"},{"type":"function","name":"profitAmount","inputs":[],"outputs":[{"name":"","type":"uint256","internalType":"uint256"}],"stateMutability":"view"},{"type":"function","name":"profitToken","inputs":[],"outputs":[{"name":"","type":"address","internalType":"address"}],"stateMutability":"view"},{"type":"function","name":"receiveFlashLoan","inputs":[{"name":"tokens","type":"address[]","internalType":"contract IERC20Minimal[]"},{"name":"amounts","type":"uint256[]","internalType":"uint256[]"},{"name":"feeAmounts","type":"uint256[]","internalType":"uint256[]"},{"name":"userData","type":"bytes","internalType":"bytes"}],"outputs":[],"stateMutability":"nonpayable"},{"type":"function","name":"requestFlashLoanAttack","inputs":[{"name":"token","type":"address","internalType":"address"},{"name":"bootstrapAmount","type":"uint256","internalType":"uint256"},{"name":"borrowAmount","type":"uint256","internalType":"uint256"},{"name":"withdrawAmount","type":"uint256","internalType":"uint256"},{"name":"startingBalance","type":"uint256","internalType":"uint256"}],"outputs":[{"name":"","type":"uint256","internalType":"uint256"}],"stateMutability":"nonpayable"},{"type":"function","name":"runDirectAttack","inputs":[{"name":"token","type":"address","internalType":"address"},{"name":"bootstrapAmount","type":"uint256","internalType":"uint256"},{"name":"borrowAmount","type":"uint256","internalType":"uint256"},{"name":"withdrawAmount","type":"uint256","internalType":"uint256"},{"name":"startingBalance","type":"uint256","internalType":"uint256"}],"outputs":[{"name":"","type":"uint256","internalType":"uint256"}],"stateMutability":"nonpayable"},{"type":"error","name":"BorrowPathUnavailable","inputs":[]},{"type":"error","name":"FlashLoanNotFromVault","inputs":[]},{"type":"error","name":"NoProfitableOpportunity","inputs":[]},{"type":"error","name":"PoolPreconditionsNotMet","inputs":[]},{"type":"error","name":"Unauthorized","inputs":[]},{"type":"error","name":"WithdrawPathUnavailable","inputs":[]}],"bytecode":{"object":"0x6080806040523460155761257c908161001a8239f35b5f80fdfe6080604052600436101561001a575b3615610018575f80fd5b005b5f5f3560e01c806304f7679514610bee5780633412fb5d146109485780633c2448ed1461092c57806349343624146109055780635ff972cc146108e75763f04f270714610067575061000e565b346108e45760803660031901126108e45760043567ffffffffffffffff8111610486573660238201121561048657806004013590602460206100a884611235565b6100b56040519182611213565b848152019260051b820101903682116108a757602401915b8183106108c2578360243567ffffffffffffffff8111610486576100f590369060040161124d565b9060443567ffffffffffffffff81116104865761011690369060040161124d565b9160643567ffffffffffffffff81116108be57366023820112156108be578060040135610142816112aa565b906101506040519283611213565b808252602082019236602483830101116108ba5781869260246020930186378301015273ba12222222228d8ba445958a75a0704d566bf2c833036108ab5760a0818051810103126108a7576101b0604051926101ab846111e3565b611b0d565b80835260408201519081602085015260608301519081604086015260a06080850151948560608801520151608086015260018060a01b0316926101fc6101f5896112e7565b5184611b21565b9260018401809411610893576102128386611b7b565b158015610882575b6108735761022785611c2f565b604051637c854ec760e01b81526020816004815f5160206125275f395f51905f525afa90811561060c578991610839575b506001600160a01b0316803b15610835576040516001625e506360e01b03198152898160048183865af1801561065157908a91610820575b50509060206024939260405194858092636d4a12f160e11b82523060048301525afa92831561060c5789936107eb575b50604051636987b14960e11b8152600481018490526001600160a01b038716602482015260448101919091526020816064818c5f5160206125275f395f51905f525af1801561060c576107bc575b505f5160206125275f395f51905f523b156107b857876040516379378f5360e11b81528360048201528660248201528181604481835f5160206125275f395f51905f525af16107a3575b505087889389905b610400821061066b575b50501561065c579087915b6104008310610522575b50505015610513578015159182610499575b505061048a57906103c383946103bc6103b5869560018060a01b03905116946112e7565b51916112e7565b5190611b21565b82604051602081019263a9059cbb60e01b845273ba12222222228d8ba445958a75a0704d566bf2c86024830152604482015260448152610404606482611213565b51925af1610410611b3f565b8161044f575b501561041f5780f35b60405162461bcd60e51b81526020600482015260086024820152673a3930b739b332b960c11b6044820152606490fd5b8051801592508215610464575b505082610416565b819250906020918101031261048657602061047f9101611b6e565b828061045c565b5080fd5b636bd4ab7360e11b8352600483fd5b6040516370a0823160e01b8152306004820152919250602090829060249082905afa9081156105085785916104d2575b50108580610391565b90506020813d602011610500575b816104ed60209383611213565b810103126104fc5751866104c9565b5f80fd5b3d91506104e0565b6040513d87823e3d90fd5b631b8ddce360e31b8552600485fd5b909192604051630aae234760e21b81528660048201526020816024815f5160206125275f395f51905f525afa908115610651579083918b9161061d575b50106106175761056f8287611bfd565b156106175761057f828785611f2d565b1561061757506040516377cfd4a560e01b8152600481018390526001600160a01b0386166024820152604481018290526020816064818c5f5160206125275f395f51905f525af1801561060c576105de575b5060018093019190610375565b6020813d8211610604575b816105f660209383611213565b810103126104fc57516105d1565b3d91506105e9565b6040513d8b823e3d90fd5b9261037f565b9150506020813d8211610649575b8161063860209383611213565b810103126104fc578290518c61055f565b3d915061062b565b6040513d8c823e3d90fd5b635302aa3d60e01b8852600488fd5b9091604051630aae234760e21b81528860048201526020816024815f5160206125275f395f51905f525afa908115610798579083918d91610764575b501061075e576106b78289611b7b565b1561075e576106c7828987611e44565b1561075e575060405163c7c5c4a760e01b8152600481018590526001600160a01b0388166024820152604481018290526020816064818e5f5160206125275f395f51905f525af1801561075357610725575b50600180920190610360565b6020813d821161074b575b8161073d60209383611213565b810103126104fc5751610719565b3d9150610730565b6040513d8d823e3d90fd5b9161036a565b9150506020813d8211610790575b8161077f60209383611213565b810103126104fc578290518e6106a7565b3d9150610772565b6040513d8e823e3d90fd5b816107ad91611213565b6107b857878a610358565b8780fd5b6020813d6020116107e3575b816107d560209383611213565b810103126104fc575161030e565b3d91506107c8565b9092506020813d602011610818575b8161080760209383611213565b810103126104fc57519160206102c0565b3d91506107fa565b8161082a91611213565b61083557888b610290565b8880fd5b90506020813d60201161086b575b8161085460209383611213565b810103126108355761086590611b0d565b8a610258565b3d9150610847565b63113f4a5160e21b8852600488fd5b5061088d8286611bfd565b1561021a565b634e487b7160e01b88526011600452602488fd5b8380fd5b632b0d048960e11b8452600484fd5b8580fd5b8280fd5b82356001600160a01b03811681036108e2578152602092830192016100cd565b845b80fd5b50346108e457806003193601126108e4576020600154604051908152f35b50346108e457806003193601126108e457546040516001600160a01b039091168152602090f35b50346108e457806003193601126108e45761094561131c565b80f35b50346108e457610957366111b1565b949293919091303303610be0576040948551926109748785611213565b6001845260208401601f19880193843683378851906109938a83611213565b6001825260208201953687376001600160a01b031696876109b3886112e7565b52846109be836112e7565b5260808a516109cc816111e3565b898152602081019687528b81019586526060810192835201908b82528a519460208601968a8852518c8701525160608601525160808501525160a084015260a08352610a1960c084611213565b73ba12222222228d8ba445958a75a0704d566bf2c83b156107b857949290918794928951968795632e1c224f60e11b87526084870190306004890152608060248901525180915260a487019290885b818110610bbb575050506020906003198784030160448801525191828152019390865b818110610b9f575050509183916020936003198484030160648501525180918184528584015e8181018401869052601f01601f1916010301818373ba12222222228d8ba445958a75a0704d566bf2c85af18015610b9557610b80575b509060206024928451938480926370a0823160e01b82523060048301525afa918215610b74578192610b40575b5083821115610b315750602092610b2a916112c6565b9051908152f35b636bd4ab7360e11b8152600490fd5b9091506020813d602011610b6c575b81610b5c60209383611213565b810103126104fc5751905f610b14565b3d9150610b4f565b508251903d90823e3d90fd5b610b8b838092611213565b610486575f610ae7565b84513d85823e3d90fd5b825186528a975088965060209586019590920191600101610a8b565b82516001600160a01b031685528c99508a985060209485019490920191600101610a68565b6282b42960e81b8452600484fd5b50346104fc57610bfd366111b1565b9491903033036111a357610c118286611b7b565b158015611192575b61118357610c2685611c2f565b604051637c854ec760e01b81526020816004815f5160206125275f395f51905f525afa908115610e24575f91611149575b506001600160a01b031693843b156104fc576040516001625e506360e01b031981525f81600481838a5af18015610e245761112f575b506020602493949560405194858092636d4a12f160e11b82523060048301525afa9283156105085785936110fa575b50604051636987b14960e11b8152600481018490526001600160a01b03871660248201526044810191909152602081606481885f5160206125275f395f51905f525af18015610508576110cb575b505f5160206125275f395f51905f523b156108a7576040516379378f5360e11b8152600481018390526001600160a01b03861660248201819052959085908181604481835f5160206125275f395f51905f525af16110b6575b505084859486905b6104008210610f89575b505015610f7a57919084925b6104008410610e3e575b5050505015610e2f5780610b3157506020602491604051928380926370a0823160e01b82523060048301525afa908115610e24575f91610df2575b5081811115610de357602091610ddb916112c6565b604051908152f35b636bd4ab7360e11b5f5260045ffd5b90506020813d602011610e1c575b81610e0d60209383611213565b810103126104fc57515f610dc6565b3d9150610e00565b6040513d5f823e3d90fd5b631b8ddce360e31b8152600490fd5b90919293604051630aae234760e21b81528760048201526020816024815f5160206125275f395f51905f525afa908115610f6f579084918891610f3b575b5010610f3557610e8c8383611bfd565b15610f3557610e9c838386611f2d565b15610f3557506040516377cfd4a560e01b8152600481018490526001600160a01b038216602482015260448101839052602081606481895f5160206125275f395f51905f525af18015610f2a57610efc575b506001809401929190610d81565b6020813d8211610f22575b81610f1460209383611213565b810103126104fc5751610eee565b3d9150610f07565b6040513d88823e3d90fd5b93610d8b565b9150506020813d8211610f67575b81610f5660209383611213565b810103126104fc578390515f610e7c565b3d9150610f49565b6040513d89823e3d90fd5b635302aa3d60e01b8552600485fd5b9091604051630aae234760e21b81528960048201526020816024815f5160206125275f395f51905f525afa90811561060c579083918a91611082575b501061107c57610fd58285611b7b565b1561107c57610fe5828588611e44565b1561107c575060405163c7c5c4a760e01b8152600481018690526001600160a01b0384166024820152604481018290526020816064818b5f5160206125275f395f51905f525af1801561107157611043575b50600180920190610d6b565b6020813d8211611069575b8161105b60209383611213565b810103126104fc5751611037565b3d915061104e565b6040513d8a823e3d90fd5b91610d75565b9150506020813d82116110ae575b8161109d60209383611213565b810103126104fc578290515f610fc5565b3d9150611090565b816110c091611213565b6108e257845f610d63565b6020813d6020116110f2575b816110e460209383611213565b810103126104fc5751610d0a565b3d91506110d7565b9092506020813d602011611127575b8161111660209383611213565b810103126104fc5751916020610cbc565b3d9150611109565b60249394505f61113e91611213565b60205f949350610c8d565b90506020813d60201161117b575b8161116460209383611213565b810103126104fc5761117590611b0d565b5f610c57565b3d9150611157565b63113f4a5160e21b5f5260045ffd5b5061119d8186611bfd565b15610c19565b6282b42960e81b5f5260045ffd5b60a09060031901126104fc576004356001600160a01b03811681036104fc579060243590604435906064359060843590565b60a0810190811067ffffffffffffffff8211176111ff57604052565b634e487b7160e01b5f52604160045260245ffd5b90601f8019910116810190811067ffffffffffffffff8211176111ff57604052565b67ffffffffffffffff81116111ff5760051b60200190565b9080601f830112156104fc57813561126481611235565b926112726040519485611213565b81845260208085019260051b8201019283116104fc57602001905b82821061129a5750505090565b813581526020918201910161128d565b67ffffffffffffffff81116111ff57601f01601f191660200190565b919082039182116112d357565b634e487b7160e01b5f52601160045260245ffd5b8051156112f45760200190565b634e487b7160e01b5f52603260045260245ffd5b80518210156112f45760209160051b010190565b5f80546001600160a01b0319168155600155604051906101e061133f8184611213565b600e8352601f190136602084013760405163040141e560e01b81526020816004815f5160206125275f395f51905f525afa908115610e24575f91611ad3575b50611388836112e7565b6001600160a01b0390911690528151600110156112f45773a0b86991c6218b36c1d19d4a2e9eb0ce3606eb4860408301528151600210156112f45773dac17f958d2ee523a2206206994597c13d831ec760608301528151600310156112f457736b175474e89094c44da98b954eedeac495271d0f60808301528151600410156112f457732260fac5e5542a773aa44fbcfedf7c193bc2c59960a08301528151600510156112f45773ae7ab96520de3a18e5e111b5eaab095312d7fe8460c08301528151600610156112f457737f39c581f595b53c5cb5b5f0dda6c935e2ca0a0b60e08301528151600710156112f45773be9895146f7af43049ca1c1ae358b0541ea497046101008301528151600810156112f45773ae78736cd615f374d3085123a210448e74fc63936101208301528151600910156112f457735f98805a4e8be255a32880fdec7f6728c6568ba06101408301528151600a10156112f45773853d955acef822db058eb8505911ed77f175b99e6101608301528151600b10156112f4575f6101808301528151600c10156112f4577357ab1ec28d129707052df4df418d58a2d46d5f516101a08301528151600d10156112f45773f939e0a03fb07f59a73314e73794be0e57ac1b4e6101c083015260405160809261156c8483611213565b5f5b848110611aa157505f5b8151811015611677576001600160a01b036115938284611308565b511690811561166e576115a58261200a565b91959293158015611666575b611659576040516370a0823160e01b815230600482015295602087602481875afa968715610e24575f97611626575b50846001971061161c5761161694604051946115fb866111e3565b85526020850152604084015260608301528882015285612494565b01611578565b5050505050611616565b96506020873d8211611651575b8161164060209383611213565b810103126104fc57955195846115e0565b3d9150611633565b5050505060019150611616565b5081156115b1565b60019150611616565b509192905f905f5b600481106119175750506119135760405161169a8282611213565b5f5b8281106118e157505f5b8351811015611731576001906001600160a01b036116c48287611308565b5116801561172b576116d58161200a565b929493919091158015611723575b6117195761171394604051946116f8866111e3565b85526020850152604084015260608301528682015284612494565b016116a6565b5050505050611713565b5082156116e3565b50611713565b505f9250825b600481106117575750505061175557636bd4ab7360e11b5f5260045ffd5b565b6117618183611b2e565b5180516001600160a01b0316801580156118d6575b6118cc57906020602492604051938480926370a0823160e01b82523060048301525afa918215610e24575f92611899575b50805160208083015160408085015160608601519151633412fb5d60e01b81526001600160a01b0390951660048601526024850192909252604484019190915260648301526084820193909352918260a4815f305af15f9281611866575b506118165750506001905b01611737565b9060019295918354821161183e575b508115611834575b5093611810565b905015155f61182d565b838060a01b039051166bffffffffffffffffffffffff60a01b5f5416175f558083555f611825565b9092506020813d8211611891575b8161188160209383611213565b810103126104fc5751915f611805565b3d9150611874565b9091506020813d82116118c4575b816118b460209383611213565b810103126104fc5751905f6117a7565b3d91506118a7565b5050600190611810565b508482015115611776565b6020906040516118f0816111e3565b5f81525f838201525f60408201525f60608201525f85820152818401520161169c565b5050565b6119218183611b2e565b5180516001600160a01b031680158015611a96575b611a8c57906020602492604051938480926370a0823160e01b82523060048301525afa918215610e24575f92611a59575b508051602080830151604080850151606086015191516304f7679560e01b81526001600160a01b0390951660048601526024850192909252604484019190915260648301526084820193909352918260a4815f305af15f9281611a26575b506119d65750506001905b0161167f565b906001929491835482116119fe575b5081156119f4575b50926119d0565b905015155f6119ed565b838060a01b039051166bffffffffffffffffffffffff60a01b5f5416175f558083555f6119e5565b9092506020813d8211611a51575b81611a4160209383611213565b810103126104fc5751915f6119c5565b3d9150611a34565b9091506020813d8211611a84575b81611a7460209383611213565b810103126104fc5751905f611967565b3d9150611a67565b50506001906119d0565b508582015115611936565b602090604051611ab0816111e3565b5f81525f838201525f60408201525f60608201525f87820152818501520161156e565b90506020813d602011611b05575b81611aee60209383611213565b810103126104fc57611aff90611b0d565b5f61137e565b3d9150611ae1565b51906001600160a01b03821682036104fc57565b919082018092116112d357565b9060048110156112f45760051b0190565b3d15611b69573d90611b50826112aa565b91611b5e6040519384611213565b82523d5f602084013e565b606090565b519081151582036104fc57565b6040516372bbfb8360e11b81526001600160a01b039091166004820152602481019190915260208180604481015b03815f5160206125275f395f51905f525afa908115610e24575f91611bcd57501590565b90506020813d602011611bf5575b81611be860209383611213565b810103126104fc57511590565b3d9150611bdb565b604051630cb2276760e41b81526001600160a01b03909116600482015260248101919091526020818060448101611ba9565b5f80604051602081019063095ea7b360e01b82525f5160206125275f395f51905f5260248201528219604482015260448152611c6c606482611213565b519082855af1611c7a611b3f565b81611e0d575b50611e0a575f80604051602081019063095ea7b360e01b82525f5160206125275f395f51905f52602482015282604482015260448152611cc1606482611213565b519082855af1611ccf611b3f565b81611dd3575b5015611d9e575f809160405182602082019163095ea7b360e01b83525f5160206125275f395f51905f5260248201528119604482015260448152611d1a606482611213565b51925af1611d26611b3f565b81611d67575b5015611d3457565b60405162461bcd60e51b815260206004820152600b60248201526a185c1c1c9bdd994b5cd95d60aa1b6044820152606490fd5b8051801592508215611d7c575b50505f611d2c565b81925090602091810103126104fc576020611d979101611b6e565b5f80611d74565b60405162461bcd60e51b815260206004820152600d60248201526c185c1c1c9bdd994b5c995cd95d609a1b6044820152606490fd5b8051801592508215611de8575b50505f611cd5565b81925090602091810103126104fc576020611e039101611b6e565b5f80611de0565b50565b8051801592508215611e22575b50505f611c80565b81925090602091810103126104fc576020611e3d9101611b6e565b5f80611e1a565b604051630f9f234d60e01b81525f93906020816004815f5160206125275f395f51905f525afa908115610e24575f91611ef3575b506001600160a01b0316803b156104fc5760405163fe03cca960e01b815260048101939093523060248401526001600160a01b0390931660448301526064820152905f9082908180608481015b03915afa9081611ede575b50611ed85790565b50600190565b611eeb9192505f90611213565b5f905f611ed0565b90506020813d602011611f25575b81611f0e60209383611213565b810103126104fc57611f1f90611b0d565b5f611e78565b3d9150611f01565b604051630f9f234d60e01b81525f93906020816004815f5160206125275f395f51905f525afa908115610e24575f91611fb2575b506001600160a01b0316803b156104fc5760405163ec4f704360e01b815260048101939093523060248401526001600160a01b0390931660448301526064820152905f908290818060848101611ec5565b90506020813d602011611fe4575b81611fcd60209383611213565b810103126104fc57611fde90611b0d565b5f611f61565b3d9150611fc0565b8115611ff6570490565b634e487b7160e01b5f52601260045260245ffd5b60405190610100820182811067ffffffffffffffff8211176111ff576040525f8252602082015f815260408301925f845260608101915f8352608082015f815260a08301935f855260c08401965f885260e08501935f8552604051956381cc49a360e01b875260018060a01b038916968760048201526080816024815f5160206125275f395f51905f525afa908115610e24575f915f915f9161244b575b50855283521515815260405163c1919dd960e01b8152600481018890526060816024815f5160206125275f395f51905f525afa918215610e24575f925f925f91612407575b508a5281875282865251159182156123fd575b82156123ef575b82156123e6575b5081156123da575b506123bd57515f1981019081116112d357612132915190611fec565b9581515f1981019081116112d357835161214b91611fec565b95871580156123d2575b6123bd578051156123bd57670de0b6b3a7640000880290888204670de0b6b3a764000014891517156112d35751816123895750505f5b885260018601978887116112d35788815190600182018092116112d35710612372575b50604051630cb2276760e41b81526001600160a01b03919091166004820152602481018890526020816044815f5160206125275f395f51905f525afa908115610e24575f91612340575b508084521561232d578661220c9151611b21565b5f198101919082116112d35761222f926122299151905190611b21565b90611fec565b156122eb5760405190630aae234760e21b825260048201526020816024815f5160206125275f395f51905f525afa908115610e24575f916122fb575b506122768482611b21565b6122808385611b21565b116122eb5782600a1b83810461040014841517156112d35784818310156122e1576122ac915082611b21565b9082600a1b9183830461040014841517156112d3576122d492808210156122d9575090611b21565b600194565b905090611b21565b6122ac9192611b21565b505050505f905f905f905f905f90565b90506020813d602011612325575b8161231660209383611213565b810103126104fc57515f61226b565b3d9150612309565b505050505050505f905f905f905f905f90565b90506020813d60201161236a575b8161235b60209383611213565b810103126104fc57515f6121f8565b3d915061234e565b90975051600181018091116112d3579660206121ae565b5f1982019182116112d35761239d91611fec565b600181018091111561218b57634e487b7160e01b5f52601160045260245ffd5b5050505050505050505f905f905f905f905f90565b508615612155565b6001915011155f612116565b1591505f61210e565b915060018451111591612107565b8351159250612100565b93505090506060823d606011612443575b8161242560609383611213565b810103126104fc57815190604060208401519301519192915f6120ed565b3d9150612418565b925050506080813d60801161248c575b8161246860809383611213565b810103126104fc5761247981611b6e565b604060208301519201519091905f6120a8565b3d915061245b565b9190915f905b600482106124a85750509050565b608084015160806124b98484611b2e565b510151101561251c5760035b8281116124e25750611e0a92936124dc8383611b2e565b52611b2e565b5f1981018181116112d3576124f79083611b2e565b516125028284611b2e565b5261250d8183611b2e565b5080156112d3575f19016124c5565b906001019061249a56fe00000000000000000000000084524baa1951247b3a2617a843e6ece915bb9674a264697066735822122067dc24c9a0b14bffab94ed83ec689503eb2136bc7f168c84ddc066d6390c5f1d64736f6c634300081e0033","linkReferences":{}},"methodIdentifiers":{"executeOnOpportunity()":"3c2448ed","profitAmount()":"5ff972cc","profitToken()":"49343624","receiveFlashLoan(address[],uint256[],uint256[],bytes)":"f04f2707","requestFlashLoanAttack(address,uint256,uint256,uint256,uint256)":"3412fb5d","runDirectAttack(address,uint256,uint256,uint256,uint256)":"04f76795"},"id":0}