{"abi":[{"type":"constructor","inputs":[],"stateMutability":"nonpayable"},{"type":"function","name":"DAI","inputs":[],"outputs":[{"name":"","type":"address","internalType":"address"}],"stateMutability":"view"},{"type":"function","name":"SHIBA_FACTORY","inputs":[],"outputs":[{"name":"","type":"address","internalType":"address"}],"stateMutability":"view"},{"type":"function","name":"SHIBA_ROUTER","inputs":[],"outputs":[{"name":"","type":"address","internalType":"address"}],"stateMutability":"view"},{"type":"function","name":"SUSHI_FACTORY","inputs":[],"outputs":[{"name":"","type":"address","internalType":"address"}],"stateMutability":"view"},{"type":"function","name":"SUSHI_ROUTER","inputs":[],"outputs":[{"name":"","type":"address","internalType":"address"}],"stateMutability":"view"},{"type":"function","name":"TARGET","inputs":[],"outputs":[{"name":"","type":"address","internalType":"address"}],"stateMutability":"view"},{"type":"function","name":"TEAM_SWAP_THRESHOLD","inputs":[],"outputs":[{"name":"","type":"uint256","internalType":"uint256"}],"stateMutability":"view"},{"type":"function","name":"UNISWAP_FACTORY","inputs":[],"outputs":[{"name":"","type":"address","internalType":"address"}],"stateMutability":"view"},{"type":"function","name":"UNISWAP_ROUTER","inputs":[],"outputs":[{"name":"","type":"address","internalType":"address"}],"stateMutability":"view"},{"type":"function","name":"USDC","inputs":[],"outputs":[{"name":"","type":"address","internalType":"address"}],"stateMutability":"view"},{"type":"function","name":"USDT","inputs":[],"outputs":[{"name":"","type":"address","internalType":"address"}],"stateMutability":"view"},{"type":"function","name":"WETH","inputs":[],"outputs":[{"name":"","type":"address","internalType":"address"}],"stateMutability":"view"},{"type":"function","name":"executeOnOpportunity","inputs":[],"outputs":[],"stateMutability":"nonpayable"},{"type":"function","name":"finalContractMccBalance","inputs":[],"outputs":[{"name":"","type":"uint256","internalType":"uint256"}],"stateMutability":"view"},{"type":"function","name":"finalTargetPairWethReserve","inputs":[],"outputs":[{"name":"","type":"uint256","internalType":"uint256"}],"stateMutability":"view"},{"type":"function","name":"finalVerifierMccBalance","inputs":[],"outputs":[{"name":"","type":"uint256","internalType":"uint256"}],"stateMutability":"view"},{"type":"function","name":"finalWethBalance","inputs":[],"outputs":[{"name":"","type":"uint256","internalType":"uint256"}],"stateMutability":"view"},{"type":"function","name":"initialContractMccBalance","inputs":[],"outputs":[{"name":"","type":"uint256","internalType":"uint256"}],"stateMutability":"view"},{"type":"function","name":"initialTargetPairWethReserve","inputs":[],"outputs":[{"name":"","type":"uint256","internalType":"uint256"}],"stateMutability":"view"},{"type":"function","name":"initialVerifierMccBalance","inputs":[],"outputs":[{"name":"","type":"uint256","internalType":"uint256"}],"stateMutability":"view"},{"type":"function","name":"initialWethBalance","inputs":[],"outputs":[{"name":"","type":"uint256","internalType":"uint256"}],"stateMutability":"view"},{"type":"function","name":"observedPreloadedSyntheticInventory","inputs":[],"outputs":[{"name":"","type":"bool","internalType":"bool"}],"stateMutability":"view"},{"type":"function","name":"outcomeCode","inputs":[],"outputs":[{"name":"","type":"uint8","internalType":"uint8"}],"stateMutability":"view"},{"type":"function","name":"profitAmount","inputs":[],"outputs":[{"name":"","type":"uint256","internalType":"uint256"}],"stateMutability":"view"},{"type":"function","name":"profitToken","inputs":[],"outputs":[{"name":"","type":"address","internalType":"address"}],"stateMutability":"pure"},{"type":"function","name":"triggeredAutoSwap","inputs":[],"outputs":[{"name":"","type":"bool","internalType":"bool"}],"stateMutability":"view"},{"type":"function","name":"uniswapV2Call","inputs":[{"name":"sender","type":"address","internalType":"address"},{"name":"amount0","type":"uint256","internalType":"uint256"},{"name":"amount1","type":"uint256","internalType":"uint256"},{"name":"","type":"bytes","internalType":"bytes"}],"outputs":[],"stateMutability":"nonpayable"},{"type":"function","name":"usedCrossDexExit","inputs":[],"outputs":[{"name":"","type":"bool","internalType":"bool"}],"stateMutability":"view"},{"type":"function","name":"usedFlashswapFunding","inputs":[],"outputs":[{"name":"","type":"bool","internalType":"bool"}],"stateMutability":"view"}],"bytecode":{"object":"0x60808060405234601557612ade908161001a8239f35b5f80fdfe6080806040526004361015610012575f80fd5b5f905f3560e01c90816235b239146111c5575080630c24f4fa1461119757806310d1e85c1461050757806315ff9f69146104e157806316a20d05146104c05780632043d8001461049157806330b6ade614610473578063360ddd6514610455578063382724661461042f5780633c2448ed146104135780634621d84d146103ed57806349343624146103075780635ff972cc146103d057806389a13a24146103ab57806389a302711461037c57806397f43b381461035e578063a7f1dea21461032f578063ad5c464814610307578063b3600671146102e9578063b753bb47146102ba578063bb9ca20d1461029c578063c3afe45c1461027e578063c54e44eb1461024f578063c74c0fac14610220578063cc1f2afa146101f8578063d8264920146101c9578063dc36b4af146101ab578063e0bab4c41461017c5763ee29d9131461015c575f80fd5b346101795780600319360112610179576020600a54604051908152f35b80fd5b50346101795780600319360112610179576020604051736b175474e89094c44da98b954eedeac495271d0f8152f35b50346101795780600319360112610179576020600e54604051908152f35b50346101795780600319360112610179576020604051737a250d5630b4cf539739df2c5dacb4c659f2488d8152f35b503461017957806003193601126101795760206040515f516020612a895f395f51905f528152f35b50346101795780600319360112610179576020604051735c69bee701ef814a2b6a3edd4b1652cb9cc5aa6f8152f35b5034610179578060031936011261017957602060405173dac17f958d2ee523a2206206994597c13d831ec78152f35b50346101795780600319360112610179576020600f54604051908152f35b50346101795780600319360112610179576020601054604051908152f35b5034610179578060031936011261017957602060405173c0aee478e3658e2610c5f7a4a2e1777ce9e4f2ac8152f35b50346101795780600319360112610179576020601154604051908152f35b503461017957806003193601126101795760206040515f516020612a695f395f51905f528152f35b5034610179578060031936011261017957602060405173115934131916c8b277dd010ee02de363c09d037c8152f35b50346101795780600319360112610179576020600d54604051908152f35b5034610179578060031936011261017957602060405173a0b86991c6218b36c1d19d4a2e9eb0ce3606eb488152f35b5034610179578060031936011261017957602060ff600954821c166040519015158152f35b503461017957806003193601126101795760209054604051908152f35b5034610179578060031936011261017957602060ff60095460081c166040519015158152f35b503461017957806003193601126101795761042c61129c565b80f35b5034610179578060031936011261017957602060ff60095460101c166040519015158152f35b50346101795780600319360112610179576020600c54604051908152f35b50346101795780600319360112610179576020600b54604051908152f35b503461017957806003193601126101795760206040517303f7724180aa6b939894b5ca4314783b0b36b3298152f35b5034610179578060031936011261017957602060405165048c273950008152f35b5034610179578060031936011261017957602060ff60095460181c166040519015158152f35b5034610ab3576080366003190112610ab3576004356001600160a01b03811690819003610ab3576024359060643567ffffffffffffffff8111610ab35736602382011215610ab357806004013567ffffffffffffffff8111610ab35736910160240111610ab357300361115e576001546001600160a01b0316330361112757801561111e575b60085481036110e55761059f81611e62565b6003546105b4906001600160a01b0316611f41565b6005546001600160a01b031673c02aaa39b223fe8d0a0e5c4f27ead9083c756cc11981016110c7575b506040516370a0823160e01b81523060048201526020816024815f516020612a895f395f51905f525afa908115611068575f91611095575b50604051610624606082611212565b600281526020810160403682375f516020612a695f395f51905f52610648836120b3565b525f516020612a895f395f51905f52610660836120d4565b52737a250d5630b4cf539739df2c5dacb4c659f2488d3b15610ab35790604051918291635c11d79560e01b835260a483019066038d7ea4c6800060048501525f602485015260a060448501525180915260c4830191905f5b8181106110735750505090805f92306064830152426084830152038183737a250d5630b4cf539739df2c5dacb4c659f2488d5af1801561106857611053575b506040516370a0823160e01b8152306004820152906020826024815f516020612a895f395f51905f525afa8015610abf57849061101f575b6107399250611234565b633b9aca00809110610fe85760405163a9059cbb60e01b815230600482015260248101829052602081604481875f516020612a895f395f51905f525af1908115610abf578491610fc9575b5015610f84576009805462ff00001916620100001790556040516370a0823160e01b81523060048201526020816024815f516020612a695f395f51905f525afa908115610abf578491610f52575b506109c48102908082046109c41490151715610f3e57612710900466038d7ea4c68000811015610c45575b50506040516370a0823160e01b81523060048201526020816024815f516020612a695f395f51905f525afa908115610bf9578391610c13575b5066038d7ea4c68000811015610c04575b506040516370a0823160e01b81523060048201526020816024815f516020612a895f395f51905f525afa908115610bf9578391610bc7575b508015610b91576040516370a0823160e01b8152306004820152906020826024815f516020612a695f395f51905f525afa918215610abf578492610b5b575b506003546005546108dc92916001600160a01b0391821691166121f4565b6005546001600160a01b031673c02aaa39b223fe8d0a0e5c4f27ead9083c756cc1198101610aca575b506040516370a0823160e01b81523060048201526020816024815f516020612a695f395f51905f525afa908115610abf578491610a89575b501115610a565764010000000064ff000000001960095416176009556103e88102908082046103e81490151715610a42576103e5900460018101809111610a425760015460405163a9059cbb60e01b81526001600160a01b0390911660048201526024810191909152602081604481855f516020612a695f395f51905f525af1908115610a37578291610a08575b50156109d45780f35b60405162461bcd60e51b815260206004820152600c60248201526b1c995c185e4819985a5b195960a21b6044820152606490fd5b610a2a915060203d602011610a30575b610a228183611212565b810190611241565b5f6109cb565b503d610a18565b6040513d84823e3d90fd5b634e487b7160e01b82526011600452602482fd5b60405162461bcd60e51b815260206004820152600b60248201526a195e1a5d0819985a5b195960aa1b6044820152606490fd5b90506020813d602011610ab7575b81610aa460209383611212565b81010312610ab357515f61093d565b5f80fd5b3d9150610a97565b6040513d86823e3d90fd5b6040516370a0823160e01b8152306004820152602081602481855afa908115610b50578591610b1e575b5080610b01575b50610905565b600654610b1792906001600160a01b03166122d9565b5f80610afb565b90506020813d602011610b48575b81610b3960209383611212565b81010312610ab357515f610af4565b3d9150610b2c565b6040513d87823e3d90fd5b9091506020813d602011610b89575b81610b7760209383611212565b81010312610ab35751906108dc6108be565b3d9150610b6a565b60405162461bcd60e51b815260206004820152600e60248201526d1b9bc81350d0c81d1bc8195e1a5d60921b6044820152606490fd5b90506020813d602011610bf1575b81610be260209383611212565b81010312610ab357515f61087f565b3d9150610bd5565b6040513d85823e3d90fd5b610c0d906120e4565b5f610847565b90506020813d602011610c3d575b81610c2e60209383611212565b81010312610ab357515f610836565b3d9150610c21565b6040516370a0823160e01b8152306004820152906020826024815f516020612a895f395f51905f525afa918215610b50578592610f08575b50610c87906120e4565b6040516370a0823160e01b8152306004820152906020826024815f516020612a895f395f51905f525afa8015610b50578590610ed4575b610cc89250611234565b63ee6b28008111156107fd57818103908111610ec05760405163a9059cbb60e01b81523060048201526024810191909152602081604481875f516020612a895f395f51905f525af1908115610abf578491610ea1575b5015610e5c576040516370a0823160e01b81525f516020612a895f395f51905f5260048201526020816024815f516020612a895f395f51905f525afa8015610abf578490610e24575b65048c2739500091501015610d7d575b806107fd565b60405163a9059cbb60e01b81523060048201526024810191909152602081604481865f516020612a895f395f51905f525af1908115610bf9578391610e05575b5015610dc9575f610d77565b60405162461bcd60e51b8152602060048201526014602482015273199c995cda081d1c9a59d9d95c8819985a5b195960621b6044820152606490fd5b610e1e915060203d602011610a3057610a228183611212565b5f610dbd565b506020813d602011610e54575b81610e3e60209383611212565b81010312610ab35765048c273950009051610d67565b3d9150610e31565b60405162461bcd60e51b815260206004820152601760248201527f696e666c617465207472616e73666572206661696c65640000000000000000006044820152606490fd5b610eba915060203d602011610a3057610a228183611212565b5f610d1e565b634e487b7160e01b5f52601160045260245ffd5b506020823d602011610f00575b81610eee60209383611212565b81010312610ab357610cc89151610cbe565b3d9150610ee1565b9091506020813d602011610f36575b81610f2460209383611212565b81010312610ab3575190610c87610c7d565b3d9150610f17565b634e487b7160e01b84526011600452602484fd5b90506020813d602011610f7c575b81610f6d60209383611212565b81010312610ab357515f6107d2565b3d9150610f60565b60405162461bcd60e51b815260206004820152601860248201527f7072656c6f616465642074726967676572206661696c656400000000000000006044820152606490fd5b610fe2915060203d602011610a3057610a228183611212565b5f610784565b60405162461bcd60e51b815260206004820152600f60248201526e1cd9595908189d5e4819985a5b1959608a1b6044820152606490fd5b506020823d60201161104b575b8161103960209383611212565b81010312610ab357610739915161072f565b3d915061102c565b6110609193505f90611212565b5f915f6106f7565b6040513d5f823e3d90fd5b82516001600160a01b03168452859450602093840193909201916001016106b8565b90506020813d6020116110bf575b816110b060209383611212565b81010312610ab357515f610615565b3d91506110a3565b6006546110df916001600160a01b0390911690611ffd565b5f6105dd565b60405162461bcd60e51b81526020600482015260116024820152701d5b995e1c1958dd195908185b5bdd5b9d607a1b6044820152606490fd5b5060443561058d565b60405162461bcd60e51b815260206004820152600f60248201526e3ab732bc3832b1ba32b2103830b4b960891b6044820152606490fd5b60405162461bcd60e51b81526020600482015260116024820152703ab732bc3832b1ba32b21039b2b73232b960791b6044820152606490fd5b34610ab3575f366003190112610ab357602060405173d9e1ce17f2641f24ae83637ab66a2cca9c378b9f8152f35b34610ab3575f366003190112610ab35760209060ff600954168152f35b6060810190811067ffffffffffffffff8211176111fe57604052565b634e487b7160e01b5f52604160045260245ffd5b90601f8019910116810190811067ffffffffffffffff8211176111fe57604052565b91908203918211610ec057565b90816020910312610ab357518015158103610ab35790565b90816020910312610ab357516001600160a01b0381168103610ab35790565b805180835260209291819084018484015e5f828201840152601f01601f1916010190565b6040516324dead2f60e11b81526020816004815f516020612a895f395f51905f525afa8015611068575f915f91611e43575b50611365606f6040516b5f7472616e736665722a282960a01b6020820152725f7472616e736665725374616e64617264282960681b602c8201526b5f67657456616c756573282960a01b603f8201526c5f6765745256616c756573282960981b604b8201526a5f74616b655465616d282960a81b60588201526b6d616e75616c53776170282960a01b6063820152604f8152611212565b6009805464ffffff00ff1916908190555f80556040516370a0823160e01b81523060048201526020816024815f516020612a695f395f51905f525afa908115611068575f91611e11575b50600a556040516370a0823160e01b81523060048201526020816024815f516020612a895f395f51905f525afa908115611068575f91611ddf575b50600c556040516370a0823160e01b81525f516020612a895f395f51905f5260048201526020816024815f516020612a895f395f51905f525afa908115611068575f91611dad575b50600e5561143f8261240b565b6010556001600160a01b038216908115611d9c575065048c27395000600e54101561ff006009549160081b169060ff8261ff00198316178060095560081c1615611d855750505f5f905f5f915f93604051611499816111e2565b737a250d5630b4cf539739df2c5dacb4c659f2488d815273d9e1ce17f2641f24ae83637ab66a2cca9c378b9f60208201527303f7724180aa6b939894b5ca4314783b0b36b3296040820152604051906114f1826111e2565b735c69bee701ef814a2b6a3edd4b1652cb9cc5aa6f825273c0aee478e3658e2610c5f7a4a2e1777ce9e4f2ac602083015273115934131916c8b277dd010ee02de363c09d037c6040830152604051906080820182811067ffffffffffffffff8211176111fe576040525f516020612a695f395f51905f52825273a0b86991c6218b36c1d19d4a2e9eb0ce3606eb48602083015273dac17f958d2ee523a2206206994597c13d831ec76040830152736b175474e89094c44da98b954eedeac495271d0f60608301525f925f905b600382106119cc57505050505060018060a01b03169081156119af5760405163e6a4390560e01b81525f516020612a695f395f51905f52600482015273a0b86991c6218b36c1d19d4a2e9eb0ce3606eb48602482015295602087604481735c69bee701ef814a2b6a3edd4b1652cb9cc5aa6f5afa968715611068575f9761198e575b506116498761240b565b6001600160a01b039097169687158015611986575b611967576105dc674563918244f4000091048060085511611956575b66b1a2bc2ec500006008541061193857866001600160601b0360a01b60015416176001556001600160601b0360a01b600254161760025560018060a01b03166001600160601b0360a01b60035416176003556001600160601b0360a01b600454161760045560018060a01b03166001600160601b0360a01b600554161760055560018060a01b03166001600160601b0360a01b600654161760065560018060a01b03166001600160601b0360a01b6007541617600755630100000063ff000000196009541617600955604051630dfe168160e01b8152602081600481855afa8015611068575f516020612a695f395f51905f52915f91611909575b506001600160a01b03160361187a57600854906040519160016020840152602083526117a2604084611212565b813b15611876579184916117e6938360405180968195829463022c0d9f60e01b84526004840152836024840152306044840152608060648401526084830190611278565b03925af18015610bf95790839161185d575b505061180390612562565b600b54600a5410156118305761181e600b54600a5490611234565b9055600a60ff1960095416176009555b565b5060095460ff8160101c165f146118515750600760ff196009541617600955565b60ff1916600817600955565b8161186791611212565b61187257815f6117f8565b5080fd5b8480fd5b6008546040516001602082015260208152611896604082611212565b823b15610ab3576118d9925f928360405180968195829463022c0d9f60e01b84528460048501526024840152306044840152608060648401526084830190611278565b03925af18015611068576118f2575b5061180390612562565b6118ff9192505f90611212565b5f906118036118e8565b61192b915060203d602011611931575b6119238183611212565b810190611259565b5f611775565b503d611919565b5050505050505061182e9150600560ff196009541617600955612562565b674563918244f4000060085561167a565b505050505050505061182e9150600460ff196009541617600955612562565b50801561165e565b6119a891975060203d602011611931576119238183611212565b955f61163f565b50505050505061182e9150600360ff196009541617600955612562565b98929b9496909997919a939c955f5b6004811015611d6c5760448f8f9060208f928f90611a109060018060a01b03908860051b0151169460018060a01b03926126c6565b51166040519485809263e6a4390560e01b82525f516020612a895f395f51905f5260048301528660248301525afa928315611068575f93611d4c575b506001600160a01b0383168015908e908215611d42575b5050611d3757611a7382846126d7565b909384158015611d2f575b611d2257611a965f925f966603328b944c40006129d4565b928315611d14575f516020612a695f395f51905f528514938415611b2057905b8111611acd575b5050505050506001905b016119db565b95995095509550955099509e509d8c611aed8d60018060a01b03926126c6565b5116919892845f14611b1b57505f5b9315611b13575060015f5b94905f80808080611abd565b600190611b07565b611afc565b6040515f9750879450849291611b35826111e2565b737a250d5630b4cf539739df2c5dacb4c659f2488d825273d9e1ce17f2641f24ae83637ab66a2cca9c378b9f60208301527303f7724180aa6b939894b5ca4314783b0b36b329604083015260405191611b8d836111e2565b735c69bee701ef814a2b6a3edd4b1652cb9cc5aa6f835273c0aee478e3658e2610c5f7a4a2e1777ce9e4f2ac602084015273115934131916c8b277dd010ee02de363c09d037c60408401525f5b60038110611c1a57509598955050506001600160a01b03871615828115611c11575b5015611ab65750505050505050600190611ac7565b9050155f611bfc565b6001600160a01b03611c2c82866126c6565b511660208b60446040518094819363e6a4390560e01b835260048301525f516020612a695f395f51905f5260248301525afa908115611068575f91611cf6575b506001600160a01b03811615611ced57611c868b82612872565b9080158015611ce5575b611cda5790611c9f91866129d4565b878111611cb3575b50506001905b01611bda565b909b50909750945060016001600160a01b03611ccf89846126c6565b51169a97905f611ca7565b505050600190611cad565b508115611c90565b50600190611cad565b611d0e915060203d8111611931576119238183611212565b5f611c6c565b505050505050600190611ac7565b5050505050600190611ac7565b508115611a7e565b505050600190611ac7565b1490508d5f611a63565b611d6591935060203d8111611931576119238183611212565b915f611a4c565b50959c939a9197996001909c93999197959c01906115bd565b61ffff1916176002176009555061182e9150612562565b6001176009555061182e9150612562565b90506020813d602011611dd7575b81611dc860209383611212565b81010312610ab357515f611432565b3d9150611dbb565b90506020813d602011611e09575b81611dfa60209383611212565b81010312610ab357515f6113ea565b3d9150611ded565b90506020813d602011611e3b575b81611e2c60209383611212565b81010312610ab357515f6113af565b3d9150611e1f565b611e5c915060203d602011611931576119238183611212565b5f6112ce565b8015611f215760405163095ea7b360e01b8152737a250d5630b4cf539739df2c5dacb4c659f2488d60048201525f60248201526020816044815f5f516020612a695f395f51905f525af1801561106857611f24575b506040519063095ea7b360e01b8252737a250d5630b4cf539739df2c5dacb4c659f2488d600483015260248201526020816044815f5f516020612a695f395f51905f525af1801561106857611f095750565b611f219060203d602011610a3057610a228183611212565b50565b611f3c9060203d602011610a3057610a228183611212565b611eb7565b6001600160a01b031680158015611ff6575b611f215760405163095ea7b360e01b81528160048201525f60248201526020816044815f5f516020612a895f395f51905f525af1801561106857611fd9575b5060405163095ea7b360e01b815260048101919091526001600160ff1b0360248201526020816044815f5f516020612a895f395f51905f525af1801561106857611f095750565b611ff19060203d602011610a3057610a228183611212565b611f92565b505f611f53565b6001600160a01b0390911690811580156120ac575b6120a85760018060a01b03166040519063095ea7b360e01b82528260048301525f60248301526020826044815f855af18015611068575f9360209360449261208d575b5060405163095ea7b360e01b815260048101919091526001600160ff1b0360248201529384928391905af1801561106857611f095750565b6120a390853d8711610a3057610a228183611212565b612055565b5050565b505f612012565b8051156120c05760200190565b634e487b7160e01b5f52603260045260245ffd5b8051600110156120c05760400190565b8015611f2157604051906120f9606083611212565b60028252602082019060403683375f516020612a695f395f51905f5261211e846120b3565b525f516020612a895f395f51905f52612136846120d4565b52737a250d5630b4cf539739df2c5dacb4c659f2488d3b15610ab3579190604051928392635c11d79560e01b845260a484019160048501525f602485015260a060448501525180915260c4830191905f5b8181106121d25750505090805f92306064830152426084830152038183737a250d5630b4cf539739df2c5dacb4c659f2488d5af18015611068576121c85750565b5f61182e91611212565b82516001600160a01b0316845285945060209384019390920191600101612187565b919081156122d4576040519261220b606085611212565b60028452602084019160403684375f516020612a895f395f51905f52612230866120b3565b5261223a856120d4565b6001600160a01b0391821690521691823b15610ab3579290604051938492635c11d79560e01b845260a484019160048501525f602485015260a060448501525180915260c4830191905f5b8181106122b25750505091815f81819530606483015242608483015203925af18015611068576121c85750565b82516001600160a01b0316845286945060209384019390920191600101612285565b505050565b919081156122d457604051926122f0606085611212565b6002845260208401916040368437612307856120b3565b6001600160a01b0390911690525f516020612a695f395f51905f5261232b856120d4565b526001600160a01b031691823b15610ab3579290604051938492635c11d79560e01b845260a484019160048501525f602485015260a060448501525180915260c4830191905f5b81811061239f5750505091815f81819530606483015242608483015203925af18015611068576121c85750565b82516001600160a01b0316845286945060209384019390920191600101612372565b51906001600160701b0382168203610ab357565b90816060910312610ab3576123e9816123c1565b9160406123f8602084016123c1565b92015163ffffffff81168103610ab35790565b5f91906001600160a01b0316801561255c57604051630240bc6b60e21b815290606082600481845afa918215611068575f905f93612527575b50604051630dfe168160e01b8152602081600481865afa8015611068575f516020612a695f395f51905f52915f91612508575b506001600160a01b0316146124f9575060206004916040519283809263d21220a760e01b82525afa8015611068575f516020612a695f395f51905f52915f916124da575b506001600160a01b0316146124cd5750565b6001600160701b03169150565b6124f3915060203d602011611931576119238183611212565b5f6124bb565b6001600160701b031693505050565b612521915060203d602011611931576119238183611212565b5f612477565b905061254c91925060603d606011612555575b6125448183611212565b8101906123d5565b5091905f612444565b503d61253a565b505f9150565b6040516370a0823160e01b81523060048201526020816024815f516020612a695f395f51905f525afa908115611068575f91612694575b50600b556040516370a0823160e01b81523060048201526020816024815f516020612a895f395f51905f525afa908115611068575f91612662575b50600d55604051906370a0823160e01b82525f516020612a895f395f51905f5260048301526020826024815f516020612a895f395f51905f525afa8015611068575f9061262e575b6126299250600f5561240b565b601155565b506020823d60201161265a575b8161264860209383611212565b81010312610ab357612629915161261c565b3d915061263b565b90506020813d60201161268c575b8161267d60209383611212565b81010312610ab357515f6125d4565b3d9150612670565b90506020813d6020116126be575b816126af60209383611212565b81010312610ab357515f612599565b3d91506126a2565b9060038110156120c05760051b0190565b5f92839290916001600160a01b031690811561286857604051630240bc6b60e21b815291606083600481845afa918215611068575f935f93612840575b50604051630dfe168160e01b815291602083600481845afa908115611068576004935f9261281e575b506020906040519485809263d21220a760e01b82525afa928315611068575f936127fd575b506001600160a01b0316905f516020612a895f395f51905f528214806127e8575b6127d3576001600160a01b03161490816127b3575b506127a1575050565b6001600160701b039081169450169150565b6001600160a01b03165f516020612a895f395f51905f521490505f612798565b5050506001600160701b039182169450169150565b506001600160a01b0383811690821614612783565b61281791935060203d602011611931576119238183611212565b915f612762565b602091925061283990823d8411611931576119238183611212565b919061273d565b90925061285d91935060603d606011612555576125448183611212565b50929092915f612714565b505f935083925050565b5f92839290916001600160a01b0316801561286857604051630240bc6b60e21b815291606083600481855afa918215611068575f935f936129ac575b50604051630dfe168160e01b815291602083600481855afa918215611068576004935f9361298a575b506020906040519485809263d21220a760e01b82525afa928315611068575f93612969575b506001600160a01b0390811691168082148061294a575b6127d3575f516020612a695f395f51905f52149182612937575b50506127a1575050565b6001600160a01b03161490505f8061292d565b506001600160a01b0383165f516020612a695f395f51905f5214612913565b61298391935060203d602011611931576119238183611212565b915f6128fc565b60209193506129a590823d8411611931576119238183611212565b92906128d7565b9092506129c991935060603d606011612555576125448183611212565b50929092915f6128ae565b919091801590818015612a60575b8015612a58575b612a50576103e58102918183046103e5141715610ec057826103e5910202918183041481151715610ec0576103e88302928084046103e81490151715610ec0578201809211610ec0578115612a3c570490565b634e487b7160e01b5f52601260045260245ffd5b505050505f90565b5082156129e9565b5083156129e256fe000000000000000000000000c02aaa39b223fe8d0a0e5c4f27ead9083c756cc20000000000000000000000001a7981d87e3b6a95c1516eb820e223fe979896b3a264697066735822122078aa68f753f57883556e19443a47888bd549bf291289a67adb8912de1b7a3de364736f6c634300081e0033","linkReferences":{}},"methodIdentifiers":{"DAI()":"e0bab4c4","SHIBA_FACTORY()":"a7f1dea2","SHIBA_ROUTER()":"2043d800","SUSHI_FACTORY()":"b753bb47","SUSHI_ROUTER()":"0c24f4fa","TARGET()":"cc1f2afa","TEAM_SWAP_THRESHOLD()":"16a20d05","UNISWAP_FACTORY()":"c74c0fac","UNISWAP_ROUTER()":"d8264920","USDC()":"89a30271","USDT()":"c54e44eb","WETH()":"ad5c4648","executeOnOpportunity()":"3c2448ed","finalContractMccBalance()":"c3afe45c","finalTargetPairWethReserve()":"b3600671","finalVerifierMccBalance()":"97f43b38","finalWethBalance()":"30b6ade6","initialContractMccBalance()":"dc36b4af","initialTargetPairWethReserve()":"bb9ca20d","initialVerifierMccBalance()":"360ddd65","initialWethBalance()":"ee29d913","observedPreloadedSyntheticInventory()":"4621d84d","outcomeCode()":"0035b239","profitAmount()":"5ff972cc","profitToken()":"49343624","triggeredAutoSwap()":"38272466","uniswapV2Call(address,uint256,uint256,bytes)":"10d1e85c","usedCrossDexExit()":"89a13a24","usedFlashswapFunding()":"15ff9f69"},"id":0}