{"abi":[{"type":"constructor","inputs":[],"stateMutability":"nonpayable"},{"type":"receive","stateMutability":"payable"},{"type":"function","name":"DAI","inputs":[],"outputs":[{"name":"","type":"address","internalType":"address"}],"stateMutability":"view"},{"type":"function","name":"MIM","inputs":[],"outputs":[{"name":"","type":"address","internalType":"address"}],"stateMutability":"view"},{"type":"function","name":"PATH_2_OVERFLOW_ANCHOR","inputs":[],"outputs":[{"name":"","type":"string","internalType":"string"}],"stateMutability":"view"},{"type":"function","name":"PATH_2_SUBTRACTION_ANCHOR","inputs":[],"outputs":[{"name":"","type":"string","internalType":"string"}],"stateMutability":"view"},{"type":"function","name":"SUSHI_ROUTER","inputs":[],"outputs":[{"name":"","type":"address","internalType":"address"}],"stateMutability":"view"},{"type":"function","name":"TARGET","inputs":[],"outputs":[{"name":"","type":"address","internalType":"contract ICauldronV4Like"}],"stateMutability":"view"},{"type":"function","name":"TARGET_CAULDRON","inputs":[],"outputs":[{"name":"","type":"address","internalType":"address"}],"stateMutability":"view"},{"type":"function","name":"UNISWAP_V2_ROUTER","inputs":[],"outputs":[{"name":"","type":"address","internalType":"address"}],"stateMutability":"view"},{"type":"function","name":"USDC","inputs":[],"outputs":[{"name":"","type":"address","internalType":"address"}],"stateMutability":"view"},{"type":"function","name":"WETH","inputs":[],"outputs":[{"name":"","type":"address","internalType":"address"}],"stateMutability":"view"},{"type":"function","name":"attemptFinalLiquidation","inputs":[],"outputs":[],"stateMutability":"nonpayable"},{"type":"function","name":"badDebtLocked","inputs":[],"outputs":[{"name":"","type":"bool","internalType":"bool"}],"stateMutability":"view"},{"type":"function","name":"borrowedAmount","inputs":[],"outputs":[{"name":"","type":"uint256","internalType":"uint256"}],"stateMutability":"view"},{"type":"function","name":"borrowedPart","inputs":[],"outputs":[{"name":"","type":"uint256","internalType":"uint256"}],"stateMutability":"view"},{"type":"function","name":"borrowedShare","inputs":[],"outputs":[{"name":"","type":"uint256","internalType":"uint256"}],"stateMutability":"view"},{"type":"function","name":"bugConfirmed","inputs":[],"outputs":[{"name":"","type":"bool","internalType":"bool"}],"stateMutability":"view"},{"type":"function","name":"collateralToken","inputs":[],"outputs":[{"name":"","type":"address","internalType":"address"}],"stateMutability":"view"},{"type":"function","name":"depositedAmount","inputs":[],"outputs":[{"name":"","type":"uint256","internalType":"uint256"}],"stateMutability":"view"},{"type":"function","name":"depositedShare","inputs":[],"outputs":[{"name":"","type":"uint256","internalType":"uint256"}],"stateMutability":"view"},{"type":"function","name":"dumpAsset","inputs":[],"outputs":[{"name":"","type":"address","internalType":"address"}],"stateMutability":"view"},{"type":"function","name":"dumpRouter","inputs":[],"outputs":[{"name":"","type":"address","internalType":"address"}],"stateMutability":"view"},{"type":"function","name":"dumpedForPriceImpact","inputs":[],"outputs":[{"name":"","type":"bool","internalType":"bool"}],"stateMutability":"view"},{"type":"function","name":"exchangeRateAfterDump","inputs":[],"outputs":[{"name":"","type":"uint256","internalType":"uint256"}],"stateMutability":"view"},{"type":"function","name":"exchangeRateBefore","inputs":[],"outputs":[{"name":"","type":"uint256","internalType":"uint256"}],"stateMutability":"view"},{"type":"function","name":"execute","inputs":[],"outputs":[{"name":"","type":"uint256","internalType":"uint256"}],"stateMutability":"nonpayable"},{"type":"function","name":"executeOnOpportunity","inputs":[],"outputs":[{"name":"","type":"uint256","internalType":"uint256"}],"stateMutability":"nonpayable"},{"type":"function","name":"executeStrategy","inputs":[{"name":"amount","type":"uint256","internalType":"uint256"},{"name":"depositBps","type":"uint16","internalType":"uint16"},{"name":"router","type":"address","internalType":"address"},{"name":"quote","type":"address","internalType":"address"}],"outputs":[{"name":"","type":"uint256","internalType":"uint256"}],"stateMutability":"nonpayable"},{"type":"function","name":"executeTo","inputs":[{"name":"recipient","type":"address","internalType":"address"}],"outputs":[{"name":"","type":"uint256","internalType":"uint256"}],"stateMutability":"nonpayable"},{"type":"function","name":"executeWithFlashAmount","inputs":[{"name":"amount","type":"uint256","internalType":"uint256"}],"outputs":[{"name":"","type":"uint256","internalType":"uint256"}],"stateMutability":"nonpayable"},{"type":"function","name":"exploit","inputs":[],"outputs":[{"name":"","type":"uint256","internalType":"uint256"}],"stateMutability":"nonpayable"},{"type":"function","name":"finalLiquidationRevertData","inputs":[],"outputs":[{"name":"","type":"bytes","internalType":"bytes"}],"stateMutability":"view"},{"type":"function","name":"finalLiquidationReverted","inputs":[],"outputs":[{"name":"","type":"bool","internalType":"bool"}],"stateMutability":"view"},{"type":"function","name":"flashAmount","inputs":[],"outputs":[{"name":"","type":"uint256","internalType":"uint256"}],"stateMutability":"view"},{"type":"function","name":"flashFee","inputs":[],"outputs":[{"name":"","type":"uint256","internalType":"uint256"}],"stateMutability":"view"},{"type":"function","name":"fullLiquidationShareNeeded","inputs":[],"outputs":[{"name":"","type":"uint256","internalType":"uint256"}],"stateMutability":"view"},{"type":"function","name":"hypothesisValidated","inputs":[],"outputs":[{"name":"","type":"bool","internalType":"bool"}],"stateMutability":"view"},{"type":"function","name":"insolventAfterDump","inputs":[],"outputs":[{"name":"","type":"bool","internalType":"bool"}],"stateMutability":"view"},{"type":"function","name":"lastAttemptRevertData","inputs":[],"outputs":[{"name":"","type":"bytes","internalType":"bytes"}],"stateMutability":"view"},{"type":"function","name":"lastBorrowAmount","inputs":[],"outputs":[{"name":"","type":"uint256","internalType":"uint256"}],"stateMutability":"view"},{"type":"function","name":"lastBorrowPart","inputs":[],"outputs":[{"name":"","type":"uint256","internalType":"uint256"}],"stateMutability":"view"},{"type":"function","name":"lastProfitAmount","inputs":[],"outputs":[{"name":"","type":"uint256","internalType":"uint256"}],"stateMutability":"view"},{"type":"function","name":"lastProfitToken","inputs":[],"outputs":[{"name":"","type":"address","internalType":"address"}],"stateMutability":"view"},{"type":"function","name":"onFlashLoan","inputs":[{"name":"sender","type":"address","internalType":"address"},{"name":"token","type":"address","internalType":"contract IERC20Like"},{"name":"amount","type":"uint256","internalType":"uint256"},{"name":"fee","type":"uint256","internalType":"uint256"},{"name":"","type":"bytes","internalType":"bytes"}],"outputs":[],"stateMutability":"nonpayable"},{"type":"function","name":"partialLiquidationExecuted","inputs":[],"outputs":[{"name":"","type":"bool","internalType":"bool"}],"stateMutability":"view"},{"type":"function","name":"positionCreated","inputs":[],"outputs":[{"name":"","type":"bool","internalType":"bool"}],"stateMutability":"view"},{"type":"function","name":"previewBorrowAmount","inputs":[],"outputs":[{"name":"","type":"uint256","internalType":"uint256"}],"stateMutability":"view"},{"type":"function","name":"previewCollateralToken","inputs":[],"outputs":[{"name":"","type":"address","internalType":"address"}],"stateMutability":"view"},{"type":"function","name":"previewFlashAmount","inputs":[],"outputs":[{"name":"","type":"uint256","internalType":"uint256"}],"stateMutability":"view"},{"type":"function","name":"previewProfitToken","inputs":[],"outputs":[{"name":"","type":"address","internalType":"address"}],"stateMutability":"pure"},{"type":"function","name":"probeBorrow","inputs":[{"name":"amount","type":"uint256","internalType":"uint256"}],"outputs":[],"stateMutability":"nonpayable"},{"type":"function","name":"probeLiquidation","inputs":[{"name":"part","type":"uint256","internalType":"uint256"}],"outputs":[],"stateMutability":"nonpayable"},{"type":"function","name":"profitAmount","inputs":[],"outputs":[{"name":"","type":"uint256","internalType":"uint256"}],"stateMutability":"view"},{"type":"function","name":"quoteAsset","inputs":[],"outputs":[{"name":"","type":"address","internalType":"address"}],"stateMutability":"view"},{"type":"function","name":"remainingBorrowPart","inputs":[],"outputs":[{"name":"","type":"uint256","internalType":"uint256"}],"stateMutability":"view"},{"type":"function","name":"remainingCollateralShare","inputs":[],"outputs":[{"name":"","type":"uint256","internalType":"uint256"}],"stateMutability":"view"},{"type":"function","name":"requiredCollateralShareForFullDebtAfterDump","inputs":[],"outputs":[{"name":"","type":"uint256","internalType":"uint256"}],"stateMutability":"view"},{"type":"function","name":"requiredCollateralShareForRemainingDebt","inputs":[],"outputs":[{"name":"","type":"uint256","internalType":"uint256"}],"stateMutability":"view"},{"type":"function","name":"residualDebtIsUnderwater","inputs":[],"outputs":[{"name":"","type":"bool","internalType":"bool"}],"stateMutability":"view"},{"type":"function","name":"run","inputs":[],"outputs":[{"name":"","type":"uint256","internalType":"uint256"}],"stateMutability":"nonpayable"},{"type":"function","name":"safePartialBorrowPart","inputs":[],"outputs":[{"name":"","type":"uint256","internalType":"uint256"}],"stateMutability":"view"},{"type":"function","name":"sweep","inputs":[{"name":"token","type":"address","internalType":"address"},{"name":"to","type":"address","internalType":"address"}],"outputs":[{"name":"amount","type":"uint256","internalType":"uint256"}],"stateMutability":"nonpayable"},{"type":"function","name":"underlyingToken","inputs":[],"outputs":[{"name":"","type":"address","internalType":"address"}],"stateMutability":"view"},{"type":"error","name":"ConcretePreconditionFailed","inputs":[{"name":"reason","type":"string","internalType":"string"}]},{"type":"error","name":"FlashLoanCallerMismatch","inputs":[{"name":"expected","type":"address","internalType":"address"},{"name":"actual","type":"address","internalType":"address"}]},{"type":"error","name":"FlashLoanSenderMismatch","inputs":[{"name":"expected","type":"address","internalType":"address"},{"name":"actual","type":"address","internalType":"address"}]},{"type":"error","name":"FlashLoanTokenMismatch","inputs":[{"name":"expected","type":"address","internalType":"address"},{"name":"actual","type":"address","internalType":"address"}]},{"type":"error","name":"ProbeBorrowSucceeded","inputs":[{"name":"part","type":"uint256","internalType":"uint256"},{"name":"share","type":"uint256","internalType":"uint256"}]},{"type":"error","name":"ProbeLiquidationSucceeded","inputs":[]}],"bytecode":{"object":"0x6080604052348015600e575f5ffd5b507399d8a9c45b2eca8864373a26d1459e3dff1e17f360045f6101000a81548173ffffffffffffffffffffffffffffffffffffffff021916908373ffffffffffffffffffffffffffffffffffffffff16021790555061a875806100705f395ff3fe6080604052600436106103af575f3560e01c8063ac7e101f116101e6578063cf3c6f321161010c578063e2678cc21161009f578063fdc0fe371161006e578063fdc0fe3714610d6c578063fdf262b714610d96578063fe87c37514610dc0578063ff6ff99814610dea576103b6565b8063e2678cc214610cb2578063e7bda23414610cdc578063f798d20b14610d06578063fd85816014610d42576103b6565b8063daec383d116100db578063daec383d14610c0a578063e07df5b414610c34578063e083133514610c5e578063e0bab4c414610c88576103b6565b8063cf3c6f3214610b50578063d76a31db14610b7a578063d7c564f614610bb6578063d9e835d614610be0576103b6565b8063bd7a598c11610184578063c416940b11610153578063c416940b14610aa8578063c4f0d1c614610ad2578063ca8ccab614610afc578063cc1f2afa14610b26576103b6565b8063bd7a598c14610a02578063be459c2a14610a2c578063c040622614610a54578063c288eaec14610a7e576103b6565b8063b0b62eeb116101c0578063b0b62eeb14610948578063b2016bd414610972578063b570137a1461099c578063b8dc491b146109c6576103b6565b8063ac7e101f146108b8578063ad5c4648146108e2578063ada2c46d1461090c576103b6565b80635ff972cc116102d657806389a3027111610269578063a66f4e4511610238578063a66f4e4514610810578063a6e59f531461083a578063a82ed9ec14610864578063ab9888e61461088e576103b6565b806389a302711461077c57806395c7775e146107a657806397f37399146107d05780639ad18f63146107fa576103b6565b80636d8c21a8116102a55780636d8c21a8146106d45780636dcb9575146106fe57806375ed2c0a146107285780637eb37bc914610752576103b6565b80635ff972cc1461062c57806361461954146106565780636236fa781461068057806363d9b770146106aa576103b6565b80631d01364c1161034e5780633c2448ed1161031d5780633c2448ed14610586578063463defd1146105b05780634ee8f105146105da57806352d11fb414610602576103b6565b80631d01364c146104e057806323e30c8b1461050a5780632495a599146105325780633c0122771461055c576103b6565b80630c24f4fa1161038a5780630c24f4fa1461043857806311f7cc62146104625780631afbb7a41461048c5780631bfc281c146104b6576103b6565b80620393fc146103ba57806304c56a86146103e45780630a2ad9831461040e576103b6565b366103b657005b5f5ffd5b3480156103c5575f5ffd5b506103ce610e14565b6040516103db9190618562565b60405180910390f35b3480156103ef575f5ffd5b506103f8610e1a565b6040516104059190618562565b60405180910390f35b348015610419575f5ffd5b50610422610e20565b60405161042f9190618562565b60405180910390f35b348015610443575f5ffd5b5061044c61105a565b60405161045991906185ba565b60405180910390f35b34801561046d575f5ffd5b50610476611072565b60405161048391906185ed565b60405180910390f35b348015610497575f5ffd5b506104a0611085565b6040516104ad9190618562565b60405180910390f35b3480156104c1575f5ffd5b506104ca61108b565b6040516104d791906185ed565b60405180910390f35b3480156104eb575f5ffd5b506104f461109e565b6040516105019190618562565b60405180910390f35b348015610515575f5ffd5b50610530600480360381019061052b9190618707565b6110a4565b005b34801561053d575f5ffd5b5061054661255a565b60405161055391906185ba565b60405180910390f35b348015610567575f5ffd5b5061057061257f565b60405161057d91906185ed565b60405180910390f35b348015610591575f5ffd5b5061059a612592565b6040516105a79190618562565b60405180910390f35b3480156105bb575f5ffd5b506105c46125a1565b6040516105d191906185ed565b60405180910390f35b3480156105e5575f5ffd5b5061060060048036038101906105fb919061879d565b6125b7565b005b34801561060d575f5ffd5b50610616612673565b6040516106239190618562565b60405180910390f35b348015610637575f5ffd5b50610640612679565b60405161064d9190618562565b60405180910390f35b348015610661575f5ffd5b5061066a61267f565b6040516106779190618562565b60405180910390f35b34801561068b575f5ffd5b5061069461268e565b6040516106a191906185ba565b60405180910390f35b3480156106b5575f5ffd5b506106be6126b3565b6040516106cb9190618562565b60405180910390f35b3480156106df575f5ffd5b506106e86126c2565b6040516106f591906185ed565b60405180910390f35b348015610709575f5ffd5b506107126126d5565b60405161071f9190618562565b60405180910390f35b348015610733575f5ffd5b5061073c6126de565b6040516107499190618562565b60405180910390f35b34801561075d575f5ffd5b506107666126e4565b60405161077391906185ed565b60405180910390f35b348015610787575f5ffd5b506107906126f7565b60405161079d91906185ba565b60405180910390f35b3480156107b1575f5ffd5b506107ba61270f565b6040516107c791906185ba565b60405180910390f35b3480156107db575f5ffd5b506107e4612810565b6040516107f19190618562565b60405180910390f35b348015610805575f5ffd5b5061080e612819565b005b34801561081b575f5ffd5b5061082461289c565b60405161083191906185ed565b60405180910390f35b348015610845575f5ffd5b5061084e6128ae565b60405161085b9190618562565b60405180910390f35b34801561086f575f5ffd5b506108786128b7565b60405161088591906185ba565b60405180910390f35b348015610899575f5ffd5b506108a26128cf565b6040516108af91906185ba565b60405180910390f35b3480156108c3575f5ffd5b506108cc6128f4565b6040516108d99190618562565b60405180910390f35b3480156108ed575f5ffd5b506108f66128fa565b60405161090391906185ba565b60405180910390f35b348015610917575f5ffd5b50610932600480360381019061092d91906187c8565b612912565b60405161093f9190618562565b60405180910390f35b348015610953575f5ffd5b5061095c612923565b6040516109699190618562565b60405180910390f35b34801561097d575f5ffd5b50610986612929565b60405161099391906185ba565b60405180910390f35b3480156109a7575f5ffd5b506109b061294d565b6040516109bd9190618562565b60405180910390f35b3480156109d1575f5ffd5b506109ec60048036038101906109e791906187f3565b612953565b6040516109f99190618562565b60405180910390f35b348015610a0d575f5ffd5b50610a166129e7565b604051610a2391906185ba565b60405180910390f35b348015610a37575f5ffd5b50610a526004803603810190610a4d919061879d565b6129ff565b005b348015610a5f575f5ffd5b50610a68612ab0565b604051610a759190618562565b60405180910390f35b348015610a89575f5ffd5b50610a92612abf565b604051610a9f91906185ba565b60405180910390f35b348015610ab3575f5ffd5b50610abc612ae7565b604051610ac991906185ed565b60405180910390f35b348015610add575f5ffd5b50610ae6612afa565b604051610af39190618562565b60405180910390f35b348015610b07575f5ffd5b50610b10612b00565b604051610b1d9190618562565b60405180910390f35b348015610b31575f5ffd5b50610b3a612b09565b604051610b47919061888c565b60405180910390f35b348015610b5b575f5ffd5b50610b64612b21565b604051610b7191906185ed565b60405180910390f35b348015610b85575f5ffd5b50610ba06004803603810190610b9b91906188dc565b612b37565b604051610bad9190618562565b60405180910390f35b348015610bc1575f5ffd5b50610bca613057565b604051610bd79190618562565b60405180910390f35b348015610beb575f5ffd5b50610bf461305d565b604051610c0191906189b0565b60405180910390f35b348015610c15575f5ffd5b50610c1e6130e9565b604051610c2b91906185ba565b60405180910390f35b348015610c3f575f5ffd5b50610c48613101565b604051610c559190618562565b60405180910390f35b348015610c69575f5ffd5b50610c72613107565b604051610c7f9190618562565b60405180910390f35b348015610c93575f5ffd5b50610c9c61310d565b604051610ca991906185ba565b60405180910390f35b348015610cbd575f5ffd5b50610cc6613125565b604051610cd39190618562565b60405180910390f35b348015610ce7575f5ffd5b50610cf061312e565b604051610cfd9190618562565b60405180910390f35b348015610d11575f5ffd5b50610d2c6004803603810190610d27919061879d565b613134565b604051610d399190618562565b60405180910390f35b348015610d4d575f5ffd5b50610d56613164565b604051610d639190618a22565b60405180910390f35b348015610d77575f5ffd5b50610d80613180565b604051610d8d91906189b0565b60405180910390f35b348015610da1575f5ffd5b50610daa61320c565b604051610db791906185ba565b60405180910390f35b348015610dcb575f5ffd5b50610dd4613231565b604051610de191906185ba565b60405180910390f35b348015610df5575f5ffd5b50610dfe61324c565b604051610e0b9190618a22565b60405180910390f35b60125481565b600d5481565b5f5f5f73ffffffffffffffffffffffffffffffffffffffff165f5f9054906101000a900473ffffffffffffffffffffffffffffffffffffffff1673ffffffffffffffffffffffffffffffffffffffff1614610e9b575f5f9054906101000a900473ffffffffffffffffffffffffffffffffffffffff16610f1d565b7346f54d434063e5f1a2b2cc6d9aaa657b1b9ff82c73ffffffffffffffffffffffffffffffffffffffff1663d8dfeb456040518163ffffffff1660e01b8152600401602060405180830381865afa158015610ef8573d5f5f3e3d5ffd5b505050506040513d601f19601f82011682018060405250810190610f1c9190618a56565b5b90505f73ffffffffffffffffffffffffffffffffffffffff168173ffffffffffffffffffffffffffffffffffffffff1603610f5b575f915050611057565b8073ffffffffffffffffffffffffffffffffffffffff166370a082317346f54d434063e5f1a2b2cc6d9aaa657b1b9ff82c73ffffffffffffffffffffffffffffffffffffffff16636b2ace876040518163ffffffff1660e01b8152600401602060405180830381865afa158015610fd4573d5f5f3e3d5ffd5b505050506040513d601f19601f82011682018060405250810190610ff89190618a56565b6040518263ffffffff1660e01b815260040161101491906185ba565b602060405180830381865afa15801561102f573d5f5f3e3d5ffd5b505050506040513d601f19601f820116820180604052508101906110539190618a95565b9150505b90565b73d9e1ce17f2641f24ae83637ab66a2cca9c378b9f81565b601460029054906101000a900460ff1681565b60095481565b601460069054906101000a900460ff1681565b60075481565b5f7346f54d434063e5f1a2b2cc6d9aaa657b1b9ff82c73ffffffffffffffffffffffffffffffffffffffff16636b2ace876040518163ffffffff1660e01b8152600401602060405180830381865afa158015611102573d5f5f3e3d5ffd5b505050506040513d601f19601f820116820180604052508101906111269190618a56565b90508073ffffffffffffffffffffffffffffffffffffffff163373ffffffffffffffffffffffffffffffffffffffff161461119a5780336040517fc86f3733000000000000000000000000000000000000000000000000000000008152600401611191929190618ac0565b60405180910390fd5b3073ffffffffffffffffffffffffffffffffffffffff168773ffffffffffffffffffffffffffffffffffffffff161461120c5730876040517fe5b688a1000000000000000000000000000000000000000000000000000000008152600401611203929190618ac0565b60405180910390fd5b5f5f9054906101000a900473ffffffffffffffffffffffffffffffffffffffff1673ffffffffffffffffffffffffffffffffffffffff168673ffffffffffffffffffffffffffffffffffffffff16146112be575f5f9054906101000a900473ffffffffffffffffffffffffffffffffffffffff16866040517f7c35bd100000000000000000000000000000000000000000000000000000000081526004016112b5929190618ac0565b60405180910390fd5b846005819055508360068190555061271060175f9054906101000a900461ffff1661ffff16866112ee9190618b14565b6112f89190618b82565b6007819055505f600754148061131b575083856113159190618bb2565b60075410155b1561135b576040517f67fb15b100000000000000000000000000000000000000000000000000000000815260040161135290618c2f565b60405180910390fd5b6113885f5f9054906101000a900473ffffffffffffffffffffffffffffffffffffffff1682600754613268565b8073ffffffffffffffffffffffffffffffffffffffff166302b9446c5f5f9054906101000a900473ffffffffffffffffffffffffffffffffffffffff16307346f54d434063e5f1a2b2cc6d9aaa657b1b9ff82c6007545f6040518663ffffffff1660e01b81526004016113ff959493929190618c86565b60408051808303815f875af115801561141a573d5f5f3e3d5ffd5b505050506040513d601f19601f8201168201806040525081019061143e9190618cd7565b905060085f8291905055505f6008540361148d576040517f67fb15b100000000000000000000000000000000000000000000000000000000815260040161148490618d5f565b60405180910390fd5b7346f54d434063e5f1a2b2cc6d9aaa657b1b9ff82c73ffffffffffffffffffffffffffffffffffffffff1663860ffea13060016008546040518463ffffffff1660e01b81526004016114e193929190618d7d565b5f604051808303815f87803b1580156114f8575f5ffd5b505af115801561150a573d5f5f3e3d5ffd5b505050505f7346f54d434063e5f1a2b2cc6d9aaa657b1b9ff82c73ffffffffffffffffffffffffffffffffffffffff16631c9e379b306040518263ffffffff1660e01b815260040161155c91906185ba565b602060405180830381865afa158015611577573d5f5f3e3d5ffd5b505050506040513d601f19601f8201168201806040525081019061159b9190618a95565b036115db576040517f67fb15b10000000000000000000000000000000000000000000000000000000081526004016115d290618dfc565b60405180910390fd5b600160145f6101000a81548160ff0219169083151502179055506115fd613501565b6009819055505f60095403611647576040517f67fb15b100000000000000000000000000000000000000000000000000000000815260040161163e90618e64565b60405180910390fd5b6116526009546135ff565b600a5f600b5f8491905055839190505550505f600a5414806116fe57505f7346f54d434063e5f1a2b2cc6d9aaa657b1b9ff82c73ffffffffffffffffffffffffffffffffffffffff166348e4163e306040518263ffffffff1660e01b81526004016116bd91906185ba565b602060405180830381865afa1580156116d8573d5f5f3e3d5ffd5b505050506040513d601f19601f820116820180604052508101906116fc9190618a95565b145b1561173e576040517f67fb15b100000000000000000000000000000000000000000000000000000000815260040161173590618ecc565b60405180910390fd5b61175b7399d8a9c45b2eca8864373a26d1459e3dff1e17f3613a14565b6117716007548661176c9190618eea565b613ba4565b6001601460016101000a81548160ff0219169083151502179055507346f54d434063e5f1a2b2cc6d9aaa657b1b9ff82c73ffffffffffffffffffffffffffffffffffffffff166302ce728f6040518163ffffffff1660e01b815260040160408051808303815f875af192505050801561180857506040513d601f19601f820116820180604052508101906118059190618f47565b60015b611898577346f54d434063e5f1a2b2cc6d9aaa657b1b9ff82c73ffffffffffffffffffffffffffffffffffffffff16633ba0b9a96040518163ffffffff1660e01b8152600401602060405180830381865afa158015611869573d5f5f3e3d5ffd5b505050506040513d601f19601f8201168201806040525081019061188d9190618a95565b600d819055506118a2565b80600d8190555050505b5f600d54036118e6576040517f67fb15b10000000000000000000000000000000000000000000000000000000081526004016118dd90618fcf565b60405180910390fd5b7346f54d434063e5f1a2b2cc6d9aaa657b1b9ff82c73ffffffffffffffffffffffffffffffffffffffff166338b51ce1306040518263ffffffff1660e01b815260040161193391906185ba565b602060405180830381865afa15801561194e573d5f5f3e3d5ffd5b505050506040513d601f19601f820116820180604052508101906119729190618fed565b15601460026101000a81548160ff021916908315150217905550601460029054906101000a900460ff166119db576040517f67fb15b10000000000000000000000000000000000000000000000000000000081526004016119d290619062565b60405180910390fd5b611a727346f54d434063e5f1a2b2cc6d9aaa657b1b9ff82c73ffffffffffffffffffffffffffffffffffffffff166348e4163e306040518263ffffffff1660e01b8152600401611a2b91906185ba565b602060405180830381865afa158015611a46573d5f5f3e3d5ffd5b505050506040513d601f19601f82011682018060405250810190611a6a9190618a95565b600d54613efe565b6012819055507346f54d434063e5f1a2b2cc6d9aaa657b1b9ff82c73ffffffffffffffffffffffffffffffffffffffff16631c9e379b306040518263ffffffff1660e01b8152600401611ac591906185ba565b602060405180830381865afa158015611ae0573d5f5f3e3d5ffd5b505050506040513d601f19601f82011682018060405250810190611b049190618a95565b60125411611b47576040517f67fb15b1000000000000000000000000000000000000000000000000000000008152600401611b3e906190ca565b60405180910390fd5b611b4f614111565b600e819055505f600e5403611b99576040517f67fb15b1000000000000000000000000000000000000000000000000000000008152600401611b9090619132565b60405180910390fd5b7346f54d434063e5f1a2b2cc6d9aaa657b1b9ff82c73ffffffffffffffffffffffffffffffffffffffff166348e4163e306040518263ffffffff1660e01b8152600401611be691906185ba565b602060405180830381865afa158015611c01573d5f5f3e3d5ffd5b505050506040513d601f19601f82011682018060405250810190611c259190618a95565b600e5410611c68576040517f67fb15b1000000000000000000000000000000000000000000000000000000008152600401611c5f9061919a565b60405180910390fd5b611c7061423b565b611c7b600e54614490565b6001601460036101000a81548160ff0219169083151502179055507346f54d434063e5f1a2b2cc6d9aaa657b1b9ff82c73ffffffffffffffffffffffffffffffffffffffff166348e4163e306040518263ffffffff1660e01b8152600401611ce391906185ba565b602060405180830381865afa158015611cfe573d5f5f3e3d5ffd5b505050506040513d601f19601f82011682018060405250810190611d229190618a95565b600f819055507346f54d434063e5f1a2b2cc6d9aaa657b1b9ff82c73ffffffffffffffffffffffffffffffffffffffff16631c9e379b306040518263ffffffff1660e01b8152600401611d7591906185ba565b602060405180830381865afa158015611d90573d5f5f3e3d5ffd5b505050506040513d601f19601f82011682018060405250810190611db49190618a95565b6010819055505f600f5403611dfe576040517f67fb15b1000000000000000000000000000000000000000000000000000000008152600401611df590619202565b60405180910390fd5b7346f54d434063e5f1a2b2cc6d9aaa657b1b9ff82c73ffffffffffffffffffffffffffffffffffffffff166338b51ce1306040518263ffffffff1660e01b8152600401611e4b91906185ba565b602060405180830381865afa158015611e66573d5f5f3e3d5ffd5b505050506040513d601f19601f82011682018060405250810190611e8a9190618fed565b15611eca576040517f67fb15b1000000000000000000000000000000000000000000000000000000008152600401611ec19061926a565b60405180910390fd5b611ed8600f54600d54613efe565b60118190555060105460115411601460056101000a81548160ff021916908315150217905550601460059054906101000a900460ff16611f4d576040517f67fb15b1000000000000000000000000000000000000000000000000000000008152600401611f44906192f8565b60405180910390fd5b611f6a7399d8a9c45b2eca8864373a26d1459e3dff1e17f3613a14565b611f75600f5461462d565b7399d8a9c45b2eca8864373a26d1459e3dff1e17f373ffffffffffffffffffffffffffffffffffffffff166370a08231306040518263ffffffff1660e01b8152600401611fc291906185ba565b602060405180830381865afa158015611fdd573d5f5f3e3d5ffd5b505050506040513d601f19601f820116820180604052508101906120019190618a95565b1015612042576040517f67fb15b100000000000000000000000000000000000000000000000000000000815260040161203990619386565b60405180910390fd5b3073ffffffffffffffffffffffffffffffffffffffff16639ad18f636040518163ffffffff1660e01b81526004015f604051808303815f87803b158015612087575f5ffd5b505af1925050508015612098575060015b6120fd573d805f81146120c6576040519150601f19603f3d011682016040523d82523d5f602084013e6120cb565b606091505b506001601460046101000a81548160ff02191690831515021790555080601590816120f691906195c5565b5050612138565b6040517f67fb15b100000000000000000000000000000000000000000000000000000000815260040161212f906196de565b60405180910390fd5b601460039054906101000a900460ff1680156121605750601460049054906101000a900460ff165b80156121785750601460059054906101000a900460ff165b601460066101000a81548160ff021916908315150217905550601460069054906101000a900460ff166121e0576040517f67fb15b10000000000000000000000000000000000000000000000000000000081526004016121d790619746565b60405180910390fd5b5f84866121ed9190618bb2565b9050805f5f9054906101000a900473ffffffffffffffffffffffffffffffffffffffff1673ffffffffffffffffffffffffffffffffffffffff166370a08231306040518263ffffffff1660e01b815260040161224991906185ba565b602060405180830381865afa158015612264573d5f5f3e3d5ffd5b505050506040513d601f19601f820116820180604052508101906122889190618a95565b101561233a576123395f5f9054906101000a900473ffffffffffffffffffffffffffffffffffffffff1673ffffffffffffffffffffffffffffffffffffffff166370a08231306040518263ffffffff1660e01b81526004016122ea91906185ba565b602060405180830381865afa158015612305573d5f5f3e3d5ffd5b505050506040513d601f19601f820116820180604052508101906123299190618a95565b826123349190618eea565b614778565b5b805f5f9054906101000a900473ffffffffffffffffffffffffffffffffffffffff1673ffffffffffffffffffffffffffffffffffffffff166370a08231306040518263ffffffff1660e01b815260040161239491906185ba565b602060405180830381865afa1580156123af573d5f5f3e3d5ffd5b505050506040513d601f19601f820116820180604052508101906123d39190618a95565b1015612414576040517f67fb15b100000000000000000000000000000000000000000000000000000000815260040161240b906197d4565b60405180910390fd5b61243f5f5f9054906101000a900473ffffffffffffffffffffffffffffffffffffffff168383614c3f565b61246960015f9054906101000a900473ffffffffffffffffffffffffffffffffffffffff16614d8e565b507399d8a9c45b2eca8864373a26d1459e3dff1e17f373ffffffffffffffffffffffffffffffffffffffff166370a08231306040518263ffffffff1660e01b81526004016124b791906185ba565b602060405180830381865afa1580156124d2573d5f5f3e3d5ffd5b505050506040513d601f19601f820116820180604052508101906124f69190618a95565b6013819055507399d8a9c45b2eca8864373a26d1459e3dff1e17f360045f6101000a81548173ffffffffffffffffffffffffffffffffffffffff021916908373ffffffffffffffffffffffffffffffffffffffff1602179055505050505050505050565b60015f9054906101000a900473ffffffffffffffffffffffffffffffffffffffff1681565b601460039054906101000a900460ff1681565b5f61259c336150ca565b905090565b5f601460069054906101000a900460ff16905090565b3073ffffffffffffffffffffffffffffffffffffffff163373ffffffffffffffffffffffffffffffffffffffff1614612625576040517f67fb15b100000000000000000000000000000000000000000000000000000000815260040161261c9061983c565b60405180910390fd5b5f5f612630836135ff565b9150915081816040517f079d7b9300000000000000000000000000000000000000000000000000000000815260040161266a92919061985a565b60405180910390fd5b600b5481565b60135481565b5f612689336150ca565b905090565b60045f9054906101000a900473ffffffffffffffffffffffffffffffffffffffff1681565b5f6126bd336150ca565b905090565b601460059054906101000a900460ff1681565b5f601354905090565b600f5481565b601460019054906101000a900460ff1681565b73a0b86991c6218b36c1d19d4a2e9eb0ce3606eb4881565b5f5f73ffffffffffffffffffffffffffffffffffffffff165f5f9054906101000a900473ffffffffffffffffffffffffffffffffffffffff1673ffffffffffffffffffffffffffffffffffffffff1614612789575f5f9054906101000a900473ffffffffffffffffffffffffffffffffffffffff1661280b565b7346f54d434063e5f1a2b2cc6d9aaa657b1b9ff82c73ffffffffffffffffffffffffffffffffffffffff1663d8dfeb456040518163ffffffff1660e01b8152600401602060405180830381865afa1580156127e6573d5f5f3e3d5ffd5b505050506040513d601f19601f8201168201806040525081019061280a9190618a56565b5b905090565b5f600954905090565b3073ffffffffffffffffffffffffffffffffffffffff163373ffffffffffffffffffffffffffffffffffffffff1614612887576040517f67fb15b100000000000000000000000000000000000000000000000000000000815260040161287e9061983c565b60405180910390fd5b61288f61423b565b61289a600f54614490565b565b60145f9054906101000a900460ff1681565b5f600a54905090565b737a250d5630b4cf539739df2c5dacb4c659f2488d81565b60035f9054906101000a900473ffffffffffffffffffffffffffffffffffffffff1681565b60105481565b73c02aaa39b223fe8d0a0e5c4f27ead9083c756cc281565b5f61291c826150ca565b9050919050565b600a5481565b5f5f9054906101000a900473ffffffffffffffffffffffffffffffffffffffff1681565b60055481565b5f8273ffffffffffffffffffffffffffffffffffffffff166370a08231306040518263ffffffff1660e01b815260040161298d91906185ba565b602060405180830381865afa1580156129a8573d5f5f3e3d5ffd5b505050506040513d601f19601f820116820180604052508101906129cc9190618a95565b90505f81146129e1576129e0838383614c3f565b5b92915050565b7346f54d434063e5f1a2b2cc6d9aaa657b1b9ff82c81565b3073ffffffffffffffffffffffffffffffffffffffff163373ffffffffffffffffffffffffffffffffffffffff1614612a6d576040517f67fb15b1000000000000000000000000000000000000000000000000000000008152600401612a649061983c565b60405180910390fd5b612a7561423b565b612a7e81614490565b6040517fa213514f00000000000000000000000000000000000000000000000000000000815260040160405180910390fd5b5f612aba336150ca565b905090565b5f60025f9054906101000a900473ffffffffffffffffffffffffffffffffffffffff16905090565b601460049054906101000a900460ff1681565b60085481565b5f600954905090565b7346f54d434063e5f1a2b2cc6d9aaa657b1b9ff82c81565b5f601460069054906101000a900460ff16905090565b5f612b406150f4565b612b48615326565b5f8503612b8a576040517f67fb15b1000000000000000000000000000000000000000000000000000000008152600401612b81906198cb565b60405180910390fd5b5f8461ffff161480612ba257506127108461ffff1610155b15612be2576040517f67fb15b1000000000000000000000000000000000000000000000000000000008152600401612bd990619933565b60405180910390fd5b73d9e1ce17f2641f24ae83637ab66a2cca9c378b9f73ffffffffffffffffffffffffffffffffffffffff168373ffffffffffffffffffffffffffffffffffffffff1614158015612c725750737a250d5630b4cf539739df2c5dacb4c659f2488d73ffffffffffffffffffffffffffffffffffffffff168373ffffffffffffffffffffffffffffffffffffffff1614155b15612cb2576040517f67fb15b1000000000000000000000000000000000000000000000000000000008152600401612ca99061999b565b60405180910390fd5b5f73ffffffffffffffffffffffffffffffffffffffff168273ffffffffffffffffffffffffffffffffffffffff161480612d3757505f5f9054906101000a900473ffffffffffffffffffffffffffffffffffffffff1673ffffffffffffffffffffffffffffffffffffffff168273ffffffffffffffffffffffffffffffffffffffff16145b15612d77576040517f67fb15b1000000000000000000000000000000000000000000000000000000008152600401612d6e90619a03565b60405180910390fd5b8360175f6101000a81548161ffff021916908361ffff1602179055508260185f6101000a81548173ffffffffffffffffffffffffffffffffffffffff021916908373ffffffffffffffffffffffffffffffffffffffff16021790555081601760026101000a81548173ffffffffffffffffffffffffffffffffffffffff021916908373ffffffffffffffffffffffffffffffffffffffff1602179055507346f54d434063e5f1a2b2cc6d9aaa657b1b9ff82c73ffffffffffffffffffffffffffffffffffffffff16633ba0b9a96040518163ffffffff1660e01b8152600401602060405180830381865afa158015612e71573d5f5f3e3d5ffd5b505050506040513d601f19601f82011682018060405250810190612e959190618a95565b600c819055505f600c5403612edf576040517f67fb15b1000000000000000000000000000000000000000000000000000000008152600401612ed690619a6b565b60405180910390fd5b7346f54d434063e5f1a2b2cc6d9aaa657b1b9ff82c73ffffffffffffffffffffffffffffffffffffffff16636b2ace876040518163ffffffff1660e01b8152600401602060405180830381865afa158015612f3c573d5f5f3e3d5ffd5b505050506040513d601f19601f82011682018060405250810190612f609190618a56565b73ffffffffffffffffffffffffffffffffffffffff1663f1676d3730305f5f9054906101000a900473ffffffffffffffffffffffffffffffffffffffff168960405180602001604052805f8152506040518663ffffffff1660e01b8152600401612fce959493929190619aa9565b5f604051808303815f87803b158015612fe5575f5ffd5b505af1158015612ff7573d5f5f3e3d5ffd5b50505050601460069054906101000a900460ff1661304a576040517f67fb15b100000000000000000000000000000000000000000000000000000000815260040161304190619b4b565b60405180910390fd5b6013549050949350505050565b60115481565b6015805461306a906193fe565b80601f0160208091040260200160405190810160405280929190818152602001828054613096906193fe565b80156130e15780601f106130b8576101008083540402835291602001916130e1565b820191905f5260205f20905b8154815290600101906020018083116130c457829003601f168201915b505050505081565b7399d8a9c45b2eca8864373a26d1459e3dff1e17f381565b60065481565b600c5481565b736b175474e89094c44da98b954eedeac495271d0f81565b5f601254905090565b600e5481565b5f61313d6150f4565b5f613147836154e0565b905061315b6131555f6159cf565b82615a12565b80915050919050565b6040518060600160405280602b815260200161a7e7602b913981565b6016805461318d906193fe565b80601f01602080910402602001604051908101604052809291908181526020018280546131b9906193fe565b80156132045780601f106131db57610100808354040283529160200191613204565b820191905f5260205f20905b8154815290600101906020018083116131e757829003601f168201915b505050505081565b60025f9054906101000a900473ffffffffffffffffffffffffffffffffffffffff1681565b5f7399d8a9c45b2eca8864373a26d1459e3dff1e17f3905090565b6040518060600160405280602e815260200161a812602e913981565b5f5f8473ffffffffffffffffffffffffffffffffffffffff1663095ea7b360e01b855f60405160240161329c929190619ba5565b604051602081830303815290604052907bffffffffffffffffffffffffffffffffffffffffffffffffffffffff19166020820180517bffffffffffffffffffffffffffffffffffffffffffffffffffffffff83818316178352505050506040516133069190619c06565b5f604051808303815f865af19150503d805f811461333f576040519150601f19603f3d011682016040523d82523d5f602084013e613344565b606091505b509150915081801561337157505f8151148061337057508080602001905181019061336f9190618fed565b5b5b6133b0576040517f08c379a00000000000000000000000000000000000000000000000000000000081526004016133a790619c66565b60405180910390fd5b8473ffffffffffffffffffffffffffffffffffffffff1663095ea7b360e01b85856040516024016133e2929190619c84565b604051602081830303815290604052907bffffffffffffffffffffffffffffffffffffffffffffffffffffffff19166020820180517bffffffffffffffffffffffffffffffffffffffffffffffffffffffff838183161783525050505060405161344c9190619c06565b5f604051808303815f865af19150503d805f8114613485576040519150601f19603f3d011682016040523d82523d5f602084013e61348a565b606091505b5080925081935050508180156134bb57505f815114806134ba5750808060200190518101906134b99190618fed565b5b5b6134fa576040517f08c379a00000000000000000000000000000000000000000000000000000000081526004016134f190619cf5565b60405180910390fd5b5050505050565b5f5f61350b615ba6565b90505f810361351d575f9150506135fc565b5f61352661614f565b90505f8103613539575f925050506135fc565b6135438282616514565b92505f6127106126ac856135579190618b14565b6135619190618b82565b90505f811461356e578093505b6135778461652c565b15613584575050506135fc565b5f5f90505f8590505f5f90505b6018811080156135ac57506001836135a99190618bb2565b82115b156135f2575f600183856135c09190618bb2565b901c90506135cd8161652c565b156135da578093506135de565b8092505b5080806135ea90619d13565b915050613591565b5081955050505050505b90565b5f5f5f600267ffffffffffffffff81111561361d5761361c6193a4565b5b60405190808252806020026020018201604052801561364b5781602001602082028036833780820191505090505b5090505f600267ffffffffffffffff81111561366a576136696193a4565b5b6040519080825280602002602001820160405280156136985781602001602082028036833780820191505090505b5090505f600267ffffffffffffffff8111156136b7576136b66193a4565b5b6040519080825280602002602001820160405280156136ea57816020015b60608152602001906001900390816136d55790505b509050600b835f8151811061370257613701619d5a565b5b602002602001019060ff16908160ff16815250505f5f5f60405160200161372b93929190619d87565b604051602081830303815290604052815f8151811061374d5761374c619d5a565b5b602002602001018190525060058360018151811061376e5761376d619d5a565b5b602002602001019060ff16908160ff16815250508530604051602001613795929190619dd4565b604051602081830303815290604052816001815181106137b8576137b7619d5a565b5b60200260200101819052507346f54d434063e5f1a2b2cc6d9aaa657b1b9ff82c73ffffffffffffffffffffffffffffffffffffffff1663656f3d648484846040518463ffffffff1660e01b81526004016138149392919061a06c565b60408051808303815f875af115801561382f573d5f5f3e3d5ffd5b505050506040513d601f19601f820116820180604052508101906138539190618cd7565b80955081965050505f85148061386857505f84145b15613a0c577346f54d434063e5f1a2b2cc6d9aaa657b1b9ff82c73ffffffffffffffffffffffffffffffffffffffff166348e4163e306040518263ffffffff1660e01b81526004016138ba91906185ba565b602060405180830381865afa1580156138d5573d5f5f3e3d5ffd5b505050506040513d601f19601f820116820180604052508101906138f99190618a95565b94507346f54d434063e5f1a2b2cc6d9aaa657b1b9ff82c73ffffffffffffffffffffffffffffffffffffffff16636b2ace876040518163ffffffff1660e01b8152600401602060405180830381865afa158015613958573d5f5f3e3d5ffd5b505050506040513d601f19601f8201168201806040525081019061397c9190618a56565b73ffffffffffffffffffffffffffffffffffffffff1663f7888aec7399d8a9c45b2eca8864373a26d1459e3dff1e17f3306040518363ffffffff1660e01b81526004016139ca929190618ac0565b602060405180830381865afa1580156139e5573d5f5f3e3d5ffd5b505050506040513d601f19601f82011682018060405250810190613a099190618a95565b93505b505050915091565b5f7346f54d434063e5f1a2b2cc6d9aaa657b1b9ff82c73ffffffffffffffffffffffffffffffffffffffff16636b2ace876040518163ffffffff1660e01b8152600401602060405180830381865afa158015613a72573d5f5f3e3d5ffd5b505050506040513d601f19601f82011682018060405250810190613a969190618a56565b90505f8173ffffffffffffffffffffffffffffffffffffffff1663f7888aec84306040518363ffffffff1660e01b8152600401613ad4929190618ac0565b602060405180830381865afa158015613aef573d5f5f3e3d5ffd5b505050506040513d601f19601f82011682018060405250810190613b139190618a95565b90505f8114613b9f578173ffffffffffffffffffffffffffffffffffffffff166397da6d308430305f866040518663ffffffff1660e01b8152600401613b5d95949392919061a0b6565b60408051808303815f875af1158015613b78573d5f5f3e3d5ffd5b505050506040513d601f19601f82011682018060405250810190613b9c9190618cd7565b50505b505050565b5f8103613be6576040517f67fb15b1000000000000000000000000000000000000000000000000000000008152600401613bdd9061a151565b60405180910390fd5b60185f9054906101000a900473ffffffffffffffffffffffffffffffffffffffff1660035f6101000a81548173ffffffffffffffffffffffffffffffffffffffff021916908373ffffffffffffffffffffffffffffffffffffffff160217905550601760029054906101000a900473ffffffffffffffffffffffffffffffffffffffff1660025f6101000a81548173ffffffffffffffffffffffffffffffffffffffff021916908373ffffffffffffffffffffffffffffffffffffffff1602179055505f613d175f5f9054906101000a900473ffffffffffffffffffffffffffffffffffffffff1660025f9054906101000a900473ffffffffffffffffffffffffffffffffffffffff1660035f9054906101000a900473ffffffffffffffffffffffffffffffffffffffff16616692565b15613d4d57613d4660025f9054906101000a900473ffffffffffffffffffffffffffffffffffffffff16614d8e565b9050613e23565b613d5682616735565b613d95576040517f67fb15b1000000000000000000000000000000000000000000000000000000008152600401613d8c9061a1b9565b60405180910390fd5b60015f9054906101000a900473ffffffffffffffffffffffffffffffffffffffff1660025f6101000a81548173ffffffffffffffffffffffffffffffffffffffff021916908373ffffffffffffffffffffffffffffffffffffffff160217905550613e2060015f9054906101000a900473ffffffffffffffffffffffffffffffffffffffff16614d8e565b90505b801580613eba57505f7399d8a9c45b2eca8864373a26d1459e3dff1e17f373ffffffffffffffffffffffffffffffffffffffff166370a08231306040518263ffffffff1660e01b8152600401613e7991906185ba565b602060405180830381865afa158015613e94573d5f5f3e3d5ffd5b505050506040513d601f19601f82011682018060405250810190613eb89190618a95565b145b15613efa576040517f67fb15b1000000000000000000000000000000000000000000000000000000008152600401613ef19061a221565b60405180910390fd5b5050565b5f5f831480613f0c57505f82145b15613f19575f905061410b565b5f613f238461462d565b90505f670de0b6b3a7640000620186a0613f3d9190618b14565b847346f54d434063e5f1a2b2cc6d9aaa657b1b9ff82c73ffffffffffffffffffffffffffffffffffffffff16636ec097fb6040518163ffffffff1660e01b8152600401602060405180830381865afa158015613f9b573d5f5f3e3d5ffd5b505050506040513d601f19601f82011682018060405250810190613fbf9190618a95565b84613fca9190618b14565b613fd49190618b14565b613fde9190618b82565b90505f7346f54d434063e5f1a2b2cc6d9aaa657b1b9ff82c73ffffffffffffffffffffffffffffffffffffffff16636b2ace876040518163ffffffff1660e01b8152600401602060405180830381865afa15801561403e573d5f5f3e3d5ffd5b505050506040513d601f19601f820116820180604052508101906140629190618a56565b73ffffffffffffffffffffffffffffffffffffffff16634ffe34db5f5f9054906101000a900473ffffffffffffffffffffffffffffffffffffffff166040518263ffffffff1660e01b81526004016140ba91906185ba565b6040805180830381865afa1580156140d4573d5f5f3e3d5ffd5b505050506040513d601f19601f820116820180604052508101906140f8919061a320565b905061410581835f616c14565b93505050505b92915050565b5f5f7346f54d434063e5f1a2b2cc6d9aaa657b1b9ff82c73ffffffffffffffffffffffffffffffffffffffff166348e4163e306040518263ffffffff1660e01b815260040161416091906185ba565b602060405180830381865afa15801561417b573d5f5f3e3d5ffd5b505050506040513d601f19601f8201168201806040525081019061419f9190618a95565b9050600181116141b2575f915050614238565b6141bc6001616ce7565b6141c9575f915050614238565b5f600190505f6001836141dc9190618eea565b90505b80821015614231575f60018083856141f79190618bb2565b6142019190618bb2565b901c905061420e81616ce7565b1561421b5780925061422b565b6001816142289190618eea565b91505b506141df565b8193505050505b90565b5f7399d8a9c45b2eca8864373a26d1459e3dff1e17f373ffffffffffffffffffffffffffffffffffffffff166370a08231306040518263ffffffff1660e01b815260040161428991906185ba565b602060405180830381865afa1580156142a4573d5f5f3e3d5ffd5b505050506040513d601f19601f820116820180604052508101906142c89190618a95565b90505f81036142d7575061448e565b6143767399d8a9c45b2eca8864373a26d1459e3dff1e17f37346f54d434063e5f1a2b2cc6d9aaa657b1b9ff82c73ffffffffffffffffffffffffffffffffffffffff16636b2ace876040518163ffffffff1660e01b8152600401602060405180830381865afa15801561434c573d5f5f3e3d5ffd5b505050506040513d601f19601f820116820180604052508101906143709190618a56565b83613268565b7346f54d434063e5f1a2b2cc6d9aaa657b1b9ff82c73ffffffffffffffffffffffffffffffffffffffff16636b2ace876040518163ffffffff1660e01b8152600401602060405180830381865afa1580156143d3573d5f5f3e3d5ffd5b505050506040513d601f19601f820116820180604052508101906143f79190618a56565b73ffffffffffffffffffffffffffffffffffffffff166302b9446c7399d8a9c45b2eca8864373a26d1459e3dff1e17f33030855f6040518663ffffffff1660e01b815260040161444b959493929190618c86565b60408051808303815f875af1158015614466573d5f5f3e3d5ffd5b505050506040513d601f19601f8201168201806040525081019061448a9190618cd7565b5050505b565b5f600167ffffffffffffffff8111156144ac576144ab6193a4565b5b6040519080825280602002602001820160405280156144da5781602001602082028036833780820191505090505b5090505f600167ffffffffffffffff8111156144f9576144f86193a4565b5b6040519080825280602002602001820160405280156145275781602001602082028036833780820191505090505b50905030825f8151811061453e5761453d619d5a565b5b602002602001019073ffffffffffffffffffffffffffffffffffffffff16908173ffffffffffffffffffffffffffffffffffffffff168152505082815f8151811061458c5761458b619d5a565b5b6020026020010181815250507346f54d434063e5f1a2b2cc6d9aaa657b1b9ff82c73ffffffffffffffffffffffffffffffffffffffff1663ff6ff84b8383305f60405180602001604052805f8152506040518663ffffffff1660e01b81526004016145fb95949392919061a402565b5f604051808303815f87803b158015614612575f5ffd5b505af1158015614624573d5f5f3e3d5ffd5b50505050505050565b5f5f5f7346f54d434063e5f1a2b2cc6d9aaa657b1b9ff82c73ffffffffffffffffffffffffffffffffffffffff16638285ef406040518163ffffffff1660e01b81526004016040805180830381865afa15801561468c573d5f5f3e3d5ffd5b505050506040513d601f19601f820116820180604052508101906146b0919061a468565b915091505f8414806146d357505f816fffffffffffffffffffffffffffffffff16145b156146e2575f92505050614773565b806fffffffffffffffffffffffffffffffff16826fffffffffffffffffffffffffffffffff16856147139190618b14565b61471d9190618b82565b92505f816fffffffffffffffffffffffffffffffff16836fffffffffffffffffffffffffffffffff16866147519190618b14565b61475b919061a4a6565b146147705760018361476d9190618bb2565b92505b50505b919050565b5f810315614c3c575f7399d8a9c45b2eca8864373a26d1459e3dff1e17f373ffffffffffffffffffffffffffffffffffffffff166370a08231306040518263ffffffff1660e01b81526004016147ce91906185ba565b602060405180830381865afa1580156147e9573d5f5f3e3d5ffd5b505050506040513d601f19601f8201168201806040525081019061480d9190618a95565b90505f810361481c5750614c3c565b61487073d9e1ce17f2641f24ae83637ab66a2cca9c378b9f7399d8a9c45b2eca8864373a26d1459e3dff1e17f35f5f9054906101000a900473ffffffffffffffffffffffffffffffffffffffff1684616e3e565b1561487b5750614c3c565b61495a737a250d5630b4cf539739df2c5dacb4c659f2488d7399d8a9c45b2eca8864373a26d1459e3dff1e17f35f5f9054906101000a900473ffffffffffffffffffffffffffffffffffffffff167399d8a9c45b2eca8864373a26d1459e3dff1e17f373ffffffffffffffffffffffffffffffffffffffff166370a08231306040518263ffffffff1660e01b815260040161491691906185ba565b602060405180830381865afa158015614931573d5f5f3e3d5ffd5b505050506040513d601f19601f820116820180604052508101906149559190618a95565b616e3e565b156149655750614c3c565b5f73ffffffffffffffffffffffffffffffffffffffff1660015f9054906101000a900473ffffffffffffffffffffffffffffffffffffffff1673ffffffffffffffffffffffffffffffffffffffff161480614a2c57505f5f9054906101000a900473ffffffffffffffffffffffffffffffffffffffff1673ffffffffffffffffffffffffffffffffffffffff1660015f9054906101000a900473ffffffffffffffffffffffffffffffffffffffff1673ffffffffffffffffffffffffffffffffffffffff16145b15614a375750614c3c565b7399d8a9c45b2eca8864373a26d1459e3dff1e17f373ffffffffffffffffffffffffffffffffffffffff166370a08231306040518263ffffffff1660e01b8152600401614a8491906185ba565b602060405180830381865afa158015614a9f573d5f5f3e3d5ffd5b505050506040513d601f19601f82011682018060405250810190614ac39190618a95565b90505f8103614ad25750614c3c565b614b2773d9e1ce17f2641f24ae83637ab66a2cca9c378b9f7399d8a9c45b2eca8864373a26d1459e3dff1e17f360015f9054906101000a900473ffffffffffffffffffffffffffffffffffffffff1684616e3e565b15614b3b57614b3461713a565b5050614c3c565b7399d8a9c45b2eca8864373a26d1459e3dff1e17f373ffffffffffffffffffffffffffffffffffffffff166370a08231306040518263ffffffff1660e01b8152600401614b8891906185ba565b602060405180830381865afa158015614ba3573d5f5f3e3d5ffd5b505050506040513d601f19601f82011682018060405250810190614bc79190618a95565b90505f8103614bd65750614c3c565b614c2b737a250d5630b4cf539739df2c5dacb4c659f2488d7399d8a9c45b2eca8864373a26d1459e3dff1e17f360015f9054906101000a900473ffffffffffffffffffffffffffffffffffffffff1684616e3e565b15614c3a57614c3861713a565b505b505b50565b5f5f8473ffffffffffffffffffffffffffffffffffffffff1663a9059cbb60e01b8585604051602401614c73929190619c84565b604051602081830303815290604052907bffffffffffffffffffffffffffffffffffffffffffffffffffffffff19166020820180517bffffffffffffffffffffffffffffffffffffffffffffffffffffffff8381831617835250505050604051614cdd9190619c06565b5f604051808303815f865af19150503d805f8114614d16576040519150601f19603f3d011682016040523d82523d5f602084013e614d1b565b606091505b5091509150818015614d4857505f81511480614d47575080806020019051810190614d469190618fed565b5b5b614d87576040517f08c379a0000000000000000000000000000000000000000000000000000000008152600401614d7e9061a520565b60405180910390fd5b5050505050565b5f5f73ffffffffffffffffffffffffffffffffffffffff168273ffffffffffffffffffffffffffffffffffffffff1603614dca575f90506150c5565b7399d8a9c45b2eca8864373a26d1459e3dff1e17f373ffffffffffffffffffffffffffffffffffffffff168273ffffffffffffffffffffffffffffffffffffffff1603614ea7575f7399d8a9c45b2eca8864373a26d1459e3dff1e17f373ffffffffffffffffffffffffffffffffffffffff166370a08231306040518263ffffffff1660e01b8152600401614e5f91906185ba565b602060405180830381865afa158015614e7a573d5f5f3e3d5ffd5b505050506040513d601f19601f82011682018060405250810190614e9e9190618a95565b141590506150c5565b5f8273ffffffffffffffffffffffffffffffffffffffff166370a08231306040518263ffffffff1660e01b8152600401614ee191906185ba565b602060405180830381865afa158015614efc573d5f5f3e3d5ffd5b505050506040513d601f19601f82011682018060405250810190614f209190618a95565b90505f8103614f32575f9150506150c5565b614f6673d9e1ce17f2641f24ae83637ab66a2cca9c378b9f847399d8a9c45b2eca8864373a26d1459e3dff1e17f384616e3e565b15614f755760019150506150c5565b8273ffffffffffffffffffffffffffffffffffffffff166370a08231306040518263ffffffff1660e01b8152600401614fae91906185ba565b602060405180830381865afa158015614fc9573d5f5f3e3d5ffd5b505050506040513d601f19601f82011682018060405250810190614fed9190618a95565b90505f810361508d575f7399d8a9c45b2eca8864373a26d1459e3dff1e17f373ffffffffffffffffffffffffffffffffffffffff166370a08231306040518263ffffffff1660e01b815260040161504491906185ba565b602060405180830381865afa15801561505f573d5f5f3e3d5ffd5b505050506040513d601f19601f820116820180604052508101906150839190618a95565b14159150506150c5565b6150c1737a250d5630b4cf539739df2c5dacb4c659f2488d847399d8a9c45b2eca8864373a26d1459e3dff1e17f384616e3e565b9150505b919050565b5f6150d36150f4565b6150db6175a9565b90506150ef6150e9836159cf565b82615a12565b919050565b5f73ffffffffffffffffffffffffffffffffffffffff165f5f9054906101000a900473ffffffffffffffffffffffffffffffffffffffff1673ffffffffffffffffffffffffffffffffffffffff1603615324577346f54d434063e5f1a2b2cc6d9aaa657b1b9ff82c73ffffffffffffffffffffffffffffffffffffffff1663d8dfeb456040518163ffffffff1660e01b8152600401602060405180830381865afa1580156151a4573d5f5f3e3d5ffd5b505050506040513d601f19601f820116820180604052508101906151c89190618a56565b5f5f6101000a81548173ffffffffffffffffffffffffffffffffffffffff021916908373ffffffffffffffffffffffffffffffffffffffff16021790555061522f5f5f9054906101000a900473ffffffffffffffffffffffffffffffffffffffff166177b6565b60015f6101000a81548173ffffffffffffffffffffffffffffffffffffffff021916908373ffffffffffffffffffffffffffffffffffffffff1602179055505f73ffffffffffffffffffffffffffffffffffffffff1660015f9054906101000a900473ffffffffffffffffffffffffffffffffffffffff1673ffffffffffffffffffffffffffffffffffffffff1603615323575f5f9054906101000a900473ffffffffffffffffffffffffffffffffffffffff1660015f6101000a81548173ffffffffffffffffffffffffffffffffffffffff021916908373ffffffffffffffffffffffffffffffffffffffff1602179055505b5b565b5f60025f6101000a81548173ffffffffffffffffffffffffffffffffffffffff021916908373ffffffffffffffffffffffffffffffffffffffff1602179055505f60035f6101000a81548173ffffffffffffffffffffffffffffffffffffffff021916908373ffffffffffffffffffffffffffffffffffffffff1602179055505f6005819055505f6006819055505f6007819055505f6008819055505f6009819055505f600a819055505f600b819055505f600c819055505f600d819055505f600e819055505f600f819055505f6010819055505f6011819055505f6012819055505f6013819055505f60145f6101000a81548160ff0219169083151502179055505f601460016101000a81548160ff0219169083151502179055505f601460026101000a81548160ff0219169083151502179055505f601460036101000a81548160ff0219169083151502179055505f601460046101000a81548160ff0219169083151502179055505f601460056101000a81548160ff0219169083151502179055505f601460066101000a81548160ff02191690831515021790555060155f6154d191906184f2565b60165f6154de91906184f2565b565b5f5f6040518060a001604052806126ac61ffff1661ffff16815260200161261661ffff16815260200161251c61ffff16815260200161232861ffff168152602001611f4061ffff1681525090505f604051806040016040528073d9e1ce17f2641f24ae83637ab66a2cca9c378b9f73ffffffffffffffffffffffffffffffffffffffff1673ffffffffffffffffffffffffffffffffffffffff168152602001737a250d5630b4cf539739df2c5dacb4c659f2488d73ffffffffffffffffffffffffffffffffffffffff1673ffffffffffffffffffffffffffffffffffffffff1681525090505f6040518060a001604052807399d8a9c45b2eca8864373a26d1459e3dff1e17f373ffffffffffffffffffffffffffffffffffffffff1673ffffffffffffffffffffffffffffffffffffffff16815260200173c02aaa39b223fe8d0a0e5c4f27ead9083c756cc273ffffffffffffffffffffffffffffffffffffffff1673ffffffffffffffffffffffffffffffffffffffff16815260200173a0b86991c6218b36c1d19d4a2e9eb0ce3606eb4873ffffffffffffffffffffffffffffffffffffffff1673ffffffffffffffffffffffffffffffffffffffff168152602001736b175474e89094c44da98b954eedeac495271d0f73ffffffffffffffffffffffffffffffffffffffff1673ffffffffffffffffffffffffffffffffffffffff16815260200160015f9054906101000a900473ffffffffffffffffffffffffffffffffffffffff1673ffffffffffffffffffffffffffffffffffffffff1673ffffffffffffffffffffffffffffffffffffffff1681525090505f5f90505b60058110156159c5575f84826005811061575e5761575d619d5a565b5b602002015190505f6127108261ffff16896157799190618b14565b6157839190618b82565b0361578e57506159b8565b5f6127108261ffff16896157a29190618b14565b6157ac9190618b82565b886157b79190618eea565b036157c257506159b8565b5f5f90505b60028110156159b5575f5f90505b60058110156159a7575f8582600581106157f2576157f1619d5a565b5b602002015190505f73ffffffffffffffffffffffffffffffffffffffff168173ffffffffffffffffffffffffffffffffffffffff16148061587e57505f5f9054906101000a900473ffffffffffffffffffffffffffffffffffffffff1673ffffffffffffffffffffffffffffffffffffffff168173ffffffffffffffffffffffffffffffffffffffff16145b15615889575061599a565b3073ffffffffffffffffffffffffffffffffffffffff1663d76a31db8b868a87600281106158ba576158b9619d5a565b5b6020020151856040518563ffffffff1660e01b81526004016158df949392919061a54d565b6020604051808303815f875af192505050801561591a57506040513d601f19601f820116820180604052508101906159179190618a95565b60015b615964573d805f8114615948576040519150601f19603f3d011682016040523d82523d5f602084013e61594d565b606091505b50806016908161595d91906195c5565b5050615998565b89811115615970578099505b601460069054906101000a900460ff1615615996578099505050505050505050506159ca565b505b505b80806001019150506157d5565b5080806001019150506157c7565b50505b8080600101915050615741565b505050505b919050565b5f5f73ffffffffffffffffffffffffffffffffffffffff168273ffffffffffffffffffffffffffffffffffffffff1614615a095781615a0b565b335b9050919050565b5f7399d8a9c45b2eca8864373a26d1459e3dff1e17f373ffffffffffffffffffffffffffffffffffffffff166370a08231306040518263ffffffff1660e01b8152600401615a6091906185ba565b602060405180830381865afa158015615a7b573d5f5f3e3d5ffd5b505050506040513d601f19601f82011682018060405250810190615a9f9190618a95565b905081811115615aad578091505b816013819055507399d8a9c45b2eca8864373a26d1459e3dff1e17f360045f6101000a81548173ffffffffffffffffffffffffffffffffffffffff021916908373ffffffffffffffffffffffffffffffffffffffff1602179055505f8114158015615b4457505f73ffffffffffffffffffffffffffffffffffffffff168373ffffffffffffffffffffffffffffffffffffffff1614155b8015615b7c57503073ffffffffffffffffffffffffffffffffffffffff168373ffffffffffffffffffffffffffffffffffffffff1614155b15615ba157615ba07399d8a9c45b2eca8864373a26d1459e3dff1e17f38483614c3f565b5b505050565b5f5f7346f54d434063e5f1a2b2cc6d9aaa657b1b9ff82c73ffffffffffffffffffffffffffffffffffffffff16636b2ace876040518163ffffffff1660e01b8152600401602060405180830381865afa158015615c05573d5f5f3e3d5ffd5b505050506040513d601f19601f82011682018060405250810190615c299190618a56565b90505f8173ffffffffffffffffffffffffffffffffffffffff1663566231187399d8a9c45b2eca8864373a26d1459e3dff1e17f38473ffffffffffffffffffffffffffffffffffffffff1663f7888aec7399d8a9c45b2eca8864373a26d1459e3dff1e17f37346f54d434063e5f1a2b2cc6d9aaa657b1b9ff82c6040518363ffffffff1660e01b8152600401615cc0929190618ac0565b602060405180830381865afa158015615cdb573d5f5f3e3d5ffd5b505050506040513d601f19601f82011682018060405250810190615cff9190618a95565b5f6040518463ffffffff1660e01b8152600401615d1e9392919061a590565b602060405180830381865afa158015615d39573d5f5f3e3d5ffd5b505050506040513d601f19601f82011682018060405250810190615d5d9190618a95565b90505f8103615d70575f9250505061614c565b5f5f7346f54d434063e5f1a2b2cc6d9aaa657b1b9ff82c73ffffffffffffffffffffffffffffffffffffffff1663e551d11d6040518163ffffffff1660e01b81526004016040805180830381865afa158015615dce573d5f5f3e3d5ffd5b505050506040513d601f19601f82011682018060405250810190615df2919061a468565b915091505f5f7346f54d434063e5f1a2b2cc6d9aaa657b1b9ff82c73ffffffffffffffffffffffffffffffffffffffff16638285ef406040518163ffffffff1660e01b81526004016040805180830381865afa158015615e54573d5f5f3e3d5ffd5b505050506040513d601f19601f82011682018060405250810190615e78919061a468565b915091505f7346f54d434063e5f1a2b2cc6d9aaa657b1b9ff82c73ffffffffffffffffffffffffffffffffffffffff166348e4163e306040518263ffffffff1660e01b8152600401615eca91906185ba565b602060405180830381865afa158015615ee5573d5f5f3e3d5ffd5b505050506040513d601f19601f82011682018060405250810190615f099190618a95565b90505f7346f54d434063e5f1a2b2cc6d9aaa657b1b9ff82c73ffffffffffffffffffffffffffffffffffffffff1663aba024f46040518163ffffffff1660e01b8152600401602060405180830381865afa158015615f69573d5f5f3e3d5ffd5b505050506040513d601f19601f82011682018060405250810190615f8d9190618a95565b90505f846fffffffffffffffffffffffffffffffff16876fffffffffffffffffffffffffffffffff1611615fc1575f615ff2565b846fffffffffffffffffffffffffffffffff16876fffffffffffffffffffffffffffffffff16615ff19190618eea565b5b90505f83876fffffffffffffffffffffffffffffffff1611616014575f616033565b83876fffffffffffffffffffffffffffffffff166160329190618eea565b5b90505f82148061604257505f81145b15616059575f9a505050505050505050505061614c565b5f83620186a06160699190618bb2565b620186a0846160789190618b14565b6160829190618b82565b90505f5f886fffffffffffffffffffffffffffffffff1614806160b657505f876fffffffffffffffffffffffffffffffff16145b6160fa57866fffffffffffffffffffffffffffffffff16886fffffffffffffffffffffffffffffffff16846160eb9190618b14565b6160f59190618b82565b6160fc565b825b90505f85620186a061610e9190618bb2565b620186a08361611d9190618b14565b6161279190618b82565b905061613c8c6161378584616514565b616514565b9d50505050505050505050505050505b90565b5f5f7346f54d434063e5f1a2b2cc6d9aaa657b1b9ff82c73ffffffffffffffffffffffffffffffffffffffff16633ba0b9a96040518163ffffffff1660e01b8152600401602060405180830381865afa1580156161ae573d5f5f3e3d5ffd5b505050506040513d601f19601f820116820180604052508101906161d29190618a95565b90505f81036161e4575f915050616511565b5f7346f54d434063e5f1a2b2cc6d9aaa657b1b9ff82c73ffffffffffffffffffffffffffffffffffffffff16636b2ace876040518163ffffffff1660e01b8152600401602060405180830381865afa158015616242573d5f5f3e3d5ffd5b505050506040513d601f19601f820116820180604052508101906162669190618a56565b90505f8173ffffffffffffffffffffffffffffffffffffffff1663566231185f5f9054906101000a900473ffffffffffffffffffffffffffffffffffffffff167346f54d434063e5f1a2b2cc6d9aaa657b1b9ff82c73ffffffffffffffffffffffffffffffffffffffff16631c9e379b306040518263ffffffff1660e01b81526004016162f391906185ba565b602060405180830381865afa15801561630e573d5f5f3e3d5ffd5b505050506040513d601f19601f820116820180604052508101906163329190618a95565b5f6040518463ffffffff1660e01b81526004016163519392919061a590565b602060405180830381865afa15801561636c573d5f5f3e3d5ffd5b505050506040513d601f19601f820116820180604052508101906163909190618a95565b90505f81036163a4575f9350505050616511565b82620186a0670de0b6b3a76400007346f54d434063e5f1a2b2cc6d9aaa657b1b9ff82c73ffffffffffffffffffffffffffffffffffffffff1663c7ee2a7b6040518163ffffffff1660e01b8152600401602060405180830381865afa15801561640f573d5f5f3e3d5ffd5b505050506040513d601f19601f820116820180604052508101906164339190618a95565b8461643e9190618b14565b6164489190618b14565b6164529190618b82565b61645c9190618b82565b93505f7346f54d434063e5f1a2b2cc6d9aaa657b1b9ff82c73ffffffffffffffffffffffffffffffffffffffff1663aba024f46040518163ffffffff1660e01b8152600401602060405180830381865afa1580156164bc573d5f5f3e3d5ffd5b505050506040513d601f19601f820116820180604052508101906164e09190618a95565b905080620186a06164f19190618bb2565b620186a0866165009190618b14565b61650a9190618b82565b9450505050505b90565b5f8183106165225781616524565b825b905092915050565b5f5f820361653c575f905061668d565b5f5f3073ffffffffffffffffffffffffffffffffffffffff16634ee8f10560e01b8560405160240161656e9190618562565b604051602081830303815290604052907bffffffffffffffffffffffffffffffffffffffffffffffffffffffff19166020820180517bffffffffffffffffffffffffffffffffffffffffffffffffffffffff83818316178352505050506040516165d89190619c06565b5f604051808303815f865af19150503d805f8114616611576040519150601f19603f3d011682016040523d82523d5f602084013e616616565b606091505b50915091508180616628575060048151105b15616637575f9250505061668d565b5f6020820151905063079d7b9360e01b7bffffffffffffffffffffffffffffffffffffffffffffffffffffffff1916817bffffffffffffffffffffffffffffffffffffffffffffffffffffffff19161493505050505b919050565b5f5f8473ffffffffffffffffffffffffffffffffffffffff166370a08231306040518263ffffffff1660e01b81526004016166cd91906185ba565b602060405180830381865afa1580156166e8573d5f5f3e3d5ffd5b505050506040513d601f19601f8201168201806040525081019061670c9190618a95565b90505f810361671e575f91505061672e565b61672a83868684616e3e565b9150505b9392505050565b5f5f73ffffffffffffffffffffffffffffffffffffffff1660015f9054906101000a900473ffffffffffffffffffffffffffffffffffffffff1673ffffffffffffffffffffffffffffffffffffffff1614806167fd57505f5f9054906101000a900473ffffffffffffffffffffffffffffffffffffffff1673ffffffffffffffffffffffffffffffffffffffff1660015f9054906101000a900473ffffffffffffffffffffffffffffffffffffffff1673ffffffffffffffffffffffffffffffffffffffff16145b1561680a575f9050616c0f565b5f5f5f9054906101000a900473ffffffffffffffffffffffffffffffffffffffff1673ffffffffffffffffffffffffffffffffffffffff166370a08231306040518263ffffffff1660e01b815260040161686491906185ba565b602060405180830381865afa15801561687f573d5f5f3e3d5ffd5b505050506040513d601f19601f820116820180604052508101906168a39190618a95565b90505f81036168b5575f915050616c0f565b808311156168c1578092505b616959836040516024016168d59190618562565b6040516020818303038152906040527f67dfd4c9000000000000000000000000000000000000000000000000000000007bffffffffffffffffffffffffffffffffffffffffffffffffffffffff19166020820180517bffffffffffffffffffffffffffffffffffffffffffffffffffffffff838183161783525050505060016179cd565b15616968576001915050616c0f565b616a008360405160240161697c9190618562565b6040516020818303038152906040527fde0e9a3e000000000000000000000000000000000000000000000000000000007bffffffffffffffffffffffffffffffffffffffffffffffffffffffff19166020820180517bffffffffffffffffffffffffffffffffffffffffffffffffffffffff838183161783525050505060016179cd565b15616a0f576001915050616c0f565b616aab833030604051602401616a279392919061a5c5565b6040516020818303038152906040527fba087652000000000000000000000000000000000000000000000000000000007bffffffffffffffffffffffffffffffffffffffffffffffffffffffff19166020820180517bffffffffffffffffffffffffffffffffffffffffffffffffffffffff838183161783525050505060016179cd565b15616aba576001915050616c0f565b616b548330604051602401616ad092919061a5fa565b6040516020818303038152906040527f7bde82f2000000000000000000000000000000000000000000000000000000007bffffffffffffffffffffffffffffffffffffffffffffffffffffffff19166020820180517bffffffffffffffffffffffffffffffffffffffffffffffffffffffff838183161783525050505060016179cd565b15616b63576001915050616c0f565b616bfb83604051602401616b779190618562565b6040516020818303038152906040527f2e1a7d4d000000000000000000000000000000000000000000000000000000007bffffffffffffffffffffffffffffffffffffffffffffffffffffffff19166020820180517bffffffffffffffffffffffffffffffffffffffffffffffffffffffff838183161783525050505060016179cd565b15616c0a576001915050616c0f565b5f9150505b919050565b5f5f845f01516fffffffffffffffffffffffffffffffff1603616c3957829050616ce0565b835f01516fffffffffffffffffffffffffffffffff1684602001516fffffffffffffffffffffffffffffffff1684616c719190618b14565b616c7b9190618b82565b9050818015616cca57508284602001516fffffffffffffffffffffffffffffffff16855f01516fffffffffffffffffffffffffffffffff1683616cbe9190618b14565b616cc89190618b82565b105b15616cdf57600181616cdc9190618bb2565b90505b5b9392505050565b5f5f5f3073ffffffffffffffffffffffffffffffffffffffff1663be459c2a60e01b85604051602401616d1a9190618562565b604051602081830303815290604052907bffffffffffffffffffffffffffffffffffffffffffffffffffffffff19166020820180517bffffffffffffffffffffffffffffffffffffffffffffffffffffffff8381831617835250505050604051616d849190619c06565b5f604051808303815f865af19150503d805f8114616dbd576040519150601f19603f3d011682016040523d82523d5f602084013e616dc2565b606091505b50915091508180616dd4575060048151105b15616de3575f92505050616e39565b5f6020820151905063a213514f60e01b7bffffffffffffffffffffffffffffffffffffffffffffffffffffffff1916817bffffffffffffffffffffffffffffffffffffffffffffffffffffffff19161493505050505b919050565b5f5f821480616e7857505f73ffffffffffffffffffffffffffffffffffffffff168473ffffffffffffffffffffffffffffffffffffffff16145b80616eae57505f73ffffffffffffffffffffffffffffffffffffffff168373ffffffffffffffffffffffffffffffffffffffff16145b80616ee457508273ffffffffffffffffffffffffffffffffffffffff168473ffffffffffffffffffffffffffffffffffffffff16145b15616ef1575f9050617132565b5f616efc8585617dc4565b9050616f09868285617eb5565b15616f18576001915050617132565b73c02aaa39b223fe8d0a0e5c4f27ead9083c756cc273ffffffffffffffffffffffffffffffffffffffff168573ffffffffffffffffffffffffffffffffffffffff1614158015616fa8575073c02aaa39b223fe8d0a0e5c4f27ead9083c756cc273ffffffffffffffffffffffffffffffffffffffff168473ffffffffffffffffffffffffffffffffffffffff1614155b15616fd7575f616fb8868661810b565b9050616fc5878286617eb5565b15616fd557600192505050617132565b505b5f73d9e1ce17f2641f24ae83637ab66a2cca9c378b9f73ffffffffffffffffffffffffffffffffffffffff168773ffffffffffffffffffffffffffffffffffffffff16146170395773d9e1ce17f2641f24ae83637ab66a2cca9c378b9f61704f565b737a250d5630b4cf539739df2c5dacb4c659f2488d5b905061705c818386617eb5565b1561706c57600192505050617132565b73c02aaa39b223fe8d0a0e5c4f27ead9083c756cc273ffffffffffffffffffffffffffffffffffffffff168673ffffffffffffffffffffffffffffffffffffffff16141580156170fc575073c02aaa39b223fe8d0a0e5c4f27ead9083c756cc273ffffffffffffffffffffffffffffffffffffffff168573ffffffffffffffffffffffffffffffffffffffff1614155b1561712c575f61710c878761810b565b9050617119828287617eb5565b1561712a5760019350505050617132565b505b5f925050505b949350505050565b5f5f73ffffffffffffffffffffffffffffffffffffffff1660015f9054906101000a900473ffffffffffffffffffffffffffffffffffffffff1673ffffffffffffffffffffffffffffffffffffffff16148061720257505f5f9054906101000a900473ffffffffffffffffffffffffffffffffffffffff1673ffffffffffffffffffffffffffffffffffffffff1660015f9054906101000a900473ffffffffffffffffffffffffffffffffffffffff1673ffffffffffffffffffffffffffffffffffffffff16145b1561720f575f90506175a6565b5f60015f9054906101000a900473ffffffffffffffffffffffffffffffffffffffff1673ffffffffffffffffffffffffffffffffffffffff166370a08231306040518263ffffffff1660e01b815260040161726a91906185ba565b602060405180830381865afa158015617285573d5f5f3e3d5ffd5b505050506040513d601f19601f820116820180604052508101906172a99190618a95565b90505f81036172bb575f9150506175a6565b61730760015f9054906101000a900473ffffffffffffffffffffffffffffffffffffffff165f5f9054906101000a900473ffffffffffffffffffffffffffffffffffffffff1683613268565b61739e8160405160240161731b9190618562565b6040516020818303038152906040527fa59f3e0c000000000000000000000000000000000000000000000000000000007bffffffffffffffffffffffffffffffffffffffffffffffffffffffff19166020820180517bffffffffffffffffffffffffffffffffffffffffffffffffffffffff83818316178352505050505f6179cd565b156173ad5760019150506175a6565b617444816040516024016173c19190618562565b6040516020818303038152906040527fea598cb0000000000000000000000000000000000000000000000000000000007bffffffffffffffffffffffffffffffffffffffffffffffffffffffff19166020820180517bffffffffffffffffffffffffffffffffffffffffffffffffffffffff83818316178352505050505f6179cd565b156174535760019150506175a6565b6174ec813060405160240161746992919061a5fa565b6040516020818303038152906040527f6e553f65000000000000000000000000000000000000000000000000000000007bffffffffffffffffffffffffffffffffffffffffffffffffffffffff19166020820180517bffffffffffffffffffffffffffffffffffffffffffffffffffffffff83818316178352505050505f6179cd565b156174fb5760019150506175a6565b6175928160405160240161750f9190618562565b6040516020818303038152906040527fb6b55f25000000000000000000000000000000000000000000000000000000007bffffffffffffffffffffffffffffffffffffffffffffffffffffffff19166020820180517bffffffffffffffffffffffffffffffffffffffffffffffffffffffff83818316178352505050505f6179cd565b156175a15760019150506175a6565b5f9150505b90565b5f5f5f5f9054906101000a900473ffffffffffffffffffffffffffffffffffffffff1673ffffffffffffffffffffffffffffffffffffffff166370a082317346f54d434063e5f1a2b2cc6d9aaa657b1b9ff82c73ffffffffffffffffffffffffffffffffffffffff16636b2ace876040518163ffffffff1660e01b8152600401602060405180830381865afa158015617644573d5f5f3e3d5ffd5b505050506040513d601f19601f820116820180604052508101906176689190618a56565b6040518263ffffffff1660e01b815260040161768491906185ba565b602060405180830381865afa15801561769f573d5f5f3e3d5ffd5b505050506040513d601f19601f820116820180604052508101906176c39190618a95565b90505f81036176d5575f9150506177b3565b5f6040518060a001604052808381526020016002846176f49190618b82565b81526020016004846177069190618b82565b8152602001600a846177189190618b82565b815260200160148461772a9190618b82565b81525090505f5f90505b60058110156177af575f82826005811061775157617750619d5a565b5b602002015190505f810361776557506177a2565b5f61776f826154e0565b90508581111561777d578095505b601460069054906101000a900460ff161561779f5780955050505050506177b3565b50505b8080600101915050617734565b5050505b90565b5f617843826040516024016040516020818303038152906040527ffc0c546a000000000000000000000000000000000000000000000000000000007bffffffffffffffffffffffffffffffffffffffffffffffffffffffff19166020820180517bffffffffffffffffffffffffffffffffffffffffffffffffffffffff838183161783525050505061825f565b90505f73ffffffffffffffffffffffffffffffffffffffff168173ffffffffffffffffffffffffffffffffffffffff16036179c857617904826040516024016040516020818303038152906040527f38d52e0f000000000000000000000000000000000000000000000000000000007bffffffffffffffffffffffffffffffffffffffffffffffffffffffff19166020820180517bffffffffffffffffffffffffffffffffffffffffffffffffffffffff838183161783525050505061825f565b90505f73ffffffffffffffffffffffffffffffffffffffff168173ffffffffffffffffffffffffffffffffffffffff16036179c8576179c5826040516024016040516020818303038152906040527f6f307dc3000000000000000000000000000000000000000000000000000000007bffffffffffffffffffffffffffffffffffffffffffffffffffffffff19166020820180517bffffffffffffffffffffffffffffffffffffffffffffffffffffffff838183161783525050505061825f565b90505b919050565b5f5f5f73ffffffffffffffffffffffffffffffffffffffff1660015f9054906101000a900473ffffffffffffffffffffffffffffffffffffffff1673ffffffffffffffffffffffffffffffffffffffff1614617ac15760015f9054906101000a900473ffffffffffffffffffffffffffffffffffffffff1673ffffffffffffffffffffffffffffffffffffffff166370a08231306040518263ffffffff1660e01b8152600401617a7d91906185ba565b602060405180830381865afa158015617a98573d5f5f3e3d5ffd5b505050506040513d601f19601f82011682018060405250810190617abc9190618a95565b617ac3565b5f5b90505f5f5f9054906101000a900473ffffffffffffffffffffffffffffffffffffffff1673ffffffffffffffffffffffffffffffffffffffff166370a08231306040518263ffffffff1660e01b8152600401617b1f91906185ba565b602060405180830381865afa158015617b3a573d5f5f3e3d5ffd5b505050506040513d601f19601f82011682018060405250810190617b5e9190618a95565b90505f5f5f9054906101000a900473ffffffffffffffffffffffffffffffffffffffff1673ffffffffffffffffffffffffffffffffffffffff1686604051617ba69190619c06565b5f604051808303815f865af19150503d805f8114617bdf576040519150601f19603f3d011682016040523d82523d5f602084013e617be4565b606091505b5050905080617bf8575f9350505050617dbe565b5f5f73ffffffffffffffffffffffffffffffffffffffff1660015f9054906101000a900473ffffffffffffffffffffffffffffffffffffffff1673ffffffffffffffffffffffffffffffffffffffff1614617ceb5760015f9054906101000a900473ffffffffffffffffffffffffffffffffffffffff1673ffffffffffffffffffffffffffffffffffffffff166370a08231306040518263ffffffff1660e01b8152600401617ca791906185ba565b602060405180830381865afa158015617cc2573d5f5f3e3d5ffd5b505050506040513d601f19601f82011682018060405250810190617ce69190618a95565b617ced565b5f5b90505f5f5f9054906101000a900473ffffffffffffffffffffffffffffffffffffffff1673ffffffffffffffffffffffffffffffffffffffff166370a08231306040518263ffffffff1660e01b8152600401617d4991906185ba565b602060405180830381865afa158015617d64573d5f5f3e3d5ffd5b505050506040513d601f19601f82011682018060405250810190617d889190618a95565b90508615617da95784821180617d9d57508381105b95505050505050617dbe565b83811180617db657508482105b955050505050505b92915050565b6060600267ffffffffffffffff811115617de157617de06193a4565b5b604051908082528060200260200182016040528015617e0f5781602001602082028036833780820191505090505b50905082815f81518110617e2657617e25619d5a565b5b602002602001019073ffffffffffffffffffffffffffffffffffffffff16908173ffffffffffffffffffffffffffffffffffffffff16815250508181600181518110617e7557617e74619d5a565b5b602002602001019073ffffffffffffffffffffffffffffffffffffffff16908173ffffffffffffffffffffffffffffffffffffffff168152505092915050565b5f5f8203617ec5575f9050618104565b600283511080617f1a57505f73ffffffffffffffffffffffffffffffffffffffff16835f81518110617efa57617ef9619d5a565b5b602002602001015173ffffffffffffffffffffffffffffffffffffffff16145b80617f7757505f73ffffffffffffffffffffffffffffffffffffffff168360018551617f469190618eea565b81518110617f5757617f56619d5a565b5b602002602001015173ffffffffffffffffffffffffffffffffffffffff16145b15617f84575f9050618104565b617f8d846182fc565b1580617fa05750617f9e848461831f565b155b15617fad575f9050618104565b81835f81518110617fc157617fc0619d5a565b5b602002602001015173ffffffffffffffffffffffffffffffffffffffff166370a08231306040518263ffffffff1660e01b815260040161800191906185ba565b602060405180830381865afa15801561801c573d5f5f3e3d5ffd5b505050506040513d601f19601f820116820180604052508101906180409190618a95565b101561804e575f9050618104565b618073835f8151811061806457618063619d5a565b5b60200260200101518584613268565b8373ffffffffffffffffffffffffffffffffffffffff166338ed1739835f8630426040518663ffffffff1660e01b81526004016180b495949392919061a621565b5f604051808303815f875af19250505080156180f257506040513d5f823e3d601f19601f820116820180604052508101906180ef919061a739565b60015b6180fe575f9050618104565b60019150505b9392505050565b6060600367ffffffffffffffff811115618128576181276193a4565b5b6040519080825280602002602001820160405280156181565781602001602082028036833780820191505090505b50905082815f8151811061816d5761816c619d5a565b5b602002602001019073ffffffffffffffffffffffffffffffffffffffff16908173ffffffffffffffffffffffffffffffffffffffff168152505073c02aaa39b223fe8d0a0e5c4f27ead9083c756cc2816001815181106181d0576181cf619d5a565b5b602002602001019073ffffffffffffffffffffffffffffffffffffffff16908173ffffffffffffffffffffffffffffffffffffffff1681525050818160028151811061821f5761821e619d5a565b5b602002602001019073ffffffffffffffffffffffffffffffffffffffff16908173ffffffffffffffffffffffffffffffffffffffff168152505092915050565b5f5f5f8473ffffffffffffffffffffffffffffffffffffffff16846040516182879190619c06565b5f60405180830381855afa9150503d805f81146182bf576040519150601f19603f3d011682016040523d82523d5f602084013e6182c4565b606091505b50915091508180156182d857506020815110155b156182f457808060200190518101906182f1919061a7bb565b92505b505092915050565b5f5f8273ffffffffffffffffffffffffffffffffffffffff163b14159050919050565b5f600282511015618332575f90506184ec565b5f8373ffffffffffffffffffffffffffffffffffffffff1663c45a01556040518163ffffffff1660e01b8152600401602060405180830381865afa92505050801561839b57506040513d601f19601f820116820180604052508101906183989190618a56565b60015b6183a8575f9150506184ec565b809150506183b5816182fc565b6183c2575f9150506184ec565b5f5f90505b83516001826183d69190618bb2565b10156184e5575f73ffffffffffffffffffffffffffffffffffffffff168273ffffffffffffffffffffffffffffffffffffffff1663e6a4390586848151811061842257618421619d5a565b5b6020026020010151876001866184389190618bb2565b8151811061844957618448619d5a565b5b60200260200101516040518363ffffffff1660e01b815260040161846e929190618ac0565b602060405180830381865afa158015618489573d5f5f3e3d5ffd5b505050506040513d601f19601f820116820180604052508101906184ad9190618a56565b73ffffffffffffffffffffffffffffffffffffffff16036184d2575f925050506184ec565b80806184dd90619d13565b9150506183c7565b5060019150505b92915050565b5080546184fe906193fe565b5f825580601f1061850f575061852c565b601f0160209004905f5260205f209081019061852b919061852f565b5b50565b5b80821115618546575f815f905550600101618530565b5090565b5f819050919050565b61855c8161854a565b82525050565b5f6020820190506185755f830184618553565b92915050565b5f73ffffffffffffffffffffffffffffffffffffffff82169050919050565b5f6185a48261857b565b9050919050565b6185b48161859a565b82525050565b5f6020820190506185cd5f8301846185ab565b92915050565b5f8115159050919050565b6185e7816185d3565b82525050565b5f6020820190506186005f8301846185de565b92915050565b5f604051905090565b5f5ffd5b5f5ffd5b6186208161859a565b811461862a575f5ffd5b50565b5f8135905061863b81618617565b92915050565b5f61864b8261859a565b9050919050565b61865b81618641565b8114618665575f5ffd5b50565b5f8135905061867681618652565b92915050565b6186858161854a565b811461868f575f5ffd5b50565b5f813590506186a08161867c565b92915050565b5f5ffd5b5f5ffd5b5f5ffd5b5f5f83601f8401126186c7576186c66186a6565b5b8235905067ffffffffffffffff8111156186e4576186e36186aa565b5b602083019150836001820283011115618700576186ff6186ae565b5b9250929050565b5f5f5f5f5f5f60a087890312156187215761872061860f565b5b5f61872e89828a0161862d565b965050602061873f89828a01618668565b955050604061875089828a01618692565b945050606061876189828a01618692565b935050608087013567ffffffffffffffff81111561878257618781618613565b5b61878e89828a016186b2565b92509250509295509295509295565b5f602082840312156187b2576187b161860f565b5b5f6187bf84828501618692565b91505092915050565b5f602082840312156187dd576187dc61860f565b5b5f6187ea8482850161862d565b91505092915050565b5f5f604083850312156188095761880861860f565b5b5f6188168582860161862d565b92505060206188278582860161862d565b9150509250929050565b5f819050919050565b5f61885461884f61884a8461857b565b618831565b61857b565b9050919050565b5f6188658261883a565b9050919050565b5f6188768261885b565b9050919050565b6188868161886c565b82525050565b5f60208201905061889f5f83018461887d565b92915050565b5f61ffff82169050919050565b6188bb816188a5565b81146188c5575f5ffd5b50565b5f813590506188d6816188b2565b92915050565b5f5f5f5f608085870312156188f4576188f361860f565b5b5f61890187828801618692565b9450506020618912878288016188c8565b93505060406189238782880161862d565b92505060606189348782880161862d565b91505092959194509250565b5f81519050919050565b5f82825260208201905092915050565b8281835e5f83830152505050565b5f601f19601f8301169050919050565b5f61898282618940565b61898c818561894a565b935061899c81856020860161895a565b6189a581618968565b840191505092915050565b5f6020820190508181035f8301526189c88184618978565b905092915050565b5f81519050919050565b5f82825260208201905092915050565b5f6189f4826189d0565b6189fe81856189da565b9350618a0e81856020860161895a565b618a1781618968565b840191505092915050565b5f6020820190508181035f830152618a3a81846189ea565b905092915050565b5f81519050618a5081618617565b92915050565b5f60208284031215618a6b57618a6a61860f565b5b5f618a7884828501618a42565b91505092915050565b5f81519050618a8f8161867c565b92915050565b5f60208284031215618aaa57618aa961860f565b5b5f618ab784828501618a81565b91505092915050565b5f604082019050618ad35f8301856185ab565b618ae060208301846185ab565b9392505050565b7f4e487b71000000000000000000000000000000000000000000000000000000005f52601160045260245ffd5b5f618b1e8261854a565b9150618b298361854a565b9250828202618b378161854a565b91508282048414831517618b4e57618b4d618ae7565b5b5092915050565b7f4e487b71000000000000000000000000000000000000000000000000000000005f52601260045260245ffd5b5f618b8c8261854a565b9150618b978361854a565b925082618ba757618ba6618b55565b5b828204905092915050565b5f618bbc8261854a565b9150618bc78361854a565b9250828201905080821115618bdf57618bde618ae7565b5b92915050565b7f4445504f5349545f53504c49545f494e56414c494400000000000000000000005f82015250565b5f618c196015836189da565b9150618c2482618be5565b602082019050919050565b5f6020820190508181035f830152618c4681618c0d565b9050919050565b5f819050919050565b5f618c70618c6b618c6684618c4d565b618831565b61854a565b9050919050565b618c8081618c56565b82525050565b5f60a082019050618c995f8301886185ab565b618ca660208301876185ab565b618cb360408301866185ab565b618cc06060830185618553565b618ccd6080830184618c77565b9695505050505050565b5f5f60408385031215618ced57618cec61860f565b5b5f618cfa85828601618a81565b9250506020618d0b85828601618a81565b9150509250929050565b7f5a45524f5f4445504f5349545f534841524500000000000000000000000000005f82015250565b5f618d496012836189da565b9150618d5482618d15565b602082019050919050565b5f6020820190508181035f830152618d7681618d3d565b9050919050565b5f606082019050618d905f8301866185ab565b618d9d60208301856185de565b618daa6040830184618553565b949350505050565b7f4144445f434f4c4c41544552414c5f4641494c454400000000000000000000005f82015250565b5f618de66015836189da565b9150618df182618db2565b602082019050919050565b5f6020820190508181035f830152618e1381618dda565b9050919050565b7f4e4f5f424f52524f5741424c455f4d494d0000000000000000000000000000005f82015250565b5f618e4e6011836189da565b9150618e5982618e1a565b602082019050919050565b5f6020820190508181035f830152618e7b81618e42565b9050919050565b7f424f52524f575f4641494c4544000000000000000000000000000000000000005f82015250565b5f618eb6600d836189da565b9150618ec182618e82565b602082019050919050565b5f6020820190508181035f830152618ee381618eaa565b9050919050565b5f618ef48261854a565b9150618eff8361854a565b9250828203905081811115618f1757618f16618ae7565b5b92915050565b618f26816185d3565b8114618f30575f5ffd5b50565b5f81519050618f4181618f1d565b92915050565b5f5f60408385031215618f5d57618f5c61860f565b5b5f618f6a85828601618f33565b9250506020618f7b85828601618a81565b9150509250929050565b7f5a45524f5f504f53545f44554d505f52415445000000000000000000000000005f82015250565b5f618fb96013836189da565b9150618fc482618f85565b602082019050919050565b5f6020820190508181035f830152618fe681618fad565b9050919050565b5f602082840312156190025761900161860f565b5b5f61900f84828501618f33565b91505092915050565b7f4e4f545f494e534f4c56454e545f41465445525f44554d5000000000000000005f82015250565b5f61904c6018836189da565b915061905782619018565b602082019050919050565b5f6020820190508181035f83015261907981619040565b9050919050565b7f46554c4c5f4c49515549444154494f4e5f5354494c4c5f434f564552454400005f82015250565b5f6190b4601e836189da565b91506190bf82619080565b602082019050919050565b5f6020820190508181035f8301526190e1816190a8565b9050919050565b7f4e4f5f534146455f5041525449414c5f4c49515549444154494f4e00000000005f82015250565b5f61911c601b836189da565b9150619127826190e8565b602082019050919050565b5f6020820190508181035f83015261914981619110565b9050919050565b7f5041525449414c5f455155414c535f46554c4c000000000000000000000000005f82015250565b5f6191846013836189da565b915061918f82619150565b602082019050919050565b5f6020820190508181035f8301526191b181619178565b9050919050565b7f4e4f5f52454d41494e494e475f444542540000000000000000000000000000005f82015250565b5f6191ec6011836189da565b91506191f7826191b8565b602082019050919050565b5f6020820190508181035f830152619219816191e0565b9050919050565b7f5041525449414c5f524553544f5245535f534f4c56454e4359000000000000005f82015250565b5f6192546019836189da565b915061925f82619220565b602082019050919050565b5f6020820190508181035f83015261928181619248565b9050919050565b7f524553494455414c5f444542545f4e4f545f554e44455257415445525f454e4f5f8201527f5547480000000000000000000000000000000000000000000000000000000000602082015250565b5f6192e26023836189da565b91506192ed82619288565b604082019050919050565b5f6020820190508181035f83015261930f816192d6565b9050919050565b7f4e4f545f454e4f5547485f4d494d5f544f5f544553545f46494e414c5f4c49515f8201527f5549444154494f4e000000000000000000000000000000000000000000000000602082015250565b5f6193706028836189da565b915061937b82619316565b604082019050919050565b5f6020820190508181035f83015261939d81619364565b9050919050565b7f4e487b71000000000000000000000000000000000000000000000000000000005f52604160045260245ffd5b7f4e487b71000000000000000000000000000000000000000000000000000000005f52602260045260245ffd5b5f600282049050600182168061941557607f821691505b602082108103619428576194276193d1565b5b50919050565b5f819050815f5260205f209050919050565b5f6020601f8301049050919050565b5f82821b905092915050565b5f6008830261948a7fffffffffffffffffffffffffffffffffffffffffffffffffffffffffffffffff8261944f565b619494868361944f565b95508019841693508086168417925050509392505050565b5f6194c66194c16194bc8461854a565b618831565b61854a565b9050919050565b5f819050919050565b6194df836194ac565b6194f36194eb826194cd565b84845461945b565b825550505050565b5f5f905090565b61950a6194fb565b6195158184846194d6565b505050565b5b818110156195385761952d5f82619502565b60018101905061951b565b5050565b601f82111561957d5761954e8161942e565b61955784619440565b81016020851015619566578190505b61957a61957285619440565b83018261951a565b50505b505050565b5f82821c905092915050565b5f61959d5f1984600802619582565b1980831691505092915050565b5f6195b5838361958e565b9150826002028217905092915050565b6195ce82618940565b67ffffffffffffffff8111156195e7576195e66193a4565b5b6195f182546193fe565b6195fc82828561953c565b5f60209050601f83116001811461962d575f841561961b578287015190505b61962585826195aa565b86555061968c565b601f19841661963b8661942e565b5f5b828110156196625784890151825560018201915060208501945060208101905061963d565b8683101561967f578489015161967b601f89168261958e565b8355505b6001600288020188555050505b505050505050565b7f46494e414c5f4c49515549444154494f4e5f53554343454544454400000000005f82015250565b5f6196c8601b836189da565b91506196d382619694565b602082019050919050565b5f6020820190508181035f8301526196f5816196bc565b9050919050565b7f4255475f4e4f545f434f4e4649524d45440000000000000000000000000000005f82015250565b5f6197306011836189da565b915061973b826196fc565b602082019050919050565b5f6020820190508181035f83015261975d81619724565b9050919050565b7f494e53554646494349454e545f434f4c4c41544552414c5f464f525f464c41535f8201527f485f524550415900000000000000000000000000000000000000000000000000602082015250565b5f6197be6027836189da565b91506197c982619764565b604082019050919050565b5f6020820190508181035f8301526197eb816197b2565b9050919050565b7f53454c465f43414c4c5f4f4e4c590000000000000000000000000000000000005f82015250565b5f619826600e836189da565b9150619831826197f2565b602082019050919050565b5f6020820190508181035f8301526198538161981a565b9050919050565b5f60408201905061986d5f830185618553565b61987a6020830184618553565b9392505050565b7f5a45524f5f464c4153485f414d4f554e540000000000000000000000000000005f82015250565b5f6198b56011836189da565b91506198c082619881565b602082019050919050565b5f6020820190508181035f8301526198e2816198a9565b9050919050565b7f4241445f4445504f5349545f42505300000000000000000000000000000000005f82015250565b5f61991d600f836189da565b9150619928826198e9565b602082019050919050565b5f6020820190508181035f83015261994a81619911565b9050919050565b7f4241445f524f55544552000000000000000000000000000000000000000000005f82015250565b5f619985600a836189da565b915061999082619951565b602082019050919050565b5f6020820190508181035f8301526199b281619979565b9050919050565b7f4241445f51554f544500000000000000000000000000000000000000000000005f82015250565b5f6199ed6009836189da565b91506199f8826199b9565b602082019050919050565b5f6020820190508181035f830152619a1a816199e1565b9050919050565b7f5a45524f5f45584348414e47455f5241544500000000000000000000000000005f82015250565b5f619a556012836189da565b9150619a6082619a21565b602082019050919050565b5f6020820190508181035f830152619a8281619a49565b9050919050565b5f619a938261885b565b9050919050565b619aa381619a89565b82525050565b5f60a082019050619abc5f830188619a9a565b619ac960208301876185ab565b619ad660408301866185ab565b619ae36060830185618553565b8181036080830152619af58184618978565b90509695505050505050565b7f504154485f494e4645415349424c455f41545f464f524b0000000000000000005f82015250565b5f619b356017836189da565b9150619b4082619b01565b602082019050919050565b5f6020820190508181035f830152619b6281619b29565b9050919050565b5f60ff82169050919050565b5f619b8f619b8a619b8584618c4d565b618831565b619b69565b9050919050565b619b9f81619b75565b82525050565b5f604082019050619bb85f8301856185ab565b619bc56020830184619b96565b9392505050565b5f81905092915050565b5f619be082618940565b619bea8185619bcc565b9350619bfa81856020860161895a565b80840191505092915050565b5f619c118284619bd6565b915081905092915050565b7f415050524f56455f52455345545f4641494c45440000000000000000000000005f82015250565b5f619c506014836189da565b9150619c5b82619c1c565b602082019050919050565b5f6020820190508181035f830152619c7d81619c44565b9050919050565b5f604082019050619c975f8301856185ab565b619ca46020830184618553565b9392505050565b7f415050524f56455f4641494c45440000000000000000000000000000000000005f82015250565b5f619cdf600e836189da565b9150619cea82619cab565b602082019050919050565b5f6020820190508181035f830152619d0c81619cd3565b9050919050565b5f619d1d8261854a565b91507fffffffffffffffffffffffffffffffffffffffffffffffffffffffffffffffff8203619d4f57619d4e618ae7565b5b600182019050919050565b7f4e487b71000000000000000000000000000000000000000000000000000000005f52603260045260245ffd5b5f606082019050619d9a5f8301866185de565b619da76020830185619b96565b619db46040830184619b96565b949350505050565b5f819050919050565b619dce81619dbc565b82525050565b5f604082019050619de75f830185619dc5565b619df460208301846185ab565b9392505050565b5f81519050919050565b5f82825260208201905092915050565b5f819050602082019050919050565b619e2d81619b69565b82525050565b5f619e3e8383619e24565b60208301905092915050565b5f602082019050919050565b5f619e6082619dfb565b619e6a8185619e05565b9350619e7583619e15565b805f5b83811015619ea5578151619e8c8882619e33565b9750619e9783619e4a565b925050600181019050619e78565b5085935050505092915050565b5f81519050919050565b5f82825260208201905092915050565b5f819050602082019050919050565b619ee48161854a565b82525050565b5f619ef58383619edb565b60208301905092915050565b5f602082019050919050565b5f619f1782619eb2565b619f218185619ebc565b9350619f2c83619ecc565b805f5b83811015619f5c578151619f438882619eea565b9750619f4e83619f01565b925050600181019050619f2f565b5085935050505092915050565b5f81519050919050565b5f82825260208201905092915050565b5f819050602082019050919050565b5f82825260208201905092915050565b5f619fac82618940565b619fb68185619f92565b9350619fc681856020860161895a565b619fcf81618968565b840191505092915050565b5f619fe58383619fa2565b905092915050565b5f602082019050919050565b5f61a00382619f69565b61a00d8185619f73565b93508360208202850161a01f85619f83565b805f5b8581101561a05a578484038952815161a03b8582619fda565b945061a04683619fed565b925060208a0199505060018101905061a022565b50829750879550505050505092915050565b5f6060820190508181035f83015261a0848186619e56565b9050818103602083015261a0988185619f0d565b9050818103604083015261a0ac8184619ff9565b9050949350505050565b5f60a08201905061a0c95f8301886185ab565b61a0d660208301876185ab565b61a0e360408301866185ab565b61a0f06060830185618c77565b61a0fd6080830184618553565b9695505050505050565b7f4e4f5f44554d505f42414c414e434500000000000000000000000000000000005f82015250565b5f61a13b600f836189da565b915061a1468261a107565b602082019050919050565b5f6020820190508181035f83015261a1688161a12f565b9050919050565b7f434f4c4c41544552414c5f44554d505f535741505f4641494c454400000000005f82015250565b5f61a1a3601b836189da565b915061a1ae8261a16f565b602082019050919050565b5f6020820190508181035f83015261a1d08161a197565b9050919050565b7f4e4f5f4d494d5f46524f4d5f44554d50000000000000000000000000000000005f82015250565b5f61a20b6010836189da565b915061a2168261a1d7565b602082019050919050565b5f6020820190508181035f83015261a2388161a1ff565b9050919050565b5f5ffd5b61a24c82618968565b810181811067ffffffffffffffff8211171561a26b5761a26a6193a4565b5b80604052505050565b5f61a27d618606565b905061a289828261a243565b919050565b5f6fffffffffffffffffffffffffffffffff82169050919050565b61a2b28161a28e565b811461a2bc575f5ffd5b50565b5f8151905061a2cd8161a2a9565b92915050565b5f6040828403121561a2e85761a2e761a23f565b5b61a2f2604061a274565b90505f61a3018482850161a2bf565b5f83015250602061a3148482850161a2bf565b60208301525092915050565b5f6040828403121561a3355761a33461860f565b5b5f61a3428482850161a2d3565b91505092915050565b5f81519050919050565b5f82825260208201905092915050565b5f819050602082019050919050565b61a37d8161859a565b82525050565b5f61a38e838361a374565b60208301905092915050565b5f602082019050919050565b5f61a3b08261a34b565b61a3ba818561a355565b935061a3c58361a365565b805f5b8381101561a3f557815161a3dc888261a383565b975061a3e78361a39a565b92505060018101905061a3c8565b5085935050505092915050565b5f60a0820190508181035f83015261a41a818861a3a6565b9050818103602083015261a42e8187619f0d565b905061a43d60408301866185ab565b61a44a60608301856185ab565b818103608083015261a45c8184618978565b90509695505050505050565b5f5f6040838503121561a47e5761a47d61860f565b5b5f61a48b8582860161a2bf565b925050602061a49c8582860161a2bf565b9150509250929050565b5f61a4b08261854a565b915061a4bb8361854a565b92508261a4cb5761a4ca618b55565b5b828206905092915050565b7f5452414e534645525f4641494c454400000000000000000000000000000000005f82015250565b5f61a50a600f836189da565b915061a5158261a4d6565b602082019050919050565b5f6020820190508181035f83015261a5378161a4fe565b9050919050565b61a547816188a5565b82525050565b5f60808201905061a5605f830187618553565b61a56d602083018661a53e565b61a57a60408301856185ab565b61a58760608301846185ab565b95945050505050565b5f60608201905061a5a35f8301866185ab565b61a5b06020830185618553565b61a5bd60408301846185de565b949350505050565b5f60608201905061a5d85f830186618553565b61a5e560208301856185ab565b61a5f260408301846185ab565b949350505050565b5f60408201905061a60d5f830185618553565b61a61a60208301846185ab565b9392505050565b5f60a08201905061a6345f830188618553565b61a6416020830187618c77565b818103604083015261a653818661a3a6565b905061a66260608301856185ab565b61a66f6080830184618553565b9695505050505050565b5f67ffffffffffffffff82111561a6935761a6926193a4565b5b602082029050602081019050919050565b5f61a6b661a6b18461a679565b61a274565b9050808382526020820190506020840283018581111561a6d95761a6d86186ae565b5b835b8181101561a702578061a6ee8882618a81565b84526020840193505060208101905061a6db565b5050509392505050565b5f82601f83011261a7205761a71f6186a6565b5b815161a73084826020860161a6a4565b91505092915050565b5f6020828403121561a74e5761a74d61860f565b5b5f82015167ffffffffffffffff81111561a76b5761a76a618613565b5b61a7778482850161a70c565b91505092915050565b5f61a78a8261857b565b9050919050565b61a79a8161a780565b811461a7a4575f5ffd5b50565b5f8151905061a7b58161a791565b92915050565b5f6020828403121561a7d05761a7cf61860f565b5b5f61a7dd8482850161a7a7565b9150509291505056fe636f6c6c61746572616c5368617265203e2075736572436f6c6c61746572616c53686172655b757365725d75736572436f6c6c61746572616c53686172655b757365725d2e73756228636f6c6c61746572616c536861726529a26469706673582212203438075c454fe54747a2cd1cd5a0a4cb95b3bfca3966afe9ffac29ce9991ccf464736f6c634300081e0033","linkReferences":{}},"methodIdentifiers":{"DAI()":"e0bab4c4","MIM()":"daec383d","PATH_2_OVERFLOW_ANCHOR()":"fd858160","PATH_2_SUBTRACTION_ANCHOR()":"ff6ff998","SUSHI_ROUTER()":"0c24f4fa","TARGET()":"cc1f2afa","TARGET_CAULDRON()":"bd7a598c","UNISWAP_V2_ROUTER()":"a82ed9ec","USDC()":"89a30271","WETH()":"ad5c4648","attemptFinalLiquidation()":"9ad18f63","badDebtLocked()":"1bfc281c","borrowedAmount()":"1afbb7a4","borrowedPart()":"b0b62eeb","borrowedShare()":"52d11fb4","bugConfirmed()":"cf3c6f32","collateralToken()":"b2016bd4","depositedAmount()":"1d01364c","depositedShare()":"c4f0d1c6","dumpAsset()":"c288eaec","dumpRouter()":"ab9888e6","dumpedForPriceImpact()":"7eb37bc9","exchangeRateAfterDump()":"04c56a86","exchangeRateBefore()":"e0831335","execute()":"61461954","executeOnOpportunity()":"3c2448ed","executeStrategy(uint256,uint16,address,address)":"d76a31db","executeTo(address)":"ada2c46d","executeWithFlashAmount(uint256)":"f798d20b","exploit()":"63d9b770","finalLiquidationRevertData()":"d9e835d6","finalLiquidationReverted()":"c416940b","flashAmount()":"b570137a","flashFee()":"e07df5b4","fullLiquidationShareNeeded()":"e2678cc2","hypothesisValidated()":"463defd1","insolventAfterDump()":"11f7cc62","lastAttemptRevertData()":"fdc0fe37","lastBorrowAmount()":"ca8ccab6","lastBorrowPart()":"a6e59f53","lastProfitAmount()":"6dcb9575","lastProfitToken()":"6236fa78","onFlashLoan(address,address,uint256,uint256,bytes)":"23e30c8b","partialLiquidationExecuted()":"3c012277","positionCreated()":"a66f4e45","previewBorrowAmount()":"97f37399","previewCollateralToken()":"95c7775e","previewFlashAmount()":"0a2ad983","previewProfitToken()":"fe87c375","probeBorrow(uint256)":"4ee8f105","probeLiquidation(uint256)":"be459c2a","profitAmount()":"5ff972cc","quoteAsset()":"fdf262b7","remainingBorrowPart()":"75ed2c0a","remainingCollateralShare()":"ac7e101f","requiredCollateralShareForFullDebtAfterDump()":"000393fc","requiredCollateralShareForRemainingDebt()":"d7c564f6","residualDebtIsUnderwater()":"6d8c21a8","run()":"c0406226","safePartialBorrowPart()":"e7bda234","sweep(address,address)":"b8dc491b","underlyingToken()":"2495a599"},"id":0}