{"abi":[{"type":"constructor","inputs":[],"stateMutability":"nonpayable"},{"type":"fallback","stateMutability":"payable"},{"type":"receive","stateMutability":"payable"},{"type":"function","name":"executeOnOpportunity","inputs":[],"outputs":[],"stateMutability":"nonpayable"}],"bytecode":{"object":"0x6080806040523460155761132b908161001a8239f35b5f80fdfe60806040526004361015610010575b005b5f3560e01c633c2448ed0361000e57346100c1575f3660031901126100c1574761003861012c565b610040610545565b610048610892565b610050610bdf565b610058610f2c565b4767016345785d8a000082018092116100ad571061007257005b60405162461bcd60e51b8152602060048201526013602482015272125b9cdd59999a58da595b9d081c1c9bd99a5d606a1b6044820152606490fd5b634e487b7160e01b5f52601160045260245ffd5b5f80fd5b90601f8019910116810190811067ffffffffffffffff8211176100e757604052565b634e487b7160e01b5f52604160045260245ffd5b8051156101085760200190565b634e487b7160e01b5f52603260045260245ffd5b8051600110156101085760400190565b5f5160206112b65f395f51905f523b156100c157604051639ce25b6d60e01b815273dac17f958d2ee523a2206206994597c13d831ec760048201523060248201525f908181604481835f5160206112b65f395f51905f525af19081610530575b506101945750565b6040516370a0823160e01b81525f5160206112b65f395f51905f52600482015260208160248173dac17f958d2ee523a2206206994597c13d831ec75afa9081156105255782916104f3575b5080156104ef5781809160405160208101916323b872dd60e01b83525f5160206112b65f395f51905f5260248301523060448301526064820152606481526102286084826100c5565b51908273dac17f958d2ee523a2206206994597c13d831ec75af161024a611185565b816104c0575b501561048c575061027473dac17f958d2ee523a2206206994597c13d831ec76111dc565b156104505761029673dac17f958d2ee523a2206206994597c13d831ec7611256565b1561041a576040516102a96060826100c5565b6002815260208101604036823773dac17f958d2ee523a2206206994597c13d831ec76102d4836100fb565b525f5160206112965f395f51905f526102ec8361011c565b526040516370a0823160e01b815230600482015260208160248173dac17f958d2ee523a2206206994597c13d831ec75afa9081156103bb575f916103e8575b505f5160206112d65f395f51905f523b156100c157919060405192839263791ac94760e01b845260a484019160048501525f602485015260a060448501525180915260c4830191905f5b8181106103c65750505090805f923060648301524260848301520381835f5160206112d65f395f51905f525af180156103bb576103af5750565b5f6103b9916100c5565b565b6040513d5f823e3d90fd5b82516001600160a01b0316845285945060209384019390920191600101610375565b90506020813d602011610412575b81610403602093836100c5565b810103126100c157515f61032b565b3d91506103f6565b60405162461bcd60e51b815260206004820152600e60248201526d105c1c1c9bdd994819985a5b195960921b6044820152606490fd5b60405162461bcd60e51b8152602060048201526014602482015273105c1c1c9bdd99481c995cd95d0819985a5b195960621b6044820152606490fd5b60405162461bcd60e51b815260206004820152600c60248201526b111c985a5b8819985a5b195960a21b6044820152606490fd5b80518015925082156104d5575b50505f610250565b6104e892506020809183010191016111c4565b5f806104cd565b5050565b90506020813d60201161051d575b8161050e602093836100c5565b810103126100c157515f6101df565b3d9150610501565b6040513d84823e3d90fd5b61053d9192505f906100c5565b5f905f61018c565b5f5160206112b65f395f51905f523b156100c157604051639ce25b6d60e01b815273a0b86991c6218b36c1d19d4a2e9eb0ce3606eb4860048201523060248201525f908181604481835f5160206112b65f395f51905f525af1908161087d575b506105ad5750565b6040516370a0823160e01b81525f5160206112b65f395f51905f52600482015260208160248173a0b86991c6218b36c1d19d4a2e9eb0ce3606eb485afa90811561052557829161084b575b5080156104ef5781809160405160208101916323b872dd60e01b83525f5160206112b65f395f51905f5260248301523060448301526064820152606481526106416084826100c5565b51908273a0b86991c6218b36c1d19d4a2e9eb0ce3606eb485af1610663611185565b8161081c575b501561048c575061068d73a0b86991c6218b36c1d19d4a2e9eb0ce3606eb486111dc565b15610450576106af73a0b86991c6218b36c1d19d4a2e9eb0ce3606eb48611256565b1561041a576040516106c26060826100c5565b6002815260208101604036823773a0b86991c6218b36c1d19d4a2e9eb0ce3606eb486106ed836100fb565b525f5160206112965f395f51905f526107058361011c565b526040516370a0823160e01b815230600482015260208160248173a0b86991c6218b36c1d19d4a2e9eb0ce3606eb485afa9081156103bb575f916107ea575b505f5160206112d65f395f51905f523b156100c157919060405192839263791ac94760e01b845260a484019160048501525f602485015260a060448501525180915260c4830191905f5b8181106107c85750505090805f923060648301524260848301520381835f5160206112d65f395f51905f525af180156103bb576103af5750565b82516001600160a01b031684528594506020938401939092019160010161078e565b90506020813d602011610814575b81610805602093836100c5565b810103126100c157515f610744565b3d91506107f8565b8051801592508215610831575b50505f610669565b61084492506020809183010191016111c4565b5f80610829565b90506020813d602011610875575b81610866602093836100c5565b810103126100c157515f6105f8565b3d9150610859565b61088a9192505f906100c5565b5f905f6105a5565b5f5160206112b65f395f51905f523b156100c157604051639ce25b6d60e01b8152736b175474e89094c44da98b954eedeac495271d0f60048201523060248201525f908181604481835f5160206112b65f395f51905f525af19081610bca575b506108fa5750565b6040516370a0823160e01b81525f5160206112b65f395f51905f526004820152602081602481736b175474e89094c44da98b954eedeac495271d0f5afa908115610525578291610b98575b5080156104ef5781809160405160208101916323b872dd60e01b83525f5160206112b65f395f51905f52602483015230604483015260648201526064815261098e6084826100c5565b519082736b175474e89094c44da98b954eedeac495271d0f5af16109b0611185565b81610b69575b501561048c57506109da736b175474e89094c44da98b954eedeac495271d0f6111dc565b15610450576109fc736b175474e89094c44da98b954eedeac495271d0f611256565b1561041a57604051610a0f6060826100c5565b60028152602081016040368237736b175474e89094c44da98b954eedeac495271d0f610a3a836100fb565b525f5160206112965f395f51905f52610a528361011c565b526040516370a0823160e01b8152306004820152602081602481736b175474e89094c44da98b954eedeac495271d0f5afa9081156103bb575f91610b37575b505f5160206112d65f395f51905f523b156100c157919060405192839263791ac94760e01b845260a484019160048501525f602485015260a060448501525180915260c4830191905f5b818110610b155750505090805f923060648301524260848301520381835f5160206112d65f395f51905f525af180156103bb576103af5750565b82516001600160a01b0316845285945060209384019390920191600101610adb565b90506020813d602011610b61575b81610b52602093836100c5565b810103126100c157515f610a91565b3d9150610b45565b8051801592508215610b7e575b50505f6109b6565b610b9192506020809183010191016111c4565b5f80610b76565b90506020813d602011610bc2575b81610bb3602093836100c5565b810103126100c157515f610945565b3d9150610ba6565b610bd79192505f906100c5565b5f905f6108f2565b5f5160206112b65f395f51905f523b156100c157604051639ce25b6d60e01b8152732260fac5e5542a773aa44fbcfedf7c193bc2c59960048201523060248201525f908181604481835f5160206112b65f395f51905f525af19081610f17575b50610c475750565b6040516370a0823160e01b81525f5160206112b65f395f51905f526004820152602081602481732260fac5e5542a773aa44fbcfedf7c193bc2c5995afa908115610525578291610ee5575b5080156104ef5781809160405160208101916323b872dd60e01b83525f5160206112b65f395f51905f526024830152306044830152606482015260648152610cdb6084826100c5565b519082732260fac5e5542a773aa44fbcfedf7c193bc2c5995af1610cfd611185565b81610eb6575b501561048c5750610d27732260fac5e5542a773aa44fbcfedf7c193bc2c5996111dc565b1561045057610d49732260fac5e5542a773aa44fbcfedf7c193bc2c599611256565b1561041a57604051610d5c6060826100c5565b60028152602081016040368237732260fac5e5542a773aa44fbcfedf7c193bc2c599610d87836100fb565b525f5160206112965f395f51905f52610d9f8361011c565b526040516370a0823160e01b8152306004820152602081602481732260fac5e5542a773aa44fbcfedf7c193bc2c5995afa9081156103bb575f91610e84575b505f5160206112d65f395f51905f523b156100c157919060405192839263791ac94760e01b845260a484019160048501525f602485015260a060448501525180915260c4830191905f5b818110610e625750505090805f923060648301524260848301520381835f5160206112d65f395f51905f525af180156103bb576103af5750565b82516001600160a01b0316845285945060209384019390920191600101610e28565b90506020813d602011610eae575b81610e9f602093836100c5565b810103126100c157515f610dde565b3d9150610e92565b8051801592508215610ecb575b50505f610d03565b610ede92506020809183010191016111c4565b5f80610ec3565b90506020813d602011610f0f575b81610f00602093836100c5565b810103126100c157515f610c92565b3d9150610ef3565b610f249192505f906100c5565b5f905f610c3f565b5f5160206112b65f395f51905f523b156100c157604051639ce25b6d60e01b81525f5160206112965f395f51905f5260048201523060248201525f908181604481835f5160206112b65f395f51905f525af19081611170575b50610f8d5750565b6040516370a0823160e01b81525f5160206112b65f395f51905f5260048201526020816024815f5160206112965f395f51905f525afa90811561052557829161113e575b5080156104ef5781809160405160208101916323b872dd60e01b83525f5160206112b65f395f51905f52602483015230604483015260648201526064815261101a6084826100c5565b5190825f5160206112965f395f51905f525af1611035611185565b8161110f575b501561048c576040516370a0823160e01b81523060048201526020816024815f5160206112965f395f51905f525afa9081156105255782916110dd575b505f5160206112965f395f51905f523b156110d95760405190632e1a7d4d60e01b825260048201528181602481835f5160206112965f395f51905f525af18015610525576110c4575050565b6110cf8280926100c5565b6110d65750565b80fd5b5080fd5b90506020813d602011611107575b816110f8602093836100c5565b810103126100c157515f611078565b3d91506110eb565b8051801592508215611124575b50505f61103b565b61113792506020809183010191016111c4565b5f8061111c565b90506020813d602011611168575b81611159602093836100c5565b810103126100c157515f610fd1565b3d915061114c565b61117d9192505f906100c5565b5f905f610f85565b3d156111bf573d9067ffffffffffffffff82116100e757604051916111b4601f8201601f1916602001846100c5565b82523d5f602084013e565b606090565b908160209103126100c1575180151581036100c15790565b5f809160405182602082019163095ea7b360e01b83525f5160206112d65f395f51905f5260248201528160448201526044815261121a6064826100c5565b51925af1611226611185565b8161122f575090565b805180159250821561124057505090565b61125392506020809183010191016111c4565b90565b5f809160405182602082019163095ea7b360e01b83525f5160206112d65f395f51905f526024820152811960448201526044815261121a6064826100c556fe000000000000000000000000c02aaa39b223fe8d0a0e5c4f27ead9083c756cc2000000000000000000000000800cfd4a2ba8ce93ea2cc814fce26c36351690170000000000000000000000007a250d5630b4cf539739df2c5dacb4c659f2488da26469706673582212202d994d526fe246daffa32dcbe9d4dae3ac022f3be340dc583a760a98d87eae1064736f6c634300081e0033","linkReferences":{}},"methodIdentifiers":{"executeOnOpportunity()":"3c2448ed"},"id":0}