{"abi":[{"type":"constructor","inputs":[],"stateMutability":"nonpayable"},{"type":"receive","stateMutability":"payable"},{"type":"function","name":"executeOnOpportunity","inputs":[],"outputs":[],"stateMutability":"nonpayable"},{"type":"function","name":"exploitPath","inputs":[],"outputs":[{"name":"","type":"string","internalType":"string"}],"stateMutability":"pure"},{"type":"function","name":"failureReason","inputs":[],"outputs":[{"name":"","type":"string","internalType":"string"}],"stateMutability":"view"},{"type":"function","name":"hypothesisValidated","inputs":[],"outputs":[{"name":"","type":"bool","internalType":"bool"}],"stateMutability":"view"},{"type":"function","name":"onERC1155BatchReceived","inputs":[{"name":"","type":"address","internalType":"address"},{"name":"","type":"address","internalType":"address"},{"name":"","type":"uint256[]","internalType":"uint256[]"},{"name":"","type":"uint256[]","internalType":"uint256[]"},{"name":"","type":"bytes","internalType":"bytes"}],"outputs":[{"name":"","type":"bytes4","internalType":"bytes4"}],"stateMutability":"pure"},{"type":"function","name":"onERC1155Received","inputs":[{"name":"","type":"address","internalType":"address"},{"name":"","type":"address","internalType":"address"},{"name":"","type":"uint256","internalType":"uint256"},{"name":"","type":"uint256","internalType":"uint256"},{"name":"","type":"bytes","internalType":"bytes"}],"outputs":[{"name":"","type":"bytes4","internalType":"bytes4"}],"stateMutability":"pure"},{"type":"function","name":"profitAchieved","inputs":[],"outputs":[{"name":"","type":"bool","internalType":"bool"}],"stateMutability":"view"},{"type":"function","name":"profitAmount","inputs":[],"outputs":[{"name":"","type":"uint256","internalType":"uint256"}],"stateMutability":"view"},{"type":"function","name":"profitToken","inputs":[],"outputs":[{"name":"","type":"address","internalType":"address"}],"stateMutability":"pure"}],"bytecode":{"object":"0x6080806040523461001657612108908161001b8239f35b5f80fdfe6040608081526004908136101561001f575b5050361561001d575f80fd5b005b5f803560e01c80633c2448ed146105cc578063463defd1146105a557806349343624146105765780634f9522a4146104a05780635ff972cc14610483578063bc197c81146103fb578063cb707c621461010c578063f0a01176146100e45763f23a6e611461008d5750610011565b346100e15760a03660031901126100e1576100a6610626565b506100af610640565b50608435906001600160401b0382116100e157506020926100d291369101610686565b50505163f23a6e6160e01b8152f35b80fd5b50903461010857816003193601126101085760209060ff6001541690519015158152f35b5080fd5b5090346101085781600319360112610108578051917f7075626c6963204554482d3e574554482d3e44414920776f726b696e6720636160208401527f706974616c206163717569726573206578697374696e67206f6e2d636861696e828401527f20444149206e656564656420746f206578656375746520746865206f7264657260608401527001037b7103a3434b9903337b93590169f1607d1b60808401527f6d616b6572207369676e73206f6e65206f7264657220696e74656e6465642066609184015273037b910309039b4b733b632903334b63610169f160651b60b18401527f74616b65722066696c6c73206f6e636520776974682066696c6c4f726465722860c58401527f6f726465722c7369676e61747572652c3165313829202d3e200000000000000060e58401527f74617267657420706572666f726d73207472616e736665727320616e64206f6e60fe8401527f6c79207468656e207265636f726473207346696c6c65644672616374696f6e5b61011e84015274037b93232b92430b9b42e901e9018b2989c10169f1605d1b61013e8401527f73616d65206f7264657220616e64207369676e617475726520617265207265706101538401527f6c6179656420776974682066696c6c4f72646572286f726465722c7369676e616101738401527f747572652c316531382920616761696e2062656361757365206e6f207072652d6101938401527f636865636b207265616473207346696c6c65644672616374696f6e202d3e20006101b38401527f746865206d616b6572277320757066726f6e7420444149206973207472616e736101d28401527f66657272656420616761696e2066726f6d207468652073616d652073696e676c6101f28401526e329030baba3437b934bd30ba34b7b760891b61021284015261020183526102408301938385106001600160401b038611176103e85750508290526020825261023f19906103e36102608201826105e8565b030190f35b634e487b7160e01b825260419052602490fd5b50346100e15760a03660031901126100e157610415610626565b5061041e610640565b506001600160401b03906044358281116101085761043f9036908601610656565b5050606435828111610108576104589036908601610656565b50506084359182116100e1575060209261047491369101610686565b50505163bc197c8160e01b8152f35b509034610108578160031936011261010857602091549051908152f35b509034610108578160031936011261010857805190826002546104c281610716565b8085529160019180831690811561054e5750600114610504575b5050506104ee826105009403836106f5565b519182916020835260208301906105e8565b0390f35b9450600285525f805160206120938339815191525b828610610536575050506104ee82602061050095820101946104dc565b80546020878701810191909152909501948101610519565b6105009750869350602092506104ee94915060ff191682840152151560051b820101946104dc565b50903461010857816003193601126101085760209051736b175474e89094c44da98b954eedeac495271d0f8152f35b50903461010857816003193601126101085760209060ff60015460081c1690519015158152f35b50346100e157806003193601126100e1576105e5610914565b80f35b91908251928382525f5b848110610612575050825f602080949584010152601f8019910116010190565b6020818301810151848301820152016105f2565b600435906001600160a01b038216820361063c57565b5f80fd5b602435906001600160a01b038216820361063c57565b9181601f8401121561063c578235916001600160401b03831161063c576020808501948460051b01011161063c57565b9181601f8401121561063c578235916001600160401b03831161063c576020838186019501011161063c57565b6001600160401b0381116106c657604052565b634e487b7160e01b5f52604160045260245ffd5b602081019081106001600160401b038211176106c657604052565b90601f801991011681019081106001600160401b038211176106c657604052565b90600182811c92168015610744575b602083101461073057565b634e487b7160e01b5f52602260045260245ffd5b91607f1691610725565b601f81116107595750565b5f60028152601f5f80516020612093833981519152920160051c8201915b82811061078357505050565b818155600101610777565b601f81116107995750565b601f5f91600283520160051c5f8051602061209383398151915201907f405787fa12a823e0f2b7631cc41b3ba8828b3321ca811111fa75cd3aa3bb5ad05b8281106107e357505050565b8181556001016107d7565b60a0906001600160801b03808251168452602082015116602084015281600180821b039182604082015116604086015265ffffffffffff8060608301511660608701526080820151166080860152015116910152565b929161090f6102c091670de0b6b3a76400009361014060018060a01b03918281511689528260208201511660208a015265ffffffffffff60408201511660408a01528260608201511660608a01526001600160801b03928360808301511660808b01526108b960a083015160a08c01906107ee565b8360c0830151166101608b015260e0820151166101808a015282610100820151166101a08a01526108f46101208201516101c08b01906107ee565b0151166102808701526102e0806102a08801528601906105e8565b930152565b5f80805561ffff1990600191808354168355600261093a6109358254610716565b61074e565b5f81556040938451906370a0823160e01b825273f39fd6e51aad88f6f4ce6ab8827279cfffb92266936004938585850152602093602496736b175474e89094c44da98b954eedeac495271d0f9186818a81865afa908115611005578a91610fd4575b50838110610fb3575088955b6109b18761106b565b15610f215786151580610e75575b610df7576109cb6118dd565b15610d6c578a51916101608301936001600160401b039484811086821117610d5a57848d8f948b8683979684979685975284865289860191858352860185815263967a760060608801918783528760808a0195818752610a2961100f565b60a08c015260c08b0198828a5260e08c019b838d5261010081019e8f52610a4e61100f565b6101208201525252525252525252896101408301528a5192608084019084821090821117610d4857907f436c4c994a561774e460277cec21350799508c00cc8a897804965dee701ff362918c52604184528301527f210547eb313c01c25a74c64caa9a9f77694dad6c8863c2b41a9c248e47310f4f8a830152600760fa1b6060830152889973f3f84ce038442ae4c4dcb6a8ca8bacd7f28c9bde90813b15610d4457808991518c8180610b0f898963992cc7cb60e01b988985528401610844565b038183885af19081610d31575b50610d1e57918593918d979593858e610b3e610b398c9b54610716565b61078e565b60518255527f4669727374207369676e65642066696c6c207265766572746564206f6e2074685f80516020612093833981519152556734b9903337b9359760c11b5f805160206120b3833981519152555b8d97610c47575b50505050505082610c3e575b61ff00845493151560081b16918261ff001985161785558899610c35575b610c12575b848911610be0575b505050505050505050610bde6115a2565b565b839216171790558403938411610c01575050555f8080808080808080610bcd565b601190634e487b7160e01b5f52525ffd5b97838101809111610c235797610bc5565b86601187634e487b7160e01b5f52525ffd5b98508398610bc0565b91508091610ba2565b909180939495969798503b15610d1a57928c928b8f99989796958594610c798692519889968795869485528401610844565b03925af19182610cf7575b5050610cee57610c97610b398254610716565b6045815588527f5265706c61792066696c6c207265766572746564206f6e207468697320666f725f805160206120938339815191525561359760f11b5f805160206120b3833981519152555b5f8080808080610b96565b50839150610ce3565b610d06919293949596506106b3565b610d16579089939291895f610c84565b8880fd5b8c80fd5b9492909593919b50869b8c968796610b8f565b610d3d909d919d6106b3565b9b5f610b1c565b8a80fd5b634e487b7160e01b8b5260418952898bfd5b634e487b7160e01b8d5260418b528b8dfd5b505050965050505050508154610d8181610716565b15610d8b57505050565b610b39610d9791610716565b606d8255527f4d616b65722044414920617070726f76616c20636f756c64206e6f74206265205f8051602061209383398151915255753932b9ba37b932b21037b7103a3434b9903337b9359760511b5f805160206120b383398151915255565b50505096505050505050610e0e610b398354610716565b606f8255527f5265706c61792066756e64696e67206661696c6564207768696c6520736565645f80516020612093833981519152557f696e6720746865206d616b65722077697468204441492e0000000000000000005f805160206120b383398151915255565b508a518181019063a9059cbb60e01b8252838b82015288604482015260448152608081018181106001600160401b03821117610d5a578d52518b9182919082875af13d15610f1a578b3d610ed4610ecb82611050565b925192836106f5565b81523d8c8483013e5b81610eea575b50156109bf565b80518015925083908315610f02575b5050505f610ee3565b610f1293508201810191016114b9565b5f8281610ef9565b6060610edd565b505050965050505050508154610f3681610716565b15610f4057505050565b610b39610f4c91610716565b607f8255527f556e61626c6520746f2061637175697265206f6e2d636861696e2044414920665f80516020612093833981519152557f726f6d207468652076657269666965722773204554482062616c616e63652e005f805160206120b383398151915255565b8303838111610fc257956109a8565b634e487b7160e01b8a5260118852888afd5b90508681813d8311610ffe575b610feb81836106f5565b81010312610ffa57515f61099c565b8980fd5b503d610fe1565b8b513d8c823e3d90fd5b6040519060c082018281106001600160401b038211176106c6576040528160a05f918281528260208201528260408201528260608201528260808201520152565b6001600160401b0381116106c657601f01601f191660200190565b5f9080156114b2574780156114425761108381611c8b565b6001600160a01b0380821692909183156114085773c02aaa39b223fe8d0a0e5c4f27ead9083c756cc2803b1561140457604094855192630d0e30db60e41b84526004938981868189885af180156113fa576113e1575b506110e66110ed91611cf5565b9086611fef565b916110f983151561153a565b8651946020958681019163a9059cbb60e01b8352846024830152604482015260448152608081018181106001600160401b038211176113ce578952515f9283929083905af13d156113c7573d61114e81611050565b9061115b895192836106f5565b81523d5f8783013e5b81611397575b501561135d578551630dfe168160e01b815284818581855afa908115611353578991611326575b50736b175474e89094c44da98b954eedeac495271d0f9516850361131f57815b8261131757915b8651926111c4846106da565b898452823b15610ffa57916111f493918a80948a519687958694859363022c0d9f60e01b855230918c8601611574565b03925af1801561130d5783929188916112f0575b505060248551809581936370a0823160e01b835230908301525afa9283156112e7575084926112b9575b50501061123f5750600190565b61124d610b39600254610716565b6071600255600281527f4554482d3e4441492066756e64696e672070726f647563656420746f6f206c695f80516020612093833981519152557f74746c652044414920666f7220746865207265706c61792e00000000000000005f805160206120b38339815191525590565b90809250813d83116112e0575b6112d081836106f5565b8101031261063c57515f80611232565b503d6112c6565b513d86823e3d90fd5b6112fc919293506106b3565b611309578190865f611208565b8580fd5b85513d89823e3d90fd5b5087916111b8565b87916111b1565b6113469150853d871161134c575b61133e81836106f5565b81019061151b565b5f611191565b503d611334565b87513d8b823e3d90fd5b855162461bcd60e51b815280840185905260146024820152731c185a5c881d1c985b9cd9995c8819985a5b195960621b6044820152606490fd5b805180159250869083156113af575b5050505f61116a565b6113bf93508201810191016114b9565b5f85816113a6565b6060611164565b604187634e487b7160e01b5f525260245ffd5b6110ed91996113f26110e6926106b3565b9991506110d9565b88513d8c823e3d90fd5b8680fd5b505050505061141b610935600254610716565b7f4e6f20766961626c6520574554482f44414920706f6f6c20666f756e642e003c60025590565b5050611452610b39600254610716565b6063600255600281527f566572696669657220686173206e6f2045544820776f726b696e6720636170695f8051602061209383398151915255703a30b61037b7103a3434b9903337b9359760791b5f805160206120b38339815191525590565b5050600190565b9081602091031261063c5751801515810361063c5790565b51906001600160701b038216820361063c57565b9081606091031261063c576114f9816114d1565b916040611508602084016114d1565b92015163ffffffff8116810361063c5790565b9081602091031261063c57516001600160a01b038116810361063c5790565b1561154157565b60405162461bcd60e51b815260206004820152600b60248201526a1e995c9bc81bdd5d1c1d5d60aa1b6044820152606490fd5b909260809261159f95948352602083015260018060a01b0316604082015281606082015201906105e8565b90565b604080516370a0823160e01b918282525f9260043081850152602091736b175474e89094c44da98b954eedeac495271d0f948381602481895afa90811561130d5787916118b0575b5080156118a75784519063a9059cbb60e01b825273a478c2975ab1ea89e8196811f51a7b7ade33eb1191828582015281602482015285816044818c8c5af180156113535761187a575b508551630240bc6b60e21b81526060818681865afa80156113535789918a91611849575b508751630dfe168160e01b815287818881885afa90811561183f57916001600160701b03916116af9594938d91611822575b506001600160a01b03169a8b1492831561181957828116935b1561181057501691611fef565b906116bb82151561153a565b73c02aaa39b223fe8d0a0e5c4f27ead9083c756cc296870361180957815b8261180157915b8651926116ec846106da565b898452823b15610ffa579161171c93918a80948a519687958694859363022c0d9f60e01b855230918d8601611574565b03925af1801561130d576117ee575b50835190815230828201528281602481885afa9283156117e45786936117b4575b50508161175b575b5050505050565b833b156117b05790602485928385519687948593632e1a7d4d60e01b85528401525af19081156117a75750611793575b808080611754565b61179d82916106b3565b6100e1578061178b565b513d84823e3d90fd5b8480fd5b9080929350813d83116117dd575b6117cc81836106f5565b8101031261063c5751905f8061174c565b503d6117c2565b84513d88823e3d90fd5b6117fa909691966106b3565b945f61172b565b5087916116e0565b87916116d9565b90501691611fef565b828216936116a2565b61183991508a3d8c1161134c5761133e81836106f5565b5f611689565b89513d8d823e3d90fd5b905061186c915060603d8111611873575b61186481836106f5565b8101906114e5565b505f611657565b503d61185a565b61189990863d88116118a0575b61189181836106f5565b8101906114b9565b505f611633565b503d611887565b50505050505050565b90508381813d83116118d6575b6118c781836106f5565b8101031261140457515f6115ea565b503d6118bd565b6040805190636eb1769f60e11b908183525f9273f39fd6e51aad88f6f4ce6ab8827279cfffb922669283600483015273f3f84ce038442ae4c4dcb6a8ca8bacd7f28c9bde93846024840152602092736b175474e89094c44da98b954eedeac495271d0f908481604481855afa8015611c47578890611c5d575b600191501015611c51578451623f675f60e91b8152600481018390528481602481855afa8015611c47578890611c15575b600314159050611b9f57803b156114045784516323f2ebc360e21b81528260048201528660248201526003604482015263967a7600606482015260016084820152601b60a48201527fbac1650de238632e1af90edeac61a176464a1d6f0c8154f3456f8a4635ad8cd760c48201527f69483608a02858ca8e9337dbaa573e9720e72c734d2d5c621d193a6e128bf68060e482015287816101048183865af19081611b8c575b50611aa157505050505050611a45610b39600254610716565b605b600255600281527f4d616b6572206e6f6e63652d3320444149207065726d6974206661696c6564205f80516020612093833981519152556c37b7103a3434b9903337b9359760991b5f805160206120b38339815191525590565b8392604491865197889485938452600484015260248301525afa918215611b8357508391611b54575b506001915010611ada5750600190565b611ae8610b39600254610716565b606f600255600281527f4d616b65722044414920616c6c6f77616e63652072656d61696e656420696e735f80516020612093833981519152557f756666696369656e74206166746572207065726d69742e0000000000000000005f805160206120b38339815191525590565b905081813d8311611b7c575b611b6a81836106f5565b8101031261063c57600190515f611aca565b503d611b60565b513d85823e3d90fd5b611b98909891986106b3565b965f611a2c565b505050505050611bb3610b39600254610716565b6067600255600281527f4d616b657220444149207065726d6974206e6f6e636520697320756e737570705f80516020612093833981519152557237b93a32b21037b7103a3434b9903337b9359760691b5f805160206120b38339815191525590565b508481813d8311611c40575b611c2b81836106f5565b81010312611c3c5760039051611987565b8780fd5b503d611c21565b86513d8a823e3d90fd5b50505050505050600190565b508481813d8311611c84575b611c7381836106f5565b81010312611c3c5760019051611956565b503d611c69565b611c9d90611c97611ee0565b91611fef565b15611cba5773a478c2975ab1ea89e8196811f51a7b7ade33eb1190565b5f90565b15611cc557565b60405162461bcd60e51b81526020600482015260086024820152673130b2103830b4b960c11b6044820152606490fd5b60408051630240bc6b60e21b8152909290916001600160a01b03908116606084600481845afa918215611ed6575f948593611eaf575b508551630dfe168160e01b8152602091908281600481875afa8015611e0f5782915f91611e92575b50169173c02aaa39b223fe8d0a0e5c4f27ead9083c756cc292838114611e1957736b175474e89094c44da98b954eedeac495271d0f149384611db1575b50505050611da19192939450611cbe565b6001600160701b03809116921690565b81929394509060049189519283809263d21220a760e01b82525afa918215611e0f57611da195969798505f92611df2575b50501614849392915f8080611d90565b611e089250803d1061134c5761133e81836106f5565b5f80611de2565b88513d5f823e3d90fd5b5060049250879381929598979697519384809263d21220a760e01b82525afa928315611e89575091611da19391736b175474e89094c44da98b954eedeac495271d0f935f92611e6c575b50501614611cbe565b611e829250803d1061134c5761133e81836106f5565b5f80611e63565b513d5f823e3d90fd5b611ea99150843d861161134c5761133e81836106f5565b5f611d53565b909250611ecb91945060603d81116118735761186481836106f5565b50939093915f611d2b565b85513d5f823e3d90fd5b60408051630240bc6b60e21b8152909173a478c2975ab1ea89e8196811f51a7b7ade33eb11606083600481845afa908115611fe5575f938492611fc1575b508451630dfe168160e01b81526020908181600481865afa908115611fb7575f91611f9a575b5073c02aaa39b223fe8d0a0e5c4f27ead9083c756cc2916001600160a01b03918216838114611e1957736b175474e89094c44da98b954eedeac495271d0f149384611db15750505050611da19192939450611cbe565b611fb19150823d841161134c5761133e81836106f5565b5f611f44565b87513d5f823e3d90fd5b909350611fdc915060603d81116118735761186481836106f5565b5090925f611f1e565b84513d5f823e3d90fd5b91909180159081801561208a575b8015612082575b61207a576103e590818102928184048314171561206657830202918183041481151715612066576103e892838102938185041490151715612066578201809211612066578115612052570490565b634e487b7160e01b5f52601260045260245ffd5b634e487b7160e01b5f52601160045260245ffd5b505050505f90565b508215612004565b508315611ffd56fe405787fa12a823e0f2b7631cc41b3ba8828b3321ca811111fa75cd3aa3bb5ace405787fa12a823e0f2b7631cc41b3ba8828b3321ca811111fa75cd3aa3bb5acfa2646970667358221220cf6198a980602c29b19a9e6d4b0367c97e267104cd520443b3c12b60554439f064736f6c63430008140033","linkReferences":{}},"methodIdentifiers":{"executeOnOpportunity()":"3c2448ed","exploitPath()":"cb707c62","failureReason()":"4f9522a4","hypothesisValidated()":"463defd1","onERC1155BatchReceived(address,address,uint256[],uint256[],bytes)":"bc197c81","onERC1155Received(address,address,uint256,uint256,bytes)":"f23a6e61","profitAchieved()":"f0a01176","profitAmount()":"5ff972cc","profitToken()":"49343624"},"id":0}