{"abi":[{"type":"constructor","inputs":[],"stateMutability":"nonpayable"},{"type":"receive","stateMutability":"payable"},{"type":"function","name":"AAVE_BID_TOKEN","inputs":[],"outputs":[{"name":"","type":"address","internalType":"address"}],"stateMutability":"view"},{"type":"function","name":"AAVE_PROPOSAL_TOKEN","inputs":[],"outputs":[{"name":"","type":"address","internalType":"address"}],"stateMutability":"view"},{"type":"function","name":"DEFAULT_AAVE","inputs":[],"outputs":[{"name":"","type":"address","internalType":"address"}],"stateMutability":"view"},{"type":"function","name":"HELPER","inputs":[],"outputs":[{"name":"","type":"address","internalType":"address"}],"stateMutability":"view"},{"type":"function","name":"STK_AAVE","inputs":[],"outputs":[{"name":"","type":"address","internalType":"address"}],"stateMutability":"view"},{"type":"function","name":"STK_AAVE_BID_TOKEN","inputs":[],"outputs":[{"name":"","type":"address","internalType":"address"}],"stateMutability":"view"},{"type":"function","name":"STK_AAVE_PROPOSAL_TOKEN","inputs":[],"outputs":[{"name":"","type":"address","internalType":"address"}],"stateMutability":"view"},{"type":"function","name":"TARGET","inputs":[],"outputs":[{"name":"","type":"address","internalType":"address"}],"stateMutability":"view"},{"type":"function","name":"USDC","inputs":[],"outputs":[{"name":"","type":"address","internalType":"address"}],"stateMutability":"view"},{"type":"function","name":"WETH","inputs":[],"outputs":[{"name":"","type":"address","internalType":"address"}],"stateMutability":"view"},{"type":"function","name":"attackerAaveAfter","inputs":[],"outputs":[{"name":"","type":"uint256","internalType":"uint256"}],"stateMutability":"view"},{"type":"function","name":"attackerAaveBefore","inputs":[],"outputs":[{"name":"","type":"uint256","internalType":"uint256"}],"stateMutability":"view"},{"type":"function","name":"attackerAaveBidAfter","inputs":[],"outputs":[{"name":"","type":"uint256","internalType":"uint256"}],"stateMutability":"view"},{"type":"function","name":"attackerAaveBidBefore","inputs":[],"outputs":[{"name":"","type":"uint256","internalType":"uint256"}],"stateMutability":"view"},{"type":"function","name":"attackerAaveProposalAfter","inputs":[],"outputs":[{"name":"","type":"uint256","internalType":"uint256"}],"stateMutability":"view"},{"type":"function","name":"attackerAaveProposalBefore","inputs":[],"outputs":[{"name":"","type":"uint256","internalType":"uint256"}],"stateMutability":"view"},{"type":"function","name":"attackerEthAfter","inputs":[],"outputs":[{"name":"","type":"uint256","internalType":"uint256"}],"stateMutability":"view"},{"type":"function","name":"attackerEthBefore","inputs":[],"outputs":[{"name":"","type":"uint256","internalType":"uint256"}],"stateMutability":"view"},{"type":"function","name":"attackerStkAaveAfter","inputs":[],"outputs":[{"name":"","type":"uint256","internalType":"uint256"}],"stateMutability":"view"},{"type":"function","name":"attackerStkAaveBefore","inputs":[],"outputs":[{"name":"","type":"uint256","internalType":"uint256"}],"stateMutability":"view"},{"type":"function","name":"attackerStkAaveBidAfter","inputs":[],"outputs":[{"name":"","type":"uint256","internalType":"uint256"}],"stateMutability":"view"},{"type":"function","name":"attackerStkAaveBidBefore","inputs":[],"outputs":[{"name":"","type":"uint256","internalType":"uint256"}],"stateMutability":"view"},{"type":"function","name":"attackerStkAaveProposalAfter","inputs":[],"outputs":[{"name":"","type":"uint256","internalType":"uint256"}],"stateMutability":"view"},{"type":"function","name":"attackerStkAaveProposalBefore","inputs":[],"outputs":[{"name":"","type":"uint256","internalType":"uint256"}],"stateMutability":"view"},{"type":"function","name":"attackerUsdcAfter","inputs":[],"outputs":[{"name":"","type":"uint256","internalType":"uint256"}],"stateMutability":"view"},{"type":"function","name":"attackerUsdcBefore","inputs":[],"outputs":[{"name":"","type":"uint256","internalType":"uint256"}],"stateMutability":"view"},{"type":"function","name":"attackerWethAfter","inputs":[],"outputs":[{"name":"","type":"uint256","internalType":"uint256"}],"stateMutability":"view"},{"type":"function","name":"attackerWethBefore","inputs":[],"outputs":[{"name":"","type":"uint256","internalType":"uint256"}],"stateMutability":"view"},{"type":"function","name":"configuredAmount","inputs":[],"outputs":[{"name":"","type":"uint256","internalType":"uint256"}],"stateMutability":"view"},{"type":"function","name":"executeOnOpportunity","inputs":[],"outputs":[],"stateMutability":"nonpayable"},{"type":"function","name":"executed","inputs":[],"outputs":[{"name":"","type":"bool","internalType":"bool"}],"stateMutability":"view"},{"type":"function","name":"exploitPath","inputs":[],"outputs":[{"name":"","type":"string","internalType":"string"}],"stateMutability":"pure"},{"type":"function","name":"helperAaveAfter","inputs":[],"outputs":[{"name":"","type":"uint256","internalType":"uint256"}],"stateMutability":"view"},{"type":"function","name":"helperAaveBefore","inputs":[],"outputs":[{"name":"","type":"uint256","internalType":"uint256"}],"stateMutability":"view"},{"type":"function","name":"helperAaveBidAfter","inputs":[],"outputs":[{"name":"","type":"uint256","internalType":"uint256"}],"stateMutability":"view"},{"type":"function","name":"helperAaveBidBefore","inputs":[],"outputs":[{"name":"","type":"uint256","internalType":"uint256"}],"stateMutability":"view"},{"type":"function","name":"helperStkAaveAfter","inputs":[],"outputs":[{"name":"","type":"uint256","internalType":"uint256"}],"stateMutability":"view"},{"type":"function","name":"helperStkAaveBefore","inputs":[],"outputs":[{"name":"","type":"uint256","internalType":"uint256"}],"stateMutability":"view"},{"type":"function","name":"helperStkAaveBidAfter","inputs":[],"outputs":[{"name":"","type":"uint256","internalType":"uint256"}],"stateMutability":"view"},{"type":"function","name":"helperStkAaveBidBefore","inputs":[],"outputs":[{"name":"","type":"uint256","internalType":"uint256"}],"stateMutability":"view"},{"type":"function","name":"hypothesisValidated","inputs":[],"outputs":[{"name":"","type":"bool","internalType":"bool"}],"stateMutability":"view"},{"type":"function","name":"observedAave","inputs":[],"outputs":[{"name":"","type":"address","internalType":"address"}],"stateMutability":"view"},{"type":"function","name":"originalHypothesisValidated","inputs":[],"outputs":[{"name":"","type":"bool","internalType":"bool"}],"stateMutability":"view"},{"type":"function","name":"outcome","inputs":[],"outputs":[{"name":"","type":"string","internalType":"string"}],"stateMutability":"view"},{"type":"function","name":"prefunded","inputs":[],"outputs":[{"name":"","type":"bool","internalType":"bool"}],"stateMutability":"view"},{"type":"function","name":"profitAchieved","inputs":[],"outputs":[{"name":"","type":"bool","internalType":"bool"}],"stateMutability":"view"},{"type":"function","name":"profitAmount","inputs":[],"outputs":[{"name":"","type":"uint256","internalType":"uint256"}],"stateMutability":"view"},{"type":"function","name":"profitToken","inputs":[],"outputs":[{"name":"","type":"address","internalType":"address"}],"stateMutability":"view"},{"type":"function","name":"targetAaveAfter","inputs":[],"outputs":[{"name":"","type":"uint256","internalType":"uint256"}],"stateMutability":"view"},{"type":"function","name":"targetAaveBefore","inputs":[],"outputs":[{"name":"","type":"uint256","internalType":"uint256"}],"stateMutability":"view"},{"type":"function","name":"targetAaveBidAfter","inputs":[],"outputs":[{"name":"","type":"uint256","internalType":"uint256"}],"stateMutability":"view"},{"type":"function","name":"targetAaveBidBefore","inputs":[],"outputs":[{"name":"","type":"uint256","internalType":"uint256"}],"stateMutability":"view"},{"type":"function","name":"targetCallSucceeded","inputs":[],"outputs":[{"name":"","type":"bool","internalType":"bool"}],"stateMutability":"view"},{"type":"function","name":"targetEthAfter","inputs":[],"outputs":[{"name":"","type":"uint256","internalType":"uint256"}],"stateMutability":"view"},{"type":"function","name":"targetEthBefore","inputs":[],"outputs":[{"name":"","type":"uint256","internalType":"uint256"}],"stateMutability":"view"},{"type":"function","name":"targetStkAaveAfter","inputs":[],"outputs":[{"name":"","type":"uint256","internalType":"uint256"}],"stateMutability":"view"},{"type":"function","name":"targetStkAaveBefore","inputs":[],"outputs":[{"name":"","type":"uint256","internalType":"uint256"}],"stateMutability":"view"},{"type":"function","name":"targetStkAaveBidAfter","inputs":[],"outputs":[{"name":"","type":"uint256","internalType":"uint256"}],"stateMutability":"view"},{"type":"function","name":"targetStkAaveBidBefore","inputs":[],"outputs":[{"name":"","type":"uint256","internalType":"uint256"}],"stateMutability":"view"},{"type":"function","name":"targetUsdcAfter","inputs":[],"outputs":[{"name":"","type":"uint256","internalType":"uint256"}],"stateMutability":"view"},{"type":"function","name":"targetUsdcBefore","inputs":[],"outputs":[{"name":"","type":"uint256","internalType":"uint256"}],"stateMutability":"view"},{"type":"function","name":"targetWethAfter","inputs":[],"outputs":[{"name":"","type":"uint256","internalType":"uint256"}],"stateMutability":"view"},{"type":"function","name":"targetWethBefore","inputs":[],"outputs":[{"name":"","type":"uint256","internalType":"uint256"}],"stateMutability":"view"},{"type":"function","name":"treasuryWasSpent","inputs":[],"outputs":[{"name":"","type":"bool","internalType":"bool"}],"stateMutability":"view"}],"bytecode":{"object":"0x608080604052346101cc575f808092602081019063819faf7b60e01b82526004815261002c6024826101f8565b519073d2933c86216dc0c938ffafeca3c8a2d6e633e2ca5afa3d156101f0573d906001600160401b0382116101dc5760405191610073601f8201601f1916602001846101f8565b82523d5f602084013e5b806101d0575b6101a1575b506001600160a01b03811615610186575b5f8054600160281b600160c81b031916602892831b600160281b600160c81b03161790819055602a80546001600160a01b0319169190921c6001600160a01b0316179055602c54600181811c9116801561017c575b602082101461016857601f8111610120575b600e663737ba16b93ab760c91b01602c556040516127e3908161021c8239f35b602c5f52601f0160051c7f7416c943b4a09859521022fd2e90eac0dd9026dad28fa317782a135f28a86091908101905b81811061015d5750610100565b5f8155600101610150565b634e487b7160e01b5f52602260045260245ffd5b90607f16906100ee565b50737fc66500c84a76ad7e9c93437bfc5ac33e2ddae9610099565b90506020818051810103126101cc57602001516001600160a01b038116908190036101cc575f610088565b5f80fd5b50602081511015610083565b634e487b7160e01b5f52604160045260245ffd5b60609061007d565b601f909101601f19168101906001600160401b038211908210176101dc5760405256fe608080604052600436101561001c575b50361561001a575f80fd5b005b5f3560e01c908163037c86fa14610c6b5750806306c7f62514610c4e57806309f1009114610c2357806312ea94c314610c065780631d4450ef14610be957806327793f8714610b2657806327f4c4b614610b095780632967272014610adb5780632bd9143014610abf57806330ef7cc914610a9b57806331a38c8914610a7a578063377efac914610a5d57806338c9301814610a405780633b981ba614610a235780633c2448ed14610a0b5780633e769b33146109ee578063425895df146109d1578063463defd1146107df578063478552c5146109b4578063493436241461098c5780634a9a273a1461096f5780634f5cff55146109525780634f63d6e6146109355780634fd40c9b1461091857806354e70be9146108fb5780635e517531146108de5780635ff972cc146108c15780636891e3c0146108a45780636c989dd0146108875780637794f04e1461086a5780637aef8ea51461084d57806389a302711461081f5780638e795bb0146108025780639159ade2146107df578063933c73b4146107c257806396acf928146107a55780639b0c23ba146107775780639df005fc1461075a5780639e6ad77c1461073d5780639e7b5aaa14610720578063a9bb1d42146106fc578063ad5c4648146106ce578063ad8af491146106aa578063ae2553a11461068d578063b72d247c14610670578063b8b8654014610642578063bdf2878d14610614578063cb3a27a2146105f7578063cb707c62146104de578063cc1f2afa146104b7578063ceab208b14610489578063d66e7fd11461046c578063dee188981461044f578063eb4bc7d414610432578063eec4520514610415578063eed021a1146103f8578063f0a01176146103d9578063f4b0c99d146103bc578063f4c7b5221461038e578063f551bf2014610360578063f6a3abc014610343578063f841957b14610326578063f91f998e146103095763fa2d48b9146102e8575f61000f565b34610305575f366003190112610305576020600854604051908152f35b5f80fd5b34610305575f366003190112610305576020601654604051908152f35b34610305575f366003190112610305576020601f54604051908152f35b34610305575f366003190112610305576020600554604051908152f35b34610305575f36600319011261030557602060405173f36f3976f288b2b4903aca8c177efc019b81d88b8152f35b34610305575f36600319011261030557602060405173660428626d4bac1a7b1c619157e3205dad540ad18152f35b34610305575f366003190112610305576020601a54604051908152f35b34610305575f366003190112610305576020602b541515604051908152f35b34610305575f366003190112610305576020601054604051908152f35b34610305575f366003190112610305576020601b54604051908152f35b34610305575f366003190112610305576020600654604051908152f35b34610305575f366003190112610305576020601c54604051908152f35b34610305575f366003190112610305576020600954604051908152f35b34610305575f366003190112610305576020604051737fc66500c84a76ad7e9c93437bfc5ac33e2ddae98152f35b34610305575f3660031901126103055760206040515f51602061278e5f395f51905f528152f35b34610305575f366003190112610305576105f36040516104ff60e082610ce7565b60bc81527f4f62736572766520746865207665726966696572206265696e672066756e646560208201527f64202d3e2043616c6c20657865637574654f6e4f70706f7274756e697479282960408201527f206265666f72652074686520696e74656e646564206f70657261746f7220646f60608201527f6573202d3e2054686520636f6e7472616374206578656375746573207468652060808201527f7374726174656779207573696e6720697473206f776e2074726561737572792060a08201527f77697468206e6f2063616c6c657220617574686f72697a6174696f6e0000000060c082015260405191829182610c85565b0390f35b34610305575f366003190112610305576020600154604051908152f35b34610305575f366003190112610305576020604051734da27a545c0c5b758a6ba100e3a049001de870f58152f35b34610305575f36600319011261030557602060405173d4e12b224c316664ebb647f69abc1fb8bb2697c78152f35b34610305575f366003190112610305576020601554604051908152f35b34610305575f366003190112610305576020602254604051908152f35b34610305575f36600319011261030557602060ff5f5460101c166040519015158152f35b34610305575f36600319011261030557602060405173c02aaa39b223fe8d0a0e5c4f27ead9083c756cc28152f35b34610305575f36600319011261030557602060ff5f5460081c166040519015158152f35b34610305575f366003190112610305576020600c54604051908152f35b34610305575f366003190112610305576020601d54604051908152f35b34610305575f366003190112610305576020601254604051908152f35b34610305575f36600319011261030557602060405173740836c95c6f3f49cccc65a27331d1f225138c398152f35b34610305575f366003190112610305576020600454604051908152f35b34610305575f366003190112610305576020601854604051908152f35b34610305575f36600319011261030557602060ff5f54821c166040519015158152f35b34610305575f366003190112610305576020600a54604051908152f35b34610305575f36600319011261030557602060405173a0b86991c6218b36c1d19d4a2e9eb0ce3606eb488152f35b34610305575f366003190112610305576020602654604051908152f35b34610305575f366003190112610305576020600b54604051908152f35b34610305575f366003190112610305576020601454604051908152f35b34610305575f366003190112610305576020600254604051908152f35b34610305575f366003190112610305576020602b54604051908152f35b34610305575f366003190112610305576020601154604051908152f35b34610305575f366003190112610305576020600354604051908152f35b34610305575f366003190112610305576020602854604051908152f35b34610305575f366003190112610305576020600d54604051908152f35b34610305575f366003190112610305576020601e54604051908152f35b34610305575f366003190112610305576020602154604051908152f35b34610305575f36600319011261030557602a546040516001600160a01b039091168152602090f35b34610305575f366003190112610305576020600f54604051908152f35b34610305575f366003190112610305576020600e54604051908152f35b34610305575f366003190112610305576020602354604051908152f35b34610305575f3660031901126103055761001a610d78565b34610305575f366003190112610305576020601754604051908152f35b34610305575f366003190112610305576020600754604051908152f35b34610305575f366003190112610305576020602554604051908152f35b34610305575f36600319011261030557602060ff5f54166040519015158152f35b34610305575f36600319011261030557602060ff5f5460181c166040519015158152f35b34610305575f3660031901126103055760208054604051908152f35b34610305575f36600319011261030557602060405173ec568fffba86c094cf06b22134b23074dfe2252c8152f35b34610305575f366003190112610305576020602954604051908152f35b34610305575f366003190112610305576040515f602c54610b4681610caf565b8084529060018116908115610bc55750600114610b7a575b6105f383610b6e81850382610ce7565b60405191829182610c85565b919050602c5f525f51602061276e5f395f51905f52915f905b808210610bab57509091508101602001610b6e610b5e565b919260018160209254838588010152019101909291610b93565b60ff191660208086019190915291151560051b84019091019150610b6e9050610b5e565b34610305575f366003190112610305576020602454604051908152f35b34610305575f366003190112610305576020602754604051908152f35b34610305575f366003190112610305575f5460405160289190911c6001600160a01b03168152602090f35b34610305575f366003190112610305576020601954604051908152f35b34610305575f366003190112610305576020906013548152f35b602060409281835280519182918282860152018484015e5f828201840152601f01601f1916010190565b90600182811c92168015610cdd575b6020831014610cc957565b634e487b7160e01b5f52602260045260245ffd5b91607f1691610cbe565b90601f8019910116810190811067ffffffffffffffff821117610d0957604052565b634e487b7160e01b5f52604160045260245ffd5b818110610d28575050565b5f8155600101610d1d565b90601f8211610d40575050565b610d6c91602c5f5260205f20906020601f840160051c83019310610d6e575b601f0160051c0190610d1d565b565b9091508190610d5f565b5f5460ff8116611edd57600160ff198216175f555f5f80604051602081019063819faf7b60e01b825260048152610db0602482610ce7565b51905f51602061278e5f395f51905f525afa610dca611ee0565b9080611ed1575b611ea6575b506001600160a01b03811615611e8b575b64ffffffff01600160c81b03198216602891821b65010000000000600160c81b03169081176001175f818155602a80546001600160a01b0319169290941c6001600160a01b0316918217909355604051631956698160e31b60208201908152600482529394938591829190610e5d602482610ce7565b51905f51602061278e5f395f51905f525afa610e77611ee0565b9080611e7f575b611e5f575b5061ff0060019160ff95835547601855610e9c30612190565b601a55610ea93082612690565b601c55610eb530612218565b601e55610ec13061226c565b602055610ecd306122c0565b602255610ed930612314565b602455610ee530612368565b602655610ef1306123bc565b6028555f51602061278e5f395f51905f523180600255610f0f612410565b9182600455610f1d81612448565b9081600655610f2a6124a3565b9081600855610f376124db565b9081600a55610f44612513565b80600c55610f5d610f5361254b565b9283600e55612583565b9283601055610f6a6125d3565b9485601255610f77612612565b9687601455610f84612651565b988960165515998a159a611e55575b508915611e4b575b508815611e41575b508715611e37575b508615611e2d575b508515611e23575b508415611e19575b508315611e0f575b508215611e05575b508115611dfb575b50151560081b169264ffffff00018260c81b031916171717805f5560081c1615611d14575f806040516020810190633c2448ed60e01b825260048152611022602482610ce7565b5190825f51602061278e5f395f51905f525af161103d611ee0565b50611d00575b5f8060018060a01b03815460281c166040516020810191633cca991f60e01b8352602482015273740836c95c6f3f49cccc65a27331d1f225138c39604482015282606482015260648152611098608482610ce7565b5190825f51602061278e5f395f51905f525af16110b3611ee0565b50611cec575b5f8060018060a01b03815460281c166040516020810191633cca991f60e01b8352602482015273ec568fffba86c094cf06b22134b23074dfe2252c60448201528260648201526064815261110e608482610ce7565b5190825f51602061278e5f395f51905f525af1611129611ee0565b50611cd8575b5f806040516020810190633cca991f60e01b8252734da27a545c0c5b758a6ba100e3a049001de870f5602482015273660428626d4bac1a7b1c619157e3205dad540ad160448201528260648201526064815261118c608482610ce7565b5190825f51602061278e5f395f51905f525af16111a7611ee0565b50611cc4575b5f806040516020810190633cca991f60e01b8252734da27a545c0c5b758a6ba100e3a049001de870f5602482015273d4e12b224c316664ebb647f69abc1fb8bb2697c760448201528260648201526064815261120a608482610ce7565b5190825f51602061278e5f395f51905f525af1611225611ee0565b50611cb0575b5f8060018060a01b03815460281c166040516020810191633cca991f60e01b835273740836c95c6f3f49cccc65a27331d1f225138c396024830152604482015282606482015260648152611280608482610ce7565b5190825f51602061278e5f395f51905f525af161129b611ee0565b50611c9c575b5f8060018060a01b03815460281c166040516020810191633cca991f60e01b835273ec568fffba86c094cf06b22134b23074dfe2252c60248301526044820152826064820152606481526112f6608482610ce7565b5190825f51602061278e5f395f51905f525af1611311611ee0565b50611c88575b5f806040516020810190633cca991f60e01b825273660428626d4bac1a7b1c619157e3205dad540ad16024820152734da27a545c0c5b758a6ba100e3a049001de870f5604482015282606482015260648152611374608482610ce7565b5190825f51602061278e5f395f51905f525af161138f611ee0565b50611c74575b5f806040516020810190633cca991f60e01b825273d4e12b224c316664ebb647f69abc1fb8bb2697c76024820152734da27a545c0c5b758a6ba100e3a049001de870f56044820152826064820152606481526113f2608482610ce7565b5190825f51602061278e5f395f51905f525af161140d611ee0565b50611c60575b5f8060018060a01b03815460281c166040516020810191633cca991f60e01b8352602482015273f36f3976f288b2b4903aca8c177efc019b81d88b604482015282606482015260648152611468608482610ce7565b5190825f51602061278e5f395f51905f525af1611483611ee0565b50611c4c575b5f806040516020810190633cca991f60e01b8252734da27a545c0c5b758a6ba100e3a049001de870f5602482015273f36f3976f288b2b4903aca8c177efc019b81d88b6044820152826064820152606481526114e6608482610ce7565b5190825f51602061278e5f395f51905f525af1611501611ee0565b50611c38575b5f8060018060a01b03815460281c166040516020810191633cca991f60e01b835273f36f3976f288b2b4903aca8c177efc019b81d88b602483015260448201528260648201526064815261155c608482610ce7565b5190825f51602061278e5f395f51905f525af1611577611ee0565b50611c24575b5f806040516020810190633cca991f60e01b825273f36f3976f288b2b4903aca8c177efc019b81d88b6024820152734da27a545c0c5b758a6ba100e3a049001de870f56044820152826064820152606481526115da608482610ce7565b5190825f51602061278e5f395f51905f525af16115f5611ee0565b50611c10575b5f5461161490309060281c6001600160a01b03166126db565b5f5461162c9060281c6001600160a01b0316306126db565b5f8060018060a01b03815460281c166040516020810191633cca991f60e01b835260248201525f51602061278e5f395f51905f5260448201528260648201526064815261167a608482610ce7565b5190825f51602061278e5f395f51905f525af1611695611ee0565b50611bfc575b5f8060018060a01b03815460281c166040516020810191633cca991f60e01b83525f51602061278e5f395f51905f5260248301526044820152826064820152606481526116e9608482610ce7565b5190825f51602061278e5f395f51905f525af1611704611ee0565b50611be8575b611712611f1f565b60035460025414801590611bda575b8015611bcc575b8015611bbe575b8015611bb0575b8015611ba2575b8015611b94575b8015611b4e575b63ff0000005f5491151560181b169063ff0000001916175f5561176c612016565b60ff5f54818160101c1680611b41575b64ff0000000090151560201b169064ff00000000191617805f5560101c1615611a805760ff5f5460181c16156119b2576019546018541080156119a5575b8015611998575b801561198b575b801561197e575b8015611971575b8015611964575b8015611957575b801561194a575b156118f2576040516117fe604082610ce7565b601c81527f76616c6964617465642d776974682d6469726563742d70726f666974000000006020820152905b815167ffffffffffffffff8111610d095761184f8161184a602c54610caf565b610d33565b602092601f821160011461188957928192935f9261187e575b50508160011b915f199060031b1c191617602c55565b015190505f80611868565b601f19821693602c5f525f51602061276e5f395f51905f52915f5b8681106118da57508360019596106118c2575b505050811b01602c55565b01515f1960f88460031b161c191690555f80806118b7565b919260206001819286850151815501940192016118a4565b604051611900606082610ce7565b603181527f76616c6964617465642d7065726d697373696f6e6c6573732d747269676765726020820152700b5b9bcb591a5c9958dd0b5c1c9bd99a5d607a1b60408201529061182a565b50602954602854106117eb565b50602754602654106117e4565b50602554602454106117dd565b50602354602254106117d6565b50602154602054106117cf565b50601f54601e54106117c8565b50601d54601c54106117c1565b50601b54601a54106117ba565b6119bd602c54610caf565b601f8111611a37575b50605f602c55602c5f527f696e6665617369626c652d73746167652d332d6e6f2d6f627365727661626c655f51602061276e5f395f51905f52556e0b5d1c99585cdd5c9e4b5cdc195b99608a1b7f7416c943b4a09859521022fd2e90eac0dd9026dad28fa317782a135f28a8609255565b602c5f52611a7a90601f0160051c5f51602061276e5f395f51905f52017f7416c943b4a09859521022fd2e90eac0dd9026dad28fa317782a135f28a86093610d1d565b5f6119c6565b611a8b602c54610caf565b601f8111611af8575b506045602c55602c5f527f696e6665617369626c652d73746167652d322d7461726765742d7265766572745f51602061276e5f395f51905f525561195960f21b7f7416c943b4a09859521022fd2e90eac0dd9026dad28fa317782a135f28a8609255565b602c5f52611b3b90601f0160051c5f51602061276e5f395f51905f52017f7416c943b4a09859521022fd2e90eac0dd9026dad28fa317782a135f28a86093610d1d565b5f611a94565b50601881901c821661177c565b5060115460105414801590611b86575b8015611b78575b8061174b5750601754601654141561174b565b506015546014541415611b65565b506013546012541415611b5e565b50600f54600e541415611744565b50600d54600c54141561173d565b50600b54600a541415611736565b50600954600854141561172f565b506007546006541415611728565b506005546004541415611721565b6201000062ff0000195f5416175f5561170a565b6201000062ff0000195f5416175f5561169b565b6201000062ff0000195f5416175f556115fb565b6201000062ff0000195f5416175f5561157d565b6201000062ff0000195f5416175f55611507565b6201000062ff0000195f5416175f55611489565b6201000062ff0000195f5416175f55611413565b6201000062ff0000195f5416175f55611395565b6201000062ff0000195f5416175f55611317565b6201000062ff0000195f5416175f556112a1565b6201000062ff0000195f5416175f5561122b565b6201000062ff0000195f5416175f556111ad565b6201000062ff0000195f5416175f5561112f565b6201000062ff0000195f5416175f556110b9565b6201000062ff0000195f5416175f55611043565b60405190611d23604083610ce7565b601b82527f696e6665617369626c652d73746167652d312d756e66756e64656400000000006020830152611d55611f1f565b611d5d612016565b815167ffffffffffffffff8111610d0957611d7d8161184a602c54610caf565b602092601f8211600114611dab57928192935f9261187e5750508160011b915f199060031b1c191617602c55565b601f19821693602c5f525f51602061276e5f395f51905f52915f5b868110611de357508360019596106118c257505050811b01602c55565b91926020600181928685015181550194019201611dc6565b905015155f610fdb565b151591505f610fd3565b151592505f610fcb565b151593505f610fc3565b151594505f610fbb565b151595505f610fb3565b151596505f610fab565b151597505f610fa3565b151598505f610f9b565b151599505f610f93565b80516020808301965090820191909103126103055792519261ff00610e83565b50602081511015610e7e565b50737fc66500c84a76ad7e9c93437bfc5ac33e2ddae9610de7565b905060208180518101031261030557602001516001600160a01b03811690819003610305575f610dd6565b50602081511015610dd1565b50565b3d15611f1a573d9067ffffffffffffffff8211610d095760405191611f0f601f8201601f191660200184610ce7565b82523d5f602084013e565b606090565b47601955611f2c30612190565b601b555f54611ff09060281c6001600160a01b0316611f4b3082612690565b601d55611f5730612218565b601f55611f633061226c565b602155611f6f306122c0565b602355611f7b30612314565b602555611f8730612368565b602755611f93306123bc565b6029555f51602061278e5f395f51905f5231600355611fb0612410565b600555611fbc81612448565b600755611fc76124a3565b600955611fd26124db565b600b55611fdd612513565b600d55611fe861254b565b600f55612583565b601155611ffb6125d3565b601355612006612612565b601555612011612651565b601755565b612025601d54601c5490612752565b612034601b54601a5490612752565b612043601f54601e5490612752565b61205260215460205490612752565b61206160235460225490612752565b9061207160255460245490612752565b9261208160275460265490612752565b9461209160295460285490612752565b966120a160065460075490612752565b6120b060105460115490612752565b810180911161217c5760018060a01b035f5460281c166bffffffffffffffffffffffff60a01b602a541617602a5580602b558111612173575b50602b54811161216a575b50602b548111612161575b50602b548111612158575b50602b54811161214f575b50602b548111612146575b50602b54811161213d575b50602b5481116121385750565b602b55565b602b555f61212b565b602b555f612120565b602b555f612115565b602b555f61210a565b602b555f6120ff565b602b555f6120f4565b602b555f6120e9565b634e487b7160e01b5f52601160045260245ffd5b905f80809360405160208101916370a0823160e01b835260018060a01b03166024820152602481526121c3604482610ce7565b519073c02aaa39b223fe8d0a0e5c4f27ead9083c756cc25afa6121e4611ee0565b908061220c575b6121f25750565b805191925060208082019282019190910312610305575190565b506020815110156121eb565b905f80809360405160208101916370a0823160e01b835260018060a01b031660248201526024815261224b604482610ce7565b519073a0b86991c6218b36c1d19d4a2e9eb0ce3606eb485afa6121e4611ee0565b905f80809360405160208101916370a0823160e01b835260018060a01b031660248201526024815261229f604482610ce7565b5190734da27a545c0c5b758a6ba100e3a049001de870f55afa6121e4611ee0565b905f80809360405160208101916370a0823160e01b835260018060a01b03166024820152602481526122f3604482610ce7565b519073740836c95c6f3f49cccc65a27331d1f225138c395afa6121e4611ee0565b905f80809360405160208101916370a0823160e01b835260018060a01b0316602482015260248152612347604482610ce7565b519073660428626d4bac1a7b1c619157e3205dad540ad15afa6121e4611ee0565b905f80809360405160208101916370a0823160e01b835260018060a01b031660248201526024815261239b604482610ce7565b519073ec568fffba86c094cf06b22134b23074dfe2252c5afa6121e4611ee0565b905f80809360405160208101916370a0823160e01b835260018060a01b03166024820152602481526123ef604482610ce7565b519073d4e12b224c316664ebb647f69abc1fb8bb2697c75afa6121e4611ee0565b5f905f8060405160208101906370a0823160e01b82525f51602061278e5f395f51905f526024820152602481526121c3604482610ce7565b5f91906001600160a01b0381161561249d575f809160405160208101906370a0823160e01b82525f51602061278e5f395f51905f52602482015260248152612491604482610ce7565b51915afa6121e4611ee0565b505f9150565b5f905f8060405160208101906370a0823160e01b82525f51602061278e5f395f51905f5260248201526024815261224b604482610ce7565b5f905f8060405160208101906370a0823160e01b82525f51602061278e5f395f51905f5260248201526024815261229f604482610ce7565b5f905f8060405160208101906370a0823160e01b82525f51602061278e5f395f51905f526024820152602481526122f3604482610ce7565b5f905f8060405160208101906370a0823160e01b82525f51602061278e5f395f51905f52602482015260248152612347604482610ce7565b5f91906001600160a01b0381161561249d575f809160405160208101906370a0823160e01b825273f36f3976f288b2b4903aca8c177efc019b81d88b602482015260248152612491604482610ce7565b5f905f8060405160208101906370a0823160e01b825273f36f3976f288b2b4903aca8c177efc019b81d88b60248201526024815261229f604482610ce7565b5f905f8060405160208101906370a0823160e01b825273f36f3976f288b2b4903aca8c177efc019b81d88b6024820152602481526122f3604482610ce7565b5f905f8060405160208101906370a0823160e01b825273f36f3976f288b2b4903aca8c177efc019b81d88b602482015260248152612347604482610ce7565b5f92916001600160a01b038216156126d4575f91829160405160208101916370a0823160e01b835260018060a01b0316602482015260248152612491604482610ce7565b505f925050565b604051633cca991f60e01b602082019081526001600160a01b0392831660248301529290911660448201525f6064808301829052825291829161271f608482610ce7565b5190825f51602061278e5f395f51905f525af161273a611ee0565b5061274157565b6201000062ff0000195f5416175f55565b908082111561276757810390811161217c5790565b50505f9056fe7416c943b4a09859521022fd2e90eac0dd9026dad28fa317782a135f28a86091000000000000000000000000d2933c86216dc0c938ffafeca3c8a2d6e633e2caa26469706673582212201118444d9fe7bc04190c8ebcc743b9202277755c75fb8da9983afeb8120d0b2c64736f6c634300081e0033","linkReferences":{}},"methodIdentifiers":{"AAVE_BID_TOKEN()":"9b0c23ba","AAVE_PROPOSAL_TOKEN()":"29672720","DEFAULT_AAVE()":"ceab208b","HELPER()":"f551bf20","STK_AAVE()":"bdf2878d","STK_AAVE_BID_TOKEN()":"f4c7b522","STK_AAVE_PROPOSAL_TOKEN()":"b8b86540","TARGET()":"cc1f2afa","USDC()":"89a30271","WETH()":"ad5c4648","attackerAaveAfter()":"9e6ad77c","attackerAaveBefore()":"dee18898","attackerAaveBidAfter()":"3e769b33","attackerAaveBidBefore()":"ae2553a1","attackerAaveProposalAfter()":"12ea94c3","attackerAaveProposalBefore()":"7aef8ea5","attackerEthAfter()":"06c7f625","attackerEthBefore()":"933c73b4","attackerStkAaveAfter()":"4a9a273a","attackerStkAaveBefore()":"2bd91430","attackerStkAaveBidAfter()":"377efac9","attackerStkAaveBidBefore()":"1d4450ef","attackerStkAaveProposalAfter()":"27f4c4b6","attackerStkAaveProposalBefore()":"4fd40c9b","attackerUsdcAfter()":"f841957b","attackerUsdcBefore()":"4f5cff55","attackerWethAfter()":"eec45205","attackerWethBefore()":"f4b0c99d","configuredAmount()":"cb3a27a2","executeOnOpportunity()":"3c2448ed","executed()":"31a38c89","exploitPath()":"cb707c62","helperAaveAfter()":"5e517531","helperAaveBefore()":"eed021a1","helperAaveBidAfter()":"b72d247c","helperAaveBidBefore()":"6c989dd0","helperStkAaveAfter()":"037c86fa","helperStkAaveBefore()":"9df005fc","helperStkAaveBidAfter()":"3b981ba6","helperStkAaveBidBefore()":"f91f998e","hypothesisValidated()":"463defd1","observedAave()":"09f10091","originalHypothesisValidated()":"9159ade2","outcome()":"27793f87","prefunded()":"a9bb1d42","profitAchieved()":"f0a01176","profitAmount()":"5ff972cc","profitToken()":"49343624","targetAaveAfter()":"38c93018","targetAaveBefore()":"eb4bc7d4","targetAaveBidAfter()":"4f63d6e6","targetAaveBidBefore()":"9e7b5aaa","targetCallSucceeded()":"ad8af491","targetEthAfter()":"54e70be9","targetEthBefore()":"6891e3c0","targetStkAaveAfter()":"7794f04e","targetStkAaveBefore()":"8e795bb0","targetStkAaveBidAfter()":"478552c5","targetStkAaveBidBefore()":"425895df","targetUsdcAfter()":"d66e7fd1","targetUsdcBefore()":"fa2d48b9","targetWethAfter()":"f6a3abc0","targetWethBefore()":"96acf928","treasuryWasSpent()":"30ef7cc9"},"id":0}