{"abi":[{"type":"constructor","inputs":[],"stateMutability":"nonpayable"},{"type":"function","name":"DVMFlashLoanCall","inputs":[{"name":"","type":"address","internalType":"address"},{"name":"","type":"uint256","internalType":"uint256"},{"name":"","type":"uint256","internalType":"uint256"},{"name":"data","type":"bytes","internalType":"bytes"}],"outputs":[],"stateMutability":"nonpayable"},{"type":"function","name":"executeOnOpportunity","inputs":[],"outputs":[],"stateMutability":"nonpayable"},{"type":"function","name":"planBorrowBase","inputs":[{"name":"base","type":"address","internalType":"address"},{"name":"quote","type":"address","internalType":"address"},{"name":"baseReserve","type":"uint256","internalType":"uint256"}],"outputs":[{"name":"best","type":"tuple","internalType":"struct FlawVerifier.Plan","components":[{"name":"router","type":"address","internalType":"address"},{"name":"borrowAmount","type":"uint256","internalType":"uint256"},{"name":"exactQuoteRepay","type":"uint256","internalType":"uint256"},{"name":"maxBaseToSell","type":"uint256","internalType":"uint256"},{"name":"viaWeth","type":"bool","internalType":"bool"},{"name":"estimatedProfit","type":"uint256","internalType":"uint256"}]}],"stateMutability":"nonpayable"},{"type":"function","name":"profitAmount","inputs":[],"outputs":[{"name":"","type":"uint256","internalType":"uint256"}],"stateMutability":"view"},{"type":"function","name":"profitToken","inputs":[],"outputs":[{"name":"","type":"address","internalType":"address"}],"stateMutability":"view"}],"bytecode":{"object":"0x60a0806040523461008157609d8181016001600160401b0381118382101761006d5782916124f9833903905ff08015610062576080526040516124739081610086823960805181818161043801528181610ad101528181610cc50152610ee10152f35b6040513d5f823e3d90fd5b634e487b7160e01b5f52604160045260245ffd5b5f80fdfe60806040526004361015610011575f80fd5b5f5f3560e01c80633c2448ed14610793578063493436241461076c5780635ff972cc1461074f5780636f51980e146103c15763eb2021c314610051575f80fd5b346103be5760803660031901126103be5761006a6107ad565b5060643567ffffffffffffffff8111610235573660238201121561023557806004013567ffffffffffffffff81116103bc578101903660248301116103bc575f51602061241e5f395f51905f523303610383578291608090829003126103805760248101356001600160a01b038116919082900361037e57604481013590811515820361037c57608460648201359101359260405190632512469560e11b82526020826004815f51602061241e5f395f51905f525afa918215610371578692610331575b50604051636a5cb82360e11b8152946020866004815f51602061241e5f395f51905f525afa94851561032657879687966102e4575b508660035582610239575b5050505082604051602081019263a9059cbb60e01b84525f51602061241e5f395f51905f5260248301526044820152604481526101ac6064826107f3565b51925af16101b861158a565b816101fe575b50156101c75780f35b60405162461bcd60e51b815260206004820152600f60248201526e1514905394d1915497d19052531151608a1b6044820152606490fd5b8051801592508215610213575b50505f6101be565b819250906020918101031261023557602061022e9101611332565b5f8061020b565b5080fd5b918161025761027993836102518b989b978b8d611d0b565b9a611e0a565b604051948580948193634401edf760e11b835242908c30918c600487016114d9565b03925af180156102d95785946102a49286926102b1575b5061029f908251905114611512565b611549565b516003555f80808061016e565b61029f9192506102d2903d8089833e6102ca81836107f3565b810190611417565b9190610290565b6040513d87823e3d90fd5b965094506020863d60201161031e575b81610301602093836107f3565b8101031261031a576103138796610815565b945f610163565b8680fd5b3d91506102f4565b6040513d89823e3d90fd5b9091506020813d602011610369575b8161034d602093836107f3565b810103126103655761035e90610815565b905f61012e565b8580fd5b3d9150610340565b6040513d88823e3d90fd5b505b505b50fd5b60405162461bcd60e51b81526020600482015260116024820152702aa722ac2822a1aa22a22fa1a0a62622a960791b6044820152606490fd5b825b80fd5b503461066f57606036600319011261066f576103db6107ad565b90602435906001600160a01b0382169081830361066f57604435926103fe6110a0565b5030330361071e5761040e6110a0565b905f51602061241e5f395f51905f523b1561066f5760405163281ccb9560e11b81525f818061046c7f00000000000000000000000000000000000000000000000000000000000000006001600160a01b0316868c30600486016110d0565b0381835f51602061241e5f395f51905f525af18015610713576106fe575b5060405194610100860186811067ffffffffffffffff8211176106ea576040526126ac865261251c60208701526123286040870152611d4c606087015261138860808701526109c460a08701526103e860c0870152606460e0870152838115905b60088110156106a3578060051b880151808402908482041483171561068f57612710900480156106865761051e8161192d565b908115610600576040516370a0823160e01b81523060048201526020816024818d5afa90811561067b579083918a91610643575b5010156105f45761056482878d611acf565b919490921580156105ea575b6105dd5761057e8285611118565b9360a08b0151851161059b575b5050505050506001905b016104eb565b6001969a50604051956105ad876107c3565b878060a01b031686526020860152604085015260608401521515608083015260a082015294905f8080808061058b565b5050505050600190610595565b5083821015610570565b60a0870151811161060a575b5050600190610595565b60019296506040519161061c836107c3565b888352816020840152604083015287606083015287608083015260a082015294905f610600565b9150506020813d8211610673575b8161065e602093836107f3565b8101031261066f578290515f610552565b5f80fd5b3d9150610651565b6040513d8b823e3d90fd5b50600190610595565b634e487b7160e01b87526011600452602487fd5b60c08560a060405191600180831b038151168352602081015160208401526040810151604084015260608101516060840152608081015115156080840152015160a0820152f35b634e487b7160e01b85526041600452602485fd5b61070b9193505f906107f3565b5f915f61048a565b6040513d5f823e3d90fd5b60405162461bcd60e51b815260206004820152600960248201526853454c465f4f4e4c5960b81b6044820152606490fd5b3461066f575f36600319011261066f576020600154604051908152f35b3461066f575f36600319011261066f575f546040516001600160a01b039091168152602090f35b3461066f575f36600319011261066f576107ab61086d565b005b600435906001600160a01b038216820361066f57565b60c0810190811067ffffffffffffffff8211176107df57604052565b634e487b7160e01b5f52604160045260245ffd5b90601f8019910116810190811067ffffffffffffffff8211176107df57604052565b51906001600160a01b038216820361066f57565b90600581101561083a5760051b0190565b634e487b7160e01b5f52603260045260245ffd5b9081602091031261066f57516001600160701b038116810361066f5790565b600254905f9160ff811661109b5760ff1916600117600255604051632512469560e11b8152916020836004815f51602061241e5f395f51905f525afa928315610713575f9361105f575b50604051636a5cb82360e11b8152926020846004815f51602061241e5f395f51905f525afa938415610713575f94611023575b506040519060a0820182811067ffffffffffffffff8211176107df5760409081526001600160a01b03828116808552908716602085018190525f5160206123be5f395f51905f52858401525f5160206123fe5f395f51905f5260608601525f5160206123de5f395f51905f5260808601529151949160a061096b81886107f3565b803688375f5b60058110610f8d575082158015610f85575b610e8357604051631f5c854160e21b81526020816004815f51602061241e5f395f51905f525afa9081156102d957906001600160701b03918691610e64575b501660405163177eb9cf60e31b81526020816004815f51602061241e5f395f51905f525afa908115610371578691610e35575b508115159081610e22575b50610c84575b50505f5160206123be5f395f51905f5282148015610c6e575b15610c5a575f5160206123de5f395f51905f52905b81925f5160206123fe5f395f51905f5281148015610c44575b8015610c25575b15610c12575f5160206123de5f395f51905f525b926001600160a01b039081169084168114610bd0575b811480610bbe575b610b99575b6001600160a01b038416149081610b86575b50610b72575b5f51602061241e5f395f51905f523b156103bc5760405163281ccb9560e11b815291839183918291610b05917f00000000000000000000000000000000000000000000000000000000000000006001600160a01b0316919030600486016110d0565b0381835f51602061241e5f395f51905f525af18015610b6757610b52575b5050610b509394610b36610b3b92611828565b611828565b610b436115c9565b610b4b611740565b611139565b565b610b5d8280926107f3565b6103be5780610b23565b6040513d84823e3d90fd5b505f5160206123be5f395f51905f52610aa3565b6001600160a01b0383161490505f610a9d565b5f5160206123de5f395f51905f5293505f5160206123fe5f395f51905f529250610a8b565b506001600160a01b0383168214610a86565b92505f5160206123de5f395f51905f528303610bfe57805f5160206123fe5f395f51905f525b939050610a7e565b805f5160206123de5f395f51905f52610bf6565b5f5160206123fe5f395f51905f52610a68565b506001600160a01b0383165f5160206123fe5f395f51905f5214610a54565b505f5160206123fe5f395f51905f528214610a4d565b5f5160206123be5f395f51905f5290610a34565b505f5160206123be5f395f51905f528114610a1f565b610c8f908a8761133f565b8181015115610a0657846003555f51602061241e5f395f51905f523b15610e1e5760405163281ccb9560e11b8152858180610cf97f00000000000000000000000000000000000000000000000000000000000000006001600160a01b03168f8c30600486016110d0565b0381835f51602061241e5f395f51905f525af1801561037157908691610e09575b50506020810151610d6660018060a01b038351169360808401511515936060604082015191015190604051956020870197885260408701526060860152608085015260808452836107f3565b5f51602061241e5f395f51905f523b15610365579060a486926040519485938492633429253960e21b84526004840152856024840152306044840152608060648401525180918160848501528484015e8181018301859052601f01601f19168101030181835f51602061241e5f395f51905f525af18015610dfe5790849115610a065781610df3916107f3565b6103bc57825f610a06565b6040513d86823e3d90fd5b81610e13916107f3565b610e1e57845f610d1a565b8480fd5b6001600160701b0391501615155f610a00565b610e57915060203d602011610e5d575b610e4f81836107f3565b81019061084e565b5f6109f5565b503d610e45565b610e7d915060203d602011610e5d57610e4f81836107f3565b5f6109c2565b505050939450505f51602061241e5f395f51905f523b1561066f5760405163281ccb9560e11b81523060048201525f5160206123be5f395f51905f5260248201525f5160206123fe5f395f51905f5260448201525f606482018190527f00000000000000000000000000000000000000000000000000000000000000006001600160a01b03166084830152600160a483015260c4820181905260e482018190529093908461010481835f51602061241e5f395f51905f525af193841561071357610b5094610f72575b5080546001600160a01b0319165f5160206123be5f395f51905f52178155600155611139565b610f7e91505f906107f3565b5f5f610f4c565b508115610983565b6001600160a01b03610f9f8289610829565b51169081610fb2575b6001915001610971565b6020602492604051938480926370a0823160e01b82523060048301525afa8015610713575f90610ff1575b60019250610feb828b610829565b52610fa8565b506020823d821161101b575b8161100a602093836107f3565b8101031261066f5760019151610fdd565b3d9150610ffd565b9093506020813d602011611057575b8161103f602093836107f3565b8101031261066f5761105090610815565b925f6108ea565b3d9150611032565b9092506020813d602011611093575b8161107b602093836107f3565b8101031261066f5761108c90610815565b915f6108b7565b3d915061106e565b509050565b604051906110ad826107c3565b5f60a0838281528260208201528260408201528260608201528260808201520152565b6001600160a01b039182168152918116602083015291821660408201525f60608201819052919092166080830152600160a083015260c0820181905260e08201526101000190565b9190820391821161112557565b634e487b7160e01b5f52601160045260245ffd5b906040516370a0823160e01b81523060048201526020816024815f5160206123be5f395f51905f525afa908115610713575f91611300575b505f905f5b600581106112bd575b5081811161128d5750505f905f925f5b600581106111bd5750505060018060a01b03166bffffffffffffffffffffffff60a01b5f5416175f55600155565b6001600160a01b036111cf8284610829565b51168015611284576040516370a0823160e01b8152306004820152602081602481855afa908115610713575f91611253575b5061120c8386610829565b5181111561124957611229906112228487610829565b5190611118565b86811161123d575b50506001905b0161118f565b9550935060015f611231565b5050600190611237565b90506020813d821161127c575b8161126d602093836107f3565b8101031261066f57515f611201565b3d9150611260565b50600190611237565b5f80546001600160a01b0319165f5160206123be5f395f51905f521790556112b89350909150611118565b600155565b5f5160206123be5f395f51905f526001600160a01b036112dd8388610829565b5116146112ec57600101611176565b6112f891925083610829565b51905f61117f565b90506020813d60201161132a575b8161131b602093836107f3565b8101031261066f57515f611171565b3d915061130e565b5190811515820361066f57565b90916113496110a0565b6040516337a8cc0760e11b81526001600160a01b039384166004820152929093166024830152604482015260c0816064815f305af15f9181611394575b5061138f575090565b905090565b90915060c0813d60c01161140f575b816113b060c093836107f3565b8101031261066f5760a0604051916113c7836107c3565b6113d081610815565b83526020810151602084015260408101516040840152606081015160608401526113fc60808201611332565b6080840152015160a0820152905f611386565b3d91506113a3565b60208183031261066f5780519067ffffffffffffffff821161066f57019080601f8301121561066f5781519167ffffffffffffffff83116107df578260051b90602082019361146960405195866107f3565b845260208085019282010192831161066f57602001905b82821061148d5750505090565b8151815260209182019101611480565b90602080835192838152019201905f5b8181106114ba5750505090565b82516001600160a01b03168452602093840193909201916001016114ad565b91926080936114fe92979695978452602084015260a0604084015260a083019061149d565b6001600160a01b0390951660608201520152565b1561151957565b60405162461bcd60e51b815260206004820152600860248201526704241445f535741560c41b6044820152606490fd5b80511561083a5760200190565b80516001101561083a5760400190565b80516002101561083a5760600190565b805182101561083a5760209160051b010190565b3d156115c4573d9067ffffffffffffffff82116107df57604051916115b9601f8201601f1916602001846107f3565b82523d5f602084013e565b606090565b6040516370a0823160e01b81523060048201526020816024815f5160206123fe5f395f51905f525afa908115610713575f9161170e575b5080156116dd5761161e815f5160206123fe5f395f51905f52611ff6565b9293909193158015611706575b61170057605f830292808404605f14901517156111255761169d9361165e5f935f5160206123fe5f395f51905f52611c26565b9361167783835f5160206123fe5f395f51905f52611e0a565b836040518097819582946338ed173960e01b8452894292606430930490600487016114d9565b03926001600160a01b03165af1918215610713575f926116e0575b506116c7908251905114611512565b80515f198101908111611125576116dd91611576565b50565b6116c79192506116f9903d805f833e6102ca81836107f3565b91906116b8565b50505050565b50821561162b565b90506020813d602011611738575b81611729602093836107f3565b8101031261066f57515f611600565b3d915061171c565b6040516370a0823160e01b81523060048201526020816024815f5160206123de5f395f51905f525afa908115610713575f916117f6575b5080156116dd57611795815f5160206123de5f395f51905f52611ff6565b92939091931580156117ee575b61170057605f830292808404605f14901517156111255761169d936117d55f935f5160206123de5f395f51905f52611c26565b9361167783835f5160206123de5f395f51905f52611e0a565b5082156117a2565b90506020813d602011611820575b81611811602093836107f3565b8101031261066f57515f611777565b3d9150611804565b6001600160a01b0381169081158015611901575b6118c9576020602492604051938480926370a0823160e01b82523060048301525afa918215610713575f926118cd575b5081156118c95761187d8282611ff6565b949190921580156118c1575b6118ba57605f850294808604605f14901517156111255761169d9461167783836118b45f9789611c26565b97611e0a565b5050505050565b508415611889565b5050565b9091506020813d6020116118f9575b816118e9602093836107f3565b8101031261066f5751905f61186c565b3d91506118dc565b505f5160206123be5f395f51905f52821461183c565b919082604091031261066f576020825192015190565b600190815b6001600160ff1b038110611a5e575b604080516366410a2160e01b81523060048201526024810183905290816044815f51602061241e5f395f51905f525afa80156107135783915f91611a3e575b5010611a37575b80831061199357505090565b61199d8382611118565b60011c83019081841161112557604080516366410a2160e01b81523060048201526024810184905290816044815f51602061241e5f395f51905f525afa80156107135784915f91611a08575b50106119f55750611987565b9250600181018091116111255791611987565b611a29915060403d8111611a30575b611a2181836107f3565b810190611917565b505f6119e9565b503d611a17565b5050505f90565b611a57915060403d604011611a3057611a2181836107f3565b505f611980565b604080516366410a2160e01b81523060048201526024810183905290816044815f51602061241e5f395f51905f525afa80156107135783915f91611ab0575b501015611aab57821b611932565b611941565b611ac8915060403d8111611a3057611a2181836107f3565b505f611a9d565b5f93849384936001600160a01b03848116908216148015611c1e575b611c0e575f1993611afd838383612191565b90611be8575b50611b0f838383612240565b9080611bdf575b611bb9575b50611b27838383612251565b9080611bb0575b611b88575b5090611b3f929161228e565b9080611b7f575b611b59575b508415611b5457565b5f9150565b6001955073d9e1ce17f2641f24ae83637ab66a2cca9c378b9f945085935091505f611b4b565b50828110611b46565b6001985073d9e1ce17f2641f24ae83637ab66a2cca9c378b9f97505f96509450611b3f611b33565b50858110611b2e565b60019850737a250d5630b4cf539739df2c5dacb4c659f2488d975088965094505f611b1b565b50858110611b16565b60019850737a250d5630b4cf539739df2c5dacb4c659f2488d97505f9650945085611b03565b505f955085945084935083925050565b508115611aeb565b9190606090158015611cec575b8015611ce4575b611c9557505f5160206123be5f395f51905f52611c92604051611c5e6080826107f3565b6003815260603660208301378094611c7582611549565b6001600160a01b03909116905282611c8c82611556565b52611566565b52565b909160405191611ca581846107f3565b60028352601f1901366020840137611cbc82611549565b6001600160a01b0390911690525f5160206123be5f395f51905f52611ce082611556565b5290565b506001611c3a565b506001600160a01b0383165f5160206123be5f395f51905f5214611c33565b9291606090158015611deb575b8015611dcc575b611d7f5750611d70604051611d356080826107f3565b6003815260603660208301378094611d4c82611549565b6001600160a01b0390911690525f5160206123be5f395f51905f52611c8c82611556565b6001600160a01b039091169052565b919260405192611d8f81856107f3565b60028452601f1901366020850137611da683611549565b6001600160a01b039091169052611dbc82611556565b6001600160a01b03909116905290565b506001600160a01b0382165f5160206123be5f395f51905f5214611d1f565b506001600160a01b0384165f5160206123be5f395f51905f5214611d18565b60405163095ea7b360e01b602082019081526001600160a01b0384166024830152604482018590529293925f91829190611e5181606481015b03601f1981018352826107f3565b519082855af1611e5f61158a565b81611fbf575b50611fba5760405163095ea7b360e01b602082019081526001600160a01b03851660248301525f6044808401829052835291829190611ea56064826107f3565b519082855af1611eb361158a565b81611f83575b5015611f165760405163095ea7b360e01b602082019081526001600160a01b03909416602482015260448101929092525f9283928390611efc8160648101611e43565b51925af1611f0861158a565b81611f4c575b5015611f1657565b60405162461bcd60e51b815260206004820152600e60248201526d1054141493d59157d1905253115160921b6044820152606490fd5b8051801592508215611f61575b50505f611f0e565b819250906020918101031261066f576020611f7c9101611332565b5f80611f59565b8051801592508215611f98575b50505f611eb9565b819250906020918101031261066f576020611fb39101611332565b5f80611f90565b505050565b8051801592508215611fd4575b50505f611e65565b819250906020918101031261066f576020611fef9101611332565b5f80611fcc565b5f9283928392839291906001600160a01b0381165f5160206123be5f395f51905f5214801561216f575b611c0e5761203c825f5160206123be5f395f51905f528361229f565b90612149575b5061205b825f5160206123be5f395f51905f528361235e565b9080612140575b61211a575b50612080825f5160206123be5f395f51905f528361236f565b9080612111575b6120de575b50905f5160206123be5f395f51905f526120a5926123ac565b90806120d5575b6120b35750565b60019550737a250d5630b4cf539739df2c5dacb4c659f2488d94508593509150565b508281116120ac565b60019750737a250d5630b4cf539739df2c5dacb4c659f2488d96505f955093505f5160206123be5f395f51905f5261208c565b50848111612087565b6001975073d9e1ce17f2641f24ae83637ab66a2cca9c378b9f965087955093505f612067565b50848111612062565b6001975073d9e1ce17f2641f24ae83637ab66a2cca9c378b9f96505f9550935084612042565b508115612020565b60409061218e93928152816020820152019061149d565b90565b6121a15f6121be94938193611d0b565b809260405194859283926307c0329d60e21b845260048401612177565b0381737a250d5630b4cf539739df2c5dacb4c659f2488d5afa5f9281612224575b506121ec5750505f905f90565b8151905114801590612213575b61220c5761220690611549565b51600191565b505f905f90565b5061221d81611549565b51156121f9565b6122399193503d805f833e6102ca81836107f3565b915f6121df565b6121a160016121be94935f93611d0b565b6121a15f61226194938193611d0b565b038173d9e1ce17f2641f24ae83637ab66a2cca9c378b9f5afa5f928161222457506121ec5750505f905f90565b6121a1600161226194935f93611d0b565b6122af5f6122cc94938193611d0b565b8092604051948592839263d06ca61f60e01b845260048401612177565b038173d9e1ce17f2641f24ae83637ab66a2cca9c378b9f5afa5f9281612342575b506122fa5750505f905f90565b81519051811490811591612324575b5061220c5780515f1981019081116111255761220691611576565b5f198101915081116111255761233a9082611576565b51155f612309565b6123579193503d805f833e6102ca81836107f3565b915f6122ed565b6122af60016122cc94935f93611d0b565b6122af5f61237f94938193611d0b565b0381737a250d5630b4cf539739df2c5dacb4c659f2488d5afa5f928161234257506122fa5750505f905f90565b6122af600161237f94935f93611d0b56fe000000000000000000000000c02aaa39b223fe8d0a0e5c4f27ead9083c756cc20000000000000000000000006b175474e89094c44da98b954eedeac495271d0f000000000000000000000000a0b86991c6218b36c1d19d4a2e9eb0ce3606eb48000000000000000000000000051ebd717311350f1684f89335bed4abd083a2b6a2646970667358221220618d7f0eed22edecfb55222c04e94f6dd0a8f6847b2d77bff12f1df4e00f7fdf64736f6c634300081e0033608080604052346013576085908160188239f35b5f80fdfe60808060405260043610156011575f80fd5b5f3560e01c638198edbf146023575f80fd5b34604b576020366003190112604b576004356001600160a01b03811603604b57805f60209252f35b5f80fdfea26469706673582212201bc1fb89ce6bd74de6aa744c9f4e1062615bf1b845ff8c1f7bec83fe3085a28464736f6c634300081e0033","linkReferences":{}},"methodIdentifiers":{"DVMFlashLoanCall(address,uint256,uint256,bytes)":"eb2021c3","executeOnOpportunity()":"3c2448ed","planBorrowBase(address,address,uint256)":"6f51980e","profitAmount()":"5ff972cc","profitToken()":"49343624"},"id":0}