{"abi":[{"type":"function","name":"getFeeRate","inputs":[{"name":"","type":"address","internalType":"address"}],"outputs":[{"name":"","type":"uint256","internalType":"uint256"}],"stateMutability":"pure"}],"bytecode":{"object":"0x608080604052346013576085908160188239f35b5f80fdfe60808060405260043610156011575f80fd5b5f3560e01c638198edbf146023575f80fd5b34604b576020366003190112604b576004356001600160a01b03811603604b57805f60209252f35b5f80fdfea26469706673582212201bc1fb89ce6bd74de6aa744c9f4e1062615bf1b845ff8c1f7bec83fe3085a28464736f6c634300081e0033","linkReferences":{}},"methodIdentifiers":{"getFeeRate(address)":"8198edbf"},"id":0}