{"abi":[{"type":"constructor","inputs":[],"stateMutability":"nonpayable"},{"type":"receive","stateMutability":"payable"},{"type":"function","name":"coveredPathsBitmap","inputs":[],"outputs":[{"name":"","type":"uint256","internalType":"uint256"}],"stateMutability":"view"},{"type":"function","name":"executeOnOpportunity","inputs":[],"outputs":[],"stateMutability":"nonpayable"},{"type":"function","name":"exploitPath","inputs":[],"outputs":[{"name":"","type":"string","internalType":"string"}],"stateMutability":"view"},{"type":"function","name":"pathCovered","inputs":[{"name":"index","type":"uint256","internalType":"uint256"}],"outputs":[{"name":"","type":"bool","internalType":"bool"}],"stateMutability":"view"},{"type":"function","name":"profitAmount","inputs":[],"outputs":[{"name":"","type":"uint256","internalType":"uint256"}],"stateMutability":"view"},{"type":"function","name":"profitToken","inputs":[],"outputs":[{"name":"","type":"address","internalType":"address"}],"stateMutability":"view"},{"type":"function","name":"staleApprovalObserved","inputs":[],"outputs":[{"name":"","type":"bool","internalType":"bool"}],"stateMutability":"view"},{"type":"function","name":"validated","inputs":[],"outputs":[{"name":"","type":"bool","internalType":"bool"}],"stateMutability":"view"},{"type":"function","name":"validatedOrRefuted","inputs":[],"outputs":[{"name":"","type":"string","internalType":"string"}],"stateMutability":"view"}],"bytecode":{"object":"0x6080604052346104745760405161001760a0826104c6565b607f81526102f5600160208301927f4120757365722065786563757465732060726f7574657243616c6c6020666f7284527f20746f6b656e206054602c2063617573696e672060536d617274417070726f7660408201527f656020746f207365742061206d617820616c6c6f77616e63652066726f6d207460608201527f68652070726f787920746f20605f676174657761796020666f72206054602e006080820152816040516100c96080826104c6565b60518152602081017f54686520726f75746520636f6d706c65746573207375636365737366756c6c7981527f2c206275742074686520617070726f76616c2072656d61696e7320696e20706c60408301527030b1b29034b73232b334b734ba32b63c9760791b60608301528260405161014360c0826104c6565b608f815260208101907f417420616e79206c617465722074696d652c20605f676174657761796020636182527f6c6c7320607472616e7366657246726f6d2870726f78792c2061747461636b6560408201527f722c20616d6f756e742960206f6e20746f6b656e2060546020616e642064726160608201527f696e732077686174657665722062616c616e6365207468652070726f7879206360808201526e3ab93932b73a363c903437b632399760891b60a082015260206040519461020a60a0876104c6565b606c8652818601967f4576656e2069662061646d696e73206c617465722063616c6c206072656d6f7688527f65417661696c61626c65526f75746572285f6761746577617929602c2074686560408801527f207374616c6520455243323020616c6c6f77616e6365207374696c6c2072656d60608801526b30b4b7399030b1ba34bb329760a11b60808801526040519c8d9a518091858d015e8a0190600160fd1b84830152518092602183015e010190600160fd1b84830152518092600283015e010190600160fd1b84830152518092600283015e01015f838201520301601f1981018352826104c6565b80516001600160401b03811161046057610310600554610478565b601f8111610424575b50602091601f82116001146103c4579181925f926103b9575b50508160011b915f199060031b1c1916176005555b610352600654610478565b601f811161037b575b600e661c99599d5d195960ca1b016006556040516137a290816104ea8239f35b60065f526103b390601f0160051c7ff652222313e28459528d920b65115c16c04f3efc82aaedc97be59f3f377c0d3f908101906104b0565b5f61035b565b015190505f80610332565b601f1982169260055f52805f20915f5b85811061040c575083600195106103f4575b505050811b01600555610347565b01515f1960f88460031b161c191690555f80806103e6565b919260206001819286850151815501940192016103d4565b6104509060055f5260205f20601f840160051c81019160208510610456575b601f0160051c01906104b0565b5f610319565b9091508190610443565b634e487b7160e01b5f52604160045260245ffd5b5f80fd5b90600182811c921680156104a6575b602083101461049257565b634e487b7160e01b5f52602260045260245ffd5b91607f1691610487565b8181106104bb575050565b5f81556001016104b0565b601f909101601f19168101906001600160401b038211908210176104605760405256fe6080604052600436101561001a575b3615610018575f80fd5b005b5f3560e01c80631d8c0e99146100a95780631fc3a476146100a45780633c2448ed1461009f578063493436241461009a578063546b5d42146100955780635ff972cc14610090578063b62a92561461008b578063cb707c62146100865763efb37a390361000e576102bd565b61028e565b6101b4565b61015f565b610138565b610111565b6100f9565b6100dc565b346100ce575f3660031901126100ce57602060ff60045460101c166040519015158152f35b5f80fd5b5f9103126100ce57565b346100ce575f3660031901126100ce576020600354604051908152f35b346100ce575f3660031901126100ce57610018610ab4565b346100ce575f3660031901126100ce575f546040516001600160a01b039091168152602090f35b346100ce5760203660031901126100ce5760206001806003546004351c1614604051908152f35b346100ce575f3660031901126100ce576020600154604051908152f35b805180835260209291819084018484015e5f828201840152601f01601f1916010190565b9060206101b192818152019061017c565b90565b346100ce575f3660031901126100ce576040515f6006546101d481610309565b808452906001811690811561026a575060011461020c575b610208836101fc81850382610bd5565b604051918291826101a0565b0390f35b60065f9081527ff652222313e28459528d920b65115c16c04f3efc82aaedc97be59f3f377c0d3f939250905b808210610250575090915081016020016101fc6101ec565b919260018160209254838588010152019101909291610238565b60ff191660208086019190915291151560051b840190910191506101fc90506101ec565b346100ce575f3660031901126100ce576102086102a9610bf7565b60405191829160208352602083019061017c565b346100ce575f3660031901126100ce57602060ff60045460081c166040519015158152f35b634e487b7160e01b5f52601160045260245ffd5b5f1981146103045760010190565b6102e2565b90600182811c92168015610337575b602083101461032357565b634e487b7160e01b5f52602260045260245ffd5b91607f1691610318565b81811061034c575050565b5f8155600101610341565b90601f8111610364575050565b610380915f526007601f60205f20920160051c82019101610341565b565b9190601f811161039157505050565b610380925f5260205f20906020601f840160051c830193106103bb575b601f0160051c0190610341565b90915081906103ae565b6103d0600654610309565b601f81116103ef575b506012681d985b1a59185d195960ba1b01600655565b60065f5261042790601f0160051c7ff652222313e28459528d920b65115c16c04f3efc82aaedc97be59f3f377c0d3f90810190610341565b5f6103d9565b634e487b7160e01b5f52604160045260245ffd5b90815167ffffffffffffffff81116105125761046981610462600554610309565b6005610382565b602092601f82116001146104a957610499929382915f9261049e575b50508160011b915f199060031b1c19161790565b600555565b015190505f80610485565b60055f52601f198216935f51602061370d5f395f51905f52915f5b8681106104fa57508360019596106104e2575b505050811b01600555565b01515f1960f88460031b161c191690555f80806104d7565b919260206001819286850151815501940192016104c4565b61042d565b610522600554610309565b601f81116106b7575b5061017760059081555f527f5468697320666f726b20646964206e6f74206578706f73652061207175616c695f51602061370d5f395f51905f52557f6679696e672070657273697374656420616c6c6f77616e63652066726f6d20747f036b6384b5eca791c62761152d0c79bb0604c104a5fb6f4eb0703f3154bb3db1557f68652070726f787920746f20746865207363616e6e65642063757272656e742d7f036b6384b5eca791c62761152d0c79bb0604c104a5fb6f4eb0703f3154bb3db2557f6f722d686973746f726963616c2067617465776179207365742c20736f2074687f036b6384b5eca791c62761152d0c79bb0604c104a5fb6f4eb0703f3154bb3db3557f65207374616c652d617070726f76616c20707265636f6e646974696f6e2077617f036b6384b5eca791c62761152d0c79bb0604c104a5fb6f4eb0703f3154bb3db4557f73206e6f742065737461626c6973686564206f6e2d636861696e2e00000000007f036b6384b5eca791c62761152d0c79bb0604c104a5fb6f4eb0703f3154bb3db555565b60055f8190526106fb91601f01901c5f51602061370d5f395f51905f52017f036b6384b5eca791c62761152d0c79bb0604c104a5fb6f4eb0703f3154bb3db6610341565b5f61052b565b61071661070f600554610309565b6005610357565b6101b360059081555f527f4f62736572766564207065727369737465642070726f787920455243323020615f51602061370d5f395f51905f52557f6c6c6f77616e63657320746861742073617469736679207061746820737461677f036b6384b5eca791c62761152d0c79bb0604c104a5fb6f4eb0703f3154bb3db1557f6573203020616e6420312c20627574207468697320666f726b20646964206e6f7f036b6384b5eca791c62761152d0c79bb0604c104a5fb6f4eb0703f3154bb3db2557f74206578706f736520612070726f66697461626c65207075626c69632063616c7f036b6384b5eca791c62761152d0c79bb0604c104a5fb6f4eb0703f3154bb3db3557f6c657220737572666163652074686174206c65742074686520636f6d70726f6d7f036b6384b5eca791c62761152d0c79bb0604c104a5fb6f4eb0703f3154bb3db4557f69736564207370656e64657220636f6d706c65746520737461676520322077697f036b6384b5eca791c62761152d0c79bb0604c104a5fb6f4eb0703f3154bb3db5557f7468206e6574207265616c697a61626c652070726f6669742e000000000000007f036b6384b5eca791c62761152d0c79bb0604c104a5fb6f4eb0703f3154bb3db655565b6108f261070f600554610309565b6101a360059081555f527f4f62736572766564207374616c6520617070726f76616c7320746861742070655f51602061370d5f395f51905f52557f7273697374206576656e20666f72206e6f6e2d63757272656e74207370656e647f036b6384b5eca791c62761152d0c79bb0604c104a5fb6f4eb0703f3154bb3db1557f65722063616e646964617465732c20776869636820636f6e63726574656c79207f036b6384b5eca791c62761152d0c79bb0604c104a5fb6f4eb0703f3154bb3db2557f737570706f727473207468652072656d6f7665417661696c61626c65526f75747f036b6384b5eca791c62761152d0c79bb0604c104a5fb6f4eb0703f3154bb3db3557f65722073746167652c20627574207468697320666f726b207374696c6c2064697f036b6384b5eca791c62761152d0c79bb0604c104a5fb6f4eb0703f3154bb3db4557f64206e6f74206578706f736520612070726f66697461626c65207075626c69637f036b6384b5eca791c62761152d0c79bb0604c104a5fb6f4eb0703f3154bb3db5557010323930b4b710383934b6b4ba34bb329760791b7f036b6384b5eca791c62761152d0c79bb0604c104a5fb6f4eb0703f3154bb3db655565b60045460ff1661038057610ad0600160ff196004541617600455565b610ad947600255565b610ae1610fdb565b610aea816111c8565b90610af3611420565b610afe818484611795565b610b09818484611795565b610b11611829565b926003915b6006831115610b99575b50505050610b2c61183d565b610b6d5760045460101c60ff1615610b6557610b46610701565b610b5760018060035460031c161490565b610b5d57565b6103806108e4565b610380610517565b610b8161010061ff00196004541617600455565b610b896103c5565b610380610b94611b40565b610441565b90919293610ba8828487611795565b610bb0611829565b9080821115610bce5750610bc490936102f6565b9190939293610b16565b9450610b20565b90601f8019910116810190811067ffffffffffffffff82111761051257604052565b604051905f8260055491610c0a83610309565b8083529260018116908115610c7a5750600114610c2e575b61038092500383610bd5565b5060055f90815290915f51602061370d5f395f51905f525b818310610c5e57505090602061038092820101610c22565b6020919350806001915483858901015201910190918492610c46565b6020925061038094915060ff191682840152151560051b820101610c22565b6040519061038061010083610bd5565b67ffffffffffffffff81116105125760051b60200190565b6020818303126100ce5780519067ffffffffffffffff82116100ce57019080601f830112156100ce57815190610cf682610ca9565b92610d046040519485610bd5565b82845260208085019360051b8201019182116100ce57602001915b818310610d2c5750505090565b82516001600160a01b03811681036100ce57815260209283019201610d1f565b6040513d5f823e3d90fd5b60405160a09190610d688382610bd5565b6004815291601f1901366020840137565b6040516101a09190610d8b8382610bd5565b600c815291601f1901366020840137565b6040516103209190610dae8382610bd5565b6018815291601f1901366020840137565b60405160609190610dd08382610bd5565b6002815291601f1901366020840137565b90610deb82610ca9565b610df86040519182610bd5565b8281528092610e09601f1991610ca9565b0190602036910137565b634e487b7160e01b5f52603260045260245ffd5b805115610e345760200190565b610e13565b805160011015610e345760400190565b805160021015610e345760600190565b805160031015610e345760800190565b805160041015610e345760a00190565b805160051015610e345760c00190565b805160061015610e345760e00190565b805160071015610e34576101000190565b805160081015610e34576101200190565b805160091015610e34576101400190565b8051600a1015610e34576101600190565b8051600b1015610e34576101800190565b8051600c1015610e34576101a00190565b8051600d1015610e34576101c00190565b8051600e1015610e34576101e00190565b8051600f1015610e34576102000190565b805160101015610e34576102200190565b805160111015610e34576102400190565b805160121015610e34576102600190565b805160131015610e34576102800190565b805160141015610e34576102a00190565b805160151015610e34576102c00190565b805160161015610e34576102e00190565b805160171015610e34576103000190565b8051821015610e345760209160051b010190565b9190820180921161030457565b604051633a68ff8360e01b81525f816004815f51602061374d5f395f51905f525afa9081156111c3575f916111a1575b50611014610d57565b9061103a61102183610e27565b73663dc15d3c1ac63ff12e45ab68fea3f0a883c2519052565b61105f61104683610e39565b73362fa9d0bca5d19f743db50738345ce2b40ec99f9052565b61108461106b83610e49565b73b9e13785127bffcc3dc970a55f6c7bf0844a3c159052565b6110a961109083610e59565b7303b7551eb0162c838a10c2437b60d1f5455b95549052565b6110be6110b98251845190610fce565b610de1565b925f905f5b835181101561113c57806110fa6110f66110ef6110e260019589610fba565b516001600160a01b031690565b868a611c85565b1590565b611105575b016110c3565b6111376111156110e28388610fba565b611128611121876102f6565b968a610fba565b6001600160a01b039091169052565b6110ff565b509291505f5b825181101561119b57806111686110f66111616110e260019588610fba565b8589611c85565b611173575b01611142565b6111966111836110e28387610fba565b61112861118f866102f6565b9589610fba565b61116d565b50835250565b6111bd91503d805f833e6111b58183610bd5565b810190610cc1565b5f61100b565b610d4c565b6111d0610d79565b906111f66111dd83610e27565b731111111254fb6c44bac0bed2854e76f90643097d9052565b61121b61120283610e39565b731111111254eeb25477b68fb85ed929f73a9605829052565b61124061122783610e49565b73def1c0ded9bec7f1a1670819833240f027b25eff9052565b61125f61124c83610e59565b6d1ff3684f28c67538d4d072c227349052565b61128461126b83610e69565b73def171fe48cf0115b1d80b88dc8eab59176fee579052565b6112a961129083610e79565b73216b4b4ba9f3e719726886d34a177484278bfcae9052565b6112ce6112b583610e89565b731231deb6f5749ef6ce6943a275a1d3e7486f4eae9052565b6112f36112da83610e99565b736352a56caadc4f1e25cd6c75970fa768a3304e649052565b6113186112ff83610eaa565b73765277eebeca2e31912c9946eae1021199b39c619052565b61133d61132483610ebb565b735427fefa711eff984124bfbb1ab6fbf5e3da18209052565b61136261134983610ecc565b73e592427a0aece92de3edee1f18e0157c058615649052565b61138761136e83610edd565b7368b3465833fb72a70ecdf485e0e4c7bd8665fc459052565b6113976110b98251845190610fce565b925f905f5b83518110156113db57806113bb6110f66110ef6110e260019589610fba565b6113c6575b0161139c565b6113d66111156110e28388610fba565b6113c0565b509291505f5b825181101561119b57806114006110f66111616110e260019588610fba565b61140b575b016113e1565b61141b6111836110e28387610fba565b611405565b611428610d9c565b9061144e61143583610e27565b73a0b86991c6218b36c1d19d4a2e9eb0ce3606eb489052565b61147361145a83610e39565b73dac17f958d2ee523a2206206994597c13d831ec79052565b61149861147f83610e49565b736b175474e89094c44da98b954eedeac495271d0f9052565b6114b66114a483610e59565b5f51602061372d5f395f51905f529052565b6114db6114c283610e69565b732260fac5e5542a773aa44fbcfedf7c193bc2c5999052565b6115006114e783610e79565b73853d955acef822db058eb8505911ed77f175b99e9052565b61152561150c83610e89565b734fabb145d64652a948d72533023f6e7a623c7c539052565b61154561153183610e99565b6e085d4780b73119b644ae5ecd22b3769052565b61156a61155183610eaa565b731456688345527be1f37e9e627da0837d6f08c9259052565b61158f61157683610ebb565b73514910771af9ca656af840dff83e8264ecf986ca9052565b6115b461159b83610ecc565b737d1afa7b718fb893db30a3abc0cfc608aacfebb09052565b6115d96115c083610edd565b731f9840a85d5af5bf1d1762f925bdaddc4201f9849052565b6115fe6115e583610eee565b737fc66500c84a76ad7e9c93437bfc5ac33e2ddae99052565b61162361160a83610eff565b736b3595068778dd592e39a122f4f5a5cf09c90fe29052565b61164861162f83610f10565b73d533a949740bb3306d119cc777fa900ba034cd529052565b61166d61165483610f21565b734e3fbd56cd56c3e72c1403e103b45db9da5b9d2b9052565b61169261167983610f32565b7395ad61b0a150d79219dcf64e1e6cc01f0b64c4ce9052565b6116b761169e83610f43565b73111111111117dc0aa78b770fa6a738034120c3029052565b6116dc6116c383610f54565b730bc529c00c6401aef6d220be8c6ea1667f6ad93e9052565b6117016116e883610f65565b735a98fcbea516cf06857215779fd812ca3bef1b329052565b61172661170d83610f76565b73ba100000625a3754423978a60c9317c58a424e3d9052565b61174b61173283610f87565b73c011a72400e58ecd99ee497cf89e3775d4bd732f9052565b61177061175783610f98565b735f98805a4e8be255a32880fdec7f6728c6568ba09052565b61038061177c83610fa9565b73956f47f50a910163d8bf957cf5846d573e7f87ca9052565b905f5b835181101561181d57600190826001600160a01b036117b78388610fba565b51166117c281611d1b565b868115611814576117ed936117d79284611e12565b8681611804575b86826117f3575b505050611f5e565b01611798565b6117fd9284611e12565b86866117e5565b61180e9183611eae565b866117de565b505050506117ed565b5050505061038061183d565b61183161206d565b806101b1575060015490565b61184561206d565b8061184d5750565b6bffffffffffffffffffffffff60a01b5f54165f5560015561010061ff0019600454161760045561187f600654610309565b601f81116118a7575b506012681d985b1a59185d195960ba1b01600655610380610b94611b40565b60065f526118df90601f0160051c7ff652222313e28459528d920b65115c16c04f3efc82aaedc97be59f3f377c0d3f90810190610341565b5f611888565b604051906118f460a083610bd5565b607f82527f68652070726f787920746f20605f676174657761796020666f72206054602e006080837f4120757365722065786563757465732060726f7574657243616c6c6020666f7260208201527f20746f6b656e206054602c2063617573696e672060536d617274417070726f7660408201527f656020746f207365742061206d617820616c6c6f77616e63652066726f6d207460608201520152565b604051906119a1608083610bd5565b605182527030b1b29034b73232b334b734ba32b63c9760791b6060837f54686520726f75746520636f6d706c65746573207375636365737366756c6c7960208201527f2c206275742074686520617070726f76616c2072656d61696e7320696e20706c60408201520152565b60405190611a1c60c083610bd5565b608f82526e3ab93932b73a363c903437b632399760891b60a0837f417420616e79206c617465722074696d652c20605f676174657761796020636160208201527f6c6c7320607472616e7366657246726f6d2870726f78792c2061747461636b6560408201527f722c20616d6f756e742960206f6e20746f6b656e2060546020616e642064726160608201527f696e732077686174657665722062616c616e6365207468652070726f7879206360808201520152565b805191908290602001825e015f815290565b611b14611b0694936001611b066103809582604051998a976020890190611ad2565b600160fd1b81520190611ad2565b03601f198101845283610bd5565b61038090611b14611b06949360016040519687946020860190611ad2565b611b4e600180600354161490565b80611c6f575b80611c58575b80611c41575b611c3957611b72600180600354161490565b80611c23575b80611c0c575b611beb57611b90600180600354161490565b80611bd5575b611bbc57611ba8600180600354161490565b611bb4576101b1610bf7565b6101b16118e5565b6101b1611bc76118e5565b611bcf611992565b90611b22565b50611be6600180600354811c161490565b611b96565b6101b1611bf66118e5565b611bfe611992565b611c06611a0d565b91611ae4565b50611c1e60018060035460021c161490565b611b7e565b50611c34600180600354811c161490565b611b78565b6101b161208c565b50611c5360018060035460031c161490565b611b60565b50611c6a60018060035460021c161490565b611b5a565b50611c80600180600354811c161490565b611b54565b9190915f5b838110611c9957505050505f90565b6001600160a01b03611cab8284610fba565b51166001600160a01b03841614611cc457600101611c8a565b50505050600190565b3d15611d07573d9067ffffffffffffffff82116105125760405191611cfc601f8201601f191660200184610bd5565b82523d5f602084013e565b606090565b908160209103126100ce575190565b905f80809360405160208101906370a0823160e01b82525f51602061374d5f395f51905f52602482015260248152611d54604482610bd5565b51915afa611d60611ccd565b9080611d83575b611d6e5750565b6101b191925060208082518301019101611d0c565b50602081511015611d67565b905f80809360405160208101916370a0823160e01b835260018060a01b0316602482015260248152611dc2604482610bd5565b51905f51602061372d5f395f51905f525afa611d60611ccd565b5f8091939293819460405160208101916370a0823160e01b835260018060a01b0316602482015260248152611d54604482610bd5565b9192905f5b8451811015611ea657611e2d6110e28287610fba565b803b15611e9d57611e3f84828761216f565b8015611e8b5783811015611e9557905b8115611e8b5790611e62918630916121d2565b611e71575b6001905b01611e17565b9050611e7c83611d1b565b9081611e675750505050505f90565b5050600190611e6b565b508290611e4f565b50600190611e6b565b509250505090565b909182158015611f49575b8015611f40575b611f3b57611ecd826122b1565b81939291158015611f33575b8015611f29575b611f215783611eef81876124b4565b10611f2157611f016110f68587612665565b611f2157611f0f9385612862565b611f17575090565b6101b19150611d1b565b505050505090565b5081471115611ee0565b508015611ed9565b505090565b50805115611ec0565b504715611eb9565b9190820391821161030457565b611f683082611ddc565b908115612069576001600160a01b0381165f51602061372d5f395f51905f5214611ffb5747611f978383612962565b8015611feb575b611fb6575b5061038091611fb0611b40565b91612acb565b611fc09047611f51565b611fca575f611fa3565b50505f80546001600160a01b0319169055610b6d611fe661206d565b600155565b50611ff68383612a1f565b611f9e565b505f51602061372d5f395f51905f523b156100ce57604051632e1a7d4d60e01b815260048101919091525f81602481835f51602061372d5f395f51905f525af180156111c35761204f575b5061038061183d565b8061205d5f61206393610bd5565b806100d2565b5f612046565b5050565b476002548082115f146120865781039081116103045790565b50505f90565b611b066101b161209a6118e5565b6121616120a5611992565b6001611b066120b2611a0d565b82611b06604051956120c560a088610bd5565b606c87527f4576656e2069662061646d696e73206c617465722063616c6c206072656d6f7660208801527f65417661696c61626c65526f75746572285f6761746577617929602c2074686560408801527f207374616c6520455243323020616c6c6f77616e6365207374696c6c2072656d60608801526b30b4b7399030b1ba34bb329760a11b6080880152826040519b8c9a60208c0190611ad2565b03601f198101835282610bd5565b8161217c91949394612b99565b9283156121ba576004805462ff0000191662010000179055600380548117905580516121a89291611c85565b156121af57565b600860035417600355565b505f925050565b90600e811015610e345760051b0190565b91926121ed91935f51602061374d5f395f51905f5285612fef565b905f905b600e821061220157505050505f90565b61220b82846121c1565b5192835115612293575f806122203088611ddc565b9560208151910182865af192612234611ccd565b5061223f3087611ddc565b93158015612289575b61227857505050612273929161226b91612266600460035417600355565b611f51565b611fb0611b40565b600190565b90925060019193505b0190916121f1565b5084841115612248565b916001919350612281565b8181029291811591840414171561030457565b6122b96131aa565b6040516306f3ae3560e21b81526001600160a01b0383166004820152909290916020836024815f51602061374d5f395f51905f525afa9283156111c3575f93612424575b50821561240b575b604051630f4fb37360e01b81526001600160a01b03909116600482015260208180602481015b03815f51602061374d5f395f51905f525afa9081156111c3575f916123ec575b50801515806123e3575b6123db575b5060405163c75b3d4160e01b81526020816004815f51602061374d5f395f51905f525afa80156111c35761239d6123a6916101b1935f916123ac575b508561229e565b620f4240900490565b83611f51565b6123ce915060203d6020116123d4575b6123c68183610bd5565b810190611d0c565b5f612396565b503d6123bc565b91505f61235a565b50808311612355565b612405915060203d6020116123d4576123c68183610bd5565b5f61234b565b915061232b602061241b846131e9565b93915050612305565b61243e91935060203d6020116123d4576123c68183610bd5565b915f6122fd565b90602080835192838152019201905f5b8181106124625750505090565b82516001600160a01b0316845260209384019390920191600101612455565b906060926124a091969594968352608060208401526080830190612445565b6001600160a01b0390951660408201520152565b906001600160a01b0382165f51602061372d5f395f51905f52146125e6574715612086576124e0610dbf565b6124ec6114a482610e27565b6124f98361112883610e39565b47674563918244f4000081116125d7575b6125143085611ddc565b925f80604051602081019063fb3bdb4160e01b825261253d8161216142308b8a60248601612481565b519085737a250d5630b4cf539739df2c5dacb4c659f2488d5af192612560611ccd565b50831561257e575b50505015612086576122666101b1923090611ddc565b5f9350906121616125ad859493604051928391602083019563fb3bdb4160e01b87524291309160248601612481565b519173d9e1ce17f2641f24ae83637ab66a2cca9c378b9f5af16125ce611ccd565b505f8080612568565b50674563918244f4000061250a565b80915090471061265e575b8015612659575f51602061372d5f395f51905f523b156100ce575f60049160405192838092630d0e30db60e41b82525f51602061372d5f395f51905f525af180156111c357612645575b506101b130611d8f565b8061205d5f61265393610bd5565b5f61263b565b505f90565b50476125f1565b60405163095ea7b360e01b602082019081525f51602061374d5f395f51905f526024830152604482018490526126ba915f9182916126a68160648101612161565b519082865af16126b4611ccd565b906132cd565b6127675760405163095ea7b360e01b602082019081525f51602061374d5f395f51905f5260248301525f60448301819052612710926110f69282916127028160648101612161565b519082875af16126b4611ccd565b6120865760405163095ea7b360e01b602082019081525f51602061374d5f395f51905f52602483015260448201939093526101b1925f928392909190839061275b8160648101612161565b51925af16126b4611ccd565b5050600190565b60405163095ea7b360e01b602082019081526001600160a01b0384166024830152604482018590529193916127bc915f9182916127ae8160648101612161565b519082885af16126b4611ccd565b61285a5760405163095ea7b360e01b602082019081526001600160a01b03841660248301525f6044830181905261280e926110f69282916128008160648101612161565b519082895af16126b4611ccd565b6128535760405163095ea7b360e01b602082019081526001600160a01b03909316602482015260448101919091526101b1925f928392839061275b8160648101612161565b5050505f90565b505050600190565b929093915f945b835186101561291f5761287f6110e28786610fba565b93843b15612914575f5b81518110156129055761289f6110e28284610fba565b908585858a8a863b156128f7576128b69596613318565b6128c4576001905b01612889565b50505050509091506128d582611d1b565b90816128e357505050600190565b6128ee9230916121d2565b505f808061285a565b5050505050600191506128be565b509350946001905b0194612869565b93509460019061290d565b5050505050505f90565b9060809261294e919695949683525f602084015260a0604084015260a0830190612445565b6001600160a01b0390951660608201520152565b9061298281737a250d5630b4cf539739df2c5dacb4c659f2488d8461276e565b15612086575f8091612992610dbf565b9361299c85610e27565b6001600160a01b0390911690525f51602061372d5f395f51905f526129c085610e39565b526121616129eb4795604051928391602083019563791ac94760e01b87524291309160248601612929565b519082737a250d5630b4cf539739df2c5dacb4c659f2488d5af190612a0e611ccd565b5081612a18575090565b9050471190565b90612a3f8173d9e1ce17f2641f24ae83637ab66a2cca9c378b9f8461276e565b15612086575f8091612a4f610dbf565b93612a5985610e27565b6001600160a01b0390911690525f51602061372d5f395f51905f52612a7d85610e39565b52612161612aa84795604051928391602083019563791ac94760e01b87524291309160248601612929565b51908273d9e1ce17f2641f24ae83637ab66a2cca9c378b9f5af190612a0e611ccd565b9190918215612b9457612adc61206d565b80612b5b57505f546001600160a01b03166001600160a01b03821614612b48576001548015908115612b3e575b50612b1357505050565b61038092611fe6610b949260018060a01b03166bffffffffffffffffffffffff60a01b5f5416175f55565b905083115f612b09565b50610b94611fe661038093600154610fce565b5f80546001600160a01b031916905560015550612b789150610441565b612b8c61010061ff00196004541617600455565b6103806103c5565b505050565b5f809193929381946040516020810191636eb1769f60e11b83525f51602061374d5f395f51905f52602483015260018060a01b0316604482015260448152611d54606482610bd5565b5f5b828110612bf057505050565b606082820152602001612be4565b604051906103806101c0612c128185610bd5565b83612be2565b60405190610380610140612c128185610bd5565b6001600160a01b03918216815291811660208301529091166040820152606081019190915260800190565b6001600160a01b0390911681526040602082018190526101b19291019061017c565b6001600160a01b0390911681525f60208201526060604082018190526101b19291019061017c565b612fd190939293612cb0612bfe565b6040516323b872dd60e01b60208201525f51602061374d5f395f51905f5260248201526001600160a01b03851660448201526064808201889052815290959093612e6f90612cff608487610bd5565b6001600160a01b03831115612fd9576001600160a01b03928490612e1e905b6040516323b872dd60e01b60208201525f51602061374d5f395f51905f5260248201526001600160a01b038516604482015260648101829052612d648160848101612161565b8b526040516301cc6d8d60e11b6020820152612d978161216184885f51602061374d5f395f51905f528960248601612c2c565b60208c0152604051630aed65f560e11b6020820152612dcd8161216184885f51602061374d5f395f51905f528960248601612c2c565b60408c01526040516317f24c2760e21b60208201525f51602061374d5f395f51905f5260248201526001600160a01b0380861660448301526064820192909252921660848301528160a48101612161565b6060890152604051631b63c28b60e11b60208201525f51602061374d5f395f51905f5260248201526001600160a01b0391821660448201529281166064840152831660848301528160a48101612161565b6080860152604051631cff79cd60e01b6020820152612e9681612161868560248401612c57565b60a0860152604051635b0e93fb60e11b6020820152612ebd81612161868560248401612c79565b60c0860152604051631b8b921d60e01b6020820152612ee481612161868560248401612c57565b60e086015260405163036df97d60e51b6020820152612f0b81612161868560248401612c79565b61010086015260405163a3d6bde960e01b6020820152612f3381612161868560248401612c57565b610120860152604051630f9d740360e31b6020820152612f5b81612161868560248401612c79565b610140860152604051635f30016160e11b6020820152612f8381612161868560248401612c57565b610160860152604051630565bb6760e01b6020820152612fab81612161868560248401612c79565b61018086015b52612161604051938492630a0b5ffb60e41b602085015260248401612c57565b6101a0830152565b6001600160a01b038316928490612e1e90612d1e565b612fd191949392612e6f613001612bfe565b6040516323b872dd60e01b60208201526001600160a01b0389811660248301528416604482015260648082018890528152909790956121619085908a90829061314f9061304f60848d610bd5565b6001600160a01b03811115613194576001600160a01b0393899061310d905b6040516323b872dd60e01b60208201526001600160a01b03808c16602483015284166044820152606481018590526130a98160848101612161565b81526040516301cc6d8d60e11b60208201526130cf8161216187878f8c60248601612c2c565b60208201526131078a6130f986604051968793630aed65f560e11b60208601528b60248601612c2c565b03601f198101855284610bd5565b60400190565b526040516317f24c2760e21b60208201526001600160a01b038089166024830152808b1660448301526064820192909252921660848301528160a48101612161565b60608c0152604051631b63c28b60e11b60208201526001600160a01b0394851660248201529584166044870152831660648601529091166084840152829060a4820190565b6001600160a01b03811693899061310d9061306e565b5f905f8060405160208101906312362e6960e21b8252600481526131cf602482610bd5565b51905f51602061374d5f395f51905f525afa611d60611ccd565b6001600160a01b031673a0b86991c6218b36c1d19d4a2e9eb0ce3606eb4881146132c55773dac17f958d2ee523a2206206994597c13d831ec781146132c557736b175474e89094c44da98b954eedeac495271d0f81146132b8575f51602061372d5f395f51905f5281146132ab57732260fac5e5542a773aa44fbcfedf7c193bc2c59981146132a45773853d955acef822db058eb8505911ed77f175b99e1461329857670de0b6b3a764000090565b670de0b6b3a764000090565b5061271090565b5067016345785d8a000090565b50670de0b6b3a764000090565b50620f424090565b90816132d7575090565b80518015925082156132e857505090565b81925090602091810103126100ce576020015180151581036100ce5790565b90600a811015610e345760051b0190565b9361337a90959192939561332a610c99565b6001600160a01b0386168152966020880152600160408801526001600160a01b03851660608801525f60808801523060a08801525f60c08801526001600160a01b03861660e08801523085612ca1565b936001600160a01b03838116911614613420575b5f5b600e81106133a2575050505050505f90565b6133ac81866121c1565b51805115613417576133be9084613595565b5f5b600a81106133d45750506001905b01613390565b6133de8183613307565b5180511561340e576133f3908588888c613471565b613401576001905b016133c0565b5050505050505050600190565b506001906133fb565b506001906133ce565b5f5b600e8110613430575061338e565b61343a81866121c1565b518051156134685761344f908386868a613471565b61345d576001905b01613422565b505050505050600190565b50600190613457565b5f919293829161216161351e6134873089611ddc565b6040805163039456b960e61b602080830191825287516001600160a01b039081166024850152908801516044840152928701516064830152606087015183166084830152608087015160a483015260a0870151831660c483015260c0870151831660e483015260e090960151821661010482015290891661012482015261014061014482015290999092839161016483019061017c565b51915f51602061374d5f395f51905f525af192613539611ccd565b506135443084611ddc565b9315801561358b575b613583576122739361356261226b9385612b99565b15611f5157613575600160035417600355565b612266600260035417600355565b505050505f90565b508084111561354d565b91906137046135a2612c18565b93604051631cff79cd60e01b60208201526135c581612161868560248401612c57565b8552604051635b0e93fb60e11b60208201526135e981612161868560248401612c79565b6020860152604051631b8b921d60e01b602082015261361081612161868560248401612c57565b604086015260405163036df97d60e51b602082015261363781612161868560248401612c79565b606086015260405163a3d6bde960e01b602082015261365e81612161868560248401612c57565b6080860152604051630f9d740360e31b602082015261368581612161868560248401612c79565b60a0860152604051635f30016160e11b60208201526136ac81612161868560248401612c57565b60c0860152604051630565bb6760e01b60208201526136d381612161868560248401612c79565b60e0860152604051638942c2f160e01b60208201526136fa81612161868560248401612c57565b6101008601612fb1565b61012083015256fe036b6384b5eca791c62761152d0c79bb0604c104a5fb6f4eb0703f3154bb3db0000000000000000000000000c02aaa39b223fe8d0a0e5c4f27ead9083c756cc20000000000000000000000003335a88bb18fd3b6824b59af62b50ce494143333a2646970667358221220aac29686af2cdd49fe7ffe8c9449ebed465d5e61a9bb6211cdcae9c8df02b4a964736f6c634300081e0033","linkReferences":{}},"methodIdentifiers":{"coveredPathsBitmap()":"1fc3a476","executeOnOpportunity()":"3c2448ed","exploitPath()":"cb707c62","pathCovered(uint256)":"546b5d42","profitAmount()":"5ff972cc","profitToken()":"49343624","staleApprovalObserved()":"1d8c0e99","validated()":"efb37a39","validatedOrRefuted()":"b62a9256"},"id":0}