{"abi":[{"type":"constructor","inputs":[],"stateMutability":"nonpayable"},{"type":"receive","stateMutability":"payable"},{"type":"function","name":"_executeFlashswap","inputs":[{"name":"market","type":"address","internalType":"address"},{"name":"wrapperToken","type":"address","internalType":"address"},{"name":"wrapperIsToken0","type":"bool","internalType":"bool"},{"name":"borrowWrapper","type":"bool","internalType":"bool"},{"name":"amountBorrow","type":"uint256","internalType":"uint256"}],"outputs":[],"stateMutability":"nonpayable"},{"type":"function","name":"currentPairState","inputs":[],"outputs":[{"name":"factory_","type":"address","internalType":"address"},{"name":"token0_","type":"address","internalType":"address"},{"name":"token1_","type":"address","internalType":"address"},{"name":"reserve0_","type":"uint112","internalType":"uint112"},{"name":"reserve1_","type":"uint112","internalType":"uint112"}],"stateMutability":"view"},{"type":"function","name":"executeOnOpportunity","inputs":[],"outputs":[],"stateMutability":"nonpayable"},{"type":"function","name":"exploitPathUsed","inputs":[],"outputs":[{"name":"","type":"string","internalType":"string"}],"stateMutability":"view"},{"type":"function","name":"hypothesisValidated","inputs":[],"outputs":[{"name":"","type":"bool","internalType":"bool"}],"stateMutability":"view"},{"type":"function","name":"profitAmount","inputs":[],"outputs":[{"name":"","type":"uint256","internalType":"uint256"}],"stateMutability":"view"},{"type":"function","name":"profitToken","inputs":[],"outputs":[{"name":"","type":"address","internalType":"address"}],"stateMutability":"view"},{"type":"function","name":"targetPair","inputs":[],"outputs":[{"name":"","type":"address","internalType":"address"}],"stateMutability":"pure"},{"type":"function","name":"uniswapV2Call","inputs":[{"name":"sender","type":"address","internalType":"address"},{"name":"amount0","type":"uint256","internalType":"uint256"},{"name":"amount1","type":"uint256","internalType":"uint256"},{"name":"data","type":"bytes","internalType":"bytes"}],"outputs":[],"stateMutability":"nonpayable"}],"bytecode":{"object":"0x6080806040523460bc57600354600181811c9116801560b3575b6020821014609f57601f8111605a575b507f756e617474656d70746564000000000000000000000000000000000000000016600355612c2c90816100c18239f35b60035f52601f0160051c7fc2575a0e9e593c00f959f8c92f12db2869c3395a3b0502d05e2516446f71f85b908101905b818110609557506029565b5f8155600101608a565b634e487b7160e01b5f52602260045260245ffd5b90607f16906019565b5f80fdfe608080604052600436101561001c575b50361561001a575f80fd5b005b5f905f3560e01c9081630e86b7d01461046d5750806310d1e85c146103f75780633ac3d26d1461020c5780633c2448ed146101f0578063463defd1146101ca57806349343624146101a35780635ff972cc14610185578063c6c6c5ab1461015d5763d78c42810361000f573461015a578060031936011261015a576040519080600354906100a982610c94565b808552916001811690811561013357506001146100e9575b6100e5846100d181860382610854565b604051918291602083526020830190610800565b0390f35b600381525f516020612b575f395f51905f52939250905b808210610119575090915081016020016100d1826100c1565b919260018160209254838588010152019101909291610100565b60ff191660208087019190915292151560051b850190920192506100d191508390506100c1565b80fd5b503461015a578060031936011261015a5760206040515f516020612b775f395f51905f528152f35b503461015a578060031936011261015a576020600154604051908152f35b503461015a578060031936011261015a57546040516001600160a01b039091168152602090f35b503461015a578060031936011261015a57602060ff60025460081c166040519015158152f35b503461015a578060031936011261015a57610209610ccc565b80f35b503461015a578060031936011261015a5760405163c45a015560e01b81526020816004815f516020612b775f395f51905f525afa9081156103ec5782916103cd575b50604051630dfe168160e01b81526020816004815f516020612b775f395f51905f525afa9081156103c25783916103a3575b5060405163d21220a760e01b81526020816004815f516020612b775f395f51905f525afa908115610398578491610369575b50604051630240bc6b60e21b8152906060826004815f516020612b775f395f51905f525afa91821561035e57946001600160701b0393929160a0968293610327575b50604080515f1960018a1b0197881681529487166020860152951694830194909452928216606082015291166080820152f35b85935061034d91925060603d606011610357575b6103458183610854565b810190610918565b50919091926102f4565b503d61033b565b6040513d87823e3d90fd5b61038b915060203d602011610391575b6103838183610854565b8101906108e5565b5f6102b2565b503d610379565b6040513d86823e3d90fd5b6103bc915060203d602011610391576103838183610854565b5f610280565b6040513d85823e3d90fd5b6103e6915060203d602011610391576103838183610854565b5f61024e565b6040513d84823e3d90fd5b503461015a57608036600319011261015a576104116107ea565b6064359067ffffffffffffffff821161046957366023830112156104695781600401359067ffffffffffffffff8211610465573660248385010111610465576024610209930190604435906024359061098b565b8380fd5b8280fd5b90503461061d5760a036600319011261061d576104886107ea565b60243591906001600160a01b038316830361061d5760443591821515830361061d5760643593841515850361061d57608435913033036107bc57506040516370a0823160e01b8152306004820152936020856024815f516020612b375f395f51905f525afa95861561077a5787955f97610785575b50156106c5571561064257604080516001600160a01b039485166020820181905292909416908401529161053e81606081015b03601f198101835282610854565b823b156104655761056a9284928360405180968195829463022c0d9f60e01b8452309060048501610876565b03925af180156103ec57610629575b50505b6040516370a0823160e01b81523060048201526020816024815f516020612b375f395f51905f525afa9081156103c25783916105f3575b5011156105bd5780f35b60405162461bcd60e51b815260206004820152600e60248201526d1b9bc81dd95d1a081c1c9bd99a5d60921b6044820152606490fd5b90506020813d602011610621575b8161060e60209383610854565b8101031261061d57515f6105b3565b5f80fd5b3d9150610601565b8161063391610854565b61063e57815f610579565b5080fd5b604080516001600160a01b039485166020820181905292909416908401529161066e8160608101610530565b823b156104655761069a9284928360405180968195829463022c0d9f60e01b84523090600485016108a7565b03925af180156103ec576106b0575b505061057c565b816106ba91610854565b61063e57815f6106a9565b156106f657604080516001600160a01b039485166020820181905292909416908401529161066e8160608101610530565b604080516001600160a01b039485166020820181905292909416908401529250906107248160608101610530565b823b1561061d57610750925f928360405180968195829463022c0d9f60e01b8452309060048501610876565b03925af1801561077a57610765575b5061057c565b6107729192505f90610854565b5f905f61075f565b6040513d5f823e3d90fd5b955095506020853d6020116107b4575b816107a260209383610854565b8101031261061d57869451955f6104fd565b3d9150610795565b62461bcd60e51b815260206004820152600960248201526873656c66206f6e6c7960b81b6044820152606490fd5b600435906001600160a01b038216820361061d57565b805180835260209291819084018484015e5f828201840152601f01601f1916010190565b60e0810190811067ffffffffffffffff82111761084057604052565b634e487b7160e01b5f52604160045260245ffd5b90601f8019910116810190811067ffffffffffffffff82111761084057604052565b9081525f60208201526001600160a01b0390911660408201526080606082018190526108a492910190610800565b90565b6108a493926080925f8352602083015260018060a01b031660408201528160608201520190610800565b35906001600160a01b038216820361061d57565b9081602091031261061d57516001600160a01b038116810361061d5790565b51906001600160701b038216820361061d57565b9081606091031261061d5761092c81610904565b91604061093b60208401610904565b92015163ffffffff8116810361061d5790565b1561095557565b60405162461bcd60e51b815260206004820152600e60248201526d0e4deeae8ca40dad2e6dac2e8c6d60931b6044820152606490fd5b909390306001600160a01b0390911603610c1a57826040918101031261061d576109c060206109b9846108d1565b93016108d1565b6001600160a01b0392831692169033839003610be357604051630dfe168160e01b815292602084600481845afa93841561077a575f94610bc2575b5060405163d21220a760e01b815293602085600481855afa94851561077a575f95610ba1575b50604051630240bc6b60e21b815294606086600481865afa96871561077a575f965f98610b79575b5080610b2f57508315610af1576001600160a01b031684811480610ad2575b610aba57610aa596610a9c6001600160701b0393875f516020612b375f395f51905f528695149182610aa7575b505061094e565b169416926116d0565b565b6001600160a01b0316149050875f610a95565b50506001600160701b0380610aa596169416926114d1565b506001600160a01b0382165f516020612b375f395f51905f5214610a68565b60405162461bcd60e51b8152602060048201526016602482015275756e6578706563746564207a65726f20626f72726f7760501b6044820152606490fd5b9596959350906001600160a01b031684811480610ad257610aba57610aa596610a9c6001600160701b0393875f516020612b375f395f51905f528695149182610aa757505061094e565b909750610b9691965060603d606011610357576103458183610854565b50959095965f610a49565b610bbb91955060203d602011610391576103838183610854565b935f610a21565b610bdc91945060203d602011610391576103838183610854565b925f6109fb565b60405162461bcd60e51b815260206004820152600f60248201526e3ab732bc3832b1ba32b2103830b4b960891b6044820152606490fd5b60405162461bcd60e51b81526020600482015260136024820152723130b21031b0b6363130b1b59039b2b73232b960691b6044820152606490fd5b3d15610c8f573d9067ffffffffffffffff82116108405760405191610c84601f8201601f191660200184610854565b82523d5f602084013e565b606090565b90600182811c92168015610cc2575b6020831014610cae57565b634e487b7160e01b5f52602260045260245ffd5b91607f1691610ca3565b60025460ff81166114ce5760ff19166001176002556040516370a0823160e01b81523060048201526020816024815f516020612b375f395f51905f525afa90811561077a575f9161149c575b5060405163c45a015560e01b8152906020826004815f516020612b775f395f51905f525afa91821561077a575f9261147b575b50604051630dfe168160e01b81526020816004815f516020612b775f395f51905f525afa90811561077a575f9161145c575b5060405163d21220a760e01b8152926020846004815f516020612b775f395f51905f525afa93841561077a575f9461143b575b5060405163485cc95560e01b602082019081526001600160a01b038087166024840152841660448301525f91829190610dec8160648101610530565b5190825f516020612b775f395f51905f525af190610e08610c55565b50604051915f806020850163485cc95560e01b815281602487015260018060a01b0387169586604482015260448152610e42606482610854565b5190825f516020612b775f395f51905f525af1610e5d610c55565b508115611433575b50611163576002805461ff0019166001600160a01b03909216735c69bee701ef814a2b6a3edd4b1652cb9cc5aa6f1460081b61ff00169190911790555f516020612b375f395f51905f52148080611143575b15610fff575050610eca610eed92611a96565b5f80546001600160a01b0319165f516020612b375f395f51905f521790556119ee565b600155600354610efc81610c94565b15610f045750565b610f0d90610c94565b601f8111610fbf575b5060db60035560035f525f516020612bd75f395f51905f525f516020612b575f395f51905f52557f696e6665617369626c652d7075626c69636c793b206e6f2065786563757461625f516020612b175f395f51905f52557f6c65207075626c69632d6c697175696469747920756e77696e642065786365655f516020612b975f395f51905f52556c191959081d1a1c995cda1bdb19609a1b5f516020612af75f395f51905f5255565b60035f52601f0160051c5f516020612b575f395f51905f52015f516020612bb75f395f51905f525b818110610ff45750610f16565b5f8155600101610fe7565b90926001600160a01b03165f516020612b375f395f51905f5214908161113a575b501561103257610eca610eed92611a96565b5f80546001600160a01b0319165f516020612b375f395f51905f5217905561105a91506119ee565b600155611068600354610c94565b601f81116110fa575b5060bb60035560035f525f516020612bd75f395f51905f525f516020612b575f395f51905f52557f696e6665617369626c652d7075626c69636c793b2074617267657420706169725f516020612b175f395f51905f52557f206973206e6f74206120777261707065722f57455448206d61726b65740000005f516020612b975f395f51905f5255565b60035f52601f0160051c5f516020612b575f395f51905f52015f516020612af75f395f51905f525b81811061112f5750611071565b5f8155600101611122565b9050155f611020565b506001600160a01b0384165f516020612b375f395f51905f521415610eb7565b505050905061010061ff00196002541617600255611182600354610c94565b601f81116113f3575b506113ee9061010160035560035f527f756e65787065637465646c792d726561636861626c653a2072657065617465645f516020612b575f395f51905f52557f20696e697469616c697a652061636365707465643b20646f776e73747265616d5f516020612b175f395f51905f52557f206d696e742f6275726e2f737761702f736b696d2f73796e6320776f756c64205f516020612b975f395f51905f52557f6e6f772072656164206f7665727772697474656e20746f6b656e20736c6f74735f516020612af75f395f51905f52555f8060405160208101906335313c2160e11b825230602482015260248152611283604482610854565b5190825f516020612b775f395f51905f525af15061129f610c55565b505f80604051602081019063226bf2d160e21b8252306024820152602481526112c9604482610854565b5190825f516020612b775f395f51905f525af1506112e5610c55565b505f80604051602081019063022c0d9f60e01b8252826024820152826044820152306064820152608060848201528260a482015260a4815261132860c482610854565b5190825f516020612b775f395f51905f525af150611344610c55565b505f80604051602081019063bc25cf7760e01b82523060248201526024815261136e604482610854565b5190825f516020612b775f395f51905f525af15061138a610c55565b505f80604051602081019063fff6cae960e01b8252600481526113ae602482610854565b5190825f516020612b775f395f51905f525af1506113ca610c55565b505f80546001600160a01b0319165f516020612b375f395f51905f521790556119ee565b600155565b60035f52601f0160051c5f516020612b575f395f51905f52015f516020612bb75f395f51905f525b818110611428575061118b565b5f815560010161141b565b90505f610e65565b61145591945060203d602011610391576103838183610854565b925f610db0565b611475915060203d602011610391576103838183610854565b5f610d7d565b61149591925060203d602011610391576103838183610854565b905f610d4b565b90506020813d6020116114c6575b816114b760209383610854565b8101031261061d57515f610d18565b3d91506114aa565b50565b916114e281956114e893958361219f565b9261223c565b5f516020612b375f395f51905f523b1561061d57604051630d0e30db60e41b81525f8160048183975f516020612b375f395f51905f525af1801561077a576116bb575b506040516370a0823160e01b81523060048201526020816024815f516020612b375f395f51905f525afa908115610398579082918591611686575b501061164d5760405163a9059cbb60e01b602082019081526001600160a01b039093166024820152604480820192909252908152829182916115a9606482610854565b5190825f516020612b375f395f51905f525af1906115c5610c55565b908261160c575b5050156115d557565b60405162461bcd60e51b815260206004820152600f60248201526e1d1c985b9cd9995c8819985a5b1959608a1b6044820152606490fd5b9080925051918215928315611626575b5050505f806115cc565b81929350906020918101031261063e576020015190811515820361015a57505f808061161c565b60405162461bcd60e51b81526020600482015260116024820152700d2dce6eaccccd2c6d2cadce840eecae8d607b1b6044820152606490fd5b9150506020813d6020116116b3575b816116a260209383610854565b8101031261061d578190515f611566565b3d9150611695565b6116c89193505f90610854565b5f915f61152b565b91936116dd91938561219f565b915f516020612b375f395f51905f523b1561061d57604051632e1a7d4d60e01b8152600481018590525f94908581602481835f516020612b375f395f51905f525af1801561077a576119b8575b508480916040516020810190630d0e30db60e41b82526004815261174f602482610854565b5191865af161175c610c55565b501561197a576040516370a0823160e01b81523060048201526001600160a01b0383169390602081602481885afa90811561196f57908291879161193a575b50106118fe5760405163a9059cbb60e01b602082019081526001600160a01b039093166024820152604480820192909252908152849182916117de606482610854565b519082855af16117ec610c55565b816118c6575b50156115d5576020602492604051938480926370a0823160e01b82523060048301525afa9182156103c2578392611892575b508161182f57505050565b816118399161223c565b5f516020612b375f395f51905f523b1561063e578160049160405192838092630d0e30db60e41b82525f516020612b375f395f51905f525af180156103ec57611880575050565b61188b828092610854565b61015a5750565b9091506020813d6020116118be575b816118ae60209383610854565b8101031261061d5751905f611824565b3d91506118a1565b80518015925082156118db575b50505f6117f2565b819250906020918101031261046557602001518015158103610465575f806118d3565b60405162461bcd60e51b815260206004820152601460248201527334b739bab33334b1b4b2b73a103bb930b83832b960611b6044820152606490fd5b9150506020813d602011611967575b8161195660209383610854565b8101031261061d578190515f61179b565b3d9150611949565b6040513d88823e3d90fd5b60405162461bcd60e51b81526020600482015260166024820152751ddc985c1c195c8819195c1bdcda5d0819985a5b195960521b6044820152606490fd5b6119c59195505f90610854565b5f935f61172a565b919082039182116119da57565b634e487b7160e01b5f52601160045260245ffd5b6040516370a0823160e01b8152306004820152906020826024815f516020612b375f395f51905f525afa91821561077a575f92611a3d575b50808211611a345750505f90565b6108a4916119cd565b9091506020813d602011611a69575b81611a5960209383610854565b8101031261061d5751905f611a26565b3d9150611a4c565b906004811015611a825760051b0190565b634e487b7160e01b5f52603260045260245ffd5b60405190611aa5608083610854565b60803683375f516020612b775f395f51905f5282525f604051905f806020840163e6a4390560e01b815260018060a01b038616948560248201525f516020612b375f395f51905f52604482015260448152611b01606482610854565b5190735c69bee701ef814a2b6a3edd4b1652cb9cc5aa6f5afa90611b23610c55565b9180612162575b612135575b611b3a9150846122c1565b5f5f80604051602081019063e6a4390560e01b82528660248201525f516020612b375f395f51905f52604482015260448152611b77606482610854565b519073c0aee478e3658e2610c5f7a4a2e1777ce9e4f2ac5afa611b98610c55565b9080612129575b6120fa575b50611baf9185612326565b905f808092604051602081019163e6a4390560e01b835260248201525f516020612b375f395f51905f52604482015260448152611bed606482610854565b519073115934131916c8b277dd010ee02de363c09d037c5afa611c0e610c55565b90806120ee575b6120bf575b50611c259184612326565b6040516370a0823160e01b815230600482015290916020826024815f516020612b375f395f51905f525afa91821561077a575f9261208b575b505f925f5b60068110611ec8575b5050505090505f14611dbb57611c83600354610c94565b601f8111611d68575b5061011f60035560035f525f516020612bd75f395f51905f525f516020612b575f395f51905f52557f696e6665617369626c652d7075626c69636c793b207075626c696320777261705f516020612b175f395f51905f52557f7065722f5745544820756e77696e647320776572652065786563757461626c655f516020612b975f395f51905f52557f2062757420746f74616c207265616c697a6564205745544820737461796564205f516020612af75f395f51905f52556e18995b1bddc81d1a1c995cda1bdb19608a1b5f516020612bb75f395f51905f5255565b60035f52601f0160051c5f516020612b575f395f51905f52017fc2575a0e9e593c00f959f8c92f12db2869c3395a3b0502d05e2516446f71f8605b818110611db05750611c8c565b5f8155600101611da3565b611dc6600354610c94565b601f8111611e88575b5060f760035560035f525f516020612bd75f395f51905f525f516020612b575f395f51905f52557f696e6665617369626c652d7075626c69636c793b20617474656d7074656420705f516020612b175f395f51905f52557f75626c696320777261707065722f574554482076656e75657320627574206e6f5f516020612b975f395f51905f52557f2070726f66697461626c6520756e77696e6420657865637574656400000000005f516020612af75f395f51905f5255565b60035f52601f0160051c5f516020612b575f395f51905f52015f516020612bb75f395f51905f525b818110611ebd5750611dcf565b5f8155600101611eb0565b5f5f5b838110611ee5575015611ee057600101611c63565b611c6c565b66038d7ea4c68000611efb8793979994996119ee565b1015611f3d57611f1e856001600160a01b03611f178487611a71565b511661239e565b611f31575b600101969196949094611ecb565b60019650869550611f23565b5050505050505050611f50600354610c94565b601f8111612038575b5061012560035560035f525f516020612bd75f395f51905f525f516020612b575f395f51905f52557f696e6665617369626c652d7075626c69636c793b206974657261746976656c795f516020612b175f395f51905f52557f20756e776f756e64206c69766520777261707065722f57455448206c697175695f516020612b975f395f51905f52557f64697479206163726f7373207075626c69632076656e75657320616e642072655f516020612af75f395f51905f525571185b1a5e99590815d15512081c1c9bd99a5d60721b5f516020612bb75f395f51905f5255565b60035f52601f0160051c5f516020612b575f395f51905f52017fc2575a0e9e593c00f959f8c92f12db2869c3395a3b0502d05e2516446f71f8605b8181106120805750611f59565b5f8155600101612073565b9091506020813d6020116120b7575b816120a760209383610854565b8101031261061d5751905f611c5e565b3d915061209a565b905060208180518101031261061d57602001516001600160a01b038116919082900361061d5790611c25611c1a565b50602081511015611c15565b905060208180518101031261061d57602001516001600160a01b038116919082900361061d5790611baf611ba4565b50602081511015611b9f565b5060208180518101031261061d57602001516001600160a01b0381169081900361061d57611b3a90611b2f565b50602082511015611b2a565b818102929181159184041417156119da57565b811561218b570490565b634e487b7160e01b5f52601260045260245ffd5b9190818310156121fe57826121b39161216e565b916103e88302928084046103e814901517156119da576121d2916119cd565b6103e58102908082046103e514901517156119da576121f091612181565b600181018091116119da5790565b60405162461bcd60e51b8152602060048201526016602482015275696e73756666696369656e74206c697175696469747960501b6044820152606490fd5b5f91908291826040516020810192632e1a7d4d60e01b8452602482015260248152612268604482610854565b51925af1612274610c55565b501561227c57565b60405162461bcd60e51b815260206004820152601760248201527f77726170706572207769746864726177206661696c65640000000000000000006044820152606490fd5b6001600160a01b03909116908115801561231f575b612318575f5b600181106122ee575060200152600290565b826001600160a01b036123018385611a71565b511614612310576001016122dc565b505050600190565b5050600190565b505f6122d6565b90916001600160a01b03169081158015612393575b61238e57825f5b818110612362575061235391611a71565b52600181018091116119da5790565b9050826001600160a01b036123778385611a71565b511614612388576001018390612342565b50505090565b505090565b50600483101561233b565b5f91906001600160a01b0381161561251057905f915b600483106123c25750505090565b6123cc8282612517565b805115612509576060810180519060a0830180518310918215809481956124ff575b506124d1575b81516124a3575b8280612499575b61246b575b8315612460576080850151935b156124585750515b61242a575b50505050505090565b602061243b93015115158585612946565b61244757808080612421565b90919250600180935b0191906123b4565b90505161241c565b604085015193612414565b612482602086015115156040870151908989612756565b156124075750505050509091925060018093612450565b5080511515612402565b6124ba60208601511515608087015190898961285d565b156123fb5750505050509091925060018093612450565b6124e8602086015115156040870151908989612756565b156123f45750505050509091925060018093612450565b905015155f6123ee565b5050505090565b5050505f90565b91906040519060c0820182811067ffffffffffffffff821117610840576040525f82525f60208301525f60408301525f60608301525f60808301525f60a0830152819360018060a01b03169160405192630dfe168160e01b8452602084600481845afa93841561077a575f94612735575b5060405163d21220a760e01b815293602085600481855afa91821561077a576004955f93612711575b5060609060405196878092630240bc6b60e21b82525afa93841561077a575f955f956126e9575b506001600160a01b039081169116808214806126ca575b156126775750506001808752602087015250506001600160701b0390811691165b61261a8183612a54565b8060408601528061265d575b506126318282612a54565b908160808601528161264257505050565b61265692612650918361219f565b906119cd565b60a0830152565b80612650838561266c9461219f565b60608501525f612626565b5f516020612b375f395f51905f521491826126b7575b5050156126b15750600184525f60208501526001600160701b039182169116612610565b93505050565b6001600160a01b03161490505f8061268d565b506001600160a01b0383165f516020612b375f395f51905f52146125ef565b90945061270691955060603d606011610357576103458183610854565b50949094935f6125d8565b606091935061272e9060203d602011610391576103838183610854565b92906125b1565b61274f91945060203d602011610391576103838183610854565b925f612588565b918315612855576040519361276a85610824565b612710855261251c602086015261232860408601526121346060860152612af86080860152611d4c60a08601526130d460c08601525f5b600781101561284b576127106127c161ffff8360051b890151168461216e565b0480156128425760405162e86b7d60e41b602082019081526001600160a01b0388811660248401528716604483015285151560648301526001608483015260a4808301939093529181525f91829161281a60c482610854565b519082305af1612828610c55565b50612837576001905b016127a1565b505050505050600190565b50600190612831565b5050505050505f90565b505050505f90565b918315612855576040519361287185610824565b612710855261251c602086015261232860408601526121346060860152612af86080860152611d4c60a08601526130d460c08601525f5b600781101561284b576127106128c861ffff8360051b890151168461216e565b04801561293d5760405162e86b7d60e41b602082019081526001600160a01b0388811660248401528716604483015285151560648301525f6084830181905260a480840194909452928252829161292060c482610854565b519082305af161292e610c55565b50612837576001905b016128a8565b50600190612937565b929190918415612a4b576040519461295d86610824565b612710865261251c602087015261232860408701526121346060870152612af86080870152611d4c60a08701526130d460c08701525f5b6007811015612a40576127106129b461ffff8360051b8a0151168461216e565b048015612a375760405162e86b7d60e41b602082019081526001600160a01b038981166024840152881660448301528615156064830152851515608483015260a4808301939093529181525f918291612a0e60c482610854565b519082305af1612a1c610c55565b50612a2b576001905b01612994565b50505050505050600190565b50600190612a25565b505050505050505f90565b50505050505f90565b80158015612aa4575b612a9e57612a6b908261216e565b6103e88102908082046103e814901517156119da576103e5612a8d9104612aac565b81811015612a9e576108a4916119cd565b50505f90565b508115612a5d565b908115612af157818060011c600181018091116119da57905b838210612ad0575050565b90925082612ade8183612181565b9081018091116119da5760011c90612ac5565b5f915056fec2575a0e9e593c00f959f8c92f12db2869c3395a3b0502d05e2516446f71f85ec2575a0e9e593c00f959f8c92f12db2869c3395a3b0502d05e2516446f71f85c000000000000000000000000c02aaa39b223fe8d0a0e5c4f27ead9083c756cc2c2575a0e9e593c00f959f8c92f12db2869c3395a3b0502d05e2516446f71f85b0000000000000000000000002033b54b6789a963a02bfcbd40a46816770f1161c2575a0e9e593c00f959f8c92f12db2869c3395a3b0502d05e2516446f71f85dc2575a0e9e593c00f959f8c92f12db2869c3395a3b0502d05e2516446f71f85f666163746f72792d67617465642d696e697469616c697a652d70726f7665642da2646970667358221220ded7cfefe8091162a60b0f3868aaee3b83c72f8369ef611ccc0c82135672af9764736f6c634300081e0033","linkReferences":{}},"methodIdentifiers":{"_executeFlashswap(address,address,bool,bool,uint256)":"0e86b7d0","currentPairState()":"3ac3d26d","executeOnOpportunity()":"3c2448ed","exploitPathUsed()":"d78c4281","hypothesisValidated()":"463defd1","profitAmount()":"5ff972cc","profitToken()":"49343624","targetPair()":"c6c6c5ab","uniswapV2Call(address,uint256,uint256,bytes)":"10d1e85c"},"id":0}