{"abi":[{"type":"constructor","inputs":[],"stateMutability":"nonpayable"},{"type":"receive","stateMutability":"payable"},{"type":"function","name":"executeOnOpportunity","inputs":[],"outputs":[],"stateMutability":"nonpayable"},{"type":"function","name":"profitAmount","inputs":[],"outputs":[{"name":"","type":"uint256","internalType":"uint256"}],"stateMutability":"view"},{"type":"function","name":"profitToken","inputs":[],"outputs":[{"name":"","type":"address","internalType":"address"}],"stateMutability":"pure"},{"type":"error","name":"LaundromatNoProfit","inputs":[]}],"bytecode":{"object":"0x6080604052348015600e575f5ffd5b5061253a8061001c5f395ff3fe608060405260043610610037575f3560e01c80633c2448ed1461004257806349343624146100585780635ff972cc146100825761003e565b3661003e57005b5f5ffd5b34801561004d575f5ffd5b506100566100ac565b005b348015610063575f5ffd5b5061006c610197565b6040516100799190610227565b60405180910390f35b34801561008d575f5ffd5b5061009661019e565b6040516100a39190610258565b60405180910390f35b60015f9054906101000a900460ff16156100fb576040517f08c379a00000000000000000000000000000000000000000000000000000000081526004016100f2906102cb565b60405180910390fd5b6001805f6101000a81548160ff0219169083151502179055505f4790505f5f90505b60058160ff16101561014457610132816101a6565b8147116101445780600101905061011d565b505f479050818111610182576040517f982c348600000000000000000000000000000000000000000000000000000000815260040160405180910390fd5b818161018e9190610316565b5f819055505050565b5f5f905090565b5f5f54905090565b30816040516101b4906101db565b6101bf929190610384565b604051809103905ff080156101d15760015b156101d857505b50565b612159806103ac83390190565b5f73ffffffffffffffffffffffffffffffffffffffff82169050919050565b5f610211826101e8565b9050919050565b61022181610207565b82525050565b5f60208201905061023a5f830184610218565b92915050565b5f819050919050565b61025281610240565b82525050565b5f60208201905061026b5f830184610249565b92915050565b5f82825260208201905092915050565b7f616c7265616479206578656375746564000000000000000000000000000000005f82015250565b5f6102b5601083610271565b91506102c082610281565b602082019050919050565b5f6020820190508181035f8301526102e2816102a9565b9050919050565b7f4e487b71000000000000000000000000000000000000000000000000000000005f52601160045260245ffd5b5f61032082610240565b915061032b83610240565b9250828203905081811115610343576103426102e9565b5b92915050565b5f610353826101e8565b9050919050565b61036381610349565b82525050565b5f60ff82169050919050565b61037e81610369565b82525050565b5f6040820190506103975f83018561035a565b6103a46020830184610375565b939250505056fe6080604052604051612159380380612159833981810160405281019061002591906117ac565b5f73ffffffffffffffffffffffffffffffffffffffff168273ffffffffffffffffffffffffffffffffffffffff1603610093576040517f08c379a000000000000000000000000000000000000000000000000000000000815260040161008a90611844565b60405180910390fd5b5f8160ff16036100b0576100ab61012f60201b60201c565b6100dd565b5f5f5f6100c28461040e60201b60201c565b9250925092506100d983838361047560201b60201c565b5050505b5f4703610116576040517f982c348600000000000000000000000000000000000000000000000000000000815260040160405180910390fd5b8173ffffffffffffffffffffffffffffffffffffffff16ff5b61017f7f53fc1ed6fc846bb1bb169b59c0f09b68c5489f92a52de825288380980c45ca8a7fdd3a0e9477d9e2f82be3b891061fb1d435839c670ff6aa61183f5ee01d52d3b661079060201b60201c565b5f600567ffffffffffffffff81111561019b5761019a611862565b5b6040519080825280602002602001820160405280156101c95781602001602082028036833780820191505090505b5090507f33f79225929030e6369f0fbf5500142b8a4e10370e35f701a0e5c4d324f098d6815f81518110610200576101ff61188f565b5b6020026020010181815250507f93708ff3b6dcb272664acb22881510360a04ca1a0a05a8dda37d06ddc62e5bf0816001815181106102415761024061188f565b5b6020026020010181815250507fec91250cc040f420bdd11eb4b77cbf1d659ed043e88dbe49b392d44a85453e04816002815181106102825761028161188f565b5b6020026020010181815250507fddaef0451b6c22a35bc641cd5f66aae904351f8adca3e588f0385d9d0bec542f816003815181106102c3576102c261188f565b5b6020026020010181815250507f2652c96f86b22f421949daee41ffef503df3a06072e372de15105d0783bc2ba3816004815181106103045761030361188f565b5b6020026020010181815250506103fc6002631a6c9c0d60e01b837fa844d117805bbe3b276c37582fc1f960b5870ccd0d1016ec39a2b32a5bc780cf7f3184ac964636725c9c94d3767739fd89fc58da189ef8579409052b860e00b28f7fd7b3de3e1198ad3c53db7b873132bd16741f130d8fe73e801b281182cc3da487604051602401610394949392919061198b565b604051602081830303815290604052907bffffffffffffffffffffffffffffffffffffffffffffffffffffffff19166020820180517bffffffffffffffffffffffffffffffffffffffffffffffffffffffff83818316178352505050506109b860201b60201c565b5061040b610a8760201b60201c565b50565b5f5f5f60018460ff160361042c5760015f600192509250925061046e565b60028460ff16036104475760025f600192509250925061046e565b60038460ff160361046257600160045f92509250925061046e565b600260045f9250925092505b9193909250565b5f83141580156104a457507ffffffffffffffffffffffffffffffffebaaedce6af48a03bbfd25e8cd036414183105b6104e3576040517f08c379a00000000000000000000000000000000000000000000000000000000081526004016104da90611a1f565b60405180910390fd5b60058210610526576040517f08c379a000000000000000000000000000000000000000000000000000000000815260040161051d90611a87565b60405180910390fd5b6005811080156105365750818114155b610575576040517f08c379a000000000000000000000000000000000000000000000000000000000815260040161056c90611aef565b60405180910390fd5b5f600184146105ae576105a961059e610592610e9160201b60201c565b86610ee860201b60201c565b610f3160201b60201c565b6105bd565b6105bc610e9160201b60201c565b5b90505f6106107f03f29711206706d66564e2936d70a08f7002931eaa686a579cb9bd36b88015067f582d363ee7899d3fa7131de9d470656e4c9b9b1514929c3fc985b9da2105af1f610f5160201b60201c565b90505f61062283610f8160201b60201c565b90505f61063483610f8160201b60201c565b90505f600188146106625761065d610652848a610ee860201b60201c565b610f3160201b60201c565b610664565b825b9050610695610679865f610fa160201b60201c565b61068a876020610fa160201b60201c565b61079060201b60201c565b5f5f6106aa878787878d610fb160201b60201c565b915091505f5f6106c48484878f8f8f61106260201b60201c565b915091506107736002631a6c9c0d60e01b84846106e78a5f610fa160201b60201c565b6106f88b6020610fa160201b60201c565b60405160240161070b949392919061198b565b604051602081830303815290604052907bffffffffffffffffffffffffffffffffffffffffffffffffffffffff19166020820180517bffffffffffffffffffffffffffffffffffffffffffffffffffffffff83818316178352505050506109b860201b60201c565b50610782610a8760201b60201c565b505050505050505050505050565b610818600163e2bbb15860e01b84846040516024016107b0929190611b0d565b604051602081830303815290604052907bffffffffffffffffffffffffffffffffffffffffffffffffffffffff19166020820180517bffffffffffffffffffffffffffffffffffffffffffffffffffffffff83818316178352505050506109b860201b60201c565b506108a1600163e2bbb15860e01b8484604051602401610839929190611b0d565b604051602081830303815290604052907bffffffffffffffffffffffffffffffffffffffffffffffffffffffff19166020820180517bffffffffffffffffffffffffffffffffffffffffffffffffffffffff83818316178352505050506109b860201b60201c565b5061092a600163e2bbb15860e01b84846040516024016108c2929190611b0d565b604051602081830303815290604052907bffffffffffffffffffffffffffffffffffffffffffffffffffffffff19166020820180517bffffffffffffffffffffffffffffffffffffffffffffffffffffffff83818316178352505050506109b860201b60201c565b506109b3600163e2bbb15860e01b848460405160240161094b929190611b0d565b604051602081830303815290604052907bffffffffffffffffffffffffffffffffffffffffffffffffffffffff19166020820180517bffffffffffffffffffffffffffffffffffffffffffffffffffffffff83818316178352505050506109b860201b60201c565b505050565b60605f5f73934cbbe5377358e6712b5f041d90313d935c501c73ffffffffffffffffffffffffffffffffffffffff16846040516109f59190611b86565b5f604051808303815f865af19150503d805f8114610a2e576040519150601f19603f3d011682016040523d82523d5f602084013e610a33565b606091505b509150915081610a7c5784816040517f69c0e1ac000000000000000000000000000000000000000000000000000000008152600401610a73929190611c03565b60405180910390fd5b809250505092915050565b5f479050610b06600363990e1c9b60e01b604051602401604051602081830303815290604052907bffffffffffffffffffffffffffffffffffffffffffffffffffffffff19166020820180517bffffffffffffffffffffffffffffffffffffffffffffffffffffffff83818316178352505050506109b860201b60201c565b50610b82600363990e1c9b60e01b604051602401604051602081830303815290604052907bffffffffffffffffffffffffffffffffffffffffffffffffffffffff19166020820180517bffffffffffffffffffffffffffffffffffffffffffffffffffffffff83818316178352505050506109b860201b60201c565b50610bfe600363990e1c9b60e01b604051602401604051602081830303815290604052907bffffffffffffffffffffffffffffffffffffffffffffffffffffffff19166020820180517bffffffffffffffffffffffffffffffffffffffffffffffffffffffff83818316178352505050506109b860201b60201c565b50610c7a600363990e1c9b60e01b604051602401604051602081830303815290604052907bffffffffffffffffffffffffffffffffffffffffffffffffffffffff19166020820180517bffffffffffffffffffffffffffffffffffffffffffffffffffffffff83818316178352505050506109b860201b60201c565b50610cf6600363990e1c9b60e01b604051602401604051602081830303815290604052907bffffffffffffffffffffffffffffffffffffffffffffffffffffffff19166020820180517bffffffffffffffffffffffffffffffffffffffffffffffffffffffff83818316178352505050506109b860201b60201c565b505f5f73934cbbe5377358e6712b5f041d90313d935c501c73ffffffffffffffffffffffffffffffffffffffff16639ebb125060e01b604051602401604051602081830303815290604052907bffffffffffffffffffffffffffffffffffffffffffffffffffffffff19166020820180517bffffffffffffffffffffffffffffffffffffffffffffffffffffffff8381831617835250505050604051610d9c9190611b86565b5f604051808303815f865af19150503d805f8114610dd5576040519150601f19603f3d011682016040523d82523d5f602084013e610dda565b606091505b509150915081610e24576004816040517f69c0e1ac000000000000000000000000000000000000000000000000000000008152600401610e1b929190611c73565b60405180910390fd5b5f5f82511480610e44575081806020019051810190610e439190611cd6565b5b905080158015610e545750834711155b15610e8b576040517f982c348600000000000000000000000000000000000000000000000000000000815260040160405180910390fd5b50505050565b6060610ee37f79be667ef9dcbbac55a06295ce870b07029bfcdb2dce28d959f2815b16f817987f483ada7726a3c4655da4fbfc0e1108a8fd17b448a68554199c47d08ffb10d4b8610f5160201b60201c565b905090565b6060610f2963d876fb2160e01b8460015f1b855f1b604051602001610f0f93929190611d2a565b60405160208183030381529060405261147260201b60201c565b905092915050565b6060610f4a6358da3ca960e01b8361147260201b60201c565b9050919050565b6060825f1b825f1b604051602001610f6a929190611d62565b604051602081830303815290604052905092915050565b6060610f9a631bfa5d8a60e01b8361147260201b60201c565b9050919050565b5f81602084010151905092915050565b610fb96116cf565b610fc16116cf565b5f5f90505b6005811015611057578381036110135786838260058110610fea57610fe961188f565b5b6020020181905250848282600581106110065761100561188f565b5b602002018190525061104c565b878382600581106110275761102661188f565b5b6020020181905250858282600581106110435761104261188f565b5b60200201819052505b806001019050610fc6565b509550959350505050565b60605f61106d6116f6565b6110756116f6565b5f6110b3308989896040516020016110909493929190611e57565b604051602081830303815290604052805190602001205f1c61156260201b60201c565b90505f5f90505b600581101561113257868103156111275761110a308a8a8a856040516020016110e7959493929190611ef9565b604051602081830303815290604052805190602001205f1c61156260201b60201c565b84826005811061111d5761111c61188f565b5b6020020181815250505b8060010190506110ba565b506111a161116161115661114a610e9160201b60201c565b84610ee860201b60201c565b610f3160201b60201c565b61119661118b8d8a6005811061117a5761117961188f565b5b602002015185610ee860201b60201c565b610f3160201b60201c565b6115aa60201b60201c565b8260056001896111b19190611f8f565b6111bb9190611fef565b600581106111cc576111cb61188f565b5b6020020181815250505f600190505b60058110156112ae575f600582896111f39190611f8f565b6111fd9190611fef565b905061126e8d82600581106112155761121461188f565b5b60200201518d836005811061122d5761122c61188f565b5b60200201518d8885600581106112465761124561188f565b5b602002015188866005811061125e5761125d61188f565b5b60200201516115ee60201b60201c565b84600560018461127e9190611f8f565b6112889190611fef565b600581106112995761129861188f565b5b602002018181525050508060010190506111db565b507ffffffffffffffffffffffffffffffffebaaedce6af48a03bbfd25e8cd0364141806112de576112dd611fc2565b5b7ffffffffffffffffffffffffffffffffebaaedce6af48a03bbfd25e8cd03641418061130d5761130c611fc2565b5b898489600581106113215761132061188f565b5b6020020151097ffffffffffffffffffffffffffffffffebaaedce6af48a03bbfd25e8cd0364141611352919061201f565b82088387600581106113675761136661188f565b5b6020020181815250505f8387600581106113845761138361188f565b5b6020020151036113ad5760018387600581106113a3576113a261188f565b5b6020020181815250505b600567ffffffffffffffff8111156113c8576113c7611862565b5b6040519080825280602002602001820160405280156113f65781602001602082028036833780820191505090505b5094505f5f90505b60058110156114495783816005811061141a5761141961188f565b5b60200201518682815181106114325761143161188f565b5b6020026020010181815250508060010190506113fe565b50815f6005811061145d5761145c61188f565b5b60200201519350505050965096945050505050565b60605f5f73600ad7b57f3e6aeee53acb8704a5ed50b60cacd673ffffffffffffffffffffffffffffffffffffffff1685856040516020016114b492919061209d565b6040516020818303038152906040526040516114d09190611b86565b5f604051808303815f865af19150503d805f8114611509576040519150601f19603f3d011682016040523d82523d5f602084013e61150e565b606091505b5091509150816115575784816040517fe325148400000000000000000000000000000000000000000000000000000000815260040161154e9291906120d3565b60405180910390fd5b809250505092915050565b5f5f7ffffffffffffffffffffffffffffffffebaaedce6af48a03bbfd25e8cd0364141836115909190611fef565b90505f811461159f57806115a2565b60015b915050919050565b5f6115e63084846040516020016115c393929190612101565b604051602081830303815290604052805190602001205f1c61156260201b60201c565b905092915050565b5f61168261163b611630611615611609610e9160201b60201c565b87610ee860201b60201c565b6116258a87610ee860201b60201c565b61168d60201b60201c565b610f3160201b60201c565b61167761166c6116518988610ee860201b60201c565b6116618988610ee860201b60201c565b61168d60201b60201c565b610f3160201b60201c565b6115aa60201b60201c565b905095945050505050565b60606116c7635f8eb4c760e01b84846040516020016116ad929190612135565b60405160208183030381529060405261147260201b60201c565b905092915050565b6040518060a001604052806005905b60608152602001906001900390816116de5790505090565b6040518060a00160405280600590602082028036833780820191505090505090565b5f5ffd5b5f73ffffffffffffffffffffffffffffffffffffffff82169050919050565b5f6117458261171c565b9050919050565b6117558161173b565b811461175f575f5ffd5b50565b5f815190506117708161174c565b92915050565b5f60ff82169050919050565b61178b81611776565b8114611795575f5ffd5b50565b5f815190506117a681611782565b92915050565b5f5f604083850312156117c2576117c1611718565b5b5f6117cf85828601611762565b92505060206117e085828601611798565b9150509250929050565b5f82825260208201905092915050565b7f6261642062656e656669636961727900000000000000000000000000000000005f82015250565b5f61182e600f836117ea565b9150611839826117fa565b602082019050919050565b5f6020820190508181035f83015261185b81611822565b9050919050565b7f4e487b71000000000000000000000000000000000000000000000000000000005f52604160045260245ffd5b7f4e487b71000000000000000000000000000000000000000000000000000000005f52603260045260245ffd5b5f81519050919050565b5f82825260208201905092915050565b5f819050602082019050919050565b5f819050919050565b6118f7816118e5565b82525050565b5f61190883836118ee565b60208301905092915050565b5f602082019050919050565b5f61192a826118bc565b61193481856118c6565b935061193f836118d6565b805f5b8381101561196f57815161195688826118fd565b975061196183611914565b925050600181019050611942565b5085935050505092915050565b611985816118e5565b82525050565b5f6080820190508181035f8301526119a38187611920565b90506119b2602083018661197c565b6119bf604083018561197c565b6119cc606083018461197c565b95945050505050565b7f62616420736563726574000000000000000000000000000000000000000000005f82015250565b5f611a09600a836117ea565b9150611a14826119d5565b602082019050919050565b5f6020820190508181035f830152611a36816119fd565b9050919050565b7f62616420686f6e65737420696e646578000000000000000000000000000000005f82015250565b5f611a716010836117ea565b9150611a7c82611a3d565b602082019050919050565b5f6020820190508181035f830152611a9e81611a65565b9050919050565b7f626164207369676e657220696e646578000000000000000000000000000000005f82015250565b5f611ad96010836117ea565b9150611ae482611aa5565b602082019050919050565b5f6020820190508181035f830152611b0681611acd565b9050919050565b5f604082019050611b205f83018561197c565b611b2d602083018461197c565b9392505050565b5f81519050919050565b5f81905092915050565b8281835e5f83830152505050565b5f611b6082611b34565b611b6a8185611b3e565b9350611b7a818560208601611b48565b80840191505092915050565b5f611b918284611b56565b915081905092915050565b611ba581611776565b82525050565b5f82825260208201905092915050565b5f601f19601f8301169050919050565b5f611bd582611b34565b611bdf8185611bab565b9350611bef818560208601611b48565b611bf881611bbb565b840191505092915050565b5f604082019050611c165f830185611b9c565b8181036020830152611c288184611bcb565b90509392505050565b5f819050919050565b5f819050919050565b5f611c5d611c58611c5384611c31565b611c3a565b611776565b9050919050565b611c6d81611c43565b82525050565b5f604082019050611c865f830185611c64565b8181036020830152611c988184611bcb565b90509392505050565b5f8115159050919050565b611cb581611ca1565b8114611cbf575f5ffd5b50565b5f81519050611cd081611cac565b92915050565b5f60208284031215611ceb57611cea611718565b5b5f611cf884828501611cc2565b91505092915050565b5f819050919050565b5f819050919050565b611d24611d1f82611d01565b611d0a565b82525050565b5f611d358286611b56565b9150611d418285611d13565b602082019150611d518284611d13565b602082019150819050949350505050565b5f611d6d8285611d13565b602082019150611d7d8284611d13565b6020820191508190509392505050565b5f81905092915050565b7f6c61756e64726f6d61742d616c706861000000000000000000000000000000005f82015250565b5f611dcb601083611d8d565b9150611dd682611d97565b601082019050919050565b5f611deb8261171c565b9050919050565b5f8160601b9050919050565b5f611e0882611df2565b9050919050565b5f611e1982611dfe565b9050919050565b611e31611e2c82611de1565b611e0f565b82525050565b5f819050919050565b611e51611e4c826118e5565b611e37565b82525050565b5f611e6182611dbf565b9150611e6d8287611e20565b601482019150611e7d8286611e40565b602082019150611e8d8285611e40565b602082019150611e9d8284611e40565b60208201915081905095945050505050565b7f6c61756e64726f6d61742d7300000000000000000000000000000000000000005f82015250565b5f611ee3600c83611d8d565b9150611eee82611eaf565b600c82019050919050565b5f611f0382611ed7565b9150611f0f8288611e20565b601482019150611f1f8287611e40565b602082019150611f2f8286611e40565b602082019150611f3f8285611e40565b602082019150611f4f8284611e40565b6020820191508190509695505050505050565b7f4e487b71000000000000000000000000000000000000000000000000000000005f52601160045260245ffd5b5f611f99826118e5565b9150611fa4836118e5565b9250828201905080821115611fbc57611fbb611f62565b5b92915050565b7f4e487b71000000000000000000000000000000000000000000000000000000005f52601260045260245ffd5b5f611ff9826118e5565b9150612004836118e5565b92508261201457612013611fc2565b5b828206905092915050565b5f612029826118e5565b9150612034836118e5565b925082820390508181111561204c5761204b611f62565b5b92915050565b5f7fffffffff0000000000000000000000000000000000000000000000000000000082169050919050565b5f819050919050565b61209761209282612052565b61207d565b82525050565b5f6120a88285612086565b6004820191506120b88284611b56565b91508190509392505050565b6120cd81612052565b82525050565b5f6040820190506120e65f8301856120c4565b81810360208301526120f88184611bcb565b90509392505050565b5f61210c8286611e20565b60148201915061211c8285611b56565b91506121288284611b56565b9150819050949350505050565b5f6121408285611b56565b915061214c8284611b56565b9150819050939250505056fea2646970667358221220e78be447625dd8cbd969382ff60b7698b9bed7850ff0347aec754e5422c27e3664736f6c634300081e0033","linkReferences":{}},"methodIdentifiers":{"executeOnOpportunity()":"3c2448ed","profitAmount()":"5ff972cc","profitToken()":"49343624"},"id":0}