{"abi":[{"type":"constructor","inputs":[],"stateMutability":"nonpayable"},{"type":"function","name":"attemptV2Buy","inputs":[{"name":"pair","type":"address","internalType":"address"},{"name":"desiredToken0Out","type":"uint256","internalType":"uint256"},{"name":"maxToken1In","type":"uint256","internalType":"uint256"}],"outputs":[{"name":"amountIn","type":"uint256","internalType":"uint256"}],"stateMutability":"nonpayable"},{"type":"function","name":"attemptV3Buy","inputs":[{"name":"pool","type":"address","internalType":"address"},{"name":"desiredToken0Out","type":"uint256","internalType":"uint256"},{"name":"maxToken1In","type":"uint256","internalType":"uint256"}],"outputs":[{"name":"amountIn","type":"uint256","internalType":"uint256"}],"stateMutability":"nonpayable"},{"type":"function","name":"executeOnOpportunity","inputs":[],"outputs":[],"stateMutability":"nonpayable"},{"type":"function","name":"flashCallback","inputs":[{"name":"fee0","type":"uint256","internalType":"uint256"},{"name":"fee1","type":"uint256","internalType":"uint256"},{"name":"","type":"bytes","internalType":"bytes"}],"outputs":[],"stateMutability":"nonpayable"},{"type":"function","name":"profitAmount","inputs":[],"outputs":[{"name":"","type":"uint256","internalType":"uint256"}],"stateMutability":"view"},{"type":"function","name":"profitToken","inputs":[],"outputs":[{"name":"","type":"address","internalType":"address"}],"stateMutability":"view"},{"type":"function","name":"receiveFlashLoan","inputs":[{"name":"tokens","type":"address[]","internalType":"address[]"},{"name":"amounts","type":"uint256[]","internalType":"uint256[]"},{"name":"feeAmounts","type":"uint256[]","internalType":"uint256[]"},{"name":"","type":"bytes","internalType":"bytes"}],"outputs":[],"stateMutability":"nonpayable"},{"type":"function","name":"uniswapV3SwapCallback","inputs":[{"name":"amount0Delta","type":"int256","internalType":"int256"},{"name":"amount1Delta","type":"int256","internalType":"int256"},{"name":"","type":"bytes","internalType":"bytes"}],"outputs":[],"stateMutability":"nonpayable"}],"bytecode":{"object":"0x60808060405234601557612e23908161001a8239f35b5f80fdfe60806040526004361015610011575f80fd5b5f5f3560e01c806313b7008d1461111b5780633c2448ed1461110157806349343624146110d95780635bcc2c0814610c755780635ff972cc14610c57578063c3924ed614610635578063f04f27071461022d5763fa461e3314610072575f80fd5b3461022a57606036600319011261022a576004356024356044356001600160401b038111610228576100a8903690600401611484565b5050600a546001600160a01b031633036101ea578282131561016757505f19811361012c575b600b5481116100f2576001546100ef919033906001600160a01b031661249a565b80f35b60405162461bcd60e51b815260206004820152601260248201527176332d696e7075742d746f6f2d6c6172676560701b6044820152606490fd5b60405162461bcd60e51b815260206004820152601360248201527276332d616d6f756e74302d6f766572666c6f7760681b6044820152606490fd5b9050818113156101b5575f198113156100ce5760405162461bcd60e51b815260206004820152601360248201527276332d616d6f756e74312d6f766572666c6f7760681b6044820152606490fd5b60405162461bcd60e51b815260206004820152600d60248201526c1d8ccb5e995c9bcb5a5b9c1d5d609a1b6044820152606490fd5b60405162461bcd60e51b8152602060048201526016602482015275756e65787065637465642d76332d63616c6c6261636b60501b6044820152606490fd5b835b80fd5b503461022a57608036600319011261022a576004356001600160401b0381116106055736602382011215610605578060040135610269816114e6565b9161027760405193846114b1565b8183526024602084019260051b8201019036821161063157602401915b81831061060d575050506024356001600160401b038111610609576102bd9036906004016114fd565b6044356001600160401b038111610228576102dc9036906004016114fd565b91836064356001600160401b03811161060557366023820112156106055780600401356103088161155a565b61031560405191826114b1565b818152366024838501011161022857816024602094018483013701015273ba12222222228d8ba445958a75a0704d566bf2c833036105cb5760ff84541660038110156105b75760010361057257600181511480610567575b8061055c575b15610517576001600160a01b039061038a90611f26565b511660018060a01b0360015416036104d2576103a590611f26565b516008540361048d576103b790611f26565b51600955600260ff195f5416175f5580600454600554906103d6611622565b915f516020612dce5f395f51905f523b1561048857839161040c60405194859384936312439b2f60e21b8552306004860161164c565b0381835f516020612dce5f395f51905f525af1801561047d57610468575b506104336120fa565b60015460085460095461045a926001600160a01b0316916104549190611615565b9061244e565b600160ff195f5416175f5580f35b81610472916114b1565b61022a57805f61042a565b6040513d84823e3d90fd5b505050fd5b60405162461bcd60e51b815260206004820152601b60248201527f756e65787065637465642d62616c616e6365722d616d6f756e743100000000006044820152606490fd5b60405162461bcd60e51b815260206004820152601960248201527f756e65787065637465642d62616c616e6365722d746f6b656e000000000000006044820152606490fd5b60405162461bcd60e51b815260206004820152601760248201527f62616c616e6365722d61727261792d6d69736d617463680000000000000000006044820152606490fd5b506001835114610373565b50600182511461036d565b60405162461bcd60e51b815260206004820152601c60248201527f756e65787065637465642d62616c616e6365722d63616c6c6261636b000000006044820152606490fd5b634e487b7160e01b85526021600452602485fd5b60405162461bcd60e51b81526020600482015260126024820152711b9bdd0b58985b185b98d95c8b5d985d5b1d60721b6044820152606490fd5b5080fd5b8280fd5b82356001600160a01b038116810361062d57815260209283019201610294565b5f80fd5b8480fd5b503461022a57606036600319011261022a576044356001600160401b03811161060557610666903690600401611484565b50505f516020612dce5f395f51905f523303610c255780549060ff82166003811015610c1157600203610bcc5760065491826004351480610bbf575b15610b8b576106be90309060081c6001600160a01b0316612031565b916106df6106d63060018060a01b0360015416612031565b91600454611615565b906106ef60055460075490611615565b91808510610b26575b808510610ae157828210610a9c576040516318160ddd60e01b81528492906020816004815f516020612dce5f395f51905f525afa9081156108f8578691610a6a575b508015610a3757869086875b601081106109da575b50905b80821115610948575b5050831561090357604051631c57762b60e31b815260048101949094525f1960248501528584604481835f516020612dce5f395f51905f525af19384156108f85786946108d2575b50600284511061088d576107b684611f26565b5111159081610879575b501561083e57806107d083611f26565b511061081a575b50816107e282611f47565b51106107ec578280f35b61080e6108149261080760018060a01b036001541693611f47565b5190611608565b90612385565b81808280f35b6108389061080e60018060a01b03865460081c169161080785611f26565b836107d7565b60405162461bcd60e51b815260206004820152601360248201527206465706f7369742d657863656564732d63617606c1b6044820152606490fd5b905061088483611f47565b511115856107c0565b60405162461bcd60e51b815260206004820152601860248201527f756e65787065637465642d6465706f7369742d736861706500000000000000006044820152606490fd5b6108ef9194503d8088833e6108e781836114b1565b810190611ef9565b905092866107a3565b6040513d88823e3d90fd5b60405162461bcd60e51b815260206004820152601d60248201527f6e6f2d6665617369626c652d7265656e7472616e742d6465706f7369740000006044820152606490fd5b9093929196959461096561095c8684611608565b60011c86611615565b94610971848a88612d2b565b156109a55750506001840180851161099157905b96919293949596610752565b634e487b7160e01b87526011600452602487fd5b91509380156109ce575f1981019081111561098557634e487b7160e01b87526011600452602487fd5b9691929394959661075b565b91906109ee8585849b9a999897969b612d2b565b15610a295750806001600160ff1b038111610a1657600190811b920197929394959697610746565b5090505f1990889792939495969761074f565b90919792939495969761074f565b60405162461bcd60e51b815260206004820152600b60248201526a7a65726f2d737570706c7960a81b6044820152606490fd5b90506020813d602011610a94575b81610a85602093836114b1565b8101031261062d57515f61073a565b3d9150610a78565b60405162461bcd60e51b815260206004820152601b60248201527f696e73756666696369656e742d746f6b656e312d666f722d66656500000000006044820152606490fd5b60405162461bcd60e51b815260206004820152601b60248201527f696e73756666696369656e742d746f6b656e302d666f722d66656500000000006044820152606490fd5b9390610b35610b4e9286611608565b908380821115610b8257610b4891611608565b906124e5565b8154610b6790309060081c6001600160a01b0316612031565b92610b7c3060018060a01b0360015416612031565b906106f8565b505083906124e5565b60405162461bcd60e51b815260206004820152600c60248201526b0cccaca5adad2e6dac2e8c6d60a31b6044820152606490fd5b50600754602435146106a2565b60405162461bcd60e51b815260206004820152601a60248201527f756e65787065637465642d7461726765742d63616c6c6261636b0000000000006044820152606490fd5b634e487b7160e01b82526021600452602482fd5b60405162461bcd60e51b815260206004820152600a6024820152691b9bdd0b5d185c99d95d60b21b6044820152606490fd5b503461022a578060031936011261022a576020600d54604051908152f35b503461062d57610c843661145a565b91610c90303314611575565b604051630dfe168160e01b81526001600160a01b03821691602082600481865afa918215610ef3575f926110b8575b5060405163d21220a760e01b815291602083600481875afa928315610ef3575f93611087575b505f546001600160a01b039182169360089190911c90911683811491908261106f575b821561103c575b50501561100757604051630240bc6b60e21b815291606083600481875afa928315610ef3575f905f94610faf575b506001546001600160a01b0316918214936001600160701b03908515610fa657818316925b8615610f9d575016905b86151580610f94575b15610f5e5786610d8491611e89565b906103e88202918083046103e81490151715610f365786610da491611608565b906103e58202918083046103e51490151715610f36578115610f4a57049560018701809711610f36578611610efe57610dde91869161249a565b15610e74576040518491610df36020836114b1565b828252803b1561060957610e37938360405180968195829463022c0d9f60e01b845284600485015260248401523060448401526080606484015260848301906115cc565b03925af18015610e6957610e54575b50602091505b604051908152f35b610e5f8380926114b1565b6106055781610e46565b6040513d85823e3d90fd5b9250604051610e846020826114b1565b5f8152833b1561062d57610eca935f928360405180978195829463022c0d9f60e01b845260048401528360248401523060448401526080606484015260848301906115cc565b03925af1918215610ef357602092610ee3575b50610e4c565b5f610eed916114b1565b5f610edd565b6040513d5f823e3d90fd5b60405162461bcd60e51b815260206004820152601060248201526f76322d746f6f2d657870656e7369766560801b6044820152606490fd5b634e487b7160e01b5f52601160045260245ffd5b634e487b7160e01b5f52601260045260245ffd5b60405162461bcd60e51b815260206004820152600e60248201526d1a5b9d985b1a590b5d8c8b5bdd5d60921b6044820152606490fd5b50818710610d75565b90501690610d6c565b81811692610d62565b9350506060833d606011610fff575b81610fcb606093836114b1565b8101031261062d57610fdc83611e75565b6040610fea60208601611e75565b94015163ffffffff81160361062d575f610d3d565b3d9150610fbe565b60405162461bcd60e51b815260206004820152600d60248201526c0e0c2d2e45adad2e6dac2e8c6d609b1b6044820152606490fd5b6001546001600160a01b031685149250908261105c575b50505f80610d0f565b6001600160a01b03161490505f80611053565b6001546001600160a01b038381169116149250610d08565b6110aa91935060203d6020116110b1575b6110a281836114b1565b8101906115ad565b915f610ce5565b503d611098565b6110d291925060203d6020116110b1576110a281836114b1565b905f610cbf565b3461062d575f36600319011261062d57600c546040516001600160a01b039091168152602090f35b3461062d575f36600319011261062d5761111961167a565b005b3461062d576111293661145a565b9091611136303314611575565b604051630dfe168160e01b81526001600160a01b03919091169290602081600481875afa908115610ef3575f9161143b575b5060405163d21220a760e01b815290602082600481885afa918215610ef3575f9261141a575b506001546001600160a01b03908116911680821480611400575b1561137f5750505060016401000276a4935b600a80546001600160a01b03191682179055600b8490556001600160ff1b03831161134557600160ff1b8314610f3657611251926040916020965f8451936112028a866114b1565b8185528551630251596160e31b8152306004820152871515602482015290820360448201526001600160a01b03909216606483015260a0608483015290958693849291839160a48301906115cc565b03925af1908115610ef3575f925f9261130b575b50600a80546001600160a01b03191690555f600b55156113035750905b5f8213156112d057811161129857604051908152f35b60405162461bcd60e51b815260048101839052601060248201526f76332d746f6f2d657870656e7369766560801b6044820152606490fd5b60405162461bcd60e51b815260048101849052600b60248201526a1d8ccb5b9bcb5a5b9c1d5d60aa1b6044820152606490fd5b905090611282565b925090506040823d60401161133d575b81611328604093836114b1565b8101031261062d578382519201519085611265565b3d915061131b565b60405162461bcd60e51b815260206004820152601260248201527176332d6f75747075742d6f766572666c6f7760701b6044820152606490fd5b5f5460081c6001600160a01b03161491826113ed575b5050156113b8575f73fffd8963efd1fc6a506488495d951d5263988d25936111ba565b60405162461bcd60e51b815260206004820152600d60248201526c0e0deded85adad2e6dac2e8c6d609b1b6044820152606490fd5b6001600160a01b03161490508480611395565b505f5460081c6001600160a01b03908116908416146111a8565b61143491925060203d6020116110b1576110a281836114b1565b908561118e565b611454915060203d6020116110b1576110a281836114b1565b84611168565b606090600319011261062d576004356001600160a01b038116810361062d57906024359060443590565b9181601f8401121561062d578235916001600160401b03831161062d576020838186019501011161062d57565b90601f801991011681019081106001600160401b038211176114d257604052565b634e487b7160e01b5f52604160045260245ffd5b6001600160401b0381116114d25760051b60200190565b9080601f8301121561062d578135611514816114e6565b9261152260405194856114b1565b81845260208085019260051b82010192831161062d57602001905b82821061154a5750505090565b813581526020918201910161153d565b6001600160401b0381116114d257601f01601f191660200190565b1561157c57565b60405162461bcd60e51b815260206004820152600960248201526873656c662d6f6e6c7960b81b6044820152606490fd5b9081602091031261062d57516001600160a01b038116810361062d5790565b805180835260209291819084018484015e5f828201840152601f01601f1916010190565b9081602091031261062d5751801515810361062d5790565b91908203918211610f3657565b91908201809211610f3657565b604051906116316040836114b1565b600c82526b0e8c2e4cecae85accd8c2e6d60a31b6020830152565b9092608092611677959460018060a01b031683526020830152604082015281606082015201906115cc565b90565b604051630153df6760e21b81526020816004815f516020612dce5f395f51905f525afa8015610ef3575f915f91611e56575b50611e21576040516332a9bfa960e21b81526020816004815f516020612dce5f395f51905f525afa908115610ef3575f91611e02575b50611dc5576040516313a3ba8560e31b81526020816004815f516020612dce5f395f51905f525afa908115610ef3575f91611d96575b50611d475760405163c0046e3960e01b81525f60048201526020816024815f516020612dce5f395f51905f525afa908115610ef3575f91611d28575b505f8054610100600160a81b03191660089290921b610100600160a81b0316919091179081905560405163c0046e3960e01b8152600160048201526020816024815f516020612dce5f395f51905f525afa908115610ef3575f91611d09575b50600180546001600160a01b0319166001600160a01b039283169081179091559160081c166117e23082612031565b6002556117ef3083612031565b6003556118046117fe82611f86565b92611f86565b916001811180611cff575b15611cba575f198101908111610f3657806004555f198301928311610f3657600583905560405163595520c760e01b81529060a0826004815f516020612dce5f395f51905f525afa918215610ef3575f92611c7f575b5090611888936118788261188094612069565b600655612069565b600755612b11565b60015461189d906001600160a01b0316612b11565b60405163151d3aa560e31b81525f60048201526020816024815f516020612dce5f395f51905f525afa8015610ef3576118dd915f91611c60575b50612b11565b60405163151d3aa560e31b8152600160048201526020816024815f516020612dce5f395f51905f525afa8015610ef35761191d915f91611c605750612b11565b604051638334278d60e01b81525f60048201526020816024815f516020612dce5f395f51905f525afa8015610ef35761195c915f91611c605750612b11565b604051638334278d60e01b8152600160048201526020816024815f516020612dce5f395f51905f525afa8015610ef35761199c915f91611c605750612b11565b60075460025460065411611c3d575b600354811115611c33576003546119c191611608565b6302faf0808101809111610f36576008555b5f60095560085415611ba35760408051906119ee81836114b1565b60018252601f1981016020830181368237825190611a0c84836114b1565b6001825260208201923684376001546001600160a01b0316611a2d86611f26565b52600854611a3a83611f26565b52600160ff195f5416175f55835191611a5385846114b1565b601483527362616c616e6365722d6665652d66756e64696e6760601b602084015273ba12222222228d8ba445958a75a0704d566bf2c83b15611b9f5794918693918551968794632e1c224f60e11b86526084860190306004880152608060248801525180915260a486019290875b818110611b7a575050506020906003198684030160448701525191828152019290855b818110611b5e575050508282036003190160648401528291611b05916115cc565b03818373ba12222222228d8ba445958a75a0704d566bf2c85af1908115611b555750611b40575b5050611b3661228e565b60ff195f54165f55565b611b4b8280926114b1565b61022a5780611b2c565b513d84823e3d90fd5b8251855289965088955060209485019490920191600101611ae4565b82516001600160a01b031685528b98508a975060209485019490920191600101611ac1565b8680fd5b50600260ff195f5416175f5560045460055490611bbe611622565b915f516020612dce5f395f51905f523b1561062d575f91611bf460405194859384936312439b2f60e21b8552306004860161164c565b0381835f516020612dce5f395f51905f525af18015610ef357611c23575b50611c1b6120fa565b611b3661228e565b5f611c2d916114b1565b5f611c12565b505f6008556119d3565b6305f5e1008101809111156119ab57634e487b7160e01b5f52601160045260245ffd5b611c79915060203d6020116110b1576110a281836114b1565b5f6118d7565b915060a0823d60a011611cb2575b81611c9a60a093836114b1565b8101031261062d576060919091015190611888611865565b3d9150611c8d565b60405162461bcd60e51b815260206004820152601760248201527f696e73756666696369656e742d706f6f6c2d64657074680000000000000000006044820152606490fd5b506001831161180f565b611d22915060203d6020116110b1576110a281836114b1565b5f6117b3565b611d41915060203d6020116110b1576110a281836114b1565b5f611754565b60405162461bcd60e51b815260206004820152602160248201527f77686974656c6973742d73746167652d6f6e2d676f696e672d6e6f2d70726f6f6044820152603360f91b6064820152608490fd5b611db8915060203d602011611dbe575b611db081836114b1565b8101906115f0565b5f611718565b503d611da6565b60405162461bcd60e51b81526020600482015260156024820152747461726765742d656d657267656e63792d6d6f646560581b6044820152606490fd5b611e1b915060203d602011611dbe57611db081836114b1565b5f6116e2565b60405162461bcd60e51b815260206004820152600d60248201526c3a30b933b2ba16b33937bd32b760991b6044820152606490fd5b611e6f915060203d602011611dbe57611db081836114b1565b5f6116ac565b51906001600160701b038216820361062d57565b81810292918115918404141715610f3657565b9080601f8301121561062d578151611eb3816114e6565b92611ec160405194856114b1565b81845260208085019260051b82010192831161062d57602001905b828210611ee95750505090565b8151815260209182019101611edc565b91909160408184031261062d5780519260208201516001600160401b03811161062d576116779201611e9c565b805115611f335760200190565b634e487b7160e01b5f52603260045260245ffd5b805160011015611f335760400190565b3d15611f81573d90611f688261155a565b91611f7660405193846114b1565b82523d5f602084013e565b606090565b5f809160405160208101906370a0823160e01b82525f516020612dce5f395f51905f52602482015260248152611fbd6044826114b1565b51915afa611fc9611f57565b9080612025575b15611fed576020815191818082019384920101031261062d575190565b60405162461bcd60e51b815260206004820152601060248201526f18985b185b98d953d98b59985a5b195960821b6044820152606490fd5b50602081511015611fd0565b6040516370a0823160e01b602082019081526001600160a01b0390931660248083019190915281525f92839291611fbd6044826114b1565b9190670de0b6b3a764000090612080828286612973565b930961208857565b905f198110156120985760010190565b60405162461bcd60e51b81526020600482015260156024820152746d756c6469762d726f756e642d6f766572666c6f7760581b6044820152606490fd5b9060208282031261062d5781516001600160401b03811161062d576116779201611e9c565b6040516370a0823160e01b81523060048201526020816024815f516020612dce5f395f51905f525afa908115610ef3575f9161225c575b508015612228576040516332a9bfa960e21b81526020816004815f516020612dce5f395f51905f525afa908115610ef3575f91612209575b50156121ca57604051630f93b5b760e11b815260048101919091525f1960248201525f81604481835f516020612dce5f395f51905f525af18015610ef3576121af575b50565b6121ac903d805f833e6121c281836114b1565b8101906120d5565b604051630441a3e760e41b815260048101919091525f1960248201525f81604481835f516020612dce5f395f51905f525af18015610ef3576121af5750565b612222915060203d602011611dbe57611db081836114b1565b5f612169565b60405162461bcd60e51b815260206004820152600c60248201526b1b9bcb5b1c0b5b5a5b9d195960a21b6044820152606490fd5b90506020813d602011612286575b81612277602093836114b1565b8101031261062d57515f612131565b3d915061226a565b5f546122a790309060081c6001600160a01b0316612031565b6001546122be9030906001600160a01b0316612031565b906002548082115f1461237c576122d491611608565b905b60035480821115612374576122ea91611608565b808210158061236b575b15612324575060018060a01b035f5460081c166bffffffffffffffffffffffff60a01b600c541617600c55600d55565b905080156123545760018060a01b03600154166bffffffffffffffffffffffff60a01b600c541617600c55600d55565b50600c80546001600160a01b03191690555f600d55565b508115156122f4565b50505f6122ea565b50505f906122d6565b90801561244a575f91829182604051602081019263a9059cbb60e01b84525f516020612dce5f395f51905f5260248301526044820152604481526123ca6064826114b1565b51925af16123d6611f57565b8161241b575b50156123e457565b60405162461bcd60e51b815260206004820152600f60248201526e1d1c985b9cd9995c8b59985a5b1959608a1b6044820152606490fd5b8051801592508215612430575b50505f6123dc565b61244392506020809183010191016115f0565b5f80612428565b5050565b90801561244a575f91829182604051602081019263a9059cbb60e01b845273ba12222222228d8ba445958a75a0704d566bf2c860248301526044820152604481526123ca6064826114b1565b82156124e05760405163a9059cbb60e01b602082019081526001600160a01b0390931660248201526044808201949094529283525f9283929083906123ca6064826114b1565b505050565b90811561244a5780156127945766038d7ea4c6800082111561296557815b5f5460081c6001600160a01b03169161255560206125213086612031565b60015460405163e6a4390560e01b81526001600160a01b039788166004820152961660248701529491829081906044820190565b038173c0aee478e3658e2610c5f7a4a2e1777ce9e4f2ac5afa8015610ef35782915f91612946575b50856001600160a01b03821661289f575b50505f5460015460405163e6a4390560e01b81526001600160a01b0360089390931c83166004820152911660248201529050602081604481735c69bee701ef814a2b6a3edd4b1652cb9cc5aa6f5afa8015610ef35782915f91612880575b50856001600160a01b0382166127d9575b50505060405193606085018581106001600160401b038211176114d2576040526101f48552610bb8602086015261271060408601525f5b6003811015612794576001545f54600583901b880151604051630b4c774160e11b81526001600160a01b03938416600482015260089290921c909216602482015262ffffff9091166044820152602081606481731f98431c8ad98523631ae4a59f267346ea31f9845afa908115610ef357849184915f91612776575b506001600160a01b0381166126cb575b505050600101612634565b6040516313b7008d60e01b81526001600160a01b03919091166004820152602481019190915260448101919091526020816064815f305af19081612748575b50612718575b82825f6126c0565b5f5461273190309060081c6001600160a01b0316612031565b61273b8587611615565b1161271057505050505050565b6020813d821161276e575b81612760602093836114b1565b8101031261062d575161270a565b3d9150612753565b61278e915060203d81116110b1576110a281836114b1565b5f6126b0565b60405162461bcd60e51b815260206004820152601e60248201527f746f6b656e302d6665652d66756e64696e672d756e617661696c61626c6500006044820152606490fd5b604051630b79858160e31b81526001600160a01b03929092166004830152602482015260448101919091526020816064815f305af19081612851575b50612823575b805f856125fd565b5f5461283c90309060081c6001600160a01b0316612031565b6128468385611615565b1161281b5750505050565b6020813d602011612878575b8161286a602093836114b1565b8101031261062d5751612815565b3d915061285d565b612899915060203d6020116110b1576110a281836114b1565b5f6125ec565b604051630b79858160e31b81526001600160a01b03929092166004830152602482015260448101919091526020816064815f305af19081612917575b506128e9575b805f8561258e565b5f5461290290309060081c6001600160a01b0316612031565b61290c8385611615565b116128e15750505050565b6020813d60201161293e575b81612930602093836114b1565b8101031261062d57516128db565b3d9150612923565b61295f915060203d6020116110b1576110a281836114b1565b5f61257d565b66038d7ea4c6800091612503565b915f198284099282810292838086109503948086039514612ad05784831115612a9957829109811960018101809111610f36576129c390831680930494600184805f030401908584119003611e89565b9203041781600302600381048303610f36576002186129e28184611e89565b60020360028111610f36576129f691611e89565b612a008184611e89565b60020360028111610f3657612a1491611e89565b612a1e8184611e89565b60020360028111610f3657612a3291611e89565b612a3c8184611e89565b60020360028111610f3657612a5091611e89565b612a5a8184611e89565b6002039060028211610f3657612a7a91612a7391611e89565b8093611e89565b6002039160028311610f365761167792612a9391611e89565b90611e89565b60405162461bcd60e51b815260206004820152600f60248201526e6d756c6469762d6f766572666c6f7760881b6044820152606490fd5b505080925015612ade570490565b60405162461bcd60e51b815260206004820152600b60248201526a6469762d62792d7a65726f60a81b6044820152606490fd5b6001600160a01b038116156121ac575f806040516020810190636eb1769f60e11b82523060248201525f516020612dce5f395f51905f52604482015260448152612b5c6064826114b1565b5190845afa612b69611f57565b9080612d1f575b15612ce7576020815191818082019384920101031261062d57516001600160ff1b0311612b9a5750565b60405163095ea7b360e01b602082019081525f516020612dce5f395f51905f5260248301525f6044808401829052835291829190612bd96064826114b1565b519082855af1612be7611f57565b81612cb8575b5015612c535760405163095ea7b360e01b602082019081525f516020612dce5f395f51905f5260248301525f1960448084019190915282525f9283929091908390612c396064826114b1565b51925af1612c45611f57565b81612c89575b5015612c5357565b60405162461bcd60e51b815260206004820152600e60248201526d185c1c1c9bdd994b59985a5b195960921b6044820152606490fd5b8051801592508215612c9e575b50505f612c4b565b612cb192506020809183010191016115f0565b5f80612c96565b8051801592508215612ccd575b50505f612bed565b612ce092506020809183010191016115f0565b5f80612cc5565b60405162461bcd60e51b815260206004820152601060248201526f185b1b1bddd85b98d94b59985a5b195960821b6044820152606490fd5b50602081511015612b70565b91908215612dc55760405192636f2ef95b60e01b845260048401525f836024815f516020612dce5f395f51905f525afa5f9381612da7575b50612d6f575050505f90565b6002835110612da057612d8183611f26565b5111159182612d8f57505090565b612d9a919250611f47565b51111590565b5050505f90565b612dbc9194503d805f833e6108e781836114b1565b9050925f612d63565b50505060019056fe00000000000000000000000046161158b1947d9149e066d6d31af1283b2d377ca26469706673582212202fd10778a57477ca7db7d2b4d8ae61290982437b856e474198b05357bb47656764736f6c634300081e0033","linkReferences":{}},"methodIdentifiers":{"attemptV2Buy(address,uint256,uint256)":"5bcc2c08","attemptV3Buy(address,uint256,uint256)":"13b7008d","executeOnOpportunity()":"3c2448ed","flashCallback(uint256,uint256,bytes)":"c3924ed6","profitAmount()":"5ff972cc","profitToken()":"49343624","receiveFlashLoan(address[],uint256[],uint256[],bytes)":"f04f2707","uniswapV3SwapCallback(int256,int256,bytes)":"fa461e33"},"id":0}