{"abi":[{"type":"constructor","inputs":[],"stateMutability":"nonpayable"},{"type":"receive","stateMutability":"payable"},{"type":"function","name":"attackerControlsReplica","inputs":[],"outputs":[{"name":"","type":"bool","internalType":"bool"}],"stateMutability":"view"},{"type":"function","name":"attackerInitializedViaProxy","inputs":[],"outputs":[{"name":"","type":"bool","internalType":"bool"}],"stateMutability":"view"},{"type":"function","name":"beacon","inputs":[],"outputs":[{"name":"","type":"address","internalType":"address"}],"stateMutability":"view"},{"type":"function","name":"bridgeDrainSucceeded","inputs":[],"outputs":[{"name":"","type":"bool","internalType":"bool"}],"stateMutability":"view"},{"type":"function","name":"chosenRoot","inputs":[],"outputs":[{"name":"","type":"bytes32","internalType":"bytes32"}],"stateMutability":"view"},{"type":"function","name":"committedRootAfter","inputs":[],"outputs":[{"name":"","type":"bytes32","internalType":"bytes32"}],"stateMutability":"view"},{"type":"function","name":"drainedAmount","inputs":[],"outputs":[{"name":"","type":"uint256","internalType":"uint256"}],"stateMutability":"view"},{"type":"function","name":"drainedToken","inputs":[],"outputs":[{"name":"","type":"address","internalType":"address"}],"stateMutability":"view"},{"type":"function","name":"emptyInitProxyDeployed","inputs":[],"outputs":[{"name":"","type":"bool","internalType":"bool"}],"stateMutability":"view"},{"type":"function","name":"executeOnOpportunity","inputs":[],"outputs":[],"stateMutability":"nonpayable"},{"type":"function","name":"executed","inputs":[],"outputs":[{"name":"","type":"bool","internalType":"bool"}],"stateMutability":"view"},{"type":"function","name":"exploitPath","inputs":[],"outputs":[{"name":"","type":"string","internalType":"string"}],"stateMutability":"pure"},{"type":"function","name":"failureReason","inputs":[],"outputs":[{"name":"","type":"string","internalType":"string"}],"stateMutability":"view"},{"type":"function","name":"forgedMessageHash","inputs":[],"outputs":[{"name":"","type":"bytes32","internalType":"bytes32"}],"stateMutability":"view"},{"type":"function","name":"handle","inputs":[{"name":"_origin","type":"uint32","internalType":"uint32"},{"name":"_nonce","type":"uint32","internalType":"uint32"},{"name":"_sender","type":"bytes32","internalType":"bytes32"},{"name":"_message","type":"bytes","internalType":"bytes"}],"outputs":[],"stateMutability":"nonpayable"},{"type":"function","name":"handledBodyHash","inputs":[],"outputs":[{"name":"","type":"bytes32","internalType":"bytes32"}],"stateMutability":"view"},{"type":"function","name":"handledNonce","inputs":[],"outputs":[{"name":"","type":"uint32","internalType":"uint32"}],"stateMutability":"view"},{"type":"function","name":"handledOrigin","inputs":[],"outputs":[{"name":"","type":"uint32","internalType":"uint32"}],"stateMutability":"view"},{"type":"function","name":"handledSender","inputs":[],"outputs":[{"name":"","type":"bytes32","internalType":"bytes32"}],"stateMutability":"view"},{"type":"function","name":"hypothesis","inputs":[],"outputs":[{"name":"","type":"string","internalType":"string"}],"stateMutability":"view"},{"type":"function","name":"hypothesisRefuted","inputs":[],"outputs":[{"name":"","type":"bool","internalType":"bool"}],"stateMutability":"view"},{"type":"function","name":"hypothesisValidated","inputs":[],"outputs":[{"name":"","type":"bool","internalType":"bool"}],"stateMutability":"view"},{"type":"function","name":"implementation","inputs":[],"outputs":[{"name":"","type":"address","internalType":"address"}],"stateMutability":"view"},{"type":"function","name":"initCallSucceeded","inputs":[],"outputs":[{"name":"","type":"bool","internalType":"bool"}],"stateMutability":"view"},{"type":"function","name":"localDomain","inputs":[],"outputs":[{"name":"","type":"uint32","internalType":"uint32"}],"stateMutability":"view"},{"type":"function","name":"messageHandleObserved","inputs":[],"outputs":[{"name":"","type":"bool","internalType":"bool"}],"stateMutability":"view"},{"type":"function","name":"messageProcessed","inputs":[],"outputs":[{"name":"","type":"bool","internalType":"bool"}],"stateMutability":"view"},{"type":"function","name":"messageProved","inputs":[],"outputs":[{"name":"","type":"bool","internalType":"bool"}],"stateMutability":"view"},{"type":"function","name":"optimisticSecondsAfter","inputs":[],"outputs":[{"name":"","type":"uint256","internalType":"uint256"}],"stateMutability":"view"},{"type":"function","name":"ownerAfter","inputs":[],"outputs":[{"name":"","type":"address","internalType":"address"}],"stateMutability":"view"},{"type":"function","name":"ownerBefore","inputs":[],"outputs":[{"name":"","type":"address","internalType":"address"}],"stateMutability":"view"},{"type":"function","name":"path0_emptyInitProxyDeployment","inputs":[],"outputs":[{"name":"","type":"bool","internalType":"bool"}],"stateMutability":"view"},{"type":"function","name":"path1_hostileInitializeThroughProxy","inputs":[],"outputs":[{"name":"","type":"bool","internalType":"bool"}],"stateMutability":"view"},{"type":"function","name":"path2_attackerOwnsReplicaParameters","inputs":[],"outputs":[{"name":"","type":"bool","internalType":"bool"}],"stateMutability":"view"},{"type":"function","name":"path3_forgedMessageProveAndProcess","inputs":[],"outputs":[{"name":"","type":"bool","internalType":"bool"}],"stateMutability":"view"},{"type":"function","name":"profitAmount","inputs":[],"outputs":[{"name":"","type":"uint256","internalType":"uint256"}],"stateMutability":"view"},{"type":"function","name":"profitToken","inputs":[],"outputs":[{"name":"","type":"address","internalType":"address"}],"stateMutability":"view"},{"type":"function","name":"publicLiquiditySweepAttempted","inputs":[],"outputs":[{"name":"","type":"bool","internalType":"bool"}],"stateMutability":"view"},{"type":"function","name":"publicLiquiditySweepSucceeded","inputs":[],"outputs":[{"name":"","type":"bool","internalType":"bool"}],"stateMutability":"view"},{"type":"function","name":"remoteDomainAfter","inputs":[],"outputs":[{"name":"","type":"uint32","internalType":"uint32"}],"stateMutability":"view"},{"type":"function","name":"stateAfter","inputs":[],"outputs":[{"name":"","type":"uint8","internalType":"uint8"}],"stateMutability":"view"},{"type":"function","name":"stateBefore","inputs":[],"outputs":[{"name":"","type":"uint8","internalType":"uint8"}],"stateMutability":"view"},{"type":"function","name":"storedMessageRoot","inputs":[],"outputs":[{"name":"","type":"bytes32","internalType":"bytes32"}],"stateMutability":"view"},{"type":"function","name":"updaterAfter","inputs":[],"outputs":[{"name":"","type":"address","internalType":"address"}],"stateMutability":"view"},{"type":"function","name":"victimReplica","inputs":[],"outputs":[{"name":"","type":"address","internalType":"address"}],"stateMutability":"view"}],"bytecode":{"object":"0x6080604052348015600e575f5ffd5b506171138061001c5f395ff3fe608060405260043610610275575f3560e01c80636ae674171161014e578063ab2dc3f5116100c0578063cb707c6211610079578063cb707c62146108d0578063dfe1ecfd146108fa578063e0be16bd14610924578063ea1fa2e11461094e578063f098d8dc14610978578063f9109dcf146109a25761027c565b8063ab2dc3f5146107d6578063ac550a2c146107fe578063ad4e038a14610828578063c38ec7a814610852578063c775b0331461087c578063c8163cee146108a65761027c565b806386fb7fb81161011257806386fb7fb8146106da57806387fe47ec146107045780638d3638f41461072e5780639a7750be146107585780639caeed6314610782578063aa72b1e9146107ac5761027c565b80636ae674171461060857806372a047b91461063257806374fec1cc1461065c578063791c24b01461068657806380312c95146106b05761027c565b8063495f92f1116101e75780635c60da1b116101ab5780635c60da1b1461050c5780635ea5566d146105365780635ff972cc146105605780636681ba0e1461058a578063693ee331146105b4578063695e9d6c146105de5761027c565b8063495f92f11461043a5780634f9522a414610464578063541c93ac1461048e57806359659e90146104b85780635b4f431c146104e25761027c565b8063203ea4a211610239578063203ea4a21461035257806331a38c891461037c5780633c2448ed146103a6578063458f36c8146103bc578063463defd1146103e657806349343624146104105761027c565b80630a2ccadd146102805780630e3b5235146102aa5780630f5ea827146102d457806319099a8b146102fe5780631bc0f005146103285761027c565b3661027c57005b5f5ffd5b34801561028b575f5ffd5b506102946109cc565b6040516102a19190613c01565b60405180910390f35b3480156102b5575f5ffd5b506102be6109d2565b6040516102cb9190613c01565b60405180910390f35b3480156102df575f5ffd5b506102e86109d8565b6040516102f59190613c32565b60405180910390f35b348015610309575f5ffd5b506103126109de565b60405161031f9190613c65565b60405180910390f35b348015610333575f5ffd5b5061033c6109f0565b6040516103499190613c65565b60405180910390f35b34801561035d575f5ffd5b50610366610a02565b6040516103739190613c65565b60405180910390f35b348015610387575f5ffd5b50610390610a14565b60405161039d9190613c65565b60405180910390f35b3480156103b1575f5ffd5b506103ba610a25565b005b3480156103c7575f5ffd5b506103d0610aa7565b6040516103dd9190613c65565b60405180910390f35b3480156103f1575f5ffd5b506103fa610ab9565b6040516104079190613c65565b60405180910390f35b34801561041b575f5ffd5b50610424610acb565b6040516104319190613cbd565b60405180910390f35b348015610445575f5ffd5b5061044e610af3565b60405161045b9190613c65565b60405180910390f35b34801561046f575f5ffd5b50610478610b05565b6040516104859190613d46565b60405180910390f35b348015610499575f5ffd5b506104a2610b91565b6040516104af9190613cbd565b60405180910390f35b3480156104c3575f5ffd5b506104cc610bb6565b6040516104d99190613cbd565b60405180910390f35b3480156104ed575f5ffd5b506104f6610bdb565b6040516105039190613c32565b60405180910390f35b348015610517575f5ffd5b50610520610be1565b60405161052d9190613cbd565b60405180910390f35b348015610541575f5ffd5b5061054a610c06565b6040516105579190613c65565b60405180910390f35b34801561056b575f5ffd5b50610574610c18565b6040516105819190613c32565b60405180910390f35b348015610595575f5ffd5b5061059e610c21565b6040516105ab9190613cbd565b60405180910390f35b3480156105bf575f5ffd5b506105c8610c46565b6040516105d59190613c01565b60405180910390f35b3480156105e9575f5ffd5b506105f2610c4c565b6040516105ff9190613c65565b60405180910390f35b348015610613575f5ffd5b5061061c610c5e565b6040516106299190613cbd565b60405180910390f35b34801561063d575f5ffd5b50610646610c83565b6040516106539190613c65565b60405180910390f35b348015610667575f5ffd5b50610670610c95565b60405161067d9190613d84565b60405180910390f35b348015610691575f5ffd5b5061069a610caa565b6040516106a79190613c65565b60405180910390f35b3480156106bb575f5ffd5b506106c4610cbc565b6040516106d19190613c65565b60405180910390f35b3480156106e5575f5ffd5b506106ee610cce565b6040516106fb9190613c01565b60405180910390f35b34801561070f575f5ffd5b50610718610cd4565b6040516107259190613c65565b60405180910390f35b348015610739575f5ffd5b50610742610ce6565b60405161074f9190613d84565b60405180910390f35b348015610763575f5ffd5b5061076c610cfc565b6040516107799190613c01565b60405180910390f35b34801561078d575f5ffd5b50610796610d02565b6040516107a39190613db8565b60405180910390f35b3480156107b7575f5ffd5b506107c0610d15565b6040516107cd9190613d84565b60405180910390f35b3480156107e1575f5ffd5b506107fc60048036038101906107f79190613e97565b610d2b565b005b348015610809575f5ffd5b50610812610e5d565b60405161081f9190613db8565b60405180910390f35b348015610833575f5ffd5b5061083c610e70565b6040516108499190613c65565b60405180910390f35b34801561085d575f5ffd5b50610866610e82565b6040516108739190613d46565b60405180910390f35b348015610887575f5ffd5b50610890610f62565b60405161089d9190613cbd565b60405180910390f35b3480156108b1575f5ffd5b506108ba610f87565b6040516108c79190613d84565b60405180910390f35b3480156108db575f5ffd5b506108e4610f9d565b6040516108f19190613d46565b60405180910390f35b348015610905575f5ffd5b5061090e610fbe565b60405161091b9190613c65565b60405180910390f35b34801561092f575f5ffd5b50610938610fd0565b6040516109459190613c01565b60405180910390f35b348015610959575f5ffd5b50610962610fd6565b60405161096f9190613c65565b60405180910390f35b348015610983575f5ffd5b5061098c610fe8565b6040516109999190613cbd565b60405180910390f35b3480156109ad575f5ffd5b506109b661100d565b6040516109c39190613c65565b60405180910390f35b60105481565b600a5481565b60095481565b5f600b9054906101000a900460ff1681565b5f60049054906101000a900460ff1681565b5f600d9054906101000a900460ff1681565b5f5f9054906101000a900460ff1681565b5f5f9054906101000a900460ff16610aa55760015f5f6101000a81548160ff021916908315150217905550610a5861101f565b5f601354148015610a7657505f60118054610a7290613f48565b9050145b15610aa457604051806080016040528060488152602001616fa56048913960119081610aa29190614145565b505b5b565b5f600c9054906101000a900460ff1681565b5f60089054906101000a900460ff1681565b5f60125f9054906101000a900473ffffffffffffffffffffffffffffffffffffffff16905090565b5f60099054906101000a900460ff1681565b60118054610b1290613f48565b80601f0160208091040260200160405190810160405280929190818152602001828054610b3e90613f48565b8015610b895780601f10610b6057610100808354040283529160200191610b89565b820191905f5260205f20905b815481529060010190602001808311610b6c57829003601f168201915b505050505081565b60035f9054906101000a900473ffffffffffffffffffffffffffffffffffffffff1681565b60015f9054906101000a900473ffffffffffffffffffffffffffffffffffffffff1681565b60085481565b60025f9054906101000a900473ffffffffffffffffffffffffffffffffffffffff1681565b5f60079054906101000a900460ff1681565b5f601354905090565b60075f9054906101000a900473ffffffffffffffffffffffffffffffffffffffff1681565b600d5481565b5f60029054906101000a900460ff1681565b60055f9054906101000a900473ffffffffffffffffffffffffffffffffffffffff1681565b5f600a9054906101000a900460ff1681565b600f5f9054906101000a900463ffffffff1681565b5f60019054906101000a900460ff1681565b5f60059054906101000a900460ff1681565b600e5481565b5f600f9054906101000a900460ff1681565b600760169054906101000a900463ffffffff1681565b600c5481565b600760149054906101000a900460ff1681565b600f60049054906101000a900463ffffffff1681565b60035f9054906101000a900473ffffffffffffffffffffffffffffffffffffffff1673ffffffffffffffffffffffffffffffffffffffff163373ffffffffffffffffffffffffffffffffffffffff1614610dba576040517f08c379a0000000000000000000000000000000000000000000000000000000008152600401610db19061425e565b60405180910390fd5b84600f5f6101000a81548163ffffffff021916908363ffffffff16021790555083600f60046101000a81548163ffffffff021916908363ffffffff16021790555082600e819055508181604051610e129291906142b8565b604051809103902060108190555060015f60076101000a81548160ff0219169083151502179055505f600e9054906101000a900460ff16610e5657610e5561236b565b5b5050505050565b600760159054906101000a900460ff1681565b5f60069054906101000a900460ff1681565b60605f60089054906101000a900460ff1615610ed5576040518060400160405280600981526020017f76616c69646174656400000000000000000000000000000000000000000000008152509050610f5f565b5f60099054906101000a900460ff1615610f26576040518060400160405280600781526020017f72656675746564000000000000000000000000000000000000000000000000008152509050610f5f565b6040518060400160405280600a81526020017f756e7265736f6c7665640000000000000000000000000000000000000000000081525090505b90565b60065f9054906101000a900473ffffffffffffffffffffffffffffffffffffffff1681565b6007601a9054906101000a900463ffffffff1681565b606060405180610120016040528060f18152602001616fed60f19139905090565b5f60109054906101000a900460ff1681565b600b5481565b5f600e9054906101000a900460ff1681565b60045f9054906101000a900473ffffffffffffffffffffffffffffffffffffffff1681565b5f60039054906101000a900460ff1681565b60405161102b90613b7c565b604051809103905ff080158015611044573d5f5f3e3d5ffd5b5060025f6101000a81548173ffffffffffffffffffffffffffffffffffffffff021916908373ffffffffffffffffffffffffffffffffffffffff16021790555060025f9054906101000a900473ffffffffffffffffffffffffffffffffffffffff166040516110b290613b89565b6110bc9190613cbd565b604051809103905ff0801580156110d5573d5f5f3e3d5ffd5b5060015f6101000a81548173ffffffffffffffffffffffffffffffffffffffff021916908373ffffffffffffffffffffffffffffffffffffffff16021790555060015f9054906101000a900473ffffffffffffffffffffffffffffffffffffffff1660405180602001604052805f81525060405161115290613b96565b61115d929190614322565b604051809103905ff080158015611176573d5f5f3e3d5ffd5b5060035f6101000a81548173ffffffffffffffffffffffffffffffffffffffff021916908373ffffffffffffffffffffffffffffffffffffffff1602179055505f60035f9054906101000a900473ffffffffffffffffffffffffffffffffffffffff1673ffffffffffffffffffffffffffffffffffffffff163b115f60016101000a81548160ff0219169083151502179055505f60019054906101000a900460ff165f600a6101000a81548160ff0219169083151502179055506112dd60035f9054906101000a900473ffffffffffffffffffffffffffffffffffffffff166040516024016040516020818303038152906040527f8da5cb5b000000000000000000000000000000000000000000000000000000007bffffffffffffffffffffffffffffffffffffffffffffffffffffffff19166020820180517bffffffffffffffffffffffffffffffffffffffffffffffffffffffff83818316178352505050506125ea565b60045f6101000a81548173ffffffffffffffffffffffffffffffffffffffff021916908373ffffffffffffffffffffffffffffffffffffffff1602179055506113c960035f9054906101000a900473ffffffffffffffffffffffffffffffffffffffff166040516024016040516020818303038152906040527fc19d93fb000000000000000000000000000000000000000000000000000000007bffffffffffffffffffffffffffffffffffffffffffffffffffffffff19166020820180517bffffffffffffffffffffffffffffffffffffffffffffffffffffffff8381831617835250505050612687565b600760146101000a81548160ff021916908360ff16021790555061149060035f9054906101000a900473ffffffffffffffffffffffffffffffffffffffff166040516024016040516020818303038152906040527f8d3638f4000000000000000000000000000000000000000000000000000000007bffffffffffffffffffffffffffffffffffffffffffffffffffffffff19166020820180517bffffffffffffffffffffffffffffffffffffffffffffffffffffffff8381831617835250505050612724565b600760166101000a81548163ffffffff021916908363ffffffff1602179055505f7f50d567e777db96c7dce3f97765ff0c8555e140e9988f6bd09b5fb001495326f630434660016040516020016114eb95949392919061438a565b60405160208183030381529060405290505f611523636265616d61150e306127c1565b60016265746861151d306127c1565b876127e2565b90508080519060200120600c819055505f61153c61281a565b905061154b600c54825f612889565b600b8190555060035f9054906101000a900473ffffffffffffffffffffffffffffffffffffffff1673ffffffffffffffffffffffffffffffffffffffff1663e7e7a7b7636265616d30600b5460016040518563ffffffff1660e01b81526004016115b89493929190614414565b5f604051808303815f87803b1580156115cf575f5ffd5b505af19250505080156115e0575060015b6116ab576115ec614463565b806308c379a00361163e57506116006144b3565b8061160b5750611640565b60015f60096101000a81548160ff02191690831515021790555080601190816116349190614145565b5050505050612369565b505b3d805f811461166a576040519150601f19603f3d011682016040523d82523d5f602084013e61166f565b606091505b5060015f60096101000a81548160ff02191690831515021790555061169381612933565b601190816116a19190614145565b5050505050612369565b60015f60026101000a81548160ff02191690831515021790555060015f60036101000a81548160ff02191690831515021790555060015f600b6101000a81548160ff0219169083151502179055506117a660035f9054906101000a900473ffffffffffffffffffffffffffffffffffffffff166040516024016040516020818303038152906040527f8da5cb5b000000000000000000000000000000000000000000000000000000007bffffffffffffffffffffffffffffffffffffffffffffffffffffffff19166020820180517bffffffffffffffffffffffffffffffffffffffffffffffffffffffff83818316178352505050506125ea565b60055f6101000a81548173ffffffffffffffffffffffffffffffffffffffff021916908373ffffffffffffffffffffffffffffffffffffffff16021790555061189260035f9054906101000a900473ffffffffffffffffffffffffffffffffffffffff166040516024016040516020818303038152906040527fdf034cd0000000000000000000000000000000000000000000000000000000007bffffffffffffffffffffffffffffffffffffffffffffffffffffffff19166020820180517bffffffffffffffffffffffffffffffffffffffffffffffffffffffff83818316178352505050506125ea565b60065f6101000a81548173ffffffffffffffffffffffffffffffffffffffff021916908373ffffffffffffffffffffffffffffffffffffffff16021790555061197e60035f9054906101000a900473ffffffffffffffffffffffffffffffffffffffff166040516024016040516020818303038152906040527fc19d93fb000000000000000000000000000000000000000000000000000000007bffffffffffffffffffffffffffffffffffffffffffffffffffffffff19166020820180517bffffffffffffffffffffffffffffffffffffffffffffffffffffffff8381831617835250505050612687565b600760156101000a81548160ff021916908360ff160217905550611a4560035f9054906101000a900473ffffffffffffffffffffffffffffffffffffffff166040516024016040516020818303038152906040527f8d3638f4000000000000000000000000000000000000000000000000000000007bffffffffffffffffffffffffffffffffffffffffffffffffffffffff19166020820180517bffffffffffffffffffffffffffffffffffffffffffffffffffffffff8381831617835250505050612724565b600760166101000a81548163ffffffff021916908363ffffffff160217905550611b1260035f9054906101000a900473ffffffffffffffffffffffffffffffffffffffff166040516024016040516020818303038152906040527f961681dc000000000000000000000000000000000000000000000000000000007bffffffffffffffffffffffffffffffffffffffffffffffffffffffff19166020820180517bffffffffffffffffffffffffffffffffffffffffffffffffffffffff8381831617835250505050612724565b6007601a6101000a81548163ffffffff021916908363ffffffff160217905550611bdf60035f9054906101000a900473ffffffffffffffffffffffffffffffffffffffff166040516024016040516020818303038152906040527f39992668000000000000000000000000000000000000000000000000000000007bffffffffffffffffffffffffffffffffffffffffffffffffffffffff19166020820180517bffffffffffffffffffffffffffffffffffffffffffffffffffffffff8381831617835250505050612b6a565b600881905550611c9260035f9054906101000a900473ffffffffffffffffffffffffffffffffffffffff166040516024016040516020818303038152906040527f67a6771d000000000000000000000000000000000000000000000000000000007bffffffffffffffffffffffffffffffffffffffffffffffffffffffff19166020820180517bffffffffffffffffffffffffffffffffffffffffffffffffffffffff8381831617835250505050612c07565b600a819055505f60019054906101000a900460ff168015611cbe57505f60029054906101000a900460ff165b8015611d1657505f73ffffffffffffffffffffffffffffffffffffffff1660045f9054906101000a900473ffffffffffffffffffffffffffffffffffffffff1673ffffffffffffffffffffffffffffffffffffffff16145b8015611d3657505f60ff16600760149054906101000a900460ff1660ff16145b8015611d8e57503073ffffffffffffffffffffffffffffffffffffffff1660055f9054906101000a900473ffffffffffffffffffffffffffffffffffffffff1673ffffffffffffffffffffffffffffffffffffffff16145b8015611de657503073ffffffffffffffffffffffffffffffffffffffff1660065f9054906101000a900473ffffffffffffffffffffffffffffffffffffffff1673ffffffffffffffffffffffffffffffffffffffff16145b8015611e075750600160ff16600760159054906101000a900460ff1660ff16145b8015611e3357506265746863ffffffff16600760169054906101000a900463ffffffff1663ffffffff16145b8015611e605750636265616d63ffffffff166007601a9054906101000a900463ffffffff1663ffffffff16145b8015611e6f5750600b54600a54145b8015611e7d57506001600854145b5f60046101000a81548160ff0219169083151502179055505f60049054906101000a900460ff165f600c6101000a81548160ff0219169083151502179055505f60049054906101000a900460ff16611f195760015f60096101000a81548160ff0219169083151502179055506040518060600160405280603f8152602001616f66603f913960119081611f109190614145565b50505050612369565b60035f9054906101000a900473ffffffffffffffffffffffffffffffffffffffff1673ffffffffffffffffffffffffffffffffffffffff1663371d3071600c54835f6040518463ffffffff1660e01b8152600401611f7993929190614620565b6020604051808303815f875af1925050508015611fb457506040513d601f19601f82011682018060405250810190611fb19190614681565b60015b61204b57611fc0614463565b806308c379a003611ff85750611fd46144b3565b80611fdf5750611ffa565b8060119081611fee9190614145565b5050505050612369565b505b3d805f8114612024576040519150601f19603f3d011682016040523d82523d5f602084013e612029565b606091505b5061203381612933565b601190816120419190614145565b5050505050612369565b805f60056101000a81548160ff021916908315150217905550505f60059054906101000a900460ff166120c5576040518060400160405280601481526020017f70726f76652072657475726e65642066616c7365000000000000000000000000815250601190816120bc9190614145565b50505050612369565b61216760035f9054906101000a900473ffffffffffffffffffffffffffffffffffffffff16632bbd59ca60e01b600c546040516024016121059190613c01565b604051602081830303815290604052907bffffffffffffffffffffffffffffffffffffffffffffffffffffffff19166020820180517bffffffffffffffffffffffffffffffffffffffffffffffffffffffff8381831617835250505050612c07565b600d8190555060035f9054906101000a900473ffffffffffffffffffffffffffffffffffffffff1673ffffffffffffffffffffffffffffffffffffffff1663928bc4b2836040518263ffffffff1660e01b81526004016121c791906146ac565b6020604051808303815f875af192505050801561220257506040513d601f19601f820116820180604052508101906121ff9190614681565b60015b6122995761220e614463565b806308c379a00361224657506122226144b3565b8061222d5750612248565b806011908161223c9190614145565b5050505050612369565b505b3d805f8114612272576040519150601f19603f3d011682016040523d82523d5f602084013e612277565b606091505b5061228181612933565b6011908161228f9190614145565b5050505050612369565b805f60066101000a81548160ff021916908315150217905550505f60059054906101000a900460ff1680156122d957505f60069054906101000a900460ff165b80156122f057505f60079054906101000a900460ff165b5f600d6101000a81548160ff0219169083151502179055505f600d9054906101000a900460ff1661234b57604051806060016040528060378152602001616f2f60379139601190816123429190614145565b50505050612369565b60015f60086101000a81548160ff0219169083151502179055505050505b565b60015f600e6101000a81548160ff0219169083151502179055505f61238e612ca4565b90505f601067ffffffffffffffff8111156123ac576123ab613f78565b5b6040519080825280602002602001820160405280156123da5781602001602082028036833780820191505090505b5090505f5f90505b60108110156124365761240c838260108110612401576124006146cc565b5b6020020151306132ae565b82828151811061241f5761241e6146cc565b5b6020026020010181815250508060010190506123e2565b5061243f613339565b5f600190505b60108110156124e7575f612470848360108110612465576124646146cc565b5b6020020151306132ae565b9050828281518110612485576124846146cc565b5b60200260200101518111156124db576124da8483601081106124aa576124a96146cc565b5b60200201518484815181106124c2576124c16146cc565b5b6020026020010151836124d59190614726565b613375565b5b50806001019050612445565b505f5f90505b601081101561253c5761253183826010811061250c5761250b6146cc565b5b6020020151838381518110612524576125236146cc565b5b602002602001015161344c565b8060010190506124ed565b505f60135411156125e65760125f9054906101000a900473ffffffffffffffffffffffffffffffffffffffff1660075f6101000a81548173ffffffffffffffffffffffffffffffffffffffff021916908373ffffffffffffffffffffffffffffffffffffffff16021790555060135460098190555060015f600f6101000a81548160ff02191690831515021790555060015f60106101000a81548160ff0219169083151502179055505b5050565b5f5f5f8473ffffffffffffffffffffffffffffffffffffffff16846040516126129190614789565b5f60405180830381855afa9150503d805f811461264a576040519150601f19603f3d011682016040523d82523d5f602084013e61264f565b606091505b509150915081801561266357506020815110155b1561267f578080602001905181019061267c91906147da565b92505b505092915050565b5f5f5f8473ffffffffffffffffffffffffffffffffffffffff16846040516126af9190614789565b5f60405180830381855afa9150503d805f81146126e7576040519150601f19603f3d011682016040523d82523d5f602084013e6126ec565b606091505b509150915081801561270057506020815110155b1561271c5780806020019051810190612719919061482f565b92505b505092915050565b5f5f5f8473ffffffffffffffffffffffffffffffffffffffff168460405161274c9190614789565b5f60405180830381855afa9150503d805f8114612784576040519150601f19603f3d011682016040523d82523d5f602084013e612789565b606091505b509150915081801561279d57506020815110155b156127b957808060200190518101906127b6919061486e565b92505b505092915050565b5f8173ffffffffffffffffffffffffffffffffffffffff165f1b9050919050565b60608686868686866040516020016127ff969594939291906148ed565b60405160208183030381529060405290509695505050505050565b612822613ba3565b5f5f5f90505b60208110156128845781838260208110612845576128446146cc565b5b6020020181815250508182604051602001612861929190614958565b604051602081830303815290604052805190602001209150806001019050612828565b505090565b5f8390505f5f90505b602081101561292b575f8482602081106128af576128ae6146cc565b5b602002015190506001808386901c16036128f35780836040516020016128d6929190614958565b60405160208183030381529060405280519060200120925061291f565b8281604051602001612906929190614958565b6040516020818303038152906040528051906020012092505b50806001019050612892565b509392505050565b606060048251101561297c576040518060400160405280600d81526020017f63616c6c207265766572746564000000000000000000000000000000000000008152509050612b65565b5f602083015190506308c379a060e01b817bffffffffffffffffffffffffffffffffffffffffffffffffffffffff19161480156129bb57506044835110155b15612ac0575f600484516129cf9190614726565b67ffffffffffffffff8111156129e8576129e7613f78565b5b6040519080825280601f01601f191660200182016040528015612a1a5781602001600182028036833780820191505090505b5090505f600490505b8451811015612aa257848181518110612a3f57612a3e6146cc565b5b602001015160f81c60f81b82600483612a589190614726565b81518110612a6957612a686146cc565b5b60200101907effffffffffffffffffffffffffffffffffffffffffffffffffffffffffffff191690815f1a905350806001019050612a23565b5080806020019051810190612ab79190614a3f565b92505050612b65565b634e487b7160e01b817bffffffffffffffffffffffffffffffffffffffffffffffffffffffff191603612b2b576040518060400160405280600581526020017f70616e6963000000000000000000000000000000000000000000000000000000815250915050612b65565b6040518060400160405280600d81526020017f63616c6c207265766572746564000000000000000000000000000000000000008152509150505b919050565b5f5f5f8473ffffffffffffffffffffffffffffffffffffffff1684604051612b929190614789565b5f60405180830381855afa9150503d805f8114612bca576040519150601f19603f3d011682016040523d82523d5f602084013e612bcf565b606091505b5091509150818015612be357506020815110155b15612bff5780806020019051810190612bfc9190614ab0565b92505b505092915050565b5f5f5f8473ffffffffffffffffffffffffffffffffffffffff1684604051612c2f9190614789565b5f60405180830381855afa9150503d805f8114612c67576040519150601f19603f3d011682016040523d82523d5f602084013e612c6c565b606091505b5091509150818015612c8057506020815110155b15612c9c5780806020019051810190612c999190614aef565b92505b505092915050565b612cac613bc6565b73c02aaa39b223fe8d0a0e5c4f27ead9083c756cc2815f60108110612cd457612cd36146cc565b5b602002019073ffffffffffffffffffffffffffffffffffffffff16908173ffffffffffffffffffffffffffffffffffffffff1681525050736b175474e89094c44da98b954eedeac495271d0f81600160108110612d3457612d336146cc565b5b602002019073ffffffffffffffffffffffffffffffffffffffff16908173ffffffffffffffffffffffffffffffffffffffff168152505073853d955acef822db058eb8505911ed77f175b99e81600260108110612d9457612d936146cc565b5b602002019073ffffffffffffffffffffffffffffffffffffffff16908173ffffffffffffffffffffffffffffffffffffffff168152505073a0b86991c6218b36c1d19d4a2e9eb0ce3606eb4881600360108110612df457612df36146cc565b5b602002019073ffffffffffffffffffffffffffffffffffffffff16908173ffffffffffffffffffffffffffffffffffffffff168152505073dac17f958d2ee523a2206206994597c13d831ec781600460108110612e5457612e536146cc565b5b602002019073ffffffffffffffffffffffffffffffffffffffff16908173ffffffffffffffffffffffffffffffffffffffff1681525050732260fac5e5542a773aa44fbcfedf7c193bc2c59981600560108110612eb457612eb36146cc565b5b602002019073ffffffffffffffffffffffffffffffffffffffff16908173ffffffffffffffffffffffffffffffffffffffff1681525050731f9840a85d5af5bf1d1762f925bdaddc4201f98481600660108110612f1457612f136146cc565b5b602002019073ffffffffffffffffffffffffffffffffffffffff16908173ffffffffffffffffffffffffffffffffffffffff168152505073514910771af9ca656af840dff83e8264ecf986ca81600760108110612f7457612f736146cc565b5b602002019073ffffffffffffffffffffffffffffffffffffffff16908173ffffffffffffffffffffffffffffffffffffffff1681525050737fc66500c84a76ad7e9c93437bfc5ac33e2ddae981600860108110612fd457612fd36146cc565b5b602002019073ffffffffffffffffffffffffffffffffffffffff16908173ffffffffffffffffffffffffffffffffffffffff168152505073d533a949740bb3306d119cc777fa900ba034cd5281600960108110613034576130336146cc565b5b602002019073ffffffffffffffffffffffffffffffffffffffff16908173ffffffffffffffffffffffffffffffffffffffff1681525050736b3595068778dd592e39a122f4f5a5cf09c90fe281600a60108110613094576130936146cc565b5b602002019073ffffffffffffffffffffffffffffffffffffffff16908173ffffffffffffffffffffffffffffffffffffffff168152505073c00e94cb662c3520282e6f5717214004a7f2688881600b601081106130f4576130f36146cc565b5b602002019073ffffffffffffffffffffffffffffffffffffffff16908173ffffffffffffffffffffffffffffffffffffffff1681525050739f8f72aa9304c8b593d555f12ef6589cc3a579a281600c60108110613154576131536146cc565b5b602002019073ffffffffffffffffffffffffffffffffffffffff16908173ffffffffffffffffffffffffffffffffffffffff168152505073c011a72400e58ecd99ee497cf89e3775d4bd732f81600d601081106131b4576131b36146cc565b5b602002019073ffffffffffffffffffffffffffffffffffffffff16908173ffffffffffffffffffffffffffffffffffffffff1681525050735a98fcbea516cf06857215779fd812ca3bef1b3281600e60108110613214576132136146cc565b5b602002019073ffffffffffffffffffffffffffffffffffffffff16908173ffffffffffffffffffffffffffffffffffffffff168152505073956f47f50a910163d8bf957cf5846d573e7f87ca81600f60108110613274576132736146cc565b5b602002019073ffffffffffffffffffffffffffffffffffffffff16908173ffffffffffffffffffffffffffffffffffffffff168152505090565b5f8273ffffffffffffffffffffffffffffffffffffffff166370a08231836040518263ffffffff1660e01b81526004016132e89190613cbd565b602060405180830381865afa92505050801561332257506040513d601f19601f8201168201806040525081019061331f9190614ab0565b60015b61332e575f9050613333565b809150505b92915050565b613356735c69bee701ef814a2b6a3edd4b1652cb9cc5aa6f61356f565b61337373c0aee478e3658e2610c5f7a4a2e1777ce9e4f2ac61356f565b565b73c02aaa39b223fe8d0a0e5c4f27ead9083c756cc273ffffffffffffffffffffffffffffffffffffffff168273ffffffffffffffffffffffffffffffffffffffff1614806133c257505f81145b613448576133e582737a250d5630b4cf539739df2c5dacb4c659f2488d83613767565b613404737a250d5630b4cf539739df2c5dacb4c659f2488d8383613866565b613448576134278273d9e1ce17f2641f24ae83637ab66a2cca9c378b9f83613767565b61344673d9e1ce17f2641f24ae83637ab66a2cca9c378b9f8383613866565b505b5050565b5f61345783306132ae565b9050818111613466575061356b565b5f82826134739190614726565b90505f73ffffffffffffffffffffffffffffffffffffffff1660125f9054906101000a900473ffffffffffffffffffffffffffffffffffffffff1673ffffffffffffffffffffffffffffffffffffffff16148061350f575073c02aaa39b223fe8d0a0e5c4f27ead9083c756cc273ffffffffffffffffffffffffffffffffffffffff168473ffffffffffffffffffffffffffffffffffffffff16145b8061351b575060135481115b15613568578360125f6101000a81548173ffffffffffffffffffffffffffffffffffffffff021916908373ffffffffffffffffffffffffffffffffffffffff160217905550806013819055505b50505b5050565b5f613578612ca4565b90505f600190505b60108110156135ca576135bf8373c02aaa39b223fe8d0a0e5c4f27ead9083c756cc28484601081106135b5576135b46146cc565b5b6020020151613a00565b806001019050613580565b506135fe82736b175474e89094c44da98b954eedeac495271d0f73853d955acef822db058eb8505911ed77f175b99e613a00565b61363182736b175474e89094c44da98b954eedeac495271d0f73a0b86991c6218b36c1d19d4a2e9eb0ce3606eb48613a00565b61366482736b175474e89094c44da98b954eedeac495271d0f73dac17f958d2ee523a2206206994597c13d831ec7613a00565b6136978273853d955acef822db058eb8505911ed77f175b99e73a0b86991c6218b36c1d19d4a2e9eb0ce3606eb48613a00565b6136ca8273853d955acef822db058eb8505911ed77f175b99e73dac17f958d2ee523a2206206994597c13d831ec7613a00565b6136fd8273a0b86991c6218b36c1d19d4a2e9eb0ce3606eb4873dac17f958d2ee523a2206206994597c13d831ec7613a00565b61373082732260fac5e5542a773aa44fbcfedf7c193bc2c59973a0b86991c6218b36c1d19d4a2e9eb0ce3606eb48613a00565b61376382732260fac5e5542a773aa44fbcfedf7c193bc2c599736b175474e89094c44da98b954eedeac495271d0f613a00565b5050565b8273ffffffffffffffffffffffffffffffffffffffff1663095ea7b3835f6040518363ffffffff1660e01b81526004016137a2929190614b1a565b6020604051808303815f875af19250505080156137dd57506040513d601f19601f820116820180604052508101906137da9190614681565b60015b156137e457505b8273ffffffffffffffffffffffffffffffffffffffff1663095ea7b383836040518363ffffffff1660e01b815260040161381f929190614b41565b6020604051808303815f875af192505050801561385a57506040513d601f19601f820116820180604052508101906138579190614681565b60015b1561386157505b505050565b5f5f600267ffffffffffffffff81111561388357613882613f78565b5b6040519080825280602002602001820160405280156138b15781602001602082028036833780820191505090505b50905083815f815181106138c8576138c76146cc565b5b602002602001019073ffffffffffffffffffffffffffffffffffffffff16908173ffffffffffffffffffffffffffffffffffffffff168152505073c02aaa39b223fe8d0a0e5c4f27ead9083c756cc28160018151811061392b5761392a6146cc565b5b602002602001019073ffffffffffffffffffffffffffffffffffffffff16908173ffffffffffffffffffffffffffffffffffffffff16815250508473ffffffffffffffffffffffffffffffffffffffff166338ed17398460018430426040518663ffffffff1660e01b81526004016139a7959493929190614c1f565b5f604051808303815f875af19250505080156139e557506040513d5f823e3d601f19601f820116820180604052508101906139e29190614d37565b60015b6139f2575f9150506139f9565b6001925050505b9392505050565b8073ffffffffffffffffffffffffffffffffffffffff168273ffffffffffffffffffffffffffffffffffffffff160315613b77575f8373ffffffffffffffffffffffffffffffffffffffff1663e6a4390584846040518363ffffffff1660e01b8152600401613a70929190614d7e565b602060405180830381865afa925050508015613aaa57506040513d601f19601f82011682018060405250810190613aa79190614dcf565b60015b613ab45750613b77565b809150505f73ffffffffffffffffffffffffffffffffffffffff168173ffffffffffffffffffffffffffffffffffffffff161480613b0857505f8173ffffffffffffffffffffffffffffffffffffffff163b145b15613b135750613b77565b8073ffffffffffffffffffffffffffffffffffffffff1663bc25cf77306040518263ffffffff1660e01b8152600401613b4c9190613cbd565b5f604051808303815f87803b158015613b63575f5ffd5b505af1925050508015613b74575060015b50505b505050565b61156f80614dfb83390190565b6102288061636a83390190565b61099d8061659283390190565b604051806104000160405280602090602082028036833780820191505090505090565b604051806102000160405280601090602082028036833780820191505090505090565b5f819050919050565b613bfb81613be9565b82525050565b5f602082019050613c145f830184613bf2565b92915050565b5f819050919050565b613c2c81613c1a565b82525050565b5f602082019050613c455f830184613c23565b92915050565b5f8115159050919050565b613c5f81613c4b565b82525050565b5f602082019050613c785f830184613c56565b92915050565b5f73ffffffffffffffffffffffffffffffffffffffff82169050919050565b5f613ca782613c7e565b9050919050565b613cb781613c9d565b82525050565b5f602082019050613cd05f830184613cae565b92915050565b5f81519050919050565b5f82825260208201905092915050565b8281835e5f83830152505050565b5f601f19601f8301169050919050565b5f613d1882613cd6565b613d228185613ce0565b9350613d32818560208601613cf0565b613d3b81613cfe565b840191505092915050565b5f6020820190508181035f830152613d5e8184613d0e565b905092915050565b5f63ffffffff82169050919050565b613d7e81613d66565b82525050565b5f602082019050613d975f830184613d75565b92915050565b5f60ff82169050919050565b613db281613d9d565b82525050565b5f602082019050613dcb5f830184613da9565b92915050565b5f604051905090565b5f5ffd5b5f5ffd5b613deb81613d66565b8114613df5575f5ffd5b50565b5f81359050613e0681613de2565b92915050565b613e1581613be9565b8114613e1f575f5ffd5b50565b5f81359050613e3081613e0c565b92915050565b5f5ffd5b5f5ffd5b5f5ffd5b5f5f83601f840112613e5757613e56613e36565b5b8235905067ffffffffffffffff811115613e7457613e73613e3a565b5b602083019150836001820283011115613e9057613e8f613e3e565b5b9250929050565b5f5f5f5f5f60808688031215613eb057613eaf613dda565b5b5f613ebd88828901613df8565b9550506020613ece88828901613df8565b9450506040613edf88828901613e22565b935050606086013567ffffffffffffffff811115613f0057613eff613dde565b5b613f0c88828901613e42565b92509250509295509295909350565b7f4e487b71000000000000000000000000000000000000000000000000000000005f52602260045260245ffd5b5f6002820490506001821680613f5f57607f821691505b602082108103613f7257613f71613f1b565b5b50919050565b7f4e487b71000000000000000000000000000000000000000000000000000000005f52604160045260245ffd5b5f819050815f5260205f209050919050565b5f6020601f8301049050919050565b5f82821b905092915050565b5f600883026140017fffffffffffffffffffffffffffffffffffffffffffffffffffffffffffffffff82613fc6565b61400b8683613fc6565b95508019841693508086168417925050509392505050565b5f819050919050565b5f61404661404161403c84613c1a565b614023565b613c1a565b9050919050565b5f819050919050565b61405f8361402c565b61407361406b8261404d565b848454613fd2565b825550505050565b5f5f905090565b61408a61407b565b614095818484614056565b505050565b5b818110156140b8576140ad5f82614082565b60018101905061409b565b5050565b601f8211156140fd576140ce81613fa5565b6140d784613fb7565b810160208510156140e6578190505b6140fa6140f285613fb7565b83018261409a565b50505b505050565b5f82821c905092915050565b5f61411d5f1984600802614102565b1980831691505092915050565b5f614135838361410e565b9150826002028217905092915050565b61414e82613cd6565b67ffffffffffffffff81111561416757614166613f78565b5b6141718254613f48565b61417c8282856140bc565b5f60209050601f8311600181146141ad575f841561419b578287015190505b6141a5858261412a565b86555061420c565b601f1984166141bb86613fa5565b5f5b828110156141e2578489015182556001820191506020850194506020810190506141bd565b868310156141ff57848901516141fb601f89168261410e565b8355505b6001600288020188555050505b505050505050565b7f6f6e6c792068696a61636b6564207265706c69636100000000000000000000005f82015250565b5f614248601583613ce0565b915061425382614214565b602082019050919050565b5f6020820190508181035f8301526142758161423c565b9050919050565b5f81905092915050565b828183375f83830152505050565b5f61429f838561427c565b93506142ac838584614286565b82840190509392505050565b5f6142c4828486614294565b91508190509392505050565b5f81519050919050565b5f82825260208201905092915050565b5f6142f4826142d0565b6142fe81856142da565b935061430e818560208601613cf0565b61431781613cfe565b840191505092915050565b5f6040820190506143355f830185613cae565b818103602083015261434781846142ea565b90509392505050565b5f7fffffffff0000000000000000000000000000000000000000000000000000000082169050919050565b61438481614350565b82525050565b5f60a08201905061439d5f83018861437b565b6143aa6020830187613cae565b6143b76040830186613c23565b6143c46060830185613c23565b6143d16080830184613da9565b9695505050505050565b5f819050919050565b5f6143fe6143f96143f4846143db565b614023565b613c1a565b9050919050565b61440e816143e4565b82525050565b5f6080820190506144275f830187613d75565b6144346020830186613cae565b6144416040830185613bf2565b61444e6060830184614405565b95945050505050565b5f8160e01c9050919050565b5f60033d111561447f5760045f5f3e61447c5f51614457565b90505b90565b61448b82613cfe565b810181811067ffffffffffffffff821117156144aa576144a9613f78565b5b80604052505050565b5f60443d1061453f576144c4613dd1565b60043d036004823e80513d602482011167ffffffffffffffff821117156144ec57505061453f565b808201805167ffffffffffffffff81111561450a575050505061453f565b80602083010160043d03850181111561452757505050505061453f565b61453682602001850186614482565b82955050505050505b90565b5f60209050919050565b5f81905092915050565b5f819050919050565b61456881613be9565b82525050565b5f614579838361455f565b60208301905092915050565b5f602082019050919050565b61459a81614542565b6145a4818461454c565b92506145af82614556565b805f5b838110156145df5781516145c6878261456e565b96506145d183614585565b9250506001810190506145b2565b505050505050565b5f819050919050565b5f61460a614605614600846145e7565b614023565b613c1a565b9050919050565b61461a816145f0565b82525050565b5f610440820190506146345f830186613bf2565b6146416020830185614591565b61464f610420830184614611565b949350505050565b61466081613c4b565b811461466a575f5ffd5b50565b5f8151905061467b81614657565b92915050565b5f6020828403121561469657614695613dda565b5b5f6146a38482850161466d565b91505092915050565b5f6020820190508181035f8301526146c481846142ea565b905092915050565b7f4e487b71000000000000000000000000000000000000000000000000000000005f52603260045260245ffd5b7f4e487b71000000000000000000000000000000000000000000000000000000005f52601160045260245ffd5b5f61473082613c1a565b915061473b83613c1a565b9250828203905081811115614753576147526146f9565b5b92915050565b5f614763826142d0565b61476d818561427c565b935061477d818560208601613cf0565b80840191505092915050565b5f6147948284614759565b915081905092915050565b5f6147a982613c7e565b9050919050565b6147b98161479f565b81146147c3575f5ffd5b50565b5f815190506147d4816147b0565b92915050565b5f602082840312156147ef576147ee613dda565b5b5f6147fc848285016147c6565b91505092915050565b61480e81613d9d565b8114614818575f5ffd5b50565b5f8151905061482981614805565b92915050565b5f6020828403121561484457614843613dda565b5b5f6148518482850161481b565b91505092915050565b5f8151905061486881613de2565b92915050565b5f6020828403121561488357614882613dda565b5b5f6148908482850161485a565b91505092915050565b5f8160e01b9050919050565b5f6148af82614899565b9050919050565b6148c76148c282613d66565b6148a5565b82525050565b5f819050919050565b6148e76148e282613be9565b6148cd565b82525050565b5f6148f882896148b6565b60048201915061490882886148d6565b60208201915061491882876148b6565b60048201915061492882866148b6565b60048201915061493882856148d6565b6020820191506149488284614759565b9150819050979650505050505050565b5f61496382856148d6565b60208201915061497382846148d6565b6020820191508190509392505050565b5f5ffd5b5f614990613dd1565b905061499c8282614482565b919050565b5f67ffffffffffffffff8211156149bb576149ba613f78565b5b6149c482613cfe565b9050602081019050919050565b5f6149e36149de846149a1565b614987565b9050828152602081018484840111156149ff576149fe614983565b5b614a0a848285613cf0565b509392505050565b5f82601f830112614a2657614a25613e36565b5b8151614a368482602086016149d1565b91505092915050565b5f60208284031215614a5457614a53613dda565b5b5f82015167ffffffffffffffff811115614a7157614a70613dde565b5b614a7d84828501614a12565b91505092915050565b614a8f81613c1a565b8114614a99575f5ffd5b50565b5f81519050614aaa81614a86565b92915050565b5f60208284031215614ac557614ac4613dda565b5b5f614ad284828501614a9c565b91505092915050565b5f81519050614ae981613e0c565b92915050565b5f60208284031215614b0457614b03613dda565b5b5f614b1184828501614adb565b91505092915050565b5f604082019050614b2d5f830185613cae565b614b3a6020830184614611565b9392505050565b5f604082019050614b545f830185613cae565b614b616020830184613c23565b9392505050565b5f81519050919050565b5f82825260208201905092915050565b5f819050602082019050919050565b614b9a81613c9d565b82525050565b5f614bab8383614b91565b60208301905092915050565b5f602082019050919050565b5f614bcd82614b68565b614bd78185614b72565b9350614be283614b82565b805f5b83811015614c12578151614bf98882614ba0565b9750614c0483614bb7565b925050600181019050614be5565b5085935050505092915050565b5f60a082019050614c325f830188613c23565b614c3f6020830187614405565b8181036040830152614c518186614bc3565b9050614c606060830185613cae565b614c6d6080830184613c23565b9695505050505050565b5f67ffffffffffffffff821115614c9157614c90613f78565b5b602082029050602081019050919050565b5f614cb4614caf84614c77565b614987565b90508083825260208201905060208402830185811115614cd757614cd6613e3e565b5b835b81811015614d005780614cec8882614a9c565b845260208401935050602081019050614cd9565b5050509392505050565b5f82601f830112614d1e57614d1d613e36565b5b8151614d2e848260208601614ca2565b91505092915050565b5f60208284031215614d4c57614d4b613dda565b5b5f82015167ffffffffffffffff811115614d6957614d68613dde565b5b614d7584828501614d0a565b91505092915050565b5f604082019050614d915f830185613cae565b614d9e6020830184613cae565b9392505050565b614dae81613c9d565b8114614db8575f5ffd5b50565b5f81519050614dc981614da5565b92915050565b5f60208284031215614de457614de3613dda565b5b5f614df184828501614dbb565b9150509291505056fe6080604052348015600e575f5ffd5b506115538061001c5f395ff3fe608060405234801561000f575f5ffd5b50600436106100cd575f3560e01c80638da5cb5b1161008a578063c19d93fb11610064578063c19d93fb14610215578063c1f0808a14610233578063df034cd014610263578063e7e7a7b714610281576100cd565b80638da5cb5b146101a9578063928bc4b2146101c7578063961681dc146101f7576100cd565b8063158ef93e146100d15780632bbd59ca146100ef578063371d30711461011f578063399926681461014f57806367a6771d1461016d5780638d3638f41461018b575b5f5ffd5b6100d961029d565b6040516100e69190610b05565b60405180910390f35b61010960048036038101906101049190610b59565b6102af565b6040516101169190610b93565b60405180910390f35b61013960048036038101906101349190610c03565b6102c4565b6040516101469190610b05565b60405180910390f35b6101576103df565b6040516101649190610c64565b60405180910390f35b6101756103e5565b6040516101829190610b93565b60405180910390f35b6101936103eb565b6040516101a09190610c9b565b60405180910390f35b6101b1610401565b6040516101be9190610cf3565b60405180910390f35b6101e160048036038101906101dc9190610d69565b610425565b6040516101ee9190610b05565b60405180910390f35b6101ff61071e565b60405161020c9190610c9b565b60405180910390f35b61021d610734565b60405161022a9190610dcf565b60405180910390f35b61024d60048036038101906102489190610b59565b610747565b60405161025a9190610b05565b60405180910390f35b61026b610764565b6040516102789190610cf3565b60405180910390f35b61029b60048036038101906102969190610e3c565b610789565b005b60045f9054906101000a900460ff1681565b6005602052805f5260405f205f915090505481565b5f60045f9054906101000a900460ff16610313576040517f08c379a000000000000000000000000000000000000000000000000000000000815260040161030a90610efa565b60405180910390fd5b600160ff16600160149054906101000a900460ff1660ff161461036b576040517f08c379a000000000000000000000000000000000000000000000000000000000815260040161036290610f62565b60405180910390fd5b5f6103778585856108e5565b905060025481146103bd576040517f08c379a00000000000000000000000000000000000000000000000000000000081526004016103b490610fca565b60405180910390fd5b8060055f8781526020019081526020015f208190555060019150509392505050565b60035481565b60025481565b600160159054906101000a900463ffffffff1681565b5f5f9054906101000a900473ffffffffffffffffffffffffffffffffffffffff1681565b5f60045f9054906101000a900460ff16610474576040517f08c379a000000000000000000000000000000000000000000000000000000000815260040161046b90610efa565b60405180910390fd5b600160ff16600160149054906101000a900460ff1660ff16146104cc576040517f08c379a00000000000000000000000000000000000000000000000000000000081526004016104c390610f62565b60405180910390fd5b5f5f5f5f5f5f6104dc898961098f565b955095509550955095509550600160199054906101000a900463ffffffff1663ffffffff168663ffffffff1614610548576040517f08c379a000000000000000000000000000000000000000000000000000000000815260040161053f90611032565b60405180910390fd5b600160159054906101000a900463ffffffff1663ffffffff168363ffffffff16146105a8576040517f08c379a000000000000000000000000000000000000000000000000000000000815260040161059f9061109a565b60405180910390fd5b5f89896040516105b99291906110f4565b6040518091039020905060025460055f8381526020019081526020015f205414610618576040517f08c379a000000000000000000000000000000000000000000000000000000000815260040161060f90611156565b60405180910390fd5b60065f8281526020019081526020015f205f9054906101000a900460ff1615610676576040517f08c379a000000000000000000000000000000000000000000000000000000000815260040161066d906111be565b60405180910390fd5b600160065f8381526020019081526020015f205f6101000a81548160ff021916908315150217905550825f1c73ffffffffffffffffffffffffffffffffffffffff1663ab2dc3f5888789866040518563ffffffff1660e01b81526004016106e0949392919061124c565b5f604051808303815f87803b1580156106f7575f5ffd5b505af1158015610709573d5f5f3e3d5ffd5b50505050600197505050505050505092915050565b600160199054906101000a900463ffffffff1681565b600160149054906101000a900460ff1681565b6006602052805f5260405f205f915054906101000a900460ff1681565b60015f9054906101000a900473ffffffffffffffffffffffffffffffffffffffff1681565b60045f9054906101000a900460ff16156107d8576040517f08c379a00000000000000000000000000000000000000000000000000000000081526004016107cf906112e0565b60405180910390fd5b600160045f6101000a81548160ff021916908315150217905550335f5f6101000a81548173ffffffffffffffffffffffffffffffffffffffff021916908373ffffffffffffffffffffffffffffffffffffffff1602179055508260015f6101000a81548173ffffffffffffffffffffffffffffffffffffffff021916908373ffffffffffffffffffffffffffffffffffffffff16021790555060018060146101000a81548160ff021916908360ff16021790555062657468600160156101000a81548163ffffffff021916908363ffffffff16021790555083600160196101000a81548163ffffffff021916908363ffffffff160217905550816002819055508060038190555050505050565b5f8390505f5f90505b6020811015610987575f84826020811061090b5761090a6112fe565b5b602002013590506001808386901c160361094f57808360405160200161093292919061134b565b60405160208183030381529060405280519060200120925061097b565b828160405160200161096292919061134b565b6040516020818303038152906040528051906020012092505b508060010190506108ee565b509392505050565b5f5f5f5f5f6060604c8888905010156109dd576040517f08c379a00000000000000000000000000000000000000000000000000000000081526004016109d4906113c0565b60405180910390fd5b87875f906004926109f0939291906113e6565b906109fb9190611461565b60e01c95508787600490602492610a14939291906113e6565b90610a1f91906114bf565b94508787602490602892610a35939291906113e6565b90610a409190611461565b60e01c93508787602890602c92610a59939291906113e6565b90610a649190611461565b60e01c92508787602c90604c92610a7d939291906113e6565b90610a8891906114bf565b91508787604c908092610a9d939291906113e6565b8080601f0160208091040260200160405190810160405280939291908181526020018383808284375f81840152601f19601f8201169050808301925050505050505090509295509295509295565b5f8115159050919050565b610aff81610aeb565b82525050565b5f602082019050610b185f830184610af6565b92915050565b5f5ffd5b5f5ffd5b5f819050919050565b610b3881610b26565b8114610b42575f5ffd5b50565b5f81359050610b5381610b2f565b92915050565b5f60208284031215610b6e57610b6d610b1e565b5b5f610b7b84828501610b45565b91505092915050565b610b8d81610b26565b82525050565b5f602082019050610ba65f830184610b84565b92915050565b5f5ffd5b5f819050826020800282011115610bca57610bc9610bac565b5b92915050565b5f819050919050565b610be281610bd0565b8114610bec575f5ffd5b50565b5f81359050610bfd81610bd9565b92915050565b5f5f5f6104408486031215610c1b57610c1a610b1e565b5b5f610c2886828701610b45565b9350506020610c3986828701610bb0565b925050610420610c4b86828701610bef565b9150509250925092565b610c5e81610bd0565b82525050565b5f602082019050610c775f830184610c55565b92915050565b5f63ffffffff82169050919050565b610c9581610c7d565b82525050565b5f602082019050610cae5f830184610c8c565b92915050565b5f73ffffffffffffffffffffffffffffffffffffffff82169050919050565b5f610cdd82610cb4565b9050919050565b610ced81610cd3565b82525050565b5f602082019050610d065f830184610ce4565b92915050565b5f5ffd5b5f5ffd5b5f5f83601f840112610d2957610d28610d0c565b5b8235905067ffffffffffffffff811115610d4657610d45610d10565b5b602083019150836001820283011115610d6257610d61610bac565b5b9250929050565b5f5f60208385031215610d7f57610d7e610b1e565b5b5f83013567ffffffffffffffff811115610d9c57610d9b610b22565b5b610da885828601610d14565b92509250509250929050565b5f60ff82169050919050565b610dc981610db4565b82525050565b5f602082019050610de25f830184610dc0565b92915050565b610df181610c7d565b8114610dfb575f5ffd5b50565b5f81359050610e0c81610de8565b92915050565b610e1b81610cd3565b8114610e25575f5ffd5b50565b5f81359050610e3681610e12565b92915050565b5f5f5f5f60808587031215610e5457610e53610b1e565b5b5f610e6187828801610dfe565b9450506020610e7287828801610e28565b9350506040610e8387828801610b45565b9250506060610e9487828801610bef565b91505092959194509250565b5f82825260208201905092915050565b7f6e6f7420696e697469616c697a656400000000000000000000000000000000005f82015250565b5f610ee4600f83610ea0565b9150610eef82610eb0565b602082019050919050565b5f6020820190508181035f830152610f1181610ed8565b9050919050565b7f6e6f7420616374697665000000000000000000000000000000000000000000005f82015250565b5f610f4c600a83610ea0565b9150610f5782610f18565b602082019050919050565b5f6020820190508181035f830152610f7981610f40565b9050919050565b7f2170726f6f6600000000000000000000000000000000000000000000000000005f82015250565b5f610fb4600683610ea0565b9150610fbf82610f80565b602082019050919050565b5f6020820190508181035f830152610fe181610fa8565b9050919050565b7f2172656d6f7465000000000000000000000000000000000000000000000000005f82015250565b5f61101c600783610ea0565b915061102782610fe8565b602082019050919050565b5f6020820190508181035f83015261104981611010565b9050919050565b7f2164657374696e6174696f6e00000000000000000000000000000000000000005f82015250565b5f611084600c83610ea0565b915061108f82611050565b602082019050919050565b5f6020820190508181035f8301526110b181611078565b9050919050565b5f81905092915050565b828183375f83830152505050565b5f6110db83856110b8565b93506110e88385846110c2565b82840190509392505050565b5f6111008284866110d0565b91508190509392505050565b7f2170726f76656e000000000000000000000000000000000000000000000000005f82015250565b5f611140600783610ea0565b915061114b8261110c565b602082019050919050565b5f6020820190508181035f83015261116d81611134565b9050919050565b7f616c72656164792070726f6365737365640000000000000000000000000000005f82015250565b5f6111a8601183610ea0565b91506111b382611174565b602082019050919050565b5f6020820190508181035f8301526111d58161119c565b9050919050565b5f81519050919050565b5f82825260208201905092915050565b8281835e5f83830152505050565b5f601f19601f8301169050919050565b5f61121e826111dc565b61122881856111e6565b93506112388185602086016111f6565b61124181611204565b840191505092915050565b5f60808201905061125f5f830187610c8c565b61126c6020830186610c8c565b6112796040830185610b84565b818103606083015261128b8184611214565b905095945050505050565b7f616c726561647920696e697469616c697a6564000000000000000000000000005f82015250565b5f6112ca601383610ea0565b91506112d582611296565b602082019050919050565b5f6020820190508181035f8301526112f7816112be565b9050919050565b7f4e487b71000000000000000000000000000000000000000000000000000000005f52603260045260245ffd5b5f819050919050565b61134561134082610b26565b61132b565b82525050565b5f6113568285611334565b6020820191506113668284611334565b6020820191508190509392505050565b7f6d65737361676520746f6f2073686f72740000000000000000000000000000005f82015250565b5f6113aa601183610ea0565b91506113b582611376565b602082019050919050565b5f6020820190508181035f8301526113d78161139e565b9050919050565b5f5ffd5b5f5ffd5b5f5f858511156113f9576113f86113de565b5b8386111561140a576114096113e2565b5b6001850283019150848603905094509492505050565b5f82905092915050565b5f7fffffffff0000000000000000000000000000000000000000000000000000000082169050919050565b5f82821b905092915050565b5f61146c8383611420565b82611477813561142a565b925060048210156114b7576114b27fffffffff0000000000000000000000000000000000000000000000000000000083600403600802611455565b831692505b505092915050565b5f6114ca8383611420565b826114d58135610b26565b92506020821015611515576115107fffffffffffffffffffffffffffffffffffffffffffffffffffffffffffffffff83602003600802611455565b831692505b50509291505056fea26469706673582212207b32fad38f0bbae2e66fc220f5b2bfbb257230cfc533ebe93e13110a7c14473b64736f6c634300081e0033608060405234801561000f575f5ffd5b50604051610228380380610228833981810160405281019061003191906100d4565b805f5f6101000a81548173ffffffffffffffffffffffffffffffffffffffff021916908373ffffffffffffffffffffffffffffffffffffffff160217905550506100ff565b5f5ffd5b5f73ffffffffffffffffffffffffffffffffffffffff82169050919050565b5f6100a38261007a565b9050919050565b6100b381610099565b81146100bd575f5ffd5b50565b5f815190506100ce816100aa565b92915050565b5f602082840312156100e9576100e8610076565b5b5f6100f6848285016100c0565b91505092915050565b61011c8061010c5f395ff3fe608060405260043610601e575f3560e01c80635c60da1b14604b57601f565b5b5f5f5f9054906101000a900473ffffffffffffffffffffffffffffffffffffffff169050805f5260205ff35b3480156055575f5ffd5b50605c6070565b6040516067919060cf565b60405180910390f35b5f5f9054906101000a900473ffffffffffffffffffffffffffffffffffffffff1681565b5f73ffffffffffffffffffffffffffffffffffffffff82169050919050565b5f60bb826094565b9050919050565b60c98160b3565b82525050565b5f60208201905060e05f83018460c2565b9291505056fea2646970667358221220d7f9ff90317609e6178518e6c44ebb814e71fb7a402e527d007bfb3913b3e9e764736f6c634300081e003360a060405260405161099d38038061099d83398181016040528101906100259190610433565b6100348261012960201b60201c565b610073576040517f08c379a000000000000000000000000000000000000000000000000000000000815260040161006a906104e7565b60405180910390fd5b8173ffffffffffffffffffffffffffffffffffffffff1660808173ffffffffffffffffffffffffffffffffffffffff16815250505f6100b78361014b60201b60201c565b90506100c88161012960201b60201c565b610107576040517f08c379a00000000000000000000000000000000000000000000000000000000081526004016100fe9061054f565b60405180910390fd5b5f8251111561012157610120818361021060201b60201c565b5b5050506106cc565b5f5f8273ffffffffffffffffffffffffffffffffffffffff163b119050919050565b5f5f5f8373ffffffffffffffffffffffffffffffffffffffff166040516101719061059a565b5f60405180830381855afa9150503d805f81146101a9576040519150601f19603f3d011682016040523d82523d5f602084013e6101ae565b606091505b5091509150816101f3576040517f08c379a00000000000000000000000000000000000000000000000000000000081526004016101ea906105f8565b60405180910390fd5b808060200190518101906102079190610651565b92505050919050565b5f5f8373ffffffffffffffffffffffffffffffffffffffff168360405161023791906106b6565b5f60405180830381855af49150503d805f811461026f576040519150601f19603f3d011682016040523d82523d5f602084013e610274565b606091505b50915091508161028657805160208201fd5b50505050565b5f604051905090565b5f5ffd5b5f5ffd5b5f73ffffffffffffffffffffffffffffffffffffffff82169050919050565b5f6102c68261029d565b9050919050565b6102d6816102bc565b81146102e0575f5ffd5b50565b5f815190506102f1816102cd565b92915050565b5f5ffd5b5f5ffd5b5f601f19601f8301169050919050565b7f4e487b71000000000000000000000000000000000000000000000000000000005f52604160045260245ffd5b610345826102ff565b810181811067ffffffffffffffff821117156103645761036361030f565b5b80604052505050565b5f61037661028c565b9050610382828261033c565b919050565b5f67ffffffffffffffff8211156103a1576103a061030f565b5b6103aa826102ff565b9050602081019050919050565b8281835e5f83830152505050565b5f6103d76103d284610387565b61036d565b9050828152602081018484840111156103f3576103f26102fb565b5b6103fe8482856103b7565b509392505050565b5f82601f83011261041a576104196102f7565b5b815161042a8482602086016103c5565b91505092915050565b5f5f6040838503121561044957610448610295565b5b5f610456858286016102e3565b925050602083015167ffffffffffffffff81111561047757610476610299565b5b61048385828601610406565b9150509250929050565b5f82825260208201905092915050565b7f626561636f6e2021636f6e7472616374000000000000000000000000000000005f82015250565b5f6104d160108361048d565b91506104dc8261049d565b602082019050919050565b5f6020820190508181035f8301526104fe816104c5565b9050919050565b7f626561636f6e20696d706c656d656e746174696f6e2021636f6e7472616374005f82015250565b5f610539601f8361048d565b915061054482610505565b602082019050919050565b5f6020820190508181035f8301526105668161052d565b9050919050565b5f81905092915050565b50565b5f6105855f8361056d565b915061059082610577565b5f82019050919050565b5f6105a48261057a565b9150819050919050565b7f626561636f6e2063616c6c206661696c656400000000000000000000000000005f82015250565b5f6105e260128361048d565b91506105ed826105ae565b602082019050919050565b5f6020820190508181035f83015261060f816105d6565b9050919050565b5f6106208261029d565b9050919050565b61063081610616565b811461063a575f5ffd5b50565b5f8151905061064b81610627565b92915050565b5f6020828403121561066657610665610295565b5b5f6106738482850161063d565b91505092915050565b5f81519050919050565b5f6106908261067c565b61069a818561056d565b93506106aa8185602086016103b7565b80840191505092915050565b5f6106c18284610686565b915081905092915050565b6080516102ba6106e35f395f603501526102ba5ff3fe6080604052366100135761001161001d565b005b61001b61001d565b005b61002d61002861002f565b61005e565b565b5f6100597f000000000000000000000000000000000000000000000000000000000000000061007d565b905090565b365f5f375f5f365f845af43d5f5f3e805f8114610079573d5ff35b3d5ffd5b5f5f5f8373ffffffffffffffffffffffffffffffffffffffff166040516100a39061016f565b5f60405180830381855afa9150503d805f81146100db576040519150601f19603f3d011682016040523d82523d5f602084013e6100e0565b606091505b509150915081610125576040517f08c379a000000000000000000000000000000000000000000000000000000000815260040161011c906101dd565b60405180910390fd5b808060200190518101906101399190610259565b92505050919050565b5f81905092915050565b50565b5f61015a5f83610142565b91506101658261014c565b5f82019050919050565b5f6101798261014f565b9150819050919050565b5f82825260208201905092915050565b7f626561636f6e2063616c6c206661696c656400000000000000000000000000005f82015250565b5f6101c7601283610183565b91506101d282610193565b602082019050919050565b5f6020820190508181035f8301526101f4816101bb565b9050919050565b5f5ffd5b5f73ffffffffffffffffffffffffffffffffffffffff82169050919050565b5f610228826101ff565b9050919050565b6102388161021e565b8114610242575f5ffd5b50565b5f815190506102538161022f565b92915050565b5f6020828403121561026e5761026d6101fb565b5b5f61027b84828501610245565b9150509291505056fea2646970667358221220840bfbef009a1ec853950a9cc8791f26f074f56d3ef43200e5e2ab8f95be56be64736f6c634300081e0033666f72676564206d65737361676520646964206e6f7420657865637574652061747461636b657220726563697069656e74206c6f676963696e697469616c697a6520737563636565646564206275742061747461636b657220646964206e6f74207365697a65207265706c69636120636f6e74726f6c666f7267656420657865637574696f6e2073756363656564656420627574207075626c69632d6c697175696469747920726f757465207265616c697a6564206e6f2070726f6669746465706c6f7920656d7074792d696e697420626561636f6e2070726f7879202d3e2061747461636b657220696e697469616c697a65207468726f7567682070726f7879202d3e2061747461636b65722d6f776e6564207265706c69636120706172616d6574657273202d3e2070726f766520616e642070726f6365737320666f72676564206d657373616765202d3e2075736520617262697472617279206d65737361676520657865637574696f6e20746f207377656570207075626c696320414d4d206578636573732062616c616e63657320696e746f206578697374696e67206f6e2d636861696e20746f6b656e73a26469706673582212206599b79f83524f7c1c46960dc928c2bc6f3138abe12a9f0919ef0272a54787e764736f6c634300081e0033","linkReferences":{}},"methodIdentifiers":{"attackerControlsReplica()":"1bc0f005","attackerInitializedViaProxy()":"695e9d6c","beacon()":"59659e90","bridgeDrainSucceeded()":"dfe1ecfd","chosenRoot()":"e0be16bd","committedRootAfter()":"0e3b5235","drainedAmount()":"0f5ea827","drainedToken()":"6681ba0e","emptyInitProxyDeployed()":"791c24b0","executeOnOpportunity()":"3c2448ed","executed()":"31a38c89","exploitPath()":"cb707c62","failureReason()":"4f9522a4","forgedMessageHash()":"9a7750be","handle(uint32,uint32,bytes32,bytes)":"ab2dc3f5","handledBodyHash()":"0a2ccadd","handledNonce()":"aa72b1e9","handledOrigin()":"74fec1cc","handledSender()":"86fb7fb8","hypothesis()":"c38ec7a8","hypothesisRefuted()":"495f92f1","hypothesisValidated()":"463defd1","implementation()":"5c60da1b","initCallSucceeded()":"f9109dcf","localDomain()":"8d3638f4","messageHandleObserved()":"5ea5566d","messageProcessed()":"ad4e038a","messageProved()":"80312c95","optimisticSecondsAfter()":"5b4f431c","ownerAfter()":"6ae67417","ownerBefore()":"f098d8dc","path0_emptyInitProxyDeployment()":"72a047b9","path1_hostileInitializeThroughProxy()":"19099a8b","path2_attackerOwnsReplicaParameters()":"458f36c8","path3_forgedMessageProveAndProcess()":"203ea4a2","profitAmount()":"5ff972cc","profitToken()":"49343624","publicLiquiditySweepAttempted()":"ea1fa2e1","publicLiquiditySweepSucceeded()":"87fe47ec","remoteDomainAfter()":"c8163cee","stateAfter()":"ac550a2c","stateBefore()":"9caeed63","storedMessageRoot()":"693ee331","updaterAfter()":"c775b033","victimReplica()":"541c93ac"},"id":0}