{"abi":[{"type":"function","name":"committedRoot","inputs":[],"outputs":[{"name":"","type":"bytes32","internalType":"bytes32"}],"stateMutability":"view"},{"type":"function","name":"initialize","inputs":[{"name":"_remoteDomain","type":"uint32","internalType":"uint32"},{"name":"_updater","type":"address","internalType":"address"},{"name":"_committedRoot","type":"bytes32","internalType":"bytes32"},{"name":"_optimisticSeconds","type":"uint256","internalType":"uint256"}],"outputs":[],"stateMutability":"nonpayable"},{"type":"function","name":"initialized","inputs":[],"outputs":[{"name":"","type":"bool","internalType":"bool"}],"stateMutability":"view"},{"type":"function","name":"localDomain","inputs":[],"outputs":[{"name":"","type":"uint32","internalType":"uint32"}],"stateMutability":"view"},{"type":"function","name":"messages","inputs":[{"name":"","type":"bytes32","internalType":"bytes32"}],"outputs":[{"name":"","type":"bytes32","internalType":"bytes32"}],"stateMutability":"view"},{"type":"function","name":"optimisticSeconds","inputs":[],"outputs":[{"name":"","type":"uint256","internalType":"uint256"}],"stateMutability":"view"},{"type":"function","name":"owner","inputs":[],"outputs":[{"name":"","type":"address","internalType":"address"}],"stateMutability":"view"},{"type":"function","name":"process","inputs":[{"name":"_message","type":"bytes","internalType":"bytes"}],"outputs":[{"name":"","type":"bool","internalType":"bool"}],"stateMutability":"nonpayable"},{"type":"function","name":"processed","inputs":[{"name":"","type":"bytes32","internalType":"bytes32"}],"outputs":[{"name":"","type":"bool","internalType":"bool"}],"stateMutability":"view"},{"type":"function","name":"prove","inputs":[{"name":"_leaf","type":"bytes32","internalType":"bytes32"},{"name":"_proof","type":"bytes32[32]","internalType":"bytes32[32]"},{"name":"_index","type":"uint256","internalType":"uint256"}],"outputs":[{"name":"","type":"bool","internalType":"bool"}],"stateMutability":"nonpayable"},{"type":"function","name":"remoteDomain","inputs":[],"outputs":[{"name":"","type":"uint32","internalType":"uint32"}],"stateMutability":"view"},{"type":"function","name":"state","inputs":[],"outputs":[{"name":"","type":"uint8","internalType":"uint8"}],"stateMutability":"view"},{"type":"function","name":"updater","inputs":[],"outputs":[{"name":"","type":"address","internalType":"address"}],"stateMutability":"view"}],"bytecode":{"object":"0x6080604052348015600e575f5ffd5b506115538061001c5f395ff3fe608060405234801561000f575f5ffd5b50600436106100cd575f3560e01c80638da5cb5b1161008a578063c19d93fb11610064578063c19d93fb14610215578063c1f0808a14610233578063df034cd014610263578063e7e7a7b714610281576100cd565b80638da5cb5b146101a9578063928bc4b2146101c7578063961681dc146101f7576100cd565b8063158ef93e146100d15780632bbd59ca146100ef578063371d30711461011f578063399926681461014f57806367a6771d1461016d5780638d3638f41461018b575b5f5ffd5b6100d961029d565b6040516100e69190610b05565b60405180910390f35b61010960048036038101906101049190610b59565b6102af565b6040516101169190610b93565b60405180910390f35b61013960048036038101906101349190610c03565b6102c4565b6040516101469190610b05565b60405180910390f35b6101576103df565b6040516101649190610c64565b60405180910390f35b6101756103e5565b6040516101829190610b93565b60405180910390f35b6101936103eb565b6040516101a09190610c9b565b60405180910390f35b6101b1610401565b6040516101be9190610cf3565b60405180910390f35b6101e160048036038101906101dc9190610d69565b610425565b6040516101ee9190610b05565b60405180910390f35b6101ff61071e565b60405161020c9190610c9b565b60405180910390f35b61021d610734565b60405161022a9190610dcf565b60405180910390f35b61024d60048036038101906102489190610b59565b610747565b60405161025a9190610b05565b60405180910390f35b61026b610764565b6040516102789190610cf3565b60405180910390f35b61029b60048036038101906102969190610e3c565b610789565b005b60045f9054906101000a900460ff1681565b6005602052805f5260405f205f915090505481565b5f60045f9054906101000a900460ff16610313576040517f08c379a000000000000000000000000000000000000000000000000000000000815260040161030a90610efa565b60405180910390fd5b600160ff16600160149054906101000a900460ff1660ff161461036b576040517f08c379a000000000000000000000000000000000000000000000000000000000815260040161036290610f62565b60405180910390fd5b5f6103778585856108e5565b905060025481146103bd576040517f08c379a00000000000000000000000000000000000000000000000000000000081526004016103b490610fca565b60405180910390fd5b8060055f8781526020019081526020015f208190555060019150509392505050565b60035481565b60025481565b600160159054906101000a900463ffffffff1681565b5f5f9054906101000a900473ffffffffffffffffffffffffffffffffffffffff1681565b5f60045f9054906101000a900460ff16610474576040517f08c379a000000000000000000000000000000000000000000000000000000000815260040161046b90610efa565b60405180910390fd5b600160ff16600160149054906101000a900460ff1660ff16146104cc576040517f08c379a00000000000000000000000000000000000000000000000000000000081526004016104c390610f62565b60405180910390fd5b5f5f5f5f5f5f6104dc898961098f565b955095509550955095509550600160199054906101000a900463ffffffff1663ffffffff168663ffffffff1614610548576040517f08c379a000000000000000000000000000000000000000000000000000000000815260040161053f90611032565b60405180910390fd5b600160159054906101000a900463ffffffff1663ffffffff168363ffffffff16146105a8576040517f08c379a000000000000000000000000000000000000000000000000000000000815260040161059f9061109a565b60405180910390fd5b5f89896040516105b99291906110f4565b6040518091039020905060025460055f8381526020019081526020015f205414610618576040517f08c379a000000000000000000000000000000000000000000000000000000000815260040161060f90611156565b60405180910390fd5b60065f8281526020019081526020015f205f9054906101000a900460ff1615610676576040517f08c379a000000000000000000000000000000000000000000000000000000000815260040161066d906111be565b60405180910390fd5b600160065f8381526020019081526020015f205f6101000a81548160ff021916908315150217905550825f1c73ffffffffffffffffffffffffffffffffffffffff1663ab2dc3f5888789866040518563ffffffff1660e01b81526004016106e0949392919061124c565b5f604051808303815f87803b1580156106f7575f5ffd5b505af1158015610709573d5f5f3e3d5ffd5b50505050600197505050505050505092915050565b600160199054906101000a900463ffffffff1681565b600160149054906101000a900460ff1681565b6006602052805f5260405f205f915054906101000a900460ff1681565b60015f9054906101000a900473ffffffffffffffffffffffffffffffffffffffff1681565b60045f9054906101000a900460ff16156107d8576040517f08c379a00000000000000000000000000000000000000000000000000000000081526004016107cf906112e0565b60405180910390fd5b600160045f6101000a81548160ff021916908315150217905550335f5f6101000a81548173ffffffffffffffffffffffffffffffffffffffff021916908373ffffffffffffffffffffffffffffffffffffffff1602179055508260015f6101000a81548173ffffffffffffffffffffffffffffffffffffffff021916908373ffffffffffffffffffffffffffffffffffffffff16021790555060018060146101000a81548160ff021916908360ff16021790555062657468600160156101000a81548163ffffffff021916908363ffffffff16021790555083600160196101000a81548163ffffffff021916908363ffffffff160217905550816002819055508060038190555050505050565b5f8390505f5f90505b6020811015610987575f84826020811061090b5761090a6112fe565b5b602002013590506001808386901c160361094f57808360405160200161093292919061134b565b60405160208183030381529060405280519060200120925061097b565b828160405160200161096292919061134b565b6040516020818303038152906040528051906020012092505b508060010190506108ee565b509392505050565b5f5f5f5f5f6060604c8888905010156109dd576040517f08c379a00000000000000000000000000000000000000000000000000000000081526004016109d4906113c0565b60405180910390fd5b87875f906004926109f0939291906113e6565b906109fb9190611461565b60e01c95508787600490602492610a14939291906113e6565b90610a1f91906114bf565b94508787602490602892610a35939291906113e6565b90610a409190611461565b60e01c93508787602890602c92610a59939291906113e6565b90610a649190611461565b60e01c92508787602c90604c92610a7d939291906113e6565b90610a8891906114bf565b91508787604c908092610a9d939291906113e6565b8080601f0160208091040260200160405190810160405280939291908181526020018383808284375f81840152601f19601f8201169050808301925050505050505090509295509295509295565b5f8115159050919050565b610aff81610aeb565b82525050565b5f602082019050610b185f830184610af6565b92915050565b5f5ffd5b5f5ffd5b5f819050919050565b610b3881610b26565b8114610b42575f5ffd5b50565b5f81359050610b5381610b2f565b92915050565b5f60208284031215610b6e57610b6d610b1e565b5b5f610b7b84828501610b45565b91505092915050565b610b8d81610b26565b82525050565b5f602082019050610ba65f830184610b84565b92915050565b5f5ffd5b5f819050826020800282011115610bca57610bc9610bac565b5b92915050565b5f819050919050565b610be281610bd0565b8114610bec575f5ffd5b50565b5f81359050610bfd81610bd9565b92915050565b5f5f5f6104408486031215610c1b57610c1a610b1e565b5b5f610c2886828701610b45565b9350506020610c3986828701610bb0565b925050610420610c4b86828701610bef565b9150509250925092565b610c5e81610bd0565b82525050565b5f602082019050610c775f830184610c55565b92915050565b5f63ffffffff82169050919050565b610c9581610c7d565b82525050565b5f602082019050610cae5f830184610c8c565b92915050565b5f73ffffffffffffffffffffffffffffffffffffffff82169050919050565b5f610cdd82610cb4565b9050919050565b610ced81610cd3565b82525050565b5f602082019050610d065f830184610ce4565b92915050565b5f5ffd5b5f5ffd5b5f5f83601f840112610d2957610d28610d0c565b5b8235905067ffffffffffffffff811115610d4657610d45610d10565b5b602083019150836001820283011115610d6257610d61610bac565b5b9250929050565b5f5f60208385031215610d7f57610d7e610b1e565b5b5f83013567ffffffffffffffff811115610d9c57610d9b610b22565b5b610da885828601610d14565b92509250509250929050565b5f60ff82169050919050565b610dc981610db4565b82525050565b5f602082019050610de25f830184610dc0565b92915050565b610df181610c7d565b8114610dfb575f5ffd5b50565b5f81359050610e0c81610de8565b92915050565b610e1b81610cd3565b8114610e25575f5ffd5b50565b5f81359050610e3681610e12565b92915050565b5f5f5f5f60808587031215610e5457610e53610b1e565b5b5f610e6187828801610dfe565b9450506020610e7287828801610e28565b9350506040610e8387828801610b45565b9250506060610e9487828801610bef565b91505092959194509250565b5f82825260208201905092915050565b7f6e6f7420696e697469616c697a656400000000000000000000000000000000005f82015250565b5f610ee4600f83610ea0565b9150610eef82610eb0565b602082019050919050565b5f6020820190508181035f830152610f1181610ed8565b9050919050565b7f6e6f7420616374697665000000000000000000000000000000000000000000005f82015250565b5f610f4c600a83610ea0565b9150610f5782610f18565b602082019050919050565b5f6020820190508181035f830152610f7981610f40565b9050919050565b7f2170726f6f6600000000000000000000000000000000000000000000000000005f82015250565b5f610fb4600683610ea0565b9150610fbf82610f80565b602082019050919050565b5f6020820190508181035f830152610fe181610fa8565b9050919050565b7f2172656d6f7465000000000000000000000000000000000000000000000000005f82015250565b5f61101c600783610ea0565b915061102782610fe8565b602082019050919050565b5f6020820190508181035f83015261104981611010565b9050919050565b7f2164657374696e6174696f6e00000000000000000000000000000000000000005f82015250565b5f611084600c83610ea0565b915061108f82611050565b602082019050919050565b5f6020820190508181035f8301526110b181611078565b9050919050565b5f81905092915050565b828183375f83830152505050565b5f6110db83856110b8565b93506110e88385846110c2565b82840190509392505050565b5f6111008284866110d0565b91508190509392505050565b7f2170726f76656e000000000000000000000000000000000000000000000000005f82015250565b5f611140600783610ea0565b915061114b8261110c565b602082019050919050565b5f6020820190508181035f83015261116d81611134565b9050919050565b7f616c72656164792070726f6365737365640000000000000000000000000000005f82015250565b5f6111a8601183610ea0565b91506111b382611174565b602082019050919050565b5f6020820190508181035f8301526111d58161119c565b9050919050565b5f81519050919050565b5f82825260208201905092915050565b8281835e5f83830152505050565b5f601f19601f8301169050919050565b5f61121e826111dc565b61122881856111e6565b93506112388185602086016111f6565b61124181611204565b840191505092915050565b5f60808201905061125f5f830187610c8c565b61126c6020830186610c8c565b6112796040830185610b84565b818103606083015261128b8184611214565b905095945050505050565b7f616c726561647920696e697469616c697a6564000000000000000000000000005f82015250565b5f6112ca601383610ea0565b91506112d582611296565b602082019050919050565b5f6020820190508181035f8301526112f7816112be565b9050919050565b7f4e487b71000000000000000000000000000000000000000000000000000000005f52603260045260245ffd5b5f819050919050565b61134561134082610b26565b61132b565b82525050565b5f6113568285611334565b6020820191506113668284611334565b6020820191508190509392505050565b7f6d65737361676520746f6f2073686f72740000000000000000000000000000005f82015250565b5f6113aa601183610ea0565b91506113b582611376565b602082019050919050565b5f6020820190508181035f8301526113d78161139e565b9050919050565b5f5ffd5b5f5ffd5b5f5f858511156113f9576113f86113de565b5b8386111561140a576114096113e2565b5b6001850283019150848603905094509492505050565b5f82905092915050565b5f7fffffffff0000000000000000000000000000000000000000000000000000000082169050919050565b5f82821b905092915050565b5f61146c8383611420565b82611477813561142a565b925060048210156114b7576114b27fffffffff0000000000000000000000000000000000000000000000000000000083600403600802611455565b831692505b505092915050565b5f6114ca8383611420565b826114d58135610b26565b92506020821015611515576115107fffffffffffffffffffffffffffffffffffffffffffffffffffffffffffffffff83602003600802611455565b831692505b50509291505056fea26469706673582212207b32fad38f0bbae2e66fc220f5b2bfbb257230cfc533ebe93e13110a7c14473b64736f6c634300081e0033","linkReferences":{}},"methodIdentifiers":{"committedRoot()":"67a6771d","initialize(uint32,address,bytes32,uint256)":"e7e7a7b7","initialized()":"158ef93e","localDomain()":"8d3638f4","messages(bytes32)":"2bbd59ca","optimisticSeconds()":"39992668","owner()":"8da5cb5b","process(bytes)":"928bc4b2","processed(bytes32)":"c1f0808a","prove(bytes32,bytes32[32],uint256)":"371d3071","remoteDomain()":"961681dc","state()":"c19d93fb","updater()":"df034cd0"},"id":0}