{"abi":[{"type":"constructor","inputs":[{"name":"_router","type":"address","internalType":"address"},{"name":"_swapPlus","type":"address","internalType":"address"},{"name":"_rewarder","type":"address","internalType":"address"},{"name":"_wrappedETH","type":"address","internalType":"address"}],"stateMutability":"nonpayable"},{"type":"receive","stateMutability":"payable"},{"type":"function","name":"balanceOf","inputs":[{"name":"","type":"address","internalType":"address"},{"name":"","type":"address","internalType":"address"},{"name":"","type":"uint256","internalType":"uint256"}],"outputs":[{"name":"","type":"uint256","internalType":"uint256"}],"stateMutability":"view"},{"type":"function","name":"deposit","inputs":[{"name":"account","type":"address","internalType":"address"},{"name":"token","type":"address","internalType":"address"},{"name":"tokenM","type":"address","internalType":"address"},{"name":"path","type":"tuple","internalType":"struct LiquidXv2Zap.swapPath","components":[{"name":"path","type":"tuple[]","internalType":"struct ISwapPlusv1.swapBlock[]","components":[{"name":"lines","type":"tuple[]","internalType":"struct ISwapPlusv1.swapLine[]","components":[{"name":"swaps","type":"tuple[]","internalType":"struct ISwapPlusv1.swapRouter[]","components":[{"name":"platform","type":"string","internalType":"string"},{"name":"tokenIn","type":"address","internalType":"address"},{"name":"tokenOut","type":"address","internalType":"address"},{"name":"amountOutMin","type":"uint256","internalType":"uint256"},{"name":"meta","type":"uint256","internalType":"uint256"},{"name":"percent","type":"uint256","internalType":"uint256"}]}]}]}]},{"name":"token0","type":"address","internalType":"address"},{"name":"token1","type":"address","internalType":"address"},{"name":"amount","type":"uint256[3]","internalType":"uint256[3]"},{"name":"basketId","type":"uint256","internalType":"uint256"}],"outputs":[{"name":"","type":"uint256","internalType":"uint256"}],"stateMutability":"payable"},{"type":"function","name":"factory","inputs":[],"outputs":[{"name":"","type":"address","internalType":"address"}],"stateMutability":"view"},{"type":"function","name":"operatorSetter","inputs":[],"outputs":[{"name":"","type":"address","internalType":"address"}],"stateMutability":"view"},{"type":"function","name":"operators","inputs":[{"name":"","type":"address","internalType":"address"}],"outputs":[{"name":"","type":"bool","internalType":"bool"}],"stateMutability":"view"},{"type":"function","name":"rewarder","inputs":[],"outputs":[{"name":"","type":"address","internalType":"address"}],"stateMutability":"view"},{"type":"function","name":"router","inputs":[],"outputs":[{"name":"","type":"address","internalType":"address"}],"stateMutability":"view"},{"type":"function","name":"setOperator","inputs":[{"name":"_operator","type":"address","internalType":"address"},{"name":"mode","type":"bool","internalType":"bool"}],"outputs":[],"stateMutability":"nonpayable"},{"type":"function","name":"setOperatorSetter","inputs":[{"name":"_operatorSetter","type":"address","internalType":"address"}],"outputs":[],"stateMutability":"nonpayable"},{"type":"function","name":"setRewarder","inputs":[{"name":"_rewarder","type":"address","internalType":"address"}],"outputs":[],"stateMutability":"nonpayable"},{"type":"function","name":"setRouterAndFactory","inputs":[{"name":"_router","type":"address","internalType":"address"}],"outputs":[],"stateMutability":"nonpayable"},{"type":"function","name":"setSwapPlus","inputs":[{"name":"_swapPlus","type":"address","internalType":"address"}],"outputs":[],"stateMutability":"nonpayable"},{"type":"function","name":"swapPlus","inputs":[],"outputs":[{"name":"","type":"address","internalType":"address"}],"stateMutability":"view"},{"type":"function","name":"withdraw","inputs":[{"name":"account","type":"address","internalType":"address"},{"name":"token0","type":"address","internalType":"address"},{"name":"token1","type":"address","internalType":"address"},{"name":"amount","type":"uint256","internalType":"uint256"},{"name":"tokenOut","type":"address","internalType":"address"},{"name":"basketId","type":"uint256","internalType":"uint256"},{"name":"tokenM","type":"address","internalType":"address"},{"name":"wpath","type":"tuple","internalType":"struct LiquidXv2Zap.swapPath","components":[{"name":"path","type":"tuple[]","internalType":"struct ISwapPlusv1.swapBlock[]","components":[{"name":"lines","type":"tuple[]","internalType":"struct ISwapPlusv1.swapLine[]","components":[{"name":"swaps","type":"tuple[]","internalType":"struct ISwapPlusv1.swapRouter[]","components":[{"name":"platform","type":"string","internalType":"string"},{"name":"tokenIn","type":"address","internalType":"address"},{"name":"tokenOut","type":"address","internalType":"address"},{"name":"amountOutMin","type":"uint256","internalType":"uint256"},{"name":"meta","type":"uint256","internalType":"uint256"},{"name":"percent","type":"uint256","internalType":"uint256"}]}]}]}]},{"name":"amountMin","type":"uint256[3]","internalType":"uint256[3]"}],"outputs":[{"name":"","type":"uint256","internalType":"uint256"}],"stateMutability":"nonpayable"},{"type":"function","name":"withdrawToken","inputs":[{"name":"token","type":"address","internalType":"address"},{"name":"target","type":"address","internalType":"address"},{"name":"amount","type":"uint256","internalType":"uint256"}],"outputs":[],"stateMutability":"nonpayable"},{"type":"function","name":"wrappedETH","inputs":[],"outputs":[{"name":"","type":"address","internalType":"address"}],"stateMutability":"view"},{"type":"event","name":"Deposit","inputs":[{"name":"account","type":"address","indexed":false,"internalType":"address"},{"name":"token0","type":"address","indexed":false,"internalType":"address"},{"name":"token1","type":"address","indexed":false,"internalType":"address"},{"name":"basketId","type":"uint256","indexed":false,"internalType":"uint256"},{"name":"amount","type":"uint256","indexed":false,"internalType":"uint256"}],"anonymous":false},{"type":"event","name":"Withdraw","inputs":[{"name":"account","type":"address","indexed":false,"internalType":"address"},{"name":"token0","type":"address","indexed":false,"internalType":"address"},{"name":"token1","type":"address","indexed":false,"internalType":"address"},{"name":"basketId","type":"uint256","indexed":false,"internalType":"uint256"},{"name":"amount","type":"uint256","indexed":false,"internalType":"uint256"}],"anonymous":false}],"bytecode":{"object":"0x608060405234801561000f575f5ffd5b50604051614dc3380380614dc383398181016040528101906100319190610283565b835f5f6101000a81548173ffffffffffffffffffffffffffffffffffffffff021916908373ffffffffffffffffffffffffffffffffffffffff1602179055508373ffffffffffffffffffffffffffffffffffffffff1663c45a01556040518163ffffffff1660e01b8152600401602060405180830381865afa1580156100b9573d5f5f3e3d5ffd5b505050506040513d601f19601f820116820180604052508101906100dd91906102e7565b60015f6101000a81548173ffffffffffffffffffffffffffffffffffffffff021916908373ffffffffffffffffffffffffffffffffffffffff1602179055508260025f6101000a81548173ffffffffffffffffffffffffffffffffffffffff021916908373ffffffffffffffffffffffffffffffffffffffff1602179055508060035f6101000a81548173ffffffffffffffffffffffffffffffffffffffff021916908373ffffffffffffffffffffffffffffffffffffffff1602179055508160045f6101000a81548173ffffffffffffffffffffffffffffffffffffffff021916908373ffffffffffffffffffffffffffffffffffffffff1602179055503360065f6101000a81548173ffffffffffffffffffffffffffffffffffffffff021916908373ffffffffffffffffffffffffffffffffffffffff16021790555050505050610312565b5f5ffd5b5f73ffffffffffffffffffffffffffffffffffffffff82169050919050565b5f61025282610229565b9050919050565b61026281610248565b811461026c575f5ffd5b50565b5f8151905061027d81610259565b92915050565b5f5f5f5f6080858703121561029b5761029a610225565b5b5f6102a88782880161026f565b94505060206102b98782880161026f565b93505060406102ca8782880161026f565b92505060606102db8782880161026f565b91505092959194509250565b5f602082840312156102fc576102fb610225565b5b5f6103098482850161026f565b91505092915050565b614aa48061031f5f395ff3fe6080604052600436106100f6575f3560e01c8063a49cb2a611610089578063dcc3e06e11610058578063dcc3e06e14610319578063e93119d914610343578063f44a36671461037f578063f887ea40146103a7576100fd565b8063a49cb2a614610261578063c45a01551461029d578063c9b435bd146102c7578063d34f646f146102f1576100fd565b80633a6462e4116100c55780633a6462e4146101b757806347a12485146101df578063558a72971461020f57806363f3246614610237576100fd565b806301e336671461010157806302c7ed451461012957806313e7c9d8146101515780631bcbcb811461018d576100fd565b366100fd57005b5f5ffd5b34801561010c575f5ffd5b50610127600480360381019061012291906132c0565b6103d1565b005b348015610134575f5ffd5b5061014f600480360381019061014a9190613310565b61056c565b005b34801561015c575f5ffd5b5061017760048036038101906101729190613310565b61063e565b6040516101849190613355565b60405180910390f35b348015610198575f5ffd5b506101a161065b565b6040516101ae919061337d565b60405180910390f35b3480156101c2575f5ffd5b506101dd60048036038101906101d89190613310565b610680565b005b6101f960048036038101906101f491906133dd565b610752565b60405161020691906134ba565b60405180910390f35b34801561021a575f5ffd5b50610235600480360381019061023091906134fd565b61110b565b005b348015610242575f5ffd5b5061024b6111f2565b604051610258919061337d565b60405180910390f35b34801561026c575f5ffd5b5061028760048036038101906102829190613675565b611217565b60405161029491906134ba565b60405180910390f35b3480156102a8575f5ffd5b506102b1612249565b6040516102be919061337d565b60405180910390f35b3480156102d2575f5ffd5b506102db61226e565b6040516102e8919061337d565b60405180910390f35b3480156102fc575f5ffd5b5061031760048036038101906103129190613310565b612293565b005b348015610324575f5ffd5b5061032d612365565b60405161033a919061337d565b60405180910390f35b34801561034e575f5ffd5b50610369600480360381019061036491906132c0565b61238a565b60405161037691906134ba565b60405180910390f35b34801561038a575f5ffd5b506103a560048036038101906103a09190613310565b6123b5565b005b3480156103b2575f5ffd5b506103bb612532565b6040516103c8919061337d565b60405180910390f35b60055f3373ffffffffffffffffffffffffffffffffffffffff1673ffffffffffffffffffffffffffffffffffffffff1681526020019081526020015f205f9054906101000a900460ff1661045a576040517f08c379a0000000000000000000000000000000000000000000000000000000008152600401610451906137af565b60405180910390fd5b5f73ffffffffffffffffffffffffffffffffffffffff168373ffffffffffffffffffffffffffffffffffffffff160361053b575f8273ffffffffffffffffffffffffffffffffffffffff16826040516104b2906137fa565b5f6040518083038185875af1925050503d805f81146104ec576040519150601f19603f3d011682016040523d82523d5f602084013e6104f1565b606091505b5050905080610535576040517f08c379a000000000000000000000000000000000000000000000000000000000815260040161052c90613858565b60405180910390fd5b50610567565b61056682828573ffffffffffffffffffffffffffffffffffffffff166125569092919063ffffffff16565b5b505050565b60065f9054906101000a900473ffffffffffffffffffffffffffffffffffffffff1673ffffffffffffffffffffffffffffffffffffffff163373ffffffffffffffffffffffffffffffffffffffff16146105fb576040517f08c379a00000000000000000000000000000000000000000000000000000000081526004016105f2906138c0565b60405180910390fd5b8060065f6101000a81548173ffffffffffffffffffffffffffffffffffffffff021916908373ffffffffffffffffffffffffffffffffffffffff16021790555050565b6005602052805f5260405f205f915054906101000a900460ff1681565b60065f9054906101000a900473ffffffffffffffffffffffffffffffffffffffff1681565b60065f9054906101000a900473ffffffffffffffffffffffffffffffffffffffff1673ffffffffffffffffffffffffffffffffffffffff163373ffffffffffffffffffffffffffffffffffffffff161461070f576040517f08c379a0000000000000000000000000000000000000000000000000000000008152600401610706906138c0565b60405180910390fd5b8060045f6101000a81548173ffffffffffffffffffffffffffffffffffffffff021916908373ffffffffffffffffffffffffffffffffffffffff16021790555050565b5f5f60015f9054906101000a900473ffffffffffffffffffffffffffffffffffffffff1673ffffffffffffffffffffffffffffffffffffffff1663e6a4390587876040518363ffffffff1660e01b81526004016107b09291906138de565b602060405180830381865afa1580156107cb573d5f5f3e3d5ffd5b505050506040513d601f19601f820116820180604052508101906107ef9190613919565b90505f73ffffffffffffffffffffffffffffffffffffffff168173ffffffffffffffffffffffffffffffffffffffff160361085f576040517f08c379a00000000000000000000000000000000000000000000000000000000081526004016108569061398e565b60405180910390fd5b6108676131de565b348160036006811061087c5761087b6139ac565b5b6020020181815250505f8a90505f73ffffffffffffffffffffffffffffffffffffffff168b73ffffffffffffffffffffffffffffffffffffffff1614610a52578a73ffffffffffffffffffffffffffffffffffffffff166370a08231306040518263ffffffff1660e01b81526004016108f5919061337d565b602060405180830381865afa158015610910573d5f5f3e3d5ffd5b505050506040513d601f19601f8201168201806040525081019061093491906139ed565b82600360068110610948576109476139ac565b5b6020020181815250506109958c30885f60038110610969576109686139ac565b5b60200201358e73ffffffffffffffffffffffffffffffffffffffff166125dc909392919063ffffffff16565b816003600681106109a9576109a86139ac565b5b60200201518b73ffffffffffffffffffffffffffffffffffffffff166370a08231306040518263ffffffff1660e01b81526004016109e7919061337d565b602060405180830381865afa158015610a02573d5f5f3e3d5ffd5b505050506040513d601f19601f82011682018060405250810190610a2691906139ed565b610a309190613a45565b82600360068110610a4457610a436139ac565b5b602002018181525050610b0d565b60035f9054906101000a900473ffffffffffffffffffffffffffffffffffffffff16905060035f9054906101000a900473ffffffffffffffffffffffffffffffffffffffff1673ffffffffffffffffffffffffffffffffffffffff1663d0e30db083600360068110610ac757610ac66139ac565b5b60200201516040518263ffffffff1660e01b81526004015f604051808303818588803b158015610af5575f5ffd5b505af1158015610b07573d5f5f3e3d5ffd5b50505050505b5f89805f0190610b1d9190613a84565b90501115610c5457610b698160025f9054906101000a900473ffffffffffffffffffffffffffffffffffffffff1684600360068110610b5f57610b5e6139ac565b5b6020020151612665565b60025f9054906101000a900473ffffffffffffffffffffffffffffffffffffffff1673ffffffffffffffffffffffffffffffffffffffff1663c42ce32a8284600360068110610bbb57610bba6139ac565b5b60200201518d308e805f0190610bd19190613a84565b6040518763ffffffff1660e01b8152600401610bf296959493929190614039565b60408051808303815f875af1158015610c0d573d5f5f3e3d5ffd5b505050506040513d601f19601f82011682018060405250810190610c319190614093565b905082600360068110610c4757610c466139ac565b5b6020020181815250508990505b610c7888888385600360068110610c6e57610c6d6139ac565b5b6020020151612770565b83600460068110610c8c57610c8b6139ac565b5b6020020184600560068110610ca457610ca36139ac565b5b60200201828152508281525050505f5f9054906101000a900473ffffffffffffffffffffffffffffffffffffffff1673ffffffffffffffffffffffffffffffffffffffff1663e8e33700898985600460068110610d0457610d036139ac565b5b602002015186600560068110610d1d57610d1c6139ac565b5b60200201518b600160038110610d3657610d356139ac565b5b60200201358c600260038110610d4f57610d4e6139ac565b5b602002013530426040518963ffffffff1660e01b8152600401610d799897969594939291906140d1565b6060604051808303815f875af1158015610d95573d5f5f3e3d5ffd5b505050506040513d601f19601f82011682018060405250810190610db9919061414d565b845f60068110610dcc57610dcb6139ac565b5b6020020185600160068110610de457610de36139ac565b5b6020020186600260068110610dfc57610dfb6139ac565b5b60200201838152508381525083815250505050610e918c8989855f60068110610e2857610e276139ac565b5b602002015186600460068110610e4157610e406139ac565b5b6020020151610e509190613a45565b86600160068110610e6457610e636139ac565b5b602002015187600560068110610e7d57610e7c6139ac565b5b6020020151610e8c9190613a45565b612c07565b5f8503610ee057610edb8c83600260068110610eb057610eaf6139ac565b5b60200201518573ffffffffffffffffffffffffffffffffffffffff166125569092919063ffffffff16565b610f05565b610f048c848785600260068110610efa57610ef96139ac565b5b6020020151612c76565b5b5f73ffffffffffffffffffffffffffffffffffffffff1660045f9054906101000a900473ffffffffffffffffffffffffffffffffffffffff1673ffffffffffffffffffffffffffffffffffffffff1614158015610ffb57505f60045f9054906101000a900473ffffffffffffffffffffffffffffffffffffffff1673ffffffffffffffffffffffffffffffffffffffff16636b0916958e866040518363ffffffff1660e01b8152600401610fba9291906138de565b602060405180830381865afa158015610fd5573d5f5f3e3d5ffd5b505050506040513d601f19601f82011682018060405250810190610ff991906139ed565b115b1561108a5760045f9054906101000a900473ffffffffffffffffffffffffffffffffffffffff1673ffffffffffffffffffffffffffffffffffffffff166321c0b3428d856040518363ffffffff1660e01b815260040161105c9291906138de565b5f604051808303815f87803b158015611073575f5ffd5b505af1158015611085573d5f5f3e3d5ffd5b505050505b7f5fe47ed6d4225326d3303476197d782ded5a4e9c14f479dc9ec4992af4e85d598c898988866002600681106110c3576110c26139ac565b5b60200201516040516110d995949392919061419d565b60405180910390a1816002600681106110f5576110f46139ac565b5b6020020151935050505098975050505050505050565b60065f9054906101000a900473ffffffffffffffffffffffffffffffffffffffff1673ffffffffffffffffffffffffffffffffffffffff163373ffffffffffffffffffffffffffffffffffffffff161461119a576040517f08c379a0000000000000000000000000000000000000000000000000000000008152600401611191906138c0565b60405180910390fd5b8060055f8473ffffffffffffffffffffffffffffffffffffffff1673ffffffffffffffffffffffffffffffffffffffff1681526020019081526020015f205f6101000a81548160ff0219169083151502179055505050565b60025f9054906101000a900473ffffffffffffffffffffffffffffffffffffffff1681565b5f5f60015f9054906101000a900473ffffffffffffffffffffffffffffffffffffffff1673ffffffffffffffffffffffffffffffffffffffff1663e6a439058b8b6040518363ffffffff1660e01b81526004016112759291906138de565b602060405180830381865afa158015611290573d5f5f3e3d5ffd5b505050506040513d601f19601f820116820180604052508101906112b49190613919565b90505f73ffffffffffffffffffffffffffffffffffffffff168173ffffffffffffffffffffffffffffffffffffffff1603611324576040517f08c379a000000000000000000000000000000000000000000000000000000000815260040161131b9061398e565b60405180910390fd5b5f860361135d576113588b308a8473ffffffffffffffffffffffffffffffffffffffff166125dc909392919063ffffffff16565b6115d4565b3373ffffffffffffffffffffffffffffffffffffffff168b73ffffffffffffffffffffffffffffffffffffffff1614806113dd575060055f3373ffffffffffffffffffffffffffffffffffffffff1673ffffffffffffffffffffffffffffffffffffffff1681526020019081526020015f205f9054906101000a900460ff165b61141c576040517f08c379a000000000000000000000000000000000000000000000000000000000815260040161141390614238565b60405180910390fd5b8760075f8d73ffffffffffffffffffffffffffffffffffffffff1673ffffffffffffffffffffffffffffffffffffffff1681526020019081526020015f205f8373ffffffffffffffffffffffffffffffffffffffff1673ffffffffffffffffffffffffffffffffffffffff1681526020019081526020015f205f8881526020019081526020015f205410156115365760075f8c73ffffffffffffffffffffffffffffffffffffffff1673ffffffffffffffffffffffffffffffffffffffff1681526020019081526020015f205f8273ffffffffffffffffffffffffffffffffffffffff1673ffffffffffffffffffffffffffffffffffffffff1681526020019081526020015f205f8781526020019081526020015f205497505b8760075f8d73ffffffffffffffffffffffffffffffffffffffff1673ffffffffffffffffffffffffffffffffffffffff1681526020019081526020015f205f8373ffffffffffffffffffffffffffffffffffffffff1673ffffffffffffffffffffffffffffffffffffffff1681526020019081526020015f205f8881526020019081526020015f205f8282546115cc9190613a45565b925050819055505b5f88036115e4575f91505061223c565b61160f815f5f9054906101000a900473ffffffffffffffffffffffffffffffffffffffff168a612665565b611617613200565b5f5f9054906101000a900473ffffffffffffffffffffffffffffffffffffffff1673ffffffffffffffffffffffffffffffffffffffff1663baa2abde8c8c8c885f60038110611669576116686139ac565b5b602002015189600160038110611682576116816139ac565b5b602002015130426040518863ffffffff1660e01b81526004016116ab9796959493929190614256565b60408051808303815f875af11580156116c6573d5f5f3e3d5ffd5b505050506040513d601f19601f820116820180604052508101906116ea9190614093565b825f600381106116fd576116fc6139ac565b5b6020020183600160038110611715576117146139ac565b5b60200201828152508281525050505f8890505f73ffffffffffffffffffffffffffffffffffffffff168973ffffffffffffffffffffffffffffffffffffffff160361177f5760035f9054906101000a900473ffffffffffffffffffffffffffffffffffffffff1690505b5f82600260038110611794576117936139ac565b5b6020020181815250508a73ffffffffffffffffffffffffffffffffffffffff168173ffffffffffffffffffffffffffffffffffffffff1603611a5757816001600381106117e4576117e36139ac565b5b6020020151826002600381106117fd576117fc6139ac565b5b6020020181815250506118488c5f5f9054906101000a900473ffffffffffffffffffffffffffffffffffffffff16845f6003811061183e5761183d6139ac565b5b6020020151612665565b5f600267ffffffffffffffff8111156118645761186361354f565b5b6040519080825280602002602001820160405280156118925781602001602082028036833780820191505090505b5090508c815f815181106118a9576118a86139ac565b5b602002602001019073ffffffffffffffffffffffffffffffffffffffff16908173ffffffffffffffffffffffffffffffffffffffff16815250508b816001815181106118f8576118f76139ac565b5b602002602001019073ffffffffffffffffffffffffffffffffffffffff16908173ffffffffffffffffffffffffffffffffffffffff16815250505f5f5f9054906101000a900473ffffffffffffffffffffffffffffffffffffffff1673ffffffffffffffffffffffffffffffffffffffff166338ed1739855f60038110611982576119816139ac565b5b60200201518960026003811061199b5761199a6139ac565b5b60200201518530426040518663ffffffff1660e01b81526004016119c395949392919061436b565b5f604051808303815f875af11580156119de573d5f5f3e3d5ffd5b505050506040513d5f823e3d601f19601f82011682018060405250810190611a069190614483565b905080600181518110611a1c57611a1b6139ac565b5b602002602001015184600260038110611a3857611a376139ac565b5b60200201818151611a4991906144ca565b915081815250505050611cdb565b815f60038110611a6a57611a696139ac565b5b602002015182600260038110611a8357611a826139ac565b5b602002018181525050611acf8b5f5f9054906101000a900473ffffffffffffffffffffffffffffffffffffffff1684600160038110611ac557611ac46139ac565b5b6020020151612665565b5f600267ffffffffffffffff811115611aeb57611aea61354f565b5b604051908082528060200260200182016040528015611b195781602001602082028036833780820191505090505b5090508b815f81518110611b3057611b2f6139ac565b5b602002602001019073ffffffffffffffffffffffffffffffffffffffff16908173ffffffffffffffffffffffffffffffffffffffff16815250508c81600181518110611b7f57611b7e6139ac565b5b602002602001019073ffffffffffffffffffffffffffffffffffffffff16908173ffffffffffffffffffffffffffffffffffffffff16815250505f5f5f9054906101000a900473ffffffffffffffffffffffffffffffffffffffff1673ffffffffffffffffffffffffffffffffffffffff166338ed173985600160038110611c0a57611c096139ac565b5b602002015189600260038110611c2357611c226139ac565b5b60200201518530426040518663ffffffff1660e01b8152600401611c4b95949392919061436b565b5f604051808303815f875af1158015611c66573d5f5f3e3d5ffd5b505050506040513d5f823e3d601f19601f82011682018060405250810190611c8e9190614483565b905080600181518110611ca457611ca36139ac565b5b602002602001015184600260038110611cc057611cbf6139ac565b5b60200201818151611cd191906144ca565b9150818152505050505b5f86805f0190611ceb9190613a84565b90501115611e7d57611d378960025f9054906101000a900473ffffffffffffffffffffffffffffffffffffffff1684600260038110611d2d57611d2c6139ac565b5b6020020151612665565b60025f9054906101000a900473ffffffffffffffffffffffffffffffffffffffff1673ffffffffffffffffffffffffffffffffffffffff1663c42ce32a8a84600260038110611d8957611d886139ac565b5b60200201515f73ffffffffffffffffffffffffffffffffffffffff168b73ffffffffffffffffffffffffffffffffffffffff1614611dc7578a611dea565b60035f9054906101000a900473ffffffffffffffffffffffffffffffffffffffff165b308b805f0190611dfa9190613a84565b6040518763ffffffff1660e01b8152600401611e1b96959493929190614039565b60408051808303815f875af1158015611e36573d5f5f3e3d5ffd5b505050506040513d601f19601f82011682018060405250810190611e5a9190614093565b905082600260038110611e7057611e6f6139ac565b5b6020020181815250508698505b5f73ffffffffffffffffffffffffffffffffffffffff168973ffffffffffffffffffffffffffffffffffffffff1614611ef857611ef38d83600260038110611ec857611ec76139ac565b5b60200201518b73ffffffffffffffffffffffffffffffffffffffff166125569092919063ffffffff16565b612059565b60035f9054906101000a900473ffffffffffffffffffffffffffffffffffffffff1673ffffffffffffffffffffffffffffffffffffffff16632e1a7d4d83600260038110611f4957611f486139ac565b5b60200201516040518263ffffffff1660e01b8152600401611f6a91906134ba565b5f604051808303815f87803b158015611f81575f5ffd5b505af1158015611f93573d5f5f3e3d5ffd5b505050505f8d73ffffffffffffffffffffffffffffffffffffffff1683600260038110611fc357611fc26139ac565b5b6020020151604051611fd4906137fa565b5f6040518083038185875af1925050503d805f811461200e576040519150601f19603f3d011682016040523d82523d5f602084013e612013565b606091505b5050905080612057576040517f08c379a000000000000000000000000000000000000000000000000000000000815260040161204e90613858565b60405180910390fd5b505b5f73ffffffffffffffffffffffffffffffffffffffff1660045f9054906101000a900473ffffffffffffffffffffffffffffffffffffffff1673ffffffffffffffffffffffffffffffffffffffff161415801561214f57505f60045f9054906101000a900473ffffffffffffffffffffffffffffffffffffffff1673ffffffffffffffffffffffffffffffffffffffff16636b0916958f866040518363ffffffff1660e01b815260040161210e9291906138de565b602060405180830381865afa158015612129573d5f5f3e3d5ffd5b505050506040513d601f19601f8201168201806040525081019061214d91906139ed565b115b156121de5760045f9054906101000a900473ffffffffffffffffffffffffffffffffffffffff1673ffffffffffffffffffffffffffffffffffffffff166321c0b3428e856040518363ffffffff1660e01b81526004016121b09291906138de565b5f604051808303815f87803b1580156121c7575f5ffd5b505af11580156121d9573d5f5f3e3d5ffd5b505050505b7ffbde797d201c681b91056529119e0b02407c7bb96a4a2c75c01fc9667232c8db8d8d8d8b8e60405161221595949392919061419d565b60405180910390a181600260038110612231576122306139ac565b5b602002015193505050505b9998505050505050505050565b60015f9054906101000a900473ffffffffffffffffffffffffffffffffffffffff1681565b60035f9054906101000a900473ffffffffffffffffffffffffffffffffffffffff1681565b60065f9054906101000a900473ffffffffffffffffffffffffffffffffffffffff1673ffffffffffffffffffffffffffffffffffffffff163373ffffffffffffffffffffffffffffffffffffffff1614612322576040517f08c379a0000000000000000000000000000000000000000000000000000000008152600401612319906138c0565b60405180910390fd5b8060025f6101000a81548173ffffffffffffffffffffffffffffffffffffffff021916908373ffffffffffffffffffffffffffffffffffffffff16021790555050565b60045f9054906101000a900473ffffffffffffffffffffffffffffffffffffffff1681565b6007602052825f5260405f20602052815f5260405f20602052805f5260405f205f9250925050505481565b60065f9054906101000a900473ffffffffffffffffffffffffffffffffffffffff1673ffffffffffffffffffffffffffffffffffffffff163373ffffffffffffffffffffffffffffffffffffffff1614612444576040517f08c379a000000000000000000000000000000000000000000000000000000000815260040161243b906138c0565b60405180910390fd5b805f5f6101000a81548173ffffffffffffffffffffffffffffffffffffffff021916908373ffffffffffffffffffffffffffffffffffffffff1602179055508073ffffffffffffffffffffffffffffffffffffffff1663c45a01556040518163ffffffff1660e01b8152600401602060405180830381865afa1580156124cc573d5f5f3e3d5ffd5b505050506040513d601f19601f820116820180604052508101906124f09190613919565b60015f6101000a81548173ffffffffffffffffffffffffffffffffffffffff021916908373ffffffffffffffffffffffffffffffffffffffff16021790555050565b5f5f9054906101000a900473ffffffffffffffffffffffffffffffffffffffff1681565b6125d78363a9059cbb60e01b84846040516024016125759291906144fd565b604051602081830303815290604052907bffffffffffffffffffffffffffffffffffffffffffffffffffffffff19166020820180517bffffffffffffffffffffffffffffffffffffffffffffffffffffffff8381831617835250505050612d19565b505050565b61265f846323b872dd60e01b8585856040516024016125fd93929190614524565b604051602081830303815290604052907bffffffffffffffffffffffffffffffffffffffffffffffffffffffff19166020820180517bffffffffffffffffffffffffffffffffffffffffffffffffffffffff8381831617835250505050612d19565b50505050565b5f8373ffffffffffffffffffffffffffffffffffffffff1663dd62ed3e30856040518363ffffffff1660e01b81526004016126a19291906138de565b602060405180830381865afa1580156126bc573d5f5f3e3d5ffd5b505050506040513d601f19601f820116820180604052508101906126e091906139ed565b90508181101561276a575f81111561271e5761271d835f8673ffffffffffffffffffffffffffffffffffffffff16612dde9092919063ffffffff16565b5b612769837fffffffffffffffffffffffffffffffffffffffffffffffffffffffffffffffff8673ffffffffffffffffffffffffffffffffffffffff16612dde9092919063ffffffff16565b5b50505050565b5f5f5f60015f9054906101000a900473ffffffffffffffffffffffffffffffffffffffff1673ffffffffffffffffffffffffffffffffffffffff1663e6a4390588886040518363ffffffff1660e01b81526004016127cf9291906138de565b602060405180830381865afa1580156127ea573d5f5f3e3d5ffd5b505050506040513d601f19601f8201168201806040525081019061280e9190613919565b90505f5f90505f8890505f5f90508973ffffffffffffffffffffffffffffffffffffffff168873ffffffffffffffffffffffffffffffffffffffff16036128e257600192508891508373ffffffffffffffffffffffffffffffffffffffff16630902f1ac6040518163ffffffff1660e01b8152600401606060405180830381865afa15801561289f573d5f5f3e3d5ffd5b505050506040513d601f19601f820116820180604052508101906128c391906145d5565b826dffffffffffffffffffffffffffff1692509050508091505061296b565b8373ffffffffffffffffffffffffffffffffffffffff16630902f1ac6040518163ffffffff1660e01b8152600401606060405180830381865afa15801561292b573d5f5f3e3d5ffd5b505050506040513d601f19601f8201168201806040525081019061294f91906145d5565b909150816dffffffffffffffffffffffffffff16915050809150505b612996885f5f9054906101000a900473ffffffffffffffffffffffffffffffffffffffff1689612665565b5f6129a18289612f29565b90505f600267ffffffffffffffff8111156129bf576129be61354f565b5b6040519080825280602002602001820160405280156129ed5781602001602082028036833780820191505090505b50905089815f81518110612a0457612a036139ac565b5b602002602001019073ffffffffffffffffffffffffffffffffffffffff16908173ffffffffffffffffffffffffffffffffffffffff16815250508381600181518110612a5357612a526139ac565b5b602002602001019073ffffffffffffffffffffffffffffffffffffffff16908173ffffffffffffffffffffffffffffffffffffffff16815250505f5f5f9054906101000a900473ffffffffffffffffffffffffffffffffffffffff1673ffffffffffffffffffffffffffffffffffffffff166338ed1739845f8530426040518663ffffffff1660e01b8152600401612aef959493929190614667565b5f604051808303815f875af1158015612b0a573d5f5f3e3d5ffd5b505050506040513d5f823e3d601f19601f82011682018060405250810190612b329190614483565b9050805f81518110612b4757612b466139ac565b5b60200260200101518a612b5a9190613a45565b9950612ba2855f5f9054906101000a900473ffffffffffffffffffffffffffffffffffffffff1683600181518110612b9557612b946139ac565b5b6020026020010151612665565b8515612bd5578981600181518110612bbd57612bbc6139ac565b5b60200260200101519850985050505050505050612bfe565b80600181518110612be957612be86139ac565b5b60200260200101518a98509850505050505050505b94509492505050565b5f821115612c3b57612c3a85838673ffffffffffffffffffffffffffffffffffffffff166125569092919063ffffffff16565b5b5f811115612c6f57612c6e85828573ffffffffffffffffffffffffffffffffffffffff166125569092919063ffffffff16565b5b5050505050565b8060075f8673ffffffffffffffffffffffffffffffffffffffff1673ffffffffffffffffffffffffffffffffffffffff1681526020019081526020015f205f8573ffffffffffffffffffffffffffffffffffffffff1673ffffffffffffffffffffffffffffffffffffffff1681526020019081526020015f205f8481526020019081526020015f205f828254612d0c91906144ca565b9250508190555050505050565b5f612d7a826040518060400160405280602081526020017f5361666545524332303a206c6f772d6c6576656c2063616c6c206661696c65648152508573ffffffffffffffffffffffffffffffffffffffff16612fbd9092919063ffffffff16565b90505f81511115612dd95780806020019051810190612d9991906146d3565b612dd8576040517f08c379a0000000000000000000000000000000000000000000000000000000008152600401612dcf9061476e565b60405180910390fd5b5b505050565b5f811480612e6457505f8373ffffffffffffffffffffffffffffffffffffffff1663dd62ed3e30856040518363ffffffff1660e01b8152600401612e239291906138de565b602060405180830381865afa158015612e3e573d5f5f3e3d5ffd5b505050506040513d601f19601f82011682018060405250810190612e6291906139ed565b145b612ea3576040517f08c379a0000000000000000000000000000000000000000000000000000000008152600401612e9a906147fc565b60405180910390fd5b612f248363095ea7b360e01b8484604051602401612ec29291906144fd565b604051602081830303815290604052907bffffffffffffffffffffffffffffffffffffffffffffffffffffffff19166020820180517bffffffffffffffffffffffffffffffffffffffffffffffffffffffff8381831617835250505050612d19565b505050565b5f5f6107cd808586612f3b919061481a565b612f45919061481a565b612f4f919061481a565b90505f6103e88486610f94612f64919061481a565b612f6e919061481a565b612f78919061481a565b90506107ca6107cd86612f8b919061481a565b612f9f8385612f9a91906144ca565b612fd4565b612fa99190613a45565b612fb39190614888565b9250505092915050565b6060612fcb84845f85613030565b90509392505050565b5f5f6002600184612fe591906144ca565b612fef9190614888565b90508291505b8181101561302a57809150600281828561300f9190614888565b61301991906144ca565b6130239190614888565b9050612ff5565b50919050565b606082471015613075576040517f08c379a000000000000000000000000000000000000000000000000000000000815260040161306c90614928565b60405180910390fd5b5f5f8673ffffffffffffffffffffffffffffffffffffffff16858760405161309d919061498e565b5f6040518083038185875af1925050503d805f81146130d7576040519150601f19603f3d011682016040523d82523d5f602084013e6130dc565b606091505b50915091506130ed878383876130f9565b92505050949350505050565b6060831561315a575f835103613152576131128561316d565b613151576040517f08c379a0000000000000000000000000000000000000000000000000000000008152600401613148906149ee565b60405180910390fd5b5b829050613165565b613164838361318f565b5b949350505050565b5f5f8273ffffffffffffffffffffffffffffffffffffffff163b119050919050565b5f825111156131a15781518083602001fd5b806040517f08c379a00000000000000000000000000000000000000000000000000000000081526004016131d59190614a4e565b60405180910390fd5b6040518060c00160405280600690602082028036833780820191505090505090565b6040518060600160405280600390602082028036833780820191505090505090565b5f604051905090565b5f5ffd5b5f5ffd5b5f73ffffffffffffffffffffffffffffffffffffffff82169050919050565b5f61325c82613233565b9050919050565b61326c81613252565b8114613276575f5ffd5b50565b5f8135905061328781613263565b92915050565b5f819050919050565b61329f8161328d565b81146132a9575f5ffd5b50565b5f813590506132ba81613296565b92915050565b5f5f5f606084860312156132d7576132d661322b565b5b5f6132e486828701613279565b93505060206132f586828701613279565b9250506040613306868287016132ac565b9150509250925092565b5f602082840312156133255761332461322b565b5b5f61333284828501613279565b91505092915050565b5f8115159050919050565b61334f8161333b565b82525050565b5f6020820190506133685f830184613346565b92915050565b61337781613252565b82525050565b5f6020820190506133905f83018461336e565b92915050565b5f5ffd5b5f602082840312156133af576133ae613396565b5b81905092915050565b5f5ffd5b5f819050826020600302820111156133d7576133d66133b8565b5b92915050565b5f5f5f5f5f5f5f5f610140898b0312156133fa576133f961322b565b5b5f6134078b828c01613279565b98505060206134188b828c01613279565b97505060406134298b828c01613279565b965050606089013567ffffffffffffffff81111561344a5761344961322f565b5b6134568b828c0161339a565b95505060806134678b828c01613279565b94505060a06134788b828c01613279565b93505060c06134898b828c016133bc565b92505061012061349b8b828c016132ac565b9150509295985092959890939650565b6134b48161328d565b82525050565b5f6020820190506134cd5f8301846134ab565b92915050565b6134dc8161333b565b81146134e6575f5ffd5b50565b5f813590506134f7816134d3565b92915050565b5f5f604083850312156135135761351261322b565b5b5f61352085828601613279565b9250506020613531858286016134e9565b9150509250929050565b5f5ffd5b5f601f19601f8301169050919050565b7f4e487b71000000000000000000000000000000000000000000000000000000005f52604160045260245ffd5b6135858261353f565b810181811067ffffffffffffffff821117156135a4576135a361354f565b5b80604052505050565b5f6135b6613222565b90506135c2828261357c565b919050565b5f67ffffffffffffffff8211156135e1576135e061354f565b5b602082029050919050565b5f6135fe6135f9846135c7565b6135ad565b90508060208402830185811115613618576136176133b8565b5b835b81811015613641578061362d88826132ac565b84526020840193505060208101905061361a565b5050509392505050565b5f82601f83011261365f5761365e61353b565b5b600361366c8482856135ec565b91505092915050565b5f5f5f5f5f5f5f5f5f6101608a8c0312156136935761369261322b565b5b5f6136a08c828d01613279565b99505060206136b18c828d01613279565b98505060406136c28c828d01613279565b97505060606136d38c828d016132ac565b96505060806136e48c828d01613279565b95505060a06136f58c828d016132ac565b94505060c06137068c828d01613279565b93505060e08a013567ffffffffffffffff8111156137275761372661322f565b5b6137338c828d0161339a565b9250506101006137458c828d0161364b565b9150509295985092959850929598565b5f82825260208201905092915050565b7f4c69717569645876325a61703a20216f70657261746f720000000000000000005f82015250565b5f613799601783613755565b91506137a482613765565b602082019050919050565b5f6020820190508181035f8301526137c68161378d565b9050919050565b5f81905092915050565b50565b5f6137e55f836137cd565b91506137f0826137d7565b5f82019050919050565b5f613804826137da565b9150819050919050565b7f4c69717569645876325a61703a204661696c65642077697468647261770000005f82015250565b5f613842601d83613755565b915061384d8261380e565b602082019050919050565b5f6020820190508181035f83015261386f81613836565b9050919050565b7f4c69717569645876325a61703a20464f5242494444454e0000000000000000005f82015250565b5f6138aa601783613755565b91506138b582613876565b602082019050919050565b5f6020820190508181035f8301526138d78161389e565b9050919050565b5f6040820190506138f15f83018561336e565b6138fe602083018461336e565b9392505050565b5f8151905061391381613263565b92915050565b5f6020828403121561392e5761392d61322b565b5b5f61393b84828501613905565b91505092915050565b7f4c69717569645876325a61703a206e6f207061697200000000000000000000005f82015250565b5f613978601583613755565b915061398382613944565b602082019050919050565b5f6020820190508181035f8301526139a58161396c565b9050919050565b7f4e487b71000000000000000000000000000000000000000000000000000000005f52603260045260245ffd5b5f815190506139e781613296565b92915050565b5f60208284031215613a0257613a0161322b565b5b5f613a0f848285016139d9565b91505092915050565b7f4e487b71000000000000000000000000000000000000000000000000000000005f52601160045260245ffd5b5f613a4f8261328d565b9150613a5a8361328d565b9250828203905081811115613a7257613a71613a18565b5b92915050565b5f5ffd5b5f5ffd5b5f5ffd5b5f5f83356001602003843603038112613aa057613a9f613a78565b5b80840192508235915067ffffffffffffffff821115613ac257613ac1613a7c565b5b602083019250602082023603831315613ade57613add613a80565b5b509250929050565b5f82825260208201905092915050565b5f819050919050565b5f5ffd5b5f5ffd5b5f5ffd5b5f5f83356001602003843603038112613b2757613b26613b07565b5b83810192508235915060208301925067ffffffffffffffff821115613b4f57613b4e613aff565b5b602082023603831315613b6557613b64613b03565b5b509250929050565b5f82825260208201905092915050565b5f819050919050565b5f5f83356001602003843603038112613ba257613ba1613b07565b5b83810192508235915060208301925067ffffffffffffffff821115613bca57613bc9613aff565b5b602082023603831315613be057613bdf613b03565b5b509250929050565b5f82825260208201905092915050565b5f819050919050565b5f5f83356001602003843603038112613c1d57613c1c613b07565b5b83810192508235915060208301925067ffffffffffffffff821115613c4557613c44613aff565b5b600182023603831315613c5b57613c5a613b03565b5b509250929050565b5f82825260208201905092915050565b828183375f83830152505050565b5f613c8c8385613c63565b9350613c99838584613c73565b613ca28361353f565b840190509392505050565b5f613cbb6020840184613279565b905092915050565b613ccc81613252565b82525050565b5f613ce060208401846132ac565b905092915050565b613cf18161328d565b82525050565b5f60c08301613d085f840184613c01565b8583035f870152613d1a838284613c81565b92505050613d2b6020840184613cad565b613d386020860182613cc3565b50613d466040840184613cad565b613d536040860182613cc3565b50613d616060840184613cd2565b613d6e6060860182613ce8565b50613d7c6080840184613cd2565b613d896080860182613ce8565b50613d9760a0840184613cd2565b613da460a0860182613ce8565b508091505092915050565b5f613dba8383613cf7565b905092915050565b5f8235600160c003833603038112613ddd57613ddc613b07565b5b82810191505092915050565b5f602082019050919050565b5f613e008385613be8565b935083602084028501613e1284613bf8565b805f5b87811015613e55578484038952613e2c8284613dc2565b613e368582613daf565b9450613e4183613de9565b925060208a01995050600181019050613e15565b50829750879450505050509392505050565b5f60208301613e785f840184613b86565b8583035f870152613e8a838284613df5565b925050508091505092915050565b5f613ea38383613e67565b905092915050565b5f82356001602003833603038112613ec657613ec5613b07565b5b82810191505092915050565b5f602082019050919050565b5f613ee98385613b6d565b935083602084028501613efb84613b7d565b805f5b87811015613f3e578484038952613f158284613eab565b613f1f8582613e98565b9450613f2a83613ed2565b925060208a01995050600181019050613efe565b50829750879450505050509392505050565b5f60208301613f615f840184613b0b565b8583035f870152613f73838284613ede565b925050508091505092915050565b5f613f8c8383613f50565b905092915050565b5f82356001602003833603038112613faf57613fae613b07565b5b82810191505092915050565b5f602082019050919050565b5f613fd28385613ae6565b935083602084028501613fe484613af6565b805f5b87811015614027578484038952613ffe8284613f94565b6140088582613f81565b945061401383613fbb565b925060208a01995050600181019050613fe7565b50829750879450505050509392505050565b5f60a08201905061404c5f83018961336e565b61405960208301886134ab565b614066604083018761336e565b614073606083018661336e565b8181036080830152614086818486613fc7565b9050979650505050505050565b5f5f604083850312156140a9576140a861322b565b5b5f6140b6858286016139d9565b92505060206140c7858286016139d9565b9150509250929050565b5f610100820190506140e55f83018b61336e565b6140f2602083018a61336e565b6140ff60408301896134ab565b61410c60608301886134ab565b61411960808301876134ab565b61412660a08301866134ab565b61413360c083018561336e565b61414060e08301846134ab565b9998505050505050505050565b5f5f5f606084860312156141645761416361322b565b5b5f614171868287016139d9565b9350506020614182868287016139d9565b9250506040614193868287016139d9565b9150509250925092565b5f60a0820190506141b05f83018861336e565b6141bd602083018761336e565b6141ca604083018661336e565b6141d760608301856134ab565b6141e460808301846134ab565b9695505050505050565b7f4c69717569645876325a61703a206e6f206163636573730000000000000000005f82015250565b5f614222601783613755565b915061422d826141ee565b602082019050919050565b5f6020820190508181035f83015261424f81614216565b9050919050565b5f60e0820190506142695f83018a61336e565b614276602083018961336e565b61428360408301886134ab565b61429060608301876134ab565b61429d60808301866134ab565b6142aa60a083018561336e565b6142b760c08301846134ab565b98975050505050505050565b5f81519050919050565b5f82825260208201905092915050565b5f819050602082019050919050565b5f6142f78383613cc3565b60208301905092915050565b5f602082019050919050565b5f614319826142c3565b61432381856142cd565b935061432e836142dd565b805f5b8381101561435e57815161434588826142ec565b975061435083614303565b925050600181019050614331565b5085935050505092915050565b5f60a08201905061437e5f8301886134ab565b61438b60208301876134ab565b818103604083015261439d818661430f565b90506143ac606083018561336e565b6143b960808301846134ab565b9695505050505050565b5f67ffffffffffffffff8211156143dd576143dc61354f565b5b602082029050602081019050919050565b5f6144006143fb846143c3565b6135ad565b90508083825260208201905060208402830185811115614423576144226133b8565b5b835b8181101561444c578061443888826139d9565b845260208401935050602081019050614425565b5050509392505050565b5f82601f83011261446a5761446961353b565b5b815161447a8482602086016143ee565b91505092915050565b5f602082840312156144985761449761322b565b5b5f82015167ffffffffffffffff8111156144b5576144b461322f565b5b6144c184828501614456565b91505092915050565b5f6144d48261328d565b91506144df8361328d565b92508282019050808211156144f7576144f6613a18565b5b92915050565b5f6040820190506145105f83018561336e565b61451d60208301846134ab565b9392505050565b5f6060820190506145375f83018661336e565b614544602083018561336e565b61455160408301846134ab565b949350505050565b5f6dffffffffffffffffffffffffffff82169050919050565b61457b81614559565b8114614585575f5ffd5b50565b5f8151905061459681614572565b92915050565b5f63ffffffff82169050919050565b6145b48161459c565b81146145be575f5ffd5b50565b5f815190506145cf816145ab565b92915050565b5f5f5f606084860312156145ec576145eb61322b565b5b5f6145f986828701614588565b935050602061460a86828701614588565b925050604061461b868287016145c1565b9150509250925092565b5f819050919050565b5f819050919050565b5f61465161464c61464784614625565b61462e565b61328d565b9050919050565b61466181614637565b82525050565b5f60a08201905061467a5f8301886134ab565b6146876020830187614658565b8181036040830152614699818661430f565b90506146a8606083018561336e565b6146b560808301846134ab565b9695505050505050565b5f815190506146cd816134d3565b92915050565b5f602082840312156146e8576146e761322b565b5b5f6146f5848285016146bf565b91505092915050565b7f5361666545524332303a204552433230206f7065726174696f6e20646964206e5f8201527f6f74207375636365656400000000000000000000000000000000000000000000602082015250565b5f614758602a83613755565b9150614763826146fe565b604082019050919050565b5f6020820190508181035f8301526147858161474c565b9050919050565b7f5361666545524332303a20617070726f76652066726f6d206e6f6e2d7a65726f5f8201527f20746f206e6f6e2d7a65726f20616c6c6f77616e636500000000000000000000602082015250565b5f6147e6603683613755565b91506147f18261478c565b604082019050919050565b5f6020820190508181035f830152614813816147da565b9050919050565b5f6148248261328d565b915061482f8361328d565b925082820261483d8161328d565b9150828204841483151761485457614853613a18565b5b5092915050565b7f4e487b71000000000000000000000000000000000000000000000000000000005f52601260045260245ffd5b5f6148928261328d565b915061489d8361328d565b9250826148ad576148ac61485b565b5b828204905092915050565b7f416464726573733a20696e73756666696369656e742062616c616e636520666f5f8201527f722063616c6c0000000000000000000000000000000000000000000000000000602082015250565b5f614912602683613755565b915061491d826148b8565b604082019050919050565b5f6020820190508181035f83015261493f81614906565b9050919050565b5f81519050919050565b8281835e5f83830152505050565b5f61496882614946565b61497281856137cd565b9350614982818560208601614950565b80840191505092915050565b5f614999828461495e565b915081905092915050565b7f416464726573733a2063616c6c20746f206e6f6e2d636f6e74726163740000005f82015250565b5f6149d8601d83613755565b91506149e3826149a4565b602082019050919050565b5f6020820190508181035f830152614a05816149cc565b9050919050565b5f81519050919050565b5f614a2082614a0c565b614a2a8185613755565b9350614a3a818560208601614950565b614a438161353f565b840191505092915050565b5f6020820190508181035f830152614a668184614a16565b90509291505056fea2646970667358221220b602bff5ee15b86470e5077bc1f1cec7ac1b050d97e155ee211e9f78ba3228ee64736f6c634300081e0033","linkReferences":{}},"methodIdentifiers":{"balanceOf(address,address,uint256)":"e93119d9","deposit(address,address,address,((((string,address,address,uint256,uint256,uint256)[])[])[]),address,address,uint256[3],uint256)":"47a12485","factory()":"c45a0155","operatorSetter()":"1bcbcb81","operators(address)":"13e7c9d8","rewarder()":"dcc3e06e","router()":"f887ea40","setOperator(address,bool)":"558a7297","setOperatorSetter(address)":"02c7ed45","setRewarder(address)":"3a6462e4","setRouterAndFactory(address)":"f44a3667","setSwapPlus(address)":"d34f646f","swapPlus()":"63f32466","withdraw(address,address,address,uint256,address,uint256,address,((((string,address,address,uint256,uint256,uint256)[])[])[]),uint256[3])":"a49cb2a6","withdrawToken(address,address,uint256)":"01e33667","wrappedETH()":"c9b435bd"},"id":1}