{"abi":[{"type":"constructor","inputs":[],"stateMutability":"nonpayable"},{"type":"receive","stateMutability":"payable"},{"type":"function","name":"deposit","inputs":[{"name":"assets","type":"uint256","internalType":"uint256"}],"outputs":[{"name":"","type":"uint256","internalType":"uint256"}],"stateMutability":"pure"},{"type":"function","name":"executeOnOpportunity","inputs":[],"outputs":[],"stateMutability":"nonpayable"},{"type":"function","name":"profitAmount","inputs":[],"outputs":[{"name":"","type":"uint256","internalType":"uint256"}],"stateMutability":"view"},{"type":"function","name":"profitToken","inputs":[],"outputs":[{"name":"","type":"address","internalType":"address"}],"stateMutability":"pure"},{"type":"function","name":"totalAssets","inputs":[],"outputs":[{"name":"","type":"uint256","internalType":"uint256"}],"stateMutability":"view"},{"type":"function","name":"withdraw","inputs":[{"name":"assets","type":"uint256","internalType":"uint256"},{"name":"receiver","type":"address","internalType":"address"}],"outputs":[{"name":"withdrawn","type":"uint256","internalType":"uint256"},{"name":"fee","type":"uint256","internalType":"uint256"}],"stateMutability":"nonpayable"}],"bytecode":{"object":"0x60808060405234601557610be5908161001a8239f35b5f80fdfe6080604052600436101561001a575b3615610018575f80fd5b005b5f5f3560e01c8062f714ce1461011557806301e1d114146100fa5780633c2448ed146100de57806349343624146100b65780635ff972cc146100995763b6b55f2514610066575061000e565b3461009657602036600319011261009657506004358061008e5750602060015b604051908152f35b602090610086565b80fd5b503461009657806003193601126100965760209054604051908152f35b503461009657806003193601126100965760206040515f516020610b905f395f51905f528152f35b50346100965780600319360112610096576100f76102f8565b80f35b5034610096578060031936011261009657602061008661024f565b50346101db5760403660031901126101db576024356001600160a01b03811691908290036101db576101555f516020610b905f395f51905f5233146101df565b5f516020610b905f395f51905f523b156101db57604051916394bf804d60e01b8352670de0b6b3a7640000600484015260248301525f82604481835f516020610b905f395f51905f525af180156101d0576101bd575b60409081519060043582526020820152f35b505f6101c891610219565b60405f6101ab565b6040513d5f823e3d90fd5b5f80fd5b156101e657565b60405162461bcd60e51b815260206004820152600b60248201526a1bdb9b1e481d185c99d95d60aa1b6044820152606490fd5b90601f8019910116810190811067ffffffffffffffff82111761023b57604052565b634e487b7160e01b5f52604160045260245ffd5b6102675f516020610b905f395f51905f5233146101df565b6040516318160ddd60e01b81526020816004815f516020610b905f395f51905f525afa9081156101d0575f916102c6575b5080156102c157600181018091116102ad5790565b634e487b7160e01b5f52601160045260245ffd5b505f90565b90506020813d6020116102f0575b816102e160209383610219565b810103126101db57515f610298565b3d91506102d4565b6040516370a0823160e01b81523060048201526020816024815f516020610b905f395f51905f525afa9081156101d0575f916106f9575b5061033861076a565b156103c557610345610a5c565b156103c5576040516370a0823160e01b81523060048201526020816024815f516020610b905f395f51905f525afa9081156101d0575f916106c7575b5015610675575b6040516370a0823160e01b81523060048201526020816024815f516020610b905f395f51905f525afa9081156101d0575f91610643575b506103d0575b6103ce906109d3565b565b5f5b600281106103e1575b506103c5565b6040516370a0823160e01b81523060048201526020816024815f516020610b905f395f51905f525afa9081156101d0575f91610612575b50801561056257604051906303d1689d60e11b825260048201526020816024815f516020610b905f395f51905f525afa80156101d0575f906105e0575b6001915010610555576040516318160ddd60e01b81526020816004815f516020610b905f395f51905f525afa9081156101d0575f916105af575b50808004600114811517156102ad576040516278744560e21b8152906020826004815f516020610b905f395f51905f525afa9182156101d0575f9261057c575b5081156105685704610555575f806040516020810190627b8a6760e11b8252600160248201523060448201526044815261050a606482610219565b5190825f516020610b905f395f51905f525af161052561072b565b9015610562578051906020821061055a57602080820192820191909103126101db57515b610555576001016103d2565b6103db565b50505f610549565b506103db565b634e487b7160e01b5f52601260045260245ffd5b9091506020813d82116105a7575b8161059760209383610219565b810103126101db5751905f6104cf565b3d915061058a565b90506020813d82116105d8575b816105c960209383610219565b810103126101db57515f61048f565b3d91506105bc565b506020813d821161060a575b816105f960209383610219565b810103126101db5760019051610455565b3d91506105ec565b90506020813d821161063b575b8161062c60209383610219565b810103126101db57515f610418565b3d915061061f565b90506020813d60201161066d575b8161065e60209383610219565b810103126101db57515f6103bf565b3d9150610651565b5f8060405160208101906394bf804d60e01b825260016024820152306044820152604481526106a5606482610219565b5190825f516020610b905f395f51905f525af1506106c161072b565b50610388565b90506020813d6020116106f1575b816106e260209383610219565b810103126101db57515f610381565b3d91506106d5565b90506020813d602011610723575b8161071460209383610219565b810103126101db57515f61032f565b3d9150610707565b3d15610765573d9067ffffffffffffffff821161023b576040519161075a601f8201601f191660200184610219565b82523d5f602084013e565b606090565b604051638da5cb5b60e01b6020820152600481526107929061078d602482610219565b610acb565b60405163f77c479160e01b6020820152600481526107b59061078d602482610219565b6001600160a01b039091161590816109c1575b5061091a575b604051638da5cb5b60e01b6020820152600481526107f19061078d602482610219565b306001600160a01b03909116036108c95760405163f77c479160e01b602082015260048152610821602482610219565b30906001600160a01b039061083590610acb565b16036108cd575b604051636ffeda9160e01b60208201526004815261085b602482610219565b30906001600160a01b039061086f90610acb565b160361087a57600190565b5f8060405160208101906358ccbc7960e11b8252306024820152602481526108a3604482610219565b5190825f516020610b905f395f51905f525af16108be61072b565b50156108c957600190565b5f90565b5f8060405160208101906392eefe9b60e01b8252306024820152602481526108f6604482610219565b5190825f516020610b905f395f51905f525af161091161072b565b5061083c575f90565b5f806040516020810190639065714760e01b825273c02aaa39b223fe8d0a0e5c4f27ead9083c756cc260248201526060604482015260146084820152734561726e696e67204672616d656420536861726560601b60a482015260a06064820152600360c48201526222a72360e91b60e482015260e4815261099d61010482610219565b5190825f516020610b905f395f51905f525af16109b861072b565b506107ce575f90565b6001600160a01b03161590505f6107c8565b6040516370a0823160e01b8152306004820152906020826024815f516020610b905f395f51905f525afa9182156101d0575f92610a28575b5080821115610a215781039081116102ad575f55565b50505f8055565b9091506020813d602011610a54575b81610a4460209383610219565b810103126101db5751905f610a0b565b3d9150610a37565b6040516318160ddd60e01b602082015260048152610a8490610a7f602482610219565b610b31565b90158015610ac3575b6102c1576040516278744560e21b602082015260048152610ab390610a7f602482610219565b9015610abd571190565b50505f90565b508015610a8d565b905f8080936020815191015f516020610b905f395f51905f525afa610aee61072b565b9080610b25575b610afc5750565b9091506020818051810103126101db57602001516001600160a01b038116908190036101db5790565b50602081511015610af5565b905f8080936020815191015f516020610b905f395f51905f525afa91610b5561072b565b908380610b83575b15610b7b5750602081519181808201938492010103126101db575190565b919250505f91565b50602082511015610b5d56fe000000000000000000000000863e572b215fd67c855d973f870266cf827aea5ea2646970667358221220e9b2eb831a13760be01262cd61fda566501d9715bd2b2c22df71b16c18fe1ced64736f6c634300081e0033","linkReferences":{}},"methodIdentifiers":{"deposit(uint256)":"b6b55f25","executeOnOpportunity()":"3c2448ed","profitAmount()":"5ff972cc","profitToken()":"49343624","totalAssets()":"01e1d114","withdraw(uint256,address)":"00f714ce"},"id":0}