{"abi":[{"type":"constructor","inputs":[],"stateMutability":"nonpayable"},{"type":"receive","stateMutability":"payable"},{"type":"function","name":"callFunction","inputs":[{"name":"sender","type":"address","internalType":"address"},{"name":"","type":"tuple","internalType":"struct AccountInfo","components":[{"name":"owner","type":"address","internalType":"address"},{"name":"number","type":"uint256","internalType":"uint256"}]},{"name":"data","type":"bytes","internalType":"bytes"}],"outputs":[],"stateMutability":"nonpayable"},{"type":"function","name":"executeFlashLoan","inputs":[{"name":"loanAmount","type":"uint256","internalType":"uint256"}],"outputs":[],"stateMutability":"nonpayable"},{"type":"function","name":"executeOnOpportunity","inputs":[],"outputs":[],"stateMutability":"nonpayable"},{"type":"function","name":"profitAmount","inputs":[],"outputs":[{"name":"","type":"uint256","internalType":"uint256"}],"stateMutability":"view"},{"type":"function","name":"profitToken","inputs":[],"outputs":[{"name":"","type":"address","internalType":"address"}],"stateMutability":"view"},{"type":"function","name":"tokensReceived","inputs":[{"name":"","type":"address","internalType":"address"},{"name":"from","type":"address","internalType":"address"},{"name":"to","type":"address","internalType":"address"},{"name":"","type":"uint256","internalType":"uint256"},{"name":"","type":"bytes","internalType":"bytes"},{"name":"","type":"bytes","internalType":"bytes"}],"outputs":[],"stateMutability":"nonpayable"},{"type":"function","name":"tokensToSend","inputs":[{"name":"","type":"address","internalType":"address"},{"name":"","type":"address","internalType":"address"},{"name":"","type":"address","internalType":"address"},{"name":"","type":"uint256","internalType":"uint256"},{"name":"","type":"bytes","internalType":"bytes"},{"name":"","type":"bytes","internalType":"bytes"}],"outputs":[],"stateMutability":"nonpayable"}],"bytecode":{"object":"0x6080806040523461016057731820a4b7618bde71dce8cdc73aab6c95905fad243b15610160576329965a1d60e01b815230600482018190527f29ddb589b1fb5fc7cf394961c1adf5f8c6454761adf795e67fe149f658abe895602483015260448201525f90818160648183731820a4b7618bde71dce8cdc73aab6c95905fad245af1801561015557610142575b50731820a4b7618bde71dce8cdc73aab6c95905fad243b15610134576040516329965a1d60e01b815230600482018190527fb281fc8c12954d22544db45de3159a39272895b169a852b314f9cc762e44c53b60248301526044820152818160648183731820a4b7618bde71dce8cdc73aab6c95905fad245af180156101375761011f575b604051611f97908161019c8239f35b61012a828092610164565b6101345780610110565b80fd5b6040513d84823e3d90fd5b61014e91505f90610164565b5f5f61008c565b6040513d5f823e3d90fd5b5f80fd5b601f909101601f19168101906001600160401b0382119082101761018757604052565b634e487b7160e01b5f52604160045260245ffdfe6080604052600436101561001a575b3615610018575f80fd5b005b5f5f3560e01c806223de2914610d9e5780633c2448ed14610d865780634934362414610d5e5780635ff972cc14610d4157806375ab978214610d335780638b418713146105035763fb056f6814610071575061000e565b34610481576020366003190112610481576004353033036104d257604080519161009b82846113ed565b60018352601f1982015f5b8181106104b057505081516100ba81611384565b3081525f60208201526100cc84611a9e565b526100d683611a9e565b506080928251916100e785846113ed565b60038352601f1985015f5b81811061049957505060035490610107611adf565b50845191610114836113b4565b5f83525f60208401525f86840152816060840152855192610134846113d0565b600184525f6020850152868401528060608401525f878401523060a08401525f60c0840152602092865161016885826113ed565b5f815260e082015261017986611a9e565b5261018385611a9e565b5061018c611adf565b508551610198816113b4565b5f81525f848201525f878201525f6060820152865183858201528481526101bf88826113ed565b8751916101cb836113d0565b600883525f86840152888301525f60608301525f898301523060a08301525f60c083015260e08201526101fd86611abf565b5261020785611abf565b50600282018092116104855761021b611adf565b50855191610228836113b4565b600183525f848401525f878401526060830152855191610247836113d0565b5f83525f848401528683015260608201525f868201523060a08201525f60c0820152845161027583826113ed565b5f815260e082015261028684611acf565b5261029083611acf565b50731e0447b19bb6ecfdae1e4ae1694b0c3659614e4e3b1561048157919093835194859363a67a6a4560e01b855260448501866004870152825180915281606487019301905f5b88828210610458575050505060031985830301602486015283519182815281810182808560051b8401019601945f925b858410610364578b898b5f82808d038183731e0447b19bb6ecfdae1e4ae1694b0c3659614e4e5af190811561035b5750610348575b50610345611b3a565b80f35b61035491505f906113ed565b5f8161033c565b513d5f823e3d90fd5b9193959750919395601f19828203018452875190815191600983101561044457610180828960e08195948f606090600199859852848301518587015280830151908151151581880152858201516103ba81610e7b565b838801528101516103ca81610e7b565b8c870152015160a0850152606081015160c08501528981015182850152878060a01b0360a08201511661010085015260c08101516101208501520151610160610140840152805191829182610160860152018484015e5f838284010152601f80199101160101990194019401918997969491959395610307565b634e487b7160e01b5f52602160045260245ffd5b835180516001600160a01b03168752850151868601528a985090940193918301916001016102d7565b5f80fd5b634e487b7160e01b5f52601160045260245ffd5b6020906104a4611adf565b828288010152016100f2565b60209084516104be81611384565b5f81525f83820152828288010152016100a6565b60405162461bcd60e51b815260206004820152600960248201526873656c662d6f6e6c7960b81b6044820152606490fd5b34610481576080366003190112610481576004356001600160a01b038116908190036104815760403660231901126104815760643567ffffffffffffffff811161048157610555903690600401610dbb565b9091731e0447b19bb6ecfdae1e4ae1694b0c3659614e4e3303610d02573003610cd057816020918101031261048157356040516370a0823160e01b81523060048201526020816024815f516020611f225f395f51905f525afa8015610a4c5782915f91610c9b575b5010610c675760028101808211610485575f80604051602081019063095ea7b360e01b8252730eee3e3828a45f7601d5f54bf49bb01d1a9df5ea602482015282196044820152604481526106126064826113ed565b5190825f516020611f225f395f51905f525af161062d61140f565b81610c30575b501561096557604051631e573fb760e31b602082019081525f516020611f225f395f51905f526024830152604480830185905282526106a3915f91829161067b6064826113ed565b519082730eee3e3828a45f7601d5f54bf49bb01d1a9df5ea5af161069d61140f565b90611c80565b15610bf6576040516370a0823160e01b8152730eee3e3828a45f7601d5f54bf49bb01d1a9df5ea60048201526020816024815f516020611f425f395f51905f525afa908115610a4c575f91610bc4575b506001811115610b875761070683611cc8565b908115610b4d5760068204918160041c83158015610b3a575b610b32575b508215610b26575b508115610b1d575b808211610b15575b81610746916115a9565b60188111610b0d575b60028110610ac8575f8054600184905560029290925561ff01600160b01b0319909116753212b29e33587a00fb1c83346f5dbfa69a45892300011790556040516370a0823160e01b8152306004820152906020826024815f516020611f425f395f51905f525afa918215610a4c575f92610a94575b506108045f806040516020810190634b8a352960e01b82525f516020611f425f395f51905f5260248201528560448201526044815261067b6064826113ed565b60ff195f54165f5515610a57576040516370a0823160e01b8152306004820152906020826024815f516020611f425f395f51905f525afa918215610a4c575f92610a18575b5082018092116104855711156109db578190825b821515806109d2575b156108dd578281116108d6575b60405163f3fef3a360e01b602082019081525f516020611f225f395f51905f526024830152604480830184905282526108b5915f91829161067b6064826113ed565b6108c45760011c925b9261085d565b929183810390811161048557916108be565b5081610873565b50670186cc6acd4b00028301808211610485575f916108fc83926115c7565b604051602081019163095ea7b360e01b8352731e0447b19bb6ecfdae1e4ae1694b0c3659614e4e602483015260448201526044815261093c6064826113ed565b5190825f516020611f225f395f51905f525af161095761140f565b8161099b575b501561096557005b60405162461bcd60e51b815260206004820152600e60248201526d185c1c1c9bdd994b59985a5b195960921b6044820152606490fd5b80518015925082156109b0575b50508161095d565b81925090602091810103126104815760206109cb910161144e565b81806109a8565b50801515610866565b60405162461bcd60e51b8152602060048201526015602482015274189bdc9c9bddcb5c99595b9d1c9e4b59985a5b1959605a1b6044820152606490fd5b9091506020813d602011610a44575b81610a34602093836113ed565b8101031261048157519085610849565b3d9150610a27565b6040513d5f823e3d90fd5b60405162461bcd60e51b81526020600482015260156024820152741a5b9a5d1a585b0b589bdc9c9bddcb59985a5b1959605a1b6044820152606490fd5b9091506020813d602011610ac0575b81610ab0602093836113ed565b81010312610481575190846107c4565b3d9150610aa3565b60405162461bcd60e51b815260206004820152601960248201527f696e73756666696369656e742d7265656e7472792d726f6f6d000000000000006044820152606490fd5b50601861074f565b90508061073c565b60019150610734565b600c900491508461072c565b925085610724565b50801515801561071f575083811061071f565b60405162461bcd60e51b81526020600482015260126024820152716e6f2d626f72726f772d68656164726f6f6d60701b6044820152606490fd5b60405162461bcd60e51b815260206004820152601560248201527463616c6c6261636b2d6d61726b65742d656d70747960581b6044820152606490fd5b90506020813d602011610bee575b81610bdf602093836113ed565b810103126104815751836106f3565b3d9150610bd2565b60405162461bcd60e51b81526020600482015260126024820152711dd95d1a0b5cdd5c1c1b1e4b59985a5b195960721b6044820152606490fd5b8051801592508215610c45575b505083610633565b8192509060209181010312610481576020610c60910161144e565b8380610c3d565b60405162461bcd60e51b815260206004820152600c60248201526b36b4b9b9b4b73396b637b0b760a11b6044820152606490fd5b9150506020813d602011610cc8575b81610cb7602093836113ed565b8101031261048157819051836105bd565b3d9150610caa565b60405162461bcd60e51b815260206004820152600a6024820152693130b216b9b2b73232b960b11b6044820152606490fd5b60405162461bcd60e51b8152602060048201526009602482015268736f6c6f2d6f6e6c7960b81b6044820152606490fd5b346104815761001836610de9565b34610481575f366003190112610481576020600554604051908152f35b34610481575f366003190112610481576004546040516001600160a01b039091168152602090f35b34610481575f36600319011261048157610018610f87565b3461048157610018610daf36610de9565b50505050509150610e85565b9181601f840112156104815782359167ffffffffffffffff8311610481576020838186019501011161048157565b60c0600319820112610481576004356001600160a01b038116810361048157916024356001600160a01b038116810361048157916044356001600160a01b038116810361048157916064359160843567ffffffffffffffff81116104815781610e5491600401610dbb565b9290929160a4359067ffffffffffffffff821161048157610e7791600401610dbb565b9091565b6002111561044457565b5f54919033601084901c6001600160a01b031614801590610f70575b610f6b576001600160a01b0316730eee3e3828a45f7601d5f54bf49bb01d1a9df5ea1480159190610f57575b50610f54576001600254115f14610f485750600280545f190190555f8054600154604051634b8a352960e01b6020820190815260109390931c6001600160a01b03166024820152604480820192909252908152610f329291829161067b6064826113ed565b15610f3a575b565b5f60025560ff195f54165f55565b5f60025560ff19165f55565b50565b6001600160a01b031630141590505f610ecd565b505050565b50600160ff8416610f8081610e7b565b1415610ea1565b5f5f5460ff8160081c166113805761ff001916610100175f55731820a4b7618bde71dce8cdc73aab6c95905fad243b15610481576040516329965a1d60e01b815230600482018190527f29ddb589b1fb5fc7cf394961c1adf5f8c6454761adf795e67fe149f658abe895602483015260448201525f8160648183731820a4b7618bde71dce8cdc73aab6c95905fad245af18015610a4c5761136d575b50731820a4b7618bde71dce8cdc73aab6c95905fad243b1561136a576040516329965a1d60e01b815230600482018190527fb281fc8c12954d22544db45de3159a39272895b169a852b314f9cc762e44c53b60248301526044820152818160648183731820a4b7618bde71dce8cdc73aab6c95905fad245af1801561130957908291611355575b50506bffffffffffffffffffffffff60a01b6004541660045580600555604051638e8f294b60e01b81525f516020611f425f395f51905f52600482015261012081602481730eee3e3828a45f7601d5f54bf49bb01d1a9df5ea5afa908115611309578291611314575b50158015611269575b610f5457731e0447b19bb6ecfdae1e4ae1694b0c3659614e4e3b15610f545761114361146f565b806003555f1914610f545780806040516020810190631f60aded60e31b825268056bc75e2d631000006024820152602481526111806044826113ed565b519082305af161118e61140f565b501561125c575b670186cc6acd4b00006005541015610f545780806040516020810190631f60aded60e31b8252680d8d726b7177a800006024820152602481526111d96044826113ed565b519082305af16111e761140f565b501561124f575b670186cc6acd4b00006005541015610f5457806040516020810190631f60aded60e31b8252681b1ae4d6e2ef5000006024820152602481526112316044826113ed565b519082305af161123f61140f565b501561124757565b610f38611b3a565b611257611b3a565b6111ee565b611264611b3a565b611195565b50604051638e8f294b60e01b81525f516020611f225f395f51905f52600482015261012081602481730eee3e3828a45f7601d5f54bf49bb01d1a9df5ea5afa9081156113095782916112bd575b501561111c565b9050610120813d8211611301575b816112d961012093836113ed565b810103126112fd576112f660406112ef8361144e565b920161145b565b505f6112b6565b5080fd5b3d91506112cb565b6040513d84823e3d90fd5b9050610120813d821161134d575b8161133061012093836113ed565b810103126112fd5761134660406112ef8361144e565b505f611113565b3d9150611322565b8161135f916113ed565b61136a57805f6110aa565b80fd5b61137991505f906113ed565b5f5f611023565b5050565b6040810190811067ffffffffffffffff8211176113a057604052565b634e487b7160e01b5f52604160045260245ffd5b6080810190811067ffffffffffffffff8211176113a057604052565b610100810190811067ffffffffffffffff8211176113a057604052565b90601f8019910116810190811067ffffffffffffffff8211176113a057604052565b3d15611449573d9067ffffffffffffffff82116113a0576040519161143e601f8201601f1916602001846113ed565b82523d5f602084013e565b606090565b5190811515820361048157565b51906001600160a01b038216820361048157565b60405163295c39a560e01b8152602081600481731e0447b19bb6ecfdae1e4ae1694b0c3659614e4e5afa908115610a4c575f91611577575b506010811161156f575b5f5b8181106114c15750505f1990565b60405163062bd3e960e01b815260048101829052602081602481731e0447b19bb6ecfdae1e4ae1694b0c3659614e4e5afa8015610a4c575f9061152a575b6001600160a01b03165f516020611f225f395f51905f52149050611525576001016114b3565b905090565b506020813d8211611567575b81611543602093836113ed565b81010312610481576115625f516020611f225f395f51905f529161145b565b6114ff565b3d9150611536565b5060106114b1565b90506020813d6020116115a1575b81611592602093836113ed565b8101031261048157515f6114a7565b3d9150611585565b81156115b3570490565b634e487b7160e01b5f52601260045260245ffd5b6040516370a0823160e01b81523060048201526020816024815f516020611f225f395f51905f525afa8015610a4c5782915f91611a69575b501015610f54576040516303795fb160e11b81525f516020611f425f395f51905f52600482015260208160248173c0a47dfe034b400b47bdad5fecda2621de6c4d955afa908115610a4c575f91611a2f575b506001600160a01b031680156119fa576040516370a0823160e01b81523060048201526020816024815f516020611f425f395f51905f525afa908115610a4c575f916119c8575b50801561198e575f80604051602081019063095ea7b360e01b825285602482015282196044820152604481526116cf6064826113ed565b5190825f516020611f425f395f51905f525af16116ea61140f565b81611957575b501561096557600c1c801561194f575b5f60014201804211925b600c83106117ce575b50505050506040516370a0823160e01b81523060048201526020816024815f516020611f225f395f51905f525afa908115610a4c575f9161179c575b501061175757565b60405162461bcd60e51b815260206004820152601a60248201527f696e73756666696369656e742d7265616c697a65642d776574680000000000006044820152606490fd5b90506020813d6020116117c6575b816117b7602093836113ed565b8101031261048157515f61174f565b3d91506117aa565b6040516370a0823160e01b81523060048201526020816024815f516020611f225f395f51905f525afa8015610a4c5787915f9161191b575b501015611916576040516370a0823160e01b81523060048201526020816024815f516020611f425f395f51905f525afa908115610a4c575f916118e5575b5080156118df5780859183116118d7575b5061048557604051906395e3c50b60e01b8252806004830152600160248301528260448301526020826064815f8a5af18015610a4c576118a6575b6001915061189c611e37565b811b92019161170a565b6020823d82116118cf575b816118be602093836113ed565b810103126104815760019150611890565b3d91506118b1565b91505f611855565b50611713565b90506020813d821161190e575b816118ff602093836113ed565b8101031261048157515f611844565b3d91506118f2565b611713565b9150506020813d8211611947575b81611936602093836113ed565b81010312610481578690515f611806565b3d9150611929565b506001611700565b805180159250821561196c575b50505f6116f0565b8192509060209181010312610481576020611987910161144e565b5f80611964565b60405162461bcd60e51b81526020600482015260126024820152711b9bcb58d85b1b189858dacb5c1c9bd99a5d60721b6044820152606490fd5b90506020813d6020116119f2575b816119e3602093836113ed565b8101031261048157515f611698565b3d91506119d6565b60405162461bcd60e51b815260206004820152600d60248201526c6e6f2d756e69737761702d763160981b6044820152606490fd5b90506020813d602011611a61575b81611a4a602093836113ed565b8101031261048157611a5b9061145b565b5f611651565b3d9150611a3d565b9150506020813d602011611a96575b81611a85602093836113ed565b81010312610481578190515f6115ff565b3d9150611a78565b805115611aab5760200190565b634e487b7160e01b5f52603260045260245ffd5b805160011015611aab5760400190565b805160021015611aab5760600190565b60405190611aec826113d0565b606060e0835f81525f6020820152604051611b06816113b4565b5f81525f60208201525f60408201525f8482015260408201525f838201525f60808201525f60a08201525f60c08201520152565b611b42611e37565b6040516370a0823160e01b81523060048201526020816024815f516020611f225f395f51905f525afa908115610a4c575f91611c4e575b5080611c2a57506040516370a0823160e01b81523060048201526020816024815f516020611f425f395f51905f525afa908115610a4c575f91611bf8575b5080611bd45750600480546001600160a01b03191690555f600555565b600480546001600160a01b0319165f516020611f425f395f51905f52179055600555565b90506020813d602011611c22575b81611c13602093836113ed565b8101031261048157515f611bb7565b3d9150611c06565b600480546001600160a01b0319165f516020611f225f395f51905f52179055600555565b90506020813d602011611c78575b81611c69602093836113ed565b8101031261048157515f611b79565b3d9150611c5c565b158015611caa575b611ca5576020815191818082019384920101031261048157511590565b505f90565b506020815110611c88565b8181029291811591840414171561048557565b8015611ca557611d086040516317a6948f60e21b60208201525f516020611f225f395f51905f52602482015260248152611d036044826113ed565b611e90565b611d3d6040516317a6948f60e21b60208201525f516020611f425f395f51905f52602482015260248152611d036044826113ed565b60405163b4eae1cb60e01b602082015260048152611d6090611d036024826113ed565b91611d83604051635c5dae2160e11b602082015260048152611d036024826113ed565b9381158015611e2f575b8015611e27575b611e1e57670de0b6b3a764000091611dab91611cb5565b0492670de0b6b3a7640000019182670de0b6b3a76400001161048557670de0b6b3a7640000611dde8194611de494611cb5565b04611cb5565b048015611e1857670de0b6b3a7640000820291808304670de0b6b3a7640000149015171561048557611e15916115a9565b90565b50505f90565b50505050505f90565b508315611d94565b508215611d8d565b4780611e405750565b5f516020611f225f395f51905f523b15610481575f60049160405192838092630d0e30db60e41b82525f516020611f225f395f51905f525af18015610a4c57611e865750565b5f610f38916113ed565b5f809160208151910182730eee3e3828a45f7601d5f54bf49bb01d1a9df5ea5af1611eb961140f565b9080611f15575b15611edd5760208151918180820193849201010312610481575190565b60405162461bcd60e51b815260206004820152601060248201526f1c9958590b5d5a5b9d0b59985a5b195960821b6044820152606490fd5b50602081511015611ec056fe000000000000000000000000c02aaa39b223fe8d0a0e5c4f27ead9083c756cc20000000000000000000000003212b29e33587a00fb1c83346f5dbfa69a458923a2646970667358221220f92b4ce93fc0fce84a54f455421a2c44659472edb592cdd1fe350461a6a2e98b64736f6c634300081e0033","linkReferences":{}},"methodIdentifiers":{"callFunction(address,(address,uint256),bytes)":"8b418713","executeFlashLoan(uint256)":"fb056f68","executeOnOpportunity()":"3c2448ed","profitAmount()":"5ff972cc","profitToken()":"49343624","tokensReceived(address,address,address,uint256,bytes,bytes)":"0023de29","tokensToSend(address,address,address,uint256,bytes,bytes)":"75ab9782"},"id":0}