{"abi":[{"type":"constructor","inputs":[],"stateMutability":"nonpayable"},{"type":"receive","stateMutability":"payable"},{"type":"function","name":"attemptedCToken","inputs":[],"outputs":[{"name":"","type":"address","internalType":"address"}],"stateMutability":"view"},{"type":"function","name":"attemptedMarkets","inputs":[],"outputs":[{"name":"","type":"uint256","internalType":"uint256"}],"stateMutability":"view"},{"type":"function","name":"attemptedMintAmount","inputs":[],"outputs":[{"name":"","type":"uint256","internalType":"uint256"}],"stateMutability":"view"},{"type":"function","name":"attemptedUnderlying","inputs":[],"outputs":[{"name":"","type":"address","internalType":"address"}],"stateMutability":"view"},{"type":"function","name":"encounteredUnknownMarket","inputs":[],"outputs":[{"name":"","type":"bool","internalType":"bool"}],"stateMutability":"view"},{"type":"function","name":"executeOnOpportunity","inputs":[],"outputs":[],"stateMutability":"nonpayable"},{"type":"function","name":"exploitPathUsed","inputs":[],"outputs":[{"name":"","type":"string","internalType":"string"}],"stateMutability":"pure"},{"type":"function","name":"hypothesisRefuted","inputs":[],"outputs":[{"name":"","type":"bool","internalType":"bool"}],"stateMutability":"view"},{"type":"function","name":"hypothesisValidated","inputs":[],"outputs":[{"name":"","type":"bool","internalType":"bool"}],"stateMutability":"view"},{"type":"function","name":"lastFailureReason","inputs":[],"outputs":[{"name":"","type":"string","internalType":"string"}],"stateMutability":"view"},{"type":"function","name":"observedCTokenDelta","inputs":[],"outputs":[{"name":"","type":"uint256","internalType":"uint256"}],"stateMutability":"view"},{"type":"function","name":"observedCashDelta","inputs":[],"outputs":[{"name":"","type":"uint256","internalType":"uint256"}],"stateMutability":"view"},{"type":"function","name":"observedMintPause","inputs":[],"outputs":[{"name":"","type":"bool","internalType":"bool"}],"stateMutability":"view"},{"type":"function","name":"observedTransferShortfall","inputs":[],"outputs":[{"name":"","type":"bool","internalType":"bool"}],"stateMutability":"view"},{"type":"function","name":"profitAchieved","inputs":[],"outputs":[{"name":"","type":"bool","internalType":"bool"}],"stateMutability":"view"},{"type":"function","name":"profitAmount","inputs":[],"outputs":[{"name":"","type":"uint256","internalType":"uint256"}],"stateMutability":"view"},{"type":"function","name":"profitToken","inputs":[],"outputs":[{"name":"","type":"address","internalType":"address"}],"stateMutability":"view"},{"type":"function","name":"startFlashswap","inputs":[{"name":"pair","type":"address","internalType":"address"},{"name":"cToken","type":"address","internalType":"address"},{"name":"underlying","type":"address","internalType":"address"},{"name":"amountOut","type":"uint256","internalType":"uint256"}],"outputs":[{"name":"","type":"uint256","internalType":"uint256"}],"stateMutability":"nonpayable"},{"type":"function","name":"uniswapV2Call","inputs":[{"name":"sender","type":"address","internalType":"address"},{"name":"amount0","type":"uint256","internalType":"uint256"},{"name":"amount1","type":"uint256","internalType":"uint256"},{"name":"data","type":"bytes","internalType":"bytes"}],"outputs":[],"stateMutability":"nonpayable"}],"bytecode":{"object":"0x6080806040523460155761235e908161001a8239f35b5f80fdfe6080604052600436101561001a575b3615610018575f80fd5b005b5f3560e01c8062826bf914610148578063041fbd4e14610143578063095842431461013e57806310d1e85c146101395780633c2448ed14610134578063463defd11461012f578063493436241461012a578063495f92f114610125578063498658751461012057806355f7f96a1461011b5780635ff972cc1461011657806366235d83146101115780639b035a191461010c578063a0902cf514610107578063b779baec14610102578063bf98435f146100fd578063d78c4281146100f8578063e707e8a4146100f35763f0a011760361000e57610897565b610872565b61077b565b610514565b6104f7565b6104cf565b6104b2565b610495565b610478565b610450565b61042c565b610407565b6103e0565b6103bb565b6103a3565b610333565b610248565b610180565b61015b565b5f91031261015757565b5f80fd5b34610157575f36600319011261015757602060ff60025460281c166040519015158152f35b34610157575f366003190112610157576020600754604051908152f35b90600182811c921680156101cb575b60208310146101b757565b634e487b7160e01b5f52602260045260245ffd5b91607f16916101ac565b634e487b7160e01b5f52604160045260245ffd5b90601f8019910116810190811067ffffffffffffffff82111761020b57604052565b6101d5565b805180835260209291819084018484015e5f828201840152601f01601f1916010190565b906020610245928181520190610210565b90565b34610157575f366003190112610157576040515f6009546102688161019d565b80845290600181169081156102fe57506001146102a0575b61029c83610290818503826101e9565b60405191829182610234565b0390f35b91905060095f527f6e1540171b6c0c960b71a7020d9f60077f6af931a8bbf590da0223dacf75c7af915f905b8082106102e457509091508101602001610290610280565b9192600181602092548385880101520191019092916102cc565b60ff191660208086019190915291151560051b840190910191506102909050610280565b6001600160a01b0381160361015757565b346101575760803660031901126101575760043561035081610322565b602435604435916064359267ffffffffffffffff841161015757366023850112156101575783600401359267ffffffffffffffff8411610157573660248587010111610157576024610018950192610a2a565b34610157575f36600319011261015757610018610cba565b34610157575f36600319011261015757602060ff60025460081c166040519015158152f35b34610157575f366003190112610157575f546040516001600160a01b039091168152602090f35b34610157575f36600319011261015757602060ff60025460101c166040519015158152f35b34610157575f36600319011261015757602060ff600254821c166040519015158152f35b34610157575f366003190112610157576005546040516001600160a01b039091168152602090f35b34610157575f366003190112610157576020600154604051908152f35b34610157575f366003190112610157576020600354604051908152f35b34610157575f366003190112610157576020600654604051908152f35b34610157575f366003190112610157576004546040516001600160a01b039091168152602090f35b34610157575f366003190112610157576020600854604051908152f35b346101575760803660031901126101575760043561053181610322565b60243561053d81610322565b6044359061054a82610322565b60643591610559303314610f41565b600a80546001600160a01b03191690556105725f600b55565b61057b5f600c55565b6105845f600d55565b604051630dfe168160e01b81526001600160a01b038516949091602083600481895afa92831561068d575f9361075a575b5060405163d21220a760e01b8152916020836004818a5afa92831561068d575f93610725575b50604080516001600160a01b03928316602082015295821690860152811660608501526080808501869052845261061360a0856101e9565b6001600160a01b0390811692168203610692575050823b1561015757610654925f928360405180968195829463022c0d9f60e01b8452309060048501610fb8565b03925af1801561068d57610673575b505b600b54604051908152602090f35b806106815f610687936101e9565b8061014d565b5f610663565b6109b0565b6001600160a01b0316036106f557823b15610157576106cc925f928360405180968195829463022c0d9f60e01b8452309060048501610f8e565b03925af1801561068d576106e1575b50610665565b806106815f6106ef936101e9565b5f6106db565b60405162461bcd60e51b81526020600482015260086024820152673130b2103830b4b960c11b6044820152606490fd5b61061391935061074c9060203d602011610753575b61074481836101e9565b810190610f79565b92906105db565b503d61073a565b61077491935060203d6020116107535761074481836101e9565b915f6105b5565b34610157575f3660031901126101575761029c60405161079c60c0826101e9565b609a81527f616c7465726e617465207075626c6963206c6971756964697479202d3e206d6960208201527f6e74202d3e206d696e74467265736820636f6d7075746573206d696e74546f6b60408201527f656e732066726f6d206d696e74416d6f756e74202d3e20646f5472616e73666560608201527f72496e207265636569766573206c657373207468616e206d696e74416d6f756e60808201527f74202d3e2072656465656d206578636573732063546f6b656e7300000000000060a0820152604051918291602083526020830190610210565b34610157575f36600319011261015757602060ff60025460181c166040519015158152f35b34610157575f36600319011261015757602060ff600254166040519015158152f35b156108c057565b60405162461bcd60e51b815260206004820152600a6024820152693130b21039b2b73232b960b11b6044820152606490fd5b919082608091031261015757813561090981610322565b91602081013561091881610322565b916060604083013561092981610322565b92013590565b1561093657565b60405162461bcd60e51b815260206004820152600a6024820152693130b21031b0b63632b960b11b6044820152606490fd5b1561096f57565b60405162461bcd60e51b815260206004820152600a60248201526918985908185b5bdd5b9d60b21b6044820152606490fd5b90816020910312610157575190565b6040513d5f823e3d90fd5b156109c257565b60405162461bcd60e51b81526020600482015260086024820152676e6f2066756e647360c01b6044820152606490fd5b156109f957565b60405162461bcd60e51b81526020600482015260096024820152681b9bc81c1c9bd99a5d60ba1b6044820152606490fd5b91939092610a8392610a539290610a4b906001600160a01b031630146108b9565b8101906108f2565b6001600160a01b03918216969095939091169391928591610a7533871461092f565b8115610bc257505b14610968565b6040516370a0823160e01b815230600482015292602084602481885afa801561068d57610af3610ada610af89288610afd96610b04995f93610ba1575b50610acc8315156109bb565b6001600160a01b031661122b565b9190610ae581600755565b610aee83600855565b600c55565b600d55565b61156e565b9083611639565b6040516370a0823160e01b815230600482015290602082602481845afa90811561068d57610b6a925f92610b6c575b50610b6590610b438315156109f2565b60018060a01b03166bffffffffffffffffffffffff60a01b600a541617600a55565b600b55565b565b610b65919250610b939060203d602011610b9a575b610b8b81836101e9565b8101906109a1565b9190610b33565b503d610b81565b610bbb91935060203d602011610b9a57610b8b81836101e9565b915f610ac0565b9050610a7d565b90610b6a60405192836101e9565b6020818303126101575780519067ffffffffffffffff821161015757019080601f830112156101575781519167ffffffffffffffff831161020b578260051b9060405193610c2860208401866101e9565b845260208085019282010192831161015757602001905b828210610c4c5750505090565b602080918351610c5b81610322565b815201910190610c3f565b634e487b7160e01b5f52603260045260245ffd5b8051821015610c8e5760209160051b010190565b610c66565b634e487b7160e01b5f52601160045260245ffd5b5f198114610cb55760010190565b610c93565b610cc261187b565b60405163b0772d0b60e01b81525f81600481733d9819210a31b4961b30ef54be2aed79b9c9cd3b5afa90811561068d575f91610f1f575b505f5b60028110610d1c575050610b6a6201000062ff0000196002541617600255565b80155f5b8351811015610f1557610d43610d368286610c7a565b516001600160a01b031690565b610d4c81611913565b6001600160a01b0381169182158015610f03575b610ed45784610d6e83611a2d565b81610efa575b8115610edf575b50610ed45781610dd391610d98610d93600354610ca7565b600355565b600480546001600160a01b0319166001600160a01b038316179055600580546001600160a01b0319166001600160a01b038416179055611a94565b610de35750506001905b01610d20565b5f80546001600160a01b0319166001600160a01b039092169190911790559350610e0c92505050565b6040516370a0823160e01b815230600482015290602090829060249082905afa801561068d57610e43915f91610eb6575b50600155565b610e5d600154151560ff8019600254169115151617600255565b610e85610e6c60025460ff1690565b61ff0060025491151560081b169061ff00191617600255565b610b6a610e9b610e9760025460ff1690565b1590565b62ff000060025491151560101b169062ff0000191617600255565b610ece915060203d8111610b9a57610b8b81836101e9565b5f610e3d565b505050600190610ddd565b60018814915081610ef2575b505f610d7b565b90505f610eeb565b80159150610d74565b50610f10610e978361197e565b610d60565b5050600101610cfc565b610f3b91503d805f833e610f3381836101e9565b810190610bd7565b5f610cf9565b15610f4857565b60405162461bcd60e51b815260206004820152600960248201526873656c66206f6e6c7960b81b6044820152606490fd5b90816020910312610157575161024581610322565b61024593926080925f8352602083015260018060a01b031660408201528160608201520190610210565b9081525f60208201526001600160a01b03909116604082015260806060820181905261024592910190610210565b67ffffffffffffffff811161020b57601f01601f191660200190565b1561100957565b60405162461bcd60e51b8152602060048201526008602482015267626164207261746560c01b6044820152606490fd5b1561104057565b60405162461bcd60e51b81526020600482015260086024820152670617070726f7665360c41b6044820152606490fd5b1561107757565b60405162461bcd60e51b8152602060048201526007602482015266617070726f766560c81b6044820152606490fd5b156110ad57565b606460405162461bcd60e51b81526020600482015260046024820152631b5a5b9d60e21b6044820152fd5b91908203918211610cb557565b156110ec57565b60405162461bcd60e51b815260206004820152600c60248201526b1b9bc81cda1bdc9d19985b1b60a21b6044820152606490fd5b1561112757565b60405162461bcd60e51b815260206004820152600960248201526837379031ba37b5b2b760b91b6044820152606490fd5b81810292918115918404141715610cb557565b8115611175570490565b634e487b7160e01b5f52601260045260245ffd5b9060028201809211610cb557565b9060408201809211610cb557565b91908201809211610cb557565b156111b957565b60405162461bcd60e51b81526020600482015260156024820152740dad2dce8cac840dedc40c2c6e8eac2d840c6c2e6d605b1b6044820152606490fd5b156111fd57565b60405162461bcd60e51b815260206004820152600660248201526572656465656d60d01b6044820152606490fd5b6040516370a0823160e01b81526001600160a01b0382811660048301529194929390918416602083602481845afa92831561068d575f9361154d575b506040516370a0823160e01b81523060048201526001600160a01b038716939091602083602481885afa92831561068d575f9361152c575b5060405163182df0f560e01b8152602081600481895afa97881561068d5789915f996114ff575b50856112f7926112f2926112db8c1515611002565b6112ed6112e88383611d0d565b611039565b611d84565b611070565b61130084600655565b60405163140e25ad60e31b815260048101859052976020896024815f8a5af191821561068d5761133e60209361136b9b5f916114e2575b50156110a6565b6040516370a0823160e01b81526001600160a01b0390921660048301529098899190829081906024820190565b03915afa96871561068d575f976114c1575b506040516370a0823160e01b815230600482015296602088602481885afa97881561068d575f98611482575b506113ed6113cb61140795946113c5611400956113fb956110d8565b9a6110d8565b976113dc858b1080611461576110e5565b6113e7891515611120565b88611158565b670de0b6b3a7640000900490565b611189565b10156111b2565b60405163db006a7560e01b81526004810184905290602090829060249082905f905af1801561068d57610b6a915f91611442575b50156111f6565b61145b915060203d602011610b9a57610b8b81836101e9565b5f61143b565b61147d6501000000000065ff0000000000196002541617600255565b6110e5565b6113fb9198506113cb61140795946113c5611400956114b26113ed9560203d602011610b9a57610b8b81836101e9565b9c9550955050949550506113a9565b6114db91975060203d602011610b9a57610b8b81836101e9565b955f61137d565b6114f99150853d8711610b9a57610b8b81836101e9565b5f611337565b6112f29199506112f792611522889260203d602011610b9a57610b8b81836101e9565b9a925092506112c6565b61154691935060203d602011610b9a57610b8b81836101e9565b915f61129f565b61156791935060203d602011610b9a57610b8b81836101e9565b915f611267565b6103e88102908082046103e81490151715610cb5576103e5900460018101809111610cb55790565b1561159d57565b60405162461bcd60e51b8152602060048201526005602482015264726570617960d81b6044820152606490fd5b156115d157565b60405162461bcd60e51b81526020600482015260086024820152673a3930b739b332b960c11b6044820152606490fd5b1561160857565b60405162461bcd60e51b81526020600482015260096024820152681d5b99195c9c185a5960ba1b6044820152606490fd5b6040516370a0823160e01b81526001600160a01b0383811660048301529094939082169290602086602481875afa95861561068d575f966117a8575b505f90815b600583108061179f575b1561178c576116a36116996116a892846110d8565b60058104906111a5565b611197565b6040516370a0823160e01b81523060048201526020816024818a5afa91821561068d576116fb926116f6925f9161176e575b50808211611766575b506116ef811515611596565b8587611dcc565b6115ca565b6040516370a0823160e01b81526001600160a01b0384166004820152602081602481895afa801561068d578861173c91611742935f91611748575b506110d8565b92610ca7565b9161167a565b611760915060203d8111610b9a57610b8b81836101e9565b5f611736565b90505f6116e3565b611786915060203d8111610b9a57610b8b81836101e9565b5f6116da565b935093505050610b6a9293501015611601565b50818110611684565b6117c291965060203d602011610b9a57610b8b81836101e9565b945f611675565b8181106117d4575050565b5f81556001016117c9565b9190601f81116117ee57505050565b610b6a925f5260205f20906020601f840160051c83019310611818575b601f0160051c01906117c9565b909150819061180b565b61182d60095461019d565b601f811161183d575b505f600955565b60095f5261187590601f0160051c7f6e1540171b6c0c960b71a7020d9f60077f6af931a8bbf590da0223dacf75c7af908101906117c9565b5f611836565b5f80546001600160a01b03191681556001556002805465ffffffffffff191690556118a55f600355565b600480546001600160a01b0319169055600580546001600160a01b03191690556118ce5f600655565b6118d75f600755565b6118e05f600855565b6118e8611822565b600a80546001600160a01b03191690556119015f600b55565b61190a5f600c55565b610b6a5f600d55565b6001600160a01b0316734ddc2d193948926d02f9b1fe9e1daa0718270ed5811461197957602060049160405192838092636f307dc360e01b82525afa90811561068d575f91611960575090565b610245915060203d6020116107535761074481836101e9565b505f90565b60018060a01b031673dac17f958d2ee523a2206206994597c13d831ec78114908115611a14575b81156119f6575b81156119d8575b81156119bd575090565b730bc529c00c6401aef6d220be8c6ea1667f6ad93e91501490565b73956f47f50a910163d8bf957cf5846d573e7f87ca811491506119b3565b738e870d67f660d95d5be530380d0ec0bd388289e1811491506119ac565b6e085d4780b73119b644ae5ecd22b376811491506119a5565b60018060a01b0316730bc529c00c6401aef6d220be8c6ea1667f6ad93e8114908115611a57575090565b73956f47f50a910163d8bf957cf5846d573e7f87ca91501490565b906003811015610c8e5760051b0190565b906002811015610c8e5760051b0190565b6040611aa06040610bc9565b735c69bee701ef814a2b6a3edd4b1652cb9cc5aa6f81529273c0aee478e3658e2610c5f7a4a2e1777ce9e4f2ac6020850152611adc6060610bc9565b73c02aaa39b223fe8d0a0e5c4f27ead9083c756cc281529273a0b86991c6218b36c1d19d4a2e9eb0ce3606eb486020850152736b175474e89094c44da98b954eedeac495271d0f60408501526040516370a0823160e01b81526001600160a01b03828116600483015290939083169060208580602481010381855afa94851561068d575f95611ca5575b505f5b60028110611b7d5750505050505050505f90565b5f5b60038110611b905750600101611b69565b611ba0610d36828a9b949b611a72565b90896001600160a01b0383168614611c9b57611c0b92611bd7611bcb611bcb610d3660209589611a83565b6001600160a01b031690565b865163e6a4390560e01b81526001600160a01b03808c16600483015290921660248301529093849190829081906044820190565b03915afa91821561068d575f92611c7b575b508787876001600160a01b03851615611c6f57611c3a9394611f55565b611c4b576001905b01979097611b7f565b505050505050505050611c5f600c54600755565b611c6a600d54600855565b600190565b50505060019150611c42565b611c9491925060203d81116107535761074481836101e9565b905f611c1d565b5060019150611c42565b611cbf91955060203d602011610b9a57610b8b81836101e9565b935f611b66565b3d15611cf0573d90611cd782610fe6565b91611ce560405193846101e9565b82523d5f602084013e565b606090565b90816020910312610157575180151581036101575790565b60405163095ea7b360e01b602082019081526001600160a01b0390931660248201525f60448083018290528252928392918390611d4b6064826101e9565b51925af1611d57611cc6565b81611d60575090565b8051801592508215611d7157505090565b6102459250602080918301019101611cf5565b60405163095ea7b360e01b602082019081526001600160a01b03909316602482015260448101939093525f928392908390611d4b81606481015b03601f1981018352826101e9565b60405163a9059cbb60e01b602082019081526001600160a01b03909316602482015260448101939093525f928392908390611d4b8160648101611dbe565b906008811015610c8e5760051b0190565b60405190611e2a6040836101e9565b600e82526d1b5a5b9d081a5cc81c185d5cd95960921b6020830152565b60405190611e566040836101e9565b600c82526b1b9bc81cda1bdc9d19985b1b60a21b6020830152565b90815167ffffffffffffffff811161020b57611e9981611e9260095461019d565b60096117df565b602092601f8211600114611ed957611ec9929382915f92611ece575b50508160011b915f199060031b1c19161790565b600955565b015190505f80611eb5565b60095f52601f198216937f6e1540171b6c0c960b71a7020d9f60077f6af931a8bbf590da0223dacf75c7af915f5b868110611f3d5750836001959610611f25575b505050811b01600955565b01515f1960f88460031b161c191690555f8080611f1a565b91926020600181928685015181550194019201611f07565b9190611f62610100610bc9565b93614e208552612710602086015261138860408601526107d060608601526103e860808601526101f460a086015260c860c0860152606460e0860152611fa88385612196565b50948515612142575f5b60088110611fc557505050505050505f90565b85611fda611fd38385611e0a565b518961116b565b84612119575b801561210f5760405163bf98435f60e01b602082019081526001600160a01b0393841660248301528388166044830152928816606482015260848101919091525f9182916120318160a48101611dbe565b519082305af161203f611cc6565b906120e45790612050600192612276565b61206f61205b611e1b565b826020815191012090602081519101201490565b1561209d576120979061209264010000000064ff00000000196002541617600255565b611e71565b01611fb2565b6120a861205b611e47565b156120bb576120b690611e71565b612097565b8051156120cb576120b690611e71565b506120b6630100000063ff000000196002541617600255565b806020806120f7935183010191016109a1565b61210357600190612097565b50505050505050600190565b5050600190612097565b6032850480151580612139575b612131575b50611fe0565b90505f61212b565b50808211612126565b5050505050505f90565b51906001600160701b038216820361015757565b90816060910312610157576121748161214c565b9160406121836020840161214c565b92015163ffffffff811681036101575790565b604051630240bc6b60e21b81526001600160a01b03919091169190606081600481865afa91821561068d576004935f925f9461223f575b5060209060405195868092630dfe168160e01b82525afa90811561068d576001600160701b03945f9261221e575b506001600160a01b03918216911614612215575016905f90565b90501690600190565b61223891925060203d6020116107535761074481836101e9565b905f6121fb565b6122669194506020935060603d60601161226f575b61225e81836101e9565b810190612160565b509390926121cd565b503d612254565b60448151106123135760208101516001600160e01b0319166307b9e43360e51b016123135760048101518101602481019190602090829003126101575760248101519067ffffffffffffffff8211610157570181604382011215610157576024810151906122e382610fe6565b926122f160405194856101e9565b8284526044828401011161015757815f926044602093018386015e8301015290565b506040516123226020826101e9565b5f81529056fea2646970667358221220393026f833dd3fc101ee2fb1f910bdfb7a3b5edf475298c12df7a7fb53d2473f64736f6c634300081e0033","linkReferences":{}},"methodIdentifiers":{"attemptedCToken()":"a0902cf5","attemptedMarkets()":"66235d83","attemptedMintAmount()":"9b035a19","attemptedUnderlying()":"55f7f96a","encounteredUnknownMarket()":"e707e8a4","executeOnOpportunity()":"3c2448ed","exploitPathUsed()":"d78c4281","hypothesisRefuted()":"495f92f1","hypothesisValidated()":"463defd1","lastFailureReason()":"09584243","observedCTokenDelta()":"b779baec","observedCashDelta()":"041fbd4e","observedMintPause()":"49865875","observedTransferShortfall()":"00826bf9","profitAchieved()":"f0a01176","profitAmount()":"5ff972cc","profitToken()":"49343624","startFlashswap(address,address,address,uint256)":"bf98435f","uniswapV2Call(address,uint256,uint256,bytes)":"10d1e85c"},"id":0}