{"abi":[{"type":"function","name":"getAllowances","inputs":[{"name":"account","type":"address","internalType":"address"},{"name":"spender","type":"address","internalType":"address"}],"outputs":[{"name":"","type":"uint256","internalType":"uint256"}],"stateMutability":"view"},{"type":"function","name":"getFactor","inputs":[],"outputs":[{"name":"","type":"uint256","internalType":"uint256"}],"stateMutability":"view"},{"type":"function","name":"getLargeBalances","inputs":[{"name":"account","type":"address","internalType":"address"}],"outputs":[{"name":"","type":"uint256","internalType":"uint256"}],"stateMutability":"view"},{"type":"function","name":"getLargeTotal","inputs":[],"outputs":[{"name":"","type":"uint256","internalType":"uint256"}],"stateMutability":"view"},{"type":"function","name":"getLiquidityReserve","inputs":[],"outputs":[{"name":"","type":"address","internalType":"address"}],"stateMutability":"view"},{"type":"function","name":"getLockedBalance","inputs":[{"name":"account","type":"address","internalType":"address"}],"outputs":[{"name":"","type":"uint256","internalType":"uint256"}],"stateMutability":"view"},{"type":"function","name":"getPresaleAddress","inputs":[],"outputs":[{"name":"","type":"address","internalType":"address"}],"stateMutability":"view"},{"type":"function","name":"getStabilizer","inputs":[],"outputs":[{"name":"","type":"address","internalType":"address"}],"stateMutability":"view"},{"type":"function","name":"getTotalLockedBalance","inputs":[],"outputs":[{"name":"","type":"uint256","internalType":"uint256"}],"stateMutability":"view"},{"type":"function","name":"getTotalSupply","inputs":[],"outputs":[{"name":"","type":"uint256","internalType":"uint256"}],"stateMutability":"view"},{"type":"function","name":"hasLockedBalance","inputs":[{"name":"account","type":"address","internalType":"address"}],"outputs":[{"name":"","type":"bool","internalType":"bool"}],"stateMutability":"view"},{"type":"function","name":"isPaused","inputs":[],"outputs":[{"name":"","type":"bool","internalType":"bool"}],"stateMutability":"view"},{"type":"function","name":"isPresaleDone","inputs":[],"outputs":[{"name":"","type":"bool","internalType":"bool"}],"stateMutability":"view"},{"type":"function","name":"isTaxLess","inputs":[],"outputs":[{"name":"","type":"bool","internalType":"bool"}],"stateMutability":"view"}],"bytecode":{"object":"0x6080604052348015600e575f5ffd5b506107fa8061001c5f395ff3fe608060405234801561000f575f5ffd5b50600436106100e8575f3560e01c8063ae2089ad1161008a578063b72455bd11610064578063b72455bd1461024e578063c40868931461026c578063c4e41b221461029c578063d5c25890146102ba576100e8565b8063ae2089ad146101d0578063b187bd2614610200578063b21c32781461021e576100e8565b80635184cc43116100c65780635184cc431461015857806380af17991461017657806380dc74da14610194578063927ac386146101b2576100e8565b806322065988146100ec57806323ecdf611461011c5780633f96440e1461013a575b5f5ffd5b6101066004803603810190610101919061062a565b6102d8565b604051610113919061066f565b60405180910390f35b61012461032a565b604051610131919061066f565b60405180910390f35b610142610340565b60405161014f9190610697565b60405180910390f35b610160610368565b60405161016d91906106c8565b60405180910390f35b61017e6103be565b60405161018b9190610697565b60405180910390f35b61019c6103e6565b6040516101a99190610697565b60405180910390f35b6101ba61040e565b6040516101c7919061066f565b60405180910390f35b6101ea60048036038101906101e5919061062a565b610424565b6040516101f791906106c8565b60405180910390f35b610208610469565b604051610215919061066f565b60405180910390f35b610238600480360381019061023391906106e1565b61047f565b60405161024591906106c8565b60405180910390f35b610256610501565b60405161026391906106c8565b60405180910390f35b6102866004803603810190610281919061062a565b61050a565b60405161029391906106c8565b60405180910390f35b6102a4610550565b6040516102b191906106c8565b60405180910390f35b6102c2610559565b6040516102cf91906106c8565b60405180910390f35b5f60035f8373ffffffffffffffffffffffffffffffffffffffff1673ffffffffffffffffffffffffffffffffffffffff1681526020019081526020015f205f9054906101000a900460ff169050919050565b5f600960159054906101000a900460ff16905090565b5f60095f9054906101000a900473ffffffffffffffffffffffffffffffffffffffff16905090565b5f600860149054906101000a900460ff161561039c5761039560065460055461056290919063ffffffff16565b90506103bb565b6103b86103a76105be565b60055461056290919063ffffffff16565b90505b90565b5f60085f9054906101000a900473ffffffffffffffffffffffffffffffffffffffff16905090565b5f60075f9054906101000a900473ffffffffffffffffffffffffffffffffffffffff16905090565b5f600860149054906101000a900460ff16905090565b5f5f5f8373ffffffffffffffffffffffffffffffffffffffff1673ffffffffffffffffffffffffffffffffffffffff1681526020019081526020015f20549050919050565b5f600960149054906101000a900460ff16905090565b5f60015f8473ffffffffffffffffffffffffffffffffffffffff1673ffffffffffffffffffffffffffffffffffffffff1681526020019081526020015f205f8373ffffffffffffffffffffffffffffffffffffffff1673ffffffffffffffffffffffffffffffffffffffff1681526020019081526020015f2054905092915050565b5f600554905090565b5f60025f8373ffffffffffffffffffffffffffffffffffffffff1673ffffffffffffffffffffffffffffffffffffffff1681526020019081526020015f20549050919050565b5f600654905090565b5f600454905090565b5f5f82116105a5576040517f08c379a000000000000000000000000000000000000000000000000000000000815260040161059c90610779565b60405180910390fd5b8183816105b5576105b4610797565b5b04905092915050565b5f66038d7ea4c68000905090565b5f5ffd5b5f73ffffffffffffffffffffffffffffffffffffffff82169050919050565b5f6105f9826105d0565b9050919050565b610609816105ef565b8114610613575f5ffd5b50565b5f8135905061062481610600565b92915050565b5f6020828403121561063f5761063e6105cc565b5b5f61064c84828501610616565b91505092915050565b5f8115159050919050565b61066981610655565b82525050565b5f6020820190506106825f830184610660565b92915050565b610691816105ef565b82525050565b5f6020820190506106aa5f830184610688565b92915050565b5f819050919050565b6106c2816106b0565b82525050565b5f6020820190506106db5f8301846106b9565b92915050565b5f5f604083850312156106f7576106f66105cc565b5b5f61070485828601610616565b925050602061071585828601610616565b9150509250929050565b5f82825260208201905092915050565b7f536166654d6174683a206469766973696f6e206279207a65726f0000000000005f82015250565b5f610763601a8361071f565b915061076e8261072f565b602082019050919050565b5f6020820190508181035f83015261079081610757565b9050919050565b7f4e487b71000000000000000000000000000000000000000000000000000000005f52601260045260245ffdfea264697066735822122045ecca7fb70b0effdf49c1b8d5ec58f2c458f9a6ed791b0c78b97d238be789b964736f6c634300081e0033","linkReferences":{}},"methodIdentifiers":{"getAllowances(address,address)":"b21c3278","getFactor()":"5184cc43","getLargeBalances(address)":"ae2089ad","getLargeTotal()":"b72455bd","getLiquidityReserve()":"80dc74da","getLockedBalance(address)":"c4086893","getPresaleAddress()":"3f96440e","getStabilizer()":"80af1799","getTotalLockedBalance()":"d5c25890","getTotalSupply()":"c4e41b22","hasLockedBalance(address)":"22065988","isPaused()":"b187bd26","isPresaleDone()":"927ac386","isTaxLess()":"23ecdf61"},"id":0}