{"abi":[{"type":"constructor","inputs":[],"stateMutability":"nonpayable"},{"type":"receive","stateMutability":"payable"},{"type":"function","name":"executeOnOpportunity","inputs":[],"outputs":[],"stateMutability":"nonpayable"},{"type":"function","name":"onMorphoFlashLoan","inputs":[{"name":"assets","type":"uint256","internalType":"uint256"},{"name":"data","type":"bytes","internalType":"bytes"}],"outputs":[],"stateMutability":"nonpayable"},{"type":"function","name":"pancakeV3SwapCallback","inputs":[{"name":"","type":"int256","internalType":"int256"},{"name":"amount1Delta","type":"int256","internalType":"int256"},{"name":"","type":"bytes","internalType":"bytes"}],"outputs":[],"stateMutability":"nonpayable"},{"type":"function","name":"profitAmount","inputs":[],"outputs":[{"name":"","type":"uint256","internalType":"uint256"}],"stateMutability":"view"},{"type":"function","name":"profitToken","inputs":[],"outputs":[{"name":"","type":"address","internalType":"address"}],"stateMutability":"view"},{"type":"function","name":"uniswapV2Call","inputs":[{"name":"sender","type":"address","internalType":"address"},{"name":"amount0","type":"uint256","internalType":"uint256"},{"name":"amount1","type":"uint256","internalType":"uint256"},{"name":"data","type":"bytes","internalType":"bytes"}],"outputs":[],"stateMutability":"nonpayable"},{"type":"function","name":"uniswapV3SwapCallback","inputs":[{"name":"","type":"int256","internalType":"int256"},{"name":"amount1Delta","type":"int256","internalType":"int256"},{"name":"","type":"bytes","internalType":"bytes"}],"outputs":[],"stateMutability":"nonpayable"}],"bytecode":{"object":"0x6080604052348015600e575f5ffd5b5073c02aaa39b223fe8d0a0e5c4f27ead9083c756cc25f5f6101000a81548173ffffffffffffffffffffffffffffffffffffffff021916908373ffffffffffffffffffffffffffffffffffffffff1602179055506129658061006f5f395ff3fe608060405260043610610073575f3560e01c80633c2448ed1161004d5780633c2448ed146100f6578063493436241461010c5780635ff972cc14610136578063fa461e33146101605761007a565b806310d1e85c1461007e57806323a69e75146100a657806331f57072146100ce5761007a565b3661007a57005b5f5ffd5b348015610089575f5ffd5b506100a4600480360381019061009f91906119ed565b610188565b005b3480156100b1575f5ffd5b506100cc60048036038101906100c79190611aa4565b610441565b005b3480156100d9575f5ffd5b506100f460048036038101906100ef9190611b15565b610450565b005b348015610101575f5ffd5b5061010a610664565b005b348015610117575f5ffd5b50610120610923565b60405161012d9190611b81565b60405180910390f35b348015610141575f5ffd5b5061014a61094a565b6040516101579190611ba9565b60405180910390f35b34801561016b575f5ffd5b5061018660048036038101906101819190611aa4565b610953565b005b3073ffffffffffffffffffffffffffffffffffffffff168573ffffffffffffffffffffffffffffffffffffffff16146101f6576040517f08c379a00000000000000000000000000000000000000000000000000000000081526004016101ed90611c1c565b60405180910390fd5b5f5f83838101906102079190611c3a565b915091505f61021583610962565b90508073ffffffffffffffffffffffffffffffffffffffff163373ffffffffffffffffffffffffffffffffffffffff1614610285576040517f08c379a000000000000000000000000000000000000000000000000000000000815260040161027c90611cc2565b60405180910390fd5b5f5f88036102935786610295565b875b90508281146102d9576040517f08c379a00000000000000000000000000000000000000000000000000000000081526004016102d090611d2a565b60405180910390fd5b5f6102e382610a0e565b90508060025f8282546102f69190611d75565b925050819055505f73a0b86991c6218b36c1d19d4a2e9eb0ce3606eb4873ffffffffffffffffffffffffffffffffffffffff166370a08231306040518263ffffffff1660e01b815260040161034b9190611b81565b602060405180830381865afa158015610366573d5f5f3e3d5ffd5b505050506040513d601f19601f8201168201806040525081019061038a9190611dbc565b9050650cb7270223408110156103c2576103c16001876103aa9190611d75565b82650cb7270223406103bc9190611de7565b610a3d565b5b600360019054906101000a900460ff166103fd576001600360016101000a81548160ff0219169083151502179055506103fc600254610b98565b5b61041c73a0b86991c6218b36c1d19d4a2e9eb0ce3606eb488584611049565b8160025f82825461042d9190611de7565b925050819055505050505050505050505050565b61044a83611108565b50505050565b73bbbbbbbbbb9cc5e90e3b3af64bdaf62c37eeffcb73ffffffffffffffffffffffffffffffffffffffff163373ffffffffffffffffffffffffffffffffffffffff16146104d2576040517f08c379a00000000000000000000000000000000000000000000000000000000081526004016104c990611e64565b60405180910390fd5b600360019054906101000a900460ff1615610522576040517f08c379a000000000000000000000000000000000000000000000000000000000815260040161051990611ecc565b60405180910390fd5b5f82828101906105329190611eea565b9050808414610576576040517f08c379a000000000000000000000000000000000000000000000000000000000815260040161056d90611f5f565b60405180910390fd5b6001600360016101000a81548160ff02191690831515021790555061059a84610b98565b73a0b86991c6218b36c1d19d4a2e9eb0ce3606eb4873ffffffffffffffffffffffffffffffffffffffff1663095ea7b373bbbbbbbbbb9cc5e90e3b3af64bdaf62c37eeffcb7fffffffffffffffffffffffffffffffffffffffffffffffffffffffffffffffff6040518363ffffffff1660e01b815260040161061d929190611f7d565b6020604051808303815f875af1158015610639573d5f5f3e3d5ffd5b505050506040513d601f19601f8201168201806040525081019061065d9190611fd9565b5050505050565b60035f9054906101000a900460ff16156106b3576040517f08c379a00000000000000000000000000000000000000000000000000000000081526004016106aa9061204e565b60405180910390fd5b600160035f6101000a81548160ff0219169083151502179055505f73a0b86991c6218b36c1d19d4a2e9eb0ce3606eb4873ffffffffffffffffffffffffffffffffffffffff166370a08231306040518263ffffffff1660e01b815260040161071b9190611b81565b602060405180830381865afa158015610736573d5f5f3e3d5ffd5b505050506040513d601f19601f8201168201806040525081019061075a9190611dbc565b90505f73c02aaa39b223fe8d0a0e5c4f27ead9083c756cc273ffffffffffffffffffffffffffffffffffffffff166370a08231306040518263ffffffff1660e01b81526004016107aa9190611b81565b602060405180830381865afa1580156107c5573d5f5f3e3d5ffd5b505050506040513d601f19601f820116820180604052508101906107e99190611dbc565b90505f4790506107f76111d1565b650cb727022340831061082d576001600360016101000a81548160ff0219169083151502179055506108285f610b98565b610913565b5f83650cb7270223406108409190611de7565b90508061084b611297565b1061085f5761085a5f82610a3d565b610911565b73bbbbbbbbbb9cc5e90e3b3af64bdaf62c37eeffcb73ffffffffffffffffffffffffffffffffffffffff1663e0232b4273a0b86991c6218b36c1d19d4a2e9eb0ce3606eb4883846040516020016108b69190611ba9565b6040516020818303038152906040526040518463ffffffff1660e01b81526004016108e3939291906120dc565b5f604051808303815f87803b1580156108fa575f5ffd5b505af115801561090c573d5f5f3e3d5ffd5b505050505b505b61091e8383836112ef565b505050565b5f5f5f9054906101000a900473ffffffffffffffffffffffffffffffffffffffff16905090565b5f600154905090565b61095c83611108565b50505050565b5f5f820361098657733041cbd36888becc7bbcbc0045e3b1f144466f5f9050610a09565b600182036109aa5773b4e16d0168e52d35cacd2c6185b44281ec28c9dc9050610a09565b600282036109ce5773397ff1542f962076d0bfe58ea045ffa2d347aca09050610a09565b6040517f08c379a0000000000000000000000000000000000000000000000000000000008152600401610a0090612162565b60405180910390fd5b919050565b5f60016103e56103e884610a229190612180565b610a2c91906121ee565b610a369190611d75565b9050919050565b5f810315610b945760038210610a88576040517f08c379a0000000000000000000000000000000000000000000000000000000008152600401610a7f90612268565b60405180910390fd5b5f610a9283610962565b90505f5f610a9f8361159b565b9150915060018111610ac957610ac1600186610abb9190611d75565b85610a3d565b505050610b94565b5f8490505f600183610adb9190611de7565b905080821115610ae9578091505b8473ffffffffffffffffffffffffffffffffffffffff1663022c0d9f85610b10575f610b12565b835b86610b1d5784610b1f565b5f5b308b87604051602001610b33929190612286565b6040516020818303038152906040526040518563ffffffff1660e01b8152600401610b6194939291906122ad565b5f604051808303815f87803b158015610b78575f5ffd5b505af1158015610b8a573d5f5f3e3d5ffd5b5050505050505050505b5050565b5f3073ffffffffffffffffffffffffffffffffffffffff1690505f600167ffffffffffffffff811115610bce57610bcd6122f7565b5b604051908082528060200260200182016040528015610bfc5781602001602082028036833780820191505090505b5090507f200000000000000000000000e0554a476a092703abdb3ef35c80e0d76d32939f815f81518110610c3357610c32612324565b5b602002602001018181525050732e1dee213ba8d7af0934c49a23187babeaca876473ffffffffffffffffffffffffffffffffffffffff16630d5f0e3b83650cb7270223406701554edc98b9d23c856040518563ffffffff1660e01b8152600401610ca09493929190612408565b6020604051808303815f875af1158015610cbc573d5f5f3e3d5ffd5b505050506040513d601f19601f82011682018060405250810190610ce09190611dbc565b50736a06707ab339bee00c6663db17ddb422301ff5e873ffffffffffffffffffffffffffffffffffffffff1663e747d9dc64174876e8006040518263ffffffff1660e01b8152600401610d339190611ba9565b6020604051808303815f875af1158015610d4f573d5f5f3e3d5ffd5b505050506040513d601f19601f82011682018060405250810190610d739190611dbc565b507f800000000000000000000000e0554a476a092703abdb3ef35c80e0d76d32939f815f81518110610da857610da7612324565b5b602002602001018181525050732e1dee213ba8d7af0934c49a23187babeaca876473ffffffffffffffffffffffffffffffffffffffff16630d5f0e3b682a48acab61f84c7fe984682a48acab61f84c7fe95f866040518663ffffffff1660e01b8152600401610e1a9493929190612494565b60206040518083038185885af1158015610e36573d5f5f3e3d5ffd5b50505050506040513d601f19601f82011682018060405250810190610e5b9190611dbc565b505f4790505f8114610ed95773c02aaa39b223fe8d0a0e5c4f27ead9083c756cc273ffffffffffffffffffffffffffffffffffffffff1663d0e30db0826040518263ffffffff1660e01b81526004015f604051808303818588803b158015610ec1575f5ffd5b505af1158015610ed3573d5f5f3e3d5ffd5b50505050505b5f8414611043575f73a0b86991c6218b36c1d19d4a2e9eb0ce3606eb4873ffffffffffffffffffffffffffffffffffffffff166370a08231306040518263ffffffff1660e01b8152600401610f2e9190611b81565b602060405180830381865afa158015610f49573d5f5f3e3d5ffd5b505050506040513d601f19601f82011682018060405250810190610f6d9190611dbc565b905084811015611041575f8186610f849190611de7565b905073e0554a476a092703abdb3ef35c80e0d76d32939f73ffffffffffffffffffffffffffffffffffffffff1663128acb08305f610fc18561183f565b610fca906124de565b73fffd8963efd1fc6a506488495d951d5263988d256040518563ffffffff1660e01b8152600401610ffe9493929190612574565b60408051808303815f875af1158015611019573d5f5f3e3d5ffd5b505050506040513d601f19601f8201168201806040525081019061103d91906125de565b5050505b505b50505050565b8273ffffffffffffffffffffffffffffffffffffffff1663a9059cbb83836040518363ffffffff1660e01b8152600401611084929190611f7d565b6020604051808303815f875af11580156110a0573d5f5f3e3d5ffd5b505050506040513d601f19601f820116820180604052508101906110c49190611fd9565b611103576040517f08c379a00000000000000000000000000000000000000000000000000000000081526004016110fa90612666565b60405180910390fd5b505050565b73e0554a476a092703abdb3ef35c80e0d76d32939f73ffffffffffffffffffffffffffffffffffffffff163373ffffffffffffffffffffffffffffffffffffffff161461118a576040517f08c379a0000000000000000000000000000000000000000000000000000000008152600401611181906126ce565b60405180910390fd5b5f8113156111ce576111cd73c02aaa39b223fe8d0a0e5c4f27ead9083c756cc273e0554a476a092703abdb3ef35c80e0d76d32939f6111c8846118ab565b611049565b5b50565b73a0b86991c6218b36c1d19d4a2e9eb0ce3606eb4873ffffffffffffffffffffffffffffffffffffffff1663095ea7b37340aa958dd87fc8305b97f2ba922cddca374bcd7f7fffffffffffffffffffffffffffffffffffffffffffffffffffffffffffffffff6040518363ffffffff1660e01b8152600401611254929190611f7d565b6020604051808303815f875af1158015611270573d5f5f3e3d5ffd5b505050506040513d601f19601f820116820180604052508101906112949190611fd9565b50565b5f5f5f90505b60038110156112eb575f6112b86112b383610962565b61159b565b91505060018111156112df576001816112d19190611de7565b836112dc9190611d75565b92505b5080600101905061129d565b5090565b5f73a0b86991c6218b36c1d19d4a2e9eb0ce3606eb4873ffffffffffffffffffffffffffffffffffffffff166370a08231306040518263ffffffff1660e01b815260040161133d9190611b81565b602060405180830381865afa158015611358573d5f5f3e3d5ffd5b505050506040513d601f19601f8201168201806040525081019061137c9190611dbc565b90505f73c02aaa39b223fe8d0a0e5c4f27ead9083c756cc273ffffffffffffffffffffffffffffffffffffffff166370a08231306040518263ffffffff1660e01b81526004016113cc9190611b81565b602060405180830381865afa1580156113e7573d5f5f3e3d5ffd5b505050506040513d601f19601f8201168201806040525081019061140b9190611dbc565b90505f4790505f86841161141f575f61142c565b868461142b9190611de7565b5b90505f86841161143c575f611449565b86846114489190611de7565b5b90505f868411611459575f611466565b86846114659190611de7565b5b905073c02aaa39b223fe8d0a0e5c4f27ead9083c756cc25f5f6101000a81548173ffffffffffffffffffffffffffffffffffffffff021916908373ffffffffffffffffffffffffffffffffffffffff160217905550816001819055505f6001541480156114d357505f8314155b156115335773a0b86991c6218b36c1d19d4a2e9eb0ce3606eb485f5f6101000a81548173ffffffffffffffffffffffffffffffffffffffff021916908373ffffffffffffffffffffffffffffffffffffffff160217905550826001819055505b5f60015414801561154457505f8114155b15611590575f5f5f6101000a81548173ffffffffffffffffffffffffffffffffffffffff021916908373ffffffffffffffffffffffffffffffffffffffff160217905550806001819055505b505050505050505050565b5f5f5f8390505f8173ffffffffffffffffffffffffffffffffffffffff16630dfe16816040518163ffffffff1660e01b8152600401602060405180830381865afa1580156115eb573d5f5f3e3d5ffd5b505050506040513d601f19601f8201168201806040525081019061160f9190612700565b90505f8273ffffffffffffffffffffffffffffffffffffffff1663d21220a76040518163ffffffff1660e01b8152600401602060405180830381865afa15801561165b573d5f5f3e3d5ffd5b505050506040513d601f19601f8201168201806040525081019061167f9190612700565b905073a0b86991c6218b36c1d19d4a2e9eb0ce3606eb4873ffffffffffffffffffffffffffffffffffffffff168273ffffffffffffffffffffffffffffffffffffffff16148061170e575073a0b86991c6218b36c1d19d4a2e9eb0ce3606eb4873ffffffffffffffffffffffffffffffffffffffff168173ffffffffffffffffffffffffffffffffffffffff16145b61174d576040517f08c379a000000000000000000000000000000000000000000000000000000000815260040161174490612775565b60405180910390fd5b5f5f8473ffffffffffffffffffffffffffffffffffffffff16630902f1ac6040518163ffffffff1660e01b8152600401606060405180830381865afa158015611798573d5f5f3e3d5ffd5b505050506040513d601f19601f820116820180604052508101906117bc919061280f565b509150915073a0b86991c6218b36c1d19d4a2e9eb0ce3606eb4873ffffffffffffffffffffffffffffffffffffffff168473ffffffffffffffffffffffffffffffffffffffff161496508661182157806dffffffffffffffffffffffffffff16611833565b816dffffffffffffffffffffffffffff165b95505050505050915091565b5f7f7fffffffffffffffffffffffffffffffffffffffffffffffffffffffffffffff8211156118a3576040517f08c379a000000000000000000000000000000000000000000000000000000000815260040161189a906128a9565b60405180910390fd5b819050919050565b5f5f8212156118ef576040517f08c379a00000000000000000000000000000000000000000000000000000000081526004016118e690612911565b60405180910390fd5b819050919050565b5f5ffd5b5f5ffd5b5f73ffffffffffffffffffffffffffffffffffffffff82169050919050565b5f611928826118ff565b9050919050565b6119388161191e565b8114611942575f5ffd5b50565b5f813590506119538161192f565b92915050565b5f819050919050565b61196b81611959565b8114611975575f5ffd5b50565b5f8135905061198681611962565b92915050565b5f5ffd5b5f5ffd5b5f5ffd5b5f5f83601f8401126119ad576119ac61198c565b5b8235905067ffffffffffffffff8111156119ca576119c9611990565b5b6020830191508360018202830111156119e6576119e5611994565b5b9250929050565b5f5f5f5f5f60808688031215611a0657611a056118f7565b5b5f611a1388828901611945565b9550506020611a2488828901611978565b9450506040611a3588828901611978565b935050606086013567ffffffffffffffff811115611a5657611a556118fb565b5b611a6288828901611998565b92509250509295509295909350565b5f819050919050565b611a8381611a71565b8114611a8d575f5ffd5b50565b5f81359050611a9e81611a7a565b92915050565b5f5f5f5f60608587031215611abc57611abb6118f7565b5b5f611ac987828801611a90565b9450506020611ada87828801611a90565b935050604085013567ffffffffffffffff811115611afb57611afa6118fb565b5b611b0787828801611998565b925092505092959194509250565b5f5f5f60408486031215611b2c57611b2b6118f7565b5b5f611b3986828701611978565b935050602084013567ffffffffffffffff811115611b5a57611b596118fb565b5b611b6686828701611998565b92509250509250925092565b611b7b8161191e565b82525050565b5f602082019050611b945f830184611b72565b92915050565b611ba381611959565b82525050565b5f602082019050611bbc5f830184611b9a565b92915050565b5f82825260208201905092915050565b7f6261642073656e646572000000000000000000000000000000000000000000005f82015250565b5f611c06600a83611bc2565b9150611c1182611bd2565b602082019050919050565b5f6020820190508181035f830152611c3381611bfa565b9050919050565b5f5f60408385031215611c5057611c4f6118f7565b5b5f611c5d85828601611978565b9250506020611c6e85828601611978565b9150509250929050565b7f6f6e6c79207061697200000000000000000000000000000000000000000000005f82015250565b5f611cac600983611bc2565b9150611cb782611c78565b602082019050919050565b5f6020820190508181035f830152611cd981611ca0565b9050919050565b7f62616420616d6f756e74730000000000000000000000000000000000000000005f82015250565b5f611d14600b83611bc2565b9150611d1f82611ce0565b602082019050919050565b5f6020820190508181035f830152611d4181611d08565b9050919050565b7f4e487b71000000000000000000000000000000000000000000000000000000005f52601160045260245ffd5b5f611d7f82611959565b9150611d8a83611959565b9250828201905080821115611da257611da1611d48565b5b92915050565b5f81519050611db681611962565b92915050565b5f60208284031215611dd157611dd06118f7565b5b5f611dde84828501611da8565b91505092915050565b5f611df182611959565b9150611dfc83611959565b9250828203905081811115611e1457611e13611d48565b5b92915050565b7f6f6e6c79206d6f7270686f0000000000000000000000000000000000000000005f82015250565b5f611e4e600b83611bc2565b9150611e5982611e1a565b602082019050919050565b5f6020820190508181035f830152611e7b81611e42565b9050919050565b7f616c726561647920636f6d706c657465000000000000000000000000000000005f82015250565b5f611eb6601083611bc2565b9150611ec182611e82565b602082019050919050565b5f6020820190508181035f830152611ee381611eaa565b9050919050565b5f60208284031215611eff57611efe6118f7565b5b5f611f0c84828501611978565b91505092915050565b7f62616420617373657473000000000000000000000000000000000000000000005f82015250565b5f611f49600a83611bc2565b9150611f5482611f15565b602082019050919050565b5f6020820190508181035f830152611f7681611f3d565b9050919050565b5f604082019050611f905f830185611b72565b611f9d6020830184611b9a565b9392505050565b5f8115159050919050565b611fb881611fa4565b8114611fc2575f5ffd5b50565b5f81519050611fd381611faf565b92915050565b5f60208284031215611fee57611fed6118f7565b5b5f611ffb84828501611fc5565b91505092915050565b7f616c7265616479206578656375746564000000000000000000000000000000005f82015250565b5f612038601083611bc2565b915061204382612004565b602082019050919050565b5f6020820190508181035f8301526120658161202c565b9050919050565b5f81519050919050565b5f82825260208201905092915050565b8281835e5f83830152505050565b5f601f19601f8301169050919050565b5f6120ae8261206c565b6120b88185612076565b93506120c8818560208601612086565b6120d181612094565b840191505092915050565b5f6060820190506120ef5f830186611b72565b6120fc6020830185611b9a565b818103604083015261210e81846120a4565b9050949350505050565b7f7061697220696e646578000000000000000000000000000000000000000000005f82015250565b5f61214c600a83611bc2565b915061215782612118565b602082019050919050565b5f6020820190508181035f83015261217981612140565b9050919050565b5f61218a82611959565b915061219583611959565b92508282026121a381611959565b915082820484148315176121ba576121b9611d48565b5b5092915050565b7f4e487b71000000000000000000000000000000000000000000000000000000005f52601260045260245ffd5b5f6121f882611959565b915061220383611959565b925082612213576122126121c1565b5b828204905092915050565b7f696e73756666696369656e7420666c617368206c6971756964697479000000005f82015250565b5f612252601c83611bc2565b915061225d8261221e565b602082019050919050565b5f6020820190508181035f83015261227f81612246565b9050919050565b5f6040820190506122995f830185611b9a565b6122a66020830184611b9a565b9392505050565b5f6080820190506122c05f830187611b9a565b6122cd6020830186611b9a565b6122da6040830185611b72565b81810360608301526122ec81846120a4565b905095945050505050565b7f4e487b71000000000000000000000000000000000000000000000000000000005f52604160045260245ffd5b7f4e487b71000000000000000000000000000000000000000000000000000000005f52603260045260245ffd5b5f81519050919050565b5f82825260208201905092915050565b5f819050602082019050919050565b61238381611959565b82525050565b5f612394838361237a565b60208301905092915050565b5f602082019050919050565b5f6123b682612351565b6123c0818561235b565b93506123cb8361236b565b805f5b838110156123fb5781516123e28882612389565b97506123ed836123a0565b9250506001810190506123ce565b5085935050505092915050565b5f60808201905061241b5f830187611b9a565b6124286020830186611b9a565b6124356040830185611b9a565b818103606083015261244781846123ac565b905095945050505050565b5f819050919050565b5f819050919050565b5f61247e61247961247484612452565b61245b565b611959565b9050919050565b61248e81612464565b82525050565b5f6080820190506124a75f830187611b9a565b6124b46020830186611b9a565b6124c16040830185612485565b81810360608301526124d381846123ac565b905095945050505050565b5f6124e882611a71565b91507f8000000000000000000000000000000000000000000000000000000000000000820361251a57612519611d48565b5b815f039050919050565b61252d81611fa4565b82525050565b61253c81611a71565b82525050565b61254b816118ff565b82525050565b50565b5f61255f5f83612076565b915061256a82612551565b5f82019050919050565b5f60a0820190506125875f830187611b72565b6125946020830186612524565b6125a16040830185612533565b6125ae6060830184612542565b81810360808301526125bf81612554565b905095945050505050565b5f815190506125d881611a7a565b92915050565b5f5f604083850312156125f4576125f36118f7565b5b5f612601858286016125ca565b9250506020612612858286016125ca565b9150509250929050565b7f7472616e73666572206661696c656400000000000000000000000000000000005f82015250565b5f612650600f83611bc2565b915061265b8261261c565b602082019050919050565b5f6020820190508181035f83015261267d81612644565b9050919050565b7f6f6e6c7920706f6f6c00000000000000000000000000000000000000000000005f82015250565b5f6126b8600983611bc2565b91506126c382612684565b602082019050919050565b5f6020820190508181035f8301526126e5816126ac565b9050919050565b5f815190506126fa8161192f565b92915050565b5f60208284031215612715576127146118f7565b5b5f612722848285016126ec565b91505092915050565b7f70616972206d697373696e6720757364630000000000000000000000000000005f82015250565b5f61275f601183611bc2565b915061276a8261272b565b602082019050919050565b5f6020820190508181035f83015261278c81612753565b9050919050565b5f6dffffffffffffffffffffffffffff82169050919050565b6127b581612793565b81146127bf575f5ffd5b50565b5f815190506127d0816127ac565b92915050565b5f63ffffffff82169050919050565b6127ee816127d6565b81146127f8575f5ffd5b50565b5f81519050612809816127e5565b92915050565b5f5f5f60608486031215612826576128256118f7565b5b5f612833868287016127c2565b9350506020612844868287016127c2565b9250506040612855868287016127fb565b9150509250925092565b7f696e74206f766572666c6f7700000000000000000000000000000000000000005f82015250565b5f612893600c83611bc2565b915061289e8261285f565b602082019050919050565b5f6020820190508181035f8301526128c081612887565b9050919050565b7f6e656761746976652076616c75650000000000000000000000000000000000005f82015250565b5f6128fb600e83611bc2565b9150612906826128c7565b602082019050919050565b5f6020820190508181035f830152612928816128ef565b905091905056fea26469706673582212208b7016e1936c57d44dc6cc9a0268299a123332f7d2f66c5c505c5ea448873d4d64736f6c634300081e0033","linkReferences":{}},"methodIdentifiers":{"executeOnOpportunity()":"3c2448ed","onMorphoFlashLoan(uint256,bytes)":"31f57072","pancakeV3SwapCallback(int256,int256,bytes)":"23a69e75","profitAmount()":"5ff972cc","profitToken()":"49343624","uniswapV2Call(address,uint256,uint256,bytes)":"10d1e85c","uniswapV3SwapCallback(int256,int256,bytes)":"fa461e33"},"id":0}