{"abi":[{"type":"constructor","inputs":[],"stateMutability":"nonpayable"},{"type":"function","name":"TARGET","inputs":[],"outputs":[{"name":"","type":"address","internalType":"address"}],"stateMutability":"view"},{"type":"function","name":"attemptUsdtPlan","inputs":[{"name":"flashAmount","type":"uint256","internalType":"uint256"},{"name":"manipulateBps","type":"uint256","internalType":"uint256"},{"name":"buyIndex","type":"uint8","internalType":"uint8"}],"outputs":[],"stateMutability":"nonpayable"},{"type":"function","name":"executeOnOpportunity","inputs":[],"outputs":[],"stateMutability":"nonpayable"},{"type":"function","name":"hypothesisValidated","inputs":[],"outputs":[{"name":"","type":"bool","internalType":"bool"}],"stateMutability":"view"},{"type":"function","name":"onFlashLoan","inputs":[{"name":"sender","type":"address","internalType":"address"},{"name":"token","type":"address","internalType":"address"},{"name":"amount","type":"uint256","internalType":"uint256"},{"name":"fee","type":"uint256","internalType":"uint256"},{"name":"data","type":"bytes","internalType":"bytes"}],"outputs":[],"stateMutability":"nonpayable"},{"type":"function","name":"pathUsed","inputs":[],"outputs":[{"name":"","type":"string","internalType":"string"}],"stateMutability":"view"},{"type":"function","name":"profitAmount","inputs":[],"outputs":[{"name":"","type":"uint256","internalType":"uint256"}],"stateMutability":"view"},{"type":"function","name":"profitToken","inputs":[],"outputs":[{"name":"","type":"address","internalType":"address"}],"stateMutability":"view"}],"bytecode":{"object":"0x608080604052346015576147ed908161001a8239f35b5f80fdfe6080806040526004361015610012575f80fd5b5f905f3560e01c90816323e30c8b14610411575080633c2448ed146103f7578063463defd1146103d257806349343624146103ab5780635ff972cc1461038e5780637283898d146102bf578063c517189b146100a05763cc1f2afa14610076575f80fd5b3461009d578060031936011261009d5760206040515f5160206147585f395f51905f528152f35b80fd5b503461021f57606036600319011261021f576004356024359060443560ff81169081810361021f575030330361028e57600181148015610284575b1561025457604051636b2ace8760e01b8152906020826004815f5160206147585f395f51905f525afa918215610214575f92610223575b50604051938360208601526040850152606084015260608352610136608084611c1b565b6006805460ff191660011790556001600160a01b031691823b1561021f576101a3925f928360405180968195829463f1676d3760e01b84523060048501523060248501525f5160206147985f395f51905f526044850152606484015260a0608484015260a4830190611bf7565b03925af1801561021457610201575b5060ff196006541660065560ff60025460081c16156101ce5780f35b60405162461bcd60e51b815260206004820152600b60248201526a1c1b185b8819985a5b195960aa1b6044820152606490fd5b61020d91505f90611c1b565b5f5f6101b2565b6040513d5f823e3d90fd5b5f80fd5b61024691925060203d60201161024d575b61023e8183611c1b565b810190611c51565b905f610112565b503d610234565b60405162461bcd60e51b81526020600482015260086024820152673130b21031b7b4b760c11b6044820152606490fd5b50600281146100db565b60405162461bcd60e51b815260206004820152600960248201526873656c66206f6e6c7960b81b6044820152606490fd5b3461021f575f36600319011261021f576040515f6003546102df81611c70565b808452906001811690811561036a575060011461031f575b61031b8361030781850382611c1b565b604051918291602083526020830190611bf7565b0390f35b91905060035f525f5160206147185f395f51905f52915f905b808210610350575090915081016020016103076102f7565b919260018160209254838588010152019101909291610338565b60ff191660208086019190915291151560051b8401909101915061030790506102f7565b3461021f575f36600319011261021f576020600154604051908152f35b3461021f575f36600319011261021f575f546040516001600160a01b039091168152602090f35b3461021f575f36600319011261021f57602060ff60025460081c166040519015158152f35b3461021f575f36600319011261021f5761040f611d32565b005b3461021f5760a036600319011261021f576004356001600160a01b038116919082900361021f576024356001600160a01b038116919082900361021f57604435916084359367ffffffffffffffff851161021f573660238601121561021f57846004013567ffffffffffffffff811161021f5785019236602485011161021f5760ff6006541615611bc057503003611b8e575f5160206147985f395f51905f5203611b5d57604051636b2ace8760e01b81526020816004815f5160206147585f395f51905f525afa908115610214575f91611b3e575b506001600160a01b03163303611b0c576060908390031261021f576024820135606460448401359301359260ff84169182850361021f57839003611ad55760405163d8dfeb4560e01b8152916020836004815f5160206147585f395f51905f525afa928315610214575f93611ab4575b50604051637e062a3560e11b81526001600160a01b0384169290602081600481875afa8015610214575f5160206147785f395f51905f52915f91611a95575b506001600160a01b031603611a58576105b26127109186612836565b046105bd8186612867565b9181151580611a4f575b15611a1e5760018103611a0457732260fac5e5542a773aa44fbcfedf7c193bc2c5995b6105f383612f2f565b6040516370a0823160e01b81523060048201526001600160a01b0391909116929091602083602481875afa928315610214575f936119d0575b505f806040516020810190630b68372160e31b8252826024820152846044820152856064820152600160848201526084815261066960a482611c1b565b5190825f5160206147785f395f51905f525af191610685612cfc565b50821561196b575b50501561192e576020602492604051938480926370a0823160e01b82523060048301525afa8015610214575f906118fa575b6106c99250612867565b156118b557604080516302ce728f60e01b815290816004815f5f5160206147585f395f51905f525af1908115610214575f905f92611883575b5061183257600554036117f45761071890612d2b565b80156117c757610728818461303c565b6040516370a0823160e01b815230600482015290602082602481865afa918215610214575f92611793575b50604051636e553f6560e01b60208201908152602482018390523060448301525f9182919061078f81606481015b03601f198101835282611c1b565b519082885af19061079e612cfc565b508115611753575b5015611717576040516370a0823160e01b815230600482015290602082602481865afa8015610214575f906116e3575b6107e09250612867565b80156116ac57604051636b2ace8760e01b81526020816004815f5160206147585f395f51905f525afa908115610214575f9161168d575b5061082382828661356f565b60018060a01b03166040519162ae511b60e21b83528360048401523060248401525f5160206147585f395f51905f52604484015260648301525f608483015260408260a4815f855af1918215610214575f9261166a575b50811561162f57604051633de222bb60e21b81525f5160206146d85f395f51905f5260048201525f5160206147585f395f51905f526024820152602081604481855afa8015610214575f906115fc575b60209150606460405180948193630acc462360e31b83525f5160206146d85f395f51905f52600484015260248301525f60448301525afa8015610214575f906115c8575b6109189150612a22565b9081156115935761092d60055492828461365d565b9160018311611551575b82156115205782610947916136f3565b808211156114e65761095b90829392612867565b916080916040519161096d8484611c1b565b6003835260208301601f1985019283368337600a61098a86612f02565b52600561099686612f0f565b5260046109a286612f1f565b52604051956109b18188611c1b565b60038752602087019385368637604051956109cc8388611c1b565b600387525f5b8181106114d357505061078192610a4792610a136109f2610a2c94613db4565b91604051926020840152306040840152600160608401526060835282611c1b565b610a1c88612f02565b52610a2687612f02565b50613db4565b60408051602081019290925230908201529182906060820190565b610a5084612f0f565b52610a5a83612f0f565b50610781610a6a610a2c88613db4565b610a7384612f1f565b52610a7d83612f1f565b5060405163195bcf5960e21b815260606004820152935160648501819052939485946084860192905f5b8181106114b75750505060209060031986840301602487015251918281520191905f5b81811061149e57505050600319838203016044840152815180825260208201916020808360051b8301019401925f915b83831061146d575050505050908060409203815f5f5160206147585f395f51905f525af180156102145761144f575b50604051636b2ace8760e01b81526020816004815f5160206147585f395f51905f525afa908115610214576044916020915f91611432575b50604051633de222bb60e21b81525f5160206146d85f395f51905f52600482015230602482015292839182906001600160a01b03165afa908115610214575f91611400575b508061132f575b5080611251575b506020602491604051928380926370a0823160e01b82523060048301525afa908115610214575f9161121f575b5080610ff5575b5050610bf6610c0092613fb4565b5060643590612874565b6040516370a0823160e01b81523060048201526020816024815f5160206147985f395f51905f525afa80156102145782915f91610fc0575b5080828110610f39575b5010610ef4575f8091604051602081019163a9059cbb60e01b8352336024830152604482015260448152610c77606482611c1b565b5190825f5160206147985f395f51905f525af1610c92612cfc565b9015610ebb57805180610e60575b50506040516370a0823160e01b81523060048201526020816024815f5160206146d85f395f51905f525afa908115610214575f91610e2e575b506004541015610df05761010061ff00196002541617600255610cfd600354611c70565b601f8111610d9d575b60bf6003557f696e69745f706f69736f6e65645f63616368655f7468656e5f63757276655f6f5f5160206147185f395f51905f52557f7261636c655f6661696c7572655f7468656e5f636f6f6b5f6164645f636f6c6c5f5160206146f85f395f51905f52557f61746572616c5f626f72726f775f72656d6f76655f636f6c6c61746572616c005f5160206147385f395f51905f5255005b60035f52601f0160051c5f5160206147185f395f51905f52017fc2575a0e9e593c00f959f8c92f12db2869c3395a3b0502d05e2516446f71f85e5b818110610de55750610d06565b5f8155600101610dd8565b60405162461bcd60e51b81526020600482015260166024820152751b9bc81c99585b1a5e9959081b5a5b481c1c9bd99a5d60521b6044820152606490fd5b90506020813d602011610e58575b81610e4960209383611c1b565b8101031261021f575181610cd9565b3d9150610e3c565b816020918101031261021f576020610e789101611cc4565b15610e84578080610ca0565b60405162461bcd60e51b815260206004820152600f60248201526e1d1bdad95b881bdc0819985a5b1959608a1b6044820152606490fd5b60405162461bcd60e51b81526020600482015260116024820152701d1bdad95b8818d85b1b0819985a5b1959607a1b6044820152606490fd5b60405162461bcd60e51b815260206004820152601760248201527f696e73756666696369656e7420757364742072657061790000000000000000006044820152606490fd5b610f479150610f4c92612867565b614316565b6040516370a0823160e01b81523060048201526020816024815f5160206147985f395f51905f525afa80156102145782915f91610f8b575b5083610c42565b9150506020813d602011610fb8575b81610fa760209383611c1b565b8101031261021f5781905183610f84565b3d9150610f9a565b9150506020813d602011610fed575b81610fdc60209383611c1b565b8101031261021f5781905183610c38565b3d9150610fcf565b6040516370a0823160e01b8152306004820152916020836024815f5160206147785f395f51905f525afa928315610214575f936111eb575b505f806040516020810190631cc6d2f960e31b8252856024820152306044820152612710606482015260648152611065608482611c1b565b519082855af191611074612cfc565b5082156111a4575b8215611163575b505015611126576040516370a0823160e01b81523060048201526020816024815f5160206147785f395f51905f525afa908115610214575f916110f0575b50926110d3610bf692610c0095612867565b806110e0575b5092610be8565b6110e990613df9565b50846110d9565b9390506020843d60201161111e575b8161110c60209383611c1b565b8101031261021f5792516110d36110c1565b3d91506110ff565b60405162461bcd60e51b81526020600482015260156024820152741e59585c9b881dda5d1a191c985dc819985a5b1959605a1b6044820152606490fd5b5f9250908291826040516020810192632e1a7d4d60e01b8452602482015260248152611190604482611c1b565b51925af161119c612cfc565b508480611083565b604051627b8a6760e11b60208201908152602482018390523060448301529193505f9182916111d68160648101610781565b519082855af16111e4612cfc565b509161107c565b9092506020813d602011611217575b8161120760209383611c1b565b8101031261021f5751918561102d565b3d91506111fa565b90506020813d602011611249575b8161123a60209383611c1b565b8101031261021f575184610be1565b3d915061122d565b90604051636b2ace8760e01b81526020816004815f5160206147585f395f51905f525afa8015610214575f93604092859261130b575b5060a4908351958693849263097da6d360e41b8452876004850152306024850152306044850152826064850152608484015260018060a01b03165af1908115610214576024926020926112dd575b509150610bb4565b6112fe9060403d604011611304575b6112f68183611c1b565b810190612eec565b506112d5565b503d6112ec565b60a49192506113289060203d60201161024d5761023e8183611c1b565b9190611287565b604051636b2ace8760e01b81526020816004815f5160206147585f395f51905f525afa8015610214575f9260409284926113dc575b50825163097da6d360e41b81525f5160206146d85f395f51905f5260048201523060248201819052604482015260648101859052608481019190915292839160a49183916001600160a01b03165af180156102145715610bad576113d69060403d604011611304576112f68183611c1b565b50610bad565b60a49192506113f99060203d60201161024d5761023e8183611c1b565b9190611364565b90506020813d60201161142a575b8161141b60209383611c1b565b8101031261021f575186610ba6565b3d915061140e565b6114499150823d841161024d5761023e8183611c1b565b88610b61565b6114679060403d604011611304576112f68183611c1b565b50610b29565b91939550919360208061148c600193601f198682030187528951611bf7565b97019301930190928695949293610afa565b8251845286955060209384019390920191600101610aca565b825160ff16855288975060209485019490920191600101610aa7565b60606020828a01810191909152016109d2565b60405162461bcd60e51b81526020600482015260126024820152716e6f2072656d6f7661626c6520736861726560701b6044820152606490fd5b60405162461bcd60e51b81526020600482015260096024820152686e6f20626f72726f7760b81b6044820152606490fd5b916103e881046001810180911161157f57818110156115795761157391612867565b91610937565b50611573565b634e487b7160e01b5f52601160045260245ffd5b60405162461bcd60e51b815260206004820152600d60248201526c06e6f20626f72726f772063617609c1b6044820152606490fd5b506020813d6020116115f4575b816115e260209383611c1b565b8101031261021f57610918905161090e565b3d91506115d5565b506020813d602011611627575b8161161660209383611c1b565b8101031261021f57602090516108ca565b3d9150611609565b60405162461bcd60e51b81526020600482015260136024820152726e6f20636f6c6c61746572616c20736861726560681b6044820152606490fd5b61168491925060403d604011611304576112f68183611c1b565b9050908661087a565b6116a6915060203d60201161024d5761023e8183611c1b565b86610817565b60405162461bcd60e51b815260206004820152600f60248201526e6e6f207661756c742073686172657360881b6044820152606490fd5b506020823d60201161170f575b816116fd60209383611c1b565b8101031261021f576107e091516107d6565b3d91506116f0565b60405162461bcd60e51b81526020600482015260146024820152731e59585c9b8819195c1bdcda5d0819985a5b195960621b6044820152606490fd5b5f91508190604051602081019163b6b55f2560e01b835260248201526024815261177e604482611c1b565b519082875af161178c612cfc565b50866107a6565b9091506020813d6020116117bf575b816117af60209383611c1b565b8101031261021f57519086610753565b3d91506117a2565b60405162461bcd60e51b815260206004820152600560248201526406e6f206c760dc1b6044820152606490fd5b60405162461bcd60e51b815260206004820152601660248201527518d858da1959081c985d19481b9bdd081c995d5cd95960521b6044820152606490fd5b60405162461bcd60e51b8152602060048201526024808201527f6f7261636c652075706461746520756e65787065637465646c792073756363656044820152631959195960e21b6064820152608490fd5b90506118a7915060403d6040116118ae575b61189f8183611c1b565b810190611cd1565b9087610702565b503d611895565b60405162461bcd60e51b815260206004820152601960248201527f6375727665206d616e6970756c6174696f6e206661696c6564000000000000006044820152606490fd5b506020823d602011611926575b8161191460209383611c1b565b8101031261021f576106c991516106bf565b3d9150611907565b60405162461bcd60e51b815260206004820152601560248201527418dd5c9d9948195e18da185b99d94819985a5b1959605a1b6044820152606490fd5b5f9250908291604051906020820192630f7c084960e21b8452846024840152600f0b6044830152606482015260016084820152608481526119ad60a482611c1b565b5190825f5160206147785f395f51905f525af16119c8612cfc565b50888061068d565b9092506020813d6020116119fc575b816119ec60209383611c1b565b8101031261021f5751918961062c565b3d91506119df565b73c02aaa39b223fe8d0a0e5c4f27ead9083c756cc26105ea565b60405162461bcd60e51b8152602060048201526009602482015268189859081cdc1b1a5d60ba1b6044820152606490fd5b508215156105c7565b60405162461bcd60e51b8152602060048201526015602482015274756e657870656374656420756e6465726c79696e6760581b6044820152606490fd5b611aae915060203d60201161024d5761023e8183611c1b565b88610596565b611ace91935060203d60201161024d5761023e8183611c1b565b9185610557565b60405162461bcd60e51b815260206004820152600f60248201526e0c2dadeeadce840dad2e6dac2e8c6d608b1b6044820152606490fd5b60405162461bcd60e51b815260206004820152600a6024820152693130b2103632b73232b960b11b6044820152606490fd5b611b57915060203d60201161024d5761023e8183611c1b565b846104e7565b60405162461bcd60e51b81526020600482015260096024820152683130b2103a37b5b2b760b91b6044820152606490fd5b60405162461bcd60e51b815260206004820152600a6024820152693130b21039b2b73232b960b11b6044820152606490fd5b62461bcd60e51b8152602060048201526012602482015271199b185cda081b9bdd08195e1c1958dd195960721b6044820152606490fd5b805180835260209291819084018484015e5f828201840152601f01601f1916010190565b90601f8019910116810190811067ffffffffffffffff821117611c3d57604052565b634e487b7160e01b5f52604160045260245ffd5b9081602091031261021f57516001600160a01b038116810361021f5790565b90600182811c92168015611c9e575b6020831014611c8a57565b634e487b7160e01b5f52602260045260245ffd5b91607f1691611c7f565b67ffffffffffffffff8111611c3d57601f01601f191660200190565b5190811515820361021f57565b919082604091031261021f576020611ce883611cc4565b92015190565b5f19811461157f5760010190565b906008811015611d0d5760051b0190565b634e487b7160e01b5f52603260045260245ffd5b906004811015611d0d5760051b0190565b60025460ff81166128335760ff1916600117600255604051639b352ae160e01b81526020816004815f5160206147585f395f51905f525afa908115610214575f91612814575b505f80546001600160a01b0319166001600160a01b039290921691821790556040516370a0823160e01b815230600482015290602082602481845afa8015610214575f906127d5575b5f5160206146d85f395f51905f5292506004550361272a5760405163d8dfeb4560e01b81526020816004815f5160206147585f395f51905f525afa908115610214575f9161270b575b506001600160a01b0381161561269457611e2390612907565b156125e257604051633ba0b9a960e01b81526020816004815f5160206147585f395f51905f525afa908115610214575f916125b0575b5060058190556040516374645ff360e01b8152905f826004815f5160206147585f395f51905f525afa918215610214575f92612534575b506040516307dc0d1d60e41b81526020816004815f5160206147585f395f51905f525afa92831561021457611eec936040925f91612515575b508251808096819463eeb8a8d360e01b8352602060048401526024830190611bf7565b03916001600160a01b03165afa90815f935f936124ee575b50612410575b5050604051636b2ace8760e01b815290506020816004815f5160206147585f395f51905f525afa908115610214576044916020915f916123f3575b50604051633de222bb60e21b81525f5160206146d85f395f51905f5260048201525f5160206147585f395f51905f52602482015292839182906001600160a01b03165afa908115610214575f916123c1575b50604051636b2ace8760e01b8152906020826004815f5160206147585f395f51905f525afa918215610214575f9261239f575b50604051630acc462360e31b81525f5160206146d85f395f51905f52600482015260248101919091525f604482015290602090829060649082906001600160a01b03165afa908115610214575f9161236b575b5061202f66038d7ea4c6800091612a22565b11156122f557604051610100810181811067ffffffffffffffff821117611c3d5760405264174876e8008152643a35294400602082015264746a528800604082015264e8d4a5100060608201526501d1a94a200060808201526503a35294400060a0820152650574fbde600060c0820152650746a528800060e0820152604051916080830183811067ffffffffffffffff821117611c3d576040526109c483526113886020840152611d4c604084015261232860608401525f905b60088210806122e5575b156121fe575f5b60048110806121ee575b156121cd576121148385611cfc565b5161211f8287611d21565b51303b1561021f576040519163c517189b60e01b835260048301526024820152600160448201525f8160648183305af16121de575b5060ff60025460081c166121cd5761216c8385611cfc565b51906121788187611d21565b5191303b1561021f576121b8926040519163c517189b60e01b835260048301526024820152600260448201525f8160648183305af16121bd575b50611cee565b6120fb565b5f6121c791611c1b565b5f6121b2565b50906121d890611cee565b906120ea565b5f6121e891611c1b565b5f612154565b5060ff60025460081c1615612105565b9250505060ff60025460081c1615806122d3575b612221575b61221f612881565b565b61222c600354611c70565b601f8111612293575b50605960035560035f527f696e6665617369626c655f616c6c5f7075626c69635f6c69717569646974795f5f5160206147185f395f51905f52556b1c1b185b9cd7d9985a5b195960a21b5f5160206146f85f395f51905f5255612217565b60035f52601f0160051c5f5160206147185f395f51905f52015f5160206147385f395f51905f525b8181106122c85750612235565b5f81556001016122bb565b506122df600354611c70565b15612212565b5060ff60025460081c16156120f4565b612300600354611c70565b601f8111612336575b507f696e6665617369626c655f6e6f5f626f72726f775f636170616369747900003a60035561221f612881565b60035f52601f0160051c5f5160206147185f395f51905f52908101905b8181106123605750612309565b5f8155600101612353565b90506020813d602011612397575b8161238660209383611c1b565b8101031261021f575161202f61201d565b3d9150612379565b60209192506123ba90823d841161024d5761023e8183611c1b565b9190611fca565b90506020813d6020116123eb575b816123dc60209383611c1b565b8101031261021f57515f611f97565b3d91506123cf565b61240a9150823d841161024d5761023e8183611c1b565b5f611f45565b826124e4575b826124d9575b505061242a575f8080611f0a565b612435600354611c70565b601f8111612499575b50604d60035560035f527f696e6665617369626c655f6361636865645f726174655f6e6f745f756e6465725f5160206147185f395f51905f5255651cdd185d195960d21b5f5160206146f85f395f51905f525561221f612881565b60035f52601f0160051c5f5160206147185f395f51905f52015f5160206147385f395f51905f525b8181106124ce575061243e565b5f81556001016124c1565b101590505f8061241c565b8115159250612416565b90925061250b91935060403d6040116118ae5761189f8183611c1b565b929092915f611f04565b61252e915060203d60201161024d5761023e8183611c1b565b5f611ec9565b9091503d805f833e6125468183611c1b565b81019060208183031261021f5780519067ffffffffffffffff821161021f570181601f8201121561021f5780519061257d82611ca8565b9261258b6040519485611c1b565b8284526020838301011161021f57815f9260208093018386015e83010152905f611e90565b90506020813d6020116125da575b816125cb60209383611c1b565b8101031261021f57515f611e59565b3d91506125be565b6125ed600354611c70565b601f8111612654575b50605360035560035f527f696e6665617369626c655f636f6c6c61746572616c5f726f7574655f6e6f745f5f5160206147185f395f51905f5255681cdd5c1c1bdc9d195960ba1b5f5160206146f85f395f51905f525561221f612881565b60035f52601f0160051c5f5160206147185f395f51905f52015f5160206147385f395f51905f525b81811061268957506125f6565b5f815560010161267c565b506126a0600354611c70565b601f81116126d6575b507f696e6665617369626c655f756e696e697469616c697a65645f7461726765743e60035561221f612881565b60035f52601f0160051c5f5160206147185f395f51905f52908101905b81811061270057506126a9565b5f81556001016126f3565b612724915060203d60201161024d5761023e8183611c1b565b5f611e0a565b612735600354611c70565b601f8111612795575b50604560035560035f527f696e6665617369626c655f756e65787065637465645f70726f6669745f746f6b5f5160206147185f395f51905f52556132b760f11b5f5160206146f85f395f51905f525561221f612881565b60035f52601f0160051c5f5160206147185f395f51905f52015f5160206147385f395f51905f525b8181106127ca575061273e565b5f81556001016127bd565b506020823d60201161280c575b816127ef60209383611c1b565b8101031261021f575f5160206146d85f395f51905f529151611dc1565b3d91506127e2565b61282d915060203d60201161024d5761023e8183611c1b565b5f611d78565b50565b8181029291811591840414171561157f57565b8115612853570490565b634e487b7160e01b5f52601260045260245ffd5b9190820391821161157f57565b9190820180921161157f57565b6040516370a0823160e01b81523060048201526020816024815f5160206146d85f395f51905f525afa908115610214575f916128d5575b506004548082116128c7575050565b6128d091612867565b600155565b90506020813d6020116128ff575b816128f060209383611c1b565b8101031261021f57515f6128b8565b3d91506128e3565b604051637e062a3560e11b81526001600160a01b039190911690602081600481855afa5f91816129c9575b5061293d5750505f90565b6001600160a01b031673d51a44d3fae010294c616388b506acda1bfaae4519016129c457602060049160405192838092634ca9858360e11b82525afa5f9181612990575b5061298b57505f90565b151590565b9091506020813d6020116129bc575b816129ac60209383611c1b565b8101031261021f5751905f612981565b3d915061299f565b505f90565b6129e391925060203d60201161024d5761023e8183611c1b565b905f612932565b51906001600160801b038216820361021f57565b919082604091031261021f57612a1f6020612a18846129ea565b93016129ea565b90565b6040805163e551d11d60e01b81529190826004815f5160206147585f395f51905f525afa8015610214575f925f91612cd7575b506040805163020a17bd60e61b81529390846004815f5160206147585f395f51905f525afa938415610214575f905f95612ca3575b506040516324720b1f60e11b8152306004820152916020836024815f5160206147585f395f51905f525afa928315610214575f93612c6f575b50604051632ae8093d60e21b8152946020866004815f5160206147585f395f51905f525afa958615610214575f96612c3b575b5094939291905f965b868810612b10575050505050505090565b90919293949596612b218882612874565b6001810180911161157f5760011c90612b48620186a0612b418a85612836565b0483612874565b6001600160801b03861690612b5d8183612874565b6001600160801b03871610612c17576001600160801b03851680612bc75750612b8891505b87612874565b6001600160801b03881610612ba55750965b959493929190612aff565b97505f19810190811115612b9a57634e487b7160e01b5f52601160045260245ffd5b80612bdc612be185612bdc612be89587612836565b612849565b9485612836565b10612bf7575b612b8890612b82565b6001810180911115612bee57634e487b7160e01b5f52601160045260245ffd5b505097505f19810190811115612b9a57634e487b7160e01b5f52601160045260245ffd5b9095506020813d602011612c67575b81612c5760209383611c1b565b8101031261021f5751945f612af6565b3d9150612c4a565b9092506020813d602011612c9b575b81612c8b60209383611c1b565b8101031261021f5751915f612ac3565b3d9150612c7e565b9050612cc891945060403d604011612cd0575b612cc08183611c1b565b8101906129fe565b93905f612a8a565b503d612cb6565b9050612cf391925060403d604011612cd057612cc08183611c1b565b9190915f612a55565b3d15612d26573d90612d0d82611ca8565b91612d1b6040519384611c1b565b82523d5f602084013e565b606090565b80156129c457612d3a81612f2f565b60405190612d49606083611c1b565b606036833781526040516370a0823160e01b8152306004820152906020826024815f5160206147785f395f51905f525afa918215610214575f92612eb8575b50604051634515cef360e01b60208201908152915f602483015b60038210612ea2575050505f9181600160848594015260848152612dc760a482611c1b565b5190825f5160206147785f395f51905f525af1612de2612cfc565b5015612e5d576040516370a0823160e01b8152306004820152906020826024815f5160206147785f395f51905f525afa8015610214575f90612e29575b612a1f9250612867565b506020823d602011612e55575b81612e4360209383611c1b565b8101031261021f57612a1f9151612e1f565b3d9150612e36565b60405162461bcd60e51b815260206004820152601a60248201527f637572766520616464206c6971756964697479206661696c65640000000000006044820152606490fd5b6020806001928551815201930191019091612da2565b9091506020813d602011612ee4575b81612ed460209383611c1b565b8101031261021f5751905f612d88565b3d9150612ec7565b919082604091031261021f576020825192015190565b805115611d0d5760200190565b805160011015611d0d5760400190565b805160021015611d0d5760600190565b604051636eb1769f60e11b81523060048201525f5160206147785f395f51905f5260248201526020816044815f5160206147985f395f51905f525afa908115610214575f9161300a575b50101561221f57612fce60405163095ea7b360e01b60208201525f5160206147785f395f51905f5260248201525f604482015260448152612fbb606482611c1b565b5f5160206147985f395f51905f5261460c565b61221f60405163095ea7b360e01b60208201525f5160206147785f395f51905f5260248201525f19604482015260448152612fbb606482611c1b565b90506020813d602011613034575b8161302560209383611c1b565b8101031261021f57515f612f79565b3d9150613018565b604051636eb1769f60e11b81523060048201526001600160a01b03821660248201529091906020816044815f5160206147785f395f51905f525afa908115610214575f9161310c575b5010156128335760405163095ea7b360e01b60208201526001600160a01b03909116602482018190525f604480840191909152825261221f916130e0906130cd606482611c1b565b5f5160206147785f395f51905f5261460c565b6040519063095ea7b360e01b602083015260248201525f196044820152604481526130cd606482611c1b565b90506020813d602011613136575b8161312760209383611c1b565b8101031261021f57515f613085565b3d915061311a565b604051636eb1769f60e11b81523060048201525f5160206147785f395f51905f5260248201526020816044815f5160206147785f395f51905f525afa908115610214575f91613206575b50101561221f576131ca60405163095ea7b360e01b60208201525f5160206147785f395f51905f5260248201525f6044820152604481526130cd606482611c1b565b61221f60405163095ea7b360e01b60208201525f5160206147785f395f51905f5260248201525f196044820152604481526130cd606482611c1b565b90506020813d602011613230575b8161322160209383611c1b565b8101031261021f57515f613188565b3d9150613214565b604051636eb1769f60e11b81523060048201525f5160206147785f395f51905f5260248201529091906020816044816001600160a01b0387165afa908115610214575f9161330c575b5010156128335761221f906132cd60405163095ea7b360e01b60208201525f5160206147785f395f51905f5260248201525f6044820152604481526132c7606482611c1b565b8261460c565b6040519063095ea7b360e01b60208301525f5160206147785f395f51905f5260248301525f19604483015260448252613307606483611c1b565b61460c565b90506020813d602011613336575b8161332760209383611c1b565b8101031261021f57515f613281565b3d915061331a565b604051636eb1769f60e11b815230600482015273d9e1ce17f2641f24ae83637ab66a2cca9c378b9f60248201526020816044815f5160206146d85f395f51905f525afa908115610214575f9161342e575b50101561221f576133eb60405163095ea7b360e01b602082015273d9e1ce17f2641f24ae83637ab66a2cca9c378b9f60248201525f6044820152604481526133d8606482611c1b565b5f5160206146d85f395f51905f5261460c565b61221f60405163095ea7b360e01b602082015273d9e1ce17f2641f24ae83637ab66a2cca9c378b9f60248201525f196044820152604481526133d8606482611c1b565b90506020813d602011613458575b8161344960209383611c1b565b8101031261021f57515f61338f565b3d915061343c565b604051636eb1769f60e11b8152306004820152737a250d5630b4cf539739df2c5dacb4c659f2488d60248201526020816044815f5160206146d85f395f51905f525afa908115610214575f9161353d575b50101561221f576134fa60405163095ea7b360e01b6020820152737a250d5630b4cf539739df2c5dacb4c659f2488d60248201525f6044820152604481526133d8606482611c1b565b61221f60405163095ea7b360e01b6020820152737a250d5630b4cf539739df2c5dacb4c659f2488d60248201525f196044820152604481526133d8606482611c1b565b90506020813d602011613567575b8161355860209383611c1b565b8101031261021f57515f6134b1565b3d915061354b565b604051636eb1769f60e11b81523060048201526001600160a01b0383166024820152909290602081806044810103816001600160a01b0388165afa908115610214575f9161362b575b5010156136275761221f916135fb6040519263095ea7b360e01b602085015260018060a01b0316928360248201525f6044820152604481526132c7606482611c1b565b6040519163095ea7b360e01b602084015260248301525f19604483015260448252613307606483611c1b565b5050565b90506020813d602011613655575b8161364660209383611c1b565b8101031261021f57515f6135b8565b3d9150613639565b90801580156136eb575b6136e457905f92915b82841061367d5750505090565b90919261368a8482612874565b6001810180911161157f5760011c90826136b283865f5160206147585f395f51905f52613aca565b10156136c25750925b9190613670565b93505f198101908111156136bb57634e487b7160e01b5f52601160045260245ffd5b5050505f90565b508215613667565b908015613ac4576040805163020a17bd60e61b81529290836004815f5160206147585f395f51905f525afa918215610214575f935f93613a9d575b50604051632ae8093d60e21b81526020816004815f5160206147585f395f51905f525afa908115610214575f91613a64575b5081620186a061377b613782936001600160801b0395612836565b0490612874565b921692836139f357506137a39250612bdc9061379e8380612836565b612836565b80156129c457604051636b2ace8760e01b81526020816004815f5160206147585f395f51905f525afa908115610214575f916139d4575b5060405163d8dfeb4560e01b81526020816004815f5160206147585f395f51905f525afa8015610214576138179284925f926139b3575b50614652565b908115806139ab575b6138eb575b5060405163c7ee2a7b60e01b8152906020826004815f5160206147585f395f51905f525afa918215610214575f926138b7575b50816509184e72a00002916509184e72a00083040361157f57801580156138af575b6138a85761389261388b8383612849565b9283612836565b1061389a5790565b6001810180911161157f5790565b50505f1990565b50811561387a565b9091506020813d6020116138e3575b816138d360209383611c1b565b8101031261021f5751905f613858565b3d91506138c6565b604051636b2ace8760e01b815291506020826004815f5160206147585f395f51905f525afa918215610214575f9261398a575b5060405163d8dfeb4560e01b81526020816004815f5160206147585f395f51905f525afa908115610214575f9161396b575b506001820180921161157f5761396592614652565b5f613825565b613984915060203d60201161024d5761023e8183611c1b565b5f613950565b6139a491925060203d60201161024d5761023e8183611c1b565b905f61391e565b506001613820565b6139cd91925060203d60201161024d5761023e8183611c1b565b905f613811565b6139ed915060203d60201161024d5761023e8183611c1b565b5f6137da565b91613a126001600160801b03613a098684612836565b94168094612849565b9281613a2286612bdc8488612836565b10613a4d575b6137a394613a4785613a41612bdc969561379e95612874565b92612874565b94612836565b6001849392940180931161157f5791929091613a28565b90506020813d602011613a95575b81613a7f60209383611c1b565b8101031261021f57516001600160801b03613760565b3d9150613a72565b909250613aba91935060403d604011612cd057612cc08183611c1b565b929092915f61372e565b50505f90565b82156136e4576040805163020a17bd60e61b81526001600160a01b03929092169391929083600481875afa918215610214575f935f93613d8d575b50604051632ae8093d60e21b8152602081600481895afa908115610214575f91613d54575b5081620186a061377b613b45936001600160801b0395612836565b92169283613cf85750613b619250612bdc9061379e8380612836565b908115613ac457604051636b2ace8760e01b8152602081600481855afa908115610214575f91613cd9575b5060405163d8dfeb4560e01b8152602081600481865afa801561021457613bbb9285925f926139b35750614652565b91821580613cd1575b613c22575b509060206004926040519384809263c7ee2a7b60e01b82525afa918215610214575f926138b75750816509184e72a00002916509184e72a00083040361157f57801580156138af576138a85761389261388b8383612849565b604051636b2ace8760e01b8152909250602081600481855afa908115610214575f91613cb2575b5060405163d8dfeb4560e01b815290602082600481865afa918215610214575f92613c91575b506001840180941161157f57600493602092613c8a92614652565b9250613bc9565b613cab91925060203d60201161024d5761023e8183611c1b565b905f613c6f565b613ccb915060203d60201161024d5761023e8183611c1b565b5f613c49565b506001613bc4565b613cf2915060203d60201161024d5761023e8183611c1b565b5f613b8c565b91613d0e6001600160801b03613a098684612836565b9281613d1e86612bdc8488612836565b10613d3d575b613b6194613a4785613a41612bdc969561379e95612874565b6001849392940180931161157f5791929091613d24565b90506020813d602011613d85575b81613d6f60209383611c1b565b8101031261021f57516001600160801b03613b2a565b3d9150613d62565b909250613daa91935060403d604011612cd057612cc08183611c1b565b929092915f613b05565b6001600160ff1b038111613dc55790565b60405162461bcd60e51b815260206004820152600c60248201526b696e74206f766572666c6f7760a01b6044820152606490fd5b80156129c457613e088161313e565b6040516370a0823160e01b8152306004820152906020826024815f5160206147985f395f51905f525afa918215610214575f92613f80575b505f80604051602081019063f1dc3cc960e01b82528460248201528260448201526001606482015260648152613e77608482611c1b565b5190825f5160206147785f395f51905f525af190613e93612cfc565b508115613f26575b5015613ee1576040516370a0823160e01b8152306004820152906020826024815f5160206147985f395f51905f525afa8015610214575f90612e2957612a1f9250612867565b60405162461bcd60e51b815260206004820152601d60248201527f63757276652072656d6f7665206c6971756964697479206661696c65640000006044820152606490fd5b5f915081906040516020810191630d2680e960e11b835260248201528260448201526001606482015260648152613f5e608482611c1b565b5190825f5160206147785f395f51905f525af1613f79612cfc565b505f613e9b565b9091506020813d602011613fac575b81613f9c60209383611c1b565b8101031261021f5751905f613e40565b3d9150613f8f565b60ff166001810361420c57732260fac5e5542a773aa44fbcfedf7c193bc2c5995b6040516370a0823160e01b8152306004820152906020826024816001600160a01b0385165afa918215610214575f926141d8575b5081156136e4578161401a91613238565b6040516370a0823160e01b8152306004820152916020836024815f5160206147985f395f51905f525afa928315610214575f936141a4575b505f806040516020810190630b68372160e31b8252846024820152826044820152856064820152600160848201526084815261408f60a482611c1b565b5190825f5160206147785f395f51905f525af1916140ab612cfc565b50821561413f575b5050156140fa576040516370a0823160e01b8152306004820152906020826024815f5160206147985f395f51905f525afa8015610214575f90612e2957612a1f9250612867565b60405162461bcd60e51b815260206004820152601d60248201527f637572766520726576657273652065786368616e6765206661696c65640000006044820152606490fd5b5f9250908291604051906020820192630f7c084960e21b8452600f0b60248301528360448301526064820152600160848201526084815261418160a482611c1b565b5190825f5160206147785f395f51905f525af161419c612cfc565b505f806140b3565b9092506020813d6020116141d0575b816141c060209383611c1b565b8101031261021f5751915f614052565b3d91506141b3565b9091506020813d602011614204575b816141f460209383611c1b565b8101031261021f5751905f614009565b3d91506141e7565b73c02aaa39b223fe8d0a0e5c4f27ead9083c756cc2613fd5565b60208183031261021f5780519067ffffffffffffffff821161021f57019080601f8301121561021f5781519167ffffffffffffffff8311611c3d578260051b9060208201936142786040519586611c1b565b845260208085019282010192831161021f57602001905b82821061429c5750505090565b815181526020918201910161428f565b91909493929460a083019083526001602084015260a060408401528151809152602060c084019201905f5b8181106142f7575050506001600160a01b03909416606082015260800152565b82516001600160a01b03168452602093840193909201916001016142d7565b6040516370a0823160e01b8152306004820152906020826024815f5160206146d85f395f51905f525afa918215610214575f926145d8575b50811561362757806032614363920490612874565b9066038d7ea4c68000820180921161157f578082116145d0575b5080156128335761438d8161333e565b61439681613460565b6040516143a4606082611c1b565b6002815260403660208301375f5160206146d85f395f51905f526143c782612f02565b525f5160206147985f395f51905f526143df82612f0f565b526040516338ed173960e01b81525f818061440042308789600486016142ac565b03818373d9e1ce17f2641f24ae83637ab66a2cca9c378b9f5af190816145b8575b50613627575f61444a91604051809381926338ed173960e01b83524290309088600486016142ac565b038183737a250d5630b4cf539739df2c5dacb4c659f2488d5af190816145a0575b50612833576040519061447f608083611c1b565b6003825260603660208401375f5160206146d85f395f51905f526144a283612f02565b5273c02aaa39b223fe8d0a0e5c4f27ead9083c756cc26144c183612f0f565b525f5160206147985f395f51905f526144d983612f1f565b526040516338ed173960e01b81525f81806144fa42308888600486016142ac565b03818373d9e1ce17f2641f24ae83637ab66a2cca9c378b9f5af19081614588575b50613627576040516338ed173960e01b8152915f9183918291614546914291309190600486016142ac565b038183737a250d5630b4cf539739df2c5dacb4c659f2488d5af180156102145761456d5750565b612833903d805f833e6145808183611c1b565b810190614226565b61459b903d805f833e6145808183611c1b565b61451b565b6145b3903d805f833e6145808183611c1b565b61446b565b6145cb903d805f833e6145808183611c1b565b614421565b90505f61437d565b9091506020813d602011614604575b816145f460209383611c1b565b8101031261021f5751905f61434e565b3d91506145e7565b5f91829182602083519301915af1614622612cfc565b9015610ebb57805180614633575050565b816020918101031261021f57602061464b9101611cc4565b15610e8457565b604051636d289ce560e11b81526001600160a01b0392831660048201526024810193909352600160448401525f93929160209183916064918391165afa5f91816146a3575b5061469f5750565b9150565b9091506020813d6020116146cf575b816146bf60209383611c1b565b8101031261021f5751905f614697565b3d91506146b256fe00000000000000000000000099d8a9c45b2eca8864373a26d1459e3dff1e17f3c2575a0e9e593c00f959f8c92f12db2869c3395a3b0502d05e2516446f71f85cc2575a0e9e593c00f959f8c92f12db2869c3395a3b0502d05e2516446f71f85bc2575a0e9e593c00f959f8c92f12db2869c3395a3b0502d05e2516446f71f85d0000000000000000000000007259e152103756e1616a77ae982353c3751a6a90000000000000000000000000d51a44d3fae010294c616388b506acda1bfaae46000000000000000000000000dac17f958d2ee523a2206206994597c13d831ec7a26469706673582212201abbaff4e0594e7d559cabdaaaac07555dfda7fd68224822f46ec907922ee89e64736f6c634300081e0033","linkReferences":{}},"methodIdentifiers":{"TARGET()":"cc1f2afa","attemptUsdtPlan(uint256,uint256,uint8)":"c517189b","executeOnOpportunity()":"3c2448ed","hypothesisValidated()":"463defd1","onFlashLoan(address,address,uint256,uint256,bytes)":"23e30c8b","pathUsed()":"7283898d","profitAmount()":"5ff972cc","profitToken()":"49343624"},"id":0}