{"abi":[{"type":"constructor","inputs":[],"stateMutability":"nonpayable"},{"type":"function","name":"attackerSpendAmount","inputs":[],"outputs":[{"name":"","type":"uint256","internalType":"uint256"}],"stateMutability":"view"},{"type":"function","name":"bridgePair","inputs":[],"outputs":[{"name":"","type":"address","internalType":"address"}],"stateMutability":"view"},{"type":"function","name":"burnReturnAmount","inputs":[],"outputs":[{"name":"","type":"uint256","internalType":"uint256"}],"stateMutability":"view"},{"type":"function","name":"executeOnOpportunity","inputs":[],"outputs":[],"stateMutability":"nonpayable"},{"type":"function","name":"executed","inputs":[],"outputs":[{"name":"","type":"bool","internalType":"bool"}],"stateMutability":"view"},{"type":"function","name":"exitPair","inputs":[],"outputs":[{"name":"","type":"address","internalType":"address"}],"stateMutability":"view"},{"type":"function","name":"exploitPathUsed","inputs":[],"outputs":[{"name":"","type":"string","internalType":"string"}],"stateMutability":"view"},{"type":"function","name":"flashPair","inputs":[],"outputs":[{"name":"","type":"address","internalType":"address"}],"stateMutability":"view"},{"type":"function","name":"hypothesisRefuted","inputs":[],"outputs":[{"name":"","type":"bool","internalType":"bool"}],"stateMutability":"view"},{"type":"function","name":"hypothesisValidated","inputs":[],"outputs":[{"name":"","type":"bool","internalType":"bool"}],"stateMutability":"view"},{"type":"function","name":"loanToken","inputs":[],"outputs":[{"name":"","type":"address","internalType":"address"}],"stateMutability":"view"},{"type":"function","name":"poolReceiveAmount","inputs":[],"outputs":[{"name":"","type":"uint256","internalType":"uint256"}],"stateMutability":"view"},{"type":"function","name":"profitAmount","inputs":[],"outputs":[{"name":"","type":"uint256","internalType":"uint256"}],"stateMutability":"view"},{"type":"function","name":"profitToken","inputs":[],"outputs":[{"name":"","type":"address","internalType":"address"}],"stateMutability":"view"},{"type":"function","name":"status","inputs":[],"outputs":[{"name":"","type":"string","internalType":"string"}],"stateMutability":"view"},{"type":"function","name":"uniswapV2Call","inputs":[{"name":"sender","type":"address","internalType":"address"},{"name":"amount0","type":"uint256","internalType":"uint256"},{"name":"amount1","type":"uint256","internalType":"uint256"},{"name":"data","type":"bytes","internalType":"bytes"}],"outputs":[],"stateMutability":"nonpayable"}],"bytecode":{"object":"0x608060405234801561001057600080fd5b506040805180820190915260078152663737ba16b93ab760c91b602082015260019061003c9082610107565b50600a80546001600160a01b03191673c02aaa39b223fe8d0a0e5c4f27ead9083c756cc21790556101c5565b634e487b7160e01b600052604160045260246000fd5b600181811c9082168061009257607f821691505b6020821081036100b257634e487b7160e01b600052602260045260246000fd5b50919050565b601f82111561010257806000526020600020601f840160051c810160208510156100df5750805b601f840160051c820191505b818110156100ff57600081556001016100eb565b50505b505050565b81516001600160401b0381111561012057610120610068565b6101348161012e845461007e565b846100b8565b6020601f82116001811461016857600083156101505750848201515b600019600385901b1c1916600184901b1784556100ff565b600084815260208120601f198516915b828110156101985787850151825560209485019460019092019101610178565b50848210156101b65786840151600019600387901b60f8161c191681555b50505050600190811b01905550565b612368806101d46000396000f3fe608060405234801561001057600080fd5b50600436106101005760003560e01c8063495f92f111610097578063d78c428111610066578063d78c4281146101ff578063de7dc9b914610207578063ec32918a1461021a578063ffab559c1461022357600080fd5b8063495f92f1146101be5780634e806f4f146101d15780635ff972cc146101e45780636f98fb5d146101ec57600080fd5b80633c2448ed116100d35780633c2448ed1461017c578063463defd11461018457806349327e5e1461019657806349343624146101ad57600080fd5b806306d378171461010557806310d1e85c14610135578063200d2ed21461014a57806331a38c891461015f575b600080fd5b600954610118906001600160a01b031681565b6040516001600160a01b0390911681526020015b60405180910390f35b610148610143366004611d9d565b61022c565b005b61015261043d565b60405161012c9190611e85565b60005461016c9060ff1681565b604051901515815260200161012c565b6101486104cb565b60005461016c90610100900460ff1681565b61019f60045481565b60405190815260200161012c565b600a546001600160a01b0316610118565b60005461016c9062010000900460ff1681565b600854610118906001600160a01b031681565b600b5461019f565b600654610118906001600160a01b031681565b610152610a60565b600754610118906001600160a01b031681565b61019f60035481565b61019f60055481565b6001600160a01b03851630146102765760405162461bcd60e51b815260206004820152600a6024820152692120a22fa9a2a72222a960b11b60448201526064015b60405180910390fd5b6006546001600160a01b031633146102bb5760405162461bcd60e51b81526020600482015260086024820152672120a22fa820a4a960c11b604482015260640161026d565b60008080806102cc85870187611e9f565b935093509350935060008089116102e357876102e5565b885b90508181146103235760405162461bcd60e51b815260206004820152600a60248201526910905117d05353d5539560b21b604482015260640161026d565b61032c81610a6d565b600073c02aaa39b223fe8d0a0e5c4f27ead9083c756cc1196001600160a01b038516016103885761038186730bc529c00c6401aef6d220be8c6ea1667f6ad93e6000805160206121e983398151915285610e2d565b90506103ca565b60006103aa87730bc529c00c6401aef6d220be8c6ea1667f6ad93e8786610e2d565b90506103c686866000805160206121e983398151915284610e2d565b9150505b60006103d63384610fca565b90508082116104165760405162461bcd60e51b815260206004820152600c60248201526b554e50524f46495441424c4560a01b604482015260640161026d565b61042f6000805160206121e98339815191523383611016565b505050505050505050505050565b6001805461044a90611ef0565b80601f016020809104026020016040519081016040528092919081815260200182805461047690611ef0565b80156104c35780601f10610498576101008083540402835291602001916104c3565b820191906000526020600020905b8154815290600101906020018083116104a657829003601f168201915b505050505081565b60005460ff16156105115760405162461bcd60e51b815260206004820152601060248201526f1053149150511657d1561150d555115160821b604482015260640161026d565b6000805460ff191660011790556040805163797bf38560e01b81529051737f3fe9d492a9a60aebb06d82cba23c6f32cad10b9163797bf3859160048083019260209291908290030181865afa15801561056e573d6000803e3d6000fd5b505050506040513d601f19601f820116820180604052508101906105929190611f2a565b600980546001600160a01b0319166001600160a01b03929092169182179055730bc529c00c6401aef6d220be8c6ea1667f6ad93e1461060b5760405162461bcd60e51b8152602060048201526015602482015274554e45585045435445445f554e4445524c59494e4760581b604482015260640161026d565b610640730bc529c00c6401aef6d220be8c6ea1667f6ad93e737f3fe9d492a9a60aebb06d82cba23c6f32cad10b60001961111c565b600061064a611221565b80519091506001600160a01b031661068f5760405162461bcd60e51b81526020600482015260086024820152674e4f5f524f55544560c01b604482015260640161026d565b60008160a00151116106d95760405162461bcd60e51b81526020600482015260136024820152724e4f5f50524f46495441424c455f524f55544560681b604482015260640161026d565b8051600680546001600160a01b039283166001600160a01b031991821617909155602080840151600780549185169184168217905560408086015160088054918716918616821790556080808801516003819055600a80549097166000805160206121e9833981519152179096556060808901518451968701959095529285019190915291909416938201939093529182015260009060a0016040516020818303038152906040529050600082600001519050730bc529c00c6401aef6d220be8c6ea1667f6ad93e6001600160a01b0316816001600160a01b0316630dfe16816040518163ffffffff1660e01b8152600401602060405180830381865afa1580156107e8573d6000803e3d6000fd5b505050506040513d601f19601f8201168201806040525081019061080c9190611f2a565b6001600160a01b03160361088857608083015160405163022c0d9f60e01b81526001600160a01b0383169163022c0d9f91610851919060009030908890600401611f47565b600060405180830381600087803b15801561086b57600080fd5b505af115801561087f573d6000803e3d6000fd5b505050506108f1565b608083015160405163022c0d9f60e01b81526001600160a01b0383169163022c0d9f916108be9160009130908890600401611f47565b600060405180830381600087803b1580156108d857600080fd5b505af11580156108ec573d6000803e3d6000fd5b505050505b6040516370a0823160e01b81523060048201526000805160206121e9833981519152906370a0823190602401602060405180830381865afa15801561093a573d6000803e3d6000fd5b505050506040513d601f19601f8201168201806040525081019061095e9190611f7e565b600b81905566038d7ea4c68000106109a45760405162461bcd60e51b81526020600482015260096024820152681393d7d41493d1925560ba1b604482015260640161026d565b600054610100900460ff1615610a0e576040805180820190915260098152681d985b1a59185d195960ba1b60208201526001906109e19082611ff4565b506040518060a00160405280606681526020016122cd60669139600290610a089082611ff4565b50505050565b6040518060600160405280602181526020016122ac60219139600190610a349082611ff4565b506040518060e0016040528060a3815260200161220960a39139600290610a089082611ff4565b505050565b6002805461044a90611ef0565b6000610a7b612710836120c9565b905080600003610a89575060015b6040516370a0823160e01b8152737f3fe9d492a9a60aebb06d82cba23c6f32cad10b6004820152600090730bc529c00c6401aef6d220be8c6ea1667f6ad93e906370a0823190602401602060405180830381865afa158015610aef573d6000803e3d6000fd5b505050506040513d601f19601f82011682018060405250810190610b139190611f7e565b6040516370a0823160e01b8152306004820152909150600090737f3fe9d492a9a60aebb06d82cba23c6f32cad10b906370a0823190602401602060405180830381865afa158015610b68573d6000803e3d6000fd5b505050506040513d601f19601f82011682018060405250810190610b8c9190611f7e565b6040516340c10f1960e01b815230600482015260248101859052909150737f3fe9d492a9a60aebb06d82cba23c6f32cad10b906340c10f19906044016020604051808303816000875af1158015610be7573d6000803e3d6000fd5b505050506040513d601f19601f82011682018060405250810190610c0b9190611f7e565b506040516370a0823160e01b8152737f3fe9d492a9a60aebb06d82cba23c6f32cad10b60048201528290730bc529c00c6401aef6d220be8c6ea1667f6ad93e906370a0823190602401602060405180830381865afa158015610c71573d6000803e3d6000fd5b505050506040513d601f19601f82011682018060405250810190610c959190611f7e565b610c9f91906120eb565b60049081556040516370a0823160e01b815230918101919091526000908290737f3fe9d492a9a60aebb06d82cba23c6f32cad10b906370a0823190602401602060405180830381865afa158015610cfa573d6000803e3d6000fd5b505050506040513d601f19601f82011682018060405250810190610d1e9190611f7e565b610d2891906120eb565b905060008111610d675760405162461bcd60e51b815260206004820152600a6024820152694e4f5f49544f4b454e5360b01b604482015260640161026d565b604051632770a7eb60e21b815230600482015260248101829052737f3fe9d492a9a60aebb06d82cba23c6f32cad10b90639dc29fac906044016020604051808303816000875af1158015610dbf573d6000803e3d6000fd5b505050506040513d601f19601f82011682018060405250810190610de39190611f7e565b60055560045484118015610dfa5750600454600554115b15610e14576000805462ffff001916610100179055610e26565b6000805462ffff001916620100001790555b5050505050565b6000806000610e3d87878761166c565b91509150610e4c84838361193a565b9250610e59868886611016565b6000879050866001600160a01b0316816001600160a01b0316630dfe16816040518163ffffffff1660e01b8152600401602060405180830381865afa158015610ea6573d6000803e3d6000fd5b505050506040513d601f19601f82011682018060405250810190610eca9190611f2a565b6001600160a01b031603610f4e57604080516000808252602082019283905263022c0d9f60e01b9092526001600160a01b0383169163022c0d9f91610f1791908890309060248101611f47565b600060405180830381600087803b158015610f3157600080fd5b505af1158015610f45573d6000803e3d6000fd5b50505050610fbf565b604080516000808252602082019283905263022c0d9f60e01b9092526001600160a01b0383169163022c0d9f91610f8c918891309060248101611f47565b600060405180830381600087803b158015610fa657600080fd5b505af1158015610fba573d6000803e3d6000fd5b505050505b505050949350505050565b6000806000610ffc85730bc529c00c6401aef6d220be8c6ea1667f6ad93e6000805160206121e983398151915261166c565b9150915061100b8482846119d7565b925050505b92915050565b604080516001600160a01b038481166024830152604480830185905283518084039091018152606490920183526020820180516001600160e01b031663a9059cbb60e01b179052915160009283929087169161107291906120fe565b6000604051808303816000865af19150503d80600081146110af576040519150601f19603f3d011682016040523d82523d6000602084013e6110b4565b606091505b50915091508180156110de5750805115806110de5750808060200190518101906110de919061211a565b610e265760405162461bcd60e51b815260206004820152600f60248201526e1514905394d1915497d19052531151608a1b604482015260640161026d565b604080516001600160a01b038481166024830152604480830185905283518084039091018152606490920183526020820180516001600160e01b031663095ea7b360e01b179052915160009283929087169161117891906120fe565b6000604051808303816000865af19150503d80600081146111b5576040519150601f19603f3d011682016040523d82523d6000602084013e6111ba565b606091505b50915091508180156111e45750805115806111e45750808060200190518101906111e4919061211a565b610e265760405162461bcd60e51b815260206004820152600e60248201526d1054141493d59157d1905253115160921b604482015260640161026d565b6040805160c081018252600080825260208083018290528284018290526060808401839052608080850184905260a085018490528551808701875273c0aee478e3658e2610c5f7a4a2e1777ce9e4f2ac8152735c69bee701ef814a2b6a3edd4b1652cb9cc5aa6f81850152865191820187526000805160206121e98339815191528252736b175474e89094c44da98b954eedeac495271d0f9382019390935273a0b86991c6218b36c1d19d4a2e9eb0ce3606eb489581019590955273dac17f958d2ee523a2206206994597c13d831ec7908501529192905b60028110156116665760008382600281106113165761131661213c565b602002015160405163e6a4390560e01b8152730bc529c00c6401aef6d220be8c6ea1667f6ad93e60048201526000805160206121e983398151915260248201526001600160a01b039091169063e6a4390590604401602060405180830381865afa158015611388573d6000803e3d6000fd5b505050506040513d601f19601f820116820180604052508101906113ac9190611f2a565b90506001600160a01b0381166113c2575061165e565b60005b600281101561165b57600081156113f057735c69bee701ef814a2b6a3edd4b1652cb9cc5aa6f611406565b73c0aee478e3658e2610c5f7a4a2e1777ce9e4f2ac5b905060005b60048110156116515760008682600481106114285761142861213c565b602002015160405163e6a4390560e01b8152730bc529c00c6401aef6d220be8c6ea1667f6ad93e60048201526001600160a01b03808316602483015291925060009185169063e6a4390590604401602060405180830381865afa158015611493573d6000803e3d6000fd5b505050506040513d601f19601f820116820180604052508101906114b79190611f2a565b90506001600160a01b03811615806114e05750856001600160a01b0316816001600160a01b0316145b156114ec575050611649565b6001600160a01b0382166000805160206121e9833981519152146116275760005b6002811015611621576000811561153857735c69bee701ef814a2b6a3edd4b1652cb9cc5aa6f61154e565b73c0aee478e3658e2610c5f7a4a2e1777ce9e4f2ac5b60405163e6a4390560e01b81526001600160a01b0386811660048301526000805160206121e9833981519152602483015291925060009183169063e6a4390590604401602060405180830381865afa1580156115ae573d6000803e3d6000fd5b505050506040513d601f19601f820116820180604052508101906115d29190611f2a565b90506001600160a01b03811615806115fb5750836001600160a01b0316816001600160a01b0316145b15611607575050611619565b6116148d8a868489611a77565b9c5050505b60010161150d565b50611646565b6116438a878360006000805160206121e9833981519152611a77565b99505b50505b60010161140b565b50506001016113c5565b50505b6001016112f9565b50505090565b6000806000859050600080826001600160a01b0316630902f1ac6040518163ffffffff1660e01b8152600401606060405180830381865afa1580156116b5573d6000803e3d6000fd5b505050506040513d601f19601f820116820180604052508101906116d9919061216e565b5091509150866001600160a01b0316836001600160a01b0316630dfe16816040518163ffffffff1660e01b8152600401602060405180830381865afa158015611726573d6000803e3d6000fd5b505050506040513d601f19601f8201168201806040525081019061174a9190611f2a565b6001600160a01b03161480156117d25750856001600160a01b0316836001600160a01b031663d21220a76040518163ffffffff1660e01b8152600401602060405180830381865afa1580156117a3573d6000803e3d6000fd5b505050506040513d601f19601f820116820180604052508101906117c79190611f2a565b6001600160a01b0316145b156117ee576001600160701b0391821694501691506119329050565b856001600160a01b0316836001600160a01b0316630dfe16816040518163ffffffff1660e01b8152600401602060405180830381865afa158015611836573d6000803e3d6000fd5b505050506040513d601f19601f8201168201806040525081019061185a9190611f2a565b6001600160a01b03161480156118e25750866001600160a01b0316836001600160a01b031663d21220a76040518163ffffffff1660e01b8152600401602060405180830381865afa1580156118b3573d6000803e3d6000fd5b505050506040513d601f19601f820116820180604052508101906118d79190611f2a565b6001600160a01b0316145b6119205760405162461bcd60e51b815260206004820152600f60248201526e4241445f504149525f544f4b454e5360881b604482015260640161026d565b6001600160701b039081169450169150505b935093915050565b6000808411801561194b5750600083115b80156119575750600082115b6119935760405162461bcd60e51b815260206004820152600d60248201526c4241445f4f55545f51554f544560981b604482015260640161026d565b60006119a1856103e56121be565b9050806119b0856103e86121be565b6119ba91906121d5565b6119c484836121be565b6119ce91906120c9565b95945050505050565b600080841180156119e85750600083115b80156119f357508382115b611a2e5760405162461bcd60e51b815260206004820152600c60248201526b4241445f494e5f51554f544560a01b604482015260640161026d565b611a3884836120eb565b611a44906103e56121be565b611a4e85856121be565b611a5a906103e86121be565b611a6491906120c9565b611a6f9060016121d5565b949350505050565b6040805160c081018252600080825260208201819052918101829052606081018290526080810182905260a08101919091526000604051806102400160405280610100815260200160c0815260200160a0815260200160808152602001606081526020016050815260200160408152602001603081526020016028815260200160208152602001601881526020016014815260200160108152602001600c8152602001600a815260200160088152602001600681526020016004815250905060005b6012811015611bd657600080611b6889898989888860128110611b5e57611b5e61213c565b6020020151611be2565b915091508960a00151811115611bcc576040518060c001604052808a6001600160a01b03168152602001896001600160a01b03168152602001886001600160a01b03168152602001876001600160a01b031681526020018381526020018281525099505b5050600101611b39565b50959695505050505050565b600080600080611c1589730bc529c00c6401aef6d220be8c6ea1667f6ad93e6000805160206121e983398151915261166c565b91509150600080611c3b8a730bc529c00c6401aef6d220be8c6ea1667f6ad93e8a61166c565b915091508360001480611c4c575082155b80611c55575081155b80611c5e575080155b15611c73576000809550955050505050611d7b565b611c7d87856120c9565b9550851580611c8c5750838610155b15611ca1576000809550955050505050611d7b565b6000611cae87848461193a565b905080600003611cc957600080965096505050505050611d7b565b806001600160a01b038a166000805160206121e983398151915214611d3e57600080611d048d8d6000805160206121e983398151915261166c565b915091508160001480611d15575080155b15611d2e57600080995099505050505050505050611d7b565b611d3984838361193a565b925050505b6000611d4b8987896119d7565b9050808211611d67576000809850985050505050505050611d7b565b611d7181836120eb565b9750505050505050505b9550959350505050565b6001600160a01b0381168114611d9a57600080fd5b50565b600080600080600060808688031215611db557600080fd5b8535611dc081611d85565b94506020860135935060408601359250606086013567ffffffffffffffff811115611dea57600080fd5b8601601f81018813611dfb57600080fd5b803567ffffffffffffffff811115611e1257600080fd5b886020828401011115611e2457600080fd5b959894975092955050506020019190565b60005b83811015611e50578181015183820152602001611e38565b50506000910152565b60008151808452611e71816020860160208601611e35565b601f01601f19169290920160200192915050565b602081526000611e986020830184611e59565b9392505050565b60008060008060808587031215611eb557600080fd5b8435611ec081611d85565b93506020850135611ed081611d85565b92506040850135611ee081611d85565b9396929550929360600135925050565b600181811c90821680611f0457607f821691505b602082108103611f2457634e487b7160e01b600052602260045260246000fd5b50919050565b600060208284031215611f3c57600080fd5b8151611e9881611d85565b84815283602082015260018060a01b0383166040820152608060608201526000611f746080830184611e59565b9695505050505050565b600060208284031215611f9057600080fd5b5051919050565b634e487b7160e01b600052604160045260246000fd5b601f821115610a5b57806000526020600020601f840160051c81016020851015611fd45750805b601f840160051c820191505b81811015610e265760008155600101611fe0565b815167ffffffffffffffff81111561200e5761200e611f97565b6120228161201c8454611ef0565b84611fad565b6020601f821160018114612056576000831561203e5750848201515b600019600385901b1c1916600184901b178455610e26565b600084815260208120601f198516915b828110156120865787850151825560209485019460019092019101612066565b50848210156120a45786840151600019600387901b60f8161c191681555b50505050600190811b01905550565b634e487b7160e01b600052601160045260246000fd5b6000826120e657634e487b7160e01b600052601260045260246000fd5b500490565b81810381811115611010576110106120b3565b60008251612110818460208701611e35565b9190910192915050565b60006020828403121561212c57600080fd5b81518015158114611e9857600080fd5b634e487b7160e01b600052603260045260246000fd5b80516001600160701b038116811461216957600080fd5b919050565b60008060006060848603121561218357600080fd5b61218c84612152565b925061219a60208501612152565b9150604084015163ffffffff811681146121b357600080fd5b809150509250925092565b8082028115828204841417611010576110106120b3565b80820180821115611010576110106120b356fe000000000000000000000000c02aaa39b223fe8d0a0e5c4f27ead9083c756cc27075626c69632d5946492d666c617368737761702d3e70726f6265206d696e742872656365697665722c582920616e64206275726e2873686172657329206f6e206c69766520706f6f6c2d3e7374616765312073686f72742d7265636569766520616273656e74206f6e205946492d3e7265616c697a6520666c617368737761702070726f666974207468726f756768207075626c69632059464920726f7574696e67726566757465642d6c6976652d7966692d6e6f742d6465666c6174696f6e6172797075626c69632d5946492d666c617368737761702d3e6d696e742872656365697665722c58292d3e6275726e28696e666c617465642d736861726573292d3e73656c6c2d72656465656d65642d5946492d696e746f2d7075626c69632d6c6971756964697479a2646970667358221220892c10a803bef4c4e13e51bb3c3262c0774e68f39c9219afd09d2f301dc57d8864736f6c634300081a0033","linkReferences":{}},"methodIdentifiers":{"attackerSpendAmount()":"ec32918a","bridgePair()":"4e806f4f","burnReturnAmount()":"ffab559c","executeOnOpportunity()":"3c2448ed","executed()":"31a38c89","exitPair()":"de7dc9b9","exploitPathUsed()":"d78c4281","flashPair()":"6f98fb5d","hypothesisRefuted()":"495f92f1","hypothesisValidated()":"463defd1","loanToken()":"06d37817","poolReceiveAmount()":"49327e5e","profitAmount()":"5ff972cc","profitToken()":"49343624","status()":"200d2ed2","uniswapV2Call(address,uint256,uint256,bytes)":"10d1e85c"},"id":0}