{"abi":[{"type":"constructor","inputs":[],"stateMutability":"nonpayable"},{"type":"receive","stateMutability":"payable"},{"type":"function","name":"AAVE_V3_POOL","inputs":[],"outputs":[{"name":"","type":"address","internalType":"address"}],"stateMutability":"view"},{"type":"function","name":"TARGET","inputs":[],"outputs":[{"name":"","type":"address","internalType":"address"}],"stateMutability":"view"},{"type":"function","name":"UNISWAP_V3_FACTORY","inputs":[],"outputs":[{"name":"","type":"address","internalType":"address"}],"stateMutability":"view"},{"type":"function","name":"UNISWAP_V3_QUOTER","inputs":[],"outputs":[{"name":"","type":"address","internalType":"address"}],"stateMutability":"view"},{"type":"function","name":"UNISWAP_V3_ROUTER","inputs":[],"outputs":[{"name":"","type":"address","internalType":"address"}],"stateMutability":"view"},{"type":"function","name":"WETH","inputs":[],"outputs":[{"name":"","type":"address","internalType":"address"}],"stateMutability":"view"},{"type":"function","name":"actualWithdraw","inputs":[],"outputs":[{"name":"","type":"uint256","internalType":"uint256"}],"stateMutability":"view"},{"type":"function","name":"borrowedShares","inputs":[],"outputs":[{"name":"","type":"uint256","internalType":"uint256"}],"stateMutability":"view"},{"type":"function","name":"controllerBalanceBeforeWithdraw","inputs":[],"outputs":[{"name":"","type":"uint256","internalType":"uint256"}],"stateMutability":"view"},{"type":"function","name":"estimatedControllerGross","inputs":[],"outputs":[{"name":"","type":"uint256","internalType":"uint256"}],"stateMutability":"view"},{"type":"function","name":"estimatedControllerNet","inputs":[],"outputs":[{"name":"","type":"uint256","internalType":"uint256"}],"stateMutability":"view"},{"type":"function","name":"estimatedShortfall","inputs":[],"outputs":[{"name":"","type":"uint256","internalType":"uint256"}],"stateMutability":"view"},{"type":"function","name":"executeOnOpportunity","inputs":[],"outputs":[],"stateMutability":"nonpayable"},{"type":"function","name":"executeOperation","inputs":[{"name":"asset","type":"address","internalType":"address"},{"name":"amount","type":"uint256","internalType":"uint256"},{"name":"premium","type":"uint256","internalType":"uint256"},{"name":"initiator","type":"address","internalType":"address"},{"name":"params","type":"bytes","internalType":"bytes"}],"outputs":[{"name":"","type":"bool","internalType":"bool"}],"stateMutability":"nonpayable"},{"type":"function","name":"expectedWithdraw","inputs":[],"outputs":[{"name":"","type":"uint256","internalType":"uint256"}],"stateMutability":"view"},{"type":"function","name":"exploitPathUsed","inputs":[],"outputs":[{"name":"","type":"string","internalType":"string"}],"stateMutability":"pure"},{"type":"function","name":"finalWethBalance","inputs":[],"outputs":[{"name":"","type":"uint256","internalType":"uint256"}],"stateMutability":"view"},{"type":"function","name":"fundingFeeTier","inputs":[],"outputs":[{"name":"","type":"uint24","internalType":"uint24"}],"stateMutability":"view"},{"type":"function","name":"fundingPool","inputs":[],"outputs":[{"name":"","type":"address","internalType":"address"}],"stateMutability":"view"},{"type":"function","name":"hypothesisValidated","inputs":[],"outputs":[{"name":"","type":"bool","internalType":"bool"}],"stateMutability":"view"},{"type":"function","name":"idleBeforeWithdraw","inputs":[],"outputs":[{"name":"","type":"uint256","internalType":"uint256"}],"stateMutability":"view"},{"type":"function","name":"initialWethBalance","inputs":[],"outputs":[{"name":"","type":"uint256","internalType":"uint256"}],"stateMutability":"view"},{"type":"function","name":"investedBeforeWithdraw","inputs":[],"outputs":[{"name":"","type":"uint256","internalType":"uint256"}],"stateMutability":"view"},{"type":"function","name":"outcome","inputs":[],"outputs":[{"name":"","type":"uint8","internalType":"enum FlawVerifier.Outcome"}],"stateMutability":"view"},{"type":"function","name":"profitAmount","inputs":[],"outputs":[{"name":"","type":"uint256","internalType":"uint256"}],"stateMutability":"view"},{"type":"function","name":"profitToken","inputs":[],"outputs":[{"name":"","type":"address","internalType":"address"}],"stateMutability":"pure"},{"type":"function","name":"quotedStonePurchaseCost","inputs":[],"outputs":[{"name":"","type":"uint256","internalType":"uint256"}],"stateMutability":"view"},{"type":"function","name":"repayAmount","inputs":[],"outputs":[{"name":"","type":"uint256","internalType":"uint256"}],"stateMutability":"view"},{"type":"function","name":"roundsRolled","inputs":[],"outputs":[{"name":"","type":"uint256","internalType":"uint256"}],"stateMutability":"view"},{"type":"function","name":"sharesBurned","inputs":[],"outputs":[{"name":"","type":"uint256","internalType":"uint256"}],"stateMutability":"view"},{"type":"function","name":"verifiedLossAmount","inputs":[],"outputs":[{"name":"","type":"uint256","internalType":"uint256"}],"stateMutability":"view"}],"bytecode":{"object":"0x6080806040523460155761238c908161001a8239f35b5f80fdfe608080604052600436101561001c575b50361561001a575f80fd5b005b5f3560e01c90816312234e8e14610eac575080631712540a14610e8a5780631b11d0ff146106e95780631ca62a22146106cc5780631f3de348146106af57806323cdbd3c1461069257806327793f871461065257806330b6ade6146106355780633b303705146106075780633c2448ed146105ef57806341c64a2f146105c15780634585ef9e146105a4578063463defd11461057f57806347f1b75c146105625780634934362414610488578063546a3060146105455780635dda2fbd146105285780635ff972cc1461050657806371c5c4ab146104e95780637aca04b7146104cc57806391626308146104af578063ad5c464814610488578063c3a792a21461046b578063c5c8fb611461043d578063cc1f2afa1461040f578063d0efe753146103f2578063d604aae5146103d5578063d78c4281146101f3578063ee29d913146101d7578063f6a1fe94146101af5763f73e5aab1461017d575f61000f565b346101ab575f3660031901126101ab576020604051731f98431c8ad98523631ae4a59f267346ea31f9848152f35b5f80fd5b346101ab575f3660031901126101ab57601054604051602091821c6001600160a01b03168152f35b346101ab575f3660031901126101ab5760205f54604051908152f35b346101ab575f3660031901126101ab576040516101608101908082106001600160401b038311176103c1576103bd9160405261013d81527f41617665205745544820666c6173686c6f616e202d3e207075626c696320556e60208201527f697377617056332073706f7420627579206f66206578697374696e672053544f60408201527f4e4520736861726573202d3e206f7074696f6e616c207075626c696320726f6c60608201527f6c546f4e657874526f756e6420746f207265647563652069646c65206c69717560808201527f6964697479202d3e20696e7374616e7457697468647261772866756c6c20626f60a08201527f756768742073686172657329206275726e73207368617265732066697273742060c08201527f2d3e20636f6e74726f6c6c657220666f72636557697468647261772061736b7360e08201527f20726174696f2d736c69636564207374726174656779207769746864726177616101008201527f6c73202d3e207661756c742072657475726e73206f6e6c79207061727469616c6101208201527f20455448207768696c65207368617265732073746179206275726e6564000000610140820152604051918291602083526020830190610ec6565b0390f35b634e487b7160e01b5f52604160045260245ffd5b346101ab575f3660031901126101ab576020600254604051908152f35b346101ab575f3660031901126101ab576020600554604051908152f35b346101ab575f3660031901126101ab57602060405173a62f9c5af106feee069f38de51098d9d81b905728152f35b346101ab575f3660031901126101ab57602060405173b27308f9f90d607463bb33ea1bebb41c27ce5ab68152f35b346101ab575f3660031901126101ab576020600654604051908152f35b346101ab575f3660031901126101ab5760206040515f5160206123375f395f51905f528152f35b346101ab575f3660031901126101ab576020600354604051908152f35b346101ab575f3660031901126101ab576020600b54604051908152f35b346101ab575f3660031901126101ab576020600d54604051908152f35b346101ab575f3660031901126101ab5760206105206113a2565b604051908152f35b346101ab575f3660031901126101ab576020600a54604051908152f35b346101ab575f3660031901126101ab576020600954604051908152f35b346101ab575f3660031901126101ab576020600454604051908152f35b346101ab575f3660031901126101ab57602060ff60105460181c166040519015158152f35b346101ab575f3660031901126101ab576020600754604051908152f35b346101ab575f3660031901126101ab57602060405173e592427a0aece92de3edee1f18e0157c058615648152f35b346101ab575f3660031901126101ab5761001a610f7f565b346101ab575f3660031901126101ab5760206040517387870bca3f3fd6335c3f4ce8392d69350b4fa4e28152f35b346101ab575f3660031901126101ab576020600154604051908152f35b346101ab575f3660031901126101ab5760ff60105460c01c16604051600682101561067e576020918152f35b634e487b7160e01b5f52602160045260245ffd5b346101ab575f3660031901126101ab576020600c54604051908152f35b346101ab575f3660031901126101ab576020600854604051908152f35b346101ab575f3660031901126101ab576020600e54604051908152f35b346101ab5760a03660031901126101ab576004356001600160a01b038116908190036101ab576064356001600160a01b03811691602435918390036101ab57608435926001600160401b0384116101ab57366023850112156101ab5783600401356001600160401b0381116101ab578401913660248401116101ab577387870bca3f3fd6335c3f4ce8392d69350b4fa4e23303610e5a575f5160206123375f395f51905f5203610e29573003610df457604090839003126101ab57604460248301359201359162ffffff83168093036101ab57604051630167eb8560e01b815260208160048173a62f9c5af106feee069f38de51098d9d81b905725afa908115610bd0575f91610dba575b5060405163095ea7b360e01b815273e592427a0aece92de3edee1f18e0157c0586156460048201525f60248201526020816044815f5f5160206123375f395f51905f525af1908115610bd0575f91610d9b575b5015610bdb5760405163095ea7b360e01b815273e592427a0aece92de3edee1f18e0157c058615646004820152602481018490526020816044815f5f5160206123375f395f51905f525af1908115610bd0575f91610d7c575b5015610b6b576040519061010082018281106001600160401b038211176103c15760409081525f5160206123375f395f51905f5283526001600160a01b0391821660208085018281528584019889523060608701908152426080880190815260a0880189815260c089018b81525f60e08b018181529851631b67c43360e31b81529a518a1660048c01529451891660248b01529b5162ffffff1660448a01529151871660648901525160848801525160a4870152975160c4860152915190921660e48401529094829061010490829073e592427a0aece92de3edee1f18e0157c058615645af1908115610bd0575f91610d4a575b50600f556040516370a0823160e01b815230600482015247939091602083602481855afa928315610bd0575f93610d16575b506040519063b18f2e9160e01b82525f600483015260248201526020816044815f73a62f9c5af106feee069f38de51098d9d81b905725af18015610bd057610ce3575b506020610a1860249547610f3b565b91604051958680926370a0823160e01b82523060048301525afa908115610bd0575f91610cad575b600455610a6d935080821115610ca557610a5991610f3b565b600d55610a646113d8565b60443590610f5c565b60058190556040516370a0823160e01b81523060048201526020816024815f5160206123375f395f51905f525afa8015610bd05782915f91610c70575b5010610c365760405163095ea7b360e01b81527387870bca3f3fd6335c3f4ce8392d69350b4fa4e260048201525f60248201526020816044815f5f5160206123375f395f51905f525af1908115610bd0575f91610c17575b5015610bdb576040519063095ea7b360e01b82527387870bca3f3fd6335c3f4ce8392d69350b4fa4e2600483015260248201526020816044815f5f5160206123375f395f51905f525af1908115610bd0575f91610ba1575b5015610b6b57602060405160018152f35b60405162461bcd60e51b815260206004820152600e60248201526d185c1c1c9bdd994819985a5b195960921b6044820152606490fd5b610bc3915060203d602011610bc9575b610bbb8183610f06565b8101906113c0565b81610b5a565b503d610bb1565b6040513d5f823e3d90fd5b60405162461bcd60e51b8152602060048201526014602482015273185c1c1c9bdd99481c995cd95d0819985a5b195960621b6044820152606490fd5b610c30915060203d602011610bc957610bbb8183610f06565b82610b02565b60405162461bcd60e51b8152602060048201526012602482015271696e73756666696369656e7420726570617960701b6044820152606490fd5b9150506020813d602011610c9d575b81610c8c60209383610f06565b810103126101ab5781905183610aaa565b3d9150610c7f565b50505f610a59565b90506020843d602011610cdb575b81610cc860209383610f06565b810103126101ab57610a6d935190610a40565b3d9150610cbb565b936020853d602011610d0e575b81610cfd60209383610f06565b810103126101ab5793506020610a09565b3d9150610cf0565b9092506020813d602011610d42575b81610d3260209383610f06565b810103126101ab575191856109c6565b3d9150610d25565b90506020813d602011610d74575b81610d6560209383610f06565b810103126101ab575184610994565b3d9150610d58565b610d95915060203d602011610bc957610bbb8183610f06565b856108a0565b610db4915060203d602011610bc957610bbb8183610f06565b85610847565b90506020813d602011610dec575b81610dd560209383610f06565b810103126101ab57610de690610f27565b846107f4565b3d9150610dc8565b60405162461bcd60e51b815260206004820152600d60248201526c3130b21034b734ba34b0ba37b960991b6044820152606490fd5b60405162461bcd60e51b815260206004820152600960248201526818985908185cdcd95d60ba1b6044820152606490fd5b60405162461bcd60e51b8152602060048201526008602482015267189859081c1bdbdb60c21b6044820152606490fd5b346101ab575f3660031901126101ab57602062ffffff60105416604051908152f35b346101ab575f3660031901126101ab57602090600f548152f35b805180835260209291819084018484015e5f828201840152601f01601f1916010190565b61012081019081106001600160401b038211176103c157604052565b90601f801991011681019081106001600160401b038211176103c157604052565b51906001600160a01b03821682036101ab57565b91908203918211610f4857565b634e487b7160e01b5f52601160045260245ffd5b91908201809211610f4857565b91908260409103126101ab576020825192015190565b6040516370a0823160e01b81523060048201525f906020816024815f5160206123375f395f51905f525afa908115610bd0575f91611370575b50805f556001555f6002555f6003555f6004555f6005555f6006555f6007555f6008555f6009555f600a555f600b555f600c555f600d555f600e555f600f556001600160401b0360c01b6010541660105560ff60c01b196010541660105561101e611474565b80516001600160a01b03161561135957604081018051600255606082018051600f55608083015160055560a083015160035561010083519360105494602082019562ffffff87511691640100000000600160c01b039060201b169063ff000001600160c01b031916171760105560c081015160095560e0810151600a5501516008556040516382f1631f60e01b81526040816004815f73a62f9c5af106feee069f38de51098d9d81b905725af18015610bd0575f915f91611328575b50600755806006556110f26003549160085490610f5c565b101561130157600354600954808211156113205761110f91610f3b565b80600b551561130157600a546005549066038d7ea4c680008201809211610f485711156112e85762ffffff9051915192511660405192602084015260408301526040825261115e606083610f06565b7387870bca3f3fd6335c3f4ce8392d69350b4fa4e23b156101ab576111c0915f9160405193849283926310ac2ddf60e21b84523060048501525f5160206123375f395f51905f526024850152604484015260a0606484015260a4830190610ec6565b8360848301520381837387870bca3f3fd6335c3f4ce8392d69350b4fa4e25af18015610bd0576112d5575b506111f46113d8565b6040516370a0823160e01b81523060048201526020816024815f5160206123375f395f51905f525afa9081156112ca578291611298575b50600155600d54600254148061128b575b156112755761125060035460045490610f3b565b600c55506010805463ff00000060ff60c01b0119166301000000600560c01b01179055565b506010805460ff60c01b1916600160c21b179055565b506004546003541161123c565b90506020813d6020116112c2575b816112b360209383610f06565b810103126101ab57515f61122b565b3d91506112a6565b6040513d84823e3d90fd5b6112e191505f90610f06565b5f5f6111eb565b50506010805460ff60c01b1916600360c01b1790555050565b50506010805460ff60c01b1916600160c11b1790555061131e9050565b565b50505f61110f565b905061134c915060403d604011611352575b6113448183610f06565b810190610f69565b5f6110da565b503d61133a565b50506010805460ff60c01b1916600160c01b179055565b90506020813d60201161139a575b8161138b60209383610f06565b810103126101ab57515f610fb8565b3d915061137e565b6001545f548082116113b45750505f90565b6113bd91610f3b565b90565b908160209103126101ab575180151581036101ab5790565b47806113e15750565b5f5160206123375f395f51905f523b156101ab575f60049160405192838092630d0e30db60e41b82525f5160206123375f395f51905f525af18015610bd0576114275750565b5f61131e91610f06565b6040519061143e82610eea565b5f610100838281528260208201528260408201528260608201528260808201528260a08201528260c08201528260e08201520152565b61147c611431565b90604051630167eb8560e01b815260208160048173a62f9c5af106feee069f38de51098d9d81b905725afa908115610bd0575f9161156e575b505f5b600481106114c4575050565b6114e28273a62f9c5af106feee069f38de51098d9d81b905726115cd565b80516001600160a01b0316611568575073a62f9c5af106feee069f38de51098d9d81b905723b156101ab57604051635069fb5760e01b81525f816004818373a62f9c5af106feee069f38de51098d9d81b905725af19081611558575b50611547575050565b60019081600e5401600e55016114b8565b5f61156291610f06565b5f61153e565b93505050565b90506020813d6020116115a0575b8161158960209383610f06565b810103126101ab5761159a90610f27565b5f6114b5565b3d915061157c565b9060048110156115b95760051b0190565b634e487b7160e01b5f52603260045260245ffd5b91906115d7611431565b9260405160e081018181106001600160401b038211176103c1576040525f815260208101905f825260408101935f855260608201925f845260808301945f865260a08401965f885260c08501915f835261163081611efe565b865260405163ea99e68960e01b81526001600160a01b039190911693602082600481885afa918215610bd0575f92611b31575b5052604080516382f1631f60e01b815290816004815f885af1908115610bd0575f91611b11575b50815260405162258d6b60e01b8152602081600481875afa908115610bd0575f91611ad7575b5031865260405163074b2e4360e01b81526020816004817387870bca3f3fd6335c3f4ce8392d69350b4fa4e25afa908115610bd0575f91611a8c575b506001600160801b031690915251845161170591610f5c565b60018101809111610f4857835161171b91611e1a565b80865215611a83575b84518060051b9080820460201490151715610f4857865260405162258d6b60e01b815290602090829060049082905afa8015610bd0575f90611a48575b61176b9150611ba3565b928351518015908115611a38575b50611a3057604084015190816119ff575b505060405190608082018281106001600160401b038211176103c15760409695929652606486526101f46020870152610bb8604087015261271060608701525f915b600483106117dd5750505050505050565b62ffffff6117f384899b9a9495969798996115a8565b51604051630b4c774160e11b81526001600160a01b03861660048201525f5160206123375f395f51905f5260248201529116604482015293602085606481731f98431c8ad98523631ae4a59f267346ea31f9845afa948515610bd0575f956119c4575b506001600160a01b038516156119b35762ffffff611874828c6115a8565b51169261187f611431565b9861014093604051946118928187610f06565b3686378051855280518060011b9080820460021490151715610f4857602086015280518060021b9080820460041490151715610f4857604086015280518060031b9080820460081490151715610f4857606086015280519c8d8060041b9e8f0460101490151715610f4857600a9d6080870152825160061c60a0870152825160051c60c0870152825160041c60e0870152825160031c610100870152825160021c6101208701525f9d8e5b101561197f57600a9d8c61196661195f8e8e8e8e8e8e8960051b01519261204d565b9182611e6e565b611976575b506001019d8e61193d565b9c50600161196b565b96955098979650989192509899506119978a82611e6e565b6119aa575b506001905b019195946117cc565b9850600161199c565b6001919695945098929197986119a1565b9094506020813d82116119f7575b816119df60209383610f06565b810103126101ab576119f090610f27565b935f611856565b3d91506119d2565b611a1691611a0e915190610f5c565b835190611e1a565b60011c85518111611a28575b8061178a565b85525f611a22565b505050505050565b905060208501515114155f611779565b506020813d602011611a7b575b81611a6260209383610f06565b810103126101ab57611a7661176b91610f27565b611761565b3d9150611a55565b60018552611724565b90506020813d602011611acf575b81611aa760209383610f06565b810103126101ab5751916001600160801b03831683036101ab57916001600160801b036116ec565b3d9150611a9a565b90506020813d602011611b09575b81611af260209383610f06565b810103126101ab57611b0390610f27565b5f6116b0565b3d9150611ae5565b611b2a915060403d604011611352576113448183610f06565b505f61168a565b9091506020813d602011611b5d575b81611b4d60209383610f06565b810103126101ab5751905f611663565b3d9150611b40565b81810292918115918404141715610f4857565b6001600160401b0381116103c15760051b60200190565b80518210156115b95760209160051b010190565b9060405191606083018381106001600160401b038211176103c15760405260608352606060208401525f6040840152829060018060a01b0316926040519063b49a60bb60e01b82525f82600481885afa908115610bd0575f925f92611d0d575b5082518015908115611d01575b50611cfa57508252805190611c2482611b78565b91611c326040519384610f06565b808352611c41601f1991611b78565b01366020840137602083019182525f5b8151811015611cf3576001600160a01b03611c6c8284611b8f565b5160405163792eedb160e11b815291166004820152906020826024815f8b5af18015610bd0575f90611cc1575b6001925080611ca9838751611b8f565b52611cb960408701918251610f5c565b905201611c51565b506020823d8211611ceb575b81611cda60209383610f06565b810103126101ab5760019151611c99565b3d9150611ccd565b5050509150565b9450505050565b9050825114155f611c10565b925090503d805f843e611d208184610f06565b8201916040818403126101ab5780516001600160401b0381116101ab5781019083601f830112156101ab57815191611d5783611b78565b92611d656040519485610f06565b80845260208085019160051b830101918683116101ab57602001905b828210611e02575050506020810151906001600160401b0382116101ab57019280601f850112156101ab578351611db781611b78565b94611dc56040519687610f06565b81865260208087019260051b8201019283116101ab57602001905b828210611df25750505091905f611c03565b8151815260209182019101611de0565b60208091611e0f84610f27565b815201910190611d81565b670de0b6b3a7640000810290808204670de0b6b3a76400001490151715610f485781611e4591610f5c565b5f198101908111610f48578115611e5a570490565b634e487b7160e01b5f52601260045260245ffd5b80516001600160a01b031615611ef85781516001600160a01b031615611ef157611ea160e0820151608083015190610f3b565b611eb460e0840151608085015190610f3b565b90818103611eea575050611ed58160c060a0611ee694015191015190610f3b565b9160c060a082015191015190610f3b565b1090565b1192915050565b5050600190565b50505f90565b604051633dd8ce7760e21b81526001600160a01b039190911690602081600481855afa908115610bd0575f9161201b575b50801561200d57604051631453cabb60e11b8152906020826004815f875af1918215610bd0575f92611fd9575b505f198101908111610f48576020906024604051809581936387153eb160e01b835260048301525afa918215610bd0575f92611fa5575b5080821015611fa0575090565b905090565b9091506020813d602011611fd1575b81611fc160209383610f06565b810103126101ab5751905f611f93565b3d9150611fb4565b9091506020813d602011612005575b81611ff560209383610f06565b810103126101ab5751905f611f5c565b3d9150611fe8565b5050670de0b6b3a764000090565b90506020813d602011612045575b8161203660209383610f06565b810103126101ab57515f611f2f565b3d9150612029565b949192909361205a611431565b908260808201518091106121b7575b50821580156121aa575b6121a057670de0b6b3a764000061208b825185611b65565b049260408201948551956120a56060850197885190610f5c565b86111561218757906120c391519087516020825192015192886121bf565b9485851115612194576120e582896120df60208701518a612268565b9961228c565b9283156121875760c06120fa91015184611b65565b61270f8101809111610f4857612710612114910484610f5c565b9366038d7ea4c680008501808611610f485788111561217a575062ffffff905197604051996121428b610eea565b6001600160a01b03168a5216602089015260408801526060870152608086015260a085015260c084015260e083015261010082015290565b9850505050505050505090565b5050505094505050505090565b50505094505050505090565b5094505050505090565b5060a08101518311612073565b92505f612069565b94939190809581811115612260576121db6121e1928492610f3b565b96610f5c565b948181111561225a57906121f491610f3b565b908251915f935b838510612209575050505050565b9091929395612247600191620f424061222c6122258b87611b8f565b5187611b65565b046122378a88611b8f565b5180821015612252575090610f5c565b9601939291906121fb565b905090610f5c565b50505050565b955050505050565b9080156122885790620f42406122816113bd9383611b65565b0490610f3b565b5090565b919062ffffff90604051936330d07f2160e01b85525f5160206123375f395f51905f52600486015260018060a01b0316602485015216604483015260648201525f608482015260208160a4815f73b27308f9f90d607463bb33ea1bebb41c27ce5ab65af15f9181612302575b506113bd57505f90565b9091506020813d60201161232e575b8161231e60209383610f06565b810103126101ab5751905f6122f8565b3d915061231156fe000000000000000000000000c02aaa39b223fe8d0a0e5c4f27ead9083c756cc2a2646970667358221220f23a826bb6eb8ac14ca6b0436c82939608a55be98553ad1f03ab8001f72fa90c64736f6c634300081e0033","linkReferences":{}},"methodIdentifiers":{"AAVE_V3_POOL()":"3b303705","TARGET()":"cc1f2afa","UNISWAP_V3_FACTORY()":"f73e5aab","UNISWAP_V3_QUOTER()":"c5c8fb61","UNISWAP_V3_ROUTER()":"41c64a2f","WETH()":"ad5c4648","actualWithdraw()":"47f1b75c","borrowedShares()":"d604aae5","controllerBalanceBeforeWithdraw()":"1f3de348","estimatedControllerGross()":"546a3060","estimatedControllerNet()":"5dda2fbd","estimatedShortfall()":"7aca04b7","executeOnOpportunity()":"3c2448ed","executeOperation(address,uint256,uint256,address,bytes)":"1b11d0ff","expectedWithdraw()":"91626308","exploitPathUsed()":"d78c4281","finalWethBalance()":"30b6ade6","fundingFeeTier()":"1712540a","fundingPool()":"f6a1fe94","hypothesisValidated()":"463defd1","idleBeforeWithdraw()":"c3a792a2","initialWethBalance()":"ee29d913","investedBeforeWithdraw()":"4585ef9e","outcome()":"27793f87","profitAmount()":"5ff972cc","profitToken()":"49343624","quotedStonePurchaseCost()":"12234e8e","repayAmount()":"d0efe753","roundsRolled()":"1ca62a22","sharesBurned()":"71c5c4ab","verifiedLossAmount()":"23cdbd3c"},"id":0}