{"abi":[{"type":"constructor","inputs":[],"stateMutability":"nonpayable"},{"type":"receive","stateMutability":"payable"},{"type":"function","name":"DAI","inputs":[],"outputs":[{"name":"","type":"address","internalType":"address"}],"stateMutability":"view"},{"type":"function","name":"SUSHI_FACTORY","inputs":[],"outputs":[{"name":"","type":"address","internalType":"address"}],"stateMutability":"view"},{"type":"function","name":"TARGET","inputs":[],"outputs":[{"name":"","type":"address","internalType":"address"}],"stateMutability":"view"},{"type":"function","name":"UNI_FACTORY","inputs":[],"outputs":[{"name":"","type":"address","internalType":"address"}],"stateMutability":"view"},{"type":"function","name":"USDC","inputs":[],"outputs":[{"name":"","type":"address","internalType":"address"}],"stateMutability":"view"},{"type":"function","name":"WETH","inputs":[],"outputs":[{"name":"","type":"address","internalType":"address"}],"stateMutability":"view"},{"type":"function","name":"executeOnOpportunity","inputs":[],"outputs":[],"stateMutability":"nonpayable"},{"type":"function","name":"exploitPath","inputs":[],"outputs":[{"name":"","type":"string","internalType":"string"}],"stateMutability":"pure"},{"type":"function","name":"hypothesisValidated","inputs":[],"outputs":[{"name":"","type":"bool","internalType":"bool"}],"stateMutability":"view"},{"type":"function","name":"profitAmount","inputs":[],"outputs":[{"name":"","type":"uint256","internalType":"uint256"}],"stateMutability":"view"},{"type":"function","name":"profitToken","inputs":[],"outputs":[{"name":"","type":"address","internalType":"address"}],"stateMutability":"view"},{"type":"function","name":"uniswapV2Call","inputs":[{"name":"","type":"address","internalType":"address"},{"name":"amount0","type":"uint256","internalType":"uint256"},{"name":"amount1","type":"uint256","internalType":"uint256"},{"name":"","type":"bytes","internalType":"bytes"}],"outputs":[],"stateMutability":"nonpayable"},{"type":"error","name":"DustAcquisitionFailed","inputs":[]},{"type":"error","name":"DustDidNotPersist","inputs":[]},{"type":"error","name":"DustTransferFailed","inputs":[]},{"type":"error","name":"HypothesisRefuted","inputs":[]},{"type":"error","name":"InvalidCallback","inputs":[]},{"type":"error","name":"NoDustAcquisitionRoute","inputs":[]}],"bytecode":{"object":"0x60808060405234601557611e49908161001a8239f35b5f80fdfe6101c0604052600436101561001b575b3615610019575f80fd5b005b5f3560e01c806310d1e85c146104275780633c2448ed1461040f578063463defd1146103eb57806349343624146103c05780635ff972cc146103a357806389a302711461037557806389fc005614610347578063ad5c464814610319578063b753bb47146102eb578063cb707c62146100fc578063cc1f2afa146100ce5763e0bab4c40361000f57346100ca575f3660031901126100ca5760206040515f516020611df45f395f51905f528152f35b5f80fd5b346100ca575f3660031901126100ca57602060405173f3f84ce038442ae4c4dcb6a8ca8bacd7f28c9bde8152f35b346100ca575f3660031901126100ca576102e76040517f7573652074696e792063726f73732d7061697220666c6173682073776170732060208201527f6f6e6c7920746f20736f7572636520616e20616c72656164792d65786973746960408201527f6e67206f6e2d636861696e203120776569204441492062616c616e6365202d3e6060820152600160fd1b60808201527f7472616e736665722031207765692044414920746f20544152474554202d3e2060818201527f63616c6c205441524745542e657865637574654f6e4f70706f7274756e69747960a1820152650141490169f160d51b60c18201527f76696374696d206c69717569646174696f6e206f6273657276657320616d6f7560c78201527f6e74496e203d20312044414920776569202d3e2074696e7920556e697377617060e78201527f205632206f757470757420726f756e647320746f207a65726f202d3e200000006101078201527f726f7574657220737761702072657665727473202d3e207468652077686f6c656101248201527f207472616e73616374696f6e207265766572747320616e6420746865204441496101448201526d206475737420706572736973747360901b61016482015261015281526102d3610172826104e9565b604051918291602083526020830190610494565b0390f35b346100ca575f3660031901126100ca57602060405173c0aee478e3658e2610c5f7a4a2e1777ce9e4f2ac8152f35b346100ca575f3660031901126100ca57602060405173c02aaa39b223fe8d0a0e5c4f27ead9083c756cc28152f35b346100ca575f3660031901126100ca576020604051735c69bee701ef814a2b6a3edd4b1652cb9cc5aa6f8152f35b346100ca575f3660031901126100ca57602060405173a0b86991c6218b36c1d19d4a2e9eb0ce3606eb488152f35b346100ca575f3660031901126100ca576020600154604051908152f35b346100ca575f3660031901126100ca575f5460405160109190911c6001600160a01b03168152602090f35b346100ca575f3660031901126100ca57602060ff5f5460081c166040519015158152f35b346100ca575f3660031901126100ca57610019610b7d565b346100ca5760803660031901126100ca576004356001600160a01b038116036100ca5760643567ffffffffffffffff81116100ca57366023820112156100ca57806004013567ffffffffffffffff81116100ca57369101602401116100ca5761001960443560243561052c565b805180835260209291819084018484015e5f828201840152601f01601f1916010190565b610100810190811067ffffffffffffffff8211176104d557604052565b634e487b7160e01b5f52604160045260245ffd5b90601f8019910116810190811067ffffffffffffffff8211176104d557604052565b9190820391821161051857565b634e487b7160e01b5f52601160045260245ffd5b6002545f92906001600160a01b03163314610972576003546001600160a01b031633146105625763f7a632f560e01b8352600483fd5b811561096b57505b600654036107b9576040516370a0823160e01b81523060048201526020816024815f516020611df45f395f51905f525afa90811561096057829161092e575b5060018060a01b0360045416906105ce6005546105c584611adb565b80939183611cea565b918215908115610923575b5061091457848091604051602081019163a9059cbb60e01b835287602483015260448201526044815261060d6064826104e9565b51908273a0b86991c6218b36c1d19d4a2e9eb0ce3606eb485af161062f610b3e565b816108d8575b50156108c957604051630dfe168160e01b8152602081600481875afa9081156108be57905f516020611df45f395f51905f5291869161088f575b506001600160a01b03160361088857805b8161088057925b6020936040519261069886856104e9565b868452601f1986013687860137823b1561087c57916106ea93918780946040519687958694859363022c0d9f60e01b855260048501526024840152306044840152608060648401526084830190610494565b03925af1801561085c57908491610867575b50506040516370a0823160e01b81523060048201529082826024815f516020611df45f395f51905f525afa801561085c57849061082d575b61073e925061050b565b600754906001820190818311610819571061080a5782809160018060a01b036003541690604051908582019263a9059cbb60e01b8452602483015260448201526044815261078d6064826104e9565b5190825f516020611df45f395f51905f525af1906107a9610b3e565b826107c8575b5050156107b95750565b63f7a632f560e01b8152600490fd5b805192508215919082156107e2575b505090505f806107af565b809250819381010312610806570151801515810361080257805f806107d7565b5080fd5b8280fd5b6366e0b17560e01b8352600483fd5b634e487b7160e01b85526011600452602485fd5b508282813d8311610855575b61084381836104e9565b810103126100ca5761073e9151610734565b503d610839565b6040513d86823e3d90fd5b81610871916104e9565b61080657825f6106fc565b8680fd5b508392610687565b8390610680565b6108b1915060203d6020116108b7575b6108a981836104e9565b810190611a83565b5f61066f565b503d61089f565b6040513d87823e3d90fd5b6366e0b17560e01b8452600484fd5b80518015925082156108ed575b50505f610635565b819250906020918101031261091057602001518015158103610910575f806108e5565b8480fd5b6366e0b17560e01b8552600485fd5b90508210155f6105d9565b90506020813d602011610958575b81610949602093836104e9565b810103126100ca57515f6105a9565b3d915061093c565b6040513d84823e3d90fd5b905061056a565b8115610b3757505b60055403610b2857600354600654604051630dfe168160e01b81526001600160a01b0390921691602081600481865afa8015610af05773c02aaa39b223fe8d0a0e5c4f27ead9083c756cc2915f91610b09575b506001600160a01b031603610b0257805b81610afb575b823b156100ca5760c45f9283604051958694859363022c0d9f60e01b8552600485015260248401523060448401526080606484015260016084840152600160f81b60a48401525af18015610af057610add575b50808060018060a01b036002541660065460405190602082019263a9059cbb60e01b84526024830152604482015260448152610a746064826104e9565b51908273c02aaa39b223fe8d0a0e5c4f27ead9083c756cc25af1610a96610b3e565b81610aa5575b50156107b95750565b8051801592508215610aba575b50505f610a9c565b819250906020918101031261080257602001518015158103610802575f80610ab2565b610ae991505f906104e9565b5f5f610a37565b6040513d5f823e3d90fd5b505f6109e4565b5f906109de565b610b22915060203d6020116108b7576108a981836104e9565b5f6109cd565b63f7a632f560e01b5f5260045ffd5b905061097a565b3d15610b78573d9067ffffffffffffffff82116104d55760405191610b6d601f8201601f1916602001846104e9565b82523d5f602084013e565b606090565b5f5f5460ff8116611a7f576001600160b01b03191660019081175f90815590556040516370a0823160e01b815273f3f84ce038442ae4c4dcb6a8ca8bacd7f28c9bde60048201526020816024815f516020611df45f395f51905f525afa908115610af0575f91611a4d575b501580806119d9575b610f80575b610dc5575b80806040516020810190633c2448ed60e01b825260048152610c1e6024826104e9565b51908273f3f84ce038442ae4c4dcb6a8ca8bacd7f28c9bde5af1610c40610b3e565b50610db6576040516370a0823160e01b815273f3f84ce038442ae4c4dcb6a8ca8bacd7f28c9bde60048201526020816024815f516020611df45f395f51905f525afa908115610960578291610d84575b5015610d7557805462010000600160b01b03198116756b175474e89094c44da98b954eedeac495271d0f00001782556040516370a0823160e01b8152306004820152906020826024815f516020611df45f395f51905f525afa8015610d6a578390610d22575b600155610100600160b01b031916756b175474e89094c44da98b954eedeac495271d0f01001790915550565b506020823d602011610d62575b81610d3c602093836104e9565b810103126100ca57756b175474e89094c44da98b954eedeac495271d0f01009151610cf6565b3d9150610d2f565b6040513d85823e3d90fd5b6303081e6560e51b8152600490fd5b90506020813d602011610dae575b81610d9f602093836104e9565b810103126100ca57515f610c90565b3d9150610d92565b6314ab675360e11b8152600490fd5b6040516370a0823160e01b81523060048201526020816024815f516020611df45f395f51905f525afa8015610960578290610f4d575b6001915010610f3e578080604051602081019063a9059cbb60e01b825273f3f84ce038442ae4c4dcb6a8ca8bacd7f28c9bde60248201526001604482015260448152610e486064826104e9565b5190825f516020611df45f395f51905f525af1610e63610b3e565b81610f06575b5015610ec4576040516370a0823160e01b815273f3f84ce038442ae4c4dcb6a8ca8bacd7f28c9bde60048201526020816024815f516020611df45f395f51905f525afa8015610960578290610ed3575b600191501015610bfb575b630c72ffad60e21b8152600490fd5b506020813d602011610efe575b81610eed602093836104e9565b810103126100ca5760019051610eb9565b3d9150610ee0565b8051801592508215610f1b575b50505f610e69565b819250906020918101031261080257602001518015158103610802575f80610f13565b6366e0b17560e01b8152600490fd5b506020813d602011610f78575b81610f67602093836104e9565b810103126100ca5760019051610dfb565b3d9150610f5a565b5f6101a052604051610f91816104b8565b5f81525f60208201525f60408201525f60608201525f60808201525f60a08201525f60c08201525f60e08201526101a0526040516040810181811067ffffffffffffffff8211176104d557604052735c69bee701ef814a2b6a3edd4b1652cb9cc5aa6f815273c0aee478e3658e2610c5f7a4a2e1777ce9e4f2ac602082015260405161101c816104b8565b600181526002602082015260056040820152600a606082015260326080820152606460a08201526101f460c08201526103e860e08201525f5b600281106111db5750506101a0518051600280546001600160a01b039283166001600160a01b03199182168117909255602084015160038054918516918316919091179055604084015160048054919094169116179091556060820151600555608082015160065560a082015160075560c082015160085560e090910151600955905080156111cc57600554604051630dfe168160e01b8152602081600481865afa8015610af05773a0b86991c6218b36c1d19d4a2e9eb0ce3606eb48915f916111ad575b506001600160a01b0316036111a657805b8161119f575b823b156100ca5760c45f9283604051958694859363022c0d9f60e01b8552600485015260248401523060448401526080606484015260016084840152600160f81b60a48401525af18015610af05761118a575b50610bf6565b6111979192505f906104e9565b5f905f611184565b505f611131565b5f9061112b565b6111c6915060203d6020116108b7576108a981836104e9565b5f61111a565b631478bcc160e31b5f5260045ffd5b604460206001600160a01b036111f18487611aa2565b51166040519283809263e6a4390560e01b825273a0b86991c6218b36c1d19d4a2e9eb0ce3606eb48600483015273c02aaa39b223fe8d0a0e5c4f27ead9083c756cc260248301525afa8015610af0575f610160526119b8575b50610160516001600160a01b0316156119b0575f60c052604051630dfe168160e01b815261016051602090829060049082906001600160a01b03165afa908115610af0575f91611992575b506040519063d21220a760e01b825260208260048160018060a01b0361016051165afa918215610af0575f92611972575b506001600160a01b031673a0b86991c6218b36c1d19d4a2e9eb0ce3606eb4881149182918261194b575b82156118fe575b505015610b2857604051630240bc6b60e21b815261016051606090829060049082906001600160a01b03165afa918215610af0575f915f936118a4575b5015611890576001600160701b0391821660c052165b80158015611886575b61187d575f5b6002811061136d5750506001905b01611055565b604460206001600160a01b036113838489611aa2565b51166040519283809263e6a4390560e01b82525f516020611df45f395f51905f52600483015273c02aaa39b223fe8d0a0e5c4f27ead9083c756cc260248301525afa8015610af0575f6101405261185c575b50610140516001600160a01b031615611854575f60e052604051630dfe168160e01b815261014051602090829060049082906001600160a01b03165afa908115610af0575f91611836575b506040519063d21220a760e01b825260208260048160018060a01b0361014051165afa918215610af0575f92611816575b506001600160a01b03165f516020611df45f395f51905f528114918291826117ef575b82156117a9575b505015610b285760405190630240bc6b60e21b825260608260048160018060a01b0361014051165afa908115610af0575f905f92611747575b6001600160701b0393501561173b57821660e052165b60e051158015611733575b61172a575f610180525b600261018051106114f557506001905b01611359565b956044602060018060a09c969c9b959b9998991b036115176101805189611aa2565b51166040519283809263e6a4390560e01b825273a0b86991c6218b36c1d19d4a2e9eb0ce3606eb4860048301525f516020611df45f395f51905f5260248301525afa8015610af0575f61012052611709575b50610120516001600160a01b0316156116f05761158861012051611adb565b60a05261010052610100511580156116ff575b6116f0575f6080525b600860805110156116d55760805160051b860151898110156116cf576115cd8a60c05183611d5f565b5f19811480156116c5575b6116be576115e98960e05183611d5f565b6115f960a0516101005185611cea565b905f19811480156116aa575b6116a157611613818361050b565b92835f19810111610518576101a05160e001515f19850111611644575b50505050505b6001608051016080526115a4565b60405194611651866104b8565b610160516001600160a01b0390811687526101405181166020880152610120511660408701526060860152608085015260a084015260c08301525f190160e08201526101a0525f80808080611630565b50505050611636565b506001810180821161051857821115611605565b5050611636565b50888110156115d8565b50611636565b959791979690969493945b60016101805101610180526114df565b959791979690969493946116e0565b5060a0511561159b565b6117209060203d81116108b7576108a981836104e9565b610120525f611569565b506001906114ef565b5080156114d5565b90821660e052166114ca565b9150506060823d82116117a1575b81611762606093836104e9565b810103126100ca5761177382611ac7565b91604061178260208301611ac7565b91015163ffffffff8116036100ca576001600160701b039290916114b4565b3d9150611755565b73c02aaa39b223fe8d0a0e5c4f27ead9083c756cc2149150816117cf575b505f8061147b565b6001600160a01b03165f516020611df45f395f51905f521490505f6117c7565b6001600160a01b03821673c02aaa39b223fe8d0a0e5c4f27ead9083c756cc2149250611474565b61182f91925060203d81116108b7576108a981836104e9565b905f611451565b61184e915060203d81116108b7576108a981836104e9565b5f611420565b6001906114ef565b6118739060203d81116108b7576108a981836104e9565b610140525f6113d5565b50600190611367565b5060c05115611353565b6001600160701b0390811660c0521661134a565b915091506060813d82116118f6575b816118c0606093836104e9565b810103126100ca576118d181611ac7565b60406118df60208401611ac7565b92015163ffffffff8116036100ca5790915f611334565b3d91506118b3565b73c02aaa39b223fe8d0a0e5c4f27ead9083c756cc214915081611924575b505f806112f7565b6001600160a01b031673a0b86991c6218b36c1d19d4a2e9eb0ce3606eb481490505f61191c565b6001600160a01b03821673c02aaa39b223fe8d0a0e5c4f27ead9083c756cc21492506112f0565b61198b91925060203d81116108b7576108a981836104e9565b905f6112c6565b6119aa915060203d81116108b7576108a981836104e9565b5f611295565b600190611367565b6119cf9060203d81116108b7576108a981836104e9565b610160525f61124a565b506040516370a0823160e01b81523060048201526020816024815f516020611df45f395f51905f525afa8015610af0575f90611a1a575b6001915010610bf1565b506020813d602011611a45575b81611a34602093836104e9565b810103126100ca5760019051611a10565b3d9150611a27565b90506020813d602011611a77575b81611a68602093836104e9565b810103126100ca57515f610be8565b3d9150611a5b565b5050565b908160209103126100ca57516001600160a01b03811681036100ca5790565b906002811015611ab35760051b0190565b634e487b7160e01b5f52603260045260245ffd5b51906001600160701b03821682036100ca57565b604051630dfe168160e01b815291906001600160a01b0316602083600481845afa928315610af0575f93611c98575b5060405163d21220a760e01b815292602084600481855afa938415610af0575f94611c77575b506001600160a01b031673a0b86991c6218b36c1d19d4a2e9eb0ce3606eb48811493849182611c57575b8215611c11575b505015610b2857606060049160405192838092630240bc6b60e21b82525afa928315610af0575f915f94611bb6575b5015611ba6576001600160701b03809116921690565b6001600160701b03928316921690565b915092506060813d606011611c09575b81611bd3606093836104e9565b810103126100ca57611be481611ac7565b6040611bf260208401611ac7565b92015163ffffffff8116036100ca5790925f611b90565b3d9150611bc6565b5f516020611df45f395f51905f5214915081611c30575b505f80611b61565b6001600160a01b031673a0b86991c6218b36c1d19d4a2e9eb0ce3606eb481490505f611c28565b6001600160a01b0382165f516020611df45f395f51905f52149250611b5a565b611c9191945060203d6020116108b7576108a981836104e9565b925f611b30565b611cb291935060203d6020116108b7576108a981836104e9565b915f611b0a565b8181029291811591840414171561051857565b8115611cd6570490565b634e487b7160e01b5f52601260045260245ffd5b918215808015611d57575b8015611d4f575b611d47576103e584029384046103e514171561051857611d1c9083611cb9565b916103e88202918083046103e8149015171561051857810180911161051857611d4491611ccc565b90565b505050505f90565b508115611cfc565b508215611cf5565b919082158015611deb575b8015611de3575b8015611dd9575b611dd15782611d8691611cb9565b916103e88302928084046103e8149015171561051857611da59161050b565b6103e58102908082046103e5149015171561051857611dc391611ccc565b600181018091116105185790565b5050505f1990565b5081831015611d78565b508115611d71565b508015611d6a56fe0000000000000000000000006b175474e89094c44da98b954eedeac495271d0fa2646970667358221220032b6254fa24542cc8690dfbd5bf7c61ae80d0da0ba8216ebb38b53848beffd964736f6c634300081e0033","linkReferences":{}},"methodIdentifiers":{"DAI()":"e0bab4c4","SUSHI_FACTORY()":"b753bb47","TARGET()":"cc1f2afa","UNI_FACTORY()":"89fc0056","USDC()":"89a30271","WETH()":"ad5c4648","executeOnOpportunity()":"3c2448ed","exploitPath()":"cb707c62","hypothesisValidated()":"463defd1","profitAmount()":"5ff972cc","profitToken()":"49343624","uniswapV2Call(address,uint256,uint256,bytes)":"10d1e85c"},"id":0}