{"abi":[{"type":"constructor","inputs":[{"name":"attacker_","type":"address","internalType":"address"}],"stateMutability":"nonpayable"},{"type":"function","name":"attacker","inputs":[],"outputs":[{"name":"","type":"address","internalType":"address"}],"stateMutability":"view"},{"type":"function","name":"controller","inputs":[],"outputs":[{"name":"","type":"address","internalType":"address"}],"stateMutability":"view"},{"type":"function","name":"governance","inputs":[],"outputs":[{"name":"","type":"address","internalType":"address"}],"stateMutability":"view"},{"type":"function","name":"greyList","inputs":[{"name":"","type":"address","internalType":"address"}],"outputs":[{"name":"","type":"bool","internalType":"bool"}],"stateMutability":"pure"},{"type":"function","name":"isController","inputs":[{"name":"who","type":"address","internalType":"address"}],"outputs":[{"name":"","type":"bool","internalType":"bool"}],"stateMutability":"view"},{"type":"function","name":"isGovernance","inputs":[{"name":"who","type":"address","internalType":"address"}],"outputs":[{"name":"","type":"bool","internalType":"bool"}],"stateMutability":"view"},{"type":"function","name":"nextImplementationDelay","inputs":[],"outputs":[{"name":"","type":"uint256","internalType":"uint256"}],"stateMutability":"pure"}],"bytecode":{"object":"0x60a034607357601f6102a638819003918201601f19168301916001600160401b03831184841017607757808492602094604052833981010312607357516001600160a01b038116810360735760805260405161021a908161008c823960805181818160b20152818161010f01526101b50152f35b5f80fd5b634e487b7160e01b5f52604160045260245ffdfe6080806040526004361015610012575f80fd5b5f3560e01c90816330e412ad146101755750806348eb76ee146101705780635aa6e67514610170578063a836569314610156578063b429afeb146100e4578063dee1f0e4146100875763f77c479114610069575f80fd5b34610083575f366003190112610083576020604051308152f35b5f80fd5b34610083576020366003190112610083576004356001600160a01b03811690819003610083576040517f00000000000000000000000000000000000000000000000000000000000000006001600160a01b03169091148152602090f35b34610083576020366003190112610083576004356001600160a01b03811690819003610083576020907f00000000000000000000000000000000000000000000000000000000000000006001600160a01b0316811490811561014c575b506040519015158152f35b9050301482610141565b34610083575f3660031901126100835760206040515f8152f35b6101a0565b34610083576020366003190112610083576004356001600160a01b0381160361008357805f60209252f35b34610083575f366003190112610083576040517f00000000000000000000000000000000000000000000000000000000000000006001600160a01b03168152602090f3fea264697066735822122072475d36e19327f703efea3efe5b8e340b2c72ef6ba5c93d185ab3959ed3836964736f6c634300081e0033","linkReferences":{}},"methodIdentifiers":{"attacker()":"48eb76ee","controller()":"f77c4791","governance()":"5aa6e675","greyList(address)":"30e412ad","isController(address)":"b429afeb","isGovernance(address)":"dee1f0e4","nextImplementationDelay()":"a8365693"},"id":0}