{"abi":[{"type":"constructor","inputs":[],"stateMutability":"nonpayable"},{"type":"function","name":"executeOnOpportunity","inputs":[],"outputs":[],"stateMutability":"nonpayable"},{"type":"function","name":"maliciousStrategyInstalled","inputs":[],"outputs":[{"name":"","type":"bool","internalType":"bool"}],"stateMutability":"view"},{"type":"function","name":"monetizationAttempted","inputs":[],"outputs":[{"name":"","type":"bool","internalType":"bool"}],"stateMutability":"view"},{"type":"function","name":"profitAmount","inputs":[],"outputs":[{"name":"","type":"uint256","internalType":"uint256"}],"stateMutability":"view"},{"type":"function","name":"profitToken","inputs":[],"outputs":[{"name":"","type":"address","internalType":"address"}],"stateMutability":"view"},{"type":"function","name":"seizedVault","inputs":[],"outputs":[{"name":"","type":"address","internalType":"address"}],"stateMutability":"view"},{"type":"function","name":"takeoverSucceeded","inputs":[],"outputs":[{"name":"","type":"bool","internalType":"bool"}],"stateMutability":"view"}],"bytecode":{"object":"0x6080806040523460155761195e908161001a8239f35b5f80fdfe60806040526004361015610011575f80fd5b5f3560e01c80633c2448ed1461014557806340ce12fc1461011d57806349343624146100f65780635ff972cc146100d95780639d0a71d9146100b4578063b9a819541461008f5763e7e42cf214610066575f80fd5b3461008b575f36600319011261008b57602060ff60025460a01c166040519015158152f35b5f80fd5b3461008b575f36600319011261008b57602060ff60025460b01c166040519015158152f35b3461008b575f36600319011261008b57602060ff60025460a81c166040519015158152f35b3461008b575f36600319011261008b576020600154604051908152f35b3461008b575f36600319011261008b575f546040516001600160a01b039091168152602090f35b3461008b575f36600319011261008b576002546040516001600160a01b039091168152602090f35b3461008b575f36600319011261008b5761015d6101b4565b005b90601f8019910116810190811067ffffffffffffffff82111761018157604052565b634e487b7160e01b5f52604160045260245ffd5b9081602091031261008b57516001600160a01b038116810361008b5790565b6001545f901580159061094a575b61094757604051635c60da1b60e01b81525f9060208160048173f0358e8c3cd5fa238a29301d0bea3d63a17bedbe5afa5f9181610926575b5061091e575b506001600160a01b031690811561091a5760405160e0810181811067ffffffffffffffff82111761018157604052736b175474e89094c44da98b954eedeac495271d0f815273a0b86991c6218b36c1d19d4a2e9eb0ce3606eb48602082015273dac17f958d2ee523a2206206994597c13d831ec7604082015273c02aaa39b223fe8d0a0e5c4f27ead9083c756cc26060820152732260fac5e5542a773aa44fbcfedf7c193bc2c5996080820152736c3f90f043a72fa612cbac8115ee7e52bde6e49060a082015273df5e0e81dff6faf3a7e52ba697820c5e32d806a860c08201525f5f915f5b6007811061081e575050506001600160a01b03811615610803575b6040516102a68082019082821067ffffffffffffffff831117610181576020918391610b2483393081520301905ff09283156106f9576040519061017380830183811067ffffffffffffffff821117610181576020928492610dca843981520301905ff09283156106f9576001600160a01b03169273f0358e8c3cd5fa238a29301d0bea3d63a17bedbe90610396838661097e565b156107e2575b5060018060a01b031692600254846bffffffffffffffffffffffff60a01b821617600255604051635aa6e67560e01b8152602081600481895afa9081156106f9575f916107c3575b506001600160a01b03163014918261076a575b508482610709575b60ff928360a01b90151560a01b16916affffffffffffffffffffff60a81b1617178060025560a01c1615610704576040516109ec938482019482861067ffffffffffffffff87111761018157610f3d833984526001600160a01b0382166020850181905230604086015293819003606001905ff09081156106f9576002546001600160a01b039283169216803b1561008b575f80916024604051809481936319d0806560e11b83528860048401525af190816106e4575b50610651576002805460ff60a81b191690555b6002549160ff8360a81c161561064a576104e33083610a78565b926104f76001600160a01b03821684610a78565b1561063957506002805460ff60b01b198116600160b01b179091556001600160a01b0316803b156106185784808092600460405180958193631f5f0a8760e21b83525af19182610624575b505061054f575050505050565b6105598183610a78565b801561061c57813b156106185784916064839260405194859384926362c0676760e01b84523060048501528b602485015260448401525af1801561060d579084916105f4575b50506105ac903090610a78565b928184116105bb575b50505050565b82546001600160a01b03191617825582039182116105e057506001555f8080806105b5565b634e487b7160e01b81526011600452602490fd5b816105fe9161015f565b61060957825f61059f565b8280fd5b6040513d86823e3d90fd5b8480fd5b505050505050565b8161062e9161015f565b61061857845f610542565b60ff60b01b19166002555050505050565b5050505050565b600254604051635463173b60e11b81526020816004816001600160a01b0386165afa9081156106d95785916106aa575b5060ff60a81b199091166001600160a01b03909116831460a81b60ff60a81b16176002556104c9565b6106cc915060203d6020116106d2575b6106c4818361015f565b810190610195565b5f610681565b503d6106ba565b6040513d87823e3d90fd5b6106f19194505f9061015f565b5f925f6104b6565b6040513d5f823e3d90fd5b505050565b50604051636f307dc360e01b81529150602082600481885afa9182156106f95760ff9286915f9161074b575b506001600160a01b0385811691161492506103ff565b610764915060203d6020116106d2576106c4818361015f565b5f610735565b60405163f77c479160e01b815291925090602081600481895afa9081156106f9575f916107a4575b506001600160a01b031614905f6103f7565b6107bd915060203d6020116106d2576106c4818361015f565b5f610792565b6107dc915060203d6020116106d2576106c4818361015f565b5f6103e4565b6001600160a01b031690506107f8828583610a14565b156105b5575f61039c565b5073a0b86991c6218b36c1d19d4a2e9eb0ce3606eb48610301565b6001600160a01b036108308284610959565b51165f80809260405160208101906370a0823160e01b825273f0358e8c3cd5fa238a29301d0bea3d63a17bedbe60248201526024815261087160448261015f565b51915afa3d15610912573d9067ffffffffffffffff821161018157604051916108a4601f8201601f19166020018461015f565b82523d5f602084013e5b80610906575b6108ed575b508381116108cb575b506001016102e6565b909350915060016001600160a01b036108e48584610959565b511693906108c2565b905060208180518101031261008b57602001515f6108b9565b506020815110156108b4565b6060906108ae565b5050565b90505f610200565b61094091925060203d6020116106d2576106c4818361015f565b905f6101fa565b50565b5060ff60025460a01c166101c2565b90600781101561096a5760051b0190565b634e487b7160e01b5f52603260045260245ffd5b5f9173f0358e8c3cd5fa238a29301d0bea3d63a17bedbe3b1561008b576040516323f05c2360e21b81526001600160a01b0392831660048201529116602482015260016044820181905260648201525f816084818373f0358e8c3cd5fa238a29301d0bea3d63a17bedbe5af190816109ff575b506109f95790565b50600190565b610a0c9192505f9061015f565b5f905f6109f1565b5f926001600160a01b039091169190823b1561008b576040516323f05c2360e21b81526001600160a01b039283166004820152911660248201526001604482018190526064820152905f908290608490829084905af190816109ff57506109f95790565b5f8091939293819460405160208101916370a0823160e01b835260018060a01b0316602482015260248152610aae60448261015f565b51915afa3d15610b1b573d9067ffffffffffffffff82116101815760405191610ae1601f8201601f19166020018461015f565b82523d5f602084013e5b80610b0f575b610af85750565b90915060208180518101031261008b576020015190565b50602081511015610af1565b606090610aeb56fe60a034607357601f6102a638819003918201601f19168301916001600160401b03831184841017607757808492602094604052833981010312607357516001600160a01b038116810360735760805260405161021a908161008c823960805181818160b20152818161010f01526101b50152f35b5f80fd5b634e487b7160e01b5f52604160045260245ffdfe6080806040526004361015610012575f80fd5b5f3560e01c90816330e412ad146101755750806348eb76ee146101705780635aa6e67514610170578063a836569314610156578063b429afeb146100e4578063dee1f0e4146100875763f77c479114610069575f80fd5b34610083575f366003190112610083576020604051308152f35b5f80fd5b34610083576020366003190112610083576004356001600160a01b03811690819003610083576040517f00000000000000000000000000000000000000000000000000000000000000006001600160a01b03169091148152602090f35b34610083576020366003190112610083576004356001600160a01b03811690819003610083576020907f00000000000000000000000000000000000000000000000000000000000000006001600160a01b0316811490811561014c575b506040519015158152f35b9050301482610141565b34610083575f3660031901126100835760206040515f8152f35b6101a0565b34610083576020366003190112610083576004356001600160a01b0381160361008357805f60209252f35b34610083575f366003190112610083576040517f00000000000000000000000000000000000000000000000000000000000000006001600160a01b03168152602090f3fea264697066735822122072475d36e19327f703efea3efe5b8e340b2c72ef6ba5c93d185ab3959ed3836964736f6c634300081e0033608034607b57601f61017338819003918201601f19168301916001600160401b03831184841017607f57808492602094604052833981010312607b57516001600160a01b0381168103607b577f360894a13ba1a3210667c828492db98dca3e2076cc3735a920a3ca505d382bbc5560405160df90816100948239f35b5f80fd5b634e487b7160e01b5f52604160045260245ffdfe608060405260043610156015575b36606c57606c565b5f3560e01c635c60da1b03600d57346068575f3660031901126068577f360894a13ba1a3210667c828492db98dca3e2076cc3735a920a3ca505d382bbc546040516001600160a01b039091168152602090f35b5f80fd5b5f807f360894a13ba1a3210667c828492db98dca3e2076cc3735a920a3ca505d382bbc54368280378136915af43d5f803e1560a5573d5ff35b3d5ffdfea26469706673582212209e20030487641366d6ddf0dfc0cc0e282818d6c924b5c122f8d5b324790f578064736f6c634300081e003360c0346100f157601f6109ec38819003918201601f19168301916001600160401b038311848410176100f5578084926060946040528339810103126100f15761004781610109565b90610060604061005960208401610109565b9201610109565b60a0929092526080525f80546001600160a01b039092166001600160a01b03199283168117909155600180549092161790556040516108ce908161011e8239608051818181610245015281816102b8015281816102ff0152818161041d0152818161046c0152610594015260a05181818160f7015281816102080152818161036d015281816103dc015261055f0152f35b5f80fd5b634e487b7160e01b5f52604160045260245ffd5b51906001600160a01b03821682036100f15756fe6080806040526004361015610012575f80fd5b5f3560e01c9081631fe4a686146103a4575080632e1a7d4d146101d357806345d01e4a146103555780634a8cfa69146101b95780634fa5d8541461035a57806359356c5c146103555780635aa6e6751461032e57806362c06767146102885780636f307dc3146102ea578063894b16e71461028d578063bdb1b33e14610288578063bfd131f1146101f3578063c2a2a07b146101d8578063ce8c42e8146101d3578063d0e30db0146101b9578063e067730014610152578063f77c47911461012a5763fbfa77cf146100e2575f80fd5b34610126575f366003190112610126576040517f00000000000000000000000000000000000000000000000000000000000000006001600160a01b03168152602090f35b5f80fd5b34610126575f366003190112610126576001546040516001600160a01b039091168152602090f35b34610126575f36600319011261012657604051602061017181836105f8565b5f82525f368137604051918183928301818452825180915281604085019301915f5b8281106101a257505050500390f35b835185528695509381019392810192600101610193565b34610126575f366003190112610126576101d161055d565b005b6103c6565b34610126575f36600319011261012657602060405160018152f35b34610126575f366003190112610126576101d17f0000000000000000000000000000000000000000000000000000000000000000336001600160a01b038216148015610275575b61024390610525565b7f00000000000000000000000000000000000000000000000000000000000000009061026f308361074c565b91610685565b505f546001600160a01b0316331461023a565b610498565b34610126576020366003190112610126576004356001600160a01b03811690819003610126576040517f00000000000000000000000000000000000000000000000000000000000000006001600160a01b03169091148152602090f35b34610126575f366003190112610126576040517f00000000000000000000000000000000000000000000000000000000000000006001600160a01b03168152602090f35b34610126575f366003190112610126575f546040516001600160a01b039091168152602090f35b610454565b34610126575f36600319011261012657337f00000000000000000000000000000000000000000000000000000000000000006001600160a01b03161461039c57005b6101d161055d565b34610126575f366003190112610126575f546001600160a01b03168152602090f35b34610126576020366003190112610126576101d17f0000000000000000000000000000000000000000000000000000000000000000336001600160a01b038216148015610441575b61041790610525565b600435907f0000000000000000000000000000000000000000000000000000000000000000610685565b505f546001600160a01b0316331461040e565b34610126575f366003190112610126576020610490307f000000000000000000000000000000000000000000000000000000000000000061074c565b604051908152f35b34610126576060366003190112610126576004356001600160a01b038116810361012657602435906001600160a01b0382168203610126575f5460443591906001600160a01b031633036104ef576101d192610685565b60405162461bcd60e51b815260206004820152600e60248201526d6e6f7420676f7665726e616e636560901b6044820152606490fd5b1561052c57565b60405162461bcd60e51b81526020600482015260096024820152683337b93134b23232b760b91b6044820152606490fd5b7f00000000000000000000000000000000000000000000000000000000000000006001600160a01b03811633036105c7576105c5907f00000000000000000000000000000000000000000000000000000000000000006105bd828261074c565b9130916107bf565b565b60405162461bcd60e51b81526020600482015260096024820152681b9bdd081d985d5b1d60ba1b6044820152606490fd5b90601f8019910116810190811067ffffffffffffffff82111761061a57604052565b634e487b7160e01b5f52604160045260245ffd5b3d15610668573d9067ffffffffffffffff821161061a576040519161065d601f8201601f1916602001846105f8565b82523d5f602084013e565b606090565b90816020910312610126575180151581036101265790565b9190918115610747575f9283809360405190602082019363a9059cbb60e01b855260018060a01b031660248301526044820152604481526106c76064826105f8565b51925af16106d361062e565b81610718575b50156106e157565b60405162461bcd60e51b815260206004820152600f60248201526e1d1c985b9cd9995c8819985a5b1959608a1b6044820152606490fd5b805180159250821561072d575b50505f6106d9565b610740925060208091830101910161066d565b5f80610725565b505050565b5f8091939293819460405160208101916370a0823160e01b835260018060a01b03166024820152602481526107826044826105f8565b51915afa61078e61062e565b90806107b3575b61079c5750565b909150602081805181010312610126576020015190565b50602081511015610795565b908315610892576040516323b872dd60e01b602082019081526001600160a01b0392831660248301529190931660448401526064808401949094529282525f928392839061080e6084826105f8565b51925af161081a61062e565b81610863575b501561082857565b60405162461bcd60e51b81526020600482015260136024820152721d1c985b9cd9995c919c9bdb4819985a5b1959606a1b6044820152606490fd5b8051801592508215610878575b50505f610820565b61088b925060208091830101910161066d565b5f80610870565b5050505056fea264697066735822122056f8ae237cfbbe6f9259d7b03bbde4f0ec718e833c17eb7c56c55c8b5581b16a64736f6c634300081e0033a26469706673582212207064e3ada835d348f429aa5ae8a5d9614daee0ad70c5036b786059c34c3186b364736f6c634300081e0033","linkReferences":{}},"methodIdentifiers":{"executeOnOpportunity()":"3c2448ed","maliciousStrategyInstalled()":"9d0a71d9","monetizationAttempted()":"b9a81954","profitAmount()":"5ff972cc","profitToken()":"49343624","seizedVault()":"40ce12fc","takeoverSucceeded()":"e7e42cf2"},"id":0}