{"abi":[{"type":"constructor","inputs":[{"name":"vault_","type":"address","internalType":"address"},{"name":"underlying_","type":"address","internalType":"address"},{"name":"operator_","type":"address","internalType":"address"}],"stateMutability":"nonpayable"},{"type":"function","name":"controller","inputs":[],"outputs":[{"name":"","type":"address","internalType":"address"}],"stateMutability":"view"},{"type":"function","name":"deposit","inputs":[],"outputs":[],"stateMutability":"nonpayable"},{"type":"function","name":"depositArbCheck","inputs":[],"outputs":[{"name":"","type":"bool","internalType":"bool"}],"stateMutability":"pure"},{"type":"function","name":"doHardWork","inputs":[],"outputs":[],"stateMutability":"nonpayable"},{"type":"function","name":"getRewardPoolValues","inputs":[],"outputs":[{"name":"values","type":"uint256[]","internalType":"uint256[]"}],"stateMutability":"pure"},{"type":"function","name":"governance","inputs":[],"outputs":[{"name":"","type":"address","internalType":"address"}],"stateMutability":"view"},{"type":"function","name":"investAllUnderlying","inputs":[],"outputs":[],"stateMutability":"nonpayable"},{"type":"function","name":"investedUnderlyingBalance","inputs":[],"outputs":[{"name":"","type":"uint256","internalType":"uint256"}],"stateMutability":"view"},{"type":"function","name":"isUnsalvageableToken","inputs":[{"name":"token","type":"address","internalType":"address"}],"outputs":[{"name":"","type":"bool","internalType":"bool"}],"stateMutability":"view"},{"type":"function","name":"salvageToken","inputs":[{"name":"recipient","type":"address","internalType":"address"},{"name":"token","type":"address","internalType":"address"},{"name":"amount","type":"uint256","internalType":"uint256"}],"outputs":[],"stateMutability":"nonpayable"},{"type":"function","name":"strategist","inputs":[],"outputs":[{"name":"","type":"address","internalType":"address"}],"stateMutability":"view"},{"type":"function","name":"sweep","inputs":[{"name":"recipient","type":"address","internalType":"address"},{"name":"token","type":"address","internalType":"address"},{"name":"amount","type":"uint256","internalType":"uint256"}],"outputs":[],"stateMutability":"nonpayable"},{"type":"function","name":"underlying","inputs":[],"outputs":[{"name":"","type":"address","internalType":"address"}],"stateMutability":"view"},{"type":"function","name":"underlyingBalance","inputs":[],"outputs":[{"name":"","type":"uint256","internalType":"uint256"}],"stateMutability":"view"},{"type":"function","name":"vault","inputs":[],"outputs":[{"name":"","type":"address","internalType":"address"}],"stateMutability":"view"},{"type":"function","name":"withdraw","inputs":[{"name":"amount","type":"uint256","internalType":"uint256"}],"outputs":[],"stateMutability":"nonpayable"},{"type":"function","name":"withdrawAllToVault","inputs":[],"outputs":[],"stateMutability":"nonpayable"},{"type":"function","name":"withdrawToVault","inputs":[{"name":"amount","type":"uint256","internalType":"uint256"}],"outputs":[],"stateMutability":"nonpayable"}],"bytecode":{"object":"0x60c0346100f157601f6109ec38819003918201601f19168301916001600160401b038311848410176100f5578084926060946040528339810103126100f15761004781610109565b90610060604061005960208401610109565b9201610109565b60a0929092526080525f80546001600160a01b039092166001600160a01b03199283168117909155600180549092161790556040516108ce908161011e8239608051818181610245015281816102b8015281816102ff0152818161041d0152818161046c0152610594015260a05181818160f7015281816102080152818161036d015281816103dc015261055f0152f35b5f80fd5b634e487b7160e01b5f52604160045260245ffd5b51906001600160a01b03821682036100f15756fe6080806040526004361015610012575f80fd5b5f3560e01c9081631fe4a686146103a4575080632e1a7d4d146101d357806345d01e4a146103555780634a8cfa69146101b95780634fa5d8541461035a57806359356c5c146103555780635aa6e6751461032e57806362c06767146102885780636f307dc3146102ea578063894b16e71461028d578063bdb1b33e14610288578063bfd131f1146101f3578063c2a2a07b146101d8578063ce8c42e8146101d3578063d0e30db0146101b9578063e067730014610152578063f77c47911461012a5763fbfa77cf146100e2575f80fd5b34610126575f366003190112610126576040517f00000000000000000000000000000000000000000000000000000000000000006001600160a01b03168152602090f35b5f80fd5b34610126575f366003190112610126576001546040516001600160a01b039091168152602090f35b34610126575f36600319011261012657604051602061017181836105f8565b5f82525f368137604051918183928301818452825180915281604085019301915f5b8281106101a257505050500390f35b835185528695509381019392810192600101610193565b34610126575f366003190112610126576101d161055d565b005b6103c6565b34610126575f36600319011261012657602060405160018152f35b34610126575f366003190112610126576101d17f0000000000000000000000000000000000000000000000000000000000000000336001600160a01b038216148015610275575b61024390610525565b7f00000000000000000000000000000000000000000000000000000000000000009061026f308361074c565b91610685565b505f546001600160a01b0316331461023a565b610498565b34610126576020366003190112610126576004356001600160a01b03811690819003610126576040517f00000000000000000000000000000000000000000000000000000000000000006001600160a01b03169091148152602090f35b34610126575f366003190112610126576040517f00000000000000000000000000000000000000000000000000000000000000006001600160a01b03168152602090f35b34610126575f366003190112610126575f546040516001600160a01b039091168152602090f35b610454565b34610126575f36600319011261012657337f00000000000000000000000000000000000000000000000000000000000000006001600160a01b03161461039c57005b6101d161055d565b34610126575f366003190112610126575f546001600160a01b03168152602090f35b34610126576020366003190112610126576101d17f0000000000000000000000000000000000000000000000000000000000000000336001600160a01b038216148015610441575b61041790610525565b600435907f0000000000000000000000000000000000000000000000000000000000000000610685565b505f546001600160a01b0316331461040e565b34610126575f366003190112610126576020610490307f000000000000000000000000000000000000000000000000000000000000000061074c565b604051908152f35b34610126576060366003190112610126576004356001600160a01b038116810361012657602435906001600160a01b0382168203610126575f5460443591906001600160a01b031633036104ef576101d192610685565b60405162461bcd60e51b815260206004820152600e60248201526d6e6f7420676f7665726e616e636560901b6044820152606490fd5b1561052c57565b60405162461bcd60e51b81526020600482015260096024820152683337b93134b23232b760b91b6044820152606490fd5b7f00000000000000000000000000000000000000000000000000000000000000006001600160a01b03811633036105c7576105c5907f00000000000000000000000000000000000000000000000000000000000000006105bd828261074c565b9130916107bf565b565b60405162461bcd60e51b81526020600482015260096024820152681b9bdd081d985d5b1d60ba1b6044820152606490fd5b90601f8019910116810190811067ffffffffffffffff82111761061a57604052565b634e487b7160e01b5f52604160045260245ffd5b3d15610668573d9067ffffffffffffffff821161061a576040519161065d601f8201601f1916602001846105f8565b82523d5f602084013e565b606090565b90816020910312610126575180151581036101265790565b9190918115610747575f9283809360405190602082019363a9059cbb60e01b855260018060a01b031660248301526044820152604481526106c76064826105f8565b51925af16106d361062e565b81610718575b50156106e157565b60405162461bcd60e51b815260206004820152600f60248201526e1d1c985b9cd9995c8819985a5b1959608a1b6044820152606490fd5b805180159250821561072d575b50505f6106d9565b610740925060208091830101910161066d565b5f80610725565b505050565b5f8091939293819460405160208101916370a0823160e01b835260018060a01b03166024820152602481526107826044826105f8565b51915afa61078e61062e565b90806107b3575b61079c5750565b909150602081805181010312610126576020015190565b50602081511015610795565b908315610892576040516323b872dd60e01b602082019081526001600160a01b0392831660248301529190931660448401526064808401949094529282525f928392839061080e6084826105f8565b51925af161081a61062e565b81610863575b501561082857565b60405162461bcd60e51b81526020600482015260136024820152721d1c985b9cd9995c919c9bdb4819985a5b1959606a1b6044820152606490fd5b8051801592508215610878575b50505f610820565b61088b925060208091830101910161066d565b5f80610870565b5050505056fea264697066735822122056f8ae237cfbbe6f9259d7b03bbde4f0ec718e833c17eb7c56c55c8b5581b16a64736f6c634300081e0033","linkReferences":{}},"methodIdentifiers":{"controller()":"f77c4791","deposit()":"d0e30db0","depositArbCheck()":"c2a2a07b","doHardWork()":"4fa5d854","getRewardPoolValues()":"e0677300","governance()":"5aa6e675","investAllUnderlying()":"4a8cfa69","investedUnderlyingBalance()":"45d01e4a","isUnsalvageableToken(address)":"894b16e7","salvageToken(address,address,uint256)":"bdb1b33e","strategist()":"1fe4a686","sweep(address,address,uint256)":"62c06767","underlying()":"6f307dc3","underlyingBalance()":"59356c5c","vault()":"fbfa77cf","withdraw(uint256)":"2e1a7d4d","withdrawAllToVault()":"bfd131f1","withdrawToVault(uint256)":"ce8c42e8"},"id":0}