{"abi":[{"type":"constructor","inputs":[],"stateMutability":"nonpayable"},{"type":"receive","stateMutability":"payable"},{"type":"function","name":"DAI","inputs":[],"outputs":[{"name":"","type":"address","internalType":"address"}],"stateMutability":"view"},{"type":"function","name":"FRAX","inputs":[],"outputs":[{"name":"","type":"address","internalType":"address"}],"stateMutability":"view"},{"type":"function","name":"QTN","inputs":[],"outputs":[{"name":"","type":"address","internalType":"address"}],"stateMutability":"view"},{"type":"function","name":"SHIBASWAP_FACTORY","inputs":[],"outputs":[{"name":"","type":"address","internalType":"address"}],"stateMutability":"view"},{"type":"function","name":"SUSHISWAP_FACTORY","inputs":[],"outputs":[{"name":"","type":"address","internalType":"address"}],"stateMutability":"view"},{"type":"function","name":"UNISWAP_V2_FACTORY","inputs":[],"outputs":[{"name":"","type":"address","internalType":"address"}],"stateMutability":"view"},{"type":"function","name":"UNIV2_USDC_WETH_PAIR","inputs":[],"outputs":[{"name":"","type":"address","internalType":"address"}],"stateMutability":"view"},{"type":"function","name":"USDC","inputs":[],"outputs":[{"name":"","type":"address","internalType":"address"}],"stateMutability":"view"},{"type":"function","name":"USDT","inputs":[],"outputs":[{"name":"","type":"address","internalType":"address"}],"stateMutability":"view"},{"type":"function","name":"WBTC","inputs":[],"outputs":[{"name":"","type":"address","internalType":"address"}],"stateMutability":"view"},{"type":"function","name":"WETH","inputs":[],"outputs":[{"name":"","type":"address","internalType":"address"}],"stateMutability":"view"},{"type":"function","name":"executeOnOpportunity","inputs":[],"outputs":[],"stateMutability":"nonpayable"},{"type":"function","name":"hiddenPairDelta","inputs":[],"outputs":[{"name":"","type":"uint256","internalType":"uint256"}],"stateMutability":"view"},{"type":"function","name":"profitAmount","inputs":[],"outputs":[{"name":"","type":"uint256","internalType":"uint256"}],"stateMutability":"view"},{"type":"function","name":"profitToken","inputs":[],"outputs":[{"name":"","type":"address","internalType":"address"}],"stateMutability":"pure"},{"type":"function","name":"uniswapV2Call","inputs":[{"name":"","type":"address","internalType":"address"},{"name":"amount0","type":"uint256","internalType":"uint256"},{"name":"amount1","type":"uint256","internalType":"uint256"},{"name":"","type":"bytes","internalType":"bytes"}],"outputs":[],"stateMutability":"nonpayable"}],"bytecode":{"object":"0x60808060405234601557613141908161001a8239f35b5f80fdfe608080604052600436101561001c575b50361561001a575f80fd5b005b5f3560e01c908163080b217a146106105750806310d1e85c146102fc5780631d8e1344146102d55780633c2448ed146102bd57806349343624146101c2578063495c0f9b1461028f5780634dede3de146102615780635ff972cc1461024557806389a302711461021757806399d8fae3146101e9578063ad5c4648146101c2578063b0e4556f14610194578063c54e44eb14610166578063e0bab4c414610138578063e74fb2041461010a5763fb620689146100d8575f61000f565b34610106575f36600319011261010657602060405173115934131916c8b277dd010ee02de363c09d037c8152f35b5f80fd5b34610106575f36600319011261010657602060405173b4e16d0168e52d35cacd2c6185b44281ec28c9dc8152f35b34610106575f366003190112610106576020604051736b175474e89094c44da98b954eedeac495271d0f8152f35b34610106575f36600319011261010657602060405173dac17f958d2ee523a2206206994597c13d831ec78152f35b34610106575f36600319011261010657602060405173853d955acef822db058eb8505911ed77f175b99e8152f35b34610106575f3660031901126101065760206040515f5160206130cc5f395f51905f528152f35b34610106575f366003190112610106576020604051735c69bee701ef814a2b6a3edd4b1652cb9cc5aa6f8152f35b34610106575f36600319011261010657602060405173a0b86991c6218b36c1d19d4a2e9eb0ce3606eb488152f35b34610106575f3660031901126101065760205f54604051908152f35b34610106575f366003190112610106576020604051732260fac5e5542a773aa44fbcfedf7c193bc2c5998152f35b34610106575f36600319011261010657602060405173c0aee478e3658e2610c5f7a4a2e1777ce9e4f2ac8152f35b34610106575f3660031901126101065761001a610786565b34610106575f3660031901126101065760206040515f5160206130ec5f395f51905f528152f35b34610106576080366003190112610106576004356001600160a01b038116036101065760243560643567ffffffffffffffff8111610106573660238201121561010657806004013567ffffffffffffffff811161010657369101602401116101065760ff60085416156105da5773b4e16d0168e52d35cacd2c6185b44281ec28c9dc33036105a45780156105985761039390610d69565b6040516324dead2f60e11b81526020816004815f5160206130ec5f395f51905f525afa80156104ef57610439915f91610569575b506040516103d481610680565b60015460ff80821615158352600882901c161515602083015260101c6001600160a01b0390811660408301526002548116606083015260035416608082015260045460a082015260055460c082015260065460e0820152600754610100820152610d91565b6040516370a0823160e01b81523060048201526020816024815f5160206130cc5f395f51905f525afa80156104ef5782915f91610534575b50106104fa576040519063a9059cbb60e01b825273b4e16d0168e52d35cacd2c6185b44281ec28c9dc600483015260248201526020816044815f5f5160206130cc5f395f51905f525af180156104ef576104c757005b61001a9060203d6020116104e8575b6104e081836106e9565b81019061072a565b503d6104d6565b6040513d5f823e3d90fd5b60405162461bcd60e51b8152602060048201526012602482015271696e73756666696369656e7420726570617960701b6044820152606490fd5b9150506020813d602011610561575b81610550602093836106e9565b810103126101065781905183610471565b3d9150610543565b61058b915060203d602011610591575b61058381836106e9565b81019061070b565b836103c7565b503d610579565b50610393604435610d69565b60405162461bcd60e51b815260206004820152600e60248201526d3130b210333630b9b4103830b4b960911b6044820152606490fd5b60405162461bcd60e51b815260206004820152600e60248201526d666c61736820696e61637469766560901b6044820152606490fd5b34610106575f366003190112610106576324dead2f60e11b81526020816004815f5160206130ec5f395f51905f525afa9081156104ef5760209161065b915f91610663575b50610bd1565b604051908152f35b61067a9150833d85116105915761058381836106e9565b83610655565b610120810190811067ffffffffffffffff82111761069d57604052565b634e487b7160e01b5f52604160045260245ffd5b60c0810190811067ffffffffffffffff82111761069d57604052565b6080810190811067ffffffffffffffff82111761069d57604052565b90601f8019910116810190811067ffffffffffffffff82111761069d57604052565b9081602091031261010657516001600160a01b03811681036101065790565b90816020910312610106575180151581036101065790565b9260209260a09592855283850152600180861b03166040840152608060608401528051918291826080860152018484015e5f828201840152601f01601f1916010190565b5f5160206130ec5f395f51905f523b1561010657604051637e96dd8760e11b81525f91908281600481835f5160206130ec5f395f51905f525af180156104ef57610b7d575b5047610b0c575b6040516370a0823160e01b81523060048201526020816024815f5160206130cc5f395f51905f525afa908115610b01578391610acf575b506040516324dead2f60e11b81526020816004815f5160206130ec5f395f51905f525afa908115610a50578491610ab0575b506001600160a01b03811615610aa45761085482611312565b6020810151610a8f575050610867611515565b60208101805115610a82578151151560ff80196001541691161760015551151560015461ff0062010000600160b01b03604085015160101b169260081b1690610100600160b01b031916171760015560018060a01b036060820151166bffffffffffffffffffffffff60a01b600254161760025560018060a01b036080820151166bffffffffffffffffffffffff60a01b600354161760035561010060a0820151918260045560c081015160055560e08101516006550151600755600160ff1960085416176008558380918192604051630dfe168160e01b815260208160048173b4e16d0168e52d35cacd2c6185b44281ec28c9dc5afa8015610a50575f5160206130cc5f395f51905f52918591610a63575b506001600160a01b031603610a5b57505b6040519260016020850152602084526109a56040856106e9565b73b4e16d0168e52d35cacd2c6185b44281ec28c9dc3b15610a4c576109e0604051948593849363022c0d9f60e01b8552309160048601610742565b03818373b4e16d0168e52d35cacd2c6185b44281ec28c9dc5af18015610a5057610a37575b50610a35919260ff1960085416600855806001558060025580600355806004558060055580600655600755611221565b565b610a428480926106e9565b610a4c575f610a05565b8280fd5b6040513d86823e3d90fd5b92509161098b565b610a7c915060203d6020116105915761058381836106e9565b5f61097a565b5050610a35919250611221565b610a3593945090610a9f91610d91565b611221565b50610a35919250611221565b610ac9915060203d6020116105915761058381836106e9565b5f61083b565b90506020813d602011610af9575b81610aea602093836106e9565b8101031261010657515f610809565b3d9150610add565b6040513d85823e3d90fd5b81475f5160206130cc5f395f51905f523b15610b6e578160049160405192838092630d0e30db60e41b82525f5160206130cc5f395f51905f525af18015610b7257610b59575b50506107d2565b81610b63916106e9565b610b6e57815f610b52565b5080fd5b6040513d84823e3d90fd5b610b8a9192505f906106e9565b5f905f6107cb565b8115610b9c570490565b634e487b7160e01b5f52601260045260245ffd5b91908203918211610bbd57565b634e487b7160e01b5f52601160045260245ffd5b6040516370a0823160e01b81526001600160a01b03909116600482018190526020826024815f5160206130ec5f395f51905f525afa9182156104ef575f92610d15575b5060405163c4996f5160e01b81526020816004815f5160206130ec5f395f51905f525afa9081156104ef575f91610ce3575b508015610cdc57604051916336fed97560e01b835260048301526020826024815f5160206130ec5f395f51905f525afa80156104ef575f90610ca8575b610c8d9250610b92565b9080821115610ca257610c9f91610bb0565b90565b50505f90565b506020823d602011610cd4575b81610cc2602093836106e9565b8101031261010657610c8d9151610c83565b3d9150610cb5565b5050505f90565b90506020813d602011610d0d575b81610cfe602093836106e9565b8101031261010657515f610c46565b3d9150610cf1565b9091506020813d602011610d41575b81610d31602093836106e9565b810103126101065751905f610c14565b3d9150610d24565b81810292918115918404141715610bbd57565b91908201809211610bbd57565b6103e88102908082046103e81490151715610bbd576103e5900460018101809111610bbd5790565b91909160c08101518061104d575b50610da983610bd1565b15611048576040516370a0823160e01b8152306004820152906020826024815f5160206130ec5f395f51905f525afa9182156104ef575f92611012575b50610df0906116c1565b6040516370a0823160e01b8152306004820152906020826024815f5160206130ec5f395f51905f525afa80156104ef575f90610fde575b610e319250610bb0565b80610e3b57509050565b5f6020815b83151580610fd4575b15610fcc57610e57906116b3565b92610e6186612431565b81158015610fc4575b610fa857610e76612081565b80841115610fbd575b606381029080820460631490151715610bbd5760649004918215610fb25790610ea891836121ee565b8015610fa85760405163a9059cbb60e01b81526001600160a01b0389166004820152602481018390529084826044815f5f5160206130ec5f395f51905f525af19182156104ef57610f0d92610f8d575b505f5160206130cc5f395f51905f5289611640565b6040519193916001600160a01b038a16610f2787836106e9565b5f8252873688840137803b1561010657610f5d955f80946040519889958694859363022c0d9f60e01b8552309160048601610742565b03925af19283156104ef57610f7793610f7d575b50610bb0565b92610e40565b5f610f87916106e9565b5f610f71565b610fa390863d88116104e8576104e081836106e9565b610ef8565b5050505050509050565b505050505050509050565b5082610e7f565b508015610e6a565b505050509050565b50600c8110610e49565b506020823d60201161100a575b81610ff8602093836106e9565b8101031261010657610e319151610e27565b3d9150610feb565b9091506020813d602011611040575b8161102e602093836106e9565b81010312610106575190610df0610de6565b3d9150611021565b509050565b9092605161307b5f5b84151580611217575b1561120c5761106d906116b3565b9361107784612431565b909182158015611204575b6111f75761108e612081565b6063810281810460631482151715610bbd576064900493600581048086116111ef575b5084156111e0576110c381858761215a565b9383851161117f575b50505060405185810181811067ffffffffffffffff82111761069d5781908787833903905ff080156104ef5760405163a9059cbb60e01b81526001600160a01b038816600482015260248101849052936020856044815f5f5160206130cc5f395f51905f525af19182156104ef5761115d9561115893611163575b506001600160a01b03169088612261565b610bb0565b93611056565b61117a9060203d81116104e8576104e081836106e9565b611147565b9194509192506111908282856121ee565b938085116111d8575b5083156111ca57906111ab918461215a565b908082116111bb575f80806110cc565b50505050509290505b5f610d9f565b5050505050509290506111c4565b93505f611199565b505050505050509290506111c4565b94505f6110b1565b50505050509290506111c4565b508115611082565b5050509290506111c4565b50600c811061105f565b6040516370a0823160e01b8152306004820152906020826024815f5160206130cc5f395f51905f525afa9182156104ef575f92611276575b508082111561126f5761126b91610bb0565b5f55565b50505f5f55565b9091506020813d6020116112a2575b81611292602093836106e9565b810103126101065751905f611259565b3d9150611285565b604051906112b782610680565b5f610100838281528260208201528260408201528260608201528260808201528260a08201528260c08201528260e08201520152565b9060128110156112fe5760051b0190565b634e487b7160e01b5f52603260045260245ffd5b9061131b6112aa565b91801561140b576040516324dead2f60e11b8152906020826004815f5160206130ec5f395f51905f525afa9182156104ef575f926113ea575b506001600160a01b038216156113e65761136d82611b0c565b905f5b6012811061137e5750505050565b61138881846112ed565b5151156113de576113a561139c82856112ed565b51855f85611dd9565b60208101511515806113cb575b6113c2575b506001905b01611370565b955060016113b7565b50610100810151610100880151106113b2565b6001906113bc565b5050565b61140491925060203d6020116105915761058381836106e9565b905f611354565b50565b906114176112aa565b91801561140b576040516324dead2f60e11b8152906020826004815f5160206130ec5f395f51905f525afa9182156104ef575f926114e3575b506001600160a01b038216156113e65761146982611b0c565b905f5b6012811061147a5750505050565b61148481846112ed565b5151156114db576114a261149882856112ed565b5185600185611dd9565b60208101511515806114c8575b6114bf575b506001905b0161146c565b955060016114b4565b50610100810151610100880151106114af565b6001906114b9565b6114fd91925060203d6020116105915761058381836106e9565b905f611450565b9060068110156112fe5760051b0190565b61151d6112aa565b906040516324dead2f60e11b81526020816004815f5160206130ec5f395f51905f525afa9081156104ef575f91611621575b506001600160a01b0381161561140b5761156890612431565b8091501561140b576040519061157d826106b1565b603281048252601981046020830152600c810460408301528060031c606083015260068104608083015260021c60a08201525f5b600681106115bd575050565b6115c78183611504565b5115611619576115e06115da8284611504565b5161140e565b6020810151151580611606575b6115fd575b506001905b016115b1565b935060016115f2565b50610100810151610100860151106115ed565b6001906115f7565b61163a915060203d6020116105915761058381836106e9565b5f61154f565b604051630dfe168160e01b81525f93928492602090839060049082906001600160a01b03165afa9182156104ef575f92611692575b506001600160a01b0391821691160361168c575091565b92915090565b6116ac91925060203d6020116105915761058381836106e9565b905f611675565b5f198114610bbd5760010190565b9060e08201908151918215611922576060840180519093906001600160a01b03165f5160206130cc5f395f51905f5214611992575082516040516370a0823160e01b81523060048201529190602090839060249082906001600160a01b03165afa9182156104ef575f9261195c575b5060808501518451915160249392611757923092916001600160a01b0390811691166122e4565b5083516040516370a0823160e01b81523060048201529260209184919082906001600160a01b03165afa80156104ef575f90611928575b6117989250610bb0565b928315611922576040015191516001600160a01b0390811693921691905f5b82151580611918575b15611911576117ce906116b3565b916117d98585612612565b909182158015611909575b6118db576117f0612081565b6063810281810460631482151715610bbd57606490049360058104808611611901575b5084156118f65761182581858761215a565b9383851161189f575b505060405163a9059cbb60e01b81526001600160a01b0388166004820152602481018490529390506020846044815f8c5af19081156104ef5761187d9461115892611883575b50309088612261565b916117b7565b61189a9060203d81116104e8576104e081836106e9565b611874565b9194509192506118b08282856121ee565b938085116118ee575b5083156118e457906118cb918461215a565b908082116118db575f808061182e565b50505092505050565b5050505092505050565b93505f6118b9565b505050505092505050565b94505f611813565b5081156117e4565b5092505050565b50600c81106117c0565b50915050565b506020823d602011611954575b81611942602093836106e9565b8101031261010657611798915161178e565b3d9150611935565b91506020823d60201161198a575b81611977602093836106e9565b8101031261010657905190611757611730565b3d915061196a565b6040909401516001600160a01b0316939192505f90505b81151580611af1575b15611aeb576119c0906116b3565b906119d85f5160206130cc5f395f51905f5285612612565b909182158015611ae3575b610fcc576119ef612081565b6063810281810460631482151715610bbd57606490049360058104808611611adb575b508415610fa857611a2481858761215a565b93838511611a8e575b505060405163a9059cbb60e01b81526001600160a01b0388166004820152602481018490529390506020846044815f5f5160206130cc5f395f51905f525af19081156104ef57611a8894611158926118835750309088612261565b906119a9565b919450919250611a9f8282856121ee565b93808511611ad3575b508315611aca5790611aba918461215a565b90808211610fcc575f8080611a2d565b50505050509050565b93505f611aa8565b94505f611a12565b5081156119e3565b50509050565b50600c81106119b2565b9060038110156112fe5760051b0190565b9061024060405190611b1e81836106e9565b5f5b818110611dac57505091611b326123bc565b60405191611b4160c0846106e9565b60c03684375f5160206130cc5f395f51905f52835273a0b86991c6218b36c1d19d4a2e9eb0ce3606eb48602084015273dac17f958d2ee523a2206206994597c13d831ec76040840152736b175474e89094c44da98b954eedeac495271d0f6060840152732260fac5e5542a773aa44fbcfedf7c193bc2c599608084015273853d955acef822db058eb8505911ed77f175b99e60a08401525f905f5b60068110611beb575050505050565b6001600160a01b03611bfd8287611504565b51165f905f5160206130cc5f395f51905f528114155b60038310611c2657505050600101611bdc565b9194909190604460206001600160a01b03611c41898b611afb565b51166040519283809263e6a4390560e01b82525f5160206130ec5f395f51905f5260048301528860248301525afa9081156104ef575f91611d8e575b506001600160a01b0381169081158015611d7c575b611d555784611ca091612612565b9015908115611d73575b50611d69575f83611d21575b90611d02929160405191611cc9836106cd565b600183526020830152604082018690526001600160a01b03166060820152611cf1828d6112ed565b52611cfc818c6112ed565b506116b3565b9460128614611d17576001905b019190611c13565b5050505050505050565b50611d2b84612b1c565b6001600160a01b03811615611d5557611d4485826127b4565b9015908115611d60575b5015611cb6575b505094600190611d0f565b9050155f611d4e565b5094600190611d0f565b9050155f611caa565b506001600160a01b0387168214611c92565b611da6915060203d81116105915761058381836106e9565b5f611c7d565b602090604051611dbb816106cd565b5f81525f838201525f60408201525f60608201528185015201611b20565b939293611de46112aa565b60405163bce87b3360e01b8152936020856004815f5160206130ec5f395f51905f525afa9485156104ef575f9561204d575b50841561204557611e2690612431565b81959115801561203d575b6120335760208801516040890180519091611e58916001600160a01b039081169116612612565b8115801561202b575b61201e575f915f9360018060a01b03905116965f5160206130cc5f395f51905f528814978815611fd2575b50506040516318160ddd60e01b8152946020866004815f5160206130ec5f395f51905f525afa9586156104ef575f96611f9e575b506040519a611ece8c610680565b8b5260208b015260408a01526060890152608088015260a087015260c086015260e0850152610100840152611f016112aa565b9260405195611f0f876106b1565b6109c48752610fa0602088015261157c60408801526119646060880152611d4c608088015261213460a08801525f5b60068110611f50575093955050505050565b611f67611f5d828a611504565b5184848888612bd7565b6020810151151580611f8b575b611f82575b50600101611f3e565b95506001611f79565b5061010081015161010088015110611f74565b9095506020813d602011611fca575b81611fba602093836106e9565b810103126101065751945f611ec0565b3d9150611fad565b60608e0151929550909350611fef916001600160a01b03166127b4565b9390928315858115612015575b506120075780611e8c565b9b5050505050505050505050565b9050155f611ffc565b5093985050505050505050565b508015611e61565b5090955050505050565b508015611e31565b509450505050565b9094506020813d602011612079575b81612069602093836106e9565b810103126101065751935f611e16565b3d915061205c565b6040516318160ddd60e01b81526020816004815f5160206130ec5f395f51905f525afa9081156104ef575f91612128575b5060405163bce87b3360e01b81526020816004815f5160206130ec5f395f51905f525afa9081156104ef575f916120f5575b506120f190606492610d49565b0490565b90506020813d602011612120575b81612110602093836106e9565b81010312610106575160646120e4565b3d9150612103565b90506020813d602011612152575b81612143602093836106e9565b8101031261010657515f6120b2565b3d9150612136565b9190821580156121e6575b80156121de575b80156121d4575b6121cc578261218191610d49565b916103e88302928084046103e81490151715610bbd576121a091610bb0565b6103e58102908082046103e51490151715610bbd576121be91610b92565b60018101809111610bbd5790565b5050505f1990565b5081831015612173565b50811561216c565b508015612165565b918215808015612259575b8015612251575b612249576103e584029384046103e5141715610bbd576122209083610d49565b906103e88102908082046103e81490151715610bbd57610c9f9261224391610d5c565b90610b92565b505050505f90565b508115612200565b5082156121f9565b9061227a905f5160206130ec5f395f51905f5283611640565b6040519391926001600160a01b0316906122956020866106e9565b5f808652366020870137813b15610106575f80946122c96040519788968795869463022c0d9f60e01b865260048601610742565b03925af180156104ef576122da5750565b5f610a35916106e9565b909392919384156123b457612307815f5160206130cc5f395f51905f528461296b565b90801580156123ac575b6123a2579061232091876121ee565b9485156123995760405163a9059cbb60e01b81526001600160a01b03841660048201526024810191909152906020826044815f5f5160206130cc5f395f51905f525af19081156104ef5761227a92879261237c575b5083611640565b6123949060203d6020116104e8576104e081836106e9565b612375565b505f9450505050565b505f955050505050565b508115612311565b505f93505050565b604051906123cb6060836106e9565b606036833773115934131916c8b277dd010ee02de363c09d037c604083735c69bee701ef814a2b6a3edd4b1652cb9cc5aa6f815273c0aee478e3658e2610c5f7a4a2e1777ce9e4f2ac60208201520152565b51906001600160701b038216820361010657565b5f91906001600160a01b031682811561260857604051630dfe168160e01b815293602085600481865afa9485156104ef575f956125e7575b5060405163d21220a760e01b815292602084600481845afa9081156104ef576004945f926125c3575b5060609060405195868092630240bc6b60e21b82525afa9586156104ef575f945f97612568575b506001600160a01b03165f5160206130ec5f395f51905f52811480612549575b156124f257505050506001600160701b03809116921690565b9295919493925f5160206130cc5f395f51905f52149081612529575b50612517575050565b6001600160701b039081169450169150565b6001600160a01b03165f5160206130ec5f395f51905f521490505f61250e565b506001600160a01b0382165f5160206130cc5f395f51905f52146124d9565b945095506060843d6060116125bb575b81612585606093836106e9565b81010312610106576125968461241d565b60406125a46020870161241d565b95015163ffffffff8116036101065793955f6124b9565b3d9150612578565b60609192506125e09060203d6020116105915761058381836106e9565b9190612492565b61260191955060203d6020116105915761058381836106e9565b935f612469565b505090505f905f90565b6001600160a01b031691905f8084156127a957604051630dfe168160e01b815294602086600481845afa9586156104ef575f96612788575b5060405163d21220a760e01b815293602085600481855afa9182156104ef576004955f93612764575b5060609060405196878092630240bc6b60e21b82525afa9687156104ef575f955f98612709575b506001600160a01b0316905f5160206130ec5f395f51905f528214806126f4575b156126d55750505050506001600160701b03809116921690565b9396929594936001600160a01b03161490816125295750612517575050565b506001600160a01b03838116908216146126bb565b955096506060853d60601161275c575b81612726606093836106e9565b81010312610106576127378561241d565b60406127456020880161241d565b96015163ffffffff8116036101065794965f61269a565b3d9150612719565b60609193506127819060203d6020116105915761058381836106e9565b9290612673565b6127a291965060203d6020116105915761058381836106e9565b945f61264a565b50505090505f905f90565b6001600160a01b031691905f8084156127a957604051630dfe168160e01b815294602086600481845afa9586156104ef575f9661294a575b5060405163d21220a760e01b815293602085600481855afa9182156104ef576004955f93612926575b5060609060405196878092630240bc6b60e21b82525afa9687156104ef575f955f986128cb575b506001600160a01b0316905f5160206130cc5f395f51905f528214806128b6575b156128775750505050506001600160701b03809116921690565b9396929594936001600160a01b03161490816128965750612517575050565b6001600160a01b03165f5160206130cc5f395f51905f521490505f61250e565b506001600160a01b038381169082161461285d565b955096506060853d60601161291e575b816128e8606093836106e9565b81010312610106576128f98561241d565b60406129076020880161241d565b96015163ffffffff8116036101065794965f61283c565b3d91506128db565b60609193506129439060203d6020116105915761058381836106e9565b9290612815565b61296491965060203d6020116105915761058381836106e9565b945f6127ec565b909291905f9081906001600160a01b03168015612b1057604051630dfe168160e01b8152602081600481855afa9081156104ef575f91612af1575b5060405163d21220a760e01b815294602086600481865afa9283156104ef576004965f94612acd575b5060609060405197888092630240bc6b60e21b82525afa9788156104ef575f965f99612a72575b506001600160a01b0390811692169081831480612a5d575b15612a29575050505050506001600160701b03809116921690565b9497939695946001600160a01b0316149182612a4a575b5050612517575050565b6001600160a01b03161490505f80612a40565b506001600160a01b0384811690821614612a0e565b965097506060863d606011612ac5575b81612a8f606093836106e9565b8101031261010657612aa08661241d565b6040612aae6020890161241d565b97015163ffffffff8116036101065795975f6129f6565b3d9150612a82565b6060919450612aea9060203d6020116105915761058381836106e9565b93906129cf565b612b0a915060203d6020116105915761058381836106e9565b5f6129a6565b5050505090505f905f90565b905f91612b276123bc565b905f5b60038110612b3757505050565b6044945060206001600160a01b03612b4f8386611afb565b5160405163e6a4390560e01b81525f5160206130cc5f395f51905f5260048201526001600160a01b038616602482015297889290918391165afa9485156104ef575f95612bb7575b50846001600160a01b038116612bb05750600101612b2a565b9450505050565b612bd091955060203d81116105915761058381836106e9565b935f612b97565b9392919093612710612bf1612bea6112aa565b9583610d49565b0491612bfd8383610bb0565b9383158015612caa575b612ca0578484612c1692612cb2565b948615612c9a57612c2683610d69565b861115612c90575060208101516040808301516060909301519051976001600160a01b039182169382169290911690612c5e89610680565b151588526001602089015260408801526060870152608086015260a085015260c084015260e083015261010082015290565b9550505050505090565b82612c26565b5050505050905090565b508415612c07565b909192815190602083015160c084015160e0850193845196975f919392965f975b600c891080612fa4575b15612f97576064612cee8b83610d49565b046063810281810460631482151715610bbd57606490049b60058804808e11612f8f575b508c15612f8057612d2488888f61215a565b91818311612d78575b50916005612d5f8e612d5985612d5381612d4d612d6799612d6d9b610bb0565b9c610d5c565b9b610d5c565b9a610bb0565b9d0490610d5c565b986116b3565b979994939299612cd3565b9c509050612d878787836121ee565b9b808d11612f78575b508b15612f6a57612da287878e61215a565b90808211612db0575f612d2d565b505096975093985096505b158015612f62575b8015612f5a575b612f4f578561010083015115612f2c575b509391906060604082015191015192805196955f9294935f975b600c891080612f23575b15612f14576064612e108b8a610d49565b046063810281810460631482151715610bbd57606490049160058904808411612f0c575b508215612efb57612e4689898561215a565b91818311612e84575b5091612e7582612e6f83612e69612d6796612e7b98610bb0565b9a610d5c565b99610d5c565b98610bb0565b97959493612df5565b92509050612e938888836121ee565b91808311612ef3575b508115612ee357612eae88888461215a565b90808211612ebc575f612e4f565b5050509896509250955091505b8115612eda57610c9f945193612fad565b50505050505f90565b5050989650925095509150612ec9565b91505f612e9c565b505050989650925095509150612ec9565b92505f612e34565b50989650925095509150612ec9565b50801515612dff565b612f42919650608083015160a0840151916121ee565b948515612f4f575f612ddb565b505093505050505f90565b508015612dca565b508615612dc3565b509697509398509650612dbb565b9b505f612d90565b50509697509398509650612dbb565b9c505f612d12565b9697509398509650612dbb565b508a1515612cdd565b92949093612fbe6064915f97610d49565b04938415613070579294915f925b600c841080613067575b1561305e578582111561305857855b606381029080820460631490151715610bbd576064900490811561304e5761300e8689846121ee565b908115613043579161302e82612e7583612d4d6130349661303a98610d5c565b93610bb0565b936116b3565b92909395612fcc565b975050505092505050565b9650505092505050565b81612fe5565b95505092505050565b50811515612fd6565b5093505050505f9056fe608080604052346013576039908160188239f35b5f80fdfe5f80fdfea2646970667358221220d59a30ad2c4a5f25d4acf553a850bd879084755e3f066630b6a9cf034a69fc5264736f6c634300081e0033000000000000000000000000c02aaa39b223fe8d0a0e5c4f27ead9083c756cc2000000000000000000000000c9fa8f4cfd11559b50c5c7f6672b9eea2757e1bda26469706673582212206b43f05ea258bf62e24bc044a17a3b06e6dc4eb4db0acf80d1be3fdaacc12c9764736f6c634300081e0033","linkReferences":{}},"methodIdentifiers":{"DAI()":"e0bab4c4","FRAX()":"b0e4556f","QTN()":"1d8e1344","SHIBASWAP_FACTORY()":"fb620689","SUSHISWAP_FACTORY()":"495c0f9b","UNISWAP_V2_FACTORY()":"99d8fae3","UNIV2_USDC_WETH_PAIR()":"e74fb204","USDC()":"89a30271","USDT()":"c54e44eb","WBTC()":"4dede3de","WETH()":"ad5c4648","executeOnOpportunity()":"3c2448ed","hiddenPairDelta()":"080b217a","profitAmount()":"5ff972cc","profitToken()":"49343624","uniswapV2Call(address,uint256,uint256,bytes)":"10d1e85c"},"id":0}