{"abi":[{"type":"constructor","inputs":[],"stateMutability":"nonpayable"},{"type":"receive","stateMutability":"payable"},{"type":"function","name":"TARGET","inputs":[],"outputs":[{"name":"","type":"address","internalType":"address"}],"stateMutability":"view"},{"type":"function","name":"executeOnOpportunity","inputs":[],"outputs":[],"stateMutability":"nonpayable"},{"type":"function","name":"exploitPathUsed","inputs":[],"outputs":[{"name":"","type":"string","internalType":"string"}],"stateMutability":"view"},{"type":"function","name":"hypothesisValidated","inputs":[],"outputs":[{"name":"","type":"bool","internalType":"bool"}],"stateMutability":"view"},{"type":"function","name":"observedPrivilegedHolder","inputs":[],"outputs":[{"name":"","type":"address","internalType":"address"}],"stateMutability":"view"},{"type":"function","name":"profitAmount","inputs":[],"outputs":[{"name":"","type":"uint256","internalType":"uint256"}],"stateMutability":"view"},{"type":"function","name":"profitToken","inputs":[],"outputs":[{"name":"","type":"address","internalType":"address"}],"stateMutability":"view"},{"type":"function","name":"status","inputs":[],"outputs":[{"name":"","type":"string","internalType":"string"}],"stateMutability":"view"}],"bytecode":{"object":"0x60806040523461034457610014600354610348565b601f81116102f1575b5061021d60039081555f527f61646d696e757067726164656162696c69747970726f7879206973206465706c5f5160206129f35f395f51905f52557f6f796564207769746820696e697469616c697a6174696f6e2063616c6c6461747fc2575a0e9e593c00f959f8c92f12db2869c3395a3b0502d05e2516446f71f85c557f613b20696e697469616c697a6528292061737369676e73206f776e6572203d207fc2575a0e9e593c00f959f8c92f12db2869c3395a3b0502d05e2516446f71f85d557f6d73672e73656e6465723b2064656c656761746563616c6c2072756e732062657fc2575a0e9e593c00f959f8c92f12db2869c3395a3b0502d05e2516446f71f85e557f666f72652061646d696e2069732073657420736f20746865206465706c6f79657fc2575a0e9e593c00f959f8c92f12db2869c3395a3b0502d05e2516446f71f85f557f72206361707475726573206f776e657220616e64207468656e207573657320747fc2575a0e9e593c00f959f8c92f12db2869c3395a3b0502d05e2516446f71f860557f6861742070726976696c65676520746f20747269676765722061207075626c697fc2575a0e9e593c00f959f8c92f12db2869c3395a3b0502d05e2516446f71f861557f6320666c6173682d66756e64656420736574746c656d656e7420726f757465207fc2575a0e9e593c00f959f8c92f12db2869c3395a3b0502d05e2516446f71f862556d66726f6d207468652070726f787960901b7fc2575a0e9e593c00f959f8c92f12db2869c3395a3b0502d05e2516446f71f8635560045461026d90610348565b601f81116102a9575b7f6e6f74206578656375746564000000000000000000000000000000000000001860045560405161267290816103818239f35b60045f52601f0160051c7f8a35acfbc15ff81a39ae7d344fd709f28e8600b4aa8c65c6b64bfe7fe36bd19b908101905b8181106102e65750610276565b5f81556001016102d9565b60035f52601f0160051c5f5160206129f35f395f51905f52017fc2575a0e9e593c00f959f8c92f12db2869c3395a3b0502d05e2516446f71f8645b818110610339575061001d565b5f815560010161032c565b5f80fd5b90600182811c92168015610376575b602083101461036257565b634e487b7160e01b5f52602260045260245ffd5b91607f169161035756fe608080604052600436101561001c575b50361561001a575f80fd5b005b5f3560e01c9081631ab46f01146102a757508063200d2ed2146102155780633c2448ed146101fd578063463defd1146101d857806349343624146101b15780635ff972cc14610194578063cc1f2afa146101665763d78c428114610080575f61000f565b34610162575f366003190112610162576040515f6003546100a0816102f1565b808452906001811690811561013e57506001146100e0575b6100dc836100c881850382610329565b6040519182916020835260208301906102cd565b0390f35b91905060035f527fc2575a0e9e593c00f959f8c92f12db2869c3395a3b0502d05e2516446f71f85b915f905b808210610124575090915081016020016100c86100b8565b91926001816020925483858801015201910190929161010c565b60ff191660208086019190915291151560051b840190910191506100c890506100b8565b5f80fd5b34610162575f36600319011261016257602060405173b5599f568d3f3e6113b286d010d2bca40a7745aa8152f35b34610162575f366003190112610162576020600154604051908152f35b34610162575f366003190112610162575f546040516001600160a01b039091168152602090f35b34610162575f36600319011261016257602060ff60025460081c166040519015158152f35b34610162575f3660031901126101625761001a6103fb565b34610162575f366003190112610162576040515f600454610235816102f1565b808452906001811690811561013e575060011461025c576100dc836100c881850382610329565b91905060045f525f51602061261d5f395f51905f52915f905b80821061028d575090915081016020016100c86100b8565b919260018160209254838588010152019101909291610275565b34610162575f3660031901126101625760025460101c6001600160a01b03168152602090f35b805180835260209291819084018484015e5f828201840152601f01601f1916010190565b90600182811c9216801561031f575b602083101461030b57565b634e487b7160e01b5f52602260045260245ffd5b91607f1691610300565b90601f8019910116810190811067ffffffffffffffff82111761034b57604052565b634e487b7160e01b5f52604160045260245ffd5b9081602091031261016257516001600160a01b03811681036101625790565b601f81116103895750565b60045f52601f0160051c5f51602061261d5f395f51905f52017f8a35acfbc15ff81a39ae7d344fd709f28e8600b4aa8c65c6b64bfe7fe36bd19e5b8181106103cf575050565b5f81556001016103c4565b919082039182116103e757565b634e487b7160e01b5f52601160045260245ffd5b60025460ff8116610b2f5760ff1981166001176002556040516370a0823160e01b81523060048201526020816024815f5160206125bd5f395f51905f525afa908115610b24575f91610af2575b506001604092835161045a8582610329565b60078152666f776e6572282960c81b6020820152610480620100008460b01b0391610b71565b60101b169061ff018360b01b0319161717600255815161075280820182811067ffffffffffffffff82111761034b578291611af1833903905ff08015610ae857825163204a7f0760e21b6020820152600481526104de602482610329565b83519161037a918284019284841067ffffffffffffffff85111761034b57849361053c9360609261224387396001600160a01b03168152731111111111111111111111111111111111111111602082015287810182905201906102cd565b03905ff08015610ae8578251638da5cb5b60e01b81526001600160a01b039190911690602081600481855afa9081156109ae575f91610ab9575b506001600160a01b0316308103610a755773111111111111111111111111111111111111111114610a315761010061ff001960025416176002556105c36105be6004546102f1565b61037e565b609f60045560045f527f6361707475726564206f776e657220726570726f64756365643b20636865636b5f51602061261d5f395f51905f52557f696e67206469726563742062616c616e636573206265666f7265207075626c695f5160206125dd5f395f51905f52556e6320666c6173682066756e64696e6760881b5f5160206125fd5f395f51905f5255610656610d49565b8051905f5b8281106109b857505083516370a0823160e01b815230600482015290506020816024815f5160206125bd5f395f51905f525afa9081156109ae579083915f91610979575b5014610869575b5081516370a0823160e01b81523060048201526020816024815f5160206125bd5f395f51905f525afa92831561086057505f9261082c575b5080821115610781575f80546001600160a01b0319165f5160206125bd5f395f51905f5217905561070e916103da565b60015561071c6004546102f1565b601f811161074c575b507f776574682070726f666974207265616c697a6564000000000000000000000028600455565b60045f52601f0160051c5f51602061261d5f395f51905f52908101905b8181106107765750610725565b5f8155600101610769565b50506107916105be6004546102f1565b60c160045560045f527f70726976696c656765206361707475726520726570726f64756365642c2062755f51602061261d5f395f51905f52557f74206e6f20706f736974697665207075626c696320736574746c656d656e74205f5160206125dd5f395f51905f52557f70617468207761732065786563757461626c65206f6e207468697320666f726b5f5160206125fd5f395f51905f5255565b9091506020813d602011610858575b8161084860209383610329565b810103126101625751905f6106de565b3d915061083b565b513d5f823e3d90fd5b6108746004546102f1565b601f8111610926575b506109209060af60045560045f527f6469726563742062616c616e63657320656d707479206f6e207468697320666f5f51602061261d5f395f51905f52557f726b3b207573696e67207075626c696320666c617368206c69717569646974795f5160206125dd5f395f51905f52557f207468726f756768206361707475726564206f776e65720000000000000000005f5160206125fd5f395f51905f5255610c4b565b5f6106a6565b60045f52601f0160051c5f51602061261d5f395f51905f52017f8a35acfbc15ff81a39ae7d344fd709f28e8600b4aa8c65c6b64bfe7fe36bd19e5b81811061096e575061087d565b5f8155600101610961565b9150506020813d6020116109a6575b8161099560209383610329565b81010312610162578290515f61069f565b3d9150610988565b84513d5f823e3d90fd5b6001906001600160a01b036109cd8285610c23565b5116803b15610a2b576109e08682611045565b806109ef575b50505b0161065b565b610a239189519163a9059cbb60e01b6020840152306024840152604483015260448252610a1d606483610329565b876110b9565b505f806109e6565b506109e9565b825162461bcd60e51b815260206004820152601d60248201527f61646d696e20756e65787065637465646c79206f776e732070726f78790000006044820152606490fd5b835162461bcd60e51b815260206004820152601e60248201527f6f776e6572206e6f74206361707475726564206279206465706c6f79657200006044820152606490fd5b610adb915060203d602011610ae1575b610ad38183610329565b81019061035f565b5f610576565b503d610ac9565b82513d5f823e3d90fd5b90506020813d602011610b1c575b81610b0d60209383610329565b8101031261016257515f610448565b3d9150610b00565b6040513d5f823e3d90fd5b50565b3d15610b6c573d9067ffffffffffffffff821161034b5760405191610b61601f8201601f191660200184610329565b82523d5f602084013e565b606090565b6040519063ffffffff60e01b9060208151910120169067ffffffffffffffff811161034b575f9182916040526040516020810191825260048152610bb6602482610329565b519073b5599f568d3f3e6113b286d010d2bca40a7745aa5afa610bd7610b32565b90158015610c18575b610c13576020815191818082019384920101031261016257516001600160a01b038111610c13576001600160a01b031690565b505f90565b506020815110610be0565b8051821015610c375760209160051b010190565b634e487b7160e01b5f52603260045260245ffd5b610c53611122565b610c5b610d49565b8051905f5b828110610c7f5750505060c08101511561078157610c7d91611169565b565b6001600160a01b03610c918284610c23565b51165f5160206125bd5f395f51905f5281148015610d40575b610d3757610cb781611483565b610cc08261153c565b813b158015610d2e575b610d2357610cd98382846115bc565b60c081015160c089015110610d19575b5090610cf592916115bc565b60c081015160c086015110610d10575b506001905b01610c60565b93506001610d05565b9650610cf5610ce9565b505050600190610d0a565b50803b15610cca565b50600190610d0a565b50803b15610caa565b6102a090604051610d5a8382610329565b601481526020810192601f19013684378092815115610c3757736b175474e89094c44da98b954eedeac495271d0f9052805160011015610c375773a0b86991c6218b36c1d19d4a2e9eb0ce3606eb486040820152805160021015610c375773dac17f958d2ee523a2206206994597c13d831ec76060820152805160031015610c3757732260fac5e5542a773aa44fbcfedf7c193bc2c5996080820152805160041015610c375773514910771af9ca656af840dff83e8264ecf986ca60a0820152805160051015610c3757731f9840a85d5af5bf1d1762f925bdaddc4201f98460c0820152805160061015610c3757737fc66500c84a76ad7e9c93437bfc5ac33e2ddae960e0820152805160071015610c375773d533a949740bb3306d119cc777fa900ba034cd52610100820152805160081015610c3757735a98fcbea516cf06857215779fd812ca3bef1b32610120820152805160091015610c3757739f8f72aa9304c8b593d555f12ef6589cc3a579a26101408201528051600a1015610c375773853d955acef822db058eb8505911ed77f175b99e6101608201528051600b1015610c375773c00e94cb662c3520282e6f5717214004a7f268886101808201528051600c1015610c3757736b3595068778dd592e39a122f4f5a5cf09c90fe26101a08201528051600d1015610c3757730bc529c00c6401aef6d220be8c6ea1667f6ad93e6101c08201528051600e1015610c375773c011a73ee8576fb46f5e1c5751ca3b9fe0af2a6f6101e08201528051600f1015610c375773ba100000625a3754423978a60c9317c58a424e3d610200820152805160101015610c375773c18360217d8f7ab5e7c516566761ea12ce7f9d72610220820152805160111015610c3757737d1afa7b718fb893db30a3abc0cfc608aacfebb0610240820152805160121015610c37577395ad61b0a150d79219dcf64e1e6cc01f0b64c4ce610260820152805160131015610c3757610280736982508145454ce325ddbe47a25d4ec3d2311933910152565b6040516370a0823160e01b602082019081526001600160a01b0390931660248083019190915281525f9283929161107d604482610329565b51915afa611089610b32565b901580156110ae575b610c135760208151918180820193849201010312610162575190565b506020815110611092565b604051630565bb6760e01b602082019081526001600160a01b0390931660248201525f60448201819052606060648301529384939184916111129082906111049060848301906102cd565b03601f198101835282610329565b51925af161111e610b32565b5090565b6040519060e0820182811067ffffffffffffffff82111761034b576040525f60c0838281528260208201528260408201528260608201528260808201528260a08201520152565b81519091906001600160a01b03163b15801561146d575b61137c578051604051630dfe168160e01b81529290602090849060049082906001600160a01b03165afa908115610b24576112a4935f9261135b575b5060408301516001600160a01b039081169261129f911683148015611354576060850151905b15611346576112915f955b60018060a01b0360208201511695608082015160a0830151916040519860208a015260408901525f5160206125bd5f395f51905f526060890152608088015260a08701523060c087015260c0865261124660e087610329565b5160405163022c0d9f60e01b6020820152602481019390935260448301969096526001600160a01b0384811660648401526080608484015291959091169385919060a48301906102cd565b03601f198101855284610329565b6110b9565b156112ab57565b6112b96105be6004546102f1565b609f60045560045f527f70726976696c656765206361707475726520726570726f64756365642c2062755f51602061261d5f395f51905f52557f74207075626c696320666c61736820736574746c656d656e74207265766572745f5160206125dd5f395f51905f52556e6564206f6e207468697320666f726b60881b5f5160206125fd5f395f51905f5255565b6112916060860151956111ed565b5f906111e2565b61137591925060203d602011610ae157610ad38183610329565b905f6111bc565b50506113896004546102f1565b601f811161141a575b50609360045560045f527f70726976696c656765206361707475726520726570726f64756365642c2062755f51602061261d5f395f51905f52557f742063616e64696461746520414d4d2070616972206d697373696e67206f6e205f5160206125dd5f395f51905f5255687468697320666f726b60b81b5f5160206125fd5f395f51905f5255565b60045f52601f0160051c5f51602061261d5f395f51905f52017f8a35acfbc15ff81a39ae7d344fd709f28e8600b4aa8c65c6b64bfe7fe36bd19e5b8181106114625750611392565b5f8155600101611455565b5060208101516001600160a01b03163b15611180565b735c69bee701ef814a2b6a3edd4b1652cb9cc5aa6f3b15610c13575f8091604051602081019163e6a4390560e01b83525f5160206125bd5f395f51905f52602483015260018060a01b03166044820152604481526114e2606482610329565b5190735c69bee701ef814a2b6a3edd4b1652cb9cc5aa6f5afa611503610b32565b90158015611531575b610c135780516001600160a01b039161152d9181016020908101910161035f565b1690565b50602081511061150c565b73c0aee478e3658e2610c5f7a4a2e1777ce9e4f2ac3b15610c13575f8091604051602081019163e6a4390560e01b83525f5160206125bd5f395f51905f52602483015260018060a01b031660448201526044815261159b606482610329565b519073c0aee478e3658e2610c5f7a4a2e1777ce9e4f2ac5afa611503610b32565b9291906115c7611122565b936115d3838383611643565b9291908360c08a015260a0890152608088015260608701521561160d576001600160a01b0390811685529081166020850152166040830152565b505050565b818102929181159184041417156103e757565b811561162f570490565b634e487b7160e01b5f52601260045260245ffd5b90611666909392935f945f905f9661165c825f976117ca565b96919390956117ca565b90949196159081156117c1575b5061179657821580156117b9575b80156117b1575b80156117a9575b61179657604051986101008a018a811067ffffffffffffffff82111761034b5760405260018a52600260208b0152600560408b0152600a60608b0152601460808b0152603260a08b0152606460c08b015260c860e08b01525f5b6008811015611789576127106117058260051b8d015187611612565b048015801561177c575b6117735761171e878a836118cc565b9061172a878a83611941565b90818311156117685761173d82846103da565b908c8211611754575b505050506001905b016116e9565b909b509550909350915060015f8080611746565b50505060019061174e565b5060019061174e565b506003860481101561170f565b5096955096935096505050565b5050505050505090505f905f905f905f90565b50831561168f565b508515611688565b508415611681565b9050155f611673565b919091803b15611858576117f36117e0826119c6565b90946117eb84611a34565b939094611a6c565b95919097159182156118c3575b5081156118ba575b506118ac576001600160a01b0390811691168082148061188d575b611876575f5160206125bd5f395f51905f521491821592611862575b5050611858576001600160701b03809116921690600190565b505f915081908190565b6001600160a01b0316141590505f8061183f565b505050916001600160701b03809116921690600190565b506001600160a01b0383165f5160206125bd5f395f51905f5214611823565b5050505090505f905f905f90565b9050155f611808565b1591505f611800565b918215808015611939575b8015611931575b611929576103e584029384046103e51417156103e7576118fe9083611612565b916103e88202918083046103e814901517156103e75781018091116103e75761192691611625565b90565b505050505f90565b5081156118de565b5082156118d7565b9190821580156119be575b80156119b4575b6119ac578261196191611612565b916103e88302928084046103e814901517156103e757611980916103da565b6103e58102908082046103e514901517156103e75761199e91611625565b600181018091116103e75790565b5050505f1990565b5082821115611953565b50801561194c565b5f8091630dfe168160e01b60405160208101918252600481526119ea602482610329565b51915afa906119f7610b32565b82158015611a29575b611a215780516001600160a01b039161152d9181016020908101910161035f565b505f91508190565b506020815110611a00565b5f809163d21220a760e01b60405160208101918252600481526119ea602482610329565b51906001600160701b038216820361016257565b5f80916040516020810190630240bc6b60e21b825260048152611a90602482610329565b51915afa90611a9d610b32565b82158015611ae5575b6118585760608180518101031261016257611ac360208201611a58565b906060611ad260408301611a58565b91015163ffffffff811603610162579091565b506060815110611aa656fe60808060405234601557610738908161001a8239f35b5f80fdfe6080806040526004361015610012575f80fd5b5f905f3560e01c9081630565bb67146104535750806310d1e85c146100d95780638129fc1c1461007357638da5cb5b1461004a575f80fd5b34610070578060031936011261007057546040516001600160a01b039091168152602090f35b80fd5b503461007057806003193601126100705780546001600160a01b0381166100a5576001600160a01b0319163317815580f35b60405162461bcd60e51b815260206004820152600c60248201526b185b1c9958591e481a5b9a5d60a21b6044820152606490fd5b503461039a57608036600319011261039a576100f3610541565b60243560643567ffffffffffffffff811161039a57610116903690600401610557565b9092306001600160a01b0390911603610421578260c0918101031261039a5761013e8261061e565b9161014b6020820161061e565b6101576040830161061e565b60608301359161016960a0850161061e565b956001600160a01b03928316959216918015610418575b80156103e75761019a9183906001600160a01b0316610632565b604051630dfe168160e01b815291602083600481855afa92831561038f57879386915f9161039e575b506001600160a01b031603610300576040516101e06020826105a9565b8381525f366020830137823b156102c95761022d9284928360405180968195829463022c0d9f60e01b84526004840152836024840152306044840152608060648401526084830190610585565b03925af180156102f5576102e0575b5050608061024e915b01353383610632565b6040516370a0823160e01b815230600482015290602082602481845afa9182156102d557849261029d575b5081610283578380f35b610296926001600160a01b031690610632565b5f80808380f35b9091506020813d6020116102cd575b816102b9602093836105a9565b810103126102c95751905f610279565b8380fd5b3d91506102ac565b6040513d86823e3d90fd5b816102ea916105a9565b6102c957835f61023c565b6040513d84823e3d90fd5b9091506040516103116020826105a9565b5f808252366020830137823b1561039a5761035e925f928360405180968195829463022c0d9f60e01b84528460048501526024840152306044840152608060648401526084830190610585565b03925af1801561038f57610379575b50608061024e91610245565b6103869194505f906105a9565b5f92608061036d565b6040513d5f823e3d90fd5b5f80fd5b92945050506020813d6020116103df575b816103bc602093836105a9565b8101031261039a5751916001600160a01b038316830361039a578487935f6101c3565b3d91506103af565b60405162461bcd60e51b81526020600482015260096024820152686e6f20626f72726f7760b81b6044820152606490fd5b50604435610180565b60405162461bcd60e51b815260206004820152600a6024820152693130b21039b2b73232b960b11b6044820152606490fd5b606036600319011261039a57610467610541565b60443567ffffffffffffffff811161039a57610487903690600401610557565b5f549093906001600160a01b03163303610513575f8084868581604051928392833781018481520391602435905af16104be6105df565b90156104e0576104dc90604051918291602083526020830190610585565b0390f35b60405162461bcd60e51b815260206004820152600b60248201526a195e1958c819985a5b195960aa1b6044820152606490fd5b62461bcd60e51b81526020600482015260096024820152683737ba1037bbb732b960b91b6044820152606490fd5b600435906001600160a01b038216820361039a57565b9181601f8401121561039a5782359167ffffffffffffffff831161039a576020838186019501011161039a57565b805180835260209291819084018484015e5f828201840152601f01601f1916010190565b90601f8019910116810190811067ffffffffffffffff8211176105cb57604052565b634e487b7160e01b5f52604160045260245ffd5b3d15610619573d9067ffffffffffffffff82116105cb576040519161060e601f8201601f1916602001846105a9565b82523d5f602084013e565b606090565b35906001600160a01b038216820361039a57565b91909181156106fd575f9283809360405190602082019363a9059cbb60e01b855260018060a01b031660248301526044820152604481526106746064826105a9565b51925af16106806105df565b816106c5575b501561068e57565b60405162461bcd60e51b815260206004820152600f60248201526e1d1c985b9cd9995c8819985a5b1959608a1b6044820152606490fd5b80518015925082156106da575b50505f610686565b819250906020918101031261039a5760200151801515810361039a575f806106d2565b50505056fea2646970667358221220a78f3ac54bd9f51bba447147dcbd553eca6de6ed49ec4f3515138b53039aaae864736f6c634300081e0033608060405261037a8038038061001481610195565b92833981016060828203126101915761002c826101ce565b610038602084016101ce565b604084015190936001600160401b038211610191570182601f8201121561019157805161006c610067826101e2565b610195565b9181835260208301946020838301011161019157815f926020809301875e83010152813b1561015a57817f360894a13ba1a3210667c828492db98dca3e2076cc3735a920a3ca505d382bbc5551806100f1575b837fb53127684a568b3173ae13b9f8a6016e243e63b6e8ee1178d6a717850b5d61035560405161017c90816101fe8239f35b5f9283925af43d15610155573d61010a610067826101e2565b9081525f60203d92013e5b15610122575f80806100bf565b60405162461bcd60e51b815260206004820152600b60248201526a1a5b9a5d0819985a5b195960aa1b6044820152606490fd5b610115565b60405162461bcd60e51b815260206004820152600f60248201526e1b1bd9da58c80858dbdb9d1c9858dd608a1b6044820152606490fd5b5f80fd5b6040519190601f01601f191682016001600160401b038111838210176101ba57604052565b634e487b7160e01b5f52604160045260245ffd5b51906001600160a01b038216820361019157565b6001600160401b0381116101ba57601f01601f19166020019056fe6080604052366100a6577fb53127684a568b3173ae13b9f8a6016e243e63b6e8ee1178d6a717850b5d6103546001600160a01b03163314610078575f807f360894a13ba1a3210667c828492db98dca3e2076cc3735a920a3ca505d382bbc54368280378136915af43d5f803e15610074573d5ff35b3d5ffd5b62461bcd60e51b6080526020608452600d60a4526c18591b5a5b88189b1bd8dad959609a1b60c45260646080fd5b7fb53127684a568b3173ae13b9f8a6016e243e63b6e8ee1178d6a717850b5d6103546001600160a01b03163314610111575f807f360894a13ba1a3210667c828492db98dca3e2076cc3735a920a3ca505d382bbc54368280378136915af43d5f803e15610074573d5ff35b60405162461bcd60e51b815260206004820152600d60248201526c18591b5a5b88189b1bd8dad959609a1b6044820152606490fdfea2646970667358221220e2827a50419fd72ec41ecbacc5297729e20d632ce66283ff1bf616cfbe83795a64736f6c634300081e0033000000000000000000000000c02aaa39b223fe8d0a0e5c4f27ead9083c756cc28a35acfbc15ff81a39ae7d344fd709f28e8600b4aa8c65c6b64bfe7fe36bd19c8a35acfbc15ff81a39ae7d344fd709f28e8600b4aa8c65c6b64bfe7fe36bd19d8a35acfbc15ff81a39ae7d344fd709f28e8600b4aa8c65c6b64bfe7fe36bd19ba2646970667358221220018ec9a592a3eca43cae637b9acc93ec72eafa24b9244777b816ddd5f0c6f5bc64736f6c634300081e0033c2575a0e9e593c00f959f8c92f12db2869c3395a3b0502d05e2516446f71f85b","linkReferences":{}},"methodIdentifiers":{"TARGET()":"cc1f2afa","executeOnOpportunity()":"3c2448ed","exploitPathUsed()":"d78c4281","hypothesisValidated()":"463defd1","observedPrivilegedHolder()":"1ab46f01","profitAmount()":"5ff972cc","profitToken()":"49343624","status()":"200d2ed2"},"id":0}