{"abi":[{"type":"constructor","inputs":[],"stateMutability":"nonpayable"},{"type":"fallback","stateMutability":"payable"},{"type":"receive","stateMutability":"payable"},{"type":"function","name":"executeOnOpportunity","inputs":[],"outputs":[],"stateMutability":"nonpayable"},{"type":"function","name":"executed","inputs":[],"outputs":[{"name":"","type":"bool","internalType":"bool"}],"stateMutability":"view"},{"type":"function","name":"hypothesisValidated","inputs":[],"outputs":[{"name":"","type":"bool","internalType":"bool"}],"stateMutability":"view"},{"type":"function","name":"profitAmount","inputs":[],"outputs":[{"name":"","type":"uint256","internalType":"uint256"}],"stateMutability":"view"},{"type":"function","name":"profitToken","inputs":[],"outputs":[{"name":"","type":"address","internalType":"address"}],"stateMutability":"pure"},{"type":"function","name":"uniswapV2Call","inputs":[{"name":"","type":"address","internalType":"address"},{"name":"amount0","type":"uint256","internalType":"uint256"},{"name":"amount1","type":"uint256","internalType":"uint256"},{"name":"data","type":"bytes","internalType":"bytes"}],"outputs":[],"stateMutability":"nonpayable"},{"type":"error","name":"InvalidCallback","inputs":[]},{"type":"error","name":"NoOpportunity","inputs":[]},{"type":"error","name":"RepayTransferFailed","inputs":[]},{"type":"error","name":"RouterBuybackFailed","inputs":[]},{"type":"error","name":"Unprofitable","inputs":[]}],"bytecode":{"object":"0x60808060405234601557614240908161001a8239f35b5f80fdfe6080806040526004361015610011575b005b5f3560e01c90816310d1e85c146100f45750806331a38c89146100d25780633c2448ed146100ba578063463defd114610095578063493436241461007b57635ff972cc1461005b57005b34610077575f3660031901126100775760205f54604051908152f35b5f80fd5b34610077575f3660031901126100775760206040515f8152f35b34610077575f36600319011261007757602060ff60015460081c166040519015158152f35b34610077575f3660031901126100775761000f6107ca565b34610077575f36600319011261007757602060ff600154166040519015158152f35b346100775760803660031901126100775761010d610725565b506064359060243567ffffffffffffffff8311610077573660238401121561007757826004013567ffffffffffffffff81116100775783013660248201116100775760a09084900312610077576101638261074f565b61016f6024840161073b565b825261017d6044840161073b565b92602083019384526101916064820161073b565b90604084019182526101a56084820161073b565b92606085019380855260a460808701930135835260018060a01b0316330361070c57801561071b57905b51810361070c5783516040516370a0823160e01b81523060048201529190602090839060249082906001600160a01b03165afa918215610531575f926106d8575b5081156106285784518651610231916001600160a01b0391821691166110bf565b508451865160405163095ea7b360e01b602082019081526001600160a01b0392831660248301525f1960448084019190915282525f93849316918390610278606482610787565b51925af1610284611068565b816106a9575b501561062857855185516102b89147916102b29185916001600160a01b0390811691166111ec565b476107a9565b855184516040516370a0823160e01b81526001600160a01b03918216600482015292949160209184916024918391165afa918215610531575f92610673575b508751875161031392916001600160a01b0391821691166111ec565b855184516040516370a0823160e01b81526001600160a01b0391821660048201529160209183916024918391165afa908115610531575f91610641575b5011156106285761037c61036661038292611296565b935186516001600160a01b039081169116611327565b84611425565b809111801590610637575b61062857845184516040515f9261040f926001600160a01b039182169291166103b7606083610787565b6002825260403660208401375f51602061412b5f395f51905f526103da83612769565b526103e482612776565b5260405194858094819363fb3bdb4160e01b8352896004840152608060248401526084830190611177565b30604483015242606483015203925af1908161057a575b5061043a576379abae4760e11b5f5260045ffd5b8251915160405163a9059cbb60e01b602082019081526001600160a01b03928316602483015260448201939093525f93849392169190839061048981606481015b03601f198101835282610787565b51925af1610495611068565b8161054b575b501561053c5780516040516370a0823160e01b81523060048201529190602090839060249082906001600160a01b03165afa918215610531575f926104fd575b50816104e357005b9151915161000f926001600160a01b0391821691166111ec565b9091506020813d602011610529575b8161051960209383610787565b81010312610077575190836104db565b3d915061050c565b6040513d5f823e3d90fd5b637e896ef560e11b5f5260045ffd5b8051801592508215610560575b50508361049b565b61057392506020809183010191016110a7565b8380610558565b3d805f833e6105898183610787565b8101906020818303126100775780519067ffffffffffffffff821161007757019080601f830112156100775781519167ffffffffffffffff8311610614578260051b9060208201936105de6040519586610787565b845260208085019282010192831161007757602001905b82821061060457505050610426565b81518152602091820191016105f5565b634e487b7160e01b5f52604160045260245ffd5b630b4cb19960e01b5f5260045ffd5b505f19811461038d565b90506020813d60201161066b575b8161065c60209383610787565b81010312610077575188610350565b3d915061064f565b9091506020813d6020116106a1575b8161068f60209383610787565b810103126100775751906103136102f7565b3d9150610682565b80518015925082156106be575b50508761028a565b6106d192506020809183010191016110a7565b87806106b6565b9091506020813d602011610704575b816106f460209383610787565b8101031261007757519086610210565b3d91506106e7565b63f7a632f560e01b5f5260045ffd5b50604435906101cf565b600435906001600160a01b038216820361007757565b35906001600160a01b038216820361007757565b60a0810190811067ffffffffffffffff82111761061457604052565b6060810190811067ffffffffffffffff82111761061457604052565b90601f8019910116810190811067ffffffffffffffff82111761061457604052565b919082039182116107b657565b634e487b7160e01b5f52601160045260245ffd5b6001545f9060ff81166110645760019061ffff1916176001555f80554791604051916107f58361074f565b5f5160206141cb5f395f51905f5283525f51602061418b5f395f51905f5260208401525f5160206141ab5f395f51905f5260408401525f51602061414b5f395f51905f5260608401525f51602061412b5f395f51905f5260808401525f5b6005811015610c7c575f5b6007811061086f5750600101610853565b610878816127d2565b4265ffffffffffff821611610c73575f5b6005811061089d5750506001905b0161085e565b65ffffffffffff6108ad8261283c565b1665ffffffffffff83160165ffffffffffff81116107b6575f5b600681106108d9575050600101610889565b6108e28161287b565b5f906108ed816128c2565b915b828110610901575050506001016108c7565b61090b8183612908565b906001600160801b0383166001600160801b03831610610c6a5760058a1015610c56578960051b8d015191604051928360c081011067ffffffffffffffff60c0860111176106145760c084016040526001600160801b03851684526001600160801b0382166020850152739188738a7ca1e4b2af840a77e8726cc6dcbe7bdb604085015265ffffffffffff8a16606085015265ffffffffffff8816608085015260018060a01b03811660a08501526040519060208201926001600160801b03198760801b1684526001600160801b03199060801b166030830152739188738a7ca1e4b2af840a77e8726cc6dcbe7bdb60601b604083015265ffffffffffff60d01b8b60d01b16605483015265ffffffffffff60d01b8960d01b16605a8301526bffffffffffffffffffffffff199060601b16606082015260548152610a51607482610787565b5190209160405163382c06eb60e21b815283600482015260e08160248173f3f84ce038442ae4c4dcb6a8ca8bacd7f28c9bde5afa908115610531575f91610c38575b506001600160801b0381511615610c2d576080015165ffffffffffff1615610bdf575b4265ffffffffffff881611610bd5576040519263382c06eb60e21b8452600484015260e08360248173f3f84ce038442ae4c4dcb6a8ca8bacd7f28c9bde5afa8015610531576001935f91610ba7575b506001600160801b0381511615908115610b92575b8115610b7c575b50610b76575f8091604051610b4b8161047b60208201946318978a5d60e11b8652602483016129f7565b51908273f3f84ce038442ae4c4dcb6a8ca8bacd7f28c9bde5af150610b6e611068565b505b016108ef565b50610b70565b65ffffffffffff915060a001511615155f610b21565b608081015165ffffffffffff16159150610b1a565b610bc8915060e03d8111610bce575b610bc08183610787565b8101906114e0565b5f610b05565b503d610bb6565b5060019150610b70565b5f806040516020810190630cdc3aab60e11b8252610c048161047b87602483016129f7565b51908273f3f84ce038442ae4c4dcb6a8ca8bacd7f28c9bde5af150610c27611068565b50610ab6565b505060019150610b70565b610c50915060e03d8111610bce57610bc08183610787565b5f610a93565b634e487b7160e01b5f52603260045260245ffd5b60019150610b70565b50600190610897565b50915091610c88612fdb565b610c90613099565b610c9861312a565b610ca06131bb565b610ca861324c565b610cb06132dd565b610cb861336e565b610cc06133ff565b610cc8613490565b610cd0613521565b610cd86135b2565b610ce0613643565b610ce86136d4565b610cf0613765565b610cf86137f6565b610d00613887565b610d08613918565b610d106139a9565b610d18613a3a565b610d20613acb565b610d2861157e565b610d3061194d565b610d38611c81565b610d40611fb5565b610d486122e9565b610d50612409565b610d58612529565b610d60612649565b6040516370a0823160e01b8152306004820152906020826024815f51602061412b5f395f51905f525afa918215610531575f92611030575b508115918215610fd3575b50804711610fb557506040516370a0823160e01b81523060048201526020816024815f5160206141cb5f395f51905f525afa908115610e90578391610f83575b50159081610f0f575b81610e9b575b81610e1c575b81610e14575b50610e065750565b627b41bd60e31b8152600490fd5b90505f610dfe565b6040516370a0823160e01b81523060048201529091506020816024815f51602061414b5f395f51905f525afa908115610e90578391610e5e575b501590610df8565b90506020813d602011610e88575b81610e7960209383610787565b8101031261007757515f610e56565b3d9150610e6c565b6040513d85823e3d90fd5b6040516370a0823160e01b81523060048201529091506020816024815f5160206141ab5f395f51905f525afa908115610e90578391610edd575b501590610df2565b90506020813d602011610f07575b81610ef860209383610787565b8101031261007757515f610ed5565b3d9150610eeb565b6040516370a0823160e01b81523060048201529091506020816024815f51602061418b5f395f51905f525afa908115610e90578391610f51575b501590610dec565b90506020813d602011610f7b575b81610f6c60209383610787565b8101031261007757515f610f49565b3d9150610f5f565b90506020813d602011610fad575b81610f9e60209383610787565b8101031261007757515f610de3565b3d9150610f91565b610fc09150476107a9565b905561010061ff00196001541617600155565b5f51602061412b5f395f51905f523b156100775760405190632e1a7d4d60e01b825260048201525f81602481835f51602061412b5f395f51905f525af180156105315715610da3576110289193505f90610787565b5f915f610da3565b9091506020813d60201161105c575b8161104c60209383610787565b810103126100775751905f610d98565b3d915061103f565b5050565b3d156110a2573d9067ffffffffffffffff82116106145760405191611097601f8201601f191660200184610787565b82523d5f602084013e565b606090565b90816020910312610077575180151581036100775790565b60405163095ea7b360e01b602082019081526001600160a01b0390931660248201525f604480830182905282529283929183906110fd606482610787565b51925af1611109611068565b81611112575090565b805180159250821561112357505090565b61113692506020809183010191016110a7565b90565b60405163095ea7b360e01b602082019081526001600160a01b03909316602482015260448101939093525f9283929083906110fd816064810161047b565b90602080835192838152019201905f5b8181106111945750505090565b82516001600160a01b0316845260209384019390920191600101611187565b906080926111d8919695949683525f602084015260a0604084015260a0830190611177565b6001600160a01b0390951660608201520152565b9190918115611253576001600160a01b03169161120890612786565b823b1561007757611236925f928360405180968195829463791ac94760e01b845242913091600486016111b3565b03925af18015610531576112475750565b5f61125191610787565b565b505050565b818102929181159184041417156107b657565b8115611275570490565b634e487b7160e01b5f52601260045260245ffd5b919082018092116107b657565b6103e88102908082046103e814901517156107b6576103e59004600181018091116107b65790565b51906001600160701b038216820361007757565b90816060910312610077576112e6816112be565b9160406112f5602084016112be565b92015163ffffffff811681036100775790565b9081602091031261007757516001600160a01b03811681036100775790565b604051630240bc6b60e21b81526001600160a01b039091169291606082600481875afa938415610531575f925f956113e6575b5090602060049260405193848092630dfe168160e01b82525afa918215610531575f926113b5575b506001600160a01b039182169116036113a5576001600160701b03809116921690565b6001600160701b03928316921690565b6113d891925060203d6020116113df575b6113d08183610787565b810190611308565b905f611382565b503d6113c6565b600492919550602093506114119060603d60601161141e575b6114098183610787565b8101906112d2565b509390939591925061135a565b503d6113ff565b9190821580156114b1575b80156114a9575b801561149f575b611497578261144c91611258565b916103e88302928084046103e814901517156107b65761146b916107a9565b6103e58102908082046103e514901517156107b6576114899161126b565b600181018091116107b65790565b5050505f1990565b508183101561143e565b508115611437565b508015611430565b51906001600160801b038216820361007757565b519065ffffffffffff8216820361007757565b908160e0910312610077576040519060e0820182811067ffffffffffffffff821117610614576115769160c091604052611519816114b9565b8452611527602082016114b9565b6020850152611538604082016114b9565b6040850152611549606082016114b9565b606085015261155a608082016114cd565b608085015261156b60a082016114cd565b60a0850152016114b9565b60c082015290565b6040516370a0823160e01b81523060048201526020816024815f5160206141cb5f395f51905f525afa908115610531575f9161191b575b508015611918575f905f915f5f925f906115dc815f5160206141cb5f395f51905f52612a66565b604081015180611867575b5050611600905f5160206141cb5f395f51905f52612c64565b60408101518281116117bc575b50501580156117ab575b80156117a3575b61179d576040519361162f8561074f565b5f5160206141cb5f395f51905f5285526001600160a01b03928316602080870191825291841660408088019182529390941660608701818152608088018781529451630dfe168160e01b81529295919491939192909181600481885afa8015610531575f5160206141cb5f395f51905f52915f9161177e575b506001600160a01b03160361177757855b8661176f57925b6040805198516001600160a01b0390811660208b0190815297518116918a019190915290518116606089015290511660808701525160a080870191909152855291939161170e60c084610787565b813b15610077575f60a481956040519788968795869363022c0d9f60e01b855260048501526024840152306044840152608060648401525180918160848501528484015e8181018301849052601f01601f191681010301925af16112475750565b505f926116c0565b5f956116b9565b611797915060203d6020116113df576113d08183610787565b5f6116a8565b50505050565b50821561161e565b506001600160a01b03811615611617565b9450945050505073d9e1ce17f2641f24ae83637ab66a2cca9c378b9f60405163e6a4390560e01b81525f5160206141cb5f395f51905f5260048201525f51602061412b5f395f51905f5260248201526020816044815f5160206141eb5f395f51905f525afa908115610531575f91611848575b5092602060018060a01b03825116910151925f8061160d565b611861915060203d6020116113df576113d08183610787565b5f61182f565b945095509350505091737a250d5630b4cf539739df2c5dacb4c659f2488d9060405163e6a4390560e01b81525f5160206141cb5f395f51905f5260048201525f51602061412b5f395f51905f5260248201526020816044815f51602061416b5f395f51905f525afa908115610531575f916118f9575b5093611600602060018060a01b0384511693015194905f6115e7565b611912915060203d6020116113df576113d08183610787565b5f6118dd565b50565b90506020813d602011611945575b8161193660209383610787565b8101031261007757515f6115b5565b3d9150611929565b6040516370a0823160e01b81523060048201526020816024815f51602061418b5f395f51905f525afa908115610531575f91611c4f575b508015611918575f905f915f5f925f906119ab815f51602061418b5f395f51905f52612a66565b604081015180611b9e575b50506119cf905f51602061418b5f395f51905f52612c64565b6040810151828111611af3575b5050158015611ae2575b8015611ada575b61179d57604051936119fe8561074f565b5f51602061418b5f395f51905f5285526001600160a01b03928316602080870191825291841660408088019182529390941660608701818152608088018781529451630dfe168160e01b81529295919491939192909181600481885afa8015610531575f51602061418b5f395f51905f52915f9161177e57506001600160a01b03160361177757858661176f57926040805198516001600160a01b0390811660208b0190815297518116918a019190915290518116606089015290511660808701525160a080870191909152855291939161170e60c084610787565b5082156119ed565b506001600160a01b038116156119e6565b9450945050505073d9e1ce17f2641f24ae83637ab66a2cca9c378b9f60405163e6a4390560e01b81525f51602061418b5f395f51905f5260048201525f51602061412b5f395f51905f5260248201526020816044815f5160206141eb5f395f51905f525afa908115610531575f91611b7f575b5092602060018060a01b03825116910151925f806119dc565b611b98915060203d6020116113df576113d08183610787565b5f611b66565b945095509350505091737a250d5630b4cf539739df2c5dacb4c659f2488d9060405163e6a4390560e01b81525f51602061418b5f395f51905f5260048201525f51602061412b5f395f51905f5260248201526020816044815f51602061416b5f395f51905f525afa908115610531575f91611c30575b50936119cf602060018060a01b0384511693015194905f6119b6565b611c49915060203d6020116113df576113d08183610787565b5f611c14565b90506020813d602011611c79575b81611c6a60209383610787565b8101031261007757515f611984565b3d9150611c5d565b6040516370a0823160e01b81523060048201526020816024815f5160206141ab5f395f51905f525afa908115610531575f91611f83575b508015611918575f905f915f5f925f90611cdf815f5160206141ab5f395f51905f52612a66565b604081015180611ed2575b5050611d03905f5160206141ab5f395f51905f52612c64565b6040810151828111611e27575b5050158015611e16575b8015611e0e575b61179d5760405193611d328561074f565b5f5160206141ab5f395f51905f5285526001600160a01b03928316602080870191825291841660408088019182529390941660608701818152608088018781529451630dfe168160e01b81529295919491939192909181600481885afa8015610531575f5160206141ab5f395f51905f52915f9161177e57506001600160a01b03160361177757858661176f57926040805198516001600160a01b0390811660208b0190815297518116918a019190915290518116606089015290511660808701525160a080870191909152855291939161170e60c084610787565b508215611d21565b506001600160a01b03811615611d1a565b9450945050505073d9e1ce17f2641f24ae83637ab66a2cca9c378b9f60405163e6a4390560e01b81525f5160206141ab5f395f51905f5260048201525f51602061412b5f395f51905f5260248201526020816044815f5160206141eb5f395f51905f525afa908115610531575f91611eb3575b5092602060018060a01b03825116910151925f80611d10565b611ecc915060203d6020116113df576113d08183610787565b5f611e9a565b945095509350505091737a250d5630b4cf539739df2c5dacb4c659f2488d9060405163e6a4390560e01b81525f5160206141ab5f395f51905f5260048201525f51602061412b5f395f51905f5260248201526020816044815f51602061416b5f395f51905f525afa908115610531575f91611f64575b5093611d03602060018060a01b0384511693015194905f611cea565b611f7d915060203d6020116113df576113d08183610787565b5f611f48565b90506020813d602011611fad575b81611f9e60209383610787565b8101031261007757515f611cb8565b3d9150611f91565b6040516370a0823160e01b81523060048201526020816024815f51602061414b5f395f51905f525afa908115610531575f916122b7575b508015611918575f905f915f5f925f90612013815f51602061414b5f395f51905f52612a66565b604081015180612206575b5050612037905f51602061414b5f395f51905f52612c64565b604081015182811161215b575b505015801561214a575b8015612142575b61179d57604051936120668561074f565b5f51602061414b5f395f51905f5285526001600160a01b03928316602080870191825291841660408088019182529390941660608701818152608088018781529451630dfe168160e01b81529295919491939192909181600481885afa8015610531575f51602061414b5f395f51905f52915f9161177e57506001600160a01b03160361177757858661176f57926040805198516001600160a01b0390811660208b0190815297518116918a019190915290518116606089015290511660808701525160a080870191909152855291939161170e60c084610787565b508215612055565b506001600160a01b0381161561204e565b9450945050505073d9e1ce17f2641f24ae83637ab66a2cca9c378b9f60405163e6a4390560e01b81525f51602061414b5f395f51905f5260048201525f51602061412b5f395f51905f5260248201526020816044815f5160206141eb5f395f51905f525afa908115610531575f916121e7575b5092602060018060a01b03825116910151925f80612044565b612200915060203d6020116113df576113d08183610787565b5f6121ce565b945095509350505091737a250d5630b4cf539739df2c5dacb4c659f2488d9060405163e6a4390560e01b81525f51602061414b5f395f51905f5260048201525f51602061412b5f395f51905f5260248201526020816044815f51602061416b5f395f51905f525afa908115610531575f91612298575b5093612037602060018060a01b0384511693015194905f61201e565b6122b1915060203d6020116113df576113d08183610787565b5f61227c565b90506020813d6020116122e1575b816122d260209383610787565b8101031261007757515f611fec565b3d91506122c5565b6040516370a0823160e01b81523060048201526020816024815f5160206141cb5f395f51905f525afa908115610531575f916123d7575b50801580156123d0575b61191857612345905f5160206141cb5f395f51905f52612e4c565b611251576040516370a0823160e01b81523060048201526020816024815f5160206141cb5f395f51905f525afa908115610531575f9161239e575b50801561191857611918905f5160206141cb5f395f51905f52612f22565b90506020813d6020116123c8575b816123b960209383610787565b8101031261007757515f612380565b3d91506123ac565b505f61232a565b90506020813d602011612401575b816123f260209383610787565b8101031261007757515f612320565b3d91506123e5565b6040516370a0823160e01b81523060048201526020816024815f51602061418b5f395f51905f525afa908115610531575f916124f7575b50801580156124f0575b61191857612465905f51602061418b5f395f51905f52612e4c565b611251576040516370a0823160e01b81523060048201526020816024815f51602061418b5f395f51905f525afa908115610531575f916124be575b50801561191857611918905f51602061418b5f395f51905f52612f22565b90506020813d6020116124e8575b816124d960209383610787565b8101031261007757515f6124a0565b3d91506124cc565b505f61244a565b90506020813d602011612521575b8161251260209383610787565b8101031261007757515f612440565b3d9150612505565b6040516370a0823160e01b81523060048201526020816024815f5160206141ab5f395f51905f525afa908115610531575f91612617575b5080158015612610575b61191857612585905f5160206141ab5f395f51905f52612e4c565b611251576040516370a0823160e01b81523060048201526020816024815f5160206141ab5f395f51905f525afa908115610531575f916125de575b50801561191857611918905f5160206141ab5f395f51905f52612f22565b90506020813d602011612608575b816125f960209383610787565b8101031261007757515f6125c0565b3d91506125ec565b505f61256a565b90506020813d602011612641575b8161263260209383610787565b8101031261007757515f612560565b3d9150612625565b6040516370a0823160e01b81523060048201526020816024815f51602061414b5f395f51905f525afa908115610531575f91612737575b5080158015612730575b611918576126a5905f51602061414b5f395f51905f52612e4c565b611251576040516370a0823160e01b81523060048201526020816024815f51602061414b5f395f51905f525afa908115610531575f916126fe575b50801561191857611918905f51602061414b5f395f51905f52612f22565b90506020813d602011612728575b8161271960209383610787565b8101031261007757515f6126e0565b3d915061270c565b505f61268a565b90506020813d602011612761575b8161275260209383610787565b8101031261007757515f612680565b3d9150612745565b805115610c565760200190565b805160011015610c565760400190565b905f51602061412b5f395f51905f526127cf6040516127a6606082610787565b60028152604036602083013780946127bd82612769565b6001600160a01b039091169052612776565b52565b8015612833576001811461282a57600281146128215760038114612818576004811461280f57600514612807576367e7ec0790565b6367e6c19790565b506367e6c18b90565b506367e5490790565b506367e2a60790565b506367e0030790565b506367dd600790565b8015612876576001811461286f5760028114612867576003146128605762278d0090565b62093a8090565b506201518090565b50610e1090565b505f90565b80156128bc57600181146128b657600281146128b057600381146128aa576004146128a557602e90565b602990565b50601490565b50600a90565b50600590565b50600190565b6001600160801b03166001811461290257600581146128b657600a81146128b657601481146128fc576029146128f757600290565b600290565b50600490565b50600790565b6001600160801b0316600181146129be576005811461299b57600a8114612972576014811461295157602914612947571561294257603390565b602e90565b156128a557602e90565b5080156128aa576001811461296c576002146128a557602e90565b50601990565b5080156128b0576001811461299557600281146128aa576003146128a557602e90565b50600f90565b5080156128b657600181146128b057600281146128aa576003146128a557602e90565b5080156128bc57600181146128b657600281146129f157600381146128b057600481146128aa576005146128a557602e90565b50600690565b91909160a060c08201936001600160801b0381511683526001600160801b036020820151166020840152600180831b03604082015116604084015265ffffffffffff606082015116606084015265ffffffffffff608082015116608084015281600180821b0391015116910152565b6040519291612a748461076b565b5f84525f60208501525f6040850152836040519063e6a4390560e01b825260018060a01b03841660048301525f51602061412b5f395f51905f5260248301526020826044815f51602061416b5f395f51905f525afa918215610531575f92612c43575b506001600160a01b03821615612c3c5750612af28382611327565b929093841592838015612c34575b612c24579081612b215f51602061416b5f395f51905f52612b389484613ce1565b9290915f5160206141eb5f395f51905f5291613e96565b6001600160a01b03909116939084158015612c2c575b612c2457605f810290808204605f14901517156107b6576064900492605086029086820460501417156107b65760649004838110612c1c575b508215612c15575f5b600a8110612ba057505050505050565b612bab848483613b5c565b80158015612c0c575b612c0357612bc48185858a613c0f565b60408a01518111612bdc575b50506001905b01612b90565b600192995060405191612bee8361076b565b8783526020830152604082015297905f612bd0565b50600190612bd6565b50848111612bb4565b5050505050565b92505f612b87565b505050505050565b508015612b4e565b508415612b00565b9450505050565b612c5d91925060203d6020116113df576113d08183610787565b905f612ad7565b6040519291612c728461076b565b5f84525f60208501525f6040850152836040519063e6a4390560e01b825260018060a01b03841660048301525f51602061412b5f395f51905f5260248301526020826044815f5160206141eb5f395f51905f525afa918215610531575f92612e2b575b506001600160a01b03821615612c3c5750612cf08382611327565b929093841592838015612e23575b612c24579081612d1f5f5160206141eb5f395f51905f52612d369484613ce1565b9290915f51602061416b5f395f51905f5291613e96565b6001600160a01b03909116939084158015612e1b575b612c2457605f810290808204605f14901517156107b6576064900492605086029086820460501417156107b65760649004838110612e13575b508215612c15575f5b600a8110612d9e57505050505050565b612da9848483613b5c565b80158015612e0a575b612e0157612dc28185858a613c0f565b60408a01518111612dda575b50506001905b01612d8e565b600192995060405191612dec8361076b565b8783526020830152604082015297905f612dce565b50600190612dd4565b50848111612db2565b92505f612d85565b508015612d4c565b508415612cfe565b612e4591925060203d6020116113df576113d08183610787565b905f612cd5565b905f91612e6d737a250d5630b4cf539739df2c5dacb4c659f2488d826110bf565b50612e8d82737a250d5630b4cf539739df2c5dacb4c659f2488d83611139565b15612f1b57612e9b90612786565b90737a250d5630b4cf539739df2c5dacb4c659f2488d3b156100775760405163791ac94760e01b8152915f9183918291612edd914291309190600486016111b3565b038183737a250d5630b4cf539739df2c5dacb4c659f2488d5af19081612f06575b506128bc5790565b612f139192505f90610787565b5f905f612efe565b5050505f90565b905f91612f4373d9e1ce17f2641f24ae83637ab66a2cca9c378b9f826110bf565b50612f638273d9e1ce17f2641f24ae83637ab66a2cca9c378b9f83611139565b15612f1b57612f7190612786565b9073d9e1ce17f2641f24ae83637ab66a2cca9c378b9f3b156100775760405163791ac94760e01b8152915f9183918291612fb3914291309190600486016111b3565b03818373d9e1ce17f2641f24ae83637ab66a2cca9c378b9f5af19081612f0657506128bc5790565b60405163e6a4390560e01b81525f51602061412b5f395f51905f5260048201525f5160206141cb5f395f51905f5260248201526020816044815f51602061416b5f395f51905f525afa908115610531575f9161307a575b506001600160a01b03811615611918575f809160405182602082019163bc25cf7760e01b83523060248201526024815261306d604482610787565b51925af150611918611068565b613093915060203d6020116113df576113d08183610787565b5f613032565b60405163e6a4390560e01b81525f51602061412b5f395f51905f5260048201525f51602061418b5f395f51905f5260248201526020816044815f51602061416b5f395f51905f525afa908115610531575f9161307a57506001600160a01b03811615611918575f809160405182602082019163bc25cf7760e01b83523060248201526024815261306d604482610787565b60405163e6a4390560e01b81525f51602061412b5f395f51905f5260048201525f5160206141ab5f395f51905f5260248201526020816044815f51602061416b5f395f51905f525afa908115610531575f9161307a57506001600160a01b03811615611918575f809160405182602082019163bc25cf7760e01b83523060248201526024815261306d604482610787565b60405163e6a4390560e01b81525f51602061412b5f395f51905f5260048201525f51602061414b5f395f51905f5260248201526020816044815f51602061416b5f395f51905f525afa908115610531575f9161307a57506001600160a01b03811615611918575f809160405182602082019163bc25cf7760e01b83523060248201526024815261306d604482610787565b60405163e6a4390560e01b81525f5160206141cb5f395f51905f5260048201525f51602061418b5f395f51905f5260248201526020816044815f51602061416b5f395f51905f525afa908115610531575f9161307a57506001600160a01b03811615611918575f809160405182602082019163bc25cf7760e01b83523060248201526024815261306d604482610787565b60405163e6a4390560e01b81525f5160206141cb5f395f51905f5260048201525f5160206141ab5f395f51905f5260248201526020816044815f51602061416b5f395f51905f525afa908115610531575f9161307a57506001600160a01b03811615611918575f809160405182602082019163bc25cf7760e01b83523060248201526024815261306d604482610787565b60405163e6a4390560e01b81525f5160206141cb5f395f51905f5260048201525f51602061414b5f395f51905f5260248201526020816044815f51602061416b5f395f51905f525afa908115610531575f9161307a57506001600160a01b03811615611918575f809160405182602082019163bc25cf7760e01b83523060248201526024815261306d604482610787565b60405163e6a4390560e01b81525f51602061418b5f395f51905f5260048201525f5160206141ab5f395f51905f5260248201526020816044815f51602061416b5f395f51905f525afa908115610531575f9161307a57506001600160a01b03811615611918575f809160405182602082019163bc25cf7760e01b83523060248201526024815261306d604482610787565b60405163e6a4390560e01b81525f51602061418b5f395f51905f5260048201525f51602061414b5f395f51905f5260248201526020816044815f51602061416b5f395f51905f525afa908115610531575f9161307a57506001600160a01b03811615611918575f809160405182602082019163bc25cf7760e01b83523060248201526024815261306d604482610787565b60405163e6a4390560e01b81525f5160206141ab5f395f51905f5260048201525f51602061414b5f395f51905f5260248201526020816044815f51602061416b5f395f51905f525afa908115610531575f9161307a57506001600160a01b03811615611918575f809160405182602082019163bc25cf7760e01b83523060248201526024815261306d604482610787565b60405163e6a4390560e01b81525f51602061412b5f395f51905f5260048201525f5160206141cb5f395f51905f5260248201526020816044815f5160206141eb5f395f51905f525afa908115610531575f9161307a57506001600160a01b03811615611918575f809160405182602082019163bc25cf7760e01b83523060248201526024815261306d604482610787565b60405163e6a4390560e01b81525f51602061412b5f395f51905f5260048201525f51602061418b5f395f51905f5260248201526020816044815f5160206141eb5f395f51905f525afa908115610531575f9161307a57506001600160a01b03811615611918575f809160405182602082019163bc25cf7760e01b83523060248201526024815261306d604482610787565b60405163e6a4390560e01b81525f51602061412b5f395f51905f5260048201525f5160206141ab5f395f51905f5260248201526020816044815f5160206141eb5f395f51905f525afa908115610531575f9161307a57506001600160a01b03811615611918575f809160405182602082019163bc25cf7760e01b83523060248201526024815261306d604482610787565b60405163e6a4390560e01b81525f51602061412b5f395f51905f5260048201525f51602061414b5f395f51905f5260248201526020816044815f5160206141eb5f395f51905f525afa908115610531575f9161307a57506001600160a01b03811615611918575f809160405182602082019163bc25cf7760e01b83523060248201526024815261306d604482610787565b60405163e6a4390560e01b81525f5160206141cb5f395f51905f5260048201525f51602061418b5f395f51905f5260248201526020816044815f5160206141eb5f395f51905f525afa908115610531575f9161307a57506001600160a01b03811615611918575f809160405182602082019163bc25cf7760e01b83523060248201526024815261306d604482610787565b60405163e6a4390560e01b81525f5160206141cb5f395f51905f5260048201525f5160206141ab5f395f51905f5260248201526020816044815f5160206141eb5f395f51905f525afa908115610531575f9161307a57506001600160a01b03811615611918575f809160405182602082019163bc25cf7760e01b83523060248201526024815261306d604482610787565b60405163e6a4390560e01b81525f5160206141cb5f395f51905f5260048201525f51602061414b5f395f51905f5260248201526020816044815f5160206141eb5f395f51905f525afa908115610531575f9161307a57506001600160a01b03811615611918575f809160405182602082019163bc25cf7760e01b83523060248201526024815261306d604482610787565b60405163e6a4390560e01b81525f51602061418b5f395f51905f5260048201525f5160206141ab5f395f51905f5260248201526020816044815f5160206141eb5f395f51905f525afa908115610531575f9161307a57506001600160a01b03811615611918575f809160405182602082019163bc25cf7760e01b83523060248201526024815261306d604482610787565b60405163e6a4390560e01b81525f51602061418b5f395f51905f5260048201525f51602061414b5f395f51905f5260248201526020816044815f5160206141eb5f395f51905f525afa908115610531575f9161307a57506001600160a01b03811615611918575f809160405182602082019163bc25cf7760e01b83523060248201526024815261306d604482610787565b60405163e6a4390560e01b81525f5160206141ab5f395f51905f5260048201525f51602061414b5f395f51905f5260248201526020816044815f5160206141eb5f395f51905f525afa908115610531575f9161307a57506001600160a01b03811615611918575f809160405182602082019163bc25cf7760e01b83523060248201526024815261306d604482610787565b908115613c065760018214613bfd5760028214613bf75760038214613bde575060048114613bd65760058114613bce5760068114613bc65760078114613bbe5760088114613bb657600914613bb057505f90565b60011c90565b506003900490565b506005900490565b50600a900490565b506014900490565b506032900490565b9150508060011b90808204600214901517156107b65790565b91505090565b91505060011c90565b91505060021c90565b92919081158015613cd9575b613caa57613c2a81858561404a565b9384158015613ccf575b613cc65784613c4685613c4c93611289565b926107a9565b91613c5883838361404a565b80158015613cbc575b613cb257613c75613c7b92613c8194611289565b936107a9565b92611296565b9181831015613caa57613c9392611425565b81811015613ca457611136916107a9565b50505f90565b505050505f90565b5050505050505f90565b5083811015613c61565b50505050505f90565b5081851015613c34565b508215613c1b565b5f9384939092845b60058110613cf75750505050565b613d00816140b5565b6001600160a01b03858116919081168214613e8c5760405163e6a4390560e01b81526001600160a01b038088166004830152909116602482015290602082806044810103816001600160a01b0389165afa918215610531575f92613e6c575b506001600160a01b0382169081158015613e5a575b613e4f57604051630240bc6b60e21b815290606082600481865afa908115610531576004935f935f93613e27575b5060209060405195868092630dfe168160e01b82525afa8015610531576001600160701b03945f91613e09575b506001600160a01b031603613e0257505b16878111613df5575b50506001905b01613ce9565b909750955060015f613de9565b9050613de0565b613e21915060203d81116113df576113d08183610787565b5f613dcf565b60209450613e4491935060603d811161141e576114098183610787565b509390939290613da2565b505050600190613def565b506001600160a01b0385168214613d74565b613e8591925060203d81116113df576113d08183610787565b905f613d5f565b5050600190613def565b92949291905f5b60058110613eab5750505050565b613eb4816140b5565b6001600160a01b038581169190811682146140405760405163e6a4390560e01b81526001600160a01b038088166004830152909116602482015290602082806044810103816001600160a01b0389165afa918215610531575f92614020575b506001600160a01b038216908115801561400e575b61400357604051630240bc6b60e21b815290606082600481865afa908115610531576004935f935f93613fdb575b5060209060405195868092630dfe168160e01b82525afa8015610531576001600160701b03945f91613fbd575b506001600160a01b031603613fb657505b16878111613fa9575b50506001905b01613e9d565b909750955060015f613f9d565b9050613f94565b613fd5915060203d81116113df576113d08183610787565b5f613f83565b60209450613ff891935060603d811161141e576114098183610787565b509390939290613f56565b505050600190613fa3565b506001600160a01b0385168214613f28565b61403991925060203d81116113df576113d08183610787565b905f613f13565b5050600190613fa3565b9182158080156140ad575b80156140a5575b613caa576103e584029384046103e51417156107b65761407c9083611258565b906103e88102908082046103e814901517156107b6576111369261409f91611289565b9061126b565b50811561405c565b508215614055565b8015614118576001811461410657600281146140f4576003146140e3575f5160206141cb5f395f51905f5290565b5f51602061414b5f395f51905f5290565b505f5160206141ab5f395f51905f5290565b505f51602061418b5f395f51905f5290565b505f51602061412b5f395f51905f529056fe000000000000000000000000c02aaa39b223fe8d0a0e5c4f27ead9083c756cc20000000000000000000000006b175474e89094c44da98b954eedeac495271d0f0000000000000000000000005c69bee701ef814a2b6a3edd4b1652cb9cc5aa6f000000000000000000000000a0b86991c6218b36c1d19d4a2e9eb0ce3606eb48000000000000000000000000dac17f958d2ee523a2206206994597c13d831ec70000000000000000000000002260fac5e5542a773aa44fbcfedf7c193bc2c599000000000000000000000000c0aee478e3658e2610c5f7a4a2e1777ce9e4f2aca26469706673582212202b4d12f5433aa438774a330fb9bc2eea688f58c55fb4a778fd7086551f2c2a2d64736f6c634300081e0033","linkReferences":{}},"methodIdentifiers":{"executeOnOpportunity()":"3c2448ed","executed()":"31a38c89","hypothesisValidated()":"463defd1","profitAmount()":"5ff972cc","profitToken()":"49343624","uniswapV2Call(address,uint256,uint256,bytes)":"10d1e85c"},"id":0}