{"abi":[{"type":"constructor","inputs":[],"stateMutability":"nonpayable"},{"type":"receive","stateMutability":"payable"},{"type":"function","name":"MIM","inputs":[],"outputs":[{"name":"","type":"address","internalType":"address"}],"stateMutability":"view"},{"type":"function","name":"TARGET","inputs":[],"outputs":[{"name":"","type":"address","internalType":"address"}],"stateMutability":"view"},{"type":"function","name":"bentoBoxAddress","inputs":[],"outputs":[{"name":"","type":"address","internalType":"address"}],"stateMutability":"view"},{"type":"function","name":"borrowPathUsed","inputs":[],"outputs":[{"name":"","type":"bool","internalType":"bool"}],"stateMutability":"view"},{"type":"function","name":"borrowedMimAmount","inputs":[],"outputs":[{"name":"","type":"uint256","internalType":"uint256"}],"stateMutability":"view"},{"type":"function","name":"borrowedMimShare","inputs":[],"outputs":[{"name":"","type":"uint256","internalType":"uint256"}],"stateMutability":"view"},{"type":"function","name":"collateralShareAdded","inputs":[],"outputs":[{"name":"","type":"uint256","internalType":"uint256"}],"stateMutability":"view"},{"type":"function","name":"collateralShareRemoved","inputs":[],"outputs":[{"name":"","type":"uint256","internalType":"uint256"}],"stateMutability":"view"},{"type":"function","name":"collateralToken","inputs":[],"outputs":[{"name":"","type":"address","internalType":"address"}],"stateMutability":"view"},{"type":"function","name":"execute","inputs":[],"outputs":[],"stateMutability":"nonpayable"},{"type":"function","name":"executeOnOpportunity","inputs":[],"outputs":[],"stateMutability":"nonpayable"},{"type":"function","name":"exploit","inputs":[],"outputs":[],"stateMutability":"nonpayable"},{"type":"function","name":"flashCollateralAmount","inputs":[],"outputs":[{"name":"","type":"uint256","internalType":"uint256"}],"stateMutability":"view"},{"type":"function","name":"flashCollateralFee","inputs":[],"outputs":[{"name":"","type":"uint256","internalType":"uint256"}],"stateMutability":"view"},{"type":"function","name":"hypothesisRefuted","inputs":[],"outputs":[{"name":"","type":"bool","internalType":"bool"}],"stateMutability":"view"},{"type":"function","name":"hypothesisValidated","inputs":[],"outputs":[{"name":"","type":"bool","internalType":"bool"}],"stateMutability":"view"},{"type":"function","name":"infeasibleReason","inputs":[],"outputs":[{"name":"","type":"bytes32","internalType":"bytes32"}],"stateMutability":"view"},{"type":"function","name":"onFlashLoan","inputs":[{"name":"sender","type":"address","internalType":"address"},{"name":"token","type":"address","internalType":"address"},{"name":"amount","type":"uint256","internalType":"uint256"},{"name":"fee","type":"uint256","internalType":"uint256"},{"name":"","type":"bytes","internalType":"bytes"}],"outputs":[],"stateMutability":"nonpayable"},{"type":"function","name":"postBorrowSolvent","inputs":[],"outputs":[{"name":"","type":"bool","internalType":"bool"}],"stateMutability":"view"},{"type":"function","name":"profitAmount","inputs":[],"outputs":[{"name":"","type":"uint256","internalType":"uint256"}],"stateMutability":"view"},{"type":"function","name":"profitToken","inputs":[],"outputs":[{"name":"","type":"address","internalType":"address"}],"stateMutability":"pure"},{"type":"function","name":"removePathUsed","inputs":[],"outputs":[{"name":"","type":"bool","internalType":"bool"}],"stateMutability":"view"},{"type":"function","name":"run","inputs":[],"outputs":[],"stateMutability":"nonpayable"},{"type":"error","name":"Infeasible","inputs":[{"name":"reason","type":"bytes32","internalType":"bytes32"}]}],"bytecode":{"object":"0x60808060405234601557612309908161001a8239f35b5f80fdfe6080604052600436101561001a575b3615610018575f80fd5b005b5f3560e01c806323e30c8b146101755780633c2448ed146101395780634071084d14610170578063463defd11461016b578063493436241461012a578063495f92f1146101665780635a6e402b146101615780635ff972cc1461015c57806361461954146101395780636208fdd814610157578063626951921461015257806363d9b77014610139578063892d0bd21461014d5780639580955814610148578063a665215714610143578063b2016bd41461013e578063c040622614610139578063cc1f2afa14610134578063d5b5a5571461012f578063daec383d1461012a578063e7cda06d14610125578063e8fbed3f146101205763eb77ff0f0361000e5761043d565b610418565b6103fb565b610268565b6103d6565b6103af565b61020e565b610387565b61036a565b61034d565b610330565b61030b565b6102ee565b6102d1565b6102b4565b61028f565b610243565b610226565b61018f565b6001600160a01b0381160361018b57565b5f80fd5b3461018b5760a036600319011261018b576004356101ac8161017a565b6024356101b88161017a565b6044356064359160843567ffffffffffffffff811161018b573660238201121561018b57806004013567ffffffffffffffff811161018b573691016024011161018b57610018936106d1565b5f91031261018b57565b3461018b575f36600319011261018b57610018611046565b3461018b575f36600319011261018b576020600854604051908152f35b3461018b575f36600319011261018b57602060ff60035460b81c166040519015158152f35b3461018b575f36600319011261018b5760206040515f5160206122945f395f51905f528152f35b3461018b575f36600319011261018b57602060ff60035460c01c166040519015158152f35b3461018b575f36600319011261018b576020600754604051908152f35b3461018b575f36600319011261018b576020600154604051908152f35b3461018b575f36600319011261018b576020600554604051908152f35b3461018b575f36600319011261018b57602060ff60035460a01c166040519015158152f35b3461018b575f36600319011261018b576020600654604051908152f35b3461018b575f36600319011261018b576020600954604051908152f35b3461018b575f36600319011261018b576020600a54604051908152f35b3461018b575f36600319011261018b576003546040516001600160a01b039091168152602090f35b3461018b575f36600319011261018b5760206040515f5160206122b45f395f51905f528152f35b3461018b575f36600319011261018b57602060ff60035460b01c166040519015158152f35b3461018b575f36600319011261018b576020600454604051908152f35b3461018b575f36600319011261018b57602060ff60035460a81c166040519015158152f35b3461018b575f36600319011261018b576002546040516001600160a01b039091168152602090f35b634e487b7160e01b5f52604160045260245ffd5b90601f8019910116810190811067ffffffffffffffff82111761049b57604052565b610465565b906104ae6040519283610479565b565b67ffffffffffffffff811161049b57601f01601f191660200190565b604051906104db602083610479565b5f8252565b604051906104ef604083610479565b60128252716261642d62656e746f2d63616c6c6261636b60701b6020830152565b6040519061051f604083610479565b601082526f3130b216b33630b9b416b9b2b73232b960811b6020830152565b6040519061054d604083610479565b600f82526e3130b216b33630b9b416ba37b5b2b760891b6020830152565b9081602091031261018b575190565b6040513d5f823e3d90fd5b919082604091031261018b576020825192015190565b604051906105aa604083610479565b60158252747a65726f2d636f6c6c61746572616c2d736861726560581b6020830152565b604051906105dd604083610479565b60128252711c995b5bdd994b5c185d1a0b59985a5b195960721b6020830152565b634e487b7160e01b5f52601160045260245ffd5b5f1981019190821161062057565b6105fe565b620f423f1981019190821161062057565b9190820391821161062057565b60405190610652604083610479565b60168252751b9bcb58dbdb1b185d195c985b0b5c995d1d5c9b995960521b6020830152565b620186a0019081620186a01161062057565b9190820180921161062057565b604051906106a5604083610479565b601982527f666c6173682d72657061796d656e742d73686f727466616c6c000000000000006020830152565b6002549293929091906106f4906001600160a01b03165b6001600160a01b031690565b91823303610b0b57306001600160a01b0390911603610b0057600354610722906001600160a01b03166106e8565b6001600160a01b0390911603610af55761073b83600655565b61074482600755565b600354610766906001600160a01b03166002546001600160a01b031690610b16565b600354604051633de222bb60e21b81526001600160a01b039182166004820181905230602483015292909116939190602081604481885afa918215610a125783915f93610acb575b506040805162ae511b60e21b81526001600160a01b0390921660048301523060248301525f5160206122b45f395f51905f52604483015260648201929092525f608482015290818060a481015b03815f895af1908115610a12575f91610aaa575b508015610a9f5761081f81600855565b5f5160206122b45f395f51905f523b1561018b5760405163860ffea160e01b81523060048201526001602482015260448101829052905f82606481835f5160206122b45f395f51905f525af1908115610a12576108899261088592610a85575b50610df8565b1590565b610a7a57600354604051633de222bb60e21b81526001600160a01b03909116600482015230602482015290602082604481885afa918215610a12575f92610a59575b5080821115610a50576108dd91610636565b925b8315610a4557836040916108f561093f96600955565b600354835163097da6d360e41b81526001600160a01b039091166004820152306024820181905260448201525f6064820181905260848201939093529586928391829060a4820190565b03925af1928315610a125761095993610a17575b50610689565b6003546001600160a01b03169061096f826106e8565b6040516370a0823160e01b815230600482015290602090829060249082905afa8015610a125782915f916109e3575b50106109bb576002546104ae92906001600160a01b031690610f43565b6109e06109c6610696565b8051602090910120632e4e013360e11b5f52600452602490565b5ffd5b610a05915060203d602011610a0b575b6109fd8183610479565b81019061056b565b5f61099e565b503d6109f3565b61057a565b610a389060403d604011610a3e575b610a308183610479565b810190610585565b50610953565b503d610a26565b6109e06109c6610643565b50505f926108df565b610a7391925060203d602011610a0b576109fd8183610479565b905f6108cb565b6109e06109c66105ce565b80610a935f610a9993610479565b80610204565b5f61087f565b6109e06109c661059b565b610ac3915060403d604011610a3e57610a308183610479565b90505f61080f565b604091935091610aec6107fb9360203d602011610a0b576109fd8183610479565b939150916107ae565b6109e06109c661053e565b6109e06109c6610510565b6109e06109c66104e0565b604051636eb1769f60e11b81523060048201526001600160a01b0383166024820152602081806044810103816001600160a01b0386165afa5f9181610c3e575b50610c2c575b5060405163095ea7b360e01b602082019081526001600160a01b03841660248301525f6044830181905291829190610ba181606481015b03601f198101835282610479565b519082855af1610baf610ef3565b81610bfd575b5015610bc7576104ae915f19916112a0565b60405162461bcd60e51b815260206004820152600e60248201526d185c1c1c9bdd994b59985a5b195960921b6044820152606490fd5b8051801592508215610c12575b50505f610bb5565b610c259250602080918301019101610f2f565b5f80610c0a565b5f191115610c3a575f610b5c565b5050565b610c5891925060203d602011610a0b576109fd8183610479565b905f610b56565b60405160609190610c708382610479565b6002815291601f1901366020840137565b634e487b7160e01b5f52603260045260245ffd5b805115610ca25760200190565b610c81565b805160011015610ca25760400190565b60405160609190610cc88382610479565b6002815291601f1901825f5b828110610ce057505050565b806060602080938501015201610cd4565b805180835260209291819084018484015e5f828201840152601f01601f1916010190565b9080602083519182815201916020808360051b8301019401925f915b838310610d4057505050505090565b9091929394602080610d5e600193601f198682030187528951610cf1565b97019301930191939290610d31565b6060808252825190820181905260808201959492602001905f5b818110610ddf5750505080850360208201526020808451968781520193015f955b808710610dc7575050610dc49394506040818403910152610d15565b90565b90936020806001928751815201950196019590610da8565b825160ff16885260209788019790920191600101610d87565b6040610e02610c5f565b610e14610e0e82610c95565b60049052565b610e26610e2082610ca7565b60089052565b610e2e610c5f565b90610b93610e60610e46610e40610cb7565b96611327565b855160208101919091523060408201529182906060820190565b610e6985610c95565b52610e7384610c95565b50610e7c6104cc565b610e8585610ca7565b52610e8f84610ca7565b50610ead8351948593849363195bcf5960e21b855260048501610d6d565b03815f5f5160206122b45f395f51905f525af19081610ed5575b50610ed0575f90565b600190565b610eed9060403d604011610a3e57610a308183610479565b50610ec7565b3d15610f1d573d90610f04826104b0565b91610f126040519384610479565b82523d5f602084013e565b606090565b5190811515820361018b57565b9081602091031261018b57610dc490610f22565b60405163a9059cbb60e01b602082019081526001600160a01b03909316602482015260448101939093525f928392908390610f818160648101610b93565b51925af1610f8d610ef3565b81610fd2575b5015610f9b57565b60405162461bcd60e51b815260206004820152600f60248201526e1d1c985b9cd9995c8b59985a5b1959608a1b6044820152606490fd5b8051801592508215610fe7575b50505f610f93565b610ffa9250602080918301019101610f2f565b5f80610fdf565b9081602091031261018b5751610dc48161017a565b60405190611025604083610479565b6012825271189bdc9c9bddcb5c185d1a0b59985a5b195960721b6020830152565b5f5460ff166104ae5761105f600160ff195f5416175f55565b604051636b2ace8760e01b81526020816004815f5160206122b45f395f51905f525afa8015610a12576110b6915f91611281575b5060018060a01b03166bffffffffffffffffffffffff60a01b6002541617600255565b60405163d8dfeb4560e01b81526020816004815f5160206122b45f395f51905f525afa8015610a125761110d915f91611252575b5060018060a01b03166bffffffffffffffffffffffff60a01b6003541617600355565b611115611494565b60035460a01c60ff16611245575b6040516370a0823160e01b81523060048201526020816024815f5160206122945f395f51905f525afa8015610a1257611163915f91611226575b50600155565b61119e6003546111778160ff9060a01c1690565b9081611211575b506003805460ff60b81b191691151560b81b60ff60b81b16919091179055565b6111d36111b461088560035460ff9060a01c1690565b6003805460ff60c01b191691151560c01b60ff60c01b16919091179055565b6003546111e49060a01c60ff161590565b80611207575b6111f057565b6104ae6111fb611016565b60208151910120600a55565b50600a54156111ea565b611220915060b01c60ff161590565b5f61117e565b61123f915060203d602011610a0b576109fd8183610479565b5f61115d565b61124d61177d565b611123565b611274915060203d60201161127a575b61126c8183610479565b810190611001565b5f6110ea565b503d611262565b61129a915060203d60201161127a5761126c8183610479565b5f611093565b60405163095ea7b360e01b602082019081526001600160a01b03909316602482015260448101939093525f9283929083906112de8160648101610b93565b51925af16112ea610ef3565b816112f8575b5015610bc757565b805180159250821561130d575b50505f6112f0565b6113209250602080918301019101610f2f565b5f80611305565b6001600160ff1b0381116113385790565b60405162461bcd60e51b815260206004820152600c60248201526b696e742d6f766572666c6f7760a01b6044820152606490fd5b6040519061137b604083610479565b601a82527f6e6f2d6c69717569646974792d6f722d626f72726f772d6361700000000000006020830152565b9060638202918083046063149015171561062057565b90605f820291808304605f149015171561062057565b90605a820291808304605a149015171561062057565b90620186a0820291808304620186a0149015171561062057565b8181029291811591840414171561062057565b8115611420570490565b634e487b7160e01b5f52601260045260245ffd5b906008811015610ca25760051b0190565b919082604091031261018b57602061145c83610f22565b92015190565b60405190611471604083610479565b6014825273189bdc9c9bddcb58dbdbdacb5c995d995c9d195960621b6020830152565b6114aa5f5160206122b45f395f51905f52611a05565b8015611676576115216114be6101006104a0565b918083526114d56114ce826113a7565b6064900490565b60208401526114e66114ce826113bd565b60408401526114f76114ce826113d3565b60608401526115068160011c90565b60808401526115158160021c90565b60a0840152600a900490565b60c0820152600160e08201525f5b600881106115445750506104ae6111fb611462565b61154e8183611434565b51801561166d5761155e90611d8b565b61156c576001905b0161152f565b50506003805460ff60a01b1916600160a01b179055604080516302ce728f60e01b815290816004815f5f5160206122b45f395f51905f525af1611640575b506040516338b51ce160e01b81523060048201526020816024815f5160206122b45f395f51905f525afa5f9181611610575b506115f157506003805460ff60b01b19169055565b6003805460ff60b01b191691151560b01b60ff60b01b16919091179055565b61163291925060203d8111611639575b61162a8183610479565b810190610f2f565b905f6115dc565b503d611620565b6116609060403d8111611666575b6116588183610479565b810190611445565b506115aa565b503d61164e565b50600190611566565b506104ae6111fb61136c565b6001600160a01b03918216815291811660208301529091166040820152606081019190915260a060808201819052610dc492910190610cf1565b5f9060033d116116c857565b905060045f803e5f5160e01c90565b5f60443d10610dc4576040513d600319016004823e8051913d602484011167ffffffffffffffff841117611745578282019283519167ffffffffffffffff831161173d573d8401600319018584016020011161173d5750610dc492910160200190610479565b949350505050565b92915050565b6040519061175a604083610479565b60148252731c995b5bdd994b5c185d1a0b5c995d995c9d195960621b6020830152565b60016117d8602061179b6106e86106e860025460018060a01b031690565b600354604051630acc462360e31b81526001600160a01b039091166004820152600160248201819052604482015292839190829081906064820190565b03915afa5f918161198f575b50611981575b5061181e6117f96101006104a0565b9180835261180681612204565b602084015261181481612226565b604084015261223d565b6060820152620f4240608082015264e8d4a5100060a0820152670de0b6b3a764000060c082015269d3c21bcecceda100000060e08201525f5b60088110611863575050565b61186d8183611434565b5180156119785760025461188b906106e8906001600160a01b031681565b6003546001600160a01b0316906118a06104cc565b90803b1561018b576118ce935f80946040519687958694859363f1676d3760e01b8552303060048701611682565b03925af19081611964575b5061194d57600190816118ea6116bc565b6308c379a01461192e575b611900575b01611857565b61191061190b610ef3565b612255565b8061192657506119216111fb61174b565b6118fa565b600a556118fa565b6119366116d7565b156118f557505f6119486111fb61174b565b6118f5565b50506003805460ff60a81b1916600160a81b179055565b80610a935f61197293610479565b5f6118d9565b506001906118fa565b80156117ea5790505f6117ea565b6119a991925060203d602011610a0b576109fd8183610479565b905f6117e4565b51906001600160801b038216820361018b57565b919082604091031261018b57610dc460206119de846119b0565b93016119b0565b906001600160801b03809116911603906001600160801b03821161062057565b600254611a1c906106e8906001600160a01b031681565b604051633de222bb60e21b81525f5160206122945f395f51905f5260048201525f5160206122b45f395f51905f526024820152909190602081604481865afa8015610a1257611aab936020925f92611d6c575b506040518080968194630acc462360e31b83526004830160405f9193929360608101945f5160206122945f395f51905f52825260208201520152565b03915afa918215610a12575f92611d4b575b508115611c50576040805163e551d11d60e01b8152926001600160a01b0392909216919083600481855afa8015610a12575f935f91611d26575b506040805163020a17bd60e61b81529081600481875afa948515610a12575f915f96611cf3575b506040516324720b1f60e11b815230600482015290602082602481895afa918215610a12575f92611cd2575b506001600160801b03831692836001600160801b038316115f14611cc157611b7d611b89916001600160801b03936119e5565b6001600160801b031690565b935b169080821115611cb857611b9e91610636565b905b82158015611cb0575b611ca657602060049560405196878092632ae8093d60e21b82525afa948515610a12575f95611c70575b5090611bff92916001600160801b03611c059697169081158015611c68575b15611c5657505090612281565b90612281565b908115611c5057611c21611c1b611c27936113e9565b91610677565b90611416565b620f4240811115611c3b57610dc490610625565b9060018211611c4657565b90610dc490610612565b50505f90565b611c6390611bff93611403565b611416565b508015611bf2565b611c059550906001600160801b03611c9b611bff95949360203d602011610a0b576109fd8183610479565b965050909192611bd3565b5050505050505f90565b508115611ba9565b50505f90611ba0565b50506001600160801b035f93611b8b565b611cec91925060203d602011610a0b576109fd8183610479565b905f611b4a565b909550611d18915060403d604011611d1f575b611d108183610479565b8101906119c4565b945f611b1e565b503d611d06565b9050611d4291935060403d604011611d1f57611d108183610479565b9290925f611af7565b611d6591925060203d602011610a0b576109fd8183610479565b905f611abd565b611d84919250833d8511610a0b576109fd8183610479565b905f611a6f565b600254611da2906106e8906001600160a01b031681565b604051633de222bb60e21b81525f5160206122945f395f51905f526004820152306024820152602081604481855afa908115610a12575f916121e5575b506040516370a0823160e01b8152306004820152926020846024815f5160206122945f395f51905f525afa938415610a12575f946121c4575b506040611e23610c5f565b611e35611e2f82610c95565b60059052565b611e41610e2082610ca7565b611e49610c5f565b90610b93611e5b610e46610e40610cb7565b611e6485610c95565b52611e6e84610c95565b50611e776104cc565b611e8085610ca7565b52611e8a84610ca7565b50611ea88351948593849363195bcf5960e21b855260048501610d6d565b03815f5f5160206122b45f395f51905f525af190816121a6575b50611ece575050505f90565b604051633de222bb60e21b81525f5160206122945f395f51905f52600482015230602482015290602082604481865afa918215610a12575f92612185575b508082111561217c57611f1e91610636565b905b811561207557611f2f82600555565b604051630acc462360e31b81525f5160206122945f395f51905f526004820152602481018390525f604482015290602082606481845afa908115610a12575f93611f86611fcf936040958791612056575b50600455565b835163097da6d360e41b81525f5160206122945f395f51905f526004820152306024820181905260448201525f60648201526084810191909152938492839190829060a4820190565b03925af18015610a1257612038575b505b6040516370a0823160e01b81523060048201526020816024815f5160206122945f395f51905f525afa908115610a12575f9161201b57501190565b612034915060203d602011610a0b576109fd8183610479565b1190565b6120509060403d604011610a3e57610a308183610479565b50611fde565b61206f915060203d602011610a0b576109fd8183610479565b5f611f80565b6040516370a0823160e01b815230600482015291506020826024815f5160206122945f395f51905f525afa908115610a125783925f9261215b575b508282116120c1575b505050611fe0565b6120d86120d361211794602094610636565b600455565b600454906040518080958194636d289ce560e11b83526004830160405f9193929360608101945f5160206122945f395f51905f52825260208201520152565b03915afa5f918161213a575b50612131575b8082916120b9565b6005555f612129565b61215491925060203d602011610a0b576109fd8183610479565b905f612123565b61217591925060203d602011610a0b576109fd8183610479565b905f6120b0565b50505f90611f20565b61219f91925060203d602011610a0b576109fd8183610479565b905f611f0c565b6121be9060403d604011610a3e57610a308183610479565b50611ec2565b6121de91945060203d602011610a0b576109fd8183610479565b925f611e18565b6121fe915060203d602011610a0b576109fd8183610479565b5f611ddf565b801561222157600a810290600a82040361221b5790565b505f1990565b505f90565b8015612221576064810290606482040361221b5790565b8015612221576103e8818102919082040361221b5790565b60448151106122215760208101516001600160e01b0319166351b1fecd60e11b01612221576044015190565b908082101561228e575090565b90509056fe00000000000000000000000099d8a9c45b2eca8864373a26d1459e3dff1e17f30000000000000000000000006bcd99d6009ac1666b58cb68fb4a50385945cda2a264697066735822122095ab36d79737bbec930cf9bc94272db20c2f806d1650dc5540e04d42e25b436964736f6c634300081e0033","linkReferences":{}},"methodIdentifiers":{"MIM()":"daec383d","TARGET()":"cc1f2afa","bentoBoxAddress()":"eb77ff0f","borrowPathUsed()":"62695192","borrowedMimAmount()":"e7cda06d","borrowedMimShare()":"6208fdd8","collateralShareAdded()":"4071084d","collateralShareRemoved()":"95809558","collateralToken()":"b2016bd4","execute()":"61461954","executeOnOpportunity()":"3c2448ed","exploit()":"63d9b770","flashCollateralAmount()":"892d0bd2","flashCollateralFee()":"5a6e402b","hypothesisRefuted()":"495f92f1","hypothesisValidated()":"463defd1","infeasibleReason()":"a6652157","onFlashLoan(address,address,uint256,uint256,bytes)":"23e30c8b","postBorrowSolvent()":"d5b5a557","profitAmount()":"5ff972cc","profitToken()":"49343624","removePathUsed()":"e8fbed3f","run()":"c0406226"},"id":0}