{"abi":[{"type":"constructor","inputs":[],"stateMutability":"nonpayable"},{"type":"function","name":"TELLER","inputs":[],"outputs":[{"name":"","type":"address","internalType":"address"}],"stateMutability":"view"},{"type":"function","name":"executeOnOpportunity","inputs":[],"outputs":[],"stateMutability":"nonpayable"},{"type":"function","name":"profitAmount","inputs":[],"outputs":[{"name":"","type":"uint256","internalType":"uint256"}],"stateMutability":"view"},{"type":"function","name":"profitToken","inputs":[],"outputs":[{"name":"","type":"address","internalType":"address"}],"stateMutability":"view"}],"bytecode":{"object":"0x6080604052348015600e575f5ffd5b506110a28061001c5f395ff3fe608060405234801561000f575f5ffd5b506004361061004a575f3560e01c80633c2448ed1461004e57806349343624146100585780635ff972cc14610076578063d4a6d75714610094575b5f5ffd5b6100566100b2565b005b610060610315565b60405161006d9190610ac7565b60405180910390f35b61007e61033c565b60405161008b9190610af8565b60405180910390f35b61009c610345565b6040516100a99190610ac7565b60405180910390f35b60025f9054906101000a900460ff1661031357600160025f6101000a81548160ff0219169083151502179055505f73ffffffffffffffffffffffffffffffffffffffff16600260019054906101000a900473ffffffffffffffffffffffffffffffffffffffff1673ffffffffffffffffffffffffffffffffffffffff160361019b5760405161014090610a7b565b604051809103905ff080158015610159573d5f5f3e3d5ffd5b50600260016101000a81548173ffffffffffffffffffffffffffffffffffffffff021916908373ffffffffffffffffffffffffffffffffffffffff1602179055505b5f6101a461035c565b90505f5f90505b81518110156102d7575f8282815181106101c8576101c7610b11565b5b602002602001015190505f5f6101f183727fe7c498a2cf30971ad8f2cbc36bd14ac511566106c4565b9150915080158061020157505f82145b1561020e575050506102cc565b600260019054906101000a900473ffffffffffffffffffffffffffffffffffffffff1673ffffffffffffffffffffffffffffffffffffffff1663bdb2321f846040518263ffffffff1660e01b81526004016102699190610ac7565b5f604051808303815f87803b158015610280575f5ffd5b505af1158015610292573d5f5f3e3d5ffd5b505050506102a083836107e8565b156102af575050505050610313565b6102b9838361093f565b156102c8575050505050610313565b5050505b8060010190506101ab565b506040517f08c379a000000000000000000000000000000000000000000000000000000000815260040161030a90610b98565b60405180910390fd5b565b5f5f5f9054906101000a900473ffffffffffffffffffffffffffffffffffffffff16905090565b5f600154905090565b727fe7c498a2cf30971ad8f2cbc36bd14ac5115681565b6060600867ffffffffffffffff81111561037957610378610bb6565b5b6040519080825280602002602001820160405280156103a75781602001602082028036833780820191505090505b5090507364aa3364f17a4d01c6f1751fd97c2bd3d7e7f1d5815f815181106103d2576103d1610b11565b5b602002602001019073ffffffffffffffffffffffffffffffffffffffff16908173ffffffffffffffffffffffffffffffffffffffff168152505073c02aaa39b223fe8d0a0e5c4f27ead9083c756cc28160018151811061043557610434610b11565b5b602002602001019073ffffffffffffffffffffffffffffffffffffffff16908173ffffffffffffffffffffffffffffffffffffffff168152505073a0b86991c6218b36c1d19d4a2e9eb0ce3606eb488160028151811061049857610497610b11565b5b602002602001019073ffffffffffffffffffffffffffffffffffffffff16908173ffffffffffffffffffffffffffffffffffffffff168152505073dac17f958d2ee523a2206206994597c13d831ec7816003815181106104fb576104fa610b11565b5b602002602001019073ffffffffffffffffffffffffffffffffffffffff16908173ffffffffffffffffffffffffffffffffffffffff1681525050736b175474e89094c44da98b954eedeac495271d0f8160048151811061055e5761055d610b11565b5b602002602001019073ffffffffffffffffffffffffffffffffffffffff16908173ffffffffffffffffffffffffffffffffffffffff1681525050735f98805a4e8be255a32880fdec7f6728c6568ba0816005815181106105c1576105c0610b11565b5b602002602001019073ffffffffffffffffffffffffffffffffffffffff16908173ffffffffffffffffffffffffffffffffffffffff168152505073853d955acef822db058eb8505911ed77f175b99e8160068151811061062457610623610b11565b5b602002602001019073ffffffffffffffffffffffffffffffffffffffff16908173ffffffffffffffffffffffffffffffffffffffff168152505073ae7ab96520de3a18e5e111b5eaab095312d7fe848160078151811061068757610686610b11565b5b602002602001019073ffffffffffffffffffffffffffffffffffffffff16908173ffffffffffffffffffffffffffffffffffffffff168152505090565b5f5f5f5f8573ffffffffffffffffffffffffffffffffffffffff166370a0823160e01b866040516024016106f89190610ac7565b604051602081830303815290604052907bffffffffffffffffffffffffffffffffffffffffffffffffffffffff19166020820180517bffffffffffffffffffffffffffffffffffffffffffffffffffffffff83818316178352505050506040516107629190610c35565b5f60405180830381855afa9150503d805f811461079a576040519150601f19603f3d011682016040523d82523d5f602084013e61079f565b606091505b50915091508115806107b2575060208151105b156107c4575f5f9350935050506107e1565b808060200190518101906107d89190610c79565b60019350935050505b9250929050565b5f5f5f6107f585306106c4565b9150915080158061080557505f84145b15610814575f92505050610939565b727fe7c498a2cf30971ad8f2cbc36bd14ac5115673ffffffffffffffffffffffffffffffffffffffff16631e9a6950600260019054906101000a900473ffffffffffffffffffffffffffffffffffffffff16866040518363ffffffff1660e01b8152600401610884929190610ca4565b5f604051808303815f87803b15801561089b575f5ffd5b505af19250505080156108ac575060015b15610933575f5f6108bd87306106c4565b915091508080156108cd57508382115b1561093057865f5f6101000a81548173ffffffffffffffffffffffffffffffffffffffff021916908373ffffffffffffffffffffffffffffffffffffffff160217905550838261091d9190610cf8565b6001819055506001945050505050610939565b50505b5f925050505b92915050565b5f5f60405180610180016040528060028561095a9190610d58565b815260200160038561096c9190610d58565b815260200160048561097e9190610d58565b81526020016008856109909190610d58565b81526020016010856109a29190610d58565b81526020016020856109b49190610d58565b815260200169d3c21bcecceda10000008152602001683635c9adc5dea000008152602001670de0b6b3a7640000815260200166038d7ea4c68000815260200164e8d4a510008152602001600181525090505f5f90505b600c811015610a6f575f8282600c8110610a2757610a26610b11565b5b602002015190505f811480610a3c5750848110155b15610a475750610a64565b610a5186826107e8565b15610a625760019350505050610a75565b505b806001019050610a0a565b505f9150505b92915050565b6102e480610d8983390190565b5f73ffffffffffffffffffffffffffffffffffffffff82169050919050565b5f610ab182610a88565b9050919050565b610ac181610aa7565b82525050565b5f602082019050610ada5f830184610ab8565b92915050565b5f819050919050565b610af281610ae0565b82525050565b5f602082019050610b0b5f830184610ae9565b92915050565b7f4e487b71000000000000000000000000000000000000000000000000000000005f52603260045260245ffd5b5f82825260208201905092915050565b7f4e4f5f50524f4649545f5245414c495a454400000000000000000000000000005f82015250565b5f610b82601283610b3e565b9150610b8d82610b4e565b602082019050919050565b5f6020820190508181035f830152610baf81610b76565b9050919050565b7f4e487b71000000000000000000000000000000000000000000000000000000005f52604160045260245ffd5b5f81519050919050565b5f81905092915050565b8281835e5f83830152505050565b5f610c0f82610be3565b610c198185610bed565b9350610c29818560208601610bf7565b80840191505092915050565b5f610c408284610c05565b915081905092915050565b5f5ffd5b610c5881610ae0565b8114610c62575f5ffd5b50565b5f81519050610c7381610c4f565b92915050565b5f60208284031215610c8e57610c8d610c4b565b5b5f610c9b84828501610c65565b91505092915050565b5f604082019050610cb75f830185610ab8565b610cc46020830184610ae9565b9392505050565b7f4e487b71000000000000000000000000000000000000000000000000000000005f52601160045260245ffd5b5f610d0282610ae0565b9150610d0d83610ae0565b9250828203905081811115610d2557610d24610ccb565b5b92915050565b7f4e487b71000000000000000000000000000000000000000000000000000000005f52601260045260245ffd5b5f610d6282610ae0565b9150610d6d83610ae0565b925082610d7d57610d7c610d2b565b5b82820490509291505056fe6080604052348015600e575f5ffd5b506102c88061001c5f395ff3fe608060405234801561000f575f5ffd5b506004361061004a575f3560e01c80636f307dc31461004e5780639dc29fac1461006c578063bdb2321f14610088578063e184c9be146100a4575b5f5ffd5b6100566100c2565b6040516100639190610176565b60405180910390f35b610086600480360381019061008191906101f0565b6100e9565b005b6100a2600480360381019061009d919061022e565b6100ed565b005b6100ac61012f565b6040516100b99190610279565b60405180910390f35b5f5f5f9054906101000a900473ffffffffffffffffffffffffffffffffffffffff16905090565b5050565b805f5f6101000a81548173ffffffffffffffffffffffffffffffffffffffff021916908373ffffffffffffffffffffffffffffffffffffffff16021790555050565b5f6001905090565b5f73ffffffffffffffffffffffffffffffffffffffff82169050919050565b5f61016082610137565b9050919050565b61017081610156565b82525050565b5f6020820190506101895f830184610167565b92915050565b5f5ffd5b61019c81610156565b81146101a6575f5ffd5b50565b5f813590506101b781610193565b92915050565b5f819050919050565b6101cf816101bd565b81146101d9575f5ffd5b50565b5f813590506101ea816101c6565b92915050565b5f5f604083850312156102065761020561018f565b5b5f610213858286016101a9565b9250506020610224858286016101dc565b9150509250929050565b5f602082840312156102435761024261018f565b5b5f610250848285016101a9565b91505092915050565b5f65ffffffffffff82169050919050565b61027381610259565b82525050565b5f60208201905061028c5f83018461026a565b9291505056fea2646970667358221220b07a26d1211bcb79e10a15114b5e073d8d64bcda5d93008c7f365b97375eaa8b64736f6c634300081e0033a264697066735822122043c342e9070f5df00e91f3f213b33ae25d1a400674dd3994c5da826537dcb8ea64736f6c634300081e0033","linkReferences":{}},"methodIdentifiers":{"TELLER()":"d4a6d757","executeOnOpportunity()":"3c2448ed","profitAmount()":"5ff972cc","profitToken()":"49343624"},"id":0}