{"abi":[{"type":"constructor","inputs":[],"stateMutability":"nonpayable"},{"type":"function","name":"burn","inputs":[{"name":"","type":"address","internalType":"address"},{"name":"","type":"uint256","internalType":"uint256"}],"outputs":[],"stateMutability":"pure"},{"type":"function","name":"expiry","inputs":[],"outputs":[{"name":"","type":"uint48","internalType":"uint48"}],"stateMutability":"pure"},{"type":"function","name":"setUnderlying","inputs":[{"name":"underlying_","type":"address","internalType":"address"}],"outputs":[],"stateMutability":"nonpayable"},{"type":"function","name":"underlying","inputs":[],"outputs":[{"name":"","type":"address","internalType":"address"}],"stateMutability":"view"}],"bytecode":{"object":"0x6080604052348015600e575f5ffd5b506102c88061001c5f395ff3fe608060405234801561000f575f5ffd5b506004361061004a575f3560e01c80636f307dc31461004e5780639dc29fac1461006c578063bdb2321f14610088578063e184c9be146100a4575b5f5ffd5b6100566100c2565b6040516100639190610176565b60405180910390f35b610086600480360381019061008191906101f0565b6100e9565b005b6100a2600480360381019061009d919061022e565b6100ed565b005b6100ac61012f565b6040516100b99190610279565b60405180910390f35b5f5f5f9054906101000a900473ffffffffffffffffffffffffffffffffffffffff16905090565b5050565b805f5f6101000a81548173ffffffffffffffffffffffffffffffffffffffff021916908373ffffffffffffffffffffffffffffffffffffffff16021790555050565b5f6001905090565b5f73ffffffffffffffffffffffffffffffffffffffff82169050919050565b5f61016082610137565b9050919050565b61017081610156565b82525050565b5f6020820190506101895f830184610167565b92915050565b5f5ffd5b61019c81610156565b81146101a6575f5ffd5b50565b5f813590506101b781610193565b92915050565b5f819050919050565b6101cf816101bd565b81146101d9575f5ffd5b50565b5f813590506101ea816101c6565b92915050565b5f5f604083850312156102065761020561018f565b5b5f610213858286016101a9565b9250506020610224858286016101dc565b9150509250929050565b5f602082840312156102435761024261018f565b5b5f610250848285016101a9565b91505092915050565b5f65ffffffffffff82169050919050565b61027381610259565b82525050565b5f60208201905061028c5f83018461026a565b9291505056fea2646970667358221220b07a26d1211bcb79e10a15114b5e073d8d64bcda5d93008c7f365b97375eaa8b64736f6c634300081e0033","linkReferences":{}},"methodIdentifiers":{"burn(address,uint256)":"9dc29fac","expiry()":"e184c9be","setUnderlying(address)":"bdb2321f","underlying()":"6f307dc3"},"id":0}