{"abi":[{"type":"constructor","inputs":[],"stateMutability":"nonpayable"},{"type":"receive","stateMutability":"payable"},{"type":"function","name":"MIM","inputs":[],"outputs":[{"name":"","type":"address","internalType":"address"}],"stateMutability":"view"},{"type":"function","name":"SUSHI_ROUTER","inputs":[],"outputs":[{"name":"","type":"address","internalType":"address"}],"stateMutability":"view"},{"type":"function","name":"TARGET","inputs":[],"outputs":[{"name":"","type":"address","internalType":"address"}],"stateMutability":"view"},{"type":"function","name":"UNISWAP_V2_ROUTER","inputs":[],"outputs":[{"name":"","type":"address","internalType":"address"}],"stateMutability":"view"},{"type":"function","name":"WETH","inputs":[],"outputs":[{"name":"","type":"address","internalType":"address"}],"stateMutability":"view"},{"type":"function","name":"addCollateralStageReached","inputs":[],"outputs":[{"name":"","type":"bool","internalType":"bool"}],"stateMutability":"view"},{"type":"function","name":"bentoBoxAddress","inputs":[],"outputs":[{"name":"","type":"address","internalType":"address"}],"stateMutability":"view"},{"type":"function","name":"borrowStageReached","inputs":[],"outputs":[{"name":"","type":"bool","internalType":"bool"}],"stateMutability":"view"},{"type":"function","name":"borrowedMimAmount","inputs":[],"outputs":[{"name":"","type":"uint256","internalType":"uint256"}],"stateMutability":"view"},{"type":"function","name":"borrowedMimShare","inputs":[],"outputs":[{"name":"","type":"uint256","internalType":"uint256"}],"stateMutability":"view"},{"type":"function","name":"cachedRateAfter","inputs":[],"outputs":[{"name":"","type":"uint256","internalType":"uint256"}],"stateMutability":"view"},{"type":"function","name":"cachedRateBefore","inputs":[],"outputs":[{"name":"","type":"uint256","internalType":"uint256"}],"stateMutability":"view"},{"type":"function","name":"collateralSeedAmount","inputs":[],"outputs":[{"name":"","type":"uint256","internalType":"uint256"}],"stateMutability":"view"},{"type":"function","name":"collateralShareAdded","inputs":[],"outputs":[{"name":"","type":"uint256","internalType":"uint256"}],"stateMutability":"view"},{"type":"function","name":"collateralToken","inputs":[],"outputs":[{"name":"","type":"address","internalType":"address"}],"stateMutability":"view"},{"type":"function","name":"directOracleRate","inputs":[],"outputs":[{"name":"","type":"uint256","internalType":"uint256"}],"stateMutability":"view"},{"type":"function","name":"directOracleSuccess","inputs":[],"outputs":[{"name":"","type":"bool","internalType":"bool"}],"stateMutability":"view"},{"type":"function","name":"execute","inputs":[],"outputs":[{"name":"","type":"uint256","internalType":"uint256"}],"stateMutability":"nonpayable"},{"type":"function","name":"executeAttempt","inputs":[],"outputs":[{"name":"","type":"uint256","internalType":"uint256"}],"stateMutability":"nonpayable"},{"type":"function","name":"executeOnOpportunity","inputs":[],"outputs":[{"name":"","type":"uint256","internalType":"uint256"}],"stateMutability":"nonpayable"},{"type":"function","name":"exploit","inputs":[],"outputs":[{"name":"","type":"uint256","internalType":"uint256"}],"stateMutability":"nonpayable"},{"type":"function","name":"extractableMimAmount","inputs":[],"outputs":[{"name":"","type":"uint256","internalType":"uint256"}],"stateMutability":"view"},{"type":"function","name":"feeTopUpSpentMim","inputs":[],"outputs":[{"name":"","type":"uint256","internalType":"uint256"}],"stateMutability":"view"},{"type":"function","name":"flashCollateralAmount","inputs":[],"outputs":[{"name":"","type":"uint256","internalType":"uint256"}],"stateMutability":"view"},{"type":"function","name":"flashCollateralFee","inputs":[],"outputs":[{"name":"","type":"uint256","internalType":"uint256"}],"stateMutability":"view"},{"type":"function","name":"hypothesisRefuted","inputs":[],"outputs":[{"name":"","type":"bool","internalType":"bool"}],"stateMutability":"view"},{"type":"function","name":"hypothesisValidated","inputs":[],"outputs":[{"name":"","type":"bool","internalType":"bool"}],"stateMutability":"view"},{"type":"function","name":"infeasibleReason","inputs":[],"outputs":[{"name":"","type":"bytes32","internalType":"bytes32"}],"stateMutability":"view"},{"type":"function","name":"liquidateStageReached","inputs":[],"outputs":[{"name":"","type":"bool","internalType":"bool"}],"stateMutability":"view"},{"type":"function","name":"liquidationBlocked","inputs":[],"outputs":[{"name":"","type":"bool","internalType":"bool"}],"stateMutability":"view"},{"type":"function","name":"liveTargetCachedZero","inputs":[],"outputs":[{"name":"","type":"bool","internalType":"bool"}],"stateMutability":"view"},{"type":"function","name":"liveTargetInitPathOnly","inputs":[],"outputs":[{"name":"","type":"bool","internalType":"bool"}],"stateMutability":"view"},{"type":"function","name":"liveTargetUpdateZeroWorked","inputs":[],"outputs":[{"name":"","type":"bool","internalType":"bool"}],"stateMutability":"view"},{"type":"function","name":"liveTargetZeroRateMissing","inputs":[],"outputs":[{"name":"","type":"bool","internalType":"bool"}],"stateMutability":"view"},{"type":"function","name":"liveUpdateRate","inputs":[],"outputs":[{"name":"","type":"uint256","internalType":"uint256"}],"stateMutability":"view"},{"type":"function","name":"onFlashLoan","inputs":[{"name":"sender","type":"address","internalType":"address"},{"name":"token","type":"address","internalType":"address"},{"name":"amount","type":"uint256","internalType":"uint256"},{"name":"fee","type":"uint256","internalType":"uint256"},{"name":"data","type":"bytes","internalType":"bytes"}],"outputs":[],"stateMutability":"nonpayable"},{"type":"function","name":"oracleAddress","inputs":[],"outputs":[{"name":"","type":"address","internalType":"address"}],"stateMutability":"view"},{"type":"function","name":"oracleDataBlob","inputs":[],"outputs":[{"name":"","type":"bytes","internalType":"bytes"}],"stateMutability":"view"},{"type":"function","name":"oracleStageReached","inputs":[],"outputs":[{"name":"","type":"bool","internalType":"bool"}],"stateMutability":"view"},{"type":"function","name":"path0OracleReturnedTrueZeroOrTargetCachedZero","inputs":[],"outputs":[{"name":"","type":"bool","internalType":"bool"}],"stateMutability":"view"},{"type":"function","name":"path1UpdateExchangeRateCachedZero","inputs":[],"outputs":[{"name":"","type":"bool","internalType":"bool"}],"stateMutability":"view"},{"type":"function","name":"path2DustCollateralAddedThenBorrowed","inputs":[],"outputs":[{"name":"","type":"bool","internalType":"bool"}],"stateMutability":"view"},{"type":"function","name":"path3LiquidationBlockedAtZeroRate","inputs":[],"outputs":[{"name":"","type":"bool","internalType":"bool"}],"stateMutability":"view"},{"type":"function","name":"postBorrowSolvent","inputs":[],"outputs":[{"name":"","type":"bool","internalType":"bool"}],"stateMutability":"view"},{"type":"function","name":"profitAmount","inputs":[],"outputs":[{"name":"","type":"uint256","internalType":"uint256"}],"stateMutability":"view"},{"type":"function","name":"profitToken","inputs":[],"outputs":[{"name":"","type":"address","internalType":"address"}],"stateMutability":"pure"},{"type":"function","name":"removeCollateralStageReached","inputs":[],"outputs":[{"name":"","type":"bool","internalType":"bool"}],"stateMutability":"view"},{"type":"function","name":"residualCollateralShare","inputs":[],"outputs":[{"name":"","type":"uint256","internalType":"uint256"}],"stateMutability":"view"},{"type":"function","name":"run","inputs":[],"outputs":[{"name":"","type":"uint256","internalType":"uint256"}],"stateMutability":"nonpayable"},{"type":"function","name":"selectedTarget","inputs":[],"outputs":[{"name":"","type":"address","internalType":"address"}],"stateMutability":"view"},{"type":"function","name":"targetMimAmount","inputs":[],"outputs":[{"name":"","type":"uint256","internalType":"uint256"}],"stateMutability":"view"},{"type":"function","name":"targetMimShare","inputs":[],"outputs":[{"name":"","type":"uint256","internalType":"uint256"}],"stateMutability":"view"},{"type":"function","name":"updateRateStageReached","inputs":[],"outputs":[{"name":"","type":"bool","internalType":"bool"}],"stateMutability":"view"},{"type":"function","name":"usedLiveTarget","inputs":[],"outputs":[{"name":"","type":"bool","internalType":"bool"}],"stateMutability":"view"},{"type":"function","name":"usedValidationClone","inputs":[],"outputs":[{"name":"","type":"bool","internalType":"bool"}],"stateMutability":"view"},{"type":"function","name":"validationClone","inputs":[],"outputs":[{"name":"","type":"address","internalType":"address"}],"stateMutability":"view"},{"type":"function","name":"zeroOracle","inputs":[],"outputs":[{"name":"","type":"address","internalType":"address"}],"stateMutability":"view"},{"type":"function","name":"zeroRateObserved","inputs":[],"outputs":[{"name":"","type":"bool","internalType":"bool"}],"stateMutability":"view"},{"type":"error","name":"Infeasible","inputs":[{"name":"reason","type":"bytes32","internalType":"bytes32"}]}],"bytecode":{"object":"0x6080806040523460155761487f908161001a8239f35b5f80fdfe6080604052600436101561001a575b3615610018575f80fd5b005b5f3560e01c80630c24f4fa146103a55780630c269f6e146103a057806322cb9ca31461039b57806323e30c8b146103965780632759f2f1146103915780632edf00fb1461038c578063370be116146103875780633c2448ed146102e25780634071084d14610382578063463defd11461037d57806349343624146102c4578063495f92f11461037857806358ea35a6146103735780635a41b82a1461036e5780635a6e402b146103695780635ff972cc1461036457806361461954146102e25780636208fdd81461035f57806363d9b770146102e2578063668f67f11461035a5780636ce2b01d146103555780636d02b5ca146103505780637c27e19f1461034b5780638469ff16146103465780638594a2fb14610341578063892d0bd21461033c5780638b4a719c146103375780638d0f8c87146103325780639348a2381461032d578063943b91d814610328578063a539b24614610323578063a66521571461031e578063a692768314610319578063a82ed9ec14610314578063a89ae4ba1461030f578063a8b81f551461030a578063ace5cb5814610305578063ad5c464814610300578063ae7bbb9e146102fb578063b2016bd4146102f6578063b40d2e98146102f1578063b7021f77146102ec578063bd3d49c5146102e7578063c0406226146102e2578063c957fb1f146102dd578063cc1f2afa146102d8578063cf30cf7b146102d3578063d40d4fdf146102ce578063d5b5a557146102c9578063daec383d146102c4578063de02cfdf146102bf578063de4226f6146102ba578063e3fc037b146102b5578063e7cda06d146102b0578063e8c28fee146102ab578063ea544593146102a6578063eb77ff0f146102a15763f00235310361000e57610cc4565b610c9c565b610c77565b610c52565b610c35565b610b5b565b610a93565b610a76565b610590565b610a54565b610a32565b610a0d565b6109e6565b6109c1565b61052c565b6109a4565b61097f565b61095a565b610932565b610918565b6108ea565b6108c5565b6108a0565b610878565b61084a565b610825565b610808565b6107e3565b6107c6565b6107a1565b610784565b610767565b61074a565b610725565b610700565b6106db565b6106be565b6106a1565b61067c565b61065f565b610642565b610625565b610601565b6105dc565b6105b7565b61056b565b61054e565b610504565b6104dc565b6104b7565b61043c565b610403565b6103e6565b6103b8565b5f9103126103b457565b5f80fd5b346103b4575f3660031901126103b457602060405173d9e1ce17f2641f24ae83637ab66a2cca9c378b9f8152f35b346103b4575f3660031901126103b4576020601754604051908152f35b346103b4575f3660031901126103b4576008546040516001600160a01b039091168152602090f35b6001600160a01b038116036103b457565b346103b45760a03660031901126103b4576004356104598161042b565b6024356104658161042b565b6084359160643560443567ffffffffffffffff85116103b457366023860112156103b45784600401359367ffffffffffffffff85116103b45736602486880101116103b4576024610018960193610de5565b346103b4575f3660031901126103b457602060ff60095460281c166040519015158152f35b346103b4575f3660031901126103b4576006546040516001600160a01b039091168152602090f35b346103b4575f3660031901126103b4576007546040516001600160a01b039091168152602090f35b346103b4575f3660031901126103b4576020610546611dc1565b604051908152f35b346103b4575f3660031901126103b4576020600f54604051908152f35b346103b4575f3660031901126103b457602060ff60095460101c166040519015158152f35b346103b4575f3660031901126103b45760206040515f51602061480a5f395f51905f528152f35b346103b4575f3660031901126103b457602060ff60095460181c166040519015158152f35b346103b4575f3660031901126103b457602060ff60085460a81c166040519015158152f35b346103b4575f3660031901126103b457602060ff600954821c166040519015158152f35b346103b4575f3660031901126103b4576020601254604051908152f35b346103b4575f3660031901126103b4576020600154604051908152f35b346103b4575f3660031901126103b4576020601454604051908152f35b346103b4575f3660031901126103b457602060ff60085460a01c166040519015158152f35b346103b4575f3660031901126103b4576020600c54604051908152f35b346103b4575f3660031901126103b4576020600b54604051908152f35b346103b4575f3660031901126103b457602060ff60085460d81c166040519015158152f35b346103b4575f3660031901126103b457602060ff60085460d01c166040519015158152f35b346103b4575f3660031901126103b457602060ff60085460e01c166040519015158152f35b346103b4575f3660031901126103b4576020601154604051908152f35b346103b4575f3660031901126103b4576020601054604051908152f35b346103b4575f3660031901126103b4576020601654604051908152f35b346103b4575f3660031901126103b457602060ff60085460e81c166040519015158152f35b346103b4575f3660031901126103b4576020600d54604051908152f35b346103b4575f3660031901126103b457602060ff60085460c81c166040519015158152f35b346103b4575f3660031901126103b4576020600a54604051908152f35b346103b4575f3660031901126103b457602060ff60085460b81c166040519015158152f35b346103b4575f3660031901126103b4576020604051737a250d5630b4cf539739df2c5dacb4c659f2488d8152f35b346103b4575f3660031901126103b4576003546040516001600160a01b039091168152602090f35b346103b4575f3660031901126103b457602060ff60095460081c166040519015158152f35b346103b4575f3660031901126103b457602060ff60095460401c166040519015158152f35b346103b4575f3660031901126103b457602060405173c02aaa39b223fe8d0a0e5c4f27ead9083c756cc28152f35b346103b4575f3660031901126103b4576020610546610f16565b346103b4575f3660031901126103b4576004546040516001600160a01b039091168152602090f35b346103b4575f3660031901126103b457602060ff60095460381c166040519015158152f35b346103b4575f3660031901126103b457602060ff60085460f01c166040519015158152f35b346103b4575f3660031901126103b4576020600e54604051908152f35b346103b4575f3660031901126103b457602060ff60085460b01c166040519015158152f35b346103b4575f3660031901126103b45760206040515f51602061482a5f395f51905f528152f35b346103b4575f3660031901126103b457602060ff60095460481c166040519015158152f35b346103b4575f3660031901126103b457602060ff600954166040519015158152f35b346103b4575f3660031901126103b457602060085460f81c6040519015158152f35b346103b4575f3660031901126103b4576020601854604051908152f35b346103b4575f3660031901126103b4576020601554604051908152f35b90600182811c92168015610ade575b6020831014610aca57565b634e487b7160e01b5f52602260045260245ffd5b91607f1691610abf565b634e487b7160e01b5f52604160045260245ffd5b90601f8019910116810190811067ffffffffffffffff821117610b1e57604052565b610ae8565b805180835260209291819084018484015e5f828201840152601f01601f1916010190565b906020610b58928181520190610b23565b90565b346103b4575f3660031901126103b4576040515f600554610b7b81610ab0565b8084529060018116908115610c115750600114610bb3575b610baf83610ba381850382610afc565b60405191829182610b47565b0390f35b91905060055f527f036b6384b5eca791c62761152d0c79bb0604c104a5fb6f4eb0703f3154bb3db0915f905b808210610bf757509091508101602001610ba3610b93565b919260018160209254838588010152019101909291610bdf565b60ff191660208086019190915291151560051b84019091019150610ba39050610b93565b346103b4575f3660031901126103b4576020601354604051908152f35b346103b4575f3660031901126103b457602060ff60085460c01c166040519015158152f35b346103b4575f3660031901126103b457602060ff60095460301c166040519015158152f35b346103b4575f3660031901126103b4576002546040516001600160a01b039091168152602090f35b346103b4575f3660031901126103b4576020601954604051908152f35b67ffffffffffffffff8111610b1e57601f01601f191660200190565b60405190610d0c602083610afc565b5f8252565b60405190610d20604083610afc565b60128252716261642d62656e746f2d63616c6c6261636b60701b6020830152565b60405190610d50604083610afc565b601082526f3130b216b33630b9b416b9b2b73232b960811b6020830152565b60405190610d7e604083610afc565b600f82526e3130b216b33630b9b416ba37b5b2b760891b6020830152565b908160209103126103b4573560ff811681036103b45790565b60405190610dc4604083610afc565b6012825271756e6b6e6f776e2d666c6173682d6d6f646560701b6020830152565b600254929593949392610e08906001600160a01b03165b6001600160a01b031690565b3303610e9e57306001600160a01b0390911603610e9657600454610e34906001600160a01b0316610dfc565b6001600160a01b0390911603610e8e5781610e539160ff930190610d9c565b610e5c83601255565b1660018114610e8457600214610e7957610e74610db5565b6113bd565b610e8291611acb565b565b50610e8291611570565b610e74610d6f565b610e74610d41565b610e74610d11565b60405190610eb5604083610afc565b600e82526d73656c662d63616c6c2d6f6e6c7960901b6020830152565b908160209103126103b4575190565b6040513d5f823e3d90fd5b519081151582036103b457565b91908260409103126103b4576020610f1083610eec565b92015190565b30330361139557600254610f3490610dfc906001600160a01b031681565b604051633de222bb60e21b81525f51602061480a5f395f51905f5260048201525f51602061482a5f395f51905f52602482015290602082604481845afa90811561130457610f8f602092610fcf945f91611378575b50601555565b601554604051630acc462360e31b81525f51602061480a5f395f51905f52600482015260248101919091525f604482015292839190829081906064820190565b03915afa801561130457610fea915f91611359575b50601655565b610ff5601654601955565b604051633ba0b9a960e01b81526020816004815f51602061482a5f395f51905f525afa80156113045761102f915f9161133a575b50600c55565b611053600c541560ff60381b60095491151560381b169060ff60381b191617600955565b61105b611f57565b604080516302ce728f60e01b815290816004815f5f51602061482a5f395f51905f525af18015611304575f915f91611309575b5061109881601855565b604051633ba0b9a960e01b81526020816004815f51602061482a5f395f51905f525afa8015611304576110d2915f916112d5575b50600d55565b81806112cd575b806112c3575b6111f9575015806111ef575b806111e5575b61113f57611113660100000000000066ff000000000000196009541617600955565b611137690100000000000000000069ff000000000000000000196009541617600955565b610b58612620565b61115964010000000064ff00000000196009541617600955565b600680546001600160a01b0319165f51602061482a5f395f51905f5217905561118a600160ff196009541617600955565b6008805465ffff000000ff60a01b19166501010000000160a01b1790555b6008805460ff60a81b1916600160a81b1790556111dd6801000000000000000068ff0000000000000000196009541617600955565b610b5861212d565b50600d54156110f1565b50600c54156110eb565b6111a8915061121864010000000064ff00000000196009541617600955565b600680546001600160a01b0319165f51602061482a5f395f51905f52179055611249600160ff196009541617600955565b6008805461ffff60c01b191661010160c01b179055600954603881901c60ff16919082156112a3575b50811561129a575b506008805460ff60a01b191691151560a01b60ff60a01b16919091179055565b9050155f61127a565b90915060081c60ff16806112b9575b905f611272565b50600b54156112b2565b50600d54156110df565b5080156110d9565b6112f7915060203d6020116112fd575b6112ef8183610afc565b810190610ed2565b5f6110cc565b503d6112e5565b610ee1565b905061132d915060403d604011611333575b6113258183610afc565b810190610ef9565b5f61108e565b503d61131b565b611353915060203d6020116112fd576112ef8183610afc565b5f611029565b611372915060203d6020116112fd576112ef8183610afc565b5f610fe4565b61138f9150843d86116112fd576112ef8183610afc565b5f610f89565b6113ba6113a0610ea6565b8051602090910120632e4e013360e11b5f52600452602490565b5ffd5b60208151910120632e4e013360e11b5f5260045260245ffd5b91908260409103126103b4576020825192015190565b604051906113fb604083610afc565b6014825273191d5cdd0b5cda185c994b5d1bdbcb5cdb585b1b60621b6020830152565b6040519061142d604083610afc565b60158252741859190b58dbdb1b185d195c985b0b59985a5b1959605a1b6020830152565b60405190611460604083610afc565b601a82527f626f72726f772d72657475726e65642d7a65726f2d73686172650000000000006020830152565b908160209103126103b457610b5890610eec565b604051906114af606083610afc565b60218252607760f81b6040837f626f72726f7765722d6e6f742d736f6c76656e742d61667465722d626f72726f60208201520152565b634e487b7160e01b5f52601160045260245ffd5b9190820180921161150657565b6114e5565b5f1981019190821161150657565b60031981019190821161150657565b9190820391821161150657565b60405190611544604083610afc565b601c82527f666c6173682d6c6f616e2d6665652d6e6f742d636f76657261626c65000000006020830152565b600254909190611588906001600160a01b0316610dfc565b600480546040805162ae511b60e21b81526001600160a01b03928316938101939093523060248401525f51602061482a5f395f51905f526044840152606483018690525f60848401529083169190818060a4810103815f865af18015611304576115f9915f91611aaa575b50600f55565b600f546001811115611aa2575f51602061482a5f395f51905f523b156103b45760405163860ffea160e01b81523060048201526001602482015260448101919091525f81606481835f51602061482a5f395f51905f525af1801561130457611a88575b50604051631c9e379b60e01b81523060048201526020816024815f51602061482a5f395f51905f525afa8015611304576116bc915f91611a69575b50600f546008805460ff60d01b1916929091111560d01b60ff60d01b16919091179055565b6008546116d19060d01c60ff161590565b1590565b611a615760135460408051634b8a352960e01b81523060048201526024810192909252816044815f5f51602061482a5f395f51905f525af1801561130457611720915f91611a40575b50601455565b6014546008805460ff60d81b191691151560d81b60ff60d81b169190911790556008546117519060d81c60ff161590565b611a38576014546040805163097da6d360e41b81525f51602061480a5f395f51905f526004820152306024820181905260448201525f606482018190526084820193909352929091839160a49183915af1801561130457611a0a575b506117b75f601455565b6040516338b51ce160e01b81523060048201526020816024815f51602061482a5f395f51905f525afa801561130457611817915f916119db575b50600880546001600160f81b031691151560f81b6001600160f81b031916919091179055565b600854906118258260f81c90565b80156119d35761186e926118699160d082901c60ff1691826119c3575b50816119bb575b506008805460ff60b01b191691151560b01b60ff60b01b16919091179055565b612c56565b611876612ffe565b60045461188d90610dfc906001600160a01b031681565b6040516370a0823160e01b815230600482015290602090829060249082905afa908115611304575f9161199c575b506118c682846114f9565b81106118ff575b50600454610e8292906118f9906001600160a01b03165b6002549093906001600160a01b0316926114f9565b9161346e565b61191561191a9161191084866114f9565b611528565b6133b9565b60045461193190610dfc906001600160a01b031681565b6040516370a0823160e01b815230600482015290602090829060249082905afa908115611304575f9161197d575b5061196a82846114f9565b11611975575f6118cd565b610e74611535565b611996915060203d6020116112fd576112ef8183610afc565b5f61195f565b6119b5915060203d6020116112fd576112ef8183610afc565b5f6118bb565b90505f611849565b90915060d81c60ff16905f611842565b610e746114a0565b6119fd915060203d602011611a03575b6119f58183610afc565b81019061148c565b5f6117f1565b503d6119eb565b611a2b9060403d604011611a31575b611a238183610afc565b8101906113d6565b506117ad565b503d611a19565b610e74611451565b611a59915060403d604011611a3157611a238183610afc565b90505f61171a565b610e7461141e565b611a82915060203d6020116112fd576112ef8183610afc565b5f611697565b80611a965f611a9c93610afc565b806103aa565b5f61165c565b610e746113ec565b611ac3915060403d604011611a3157611a238183610afc565b90505f6115f3565b6002549091908290611ae5906001600160a01b0316610dfc565b6007546001600160a01b03169060406001600160a01b0383166004546001600160a01b0393841694919316825162ae511b60e21b81526001600160a01b0391821660048201523060248201529116604482015260648101969096525f6084870152858060a4810103815f865af1948515611304575f95611d3f575b508415611c0e576001600160a01b031693843b156103b45760405163860ffea160e01b815230600482015260016024820152604481018290525f81606481838a5af1801561130457611d2b575b50604051631c9e379b60e01b8152306004820152602081602481895afa90811561130457611c009183915f91611d0c575b506008805460ff60d01b1916929091101560d01b60ff60d01b16919091179055565b60085460d01c60ff16611c2a575b5050600454610e8293506118f9906001600160a01b03166118e4565b843b156103b4576040516310ec8cff60e31b815230600482015260248101829052945f908690604490829084905af191821561130457611cc095604093611cf8575b506004546001600160a01b0316835163097da6d360e41b81526001600160a01b039091166004820152306024820181905260448201525f6064820181905260848201939093529586928391829060a4820190565b03925af192831561130457610e8293611cda575b80611c0e565b611cf29060403d604011611a3157611a238183610afc565b50611cd4565b80611a965f611d0693610afc565b5f611c6c565b611d25915060203d6020116112fd576112ef8183610afc565b5f611bde565b80611a965f611d3993610afc565b5f611bad565b611d5991955060403d604011611a3157611a238183610afc565b9050935f611b60565b60405190611d71604083610afc565b60128252711d185c99d95d0b5b1bd8590b59985a5b195960721b6020830152565b3d15611dbc573d90611da382610ce1565b91611db16040519384610afc565b82523d5f602084013e565b606090565b5f5460ff16611e4c57611dda600160ff195f5416175f55565b611de56116cd61352c565b611e8857611df1613644565b611df96136ff565b5f80604051602081019063573dddcf60e11b825260048152611e1c602482610afc565b519082305af1611e2a611d92565b9015611e525750611e3a5f600a55565b611e4c63ff0000001960095416600955565b60015490565b611e5e611e639161371b565b600a55565b611e7b630100000063ff000000196009541617600955565b611e845f600155565b5f90565b611ea0630100000063ff000000196009541617600955565b611e84611eab611d62565b60208151910120600a55565b602081526005545f91611ec982610ab0565b918260208301526001811690815f14611f3c5750600114611ee957505090565b60055f9081529192507f036b6384b5eca791c62761152d0c79bb0604c104a5fb6f4eb0703f3154bb3db05b838310611f25575060409250010190565b805460408484010152602090920191600101611f14565b90506040935060ff929192191683830152151560051b010190565b600354611f6e90610dfc906001600160a01b031681565b6040805163d6d7d52560e01b8152918290815f81611f8e60048201611eb7565b03925af1805f925f9261201e575b50611fba575050611fb361ff001960095416600955565b5f19600b55565b6009805461ff00191683151560081b61ff0016179055611fd981600b55565b81612015575b50611fe657565b611ff8600160ff196009541617600955565b6008805464ff000000ff60a01b191664010000000160a01b179055565b9050155f611fdf565b90925061203a915060403d604011611333576113258183610afc565b90915f611f9c565b60405190612051604083610afc565b601b82527f647573742d636f6c6c61746572616c2d756e617661696c61626c6500000000006020830152565b6040519061208c604083610afc565b601f82527f696e73756666696369656e742d6c6976652d6d696d2d6c6971756964697479006020830152565b6001600160a01b03918216815291811660208301529091166040820152606081019190915260a060808201819052610b5892910190610b23565b60405190612101604083610afc565b601782527f6c6976652d706174682d6e6f742d636f6d706c657465640000000000000000006020830152565b61213d6121386137a3565b601155565b612148601154600e55565b6011541561234b5761217161216c6016545f51602061482a5f395f51905f52613915565b601355565b601354156123435760025461219090610dfc906001600160a01b031681565b6004546001600160a01b031660115491604051906121c8826121ba60208201906001602083019252565b03601f198101845283610afc565b803b156103b4576121f5935f80946040519687958694859363f1676d3760e01b85523030600487016120b8565b03925af180156113045761232f575b506040516370a0823160e01b81523060048201526020816024815f51602061480a5f395f51905f525afa801561130457612245915f91612310575b50600155565b60085460a081901c60ff169081612301575b816122f2575b816122e3575b816122d1575b816122c3575b50806122b8575b6122959062ff000060095491151560101b169062ff0000191617600955565b6009546122a69060101c60ff161590565b6122b05760015490565b610e746120f2565b506001541515612276565b60f01c60ff1690505f61226f565b90506122dd8160f81c90565b90612269565b60ff60b882901c169150612263565b60ff60b082901c16915061225d565b60ff60a882901c169150612257565b612329915060203d6020116112fd576112ef8183610afc565b5f61223f565b80611a965f61233d93610afc565b5f612204565b610e7461207d565b610e74612042565b908160209103126103b45751610b588161042b565b60405190612377604083610afc565b601782527f6d697373696e672d6d61737465722d636f6e74726163740000000000000000006020830152565b519067ffffffffffffffff821682036103b457565b51906001600160801b03821682036103b457565b908160609103126103b4576123e0816123a3565b91610b5860406123f2602085016123b8565b93016123a3565b6001600160a01b0391821681529116602082015260e0604082018190529296959460c0949193909267ffffffffffffffff916124389190860190610b23565b97166060840152608083015260a08201520152565b92916124726040915f9360018060a01b03168652606060208701526060860190610b23565b930152565b60405190612486604083610afc565b601882527f76616c69646174696f6e2d696e69742d6e6f742d7a65726f00000000000000006020830152565b601f82116124bf57505050565b5f5260205f20906020601f840160051c830193106124f7575b601f0160051c01905b8181106124ec575050565b5f81556001016124e1565b90915081906124d8565b90815167ffffffffffffffff8111610b1e5761252981612522600554610ab0565b60056124b2565b602092601f821160011461256957612559929382915f9261255e575b50508160011b915f199060031b1c19161790565b600555565b015190505f80612545565b60055f52601f198216937f036b6384b5eca791c62761152d0c79bb0604c104a5fb6f4eb0703f3154bb3db0915f5b8681106125cd57508360019596106125b5575b505050811b01600555565b01515f1960f88460031b161c191690555f80806125aa565b91926020600181928685015181550194019201612597565b604051906125f4604083610afc565b601a82527f76616c69646174696f6e2d7570646174652d6e6f742d7a65726f0000000000006020830152565b61263c6501000000000065ff0000000000196009541617600955565b600680546001600160a01b0319165f51602061482a5f395f51905f521790555f612664613b7c565b90612bca575b506001600160a01b03811615612b52575b6001600160a01b03811615612b4a5760085461269f906001600160a01b0316610dfc565b15612afa575b604051632c9f039d60e21b81526060816004815f51602061482a5f395f51905f525afa908115611304575f91612ac8575b506004546001600160a01b03166008549092906001600160a01b0316906126fb610cfd565b604051636ec097fb60e01b8152946020866004815f51602061482a5f395f51905f525afa958615611304575f96612aa7575b5060405163c7ee2a7b60e01b81526020816004815f51602061482a5f395f51905f525afa908115611304575f91612a88575b50604051632ae8093d60e21b8152906020826004815f51602061482a5f395f51905f525afa908115611304576127e5986020986127b0966121ba955f95612a69575b50604051998a978c89016123f9565b6002546127c790610dfc906001600160a01b031681565b905f604051809681958294631f54245b60e01b84526004840161244d565b03925af1801561130457612818915f91612a3a575b5060018060a01b03166001600160601b0360a01b6007541617600755565b60075461282f90610dfc906001600160a01b031681565b604051633ba0b9a960e01b8152602081600481855afa80156113045761285b915f9161133a5750600c55565b600c54612a3257600854612890906001600160a01b03165b60018060a01b03166001600160601b0360a01b6003541617600355565b6128a061289b610cfd565b612501565b6128a8611f57565b604080516302ce728f60e01b815290816004815f865af1918215611304575f915f93612a06575b50602060049160405192838092633ba0b9a960e01b82525afa8015611304576128fe915f916112d55750600d55565b159081156129fc575b5080156129f1575b6129e957612925600160ff196009541617600955565b6008805465ffff0000ffff60a01b19166501010000010160a01b17905561294d6121386137a3565b612958601154600e55565b6011546008805460ff60d01b191691151560d01b60ff60d01b16919091179055612983601954600155565b60085460a081901c60ff1690816129db575b50806129cc575b806129c1575b611e4c9062ff000060095491151560101b169062ff0000191617600955565b5060015415156129a2565b5060095460481c60ff1661299c565b60a81c60ff1690505f612995565b610e746125e5565b50600d54151561290f565b905015155f612907565b600491935060209250612a279060403d604011611333576113258183610afc565b9290929391506128cf565b610e74612477565b612a5c915060203d602011612a62575b612a548183610afc565b810190612353565b5f6127fa565b503d612a4a565b612a819195508b3d8d116112fd576112ef8183610afc565b935f6127a1565b612aa1915060203d6020116112fd576112ef8183610afc565b5f61275f565b612ac191965060203d6020116112fd576112ef8183610afc565b945f61272d565b612aea915060603d606011612af3575b612ae28183610afc565b8101906123cc565b9150505f6126d6565b503d612ad8565b60405160cb80820182811067ffffffffffffffff821117610b1e57829161473f833903905ff0801561130457600880546001600160a01b0319166001600160a01b039092169190911790556126a5565b610e74612368565b50600254612b6a90610dfc906001600160a01b031681565b604051632ebf93c560e21b81525f51602061482a5f395f51905f52600482015290602090829060249082905afa908115611304575f91612bab575b5061267b565b612bc4915060203d602011612a6257612a548183610afc565b5f612ba5565b90505f61266a565b60405190612be1606083610afc565b60258252640b591d5cdd60da1b6040837f696e73756666696369656e742d636f6c6c61746572616c2d746f2d6c6561766560208201520152565b60405190612c2a604083610afc565b601882527f72656d6f76652d636f6c6c61746572616c2d6661696c656400000000000000006020830152565b612c606001601055565b604051631c9e379b60e01b81523060048201526020816024815f51602061482a5f395f51905f525afa908115611304575f91612e2b575b5060105480821115612e2357612cac91611528565b905f51602061482a5f395f51905f523b156103b4576040516310ec8cff60e31b8152306004820152602481018390525f81604481835f51602061482a5f395f51905f525af1801561130457612e0f575b50604051631c9e379b60e01b81523060048201526020816024815f51602061482a5f395f51905f525afa801561130457612d5b915f91612df0575b506010546008805460ff60e01b19169290911460e01b60ff60e01b16919091179055565b600854612d6c9060e01c60ff161590565b612de857600480546040805163097da6d360e41b81526001600160a01b0392831693810193909352306024840181905260448401525f60648401819052608484019590955291939192849260a4928492165af1801561130457612dcc5750565b612de49060403d604011611a3157611a238183610afc565b5050565b610e74612c1b565b612e09915060203d6020116112fd576112ef8183610afc565b5f612d37565b80611a965f612e1d93610afc565b5f612cfc565b610e74612bd2565b612e44915060203d6020116112fd576112ef8183610afc565b5f612c97565b67ffffffffffffffff8111610b1e5760051b60200190565b60408051909190612e738382610afc565b6001815291601f1901366020840137565b60405160609190612e958382610afc565b6002815291601f1901366020840137565b60405160809190612eb78382610afc565b6003815291601f1901366020840137565b634e487b7160e01b5f52603260045260245ffd5b805115612ee95760200190565b612ec8565b805160011015612ee95760400190565b805160021015612ee95760600190565b90602080835192838152019201905f5b818110612f2b5750505090565b82516001600160a01b0316845260209384019390920191600101612f1e565b90612f6290959492939560a0835260a0830190612f0e565b9481860360208301526020808551978881520194015f965b808810612fab5750506001600160a01b031660408201525f6060820152929350610b58926080818403910152610b23565b90946020806001928851815201960197019690612f7a565b60405190612fd2604083610afc565b601782527f6c69717569646174696f6e2d6e6f742d626c6f636b65640000000000000000006020830152565b613006612e62565b6130223061301383612edc565b6001600160a01b039091169052565b61302a612e62565b6040516324720b1f60e11b81523060048201529091906020816024815f51602061482a5f395f51905f525afa908115611304575f9161339a575b5061306e83612edc565b5261307882612edc565b51604051631c9e379b60e01b8152306004820152909290916020836024815f51602061482a5f395f51905f525afa928315611304575f93613372575b505f9182916130f66130c4610cfd565b916130e8604051938492602084019663ff6ff84b60e01b8852309160248601612f4a565b03601f198101835282610afc565b5190825f51602061482a5f395f51905f525af1613111611d92565b6008805460ff60e81b1916600160e81b179055916040516324720b1f60e11b8152306004820152602081806024810103815f51602061482a5f395f51905f525afa908115611304575f91613353575b50604051631c9e379b60e01b8152306004820152906020826024815f51602061482a5f395f51905f525afa918215611304575f92613332575b50831594856132b3575b50946131d595851561327e575b50506008805460ff60f01b191694151560f01b60ff60f01b1694909417909355505050565b60085460f01c60ff1680613221575b6008805460ff60b81b191691151560b81b60ff60b81b169190911790555b6008546132139060f01c60ff161590565b61321957565b610e74612fc3565b50604051633ba0b9a960e01b81526020816004815f51602061482a5f395f51905f525afa801561130457613202915f9161325f575b501590506131e4565b613278915060203d6020116112fd576112ef8183610afc565b5f613256565b90919293809550946132a9575b50508261329f575b50505f808080806131b0565b1490505f80613293565b1492505f8061328b565b6132be919550613d6b565b80156132ce575b936131d56131a3565b506040516338b51ce160e01b8152306004820152946020866024815f51602061482a5f395f51905f525afa8015611304576131d5965f91613313575b509095506132c5565b61332c915060203d602011611a03576119f58183610afc565b5f61330a565b61334c91925060203d6020116112fd576112ef8183610afc565b905f613199565b61336c915060203d6020116112fd576112ef8183610afc565b5f613160565b5f9290839294506133919060203d6020116112fd576112ef8183610afc565b939150916130b4565b6133b3915060203d6020116112fd576112ef8183610afc565b5f613064565b801561346b576040516370a0823160e01b81523060048201526020816024815f51602061480a5f395f51905f525afa908115611304575f9161344c575b50801561197557613405613e1a565b61340d613ef3565b6134178183614122565b612de457613425818361436e565b612de45761343381836143dc565b612de4576134409161453e565b610e8257610e74611535565b613465915060203d6020116112fd576112ef8183610afc565b5f6133f6565b50565b60405163a9059cbb60e01b602082019081526001600160a01b03909316602482015260448101939093525f9283929083906134ac81606481016130e8565b51925af16134b8611d92565b816134fd575b50156134c657565b60405162461bcd60e51b815260206004820152600f60248201526e1d1c985b9cd9995c8b59985a5b1959608a1b6044820152606490fd5b8051801592508215613512575b50505f6134be565b613525925060208091830101910161148c565b5f8061350a565b613534613bf4565b9015908115613623575b50611e845761354b613c17565b901561361e57613559613c3a565b901561361857613567613c5d565b91901561361157613576614571565b9290156135e7576001600160a01b038416158015613600575b80156135ef575b6135e7576135c561289b926128736135e29660018060a01b03166001600160601b0360a01b6002541617600255565b60018060a01b03166001600160601b0360a01b6004541617600455565b600190565b505050505f90565b506001600160a01b03811615613596565b506001600160a01b0382161561358f565b5050505f90565b50505f90565b505f90565b6001600160a01b03165f51602061480a5f395f51905f52141590505f61353e565b600880546001600160a01b031690556009805469ffffffffffffffffffff1916905561366f5f600a55565b6136785f600b55565b6136815f600c55565b61368a5f600d55565b6136935f600e55565b61369c5f600f55565b6136a55f601055565b6136ae5f601155565b6136b75f601255565b6136c05f601355565b6136c95f601455565b6136d25f601555565b6136db5f601655565b6136e45f601755565b6136ed5f601855565b6136f65f601955565b610e825f600155565b600454600254610e82916001600160a01b039182169116613fcc565b602481511015613757575b5060106020604051613739604082610afc565b828152016f185d1d195b5c1d0b5c995d995c9d195960821b81522090565b60208101516001600160e01b0319166351b1fecd60e11b01613726576044015190565b90600a820291808304600a149015171561150657565b8181029291811591840414171561150657565b6002546004546001600160a01b0391821691166137f26020836137c584610dfc565b6040516370a0823160e01b81526001600160a01b0390921660048301529092839190829081906024820190565b03915afa908115611304575f916138b7575b5090915f91906001600160a01b031660015b601284106138275750505050505f90565b604051636d289ce560e11b81526001600160a01b0386166004820152602481018290525f6044820152602081606481865afa8015611304576001915f91613899575b501180613890575b6138885761388060019161377a565b930192613816565b935050505090565b50828110613871565b6138b1915060203d81116112fd576112ef8183610afc565b5f613869565b6138d0915060203d6020116112fd576112ef8183610afc565b5f613804565b91908260409103126103b457610b5860206138f0846123b8565b93016123b8565b8115613901570490565b634e487b7160e01b5f52601260045260245ffd5b91906001811115613b76576139299061150b565b915f5f915f5f915f5f9160018060a01b031660405163e551d11d60e01b8152604081600481855afa90815f915f93613b53575b50613b43575b50506040805163020a17bd60e61b81529081600481855afa90815f915f93613b10575b50613afe575b5050602060049160405192838092632ae8093d60e21b82525afa5f9181613add575b50613ad757505f945b858280613abc575b613a8d575b505080613a7b575b6139e9575b5050505050600182116139df57565b90610b589061150b565b80613a69575b80613a57575b15613a3e57906001600160801b03613a18613a25958280613a2096169116613790565b9116906138f7565b614613565b828110613a36575b808080806139d0565b91505f613a2d565b50506001600160801b03613a529216614613565b613a25565b506001600160801b03821615156139f5565b506001600160801b03811615156139ef565b506001600160801b03851615156139cb565b613a20613aa6926001600160801b038088169116611528565b888110613ab4575b856139c3565b97505f613aae565b506001600160801b0385166001600160801b038316116139be565b946139b6565b613af791925060203d6020116112fd576112ef8183610afc565b905f6139ad565b9095509350600192506020600461398b565b909250613b35915060403d604011613b3c575b613b2d8183610afc565b8101906138d6565b915f613985565b503d613b23565b9097509550600191505f80613962565b909250613b6f915060403d604011613b3c57613b2d8183610afc565b915f61395c565b505f9150565b5f8060405160208101906366a2371160e11b825260048152613b9f602482610afc565b51905f51602061482a5f395f51905f525afa90613bba611d92565b82158015613be9575b613be1576020818051810103126103b45760200151610dfc8161042b565b505f91508190565b506020815110613bc3565b5f806040516020810190639b352ae160e01b825260048152613b9f602482610afc565b5f806040516020810190636b2ace8760e01b825260048152613b9f602482610afc565b5f8060405160208101906307dc0d1d60e41b825260048152613b9f602482610afc565b5f80604051602081019063d8dfeb4560e01b825260048152613b9f602482610afc565b90613c8a82610ce1565b613c976040519182610afc565b8281528092613ca8601f1991610ce1565b0190602036910137565b908151811015612ee9570160200190565b929192613ccf82610ce1565b91613cdd6040519384610afc565b8294818452818301116103b4578281602093845f96015e010152565b6020818303126103b45780519067ffffffffffffffff82116103b457019080601f830112156103b4578151610b5892602001613cc3565b60405190613d3f604083610afc565b601982527f4361756c64726f6e3a20616c6c2061726520736f6c76656e74000000000000006020830152565b90815160448110613b765760208301516001600160e01b0319166307b9e43360e51b01613b7657613d9e613da391611519565b613c80565b60045b8351811015613dea5780613dcd613dbf60019387613cb2565b516001600160f81b03191690565b613de3613dd983611519565b915f1a9185613cb2565b5301613da6565b50613e0091925060208082518301019101613cf9565b60208151910120613e0f613d30565b602081519101201490565b604051636eb1769f60e11b815230600482015273d9e1ce17f2641f24ae83637ab66a2cca9c378b9f60248201526020816044815f51602061480a5f395f51905f525afa5f9181613ed2575b50613ec4575b50613e9773d9e1ce17f2641f24ae83637ab66a2cca9c378b9f5f51602061480a5f395f51905f52614644565b610e825f1973d9e1ce17f2641f24ae83637ab66a2cca9c378b9f5f51602061480a5f395f51905f52614700565b5f191115610e82575f613e6b565b613eec91925060203d6020116112fd576112ef8183610afc565b905f613e65565b604051636eb1769f60e11b8152306004820152737a250d5630b4cf539739df2c5dacb4c659f2488d60248201526020816044815f51602061480a5f395f51905f525afa5f9181613fab575b50613f9d575b50613f70737a250d5630b4cf539739df2c5dacb4c659f2488d5f51602061480a5f395f51905f52614644565b610e825f19737a250d5630b4cf539739df2c5dacb4c659f2488d5f51602061480a5f395f51905f52614700565b5f191115610e82575f613f44565b613fc591925060203d6020116112fd576112ef8183610afc565b905f613f3e565b604051636eb1769f60e11b81523060048201526001600160a01b0383166024820152602081806044810103816001600160a01b0386165afa5f9181614037575b50614029575b5081614021610e829383614644565b5f1991614700565b5f191115612de4575f614012565b61405191925060203d6020116112fd576112ef8183610afc565b905f61400c565b6020818303126103b45780519067ffffffffffffffff82116103b457019080601f830112156103b457815161408c81612e4a565b9261409a6040519485610afc565b81845260208085019260051b8201019283116103b457602001905b8282106140c25750505090565b81518152602091820191016140b5565b604090610b58939281528160208201520190612f0e565b919260809361410e92979695978452602084015260a0604084015260a0830190612f0e565b6001600160a01b0390951660608201520152565b61412a612e84565b9061414961413783612edc565b5f51602061480a5f395f51905f529052565b600454614163906001600160a01b03165b61301384612eee565b6040516307c0329d60e21b81525f81806141818686600484016140d2565b038173d9e1ce17f2641f24ae83637ab66a2cca9c378b9f5afa5f9181614352575b506141af57505050505f90565b6141b890612edc565b51838115918215614348575b5050613611576040516370a0823160e01b8152306004820152906020826024815f51602061480a5f395f51905f525afa918215611304575f92614327575b505f91926142286040519586938493634401edf760e11b855242923092600487016140e9565b03818373d9e1ce17f2641f24ae83637ab66a2cca9c378b9f5af15f9281614303575b506142555750505f90565b6040516370a0823160e01b8152306004820152916020836024815f51602061480a5f395f51905f525afa928315611304575f936142e2575b50828211156142b457506142a76135e2926142af92611528565b6017546114f9565b601755565b91505080516142c4575b50600190565b6142af6142d36142dc92612edc565b516017546114f9565b5f6142be565b6142fc91935060203d6020116112fd576112ef8183610afc565b915f61428d565b6143209193503d805f833e6143188183610afc565b810190614058565b915f61424a565b5f92506143429060203d6020116112fd576112ef8183610afc565b91614202565b119050835f6141c4565b6143679192503d805f833e6143188183610afc565b905f6141a2565b6004546001600160a01b03169073c02aaa39b223fe8d0a0e5c4f27ead9083c756cc28214613611576141636143a1612ea6565b926143ae61413785612edc565b6143d36143ba85612eee565b73c02aaa39b223fe8d0a0e5c4f27ead9083c756cc29052565b61301384612efe565b6143e4612e84565b906143f161413783612edc565b600454614406906001600160a01b031661415a565b6040516307c0329d60e21b81525f81806144248686600484016140d2565b0381737a250d5630b4cf539739df2c5dacb4c659f2488d5afa5f9181614522575b5061445257505050505f90565b61445b90612edc565b51838115918215614518575b5050613611576040516370a0823160e01b8152306004820152906020826024815f51602061480a5f395f51905f525afa918215611304575f926144f7575b505f91926144cb6040519586938493634401edf760e11b855242923092600487016140e9565b038183737a250d5630b4cf539739df2c5dacb4c659f2488d5af15f928161430357506142555750505f90565b5f92506145129060203d6020116112fd576112ef8183610afc565b916144a5565b119050835f614467565b6145379192503d805f833e6143188183610afc565b905f614445565b6004546001600160a01b03169073c02aaa39b223fe8d0a0e5c4f27ead9083c756cc28214613611576144066143a1612ea6565b5f8060405160208101906374645ff360e01b825260048152614594602482610afc565b51905f51602061482a5f395f51905f525afa906145af611d92565b82156145fa5780518101906020818184019303126103b45760208101519067ffffffffffffffff82116103b457019080603f830112156103b4576020820151610b5892604001613cc3565b50604051915061460b602083610afc565b5f82525f9190565b90811561361857620186a08202918204620186a00361150657620186a00180620186a01161150657610b58916138f7565b60405163095ea7b360e01b602082019081526001600160a01b0390931660248201525f6044820181905292839291839061468181606481016130e8565b51925af161468d611d92565b816146d1575b501561469b57565b60405162461bcd60e51b815260206004820152600e60248201526d185c1c1c9bdd994b59985a5b195960921b6044820152606490fd5b80518015925082156146e6575b50505f614693565b6146f9925060208091830101910161148c565b5f806146de565b60405163095ea7b360e01b602082019081526001600160a01b03909316602482015260448101939093525f92839290839061468181606481016130e856fe6080806040523460135760b3908160188239f35b5f80fdfe60808060405260043610156011575f80fd5b5f3560e01c63d6d7d525146023575f80fd5b34607957602036600319011260795760043567ffffffffffffffff811160795736602382011215607957806004013567ffffffffffffffff811160795736910160240111607957806001604092525f6020820152f35b5f80fdfea26469706673582212208f7b7df5b91f4155d12cb01e82583dc72f69b5e82fa007a456dc35ac4e095b9864736f6c634300081e003300000000000000000000000099d8a9c45b2eca8864373a26d1459e3dff1e17f300000000000000000000000046f54d434063e5f1a2b2cc6d9aaa657b1b9ff82ca26469706673582212207c57342b96a8532278a413d73972258ada10a568afc4f7a646f62d1e1e7cce1e64736f6c634300081e0033","linkReferences":{}},"methodIdentifiers":{"MIM()":"daec383d","SUSHI_ROUTER()":"0c24f4fa","TARGET()":"cc1f2afa","UNISWAP_V2_ROUTER()":"a82ed9ec","WETH()":"ad5c4648","addCollateralStageReached()":"8469ff16","bentoBoxAddress()":"eb77ff0f","borrowStageReached()":"7c27e19f","borrowedMimAmount()":"e7cda06d","borrowedMimShare()":"6208fdd8","cachedRateAfter()":"943b91d8","cachedRateBefore()":"6ce2b01d","collateralSeedAmount()":"bd3d49c5","collateralShareAdded()":"4071084d","collateralToken()":"b2016bd4","directOracleRate()":"6d02b5ca","directOracleSuccess()":"a8b81f55","execute()":"61461954","executeAttempt()":"ae7bbb9e","executeOnOpportunity()":"3c2448ed","exploit()":"63d9b770","extractableMimAmount()":"f0023531","feeTopUpSpentMim()":"0c269f6e","flashCollateralAmount()":"892d0bd2","flashCollateralFee()":"5a6e402b","hypothesisRefuted()":"495f92f1","hypothesisValidated()":"463defd1","infeasibleReason()":"a6652157","liquidateStageReached()":"9348a238","liquidationBlocked()":"b7021f77","liveTargetCachedZero()":"b40d2e98","liveTargetInitPathOnly()":"cf30cf7b","liveTargetUpdateZeroWorked()":"ace5cb58","liveTargetZeroRateMissing()":"ea544593","liveUpdateRate()":"de02cfdf","onFlashLoan(address,address,uint256,uint256,bytes)":"23e30c8b","oracleAddress()":"a89ae4ba","oracleDataBlob()":"e3fc037b","oracleStageReached()":"e8c28fee","path0OracleReturnedTrueZeroOrTargetCachedZero()":"668f67f1","path1UpdateExchangeRateCachedZero()":"58ea35a6","path2DustCollateralAddedThenBorrowed()":"c957fb1f","path3LiquidationBlockedAtZeroRate()":"a6927683","postBorrowSolvent()":"d5b5a557","profitAmount()":"5ff972cc","profitToken()":"49343624","removeCollateralStageReached()":"8594a2fb","residualCollateralShare()":"8b4a719c","run()":"c0406226","selectedTarget()":"2edf00fb","targetMimAmount()":"8d0f8c87","targetMimShare()":"de4226f6","updateRateStageReached()":"a539b246","usedLiveTarget()":"5a41b82a","usedValidationClone()":"2759f2f1","validationClone()":"370be116","zeroOracle()":"22cb9ca3","zeroRateObserved()":"d40d4fdf"},"id":0}