{"abi":[{"type":"constructor","inputs":[{"name":"attacker_","type":"address","internalType":"address"}],"stateMutability":"nonpayable"},{"type":"function","name":"attacker","inputs":[],"outputs":[{"name":"","type":"address","internalType":"address"}],"stateMutability":"view"},{"type":"function","name":"controller","inputs":[],"outputs":[{"name":"","type":"address","internalType":"address"}],"stateMutability":"view"},{"type":"function","name":"governance","inputs":[],"outputs":[{"name":"","type":"address","internalType":"address"}],"stateMutability":"view"},{"type":"function","name":"greyList","inputs":[{"name":"","type":"address","internalType":"address"}],"outputs":[{"name":"","type":"bool","internalType":"bool"}],"stateMutability":"pure"},{"type":"function","name":"isController","inputs":[{"name":"who","type":"address","internalType":"address"}],"outputs":[{"name":"","type":"bool","internalType":"bool"}],"stateMutability":"view"},{"type":"function","name":"isGovernance","inputs":[{"name":"who","type":"address","internalType":"address"}],"outputs":[{"name":"","type":"bool","internalType":"bool"}],"stateMutability":"view"},{"type":"function","name":"nextImplementationDelay","inputs":[],"outputs":[{"name":"","type":"uint256","internalType":"uint256"}],"stateMutability":"pure"}],"bytecode":{"object":"0x60a060405234801561000f575f5ffd5b50604051610539380380610539833981810160405281019061003191906100c9565b8073ffffffffffffffffffffffffffffffffffffffff1660808173ffffffffffffffffffffffffffffffffffffffff1681525050506100f4565b5f5ffd5b5f73ffffffffffffffffffffffffffffffffffffffff82169050919050565b5f6100988261006f565b9050919050565b6100a88161008e565b81146100b2575f5ffd5b50565b5f815190506100c38161009f565b92915050565b5f602082840312156100de576100dd61006b565b5b5f6100eb848285016100b5565b91505092915050565b6080516104186101215f395f8181610192015281816101b7015281816101e5015261027201526104185ff3fe608060405234801561000f575f5ffd5b506004361061007b575f3560e01c8063a836569311610059578063a8365693146100eb578063b429afeb14610109578063dee1f0e414610139578063f77c4791146101695761007b565b806330e412ad1461007f57806348eb76ee146100af5780635aa6e675146100cd575b5f5ffd5b6100996004803603810190610094919061032b565b610187565b6040516100a69190610370565b60405180910390f35b6100b7610190565b6040516100c49190610398565b60405180910390f35b6100d56101b4565b6040516100e29190610398565b60405180910390f35b6100f36101db565b60405161010091906103c9565b60405180910390f35b610123600480360381019061011e919061032b565b6101e2565b6040516101309190610370565b60405180910390f35b610153600480360381019061014e919061032b565b61026f565b6040516101609190610370565b60405180910390f35b6101716102c6565b60405161017e9190610398565b60405180910390f35b5f5f9050919050565b7f000000000000000000000000000000000000000000000000000000000000000081565b5f7f0000000000000000000000000000000000000000000000000000000000000000905090565b5f5f905090565b5f7f000000000000000000000000000000000000000000000000000000000000000073ffffffffffffffffffffffffffffffffffffffff168273ffffffffffffffffffffffffffffffffffffffff16148061026857503073ffffffffffffffffffffffffffffffffffffffff168273ffffffffffffffffffffffffffffffffffffffff16145b9050919050565b5f7f000000000000000000000000000000000000000000000000000000000000000073ffffffffffffffffffffffffffffffffffffffff168273ffffffffffffffffffffffffffffffffffffffff16149050919050565b5f30905090565b5f5ffd5b5f73ffffffffffffffffffffffffffffffffffffffff82169050919050565b5f6102fa826102d1565b9050919050565b61030a816102f0565b8114610314575f5ffd5b50565b5f8135905061032581610301565b92915050565b5f602082840312156103405761033f6102cd565b5b5f61034d84828501610317565b91505092915050565b5f8115159050919050565b61036a81610356565b82525050565b5f6020820190506103835f830184610361565b92915050565b610392816102f0565b82525050565b5f6020820190506103ab5f830184610389565b92915050565b5f819050919050565b6103c3816103b1565b82525050565b5f6020820190506103dc5f8301846103ba565b9291505056fea264697066735822122089801f5c08b8fa692cf24bfbf27c5313336e9b2d4fc9f1e730634ddb8c76264d64736f6c634300081e0033","linkReferences":{}},"methodIdentifiers":{"attacker()":"48eb76ee","controller()":"f77c4791","governance()":"5aa6e675","greyList(address)":"30e412ad","isController(address)":"b429afeb","isGovernance(address)":"dee1f0e4","nextImplementationDelay()":"a8365693"},"id":0}