{"abi":[{"type":"constructor","inputs":[],"stateMutability":"nonpayable"},{"type":"function","name":"executeOnOpportunity","inputs":[],"outputs":[],"stateMutability":"nonpayable"},{"type":"function","name":"maliciousStrategyInstalled","inputs":[],"outputs":[{"name":"","type":"bool","internalType":"bool"}],"stateMutability":"view"},{"type":"function","name":"monetizationAttempted","inputs":[],"outputs":[{"name":"","type":"bool","internalType":"bool"}],"stateMutability":"view"},{"type":"function","name":"profitAmount","inputs":[],"outputs":[{"name":"","type":"uint256","internalType":"uint256"}],"stateMutability":"view"},{"type":"function","name":"profitToken","inputs":[],"outputs":[{"name":"","type":"address","internalType":"address"}],"stateMutability":"view"},{"type":"function","name":"seizedVault","inputs":[],"outputs":[{"name":"","type":"address","internalType":"address"}],"stateMutability":"view"},{"type":"function","name":"takeoverSucceeded","inputs":[],"outputs":[{"name":"","type":"bool","internalType":"bool"}],"stateMutability":"view"}],"bytecode":{"object":"0x6080604052348015600e575f5ffd5b506132e28061001c5f395ff3fe608060405234801561000f575f5ffd5b506004361061007b575f3560e01c80635ff972cc116100595780635ff972cc146100c55780639d0a71d9146100e3578063b9a8195414610101578063e7e42cf21461011f5761007b565b80633c2448ed1461007f57806340ce12fc1461008957806349343624146100a7575b5f5ffd5b61008761013d565b005b61009161095e565b60405161009e9190610eea565b60405180910390f35b6100af610983565b6040516100bc9190610eea565b60405180910390f35b6100cd6109aa565b6040516100da9190610f1b565b60405180910390f35b6100eb6109b3565b6040516100f89190610f4e565b60405180910390f35b6101096109c6565b6040516101169190610f4e565b60405180910390f35b6101276109d9565b6040516101349190610f4e565b60405180910390f35b5f60015414158061015a5750600260149054906101000a900460ff165b61095c575f6101676109ec565b90505f73ffffffffffffffffffffffffffffffffffffffff168173ffffffffffffffffffffffffffffffffffffffff16036101a2575061095c565b5f6101ab610a76565b90505f73ffffffffffffffffffffffffffffffffffffffff168173ffffffffffffffffffffffffffffffffffffffff16036101f85773a0b86991c6218b36c1d19d4a2e9eb0ce3606eb4890505b5f3060405161020690610e84565b6102109190610eea565b604051809103905ff080158015610229573d5f5f3e3d5ffd5b5090505f8360405161023a90610e91565b6102449190610eea565b604051809103905ff08015801561025d573d5f5f3e3d5ffd5b5090505f73f0358e8c3cd5fa238a29301d0bea3d63a17bedbe9050610283818486610cf1565b6102a457819050610295818486610cf1565b6102a357505050505061095c565b5b8060025f6101000a81548173ffffffffffffffffffffffffffffffffffffffff021916908373ffffffffffffffffffffffffffffffffffffffff1602179055503073ffffffffffffffffffffffffffffffffffffffff1660025f9054906101000a900473ffffffffffffffffffffffffffffffffffffffff1673ffffffffffffffffffffffffffffffffffffffff16635aa6e6756040518163ffffffff1660e01b8152600401602060405180830381865afa158015610365573d5f5f3e3d5ffd5b505050506040513d601f19601f820116820180604052508101906103899190610f95565b73ffffffffffffffffffffffffffffffffffffffff1614801561046457508273ffffffffffffffffffffffffffffffffffffffff1660025f9054906101000a900473ffffffffffffffffffffffffffffffffffffffff1673ffffffffffffffffffffffffffffffffffffffff1663f77c47916040518163ffffffff1660e01b8152600401602060405180830381865afa158015610428573d5f5f3e3d5ffd5b505050506040513d601f19601f8201168201806040525081019061044c9190610f95565b73ffffffffffffffffffffffffffffffffffffffff16145b801561052857508373ffffffffffffffffffffffffffffffffffffffff1660025f9054906101000a900473ffffffffffffffffffffffffffffffffffffffff1673ffffffffffffffffffffffffffffffffffffffff16636f307dc36040518163ffffffff1660e01b8152600401602060405180830381865afa1580156104ec573d5f5f3e3d5ffd5b505050506040513d601f19601f820116820180604052508101906105109190610f95565b73ffffffffffffffffffffffffffffffffffffffff16145b600260146101000a81548160ff021916908315150217905550600260149054906101000a900460ff1661055f57505050505061095c565b5f60025f9054906101000a900473ffffffffffffffffffffffffffffffffffffffff16853060405161059090610e9e565b61059c93929190610fc0565b604051809103905ff0801580156105b5573d5f5f3e3d5ffd5b50905060025f9054906101000a900473ffffffffffffffffffffffffffffffffffffffff1673ffffffffffffffffffffffffffffffffffffffff166333a100ca826040518263ffffffff1660e01b81526004016106129190610eea565b5f604051808303815f87803b158015610629575f5ffd5b505af192505050801561063a575060015b61065d575f600260156101000a81548160ff021916908315150217905550610733565b8073ffffffffffffffffffffffffffffffffffffffff1660025f9054906101000a900473ffffffffffffffffffffffffffffffffffffffff1673ffffffffffffffffffffffffffffffffffffffff1663a8c62e766040518163ffffffff1660e01b8152600401602060405180830381865afa1580156106de573d5f5f3e3d5ffd5b505050506040513d601f19601f820116820180604052508101906107029190610f95565b73ffffffffffffffffffffffffffffffffffffffff1614600260156101000a81548160ff0219169083151502179055505b600260159054906101000a900460ff166107525750505050505061095c565b5f61075d8630610d72565b90505f61078b8760025f9054906101000a900473ffffffffffffffffffffffffffffffffffffffff16610d72565b90505f81036107bb575f600260166101000a81548160ff021916908315150217905550505050505050505061095c565b6001600260166101000a81548160ff02191690831515021790555060025f9054906101000a900473ffffffffffffffffffffffffffffffffffffffff1673ffffffffffffffffffffffffffffffffffffffff16637d7c2a1c6040518163ffffffff1660e01b81526004015f604051808303815f87803b15801561083c575f5ffd5b505af192505050801561084d575060015b61085e57505050505050505061095c565b5f6108698885610d72565b90505f81036108805750505050505050505061095c565b8373ffffffffffffffffffffffffffffffffffffffff166362c06767308a846040518463ffffffff1660e01b81526004016108bd93929190610ff5565b5f604051808303815f87803b1580156108d4575f5ffd5b505af11580156108e6573d5f5f3e3d5ffd5b50505050505f6108f68830610d72565b90508281111561095257875f5f6101000a81548173ffffffffffffffffffffffffffffffffffffffff021916908373ffffffffffffffffffffffffffffffffffffffff160217905550828161094b9190611057565b6001819055505b5050505050505050505b565b60025f9054906101000a900473ffffffffffffffffffffffffffffffffffffffff1681565b5f5f5f9054906101000a900473ffffffffffffffffffffffffffffffffffffffff16905090565b5f600154905090565b600260159054906101000a900460ff1681565b600260169054906101000a900460ff1681565b600260149054906101000a900460ff1681565b5f73f0358e8c3cd5fa238a29301d0bea3d63a17bedbe73ffffffffffffffffffffffffffffffffffffffff16635c60da1b6040518163ffffffff1660e01b8152600401602060405180830381865afa925050508015610a6957506040513d601f19601f82011682018060405250810190610a669190610f95565b60015b15610a7357809150505b90565b5f5f6040518060e00160405280736b175474e89094c44da98b954eedeac495271d0f73ffffffffffffffffffffffffffffffffffffffff1673ffffffffffffffffffffffffffffffffffffffff16815260200173a0b86991c6218b36c1d19d4a2e9eb0ce3606eb4873ffffffffffffffffffffffffffffffffffffffff1673ffffffffffffffffffffffffffffffffffffffff16815260200173dac17f958d2ee523a2206206994597c13d831ec773ffffffffffffffffffffffffffffffffffffffff1673ffffffffffffffffffffffffffffffffffffffff16815260200173c02aaa39b223fe8d0a0e5c4f27ead9083c756cc273ffffffffffffffffffffffffffffffffffffffff1673ffffffffffffffffffffffffffffffffffffffff168152602001732260fac5e5542a773aa44fbcfedf7c193bc2c59973ffffffffffffffffffffffffffffffffffffffff1673ffffffffffffffffffffffffffffffffffffffff168152602001736c3f90f043a72fa612cbac8115ee7e52bde6e49073ffffffffffffffffffffffffffffffffffffffff1673ffffffffffffffffffffffffffffffffffffffff16815260200173df5e0e81dff6faf3a7e52ba697820c5e32d806a873ffffffffffffffffffffffffffffffffffffffff1673ffffffffffffffffffffffffffffffffffffffff1681525090505f5f5f5f90505b6007811015610ce7575f610cb3858360078110610c9457610c9361108a565b5b602002015173f0358e8c3cd5fa238a29301d0bea3d63a17bedbe610d72565b905083811115610cdb57809350848260078110610cd357610cd261108a565b5b602002015192505b50806001019050610c74565b5080935050505090565b5f8373ffffffffffffffffffffffffffffffffffffffff16638fc1708c84846001806040518563ffffffff1660e01b8152600401610d3294939291906110f9565b5f604051808303815f87803b158015610d49575f5ffd5b505af1925050508015610d5a575060015b610d66575f9050610d6b565b600190505b9392505050565b5f5f5f8473ffffffffffffffffffffffffffffffffffffffff166370a0823160e01b85604051602401610da59190610eea565b604051602081830303815290604052907bffffffffffffffffffffffffffffffffffffffffffffffffffffffff19166020820180517bffffffffffffffffffffffffffffffffffffffffffffffffffffffff8381831617835250505050604051610e0f919061118e565b5f60405180830381855afa9150503d805f8114610e47576040519150601f19603f3d011682016040523d82523d5f602084013e610e4c565b606091505b5091509150818015610e6057506020815110155b15610e7c5780806020019051810190610e7991906111ce565b92505b505092915050565b610539806111fa83390190565b61039c8061173383390190565b6117de80611acf83390190565b5f73ffffffffffffffffffffffffffffffffffffffff82169050919050565b5f610ed482610eab565b9050919050565b610ee481610eca565b82525050565b5f602082019050610efd5f830184610edb565b92915050565b5f819050919050565b610f1581610f03565b82525050565b5f602082019050610f2e5f830184610f0c565b92915050565b5f8115159050919050565b610f4881610f34565b82525050565b5f602082019050610f615f830184610f3f565b92915050565b5f5ffd5b610f7481610eca565b8114610f7e575f5ffd5b50565b5f81519050610f8f81610f6b565b92915050565b5f60208284031215610faa57610fa9610f67565b5b5f610fb784828501610f81565b91505092915050565b5f606082019050610fd35f830186610edb565b610fe06020830185610edb565b610fed6040830184610edb565b949350505050565b5f6060820190506110085f830186610edb565b6110156020830185610edb565b6110226040830184610f0c565b949350505050565b7f4e487b71000000000000000000000000000000000000000000000000000000005f52601160045260245ffd5b5f61106182610f03565b915061106c83610f03565b92508282039050818111156110845761108361102a565b5b92915050565b7f4e487b71000000000000000000000000000000000000000000000000000000005f52603260045260245ffd5b5f819050919050565b5f819050919050565b5f6110e36110de6110d9846110b7565b6110c0565b610f03565b9050919050565b6110f3816110c9565b82525050565b5f60808201905061110c5f830187610edb565b6111196020830186610edb565b61112660408301856110ea565b61113360608301846110ea565b95945050505050565b5f81519050919050565b5f81905092915050565b8281835e5f83830152505050565b5f6111688261113c565b6111728185611146565b9350611182818560208601611150565b80840191505092915050565b5f611199828461115e565b915081905092915050565b6111ad81610f03565b81146111b7575f5ffd5b50565b5f815190506111c8816111a4565b92915050565b5f602082840312156111e3576111e2610f67565b5b5f6111f0848285016111ba565b9150509291505056fe60a060405234801561000f575f5ffd5b50604051610539380380610539833981810160405281019061003191906100c9565b8073ffffffffffffffffffffffffffffffffffffffff1660808173ffffffffffffffffffffffffffffffffffffffff1681525050506100f4565b5f5ffd5b5f73ffffffffffffffffffffffffffffffffffffffff82169050919050565b5f6100988261006f565b9050919050565b6100a88161008e565b81146100b2575f5ffd5b50565b5f815190506100c38161009f565b92915050565b5f602082840312156100de576100dd61006b565b5b5f6100eb848285016100b5565b91505092915050565b6080516104186101215f395f8181610192015281816101b7015281816101e5015261027201526104185ff3fe608060405234801561000f575f5ffd5b506004361061007b575f3560e01c8063a836569311610059578063a8365693146100eb578063b429afeb14610109578063dee1f0e414610139578063f77c4791146101695761007b565b806330e412ad1461007f57806348eb76ee146100af5780635aa6e675146100cd575b5f5ffd5b6100996004803603810190610094919061032b565b610187565b6040516100a69190610370565b60405180910390f35b6100b7610190565b6040516100c49190610398565b60405180910390f35b6100d56101b4565b6040516100e29190610398565b60405180910390f35b6100f36101db565b60405161010091906103c9565b60405180910390f35b610123600480360381019061011e919061032b565b6101e2565b6040516101309190610370565b60405180910390f35b610153600480360381019061014e919061032b565b61026f565b6040516101609190610370565b60405180910390f35b6101716102c6565b60405161017e9190610398565b60405180910390f35b5f5f9050919050565b7f000000000000000000000000000000000000000000000000000000000000000081565b5f7f0000000000000000000000000000000000000000000000000000000000000000905090565b5f5f905090565b5f7f000000000000000000000000000000000000000000000000000000000000000073ffffffffffffffffffffffffffffffffffffffff168273ffffffffffffffffffffffffffffffffffffffff16148061026857503073ffffffffffffffffffffffffffffffffffffffff168273ffffffffffffffffffffffffffffffffffffffff16145b9050919050565b5f7f000000000000000000000000000000000000000000000000000000000000000073ffffffffffffffffffffffffffffffffffffffff168273ffffffffffffffffffffffffffffffffffffffff16149050919050565b5f30905090565b5f5ffd5b5f73ffffffffffffffffffffffffffffffffffffffff82169050919050565b5f6102fa826102d1565b9050919050565b61030a816102f0565b8114610314575f5ffd5b50565b5f8135905061032581610301565b92915050565b5f602082840312156103405761033f6102cd565b5b5f61034d84828501610317565b91505092915050565b5f8115159050919050565b61036a81610356565b82525050565b5f6020820190506103835f830184610361565b92915050565b610392816102f0565b82525050565b5f6020820190506103ab5f830184610389565b92915050565b5f819050919050565b6103c3816103b1565b82525050565b5f6020820190506103dc5f8301846103ba565b9291505056fea264697066735822122089801f5c08b8fa692cf24bfbf27c5313336e9b2d4fc9f1e730634ddb8c76264d64736f6c634300081e0033608060405234801561000f575f5ffd5b5060405161039c38038061039c833981810160405281019061003191906100cd565b5f60017f360894a13ba1a3210667c828492db98dca3e2076cc3735a920a3ca505d382bbd5f1c610061919061012e565b5f1b90508181555050610161565b5f5ffd5b5f73ffffffffffffffffffffffffffffffffffffffff82169050919050565b5f61009c82610073565b9050919050565b6100ac81610092565b81146100b6575f5ffd5b50565b5f815190506100c7816100a3565b92915050565b5f602082840312156100e2576100e161006f565b5b5f6100ef848285016100b9565b91505092915050565b5f819050919050565b7f4e487b71000000000000000000000000000000000000000000000000000000005f52601160045260245ffd5b5f610138826100f8565b9150610143836100f8565b925082820390508181111561015b5761015a610101565b5b92915050565b61022e8061016e5f395ff3fe608060405260043610610021575f3560e01c80635c60da1b146100d05761007b565b3661007b575f60017f360894a13ba1a3210667c828492db98dca3e2076cc3735a920a3ca505d382bbd5f1c610056919061016d565b5f1b90508054365f5f375f5f365f845af43d5f5f3e805f8114610077573d5ff35b3d5ffd5b5f60017f360894a13ba1a3210667c828492db98dca3e2076cc3735a920a3ca505d382bbd5f1c6100ab919061016d565b5f1b90508054365f5f375f5f365f845af43d5f5f3e805f81146100cc573d5ff35b3d5ffd5b3480156100db575f5ffd5b506100e46100fa565b6040516100f191906101df565b60405180910390f35b5f5f60017f360894a13ba1a3210667c828492db98dca3e2076cc3735a920a3ca505d382bbd5f1c61012b919061016d565b5f1b9050805491505090565b5f819050919050565b7f4e487b71000000000000000000000000000000000000000000000000000000005f52601160045260245ffd5b5f61017782610137565b915061018283610137565b925082820390508181111561019a57610199610140565b5b92915050565b5f73ffffffffffffffffffffffffffffffffffffffff82169050919050565b5f6101c9826101a0565b9050919050565b6101d9816101bf565b82525050565b5f6020820190506101f25f8301846101d0565b9291505056fea264697066735822122038fca3b514876aae1c16d021f3ae757f5ed14dcb6bb5d41ab66b704a4910e8d464736f6c634300081e003360c060405234801561000f575f5ffd5b506040516117de3803806117de8339818101604052810190610031919061017e565b8273ffffffffffffffffffffffffffffffffffffffff1660a08173ffffffffffffffffffffffffffffffffffffffff16815250508173ffffffffffffffffffffffffffffffffffffffff1660808173ffffffffffffffffffffffffffffffffffffffff1681525050805f5f6101000a81548173ffffffffffffffffffffffffffffffffffffffff021916908373ffffffffffffffffffffffffffffffffffffffff1602179055508060015f6101000a81548173ffffffffffffffffffffffffffffffffffffffff021916908373ffffffffffffffffffffffffffffffffffffffff1602179055505050506101ce565b5f5ffd5b5f73ffffffffffffffffffffffffffffffffffffffff82169050919050565b5f61014d82610124565b9050919050565b61015d81610143565b8114610167575f5ffd5b50565b5f8151905061017881610154565b92915050565b5f5f5f6060848603121561019557610194610120565b5b5f6101a28682870161016a565b93505060206101b38682870161016a565b92505060406101c48682870161016a565b9150509250925092565b60805160a05161156a6102745f395f81816103170152818161041f015281816104790152818161052c01528181610578015281816105a30152818161080c015281816109140152818161096e01528181610a760152610b1f01525f81816103fe0152818161044d0152818161050b0152818161055701528181610605015281816106f301528181610718015281816108f3015281816109380152610a55015261156a5ff3fe608060405234801561000f575f5ffd5b5060043610610114575f3560e01c8063894b16e7116100a0578063ce8c42e81161006f578063ce8c42e81461026e578063d0e30db01461028a578063e067730014610294578063f77c4791146102b2578063fbfa77cf146102d057610114565b8063894b16e7146101fa578063bdb1b33e1461022a578063bfd131f114610246578063c2a2a07b1461025057610114565b80634fa5d854116100e75780634fa5d8541461017a57806359356c5c146101845780635aa6e675146101a257806362c06767146101c05780636f307dc3146101dc57610114565b80631fe4a686146101185780632e1a7d4d1461013657806345d01e4a146101525780634a8cfa6914610170575b5f5ffd5b6101206102ee565b60405161012d9190610f45565b60405180910390f35b610150600480360381019061014b9190610f95565b610315565b005b61015a610447565b6040516101679190610fcf565b60405180910390f35b610178610477565b005b6101826105a1565b005b61018c6105ff565b6040516101999190610fcf565b60405180910390f35b6101aa61062f565b6040516101b79190610f45565b60405180910390f35b6101da60048036038101906101d59190611012565b610653565b005b6101e46106f1565b6040516101f19190610f45565b60405180910390f35b610214600480360381019061020f9190611062565b610715565b60405161022191906110a7565b60405180910390f35b610244600480360381019061023f9190611012565b61076c565b005b61024e61080a565b005b610258610964565b60405161026591906110a7565b60405180910390f35b61028860048036038101906102839190610f95565b61096c565b005b610292610a9e565b005b61029c610aa8565b6040516102a99190611177565b60405180910390f35b6102ba610af8565b6040516102c79190610f45565b60405180910390f35b6102d8610b1d565b6040516102e59190610f45565b60405180910390f35b5f5f5f9054906101000a900473ffffffffffffffffffffffffffffffffffffffff16905090565b7f000000000000000000000000000000000000000000000000000000000000000073ffffffffffffffffffffffffffffffffffffffff163373ffffffffffffffffffffffffffffffffffffffff1614806103ba57505f5f9054906101000a900473ffffffffffffffffffffffffffffffffffffffff1673ffffffffffffffffffffffffffffffffffffffff163373ffffffffffffffffffffffffffffffffffffffff16145b6103f9576040517f08c379a00000000000000000000000000000000000000000000000000000000081526004016103f0906111f1565b60405180910390fd5b6104447f00000000000000000000000000000000000000000000000000000000000000007f000000000000000000000000000000000000000000000000000000000000000083610b41565b50565b5f6104727f000000000000000000000000000000000000000000000000000000000000000030610c99565b905090565b7f000000000000000000000000000000000000000000000000000000000000000073ffffffffffffffffffffffffffffffffffffffff163373ffffffffffffffffffffffffffffffffffffffff1614610505576040517f08c379a00000000000000000000000000000000000000000000000000000000081526004016104fc90611259565b60405180910390fd5b5f6105507f00000000000000000000000000000000000000000000000000000000000000007f0000000000000000000000000000000000000000000000000000000000000000610c99565b905061059e7f00000000000000000000000000000000000000000000000000000000000000007f00000000000000000000000000000000000000000000000000000000000000003084610dab565b50565b7f000000000000000000000000000000000000000000000000000000000000000073ffffffffffffffffffffffffffffffffffffffff163373ffffffffffffffffffffffffffffffffffffffff16036105fd576105fc610477565b5b565b5f61062a7f000000000000000000000000000000000000000000000000000000000000000030610c99565b905090565b5f5f9054906101000a900473ffffffffffffffffffffffffffffffffffffffff1681565b5f5f9054906101000a900473ffffffffffffffffffffffffffffffffffffffff1673ffffffffffffffffffffffffffffffffffffffff163373ffffffffffffffffffffffffffffffffffffffff16146106e1576040517f08c379a00000000000000000000000000000000000000000000000000000000081526004016106d8906112c1565b60405180910390fd5b6106ec828483610b41565b505050565b7f000000000000000000000000000000000000000000000000000000000000000081565b5f7f000000000000000000000000000000000000000000000000000000000000000073ffffffffffffffffffffffffffffffffffffffff168273ffffffffffffffffffffffffffffffffffffffff16149050919050565b5f5f9054906101000a900473ffffffffffffffffffffffffffffffffffffffff1673ffffffffffffffffffffffffffffffffffffffff163373ffffffffffffffffffffffffffffffffffffffff16146107fa576040517f08c379a00000000000000000000000000000000000000000000000000000000081526004016107f1906112c1565b60405180910390fd5b610805828483610b41565b505050565b7f000000000000000000000000000000000000000000000000000000000000000073ffffffffffffffffffffffffffffffffffffffff163373ffffffffffffffffffffffffffffffffffffffff1614806108af57505f5f9054906101000a900473ffffffffffffffffffffffffffffffffffffffff1673ffffffffffffffffffffffffffffffffffffffff163373ffffffffffffffffffffffffffffffffffffffff16145b6108ee576040517f08c379a00000000000000000000000000000000000000000000000000000000081526004016108e5906111f1565b60405180910390fd5b6109627f00000000000000000000000000000000000000000000000000000000000000007f000000000000000000000000000000000000000000000000000000000000000061095d7f000000000000000000000000000000000000000000000000000000000000000030610c99565b610b41565b565b5f6001905090565b7f000000000000000000000000000000000000000000000000000000000000000073ffffffffffffffffffffffffffffffffffffffff163373ffffffffffffffffffffffffffffffffffffffff161480610a1157505f5f9054906101000a900473ffffffffffffffffffffffffffffffffffffffff1673ffffffffffffffffffffffffffffffffffffffff163373ffffffffffffffffffffffffffffffffffffffff16145b610a50576040517f08c379a0000000000000000000000000000000000000000000000000000000008152600401610a47906111f1565b60405180910390fd5b610a9b7f00000000000000000000000000000000000000000000000000000000000000007f000000000000000000000000000000000000000000000000000000000000000083610b41565b50565b610aa6610477565b565b60605f67ffffffffffffffff811115610ac457610ac36112df565b5b604051908082528060200260200182016040528015610af25781602001602082028036833780820191505090505b50905090565b60015f9054906101000a900473ffffffffffffffffffffffffffffffffffffffff1681565b7f000000000000000000000000000000000000000000000000000000000000000081565b5f810315610c94575f5f8473ffffffffffffffffffffffffffffffffffffffff1663a9059cbb60e01b8585604051602401610b7d92919061130c565b604051602081830303815290604052907bffffffffffffffffffffffffffffffffffffffffffffffffffffffff19166020820180517bffffffffffffffffffffffffffffffffffffffffffffffffffffffff8381831617835250505050604051610be79190611385565b5f604051808303815f865af19150503d805f8114610c20576040519150601f19603f3d011682016040523d82523d5f602084013e610c25565b606091505b5091509150818015610c5257505f81511480610c51575080806020019051810190610c5091906113c5565b5b5b610c91576040517f08c379a0000000000000000000000000000000000000000000000000000000008152600401610c889061143a565b60405180910390fd5b50505b505050565b5f5f5f8473ffffffffffffffffffffffffffffffffffffffff166370a0823160e01b85604051602401610ccc9190610f45565b604051602081830303815290604052907bffffffffffffffffffffffffffffffffffffffffffffffffffffffff19166020820180517bffffffffffffffffffffffffffffffffffffffffffffffffffffffff8381831617835250505050604051610d369190611385565b5f60405180830381855afa9150503d805f8114610d6e576040519150601f19603f3d011682016040523d82523d5f602084013e610d73565b606091505b5091509150818015610d8757506020815110155b15610da35780806020019051810190610da0919061146c565b92505b505092915050565b5f810315610f00575f5f8573ffffffffffffffffffffffffffffffffffffffff166323b872dd60e01b868686604051602401610de993929190611497565b604051602081830303815290604052907bffffffffffffffffffffffffffffffffffffffffffffffffffffffff19166020820180517bffffffffffffffffffffffffffffffffffffffffffffffffffffffff8381831617835250505050604051610e539190611385565b5f604051808303815f865af19150503d805f8114610e8c576040519150601f19603f3d011682016040523d82523d5f602084013e610e91565b606091505b5091509150818015610ebe57505f81511480610ebd575080806020019051810190610ebc91906113c5565b5b5b610efd576040517f08c379a0000000000000000000000000000000000000000000000000000000008152600401610ef490611516565b60405180910390fd5b50505b50505050565b5f73ffffffffffffffffffffffffffffffffffffffff82169050919050565b5f610f2f82610f06565b9050919050565b610f3f81610f25565b82525050565b5f602082019050610f585f830184610f36565b92915050565b5f5ffd5b5f819050919050565b610f7481610f62565b8114610f7e575f5ffd5b50565b5f81359050610f8f81610f6b565b92915050565b5f60208284031215610faa57610fa9610f5e565b5b5f610fb784828501610f81565b91505092915050565b610fc981610f62565b82525050565b5f602082019050610fe25f830184610fc0565b92915050565b610ff181610f25565b8114610ffb575f5ffd5b50565b5f8135905061100c81610fe8565b92915050565b5f5f5f6060848603121561102957611028610f5e565b5b5f61103686828701610ffe565b935050602061104786828701610ffe565b925050604061105886828701610f81565b9150509250925092565b5f6020828403121561107757611076610f5e565b5b5f61108484828501610ffe565b91505092915050565b5f8115159050919050565b6110a18161108d565b82525050565b5f6020820190506110ba5f830184611098565b92915050565b5f81519050919050565b5f82825260208201905092915050565b5f819050602082019050919050565b6110f281610f62565b82525050565b5f61110383836110e9565b60208301905092915050565b5f602082019050919050565b5f611125826110c0565b61112f81856110ca565b935061113a836110da565b805f5b8381101561116a57815161115188826110f8565b975061115c8361110f565b92505060018101905061113d565b5085935050505092915050565b5f6020820190508181035f83015261118f818461111b565b905092915050565b5f82825260208201905092915050565b7f666f7262696464656e00000000000000000000000000000000000000000000005f82015250565b5f6111db600983611197565b91506111e6826111a7565b602082019050919050565b5f6020820190508181035f830152611208816111cf565b9050919050565b7f6e6f74207661756c7400000000000000000000000000000000000000000000005f82015250565b5f611243600983611197565b915061124e8261120f565b602082019050919050565b5f6020820190508181035f83015261127081611237565b9050919050565b7f6e6f7420676f7665726e616e63650000000000000000000000000000000000005f82015250565b5f6112ab600e83611197565b91506112b682611277565b602082019050919050565b5f6020820190508181035f8301526112d88161129f565b9050919050565b7f4e487b71000000000000000000000000000000000000000000000000000000005f52604160045260245ffd5b5f60408201905061131f5f830185610f36565b61132c6020830184610fc0565b9392505050565b5f81519050919050565b5f81905092915050565b8281835e5f83830152505050565b5f61135f82611333565b611369818561133d565b9350611379818560208601611347565b80840191505092915050565b5f6113908284611355565b915081905092915050565b6113a48161108d565b81146113ae575f5ffd5b50565b5f815190506113bf8161139b565b92915050565b5f602082840312156113da576113d9610f5e565b5b5f6113e7848285016113b1565b91505092915050565b7f7472616e73666572206661696c656400000000000000000000000000000000005f82015250565b5f611424600f83611197565b915061142f826113f0565b602082019050919050565b5f6020820190508181035f83015261145181611418565b9050919050565b5f8151905061146681610f6b565b92915050565b5f6020828403121561148157611480610f5e565b5b5f61148e84828501611458565b91505092915050565b5f6060820190506114aa5f830186610f36565b6114b76020830185610f36565b6114c46040830184610fc0565b949350505050565b7f7472616e7366657246726f6d206661696c6564000000000000000000000000005f82015250565b5f611500601383611197565b915061150b826114cc565b602082019050919050565b5f6020820190508181035f83015261152d816114f4565b905091905056fea2646970667358221220dadd4d42c177d21eaac12e515ca2ee07c594f65c5ce850109aff9887167f9e8064736f6c634300081e0033a264697066735822122089ec887e48e4fb8e5523bc8007bd78b0b11848e06ef3066c07c8fcf7511ba48f64736f6c634300081e0033","linkReferences":{}},"methodIdentifiers":{"executeOnOpportunity()":"3c2448ed","maliciousStrategyInstalled()":"9d0a71d9","monetizationAttempted()":"b9a81954","profitAmount()":"5ff972cc","profitToken()":"49343624","seizedVault()":"40ce12fc","takeoverSucceeded()":"e7e42cf2"},"id":0}