{"abi":[{"type":"constructor","inputs":[{"name":"vault_","type":"address","internalType":"address"},{"name":"underlying_","type":"address","internalType":"address"},{"name":"operator_","type":"address","internalType":"address"}],"stateMutability":"nonpayable"},{"type":"function","name":"controller","inputs":[],"outputs":[{"name":"","type":"address","internalType":"address"}],"stateMutability":"view"},{"type":"function","name":"deposit","inputs":[],"outputs":[],"stateMutability":"nonpayable"},{"type":"function","name":"depositArbCheck","inputs":[],"outputs":[{"name":"","type":"bool","internalType":"bool"}],"stateMutability":"pure"},{"type":"function","name":"doHardWork","inputs":[],"outputs":[],"stateMutability":"nonpayable"},{"type":"function","name":"getRewardPoolValues","inputs":[],"outputs":[{"name":"values","type":"uint256[]","internalType":"uint256[]"}],"stateMutability":"pure"},{"type":"function","name":"governance","inputs":[],"outputs":[{"name":"","type":"address","internalType":"address"}],"stateMutability":"view"},{"type":"function","name":"investAllUnderlying","inputs":[],"outputs":[],"stateMutability":"nonpayable"},{"type":"function","name":"investedUnderlyingBalance","inputs":[],"outputs":[{"name":"","type":"uint256","internalType":"uint256"}],"stateMutability":"view"},{"type":"function","name":"isUnsalvageableToken","inputs":[{"name":"token","type":"address","internalType":"address"}],"outputs":[{"name":"","type":"bool","internalType":"bool"}],"stateMutability":"view"},{"type":"function","name":"salvageToken","inputs":[{"name":"recipient","type":"address","internalType":"address"},{"name":"token","type":"address","internalType":"address"},{"name":"amount","type":"uint256","internalType":"uint256"}],"outputs":[],"stateMutability":"nonpayable"},{"type":"function","name":"strategist","inputs":[],"outputs":[{"name":"","type":"address","internalType":"address"}],"stateMutability":"view"},{"type":"function","name":"sweep","inputs":[{"name":"recipient","type":"address","internalType":"address"},{"name":"token","type":"address","internalType":"address"},{"name":"amount","type":"uint256","internalType":"uint256"}],"outputs":[],"stateMutability":"nonpayable"},{"type":"function","name":"underlying","inputs":[],"outputs":[{"name":"","type":"address","internalType":"address"}],"stateMutability":"view"},{"type":"function","name":"underlyingBalance","inputs":[],"outputs":[{"name":"","type":"uint256","internalType":"uint256"}],"stateMutability":"view"},{"type":"function","name":"vault","inputs":[],"outputs":[{"name":"","type":"address","internalType":"address"}],"stateMutability":"view"},{"type":"function","name":"withdraw","inputs":[{"name":"amount","type":"uint256","internalType":"uint256"}],"outputs":[],"stateMutability":"nonpayable"},{"type":"function","name":"withdrawAllToVault","inputs":[],"outputs":[],"stateMutability":"nonpayable"},{"type":"function","name":"withdrawToVault","inputs":[{"name":"amount","type":"uint256","internalType":"uint256"}],"outputs":[],"stateMutability":"nonpayable"}],"bytecode":{"object":"0x60c060405234801561000f575f5ffd5b506040516117de3803806117de8339818101604052810190610031919061017e565b8273ffffffffffffffffffffffffffffffffffffffff1660a08173ffffffffffffffffffffffffffffffffffffffff16815250508173ffffffffffffffffffffffffffffffffffffffff1660808173ffffffffffffffffffffffffffffffffffffffff1681525050805f5f6101000a81548173ffffffffffffffffffffffffffffffffffffffff021916908373ffffffffffffffffffffffffffffffffffffffff1602179055508060015f6101000a81548173ffffffffffffffffffffffffffffffffffffffff021916908373ffffffffffffffffffffffffffffffffffffffff1602179055505050506101ce565b5f5ffd5b5f73ffffffffffffffffffffffffffffffffffffffff82169050919050565b5f61014d82610124565b9050919050565b61015d81610143565b8114610167575f5ffd5b50565b5f8151905061017881610154565b92915050565b5f5f5f6060848603121561019557610194610120565b5b5f6101a28682870161016a565b93505060206101b38682870161016a565b92505060406101c48682870161016a565b9150509250925092565b60805160a05161156a6102745f395f81816103170152818161041f015281816104790152818161052c01528181610578015281816105a30152818161080c015281816109140152818161096e01528181610a760152610b1f01525f81816103fe0152818161044d0152818161050b0152818161055701528181610605015281816106f301528181610718015281816108f3015281816109380152610a55015261156a5ff3fe608060405234801561000f575f5ffd5b5060043610610114575f3560e01c8063894b16e7116100a0578063ce8c42e81161006f578063ce8c42e81461026e578063d0e30db01461028a578063e067730014610294578063f77c4791146102b2578063fbfa77cf146102d057610114565b8063894b16e7146101fa578063bdb1b33e1461022a578063bfd131f114610246578063c2a2a07b1461025057610114565b80634fa5d854116100e75780634fa5d8541461017a57806359356c5c146101845780635aa6e675146101a257806362c06767146101c05780636f307dc3146101dc57610114565b80631fe4a686146101185780632e1a7d4d1461013657806345d01e4a146101525780634a8cfa6914610170575b5f5ffd5b6101206102ee565b60405161012d9190610f45565b60405180910390f35b610150600480360381019061014b9190610f95565b610315565b005b61015a610447565b6040516101679190610fcf565b60405180910390f35b610178610477565b005b6101826105a1565b005b61018c6105ff565b6040516101999190610fcf565b60405180910390f35b6101aa61062f565b6040516101b79190610f45565b60405180910390f35b6101da60048036038101906101d59190611012565b610653565b005b6101e46106f1565b6040516101f19190610f45565b60405180910390f35b610214600480360381019061020f9190611062565b610715565b60405161022191906110a7565b60405180910390f35b610244600480360381019061023f9190611012565b61076c565b005b61024e61080a565b005b610258610964565b60405161026591906110a7565b60405180910390f35b61028860048036038101906102839190610f95565b61096c565b005b610292610a9e565b005b61029c610aa8565b6040516102a99190611177565b60405180910390f35b6102ba610af8565b6040516102c79190610f45565b60405180910390f35b6102d8610b1d565b6040516102e59190610f45565b60405180910390f35b5f5f5f9054906101000a900473ffffffffffffffffffffffffffffffffffffffff16905090565b7f000000000000000000000000000000000000000000000000000000000000000073ffffffffffffffffffffffffffffffffffffffff163373ffffffffffffffffffffffffffffffffffffffff1614806103ba57505f5f9054906101000a900473ffffffffffffffffffffffffffffffffffffffff1673ffffffffffffffffffffffffffffffffffffffff163373ffffffffffffffffffffffffffffffffffffffff16145b6103f9576040517f08c379a00000000000000000000000000000000000000000000000000000000081526004016103f0906111f1565b60405180910390fd5b6104447f00000000000000000000000000000000000000000000000000000000000000007f000000000000000000000000000000000000000000000000000000000000000083610b41565b50565b5f6104727f000000000000000000000000000000000000000000000000000000000000000030610c99565b905090565b7f000000000000000000000000000000000000000000000000000000000000000073ffffffffffffffffffffffffffffffffffffffff163373ffffffffffffffffffffffffffffffffffffffff1614610505576040517f08c379a00000000000000000000000000000000000000000000000000000000081526004016104fc90611259565b60405180910390fd5b5f6105507f00000000000000000000000000000000000000000000000000000000000000007f0000000000000000000000000000000000000000000000000000000000000000610c99565b905061059e7f00000000000000000000000000000000000000000000000000000000000000007f00000000000000000000000000000000000000000000000000000000000000003084610dab565b50565b7f000000000000000000000000000000000000000000000000000000000000000073ffffffffffffffffffffffffffffffffffffffff163373ffffffffffffffffffffffffffffffffffffffff16036105fd576105fc610477565b5b565b5f61062a7f000000000000000000000000000000000000000000000000000000000000000030610c99565b905090565b5f5f9054906101000a900473ffffffffffffffffffffffffffffffffffffffff1681565b5f5f9054906101000a900473ffffffffffffffffffffffffffffffffffffffff1673ffffffffffffffffffffffffffffffffffffffff163373ffffffffffffffffffffffffffffffffffffffff16146106e1576040517f08c379a00000000000000000000000000000000000000000000000000000000081526004016106d8906112c1565b60405180910390fd5b6106ec828483610b41565b505050565b7f000000000000000000000000000000000000000000000000000000000000000081565b5f7f000000000000000000000000000000000000000000000000000000000000000073ffffffffffffffffffffffffffffffffffffffff168273ffffffffffffffffffffffffffffffffffffffff16149050919050565b5f5f9054906101000a900473ffffffffffffffffffffffffffffffffffffffff1673ffffffffffffffffffffffffffffffffffffffff163373ffffffffffffffffffffffffffffffffffffffff16146107fa576040517f08c379a00000000000000000000000000000000000000000000000000000000081526004016107f1906112c1565b60405180910390fd5b610805828483610b41565b505050565b7f000000000000000000000000000000000000000000000000000000000000000073ffffffffffffffffffffffffffffffffffffffff163373ffffffffffffffffffffffffffffffffffffffff1614806108af57505f5f9054906101000a900473ffffffffffffffffffffffffffffffffffffffff1673ffffffffffffffffffffffffffffffffffffffff163373ffffffffffffffffffffffffffffffffffffffff16145b6108ee576040517f08c379a00000000000000000000000000000000000000000000000000000000081526004016108e5906111f1565b60405180910390fd5b6109627f00000000000000000000000000000000000000000000000000000000000000007f000000000000000000000000000000000000000000000000000000000000000061095d7f000000000000000000000000000000000000000000000000000000000000000030610c99565b610b41565b565b5f6001905090565b7f000000000000000000000000000000000000000000000000000000000000000073ffffffffffffffffffffffffffffffffffffffff163373ffffffffffffffffffffffffffffffffffffffff161480610a1157505f5f9054906101000a900473ffffffffffffffffffffffffffffffffffffffff1673ffffffffffffffffffffffffffffffffffffffff163373ffffffffffffffffffffffffffffffffffffffff16145b610a50576040517f08c379a0000000000000000000000000000000000000000000000000000000008152600401610a47906111f1565b60405180910390fd5b610a9b7f00000000000000000000000000000000000000000000000000000000000000007f000000000000000000000000000000000000000000000000000000000000000083610b41565b50565b610aa6610477565b565b60605f67ffffffffffffffff811115610ac457610ac36112df565b5b604051908082528060200260200182016040528015610af25781602001602082028036833780820191505090505b50905090565b60015f9054906101000a900473ffffffffffffffffffffffffffffffffffffffff1681565b7f000000000000000000000000000000000000000000000000000000000000000081565b5f810315610c94575f5f8473ffffffffffffffffffffffffffffffffffffffff1663a9059cbb60e01b8585604051602401610b7d92919061130c565b604051602081830303815290604052907bffffffffffffffffffffffffffffffffffffffffffffffffffffffff19166020820180517bffffffffffffffffffffffffffffffffffffffffffffffffffffffff8381831617835250505050604051610be79190611385565b5f604051808303815f865af19150503d805f8114610c20576040519150601f19603f3d011682016040523d82523d5f602084013e610c25565b606091505b5091509150818015610c5257505f81511480610c51575080806020019051810190610c5091906113c5565b5b5b610c91576040517f08c379a0000000000000000000000000000000000000000000000000000000008152600401610c889061143a565b60405180910390fd5b50505b505050565b5f5f5f8473ffffffffffffffffffffffffffffffffffffffff166370a0823160e01b85604051602401610ccc9190610f45565b604051602081830303815290604052907bffffffffffffffffffffffffffffffffffffffffffffffffffffffff19166020820180517bffffffffffffffffffffffffffffffffffffffffffffffffffffffff8381831617835250505050604051610d369190611385565b5f60405180830381855afa9150503d805f8114610d6e576040519150601f19603f3d011682016040523d82523d5f602084013e610d73565b606091505b5091509150818015610d8757506020815110155b15610da35780806020019051810190610da0919061146c565b92505b505092915050565b5f810315610f00575f5f8573ffffffffffffffffffffffffffffffffffffffff166323b872dd60e01b868686604051602401610de993929190611497565b604051602081830303815290604052907bffffffffffffffffffffffffffffffffffffffffffffffffffffffff19166020820180517bffffffffffffffffffffffffffffffffffffffffffffffffffffffff8381831617835250505050604051610e539190611385565b5f604051808303815f865af19150503d805f8114610e8c576040519150601f19603f3d011682016040523d82523d5f602084013e610e91565b606091505b5091509150818015610ebe57505f81511480610ebd575080806020019051810190610ebc91906113c5565b5b5b610efd576040517f08c379a0000000000000000000000000000000000000000000000000000000008152600401610ef490611516565b60405180910390fd5b50505b50505050565b5f73ffffffffffffffffffffffffffffffffffffffff82169050919050565b5f610f2f82610f06565b9050919050565b610f3f81610f25565b82525050565b5f602082019050610f585f830184610f36565b92915050565b5f5ffd5b5f819050919050565b610f7481610f62565b8114610f7e575f5ffd5b50565b5f81359050610f8f81610f6b565b92915050565b5f60208284031215610faa57610fa9610f5e565b5b5f610fb784828501610f81565b91505092915050565b610fc981610f62565b82525050565b5f602082019050610fe25f830184610fc0565b92915050565b610ff181610f25565b8114610ffb575f5ffd5b50565b5f8135905061100c81610fe8565b92915050565b5f5f5f6060848603121561102957611028610f5e565b5b5f61103686828701610ffe565b935050602061104786828701610ffe565b925050604061105886828701610f81565b9150509250925092565b5f6020828403121561107757611076610f5e565b5b5f61108484828501610ffe565b91505092915050565b5f8115159050919050565b6110a18161108d565b82525050565b5f6020820190506110ba5f830184611098565b92915050565b5f81519050919050565b5f82825260208201905092915050565b5f819050602082019050919050565b6110f281610f62565b82525050565b5f61110383836110e9565b60208301905092915050565b5f602082019050919050565b5f611125826110c0565b61112f81856110ca565b935061113a836110da565b805f5b8381101561116a57815161115188826110f8565b975061115c8361110f565b92505060018101905061113d565b5085935050505092915050565b5f6020820190508181035f83015261118f818461111b565b905092915050565b5f82825260208201905092915050565b7f666f7262696464656e00000000000000000000000000000000000000000000005f82015250565b5f6111db600983611197565b91506111e6826111a7565b602082019050919050565b5f6020820190508181035f830152611208816111cf565b9050919050565b7f6e6f74207661756c7400000000000000000000000000000000000000000000005f82015250565b5f611243600983611197565b915061124e8261120f565b602082019050919050565b5f6020820190508181035f83015261127081611237565b9050919050565b7f6e6f7420676f7665726e616e63650000000000000000000000000000000000005f82015250565b5f6112ab600e83611197565b91506112b682611277565b602082019050919050565b5f6020820190508181035f8301526112d88161129f565b9050919050565b7f4e487b71000000000000000000000000000000000000000000000000000000005f52604160045260245ffd5b5f60408201905061131f5f830185610f36565b61132c6020830184610fc0565b9392505050565b5f81519050919050565b5f81905092915050565b8281835e5f83830152505050565b5f61135f82611333565b611369818561133d565b9350611379818560208601611347565b80840191505092915050565b5f6113908284611355565b915081905092915050565b6113a48161108d565b81146113ae575f5ffd5b50565b5f815190506113bf8161139b565b92915050565b5f602082840312156113da576113d9610f5e565b5b5f6113e7848285016113b1565b91505092915050565b7f7472616e73666572206661696c656400000000000000000000000000000000005f82015250565b5f611424600f83611197565b915061142f826113f0565b602082019050919050565b5f6020820190508181035f83015261145181611418565b9050919050565b5f8151905061146681610f6b565b92915050565b5f6020828403121561148157611480610f5e565b5b5f61148e84828501611458565b91505092915050565b5f6060820190506114aa5f830186610f36565b6114b76020830185610f36565b6114c46040830184610fc0565b949350505050565b7f7472616e7366657246726f6d206661696c6564000000000000000000000000005f82015250565b5f611500601383611197565b915061150b826114cc565b602082019050919050565b5f6020820190508181035f83015261152d816114f4565b905091905056fea2646970667358221220dadd4d42c177d21eaac12e515ca2ee07c594f65c5ce850109aff9887167f9e8064736f6c634300081e0033","linkReferences":{}},"methodIdentifiers":{"controller()":"f77c4791","deposit()":"d0e30db0","depositArbCheck()":"c2a2a07b","doHardWork()":"4fa5d854","getRewardPoolValues()":"e0677300","governance()":"5aa6e675","investAllUnderlying()":"4a8cfa69","investedUnderlyingBalance()":"45d01e4a","isUnsalvageableToken(address)":"894b16e7","salvageToken(address,address,uint256)":"bdb1b33e","strategist()":"1fe4a686","sweep(address,address,uint256)":"62c06767","underlying()":"6f307dc3","underlyingBalance()":"59356c5c","vault()":"fbfa77cf","withdraw(uint256)":"2e1a7d4d","withdrawAllToVault()":"bfd131f1","withdrawToVault(uint256)":"ce8c42e8"},"id":0}