{"abi":[{"type":"constructor","inputs":[],"stateMutability":"nonpayable"},{"type":"fallback","stateMutability":"payable"},{"type":"receive","stateMutability":"payable"},{"type":"function","name":"executeOnOpportunity","inputs":[],"outputs":[],"stateMutability":"nonpayable"},{"type":"function","name":"isValidSignature","inputs":[{"name":"","type":"bytes32","internalType":"bytes32"},{"name":"","type":"bytes","internalType":"bytes"}],"outputs":[{"name":"","type":"bytes4","internalType":"bytes4"}],"stateMutability":"pure"},{"type":"function","name":"profitAmount","inputs":[],"outputs":[{"name":"","type":"uint256","internalType":"uint256"}],"stateMutability":"view"},{"type":"function","name":"profitToken","inputs":[],"outputs":[{"name":"","type":"address","internalType":"address"}],"stateMutability":"view"},{"type":"function","name":"resolveOrders","inputs":[{"name":"","type":"address","internalType":"address"},{"name":"","type":"bytes","internalType":"bytes"},{"name":"data","type":"bytes","internalType":"bytes"}],"outputs":[],"stateMutability":"nonpayable"}],"bytecode":{"object":"0x6080806040523460155761172b908161001a8239f35b5f80fdfe6080806040526004361015610011575b005b5f3560e01c9081631626ba7e1461011e575080631944799f146100b05780633c2448ed14610098578063493436241461007157635ff972cc1461005057005b3461006d575f36600319011261006d576020600154604051908152f35b5f80fd5b3461006d575f36600319011261006d575f546040516001600160a01b039091168152602090f35b3461006d575f36600319011261006d5761000f61039d565b3461006d57606036600319011261006d576004356001600160a01b0381160361006d5760243567ffffffffffffffff811161006d576100f3903690600401610160565b505060443567ffffffffffffffff811161006d5761011861000f913690600401610160565b90610205565b3461006d57604036600319011261006d576024359067ffffffffffffffff821161006d576101526020923690600401610160565b5050630b135d3f60e11b8152f35b9181601f8401121561006d5782359167ffffffffffffffff831161006d576020838186019501011161006d57565b610140810190811067ffffffffffffffff8211176101ab57604052565b634e487b7160e01b5f52604160045260245ffd5b90601f8019910116810190811067ffffffffffffffff8211176101ab57604052565b805180835260209291819084018484015e5f828201840152601f01601f1916010190565b9073a88800cd213da5ae406ce248380802bd53b47647330361032157602060016003540180600355118015610319575b61031557816060918101031261006d5780359060ff821680920361006d5760208101356001600160a01b038116929083900361006d576001036103155761027b82610ac5565b9182156103105760406102946102a19461029c93610bc3565b920135610c83565b610d16565b73a88800cd213da5ae406ce248380802bd53b476473b1561006d575f6102e39160405180938192630965d04b60e01b83526020600484015260248301906101e1565b03818373a88800cd213da5ae406ce248380802bd53b476475af16103045750565b5f61030e916101bf565b565b505050565b5050565b508015610235565b60405162461bcd60e51b815260206004820152600f60248201526e1bdb9b1e481cd95d1d1b195b595b9d608a1b6044820152606490fd5b8051156103655760200190565b634e487b7160e01b5f52603260045260245ffd5b8051600110156103655760400190565b80518210156103655760209160051b010190565b600254905f9160ff81166109f95760ff191660019081176002556103c030610b40565b1080610a7b575b610a12575b6103d461128a565b506103dd6113b7565b506103e66114c1565b506103ef6115cb565b5060405161048061040081836101bf565b60238252601f19013660208301375f5160206116d65f395f51905f5261042582610358565b52736b175474e89094c44da98b954eedeac495271d0f61044482610379565b528051600210156109fe5773a0b86991c6218b36c1d19d4a2e9eb0ce3606eb4860608201528051600310156109fe5773dac17f958d2ee523a2206206994597c13d831ec760808201528051600410156109fe5773111111111117dc0aa78b770fa6a738034120c30260a08201528051600510156109fe57732260fac5e5542a773aa44fbcfedf7c193bc2c59960c08201528051600610156109fe57731f9840a85d5af5bf1d1762f925bdaddc4201f98460e08201528051600710156109fe5773514910771af9ca656af840dff83e8264ecf986ca6101008201528051600810156109fe57737fc66500c84a76ad7e9c93437bfc5ac33e2ddae96101208201528051600910156109fe57735a98fcbea516cf06857215779fd812ca3bef1b326101408201528051600a10156109fe57739f8f72aa9304c8b593d555f12ef6589cc3a579a26101608201528051600b10156109fe5773d533a949740bb3306d119cc777fa900ba034cd526101808201528051600c10156109fe57734e3fbd56cd56c3e72c1403e103b45db9da5b9d2b6101a08201528051600d10156109fe5773c00e94cb662c3520282e6f5717214004a7f268886101c08201528051600e10156109fe5773ba100000625a3754423978a60c9317c58a424e3d6101e08201528051600f10156109fe5773c011a72400e58ecd99ee497cf89e3775d4bd732f6102008201528051601010156109fe5773853d955acef822db058eb8505911ed77f175b99e6102208201528051601110156109fe57733432b6a60d23ca0dfca7761b7ab56459d9c964d06102408201528051601210156109fe577395ad61b0a150d79219dcf64e1e6cc01f0b64c4ce6102608201528051601310156109fe5773ae7ab96520de3a18e5e111b5eaab095312d7fe846102808201528051601410156109fe57737f39c581f595b53c5cb19bd0b3f8da6c935e2ca06102a08201528051601510156109fe5773ae78736cd615f374d3085123a210448e74fc63936102c08201528051601610156109fe5773be9895146f7af43049ca1c1ae358b0541ea497046102e08201528051601710156109fe5773cd5fe23c85820f7b72d0926fc9b05b43e359b7ee6103008201528051601810156109fe57734c9edd5852cd905f086c759e8383e09bff1e68b36103208201528051601910156109fe57739d39a5de30e57443bff2a8307a4256c8797a34976103408201528051601a10156109fe576e085d4780b73119b644ae5ecd22b3766103608201528051601b10156109fe57735f98805a4e8be255a32880fdec7f6728c6568ba06103808201528051601c10156109fe577357ab1ec28d129707052df4df418d58a2d46d5f516103a08201528051601d10156109fe57736c3ea9036406852006290770bedfcaba0e23a0e86103c08201528051601e10156109fe577345804880de22913dafe09f4980848ece6ecbaf786103e08201528051601f10156109fe57737d1afa7b718fb893db30a3abc0cfc608aacfebb06104008201528051602010156109fe577357e114b691db790c35207b2e685d4a43181e60616104208201528051602110156109fe5773808507121b80c02388fad14726482e061b8da8276104408201528051602210156109fe57736982508145454ce325ddbe47a25d4ec3d2311933610460820152825b81518110156109be576001600160a01b0361091d8284610389565b511661092881610ac5565b156109b557816110000180611000116109a1576109459082610e44565b61094e81610ac5565b610979575b9061096882610963600194611006565b611236565b506109716111ee565b505b01610902565b816120000180612000116109a157816109986109689260019594610ee3565b91925050610953565b634e487b7160e01b86526011600452602486fd5b50600190610973565b50916109c86111ee565b505b82518110156109f9576001906109f26001600160a01b036109eb8387610389565b5116611236565b50016109ca565b509050565b634e487b7160e01b83526032600452602483fd5b5f5160206116d65f395f51905f523b1561006d57604051630d0e30db60e41b81525f8160048160015f5160206116d65f395f51905f525af18015610a7057610a5b575b506103cc565b610a689192505f906101bf565b5f905f610a55565b6040513d5f823e3d90fd5b5060014710156103c7565b3d15610ac0573d9067ffffffffffffffff82116101ab5760405191610ab5601f8201601f1916602001846101bf565b82523d5f602084013e565b606090565b5f809160405160208101906370a0823160e01b825273a88800cd213da5ae406ce248380802bd53b47647602482015260248152610b036044826101bf565b51915afa610b0f610a86565b90158015610b35575b610b305760208180518101031261006d576020015190565b505f90565b506020815110610b18565b5f809160405160208101916370a0823160e01b835260018060a01b0316602482015260248152610b716044826101bf565b51905f5160206116d65f395f51905f525afa610b0f610a86565b6040516370a0823160e01b602082019081526001600160a01b0390931660248083019190915281525f92839291610b036044826101bf565b60405163a9059cbb60e01b6020820190815230602483015260448083019490945292815291610c3691603591610bfa6064866101bf565b6040519485926001600160601b03199060601b1660208401525f60348401525180918484015e81015f838201520301601f1981018352826101bf565b90565b60405190610c468261018e565b6060610120835f81525f60208201525f60408201525f838201525f60808201525f60a08201525f60c08201525f60e08201525f6101008201520152565b610c8b610c39565b5060405190610c998261018e565b81525f5160206116d65f395f51905f5260208201525f5160206116d65f395f51905f52604082015230606082015230608082015273a88800cd213da5ae406ce248380802bd53b4764760a0820152600160c0820152600160e08201525f610100820152604051610d0a6020826101bf565b5f815261012082015290565b90610c3690604051610d296020826101bf565b5f8152610e0a60e0850192610df8845193610de6610120604051998a9860e060208b015281516101008b015260018060a01b03602083015116838b015260018060a01b036040830151166101408b015260018060a01b036060830151166101608b015260018060a01b036080830151166101808b015260018060a01b0360a0830151166101a08b015260c08201516101c08b0152516101e08a01526101008101516102008a015201516101406102208901526102408801906101e1565b868103601f19016040880152906101e1565b848103601f19016060860152906101e1565b905f608084015260a08301525f60c083015273a88800cd213da5ae406ce248380802bd53b4764760e083015203601f1981018352826101bf565b610e4d81610ac5565b8015610310576035610e70610e67610eb893602095610bc3565b61029c86610c83565b60405173a88800cd213da5ae406ce248380802bd53b4764760601b858201525f60348201528151909485928291018484015e81015f838201520301601f1981018352826101bf565b60018201809211610ecf5761029c6102a192610c83565b634e487b7160e01b5f52601160045260245ffd5b610eec81610ac5565b15610315576102a191610f7e604960405160208101946001865260018060a01b0316604082015283606082015260608152610f286080826101bf565b60405173a88800cd213da5ae406ce248380802bd53b4764760601b6020820152600160f81b60348201523060601b60358201529051909485919081908484015e81015f838201520301601f1981018452836101bf565b610f86610c39565b5060405190610f948261018e565b81525f5160206116d65f395f51905f5260208201525f5160206116d65f395f51905f5260408201523060608201523060808201525f60a0820152600160c0820152600160e08201525f610100820152604051610ff16040826101bf565b600581525f6020820152610120820152610d16565b6001600160a01b0381169073dac17f958d2ee523a2206206994597c13d831ec7821415806111d0575b806111b2575b61031557611044903090610b8b565b908115610315576040519061105a6060836101bf565b600282526020820190604036833761107183610358565b525f5160206116d65f395f51905f5261108983610379565b526040519283926338ed173960e01b845260a484019160048501525f602485015260a060448501525180915260c4830191905f5b8181106111905750505090805f92306064830152426084830152038183737a250d5630b4cf539739df2c5dacb4c659f2488d5af16110f85750565b3d805f833e61110781836101bf565b81019060208183031261006d5780519067ffffffffffffffff821161006d57019080601f8301121561006d5781519167ffffffffffffffff83116101ab578260051b90602082019361115c60405195866101bf565b845260208085019282010192831161006d57602001905b8282106111805750505050565b8151815260209182019101611173565b82516001600160a01b03168452859450602093840193909201916001016110bd565b50736b175474e89094c44da98b954eedeac495271d0f821415611035565b5073a0b86991c6218b36c1d19d4a2e9eb0ce3606eb4882141561102f565b611205305f5160206116d65f395f51905f52610b8b565b600154811115610b30575f5160206116d65f395f51905f526001600160601b0360a01b5f5416175f55600155600190565b6112403082610b8b565b9060015482111561126c5760018060a01b03166001600160601b0360a01b5f5416175f55600155600190565b50505f90565b9081602091031261006d5751801515810361006d5790565b5f80604051602081019063095ea7b360e01b8252731111111254eeb25477b68fb85ed929f73a9605826024820152826044820152604481526112cd6064826101bf565b5190825f5160206116d65f395f51905f525af16112e8610a86565b9015908115611387575b50611383575f80604051602081019063095ea7b360e01b8252731111111254eeb25477b68fb85ed929f73a9605826024820152821960448201526044815261133b6064826101bf565b5190825f5160206116d65f395f51905f525af1611356610a86565b8161135f575090565b805180159250821561137057505090565b610c369250602080918301019101611272565b5f90565b805180151592508261139c575b50505f6112f2565b6113af9250602080918301019101611272565b155f80611394565b5f80604051602081019063095ea7b360e01b8252737a250d5630b4cf539739df2c5dacb4c659f2488d6024820152826044820152604481526113fa6064826101bf565b51908273dac17f958d2ee523a2206206994597c13d831ec75af161141c610a86565b9015908115611491575b50611383575f80604051602081019063095ea7b360e01b8252737a250d5630b4cf539739df2c5dacb4c659f2488d6024820152821960448201526044815261146f6064826101bf565b51908273dac17f958d2ee523a2206206994597c13d831ec75af1611356610a86565b80518015159250826114a6575b50505f611426565b6114b99250602080918301019101611272565b155f8061149e565b5f80604051602081019063095ea7b360e01b8252737a250d5630b4cf539739df2c5dacb4c659f2488d6024820152826044820152604481526115046064826101bf565b51908273a0b86991c6218b36c1d19d4a2e9eb0ce3606eb485af1611526610a86565b901590811561159b575b50611383575f80604051602081019063095ea7b360e01b8252737a250d5630b4cf539739df2c5dacb4c659f2488d602482015282196044820152604481526115796064826101bf565b51908273a0b86991c6218b36c1d19d4a2e9eb0ce3606eb485af1611356610a86565b80518015159250826115b0575b50505f611530565b6115c39250602080918301019101611272565b155f806115a8565b5f80604051602081019063095ea7b360e01b8252737a250d5630b4cf539739df2c5dacb4c659f2488d60248201528260448201526044815261160e6064826101bf565b519082736b175474e89094c44da98b954eedeac495271d0f5af1611630610a86565b90159081156116a5575b50611383575f80604051602081019063095ea7b360e01b8252737a250d5630b4cf539739df2c5dacb4c659f2488d602482015282196044820152604481526116836064826101bf565b519082736b175474e89094c44da98b954eedeac495271d0f5af1611356610a86565b80518015159250826116ba575b50505f61163a565b6116cd9250602080918301019101611272565b155f806116b256fe000000000000000000000000c02aaa39b223fe8d0a0e5c4f27ead9083c756cc2a2646970667358221220d1646458fd39e0a5d67f423b71a6484d46908d6233bc6fe02e6aebed762c8df864736f6c634300081e0033","linkReferences":{}},"methodIdentifiers":{"executeOnOpportunity()":"3c2448ed","isValidSignature(bytes32,bytes)":"1626ba7e","profitAmount()":"5ff972cc","profitToken()":"49343624","resolveOrders(address,bytes,bytes)":"1944799f"},"id":0}