{"abi":[{"type":"constructor","inputs":[{"name":"token_","type":"address","internalType":"contract IERC20Minimal"},{"name":"spender_","type":"address","internalType":"address"}],"stateMutability":"nonpayable"},{"type":"function","name":"approveSpender","inputs":[{"name":"amount","type":"uint256","internalType":"uint256"}],"outputs":[],"stateMutability":"nonpayable"}],"bytecode":{"object":"0x60c034608557601f61027f38819003918201601f19168301916001600160401b0383118484101760895780849260409485528339810103126085578051906001600160a01b038216820360855760200151906001600160a01b038216820360855760805260a0526040516101e1908161009e8239608051816090015260a0518160380152f35b5f80fd5b634e487b7160e01b5f52604160045260245ffdfe6080806040526004361015610012575f80fd5b5f3560e01c6331a72b3b14610025575f80fd5b34610150576020366003190112610150577f00000000000000000000000000000000000000000000000000000000000000006001600160a01b0316903382900361017a575060405163095ea7b360e01b8152600480820192909252903560248201526020816044815f7f00000000000000000000000000000000000000000000000000000000000000006001600160a01b03165af190811561016f575f91610106575b50156100d057005b60405162461bcd60e51b815260206004820152600e60248201526d185c1c1c9bdd994819985a5b195960921b6044820152606490fd5b905060203d602011610168575b601f8101601f1916820167ffffffffffffffff8111838210176101545760209183916040528101031261015057518015158103610150575f6100c8565b5f80fd5b634e487b7160e01b5f52604160045260245ffd5b503d610113565b6040513d5f823e3d90fd5b62461bcd60e51b815260206004820152600c60248201526b37b7363c9039b832b73232b960a11b6044820152606490fdfea2646970667358221220912c884ce301fcafcb125236f2031f8c41443db2c1358ff2f5fc97814fc6e8c664736f6c634300081e0033","linkReferences":{}},"methodIdentifiers":{"approveSpender(uint256)":"31a72b3b"},"id":0}