{"abi":[{"type":"constructor","inputs":[],"stateMutability":"nonpayable"},{"type":"receive","stateMutability":"payable"},{"type":"function","name":"FLASH_WETH_PAIR","inputs":[],"outputs":[{"name":"","type":"address","internalType":"contract IUniswapV2PairLike"}],"stateMutability":"view"},{"type":"function","name":"NFTX_FACTORY","inputs":[],"outputs":[{"name":"","type":"address","internalType":"contract INFTXVaultFactoryLike"}],"stateMutability":"view"},{"type":"function","name":"SUSHISWAP_FACTORY","inputs":[],"outputs":[{"name":"","type":"address","internalType":"contract IUniswapV2FactoryLike"}],"stateMutability":"view"},{"type":"function","name":"TARGET","inputs":[],"outputs":[{"name":"","type":"address","internalType":"address"}],"stateMutability":"view"},{"type":"function","name":"UNISWAP_V2_FACTORY","inputs":[],"outputs":[{"name":"","type":"address","internalType":"contract IUniswapV2FactoryLike"}],"stateMutability":"view"},{"type":"function","name":"WETH","inputs":[],"outputs":[{"name":"","type":"address","internalType":"contract IWETH9"}],"stateMutability":"view"},{"type":"function","name":"executeOnOpportunity","inputs":[],"outputs":[],"stateMutability":"payable"},{"type":"function","name":"executed","inputs":[],"outputs":[{"name":"","type":"bool","internalType":"bool"}],"stateMutability":"view"},{"type":"function","name":"onERC721Received","inputs":[{"name":"","type":"address","internalType":"address"},{"name":"","type":"address","internalType":"address"},{"name":"","type":"uint256","internalType":"uint256"},{"name":"","type":"bytes","internalType":"bytes"}],"outputs":[{"name":"","type":"bytes4","internalType":"bytes4"}],"stateMutability":"pure"},{"type":"function","name":"profitAmount","inputs":[],"outputs":[{"name":"","type":"uint256","internalType":"uint256"}],"stateMutability":"view"},{"type":"function","name":"profitToken","inputs":[],"outputs":[{"name":"","type":"address","internalType":"address"}],"stateMutability":"view"},{"type":"function","name":"stolenCollection","inputs":[],"outputs":[{"name":"","type":"address","internalType":"address"}],"stateMutability":"view"},{"type":"function","name":"stolenTokenId","inputs":[],"outputs":[{"name":"","type":"uint256","internalType":"uint256"}],"stateMutability":"view"},{"type":"function","name":"uniswapV2Call","inputs":[{"name":"sender","type":"address","internalType":"address"},{"name":"amount0","type":"uint256","internalType":"uint256"},{"name":"amount1","type":"uint256","internalType":"uint256"},{"name":"","type":"bytes","internalType":"bytes"}],"outputs":[],"stateMutability":"nonpayable"},{"type":"error","name":"AlreadyExecuted","inputs":[]},{"type":"error","name":"FlashPairUnavailable","inputs":[]},{"type":"error","name":"InsufficientFlashProceeds","inputs":[{"name":"obtained","type":"uint256","internalType":"uint256"},{"name":"repayment","type":"uint256","internalType":"uint256"}]},{"type":"error","name":"JayAcquisitionFailed","inputs":[{"name":"ethSpent","type":"uint256","internalType":"uint256"},{"name":"jayObtained","type":"uint256","internalType":"uint256"},{"name":"jayRequired","type":"uint256","internalType":"uint256"}]},{"type":"error","name":"NoLiquidVictimFound","inputs":[]},{"type":"error","name":"NoVaultInventoryFound","inputs":[]},{"type":"error","name":"NotEnoughVerifierFunding","inputs":[{"name":"ethAvailable","type":"uint256","internalType":"uint256"},{"name":"jayAvailable","type":"uint256","internalType":"uint256"},{"name":"ethRequired","type":"uint256","internalType":"uint256"},{"name":"jayRequired","type":"uint256","internalType":"uint256"}]},{"type":"error","name":"RedemptionFailed","inputs":[{"name":"token","type":"address","internalType":"address"},{"name":"tokenId","type":"uint256","internalType":"uint256"}]},{"type":"error","name":"TokenTransferFailed","inputs":[{"name":"token","type":"address","internalType":"address"},{"name":"to","type":"address","internalType":"address"},{"name":"amount","type":"uint256","internalType":"uint256"}]},{"type":"error","name":"UnexpectedFlashCaller","inputs":[{"name":"caller","type":"address","internalType":"address"}]},{"type":"error","name":"UnexpectedFlashSender","inputs":[{"name":"sender","type":"address","internalType":"address"}]}],"bytecode":{"object":"0x608080604052346015576127a9908161001a8239f35b5f80fdfe608080604052600436101561001c575b50361561001a575f80fd5b005b5f905f3560e01c90816310d1e85c1461076b57508063150b7a021461071357806320b987b9146106e457806331a38c89146106c25780633c2448ed1461022d5780634934362414610202578063495c0f9b146101d35780634f81cd04146101a45780635ff972cc146101865780637f73c33a1461015d57806399d8fae31461012e578063ad5c464814610106578063cc1f2afa146100de5763e417ab890361000f57346100db57806003193601126100db576020600354604051908152f35b80fd5b50346100db57806003193601126100db5760206040515f5160206127545f395f51905f528152f35b50346100db57806003193601126100db5760206040515f5160206127345f395f51905f528152f35b50346100db57806003193601126100db576020604051735c69bee701ef814a2b6a3edd4b1652cb9cc5aa6f8152f35b50346100db57806003193601126100db576002546040516001600160a01b039091168152602090f35b50346100db57806003193601126100db576020600154604051908152f35b50346100db57806003193601126100db57602060405173be86f647b167567525ccaafcd6f881f1ee5582168152f35b50346100db57806003193601126100db57602060405173c0aee478e3658e2610c5f7a4a2e1777ce9e4f2ac8152f35b50346100db57806003193601126100db575460405160089190911c6001600160a01b03168152602090f35b50806003193601126100db57805460ff81166106b35760ff1916600117815560405163db8d55f160e01b81526080816004815f5160206127545f395f51905f525afa9081156103cf5782908392610672575b50610288611360565b9390929091906001600160a01b038116801561066357806001600160601b0360a01b6002541617600255826003556001600160601b0360a01b60045416176004558160055560018060a01b0384166001600160601b0360a01b600654161760065560018060a01b0385166001600160601b0360a01b600754161760075582600855856009556103178684611580565b156103da5761032861032d96610bcf565b610eed565b6103356112db565b8054610100600160a81b03191674c02aaa39b223fe8d0a0e5c4f27ead9083c756cc2001781556040516370a0823160e01b81523060048201526020816024815f5160206127345f395f51905f525afa9081156103cf578291610399575b5060015580f35b90506020813d6020116103c7575b816103b460209383610ac9565b810103126103c357515f610392565b5f80fd5b3d91506103a7565b6040513d84823e3d90fd5b50509150506103eb6103f792611658565b90811561065357610b03565b9066071afd498d0000820180921161063f57604051630dfe168160e01b81529160208360048173b4e16d0168e52d35cacd2c6185b44281ec28c9dc5afa9283156103cf57829361061e575b5060405163d21220a760e01b81529260208460048173b4e16d0168e52d35cacd2c6185b44281ec28c9dc5afa9384156106135783946105d3575b506001600160a01b03165f5160206127345f395f51905f521492831590816105b2575b506105a35781925f1461054a576040519060016020830152602082526104c6604083610ac9565b73b4e16d0168e52d35cacd2c6185b44281ec28c9dc3b156105465760405163022c0d9f60e01b8152918391839182916105059190309060048501610b94565b03818373b4e16d0168e52d35cacd2c6185b44281ec28c9dc5af180156103cf57610531575b5050610335565b8161053b91610ac9565b6100db57805f61052a565b5050fd5b604051906001602083015260208252610564604083610ac9565b73b4e16d0168e52d35cacd2c6185b44281ec28c9dc3b156105465760405163022c0d9f60e01b8152918391839182916105059190309060048501610b67565b6328716daf60e11b8252600482fd5b6001600160a01b03165f5160206127345f395f51905f52141590505f61049f565b5f5160206127345f395f51905f529194506106059060203d60201161060c575b6105fd8183610ac9565b810190610b24565b939061047c565b503d6105f3565b6040513d85823e3d90fd5b61063891935060203d60201161060c576105fd8183610ac9565b915f610442565b634e487b7160e01b81526011600452602490fd5b6703782dace9d900009150610b03565b6304a346c760e41b8852600488fd5b9150506080813d6080116106ab575b8161068e60809383610ac9565b810103126106a75760406020820151910151905f61027f565b5080fd5b3d9150610681565b630dc1019760e01b8252600482fd5b50346100db57806003193601126100db5760ff60209154166040519015158152f35b50346100db57806003193601126100db57602060405173b4e16d0168e52d35cacd2c6185b44281ec28c9dc8152f35b50346100db5760803660031901126100db5761072d610a3f565b50610736610a55565b5060643567ffffffffffffffff81116106a757610757903690600401610a6b565b5050604051630a85bd0160e11b8152602090f35b9050346103c35760803660031901126103c357610786610a3f565b6024359060643567ffffffffffffffff81116103c3576107aa903690600401610a6b565b505073b4e16d0168e52d35cacd2c6185b44281ec28c9dc3303610a2c576001600160a01b0316308103610a1a57508015610a1057905b5f5160206127345f395f51905f523b156103c357632e1a7d4d60e01b8152600481018290525f81602481835f5160206127345f395f51905f525af18015610a05576109f0575b5061083660095460085490610e23565b600454600554600854600654600754610861946001600160a01b039182169492821693929116610eed565b6108696112db565b6103e88102908082046103e814901517156109dc576103e59004600181018091116109dc576040516370a0823160e01b81523060048201526020816024815f5160206127345f395f51905f525afa9081156106135783916109aa575b50818110610995575060405163a9059cbb60e01b815273b4e16d0168e52d35cacd2c6185b44281ec28c9dc600482015260248101829052602081604481865f5160206127345f395f51905f525af1908115610613578391610966575b501561092b575080f35b63190eecf360e31b82525f5160206127345f395f51905f5260045273b4e16d0168e52d35cacd2c6185b44281ec28c9dc602452604452606490fd5b610988915060203d60201161098e575b6109808183610ac9565b810190610aeb565b5f610921565b503d610976565b630945ff3f60e11b8352600452602452604490fd5b90506020813d6020116109d4575b816109c560209383610ac9565b810103126103c357515f6108c5565b3d91506109b8565b634e487b7160e01b82526011600452602482fd5b6109fd9192505f90610ac9565b5f905f610826565b6040513d5f823e3d90fd5b50604435906107e0565b6378ab05ff60e01b5f5260045260245ffd5b63eed5f03960e01b5f523360045260245ffd5b600435906001600160a01b03821682036103c357565b602435906001600160a01b03821682036103c357565b9181601f840112156103c35782359167ffffffffffffffff83116103c357602083818601950101116103c357565b60a0810190811067ffffffffffffffff821117610ab557604052565b634e487b7160e01b5f52604160045260245ffd5b90601f8019910116810190811067ffffffffffffffff821117610ab557604052565b908160209103126103c3575180151581036103c35790565b91908201809211610b1057565b634e487b7160e01b5f52601160045260245ffd5b908160209103126103c357516001600160a01b03811681036103c35790565b805180835260209291819084018484015e5f828201840152601f01601f1916010190565b610b9193926080925f8352602083015260018060a01b031660408201528160608201520190610b43565b90565b9081525f60208201526001600160a01b039091166040820152608060608201819052610b9192910190610b43565b91908203918211610b1057565b6040516370a0823160e01b8152306004820152906020826024815f5160206127545f395f51905f525afa918215610a05575f92610def575b5080821015610deb57478015610dbf57610c2b81610c265f9585610bc2565b61177d565b908115610db7575b506040516370a0823160e01b8152306004820152906020826024815f5160206127545f395f51905f525afa918215610a05575f92610d83575b505f5160206127545f395f51905f523b156103c35760405163bcca665f60e01b81525f81600481855f5160206127545f395f51905f525af18015610a0557610d6e575b506040516370a0823160e01b8152306004820152916020836024815f5160206127545f395f51905f525afa928315610d63579084918694610d2c575b5080841115610d2457610cfe9084610bc2565b925b10610d0b5750505050565b63e57a8fa360e01b845260045260245260445260649150fd5b508492610d00565b915092506020813d602011610d5b575b81610d4960209383610ac9565b810103126103c357839051925f610ceb565b3d9150610d3c565b6040513d87823e3d90fd5b610d7b9194505f90610ac9565b5f925f610caf565b9091506020813d602011610daf575b81610d9f60209383610ac9565b810103126103c35751905f610c6c565b3d9150610d92565b90505f610c33565b604051632f8cc52f60e01b8152476004820152602481018490525f604482015260648101839052608490fd5b5050565b9091506020813d602011610e1b575b81610e0b60209383610ac9565b810103126103c35751905f610c07565b3d9150610dfe565b6040516370a0823160e01b81523060048201525f926020826024815f5160206127545f395f51905f525afa918215610a05575f92610eb9575b5082821015610eb3574781811115610e885791610e7f610c2b92610c2694610bc2565b92839185610bc2565b5091608492479260405193632f8cc52f60e01b85526004850152602484015260448301526064820152fd5b50505050565b9091506020813d602011610ee5575b81610ed560209383610ac9565b810103126103c35751905f610e5c565b3d9150610ec8565b9093915f91604092835191610f028584610ac9565b60018352601f1985019384366020860137610f1c84611884565b6001600160a01b0390921691829052855193610f388786610ac9565b600185528536602087013789610f4d86611884565b52602094875192610f5e8785610ac9565b5f84525f368137885193610f728886610ac9565b5f85525f368137895193610f868986610ac9565b5f85525f3681375f5160206127545f395f51905f523b156103c3576110215f9561100f610feb98610ffd8f96610fd997519b8c9a8b998a9963277937b560e11b8b5260a060048c015260a48b01906118a5565b8981036003190160248b0152906118e1565b878103600319016044890152906118a5565b858103600319016064870152906118e1565b838103600319016084850152906118e1565b03915f5160206127545f395f51905f525af180156112d1576112bc575b5084516331a9108f60e11b8152600481018990528381602481855afa90811561126957839161129f575b50306001600160a01b039091160361128857803b156106a757845163095ea7b360e01b81526001600160a01b0388166004820152602481018990529082908290604490829084905af1801561122e57908291611273575b50508351966110ce8589610ac9565b600188528336848a01376110e188611884565b528351926110ef8585610ac9565b600184523683850137600161110384611884565b5283516370a0823160e01b8152306004820152966001600160a01b03871693908389602481885afa988915611269578399611238575b50611163849161117588519485938493630f57464360e21b85528b600486015260448501906118e1565b838103600319016024850152906118e1565b038185885af1801561122e57611203575b50816024938551948580926370a0823160e01b82523060048301525afa9384156111f95750926111c9575b50506111c6936111c091610bc2565b91611a12565b50565b90809250813d83116111f2575b6111e08183610ac9565b810103126103c35751836111c06111b1565b503d6111d6565b51903d90823e3d90fd5b8281813d8311611227575b6112188183610ac9565b810103126103c3575081611186565b503d61120e565b85513d84823e3d90fd5b9098508381813d8311611262575b6112508183610ac9565b810103126103c3575197611163611139565b503d611246565b86513d85823e3d90fd5b8161127d91610ac9565b6100db57805f6110bf565b633649528b60e01b82526004526024879052604490fd5b6112b69150843d861161060c576105fd8183610ac9565b5f611068565b6112c99192505f90610ac9565b5f905f61103e565b86513d5f823e3d90fd5b47806112e45750565b5f5160206127345f395f51905f523b156103c3575f60049160405192838092630d0e30db60e41b82525f5160206127345f395f51905f525af18015610a055761132a5750565b5f61133491610ac9565b565b6040519061134382610a99565b5f6080838281528260208201528260408201528260608201520152565b6040516304c94c4160e31b815260208160048173be86f647b167567525ccaafcd6f881f1ee5582165afa5f918161154c575b506113a257505f905f905f905f90565b6113aa611336565b905f916113b5611336565b506113bf5f611d9d565b93909294611543575b6001600160a01b03169384151580611536575b6114f7575b505050505091906001905b8082111561144c57505081516001600160a01b0316159081611443575b50611434578051602082015160408301516060909301516001600160a01b039283169491938316921690565b63f8d9068360e01b5f5260045ffd5b9050155f611408565b9091839093611459611336565b5061146384611d9d565b949390939291926114ee575b6001600160a01b03169485151590816114e0575b506114a1575b505050505092915f198114610b1057600101906113eb565b909192939450604051946114b486610a99565b855260208501526001600160a01b03908116604085015216606083015260808201525f80808080611489565b60809150015184115f611483565b6001995061146f565b9091929394506040519461150a86610a99565b855260208501526001600160a01b03908116604085015216606083015260808201525f808080806113e0565b50608086015184116113db565b600197506113c8565b9091506020813d602011611578575b8161156860209383610ac9565b810103126103c35751905f611392565b3d915061155b565b906040516370a0823160e01b81523060048201526020816024815f5160206127545f395f51905f525afa908115610a05575f91611626575b50818110158061161c575b611614578247111561160d5780821115611605576115e091610bc2565b80156115fe576115f36115f99247610bc2565b9061177d565b151590565b5050600190565b50505f6115e0565b5050505f90565b505050600190565b50824710156115c3565b90506020813d602011611650575b8161164160209383610ac9565b810103126103c357515f6115b8565b3d9150611634565b80158015611776575b6117715764174876e80190611674611914565b6703782dace9d90000831080611768575b156116e65750908060011b9080820460021481151715610b105781118015906116d5575b156116cf57506703782dace9d90000905b6116c38261198d565b80611674575050505f90565b906116ba565b506703782dace9d9000081116116a9565b81116117625764174876e801905b82821061170057505090565b909161171861170f8483610bc2565b60011c84610b03565b906117228261198d565b80156117595783116117375750915b906116f4565b9250600181018091111561173157634e487b7160e01b5f52601160045260245ffd5b50505050505f90565b50505f90565b50818110611685565b505f90565b505f611661565b9081158015611875575b611762579064174876e8019161179b611914565b8184108061186c575b15611800575090918060011b9080820460021481151715610b105781118015906117f7575b156117f1575080915b6117db8361198d565b80156117e95791909161179b565b505050505f90565b916117d2565b508181116117c9565b829150106117625764174876e801905b82821061181c57505090565b909161182b61170f8483610bc2565b906118358261198d565b801561175957831161184a5750915b90611810565b9250600181018091111561184457634e487b7160e01b5f52601160045260245ffd5b508281106117a4565b5064174876e800811115611787565b8051156118915760200190565b634e487b7160e01b5f52603260045260245ffd5b90602080835192838152019201905f5b8181106118c25750505090565b82516001600160a01b03168452602093840193909201916001016118b5565b90602080835192838152019201905f5b8181106118fe5750505090565b82518452602093840193909201916001016118f1565b6040516315b70cdd60e31b815264174876e80160048201525f91906020816024815f5160206127545f395f51905f525afa5f9181611959575b506119555750565b9150565b9091506020813d602011611985575b8161197560209383610ac9565b810103126103c35751905f61194d565b3d9150611968565b905f91604051906315b70cdd60e31b825260048201526020816024815f5160206127545f395f51905f525afa5f918161195957506119555750565b51906001600160701b03821682036103c357565b908160609103126103c3576119f0816119c8565b9160406119ff602084016119c8565b92015163ffffffff811681036103c35790565b604051630240bc6b60e21b815291925f926001600160a01b0385169290606081600481875afa908115610a05575f905f92611d6a575b50604051630dfe168160e01b815292602084600481895afa938415610a05575f94611d49575b5060405163d21220a760e01b8152906020826004818a5afa918215610a05575f92611d28575b506001600160a01b0390811694169081851480611d09575b611bfb576001600160a01b031684149081611be4575b50611ad1575050505050905090565b83611aee611b20936001600160701b038060209516911683611f4c565b60405163a9059cbb60e01b81526001600160a01b0390991660048a015260248901919091529691829081906044820190565b038188865af1908115610d63578591611bc5575b5015611baa575050604051611b4a602082610ac9565b8281525f366020830137813b15611ba657611b808392839260405194858094819363022c0d9f60e01b8352308b60048501610b94565b03925af180156103cf57611b9357505090565b611b9e828092610ac9565b6100db575090565b8280fd5b63190eecf360e31b8452600452602491909152604452606490fd5b611bde915060203d60201161098e576109808183610ac9565b5f611b34565b5f5160206127345f395f51905f529150145f611ac2565b50508394955092611c1f611c5193946001600160701b038060209516911683611f4c565b60405163a9059cbb60e01b81526001600160a01b03909816600489015260248801919091529591829081906044820190565b03815f865af1908115610a05575f91611cea575b5015611cd057505060405190611c7c602083610ac9565b5f808352366020840137803b156103c35760405163022c0d9f60e01b8152915f918391829084908290611cb490308a60048501610b67565b03925af18015610a0557611cc6575090565b5f610b9191610ac9565b829063190eecf360e31b5f5260045260245260445260645ffd5b611d03915060203d60201161098e576109808183610ac9565b5f611c65565b506001600160a01b0381165f5160206127345f395f51905f5214611aac565b611d4291925060203d60201161060c576105fd8183610ac9565b905f611a94565b611d6391945060203d60201161060c576105fd8183610ac9565b925f611a6e565b9050611d8e915060603d606011611d96575b611d868183610ac9565b8101906119dc565b50905f611a48565b503d611d7c565b905f91604051906340d1b7db60e11b8252600482015260208160248173be86f647b167567525ccaafcd6f881f1ee5582165afa5f9181611f2b575b50611f23575b506001600160a01b03821615611f1457604051631ba46cfd60e01b81525f91906020816004816001600160a01b0388165afa5f9181611ef3575b50611eeb575b506001600160a01b0382161580158381611ece575b5050611ebe57611e4282612015565b15611ebe57600192611e5383612088565b9015611eaf57611e62826120e5565b906001600160a01b03821615611e9b57611e7c838361221e565b908115611e865793565b50600195505f94508493849350839250829150565b50600194505f935083928392508291508190565b505f9250829182915081908190565b5f92508291508190819081908190565b90915081611ee0575b50155f80611e33565b90503b15155f611ed7565b91505f611e1e565b611f0d91925060203d60201161060c576105fd8183610ac9565b905f611e18565b5f915081908190819081908190565b91505f611dde565b611f4591925060203d60201161060c576105fd8183610ac9565b905f611dd8565b801590818015611fce575b8015611fc6575b6117e9576103e58102918183046103e5141715610b1057836103e5910202928184041481151715610b10576103e88202918083046103e81490151715610b1057611fa791610b03565b908115611fb2570490565b634e487b7160e01b5f52601260045260245ffd5b508315611f5e565b508215611f57565b3d15612010573d9067ffffffffffffffff8211610ab55760405191612005601f8201601f191660200184610ac9565b82523d5f602084013e565b606090565b5f809160405160208101906370a0823160e01b82525f5160206127545f395f51905f5260248201526024815261204c604482610ac9565b51915afa612058611fd6565b9015801561207d575b61177157602081519181808201938492010103126103c3575190565b506020815110612061565b61209f5f5160206127545f395f51905f52826123ba565b906120dd57506120bc5f5160206127545f395f51905f52826124c1565b906120dd57505f5160206127545f395f51905f526120d991612546565b9091565b600192909150565b60405163e6a4390560e01b81526001600160a01b03821660048201525f5160206127345f395f51905f52602482015260208160448173c0aee478e3658e2610c5f7a4a2e1777ce9e4f2ac5afa908115610a055761214b9183915f916121ff575b5061257d565b60405163e6a4390560e01b81526001600160a01b03831660048201525f5160206127345f395f51905f526024820152909190602081604481735c69bee701ef814a2b6a3edd4b1652cb9cc5aa6f5afa908115610a05576121b39183915f916121ff575061257d565b906001600160a01b038316156121f9576001600160a01b038216156121f4576121e66121df828561221e565b918361221e565b116121ef575090565b905090565b505090565b50905090565b612218915060203d60201161060c576105fd8183610ac9565b5f612145565b604051630240bc6b60e21b8152916001600160a01b039190911690606083600481855afa918215610a05575f935f93612392575b50604051630dfe168160e01b815291602083600481855afa918215610a05576004935f93612370575b506020906040519485809263d21220a760e01b82525afa928315610a05575f9361234f575b506001600160a01b039182169291169082821480612330575b61230e576001600160a01b03161490816122f7575b506122d95750505f90565b6001600160701b0380610b9193169116670de0b6b3a7640000611f4c565b5f5160206127345f395f51905f529150145f6122ce565b505050906001600160701b0380610b9193169116670de0b6b3a7640000611f4c565b506001600160a01b0381165f5160206127345f395f51905f52146122b9565b61236991935060203d60201161060c576105fd8183610ac9565b915f6122a0565b602091935061238b90823d841161060c576105fd8183610ac9565b929061227b565b9092506123af91935060603d606011611d9657611d868183610ac9565b50929092915f612252565b604051632f745c5960e01b602082019081526001600160a01b0390931660248201525f60448083018290528252928392916123f6606482610ac9565b51915afa612402611fd6565b90158015612430575b61242957602081519181808201938492010103126103c35751600191565b505f905f90565b50602081511061240b565b6020818303126103c35780519067ffffffffffffffff82116103c357019080601f830112156103c35781519167ffffffffffffffff8311610ab5578260051b90602082019361248d6040519586610ac9565b84526020808501928201019283116103c357602001905b8282106124b15750505090565b81518152602091820191016124a4565b604051632118854760e21b602082019081526001600160a01b0390931660248083019190915281525f928392916124f9604482610ac9565b51915afa612505611fd6565b9015801561253b575b61242957806020806125259351830101910161243b565b8051156124295761253590611884565b51600191565b50602081511061250e565b60405162438b6360e81b602082019081526001600160a01b0390931660248083019190915281525f928392916124f9604482610ac9565b906001600160a01b03821690811561160d57604051630dfe168160e01b8152602081600481865afa5f9181612712575b506125ba57505050505f90565b60405163d21220a760e01b81529290602084600481855afa5f94816126f1575b506125e85750505050505f90565b60606004949260405195868092630240bc6b60e21b82525afa93845f915f966126cd575b5061261b575050505050505f90565b93926001600160a01b03918216911681811492836126ad575b831561267b575b50505015918215612669575b508115612657575b506117715790565b6001600160701b03915016155f61264f565b6001600160701b03161591505f612647565b6001600160a01b031614915081612696575b505f808061263b565b5f5160206127345f395f51905f529150145f61268d565b6001600160a01b0381165f5160206127345f395f51905f52149350612634565b9095506126e9915060603d606011611d9657611d868183610ac9565b50945f61260c565b61270b91955060203d60201161060c576105fd8183610ac9565b935f6125da565b61272c91925060203d60201161060c576105fd8183610ac9565b905f6125ad56fe000000000000000000000000c02aaa39b223fe8d0a0e5c4f27ead9083c756cc2000000000000000000000000f2919d1d80aff2940274014bef534f7791906ff2a2646970667358221220026dec46cbce2e76f7c523ae324aaaecd07f61e7b3dd4df990d20d39cce277e764736f6c634300081e0033","linkReferences":{}},"methodIdentifiers":{"FLASH_WETH_PAIR()":"20b987b9","NFTX_FACTORY()":"4f81cd04","SUSHISWAP_FACTORY()":"495c0f9b","TARGET()":"cc1f2afa","UNISWAP_V2_FACTORY()":"99d8fae3","WETH()":"ad5c4648","executeOnOpportunity()":"3c2448ed","executed()":"31a38c89","onERC721Received(address,address,uint256,bytes)":"150b7a02","profitAmount()":"5ff972cc","profitToken()":"49343624","stolenCollection()":"7f73c33a","stolenTokenId()":"e417ab89","uniswapV2Call(address,uint256,uint256,bytes)":"10d1e85c"},"id":0}