{"abi":[{"type":"constructor","inputs":[],"stateMutability":"payable"},{"type":"receive","stateMutability":"payable"},{"type":"function","name":"LIVE_TARGET","inputs":[],"outputs":[{"name":"","type":"address","internalType":"address"}],"stateMutability":"view"},{"type":"function","name":"executeOnOpportunity","inputs":[],"outputs":[],"stateMutability":"nonpayable"},{"type":"function","name":"executed","inputs":[],"outputs":[{"name":"","type":"bool","internalType":"bool"}],"stateMutability":"view"},{"type":"function","name":"finalWethBalance","inputs":[],"outputs":[{"name":"","type":"uint256","internalType":"uint256"}],"stateMutability":"view"},{"type":"function","name":"firstExecutor","inputs":[],"outputs":[{"name":"","type":"address","internalType":"address"}],"stateMutability":"view"},{"type":"function","name":"firstObservedEthGain","inputs":[],"outputs":[{"name":"","type":"uint256","internalType":"uint256"}],"stateMutability":"view"},{"type":"function","name":"firstObservedWethGain","inputs":[],"outputs":[{"name":"","type":"uint256","internalType":"uint256"}],"stateMutability":"view"},{"type":"function","name":"firstSelectorTried","inputs":[],"outputs":[{"name":"","type":"bytes4","internalType":"bytes4"}],"stateMutability":"view"},{"type":"function","name":"firstTargetCallRevertHash","inputs":[],"outputs":[{"name":"","type":"bytes32","internalType":"bytes32"}],"stateMutability":"view"},{"type":"function","name":"firstTargetCallSucceeded","inputs":[],"outputs":[{"name":"","type":"bool","internalType":"bool"}],"stateMutability":"view"},{"type":"function","name":"initialWethBalance","inputs":[],"outputs":[{"name":"","type":"uint256","internalType":"uint256"}],"stateMutability":"view"},{"type":"function","name":"pairMutationAttempted","inputs":[],"outputs":[{"name":"","type":"bool","internalType":"bool"}],"stateMutability":"view"},{"type":"function","name":"pairMutationSucceeded","inputs":[],"outputs":[{"name":"","type":"bool","internalType":"bool"}],"stateMutability":"view"},{"type":"function","name":"pairResolved","inputs":[],"outputs":[{"name":"","type":"bool","internalType":"bool"}],"stateMutability":"view"},{"type":"function","name":"path0OperatorPrefundObserved","inputs":[],"outputs":[{"name":"","type":"bool","internalType":"bool"}],"stateMutability":"view"},{"type":"function","name":"path1ThirdPartyTriggerObserved","inputs":[],"outputs":[{"name":"","type":"bool","internalType":"bool"}],"stateMutability":"view"},{"type":"function","name":"path2OneShotOpportunityConsumed","inputs":[],"outputs":[{"name":"","type":"bool","internalType":"bool"}],"stateMutability":"view"},{"type":"function","name":"prefundUsedForceEther","inputs":[],"outputs":[{"name":"","type":"bool","internalType":"bool"}],"stateMutability":"view"},{"type":"function","name":"prefundUsedLocalBalance","inputs":[],"outputs":[{"name":"","type":"bool","internalType":"bool"}],"stateMutability":"view"},{"type":"function","name":"profitAmount","inputs":[],"outputs":[{"name":"","type":"uint256","internalType":"uint256"}],"stateMutability":"view"},{"type":"function","name":"profitToken","inputs":[],"outputs":[{"name":"","type":"address","internalType":"address"}],"stateMutability":"view"},{"type":"function","name":"reserve0After","inputs":[],"outputs":[{"name":"","type":"uint112","internalType":"uint112"}],"stateMutability":"view"},{"type":"function","name":"reserve0Before","inputs":[],"outputs":[{"name":"","type":"uint112","internalType":"uint112"}],"stateMutability":"view"},{"type":"function","name":"reserve1After","inputs":[],"outputs":[{"name":"","type":"uint112","internalType":"uint112"}],"stateMutability":"view"},{"type":"function","name":"reserve1Before","inputs":[],"outputs":[{"name":"","type":"uint112","internalType":"uint112"}],"stateMutability":"view"},{"type":"function","name":"secondObservedEthGain","inputs":[],"outputs":[{"name":"","type":"uint256","internalType":"uint256"}],"stateMutability":"view"},{"type":"function","name":"secondObservedWethGain","inputs":[],"outputs":[{"name":"","type":"uint256","internalType":"uint256"}],"stateMutability":"view"},{"type":"function","name":"secondSelectorTried","inputs":[],"outputs":[{"name":"","type":"bytes4","internalType":"bytes4"}],"stateMutability":"view"},{"type":"function","name":"secondTargetCallRevertHash","inputs":[],"outputs":[{"name":"","type":"bytes32","internalType":"bytes32"}],"stateMutability":"view"},{"type":"function","name":"secondTargetCallSucceeded","inputs":[],"outputs":[{"name":"","type":"bool","internalType":"bool"}],"stateMutability":"view"},{"type":"function","name":"targetEthAfterFirstCall","inputs":[],"outputs":[{"name":"","type":"uint256","internalType":"uint256"}],"stateMutability":"view"},{"type":"function","name":"targetEthAfterPrefund","inputs":[],"outputs":[{"name":"","type":"uint256","internalType":"uint256"}],"stateMutability":"view"},{"type":"function","name":"targetEthAfterSecondCall","inputs":[],"outputs":[{"name":"","type":"uint256","internalType":"uint256"}],"stateMutability":"view"},{"type":"function","name":"targetEthBefore","inputs":[],"outputs":[{"name":"","type":"uint256","internalType":"uint256"}],"stateMutability":"view"},{"type":"function","name":"targetPair","inputs":[],"outputs":[{"name":"","type":"address","internalType":"address"}],"stateMutability":"view"},{"type":"function","name":"targetWethAfterFirstCall","inputs":[],"outputs":[{"name":"","type":"uint256","internalType":"uint256"}],"stateMutability":"view"},{"type":"function","name":"targetWethAfterPrefund","inputs":[],"outputs":[{"name":"","type":"uint256","internalType":"uint256"}],"stateMutability":"view"},{"type":"function","name":"targetWethAfterSecondCall","inputs":[],"outputs":[{"name":"","type":"uint256","internalType":"uint256"}],"stateMutability":"view"},{"type":"function","name":"usedDirectPairFallback","inputs":[],"outputs":[{"name":"","type":"bool","internalType":"bool"}],"stateMutability":"view"},{"type":"function","name":"wethPulledOut","inputs":[],"outputs":[{"name":"","type":"uint256","internalType":"uint256"}],"stateMutability":"view"},{"type":"function","name":"wethSeedSent","inputs":[],"outputs":[{"name":"","type":"bool","internalType":"bool"}],"stateMutability":"view"},{"type":"function","name":"wethWrapped","inputs":[],"outputs":[{"name":"","type":"uint256","internalType":"uint256"}],"stateMutability":"view"},{"type":"event","name":"PermissionlessTrigger","inputs":[{"name":"caller","type":"address","indexed":true,"internalType":"address"},{"name":"target","type":"address","indexed":true,"internalType":"address"},{"name":"firstSelector","type":"bytes4","indexed":true,"internalType":"bytes4"},{"name":"targetEthBefore","type":"uint256","indexed":false,"internalType":"uint256"},{"name":"targetEthAfterPrefund","type":"uint256","indexed":false,"internalType":"uint256"},{"name":"targetWethAfterPrefund","type":"uint256","indexed":false,"internalType":"uint256"},{"name":"targetEthAfterFirstCall","type":"uint256","indexed":false,"internalType":"uint256"},{"name":"targetWethAfterFirstCall","type":"uint256","indexed":false,"internalType":"uint256"},{"name":"targetEthAfterSecondCall","type":"uint256","indexed":false,"internalType":"uint256"},{"name":"targetWethAfterSecondCall","type":"uint256","indexed":false,"internalType":"uint256"}],"anonymous":false}],"bytecode":{"object":"0x60a060405261001261004a60201b60201c565b73ffffffffffffffffffffffffffffffffffffffff1660808173ffffffffffffffffffffffffffffffffffffffff1681525050610114565b5f6001460361006f5773c02aaa39b223fe8d0a0e5c4f27ead9083c756cc29050610111565b600a46148061007f575061210546145b156100a0577342000000000000000000000000000000000000069050610111565b61a4b146036100c5577382af49447d8a07e3bd95bd0d56f35241523fbab19050610111565b603846036100e95773bb4cdb9cbd36b01bd1cbaebf2de08d9173bc095c9050610111565b6089460361010d57730d500b1d8e8ef31e21c99d1db9a6444d3adf12709050610111565b5f90505b90565b608051613fb46101bf5f395f8181610ae401528181610cb701528181610ec80152818161104f015281816113d101528181611423015281816114ab0152818161162b015281816118c2015281816119d801528181611b9e01528181611bf001528181611cfc01528181611d3101528181611dce01528181611e130152818161206a01528181612a6e01528181612c3c01528181612d5b01528181612db00152612e1f0152613fb45ff3fe608060405260043610610254575f3560e01c8063903f4a0c11610138578063d14128d3116100b5578063e62f599611610079578063e62f599614610833578063ed7a139f1461085d578063ee29d91314610887578063f100d286146108b1578063f849a2d1146108db578063f8fa884b146109055761025b565b8063d14128d314610761578063d1badad31461078b578063d20c7fe4146107b5578063d4e90bfe146107df578063e45c99ae146108095761025b565b80639faaa193116100fc5780639faaa1931461068f578063a659f594146106b9578063b91c8691146106e3578063be9b5ab41461070d578063c6c6c5ab146107375761025b565b8063903f4a0c146105bd57806392300900146105e7578063954af3b414610611578063977ef4471461063b5780639a98b2bc146106655761025b565b806331a38c89116101d15780635ff972cc116101955780635ff972cc146104c15780636205a08a146104eb5780636891e3c014610515578063738d23631461053f5780637ad1fc8f146105695780637e68c85d146105935761025b565b806331a38c89146104035780633c2448ed1461042d5780634934362414610443578063493864771461046d57806356efdfb9146104975761025b565b806322b616ec1161021857806322b616ec14610331578063245db1e31461035b5780632b532c62146103855780632be77e2d146103af57806330b6ade6146103d95761025b565b8063121513b61461025f578063125a14261461028957806317c62651146102b35780631e83f19f146102dd57806320367a31146103075761025b565b3661025b57005b5f5ffd5b34801561026a575f5ffd5b5061027361092f565b604051610280919061364f565b60405180910390f35b348015610294575f5ffd5b5061029d610942565b6040516102aa9190613690565b60405180910390f35b3480156102be575f5ffd5b506102c7610962565b6040516102d4919061364f565b60405180910390f35b3480156102e8575f5ffd5b506102f1610975565b6040516102fe919061364f565b60405180910390f35b348015610312575f5ffd5b5061031b610988565b604051610328919061364f565b60405180910390f35b34801561033c575f5ffd5b5061034561099b565b60405161035291906136c1565b60405180910390f35b348015610366575f5ffd5b5061036f6109a1565b60405161037c91906136f2565b60405180910390f35b348015610390575f5ffd5b506103996109a7565b6040516103a691906136f2565b60405180910390f35b3480156103ba575f5ffd5b506103c36109ad565b6040516103d091906136f2565b60405180910390f35b3480156103e4575f5ffd5b506103ed6109b3565b6040516103fa91906136f2565b60405180910390f35b34801561040e575f5ffd5b506104176109b9565b604051610424919061364f565b60405180910390f35b348015610438575f5ffd5b506104416109cb565b005b34801561044e575f5ffd5b5061045761104c565b604051610464919061374a565b60405180910390f35b348015610478575f5ffd5b50610481611073565b60405161048e91906136f2565b60405180910390f35b3480156104a2575f5ffd5b506104ab611079565b6040516104b891906136f2565b60405180910390f35b3480156104cc575f5ffd5b506104d561107f565b6040516104e291906136f2565b60405180910390f35b3480156104f6575f5ffd5b506104ff611087565b60405161050c91906136f2565b60405180910390f35b348015610520575f5ffd5b5061052961108d565b60405161053691906136f2565b60405180910390f35b34801561054a575f5ffd5b50610553611093565b604051610560919061374a565b60405180910390f35b348015610574575f5ffd5b5061057d6110b7565b60405161058a919061379d565b60405180910390f35b34801561059e575f5ffd5b506105a76110c8565b6040516105b49190613690565b60405180910390f35b3480156105c8575f5ffd5b506105d16110e8565b6040516105de91906136f2565b60405180910390f35b3480156105f2575f5ffd5b506105fb6110ee565b60405161060891906136c1565b60405180910390f35b34801561061c575f5ffd5b506106256110f4565b604051610632919061364f565b60405180910390f35b348015610646575f5ffd5b5061064f611107565b60405161065c91906136f2565b60405180910390f35b348015610670575f5ffd5b5061067961110d565b60405161068691906136f2565b60405180910390f35b34801561069a575f5ffd5b506106a3611113565b6040516106b0919061364f565b60405180910390f35b3480156106c4575f5ffd5b506106cd611126565b6040516106da91906136f2565b60405180910390f35b3480156106ee575f5ffd5b506106f761112c565b604051610704919061379d565b60405180910390f35b348015610718575f5ffd5b5061072161113f565b60405161072e919061364f565b60405180910390f35b348015610742575f5ffd5b5061074b611152565b604051610758919061374a565b60405180910390f35b34801561076c575f5ffd5b50610775611177565b604051610782919061364f565b60405180910390f35b348015610796575f5ffd5b5061079f61118a565b6040516107ac91906136f2565b60405180910390f35b3480156107c0575f5ffd5b506107c9611190565b6040516107d691906136f2565b60405180910390f35b3480156107ea575f5ffd5b506107f3611196565b604051610800919061364f565b60405180910390f35b348015610814575f5ffd5b5061081d6111a9565b60405161082a919061364f565b60405180910390f35b34801561083e575f5ffd5b506108476111bc565b604051610854919061374a565b60405180910390f35b348015610868575f5ffd5b506108716111d4565b60405161087e9190613690565b60405180910390f35b348015610892575f5ffd5b5061089b6111f3565b6040516108a891906136f2565b60405180910390f35b3480156108bc575f5ffd5b506108c56111f9565b6040516108d2919061364f565b60405180910390f35b3480156108e6575f5ffd5b506108ef61120b565b6040516108fc919061364f565b60405180910390f35b348015610910575f5ffd5b5061091961121e565b6040516109269190613690565b60405180910390f35b600160189054906101000a900460ff1681565b6013600e9054906101000a90046dffffffffffffffffffffffffffff1681565b6001601c9054906101000a900460ff1681565b600160179054906101000a900460ff1681565b6001601d9054906101000a900460ff1681565b60165481565b60065481565b600b5481565b600d5481565b600f5481565b60015f9054906101000a900460ff1681565b60015f9054906101000a900460ff1615610a1a576040517f08c379a0000000000000000000000000000000000000000000000000000000008152600401610a1190613810565b60405180910390fd5b6001805f6101000a81548160ff021916908315150217905550336001806101000a81548173ffffffffffffffffffffffffffffffffffffffff021916908373ffffffffffffffffffffffffffffffffffffffff1602179055507376ea342bc038d665e8a116392c82552d2605eda173ffffffffffffffffffffffffffffffffffffffff1631600381905550610aad61123d565b7376ea342bc038d665e8a116392c82552d2605eda173ffffffffffffffffffffffffffffffffffffffff1631600481905550610b1d7f00000000000000000000000000000000000000000000000000000000000000007376ea342bc038d665e8a116392c82552d2605eda161150a565b60058190555060016004541015600160156101000a81548160ff021916908315150217905550600160159054906101000a900460ff16610b92576040517f08c379a0000000000000000000000000000000000000000000000000000000008152600401610b8990613878565b60405180910390fd5b610b9a6115e9565b6001601b6014808491906101000a81548163ffffffff021916908360e01c02179055508391906101000a81548160ff02191690831515021790555050505f6001601b9054906101000a900460ff16610c5757600180601d6101000a81548160ff021916908315150217905550610c0e6119bd565b60025f8294508391906101000a81548160ff021916908315150217905550505060025f9054906101000a900460ff166001601b6101000a81548160ff0219169083151502179055505b6001601b9054906101000a900460ff16600160166101000a81548160ff0219169083151502179055507376ea342bc038d665e8a116392c82552d2605eda173ffffffffffffffffffffffffffffffffffffffff1631600681905550610cf07f00000000000000000000000000000000000000000000000000000000000000007376ea342bc038d665e8a116392c82552d2605eda161150a565b600781905550610d04600454600654612143565b600a81905550610d18600554600754612143565b600b81905550805f819055505f600b54905080600a541115610d3a57600a5490505b5f54811115610d4a57805f819055505b6001601b9054906101000a900460ff16610d99576040517f08c379a0000000000000000000000000000000000000000000000000000000008152600401610d90906138e0565b60405180910390fd5b67016345785d8a00005f541015610de5576040517f08c379a0000000000000000000000000000000000000000000000000000000008152600401610ddc90613948565b60405180910390fd5b5f6001601d9054906101000a900460ff1615610e4a57610e036119bd565b6001601c8294508391906101000a81548160ff02191690831515021790555050505f60e01b601460186101000a81548163ffffffff021916908360e01c0217905550610e91565b610e526115e9565b6001601c601460188491906101000a81548163ffffffff021916908360e01c02179055508391906101000a81548160ff02191690831515021790555050505b7376ea342bc038d665e8a116392c82552d2605eda173ffffffffffffffffffffffffffffffffffffffff1631600881905550610f017f00000000000000000000000000000000000000000000000000000000000000007376ea342bc038d665e8a116392c82552d2605eda161150a565b600981905550610f15600654600854612143565b600c81905550610f29600754600954612143565b600d819055505f600d54905080600c541115610f4557600c5490505b80821115610f51578190505b6001601c9054906101000a900460ff161580610f6d57505f5481105b600160176101000a81548160ff02191690831515021790555060148054906101000a900460e01b7bffffffffffffffffffffffffffffffffffffffffffffffffffffffff19167376ea342bc038d665e8a116392c82552d2605eda173ffffffffffffffffffffffffffffffffffffffff163373ffffffffffffffffffffffffffffffffffffffff167f6fd0868fc1502a823dd4067e37dc58e810a3c444d1a708d31310733466112ad360035460045460055460065460075460085460095460405161103e9796959493929190613966565b60405180910390a450505050565b5f7f0000000000000000000000000000000000000000000000000000000000000000905090565b60095481565b60115481565b5f5f54905090565b60105481565b60035481565b60018054906101000a900473ffffffffffffffffffffffffffffffffffffffff1681565b60148054906101000a900460e01b81565b6012600e9054906101000a90046dffffffffffffffffffffffffffff1681565b60085481565b60155481565b600160159054906101000a900460ff1681565b60045481565b60055481565b6001601f9054906101000a900460ff1681565b600c5481565b601460189054906101000a900460e01b81565b6001601e9054906101000a900460ff1681565b60145f9054906101000a900473ffffffffffffffffffffffffffffffffffffffff1681565b6001601b9054906101000a900460ff1681565b60075481565b600a5481565b6001601a9054906101000a900460ff1681565b600160199054906101000a900460ff1681565b7376ea342bc038d665e8a116392c82552d2605eda181565b60125f9054906101000a90046dffffffffffffffffffffffffffff1681565b600e5481565b60025f9054906101000a900460ff1681565b600160169054906101000a900460ff1681565b60135f9054906101000a90046dffffffffffffffffffffffffffff1681565b60017376ea342bc038d665e8a116392c82552d2605eda173ffffffffffffffffffffffffffffffffffffffff163110156113b85760014710156112b5576040517f08c379a00000000000000000000000000000000000000000000000000000000081526004016112ac90613878565b60405180910390fd5b60018060186101000a81548160ff0219169083151502179055505f7376ea342bc038d665e8a116392c82552d2605eda173ffffffffffffffffffffffffffffffffffffffff16600160405161130990613a00565b5f6040518083038185875af1925050503d805f8114611343576040519150601f19603f3d011682016040523d82523d5f602084013e611348565b606091505b50509050806113b65760018060196101000a81548160ff02191690831515021790555060017376ea342bc038d665e8a116392c82552d2605eda160405161138e90613629565b6113989190613a34565b6040518091039082f09050801580156113b3573d5f5f3e3d5ffd5b50505b505b5f73ffffffffffffffffffffffffffffffffffffffff167f000000000000000000000000000000000000000000000000000000000000000073ffffffffffffffffffffffffffffffffffffffff161415801561141c5750670de0b6b3a76400004710155b15611508577f000000000000000000000000000000000000000000000000000000000000000073ffffffffffffffffffffffffffffffffffffffff1663d0e30db0670de0b6b3a76400006040518263ffffffff1660e01b81526004015f604051808303818588803b15801561148f575f5ffd5b505af11580156114a1573d5f5f3e3d5ffd5b50505050506114ed7f00000000000000000000000000000000000000000000000000000000000000007376ea342bc038d665e8a116392c82552d2605eda1670de0b6b3a7640000612166565b600180601a6101000a81548160ff0219169083151502179055505b565b5f5f73ffffffffffffffffffffffffffffffffffffffff168373ffffffffffffffffffffffffffffffffffffffff16148061155b57505f8373ffffffffffffffffffffffffffffffffffffffff163b145b15611568575f90506115e3565b8273ffffffffffffffffffffffffffffffffffffffff166370a08231836040518263ffffffff1660e01b81526004016115a1919061374a565b602060405180830381865afa1580156115bc573d5f5f3e3d5ffd5b505050506040513d601f19601f820116820180604052508101906115e09190613a7b565b90505b92915050565b5f5f5f6115f46122b5565b90505f7376ea342bc038d665e8a116392c82552d2605eda173ffffffffffffffffffffffffffffffffffffffff163190505f6116647f00000000000000000000000000000000000000000000000000000000000000007376ea342bc038d665e8a116392c82552d2605eda161150a565b90505f5f5f90505b845181101561196c575f85828151811061168957611688613aa6565b5b602002602001015190505f60e01b7bffffffffffffffffffffffffffffffffffffffffffffffffffffffff1916817bffffffffffffffffffffffffffffffffffffffffffffffffffffffff1916036116e15750611961565b5f5f7376ea342bc038d665e8a116392c82552d2605eda173ffffffffffffffffffffffffffffffffffffffff1683604051602401604051602081830303815290604052907bffffffffffffffffffffffffffffffffffffffffffffffffffffffff19166020820180517bffffffffffffffffffffffffffffffffffffffffffffffffffffffff838183161783525050505060405161177f9190613b1b565b5f604051808303815f865af19150503d805f81146117b8576040519150601f19603f3d011682016040523d82523d5f602084013e6117bd565b606091505b50915091508161188d575f818051906020012090505f60e01b7bffffffffffffffffffffffffffffffffffffffffffffffffffffffff19168a7bffffffffffffffffffffffffffffffffffffffffffffffffffffffff191603611884575f60e01b7bffffffffffffffffffffffffffffffffffffffffffffffffffffffff191660148054906101000a900460e01b7bffffffffffffffffffffffffffffffffffffffffffffffffffffffff19160361187b5780601581905550611883565b806016819055505b5b50505050611961565b5f7376ea342bc038d665e8a116392c82552d2605eda173ffffffffffffffffffffffffffffffffffffffff163190505f6118fb7f00000000000000000000000000000000000000000000000000000000000000007376ea342bc038d665e8a116392c82552d2605eda161150a565b90505f6119088983612143565b90505f6119158b85612143565b905081811115611923578091505b8882111561193257819850869c505b67016345785d8a00008210611959576001879d509d505050505050505050505050506119b9565b505050505050505b80600101905061166c565b505f60e01b7bffffffffffffffffffffffffffffffffffffffffffffffffffffffff1916857bffffffffffffffffffffffffffffffffffffffffffffffffffffffff191614159550505050505b9091565b5f5f5f73ffffffffffffffffffffffffffffffffffffffff167f000000000000000000000000000000000000000000000000000000000000000073ffffffffffffffffffffffffffffffffffffffff1603611a1d575f5f9150915061213f565b5f60145f9054906101000a900473ffffffffffffffffffffffffffffffffffffffff1690505f73ffffffffffffffffffffffffffffffffffffffff168173ffffffffffffffffffffffffffffffffffffffff1603611b0e57611a7d612a54565b90505f73ffffffffffffffffffffffffffffffffffffffff168173ffffffffffffffffffffffffffffffffffffffff1614611b0d578060145f6101000a81548173ffffffffffffffffffffffffffffffffffffffff021916908373ffffffffffffffffffffffffffffffffffffffff160217905550600180601e6101000a81548160ff0219169083151502179055505b5b5f73ffffffffffffffffffffffffffffffffffffffff168173ffffffffffffffffffffffffffffffffffffffff1603611b4d575f5f925092505061213f565b5f5f611b6083630dfe168160e01b612f0f565b915091505f5f611b778563d21220a760e01b612f0f565b91509150831580611b86575081155b15611b9b575f5f96509650505050505061213f565b5f7f000000000000000000000000000000000000000000000000000000000000000073ffffffffffffffffffffffffffffffffffffffff168473ffffffffffffffffffffffffffffffffffffffff161490505f7f000000000000000000000000000000000000000000000000000000000000000073ffffffffffffffffffffffffffffffffffffffff168373ffffffffffffffffffffffffffffffffffffffff1614905081158015611c4b575080155b15611c62575f5f985098505050505050505061213f565b5f5f5f611c6e8a61301f565b92509250925082611c8e575f5f9b509b505050505050505050505061213f565b8160125f6101000a8154816dffffffffffffffffffffffffffff02191690836dffffffffffffffffffffffffffff160217905550806012600e6101000a8154816dffffffffffffffffffffffffffff02191690836dffffffffffffffffffffffffffff160217905550611d217f00000000000000000000000000000000000000000000000000000000000000003061150a565b600e8190555060014710611dc7577f000000000000000000000000000000000000000000000000000000000000000073ffffffffffffffffffffffffffffffffffffffff1663d0e30db060016040518263ffffffff1660e01b81526004015f604051808303818588803b158015611d96575f5ffd5b505af1158015611da8573d5f5f3e3d5ffd5b5050505050600160105f828254611dbf9190613b5e565b925050819055505b6001611df37f00000000000000000000000000000000000000000000000000000000000000003061150a565b1015611e0e575f5f9b509b505050505050505050505061213f565b611e3a7f00000000000000000000000000000000000000000000000000000000000000008b6001612166565b600180601f6101000a81548160ff0219169083151502179055508973ffffffffffffffffffffffffffffffffffffffff1663fff6cae96040518163ffffffff1660e01b81526004015f604051808303815f87803b158015611e99575f5ffd5b505af1925050508015611eaa575060015b611ec3575f5f9b509b505050505050505050505061213f565b600160025f6101000a81548160ff021916908315150217905550611ee68a61301f565b80935081945082955050505082611f0c575f5f9b509b505050505050505050505061213f565b5f85611f2857816dffffffffffffffffffffffffffff16611f3a565b826dffffffffffffffffffffffffffff165b905060018111611f5a575f5f9c509c50505050505050505050505061213f565b5f86611f66575f611f74565b600182611f739190613b91565b5b90505f86611f82575f611f90565b600183611f8f9190613b91565b5b90508c73ffffffffffffffffffffffffffffffffffffffff1663022c0d9f8383305f67ffffffffffffffff811115611fcb57611fca613bc4565b5b6040519080825280601f01601f191660200182016040528015611ffd5781602001600182028036833780820191505090505b506040518563ffffffff1660e01b815260040161201d9493929190613c49565b5f604051808303815f87803b158015612034575f5ffd5b505af1925050508015612045575060015b612061575f5f9e509e505050505050505050505050505061213f565b60019e5061208f7f00000000000000000000000000000000000000000000000000000000000000003061150a565b600f819055506120a3600e54600f54612143565b9d508d6011819055506120b58d61301f565b8096508197508298505050508515612131578460135f6101000a8154816dffffffffffffffffffffffffffff02191690836dffffffffffffffffffffffffffff160217905550836013600e6101000a8154816dffffffffffffffffffffffffffff02191690836dffffffffffffffffffffffffffff1602179055505b505050505050505050505050505b9091565b5f828211612151575f61215e565b828261215d9190613b91565b5b905092915050565b5f5f8473ffffffffffffffffffffffffffffffffffffffff1663a9059cbb60e01b858560405160240161219a929190613c93565b604051602081830303815290604052907bffffffffffffffffffffffffffffffffffffffffffffffffffffffff19166020820180517bffffffffffffffffffffffffffffffffffffffffffffffffffffffff83818316178352505050506040516122049190613b1b565b5f604051808303815f865af19150503d805f811461223d576040519150601f19603f3d011682016040523d82523d5f602084013e612242565b606091505b509150915081801561226f57505f8151148061226e57508080602001905181019061226d9190613ce4565b5b5b6122ae576040517f08c379a00000000000000000000000000000000000000000000000000000000081526004016122a590613d59565b60405180910390fd5b5050505050565b60605f7376ea342bc038d665e8a116392c82552d2605eda173ffffffffffffffffffffffffffffffffffffffff16803b806020016040519081016040528181525f908060200190933c90505f81510361255d57600467ffffffffffffffff81111561232357612322613bc4565b5b6040519080825280602002602001820160405280156123515781602001602082028036833780820191505090505b5091507f3c2448ed7c55bfe453d87e582eb1b219fa5a8a5528f8422451167312fc448090825f8151811061238857612387613aa6565b5b60200260200101907bffffffffffffffffffffffffffffffffffffffffffffffffffffffff191690817bffffffffffffffffffffffffffffffffffffffffffffffffffffffff1916815250507f614619540b5b5abe478b88f28a37eb328054be3b41a7570ad5e8b701113364c48260018151811061240957612408613aa6565b5b60200260200101907bffffffffffffffffffffffffffffffffffffffffffffffffffffffff191690817bffffffffffffffffffffffffffffffffffffffffffffffffffffffff1916815250507f63d9b7709647cea5bc59417f4dcb03df6e56cc17c4929b4ef2aa8fb22e69c5b28260028151811061248a57612489613aa6565b5b60200260200101907bffffffffffffffffffffffffffffffffffffffffffffffffffffffff191690817bffffffffffffffffffffffffffffffffffffffffffffffffffffffff1916815250507fc0406226a44c49a673ef01611ce55e97850e1c520ac5d22c6854eb2dbaee70408260038151811061250b5761250a613aa6565b5b60200260200101907bffffffffffffffffffffffffffffffffffffffffffffffffffffffff191690817bffffffffffffffffffffffffffffffffffffffffffffffffffffffff19168152505050612a51565b5f815190506101408111156125725761014090505b5f602067ffffffffffffffff81111561258e5761258d613bc4565b5b6040519080825280602002602001820160405280156125bc5781602001602082028036833780820191505090505b5090505f5f5f90505b836004826125d39190613b5e565b1015612700575f8582815181106125ed576125ec613aa6565b5b602001015160f81c60f81b60f81c905060638160ff16036126c4575f6126138784613141565b905061261e81613233565b15801561263357506126318585836134ac565b155b156126ae578085858151811061264c5761264b613aa6565b5b60200260200101907bffffffffffffffffffffffffffffffffffffffffffffffffffffffff191690817bffffffffffffffffffffffffffffffffffffffffffffffffffffffff191681525050836001019350845184036126ad575050612700565b5b6004836126bb9190613b5e565b925050506126ef565b60608160ff16101580156126dc5750607f8160ff1611155b156126ed57605f810360ff16820191505b505b806126f990613d77565b90506125c5565b505f60405180608001604052807f3c2448ed7c55bfe453d87e582eb1b219fa5a8a5528f8422451167312fc4480907bffffffffffffffffffffffffffffffffffffffffffffffffffffffff19167bffffffffffffffffffffffffffffffffffffffffffffffffffffffff191681526020017f614619540b5b5abe478b88f28a37eb328054be3b41a7570ad5e8b701113364c47bffffffffffffffffffffffffffffffffffffffffffffffffffffffff19167bffffffffffffffffffffffffffffffffffffffffffffffffffffffff191681526020017f63d9b7709647cea5bc59417f4dcb03df6e56cc17c4929b4ef2aa8fb22e69c5b27bffffffffffffffffffffffffffffffffffffffffffffffffffffffff19167bffffffffffffffffffffffffffffffffffffffffffffffffffffffff191681526020017fc0406226a44c49a673ef01611ce55e97850e1c520ac5d22c6854eb2dbaee70407bffffffffffffffffffffffffffffffffffffffffffffffffffffffff19167bffffffffffffffffffffffffffffffffffffffffffffffffffffffff191681525090505f5f90505b6004811080156128b25750835183105b1561296c576128d984848484600481106128cf576128ce613aa6565b5b60200201516134ac565b61295b578181600481106128f0576128ef613aa6565b5b602002015184848151811061290857612907613aa6565b5b60200260200101907bffffffffffffffffffffffffffffffffffffffffffffffffffffffff191690817bffffffffffffffffffffffffffffffffffffffffffffffffffffffff1916815250508260010192505b8061296590613d77565b90506128a2565b508167ffffffffffffffff81111561298757612986613bc4565b5b6040519080825280602002602001820160405280156129b55781602001602082028036833780820191505090505b5095505f5f90505b82811015612a4a578381815181106129d8576129d7613aa6565b5b60200260200101518782815181106129f3576129f2613aa6565b5b60200260200101907bffffffffffffffffffffffffffffffffffffffffffffffffffffffff191690817bffffffffffffffffffffffffffffffffffffffffffffffffffffffff1916815250508060010190506129bd565b5050505050505b90565b5f5f73ffffffffffffffffffffffffffffffffffffffff167f000000000000000000000000000000000000000000000000000000000000000073ffffffffffffffffffffffffffffffffffffffff1603612ab0575f9050612f0c565b5f7376ea342bc038d665e8a116392c82552d2605eda173ffffffffffffffffffffffffffffffffffffffff16803b806020016040519081016040528181525f908060200190933c90505f604067ffffffffffffffff811115612b1557612b14613bc4565b5b604051908082528060200260200182016040528015612b435781602001602082028036833780820191505090505b5090505f5f5f5f90505b8451811015612f06575f858281518110612b6a57612b69613aa6565b5b602001015160f81c60f81b60f81c905060738160ff16148015612b9957508551601483612b979190613b5e565b105b15612eca575f612bb587600185612bb09190613b5e565b61353a565b90505f73ffffffffffffffffffffffffffffffffffffffff168173ffffffffffffffffffffffffffffffffffffffff1614158015612c3357507376ea342bc038d665e8a116392c82552d2605eda173ffffffffffffffffffffffffffffffffffffffff168173ffffffffffffffffffffffffffffffffffffffff1614155b8015612c8b57507f000000000000000000000000000000000000000000000000000000000000000073ffffffffffffffffffffffffffffffffffffffff168173ffffffffffffffffffffffffffffffffffffffff1614155b8015612cad57505f8173ffffffffffffffffffffffffffffffffffffffff163b115b8015612cc15750612cbf8686836135ad565b155b15612eb45780868681518110612cda57612cd9613aa6565b5b602002602001019073ffffffffffffffffffffffffffffffffffffffff16908173ffffffffffffffffffffffffffffffffffffffff16815250508460010194505f5f612d2d83630dfe168160e01b612f0f565b915091505f5f612d448563d21220a760e01b612f0f565b91509150838015612d525750815b8015612dff57507f000000000000000000000000000000000000000000000000000000000000000073ffffffffffffffffffffffffffffffffffffffff168373ffffffffffffffffffffffffffffffffffffffff161480612dfe57507f000000000000000000000000000000000000000000000000000000000000000073ffffffffffffffffffffffffffffffffffffffff168173ffffffffffffffffffffffffffffffffffffffff16145b5b15612eaf575f5f5f612e108861301f565b9250925092508215612eab575f7f000000000000000000000000000000000000000000000000000000000000000073ffffffffffffffffffffffffffffffffffffffff168773ffffffffffffffffffffffffffffffffffffffff1614612e8657816dffffffffffffffffffffffffffff16612e98565b826dffffffffffffffffffffffffffff165b90508b811115612ea957809b50889f505b505b5050505b505050505b601483612ec19190613b5e565b92505050612ef5565b60608160ff1610158015612ee25750607f8160ff1611155b15612ef357605f810360ff16820191505b505b80612eff90613d77565b9050612b4d565b50505050505b90565b5f5f60608473ffffffffffffffffffffffffffffffffffffffff1684604051602401604051602081830303815290604052907bffffffffffffffffffffffffffffffffffffffffffffffffffffffff19166020820180517bffffffffffffffffffffffffffffffffffffffffffffffffffffffff8381831617835250505050604051612f9b9190613b1b565b5f60405180830381855afa9150503d805f8114612fd3576040519150601f19603f3d011682016040523d82523d5f602084013e612fd8565b606091505b508092508194505050821580612fef575060208151105b15613000575f5f9250925050613018565b808060200190518101906130149190613de8565b9150505b9250929050565b5f5f5f60608473ffffffffffffffffffffffffffffffffffffffff16630902f1ac60e01b604051602401604051602081830303815290604052907bffffffffffffffffffffffffffffffffffffffffffffffffffffffff19166020820180517bffffffffffffffffffffffffffffffffffffffffffffffffffffffff83818316178352505050506040516130b39190613b1b565b5f60405180830381855afa9150503d805f81146130eb576040519150601f19603f3d011682016040523d82523d5f602084013e6130f0565b606091505b508092508195505050831580613107575060608151105b1561311b575f5f5f9350935093505061313a565b8080602001905181019061312f9190613e76565b508093508194505050505b9193909250565b5f5f836004846131519190613b5e565b8151811061316257613161613aa6565b5b602001015160f81c60f81b60f81c60ff166008856003866131839190613b5e565b8151811061319457613193613aa6565b5b602001015160f81c60f81b60f81c60ff1663ffffffff16901b6010866002876131bd9190613b5e565b815181106131ce576131cd613aa6565b5b602001015160f81c60f81b60f81c60ff1663ffffffff16901b6018876001886131f79190613b5e565b8151811061320857613207613aa6565b5b602001015160f81c60f81b60f81c60ff1663ffffffff16901b17171790508060e01b91505092915050565b5f6370a0823160e01b7bffffffffffffffffffffffffffffffffffffffffffffffffffffffff1916827bffffffffffffffffffffffffffffffffffffffffffffffffffffffff191614806132cb575063a9059cbb60e01b7bffffffffffffffffffffffffffffffffffffffffffffffffffffffff1916827bffffffffffffffffffffffffffffffffffffffffffffffffffffffff1916145b8061331a575063d0e30db060e01b7bffffffffffffffffffffffffffffffffffffffffffffffffffffffff1916827bffffffffffffffffffffffffffffffffffffffffffffffffffffffff1916145b80613369575063fff6cae960e01b7bffffffffffffffffffffffffffffffffffffffffffffffffffffffff1916827bffffffffffffffffffffffffffffffffffffffffffffffffffffffff1916145b806133b85750630902f1ac60e01b7bffffffffffffffffffffffffffffffffffffffffffffffffffffffff1916827bffffffffffffffffffffffffffffffffffffffffffffffffffffffff1916145b806134075750630dfe168160e01b7bffffffffffffffffffffffffffffffffffffffffffffffffffffffff1916827bffffffffffffffffffffffffffffffffffffffffffffffffffffffff1916145b80613456575063d21220a760e01b7bffffffffffffffffffffffffffffffffffffffffffffffffffffffff1916827bffffffffffffffffffffffffffffffffffffffffffffffffffffffff1916145b806134a5575063022c0d9f60e01b7bffffffffffffffffffffffffffffffffffffffffffffffffffffffff1916827bffffffffffffffffffffffffffffffffffffffffffffffffffffffff1916145b9050919050565b5f5f5f90505b8381101561352e57827bffffffffffffffffffffffffffffffffffffffffffffffffffffffff19168582815181106134ed576134ec613aa6565b5b60200260200101517bffffffffffffffffffffffffffffffffffffffffffffffffffffffff191603613523576001915050613533565b8060010190506134b2565b505f90505b9392505050565b5f5f5f5f90505b60148110156135a2578481856135579190613b5e565b8151811061356857613567613aa6565b5b602001015160f81c60f81b60f81c60ff1660088373ffffffffffffffffffffffffffffffffffffffff16901b179150806001019050613541565b508091505092915050565b5f5f5f90505b8381101561361d578273ffffffffffffffffffffffffffffffffffffffff168582815181106135e5576135e4613aa6565b5b602002602001015173ffffffffffffffffffffffffffffffffffffffff1603613612576001915050613622565b8060010190506135b3565b505f90505b9392505050565b60b880613ec783390190565b5f8115159050919050565b61364981613635565b82525050565b5f6020820190506136625f830184613640565b92915050565b5f6dffffffffffffffffffffffffffff82169050919050565b61368a81613668565b82525050565b5f6020820190506136a35f830184613681565b92915050565b5f819050919050565b6136bb816136a9565b82525050565b5f6020820190506136d45f8301846136b2565b92915050565b5f819050919050565b6136ec816136da565b82525050565b5f6020820190506137055f8301846136e3565b92915050565b5f73ffffffffffffffffffffffffffffffffffffffff82169050919050565b5f6137348261370b565b9050919050565b6137448161372a565b82525050565b5f60208201905061375d5f83018461373b565b92915050565b5f7fffffffff0000000000000000000000000000000000000000000000000000000082169050919050565b61379781613763565b82525050565b5f6020820190506137b05f83018461378e565b92915050565b5f82825260208201905092915050565b7f616c7265616479206578656375746564000000000000000000000000000000005f82015250565b5f6137fa6010836137b6565b9150613805826137c6565b602082019050919050565b5f6020820190508181035f830152613827816137ee565b9050919050565b7f70726566756e64207265717569726564000000000000000000000000000000005f82015250565b5f6138626010836137b6565b915061386d8261382e565b602082019050919050565b5f6020820190508181035f83015261388f81613856565b9050919050565b7f66697273742074726967676572206661696c65640000000000000000000000005f82015250565b5f6138ca6014836137b6565b91506138d582613896565b602082019050919050565b5f6020820190508181035f8301526138f7816138be565b9050919050565b7f70726f6669742062656c6f77207468726573686f6c64000000000000000000005f82015250565b5f6139326016836137b6565b915061393d826138fe565b602082019050919050565b5f6020820190508181035f83015261395f81613926565b9050919050565b5f60e0820190506139795f83018a6136e3565b61398660208301896136e3565b61399360408301886136e3565b6139a060608301876136e3565b6139ad60808301866136e3565b6139ba60a08301856136e3565b6139c760c08301846136e3565b98975050505050505050565b5f81905092915050565b50565b5f6139eb5f836139d3565b91506139f6826139dd565b5f82019050919050565b5f613a0a826139e0565b9150819050919050565b5f613a1e8261370b565b9050919050565b613a2e81613a14565b82525050565b5f602082019050613a475f830184613a25565b92915050565b5f5ffd5b613a5a816136da565b8114613a64575f5ffd5b50565b5f81519050613a7581613a51565b92915050565b5f60208284031215613a9057613a8f613a4d565b5b5f613a9d84828501613a67565b91505092915050565b7f4e487b71000000000000000000000000000000000000000000000000000000005f52603260045260245ffd5b5f81519050919050565b8281835e5f83830152505050565b5f613af582613ad3565b613aff81856139d3565b9350613b0f818560208601613add565b80840191505092915050565b5f613b268284613aeb565b915081905092915050565b7f4e487b71000000000000000000000000000000000000000000000000000000005f52601160045260245ffd5b5f613b68826136da565b9150613b73836136da565b9250828201905080821115613b8b57613b8a613b31565b5b92915050565b5f613b9b826136da565b9150613ba6836136da565b9250828203905081811115613bbe57613bbd613b31565b5b92915050565b7f4e487b71000000000000000000000000000000000000000000000000000000005f52604160045260245ffd5b5f82825260208201905092915050565b5f601f19601f8301169050919050565b5f613c1b82613ad3565b613c258185613bf1565b9350613c35818560208601613add565b613c3e81613c01565b840191505092915050565b5f608082019050613c5c5f8301876136e3565b613c6960208301866136e3565b613c76604083018561373b565b8181036060830152613c888184613c11565b905095945050505050565b5f604082019050613ca65f83018561373b565b613cb360208301846136e3565b9392505050565b613cc381613635565b8114613ccd575f5ffd5b50565b5f81519050613cde81613cba565b92915050565b5f60208284031215613cf957613cf8613a4d565b5b5f613d0684828501613cd0565b91505092915050565b7f5452414e534645525f4641494c454400000000000000000000000000000000005f82015250565b5f613d43600f836137b6565b9150613d4e82613d0f565b602082019050919050565b5f6020820190508181035f830152613d7081613d37565b9050919050565b5f613d81826136da565b91507fffffffffffffffffffffffffffffffffffffffffffffffffffffffffffffffff8203613db357613db2613b31565b5b600182019050919050565b613dc781613a14565b8114613dd1575f5ffd5b50565b5f81519050613de281613dbe565b92915050565b5f60208284031215613dfd57613dfc613a4d565b5b5f613e0a84828501613dd4565b91505092915050565b613e1c81613668565b8114613e26575f5ffd5b50565b5f81519050613e3781613e13565b92915050565b5f63ffffffff82169050919050565b613e5581613e3d565b8114613e5f575f5ffd5b50565b5f81519050613e7081613e4c565b92915050565b5f5f5f60608486031215613e8d57613e8c613a4d565b5b5f613e9a86828701613e29565b9350506020613eab86828701613e29565b9250506040613ebc86828701613e62565b915050925092509256fe608060405260405160b838038060b88339818101604052810190602191906091565b8073ffffffffffffffffffffffffffffffffffffffff16ff5b5f5ffd5b5f73ffffffffffffffffffffffffffffffffffffffff82169050919050565b5f606582603e565b9050919050565b607381605d565b8114607c575f5ffd5b50565b5f81519050608b81606c565b92915050565b5f6020828403121560a35760a2603a565b5b5f60ae84828501607f565b9150509291505056fea26469706673582212209845ee76125c0789fe8908eb6e79539d659195a112ad21ed94fcc329f5cb14fa64736f6c634300081e0033","linkReferences":{}},"methodIdentifiers":{"LIVE_TARGET()":"e62f5996","executeOnOpportunity()":"3c2448ed","executed()":"31a38c89","finalWethBalance()":"30b6ade6","firstExecutor()":"738d2363","firstObservedEthGain()":"d20c7fe4","firstObservedWethGain()":"2b532c62","firstSelectorTried()":"7ad1fc8f","firstTargetCallRevertHash()":"92300900","firstTargetCallSucceeded()":"d14128d3","initialWethBalance()":"ee29d913","pairMutationAttempted()":"9faaa193","pairMutationSucceeded()":"f100d286","pairResolved()":"be9b5ab4","path0OperatorPrefundObserved()":"954af3b4","path1ThirdPartyTriggerObserved()":"f849a2d1","path2OneShotOpportunityConsumed()":"1e83f19f","prefundUsedForceEther()":"e45c99ae","prefundUsedLocalBalance()":"121513b6","profitAmount()":"5ff972cc","profitToken()":"49343624","reserve0After()":"f8fa884b","reserve0Before()":"ed7a139f","reserve1After()":"125a1426","reserve1Before()":"7e68c85d","secondObservedEthGain()":"a659f594","secondObservedWethGain()":"2be77e2d","secondSelectorTried()":"b91c8691","secondTargetCallRevertHash()":"22b616ec","secondTargetCallSucceeded()":"17c62651","targetEthAfterFirstCall()":"245db1e3","targetEthAfterPrefund()":"977ef447","targetEthAfterSecondCall()":"903f4a0c","targetEthBefore()":"6891e3c0","targetPair()":"c6c6c5ab","targetWethAfterFirstCall()":"d1badad3","targetWethAfterPrefund()":"9a98b2bc","targetWethAfterSecondCall()":"49386477","usedDirectPairFallback()":"20367a31","wethPulledOut()":"56efdfb9","wethSeedSent()":"d4e90bfe","wethWrapped()":"6205a08a"},"id":1}