{"abi":[{"type":"constructor","inputs":[{"name":"_stakedTokenAddress","type":"address","internalType":"address"},{"name":"_controller","type":"address","internalType":"address"}],"stateMutability":"nonpayable"},{"type":"function","name":"allowance","inputs":[{"name":"","type":"address","internalType":"address"},{"name":"","type":"address","internalType":"address"}],"outputs":[{"name":"","type":"uint256","internalType":"uint256"}],"stateMutability":"view"},{"type":"function","name":"approve","inputs":[{"name":"spender","type":"address","internalType":"address"},{"name":"amount","type":"uint256","internalType":"uint256"}],"outputs":[{"name":"","type":"bool","internalType":"bool"}],"stateMutability":"nonpayable"},{"type":"function","name":"balanceOf","inputs":[{"name":"","type":"address","internalType":"address"}],"outputs":[{"name":"","type":"uint256","internalType":"uint256"}],"stateMutability":"view"},{"type":"function","name":"burn","inputs":[{"name":"from","type":"address","internalType":"address"},{"name":"amount","type":"uint256","internalType":"uint256"}],"outputs":[],"stateMutability":"nonpayable"},{"type":"function","name":"controller","inputs":[],"outputs":[{"name":"","type":"address","internalType":"address"}],"stateMutability":"view"},{"type":"function","name":"decimals","inputs":[],"outputs":[{"name":"","type":"uint8","internalType":"uint8"}],"stateMutability":"view"},{"type":"function","name":"mint","inputs":[{"name":"to","type":"address","internalType":"address"},{"name":"amount","type":"uint256","internalType":"uint256"}],"outputs":[],"stateMutability":"nonpayable"},{"type":"function","name":"name","inputs":[],"outputs":[{"name":"","type":"string","internalType":"string"}],"stateMutability":"view"},{"type":"function","name":"rebase","inputs":[{"name":"","type":"uint256","internalType":"uint256"},{"name":"","type":"bool","internalType":"bool"},{"name":"","type":"uint256","internalType":"uint256"}],"outputs":[{"name":"","type":"uint256","internalType":"uint256"}],"stateMutability":"view"},{"type":"function","name":"scaledBalanceOf","inputs":[{"name":"who","type":"address","internalType":"address"}],"outputs":[{"name":"","type":"uint256","internalType":"uint256"}],"stateMutability":"view"},{"type":"function","name":"scaledBalanceToBalance","inputs":[{"name":"scaledBalance","type":"uint256","internalType":"uint256"}],"outputs":[{"name":"","type":"uint256","internalType":"uint256"}],"stateMutability":"pure"},{"type":"function","name":"stakedTokenAddress","inputs":[],"outputs":[{"name":"","type":"address","internalType":"address"}],"stateMutability":"view"},{"type":"function","name":"symbol","inputs":[],"outputs":[{"name":"","type":"string","internalType":"string"}],"stateMutability":"view"},{"type":"function","name":"totalSupply","inputs":[],"outputs":[{"name":"","type":"uint256","internalType":"uint256"}],"stateMutability":"view"},{"type":"function","name":"transfer","inputs":[{"name":"to","type":"address","internalType":"address"},{"name":"amount","type":"uint256","internalType":"uint256"}],"outputs":[{"name":"","type":"bool","internalType":"bool"}],"stateMutability":"nonpayable"},{"type":"function","name":"transferFrom","inputs":[{"name":"from","type":"address","internalType":"address"},{"name":"to","type":"address","internalType":"address"},{"name":"amount","type":"uint256","internalType":"uint256"}],"outputs":[{"name":"","type":"bool","internalType":"bool"}],"stateMutability":"nonpayable"}],"bytecode":{"object":"0x60c03461008057601f61077c38819003918201601f19168301916001600160401b0383118484101761008457808492604094855283398101031261008057610052602061004b83610098565b9201610098565b9060805260a0526040516106cf90816100ad82396080518160de015260a05181818161012601526103310152f35b5f80fd5b634e487b7160e01b5f52604160045260245ffd5b51906001600160a01b03821682036100805756fe60806040526004361015610011575f80fd5b5f3560e01c806306fdde031461053f578063095ea7b3146104f857806318160ddd146104dc5780631da24f3e146102bd57806323b872dd146103df578063313ce567146103c457806340c10f1914610312578063417cf3df146102f557806370a08231146102bd5780637b58b42c1461029557806395d89b411461022d5780639dc29fac146101d6578063a9059cbb146101a5578063dd62ed3e14610155578063f77c4791146101115763ff333a76146100c9575f80fd5b3461010d575f36600319011261010d576040517f00000000000000000000000000000000000000000000000000000000000000006001600160a01b03168152602090f35b5f80fd5b3461010d575f36600319011261010d576040517f00000000000000000000000000000000000000000000000000000000000000006001600160a01b03168152602090f35b3461010d57604036600319011261010d5761016e6105cd565b6101766105e3565b6001600160a01b039182165f908152600260209081526040808320949093168252928352819020549051908152f35b3461010d57604036600319011261010d576101cb6101c16105cd565b602435903361063c565b602060405160018152f35b3461010d57604036600319011261010d576101ef6105cd565b6024359060018060a01b0316805f5260016020526102138260405f205410156105f9565b5f52600160205260405f208181540390555f54035f555f80f35b3461010d575f36600319011261010d57604051604081019080821067ffffffffffffffff8311176102815761027d9160405260058152640cce48aa8960db1b6020820152604051918291826105a3565b0390f35b634e487b7160e01b5f52604160045260245ffd5b3461010d57606036600319011261010d576024358015150361010d5760205f54604051908152f35b3461010d57602036600319011261010d576001600160a01b036102de6105cd565b165f526001602052602060405f2054604051908152f35b3461010d57602036600319011261010d5760206040516004358152f35b3461010d57604036600319011261010d5761032b6105cd565b602435907f00000000000000000000000000000000000000000000000000000000000000006001600160a01b0316330361038e5761036a825f5461068c565b5f5560018060a01b03165f52600160205261038a60405f2091825461068c565b9055005b60405162461bcd60e51b815260206004820152600e60248201526d3737ba1031b7b73a3937b63632b960911b6044820152606490fd5b3461010d575f36600319011261010d57602060405160128152f35b3461010d57606036600319011261010d576103f86105cd565b6104006105e3565b6001600160a01b0382165f81815260026020908152604080832033808552925290912054919360443593929091851415806104d1575b610446575b506101cb935061063c565b8381106104935783810390811161047f576101cb945f52600260205260405f2060018060a01b0333165f5260205260405f20558461043b565b634e487b7160e01b5f52601160045260245ffd5b60405162461bcd60e51b8152602060048201526016602482015275696e73756666696369656e7420616c6c6f77616e636560501b6044820152606490fd5b505f19811415610436565b3461010d575f36600319011261010d5760205f54604051908152f35b3461010d57604036600319011261010d576105116105cd565b335f52600260205260405f209060018060a01b03165f5260205260405f206024359055602060405160018152f35b3461010d575f36600319011261010d57604051604081019080821067ffffffffffffffff8311176102815761027d91604052601881527f46616b65204173747269642052657374616b65642045544800000000000000006020820152604051918291825b602060409281835280519182918282860152018484015e5f828201840152601f01601f1916010190565b600435906001600160a01b038216820361010d57565b602435906001600160a01b038216820361010d57565b1561060057565b60405162461bcd60e51b8152602060048201526014602482015273696e73756666696369656e742062616c616e636560601b6044820152606490fd5b6001600160a01b03165f8181526001602052604090205461065f908411156105f9565b5f90815260016020526040808220805485900390556001600160a01b039290921681522080549091019055565b9190820180921161047f5756fea264697066735822122001cec0b9b07c4dbeca6eab62d0356d12a3c91edf2e4669f874a4325a908dd9fc64736f6c634300081e0033","linkReferences":{}},"methodIdentifiers":{"allowance(address,address)":"dd62ed3e","approve(address,uint256)":"095ea7b3","balanceOf(address)":"70a08231","burn(address,uint256)":"9dc29fac","controller()":"f77c4791","decimals()":"313ce567","mint(address,uint256)":"40c10f19","name()":"06fdde03","rebase(uint256,bool,uint256)":"7b58b42c","scaledBalanceOf(address)":"1da24f3e","scaledBalanceToBalance(uint256)":"417cf3df","stakedTokenAddress()":"ff333a76","symbol()":"95d89b41","totalSupply()":"18160ddd","transfer(address,uint256)":"a9059cbb","transferFrom(address,address,uint256)":"23b872dd"},"id":0}