{"abi":[{"type":"function","name":"exec","inputs":[{"name":"target","type":"address","internalType":"address"},{"name":"value","type":"uint256","internalType":"uint256"},{"name":"data","type":"bytes","internalType":"bytes"}],"outputs":[{"name":"","type":"bytes","internalType":"bytes"}],"stateMutability":"payable"},{"type":"function","name":"initialize","inputs":[],"outputs":[],"stateMutability":"nonpayable"},{"type":"function","name":"owner","inputs":[],"outputs":[{"name":"","type":"address","internalType":"address"}],"stateMutability":"view"},{"type":"function","name":"uniswapV2Call","inputs":[{"name":"sender","type":"address","internalType":"address"},{"name":"amount0","type":"uint256","internalType":"uint256"},{"name":"amount1","type":"uint256","internalType":"uint256"},{"name":"data","type":"bytes","internalType":"bytes"}],"outputs":[],"stateMutability":"nonpayable"}],"bytecode":{"object":"0x6080604052348015600e575f5ffd5b506111068061001c5f395ff3fe60806040526004361061003e575f3560e01c80630565bb671461004257806310d1e85c146100725780638129fc1c1461009a5780638da5cb5b146100b0575b5f5ffd5b61005c6004803603810190610057919061092e565b6100da565b6040516100699190610a0f565b60405180910390f35b34801561007d575f5ffd5b5061009860048036038101906100939190610a2f565b610225565b005b3480156100a5575f5ffd5b506100ae6105d5565b005b3480156100bb575f5ffd5b506100c46106a4565b6040516100d19190610ac2565b60405180910390f35b60605f5f9054906101000a900473ffffffffffffffffffffffffffffffffffffffff1673ffffffffffffffffffffffffffffffffffffffff163373ffffffffffffffffffffffffffffffffffffffff161461016a576040517f08c379a000000000000000000000000000000000000000000000000000000000815260040161016190610b35565b60405180910390fd5b5f5f8673ffffffffffffffffffffffffffffffffffffffff16868686604051610194929190610b8f565b5f6040518083038185875af1925050503d805f81146101ce576040519150601f19603f3d011682016040523d82523d5f602084013e6101d3565b606091505b509150915081610218576040517f08c379a000000000000000000000000000000000000000000000000000000000815260040161020f90610bf1565b60405180910390fd5b8092505050949350505050565b3073ffffffffffffffffffffffffffffffffffffffff168573ffffffffffffffffffffffffffffffffffffffff1614610293576040517f08c379a000000000000000000000000000000000000000000000000000000000815260040161028a90610c59565b60405180910390fd5b5f5f5f5f5f5f87878101906102a89190610cb2565b9550955095509550955095505f5f8b116102c257896102c4565b8a5b90505f8111610308576040517f08c379a00000000000000000000000000000000000000000000000000000000081526004016102ff90610d85565b60405180910390fd5b6103138688836106c8565b5f8773ffffffffffffffffffffffffffffffffffffffff16630dfe16816040518163ffffffff1660e01b8152600401602060405180830381865afa15801561035d573d5f5f3e3d5ffd5b505050506040513d601f19601f820116820180604052508101906103819190610db7565b90508573ffffffffffffffffffffffffffffffffffffffff168173ffffffffffffffffffffffffffffffffffffffff1603610473578773ffffffffffffffffffffffffffffffffffffffff1663022c0d9f865f305f67ffffffffffffffff8111156103ef576103ee610de2565b5b6040519080825280601f01601f1916602001820160405280156104215781602001600182028036833780820191505090505b506040518563ffffffff1660e01b81526004016104419493929190610e60565b5f604051808303815f87803b158015610458575f5ffd5b505af115801561046a573d5f5f3e3d5ffd5b5050505061052c565b8773ffffffffffffffffffffffffffffffffffffffff1663022c0d9f5f87305f67ffffffffffffffff8111156104ac576104ab610de2565b5b6040519080825280601f01601f1916602001820160405280156104de5781602001600182028036833780820191505090505b506040518563ffffffff1660e01b81526004016104fe9493929190610eaa565b5f604051808303815f87803b158015610515575f5ffd5b505af1158015610527573d5f5f3e3d5ffd5b505050505b6105378633866106c8565b5f8673ffffffffffffffffffffffffffffffffffffffff166370a08231306040518263ffffffff1660e01b81526004016105719190610ac2565b602060405180830381865afa15801561058c573d5f5f3e3d5ffd5b505050506040513d601f19601f820116820180604052508101906105b09190610f08565b90505f81146105c5576105c48785836106c8565b5b5050505050505050505050505050565b5f73ffffffffffffffffffffffffffffffffffffffff165f5f9054906101000a900473ffffffffffffffffffffffffffffffffffffffff1673ffffffffffffffffffffffffffffffffffffffff1614610663576040517f08c379a000000000000000000000000000000000000000000000000000000000815260040161065a90610f7d565b60405180910390fd5b335f5f6101000a81548173ffffffffffffffffffffffffffffffffffffffff021916908373ffffffffffffffffffffffffffffffffffffffff160217905550565b5f5f9054906101000a900473ffffffffffffffffffffffffffffffffffffffff1681565b5f810315610833575f5f8473ffffffffffffffffffffffffffffffffffffffff1684846040516024016106fc929190610f9b565b6040516020818303038152906040527fa9059cbb000000000000000000000000000000000000000000000000000000007bffffffffffffffffffffffffffffffffffffffffffffffffffffffff19166020820180517bffffffffffffffffffffffffffffffffffffffffffffffffffffffff83818316178352505050506040516107869190610ff2565b5f604051808303815f865af19150503d805f81146107bf576040519150601f19603f3d011682016040523d82523d5f602084013e6107c4565b606091505b50915091508180156107f157505f815114806107f05750808060200190518101906107ef919061103d565b5b5b610830576040517f08c379a0000000000000000000000000000000000000000000000000000000008152600401610827906110b2565b60405180910390fd5b50505b505050565b5f5ffd5b5f5ffd5b5f73ffffffffffffffffffffffffffffffffffffffff82169050919050565b5f61086982610840565b9050919050565b6108798161085f565b8114610883575f5ffd5b50565b5f8135905061089481610870565b92915050565b5f819050919050565b6108ac8161089a565b81146108b6575f5ffd5b50565b5f813590506108c7816108a3565b92915050565b5f5ffd5b5f5ffd5b5f5ffd5b5f5f83601f8401126108ee576108ed6108cd565b5b8235905067ffffffffffffffff81111561090b5761090a6108d1565b5b602083019150836001820283011115610927576109266108d5565b5b9250929050565b5f5f5f5f6060858703121561094657610945610838565b5b5f61095387828801610886565b9450506020610964878288016108b9565b935050604085013567ffffffffffffffff8111156109855761098461083c565b5b610991878288016108d9565b925092505092959194509250565b5f81519050919050565b5f82825260208201905092915050565b8281835e5f83830152505050565b5f601f19601f8301169050919050565b5f6109e18261099f565b6109eb81856109a9565b93506109fb8185602086016109b9565b610a04816109c7565b840191505092915050565b5f6020820190508181035f830152610a2781846109d7565b905092915050565b5f5f5f5f5f60808688031215610a4857610a47610838565b5b5f610a5588828901610886565b9550506020610a66888289016108b9565b9450506040610a77888289016108b9565b935050606086013567ffffffffffffffff811115610a9857610a9761083c565b5b610aa4888289016108d9565b92509250509295509295909350565b610abc8161085f565b82525050565b5f602082019050610ad55f830184610ab3565b92915050565b5f82825260208201905092915050565b7f6e6f74206f776e657200000000000000000000000000000000000000000000005f82015250565b5f610b1f600983610adb565b9150610b2a82610aeb565b602082019050919050565b5f6020820190508181035f830152610b4c81610b13565b9050919050565b5f81905092915050565b828183375f83830152505050565b5f610b768385610b53565b9350610b83838584610b5d565b82840190509392505050565b5f610b9b828486610b6b565b91508190509392505050565b7f65786563206661696c65640000000000000000000000000000000000000000005f82015250565b5f610bdb600b83610adb565b9150610be682610ba7565b602082019050919050565b5f6020820190508181035f830152610c0881610bcf565b9050919050565b7f6261642073656e646572000000000000000000000000000000000000000000005f82015250565b5f610c43600a83610adb565b9150610c4e82610c0f565b602082019050919050565b5f6020820190508181035f830152610c7081610c37565b9050919050565b5f610c8182610840565b9050919050565b610c9181610c77565b8114610c9b575f5ffd5b50565b5f81359050610cac81610c88565b92915050565b5f5f5f5f5f5f60c08789031215610ccc57610ccb610838565b5b5f610cd989828a01610c9e565b9650506020610cea89828a01610c9e565b9550506040610cfb89828a01610c9e565b9450506060610d0c89828a016108b9565b9350506080610d1d89828a016108b9565b92505060a0610d2e89828a01610c9e565b9150509295509295509295565b7f6e6f20626f72726f7700000000000000000000000000000000000000000000005f82015250565b5f610d6f600983610adb565b9150610d7a82610d3b565b602082019050919050565b5f6020820190508181035f830152610d9c81610d63565b9050919050565b5f81519050610db181610870565b92915050565b5f60208284031215610dcc57610dcb610838565b5b5f610dd984828501610da3565b91505092915050565b7f4e487b71000000000000000000000000000000000000000000000000000000005f52604160045260245ffd5b610e188161089a565b82525050565b5f819050919050565b5f819050919050565b5f610e4a610e45610e4084610e1e565b610e27565b61089a565b9050919050565b610e5a81610e30565b82525050565b5f608082019050610e735f830187610e0f565b610e806020830186610e51565b610e8d6040830185610ab3565b8181036060830152610e9f81846109d7565b905095945050505050565b5f608082019050610ebd5f830187610e51565b610eca6020830186610e0f565b610ed76040830185610ab3565b8181036060830152610ee981846109d7565b905095945050505050565b5f81519050610f02816108a3565b92915050565b5f60208284031215610f1d57610f1c610838565b5b5f610f2a84828501610ef4565b91505092915050565b7f616c726561647920696e697400000000000000000000000000000000000000005f82015250565b5f610f67600c83610adb565b9150610f7282610f33565b602082019050919050565b5f6020820190508181035f830152610f9481610f5b565b9050919050565b5f604082019050610fae5f830185610ab3565b610fbb6020830184610e0f565b9392505050565b5f610fcc8261099f565b610fd68185610b53565b9350610fe68185602086016109b9565b80840191505092915050565b5f610ffd8284610fc2565b915081905092915050565b5f8115159050919050565b61101c81611008565b8114611026575f5ffd5b50565b5f8151905061103781611013565b92915050565b5f6020828403121561105257611051610838565b5b5f61105f84828501611029565b91505092915050565b7f7472616e73666572206661696c656400000000000000000000000000000000005f82015250565b5f61109c600f83610adb565b91506110a782611068565b602082019050919050565b5f6020820190508181035f8301526110c981611090565b905091905056fea2646970667358221220a82f705f139a1e08d6f689355ef7b825e157742cd3907c6760a7644258a4dd4f64736f6c634300081e0033","linkReferences":{}},"methodIdentifiers":{"exec(address,uint256,bytes)":"0565bb67","initialize()":"8129fc1c","owner()":"8da5cb5b","uniswapV2Call(address,uint256,uint256,bytes)":"10d1e85c"},"id":0}