{"abi":[{"type":"receive","stateMutability":"payable"},{"type":"function","name":"ATTACK_MARKER","inputs":[],"outputs":[{"name":"","type":"bytes32","internalType":"bytes32"}],"stateMutability":"view"},{"type":"function","name":"EXPECTED_IMPLEMENTATION","inputs":[],"outputs":[{"name":"","type":"address","internalType":"address"}],"stateMutability":"view"},{"type":"function","name":"TARGET_PROXY","inputs":[],"outputs":[{"name":"","type":"address","internalType":"address"}],"stateMutability":"view"},{"type":"function","name":"WETH","inputs":[],"outputs":[{"name":"","type":"address","internalType":"address"}],"stateMutability":"view"},{"type":"function","name":"attempted","inputs":[],"outputs":[{"name":"","type":"bool","internalType":"bool"}],"stateMutability":"view"},{"type":"function","name":"deployedAttackImplementation","inputs":[],"outputs":[{"name":"","type":"address","internalType":"address"}],"stateMutability":"view"},{"type":"function","name":"executeOnOpportunity","inputs":[],"outputs":[],"stateMutability":"nonpayable"},{"type":"function","name":"exploitPathUsed","inputs":[],"outputs":[{"name":"","type":"string","internalType":"string"}],"stateMutability":"view"},{"type":"function","name":"hypothesisRefuted","inputs":[],"outputs":[{"name":"","type":"bool","internalType":"bool"}],"stateMutability":"view"},{"type":"function","name":"hypothesisValidated","inputs":[],"outputs":[{"name":"","type":"bool","internalType":"bool"}],"stateMutability":"view"},{"type":"function","name":"lastFailureData","inputs":[],"outputs":[{"name":"","type":"bytes","internalType":"bytes"}],"stateMutability":"view"},{"type":"function","name":"lastObservedOwner","inputs":[],"outputs":[{"name":"","type":"address","internalType":"address"}],"stateMutability":"view"},{"type":"function","name":"lastObservedPendingOwner","inputs":[],"outputs":[{"name":"","type":"address","internalType":"address"}],"stateMutability":"view"},{"type":"function","name":"markerConfirmed","inputs":[],"outputs":[{"name":"","type":"bool","internalType":"bool"}],"stateMutability":"view"},{"type":"function","name":"ownershipStepSucceeded","inputs":[],"outputs":[{"name":"","type":"bool","internalType":"bool"}],"stateMutability":"view"},{"type":"function","name":"profitAmount","inputs":[],"outputs":[{"name":"","type":"uint256","internalType":"uint256"}],"stateMutability":"view"},{"type":"function","name":"profitToken","inputs":[],"outputs":[{"name":"","type":"address","internalType":"address"}],"stateMutability":"view"},{"type":"function","name":"upgradeCallSucceeded","inputs":[],"outputs":[{"name":"","type":"bool","internalType":"bool"}],"stateMutability":"view"}],"bytecode":{"object":"0x608080604052346015576127e1908161001a8239f35b5f80fdfe608080604052600436101561001c575b50361561001a575f80fd5b005b5f3560e01c90816249b0a81461049c575080630a414cf514610477578063144f8db31461043d57806314cf7a65146104115780633c2448ed146103f9578063463defd1146103d557806349343624146103ae578063495f92f1146103895780635ff972cc1461036c57806369ce81ee14610345578063917f51b414610323578063aa3543b914610291578063ad5c464814610263578063d78c428114610194578063e141c54e1461016c578063f7566ec014610147578063f992ee501461011f5763fd78fb04146100ed575f61000f565b3461011b575f36600319011261011b57602060405173cd2cd343cfbe284220677c78a08b1648bfa398658152f35b5f80fd5b3461011b575f36600319011261011b576004546040516001600160a01b039091168152602090f35b3461011b575f36600319011261011b57602060ff60025460181c166040519015158152f35b3461011b575f36600319011261011b576003546040516001600160a01b039091168152602090f35b3461011b575f36600319011261011b576040515f6005546101b4816104be565b808452906001811690811561023f57506001146101f4575b6101f0836101dc818503826104f6565b60405191829160208352602083019061052b565b0390f35b91905060055f525f51602061274c5f395f51905f52915f905b808210610225575090915081016020016101dc6101cc565b91926001816020925483858801015201910190929161020d565b60ff191660208086019190915291151560051b840190910191506101dc90506101cc565b3461011b575f36600319011261011b57602060405173c02aaa39b223fe8d0a0e5c4f27ead9083c756cc28152f35b3461011b575f36600319011261011b576040515f6006546102b1816104be565b808452906001811690811561023f57506001146102d8576101f0836101dc818503826104f6565b91905060065f525f51602061278c5f395f51905f52915f905b808210610309575090915081016020016101dc6101cc565b9192600181602092548385880101520191019092916102f1565b3461011b575f36600319011261011b57602060ff600254166040519015158152f35b3461011b575f36600319011261011b5760206040515f51602061276c5f395f51905f528152f35b3461011b575f36600319011261011b576020600154604051908152f35b3461011b575f36600319011261011b57602060ff60025460281c166040519015158152f35b3461011b575f36600319011261011b575f546040516001600160a01b039091168152602090f35b3461011b575f36600319011261011b57602060ff600254821c166040519015158152f35b3461011b575f36600319011261011b5761001a610620565b3461011b575f36600319011261011b5760025460405160309190911c6001600160a01b03168152602090f35b3461011b575f36600319011261011b5760206040517f74f8237138485b3292a0270380cf65cd291dd1664612369f8ceaba98aa9a44378152f35b3461011b575f36600319011261011b57602060ff60025460081c166040519015158152f35b3461011b575f36600319011261011b5760209060ff60025460101c1615158152f35b90600182811c921680156104ec575b60208310146104d857565b634e487b7160e01b5f52602260045260245ffd5b91607f16916104cd565b90601f801991011681019081106001600160401b0382111761051757604052565b634e487b7160e01b5f52604160045260245ffd5b805180835260209291819084018484015e5f828201840152601f01601f1916010190565b3d15610588573d906001600160401b038211610517576040519161057d601f8201601f1916602001846104f6565b82523d5f602084013e565b606090565b818110610598575050565b5f815560010161058d565b90601f82116105b0575050565b6105dc9160065f5260205f20906020601f840160051c830193106105de575b601f0160051c019061058d565b565b90915081906105cf565b90601f82116105f5575050565b6105dc9160055f5260205f20906020601f840160051c830193106105de57601f0160051c019061058d565b60025460ff811661103d5760ff19166001176002556040516102209061064682826104f6565b601081526020810191601f19013683378051156110295773c02aaa39b223fe8d0a0e5c4f27ead9083c756cc282528051600110156110295773a0b86991c6218b36c1d19d4a2e9eb0ce3606eb4860408201528051600210156110295773dac17f958d2ee523a2206206994597c13d831ec7606082015280516003101561102957736b175474e89094c44da98b954eedeac495271d0f608082015280516004101561102957732260fac5e5542a773aa44fbcfedf7c193bc2c59960a08201528051600510156110295773853d955acef822db058eb8505911ed77f175b99e60c082015280516006101561102957734fabb145d64652a948d72533023f6e7a623c7c5360e08201528051600710156110295773956f47f50a910163d8bf957cf5846d573e7f87ca6101008201528051600810156110295773514910771af9ca656af840dff83e8264ecf986ca61012082015280516009101561102957730bc529c00c6401aef6d220be8c6ea1667f6ad93e6101408201528051600a101561102957735a98fcbea516cf06857215779fd812ca3bef1b326101608201528051600b10156110295773111111111117dc0aa78b770fa6a738034120c3026101808201528051600c10156110295773d533a949740bb3306d119cc777fa900ba034cd526101a08201528051600d101561102957736b3595068778dd592e39a122f4f5a5cf09c90fe26101c08201528051600e10156110295773c00e94cb662c3520282e6f5717214004a7f268886101e08201528051600f101561102957737fc66500c84a76ad7e9c93437bfc5ac33e2ddae9610200820152478151926108a684611040565b936108b460405195866104f6565b808552601f196108c382611040565b013660208701375f5b818110610f955750506040516105658082018281106001600160401b038211176105175782916121e7833903905ff08015610f8a57600280546601000000000000600160d01b031916603083901b6601000000000000600160d01b031617905560408051639962642160e01b602082019081523060248301526044820192909252855160648201819052919390926001600160a01b031691839060848201905f5b818110610f68575050610989925003601f1981018452836104f6565b61099161106b565b61099b8282611222565b8160ff60025460181c1615610c43575b505060ff60025460181c16610b26575b50506109c5611e65565b804711610b04575b508051905f5b828110610a22575050505060025464ff0000000060ff8260181c16151560201b1665ff000000000060ff8264ff000000001985161760181c161560281b169165ffff0000000019161717600255565b5f806001600160a01b03610a368486611057565b511660405160208101906370a0823160e01b825230602482015260248152610a5f6044826104f6565b51915afa90610a6c61054f565b91158015610af9575b610af0576020825192818082019485920101031261011b5760019151610a9b8287611057565b51808211610aad575b50505b016109d3565b610ab691611f46565b82548111610ac5575b80610aa4565b828060a01b03610ad58386611057565b51166001600160601b0360a01b5f5416175f5582555f610abf565b60019150610aa7565b506020825110610a75565b5f80546001600160a01b0319169055610b1d9047611f46565b6001555f6109cd565b5f9182915190825f51602061276c5f395f51905f525af1610b4561054f565b901580610c31575b610b58575b806109bb565b8051906001600160401b03821161051757610b7d82610b786006546104be565b6105a3565b602090601f8311600114610bc157610bac92915f9183610bb6575b50508160011b915f199060031b1c19161790565b6006555b5f610b52565b015190505f80610b98565b90601f1983169160065f525f51602061278c5f395f51905f52925f5b818110610c195750908460019594939210610c01575b505050811b01600655610bb0565b01515f1960f88460031b161c191690555f8080610bf3565b92936020600181928786015181550195019301610bdd565b50610c3d6006546104be565b15610b4d565b81610c7082610f619460405163204a7f0760e21b602082015260048152610c6b6024826104f6565b61209b565b610c9482826040516370e39c9560e11b602082015260048152610c6b6024826104f6565b610cbe828260405163189acdbd60e31b602082015230602482015260248152610c6b6044826104f6565b610ce8828260405163066ad14f60e21b602082015230602482015260248152610c6b6044826104f6565b610d128282604051638c5f36bb60e01b602082015230602482015260248152610c6b6044826104f6565b610d3c82826040516313af403560e01b602082015230602482015260248152610c6b6044826104f6565b610d66828260405163880cdc3160e01b602082015230602482015260248152610c6b6044826104f6565b610d90828260405163f2fde38b60e01b602082015230602482015260248152610c6b6044826104f6565b60405163485cc95560e01b602082015230602482018190526044820152610dcc9083908390610c6b81606481015b03601f1981018352826104f6565b60405163784d200b60e11b602082015230602482018190526044820152610dfe9083908390610c6b8160648101610dbe565b610e34828260405163c0c53b8b60e01b602082015230602482015230604482015230606482015260648152610c6b6084826104f6565b610e588282604051630142eb1160e01b602082015260048152610c6b6024826104f6565b610e7c8282604051631738a78960e21b602082015260048152610c6b6024826104f6565b610ea682826040516331081a7b60e21b602082015230602482015260248152610c6b6044826104f6565b610ed08282604051635af694c560e11b602082015230602482015260248152610c6b6044826104f6565b610efa8282604051630589d50360e21b602082015230602482015260248152610c6b6044826104f6565b610f1e82826040516309ce3c1960e31b602082015260048152610c6b6024826104f6565b610f4282826040516379ba509760e01b602082015260048152610c6b6024826104f6565b60405163f9dca98960e01b602082015260048152610c6b6024826104f6565b5f816109ab565b84516001600160a01b031683526020948501948794509092019160010161096d565b6040513d5f823e3d90fd5b5f806001600160a01b03610fa98489611057565b511660405160208101906370a0823160e01b825230602482015260248152610fd26044826104f6565b51915afa90610fdf61054f565b918061101d575b610ff5575b60019150016108cc565b6020825192818082019485920101031261011b57600191516110178289611057565b52610feb565b50602082511015610fe6565b634e487b7160e01b5f52603260045260245ffd5b50565b6001600160401b0381116105175760051b60200190565b80518210156110295760209160051b010190565b6040805161107982826104f6565b60078152666f776e6572282960c81b60208201526001600160a01b039061109f90611f67565b166001600160601b0360a01b600354161760035580516110bf82826104f6565b600e81526d70656e64696e674f776e6572282960901b60208201526001600160a01b03906110ec90611f67565b166001600160601b0360a01b6004541690808217600455156111d7575b506004546001600160a01b03811615611184575b50600454906001600160a01b03821615611135575050565b611141815191826104f6565b601081526f63616e6469646174654f776e6572282960801b60208201526001600160a01b039061117090611f67565b16906001600160601b0360a01b1617600455565b815161119083826104f6565b601081526f6e6f6d696e617465644f776e6572282960801b60208201526001600160a01b03906111bf90611f67565b16906001600160601b0360a01b16176004555f61111d565b81516111e383826104f6565b601581527470656e64696e674f776e657241646472657373282960581b60208201526001600160a01b039061121790611f67565b16176004555f611109565b9190915f9060ff60025460181c166118d9575f8060405192602084019063278f794360e11b825260018060a01b0316938460248201526040604482015261127081610dbe606482018b61052b565b5190825f51602061276c5f395f51905f525af161128b61054f565b90611788578051906001600160401b03821161169b579083916112b382610b786006546104be565b602090601f83116001146117135791806112e4928596948692610bb65750508160011b915f199060031b1c19161790565b6006555b6040516020810191631b2ce7f360e11b835260248201526024815261130e6044826104f6565b5190825f51602061276c5f395f51905f525af19261132a61054f565b9361142657508251906001600160401b0382116114125761135082610b786006546104be565b602090601f83116001146113a6579061137d939483610bb65750508160011b915f199060031b1c19161790565b6006555b61138961200b565b151563ff0000006002549160181b169063ff000000191617600255565b60068152601f198316945f51602061278c5f395f51905f5292915b8681106113fa57508360019596106113e2575b505050811b01600655611381565b01515f1960f88460031b161c191690555f80806113d4565b919260206001819286850151815501940192016113c1565b634e487b7160e01b81526041600452602490fd5b9250906101006002548161ff001982161760025563ff00000061144761200b565b151560181b169063ff00ff0019161717600255815f146116af5760405161146f6060826104f6565b603a81527f6e6f6e2d61646d696e2075706772616465546f206166746572207075626c696360208201527f20696d706c656d656e746174696f6e2d617574682073657475700000000000006040820152925b83516001600160401b03811161169b576114e5816114e06005546104be565b6105e8565b602094601f821160011461162d578495829161151694959692610bb65750508160011b915f199060031b1c19161790565b6005555b60ff60025460181c1661152c57509050565b828160208293519101825f51602061276c5f395f51905f525af19161154f61054f565b92158061161b575b61156057509050565b8251906001600160401b0382116114125761158082610b786006546104be565b602090601f83116001146115b257906115ad939483610bb65750508160011b915f199060031b1c19161790565b600655565b60068152601f198316945f51602061278c5f395f51905f5292915b86811061160357508360019596106115eb575b505050811b01600655565b01515f1960f88460031b161c191690555f80806115e0565b919260206001819286850151815501940192016115cd565b506116276006546104be565b15611557565b60058552601f198216955f51602061274c5f395f51905f5291865b8881106116835750836001959697981061166b575b505050811b0160055561151a565b01515f1960f88460031b161c191690555f808061165d565b91926020600181928685015181550194019201611648565b634e487b7160e01b84526041600452602484fd5b6040516116bd6060826104f6565b603f81527f6e6f6e2d61646d696e2075706772616465546f206469726563746c792074687260208201527f6f756768207472616e73706172656e742070726f78792066616c6c6261636b006040820152926114c1565b600684525f51602061278c5f395f51905f5294929190601f198316855b81811061176d575091859691846001959410611755575b505050811b016006556112e8565b01515f1960f88460031b161c191690555f8080611747565b83830151885560019097019688965060209384019301611730565b50505090506101006002548161ff001982161760025563ff0000006117ab61200b565b151560181b169063ff00ff0019161717600255604051906117cd6080836104f6565b60468083527f6e6f6e2d61646d696e2075706772616465546f416e6443616c6c20646972656360208401527f746c79207468726f756768207472616e73706172656e742070726f78792066616040840152656c6c6261636b60d01b606084015261183c816114e06005546104be565b602092601f82116001146118705761186b929382915f92610bb65750508160011b915f199060031b1c19161790565b600555565b601f1982169360055f525f51602061274c5f395f51905f52915f5b8681106118c157508360019596106118a9575b505050811b01600555565b01515f1960f88460031b161c191690555f808061189e565b9192602060018192868501518155019401920161188b565b50509050565b9160ff60025460181c16611e60575f8060405194602086019063278f794360e11b825260018060a01b0316958660248201526040604482015261192981610dbe606482018961052b565b5190825f51602061276c5f395f51905f525af19261194561054f565b93611d335783516001600160401b0381116105175761196981610b786006546104be565b6020601f8211600114611cbf57815f9495969261199d928695948692610bb65750508160011b915f199060031b1c19161790565b6006555b6040516020810191631b2ce7f360e11b83526024820152602481526119c76044826104f6565b5190825f51602061276c5f395f51905f525af1916119e361054f565b92611a8a575081516001600160401b03811161051757611a0881610b786006546104be565b602092601f8211600114611a375761137d929382915f92610bb65750508160011b915f199060031b1c19161790565b601f1982169360065f525f51602061278c5f395f51905f52915f5b868110611a7257508360019596106113e257505050811b01600655611381565b91926020600181928685015181550194019201611a52565b91506101006002548161ff001982161760025563ff000000611aaa61200b565b151560181b169063ff00ff001916171760025560405191611acc6060846104f6565b603a8084527f6e6f6e2d61646d696e2075706772616465546f206166746572207075626c696360208501527f20696d706c656d656e746174696f6e2d617574682073657475700000000000006040850152611b2c816114e06005546104be565b6020601f8211600114611c51578190611b5b9394955f92610bb65750508160011b915f199060031b1c19161790565b6005555b60ff60025460181c16611b6f5750565b5f8160208293519101825f51602061276c5f395f51905f525af1611b9161054f565b901580611c3f575b611ba05750565b9081516001600160401b03811161051757611bc081610b786006546104be565b602092601f8211600114611bef576115ad929382915f92610bb65750508160011b915f199060031b1c19161790565b601f1982169360065f525f51602061278c5f395f51905f52915f5b868110611c2757508360019596106115eb57505050811b01600655565b91926020600181928685015181550194019201611c0a565b50611c4b6006546104be565b15611b99565b601f1982169060055f525f51602061274c5f395f51905f52915f5b818110611ca757509583600195969710611c8f575b505050811b01600555611b5f565b01515f1960f88460031b161c191690555f8080611c81565b9192602060018192868b015181550194019201611c6c565b601f1982169060065f525f51602061278c5f395f51905f52915f5b818110611d1b57509183915f96979887969560019510611d03575b505050811b016006556119a1565b0151851960f88460031b161c191690555f8080611cf5565b9192602060018192868c015181550194019201611cda565b509150506101006002548161ff001982161760025563ff000000611d5561200b565b151560181b169063ff00ff001916171760025560405190611d776080836104f6565b60418083527f6e6f6e2d61646d696e2075706772616465546f416e6443616c6c20616674657260208401527f207075626c696320696d706c656d656e746174696f6e2d6175746820736574756040840152600760fc1b6060840152611de1816114e06005546104be565b602092601f8211600114611e105761186b929382915f92610bb65750508160011b915f199060031b1c19161790565b601f1982169360055f525f51602061274c5f395f51905f52915f5b868110611e4857508360019596106118a957505050811b01600555565b91926020600181928685015181550194019201611e2b565b915050565b5f8060405160208101906370a0823160e01b825230602482015260248152611e8e6044826104f6565b519073c02aaa39b223fe8d0a0e5c4f27ead9083c756cc25afa611eaf61054f565b90158015611f3b575b61103d576020815191818082019384920101031261011b575180611ed95750565b73c02aaa39b223fe8d0a0e5c4f27ead9083c756cc23b1561011b5760405190632e1a7d4d60e01b825260048201525f816024818373c02aaa39b223fe8d0a0e5c4f27ead9083c756cc25af18015610f8a57611f315750565b5f6105dc916104f6565b506020815110611eb8565b91908203918211611f5357565b634e487b7160e01b5f52601160045260245ffd5b905f916040519063ffffffff60e01b906020815191012016906001600160401b038111610517575f9182916040526040516020810191825260048152611fae6024826104f6565b51905f51602061276c5f395f51905f525afa611fc861054f565b9080611fff575b611fd65750565b90915060208180518101031261011b57602001516001600160a01b0381169081900361011b5790565b50602081511015611fcf565b5f806040516020810190633acddfc160e01b82526004815261202e6024826104f6565b51905f51602061276c5f395f51905f525afa61204861054f565b8161208f575b81612057575090565b905060208180518101031261011b57602001517f74f8237138485b3292a0270380cf65cd291dd1664612369f8ceaba98aa9a44371490565b8051602014915061204e565b9291909260ff60025460181c166118d9575f8160208293519101825f51602061276c5f395f51905f525af1926120cf61054f565b93156120fa576105dc9293506201000062ff00001960025416176002555b6120f561106b565b6118df565b600654612106816104be565b15612118575b506105dc9293506120ed565b8451906001600160401b0382116105175781610b78612136926104be565b6020601f8211600114612173579080612168926105dc96975f92610bb65750508160011b915f199060031b1c19161790565b6006555b839261210c565b601f1982169560065f525f51602061278c5f395f51905f52965f5b8181106121ce5750916105dc9697918460019594106121b6575b505050811b0160065561216c565b01515f1960f88460031b161c191690555f80806121a8565b8383015189556001909801976020938401930161218e56fe6080806040523460155761054b908161001a8239f35b5f80fdfe6080604052600436101561001a575b3615610018575f80fd5b005b5f3560e01c80633659cfe6146100695780633acddfc1146100645780634f1ef2861461005f57806352d1902d1461005a5763996264210361000e57610197565b61015d565b6100f9565b6100bf565b346100aa5760203660031901126100aa57600435610086816100ae565b7f360894a13ba1a3210667c828492db98dca3e2076cc3735a920a3ca505d382bbc55005b5f80fd5b6001600160a01b038116036100aa57565b346100aa575f3660031901126100aa5760206040517f74f8237138485b3292a0270380cf65cd291dd1664612369f8ceaba98aa9a44378152f35b60403660031901126100aa57600435610111816100ae565b6024359067ffffffffffffffff82116100aa57366023830112156100aa5781600401359067ffffffffffffffff82116100aa5736602483850101116100aa57602461001893019061027d565b346100aa575f3660031901126100aa5760206040517f360894a13ba1a3210667c828492db98dca3e2076cc3735a920a3ca505d382bbc8152f35b346100aa5760403660031901126100aa576004356101b4816100ae565b6024359067ffffffffffffffff82116100aa57366023830112156100aa5781600401359067ffffffffffffffff82116100aa573660248360051b850101116100aa5760246100189301906103b6565b634e487b7160e01b5f52604160045260245ffd5b90601f8019910116810190811067ffffffffffffffff82111761023957604052565b610203565b3d15610278573d9067ffffffffffffffff8211610239576040519161026d601f8201601f191660200184610217565b82523d5f602084013e565b606090565b807f360894a13ba1a3210667c828492db98dca3e2076cc3735a920a3ca505d382bbc5582156102d657825f939284936040519283928337810184815203915af46102c561023e565b90156102ce5750565b602081519101fd5b505050565b156102e257565b60405162461bcd60e51b81526020600482015260136024820152721b985d1a5d99481cddd9595c0819985a5b1959606a1b6044820152606490fd5b919081101561032d5760051b0190565b634e487b7160e01b5f52603260045260245ffd5b3561034b816100ae565b90565b908160209103126100aa575190565b908160209103126100aa575180151581036100aa5790565b1561037c57565b60405162461bcd60e51b81526020600482015260126024820152711d1bdad95b881cddd9595c0819985a5b195960721b6044820152606490fd5b909147806104ee575b505f5b8181106103cf5750505050565b806103e56103e0600193858861031d565b610341565b6040516370a0823160e01b6020820190815230602483015286915f91829161041a81604481015b03601f198101835282610217565b5190855afa61042761023e565b901580156104e3575b6104db57806020806104479351830101910161034e565b80156104db5760405163a9059cbb60e01b602082019081526001600160a01b03909316602482015260448101919091526104a6925f928392839061048e816064810161040c565b51925af161049a61023e565b816104ac575b50610375565b016103c2565b80518015925082156104c1575b50505f6104a0565b6104d4925060208091830101910161035d565b5f806104b9565b5050506104a6565b506020815110610430565b5f80808061050f9460018060a01b0388165af161050961023e565b506102db565b5f6103bf56fea264697066735822122034abe0bf16566a8ed26a6966f7f0214b5acc5efd5a9ebfc249168c25db2e3a4164736f6c634300081e0033036b6384b5eca791c62761152d0c79bb0604c104a5fb6f4eb0703f3154bb3db000000000000000000000000020e5e35ba29dc3b540a1aee781d0814d5c77bce6f652222313e28459528d920b65115c16c04f3efc82aaedc97be59f3f377c0d3fa2646970667358221220bb355e7c0e7f72245c3e5aa9ae17c89bc1b4208a72c412841395022c85e867ae64736f6c634300081e0033","linkReferences":{}},"methodIdentifiers":{"ATTACK_MARKER()":"144f8db3","EXPECTED_IMPLEMENTATION()":"fd78fb04","TARGET_PROXY()":"69ce81ee","WETH()":"ad5c4648","attempted()":"917f51b4","deployedAttackImplementation()":"14cf7a65","executeOnOpportunity()":"3c2448ed","exploitPathUsed()":"d78c4281","hypothesisRefuted()":"495f92f1","hypothesisValidated()":"463defd1","lastFailureData()":"aa3543b9","lastObservedOwner()":"e141c54e","lastObservedPendingOwner()":"f992ee50","markerConfirmed()":"f7566ec0","ownershipStepSucceeded()":"0049b0a8","profitAmount()":"5ff972cc","profitToken()":"49343624","upgradeCallSucceeded()":"0a414cf5"},"id":0}