{"abi":[{"type":"receive","stateMutability":"payable"},{"type":"function","name":"marker","inputs":[],"outputs":[{"name":"","type":"bytes32","internalType":"bytes32"}],"stateMutability":"pure"},{"type":"function","name":"proxiableUUID","inputs":[],"outputs":[{"name":"","type":"bytes32","internalType":"bytes32"}],"stateMutability":"pure"},{"type":"function","name":"seize","inputs":[{"name":"recipient","type":"address","internalType":"address"},{"name":"tokens","type":"address[]","internalType":"address[]"}],"outputs":[],"stateMutability":"nonpayable"},{"type":"function","name":"upgradeTo","inputs":[{"name":"newImplementation","type":"address","internalType":"address"}],"outputs":[],"stateMutability":"nonpayable"},{"type":"function","name":"upgradeToAndCall","inputs":[{"name":"newImplementation","type":"address","internalType":"address"},{"name":"data","type":"bytes","internalType":"bytes"}],"outputs":[],"stateMutability":"payable"}],"bytecode":{"object":"0x6080806040523460155761054b908161001a8239f35b5f80fdfe6080604052600436101561001a575b3615610018575f80fd5b005b5f3560e01c80633659cfe6146100695780633acddfc1146100645780634f1ef2861461005f57806352d1902d1461005a5763996264210361000e57610197565b61015d565b6100f9565b6100bf565b346100aa5760203660031901126100aa57600435610086816100ae565b7f360894a13ba1a3210667c828492db98dca3e2076cc3735a920a3ca505d382bbc55005b5f80fd5b6001600160a01b038116036100aa57565b346100aa575f3660031901126100aa5760206040517f74f8237138485b3292a0270380cf65cd291dd1664612369f8ceaba98aa9a44378152f35b60403660031901126100aa57600435610111816100ae565b6024359067ffffffffffffffff82116100aa57366023830112156100aa5781600401359067ffffffffffffffff82116100aa5736602483850101116100aa57602461001893019061027d565b346100aa575f3660031901126100aa5760206040517f360894a13ba1a3210667c828492db98dca3e2076cc3735a920a3ca505d382bbc8152f35b346100aa5760403660031901126100aa576004356101b4816100ae565b6024359067ffffffffffffffff82116100aa57366023830112156100aa5781600401359067ffffffffffffffff82116100aa573660248360051b850101116100aa5760246100189301906103b6565b634e487b7160e01b5f52604160045260245ffd5b90601f8019910116810190811067ffffffffffffffff82111761023957604052565b610203565b3d15610278573d9067ffffffffffffffff8211610239576040519161026d601f8201601f191660200184610217565b82523d5f602084013e565b606090565b807f360894a13ba1a3210667c828492db98dca3e2076cc3735a920a3ca505d382bbc5582156102d657825f939284936040519283928337810184815203915af46102c561023e565b90156102ce5750565b602081519101fd5b505050565b156102e257565b60405162461bcd60e51b81526020600482015260136024820152721b985d1a5d99481cddd9595c0819985a5b1959606a1b6044820152606490fd5b919081101561032d5760051b0190565b634e487b7160e01b5f52603260045260245ffd5b3561034b816100ae565b90565b908160209103126100aa575190565b908160209103126100aa575180151581036100aa5790565b1561037c57565b60405162461bcd60e51b81526020600482015260126024820152711d1bdad95b881cddd9595c0819985a5b195960721b6044820152606490fd5b909147806104ee575b505f5b8181106103cf5750505050565b806103e56103e0600193858861031d565b610341565b6040516370a0823160e01b6020820190815230602483015286915f91829161041a81604481015b03601f198101835282610217565b5190855afa61042761023e565b901580156104e3575b6104db57806020806104479351830101910161034e565b80156104db5760405163a9059cbb60e01b602082019081526001600160a01b03909316602482015260448101919091526104a6925f928392839061048e816064810161040c565b51925af161049a61023e565b816104ac575b50610375565b016103c2565b80518015925082156104c1575b50505f6104a0565b6104d4925060208091830101910161035d565b5f806104b9565b5050506104a6565b506020815110610430565b5f80808061050f9460018060a01b0388165af161050961023e565b506102db565b5f6103bf56fea264697066735822122034abe0bf16566a8ed26a6966f7f0214b5acc5efd5a9ebfc249168c25db2e3a4164736f6c634300081e0033","linkReferences":{}},"methodIdentifiers":{"marker()":"3acddfc1","proxiableUUID()":"52d1902d","seize(address,address[])":"99626421","upgradeTo(address)":"3659cfe6","upgradeToAndCall(address,bytes)":"4f1ef286"},"id":0}