{"abi":[{"type":"constructor","inputs":[],"stateMutability":"nonpayable"},{"type":"function","name":"EXPECTED_REWARD_TOKEN","inputs":[],"outputs":[{"name":"","type":"address","internalType":"address"}],"stateMutability":"view"},{"type":"function","name":"EXPECTED_STAKING_TOKEN","inputs":[],"outputs":[{"name":"","type":"address","internalType":"address"}],"stateMutability":"view"},{"type":"function","name":"TARGET","inputs":[],"outputs":[{"name":"","type":"address","internalType":"address"}],"stateMutability":"view"},{"type":"function","name":"accountedPeriodStart","inputs":[],"outputs":[{"name":"","type":"uint32","internalType":"uint32"}],"stateMutability":"view"},{"type":"function","name":"accountedScheduleAmount","inputs":[],"outputs":[{"name":"","type":"uint256","internalType":"uint256"}],"stateMutability":"view"},{"type":"function","name":"attackerEarnedBefore","inputs":[],"outputs":[{"name":"","type":"uint256","internalType":"uint256"}],"stateMutability":"view"},{"type":"function","name":"attackerStakeBefore","inputs":[],"outputs":[{"name":"","type":"uint256","internalType":"uint256"}],"stateMutability":"view"},{"type":"function","name":"bestRoundCount","inputs":[],"outputs":[{"name":"","type":"uint256","internalType":"uint256"}],"stateMutability":"view"},{"type":"function","name":"bookedButUnmintedAfter","inputs":[],"outputs":[{"name":"","type":"uint256","internalType":"uint256"}],"stateMutability":"view"},{"type":"function","name":"bookedButUnmintedBefore","inputs":[],"outputs":[{"name":"","type":"uint256","internalType":"uint256"}],"stateMutability":"view"},{"type":"function","name":"directPublicStageAttempted","inputs":[],"outputs":[{"name":"","type":"bool","internalType":"bool"}],"stateMutability":"view"},{"type":"function","name":"entryRewardBalance","inputs":[],"outputs":[{"name":"","type":"uint256","internalType":"uint256"}],"stateMutability":"view"},{"type":"function","name":"executeOnOpportunity","inputs":[],"outputs":[],"stateMutability":"nonpayable"},{"type":"function","name":"executed","inputs":[],"outputs":[{"name":"","type":"bool","internalType":"bool"}],"stateMutability":"view"},{"type":"function","name":"exitRewardBalance","inputs":[],"outputs":[{"name":"","type":"uint256","internalType":"uint256"}],"stateMutability":"view"},{"type":"function","name":"exploitPathUsed","inputs":[],"outputs":[{"name":"","type":"string","internalType":"string"}],"stateMutability":"view"},{"type":"function","name":"finishAttempted","inputs":[],"outputs":[{"name":"","type":"bool","internalType":"bool"}],"stateMutability":"view"},{"type":"function","name":"finishFailureReason","inputs":[],"outputs":[{"name":"","type":"string","internalType":"string"}],"stateMutability":"view"},{"type":"function","name":"finishSucceeded","inputs":[],"outputs":[{"name":"","type":"bool","internalType":"bool"}],"stateMutability":"view"},{"type":"function","name":"historicalPathProvable","inputs":[],"outputs":[{"name":"","type":"bool","internalType":"bool"}],"stateMutability":"view"},{"type":"function","name":"historicalStrandedLowerBound","inputs":[],"outputs":[{"name":"","type":"uint256","internalType":"uint256"}],"stateMutability":"view"},{"type":"function","name":"hypothesisValidated","inputs":[],"outputs":[{"name":"","type":"bool","internalType":"bool"}],"stateMutability":"view"},{"type":"function","name":"infeasibilityReason","inputs":[],"outputs":[{"name":"","type":"string","internalType":"string"}],"stateMutability":"view"},{"type":"function","name":"initialUntrackedSeconds","inputs":[],"outputs":[{"name":"","type":"uint32","internalType":"uint32"}],"stateMutability":"view"},{"type":"function","name":"lastUpdateTimeAfter","inputs":[],"outputs":[{"name":"","type":"uint32","internalType":"uint32"}],"stateMutability":"view"},{"type":"function","name":"lastUpdateTimeBefore","inputs":[],"outputs":[{"name":"","type":"uint32","internalType":"uint32"}],"stateMutability":"view"},{"type":"function","name":"liveWindowConsumed","inputs":[],"outputs":[{"name":"","type":"bool","internalType":"bool"}],"stateMutability":"view"},{"type":"function","name":"liveWindowDetected","inputs":[],"outputs":[{"name":"","type":"bool","internalType":"bool"}],"stateMutability":"view"},{"type":"function","name":"newlyStrandedFromFinish","inputs":[],"outputs":[{"name":"","type":"uint256","internalType":"uint256"}],"stateMutability":"view"},{"type":"function","name":"newlyStrandedFromLiveWindow","inputs":[],"outputs":[{"name":"","type":"uint256","internalType":"uint256"}],"stateMutability":"view"},{"type":"function","name":"notifyAttempted","inputs":[],"outputs":[{"name":"","type":"bool","internalType":"bool"}],"stateMutability":"view"},{"type":"function","name":"notifyFailureReason","inputs":[],"outputs":[{"name":"","type":"string","internalType":"string"}],"stateMutability":"view"},{"type":"function","name":"notifySucceeded","inputs":[],"outputs":[{"name":"","type":"bool","internalType":"bool"}],"stateMutability":"view"},{"type":"function","name":"ownerAtEntry","inputs":[],"outputs":[{"name":"","type":"address","internalType":"address"}],"stateMutability":"view"},{"type":"function","name":"periodFinishAfter","inputs":[],"outputs":[{"name":"","type":"uint32","internalType":"uint32"}],"stateMutability":"view"},{"type":"function","name":"periodFinishBefore","inputs":[],"outputs":[{"name":"","type":"uint32","internalType":"uint32"}],"stateMutability":"view"},{"type":"function","name":"profitAmount","inputs":[],"outputs":[{"name":"","type":"uint256","internalType":"uint256"}],"stateMutability":"view"},{"type":"function","name":"profitToken","inputs":[],"outputs":[{"name":"","type":"address","internalType":"address"}],"stateMutability":"view"},{"type":"function","name":"rewardPerTokenAfter","inputs":[],"outputs":[{"name":"","type":"uint256","internalType":"uint256"}],"stateMutability":"view"},{"type":"function","name":"rewardPerTokenBefore","inputs":[],"outputs":[{"name":"","type":"uint256","internalType":"uint256"}],"stateMutability":"view"},{"type":"function","name":"rewardRateBefore","inputs":[],"outputs":[{"name":"","type":"uint256","internalType":"uint256"}],"stateMutability":"view"},{"type":"function","name":"rewardTokenCap","inputs":[],"outputs":[{"name":"","type":"uint256","internalType":"uint256"}],"stateMutability":"view"},{"type":"function","name":"rewardTokenEverMintedAfter","inputs":[],"outputs":[{"name":"","type":"uint256","internalType":"uint256"}],"stateMutability":"view"},{"type":"function","name":"rewardTokenEverMintedBefore","inputs":[],"outputs":[{"name":"","type":"uint256","internalType":"uint256"}],"stateMutability":"view"},{"type":"function","name":"rewardTokenOwnerAtEntry","inputs":[],"outputs":[{"name":"","type":"address","internalType":"address"}],"stateMutability":"view"},{"type":"function","name":"rewardsDistributionAtEntry","inputs":[],"outputs":[{"name":"","type":"address","internalType":"address"}],"stateMutability":"view"},{"type":"function","name":"rewardsDuration","inputs":[],"outputs":[{"name":"","type":"uint32","internalType":"uint32"}],"stateMutability":"view"},{"type":"function","name":"rewardsTokenAtEntry","inputs":[],"outputs":[{"name":"","type":"address","internalType":"address"}],"stateMutability":"view"},{"type":"function","name":"stakingTokenAtEntry","inputs":[],"outputs":[{"name":"","type":"address","internalType":"address"}],"stateMutability":"view"},{"type":"function","name":"totalRewardsSupplyAfter","inputs":[],"outputs":[{"name":"","type":"uint96","internalType":"uint96"}],"stateMutability":"view"},{"type":"function","name":"totalRewardsSupplyBefore","inputs":[],"outputs":[{"name":"","type":"uint96","internalType":"uint96"}],"stateMutability":"view"},{"type":"function","name":"totalSupplyBefore","inputs":[],"outputs":[{"name":"","type":"uint256","internalType":"uint256"}],"stateMutability":"view"}],"bytecode":{"object":"0x60a0806040523460365773ae9aca5d20f5b139931935378c4489308394ca2c608052612fc3908161003b8239608051816106ec0152f35b5f80fdfe60806040526004361015610011575f80fd5b5f3560e01c806242ee5a14610353578063095f31a91461034e57806313a02852146103495780631850d4b71461034457806321c9161b1461033f57806324854bc81461033a5780632beeba441461033557806331a38c891461033057806331cb45b41461032b5780633315b315146103265780633651b7ef14610321578063386a95251461031c5780633c2448ed146103175780633ccecd0a14610312578063463defd11461030d5780634655b5f01461030857806349343624146103035780635236c476146102fe578063527c6d14146102f957806353a34a04146102f4578063582560ba146102ef5780635840dc99146102ea5780635c72fbc5146102e55780635ff972cc146102e05780636579c23c146102db578063781073e6146102d65780637bf68220146102d157806387b4a538146102cc578063913e7314146102c75780639dc37908146102c2578063a7d7c700146102bd578063ad51aaac146102b8578063af37d763146102b3578063b034a6bc146102ae578063b2dae980146102a9578063b5df4f41146102a4578063bad2f84c1461029f578063c23da3791461029a578063c6a7f60014610295578063c86a2c6a14610290578063cc1f2afa1461028b578063cc43b27914610286578063d38434a714610281578063d78c42811461027c578063dfa6be1b14610277578063e127c70d14610272578063e42e59fa1461026d578063e7504f1a14610268578063ef4ab04c14610263578063f38bb2c61461025e578063f52fb20d146102595763f5ab45ac14610254575f80fd5b610cf9565b610cd5565b610cad565b610c7f565b610c5b565b610c3e565b610c1b565b610b89565b610af7565b610ada565b610abd565b610a96565b610a72565b610a4e565b610a2b565b610a07565b6109ea565b6109cd565b6109b0565b61090b565b6108ee565b6108ca565b6108ad565b610882565b61085a565b610834565b610817565b6107fa565b6107dd565b6107c0565b6107a3565b610786565b61075e565b610741565b61071b565b6106d7565b6106ba565b610696565b610670565b610656565b610636565b610608565b61052e565b610474565b610453565b61042d565b610405565b6103df565b6103b6565b610391565b610374565b34610370575f366003190112610370576020601454604051908152f35b5f80fd5b34610370575f366003190112610370576020601154604051908152f35b34610370575f36600319011261037057602063ffffffff600554821c16604051908152f35b34610370575f3660031901126103705760206001600160601b0360055460801c16604051908152f35b34610370575f36600319011261037057602063ffffffff60055460601c16604051908152f35b34610370575f366003190112610370576003546040516001600160a01b039091168152602090f35b34610370575f36600319011261037057602063ffffffff60045460a01c16604051908152f35b34610370575f36600319011261037057602060ff5f54166040519015158152f35b34610370575f366003190112610370576020601254604051908152f35b90600182811c921680156104bf575b60208310146104ab57565b634e487b7160e01b5f52602260045260245ffd5b91607f16916104a0565b634e487b7160e01b5f52604160045260245ffd5b90601f8019910116810190811067ffffffffffffffff8211176104ff57604052565b6104c9565b602060409281835280519182918282860152018484015e5f828201840152601f01601f1916010190565b34610370575f366003190112610370576040515f601b5461054e81610491565b80845290600181169081156105e45750600114610586575b61058283610576818503826104dd565b60405191829182610504565b0390f35b601b5f9081527f3ad8aa4f87544323a9d1e5dd902f40c356527a7955687113db5f9a85ad579dc1939250905b8082106105ca57509091508101602001610576610566565b9192600181602092548385880101520191019092916105b2565b60ff191660208086019190915291151560051b840190910191506105769050610566565b34610370575f36600319011261037057602060405173b1bbeea2da2905e6b0a30203aef55c399c53d0428152f35b34610370575f36600319011261037057602060045460e01c604051908152f35b34610370575f3660031901126103705761066e6117ea565b005b34610370575f36600319011261037057602063ffffffff60055460401c16604051908152f35b34610370575f36600319011261037057602060ff5f5460401c166040519015158152f35b34610370575f366003190112610370576020600a54604051908152f35b34610370575f366003190112610370576040517f00000000000000000000000000000000000000000000000000000000000000006001600160a01b03168152602090f35b34610370575f36600319011261037057602063ffffffff60045460c01c16604051908152f35b34610370575f366003190112610370576020601354604051908152f35b34610370575f366003190112610370576002546040516001600160a01b039091168152602090f35b34610370575f366003190112610370576020600d54604051908152f35b34610370575f366003190112610370576020601554604051908152f35b34610370575f366003190112610370576020600f54604051908152f35b34610370575f366003190112610370576020601d54604051908152f35b34610370575f366003190112610370576020600954604051908152f35b34610370575f366003190112610370576020600e54604051908152f35b34610370575f3660031901126103705760206001600160601b0360065416604051908152f35b34610370575f366003190112610370576001546040516001600160a01b039091168152602090f35b34610370575f366003190112610370575f5460405160509190911c6001600160a01b03168152602090f35b34610370575f366003190112610370576020601854604051908152f35b34610370575f36600319011261037057602060ff5f5460101c166040519015158152f35b34610370575f366003190112610370576020600b54604051908152f35b34610370575f366003190112610370576040515f601c5461092b81610491565b80845290600181169081156105e457506001146109525761058283610576818503826104dd565b601c5f9081527f0e4562a10381dec21b205ed72637e6b1b523bdd0e4d4d50af5cd23dd4500a211939250905b80821061099657509091508101602001610576610566565b91926001816020925483858801015201910190929161097e565b34610370575f366003190112610370576020600754604051908152f35b34610370575f366003190112610370576020600854604051908152f35b34610370575f366003190112610370576020600c54604051908152f35b34610370575f36600319011261037057602060ff5f5460181c166040519015158152f35b34610370575f36600319011261037057602063ffffffff60055416604051908152f35b34610370575f36600319011261037057602060ff5f5460081c166040519015158152f35b34610370575f36600319011261037057602060ff5f5460301c166040519015158152f35b34610370575f3660031901126103705760206040515f516020612ece5f395f51905f528152f35b34610370575f366003190112610370576020601654604051908152f35b34610370575f366003190112610370576020601754604051908152f35b34610370575f366003190112610370576040515f601954610b1781610491565b80845290600181169081156105e45750600114610b3e5761058283610576818503826104dd565b60195f9081525f516020612f6e5f395f51905f52939250905b808210610b6f57509091508101602001610576610566565b919260018160209254838588010152019101909291610b57565b34610370575f366003190112610370576040515f601a54610ba981610491565b80845290600181169081156105e45750600114610bd05761058283610576818503826104dd565b601a5f9081525f516020612f0e5f395f51905f52939250905b808210610c0157509091508101602001610576610566565b919260018160209254838588010152019101909291610be9565b34610370575f36600319011261037057602060ff5f54821c166040519015158152f35b34610370575f366003190112610370576020601054604051908152f35b34610370575f36600319011261037057602060ff5f5460281c166040519015158152f35b34610370575f36600319011261037057602060405173ae9aca5d20f5b139931935378c4489308394ca2c8152f35b34610370575f366003190112610370576004546040516001600160a01b039091168152602090f35b34610370575f36600319011261037057602060ff5f5460381c166040519015158152f35b34610370575f36600319011261037057602060ff5f5460481c166040519015158152f35b9081602091031261037057516001600160a01b03811681036103705790565b6040513d5f823e3d90fd5b818110610d52575050565b5f8155600101610d47565b90601f8111610d6a575050565b610d86915f526007601f60205f20920160051c82019101610d47565b565b9190601f8111610d9757505050565b610d86925f5260205f20906020601f840160051c83019310610dc1575b601f0160051c0190610d47565b9091508190610db4565b610dd6601a54610491565b601f8111610e44575b506047601a9081555f527f756e6578706563746564206661726d20746f6b656e20636f6e666967757261745f516020612f0e5f395f51905f52556234b7b760e91b7f057c384a7d1c54f3a1b2e5e67b2617b8224fdfd1ea7234eea573a6ff665ff63f55565b601a5f52610e8790601f0160051c5f516020612f0e5f395f51905f52017f057c384a7d1c54f3a1b2e5e67b2617b8224fdfd1ea7234eea573a6ff665ff640610d47565b5f610ddf565b90816020910312610370575190565b519063ffffffff8216820361037057565b919082608091031261037057610ec282610e9c565b91610ecf60208201610e9c565b916060610ede60408401610e9c565b9201516001600160601b03811681036103705790565b634e487b7160e01b5f52601160045260245ffd5b81810292918115918404141715610f1b57565b610ef4565b9063ffffffff8091169116039063ffffffff8211610f1b57565b600319810191908211610f1b57565b91908203918211610f1b57565b5f198114610f1b5760010190565b610f79610f72601954610491565b6019610d5d565b61019f60199081555f527f63757272656e7420666f726b2070726f766573207468652070726976696c65675f516020612f6e5f395f51905f52557f6564206e6f746966792f66696e697368207374616765732061726520726f6c655f516020612eae5f395f51905f52557f2d67617465643b20746865207665726966696572207468657265666f7265206d5f516020612f2e5f395f51905f52557f6f6e6574697a65732074686520616c72656164792d737472616e6465642072655f516020612f4e5f395f51905f52557f776172642d746f6b656e206275646765742070726f7661626c652066726f6d205f516020612eee5f395f51905f52557f6f6e2d636861696e20737461746520756e646572207468652073616d652065787f944998273e477b495144fb8794c914197f3ccb46be2900f4698fd0ef743c969a556e706c6f69742063617573616c69747960881b7f944998273e477b495144fb8794c914197f3ccb46be2900f4698fd0ef743c969b55565b6110f8601954610491565b601f81116111c4575b5060e960199081555f527f66696e6973684661726d696e672829207472756e6361746573207468652061635f516020612f6e5f395f51905f52557f7469766520706572696f6420616e64206c65617665732074686520756e6469735f516020612eae5f395f51905f52557f74726962757465642072656d61696e64657220626f6f6b656420616761696e735f516020612f2e5f395f51905f5255737420746f74616c52657761726473537570706c7960601b5f516020612f4e5f395f51905f5255565b60195f526111f490601f0160051c5f516020612f6e5f395f51905f52015f516020612eee5f395f51905f52610d47565b5f611101565b611205601954610491565b601f81116113d4575b506101fb60199081555f527f61207072696f72206e6f74696679526577617264416d6f756e742829207374615f516020612f6e5f395f51905f52557f72746564207468652063616d706169676e2c206e6f207374616b6520657869735f516020612eae5f395f51905f52557f74656420647572696e672074686520696e697469616c20656d70747920696e745f516020612f2e5f395f51905f52557f657276616c2c20616e6420746865206669727374206c617465722075706461745f516020612f4e5f395f51905f52557f65206d6f766564206c61737455706461746554696d6520666f72776172643b205f516020612eee5f395f51905f52557f7468617420656c617073656420736c696365206973206e6f77207065726d616e7f944998273e477b495144fb8794c914197f3ccb46be2900f4698fd0ef743c969a557f656e746c7920756e726561636861626c6520627574207374696c6c20626f6f6b7f944998273e477b495144fb8794c914197f3ccb46be2900f4698fd0ef743c969b557f656420616761696e737420746f74616c52657761726473537570706c790000007f944998273e477b495144fb8794c914197f3ccb46be2900f4698fd0ef743c969c55565b60195f5261141790601f0160051c5f516020612f6e5f395f51905f52017f944998273e477b495144fb8794c914197f3ccb46be2900f4698fd0ef743c969d610d47565b5f61120e565b61142b610f72601954610491565b61018960199081555f527f6e6f74696679526577617264416d6f756e742829207768696c65207a65726f205f516020612f6e5f395f51905f52557f737570706c79202d3e206c6574207265776172647320656c61707365202d3e205f516020612eae5f395f51905f52557f7075626c696320676574526577617264282920616476616e636573206c6173745f516020612f2e5f395f51905f52557f55706461746554696d65207769746820756e6368616e676564207265776172645f516020612f4e5f395f51905f52557f506572546f6b656e202d3e20736b697070656420656d697373696f6e732072655f516020612eee5f395f51905f52557f6d61696e20626f6f6b656420616761696e737420746865206c69666574696d657f944998273e477b495144fb8794c914197f3ccb46be2900f4698fd0ef743c969a55630206361760e41b7f944998273e477b495144fb8794c914197f3ccb46be2900f4698fd0ef743c969b55565b61159f601a54610491565b601f811161164f575b506085601a9081555f527f6e6f20737472616e6465642072657761726420627564676574207761732070725f516020612f0e5f395f51905f52557f6f7661626c652066726f6d207468652063757272656e7420666f726b207374617f057c384a7d1c54f3a1b2e5e67b2617b8224fdfd1ea7234eea573a6ff665ff63f5561746560f01b7f057c384a7d1c54f3a1b2e5e67b2617b8224fdfd1ea7234eea573a6ff665ff64055565b601a5f5261169290601f0160051c5f516020612f0e5f395f51905f52017f057c384a7d1c54f3a1b2e5e67b2617b8224fdfd1ea7234eea573a6ff665ff641610d47565b5f6115a8565b6116a3601a54610491565b601f81116117a1575b5060db601a9081555f527f6e6f206c697665207075626c6963207a65726f2d737570706c792077696e646f5f516020612f0e5f395f51905f52557f77206973206f70656e206f6e207468697320666f726b20616e642074686520707f057c384a7d1c54f3a1b2e5e67b2617b8224fdfd1ea7234eea573a6ff665ff63f557f726976696c65676564206e6f746966792f66696e6973682073746167657320617f057c384a7d1c54f3a1b2e5e67b2617b8224fdfd1ea7234eea573a6ff665ff640556c1c99481c9bdb194b59d85d1959609a1b7f057c384a7d1c54f3a1b2e5e67b2617b8224fdfd1ea7234eea573a6ff665ff64155565b601a5f526117e490601f0160051c5f516020612f0e5f395f51905f52017f057c384a7d1c54f3a1b2e5e67b2617b8224fdfd1ea7234eea573a6ff665ff642610d47565b5f6116ac565b5f5460ff16610d8657611803600160ff195f5416175f55565b604051638da5cb5b60e01b81526020816004815f516020612ece5f395f51905f525afa801561207757611877915f916124eb575b505f80547fffff0000000000000000000000000000000000000000ffffffffffffffffffff1660509290921b600160501b600160f01b0316919091179055565b604051631fe36fb760e11b81526020816004815f516020612ece5f395f51905f525afa8015612077576118c9915f916124cc575b5060018060a01b03166001600160601b0360a01b6001541617600155565b6040516372f702f360e01b81526020816004815f516020612ece5f395f51905f525afa80156120775761191b915f916124ad575b5060018060a01b03166001600160601b0360a01b6002541617600255565b60405163d1af0c7d60e01b81526020816004815f516020612ece5f395f51905f525afa80156120775761196d915f9161248e575b5060018060a01b03166001600160601b0360a01b6003541617600355565b604051638da5cb5b60e01b815260208160048173ae9aca5d20f5b139931935378c4489308394ca2c5afa8015612077576119c6915f9161245f575b5060018060a01b03166001600160601b0360a01b6004541617600455565b6002546001600160a01b031673b1bbeea2da2905e6b0a30203aef55c399c53d04214801590612436575b61242e57604051633d8523f760e11b81526020816004815f516020612ece5f395f51905f525afa801561207757611a2e915f9161240f575b50600755565b6040516318160ddd60e01b81526020816004815f516020612ece5f395f51905f525afa801561207757611a68915f916123f0575b50600855565b6040516370a0823160e01b81523060048201526020816024815f516020612ece5f395f51905f525afa801561207757611aa8915f916123d1575b50600955565b6040516246613160e11b81523060048201526020816024815f516020612ece5f395f51905f525afa801561207757611ae7915f916123b2575b50600a55565b60405163cd3daf9d60e01b81526020816004815f516020612ece5f395f51905f525afa801561207757611b21915f91612393575b50600b55565b6040516347aebe8360e01b815260208160048173ae9aca5d20f5b139931935378c4489308394ca2c5afa801561207757611b62915f91612374575b50600d55565b6040516304f905cb60e21b815260208160048173ae9aca5d20f5b139931935378c4489308394ca2c5afa801561207757611ba3915f91612355575b50600f55565b60405163a0e4395960e01b81526080816004815f516020612ece5f395f51905f525afa90811561207757611c7d915f905f905f905f90612321575b600580546bffffffffffffffffffffffff60801b191660809290921b6bffffffffffffffffffffffff60801b16919091179055919250611c5891611c33905b63ffffffff1663ffffffff196005541617600555565b600480546001600160e01b031660e09290921b6001600160e01b031916919091179055565b6004805463ffffffff60a01b191660a09290921b63ffffffff60a01b16919091179055565b6040516370a0823160e01b815230600482015260208160248173ae9aca5d20f5b139931935378c4489308394ca2c5afa801561207757611cc4915f91612302575b50601555565b611cfd611cf8611cef611ce36005546001600160601b039060801c1690565b6001600160601b031690565b600d549061250a565b601055565b611d29611d24600754611d1e611d1560045460e01c90565b63ffffffff1690565b90610f08565b601855565b60045460e081901c9060a01c63ffffffff168181116122cd575b505060055463ffffffff604082901c81169116818111612294575b50506008541580612289575b80612251575b61223a575b600754151580612220575b8061220c575b806121ef575b806121cc575b806121c1575b61212e575b5f6002805b60068111156120e9575b50601755601d556040516370a0823160e01b815230600482015260208160248173ae9aca5d20f5b139931935378c4489308394ca2c5afa801561207757611dfa915f916120ca575b50601655565b60405163cd3daf9d60e01b81526020816004815f516020612ece5f395f51905f525afa801561207757611e34915f916120ab575b50600c55565b6040516347aebe8360e01b815260208160048173ae9aca5d20f5b139931935378c4489308394ca2c5afa801561207757611e75915f9161207c575b50600e55565b60405163a0e4395960e01b81526080816004815f516020612ece5f395f51905f525afa90811561207757611f1c915f905f905f90612038575b611ef7929350611ed4906001600160601b03166001600160601b03196006541617600655565b67ffffffff000000006005549160201b169067ffffffff00000000191617600555565b6004805463ffffffff60c01b191660c09290921b63ffffffff60c01b16919091179055565b611f45611f40611f37611ce36006546001600160601b031690565b600e549061250a565b601155565b6012541580159061202d575b8015612022575b611f779060ff60401b5f5491151560401b169060ff60401b1916175f55565b5f54601081901c60ff1615611fec5750611f8f61141d565b601d5415611f9957565b5f5460ff602082901c16159081611fdc575b81611fc7575b5015611fbf57610d86611698565b610d86611594565b611fd6915060081c60ff161590565b5f611fb1565b603081901c60ff16159150611fab565b604881901c60ff161561200757506120026111fa565b611f8f565b60301c60ff161561201a576120026110ed565b612002610f64565b506014541515611f58565b506013541515611f51565b505050611ef7612062611ed49260803d608011612070575b61205a81836104dd565b810190610ead565b929450849350919050611eae565b503d612050565b610d3c565b61209e915060203d6020116120a4575b61209681836104dd565b810190610e8d565b5f611e6f565b503d61208c565b6120c4915060203d6020116120a45761209681836104dd565b5f611e2e565b6120e3915060203d6020116120a45761209681836104dd565b5f611df4565b916120f383612537565b6120fb6125ca565b91600284148015612125575b1561211d5750509061211881610f56565b611da2565b915091611dac565b50818311612107565b612150690100000000000000000069ff000000000000000000195f5416175f55565b6121bc6121b76121ae6121a66005546121a0611d15612193612178611d158563ffffffff1690565b60045461218d9060a01c63ffffffff16611d15565b90612525565b9260401c63ffffffff1690565b90610f49565b600754610f08565b60105490612525565b601255565b611d9d565b506010541515611d98565b506018546005546121e89060801c6001600160601b0316611ce3565b1015611d92565b50600554612206611d1561219363ffffffff841682565b10611d8c565b5060055460401c63ffffffff161515611d86565b5063ffffffff61223260045460e01c90565b161515611d80565b61224c61010061ff00195f5416175f55565b611d75565b5061227161226b611d1560045463ffffffff9060a01c1690565b42612525565b612283611d1560055463ffffffff1690565b10611d70565b506007541515611d6a565b6122c6916122a191610f20565b6005805463ffffffff60601b191660609290921b63ffffffff60601b16919091179055565b5f80611d5e565b6122fb916122da91610f20565b63ffffffff60401b6005549160401b169063ffffffff60401b191617600555565b5f80611d43565b61231b915060203d6020116120a45761209681836104dd565b5f611cbe565b50505050611c58611c1d612346611c339360803d6080116120705761205a81836104dd565b92955085945090925090611bde565b61236e915060203d6020116120a45761209681836104dd565b5f611b9d565b61238d915060203d6020116120a45761209681836104dd565b5f611b5c565b6123ac915060203d6020116120a45761209681836104dd565b5f611b1b565b6123cb915060203d6020116120a45761209681836104dd565b5f611ae1565b6123ea915060203d6020116120a45761209681836104dd565b5f611aa2565b612409915060203d6020116120a45761209681836104dd565b5f611a62565b612428915060203d6020116120a45761209681836104dd565b5f611a28565b610d86610dcb565b506003546001600160a01b031673ae9aca5d20f5b139931935378c4489308394ca2c14156119f0565b612481915060203d602011612487575b61247981836104dd565b810190610d1d565b5f6119a8565b503d61246f565b6124a7915060203d6020116124875761247981836104dd565b5f61194f565b6124c6915060203d6020116124875761247981836104dd565b5f6118fd565b6124e5915060203d6020116124875761247981836104dd565b5f6118ab565b612504915060203d6020116124875761247981836104dd565b5f611837565b908082111561251f578103908111610f1b5790565b50505f90565b9080821015612532575090565b905090565b5f5b818110612544575050565b6001905f5460ff8160081c1690816125bb575b506125a0575b5f5460181c60ff1615612593575b5f5461257b9060281c60ff161590565b612586575b01612539565b61258e612b77565b612580565b61259b612ac7565b61256b565b6125b65f516020612ece5f395f51905f526126d7565b61255d565b60ff915060101c16155f612557565b6040516370a0823160e01b815230600482015260208160248173ae9aca5d20f5b139931935378c4489308394ca2c5afa908115612077575f91612660575b506015545f9181811161264f575b505060125490601354828111612647575b5060145482811161263f575b50818111612532575090565b91505f612633565b91505f612627565b6126599250610f49565b5f80612616565b612679915060203d6020116120a45761209681836104dd565b5f612608565b67ffffffffffffffff81116104ff57601f01601f191660200190565b3d156126c5573d906126ac8261267f565b916126ba60405193846104dd565b82523d5f602084013e565b606090565b91908201809211610f1b57565b6126f567010000000000000067ff00000000000000195f5416175f55565b60405163cd3daf9d60e01b81526001600160a01b039190911690602081600481855afa908115612077575f916128ec575b5060405163a0e4395960e01b8152608081600481865afa918215612077575f915f936128c4575b505f806040516020810190631e8c5c8960e11b8252600481526127716024826104dd565b5190825f516020612ece5f395f51905f525af161278c61269b565b50156128be5760405163a0e4395960e01b815292608084600481885afa918215612077575f945f9361288d575b50602060049495966040519586809263cd3daf9d60e01b82525afa938415612077575f9461286c575b5063ffffffff851663ffffffff8716119384612862575b50508261284b575b505061280b575050565b61283e612835611d1561284693610d86956128306201000062ff0000195f5416175f55565b610f20565b60075490610f08565b6013546126ca565b601355565b6001600160601b0391925081169116145f80612801565b1492505f806127f9565b61288691945060203d6020116120a45761209681836104dd565b925f6127e2565b600494955060209693506128af9060803d6080116120705761205a81836104dd565b95989097965091506127b99050565b50505050565b9092506128e0915060803d6080116120705761205a81836104dd565b9250905090915f61274d565b612905915060203d6020116120a45761209681836104dd565b5f612726565b90815167ffffffffffffffff81116104ff576129338161292c601b54610491565b601b610d88565b602092601f821160011461297357612963929382915f92612968575b50508160011b915f199060031b1c19161790565b601b55565b015190505f8061294f565b601b5f52601f198216937f3ad8aa4f87544323a9d1e5dd902f40c356527a7955687113db5f9a85ad579dc1915f5b8681106129d757508360019596106129bf575b505050811b01601b55565b01515f1960f88460031b161c191690555f80806129b4565b919260206001819286850151815501940192016129a1565b90815167ffffffffffffffff81116104ff57612a1781612a10601c54610491565b601c610d88565b602092601f8211600114612a4b57612a46929382915f926129685750508160011b915f199060031b1c19161790565b601c55565b601c5f52601f198216937f0e4562a10381dec21b205ed72637e6b1b523bdd0e4d4d50af5cd23dd4500a211915f5b868110612aaf5750836001959610612a97575b505050811b01601c55565b01515f1960f88460031b161c191690555f8080612a8c565b91926020600181928685015181550194019201612a79565b5f805463ff0000001916630100000017905560045460e01c80612b6357505f8060015b604051633c6b16ab60e01b60208201908152602480830193909352918152612b136044826104dd565b5190825f516020612ece5f395f51905f525af1612b2e61269b565b5f805464ff00000000191683151560201b64ff00000000161790559015612b525750565b612b5e610d8691612dc7565b61290b565b5f612b72819263ffffffff1690565b612aea565b5f805465ff0000000000191665010000000000179055600454612ba29060a01c63ffffffff16611d15565b80421080612c51575b612c31575b505f80604051602081019063103f08d560e11b825260048152612bd46024826104dd565b5190825f516020612ece5f395f51905f525af1612bef61269b565b5f805466ff000000000000191683151560301b66ff000000000000161790559015612c175750565b612c23612c2891612dc7565b6129ef565b610d865f601455565b612c46612c4b91611d1e600754914290610f49565b601455565b5f612bb0565b506007541515612bab565b60405190612c6b6040836104dd565b601c82527f63616c6c20726576657274656420776974686f757420726561736f6e000000006020830152565b90612ca18261267f565b612cae60405191826104dd565b8281528092612cbf601f199161267f565b0190602036910137565b908151811015612cda570160200190565b634e487b7160e01b5f52603260045260245ffd5b6020818303126103705780519067ffffffffffffffff8211610370570181601f8201121561037057805190612d228261267f565b92612d3060405194856104dd565b8284526020838301011161037057815f9260208093018386015e8301015290565b60405190612d606040836104dd565b600582526470616e696360d81b6020830152565b60405190612d836060836104dd565b602f82526e6f7220756e6b6e6f776e206461746160881b6040837f63616c6c207265766572746564207769746820637573746f6d206572726f722060208201520152565b6004815110612ea45760208101516001600160e01b03191662461bcd60e51b811480612e98575b612e2757634e487b7160e01b149081612e1a575b50612e1257612e0f612d74565b90565b612e0f612d51565b602491505110155f612e02565b5090612e3b612e368351610f3a565b612c97565b60045b8351811015612e825780612e65612e5760019387612cc9565b516001600160f81b03191690565b612e7b612e7183610f3a565b915f1a9185612cc9565b5301612e3e565b50612e0f91925060208082518301019101612cee565b50604482511015612dee565b50612e0f612c5c56fe944998273e477b495144fb8794c914197f3ccb46be2900f4698fd0ef743c9696000000000000000000000000b3fb1d01b07a706736ca175f827e4f56021b85de944998273e477b495144fb8794c914197f3ccb46be2900f4698fd0ef743c9699057c384a7d1c54f3a1b2e5e67b2617b8224fdfd1ea7234eea573a6ff665ff63e944998273e477b495144fb8794c914197f3ccb46be2900f4698fd0ef743c9697944998273e477b495144fb8794c914197f3ccb46be2900f4698fd0ef743c9698944998273e477b495144fb8794c914197f3ccb46be2900f4698fd0ef743c9695a26469706673582212208a8274d6098f3dc3885cef78dd24d4ae1a794c7f15ef51fc9dc03a510558e04264736f6c634300081e0033","linkReferences":{}},"methodIdentifiers":{"EXPECTED_REWARD_TOKEN()":"ef4ab04c","EXPECTED_STAKING_TOKEN()":"3651b7ef","TARGET()":"cc1f2afa","accountedPeriodStart()":"3ccecd0a","accountedScheduleAmount()":"9dc37908","attackerEarnedBefore()":"4655b5f0","attackerStakeBefore()":"6579c23c","bestRoundCount()":"d38434a7","bookedButUnmintedAfter()":"095f31a9","bookedButUnmintedBefore()":"e42e59fa","directPublicStageAttempted()":"f52fb20d","entryRewardBalance()":"5840dc99","executeOnOpportunity()":"3c2448ed","executed()":"31a38c89","exitRewardBalance()":"cc43b279","exploitPathUsed()":"d78c4281","finishAttempted()":"e7504f1a","finishFailureReason()":"af37d763","finishSucceeded()":"c86a2c6a","historicalPathProvable()":"f5ab45ac","historicalStrandedLowerBound()":"31cb45b4","hypothesisValidated()":"463defd1","infeasibilityReason()":"dfa6be1b","initialUntrackedSeconds()":"21c9161b","lastUpdateTimeAfter()":"13a02852","lastUpdateTimeBefore()":"c23da379","liveWindowConsumed()":"a7d7c700","liveWindowDetected()":"c6a7f600","newlyStrandedFromFinish()":"0042ee5a","newlyStrandedFromLiveWindow()":"527c6d14","notifyAttempted()":"bad2f84c","notifyFailureReason()":"3315b315","notifySucceeded()":"e127c70d","ownerAtEntry()":"913e7314","periodFinishAfter()":"5236c476","periodFinishBefore()":"2beeba44","profitAmount()":"5ff972cc","profitToken()":"49343624","rewardPerTokenAfter()":"b5df4f41","rewardPerTokenBefore()":"ad51aaac","rewardRateBefore()":"b034a6bc","rewardTokenCap()":"5c72fbc5","rewardTokenEverMintedAfter()":"781073e6","rewardTokenEverMintedBefore()":"582560ba","rewardTokenOwnerAtEntry()":"f38bb2c6","rewardsDistributionAtEntry()":"87b4a538","rewardsDuration()":"386a9525","rewardsTokenAtEntry()":"24854bc8","stakingTokenAtEntry()":"53a34a04","totalRewardsSupplyAfter()":"7bf68220","totalRewardsSupplyBefore()":"1850d4b7","totalSupplyBefore()":"b2dae980"},"id":0}