{"abi":[{"type":"function","name":"tokenBalance","inputs":[{"name":"token","type":"address","internalType":"address"}],"outputs":[{"name":"","type":"uint256","internalType":"uint256"}],"stateMutability":"view"}],"bytecode":{"object":"0x60808060405234601557610112908161001a8239f35b5f80fdfe60808060405260043610156011575f80fd5b5f3560e01c63eedc966a146023575f80fd5b3460b357602036600319011260b3576004356001600160a01b0381169081900360b357816024816020936370a0823160e01b82523060048301525afa801560d1575f906075575b602090604051908152f35b5060203d60201160cb575b601f8101601f1916820167ffffffffffffffff81118382101760b75760209183916040528101031260b35760209051606a565b5f80fd5b634e487b7160e01b5f52604160045260245ffd5b503d6080565b6040513d5f823e3d90fdfea26469706673582212203a7cf58cd7fda20dbd3c20ea34a7bc0c9e664028946bdc657b5f53334d258d0e64736f6c634300081e0033","linkReferences":{}},"methodIdentifiers":{"tokenBalance(address)":"eedc966a"},"id":0}