{"abi":[{"type":"constructor","inputs":[],"stateMutability":"nonpayable"},{"type":"receive","stateMutability":"payable"},{"type":"function","name":"STATUS_REPAYMENT_FAILED","inputs":[],"outputs":[{"name":"","type":"uint8","internalType":"uint8"}],"stateMutability":"view"},{"type":"function","name":"STATUS_UNEXPECTED_SUCCESS","inputs":[],"outputs":[{"name":"","type":"uint8","internalType":"uint8"}],"stateMutability":"view"},{"type":"function","name":"STATUS_UNSET","inputs":[],"outputs":[{"name":"","type":"uint8","internalType":"uint8"}],"stateMutability":"view"},{"type":"function","name":"STATUS_VALIDATED","inputs":[],"outputs":[{"name":"","type":"uint8","internalType":"uint8"}],"stateMutability":"view"},{"type":"function","name":"TARGET","inputs":[],"outputs":[{"name":"","type":"address","internalType":"address"}],"stateMutability":"view"},{"type":"function","name":"echoExchange","inputs":[],"outputs":[{"name":"","type":"address","internalType":"contract EchoExchange"}],"stateMutability":"view"},{"type":"function","name":"executeOnOpportunity","inputs":[],"outputs":[],"stateMutability":"nonpayable"},{"type":"function","name":"exploitPath","inputs":[],"outputs":[{"name":"","type":"string","internalType":"string"}],"stateMutability":"pure"},{"type":"function","name":"fakeAcoToken","inputs":[],"outputs":[{"name":"","type":"address","internalType":"contract ConfigurableAcoToken"}],"stateMutability":"view"},{"type":"function","name":"hypothesisRefuted","inputs":[],"outputs":[{"name":"","type":"bool","internalType":"bool"}],"stateMutability":"view"},{"type":"function","name":"hypothesisValidated","inputs":[],"outputs":[{"name":"","type":"bool","internalType":"bool"}],"stateMutability":"view"},{"type":"function","name":"lastRevertData","inputs":[],"outputs":[{"name":"","type":"bytes","internalType":"bytes"}],"stateMutability":"view"},{"type":"function","name":"profitAmount","inputs":[],"outputs":[{"name":"","type":"uint256","internalType":"uint256"}],"stateMutability":"view"},{"type":"function","name":"profitToken","inputs":[],"outputs":[{"name":"","type":"address","internalType":"address"}],"stateMutability":"view"},{"type":"function","name":"realizedProfitAmount","inputs":[],"outputs":[{"name":"","type":"uint256","internalType":"uint256"}],"stateMutability":"view"},{"type":"function","name":"realizedProfitToken","inputs":[],"outputs":[{"name":"","type":"address","internalType":"address"}],"stateMutability":"view"},{"type":"function","name":"status","inputs":[],"outputs":[{"name":"","type":"uint8","internalType":"uint8"}],"stateMutability":"view"},{"type":"function","name":"uniswapV2Call","inputs":[{"name":"","type":"address","internalType":"address"},{"name":"amount0","type":"uint256","internalType":"uint256"},{"name":"amount1","type":"uint256","internalType":"uint256"},{"name":"","type":"bytes","internalType":"bytes"}],"outputs":[],"stateMutability":"nonpayable"},{"type":"function","name":"usedAcoToken","inputs":[],"outputs":[{"name":"","type":"address","internalType":"address"}],"stateMutability":"view"},{"type":"function","name":"usedCollateralAmount","inputs":[],"outputs":[{"name":"","type":"uint256","internalType":"uint256"}],"stateMutability":"view"},{"type":"function","name":"wethReturnExchange","inputs":[],"outputs":[{"name":"","type":"address","internalType":"contract WethReturnExchange"}],"stateMutability":"view"}],"bytecode":{"object":"0x60e080604052346101be57633fc8cef360e01b815260208160048173e7597f774fd0a15a617894dc39d45a28b97afa4f5afa90811561014f575f9161016e575b5060405161012d8082016001600160401b0381118382101761015a578291612f01833903905ff0801561014f576080526040516102aa80820192906001600160401b0384118385101761015a57602091839161302e83396001600160a01b0316808552930301905ff0801561014f5760a0526040516102ad8082016001600160401b0381118382101761015a5782916132d8833903905ff0801561014f5760c052600380546001600160a01b031916919091179055604051612d3790816101ca82396080518181816104ec0152611a69015260a051818181610480015261133c015260c05181818161057d0152818161128a015281816119d601528181611ac901528181611b770152611c270152f35b6040513d5f823e3d90fd5b634e487b7160e01b5f52604160045260245ffd5b905060203d6020116101c2575b601f8101601f191682016001600160401b0381118382101761015a576020918391604052810103126101be57516001600160a01b03811681036101be575f61003f565b5f80fd5b503d61017b56fe608080604052600436101561001c575b50361561001a575f80fd5b005b5f3560e01c90816310d1e85c1461066557508063200d2ed21461064657806333c400ad146106295780633c2448ed146106115780633c3fb114146105f4578063463defd1146105d057806349343624146104af578063495f92f1146105ac5780634b4099a4146105685780635115460c1461053d5780635ff972cc1461051b5780636d00e54a146104d75780638f84014a146104af5780638fc9b3841461046b5780639ca1f61d146103a0578063a680119814610385578063cb707c6214610191578063cc1f2afa14610163578063dca9ea8414610148578063e0a169e71461012d5763f29a0bf21461010f575f61000f565b34610129575f3660031901126101295760206040515f8152f35b5f80fd5b34610129575f36600319011261012957602060405160028152f35b34610129575f36600319011261012957602060405160038152f35b34610129575f36600319011261012957602060405173e7597f774fd0a15a617894dc39d45a28b97afa4f8152f35b34610129575f366003190112610129576103816101a06101b46040519182610790565b61016481527f74696e79207075626c696320666c617368737761702073656564202d3e20707560208201527f626c696320777269746528292063616c6c7320737765657020616e792072657360408201527f696475616c20777269746572204554482f6c69717569642062616c616e63657360608201527f207468726f756768207468652073616d65205f73656c6c41434f546f6b656e7360808201527f206163636f756e74696e672070617468202d3e2077726974652829206f6e206160a08201527f6e204554482d737472696b652d636f6e6669677572656420746f6b656e206c6560c08201527f61766573205745544820696e2041434f577269746572202d3e205f73656c6c4160e08201527f434f546f6b656e732063616c6c7320574554482e7769746864726177202d3e206101008201527f574554482073656e6473204554482066726f6d20746865205745544820636f6e6101208201527f7472616374202d3e2041434f5772697465722e726563656976652829207265766101408201527f657274732062656361757365206d73672e73656e64657220213d205f6578636861016082015263616e676560e01b6101808201526040519182916020835260208301906107c6565b0390f35b34610129575f36600319011261012957602060405160018152f35b34610129575f366003190112610129576040515f6002546103c081610758565b808452906001811690811561044757506001146103fc575b610381836103e881850382610790565b6040519182916020835260208301906107c6565b91905060025f525f516020612c825f395f51905f52915f905b80821061042d575090915081016020016103e86103d8565b919260018160209254838588010152019101909291610415565b60ff191660208086019190915291151560051b840190910191506103e890506103d8565b34610129575f366003190112610129576040517f00000000000000000000000000000000000000000000000000000000000000006001600160a01b03168152602090f35b34610129575f366003190112610129576003546040516001600160a01b039091168152602090f35b34610129575f366003190112610129576040517f00000000000000000000000000000000000000000000000000000000000000006001600160a01b03168152602090f35b34610129575f366003190112610129576020610535610944565b604051908152f35b34610129575f366003190112610129575f5460405160189190911c6001600160a01b03168152602090f35b34610129575f366003190112610129576040517f00000000000000000000000000000000000000000000000000000000000000006001600160a01b03168152602090f35b34610129575f36600319011261012957602060ff5f5460101c166040519015158152f35b34610129575f36600319011261012957602060ff5f5460081c166040519015158152f35b34610129575f366003190112610129576020600154604051908152f35b34610129575f3660031901126101295761001a610809565b34610129575f366003190112610129576020600454604051908152f35b34610129575f36600319011261012957602060ff5f5416604051908152f35b34610129576080366003190112610129576004356001600160a01b03811603610129576024359060643567ffffffffffffffff8111610129573660238201121561012957806004013567ffffffffffffffff811161012957369101602401116101295773b4e16d0168e52d35cacd2c6185b44281ec28c9dc3314801561073b575b15610707575080156106fb5761001a906109da565b5061001a6044356109da565b62461bcd60e51b815260206004820152600f60248201526e3ab732bc3832b1ba32b2103830b4b960891b6044820152606490fd5b5073397ff1542f962076d0bfe58ea045ffa2d347aca033146106e6565b90600182811c92168015610786575b602083101461077257565b634e487b7160e01b5f52602260045260245ffd5b91607f1691610767565b90601f8019910116810190811067ffffffffffffffff8211176107b257604052565b634e487b7160e01b5f52604160045260245ffd5b805180835260209291819084018484015e5f828201840152601f01601f1916010190565b9081602091031261012957516001600160a01b03811681036101295790565b60055460ff811661087d5760ff1916600117600555604051633fc8cef360e01b815260208160048173e7597f774fd0a15a617894dc39d45a28b97afa4f5afa90811561090a575f91610915575b5047158061089d575b15610880575061086d610d87565b15610875575b565b61087d610f8f565b50565b61088990610b95565b610891610c24565b60ff1960055416600555565b506040516370a0823160e01b81523060048201526020816024816001600160a01b0386165afa90811561090a575f916108d8575b501561085f565b90506020813d602011610902575b816108f360209383610790565b8101031261012957515f6108d1565b3d91506108e6565b6040513d5f823e3d90fd5b610937915060203d60201161093d575b61092f8183610790565b8101906107ea565b5f610856565b503d610925565b6003546001600160a01b031680156109b4576020602491604051928380926370a0823160e01b82523060048301525afa90811561090a575f91610985575090565b90506020813d6020116109ac575b816109a060209383610790565b81010312610129575190565b3d9150610993565b504790565b919082018092116109c657565b634e487b7160e01b5f52601160045260245ffd5b604051633fc8cef360e01b81529060208260048173e7597f774fd0a15a617894dc39d45a28b97afa4f5afa90811561090a575f925f92610b74575b50610a1f82611157565b610a2882610b95565b610a318261176c565b610a3a82611830565b610a43826118f4565b4780610b2c575b506003810281810460031482151715610b18576103e590049060018201809211610b185790610a78916109b9565b6040516370a0823160e01b81523060048201529091906020816024816001600160a01b0386165afa908115610b0d579083918591610ad8575b5010610ac357610889925033906111a6565b5050805460ff19166002179055610891610c24565b9150506020813d602011610b05575b81610af460209383610790565b81010312610129578290515f610ab1565b3d9150610ae7565b6040513d86823e3d90fd5b634e487b7160e01b84526011600452602484fd5b6001600160a01b038316803b15610129575f90600460405180948193630d0e30db60e41b83525af1801561090a5715610a4a57610b6c9193505f90610790565b5f915f610a4a565b610b8e91925060203d60201161093d5761092f8183610790565b905f610a15565b610b9e90611c07565b610ba66119b8565b610bae611aab565b610bb6611b59565b610bbe6114fa565b5f5b600e8110610bda575050610bd2611269565b610873610c24565b600190610bf96001600160a01b03610bf28386610bff565b5116611c07565b01610bc0565b90600e811015610c105760051b0190565b634e487b7160e01b5f52603260045260245ffd5b610c2c6114fa565b5f4791610c3830611656565b838111610cfb575b50610c4a306116dd565b838111610ce3575b505f5b600e8110610c8457505060018060a01b03166bffffffffffffffffffffffff60a01b6003541617600355600455565b6001600160a01b03610c968284610bff565b511680158015610cda575b610cd157610caf3082611728565b90858211610cc4575b50506001905b01610c55565b909450925060015f610cb8565b50600190610cbe565b50803b15610ca1565b92505f516020612ca25f395f51905f5291505f610c52565b925073c02aaa39b223fe8d0a0e5c4f27ead9083c756cc291505f610c40565b9092608092610d4595948352602083015260018060a01b0316604082015281606082015201906107c6565b90565b3d15610d82573d9067ffffffffffffffff82116107b25760405191610d77601f8201601f191660200184610790565b82523d5f602084013e565b606090565b73b4e16d0168e52d35cacd2c6185b44281ec28c9dc3b15610f8b57604051633fc8cef360e01b815260208160048173e7597f774fd0a15a617894dc39d45a28b97afa4f5afa90811561090a575f91610f6c575b50604051630dfe168160e01b81529060208260048173b4e16d0168e52d35cacd2c6185b44281ec28c9dc5afa91821561090a575f92610f4b575b5060405163d21220a760e01b81529060208260048173b4e16d0168e52d35cacd2c6185b44281ec28c9dc5afa91821561090a575f92610f2a575b506001600160a01b039081169216821490811580610f17575b610f10575f92839215610f09576103e8915b6001600160a01b0316148214610f02576103e8905b610edc604051916001602084015260208352610eab604084610790565b610ece604051938492602084019663022c0d9f60e01b8852309160248601610d1a565b03601f198101835282610790565b51908273b4e16d0168e52d35cacd2c6185b44281ec28c9dc5af1610efe610d48565b5090565b8190610e8e565b8291610e79565b5050505f90565b506001600160a01b038116831415610e67565b610f4491925060203d60201161093d5761092f8183610790565b905f610e4e565b610f6591925060203d60201161093d5761092f8183610790565b905f610e14565b610f85915060203d60201161093d5761092f8183610790565b5f610dda565b5f90565b73397ff1542f962076d0bfe58ea045ffa2d347aca03b15610f8b57604051633fc8cef360e01b815260208160048173e7597f774fd0a15a617894dc39d45a28b97afa4f5afa90811561090a575f91611138575b50604051630dfe168160e01b81529060208260048173397ff1542f962076d0bfe58ea045ffa2d347aca05afa91821561090a575f92611117575b5060405163d21220a760e01b81529060208260048173397ff1542f962076d0bfe58ea045ffa2d347aca05afa91821561090a575f926110f6575b506001600160a01b0390811692168214908115806110e3575b610f10575f928392156110dc576103e8915b6001600160a01b03161482146110d5576103e8905b6110b3604051916001602084015260208352610eab604084610790565b51908273397ff1542f962076d0bfe58ea045ffa2d347aca05af1610efe610d48565b8190611096565b8291611081565b506001600160a01b03811683141561106f565b61111091925060203d60201161093d5761092f8183610790565b905f611056565b61113191925060203d60201161093d5761092f8183610790565b905f61101c565b611151915060203d60201161093d5761092f8183610790565b5f610fe2565b600147101561087d576001600160a01b0316803b15610129575f8091602460405180948193632e1a7d4d60e01b8352600160048401525af1801561090a5761119c5750565b5f61087391610790565b5f929183809360405190602082019363a9059cbb60e01b855260018060a01b031660248301526044820152604481526111e0606482610790565b51925af16111ec610d48565b81611231575b50156111fa57565b60405162461bcd60e51b815260206004820152600f60248201526e1d1c985b9cd9995c8819985a5b1959608a1b6044820152606490fd5b8051801592508215611246575b50505f6111f2565b819250906020918101031261012957602001518015158103610129575f8061123e565b5f5f5460ff8160081c169081156114ec575b5061087d57611288611cbe565b7f0000000000000000000000000000000000000000000000000000000000000000906001600160a01b038216803b156101295760405163e470d5cf60e01b81528160048201525f60248201525f8160448183865af1801561090a576114d6575b5081546301000000600160b81b03191660189390931b6301000000600160b81b03169290921781556001805560405163d9c55ce160e01b602082015260048152909161136a919061133a602483610790565b7f00000000000000000000000000000000000000000000000000000000000000006001600160a01b031690611d20565b90156113825750805462ff00ff191662010003179055565b815461ffff1916610101178255805190929167ffffffffffffffff82116114c2576113ae600254610758565b601f811161145a575b50602090601f83116001146113f15793829394926113e6575b50508160011b915f199060031b1c191617600255565b015190505f806113d0565b60028152601f198316945f516020612c825f395f51905f5292915b868110611442575083600195961061142a575b505050811b01600255565b01515f1960f88460031b161c191690555f808061141f565b9192602060018192868501518155019401920161140c565b60028252601f830160051c5f516020612c825f395f51905f520190602084106114ad575b601f0160051c5f516020612c825f395f51905f5201905b8181106114a257506113b7565b828155600101611495565b5f516020612c825f395f51905f52915061147e565b634e487b7160e01b81526041600452602490fd5b61136a92505f6114e591610790565b5f916112e8565b60ff915060101c165f61127b565b604051906101c061150b8184610790565b36833773c02aaa39b223fe8d0a0e5c4f27ead9083c756cc26101a08373b05b83f1aab0036f9dadfdb18405da3d459c1f1c815273160e753eefe29ea3ac186bf27588ac9aca2f6139602082015273ff5b7c52245625b399d2e2927f52a8da86264a33604082015273c3eab6960e0cd51dcf304248e4bbb08d8eeab5526060820152739b297790cd8540876a04543499528835f1cea17560808201527358ea371c3d7bca0ed0c3a4e4dc9bb9270231048960a082015273b51a09c53d7cc6481e4c5d9d8d334a6e50776ecf60c082015273049d17c3d5ba37429de4d414a603127f1090ffa760e082015273c12d099be31567add4e4e4d0d45691c3f58f5663610100820152826101208201525f516020612ca25f395f51905f526101408201525f516020612cc25f395f51905f526101608201525f516020612ce25f395f51905f526101808201520152565b5f809160405160208101916370a0823160e01b835260018060a01b0316602482015260248152611687604482610790565b519073c02aaa39b223fe8d0a0e5c4f27ead9083c756cc25afa6116a8610d48565b901580156116d2575b6116cd5760208151918180820193849201010312610129575190565b505f90565b5060208151106116b1565b5f809160405160208101916370a0823160e01b835260018060a01b031660248201526024815261170e604482610790565b51905f516020612ca25f395f51905f525afa6116a8610d48565b6040516370a0823160e01b602082019081526001600160a01b0390931660248083019190915281525f92839291611760604482610790565b51915afa6116a8610d48565b5f516020612ca25f395f51905f526001600160a01b03821614801561181a575b61087d576040516370a0823160e01b81523060048201526020816024815f516020612ca25f395f51905f525afa90811561090a575f916117e8575b50806117d1575050565b610873915f516020612ca25f395f51905f52611d99565b90506020813d602011611812575b8161180360209383610790565b8101031261012957515f6117c7565b3d91506117f6565b505f516020612ca25f395f51905f523b1561178c565b5f516020612cc25f395f51905f526001600160a01b0382161480156118de575b61087d576040516370a0823160e01b81523060048201526020816024815f516020612cc25f395f51905f525afa90811561090a575f916118ac575b5080611895575050565b610873915f516020612cc25f395f51905f52611d99565b90506020813d6020116118d6575b816118c760209383610790565b8101031261012957515f61188b565b3d91506118ba565b505f516020612cc25f395f51905f523b15611850565b5f516020612ce25f395f51905f526001600160a01b0382161480156119a2575b61087d576040516370a0823160e01b81523060048201526020816024815f516020612ce25f395f51905f525afa90811561090a575f91611970575b5080611959575050565b610873915f516020612ce25f395f51905f52611d99565b90506020813d60201161199a575b8161198b60209383610790565b8101031261012957515f61194f565b3d915061197e565b505f516020612ce25f395f51905f523b15611914565b5f516020612ca25f395f51905f523b15610873576119d4611cbe565b7f00000000000000000000000000000000000000000000000000000000000000006001600160a01b0316803b156101295760405163e470d5cf60e01b8152600481018290525f516020612ca25f395f51905f526024820152905f8260448183855af191821561090a57611a9792611a9b575b5060405163d9c55ce160e01b60208201526004815290611a67602483610790565b7f00000000000000000000000000000000000000000000000000000000000000006001600160a01b031690611d20565b5050565b5f611aa591610790565b5f611a46565b5f516020612cc25f395f51905f523b1561087357611ac7611cbe565b7f00000000000000000000000000000000000000000000000000000000000000006001600160a01b0316803b156101295760405163e470d5cf60e01b8152600481018290525f516020612cc25f395f51905f526024820152905f8260448183855af191821561090a57611a9792611a9b575060405163d9c55ce160e01b60208201526004815290611a67602483610790565b5f516020612ce25f395f51905f523b1561087357611b75611cbe565b7f00000000000000000000000000000000000000000000000000000000000000006001600160a01b0316803b156101295760405163e470d5cf60e01b8152600481018290525f516020612ce25f395f51905f526024820152905f8260448183855af191821561090a57611a9792611a9b575060405163d9c55ce160e01b60208201526004815290611a67602483610790565b6001600160a01b038116158015611cb5575b61087d57611c25611cbe565b7f00000000000000000000000000000000000000000000000000000000000000006001600160a01b0316803b156101295760405163e470d5cf60e01b81526001600160a01b0382811660048301529290921660248301525f8260448183855af191821561090a57611a9792611a9b575060405163d9c55ce160e01b60208201526004815290611a67602483610790565b50803b15611c19565b60014710156108735773c02aaa39b223fe8d0a0e5c4f27ead9083c756cc23b1561012957604051632e1a7d4d60e01b8152600160048201525f816024818373c02aaa39b223fe8d0a0e5c4f27ead9083c756cc25af1801561090a5761119c5750565b604051631c86323b60e01b602082019081526001600160a01b03928316602483015260016044830152919092166064830152608060848301525f92839290611d72908290610ece9060a48301906107c6565b5190600173e7597f774fd0a15a617894dc39d45a28b97afa4f5af1611d95610d48565b9091565b919081158015611ffe575b611ff957611db3828285612013565b611dbe83838661218b565b611dc9848487612228565b90611dd58585886122bf565b9283828210159182611fee575b82611fe3575b5050611e2e5782828210159182611e23575b5050611e18571015611e0f5761087392612665565b610873926124e1565b505061087392612356565b10159050825f611dfa565b505060405163e6a4390560e01b81526001600160a01b0385811660048301528316602482015291939192919050602083604481735c69bee701ef814a2b6a3edd4b1652cb9cc5aa6f5afa92831561090a575f93611fc2575b5060405163e6a4390560e01b81526001600160a01b0382811660048301528516602482015260208160448173c0aee478e3658e2610c5f7a4a2e1777ce9e4f2ac5afa90811561090a575f91611fa3575b505f9485946001600160a01b038116151580611f99575b611f75575b50836001600160a01b038316151580611f6b575b611f46575b5050506001600160a01b038416151580611f3d575b611f2b575b50505050565b611f3493612a34565b5f808080611f25565b50821515611f20565b611f519184846127fd565b848111611f5f575b83611f0b565b90945092505f80611f59565b50823b1515611f06565b611f81858386846127fd565b80611f8d575b50611ef2565b90965094505f80611f87565b50803b1515611eed565b611fbc915060203d60201161093d5761092f8183610790565b5f611ed6565b611fdc91935060203d60201161093d5761092f8183610790565b915f611e86565b10159050835f611de8565b848110159250611de2565b505050565b506001600160a01b0383811690821614611da4565b60405163e6a4390560e01b81526001600160a01b038281166004830152831660248201525f949390929091602084604481735c69bee701ef814a2b6a3edd4b1652cb9cc5aa6f5afa93841561090a575f9461216a575b5060405163e6a4390560e01b81526001600160a01b038281166004830152831660248201529360208560448173c0aee478e3658e2610c5f7a4a2e1777ce9e4f2ac5afa94851561090a575f95612149575b508383836001600160a01b03841615158061213f575b612120575b505050506001600160a01b038416151580612116575b6120f55750505050565b6120fe936127fd565b82811161210e575b808080611f25565b91505f612106565b50833b15156120eb565b612129936127fd565b80612137575b8383836120d5565b95505f61212f565b50833b15156120d0565b61216391955060203d60201161093d5761092f8183610790565b935f6120ba565b61218491945060203d60201161093d5761092f8183610790565b925f612069565b90916001600160a01b0382165f516020612cc25f395f51905f528114908115612208575b81156121f5575b50610f10575f516020612cc25f395f51905f526121d292612013565b80156121ef57610d45915f516020612cc25f395f51905f52612013565b50505f90565b6001600160a01b0385161490505f6121b6565b5f516020612cc25f395f51905f526001600160a01b0386161491506121af565b90916001600160a01b0382165f516020612ce25f395f51905f52811490811561229f575b811561228c575b50610f10575f516020612ce25f395f51905f5261226f92612013565b80156121ef57610d45915f516020612ce25f395f51905f52612013565b6001600160a01b0385161490505f612253565b5f516020612ce25f395f51905f526001600160a01b03861614915061224c565b90916001600160a01b0382165f516020612ca25f395f51905f528114908115612336575b8115612323575b50610f10575f516020612ca25f395f51905f5261230692612013565b80156121ef57610d45915f516020612ca25f395f51905f52612013565b6001600160a01b0385161490505f6122ea565b5f516020612ca25f395f51905f526001600160a01b0386161491506122e3565b9091906001600160a01b0381165f516020612cc25f395f51905f5281149081156124c1575b81156124ae575b50611ff95761239f825f516020612cc25f395f51905f5283612b08565b916001600160a01b03831615611f25576123c8815f516020612cc25f395f51905f5284866127fd565b9182156124a7576123d893612a34565b6040516370a0823160e01b81523060048201526020816024815f516020612cc25f395f51905f525afa90811561090a575f91612475575b508015611a975761242e81835f516020612cc25f395f51905f52612b08565b916001600160a01b03831615611ff95781612457915f516020612cc25f395f51905f52856127fd565b908115611ff9575f516020612cc25f395f51905f5261087393612a34565b90506020813d60201161249f575b8161249060209383610790565b8101031261012957515f61240f565b3d9150612483565b5050505050565b6001600160a01b0385161490505f612382565b5f516020612cc25f395f51905f526001600160a01b03861614915061237b565b9091906001600160a01b0381165f516020612ce25f395f51905f528114908115612645575b8115612632575b50611ff95761252a825f516020612ce25f395f51905f5283612b08565b916001600160a01b03831615611f2557612553815f516020612ce25f395f51905f5284866127fd565b9182156124a75761256393612a34565b6040516370a0823160e01b81523060048201526020816024815f516020612ce25f395f51905f525afa90811561090a575f91612600575b508015611a97576125b981835f516020612ce25f395f51905f52612b08565b916001600160a01b03831615611ff957816125e2915f516020612ce25f395f51905f52856127fd565b908115611ff9575f516020612ce25f395f51905f5261087393612a34565b90506020813d60201161262a575b8161261b60209383610790565b8101031261012957515f61259a565b3d915061260e565b6001600160a01b0385161490505f61250d565b5f516020612ce25f395f51905f526001600160a01b038616149150612506565b9091906001600160a01b0381165f516020612ca25f395f51905f5281149081156127c9575b81156127b6575b50611ff9576126ae825f516020612ca25f395f51905f5283612b08565b916001600160a01b03831615611f25576126d7815f516020612ca25f395f51905f5284866127fd565b9182156124a7576126e793612a34565b6040516370a0823160e01b81523060048201526020816024815f516020612ca25f395f51905f525afa90811561090a575f91612784575b508015611a975761273d81835f516020612ca25f395f51905f52612b08565b916001600160a01b03831615611ff95781612766915f516020612ca25f395f51905f52856127fd565b908115611ff9575f516020612ca25f395f51905f5261087393612a34565b90506020813d6020116127ae575b8161279f60209383610790565b8101031261012957515f61271e565b3d9150612792565b6001600160a01b0385161490505f612691565b5f516020612ca25f395f51905f526001600160a01b03861614915061268a565b51906001600160701b038216820361012957565b604051630dfe168160e01b8152926001600160a01b0390911691602084600481865afa93841561090a575f94612a13575b5060405163d21220a760e01b815290602082600481875afa91821561090a575f926129f2575b506001600160a01b039485169416848114948593846129dc575b84156129ab575b5050505015610f1057606060049160405192838092630240bc6b60e21b82525afa91821561090a575f915f93612950575b501561293c576001600160701b038091169116915b8115808015612934575b61292c576103e58202918083046103e514811517156109c657846103e59102029382850414821517156109c6576103e883029283046103e81417156109c65761290d916109b9565b908115612918570490565b634e487b7160e01b5f52601260045260245ffd5b505050505f90565b5083156128c5565b906001600160701b038091169116916128bb565b915091506060813d6060116129a3575b8161296d60609383610790565b810103126101295761297e816127e9565b604061298c602084016127e9565b92015163ffffffff8116036101295790915f6128a6565b3d9150612960565b6001600160a01b031614925090826129c9575b50505f808080612875565b6001600160a01b03161490505f806129be565b6001600160a01b0384811690821614945061286e565b612a0c91925060203d60201161093d5761092f8183610790565b905f612854565b612a2d91945060203d60201161093d5761092f8183610790565b925f61282e565b9091612a419082846111a6565b604051630dfe168160e01b81526001600160a01b039190911691602082600481865afa91821561090a575f92612ae7575b506001600160a01b03918216911603612ae0575f91905b60405190612a98602083610790565b5f808352366020840137803b1561012957612acf935f80946040519687958694859363022c0d9f60e01b8552309160048601610d1a565b03925af1801561090a5761119c5750565b5f90612a89565b612b0191925060203d60201161093d5761092f8183610790565b905f612a72565b60405163e6a4390560e01b81526001600160a01b038281166004830152831660248201525f9493909190602083604481735c69bee701ef814a2b6a3edd4b1652cb9cc5aa6f5afa92831561090a575f93612c60575b5060405163e6a4390560e01b81526001600160a01b038381166004830152851660248201529360208560448173c0aee478e3658e2610c5f7a4a2e1777ce9e4f2ac5afa94851561090a575f95612c3f575b505f936001600160a01b038116151580612c35575b612c11575b506001600160a01b038516151580612c07575b612be6575050505050565b612bf092856127fd565b11612bff575b808080806124a7565b91505f612bf6565b50843b1515612bdb565b612c1d838386846127fd565b80612c29575b50612bc8565b90975093505f80612c23565b50803b1515612bc3565b612c5991955060203d60201161093d5761092f8183610790565b935f612bae565b612c7a91935060203d60201161093d5761092f8183610790565b915f612b5d56fe405787fa12a823e0f2b7631cc41b3ba8828b3321ca811111fa75cd3aa3bb5ace0000000000000000000000006b175474e89094c44da98b954eedeac495271d0f000000000000000000000000a0b86991c6218b36c1d19d4a2e9eb0ce3606eb48000000000000000000000000dac17f958d2ee523a2206206994597c13d831ec7a2646970667358221220910e968897cb3bb12be17166e373b70294b856ecf173850edeb35c962f893f1f64736f6c634300081e003360808060405234601557610113908161001a8239f35b5f80fdfe608060405260043610156010575f80fd5b5f3560e01c63d9c55ce1146022575f80fd5b5f36600319011260d95734603257005b5f80808034335af13d1560d5573d67ffffffffffffffff811160c15760405190601f8101601f19908116603f0116820167ffffffffffffffff81118382101760c15760405281525f60203d92013e5b15608757005b60405162461bcd60e51b81526020600482015260126024820152711958da1bc81c995d1d5c9b8819985a5b195960721b6044820152606490fd5b634e487b7160e01b5f52604160045260245ffd5b6081565b5f80fdfea2646970667358221220c599a9a4c0579ac1e767d62ec38771403d85447aef113c7cb0047ff3aa77424c64736f6c634300081e003360a034606c57601f6102aa38819003918201601f19168301916001600160401b03831184841017607057808492602094604052833981010312606c57516001600160a01b0381168103606c57608052604051610225908161008582396080518181816041015261018a0152f35b5f80fd5b634e487b7160e01b5f52604160045260245ffdfe6080806040526004361015610012575f80fd5b5f905f3560e01c9081633fc8cef314610178575063d9c55ce114610034575f80fd5b5f366003190112610174577f00000000000000000000000000000000000000000000000000000000000000006001600160a01b0316803b1561017457604051630d0e30db60e41b81525f8160048134865af1801561016957610154575b506020829160446040518094819363a9059cbb60e01b83523360048401523460248401525af190811561014957829161010a575b50156100ce5780f35b60405162461bcd60e51b815260206004820152601460248201527315d15512081d1c985b9cd9995c8819985a5b195960621b6044820152606490fd5b90506020813d602011610141575b81610125602093836101b9565b8101031261013d5751801515810361013d575f6100c5565b5080fd5b3d9150610118565b6040513d84823e3d90fd5b602092505f610162916101b9565b5f91610091565b6040513d5f823e3d90fd5b5f80fd5b34610174575f366003190112610174577f00000000000000000000000000000000000000000000000000000000000000006001600160a01b03168152602090f35b90601f8019910116810190811067ffffffffffffffff8211176101db57604052565b634e487b7160e01b5f52604160045260245ffdfea264697066735822122085e773c6c77f7e21941b748847a5edb407b8777da90553eabe711cf222a0c69c64736f6c634300081e0033608080604052346026575f80546001600160a01b03191630179055610282908161002b8239f35b5f80fdfe60806040526004361015610011575f80fd5b5f3560e01c8063095ea7b31461015457806317d69bc81461017457806323b872dd146101d9578063449a52f8146101c057806370a082311461019c5780638c3199a51461017457806399bc0aea14610159578063a9059cbb14610154578063b0df1cc71461013e578063b2016bd4146100fa578063c2507ac114610121578063d8dfeb45146100fa5763e470d5cf146100a8575f80fd5b346100f65760403660031901126100f6576100c1610207565b6100c961021d565b5f80546001600160a01b039384166001600160a01b03199182161790915560018054929093169116179055005b5f80fd5b346100f6575f3660031901126100f6575f546040516001600160a01b039091168152602090f35b346100f65760203660031901126100f65760206040516004358152f35b60203660031901126100f657610152610207565b005b610233565b346100f6575f3660031901126100f65760206040515f198152f35b346100f6575f3660031901126100f6576001546040516001600160a01b039091168152602090f35b346100f65760203660031901126100f6576101b5610207565b5060206040515f8152f35b346100f65760403660031901126100f657610152610207565b346100f65760603660031901126100f6576101f2610207565b506101fb61021d565b50602060405160018152f35b600435906001600160a01b03821682036100f657565b602435906001600160a01b03821682036100f657565b346100f65760403660031901126100f6576101fb61020756fea26469706673582212207212c4829e45eb2b30d80c2838b50f6f5c4049a82f704215ef2e227e7395bf5864736f6c634300081e0033","linkReferences":{}},"methodIdentifiers":{"STATUS_REPAYMENT_FAILED()":"e0a169e7","STATUS_UNEXPECTED_SUCCESS()":"dca9ea84","STATUS_UNSET()":"f29a0bf2","STATUS_VALIDATED()":"a6801198","TARGET()":"cc1f2afa","echoExchange()":"6d00e54a","executeOnOpportunity()":"3c2448ed","exploitPath()":"cb707c62","fakeAcoToken()":"4b4099a4","hypothesisRefuted()":"495f92f1","hypothesisValidated()":"463defd1","lastRevertData()":"9ca1f61d","profitAmount()":"5ff972cc","profitToken()":"49343624","realizedProfitAmount()":"33c400ad","realizedProfitToken()":"8f84014a","status()":"200d2ed2","uniswapV2Call(address,uint256,uint256,bytes)":"10d1e85c","usedAcoToken()":"5115460c","usedCollateralAmount()":"3c3fb114","wethReturnExchange()":"8fc9b384"},"id":0}