{"abi":[{"type":"constructor","inputs":[],"stateMutability":"nonpayable"},{"type":"receive","stateMutability":"payable"},{"type":"function","name":"activeLeg","inputs":[],"outputs":[{"name":"","type":"address","internalType":"address"}],"stateMutability":"view"},{"type":"function","name":"executeOnOpportunity","inputs":[],"outputs":[],"stateMutability":"nonpayable"},{"type":"function","name":"executeOperation","inputs":[{"name":"assets","type":"address[]","internalType":"address[]"},{"name":"amounts","type":"uint256[]","internalType":"uint256[]"},{"name":"premiums","type":"uint256[]","internalType":"uint256[]"},{"name":"","type":"address","internalType":"address"},{"name":"","type":"bytes","internalType":"bytes"}],"outputs":[{"name":"","type":"bool","internalType":"bool"}],"stateMutability":"nonpayable"},{"type":"function","name":"hypothesisValidated","inputs":[],"outputs":[{"name":"","type":"bool","internalType":"bool"}],"stateMutability":"view"},{"type":"function","name":"notifyPrices","inputs":[{"name":"beforePrice","type":"uint256","internalType":"uint256"},{"name":"duringPrice","type":"uint256","internalType":"uint256"},{"name":"afterPrice","type":"uint256","internalType":"uint256"}],"outputs":[],"stateMutability":"nonpayable"},{"type":"function","name":"oraclePriceAfterExit","inputs":[],"outputs":[{"name":"","type":"uint256","internalType":"uint256"}],"stateMutability":"view"},{"type":"function","name":"oraclePriceBeforeExit","inputs":[],"outputs":[{"name":"","type":"uint256","internalType":"uint256"}],"stateMutability":"view"},{"type":"function","name":"oraclePriceDuringCallback","inputs":[],"outputs":[{"name":"","type":"uint256","internalType":"uint256"}],"stateMutability":"view"},{"type":"function","name":"profitAmount","inputs":[],"outputs":[{"name":"","type":"uint256","internalType":"uint256"}],"stateMutability":"view"},{"type":"function","name":"profitToken","inputs":[],"outputs":[{"name":"","type":"address","internalType":"address"}],"stateMutability":"pure"}],"bytecode":{"object":"0x60808060405234601557612e54908161001a8239f35b5f80fdfe608080604052600436101561001c575b50361561001a575f80fd5b005b5f905f3560e01c9081631a1ea4981461126c575080631f149c7c1461124f5780633c2448ed14610ee9578063463defd114610ec65780634934362414610e9e5780635c875ac214610e715780635ff972cc14610e545780637ef43d7614610e36578063920f5c84146101345763bda0d1360361000f573461013157606036600319011261013157600480549035602435604435601084901c6001600160a01b031633036100ff578260ff936001558260025581600355821191826100f5575b505061ff01600160b01b0319909216911515161760045580f35b1190505f806100db565b60405162461bcd60e51b815260206004820152600a6024820152691bdb9b1e4b58da1a5b1960b21b6044820152606490fd5b80fd5b50346101315760a03660031901126101315760043567ffffffffffffffff8111610e3257610166903690600401611286565b919060243567ffffffffffffffff8111610e2e57610188903690600401611286565b9160443567ffffffffffffffff8111610e2a576101a9903690600401611286565b90916064356001600160a01b03811603610deb5760843567ffffffffffffffff8111610bdb5736602382011215610bdb57806004013567ffffffffffffffff8111610bdf5736910160240111610deb577387870bca3f3fd6335c3f4ce8392d69350b4fa4e23303610dfa575f516020612dff5f395f51905f523b15610deb57604051632e1a7d4d60e01b8152683ba1910bf341b0000060048201528681602481835f516020612dff5f395f51905f525af18015610def57908791610dd6575b5050604096875161027989826112b7565b88368237683ba1910bf341b000008152602081018890528851630b4c7e4d60e01b81529088600483015b60028210610dc057505050683635c9adc5dea000006044820152602081606481683ba1910bf341b0000073dc24316b9ae028f1497c275eb9192a3ea0f670225af1801561087057610da1575b508751611a658082019082821067ffffffffffffffff831117610d8d57602091839161139a833930815203019088f08015610d83576004805462010000600160b01b031916601083901b62010000600160b01b031617815589516370a0823160e01b815230918101919091526001600160a01b0391909116906020816024815f516020612dff5f395f51905f525afa908115610c38578991610d50575b50895163a9059cbb60e01b81526001600160a01b038316600482015260248101919091526020816044818c5f516020612dff5f395f51905f525af1908115610c38578991610d31575b5015610cfd5788516370a0823160e01b8152306004820152602081602481737f39c581f595b53c5cb19bd0b3f8da6c935e2ca05afa908115610c38578991610cca575b50895163a9059cbb60e01b81526001600160a01b038316600482015260248101919091526020816044818c737f39c581f595b53c5cb19bd0b3f8da6c935e2ca05af1908115610c38578991610cab575b5015610c755788516370a0823160e01b81523060048201526020816024817306325440d014e39736583c165c2963ba99faf14e5afa908115610c38578991610c42575b50895163a9059cbb60e01b81526001600160a01b038316600482015260248101919091526020816044818c7306325440d014e39736583c165c2963ba99faf14e5af1908115610c38578991610c19575b5015610be357803b15610bdf5787809160048b518094819363637d242160e01b83525af1801561087057908891610bc6575b505087516370a0823160e01b81523060048201526020816024817306325440d014e39736583c165c2963ba99faf14e5afa908115610870578891610b94575b50885190630d2680e960e11b82526004820152876024820152683635c9adc5dea0000060448201526020816064818b73dc24316b9ae028f1497c275eb9192a3ea0f670225af1801561087057610b65575b508515610b515784358315610b3d5784356105d88183611364565b8a516370a0823160e01b815230600482015290602082602481737f39c581f595b53c5cb19bd0b3f8da6c935e2ca05afa918215610a3c578b92610b09575b50808211610a7c575b505089516370a0823160e01b815230600482015260208160248173ae7ab96520de3a18e5e111b5eaab095312d7fe845afa9081156108f5578a91610a46575b5080610903575b504761088e575b821561087a5788916020918b9190610696906001600160a01b0361068f89611385565b1692611364565b825194858094819363095ea7b360e01b83528760048401928301927387870bca3f3fd6335c3f4ce8392d69350b4fa4e28152015203925af1908115610870578891610851575b5015610821576001101561080d576001600160a01b03906106ff90602001611385565b1693600110156107f957600110156107e55791610726602092838087960135910135611364565b908551809481809463095ea7b360e01b82526004820190878b8301927387870bca3f3fd6335c3f4ce8392d69350b4fa4e28152015203925af19182156107da57916107ab575b501561077c576020905160018152f35b5162461bcd60e51b8152602060048201526009602482015268617070726f76652d3160b81b6044820152606490fd5b6107cd915060203d6020116107d3575b6107c581836112b7565b81019061134c565b5f61076c565b503d6107bb565b8351903d90823e3d90fd5b634e487b7160e01b84526032600452602484fd5b634e487b7160e01b85526032600452602485fd5b634e487b7160e01b86526032600452602486fd5b875162461bcd60e51b81526020600482015260096024820152680617070726f76652d360bc1b6044820152606490fd5b61086a915060203d6020116107d3576107c581836112b7565b5f6106dc565b89513d8a823e3d90fd5b634e487b7160e01b89526032600452602489fd5b475f516020612dff5f395f51905f523b156108ff57896004918c5192838092630d0e30db60e41b82525f516020612dff5f395f51905f525af180156108f557908a916108dc575b505061066c565b816108e6916112b7565b6108f157885f6108d5565b8880fd5b8b513d8c823e3d90fd5b8980fd5b8a5163095ea7b360e01b815273dc24316b9ae028f1497c275eb9192a3ea0f670226004820152602481018290526020816044818e73ae7ab96520de3a18e5e111b5eaab095312d7fe845af1908115610a3c578b91610a1d575b50156109e95773dc24316b9ae028f1497c275eb9192a3ea0f670223b156108ff578a5190630f7c084960e21b8252600160048301528a602483015260448201526001606482015289816084818373dc24316b9ae028f1497c275eb9192a3ea0f670225af180156108f557908a916109d4575b50610665565b816109de916112b7565b6108f157885f6109ce565b8a5162461bcd60e51b815260206004820152600d60248201526c73746574682d617070726f766560981b6044820152606490fd5b610a36915060203d6020116107d3576107c581836112b7565b5f61095c565b8c513d8d823e3d90fd5b90506020813d602011610a74575b81610a61602093836112b7565b81010312610a7057515f61065e565b5f80fd5b3d9150610a54565b8103908111610af5578a5190636f074d1f60e11b825260048201526020816024818d737f39c581f595b53c5cb19bd0b3f8da6c935e2ca05af180156108f557610ac6575b8061061f565b610ae79060203d602011610aee575b610adf81836112b7565b81019061133d565b505f610ac0565b503d610ad5565b634e487b7160e01b8a52601160045260248afd5b9091506020813d602011610b35575b81610b25602093836112b7565b81010312610a705751905f610616565b3d9150610b18565b634e487b7160e01b88526032600452602488fd5b634e487b7160e01b87526032600452602487fd5b6020813d602011610b8c575b81610b7e602093836112b7565b81010312610a7057516105bd565b3d9150610b71565b90506020813d602011610bbe575b81610baf602093836112b7565b81010312610a7057515f61056c565b3d9150610ba2565b81610bd0916112b7565b610bdb57865f61052d565b8680fd5b8780fd5b885162461bcd60e51b815260206004820152600f60248201526e39ba32b1b93b16ba3930b739b332b960891b6044820152606490fd5b610c32915060203d6020116107d3576107c581836112b7565b5f6104fb565b8a513d8b823e3d90fd5b90506020813d602011610c6d575b81610c5d602093836112b7565b81010312610a70575160206104ab565b3d9150610c50565b885162461bcd60e51b815260206004820152600f60248201526e3bb9ba32ba3416ba3930b739b332b960891b6044820152606490fd5b610cc4915060203d6020116107d3576107c581836112b7565b5f610468565b90506020813d602011610cf5575b81610ce5602093836112b7565b81010312610a7057516020610418565b3d9150610cd8565b885162461bcd60e51b815260206004820152600d60248201526c3bb2ba3416ba3930b739b332b960991b6044820152606490fd5b610d4a915060203d6020116107d3576107c581836112b7565b5f6103d5565b90506020813d602011610d7b575b81610d6b602093836112b7565b81010312610a705751602061038c565b3d9150610d5e565b88513d89823e3d90fd5b634e487b7160e01b8a52604160045260248afd5b610db99060203d602011610aee57610adf81836112b7565b505f6102ef565b60208060019285518152019301910190916102a3565b81610de0916112b7565b610deb57855f610268565b8580fd5b6040513d89823e3d90fd5b60405162461bcd60e51b81526020600482015260086024820152676e6f742d6161766560c01b6044820152606490fd5b8480fd5b8280fd5b5080fd5b50346101315780600319360112610131576020600354604051908152f35b503461013157806003193601126101315760209054604051908152f35b503461013157806003193601126101315760045460405160109190911c6001600160a01b03168152602090f35b503461013157806003193601126101315760206040515f516020612dff5f395f51905f528152f35b5034610131578060031936011261013157602060ff600454166040519015158152f35b5034610a70575f366003190112610a705760045460ff8160081c166112165761ff00191661010017600455604051610f226060826112b7565b6002815260208101604080368337737f39c581f595b53c5cb19bd0b3f8da6c935e2ca0610f4e846112d9565b525f516020612dff5f395f51905f52610f66846112fa565b5260405190610f766060836112b7565b6002825280366020840137690a968163f0a57b400000610f95836112d9565b52690cb49b44ba602d800000610faa836112fa565b5260405190610fba6060836112b7565b600282523660208301375f610fce826112d9565b525f610fd9826112fa565b5260405192602084019284841067ffffffffffffffff85111761120257836040525f85527387870bca3f3fd6335c3f4ce8392d69350b4fa4e23b15610a705760405163ab9c4b5d60e01b815230600482015260e06024820152955160e4870181905286949392610104860192915f5b8181106111e0575050509261108485936110725f989460209760031988830301604489015261130a565b8581036003190160648701529061130a565b913060848501526003198484030160a48501525180918184528584015e858482840101528560c4840152601f801991011601030181837387870bca3f3fd6335c3f4ce8392d69350b4fa4e25af180156111d5576111c2575b504761115d575b6040516370a0823160e01b81523060048201526020816024815f516020612dff5f395f51905f525afa908115611152578291611120575b50815580f35b90506020813d60201161114a575b8161113b602093836112b7565b81010312610a7057515f61111a565b3d915061112e565b6040513d84823e3d90fd5b80475f516020612dff5f395f51905f523b156111bf578160049160405192838092630d0e30db60e41b82525f516020612dff5f395f51905f525af18015611152576111aa575b50506110e3565b816111b4916112b7565b61013157805f6111a3565b50fd5b6111ce91505f906112b7565b5f5f6110dc565b6040513d5f823e3d90fd5b82516001600160a01b0316855289975060209485019490920191600101611048565b634e487b7160e01b5f52604160045260245ffd5b60405162461bcd60e51b8152602060048201526011602482015270185b1c9958591e4b585d1d195b5c1d1959607a1b6044820152606490fd5b34610a70575f366003190112610a70576020600154604051908152f35b34610a70575f366003190112610a70576020906002548152f35b9181601f84011215610a705782359167ffffffffffffffff8311610a70576020808501948460051b010111610a7057565b90601f8019910116810190811067ffffffffffffffff82111761120257604052565b8051156112e65760200190565b634e487b7160e01b5f52603260045260245ffd5b8051600110156112e65760400190565b90602080835192838152019201905f5b8181106113275750505090565b825184526020938401939092019160010161131a565b90816020910312610a70575190565b90816020910312610a7057518015158103610a705790565b9190820180921161137157565b634e487b7160e01b5f52601160045260245ffd5b356001600160a01b0381168103610a70579056fe60a034606657601f611a6538819003918201601f19168301916001600160401b03831184841017606a57808492602094604052833981010312606657516001600160a01b03811681036066576080526040516119e6908161007f8239608051816101830152f35b5f80fd5b634e487b7160e01b5f52604160045260245ffdfe608080604052600436101561015a575b50361561001a575f80fd5b5f5460ff81168061014c575b61002c57005b61ff001916610100175f5560405163b3596f0760e01b81527310aa9eea35a3102cc47d4d93bc0ba9ae45557746600482015260208160248173e5d78eb340627b8d5bcff63590ebec1ef9118c895afa90811561010b575f9161011a575b50600255739f72dc67cec672bb99e3d02cbea0a21536a2b6573b1561011657604051635a3b74b960e01b815273901247d08bebfd449526da92941b35d756873bcd60048201525f602482018190528160448183739f72dc67cec672bb99e3d02cbea0a21536a2b6575af1801561010b576100ff57005b5f61010991611698565b005b6040513d5f823e3d90fd5b5f80fd5b90506020813d602011610144575b8161013560209383611698565b8101031261011657515f610089565b3d9150610128565b5060ff8160081c1615610026565b5f905f3560e01c63637d242114610171575061000f565b34610116575f366003190112610116577f0000000000000000000000000000000000000000000000000000000000000000906001600160a01b0382169033829003611639575060405163038fff2d60e41b81526020816004815f5160206119715f395f51905f525afa90811561010b575f91611607575b506101f1611851565b506040519061030160606102058185611698565b600284525f601f1982019485366020830137690a968163f0a57b40000061022b82611875565b52690c11f9e7b10e91a0000061024082611896565b526040519061024f8483611698565b6002825286366020840137737f39c581f595b53c5cb19bd0b3f8da6c935e2ca061027883611875565b525f5160206119515f395f51905f5261029083611896565b5260405190600160208301528460408301526102c6826102b36080820184611760565b868883015203601f198101845283611698565b604051926102d384611668565b835260208301526040820152818382015260405180948192639ebbf05d60e01b835230308960048601611793565b03818373e39b5e3b6d74016b2f6a9673d7d7493b6df549d55af191821561010b575f926115ea575b5060405163095ea7b360e01b81525f5160206119915f395f51905f526004820152690a968163f0a57b40000060248201526020816044815f737f39c581f595b53c5cb19bd0b3f8da6c935e2ca05af190811561010b575f916115cb575b50156115905760405163095ea7b360e01b81525f5160206119915f395f51905f526004820152690c11f9e7b10e91a0000060248201526020816044815f5f5160206119515f395f51905f525af190811561010b575f91611571575b5015611538575f916103f1611851565b506040516103ff8382611698565b6002815285366020830137690a968163f0a57b40000061041e82611875565b52690c11f9e7b10e91a0000061043382611896565b52604051956104428488611698565b60028752366020880137737f39c581f595b53c5cb19bd0b3f8da6c935e2ca061046a87611875565b525f5160206119515f395f51905f5261048287611896565b526104b86040518093600160208301528560408301526104a56080830185611760565b908683015203601f198101845283611698565b604051956104c587611668565b8652602086015260408501528301525f5160206119915f395f51905f523b156101165760405163172b958560e31b8152915f918391829161050e91903090819060048601611793565b0381835f5160206119915f395f51905f525af1801561010b57611523575b5060405163095ea7b360e01b815273a36be47700c079bd94adc09f35b0fa93a55297bc6004820152683635c9adc5dea000006024820152602081604481877306325440d014e39736583c165c2963ba99faf14e5af190811561121d578491611504575b50156114c85773a36be47700c079bd94adc09f35b0fa93a55297bc3b156110ff5760405163259f2d0160e01b81527306325440d014e39736583c165c2963ba99faf14e6004820152683635c9adc5dea000006024820152306044820152839081816064818373a36be47700c079bd94adc09f35b0fa93a55297bc5af18015610f28576114b3575b505060405163095ea7b360e01b8152736ae5fd07c0bb2264b1f60b33f65920a2b912151c6004820152680ca65d6137250f3c136024820152602081604481875f5160206119715f395f51905f525af190811561121d578491611494575b501561145b57736ae5fd07c0bb2264b1f60b33f65920a2b912151c3b156110ff5760405163259f2d0160e01b81525f5160206119715f395f51905f526004820152680ca65d6137250f3c1360248201523060448201528390818160648183736ae5fd07c0bb2264b1f60b33f65920a2b912151c5af18015610f2857611446575b5050739f72dc67cec672bb99e3d02cbea0a21536a2b6573b156110ff578260405163a415bcad60e01b81525f5160206119515f395f51905f526004820152681bd4670912eb21842a602482015260026044820152816064820152306084820152818160a48183739f72dc67cec672bb99e3d02cbea0a21536a2b6575af18015610f2857611431575b505060405163038fff2d60e41b81526020816004815f5160206119715f395f51905f525afa90811561121d5784916113ff575b506040516370a0823160e01b81523060048201526020816024815f5160206119715f395f51905f525afa9081156111de5785916113cd575b506107f0816118a6565b906040516331ecb14b60e21b81528681806108118630308a60048601611793565b03818373e39b5e3b6d74016b2f6a9673d7d7493b6df549d55af180156111a1576113b4575b5060405163095ea7b360e01b81525f5160206119915f395f51905f5260048201526024810191909152602081604481895f5160206119715f395f51905f525af1908115611175578691611395575b501561135d5760405163b3596f0760e01b81527310aa9eea35a3102cc47d4d93bc0ba9ae45557746600482015285929060208160248173e5d78eb340627b8d5bcff63590ebec1ef9118c895afa90811561121d578491611328575b50600155600160ff198454161783555f5160206119915f395f51905f523b156110ff57604051638bdb391360e01b81529183918391829161092891903090819060048601611793565b0381835f5160206119915f395f51905f525af18015610f2857611313575b5050825460ff1916835560405163b3596f0760e01b81527310aa9eea35a3102cc47d4d93bc0ba9ae45557746600482015260208160248173e5d78eb340627b8d5bcff63590ebec1ef9118c895afa90811561121d5784916112e1575b5060035573a36be47700c079bd94adc09f35b0fa93a55297bc3b156110ff5760405163a5fdfc6360e01b81527306325440d014e39736583c165c2963ba99faf14e6004820152683635c9adc5dea000006024820152600a6044820152306064820152839081816084818373a36be47700c079bd94adc09f35b0fa93a55297bc5af18015610f28576112cc575b5050604051632fe4a15f60e21b815230600482015260c081602481739f72dc67cec672bb99e3d02cbea0a21536a2b6575afa90811561121d578491611297575b5060405163095ea7b360e01b8152739f72dc67cec672bb99e3d02cbea0a21536a2b657600482015260248101829052602081604481885f5160206119515f395f51905f525af19081156111de578591611278575b501561123d578390739f72dc67cec672bb99e3d02cbea0a21536a2b6573b15611093576040519062a718a960e01b82525f5160206119715f395f51905f5260048301525f5160206119515f395f51905f5260248301523060448301526064820152816084820152818160a48183739f72dc67cec672bb99e3d02cbea0a21536a2b6575af18015610f2857611228575b505060405163038fff2d60e41b8152906020826004815f5160206119715f395f51905f525afa91821561121d5784926111e9575b506040516370a0823160e01b81523060048201526020816024815f5160206119715f395f51905f525afa9081156111de5785916111ac575b50610bc7816118a6565b906040516331ecb14b60e21b8152868180610be88630308b60048601611793565b03818373e39b5e3b6d74016b2f6a9673d7d7493b6df549d55af180156111a157611180575b5060405163095ea7b360e01b81525f5160206119915f395f51905f5260048201526024810191909152602081604481895f5160206119715f395f51905f525af1908115611175578691611156575b501561111c5784925f5160206119915f395f51905f523b1561111857604051638bdb391360e01b815291849183918291610c9d91903090819060048601611793565b0381835f5160206119915f395f51905f525af1908115610f67578391611103575b50504761109b575b60015460025460035492803b15611097578492836064926040519687958694635ed0689b60e11b86526004860152602485015260448401525af18015610f285761107e575b50506040516370a0823160e01b8152306004820152602081602481737f39c581f595b53c5cb19bd0b3f8da6c935e2ca05afa908115610f6757839161104b575b5060405163a9059cbb60e01b81526001600160a01b0383166004820152602481019190915260208160448186737f39c581f595b53c5cb19bd0b3f8da6c935e2ca05af1908115610f6757839161102c575b5015610ff7576040516370a0823160e01b81523060048201526020816024815f5160206119515f395f51905f525afa908115610f67578391610fc4575b5060405163a9059cbb60e01b81526001600160a01b03831660048201526024810191909152602081604481865f5160206119515f395f51905f525af1908115610f67578391610fa5575b5015610f72576040516370a0823160e01b81523060048201526020816024817306325440d014e39736583c165c2963ba99faf14e5afa908115610f67578391610f33575b5060405163a9059cbb60e01b81526001600160a01b039092166004830152602482015260208180604481015b0381857306325440d014e39736583c165c2963ba99faf14e5af1908115610f28578291610ef9575b5015610ec45780f35b60405162461bcd60e51b815260206004820152600d60248201526c3932ba3ab93716b9ba32b1b93b60991b6044820152606490fd5b610f1b915060203d602011610f21575b610f138183611698565b8101906116ba565b5f610ebb565b503d610f09565b6040513d84823e3d90fd5b90506020813d602011610f5f575b81610f4e60209383611698565b810103126101165751610e93610e67565b3d9150610f41565b6040513d85823e3d90fd5b60405162461bcd60e51b815260206004820152600b60248201526a0e4cae8eae4dc5aeecae8d60ab1b6044820152606490fd5b610fbe915060203d602011610f2157610f138183611698565b5f610e23565b90506020813d602011610fef575b81610fdf60209383611698565b8101031261011657516020610dd9565b3d9150610fd2565b60405162461bcd60e51b815260206004820152600d60248201526c0e4cae8eae4dc5aeee6e8cae8d609b1b6044820152606490fd5b611045915060203d602011610f2157610f138183611698565b5f610d9c565b90506020813d602011611076575b8161106660209383611698565b8101031261011657516020610d4b565b3d9150611059565b8161108891611698565b61109357815f610d0b565b5080fd5b8480fd5b475f5160206119515f395f51905f523b156110ff578260049160405192838092630d0e30db60e41b82525f5160206119515f395f51905f525af1908115610f675783916110ea575b5050610cc6565b816110f491611698565b61109357815f6110e3565b8280fd5b8161110d91611698565b61109357815f610cbe565b8380fd5b60405162461bcd60e51b8152602060048201526012602482015271185c1c1c9bdd994b599a5b985b0b595e1a5d60721b6044820152606490fd5b61116f915060203d602011610f2157610f138183611698565b5f610c5b565b6040513d88823e3d90fd5b61119b903d8089833e6111938183611698565b8101906116d2565b50610c0d565b6040513d89823e3d90fd5b90506020813d6020116111d6575b816111c760209383611698565b8101031261011657515f610bbd565b3d91506111ba565b6040513d87823e3d90fd5b9091506020813d602011611215575b8161120560209383611698565b810103126101165751905f610b85565b3d91506111f8565b6040513d86823e3d90fd5b8161123291611698565b6110ff57825f610b51565b60405162461bcd60e51b815260206004820152601360248201527230b8383937bb3296b634b8bab4b230ba34b7b760691b6044820152606490fd5b611291915060203d602011610f2157610f138183611698565b5f610ac2565b905060c0813d60c0116112c4575b816112b260c09383611698565b8101031261111857602001515f610a6e565b3d91506112a5565b816112d691611698565b6110ff57825f610a2e565b90506020813d60201161130b575b816112fc60209383611698565b8101031261011657515f6109a2565b3d91506112ef565b8161131d91611698565b6110ff57825f610946565b9350506020833d602011611355575b8161134460209383611698565b81010312610116578592515f6108df565b3d9150611337565b60405162461bcd60e51b815260206004820152601060248201526f185c1c1c9bdd994b595e1a5d0b589c1d60821b6044820152606490fd5b6113ae915060203d602011610f2157610f138183611698565b5f610884565b6113c7903d8089833e6111938183611698565b50610836565b90506020813d6020116113f7575b816113e860209383611698565b8101031261011657515f6107e6565b3d91506113db565b90506020813d602011611429575b8161141a60209383611698565b8101031261011657515f6107ae565b3d915061140d565b8161143b91611698565b6110ff57825f61077b565b8161145091611698565b6110ff57825f6106f3565b60405162461bcd60e51b8152602060048201526011602482015270185c1c1c9bdd994b589c1d0b5d985d5b1d607a1b6044820152606490fd5b6114ad915060203d602011610f2157610f138183611698565b5f610673565b816114bd91611698565b6110ff57825f610616565b60405162461bcd60e51b8152602060048201526014602482015273185c1c1c9bdd994b5cdd1958dc9d8b5d985d5b1d60621b6044820152606490fd5b61151d915060203d602011610f2157610f138183611698565b5f61058f565b6115309193505f90611698565b5f915f61052c565b60405162461bcd60e51b81526020600482015260116024820152700c2e0e0e4deecca5ad4ded2dc5aeecae8d607b1b6044820152606490fd5b61158a915060203d602011610f2157610f138183611698565b5f6103e1565b60405162461bcd60e51b81526020600482015260136024820152720c2e0e0e4deecca5ad4ded2dc5aeee6e8cae8d606b1b6044820152606490fd5b6115e4915060203d602011610f2157610f138183611698565b5f610386565b6115ff9192503d805f833e6111938183611698565b50905f610329565b90506020813d602011611631575b8161162260209383611698565b8101031261011657515f6101e8565b3d9150611615565b62461bcd60e51b815260206004820152600a60248201526937b7363c96b7bbb732b960b11b6044820152606490fd5b6080810190811067ffffffffffffffff82111761168457604052565b634e487b7160e01b5f52604160045260245ffd5b90601f8019910116810190811067ffffffffffffffff82111761168457604052565b90816020910312610116575180151581036101165790565b91906040838203126101165782519260208101519067ffffffffffffffff821161011657019080601f830112156101165781519167ffffffffffffffff8311611684578260051b90602082019361172c6040519586611698565b845260208085019282010192831161011657602001905b8282106117505750505090565b8151815260209182019101611743565b90602080835192838152019201905f5b81811061177d5750505090565b8251845260209384019390920191600101611770565b9160809391835260018060a01b0316602083015260018060a01b031660408201528160608201520160808101825190608083528151809152602060a084019201905f5b8181106118325750505082916060806117fd60209694878096015185820387870152611760565b94604081015184870360408601528051958691828952018888015e5f86860188015201511515910152601f01601f1916010190565b82516001600160a01b03168452602093840193909201916001016117d6565b6040519061185e82611668565b5f6060838181528160208201528160408201520152565b8051156118825760200190565b634e487b7160e01b5f52603260045260245ffd5b8051600110156118825760400190565b6118ae611851565b505f6060604051926118c08285611698565b60028452601f1982019384366020830137604051946118df8487611698565b60028652366020870137737f39c581f595b53c5cb19bd0b3f8da6c935e2ca061190786611875565b528361191286611896565b5260405191600160208401526040830152604082526119318383611698565b6040519461193e86611668565b8552602085015260408401528201529056fe000000000000000000000000c02aaa39b223fe8d0a0e5c4f27ead9083c756cc200000000000000000000000032296969ef14eb0c6d29669c550d4a0449130230000000000000000000000000ba12222222228d8ba445958a75a0704d566bf2c8a26469706673582212208ddde11db3287e130bbb5cdca0a11845310775bbc89a11627bd78cfd5f641d1364736f6c634300081e0033000000000000000000000000c02aaa39b223fe8d0a0e5c4f27ead9083c756cc2a2646970667358221220e59a9eaf038b6634761bc7f779a6c460116becb26cfc146b259d3dac49484a9664736f6c634300081e0033","linkReferences":{}},"methodIdentifiers":{"activeLeg()":"5c875ac2","executeOnOpportunity()":"3c2448ed","executeOperation(address[],uint256[],uint256[],address,bytes)":"920f5c84","hypothesisValidated()":"463defd1","notifyPrices(uint256,uint256,uint256)":"bda0d136","oraclePriceAfterExit()":"7ef43d76","oraclePriceBeforeExit()":"1f149c7c","oraclePriceDuringCallback()":"1a1ea498","profitAmount()":"5ff972cc","profitToken()":"49343624"},"id":0}