{"abi":[{"type":"constructor","inputs":[],"stateMutability":"nonpayable"},{"type":"function","name":"TARGET_PAIR","inputs":[],"outputs":[{"name":"","type":"address","internalType":"address"}],"stateMutability":"view"},{"type":"function","name":"attackerHonestAfter","inputs":[],"outputs":[{"name":"","type":"uint256","internalType":"uint256"}],"stateMutability":"view"},{"type":"function","name":"attackerHonestBefore","inputs":[],"outputs":[{"name":"","type":"uint256","internalType":"uint256"}],"stateMutability":"view"},{"type":"function","name":"callbackCount","inputs":[],"outputs":[{"name":"","type":"uint256","internalType":"uint256"}],"stateMutability":"view"},{"type":"function","name":"executeOnOpportunity","inputs":[],"outputs":[],"stateMutability":"nonpayable"},{"type":"function","name":"executed","inputs":[],"outputs":[{"name":"","type":"bool","internalType":"bool"}],"stateMutability":"view"},{"type":"function","name":"finalAttemptedAmount0Out","inputs":[],"outputs":[{"name":"","type":"uint256","internalType":"uint256"}],"stateMutability":"view"},{"type":"function","name":"honestToken","inputs":[],"outputs":[{"name":"","type":"address","internalType":"address"}],"stateMutability":"view"},{"type":"function","name":"hypothesisRefuted","inputs":[],"outputs":[{"name":"","type":"bool","internalType":"bool"}],"stateMutability":"view"},{"type":"function","name":"hypothesisValidated","inputs":[],"outputs":[{"name":"","type":"bool","internalType":"bool"}],"stateMutability":"view"},{"type":"function","name":"lastFailureReason","inputs":[],"outputs":[{"name":"","type":"string","internalType":"string"}],"stateMutability":"view"},{"type":"function","name":"lastObservedMaliciousPairBalance","inputs":[],"outputs":[{"name":"","type":"uint256","internalType":"uint256"}],"stateMutability":"view"},{"type":"function","name":"lastQuotedFakeAmountIn","inputs":[],"outputs":[{"name":"","type":"uint256","internalType":"uint256"}],"stateMutability":"view"},{"type":"function","name":"maliciousToken","inputs":[],"outputs":[{"name":"","type":"address","internalType":"address"}],"stateMutability":"view"},{"type":"function","name":"profitAmount","inputs":[],"outputs":[{"name":"","type":"uint256","internalType":"uint256"}],"stateMutability":"view"},{"type":"function","name":"profitToken","inputs":[],"outputs":[{"name":"","type":"address","internalType":"address"}],"stateMutability":"view"},{"type":"function","name":"reserve0After","inputs":[],"outputs":[{"name":"","type":"uint112","internalType":"uint112"}],"stateMutability":"view"},{"type":"function","name":"reserve0Before","inputs":[],"outputs":[{"name":"","type":"uint112","internalType":"uint112"}],"stateMutability":"view"},{"type":"function","name":"reserve1After","inputs":[],"outputs":[{"name":"","type":"uint112","internalType":"uint112"}],"stateMutability":"view"},{"type":"function","name":"reserve1Before","inputs":[],"outputs":[{"name":"","type":"uint112","internalType":"uint112"}],"stateMutability":"view"},{"type":"function","name":"successfulAttempts","inputs":[],"outputs":[{"name":"","type":"uint256","internalType":"uint256"}],"stateMutability":"view"},{"type":"function","name":"successfulRounds","inputs":[],"outputs":[{"name":"","type":"uint256","internalType":"uint256"}],"stateMutability":"view"},{"type":"function","name":"token0","inputs":[],"outputs":[{"name":"","type":"address","internalType":"address"}],"stateMutability":"view"},{"type":"function","name":"token1","inputs":[],"outputs":[{"name":"","type":"address","internalType":"address"}],"stateMutability":"view"},{"type":"function","name":"triggerAttempts","inputs":[],"outputs":[{"name":"","type":"uint256","internalType":"uint256"}],"stateMutability":"view"},{"type":"function","name":"uniswapV2Call","inputs":[{"name":"","type":"address","internalType":"address"},{"name":"","type":"uint256","internalType":"uint256"},{"name":"","type":"uint256","internalType":"uint256"},{"name":"data","type":"bytes","internalType":"bytes"}],"outputs":[],"stateMutability":"nonpayable"}],"bytecode":{"object":"0x6080806040523460155761188c908161001a8239f35b5f80fdfe6080806040526004361015610012575f80fd5b5f3560e01c9081630958424314610a62575080630dfe168114610a3657806310d1e85c146109ca578063125a1426146109a157806318f4afa1146109845780631d04592f1461096757806331a38c89146109455780633c2448ed146103ab5780633d33a5991461038e578063416eb8ee1461037157806345ed2b8914610349578063463defd11461032457806348f3ac751461030757806349343624146102e0578063495f92f1146102bb57806352ed759d1461029e5780635ff972cc1461028157806364f3e008146102645780637e68c85d1461023b578063ac7ab8d214610214578063c92c4752146101ec578063d21220a7146101c4578063dd6c9441146101a7578063ea486b4d1461018a578063ed7a139f146101645763f8fa884b1461013a575f80fd5b34610160575f3660031901126101605760206001600160701b0360075416604051908152f35b5f80fd5b34610160575f3660031901126101605760206001600160701b0360065416604051908152f35b34610160575f366003190112610160576020600c54604051908152f35b34610160575f366003190112610160576020600f54604051908152f35b34610160575f366003190112610160576003546040516001600160a01b039091168152602090f35b34610160575f366003190112610160576004546040516001600160a01b039091168152602090f35b34610160575f3660031901126101605760206040515f5160206118175f395f51905f528152f35b34610160575f3660031901126101605760206001600160701b0360065460701c16604051908152f35b34610160575f366003190112610160576020601054604051908152f35b34610160575f366003190112610160576020600154604051908152f35b34610160575f366003190112610160576020600e54604051908152f35b34610160575f36600319011261016057602060ff60025460101c166040519015158152f35b34610160575f366003190112610160575f546040516001600160a01b039091168152602090f35b34610160575f366003190112610160576020600a54604051908152f35b34610160575f36600319011261016057602060ff60025460081c166040519015158152f35b34610160575f366003190112610160576005546040516001600160a01b039091168152602090f35b34610160575f366003190112610160576020600b54604051908152f35b34610160575f366003190112610160576020600854604051908152f35b34610160575f3660031901126101605768ffffffffffffffffff60b81b600254166002556001600160601b0360a01b600354166003556001600160601b0360a01b600454166004556001600160601b0360a01b6005541660055563ffffffff60e01b6006541660065563ffffffff60e01b600754166007555f6008555f6009555f600a555f600b555f600c555f600d555f600e555f600f555f601055610452601154610b2e565b601f811161091a575b505f6011556001600160601b0360a01b5f54165f555f600155600254600160ff1982161760025560405190630dfe168160e01b82526020826004815f5160206118175f395f51905f525afa8015610826576001925f916108fb575b5063010000008360b81b039060181b169062ffff018360b81b03191617178060025560405163d21220a760e01b81526020816004815f5160206118175f395f51905f525afa908115610826575f916108cc575b50600380546001600160a01b0319166001600160a01b03929092169182179055604051630240bc6b60e21b81526060816004815f5160206118175f395f51905f525afa928315610826576105d5936105cd925f905f926108a9575b506001600160701b036006549116916001600160701b0360701b9060701b169063ffffffff60e01b16171760065560018060a01b039060181c16806001600160601b0360a01b6004541617600455826001600160601b0360a01b6005541617600555309061108a565b600855611007565b600f556105e06110d2565b6001541561083e575b60015415610831575b604051630240bc6b60e21b81526060816004815f5160206118175f395f51905f525afa908115610826575f905f926107f3575b506001600160701b036007549116916001600160701b0360701b9060701b169063ffffffff60e01b1617176007556106673060018060a01b036004541661108a565b6009819055600554610681906001600160a01b0316611007565b600f5560085410156106cc5760018060a01b03600454166001600160601b0360a01b5f5416175f556106b860095460085490610c17565b6001556002805461ff001916610100179055005b6201000062ff00001960025416176002556011546106e981610b2e565b156106f1575b005b6106fa90610b2e565b601f81116107aa575b50608d6011557f4e6f20686f6e6573742d73696465207a65726f2d696e707574207769746864725f5160206118375f395f51905f52557f6177616c207969656c6465642070726f666974206174207468697320666f726b7f31ecc21a745e3968a04e9570e4425bc18fa8019c68028196b546d1669c200c69556520626c6f636b60d01b7f31ecc21a745e3968a04e9570e4425bc18fa8019c68028196b546d1669c200c6a55005b60115f526107ed90601f0160051c5f5160206118375f395f51905f52017f31ecc21a745e3968a04e9570e4425bc18fa8019c68028196b546d1669c200c6b610d41565b80610703565b9050610817915060603d60601161081f575b61080f8183610b66565b810190610be1565b509082610625565b503d610805565b6040513d5f823e3d90fd5b6108396110d2565b6105f2565b610846610de4565b5f5b60048110610857575b506105e9565b610861600161111a565b9081156108a357600a546001810180911161088f5760019261088791600a558354610bc0565b825501610848565b634e487b7160e01b5f52601160045260245ffd5b50610851565b90506108c4915060603d60601161081f5761080f8183610b66565b509086610564565b6108ee915060203d6020116108f4575b6108e68183610b66565b810190610d22565b82610509565b503d6108dc565b610914915060203d6020116108f4576108e68183610b66565b836104b6565b60115f5261093f90601f0160051c5f5160206118375f395f51905f5290810190610d41565b8061045b565b34610160575f36600319011261016057602060ff600254166040519015158152f35b34610160575f366003190112610160576020600d54604051908152f35b34610160575f366003190112610160576020600954604051908152f35b34610160575f3660031901126101605760206001600160701b0360075460701c16604051908152f35b34610160576080366003190112610160576004356001600160a01b038116036101605760643567ffffffffffffffff8111610160573660238201121561016057806004013567ffffffffffffffff81116101605736602482840101116101605760246106ef9201610c24565b34610160575f3660031901126101605760025460405160189190911c6001600160a01b03168152602090f35b34610160575f366003190112610160575f601154610a7f81610b2e565b8084529060018116908115610b0a5750600114610abf575b610abb83610aa781850382610b66565b604051918291602083526020830190610b9c565b0390f35b91905060115f525f5160206118375f395f51905f52915f905b808210610af057509091508101602001610aa7610a97565b919260018160209254838588010152019101909291610ad8565b60ff191660208086019190915291151560051b84019091019150610aa79050610a97565b90600182811c92168015610b5c575b6020831014610b4857565b634e487b7160e01b5f52602260045260245ffd5b91607f1691610b3d565b90601f8019910116810190811067ffffffffffffffff821117610b8857604052565b634e487b7160e01b5f52604160045260245ffd5b805180835260209291819084018484015e5f828201840152601f01601f1916010190565b9190820180921161088f57565b51906001600160701b038216820361016057565b9081606091031261016057610bf581610bcd565b916040610c0460208401610bcd565b92015163ffffffff811681036101605790565b9190820391821161088f57565b505f5160206118175f395f51905f523303610ce95715610ce757600d546001810180911161088f57600d55610c57610de4565b600554610c6c906001600160a01b0316611007565b600f819055604051630240bc6b60e21b81526060816004815f5160206118175f395f51905f525afa8015610826576001600160701b03915f91610cc5575b5016808211610cb7575050565b610cc091610c17565b601055565b610cde915060603d60601161081f5761080f8183610b66565b5090505f610caa565b565b60405162461bcd60e51b81526020600482015260116024820152703ab732bc3832b1ba32b21031b0b63632b960791b6044820152606490fd5b9081602091031261016057516001600160a01b03811681036101605790565b818110610d4c575050565b5f8155600101610d41565b601f8111610d625750565b60115f52610ce790601f0160051c5f5160206118375f395f51905f52017f31ecc21a745e3968a04e9570e4425bc18fa8019c68028196b546d1669c200c6b610d41565b3d15610ddf573d9067ffffffffffffffff8211610b885760405191610dd4601f8201601f191660200184610b66565b82523d5f602084013e565b606090565b60405190610100820182811067ffffffffffffffff821117610b885760405260405163a9059cbb60e01b60208201525f5160206118175f395f51905f5260248201525f604482015260448152610e3b606482610b66565b825260405163a9059cbb60e01b60208201523060248201525f604482015260448152610e68606482610b66565b602083015260405163095ea7b360e01b60208201525f5160206118175f395f51905f5260248201525f604482015260448152610ea5606482610b66565b604083015260405163095ea7b360e01b60208201523060248201525f604482015260448152610ed5606482610b66565b60608301526040516323b872dd60e01b60208201523060248201525f5160206118175f395f51905f5260448201525f606482015260648152610f18608482610b66565b60808301526040516323b872dd60e01b60208201523060248201523060448201525f606482015260648152610f4e608482610b66565b60a08301526040516370a0823160e01b60208201525f5160206118175f395f51905f52602482015260248152610f85604482610b66565b60c08301526040516370a0823160e01b602082015230602482015260248152610faf604482610b66565b60e08301525f5b600881101561100257600c54906001820180921161088f57600191600c555f80838060a01b03600554168360051b8701519082602083519301915af150610ffb610da5565b5001610fb6565b509050565b6001600160a01b0381161561107a575f809160405160208101906370a0823160e01b82525f5160206118175f395f51905f5260248201526024815261104d604482610b66565b51915afa611059610da5565b9015801561107f575b61107a57602081805181010312610160576020015190565b505f90565b506020815110611062565b906001600160a01b038216156110cc575f91829160405160208101916370a0823160e01b835260018060a01b031660248201526024815261104d604482610b66565b50505f90565b5f5b600481106110df5750565b6110e85f61111a565b90811561111657600a546001810180911161088f5760019261110e91600a558354610bc0565b8255016110d4565b5050565b604051630240bc6b60e21b81526060816004815f5160206118175f395f51905f525afa908115610826575f905f926115de575b506001600160701b03809116911691600182118015906115d6575b61151c576004546111839030906001600160a01b031661108a565b9160405193610200850185811067ffffffffffffffff821117610b88576040526040855260306020860152602860408601526020606086015260606080860152608060a0860152601860c0860152601460e08601526010610100860152600c610120860152600a6101408601526008610160860152600661018086015260046101a086015260036101c086015260026101e08601525f5b6010811015611446578060051b8601518015611432578490840480158015611428575b61141e57600e819055600554611280929190611261906001600160a01b0316611007565b80600f55858082115f146114135761127891610c17565b601055611684565b906112953060018060a01b036004541661108a565b878082111561140b576112a791610c17565b806113ee575015806113e4575b6112c4575b506001905b0161121a565b80519067ffffffffffffffff8211610b88576112e1601154610b2e565b601f811161139e575b50602090601f831160011461132b5760019392915f9183611320575b50505f19600383901b1c191690831b176011555b906112b9565b015190505f80611306565b90601f1983169160115f525f5160206118375f395f51905f52925f5b818110611386575091600195949291838795931061136e575b505050811b0160115561131a565b01515f1960f88460031b161c191690555f8080611360565b92936020600181928786015181550195019301611347565b60115f526113d4905f5160206118375f395f51905f52601f850160051c810191602086106113da575b601f0160051c0190610d41565b5f6112ea565b90915081906113c7565b50805115156112b4565b975050505050505050600b546001810180911161088f57600b5590565b50505f6112a7565b50505f601055611684565b50506001906112be565b508481101561123d565b634e487b7160e01b5f52601260045260245ffd5b50505050505060115461145881610b2e565b1561146257505f90565b61146e61147391610b2e565b610d57565b608760115560115f527f416c6c20686f6e6573742d746f6b656e207769746864726177616c20617474655f5160206118375f395f51905f52557f6d707473207265766572746564206f722072657475726e6564206e6f2070726f7f31ecc21a745e3968a04e9570e4425bc18fa8019c68028196b546d1669c200c695562199a5d60ea1b7f31ecc21a745e3968a04e9570e4425bc18fa8019c68028196b546d1669c200c6a555f90565b50505061152d61146e601154610b2e565b608760115560115f527f506169722068617320696e73756666696369656e7420726573657276657320665f5160206118375f395f51905f52557f6f722074686520686f6e6573742d746f6b656e207769746864726177616c20707f31ecc21a745e3968a04e9570e4425bc18fa8019c68028196b546d1669c200c6955620c2e8d60eb1b7f31ecc21a745e3968a04e9570e4425bc18fa8019c68028196b546d1669c200c6a555f90565b508215611168565b6001600160701b0392508291506116039060603d60601161081f5761080f8183610b66565b509290915061114d565b5f60443d10611673576040513d600319016004823e8051913d602484011167ffffffffffffffff84111761167e578282019283519167ffffffffffffffff8311611676573d84016003190185840160200111611676575061167392910160200190610b66565b90565b949350505050565b92915050565b5f91156117ff57604051600160f81b6020820152600181526116a7602182610b66565b905b5f5160206118175f395f51905f523b15610160576116f7915f91604051938492839263022c0d9f60e01b84526004840152846024840152306044840152608060648401526084830190610b9c565b0381835f5160206118175f395f51905f525af190816117ea575b506117d3578060033d116117c3575b806308c379a0146117ab57634e487b7114611762575b90604051611745604082610b66565b600d81526c1cddd85c081c995d995c9d1959609a1b602082015290565b8060233d1161179d575b156117365790604051611780604082610b66565b600d81526c1cddd85c081c185b9a58dad959609a1b602082015290565b5060206004823e600161176c565b506117b461160d565b806117bf5750611736565b9091565b50600481803e805160e01c611720565b604051600192916117e5602083610b66565b815290565b6117f79192505f90610b66565b5f905f611711565b60405161180d602082610b66565b5f8152906116a956fe00000000000000000000000076ea342bc038d665e8a116392c82552d2605eda131ecc21a745e3968a04e9570e4425bc18fa8019c68028196b546d1669c200c68a26469706673582212209f1ea5fc06c78abbabc61923bd3c467a3f7d006403b3208c08396707ff75091064736f6c634300081e0033","linkReferences":{}},"methodIdentifiers":{"TARGET_PAIR()":"ac7ab8d2","attackerHonestAfter()":"18f4afa1","attackerHonestBefore()":"3d33a599","callbackCount()":"1d04592f","executeOnOpportunity()":"3c2448ed","executed()":"31a38c89","finalAttemptedAmount0Out()":"52ed759d","honestToken()":"c92c4752","hypothesisRefuted()":"495f92f1","hypothesisValidated()":"463defd1","lastFailureReason()":"09584243","lastObservedMaliciousPairBalance()":"dd6c9441","lastQuotedFakeAmountIn()":"64f3e008","maliciousToken()":"45ed2b89","profitAmount()":"5ff972cc","profitToken()":"49343624","reserve0After()":"f8fa884b","reserve0Before()":"ed7a139f","reserve1After()":"125a1426","reserve1Before()":"7e68c85d","successfulAttempts()":"416eb8ee","successfulRounds()":"48f3ac75","token0()":"0dfe1681","token1()":"d21220a7","triggerAttempts()":"ea486b4d","uniswapV2Call(address,uint256,uint256,bytes)":"10d1e85c"},"id":0}