{"abi":[{"type":"constructor","inputs":[],"stateMutability":"nonpayable"},{"type":"receive","stateMutability":"payable"},{"type":"function","name":"_attemptPlan","inputs":[{"name":"sourceToken","type":"address","internalType":"address"},{"name":"manipulatedToken","type":"address","internalType":"address"},{"name":"fee","type":"uint24","internalType":"uint24"},{"name":"venue","type":"uint8","internalType":"uint8"},{"name":"loanAmount","type":"uint256","internalType":"uint256"},{"name":"seedEth","type":"uint256","internalType":"uint256"},{"name":"targetSelector","type":"bytes4","internalType":"bytes4"},{"name":"callType","type":"uint8","internalType":"uint8"},{"name":"arg0","type":"uint256","internalType":"uint256"},{"name":"arg1","type":"uint256","internalType":"uint256"}],"outputs":[],"stateMutability":"nonpayable"},{"type":"function","name":"executeOnOpportunity","inputs":[],"outputs":[],"stateMutability":"nonpayable"},{"type":"function","name":"executeOperation","inputs":[{"name":"asset","type":"address","internalType":"address"},{"name":"amount","type":"uint256","internalType":"uint256"},{"name":"premium","type":"uint256","internalType":"uint256"},{"name":"initiator","type":"address","internalType":"address"},{"name":"params","type":"bytes","internalType":"bytes"}],"outputs":[{"name":"","type":"bool","internalType":"bool"}],"stateMutability":"nonpayable"},{"type":"function","name":"profitAmount","inputs":[],"outputs":[{"name":"","type":"uint256","internalType":"uint256"}],"stateMutability":"view"},{"type":"function","name":"profitToken","inputs":[],"outputs":[{"name":"","type":"address","internalType":"address"}],"stateMutability":"view"},{"type":"function","name":"receiveFlashLoan","inputs":[{"name":"tokens","type":"address[]","internalType":"contract IERC20[]"},{"name":"amounts","type":"uint256[]","internalType":"uint256[]"},{"name":"feeAmounts","type":"uint256[]","internalType":"uint256[]"},{"name":"userData","type":"bytes","internalType":"bytes"}],"outputs":[],"stateMutability":"nonpayable"}],"bytecode":{"object":"0x60808060405234601557613073908161001a8239f35b5f80fdfe608080604052600436101561001c575b50361561001a575f80fd5b005b5f905f3560e01c9081631b11d0ff1461072e575080633c2448ed1461071657806349343624146106ef5780635ff972cc146106d2578063b719e364146102625763f04f27070361000f573461025f57608036600319011261025f576004356001600160401b03811161025d573660238201121561025d5780600401356100a181610938565b916100af6040519384610917565b8183526024602084019260051b8201019036821161022d57602401915b818310610239575050506024356001600160401b038111610235576100f590369060040161094f565b6044356001600160401b0381116102315761011490369060040161094f565b906064356001600160401b03811161022d573660238201121561022d576101459036906024816004013591016109c7565b9173ba12222222228d8ba445958a75a0704d566bf2c833036101f9576001845114806101ee575b806101e3575b156101ae576101ab936101a49061019d906001600160a01b039061019590610ea7565b511693610ea7565b5191610ea7565b5191610f07565b80f35b60405162461bcd60e51b815260206004820152600d60248201526c3130b210333630b9b43637b0b760991b6044820152606490fd5b506001815114610172565b50600182511461016c565b60405162461bcd60e51b815260206004820152600c60248201526b3737ba103130b630b731b2b960a11b6044820152606490fd5b8480fd5b8380fd5b8280fd5b82356001600160a01b0381168103610259578152602092830192016100cc565b8580fd5b505b80fd5b503461069d5761014036600319011261069d5761027d610849565b6024356001600160a01b03811692919083900361069d5760443562ffffff811680910361069d5760643560ff811680910361069d576084359260c4359263ffffffff60e01b841680940361069d5760e4359160ff831680930361069d573033036106a15760ff60209347968a89846102f4306128d0565b9962ffffff604051986103068a61085f565b60018060a01b0316998a8a528b8a0195865260408a0190815260608a0192835260808a0194855260a08a019560a435875260c08b0197885260e08b019889526101206101008c019b610104358d52019b610124358d526040519d8e015260018060a01b0390511660408d0152511660608b0152511660808901525160a08801525160c087015263ffffffff60e01b90511660e08601525116610100840152516101208301525161014082015261014081526103c361016082610917565b5f956040948551976103d5878a610917565b60018952601f19870160208a0181368237846103f08c610ea7565b5288516103fd8a82610917565b6001815260208101923684378461041382610ea7565b5273ba12222222228d8ba445958a75a0704d566bf2c83b1561069d578951632e1c224f60e11b8152306004820152608060248201529b5160848d018190528c939260a4850192915f5b81811061067b5750505060209060031985840301604486015251918281520191905f5b8181106106625750505090806104a25f93600319838203016064840152886129d7565b03818373ba12222222228d8ba445958a75a0704d566bf2c85af180610648575b88995097959697610640575b1561059b575b5050506104e0306128d0565b90808211610526575b5050504711156104f7575080f35b5162461bcd60e51b81526020600482015260096024820152681b9bc81c1c9bd99a5d60ba1b6044820152606490fd5b61052f91610a74565b5f51602061301e5f395f51905f523b1561025d57835190632e1a7d4d60e01b825260048201528181602481835f51602061301e5f395f51905f525af180156105915761057c575b806104e9565b8161058691610917565b61023557825f610576565b84513d84823e3d90fd5b7387870bca3f3fd6335c3f4ce8392d69350b4fa4e23b1561022d5784916105ed885194859384936310ac2ddf60e21b85523060048601526024850152604484015260a0606484015260a48301906129d7565b8360848301520381837387870bca3f3fd6335c3f4ce8392d69350b4fa4e25af1908115610636578391610621575b806104d4565b8161062b91610917565b61025d57815f61061b565b85513d85823e3d90fd5b5060016104ce565b95969750975f61065791610917565b5f96959488906104c2565b825184528d94506020938401939092019160010161047f565b82516001600160a01b031685528f96506020948501949092019160010161045c565b5f80fd5b60405162461bcd60e51b815260206004820152600960248201526873656c66206f6e6c7960b81b6044820152606490fd5b3461069d575f36600319011261069d576020600154604051908152f35b3461069d575f36600319011261069d575f546040516001600160a01b039091168152602090f35b3461069d575f36600319011261069d5761001a610a95565b3461069d5760a036600319011261069d57610747610849565b6064356001600160a01b038116929083900361069d57608435926001600160401b03841161069d573660238501121561069d578360040135916001600160401b03831161069d57366024848701011161069d577387870bca3f3fd6335c3f4ce8392d69350b4fa4e2330361081c575030036107e7576107dc926107ce9160243692016109c7565b906044359060243590610f07565b602060405160018152f35b60405162461bcd60e51b815260206004820152600d60248201526c3130b21034b734ba34b0ba37b960991b6044820152606490fd5b62461bcd60e51b81526020600482015260086024820152676e6f74206161766560c01b6044820152606490fd5b600435906001600160a01b038216820361069d57565b61014081019081106001600160401b0382111761087b57604052565b634e487b7160e01b5f52604160045260245ffd5b60c081019081106001600160401b0382111761087b57604052565b61010081019081106001600160401b0382111761087b57604052565b608081019081106001600160401b0382111761087b57604052565b60a081019081106001600160401b0382111761087b57604052565b604081019081106001600160401b0382111761087b57604052565b90601f801991011681019081106001600160401b0382111761087b57604052565b6001600160401b03811161087b5760051b60200190565b9080601f8301121561069d57813561096681610938565b926109746040519485610917565b81845260208085019260051b82010192831161069d57602001905b82821061099c5750505090565b813581526020918201910161098f565b6001600160401b03811161087b57601f01601f191660200190565b9291926109d3826109ac565b916109e16040519384610917565b82948184528183011161069d578281602093845f960137010152565b60405190610a0a8261088f565b5f60a0838281528260208201528260408201528260608201528260808201520152565b906007811015610a3e5760051b0190565b634e487b7160e01b5f52603260045260245ffd5b906003811015610a3e5760051b0190565b906002811015610a3e5760051b0190565b91908203918211610a8157565b634e487b7160e01b5f52601160045260245ffd5b5f80546001600160a01b03191681556001819055604051479060e0610aba8183610917565b5f5b818110610e925750505f60405160e081018181106001600160401b0382111761087b576040527373a15fed60bf67631dc6cd7bc5b6e8da8190acf5815273c4441c2be5d8fa8126822b9929ca0b81ea0de38e602082015273a0b86991c6218b36c1d19d4a2e9eb0ce3606eb48604082015273dac17f958d2ee523a2206206994597c13d831ec76060820152736b175474e89094c44da98b954eedeac495271d0f6080820152732260fac5e5542a773aa44fbcfedf7c193bc2c59960a08201525f51602061301e5f395f51905f5260c08201525f5b60078110610e135750505f5b818110610d8357506002811115610d7d57506002905b5f5b828110610c6457505050610bc7306128d0565b80610bfc575b50479080821115610bf457610be191610a74565b60015580546001600160a01b0319169055565b505080610be1565b5f51602061301e5f395f51905f523b1561069d5760405190632e1a7d4d60e01b825260048201525f81602481835f51602061301e5f395f51905f525af18015610c595715610bcd57610c519192505f90610917565b5f905f610bcd565b6040513d5f823e3d90fd5b610c77610c718284610a2d565b516123dd565b604090815191610c878184610917565b3683375f8252678ac7230489e8000060208301525f5b60038110610cb057505050600101610bb4565b610cba8183610a52565b5115610d75575f5b60028110610cd557506001905b01610c9d565b610d0088610ce38789610a2d565b51610cee8587610a52565b51610cf98589610a63565b5191612497565b610d6a57610d2f88610d128789610a2d565b51610d1d8587610a52565b51610d288589610a63565b51916125ca565b610d6a57610d5e88610d418789610a2d565b51610d4c8587610a52565b51610d578589610a63565b5191612779565b610d6a57600101610cc2565b505050505050505050565b600190610ccf565b90610bb2565b60018101808211610a81575b828110610d9f5750600101610b9c565b8060a0610dae60019387610a2d565b51015160a0610dbd8588610a2d565b51015110610dcc575b01610d8f565b610dd68386610a2d565b51610de18287610a2d565b51610dec8588610a2d565b52610df78487610a2d565b50610e028287610a2d565b52610e0d8186610a2d565b50610dc6565b610e2f6001600160a01b03610e288385610a2d565b5116611ed3565b60ff606082015116151580610e85575b80610e78575b610e53575b50600101610b90565b836001929491610e64849388610a2d565b52610e6f8187610a2d565b50019290610e4a565b5060808101511515610e45565b5060a08101511515610e3f565b602090610e9d6109fd565b8185015201610abc565b805115610a3e5760200190565b805160011015610a3e5760400190565b8051821015610a3e5760209160051b010190565b51906001600160a01b038216820361069d57565b519060ff8216820361069d57565b91908201809211610a8157565b91939293845192610140865f958101031261069d5760405195610f298761085f565b610f3560208201610ed8565b8752610f4360408201610ed8565b602088019281845260608301519862ffffff8a168a0361069d5760408101998a52610f7060808501610eec565b936060820194855260a08101519283608084015260c08201519060a0840191825260e08301519463ffffffff60e01b8616860361069d5760c08501958652610fbb6101008501610eec565b60e08601908152610120858101516101008801908152610140909601519087019081529790926001600160a01b039182169116149081611ec9575b5015611e94578351611010906001600160a01b0316612950565b15611e5b5760ff87511660018114908115611e50575b5015611e1f578351611040906001600160a01b0316612950565b9561104961299a565b9560018060a01b038a51165f80604051602081019063095ea7b360e01b825273e592427a0aece92de3edee1f18e0157c05861564602482015282604482015260448152611097606482610917565b519082855af16110a5612468565b81611df0575b5015611738575f809160405182602082019163095ea7b360e01b835273e592427a0aece92de3edee1f18e0157c05861564602482015281196044820152604481526110f7606482610917565b51925af1611103612468565b81611dc1575b50156117385760018060a01b038a51165f80604051602081019063095ea7b360e01b8252737a250d5630b4cf539739df2c5dacb4c659f2488d60248201528260448201526044815261115c606482610917565b519082855af161116a612468565b81611d92575b5015611738575f809160405182602082019163095ea7b360e01b8352737a250d5630b4cf539739df2c5dacb4c659f2488d602482015281196044820152604481526111bc606482610917565b51925af16111c8612468565b81611d63575b5015611738575f80604051602081019063095ea7b360e01b825273e592427a0aece92de3edee1f18e0157c05861564602482015282604482015260448152611217606482610917565b5190825f51602061301e5f395f51905f525af1611232612468565b81611d34575b5015611738575f80604051602081019063095ea7b360e01b825273e592427a0aece92de3edee1f18e0157c0586156460248201528219604482015260448152611282606482610917565b5190825f51602061301e5f395f51905f525af161129d612468565b81611d05575b5015611738575f80604051602081019063095ea7b360e01b8252737a250d5630b4cf539739df2c5dacb4c659f2488d6024820152826044820152604481526112ec606482610917565b5190825f51602061301e5f395f51905f525af1611307612468565b81611cd6575b5015611738575f80604051602081019063095ea7b360e01b8252737a250d5630b4cf539739df2c5dacb4c659f2488d60248201528219604482015260448152611357606482610917565b5190825f51602061301e5f395f51905f525af1611372612468565b81611ca7575b5015611738578e93600160ff8b5116145f14611bb95762ffffff60018060a01b038c5116955116604051956113ac876108aa565b86525f51602061301e5f395f51905f52602087015260408601523060608601524260808601528c60a08601525f60c08601525f60e08601526113ff6040519563414bf38960e01b87526004870190612ab0565b602085610104815f73e592427a0aece92de3edee1f18e0157c058615645af1948515610c59578e95611b86575b505b5180611a07575b5051915193519051936001600160e01b03199092169160ff168061197457505081925060405190602082015260048152611470602482610917565b602081519101827335d8949372d46b7a3d5a56006ae77b215fc69bc05af1611496612468565b501561193f57516114af906001600160a01b0316612950565b916114b861299a565b9210918215611935575b505015611902575160ff1660010361180a5762ffffff60018060a01b038251169651166114ef8385610efa565b6114f8306128d0565b91604051986115068a6108aa565b5f51602061301e5f395f51905f528a5260208a0152604089015230606089015242608089015260a088015260c08701528360e087015261155760405196631b67c43360e31b88526004880190612ab0565b602086610104818773e592427a0aece92de3edee1f18e0157c058615645af19586156117ff578495966117cc575b505b3373ba12222222228d8ba445958a75a0704d566bf2c80361166857516001600160a01b0316916115b79190610efa565b60405163a9059cbb60e01b6020820190815233602483015260448083019390935291815283906115e8606482610917565b51925af16115f4612468565b81611639575b501561160257565b60405162461bcd60e51b815260206004820152600f60248201526e1d1c985b9cd9995c8819985a5b1959608a1b6044820152606490fd5b805180159250821561164e575b50505f6115fa565b6116619250602080918301019101612b10565b5f80611646565b516001600160a01b0316925061167d91610efa565b908280604051602081019063095ea7b360e01b82527387870bca3f3fd6335c3f4ce8392d69350b4fa4e26024820152826044820152604481526116c1606482610917565b519082855af16116cf612468565b8161179d575b501561173857829182604051602081019263095ea7b360e01b84527387870bca3f3fd6335c3f4ce8392d69350b4fa4e2602483015260448201526044815261171e606482610917565b51925af161172a612468565b8161176e575b501561173857565b60405162461bcd60e51b815260206004820152600e60248201526d185c1c1c9bdd994819985a5b195960921b6044820152606490fd5b8051801592508215611783575b50505f611730565b6117969250602080918301019101612b10565b5f8061177b565b80518015925082156117b2575b50505f6116d5565b6117c59250602080918301019101612b10565b5f806117aa565b93506020843d6020116117f7575b816117e760209383610917565b8101031261069d57849351611585565b3d91506117da565b6040513d86823e3d90fd5b80516001600160a01b03169550836118228385610efa565b6040519761183160608a610917565b6002895260403660208b01375f51602061301e5f395f51905f526118548a610ea7565b5261185e89610eb4565b52611868306128d0565b90611899604051998a938493634401edf760e11b85526004850152602484015260a0604484015260a4830190612a74565b306064830152426084830152038183737a250d5630b4cf539739df2c5dacb4c659f2488d5af19586156117ff578495966118da9186916118e0575b50610ea7565b50611587565b6118fc91503d8088833e6118f48183610917565b8101906129fb565b5f6118d4565b60405162461bcd60e51b815260206004820152600b60248201526a76696374696d2069646c6560a81b6044820152606490fd5b1190505f806114c2565b60405162461bcd60e51b815260206004820152600d60248201526c1d185c99d95d081c995d995c9d609a1b6044820152606490fd5b600181036119a2575082935060405191602083015260248201526024815261199d604482610917565b611470565b9092506002036119d2578a928392604051926020840152602483015260448201526044815261199d606482610917565b60405162461bcd60e51b815260206004820152600d60248201526c6261642063616c6c207479706560981b6044820152606490fd5b809192939450611a16306128d0565b10611b48575f51602061301e5f395f51905f523b1561069d57604051632e1a7d4d60e01b8152600481018290525f81602481835f51602061301e5f395f51905f525af18015610c5957611b33575b506040516089808201908282106001600160401b03831117611b1e57908291612f9583390391f08015611b13576001600160a01b0316803b15611b0f578c809160246040518094819362f55d9d60e01b83527335d8949372d46b7a3d5a56006ae77b215fc69bc060048401525af18015611b0457908d94939291156114355784611af2919592939495610917565b611b0057908b92915f611435565b8b80fd5b6040513d8f823e3d90fd5b8c80fd5b6040513d8e823e3d90fd5b50634e487b7160e01b8f52604160045260248ffd5b611b40919d505f90610917565b5f9b5f611a64565b60405162461bcd60e51b81526020600482015260166024820152751a5b9cdd59999a58da595b9d081dd95d1a081cd9595960521b6044820152606490fd5b94506020853d602011611bb1575b81611ba160209383610917565b8101031261069d578d945161142c565b3d9150611b94565b8a51604051611c3796505f918f906001600160a01b0316611bdb606084610917565b600283526040366020850137611bf083610ea7565b525f51602061301e5f395f51905f52611c0883610eb4565b5260405197889283926338ed173960e01b8452600484015284602484015260a0604484015260a4830190612a74565b306064830152426084830152038183737a250d5630b4cf539739df2c5dacb4c659f2488d5af1948515610c59575f95611c8b575b5084515f19810195908611610a81578e95611c8591610ec4565b5061142e565b611ca09195503d805f833e6118f48183610917565b935f611c6b565b8051801592508215611cbc575b50505f611378565b611ccf9250602080918301019101612b10565b5f80611cb4565b8051801592508215611ceb575b50505f61130d565b611cfe9250602080918301019101612b10565b5f80611ce3565b8051801592508215611d1a575b50505f6112a3565b611d2d9250602080918301019101612b10565b5f80611d12565b8051801592508215611d49575b50505f611238565b611d5c9250602080918301019101612b10565b5f80611d41565b8051801592508215611d78575b50505f6111ce565b611d8b9250602080918301019101612b10565b5f80611d70565b8051801592508215611da7575b50505f611170565b611dba9250602080918301019101612b10565b5f80611d9f565b8051801592508215611dd6575b50505f611109565b611de99250602080918301019101612b10565b5f80611dce565b8051801592508215611e05575b50505f6110ab565b611e189250602080918301019101612b10565b5f80611dfd565b60405162461bcd60e51b81526020600482015260096024820152686261642076656e756560b81b6044820152606490fd5b60029150145f611026565b60405162461bcd60e51b81526020600482015260116024820152706e6f2076696374696d2062616c616e636560781b6044820152606490fd5b60405162461bcd60e51b815260206004820152600d60248201526c0d8dec2dc40dad2e6dac2e8c6d609b1b6044820152606490fd5b90508a145f610ff6565b90611edc6109fd565b611ee583612950565b9081156123d85792611ef56109fd565b5060405193611f03856108c6565b606485526101f46020860152610bb8604086015261271060608601526001600160a01b038216945f5b600481106122a6575050611f3e6109fd565b50604051611f4b816108c6565b73a0b86991c6218b36c1d19d4a2e9eb0ce3606eb48815273dac17f958d2ee523a2206206994597c13d831ec76020820152736b175474e89094c44da98b954eedeac495271d0f6040820152732260fac5e5542a773aa44fbcfedf7c193bc2c599606082015260405195611fbd876108c6565b606487526101f46020880152610bb8604088015261271060608801525f5b60048110611ff457505050611ff1939450612b39565b90565b816001600160a01b036120078386612b28565b51161461229e575f5b6004811061202357506001905b01611fdb565b6001600160a01b036120358386612b28565b511662ffffff612045838c612b28565b511660405191630b4c774160e11b835285600484015260248301526044820152602081606481731f98431c8ad98523631ae4a59f267346ea31f9845afa908115610c59575f91612265575b506001600160a01b03161561225d576120cf878a62ffffff6120c6856001600160a01b036120be898c612b28565b511693612b28565b51169089612dde565b8015612254575f5b600481106120eb5750506001905b01612010565b8a62ffffff612106836001600160a01b036120be898c612b28565b511660405191630b4c774160e11b835260048301525f51602061301e5f395f51905f5260248301526044820152602081606481731f98431c8ad98523631ae4a59f267346ea31f9845afa908115610c59575f9161221b575b506001600160a01b031615612213578a61219c836001600160a01b03612184888b612b28565b511662ffffff6121948686612b28565b511690612cee565b60a089015181116121b4575b50506001905b016120d7565b91975060019162ffffff6121dc8a6001600160a01b036121d48a8d612b28565b511694612b28565b5116604051926121eb8461088f565b8884526020840152604083015282606083015283608083015260a08201529690508a5f6121a8565b6001906121ae565b90506020813d821161224c575b8161223560209383610917565b8101031261069d5761224690610ed8565b5f61215e565b3d9150612228565b506001906120e5565b6001906120e5565b90506020813d8211612296575b8161227f60209383610917565b8101031261069d5761229090610ed8565b5f612090565b3d9150612272565b60019061201d565b62ffffff6122b48284612b28565b51604051630b4c774160e11b8152600481018a90525f51602061301e5f395f51905f52602482015291166044820152602081606481731f98431c8ad98523631ae4a59f267346ea31f9845afa908115610c59575f9161239f575b506001600160a01b031615612397576123378562ffffff61232f8486612b28565b511686612cee565b60a0840151811161234e575b506001905b01611f2c565b81935062ffffff61236160019385612b28565b511690604051916123718361088f565b898352896020840152604083015282606083015286608083015260a08201529290612343565b600190612348565b90506020813d82116123d0575b816123b960209383610917565b8101031261069d576123ca90610ed8565b5f61230e565b3d91506123ac565b925050565b906040516123ec606082610917565b60603682376080819301519081156123d857508060011c83528060208401528060011b818104600203610a815760408401525f5b6003811061242c575050565b8061243960019286610a52565b5115612446575b01612420565b826124518287610a52565b52612440565b906005811015610a3e5760051b0190565b3d15612492573d90612479826109ac565b916124876040519384610917565b82523d5f602084013e565b606090565b909291604051936124a7856108e1565b63140e25ad60e31b855263fd02ffb760e01b602086015263340923ed60e21b60408601526319ec2a5d60e31b60608601526377244b0760e11b60808601525f5b600581106124f9575050505050505f90565b83516020850151604086015160608701515f9384936001600160a01b039182169391169162ffffff9091169060ff166001600160e01b031961253b888e612457565b511691604051936020850195632dc678d960e21b875260248601526044850152606484015260848301528660a48301528760c483015260e4820152826101048201528261012482015282610144820152610144815261259c61016482610917565b519082305af16125aa612468565b506125b7576001016124e7565b505050506125c59150612c51565b600190565b90929192604051906125db826108e1565b63375bfb9760e11b8252633c2ac86b60e11b602083015263cd3543e160e01b60408301526369f0f67160e11b606083015263140e25ad60e31b6080830152825161262d906001600160a01b0316612950565b9160405192606084018481106001600160401b0382111761087b576040525f1984526020840152600160408401525f5b6005811061267057505050505050505f90565b60018103612756575f8061268960ff60025b1687610a52565b518751602089015160408a015160608b01516001600160a01b0393841694929093169262ffffff919091169060ff166001600160e01b03196126cb898b612457565b511691604051946020860196632dc678d960e21b885260248701526044860152606485015260848401528860a48401528c60c484015260e4830152600161010483015261012482015282610144820152610144815261272c61016482610917565b519082305af161273a612468565b506127475760010161265d565b50505050506125c59150612c51565b6004810361276c575f8061268960ff6001612682565b5f8061268960ff82612682565b929160405191612788836108fc565b630c8ff74160e01b83526306f3d7b160e11b6020840152604051926127ac846108fc565b5f19845285516001600160a01b03166020850152604051956127cd876108fc565b5f1980885260208801525f5b600281106127ed5750505050505050505f90565b5f8060018060a01b0384511660018060a01b03602086015116858c8b896128468961283f8160ff606062ffffff60408b01511699015116946128378263ffffffff60e01b92610a63565b511695610a63565b5194610a63565b5193604051956020870197632dc678d960e21b895260248801526044870152606486015260848501528a60a48501528b60c485015260e4840152600261010484015261012483015261014482015261014481526128a561016482610917565b519082305af16128b3612468565b506128c0576001016127d9565b5050505050506125c59150612c51565b5f809160405160208101916370a0823160e01b835260018060a01b0316602482015260248152612901604482610917565b51905f51602061301e5f395f51905f525afa61291b612468565b90158015612945575b612940576020815191818082019384920101031261069d575190565b505f90565b506020815110612924565b5f809160405160208101906370a0823160e01b82527335d8949372d46b7a3d5a56006ae77b215fc69bc060248201526024815261298e604482610917565b51915afa61291b612468565b5f8060405160208101906370a0823160e01b82527335d8949372d46b7a3d5a56006ae77b215fc69bc0602482015260248152612901604482610917565b805180835260209291819084018484015e5f828201840152601f01601f1916010190565b60208183031261069d578051906001600160401b03821161069d57019080601f8301121561069d578151612a2e81610938565b92612a3c6040519485610917565b81845260208085019260051b82010192831161069d57602001905b828210612a645750505090565b8151815260209182019101612a57565b90602080835192838152019201905f5b818110612a915750505090565b82516001600160a01b0316845260209384019390920191600101612a84565b80516001600160a01b03908116835260208083015182169084015260408083015162ffffff16908401526060808301518216908401526080808301519084015260a0808301519084015260c0808301519084015260e09182015116910152565b9081602091031261069d5751801515810361069d5790565b906004811015610a3e5760051b0190565b91612b426109fd565b506001600160a01b038216915f51602061301e5f395f51905f528314612bda5760405163e6a4390560e01b8152600481018490525f51602061301e5f395f51905f526024820152602081604481735c69bee701ef814a2b6a3edd4b1652cb9cc5aa6f5afa908115610c59575f91612c17575b506001600160a01b031615612bda5781612bcd91612e81565b9060a08401518211612be0575b50505090565b60405193509091612bf08461088f565b80845260208401525f604084015260026060840152608083015260a08201525f8080612bda565b90506020813d602011612c49575b81612c3260209383610917565b8101031261069d57612c4390610ed8565b5f612bb4565b3d9150612c25565b612c5a306128d0565b905f9180612c91575b5081546001600160a01b03191682554781811115612c8a57612c859250610a74565b600155565b5050600155565b5f51602061301e5f395f51905f523b1561069d5760405190632e1a7d4d60e01b825260048201525f81602481835f51602061301e5f395f51905f525af18015610c595715612c6357612ce69192505f90610917565b5f905f612c63565b5f93926001600160a01b03909116915f51602061301e5f395f51905f5283148015612dd1575b8015612dc9575b612dc15762ffffff906040519363f7729d4360e01b855260048501525f51602061301e5f395f51905f52602485015216604483015260648201525f608482015260208160a4815f73b27308f9f90d607463bb33ea1bebb41c27ce5ab65af15f9181612d8d575b50612d895750565b9150565b9091506020813d602011612db9575b81612da960209383610917565b8101031261069d5751905f612d81565b3d9150612d9c565b505f93505050565b508115612d1b565b5062ffffff811615612d14565b5f94936001600160a01b039182169390929091168381148015612e74575b8015612e6c575b612e63579062ffffff916040519463f7729d4360e01b86526004860152602485015216604483015260648201525f608482015260208160a4815f73b27308f9f90d607463bb33ea1bebb41c27ce5ab65af15f9181612d8d5750612d895750565b505f9450505050565b508215612e03565b5062ffffff821615612dfc565b5f92916001600160a01b03909116905f51602061301e5f395f51905f5282148015612f8c575b612f8557612f16915f9160405191612ec0606084610917565b600283526040366020850137612ed583610ea7565b525f51602061301e5f395f51905f52612eed83610eb4565b52604051938492839263d06ca61f60e01b84526004840152604060248401526044830190612a74565b0381737a250d5630b4cf539739df2c5dacb4c659f2488d5afa5f9181612f69575b50612f3f5750565b805160018111612f4d575050565b919250905f198101908111610a8157612f6591610ec4565b5190565b612f7e9192503d805f833e6118f48183610917565b905f612f37565b505f925050565b508015612ea756fe6080806040526079908160108239f3fe6004361015600b575f80fd5b5f3560e01c62f55d9d14601c575f80fd5b34603f576020366003190112603f576004356001600160a01b0381168103603f57ff5b5f80fdfea2646970667358221220dabe597546afaf40ee2b0209204f9be457a5aa3493fb28f3f95e1fa2ec2f5d4864736f6c634300081e0033000000000000000000000000c02aaa39b223fe8d0a0e5c4f27ead9083c756cc2a2646970667358221220b593866bb4d26c7e6fe4d7965715cf1c2510ed95e2ad961e678cd064cad36b3c64736f6c634300081e0033","linkReferences":{}},"methodIdentifiers":{"_attemptPlan(address,address,uint24,uint8,uint256,uint256,bytes4,uint8,uint256,uint256)":"b719e364","executeOnOpportunity()":"3c2448ed","executeOperation(address,uint256,uint256,address,bytes)":"1b11d0ff","profitAmount()":"5ff972cc","profitToken()":"49343624","receiveFlashLoan(address[],uint256[],uint256[],bytes)":"f04f2707"},"id":0}