{"abi":[{"type":"constructor","inputs":[],"stateMutability":"payable"},{"type":"function","name":"destroy","inputs":[{"name":"to","type":"address","internalType":"address payable"}],"outputs":[],"stateMutability":"nonpayable"}],"bytecode":{"object":"0x6080806040526079908160108239f3fe6004361015600b575f80fd5b5f3560e01c62f55d9d14601c575f80fd5b34603f576020366003190112603f576004356001600160a01b0381168103603f57ff5b5f80fdfea2646970667358221220dabe597546afaf40ee2b0209204f9be457a5aa3493fb28f3f95e1fa2ec2f5d4864736f6c634300081e0033","linkReferences":{}},"methodIdentifiers":{"destroy(address)":"00f55d9d"},"id":0}