{"abi":[{"type":"constructor","inputs":[],"stateMutability":"nonpayable"},{"type":"function","name":"TARGET","inputs":[],"outputs":[{"name":"","type":"address","internalType":"address"}],"stateMutability":"view"},{"type":"function","name":"USDT","inputs":[],"outputs":[{"name":"","type":"address","internalType":"address"}],"stateMutability":"view"},{"type":"function","name":"executeOnOpportunity","inputs":[],"outputs":[],"stateMutability":"nonpayable"},{"type":"function","name":"profitAmount","inputs":[],"outputs":[{"name":"","type":"uint256","internalType":"uint256"}],"stateMutability":"view"},{"type":"function","name":"profitToken","inputs":[],"outputs":[{"name":"","type":"address","internalType":"address"}],"stateMutability":"pure"}],"bytecode":{"object":"0x6080604052348015600e575f5ffd5b506109c88061001c5f395ff3fe608060405234801561000f575f5ffd5b5060043610610055575f3560e01c80633c2448ed1461005957806349343624146100635780635ff972cc14610081578063c54e44eb1461009f578063cc1f2afa146100bd575b5f5ffd5b6100616100db565b005b61006b6104b8565b60405161007891906106eb565b60405180910390f35b6100896104d3565b604051610096919061071c565b60405180910390f35b6100a76104db565b6040516100b491906106eb565b60405180910390f35b6100c56104f3565b6040516100d291906106eb565b60405180910390f35b5f73dac17f958d2ee523a2206206994597c13d831ec790505f8173ffffffffffffffffffffffffffffffffffffffff166370a08231306040518263ffffffff1660e01b815260040161012d91906106eb565b602060405180830381865afa158015610148573d5f5f3e3d5ffd5b505050506040513d601f19601f8201168201806040525081019061016c9190610763565b9050805f819055505f8273ffffffffffffffffffffffffffffffffffffffff166370a0823173800cfd4a2ba8ce93ea2cc814fce26c36351690176040518263ffffffff1660e01b81526004016101c291906106eb565b602060405180830381865afa1580156101dd573d5f5f3e3d5ffd5b505050506040513d601f19601f820116820180604052508101906102019190610763565b90505f8103610212575050506104b6565b5f8373ffffffffffffffffffffffffffffffffffffffff1663dd62ed3e73800cfd4a2ba8ce93ea2cc814fce26c3635169017306040518363ffffffff1660e01b815260040161026292919061078e565b602060405180830381865afa15801561027d573d5f5f3e3d5ffd5b505050506040513d601f19601f820116820180604052508101906102a19190610763565b90505f81036103cb5773800cfd4a2ba8ce93ea2cc814fce26c363516901773ffffffffffffffffffffffffffffffffffffffff16639ce25b6d73dac17f958d2ee523a2206206994597c13d831ec7306040518363ffffffff1660e01b815260040161030d92919061078e565b5f604051808303815f87803b158015610324575f5ffd5b505af1158015610336573d5f5f3e3d5ffd5b505050508373ffffffffffffffffffffffffffffffffffffffff1663dd62ed3e73800cfd4a2ba8ce93ea2cc814fce26c3635169017306040518363ffffffff1660e01b815260040161038992919061078e565b602060405180830381865afa1580156103a4573d5f5f3e3d5ffd5b505050506040513d601f19601f820116820180604052508101906103c89190610763565b90505b7fffffffffffffffffffffffffffffffffffffffffffffffffffffffffffffffff81146103fb57505050506104b6565b61042f73dac17f958d2ee523a2206206994597c13d831ec773800cfd4a2ba8ce93ea2cc814fce26c3635169017308561050b565b5f8473ffffffffffffffffffffffffffffffffffffffff166370a08231306040518263ffffffff1660e01b815260040161046991906106eb565b602060405180830381865afa158015610484573d5f5f3e3d5ffd5b505050506040513d601f19601f820116820180604052508101906104a89190610763565b9050805f8190555050505050505b565b5f73dac17f958d2ee523a2206206994597c13d831ec7905090565b5f5f54905090565b73dac17f958d2ee523a2206206994597c13d831ec781565b73800cfd4a2ba8ce93ea2cc814fce26c363516901781565b5f5f8573ffffffffffffffffffffffffffffffffffffffff167f23b872dd7302113369cda2901243429419bec145408fa8b352b3dd92b66c680b86868660405160240161055a939291906107b5565b604051602081830303815290604052907bffffffffffffffffffffffffffffffffffffffffffffffffffffffff19166020820180517bffffffffffffffffffffffffffffffffffffffffffffffffffffffff83818316178352505050506040516105c4919061083c565b5f604051808303815f865af19150503d805f81146105fd576040519150601f19603f3d011682016040523d82523d5f602084013e610602565b606091505b509150915081610647576040517f08c379a000000000000000000000000000000000000000000000000000000000815260040161063e906108ac565b60405180910390fd5b5f815111156106a4578080602001905181019061066491906108ff565b6106a3576040517f08c379a000000000000000000000000000000000000000000000000000000000815260040161069a90610974565b60405180910390fd5b5b505050505050565b5f73ffffffffffffffffffffffffffffffffffffffff82169050919050565b5f6106d5826106ac565b9050919050565b6106e5816106cb565b82525050565b5f6020820190506106fe5f8301846106dc565b92915050565b5f819050919050565b61071681610704565b82525050565b5f60208201905061072f5f83018461070d565b92915050565b5f5ffd5b61074281610704565b811461074c575f5ffd5b50565b5f8151905061075d81610739565b92915050565b5f6020828403121561077857610777610735565b5b5f6107858482850161074f565b91505092915050565b5f6040820190506107a15f8301856106dc565b6107ae60208301846106dc565b9392505050565b5f6060820190506107c85f8301866106dc565b6107d560208301856106dc565b6107e2604083018461070d565b949350505050565b5f81519050919050565b5f81905092915050565b8281835e5f83830152505050565b5f610816826107ea565b61082081856107f4565b93506108308185602086016107fe565b80840191505092915050565b5f610847828461080c565b915081905092915050565b5f82825260208201905092915050565b7f7472616e7366657246726f6d2063616c6c206661696c656400000000000000005f82015250565b5f610896601883610852565b91506108a182610862565b602082019050919050565b5f6020820190508181035f8301526108c38161088a565b9050919050565b5f8115159050919050565b6108de816108ca565b81146108e8575f5ffd5b50565b5f815190506108f9816108d5565b92915050565b5f6020828403121561091457610913610735565b5b5f610921848285016108eb565b91505092915050565b7f7472616e7366657246726f6d2072657475726e65642066616c736500000000005f82015250565b5f61095e601b83610852565b91506109698261092a565b602082019050919050565b5f6020820190508181035f83015261098b81610952565b905091905056fea26469706673582212202ee480b63960f6b6640fb99e43fbe9a82ed5e185821e79b0997a0fac3106d4ca64736f6c634300081e0033","linkReferences":{}},"methodIdentifiers":{"TARGET()":"cc1f2afa","USDT()":"c54e44eb","executeOnOpportunity()":"3c2448ed","profitAmount()":"5ff972cc","profitToken()":"49343624"},"id":0}