{"abi":[{"type":"fallback","stateMutability":"payable"},{"type":"receive","stateMutability":"payable"},{"type":"function","name":"borrowProxy","inputs":[{"name":"amount","type":"uint256","internalType":"uint256"}],"outputs":[],"stateMutability":"nonpayable"},{"type":"function","name":"executeOnOpportunity","inputs":[],"outputs":[],"stateMutability":"nonpayable"}],"bytecode":{"object":"0x60808060405234601557611620908161001a8239f35b5f80fdfe6080604052600436101561000f57005b5f5f3560e01c80633c2448ed146100f25763f94f4ecf1461002c57005b346100ef5760203660031901126100ef573033036100be5760408051634b8a352960e01b8152306004808301919091523560248201529081604481855f5160206115cb5f395f51905f525af180156100b357610086575080f35b6100a79060403d6040116100ac575b61009f81836107a4565b8101906107f9565b505080f35b503d610095565b6040513d84823e3d90fd5b60405162461bcd60e51b815260206004820152600960248201526837b7363c9039b2b63360b91b6044820152606490fd5b80fd5b50346105b4575f3660031901126105b45747604090815161011383826107a4565b6001815282601f19810180366020850137602161012f8461080f565b5281519061013d83836107a4565b6001825236602083013761014f610850565b92825161015d6020826107a4565b5f81526101698561080f565b526101738461080f565b506101918351948593849363195bcf5960e21b8552600485016108ae565b03815f5f5160206115cb5f395f51905f525af1610788575b506101b261097f565b8151636b2ace8760e01b81526020816004815f5160206115cb5f395f51905f525afa908115610672575f91610769575b50825163d8dfeb4560e01b8152906020826004815f5160206115cb5f395f51905f525afa91821561075f575f9261073e575b508351639b352ae160e01b8152906020826004815f5160206115cb5f395f51905f525afa9182156106fe575f92610708575b5060206102bd9161025684610cfb565b61025f85610cfb565b6102676109b2565b61026f610a94565b610277610b61565b61027f610c2e565b8651633de222bb60e21b81526001600160a01b0395861660048201525f5160206115cb5f395f51905f52602482015294169391829081906044820190565b0381865afa9081156106fe575f916106cc575b50845163473e3ce760e01b81526020816004815f5160206115cb5f395f51905f525afa9081156106c2575f91610690575b50808211610377575b505050504767016345785d8a00008201809211610363571061032a575080f35b5162461bcd60e51b8152602060048201526013602482015272125b9cdd59999a58da595b9d081c1c9bd99a5d606a1b6044820152606490fd5b634e487b7160e01b84526011600452602484fd5b81969593969492940390811161067c575f5160206115cb5f395f51905f523b156105b45782519063860ffea160e01b82523060048301526001602483015260448201525f81606481835f5160206115cb5f395f51905f525af180156106725761065d575b508151633de222bb60e21b81526001600160a01b03841660048201525f5160206115cb5f395f51905f52602482015294602086604481845afa95861561065357859661061f575b508251630acc462360e31b81526001600160a01b03851660048201819052602482019790975260448101869052602081606481855afa9081156106155786916105e3575b5093859686955b60208710806105da575b156105ca5761048581610dae565b6104b25760011c955f19811461049e576001019561046d565b634e487b7160e01b88526011600452602488fd5b50909294508395965060019391935b1561030a578151633de222bb60e21b81526004810182905230602482015290602082604481885afa9182156105c0578892610585575b5081610514575b50505061050b9150610e15565b5f80838161030a565b60a490888451968794859363097da6d360e41b8552600485015230602485015230604485015282606485015260848401525af191821561057b5761050b9261055f575b8085916104fe565b61057590853d87116100ac5761009f81836107a4565b50610557565b84513d87823e3d90fd5b925090506020823d6020116105b8575b816105a2602093836107a4565b810103126105b457859151905f6104f7565b5f80fd5b3d9150610595565b83513d8a823e3d90fd5b50909294508395969391936104c1565b50801515610477565b90506020813d60201161060d575b816105fe602093836107a4565b810103126105b457515f610466565b3d91506105f1565b84513d88823e3d90fd5b9095506020813d60201161064b575b8161063b602093836107a4565b810103126105b45751945f610422565b3d915061062e565b83513d87823e3d90fd5b61066a9194505f906107a4565b5f925f6103db565b83513d5f823e3d90fd5b634e487b7160e01b5f52601160045260245ffd5b90506020813d6020116106ba575b816106ab602093836107a4565b810103126105b457515f610301565b3d915061069e565b86513d5f823e3d90fd5b90506020813d6020116106f6575b816106e7602093836107a4565b810103126105b457515f6102d0565b3d91506106da565b85513d5f823e3d90fd5b6102bd91925061072f602091823d8411610737575b61072781836107a4565b8101906107da565b929150610246565b503d61071d565b61075891925060203d6020116107375761072781836107a4565b905f610214565b84513d5f823e3d90fd5b610782915060203d6020116107375761072781836107a4565b5f6101e2565b61079e90833d85116100ac5761009f81836107a4565b506101a9565b90601f8019910116810190811067ffffffffffffffff8211176107c657604052565b634e487b7160e01b5f52604160045260245ffd5b908160209103126105b457516001600160a01b03811681036105b45790565b91908260409103126105b4576020825192015190565b80511561081c5760200190565b634e487b7160e01b5f52603260045260245ffd5b80516001101561081c5760400190565b80516002101561081c5760600190565b6040805190919061086183826107a4565b6001815291601f1901825f5b82811061087957505050565b80606060208093850101520161086d565b805180835260209291819084018484015e5f828201840152601f01601f1916010190565b90606082016060835281518091526020608084019201905f5b818110610966575050508181036020830152602080845192838152019301905f5b818110610950575050506040818303910152815180825260208201916020808360051b8301019401925f915b83831061092357505050505090565b9091929394602080610941600193601f19868203018752895161088a565b97019301930191939290610914565b82518552602094850194909201916001016108e8565b825160ff168452602093840193909201916001016108c7565b5f5160206115cb5f395f51905f523180156109af576109af906040516109a66020826107a4565b5f815230611122565b50565b6040516370a0823160e01b81525f5160206115cb5f395f51905f52600482015260208160248173c02aaa39b223fe8d0a0e5c4f27ead9083c756cc25afa908115610a89575f91610a57575b5080156109af5760405163a9059cbb60e01b602082015230602482015260448101919091526109af90610a3d81606481015b03601f1981018352826107a4565b73c02aaa39b223fe8d0a0e5c4f27ead9083c756cc2611008565b90506020813d602011610a81575b81610a72602093836107a4565b810103126105b457515f6109fd565b3d9150610a65565b6040513d5f823e3d90fd5b6040516370a0823160e01b81525f5160206115cb5f395f51905f52600482015260208160248173a0b86991c6218b36c1d19d4a2e9eb0ce3606eb485afa908115610a89575f91610b2f575b5080156109af5760405163a9059cbb60e01b602082015230602482015260448101919091526109af90610b158160648101610a2f565b73a0b86991c6218b36c1d19d4a2e9eb0ce3606eb48611008565b90506020813d602011610b59575b81610b4a602093836107a4565b810103126105b457515f610adf565b3d9150610b3d565b6040516370a0823160e01b81525f5160206115cb5f395f51905f52600482015260208160248173dac17f958d2ee523a2206206994597c13d831ec75afa908115610a89575f91610bfc575b5080156109af5760405163a9059cbb60e01b602082015230602482015260448101919091526109af90610be28160648101610a2f565b73dac17f958d2ee523a2206206994597c13d831ec7611008565b90506020813d602011610c26575b81610c17602093836107a4565b810103126105b457515f610bac565b3d9150610c0a565b6040516370a0823160e01b81525f5160206115cb5f395f51905f526004820152602081602481736b175474e89094c44da98b954eedeac495271d0f5afa908115610a89575f91610cc9575b5080156109af5760405163a9059cbb60e01b602082015230602482015260448101919091526109af90610caf8160648101610a2f565b736b175474e89094c44da98b954eedeac495271d0f611008565b90506020813d602011610cf3575b81610ce4602093836107a4565b810103126105b457515f610c79565b3d9150610cd7565b6040516370a0823160e01b81525f5160206115cb5f395f51905f5260048201526020816024816001600160a01b0386165afa908115610a89575f91610d7c575b508015610d785760405163a9059cbb60e01b60208201523060248201526044808201929092529081526109af91610d736064836107a4565b611008565b5050565b90506020813d602011610da6575b81610d97602093836107a4565b810103126105b457515f610d3b565b3d9150610d8a565b5f90303b156105b4576040519063f94f4ecf60e01b825260048201525f8160248183305af19081610de8575b50610de25790565b50600190565b610df59192505f906107a4565b5f905f610dda565b908160209103126105b4575180151581036105b45790565b6001600160a01b03811673c02aaa39b223fe8d0a0e5c4f27ead9083c756cc28114610d78576040516370a0823160e01b815230600482015290602082602481845afa918215610a89575f92610fd4575b508115610fcf5760405163095ea7b360e01b8152737a250d5630b4cf539739df2c5dacb4c659f2488d60048201525f196024820152906020826044815f855af1908115610a89575f92602092610fb4575b5060446040518094819363095ea7b360e01b835273d9e1ce17f2641f24ae83637ab66a2cca9c378b9f6004840152811960248401525af18015610a8957610f87575b50610f0b610f0583611173565b826111c6565b610d7857610f21610f1b83611173565b8261132b565b610d7857610f31610f0583611489565b610d7857610f41610f1b83611489565b610d7857610f51610f05836114f8565b610d7857610f61610f1b836114f8565b610d7857610f71610f0583611561565b610d7857610f816109af92611561565b9061132b565b610fa89060203d602011610fad575b610fa081836107a4565b810190610dfd565b610ef8565b503d610f96565b610fca90833d8511610fad57610fa081836107a4565b610eb6565b505050565b9091506020813d602011611000575b81610ff0602093836107a4565b810103126105b45751905f610e65565b3d9150610fe3565b9060408091815161101983826107a4565b60018152601f1983019182366020840137601e6110358361080f565b5283519261104385856107a4565b600184523660208501375f6110578461080f565b526110ad611063610850565b85516001600160a01b03909816602089015260a0888701529691829061108d9060c083019061088a565b5f60608301525f60808301525f60a083015203601f1981018352826107a4565b6110b68661080f565b526110c08561080f565b506110de8351958693849363195bcf5960e21b8552600485016108ae565b03815f5f5160206115cb5f395f51905f525af19182611107575b5050611102575f90565b600190565b8161111d92903d106100ac5761009f81836107a4565b6110f8565b9190604091829182519061113684836107a4565b60018252601f1984019283366020850137601e6111528461080f565b5284519361116086866107a4565b600185523660208601376110578461080f565b9073c02aaa39b223fe8d0a0e5c4f27ead9083c756cc26111c360405161119a6060826107a4565b60028152604036602083013780946111b18261080f565b6001600160a01b039091169052610830565b52565b5f916002815114806112fe575b61129d576003815114806112a4575b61129d57737a250d5630b4cf539739df2c5dacb4c659f2488d3b156105b4579060405191829163791ac94760e01b835260a483019060048401525f602484015260a060448401528151809152602060c484019201905f5b81811061127b5750505090805f92306064830152426084830152038183737a250d5630b4cf539739df2c5dacb4c659f2488d5af19081610de85750610de25790565b82516001600160a01b0316845285945060209384019390920191600101611239565b5050505f90565b506001600160a01b036112b68261080f565b51166001600160a01b036112c983610830565b511614806111e257506001600160a01b036112e382610830565b51166001600160a01b036112f683610840565b5116146111e2565b506001600160a01b036113108261080f565b51166001600160a01b0361132383610830565b5116146111d3565b5f9160028151148061145c575b61129d57600381511480611402575b61129d5773d9e1ce17f2641f24ae83637ab66a2cca9c378b9f3b156105b4579060405191829163791ac94760e01b835260a483019060048401525f602484015260a060448401528151809152602060c484019201905f5b8181106113e05750505090805f9230606483015242608483015203818373d9e1ce17f2641f24ae83637ab66a2cca9c378b9f5af19081610de85750610de25790565b82516001600160a01b031684528594506020938401939092019160010161139e565b506001600160a01b036114148261080f565b51166001600160a01b0361142783610830565b5116148061134757506001600160a01b0361144182610830565b51166001600160a01b0361145483610840565b511614611347565b506001600160a01b0361146e8261080f565b51166001600160a01b0361148183610830565b511614611338565b9073c02aaa39b223fe8d0a0e5c4f27ead9083c756cc26111c36040516114b06080826107a4565b60038152606036602083013780946114c78261080f565b6001600160a01b03909116905273a0b86991c6218b36c1d19d4a2e9eb0ce3606eb486114f282610830565b52610840565b9073c02aaa39b223fe8d0a0e5c4f27ead9083c756cc26111c360405161151f6080826107a4565b60038152606036602083013780946115368261080f565b6001600160a01b03909116905273dac17f958d2ee523a2206206994597c13d831ec76114f282610830565b9073c02aaa39b223fe8d0a0e5c4f27ead9083c756cc26111c36040516115886080826107a4565b600381526060366020830137809461159f8261080f565b6001600160a01b039091169052736b175474e89094c44da98b954eedeac495271d0f6114f28261083056fe0000000000000000000000007259e152103756e1616a77ae982353c3751a6a90a26469706673582212201468d4f549cf372c052ab929f10fb9b4c2528a7122b8570c0c69c4e962ef1b6164736f6c634300081e0033","linkReferences":{}},"methodIdentifiers":{"borrowProxy(uint256)":"f94f4ecf","executeOnOpportunity()":"3c2448ed"},"id":0}