{"abi":[{"type":"constructor","inputs":[],"stateMutability":"nonpayable"},{"type":"receive","stateMutability":"payable"},{"type":"function","name":"executeOnOpportunity","inputs":[],"outputs":[],"stateMutability":"nonpayable"},{"type":"function","name":"profitAmount","inputs":[],"outputs":[{"name":"","type":"uint256","internalType":"uint256"}],"stateMutability":"view"},{"type":"function","name":"profitToken","inputs":[],"outputs":[{"name":"","type":"address","internalType":"address"}],"stateMutability":"view"}],"bytecode":{"object":"0x6080604052348015600e575f5ffd5b50612ed38061001c5f395ff3fe608060405260043610610037575f3560e01c80633c2448ed1461004257806349343624146100585780635ff972cc146100825761003e565b3661003e57005b5f5ffd5b34801561004d575f5ffd5b506100566100ac565b005b348015610063575f5ffd5b5061006c6103ad565b60405161007991906125cb565b60405180910390f35b34801561008d575f5ffd5b506100966103d4565b6040516100a391906125fc565b60405180910390f35b60025f9054906101000a900460ff16156100fb576040517f08c379a00000000000000000000000000000000000000000000000000000000081526004016100f29061266f565b60405180910390fd5b600160025f6101000a81548160ff0219169083151502179055505f61011e6103dd565b90505f610129610a67565b90505f8260a0015114801561014157505f8160a00151145b15610193575f5f5f6101000a81548173ffffffffffffffffffffffffffffffffffffffff021916908373ffffffffffffffffffffffffffffffffffffffff1602179055505f60018190555050506103ab565b8060a001518260a001511061022a575f8260a0015111156101b8576101b782610ff7565b5b5f73ffffffffffffffffffffffffffffffffffffffff165f5f9054906101000a900473ffffffffffffffffffffffffffffffffffffffff1673ffffffffffffffffffffffffffffffffffffffff1614801561021657505f8160a00151115b156102255761022481611617565b5b6102a1565b61023381611617565b5f73ffffffffffffffffffffffffffffffffffffffff165f5f9054906101000a900473ffffffffffffffffffffffffffffffffffffffff1673ffffffffffffffffffffffffffffffffffffffff1614801561029157505f8260a00151115b156102a05761029f82610ff7565b5b5b5f73ffffffffffffffffffffffffffffffffffffffff165f5f9054906101000a900473ffffffffffffffffffffffffffffffffffffffff1673ffffffffffffffffffffffffffffffffffffffff1603610302575f60018190555050506103ab565b61030a611946565b5f5f9054906101000a900473ffffffffffffffffffffffffffffffffffffffff1673ffffffffffffffffffffffffffffffffffffffff166370a08231306040518263ffffffff1660e01b815260040161036391906125cb565b602060405180830381865afa15801561037e573d5f5f3e3d5ffd5b505050506040513d601f19601f820116820180604052508101906103a291906126bb565b60018190555050505b565b5f5f5f9054906101000a900473ffffffffffffffffffffffffffffffffffffffff16905090565b5f600154905090565b6103e56124cf565b5f6040518060400160405280735c69bee701ef814a2b6a3edd4b1652cb9cc5aa6f73ffffffffffffffffffffffffffffffffffffffff1673ffffffffffffffffffffffffffffffffffffffff16815260200173c0aee478e3658e2610c5f7a4a2e1777ce9e4f2ac73ffffffffffffffffffffffffffffffffffffffff1673ffffffffffffffffffffffffffffffffffffffff1681525090505f6040518060c0016040528073c02aaa39b223fe8d0a0e5c4f27ead9083c756cc273ffffffffffffffffffffffffffffffffffffffff1673ffffffffffffffffffffffffffffffffffffffff16815260200173a0b86991c6218b36c1d19d4a2e9eb0ce3606eb4873ffffffffffffffffffffffffffffffffffffffff1673ffffffffffffffffffffffffffffffffffffffff16815260200173dac17f958d2ee523a2206206994597c13d831ec773ffffffffffffffffffffffffffffffffffffffff1673ffffffffffffffffffffffffffffffffffffffff168152602001736b175474e89094c44da98b954eedeac495271d0f73ffffffffffffffffffffffffffffffffffffffff1673ffffffffffffffffffffffffffffffffffffffff168152602001732260fac5e5542a773aa44fbcfedf7c193bc2c59973ffffffffffffffffffffffffffffffffffffffff1673ffffffffffffffffffffffffffffffffffffffff16815260200173853d955acef822db058eb8505911ed77f175b99e73ffffffffffffffffffffffffffffffffffffffff1673ffffffffffffffffffffffffffffffffffffffff1681525090505f61020067016345785d8a00006106449190612713565b73418c24191ae947a78c99fdc0e45a1f96afb254be73ffffffffffffffffffffffffffffffffffffffff166370a08231306040518263ffffffff1660e01b815260040161069191906125cb565b602060405180830381865afa1580156106ac573d5f5f3e3d5ffd5b505050506040513d601f19601f820116820180604052508101906106d091906126bb565b6106da9190612754565b90505f5f90505b6002811015610a60575f5f90505b6006811015610a54575f84826006811061070c5761070b612787565b5b602002015190505f86846002811061072757610726612787565b5b602002015173ffffffffffffffffffffffffffffffffffffffff1663e6a4390573418c24191ae947a78c99fdc0e45a1f96afb254be846040518363ffffffff1660e01b815260040161077a9291906127b4565b602060405180830381865afa158015610795573d5f5f3e3d5ffd5b505050506040513d601f19601f820116820180604052508101906107b99190612805565b90505f73ffffffffffffffffffffffffffffffffffffffff168173ffffffffffffffffffffffffffffffffffffffff16036107f5575050610a49565b5f8190505f5f8273ffffffffffffffffffffffffffffffffffffffff16630902f1ac6040518163ffffffff1660e01b8152600401606060405180830381865afa158015610844573d5f5f3e3d5ffd5b505050506040513d601f19601f8201168201806040525081019061086891906128ac565b50915091505f826dffffffffffffffffffffffffffff16148061089a57505f816dffffffffffffffffffffffffffff16145b156108a9575050505050610a49565b5f73418c24191ae947a78c99fdc0e45a1f96afb254be73ffffffffffffffffffffffffffffffffffffffff168473ffffffffffffffffffffffffffffffffffffffff16630dfe16816040518163ffffffff1660e01b8152600401602060405180830381865afa15801561091e573d5f5f3e3d5ffd5b505050506040513d601f19601f820116820180604052508101906109429190612805565b73ffffffffffffffffffffffffffffffffffffffff161490505f8161097757826dffffffffffffffffffffffffffff16610989565b836dffffffffffffffffffffffffffff165b90505f826109a757846dffffffffffffffffffffffffffff166109b9565b836dffffffffffffffffffffffffffff165b90505f6109c78c8484611cbc565b90505f6109d48a83611d36565b90508f60a00151811115610a3e576040518060c001604052808a73ffffffffffffffffffffffffffffffffffffffff1681526020018b73ffffffffffffffffffffffffffffffffffffffff168152602001858152602001848152602001838152602001828152509f505b505050505050505050505b8060010190506106ef565b508060010190506106e1565b5050505090565b610a6f61252b565b5f6040518060c0016040528073c02aaa39b223fe8d0a0e5c4f27ead9083c756cc273ffffffffffffffffffffffffffffffffffffffff1673ffffffffffffffffffffffffffffffffffffffff16815260200173a0b86991c6218b36c1d19d4a2e9eb0ce3606eb4873ffffffffffffffffffffffffffffffffffffffff1673ffffffffffffffffffffffffffffffffffffffff16815260200173dac17f958d2ee523a2206206994597c13d831ec773ffffffffffffffffffffffffffffffffffffffff1673ffffffffffffffffffffffffffffffffffffffff168152602001736b175474e89094c44da98b954eedeac495271d0f73ffffffffffffffffffffffffffffffffffffffff1673ffffffffffffffffffffffffffffffffffffffff168152602001732260fac5e5542a773aa44fbcfedf7c193bc2c59973ffffffffffffffffffffffffffffffffffffffff1673ffffffffffffffffffffffffffffffffffffffff16815260200173853d955acef822db058eb8505911ed77f175b99e73ffffffffffffffffffffffffffffffffffffffff1673ffffffffffffffffffffffffffffffffffffffff1681525090505f6040518060800160405280606462ffffff1662ffffff1681526020016101f462ffffff1662ffffff168152602001610bb862ffffff1662ffffff16815260200161271062ffffff1662ffffff1681525090505f5f90505b6006811015610ff1575f5f90505b6004811015610fe5575f848360068110610ca257610ca1612787565b5b602002015190505f848360048110610cbd57610cbc612787565b5b602002015190505f731f98431c8ad98523631ae4a59f267346ea31f98473ffffffffffffffffffffffffffffffffffffffff16631698ee8273418c24191ae947a78c99fdc0e45a1f96afb254be85856040518463ffffffff1660e01b8152600401610d2a93929190612919565b602060405180830381865afa158015610d45573d5f5f3e3d5ffd5b505050506040513d601f19601f82011682018060405250810190610d699190612805565b90505f73ffffffffffffffffffffffffffffffffffffffff168173ffffffffffffffffffffffffffffffffffffffff1603610da657505050610fda565b5f8173ffffffffffffffffffffffffffffffffffffffff16631a6865026040518163ffffffff1660e01b8152600401602060405180830381865afa158015610df0573d5f5f3e3d5ffd5b505050506040513d601f19601f82011682018060405250810190610e149190612993565b6fffffffffffffffffffffffffffffffff1603610e3357505050610fda565b5f73418c24191ae947a78c99fdc0e45a1f96afb254be73ffffffffffffffffffffffffffffffffffffffff166370a08231836040518263ffffffff1660e01b8152600401610e8191906125cb565b602060405180830381865afa158015610e9c573d5f5f3e3d5ffd5b505050506040513d601f19601f82011682018060405250810190610ec091906126bb565b90505f8473ffffffffffffffffffffffffffffffffffffffff166370a08231846040518263ffffffff1660e01b8152600401610efc91906125cb565b602060405180830381865afa158015610f17573d5f5f3e3d5ffd5b505050506040513d601f19601f82011682018060405250810190610f3b91906126bb565b90505f821480610f4a57505f81145b15610f59575050505050610fda565b5f610f648683611d36565b90508a60a00151811115610fd3576040518060c001604052808573ffffffffffffffffffffffffffffffffffffffff1681526020018773ffffffffffffffffffffffffffffffffffffffff1681526020018662ffffff168152602001848152602001838152602001828152509a505b5050505050505b806001019050610c85565b50806001019050610c77565b50505090565b610fff611f70565b5f73418c24191ae947a78c99fdc0e45a1f96afb254be73ffffffffffffffffffffffffffffffffffffffff166370a08231306040518263ffffffff1660e01b815260040161104d91906125cb565b602060405180830381865afa158015611068573d5f5f3e3d5ffd5b505050506040513d601f19601f8201168201806040525081019061108c91906126bb565b90505f81036110da575f5f5f6101000a81548173ffffffffffffffffffffffffffffffffffffffff021916908373ffffffffffffffffffffffffffffffffffffffff16021790555050611614565b73418c24191ae947a78c99fdc0e45a1f96afb254be73ffffffffffffffffffffffffffffffffffffffff1663a9059cbb835f0151836040518363ffffffff1660e01b815260040161112c9291906129be565b6020604051808303815f875af1158015611148573d5f5f3e3d5ffd5b505050506040513d601f19601f8201168201806040525081019061116c9190612a1a565b6111ab576040517f08c379a00000000000000000000000000000000000000000000000000000000081526004016111a290612a8f565b60405180910390fd5b5f825f015190505f5f8273ffffffffffffffffffffffffffffffffffffffff16630902f1ac6040518163ffffffff1660e01b8152600401606060405180830381865afa1580156111fd573d5f5f3e3d5ffd5b505050506040513d601f19601f8201168201806040525081019061122191906128ac565b50915091505f73418c24191ae947a78c99fdc0e45a1f96afb254be73ffffffffffffffffffffffffffffffffffffffff168473ffffffffffffffffffffffffffffffffffffffff16630dfe16816040518163ffffffff1660e01b8152600401602060405180830381865afa15801561129b573d5f5f3e3d5ffd5b505050506040513d601f19601f820116820180604052508101906112bf9190612805565b73ffffffffffffffffffffffffffffffffffffffff161490505f816112f457826dffffffffffffffffffffffffffff16611306565b836dffffffffffffffffffffffffffff165b90505f8261132457846dffffffffffffffffffffffffffff16611336565b836dffffffffffffffffffffffffffff165b90505f73418c24191ae947a78c99fdc0e45a1f96afb254be73ffffffffffffffffffffffffffffffffffffffff166370a082318a5f01516040518263ffffffff1660e01b815260040161138991906125cb565b602060405180830381865afa1580156113a4573d5f5f3e3d5ffd5b505050506040513d601f19601f820116820180604052508101906113c891906126bb565b90505f8382116113d8575f6113e5565b83826113e49190612aad565b5b90505f6113f3828686611cbc565b90505f810361144a575f5f5f6101000a81548173ffffffffffffffffffffffffffffffffffffffff021916908373ffffffffffffffffffffffffffffffffffffffff16021790555050505050505050505050611614565b8a602001515f5f6101000a81548173ffffffffffffffffffffffffffffffffffffffff021916908373ffffffffffffffffffffffffffffffffffffffff1602179055508515611550578873ffffffffffffffffffffffffffffffffffffffff1663022c0d9f5f83305f67ffffffffffffffff8111156114cc576114cb612ae0565b5b6040519080825280601f01601f1916602001820160405280156114fe5781602001600182028036833780820191505090505b506040518563ffffffff1660e01b815260040161151e9493929190612bbf565b5f604051808303815f87803b158015611535575f5ffd5b505af1158015611547573d5f5f3e3d5ffd5b50505050611609565b8873ffffffffffffffffffffffffffffffffffffffff1663022c0d9f825f305f67ffffffffffffffff81111561158957611588612ae0565b5b6040519080825280601f01601f1916602001820160405280156115bb5781602001600182028036833780820191505090505b506040518563ffffffff1660e01b81526004016115db9493929190612c09565b5f604051808303815f87803b1580156115f2575f5ffd5b505af1158015611604573d5f5f3e3d5ffd5b505050505b505050505050505050505b50565b61161f611f70565b5f73418c24191ae947a78c99fdc0e45a1f96afb254be73ffffffffffffffffffffffffffffffffffffffff166370a08231306040518263ffffffff1660e01b815260040161166d91906125cb565b602060405180830381865afa158015611688573d5f5f3e3d5ffd5b505050506040513d601f19601f820116820180604052508101906116ac91906126bb565b90505f81036116fa575f5f5f6101000a81548173ffffffffffffffffffffffffffffffffffffffff021916908373ffffffffffffffffffffffffffffffffffffffff16021790555050611943565b61172d73418c24191ae947a78c99fdc0e45a1f96afb254be73e592427a0aece92de3edee1f18e0157c058615648361201b565b73e592427a0aece92de3edee1f18e0157c0586156473ffffffffffffffffffffffffffffffffffffffff1663414bf38960405180610100016040528073418c24191ae947a78c99fdc0e45a1f96afb254be73ffffffffffffffffffffffffffffffffffffffff168152602001856020015173ffffffffffffffffffffffffffffffffffffffff168152602001856040015162ffffff1681526020013073ffffffffffffffffffffffffffffffffffffffff1681526020014281526020018481526020015f81526020015f73ffffffffffffffffffffffffffffffffffffffff168152506040518263ffffffff1660e01b815260040161182c9190612d2f565b6020604051808303815f875af192505050801561186757506040513d601f19601f8201168201806040525081019061186491906126bb565b60015b6118af575f5f5f6101000a81548173ffffffffffffffffffffffffffffffffffffffff021916908373ffffffffffffffffffffffffffffffffffffffff160217905550611941565b5f81036118fc575f5f5f6101000a81548173ffffffffffffffffffffffffffffffffffffffff021916908373ffffffffffffffffffffffffffffffffffffffff1602179055505050611943565b82602001515f5f6101000a81548173ffffffffffffffffffffffffffffffffffffffff021916908373ffffffffffffffffffffffffffffffffffffffff160217905550505b505b50565b5f5f5f9054906101000a900473ffffffffffffffffffffffffffffffffffffffff1690505f73ffffffffffffffffffffffffffffffffffffffff168173ffffffffffffffffffffffffffffffffffffffff1614806119e3575073c02aaa39b223fe8d0a0e5c4f27ead9083c756cc273ffffffffffffffffffffffffffffffffffffffff168173ffffffffffffffffffffffffffffffffffffffff16145b156119ee5750611cba565b5f8173ffffffffffffffffffffffffffffffffffffffff166370a08231306040518263ffffffff1660e01b8152600401611a2891906125cb565b602060405180830381865afa158015611a43573d5f5f3e3d5ffd5b505050506040513d601f19601f82011682018060405250810190611a6791906126bb565b90505f8103611ab6575f5f5f6101000a81548173ffffffffffffffffffffffffffffffffffffffff021916908373ffffffffffffffffffffffffffffffffffffffff1602179055505050611cba565b5f5f611ac184612194565b915091505f73ffffffffffffffffffffffffffffffffffffffff168273ffffffffffffffffffffffffffffffffffffffff1603611b015750505050611cba565b611b208473e592427a0aece92de3edee1f18e0157c058615648561201b565b73e592427a0aece92de3edee1f18e0157c0586156473ffffffffffffffffffffffffffffffffffffffff1663414bf3896040518061010001604052808773ffffffffffffffffffffffffffffffffffffffff16815260200173c02aaa39b223fe8d0a0e5c4f27ead9083c756cc273ffffffffffffffffffffffffffffffffffffffff1681526020018462ffffff1681526020013073ffffffffffffffffffffffffffffffffffffffff1681526020014281526020018681526020015f81526020015f73ffffffffffffffffffffffffffffffffffffffff168152506040518263ffffffff1660e01b8152600401611c179190612d2f565b6020604051808303815f875af1925050508015611c5257506040513d601f19601f82011682018060405250810190611c4f91906126bb565b60015b15611cb5575f811115611cb35773c02aaa39b223fe8d0a0e5c4f27ead9083c756cc25f5f6101000a81548173ffffffffffffffffffffffffffffffffffffffff021916908373ffffffffffffffffffffffffffffffffffffffff1602179055505b505b505050505b565b5f5f841480611cca57505f83145b80611cd457505f82145b15611ce1575f9050611d2f565b5f6103e585611cf09190612713565b90505f8382611cff9190612713565b90505f826103e887611d119190612713565b611d1b9190612754565b90508082611d299190612d76565b93505050505b9392505050565b5f73c02aaa39b223fe8d0a0e5c4f27ead9083c756cc273ffffffffffffffffffffffffffffffffffffffff168373ffffffffffffffffffffffffffffffffffffffff1603611da657670de0b6b3a76400006107d083611d959190612713565b611d9f9190612d76565b9050611f6a565b732260fac5e5542a773aa44fbcfedf7c193bc2c59973ffffffffffffffffffffffffffffffffffffffff168373ffffffffffffffffffffffffffffffffffffffff1603611e11576305f5e100614e2083611e009190612713565b611e0a9190612d76565b9050611f6a565b73a0b86991c6218b36c1d19d4a2e9eb0ce3606eb4873ffffffffffffffffffffffffffffffffffffffff168373ffffffffffffffffffffffffffffffffffffffff161480611e9e575073dac17f958d2ee523a2206206994597c13d831ec773ffffffffffffffffffffffffffffffffffffffff168373ffffffffffffffffffffffffffffffffffffffff16145b15611eb957620f424082611eb29190612d76565b9050611f6a565b736b175474e89094c44da98b954eedeac495271d0f73ffffffffffffffffffffffffffffffffffffffff168373ffffffffffffffffffffffffffffffffffffffff161480611f46575073853d955acef822db058eb8505911ed77f175b99e73ffffffffffffffffffffffffffffffffffffffff168373ffffffffffffffffffffffffffffffffffffffff16145b15611f6657670de0b6b3a764000082611f5f9190612d76565b9050611f6a565b5f90505b92915050565b5f5f90505b6102008110156120185773418c24191ae947a78c99fdc0e45a1f96afb254be73ffffffffffffffffffffffffffffffffffffffff16631249c58b6040518163ffffffff1660e01b81526004016020604051808303815f875af1925050508015611ffc57506040513d601f19601f82011682018060405250810190611ff99190612a1a565b60015b15612018578061200c5750612018565b50806001019050611f75565b50565b8273ffffffffffffffffffffffffffffffffffffffff1663095ea7b3835f6040518363ffffffff1660e01b8152600401612056929190612da6565b6020604051808303815f875af1158015612072573d5f5f3e3d5ffd5b505050506040513d601f19601f820116820180604052508101906120969190612a1a565b6120d5576040517f08c379a00000000000000000000000000000000000000000000000000000000081526004016120cc90612e17565b60405180910390fd5b8273ffffffffffffffffffffffffffffffffffffffff1663095ea7b383836040518363ffffffff1660e01b81526004016121109291906129be565b6020604051808303815f875af115801561212c573d5f5f3e3d5ffd5b505050506040513d601f19601f820116820180604052508101906121509190612a1a565b61218f576040517f08c379a000000000000000000000000000000000000000000000000000000000815260040161218690612e7f565b60405180910390fd5b505050565b5f5f5f6040518060800160405280606462ffffff1662ffffff1681526020016101f462ffffff1662ffffff168152602001610bb862ffffff1662ffffff16815260200161271062ffffff1662ffffff1681525090505f5f5f90505b60048110156124c7575f83826004811061220c5761220b612787565b5b602002015190505f731f98431c8ad98523631ae4a59f267346ea31f98473ffffffffffffffffffffffffffffffffffffffff16631698ee828973c02aaa39b223fe8d0a0e5c4f27ead9083c756cc2856040518463ffffffff1660e01b815260040161227993929190612919565b602060405180830381865afa158015612294573d5f5f3e3d5ffd5b505050506040513d601f19601f820116820180604052508101906122b89190612805565b90505f73ffffffffffffffffffffffffffffffffffffffff168173ffffffffffffffffffffffffffffffffffffffff16036122f45750506124bc565b5f8173ffffffffffffffffffffffffffffffffffffffff16631a6865026040518163ffffffff1660e01b8152600401602060405180830381865afa15801561233e573d5f5f3e3d5ffd5b505050506040513d601f19601f820116820180604052508101906123629190612993565b6fffffffffffffffffffffffffffffffff16036123805750506124bc565b5f8873ffffffffffffffffffffffffffffffffffffffff166370a08231836040518263ffffffff1660e01b81526004016123ba91906125cb565b602060405180830381865afa1580156123d5573d5f5f3e3d5ffd5b505050506040513d601f19601f820116820180604052508101906123f991906126bb565b90505f73c02aaa39b223fe8d0a0e5c4f27ead9083c756cc273ffffffffffffffffffffffffffffffffffffffff166370a08231846040518263ffffffff1660e01b815260040161244991906125cb565b602060405180830381865afa158015612464573d5f5f3e3d5ffd5b505050506040513d601f19601f8201168201806040525081019061248891906126bb565b90505f82148061249757505f81145b156124a557505050506124bc565b858111156124b7578095508298508397505b505050505b8060010190506121ef565b505050915091565b6040518060c001604052805f73ffffffffffffffffffffffffffffffffffffffff1681526020015f73ffffffffffffffffffffffffffffffffffffffff1681526020015f81526020015f81526020015f81526020015f81525090565b6040518060c001604052805f73ffffffffffffffffffffffffffffffffffffffff1681526020015f73ffffffffffffffffffffffffffffffffffffffff1681526020015f62ffffff1681526020015f81526020015f81526020015f81525090565b5f73ffffffffffffffffffffffffffffffffffffffff82169050919050565b5f6125b58261258c565b9050919050565b6125c5816125ab565b82525050565b5f6020820190506125de5f8301846125bc565b92915050565b5f819050919050565b6125f6816125e4565b82525050565b5f60208201905061260f5f8301846125ed565b92915050565b5f82825260208201905092915050565b7f616c7265616479206578656375746564000000000000000000000000000000005f82015250565b5f612659601083612615565b915061266482612625565b602082019050919050565b5f6020820190508181035f8301526126868161264d565b9050919050565b5f5ffd5b61269a816125e4565b81146126a4575f5ffd5b50565b5f815190506126b581612691565b92915050565b5f602082840312156126d0576126cf61268d565b5b5f6126dd848285016126a7565b91505092915050565b7f4e487b71000000000000000000000000000000000000000000000000000000005f52601160045260245ffd5b5f61271d826125e4565b9150612728836125e4565b9250828202612736816125e4565b9150828204841483151761274d5761274c6126e6565b5b5092915050565b5f61275e826125e4565b9150612769836125e4565b9250828201905080821115612781576127806126e6565b5b92915050565b7f4e487b71000000000000000000000000000000000000000000000000000000005f52603260045260245ffd5b5f6040820190506127c75f8301856125bc565b6127d460208301846125bc565b9392505050565b6127e4816125ab565b81146127ee575f5ffd5b50565b5f815190506127ff816127db565b92915050565b5f6020828403121561281a5761281961268d565b5b5f612827848285016127f1565b91505092915050565b5f6dffffffffffffffffffffffffffff82169050919050565b61285281612830565b811461285c575f5ffd5b50565b5f8151905061286d81612849565b92915050565b5f63ffffffff82169050919050565b61288b81612873565b8114612895575f5ffd5b50565b5f815190506128a681612882565b92915050565b5f5f5f606084860312156128c3576128c261268d565b5b5f6128d08682870161285f565b93505060206128e18682870161285f565b92505060406128f286828701612898565b9150509250925092565b5f62ffffff82169050919050565b612913816128fc565b82525050565b5f60608201905061292c5f8301866125bc565b61293960208301856125bc565b612946604083018461290a565b949350505050565b5f6fffffffffffffffffffffffffffffffff82169050919050565b6129728161294e565b811461297c575f5ffd5b50565b5f8151905061298d81612969565b92915050565b5f602082840312156129a8576129a761268d565b5b5f6129b58482850161297f565b91505092915050565b5f6040820190506129d15f8301856125bc565b6129de60208301846125ed565b9392505050565b5f8115159050919050565b6129f9816129e5565b8114612a03575f5ffd5b50565b5f81519050612a14816129f0565b92915050565b5f60208284031215612a2f57612a2e61268d565b5b5f612a3c84828501612a06565b91505092915050565b7f7472616e73666572206661696c656400000000000000000000000000000000005f82015250565b5f612a79600f83612615565b9150612a8482612a45565b602082019050919050565b5f6020820190508181035f830152612aa681612a6d565b9050919050565b5f612ab7826125e4565b9150612ac2836125e4565b9250828203905081811115612ada57612ad96126e6565b5b92915050565b7f4e487b71000000000000000000000000000000000000000000000000000000005f52604160045260245ffd5b5f819050919050565b5f819050919050565b5f612b39612b34612b2f84612b0d565b612b16565b6125e4565b9050919050565b612b4981612b1f565b82525050565b5f81519050919050565b5f82825260208201905092915050565b8281835e5f83830152505050565b5f601f19601f8301169050919050565b5f612b9182612b4f565b612b9b8185612b59565b9350612bab818560208601612b69565b612bb481612b77565b840191505092915050565b5f608082019050612bd25f830187612b40565b612bdf60208301866125ed565b612bec60408301856125bc565b8181036060830152612bfe8184612b87565b905095945050505050565b5f608082019050612c1c5f8301876125ed565b612c296020830186612b40565b612c3660408301856125bc565b8181036060830152612c488184612b87565b905095945050505050565b612c5c816125ab565b82525050565b612c6b816128fc565b82525050565b612c7a816125e4565b82525050565b612c898161258c565b82525050565b61010082015f820151612ca45f850182612c53565b506020820151612cb76020850182612c53565b506040820151612cca6040850182612c62565b506060820151612cdd6060850182612c53565b506080820151612cf06080850182612c71565b5060a0820151612d0360a0850182612c71565b5060c0820151612d1660c0850182612c71565b5060e0820151612d2960e0850182612c80565b50505050565b5f61010082019050612d435f830184612c8f565b92915050565b7f4e487b71000000000000000000000000000000000000000000000000000000005f52601260045260245ffd5b5f612d80826125e4565b9150612d8b836125e4565b925082612d9b57612d9a612d49565b5b828204905092915050565b5f604082019050612db95f8301856125bc565b612dc66020830184612b40565b9392505050565b7f617070726f7665207265736574206661696c65640000000000000000000000005f82015250565b5f612e01601483612615565b9150612e0c82612dcd565b602082019050919050565b5f6020820190508181035f830152612e2e81612df5565b9050919050565b7f617070726f7665206661696c65640000000000000000000000000000000000005f82015250565b5f612e69600e83612615565b9150612e7482612e35565b602082019050919050565b5f6020820190508181035f830152612e9681612e5d565b905091905056fea26469706673582212208401e29b13c4970a1703755b50cc11ac1c452a3101a77ab46226e13a056a4dbb64736f6c634300081e0033","linkReferences":{}},"methodIdentifiers":{"executeOnOpportunity()":"3c2448ed","profitAmount()":"5ff972cc","profitToken()":"49343624"},"id":0}