{"abi":[{"type":"constructor","inputs":[],"stateMutability":"nonpayable"},{"type":"receive","stateMutability":"payable"},{"type":"function","name":"TARGET","inputs":[],"outputs":[{"name":"","type":"address","internalType":"address"}],"stateMutability":"view"},{"type":"function","name":"WETH_TOKEN","inputs":[],"outputs":[{"name":"","type":"address","internalType":"address"}],"stateMutability":"view"},{"type":"function","name":"executeOnOpportunity","inputs":[],"outputs":[],"stateMutability":"nonpayable"},{"type":"function","name":"exploitPathUsed","inputs":[],"outputs":[{"name":"","type":"string","internalType":"string"}],"stateMutability":"pure"},{"type":"function","name":"failureReason","inputs":[],"outputs":[{"name":"","type":"string","internalType":"string"}],"stateMutability":"view"},{"type":"function","name":"hypothesisValidated","inputs":[],"outputs":[{"name":"","type":"bool","internalType":"bool"}],"stateMutability":"view"},{"type":"function","name":"onERC1155BatchReceived","inputs":[{"name":"","type":"address","internalType":"address"},{"name":"","type":"address","internalType":"address"},{"name":"","type":"uint256[]","internalType":"uint256[]"},{"name":"","type":"uint256[]","internalType":"uint256[]"},{"name":"","type":"bytes","internalType":"bytes"}],"outputs":[{"name":"","type":"bytes4","internalType":"bytes4"}],"stateMutability":"pure"},{"type":"function","name":"onERC1155Received","inputs":[{"name":"","type":"address","internalType":"address"},{"name":"","type":"address","internalType":"address"},{"name":"","type":"uint256","internalType":"uint256"},{"name":"","type":"uint256","internalType":"uint256"},{"name":"","type":"bytes","internalType":"bytes"}],"outputs":[{"name":"","type":"bytes4","internalType":"bytes4"}],"stateMutability":"pure"},{"type":"function","name":"onERC721Received","inputs":[{"name":"","type":"address","internalType":"address"},{"name":"","type":"address","internalType":"address"},{"name":"","type":"uint256","internalType":"uint256"},{"name":"","type":"bytes","internalType":"bytes"}],"outputs":[{"name":"","type":"bytes4","internalType":"bytes4"}],"stateMutability":"pure"},{"type":"function","name":"profitAmount","inputs":[],"outputs":[{"name":"","type":"uint256","internalType":"uint256"}],"stateMutability":"view"},{"type":"function","name":"profitToken","inputs":[],"outputs":[{"name":"","type":"address","internalType":"address"}],"stateMutability":"view"},{"type":"function","name":"supportsInterface","inputs":[{"name":"interfaceId","type":"bytes4","internalType":"bytes4"}],"outputs":[{"name":"","type":"bool","internalType":"bool"}],"stateMutability":"pure"},{"type":"function","name":"uniswapV2Call","inputs":[{"name":"sender","type":"address","internalType":"address"},{"name":"amount0","type":"uint256","internalType":"uint256"},{"name":"amount1","type":"uint256","internalType":"uint256"},{"name":"","type":"bytes","internalType":"bytes"}],"outputs":[],"stateMutability":"nonpayable"}],"bytecode":{"object":"0x6080806040523460155761224a908161001a8239f35b5f80fdfe608080604052600436101561001c575b50361561001a575f80fd5b005b5f905f3560e01c90816301ffc9a7146108c45750806310d1e85c14610488578063150b7a021461043157806337d277d4146104095780633c2448ed146103ed578063463defd1146103ca57806349343624146103a35780634f9522a4146102d35780635ff972cc146102b5578063bc197c811461021c578063cc1f2afa146101f4578063d78c42811461010e5763f23a6e610361000f573461010b5760a036600319011261010b576100cc61092f565b506100d5610945565b506084356001600160401b038111610109576100f590369060040161095b565b505060405163f23a6e6160e01b8152602090f35b505b80fd5b503461010b578060031936011261010b57506101f060405161013160c082610a27565b608681527f76696374696d20637265617465732056206174206c6f63616c20696e6465782060208201527f69202d3e2061747461636b65722063726561746573206f70656e656420656d7060408201527f747920737761707320756e74696c206f776e206c6f63616c20696e646578206960608201527f202d3e2061747461636b65722063616c6c732063616e63656c53776170496e74608082015265656e7428562960d01b60a0820152604051918291602083526020830190610988565b0390f35b503461010b578060031936011261010b5760206040515f5160206121f55f395f51905f528152f35b503461010b5760a036600319011261010b5761023661092f565b5061023f610945565b506044356001600160401b0381116101095761025f9036906004016109ac565b50506064356001600160401b038111610109576102809036906004016109ac565b50506084356001600160401b038111610109576102a190369060040161095b565b505060405163bc197c8160e01b8152602090f35b503461010b578060031936011261010b576020600154604051908152f35b503461010b578060031936011261010b576040519080600354906102f6826115b1565b808552916001811690811561037c5750600114610332575b6101f08461031e81860382610a27565b604051918291602083526020830190610988565b600381525f5160206121d55f395f51905f52939250905b8082106103625750909150810160200161031e8261030e565b919260018160209254838588010152019101909291610349565b60ff191660208087019190915292151560051b8501909201925061031e915083905061030e565b503461010b578060031936011261010b57546040516001600160a01b039091168152602090f35b503461010b578060031936011261010b57602060ff600254166040519015158152f35b503461010b578060031936011261010b57610406610a77565b80f35b503461010b578060031936011261010b5760206040515f5160206121b55f395f51905f528152f35b503461010b57608036600319011261010b5761044b61092f565b50610454610945565b506064356001600160401b0381116101095761047490369060040161095b565b5050604051630a85bd0160e11b8152602090f35b50346107a65760803660031901126107a6576104a261092f565b602435906064356001600160401b0381116107a6576104c590369060040161095b565b5050306001600160a01b039091160361088b57600b5460ff811661085a5760405163e6a4390560e01b81525f5160206121b55f395f51905f52600482015273a0b86991c6218b36c1d19d4a2e9eb0ce3606eb48602482015291602083604481735c69bee701ef814a2b6a3edd4b1652cb9cc5aa6f5afa92831561079b575f9361081e575b506001600160a01b03831633036107e75780156107dd57905b81156107aa5760ff1916600117600b555f5160206121b55f395f51905f523b156107a657604051632e1a7d4d60e01b8152600481018290525f81602481835f5160206121b55f395f51905f525af1801561079b57610786575b506105c4611635565b60ff19600b5416600b556103e881029081046103e803610772576103e5900490600182018092116107725781471061072d575f5160206121b55f395f51905f523b1561072957604051630d0e30db60e41b815283908181600481875f5160206121b55f395f51905f525af1801561070957610714575b505060405163a9059cbb60e01b81526001600160a01b039190911660048201526024810191909152602081604481855f5160206121b55f395f51905f525af19081156107095782916106ce575b50156106905780f35b60405162461bcd60e51b8152602060048201526016602482015275199b185cda1cddd85c081c995c185e4819985a5b195960521b6044820152606490fd5b90506020813d602011610701575b816106e960209383610a27565b8101031261010957518015158103610109575f610687565b3d91506106dc565b6040513d84823e3d90fd5b8161071e91610a27565b61072957825f61063a565b8280fd5b60405162461bcd60e51b815260206004820152601f60248201527f666c617368737761702072657061796d656e7420756e617661696c61626c65006044820152606490fd5b634e487b7160e01b83526011600452602483fd5b6107939193505f90610a27565b5f915f6105bb565b6040513d5f823e3d90fd5b5f80fd5b60405162461bcd60e51b815260206004820152600b60248201526a7a65726f20626f72726f7760a81b6044820152606490fd5b5060443590610562565b60405162461bcd60e51b815260206004820152600f60248201526e3ab732bc3832b1ba32b2103830b4b960891b6044820152606490fd5b9092506020813d602011610852575b8161083a60209383610a27565b810103126107a65761084b90610a48565b915f610549565b3d915061082d565b60405162461bcd60e51b81526020600482015260096024820152681c99595b9d195c995960ba1b6044820152606490fd5b60405162461bcd60e51b81526020600482015260116024820152703ab732bc3832b1ba32b21039b2b73232b960791b6044820152606490fd5b346107a65760203660031901126107a6576004359063ffffffff60e01b82168092036107a657602091630a85bd0160e11b811490811561091e575b811561090d575b5015158152f35b63bc197c8160e01b14905083610906565b63f23a6e6160e01b811491506108ff565b600435906001600160a01b03821682036107a657565b602435906001600160a01b03821682036107a657565b9181601f840112156107a6578235916001600160401b0383116107a657602083818601950101116107a657565b805180835260209291819084018484015e5f828201840152601f01601f1916010190565b9181601f840112156107a6578235916001600160401b0383116107a6576020808501948460051b0101116107a657565b60a081019081106001600160401b038211176109f757604052565b634e487b7160e01b5f52604160045260245ffd5b61010081019081106001600160401b038211176109f757604052565b90601f801991011681019081106001600160401b038211176109f757604052565b51906001600160a01b03821682036107a657565b6001600160401b0381116109f757601f01601f191660200190565b600154158015906115a5575b610c9057610a8f611a40565b801561152f57610a9d611c2f565b905f5b818110610e17575050805115610d8a578051151560ff80196004541691161760045560208101516005556040810190815160065560018060a01b036060820151166bffffffffffffffffffffffff60a01b6007541617600755608081015160085560a081015160095560ff60c08201511661ff0060e0600a5493015160081b169161ffff19161717600a55610b33611cc8565b15610d8357610b40611d56565b905b519060018201809211610d6f57818102918183041490151715610d6f5780158015610d65575b610d5c5760405163e6a4390560e01b81525f5160206121b55f395f51905f52600482015273a0b86991c6218b36c1d19d4a2e9eb0ce3606eb486024820152602081604481735c69bee701ef814a2b6a3edd4b1652cb9cc5aa6f5afa90811561079b575f91610d22575b506001600160a01b0316908115610ce457604051630dfe168160e01b8152602081600481865afa801561079b575f90610c9e575b6001600160a01b03165f5160206121b55f395f51905f52149190508115610c975780915b15610c9257505f5b823b156107a65760c45f9283604051958694859363022c0d9f60e01b8552600485015260248401523060448401526080606484015260016084840152600160f81b60a48401525af1801561079b57610c865750565b5f610c9091610a27565b565b610c31565b5f91610c29565b506020813d602011610cdc575b81610cb860209383610a27565b810103126107a657610cd75f5160206121b55f395f51905f5291610a48565b610c05565b3d9150610cab565b60405162461bcd60e51b815260206004820152601660248201527536b4b9b9b4b733902ba2aa2417aaa9a221903830b4b960511b6044820152606490fd5b90506020813d602011610d54575b81610d3d60209383610a27565b810103126107a657610d4e90610a48565b5f610bd1565b3d9150610d30565b50610c90611635565b5080471015610b68565b634e487b7160e01b5f52601160045260245ffd5b5f90610b42565b50610c90604051610d9c608082610a27565b605981527f4c6976652073776170732065786973742c20627574206e6f207472616e73666560208201527f7261626c65206e6f6e2d43727970746f50756e6b206e6674734f6e652062756360408201527f6b6574206973206f70656e206f6e207468697320666f726b2e000000000000006060820152611ac4565b6040516342a2291760e01b815260048101829052600160248201526020816044815f5160206121f55f395f51905f525afa90811561079b575f916114fe575b508015610fb557610e65611c2f565b90600182528260208301526040516020810190848252600e604082015260408152610e91606082610a27565b51902060405190630667f9d760e41b82525f5160206121f55f395f51905f5260048301526024820152602081604481737109709ecfa91a80626ff3989d68f67f5b1dd12d5afa90811561079b575f916114cd575b5060408301525f906001825b828110610fc7575b50905015908115610fbe575b50610fb5578351158015610fa4575b8015610f7b575b8015610f3b575b610f32575b506001905b01610aa0565b92506001610f27565b50604081015160408501511480610f64575b8015610f22575060a081015160a085015110610f22565b5060ff60e08201511660ff60e08601511614610f4d565b5060408101516040850151148015610f1b575060ff60e08201511660ff60e08601511610610f1b565b506040810151604085015111610f14565b50600190610f2c565b9050155f610f05565b6040516308f82a9360e21b8152866004820152600160248201528160448201525f816064815f5160206121f55f395f51905f525afa90811561079b575f916113be575b506020810180519094906001600160a01b03167390b7cf88476cc99d295429d4c1bb1ff52448abee146112f15784516001600160a01b03167358874d2951524f7f851bbbe240f0c3cf0b992d79146112145784516001600160a01b031673edfdd7266667d48f3c9ab10194c3d325813d8c39146110bc57505091516001600160a01b031673b47e3cd837ddf8e4c57f05d70ab865de6e193bbb1491506110b49050575f805f610ef9565b5f805f610ef9565b9094999596935060408599939998929801958651518015908115611204575b506111f1575f5b875180518210156111df5761111b906111058360018060a01b038b511692611621565b516111148460608c0151611621565b5191612166565b15611128576001016110e2565b509992985092959096945f925b83156111d65750906001918295611163606061115a868060a01b038451169451611600565b51920151611600565b5161116c611c2f565b5060e084019160ff835116806002119081156111b8575b50611195575b50505050945b01610ef1565b6002936060860152608085015260a0840152600360c0840152525f808080611189565b9050600214806111c9575b5f611183565b5060a085015182116111c3565b94505093610ef9565b50509998929897959093969197611135565b99945050955095509291505f805f610ef9565b905060608701515114155f6110db565b935093604085969296019081518051159081156112c9575b506112ba57509060019161124b8396848060a01b039051169151611600565b51611254611c2f565b5060e083019060ff8251168060021190811561129c575b5061127a575b5050509461118f565b600292606085015260808401528660a08401528160c0840152525f8080611271565b9050600214806112ad575b5f61126b565b5060a084015188116112a7565b945050935050505f805f610ef9565b87516112ea92506001600160a01b0316906112e390611600565b51906120d3565b155f61122c565b93509360608596929601908151805115908115611396575b506112ba5750906001916113288396848060a01b039051169151611600565b51611331611c2f565b5060e083019060ff82511680600311908115611378575b50611356575050509461118f565b60039260608501525f608085015260a08401528660c0840152525f8080611271565b905060031480611389575b5f611348565b5060a08401518111611383565b87516113b792506001600160a01b0316906113b090611600565b5190612051565b155f611309565b90503d805f833e6113cf8183610a27565b8101906020818303126107a6578051906001600160401b0382116107a657019060a0828203126107a65760405191611406836109dc565b61140f81610a48565b835261141d60208201610a48565b602084015260408101516001600160401b0381116107a65782611441918301611c6b565b604084015260608101516001600160401b0381116107a65782611465918301611c6b565b60608401526080810151906001600160401b0382116107a6570181601f820112156107a65780519061149682610a5c565b926114a46040519485610a27565b828452602083830101116107a657815f9260208093018386015e8301015260808201525f61100a565b90506020813d82116114f6575b816114e760209383610a27565b810103126107a657515f610ee5565b3d91506114da565b90506020813d8211611527575b8161151860209383610a27565b810103126107a657515f610e56565b3d915061150b565b50610c90604051611541608082610a27565b604681527f466f726b20736e617073686f7420686173207a65726f207265636f726465642060208201527f73776170732c20736f206e6f2076696374696d206275636b657420657869737460408201526539903cb2ba1760d11b6060820152611ac4565b5060ff60025416610a83565b90600182811c921680156115df575b60208310146115cb57565b634e487b7160e01b5f52602260045260245ffd5b91607f16916115c0565b6001600160401b0381116109f75760051b60200190565b80511561160d5760200190565b634e487b7160e01b5f52603260045260245ffd5b805182101561160d5760209160051b010190565b60405161164181610a0b565b60ff600454161591821582526005549160208101928352600654936040820194855260018060a01b03600754169160608101928352600854916080820192835260095460a0830152600a549160e060ff60c0830194818116865260081c16910152611a07578251815183516116c492909160ff16906001600160a01b0316611dab565b916116cd611cc8565b15611a00576116da611d56565b955b87519660018801809811610d6f576116f3886115e9565b97611701604051998a610a27565b808952601f19611710826115e9565b013660208b01375f5b81811061189c57505050515f5160206121f55f395f51905f523b156107a6576040519063371e228960e21b825260048201525f81602481835f5160206121f55f395f51905f525af1801561079b5761188c575b50600160ff1960025416176002555f5b87518110156117f45761178f8188611621565b51905f5160206121f55f395f51905f523b156107a6576040519163371e228960e21b835260048301525f82602481835f5160206121f55f395f51905f525af191821561079b576001926117e4575b500161177c565b5f6117ee91610a27565b5f6117dd565b50909193955061181792945060ff60018060a01b03865116925116905191611dab565b918183111561184e5760018060a01b039051166bffffffffffffffffffffffff60a01b5f5416175f558103908111610d6f57600155565b60405162461bcd60e51b81526020600482015260166024820152753737903932b0b634bd32b21030b9b9b2ba1033b0b4b760511b6044820152606490fd5b5f61189691610a27565b5f61176c565b6118a4611a40565b6118ae828c611621565b526040519061012082018281106001600160401b038211176109f7576040525f825260208201915f835260408101925f845260608201915f8352608081015f815260a082015f815260c083015f815260e084015f81526101008501915f8352611915611f16565b9361191e611f16565b955f5160206121f55f395f51905f523b156107a6578d996040519c8d9a8b9a63c041abb160e01b8c525160048c0152600160a01b6001900390511660248b01525160448a0152600160a01b6001900390511660648901525160848801525160a48701525160c48601525160e48501525160ff166101048401526101248301610160905261016483016119af91611fa2565b828103600319016101448401526119c591611fa2565b03815a935f5160206121f55f395f51905f525f95f191821561079b576001926119f0575b5001611719565b5f6119fa91610a27565b5f6119e9565b5f956116dc565b60405162461bcd60e51b815260206004820152601160248201527063616e646964617465206d697373696e6760781b6044820152606490fd5b604051630667f9d760e41b81525f5160206121f55f395f51905f52600482015260096024820152602081604481737109709ecfa91a80626ff3989d68f67f5b1dd12d5afa90811561079b575f91611a95575090565b90506020813d602011611abc575b81611ab060209383610a27565b810103126107a6575190565b3d9150611aa3565b90600160ff19600254161760025581516001600160401b0381116109f757611aed6003546115b1565b601f8111611bc7575b50602092601f8211600114611b5b57928192935f92611b50575b50508160011b915f199060031b1c1916176003555b5f80546001600160a01b0319165f5160206121b55f395f51905f5217905566038d7ea4c68000600155565b015190505f80611b10565b601f1982169360035f525f5160206121d55f395f51905f52915f5b868110611baf5750836001959610611b97575b505050811b01600355611b25565b01515f1960f88460031b161c191690555f8080611b89565b91926020600181928685015181550194019201611b76565b60035f52601f820160051c5f5160206121d55f395f51905f52019060208310611c1a575b601f0160051c5f5160206121d55f395f51905f5201905b818110611c0f5750611af6565b5f8155600101611c02565b5f5160206121d55f395f51905f529150611beb565b60405190611c3c82610a0b565b5f60e0838281528260208201528260408201528260608201528260808201528260a08201528260c08201520152565b9080601f830112156107a6578151611c82816115e9565b92611c906040519485610a27565b81845260208085019260051b8201019283116107a657602001905b828210611cb85750505090565b8151815260209182019101611cab565b604051630667f9d760e41b81525f5160206121f55f395f51905f526004820152600f6024820152602081604481737109709ecfa91a80626ff3989d68f67f5b1dd12d5afa801561079b575f90611d23575b60ff915016151590565b506020813d602011611d4e575b81611d3d60209383610a27565b810103126107a65760ff9051611d19565b3d9150611d30565b604051630667f9d760e41b81525f5160206121f55f395f51905f52600482015260106024820152602081604481737109709ecfa91a80626ff3989d68f67f5b1dd12d5afa90811561079b575f91611a95575090565b9060ff1660018114611eda5760028114611e4457600314611dcc5750505f90565b604051627eeac760e11b81523060048201526024810192909252602090829060449082906001600160a01b03165afa5f9181611e10575b50611e0d57505f90565b90565b9091506020813d602011611e3c575b81611e2c60209383610a27565b810103126107a65751905f611e03565b3d9150611e1f565b505f9150819060405160208101906370a0823160e01b825230602482015260248152611e71604482610a27565b51915afa3d15611ed2573d90611e8682610a5c565b91611e946040519384610a27565b82523d5f602084013e5b158015611ec7575b611ec257602081519181808201938492010103126107a6575190565b505f90565b506020815110611ea6565b606090611e9e565b506040516370a0823160e01b81523060048201529150602090829060249082906001600160a01b03165afa5f9181611e105750611e0d57505f90565b60405190611f25602083610a27565b5f80835282815b828110611f3857505050565b602090604051611f47816109dc565b5f81525f83820152606060408201526060808201526060608082015282828501015201611f2c565b90602080835192838152019201905f5b818110611f8c5750505090565b8251845260209384019390920191600101611f7f565b9080602083519182815201916020808360051b8301019401925f915b838310611fcd57505050505090565b9091929394602080612042600193601f19868203018752895190858060a01b038251168152858060a01b03848301511684820152608061203161201f604085015160a0604086015260a0850190611f6f565b60608501518482036060860152611f6f565b920151906080818403910152610988565b97019301930191939290611fbe565b6040516370a0823160e01b81525f5160206121f55f395f51905f52600482015290602090829060249082906001600160a01b03165afa5f918161209f575b5061209a5750505f90565b101590565b9091506020813d6020116120cb575b816120bb60209383610a27565b810103126107a65751905f61208f565b3d91506120ae565b6040516331a9108f60e11b81526004810192909252602090829060249082906001600160a01b03165afa5f918161212a575b5061210f57505f90565b6001600160a01b03165f5160206121f55f395f51905f521490565b9091506020813d60201161215e575b8161214660209383610a27565b810103126107a65761215790610a48565b905f612105565b3d9150612139565b604051627eeac760e11b81525f5160206121f55f395f51905f5260048201526024810192909252602090829060449082906001600160a01b03165afa5f918161209f575061209a5750505f9056fe000000000000000000000000c02aaa39b223fe8d0a0e5c4f27ead9083c756cc2c2575a0e9e593c00f959f8c92f12db2869c3395a3b0502d05e2516446f71f85b000000000000000000000000c310e760778ecbca4c65b6c559874757a4c4ece0a2646970667358221220dfddbf1000cd73734a91c237719e243ab8ce9e199927101eaf55e7c83834d22264736f6c634300081e0033","linkReferences":{}},"methodIdentifiers":{"TARGET()":"cc1f2afa","WETH_TOKEN()":"37d277d4","executeOnOpportunity()":"3c2448ed","exploitPathUsed()":"d78c4281","failureReason()":"4f9522a4","hypothesisValidated()":"463defd1","onERC1155BatchReceived(address,address,uint256[],uint256[],bytes)":"bc197c81","onERC1155Received(address,address,uint256,uint256,bytes)":"f23a6e61","onERC721Received(address,address,uint256,bytes)":"150b7a02","profitAmount()":"5ff972cc","profitToken()":"49343624","supportsInterface(bytes4)":"01ffc9a7","uniswapV2Call(address,uint256,uint256,bytes)":"10d1e85c"},"id":0}