{"abi":[{"type":"constructor","inputs":[],"stateMutability":"nonpayable"},{"type":"receive","stateMutability":"payable"},{"type":"function","name":"executeOnOpportunity","inputs":[],"outputs":[],"stateMutability":"nonpayable"},{"type":"function","name":"executeWithCurrentBalance","inputs":[],"outputs":[],"stateMutability":"nonpayable"},{"type":"function","name":"executeWithStaFlashSwapBps","inputs":[{"name":"reserveBps","type":"uint256","internalType":"uint256"}],"outputs":[],"stateMutability":"nonpayable"},{"type":"function","name":"profitAmount","inputs":[],"outputs":[{"name":"","type":"uint256","internalType":"uint256"}],"stateMutability":"view"},{"type":"function","name":"profitToken","inputs":[],"outputs":[{"name":"","type":"address","internalType":"address"}],"stateMutability":"view"},{"type":"function","name":"uniswapV2Call","inputs":[{"name":"sender","type":"address","internalType":"address"},{"name":"amount0","type":"uint256","internalType":"uint256"},{"name":"amount1","type":"uint256","internalType":"uint256"},{"name":"data","type":"bytes","internalType":"bytes"}],"outputs":[],"stateMutability":"nonpayable"}],"bytecode":{"object":"0x60a0604052348015600f57600080fd5b50604051601a90606c565b604051809103906000f0801580156035573d6000803e3d6000fd5b506001600160a01b0316608052600080546001600160a01b03191673c02aaa39b223fe8d0a0e5c4f27ead9083c756cc21790556079565b61016480613dd283390190565b608051613d306100a2600039600081816131f80152818161327701526132b30152613d306000f3fe6080604052600436106100595760003560e01c80630abe75141461006557806310d1e85c146100875780633c2448ed146100a757806349343624146100bc5780635ff972cc146100e95780638d1ae19a1461010757600080fd5b3661006057005b600080fd5b34801561007157600080fd5b50610085610080366004613722565b61011c565b005b34801561009357600080fd5b506100856100a2366004613753565b61037e565b3480156100b357600080fd5b50610085610555565b3480156100c857600080fd5b506000546040516001600160a01b0390911681526020015b60405180910390f35b3480156100f557600080fd5b506001546040519081526020016100e0565b34801561011357600080fd5b506100856106c6565b33301461015c5760405162461bcd60e51b815260206004820152600960248201526853454c465f4f4e4c5960b81b60448201526064015b60405180910390fd5b600080600061016a8461073a565b925092509250600061017a610ac8565b905073a7de087329bfcda5639247f96140f9dabe3deed16001600160a01b0316846001600160a01b0316630dfe16816040518163ffffffff1660e01b8152600401602060405180830381865afa1580156101d8573d6000803e3d6000fd5b505050506040513d601f19601f820116820180604052508101906101fc91906137eb565b6001600160a01b0316036102b157604080516001600160a01b0386166020820181905281830185905273a7de087329bfcda5639247f96140f9dabe3deed160608084019190915283518084039091018152608083019384905263022c0d9f60e01b9093529163022c0d9f9161027a9187916000913091608401613858565b600060405180830381600087803b15801561029457600080fd5b505af11580156102a8573d6000803e3d6000fd5b50505050610354565b604080516001600160a01b0386166020820181905281830185905273a7de087329bfcda5639247f96140f9dabe3deed160608084019190915283518084039091018152608083019384905263022c0d9f60e01b9093529163022c0d9f916103219160009188913091608401613858565b600060405180830381600087803b15801561033b57600080fd5b505af115801561034f573d6000803e3d6000fd5b505050505b600061035e610ac8565b9050818111156103765761037282826138a5565b6001555b505050505050565b6001600160a01b03851630146103c75760405162461bcd60e51b815260206004820152600e60248201526d2120a22faaa724afa9a2a72222a960911b6044820152606401610153565b600080806103d7848601866138b8565b91945092509050336001600160a01b038416146104255760405162461bcd60e51b815260206004820152600c60248201526b2120a22faaa724afa820a4a960a11b6044820152606401610153565b6001600160a01b03811673a7de087329bfcda5639247f96140f9dabe3deed1146104845760405162461bcd60e51b815260206004820152601060248201526f15539156141150d5115117d054d4d15560821b6044820152606401610153565b60008711806104935750600086115b6104d35760405162461bcd60e51b81526020600482015260116024820152701393d7d093d49493d5d15117d054d4d155607a1b6044820152606401610153565b6104db610b3d565b816104e4610ac8565b10156105325760405162461bcd60e51b815260206004820152601b60248201527f494e53554646494349454e545f574554485f464f525f524550415900000000006044820152606401610153565b61054b600080516020613cdb8339815191528484611112565b5050505050505050565b600080546001600160a01b031916600080516020613cdb83398151915217815560015561058061121f565b156105e057306001600160a01b0316638d1ae19a6040518163ffffffff1660e01b8152600401600060405180830381600087803b1580156105c057600080fd5b505af19250505080156105d1575060015b156105e057600154156105e057565b604080516101408101825261012c815260c860208201526096918101919091526078606082015260646080820152605060a0820152603c60c0820152602860e08201526019610100820152600f61012082015260005b600a8110156106c25730630abe75148383600a8110610657576106576138fa565b60200201516040516001600160e01b031960e084901b16815261ffff9091166004820152602401600060405180830381600087803b15801561069857600080fd5b505af19250505080156106a9575060015b156106ba57600154156106ba575050565b600101610636565b5050565b3330146107015760405162461bcd60e51b815260206004820152600960248201526853454c465f4f4e4c5960b81b6044820152606401610153565b600061070b610ac8565b9050610715610b3d565b600061071f610ac8565b9050818111156106c25761073382826138a5565b6001555050565b60405163e6a4390560e01b8152600080516020613cdb833981519152600482015273a7de087329bfcda5639247f96140f9dabe3deed1602482015260009081908190735c69bee701ef814a2b6a3edd4b1652cb9cc5aa6f9063e6a4390590604401602060405180830381865afa1580156107b8573d6000803e3d6000fd5b505050506040513d601f19601f820116820180604052508101906107dc91906137eb565b92506001600160a01b0383161580159061080057506000836001600160a01b03163b115b61083a5760405162461bcd60e51b815260206004820152600b60248201526a2727afa9aa20afa820a4a960a91b6044820152606401610153565b600080846001600160a01b0316630902f1ac6040518163ffffffff1660e01b8152600401606060405180830381865afa15801561087b573d6000803e3d6000fd5b505050506040513d601f19601f8201168201806040525081019061089f919061392c565b509150915060008073a7de087329bfcda5639247f96140f9dabe3deed16001600160a01b0316876001600160a01b0316630dfe16816040518163ffffffff1660e01b8152600401602060405180830381865afa158015610903573d6000803e3d6000fd5b505050506040513d601f19601f8201168201806040525081019061092791906137eb565b6001600160a01b03160361094a5750506001600160701b0380831690821661095b565b50506001600160701b038082169083165b60405163f8b2cb4f60e01b815273a7de087329bfcda5639247f96140f9dabe3deed16004820152600090600080516020613cbb8339815191529063f8b2cb4f90602401602060405180830381865afa1580156109bb573d6000803e3d6000fd5b505050506040513d601f19601f820116820180604052508101906109df9190613971565b90506000600a6109f083600361398a565b6109fa91906139a1565b90506000612710610a0b8c8761398a565b610a1591906139a1565b9050610a218282611483565b985060008911610a695760405162461bcd60e51b815260206004820152601360248201527214d51057d1931054d217d513d3d7d4d3505313606a1b6044820152606401610153565b848910610aae5760405162461bcd60e51b81526020600482015260136024820152725354415f464c4153485f544f4f5f4c4152474560681b6044820152606401610153565b610ab989858761149d565b999b989a505050505050505050565b6040516370a0823160e01b8152306004820152600090600080516020613cdb833981519152906370a0823190602401602060405180830381865afa158015610b14573d6000803e3d6000fd5b505050506040513d601f19601f82011682018060405250810190610b389190613971565b905090565b600080516020613cbb8339815191523b610b885760405162461bcd60e51b815260206004820152600c60248201526b504f4f4c5f4d495353494e4760a01b6044820152606401610153565b737a250d5630b4cf539739df2c5dacb4c659f2488d3b610bdb5760405162461bcd60e51b815260206004820152600e60248201526d524f555445525f4d495353494e4760901b6044820152606401610153565b6000600080516020613cbb8339815191526001600160a01b031663cc77828d6040518163ffffffff1660e01b8152600401600060405180830381865afa158015610c29573d6000803e3d6000fd5b505050506040513d6000823e601f3d908101601f19168201604052610c519190810190613a2e565b9050600281511015610c965760405162461bcd60e51b815260206004820152600e60248201526d1413d3d317d513d3d7d4d350531360921b6044820152606401610153565b610c9f8161154a565b6000610caa826116a3565b90506001600160a01b038116610d0c5760405162461bcd60e51b815260206004820152602160248201527f4e4f5f4645455f4f4e5f5452414e534645525f544f4b454e5f444554454354456044820152601160fa1b6064820152608401610153565b610d2482600080516020613cdb8339815191526116ec565b610d615760405162461bcd60e51b815260206004820152600e60248201526d15d1551217d393d517d093d5539160921b6044820152606401610153565b600080516020613cbb8339815191526001600160a01b0316638d4e40836040518163ffffffff1660e01b8152600401602060405180830381865afa158015610dad573d6000803e3d6000fd5b505050506040513d601f19601f82011682018060405250810190610dd19190613ac8565b610ea557306001600160a01b0316600080516020613cbb8339815191526001600160a01b0316633018205f6040518163ffffffff1660e01b8152600401602060405180830381865afa158015610e2b573d6000803e3d6000fd5b505050506040513d601f19601f82011682018060405250810190610e4f91906137eb565b6001600160a01b031614610ea55760405162461bcd60e51b815260206004820152601a60248201527f524542494e445f52455155495245535f434f4e54524f4c4c45520000000000006044820152606401610153565b610eb28160086001611747565b610ebb816119e7565b610ec481611c9c565b610ecd81611e9b565b610ed782826120cf565b60005b600a8110156110dd576040516370a0823160e01b8152600080516020613cbb83398151915260048201526000906001600160a01b038416906370a0823190602401602060405180830381865afa158015610f38573d6000803e3d6000fd5b505050506040513d601f19601f82011682018060405250810190610f5c9190613971565b60405163f8b2cb4f60e01b81526001600160a01b0385166004820152909150600090600080516020613cbb8339815191529063f8b2cb4f90602401602060405180830381865afa158015610fb4573d6000803e3d6000fd5b505050506040513d601f19601f82011682018060405250810190610fd89190613971565b9050818111610fe85750506110dd565b604051631185197d60e31b81526001600160a01b0385166004820152600080516020613cbb83398151915290638c28cbe890602401600060405180830381600087803b15801561103757600080fd5b505af115801561104b573d6000803e3d6000fd5b505060405163f8b2cb4f60e01b81526001600160a01b0387166004820152849250600080516020613cbb833981519152915063f8b2cb4f90602401602060405180830381865afa1580156110a3573d6000803e3d6000fd5b505050506040513d601f19601f820116820180604052508101906110c79190613971565b036110d35750506110dd565b5050600101610eda565b506110e981600c612642565b6110f3828261264e565b611108816111036002600c6139a1565b612642565b6106c28282612bc1565b604080516001600160a01b038481166024830152604480830185905283518084039091018152606490920183526020820180516001600160e01b031663a9059cbb60e01b179052915160009283929087169161116e9190613aea565b6000604051808303816000865af19150503d80600081146111ab576040519150601f19603f3d011682016040523d82523d6000602084013e6111b0565b606091505b50915091508180156111da5750805115806111da5750808060200190518101906111da9190613ac8565b6112185760405162461bcd60e51b815260206004820152600f60248201526e1514905394d1915497d19052531151608a1b6044820152606401610153565b5050505050565b60008061122a610ac8565b11156112365750600190565b6040516370a0823160e01b815230600482015260009073a7de087329bfcda5639247f96140f9dabe3deed1906370a0823190602401602060405180830381865afa158015611288573d6000803e3d6000fd5b505050506040513d601f19601f820116820180604052508101906112ac9190613971565b11156112b85750600190565b600080516020613cbb8339815191523b6000036112d55750600090565b6040516370a0823160e01b8152306004820152600090600080516020613cbb833981519152906370a0823190602401602060405180830381865afa158015611321573d6000803e3d6000fd5b505050506040513d601f19601f820116820180604052508101906113459190613971565b9050801561135557600191505090565b6000600080516020613cbb8339815191526001600160a01b031663cc77828d6040518163ffffffff1660e01b8152600401600060405180830381865afa1580156113a3573d6000803e3d6000fd5b505050506040513d6000823e601f3d908101601f191682016040526113cb9190810190613a2e565b905060005b81518110156114795760008282815181106113ed576113ed6138fa565b60209081029190910101516040516370a0823160e01b81523060048201526001600160a01b03909116906370a0823190602401602060405180830381865afa15801561143d573d6000803e3d6000fd5b505050506040513d601f19601f820116820180604052508101906114619190613971565b1115611471576001935050505090565b6001016113d0565b5060009250505090565b60008183106114925781611494565b825b90505b92915050565b600080841180156114ae5750600083115b80156114b957508382115b6114f55760405162461bcd60e51b815260206004820152600d60248201526c4241445f554e495f51554f544560981b6044820152606401610153565b6000611501858561398a565b61150d906103e861398a565b9050600061151b86856138a5565b611527906103e561398a565b905061153381836139a1565b61153e906001613b06565b925050505b9392505050565b611573600080516020613cdb833981519152600080516020613cbb833981519152600019612cd9565b6115a2600080516020613cdb833981519152737a250d5630b4cf539739df2c5dacb4c659f2488d600019612cd9565b6115d173a7de087329bfcda5639247f96140f9dabe3deed1600080516020613cbb833981519152600019612cd9565b61160673a7de087329bfcda5639247f96140f9dabe3deed1737a250d5630b4cf539739df2c5dacb4c659f2488d600019612cd9565b611621600080516020613cbb83398151915280600019612cd9565b60005b81518110156106c257611661828281518110611642576116426138fa565b6020026020010151600080516020613cbb833981519152600019612cd9565b61169b828281518110611676576116766138fa565b6020026020010151737a250d5630b4cf539739df2c5dacb4c659f2488d600019612cd9565b600101611624565b60006116c38273a7de087329bfcda5639247f96140f9dabe3deed16116ec565b156116e3575073a7de087329bfcda5639247f96140f9dabe3deed1919050565b61149782612fb8565b6000805b835181101561173d57826001600160a01b0316848281518110611715576117156138fa565b60200260200101516001600160a01b031603611735576001915050611497565b6001016116f0565b5060009392505050565b60005b828110156119e1576040516370a0823160e01b81523060048201526000906001600160a01b038616906370a0823190602401602060405180830381865afa158015611799573d6000803e3d6000fd5b505050506040513d601f19601f820116820180604052508101906117bd9190613971565b60405163f8b2cb4f60e01b81526001600160a01b0387166004820152909150600090600080516020613cbb8339815191529063f8b2cb4f90602401602060405180830381865afa158015611815573d6000803e3d6000fd5b505050506040513d601f19601f820116820180604052508101906118399190613971565b9050811580611849575060028111155b156118555750506119e1565b60006127106118666112f28461398a565b61187091906139a1565b905060018111611882575050506119e1565b61188d6001826138a5565b9050600061189c6002856139a1565b9050818111156118a95750805b806000036118ba57505050506119e1565b60006118c4610ac8565b604051638201aa3f60e01b81526001600160a01b038b16600482015260248101849052600080516020613cdb8339815191526044820152600160648201526000196084820152909150600080516020613cbb83398151915290638201aa3f9060a40160408051808303816000875af1925050508015611960575060408051601f3d908101601f1916820190925261195d91810190613b19565b60015b61196e5750505050506119e1565b8861197f57505050505050506119d9565b6000611989610ac8565b905083811161199f5750505050505050506119d9565b60006119ab85836138a5565b905060006119ba6004836139a1565b905080156119ce576119cc8e8261337a565b505b505050505050505050505b60010161174a565b50505050565b6040516370a0823160e01b81523060048201526000906001600160a01b038316906370a0823190602401602060405180830381865afa158015611a2e573d6000803e3d6000fd5b505050506040513d601f19601f82011682018060405250810190611a529190613971565b60405163f8b2cb4f60e01b81526001600160a01b0384166004820152909150600090600080516020613cbb8339815191529063f8b2cb4f90602401602060405180830381865afa158015611aaa573d6000803e3d6000fd5b505050506040513d601f19601f82011682018060405250810190611ace9190613971565b60405163f8b2cb4f60e01b8152600080516020613cdb8339815191526004820152909150600090600080516020613cbb8339815191529063f8b2cb4f90602401602060405180830381865afa158015611b2b573d6000803e3d6000fd5b505050506040513d601f19601f82011682018060405250810190611b4f9190613971565b9050821580611b5f575060028211155b80611b68575080155b15611b735750505050565b6000612710611b846112f28561398a565b611b8e91906139a1565b905060018111611b9f575050505050565b611baa6001826138a5565b90506000611bb96003866139a1565b905081811115611bc65750805b80600003611bd657505050505050565b6000611be46101f4856139a1565b905080600003611bf2575060015b604051631f17a7a960e21b81526001600160a01b038816600482015260248101839052600080516020613cdb8339815191526044820152606481018290526000196084820152600080516020613cbb83398151915290637c5e9ea49060a40160408051808303816000875af1925050508015611c8b575060408051601f3d908101601f19168201909252611c8891810190613b19565b60015b15611c935750505b50505050505050565b60005b60038110156106c2576040516370a0823160e01b81523060048201526000906001600160a01b038416906370a0823190602401602060405180830381865afa158015611cef573d6000803e3d6000fd5b505050506040513d601f19601f82011682018060405250810190611d139190613971565b60405163f8b2cb4f60e01b81526001600160a01b0385166004820152909150600090600080516020613cbb8339815191529063f8b2cb4f90602401602060405180830381865afa158015611d6b573d6000803e3d6000fd5b505050506040513d601f19601f82011682018060405250810190611d8f9190613971565b9050811580611d9f575060028111155b15611daa5750505050565b6000612710611dbb6112f28461398a565b611dc591906139a1565b905060018111611dd6575050505050565b611de16001826138a5565b90506000611df06004856139a1565b905081811115611dfd5750805b80600003611e0d57505050505050565b604051635db3427760e01b8152600080516020613cbb83398151915290635db3427790611e439089908590600190600401613b3d565b6020604051808303816000875af1925050508015611e7e575060408051601f3d908101601f19168201909252611e7b91810190613971565b60015b611e8a57505050505050565b50505060019092019150611c9f9050565b6040516370a0823160e01b81523060048201526000906001600160a01b038316906370a0823190602401602060405180830381865afa158015611ee2573d6000803e3d6000fd5b505050506040513d601f19601f82011682018060405250810190611f069190613971565b90506000600080516020613cbb8339815191526001600160a01b03166318160ddd6040518163ffffffff1660e01b8152600401602060405180830381865afa158015611f56573d6000803e3d6000fd5b505050506040513d601f19601f82011682018060405250810190611f7a9190613971565b9050811580611f87575080155b15611f9157505050565b60005b60038110156119e1576000611fab61c350846139a1565b905080600003611fb9575060015b60405163036836fd60e51b8152600080516020613cbb83398151915290636d06dfa090611fee90889085908990600401613b3d565b6020604051808303816000875af1925050508015612029575060408051601f3d908101601f1916820190925261202691810190613971565b60015b61203357506119e1565b8015806120405750848110155b1561204c5750506119e1565b6040516370a0823160e01b81523060048201526001600160a01b038716906370a0823190602401602060405180830381865afa158015612090573d6000803e3d6000fd5b505050506040513d601f19601f820116820180604052508101906120b49190613971565b9450846000036120c55750506119e1565b5050600101611f94565b6000600080516020613cbb8339815191526001600160a01b03166318160ddd6040518163ffffffff1660e01b8152600401602060405180830381865afa15801561211d573d6000803e3d6000fd5b505050506040513d601f19601f820116820180604052508101906121419190613971565b90508060000361215057505050565b600061215f6207a120836139a1565b90508060000361216d575060015b6000845167ffffffffffffffff811115612189576121896139c3565b6040519080825280602002602001820160405280156121b2578160200160208202803683370190505b509050600160005b86518110156125c9576000600080516020613cbb8339815191526001600160a01b031663f8b2cb4f8984815181106121f4576121f46138fa565b60200260200101516040518263ffffffff1660e01b815260040161222791906001600160a01b0391909116815260200190565b602060405180830381865afa158015612244573d6000803e3d6000fd5b505050506040513d601f19601f820116820180604052508101906122689190613971565b9050600086612277838861398a565b61228191906139a1565b61228c906001613b06565b90508060000361229a575060015b6122a581600261398a565b8584815181106122b7576122b76138fa565b60200260200101818152505060008984815181106122d7576122d76138fa565b60209081029190910101516040516370a0823160e01b81523060048201526001600160a01b03909116906370a0823190602401602060405180830381865afa158015612327573d6000803e3d6000fd5b505050506040513d601f19601f8201168201806040525081019061234b9190613971565b905085848151811061235f5761235f6138fa565b60200260200101518110612375575050506125c1565b60008187868151811061238a5761238a6138fa565b602002602001015161239c91906138a5565b9050896001600160a01b03168b86815181106123ba576123ba6138fa565b60200260200101516001600160a01b0316036124fa57600061240460106123df610ac8565b6123e991906139a1565b6123f46008856139a1565b6123ff906001613b06565b611483565b90508060000361241c576000965050505050506125c9565b61243f8c8781518110612431576124316138fa565b60200260200101518261337a565b50878681518110612452576124526138fa565b60200260200101518c878151811061246c5761246c6138fa565b60209081029190910101516040516370a0823160e01b81523060048201526001600160a01b03909116906370a0823190602401602060405180830381865afa1580156124bc573d6000803e3d6000fd5b505050506040513d601f19601f820116820180604052508101906124e09190613971565b10156124f4576000965050505050506125c9565b506125bc565b600080516020613cdb8339815191526001600160a01b03168b8681518110612524576125246138fa565b60200260200101516001600160a01b0316036125745786858151811061254c5761254c6138fa565b602002602001015161255c610ac8565b101561256f5760009550505050506125c9565b6125bc565b6125ab8b8681518110612589576125896138fa565b602002602001015182600a61259c610ac8565b6125a691906139a1565b613506565b6125bc5760009550505050506125c9565b505050505b6001016121ba565b50806125d757505050505050565b6040516313da703560e21b8152600080516020613cbb83398151915290634f69c0d49061260a9086908690600401613b5e565b600060405180830381600087803b15801561262457600080fd5b505af1925050508015612635575060015b1561037657505050505050565b6106c282826000611747565b6040516370a0823160e01b8152306004820152600090600080516020613cbb833981519152906370a0823190602401602060405180830381865afa15801561269a573d6000803e3d6000fd5b505050506040513d601f19601f820116820180604052508101906126be9190613971565b9050806000036126cd57505050565b60005b6006811015612922576040516370a0823160e01b8152306004820152600080516020613cbb833981519152906370a0823190602401602060405180830381865afa158015612722573d6000803e3d6000fd5b505050506040513d601f19601f820116820180604052508101906127469190613971565b915081156129225760405163f8b2cb4f60e01b8152600080516020613cdb8339815191526004820152600090600080516020613cbb8339815191529063f8b2cb4f90602401602060405180830381865afa1580156127a8573d6000803e3d6000fd5b505050506040513d601f19601f820116820180604052508101906127cc9190613971565b905080156128765760006127e16004836139a1565b905080156128745760405162592ce960e31b8152600080516020613cbb833981519152906302c967489061282b90600080516020613cdb8339815191529085908990600401613b3d565b6020604051808303816000875af1925050508015612866575060408051601f3d908101601f1916820190925261286391810190613971565b60015b15612874575b50505061291a565b505b60006128836002856139a1565b9050806000036128905750825b6040516346ab38f160e01b8152600080516020613cbb833981519152906346ab38f1906128d490600080516020613cdb833981519152908590600190600401613b3d565b6020604051808303816000875af192505050801561290f575060408051601f3d908101601f1916820190925261290c91810190613971565b60015b61286c575050612922565b6001016126d0565b506040516370a0823160e01b8152306004820152600080516020613cbb833981519152906370a0823190602401602060405180830381865afa15801561296c573d6000803e3d6000fd5b505050506040513d601f19601f820116820180604052508101906129909190613971565b90508060000361299f57505050565b6000835167ffffffffffffffff8111156129bb576129bb6139c3565b6040519080825280602002602001820160405280156129e4578160200160208202803683370190505b5060405163b02f0b7360e01b8152909150600080516020613cbb8339815191529063b02f0b7390612a1b9085908590600401613b5e565b600060405180830381600087803b158015612a3557600080fd5b505af1925050508015612a46575060015b506040516370a0823160e01b8152306004820152600090600080516020613cbb833981519152906370a0823190602401602060405180830381865afa158015612a93573d6000803e3d6000fd5b505050506040513d601f19601f82011682018060405250810190612ab79190613971565b90508015612b45576040516346ab38f160e01b8152600080516020613cbb833981519152906346ab38f190612b0390600080516020613cdb833981519152908590600190600401613b3d565b6020604051808303816000875af1925050508015612b3e575060408051601f3d908101601f19168201909252612b3b91810190613971565b60015b15612b4557505b6040516370a0823160e01b81523060048201526000906001600160a01b038616906370a0823190602401602060405180830381865afa158015612b8c573d6000803e3d6000fd5b505050506040513d601f19601f82011682018060405250810190612bb09190613971565b111561121857611218846004612642565b60005b8251811015612cd4576000838281518110612be157612be16138fa565b60200260200101519050600080516020613cdb8339815191526001600160a01b0316816001600160a01b031603612c185750612ccc565b6040516370a0823160e01b81523060048201526000906001600160a01b038316906370a0823190602401602060405180830381865afa158015612c5f573d6000803e3d6000fd5b505050506040513d601f19601f82011682018060405250810190612c839190613971565b905080600003612c94575050612ccc565b836001600160a01b0316826001600160a01b031603612cbf57612cb8826006612642565b5050612ccc565b612cc982826135f3565b50505b600101612bc4565b505050565b604080516001600160a01b038481166024830152604480830185905283518084039091018152606490920183526020820180516001600160e01b031663095ea7b360e01b1790529151600092839290871691612d359190613aea565b6000604051808303816000865af19150503d8060008114612d72576040519150601f19603f3d011682016040523d82523d6000602084013e612d77565b606091505b5091509150818015612da1575080511580612da1575080806020019051810190612da19190613ac8565b15612dad575050505050565b604080516001600160a01b038681166024830152600060448084019190915283518084039091018152606490920183526020820180516001600160e01b031663095ea7b360e01b179052915191871691612e079190613aea565b6000604051808303816000865af19150503d8060008114612e44576040519150601f19603f3d011682016040523d82523d6000602084013e612e49565b606091505b509092509050818015612e74575080511580612e74575080806020019051810190612e749190613ac8565b612eb75760405162461bcd60e51b81526020600482015260146024820152731054141493d59157d49154d15517d1905253115160621b6044820152606401610153565b604080516001600160a01b038681166024830152604480830187905283518084039091018152606490920183526020820180516001600160e01b031663095ea7b360e01b179052915191871691612f0e9190613aea565b6000604051808303816000865af19150503d8060008114612f4b576040519150601f19603f3d011682016040523d82523d6000602084013e612f50565b606091505b509092509050818015612f7b575080511580612f7b575080806020019051810190612f7b9190613ac8565b6112185760405162461bcd60e51b815260206004820152600e60248201526d1054141493d59157d1905253115160921b6044820152606401610153565b60008060005b8351811015613373576000848281518110612fdb57612fdb6138fa565b60200260200101519050600080516020613cdb8339815191526001600160a01b0316816001600160a01b031603613012575061336b565b600060c861301e610ac8565b61302891906139a1565b905080158061303d57508061303b610ac8565b105b1561304957505061336b565b6040516370a0823160e01b81523060048201526000906001600160a01b038416906370a0823190602401602060405180830381865afa158015613090573d6000803e3d6000fd5b505050506040513d601f19601f820116820180604052508101906130b49190613971565b9050737a250d5630b4cf539739df2c5dacb4c659f2488d635c11d7958360016130eb600080516020613cdb83398151915288613694565b30426040518663ffffffff1660e01b815260040161310d959493929190613bf2565b600060405180830381600087803b15801561312757600080fd5b505af1925050508015613138575060015b15613367576040516370a0823160e01b815230600482015260009082906001600160a01b038616906370a0823190602401602060405180830381865afa158015613186573d6000803e3d6000fd5b505050506040513d601f19601f820116820180604052508101906131aa9190613971565b6131b491906138a5565b9050806000036131c7575050505061336b565b60006131d46005836139a1565b9050806000036131e15750805b6040516370a0823160e01b81526001600160a01b037f000000000000000000000000000000000000000000000000000000000000000081166004830152600091908716906370a0823190602401602060405180830381865afa15801561324b573d6000803e3d6000fd5b505050506040513d601f19601f8201168201806040525081019061326f9190613971565b905061329c867f000000000000000000000000000000000000000000000000000000000000000084611112565b6040516370a0823160e01b81526001600160a01b037f000000000000000000000000000000000000000000000000000000000000000081166004830152600091908816906370a0823190602401602060405180830381865afa158015613306573d6000803e3d6000fd5b505050506040513d601f19601f8201168201806040525081019061332a9190613971565b9050600061333883836138a5565b90508381101561336157600061334e82866138a5565b90508a81111561335f57809a50889b505b505b50505050505b5050505b600101612fbe565b5050919050565b60008160000361338c57506000611497565b6040516370a0823160e01b81523060048201526000906001600160a01b038516906370a0823190602401602060405180830381865afa1580156133d3573d6000803e3d6000fd5b505050506040513d601f19601f820116820180604052508101906133f79190613971565b9050737a250d5630b4cf539739df2c5dacb4c659f2488d635c11d79584600161342e600080516020613cdb83398151915289613694565b30426040518663ffffffff1660e01b8152600401613450959493929190613bf2565b600060405180830381600087803b15801561346a57600080fd5b505af192505050801561347b575060015b61348857600091506134ff565b6040516370a0823160e01b815230600482015281906001600160a01b038616906370a0823190602401602060405180830381865afa1580156134ce573d6000803e3d6000fd5b505050506040513d601f19601f820116820180604052508101906134f29190613971565b6134fc91906138a5565b91505b5092915050565b600080613511610ac8565b905083158061351e575082155b80613527575080155b15613536576000915050611543565b80831115613542578092505b737a250d5630b4cf539739df2c5dacb4c659f2488d638803dbee8585613576600080516020613cdb8339815191528a613694565b30426040518663ffffffff1660e01b8152600401613598959493929190613bf2565b6000604051808303816000875af19250505080156135d857506040513d6000823e601f3d908101601f191682016040526135d59190810190613c2e565b60015b6135e557600091506135eb565b60019250505b509392505050565b737a250d5630b4cf539739df2c5dacb4c659f2488d6338ed173982600161362886600080516020613cdb833981519152613694565b30426040518663ffffffff1660e01b815260040161364a959493929190613bf2565b6000604051808303816000875af192505050801561368a57506040513d6000823e601f3d908101601f191682016040526136879190810190613c2e565b60015b156106c257505050565b604080516002808252606080830184529260208301908036833701905050905082816000815181106136c8576136c86138fa565b60200260200101906001600160a01b031690816001600160a01b03168152505081816001815181106136fc576136fc6138fa565b60200260200101906001600160a01b031690816001600160a01b03168152505092915050565b60006020828403121561373457600080fd5b5035919050565b6001600160a01b038116811461375057600080fd5b50565b60008060008060006080868803121561376b57600080fd5b85356137768161373b565b94506020860135935060408601359250606086013567ffffffffffffffff8111156137a057600080fd5b8601601f810188136137b157600080fd5b803567ffffffffffffffff8111156137c857600080fd5b8860208284010111156137da57600080fd5b959894975092955050506020019190565b6000602082840312156137fd57600080fd5b81516115438161373b565b60005b8381101561382357818101518382015260200161380b565b50506000910152565b60008151808452613844816020860160208601613808565b601f01601f19169290920160200192915050565b84815283602082015260018060a01b0383166040820152608060608201526000613885608083018461382c565b9695505050505050565b634e487b7160e01b600052601160045260246000fd5b818103818111156114975761149761388f565b6000806000606084860312156138cd57600080fd5b83356138d88161373b565b92506020840135915060408401356138ef8161373b565b809150509250925092565b634e487b7160e01b600052603260045260246000fd5b80516001600160701b038116811461392757600080fd5b919050565b60008060006060848603121561394157600080fd5b61394a84613910565b925061395860208501613910565b9150604084015163ffffffff811681146138ef57600080fd5b60006020828403121561398357600080fd5b5051919050565b80820281158282048414176114975761149761388f565b6000826139be57634e487b7160e01b600052601260045260246000fd5b500490565b634e487b7160e01b600052604160045260246000fd5b604051601f8201601f1916810167ffffffffffffffff81118282101715613a0257613a026139c3565b604052919050565b600067ffffffffffffffff821115613a2457613a246139c3565b5060051b60200190565b600060208284031215613a4057600080fd5b815167ffffffffffffffff811115613a5757600080fd5b8201601f81018413613a6857600080fd5b8051613a7b613a7682613a0a565b6139d9565b8082825260208201915060208360051b850101925086831115613a9d57600080fd5b6020840193505b82841015613885578351613ab78161373b565b825260209384019390910190613aa4565b600060208284031215613ada57600080fd5b8151801515811461154357600080fd5b60008251613afc818460208701613808565b9190910192915050565b808201808211156114975761149761388f565b60008060408385031215613b2c57600080fd5b505080516020909101519092909150565b6001600160a01b039390931683526020830191909152604082015260600190565b6000604082018483526040602084015280845180835260608501915060208601925060005b81811015613ba1578351835260209384019390920191600101613b83565b50909695505050505050565b600081518084526020840193506020830160005b82811015613be85781516001600160a01b0316865260209586019590910190600101613bc1565b5093949350505050565b85815284602082015260a060408201526000613c1160a0830186613bad565b6001600160a01b0394909416606083015250608001529392505050565b600060208284031215613c4057600080fd5b815167ffffffffffffffff811115613c5757600080fd5b8201601f81018413613c6857600080fd5b8051613c76613a7682613a0a565b8082825260208201915060208360051b850101925086831115613c9857600080fd5b6020840193505b82841015613885578351825260209384019390910190613c9f56fe0000000000000000000000000e511aa1a137aad267dfe3a6bfca0b856c1a3682000000000000000000000000c02aaa39b223fe8d0a0e5c4f27ead9083c756cc2a26469706673582212203a9459d9c73197ad5294a8103a8fcbc4351cbc1e8220fc3bdac11a5488ffe25764736f6c634300081a00336080604052348015600f57600080fd5b506101458061001f6000396000f3fe608060405234801561001057600080fd5b506004361061002b5760003560e01c8063eedc966a14610030575b600080fd5b61004361003e3660046100c6565b610055565b60405190815260200160405180910390f35b6040516370a0823160e01b81523060048201526000906001600160a01b038316906370a0823190602401602060405180830381865afa15801561009c573d6000803e3d6000fd5b505050506040513d601f19601f820116820180604052508101906100c091906100f6565b92915050565b6000602082840312156100d857600080fd5b81356001600160a01b03811681146100ef57600080fd5b9392505050565b60006020828403121561010857600080fd5b505191905056fea2646970667358221220a92689a9990431b139ce9dc14c9d30d74cf4c39449cb1128d752679fbc624a4264736f6c634300081a0033","linkReferences":{}},"methodIdentifiers":{"executeOnOpportunity()":"3c2448ed","executeWithCurrentBalance()":"8d1ae19a","executeWithStaFlashSwapBps(uint256)":"0abe7514","profitAmount()":"5ff972cc","profitToken()":"49343624","uniswapV2Call(address,uint256,uint256,bytes)":"10d1e85c"},"id":0}