{"abi":[{"type":"function","name":"tokenBalance","inputs":[{"name":"token","type":"address","internalType":"address"}],"outputs":[{"name":"","type":"uint256","internalType":"uint256"}],"stateMutability":"view"}],"bytecode":{"object":"0x6080604052348015600f57600080fd5b506101458061001f6000396000f3fe608060405234801561001057600080fd5b506004361061002b5760003560e01c8063eedc966a14610030575b600080fd5b61004361003e3660046100c6565b610055565b60405190815260200160405180910390f35b6040516370a0823160e01b81523060048201526000906001600160a01b038316906370a0823190602401602060405180830381865afa15801561009c573d6000803e3d6000fd5b505050506040513d601f19601f820116820180604052508101906100c091906100f6565b92915050565b6000602082840312156100d857600080fd5b81356001600160a01b03811681146100ef57600080fd5b9392505050565b60006020828403121561010857600080fd5b505191905056fea2646970667358221220a92689a9990431b139ce9dc14c9d30d74cf4c39449cb1128d752679fbc624a4264736f6c634300081a0033","linkReferences":{}},"methodIdentifiers":{"tokenBalance(address)":"eedc966a"},"id":0}