{"abi":[{"type":"constructor","inputs":[],"stateMutability":"nonpayable"},{"type":"receive","stateMutability":"payable"},{"type":"function","name":"_executeFlashswap","inputs":[{"name":"market","type":"address","internalType":"address"},{"name":"borrowToken0","type":"bool","internalType":"bool"},{"name":"amountBorrow","type":"uint256","internalType":"uint256"}],"outputs":[],"stateMutability":"nonpayable"},{"type":"function","name":"currentPairState","inputs":[],"outputs":[{"name":"factory_","type":"address","internalType":"address"},{"name":"token0_","type":"address","internalType":"address"},{"name":"token1_","type":"address","internalType":"address"},{"name":"reserve0_","type":"uint112","internalType":"uint112"},{"name":"reserve1_","type":"uint112","internalType":"uint112"}],"stateMutability":"view"},{"type":"function","name":"executeOnOpportunity","inputs":[],"outputs":[],"stateMutability":"nonpayable"},{"type":"function","name":"exploitPathUsed","inputs":[],"outputs":[{"name":"","type":"string","internalType":"string"}],"stateMutability":"view"},{"type":"function","name":"hypothesisValidated","inputs":[],"outputs":[{"name":"","type":"bool","internalType":"bool"}],"stateMutability":"view"},{"type":"function","name":"profitAmount","inputs":[],"outputs":[{"name":"","type":"uint256","internalType":"uint256"}],"stateMutability":"view"},{"type":"function","name":"profitToken","inputs":[],"outputs":[{"name":"","type":"address","internalType":"address"}],"stateMutability":"view"},{"type":"function","name":"targetPair","inputs":[],"outputs":[{"name":"","type":"address","internalType":"address"}],"stateMutability":"pure"},{"type":"function","name":"uniswapV2Call","inputs":[{"name":"sender","type":"address","internalType":"address"},{"name":"amount0","type":"uint256","internalType":"uint256"},{"name":"amount1","type":"uint256","internalType":"uint256"},{"name":"data","type":"bytes","internalType":"bytes"}],"outputs":[],"stateMutability":"nonpayable"}],"bytecode":{"object":"0x608060405234801561000f575f5ffd5b506040518060400160405280600b81526020017f756e617474656d70746564000000000000000000000000000000000000000000815250600390816100549190610297565b50610366565b5f81519050919050565b7f4e487b71000000000000000000000000000000000000000000000000000000005f52604160045260245ffd5b7f4e487b71000000000000000000000000000000000000000000000000000000005f52602260045260245ffd5b5f60028204905060018216806100d557607f821691505b6020821081036100e8576100e7610091565b5b50919050565b5f819050815f5260205f209050919050565b5f6020601f8301049050919050565b5f82821b905092915050565b5f6008830261014a7fffffffffffffffffffffffffffffffffffffffffffffffffffffffffffffffff8261010f565b610154868361010f565b95508019841693508086168417925050509392505050565b5f819050919050565b5f819050919050565b5f61019861019361018e8461016c565b610175565b61016c565b9050919050565b5f819050919050565b6101b18361017e565b6101c56101bd8261019f565b84845461011b565b825550505050565b5f5f905090565b6101dc6101cd565b6101e78184846101a8565b505050565b5b8181101561020a576101ff5f826101d4565b6001810190506101ed565b5050565b601f82111561024f57610220816100ee565b61022984610100565b81016020851015610238578190505b61024c61024485610100565b8301826101ec565b50505b505050565b5f82821c905092915050565b5f61026f5f1984600802610254565b1980831691505092915050565b5f6102878383610260565b9150826002028217905092915050565b6102a08261005a565b67ffffffffffffffff8111156102b9576102b8610064565b5b6102c382546100be565b6102ce82828561020e565b5f60209050601f8311600181146102ff575f84156102ed578287015190505b6102f7858261027c565b86555061035e565b601f19841661030d866100ee565b5f5b828110156103345784890151825560018201915060208501945060208101905061030f565b86831015610351578489015161034d601f891682610260565b8355505b6001600288020188555050505b505050505050565b613a6d806103735f395ff3fe608060405260043610610089575f3560e01c80634934362411610058578063493436241461012a5780635ff972cc14610154578063971fad761461017e578063c6c6c5ab146101a6578063d78c4281146101d057610090565b806310d1e85c146100945780633ac3d26d146100bc5780633c2448ed146100ea578063463defd11461010057610090565b3661009057005b5f5ffd5b34801561009f575f5ffd5b506100ba60048036038101906100b59190612787565b6101fa565b005b3480156100c7575f5ffd5b506100d06108aa565b6040516100e1959493929190612842565b60405180910390f35b3480156100f5575f5ffd5b506100fe610a92565b005b34801561010b575f5ffd5b50610114611118565b60405161012191906128ad565b60405180910390f35b348015610135575f5ffd5b5061013e61112e565b60405161014b91906128c6565b60405180910390f35b34801561015f575f5ffd5b50610168611155565b60405161017591906128ee565b60405180910390f35b348015610189575f5ffd5b506101a4600480360381019061019f9190612931565b61115e565b005b3480156101b1575f5ffd5b506101ba61133f565b6040516101c791906128c6565b60405180910390f35b3480156101db575f5ffd5b506101e461135a565b6040516101f191906129f1565b60405180910390f35b3073ffffffffffffffffffffffffffffffffffffffff168573ffffffffffffffffffffffffffffffffffffffff1614610268576040517f08c379a000000000000000000000000000000000000000000000000000000000815260040161025f90612a5b565b60405180910390fd5b5f5f83838101906102799190612ab4565b915091508173ffffffffffffffffffffffffffffffffffffffff163373ffffffffffffffffffffffffffffffffffffffff16146102eb576040517f08c379a00000000000000000000000000000000000000000000000000000000081526004016102e290612b3c565b60405180910390fd5b5f8273ffffffffffffffffffffffffffffffffffffffff16630dfe16816040518163ffffffff1660e01b8152600401602060405180830381865afa158015610335573d5f5f3e3d5ffd5b505050506040513d601f19601f820116820180604052508101906103599190612b6e565b90505f8373ffffffffffffffffffffffffffffffffffffffff1663d21220a76040518163ffffffff1660e01b8152600401602060405180830381865afa1580156103a5573d5f5f3e3d5ffd5b505050506040513d601f19601f820116820180604052508101906103c99190612b6e565b90505f5f8573ffffffffffffffffffffffffffffffffffffffff16630902f1ac6040518163ffffffff1660e01b8152600401606060405180830381865afa158015610416573d5f5f3e3d5ffd5b505050506040513d601f19601f8201168201806040525081019061043a9190612bfc565b50915091508415610676575f8a11801561045357505f89145b610492576040517f08c379a000000000000000000000000000000000000000000000000000000000815260040161048990612c96565b60405180910390fd5b73c02aaa39b223fe8d0a0e5c4f27ead9083c756cc273ffffffffffffffffffffffffffffffffffffffff168373ffffffffffffffffffffffffffffffffffffffff16148015610521575073c02aaa39b223fe8d0a0e5c4f27ead9083c756cc273ffffffffffffffffffffffffffffffffffffffff168473ffffffffffffffffffffffffffffffffffffffff1614155b610560576040517f08c379a000000000000000000000000000000000000000000000000000000000815260040161055790612cfe565b60405180910390fd5b5f61058c8b836dffffffffffffffffffffffffffff16856dffffffffffffffffffffffffffff166113ea565b9050610598858c611488565b8047116105da576040517f08c379a00000000000000000000000000000000000000000000000000000000081526004016105d190612d66565b60405180910390fd5b73c02aaa39b223fe8d0a0e5c4f27ead9083c756cc273ffffffffffffffffffffffffffffffffffffffff1663d0e30db0826040518263ffffffff1660e01b81526004015f604051808303818588803b158015610634575f5ffd5b505af1158015610646573d5f5f3e3d5ffd5b505050505061066a73c02aaa39b223fe8d0a0e5c4f27ead9083c756cc288836115d3565b505050505050506108a3565b5f8911801561068457505f8a145b6106c3576040517f08c379a00000000000000000000000000000000000000000000000000000000081526004016106ba90612dce565b60405180910390fd5b73c02aaa39b223fe8d0a0e5c4f27ead9083c756cc273ffffffffffffffffffffffffffffffffffffffff168473ffffffffffffffffffffffffffffffffffffffff16148015610752575073c02aaa39b223fe8d0a0e5c4f27ead9083c756cc273ffffffffffffffffffffffffffffffffffffffff168373ffffffffffffffffffffffffffffffffffffffff1614155b610791576040517f08c379a000000000000000000000000000000000000000000000000000000000815260040161078890612cfe565b60405180910390fd5b5f6107bd8a846dffffffffffffffffffffffffffff16846dffffffffffffffffffffffffffff166113ea565b90506107c9848b611488565b80471161080b576040517f08c379a000000000000000000000000000000000000000000000000000000000815260040161080290612d66565b60405180910390fd5b73c02aaa39b223fe8d0a0e5c4f27ead9083c756cc273ffffffffffffffffffffffffffffffffffffffff1663d0e30db0826040518263ffffffff1660e01b81526004015f604051808303818588803b158015610865575f5ffd5b505af1158015610877573d5f5f3e3d5ffd5b505050505061089b73c02aaa39b223fe8d0a0e5c4f27ead9083c756cc288836115d3565b505050505050505b5050505050565b5f5f5f5f5f5f732033b54b6789a963a02bfcbd40a46816770f116190508073ffffffffffffffffffffffffffffffffffffffff1663c45a01556040518163ffffffff1660e01b8152600401602060405180830381865afa158015610910573d5f5f3e3d5ffd5b505050506040513d601f19601f820116820180604052508101906109349190612b6e565b95508073ffffffffffffffffffffffffffffffffffffffff16630dfe16816040518163ffffffff1660e01b8152600401602060405180830381865afa15801561097f573d5f5f3e3d5ffd5b505050506040513d601f19601f820116820180604052508101906109a39190612b6e565b94508073ffffffffffffffffffffffffffffffffffffffff1663d21220a76040518163ffffffff1660e01b8152600401602060405180830381865afa1580156109ee573d5f5f3e3d5ffd5b505050506040513d601f19601f82011682018060405250810190610a129190612b6e565b93508073ffffffffffffffffffffffffffffffffffffffff16630902f1ac6040518163ffffffff1660e01b8152600401606060405180830381865afa158015610a5d573d5f5f3e3d5ffd5b505050506040513d601f19601f82011682018060405250810190610a819190612bfc565b508093508194505050509091929394565b60025f9054906101000a900460ff1661111657600160025f6101000a81548160ff0219169083151502179055505f732033b54b6789a963a02bfcbd40a46816770f116190505f8173ffffffffffffffffffffffffffffffffffffffff1663c45a01556040518163ffffffff1660e01b8152600401602060405180830381865afa158015610b21573d5f5f3e3d5ffd5b505050506040513d601f19601f82011682018060405250810190610b459190612b6e565b90505f8273ffffffffffffffffffffffffffffffffffffffff16630dfe16816040518163ffffffff1660e01b8152600401602060405180830381865afa158015610b91573d5f5f3e3d5ffd5b505050506040513d601f19601f82011682018060405250810190610bb59190612b6e565b90505f8373ffffffffffffffffffffffffffffffffffffffff1663d21220a76040518163ffffffff1660e01b8152600401602060405180830381865afa158015610c01573d5f5f3e3d5ffd5b505050506040513d601f19601f82011682018060405250810190610c259190612b6e565b90505f732033b54b6789a963a02bfcbd40a46816770f116173ffffffffffffffffffffffffffffffffffffffff1663485cc95560e01b8385604051602401610c6e929190612dec565b604051602081830303815290604052907bffffffffffffffffffffffffffffffffffffffffffffffffffffffff19166020820180517bffffffffffffffffffffffffffffffffffffffffffffffffffffffff8381831617835250505050604051610cd89190612e57565b5f604051808303815f865af19150503d805f8114610d11576040519150601f19603f3d011682016040523d82523d5f602084013e610d16565b606091505b505090505f732033b54b6789a963a02bfcbd40a46816770f116173ffffffffffffffffffffffffffffffffffffffff1663485cc95560e01b5f86604051602401610d61929190612dec565b604051602081830303815290604052907bffffffffffffffffffffffffffffffffffffffffffffffffffffffff19166020820180517bffffffffffffffffffffffffffffffffffffffffffffffffffffffff8381831617835250505050604051610dcb9190612e57565b5f604051808303815f865af19150503d805f8114610e04576040519150601f19603f3d011682016040523d82523d5f602084013e610e09565b606091505b505090508180610e165750805b15610eb7576001600260016101000a81548160ff0219169083151502179055506040518060a00160405280608081526020016137956080913960039081610e5d9190613097565b50610e66611722565b5f5f5f6101000a81548173ffffffffffffffffffffffffffffffffffffffff021916908373ffffffffffffffffffffffffffffffffffffffff16021790555047600181905550505050505050611116565b735c69bee701ef814a2b6a3edd4b1652cb9cc5aa6f73ffffffffffffffffffffffffffffffffffffffff168573ffffffffffffffffffffffffffffffffffffffff1614600260016101000a81548160ff0219169083151502179055505f73c02aaa39b223fe8d0a0e5c4f27ead9083c756cc273ffffffffffffffffffffffffffffffffffffffff168573ffffffffffffffffffffffffffffffffffffffff16148015610fa3575073c02aaa39b223fe8d0a0e5c4f27ead9083c756cc273ffffffffffffffffffffffffffffffffffffffff168473ffffffffffffffffffffffffffffffffffffffff1614155b15610fb057839050611081565b73c02aaa39b223fe8d0a0e5c4f27ead9083c756cc273ffffffffffffffffffffffffffffffffffffffff168473ffffffffffffffffffffffffffffffffffffffff1614801561103f575073c02aaa39b223fe8d0a0e5c4f27ead9083c756cc273ffffffffffffffffffffffffffffffffffffffff168573ffffffffffffffffffffffffffffffffffffffff1614155b1561104c57849050611080565b6040518060800160405280605d81526020016139db605d9139600390816110739190613097565b5050505050505050611116565b5b61108a81611bd7565b5f5f5f6101000a81548173ffffffffffffffffffffffffffffffffffffffff021916908373ffffffffffffffffffffffffffffffffffffffff160217905550476001819055505f600380546110de90612ec7565b90500361110e576040518060a0016040528060688152602001613973606891396003908161110c9190613097565b505b505050505050505b565b5f600260019054906101000a900460ff16905090565b5f5f5f9054906101000a900473ffffffffffffffffffffffffffffffffffffffff16905090565b5f600154905090565b3073ffffffffffffffffffffffffffffffffffffffff163373ffffffffffffffffffffffffffffffffffffffff16146111cc576040517f08c379a00000000000000000000000000000000000000000000000000000000081526004016111c3906131b0565b60405180910390fd5b5f4790508215611269578373ffffffffffffffffffffffffffffffffffffffff1663022c0d9f835f308860016040516020016112099291906131ce565b6040516020818303038152906040526040518563ffffffff1660e01b81526004016112379493929190613276565b5f604051808303815f87803b15801561124e575f5ffd5b505af1158015611260573d5f5f3e3d5ffd5b505050506112f7565b8373ffffffffffffffffffffffffffffffffffffffff1663022c0d9f5f8430885f60405160200161129b9291906131ce565b6040516020818303038152906040526040518563ffffffff1660e01b81526004016112c994939291906132c0565b5f604051808303815f87803b1580156112e0575f5ffd5b505af11580156112f2573d5f5f3e3d5ffd5b505050505b804711611339576040517f08c379a000000000000000000000000000000000000000000000000000000000815260040161133090613354565b60405180910390fd5b50505050565b5f732033b54b6789a963a02bfcbd40a46816770f1161905090565b60606003805461136990612ec7565b80601f016020809104026020016040519081016040528092919081815260200182805461139590612ec7565b80156113e05780601f106113b7576101008083540402835291602001916113e0565b820191905f5260205f20905b8154815290600101906020018083116113c357829003601f168201915b5050505050905090565b5f81841061142d576040517f08c379a0000000000000000000000000000000000000000000000000000000008152600401611424906133bc565b60405180910390fd5b5f6103e8858561143d9190613407565b6114479190613407565b90505f6103e586856114599190613448565b6114639190613407565b90506001818361147391906134a8565b61147d91906134d8565b925050509392505050565b5f4790505f8373ffffffffffffffffffffffffffffffffffffffff167f2e1a7d4d13322e7b96f9a57413e1525c250fb7a9021cf91d1540d5b69f16a49f846040516024016114d691906128ee565b604051602081830303815290604052907bffffffffffffffffffffffffffffffffffffffffffffffffffffffff19166020820180517bffffffffffffffffffffffffffffffffffffffffffffffffffffffff83818316178352505050506040516115409190612e57565b5f604051808303815f865af19150503d805f8114611579576040519150601f19603f3d011682016040523d82523d5f602084013e61157e565b606091505b5050905080801561158e57508147115b6115cd576040517f08c379a00000000000000000000000000000000000000000000000000000000081526004016115c490613555565b60405180910390fd5b50505050565b5f5f8473ffffffffffffffffffffffffffffffffffffffff1663a9059cbb60e01b8585604051602401611607929190613573565b604051602081830303815290604052907bffffffffffffffffffffffffffffffffffffffffffffffffffffffff19166020820180517bffffffffffffffffffffffffffffffffffffffffffffffffffffffff83818316178352505050506040516116719190612e57565b5f604051808303815f865af19150503d805f81146116aa576040519150601f19603f3d011682016040523d82523d5f602084013e6116af565b606091505b50915091508180156116dc57505f815114806116db5750808060200190518101906116da91906135ae565b5b5b61171b576040517f08c379a000000000000000000000000000000000000000000000000000000000815260040161171290613623565b60405180910390fd5b5050505050565b5f732033b54b6789a963a02bfcbd40a46816770f116173ffffffffffffffffffffffffffffffffffffffff16636a62784260e01b3060405160240161176791906128c6565b604051602081830303815290604052907bffffffffffffffffffffffffffffffffffffffffffffffffffffffff19166020820180517bffffffffffffffffffffffffffffffffffffffffffffffffffffffff83818316178352505050506040516117d19190612e57565b5f604051808303815f865af19150503d805f811461180a576040519150601f19603f3d011682016040523d82523d5f602084013e61180f565b606091505b505090505f732033b54b6789a963a02bfcbd40a46816770f116173ffffffffffffffffffffffffffffffffffffffff166389afcb4460e01b3060405160240161185891906128c6565b604051602081830303815290604052907bffffffffffffffffffffffffffffffffffffffffffffffffffffffff19166020820180517bffffffffffffffffffffffffffffffffffffffffffffffffffffffff83818316178352505050506040516118c29190612e57565b5f604051808303815f865af19150503d805f81146118fb576040519150601f19603f3d011682016040523d82523d5f602084013e611900565b606091505b505090505f732033b54b6789a963a02bfcbd40a46816770f116173ffffffffffffffffffffffffffffffffffffffff1663022c0d9f60e01b5f5f3060405160240161194d93929190613664565b604051602081830303815290604052907bffffffffffffffffffffffffffffffffffffffffffffffffffffffff19166020820180517bffffffffffffffffffffffffffffffffffffffffffffffffffffffff83818316178352505050506040516119b79190612e57565b5f604051808303815f865af19150503d805f81146119f0576040519150601f19603f3d011682016040523d82523d5f602084013e6119f5565b606091505b505090505f732033b54b6789a963a02bfcbd40a46816770f116173ffffffffffffffffffffffffffffffffffffffff1663bc25cf7760e01b30604051602401611a3e91906128c6565b604051602081830303815290604052907bffffffffffffffffffffffffffffffffffffffffffffffffffffffff19166020820180517bffffffffffffffffffffffffffffffffffffffffffffffffffffffff8381831617835250505050604051611aa89190612e57565b5f604051808303815f865af19150503d805f8114611ae1576040519150601f19603f3d011682016040523d82523d5f602084013e611ae6565b606091505b505090505f732033b54b6789a963a02bfcbd40a46816770f116173ffffffffffffffffffffffffffffffffffffffff1663fff6cae960e01b604051602401604051602081830303815290604052907bffffffffffffffffffffffffffffffffffffffffffffffffffffffff19166020820180517bffffffffffffffffffffffffffffffffffffffffffffffffffffffff8381831617835250505050604051611b8e9190612e57565b5f604051808303815f865af19150503d805f8114611bc7576040519150601f19603f3d011682016040523d82523d5f602084013e611bcc565b606091505b505090505050505050565b611bdf61266f565b5f732033b54b6789a963a02bfcbd40a46816770f1161828280611c01906136ac565b935060048110611c1457611c136136f3565b5b602002019073ffffffffffffffffffffffffffffffffffffffff16908173ffffffffffffffffffffffffffffffffffffffff1681525050611c888282611c83735c69bee701ef814a2b6a3edd4b1652cb9cc5aa6f8773c02aaa39b223fe8d0a0e5c4f27ead9083c756cc2611e26565b611f3b565b611c9182612034565b9050611cd08282611ccb73c0aee478e3658e2610c5f7a4a2e1777ce9e4f2ac8773c02aaa39b223fe8d0a0e5c4f27ead9083c756cc2611e26565b611f3b565b611cd982612034565b9050611d188282611d1373115934131916c8b277dd010ee02de363c09d037c8773c02aaa39b223fe8d0a0e5c4f27ead9083c756cc2611e26565b611f3b565b611d2182612034565b90505f5f90505b81811015611df7575f838260048110611d4457611d436136f3565b5b602002015190505f5f5f5f611d59858a6120ab565b935093509350935083611d70575050505050611dec565b5f611d7b8383612370565b90505f8103611d8f57505050505050611dec565b611d9b868583866123d7565b15611de55766038d7ea4c680004710611de4576040518060e0016040528060b8815260200161381560b8913960039081611dd59190613097565b50505050505050505050611e23565b5b5050505050505b806001019050611d28565b506040518060e0016040528060a681526020016138cd60a6913960039081611e1f9190613097565b5050505b50565b5f5f5f8573ffffffffffffffffffffffffffffffffffffffff1663e6a4390560e01b8686604051602401611e5b929190612dec565b604051602081830303815290604052907bffffffffffffffffffffffffffffffffffffffffffffffffffffffff19166020820180517bffffffffffffffffffffffffffffffffffffffffffffffffffffffff8381831617835250505050604051611ec59190612e57565b5f60405180830381855afa9150503d805f8114611efd576040519150601f19603f3d011682016040523d82523d5f602084013e611f02565b606091505b5091509150818015611f1657506020815110155b15611f325780806020019051810190611f2f9190613734565b92505b50509392505050565b5f73ffffffffffffffffffffffffffffffffffffffff168173ffffffffffffffffffffffffffffffffffffffff161480611f76575060048210155b61202f575f5f90505b82811015611fe2578173ffffffffffffffffffffffffffffffffffffffff16848260048110611fb157611fb06136f3565b5b602002015173ffffffffffffffffffffffffffffffffffffffff1603611fd7575061202f565b806001019050611f7f565b5080838360048110611ff757611ff66136f3565b5b602002019073ffffffffffffffffffffffffffffffffffffffff16908173ffffffffffffffffffffffffffffffffffffffff16815250505b505050565b5f5f5f90505b60048110156120a5575f73ffffffffffffffffffffffffffffffffffffffff1683826004811061206d5761206c6136f3565b5b602002015173ffffffffffffffffffffffffffffffffffffffff161461209a5781612097906136ac565b91505b80600101905061203a565b50919050565b5f5f5f5f5f8673ffffffffffffffffffffffffffffffffffffffff16630dfe16816040518163ffffffff1660e01b8152600401602060405180830381865afa1580156120f9573d5f5f3e3d5ffd5b505050506040513d601f19601f8201168201806040525081019061211d9190612b6e565b90505f8773ffffffffffffffffffffffffffffffffffffffff1663d21220a76040518163ffffffff1660e01b8152600401602060405180830381865afa158015612169573d5f5f3e3d5ffd5b505050506040513d601f19601f8201168201806040525081019061218d9190612b6e565b90505f5f8973ffffffffffffffffffffffffffffffffffffffff16630902f1ac6040518163ffffffff1660e01b8152600401606060405180830381865afa1580156121da573d5f5f3e3d5ffd5b505050506040513d601f19601f820116820180604052508101906121fe9190612bfc565b50915091508873ffffffffffffffffffffffffffffffffffffffff168473ffffffffffffffffffffffffffffffffffffffff1614801561227d575073c02aaa39b223fe8d0a0e5c4f27ead9083c756cc273ffffffffffffffffffffffffffffffffffffffff168373ffffffffffffffffffffffffffffffffffffffff16145b156122b5576001975060019650816dffffffffffffffffffffffffffff169550806dffffffffffffffffffffffffffff169450612363565b8873ffffffffffffffffffffffffffffffffffffffff168373ffffffffffffffffffffffffffffffffffffffff1614801561232f575073c02aaa39b223fe8d0a0e5c4f27ead9083c756cc273ffffffffffffffffffffffffffffffffffffffff168473ffffffffffffffffffffffffffffffffffffffff16145b1561236257600197505f9650806dffffffffffffffffffffffffffff169550816dffffffffffffffffffffffffffff1694505b5b5050505092959194509250565b5f818311612380575f90506123d1565b5f6123af6103e56103e885876123969190613407565b6123a09190613407565b6123aa91906134a8565b612519565b90508381106123c1575f9150506123d1565b80846123cd9190613448565b9150505b92915050565b5f5f60405180610100016040528061138861ffff168152602001611d4c61ffff16815260200161232861ffff16815260200161261661ffff16815260200161271061ffff16815260200161280a61ffff168152602001612af861ffff1681526020016130d461ffff1681525090505f5f90505b600881101561250f575f61271083836008811061246a576124696136f3565b5b602002015161ffff168761247e9190613407565b61248891906134a8565b90505f8114806124985750848110155b156124a35750612504565b6124ae888883612585565b6124b85750612504565b600193505f5f5f6101000a81548173ffffffffffffffffffffffffffffffffffffffff021916908373ffffffffffffffffffffffffffffffffffffffff16021790555047600181905550505b80600101905061244a565b5050949350505050565b5f5f8203612529575f9050612580565b8190505f600160028461253c91906134a8565b61254691906134d8565b90505b8181101561257e57809150600281828561256391906134a8565b61256d91906134d8565b61257791906134a8565b9050612549565b505b919050565b5f3073ffffffffffffffffffffffffffffffffffffffff1663971fad7660e01b8585856040516024016125ba9392919061375f565b604051602081830303815290604052907bffffffffffffffffffffffffffffffffffffffffffffffffffffffff19166020820180517bffffffffffffffffffffffffffffffffffffffffffffffffffffffff83818316178352505050506040516126249190612e57565b5f604051808303815f865af19150503d805f811461265d576040519150601f19603f3d011682016040523d82523d5f602084013e612662565b606091505b5050809150509392505050565b6040518060800160405280600490602082028036833780820191505090505090565b5f5ffd5b5f5ffd5b5f73ffffffffffffffffffffffffffffffffffffffff82169050919050565b5f6126c282612699565b9050919050565b6126d2816126b8565b81146126dc575f5ffd5b50565b5f813590506126ed816126c9565b92915050565b5f819050919050565b612705816126f3565b811461270f575f5ffd5b50565b5f81359050612720816126fc565b92915050565b5f5ffd5b5f5ffd5b5f5ffd5b5f5f83601f84011261274757612746612726565b5b8235905067ffffffffffffffff8111156127645761276361272a565b5b6020830191508360018202830111156127805761277f61272e565b5b9250929050565b5f5f5f5f5f608086880312156127a05761279f612691565b5b5f6127ad888289016126df565b95505060206127be88828901612712565b94505060406127cf88828901612712565b935050606086013567ffffffffffffffff8111156127f0576127ef612695565b5b6127fc88828901612732565b92509250509295509295909350565b612814816126b8565b82525050565b5f6dffffffffffffffffffffffffffff82169050919050565b61283c8161281a565b82525050565b5f60a0820190506128555f83018861280b565b612862602083018761280b565b61286f604083018661280b565b61287c6060830185612833565b6128896080830184612833565b9695505050505050565b5f8115159050919050565b6128a781612893565b82525050565b5f6020820190506128c05f83018461289e565b92915050565b5f6020820190506128d95f83018461280b565b92915050565b6128e8816126f3565b82525050565b5f6020820190506129015f8301846128df565b92915050565b61291081612893565b811461291a575f5ffd5b50565b5f8135905061292b81612907565b92915050565b5f5f5f6060848603121561294857612947612691565b5b5f612955868287016126df565b93505060206129668682870161291d565b925050604061297786828701612712565b9150509250925092565b5f81519050919050565b5f82825260208201905092915050565b8281835e5f83830152505050565b5f601f19601f8301169050919050565b5f6129c382612981565b6129cd818561298b565b93506129dd81856020860161299b565b6129e6816129a9565b840191505092915050565b5f6020820190508181035f830152612a0981846129b9565b905092915050565b7f6261642063616c6c6261636b2073656e646572000000000000000000000000005f82015250565b5f612a4560138361298b565b9150612a5082612a11565b602082019050919050565b5f6020820190508181035f830152612a7281612a39565b9050919050565b5f612a8382612699565b9050919050565b612a9381612a79565b8114612a9d575f5ffd5b50565b5f81359050612aae81612a8a565b92915050565b5f5f60408385031215612aca57612ac9612691565b5b5f612ad785828601612aa0565b9250506020612ae88582860161291d565b9150509250929050565b7f756e6578706563746564207061697200000000000000000000000000000000005f82015250565b5f612b26600f8361298b565b9150612b3182612af2565b602082019050919050565b5f6020820190508181035f830152612b5381612b1a565b9050919050565b5f81519050612b68816126c9565b92915050565b5f60208284031215612b8357612b82612691565b5b5f612b9084828501612b5a565b91505092915050565b612ba28161281a565b8114612bac575f5ffd5b50565b5f81519050612bbd81612b99565b92915050565b5f63ffffffff82169050919050565b612bdb81612bc3565b8114612be5575f5ffd5b50565b5f81519050612bf681612bd2565b92915050565b5f5f5f60608486031215612c1357612c12612691565b5b5f612c2086828701612baf565b9350506020612c3186828701612baf565b9250506040612c4286828701612be8565b9150509250925092565b7f756e657870656374656420746f6b656e3020626f72726f7700000000000000005f82015250565b5f612c8060188361298b565b9150612c8b82612c4c565b602082019050919050565b5f6020820190508181035f830152612cad81612c74565b9050919050565b7f726f757465206d69736d617463680000000000000000000000000000000000005f82015250565b5f612ce8600e8361298b565b9150612cf382612cb4565b602082019050919050565b5f6020820190508181035f830152612d1581612cdc565b9050919050565b7f6e6f206e617469766520737572706c75730000000000000000000000000000005f82015250565b5f612d5060118361298b565b9150612d5b82612d1c565b602082019050919050565b5f6020820190508181035f830152612d7d81612d44565b9050919050565b7f756e657870656374656420746f6b656e3120626f72726f7700000000000000005f82015250565b5f612db860188361298b565b9150612dc382612d84565b602082019050919050565b5f6020820190508181035f830152612de581612dac565b9050919050565b5f604082019050612dff5f83018561280b565b612e0c602083018461280b565b9392505050565b5f81519050919050565b5f81905092915050565b5f612e3182612e13565b612e3b8185612e1d565b9350612e4b81856020860161299b565b80840191505092915050565b5f612e628284612e27565b915081905092915050565b7f4e487b71000000000000000000000000000000000000000000000000000000005f52604160045260245ffd5b7f4e487b71000000000000000000000000000000000000000000000000000000005f52602260045260245ffd5b5f6002820490506001821680612ede57607f821691505b602082108103612ef157612ef0612e9a565b5b50919050565b5f819050815f5260205f209050919050565b5f6020601f8301049050919050565b5f82821b905092915050565b5f60088302612f537fffffffffffffffffffffffffffffffffffffffffffffffffffffffffffffffff82612f18565b612f5d8683612f18565b95508019841693508086168417925050509392505050565b5f819050919050565b5f612f98612f93612f8e846126f3565b612f75565b6126f3565b9050919050565b5f819050919050565b612fb183612f7e565b612fc5612fbd82612f9f565b848454612f24565b825550505050565b5f5f905090565b612fdc612fcd565b612fe7818484612fa8565b505050565b5b8181101561300a57612fff5f82612fd4565b600181019050612fed565b5050565b601f82111561304f5761302081612ef7565b61302984612f09565b81016020851015613038578190505b61304c61304485612f09565b830182612fec565b50505b505050565b5f82821c905092915050565b5f61306f5f1984600802613054565b1980831691505092915050565b5f6130878383613060565b9150826002028217905092915050565b6130a082612981565b67ffffffffffffffff8111156130b9576130b8612e6d565b5b6130c38254612ec7565b6130ce82828561300e565b5f60209050601f8311600181146130ff575f84156130ed578287015190505b6130f7858261307c565b86555061315e565b601f19841661310d86612ef7565b5f5b828110156131345784890151825560018201915060208501945060208101905061310f565b86831015613151578489015161314d601f891682613060565b8355505b6001600288020188555050505b505050505050565b7f73656c66206f6e6c7900000000000000000000000000000000000000000000005f82015250565b5f61319a60098361298b565b91506131a582613166565b602082019050919050565b5f6020820190508181035f8301526131c78161318e565b9050919050565b5f6040820190506131e15f83018561280b565b6131ee602083018461289e565b9392505050565b5f819050919050565b5f61321861321361320e846131f5565b612f75565b6126f3565b9050919050565b613228816131fe565b82525050565b5f82825260208201905092915050565b5f61324882612e13565b613252818561322e565b935061326281856020860161299b565b61326b816129a9565b840191505092915050565b5f6080820190506132895f8301876128df565b613296602083018661321f565b6132a3604083018561280b565b81810360608301526132b5818461323e565b905095945050505050565b5f6080820190506132d35f83018761321f565b6132e060208301866128df565b6132ed604083018561280b565b81810360608301526132ff818461323e565b905095945050505050565b7f6e6f2070726f66697400000000000000000000000000000000000000000000005f82015250565b5f61333e60098361298b565b91506133498261330a565b602082019050919050565b5f6020820190508181035f83015261336b81613332565b9050919050565b7f696e73756666696369656e74206c6971756964697479000000000000000000005f82015250565b5f6133a660168361298b565b91506133b182613372565b602082019050919050565b5f6020820190508181035f8301526133d38161339a565b9050919050565b7f4e487b71000000000000000000000000000000000000000000000000000000005f52601160045260245ffd5b5f613411826126f3565b915061341c836126f3565b925082820261342a816126f3565b91508282048414831517613441576134406133da565b5b5092915050565b5f613452826126f3565b915061345d836126f3565b9250828203905081811115613475576134746133da565b5b92915050565b7f4e487b71000000000000000000000000000000000000000000000000000000005f52601260045260245ffd5b5f6134b2826126f3565b91506134bd836126f3565b9250826134cd576134cc61347b565b5b828204905092915050565b5f6134e2826126f3565b91506134ed836126f3565b9250828201905080821115613505576135046133da565b5b92915050565b7f7772617070657220726564656d7074696f6e206661696c6564000000000000005f82015250565b5f61353f60198361298b565b915061354a8261350b565b602082019050919050565b5f6020820190508181035f83015261356c81613533565b9050919050565b5f6040820190506135865f83018561280b565b61359360208301846128df565b9392505050565b5f815190506135a881612907565b92915050565b5f602082840312156135c3576135c2612691565b5b5f6135d08482850161359a565b91505092915050565b7f7472616e73666572206661696c656400000000000000000000000000000000005f82015250565b5f61360d600f8361298b565b9150613618826135d9565b602082019050919050565b5f6020820190508181035f83015261363a81613601565b9050919050565b50565b5f61364f5f8361298b565b915061365a82613641565b5f82019050919050565b5f6080820190506136775f8301866128df565b61368460208301856128df565b613691604083018461280b565b81810360608301526136a281613644565b9050949350505050565b5f6136b6826126f3565b91507fffffffffffffffffffffffffffffffffffffffffffffffffffffffffffffffff82036136e8576136e76133da565b5b600182019050919050565b7f4e487b71000000000000000000000000000000000000000000000000000000005f52603260045260245ffd5b5f8151905061372e81612a8a565b92915050565b5f6020828403121561374957613748612691565b5b5f61375684828501613720565b91505092915050565b5f6060820190506137725f83018661280b565b61377f602083018561289e565b61378c60408301846128df565b94935050505056fe756e65787065637465646c792d726561636861626c653a20726570656174656420696e697469616c697a652061636365707465643b20646f776e73747265616d206d696e742f6275726e2f737761702f736b696d2f73796e6320776f756c64206e6f772072656164206f7665727772697474656e20746f6b656e20736c6f7473666163746f72792d67617465642d696e697469616c697a652d70726f7665642d696e6665617369626c652d7075626c69636c793b2072656465656d656420746865206c69766520777261707065722073696465207468726f75676820616c7465726e617465207075626c6963206c69717569646974792076656e7565732c20726570616964206561636820666c6173687377617020696e20574554482c20616e642072657461696e6564206e61746976652070726f666974666163746f72792d67617465642d696e697469616c697a652d70726f7665642d696e6665617369626c652d7075626c69636c793b20617474656d7074656420616c7465726e617465207075626c69632d6c697175696469747920726f7574657320666f7220746865206c697665207772617070657220736964652c20627574207265616c697a65642070726f666974207374617965642062656c6f77207468726573686f6c64666163746f72792d67617465642d696e697469616c697a652d70726f7665642d696e6665617369626c652d7075626c69636c793b206e6f2070726f66697461626c65207075626c69632d6c697175696469747920726f757465207761732065786563757461626c65666163746f72792d67617465642d696e697469616c697a652d70726f7665642d696e6665617369626c652d7075626c69636c793b207461726765742070616972206973206e6f74206120777261707065722f57455448206d61726b6574a26469706673582212204887b9745ccc5933a2e936ba5d993c57959f406389956c958fc469d45bcdd97f64736f6c634300081e0033","linkReferences":{}},"methodIdentifiers":{"_executeFlashswap(address,bool,uint256)":"971fad76","currentPairState()":"3ac3d26d","executeOnOpportunity()":"3c2448ed","exploitPathUsed()":"d78c4281","hypothesisValidated()":"463defd1","profitAmount()":"5ff972cc","profitToken()":"49343624","targetPair()":"c6c6c5ab","uniswapV2Call(address,uint256,uint256,bytes)":"10d1e85c"},"id":0}