{"abi":[{"type":"constructor","inputs":[],"stateMutability":"payable"},{"type":"function","name":"boom","inputs":[{"name":"target","type":"address","internalType":"address payable"}],"outputs":[],"stateMutability":"nonpayable"}],"bytecode":{"object":"0x608080604052607a908160108239f3fe6004361015600b575f80fd5b5f3560e01c63668a2f6714601d575f80fd5b3460405760203660031901126040576004356001600160a01b0381168103604057ff5b5f80fdfea264697066735822122057793c82476f68a5aa0a69f5723db4cc88e77c8f06db4411860b993fa5f7c05464736f6c634300081e0033","linkReferences":{}},"methodIdentifiers":{"boom(address)":"668a2f67"},"id":0}