{"abi":[{"type":"receive","stateMutability":"payable"},{"type":"function","name":"executeSweep","inputs":[{"name":"receiver","type":"address","internalType":"address"},{"name":"tokens","type":"address[]","internalType":"address[]"}],"outputs":[],"stateMutability":"nonpayable"},{"type":"function","name":"exploitMarker","inputs":[],"outputs":[{"name":"","type":"bytes32","internalType":"bytes32"}],"stateMutability":"pure"},{"type":"function","name":"postUpgradeSweep","inputs":[{"name":"receiver","type":"address","internalType":"address"},{"name":"tokens","type":"address[]","internalType":"address[]"}],"outputs":[],"stateMutability":"nonpayable"},{"type":"function","name":"proxiableUUID","inputs":[],"outputs":[{"name":"","type":"bytes32","internalType":"bytes32"}],"stateMutability":"pure"}],"bytecode":{"object":"0x608080604052346015576103ac908161001a8239f35b5f80fdfe6080604052600436101561001a575b3615610018575f80fd5b005b5f3560e01c80632cbe4877146100c757806352d1902d1461008d578063703a675214610088576398bb3d840361000e5734610084575f3660031901126100845760206040517fed83939c564f225cb747feefb75e6613d758da48ee3df1ad5ff6dd982bc4f25b8152f35b5f80fd5b6100c7565b34610084575f3660031901126100845760206040517f360894a13ba1a3210667c828492db98dca3e2076cc3735a920a3ca505d382bbc8152f35b34610084576040366003190112610084576004356001600160a01b0381169081810361008457506024359067ffffffffffffffff821161008457366023830112156100845781600401359167ffffffffffffffff8311610084573660248460051b830101116100845747806102aa575b505f5b8381101561001857600581901b8201602401356001600160a01b03811680820361008457156102a1575f5f8060405160208101906370a0823160e01b82523060248201526024815261018d604482610301565b5190855afa61019a610337565b9080610295575b61027c575b508015610272575f91829182604051602081019263a9059cbb60e01b84528960248301526044820152604481526101de606482610301565b51925af16101ea610337565b8161023a575b5015610200576001905b0161013a565b60405162461bcd60e51b81526020600482015260126024820152711d1bdad95b881cddd9595c0819985a5b195960721b6044820152606490fd5b805180159250821561024f575b50505f6101f0565b819250906020918101031261008457602001518015158103610084575f80610247565b50506001906101fa565b905060208180518101031261008457602001515f6101a6565b506020815110156101a1565b506001906101fa565b5f80808093865af16102ba610337565b50156102c6575f610137565b60405162461bcd60e51b81526020600482015260136024820152721b985d1a5d99481cddd9595c0819985a5b1959606a1b6044820152606490fd5b90601f8019910116810190811067ffffffffffffffff82111761032357604052565b634e487b7160e01b5f52604160045260245ffd5b3d15610371573d9067ffffffffffffffff82116103235760405191610366601f8201601f191660200184610301565b82523d5f602084013e565b60609056fea264697066735822122045dafefa71c3293d37f2bda13f5a46f05fff1c29be662b815d0b5090026f0ef564736f6c634300081e0033","linkReferences":{}},"methodIdentifiers":{"executeSweep(address,address[])":"703a6752","exploitMarker()":"98bb3d84","postUpgradeSweep(address,address[])":"2cbe4877","proxiableUUID()":"52d1902d"},"id":0}