{"abi":[{"type":"receive","stateMutability":"payable"},{"type":"function","name":"drain","inputs":[{"name":"receiver","type":"address","internalType":"address payable"},{"name":"weth","type":"address","internalType":"address"}],"outputs":[],"stateMutability":"nonpayable"},{"type":"function","name":"proxiableUUID","inputs":[],"outputs":[{"name":"","type":"bytes32","internalType":"bytes32"}],"stateMutability":"pure"},{"type":"function","name":"upgradeTo","inputs":[{"name":"newImplementation","type":"address","internalType":"address"}],"outputs":[],"stateMutability":"nonpayable"},{"type":"function","name":"upgradeToAndCall","inputs":[{"name":"newImplementation","type":"address","internalType":"address"},{"name":"data","type":"bytes","internalType":"bytes"}],"outputs":[],"stateMutability":"payable"}],"bytecode":{"object":"0x60808060405234601557610430908161001a8239f35b5f80fdfe608080604052600436101561001c575b50361561001a575f80fd5b005b5f3560e01c9081633659cfe6146103325781634f1ef286146102515750806352d1902d146102175763837971e414610054575f61000f565b34610177576040366003190112610177576004356001600160a01b03811690819003610177576024356001600160a01b03811691908290036101775747806101c0575b508161009f57005b6040516370a0823160e01b8152306004820152602081602481865afa908115610183575f9161018e575b50806100d157005b60446020925f604051958694859363a9059cbb60e01b8552600485015260248401525af1908115610183575f91610144575b501561010b57005b60405162461bcd60e51b81526020600482015260116024820152701dd95d1a08191c985a5b8819985a5b1959607a1b6044820152606490fd5b90506020813d60201161017b575b8161015f60209383610385565b8101031261017757518015158103610177575f610103565b5f80fd5b3d9150610152565b6040513d5f823e3d90fd5b90506020813d6020116101b8575b816101a960209383610385565b8101031261017757515f6100c9565b3d915061019c565b5f80808093855af16101d06103bb565b50156101dc575f610097565b60405162461bcd60e51b81526020600482015260136024820152721b985d1a5d9948191c985a5b8819985a5b1959606a1b6044820152606490fd5b34610177575f3660031901126101775760206040517f360894a13ba1a3210667c828492db98dca3e2076cc3735a920a3ca505d382bbc8152f35b60403660031901126101775761026561036f565b906024359067ffffffffffffffff821161017757366023830112156101775781600401359267ffffffffffffffff841161017757366024858501011161017757835f946024869585947f360894a13ba1a3210667c828492db98dca3e2076cc3735a920a3ca505d382bbc5501833781018381520390305af46102e56103bb565b50156102ed57005b60405162461bcd60e51b815260206004820152601860248201527f706f73742d757067726164652063616c6c206661696c656400000000000000006044820152606490fd5b346101775760203660031901126101775761034b61036f565b7f360894a13ba1a3210667c828492db98dca3e2076cc3735a920a3ca505d382bbc55005b600435906001600160a01b038216820361017757565b90601f8019910116810190811067ffffffffffffffff8211176103a757604052565b634e487b7160e01b5f52604160045260245ffd5b3d156103f5573d9067ffffffffffffffff82116103a757604051916103ea601f8201601f191660200184610385565b82523d5f602084013e565b60609056fea2646970667358221220a8cd56cf3aadbbc0c2863377d27d38a95b51dac864dceb986771fcf340d8ea1464736f6c634300081e0033","linkReferences":{}},"methodIdentifiers":{"drain(address,address)":"837971e4","proxiableUUID()":"52d1902d","upgradeTo(address)":"3659cfe6","upgradeToAndCall(address,bytes)":"4f1ef286"},"id":0}