{"abi":[{"type":"receive","stateMutability":"payable"},{"type":"function","name":"TARGET","inputs":[],"outputs":[{"name":"","type":"address","internalType":"address"}],"stateMutability":"view"},{"type":"function","name":"borrow","inputs":[{"name":"orderId","type":"uint256","internalType":"uint256"},{"name":"borrower","type":"address","internalType":"address payable"},{"name":"borrowAmount","type":"uint256","internalType":"uint256"}],"outputs":[],"stateMutability":"nonpayable"},{"type":"function","name":"borrowBalanceCurrent","inputs":[{"name":"orderId","type":"uint256","internalType":"uint256"}],"outputs":[{"name":"","type":"uint256","internalType":"uint256"}],"stateMutability":"view"},{"type":"function","name":"executeOnOpportunity","inputs":[],"outputs":[],"stateMutability":"nonpayable"},{"type":"function","name":"executed","inputs":[],"outputs":[{"name":"","type":"bool","internalType":"bool"}],"stateMutability":"view"},{"type":"function","name":"exploitedBorrowAmount","inputs":[],"outputs":[{"name":"","type":"uint256","internalType":"uint256"}],"stateMutability":"view"},{"type":"function","name":"exploitedOrderId","inputs":[],"outputs":[{"name":"","type":"uint256","internalType":"uint256"}],"stateMutability":"view"},{"type":"function","name":"exploitedPunkId","inputs":[],"outputs":[{"name":"","type":"uint256","internalType":"uint256"}],"stateMutability":"view"},{"type":"function","name":"exploitedXToken","inputs":[],"outputs":[{"name":"","type":"address","internalType":"address"}],"stateMutability":"view"},{"type":"function","name":"getOrderBorrowBalanceCurrent","inputs":[{"name":"orderId","type":"uint256","internalType":"uint256"}],"outputs":[{"name":"","type":"uint256","internalType":"uint256"}],"stateMutability":"view"},{"type":"function","name":"hypothesisValidated","inputs":[],"outputs":[{"name":"","type":"bool","internalType":"bool"}],"stateMutability":"view"},{"type":"function","name":"infeasibleReason","inputs":[],"outputs":[{"name":"","type":"uint256","internalType":"uint256"}],"stateMutability":"view"},{"type":"function","name":"profitAmount","inputs":[],"outputs":[{"name":"","type":"uint256","internalType":"uint256"}],"stateMutability":"view"},{"type":"function","name":"profitToken","inputs":[],"outputs":[{"name":"","type":"address","internalType":"address"}],"stateMutability":"view"},{"type":"function","name":"stageBorrowWith1155","inputs":[],"outputs":[{"name":"","type":"bool","internalType":"bool"}],"stateMutability":"view"},{"type":"function","name":"stageLaterTransferPathAttempted","inputs":[],"outputs":[{"name":"","type":"bool","internalType":"bool"}],"stateMutability":"view"},{"type":"function","name":"stageLaterTransferPathReverted","inputs":[],"outputs":[{"name":"","type":"bool","internalType":"bool"}],"stateMutability":"view"},{"type":"function","name":"stageWrappedPunkRecordedAs1155","inputs":[],"outputs":[{"name":"","type":"bool","internalType":"bool"}],"stateMutability":"view"},{"type":"function","name":"underlying","inputs":[],"outputs":[{"name":"","type":"address","internalType":"address"}],"stateMutability":"pure"}],"bytecode":{"object":"0x60808060405234601557611b69908161001a8239f35b5f80fdfe608080604052600436101561001c575b50361561001a575f80fd5b005b5f3560e01c9081630578385414610429575080630c28d13e1461030157806331a38c89146102e05780633ba9b427146102c35780633c2448ed146102ab57806344788bfa1461028e578063463defd11461026a57806349343624146102425780635ff972cc146102255780636f307dc3146101f7578063803bd245146101cf5780638876d930146101b257806389564a8f146101905780639cc642bf1461016b578063a66521571461014e578063af13fe9314610122578063cc1f2afa14610127578063d9af3db8146101225763ed059985146100f9575f61000f565b3461011e575f36600319011261011e57602060ff60025460081c166040519015158152f35b5f80fd5b61044b565b3461011e575f36600319011261011e5760206040515f516020611b145f395f51905f528152f35b3461011e575f36600319011261011e576020600154604051908152f35b3461011e575f36600319011261011e57602060ff60025460181c166040519015158152f35b3461011e575f36600319011261011e57602060ff600254166040519015158152f35b3461011e575f36600319011261011e576020600454604051908152f35b3461011e575f36600319011261011e576005546040516001600160a01b039091168152602090f35b3461011e575f36600319011261011e57602060405173eeeeeeeeeeeeeeeeeeeeeeeeeeeeeeeeeeeeeeee8152f35b3461011e575f36600319011261011e576020600854604051908152f35b3461011e575f36600319011261011e576007546040516001600160a01b039091168152602090f35b3461011e575f36600319011261011e57602060ff5f5460081c166040519015158152f35b3461011e575f36600319011261011e576020600354604051908152f35b3461011e575f36600319011261011e5761001a6104ea565b3461011e575f36600319011261011e576020600654604051908152f35b3461011e575f36600319011261011e57602060ff5f54166040519015158152f35b3461011e57606036600319011261011e576024356001600160a01b0381169081900361011e57604435905f516020611b145f395f51905f5233036103f8576004355f52600960205260405f208054908382018092116103e45755811515806103da575b61036a57005b47918083116103d2575b508161037c57005b5f80809381935af161038c6104ab565b501561039457005b60405162461bcd60e51b8152602060048201526016602482015275189bdc9c9bddc81d1c985b9cd9995c8819985a5b195960521b6044820152606490fd5b915082610374565b5030811415610364565b634e487b7160e01b5f52601160045260245ffd5b60405162461bcd60e51b81526020600482015260096024820152681bdb9b1e481e1b999d60ba1b6044820152606490fd5b3461011e575f36600319011261011e5760209060ff60025460101c1615158152f35b3461011e57602036600319011261011e576004355f526009602052602060405f2054604051908152f35b90601f8019910116810190811067ffffffffffffffff82111761049757604052565b634e487b7160e01b5f52604160045260245ffd5b3d156104e5573d9067ffffffffffffffff821161049757604051916104da601f8201601f191660200184610475565b82523d5f602084013e565b606090565b5f5460ff811661063b5760ff19166001175f908155600780546001600160a01b0319169055604051634ccf524b60e11b81526020816004815f516020611b145f395f51905f525afa5f91816105ff575b506105f7575b506040516330de110d60e11b81525f91906020816004815f516020611b145f395f51905f525afa5f91816105c3575b506105bb575b5061057e610652565b156105b3576001600160a01b03161590816105aa575b506105a0576006600155565b6105a86106ee565b565b9050155f610594565b505060018055565b91505f610575565b9091506020813d6020116105ef575b816105df60209383610475565b8101031261011e5751905f61056f565b3d91506105d2565b90505f610540565b9091506020813d602011610633575b8161061b60209383610475565b8101031261011e5761062c9061063e565b905f61053a565b3d915061060e565b50565b51906001600160a01b038216820361011e57565b6001600160a01b036106705f516020611b145f395f51905f52610e53565b163081146106e8576106e4575f80604051602081019063204a7f0760e21b82526004815261069f602482610475565b5190825f516020611b145f395f51905f525af16106ba6104ab565b50156106e457306001600160a01b036106df5f516020611b145f395f51905f52610e53565b161490565b5f90565b50600190565b600a545f906001600160a01b031615610d6c575b5f516020611b145f395f51905f523b1561011e576040516392eefe9b60e01b81523060048201525f81602481835f516020611b145f395f51905f525af19081610d57575b5061075357506002600155565b600a54600b546001600160a01b0391821691165f516020611b145f395f51905f523b15610d145760405191638a1d253160e01b835260048301526024820152818082604481835f516020611b145f395f51905f525af19182610d42575b50506107be57506003600155565b600b546001600160a01b03165f516020611b145f395f51905f523b15610b065760405190635b473e9b60e01b8252600482015260016024820152620151806044820152610e1060648201526001608482015281808260a481835f516020611b145f395f51905f525af19182610d2d575b505061083c57506004600155565b611e61600455600a546001600160a01b0316803b15610b065781809160246040518094819363ad5ae76f60e01b8352611e6160048401525af18015610cf157908291610d18575b505060018060a01b03600a5416600454813b15610d1457829160648392604051948593849263bf31196f60e01b845260048401528160248401525f516020611b145f395f51905f5260448401525af18015610cf157908291610cfc575b50506040516330de110d60e11b81526020816004815f516020611b145f395f51905f525afa908115610cf1578291610cbf575b5060018101809111610cab5760018060a01b03600a54166004545f516020611b145f395f51905f523b15610ca7576040519163e3333ae960e01b8352600483015260248201526104836044820152306064820152670de0b6b3a76400006084820152828160a481835f516020611b145f395f51905f525af18015610c9c57908391610c87575b5050600254600160ff19821617600255600454604051633ad6517960e21b815283600482015260a0816024815f516020611b145f395f51905f525afa918215610c7c5785869087938895610c0a575b50600b546001600160a01b03908116911603610bc55703610b8c5761048303610b4f57610b0a5761010162010000918161ffff1982161760025583600355306001600160601b0360a01b60055416176005558385526009602052604085205460065562ffffff191617176002555f516020611b145f395f51905f523b15610b06576040519063cd063eb960e01b8252306004830152602482015230604482015260016064820152818082608481835f516020611b145f395f51905f525af19182610af1575b5050610ae9576002805463ff00000019166301000000179055805461ff0019166101001790556105a85f516020611b145f395f51905f52610ec8565b506005600155565b81610afb91610475565b610b0657815f610aad565b5080fd5b60405162461bcd60e51b815260206004820152601a60248201527f756e65787065637465642077697468647261776e206f726465720000000000006044820152606490fd5b60405162461bcd60e51b81526020600482015260156024820152741b999d151e5c19481b9bdd081c1c995cd95c9d9959605a1b6044820152606490fd5b60405162461bcd60e51b81526020600482015260116024820152700e8ded6cadc40d2c840dad2e6dac2e8c6d607b1b6044820152606490fd5b60405162461bcd60e51b815260206004820152601860248201527f636f6c6c656374696f6e206e6f742072657772697474656e00000000000000006044820152606490fd5b94505050905060a0823d60a011610c74575b81610c2960a09383610475565b81010312610c7057610c3a8261063e565b50610c476020830161063e565b9060408301519260806060820151910151928315158403610c6c57939092935f6109e8565b8780fd5b8480fd5b3d9150610c1c565b6040513d87823e3d90fd5b81610c9191610475565b610b0657815f610999565b6040513d85823e3d90fd5b8380fd5b634e487b7160e01b82526011600452602482fd5b90506020813d602011610ce9575b81610cda60209383610475565b8101031261011e57515f610913565b3d9150610ccd565b6040513d84823e3d90fd5b81610d0691610475565b610d1157805f6108e0565b80fd5b8280fd5b81610d2291610475565b610d1157805f610883565b81610d3791610475565b610b0657815f61082e565b81610d4c91610475565b610b0657815f6107b0565b610d649192505f90610475565b5f905f610746565b6040516105c380820182811067ffffffffffffffff8211176104975782916111d5833903905ff08015610e485760018060a01b03166001600160601b0360a01b600a541617600a5560405161029280820182811067ffffffffffffffff821117610497578291611798833903905ff08015610e485760018060a01b03166001600160601b0360a01b600b541617600b5560405160ea80820182811067ffffffffffffffff821117610497578291611a2a833903905ff08015610e485760018060a01b03166001600160601b0360a01b600c541617600c55610702565b6040513d5f823e3d90fd5b6040516303e1469160e61b81525f9291602090829060049082906001600160a01b03165afa5f9181610e8c575b50610e885750565b9150565b9091506020813d602011610ec0575b81610ea860209383610475565b8101031261011e57610eb99061063e565b905f610e80565b3d9150610e9b565b475f516020611b145f395f51905f5231915f9280611181575b506040516370a0823160e01b81525f516020611b145f395f51905f5260048201529060208260248173c02aaa39b223fe8d0a0e5c4f27ead9083c756cc25afa918215611176578492611142575b5081610f71575b50504781810392818411610f5d575003610f585750670de0b6b3a7640000600855565b600855565b634e487b7160e01b81526011600452602490fd5b600c546001600160a01b0316803b15610c705784809160246040518094819363bdb2321f60e01b835273c02aaa39b223fe8d0a0e5c4f27ead9083c756cc260048401525af18015610c7c5790859161112d575b5050600c546001600160a01b039182169116813b15610c705760405163f3fef3a360e01b81526001600160a01b039190911660048201526024810192909252839081908390604490829084905af19182611118575b5050611027575b5f80610f35565b6040516370a0823160e01b815230600482015260208160248173c02aaa39b223fe8d0a0e5c4f27ead9083c756cc25afa908115610c9c5783916110e6575b5080611072575b50611020565b73c02aaa39b223fe8d0a0e5c4f27ead9083c756cc23b15610d145760405190632e1a7d4d60e01b8252600482015282816024818373c02aaa39b223fe8d0a0e5c4f27ead9083c756cc25af18015610c9c579083916110d1575b5061106c565b816110db91610475565b610b0657815f6110cb565b90506020813d602011611110575b8161110160209383610475565b8101031261011e57515f611065565b3d91506110f4565b8161112291610475565b610d1457825f611019565b8161113791610475565b610ca757835f610fc4565b9091506020813d60201161116e575b8161115e60209383610475565b8101031261011e5751905f610f2e565b3d9150611151565b6040513d86823e3d90fd5b6001600160a01b038216803b1561011e5760405163f3fef3a360e01b815230600482015260248101929092525f908290604490829084905af115610ee1576111cc9193505f90610475565b5f915f610ee156fe608080604052346015576105a9908161001a8239f35b5f80fdfe6080806040526004361015610012575f80fd5b5f3560e01c90816358178168146104d6575080638264fe98146102915780638b72a2ec146101f2578063ad5ae76f146101325763bf31196f14610053575f80fd5b3461012e57606036600319011261012e576004356044356001600160a01b0381169081900361012e57600490825f525f60205261009d60018060a01b0360405f205416331461053b565b6100a5610507565b6001808252602080830186815233604080860191825260243560608701908152608087019788525f998a5260029485905298209451855460ff191690151560ff16178555905192840192909255905190820180546001600160a01b039283166001600160a01b031991821617909155945160038301559151920180549290911691909216179055005b5f80fd5b3461012e57602036600319011261012e576004355f818152602081905260409020546001600160a01b03166101bb575f525f60205260405f2060018060a01b0333166bffffffffffffffffffffffff60a01b825416179055335f52600160205260405f20805490600182018092116101a75755005b634e487b7160e01b5f52601160045260245ffd5b60405162461bcd60e51b815260206004820152600f60248201526e185b1c9958591e4818db185a5b5959608a1b6044820152606490fd5b3461012e57604036600319011261012e576004356001600160a01b0381169081900361012e57602435805f525f60205261023960018060a01b0360405f205416331461053b565b5f525f60205260405f20816bffffffffffffffffffffffff60a01b825416179055335f52600160205260405f208054905f1982019182116101a757555f52600160205260405f20805490600182018092116101a75755005b602036600319011261012e57600435805f52600260205260405f206102b4610507565b815460ff1615801582526001830154602083015260028301546001600160a01b0390811660408401908152600385015460608501908152600490950154909116608090930192835292906104a2575161047157516001600160a01b03168015908115610467575b501561043557516001600160a01b031680156103ff575f828152602081905260409020546001600160a01b03168190036103c8575f8281526020818152604080832080546001600160a01b03191633179055928252600190522080545f198101919082116101a75755335f52600160205260405f20805490600182018092116101a757555f5260026020525f60046040822082815582600182015582600282015582600382015501555f80f35b60405162461bcd60e51b815260206004820152600f60248201526e0e6cad8d8cae440dad2e6dac2e8c6d608b1b6044820152606490fd5b60405162461bcd60e51b815260206004820152600e60248201526d34b73b30b634b21039b2b63632b960911b6044820152606490fd5b60405162461bcd60e51b815260206004820152600a6024820152691c995cdd1c9a58dd195960b21b6044820152606490fd5b905033148361031b565b60405162461bcd60e51b81526020600482015260096024820152681c1c9a58d9481cd95d60ba1b6044820152606490fd5b60405162461bcd60e51b815260206004820152600c60248201526b6e6f7420666f722073616c6560a01b6044820152606490fd5b3461012e57602036600319011261012e576004355f90815260208181526040909120546001600160a01b0316825290f35b6040519060a0820182811067ffffffffffffffff82111761052757604052565b634e487b7160e01b5f52604160045260245ffd5b1561054257565b60405162461bcd60e51b81526020600482015260096024820152683737ba1037bbb732b960b91b6044820152606490fdfea26469706673582212200eea9780f9af637a38386105ed01a3fa05a7b5ff7f52988cfa2cac2f956c9edb64736f6c634300081e003360808060405234601557610278908161001a8239f35b5f80fdfe608080604052600436101561001a575b503661020f5761020f565b5f3560e01c90816342842e0e1461014c575080636352211e1461011a578063a0712d68146100e7578063a9c7b2c8146100915763ddd81f821461005d575f61000f565b3461008d575f36600319011261008d57335f90815260208190526040902080546001600160a01b03191630179055005b5f80fd5b3461008d57602036600319011261008d576100aa6101f9565b6001600160a01b039081165f908152602081905260409020541680156100e0575b6040516001600160a01b039091168152602090f35b50306100cb565b3461008d57602036600319011261008d576004355f90815260016020526040902080546001600160a01b03191633179055005b3461008d57602036600319011261008d576004355f526001602052602060018060a01b0360405f205416604051908152f35b3461008d57606036600319011261008d576101656101f9565b602435916001600160a01b038316830361008d576044355f8181526001602052604090205490926001600160a01b039182169116036101cb57505f90815260016020526040902080546001600160a01b0319166001600160a01b03909216919091179055005b62461bcd60e51b81526020600482015260096024820152683737ba1037bbb732b960b91b6044820152606490fd5b600435906001600160a01b038216820361008d57565b60405162461bcd60e51b815260206004820152600b60248201526a657263373231206f6e6c7960a81b6044820152606490fdfea2646970667358221220d224a7a7c315b80729f00fed6f4ed865f6b0ff91869e99a2847955123729e2cf64736f6c634300081e00336080806040523460135760d2908160188239f35b5f80fdfe608060405260043610156010575f80fd5b5f3560e01c80636f307dc31460775780637158da7c1460775763bdb2321f146036575f80fd5b3460735760203660031901126073576004356001600160a01b038116908190036073576bffffffffffffffffffffffff60a01b5f5416175f555f80f35b5f80fd5b346073575f3660031901126073575f546040516001600160a01b039091168152602090f3fea2646970667358221220c79c1125b5a22179bb833cfd5b9e3841e9772b51fd3504f363e6182adddffd0e64736f6c634300081e003300000000000000000000000039360ac1239a0b98cb8076d4135d0f72b7fd9909a2646970667358221220a9ff68a66b7ea64f40f946ea118e3120ea49130de593e4a86f6a39b27ba9d39164736f6c634300081e0033","linkReferences":{}},"methodIdentifiers":{"TARGET()":"cc1f2afa","borrow(uint256,address,uint256)":"0c28d13e","borrowBalanceCurrent(uint256)":"d9af3db8","executeOnOpportunity()":"3c2448ed","executed()":"31a38c89","exploitedBorrowAmount()":"3ba9b427","exploitedOrderId()":"44788bfa","exploitedPunkId()":"8876d930","exploitedXToken()":"803bd245","getOrderBorrowBalanceCurrent(uint256)":"af13fe93","hypothesisValidated()":"463defd1","infeasibleReason()":"a6652157","profitAmount()":"5ff972cc","profitToken()":"49343624","stageBorrowWith1155()":"89564a8f","stageLaterTransferPathAttempted()":"05783854","stageLaterTransferPathReverted()":"9cc642bf","stageWrappedPunkRecordedAs1155()":"ed059985","underlying()":"6f307dc3"},"id":0}