{"abi":[{"type":"function","name":"buyPunk","inputs":[{"name":"punkIndex","type":"uint256","internalType":"uint256"}],"outputs":[],"stateMutability":"payable"},{"type":"function","name":"claimPunk","inputs":[{"name":"punkId","type":"uint256","internalType":"uint256"}],"outputs":[],"stateMutability":"nonpayable"},{"type":"function","name":"offerPunkForSaleToAddress","inputs":[{"name":"punkIndex","type":"uint256","internalType":"uint256"},{"name":"minSalePriceInWei","type":"uint256","internalType":"uint256"},{"name":"toAddress","type":"address","internalType":"address"}],"outputs":[],"stateMutability":"nonpayable"},{"type":"function","name":"punkIndexToAddress","inputs":[{"name":"punkIndex","type":"uint256","internalType":"uint256"}],"outputs":[{"name":"owner","type":"address","internalType":"address"}],"stateMutability":"view"},{"type":"function","name":"transferPunk","inputs":[{"name":"to","type":"address","internalType":"address"},{"name":"punkIndex","type":"uint256","internalType":"uint256"}],"outputs":[],"stateMutability":"nonpayable"}],"bytecode":{"object":"0x608080604052346015576105a9908161001a8239f35b5f80fdfe6080806040526004361015610012575f80fd5b5f3560e01c90816358178168146104d6575080638264fe98146102915780638b72a2ec146101f2578063ad5ae76f146101325763bf31196f14610053575f80fd5b3461012e57606036600319011261012e576004356044356001600160a01b0381169081900361012e57600490825f525f60205261009d60018060a01b0360405f205416331461053b565b6100a5610507565b6001808252602080830186815233604080860191825260243560608701908152608087019788525f998a5260029485905298209451855460ff191690151560ff16178555905192840192909255905190820180546001600160a01b039283166001600160a01b031991821617909155945160038301559151920180549290911691909216179055005b5f80fd5b3461012e57602036600319011261012e576004355f818152602081905260409020546001600160a01b03166101bb575f525f60205260405f2060018060a01b0333166bffffffffffffffffffffffff60a01b825416179055335f52600160205260405f20805490600182018092116101a75755005b634e487b7160e01b5f52601160045260245ffd5b60405162461bcd60e51b815260206004820152600f60248201526e185b1c9958591e4818db185a5b5959608a1b6044820152606490fd5b3461012e57604036600319011261012e576004356001600160a01b0381169081900361012e57602435805f525f60205261023960018060a01b0360405f205416331461053b565b5f525f60205260405f20816bffffffffffffffffffffffff60a01b825416179055335f52600160205260405f208054905f1982019182116101a757555f52600160205260405f20805490600182018092116101a75755005b602036600319011261012e57600435805f52600260205260405f206102b4610507565b815460ff1615801582526001830154602083015260028301546001600160a01b0390811660408401908152600385015460608501908152600490950154909116608090930192835292906104a2575161047157516001600160a01b03168015908115610467575b501561043557516001600160a01b031680156103ff575f828152602081905260409020546001600160a01b03168190036103c8575f8281526020818152604080832080546001600160a01b03191633179055928252600190522080545f198101919082116101a75755335f52600160205260405f20805490600182018092116101a757555f5260026020525f60046040822082815582600182015582600282015582600382015501555f80f35b60405162461bcd60e51b815260206004820152600f60248201526e0e6cad8d8cae440dad2e6dac2e8c6d608b1b6044820152606490fd5b60405162461bcd60e51b815260206004820152600e60248201526d34b73b30b634b21039b2b63632b960911b6044820152606490fd5b60405162461bcd60e51b815260206004820152600a6024820152691c995cdd1c9a58dd195960b21b6044820152606490fd5b905033148361031b565b60405162461bcd60e51b81526020600482015260096024820152681c1c9a58d9481cd95d60ba1b6044820152606490fd5b60405162461bcd60e51b815260206004820152600c60248201526b6e6f7420666f722073616c6560a01b6044820152606490fd5b3461012e57602036600319011261012e576004355f90815260208181526040909120546001600160a01b0316825290f35b6040519060a0820182811067ffffffffffffffff82111761052757604052565b634e487b7160e01b5f52604160045260245ffd5b1561054257565b60405162461bcd60e51b81526020600482015260096024820152683737ba1037bbb732b960b91b6044820152606490fdfea26469706673582212200eea9780f9af637a38386105ed01a3fa05a7b5ff7f52988cfa2cac2f956c9edb64736f6c634300081e0033","linkReferences":{}},"methodIdentifiers":{"buyPunk(uint256)":"8264fe98","claimPunk(uint256)":"ad5ae76f","offerPunkForSaleToAddress(uint256,uint256,address)":"bf31196f","punkIndexToAddress(uint256)":"58178168","transferPunk(address,uint256)":"8b72a2ec"},"id":0}