{"abi":[{"type":"function","name":"setUnderlying","inputs":[{"name":"asset","type":"address","internalType":"address"}],"outputs":[],"stateMutability":"nonpayable"},{"type":"function","name":"underlying","inputs":[],"outputs":[{"name":"","type":"address","internalType":"address"}],"stateMutability":"view"},{"type":"function","name":"underlyingAsset","inputs":[],"outputs":[{"name":"","type":"address","internalType":"address"}],"stateMutability":"view"}],"bytecode":{"object":"0x6080806040523460135760d2908160188239f35b5f80fdfe608060405260043610156010575f80fd5b5f3560e01c80636f307dc31460775780637158da7c1460775763bdb2321f146036575f80fd5b3460735760203660031901126073576004356001600160a01b038116908190036073576bffffffffffffffffffffffff60a01b5f5416175f555f80f35b5f80fd5b346073575f3660031901126073575f546040516001600160a01b039091168152602090f3fea2646970667358221220c79c1125b5a22179bb833cfd5b9e3841e9772b51fd3504f363e6182adddffd0e64736f6c634300081e0033","linkReferences":{}},"methodIdentifiers":{"setUnderlying(address)":"bdb2321f","underlying()":"6f307dc3","underlyingAsset()":"7158da7c"},"id":0}