{"abi":[{"type":"constructor","inputs":[],"stateMutability":"nonpayable"},{"type":"function","name":"attackerMintValidated","inputs":[],"outputs":[{"name":"","type":"bool","internalType":"bool"}],"stateMutability":"view"},{"type":"function","name":"controller","inputs":[],"outputs":[{"name":"","type":"address","internalType":"address"}],"stateMutability":"view"},{"type":"function","name":"dumpValidated","inputs":[],"outputs":[{"name":"","type":"bool","internalType":"bool"}],"stateMutability":"view"},{"type":"function","name":"executeOnOpportunity","inputs":[],"outputs":[],"stateMutability":"nonpayable"},{"type":"function","name":"failureReason","inputs":[],"outputs":[{"name":"","type":"string","internalType":"string"}],"stateMutability":"view"},{"type":"function","name":"fundingPair","inputs":[],"outputs":[{"name":"","type":"address","internalType":"address"}],"stateMutability":"view"},{"type":"function","name":"hypothesisValidated","inputs":[],"outputs":[{"name":"","type":"bool","internalType":"bool"}],"stateMutability":"view"},{"type":"function","name":"path0VictimTransferWipeValidated","inputs":[],"outputs":[{"name":"","type":"bool","internalType":"bool"}],"stateMutability":"view"},{"type":"function","name":"path1AttackerMintValidated","inputs":[],"outputs":[{"name":"","type":"bool","internalType":"bool"}],"stateMutability":"view"},{"type":"function","name":"path2DumpValidated","inputs":[],"outputs":[{"name":"","type":"bool","internalType":"bool"}],"stateMutability":"view"},{"type":"function","name":"previewController","inputs":[{"name":"sender","type":"address","internalType":"address"},{"name":"recipient","type":"address","internalType":"address"},{"name":"amount","type":"uint256","internalType":"uint256"}],"outputs":[{"name":"ok","type":"bool","internalType":"bool"},{"name":"subBal","type":"uint256","internalType":"uint256"},{"name":"addBal","type":"uint256","internalType":"uint256"}],"stateMutability":"nonpayable"},{"type":"function","name":"profitAmount","inputs":[],"outputs":[{"name":"","type":"uint256","internalType":"uint256"}],"stateMutability":"view"},{"type":"function","name":"profitToken","inputs":[],"outputs":[{"name":"","type":"address","internalType":"address"}],"stateMutability":"view"},{"type":"function","name":"selectedPair","inputs":[],"outputs":[{"name":"","type":"address","internalType":"address"}],"stateMutability":"view"},{"type":"function","name":"selectedRouter","inputs":[],"outputs":[{"name":"","type":"address","internalType":"address"}],"stateMutability":"view"},{"type":"function","name":"uniswapV2Call","inputs":[{"name":"sender","type":"address","internalType":"address"},{"name":"amount0","type":"uint256","internalType":"uint256"},{"name":"amount1","type":"uint256","internalType":"uint256"},{"name":"","type":"bytes","internalType":"bytes"}],"outputs":[],"stateMutability":"nonpayable"},{"type":"function","name":"victimWipeValidated","inputs":[],"outputs":[{"name":"","type":"bool","internalType":"bool"}],"stateMutability":"view"}],"bytecode":{"object":"0x6080604052348015600e575f5ffd5b506141aa8061001c5f395ff3fe608060405234801561000f575f5ffd5b5060043610610109575f3560e01c80635ff972cc116100a0578063e434b44e1161006f578063e434b44e14610273578063e962f50114610291578063e979c88e146102af578063f77c4791146102cd578063f7bf4c11146102eb57610109565b80635ff972cc146101fb57806364920a0e14610219578063aa94f63214610237578063c3b89d9c1461025557610109565b80633c2448ed116100dc5780633c2448ed14610197578063463defd1146101a157806349343624146101bf5780634f9522a4146101dd57610109565b8063020a33e71461010d57806308b7b2db1461012b57806310d1e85c1461015d5780631b56f66814610179575b5f5ffd5b610115610309565b60405161012291906130ed565b60405180910390f35b6101456004803603810190610140919061319b565b61031c565b604051610154939291906131fa565b60405180910390f35b61017760048036038101906101729190613290565b610339565b005b6101816109e1565b60405161018e9190613323565b60405180910390f35b61019f610a06565b005b6101a9611105565b6040516101b691906130ed565b60405180910390f35b6101c7611118565b6040516101d49190613323565b60405180910390f35b6101e561113f565b6040516101f291906133ac565b60405180910390f35b6102036111cb565b60405161021091906133cc565b60405180910390f35b6102216111d4565b60405161022e91906130ed565b60405180910390f35b61023f6111e7565b60405161024c9190613323565b60405180910390f35b61025d61120c565b60405161026a91906130ed565b60405180910390f35b61027b61121f565b60405161028891906130ed565b60405180910390f35b610299611232565b6040516102a691906130ed565b60405180910390f35b6102b7611245565b6040516102c491906130ed565b60405180910390f35b6102d5611258565b6040516102e29190613323565b60405180910390f35b6102f361127d565b6040516103009190613323565b60405180910390f35b6002601a9054906101000a900460ff1681565b5f5f5f61032a8686866112a2565b92509250925093509350939050565b60065f9054906101000a900473ffffffffffffffffffffffffffffffffffffffff1673ffffffffffffffffffffffffffffffffffffffff163373ffffffffffffffffffffffffffffffffffffffff16146103c8576040517f08c379a00000000000000000000000000000000000000000000000000000000081526004016103bf9061342f565b60405180910390fd5b3073ffffffffffffffffffffffffffffffffffffffff168573ffffffffffffffffffffffffffffffffffffffff1614610436576040517f08c379a000000000000000000000000000000000000000000000000000000000815260040161042d90613497565b60405180910390fd5b5f5f85116104445783610446565b845b90505f811161048a576040517f08c379a0000000000000000000000000000000000000000000000000000000008152600401610481906134ff565b60405180910390fd5b61049381611464565b5f73f7ef0d57277ad6c2babf87ab64ba61abdd2590d273ffffffffffffffffffffffffffffffffffffffff166370a08231306040518263ffffffff1660e01b81526004016104e19190613323565b602060405180830381865afa1580156104fc573d5f5f3e3d5ffd5b505050506040513d601f19601f820116820180604052508101906105209190613531565b90505f8111610564576040517f08c379a000000000000000000000000000000000000000000000000000000000815260040161055b906135a6565b60405180910390fd5b61056d81611732565b5f5f5f61059b8460055f9054906101000a900473ffffffffffffffffffffffffffffffffffffffff16611c56565b9250925092505f83116105e3576040517f08c379a00000000000000000000000000000000000000000000000000000000081526004016105da9061360e565b60405180910390fd5b828210806105f057508281115b806105fa57508181115b15610636576001600260156101000a81548160ff0219169083151502179055506001600260196101000a81548160ff0219169083151502179055505b5f60025f9054906101000a900473ffffffffffffffffffffffffffffffffffffffff1673ffffffffffffffffffffffffffffffffffffffff166370a08231306040518263ffffffff1660e01b81526004016106919190613323565b602060405180830381865afa1580156106ac573d5f5f3e3d5ffd5b505050506040513d601f19601f820116820180604052508101906106d09190613531565b90506106db84611f07565b5f60025f9054906101000a900473ffffffffffffffffffffffffffffffffffffffff1673ffffffffffffffffffffffffffffffffffffffff166370a08231306040518263ffffffff1660e01b81526004016107369190613323565b602060405180830381865afa158015610751573d5f5f3e3d5ffd5b505050506040513d601f19601f820116820180604052508101906107759190613531565b90508181116107b9576040517f08c379a00000000000000000000000000000000000000000000000000000000081526004016107b090613676565b60405180910390fd5b6001600260176101000a81548160ff02191690831515021790555060016002601a6101000a81548160ff0219169083151502179055505f6107f9886121c8565b90508060025f9054906101000a900473ffffffffffffffffffffffffffffffffffffffff1673ffffffffffffffffffffffffffffffffffffffff166370a08231306040518263ffffffff1660e01b81526004016108569190613323565b602060405180830381865afa158015610871573d5f5f3e3d5ffd5b505050506040513d601f19601f820116820180604052508101906108959190613531565b10156108d6576040517f08c379a00000000000000000000000000000000000000000000000000000000081526004016108cd906136de565b60405180910390fd5b60025f9054906101000a900473ffffffffffffffffffffffffffffffffffffffff1673ffffffffffffffffffffffffffffffffffffffff1663a9059cbb60065f9054906101000a900473ffffffffffffffffffffffffffffffffffffffff16836040518363ffffffff1660e01b81526004016109539291906136fc565b6020604051808303815f875af115801561096f573d5f5f3e3d5ffd5b505050506040513d601f19601f82011682018060405250810190610993919061374d565b6109d2576040517f08c379a00000000000000000000000000000000000000000000000000000000081526004016109c9906137c2565b60405180910390fd5b50505050505050505050505050565b60065f9054906101000a900473ffffffffffffffffffffffffffffffffffffffff1681565b610a0e6121f7565b610a16612453565b60035f6101000a81548173ffffffffffffffffffffffffffffffffffffffff021916908373ffffffffffffffffffffffffffffffffffffffff160217905550610a5d61263b565b60045f60025f60055f8691906101000a81548173ffffffffffffffffffffffffffffffffffffffff021916908373ffffffffffffffffffffffffffffffffffffffff1602179055508591906101000a81548173ffffffffffffffffffffffffffffffffffffffff021916908373ffffffffffffffffffffffffffffffffffffffff1602179055508491906101000a81548173ffffffffffffffffffffffffffffffffffffffff021916908373ffffffffffffffffffffffffffffffffffffffff16021790555050505060025f9054906101000a900473ffffffffffffffffffffffffffffffffffffffff165f5f6101000a81548173ffffffffffffffffffffffffffffffffffffffff021916908373ffffffffffffffffffffffffffffffffffffffff1602179055505f73ffffffffffffffffffffffffffffffffffffffff1660035f9054906101000a900473ffffffffffffffffffffffffffffffffffffffff1673ffffffffffffffffffffffffffffffffffffffff1603610c24576040518060400160405280601881526020017f636f6e74726f6c6c6572206465636f6465206661696c6564000000000000000081525060079081610c1e9190613a0a565b50611103565b5f73ffffffffffffffffffffffffffffffffffffffff1660045f9054906101000a900473ffffffffffffffffffffffffffffffffffffffff1673ffffffffffffffffffffffffffffffffffffffff161480610ccb57505f73ffffffffffffffffffffffffffffffffffffffff1660025f9054906101000a900473ffffffffffffffffffffffffffffffffffffffff1673ffffffffffffffffffffffffffffffffffffffff16145b80610d2257505f73ffffffffffffffffffffffffffffffffffffffff1660055f9054906101000a900473ffffffffffffffffffffffffffffffffffffffff1673ffffffffffffffffffffffffffffffffffffffff16145b15610d71576040518060400160405280601481526020017f6e6f205441524745542f5745544820726f75746500000000000000000000000081525060079081610d6b9190613a0a565b50611103565b610dbd60045f9054906101000a900473ffffffffffffffffffffffffffffffffffffffff1660025f9054906101000a900473ffffffffffffffffffffffffffffffffffffffff166126c9565b60065f6101000a81548173ffffffffffffffffffffffffffffffffffffffff021916908373ffffffffffffffffffffffffffffffffffffffff1602179055505f73ffffffffffffffffffffffffffffffffffffffff1660065f9054906101000a900473ffffffffffffffffffffffffffffffffffffffff1673ffffffffffffffffffffffffffffffffffffffff1603610e9a576040518060400160405280601481526020017f6e6f20574554482066756e64696e67207061697200000000000000000000000081525060079081610e949190613a0a565b50611103565b5f610ee760065f9054906101000a900473ffffffffffffffffffffffffffffffffffffffff1660025f9054906101000a900473ffffffffffffffffffffffffffffffffffffffff166128c7565b90505f8103610f3b576040518060400160405280601881526020017f66756e64696e67207061697220746f6f207368616c6c6f77000000000000000081525060079081610f349190613a0a565b5050611103565b5f60025f9054906101000a900473ffffffffffffffffffffffffffffffffffffffff1673ffffffffffffffffffffffffffffffffffffffff166370a08231306040518263ffffffff1660e01b8152600401610f969190613323565b602060405180830381865afa158015610fb1573d5f5f3e3d5ffd5b505050506040513d601f19601f82011682018060405250810190610fd59190613531565b905061102460065f9054906101000a900473ffffffffffffffffffffffffffffffffffffffff1660025f9054906101000a900473ffffffffffffffffffffffffffffffffffffffff1684612a6c565b61104f60025f9054906101000a900473ffffffffffffffffffffffffffffffffffffffff1682612bca565b600260189054906101000a900460ff1680156110775750600260199054906101000a900460ff165b801561108f57506002601a9054906101000a900460ff165b801561109c57505f600154115b156110c1576001600260146101000a81548160ff021916908315150217905550611100565b5f600780546110cf9061383a565b9050036110ff5760405180606001604052806038815260200161413d60389139600790816110fd9190613a0a565b505b5b50505b565b600260149054906101000a900460ff1681565b5f5f5f9054906101000a900473ffffffffffffffffffffffffffffffffffffffff16905090565b6007805461114c9061383a565b80601f01602080910402602001604051908101604052809291908181526020018280546111789061383a565b80156111c35780601f1061119a576101008083540402835291602001916111c3565b820191905f5260205f20905b8154815290600101906020018083116111a657829003601f168201915b505050505081565b5f600154905090565b600260199054906101000a900460ff1681565b60055f9054906101000a900473ffffffffffffffffffffffffffffffffffffffff1681565b600260189054906101000a900460ff1681565b600260179054906101000a900460ff1681565b600260169054906101000a900460ff1681565b600260159054906101000a900460ff1681565b60035f9054906101000a900473ffffffffffffffffffffffffffffffffffffffff1681565b60045f9054906101000a900473ffffffffffffffffffffffffffffffffffffffff1681565b5f5f5f5f73ffffffffffffffffffffffffffffffffffffffff1660035f9054906101000a900473ffffffffffffffffffffffffffffffffffffffff1673ffffffffffffffffffffffffffffffffffffffff160361134157611301612453565b60035f6101000a81548173ffffffffffffffffffffffffffffffffffffffff021916908373ffffffffffffffffffffffffffffffffffffffff1602179055505b5f73ffffffffffffffffffffffffffffffffffffffff1660035f9054906101000a900473ffffffffffffffffffffffffffffffffffffffff1673ffffffffffffffffffffffffffffffffffffffff16036113a3575f5f5f92509250925061145b565b60035f9054906101000a900473ffffffffffffffffffffffffffffffffffffffff1673ffffffffffffffffffffffffffffffffffffffff166374b621228787876040518463ffffffff1660e01b815260040161140193929190613ad9565b6060604051808303815f875af192505050801561143c57506040513d601f19601f820116820180604052508101906114399190613b0e565b60015b61144e575f5f5f92509250925061145b565b8282829550955095505050505b93509350939050565b60025f9054906101000a900473ffffffffffffffffffffffffffffffffffffffff1673ffffffffffffffffffffffffffffffffffffffff1663095ea7b360045f9054906101000a900473ffffffffffffffffffffffffffffffffffffffff167fffffffffffffffffffffffffffffffffffffffffffffffffffffffffffffffff6040518363ffffffff1660e01b81526004016115019291906136fc565b6020604051808303815f875af115801561151d573d5f5f3e3d5ffd5b505050506040513d601f19601f82011682018060405250810190611541919061374d565b611580576040517f08c379a000000000000000000000000000000000000000000000000000000000815260040161157790613ba8565b60405180910390fd5b5f600267ffffffffffffffff81111561159c5761159b6137e0565b5b6040519080825280602002602001820160405280156115ca5781602001602082028036833780820191505090505b50905060025f9054906101000a900473ffffffffffffffffffffffffffffffffffffffff16815f8151811061160257611601613bc6565b5b602002602001019073ffffffffffffffffffffffffffffffffffffffff16908173ffffffffffffffffffffffffffffffffffffffff168152505073f7ef0d57277ad6c2babf87ab64ba61abdd2590d28160018151811061166557611664613bc6565b5b602002602001019073ffffffffffffffffffffffffffffffffffffffff16908173ffffffffffffffffffffffffffffffffffffffff168152505060045f9054906101000a900473ffffffffffffffffffffffffffffffffffffffff1673ffffffffffffffffffffffffffffffffffffffff16635c11d795835f8430426040518663ffffffff1660e01b8152600401611701959493929190613ce3565b5f604051808303815f87803b158015611718575f5ffd5b505af115801561172a573d5f5f3e3d5ffd5b505050505050565b5f810315611c53575f60405180606001604052803073ffffffffffffffffffffffffffffffffffffffff1673ffffffffffffffffffffffffffffffffffffffff16815260200160055f9054906101000a900473ffffffffffffffffffffffffffffffffffffffff1673ffffffffffffffffffffffffffffffffffffffff1673ffffffffffffffffffffffffffffffffffffffff16815260200160065f9054906101000a900473ffffffffffffffffffffffffffffffffffffffff1673ffffffffffffffffffffffffffffffffffffffff1673ffffffffffffffffffffffffffffffffffffffff1681525090505f604051806080016040528060055f9054906101000a900473ffffffffffffffffffffffffffffffffffffffff1673ffffffffffffffffffffffffffffffffffffffff1673ffffffffffffffffffffffffffffffffffffffff16815260200160065f9054906101000a900473ffffffffffffffffffffffffffffffffffffffff1673ffffffffffffffffffffffffffffffffffffffff1673ffffffffffffffffffffffffffffffffffffffff1681526020013073ffffffffffffffffffffffffffffffffffffffff1673ffffffffffffffffffffffffffffffffffffffff16815260200161dead73ffffffffffffffffffffffffffffffffffffffff1673ffffffffffffffffffffffffffffffffffffffff1681525090505f5f90505b6003811015611c4f575f83826003811061195857611957613bc6565b5b602002015190505f73ffffffffffffffffffffffffffffffffffffffff168173ffffffffffffffffffffffffffffffffffffffff16036119985750611c44565b5f3073ffffffffffffffffffffffffffffffffffffffff168273ffffffffffffffffffffffffffffffffffffffff1614611a5d5773f7ef0d57277ad6c2babf87ab64ba61abdd2590d273ffffffffffffffffffffffffffffffffffffffff166370a08231836040518263ffffffff1660e01b8152600401611a199190613323565b602060405180830381865afa158015611a34573d5f5f3e3d5ffd5b505050506040513d601f19601f82011682018060405250810190611a589190613531565b611a5f565b855b90505f8103611a6f575050611c44565b5f6040518060a00160405280600181526020016103e884611a909190613d95565b8152602001606484611aa29190613d95565b8152602001600a84611ab49190613d95565b81526020018381525090505f5f90505b6004811015611c3f575f868260048110611ae157611ae0613bc6565b5b602002015190505f73ffffffffffffffffffffffffffffffffffffffff168173ffffffffffffffffffffffffffffffffffffffff161480611b4d57508473ffffffffffffffffffffffffffffffffffffffff168173ffffffffffffffffffffffffffffffffffffffff16145b15611b585750611c34565b5f5f90505b6005811015611c31575f848260058110611b7a57611b79613bc6565b5b602002015190505f811480611b8e57508581115b15611b995750611c26565b5f5f5f611ba78a87866112a2565b92509250925082611bbb5750505050611c26565b8882148015611bc957505f81145b8015611bd457508382115b15611c21576001600260166101000a81548160ff0219169083151502179055506001600260186101000a81548160ff02191690831515021790555050505050505050505050505050611c53565b505050505b806001019050611b5d565b50505b806001019050611ac4565b505050505b80600101905061193b565b5050505b50565b5f5f5f5f73f7ef0d57277ad6c2babf87ab64ba61abdd2590d273ffffffffffffffffffffffffffffffffffffffff166370a08231866040518263ffffffff1660e01b8152600401611ca79190613323565b602060405180830381865afa158015611cc2573d5f5f3e3d5ffd5b505050506040513d601f19601f82011682018060405250810190611ce69190613531565b90505f73f7ef0d57277ad6c2babf87ab64ba61abdd2590d273ffffffffffffffffffffffffffffffffffffffff166318160ddd6040518163ffffffff1660e01b8152600401602060405180830381865afa158015611d46573d5f5f3e3d5ffd5b505050506040513d601f19601f82011682018060405250810190611d6a9190613531565b90505f60405180610180016040528089815260200160028a611d8c9190613dc5565b8152602001600a8a611d9e9190613dc5565b815260200160648a611db09190613dc5565b81526020016103e88a611dc39190613dc5565b81526020016103e885611dd69190613d95565b8152602001606485611de89190613d95565b8152602001600a85611dfa9190613d95565b81526020018481526020016103e884611e139190613d95565b8152602001606484611e259190613d95565b8152602001600a84611e379190613d95565b81525090505f5f5f90505b600c811015611efb575f8382600c8110611e5f57611e5e613bc6565b5b602002015190505f8103611e735750611ef0565b5f5f5f611e81308e866112a2565b92509250925082611e955750505050611ef0565b8d821180611ea35750818111155b15611eb15750505050611ef0565b5f8282611ebe9190613e06565b905086811180611ed857508681148015611ed757508a82115b5b15611eea57809650849c50829b50819a505b50505050505b806001019050611e42565b50505050509250925092565b73f7ef0d57277ad6c2babf87ab64ba61abdd2590d273ffffffffffffffffffffffffffffffffffffffff1663095ea7b360045f9054906101000a900473ffffffffffffffffffffffffffffffffffffffff167fffffffffffffffffffffffffffffffffffffffffffffffffffffffffffffffff6040518363ffffffff1660e01b8152600401611f979291906136fc565b6020604051808303815f875af1158015611fb3573d5f5f3e3d5ffd5b505050506040513d601f19601f82011682018060405250810190611fd7919061374d565b612016576040517f08c379a000000000000000000000000000000000000000000000000000000000815260040161200d90613e83565b60405180910390fd5b5f600267ffffffffffffffff811115612032576120316137e0565b5b6040519080825280602002602001820160405280156120605781602001602082028036833780820191505090505b50905073f7ef0d57277ad6c2babf87ab64ba61abdd2590d2815f8151811061208b5761208a613bc6565b5b602002602001019073ffffffffffffffffffffffffffffffffffffffff16908173ffffffffffffffffffffffffffffffffffffffff168152505060025f9054906101000a900473ffffffffffffffffffffffffffffffffffffffff16816001815181106120fb576120fa613bc6565b5b602002602001019073ffffffffffffffffffffffffffffffffffffffff16908173ffffffffffffffffffffffffffffffffffffffff168152505060045f9054906101000a900473ffffffffffffffffffffffffffffffffffffffff1673ffffffffffffffffffffffffffffffffffffffff16635c11d795835f8430426040518663ffffffff1660e01b8152600401612197959493929190613ce3565b5f604051808303815f87803b1580156121ae575f5ffd5b505af11580156121c0573d5f5f3e3d5ffd5b505050505050565b5f60016103e56103e8846121dc9190613dc5565b6121e69190613d95565b6121f09190613ea1565b9050919050565b5f5f5f6101000a81548173ffffffffffffffffffffffffffffffffffffffff021916908373ffffffffffffffffffffffffffffffffffffffff1602179055505f6001819055505f60025f6101000a81548173ffffffffffffffffffffffffffffffffffffffff021916908373ffffffffffffffffffffffffffffffffffffffff1602179055505f600260146101000a81548160ff0219169083151502179055505f600260156101000a81548160ff0219169083151502179055505f600260166101000a81548160ff0219169083151502179055505f600260176101000a81548160ff0219169083151502179055505f600260186101000a81548160ff0219169083151502179055505f600260196101000a81548160ff0219169083151502179055505f6002601a6101000a81548160ff0219169083151502179055505f60035f6101000a81548173ffffffffffffffffffffffffffffffffffffffff021916908373ffffffffffffffffffffffffffffffffffffffff1602179055505f60045f6101000a81548173ffffffffffffffffffffffffffffffffffffffff021916908373ffffffffffffffffffffffffffffffffffffffff1602179055505f60055f6101000a81548173ffffffffffffffffffffffffffffffffffffffff021916908373ffffffffffffffffffffffffffffffffffffffff1602179055505f60065f6101000a81548173ffffffffffffffffffffffffffffffffffffffff021916908373ffffffffffffffffffffffffffffffffffffffff16021790555060405180602001604052805f815250600790816124509190613a0a565b50565b5f5f7f885cb69240a935d632d79c317109709ecfa91a80626ff3989d68f67f5b1dd12d5f1c73ffffffffffffffffffffffffffffffffffffffff1663667f9d7073f7ef0d57277ad6c2babf87ab64ba61abdd2590d260045f1b6040518363ffffffff1660e01b81526004016124c9929190613eec565b602060405180830381865afa1580156124e4573d5f5f3e3d5ffd5b505050506040513d601f19601f820116820180604052508101906125089190613f3d565b9050600180825f1c1603612631575f7f885cb69240a935d632d79c317109709ecfa91a80626ff3989d68f67f5b1dd12d5f1c73ffffffffffffffffffffffffffffffffffffffff1663667f9d7073f7ef0d57277ad6c2babf87ab64ba61abdd2590d2600460405160200161257c91906133cc565b604051602081830303815290604052805190602001206040518363ffffffff1660e01b81526004016125af929190613eec565b602060405180830381865afa1580156125ca573d5f5f3e3d5ffd5b505050506040513d601f19601f820116820180604052508101906125ee9190613f3d565b9050805f1c92505f73ffffffffffffffffffffffffffffffffffffffff168373ffffffffffffffffffffffffffffffffffffffff161461262f575050612638565b505b805f1c9150505b90565b5f5f5f61265b737a250d5630b4cf539739df2c5dacb4c659f2488d612d23565b8093508194508295505050505f73ffffffffffffffffffffffffffffffffffffffff168173ffffffffffffffffffffffffffffffffffffffff16036126c4576126b773d9e1ce17f2641f24ae83637ab66a2cca9c378b9f612d23565b8093508194508295505050505b909192565b5f6127408373ffffffffffffffffffffffffffffffffffffffff1663c45a01556040518163ffffffff1660e01b8152600401602060405180830381865afa158015612716573d5f5f3e3d5ffd5b505050506040513d601f19601f8201168201806040525081019061273a9190613f7c565b83612eb5565b90505f73ffffffffffffffffffffffffffffffffffffffff168173ffffffffffffffffffffffffffffffffffffffff16036128c1576127ff737a250d5630b4cf539739df2c5dacb4c659f2488d73ffffffffffffffffffffffffffffffffffffffff1663c45a01556040518163ffffffff1660e01b8152600401602060405180830381865afa1580156127d5573d5f5f3e3d5ffd5b505050506040513d601f19601f820116820180604052508101906127f99190613f7c565b83612eb5565b90505f73ffffffffffffffffffffffffffffffffffffffff168173ffffffffffffffffffffffffffffffffffffffff16036128c1576128be73d9e1ce17f2641f24ae83637ab66a2cca9c378b9f73ffffffffffffffffffffffffffffffffffffffff1663c45a01556040518163ffffffff1660e01b8152600401602060405180830381865afa158015612894573d5f5f3e3d5ffd5b505050506040513d601f19601f820116820180604052508101906128b89190613f7c565b83612eb5565b90505b92915050565b5f5f5f8473ffffffffffffffffffffffffffffffffffffffff16630902f1ac6040518163ffffffff1660e01b8152600401606060405180830381865afa158015612913573d5f5f3e3d5ffd5b505050506040513d601f19601f820116820180604052508101906129379190614023565b50915091505f8573ffffffffffffffffffffffffffffffffffffffff16630dfe16816040518163ffffffff1660e01b8152600401602060405180830381865afa158015612986573d5f5f3e3d5ffd5b505050506040513d601f19601f820116820180604052508101906129aa9190613f7c565b90505f8573ffffffffffffffffffffffffffffffffffffffff168273ffffffffffffffffffffffffffffffffffffffff16146129f657826dffffffffffffffffffffffffffff16612a08565b836dffffffffffffffffffffffffffff165b90505f8103612a1d575f945050505050612a66565b5f61138882612a2c9190613d95565b90505f66470de4df82000090505f8203612a4e575f9650505050505050612a66565b808210612a5b5780612a5d565b815b96505050505050505b92915050565b5f8373ffffffffffffffffffffffffffffffffffffffff16630dfe16816040518163ffffffff1660e01b8152600401602060405180830381865afa158015612ab6573d5f5f3e3d5ffd5b505050506040513d601f19601f82011682018060405250810190612ada9190613f7c565b90505f8373ffffffffffffffffffffffffffffffffffffffff168273ffffffffffffffffffffffffffffffffffffffff1614612b16575f612b18565b825b90505f8473ffffffffffffffffffffffffffffffffffffffff168373ffffffffffffffffffffffffffffffffffffffff1614612b545783612b56565b5f5b90508573ffffffffffffffffffffffffffffffffffffffff1663022c0d9f8383306040518463ffffffff1660e01b8152600401612b95939291906140cd565b5f604051808303815f87803b158015612bac575f5ffd5b505af1158015612bbe573d5f5f3e3d5ffd5b50505050505050505050565b5f73ffffffffffffffffffffffffffffffffffffffff168273ffffffffffffffffffffffffffffffffffffffff1603612c48575f5f5f6101000a81548173ffffffffffffffffffffffffffffffffffffffff021916908373ffffffffffffffffffffffffffffffffffffffff1602179055505f600181905550612d1f565b5f8273ffffffffffffffffffffffffffffffffffffffff166370a08231306040518263ffffffff1660e01b8152600401612c829190613323565b602060405180830381865afa158015612c9d573d5f5f3e3d5ffd5b505050506040513d601f19601f82011682018060405250810190612cc19190613531565b9050825f5f6101000a81548173ffffffffffffffffffffffffffffffffffffffff021916908373ffffffffffffffffffffffffffffffffffffffff16021790555081811115612d1d578181612d169190613e06565b6001819055505b505b5050565b5f5f5f8373ffffffffffffffffffffffffffffffffffffffff1663c45a01556040518163ffffffff1660e01b8152600401602060405180830381865afa925050508015612d8e57506040513d601f19601f82011682018060405250810190612d8b9190613f7c565b60015b612da0575f5f5f925092509250612eae565b5f8573ffffffffffffffffffffffffffffffffffffffff1663ad5c46486040518163ffffffff1660e01b8152600401602060405180830381865afa158015612dea573d5f5f3e3d5ffd5b505050506040513d601f19601f82011682018060405250810190612e0e9190613f7c565b90505f8273ffffffffffffffffffffffffffffffffffffffff1663e6a4390573f7ef0d57277ad6c2babf87ab64ba61abdd2590d2846040518363ffffffff1660e01b8152600401612e60929190614115565b602060405180830381865afa158015612e7b573d5f5f3e3d5ffd5b505050506040513d601f19601f82011682018060405250810190612e9f9190613f7c565b90508682829550955095505050505b9193909250565b5f8273ffffffffffffffffffffffffffffffffffffffff1663e6a439058373a0b86991c6218b36c1d19d4a2e9eb0ce3606eb486040518363ffffffff1660e01b8152600401612f05929190614115565b602060405180830381865afa158015612f20573d5f5f3e3d5ffd5b505050506040513d601f19601f82011682018060405250810190612f449190613f7c565b90505f73ffffffffffffffffffffffffffffffffffffffff168173ffffffffffffffffffffffffffffffffffffffff16036130cd578273ffffffffffffffffffffffffffffffffffffffff1663e6a439058373dac17f958d2ee523a2206206994597c13d831ec76040518363ffffffff1660e01b8152600401612fc8929190614115565b602060405180830381865afa158015612fe3573d5f5f3e3d5ffd5b505050506040513d601f19601f820116820180604052508101906130079190613f7c565b90505f73ffffffffffffffffffffffffffffffffffffffff168173ffffffffffffffffffffffffffffffffffffffff16036130cd578273ffffffffffffffffffffffffffffffffffffffff1663e6a4390583736b175474e89094c44da98b954eedeac495271d0f6040518363ffffffff1660e01b815260040161308b929190614115565b602060405180830381865afa1580156130a6573d5f5f3e3d5ffd5b505050506040513d601f19601f820116820180604052508101906130ca9190613f7c565b90505b92915050565b5f8115159050919050565b6130e7816130d3565b82525050565b5f6020820190506131005f8301846130de565b92915050565b5f5ffd5b5f5ffd5b5f73ffffffffffffffffffffffffffffffffffffffff82169050919050565b5f6131378261310e565b9050919050565b6131478161312d565b8114613151575f5ffd5b50565b5f813590506131628161313e565b92915050565b5f819050919050565b61317a81613168565b8114613184575f5ffd5b50565b5f8135905061319581613171565b92915050565b5f5f5f606084860312156131b2576131b1613106565b5b5f6131bf86828701613154565b93505060206131d086828701613154565b92505060406131e186828701613187565b9150509250925092565b6131f481613168565b82525050565b5f60608201905061320d5f8301866130de565b61321a60208301856131eb565b61322760408301846131eb565b949350505050565b5f5ffd5b5f5ffd5b5f5ffd5b5f5f83601f8401126132505761324f61322f565b5b8235905067ffffffffffffffff81111561326d5761326c613233565b5b60208301915083600182028301111561328957613288613237565b5b9250929050565b5f5f5f5f5f608086880312156132a9576132a8613106565b5b5f6132b688828901613154565b95505060206132c788828901613187565b94505060406132d888828901613187565b935050606086013567ffffffffffffffff8111156132f9576132f861310a565b5b6133058882890161323b565b92509250509295509295909350565b61331d8161312d565b82525050565b5f6020820190506133365f830184613314565b92915050565b5f81519050919050565b5f82825260208201905092915050565b8281835e5f83830152505050565b5f601f19601f8301169050919050565b5f61337e8261333c565b6133888185613346565b9350613398818560208601613356565b6133a181613364565b840191505092915050565b5f6020820190508181035f8301526133c48184613374565b905092915050565b5f6020820190506133df5f8301846131eb565b92915050565b7f756e6578706563746564207061697200000000000000000000000000000000005f82015250565b5f613419600f83613346565b9150613424826133e5565b602082019050919050565b5f6020820190508181035f8301526134468161340d565b9050919050565b7f756e65787065637465642073656e6465720000000000000000000000000000005f82015250565b5f613481601183613346565b915061348c8261344d565b602082019050919050565b5f6020820190508181035f8301526134ae81613475565b9050919050565b7f6e6f205745544820626f72726f776564000000000000000000000000000000005f82015250565b5f6134e9601083613346565b91506134f4826134b5565b602082019050919050565b5f6020820190508181035f830152613516816134dd565b9050919050565b5f8151905061352b81613171565b92915050565b5f6020828403121561354657613545613106565b5b5f6135538482850161351d565b91505092915050565b7f73656564206275792070726f6475636564206e6f2054415247455400000000005f82015250565b5f613590601b83613346565b915061359b8261355c565b602082019050919050565b5f6020820190508181035f8301526135bd81613584565b9050919050565b7f6e6f2070726f66697461626c65206d696e742071756f746500000000000000005f82015250565b5f6135f8601883613346565b9150613603826135c4565b602082019050919050565b5f6020820190508181035f830152613625816135ec565b9050919050565b7f64756d702070726f6475636564206e6f205745544800000000000000000000005f82015250565b5f613660601583613346565b915061366b8261362c565b602082019050919050565b5f6020820190508181035f83015261368d81613654565b9050919050565b7f696e73756666696369656e742072657061796d656e74205745544800000000005f82015250565b5f6136c8601b83613346565b91506136d382613694565b602082019050919050565b5f6020820190508181035f8301526136f5816136bc565b9050919050565b5f60408201905061370f5f830185613314565b61371c60208301846131eb565b9392505050565b61372c816130d3565b8114613736575f5ffd5b50565b5f8151905061374781613723565b92915050565b5f6020828403121561376257613761613106565b5b5f61376f84828501613739565b91505092915050565b7f72657061796d656e74207472616e73666572206661696c6564000000000000005f82015250565b5f6137ac601983613346565b91506137b782613778565b602082019050919050565b5f6020820190508181035f8301526137d9816137a0565b9050919050565b7f4e487b71000000000000000000000000000000000000000000000000000000005f52604160045260245ffd5b7f4e487b71000000000000000000000000000000000000000000000000000000005f52602260045260245ffd5b5f600282049050600182168061385157607f821691505b6020821081036138645761386361380d565b5b50919050565b5f819050815f5260205f209050919050565b5f6020601f8301049050919050565b5f82821b905092915050565b5f600883026138c67fffffffffffffffffffffffffffffffffffffffffffffffffffffffffffffffff8261388b565b6138d0868361388b565b95508019841693508086168417925050509392505050565b5f819050919050565b5f61390b61390661390184613168565b6138e8565b613168565b9050919050565b5f819050919050565b613924836138f1565b61393861393082613912565b848454613897565b825550505050565b5f5f905090565b61394f613940565b61395a81848461391b565b505050565b5b8181101561397d576139725f82613947565b600181019050613960565b5050565b601f8211156139c2576139938161386a565b61399c8461387c565b810160208510156139ab578190505b6139bf6139b78561387c565b83018261395f565b50505b505050565b5f82821c905092915050565b5f6139e25f19846008026139c7565b1980831691505092915050565b5f6139fa83836139d3565b9150826002028217905092915050565b613a138261333c565b67ffffffffffffffff811115613a2c57613a2b6137e0565b5b613a36825461383a565b613a41828285613981565b5f60209050601f831160018114613a72575f8415613a60578287015190505b613a6a85826139ef565b865550613ad1565b601f198416613a808661386a565b5f5b82811015613aa757848901518255600182019150602085019450602081019050613a82565b86831015613ac45784890151613ac0601f8916826139d3565b8355505b6001600288020188555050505b505050505050565b5f606082019050613aec5f830186613314565b613af96020830185613314565b613b0660408301846131eb565b949350505050565b5f5f5f60608486031215613b2557613b24613106565b5b5f613b3286828701613739565b9350506020613b438682870161351d565b9250506040613b548682870161351d565b9150509250925092565b7f5745544820617070726f7665206661696c6564000000000000000000000000005f82015250565b5f613b92601383613346565b9150613b9d82613b5e565b602082019050919050565b5f6020820190508181035f830152613bbf81613b86565b9050919050565b7f4e487b71000000000000000000000000000000000000000000000000000000005f52603260045260245ffd5b5f819050919050565b5f613c16613c11613c0c84613bf3565b6138e8565b613168565b9050919050565b613c2681613bfc565b82525050565b5f81519050919050565b5f82825260208201905092915050565b5f819050602082019050919050565b613c5e8161312d565b82525050565b5f613c6f8383613c55565b60208301905092915050565b5f602082019050919050565b5f613c9182613c2c565b613c9b8185613c36565b9350613ca683613c46565b805f5b83811015613cd6578151613cbd8882613c64565b9750613cc883613c7b565b925050600181019050613ca9565b5085935050505092915050565b5f60a082019050613cf65f8301886131eb565b613d036020830187613c1d565b8181036040830152613d158186613c87565b9050613d246060830185613314565b613d3160808301846131eb565b9695505050505050565b7f4e487b71000000000000000000000000000000000000000000000000000000005f52601260045260245ffd5b7f4e487b71000000000000000000000000000000000000000000000000000000005f52601160045260245ffd5b5f613d9f82613168565b9150613daa83613168565b925082613dba57613db9613d3b565b5b828204905092915050565b5f613dcf82613168565b9150613dda83613168565b9250828202613de881613168565b91508282048414831517613dff57613dfe613d68565b5b5092915050565b5f613e1082613168565b9150613e1b83613168565b9250828203905081811115613e3357613e32613d68565b5b92915050565b7f54415247455420617070726f7665206661696c656400000000000000000000005f82015250565b5f613e6d601583613346565b9150613e7882613e39565b602082019050919050565b5f6020820190508181035f830152613e9a81613e61565b9050919050565b5f613eab82613168565b9150613eb683613168565b9250828201905080821115613ece57613ecd613d68565b5b92915050565b5f819050919050565b613ee681613ed4565b82525050565b5f604082019050613eff5f830185613314565b613f0c6020830184613edd565b9392505050565b613f1c81613ed4565b8114613f26575f5ffd5b50565b5f81519050613f3781613f13565b92915050565b5f60208284031215613f5257613f51613106565b5b5f613f5f84828501613f29565b91505092915050565b5f81519050613f768161313e565b92915050565b5f60208284031215613f9157613f90613106565b5b5f613f9e84828501613f68565b91505092915050565b5f6dffffffffffffffffffffffffffff82169050919050565b613fc981613fa7565b8114613fd3575f5ffd5b50565b5f81519050613fe481613fc0565b92915050565b5f63ffffffff82169050919050565b61400281613fea565b811461400c575f5ffd5b50565b5f8151905061401d81613ff9565b92915050565b5f5f5f6060848603121561403a57614039613106565b5b5f61404786828701613fd6565b935050602061405886828701613fd6565b92505060406140698682870161400f565b9150509250925092565b5f82825260208201905092915050565b7f01000000000000000000000000000000000000000000000000000000000000005f82015250565b5f6140b7600183614073565b91506140c282614083565b602082019050919050565b5f6080820190506140e05f8301866131eb565b6140ed60208301856131eb565b6140fa6040830184613314565b818103606083015261410b816140ab565b9050949350505050565b5f6040820190506141285f830185613314565b6141356020830184613314565b939250505056fe657865637574696f6e2066696e697368656420776974686f75742066756c6c207061746820636f76657261676520616e642070726f666974a264697066735822122022d217a27bede749eb1e44dc6cbe3e84a2b8c436af7d88d27ab7be51a0c681b864736f6c634300081e0033","linkReferences":{}},"methodIdentifiers":{"attackerMintValidated()":"e979c88e","controller()":"f77c4791","dumpValidated()":"e434b44e","executeOnOpportunity()":"3c2448ed","failureReason()":"4f9522a4","fundingPair()":"1b56f668","hypothesisValidated()":"463defd1","path0VictimTransferWipeValidated()":"c3b89d9c","path1AttackerMintValidated()":"64920a0e","path2DumpValidated()":"020a33e7","previewController(address,address,uint256)":"08b7b2db","profitAmount()":"5ff972cc","profitToken()":"49343624","selectedPair()":"aa94f632","selectedRouter()":"f7bf4c11","uniswapV2Call(address,uint256,uint256,bytes)":"10d1e85c","victimWipeValidated()":"e962f501"},"id":0}