{"abi":[{"type":"function","name":"sellTokenForWETH","inputs":[{"name":"router","type":"address","internalType":"address"},{"name":"token","type":"address","internalType":"address"},{"name":"weth","type":"address","internalType":"address"},{"name":"amountIn","type":"uint256","internalType":"uint256"},{"name":"payout","type":"address","internalType":"address"}],"outputs":[],"stateMutability":"nonpayable"}],"bytecode":{"object":"0x6080604052348015600e575f5ffd5b506105d38061001c5f395ff3fe608060405234801561000f575f5ffd5b5060043610610029575f3560e01c8063a6fa473f1461002d575b5f5ffd5b610047600480360381019061004291906102d6565b610049565b005b8373ffffffffffffffffffffffffffffffffffffffff1663095ea7b3867fffffffffffffffffffffffffffffffffffffffffffffffffffffffffffffffff6040518363ffffffff1660e01b81526004016100a492919061036b565b6020604051808303815f875af11580156100c0573d5f5f3e3d5ffd5b505050506040513d601f19601f820116820180604052508101906100e491906103c7565b505f600267ffffffffffffffff811115610101576101006103f2565b5b60405190808252806020026020018201604052801561012f5781602001602082028036833780820191505090505b50905084815f815181106101465761014561041f565b5b602002602001019073ffffffffffffffffffffffffffffffffffffffff16908173ffffffffffffffffffffffffffffffffffffffff168152505083816001815181106101955761019461041f565b5b602002602001019073ffffffffffffffffffffffffffffffffffffffff16908173ffffffffffffffffffffffffffffffffffffffff16815250508573ffffffffffffffffffffffffffffffffffffffff16635c11d795845f8486426040518663ffffffff1660e01b8152600401610210959493929190610545565b5f604051808303815f87803b158015610227575f5ffd5b505af1158015610239573d5f5f3e3d5ffd5b50505050505050505050565b5f5ffd5b5f73ffffffffffffffffffffffffffffffffffffffff82169050919050565b5f61027282610249565b9050919050565b61028281610268565b811461028c575f5ffd5b50565b5f8135905061029d81610279565b92915050565b5f819050919050565b6102b5816102a3565b81146102bf575f5ffd5b50565b5f813590506102d0816102ac565b92915050565b5f5f5f5f5f60a086880312156102ef576102ee610245565b5b5f6102fc8882890161028f565b955050602061030d8882890161028f565b945050604061031e8882890161028f565b935050606061032f888289016102c2565b92505060806103408882890161028f565b9150509295509295909350565b61035681610268565b82525050565b610365816102a3565b82525050565b5f60408201905061037e5f83018561034d565b61038b602083018461035c565b9392505050565b5f8115159050919050565b6103a681610392565b81146103b0575f5ffd5b50565b5f815190506103c18161039d565b92915050565b5f602082840312156103dc576103db610245565b5b5f6103e9848285016103b3565b91505092915050565b7f4e487b71000000000000000000000000000000000000000000000000000000005f52604160045260245ffd5b7f4e487b71000000000000000000000000000000000000000000000000000000005f52603260045260245ffd5b5f819050919050565b5f819050919050565b5f61047861047361046e8461044c565b610455565b6102a3565b9050919050565b6104888161045e565b82525050565b5f81519050919050565b5f82825260208201905092915050565b5f819050602082019050919050565b6104c081610268565b82525050565b5f6104d183836104b7565b60208301905092915050565b5f602082019050919050565b5f6104f38261048e565b6104fd8185610498565b9350610508836104a8565b805f5b8381101561053857815161051f88826104c6565b975061052a836104dd565b92505060018101905061050b565b5085935050505092915050565b5f60a0820190506105585f83018861035c565b610565602083018761047f565b818103604083015261057781866104e9565b9050610586606083018561034d565b610593608083018461035c565b969550505050505056fea2646970667358221220f27928770dff88053690ab0499cfdabd5edcbe8582c34bbc030bf3f7ae69444f64736f6c634300081e0033","linkReferences":{}},"methodIdentifiers":{"sellTokenForWETH(address,address,address,uint256,address)":"a6fa473f"},"id":0}