{"abi":[{"type":"constructor","inputs":[],"stateMutability":"nonpayable"},{"type":"receive","stateMutability":"payable"},{"type":"function","name":"coveredPathsBitmap","inputs":[],"outputs":[{"name":"","type":"uint256","internalType":"uint256"}],"stateMutability":"view"},{"type":"function","name":"executeOnOpportunity","inputs":[],"outputs":[],"stateMutability":"nonpayable"},{"type":"function","name":"exploitPath","inputs":[],"outputs":[{"name":"","type":"string","internalType":"string"}],"stateMutability":"view"},{"type":"function","name":"pathCovered","inputs":[{"name":"index","type":"uint256","internalType":"uint256"}],"outputs":[{"name":"","type":"bool","internalType":"bool"}],"stateMutability":"view"},{"type":"function","name":"profitAmount","inputs":[],"outputs":[{"name":"","type":"uint256","internalType":"uint256"}],"stateMutability":"view"},{"type":"function","name":"profitToken","inputs":[],"outputs":[{"name":"","type":"address","internalType":"address"}],"stateMutability":"view"},{"type":"function","name":"staleApprovalObserved","inputs":[],"outputs":[{"name":"","type":"bool","internalType":"bool"}],"stateMutability":"view"},{"type":"function","name":"uniswapV2Call","inputs":[{"name":"sender","type":"address","internalType":"address"},{"name":"amount0","type":"uint256","internalType":"uint256"},{"name":"amount1","type":"uint256","internalType":"uint256"},{"name":"data","type":"bytes","internalType":"bytes"}],"outputs":[],"stateMutability":"nonpayable"},{"type":"function","name":"validated","inputs":[],"outputs":[{"name":"","type":"bool","internalType":"bool"}],"stateMutability":"view"},{"type":"function","name":"validatedOrRefuted","inputs":[],"outputs":[{"name":"","type":"string","internalType":"string"}],"stateMutability":"view"}],"bytecode":{"object":"0x60806040523461043157604051610017608082610435565b604f81526102b2600160208301927f4120757365722063616c6c7320726f7574657243616c6c2077697468205f676184527f74657761792073657420746f20616e20616c6c6f776c6973746564207370656e60408201526e3232b917b1b7b73a3937b63632b91760891b60608201528160405161009560a082610435565b60698152602081017f5468652070726f787920657865637574657320736d617274417070726f76652081527f616e64206c6561766573205f676174657761792077697468207479706528756960408301527f6e74323536292e6d617820616c6c6f77616e636520666f722074686520726f756060830152683a32903a37b5b2b71760b91b60808301528260405161012d606082610435565b6033815260208101907f54686520726f7574652066696e69736865732c20627574206e6f20617070726f82527f76616c20636c65616e7570206f63637572732e00000000000000000000000000604082015260206040519461019060c087610435565b609d8652818601967f4576656e2061667465722072656d6f7665417661696c61626c65526f7574657288527f285f67617465776179292c20746865206f6c64207370656e6465722063616e2060408801527f7374696c6c2063616c6c207472616e7366657246726f6d2870726f78792c206160608801527f747461636b65722c20616d6f756e7429206f72206571756976616c656e74206160808801527f6e6420647261696e2070726f78792d68656c642062616c616e6365732e00000060a08801526040519c8d9a518091858d015e8a0190600160fd1b84830152518092602183015e010190600160fd1b84830152518092600283015e010190600160fd1b84830152518092600283015e01015f838201520301601f198101835282610435565b80516001600160401b03811161041d576102cd600454610458565b601f81116103c4575b50602091601f8211600114610364579181925f92610359575b50508160011b915f199060031b1c1916176004555b61030f600554610458565b601f8111610338575b600e661c99599d5d195960ca1b016005556040516142d690816104a78239f35b6103539060055f52601f60205f20910160051c810190610490565b5f610318565b015190505f806102ef565b601f1982169260045f52805f20915f5b8581106103ac57508360019510610394575b505050811b01600455610304565b01515f1960f88460031b161c191690555f8080610386565b91926020600181928685015181550194019201610374565b60045f5261040d907f8a35acfbc15ff81a39ae7d344fd709f28e8600b4aa8c65c6b64bfe7fe36bd19b601f840160051c81019160208510610413575b601f0160051c0190610490565b5f6102d6565b9091508190610400565b634e487b7160e01b5f52604160045260245ffd5b5f80fd5b601f909101601f19168101906001600160401b0382119082101761041d57604052565b90600182811c92168015610486575b602083101461047257565b634e487b7160e01b5f52602260045260245ffd5b91607f1691610467565b81811061049b575050565b5f815560010161049056fe6080604052600436101561001a575b3615610018575f80fd5b005b5f3560e01c806310d1e85c146100b95780631d8c0e99146100b45780631fc3a476146100af5780633c2448ed146100aa57806349343624146100a5578063546b5d42146100a05780635ff972cc1461009b578063b62a925614610096578063cb707c62146100915763efb37a390361000e57610354565b610325565b61024b565b6101f6565b6101ce565b6101a7565b61018f565b610172565b61014d565b6100d3565b6001600160a01b038116036100cf57565b5f80fd5b346100cf5760803660031901126100cf576004356100f0816100be565b602435604435916064359267ffffffffffffffff84116100cf57366023850112156100cf5783600401359267ffffffffffffffff84116100cf5736602485870101116100cf57602461001895019261056f565b5f9103126100cf57565b346100cf575f3660031901126100cf57602060ff60035460101c166040519015158152f35b346100cf575f3660031901126100cf576020600254604051908152f35b346100cf575f3660031901126100cf57610018610f03565b346100cf575f3660031901126100cf575f546040516001600160a01b039091168152602090f35b346100cf5760203660031901126100cf576020600180600435600254901c1614604051908152f35b346100cf575f3660031901126100cf576020600154604051908152f35b805180835260209291819084018484015e5f828201840152601f01601f1916010190565b906020610248928181520190610213565b90565b346100cf575f3660031901126100cf576040515f60055461026b8161083f565b808452906001811690811561030157506001146102a3575b61029f8361029381850382610499565b60405191829182610237565b0390f35b60055f9081527f036b6384b5eca791c62761152d0c79bb0604c104a5fb6f4eb0703f3154bb3db0939250905b8082106102e757509091508101602001610293610283565b9192600181602092548385880101520191019092916102cf565b60ff191660208086019190915291151560051b840190910191506102939050610283565b346100cf575f3660031901126100cf5761029f610340610fe6565b604051918291602083526020830190610213565b346100cf575f3660031901126100cf57602060ff60035460081c166040519015158152f35b1561038057565b60405162461bcd60e51b815260206004820152600f60248201526e3ab732bc3832b1ba32b2103830b4b960891b6044820152606490fd5b156103be57565b60405162461bcd60e51b81526020600482015260116024820152703ab732bc3832b1ba32b21039b2b73232b960791b6044820152606490fd5b908160609103126100cf578035916040602083013592013590565b634e487b7160e01b5f52601160045260245ffd5b906023820180921161043457565b610412565b9190820180921161043457565b1561044d57565b60405162461bcd60e51b815260206004820152601060248201526f189bdc9c9bddc81d1bdbc81cdb585b1b60821b6044820152606490fd5b634e487b7160e01b5f52604160045260245ffd5b90601f8019910116810190811067ffffffffffffffff8211176104bb57604052565b610485565b6040513d5f823e3d90fd5b9190820391821161043457565b156104df57565b60405162461bcd60e51b815260206004820152601560248201527473656564206e6f742073656c662d66756e64696e6760581b6044820152606490fd5b908160209103126100cf575180151581036100cf5790565b1561053b57565b60405162461bcd60e51b815260206004820152600c60248201526b1c995c185e4819985a5b195960a21b6044820152606490fd5b936105aa6105b2939594929461059a73b4e16d0168e52d35cacd2c6185b44281ec28c9dc3314610379565b6001600160a01b031630146103b7565b8101906103f7565b90939192909181156108375750915b6105d66105ce8583610439565b841015610446565b6105df306110e6565b936105e86112c3565b80926105f3826114a9565b94816107ce575b5f9361060581611519565b6107ba575b50505050610794575b505047610722575b610698918161062b602093611986565b91610635306110e6565b918082111561071a57610647916104cb565b61065c6106548483610439565b8310156104d8565b826106678183610439565b83116106f8575b505060405163a9059cbb60e01b815233600482015260248101929092525091829081906044820190565b03815f5f5160206141a15f395f51905f525af180156106f3576106c2915f916106c4575b50610534565b565b6106e6915060203d6020116106ec575b6106de8183610499565b81019061051c565b5f6106bc565b503d6106d4565b6104c0565b61070861070d92610712946104cb565b6104cb565b6119ae565b5f808261066e565b50505f610647565b47915f5160206141a15f395f51905f523b156100cf575f60049360405194858092630d0e30db60e41b82525f5160206141a15f395f51905f525af19182156106f3576106989360209361077a575b509150915061061b565b806107885f61078e93610499565b80610143565b5f610770565b61079c61117d565b91826107a9575b50610613565b6107b2926117a7565b5f80806107a3565b6107c594508661161f565b815f808061060a565b91505f5160206141a15f395f51905f523b156100cf57604051632e1a7d4d60e01b815260048101829052915f83602481835f5160206141a15f395f51905f525af19283156106f3578593610823575b506105fa565b806107885f61083193610499565b5f61081d565b9050916105c1565b90600182811c9216801561086d575b602083101461085957565b634e487b7160e01b5f52602260045260245ffd5b91607f169161084e565b818110610882575050565b5f8155600101610877565b90601f811161089a575050565b6106c2915f526007601f60205f20920160051c82019101610877565b601f81116108c15750565b6106c29060055f52601f60205f20910160051c810190610877565b90601f82116108e9575050565b6106c29160045f5260205f20906020601f840160051c83019310610915575b601f0160051c0190610877565b9091508190610908565b61092a60045461083f565b601f8111610a4b575b5061015160049081555f527f4f62736572766564206c696e676572696e672070726f787920617070726f76615f5160206142215f395f51905f52557f6c73206f6e20612063757272656e742d6f722d666f726d657220726f757465725f5160206141c15f395f51905f52557f2063616e6469646174652c20627574206e6f20626f756e646564207075626c695f5160206141e15f395f51905f52557f632070756c6c2f666f727761726420656e747279706f696e74207265616c697a5f5160206142015f395f51905f52557f656420612073616d652d666f726b20647261696e206f6e207468697320666f725f5160206142615f395f51905f525567359039ba30ba329760c11b5f5160206142415f395f51905f5255565b60045f52610a8e90601f0160051c5f5160206142215f395f51905f52017f8a35acfbc15ff81a39ae7d344fd709f28e8600b4aa8c65c6b64bfe7fe36bd1a1610877565b5f610933565b610a9f60055461083f565b601f8111610abc575b50600e661c99599d5d195960ca1b01600555565b610ad79060055f52601f60205f20910160051c810190610877565b5f610aa8565b610af2610aeb60045461083f565b600461088d565b61018760049081555f527f496e6665617369626c652061742074686520666f726b20626c6f636b3a206e6f5f5160206142215f395f51905f52557f20616c72656164792d66756e646564207374616c6520617070726f76616c20645f5160206141c15f395f51905f52557f7261696e2077617320666f756e64206163726f73732074686520657870616e645f5160206141e15f395f51905f52557f656420726f757465722f746f6b656e20736561726368207365742c20616e64205f5160206142015f395f51905f52557f626f756e64656420726f7574657243616c6c2073656564696e6720776173206e5f5160206142615f395f51905f52557f6f742073656c662d66756e64696e67206f6e207468697320666f726b207374615f5160206142415f395f51905f5255623a329760e91b7f8a35acfbc15ff81a39ae7d344fd709f28e8600b4aa8c65c6b64bfe7fe36bd1a155565b610c55610aeb60045461083f565b6101ab60049081555f527f496e6665617369626c652061742074686520666f726b20626c6f636b3a2073635f5160206142215f395f51905f52557f616e6e656420726f7574657243616c6c20657865637574696f6e7320646964205f5160206141c15f395f51905f52557f6e6f74206c656176652061207265757361626c65206c696e676572696e6720615f5160206141e15f395f51905f52557f7070726f76616c206f6e207468652070726f787920666f7220746865207365655f5160206142015f395f51905f52557f64656420726f75746520746f6b656e2c20736f2074686520737469636b792d615f5160206142615f395f51905f52557f7070726f76616c20737461676520776173206e6f7420726563726561746564205f5160206142415f395f51905f52557437b7103a32b9ba32b21031b0b73234b230ba32b99760591b7f8a35acfbc15ff81a39ae7d344fd709f28e8600b4aa8c65c6b64bfe7fe36bd1a155565b610dc760045461083f565b601f8111610ecd575b5061012f60049081555f527f4f6273657276656420726f7574657243616c6c20657865637574696f6e2061745f5160206142215f395f51905f52557f74656d70747320627574206e6f20626f756e646564207075626c6963207370655f5160206141c15f395f51905f52557f6e6465722f636f6e74726f6c6c657220656e747279706f696e74207265616c695f5160206141e15f395f51905f52557f7a6564206120647261696e20616674657220617070726f76616c2063726561745f5160206142015f395f51905f52557f696f6e206f6e207468697320666f726b2073746174652e0000000000000000005f5160206142615f395f51905f5255565b60045f52610efd90601f0160051c5f5160206142215f395f51905f52015f5160206142415f395f51905f52610877565b5f610dd0565b60035460ff166106c257610f1f600160ff196003541617600355565b610f276112c3565b610f30816114a9565b610f438282610f3e82611abe565b611c5a565b600154610fdc57610f52611de2565b610fbc575b505060035460101c60ff16610fac57600354610f7b9060181c60ff161590565b1590565b610fa457600354610f909060201c60ff161590565b610f9c576106c2610dbc565b6106c2610c47565b6106c2610add565b610fb461091f565b6106c2610a94565b610fc591611e7a565b50600154610fd4575f80610f57565b6106c2611cd6565b50506106c2611cd6565b604051905f8260045491610ff98361083f565b8083529260018116908115611069575060011461101d575b6106c292500383610499565b5060045f90815290915f5160206142215f395f51905f525b81831061104d5750509060206106c292820101611011565b6020919350806001915483858901015201910190918492611035565b602092506106c294915060ff191682840152151560051b820101611011565b604051906106c261010083610499565b3d156110d2573d9067ffffffffffffffff82116104bb57604051916110c7601f8201601f191660200184610499565b82523d5f602084013e565b606090565b908160209103126100cf575190565b905f915f5160206141a15f395f51905f523b15611177575f809160405160208101916370a0823160e01b835260018060a01b031660248201526024815261112e604482610499565b51905f5160206141a15f395f51905f525afa611148611098565b908061116b575b6111565750565b610248919250602080825183010191016110d7565b5060208151101561114f565b505f9150565b5f905f5160206141a15f395f51905f523b156111c9575f8060405160208101906370a0823160e01b82525f5160206142815f395f51905f5260248201526024815261112e604482610499565b5f9150565b905f91803b15611177575f809160405160208101906370a0823160e01b82525f5160206142815f395f51905f5260248201526024815261120f604482610499565b51915afa611148611098565b5f9291813b15611257575f91829160405160208101916370a0823160e01b835260018060a01b031660248201526024815261120f604482610499565b505f925050565b67ffffffffffffffff81116104bb5760051b60200190565b60405190611285602083610499565b5f808352366020840137565b9061129b8261125e565b6112a86040519182610499565b82815280926112b9601f199161125e565b0190602036910137565b604051633a68ff8360e01b81525f816004815f5160206142815f395f51905f525afa5f91816112fb575b506102485750610248611276565b9091503d805f833e61130d8183610499565b8101906020818303126100cf5780519067ffffffffffffffff82116100cf57019080601f830112156100cf5781516113448161125e565b926113526040519485610499565b81845260208085019260051b8201019283116100cf57602001905b82821061137e57505050905f6112ed565b60208091835161138d816100be565b81520191019061136d565b634e487b7160e01b5f52603260045260245ffd5b8051156113b95760200190565b611398565b8051600110156113b95760400190565b8051600210156113b95760600190565b8051600310156113b95760800190565b8051600410156113b95760a00190565b8051600510156113b95760c00190565b8051600610156113b95760e00190565b8051600710156113b9576101000190565b8051600810156113b9576101200190565b8051600910156113b9576101400190565b8051600a10156113b9576101600190565b8051600b10156113b9576101800190565b8051600c10156113b9576101a00190565b8051600d10156113b9576101c00190565b80518210156113b95760209160051b010190565b90815160038101809111610434576114c090611291565b916114dc6114d66114d085612046565b85612090565b846120e7565b905f915b81518310156115135760019061150b906001600160a01b036115028686611495565b51169087612b0b565b9201916114e0565b84525050565b60405163095ea7b360e01b602082019081525f5160206142815f395f51905f52602483015260448201839052611585915f91829161156481606481015b03601f198101835282610499565b5190825f5160206141a15f395f51905f525af161157f611098565b90612b4a565b6116195760405163095ea7b360e01b602082019081525f5160206142815f395f51905f5260248301525f604483018190526115cd92610f779282916115648160648101611556565b6116145760405163095ea7b360e01b602082019081525f5160206142815f395f51905f5260248301526044820192909252610248915f918291906115648160648101611556565b505f90565b50600190565b92909493915f5b84518110156116a8576203d0905a1061169e576116536116468287611495565b516001600160a01b031690565b908484848a853b15611691575f5160206141a15f395f51905f52866116789697612b78565b611686576001905b01611626565b506001955050505050565b5050505060019150611680565b505f955050505050565b509190949293948451600481105f1461179e57925b5f5b8481106116d157505050505050505f90565b6116ea610f776116e4611646848b611495565b3b151590565b611796575f5b85811061170257506001905b016116bf565b96878585858a86809d879f9d9814801561177d575b61176f5786611748611646886117426116465f5160206141a15f395f51905f529661174e9c9d611495565b93611495565b90612b78565b611761576001905b0197969095976116f0565b505050505050915050600190565b505050505060019150611756565b50611791610f776116e4611646898b611495565b611717565b6001906116fc565b506004926116bd565b91905f5b815181101561187b576203d0905a108015611889575b8015611881575b61187b576117d96116468284611495565b90813b1561187257826117f9835f5160206141a15f395f51905f52612cf1565b9283156118675761182e929361180f8783612d40565b8781101561185f57905b5f5160206141a15f395f51905f523091612dc5565b61183d575b6001905b016117ab565b925060016118575f5160206141a15f395f51905f526111ce565b939050611833565b508690611819565b505060019150611837565b60019150611837565b50505050565b5083156117c8565b5060015415156117c1565b919290925f5b8151811015611943576203d0905a108015611952575b801561194a575b611943576118c86116468284611495565b90813b1561193a57826118db8387612cf1565b92831561192f5761190392936118f18783612d40565b8881101561192757905b873091612dc5565b611912575b6001905b0161189a565b9350600161191f846111ce565b949050611908565b5087906118fb565b50506001915061190c565b6001915061190c565b5050505050565b5084156118b7565b5060015415156118b0565b90600a820291808304600a149015171561043457565b8181029291811591840414171561043457565b6103e88102908082046103e81490151715610434576103e59004600181018091116104345790565b8015611a3d575f545f5160206141a15f395f51905f526001600160a01b038216036119ec5750600154908101809111610434576001556106c2611cd6565b6001548015908115611a33575b50611a06575b5050610fd4565b5f5160206141a15f395f51905f52906bffffffffffffffffffffffff60a01b16175f556001555f806119ff565b905082115f6119f9565b50565b8115611aba575f546001600160a01b039182169181168203611a76575050600154908101809111610434576001556106c2611cd6565b6001548015908115611ab0575b50611a91575b505050610fd4565b6bffffffffffffffffffffffff60a01b16175f556001555f8080611a89565b905083115f611a83565b5050565b90611ad1611acc8351610426565b611291565b91611c2b611c25611c1f611c19611c13611c0d611c07611c01611bfb611bf5611bef8d611be9611be3611bdd611bd7611bd1611bcb611bc5611bbf611bb9611bb3611bad611ba7611ba18d611b9b611b95611b8f611b89611b83611b7d611b77611b71611b6b611b65611b5f611b59611b538d611b4d8161212a565b90612166565b8d6121a9565b8c6121ec565b8b61222f565b8a612272565b896122b5565b886122f8565b8761233b565b8661237e565b856123c1565b84612404565b83612447565b8261248a565b906124cd565b8d612510565b8c612553565b8b612596565b8a6125d9565b8961261c565b8861265f565b876126a2565b866126e5565b8561271e565b84612761565b836127a4565b826127e7565b9061282a565b8d61286d565b8c6128b0565b8b6128f3565b8a612936565b89612979565b886129bc565b876129ff565b86612a42565b85612a85565b84612ac8565b905f915b815183101561151357611c52600191611c4b6116468686611495565b9087612b0b565b920191611c2f565b915f5b835181101561187b576203d0905a108015611ccb575b61187b576001906001600160a01b03611c8c8287611495565b5116611c9781612ea0565b15611cc5578385611ca7836111ce565b8015611cbc57611cb693611894565b01611c5d565b50505050611cb6565b50611cb6565b506001541515611c73565b61010061ff00196003541617600355611cf8611cf360055461083f565b6108b6565b6012681d985b1a59185d195960ba1b01600555611d136131bc565b90815167ffffffffffffffff81116104bb57611d3981611d3460045461083f565b6108dc565b602092601f8211600114611d7957611d69929382915f92611d6e575b50508160011b915f199060031b1c19161790565b600455565b015190505f80611d55565b60045f52601f198216935f5160206142215f395f51905f52915f5b868110611dca5750836001959610611db2575b505050811b01600455565b01515f1960f88460031b161c191690555f8080611da7565b91926020600181928685015181550194019201611d94565b611dea6132e3565b509081158015611e2a575b611e245781810180911161043457611e0c90611986565b90611e1561117d565b90810180911161043457101590565b50505f90565b506001600160701b038211611df5565b908160209103126100cf5751610248816100be565b909260809261024895948352602083015260018060a01b031660408201528160608201520190610213565b611e826132e3565b81929115801561203e575b801561202e575b61202557611ea28383610439565b92604051630dfe168160e01b815260208160048173b4e16d0168e52d35cacd2c6185b44281ec28c9dc5afa9485156106f357611f465f96955f5160206141a15f395f51905f528897611f69958991611ff6575b506001600160a01b03161492878414611fef5780935b8814611fe55750611f3887965b604051968793602085016040919493926060820195825260208201520152565b03601f198101855284610499565b611556604051938492602084019663022c0d9f60e01b8852309160248601611e4f565b51908273b4e16d0168e52d35cacd2c6185b44281ec28c9dc5af1611f8b611098565b5015611e2457600154611fd65760035460201c60ff16611fb0575b5050600154151590565b611fb861117d565b9182611fc5575b50611fa6565b611fce926117a7565b5f8080611fbf565b5050611fe0611cd6565b600190565b611f389096611f18565b8793611f0b565b612018915060203d60201161201e575b6120108183610499565b810190611e3a565b5f611ef5565b503d612006565b50505050505f90565b506001600160701b038311611e94565b508015611e8d565b61206473b9e13785127bffcc3dc970a55f6c7bf0844a3c158261343e565b611614578051156113b95773b9e13785127bffcc3dc970a55f6c7bf0844a3c1560209190910152600190565b81906120b07303b7551eb0162c838a10c2437b60d1f5455b95548261343e565b6120e2577303b7551eb0162c838a10c2437b60d1f5455b9554916120d391611495565b52600181018091116104345790565b505090565b819061210773c30141b657f4216252dc59af2e7cdb9d8792e1b08261343e565b6120e25773c30141b657f4216252dc59af2e7cdb9d8792e1b0916120d391611495565b6121415f5160206141a15f395f51905f528261343e565b611614578051156113b9575f5160206141a15f395f51905f5260209190910152600190565b819061218673a0b86991c6218b36c1d19d4a2e9eb0ce3606eb488261343e565b6120e25773a0b86991c6218b36c1d19d4a2e9eb0ce3606eb48916120d391611495565b81906121c973dac17f958d2ee523a2206206994597c13d831ec78261343e565b6120e25773dac17f958d2ee523a2206206994597c13d831ec7916120d391611495565b819061220c736b175474e89094c44da98b954eedeac495271d0f8261343e565b6120e257736b175474e89094c44da98b954eedeac495271d0f916120d391611495565b819061224f732260fac5e5542a773aa44fbcfedf7c193bc2c5998261343e565b6120e257732260fac5e5542a773aa44fbcfedf7c193bc2c599916120d391611495565b819061229273853d955acef822db058eb8505911ed77f175b99e8261343e565b6120e25773853d955acef822db058eb8505911ed77f175b99e916120d391611495565b81906122d573514910771af9ca656af840dff83e8264ecf986ca8261343e565b6120e25773514910771af9ca656af840dff83e8264ecf986ca916120d391611495565b8190612318731f9840a85d5af5bf1d1762f925bdaddc4201f9848261343e565b6120e257731f9840a85d5af5bf1d1762f925bdaddc4201f984916120d391611495565b819061235b73d533a949740bb3306d119cc777fa900ba034cd528261343e565b6120e25773d533a949740bb3306d119cc777fa900ba034cd52916120d391611495565b819061239e739f8f72aa9304c8b593d555f12ef6589cc3a579a28261343e565b6120e257739f8f72aa9304c8b593d555f12ef6589cc3a579a2916120d391611495565b81906123e1735f98805a4e8be255a32880fdec7f6728c6568ba08261343e565b6120e257735f98805a4e8be255a32880fdec7f6728c6568ba0916120d391611495565b81906124247399d8a9c45b2ecbeaeabdd0affb8144086c3de77f8261343e565b6120e2577399d8a9c45b2ecbeaeabdd0affb8144086c3de77f916120d391611495565b8190612467734fabb145d64652a948d72533023f6e7a623c7c538261343e565b6120e257734fabb145d64652a948d72533023f6e7a623c7c53916120d391611495565b81906124aa73956f47f50a910163d8bf957cf5846d573e7f87ca8261343e565b6120e25773956f47f50a910163d8bf957cf5846d573e7f87ca916120d391611495565b81906124ed737fc66500c84a76ad7e9c93437bfc5ac33e2ddae98261343e565b6120e257737fc66500c84a76ad7e9c93437bfc5ac33e2ddae9916120d391611495565b819061253073c00e94cb662c3520282e6f5717214004a7f268888261343e565b6120e25773c00e94cb662c3520282e6f5717214004a7f26888916120d391611495565b819061257373c011a73ee8576fb46f5e1c5751ca3b9fe0af2a6f8261343e565b6120e25773c011a73ee8576fb46f5e1c5751ca3b9fe0af2a6f916120d391611495565b81906125b6736b3595068778dd592e39a122f4f5a5cf09c90fe28261343e565b6120e257736b3595068778dd592e39a122f4f5a5cf09c90fe2916120d391611495565b81906125f973ba100000625a3754423978a60c9317c58a424e3d8261343e565b6120e25773ba100000625a3754423978a60c9317c58a424e3d916120d391611495565b819061263c734e3fbd56cd56c3e72c1403e103b45db9da5b9d2b8261343e565b6120e257734e3fbd56cd56c3e72c1403e103b45db9da5b9d2b916120d391611495565b819061267f735a98fcbea516cf06857215779fd812ca3bef1b328261343e565b6120e257735a98fcbea516cf06857215779fd812ca3bef1b32916120d391611495565b81906126c2733432b6a60d23ca0dfca7761b7ab56459d9c964d08261343e565b6120e257733432b6a60d23ca0dfca7761b7ab56459d9c964d0916120d391611495565b81906127006e085d4780b73119b644ae5ecd22b3768261343e565b6120e2576e085d4780b73119b644ae5ecd22b376916120d391611495565b819061273e73eb4c2781e4eba804ce9a9803c67d0893436bb27d8261343e565b6120e25773eb4c2781e4eba804ce9a9803c67d0893436bb27d916120d391611495565b8190612781730316eb71485b0ab14103307bf65a021042c6d3808261343e565b6120e257730316eb71485b0ab14103307bf65a021042c6d380916120d391611495565b81906127c47345804880de22913dafe09f4980848ece6ecbaf788261343e565b6120e2577345804880de22913dafe09f4980848ece6ecbaf78916120d391611495565b819061280773056fd409e1d7a124bd7017459dfea2f387b6d5cd8261343e565b6120e25773056fd409e1d7a124bd7017459dfea2f387b6d5cd916120d391611495565b819061284a7357ab1ec28d129707052df4df418d58a2d46d5f518261343e565b6120e2577357ab1ec28d129707052df4df418d58a2d46d5f51916120d391611495565b819061288d730bc529c00c6401aef6d220be8c6ea1667f6ad93e8261343e565b6120e257730bc529c00c6401aef6d220be8c6ea1667f6ad93e916120d391611495565b81906128d073111111111117dc0aa78b770fa6a738034120c3028261343e565b6120e25773111111111117dc0aa78b770fa6a738034120c302916120d391611495565b819061291373ae7ab96520de3a18e5e111b5eaab095312d7fe848261343e565b6120e25773ae7ab96520de3a18e5e111b5eaab095312d7fe84916120d391611495565b819061295673ae78736cd615f374d3085123a210448e74fc63938261343e565b6120e25773ae78736cd615f374d3085123a210448e74fc6393916120d391611495565b819061299973be9895146f7af43049ca1c1ae358b0541ea497048261343e565b6120e25773be9895146f7af43049ca1c1ae358b0541ea49704916120d391611495565b81906129dc737d1afa7b718fb893db30a3abc0cfc608aacfebb08261343e565b6120e257737d1afa7b718fb893db30a3abc0cfc608aacfebb0916120d391611495565b8190612a1f73b8c77482e45f1f44de1745f52c74426c631bdd528261343e565b6120e25773b8c77482e45f1f44de1745f52c74426c631bdd52916120d391611495565b8190612a62736dea81c8171d0ba574754ef6f8b412f2ed88c54d8261343e565b6120e257736dea81c8171d0ba574754ef6f8b412f2ed88c54d916120d391611495565b8190612aa573865377367054516e17014ccded1e7d814edc9ce48261343e565b6120e25773865377367054516e17014ccded1e7d814edc9ce4916120d391611495565b8190612ae8738e870d67f660d95d5be530380d0ec0bd388289e18261343e565b6120e257738e870d67f660d95d5be530380d0ec0bd388289e1916120d391611495565b90916001600160a01b038116919083908315908115612b39575b50612b33576120d391611495565b50505090565b612b4491508361343e565b5f612b25565b9081612b54575090565b8051801592508215612b6557505090565b610248925060208091830101910161051c565b94919695939096612b8c610f77873b151590565b8015612ce8575b612c815781612bf491612ba4611088565b6001600160a01b0382168152956020870152600160408701526001600160a01b03811660608701525f60808701523060a08701525f60c08701526001600160a01b03881660e08701523090613547565b946001600160a01b03888116911614612c8c575b5f969496945b8751861015612c81576203d0905a10612c8157612c35612c2e878a611495565b5182613d6b565b975f5b8951811015612c7357612c5987612c4f838d611495565b518787878b613b80565b612c6557600101612c38565b506001985050505050505050565b509750600190950194612c0e565b505f96505050505050565b5f9695965b8551811015612cdf576203d0905a10612cd457612cbc85612cb28389611495565b5185858b89613b80565b612cc857600101612c91565b50505050505050600190565b505050505050505f90565b50959495612c08565b50873b15612b93565b5f9291813b15611257575f9182916040516020810191636eb1769f60e11b83525f5160206142815f395f51905f52602483015260018060a01b031660448201526044815261120f606482610499565b612d709160ff6201000062ff000019600354161780600355818160181c16612db7575b60201c16612d975761343e565b158015612d8c575b612d7e57565b6106c2600860025417600255565b506001541515612d78565b612da46002805417600255565b612db2600460025417600255565b61343e565b600160025417600255612d63565b9291909180158015612e97575b61202557612dee915f5160206142815f395f51905f528461390f565b91612dfa838383613ffd565b612e8e575f5b8451811015612025576203d0905a1061202557612e206116468287611495565b908484846001600160a01b0385168015908115612e7b575b508015612e72575b612e6657612e4e939461409a565b612e5c576001905b01612e00565b5050505050600190565b50505060019150612e56565b50843b15612e40565b6001600160a01b0383161490505f612e38565b50505050600190565b50833b15612dd2565b803b15611614575f809160405160208101906318160ddd60e01b825260048152612ecb602482610499565b51915afa612ed7611098565b81612ee0575090565b6020915051101590565b60405190612ef9608083610499565b604f82526e3232b917b1b7b73a3937b63632b91760891b6060837f4120757365722063616c6c7320726f7574657243616c6c2077697468205f676160208201527f74657761792073657420746f20616e20616c6c6f776c6973746564207370656e60408201520152565b60405190612f7260a083610499565b60698252683a32903a37b5b2b71760b91b6080837f5468652070726f787920657865637574657320736d617274417070726f76652060208201527f616e64206c6561766573205f676174657761792077697468207479706528756960408201527f6e74323536292e6d617820616c6c6f77616e636520666f722074686520726f7560608201520152565b6040519061300b606083610499565b60338252723b30b61031b632b0b73ab81037b1b1bab9399760691b6040837f54686520726f7574652066696e69736865732c20627574206e6f20617070726f60208201520152565b6040519061306260c083610499565b609d82527f6e6420647261696e2070726f78792d68656c642062616c616e6365732e00000060a0837f4576656e2061667465722072656d6f7665417661696c61626c65526f7574657260208201527f285f67617465776179292c20746865206f6c64207370656e6465722063616e2060408201527f7374696c6c2063616c6c207472616e7366657246726f6d2870726f78792c206160608201527f747461636b65722c20616d6f756e7429206f72206571756976616c656e74206160808201520152565b805191908290602001825e015f815290565b90613160949360016131606106c2958261316061316e96826040519c8d9a60208c0190613126565b600160fd1b81520190613126565b03601f198101845283610499565b61316e613160949360016131606106c29582604051998a976020890190613126565b6106c29061316e613160949360016040519687946020860190613126565b6002546001808216149081806132d5575b806132c0575b806132ab575b61327f578180613271575b8061325c575b61323957819081613229575b5061320f5761320757610248610fe6565b610248612eea565b5061024861321b612eea565b613223612f63565b9061319e565b600191508190811c16145f6131f6565b5050610248613246612eea565b61324e612f63565b613256612ffc565b9161317c565b5060018061326a8360021c90565b16146131ea565b5060018082811c16146131e4565b505061024861328c612eea565b613294612f63565b61329c612ffc565b906132a5613053565b92613138565b506001806132b98360031c90565b16146131d9565b506001806132ce8360021c90565b16146131d3565b5060018082811c16146131cd565b5f906132ed614161565b916040519163c75b3d4160e01b83526020836004815f5160206142815f395f51905f525afa9283156106f3575f9361341d575b506001925b670de0b6b3a764000084106133e9575b604051630f4fb37360e01b81525f5160206141a15f395f51905f5260048201526020816024815f5160206142815f395f51905f525afa9081156106f3575f916133ba575b50801515806133b1575b61338b575050565b9093506102489192506133ab6133a2829583611973565b620f4240900490565b906104cb565b50808511613383565b6133dc915060203d6020116133e2575b6133d48183610499565b8101906110d7565b5f613379565b503d6133ca565b9291506134026133fc6133a28585611973565b836104cb565b9182613417576134119061195d565b92613325565b92613335565b61343791935060203d6020116133e2576133d48183610499565b915f613320565b905f5b825181101561347d576001600160a01b0361345c8285611495565b51166001600160a01b0383161461347557600101613441565b505050600190565b5050505f90565b6040516101e091906134968382610499565b600e815291601f1901825f5b8281106134ae57505050565b8060606020809385010152016134a2565b6040516101a091906134d18382610499565b600c815291601f1901825f5b8281106134e957505050565b8060606020809385010152016134dd565b6001600160a01b03918216815291811660208301529091166040820152606081019190915260800190565b6001600160a01b03909116815260406020820181905261024892910190610213565b6040516323b872dd60e01b60208201525f5160206142815f395f51905f5260248201526001600160a01b0383166044820152606480820185905281529193926138fc9190613596608485610499565b6137856135a1613484565b6040516323b872dd60e01b60208201525f5160206142815f395f51905f5260248201526001600160a01b0389166044820152606481018490529097906135ea8160848101611556565b6135f3896113ac565b526135fd886113ac565b506040516301cc6d8d60e11b602082015261362f8161155686855f5160206142815f395f51905f528a602486016134fa565b613638896113be565b52613642886113be565b50604051630aed65f560e11b60208201526136748161155686855f5160206142815f395f51905f528a602486016134fa565b61367d896113ce565b52613687886113ce565b5060405163d9fc4b6160e01b60208201526136b98161155686855f5160206142815f395f51905f528a602486016134fa565b6136c2896113de565b526136cc886113de565b5060405163371dcba560e21b60208201526136fe8161155686855f5160206142815f395f51905f528a602486016134fa565b613707896113ee565b52613711886113ee565b5060405163355104d360e11b60208201526137438161155686855f5160206142815f395f51905f528a602486016134fa565b61374c896113fe565b52613756886113fe565b506115566040519384926368155ec160e01b60208501525f5160206142815f395f51905f5287602486016134fa565b61378e8661140e565b526137988561140e565b50604051631cff79cd60e01b60208201526137bb81611556868560248401613525565b6137c48661141e565b526137ce8561141e565b50604051631b8b921d60e01b60208201526137f181611556868560248401613525565b6137fa8661142f565b526138048561142f565b50604051635f30016160e11b602082015261382781611556868560248401613525565b61383086611440565b5261383a85611440565b50604051630a0b5ffb60e41b602082015261385d81611556868560248401613525565b61386686611451565b5261387085611451565b5060405163bca8c7b560e01b602082015261389381611556868560248401613525565b61389c86611462565b526138a685611462565b506040516337d6e7b960e11b60208201526138c981611556868560248401613525565b6138d286611473565b526138dc85611473565b5061155660405193849263654c9bdb60e01b602085015260248401613525565b61390583611484565b52611a3d82611484565b6040516323b872dd60e01b60208201526001600160a01b0383811660248301528416604482015260648082018690528152939493926138fc9261378590613957608487610499565b611556613962613484565b6040516323b872dd60e01b60208201526001600160a01b03808516602483015286166044820152606481018b90529099906139a08160848101611556565b6139a98b6113ac565b526139b38a6113ac565b506040516301cc6d8d60e11b60208201526139d8816115568489888c602486016134fa565b6139e18b6113be565b526139eb8a6113be565b50604051630aed65f560e11b6020820152613a10816115568489888c602486016134fa565b613a198b6113ce565b52613a238a6113ce565b5060405163d9fc4b6160e01b6020820152613a48816115568489888c602486016134fa565b613a518b6113de565b52613a5b8a6113de565b5060405163371dcba560e21b6020820152613a80816115568489888c602486016134fa565b613a898b6113ee565b52613a938a6113ee565b5060405163355104d360e11b6020820152613ab8816115568489888c602486016134fa565b613ac18b6113fe565b52613acb8a6113fe565b506040516368155ec160e01b602082015294859387602486016134fa565b81516001600160a01b03908116825260208084015190830152604080840151908301526060808401518216908301526080808401519083015260a08084015182169083015260c08084015190911690820152610248939261014092613b729190613b619060e001516001600160a01b031660e0850152565b6001600160a01b0316610100830152565b816101208201520190610213565b9391925f80613b9d613b98885160018060a01b031690565b6111ce565b9287611556613bdf613bbf613bb8845160018060a01b031690565b309061121b565b986040519283918a602084019663039456b960e61b885260248501613ae9565b51915f5160206142815f395f51905f526213d620f1613bfc611098565b5015613d0f57613c1a630100000063ff000000196003541617600355565b613c28600160025417600255565b8451613c3c906001600160a01b03166111ce565b91613c7081613c6b613c5d30613c588b5160018060a01b031690565b61121b565b98516001600160a01b031690565b612cf1565b15159687613cca575b505085613cc0575b85613ca9575b505083613c945750505090565b613c9f929350610439565b11155f8080612b33565b8392955090613cb7916104cb565b14925f80613c87565b8181119550613c81565b613d0891613ce864010000000064ff00000000196003541617600355565b613cf56002805417600255565b613d03600460025417600255565b612d40565b5f80613c79565b5050505050505f90565b6001600160a01b0390911681525f602082015260606040820181905261024892910190610213565b9291613d666040915f9360018060a01b03168652606060208701526060860190610213565b930152565b9190613fea613d786134bf565b93604051631cff79cd60e01b6020820152613d9b81611556868560248401613525565b613da4866113ac565b52613dae856113ac565b50604051631b8b921d60e01b6020820152613dd181611556868560248401613525565b613dda866113be565b52613de4856113be565b50604051635f30016160e11b6020820152613e0781611556868560248401613525565b613e10866113ce565b52613e1a856113ce565b50604051630a0b5ffb60e41b6020820152613e3d81611556868560248401613525565b613e46866113de565b52613e50856113de565b5060405163bca8c7b560e01b6020820152613e7381611556868560248401613525565b613e7c866113ee565b52613e86856113ee565b506040516337d6e7b960e11b6020820152613ea981611556868560248401613525565b613eb2866113fe565b52613ebc856113fe565b5060405163654c9bdb60e01b6020820152613edf81611556868560248401613525565b613ee88661140e565b52613ef28561140e565b50604051635b0e93fb60e11b6020820152613f1581611556868560248401613d19565b613f1e8661141e565b52613f288561141e565b5060405163036df97d60e51b6020820152613f4b81611556868560248401613d19565b613f548661142f565b52613f5e8561142f565b50604051630a80456560e21b6020820152613f8181611556868560248401613d41565b613f8a86611440565b52613f9485611440565b50604051639e5d4c4960e01b6020820152613fb781611556868560248401613d19565b613fc086611451565b52613fca85611451565b506115566040519384926308afb92560e21b602085015260248401613525565b613ff383611462565b52611a3d82611462565b90915f905b8051821015614092576203d0905a106140925761401f308561121b565b925f8061402c8585611495565b5160208151910182856206ddd0f192614043611098565b5061404e308761121b565b93158015614088575b61407b57505050611fe0929161407591610708600860025417600255565b90611a40565b9093506001019150614002565b5084841115614057565b505050505f90565b9192905f5b8251811015612025576203d0905a1061202557916140ca6140c38483969496611495565b5185613d6b565b5f935b8151851015614150576140e0308861121b565b955f806140ed8886611495565b5160208151910182896206ddd0f195614104611098565b5061410f308a61121b565b96158015614146575b61413957505050505050611fe0929161407591610708600860025417600255565b90965060010194506140cd565b5087871115614118565b92949193509091600101905061409f565b5f905f8060405160208101906312362e6960e21b825260048152614186602482610499565b51905f5160206142815f395f51905f525afa61114861109856fe000000000000000000000000c02aaa39b223fe8d0a0e5c4f27ead9083c756cc28a35acfbc15ff81a39ae7d344fd709f28e8600b4aa8c65c6b64bfe7fe36bd19c8a35acfbc15ff81a39ae7d344fd709f28e8600b4aa8c65c6b64bfe7fe36bd19d8a35acfbc15ff81a39ae7d344fd709f28e8600b4aa8c65c6b64bfe7fe36bd19e8a35acfbc15ff81a39ae7d344fd709f28e8600b4aa8c65c6b64bfe7fe36bd19b8a35acfbc15ff81a39ae7d344fd709f28e8600b4aa8c65c6b64bfe7fe36bd1a08a35acfbc15ff81a39ae7d344fd709f28e8600b4aa8c65c6b64bfe7fe36bd19f0000000000000000000000003335a88bb18fd3b6824b59af62b50ce494143333a2646970667358221220e998c7738db0158e62728abd2d070d5d882c42f7b83934d3c0fd661a19cfd69a64736f6c634300081e0033","linkReferences":{}},"methodIdentifiers":{"coveredPathsBitmap()":"1fc3a476","executeOnOpportunity()":"3c2448ed","exploitPath()":"cb707c62","pathCovered(uint256)":"546b5d42","profitAmount()":"5ff972cc","profitToken()":"49343624","staleApprovalObserved()":"1d8c0e99","uniswapV2Call(address,uint256,uint256,bytes)":"10d1e85c","validated()":"efb37a39","validatedOrRefuted()":"b62a9256"},"id":0}