{"abi":[{"type":"constructor","inputs":[],"stateMutability":"nonpayable"},{"type":"function","name":"canImplementInterfaceForAddress","inputs":[{"name":"interfaceHash","type":"bytes32","internalType":"bytes32"},{"name":"account","type":"address","internalType":"address"}],"outputs":[{"name":"","type":"bytes32","internalType":"bytes32"}],"stateMutability":"view"},{"type":"function","name":"concreteInfeasibility","inputs":[],"outputs":[{"name":"","type":"string","internalType":"string"}],"stateMutability":"view"},{"type":"function","name":"depositedAmount","inputs":[],"outputs":[{"name":"","type":"uint256","internalType":"uint256"}],"stateMutability":"view"},{"type":"function","name":"donatedLiquidity","inputs":[],"outputs":[{"name":"","type":"uint256","internalType":"uint256"}],"stateMutability":"view"},{"type":"function","name":"endingBalance","inputs":[],"outputs":[{"name":"","type":"uint256","internalType":"uint256"}],"stateMutability":"view"},{"type":"function","name":"executeOnOpportunity","inputs":[],"outputs":[],"stateMutability":"nonpayable"},{"type":"function","name":"executed","inputs":[],"outputs":[{"name":"","type":"bool","internalType":"bool"}],"stateMutability":"view"},{"type":"function","name":"exploitPathUsed","inputs":[],"outputs":[{"name":"","type":"string","internalType":"string"}],"stateMutability":"view"},{"type":"function","name":"flashswapUsed","inputs":[],"outputs":[{"name":"","type":"bool","internalType":"bool"}],"stateMutability":"view"},{"type":"function","name":"hookCallCount","inputs":[],"outputs":[{"name":"","type":"uint256","internalType":"uint256"}],"stateMutability":"view"},{"type":"function","name":"hookObserved","inputs":[],"outputs":[{"name":"","type":"bool","internalType":"bool"}],"stateMutability":"view"},{"type":"function","name":"hookRegistered","inputs":[],"outputs":[{"name":"","type":"bool","internalType":"bool"}],"stateMutability":"view"},{"type":"function","name":"hypothesisRefuted","inputs":[],"outputs":[{"name":"","type":"bool","internalType":"bool"}],"stateMutability":"view"},{"type":"function","name":"hypothesisValidated","inputs":[],"outputs":[{"name":"","type":"bool","internalType":"bool"}],"stateMutability":"view"},{"type":"function","name":"profitAmount","inputs":[],"outputs":[{"name":"","type":"uint256","internalType":"uint256"}],"stateMutability":"view"},{"type":"function","name":"profitToken","inputs":[],"outputs":[{"name":"","type":"address","internalType":"address"}],"stateMutability":"view"},{"type":"function","name":"reentered","inputs":[],"outputs":[{"name":"","type":"bool","internalType":"bool"}],"stateMutability":"view"},{"type":"function","name":"reenteredWithdrawAmount","inputs":[],"outputs":[{"name":"","type":"uint256","internalType":"uint256"}],"stateMutability":"view"},{"type":"function","name":"startingBalance","inputs":[],"outputs":[{"name":"","type":"uint256","internalType":"uint256"}],"stateMutability":"view"},{"type":"function","name":"tokensReceived","inputs":[{"name":"","type":"address","internalType":"address"},{"name":"from","type":"address","internalType":"address"},{"name":"to","type":"address","internalType":"address"},{"name":"","type":"uint256","internalType":"uint256"},{"name":"","type":"bytes","internalType":"bytes"},{"name":"","type":"bytes","internalType":"bytes"}],"outputs":[],"stateMutability":"nonpayable"},{"type":"function","name":"transferFromLegUsed","inputs":[],"outputs":[{"name":"","type":"bool","internalType":"bool"}],"stateMutability":"view"},{"type":"function","name":"transferLegUsed","inputs":[],"outputs":[{"name":"","type":"bool","internalType":"bool"}],"stateMutability":"view"},{"type":"function","name":"uniswapV2Call","inputs":[{"name":"","type":"address","internalType":"address"},{"name":"amount0","type":"uint256","internalType":"uint256"},{"name":"amount1","type":"uint256","internalType":"uint256"},{"name":"data","type":"bytes","internalType":"bytes"}],"outputs":[],"stateMutability":"nonpayable"},{"type":"function","name":"uniswapV3SwapCallback","inputs":[{"name":"amount0Delta","type":"int256","internalType":"int256"},{"name":"amount1Delta","type":"int256","internalType":"int256"},{"name":"data","type":"bytes","internalType":"bytes"}],"outputs":[],"stateMutability":"nonpayable"},{"type":"function","name":"vault","inputs":[],"outputs":[{"name":"","type":"address","internalType":"contract VulnerableN00dVault"}],"stateMutability":"view"}],"bytecode":{"object":"0x6080604052348015600e575f5ffd5b506166d38061001c5f395ff3fe608060405234801561000f575f5ffd5b5060043610610170575f3560e01c806357004c5e116100dc57806394bd2d3b11610095578063d78c42811161006f578063d78c4281146103e4578063edc3b56e14610402578063fa461e3314610420578063fbfa77cf1461043c57610170565b806394bd2d3b1461038a578063b6fb7e46146103a8578063c9819e23146103c657610170565b806357004c5e146102d65780635ff972cc146102f457806379e64f411461031257806381419b4214610330578063816460751461034e5780638de76e0f1461036c57610170565b806331a38c891161012e57806331a38c89146102365780633c2448ed146102545780633f09775e1461025e578063463defd11461027c578063493436241461029a578063495f92f1146102b857610170565b806223de291461017457806310d1e85c146101905780631d01364c146101ac5780631f69f8ce146101ca578063249cb3fa146101e85780632ecfe1be14610218575b5f5ffd5b61018e60048036038101906101899190613ae8565b61045a565b005b6101aa60048036038101906101a59190613bb2565b610750565b005b6101b4610dca565b6040516101c19190613c45565b60405180910390f35b6101d2610dd0565b6040516101df9190613cce565b60405180910390f35b61020260048036038101906101fd9190613d21565b610e5c565b60405161020f9190613d6e565b60405180910390f35b610220610ef0565b60405161022d9190613c45565b60405180910390f35b61023e610ef6565b60405161024b9190613da1565b60405180910390f35b61025c610f08565b005b6102666113ce565b6040516102739190613da1565b60405180910390f35b6102846113e0565b6040516102919190613da1565b60405180910390f35b6102a26113f2565b6040516102af9190613dc9565b60405180910390f35b6102c061141d565b6040516102cd9190613da1565b60405180910390f35b6102de61142f565b6040516102eb9190613da1565b60405180910390f35b6102fc611441565b6040516103099190613c45565b60405180910390f35b61031a61144a565b6040516103279190613da1565b60405180910390f35b61033861145c565b6040516103459190613da1565b60405180910390f35b61035661146e565b6040516103639190613c45565b60405180910390f35b610374611474565b6040516103819190613da1565b60405180910390f35b610392611486565b60405161039f9190613c45565b60405180910390f35b6103b061148c565b6040516103bd9190613c45565b60405180910390f35b6103ce611492565b6040516103db9190613da1565b60405180910390f35b6103ec6114a4565b6040516103f99190613cce565b60405180910390f35b61040a611530565b6040516104179190613c45565b60405180910390f35b61043a60048036038101906104359190613e15565b611536565b005b6104446116d0565b6040516104519190613ee1565b60405180910390f35b732321537fd8ef4644bacdceec54e5f35bf44311fa73ffffffffffffffffffffffffffffffffffffffff163373ffffffffffffffffffffffffffffffffffffffff16146104dc576040517f08c379a00000000000000000000000000000000000000000000000000000000081526004016104d390613f44565b60405180910390fd5b3073ffffffffffffffffffffffffffffffffffffffff168673ffffffffffffffffffffffffffffffffffffffff161461054a576040517f08c379a000000000000000000000000000000000000000000000000000000000815260040161054190613fac565b60405180910390fd5b5f5f9054906101000a900473ffffffffffffffffffffffffffffffffffffffff1673ffffffffffffffffffffffffffffffffffffffff168773ffffffffffffffffffffffffffffffffffffffff16036107465760015f60166101000a81548160ff021916908315150217905550600160065f8282546105c99190613ff7565b925050819055505f60179054906101000a900460ff166105fe5760015f60176101000a81548160ff0219169083151502179055505b5f6008541415801561069e57506005545f5f9054906101000a900473ffffffffffffffffffffffffffffffffffffffff1673ffffffffffffffffffffffffffffffffffffffff1663b7ec1a336040518163ffffffff1660e01b8152600401602060405180830381865afa158015610677573d5f5f3e3d5ffd5b505050506040513d601f19601f8201168201806040525081019061069b919061403e565b10155b1561074557600160085f8282546106b59190614069565b925050819055505f5f9054906101000a900473ffffffffffffffffffffffffffffffffffffffff1673ffffffffffffffffffffffffffffffffffffffff16632e1a7d4d6005546040518263ffffffff1660e01b81526004016107179190613c45565b5f604051808303815f87803b15801561072e575f5ffd5b505af1158015610740573d5f5f3e3d5ffd5b505050505b5b5050505050505050565b5f8282810190610760919061432b565b9050805f015173ffffffffffffffffffffffffffffffffffffffff163373ffffffffffffffffffffffffffffffffffffffff16146107d3576040517f08c379a00000000000000000000000000000000000000000000000000000000081526004016107ca906143a1565b60405180910390fd5b5f5f86036107e157846107e3565b855b90508160200151811461082b576040517f08c379a000000000000000000000000000000000000000000000000000000000815260040161082290614409565b60405180910390fd5b5f732321537fd8ef4644bacdceec54e5f35bf44311fa90508073ffffffffffffffffffffffffffffffffffffffff1663095ea7b35f5f9054906101000a900473ffffffffffffffffffffffffffffffffffffffff167fffffffffffffffffffffffffffffffffffffffffffffffffffffffffffffffff6040518363ffffffff1660e01b81526004016108be929190614427565b6020604051808303815f875af11580156108da573d5f5f3e3d5ffd5b505050506040513d601f19601f820116820180604052508101906108fe9190614462565b61093d576040517f08c379a0000000000000000000000000000000000000000000000000000000008152600401610934906144d7565b60405180910390fd5b5f61094c838560a001516116f4565b90505f8103610990576040517f08c379a00000000000000000000000000000000000000000000000000000000081526004016109879061453f565b60405180910390fd5b8360a00151816109a0919061458a565b600381905550600354816109b49190614069565b60048190555060035460058190555060018460a001516109d49190614069565b6008819055505f5f9054906101000a900473ffffffffffffffffffffffffffffffffffffffff1673ffffffffffffffffffffffffffffffffffffffff1663b6b55f256003546040518263ffffffff1660e01b8152600401610a359190613c45565b5f604051808303815f87803b158015610a4c575f5ffd5b505af1158015610a5e573d5f5f3e3d5ffd5b5050505060015f601a6101000a81548160ff0219169083151502179055505f60045414610b0e575f5f9054906101000a900473ffffffffffffffffffffffffffffffffffffffff1673ffffffffffffffffffffffffffffffffffffffff1663f14faf6f6004546040518263ffffffff1660e01b8152600401610ae09190613c45565b5f604051808303815f87803b158015610af7575f5ffd5b505af1158015610b09573d5f5f3e3d5ffd5b505050505b60015f601b6101000a81548160ff0219169083151502179055505f5f9054906101000a900473ffffffffffffffffffffffffffffffffffffffff1673ffffffffffffffffffffffffffffffffffffffff16632e1a7d4d6003546040518263ffffffff1660e01b8152600401610b839190613c45565b5f604051808303815f87803b158015610b9a575f5ffd5b505af1158015610bac573d5f5f3e3d5ffd5b505050505f8273ffffffffffffffffffffffffffffffffffffffff166370a08231306040518263ffffffff1660e01b8152600401610bea9190613dc9565b602060405180830381865afa158015610c05573d5f5f3e3d5ffd5b505050506040513d601f19601f82011682018060405250810190610c29919061403e565b905083811015610c6e576040517f08c379a0000000000000000000000000000000000000000000000000000000008152600401610c6590614604565b60405180910390fd5b5f610c7d8660c0015186611724565b90505f8660e001515f015160ff1614610ca157610c9e8660e0015182611724565b90505b8560400151811015610ce8576040517f08c379a0000000000000000000000000000000000000000000000000000000008152600401610cdf9061466c565b60405180910390fd5b73c02aaa39b223fe8d0a0e5c4f27ead9083c756cc273ffffffffffffffffffffffffffffffffffffffff1663a9059cbb875f015188604001516040518363ffffffff1660e01b8152600401610d3e929190614427565b6020604051808303815f875af1158015610d5a573d5f5f3e3d5ffd5b505050506040513d601f19601f82011682018060405250810190610d7e9190614462565b610dbd576040517f08c379a0000000000000000000000000000000000000000000000000000000008152600401610db4906146d4565b60405180910390fd5b5050505050505050505050565b60035481565b600a8054610ddd9061471f565b80601f0160208091040260200160405190810160405280929190818152602001828054610e099061471f565b8015610e545780601f10610e2b57610100808354040283529160200191610e54565b820191905f5260205f20905b815481529060010190602001808311610e3757829003601f168201915b505050505081565b5f3073ffffffffffffffffffffffffffffffffffffffff168273ffffffffffffffffffffffffffffffffffffffff16148015610eb757507fb281fc8c12954d22544db45de3159a39272895b169a852b314f9cc762e44c53b83145b15610ee4577fa2ef4600d742022d532d4747cb3547474667d6f13804902513b2ec01c848f4b49050610eea565b5f5f1b90505b92915050565b60055481565b5f60149054906101000a900460ff1681565b5f60149054906101000a900460ff166113cc5760015f60146101000a81548160ff021916908315150217905550604051806102a0016040528061026781526020016162fc610267913960099081610f5f91906148e6565b50610f686117b2565b732321537fd8ef4644bacdceec54e5f35bf44311fa604051610f899061386f565b610f939190613dc9565b604051809103905ff080158015610fac573d5f5f3e3d5ffd5b505f5f6101000a81548173ffffffffffffffffffffffffffffffffffffffff021916908373ffffffffffffffffffffffffffffffffffffffff1602179055505f610ff46119a8565b905080610100015161104b5760405180610160016040528061013b815260200161656361013b9139600a908161102a91906148e6565b5060015f60196101000a81548160ff021916908315150217905550506113cc565b60015f601c6101000a81548160ff02191690831515021790555073c02aaa39b223fe8d0a0e5c4f27ead9083c756cc273ffffffffffffffffffffffffffffffffffffffff166370a08231306040518263ffffffff1660e01b81526004016110b29190613dc9565b602060405180830381865afa1580156110cd573d5f5f3e3d5ffd5b505050506040513d601f19601f820116820180604052508101906110f1919061403e565b6001819055505f816040516020016111099190614b2f565b604051602081830303815290604052905081608001511561119c57815f015173ffffffffffffffffffffffffffffffffffffffff1663022c0d9f83602001515f30856040518563ffffffff1660e01b815260040161116a9493929190614bd4565b5f604051808303815f87803b158015611181575f5ffd5b505af1158015611193573d5f5f3e3d5ffd5b50505050611210565b815f015173ffffffffffffffffffffffffffffffffffffffff1663022c0d9f5f846020015130856040518563ffffffff1660e01b81526004016111e29493929190614c1e565b5f604051808303815f87803b1580156111f9575f5ffd5b505af115801561120b573d5f5f3e3d5ffd5b505050505b73c02aaa39b223fe8d0a0e5c4f27ead9083c756cc273ffffffffffffffffffffffffffffffffffffffff166370a08231306040518263ffffffff1660e01b815260040161125d9190613dc9565b602060405180830381865afa158015611278573d5f5f3e3d5ffd5b505050506040513d601f19601f8201168201806040525081019061129c919061403e565b60028190555060015460025411156112c5576001546002546112be9190614069565b6007819055505b5f60159054906101000a900460ff1680156112eb57505f60169054906101000a900460ff165b801561130257505f60179054906101000a900460ff165b801561131957505f601a9054906101000a900460ff165b801561133057505f601b9054906101000a900460ff165b5f60186101000a81548160ff0219169083151502179055505f60189054906101000a900460ff16158061136457505f600754145b5f60196101000a81548160ff0219169083151502179055505f60075414801561139a57505f600a80546113969061471f565b9050145b156113c95760405180610100016040528060ce815260200161622e60ce9139600a90816113c791906148e6565b505b50505b565b5f60179054906101000a900460ff1681565b5f60189054906101000a900460ff1681565b5f5f600754146114165773c02aaa39b223fe8d0a0e5c4f27ead9083c756cc2611418565b5f5b905090565b5f60199054906101000a900460ff1681565b5f601a9054906101000a900460ff1681565b5f600754905090565b5f60169054906101000a900460ff1681565b5f60159054906101000a900460ff1681565b60065481565b5f601b9054906101000a900460ff1681565b60015481565b60025481565b5f601c9054906101000a900460ff1681565b600980546114b19061471f565b80601f01602080910402602001604051908101604052809291908181526020018280546114dd9061471f565b80156115285780601f106114ff57610100808354040283529160200191611528565b820191905f5260205f20905b81548152906001019060200180831161150b57829003601f168201915b505050505081565b60045481565b5f5f83838101906115479190614ca3565b915091508173ffffffffffffffffffffffffffffffffffffffff163373ffffffffffffffffffffffffffffffffffffffff16146115b9576040517f08c379a00000000000000000000000000000000000000000000000000000000081526004016115b090614d2b565b60405180910390fd5b5f5f87136115c757856115c9565b865b90505f810361160d576040517f08c379a000000000000000000000000000000000000000000000000000000000815260040161160490614d93565b60405180910390fd5b8173ffffffffffffffffffffffffffffffffffffffff1663a9059cbb33836040518363ffffffff1660e01b8152600401611648929190614427565b6020604051808303815f875af1158015611664573d5f5f3e3d5ffd5b505050506040513d601f19601f820116820180604052508101906116889190614462565b6116c7576040517f08c379a00000000000000000000000000000000000000000000000000000000081526004016116be90614dfb565b60405180910390fd5b50505050505050565b5f5f9054906101000a900473ffffffffffffffffffffffffffffffffffffffff1681565b5f5f82036117045782905061171e565b81836117109190614e19565b8361171b9190614069565b90505b92915050565b5f6001835f015160ff16036117525761174b83604001518460200151856080015185611b67565b90506117ac565b6002835f015160ff16036117715761176a8383611def565b90506117ac565b6040517f08c379a00000000000000000000000000000000000000000000000000000000081526004016117a390614e93565b60405180910390fd5b92915050565b5f60159054906101000a900460ff166119a657731820a4b7618bde71dce8cdc73aab6c95905fad2473ffffffffffffffffffffffffffffffffffffffff166329965a1d307fb281fc8c12954d22544db45de3159a39272895b169a852b314f9cc762e44c53b306040518463ffffffff1660e01b815260040161183693929190614eb1565b5f604051808303815f87803b15801561184d575f5ffd5b505af115801561185f573d5f5f3e3d5ffd5b505050503073ffffffffffffffffffffffffffffffffffffffff16731820a4b7618bde71dce8cdc73aab6c95905fad2473ffffffffffffffffffffffffffffffffffffffff1663aabbb8ca307fb281fc8c12954d22544db45de3159a39272895b169a852b314f9cc762e44c53b6040518363ffffffff1660e01b81526004016118e9929190614ee6565b602060405180830381865afa158015611904573d5f5f3e3d5ffd5b505050506040513d601f19601f820116820180604052508101906119289190614f21565b73ffffffffffffffffffffffffffffffffffffffff16145f60156101000a81548160ff0219169083151502179055505f60159054906101000a900460ff166119a5576040517f08c379a000000000000000000000000000000000000000000000000000000000815260040161199c90614f96565b60405180910390fd5b5b565b6119b061387c565b6119b86138e7565b5f6119c282611f3c565b90505f604051806101800160405280600181526020016002815260200160038152602001600481526020016005815260200160078152602001600a8152602001600f815260200160148152602001601e815260200160288152602001603281525090505f5f90505b82811015611b60575f848260108110611a4657611a45614fb4565b5b6020020151905073c02aaa39b223fe8d0a0e5c4f27ead9083c756cc273ffffffffffffffffffffffffffffffffffffffff16816020015173ffffffffffffffffffffffffffffffffffffffff1614611a9e5750611b55565b5f5f90505b600c811015611b52575f6103e88583600c8110611ac357611ac2614fb4565b5b60200201518460400151611ad79190614fe1565b611ae1919061458a565b90505f611aef8260086116f4565b90505f811480611b03575083604001518110155b15611b0f575050611b47565b5f611b238286606001518760400151612447565b9050611b33858a8a85858f61253f565b9950611b418583838d61269c565b99505050505b806001019050611aa3565b50505b806001019050611a2a565b5050505090565b5f5f5f8573ffffffffffffffffffffffffffffffffffffffff16630902f1ac6040518163ffffffff1660e01b8152600401606060405180830381865afa158015611bb3573d5f5f3e3d5ffd5b505050506040513d601f19601f82011682018060405250810190611bd7919061509e565b50915091505f85611bf857816dffffffffffffffffffffffffffff16611c0a565b826dffffffffffffffffffffffffffff165b90505f86611c2857836dffffffffffffffffffffffffffff16611c3a565b826dffffffffffffffffffffffffffff165b9050611c47868383612c6b565b94508873ffffffffffffffffffffffffffffffffffffffff1663a9059cbb89886040518363ffffffff1660e01b8152600401611c84929190614427565b6020604051808303815f875af1158015611ca0573d5f5f3e3d5ffd5b505050506040513d601f19601f82011682018060405250810190611cc49190614462565b611d03576040517f08c379a0000000000000000000000000000000000000000000000000000000008152600401611cfa90615138565b60405180910390fd5b8615611d78578773ffffffffffffffffffffffffffffffffffffffff1663022c0d9f5f87306040518463ffffffff1660e01b8152600401611d4693929190615179565b5f604051808303815f87803b158015611d5d575f5ffd5b505af1158015611d6f573d5f5f3e3d5ffd5b50505050611de3565b8773ffffffffffffffffffffffffffffffffffffffff1663022c0d9f865f306040518463ffffffff1660e01b8152600401611db5939291906151c1565b5f604051808303815f87803b158015611dcc575f5ffd5b505af1158015611dde573d5f5f3e3d5ffd5b505050505b50505050949350505050565b5f5f8203611e32576040517f08c379a0000000000000000000000000000000000000000000000000000000008152600401611e2990615253565b60405180910390fd5b5f836080015190505f5f856020015173ffffffffffffffffffffffffffffffffffffffff1663128acb0830858887611e7e5773fffd8963efd1fc6a506488495d951d5263988d25611e85565b6401000276a45b8b602001518c60400151604051602001611ea0929190615271565b6040516020818303038152906040526040518663ffffffff1660e01b8152600401611ecf9594939291906152b6565b60408051808303815f875af1158015611eea573d5f5f3e3d5ffd5b505050506040513d601f19601f82011682018060405250810190611f0e9190615322565b9150915082611f265781611f2190615360565b611f31565b80611f3090615360565b5b935050505092915050565b5f5f6040518060400160405280735c69bee701ef814a2b6a3edd4b1652cb9cc5aa6f73ffffffffffffffffffffffffffffffffffffffff1673ffffffffffffffffffffffffffffffffffffffff16815260200173c0aee478e3658e2610c5f7a4a2e1777ce9e4f2ac73ffffffffffffffffffffffffffffffffffffffff1673ffffffffffffffffffffffffffffffffffffffff1681525090505f60405180610100016040528073c02aaa39b223fe8d0a0e5c4f27ead9083c756cc273ffffffffffffffffffffffffffffffffffffffff1673ffffffffffffffffffffffffffffffffffffffff16815260200173a0b86991c6218b36c1d19d4a2e9eb0ce3606eb4873ffffffffffffffffffffffffffffffffffffffff1673ffffffffffffffffffffffffffffffffffffffff16815260200173dac17f958d2ee523a2206206994597c13d831ec773ffffffffffffffffffffffffffffffffffffffff1673ffffffffffffffffffffffffffffffffffffffff168152602001736b175474e89094c44da98b954eedeac495271d0f73ffffffffffffffffffffffffffffffffffffffff1673ffffffffffffffffffffffffffffffffffffffff168152602001732260fac5e5542a773aa44fbcfedf7c193bc2c59973ffffffffffffffffffffffffffffffffffffffff1673ffffffffffffffffffffffffffffffffffffffff16815260200173853d955acef822db058eb8505911ed77f175b99e73ffffffffffffffffffffffffffffffffffffffff1673ffffffffffffffffffffffffffffffffffffffff16815260200173956f47f50a910163d8bf957cf5846d573e7f87ca73ffffffffffffffffffffffffffffffffffffffff1673ffffffffffffffffffffffffffffffffffffffff1681526020017399d8a9c45b2ecb0bbe1a173e4797cda5f8997aeb73ffffffffffffffffffffffffffffffffffffffff1673ffffffffffffffffffffffffffffffffffffffff1681525090505f5f90505b600281101561243f575f5f90505b6008811015612433575f83826008811061224257612241614fb4565b5b602002015190505f85846002811061225d5761225c614fb4565b5b602002015173ffffffffffffffffffffffffffffffffffffffff1663e6a43905732321537fd8ef4644bacdceec54e5f35bf44311fa846040518363ffffffff1660e01b81526004016122b0929190615271565b602060405180830381865afa1580156122cb573d5f5f3e3d5ffd5b505050506040513d601f19601f820116820180604052508101906122ef9190614f21565b90505f73ffffffffffffffffffffffffffffffffffffffff168173ffffffffffffffffffffffffffffffffffffffff16148061234157505f8173ffffffffffffffffffffffffffffffffffffffff163b145b806123535750612352888883612d51565b5b1561235f575050612428565b5f5f5f61238184732321537fd8ef4644bacdceec54e5f35bf44311fa87612dcd565b9250925092505f83148061239457505f82145b156123a3575050505050612428565b6040518060a001604052808573ffffffffffffffffffffffffffffffffffffffff1681526020018673ffffffffffffffffffffffffffffffffffffffff1681526020018481526020018381526020018215158152508b8b6010811061240b5761240a614fb4565b5b602002018190525060018a6124209190613ff7565b995050505050505b806001019050612225565b50806001019050612217565b505050919050565b5f5f840361248a576040517f08c379a0000000000000000000000000000000000000000000000000000000008152600401612481906153f0565b60405180910390fd5b5f831415801561249a57505f8214155b80156124a557508184105b6124e4576040517f08c379a00000000000000000000000000000000000000000000000000000000081526004016124db90615458565b60405180910390fd5b5f6103e885856124f49190614fe1565b6124fe9190614fe1565b90505f6103e586856125109190614069565b61251a9190614fe1565b90506001818361252a919061458a565b6125349190613ff7565b925050509392505050565b61254761387c565b5f5f90505b8581101561268e575f87826010811061256857612567614fb4565b5b60200201519050885f015173ffffffffffffffffffffffffffffffffffffffff16815f015173ffffffffffffffffffffffffffffffffffffffff16036125ae5750612683565b5f6125c28783604001518460600151612c6b565b90505f61266a8b89896040518060c00160405280600160ff168152602001885f015173ffffffffffffffffffffffffffffffffffffffff168152602001732321537fd8ef4644bacdceec54e5f35bf44311fa73ffffffffffffffffffffffffffffffffffffffff168152602001886020015173ffffffffffffffffffffffffffffffffffffffff1681526020018860800151151581526020015f62ffffff1681525086613076565b90506126768187613192565b1561267f578095505b5050505b80600101905061254c565b508190509695505050505050565b6126a461387c565b5f60405180610100016040528073c02aaa39b223fe8d0a0e5c4f27ead9083c756cc273ffffffffffffffffffffffffffffffffffffffff1673ffffffffffffffffffffffffffffffffffffffff16815260200173a0b86991c6218b36c1d19d4a2e9eb0ce3606eb4873ffffffffffffffffffffffffffffffffffffffff1673ffffffffffffffffffffffffffffffffffffffff16815260200173dac17f958d2ee523a2206206994597c13d831ec773ffffffffffffffffffffffffffffffffffffffff1673ffffffffffffffffffffffffffffffffffffffff168152602001736b175474e89094c44da98b954eedeac495271d0f73ffffffffffffffffffffffffffffffffffffffff1673ffffffffffffffffffffffffffffffffffffffff168152602001732260fac5e5542a773aa44fbcfedf7c193bc2c59973ffffffffffffffffffffffffffffffffffffffff1673ffffffffffffffffffffffffffffffffffffffff16815260200173853d955acef822db058eb8505911ed77f175b99e73ffffffffffffffffffffffffffffffffffffffff1673ffffffffffffffffffffffffffffffffffffffff16815260200173956f47f50a910163d8bf957cf5846d573e7f87ca73ffffffffffffffffffffffffffffffffffffffff1673ffffffffffffffffffffffffffffffffffffffff1681526020017399d8a9c45b2ecb0bbe1a173e4797cda5f8997aeb73ffffffffffffffffffffffffffffffffffffffff1673ffffffffffffffffffffffffffffffffffffffff1681525090505f6040518060800160405280606462ffffff1662ffffff1681526020016101f462ffffff168152602001610bb862ffffff16815260200161271062ffffff1681525090505f5f90505b6008811015612c5d575f83826008811061294757612946614fb4565b5b602002015190505f5f90505b6004811015612c50575f731f98431c8ad98523631ae4a59f267346ea31f98473ffffffffffffffffffffffffffffffffffffffff16631698ee82732321537fd8ef4644bacdceec54e5f35bf44311fa858886600481106129b6576129b5614fb4565b5b60200201516040518463ffffffff1660e01b81526004016129d993929190615485565b602060405180830381865afa1580156129f4573d5f5f3e3d5ffd5b505050506040513d601f19601f82011682018060405250810190612a189190614f21565b90505f73ffffffffffffffffffffffffffffffffffffffff168173ffffffffffffffffffffffffffffffffffffffff161480612a6a57505f8173ffffffffffffffffffffffffffffffffffffffff163b145b15612a755750612c45565b5f5f612aae732321537fd8ef4644bacdceec54e5f35bf44311fa86898760048110612aa357612aa2614fb4565b5b60200201518f6131ea565b91509150801580612abe57505f82145b15612acb57505050612c45565b5f612c2b8e8e8e6040518060c00160405280600260ff1681526020018973ffffffffffffffffffffffffffffffffffffffff168152602001732321537fd8ef4644bacdceec54e5f35bf44311fa73ffffffffffffffffffffffffffffffffffffffff1681526020018b73ffffffffffffffffffffffffffffffffffffffff168152602001732321537fd8ef4644bacdceec54e5f35bf44311fa73ffffffffffffffffffffffffffffffffffffffff168a73ffffffffffffffffffffffffffffffffffffffff16630dfe16816040518163ffffffff1660e01b8152600401602060405180830381865afa158015612bc3573d5f5f3e3d5ffd5b505050506040513d601f19601f82011682018060405250810190612be79190614f21565b73ffffffffffffffffffffffffffffffffffffffff1614151581526020018d8b60048110612c1857612c17614fb4565b5b602002015162ffffff1681525087613076565b9050612c37818c613192565b15612c4057809a505b505050505b806001019050612953565b505080600101905061292a565b508392505050949350505050565b5f5f8403612cae576040517f08c379a0000000000000000000000000000000000000000000000000000000008152600401612ca590615504565b60405180910390fd5b5f8314158015612cbe57505f8214155b612cfd576040517f08c379a0000000000000000000000000000000000000000000000000000000008152600401612cf490615458565b60405180910390fd5b5f6103e585612d0c9190614fe1565b90505f8382612d1b9190614fe1565b90505f826103e887612d2d9190614fe1565b612d379190613ff7565b90508082612d45919061458a565b93505050509392505050565b5f5f5f90505b83811015612dc1578273ffffffffffffffffffffffffffffffffffffffff16858260108110612d8957612d88614fb4565b5b60200201515f015173ffffffffffffffffffffffffffffffffffffffff1603612db6576001915050612dc6565b806001019050612d57565b505f90505b9392505050565b5f5f5f5f8673ffffffffffffffffffffffffffffffffffffffff16630dfe16816040518163ffffffff1660e01b8152600401602060405180830381865afa158015612e1a573d5f5f3e3d5ffd5b505050506040513d601f19601f82011682018060405250810190612e3e9190614f21565b90505f8773ffffffffffffffffffffffffffffffffffffffff1663d21220a76040518163ffffffff1660e01b8152600401602060405180830381865afa158015612e8a573d5f5f3e3d5ffd5b505050506040513d601f19601f82011682018060405250810190612eae9190614f21565b90505f5f8973ffffffffffffffffffffffffffffffffffffffff16630902f1ac6040518163ffffffff1660e01b8152600401606060405180830381865afa158015612efb573d5f5f3e3d5ffd5b505050506040513d601f19601f82011682018060405250810190612f1f919061509e565b50915091508873ffffffffffffffffffffffffffffffffffffffff168473ffffffffffffffffffffffffffffffffffffffff16148015612f8a57508773ffffffffffffffffffffffffffffffffffffffff168373ffffffffffffffffffffffffffffffffffffffff16145b15612fc257816dffffffffffffffffffffffffffff16816dffffffffffffffffffffffffffff1660019650965096505050505061306d565b8873ffffffffffffffffffffffffffffffffffffffff168373ffffffffffffffffffffffffffffffffffffffff1614801561302857508773ffffffffffffffffffffffffffffffffffffffff168473ffffffffffffffffffffffffffffffffffffffff16145b1561305f57806dffffffffffffffffffffffffffff16826dffffffffffffffffffffffffffff165f9650965096505050505061306d565b5f5f5f965096509650505050505b93509350939050565b61307e61387c565b5f820315613189575f829050613092613915565b73c02aaa39b223fe8d0a0e5c4f27ead9083c756cc273ffffffffffffffffffffffffffffffffffffffff16856060015173ffffffffffffffffffffffffffffffffffffffff1614613113576130eb85606001518561329f565b80935081925050505f815f015160ff16148061310657505f82145b15613112575050613189565b5b858211613121575050613189565b604051806101200160405280895f015173ffffffffffffffffffffffffffffffffffffffff1681526020018881526020018781526020018381526020018960800151151581526020016008815260200186815260200182815260200160011515815250925050505b95945050505050565b5f8261010001516131a5575f90506131e4565b8161010001516131b857600190506131e4565b816040015182606001516131cc9190614069565b836040015184606001516131e09190614069565b1190505b92915050565b5f5f73b27308f9f90d607463bb33ea1bebb41c27ce5ab673ffffffffffffffffffffffffffffffffffffffff1663f7729d43878787875f6040518663ffffffff1660e01b8152600401613241959493929190615552565b6020604051808303815f875af192505050801561327c57506040513d601f19601f82011682018060405250810190613279919061403e565b60015b61328b575f5f91509150613296565b805f82141592509250505b94509492505050565b6132a7613915565b5f5f6040518060400160405280735c69bee701ef814a2b6a3edd4b1652cb9cc5aa6f73ffffffffffffffffffffffffffffffffffffffff1673ffffffffffffffffffffffffffffffffffffffff16815260200173c0aee478e3658e2610c5f7a4a2e1777ce9e4f2ac73ffffffffffffffffffffffffffffffffffffffff1673ffffffffffffffffffffffffffffffffffffffff1681525090505f6040518060800160405280606462ffffff1662ffffff1681526020016101f462ffffff168152602001610bb862ffffff16815260200161271062ffffff1681525090505f5f90505b6002811015613593575f8382600281106133a6576133a5614fb4565b5b602002015173ffffffffffffffffffffffffffffffffffffffff1663e6a439058973c02aaa39b223fe8d0a0e5c4f27ead9083c756cc26040518363ffffffff1660e01b81526004016133f9929190615271565b602060405180830381865afa158015613414573d5f5f3e3d5ffd5b505050506040513d601f19601f820116820180604052508101906134389190614f21565b90505f73ffffffffffffffffffffffffffffffffffffffff168173ffffffffffffffffffffffffffffffffffffffff16148061348a57505f8173ffffffffffffffffffffffffffffffffffffffff163b145b156134955750613588565b5f5f5f6134b7848c73c02aaa39b223fe8d0a0e5c4f27ead9083c756cc2612dcd565b9250925092505f8314806134ca57505f82145b156134d85750505050613588565b5f6134e48b8585612c6b565b905088811115613582578098506040518060c00160405280600160ff1681526020018673ffffffffffffffffffffffffffffffffffffffff1681526020018d73ffffffffffffffffffffffffffffffffffffffff16815260200173c02aaa39b223fe8d0a0e5c4f27ead9083c756cc273ffffffffffffffffffffffffffffffffffffffff16815260200183151581526020015f62ffffff1681525099505b50505050505b806001019050613389565b505f5f90505b6004811015613865575f731f98431c8ad98523631ae4a59f267346ea31f98473ffffffffffffffffffffffffffffffffffffffff16631698ee828973c02aaa39b223fe8d0a0e5c4f27ead9083c756cc28686600481106135fc576135fb614fb4565b5b60200201516040518463ffffffff1660e01b815260040161361f93929190615485565b602060405180830381865afa15801561363a573d5f5f3e3d5ffd5b505050506040513d601f19601f8201168201806040525081019061365e9190614f21565b90505f73ffffffffffffffffffffffffffffffffffffffff168173ffffffffffffffffffffffffffffffffffffffff1614806136b057505f8173ffffffffffffffffffffffffffffffffffffffff163b145b156136bb575061385a565b5f5f6136f48a73c02aaa39b223fe8d0a0e5c4f27ead9083c756cc28787600481106136e9576136e8614fb4565b5b60200201518c6131ea565b915091508015806137055750868211155b156137125750505061385a565b8196506040518060c00160405280600260ff1681526020018473ffffffffffffffffffffffffffffffffffffffff1681526020018b73ffffffffffffffffffffffffffffffffffffffff16815260200173c02aaa39b223fe8d0a0e5c4f27ead9083c756cc273ffffffffffffffffffffffffffffffffffffffff1681526020018b73ffffffffffffffffffffffffffffffffffffffff168573ffffffffffffffffffffffffffffffffffffffff16630dfe16816040518163ffffffff1660e01b8152600401602060405180830381865afa1580156137f2573d5f5f3e3d5ffd5b505050506040513d601f19601f820116820180604052508101906138169190614f21565b73ffffffffffffffffffffffffffffffffffffffff16141515815260200186866004811061384757613846614fb4565b5b602002015162ffffff1681525097505050505b806001019050613599565b5050509250929050565b610c8a806155a483390190565b6040518061012001604052805f73ffffffffffffffffffffffffffffffffffffffff1681526020015f81526020015f81526020015f81526020015f151581526020015f81526020016138cc613915565b81526020016138d9613915565b81526020015f151581525090565b6040518061020001604052806010905b6138ff613991565b8152602001906001900390816138f75790505090565b6040518060c001604052805f60ff1681526020015f73ffffffffffffffffffffffffffffffffffffffff1681526020015f73ffffffffffffffffffffffffffffffffffffffff1681526020015f73ffffffffffffffffffffffffffffffffffffffff1681526020015f151581526020015f62ffffff1681525090565b6040518060a001604052805f73ffffffffffffffffffffffffffffffffffffffff1681526020015f73ffffffffffffffffffffffffffffffffffffffff1681526020015f81526020015f81526020015f151581525090565b5f604051905090565b5f5ffd5b5f5ffd5b5f73ffffffffffffffffffffffffffffffffffffffff82169050919050565b5f613a23826139fa565b9050919050565b613a3381613a19565b8114613a3d575f5ffd5b50565b5f81359050613a4e81613a2a565b92915050565b5f819050919050565b613a6681613a54565b8114613a70575f5ffd5b50565b5f81359050613a8181613a5d565b92915050565b5f5ffd5b5f5ffd5b5f5ffd5b5f5f83601f840112613aa857613aa7613a87565b5b8235905067ffffffffffffffff811115613ac557613ac4613a8b565b5b602083019150836001820283011115613ae157613ae0613a8f565b5b9250929050565b5f5f5f5f5f5f5f5f60c0898b031215613b0457613b036139f2565b5b5f613b118b828c01613a40565b9850506020613b228b828c01613a40565b9750506040613b338b828c01613a40565b9650506060613b448b828c01613a73565b955050608089013567ffffffffffffffff811115613b6557613b646139f6565b5b613b718b828c01613a93565b945094505060a089013567ffffffffffffffff811115613b9457613b936139f6565b5b613ba08b828c01613a93565b92509250509295985092959890939650565b5f5f5f5f5f60808688031215613bcb57613bca6139f2565b5b5f613bd888828901613a40565b9550506020613be988828901613a73565b9450506040613bfa88828901613a73565b935050606086013567ffffffffffffffff811115613c1b57613c1a6139f6565b5b613c2788828901613a93565b92509250509295509295909350565b613c3f81613a54565b82525050565b5f602082019050613c585f830184613c36565b92915050565b5f81519050919050565b5f82825260208201905092915050565b8281835e5f83830152505050565b5f601f19601f8301169050919050565b5f613ca082613c5e565b613caa8185613c68565b9350613cba818560208601613c78565b613cc381613c86565b840191505092915050565b5f6020820190508181035f830152613ce68184613c96565b905092915050565b5f819050919050565b613d0081613cee565b8114613d0a575f5ffd5b50565b5f81359050613d1b81613cf7565b92915050565b5f5f60408385031215613d3757613d366139f2565b5b5f613d4485828601613d0d565b9250506020613d5585828601613a40565b9150509250929050565b613d6881613cee565b82525050565b5f602082019050613d815f830184613d5f565b92915050565b5f8115159050919050565b613d9b81613d87565b82525050565b5f602082019050613db45f830184613d92565b92915050565b613dc381613a19565b82525050565b5f602082019050613ddc5f830184613dba565b92915050565b5f819050919050565b613df481613de2565b8114613dfe575f5ffd5b50565b5f81359050613e0f81613deb565b92915050565b5f5f5f5f60608587031215613e2d57613e2c6139f2565b5b5f613e3a87828801613e01565b9450506020613e4b87828801613e01565b935050604085013567ffffffffffffffff811115613e6c57613e6b6139f6565b5b613e7887828801613a93565b925092505092959194509250565b5f819050919050565b5f613ea9613ea4613e9f846139fa565b613e86565b6139fa565b9050919050565b5f613eba82613e8f565b9050919050565b5f613ecb82613eb0565b9050919050565b613edb81613ec1565b82525050565b5f602082019050613ef45f830184613ed2565b92915050565b7f756e657870656374656420746f6b656e000000000000000000000000000000005f82015250565b5f613f2e601083613c68565b9150613f3982613efa565b602082019050919050565b5f6020820190508181035f830152613f5b81613f22565b9050919050565b7f756e657870656374656420726563697069656e740000000000000000000000005f82015250565b5f613f96601483613c68565b9150613fa182613f62565b602082019050919050565b5f6020820190508181035f830152613fc381613f8a565b9050919050565b7f4e487b71000000000000000000000000000000000000000000000000000000005f52601160045260245ffd5b5f61400182613a54565b915061400c83613a54565b925082820190508082111561402457614023613fca565b5b92915050565b5f8151905061403881613a5d565b92915050565b5f60208284031215614053576140526139f2565b5b5f6140608482850161402a565b91505092915050565b5f61407382613a54565b915061407e83613a54565b925082820390508181111561409657614095613fca565b5b92915050565b5f5ffd5b7f4e487b71000000000000000000000000000000000000000000000000000000005f52604160045260245ffd5b6140d682613c86565b810181811067ffffffffffffffff821117156140f5576140f46140a0565b5b80604052505050565b5f6141076139e9565b905061411382826140cd565b919050565b61412181613d87565b811461412b575f5ffd5b50565b5f8135905061413c81614118565b92915050565b5f60ff82169050919050565b61415781614142565b8114614161575f5ffd5b50565b5f813590506141728161414e565b92915050565b5f62ffffff82169050919050565b61418f81614178565b8114614199575f5ffd5b50565b5f813590506141aa81614186565b92915050565b5f60c082840312156141c5576141c461409c565b5b6141cf60c06140fe565b90505f6141de84828501614164565b5f8301525060206141f184828501613a40565b602083015250604061420584828501613a40565b604083015250606061421984828501613a40565b606083015250608061422d8482850161412e565b60808301525060a06142418482850161419c565b60a08301525092915050565b5f61026082840312156142635761426261409c565b5b61426e6101206140fe565b90505f61427d84828501613a40565b5f83015250602061429084828501613a73565b60208301525060406142a484828501613a73565b60408301525060606142b884828501613a73565b60608301525060806142cc8482850161412e565b60808301525060a06142e084828501613a73565b60a08301525060c06142f4848285016141b0565b60c083015250610180614309848285016141b0565b60e08301525061024061431e8482850161412e565b6101008301525092915050565b5f6102608284031215614341576143406139f2565b5b5f61434e8482850161424d565b91505092915050565b7f756e6578706563746564207061697200000000000000000000000000000000005f82015250565b5f61438b600f83613c68565b915061439682614357565b602082019050919050565b5f6020820190508181035f8301526143b88161437f565b9050919050565b7f756e657870656374656420616d6f756e740000000000000000000000000000005f82015250565b5f6143f3601183613c68565b91506143fe826143bf565b602082019050919050565b5f6020820190508181035f830152614420816143e7565b9050919050565b5f60408201905061443a5f830185613dba565b6144476020830184613c36565b9392505050565b5f8151905061445c81614118565b92915050565b5f60208284031215614477576144766139f2565b5b5f6144848482850161444e565b91505092915050565b7f617070726f7665206661696c65640000000000000000000000000000000000005f82015250565b5f6144c1600e83613c68565b91506144cc8261448d565b602082019050919050565b5f6020820190508181035f8301526144ee816144b5565b9050919050565b7f626f72726f7720746f6f20736d616c6c000000000000000000000000000000005f82015250565b5f614529601083613c68565b9150614534826144f5565b602082019050919050565b5f6020820190508181035f8301526145568161451d565b9050919050565b7f4e487b71000000000000000000000000000000000000000000000000000000005f52601260045260245ffd5b5f61459482613a54565b915061459f83613a54565b9250826145af576145ae61455d565b5b828204905092915050565b7f6e6f6f64206e6f74207265636f766572656400000000000000000000000000005f82015250565b5f6145ee601283613c68565b91506145f9826145ba565b602082019050919050565b5f6020820190508181035f83015261461b816145e2565b9050919050565b7f726f7574652062656c6f772072657061790000000000000000000000000000005f82015250565b5f614656601183613c68565b915061466182614622565b602082019050919050565b5f6020820190508181035f8301526146838161464a565b9050919050565b7f7265706179207472616e73666572206661696c656400000000000000000000005f82015250565b5f6146be601583613c68565b91506146c98261468a565b602082019050919050565b5f6020820190508181035f8301526146eb816146b2565b9050919050565b7f4e487b71000000000000000000000000000000000000000000000000000000005f52602260045260245ffd5b5f600282049050600182168061473657607f821691505b602082108103614749576147486146f2565b5b50919050565b5f819050815f5260205f209050919050565b5f6020601f8301049050919050565b5f82821b905092915050565b5f600883026147ab7fffffffffffffffffffffffffffffffffffffffffffffffffffffffffffffffff82614770565b6147b58683614770565b95508019841693508086168417925050509392505050565b5f6147e76147e26147dd84613a54565b613e86565b613a54565b9050919050565b5f819050919050565b614800836147cd565b61481461480c826147ee565b84845461477c565b825550505050565b5f5f905090565b61482b61481c565b6148368184846147f7565b505050565b5b818110156148595761484e5f82614823565b60018101905061483c565b5050565b601f82111561489e5761486f8161474f565b61487884614761565b81016020851015614887578190505b61489b61489385614761565b83018261483b565b50505b505050565b5f82821c905092915050565b5f6148be5f19846008026148a3565b1980831691505092915050565b5f6148d683836148af565b9150826002028217905092915050565b6148ef82613c5e565b67ffffffffffffffff811115614908576149076140a0565b5b614912825461471f565b61491d82828561485d565b5f60209050601f83116001811461494e575f841561493c578287015190505b61494685826148cb565b8655506149ad565b601f19841661495c8661474f565b5f5b828110156149835784890151825560018201915060208501945060208101905061495e565b868310156149a0578489015161499c601f8916826148af565b8355505b6001600288020188555050505b505050505050565b6149be81613a19565b82525050565b6149cd81613a54565b82525050565b6149dc81613d87565b82525050565b6149eb81614142565b82525050565b6149fa81614178565b82525050565b60c082015f820151614a145f8501826149e2565b506020820151614a2760208501826149b5565b506040820151614a3a60408501826149b5565b506060820151614a4d60608501826149b5565b506080820151614a6060808501826149d3565b5060a0820151614a7360a08501826149f1565b50505050565b61026082015f820151614a8e5f8501826149b5565b506020820151614aa160208501826149c4565b506040820151614ab460408501826149c4565b506060820151614ac760608501826149c4565b506080820151614ada60808501826149d3565b5060a0820151614aed60a08501826149c4565b5060c0820151614b0060c0850182614a00565b5060e0820151614b14610180850182614a00565b50610100820151614b296102408501826149d3565b50505050565b5f61026082019050614b435f830184614a79565b92915050565b5f819050919050565b5f614b6c614b67614b6284614b49565b613e86565b613a54565b9050919050565b614b7c81614b52565b82525050565b5f81519050919050565b5f82825260208201905092915050565b5f614ba682614b82565b614bb08185614b8c565b9350614bc0818560208601613c78565b614bc981613c86565b840191505092915050565b5f608082019050614be75f830187613c36565b614bf46020830186614b73565b614c016040830185613dba565b8181036060830152614c138184614b9c565b905095945050505050565b5f608082019050614c315f830187614b73565b614c3e6020830186613c36565b614c4b6040830185613dba565b8181036060830152614c5d8184614b9c565b905095945050505050565b5f614c72826139fa565b9050919050565b614c8281614c68565b8114614c8c575f5ffd5b50565b5f81359050614c9d81614c79565b92915050565b5f5f60408385031215614cb957614cb86139f2565b5b5f614cc685828601614c8f565b9250506020614cd785828601614c8f565b9150509250929050565b7f756e657870656374656420763320706f6f6c00000000000000000000000000005f82015250565b5f614d15601283613c68565b9150614d2082614ce1565b602082019050919050565b5f6020820190508181035f830152614d4281614d09565b9050919050565b7f6e6f207633207061796d656e74000000000000000000000000000000000000005f82015250565b5f614d7d600d83613c68565b9150614d8882614d49565b602082019050919050565b5f6020820190508181035f830152614daa81614d71565b9050919050565b7f763320706179206661696c6564000000000000000000000000000000000000005f82015250565b5f614de5600d83613c68565b9150614df082614db1565b602082019050919050565b5f6020820190508181035f830152614e1281614dd9565b9050919050565b5f614e2382613a54565b9150614e2e83613a54565b925082614e3e57614e3d61455d565b5b828206905092915050565b7f756e737570706f7274656420686f7000000000000000000000000000000000005f82015250565b5f614e7d600f83613c68565b9150614e8882614e49565b602082019050919050565b5f6020820190508181035f830152614eaa81614e71565b9050919050565b5f606082019050614ec45f830186613dba565b614ed16020830185613d5f565b614ede6040830184613dba565b949350505050565b5f604082019050614ef95f830185613dba565b614f066020830184613d5f565b9392505050565b5f81519050614f1b81613a2a565b92915050565b5f60208284031215614f3657614f356139f2565b5b5f614f4384828501614f0d565b91505092915050565b7f686f6f6b20726567697374726174696f6e206661696c656400000000000000005f82015250565b5f614f80601883613c68565b9150614f8b82614f4c565b602082019050919050565b5f6020820190508181035f830152614fad81614f74565b9050919050565b7f4e487b71000000000000000000000000000000000000000000000000000000005f52603260045260245ffd5b5f614feb82613a54565b9150614ff683613a54565b925082820261500481613a54565b9150828204841483151761501b5761501a613fca565b5b5092915050565b5f6dffffffffffffffffffffffffffff82169050919050565b61504481615022565b811461504e575f5ffd5b50565b5f8151905061505f8161503b565b92915050565b5f63ffffffff82169050919050565b61507d81615065565b8114615087575f5ffd5b50565b5f8151905061509881615074565b92915050565b5f5f5f606084860312156150b5576150b46139f2565b5b5f6150c286828701615051565b93505060206150d386828701615051565b92505060406150e48682870161508a565b9150509250925092565b7f73776170207472616e73666572206661696c65640000000000000000000000005f82015250565b5f615122601483613c68565b915061512d826150ee565b602082019050919050565b5f6020820190508181035f83015261514f81615116565b9050919050565b50565b5f6151645f83614b8c565b915061516f82615156565b5f82019050919050565b5f60808201905061518c5f830186614b73565b6151996020830185613c36565b6151a66040830184613dba565b81810360608301526151b781615159565b9050949350505050565b5f6080820190506151d45f830186613c36565b6151e16020830185614b73565b6151ee6040830184613dba565b81810360608301526151ff81615159565b9050949350505050565b7f763320696e7075743d30000000000000000000000000000000000000000000005f82015250565b5f61523d600a83613c68565b915061524882615209565b602082019050919050565b5f6020820190508181035f83015261526a81615231565b9050919050565b5f6040820190506152845f830185613dba565b6152916020830184613dba565b9392505050565b6152a181613de2565b82525050565b6152b0816139fa565b82525050565b5f60a0820190506152c95f830188613dba565b6152d66020830187613d92565b6152e36040830186615298565b6152f060608301856152a7565b81810360808301526153028184614b9c565b90509695505050505050565b5f8151905061531c81613deb565b92915050565b5f5f60408385031215615338576153376139f2565b5b5f6153458582860161530e565b92505060206153568582860161530e565b9150509250929050565b5f61536a82613de2565b91507f8000000000000000000000000000000000000000000000000000000000000000820361539c5761539b613fca565b5b815f039050919050565b7f696e73756666696369656e74206f7574707574000000000000000000000000005f82015250565b5f6153da601383613c68565b91506153e5826153a6565b602082019050919050565b5f6020820190508181035f830152615407816153ce565b9050919050565b7f696e73756666696369656e74206c6971756964697479000000000000000000005f82015250565b5f615442601683613c68565b915061544d8261540e565b602082019050919050565b5f6020820190508181035f83015261546f81615436565b9050919050565b61547f81614178565b82525050565b5f6060820190506154985f830186613dba565b6154a56020830185613dba565b6154b26040830184615476565b949350505050565b7f696e73756666696369656e7420696e70757400000000000000000000000000005f82015250565b5f6154ee601283613c68565b91506154f9826154ba565b602082019050919050565b5f6020820190508181035f83015261551b816154e2565b9050919050565b5f61553c61553761553284614b49565b613e86565b6139fa565b9050919050565b61554c81615522565b82525050565b5f60a0820190506155655f830188613dba565b6155726020830187613dba565b61557f6040830186615476565b61558c6060830185613c36565b6155996080830184615543565b969550505050505056fe60a060405234801561000f575f5ffd5b50604051610c8a380380610c8a833981810160405281019061003191906100c9565b8073ffffffffffffffffffffffffffffffffffffffff1660808173ffffffffffffffffffffffffffffffffffffffff1681525050506100f4565b5f5ffd5b5f73ffffffffffffffffffffffffffffffffffffffff82169050919050565b5f6100988261006f565b9050919050565b6100a88161008e565b81146100b2575f5ffd5b50565b5f815190506100c38161009f565b92915050565b5f602082840312156100de576100dd61006b565b5b5f6100eb848285016100b5565b91505092915050565b608051610b696101215f395f8181610180015281816102ec0152818161041e01526105110152610b695ff3fe608060405234801561000f575f5ffd5b5060043610610055575f3560e01c80632e1a7d4d14610059578063b6b55f2514610075578063b7ec1a3314610091578063ce7c2ac2146100af578063f14faf6f146100df575b5f5ffd5b610073600480360381019061006e9190610625565b6100fb565b005b61008f600480360381019061008a9190610625565b6102a8565b005b61009961041b565b6040516100a6919061065f565b60405180910390f35b6100c960048036038101906100c491906106d2565b6104b9565b6040516100d6919061065f565b60405180910390f35b6100f960048036038101906100f49190610625565b6104cd565b005b5f5f5f3373ffffffffffffffffffffffffffffffffffffffff1673ffffffffffffffffffffffffffffffffffffffff1681526020019081526020015f205490508181101561017e576040517f08c379a000000000000000000000000000000000000000000000000000000000815260040161017590610757565b60405180910390fd5b7f000000000000000000000000000000000000000000000000000000000000000073ffffffffffffffffffffffffffffffffffffffff1663a9059cbb33846040518363ffffffff1660e01b81526004016101d9929190610784565b6020604051808303815f875af11580156101f5573d5f5f3e3d5ffd5b505050506040513d601f19601f8201168201806040525081019061021991906107e0565b610258576040517f08c379a000000000000000000000000000000000000000000000000000000000815260040161024f90610855565b60405180910390fd5b818161026491906108a0565b5f5f3373ffffffffffffffffffffffffffffffffffffffff1673ffffffffffffffffffffffffffffffffffffffff1681526020019081526020015f20819055505050565b5f81036102ea576040517f08c379a00000000000000000000000000000000000000000000000000000000081526004016102e19061091d565b60405180910390fd5b7f000000000000000000000000000000000000000000000000000000000000000073ffffffffffffffffffffffffffffffffffffffff166323b872dd3330846040518463ffffffff1660e01b81526004016103479392919061093b565b6020604051808303815f875af1158015610363573d5f5f3e3d5ffd5b505050506040513d601f19601f8201168201806040525081019061038791906107e0565b6103c6576040517f08c379a00000000000000000000000000000000000000000000000000000000081526004016103bd906109ba565b60405180910390fd5b805f5f3373ffffffffffffffffffffffffffffffffffffffff1673ffffffffffffffffffffffffffffffffffffffff1681526020019081526020015f205f82825461041191906109d8565b9250508190555050565b5f7f000000000000000000000000000000000000000000000000000000000000000073ffffffffffffffffffffffffffffffffffffffff166370a08231306040518263ffffffff1660e01b81526004016104759190610a0b565b602060405180830381865afa158015610490573d5f5f3e3d5ffd5b505050506040513d601f19601f820116820180604052508101906104b49190610a38565b905090565b5f602052805f5260405f205f915090505481565b5f810361050f576040517f08c379a000000000000000000000000000000000000000000000000000000000815260040161050690610aad565b60405180910390fd5b7f000000000000000000000000000000000000000000000000000000000000000073ffffffffffffffffffffffffffffffffffffffff166323b872dd3330846040518463ffffffff1660e01b815260040161056c9392919061093b565b6020604051808303815f875af1158015610588573d5f5f3e3d5ffd5b505050506040513d601f19601f820116820180604052508101906105ac91906107e0565b6105eb576040517f08c379a00000000000000000000000000000000000000000000000000000000081526004016105e290610b15565b60405180910390fd5b50565b5f5ffd5b5f819050919050565b610604816105f2565b811461060e575f5ffd5b50565b5f8135905061061f816105fb565b92915050565b5f6020828403121561063a576106396105ee565b5b5f61064784828501610611565b91505092915050565b610659816105f2565b82525050565b5f6020820190506106725f830184610650565b92915050565b5f73ffffffffffffffffffffffffffffffffffffffff82169050919050565b5f6106a182610678565b9050919050565b6106b181610697565b81146106bb575f5ffd5b50565b5f813590506106cc816106a8565b92915050565b5f602082840312156106e7576106e66105ee565b5b5f6106f4848285016106be565b91505092915050565b5f82825260208201905092915050565b7f696e73756666696369656e7420736861726573000000000000000000000000005f82015250565b5f6107416013836106fd565b915061074c8261070d565b602082019050919050565b5f6020820190508181035f83015261076e81610735565b9050919050565b61077e81610697565b82525050565b5f6040820190506107975f830185610775565b6107a46020830184610650565b9392505050565b5f8115159050919050565b6107bf816107ab565b81146107c9575f5ffd5b50565b5f815190506107da816107b6565b92915050565b5f602082840312156107f5576107f46105ee565b5b5f610802848285016107cc565b91505092915050565b7f7769746864726177207472616e73666572206661696c656400000000000000005f82015250565b5f61083f6018836106fd565b915061084a8261080b565b602082019050919050565b5f6020820190508181035f83015261086c81610833565b9050919050565b7f4e487b71000000000000000000000000000000000000000000000000000000005f52601160045260245ffd5b5f6108aa826105f2565b91506108b5836105f2565b92508282039050818111156108cd576108cc610873565b5b92915050565b7f6465706f7369743d3000000000000000000000000000000000000000000000005f82015250565b5f6109076009836106fd565b9150610912826108d3565b602082019050919050565b5f6020820190508181035f830152610934816108fb565b9050919050565b5f60608201905061094e5f830186610775565b61095b6020830185610775565b6109686040830184610650565b949350505050565b7f6465706f736974207472616e73666572206661696c65640000000000000000005f82015250565b5f6109a46017836106fd565b91506109af82610970565b602082019050919050565b5f6020820190508181035f8301526109d181610998565b9050919050565b5f6109e2826105f2565b91506109ed836105f2565b9250828201905080821115610a0557610a04610873565b5b92915050565b5f602082019050610a1e5f830184610775565b92915050565b5f81519050610a32816105fb565b92915050565b5f60208284031215610a4d57610a4c6105ee565b5b5f610a5a84828501610a24565b91505092915050565b7f646f6e6174653d300000000000000000000000000000000000000000000000005f82015250565b5f610a976008836106fd565b9150610aa282610a63565b602082019050919050565b5f6020820190508181035f830152610ac481610a8b565b9050919050565b7f646f6e6174696f6e207472616e73666572206661696c656400000000000000005f82015250565b5f610aff6018836106fd565b9150610b0a82610acb565b602082019050919050565b5f6020820190508181035f830152610b2c81610af3565b905091905056fea2646970667358221220f403be1d1fd2b25038c85c47d386faad4a6ab27a1aaf2c5a0d43913e35923f2264736f6c634300081e00335468652045524337373720726563697069656e742d686f6f6b207265656e7472616e637920726570726f647563656420636f72726563746c792c2062757420657665727920646973636f7665726564207075626c6963206578697420726f757465207374696c6c206661696c656420746f206c6561766520726573696475616c2057455448206166746572207265706179696e672074686520666c61736873776170706564206e3030642f5745544820736f7572636520706169722061742074686520666f726b20626c6f636b2e696e7465677261746f722075736573206e303064207472616e7366657246726f6d282920616e64206c61746572207472616e736665722829206173206966207468657920776572652063616c6c6261636b2d66726565204552433230206f7065726174696f6e733b2061747461636b65722072656769737465727320616e204552433138323020455243373737546f6b656e73526563697069656e7420686f6f6b3b2061207075626c6963206e3030642f57455448207061697220666c6173687377617020736565647320746865206c6f63616c207661756c743b20647572696e67207769746864726177206e303064207374696c6c20726f75746573207472616e736665722829207468726f75676820455243373737205f73656e64282e2e2e2c2066616c7365292c2063726564697473207468652061747461636b65722c20696e766f6b657320746f6b656e73526563656976656428292c20616e642074686520686f6f6b207265656e74657273207769746864726177206265666f726520736861726573206172652066696e616c697a65643b207265636f7665726564206e303064206973207468656e20756e776f756e64207468726f756768207468652062657374207072652d6578697374696e67207075626c6963206c697175696469747920726f75746520646973636f76657261626c652061742074686520666f726b20626c6f636b2c20696e636c7564696e6720556e697377617020763220616e6420556e69737761702076332076656e7565732c20616e642062726964676564206261636b20746f205745544820746f20736574746c652074686520666c617368737761704e6f2070726f66697461626c65207075626c696320756e77696e6420726f7574652077617320646973636f76657261626c652066726f6d20746865206c697665206e3030642f5745544820736f75726365207061697220696e746f20616e79207072652d6578697374696e67206e3030642f57455448206f72206e3030642f3c71756f74653e2076656e756520726561636861626c65207468726f75676820746865206275696c742d696e20556e697377617020763220616e6420556e697377617020763320736561726368207365742061742074686520666f726b20626c6f636b2c20736f2074686520766572696669657220636f756c64206e6f7420736574746c652074686520666c6173687377617020776974686f757420696e76656e74696e67206f66662d636f6e74657874206c69717569646974792ea2646970667358221220c075b32436314edeabfe6fc178fc92b5e23f5d21b6e43ffc8d9d20328a4257c964736f6c634300081e0033","linkReferences":{}},"methodIdentifiers":{"canImplementInterfaceForAddress(bytes32,address)":"249cb3fa","concreteInfeasibility()":"1f69f8ce","depositedAmount()":"1d01364c","donatedLiquidity()":"edc3b56e","endingBalance()":"b6fb7e46","executeOnOpportunity()":"3c2448ed","executed()":"31a38c89","exploitPathUsed()":"d78c4281","flashswapUsed()":"c9819e23","hookCallCount()":"81646075","hookObserved()":"79e64f41","hookRegistered()":"81419b42","hypothesisRefuted()":"495f92f1","hypothesisValidated()":"463defd1","profitAmount()":"5ff972cc","profitToken()":"49343624","reentered()":"3f09775e","reenteredWithdrawAmount()":"2ecfe1be","startingBalance()":"94bd2d3b","tokensReceived(address,address,address,uint256,bytes,bytes)":"0023de29","transferFromLegUsed()":"57004c5e","transferLegUsed()":"8de76e0f","uniswapV2Call(address,uint256,uint256,bytes)":"10d1e85c","uniswapV3SwapCallback(int256,int256,bytes)":"fa461e33","vault()":"fbfa77cf"},"id":1}