{"abi":[{"type":"constructor","inputs":[{"name":"token_","type":"address","internalType":"address"}],"stateMutability":"nonpayable"},{"type":"function","name":"deposit","inputs":[{"name":"amount","type":"uint256","internalType":"uint256"}],"outputs":[],"stateMutability":"nonpayable"},{"type":"function","name":"donate","inputs":[{"name":"amount","type":"uint256","internalType":"uint256"}],"outputs":[],"stateMutability":"nonpayable"},{"type":"function","name":"liquidBalance","inputs":[],"outputs":[{"name":"","type":"uint256","internalType":"uint256"}],"stateMutability":"view"},{"type":"function","name":"shares","inputs":[{"name":"","type":"address","internalType":"address"}],"outputs":[{"name":"","type":"uint256","internalType":"uint256"}],"stateMutability":"view"},{"type":"function","name":"withdraw","inputs":[{"name":"amount","type":"uint256","internalType":"uint256"}],"outputs":[],"stateMutability":"nonpayable"}],"bytecode":{"object":"0x60a060405234801561000f575f5ffd5b50604051610c8a380380610c8a833981810160405281019061003191906100c9565b8073ffffffffffffffffffffffffffffffffffffffff1660808173ffffffffffffffffffffffffffffffffffffffff1681525050506100f4565b5f5ffd5b5f73ffffffffffffffffffffffffffffffffffffffff82169050919050565b5f6100988261006f565b9050919050565b6100a88161008e565b81146100b2575f5ffd5b50565b5f815190506100c38161009f565b92915050565b5f602082840312156100de576100dd61006b565b5b5f6100eb848285016100b5565b91505092915050565b608051610b696101215f395f8181610180015281816102ec0152818161041e01526105110152610b695ff3fe608060405234801561000f575f5ffd5b5060043610610055575f3560e01c80632e1a7d4d14610059578063b6b55f2514610075578063b7ec1a3314610091578063ce7c2ac2146100af578063f14faf6f146100df575b5f5ffd5b610073600480360381019061006e9190610625565b6100fb565b005b61008f600480360381019061008a9190610625565b6102a8565b005b61009961041b565b6040516100a6919061065f565b60405180910390f35b6100c960048036038101906100c491906106d2565b6104b9565b6040516100d6919061065f565b60405180910390f35b6100f960048036038101906100f49190610625565b6104cd565b005b5f5f5f3373ffffffffffffffffffffffffffffffffffffffff1673ffffffffffffffffffffffffffffffffffffffff1681526020019081526020015f205490508181101561017e576040517f08c379a000000000000000000000000000000000000000000000000000000000815260040161017590610757565b60405180910390fd5b7f000000000000000000000000000000000000000000000000000000000000000073ffffffffffffffffffffffffffffffffffffffff1663a9059cbb33846040518363ffffffff1660e01b81526004016101d9929190610784565b6020604051808303815f875af11580156101f5573d5f5f3e3d5ffd5b505050506040513d601f19601f8201168201806040525081019061021991906107e0565b610258576040517f08c379a000000000000000000000000000000000000000000000000000000000815260040161024f90610855565b60405180910390fd5b818161026491906108a0565b5f5f3373ffffffffffffffffffffffffffffffffffffffff1673ffffffffffffffffffffffffffffffffffffffff1681526020019081526020015f20819055505050565b5f81036102ea576040517f08c379a00000000000000000000000000000000000000000000000000000000081526004016102e19061091d565b60405180910390fd5b7f000000000000000000000000000000000000000000000000000000000000000073ffffffffffffffffffffffffffffffffffffffff166323b872dd3330846040518463ffffffff1660e01b81526004016103479392919061093b565b6020604051808303815f875af1158015610363573d5f5f3e3d5ffd5b505050506040513d601f19601f8201168201806040525081019061038791906107e0565b6103c6576040517f08c379a00000000000000000000000000000000000000000000000000000000081526004016103bd906109ba565b60405180910390fd5b805f5f3373ffffffffffffffffffffffffffffffffffffffff1673ffffffffffffffffffffffffffffffffffffffff1681526020019081526020015f205f82825461041191906109d8565b9250508190555050565b5f7f000000000000000000000000000000000000000000000000000000000000000073ffffffffffffffffffffffffffffffffffffffff166370a08231306040518263ffffffff1660e01b81526004016104759190610a0b565b602060405180830381865afa158015610490573d5f5f3e3d5ffd5b505050506040513d601f19601f820116820180604052508101906104b49190610a38565b905090565b5f602052805f5260405f205f915090505481565b5f810361050f576040517f08c379a000000000000000000000000000000000000000000000000000000000815260040161050690610aad565b60405180910390fd5b7f000000000000000000000000000000000000000000000000000000000000000073ffffffffffffffffffffffffffffffffffffffff166323b872dd3330846040518463ffffffff1660e01b815260040161056c9392919061093b565b6020604051808303815f875af1158015610588573d5f5f3e3d5ffd5b505050506040513d601f19601f820116820180604052508101906105ac91906107e0565b6105eb576040517f08c379a00000000000000000000000000000000000000000000000000000000081526004016105e290610b15565b60405180910390fd5b50565b5f5ffd5b5f819050919050565b610604816105f2565b811461060e575f5ffd5b50565b5f8135905061061f816105fb565b92915050565b5f6020828403121561063a576106396105ee565b5b5f61064784828501610611565b91505092915050565b610659816105f2565b82525050565b5f6020820190506106725f830184610650565b92915050565b5f73ffffffffffffffffffffffffffffffffffffffff82169050919050565b5f6106a182610678565b9050919050565b6106b181610697565b81146106bb575f5ffd5b50565b5f813590506106cc816106a8565b92915050565b5f602082840312156106e7576106e66105ee565b5b5f6106f4848285016106be565b91505092915050565b5f82825260208201905092915050565b7f696e73756666696369656e7420736861726573000000000000000000000000005f82015250565b5f6107416013836106fd565b915061074c8261070d565b602082019050919050565b5f6020820190508181035f83015261076e81610735565b9050919050565b61077e81610697565b82525050565b5f6040820190506107975f830185610775565b6107a46020830184610650565b9392505050565b5f8115159050919050565b6107bf816107ab565b81146107c9575f5ffd5b50565b5f815190506107da816107b6565b92915050565b5f602082840312156107f5576107f46105ee565b5b5f610802848285016107cc565b91505092915050565b7f7769746864726177207472616e73666572206661696c656400000000000000005f82015250565b5f61083f6018836106fd565b915061084a8261080b565b602082019050919050565b5f6020820190508181035f83015261086c81610833565b9050919050565b7f4e487b71000000000000000000000000000000000000000000000000000000005f52601160045260245ffd5b5f6108aa826105f2565b91506108b5836105f2565b92508282039050818111156108cd576108cc610873565b5b92915050565b7f6465706f7369743d3000000000000000000000000000000000000000000000005f82015250565b5f6109076009836106fd565b9150610912826108d3565b602082019050919050565b5f6020820190508181035f830152610934816108fb565b9050919050565b5f60608201905061094e5f830186610775565b61095b6020830185610775565b6109686040830184610650565b949350505050565b7f6465706f736974207472616e73666572206661696c65640000000000000000005f82015250565b5f6109a46017836106fd565b91506109af82610970565b602082019050919050565b5f6020820190508181035f8301526109d181610998565b9050919050565b5f6109e2826105f2565b91506109ed836105f2565b9250828201905080821115610a0557610a04610873565b5b92915050565b5f602082019050610a1e5f830184610775565b92915050565b5f81519050610a32816105fb565b92915050565b5f60208284031215610a4d57610a4c6105ee565b5b5f610a5a84828501610a24565b91505092915050565b7f646f6e6174653d300000000000000000000000000000000000000000000000005f82015250565b5f610a976008836106fd565b9150610aa282610a63565b602082019050919050565b5f6020820190508181035f830152610ac481610a8b565b9050919050565b7f646f6e6174696f6e207472616e73666572206661696c656400000000000000005f82015250565b5f610aff6018836106fd565b9150610b0a82610acb565b602082019050919050565b5f6020820190508181035f830152610b2c81610af3565b905091905056fea2646970667358221220f403be1d1fd2b25038c85c47d386faad4a6ab27a1aaf2c5a0d43913e35923f2264736f6c634300081e0033","linkReferences":{}},"methodIdentifiers":{"deposit(uint256)":"b6b55f25","donate(uint256)":"f14faf6f","liquidBalance()":"b7ec1a33","shares(address)":"ce7c2ac2","withdraw(uint256)":"2e1a7d4d"},"id":1}