{"abi":[{"type":"constructor","inputs":[],"stateMutability":"nonpayable"},{"type":"receive","stateMutability":"payable"},{"type":"function","name":"executeOnOpportunity","inputs":[],"outputs":[],"stateMutability":"nonpayable"},{"type":"function","name":"hypothesisValidated","inputs":[],"outputs":[{"name":"","type":"bool","internalType":"bool"}],"stateMutability":"view"},{"type":"function","name":"isValidSignature","inputs":[{"name":"","type":"bytes32","internalType":"bytes32"},{"name":"","type":"bytes","internalType":"bytes"}],"outputs":[{"name":"","type":"bytes4","internalType":"bytes4"}],"stateMutability":"pure"},{"type":"function","name":"lastForgedPayload","inputs":[],"outputs":[{"name":"","type":"bytes","internalType":"bytes"}],"stateMutability":"view"},{"type":"function","name":"lastRevertSelector","inputs":[],"outputs":[{"name":"","type":"bytes4","internalType":"bytes4"}],"stateMutability":"view"},{"type":"function","name":"profitAmount","inputs":[],"outputs":[{"name":"","type":"uint256","internalType":"uint256"}],"stateMutability":"view"},{"type":"function","name":"profitToken","inputs":[],"outputs":[{"name":"","type":"address","internalType":"address"}],"stateMutability":"view"},{"type":"function","name":"resolveOrders","inputs":[{"name":"","type":"address","internalType":"address"},{"name":"","type":"bytes","internalType":"bytes"},{"name":"","type":"bytes","internalType":"bytes"}],"outputs":[],"stateMutability":"view"},{"type":"function","name":"uniswapV2Call","inputs":[{"name":"sender","type":"address","internalType":"address"},{"name":"amount0","type":"uint256","internalType":"uint256"},{"name":"amount1","type":"uint256","internalType":"uint256"},{"name":"","type":"bytes","internalType":"bytes"}],"outputs":[],"stateMutability":"nonpayable"}],"bytecode":{"object":"0x60808060405234603a575f80546001600160a01b03191673a0b86991c6218b36c1d19d4a2e9eb0ce3606eb48179055611b45908161003f8239f35b5f80fdfe6080604052600436101561001a575b3615610018575f80fd5b005b5f3560e01c806310d1e85c146100a95780631626ba7e146100a45780631944799f1461009f5780633c2448ed1461009a578063463defd11461009557806349343624146100905780635ff972cc1461008b5780636d093fe9146100865763765141530361000e57610528565b61044e565b6103f9565b6103d2565b6103ad565b610395565b6102d7565b610292565b3461024f57608036600319011261024f576004356100c681610253565b602435604435916064359067ffffffffffffffff821161024f576100f1610103923690600401610264565b50506001600160a01b03163014610551565b60405163e6a4390560e01b81525f516020611af05f395f51905f52600482015273c02aaa39b223fe8d0a0e5c4f27ead9083c756cc2602482015291602083604481735c69bee701ef814a2b6a3edd4b1652cb9cc5aa6f5afa92831561024a576101b96101e9936101c693610190610018976101c1955f9161021b575b506001600160a01b03163314610602565b811561021457505b6101a3811515610639565b6101ab610983565b506101b4610cfe565b610683565b6103e5900490565b6106b6565b6101cf30610dfa565b818082106101ee575b6101e39110156106d1565b33611160565b610729565b610200916101fb916106c4565b611069565b6101e38161020d30610dfa565b91506101d8565b9050610198565b61023d915060203d602011610243575b61023581836105c0565b8101906105e2565b8961017f565b503d61022b565b6105f7565b5f80fd5b6001600160a01b0381160361024f57565b9181601f8401121561024f5782359167ffffffffffffffff831161024f576020838186019501011161024f57565b3461024f57604036600319011261024f5760243567ffffffffffffffff811161024f576102c3903690600401610264565b5050604051630b135d3f60e11b8152602090f35b3461024f57606036600319011261024f576102f3600435610253565b60243567ffffffffffffffff811161024f57610313903690600401610264565b505060443567ffffffffffffffff811161024f57610335903690600401610264565b505073a88800cd213da5ae406ce248380802bd53b47647330361035457005b60405162461bcd60e51b815260206004820152600f60248201526e1bdb9b1e481cd95d1d1b195b595b9d608a1b6044820152606490fd5b5f91031261024f57565b3461024f575f36600319011261024f57610018610764565b3461024f575f36600319011261024f57602060ff60045460081c166040519015158152f35b3461024f575f36600319011261024f575f546040516001600160a01b039091168152602090f35b3461024f575f36600319011261024f576020600154604051908152f35b805180835260209291819084018484015e5f828201840152601f01601f1916010190565b90602061044b928181520190610416565b90565b3461024f575f36600319011261024f576040515f60055461046e816108d4565b808452906001811690811561050457506001146104a6575b6104a283610496818503826105c0565b6040519182918261043a565b0390f35b91905060055f527f036b6384b5eca791c62761152d0c79bb0604c104a5fb6f4eb0703f3154bb3db0915f905b8082106104ea57509091508101602001610496610486565b9192600181602092548385880101520191019092916104d2565b60ff191660208086019190915291151560051b840190910191506104969050610486565b3461024f575f36600319011261024f57602063ffffffff60e01b60045460d01b16604051908152f35b1561055857565b60405162461bcd60e51b815260206004820152600a6024820152693130b21039b2b73232b960b11b6044820152606490fd5b634e487b7160e01b5f52604160045260245ffd5b610140810190811067ffffffffffffffff8211176105bb57604052565b61058a565b90601f8019910116810190811067ffffffffffffffff8211176105bb57604052565b9081602091031261024f575161044b81610253565b6040513d5f823e3d90fd5b1561060957565b60405162461bcd60e51b81526020600482015260086024820152673130b2103830b4b960c11b6044820152606490fd5b1561064057565b60405162461bcd60e51b81526020600482015260076024820152661b9bc81cd9595960ca1b6044820152606490fd5b634e487b7160e01b5f52601160045260245ffd5b906103e88202918083046103e8149015171561069b57565b61066f565b908160021b918083046004149015171561069b57565b906001820180921161069b57565b9190820391821161069b57565b156106d857565b60405162461bcd60e51b8152602060048201526024808201527f666c61736820726570617920696e6665617369626c6520617420666f726b20736044820152637461746560e01b6064820152608490fd5b1561073057565b60405162461bcd60e51b815260206004820152600c60248201526b1c995c185e4819985a5b195960a21b6044820152606490fd5b60ff600454166108cc57600160ff19600454161760045561078430610e71565b60025561079030610ebc565b60035561079b61120f565b629896806107a830610dfa565b10806108bb575b6107ec575b6107bc610983565b506107c5610cfe565b6107cd61119c565b6001546107d657565b6107ea61010061ff00196004541617600455565b565b6107f4610f26565b61081961080082610f48565b73c02aaa39b223fe8d0a0e5c4f27ead9083c756cc29052565b61083761082582610f69565b5f516020611af05f395f51905f529052565b737a250d5630b4cf539739df2c5dacb4c659f2488d3b1561024f575f610875916040518093819263b6f9de9560e01b8352429030906004850161139e565b0381662386f26fc10000737a250d5630b4cf539739df2c5dacb4c659f2488d5af16108a1575b506107b4565b806108af5f6108b5936105c0565b8061038b565b5f61089b565b50662386f26fc100004710156107af565b6107ea61119c565b90600182811c92168015610902575b60208310146108ee57565b634e487b7160e01b5f52602260045260245ffd5b91607f16916108e3565b67ffffffffffffffff81116105bb57601f01601f191660200190565b604051906109376020836105c0565b5f8252565b3d15610966573d9061094d8261090c565b9161095b60405193846105c0565b82523d5f602084013e565b606090565b9081602091031261024f5751801515810361024f5790565b60405163095ea7b360e01b60208201908152731111111254eeb25477b68fb85ed929f73a96058260248301525f60448301819052918291906109d281606481015b03601f1981018352826105c0565b5190825f516020611af05f395f51905f525af16109ed61093c565b9015908115610a8d575b50610a895760405163095ea7b360e01b60208201908152731111111254eeb25477b68fb85ed929f73a96058260248301525f1960448301525f91829190610a4181606481016109c4565b5190825f516020611af05f395f51905f525af1610a5c61093c565b81610a65575090565b8051801592508215610a7657505090565b61044b925060208091830101910161096b565b5f90565b8051801515925082610aa2575b50505f6109f7565b610abd925090602080610ab993830101910161096b565b1590565b5f80610a9a565b60405163095ea7b360e01b60208201908152737a250d5630b4cf539739df2c5dacb4c659f2488d60248301525f6044830181905291829190610b0981606481016109c4565b5190825f516020611ad05f395f51905f525af1610b2461093c565b9015908115610b98575b50610b935760405163095ea7b360e01b60208201908152737a250d5630b4cf539739df2c5dacb4c659f2488d602483015260448201929092525f918291610b7881606481016109c4565b5190825f516020611ad05f395f51905f525af1610a5c61093c565b505f90565b8051801515925082610bad575b50505f610b2e565b610bc4925090602080610ab993830101910161096b565b5f80610ba5565b601f8211610bd857505050565b5f5260205f20906020601f840160051c83019310610c10575b601f0160051c01905b818110610c05575050565b5f8155600101610bfa565b9091508190610bf1565b90815167ffffffffffffffff81116105bb57610c4281610c3b6005546108d4565b6005610bcb565b602092601f8211600114610c8257610c72929382915f92610c77575b50508160011b915f199060031b1c19161790565b600555565b015190505f80610c5e565b60055f52601f198216937f036b6384b5eca791c62761152d0c79bb0604c104a5fb6f4eb0703f3154bb3db0915f5b868110610ce65750836001959610610cce575b505050811b01600555565b01515f1960f88460031b161c191690555f8080610cc3565b91926020600181928685015181550194019201610cb0565b6006610d0930610dfa565b106107ea57610d1661151a565b610d1f81610c1a565b5f806040516020810190630965d04b60e01b8252610d44816109c4876024830161043a565b51908273a88800cd213da5ae406ce248380802bd53b476475af1610d6661093c565b9015610d70575050565b5f91610da0610d7f84936115ab565b65ffffffff0000806004549260d01c16169065ffffffff0000191617600455565b604051610dc2816109c4602082019463d0322fbf60e01b86526024830161043a565b51908273019bfc71d43c3492926d4a9a6c781f36706970c95af1610de461093c565b9015610dee575b50565b610d7f6107ea916115ab565b5f809160405160208101916370a0823160e01b835260018060a01b0316602482015260248152610e2b6044826105c0565b51905f516020611af05f395f51905f525afa610e4561093c565b90158015610e66575b610b935760208180518101031261024f576020015190565b506020815110610e4e565b5f809160405160208101916370a0823160e01b835260018060a01b0316602482015260248152610ea26044826105c0565b51905f516020611ad05f395f51905f525afa610e4561093c565b5f809160405160208101916370a0823160e01b835260018060a01b0316602482015260248152610eed6044826105c0565b519073c02aaa39b223fe8d0a0e5c4f27ead9083c756cc25afa610e4561093c565b67ffffffffffffffff81116105bb5760051b60200190565b60405160609190610f3783826105c0565b6002815291601f1901366020840137565b805115610f555760200190565b634e487b7160e01b5f52603260045260245ffd5b805160011015610f555760400190565b60208183031261024f5780519067ffffffffffffffff821161024f57019080601f8301121561024f578151610fad81610f0e565b92610fbb60405194856105c0565b81845260208085019260051b82010192831161024f57602001905b828210610fe35750505090565b8151815260209182019101610fd6565b90602080835192838152019201905f5b8181106110105750505090565b82516001600160a01b0316845260209384019390920191600101611003565b90608092611055919695949683526001602084015260a0604084015260a0830190610ff3565b6001600160a01b0390951660608201520152565b61107230610e71565b90811561115c57611082906106a0565b90620f42408210611151575b808211611149575b5080158015611137575b610deb575f6110fb916110b1610f26565b906110d06110be83610f48565b5f516020611ad05f395f51905f529052565b6110dc61082583610f69565b6040516338ed173960e01b81529384928392429130916004860161102f565b038183737a250d5630b4cf539739df2c5dacb4c659f2488d5af161111c5750565b610deb903d805f833e61112f81836105c0565b810190610f79565b50611144610ab982610ac4565b6110a0565b90505f611096565b620f4240915061108e565b5050565b60405163a9059cbb60e01b602082019081526001600160a01b03909216602482015260448101929092525f91829190610a4181606481016109c4565b6111a530610e71565b5f80546001600160a01b0319165f516020611ad05f395f51905f52179055600254808211156111dc57810390811161069b57600155565b50505f600155565b909260809261044b95948352602083015260018060a01b031660408201528160608201520190610416565b600661121a30610dfa565b10156107ea5760405163e6a4390560e01b81525f516020611af05f395f51905f52600482015273c02aaa39b223fe8d0a0e5c4f27ead9083c756cc26024820152602081604481735c69bee701ef814a2b6a3edd4b1652cb9cc5aa6f5afa90811561024a575f9161137f575b506001600160a01b03811690811561115c57602060049260405193848092630dfe168160e01b82525afa90811561024a575f516020611af05f395f51905f525f939284938491611360575b506001600160a01b03161482811461135957620f4240905b831461134e578280915b6113426040519161131f836113116020820190620f4240602083019252565b03601f1981018552846105c0565b6109c4604051938492602084019763022c0d9f60e01b89523091602486016111e4565b51925af1610de461093c565b82620f4240916112f2565b82906112e8565b611379915060203d6020116102435761023581836105c0565b5f6112d0565b611398915060203d6020116102435761023581836105c0565b5f611285565b6113bd6060929594939560018352608060208401526080830190610ff3565b6001600160a01b0390951660408201520152565b805182526020808201516001600160a01b03169083015261044b919061014090610120906040818101516001600160a01b0316908501526060818101516001600160a01b0316908501526080818101516001600160a01b03169085015260a0818101516001600160a01b03169085015260c081015160c085015260e081015160e0850152610100810151610100850152015191816101208201520190610416565b93926114c1906114b373019bfc71d43c3492926d4a9a6c781f36706970c9946114a560c09560e08a5260e08a01906113d1565b9088820360208a0152610416565b908682036040880152610416565b935f6060820152600160808201525f60a08201520152565b805191908290602001825e015f815290565b73a88800cd213da5ae406ce248380802bd53b4764760601b81525f601482015261044b916015909101906114d9565b611522610928565b61044b6109c46115a0836115706109c4611595836115706109c461158a836115706109c461157f836115706115556116d2565b6109c4611560611811565b9160405194859360208501611472565b604051928391602083016114eb565b6109c461156061189d565b6109c4611560611908565b6109c4611560611973565b6109c46115606119de565b6004815110610b93576020015190565b604080519091906115cc83826105c0565b6017815291601f1901366020840137565b73a88800cd213da5ae406ce248380802bd53b4764760601b8152600160f81b601482015273b02f39e382c90160eb816de5e0e428ac771d77b560601b601582015261044b929161163091602901906114d9565b906114d9565b919060c061166173019bfc71d43c3492926d4a9a6c781f36706970c99260e0865260e08601906113d1565b93610240602082015261046060408201525f606082015264e8d4a5100060808201525f60a08201520152565b61044b939261163060209360156116c59473a88800cd213da5ae406ce248380802bd53b4764760601b81525f601482015201906114d9565b6101ff19815201906114d9565b6102206116de8161090c565b906116ec60405192836105c0565b8082526116fb601f199161090c565b0136602083013761044b6113116109c4604051611781816109c46020820190604060e06101008401935f815273b02f39e382c90160eb816de5e0e428ac771d77b560208201525f516020611ad05f395f51905f52838201525f60608201525f60808201525f516020611ad05f395f51905f5260a082015264e8d4a5100060c08201520152565b61179e61178c6115bb565b6109c4604051938492602084016115dd565b6117b86117a9611a49565b60405194859160208301611636565b6040519485936020850161168d565b604051906117d48261059e565b6060610120835f81525f60208201525f60408201525f838201525f60808201525f60a08201525f60c08201525f60e08201525f6101008201520152565b6118196117c7565b506040516118268161059e565b5f81525f516020611af05f395f51905f5260208201525f516020611ad05f395f51905f5260408201523060608201819052608082015273a88800cd213da5ae406ce248380802bd53b4764760a08201525b600160c0820152600160e08201525f610100820152611894610928565b61012082015290565b6118a56117c7565b506040516118b28161059e565b600181525f516020611af05f395f51905f5260208201525f516020611ad05f395f51905f5260408201523060608201819052608082015273a88800cd213da5ae406ce248380802bd53b4764760a0820152611877565b6119106117c7565b5060405161191d8161059e565b600281525f516020611af05f395f51905f5260208201525f516020611ad05f395f51905f5260408201523060608201819052608082015273a88800cd213da5ae406ce248380802bd53b4764760a0820152611877565b61197b6117c7565b506040516119888161059e565b600381525f516020611af05f395f51905f5260208201525f516020611ad05f395f51905f5260408201523060608201819052608082015273a88800cd213da5ae406ce248380802bd53b4764760a0820152611877565b6119e66117c7565b506040516119f38161059e565b600481525f516020611af05f395f51905f5260208201525f516020611ad05f395f51905f5260408201523060608201819052608082015273a88800cd213da5ae406ce248380802bd53b4764760a0820152611877565b611a516117c7565b50604051611a5e8161059e565b5f81525f516020611af05f395f51905f5260208201525f516020611ad05f395f51905f5260408201523060608201819052608082015273a88800cd213da5ae406ce248380802bd53b4764760a0820152600160c082015264e8d4a5100060e08201525f61010082015261189461092856fe000000000000000000000000a0b86991c6218b36c1d19d4a2e9eb0ce3606eb48000000000000000000000000dac17f958d2ee523a2206206994597c13d831ec7a26469706673582212205f486bba93b7c959748e23c925e60314bf95208836b2e92d2ee74b97584b2a8c64736f6c634300081e0033","linkReferences":{}},"methodIdentifiers":{"executeOnOpportunity()":"3c2448ed","hypothesisValidated()":"463defd1","isValidSignature(bytes32,bytes)":"1626ba7e","lastForgedPayload()":"6d093fe9","lastRevertSelector()":"76514153","profitAmount()":"5ff972cc","profitToken()":"49343624","resolveOrders(address,bytes,bytes)":"1944799f","uniswapV2Call(address,uint256,uint256,bytes)":"10d1e85c"},"id":0}