{"abi":[{"type":"constructor","inputs":[{"name":"visr_","type":"address","internalType":"address"}],"stateMutability":"nonpayable"},{"type":"function","name":"VISR","inputs":[],"outputs":[{"name":"","type":"address","internalType":"contract IERC20Like"}],"stateMutability":"view"},{"type":"function","name":"balanceOf","inputs":[{"name":"","type":"address","internalType":"address"}],"outputs":[{"name":"","type":"uint256","internalType":"uint256"}],"stateMutability":"view"},{"type":"function","name":"deposit","inputs":[{"name":"visrDeposit","type":"uint256","internalType":"uint256"},{"name":"to","type":"address","internalType":"address"}],"outputs":[{"name":"shares","type":"uint256","internalType":"uint256"}],"stateMutability":"nonpayable"},{"type":"function","name":"seed","inputs":[{"name":"amount","type":"uint256","internalType":"uint256"}],"outputs":[],"stateMutability":"nonpayable"},{"type":"function","name":"totalSupply","inputs":[],"outputs":[{"name":"","type":"uint256","internalType":"uint256"}],"stateMutability":"view"},{"type":"function","name":"withdraw","inputs":[{"name":"shares","type":"uint256","internalType":"uint256"},{"name":"to","type":"address","internalType":"address"}],"outputs":[{"name":"rewards","type":"uint256","internalType":"uint256"}],"stateMutability":"nonpayable"}],"bytecode":{"object":"0x60a03461008657601f61082538819003918201601f19168301916001600160401b0383118484101761008a5780849260209460405283398101031261008657516001600160a01b0381169081900361008657608052604051610786908161009f823960805181818160720152818160f1015281816102740152818161036401526104b80152f35b5f80fd5b634e487b7160e01b5f52604160045260245ffdfe6080806040526004361015610012575f80fd5b5f3560e01c908162f714ce1461046c5750806318160ddd1461044f5780636e553f651461020857806370a08231146101cd57806395564837146100a55763dd95b9731461005d575f80fd5b346100a1575f3660031901126100a1576040517f00000000000000000000000000000000000000000000000000000000000000006001600160a01b03168152602090f35b5f80fd5b346100a15760203660031901126100a157600435801561019f576040516323b872dd60e01b815233600482015230602482015260448101919091526020816064815f6001600160a01b037f0000000000000000000000000000000000000000000000000000000000000000165af1908115610194575f91610165575b501561012957005b60405162461bcd60e51b81526020600482015260146024820152731cd95959081d1c985b9cd9995c8819985a5b195960621b6044820152606490fd5b610187915060203d60201161018d575b61017f81836106a3565b81019061072b565b81610121565b503d610175565b6040513d5f823e3d90fd5b60405162461bcd60e51b81526020600482015260066024820152650736565643d360d41b6044820152606490fd5b346100a15760203660031901126100a1576004356001600160a01b038116908190036100a1575f525f602052602060405f2054604051908152f35b346100a15760403660031901126100a15760043561022461068d565b811561041e576001600160a01b03169081156103f3578060015480610346575b506040516323b872dd60e01b8152336004820152306024820152604481019190915260208180606481015b03815f7f00000000000000000000000000000000000000000000000000000000000000006001600160a01b03165af1908115610194575f91610327575b50156102e2576020915f525f825260405f206102c9828254610743565b90556102d781600154610743565b600155604051908152f35b60405162461bcd60e51b815260206004820152601760248201527f6465706f736974207472616e73666572206661696c65640000000000000000006044820152606490fd5b610340915060203d60201161018d5761017f81836106a3565b836102ac565b6040516370a0823160e01b81523060048201529192506020826024817f00000000000000000000000000000000000000000000000000000000000000006001600160a01b03165afa918215610194575f926103bd575b506103b561026f926103b0602093866106d9565b610700565b929150610244565b91506020823d6020116103eb575b816103d8602093836106a3565b810103126100a1579051906103b561039c565b3d91506103cb565b606460405162461bcd60e51b81526020600482015260046024820152630746f3d360e41b6044820152fd5b60405162461bcd60e51b815260206004820152600960248201526806465706f7369743d360bc1b6044820152606490fd5b346100a1575f3660031901126100a1576020600154604051908152f35b346100a15760403660031901126100a1576004359061048961068d565b9082156106605750335f525f6020528160405f205410610625576040516370a0823160e01b81523060048201527f00000000000000000000000000000000000000000000000000000000000000006001600160a01b03169190602081602481865afa80156101945784915f916105ed575b5060209261053b61051b6105125f97956044956106d9565b60015490610700565b963387528686526040872061053182825461071e565b905560015461071e565b60015560405163a9059cbb60e01b81526001600160a01b039091166004820152602481018690529384928391905af1908115610194575f916105ce575b501561058957602090604051908152f35b60405162461bcd60e51b815260206004820152601860248201527f7769746864726177207472616e73666572206661696c656400000000000000006044820152606490fd5b6105e7915060203d60201161018d5761017f81836106a3565b82610578565b939150506020833d60201161061d575b8161060a602093836106a3565b810103126100a1579151839060206104fa565b3d91506105fd565b60405162461bcd60e51b8152602060048201526013602482015272696e73756666696369656e742073686172657360681b6044820152606490fd5b62461bcd60e51b815260206004820152600860248201526707368617265733d360c41b6044820152606490fd5b602435906001600160a01b03821682036100a157565b90601f8019910116810190811067ffffffffffffffff8211176106c557604052565b634e487b7160e01b5f52604160045260245ffd5b818102929181159184041417156106ec57565b634e487b7160e01b5f52601160045260245ffd5b811561070a570490565b634e487b7160e01b5f52601260045260245ffd5b919082039182116106ec57565b908160209103126100a1575180151581036100a15790565b919082018092116106ec5756fea2646970667358221220ff6fb6f154e54fd335f63d69947a23b5aac1877dbb683da9d38297d1210027a564736f6c634300081e0033","linkReferences":{}},"methodIdentifiers":{"VISR()":"dd95b973","balanceOf(address)":"70a08231","deposit(uint256,address)":"6e553f65","seed(uint256)":"95564837","totalSupply()":"18160ddd","withdraw(uint256,address)":"00f714ce"},"id":0}