{"abi":[{"type":"constructor","inputs":[],"stateMutability":"nonpayable"},{"type":"function","name":"TARGET","inputs":[],"outputs":[{"name":"","type":"address","internalType":"address"}],"stateMutability":"view"},{"type":"function","name":"executeOnOpportunity","inputs":[],"outputs":[],"stateMutability":"nonpayable"},{"type":"function","name":"liveProfitSource","inputs":[],"outputs":[{"name":"","type":"address","internalType":"address"}],"stateMutability":"view"},{"type":"function","name":"liveShareSupply","inputs":[],"outputs":[{"name":"","type":"uint256","internalType":"uint256"}],"stateMutability":"view"},{"type":"function","name":"liveTargetAlreadyInitialized","inputs":[],"outputs":[{"name":"","type":"bool","internalType":"bool"}],"stateMutability":"view"},{"type":"function","name":"liveVisrBalance","inputs":[],"outputs":[{"name":"","type":"uint256","internalType":"uint256"}],"stateMutability":"view"},{"type":"function","name":"profitAmount","inputs":[],"outputs":[{"name":"","type":"uint256","internalType":"uint256"}],"stateMutability":"view"},{"type":"function","name":"profitToken","inputs":[],"outputs":[{"name":"","type":"address","internalType":"address"}],"stateMutability":"view"},{"type":"function","name":"unbackedDepositAmount","inputs":[],"outputs":[{"name":"","type":"uint256","internalType":"uint256"}],"stateMutability":"view"},{"type":"function","name":"unbackedSharesMinted","inputs":[],"outputs":[{"name":"","type":"uint256","internalType":"uint256"}],"stateMutability":"view"},{"type":"function","name":"witnessHypervisor","inputs":[],"outputs":[{"name":"","type":"address","internalType":"address"}],"stateMutability":"view"},{"type":"function","name":"witnessSeedAmount","inputs":[],"outputs":[{"name":"","type":"uint256","internalType":"uint256"}],"stateMutability":"view"},{"type":"function","name":"witnessSharesMinted","inputs":[],"outputs":[{"name":"","type":"uint256","internalType":"uint256"}],"stateMutability":"view"},{"type":"function","name":"witnessValidated","inputs":[],"outputs":[{"name":"","type":"bool","internalType":"bool"}],"stateMutability":"view"},{"type":"function","name":"witnessWithdrawAmount","inputs":[],"outputs":[{"name":"","type":"uint256","internalType":"uint256"}],"stateMutability":"view"}],"bytecode":{"object":"0x60808060405234601557611a04908161001a8239f35b5f80fdfe6080806040526004361015610012575f80fd5b5f905f3560e01c90816319fc523714610ef457508063227ee7e914610ed75780632eefb07714610eb55780633c2448ed146102b1578063493436241461021b5780635ff972cc146101fe57806361b9a6ec146101e057806384fd6033146101c2578063cc1f2afa14610193578063d180666f14610175578063dd53b87c14610157578063e51b66d91461012a578063e55681c51461010c578063e723b4bf146100ee5763f8fba8a1146100c3575f80fd5b346100eb57806003193601126100eb576002546040516001600160a01b039091168152602090f35b80fd5b50346100eb57806003193601126100eb576020600454604051908152f35b50346100eb57806003193601126100eb576020600954604051908152f35b50346100eb57806003193601126100eb5760015460405160089190911c6001600160a01b03168152602090f35b50346100eb57806003193601126100eb576020600654604051908152f35b50346100eb57806003193601126100eb576020600554604051908152f35b50346100eb57806003193601126100eb57602060405173c9f27a50f82571c1c8423a42970613b8dbda14ef8152f35b50346100eb57806003193601126100eb576020600354604051908152f35b50346100eb57806003193601126100eb576020600854604051908152f35b50346100eb57806003193601126100eb5760209054604051908152f35b50346100eb57806003193601126100eb5760405163468ee2b560e11b815260208160048173c9f27a50f82571c1c8423a42970613b8dbda14ef5afa9081156102a65760209291610279575b506040516001600160a01b039091168152f35b6102999150823d841161029f575b6102918183610f16565b810190610f38565b5f610266565b503d610287565b6040513d84823e3d90fd5b5034610881575f3660031901126108815760015460ff8116610e7d5760ff19166001908117905560405163468ee2b560e11b815260208160048173c9f27a50f82571c1c8423a42970613b8dbda14ef5afa908115610a21575f91610e5e575b506040516305888dfd60e01b81529060208260048173c9f27a50f82571c1c8423a42970613b8dbda14ef5afa918215610a21575f92610e3d575b506040516370a0823160e01b81523060048201526001600160a01b039190911691602082602481865afa918215610a21575f92610e09575b506040516318160ddd60e01b81526001600160a01b039190911690602081600481855afa908115610a21575f91610dd7575b5060038190556040516370a0823160e01b815273c9f27a50f82571c1c8423a42970613b8dbda14ef6004820152602081602481885afa908115610a21575f91610da5575b508060045515610d6c5760ff8019600a541691151516809117600a5515610d185760405161017b8082019082821067ffffffffffffffff831117610ab157602091839161102f83393081520301905ff08015610a215760018054610100600160a81b03191660089290921b610100600160a81b031691909117908190556040516370a0823160e01b8152306004820152909190602081602481855afa908115610a21575f91610ce6575b506040516370a0823160e01b815230600482015292602084602481895afa938415610a21575f94610cb2575b506104de60045460035490610f64565b90816005558115610c7857604051630b8b4a6160e21b8152600481019290925260081c6001600160a01b031660248201523060448201526020816064815f73c9f27a50f82571c1c8423a42970613b8dbda14ef5af18015610a2157610c47575b506020602492604051938480926370a0823160e01b82523060048301525afa8015610a21575f90610c13575b6105749250610f57565b806006558015610bd65760405190632d182be560e21b825260048201523060248201523060448201526020816064815f73c9f27a50f82571c1c8423a42970613b8dbda14ef5af18015610a2157610ba7575b506040516370a0823160e01b8152306004820152602081602481875afa908115610a21575f91610b75575b501115610b3c576040516370a0823160e01b8152306004820152602081602481865afa908115610a21575f91610b0a575b506001811115610ac5576040516108258082019082821067ffffffffffffffff831117610ab15760209183916111aa83398681520301905ff08015610a2157600280546001600160a01b0319166001600160a01b03929092169182179055905f198101818111610a9d576007556040519163095ea7b360e01b8352600483015260248201526020816044815f875af1908115610a21575f91610a62575b5015610a2c5760018060a01b0360025416600754813b15610881575f91602483926040519485938492639556483760e01b845260048401525af18015610a2157610a0c575b506002546040516318160ddd60e01b81526001600160a01b0390911690602081600481855afa908115610a015785916109cf575b5061098a5760208491604460405180948193636e553f6560e01b8352600160048401523060248401525af1908115610910578491610958575b50806008556001810361091b57600254604051627b8a6760e11b815260048101929092523060248301526020908290604490829088906001600160a01b03165af180156109105784906108dd575b6001915080600955111561089857602060249261010061ff0019600a541617600a55604051938480926370a0823160e01b82523060048301525afa91821561088d578392610855575b508082111561081f5761081a91610f57565b815580f35b60405162461bcd60e51b815260206004820152600e60248201526d1b9bc8159254d4881c1c9bd99a5d60921b6044820152606490fd5b9091506020813d602011610885575b8161087160209383610f16565b810103126108815751905f610808565b5f80fd5b3d9150610864565b6040513d85823e3d90fd5b60405162461bcd60e51b815260206004820152601a60248201527f7769746e65737320646964206e6f74207365697a6520736565640000000000006044820152606490fd5b506020813d602011610908575b816108f760209383610f16565b8101031261088157600190516107bf565b3d91506108ea565b6040513d86823e3d90fd5b60405162461bcd60e51b81526020600482015260156024820152741d5b995e1c1958dd195908199a5c9cdd081b5a5b9d605a1b6044820152606490fd5b90506020813d602011610982575b8161097360209383610f16565b8101031261088157515f610771565b3d9150610966565b60405162461bcd60e51b815260206004820152601b60248201527f7769746e65737320616c726561647920696e697469616c697a656400000000006044820152606490fd5b90506020813d6020116109f9575b816109ea60209383610f16565b8101031261088157515f610738565b3d91506109dd565b6040513d87823e3d90fd5b610a199193505f90610f16565b5f915f610704565b6040513d5f823e3d90fd5b60405162461bcd60e51b815260206004820152600e60248201526d185c1c1c9bdd994819985a5b195960921b6044820152606490fd5b90506020813d602011610a95575b81610a7d60209383610f16565b8101031261088157518015158103610881575f6106bf565b3d9150610a70565b634e487b7160e01b5f52601160045260245ffd5b634e487b7160e01b5f52604160045260245ffd5b60405162461bcd60e51b815260206004820152601d60248201527f696e73756666696369656e74205649535220666f72207769746e6573730000006044820152606490fd5b90506020813d602011610b34575b81610b2560209383610f16565b8101031261088157515f610622565b3d9150610b18565b60405162461bcd60e51b81526020600482015260116024820152701b1a5d9948191c985a5b8819985a5b1959607a1b6044820152606490fd5b90506020813d602011610b9f575b81610b9060209383610f16565b8101031261088157515f6105f1565b3d9150610b83565b6020813d602011610bce575b81610bc060209383610f16565b8101031261088157516105c6565b3d9150610bb3565b60405162461bcd60e51b81526020600482015260156024820152741b9bc81b1a5d99481cda185c995cc81b5a5b9d1959605a1b6044820152606490fd5b506020823d602011610c3f575b81610c2d60209383610f16565b8101031261088157610574915161056a565b3d9150610c20565b6020813d602011610c70575b81610c6060209383610f16565b810103126108815750602061053e565b3d9150610c53565b60405162461bcd60e51b81526020600482015260126024820152711898590819195c1bdcda5d08185b5bdd5b9d60721b6044820152606490fd5b9093506020813d602011610cde575b81610cce60209383610f16565b810103126108815751925f6104ce565b3d9150610cc1565b90506020813d602011610d10575b81610d0160209383610f16565b8101031261088157515f6104a2565b3d9150610cf4565b60405162461bcd60e51b815260206004820152602660248201527f756e65787065637465643a20746172676574207374696c6c20756e696e697469604482015265185b1a5e995960d21b6064820152608490fd5b60405162461bcd60e51b81526020600482015260116024820152701b9bc8159254d4881a5b881d185c99d95d607a1b6044820152606490fd5b90506020813d602011610dcf575b81610dc060209383610f16565b8101031261088157515f6103f8565b3d9150610db3565b90506020813d602011610e01575b81610df260209383610f16565b8101031261088157515f6103b4565b3d9150610de5565b9091506020813d602011610e35575b81610e2560209383610f16565b810103126108815751905f610382565b3d9150610e18565b610e5791925060203d60201161029f576102918183610f16565b905f61034a565b610e77915060203d60201161029f576102918183610f16565b5f610310565b60405162461bcd60e51b815260206004820152601060248201526f185b1c9958591e48195e1958dd5d195960821b6044820152606490fd5b34610881575f36600319011261088157602060ff600a54166040519015158152f35b34610881575f366003190112610881576020600754604051908152f35b34610881575f3660031901126108815760209060ff600a5460081c1615158152f35b90601f8019910116810190811067ffffffffffffffff821117610ab157604052565b9081602091031261088157516001600160a01b03811681036108815790565b91908203918211610a9d57565b9091907d10c6f7a0b5ed8d36b4c7f34938583621fafc8b0079a2834d26fa3fcc9ea981111561101157507d10c6f7a0b5ed8d36b4c7f34938583621fafc8b0079a2834d26fa3fcc9ea9915b8215611008575b80158015610fc2575050565b610ff4575f19046001811115610fee5780831015610fdd5750565b9091505f198101908111610a9d5790565b505f9150565b634e487b7160e01b5f52601260045260245ffd5b60019250610fb6565b620f4240810290808204620f42401490151715610a9d5791610faf56fe60a034606457601f61017b38819003918201601f19168301916001600160401b03831184841017606857808492602094604052833981010312606457516001600160a01b038116810360645760805260405160fe908161007d82396080518160990152f35b5f80fd5b634e487b7160e01b5f52604160045260245ffdfe608060405260043610156010575f80fd5b5f3560e01c80632e88fb9714603a5780638da5cb5b1460365763a55a1503146036575f80fd5b6086565b346058576060366003190112605857604f605c565b5060566071565b005b5f80fd5b600435906001600160a01b0382168203605857565b602435906001600160a01b0382168203605857565b346058575f3660031901126058576040517f00000000000000000000000000000000000000000000000000000000000000006001600160a01b03168152602090f3fea2646970667358221220822f793c6c4e1aecd4266e4348af8bfba10403639643d6153e8da16868e0043264736f6c634300081e003360a03461008657601f61082538819003918201601f19168301916001600160401b0383118484101761008a5780849260209460405283398101031261008657516001600160a01b0381169081900361008657608052604051610786908161009f823960805181818160720152818160f1015281816102740152818161036401526104b80152f35b5f80fd5b634e487b7160e01b5f52604160045260245ffdfe6080806040526004361015610012575f80fd5b5f3560e01c908162f714ce1461046c5750806318160ddd1461044f5780636e553f651461020857806370a08231146101cd57806395564837146100a55763dd95b9731461005d575f80fd5b346100a1575f3660031901126100a1576040517f00000000000000000000000000000000000000000000000000000000000000006001600160a01b03168152602090f35b5f80fd5b346100a15760203660031901126100a157600435801561019f576040516323b872dd60e01b815233600482015230602482015260448101919091526020816064815f6001600160a01b037f0000000000000000000000000000000000000000000000000000000000000000165af1908115610194575f91610165575b501561012957005b60405162461bcd60e51b81526020600482015260146024820152731cd95959081d1c985b9cd9995c8819985a5b195960621b6044820152606490fd5b610187915060203d60201161018d575b61017f81836106a3565b81019061072b565b81610121565b503d610175565b6040513d5f823e3d90fd5b60405162461bcd60e51b81526020600482015260066024820152650736565643d360d41b6044820152606490fd5b346100a15760203660031901126100a1576004356001600160a01b038116908190036100a1575f525f602052602060405f2054604051908152f35b346100a15760403660031901126100a15760043561022461068d565b811561041e576001600160a01b03169081156103f3578060015480610346575b506040516323b872dd60e01b8152336004820152306024820152604481019190915260208180606481015b03815f7f00000000000000000000000000000000000000000000000000000000000000006001600160a01b03165af1908115610194575f91610327575b50156102e2576020915f525f825260405f206102c9828254610743565b90556102d781600154610743565b600155604051908152f35b60405162461bcd60e51b815260206004820152601760248201527f6465706f736974207472616e73666572206661696c65640000000000000000006044820152606490fd5b610340915060203d60201161018d5761017f81836106a3565b836102ac565b6040516370a0823160e01b81523060048201529192506020826024817f00000000000000000000000000000000000000000000000000000000000000006001600160a01b03165afa918215610194575f926103bd575b506103b561026f926103b0602093866106d9565b610700565b929150610244565b91506020823d6020116103eb575b816103d8602093836106a3565b810103126100a1579051906103b561039c565b3d91506103cb565b606460405162461bcd60e51b81526020600482015260046024820152630746f3d360e41b6044820152fd5b60405162461bcd60e51b815260206004820152600960248201526806465706f7369743d360bc1b6044820152606490fd5b346100a1575f3660031901126100a1576020600154604051908152f35b346100a15760403660031901126100a1576004359061048961068d565b9082156106605750335f525f6020528160405f205410610625576040516370a0823160e01b81523060048201527f00000000000000000000000000000000000000000000000000000000000000006001600160a01b03169190602081602481865afa80156101945784915f916105ed575b5060209261053b61051b6105125f97956044956106d9565b60015490610700565b963387528686526040872061053182825461071e565b905560015461071e565b60015560405163a9059cbb60e01b81526001600160a01b039091166004820152602481018690529384928391905af1908115610194575f916105ce575b501561058957602090604051908152f35b60405162461bcd60e51b815260206004820152601860248201527f7769746864726177207472616e73666572206661696c656400000000000000006044820152606490fd5b6105e7915060203d60201161018d5761017f81836106a3565b82610578565b939150506020833d60201161061d575b8161060a602093836106a3565b810103126100a1579151839060206104fa565b3d91506105fd565b60405162461bcd60e51b8152602060048201526013602482015272696e73756666696369656e742073686172657360681b6044820152606490fd5b62461bcd60e51b815260206004820152600860248201526707368617265733d360c41b6044820152606490fd5b602435906001600160a01b03821682036100a157565b90601f8019910116810190811067ffffffffffffffff8211176106c557604052565b634e487b7160e01b5f52604160045260245ffd5b818102929181159184041417156106ec57565b634e487b7160e01b5f52601160045260245ffd5b811561070a570490565b634e487b7160e01b5f52601260045260245ffd5b919082039182116106ec57565b908160209103126100a1575180151581036100a15790565b919082018092116106ec5756fea2646970667358221220ff6fb6f154e54fd335f63d69947a23b5aac1877dbb683da9d38297d1210027a564736f6c634300081e0033a2646970667358221220fc1a13adcbb47cae9de5561d71a5eab2e331f1e630cce08186668c88aa9b7ac364736f6c634300081e0033","linkReferences":{}},"methodIdentifiers":{"TARGET()":"cc1f2afa","executeOnOpportunity()":"3c2448ed","liveProfitSource()":"e51b66d9","liveShareSupply()":"84fd6033","liveTargetAlreadyInitialized()":"2eefb077","liveVisrBalance()":"e723b4bf","profitAmount()":"5ff972cc","profitToken()":"49343624","unbackedDepositAmount()":"d180666f","unbackedSharesMinted()":"dd53b87c","witnessHypervisor()":"f8fba8a1","witnessSeedAmount()":"227ee7e9","witnessSharesMinted()":"61b9a6ec","witnessValidated()":"19fc5237","witnessWithdrawAmount()":"e55681c5"},"id":0}