{"abi":[{"type":"constructor","inputs":[{"name":"_stakedTokenAddress","type":"address","internalType":"address"},{"name":"_controller","type":"address","internalType":"address"}],"stateMutability":"nonpayable"},{"type":"function","name":"allowance","inputs":[{"name":"","type":"address","internalType":"address"},{"name":"","type":"address","internalType":"address"}],"outputs":[{"name":"","type":"uint256","internalType":"uint256"}],"stateMutability":"view"},{"type":"function","name":"approve","inputs":[{"name":"spender","type":"address","internalType":"address"},{"name":"amount","type":"uint256","internalType":"uint256"}],"outputs":[{"name":"","type":"bool","internalType":"bool"}],"stateMutability":"nonpayable"},{"type":"function","name":"balanceOf","inputs":[{"name":"","type":"address","internalType":"address"}],"outputs":[{"name":"","type":"uint256","internalType":"uint256"}],"stateMutability":"view"},{"type":"function","name":"burn","inputs":[{"name":"from","type":"address","internalType":"address"},{"name":"amount","type":"uint256","internalType":"uint256"}],"outputs":[],"stateMutability":"nonpayable"},{"type":"function","name":"controller","inputs":[],"outputs":[{"name":"","type":"address","internalType":"address"}],"stateMutability":"view"},{"type":"function","name":"decimals","inputs":[],"outputs":[{"name":"","type":"uint8","internalType":"uint8"}],"stateMutability":"view"},{"type":"function","name":"mint","inputs":[{"name":"to","type":"address","internalType":"address"},{"name":"amount","type":"uint256","internalType":"uint256"}],"outputs":[],"stateMutability":"nonpayable"},{"type":"function","name":"name","inputs":[],"outputs":[{"name":"","type":"string","internalType":"string"}],"stateMutability":"view"},{"type":"function","name":"rebase","inputs":[{"name":"","type":"uint256","internalType":"uint256"},{"name":"","type":"bool","internalType":"bool"},{"name":"","type":"uint256","internalType":"uint256"}],"outputs":[{"name":"","type":"uint256","internalType":"uint256"}],"stateMutability":"view"},{"type":"function","name":"scaledBalanceOf","inputs":[{"name":"who","type":"address","internalType":"address"}],"outputs":[{"name":"","type":"uint256","internalType":"uint256"}],"stateMutability":"view"},{"type":"function","name":"scaledBalanceToBalance","inputs":[{"name":"scaledBalance","type":"uint256","internalType":"uint256"}],"outputs":[{"name":"","type":"uint256","internalType":"uint256"}],"stateMutability":"pure"},{"type":"function","name":"stakedTokenAddress","inputs":[],"outputs":[{"name":"","type":"address","internalType":"address"}],"stateMutability":"view"},{"type":"function","name":"symbol","inputs":[],"outputs":[{"name":"","type":"string","internalType":"string"}],"stateMutability":"view"},{"type":"function","name":"totalSupply","inputs":[],"outputs":[{"name":"","type":"uint256","internalType":"uint256"}],"stateMutability":"view"},{"type":"function","name":"transfer","inputs":[{"name":"to","type":"address","internalType":"address"},{"name":"amount","type":"uint256","internalType":"uint256"}],"outputs":[{"name":"","type":"bool","internalType":"bool"}],"stateMutability":"nonpayable"},{"type":"function","name":"transferFrom","inputs":[{"name":"from","type":"address","internalType":"address"},{"name":"to","type":"address","internalType":"address"},{"name":"amount","type":"uint256","internalType":"uint256"}],"outputs":[{"name":"","type":"bool","internalType":"bool"}],"stateMutability":"nonpayable"}],"bytecode":{"object":"0x60c060405234801561000f575f5ffd5b50604051611107380380611107833981810160405281019061003191906100fe565b8173ffffffffffffffffffffffffffffffffffffffff1660808173ffffffffffffffffffffffffffffffffffffffff16815250508073ffffffffffffffffffffffffffffffffffffffff1660a08173ffffffffffffffffffffffffffffffffffffffff1681525050505061013c565b5f5ffd5b5f73ffffffffffffffffffffffffffffffffffffffff82169050919050565b5f6100cd826100a4565b9050919050565b6100dd816100c3565b81146100e7575f5ffd5b50565b5f815190506100f8816100d4565b92915050565b5f5f60408385031215610114576101136100a0565b5b5f610121858286016100ea565b9250506020610132858286016100ea565b9150509250929050565b60805160a051610fa36101645f395f8181610642015261078501525f6107a90152610fa35ff3fe608060405234801561000f575f5ffd5b50600436106100fe575f3560e01c806370a0823111610095578063a9059cbb11610064578063a9059cbb146102d2578063dd62ed3e14610302578063f77c479114610332578063ff333a7614610350576100fe565b806370a08231146102385780637b58b42c1461026857806395d89b41146102985780639dc29fac146102b6576100fe565b806323b872dd116100d157806323b872dd1461019e578063313ce567146101ce57806340c10f19146101ec578063417cf3df14610208576100fe565b806306fdde0314610102578063095ea7b31461012057806318160ddd146101505780631da24f3e1461016e575b5f5ffd5b61010a61036e565b6040516101179190610a9e565b60405180910390f35b61013a60048036038101906101359190610b4f565b6103a7565b6040516101479190610ba7565b60405180910390f35b61015861042f565b6040516101659190610bcf565b60405180910390f35b61018860048036038101906101839190610be8565b610434565b6040516101959190610bcf565b60405180910390f35b6101b860048036038101906101b39190610c13565b61047a565b6040516101c59190610ba7565b60405180910390f35b6101d661063b565b6040516101e39190610c7e565b60405180910390f35b61020660048036038101906102019190610b4f565b610640565b005b610222600480360381019061021d9190610c97565b6106dc565b60405161022f9190610bcf565b60405180910390f35b610252600480360381019061024d9190610be8565b6106e5565b60405161025f9190610bcf565b60405180910390f35b610282600480360381019061027d9190610cec565b6106fa565b60405161028f9190610bcf565b60405180910390f35b6102a0610706565b6040516102ad9190610a9e565b60405180910390f35b6102d060048036038101906102cb9190610b4f565b61073f565b005b6102ec60048036038101906102e79190610b4f565b61074d565b6040516102f99190610ba7565b60405180910390f35b61031c60048036038101906103179190610d3c565b610763565b6040516103299190610bcf565b60405180910390f35b61033a610783565b6040516103479190610d89565b60405180910390f35b6103586107a7565b6040516103659190610d89565b60405180910390f35b6040518060400160405280601881526020017f46616b65204173747269642052657374616b656420455448000000000000000081525081565b5f8160025f3373ffffffffffffffffffffffffffffffffffffffff1673ffffffffffffffffffffffffffffffffffffffff1681526020019081526020015f205f8573ffffffffffffffffffffffffffffffffffffffff1673ffffffffffffffffffffffffffffffffffffffff1681526020019081526020015f20819055506001905092915050565b5f5481565b5f60015f8373ffffffffffffffffffffffffffffffffffffffff1673ffffffffffffffffffffffffffffffffffffffff1681526020019081526020015f20549050919050565b5f5f60025f8673ffffffffffffffffffffffffffffffffffffffff1673ffffffffffffffffffffffffffffffffffffffff1681526020019081526020015f205f3373ffffffffffffffffffffffffffffffffffffffff1673ffffffffffffffffffffffffffffffffffffffff1681526020019081526020015f205490508473ffffffffffffffffffffffffffffffffffffffff163373ffffffffffffffffffffffffffffffffffffffff161415801561055357507fffffffffffffffffffffffffffffffffffffffffffffffffffffffffffffffff8114155b15610624578281101561059b576040517f08c379a000000000000000000000000000000000000000000000000000000000815260040161059290610dec565b60405180910390fd5b82816105a79190610e37565b60025f8773ffffffffffffffffffffffffffffffffffffffff1673ffffffffffffffffffffffffffffffffffffffff1681526020019081526020015f205f3373ffffffffffffffffffffffffffffffffffffffff1673ffffffffffffffffffffffffffffffffffffffff1681526020019081526020015f20819055505b61062f8585856107cb565b60019150509392505050565b601281565b7f000000000000000000000000000000000000000000000000000000000000000073ffffffffffffffffffffffffffffffffffffffff163373ffffffffffffffffffffffffffffffffffffffff16146106ce576040517f08c379a00000000000000000000000000000000000000000000000000000000081526004016106c590610eb4565b60405180910390fd5b6106d882826108e4565b5050565b5f819050919050565b6001602052805f5260405f205f915090505481565b5f5f5490509392505050565b6040518060400160405280600581526020017f667245544800000000000000000000000000000000000000000000000000000081525081565b6107498282610952565b5050565b5f6107593384846107cb565b6001905092915050565b6002602052815f5260405f20602052805f5260405f205f91509150505481565b7f000000000000000000000000000000000000000000000000000000000000000081565b7f000000000000000000000000000000000000000000000000000000000000000081565b8060015f8573ffffffffffffffffffffffffffffffffffffffff1673ffffffffffffffffffffffffffffffffffffffff1681526020019081526020015f2054101561084b576040517f08c379a000000000000000000000000000000000000000000000000000000000815260040161084290610f1c565b60405180910390fd5b8060015f8573ffffffffffffffffffffffffffffffffffffffff1673ffffffffffffffffffffffffffffffffffffffff1681526020019081526020015f205f82825403925050819055508060015f8473ffffffffffffffffffffffffffffffffffffffff1673ffffffffffffffffffffffffffffffffffffffff1681526020019081526020015f205f8282540192505081905550505050565b805f5f8282546108f49190610f3a565b925050819055508060015f8473ffffffffffffffffffffffffffffffffffffffff1673ffffffffffffffffffffffffffffffffffffffff1681526020019081526020015f205f8282546109479190610f3a565b925050819055505050565b8060015f8473ffffffffffffffffffffffffffffffffffffffff1673ffffffffffffffffffffffffffffffffffffffff1681526020019081526020015f205410156109d2576040517f08c379a00000000000000000000000000000000000000000000000000000000081526004016109c990610f1c565b60405180910390fd5b8060015f8473ffffffffffffffffffffffffffffffffffffffff1673ffffffffffffffffffffffffffffffffffffffff1681526020019081526020015f205f8282540392505081905550805f5f82825403925050819055505050565b5f81519050919050565b5f82825260208201905092915050565b8281835e5f83830152505050565b5f601f19601f8301169050919050565b5f610a7082610a2e565b610a7a8185610a38565b9350610a8a818560208601610a48565b610a9381610a56565b840191505092915050565b5f6020820190508181035f830152610ab68184610a66565b905092915050565b5f5ffd5b5f73ffffffffffffffffffffffffffffffffffffffff82169050919050565b5f610aeb82610ac2565b9050919050565b610afb81610ae1565b8114610b05575f5ffd5b50565b5f81359050610b1681610af2565b92915050565b5f819050919050565b610b2e81610b1c565b8114610b38575f5ffd5b50565b5f81359050610b4981610b25565b92915050565b5f5f60408385031215610b6557610b64610abe565b5b5f610b7285828601610b08565b9250506020610b8385828601610b3b565b9150509250929050565b5f8115159050919050565b610ba181610b8d565b82525050565b5f602082019050610bba5f830184610b98565b92915050565b610bc981610b1c565b82525050565b5f602082019050610be25f830184610bc0565b92915050565b5f60208284031215610bfd57610bfc610abe565b5b5f610c0a84828501610b08565b91505092915050565b5f5f5f60608486031215610c2a57610c29610abe565b5b5f610c3786828701610b08565b9350506020610c4886828701610b08565b9250506040610c5986828701610b3b565b9150509250925092565b5f60ff82169050919050565b610c7881610c63565b82525050565b5f602082019050610c915f830184610c6f565b92915050565b5f60208284031215610cac57610cab610abe565b5b5f610cb984828501610b3b565b91505092915050565b610ccb81610b8d565b8114610cd5575f5ffd5b50565b5f81359050610ce681610cc2565b92915050565b5f5f5f60608486031215610d0357610d02610abe565b5b5f610d1086828701610b3b565b9350506020610d2186828701610cd8565b9250506040610d3286828701610b3b565b9150509250925092565b5f5f60408385031215610d5257610d51610abe565b5b5f610d5f85828601610b08565b9250506020610d7085828601610b08565b9150509250929050565b610d8381610ae1565b82525050565b5f602082019050610d9c5f830184610d7a565b92915050565b7f696e73756666696369656e7420616c6c6f77616e6365000000000000000000005f82015250565b5f610dd6601683610a38565b9150610de182610da2565b602082019050919050565b5f6020820190508181035f830152610e0381610dca565b9050919050565b7f4e487b71000000000000000000000000000000000000000000000000000000005f52601160045260245ffd5b5f610e4182610b1c565b9150610e4c83610b1c565b9250828203905081811115610e6457610e63610e0a565b5b92915050565b7f6e6f7420636f6e74726f6c6c65720000000000000000000000000000000000005f82015250565b5f610e9e600e83610a38565b9150610ea982610e6a565b602082019050919050565b5f6020820190508181035f830152610ecb81610e92565b9050919050565b7f696e73756666696369656e742062616c616e63650000000000000000000000005f82015250565b5f610f06601483610a38565b9150610f1182610ed2565b602082019050919050565b5f6020820190508181035f830152610f3381610efa565b9050919050565b5f610f4482610b1c565b9150610f4f83610b1c565b9250828201905080821115610f6757610f66610e0a565b5b9291505056fea26469706673582212202c6de56b86a5118d4e870e86e14716693f08fdba069ab39a6873b4526b2492d664736f6c634300081e0033","linkReferences":{}},"methodIdentifiers":{"allowance(address,address)":"dd62ed3e","approve(address,uint256)":"095ea7b3","balanceOf(address)":"70a08231","burn(address,uint256)":"9dc29fac","controller()":"f77c4791","decimals()":"313ce567","mint(address,uint256)":"40c10f19","name()":"06fdde03","rebase(uint256,bool,uint256)":"7b58b42c","scaledBalanceOf(address)":"1da24f3e","scaledBalanceToBalance(uint256)":"417cf3df","stakedTokenAddress()":"ff333a76","symbol()":"95d89b41","totalSupply()":"18160ddd","transfer(address,uint256)":"a9059cbb","transferFrom(address,address,uint256)":"23b872dd"},"id":0}