{"abi":[{"type":"constructor","inputs":[],"stateMutability":"nonpayable"},{"type":"function","name":"candidateCount","inputs":[],"outputs":[{"name":"","type":"uint256","internalType":"uint256"}],"stateMutability":"view"},{"type":"function","name":"executeOnOpportunity","inputs":[],"outputs":[],"stateMutability":"nonpayable"},{"type":"function","name":"executed","inputs":[],"outputs":[{"name":"","type":"bool","internalType":"bool"}],"stateMutability":"view"},{"type":"function","name":"fakeRestakedToken","inputs":[],"outputs":[{"name":"","type":"address","internalType":"address"}],"stateMutability":"view"},{"type":"function","name":"profitAmount","inputs":[],"outputs":[{"name":"","type":"uint256","internalType":"uint256"}],"stateMutability":"view"},{"type":"function","name":"profitToken","inputs":[],"outputs":[{"name":"","type":"address","internalType":"address"}],"stateMutability":"view"},{"type":"function","name":"queuedOnly","inputs":[],"outputs":[{"name":"","type":"bool","internalType":"bool"}],"stateMutability":"view"},{"type":"function","name":"selectedAmount","inputs":[],"outputs":[{"name":"","type":"uint256","internalType":"uint256"}],"stateMutability":"view"},{"type":"function","name":"selectedStakedToken","inputs":[],"outputs":[{"name":"","type":"address","internalType":"address"}],"stateMutability":"view"},{"type":"function","name":"selectedWithdrawIndex","inputs":[],"outputs":[{"name":"","type":"uint256","internalType":"uint256"}],"stateMutability":"view"}],"bytecode":{"object":"0x608060405260405180610100016040528073ae7ab96520de3a18e5e111b5eaab095312d7fe8473ffffffffffffffffffffffffffffffffffffffff1673ffffffffffffffffffffffffffffffffffffffff16815260200173be9895146f7af43049ca1c1ae358b0541ea4970473ffffffffffffffffffffffffffffffffffffffff1673ffffffffffffffffffffffffffffffffffffffff16815260200173ae78736cd615f374d3085123a210448e74fc639373ffffffffffffffffffffffffffffffffffffffff1673ffffffffffffffffffffffffffffffffffffffff16815260200173ac3e018457b222d93114458476f3e3416abbe38f73ffffffffffffffffffffffffffffffffffffffff1673ffffffffffffffffffffffffffffffffffffffff168152602001737f39c581f595b53c5cb19bd0b3f8da6c935e2ca073ffffffffffffffffffffffffffffffffffffffff1673ffffffffffffffffffffffffffffffffffffffff16815260200173e95a203b1a91a908f9b9ce46459d101078c2c3cb73ffffffffffffffffffffffffffffffffffffffff1673ffffffffffffffffffffffffffffffffffffffff16815260200173f951e335afb289353dc249e82926178eac7ded7873ffffffffffffffffffffffffffffffffffffffff1673ffffffffffffffffffffffffffffffffffffffff16815260200173a35b1b31ce002fbf2058d22f30f95d405200a15b73ffffffffffffffffffffffffffffffffffffffff1673ffffffffffffffffffffffffffffffffffffffff16815250600790600861024e929190610260565b5034801561025a575f5ffd5b50610302565b828054828255905f5260205f209081019282156102d6579160200282015b828111156102d5578251825f6101000a81548173ffffffffffffffffffffffffffffffffffffffff021916908373ffffffffffffffffffffffffffffffffffffffff1602179055509160200191906001019061027e565b5b5090506102e391906102e7565b5090565b5b808211156102fe575f815f9055506001016102e8565b5090565b6122eb8061030f5f395ff3fe608060405234801561000f575f5ffd5b506004361061009c575f3560e01c80634da836a3116100645780634da836a3146101225780635ff972cc14610140578063602b07f31461015e578063a9a981a31461017c578063b1418c471461019a5761009c565b8063140aab8f146100a05780632a408c41146100be57806331a38c89146100dc5780633c2448ed146100fa5780634934362414610104575b5f5ffd5b6100a86101b8565b6040516100b59190610f07565b60405180910390f35b6100c66101be565b6040516100d39190610f5f565b60405180910390f35b6100e46101e3565b6040516100f19190610f92565b60405180910390f35b6101026101f6565b005b61010c610b6b565b6040516101199190610f5f565b60405180910390f35b61012a610b92565b6040516101379190610f5f565b60405180910390f35b610148610bb7565b6040516101559190610f07565b60405180910390f35b610166610bc0565b6040516101739190610f07565b60405180910390f35b610184610bc6565b6040516101919190610f07565b60405180910390f35b6101a2610bd2565b6040516101af9190610f92565b60405180910390f35b60045481565b60025f9054906101000a900473ffffffffffffffffffffffffffffffffffffffff1681565b600660019054906101000a900460ff1681565b600660019054906101000a900460ff16801561021357505f600154115b610b69575f73ffffffffffffffffffffffffffffffffffffffff1660025f9054906101000a900473ffffffffffffffffffffffffffffffffffffffff1673ffffffffffffffffffffffffffffffffffffffff160361027457610273610be4565b5b5f73ffffffffffffffffffffffffffffffffffffffff1660025f9054906101000a900473ffffffffffffffffffffffffffffffffffffffff1673ffffffffffffffffffffffffffffffffffffffff1614806102d057505f600454145b156102f5576001600660016101000a81548160ff021916908315150217905550610b69565b5f73ffffffffffffffffffffffffffffffffffffffff1660035f9054906101000a900473ffffffffffffffffffffffffffffffffffffffff1673ffffffffffffffffffffffffffffffffffffffff16036103e2575f60025f9054906101000a900473ffffffffffffffffffffffffffffffffffffffff163060405161037990610ee2565b610384929190610fab565b604051809103905ff08015801561039d573d5f5f3e3d5ffd5b5090508060035f6101000a81548173ffffffffffffffffffffffffffffffffffffffff021916908373ffffffffffffffffffffffffffffffffffffffff160217905550505b60045460035f9054906101000a900473ffffffffffffffffffffffffffffffffffffffff1673ffffffffffffffffffffffffffffffffffffffff166370a08231306040518263ffffffff1660e01b815260040161043f9190610f5f565b602060405180830381865afa15801561045a573d5f5f3e3d5ffd5b505050506040513d601f19601f8201168201806040525081019061047e9190611000565b10156105105760035f9054906101000a900473ffffffffffffffffffffffffffffffffffffffff1673ffffffffffffffffffffffffffffffffffffffff166340c10f19306004546040518363ffffffff1660e01b81526004016104e292919061102b565b5f604051808303815f87803b1580156104f9575f5ffd5b505af115801561050b573d5f5f3e3d5ffd5b505050505b60045460035f9054906101000a900473ffffffffffffffffffffffffffffffffffffffff1673ffffffffffffffffffffffffffffffffffffffff1663dd62ed3e3073baa87546cf87b5de1b0b52353a86792d40b8ba706040518363ffffffff1660e01b8152600401610583929190610fab565b602060405180830381865afa15801561059e573d5f5f3e3d5ffd5b505050506040513d601f19601f820116820180604052508101906105c29190611000565b101561069a5760035f9054906101000a900473ffffffffffffffffffffffffffffffffffffffff1673ffffffffffffffffffffffffffffffffffffffff1663095ea7b373baa87546cf87b5de1b0b52353a86792d40b8ba707fffffffffffffffffffffffffffffffffffffffffffffffffffffffffffffffff6040518363ffffffff1660e01b815260040161065892919061102b565b6020604051808303815f875af1158015610674573d5f5f3e3d5ffd5b505050506040513d601f19601f82011682018060405250810190610698919061107c565b505b5f73baa87546cf87b5de1b0b52353a86792d40b8ba7073ffffffffffffffffffffffffffffffffffffffff1663e743f33b306040518263ffffffff1660e01b81526004016106e89190610f5f565b602060405180830381865afa158015610703573d5f5f3e3d5ffd5b505050506040513d601f19601f820116820180604052508101906107279190611000565b905073baa87546cf87b5de1b0b52353a86792d40b8ba7073ffffffffffffffffffffffffffffffffffffffff1663f3fef3a360035f9054906101000a900473ffffffffffffffffffffffffffffffffffffffff166004546040518363ffffffff1660e01b815260040161079b92919061102b565b5f604051808303815f87803b1580156107b2575f5ffd5b505af19250505080156107c3575060015b6107e8576001600660016101000a81548160ff02191690831515021790555050610b69565b8060058190555073baa87546cf87b5de1b0b52353a86792d40b8ba7073ffffffffffffffffffffffffffffffffffffffff16639837c0d06040518163ffffffff1660e01b8152600401602060405180830381865afa15801561084c573d5f5f3e3d5ffd5b505050506040513d601f19601f82011682018060405250810190610870919061107c565b61091a57600160065f6101000a81548160ff02191690831515021790555073baa87546cf87b5de1b0b52353a86792d40b8ba7073ffffffffffffffffffffffffffffffffffffffff16632a228fc26040518163ffffffff1660e01b81526004015f604051808303815f87803b1580156108e7575f5ffd5b505af19250505080156108f8575060015b506001600660016101000a81548160ff02191690831515021790555050610b69565b5f60025f9054906101000a900473ffffffffffffffffffffffffffffffffffffffff1673ffffffffffffffffffffffffffffffffffffffff166370a08231306040518263ffffffff1660e01b81526004016109759190610f5f565b602060405180830381865afa158015610990573d5f5f3e3d5ffd5b505050506040513d601f19601f820116820180604052508101906109b49190611000565b905073baa87546cf87b5de1b0b52353a86792d40b8ba7073ffffffffffffffffffffffffffffffffffffffff1663379607f56005546040518263ffffffff1660e01b8152600401610a059190610f07565b5f604051808303815f87803b158015610a1c575f5ffd5b505af1925050508015610a2d575060015b15610b4b575f60025f9054906101000a900473ffffffffffffffffffffffffffffffffffffffff1673ffffffffffffffffffffffffffffffffffffffff166370a08231306040518263ffffffff1660e01b8152600401610a8d9190610f5f565b602060405180830381865afa158015610aa8573d5f5f3e3d5ffd5b505050506040513d601f19601f82011682018060405250810190610acc9190611000565b905081811115610b495760025f9054906101000a900473ffffffffffffffffffffffffffffffffffffffff165f5f6101000a81548173ffffffffffffffffffffffffffffffffffffffff021916908373ffffffffffffffffffffffffffffffffffffffff1602179055508181610b4291906110d4565b6001819055505b505b6001600660016101000a81548160ff02191690831515021790555050505b565b5f5f5f9054906101000a900473ffffffffffffffffffffffffffffffffffffffff16905090565b60035f9054906101000a900473ffffffffffffffffffffffffffffffffffffffff1681565b5f600154905090565b60055481565b5f600780549050905090565b60065f9054906101000a900460ff1681565b5f5f5f5f90505b600780549050811015610cbd575f60078281548110610c0d57610c0c611107565b5b905f5260205f20015f9054906101000a900473ffffffffffffffffffffffffffffffffffffffff1690505f610c4182610d09565b5050905080610c51575050610cb2565b5f610c708373baa87546cf87b5de1b0b52353a86792d40b8ba70610db9565b90505f610c7c84610e44565b9050808211610c8e5750505050610cb2565b5f8183610c9b91906110d4565b905087811115610cac578097508496505b50505050505b806001019050610beb565b508060025f6101000a81548173ffffffffffffffffffffffffffffffffffffffff021916908373ffffffffffffffffffffffffffffffffffffffff160217905550816004819055505050565b5f5f5f73baa87546cf87b5de1b0b52353a86792d40b8ba7073ffffffffffffffffffffffffffffffffffffffff1663a5b39cfb856040518263ffffffff1660e01b8152600401610d599190610f5f565b606060405180830381865afa925050508015610d9357506040513d601f19601f82011682018060405250810190610d90919061115e565b60015b610da5575f5f5f925092509250610db2565b8282829550955095505050505b9193909250565b5f8273ffffffffffffffffffffffffffffffffffffffff166370a08231836040518263ffffffff1660e01b8152600401610df39190610f5f565b602060405180830381865afa925050508015610e2d57506040513d601f19601f82011682018060405250810190610e2a9190611000565b60015b610e39575f9050610e3e565b809150505b92915050565b5f73baa87546cf87b5de1b0b52353a86792d40b8ba7073ffffffffffffffffffffffffffffffffffffffff1663a006b81d836040518263ffffffff1660e01b8152600401610e929190610f5f565b602060405180830381865afa925050508015610ecc57506040513d601f19601f82011682018060405250810190610ec99190611000565b60015b610ed8575f9050610edd565b809150505b919050565b611107806111af83390190565b5f819050919050565b610f0181610eef565b82525050565b5f602082019050610f1a5f830184610ef8565b92915050565b5f73ffffffffffffffffffffffffffffffffffffffff82169050919050565b5f610f4982610f20565b9050919050565b610f5981610f3f565b82525050565b5f602082019050610f725f830184610f50565b92915050565b5f8115159050919050565b610f8c81610f78565b82525050565b5f602082019050610fa55f830184610f83565b92915050565b5f604082019050610fbe5f830185610f50565b610fcb6020830184610f50565b9392505050565b5f5ffd5b610fdf81610eef565b8114610fe9575f5ffd5b50565b5f81519050610ffa81610fd6565b92915050565b5f6020828403121561101557611014610fd2565b5b5f61102284828501610fec565b91505092915050565b5f60408201905061103e5f830185610f50565b61104b6020830184610ef8565b9392505050565b61105b81610f78565b8114611065575f5ffd5b50565b5f8151905061107681611052565b92915050565b5f6020828403121561109157611090610fd2565b5b5f61109e84828501611068565b91505092915050565b7f4e487b71000000000000000000000000000000000000000000000000000000005f52601160045260245ffd5b5f6110de82610eef565b91506110e983610eef565b9250828203905081811115611101576111006110a7565b5b92915050565b7f4e487b71000000000000000000000000000000000000000000000000000000005f52603260045260245ffd5b61113d81610f3f565b8114611147575f5ffd5b50565b5f8151905061115881611134565b92915050565b5f5f5f6060848603121561117557611174610fd2565b5b5f61118286828701611068565b93505060206111938682870161114a565b92505060406111a48682870161114a565b915050925092509256fe60c060405234801561000f575f5ffd5b50604051611107380380611107833981810160405281019061003191906100fe565b8173ffffffffffffffffffffffffffffffffffffffff1660808173ffffffffffffffffffffffffffffffffffffffff16815250508073ffffffffffffffffffffffffffffffffffffffff1660a08173ffffffffffffffffffffffffffffffffffffffff1681525050505061013c565b5f5ffd5b5f73ffffffffffffffffffffffffffffffffffffffff82169050919050565b5f6100cd826100a4565b9050919050565b6100dd816100c3565b81146100e7575f5ffd5b50565b5f815190506100f8816100d4565b92915050565b5f5f60408385031215610114576101136100a0565b5b5f610121858286016100ea565b9250506020610132858286016100ea565b9150509250929050565b60805160a051610fa36101645f395f8181610642015261078501525f6107a90152610fa35ff3fe608060405234801561000f575f5ffd5b50600436106100fe575f3560e01c806370a0823111610095578063a9059cbb11610064578063a9059cbb146102d2578063dd62ed3e14610302578063f77c479114610332578063ff333a7614610350576100fe565b806370a08231146102385780637b58b42c1461026857806395d89b41146102985780639dc29fac146102b6576100fe565b806323b872dd116100d157806323b872dd1461019e578063313ce567146101ce57806340c10f19146101ec578063417cf3df14610208576100fe565b806306fdde0314610102578063095ea7b31461012057806318160ddd146101505780631da24f3e1461016e575b5f5ffd5b61010a61036e565b6040516101179190610a9e565b60405180910390f35b61013a60048036038101906101359190610b4f565b6103a7565b6040516101479190610ba7565b60405180910390f35b61015861042f565b6040516101659190610bcf565b60405180910390f35b61018860048036038101906101839190610be8565b610434565b6040516101959190610bcf565b60405180910390f35b6101b860048036038101906101b39190610c13565b61047a565b6040516101c59190610ba7565b60405180910390f35b6101d661063b565b6040516101e39190610c7e565b60405180910390f35b61020660048036038101906102019190610b4f565b610640565b005b610222600480360381019061021d9190610c97565b6106dc565b60405161022f9190610bcf565b60405180910390f35b610252600480360381019061024d9190610be8565b6106e5565b60405161025f9190610bcf565b60405180910390f35b610282600480360381019061027d9190610cec565b6106fa565b60405161028f9190610bcf565b60405180910390f35b6102a0610706565b6040516102ad9190610a9e565b60405180910390f35b6102d060048036038101906102cb9190610b4f565b61073f565b005b6102ec60048036038101906102e79190610b4f565b61074d565b6040516102f99190610ba7565b60405180910390f35b61031c60048036038101906103179190610d3c565b610763565b6040516103299190610bcf565b60405180910390f35b61033a610783565b6040516103479190610d89565b60405180910390f35b6103586107a7565b6040516103659190610d89565b60405180910390f35b6040518060400160405280601881526020017f46616b65204173747269642052657374616b656420455448000000000000000081525081565b5f8160025f3373ffffffffffffffffffffffffffffffffffffffff1673ffffffffffffffffffffffffffffffffffffffff1681526020019081526020015f205f8573ffffffffffffffffffffffffffffffffffffffff1673ffffffffffffffffffffffffffffffffffffffff1681526020019081526020015f20819055506001905092915050565b5f5481565b5f60015f8373ffffffffffffffffffffffffffffffffffffffff1673ffffffffffffffffffffffffffffffffffffffff1681526020019081526020015f20549050919050565b5f5f60025f8673ffffffffffffffffffffffffffffffffffffffff1673ffffffffffffffffffffffffffffffffffffffff1681526020019081526020015f205f3373ffffffffffffffffffffffffffffffffffffffff1673ffffffffffffffffffffffffffffffffffffffff1681526020019081526020015f205490508473ffffffffffffffffffffffffffffffffffffffff163373ffffffffffffffffffffffffffffffffffffffff161415801561055357507fffffffffffffffffffffffffffffffffffffffffffffffffffffffffffffffff8114155b15610624578281101561059b576040517f08c379a000000000000000000000000000000000000000000000000000000000815260040161059290610dec565b60405180910390fd5b82816105a79190610e37565b60025f8773ffffffffffffffffffffffffffffffffffffffff1673ffffffffffffffffffffffffffffffffffffffff1681526020019081526020015f205f3373ffffffffffffffffffffffffffffffffffffffff1673ffffffffffffffffffffffffffffffffffffffff1681526020019081526020015f20819055505b61062f8585856107cb565b60019150509392505050565b601281565b7f000000000000000000000000000000000000000000000000000000000000000073ffffffffffffffffffffffffffffffffffffffff163373ffffffffffffffffffffffffffffffffffffffff16146106ce576040517f08c379a00000000000000000000000000000000000000000000000000000000081526004016106c590610eb4565b60405180910390fd5b6106d882826108e4565b5050565b5f819050919050565b6001602052805f5260405f205f915090505481565b5f5f5490509392505050565b6040518060400160405280600581526020017f667245544800000000000000000000000000000000000000000000000000000081525081565b6107498282610952565b5050565b5f6107593384846107cb565b6001905092915050565b6002602052815f5260405f20602052805f5260405f205f91509150505481565b7f000000000000000000000000000000000000000000000000000000000000000081565b7f000000000000000000000000000000000000000000000000000000000000000081565b8060015f8573ffffffffffffffffffffffffffffffffffffffff1673ffffffffffffffffffffffffffffffffffffffff1681526020019081526020015f2054101561084b576040517f08c379a000000000000000000000000000000000000000000000000000000000815260040161084290610f1c565b60405180910390fd5b8060015f8573ffffffffffffffffffffffffffffffffffffffff1673ffffffffffffffffffffffffffffffffffffffff1681526020019081526020015f205f82825403925050819055508060015f8473ffffffffffffffffffffffffffffffffffffffff1673ffffffffffffffffffffffffffffffffffffffff1681526020019081526020015f205f8282540192505081905550505050565b805f5f8282546108f49190610f3a565b925050819055508060015f8473ffffffffffffffffffffffffffffffffffffffff1673ffffffffffffffffffffffffffffffffffffffff1681526020019081526020015f205f8282546109479190610f3a565b925050819055505050565b8060015f8473ffffffffffffffffffffffffffffffffffffffff1673ffffffffffffffffffffffffffffffffffffffff1681526020019081526020015f205410156109d2576040517f08c379a00000000000000000000000000000000000000000000000000000000081526004016109c990610f1c565b60405180910390fd5b8060015f8473ffffffffffffffffffffffffffffffffffffffff1673ffffffffffffffffffffffffffffffffffffffff1681526020019081526020015f205f8282540392505081905550805f5f82825403925050819055505050565b5f81519050919050565b5f82825260208201905092915050565b8281835e5f83830152505050565b5f601f19601f8301169050919050565b5f610a7082610a2e565b610a7a8185610a38565b9350610a8a818560208601610a48565b610a9381610a56565b840191505092915050565b5f6020820190508181035f830152610ab68184610a66565b905092915050565b5f5ffd5b5f73ffffffffffffffffffffffffffffffffffffffff82169050919050565b5f610aeb82610ac2565b9050919050565b610afb81610ae1565b8114610b05575f5ffd5b50565b5f81359050610b1681610af2565b92915050565b5f819050919050565b610b2e81610b1c565b8114610b38575f5ffd5b50565b5f81359050610b4981610b25565b92915050565b5f5f60408385031215610b6557610b64610abe565b5b5f610b7285828601610b08565b9250506020610b8385828601610b3b565b9150509250929050565b5f8115159050919050565b610ba181610b8d565b82525050565b5f602082019050610bba5f830184610b98565b92915050565b610bc981610b1c565b82525050565b5f602082019050610be25f830184610bc0565b92915050565b5f60208284031215610bfd57610bfc610abe565b5b5f610c0a84828501610b08565b91505092915050565b5f5f5f60608486031215610c2a57610c29610abe565b5b5f610c3786828701610b08565b9350506020610c4886828701610b08565b9250506040610c5986828701610b3b565b9150509250925092565b5f60ff82169050919050565b610c7881610c63565b82525050565b5f602082019050610c915f830184610c6f565b92915050565b5f60208284031215610cac57610cab610abe565b5b5f610cb984828501610b3b565b91505092915050565b610ccb81610b8d565b8114610cd5575f5ffd5b50565b5f81359050610ce681610cc2565b92915050565b5f5f5f60608486031215610d0357610d02610abe565b5b5f610d1086828701610b3b565b9350506020610d2186828701610cd8565b9250506040610d3286828701610b3b565b9150509250925092565b5f5f60408385031215610d5257610d51610abe565b5b5f610d5f85828601610b08565b9250506020610d7085828601610b08565b9150509250929050565b610d8381610ae1565b82525050565b5f602082019050610d9c5f830184610d7a565b92915050565b7f696e73756666696369656e7420616c6c6f77616e6365000000000000000000005f82015250565b5f610dd6601683610a38565b9150610de182610da2565b602082019050919050565b5f6020820190508181035f830152610e0381610dca565b9050919050565b7f4e487b71000000000000000000000000000000000000000000000000000000005f52601160045260245ffd5b5f610e4182610b1c565b9150610e4c83610b1c565b9250828203905081811115610e6457610e63610e0a565b5b92915050565b7f6e6f7420636f6e74726f6c6c65720000000000000000000000000000000000005f82015250565b5f610e9e600e83610a38565b9150610ea982610e6a565b602082019050919050565b5f6020820190508181035f830152610ecb81610e92565b9050919050565b7f696e73756666696369656e742062616c616e63650000000000000000000000005f82015250565b5f610f06601483610a38565b9150610f1182610ed2565b602082019050919050565b5f6020820190508181035f830152610f3381610efa565b9050919050565b5f610f4482610b1c565b9150610f4f83610b1c565b9250828201905080821115610f6757610f66610e0a565b5b9291505056fea26469706673582212202c6de56b86a5118d4e870e86e14716693f08fdba069ab39a6873b4526b2492d664736f6c634300081e0033a26469706673582212206f83aaaa140a52bc87d062db6afde8a462fe1d3b8089c1bb005adceff192d23964736f6c634300081e0033","linkReferences":{}},"methodIdentifiers":{"candidateCount()":"a9a981a3","executeOnOpportunity()":"3c2448ed","executed()":"31a38c89","fakeRestakedToken()":"4da836a3","profitAmount()":"5ff972cc","profitToken()":"49343624","queuedOnly()":"b1418c47","selectedAmount()":"140aab8f","selectedStakedToken()":"2a408c41","selectedWithdrawIndex()":"602b07f3"},"id":0}