{"abi":[{"type":"constructor","inputs":[],"stateMutability":"nonpayable"},{"type":"receive","stateMutability":"payable"},{"type":"function","name":"MIM","inputs":[],"outputs":[{"name":"","type":"address","internalType":"address"}],"stateMutability":"view"},{"type":"function","name":"TARGET","inputs":[],"outputs":[{"name":"","type":"address","internalType":"address"}],"stateMutability":"view"},{"type":"function","name":"bentoBoxAddress","inputs":[],"outputs":[{"name":"","type":"address","internalType":"address"}],"stateMutability":"view"},{"type":"function","name":"borrowFailureReason","inputs":[],"outputs":[{"name":"","type":"bytes32","internalType":"bytes32"}],"stateMutability":"view"},{"type":"function","name":"borrowPathAction100Used","inputs":[],"outputs":[{"name":"","type":"bool","internalType":"bool"}],"stateMutability":"view"},{"type":"function","name":"borrowPathAction8Used","inputs":[],"outputs":[{"name":"","type":"bool","internalType":"bool"}],"stateMutability":"view"},{"type":"function","name":"borrowedMimAmount","inputs":[],"outputs":[{"name":"","type":"uint256","internalType":"uint256"}],"stateMutability":"view"},{"type":"function","name":"borrowedMimShare","inputs":[],"outputs":[{"name":"","type":"uint256","internalType":"uint256"}],"stateMutability":"view"},{"type":"function","name":"collateralShareAdded","inputs":[],"outputs":[{"name":"","type":"uint256","internalType":"uint256"}],"stateMutability":"view"},{"type":"function","name":"collateralShareRemoved","inputs":[],"outputs":[{"name":"","type":"uint256","internalType":"uint256"}],"stateMutability":"view"},{"type":"function","name":"collateralToken","inputs":[],"outputs":[{"name":"","type":"address","internalType":"address"}],"stateMutability":"view"},{"type":"function","name":"execute","inputs":[],"outputs":[],"stateMutability":"nonpayable"},{"type":"function","name":"executeOnOpportunity","inputs":[],"outputs":[],"stateMutability":"nonpayable"},{"type":"function","name":"exploit","inputs":[],"outputs":[],"stateMutability":"nonpayable"},{"type":"function","name":"flashCollateralAmount","inputs":[],"outputs":[{"name":"","type":"uint256","internalType":"uint256"}],"stateMutability":"view"},{"type":"function","name":"flashCollateralFee","inputs":[],"outputs":[{"name":"","type":"uint256","internalType":"uint256"}],"stateMutability":"view"},{"type":"function","name":"hypothesisRefuted","inputs":[],"outputs":[{"name":"","type":"bool","internalType":"bool"}],"stateMutability":"view"},{"type":"function","name":"hypothesisValidated","inputs":[],"outputs":[{"name":"","type":"bool","internalType":"bool"}],"stateMutability":"view"},{"type":"function","name":"onFlashLoan","inputs":[{"name":"sender","type":"address","internalType":"address"},{"name":"token","type":"address","internalType":"address"},{"name":"amount","type":"uint256","internalType":"uint256"},{"name":"fee","type":"uint256","internalType":"uint256"},{"name":"data","type":"bytes","internalType":"bytes"}],"outputs":[],"stateMutability":"nonpayable"},{"type":"function","name":"postBorrowSolvent","inputs":[],"outputs":[{"name":"","type":"bool","internalType":"bool"}],"stateMutability":"view"},{"type":"function","name":"profitAmount","inputs":[],"outputs":[{"name":"","type":"uint256","internalType":"uint256"}],"stateMutability":"view"},{"type":"function","name":"profitToken","inputs":[],"outputs":[{"name":"","type":"address","internalType":"address"}],"stateMutability":"pure"},{"type":"function","name":"removeFailureReason","inputs":[],"outputs":[{"name":"","type":"bytes32","internalType":"bytes32"}],"stateMutability":"view"},{"type":"function","name":"removePathAction100Used","inputs":[],"outputs":[{"name":"","type":"bool","internalType":"bool"}],"stateMutability":"view"},{"type":"function","name":"removePathAction8Used","inputs":[],"outputs":[{"name":"","type":"bool","internalType":"bool"}],"stateMutability":"view"},{"type":"function","name":"run","inputs":[],"outputs":[],"stateMutability":"nonpayable"},{"type":"error","name":"Infeasible","inputs":[{"name":"reason","type":"bytes32","internalType":"bytes32"}]}],"bytecode":{"object":"0x6080604052348015600e575f5ffd5b50613f7b8061001c5f395ff3fe608060405260043610610184575f3560e01c80636687d11b116100d0578063b2c90eeb11610089578063d5b5a55711610063578063d5b5a557146104d9578063daec383d14610503578063e7cda06d1461052d578063eb77ff0f146105575761018b565b8063b2c90eeb1461046f578063c040622614610499578063cc1f2afa146104af5761018b565b80636687d11b146103735780636fb9eb6b1461039d5780637de342f7146103c7578063892d0bd2146103f1578063958095581461041b578063b2016bd4146104455761018b565b8063495f92f11161013d5780635ff972cc116101175780635ff972cc146102f3578063614619541461031d5780636208fdd81461033357806363d9b7701461035d5761018b565b8063495f92f114610275578063588486de1461029f5780635a6e402b146102c95761018b565b806323e30c8b1461018f5780633c2448ed146101b75780633d258d8a146101cd5780634071084d146101f7578063463defd114610221578063493436241461024b5761018b565b3661018b57005b5f5ffd5b34801561019a575f5ffd5b506101b560048036038101906101b0919061319f565b610581565b005b3480156101c2575f5ffd5b506101cb610fb8565b005b3480156101d8575f5ffd5b506101e1610fc2565b6040516101ee919061324f565b60405180910390f35b348015610202575f5ffd5b5061020b610fd5565b6040516102189190613277565b60405180910390f35b34801561022c575f5ffd5b50610235610fdb565b604051610242919061324f565b60405180910390f35b348015610256575f5ffd5b5061025f610fee565b60405161026c919061329f565b60405180910390f35b348015610280575f5ffd5b50610289611009565b604051610296919061324f565b60405180910390f35b3480156102aa575f5ffd5b506102b361101c565b6040516102c091906132d0565b60405180910390f35b3480156102d4575f5ffd5b506102dd611022565b6040516102ea9190613277565b60405180910390f35b3480156102fe575f5ffd5b50610307611028565b6040516103149190613277565b60405180910390f35b348015610328575f5ffd5b50610331611031565b005b34801561033e575f5ffd5b5061034761103b565b6040516103549190613277565b60405180910390f35b348015610368575f5ffd5b50610371611041565b005b34801561037e575f5ffd5b5061038761104b565b60405161039491906132d0565b60405180910390f35b3480156103a8575f5ffd5b506103b1611051565b6040516103be919061324f565b60405180910390f35b3480156103d2575f5ffd5b506103db611064565b6040516103e8919061324f565b60405180910390f35b3480156103fc575f5ffd5b50610405611077565b6040516104129190613277565b60405180910390f35b348015610426575f5ffd5b5061042f61107d565b60405161043c9190613277565b60405180910390f35b348015610450575f5ffd5b50610459611083565b604051610466919061329f565b60405180910390f35b34801561047a575f5ffd5b506104836110a8565b604051610490919061324f565b60405180910390f35b3480156104a4575f5ffd5b506104ad6110bb565b005b3480156104ba575f5ffd5b506104c36110c5565b6040516104d0919061329f565b60405180910390f35b3480156104e4575f5ffd5b506104ed6110dd565b6040516104fa919061324f565b60405180910390f35b34801561050e575f5ffd5b506105176110f0565b604051610524919061329f565b60405180910390f35b348015610538575f5ffd5b50610541611108565b60405161054e9190613277565b60405180910390f35b348015610562575f5ffd5b5061056b61110e565b604051610578919061329f565b60405180910390f35b60025f9054906101000a900473ffffffffffffffffffffffffffffffffffffffff1673ffffffffffffffffffffffffffffffffffffffff163373ffffffffffffffffffffffffffffffffffffffff161461064e576040518060400160405280601281526020017f6261642d62656e746f2d63616c6c6261636b0000000000000000000000000000815250805190602001206040517f5c9c026600000000000000000000000000000000000000000000000000000000815260040161064591906132d0565b60405180910390fd5b3073ffffffffffffffffffffffffffffffffffffffff168673ffffffffffffffffffffffffffffffffffffffff16146106fa576040518060400160405280601081526020017f6261642d666c6173682d73656e64657200000000000000000000000000000000815250805190602001206040517f5c9c02660000000000000000000000000000000000000000000000000000000081526004016106f191906132d0565b60405180910390fd5b60035f9054906101000a900473ffffffffffffffffffffffffffffffffffffffff1673ffffffffffffffffffffffffffffffffffffffff168573ffffffffffffffffffffffffffffffffffffffff16146107c7576040518060400160405280600f81526020017f6261642d666c6173682d746f6b656e0000000000000000000000000000000000815250805190602001206040517f5c9c02660000000000000000000000000000000000000000000000000000000081526004016107be91906132d0565b60405180910390fd5b5f82828101906107d7919061331f565b9050600860ff168160ff16141580156107f75750606460ff168160ff1614155b15610875576040518060400160405280601081526020017f6261642d72657365742d616374696f6e00000000000000000000000000000000815250805190602001206040517f5c9c026600000000000000000000000000000000000000000000000000000000815260040161086c91906132d0565b60405180910390fd5b5f73c6d3b82f9774db8f92095b5e4352a8bb8b0dc20d90505f60025f9054906101000a900473ffffffffffffffffffffffffffffffffffffffff169050866006819055508560078190555061092d60035f9054906101000a900473ffffffffffffffffffffffffffffffffffffffff1660025f9054906101000a900473ffffffffffffffffffffffffffffffffffffffff167fffffffffffffffffffffffffffffffffffffffffffffffffffffffffffffffff611133565b5f8173ffffffffffffffffffffffffffffffffffffffff1663f7888aec60035f9054906101000a900473ffffffffffffffffffffffffffffffffffffffff16306040518363ffffffff1660e01b815260040161098a92919061334a565b602060405180830381865afa1580156109a5573d5f5f3e3d5ffd5b505050506040513d601f19601f820116820180604052508101906109c99190613385565b90505f8273ffffffffffffffffffffffffffffffffffffffff166302b9446c60035f9054906101000a900473ffffffffffffffffffffffffffffffffffffffff163073c6d3b82f9774db8f92095b5e4352a8bb8b0dc20d8d5f6040518663ffffffff1660e01b8152600401610a429594939291906133f2565b60408051808303815f875af1158015610a5d573d5f5f3e3d5ffd5b505050506040513d601f19601f82011682018060405250810190610a819190613443565b9150505f8103610b04576040518060400160405280601581526020017f7a65726f2d636f6c6c61746572616c2d73686172650000000000000000000000815250805190602001206040517f5c9c0266000000000000000000000000000000000000000000000000000000008152600401610afb91906132d0565b60405180910390fd5b806008819055508373ffffffffffffffffffffffffffffffffffffffff1663860ffea1306001846040518463ffffffff1660e01b8152600401610b4993929190613481565b5f604051808303815f87803b158015610b60575f5ffd5b505af1158015610b72573d5f5f3e3d5ffd5b50505050610b8085826111d8565b610c4e57600860ff168560ff1614610bd4576040518060400160405280601c81526020017f72656d6f76652d636f6f6b2d616374696f6e3130302d6661696c65640000000081525080519060200120610c12565b6040518060400160405280601a81526020017f72656d6f76652d636f6f6b2d616374696f6e382d6661696c6564000000000000815250805190602001205b6040517f5c9c0266000000000000000000000000000000000000000000000000000000008152600401610c4591906132d0565b60405180910390fd5b5f8373ffffffffffffffffffffffffffffffffffffffff1663f7888aec60035f9054906101000a900473ffffffffffffffffffffffffffffffffffffffff16306040518363ffffffff1660e01b8152600401610cab92919061334a565b602060405180830381865afa158015610cc6573d5f5f3e3d5ffd5b505050506040513d601f19601f82011682018060405250810190610cea9190613385565b90505f838211610cfa575f610d07565b8382610d0691906134e3565b5b90505f8103610d89576040518060400160405280601681526020017f6e6f2d636f6c6c61746572616c2d72657475726e656400000000000000000000815250805190602001206040517f5c9c0266000000000000000000000000000000000000000000000000000000008152600401610d8091906132d0565b60405180910390fd5b806009819055508473ffffffffffffffffffffffffffffffffffffffff166397da6d3060035f9054906101000a900473ffffffffffffffffffffffffffffffffffffffff1630305f866040518663ffffffff1660e01b8152600401610df2959493929190613516565b60408051808303815f875af1158015610e0d573d5f5f3e3d5ffd5b505050506040513d601f19601f82011682018060405250810190610e319190613443565b50505f8a8c610e409190613567565b90508060035f9054906101000a900473ffffffffffffffffffffffffffffffffffffffff1673ffffffffffffffffffffffffffffffffffffffff166370a08231306040518263ffffffff1660e01b8152600401610e9d919061329f565b602060405180830381865afa158015610eb8573d5f5f3e3d5ffd5b505050506040513d601f19601f82011682018060405250810190610edc9190613385565b1015610f5b576040518060400160405280601981526020017f666c6173682d72657061796d656e742d73686f727466616c6c00000000000000815250805190602001206040517f5c9c0266000000000000000000000000000000000000000000000000000000008152600401610f5291906132d0565b60405180910390fd5b610fa860035f9054906101000a900473ffffffffffffffffffffffffffffffffffffffff1660025f9054906101000a900473ffffffffffffffffffffffffffffffffffffffff1683611437565b5050505050505050505050505050565b610fc0611586565b565b600360179054906101000a900460ff1681565b60085481565b600360199054906101000a900460ff1681565b5f7399d8a9c45b2eca8864373a26d1459e3dff1e17f3905090565b6003601a9054906101000a900460ff1681565b600a5481565b60075481565b5f600154905090565b611039611586565b565b60055481565b611049611586565b565b600b5481565b600360159054906101000a900460ff1681565b600360169054906101000a900460ff1681565b60065481565b60095481565b60035f9054906101000a900473ffffffffffffffffffffffffffffffffffffffff1681565b600360149054906101000a900460ff1681565b6110c3611586565b565b73c6d3b82f9774db8f92095b5e4352a8bb8b0dc20d81565b600360189054906101000a900460ff1681565b7399d8a9c45b2eca8864373a26d1459e3dff1e17f381565b60045481565b60025f9054906101000a900473ffffffffffffffffffffffffffffffffffffffff1681565b8273ffffffffffffffffffffffffffffffffffffffff1663dd62ed3e30846040518363ffffffff1660e01b815260040161116e92919061334a565b602060405180830381865afa9250505080156111a857506040513d601f19601f820116820180604052508101906111a59190613385565b60015b156111bc578181106111ba57506111d3565b505b6111c783835f6118cb565b6111d28383836118cb565b5b505050565b5f5f600267ffffffffffffffff8111156111f5576111f461359a565b5b6040519080825280602002602001820160405280156112235781602001602082028036833780820191505090505b5090506004815f8151811061123b5761123a6135c7565b5b602002602001019060ff16908160ff16815250508381600181518110611264576112636135c7565b5b602002602001019060ff16908160ff16815250505f600267ffffffffffffffff8111156112945761129361359a565b5b6040519080825280602002602001820160405280156112c25781602001602082028036833780820191505090505b5090505f600267ffffffffffffffff8111156112e1576112e061359a565b5b60405190808252806020026020018201604052801561131457816020015b60608152602001906001900390816112ff5790505b50905061132085611a1a565b3060405160200161133292919061360c565b604051602081830303815290604052815f81518110611354576113536135c7565b5b602002602001018190525060405180602001604052805f81525081600181518110611382576113816135c7565b5b602002602001018190525073c6d3b82f9774db8f92095b5e4352a8bb8b0dc20d73ffffffffffffffffffffffffffffffffffffffff1663656f3d648484846040518463ffffffff1660e01b81526004016113de939291906138cc565b60408051808303815f875af192505050801561141857506040513d601f19601f820116820180604052508101906114159190613443565b60015b611427575f9350505050611431565b6001955050505050505b92915050565b5f5f8473ffffffffffffffffffffffffffffffffffffffff1663a9059cbb60e01b858560405160240161146b929190613916565b604051602081830303815290604052907bffffffffffffffffffffffffffffffffffffffffffffffffffffffff19166020820180517bffffffffffffffffffffffffffffffffffffffffffffffffffffffff83818316178352505050506040516114d59190613977565b5f604051808303815f865af19150503d805f811461150e576040519150601f19603f3d011682016040523d82523d5f602084013e611513565b606091505b509150915081801561154057505f8151148061153f57508080602001905181019061153e91906139b7565b5b5b61157f576040517f08c379a000000000000000000000000000000000000000000000000000000000815260040161157690613a3c565b60405180910390fd5b5050505050565b5f5f9054906101000a900460ff166118c95760015f5f6101000a81548160ff0219169083151502179055505f73c6d3b82f9774db8f92095b5e4352a8bb8b0dc20d90508073ffffffffffffffffffffffffffffffffffffffff16636b2ace876040518163ffffffff1660e01b8152600401602060405180830381865afa158015611612573d5f5f3e3d5ffd5b505050506040513d601f19601f820116820180604052508101906116369190613a6e565b60025f6101000a81548173ffffffffffffffffffffffffffffffffffffffff021916908373ffffffffffffffffffffffffffffffffffffffff1602179055508073ffffffffffffffffffffffffffffffffffffffff1663d8dfeb456040518163ffffffff1660e01b8152600401602060405180830381865afa1580156116be573d5f5f3e3d5ffd5b505050506040513d601f19601f820116820180604052508101906116e29190613a6e565b60035f6101000a81548173ffffffffffffffffffffffffffffffffffffffff021916908373ffffffffffffffffffffffffffffffffffffffff16021790555061172a81611a86565b5f600454146117405761173b611c1e565b611784565b6040518060400160405280601b81526020017f72656d6f76652d706174682d6e656564732d6c6976652d64656274000000000081525080519060200120600b819055505b7399d8a9c45b2eca8864373a26d1459e3dff1e17f373ffffffffffffffffffffffffffffffffffffffff166370a08231306040518263ffffffff1660e01b81526004016117d1919061329f565b602060405180830381865afa1580156117ec573d5f5f3e3d5ffd5b505050506040513d601f19601f820116820180604052508101906118109190613385565b600181905550600360149054906101000a900460ff168061183d5750600360159054906101000a900460ff165b80156118565750600360189054906101000a900460ff16155b8061186d5750600360169054906101000a900460ff165b806118845750600360179054906101000a900460ff165b600360196101000a81548160ff021916908315150217905550600360199054906101000a900460ff16156003601a6101000a81548160ff021916908315150217905550505b565b5f5f8473ffffffffffffffffffffffffffffffffffffffff1663095ea7b360e01b85856040516024016118ff929190613916565b604051602081830303815290604052907bffffffffffffffffffffffffffffffffffffffffffffffffffffffff19166020820180517bffffffffffffffffffffffffffffffffffffffffffffffffffffffff83818316178352505050506040516119699190613977565b5f604051808303815f865af19150503d805f81146119a2576040519150601f19603f3d011682016040523d82523d5f602084013e6119a7565b606091505b50915091508180156119d457505f815114806119d35750808060200190518101906119d291906139b7565b5b5b611a13576040517f08c379a0000000000000000000000000000000000000000000000000000000008152600401611a0a90613ae3565b60405180910390fd5b5050505050565b5f7f7fffffffffffffffffffffffffffffffffffffffffffffffffffffffffffffff821115611a7e576040517f08c379a0000000000000000000000000000000000000000000000000000000008152600401611a7590613b4b565b60405180910390fd5b819050919050565b611a91816008611ccb565b611a9c816064611ccb565b8073ffffffffffffffffffffffffffffffffffffffff166302ce728f6040518163ffffffff1660e01b815260040160408051808303815f875af1925050508015611b0457506040513d601f19601f82011682018060405250810190611b019190613b69565b60015b15611b0c5750505b8073ffffffffffffffffffffffffffffffffffffffff166338b51ce1306040518263ffffffff1660e01b8152600401611b45919061329f565b602060405180830381865afa925050508015611b7f57506040513d601f19601f82011682018060405250810190611b7c91906139b7565b60015b611ba2575f600360186101000a81548160ff021916908315150217905550611bbe565b80600360186101000a81548160ff021916908315150217905550505b5f600454148015611bd257505f5f1b600a54145b15611c1b576040518060400160405280601781526020017f616c6c2d626f72726f772d70617468732d6661696c656400000000000000000081525080519060200120600a819055505b50565b611c286008611f20565b600360169054906101000a900460ff16611c4757611c466064611f20565b5b600360169054906101000a900460ff16158015611c715750600360179054906101000a900460ff16155b8015611c8057505f5f1b600b54145b15611cc9576040518060400160405280601781526020017f616c6c2d72656d6f76652d70617468732d6661696c656400000000000000000081525080519060200120600b819055505b565b5f611cd583612335565b90505f8103611d33575f5f1b600a5403611d2d576040518060400160405280601a81526020017f6e6f2d6c69717569646974792d6f722d626f72726f772d63617000000000000081525080519060200120600a819055505b50611f1c565b5f6040518061010001604052808381526020016064606385611d559190613ba7565b611d5f9190613c15565b81526020016064605f85611d739190613ba7565b611d7d9190613c15565b81526020016064605a85611d919190613ba7565b611d9b9190613c15565b8152602001600284611dad9190613c15565b8152602001600484611dbf9190613c15565b8152602001600a84611dd19190613c15565b8152602001600181525090505f5f90505b6008811015611e84575f828260088110611dff57611dfe6135c7565b5b602002015190505f8103611e135750611e77565b611e1d8582612853565b15611e7557600860ff168560ff1603611e50576001600360146101000a81548160ff021916908315150217905550611e6c565b6001600360156101000a81548160ff0219169083151502179055505b50505050611f1c565b505b8080600101915050611de2565b50600860ff168360ff1614611ed5576040518060400160405280601981526020017f626f72726f772d616374696f6e3130302d72657665727465640000000000000081525080519060200120611f13565b6040518060400160405280601781526020017f626f72726f772d616374696f6e382d7265766572746564000000000000000000815250805190602001205b600a8190555050505b5050565b5f60025f9054906101000a900473ffffffffffffffffffffffffffffffffffffffff1690505f6040518061010001604052806001815260200160028152602001600a8152602001606481526020016103e88152602001620f4240815260200164e8d4a510008152602001670de0b6b3a764000081525090505f5f90505b600881101561232e575f8373ffffffffffffffffffffffffffffffffffffffff16635662311860035f9054906101000a900473ffffffffffffffffffffffffffffffffffffffff16858560088110611ff857611ff76135c7565b5b60200201515f6040518463ffffffff1660e01b815260040161201c93929190613c45565b602060405180830381865afa92505050801561205657506040513d601f19601f820116820180604052508101906120539190613385565b60015b612062575f9050612067565b809150505b5f81036120745750612321565b8373ffffffffffffffffffffffffffffffffffffffff1663f1676d37303060035f9054906101000a900473ffffffffffffffffffffffffffffffffffffffff16858a6040516020016120c69190613c89565b6040516020818303038152906040526040518663ffffffff1660e01b81526004016120f5959493929190613d3c565b5f604051808303815f87803b15801561210c575f5ffd5b505af192505050801561211d575060015b6122cc57612129613da0565b806308c379a0036121e2575061213d613df0565b8061214857506121e4565b600860ff168660ff1614612198576040518060400160405280601981526020017f72656d6f76652d616374696f6e3130302d726576657274656400000000000000815250805190602001206121d6565b6040518060400160405280601781526020017f72656d6f76652d616374696f6e382d7265766572746564000000000000000000815250805190602001205b600b81905550506122c7565b505b3d805f811461220e576040519150601f19603f3d011682016040523d82523d5f602084013e612213565b606091505b505f61221e82613006565b90505f5f1b811461222f57806122be565b600860ff168760ff161461227f576040518060400160405280601981526020017f72656d6f76652d616374696f6e3130302d726576657274656400000000000000815250805190602001206122bd565b6040518060400160405280601781526020017f72656d6f76652d616374696f6e382d7265766572746564000000000000000000815250805190602001205b5b600b8190555050505b61231f565b600860ff168560ff16036122fa576001600360166101000a81548160ff021916908315150217905550612316565b6001600360176101000a81548160ff0219169083151502179055505b50505050612332565b505b8080600101915050611f9d565b5050505b50565b5f5f60025f9054906101000a900473ffffffffffffffffffffffffffffffffffffffff1690505f8173ffffffffffffffffffffffffffffffffffffffff1663f7888aec7399d8a9c45b2eca8864373a26d1459e3dff1e17f373c6d3b82f9774db8f92095b5e4352a8bb8b0dc20d6040518363ffffffff1660e01b81526004016123bf92919061334a565b602060405180830381865afa1580156123da573d5f5f3e3d5ffd5b505050506040513d601f19601f820116820180604052508101906123fe9190613385565b90505f8273ffffffffffffffffffffffffffffffffffffffff1663566231187399d8a9c45b2eca8864373a26d1459e3dff1e17f3845f6040518463ffffffff1660e01b815260040161245293929190613c45565b602060405180830381865afa15801561246d573d5f5f3e3d5ffd5b505050506040513d601f19601f820116820180604052508101906124919190613385565b90505f81036124a5575f935050505061284e565b5f5f8673ffffffffffffffffffffffffffffffffffffffff1663e551d11d6040518163ffffffff1660e01b81526004016040805180830381865afa1580156124ef573d5f5f3e3d5ffd5b505050506040513d601f19601f820116820180604052508101906125139190613ec4565b915091505f5f8873ffffffffffffffffffffffffffffffffffffffff16638285ef406040518163ffffffff1660e01b81526004016040805180830381865afa158015612561573d5f5f3e3d5ffd5b505050506040513d601f19601f820116820180604052508101906125859190613ec4565b915091505f8973ffffffffffffffffffffffffffffffffffffffff166348e4163e306040518263ffffffff1660e01b81526004016125c3919061329f565b602060405180830381865afa1580156125de573d5f5f3e3d5ffd5b505050506040513d601f19601f820116820180604052508101906126029190613385565b90505f836fffffffffffffffffffffffffffffffff16866fffffffffffffffffffffffffffffffff1611612636575f612655565b83866126429190613f02565b6fffffffffffffffffffffffffffffffff165b90505f82866fffffffffffffffffffffffffffffffff1611612677575f612696565b82866fffffffffffffffffffffffffffffffff1661269591906134e3565b5b90505f8214806126a557505f81145b156126bc575f9a505050505050505050505061284e565b5f8c73ffffffffffffffffffffffffffffffffffffffff1663aba024f46040518163ffffffff1660e01b8152600401602060405180830381865afa158015612706573d5f5f3e3d5ffd5b505050506040513d601f19601f8201168201806040525081019061272a9190613385565b90505f5f866fffffffffffffffffffffffffffffffff16148061275e57505f876fffffffffffffffffffffffffffffffff16145b1561276b578290506127a9565b856fffffffffffffffffffffffffffffffff16876fffffffffffffffffffffffffffffffff168461279c9190613ba7565b6127a69190613c15565b90505b5f6127bd8b6127b88785613088565b613088565b90505f81036127db575f9d505050505050505050505050505061284e565b82620186a06127ea9190613567565b620186a0826127f99190613ba7565b6128039190613c15565b9d50620f42408e111561282657620f42408e61281f91906134e3565b9d50612840565b60018e111561283f5760018e61283c91906134e3565b9d505b5b505050505050505050505050505b919050565b5f5f60025f9054906101000a900473ffffffffffffffffffffffffffffffffffffffff1690505f8173ffffffffffffffffffffffffffffffffffffffff1663f7888aec7399d8a9c45b2eca8864373a26d1459e3dff1e17f3306040518363ffffffff1660e01b81526004016128c992919061334a565b602060405180830381865afa1580156128e4573d5f5f3e3d5ffd5b505050506040513d601f19601f820116820180604052508101906129089190613385565b90505f7399d8a9c45b2eca8864373a26d1459e3dff1e17f373ffffffffffffffffffffffffffffffffffffffff166370a08231306040518263ffffffff1660e01b8152600401612958919061329f565b602060405180830381865afa158015612973573d5f5f3e3d5ffd5b505050506040513d601f19601f820116820180604052508101906129979190613385565b90505f600267ffffffffffffffff8111156129b5576129b461359a565b5b6040519080825280602002602001820160405280156129e35781602001602082028036833780820191505090505b5090506005815f815181106129fb576129fa6135c7565b5b602002602001019060ff16908160ff16815250508681600181518110612a2457612a236135c7565b5b602002602001019060ff16908160ff16815250505f600267ffffffffffffffff811115612a5457612a5361359a565b5b604051908082528060200260200182016040528015612a825781602001602082028036833780820191505090505b5090505f600267ffffffffffffffff811115612aa157612aa061359a565b5b604051908082528060200260200182016040528015612ad457816020015b6060815260200190600190039081612abf5790505b509050612ae088611a1a565b30604051602001612af292919061360c565b604051602081830303815290604052815f81518110612b1457612b136135c7565b5b602002602001018190525060405180602001604052805f81525081600181518110612b4257612b416135c7565b5b602002602001018190525073c6d3b82f9774db8f92095b5e4352a8bb8b0dc20d73ffffffffffffffffffffffffffffffffffffffff1663656f3d648484846040518463ffffffff1660e01b8152600401612b9e939291906138cc565b60408051808303815f875af1925050508015612bd857506040513d601f19601f82011682018060405250810190612bd59190613443565b60015b612bea575f9650505050505050613000565b5f8873ffffffffffffffffffffffffffffffffffffffff1663f7888aec7399d8a9c45b2eca8864373a26d1459e3dff1e17f3306040518363ffffffff1660e01b8152600401612c3a92919061334a565b602060405180830381865afa158015612c55573d5f5f3e3d5ffd5b505050506040513d601f19601f82011682018060405250810190612c799190613385565b90505f888211612c89575f612c96565b8882612c9591906134e3565b5b90505f8114612df9578060055f828254612cb09190613567565b925050819055508973ffffffffffffffffffffffffffffffffffffffff1663566231187399d8a9c45b2eca8864373a26d1459e3dff1e17f3835f6040518463ffffffff1660e01b8152600401612d0893929190613c45565b602060405180830381865afa158015612d23573d5f5f3e3d5ffd5b505050506040513d601f19601f82011682018060405250810190612d479190613385565b60045f828254612d579190613567565b925050819055508973ffffffffffffffffffffffffffffffffffffffff166397da6d307399d8a9c45b2eca8864373a26d1459e3dff1e17f330305f866040518663ffffffff1660e01b8152600401612db3959493929190613516565b60408051808303815f875af1158015612dce573d5f5f3e3d5ffd5b505050506040513d601f19601f82011682018060405250810190612df29190613443565b5050612f65565b5f7399d8a9c45b2eca8864373a26d1459e3dff1e17f373ffffffffffffffffffffffffffffffffffffffff166370a08231306040518263ffffffff1660e01b8152600401612e47919061329f565b602060405180830381865afa158015612e62573d5f5f3e3d5ffd5b505050506040513d601f19601f82011682018060405250810190612e869190613385565b905088811115612f63575f8982612e9d91906134e3565b90508060045f828254612eb09190613567565b925050819055508b73ffffffffffffffffffffffffffffffffffffffff1663da5139ca7399d8a9c45b2eca8864373a26d1459e3dff1e17f3835f6040518463ffffffff1660e01b8152600401612f0893929190613c45565b602060405180830381865afa925050508015612f4257506040513d601f19601f82011682018060405250810190612f3f9190613385565b60015b15612f61578060055f828254612f589190613567565b92505081905550505b505b505b877399d8a9c45b2eca8864373a26d1459e3dff1e17f373ffffffffffffffffffffffffffffffffffffffff166370a08231306040518263ffffffff1660e01b8152600401612fb3919061329f565b602060405180830381865afa158015612fce573d5f5f3e3d5ffd5b505050506040513d601f19601f82011682018060405250810190612ff29190613385565b119a50505050505050505050505b92915050565b5f60448251101561301b575f5f1b9050613083565b5f60208301519050635c9c026660e01b7bffffffffffffffffffffffffffffffffffffffffffffffffffffffff1916817bffffffffffffffffffffffffffffffffffffffffffffffffffffffff19161461307a575f5f1b915050613083565b60448301519150505b919050565b5f8183106130965781613098565b825b905092915050565b5f604051905090565b5f5ffd5b5f5ffd5b5f73ffffffffffffffffffffffffffffffffffffffff82169050919050565b5f6130da826130b1565b9050919050565b6130ea816130d0565b81146130f4575f5ffd5b50565b5f81359050613105816130e1565b92915050565b5f819050919050565b61311d8161310b565b8114613127575f5ffd5b50565b5f8135905061313881613114565b92915050565b5f5ffd5b5f5ffd5b5f5ffd5b5f5f83601f84011261315f5761315e61313e565b5b8235905067ffffffffffffffff81111561317c5761317b613142565b5b60208301915083600182028301111561319857613197613146565b5b9250929050565b5f5f5f5f5f5f60a087890312156131b9576131b86130a9565b5b5f6131c689828a016130f7565b96505060206131d789828a016130f7565b95505060406131e889828a0161312a565b94505060606131f989828a0161312a565b935050608087013567ffffffffffffffff81111561321a576132196130ad565b5b61322689828a0161314a565b92509250509295509295509295565b5f8115159050919050565b61324981613235565b82525050565b5f6020820190506132625f830184613240565b92915050565b6132718161310b565b82525050565b5f60208201905061328a5f830184613268565b92915050565b613299816130d0565b82525050565b5f6020820190506132b25f830184613290565b92915050565b5f819050919050565b6132ca816132b8565b82525050565b5f6020820190506132e35f8301846132c1565b92915050565b5f60ff82169050919050565b6132fe816132e9565b8114613308575f5ffd5b50565b5f81359050613319816132f5565b92915050565b5f60208284031215613334576133336130a9565b5b5f6133418482850161330b565b91505092915050565b5f60408201905061335d5f830185613290565b61336a6020830184613290565b9392505050565b5f8151905061337f81613114565b92915050565b5f6020828403121561339a576133996130a9565b5b5f6133a784828501613371565b91505092915050565b5f819050919050565b5f819050919050565b5f6133dc6133d76133d2846133b0565b6133b9565b61310b565b9050919050565b6133ec816133c2565b82525050565b5f60a0820190506134055f830188613290565b6134126020830187613290565b61341f6040830186613290565b61342c6060830185613268565b61343960808301846133e3565b9695505050505050565b5f5f60408385031215613459576134586130a9565b5b5f61346685828601613371565b925050602061347785828601613371565b9150509250929050565b5f6060820190506134945f830186613290565b6134a16020830185613240565b6134ae6040830184613268565b949350505050565b7f4e487b71000000000000000000000000000000000000000000000000000000005f52601160045260245ffd5b5f6134ed8261310b565b91506134f88361310b565b92508282039050818111156135105761350f6134b6565b5b92915050565b5f60a0820190506135295f830188613290565b6135366020830187613290565b6135436040830186613290565b61355060608301856133e3565b61355d6080830184613268565b9695505050505050565b5f6135718261310b565b915061357c8361310b565b9250828201905080821115613594576135936134b6565b5b92915050565b7f4e487b71000000000000000000000000000000000000000000000000000000005f52604160045260245ffd5b7f4e487b71000000000000000000000000000000000000000000000000000000005f52603260045260245ffd5b5f819050919050565b613606816135f4565b82525050565b5f60408201905061361f5f8301856135fd565b61362c6020830184613290565b9392505050565b5f81519050919050565b5f82825260208201905092915050565b5f819050602082019050919050565b613665816132e9565b82525050565b5f613676838361365c565b60208301905092915050565b5f602082019050919050565b5f61369882613633565b6136a2818561363d565b93506136ad8361364d565b805f5b838110156136dd5781516136c4888261366b565b97506136cf83613682565b9250506001810190506136b0565b5085935050505092915050565b5f81519050919050565b5f82825260208201905092915050565b5f819050602082019050919050565b61371c8161310b565b82525050565b5f61372d8383613713565b60208301905092915050565b5f602082019050919050565b5f61374f826136ea565b61375981856136f4565b935061376483613704565b805f5b8381101561379457815161377b8882613722565b975061378683613739565b925050600181019050613767565b5085935050505092915050565b5f81519050919050565b5f82825260208201905092915050565b5f819050602082019050919050565b5f81519050919050565b5f82825260208201905092915050565b8281835e5f83830152505050565b5f601f19601f8301169050919050565b5f61380c826137ca565b61381681856137d4565b93506138268185602086016137e4565b61382f816137f2565b840191505092915050565b5f6138458383613802565b905092915050565b5f602082019050919050565b5f613863826137a1565b61386d81856137ab565b93508360208202850161387f856137bb565b805f5b858110156138ba578484038952815161389b858261383a565b94506138a68361384d565b925060208a01995050600181019050613882565b50829750879550505050505092915050565b5f6060820190508181035f8301526138e4818661368e565b905081810360208301526138f88185613745565b9050818103604083015261390c8184613859565b9050949350505050565b5f6040820190506139295f830185613290565b6139366020830184613268565b9392505050565b5f81905092915050565b5f613951826137ca565b61395b818561393d565b935061396b8185602086016137e4565b80840191505092915050565b5f6139828284613947565b915081905092915050565b61399681613235565b81146139a0575f5ffd5b50565b5f815190506139b18161398d565b92915050565b5f602082840312156139cc576139cb6130a9565b5b5f6139d9848285016139a3565b91505092915050565b5f82825260208201905092915050565b7f7472616e736665722d6661696c656400000000000000000000000000000000005f82015250565b5f613a26600f836139e2565b9150613a31826139f2565b602082019050919050565b5f6020820190508181035f830152613a5381613a1a565b9050919050565b5f81519050613a68816130e1565b92915050565b5f60208284031215613a8357613a826130a9565b5b5f613a9084828501613a5a565b91505092915050565b7f617070726f76652d6661696c65640000000000000000000000000000000000005f82015250565b5f613acd600e836139e2565b9150613ad882613a99565b602082019050919050565b5f6020820190508181035f830152613afa81613ac1565b9050919050565b7f696e742d6f766572666c6f7700000000000000000000000000000000000000005f82015250565b5f613b35600c836139e2565b9150613b4082613b01565b602082019050919050565b5f6020820190508181035f830152613b6281613b29565b9050919050565b5f5f60408385031215613b7f57613b7e6130a9565b5b5f613b8c858286016139a3565b9250506020613b9d85828601613371565b9150509250929050565b5f613bb18261310b565b9150613bbc8361310b565b9250828202613bca8161310b565b91508282048414831517613be157613be06134b6565b5b5092915050565b7f4e487b71000000000000000000000000000000000000000000000000000000005f52601260045260245ffd5b5f613c1f8261310b565b9150613c2a8361310b565b925082613c3a57613c39613be8565b5b828204905092915050565b5f606082019050613c585f830186613290565b613c656020830185613268565b613c726040830184613240565b949350505050565b613c83816132e9565b82525050565b5f602082019050613c9c5f830184613c7a565b92915050565b5f613cbc613cb7613cb2846130b1565b6133b9565b6130b1565b9050919050565b5f613ccd82613ca2565b9050919050565b5f613cde82613cc3565b9050919050565b613cee81613cd4565b82525050565b5f82825260208201905092915050565b5f613d0e826137ca565b613d188185613cf4565b9350613d288185602086016137e4565b613d31816137f2565b840191505092915050565b5f60a082019050613d4f5f830188613ce5565b613d5c6020830187613290565b613d696040830186613290565b613d766060830185613268565b8181036080830152613d888184613d04565b90509695505050505050565b5f8160e01c9050919050565b5f60033d1115613dbc5760045f5f3e613db95f51613d94565b90505b90565b613dc8826137f2565b810181811067ffffffffffffffff82111715613de757613de661359a565b5b80604052505050565b5f60443d10613e7c57613e016130a0565b60043d036004823e80513d602482011167ffffffffffffffff82111715613e29575050613e7c565b808201805167ffffffffffffffff811115613e475750505050613e7c565b80602083010160043d038501811115613e64575050505050613e7c565b613e7382602001850186613dbf565b82955050505050505b90565b5f6fffffffffffffffffffffffffffffffff82169050919050565b613ea381613e7f565b8114613ead575f5ffd5b50565b5f81519050613ebe81613e9a565b92915050565b5f5f60408385031215613eda57613ed96130a9565b5b5f613ee785828601613eb0565b9250506020613ef885828601613eb0565b9150509250929050565b5f613f0c82613e7f565b9150613f1783613e7f565b925082820390506fffffffffffffffffffffffffffffffff811115613f3f57613f3e6134b6565b5b9291505056fea26469706673582212200b44580c60b1221a63af42938045db11f29ba5045e63da31f2caf5887b8e381564736f6c634300081e0033","linkReferences":{}},"methodIdentifiers":{"MIM()":"daec383d","TARGET()":"cc1f2afa","bentoBoxAddress()":"eb77ff0f","borrowFailureReason()":"588486de","borrowPathAction100Used()":"6fb9eb6b","borrowPathAction8Used()":"b2c90eeb","borrowedMimAmount()":"e7cda06d","borrowedMimShare()":"6208fdd8","collateralShareAdded()":"4071084d","collateralShareRemoved()":"95809558","collateralToken()":"b2016bd4","execute()":"61461954","executeOnOpportunity()":"3c2448ed","exploit()":"63d9b770","flashCollateralAmount()":"892d0bd2","flashCollateralFee()":"5a6e402b","hypothesisRefuted()":"495f92f1","hypothesisValidated()":"463defd1","onFlashLoan(address,address,uint256,uint256,bytes)":"23e30c8b","postBorrowSolvent()":"d5b5a557","profitAmount()":"5ff972cc","profitToken()":"49343624","removeFailureReason()":"6687d11b","removePathAction100Used()":"3d258d8a","removePathAction8Used()":"7de342f7","run()":"c0406226"},"id":0}