{"abi":[{"type":"constructor","inputs":[{"name":"_operator","type":"address","internalType":"address"},{"name":"_target","type":"address","internalType":"address"}],"stateMutability":"nonpayable"},{"type":"function","name":"attemptClaim","inputs":[{"name":"gasLimit","type":"uint256","internalType":"uint256"}],"outputs":[{"name":"ok","type":"bool","internalType":"bool"},{"name":"data","type":"bytes","internalType":"bytes"}],"stateMutability":"nonpayable"},{"type":"function","name":"lastClaimData","inputs":[],"outputs":[{"name":"","type":"bytes","internalType":"bytes"}],"stateMutability":"view"},{"type":"function","name":"lastClaimOk","inputs":[],"outputs":[{"name":"","type":"bool","internalType":"bool"}],"stateMutability":"view"},{"type":"function","name":"onERC721Received","inputs":[{"name":"","type":"address","internalType":"address"},{"name":"","type":"address","internalType":"address"},{"name":"","type":"uint256","internalType":"uint256"},{"name":"","type":"bytes","internalType":"bytes"}],"outputs":[{"name":"","type":"bytes4","internalType":"bytes4"}],"stateMutability":"pure"},{"type":"function","name":"operator","inputs":[],"outputs":[{"name":"","type":"address","internalType":"address"}],"stateMutability":"view"},{"type":"function","name":"sweepCollection","inputs":[{"name":"collection","type":"address","internalType":"address"},{"name":"recipient","type":"address","internalType":"address"}],"outputs":[],"stateMutability":"nonpayable"},{"type":"function","name":"sweepToken","inputs":[{"name":"token","type":"address","internalType":"address"},{"name":"recipient","type":"address","internalType":"address"}],"outputs":[],"stateMutability":"nonpayable"},{"type":"function","name":"target","inputs":[],"outputs":[{"name":"","type":"address","internalType":"address"}],"stateMutability":"view"}],"bytecode":{"object":"0x60c03461009457601f61095838819003918201601f19168301916001600160401b0383118484101761009857808492604094855283398101031261009457610052602061004b836100ac565b92016100ac565b9060805260a05260405161089790816100c1823960805181818160f4015281816103370152818161038e01526105dd015260a0518181816089015261014a0152f35b5f80fd5b634e487b7160e01b5f52604160045260245ffd5b51906001600160a01b03821682036100945756fe6080806040526004361015610012575f80fd5b5f3560e01c908163150b7a02146106ee57508063258836fe146105b55780632e1b2cfa146104ea5780633e9fd99514610366578063570ca735146103225780637c63cf29146100dd578063ab30dcb6146100bc5763d4b8399214610074575f80fd5b346100b8575f3660031901126100b8576040517f00000000000000000000000000000000000000000000000000000000000000006001600160a01b03168152602090f35b5f80fd5b346100b8575f3660031901126100b857602060ff5f54166040519015158152f35b346100b85760203660031901126100b857610122337f00000000000000000000000000000000000000000000000000000000000000006001600160a01b031614610806565b5f8060405160208101906348c54b9d60e01b8252600481526101456024826107c0565b5190827f0000000000000000000000000000000000000000000000000000000000000000600435f13d1561031a573d9067ffffffffffffffff8211610306576040519161019c601f8201601f1916602001846107c0565b82523d5f602084013e5b151560ff195f541660ff8216175f55815167ffffffffffffffff8111610306576101d1600154610788565b601f811161029e575b50806020601f821160011461022f575f91610224575b508160011b915f199060031b1c1916176001555b61022060405192839283526040602084015260408301906107e2565b0390f35b9050830151846101f0565b60015f9081525f5160206108425f395f51905f529250601f198416905b8181106102865750908360019493921061026e575b5050811b01600155610204565b8501515f1960f88460031b161c191690558480610261565b9192602060018192868a01518155019401920161024c565b60015f52601f820160051c5f5160206108425f395f51905f520190602083106102f1575b601f0160051c5f5160206108425f395f51905f5201905b8181106102e657506101da565b5f81556001016102d9565b5f5160206108425f395f51905f5291506102c2565b634e487b7160e01b5f52604160045260245ffd5b6060906101a6565b346100b8575f3660031901126100b8576040517f00000000000000000000000000000000000000000000000000000000000000006001600160a01b03168152602090f35b346100b85760403660031901126100b85761037f61075c565b610387610772565b906103bc337f00000000000000000000000000000000000000000000000000000000000000006001600160a01b031614610806565b6001600160a01b0390811691165b6040516370a0823160e01b8152306004820152602081602481865afa90811561047b575f916104b9575b50156104b757604051632f745c5960e01b81523060048201525f6024820152602081604481865afa90811561047b575f91610486575b50823b156100b857604051906323b872dd60e01b825230600483015282602483015260448201525f8160648183875af1801561047b5761046b575b506103ca565b5f610475916107c0565b82610465565b6040513d5f823e3d90fd5b90506020813d82116104af575b816104a0602093836107c0565b810103126100b857518361042a565b3d9150610493565b005b90506020813d82116104e2575b816104d3602093836107c0565b810103126100b85751836103f4565b3d91506104c6565b346100b8575f3660031901126100b8576040515f60015461050a81610788565b80845290600181169081156105915750600114610546575b61022083610532818503826107c0565b6040519182916020835260208301906107e2565b91905060015f525f5160206108425f395f51905f52915f905b80821061057757509091508101602001610532610522565b91926001816020925483858801015201910190929161055f565b60ff191660208086019190915291151560051b840190910191506105329050610522565b346100b85760403660031901126100b8576105ce61075c565b6105d6610772565b9061060b337f00000000000000000000000000000000000000000000000000000000000000006001600160a01b031614610806565b6040516370a0823160e01b81523060048201526001600160a01b03919091169190602081602481865afa90811561047b575f916106bc575b508061064b57005b60405163a9059cbb60e01b81526001600160a01b039092166004830152602482015290602090829060449082905f905af1801561047b5761068857005b6020813d6020116106b4575b816106a1602093836107c0565b810103126100b85751801515036100b857005b3d9150610694565b90506020813d6020116106e6575b816106d7602093836107c0565b810103126100b8575183610643565b3d91506106ca565b346100b85760803660031901126100b85761070761075c565b50610710610772565b5060643567ffffffffffffffff81116100b857366023820112156100b857806004013567ffffffffffffffff81116100b857369101602401116100b857630a85bd0160e11b8152602090f35b600435906001600160a01b03821682036100b857565b602435906001600160a01b03821682036100b857565b90600182811c921680156107b6575b60208310146107a257565b634e487b7160e01b5f52602260045260245ffd5b91607f1691610797565b90601f8019910116810190811067ffffffffffffffff82111761030657604052565b805180835260209291819084018484015e5f828201840152601f01601f1916010190565b1561080d57565b60405162461bcd60e51b815260206004820152600c60248201526b3737ba1037b832b930ba37b960a11b6044820152606490fdfeb10e2d527612073b26eecdfd717e6a320cf44b4afac2b0732d9fcbe2b7fa0cf6a2646970667358221220b5f0c8b78e3bb855dae4ed417f86dfdd7eb8b9daae042ea0a60707b38b86ef5064736f6c634300081e0033","linkReferences":{}},"methodIdentifiers":{"attemptClaim(uint256)":"7c63cf29","lastClaimData()":"2e1b2cfa","lastClaimOk()":"ab30dcb6","onERC721Received(address,address,uint256,bytes)":"150b7a02","operator()":"570ca735","sweepCollection(address,address)":"3e9fd995","sweepToken(address,address)":"258836fe","target()":"d4b83992"},"id":0}