{"abi":[{"type":"constructor","inputs":[],"stateMutability":"nonpayable"},{"type":"receive","stateMutability":"payable"},{"type":"function","name":"BALANCER_VAULT","inputs":[],"outputs":[{"name":"","type":"address","internalType":"address"}],"stateMutability":"view"},{"type":"function","name":"CURVE_POOL_USD0_USD0PP","inputs":[],"outputs":[{"name":"","type":"address","internalType":"address"}],"stateMutability":"view"},{"type":"function","name":"REGISTRY","inputs":[],"outputs":[{"name":"","type":"address","internalType":"address"}],"stateMutability":"view"},{"type":"function","name":"TARGET","inputs":[],"outputs":[{"name":"","type":"address","internalType":"address"}],"stateMutability":"view"},{"type":"function","name":"executeOnOpportunity","inputs":[],"outputs":[],"stateMutability":"nonpayable"},{"type":"function","name":"hypothesisValidated","inputs":[],"outputs":[{"name":"","type":"bool","internalType":"bool"}],"stateMutability":"view"},{"type":"function","name":"orphanRtHolder","inputs":[],"outputs":[{"name":"","type":"address","internalType":"address"}],"stateMutability":"view"},{"type":"function","name":"pathUsed","inputs":[],"outputs":[{"name":"","type":"string","internalType":"string"}],"stateMutability":"view"},{"type":"function","name":"profitAmount","inputs":[],"outputs":[{"name":"","type":"uint256","internalType":"uint256"}],"stateMutability":"view"},{"type":"function","name":"profitToken","inputs":[],"outputs":[{"name":"","type":"address","internalType":"address"}],"stateMutability":"view"},{"type":"function","name":"receiveFlashLoan","inputs":[{"name":"tokens","type":"address[]","internalType":"address[]"},{"name":"amounts","type":"uint256[]","internalType":"uint256[]"},{"name":"feeAmounts","type":"uint256[]","internalType":"uint256[]"},{"name":"userData","type":"bytes","internalType":"bytes"}],"outputs":[],"stateMutability":"nonpayable"},{"type":"function","name":"status","inputs":[],"outputs":[{"name":"","type":"string","internalType":"string"}],"stateMutability":"view"},{"type":"error","name":"ExternalCallFailed","inputs":[]},{"type":"error","name":"NoSeedCapital","inputs":[]},{"type":"error","name":"UnauthorizedCallback","inputs":[]},{"type":"error","name":"Unprofitable","inputs":[]}],"bytecode":{"object":"0x60a0604052348015600e575f5ffd5b506040516019906069565b604051809103905ff0801580156031573d5f5f3e3d5ffd5b5073ffffffffffffffffffffffffffffffffffffffff1660808173ffffffffffffffffffffffffffffffffffffffff16815250506075565b605e80613d3483390190565b608051613ca06100945f395f81816102b1015261165a0152613ca05ff3fe6080604052600436106100aa575f3560e01c80635ff972cc116100635780635ff972cc1461019d5780637283898d146101c757806387376572146101f1578063bc1638461461021b578063cc1f2afa14610245578063f04f27071461026f576100b1565b806306433b1b146100b55780631a0c9259146100df578063200d2ed2146101095780633c2448ed14610133578063463defd1146101495780634934362414610173576100b1565b366100b157005b5f5ffd5b3480156100c0575f5ffd5b506100c9610297565b6040516100d69190612c30565b60405180910390f35b3480156100ea575f5ffd5b506100f36102af565b6040516101009190612c30565b60405180910390f35b348015610114575f5ffd5b5061011d6102d3565b60405161012a9190612cb9565b60405180910390f35b34801561013e575f5ffd5b50610147610478565b005b348015610154575f5ffd5b5061015d6107ef565b60405161016a9190612cf3565b60405180910390f35b34801561017e575f5ffd5b50610187610803565b6040516101949190612c30565b60405180910390f35b3480156101a8575f5ffd5b506101b161088e565b6040516101be9190612d24565b60405180910390f35b3480156101d2575f5ffd5b506101db610897565b6040516101e89190612cb9565b60405180910390f35b3480156101fc575f5ffd5b50610205610af0565b6040516102129190612c30565b60405180910390f35b348015610226575f5ffd5b5061022f610b08565b60405161023c9190612c30565b60405180910390f35b348015610250575f5ffd5b50610259610b20565b6040516102669190612c30565b60405180910390f35b34801561027a575f5ffd5b5061029560048036038101906102909190613052565b610b38565b005b730594cb5ca47efe1ff25c7b8b43e221683b4db34c81565b7f000000000000000000000000000000000000000000000000000000000000000081565b6060600160038111156102e9576102e8613126565b5b600260019054906101000a900460ff16600381111561030b5761030a613126565b5b0361034d576040518060400160405280600f81526020017f70726f6669742d616368696576656400000000000000000000000000000000008152509050610475565b6002600381111561036157610360613126565b5b600260019054906101000a900460ff16600381111561038357610382613126565b5b036103c5576040518060400160405280601381526020017f76616c6964617465642d6e6f2d70726f666974000000000000000000000000008152509050610475565b6003808111156103d8576103d7613126565b5b600260019054906101000a900460ff1660038111156103fa576103f9613126565b5b0361043c576040518060400160405280601581526020017f726566757465642d6f722d696e6665617369626c6500000000000000000000008152509050610475565b6040518060400160405280600581526020017f756e73657400000000000000000000000000000000000000000000000000000081525090505b90565b5f6104a27f99fc6866b8a0382ea875d05d6adb7080c9f332c7f87adc01f2bd8c1dc2991c776111aa565b90505f6104ce7fdbbc50039ed3ca50ec88fa75d6fe32dae25b22535afc1cd51cf4090d5ebc4d286111aa565b9050815f5f6101000a81548173ffffffffffffffffffffffffffffffffffffffff021916908373ffffffffffffffffffffffffffffffffffffffff1602179055505f6001819055505f60025f6101000a81548160ff0219169083600681111561053a57610539613126565b5b02179055505f600260016101000a81548160ff0219169083600381111561056457610563613126565b5b02179055505f6002806101000a81548160ff0219169083151502179055505f73ffffffffffffffffffffffffffffffffffffffff168273ffffffffffffffffffffffffffffffffffffffff1614806105e757505f73ffffffffffffffffffffffffffffffffffffffff168173ffffffffffffffffffffffffffffffffffffffff16145b1561061e576003600260016101000a81548160ff0219169083600381111561061257610611613126565b5b021790555050506107ed565b5f610627611248565b90505f6106326112d9565b90505f5f82141580156106455750814210155b905080801561065b575061065a85600161136a565b5b156106af576001600260016101000a81548160ff0219169083600381111561068657610685613126565b5b021790555060016002806101000a81548160ff02191690831515021790555050505050506107ed565b5f83141580156106c557506106c4855f61136a565b5b15610719576001600260016101000a81548160ff021916908360038111156106f0576106ef613126565b5b021790555060016002806101000a81548160ff02191690831515021790555050505050506107ed565b61072385856114ab565b15610777576001600260016101000a81548160ff0219169083600381111561074e5761074d613126565b5b021790555060016002806101000a81548160ff02191690831515021790555050505050506107ed565b610783858585846115c7565b156107bc5760028060016101000a81548160ff021916908360038111156107ad576107ac613126565b5b021790555050505050506107ed565b6003600260016101000a81548160ff021916908360038111156107e2576107e1613126565b5b021790555050505050505b565b5f60028054906101000a900460ff16905090565b5f5f5f5f9054906101000a900473ffffffffffffffffffffffffffffffffffffffff1690505f73ffffffffffffffffffffffffffffffffffffffff168173ffffffffffffffffffffffffffffffffffffffff1603610887576108847f99fc6866b8a0382ea875d05d6adb7080c9f332c7f87adc01f2bd8c1dc2991c776111aa565b90505b8091505090565b5f600154905090565b6060600160068111156108ad576108ac613126565b5b60025f9054906101000a900460ff1660068111156108ce576108cd613126565b5b036108f357604051806060016040528060368152602001613b68603691399050610aed565b6002600681111561090757610906613126565b5b60025f9054906101000a900460ff16600681111561092857610927613126565b5b0361094d57604051806060016040528060268152602001613bdf602691399050610aed565b6003600681111561096157610960613126565b5b60025f9054906101000a900460ff16600681111561098257610981613126565b5b036109a757604051806060016040528060358152602001613c36603591399050610aed565b600460068111156109bb576109ba613126565b5b60025f9054906101000a900460ff1660068111156109dc576109db613126565b5b03610a0157604051806080016040528060418152602001613b9e604191399050610aed565b60056006811115610a1557610a14613126565b5b60025f9054906101000a900460ff166006811115610a3657610a35613126565b5b03610a5b57604051806060016040528060318152602001613c05603191399050610aed565b600680811115610a6e57610a6d613126565b5b60025f9054906101000a900460ff166006811115610a8f57610a8e613126565b5b03610ab457604051806060016040528060408152602001613b28604091399050610aed565b6040518060400160405280600481526020017f6e6f6e650000000000000000000000000000000000000000000000000000000081525090505b90565b731d08e7adc263cfc70b1babe6dc5bb339c16eec5281565b73ba12222222228d8ba445958a75a0704d566bf2c881565b7335d8949372d46b7a3d5a56006ae77b215fc69bc081565b73ba12222222228d8ba445958a75a0704d566bf2c873ffffffffffffffffffffffffffffffffffffffff163373ffffffffffffffffffffffffffffffffffffffff16141580610b95575060035f015f9054906101000a900460ff16155b15610bcc576040517ff5c6c81a00000000000000000000000000000000000000000000000000000000815260040160405180910390fd5b60018451141580610bdf57506001835114155b80610bec57506001825114155b15610c23576040517f350c20f100000000000000000000000000000000000000000000000000000000815260040160405180910390fd5b5f60035f0160019054906101000a900473ffffffffffffffffffffffffffffffffffffffff1690505f845f81518110610c5f57610c5e613153565b5b602002602001015190505f845f81518110610c7d57610c7c613153565b5b60200260200101519050610ca683731d08e7adc263cfc70b1babe6dc5bb339c16eec5284611982565b5f6127106126de600360020154610cbd91906131ad565b610cc7919061321b565b90505f731d08e7adc263cfc70b1babe6dc5bb339c16eec5273ffffffffffffffffffffffffffffffffffffffff16633df021245f600187866040518563ffffffff1660e01b8152600401610d1e9493929190613266565b6020604051808303815f875af1158015610d3a573d5f5f3e3d5ffd5b505050506040513d601f19601f82011682018060405250810190610d5e91906132bd565b90505f60208751148015610d82575086806020019051810190610d819190613312565b5b90508015610e27577335d8949372d46b7a3d5a56006ae77b215fc69bc073ffffffffffffffffffffffffffffffffffffffff1663fd02ffb76040518163ffffffff1660e01b81526004015f604051808303815f87803b158015610de3575f5ffd5b505af1158015610df5573d5f5f3e3d5ffd5b505050506002805f6101000a81548160ff02191690836006811115610e1d57610e1c613126565b5b02179055506110bf565b5f73ffffffffffffffffffffffffffffffffffffffff1660036001015f9054906101000a900473ffffffffffffffffffffffffffffffffffffffff1673ffffffffffffffffffffffffffffffffffffffff1603610f27577335d8949372d46b7a3d5a56006ae77b215fc69bc073ffffffffffffffffffffffffffffffffffffffff1663d3e1ece2836040518263ffffffff1660e01b8152600401610ecb9190612d24565b5f604051808303815f87803b158015610ee2575f5ffd5b505af1158015610ef4573d5f5f3e3d5ffd5b50505050600160025f6101000a81548160ff02191690836006811115610f1d57610f1c613126565b5b02179055506110be565b5f610f3183611a19565b90505f8103610f6c576040517f0b4cb19900000000000000000000000000000000000000000000000000000000815260040160405180910390fd5b5f4703610fa5576040517fb8e5bc2500000000000000000000000000000000000000000000000000000000815260040160405180910390fd5b610fd360036001015f9054906101000a900473ffffffffffffffffffffffffffffffffffffffff1682611ab7565b61101660036001015f9054906101000a900473ffffffffffffffffffffffffffffffffffffffff167335d8949372d46b7a3d5a56006ae77b215fc69bc083611982565b7335d8949372d46b7a3d5a56006ae77b215fc69bc073ffffffffffffffffffffffffffffffffffffffff166313cfbb2484836040518363ffffffff1660e01b815260040161106592919061333d565b5f604051808303815f87803b15801561107c575f5ffd5b505af115801561108e573d5f5f3e3d5ffd5b50505050600360025f6101000a81548160ff021916908360068111156110b7576110b6613126565b5b0217905550505b5b5f6110ca8730611f48565b90505f85876110d99190613364565b90508060038001546110eb9190613364565b8211611123576040517f0b4cb19900000000000000000000000000000000000000000000000000000000815260040160405180910390fd5b5f816003800154840303905061114e8973ba12222222228d8ba445958a75a0704d566bf2c884612063565b8060015f82825461115f9190613364565b9250508190555060016002806101000a81548160ff0219169083151502179055505f60035f015f6101000a81548160ff02191690831515021790555050505050505050505050505050565b5f730594cb5ca47efe1ff25c7b8b43e221683b4db34c73ffffffffffffffffffffffffffffffffffffffff1663e16c7d98836040518263ffffffff1660e01b81526004016111f891906133af565b602060405180830381865afa92505050801561123257506040513d601f19601f8201168201806040525081019061122f91906133dc565b60015b61123e575f9050611243565b809150505b919050565b5f7335d8949372d46b7a3d5a56006ae77b215fc69bc073ffffffffffffffffffffffffffffffffffffffff16632a33d6b26040518163ffffffff1660e01b8152600401602060405180830381865afa9250505080156112c557506040513d601f19601f820116820180604052508101906112c291906132bd565b60015b6112d1575f90506112d6565b809150505b90565b5f7335d8949372d46b7a3d5a56006ae77b215fc69bc073ffffffffffffffffffffffffffffffffffffffff1663439f5ac26040518163ffffffff1660e01b8152600401602060405180830381865afa92505050801561135657506040513d601f19601f8201168201806040525081019061135391906132bd565b60015b611362575f9050611367565b809150505b90565b5f5f6040518061010001604052806a0422ca8b0a00a425000000815260200169d3c21bcecceda100000081526020016934f086f3b33b684000008152602001690a968163f0a57b400000815260200169021e19e0c9bab24000008152602001683635c9adc5dea00000815260200168056bc75e2d631000008152602001678ac7230489e8000081525090505f5f90505b600881101561149f575f82826008811061141757611416613153565b5b602002015190505f5f611429836121ad565b9150915081158061143957505f81145b1561144657505050611494565b5f8761145a5761145582612258565b61145c565b815b905083811161146e5750505050611494565b61147b895f86858c61228b565b1561148f57600196505050505050506114a5565b505050505b8060010190506113fa565b505f9150505b92915050565b5f5f47036114bb575f90506115c1565b5f6040518061010001604052806802b5e3af16b1880000815260200168015af1d78b58c400008152602001678ac7230489e800008152602001674563918244f400008152602001671bc16d674ec800008152602001670de0b6b3a764000081526020016706f05b59d3b2000081526020016703782dace9d9000081525090505f5f90505b60088110156115bb575f82826008811061155c5761155b613153565b5b602002015190505f5f61156e836121ad565b9150915081158061157f5750828111155b1561158c575050506115b0565b611599888885845f61228b565b156115ac576001955050505050506115c1565b5050505b80600101905061153f565b505f9150505b92915050565b5f5f6115d38630611f48565b90505f81036115e5575f91505061197a565b5f670de0b6b3a764000082116115fb5781611605565b670de0b6b3a76400005b9050611626877335d8949372d46b7a3d5a56006ae77b215fc69bc083611982565b7335d8949372d46b7a3d5a56006ae77b215fc69bc073ffffffffffffffffffffffffffffffffffffffff1663da39b3e782307f00000000000000000000000000000000000000000000000000000000000000006040518463ffffffff1660e01b815260040161169793929190613407565b5f604051808303815f87803b1580156116ae575f5ffd5b505af11580156116c0573d5f5f3e3d5ffd5b505050508315611788577335d8949372d46b7a3d5a56006ae77b215fc69bc073ffffffffffffffffffffffffffffffffffffffff1663fd02ffb76040518163ffffffff1660e01b81526004015f604051808303815f87803b158015611723575f5ffd5b505af1158015611735573d5f5f3e3d5ffd5b50505050600560025f6101000a81548160ff0219169083600681111561175e5761175d613126565b5b021790555060016002806101000a81548160ff02191690831515021790555060019250505061197a565b5f8514611858577335d8949372d46b7a3d5a56006ae77b215fc69bc073ffffffffffffffffffffffffffffffffffffffff1663d3e1ece2826040518263ffffffff1660e01b81526004016117dc9190612d24565b5f604051808303815f87803b1580156117f3575f5ffd5b505af1158015611805573d5f5f3e3d5ffd5b50505050600460025f6101000a81548160ff0219169083600681111561182e5761182d613126565b5b021790555060016002806101000a81548160ff02191690831515021790555060019250505061197a565b5f61186282611a19565b90505f61186f8830611f48565b90505f82141580156118815750818110155b15611972576118a5887335d8949372d46b7a3d5a56006ae77b215fc69bc084611982565b7335d8949372d46b7a3d5a56006ae77b215fc69bc073ffffffffffffffffffffffffffffffffffffffff166313cfbb2484846040518363ffffffff1660e01b81526004016118f492919061333d565b5f604051808303815f87803b15801561190b575f5ffd5b505af115801561191d573d5f5f3e3d5ffd5b50505050600660025f6101000a81548160ff0219169083600681111561194657611945613126565b5b021790555060016002806101000a81548160ff021916908315150217905550600194505050505061197a565b5f9450505050505b949350505050565b61198d83838361254b565b611a145761199c83835f61254b565b6119d2576040517f350c20f100000000000000000000000000000000000000000000000000000000815260040160405180910390fd5b6119dd83838361254b565b611a13576040517f350c20f100000000000000000000000000000000000000000000000000000000815260040160405180910390fd5b5b505050565b5f7335d8949372d46b7a3d5a56006ae77b215fc69bc073ffffffffffffffffffffffffffffffffffffffff166392abae00836040518263ffffffff1660e01b8152600401611a679190612d24565b602060405180830381865afa925050508015611aa157506040513d601f19601f82011682018060405250810190611a9e91906132bd565b60015b611aad575f9050611ab2565b809150505b919050565b5f611ac28330611f48565b90505f4790505f8103611b01576040517fb8e5bc2500000000000000000000000000000000000000000000000000000000815260040160405180910390fd5b73c02aaa39b223fe8d0a0e5c4f27ead9083c756cc273ffffffffffffffffffffffffffffffffffffffff1663d0e30db0826040518263ffffffff1660e01b81526004015f604051808303818588803b158015611b5b575f5ffd5b505af1158015611b6d573d5f5f3e3d5ffd5b50505050505f611b9173c02aaa39b223fe8d0a0e5c4f27ead9083c756cc230611f48565b9050611bc673c02aaa39b223fe8d0a0e5c4f27ead9083c756cc273e592427a0aece92de3edee1f18e0157c0586156483611982565b611bf973c02aaa39b223fe8d0a0e5c4f27ead9083c756cc2737a250d5630b4cf539739df2c5dacb4c659f2488d83611982565b611c2c73c02aaa39b223fe8d0a0e5c4f27ead9083c756cc273d9e1ce17f2641f24ae83637ab66a2cca9c378b9f83611982565b5f611c38868684612660565b905080611c6657611c6386868473a0b86991c6218b36c1d19d4a2e9eb0ce3606eb486101f480612834565b90505b80611c9457611c9186868473a0b86991c6218b36c1d19d4a2e9eb0ce3606eb48610bb86101f4612834565b90505b80611cc257611cbf86868473dac17f958d2ee523a2206206994597c13d831ec7610bb86101f4612834565b90505b80611cec57611ce9868684737a250d5630b4cf539739df2c5dacb4c659f2488d5f5f612956565b90505b80611d2b57611d28868684737a250d5630b4cf539739df2c5dacb4c659f2488d600173a0b86991c6218b36c1d19d4a2e9eb0ce3606eb48612956565b90505b80611d6a57611d67868684737a250d5630b4cf539739df2c5dacb4c659f2488d600173dac17f958d2ee523a2206206994597c13d831ec7612956565b90505b80611d9457611d9186868473d9e1ce17f2641f24ae83637ab66a2cca9c378b9f5f5f612956565b90505b80611dd357611dd086868473d9e1ce17f2641f24ae83637ab66a2cca9c378b9f600173a0b86991c6218b36c1d19d4a2e9eb0ce3606eb48612956565b90505b80611e1257611e0f86868473d9e1ce17f2641f24ae83637ab66a2cca9c378b9f600173dac17f958d2ee523a2206206994597c13d831ec7612956565b90505b80611e49576040517f350c20f100000000000000000000000000000000000000000000000000000000815260040160405180910390fd5b5f611e548730611f48565b90508585611e629190613364565b811015611e9b576040517f350c20f100000000000000000000000000000000000000000000000000000000815260040160405180910390fd5b5f611eba73c02aaa39b223fe8d0a0e5c4f27ead9083c756cc230611f48565b90505f8114611f3e5773c02aaa39b223fe8d0a0e5c4f27ead9083c756cc273ffffffffffffffffffffffffffffffffffffffff16632e1a7d4d826040518263ffffffff1660e01b8152600401611f109190612d24565b5f604051808303815f87803b158015611f27575f5ffd5b505af1158015611f39573d5f5f3e3d5ffd5b505050505b5050505050505050565b5f5f5f8473ffffffffffffffffffffffffffffffffffffffff166370a0823160e01b85604051602401611f7b9190612c30565b604051602081830303815290604052907bffffffffffffffffffffffffffffffffffffffffffffffffffffffff19166020820180517bffffffffffffffffffffffffffffffffffffffffffffffffffffffff8381831617835250505050604051611fe59190613480565b5f60405180830381855afa9150503d805f811461201d576040519150601f19603f3d011682016040523d82523d5f602084013e612022565b606091505b5091509150811580612035575060208151105b15612044575f9250505061205d565b8080602001905181019061205891906132bd565b925050505b92915050565b5f5f8473ffffffffffffffffffffffffffffffffffffffff1663a9059cbb60e01b8585604051602401612097929190613496565b604051602081830303815290604052907bffffffffffffffffffffffffffffffffffffffffffffffffffffffff19166020820180517bffffffffffffffffffffffffffffffffffffffffffffffffffffffff83818316178352505050506040516121019190613480565b5f604051808303815f865af19150503d805f811461213a576040519150601f19603f3d011682016040523d82523d5f602084013e61213f565b606091505b509150915081158061216f57505f81511415801561216e57508080602001905181019061216c9190613312565b155b5b156121a6576040517f350c20f100000000000000000000000000000000000000000000000000000000815260040160405180910390fd5b5050505050565b5f5f731d08e7adc263cfc70b1babe6dc5bb339c16eec5273ffffffffffffffffffffffffffffffffffffffff16635e0d443f5f6001866040518463ffffffff1660e01b8152600401612201939291906134bd565b602060405180830381865afa92505050801561223b57506040513d601f19601f8201168201806040525081019061223891906132bd565b60015b61224a575f5f91509150612253565b60018192509250505b915091565b5f5f612262611248565b9050670de0b6b3a7640000818461227991906131ad565b612283919061321b565b915050919050565b5f600160035f015f6101000a81548160ff0219169083151502179055508560035f0160016101000a81548173ffffffffffffffffffffffffffffffffffffffff021916908373ffffffffffffffffffffffffffffffffffffffff1602179055508460036001015f6101000a81548173ffffffffffffffffffffffffffffffffffffffff021916908373ffffffffffffffffffffffffffffffffffffffff160217905550826003600201819055506123428630611f48565b60038001819055505f600167ffffffffffffffff81111561236657612365612d52565b5b6040519080825280602002602001820160405280156123945781602001602082028036833780820191505090505b50905086815f815181106123ab576123aa613153565b5b602002602001019073ffffffffffffffffffffffffffffffffffffffff16908173ffffffffffffffffffffffffffffffffffffffff16815250505f600167ffffffffffffffff81111561240157612400612d52565b5b60405190808252806020026020018201604052801561242f5781602001602082028036833780820191505090505b50905085815f8151811061244657612445613153565b5b6020026020010181815250505f600154905073ba12222222228d8ba445958a75a0704d566bf2c873ffffffffffffffffffffffffffffffffffffffff16635c38449e3085858960405160200161249c9190612cf3565b6040516020818303038152906040526040518563ffffffff1660e01b81526004016124ca9493929190613703565b5f604051808303815f87803b1580156124e1575f5ffd5b505af19250505080156124f2575060015b61251c575f60035f015f6101000a81548160ff0219169083151502179055505f9350505050612542565b5f60035f015f6101000a81548160ff021916908315150217905550806001541193505050505b95945050505050565b5f5f5f8573ffffffffffffffffffffffffffffffffffffffff1663095ea7b360e01b8686604051602401612580929190613496565b604051602081830303815290604052907bffffffffffffffffffffffffffffffffffffffffffffffffffffffff19166020820180517bffffffffffffffffffffffffffffffffffffffffffffffffffffffff83818316178352505050506040516125ea9190613480565b5f604051808303815f865af19150503d805f8114612623576040519150601f19603f3d011682016040523d82523d5f602084013e612628565b606091505b509150915081801561265557505f815114806126545750808060200190518101906126539190613312565b5b5b925050509392505050565b5f5f6040518060800160405280606462ffffff1662ffffff1681526020016101f462ffffff1662ffffff168152602001610bb862ffffff1662ffffff16815260200161271062ffffff1662ffffff1681525090505f5f90505b60048110156128275773e592427a0aece92de3edee1f18e0157c0586156473ffffffffffffffffffffffffffffffffffffffff1663db3e219860405180610100016040528073c02aaa39b223fe8d0a0e5c4f27ead9083c756cc273ffffffffffffffffffffffffffffffffffffffff1681526020018973ffffffffffffffffffffffffffffffffffffffff16815260200185856004811061275d5761275c613153565b5b602002015162ffffff1681526020013073ffffffffffffffffffffffffffffffffffffffff1681526020014281526020018881526020018781526020015f73ffffffffffffffffffffffffffffffffffffffff168152506040518263ffffffff1660e01b81526004016127d09190613827565b6020604051808303815f875af192505050801561280b57506040513d601f19601f8201168201806040525081019061280891906132bd565b60015b1561281c576001935050505061282d565b8060010190506126b9565b505f9150505b9392505050565b5f5f8783868673c02aaa39b223fe8d0a0e5c4f27ead9083c756cc26040516020016128639594939291906138ba565b604051602081830303815290604052905073e592427a0aece92de3edee1f18e0157c0586156473ffffffffffffffffffffffffffffffffffffffff1663f28c04986040518060a001604052808481526020013073ffffffffffffffffffffffffffffffffffffffff1681526020014281526020018a8152602001898152506040518263ffffffff1660e01b81526004016128fd91906139d3565b6020604051808303815f875af192505050801561293857506040513d601f19601f8201168201806040525081019061293591906132bd565b60015b612945575f91505061294c565b6001925050505b9695505050505050565b5f5f836129ac57600267ffffffffffffffff81111561297857612977612d52565b5b6040519080825280602002602001820160405280156129a65781602001602082028036833780820191505090505b506129f7565b600367ffffffffffffffff8111156129c7576129c6612d52565b5b6040519080825280602002602001820160405280156129f55781602001602082028036833780820191505090505b505b905073c02aaa39b223fe8d0a0e5c4f27ead9083c756cc2815f81518110612a2157612a20613153565b5b602002602001019073ffffffffffffffffffffffffffffffffffffffff16908173ffffffffffffffffffffffffffffffffffffffff16815250508315612b04578281600181518110612a7657612a75613153565b5b602002602001019073ffffffffffffffffffffffffffffffffffffffff16908173ffffffffffffffffffffffffffffffffffffffff16815250508781600281518110612ac557612ac4613153565b5b602002602001019073ffffffffffffffffffffffffffffffffffffffff16908173ffffffffffffffffffffffffffffffffffffffff1681525050612b54565b8781600181518110612b1957612b18613153565b5b602002602001019073ffffffffffffffffffffffffffffffffffffffff16908173ffffffffffffffffffffffffffffffffffffffff16815250505b8473ffffffffffffffffffffffffffffffffffffffff16638803dbee88888430426040518663ffffffff1660e01b8152600401612b959594939291906139f3565b5f604051808303815f875af1925050508015612bd357506040513d5f823e3d601f19601f82011682018060405250810190612bd09190613ae0565b60015b612be0575f915050612be7565b6001925050505b9695505050505050565b5f73ffffffffffffffffffffffffffffffffffffffff82169050919050565b5f612c1a82612bf1565b9050919050565b612c2a81612c10565b82525050565b5f602082019050612c435f830184612c21565b92915050565b5f81519050919050565b5f82825260208201905092915050565b8281835e5f83830152505050565b5f601f19601f8301169050919050565b5f612c8b82612c49565b612c958185612c53565b9350612ca5818560208601612c63565b612cae81612c71565b840191505092915050565b5f6020820190508181035f830152612cd18184612c81565b905092915050565b5f8115159050919050565b612ced81612cd9565b82525050565b5f602082019050612d065f830184612ce4565b92915050565b5f819050919050565b612d1e81612d0c565b82525050565b5f602082019050612d375f830184612d15565b92915050565b5f604051905090565b5f5ffd5b5f5ffd5b5f5ffd5b7f4e487b71000000000000000000000000000000000000000000000000000000005f52604160045260245ffd5b612d8882612c71565b810181811067ffffffffffffffff82111715612da757612da6612d52565b5b80604052505050565b5f612db9612d3d565b9050612dc58282612d7f565b919050565b5f67ffffffffffffffff821115612de457612de3612d52565b5b602082029050602081019050919050565b5f5ffd5b612e0281612c10565b8114612e0c575f5ffd5b50565b5f81359050612e1d81612df9565b92915050565b5f612e35612e3084612dca565b612db0565b90508083825260208201905060208402830185811115612e5857612e57612df5565b5b835b81811015612e815780612e6d8882612e0f565b845260208401935050602081019050612e5a565b5050509392505050565b5f82601f830112612e9f57612e9e612d4e565b5b8135612eaf848260208601612e23565b91505092915050565b5f67ffffffffffffffff821115612ed257612ed1612d52565b5b602082029050602081019050919050565b612eec81612d0c565b8114612ef6575f5ffd5b50565b5f81359050612f0781612ee3565b92915050565b5f612f1f612f1a84612eb8565b612db0565b90508083825260208201905060208402830185811115612f4257612f41612df5565b5b835b81811015612f6b5780612f578882612ef9565b845260208401935050602081019050612f44565b5050509392505050565b5f82601f830112612f8957612f88612d4e565b5b8135612f99848260208601612f0d565b91505092915050565b5f5ffd5b5f67ffffffffffffffff821115612fc057612fbf612d52565b5b612fc982612c71565b9050602081019050919050565b828183375f83830152505050565b5f612ff6612ff184612fa6565b612db0565b90508281526020810184848401111561301257613011612fa2565b5b61301d848285612fd6565b509392505050565b5f82601f83011261303957613038612d4e565b5b8135613049848260208601612fe4565b91505092915050565b5f5f5f5f6080858703121561306a57613069612d46565b5b5f85013567ffffffffffffffff81111561308757613086612d4a565b5b61309387828801612e8b565b945050602085013567ffffffffffffffff8111156130b4576130b3612d4a565b5b6130c087828801612f75565b935050604085013567ffffffffffffffff8111156130e1576130e0612d4a565b5b6130ed87828801612f75565b925050606085013567ffffffffffffffff81111561310e5761310d612d4a565b5b61311a87828801613025565b91505092959194509250565b7f4e487b71000000000000000000000000000000000000000000000000000000005f52602160045260245ffd5b7f4e487b71000000000000000000000000000000000000000000000000000000005f52603260045260245ffd5b7f4e487b71000000000000000000000000000000000000000000000000000000005f52601160045260245ffd5b5f6131b782612d0c565b91506131c283612d0c565b92508282026131d081612d0c565b915082820484148315176131e7576131e6613180565b5b5092915050565b7f4e487b71000000000000000000000000000000000000000000000000000000005f52601260045260245ffd5b5f61322582612d0c565b915061323083612d0c565b9250826132405761323f6131ee565b5b828204905092915050565b5f81600f0b9050919050565b6132608161324b565b82525050565b5f6080820190506132795f830187613257565b6132866020830186613257565b6132936040830185612d15565b6132a06060830184612d15565b95945050505050565b5f815190506132b781612ee3565b92915050565b5f602082840312156132d2576132d1612d46565b5b5f6132df848285016132a9565b91505092915050565b6132f181612cd9565b81146132fb575f5ffd5b50565b5f8151905061330c816132e8565b92915050565b5f6020828403121561332757613326612d46565b5b5f613334848285016132fe565b91505092915050565b5f6040820190506133505f830185612d15565b61335d6020830184612d15565b9392505050565b5f61336e82612d0c565b915061337983612d0c565b925082820190508082111561339157613390613180565b5b92915050565b5f819050919050565b6133a981613397565b82525050565b5f6020820190506133c25f8301846133a0565b92915050565b5f815190506133d681612df9565b92915050565b5f602082840312156133f1576133f0612d46565b5b5f6133fe848285016133c8565b91505092915050565b5f60608201905061341a5f830186612d15565b6134276020830185612c21565b6134346040830184612c21565b949350505050565b5f81519050919050565b5f81905092915050565b5f61345a8261343c565b6134648185613446565b9350613474818560208601612c63565b80840191505092915050565b5f61348b8284613450565b915081905092915050565b5f6040820190506134a95f830185612c21565b6134b66020830184612d15565b9392505050565b5f6060820190506134d05f830186613257565b6134dd6020830185613257565b6134ea6040830184612d15565b949350505050565b5f819050919050565b5f61351561351061350b84612bf1565b6134f2565b612bf1565b9050919050565b5f613526826134fb565b9050919050565b5f6135378261351c565b9050919050565b6135478161352d565b82525050565b5f81519050919050565b5f82825260208201905092915050565b5f819050602082019050919050565b61357f81612c10565b82525050565b5f6135908383613576565b60208301905092915050565b5f602082019050919050565b5f6135b28261354d565b6135bc8185613557565b93506135c783613567565b805f5b838110156135f75781516135de8882613585565b97506135e98361359c565b9250506001810190506135ca565b5085935050505092915050565b5f81519050919050565b5f82825260208201905092915050565b5f819050602082019050919050565b61363681612d0c565b82525050565b5f613647838361362d565b60208301905092915050565b5f602082019050919050565b5f61366982613604565b613673818561360e565b935061367e8361361e565b805f5b838110156136ae578151613695888261363c565b97506136a083613653565b925050600181019050613681565b5085935050505092915050565b5f82825260208201905092915050565b5f6136d58261343c565b6136df81856136bb565b93506136ef818560208601612c63565b6136f881612c71565b840191505092915050565b5f6080820190506137165f83018761353e565b818103602083015261372881866135a8565b9050818103604083015261373c818561365f565b9050818103606083015261375081846136cb565b905095945050505050565b5f62ffffff82169050919050565b6137728161375b565b82525050565b61378181612bf1565b82525050565b61010082015f82015161379c5f850182613576565b5060208201516137af6020850182613576565b5060408201516137c26040850182613769565b5060608201516137d56060850182613576565b5060808201516137e8608085018261362d565b5060a08201516137fb60a085018261362d565b5060c082015161380e60c085018261362d565b5060e082015161382160e0850182613778565b50505050565b5f6101008201905061383b5f830184613787565b92915050565b5f8160601b9050919050565b5f61385782613841565b9050919050565b5f6138688261384d565b9050919050565b61388061387b82612c10565b61385e565b82525050565b5f8160e81b9050919050565b5f61389c82613886565b9050919050565b6138b46138af8261375b565b613892565b82525050565b5f6138c5828861386f565b6014820191506138d582876138a3565b6003820191506138e5828661386f565b6014820191506138f582856138a3565b600382019150613905828461386f565b6014820191508190509695505050505050565b5f82825260208201905092915050565b5f6139328261343c565b61393c8185613918565b935061394c818560208601612c63565b61395581612c71565b840191505092915050565b5f60a083015f8301518482035f86015261397a8282613928565b915050602083015161398f6020860182613576565b5060408301516139a2604086018261362d565b5060608301516139b5606086018261362d565b5060808301516139c8608086018261362d565b508091505092915050565b5f6020820190508181035f8301526139eb8184613960565b905092915050565b5f60a082019050613a065f830188612d15565b613a136020830187612d15565b8181036040830152613a2581866135a8565b9050613a346060830185612c21565b613a416080830184612d15565b9695505050505050565b5f613a5d613a5884612eb8565b612db0565b90508083825260208201905060208402830185811115613a8057613a7f612df5565b5b835b81811015613aa95780613a9588826132a9565b845260208401935050602081019050613a82565b5050509392505050565b5f82601f830112613ac757613ac6612d4e565b5b8151613ad7848260208601613a4b565b91505092915050565b5f60208284031215613af557613af4612d46565b5b5f82015167ffffffffffffffff811115613b1257613b11612d4a565b5b613b1e84828501613ab3565b9150509291505056fe6d696e742073706c697420726563697069656e7473202d3e20625553443020686f6c646572207573657320756e6c6f636b55534430707057697468557375616c7365636f6e646172792d6d61726b65742d62555344302d6275796572202d3e20756e6c6f636b557364307070466c6f6f7250726963656d696e742073706c697420726563697069656e7473202d3e20625553443020686f6c646572207573657320756e6c6f636b557364307070466c6f6f7250726963657365636f6e646172792d6d61726b65742d62555344302d6275796572202d3e20756e777261706d696e742073706c697420726563697069656e7473202d3e20625553443020686f6c646572207573657320756e777261707365636f6e646172792d6d61726b65742d62555344302d6275796572202d3e20756e6c6f636b55534430707057697468557375616ca264697066735822122095a05fc7d7c41eb103fbe59c5563577ec5c0967a7a524e2294980ad76c86255264736f6c634300081e00336080604052348015600e575f5ffd5b50604480601a5f395ff3fe608060405236600a57005b5f5ffdfea2646970667358221220b190d920c77211de878964dd12993482d270730ec6e0aba065ebb4511ab20c8464736f6c634300081e0033","linkReferences":{}},"methodIdentifiers":{"BALANCER_VAULT()":"bc163846","CURVE_POOL_USD0_USD0PP()":"87376572","REGISTRY()":"06433b1b","TARGET()":"cc1f2afa","executeOnOpportunity()":"3c2448ed","hypothesisValidated()":"463defd1","orphanRtHolder()":"1a0c9259","pathUsed()":"7283898d","profitAmount()":"5ff972cc","profitToken()":"49343624","receiveFlashLoan(address[],uint256[],uint256[],bytes)":"f04f2707","status()":"200d2ed2"},"id":0}