{"abi":[{"type":"constructor","inputs":[],"stateMutability":"nonpayable"},{"type":"receive","stateMutability":"payable"},{"type":"function","name":"callFunction","inputs":[{"name":"sender","type":"address","internalType":"address"},{"name":"","type":"tuple","internalType":"struct AccountInfo","components":[{"name":"owner","type":"address","internalType":"address"},{"name":"number","type":"uint256","internalType":"uint256"}]},{"name":"data","type":"bytes","internalType":"bytes"}],"outputs":[],"stateMutability":"nonpayable"},{"type":"function","name":"executeFlashLoan","inputs":[{"name":"loanAmount","type":"uint256","internalType":"uint256"}],"outputs":[],"stateMutability":"nonpayable"},{"type":"function","name":"executeOnOpportunity","inputs":[],"outputs":[],"stateMutability":"nonpayable"},{"type":"function","name":"executeWithHeldWeth","inputs":[{"name":"suppliedWeth","type":"uint256","internalType":"uint256"}],"outputs":[],"stateMutability":"nonpayable"},{"type":"function","name":"profitAmount","inputs":[],"outputs":[{"name":"","type":"uint256","internalType":"uint256"}],"stateMutability":"view"},{"type":"function","name":"profitToken","inputs":[],"outputs":[{"name":"","type":"address","internalType":"address"}],"stateMutability":"view"},{"type":"function","name":"tokensReceived","inputs":[{"name":"","type":"address","internalType":"address"},{"name":"from","type":"address","internalType":"address"},{"name":"to","type":"address","internalType":"address"},{"name":"","type":"uint256","internalType":"uint256"},{"name":"","type":"bytes","internalType":"bytes"},{"name":"","type":"bytes","internalType":"bytes"}],"outputs":[],"stateMutability":"nonpayable"},{"type":"function","name":"tokensToSend","inputs":[{"name":"","type":"address","internalType":"address"},{"name":"","type":"address","internalType":"address"},{"name":"","type":"address","internalType":"address"},{"name":"","type":"uint256","internalType":"uint256"},{"name":"","type":"bytes","internalType":"bytes"},{"name":"","type":"bytes","internalType":"bytes"}],"outputs":[],"stateMutability":"nonpayable"}],"bytecode":{"object":"0x608060405234801561000f575f5ffd5b5061001e61002360201b60201c565b6101ed565b731820a4b7618bde71dce8cdc73aab6c95905fad2473ffffffffffffffffffffffffffffffffffffffff166329965a1d307f29ddb589b1fb5fc7cf394961c1adf5f8c6454761adf795e67fe149f658abe895306040518463ffffffff1660e01b8152600401610094939291906101b8565b5f604051808303815f87803b1580156100ab575f5ffd5b505af11580156100bd573d5f5f3e3d5ffd5b50505050731820a4b7618bde71dce8cdc73aab6c95905fad2473ffffffffffffffffffffffffffffffffffffffff166329965a1d307fb281fc8c12954d22544db45de3159a39272895b169a852b314f9cc762e44c53b306040518463ffffffff1660e01b8152600401610132939291906101b8565b5f604051808303815f87803b158015610149575f5ffd5b505af115801561015b573d5f5f3e3d5ffd5b50505050565b5f73ffffffffffffffffffffffffffffffffffffffff82169050919050565b5f61018a82610161565b9050919050565b61019a81610180565b82525050565b5f819050919050565b6101b2816101a0565b82525050565b5f6060820190506101cb5f830186610191565b6101d860208301856101a9565b6101e56040830184610191565b949350505050565b614101806101fa5f395ff3fe60806040526004361061007d575f3560e01c80635ff972cc1161004d5780635ff972cc1461011857806375ab9782146101425780638b4187131461016a578063fb056f681461019257610084565b806223de29146100885780633c2448ed146100b0578063448922fd146100c657806349343624146100ee57610084565b3661008457005b5f5ffd5b348015610093575f5ffd5b506100ae60048036038101906100a99190612f97565b6101ba565b005b3480156100bb575f5ffd5b506100c461038b565b005b3480156100d1575f5ffd5b506100ec60048036038101906100e79190613061565b6105fd565b005b3480156100f9575f5ffd5b50610102610768565b60405161010f919061309b565b60405180910390f35b348015610123575f5ffd5b5061012c610790565b60405161013991906130c3565b60405180910390f35b34801561014d575f5ffd5b5061016860048036038101906101639190612f97565b610799565b005b348015610175575f5ffd5b50610190600480360381019061018b91906130fe565b6107a3565b005b34801561019d575f5ffd5b506101b860048036038101906101b39190613061565b6109e6565b005b5f60029054906101000a900473ffffffffffffffffffffffffffffffffffffffff1673ffffffffffffffffffffffffffffffffffffffff163373ffffffffffffffffffffffffffffffffffffffff1614158061024757506001808111156102245761022361316f565b5b5f5f9054906101000a900460ff1660018111156102445761024361316f565b5b14155b61038157730eee3e3828a45f7601d5f54bf49bb01d1a9df5ea73ffffffffffffffffffffffffffffffffffffffff168773ffffffffffffffffffffffffffffffffffffffff161415806102c657503073ffffffffffffffffffffffffffffffffffffffff168673ffffffffffffffffffffffffffffffffffffffff1614155b610381576001600254111561035057600160025f82825403925050819055505f6103135f60029054906101000a900473ffffffffffffffffffffffffffffffffffffffff16600154610a68565b90508061034a575f6002819055505f5f5f6101000a81548160ff021916908360018111156103445761034361316f565b5b02179055505b50610380565b5f6002819055505f5f5f6101000a81548160ff0219169083600181111561037a5761037961316f565b5b02179055505b5b5050505050505050565b5f60019054906101000a900460ff166105fb5760015f60016101000a81548160ff0219169083151502179055506103c0610b72565b5f60045f6101000a81548173ffffffffffffffffffffffffffffffffffffffff021916908373ffffffffffffffffffffffffffffffffffffffff1602179055505f600581905550610424733212b29e33587a00fb1c83346f5dbfa69a458923610cb0565b158061044a575061044873c02aaa39b223fe8d0a0e5c4f27ead9083c756cc2610cb0565b155b6105fb575f731e0447b19bb6ecfdae1e4ae1694b0c3659614e4e73ffffffffffffffffffffffffffffffffffffffff163b03156105fb5761049e73c02aaa39b223fe8d0a0e5c4f27ead9083c756cc2610d52565b6003819055507fffffffffffffffffffffffffffffffffffffffffffffffffffffffffffffffff60035403156105fb575f73c02aaa39b223fe8d0a0e5c4f27ead9083c756cc273ffffffffffffffffffffffffffffffffffffffff166370a08231306040518263ffffffff1660e01b815260040161051c919061309b565b602060405180830381865afa158015610537573d5f5f3e3d5ffd5b505050506040513d601f19601f8201168201806040525081019061055b91906131b0565b90505f81111561058b5761056e81610ef2565b670186cc6acd4b000061057f610fe1565b1061058a57506105fb565b5b61059d68056bc75e2d63100000611141565b670186cc6acd4b00006105ae610fe1565b106105b957506105fb565b6105cb680d8d726b7177a80000611141565b670186cc6acd4b00006105dc610fe1565b106105e757506105fb565b6105f9681b1ae4d6e2ef500000611141565b505b565b3073ffffffffffffffffffffffffffffffffffffffff163373ffffffffffffffffffffffffffffffffffffffff161461066b576040517f08c379a000000000000000000000000000000000000000000000000000000000815260040161066290613235565b60405180910390fd5b5f73c02aaa39b223fe8d0a0e5c4f27ead9083c756cc273ffffffffffffffffffffffffffffffffffffffff166370a08231306040518263ffffffff1660e01b81526004016106b9919061309b565b602060405180830381865afa1580156106d4573d5f5f3e3d5ffd5b505050506040513d601f19601f820116820180604052508101906106f891906131b0565b90508181101561073d576040517f08c379a00000000000000000000000000000000000000000000000000000000081526004016107349061329d565b60405180910390fd5b5f61074783611230565b9050610752816112e9565b61075b8161179a565b610763611811565b505050565b5f60045f9054906101000a900473ffffffffffffffffffffffffffffffffffffffff16905090565b5f600554905090565b5050505050505050565b731e0447b19bb6ecfdae1e4ae1694b0c3659614e4e73ffffffffffffffffffffffffffffffffffffffff163373ffffffffffffffffffffffffffffffffffffffff1614610825576040517f08c379a000000000000000000000000000000000000000000000000000000000815260040161081c90613305565b60405180910390fd5b3073ffffffffffffffffffffffffffffffffffffffff168473ffffffffffffffffffffffffffffffffffffffff1614610893576040517f08c379a000000000000000000000000000000000000000000000000000000000815260040161088a9061336d565b60405180910390fd5b5f82828101906108a39190613061565b90508073c02aaa39b223fe8d0a0e5c4f27ead9083c756cc273ffffffffffffffffffffffffffffffffffffffff166370a08231306040518263ffffffff1660e01b81526004016108f3919061309b565b602060405180830381865afa15801561090e573d5f5f3e3d5ffd5b505050506040513d601f19601f8201168201806040525081019061093291906131b0565b1015610973576040517f08c379a000000000000000000000000000000000000000000000000000000000815260040161096a906133d5565b60405180910390fd5b5f6002826109819190613420565b90505f61098d83611230565b9050610998816112e9565b6109a18161179a565b6109aa82611a8c565b6109dd73c02aaa39b223fe8d0a0e5c4f27ead9083c756cc2731e0447b19bb6ecfdae1e4ae1694b0c3659614e4e8461202c565b50505050505050565b3073ffffffffffffffffffffffffffffffffffffffff163373ffffffffffffffffffffffffffffffffffffffff1614610a54576040517f08c379a0000000000000000000000000000000000000000000000000000000008152600401610a4b90613235565b60405180910390fd5b610a5d81612193565b610a65611811565b50565b5f5f5f730eee3e3828a45f7601d5f54bf49bb01d1a9df5ea73ffffffffffffffffffffffffffffffffffffffff16634b8a352960e01b8686604051602401610ab1929190613453565b604051602081830303815290604052907bffffffffffffffffffffffffffffffffffffffffffffffffffffffff19166020820180517bffffffffffffffffffffffffffffffffffffffffffffffffffffffff8381831617835250505050604051610b1b91906134cc565b5f604051808303815f865af19150503d805f8114610b54576040519150601f19603f3d011682016040523d82523d5f602084013e610b59565b606091505b5091509150610b688282612396565b9250505092915050565b731820a4b7618bde71dce8cdc73aab6c95905fad2473ffffffffffffffffffffffffffffffffffffffff166329965a1d307f29ddb589b1fb5fc7cf394961c1adf5f8c6454761adf795e67fe149f658abe895306040518463ffffffff1660e01b8152600401610be3939291906134fa565b5f604051808303815f87803b158015610bfa575f5ffd5b505af1158015610c0c573d5f5f3e3d5ffd5b50505050731820a4b7618bde71dce8cdc73aab6c95905fad2473ffffffffffffffffffffffffffffffffffffffff166329965a1d307fb281fc8c12954d22544db45de3159a39272895b169a852b314f9cc762e44c53b306040518463ffffffff1660e01b8152600401610c81939291906134fa565b5f604051808303815f87803b158015610c98575f5ffd5b505af1158015610caa573d5f5f3e3d5ffd5b50505050565b5f5f730eee3e3828a45f7601d5f54bf49bb01d1a9df5ea73ffffffffffffffffffffffffffffffffffffffff16638e8f294b846040518263ffffffff1660e01b8152600401610cff919061309b565b61012060405180830381865afa158015610d1b573d5f5f3e3d5ffd5b505050506040513d601f19601f82011682018060405250810190610d3f9190613578565b5050505050505050905080915050919050565b5f5f731e0447b19bb6ecfdae1e4ae1694b0c3659614e4e73ffffffffffffffffffffffffffffffffffffffff1663295c39a56040518163ffffffff1660e01b8152600401602060405180830381865afa158015610db1573d5f5f3e3d5ffd5b505050506040513d601f19601f82011682018060405250810190610dd591906131b0565b90506010811115610de557601090505b5f5f90505b81811015610ec7578373ffffffffffffffffffffffffffffffffffffffff16731e0447b19bb6ecfdae1e4ae1694b0c3659614e4e73ffffffffffffffffffffffffffffffffffffffff1663062bd3e9836040518263ffffffff1660e01b8152600401610e5691906130c3565b602060405180830381865afa158015610e71573d5f5f3e3d5ffd5b505050506040513d601f19601f82011682018060405250810190610e95919061363c565b73ffffffffffffffffffffffffffffffffffffffff1603610eba578092505050610eed565b8080600101915050610dea565b507fffffffffffffffffffffffffffffffffffffffffffffffffffffffffffffffff9150505b919050565b5f3073ffffffffffffffffffffffffffffffffffffffff1663448922fd60e01b83604051602401610f2391906130c3565b604051602081830303815290604052907bffffffffffffffffffffffffffffffffffffffffffffffffffffffff19166020820180517bffffffffffffffffffffffffffffffffffffffffffffffffffffffff8381831617835250505050604051610f8d91906134cc565b5f604051808303815f865af19150503d805f8114610fc6576040519150601f19603f3d011682016040523d82523d5f602084013e610fcb565b606091505b5050905080610fdd57610fdc611811565b5b5050565b5f610fea6123d1565b5f73c02aaa39b223fe8d0a0e5c4f27ead9083c756cc273ffffffffffffffffffffffffffffffffffffffff166370a08231306040518263ffffffff1660e01b8152600401611038919061309b565b602060405180830381865afa158015611053573d5f5f3e3d5ffd5b505050506040513d601f19601f8201168201806040525081019061107791906131b0565b90505f733212b29e33587a00fb1c83346f5dbfa69a45892373ffffffffffffffffffffffffffffffffffffffff166370a08231306040518263ffffffff1660e01b81526004016110c7919061309b565b602060405180830381865afa1580156110e2573d5f5f3e3d5ffd5b505050506040513d601f19601f8201168201806040525081019061110691906131b0565b90505f611127733212b29e33587a00fb1c83346f5dbfa69a45892383612452565b9050808310156111375780611139565b825b935050505090565b5f3073ffffffffffffffffffffffffffffffffffffffff1663fb056f6860e01b8360405160240161117291906130c3565b604051602081830303815290604052907bffffffffffffffffffffffffffffffffffffffffffffffffffffffff19166020820180517bffffffffffffffffffffffffffffffffffffffffffffffffffffffff83818316178352505050506040516111dc91906134cc565b5f604051808303815f865af19150503d805f8114611215576040519150601f19603f3d011682016040523d82523d5f602084013e61121a565b606091505b505090508061122c5761122b611811565b5b5050565b5f81905061128773c02aaa39b223fe8d0a0e5c4f27ead9083c756cc2730eee3e3828a45f7601d5f54bf49bb01d1a9df5ea7fffffffffffffffffffffffffffffffffffffffffffffffffffffffffffffffff61202c565b6112a573c02aaa39b223fe8d0a0e5c4f27ead9083c756cc282612521565b6112e4576040517f08c379a00000000000000000000000000000000000000000000000000000000081526004016112db906136b1565b60405180910390fd5b919050565b5f733212b29e33587a00fb1c83346f5dbfa69a45892373ffffffffffffffffffffffffffffffffffffffff166370a08231730eee3e3828a45f7601d5f54bf49bb01d1a9df5ea6040518263ffffffff1660e01b815260040161134b919061309b565b602060405180830381865afa158015611366573d5f5f3e3d5ffd5b505050506040513d601f19601f8201168201806040525081019061138a91906131b0565b9050600181116113cf576040517f08c379a00000000000000000000000000000000000000000000000000000000081526004016113c690613719565b60405180910390fd5b5f6113ee733212b29e33587a00fb1c83346f5dbfa69a4589238461262b565b90505f8111611432576040517f08c379a000000000000000000000000000000000000000000000000000000000815260040161142990613781565b60405180910390fd5b5f600260186114419190613420565b8261144c91906137cc565b90505f60188461145c91906137cc565b90505f82148061147757505f811415801561147657508181105b5b15611480578091505b5f82036114975760188361149491906137cc565b91505b5f82036114a357600191505b838211156114af578391505b5f82856114bc91906137cc565b905060188111156114cc57601890505b6002811015611510576040517f08c379a000000000000000000000000000000000000000000000000000000000815260040161150790613846565b60405180910390fd5b733212b29e33587a00fb1c83346f5dbfa69a4589235f60026101000a81548173ffffffffffffffffffffffffffffffffffffffff021916908373ffffffffffffffffffffffffffffffffffffffff160217905550826001819055508060028190555060015f5f6101000a81548160ff021916908360018111156115965761159561316f565b5b02179055505f733212b29e33587a00fb1c83346f5dbfa69a45892373ffffffffffffffffffffffffffffffffffffffff166370a08231306040518263ffffffff1660e01b81526004016115e9919061309b565b602060405180830381865afa158015611604573d5f5f3e3d5ffd5b505050506040513d601f19601f8201168201806040525081019061162891906131b0565b90505f611649733212b29e33587a00fb1c83346f5dbfa69a45892386610a68565b90505f5f5f6101000a81548160ff0219169083600181111561166e5761166d61316f565b5b0217905550806116b3576040517f08c379a00000000000000000000000000000000000000000000000000000000081526004016116aa906138ae565b60405180910390fd5b5f733212b29e33587a00fb1c83346f5dbfa69a45892373ffffffffffffffffffffffffffffffffffffffff166370a08231306040518263ffffffff1660e01b8152600401611701919061309b565b602060405180830381865afa15801561171c573d5f5f3e3d5ffd5b505050506040513d601f19601f8201168201806040525081019061174091906131b0565b9050858361174e9190613420565b811161178f576040517f08c379a000000000000000000000000000000000000000000000000000000000815260040161178690613916565b60405180910390fd5b505050505050505050565b5f8190505f8290505b5f821180156117b157505f81115b1561180c57818111156117c2578190505b6117e073c02aaa39b223fe8d0a0e5c4f27ead9083c756cc282612977565b156117f85780826117f19190613934565b91506117a3565b60028161180591906137cc565b90506117a3565b505050565b6118196123d1565b5f73c02aaa39b223fe8d0a0e5c4f27ead9083c756cc273ffffffffffffffffffffffffffffffffffffffff166370a08231306040518263ffffffff1660e01b8152600401611867919061309b565b602060405180830381865afa158015611882573d5f5f3e3d5ffd5b505050506040513d601f19601f820116820180604052508101906118a691906131b0565b90505f8190505f733212b29e33587a00fb1c83346f5dbfa69a45892373ffffffffffffffffffffffffffffffffffffffff166370a08231306040518263ffffffff1660e01b81526004016118fa919061309b565b602060405180830381865afa158015611915573d5f5f3e3d5ffd5b505050506040513d601f19601f8201168201806040525081019061193991906131b0565b90505f61195a733212b29e33587a00fb1c83346f5dbfa69a45892383612452565b90505f8314801561196a57505f81145b156119bf575f60045f6101000a81548173ffffffffffffffffffffffffffffffffffffffff021916908373ffffffffffffffffffffffffffffffffffffffff1602179055505f60058190555050505050611a8a565b808310611a2a5773c02aaa39b223fe8d0a0e5c4f27ead9083c756cc260045f6101000a81548173ffffffffffffffffffffffffffffffffffffffff021916908373ffffffffffffffffffffffffffffffffffffffff1602179055508360058190555050505050611a8a565b733212b29e33587a00fb1c83346f5dbfa69a45892360045f6101000a81548173ffffffffffffffffffffffffffffffffffffffff021916908373ffffffffffffffffffffffffffffffffffffffff16021790555081600581905550505050505b565b5f73c02aaa39b223fe8d0a0e5c4f27ead9083c756cc273ffffffffffffffffffffffffffffffffffffffff166370a08231306040518263ffffffff1660e01b8152600401611ada919061309b565b602060405180830381865afa158015611af5573d5f5f3e3d5ffd5b505050506040513d601f19601f82011682018060405250810190611b1991906131b0565b9050818110611b285750612029565b5f73c0a47dfe034b400b47bdad5fecda2621de6c4d9573ffffffffffffffffffffffffffffffffffffffff166306f2bf62733212b29e33587a00fb1c83346f5dbfa69a4589236040518263ffffffff1660e01b8152600401611b8a919061309b565b602060405180830381865afa158015611ba5573d5f5f3e3d5ffd5b505050506040513d601f19601f82011682018060405250810190611bc9919061363c565b90505f73ffffffffffffffffffffffffffffffffffffffff168173ffffffffffffffffffffffffffffffffffffffff1603611c39576040517f08c379a0000000000000000000000000000000000000000000000000000000008152600401611c30906139b1565b60405180910390fd5b5f733212b29e33587a00fb1c83346f5dbfa69a45892373ffffffffffffffffffffffffffffffffffffffff166370a08231306040518263ffffffff1660e01b8152600401611c87919061309b565b602060405180830381865afa158015611ca2573d5f5f3e3d5ffd5b505050506040513d601f19601f82011682018060405250810190611cc691906131b0565b90505f8111611d0a576040517f08c379a0000000000000000000000000000000000000000000000000000000008152600401611d0190613a19565b60405180910390fd5b611d49733212b29e33587a00fb1c83346f5dbfa69a458923837fffffffffffffffffffffffffffffffffffffffffffffffffffffffffffffffff61202c565b5f61100082611d5891906137cc565b90505f8103611d6657600190505b5f5f90505b600c811015611f525773c02aaa39b223fe8d0a0e5c4f27ead9083c756cc273ffffffffffffffffffffffffffffffffffffffff166370a08231306040518263ffffffff1660e01b8152600401611dc1919061309b565b602060405180830381865afa158015611ddc573d5f5f3e3d5ffd5b505050506040513d601f19601f82011682018060405250810190611e0091906131b0565b945085851015611f5257733212b29e33587a00fb1c83346f5dbfa69a45892373ffffffffffffffffffffffffffffffffffffffff166370a08231306040518263ffffffff1660e01b8152600401611e57919061309b565b602060405180830381865afa158015611e72573d5f5f3e3d5ffd5b505050506040513d601f19601f82011682018060405250810190611e9691906131b0565b92505f830315611f525782821115611eac578291505b8373ffffffffffffffffffffffffffffffffffffffff166395e3c50b8360018042611ed79190613420565b6040518463ffffffff1660e01b8152600401611ef593929190613a79565b6020604051808303815f875af1158015611f11573d5f5f3e3d5ffd5b505050506040513d601f19601f82011682018060405250810190611f3591906131b0565b50611f3e6123d1565b600182901b91508080600101915050611d6b565b5073c02aaa39b223fe8d0a0e5c4f27ead9083c756cc273ffffffffffffffffffffffffffffffffffffffff166370a08231306040518263ffffffff1660e01b8152600401611fa0919061309b565b602060405180830381865afa158015611fbb573d5f5f3e3d5ffd5b505050506040513d601f19601f82011682018060405250810190611fdf91906131b0565b935084841015612024576040517f08c379a000000000000000000000000000000000000000000000000000000000815260040161201b90613af8565b60405180910390fd5b505050505b50565b5f5f8473ffffffffffffffffffffffffffffffffffffffff168484604051602401612058929190613453565b6040516020818303038152906040527f095ea7b3000000000000000000000000000000000000000000000000000000007bffffffffffffffffffffffffffffffffffffffffffffffffffffffff19166020820180517bffffffffffffffffffffffffffffffffffffffffffffffffffffffff83818316178352505050506040516120e291906134cc565b5f604051808303815f865af19150503d805f811461211b576040519150601f19603f3d011682016040523d82523d5f602084013e612120565b606091505b509150915081801561214d57505f8151148061214c57508080602001905181019061214b9190613b16565b5b5b61218c576040517f08c379a000000000000000000000000000000000000000000000000000000000815260040161218390613b8b565b60405180910390fd5b5050505050565b5f600167ffffffffffffffff8111156121af576121ae613ba9565b5b6040519080825280602002602001820160405280156121e857816020015b6121d5612dbc565b8152602001906001900390816121cd5790505b50905060405180604001604052803073ffffffffffffffffffffffffffffffffffffffff1681526020015f815250815f8151811061222957612228613bd6565b5b60200260200101819052505f600367ffffffffffffffff8111156122505761224f613ba9565b5b60405190808252806020026020018201604052801561228957816020015b612276612dea565b81526020019060019003908161226e5790505b50905061229860035484612a81565b815f815181106122ab576122aa613bd6565b5b60200260200101819052506122bf83612b48565b816001815181106122d3576122d2613bd6565b5b60200260200101819052506122f66003546002856122f19190613420565b612c1e565b8160028151811061230a57612309613bd6565b5b6020026020010181905250731e0447b19bb6ecfdae1e4ae1694b0c3659614e4e73ffffffffffffffffffffffffffffffffffffffff1663a67a6a4583836040518363ffffffff1660e01b8152600401612364929190613fed565b5f604051808303815f87803b15801561237b575f5ffd5b505af115801561238d573d5f5f3e3d5ffd5b50505050505050565b5f8215806123a5575060208251105b156123b2575f90506123cb565b5f828060200190518101906123c791906131b0565b1490505b92915050565b5f4790505f81111561244f5773c02aaa39b223fe8d0a0e5c4f27ead9083c756cc273ffffffffffffffffffffffffffffffffffffffff1663d0e30db0826040518263ffffffff1660e01b81526004015f604051808303818588803b158015612437575f5ffd5b505af1158015612449573d5f5f3e3d5ffd5b50505050505b50565b5f5f8203612462575f905061251b565b5f6124f6730eee3e3828a45f7601d5f54bf49bb01d1a9df5ea635e9a523c60e01b86604051602401612494919061309b565b604051602081830303815290604052907bffffffffffffffffffffffffffffffffffffffffffffffffffffffff19166020820180517bffffffffffffffffffffffffffffffffffffffffffffffffffffffff8381831617835250505050612ce5565b9050670de0b6b3a7640000818461250d9190614022565b61251791906137cc565b9150505b92915050565b5f5f5f730eee3e3828a45f7601d5f54bf49bb01d1a9df5ea73ffffffffffffffffffffffffffffffffffffffff1663f2b9fdb860e01b868660405160240161256a929190613453565b604051602081830303815290604052907bffffffffffffffffffffffffffffffffffffffffffffffffffffffff19166020820180517bffffffffffffffffffffffffffffffffffffffffffffffffffffffff83818316178352505050506040516125d491906134cc565b5f604051808303815f865af19150503d805f811461260d576040519150601f19603f3d011682016040523d82523d5f602084013e612612565b606091505b50915091506126218282612396565b9250505092915050565b5f5f820361263b575f9050612971565b5f6126e3730eee3e3828a45f7601d5f54bf49bb01d1a9df5ea635e9a523c60e01b73c02aaa39b223fe8d0a0e5c4f27ead9083c756cc2604051602401612681919061309b565b604051602081830303815290604052907bffffffffffffffffffffffffffffffffffffffffffffffffffffffff19166020820180517bffffffffffffffffffffffffffffffffffffffffffffffffffffffff8381831617835250505050612ce5565b90505f612779730eee3e3828a45f7601d5f54bf49bb01d1a9df5ea635e9a523c60e01b87604051602401612717919061309b565b604051602081830303815290604052907bffffffffffffffffffffffffffffffffffffffffffffffffffffffff19166020820180517bffffffffffffffffffffffffffffffffffffffffffffffffffffffff8381831617835250505050612ce5565b90505f612804730eee3e3828a45f7601d5f54bf49bb01d1a9df5ea63b4eae1cb60e01b604051602401604051602081830303815290604052907bffffffffffffffffffffffffffffffffffffffffffffffffffffffff19166020820180517bffffffffffffffffffffffffffffffffffffffffffffffffffffffff8381831617835250505050612ce5565b90505f61288f730eee3e3828a45f7601d5f54bf49bb01d1a9df5ea63b8bb5c4260e01b604051602401604051602081830303815290604052907bffffffffffffffffffffffffffffffffffffffffffffffffffffffff19166020820180517bffffffffffffffffffffffffffffffffffffffffffffffffffffffff8381831617835250505050612ce5565b90505f84148061289e57505f83145b806128a857505f82145b156128b9575f945050505050612971565b5f670de0b6b3a764000085886128cf9190614022565b6128d991906137cc565b90505f849050670de0b6b3a764000083670de0b6b3a76400006128fc9190613420565b826129079190614022565b61291191906137cc565b9050670de0b6b3a764000084826129289190614022565b61293291906137cc565b90505f8103612949575f9650505050505050612971565b80670de0b6b3a76400008361295e9190614022565b61296891906137cc565b96505050505050505b92915050565b5f5f5f730eee3e3828a45f7601d5f54bf49bb01d1a9df5ea73ffffffffffffffffffffffffffffffffffffffff1663f3fef3a360e01b86866040516024016129c0929190613453565b604051602081830303815290604052907bffffffffffffffffffffffffffffffffffffffffffffffffffffffff19166020820180517bffffffffffffffffffffffffffffffffffffffffffffffffffffffff8381831617835250505050604051612a2a91906134cc565b5f604051808303815f865af19150503d805f8114612a63576040519150601f19603f3d011682016040523d82523d5f602084013e612a68565b606091505b5091509150612a778282612396565b9250505092915050565b612a89612dea565b60405180610100016040528060016008811115612aa957612aa861316f565b5b81526020015f815260200160405180608001604052805f151581526020015f6001811115612ada57612ad961316f565b5b81526020015f6001811115612af257612af161316f565b5b81526020018581525081526020018481526020015f81526020013073ffffffffffffffffffffffffffffffffffffffff1681526020015f815260200160405180602001604052805f815250815250905092915050565b612b50612dea565b604051806101000160405280600880811115612b6f57612b6e61316f565b5b81526020015f815260200160405180608001604052805f151581526020015f6001811115612ba057612b9f61316f565b5b81526020015f6001811115612bb857612bb761316f565b5b81526020015f81525081526020015f81526020015f81526020013073ffffffffffffffffffffffffffffffffffffffff1681526020015f815260200183604051602001612c0591906130c3565b6040516020818303038152906040528152509050919050565b612c26612dea565b6040518061010001604052805f6008811115612c4557612c4461316f565b5b81526020015f815260200160405180608001604052806001151581526020015f6001811115612c7757612c7661316f565b5b81526020015f6001811115612c8f57612c8e61316f565b5b81526020018581525081526020018481526020015f81526020013073ffffffffffffffffffffffffffffffffffffffff1681526020015f815260200160405180602001604052805f815250815250905092915050565b5f5f5f8473ffffffffffffffffffffffffffffffffffffffff1684604051612d0d91906134cc565b5f604051808303815f865af19150503d805f8114612d46576040519150601f19603f3d011682016040523d82523d5f602084013e612d4b565b606091505b5091509150818015612d5f57506020815110155b612d9e576040517f08c379a0000000000000000000000000000000000000000000000000000000008152600401612d95906140ad565b60405180910390fd5b80806020019051810190612db291906131b0565b9250505092915050565b60405180604001604052805f73ffffffffffffffffffffffffffffffffffffffff1681526020015f81525090565b6040518061010001604052805f6008811115612e0957612e0861316f565b5b81526020015f8152602001612e1c612e57565b81526020015f81526020015f81526020015f73ffffffffffffffffffffffffffffffffffffffff1681526020015f8152602001606081525090565b60405180608001604052805f151581526020015f6001811115612e7d57612e7c61316f565b5b81526020015f6001811115612e9557612e9461316f565b5b81526020015f81525090565b5f5ffd5b5f5ffd5b5f73ffffffffffffffffffffffffffffffffffffffff82169050919050565b5f612ed282612ea9565b9050919050565b612ee281612ec8565b8114612eec575f5ffd5b50565b5f81359050612efd81612ed9565b92915050565b5f819050919050565b612f1581612f03565b8114612f1f575f5ffd5b50565b5f81359050612f3081612f0c565b92915050565b5f5ffd5b5f5ffd5b5f5ffd5b5f5f83601f840112612f5757612f56612f36565b5b8235905067ffffffffffffffff811115612f7457612f73612f3a565b5b602083019150836001820283011115612f9057612f8f612f3e565b5b9250929050565b5f5f5f5f5f5f5f5f60c0898b031215612fb357612fb2612ea1565b5b5f612fc08b828c01612eef565b9850506020612fd18b828c01612eef565b9750506040612fe28b828c01612eef565b9650506060612ff38b828c01612f22565b955050608089013567ffffffffffffffff81111561301457613013612ea5565b5b6130208b828c01612f42565b945094505060a089013567ffffffffffffffff81111561304357613042612ea5565b5b61304f8b828c01612f42565b92509250509295985092959890939650565b5f6020828403121561307657613075612ea1565b5b5f61308384828501612f22565b91505092915050565b61309581612ec8565b82525050565b5f6020820190506130ae5f83018461308c565b92915050565b6130bd81612f03565b82525050565b5f6020820190506130d65f8301846130b4565b92915050565b5f5ffd5b5f604082840312156130f5576130f46130dc565b5b81905092915050565b5f5f5f5f6080858703121561311657613115612ea1565b5b5f61312387828801612eef565b9450506020613134878288016130e0565b935050606085013567ffffffffffffffff81111561315557613154612ea5565b5b61316187828801612f42565b925092505092959194509250565b7f4e487b71000000000000000000000000000000000000000000000000000000005f52602160045260245ffd5b5f815190506131aa81612f0c565b92915050565b5f602082840312156131c5576131c4612ea1565b5b5f6131d28482850161319c565b91505092915050565b5f82825260208201905092915050565b7f73656c662d6f6e6c7900000000000000000000000000000000000000000000005f82015250565b5f61321f6009836131db565b915061322a826131eb565b602082019050919050565b5f6020820190508181035f83015261324c81613213565b9050919050565b7f6d697373696e672d68656c642d776574680000000000000000000000000000005f82015250565b5f6132876011836131db565b915061329282613253565b602082019050919050565b5f6020820190508181035f8301526132b48161327b565b9050919050565b7f736f6c6f2d6f6e6c7900000000000000000000000000000000000000000000005f82015250565b5f6132ef6009836131db565b91506132fa826132bb565b602082019050919050565b5f6020820190508181035f83015261331c816132e3565b9050919050565b7f6261642d73656e646572000000000000000000000000000000000000000000005f82015250565b5f613357600a836131db565b915061336282613323565b602082019050919050565b5f6020820190508181035f8301526133848161334b565b9050919050565b7f6d697373696e672d6c6f616e00000000000000000000000000000000000000005f82015250565b5f6133bf600c836131db565b91506133ca8261338b565b602082019050919050565b5f6020820190508181035f8301526133ec816133b3565b9050919050565b7f4e487b71000000000000000000000000000000000000000000000000000000005f52601160045260245ffd5b5f61342a82612f03565b915061343583612f03565b925082820190508082111561344d5761344c6133f3565b5b92915050565b5f6040820190506134665f83018561308c565b61347360208301846130b4565b9392505050565b5f81519050919050565b5f81905092915050565b8281835e5f83830152505050565b5f6134a68261347a565b6134b08185613484565b93506134c081856020860161348e565b80840191505092915050565b5f6134d7828461349c565b915081905092915050565b5f819050919050565b6134f4816134e2565b82525050565b5f60608201905061350d5f83018661308c565b61351a60208301856134eb565b613527604083018461308c565b949350505050565b5f8115159050919050565b6135438161352f565b811461354d575f5ffd5b50565b5f8151905061355e8161353a565b92915050565b5f8151905061357281612ed9565b92915050565b5f5f5f5f5f5f5f5f5f6101208a8c03121561359657613595612ea1565b5b5f6135a38c828d01613550565b99505060206135b48c828d0161319c565b98505060406135c58c828d01613564565b97505060606135d68c828d0161319c565b96505060806135e78c828d0161319c565b95505060a06135f88c828d0161319c565b94505060c06136098c828d0161319c565b93505060e061361a8c828d0161319c565b92505061010061362c8c828d0161319c565b9150509295985092959850929598565b5f6020828403121561365157613650612ea1565b5b5f61365e84828501613564565b91505092915050565b7f776574682d737570706c792d6661696c656400000000000000000000000000005f82015250565b5f61369b6012836131db565b91506136a682613667565b602082019050919050565b5f6020820190508181035f8301526136c88161368f565b9050919050565b7f63616c6c6261636b2d6d61726b65742d656d70747900000000000000000000005f82015250565b5f6137036015836131db565b915061370e826136cf565b602082019050919050565b5f6020820190508181035f830152613730816136f7565b9050919050565b7f6e6f2d626f72726f772d68656164726f6f6d00000000000000000000000000005f82015250565b5f61376b6012836131db565b915061377682613737565b602082019050919050565b5f6020820190508181035f8301526137988161375f565b9050919050565b7f4e487b71000000000000000000000000000000000000000000000000000000005f52601260045260245ffd5b5f6137d682612f03565b91506137e183612f03565b9250826137f1576137f061379f565b5b828204905092915050565b7f696e73756666696369656e742d7265656e7472792d726f6f6d000000000000005f82015250565b5f6138306019836131db565b915061383b826137fc565b602082019050919050565b5f6020820190508181035f83015261385d81613824565b9050919050565b7f696e697469616c2d626f72726f772d6661696c656400000000000000000000005f82015250565b5f6138986015836131db565b91506138a382613864565b602082019050919050565b5f6020820190508181035f8301526138c58161388c565b9050919050565b7f626f72726f772d7265656e7472792d6661696c656400000000000000000000005f82015250565b5f6139006015836131db565b915061390b826138cc565b602082019050919050565b5f6020820190508181035f83015261392d816138f4565b9050919050565b5f61393e82612f03565b915061394983612f03565b9250828203905081811115613961576139606133f3565b5b92915050565b7f6e6f2d756e69737761702d7631000000000000000000000000000000000000005f82015250565b5f61399b600d836131db565b91506139a682613967565b602082019050919050565b5f6020820190508181035f8301526139c88161398f565b9050919050565b7f6e6f2d63616c6c6261636b2d70726f66697400000000000000000000000000005f82015250565b5f613a036012836131db565b9150613a0e826139cf565b602082019050919050565b5f6020820190508181035f830152613a30816139f7565b9050919050565b5f819050919050565b5f819050919050565b5f613a63613a5e613a5984613a37565b613a40565b612f03565b9050919050565b613a7381613a49565b82525050565b5f606082019050613a8c5f8301866130b4565b613a996020830185613a6a565b613aa660408301846130b4565b949350505050565b7f696e73756666696369656e742d7265616c697a65642d776574680000000000005f82015250565b5f613ae2601a836131db565b9150613aed82613aae565b602082019050919050565b5f6020820190508181035f830152613b0f81613ad6565b9050919050565b5f60208284031215613b2b57613b2a612ea1565b5b5f613b3884828501613550565b91505092915050565b7f617070726f76652d6661696c65640000000000000000000000000000000000005f82015250565b5f613b75600e836131db565b9150613b8082613b41565b602082019050919050565b5f6020820190508181035f830152613ba281613b69565b9050919050565b7f4e487b71000000000000000000000000000000000000000000000000000000005f52604160045260245ffd5b7f4e487b71000000000000000000000000000000000000000000000000000000005f52603260045260245ffd5b5f81519050919050565b5f82825260208201905092915050565b5f819050602082019050919050565b613c3581612ec8565b82525050565b613c4481612f03565b82525050565b604082015f820151613c5e5f850182613c2c565b506020820151613c716020850182613c3b565b50505050565b5f613c828383613c4a565b60408301905092915050565b5f602082019050919050565b5f613ca482613c03565b613cae8185613c0d565b9350613cb983613c1d565b805f5b83811015613ce9578151613cd08882613c77565b9750613cdb83613c8e565b925050600181019050613cbc565b5085935050505092915050565b5f81519050919050565b5f82825260208201905092915050565b5f819050602082019050919050565b60098110613d3057613d2f61316f565b5b50565b5f819050613d4082613d1f565b919050565b5f613d4f82613d33565b9050919050565b613d5f81613d45565b82525050565b613d6e8161352f565b82525050565b60028110613d8557613d8461316f565b5b50565b5f819050613d9582613d74565b919050565b5f613da482613d88565b9050919050565b613db481613d9a565b82525050565b60028110613dcb57613dca61316f565b5b50565b5f819050613ddb82613dba565b919050565b5f613dea82613dce565b9050919050565b613dfa81613de0565b82525050565b608082015f820151613e145f850182613d65565b506020820151613e276020850182613dab565b506040820151613e3a6040850182613df1565b506060820151613e4d6060850182613c3b565b50505050565b5f82825260208201905092915050565b5f601f19601f8301169050919050565b5f613e7d8261347a565b613e878185613e53565b9350613e9781856020860161348e565b613ea081613e63565b840191505092915050565b5f61016083015f830151613ec15f860182613d56565b506020830151613ed46020860182613c3b565b506040830151613ee76040860182613e00565b506060830151613efa60c0860182613c3b565b506080830151613f0d60e0860182613c3b565b5060a0830151613f21610100860182613c2c565b5060c0830151613f35610120860182613c3b565b5060e0830151848203610140860152613f4e8282613e73565b9150508091505092915050565b5f613f668383613eab565b905092915050565b5f602082019050919050565b5f613f8482613cf6565b613f8e8185613d00565b935083602082028501613fa085613d10565b805f5b85811015613fdb5784840389528151613fbc8582613f5b565b9450613fc783613f6e565b925060208a01995050600181019050613fa3565b50829750879550505050505092915050565b5f6040820190508181035f8301526140058185613c9a565b905081810360208301526140198184613f7a565b90509392505050565b5f61402c82612f03565b915061403783612f03565b925082820261404581612f03565b9150828204841483151761405c5761405b6133f3565b5b5092915050565b7f726561642d75696e742d6661696c6564000000000000000000000000000000005f82015250565b5f6140976010836131db565b91506140a282614063565b602082019050919050565b5f6020820190508181035f8301526140c48161408b565b905091905056fea2646970667358221220fd52e5c046dfdf29b60aaa8346362be089a6f59c620b3f42c7fb2987aa7c293664736f6c634300081e0033","linkReferences":{}},"methodIdentifiers":{"callFunction(address,(address,uint256),bytes)":"8b418713","executeFlashLoan(uint256)":"fb056f68","executeOnOpportunity()":"3c2448ed","executeWithHeldWeth(uint256)":"448922fd","profitAmount()":"5ff972cc","profitToken()":"49343624","tokensReceived(address,address,address,uint256,bytes,bytes)":"0023de29","tokensToSend(address,address,address,uint256,bytes,bytes)":"75ab9782"},"id":0}