{"abi":[{"type":"constructor","inputs":[],"stateMutability":"nonpayable"},{"type":"receive","stateMutability":"payable"},{"type":"function","name":"attempted","inputs":[],"outputs":[{"name":"","type":"bool","internalType":"bool"}],"stateMutability":"view"},{"type":"function","name":"borrowedWethAmount","inputs":[],"outputs":[{"name":"","type":"uint256","internalType":"uint256"}],"stateMutability":"view"},{"type":"function","name":"executeOnOpportunity","inputs":[],"outputs":[],"stateMutability":"nonpayable"},{"type":"function","name":"executeOperation","inputs":[{"name":"","type":"address[]","internalType":"address[]"},{"name":"amounts","type":"uint256[]","internalType":"uint256[]"},{"name":"premiums","type":"uint256[]","internalType":"uint256[]"},{"name":"","type":"address","internalType":"address"},{"name":"","type":"bytes","internalType":"bytes"}],"outputs":[{"name":"","type":"bool","internalType":"bool"}],"stateMutability":"nonpayable"},{"type":"function","name":"handleFlashloanCallback","inputs":[{"name":"","type":"uint256","internalType":"uint256"},{"name":"","type":"uint256","internalType":"uint256"},{"name":"","type":"uint256","internalType":"uint256"},{"name":"","type":"uint256","internalType":"uint256"}],"outputs":[{"name":"","type":"bool","internalType":"bool"}],"stateMutability":"nonpayable"},{"type":"function","name":"hypothesisValidated","inputs":[],"outputs":[{"name":"","type":"bool","internalType":"bool"}],"stateMutability":"view"},{"type":"function","name":"oraclePriceAfterExit","inputs":[],"outputs":[{"name":"","type":"uint256","internalType":"uint256"}],"stateMutability":"view"},{"type":"function","name":"oraclePriceBeforeExit","inputs":[],"outputs":[{"name":"","type":"uint256","internalType":"uint256"}],"stateMutability":"view"},{"type":"function","name":"oraclePriceDuringCallback","inputs":[],"outputs":[{"name":"","type":"uint256","internalType":"uint256"}],"stateMutability":"view"},{"type":"function","name":"profitAmount","inputs":[],"outputs":[{"name":"","type":"uint256","internalType":"uint256"}],"stateMutability":"view"},{"type":"function","name":"profitToken","inputs":[],"outputs":[{"name":"","type":"address","internalType":"address"}],"stateMutability":"pure"},{"type":"function","name":"requestFlashloan","inputs":[{"name":"wstEthShortfall","type":"uint256","internalType":"uint256"},{"name":"wethShortfall","type":"uint256","internalType":"uint256"}],"outputs":[],"stateMutability":"nonpayable"}],"bytecode":{"object":"0x6080604052348015600e575f5ffd5b5061159a8061001c5f395ff3fe6080604052600436106100aa575f3560e01c80635ff972cc116100635780635ff972cc1461032f5780637ef43d7614610359578063917f51b414610383578063920f5c84146103ad578063c3b85220146103e9578063cde0d4ef1461041157610231565b80630413ef2d146102355780631a1ea498146102715780631f149c7c1461029b5780633c2448ed146102c5578063463defd1146102db578063493436241461030557610231565b3661023157600560029054906101000a900460ff1680156100d85750600560039054906101000a900460ff16155b1561022f576001600560036101000a81548160ff02191690831515021790555073e5d78eb340627b8d5bcff63590ebec1ef9118c8973ffffffffffffffffffffffffffffffffffffffff1663b3596f077310aa9eea35a3102cc47d4d93bc0ba9ae455577466040518263ffffffff1660e01b81526004016101599190610ba3565b602060405180830381865afa158015610174573d5f5f3e3d5ffd5b505050506040513d601f19601f820116820180604052508101906101989190610bf7565b600281905550739f72dc67cec672bb99e3d02cbea0a21536a2b65773ffffffffffffffffffffffffffffffffffffffff16635a3b74b973901247d08bebfd449526da92941b35d756873bcd5f6040518363ffffffff1660e01b8152600401610201929190610c3c565b5f604051808303815f87803b158015610218575f5ffd5b505af115801561022a573d5f5f3e3d5ffd5b505050505b005b5f5ffd5b348015610240575f5ffd5b5061025b60048036038101906102569190610c77565b61043b565b6040516102689190610cdb565b60405180910390f35b34801561027c575f5ffd5b506102856104b6565b6040516102929190610d03565b60405180910390f35b3480156102a6575f5ffd5b506102af6104bc565b6040516102bc9190610d03565b60405180910390f35b3480156102d0575f5ffd5b506102d96104c2565b005b3480156102e6575f5ffd5b506102ef6105bd565b6040516102fc9190610cdb565b60405180910390f35b348015610310575f5ffd5b506103196105d0565b6040516103269190610ba3565b60405180910390f35b34801561033a575f5ffd5b506103436105eb565b6040516103509190610d03565b60405180910390f35b348015610364575f5ffd5b5061036d6105f3565b60405161037a9190610d03565b60405180910390f35b34801561038e575f5ffd5b506103976105f9565b6040516103a49190610cdb565b60405180910390f35b3480156103b8575f5ffd5b506103d360048036038101906103ce9190610e51565b61060b565b6040516103e09190610cdb565b60405180910390f35b3480156103f4575f5ffd5b5061040f600480360381019061040a9190610f47565b6107d7565b005b34801561041c575f5ffd5b50610425610b5e565b6040516104329190610d03565b60405180910390f35b5f3073ffffffffffffffffffffffffffffffffffffffff163373ffffffffffffffffffffffffffffffffffffffff16146104aa576040517f08c379a00000000000000000000000000000000000000000000000000000000081526004016104a190610fdf565b60405180910390fd5b60019050949350505050565b60025481565b60015481565b60055f9054906101000a900460ff1615610511576040517f08c379a000000000000000000000000000000000000000000000000000000000815260040161050890611047565b60405180910390fd5b600160055f6101000a81548160ff0219169083151502179055503073ffffffffffffffffffffffffffffffffffffffff1663c3b85220690a968163f0a57b400000683ba1910bf341b00000690c11f9e7b10e91a000006105719190611092565b6040518363ffffffff1660e01b815260040161058e9291906110c5565b5f604051808303815f87803b1580156105a5575f5ffd5b505af11580156105b7573d5f5f3e3d5ffd5b50505050565b600560019054906101000a900460ff1681565b5f73c02aaa39b223fe8d0a0e5c4f27ead9083c756cc2905090565b5f5f54905090565b60035481565b60055f9054906101000a900460ff1681565b5f7387870bca3f3fd6335c3f4ce8392d69350b4fa4e273ffffffffffffffffffffffffffffffffffffffff163373ffffffffffffffffffffffffffffffffffffffff161461068e576040517f08c379a000000000000000000000000000000000000000000000000000000000815260040161068590611136565b60405180910390fd5b6002888890501480156106a45750600286869050145b6106e3576040517f08c379a00000000000000000000000000000000000000000000000000000000081526004016106da9061119e565b60405180910390fd5b3073ffffffffffffffffffffffffffffffffffffffff16630413ef2d89895f818110610712576107116111bc565b5b905060200201358a8a600181811061072d5761072c6111bc565b5b9050602002013589895f818110610747576107466111bc565b5b905060200201358a8a6001818110610762576107616111bc565b5b905060200201356040518563ffffffff1660e01b815260040161078894939291906111e9565b6020604051808303815f875af11580156107a4573d5f5f3e3d5ffd5b505050506040513d601f19601f820116820180604052508101906107c89190611256565b90509998505050505050505050565b3073ffffffffffffffffffffffffffffffffffffffff163373ffffffffffffffffffffffffffffffffffffffff1614610845576040517f08c379a000000000000000000000000000000000000000000000000000000000815260040161083c90610fdf565b60405180910390fd5b5f600267ffffffffffffffff81111561086157610860611281565b5b60405190808252806020026020018201604052801561088f5781602001602082028036833780820191505090505b509050737f39c581f595b53c5cb19bd0b3f8da6c935e2ca0815f815181106108ba576108b96111bc565b5b602002602001019073ffffffffffffffffffffffffffffffffffffffff16908173ffffffffffffffffffffffffffffffffffffffff168152505073c02aaa39b223fe8d0a0e5c4f27ead9083c756cc28160018151811061091d5761091c6111bc565b5b602002602001019073ffffffffffffffffffffffffffffffffffffffff16908173ffffffffffffffffffffffffffffffffffffffff16815250505f600267ffffffffffffffff81111561097357610972611281565b5b6040519080825280602002602001820160405280156109a15781602001602082028036833780820191505090505b50905083815f815181106109b8576109b76111bc565b5b60200260200101818152505082816001815181106109d9576109d86111bc565b5b6020026020010181815250505f600267ffffffffffffffff811115610a0157610a00611281565b5b604051908082528060200260200182016040528015610a2f5781602001602082028036833780820191505090505b5090507387870bca3f3fd6335c3f4ce8392d69350b4fa4e273ffffffffffffffffffffffffffffffffffffffff1663ab9c4b5d308585853060405180602001604052805f8152505f6040518863ffffffff1660e01b8152600401610a9997969594939291906114db565b5f604051808303815f87803b158015610ab0575f5ffd5b505af1158015610ac2573d5f5f3e3d5ffd5b5050505073c02aaa39b223fe8d0a0e5c4f27ead9083c756cc273ffffffffffffffffffffffffffffffffffffffff166370a08231306040518263ffffffff1660e01b8152600401610b139190610ba3565b602060405180830381865afa158015610b2e573d5f5f3e3d5ffd5b505050506040513d601f19601f82011682018060405250810190610b529190610bf7565b5f819055505050505050565b60045481565b5f73ffffffffffffffffffffffffffffffffffffffff82169050919050565b5f610b8d82610b64565b9050919050565b610b9d81610b83565b82525050565b5f602082019050610bb65f830184610b94565b92915050565b5f5ffd5b5f5ffd5b5f819050919050565b610bd681610bc4565b8114610be0575f5ffd5b50565b5f81519050610bf181610bcd565b92915050565b5f60208284031215610c0c57610c0b610bbc565b5b5f610c1984828501610be3565b91505092915050565b5f8115159050919050565b610c3681610c22565b82525050565b5f604082019050610c4f5f830185610b94565b610c5c6020830184610c2d565b9392505050565b5f81359050610c7181610bcd565b92915050565b5f5f5f5f60808587031215610c8f57610c8e610bbc565b5b5f610c9c87828801610c63565b9450506020610cad87828801610c63565b9350506040610cbe87828801610c63565b9250506060610ccf87828801610c63565b91505092959194509250565b5f602082019050610cee5f830184610c2d565b92915050565b610cfd81610bc4565b82525050565b5f602082019050610d165f830184610cf4565b92915050565b5f5ffd5b5f5ffd5b5f5ffd5b5f5f83601f840112610d3d57610d3c610d1c565b5b8235905067ffffffffffffffff811115610d5a57610d59610d20565b5b602083019150836020820283011115610d7657610d75610d24565b5b9250929050565b5f5f83601f840112610d9257610d91610d1c565b5b8235905067ffffffffffffffff811115610daf57610dae610d20565b5b602083019150836020820283011115610dcb57610dca610d24565b5b9250929050565b610ddb81610b83565b8114610de5575f5ffd5b50565b5f81359050610df681610dd2565b92915050565b5f5f83601f840112610e1157610e10610d1c565b5b8235905067ffffffffffffffff811115610e2e57610e2d610d20565b5b602083019150836001820283011115610e4a57610e49610d24565b5b9250929050565b5f5f5f5f5f5f5f5f5f60a08a8c031215610e6e57610e6d610bbc565b5b5f8a013567ffffffffffffffff811115610e8b57610e8a610bc0565b5b610e978c828d01610d28565b995099505060208a013567ffffffffffffffff811115610eba57610eb9610bc0565b5b610ec68c828d01610d7d565b975097505060408a013567ffffffffffffffff811115610ee957610ee8610bc0565b5b610ef58c828d01610d7d565b95509550506060610f088c828d01610de8565b93505060808a013567ffffffffffffffff811115610f2957610f28610bc0565b5b610f358c828d01610dfc565b92509250509295985092959850929598565b5f5f60408385031215610f5d57610f5c610bbc565b5b5f610f6a85828601610c63565b9250506020610f7b85828601610c63565b9150509250929050565b5f82825260208201905092915050565b7f6f6e6c792d73656c6600000000000000000000000000000000000000000000005f82015250565b5f610fc9600983610f85565b9150610fd482610f95565b602082019050919050565b5f6020820190508181035f830152610ff681610fbd565b9050919050565b7f616c72656164792d617474656d707465640000000000000000000000000000005f82015250565b5f611031601183610f85565b915061103c82610ffd565b602082019050919050565b5f6020820190508181035f83015261105e81611025565b9050919050565b7f4e487b71000000000000000000000000000000000000000000000000000000005f52601160045260245ffd5b5f61109c82610bc4565b91506110a783610bc4565b92508282019050808211156110bf576110be611065565b5b92915050565b5f6040820190506110d85f830185610cf4565b6110e56020830184610cf4565b9392505050565b7f6e6f742d616176650000000000000000000000000000000000000000000000005f82015250565b5f611120600883610f85565b915061112b826110ec565b602082019050919050565b5f6020820190508181035f83015261114d81611114565b9050919050565b7f6261642d666c6173686c6f616e2d7368617065000000000000000000000000005f82015250565b5f611188601383610f85565b915061119382611154565b602082019050919050565b5f6020820190508181035f8301526111b58161117c565b9050919050565b7f4e487b71000000000000000000000000000000000000000000000000000000005f52603260045260245ffd5b5f6080820190506111fc5f830187610cf4565b6112096020830186610cf4565b6112166040830185610cf4565b6112236060830184610cf4565b95945050505050565b61123581610c22565b811461123f575f5ffd5b50565b5f815190506112508161122c565b92915050565b5f6020828403121561126b5761126a610bbc565b5b5f61127884828501611242565b91505092915050565b7f4e487b71000000000000000000000000000000000000000000000000000000005f52604160045260245ffd5b5f81519050919050565b5f82825260208201905092915050565b5f819050602082019050919050565b6112e081610b83565b82525050565b5f6112f183836112d7565b60208301905092915050565b5f602082019050919050565b5f611313826112ae565b61131d81856112b8565b9350611328836112c8565b805f5b8381101561135857815161133f88826112e6565b975061134a836112fd565b92505060018101905061132b565b5085935050505092915050565b5f81519050919050565b5f82825260208201905092915050565b5f819050602082019050919050565b61139781610bc4565b82525050565b5f6113a8838361138e565b60208301905092915050565b5f602082019050919050565b5f6113ca82611365565b6113d4818561136f565b93506113df8361137f565b805f5b8381101561140f5781516113f6888261139d565b9750611401836113b4565b9250506001810190506113e2565b5085935050505092915050565b5f81519050919050565b5f82825260208201905092915050565b8281835e5f83830152505050565b5f601f19601f8301169050919050565b5f61145e8261141c565b6114688185611426565b9350611478818560208601611436565b61148181611444565b840191505092915050565b5f819050919050565b5f61ffff82169050919050565b5f819050919050565b5f6114c56114c06114bb8461148c565b6114a2565b611495565b9050919050565b6114d5816114ab565b82525050565b5f60e0820190506114ee5f83018a610b94565b81810360208301526115008189611309565b9050818103604083015261151481886113c0565b9050818103606083015261152881876113c0565b90506115376080830186610b94565b81810360a08301526115498185611454565b905061155860c08301846114cc565b9897505050505050505056fea26469706673582212205863b917d7219d4d83fa44f6bfa67fecd8dde5dc532cfa12689ead736b3be4c764736f6c634300081e0033","linkReferences":{}},"methodIdentifiers":{"attempted()":"917f51b4","borrowedWethAmount()":"cde0d4ef","executeOnOpportunity()":"3c2448ed","executeOperation(address[],uint256[],uint256[],address,bytes)":"920f5c84","handleFlashloanCallback(uint256,uint256,uint256,uint256)":"0413ef2d","hypothesisValidated()":"463defd1","oraclePriceAfterExit()":"7ef43d76","oraclePriceBeforeExit()":"1f149c7c","oraclePriceDuringCallback()":"1a1ea498","profitAmount()":"5ff972cc","profitToken()":"49343624","requestFlashloan(uint256,uint256)":"c3b85220"},"id":0}