{"abi":[{"type":"constructor","inputs":[],"stateMutability":"nonpayable"},{"type":"fallback","stateMutability":"payable"},{"type":"receive","stateMutability":"payable"},{"type":"function","name":"configure","inputs":[{"name":"controller_","type":"address","internalType":"address"},{"name":"thief_","type":"address","internalType":"address"},{"name":"token_","type":"address","internalType":"address"}],"outputs":[],"stateMutability":"nonpayable"},{"type":"function","name":"controller","inputs":[],"outputs":[{"name":"","type":"address","internalType":"address"}],"stateMutability":"view"},{"type":"function","name":"thief","inputs":[],"outputs":[{"name":"","type":"address","internalType":"address"}],"stateMutability":"view"},{"type":"function","name":"token","inputs":[],"outputs":[{"name":"","type":"address","internalType":"address"}],"stateMutability":"view"}],"bytecode":{"object":"0x6080604052348015600e575f5ffd5b503360015f6101000a81548173ffffffffffffffffffffffffffffffffffffffff021916908373ffffffffffffffffffffffffffffffffffffffff1602179055506108dc8061005c5f395ff3fe608060405260043610610042575f3560e01c8063345135891461018b57806355d28f20146101b5578063f77c4791146101dd578063fc0c546a1461020757610049565b3661004957005b5f60025f9054906101000a900473ffffffffffffffffffffffffffffffffffffffff1690505f73ffffffffffffffffffffffffffffffffffffffff165f5f9054906101000a900473ffffffffffffffffffffffffffffffffffffffff1673ffffffffffffffffffffffffffffffffffffffff1614806100f357505f73ffffffffffffffffffffffffffffffffffffffff168173ffffffffffffffffffffffffffffffffffffffff16145b156100fe5750610189565b5f610129825f5f9054906101000a900473ffffffffffffffffffffffffffffffffffffffff16610231565b90505f8103610139575050610189565b610186825f5f9054906101000a900473ffffffffffffffffffffffffffffffffffffffff1660015f9054906101000a900473ffffffffffffffffffffffffffffffffffffffff168461036a565b50505b005b348015610196575f5ffd5b5061019f6104bc565b6040516101ac919061062d565b60405180910390f35b3480156101c0575f5ffd5b506101db60048036038101906101d69190610674565b6104e1565b005b3480156101e8575f5ffd5b506101f16105a5565b6040516101fe919061062d565b60405180910390f35b348015610212575f5ffd5b5061021b6105c9565b604051610228919061062d565b60405180910390f35b5f5f8373ffffffffffffffffffffffffffffffffffffffff163b03610258575f9050610364565b5f5f8473ffffffffffffffffffffffffffffffffffffffff166370a0823160e01b8560405160240161028a919061062d565b604051602081830303815290604052907bffffffffffffffffffffffffffffffffffffffffffffffffffffffff19166020820180517bffffffffffffffffffffffffffffffffffffffffffffffffffffffff83818316178352505050506040516102f49190610716565b5f60405180830381855afa9150503d805f811461032c576040519150601f19603f3d011682016040523d82523d5f602084013e610331565b606091505b509150915081801561034557506020815110155b15610361578080602001905181019061035e919061075f565b92505b50505b92915050565b5f5f8573ffffffffffffffffffffffffffffffffffffffff166323b872dd60e01b8686866040516024016103a093929190610799565b604051602081830303815290604052907bffffffffffffffffffffffffffffffffffffffffffffffffffffffff19166020820180517bffffffffffffffffffffffffffffffffffffffffffffffffffffffff838183161783525050505060405161040a9190610716565b5f604051808303815f865af19150503d805f8114610443576040519150601f19603f3d011682016040523d82523d5f602084013e610448565b606091505b509150915081801561047557505f815114806104745750808060200190518101906104739190610803565b5b5b6104b4576040517f08c379a00000000000000000000000000000000000000000000000000000000081526004016104ab90610888565b60405180910390fd5b505050505050565b60015f9054906101000a900473ffffffffffffffffffffffffffffffffffffffff1681565b825f5f6101000a81548173ffffffffffffffffffffffffffffffffffffffff021916908373ffffffffffffffffffffffffffffffffffffffff1602179055508160015f6101000a81548173ffffffffffffffffffffffffffffffffffffffff021916908373ffffffffffffffffffffffffffffffffffffffff1602179055508060025f6101000a81548173ffffffffffffffffffffffffffffffffffffffff021916908373ffffffffffffffffffffffffffffffffffffffff160217905550505050565b5f5f9054906101000a900473ffffffffffffffffffffffffffffffffffffffff1681565b60025f9054906101000a900473ffffffffffffffffffffffffffffffffffffffff1681565b5f73ffffffffffffffffffffffffffffffffffffffff82169050919050565b5f610617826105ee565b9050919050565b6106278161060d565b82525050565b5f6020820190506106405f83018461061e565b92915050565b5f5ffd5b6106538161060d565b811461065d575f5ffd5b50565b5f8135905061066e8161064a565b92915050565b5f5f5f6060848603121561068b5761068a610646565b5b5f61069886828701610660565b93505060206106a986828701610660565b92505060406106ba86828701610660565b9150509250925092565b5f81519050919050565b5f81905092915050565b8281835e5f83830152505050565b5f6106f0826106c4565b6106fa81856106ce565b935061070a8185602086016106d8565b80840191505092915050565b5f61072182846106e6565b915081905092915050565b5f819050919050565b61073e8161072c565b8114610748575f5ffd5b50565b5f8151905061075981610735565b92915050565b5f6020828403121561077457610773610646565b5b5f6107818482850161074b565b91505092915050565b6107938161072c565b82525050565b5f6060820190506107ac5f83018661061e565b6107b9602083018561061e565b6107c6604083018461078a565b949350505050565b5f8115159050919050565b6107e2816107ce565b81146107ec575f5ffd5b50565b5f815190506107fd816107d9565b92915050565b5f6020828403121561081857610817610646565b5b5f610825848285016107ef565b91505092915050565b5f82825260208201905092915050565b7f445241494e5f5452414e534645525f46524f4d5f4641494c45440000000000005f82015250565b5f610872601a8361082e565b915061087d8261083e565b602082019050919050565b5f6020820190508181035f83015261089f81610866565b905091905056fea2646970667358221220bf4334a018fe9153edd1c8f581ab9a2814fef8724d78efe4265b97dc139b7c1b64736f6c634300081e0033","linkReferences":{}},"methodIdentifiers":{"configure(address,address,address)":"55d28f20","controller()":"f77c4791","thief()":"34513589","token()":"fc0c546a"},"id":0}