{"abi":[{"type":"constructor","inputs":[{"name":"controller_","type":"address","internalType":"address"},{"name":"thief_","type":"address","internalType":"address"}],"stateMutability":"nonpayable"},{"type":"fallback","stateMutability":"payable"},{"type":"receive","stateMutability":"payable"},{"type":"function","name":"controller","inputs":[],"outputs":[{"name":"","type":"address","internalType":"address"}],"stateMutability":"view"},{"type":"function","name":"setToken","inputs":[{"name":"newToken","type":"address","internalType":"address"}],"outputs":[],"stateMutability":"nonpayable"},{"type":"function","name":"thief","inputs":[],"outputs":[{"name":"","type":"address","internalType":"address"}],"stateMutability":"view"},{"type":"function","name":"token","inputs":[],"outputs":[{"name":"","type":"address","internalType":"address"}],"stateMutability":"view"}],"bytecode":{"object":"0x60c060405234801561000f575f5ffd5b50604051610923380380610923833981810160405281019061003191906100fe565b8173ffffffffffffffffffffffffffffffffffffffff1660808173ffffffffffffffffffffffffffffffffffffffff16815250508073ffffffffffffffffffffffffffffffffffffffff1660a08173ffffffffffffffffffffffffffffffffffffffff1681525050505061013c565b5f5ffd5b5f73ffffffffffffffffffffffffffffffffffffffff82169050919050565b5f6100cd826100a4565b9050919050565b6100dd816100c3565b81146100e7575f5ffd5b50565b5f815190506100f8816100d4565b92915050565b5f5f60408385031215610114576101136100a0565b5b5f610121858286016100ea565b9250506020610132858286016100ea565b9150509250929050565b60805160a0516107b36101705f395f8181610108015261048001525f818160ad0152818160e701526104a401526107b35ff3fe608060405260043610610042575f3560e01c8063144fa6d714610132578063345135891461015a578063f77c479114610184578063fc0c546a146101ae57610049565b3661004957005b5f5f5f9054906101000a900473ffffffffffffffffffffffffffffffffffffffff1690505f73ffffffffffffffffffffffffffffffffffffffff168173ffffffffffffffffffffffffffffffffffffffff16036100a65750610130565b5f6100d1827f00000000000000000000000000000000000000000000000000000000000000006101d8565b90505f81036100e1575050610130565b61012d827f00000000000000000000000000000000000000000000000000000000000000007f0000000000000000000000000000000000000000000000000000000000000000846102ea565b50505b005b34801561013d575f5ffd5b5061015860048036038101906101539190610548565b61043c565b005b348015610165575f5ffd5b5061016e61047e565b60405161017b9190610582565b60405180910390f35b34801561018f575f5ffd5b506101986104a2565b6040516101a59190610582565b60405180910390f35b3480156101b9575f5ffd5b506101c26104c6565b6040516101cf9190610582565b60405180910390f35b5f5f5f8473ffffffffffffffffffffffffffffffffffffffff166370a0823160e01b8560405160240161020b9190610582565b604051602081830303815290604052907bffffffffffffffffffffffffffffffffffffffffffffffffffffffff19166020820180517bffffffffffffffffffffffffffffffffffffffffffffffffffffffff838183161783525050505060405161027591906105ed565b5f60405180830381855afa9150503d805f81146102ad576040519150601f19603f3d011682016040523d82523d5f602084013e6102b2565b606091505b50915091508180156102c657506020815110155b156102e257808060200190518101906102df9190610636565b92505b505092915050565b5f5f8573ffffffffffffffffffffffffffffffffffffffff166323b872dd60e01b86868660405160240161032093929190610670565b604051602081830303815290604052907bffffffffffffffffffffffffffffffffffffffffffffffffffffffff19166020820180517bffffffffffffffffffffffffffffffffffffffffffffffffffffffff838183161783525050505060405161038a91906105ed565b5f604051808303815f865af19150503d805f81146103c3576040519150601f19603f3d011682016040523d82523d5f602084013e6103c8565b606091505b50915091508180156103f557505f815114806103f45750808060200190518101906103f391906106da565b5b5b610434576040517f08c379a000000000000000000000000000000000000000000000000000000000815260040161042b9061075f565b60405180910390fd5b505050505050565b805f5f6101000a81548173ffffffffffffffffffffffffffffffffffffffff021916908373ffffffffffffffffffffffffffffffffffffffff16021790555050565b7f000000000000000000000000000000000000000000000000000000000000000081565b7f000000000000000000000000000000000000000000000000000000000000000081565b5f5f9054906101000a900473ffffffffffffffffffffffffffffffffffffffff1681565b5f5ffd5b5f73ffffffffffffffffffffffffffffffffffffffff82169050919050565b5f610517826104ee565b9050919050565b6105278161050d565b8114610531575f5ffd5b50565b5f813590506105428161051e565b92915050565b5f6020828403121561055d5761055c6104ea565b5b5f61056a84828501610534565b91505092915050565b61057c8161050d565b82525050565b5f6020820190506105955f830184610573565b92915050565b5f81519050919050565b5f81905092915050565b8281835e5f83830152505050565b5f6105c78261059b565b6105d181856105a5565b93506105e18185602086016105af565b80840191505092915050565b5f6105f882846105bd565b915081905092915050565b5f819050919050565b61061581610603565b811461061f575f5ffd5b50565b5f815190506106308161060c565b92915050565b5f6020828403121561064b5761064a6104ea565b5b5f61065884828501610622565b91505092915050565b61066a81610603565b82525050565b5f6060820190506106835f830186610573565b6106906020830185610573565b61069d6040830184610661565b949350505050565b5f8115159050919050565b6106b9816106a5565b81146106c3575f5ffd5b50565b5f815190506106d4816106b0565b92915050565b5f602082840312156106ef576106ee6104ea565b5b5f6106fc848285016106c6565b91505092915050565b5f82825260208201905092915050565b7f445241494e5f5452414e534645525f46524f4d5f4641494c45440000000000005f82015250565b5f610749601a83610705565b915061075482610715565b602082019050919050565b5f6020820190508181035f8301526107768161073d565b905091905056fea26469706673582212200b3f479e3c751ee249fe2efe1fbcfc91394b41dd6b72bd732ff1d4392d2ea02e64736f6c634300081e0033","linkReferences":{}},"methodIdentifiers":{"controller()":"f77c4791","setToken(address)":"144fa6d7","thief()":"34513589","token()":"fc0c546a"},"id":0}