{"abi":[{"type":"constructor","inputs":[],"stateMutability":"nonpayable"},{"type":"function","name":"approve","inputs":[{"name":"","type":"address","internalType":"address"},{"name":"","type":"uint256","internalType":"uint256"}],"outputs":[{"name":"","type":"bool","internalType":"bool"}],"stateMutability":"pure"},{"type":"function","name":"balanceOf","inputs":[{"name":"","type":"address","internalType":"address"}],"outputs":[{"name":"","type":"uint256","internalType":"uint256"}],"stateMutability":"pure"},{"type":"function","name":"claimInsurance","inputs":[],"outputs":[],"stateMutability":"nonpayable"},{"type":"function","name":"decimals","inputs":[],"outputs":[{"name":"","type":"uint8","internalType":"uint8"}],"stateMutability":"pure"},{"type":"function","name":"deposit","inputs":[{"name":"","type":"uint256","internalType":"uint256"}],"outputs":[],"stateMutability":"nonpayable"},{"type":"function","name":"earn","inputs":[],"outputs":[],"stateMutability":"nonpayable"},{"type":"function","name":"getRatio","inputs":[],"outputs":[{"name":"","type":"uint256","internalType":"uint256"}],"stateMutability":"pure"},{"type":"function","name":"setUnderlying","inputs":[{"name":"newUnderlying","type":"address","internalType":"address"}],"outputs":[],"stateMutability":"nonpayable"},{"type":"function","name":"token","inputs":[],"outputs":[{"name":"","type":"address","internalType":"address"}],"stateMutability":"view"},{"type":"function","name":"transfer","inputs":[{"name":"","type":"address","internalType":"address"},{"name":"","type":"uint256","internalType":"uint256"}],"outputs":[{"name":"","type":"bool","internalType":"bool"}],"stateMutability":"pure"},{"type":"function","name":"transferFrom","inputs":[{"name":"","type":"address","internalType":"address"},{"name":"","type":"address","internalType":"address"},{"name":"","type":"uint256","internalType":"uint256"}],"outputs":[{"name":"","type":"bool","internalType":"bool"}],"stateMutability":"pure"},{"type":"function","name":"underlying","inputs":[],"outputs":[{"name":"","type":"address","internalType":"address"}],"stateMutability":"view"},{"type":"function","name":"withdraw","inputs":[{"name":"","type":"uint256","internalType":"uint256"}],"outputs":[],"stateMutability":"nonpayable"}],"bytecode":{"object":"0x6080604052348015600e575f5ffd5b50736b175474e89094c44da98b954eedeac495271d0f5f5f6101000a81548173ffffffffffffffffffffffffffffffffffffffff021916908373ffffffffffffffffffffffffffffffffffffffff1602179055506105ac8061006f5f395ff3fe608060405234801561000f575f5ffd5b50600436106100cd575f3560e01c8063a75ac6081161008a578063bdb2321f11610064578063bdb2321f1461020f578063d389800f1461022b578063ec1ebd7a14610235578063fc0c546a14610253576100cd565b8063a75ac608146101b9578063a9059cbb146101c3578063b6b55f25146101f3576100cd565b8063095ea7b3146100d157806323b872dd146101015780632e1a7d4d14610131578063313ce5671461014d5780636f307dc31461016b57806370a0823114610189575b5f5ffd5b6100eb60048036038101906100e691906103db565b610271565b6040516100f89190610433565b60405180910390f35b61011b6004803603810190610116919061044c565b61027c565b6040516101289190610433565b60405180910390f35b61014b6004803603810190610146919061049c565b610288565b005b61015561028b565b60405161016291906104e2565b60405180910390f35b610173610293565b604051610180919061050a565b60405180910390f35b6101a3600480360381019061019e9190610523565b6102b7565b6040516101b0919061055d565b60405180910390f35b6101c16102c0565b005b6101dd60048036038101906101d891906103db565b6102c2565b6040516101ea9190610433565b60405180910390f35b61020d6004803603810190610208919061049c565b6102cd565b005b61022960048036038101906102249190610523565b6102d0565b005b610233610312565b005b61023d610314565b60405161024a919061055d565b60405180910390f35b61025b610323565b604051610268919061050a565b60405180910390f35b5f6001905092915050565b5f600190509392505050565b50565b5f6012905090565b5f5f9054906101000a900473ffffffffffffffffffffffffffffffffffffffff1681565b5f5f9050919050565b565b5f6001905092915050565b50565b805f5f6101000a81548173ffffffffffffffffffffffffffffffffffffffff021916908373ffffffffffffffffffffffffffffffffffffffff16021790555050565b565b5f670de0b6b3a7640000905090565b5f5f5f9054906101000a900473ffffffffffffffffffffffffffffffffffffffff16905090565b5f5ffd5b5f73ffffffffffffffffffffffffffffffffffffffff82169050919050565b5f6103778261034e565b9050919050565b6103878161036d565b8114610391575f5ffd5b50565b5f813590506103a28161037e565b92915050565b5f819050919050565b6103ba816103a8565b81146103c4575f5ffd5b50565b5f813590506103d5816103b1565b92915050565b5f5f604083850312156103f1576103f061034a565b5b5f6103fe85828601610394565b925050602061040f858286016103c7565b9150509250929050565b5f8115159050919050565b61042d81610419565b82525050565b5f6020820190506104465f830184610424565b92915050565b5f5f5f606084860312156104635761046261034a565b5b5f61047086828701610394565b935050602061048186828701610394565b9250506040610492868287016103c7565b9150509250925092565b5f602082840312156104b1576104b061034a565b5b5f6104be848285016103c7565b91505092915050565b5f60ff82169050919050565b6104dc816104c7565b82525050565b5f6020820190506104f55f8301846104d3565b92915050565b6105048161036d565b82525050565b5f60208201905061051d5f8301846104fb565b92915050565b5f602082840312156105385761053761034a565b5b5f61054584828501610394565b91505092915050565b610557816103a8565b82525050565b5f6020820190506105705f83018461054e565b9291505056fea2646970667358221220572e24c9f5142291ab94dc82166c5a79e32c237bb0c635a0c90e7a9bc38db24564736f6c634300081e0033","linkReferences":{}},"methodIdentifiers":{"approve(address,uint256)":"095ea7b3","balanceOf(address)":"70a08231","claimInsurance()":"a75ac608","decimals()":"313ce567","deposit(uint256)":"b6b55f25","earn()":"d389800f","getRatio()":"ec1ebd7a","setUnderlying(address)":"bdb2321f","token()":"fc0c546a","transfer(address,uint256)":"a9059cbb","transferFrom(address,address,uint256)":"23b872dd","underlying()":"6f307dc3","withdraw(uint256)":"2e1a7d4d"},"id":0}