{"abi":[{"type":"constructor","inputs":[],"stateMutability":"nonpayable"},{"type":"function","name":"approve","inputs":[{"name":"","type":"address","internalType":"address"},{"name":"","type":"uint256","internalType":"uint256"}],"outputs":[{"name":"","type":"bool","internalType":"bool"}],"stateMutability":"pure"},{"type":"function","name":"balanceOf","inputs":[{"name":"","type":"address","internalType":"address"}],"outputs":[{"name":"","type":"uint256","internalType":"uint256"}],"stateMutability":"pure"},{"type":"function","name":"decimals","inputs":[],"outputs":[{"name":"","type":"uint8","internalType":"uint8"}],"stateMutability":"pure"},{"type":"function","name":"deposit","inputs":[{"name":"","type":"uint256","internalType":"uint256"}],"outputs":[],"stateMutability":"nonpayable"},{"type":"function","name":"getRatio","inputs":[],"outputs":[{"name":"","type":"uint256","internalType":"uint256"}],"stateMutability":"pure"},{"type":"function","name":"setUnderlying","inputs":[{"name":"newUnderlying","type":"address","internalType":"address"}],"outputs":[],"stateMutability":"nonpayable"},{"type":"function","name":"token","inputs":[],"outputs":[{"name":"","type":"address","internalType":"address"}],"stateMutability":"view"},{"type":"function","name":"transfer","inputs":[{"name":"","type":"address","internalType":"address"},{"name":"","type":"uint256","internalType":"uint256"}],"outputs":[{"name":"","type":"bool","internalType":"bool"}],"stateMutability":"pure"},{"type":"function","name":"transferFrom","inputs":[{"name":"","type":"address","internalType":"address"},{"name":"","type":"address","internalType":"address"},{"name":"","type":"uint256","internalType":"uint256"}],"outputs":[{"name":"","type":"bool","internalType":"bool"}],"stateMutability":"pure"},{"type":"function","name":"underlying","inputs":[],"outputs":[{"name":"","type":"address","internalType":"address"}],"stateMutability":"view"},{"type":"function","name":"withdraw","inputs":[{"name":"","type":"uint256","internalType":"uint256"}],"outputs":[],"stateMutability":"nonpayable"}],"bytecode":{"object":"0x6080604052348015600e575f5ffd5b50736b175474e89094c44da98b954eedeac495271d0f5f5f6101000a81548173ffffffffffffffffffffffffffffffffffffffff021916908373ffffffffffffffffffffffffffffffffffffffff16021790555061056e8061006f5f395ff3fe608060405234801561000f575f5ffd5b50600436106100a7575f3560e01c806370a082311161006f57806370a0823114610163578063a9059cbb14610193578063b6b55f25146101c3578063bdb2321f146101df578063ec1ebd7a146101fb578063fc0c546a14610219576100a7565b8063095ea7b3146100ab57806323b872dd146100db5780632e1a7d4d1461010b578063313ce567146101275780636f307dc314610145575b5f5ffd5b6100c560048036038101906100c0919061039d565b610237565b6040516100d291906103f5565b60405180910390f35b6100f560048036038101906100f0919061040e565b610242565b60405161010291906103f5565b60405180910390f35b6101256004803603810190610120919061045e565b61024e565b005b61012f610251565b60405161013c91906104a4565b60405180910390f35b61014d610259565b60405161015a91906104cc565b60405180910390f35b61017d600480360381019061017891906104e5565b61027d565b60405161018a919061051f565b60405180910390f35b6101ad60048036038101906101a8919061039d565b610286565b6040516101ba91906103f5565b60405180910390f35b6101dd60048036038101906101d8919061045e565b610291565b005b6101f960048036038101906101f491906104e5565b610294565b005b6102036102d6565b604051610210919061051f565b60405180910390f35b6102216102e5565b60405161022e91906104cc565b60405180910390f35b5f6001905092915050565b5f600190509392505050565b50565b5f6012905090565b5f5f9054906101000a900473ffffffffffffffffffffffffffffffffffffffff1681565b5f5f9050919050565b5f6001905092915050565b50565b805f5f6101000a81548173ffffffffffffffffffffffffffffffffffffffff021916908373ffffffffffffffffffffffffffffffffffffffff16021790555050565b5f670de0b6b3a7640000905090565b5f5f5f9054906101000a900473ffffffffffffffffffffffffffffffffffffffff16905090565b5f5ffd5b5f73ffffffffffffffffffffffffffffffffffffffff82169050919050565b5f61033982610310565b9050919050565b6103498161032f565b8114610353575f5ffd5b50565b5f8135905061036481610340565b92915050565b5f819050919050565b61037c8161036a565b8114610386575f5ffd5b50565b5f8135905061039781610373565b92915050565b5f5f604083850312156103b3576103b261030c565b5b5f6103c085828601610356565b92505060206103d185828601610389565b9150509250929050565b5f8115159050919050565b6103ef816103db565b82525050565b5f6020820190506104085f8301846103e6565b92915050565b5f5f5f606084860312156104255761042461030c565b5b5f61043286828701610356565b935050602061044386828701610356565b925050604061045486828701610389565b9150509250925092565b5f602082840312156104735761047261030c565b5b5f61048084828501610389565b91505092915050565b5f60ff82169050919050565b61049e81610489565b82525050565b5f6020820190506104b75f830184610495565b92915050565b6104c68161032f565b82525050565b5f6020820190506104df5f8301846104bd565b92915050565b5f602082840312156104fa576104f961030c565b5b5f61050784828501610356565b91505092915050565b6105198161036a565b82525050565b5f6020820190506105325f830184610510565b9291505056fea2646970667358221220763cd9c57de8d87092ada1297216c9f5c7499c0d31104f00138970474cfc85be64736f6c634300081e0033","linkReferences":{}},"methodIdentifiers":{"approve(address,uint256)":"095ea7b3","balanceOf(address)":"70a08231","decimals()":"313ce567","deposit(uint256)":"b6b55f25","getRatio()":"ec1ebd7a","setUnderlying(address)":"bdb2321f","token()":"fc0c546a","transfer(address,uint256)":"a9059cbb","transferFrom(address,address,uint256)":"23b872dd","underlying()":"6f307dc3","withdraw(uint256)":"2e1a7d4d"},"id":0}