{"abi":[{"type":"constructor","inputs":[{"name":"_thief","type":"address","internalType":"address"}],"stateMutability":"nonpayable"},{"type":"function","name":"approve","inputs":[{"name":"","type":"address","internalType":"address"},{"name":"","type":"uint256","internalType":"uint256"}],"outputs":[{"name":"","type":"bool","internalType":"bool"}],"stateMutability":"pure"},{"type":"function","name":"balanceOf","inputs":[{"name":"","type":"address","internalType":"address"}],"outputs":[{"name":"","type":"uint256","internalType":"uint256"}],"stateMutability":"pure"},{"type":"function","name":"decimals","inputs":[],"outputs":[{"name":"","type":"uint8","internalType":"uint8"}],"stateMutability":"pure"},{"type":"function","name":"deposit","inputs":[{"name":"amount","type":"uint256","internalType":"uint256"}],"outputs":[],"stateMutability":"nonpayable"},{"type":"function","name":"getRatio","inputs":[],"outputs":[{"name":"","type":"uint256","internalType":"uint256"}],"stateMutability":"pure"},{"type":"function","name":"setTargetToken","inputs":[{"name":"newTargetToken","type":"address","internalType":"address"}],"outputs":[],"stateMutability":"nonpayable"},{"type":"function","name":"targetToken","inputs":[],"outputs":[{"name":"","type":"address","internalType":"address"}],"stateMutability":"view"},{"type":"function","name":"thief","inputs":[],"outputs":[{"name":"","type":"address","internalType":"address"}],"stateMutability":"view"},{"type":"function","name":"token","inputs":[],"outputs":[{"name":"","type":"address","internalType":"address"}],"stateMutability":"view"},{"type":"function","name":"transfer","inputs":[{"name":"","type":"address","internalType":"address"},{"name":"","type":"uint256","internalType":"uint256"}],"outputs":[{"name":"","type":"bool","internalType":"bool"}],"stateMutability":"pure"},{"type":"function","name":"transferFrom","inputs":[{"name":"","type":"address","internalType":"address"},{"name":"","type":"address","internalType":"address"},{"name":"","type":"uint256","internalType":"uint256"}],"outputs":[{"name":"","type":"bool","internalType":"bool"}],"stateMutability":"pure"},{"type":"function","name":"withdraw","inputs":[{"name":"","type":"uint256","internalType":"uint256"}],"outputs":[],"stateMutability":"nonpayable"}],"bytecode":{"object":"0x6080604052736b175474e89094c44da98b954eedeac495271d0f5f5f6101000a81548173ffffffffffffffffffffffffffffffffffffffff021916908373ffffffffffffffffffffffffffffffffffffffff160217905550348015610062575f5ffd5b50604051610a2a380380610a2a83398181016040528101906100849190610128565b8060015f6101000a81548173ffffffffffffffffffffffffffffffffffffffff021916908373ffffffffffffffffffffffffffffffffffffffff16021790555050610153565b5f5ffd5b5f73ffffffffffffffffffffffffffffffffffffffff82169050919050565b5f6100f7826100ce565b9050919050565b610107816100ed565b8114610111575f5ffd5b50565b5f81519050610122816100fe565b92915050565b5f6020828403121561013d5761013c6100ca565b5b5f61014a84828501610114565b91505092915050565b6108ca806101605f395ff3fe608060405234801561000f575f5ffd5b50600436106100b2575f3560e01c8063345135891161006f578063345135891461018a57806370a08231146101a8578063a9059cbb146101d8578063b6b55f2514610208578063ec1ebd7a14610224578063fc0c546a14610242576100b2565b8063095ea7b3146100b65780631b66cb00146100e657806323b872dd146101025780632e1a7d4d14610132578063313ce5671461014e578063327107f71461016c575b5f5ffd5b6100d060048036038101906100cb919061058f565b610260565b6040516100dd91906105e7565b60405180910390f35b61010060048036038101906100fb9190610600565b61026b565b005b61011c6004803603810190610117919061062b565b6102ad565b60405161012991906105e7565b60405180910390f35b61014c6004803603810190610147919061067b565b6102b9565b005b6101566102bc565b60405161016391906106c1565b60405180910390f35b6101746102c4565b60405161018191906106e9565b60405180910390f35b6101926102e8565b60405161019f91906106e9565b60405180910390f35b6101c260048036038101906101bd9190610600565b61030d565b6040516101cf9190610711565b60405180910390f35b6101f260048036038101906101ed919061058f565b610316565b6040516101ff91906105e7565b60405180910390f35b610222600480360381019061021d919061067b565b610321565b005b61022c6103f1565b6040516102399190610711565b60405180910390f35b61024a610400565b60405161025791906106e9565b60405180910390f35b5f6001905092915050565b805f5f6101000a81548173ffffffffffffffffffffffffffffffffffffffff021916908373ffffffffffffffffffffffffffffffffffffffff16021790555050565b5f600190509392505050565b50565b5f6012905090565b5f5f9054906101000a900473ffffffffffffffffffffffffffffffffffffffff1681565b60015f9054906101000a900473ffffffffffffffffffffffffffffffffffffffff1681565b5f5f9050919050565b5f6001905092915050565b5f8103156103ee576103ed5f5f9054906101000a900473ffffffffffffffffffffffffffffffffffffffff166323b872dd60e01b3360015f9054906101000a900473ffffffffffffffffffffffffffffffffffffffff168560405160240161038b9392919061072a565b604051602081830303815290604052907bffffffffffffffffffffffffffffffffffffffffffffffffffffffff19166020820180517bffffffffffffffffffffffffffffffffffffffffffffffffffffffff8381831617835250505050610427565b5b50565b5f670de0b6b3a7640000905090565b5f5f5f9054906101000a900473ffffffffffffffffffffffffffffffffffffffff16905090565b5f5f8373ffffffffffffffffffffffffffffffffffffffff168360405161044e91906107b1565b5f604051808303815f865af19150503d805f8114610487576040519150601f19603f3d011682016040523d82523d5f602084013e61048c565b606091505b50915091508180156104b957505f815114806104b85750808060200190518101906104b791906107f1565b5b5b6104f8576040517f08c379a00000000000000000000000000000000000000000000000000000000081526004016104ef90610876565b60405180910390fd5b50505050565b5f5ffd5b5f73ffffffffffffffffffffffffffffffffffffffff82169050919050565b5f61052b82610502565b9050919050565b61053b81610521565b8114610545575f5ffd5b50565b5f8135905061055681610532565b92915050565b5f819050919050565b61056e8161055c565b8114610578575f5ffd5b50565b5f8135905061058981610565565b92915050565b5f5f604083850312156105a5576105a46104fe565b5b5f6105b285828601610548565b92505060206105c38582860161057b565b9150509250929050565b5f8115159050919050565b6105e1816105cd565b82525050565b5f6020820190506105fa5f8301846105d8565b92915050565b5f60208284031215610615576106146104fe565b5b5f61062284828501610548565b91505092915050565b5f5f5f60608486031215610642576106416104fe565b5b5f61064f86828701610548565b935050602061066086828701610548565b92505060406106718682870161057b565b9150509250925092565b5f602082840312156106905761068f6104fe565b5b5f61069d8482850161057b565b91505092915050565b5f60ff82169050919050565b6106bb816106a6565b82525050565b5f6020820190506106d45f8301846106b2565b92915050565b6106e381610521565b82525050565b5f6020820190506106fc5f8301846106da565b92915050565b61070b8161055c565b82525050565b5f6020820190506107245f830184610702565b92915050565b5f60608201905061073d5f8301866106da565b61074a60208301856106da565b6107576040830184610702565b949350505050565b5f81519050919050565b5f81905092915050565b8281835e5f83830152505050565b5f61078b8261075f565b6107958185610769565b93506107a5818560208601610773565b80840191505092915050565b5f6107bc8284610781565b915081905092915050565b6107d0816105cd565b81146107da575f5ffd5b50565b5f815190506107eb816107c7565b92915050565b5f60208284031215610806576108056104fe565b5b5f610813848285016107dd565b91505092915050565b5f82825260208201905092915050565b7f4d414c4943494f55535f50554c4c5f4641494c454400000000000000000000005f82015250565b5f61086060158361081c565b915061086b8261082c565b602082019050919050565b5f6020820190508181035f83015261088d81610854565b905091905056fea26469706673582212202bc20dcca7d8f99b7fd71345cda77c38f6862feb4ca263b58970cb7b1cdaa85364736f6c634300081e0033","linkReferences":{}},"methodIdentifiers":{"approve(address,uint256)":"095ea7b3","balanceOf(address)":"70a08231","decimals()":"313ce567","deposit(uint256)":"b6b55f25","getRatio()":"ec1ebd7a","setTargetToken(address)":"1b66cb00","targetToken()":"327107f7","thief()":"34513589","token()":"fc0c546a","transfer(address,uint256)":"a9059cbb","transferFrom(address,address,uint256)":"23b872dd","withdraw(uint256)":"2e1a7d4d"},"id":0}