{"abi":[{"type":"constructor","inputs":[],"stateMutability":"payable"},{"type":"receive","stateMutability":"payable"},{"type":"function","name":"EXPECTED_CHAIN_ID","inputs":[],"outputs":[{"name":"","type":"uint256","internalType":"uint256"}],"stateMutability":"view"},{"type":"function","name":"HEX","inputs":[],"outputs":[{"name":"","type":"address","internalType":"address"}],"stateMutability":"view"},{"type":"function","name":"SUSHISWAP_ROUTER","inputs":[],"outputs":[{"name":"","type":"address","internalType":"address"}],"stateMutability":"view"},{"type":"function","name":"TARGET","inputs":[],"outputs":[{"name":"","type":"address","internalType":"address"}],"stateMutability":"view"},{"type":"function","name":"UNISWAP_V2_ROUTER","inputs":[],"outputs":[{"name":"","type":"address","internalType":"address"}],"stateMutability":"view"},{"type":"function","name":"WETH","inputs":[],"outputs":[{"name":"","type":"address","internalType":"address"}],"stateMutability":"view"},{"type":"function","name":"execute","inputs":[],"outputs":[{"name":"","type":"uint256","internalType":"uint256"}],"stateMutability":"payable"},{"type":"function","name":"executeOnOpportunity","inputs":[],"outputs":[],"stateMutability":"payable"},{"type":"function","name":"executed","inputs":[],"outputs":[{"name":"","type":"bool","internalType":"bool"}],"stateMutability":"view"},{"type":"function","name":"executedRounds","inputs":[],"outputs":[{"name":"","type":"uint256","internalType":"uint256"}],"stateMutability":"view"},{"type":"function","name":"executionEndEthBalance","inputs":[],"outputs":[{"name":"","type":"uint256","internalType":"uint256"}],"stateMutability":"view"},{"type":"function","name":"executionStartEthBalance","inputs":[],"outputs":[{"name":"","type":"uint256","internalType":"uint256"}],"stateMutability":"view"},{"type":"function","name":"exploit","inputs":[],"outputs":[{"name":"","type":"uint256","internalType":"uint256"}],"stateMutability":"payable"},{"type":"function","name":"exploitPathUsed","inputs":[],"outputs":[{"name":"","type":"string","internalType":"string"}],"stateMutability":"view"},{"type":"function","name":"failureReason","inputs":[],"outputs":[{"name":"","type":"string","internalType":"string"}],"stateMutability":"view"},{"type":"function","name":"flashBorrowAmount","inputs":[],"outputs":[{"name":"","type":"uint256","internalType":"uint256"}],"stateMutability":"view"},{"type":"function","name":"flashOrderId","inputs":[],"outputs":[{"name":"","type":"uint256","internalType":"uint256"}],"stateMutability":"view"},{"type":"function","name":"flashPairUsed","inputs":[],"outputs":[{"name":"","type":"address","internalType":"address"}],"stateMutability":"view"},{"type":"function","name":"flashRepayAmount","inputs":[],"outputs":[{"name":"","type":"uint256","internalType":"uint256"}],"stateMutability":"view"},{"type":"function","name":"flashRouterUsed","inputs":[],"outputs":[{"name":"","type":"address","internalType":"address"}],"stateMutability":"view"},{"type":"function","name":"helperBudget","inputs":[],"outputs":[{"name":"","type":"uint256","internalType":"uint256"}],"stateMutability":"view"},{"type":"function","name":"helperHexSpent","inputs":[],"outputs":[{"name":"","type":"uint256","internalType":"uint256"}],"stateMutability":"view"},{"type":"function","name":"helperRealId","inputs":[],"outputs":[{"name":"","type":"uint256","internalType":"uint256"}],"stateMutability":"view"},{"type":"function","name":"hypothesisRefuted","inputs":[],"outputs":[{"name":"","type":"bool","internalType":"bool"}],"stateMutability":"view"},{"type":"function","name":"hypothesisValidated","inputs":[],"outputs":[{"name":"","type":"bool","internalType":"bool"}],"stateMutability":"view"},{"type":"function","name":"makeRealId","inputs":[],"outputs":[{"name":"","type":"uint256","internalType":"uint256"}],"stateMutability":"view"},{"type":"function","name":"makeReturnedId","inputs":[],"outputs":[{"name":"","type":"bytes32","internalType":"bytes32"}],"stateMutability":"view"},{"type":"function","name":"makerHelper","inputs":[],"outputs":[{"name":"","type":"address","internalType":"address"}],"stateMutability":"view"},{"type":"function","name":"observedLastOfferId","inputs":[],"outputs":[{"name":"","type":"uint256","internalType":"uint256"}],"stateMutability":"view"},{"type":"function","name":"offerEthRealId","inputs":[],"outputs":[{"name":"","type":"uint256","internalType":"uint256"}],"stateMutability":"view"},{"type":"function","name":"offerEthReturnedId","inputs":[],"outputs":[{"name":"","type":"uint256","internalType":"uint256"}],"stateMutability":"view"},{"type":"function","name":"offerHexRealId","inputs":[],"outputs":[{"name":"","type":"uint256","internalType":"uint256"}],"stateMutability":"view"},{"type":"function","name":"offerHexReturnedId","inputs":[],"outputs":[{"name":"","type":"uint256","internalType":"uint256"}],"stateMutability":"view"},{"type":"function","name":"profitAchieved","inputs":[],"outputs":[{"name":"","type":"bool","internalType":"bool"}],"stateMutability":"view"},{"type":"function","name":"profitAmount","inputs":[],"outputs":[{"name":"","type":"uint256","internalType":"uint256"}],"stateMutability":"view"},{"type":"function","name":"profitAmountValue","inputs":[],"outputs":[{"name":"","type":"uint256","internalType":"uint256"}],"stateMutability":"view"},{"type":"function","name":"profitToken","inputs":[],"outputs":[{"name":"","type":"address","internalType":"address"}],"stateMutability":"pure"},{"type":"function","name":"profitableId","inputs":[],"outputs":[{"name":"","type":"uint256","internalType":"uint256"}],"stateMutability":"view"},{"type":"function","name":"run","inputs":[],"outputs":[{"name":"","type":"uint256","internalType":"uint256"}],"stateMutability":"payable"},{"type":"function","name":"scanEndId","inputs":[],"outputs":[{"name":"","type":"uint256","internalType":"uint256"}],"stateMutability":"view"},{"type":"function","name":"scanStartId","inputs":[],"outputs":[{"name":"","type":"uint256","internalType":"uint256"}],"stateMutability":"view"},{"type":"function","name":"uniswapV2Call","inputs":[{"name":"sender","type":"address","internalType":"address"},{"name":"amount0","type":"uint256","internalType":"uint256"},{"name":"amount1","type":"uint256","internalType":"uint256"},{"name":"data","type":"bytes","internalType":"bytes"}],"outputs":[],"stateMutability":"nonpayable"}],"bytecode":{"object":"0x6080604052616327806100115f395ff3fe608060405260043610610254575f3560e01c806364b3b78e11610138578063c0406226116100b5578063d78c428111610079578063d78c428114610801578063db0e7cff1461082b578063e946597a14610855578063ea7846581461087f578063ee7201ff146108a9578063f0a01176146108d35761025b565b8063c04062261461073b578063c1ffb3df14610759578063caae2fa214610783578063caca68cd146107ad578063cc1f2afa146107d75761025b565b8063949651b7116100fc578063949651b71461066957806397bff16b14610693578063a82ed9ec146106bd578063a99ae375146106e7578063ad5c4648146107115761025b565b806364b3b78e146105975780636f279266146105c157806373da2cce146105eb578063786bc03d146106155780637e549cc61461063f5761025b565b8063463defd1116101d1578063580120f011610195578063580120f0146104b35780635ff972cc146104dd578063608883b9146105075780636146195414610531578063636ba2311461054f57806363d9b770146105795761025b565b8063463defd1146103e1578063470af8391461040b5780634934362414610435578063495f92f11461045f5780634f9522a4146104895761025b565b806331a38c891161021857806331a38c891461032f578063344f09cc14610359578063367ed0e2146103835780633b83b4d8146103ad5780633c2448ed146103d75761025b565b80630973083c1461025f57806310d1e85c1461028957806317213b52146102b15780631d558966146102db578063277754ed146103055761025b565b3661025b57005b5f5ffd5b34801561026a575f5ffd5b506102736108fd565b60405161028091906144d7565b60405180910390f35b348015610294575f5ffd5b506102af60048036038101906102aa91906145bf565b610922565b005b3480156102bc575f5ffd5b506102c5610f03565b6040516102d29190614652565b60405180910390f35b3480156102e6575f5ffd5b506102ef610f09565b6040516102fc91906144d7565b60405180910390f35b348015610310575f5ffd5b50610319610f21565b60405161032691906144d7565b60405180910390f35b34801561033a575f5ffd5b50610343610f39565b6040516103509190614685565b60405180910390f35b348015610364575f5ffd5b5061036d610f4a565b60405161037a9190614652565b60405180910390f35b34801561038e575f5ffd5b50610397610f50565b6040516103a49190614652565b60405180910390f35b3480156103b8575f5ffd5b506103c1610f56565b6040516103ce9190614652565b60405180910390f35b6103df610f5c565b005b3480156103ec575f5ffd5b506103f5610f66565b6040516104029190614685565b60405180910390f35b348015610416575f5ffd5b5061041f610f78565b60405161042c91906146b6565b60405180910390f35b348015610440575f5ffd5b50610449610f7e565b60405161045691906144d7565b60405180910390f35b34801561046a575f5ffd5b50610473610f85565b6040516104809190614685565b60405180910390f35b348015610494575f5ffd5b5061049d610f97565b6040516104aa919061473f565b60405180910390f35b3480156104be575f5ffd5b506104c7611023565b6040516104d491906144d7565b60405180910390f35b3480156104e8575f5ffd5b506104f1611048565b6040516104fe9190614652565b60405180910390f35b348015610512575f5ffd5b5061051b611051565b6040516105289190614652565b60405180910390f35b610539611057565b6040516105469190614652565b60405180910390f35b34801561055a575f5ffd5b50610563611068565b6040516105709190614652565b60405180910390f35b61058161106e565b60405161058e9190614652565b60405180910390f35b3480156105a2575f5ffd5b506105ab61107f565b6040516105b89190614652565b60405180910390f35b3480156105cc575f5ffd5b506105d5611085565b6040516105e29190614652565b60405180910390f35b3480156105f6575f5ffd5b506105ff61108b565b60405161060c9190614652565b60405180910390f35b348015610620575f5ffd5b50610629611091565b6040516106369190614652565b60405180910390f35b34801561064a575f5ffd5b50610653611097565b60405161066091906144d7565b60405180910390f35b348015610674575f5ffd5b5061067d6110bc565b60405161068a9190614652565b60405180910390f35b34801561069e575f5ffd5b506106a76110c2565b6040516106b49190614652565b60405180910390f35b3480156106c8575f5ffd5b506106d16110c8565b6040516106de91906144d7565b60405180910390f35b3480156106f2575f5ffd5b506106fb6110e0565b6040516107089190614652565b60405180910390f35b34801561071c575f5ffd5b506107256110e6565b60405161073291906144d7565b60405180910390f35b6107436110fe565b6040516107509190614652565b60405180910390f35b348015610764575f5ffd5b5061076d61110f565b60405161077a9190614652565b60405180910390f35b34801561078e575f5ffd5b50610797611114565b6040516107a49190614652565b60405180910390f35b3480156107b8575f5ffd5b506107c161111a565b6040516107ce9190614652565b60405180910390f35b3480156107e2575f5ffd5b506107eb611120565b6040516107f891906144d7565b60405180910390f35b34801561080c575f5ffd5b50610815611138565b604051610822919061473f565b60405180910390f35b348015610836575f5ffd5b5061083f6111c4565b60405161084c9190614652565b60405180910390f35b348015610860575f5ffd5b506108696111ca565b6040516108769190614652565b60405180910390f35b34801561088a575f5ffd5b506108936111d0565b6040516108a09190614652565b60405180910390f35b3480156108b4575f5ffd5b506108bd6111d6565b6040516108ca9190614652565b60405180910390f35b3480156108de575f5ffd5b506108e76111dc565b6040516108f49190614685565b60405180910390f35b600f5f9054906101000a900473ffffffffffffffffffffffffffffffffffffffff1681565b60135f9054906101000a900473ffffffffffffffffffffffffffffffffffffffff1673ffffffffffffffffffffffffffffffffffffffff163373ffffffffffffffffffffffffffffffffffffffff16146109b1576040517f08c379a00000000000000000000000000000000000000000000000000000000081526004016109a8906147a9565b60405180910390fd5b3073ffffffffffffffffffffffffffffffffffffffff168573ffffffffffffffffffffffffffffffffffffffff1614610a1f576040517f08c379a0000000000000000000000000000000000000000000000000000000008152600401610a1690614811565b60405180910390fd5b5f5f5f8484810190610a31919061482f565b9250925092506017548314610a7b576040517f08c379a0000000000000000000000000000000000000000000000000000000008152600401610a72906148c9565b60405180910390fd5b6015548214610abf576040517f08c379a0000000000000000000000000000000000000000000000000000000008152600401610ab690614931565b60405180910390fd5b6016548114610b03576040517f08c379a0000000000000000000000000000000000000000000000000000000008152600401610afa90614999565b60405180910390fd5b81871480610b1057508186145b610b4f576040517f08c379a0000000000000000000000000000000000000000000000000000000008152600401610b4690614a01565b60405180910390fd5b81732b591e99afe9f32eaa6214f7b7629768c40eeb3973ffffffffffffffffffffffffffffffffffffffff1663dd62ed3e3073204b937feaec333e9e6d72d35f1d131f187ecea16040518363ffffffff1660e01b8152600401610bb3929190614a1f565b602060405180830381865afa158015610bce573d5f5f3e3d5ffd5b505050506040513d601f19601f82011682018060405250810190610bf29190614a5a565b1015610cfb57732b591e99afe9f32eaa6214f7b7629768c40eeb3973ffffffffffffffffffffffffffffffffffffffff1663095ea7b373204b937feaec333e9e6d72d35f1d131f187ecea17fffffffffffffffffffffffffffffffffffffffffffffffffffffffffffffffff6040518363ffffffff1660e01b8152600401610c7b929190614a85565b6020604051808303815f875af1158015610c97573d5f5f3e3d5ffd5b505050506040513d601f19601f82011682018060405250810190610cbb9190614ad6565b610cfa576040517f08c379a0000000000000000000000000000000000000000000000000000000008152600401610cf190614b4b565b60405180910390fd5b5b73204b937feaec333e9e6d72d35f1d131f187ecea173ffffffffffffffffffffffffffffffffffffffff1663cc9ae693845f1b6040518263ffffffff1660e01b8152600401610d4a91906146b6565b5f604051808303815f87803b158015610d61575f5ffd5b505af1158015610d73573d5f5f3e3d5ffd5b5050505080471015610dba576040517f08c379a0000000000000000000000000000000000000000000000000000000008152600401610db190614bb3565b60405180910390fd5b73c02aaa39b223fe8d0a0e5c4f27ead9083c756cc273ffffffffffffffffffffffffffffffffffffffff1663d0e30db0826040518263ffffffff1660e01b81526004015f604051808303818588803b158015610e14575f5ffd5b505af1158015610e26573d5f5f3e3d5ffd5b505050505073c02aaa39b223fe8d0a0e5c4f27ead9083c756cc273ffffffffffffffffffffffffffffffffffffffff1663a9059cbb33836040518363ffffffff1660e01b8152600401610e7a929190614a85565b6020604051808303815f875af1158015610e96573d5f5f3e3d5ffd5b505050506040513d601f19601f82011682018060405250810190610eba9190614ad6565b610ef9576040517f08c379a0000000000000000000000000000000000000000000000000000000008152600401610ef090614c1b565b60405180910390fd5b5050505050505050565b600b5481565b732b591e99afe9f32eaa6214f7b7629768c40eeb3981565b73d9e1ce17f2641f24ae83637ab66a2cca9c378b9f81565b5f5f9054906101000a900460ff1681565b60165481565b60105481565b60035481565b610f646111ee565b565b5f60019054906101000a900460ff1681565b600d5481565b5f5f905090565b5f60029054906101000a900460ff1681565b60188054610fa490614c66565b80601f0160208091040260200160405190810160405280929190818152602001828054610fd090614c66565b801561101b5780601f10610ff25761010080835404028352916020019161101b565b820191905f5260205f20905b815481529060010190602001808311610ffe57829003601f168201915b505050505081565b60135f9054906101000a900473ffffffffffffffffffffffffffffffffffffffff1681565b5f600154905090565b60025481565b5f6110606111ee565b600154905090565b60095481565b5f6110776111ee565b600154905090565b60045481565b60115481565b60075481565b60055481565b60145f9054906101000a900473ffffffffffffffffffffffffffffffffffffffff1681565b600e5481565b60175481565b737a250d5630b4cf539739df2c5dacb4c659f2488d81565b600a5481565b73c02aaa39b223fe8d0a0e5c4f27ead9083c756cc281565b5f6111076111ee565b600154905090565b600181565b60085481565b60065481565b73204b937feaec333e9e6d72d35f1d131f187ecea181565b6019805461114590614c66565b80601f016020809104026020016040519081016040528092919081815260200182805461117190614c66565b80156111bc5780601f10611193576101008083540402835291602001916111bc565b820191905f5260205f20905b81548152906001019060200180831161119f57829003601f168201915b505050505081565b600c5481565b60015481565b60125481565b60155481565b5f60039054906101000a900460ff1681565b5f5f9054906101000a900460ff161561123c576040517f08c379a000000000000000000000000000000000000000000000000000000000815260040161123390614ce0565b60405180910390fd5b6001461461127f576040517f08c379a000000000000000000000000000000000000000000000000000000000815260040161127690614d48565b60405180910390fd5b60015f5f6101000a81548160ff021916908315150217905550476002819055505f73204b937feaec333e9e6d72d35f1d131f187ecea190508073ffffffffffffffffffffffffffffffffffffffff1663232cae0b6040518163ffffffff1660e01b8152600401602060405180830381865afa158015611300573d5f5f3e3d5ffd5b505050506040513d601f19601f820116820180604052508101906113249190614a5a565b6004819055505f611334826114ac565b90505f61134083611891565b90505f61134c84611dcb565b90508280156113585750815b80156113615750805b5f60016101000a81548160ff0219169083151502179055505f60019054906101000a900460ff16155f60026101000a81548160ff0219169083151502179055505f60019054906101000a900460ff16156113de5760405180608001604052806058815260200161615060589139601990816113dc9190614f33565b505b6113e7846121b4565b5f6007541480156113f957505f600154145b156114085761140784612400565b5b47600381905550600254600354111561144f5760025460035461142b919061502f565b6001819055505f600154115f60036101000a81548160ff0219169083151502179055505b5f60039054906101000a900460ff1615801561147857505f6018805461147490614c66565b9050145b156114a65760405180608001604052806053815260200161622260539139601890816114a49190614f33565b505b50505050565b5f60014710156114be575f905061188c565b5f8273ffffffffffffffffffffffffffffffffffffffff1663232cae0b6040518163ffffffff1660e01b8152600401602060405180830381865afa158015611508573d5f5f3e3d5ffd5b505050506040513d601f19601f8201168201806040525081019061152c9190614a5a565b90508273ffffffffffffffffffffffffffffffffffffffff1663b42241ab60018060016040518463ffffffff1660e01b815260040161156c929190615062565b60206040518083038185885af1935050505080156115a857506040513d601f19601f820116820180604052508101906115a59190614a5a565b60015b6115b5575f91505061188c565b5f8473ffffffffffffffffffffffffffffffffffffffff1663232cae0b6040518163ffffffff1660e01b8152600401602060405180830381865afa1580156115ff573d5f5f3e3d5ffd5b505050506040513d601f19601f820116820180604052508101906116239190614a5a565b90508160098190555080600a819055505f8214158061164157505f81145b8061165857506001836116549190615089565b8114155b15611668575f935050505061188c565b5f5f5f5f5f5f5f6116798c89612a34565b96509650965096509650965096508661169e575f9a505050505050505050505061188c565b5f8367ffffffffffffffff1614806116b7575060018614155b806116c3575060018514155b806116fa57503073ffffffffffffffffffffffffffffffffffffffff168473ffffffffffffffffffffffffffffffffffffffff1614155b80611706575060018114155b1561171d575f9a505050505050505050505061188c565b875f1b8214611738575f9a505050505050505050505061188c565b8b73ffffffffffffffffffffffffffffffffffffffff166382afd23b8a6040518263ffffffff1660e01b81526004016117719190614652565b602060405180830381865afa15801561178c573d5f5f3e3d5ffd5b505050506040513d601f19601f820116820180604052508101906117b09190614ad6565b156117c7575f9a505050505050505050505061188c565b6117d08c612af7565b6117e6575f9a505050505050505050505061188c565b6117f08c89612b83565b611806575f9a505050505050505050505061188c565b8b73ffffffffffffffffffffffffffffffffffffffff166382afd23b896040518263ffffffff1660e01b815260040161183f9190614652565b602060405180830381865afa15801561185a573d5f5f3e3d5ffd5b505050506040513d601f19601f8201168201806040525081019061187e9190614ad6565b159a50505050505050505050505b919050565b5f60016601c6bf526340006118a69190615089565b4710156118b5575f9050611dc6565b5f6118c66601c6bf52634000612c0f565b90505f81036118d8575f915050611dc6565b61190b732b591e99afe9f32eaa6214f7b7629768c40eeb3973204b937feaec333e9e6d72d35f1d131f187ecea183612f1e565b611918575f915050611dc6565b5f8373ffffffffffffffffffffffffffffffffffffffff1663232cae0b6040518163ffffffff1660e01b8152600401602060405180830381865afa158015611962573d5f5f3e3d5ffd5b505050506040513d601f19601f820116820180604052508101906119869190614a5a565b90508373ffffffffffffffffffffffffffffffffffffffff1663a321d8868360016040518363ffffffff1660e01b81526004016119c4929190615062565b6020604051808303815f875af19250505080156119ff57506040513d601f19601f820116820180604052508101906119fc9190614a5a565b60015b611a0d575f92505050611dc6565b5f8573ffffffffffffffffffffffffffffffffffffffff1663232cae0b6040518163ffffffff1660e01b8152600401602060405180830381865afa158015611a57573d5f5f3e3d5ffd5b505050506040513d601f19601f82011682018060405250810190611a7b9190614a5a565b905081600b8190555080600c819055505f82141580611a9957505f81145b80611ab05750600183611aac9190615089565b8114155b15611ac1575f945050505050611dc6565b5f5f5f5f5f5f5f611ad28d89612a34565b965096509650965096509650965086611af8575f9b505050505050505050505050611dc6565b5f8367ffffffffffffffff161480611b1057508a8614155b80611b1c575060018514155b80611b5357503073ffffffffffffffffffffffffffffffffffffffff168473ffffffffffffffffffffffffffffffffffffffff1614155b80611b5e57505f8114155b15611b76575f9b505050505050505050505050611dc6565b875f1b8214611b92575f9b505050505050505050505050611dc6565b8c73ffffffffffffffffffffffffffffffffffffffff166382afd23b8a6040518263ffffffff1660e01b8152600401611bcb9190614652565b602060405180830381865afa158015611be6573d5f5f3e3d5ffd5b505050506040513d601f19601f82011682018060405250810190611c0a9190614ad6565b15611c22575f9b505050505050505050505050611dc6565b611c2b8d612af7565b611c42575f9b505050505050505050505050611dc6565b611c4b8d61304d565b611c62575f9b505050505050505050505050611dc6565b611c6c8d89612b83565b611c83575f9b505050505050505050505050611dc6565b8c73ffffffffffffffffffffffffffffffffffffffff166382afd23b896040518263ffffffff1660e01b8152600401611cbc9190614652565b602060405180830381865afa158015611cd7573d5f5f3e3d5ffd5b505050506040513d601f19601f82011682018060405250810190611cfb9190614ad6565b15611d13575f9b505050505050505050505050611dc6565b5f732b591e99afe9f32eaa6214f7b7629768c40eeb3973ffffffffffffffffffffffffffffffffffffffff166370a08231306040518263ffffffff1660e01b8152600401611d6191906144d7565b602060405180830381865afa158015611d7c573d5f5f3e3d5ffd5b505050506040513d601f19601f82011682018060405250810190611da09190614a5a565b90505f811115611db557611db3816130c7565b505b60019c505050505050505050505050505b919050565b5f6001471015611ddd575f90506121af565b5f8273ffffffffffffffffffffffffffffffffffffffff1663232cae0b6040518163ffffffff1660e01b8152600401602060405180830381865afa158015611e27573d5f5f3e3d5ffd5b505050506040513d601f19601f82011682018060405250810190611e4b9190614a5a565b90508273ffffffffffffffffffffffffffffffffffffffff1663abc7aea660018060016040518463ffffffff1660e01b8152600401611e8b929190615062565b60206040518083038185885af193505050508015611ec757506040513d601f19601f82011682018060405250810190611ec491906150e6565b60015b611ed4575f9150506121af565b5f8473ffffffffffffffffffffffffffffffffffffffff1663232cae0b6040518163ffffffff1660e01b8152600401602060405180830381865afa158015611f1e573d5f5f3e3d5ffd5b505050506040513d601f19601f82011682018060405250810190611f429190614a5a565b905081600d8190555080600e819055505f5f1b82141580611f6257505f81145b80611f795750600183611f759190615089565b8114155b15611f89575f93505050506121af565b5f5f5f5f5f5f5f611f9a8c89612a34565b965096509650965096509650965086611fbf575f9a50505050505050505050506121af565b5f8367ffffffffffffffff161480611fd8575060018614155b80611fe4575060018514155b8061201b57503073ffffffffffffffffffffffffffffffffffffffff168473ffffffffffffffffffffffffffffffffffffffff1614155b80612027575060018114155b1561203e575f9a50505050505050505050506121af565b875f1b8214612059575f9a50505050505050505050506121af565b8b73ffffffffffffffffffffffffffffffffffffffff166382afd23b8a5f1c6040518263ffffffff1660e01b81526004016120949190614652565b602060405180830381865afa1580156120af573d5f5f3e3d5ffd5b505050506040513d601f19601f820116820180604052508101906120d39190614ad6565b156120ea575f9a50505050505050505050506121af565b6120f38c61304d565b612109575f9a50505050505050505050506121af565b6121138c896132f0565b612129575f9a50505050505050505050506121af565b8b73ffffffffffffffffffffffffffffffffffffffff166382afd23b896040518263ffffffff1660e01b81526004016121629190614652565b602060405180830381865afa15801561217d573d5f5f3e3d5ffd5b505050506040513d601f19601f820116820180604052508101906121a19190614ad6565b159a50505050505050505050505b919050565b5f8173ffffffffffffffffffffffffffffffffffffffff1663232cae0b6040518163ffffffff1660e01b8152600401602060405180830381865afa1580156121fe573d5f5f3e3d5ffd5b505050506040513d601f19601f820116820180604052508101906122229190614a5a565b905080600581905550610200811161223b576001612256565b60016102008261224b919061502f565b6122559190615089565b5b6006819055505f8190505b60065481106123fb57600c600754101580612286575067016345785d8a000060015410155b6123fb575f5f5f5f5f5f61229a8988612a34565b965096509650509550955095508515806122bd57505f8367ffffffffffffffff16145b806122ca5750865f1b8214155b8061234a57508873ffffffffffffffffffffffffffffffffffffffff166382afd23b886040518263ffffffff1660e01b81526004016123099190614652565b602060405180830381865afa158015612324573d5f5f3e3d5ffd5b505050506040513d601f19601f820116820180604052508101906123489190614ad6565b155b1561236d5760018703612362575050505050506123fb565b5050505050506123e8565b5f8103612385576123808988878761336b565b612392565b612391898887876135f9565b5b6002544711156123ce57600254476123aa919061502f565b6001819055505f600154115f60036101000a81548160ff0219169083151502179055505b600187036123e1575050505050506123fb565b5050505050505b80806123f390615111565b915050612261565b505050565b600164746a5288006124129190615089565b471115612a31575f732b591e99afe9f32eaa6214f7b7629768c40eeb3973ffffffffffffffffffffffffffffffffffffffff166370a08231306040518263ffffffff1660e01b815260040161246791906144d7565b602060405180830381865afa158015612482573d5f5f3e3d5ffd5b505050506040513d601f19601f820116820180604052508101906124a69190614a5a565b90505f81036124bf576124bd64746a528800612c0f565b505b5f732b591e99afe9f32eaa6214f7b7629768c40eeb3973ffffffffffffffffffffffffffffffffffffffff166370a08231306040518263ffffffff1660e01b815260040161250d91906144d7565b602060405180830381865afa158015612528573d5f5f3e3d5ffd5b505050506040513d601f19601f8201168201806040525081019061254c9190614a5a565b90505f810361255c575050612a31565b6001601281905550612599732b591e99afe9f32eaa6214f7b7629768c40eeb3973204b937feaec333e9e6d72d35f1d131f187ecea1601254612f1e565b6125a4575050612a31565b5f6040516125b19061448b565b604051809103905ff0801580156125ca573d5f5f3e3d5ffd5b50905080600f5f6101000a81548173ffffffffffffffffffffffffffffffffffffffff021916908373ffffffffffffffffffffffffffffffffffffffff1602179055506001471161261b575f612629565b600147612628919061502f565b5b6011819055505f6011540361264057505050612a31565b8073ffffffffffffffffffffffffffffffffffffffff1663d9c5216d6011546040518263ffffffff1660e01b815260040160206040518083038185885af1935050505080156126ad57506040513d601f19601f820116820180604052508101906126aa9190614a5a565b60015b6126b957505050612a31565b80601081905550505f5f5f5f5f5f5f6126d48b601054612a34565b96509650965096509650965096508615806126f857505f8367ffffffffffffffff16145b806127505750600f5f9054906101000a900473ffffffffffffffffffffffffffffffffffffffff1673ffffffffffffffffffffffffffffffffffffffff168473ffffffffffffffffffffffffffffffffffffffff1614155b8061275f57506010545f1b8214155b8061276b575060018114155b1561277f5750505050505050505050612a31565b60018514158061279157506011548614155b8061281357508a73ffffffffffffffffffffffffffffffffffffffff166382afd23b6010546040518263ffffffff1660e01b81526004016127d29190614652565b602060405180830381865afa1580156127ed573d5f5f3e3d5ffd5b505050506040513d601f19601f820116820180604052508101906128119190614ad6565b155b156128275750505050505050505050612a31565b5f4790505f732b591e99afe9f32eaa6214f7b7629768c40eeb3973ffffffffffffffffffffffffffffffffffffffff166370a08231306040518263ffffffff1660e01b815260040161287991906144d7565b602060405180830381865afa158015612894573d5f5f3e3d5ffd5b505050506040513d601f19601f820116820180604052508101906128b89190614a5a565b90508c73ffffffffffffffffffffffffffffffffffffffff1663cc9ae6936010545f1b6040518263ffffffff1660e01b81526004016128f791906146b6565b5f604051808303815f87803b15801561290e575f5ffd5b505af192505050801561291f575060015b15612a24575f4790505f732b591e99afe9f32eaa6214f7b7629768c40eeb3973ffffffffffffffffffffffffffffffffffffffff166370a08231306040518263ffffffff1660e01b815260040161297691906144d7565b602060405180830381865afa158015612991573d5f5f3e3d5ffd5b505050506040513d601f19601f820116820180604052508101906129b59190614a5a565b905083821180156129d3575082601254826129d09190615089565b10155b15612a215760075f8154809291906129ea90615138565b91905055506010546008819055506040518060a00160405280607a81526020016161a8607a913960199081612a1f9190614f33565b505b50505b5050505050505050505050505b50565b5f5f5f5f5f5f5f8873ffffffffffffffffffffffffffffffffffffffff16638a72ea6a896040518263ffffffff1660e01b8152600401612a749190614652565b60c060405180830381865afa925050508015612aae57506040513d601f19601f82011682018060405250810190612aab91906151d0565b60015b612ace575f5f5f5f5f5f5f1b5f9650965096509650965096509650612aeb565b60018686868686869c509c509c509c509c509c509c505050505050505b92959891949750929550565b5f8173ffffffffffffffffffffffffffffffffffffffff166340e58ee55f6040518263ffffffff1660e01b8152600401612b319190615292565b6020604051808303815f875af1925050508015612b6c57506040513d601f19601f82011682018060405250810190612b699190614ad6565b60015b612b795760019050612b7e565b5f9150505b919050565b5f8273ffffffffffffffffffffffffffffffffffffffff166340e58ee5836040518263ffffffff1660e01b8152600401612bbd9190614652565b6020604051808303815f875af1925050508015612bf857506040513d601f19601f82011682018060405250810190612bf59190614ad6565b60015b612c04575f9050612c09565b809150505b92915050565b5f5f612c1a836138db565b90505f73ffffffffffffffffffffffffffffffffffffffff168173ffffffffffffffffffffffffffffffffffffffff161480612c5557505f83145b15612c63575f915050612f19565b5f600267ffffffffffffffff811115612c7f57612c7e614d66565b5b604051908082528060200260200182016040528015612cad5781602001602082028036833780820191505090505b50905073c02aaa39b223fe8d0a0e5c4f27ead9083c756cc2815f81518110612cd857612cd76152ab565b5b602002602001019073ffffffffffffffffffffffffffffffffffffffff16908173ffffffffffffffffffffffffffffffffffffffff1681525050732b591e99afe9f32eaa6214f7b7629768c40eeb3981600181518110612d3b57612d3a6152ab565b5b602002602001019073ffffffffffffffffffffffffffffffffffffffff16908173ffffffffffffffffffffffffffffffffffffffff16815250505f732b591e99afe9f32eaa6214f7b7629768c40eeb3973ffffffffffffffffffffffffffffffffffffffff166370a08231306040518263ffffffff1660e01b8152600401612dc391906144d7565b602060405180830381865afa158015612dde573d5f5f3e3d5ffd5b505050506040513d601f19601f82011682018060405250810190612e029190614a5a565b90508273ffffffffffffffffffffffffffffffffffffffff1663b6f9de95865f8530426040518663ffffffff1660e01b8152600401612e44949392919061538f565b5f604051808303818588803b158015612e5b575f5ffd5b505af193505050508015612e6d575060015b612e7c575f9350505050612f19565b80732b591e99afe9f32eaa6214f7b7629768c40eeb3973ffffffffffffffffffffffffffffffffffffffff166370a08231306040518263ffffffff1660e01b8152600401612eca91906144d7565b602060405180830381865afa158015612ee5573d5f5f3e3d5ffd5b505050506040513d601f19601f82011682018060405250810190612f099190614a5a565b612f13919061502f565b93505050505b919050565b5f818473ffffffffffffffffffffffffffffffffffffffff1663dd62ed3e30866040518363ffffffff1660e01b8152600401612f5b929190614a1f565b602060405180830381865afa158015612f76573d5f5f3e3d5ffd5b505050506040513d601f19601f82011682018060405250810190612f9a9190614a5a565b10612fa85760019050613046565b8373ffffffffffffffffffffffffffffffffffffffff1663095ea7b3847fffffffffffffffffffffffffffffffffffffffffffffffffffffffffffffffff6040518363ffffffff1660e01b8152600401613003929190614a85565b6020604051808303815f875af115801561301f573d5f5f3e3d5ffd5b505050506040513d601f19601f820116820180604052508101906130439190614ad6565b90505b9392505050565b5f8173ffffffffffffffffffffffffffffffffffffffff1663b4f9b6c85f5f1b6040518263ffffffff1660e01b815260040161308991906146b6565b5f604051808303815f87803b1580156130a0575f5ffd5b505af19250505080156130b1575060015b6130be57600190506130c2565b5f90505b919050565b5f5f82036130d7575f90506132eb565b5f6130e18361397d565b90505f73ffffffffffffffffffffffffffffffffffffffff168173ffffffffffffffffffffffffffffffffffffffff160361311f575f9150506132eb565b61313e732b591e99afe9f32eaa6214f7b7629768c40eeb398285612f1e565b61314b575f9150506132eb565b5f600267ffffffffffffffff81111561316757613166614d66565b5b6040519080825280602002602001820160405280156131955781602001602082028036833780820191505090505b509050732b591e99afe9f32eaa6214f7b7629768c40eeb39815f815181106131c0576131bf6152ab565b5b602002602001019073ffffffffffffffffffffffffffffffffffffffff16908173ffffffffffffffffffffffffffffffffffffffff168152505073c02aaa39b223fe8d0a0e5c4f27ead9083c756cc281600181518110613223576132226152ab565b5b602002602001019073ffffffffffffffffffffffffffffffffffffffff16908173ffffffffffffffffffffffffffffffffffffffff16815250505f4790508273ffffffffffffffffffffffffffffffffffffffff1663791ac947865f8530426040518663ffffffff1660e01b81526004016132a29594939291906153d9565b5f604051808303815f87803b1580156132b9575f5ffd5b505af19250505080156132ca575060015b6132d9575f93505050506132eb565b80476132e5919061502f565b93505050505b919050565b5f8273ffffffffffffffffffffffffffffffffffffffff1663b4f9b6c8835f1b6040518263ffffffff1660e01b815260040161332c91906146b6565b5f604051808303815f87803b158015613343575f5ffd5b505af1925050508015613354575060015b613360575f9050613365565b600190505b92915050565b5f81148061337857505f82145b8061338257508047105b6135f3575f61339083613a1f565b90505f810361339f57506135f3565b5f600161271060c8856133b29190615431565b6133bc919061549f565b846133c79190615089565b6133d19190615089565b90508082116133e15750506135f3565b5f4790505f732b591e99afe9f32eaa6214f7b7629768c40eeb3973ffffffffffffffffffffffffffffffffffffffff166370a08231306040518263ffffffff1660e01b815260040161343391906144d7565b602060405180830381865afa15801561344e573d5f5f3e3d5ffd5b505050506040513d601f19601f820116820180604052508101906134729190614a5a565b90508773ffffffffffffffffffffffffffffffffffffffff1663cc9ae69386895f1b6040518363ffffffff1660e01b81526004016134b091906146b6565b5f604051808303818588803b1580156134c7575f5ffd5b505af1935050505080156134d9575060015b156135ee575f732b591e99afe9f32eaa6214f7b7629768c40eeb3973ffffffffffffffffffffffffffffffffffffffff166370a08231306040518263ffffffff1660e01b815260040161352c91906144d7565b602060405180830381865afa158015613547573d5f5f3e3d5ffd5b505050506040513d601f19601f8201168201806040525081019061356b9190614a5a565b905081811161357e5750505050506135f3565b5f828261358b919061502f565b9050613596816130c7565b505f479050848111156135ea5760075f8154809291906135b590615138565b9190505550896008819055506040518060a00160405280606781526020016160e960679139601990816135e89190614f33565b505b5050505b505050505b50505050565b5f82148061360657505f81145b6138d5575f5f5f61361684613a7b565b9250925092505f73ffffffffffffffffffffffffffffffffffffffff168373ffffffffffffffffffffffffffffffffffffffff16148061365557505f81145b15613662575050506138d5565b5f60016127106019846136759190615431565b61367f919061549f565b8361368a9190615089565b6136949190615089565b90508086116136a657505050506138d5565b8360135f6101000a81548173ffffffffffffffffffffffffffffffffffffffff021916908373ffffffffffffffffffffffffffffffffffffffff1602179055508260145f6101000a81548173ffffffffffffffffffffffffffffffffffffffff021916908373ffffffffffffffffffffffffffffffffffffffff1602179055508460158190555081601681905550866017819055505f4790505f888785604051602001613755939291906154cf565b60405160208183030381529060405290505f5f613772888a613b59565b915091508773ffffffffffffffffffffffffffffffffffffffff1663022c0d9f838330876040518563ffffffff1660e01b81526004016137b59493929190615556565b5f604051808303815f87803b1580156137cc575f5ffd5b505af19250505080156137dd575060015b15613837575f479050848111156138355760075f81548092919061380090615138565b91905055508b6008819055506040518060a00160405280607d8152602001616275607d9139601990816138339190614f33565b505b505b5f60135f6101000a81548173ffffffffffffffffffffffffffffffffffffffff021916908373ffffffffffffffffffffffffffffffffffffffff1602179055505f60145f6101000a81548173ffffffffffffffffffffffffffffffffffffffff021916908373ffffffffffffffffffffffffffffffffffffffff1602179055505f6015819055505f6016819055505f60178190555050505050505050505b50505050565b5f5f6138fb737a250d5630b4cf539739df2c5dacb4c659f2488d84613c21565b90505f61391c73d9e1ce17f2641f24ae83637ab66a2cca9c378b9f85613c21565b90505f8214801561392c57505f81145b1561393b575f92505050613978565b8082101561395d5773d9e1ce17f2641f24ae83637ab66a2cca9c378b9f613973565b737a250d5630b4cf539739df2c5dacb4c659f2488d5b925050505b919050565b5f5f61399d737a250d5630b4cf539739df2c5dacb4c659f2488d84613de3565b90505f6139be73d9e1ce17f2641f24ae83637ab66a2cca9c378b9f85613de3565b90505f821480156139ce57505f81145b156139dd575f92505050613a1a565b808210156139ff5773d9e1ce17f2641f24ae83637ab66a2cca9c378b9f613a15565b737a250d5630b4cf539739df2c5dacb4c659f2488d5b925050505b919050565b5f5f613a3f737a250d5630b4cf539739df2c5dacb4c659f2488d84613de3565b90505f613a6073d9e1ce17f2641f24ae83637ab66a2cca9c378b9f85613de3565b905080821015613a705780613a72565b815b92505050919050565b5f5f5f5f5f613a9e737a250d5630b4cf539739df2c5dacb4c659f2488d87613fa5565b915091505f5f613ac273d9e1ce17f2641f24ae83637ab66a2cca9c378b9f89613fa5565b915091505f83148015613ad457505f81145b15613aeb575f5f5f96509650965050505050613b52565b5f8314158015613b0557505f811480613b045750808311155b5b15613b305783737a250d5630b4cf539739df2c5dacb4c659f2488d8496509650965050505050613b52565b8173d9e1ce17f2641f24ae83637ab66a2cca9c378b9f82965096509650505050505b9193909250565b5f5f732b591e99afe9f32eaa6214f7b7629768c40eeb3973ffffffffffffffffffffffffffffffffffffffff168473ffffffffffffffffffffffffffffffffffffffff16630dfe16816040518163ffffffff1660e01b8152600401602060405180830381865afa158015613bcf573d5f5f3e3d5ffd5b505050506040513d601f19601f82011682018060405250810190613bf391906155a0565b73ffffffffffffffffffffffffffffffffffffffff1603613c1657829150613c1a565b8290505b9250929050565b5f5f600267ffffffffffffffff811115613c3e57613c3d614d66565b5b604051908082528060200260200182016040528015613c6c5781602001602082028036833780820191505090505b50905073c02aaa39b223fe8d0a0e5c4f27ead9083c756cc2815f81518110613c9757613c966152ab565b5b602002602001019073ffffffffffffffffffffffffffffffffffffffff16908173ffffffffffffffffffffffffffffffffffffffff1681525050732b591e99afe9f32eaa6214f7b7629768c40eeb3981600181518110613cfa57613cf96152ab565b5b602002602001019073ffffffffffffffffffffffffffffffffffffffff16908173ffffffffffffffffffffffffffffffffffffffff16815250508373ffffffffffffffffffffffffffffffffffffffff1663d06ca61f84836040518363ffffffff1660e01b8152600401613d6f9291906155cb565b5f60405180830381865afa925050508015613dac57506040513d5f823e3d601f19601f82011682018060405250810190613da99190615704565b60015b15613ddc57600181511115613dda5780600181518110613dcf57613dce6152ab565b5b602002602001015192505b505b5092915050565b5f5f600267ffffffffffffffff811115613e0057613dff614d66565b5b604051908082528060200260200182016040528015613e2e5781602001602082028036833780820191505090505b509050732b591e99afe9f32eaa6214f7b7629768c40eeb39815f81518110613e5957613e586152ab565b5b602002602001019073ffffffffffffffffffffffffffffffffffffffff16908173ffffffffffffffffffffffffffffffffffffffff168152505073c02aaa39b223fe8d0a0e5c4f27ead9083c756cc281600181518110613ebc57613ebb6152ab565b5b602002602001019073ffffffffffffffffffffffffffffffffffffffff16908173ffffffffffffffffffffffffffffffffffffffff16815250508373ffffffffffffffffffffffffffffffffffffffff1663d06ca61f84836040518363ffffffff1660e01b8152600401613f319291906155cb565b5f60405180830381865afa925050508015613f6e57506040513d5f823e3d601f19601f82011682018060405250810190613f6b9190615704565b60015b15613f9e57600181511115613f9c5780600181518110613f9157613f906152ab565b5b602002602001015192505b505b5092915050565b5f5f8373ffffffffffffffffffffffffffffffffffffffff1663c45a01556040518163ffffffff1660e01b8152600401602060405180830381865afa158015613ff0573d5f5f3e3d5ffd5b505050506040513d601f19601f8201168201806040525081019061401491906155a0565b73ffffffffffffffffffffffffffffffffffffffff1663e6a43905732b591e99afe9f32eaa6214f7b7629768c40eeb3973c02aaa39b223fe8d0a0e5c4f27ead9083c756cc26040518363ffffffff1660e01b8152600401614076929190614a1f565b602060405180830381865afa158015614091573d5f5f3e3d5ffd5b505050506040513d601f19601f820116820180604052508101906140b591906155a0565b91505f73ffffffffffffffffffffffffffffffffffffffff168273ffffffffffffffffffffffffffffffffffffffff16036140f5575f5f91509150614168565b5f5f61412a84732b591e99afe9f32eaa6214f7b7629768c40eeb3973c02aaa39b223fe8d0a0e5c4f27ead9083c756cc261416f565b915091505f82148061413b57505f81145b806141465750818510155b1561415857835f935093505050614168565b6141638582846143ff565b925050505b9250929050565b5f5f5f8590505f8173ffffffffffffffffffffffffffffffffffffffff16630dfe16816040518163ffffffff1660e01b8152600401602060405180830381865afa1580156141bf573d5f5f3e3d5ffd5b505050506040513d601f19601f820116820180604052508101906141e391906155a0565b90505f8273ffffffffffffffffffffffffffffffffffffffff1663d21220a76040518163ffffffff1660e01b8152600401602060405180830381865afa15801561422f573d5f5f3e3d5ffd5b505050506040513d601f19601f8201168201806040525081019061425391906155a0565b90505f5f8473ffffffffffffffffffffffffffffffffffffffff16630902f1ac6040518163ffffffff1660e01b8152600401606060405180830381865afa1580156142a0573d5f5f3e3d5ffd5b505050506040513d601f19601f820116820180604052508101906142c491906157c7565b50915091508873ffffffffffffffffffffffffffffffffffffffff168473ffffffffffffffffffffffffffffffffffffffff1614801561432f57508773ffffffffffffffffffffffffffffffffffffffff168373ffffffffffffffffffffffffffffffffffffffff16145b1561435f57816dffffffffffffffffffffffffffff169650806dffffffffffffffffffffffffffff1695506143f2565b8773ffffffffffffffffffffffffffffffffffffffff168473ffffffffffffffffffffffffffffffffffffffff161480156143c557508873ffffffffffffffffffffffffffffffffffffffff168373ffffffffffffffffffffffffffffffffffffffff16145b156143f157806dffffffffffffffffffffffffffff169650816dffffffffffffffffffffffffffff1695505b5b5050505050935093915050565b5f5f84148061440d57505f83145b8061441757505f82145b806144225750818410155b1561442f575f9050614484565b5f6103e8858561443f9190615431565b6144499190615431565b90505f6103e5868561445b919061502f565b6144659190615431565b905060018183614475919061549f565b61447f9190615089565b925050505b9392505050565b6108d18061581883390190565b5f73ffffffffffffffffffffffffffffffffffffffff82169050919050565b5f6144c182614498565b9050919050565b6144d1816144b7565b82525050565b5f6020820190506144ea5f8301846144c8565b92915050565b5f604051905090565b5f5ffd5b5f5ffd5b61450a816144b7565b8114614514575f5ffd5b50565b5f8135905061452581614501565b92915050565b5f819050919050565b61453d8161452b565b8114614547575f5ffd5b50565b5f8135905061455881614534565b92915050565b5f5ffd5b5f5ffd5b5f5ffd5b5f5f83601f84011261457f5761457e61455e565b5b8235905067ffffffffffffffff81111561459c5761459b614562565b5b6020830191508360018202830111156145b8576145b7614566565b5b9250929050565b5f5f5f5f5f608086880312156145d8576145d76144f9565b5b5f6145e588828901614517565b95505060206145f68882890161454a565b94505060406146078882890161454a565b935050606086013567ffffffffffffffff811115614628576146276144fd565b5b6146348882890161456a565b92509250509295509295909350565b61464c8161452b565b82525050565b5f6020820190506146655f830184614643565b92915050565b5f8115159050919050565b61467f8161466b565b82525050565b5f6020820190506146985f830184614676565b92915050565b5f819050919050565b6146b08161469e565b82525050565b5f6020820190506146c95f8301846146a7565b92915050565b5f81519050919050565b5f82825260208201905092915050565b8281835e5f83830152505050565b5f601f19601f8301169050919050565b5f614711826146cf565b61471b81856146d9565b935061472b8185602086016146e9565b614734816146f7565b840191505092915050565b5f6020820190508181035f8301526147578184614707565b905092915050565b7f756e6578706563746564207061697200000000000000000000000000000000005f82015250565b5f614793600f836146d9565b915061479e8261475f565b602082019050919050565b5f6020820190508181035f8301526147c081614787565b9050919050565b7f756e65787065637465642073656e6465720000000000000000000000000000005f82015250565b5f6147fb6011836146d9565b9150614806826147c7565b602082019050919050565b5f6020820190508181035f830152614828816147ef565b9050919050565b5f5f5f60608486031215614846576148456144f9565b5b5f6148538682870161454a565b93505060206148648682870161454a565b92505060406148758682870161454a565b9150509250925092565b7f756e6578706563746564206f72646572000000000000000000000000000000005f82015250565b5f6148b36010836146d9565b91506148be8261487f565b602082019050919050565b5f6020820190508181035f8301526148e0816148a7565b9050919050565b7f756e657870656374656420626f72726f770000000000000000000000000000005f82015250565b5f61491b6011836146d9565b9150614926826148e7565b602082019050919050565b5f6020820190508181035f8301526149488161490f565b9050919050565b7f756e6578706563746564207265706179000000000000000000000000000000005f82015250565b5f6149836010836146d9565b915061498e8261494f565b602082019050919050565b5f6020820190508181035f8301526149b081614977565b9050919050565b7f62616420666c61736820616d6f756e74000000000000000000000000000000005f82015250565b5f6149eb6010836146d9565b91506149f6826149b7565b602082019050919050565b5f6020820190508181035f830152614a18816149df565b9050919050565b5f604082019050614a325f8301856144c8565b614a3f60208301846144c8565b9392505050565b5f81519050614a5481614534565b92915050565b5f60208284031215614a6f57614a6e6144f9565b5b5f614a7c84828501614a46565b91505092915050565b5f604082019050614a985f8301856144c8565b614aa56020830184614643565b9392505050565b614ab58161466b565b8114614abf575f5ffd5b50565b5f81519050614ad081614aac565b92915050565b5f60208284031215614aeb57614aea6144f9565b5b5f614af884828501614ac2565b91505092915050565b7f617070726f7665206661696c65640000000000000000000000000000000000005f82015250565b5f614b35600e836146d9565b9150614b4082614b01565b602082019050919050565b5f6020820190508181035f830152614b6281614b29565b9050919050565b7f696e73756666696369656e742045544820666f722072657061790000000000005f82015250565b5f614b9d601a836146d9565b9150614ba882614b69565b602082019050919050565b5f6020820190508181035f830152614bca81614b91565b9050919050565b7f7265706179206661696c656400000000000000000000000000000000000000005f82015250565b5f614c05600c836146d9565b9150614c1082614bd1565b602082019050919050565b5f6020820190508181035f830152614c3281614bf9565b9050919050565b7f4e487b71000000000000000000000000000000000000000000000000000000005f52602260045260245ffd5b5f6002820490506001821680614c7d57607f821691505b602082108103614c9057614c8f614c39565b5b50919050565b7f616c7265616479206578656375746564000000000000000000000000000000005f82015250565b5f614cca6010836146d9565b9150614cd582614c96565b602082019050919050565b5f6020820190508181035f830152614cf781614cbe565b9050919050565b7f77726f6e6720636861696e0000000000000000000000000000000000000000005f82015250565b5f614d32600b836146d9565b9150614d3d82614cfe565b602082019050919050565b5f6020820190508181035f830152614d5f81614d26565b9050919050565b7f4e487b71000000000000000000000000000000000000000000000000000000005f52604160045260245ffd5b5f819050815f5260205f209050919050565b5f6020601f8301049050919050565b5f82821b905092915050565b5f60088302614def7fffffffffffffffffffffffffffffffffffffffffffffffffffffffffffffffff82614db4565b614df98683614db4565b95508019841693508086168417925050509392505050565b5f819050919050565b5f614e34614e2f614e2a8461452b565b614e11565b61452b565b9050919050565b5f819050919050565b614e4d83614e1a565b614e61614e5982614e3b565b848454614dc0565b825550505050565b5f5f905090565b614e78614e69565b614e83818484614e44565b505050565b5b81811015614ea657614e9b5f82614e70565b600181019050614e89565b5050565b601f821115614eeb57614ebc81614d93565b614ec584614da5565b81016020851015614ed4578190505b614ee8614ee085614da5565b830182614e88565b50505b505050565b5f82821c905092915050565b5f614f0b5f1984600802614ef0565b1980831691505092915050565b5f614f238383614efc565b9150826002028217905092915050565b614f3c826146cf565b67ffffffffffffffff811115614f5557614f54614d66565b5b614f5f8254614c66565b614f6a828285614eaa565b5f60209050601f831160018114614f9b575f8415614f89578287015190505b614f938582614f18565b865550614ffa565b601f198416614fa986614d93565b5f5b82811015614fd057848901518255600182019150602085019450602081019050614fab565b86831015614fed5784890151614fe9601f891682614efc565b8355505b6001600288020188555050505b505050505050565b7f4e487b71000000000000000000000000000000000000000000000000000000005f52601160045260245ffd5b5f6150398261452b565b91506150448361452b565b925082820390508181111561505c5761505b615002565b5b92915050565b5f6040820190506150755f830185614643565b6150826020830184614643565b9392505050565b5f6150938261452b565b915061509e8361452b565b92508282019050808211156150b6576150b5615002565b5b92915050565b6150c58161469e565b81146150cf575f5ffd5b50565b5f815190506150e0816150bc565b92915050565b5f602082840312156150fb576150fa6144f9565b5b5f615108848285016150d2565b91505092915050565b5f61511b8261452b565b91505f820361512d5761512c615002565b5b600182039050919050565b5f6151428261452b565b91507fffffffffffffffffffffffffffffffffffffffffffffffffffffffffffffffff820361517457615173615002565b5b600182019050919050565b5f8151905061518d81614501565b92915050565b5f67ffffffffffffffff82169050919050565b6151af81615193565b81146151b9575f5ffd5b50565b5f815190506151ca816151a6565b92915050565b5f5f5f5f5f5f60c087890312156151ea576151e96144f9565b5b5f6151f789828a01614a46565b965050602061520889828a01614a46565b955050604061521989828a0161517f565b945050606061522a89828a016151bc565b935050608061523b89828a016150d2565b92505060a061524c89828a01614a46565b9150509295509295509295565b5f819050919050565b5f61527c61527761527284615259565b614e11565b61452b565b9050919050565b61528c81615262565b82525050565b5f6020820190506152a55f830184615283565b92915050565b7f4e487b71000000000000000000000000000000000000000000000000000000005f52603260045260245ffd5b5f81519050919050565b5f82825260208201905092915050565b5f819050602082019050919050565b61530a816144b7565b82525050565b5f61531b8383615301565b60208301905092915050565b5f602082019050919050565b5f61533d826152d8565b61534781856152e2565b9350615352836152f2565b805f5b838110156153825781516153698882615310565b975061537483615327565b925050600181019050615355565b5085935050505092915050565b5f6080820190506153a25f830187615283565b81810360208301526153b48186615333565b90506153c360408301856144c8565b6153d06060830184614643565b95945050505050565b5f60a0820190506153ec5f830188614643565b6153f96020830187615283565b818103604083015261540b8186615333565b905061541a60608301856144c8565b6154276080830184614643565b9695505050505050565b5f61543b8261452b565b91506154468361452b565b92508282026154548161452b565b9150828204841483151761546b5761546a615002565b5b5092915050565b7f4e487b71000000000000000000000000000000000000000000000000000000005f52601260045260245ffd5b5f6154a98261452b565b91506154b48361452b565b9250826154c4576154c3615472565b5b828204905092915050565b5f6060820190506154e25f830186614643565b6154ef6020830185614643565b6154fc6040830184614643565b949350505050565b5f81519050919050565b5f82825260208201905092915050565b5f61552882615504565b615532818561550e565b93506155428185602086016146e9565b61554b816146f7565b840191505092915050565b5f6080820190506155695f830187614643565b6155766020830186614643565b61558360408301856144c8565b8181036060830152615595818461551e565b905095945050505050565b5f602082840312156155b5576155b46144f9565b5b5f6155c28482850161517f565b91505092915050565b5f6040820190506155de5f830185614643565b81810360208301526155f08184615333565b90509392505050565b615602826146f7565b810181811067ffffffffffffffff8211171561562157615620614d66565b5b80604052505050565b5f6156336144f0565b905061563f82826155f9565b919050565b5f67ffffffffffffffff82111561565e5761565d614d66565b5b602082029050602081019050919050565b5f61568161567c84615644565b61562a565b905080838252602082019050602084028301858111156156a4576156a3614566565b5b835b818110156156cd57806156b98882614a46565b8452602084019350506020810190506156a6565b5050509392505050565b5f82601f8301126156eb576156ea61455e565b5b81516156fb84826020860161566f565b91505092915050565b5f60208284031215615719576157186144f9565b5b5f82015167ffffffffffffffff811115615736576157356144fd565b5b615742848285016156d7565b91505092915050565b5f6dffffffffffffffffffffffffffff82169050919050565b61576d8161574b565b8114615777575f5ffd5b50565b5f8151905061578881615764565b92915050565b5f63ffffffff82169050919050565b6157a68161578e565b81146157b0575f5ffd5b50565b5f815190506157c18161579d565b92915050565b5f5f5f606084860312156157de576157dd6144f9565b5b5f6157eb8682870161577a565b93505060206157fc8682870161577a565b925050604061580d868287016157b3565b915050925092509256fe6080604052348015600e575f5ffd5b506108b58061001c5f395ff3fe60806040526004361061004d575f3560e01c80631e8c148c14610058578063462fac5a14610082578063470eff88146100ac5780637e094752146100d6578063d9c5216d1461010057610054565b3661005457005b5f5ffd5b348015610063575f5ffd5b5061006c61011e565b60405161007991906104eb565b60405180910390f35b34801561008d575f5ffd5b50610096610130565b6040516100a3919061051c565b60405180910390f35b3480156100b7575f5ffd5b506100c0610136565b6040516100cd91906104eb565b60405180910390f35b3480156100e1575f5ffd5b506100ea610149565b6040516100f7919061051c565b60405180910390f35b61010861014e565b604051610115919061051c565b60405180910390f35b60025f9054906101000a900460ff1681565b60015481565b600260019054906101000a900460ff1681565b5f5481565b5f5f3411610191576040517f08c379a00000000000000000000000000000000000000000000000000000000081526004016101889061058f565b60405180910390fd5b5f73204b937feaec333e9e6d72d35f1d131f187ecea190508073ffffffffffffffffffffffffffffffffffffffff1663b42241ab343460016040518463ffffffff1660e01b81526004016101e69291906105ef565b60206040518083038185885af1158015610202573d5f5f3e3d5ffd5b50505050506040513d601f19601f820116820180604052508101906102279190610644565b5f819055505f5f541461026f576040517f08c379a0000000000000000000000000000000000000000000000000000000008152600401610266906106b9565b60405180910390fd5b8073ffffffffffffffffffffffffffffffffffffffff1663232cae0b6040518163ffffffff1660e01b8152600401602060405180830381865afa1580156102b8573d5f5f3e3d5ffd5b505050506040513d601f19601f820116820180604052508101906102dc9190610644565b6001819055506102eb816103cb565b60025f6101000a81548160ff02191690831515021790555061030c81610457565b600260016101000a81548160ff02191690831515021790555060025f9054906101000a900460ff16610373576040517f08c379a000000000000000000000000000000000000000000000000000000000815260040161036a90610721565b60405180910390fd5b600260019054906101000a900460ff166103c2576040517f08c379a00000000000000000000000000000000000000000000000000000000081526004016103b990610789565b60405180910390fd5b60015491505090565b5f8173ffffffffffffffffffffffffffffffffffffffff166340e58ee55f6040518263ffffffff1660e01b815260040161040591906107e0565b6020604051808303815f875af192505050801561044057506040513d601f19601f8201168201806040525081019061043d9190610823565b60015b61044d5760019050610452565b5f9150505b919050565b5f8173ffffffffffffffffffffffffffffffffffffffff1663b4f9b6c85f5f1b6040518263ffffffff1660e01b81526004016104939190610866565b5f604051808303815f87803b1580156104aa575f5ffd5b505af19250505080156104bb575060015b6104c857600190506104cc565b5f90505b919050565b5f8115159050919050565b6104e5816104d1565b82525050565b5f6020820190506104fe5f8301846104dc565b92915050565b5f819050919050565b61051681610504565b82525050565b5f60208201905061052f5f83018461050d565b92915050565b5f82825260208201905092915050565b7f6e6f2062756467657400000000000000000000000000000000000000000000005f82015250565b5f610579600983610535565b915061058482610545565b602082019050919050565b5f6020820190508181035f8301526105a68161056d565b9050919050565b5f819050919050565b5f819050919050565b5f6105d96105d46105cf846105ad565b6105b6565b610504565b9050919050565b6105e9816105bf565b82525050565b5f6040820190506106025f83018561050d565b61060f60208301846105e0565b9392505050565b5f5ffd5b61062381610504565b811461062d575f5ffd5b50565b5f8151905061063e8161061a565b92915050565b5f6020828403121561065957610658610616565b5b5f61066684828501610630565b91505092915050565b7f6578706563746564207a65726f206964000000000000000000000000000000005f82015250565b5f6106a3601083610535565b91506106ae8261066f565b602082019050919050565b5f6020820190508181035f8301526106d081610697565b9050919050565b7f63616e63656c28302920756e65787065637465646c7920776f726b65640000005f82015250565b5f61070b601d83610535565b9150610716826106d7565b602082019050919050565b5f6020820190508181035f830152610738816106ff565b9050919050565b7f6b696c6c28302920756e65787065637465646c7920776f726b656400000000005f82015250565b5f610773601b83610535565b915061077e8261073f565b602082019050919050565b5f6020820190508181035f8301526107a081610767565b9050919050565b5f819050919050565b5f6107ca6107c56107c0846107a7565b6105b6565b610504565b9050919050565b6107da816107b0565b82525050565b5f6020820190506107f35f8301846107d1565b92915050565b610802816104d1565b811461080c575f5ffd5b50565b5f8151905061081d816107f9565b92915050565b5f6020828403121561083857610837610616565b5b5f6108458482850161080f565b91505092915050565b5f819050919050565b6108608161084e565b82525050565b5f6020820190506108795f830184610857565b9291505056fea2646970667358221220e4ab72b2c04453ec3c0d434a24e73edf6390b2f15d6c79a46bb0a8bc178a42b464736f6c634300081e00336d616b65722073656573207a65726f2069642c2063616e6e6f742063616e63656c2c20766572696669657220656e756d657261746573206f6666657273287265616c49642920616e642074616b65732068696464656e204845582d657363726f77206f726465726d616b657220676574732030206964202d3e2063616e63656c2830292f6b696c6c283029206661696c202d3e20736561726368657220656e756d657261746573207265616c206964202d3e2074616b65287265616c49642968656c706572206d616b6572207265636569766564207a65726f206f666665724554482069642c206661696c65642063616e63656c2830292c20766572696669657220656e756d657261746564206c6173745f6f666665725f69642f6f6666657273287265616c49642920616e6420746f6f6b207265616c4964666f726b20686173206e6f2073756666696369656e746c79206d69737072696365642068696464656e206f726465727320726561636861626c65207468726f756768207075626c6963206c69717569646974796d616b65722067657473207a65726f204554482d6f726465722069642c2063616e63656c2830292f6b696c6c283029206661696c2c20766572696669657220656e756d657261746573206f6666657273287265616c49642920616e6420666c6173682d626f72726f77732048455820746f2074616b65207265616c4964a2646970667358221220eab95d57304ab9599b1846dcf5a1837e54aa7f57594db6a9e26ae9f495a5b0a264736f6c634300081e0033","linkReferences":{}},"methodIdentifiers":{"EXPECTED_CHAIN_ID()":"c1ffb3df","HEX()":"1d558966","SUSHISWAP_ROUTER()":"277754ed","TARGET()":"cc1f2afa","UNISWAP_V2_ROUTER()":"a82ed9ec","WETH()":"ad5c4648","execute()":"61461954","executeOnOpportunity()":"3c2448ed","executed()":"31a38c89","executedRounds()":"73da2cce","executionEndEthBalance()":"3b83b4d8","executionStartEthBalance()":"608883b9","exploit()":"63d9b770","exploitPathUsed()":"d78c4281","failureReason()":"4f9522a4","flashBorrowAmount()":"ee7201ff","flashOrderId()":"97bff16b","flashPairUsed()":"580120f0","flashRepayAmount()":"344f09cc","flashRouterUsed()":"7e549cc6","helperBudget()":"6f279266","helperHexSpent()":"ea784658","helperRealId()":"367ed0e2","hypothesisRefuted()":"495f92f1","hypothesisValidated()":"463defd1","makeRealId()":"949651b7","makeReturnedId()":"470af839","makerHelper()":"0973083c","observedLastOfferId()":"64b3b78e","offerEthRealId()":"a99ae375","offerEthReturnedId()":"636ba231","offerHexRealId()":"db0e7cff","offerHexReturnedId()":"17213b52","profitAchieved()":"f0a01176","profitAmount()":"5ff972cc","profitAmountValue()":"e946597a","profitToken()":"49343624","profitableId()":"caae2fa2","run()":"c0406226","scanEndId()":"caca68cd","scanStartId()":"786bc03d","uniswapV2Call(address,uint256,uint256,bytes)":"10d1e85c"},"id":0}