{"abi":[{"type":"constructor","inputs":[],"stateMutability":"nonpayable"},{"type":"receive","stateMutability":"payable"},{"type":"function","name":"cancelZeroFailed","inputs":[],"outputs":[{"name":"","type":"bool","internalType":"bool"}],"stateMutability":"view"},{"type":"function","name":"createHiddenEthOrder","inputs":[],"outputs":[{"name":"","type":"uint256","internalType":"uint256"}],"stateMutability":"payable"},{"type":"function","name":"killZeroFailed","inputs":[],"outputs":[{"name":"","type":"bool","internalType":"bool"}],"stateMutability":"view"},{"type":"function","name":"realId","inputs":[],"outputs":[{"name":"","type":"uint256","internalType":"uint256"}],"stateMutability":"view"},{"type":"function","name":"returnedId","inputs":[],"outputs":[{"name":"","type":"uint256","internalType":"uint256"}],"stateMutability":"view"}],"bytecode":{"object":"0x6080604052348015600e575f5ffd5b506108b58061001c5f395ff3fe60806040526004361061004d575f3560e01c80631e8c148c14610058578063462fac5a14610082578063470eff88146100ac5780637e094752146100d6578063d9c5216d1461010057610054565b3661005457005b5f5ffd5b348015610063575f5ffd5b5061006c61011e565b60405161007991906104eb565b60405180910390f35b34801561008d575f5ffd5b50610096610130565b6040516100a3919061051c565b60405180910390f35b3480156100b7575f5ffd5b506100c0610136565b6040516100cd91906104eb565b60405180910390f35b3480156100e1575f5ffd5b506100ea610149565b6040516100f7919061051c565b60405180910390f35b61010861014e565b604051610115919061051c565b60405180910390f35b60025f9054906101000a900460ff1681565b60015481565b600260019054906101000a900460ff1681565b5f5481565b5f5f3411610191576040517f08c379a00000000000000000000000000000000000000000000000000000000081526004016101889061058f565b60405180910390fd5b5f73204b937feaec333e9e6d72d35f1d131f187ecea190508073ffffffffffffffffffffffffffffffffffffffff1663b42241ab343460016040518463ffffffff1660e01b81526004016101e69291906105ef565b60206040518083038185885af1158015610202573d5f5f3e3d5ffd5b50505050506040513d601f19601f820116820180604052508101906102279190610644565b5f819055505f5f541461026f576040517f08c379a0000000000000000000000000000000000000000000000000000000008152600401610266906106b9565b60405180910390fd5b8073ffffffffffffffffffffffffffffffffffffffff1663232cae0b6040518163ffffffff1660e01b8152600401602060405180830381865afa1580156102b8573d5f5f3e3d5ffd5b505050506040513d601f19601f820116820180604052508101906102dc9190610644565b6001819055506102eb816103cb565b60025f6101000a81548160ff02191690831515021790555061030c81610457565b600260016101000a81548160ff02191690831515021790555060025f9054906101000a900460ff16610373576040517f08c379a000000000000000000000000000000000000000000000000000000000815260040161036a90610721565b60405180910390fd5b600260019054906101000a900460ff166103c2576040517f08c379a00000000000000000000000000000000000000000000000000000000081526004016103b990610789565b60405180910390fd5b60015491505090565b5f8173ffffffffffffffffffffffffffffffffffffffff166340e58ee55f6040518263ffffffff1660e01b815260040161040591906107e0565b6020604051808303815f875af192505050801561044057506040513d601f19601f8201168201806040525081019061043d9190610823565b60015b61044d5760019050610452565b5f9150505b919050565b5f8173ffffffffffffffffffffffffffffffffffffffff1663b4f9b6c85f5f1b6040518263ffffffff1660e01b81526004016104939190610866565b5f604051808303815f87803b1580156104aa575f5ffd5b505af19250505080156104bb575060015b6104c857600190506104cc565b5f90505b919050565b5f8115159050919050565b6104e5816104d1565b82525050565b5f6020820190506104fe5f8301846104dc565b92915050565b5f819050919050565b61051681610504565b82525050565b5f60208201905061052f5f83018461050d565b92915050565b5f82825260208201905092915050565b7f6e6f2062756467657400000000000000000000000000000000000000000000005f82015250565b5f610579600983610535565b915061058482610545565b602082019050919050565b5f6020820190508181035f8301526105a68161056d565b9050919050565b5f819050919050565b5f819050919050565b5f6105d96105d46105cf846105ad565b6105b6565b610504565b9050919050565b6105e9816105bf565b82525050565b5f6040820190506106025f83018561050d565b61060f60208301846105e0565b9392505050565b5f5ffd5b61062381610504565b811461062d575f5ffd5b50565b5f8151905061063e8161061a565b92915050565b5f6020828403121561065957610658610616565b5b5f61066684828501610630565b91505092915050565b7f6578706563746564207a65726f206964000000000000000000000000000000005f82015250565b5f6106a3601083610535565b91506106ae8261066f565b602082019050919050565b5f6020820190508181035f8301526106d081610697565b9050919050565b7f63616e63656c28302920756e65787065637465646c7920776f726b65640000005f82015250565b5f61070b601d83610535565b9150610716826106d7565b602082019050919050565b5f6020820190508181035f830152610738816106ff565b9050919050565b7f6b696c6c28302920756e65787065637465646c7920776f726b656400000000005f82015250565b5f610773601b83610535565b915061077e8261073f565b602082019050919050565b5f6020820190508181035f8301526107a081610767565b9050919050565b5f819050919050565b5f6107ca6107c56107c0846107a7565b6105b6565b610504565b9050919050565b6107da816107b0565b82525050565b5f6020820190506107f35f8301846107d1565b92915050565b610802816104d1565b811461080c575f5ffd5b50565b5f8151905061081d816107f9565b92915050565b5f6020828403121561083857610837610616565b5b5f6108458482850161080f565b91505092915050565b5f819050919050565b6108608161084e565b82525050565b5f6020820190506108795f830184610857565b9291505056fea2646970667358221220e4ab72b2c04453ec3c0d434a24e73edf6390b2f15d6c79a46bb0a8bc178a42b464736f6c634300081e0033","linkReferences":{}},"methodIdentifiers":{"cancelZeroFailed()":"1e8c148c","createHiddenEthOrder()":"d9c5216d","killZeroFailed()":"470eff88","realId()":"462fac5a","returnedId()":"7e094752"},"id":0}