{"abi":[{"type":"constructor","inputs":[],"stateMutability":"nonpayable"},{"type":"receive","stateMutability":"payable"},{"type":"function","name":"ALINK","inputs":[],"outputs":[{"name":"","type":"address","internalType":"address"}],"stateMutability":"view"},{"type":"function","name":"DEPOSIT_NFT","inputs":[],"outputs":[{"name":"","type":"address","internalType":"address"}],"stateMutability":"view"},{"type":"function","name":"MPH","inputs":[],"outputs":[{"name":"","type":"address","internalType":"address"}],"stateMutability":"view"},{"type":"function","name":"MPHMINTER","inputs":[],"outputs":[{"name":"","type":"address","internalType":"address"}],"stateMutability":"view"},{"type":"function","name":"POOL","inputs":[],"outputs":[{"name":"","type":"address","internalType":"address"}],"stateMutability":"view"},{"type":"function","name":"SUSHISWAP_ROUTER","inputs":[],"outputs":[{"name":"","type":"address","internalType":"address"}],"stateMutability":"view"},{"type":"function","name":"WETH","inputs":[],"outputs":[{"name":"","type":"address","internalType":"address"}],"stateMutability":"view"},{"type":"function","name":"executeOnOpportunity","inputs":[],"outputs":[],"stateMutability":"nonpayable"},{"type":"function","name":"onERC721Received","inputs":[{"name":"","type":"address","internalType":"address"},{"name":"","type":"address","internalType":"address"},{"name":"","type":"uint256","internalType":"uint256"},{"name":"","type":"bytes","internalType":"bytes"}],"outputs":[{"name":"","type":"bytes4","internalType":"bytes4"}],"stateMutability":"pure"},{"type":"function","name":"profitAmount","inputs":[],"outputs":[{"name":"","type":"uint256","internalType":"uint256"}],"stateMutability":"view"},{"type":"function","name":"profitToken","inputs":[],"outputs":[{"name":"","type":"address","internalType":"address"}],"stateMutability":"view"}],"bytecode":{"object":"0x60808060405234603a575f80546001600160a01b03191673a64bd6c70cb9051f6a9ba1f163fdc07e0dfb5f84179055610bf8908161003f8239f35b5f80fdfe608080604052600436101561001c575b50361561001a575f80fd5b005b5f905f3560e01c908163150b7a02146109cd57508063277754ed1461099f5780633c2448ed146101f75780633ebb5800146101cf57806349343624146101a85780635ff972cc1461018a5780637535d2461461015b5780639229053d1461012c578063ad5c4648146100fd578063f2db7773146100ce5763ff3c269e0361000f57346100cb57806003193601126100cb57602060405173a64bd6c70cb9051f6a9ba1f163fdc07e0dfb5f848152f35b80fd5b50346100cb57806003193601126100cb5760206040517303577a2151a10675a9689190fe5d331ee7ff25178152f35b50346100cb57806003193601126100cb57602060405173c02aaa39b223fe8d0a0e5c4f27ead9083c756cc28152f35b50346100cb57806003193601126100cb576020604051738888801af4d980682e47f1a9036e589479e835c58152f35b50346100cb57806003193601126100cb57602060405173904f81eff3c35877865810cca9a63f2d9cb7d4dd8152f35b50346100cb57806003193601126100cb576020600154604051908152f35b50346100cb57806003193601126100cb57546040516001600160a01b039091168152602090f35b50346100cb57806003193601126100cb5760206040515f516020610ba35f395f51905f528152f35b50346106de575f3660031901126106de576040516319f8f13560e21b815260208160048173904f81eff3c35877865810cca9a63f2d9cb7d4dd5afa801561093f575f516020610ba35f395f51905f52915f91610980575b506001600160a01b03160361094a575f516020610ba35f395f51905f523b156106de5760405163b2b45df560e01b81523060048201526060602482015260056064820152641c1ddb995960da1b608482015260a06044820152600360a482015262282ba760e91b60c48201525f8160e481835f516020610ba35f395f51905f525af1801561093f5761092c575b50604051638da5cb5b60e01b81526020816004815f516020610ba35f395f51905f525afa9081156106ea57829161090d575b50306001600160a01b03909116036108da575f516020610ba35f395f51905f523b156100cb57604051630852cd8d60e31b8152600a600482015281908181602481835f516020610ba35f395f51905f525af180156106ea576108c5575b50505f516020610ba35f395f51905f523b156100cb576040516340c10f1960e01b8152306004820152600a602482015281908181604481835f516020610ba35f395f51905f525af180156106ea576108b0575b50506040516331a9108f60e11b8152600a60048201526020816024815f516020610ba35f395f51905f525afa9081156106ea578291610881575b50306001600160a01b039091160361084e57604051610417606082610a67565b6002815260208101604036823781511561083a5773c02aaa39b223fe8d0a0e5c4f27ead9083c756cc29052738888801af4d980682e47f1a9036e589479e835c561046082610abc565b5260405163d06ca61f60e01b8152670de0b6b3a76400006004820152604060248201528281806104936044820186610b66565b038173d9e1ce17f2641f24ae83637ab66a2cca9c378b9f5afa801561082f576104c3918491610815575b50610abc565b518015610801576f04838ed6e6b62a8233c5ba600000000004606e810290808204606e14901517156107ed57606490044781116107e6575b6103e84201918242116107d257839161053991604051809581948293637ff36ab560e01b845260016004850152608060248501526084840190610b66565b903060448401526064830152039173d9e1ce17f2641f24ae83637ab66a2cca9c378b9f5af180156106ea576107b2575b506040516370a0823160e01b8152306004820152602081602481738888801af4d980682e47f1a9036e589479e835c55afa80156106ea578290610778575b674aad6e46096657e29150106107425760405163095ea7b360e01b81527303577a2151a10675a9689190fe5d331ee7ff251760048201525f19602482015260208160448185738888801af4d980682e47f1a9036e589479e835c55af180156106ea5761070a575b5073904f81eff3c35877865810cca9a63f2d9cb7d4dd3b156100cb5780604051633d75ee7360e11b8152600a600482015281602482015281816044818373904f81eff3c35877865810cca9a63f2d9cb7d4dd5af180156106ea576106f5575b50506040516370a0823160e01b815230600482015260208160248173a64bd6c70cb9051f6a9ba1f163fdc07e0dfb5f845afa9081156106ea5782916106b4575b5060015580f35b90506020813d6020116106e2575b816106cf60209383610a67565b810103126106de57515f6106ad565b5f80fd5b3d91506106c2565b6040513d84823e3d90fd5b816106ff91610a67565b6100cb57805f61066d565b6020813d60201161073a575b8161072360209383610a67565b810103126107365751801515811461060e575b5080fd5b3d9150610716565b60405162461bcd60e51b815260206004820152600e60248201526d0dcdee840cadcdeeaced0409aa0960931b6044820152606490fd5b506020813d6020116107aa575b8161079260209383610a67565b810103126106de57674aad6e46096657e290516105a7565b3d9150610785565b6107cd903d8084833e6107c58183610a67565b810190610ae0565b610569565b634e487b7160e01b84526011600452602484fd5b50476104fb565b634e487b7160e01b83526011600452602483fd5b634e487b7160e01b83526012600452602483fd5b61082991503d8086833e6107c58183610a67565b5f6104bd565b6040513d85823e3d90fd5b634e487b7160e01b83526032600452602483fd5b60405162461bcd60e51b815260206004820152600b60248201526a1b5a5b9d0819985a5b195960aa1b6044820152606490fd5b6108a3915060203d6020116108a9575b61089b8183610a67565b810190610a9d565b5f6103f7565b503d610891565b816108ba91610a67565b6100cb57805f6103bd565b816108cf91610a67565b6100cb57805f61036a565b60405162461bcd60e51b815260206004820152600b60248201526a1a5b9a5d0819985a5b195960aa1b6044820152606490fd5b610926915060203d6020116108a95761089b8183610a67565b5f61030d565b61093891505f90610a67565b5f5f6102db565b6040513d5f823e3d90fd5b60405162461bcd60e51b815260206004820152600e60248201526d1d5b995e1c1958dd1959081b999d60921b6044820152606490fd5b610999915060203d6020116108a95761089b8183610a67565b5f61024e565b346106de575f3660031901126106de57602060405173d9e1ce17f2641f24ae83637ab66a2cca9c378b9f8152f35b346106de5760803660031901126106de576109e6610a3b565b506109ef610a51565b5060643567ffffffffffffffff81116106de57366023820112156106de57806004013567ffffffffffffffff81116106de57369101602401116106de57630a85bd0160e11b8152602090f35b600435906001600160a01b03821682036106de57565b602435906001600160a01b03821682036106de57565b90601f8019910116810190811067ffffffffffffffff821117610a8957604052565b634e487b7160e01b5f52604160045260245ffd5b908160209103126106de57516001600160a01b03811681036106de5790565b805160011015610acc5760400190565b634e487b7160e01b5f52603260045260245ffd5b6020818303126106de5780519067ffffffffffffffff82116106de57019080601f830112156106de5781519167ffffffffffffffff8311610a89578260051b906020820193610b326040519586610a67565b84526020808501928201019283116106de57602001905b828210610b565750505090565b8151815260209182019101610b49565b90602080835192838152019201905f5b818110610b835750505090565b82516001600160a01b0316845260209384019390920191600101610b7656fe000000000000000000000000f0b7de03134857391d8d43ed48e20edf21461097a2646970667358221220a468561f52bab1b18dc7588a08b432a93b65d2acbf131f58034c7ddcbfeee39764736f6c63430008230033","linkReferences":{}},"methodIdentifiers":{"ALINK()":"ff3c269e","DEPOSIT_NFT()":"3ebb5800","MPH()":"9229053d","MPHMINTER()":"f2db7773","POOL()":"7535d246","SUSHISWAP_ROUTER()":"277754ed","WETH()":"ad5c4648","executeOnOpportunity()":"3c2448ed","onERC721Received(address,address,uint256,bytes)":"150b7a02","profitAmount()":"5ff972cc","profitToken()":"49343624"},"id":0}