{"abi":[{"type":"constructor","inputs":[],"stateMutability":"nonpayable"},{"type":"function","name":"TARGET","inputs":[],"outputs":[{"name":"","type":"address","internalType":"address"}],"stateMutability":"view"},{"type":"function","name":"burnedVictimToken","inputs":[],"outputs":[{"name":"","type":"bool","internalType":"bool"}],"stateMutability":"view"},{"type":"function","name":"demonstratedPathRevert","inputs":[],"outputs":[{"name":"","type":"bool","internalType":"bool"}],"stateMutability":"view"},{"type":"function","name":"executeOnOpportunity","inputs":[],"outputs":[],"stateMutability":"nonpayable"},{"type":"function","name":"exploitPath","inputs":[],"outputs":[{"name":"","type":"string","internalType":"string"}],"stateMutability":"view"},{"type":"function","name":"failureReason","inputs":[],"outputs":[{"name":"","type":"string","internalType":"string"}],"stateMutability":"view"},{"type":"function","name":"hijackedTokenId","inputs":[],"outputs":[{"name":"","type":"uint256","internalType":"uint256"}],"stateMutability":"view"},{"type":"function","name":"hypothesisValidated","inputs":[],"outputs":[{"name":"","type":"bool","internalType":"bool"}],"stateMutability":"view"},{"type":"function","name":"linkedFundingId","inputs":[],"outputs":[{"name":"","type":"uint256","internalType":"uint256"}],"stateMutability":"view"},{"type":"function","name":"ownerQueryRevertedAfterBurn","inputs":[],"outputs":[{"name":"","type":"bool","internalType":"bool"}],"stateMutability":"view"},{"type":"function","name":"pool","inputs":[],"outputs":[{"name":"","type":"address","internalType":"address"}],"stateMutability":"view"},{"type":"function","name":"profitAmount","inputs":[],"outputs":[{"name":"","type":"uint256","internalType":"uint256"}],"stateMutability":"view"},{"type":"function","name":"profitToken","inputs":[],"outputs":[{"name":"","type":"address","internalType":"address"}],"stateMutability":"view"},{"type":"function","name":"targetIsDepositNFT","inputs":[],"outputs":[{"name":"","type":"bool","internalType":"bool"}],"stateMutability":"view"},{"type":"function","name":"targetIsFundingNFT","inputs":[],"outputs":[{"name":"","type":"bool","internalType":"bool"}],"stateMutability":"view"},{"type":"function","name":"triggerEarlyWithdraw","inputs":[{"name":"market","type":"address","internalType":"address"},{"name":"tokenId","type":"uint256","internalType":"uint256"},{"name":"fundingID","type":"uint256","internalType":"uint256"}],"outputs":[],"stateMutability":"nonpayable"},{"type":"function","name":"triggerPayInterestToFunder","inputs":[{"name":"market","type":"address","internalType":"address"},{"name":"fundingID","type":"uint256","internalType":"uint256"}],"outputs":[],"stateMutability":"nonpayable"},{"type":"function","name":"triggerWithdraw","inputs":[{"name":"market","type":"address","internalType":"address"},{"name":"tokenId","type":"uint256","internalType":"uint256"},{"name":"fundingID","type":"uint256","internalType":"uint256"}],"outputs":[],"stateMutability":"nonpayable"},{"type":"function","name":"usedEarlyWithdraw","inputs":[],"outputs":[{"name":"","type":"bool","internalType":"bool"}],"stateMutability":"view"},{"type":"function","name":"victimOwnerBeforeBurn","inputs":[],"outputs":[{"name":"","type":"address","internalType":"address"}],"stateMutability":"view"}],"bytecode":{"object":"0x6080604052348015600e575f5ffd5b50612f828061001c5f395ff3fe608060405234801561000f575f5ffd5b5060043610610129575f3560e01c80636f354bc7116100ab578063cb707c621161006f578063cb707c62146102d7578063cc1f2afa146102f5578063ce90049e14610313578063e5d3e4941461032f578063ff5b43de1461034d57610129565b80636f354bc7146102455780637b317ca4146102635780637e21d8191461027f578063880d83a51461029d5780639a771d9e146102bb57610129565b8063463defd1116100f2578063463defd1146101af57806349343624146101cd5780634f9522a4146101eb57806356380369146102095780635ff972cc1461022757610129565b8062901f401461012d578063127b03831461014b57806316f0115b14610169578063317c6dee146101875780633c2448ed146101a5575b5f5ffd5b61013561036b565b6040516101429190612232565b60405180910390f35b610153610371565b6040516101609190612265565b60405180910390f35b610171610382565b60405161017e91906122bd565b60405180910390f35b61018f6103a7565b60405161019c9190612265565b60405180910390f35b6101ad6103ba565b005b6101b7610b1c565b6040516101c49190612265565b60405180910390f35b6101d5610b2f565b6040516101e291906122bd565b60405180910390f35b6101f3610b56565b6040516102009190612346565b60405180910390f35b610211610be2565b60405161021e9190612265565b60405180910390f35b61022f610bf5565b60405161023c9190612232565b60405180910390f35b61024d610bfe565b60405161025a9190612232565b60405180910390f35b61027d600480360381019061027891906123c7565b610c04565b005b610287610cf0565b6040516102949190612265565b60405180910390f35b6102a5610d03565b6040516102b29190612265565b60405180910390f35b6102d560048036038101906102d09190612405565b610d15565b005b6102df610df0565b6040516102ec9190612346565b60405180910390f35b6102fd610e7c565b60405161030a91906122bd565b60405180910390f35b61032d60048036038101906103289190612405565b610e94565b005b610337610f6f565b60405161034491906122bd565b60405180910390f35b610355610f95565b6040516103629190612265565b60405180910390f35b60035481565b60058054906101000a900460ff1681565b60025f9054906101000a900473ffffffffffffffffffffffffffffffffffffffff1681565b600560039054906101000a900460ff1681565b600560029054906101000a900460ff16806103e357505f600780546103de90612482565b905014155b610b1a575f73f0b7de03134857391d8d43ed48e20edf2146109790508073ffffffffffffffffffffffffffffffffffffffff16638da5cb5b6040518163ffffffff1660e01b8152600401602060405180830381865afa158015610448573d5f5f3e3d5ffd5b505050506040513d601f19601f8201168201806040525081019061046c91906124c6565b60025f6101000a81548173ffffffffffffffffffffffffffffffffffffffff021916908373ffffffffffffffffffffffffffffffffffffffff1602179055505f73ffffffffffffffffffffffffffffffffffffffff1660025f9054906101000a900473ffffffffffffffffffffffffffffffffffffffff1673ffffffffffffffffffffffffffffffffffffffff160361054a576040518060400160405280601481526020017f746172676574206f776e6572206973207a65726f0000000000000000000000008152506007908161054391906126be565b5050610b1a565b5f60025f9054906101000a900473ffffffffffffffffffffffffffffffffffffffff1690505f8173ffffffffffffffffffffffffffffffffffffffff166367e3c4d46040518163ffffffff1660e01b8152600401602060405180830381865afa1580156105b9573d5f5f3e3d5ffd5b505050506040513d601f19601f820116820180604052508101906105dd91906124c6565b90505f8273ffffffffffffffffffffffffffffffffffffffff1663939156a26040518163ffffffff1660e01b8152600401602060405180830381865afa158015610629573d5f5f3e3d5ffd5b505050506040513d601f19601f8201168201806040525081019061064d91906124c6565b90508273ffffffffffffffffffffffffffffffffffffffff1663e9cbd8226040518163ffffffff1660e01b8152600401602060405180830381865afa158015610698573d5f5f3e3d5ffd5b505050506040513d601f19601f820116820180604052508101906106bc91906124c6565b5f5f6101000a81548173ffffffffffffffffffffffffffffffffffffffff021916908373ffffffffffffffffffffffffffffffffffffffff16021790555073f0b7de03134857391d8d43ed48e20edf2146109773ffffffffffffffffffffffffffffffffffffffff168273ffffffffffffffffffffffffffffffffffffffff161460055f6101000a81548160ff02191690831515021790555073f0b7de03134857391d8d43ed48e20edf2146109773ffffffffffffffffffffffffffffffffffffffff168173ffffffffffffffffffffffffffffffffffffffff1614600560016101000a81548160ff02191690831515021790555060055f9054906101000a900460ff161580156107da5750600560019054906101000a900460ff16155b1561082d576040518060400160405280601e81526020017f746172676574204e4654206e6f7420776972656420696e746f20706f6f6c00008152506007908161082391906126be565b5050505050610b1a565b5f5f5f9054906101000a900473ffffffffffffffffffffffffffffffffffffffff1673ffffffffffffffffffffffffffffffffffffffff166370a08231306040518263ffffffff1660e01b815260040161088791906122bd565b602060405180830381865afa1580156108a2573d5f5f3e3d5ffd5b505050506040513d601f19601f820116820180604052508101906108c691906127a1565b90506108d185610fa8565b3073ffffffffffffffffffffffffffffffffffffffff168573ffffffffffffffffffffffffffffffffffffffff16638da5cb5b6040518163ffffffff1660e01b8152600401602060405180830381865afa158015610931573d5f5f3e3d5ffd5b505050506040513d601f19601f8201168201806040525081019061095591906124c6565b73ffffffffffffffffffffffffffffffffffffffff16146109bf576040518060400160405280601781526020017f7265696e697469616c697a6174696f6e206661696c6564000000000000000000815250600790816109b491906126be565b505050505050610b1a565b6001600560026101000a81548160ff02191690831515021790555060055f9054906101000a900460ff1615610a25576040518060e0016040528060ad8152602001612daa60ad913960069081610a1591906126be565b50610a208486611011565b610a58565b6040518060c00160405280609c8152602001612eb1609c913960069081610a4c91906126be565b50610a5784866113f2565b5b5f5f5f9054906101000a900473ffffffffffffffffffffffffffffffffffffffff1673ffffffffffffffffffffffffffffffffffffffff166370a08231306040518263ffffffff1660e01b8152600401610ab291906122bd565b602060405180830381865afa158015610acd573d5f5f3e3d5ffd5b505050506040513d601f19601f82011682018060405250810190610af191906127a1565b9050818111610b00575f610b0d565b8181610b0c91906127f9565b5b6001819055505050505050505b565b600560029054906101000a900460ff1681565b5f5f5f9054906101000a900473ffffffffffffffffffffffffffffffffffffffff16905090565b60078054610b6390612482565b80601f0160208091040260200160405190810160405280929190818152602001828054610b8f90612482565b8015610bda5780601f10610bb157610100808354040283529160200191610bda565b820191905f5260205f20905b815481529060010190602001808311610bbd57829003601f168201915b505050505081565b600560069054906101000a900460ff1681565b5f600154905090565b60045481565b3073ffffffffffffffffffffffffffffffffffffffff163373ffffffffffffffffffffffffffffffffffffffff1614610c72576040517f08c379a0000000000000000000000000000000000000000000000000000000008152600401610c6990612876565b60405180910390fd5b8173ffffffffffffffffffffffffffffffffffffffff1663533c67d5826040518263ffffffff1660e01b8152600401610cab9190612232565b6020604051808303815f875af1158015610cc7573d5f5f3e3d5ffd5b505050506040513d601f19601f82011682018060405250810190610ceb91906127a1565b505050565b600560019054906101000a900460ff1681565b60055f9054906101000a900460ff1681565b3073ffffffffffffffffffffffffffffffffffffffff163373ffffffffffffffffffffffffffffffffffffffff1614610d83576040517f08c379a0000000000000000000000000000000000000000000000000000000008152600401610d7a90612876565b60405180910390fd5b8273ffffffffffffffffffffffffffffffffffffffff1663441a3e7083836040518363ffffffff1660e01b8152600401610dbe929190612894565b5f604051808303815f87803b158015610dd5575f5ffd5b505af1158015610de7573d5f5f3e3d5ffd5b50505050505050565b60068054610dfd90612482565b80601f0160208091040260200160405190810160405280929190818152602001828054610e2990612482565b8015610e745780601f10610e4b57610100808354040283529160200191610e74565b820191905f5260205f20905b815481529060010190602001808311610e5757829003601f168201915b505050505081565b73f0b7de03134857391d8d43ed48e20edf2146109781565b3073ffffffffffffffffffffffffffffffffffffffff163373ffffffffffffffffffffffffffffffffffffffff1614610f02576040517f08c379a0000000000000000000000000000000000000000000000000000000008152600401610ef990612876565b60405180910390fd5b8273ffffffffffffffffffffffffffffffffffffffff16637aebdce683836040518363ffffffff1660e01b8152600401610f3d929190612894565b5f604051808303815f87803b158015610f54575f5ffd5b505af1158015610f66573d5f5f3e3d5ffd5b50505050505050565b600560079054906101000a900473ffffffffffffffffffffffffffffffffffffffff1681565b600560049054906101000a900460ff1681565b8073ffffffffffffffffffffffffffffffffffffffff1663b2b45df5306040518263ffffffff1660e01b8152600401610fe1919061294f565b5f604051808303815f87803b158015610ff8575f5ffd5b505af115801561100a573d5f5f3e3d5ffd5b5050505050565b5f5f5f61101e8585611732565b9250925092505f830361105b57604051806060016040528060238152602001612d54602391396007908161105291906126be565b505050506113ee565b826003819055508160048190555080600560066101000a81548160ff0219169083151502179055508373ffffffffffffffffffffffffffffffffffffffff16636352211e846040518263ffffffff1660e01b81526004016110bc9190612232565b602060405180830381865afa1580156110d7573d5f5f3e3d5ffd5b505050506040513d601f19601f820116820180604052508101906110fb91906124c6565b600560076101000a81548173ffffffffffffffffffffffffffffffffffffffff021916908373ffffffffffffffffffffffffffffffffffffffff1602179055508373ffffffffffffffffffffffffffffffffffffffff166342966c68846040518263ffffffff1660e01b81526004016111749190612232565b5f604051808303815f87803b15801561118b575f5ffd5b505af115801561119d573d5f5f3e3d5ffd5b505050506001600560036101000a81548160ff0219169083151502179055506111c68484611b18565b600560046101000a81548160ff0219169083151502179055505f816111f5576111f0868585611bd2565b611201565b611200868585611c98565b5b509050806005806101000a81548160ff021916908315150217905550600560049054906101000a900460ff1661126257604051806060016040528060298152602001612e88602991396007908161125891906126be565b50505050506113ee565b60058054906101000a900460ff166112a557604051806060016040528060338152602001612d77603391396007908161129b91906126be565b50505050506113ee565b8473ffffffffffffffffffffffffffffffffffffffff166340c10f1930866040518363ffffffff1660e01b81526004016112e092919061298e565b5f604051808303815f87803b1580156112f7575f5ffd5b505af1158015611309573d5f5f3e3d5ffd5b505050508115611380578573ffffffffffffffffffffffffffffffffffffffff16637aebdce685856040518363ffffffff1660e01b815260040161134e929190612894565b5f604051808303815f87803b158015611365575f5ffd5b505af1158015611377573d5f5f3e3d5ffd5b505050506113e9565b8573ffffffffffffffffffffffffffffffffffffffff1663441a3e7085856040518363ffffffff1660e01b81526004016113bb929190612894565b5f604051808303815f87803b1580156113d2575f5ffd5b505af11580156113e4573d5f5f3e3d5ffd5b505050505b505050505b5050565b5f6113fd8383611d5e565b90505f810361143457604051806060016040528060238152602001612d31602391396007908161142d91906126be565b505061172e565b80600381905550806004819055508173ffffffffffffffffffffffffffffffffffffffff16636352211e826040518263ffffffff1660e01b815260040161147b9190612232565b602060405180830381865afa158015611496573d5f5f3e3d5ffd5b505050506040513d601f19601f820116820180604052508101906114ba91906124c6565b600560076101000a81548173ffffffffffffffffffffffffffffffffffffffff021916908373ffffffffffffffffffffffffffffffffffffffff1602179055508173ffffffffffffffffffffffffffffffffffffffff166342966c68826040518263ffffffff1660e01b81526004016115339190612232565b5f604051808303815f87803b15801561154a575f5ffd5b505af115801561155c573d5f5f3e3d5ffd5b505050506001600560036101000a81548160ff0219169083151502179055506115858282611b18565b600560046101000a81548160ff0219169083151502179055505f6115a98483611f5e565b509050806005806101000a81548160ff021916908315150217905550600560049054906101000a900460ff1661160857604051806060016040528060298152602001612e88602991396007908161160091906126be565b50505061172e565b60058054906101000a900460ff1661164957604051806060016040528060318152602001612e57603191396007908161164191906126be565b50505061172e565b8273ffffffffffffffffffffffffffffffffffffffff166340c10f1930846040518363ffffffff1660e01b815260040161168492919061298e565b5f604051808303815f87803b15801561169b575f5ffd5b505af11580156116ad573d5f5f3e3d5ffd5b505050508373ffffffffffffffffffffffffffffffffffffffff1663533c67d5836040518263ffffffff1660e01b81526004016116ea9190612232565b6020604051808303815f875af1158015611706573d5f5f3e3d5ffd5b505050506040513d601f19601f8201168201806040525081019061172a91906127a1565b5050505b5050565b5f5f5f5f8573ffffffffffffffffffffffffffffffffffffffff1663f154240a6040518163ffffffff1660e01b8152600401602060405180830381865afa15801561177f573d5f5f3e3d5ffd5b505050506040513d601f19601f820116820180604052508101906117a391906127a1565b90505f600190505b818111611983576117bc8682612021565b15611970575f8773ffffffffffffffffffffffffffffffffffffffff16639f9fb968836040518263ffffffff1660e01b81526004016117fb9190612232565b61012060405180830381865afa158015611817573d5f5f3e3d5ffd5b505050506040513d601f19601f8201168201806040525081019061183b9190612b0b565b9050806080015161184c5750611970565b5f8160200151421090508873ffffffffffffffffffffffffffffffffffffffff1663af13a23e846040518263ffffffff1660e01b815260040161188f9190612232565b602060405180830381865afa1580156118aa573d5f5f3e3d5ffd5b505050506040513d601f19601f820116820180604052508101906118ce9190612b37565b61196d575f87148061195d57508873ffffffffffffffffffffffffffffffffffffffff16639f9fb968886040518263ffffffff1660e01b81526004016119149190612232565b61012060405180830381865afa158015611930573d5f5f3e3d5ffd5b505050506040513d601f19601f820116820180604052508101906119549190612b0b565b5f0151825f0151115b1561196c578296505f95508094505b5b50505b808061197b90612b62565b9150506117ab565b505f84146119915750611b11565b5f5f600190505b828111611b0d576119a98782612021565b15611afa575f8873ffffffffffffffffffffffffffffffffffffffff16639f9fb968836040518263ffffffff1660e01b81526004016119e89190612232565b61012060405180830381865afa158015611a04573d5f5f3e3d5ffd5b505050506040513d601f19601f82011682018060405250810190611a289190612b0b565b905080608001511580611ab057508873ffffffffffffffffffffffffffffffffffffffff1663af13a23e836040518263ffffffff1660e01b8152600401611a6f9190612232565b602060405180830381865afa158015611a8a573d5f5f3e3d5ffd5b505050506040513d601f19601f82011682018060405250810190611aae9190612b37565b155b15611abb5750611afa565b5f611ac68a846120db565b90505f8103611ad6575050611afa565b83825f01511115611af757815f015193508297508096508160200151421095505b50505b8080611b0590612b62565b915050611998565b5050505b9250925092565b5f8273ffffffffffffffffffffffffffffffffffffffff16636352211e836040518263ffffffff1660e01b8152600401611b529190612232565b602060405180830381865afa925050508015611b8c57506040513d601f19601f82011682018060405250810190611b8991906124c6565b60015b611b995760019050611bcc565b5f73ffffffffffffffffffffffffffffffffffffffff168173ffffffffffffffffffffffffffffffffffffffff16149150505b92915050565b5f60603073ffffffffffffffffffffffffffffffffffffffff16639a771d9e8686866040518463ffffffff1660e01b8152600401611c1293929190612ba9565b5f604051808303815f87803b158015611c29575f5ffd5b505af1925050508015611c3a575060015b611c7b573d805f8114611c68576040519150601f19603f3d011682016040523d82523d5f602084013e611c6d565b606091505b506001819250925050611c90565b5f60405180602001604052805f815250915091505b935093915050565b5f60603073ffffffffffffffffffffffffffffffffffffffff1663ce90049e8686866040518463ffffffff1660e01b8152600401611cd893929190612ba9565b5f604051808303815f87803b158015611cef575f5ffd5b505af1925050508015611d00575060015b611d41573d805f8114611d2e576040519150601f19603f3d011682016040523d82523d5f602084013e611d33565b606091505b506001819250925050611d56565b5f60405180602001604052805f815250915091505b935093915050565b5f5f8373ffffffffffffffffffffffffffffffffffffffff166308b856d76040518163ffffffff1660e01b8152600401602060405180830381865afa158015611da9573d5f5f3e3d5ffd5b505050506040513d601f19601f82011682018060405250810190611dcd91906127a1565b90505f8473ffffffffffffffffffffffffffffffffffffffff1663b817b51e6040518163ffffffff1660e01b81526004016020604051808303815f875af1158015611e1a573d5f5f3e3d5ffd5b505050506040513d601f19601f82011682018060405250810190611e3e91906127a1565b90505f5f600190505b838111611f5457611e588682612021565b15611f41575f8773ffffffffffffffffffffffffffffffffffffffff1663ebed4bd4836040518263ffffffff1660e01b8152600401611e979190612232565b60a060405180830381865afa158015611eb2573d5f5f3e3d5ffd5b505050506040513d601f19601f82011682018060405250810190611ed69190612c67565b90505f816060015103611ee95750611f41565b5f8160600151858360400151611eff9190612c92565b611f099190612d00565b905081604001518111611f1d575050611f41565b816040015181611f2d91906127f9565b905083811115611f3e578093508296505b50505b8080611f4c90612b62565b915050611e47565b5050505092915050565b5f60603073ffffffffffffffffffffffffffffffffffffffff16637b317ca485856040518363ffffffff1660e01b8152600401611f9c92919061298e565b5f604051808303815f87803b158015611fb3575f5ffd5b505af1925050508015611fc4575060015b612005573d805f8114611ff2576040519150601f19603f3d011682016040523d82523d5f602084013e611ff7565b606091505b50600181925092505061201a565b5f60405180602001604052805f815250915091505b9250929050565b5f8273ffffffffffffffffffffffffffffffffffffffff16636352211e836040518263ffffffff1660e01b815260040161205b9190612232565b602060405180830381865afa92505050801561209557506040513d601f19601f8201168201806040525081019061209291906124c6565b60015b6120a1575f90506120d5565b5f73ffffffffffffffffffffffffffffffffffffffff168173ffffffffffffffffffffffffffffffffffffffff1614159150505b92915050565b5f5f8373ffffffffffffffffffffffffffffffffffffffff166308b856d76040518163ffffffff1660e01b8152600401602060405180830381865afa158015612126573d5f5f3e3d5ffd5b505050506040513d601f19601f8201168201806040525081019061214a91906127a1565b90505f600190505b81811161220e575f8573ffffffffffffffffffffffffffffffffffffffff1663ebed4bd4836040518263ffffffff1660e01b81526004016121939190612232565b60a060405180830381865afa1580156121ae573d5f5f3e3d5ffd5b505050506040513d601f19601f820116820180604052508101906121d29190612c67565b9050805f0151851180156121ea575080602001518511155b156121fa57819350505050612214565b50808061220690612b62565b915050612152565b505f9150505b92915050565b5f819050919050565b61222c8161221a565b82525050565b5f6020820190506122455f830184612223565b92915050565b5f8115159050919050565b61225f8161224b565b82525050565b5f6020820190506122785f830184612256565b92915050565b5f73ffffffffffffffffffffffffffffffffffffffff82169050919050565b5f6122a78261227e565b9050919050565b6122b78161229d565b82525050565b5f6020820190506122d05f8301846122ae565b92915050565b5f81519050919050565b5f82825260208201905092915050565b8281835e5f83830152505050565b5f601f19601f8301169050919050565b5f612318826122d6565b61232281856122e0565b93506123328185602086016122f0565b61233b816122fe565b840191505092915050565b5f6020820190508181035f83015261235e818461230e565b905092915050565b5f604051905090565b5f5ffd5b61237c8161229d565b8114612386575f5ffd5b50565b5f8135905061239781612373565b92915050565b6123a68161221a565b81146123b0575f5ffd5b50565b5f813590506123c18161239d565b92915050565b5f5f604083850312156123dd576123dc61236f565b5b5f6123ea85828601612389565b92505060206123fb858286016123b3565b9150509250929050565b5f5f5f6060848603121561241c5761241b61236f565b5b5f61242986828701612389565b935050602061243a868287016123b3565b925050604061244b868287016123b3565b9150509250925092565b7f4e487b71000000000000000000000000000000000000000000000000000000005f52602260045260245ffd5b5f600282049050600182168061249957607f821691505b6020821081036124ac576124ab612455565b5b50919050565b5f815190506124c081612373565b92915050565b5f602082840312156124db576124da61236f565b5b5f6124e8848285016124b2565b91505092915050565b7f4e487b71000000000000000000000000000000000000000000000000000000005f52604160045260245ffd5b5f819050815f5260205f209050919050565b5f6020601f8301049050919050565b5f82821b905092915050565b5f6008830261257a7fffffffffffffffffffffffffffffffffffffffffffffffffffffffffffffffff8261253f565b612584868361253f565b95508019841693508086168417925050509392505050565b5f819050919050565b5f6125bf6125ba6125b58461221a565b61259c565b61221a565b9050919050565b5f819050919050565b6125d8836125a5565b6125ec6125e4826125c6565b84845461254b565b825550505050565b5f5f905090565b6126036125f4565b61260e8184846125cf565b505050565b5b81811015612631576126265f826125fb565b600181019050612614565b5050565b601f821115612676576126478161251e565b61265084612530565b8101602085101561265f578190505b61267361266b85612530565b830182612613565b50505b505050565b5f82821c905092915050565b5f6126965f198460080261267b565b1980831691505092915050565b5f6126ae8383612687565b9150826002028217905092915050565b6126c7826122d6565b67ffffffffffffffff8111156126e0576126df6124f1565b5b6126ea8254612482565b6126f5828285612635565b5f60209050601f831160018114612726575f8415612714578287015190505b61271e85826126a3565b865550612785565b601f1984166127348661251e565b5f5b8281101561275b57848901518255600182019150602085019450602081019050612736565b868310156127785784890151612774601f891682612687565b8355505b6001600288020188555050505b505050505050565b5f8151905061279b8161239d565b92915050565b5f602082840312156127b6576127b561236f565b5b5f6127c38482850161278d565b91505092915050565b7f4e487b71000000000000000000000000000000000000000000000000000000005f52601160045260245ffd5b5f6128038261221a565b915061280e8361221a565b9250828203905081811115612826576128256127cc565b5b92915050565b7f73656c66206f6e6c7900000000000000000000000000000000000000000000005f82015250565b5f6128606009836122e0565b915061286b8261282c565b602082019050919050565b5f6020820190508181035f83015261288d81612854565b9050919050565b5f6040820190506128a75f830185612223565b6128b46020830184612223565b9392505050565b7f68696a61636b65640000000000000000000000000000000000000000000000005f82015250565b5f6128ef6008836122e0565b91506128fa826128bb565b602082019050919050565b7f48494a41434b45440000000000000000000000000000000000000000000000005f82015250565b5f6129396008836122e0565b915061294482612905565b602082019050919050565b5f6060820190506129625f8301846122ae565b8181036020830152612973816128e3565b905081810360408301526129868161292d565b905092915050565b5f6040820190506129a15f8301856122ae565b6129ae6020830184612223565b9392505050565b5f5ffd5b6129c2826122fe565b810181811067ffffffffffffffff821117156129e1576129e06124f1565b5b80604052505050565b5f6129f3612366565b90506129ff82826129b9565b919050565b612a0d8161224b565b8114612a17575f5ffd5b50565b5f81519050612a2881612a04565b92915050565b5f6101208284031215612a4457612a436129b5565b5b612a4f6101206129ea565b90505f612a5e8482850161278d565b5f830152506020612a718482850161278d565b6020830152506040612a858482850161278d565b6040830152506060612a998482850161278d565b6060830152506080612aad84828501612a1a565b60808301525060a0612ac184828501612a1a565b60a08301525060c0612ad58482850161278d565b60c08301525060e0612ae98482850161278d565b60e083015250610100612afe8482850161278d565b6101008301525092915050565b5f6101208284031215612b2157612b2061236f565b5b5f612b2e84828501612a2e565b91505092915050565b5f60208284031215612b4c57612b4b61236f565b5b5f612b5984828501612a1a565b91505092915050565b5f612b6c8261221a565b91507fffffffffffffffffffffffffffffffffffffffffffffffffffffffffffffffff8203612b9e57612b9d6127cc565b5b600182019050919050565b5f606082019050612bbc5f8301866122ae565b612bc96020830185612223565b612bd66040830184612223565b949350505050565b5f60a08284031215612bf357612bf26129b5565b5b612bfd60a06129ea565b90505f612c0c8482850161278d565b5f830152506020612c1f8482850161278d565b6020830152506040612c338482850161278d565b6040830152506060612c478482850161278d565b6060830152506080612c5b8482850161278d565b60808301525092915050565b5f60a08284031215612c7c57612c7b61236f565b5b5f612c8984828501612bde565b91505092915050565b5f612c9c8261221a565b9150612ca78361221a565b9250828202612cb58161221a565b91508282048414831517612ccc57612ccb6127cc565b5b5092915050565b7f4e487b71000000000000000000000000000000000000000000000000000000005f52601260045260245ffd5b5f612d0a8261221a565b9150612d158361221a565b925082612d2557612d24612cd3565b5b82820490509291505056fe6e6f206c6976652066756e64696e67204e46542063616e64696461746520666f756e646e6f206c697665206465706f736974204e46542063616e64696461746520666f756e646275726e6564206465706f736974204e465420627574207769746864726177207061746820646964206e6f74207265766572744e46542e696e69742861747461636b65722c202e2e2e29202d3e206275726e28746f6b656e496429206f6e2061206c697665206465706f736974204e4654202d3e2076696374696d20776974686472617728292f6561726c795769746864726177207061746820726576657274732062656361757365206f776e65724f6628746f6b656e496429206e6f206c6f6e6765722072657475726e732074686520657870656374656420686f6c6465726275726e65642066756e64696e67204e465420627574207061796f7574207061746820646964206e6f74207265766572746275726e2073756363656564656420627574206f776e65724f66207374696c6c207265736f6c7665734e46542e696e69742861747461636b65722c202e2e2e29202d3e206275726e28746f6b656e496429206f6e2061206c6976652066756e64696e67204e4654202d3e20706179496e746572657374546f46756e64657220726576657274732062656361757365206f776e65724f6628746f6b656e496429206e6f206c6f6e6765722072657475726e732074686520657870656374656420686f6c646572a2646970667358221220a6735f903ddc5cb9461167efb114114ab4e9d0118ea06307f04db73381639cb564736f6c634300081e0033","linkReferences":{}},"methodIdentifiers":{"TARGET()":"cc1f2afa","burnedVictimToken()":"317c6dee","demonstratedPathRevert()":"127b0383","executeOnOpportunity()":"3c2448ed","exploitPath()":"cb707c62","failureReason()":"4f9522a4","hijackedTokenId()":"00901f40","hypothesisValidated()":"463defd1","linkedFundingId()":"6f354bc7","ownerQueryRevertedAfterBurn()":"ff5b43de","pool()":"16f0115b","profitAmount()":"5ff972cc","profitToken()":"49343624","targetIsDepositNFT()":"880d83a5","targetIsFundingNFT()":"7e21d819","triggerEarlyWithdraw(address,uint256,uint256)":"ce90049e","triggerPayInterestToFunder(address,uint256)":"7b317ca4","triggerWithdraw(address,uint256,uint256)":"9a771d9e","usedEarlyWithdraw()":"56380369","victimOwnerBeforeBurn()":"e5d3e494"},"id":0}