{"abi":[{"type":"constructor","inputs":[],"stateMutability":"nonpayable"},{"type":"function","name":"canImplementInterfaceForAddress","inputs":[{"name":"interfaceHash","type":"bytes32","internalType":"bytes32"},{"name":"account","type":"address","internalType":"address"}],"outputs":[{"name":"","type":"bytes32","internalType":"bytes32"}],"stateMutability":"view"},{"type":"function","name":"concreteInfeasibility","inputs":[],"outputs":[{"name":"","type":"string","internalType":"string"}],"stateMutability":"view"},{"type":"function","name":"depositedAmount","inputs":[],"outputs":[{"name":"","type":"uint256","internalType":"uint256"}],"stateMutability":"view"},{"type":"function","name":"donatedLiquidity","inputs":[],"outputs":[{"name":"","type":"uint256","internalType":"uint256"}],"stateMutability":"view"},{"type":"function","name":"endingBalance","inputs":[],"outputs":[{"name":"","type":"uint256","internalType":"uint256"}],"stateMutability":"view"},{"type":"function","name":"executeOnOpportunity","inputs":[],"outputs":[],"stateMutability":"nonpayable"},{"type":"function","name":"executed","inputs":[],"outputs":[{"name":"","type":"bool","internalType":"bool"}],"stateMutability":"view"},{"type":"function","name":"exploitPathUsed","inputs":[],"outputs":[{"name":"","type":"string","internalType":"string"}],"stateMutability":"view"},{"type":"function","name":"flashswapUsed","inputs":[],"outputs":[{"name":"","type":"bool","internalType":"bool"}],"stateMutability":"view"},{"type":"function","name":"hookCallCount","inputs":[],"outputs":[{"name":"","type":"uint256","internalType":"uint256"}],"stateMutability":"view"},{"type":"function","name":"hookObserved","inputs":[],"outputs":[{"name":"","type":"bool","internalType":"bool"}],"stateMutability":"view"},{"type":"function","name":"hookRegistered","inputs":[],"outputs":[{"name":"","type":"bool","internalType":"bool"}],"stateMutability":"view"},{"type":"function","name":"hypothesisRefuted","inputs":[],"outputs":[{"name":"","type":"bool","internalType":"bool"}],"stateMutability":"view"},{"type":"function","name":"hypothesisValidated","inputs":[],"outputs":[{"name":"","type":"bool","internalType":"bool"}],"stateMutability":"view"},{"type":"function","name":"profitAmount","inputs":[],"outputs":[{"name":"","type":"uint256","internalType":"uint256"}],"stateMutability":"view"},{"type":"function","name":"profitToken","inputs":[],"outputs":[{"name":"","type":"address","internalType":"address"}],"stateMutability":"view"},{"type":"function","name":"reentered","inputs":[],"outputs":[{"name":"","type":"bool","internalType":"bool"}],"stateMutability":"view"},{"type":"function","name":"reenteredWithdrawAmount","inputs":[],"outputs":[{"name":"","type":"uint256","internalType":"uint256"}],"stateMutability":"view"},{"type":"function","name":"startingBalance","inputs":[],"outputs":[{"name":"","type":"uint256","internalType":"uint256"}],"stateMutability":"view"},{"type":"function","name":"tokensReceived","inputs":[{"name":"","type":"address","internalType":"address"},{"name":"from","type":"address","internalType":"address"},{"name":"to","type":"address","internalType":"address"},{"name":"","type":"uint256","internalType":"uint256"},{"name":"","type":"bytes","internalType":"bytes"},{"name":"","type":"bytes","internalType":"bytes"}],"outputs":[],"stateMutability":"nonpayable"},{"type":"function","name":"transferFromLegUsed","inputs":[],"outputs":[{"name":"","type":"bool","internalType":"bool"}],"stateMutability":"view"},{"type":"function","name":"transferLegUsed","inputs":[],"outputs":[{"name":"","type":"bool","internalType":"bool"}],"stateMutability":"view"},{"type":"function","name":"uniswapV2Call","inputs":[{"name":"","type":"address","internalType":"address"},{"name":"amount0","type":"uint256","internalType":"uint256"},{"name":"amount1","type":"uint256","internalType":"uint256"},{"name":"data","type":"bytes","internalType":"bytes"}],"outputs":[],"stateMutability":"nonpayable"},{"type":"function","name":"vault","inputs":[],"outputs":[{"name":"","type":"address","internalType":"contract VulnerableN00dVault"}],"stateMutability":"view"}],"bytecode":{"object":"0x608080604052346015576137db908161001a8239f35b5f80fdfe60806040526004361015610011575f80fd5b5f5f3560e01c806223de2914610b5b57806310d1e85c146105735780631d01364c146105555780631f69f8ce146104c1578063249cb3fa146104925780632ecfe1be1461047457806331a38c891461044f5780633c2448ed146104335780633f09775e1461040e578063463defd1146103e957806349343624146103a5578063495f92f11461038057806357004c5e1461035b5780635ff972cc1461033d57806379e64f411461031857806381419b42146102f357806381646075146102d55780638de76e0f146102b057806394bd2d3b14610292578063b6fb7e4614610274578063c9819e231461024f578063d78c428114610168578063edc3b56e1461014a5763fbfa77cf14610121575f80fd5b34610147578060031936011261014757546040516001600160a01b039091168152602090f35b80fd5b50346101475780600319360112610147576020600454604051908152f35b503461014757806003193601126101475760405190806009549061018b82610c4d565b808552916001811690811561022857506001146101cb575b6101c7846101b381860382610d0a565b604051918291602083526020830190610d2c565b0390f35b600981527f6e1540171b6c0c960b71a7020d9f60077f6af931a8bbf590da0223dacf75c7af939250905b80821061020e575090915081016020016101b3826101a3565b9192600181602092548385880101520191019092916101f5565b60ff191660208087019190915292151560051b850190920192506101b391508390506101a3565b503461014757806003193601126101475760ff6020915460e01c166040519015158152f35b50346101475780600319360112610147576020600254604051908152f35b50346101475780600319360112610147576020600154604051908152f35b503461014757806003193601126101475760ff6020915460d81c166040519015158152f35b50346101475780600319360112610147576020600654604051908152f35b503461014757806003193601126101475760ff6020915460a81c166040519015158152f35b503461014757806003193601126101475760ff6020915460b01c166040519015158152f35b50346101475780600319360112610147576020600754604051908152f35b503461014757806003193601126101475760ff6020915460d01c166040519015158152f35b503461014757806003193601126101475760ff6020915460c81c166040519015158152f35b50346101475780600319360112610147576007546103d3576020905b6040516001600160a01b039091168152f35b5060205f5160206137665f395f51905f526103c1565b503461014757806003193601126101475760ff6020915460c01c166040519015158152f35b503461014757806003193601126101475760ff6020915460b81c166040519015158152f35b503461014757806003193601126101475761044c611042565b80f35b503461014757806003193601126101475760ff6020915460a01c166040519015158152f35b50346101475780600319360112610147576020600554604051908152f35b50346101475760403660031901126101475760206104b96104b1610bf5565b600435610fd7565b604051908152f35b50346101475780600319360112610147576040519080600a54906104e482610c4d565b8085529160018116908115610228575060011461050b576101c7846101b381860382610d0a565b600a81525f5160206137865f395f51905f52939250905b80821061053b575090915081016020016101b3826101a3565b919260018160209254838588010152019101909291610522565b50346101475780600319360112610147576020600354604051908152f35b503461099a57608036600319011261099a5761058d610bdf565b5060243560643567ffffffffffffffff811161099a576105b1903690600401610c1f565b8101906101e08183031261099a57604051916105cc83610c85565b6105d582610c0b565b835260208301602083013581526040840194604084013586526060840135606086015261060460808501610f3c565b608086015260a085019060a0850135825261064b6101c061063d61062b8760c08a01610f49565b9660c08a019788526101408901610f49565b9660e0890197885201610f3c565b61010087015285516001600160a01b03163303610b24578015610b1a57915b518203610ae15760018060a01b035f54166040519063095ea7b360e01b825260048201525f1960248201526020816044815f732321537fd8ef4644bacdceec54e5f35bf44311fa5af1908115610a35575f91610ac2575b5015610a8c576106d281518361225e565b908115610a54576106f26106e7825184610fb9565b809381600355610d50565b60045581600555515f198101908111610a40576008555f805460ff60d01b198116600160d01b179091556001600160a01b031690813b1561099a575f9160248392604051948593849263b6b55f2560e01b845260048401525af18015610a3557610a20575b5085600454806109ce575b50805460ff60d81b198116600160d81b1782556003546001600160a01b0390911690813b156109ca578291602483926040519485938492632e1a7d4d60e01b845260048401525af180156108df576109b1575b50506040516370a0823160e01b8152306004820152602081602481732321537fd8ef4644bacdceec54e5f35bf44311fa5afa80156109a6578291889161096d575b5010610933576108069151612279565b905180516001600160a01b0316610923575b508251116108ea5751905160405163a9059cbb60e01b81526001600160a01b0390921660048301526024820152602081604481855f5160206137665f395f51905f525af19081156108df5782916108b0575b50156108735780f35b60405162461bcd60e51b81526020600482015260156024820152741c995c185e481d1c985b9cd9995c8819985a5b1959605a1b6044820152606490fd5b6108d2915060203d6020116108d8575b6108ca8183610d0a565b810190610fa1565b5f61086a565b503d6108c0565b6040513d84823e3d90fd5b60405162461bcd60e51b8152602060048201526011602482015270726f7574652062656c6f7720726570617960781b6044820152606490fd5b9061092d91612279565b5f610818565b60405162461bcd60e51b81526020600482015260126024820152711b9bdbd9081b9bdd081c9958dbdd995c995960721b6044820152606490fd5b9150506020813d60201161099e575b8161098960209383610d0a565b8101031261099a578190515f6107f6565b5f80fd5b3d915061097c565b6040513d89823e3d90fd5b816109bb91610d0a565b6109c657855f6107b5565b8580fd5b8280fd5b81546001600160a01b031690813b156109ca57829160248392604051948593849263f14faf6f60e01b845260048401525af180156108df57156107625781610a1591610d0a565b6109c657855f610762565b610a2d9196505f90610d0a565b5f945f610757565b6040513d5f823e3d90fd5b634e487b7160e01b5f52601160045260245ffd5b60405162461bcd60e51b815260206004820152601060248201526f189bdc9c9bddc81d1bdbc81cdb585b1b60821b6044820152606490fd5b60405162461bcd60e51b815260206004820152600e60248201526d185c1c1c9bdd994819985a5b195960921b6044820152606490fd5b610adb915060203d6020116108d8576108ca8183610d0a565b5f6106c1565b60405162461bcd60e51b81526020600482015260116024820152701d5b995e1c1958dd195908185b5bdd5b9d607a1b6044820152606490fd5b506044359161066a565b60405162461bcd60e51b815260206004820152600f60248201526e3ab732bc3832b1ba32b2103830b4b960891b6044820152606490fd5b3461099a5760c036600319011261099a57610b74610bdf565b50610b7d610bf5565b6044356001600160a01b038116810361099a5760843567ffffffffffffffff811161099a57610bb0903690600401610c1f565b505060a4359167ffffffffffffffff831161099a57610bd6610bdd933690600401610c1f565b5050610d5d565b005b600435906001600160a01b038216820361099a57565b602435906001600160a01b038216820361099a57565b35906001600160a01b038216820361099a57565b9181601f8401121561099a5782359167ffffffffffffffff831161099a576020838186019501011161099a57565b90600182811c92168015610c7b575b6020831014610c6757565b634e487b7160e01b5f52602260045260245ffd5b91607f1691610c5c565b610120810190811067ffffffffffffffff821117610ca257604052565b634e487b7160e01b5f52604160045260245ffd5b6080810190811067ffffffffffffffff821117610ca257604052565b60a0810190811067ffffffffffffffff821117610ca257604052565b6040810190811067ffffffffffffffff821117610ca257604052565b90601f8019910116810190811067ffffffffffffffff821117610ca257604052565b805180835260209291819084018484015e5f828201840152601f01601f1916010190565b91908203918211610a4057565b90732321537fd8ef4644bacdceec54e5f35bf44311fa3303610f0457306001600160a01b0390911603610ec8575f54906001600160a01b03808316911603610de25760ff60b01b198116600160b01b175f8190556006546001810191908210610a405760ff9160065560b81c1615610eb0575b5060085480151580610e3f575b610de5575b50565b5f198101908111610a405760085560018060a01b035f5416600554813b1561099a575f91602483926040519485938492632e1a7d4d60e01b845260048401525af18015610a3557610e335750565b5f610e3d91610d0a565b565b505f5460405163b7ec1a3360e01b815290602090829060049082906001600160a01b03165afa908115610a35575f91610e7e575b506005541115610ddd565b90506020813d602011610ea8575b81610e9960209383610d0a565b8101031261099a57515f610e73565b3d9150610e8c565b61ffff60b01b191661010160b01b175f908155610dd0565b60405162461bcd60e51b81526020600482015260146024820152731d5b995e1c1958dd1959081c9958da5c1a595b9d60621b6044820152606490fd5b60405162461bcd60e51b815260206004820152601060248201526f3ab732bc3832b1ba32b2103a37b5b2b760811b6044820152606490fd5b3590811515820361099a57565b919082608091031261099a57604051610f6181610cb6565b6060610f9c818395610f7281610c0b565b8552610f8060208201610c0b565b6020860152610f9160408201610c0b565b604086015201610f3c565b910152565b9081602091031261099a5751801515810361099a5790565b8115610fc3570490565b634e487b7160e01b5f52601260045260245ffd5b6001600160a01b0390911630149081611018575b50610ff4575f90565b7fa2ef4600d742022d532d4747cb3547474667d6f13804902513b2ec01c848f4b490565b7fb281fc8c12954d22544db45de3159a39272895b169a852b314f9cc762e44c53b9150145f610feb565b5f5f5460ff8160a01c1661225a5760ff60a01b1916600160a01b175f5560095461106b90610c4d565b601f81116121f4575b5061047760095560095f527f696e7465677261746f722075736573206e303064207472616e7366657246726f7f6e1540171b6c0c960b71a7020d9f60077f6af931a8bbf590da0223dacf75c7af557f6d282920616e64206c61746572207472616e73666572282920617320696620747f6e1540171b6c0c960b71a7020d9f60077f6af931a8bbf590da0223dacf75c7b0557f68657920776572652063616c6c6261636b2d66726565204552433230206f70657f6e1540171b6c0c960b71a7020d9f60077f6af931a8bbf590da0223dacf75c7b1557f726174696f6e733b2061747461636b65722072656769737465727320616e20457f6e1540171b6c0c960b71a7020d9f60077f6af931a8bbf590da0223dacf75c7b2557f52433138323020455243373737546f6b656e73526563697069656e7420686f6f7f6e1540171b6c0c960b71a7020d9f60077f6af931a8bbf590da0223dacf75c7b3557f6b3b2061207075626c696320556e697377617056322f53757368692d6c696b657f6e1540171b6c0c960b71a7020d9f60077f6af931a8bbf590da0223dacf75c7b4557f206e3030642f5745544820666c617368737761702064657465726d696e6973747f6e1540171b6c0c960b71a7020d9f60077f6af931a8bbf590da0223dacf75c7b5557f6963616c6c792066756e647320746865206c6f63616c207661756c743b2064757f6e1540171b6c0c960b71a7020d9f60077f6af931a8bbf590da0223dacf75c7b6557f72696e67207769746864726177206e303064207374696c6c20726f75746573207f6e1540171b6c0c960b71a7020d9f60077f6af931a8bbf590da0223dacf75c7b7557f7472616e736665722829207468726f75676820455243373737205f73656e64287f6e1540171b6c0c960b71a7020d9f60077f6af931a8bbf590da0223dacf75c7b8557f2e2e2e2c2066616c7365292c2063726564697473207468652061747461636b657f6e1540171b6c0c960b71a7020d9f60077f6af931a8bbf590da0223dacf75c7b9557f722c20696e766f6b657320746f6b656e73526563656976656428292c20616e647f6e1540171b6c0c960b71a7020d9f60077f6af931a8bbf590da0223dacf75c7ba557f2074686520686f6f6b207265656e74657273207769746864726177206265666f7f6e1540171b6c0c960b71a7020d9f60077f6af931a8bbf590da0223dacf75c7bb557f726520736861726573206172652066696e616c697a65643b20746865207265637f6e1540171b6c0c960b71a7020d9f60077f6af931a8bbf590da0223dacf75c7bc557f6f7665726564206e303064206973207468656e20756e776f756e64206f6e6c797f6e1540171b6c0c960b71a7020d9f60077f6af931a8bbf590da0223dacf75c7bd557f207468726f756768207072652d6578697374696e6720556e697377617056322f7f6e1540171b6c0c960b71a7020d9f60077f6af931a8bbf590da0223dacf75c7be557f53757368692d6c696b65206c6971756964697479206261636b20696e746f20577f6e1540171b6c0c960b71a7020d9f60077f6af931a8bbf590da0223dacf75c7bf557f45544820746f20736574746c652074686520666c6173687377617000000000007f6e1540171b6c0c960b71a7020d9f60077f6af931a8bbf590da0223dacf75c7c05561153d612510565b6040516106058082019082821067ffffffffffffffff831117610ca25760209183916131618339732321537fd8ef4644bacdceec54e5f35bf44311fa81520301905ff08015610a355760018060a01b03166bffffffffffffffffffffffff60a01b5f5416175f556115ac6126f6565b6102006040516115bc8282610d0a565b5f5b8281106121c157506115cf816127da565b906040519083820182811067ffffffffffffffff821117610ca257604052600182526002602083015260056040830152600a606083015260146080830152601e60a0830152602860c0830152603260e0830152604b6101008301526064610120830152609661014083015260c861016083015261012c6101808301526101f46101a08301526102ee6101c08301526103e86101e08301525f5b838110611f6c5750505050610100820191825115611c6d575f805460ff60e01b1916600160e01b1790556040516370a0823160e01b81523060048201526020816024815f5160206137665f395f51905f525afa908115610a35575f91611c3b575b506001556040519260018060a01b0382511660208501526117b6602083019384516040870152604084015160608701526060840151608087015260808401928351151560a088015260a085015160c088015261176560c086015160e08901906060809160018060a01b03815116845260018060a01b03602082015116602085015260018060a01b03604082015116604085015201511515910152565b60e085015180516001600160a01b039081166101608a0152602082015181166101808a01526040820151166101a08901526060015115156101c08801525115156101e08701526101e0865285610d0a565b5115611bc1575190516001600160a01b0390911690813b15611bbd5791839161180f938360405180968195829463022c0d9f60e01b84526004840152836024840152306044840152608060648401526084830190610d2c565b03925af180156108df57908291611ba8575b50505b6040516370a0823160e01b81523060048201526020816024815f5160206137665f395f51905f525afa9081156108df578291611b76575b5080600255600154808211611b63575b5050805460ff8160a81c1680611b56575b80611b49575b80611b3c575b80611b2f575b151560c090811b60ff60c01b169060ff60c01b1983168217901c60ff16158015611b25575b61ffff60c01b199092161790151560c81b60ff60c81b161781556007541580611b13575b6118de5750565b6118e9600a54610c4d565b601f8111611ac0575b50600a906101b98255527f5468652045524337373720726563697069656e742d686f6f6b207265656e74725f5160206137865f395f51905f52557f616e637920726570726f647563656420636f72726563746c792c2062757420657fc65a7bb8d6351c1cf70c95a316cc6a92839c986682d98bc35f958f4883f9d2a9557f7665727920646973636f766572656420556e697377617056322f53757368692d7fc65a7bb8d6351c1cf70c95a316cc6a92839c986682d98bc35f958f4883f9d2aa557f6c696b65206578697420726f757465207374696c6c206661696c656420746f207fc65a7bb8d6351c1cf70c95a316cc6a92839c986682d98bc35f958f4883f9d2ab557f6c6561766520726573696475616c2057455448206166746572207265706179697fc65a7bb8d6351c1cf70c95a316cc6a92839c986682d98bc35f958f4883f9d2ac557f6e672074686520666c61736873776170706564206e3030642f5745544820736f7fc65a7bb8d6351c1cf70c95a316cc6a92839c986682d98bc35f958f4883f9d2ad557f7572636520706169722061742074686520666f726b20626c6f636b2e000000007fc65a7bb8d6351c1cf70c95a316cc6a92839c986682d98bc35f958f4883f9d2ae55565b600a8252601f0160051c5f5160206137865f395f51905f52017fc65a7bb8d6351c1cf70c95a316cc6a92839c986682d98bc35f958f4883f9d2af5b818110611b0857506118f2565b828155600101611afb565b50611b1f600a54610c4d565b156118d7565b50600754156118b3565b5060ff8160d81c1661188e565b5060ff8160d01c16611888565b5060ff8160b81c16611882565b5060ff8160b01c1661187c565b611b6c91610d50565b6007555f8061186b565b90506020813d602011611ba0575b81611b9160209383610d0a565b8101031261099a57515f61185b565b3d9150611b84565b81611bb291610d0a565b61014757805f611821565b8380fd5b5190516001600160a01b0390911691823b1561099a57611c13925f928360405180968195829463022c0d9f60e01b84528460048501526024840152306044840152608060648401526084830190610d2c565b03925af18015610a3557611c28575b50611824565b611c3491505f90610d0a565b5f5f611c22565b90506020813d602011611c65575b81611c5660209383610d0a565b8101031261099a57515f6116c9565b3d9150611c49565b50505050611c7c600a54610c4d565b601f8111611f19575b5061024d600a9081555f9081527f4e6f2070726f66697461626c6520556e697377617056322f53757368692d6c695f5160206137865f395f51905f52557f6b6520756e77696e6420726f7574652077617320646973636f76657261626c657fc65a7bb8d6351c1cf70c95a316cc6a92839c986682d98bc35f958f4883f9d2a9557f2066726f6d20746865206c697665206e3030642f5745544820736f75726365207fc65a7bb8d6351c1cf70c95a316cc6a92839c986682d98bc35f958f4883f9d2aa557f7061697220696e746f20616e79207072652d6578697374696e67206e3030642f7fc65a7bb8d6351c1cf70c95a316cc6a92839c986682d98bc35f958f4883f9d2ab557f57455448206f72206e3030642f3c71756f74653e207061697220706c757320617fc65a7bb8d6351c1cf70c95a316cc6a92839c986682d98bc35f958f4883f9d2ac557f207075626c6963203c71756f74653e2f574554482062726964676520617420747fc65a7bb8d6351c1cf70c95a316cc6a92839c986682d98bc35f958f4883f9d2ad557f686520666f726b20626c6f636b2c20736f2074686520766572696669657220637fc65a7bb8d6351c1cf70c95a316cc6a92839c986682d98bc35f958f4883f9d2ae557f6f756c64206e6f7420736574746c652074686520666c617368737761702077697fc65a7bb8d6351c1cf70c95a316cc6a92839c986682d98bc35f958f4883f9d2af557f74686f757420696e76656e74696e67206f66662d636f6e74657874206c6971757fc65a7bb8d6351c1cf70c95a316cc6a92839c986682d98bc35f958f4883f9d2b0556534b234ba3c9760d11b7fc65a7bb8d6351c1cf70c95a316cc6a92839c986682d98bc35f958f4883f9d2b155805460ff60c81b1916600160c81b179055565b600a5f52601f0160051c5f5160206137865f395f51905f52017fc65a7bb8d6351c1cf70c95a316cc6a92839c986682d98bc35f958f4883f9d2b25b818110611f615750611c85565b5f8155600101611f54565b611f768183612747565b5160208101516001600160a01b031673c02aaa39b223fe8d0a0e5c4f27ead9083c756cc119016121b8575f906060810190604081015b60108410611fc257505050506001905b01611668565b90919298611fee612710611fe38c611fdc8651918c612747565b519061276c565b046007811690610d50565b9081158080156121ad575b6121a25785518451916121675783816120289215158061215e575b80612155575b61202390612a8e565b61276c565b906103e88202918083046103e81490151715610a40578361204891610d50565b6103e58102908082046103e51490151715610a405761206691610fb9565b9060018201809211610a40579161207b6126f6565b505f5b8a811061209657505050600190995b01929190611fac565b6120a0818a612747565b51805187516001600160a01b0390811691161461214c57806120cf604061212993015160608301519086612ad3565b815160208301516080909301516040519293901515916001600160a01b0391821691166120fb84610cb6565b8352732321537fd8ef4644bacdceec54e5f35bf44311fa60208401526040830152606082015285858a612eb9565b6121338582613111565b612143575b506001905b0161207e565b93506001612138565b5060019061213d565b5083821061201a565b50831515612014565b60405162461bcd60e51b81526020600482015260136024820152721a5b9cdd59999a58da595b9d081bdd5d1c1d5d606a1b6044820152606490fd5b50996001915061208d565b508351831015611ff9565b50600190611fbc565b6020906040516121d081610cd2565b5f81525f838201525f60408201525f60608201525f608082015281840152016115be565b60095f52601f0160051c7f6e1540171b6c0c960b71a7020d9f60077f6af931a8bbf590da0223dacf75c7af017f6e1540171b6c0c960b71a7020d9f60077f6af931a8bbf590da0223dacf75c7c15b81811061224f5750611074565b5f8155600101612242565b5050565b908015612275579061227291810690610d50565b90565b5090565b80515f91906001600160a01b0316156124ba5760208101518151606092830151604051630240bc6b60e21b81526001600160a01b039283169491151593909216919081600481875afa908115610a35575f92612305612339926020948691879161247f575b506001600160701b039088881461247657818316925b89891461246d575016905b8a612ad3565b60405163a9059cbb60e01b81526001600160a01b038816600482015260248101999099529793849283919082906044820190565b03925af1908115610a35575f9161244e575b501561241257156123ba57803b156123b65781809160a46040518094819363022c0d9f60e01b8352816004840152886024840152306044840152608060648401528160848401525af180156108df576123a357505090565b6123ae828092610d0a565b610147575090565b5080fd5b8091503b1561099a575f809160a46040518094819363022c0d9f60e01b8352876004840152816024840152306044840152608060648401528160848401525af18015610a3557612408575090565b5f61227291610d0a565b60405162461bcd60e51b81526020600482015260146024820152731cddd85c081d1c985b9cd9995c8819985a5b195960621b6044820152606490fd5b612467915060203d6020116108d8576108ca8183610d0a565b5f61234b565b905016906122ff565b818116926122f4565b6001600160701b0392506124ab915060603d6060116124b3575b6124a38183610d0a565b810190612793565b5090916122de565b503d612499565b60405162461bcd60e51b815260206004820152600f60248201526e0756e737570706f7274656420686f7608c1b6044820152606490fd5b9081602091031261099a57516001600160a01b038116810361099a5790565b5f9060ff5f5460a81c166126ce57731820a4b7618bde71dce8cdc73aab6c95905fad243b1561099a576040516329965a1d60e01b815230600482018190527fb281fc8c12954d22544db45de3159a39272895b169a852b314f9cc762e44c53b602483015260448201525f8160648183731820a4b7618bde71dce8cdc73aab6c95905fad245af18015610a35576126b9575b5060405163555ddc6560e11b81523060048201527fb281fc8c12954d22544db45de3159a39272895b169a852b314f9cc762e44c53b602482015291602083604481731820a4b7618bde71dce8cdc73aab6c95905fad245afa80156126ac5760ff9293829161267d575b50815460a884811b199091166001600160a01b0390921630148416811b91909117918290551c161561263857565b60405162461bcd60e51b815260206004820152601860248201527f686f6f6b20726567697374726174696f6e206661696c656400000000000000006044820152606490fd5b61269f915060203d6020116126a5575b6126978183610d0a565b8101906124f1565b5f61260a565b503d61268d565b50604051903d90823e3d90fd5b6126c69192505f90610d0a565b5f905f6125a1565b9050565b604051906126df82610cb6565b5f6060838281528260208201528260408201520152565b6040519061270382610c85565b5f610100838281528260208201528260408201528260608201528260808201528260a08201526127316126d2565b60c082015261273e6126d2565b60e08201520152565b9060108110156127585760051b0190565b634e487b7160e01b5f52603260045260245ffd5b81810292918115918404141715610a4057565b51906001600160701b038216820361099a57565b9081606091031261099a576127a78161277f565b9160406127b66020840161277f565b92015163ffffffff8116810361099a5790565b9060028110156127585760051b0190565b6040515f92916127e982610cee565b735c69bee701ef814a2b6a3edd4b1652cb9cc5aa6f825273c0aee478e3658e2610c5f7a4a2e1777ce9e4f2ac602083015260405191610100830183811067ffffffffffffffff821117610ca2576040525f5160206137665f395f51905f52835273a0b86991c6218b36c1d19d4a2e9eb0ce3606eb48602084015273dac17f958d2ee523a2206206994597c13d831ec76040840152736b175474e89094c44da98b954eedeac495271d0f6060840152732260fac5e5542a773aa44fbcfedf7c193bc2c599608084015273853d955acef822db058eb8505911ed77f175b99e60a084015273956f47f50a910163d8bf957cf5846d573e7f87ca60c08401527399d8a9c45b2ecb0bbe1a173e4797cda5f8997aeb60e08401525f905b600282106129105750505050565b5f959394955b6008811015612a7e57600581901b8601516044906001600160a01b039081169060209061294387876127c9565b51166040519384809263e6a4390560e01b8252732321537fd8ef4644bacdceec54e5f35bf44311fa60048301528560248301525afa918215610a35575f92612a5e575b506001600160a01b0382169182158015612a55575b8015612a44575b612a3957816129b091612bb8565b92829192158015612a31575b612a2457604051946129cd86610cd2565b8552602085015260408401526060830152151560808201526129ef8686612747565b526129fa8585612747565b5060018501809511610a40578460108114612a1a57506001905b01612916565b9550505050505090565b5050505050600190612a14565b5082156129bc565b505050600190612a14565b50612a50818989612b6f565b6129a2565b50803b1561299b565b612a7791925060203d81116126a5576126978183610d0a565b905f612986565b5090600190959493950190612902565b15612a9557565b60405162461bcd60e51b8152602060048201526016602482015275696e73756666696369656e74206c697175696469747960501b6044820152606490fd5b8015612b3557811592831580612b2c575b612aed90612a8e565b6103e582029182046103e503610a4057612b07908261276c565b926103e883029283046103e8141715610a40578101809111610a405761227291610fb9565b50801515612ae4565b60405162461bcd60e51b81526020600482015260126024820152711a5b9cdd59999a58da595b9d081a5b9c1d5d60721b6044820152606490fd5b9190915f5b838110612b8357505050505f90565b6001600160a01b03612b958284612747565b5151166001600160a01b03841614612baf57600101612b74565b50505050600190565b604051630dfe168160e01b81526001600160a01b039091169291602082600481875afa918215610a35575f92612d38575b5060405163d21220a760e01b815293602085600481845afa908115610a35576004955f92612d14575b5060609060405196878092630240bc6b60e21b82525afa928315610a35575f955f94612cec575b506001600160a01b031690732321537fd8ef4644bacdceec54e5f35bf44311fa821480612cd7575b612cc0576001600160a01b0316732321537fd8ef4644bacdceec54e5f35bf44311fa149182612cad575b5050612c9b57505f915081908190565b6001600160701b038091169216905f90565b6001600160a01b03161490505f80612c8b565b505050916001600160701b03809116921690600190565b506001600160a01b0381811690841614612c61565b909350612d0991955060603d6060116124b3576124a38183610d0a565b50949094925f612c39565b6060919250612d319060203d6020116126a5576126978183610d0a565b9190612c12565b612d5291925060203d6020116126a5576126978183610d0a565b905f612be9565b604051630dfe168160e01b81529291906001600160a01b0316602084600481845afa938415610a35575f94612e98575b5060405163d21220a760e01b815293602085600481855afa918215610a35576004955f93612e74575b5060609060405196878092630240bc6b60e21b82525afa928315610a35575f955f94612e4c575b506001600160a01b039182169291169082821480612e2d575b612cc0576001600160a01b0316149081612e16575b50612c9b57505f915081908190565b5f5160206137665f395f51905f529150145f612e07565b506001600160a01b0381165f5160206137665f395f51905f5214612df2565b909350612e6991955060603d6060116124b3576124a38183610d0a565b50949094925f612dd9565b6060919350612e919060203d6020116126a5576126978183610d0a565b9290612db2565b612eb291945060203d6020116126a5576126978183610d0a565b925f612d89565b939291612ec46126f6565b908415613108578491612ed56126d2565b9560018060a01b03604087015116905f5160206137665f395f51905f528203612f55575b505081831115612a1a5750608060018060a01b0387511696015115159260405196612f2388610c85565b87526020870152604086015260608501526080840152600860a084015260c083015260e0820152600161010082015290565b93509550612f616126d2565b955f9360405191612f7183610cee565b735c69bee701ef814a2b6a3edd4b1652cb9cc5aa6f835273c0aee478e3658e2610c5f7a4a2e1777ce9e4f2ac60208401525f5b60028110612fdb57505087516001600160a01b03161591508490508115612fd2575b50612a1a575f80612ef9565b9050155f612fc6565b604460206001600160a01b03612ff184886127c9565b51166040519283809263e6a4390560e01b82528760048301525f5160206137665f395f51905f5260248301525afa908115610a35575f916130ea575b506001600160a01b038116908390821580156130e1575b6130d6579061305291612d59565b9291801580156130ce575b6130c2579061306c9187612ad3565b898111613081575b5050506001905b01612fa4565b604051939c509850600192919061309783610cb6565b82528360208301525f5160206137665f395f51905f5260408301521515606082015299905f80613074565b5050505060019061307b565b50811561305d565b50505060019061307b565b50803b15613044565b613102915060203d81116126a5576126978183610d0a565b5f61302d565b50935050505090565b6101008101511561315a57610100820151156131535761313e816040606061314f94015191015190610d50565b916040606082015191015190610d50565b1090565b5050600190565b50505f9056fe60a03461008057601f61060538819003918201601f19168301916001600160401b038311848410176100845780849260209460405283398101031261008057516001600160a01b038116908190036100805760805260405161056c90816100998239608051818181609f015281816101f0015281816102b001526103f50152f35b5f80fd5b634e487b7160e01b5f52604160045260245ffdfe6080806040526004361015610012575f80fd5b5f3560e01c9081632e1a7d4d146103a957508063b6b55f2514610265578063b7ec1a33146101c5578063ce7c2ac21461018a5763f14faf6f14610053575f80fd5b34610186576020366003190112610186576004358015610156576040516323b872dd60e01b815233600482015230602482015260448101919091526020816064815f6001600160a01b037f0000000000000000000000000000000000000000000000000000000000000000165af190811561014b575f9161011c575b50156100d757005b60405162461bcd60e51b815260206004820152601860248201527f646f6e6174696f6e207472616e73666572206661696c656400000000000000006044820152606490fd5b61013e915060203d602011610144575b61013681836104e8565b81019061051e565b5f6100cf565b503d61012c565b6040513d5f823e3d90fd5b60405162461bcd60e51b81526020600482015260086024820152670646f6e6174653d360c41b6044820152606490fd5b5f80fd5b34610186576020366003190112610186576004356001600160a01b03811690819003610186575f525f602052602060405f2054604051908152f35b34610186575f366003190112610186576040516370a0823160e01b81523060048201526020816024817f00000000000000000000000000000000000000000000000000000000000000006001600160a01b03165afa801561014b575f90610232575b602090604051908152f35b506020813d60201161025d575b8161024c602093836104e8565b810103126101865760209051610227565b3d915061023f565b34610186576020366003190112610186576004358015610378576040516323b872dd60e01b8152336004820152306024820152604481018290526020816064815f6001600160a01b037f0000000000000000000000000000000000000000000000000000000000000000165af190811561014b575f91610359575b501561031457335f525f60205260405f2080549182018092116103005755005b634e487b7160e01b5f52601160045260245ffd5b60405162461bcd60e51b815260206004820152601760248201527f6465706f736974207472616e73666572206661696c65640000000000000000006044820152606490fd5b610372915060203d6020116101445761013681836104e8565b826102e0565b60405162461bcd60e51b815260206004820152600960248201526806465706f7369743d360bc1b6044820152606490fd5b3461018657602036600319011261018657600435335f525f60205260405f2054918183106104b0575060405163a9059cbb60e01b8152336004820152602481018290526020816044815f7f00000000000000000000000000000000000000000000000000000000000000006001600160a01b03165af190811561014b575f91610491575b501561044c57810390811161030057335f525f60205260405f20555f80f35b60405162461bcd60e51b815260206004820152601860248201527f7769746864726177207472616e73666572206661696c656400000000000000006044820152606490fd5b6104aa915060203d6020116101445761013681836104e8565b8361042d565b62461bcd60e51b8152602060048201526013602482015272696e73756666696369656e742073686172657360681b6044820152606490fd5b90601f8019910116810190811067ffffffffffffffff82111761050a57604052565b634e487b7160e01b5f52604160045260245ffd5b9081602091031261018657518015158103610186579056fea26469706673582212200a9563af581592904de2d0f84a399eef1ebed3a1f67859383fb64a62a234cb7364736f6c634300081e0033000000000000000000000000c02aaa39b223fe8d0a0e5c4f27ead9083c756cc2c65a7bb8d6351c1cf70c95a316cc6a92839c986682d98bc35f958f4883f9d2a8a26469706673582212203afd6673464262292d545e5b88750147e6e6f1340b605f913b52a1aa7707723964736f6c634300081e0033","linkReferences":{}},"methodIdentifiers":{"canImplementInterfaceForAddress(bytes32,address)":"249cb3fa","concreteInfeasibility()":"1f69f8ce","depositedAmount()":"1d01364c","donatedLiquidity()":"edc3b56e","endingBalance()":"b6fb7e46","executeOnOpportunity()":"3c2448ed","executed()":"31a38c89","exploitPathUsed()":"d78c4281","flashswapUsed()":"c9819e23","hookCallCount()":"81646075","hookObserved()":"79e64f41","hookRegistered()":"81419b42","hypothesisRefuted()":"495f92f1","hypothesisValidated()":"463defd1","profitAmount()":"5ff972cc","profitToken()":"49343624","reentered()":"3f09775e","reenteredWithdrawAmount()":"2ecfe1be","startingBalance()":"94bd2d3b","tokensReceived(address,address,address,uint256,bytes,bytes)":"0023de29","transferFromLegUsed()":"57004c5e","transferLegUsed()":"8de76e0f","uniswapV2Call(address,uint256,uint256,bytes)":"10d1e85c","vault()":"fbfa77cf"},"id":0}