{"abi":[{"type":"constructor","inputs":[{"name":"token_","type":"address","internalType":"address"}],"stateMutability":"nonpayable"},{"type":"function","name":"deposit","inputs":[{"name":"amount","type":"uint256","internalType":"uint256"}],"outputs":[],"stateMutability":"nonpayable"},{"type":"function","name":"donate","inputs":[{"name":"amount","type":"uint256","internalType":"uint256"}],"outputs":[],"stateMutability":"nonpayable"},{"type":"function","name":"liquidBalance","inputs":[],"outputs":[{"name":"","type":"uint256","internalType":"uint256"}],"stateMutability":"view"},{"type":"function","name":"shares","inputs":[{"name":"","type":"address","internalType":"address"}],"outputs":[{"name":"","type":"uint256","internalType":"uint256"}],"stateMutability":"view"},{"type":"function","name":"withdraw","inputs":[{"name":"amount","type":"uint256","internalType":"uint256"}],"outputs":[],"stateMutability":"nonpayable"}],"bytecode":{"object":"0x60a03461008057601f61060538819003918201601f19168301916001600160401b038311848410176100845780849260209460405283398101031261008057516001600160a01b038116908190036100805760805260405161056c90816100998239608051818181609f015281816101f0015281816102b001526103f50152f35b5f80fd5b634e487b7160e01b5f52604160045260245ffdfe6080806040526004361015610012575f80fd5b5f3560e01c9081632e1a7d4d146103a957508063b6b55f2514610265578063b7ec1a33146101c5578063ce7c2ac21461018a5763f14faf6f14610053575f80fd5b34610186576020366003190112610186576004358015610156576040516323b872dd60e01b815233600482015230602482015260448101919091526020816064815f6001600160a01b037f0000000000000000000000000000000000000000000000000000000000000000165af190811561014b575f9161011c575b50156100d757005b60405162461bcd60e51b815260206004820152601860248201527f646f6e6174696f6e207472616e73666572206661696c656400000000000000006044820152606490fd5b61013e915060203d602011610144575b61013681836104e8565b81019061051e565b5f6100cf565b503d61012c565b6040513d5f823e3d90fd5b60405162461bcd60e51b81526020600482015260086024820152670646f6e6174653d360c41b6044820152606490fd5b5f80fd5b34610186576020366003190112610186576004356001600160a01b03811690819003610186575f525f602052602060405f2054604051908152f35b34610186575f366003190112610186576040516370a0823160e01b81523060048201526020816024817f00000000000000000000000000000000000000000000000000000000000000006001600160a01b03165afa801561014b575f90610232575b602090604051908152f35b506020813d60201161025d575b8161024c602093836104e8565b810103126101865760209051610227565b3d915061023f565b34610186576020366003190112610186576004358015610378576040516323b872dd60e01b8152336004820152306024820152604481018290526020816064815f6001600160a01b037f0000000000000000000000000000000000000000000000000000000000000000165af190811561014b575f91610359575b501561031457335f525f60205260405f2080549182018092116103005755005b634e487b7160e01b5f52601160045260245ffd5b60405162461bcd60e51b815260206004820152601760248201527f6465706f736974207472616e73666572206661696c65640000000000000000006044820152606490fd5b610372915060203d6020116101445761013681836104e8565b826102e0565b60405162461bcd60e51b815260206004820152600960248201526806465706f7369743d360bc1b6044820152606490fd5b3461018657602036600319011261018657600435335f525f60205260405f2054918183106104b0575060405163a9059cbb60e01b8152336004820152602481018290526020816044815f7f00000000000000000000000000000000000000000000000000000000000000006001600160a01b03165af190811561014b575f91610491575b501561044c57810390811161030057335f525f60205260405f20555f80f35b60405162461bcd60e51b815260206004820152601860248201527f7769746864726177207472616e73666572206661696c656400000000000000006044820152606490fd5b6104aa915060203d6020116101445761013681836104e8565b8361042d565b62461bcd60e51b8152602060048201526013602482015272696e73756666696369656e742073686172657360681b6044820152606490fd5b90601f8019910116810190811067ffffffffffffffff82111761050a57604052565b634e487b7160e01b5f52604160045260245ffd5b9081602091031261018657518015158103610186579056fea26469706673582212200a9563af581592904de2d0f84a399eef1ebed3a1f67859383fb64a62a234cb7364736f6c634300081e0033","linkReferences":{}},"methodIdentifiers":{"deposit(uint256)":"b6b55f25","donate(uint256)":"f14faf6f","liquidBalance()":"b7ec1a33","shares(address)":"ce7c2ac2","withdraw(uint256)":"2e1a7d4d"},"id":0}