{"abi":[{"type":"function","name":"get","inputs":[{"name":"","type":"bytes","internalType":"bytes"}],"outputs":[{"name":"success","type":"bool","internalType":"bool"},{"name":"rate","type":"uint256","internalType":"uint256"}],"stateMutability":"pure"},{"type":"function","name":"peek","inputs":[{"name":"","type":"bytes","internalType":"bytes"}],"outputs":[{"name":"success","type":"bool","internalType":"bool"},{"name":"rate","type":"uint256","internalType":"uint256"}],"stateMutability":"pure"}],"bytecode":{"object":"0x6080604052348015600e575f5ffd5b506101fb8061001c5f395ff3fe608060405234801561000f575f5ffd5b5060043610610034575f3560e01c8063d6d7d52514610038578063eeb8a8d314610069575b5f5ffd5b610052600480360381019061004d9190610121565b61009a565b60405161006092919061019e565b60405180910390f35b610083600480360381019061007e9190610121565b6100a9565b60405161009192919061019e565b60405180910390f35b5f5f5f5f915091509250929050565b5f5f5f5f915091509250929050565b5f5ffd5b5f5ffd5b5f5ffd5b5f5ffd5b5f5ffd5b5f5f83601f8401126100e1576100e06100c0565b5b8235905067ffffffffffffffff8111156100fe576100fd6100c4565b5b60208301915083600182028301111561011a576101196100c8565b5b9250929050565b5f5f60208385031215610137576101366100b8565b5b5f83013567ffffffffffffffff811115610154576101536100bc565b5b610160858286016100cc565b92509250509250929050565b5f8115159050919050565b6101808161016c565b82525050565b5f819050919050565b61019881610186565b82525050565b5f6040820190506101b15f830185610177565b6101be602083018461018f565b939250505056fea26469706673582212208d588e7d11e0c01bc8b5248d13437133c724c4b8c02683e54cc27f304696448064736f6c634300081e0033","linkReferences":{}},"methodIdentifiers":{"get(bytes)":"d6d7d525","peek(bytes)":"eeb8a8d3"},"id":0}