{"abi":[{"type":"constructor","inputs":[],"stateMutability":"nonpayable"},{"type":"receive","stateMutability":"payable"},{"type":"function","name":"MIM","inputs":[],"outputs":[{"name":"","type":"address","internalType":"address"}],"stateMutability":"view"},{"type":"function","name":"TARGET_CAULDRON","inputs":[],"outputs":[{"name":"","type":"address","internalType":"address"}],"stateMutability":"view"},{"type":"function","name":"attemptLiveTarget","inputs":[],"outputs":[],"stateMutability":"nonpayable"},{"type":"function","name":"attemptValidationPath","inputs":[],"outputs":[],"stateMutability":"nonpayable"},{"type":"function","name":"bentoBox","inputs":[],"outputs":[{"name":"","type":"address","internalType":"address"}],"stateMutability":"view"},{"type":"function","name":"borrowSucceeded","inputs":[],"outputs":[{"name":"","type":"bool","internalType":"bool"}],"stateMutability":"view"},{"type":"function","name":"collateralToken","inputs":[],"outputs":[{"name":"","type":"address","internalType":"address"}],"stateMutability":"view"},{"type":"function","name":"collateralWithdrawalSucceeded","inputs":[],"outputs":[{"name":"","type":"bool","internalType":"bool"}],"stateMutability":"view"},{"type":"function","name":"executeOnOpportunity","inputs":[],"outputs":[{"name":"","type":"uint256","internalType":"uint256"}],"stateMutability":"nonpayable"},{"type":"function","name":"hypothesisRefuted","inputs":[],"outputs":[{"name":"","type":"bool","internalType":"bool"}],"stateMutability":"view"},{"type":"function","name":"hypothesisValidated","inputs":[],"outputs":[{"name":"","type":"bool","internalType":"bool"}],"stateMutability":"view"},{"type":"function","name":"initAcceptedFailedOracleRead","inputs":[],"outputs":[{"name":"","type":"bool","internalType":"bool"}],"stateMutability":"view"},{"type":"function","name":"liquidationBlocked","inputs":[],"outputs":[{"name":"","type":"bool","internalType":"bool"}],"stateMutability":"view"},{"type":"function","name":"liveTargetAttempted","inputs":[],"outputs":[{"name":"","type":"bool","internalType":"bool"}],"stateMutability":"view"},{"type":"function","name":"liveTargetCachedZeroObserved","inputs":[],"outputs":[{"name":"","type":"bool","internalType":"bool"}],"stateMutability":"view"},{"type":"function","name":"liveTargetInitializationStageInfeasible","inputs":[],"outputs":[{"name":"","type":"bool","internalType":"bool"}],"stateMutability":"view"},{"type":"function","name":"liveTargetProfitable","inputs":[],"outputs":[{"name":"","type":"bool","internalType":"bool"}],"stateMutability":"view"},{"type":"function","name":"onFlashLoan","inputs":[{"name":"sender","type":"address","internalType":"address"},{"name":"token","type":"address","internalType":"contract IERC20Like"},{"name":"amount","type":"uint256","internalType":"uint256"},{"name":"fee","type":"uint256","internalType":"uint256"},{"name":"","type":"bytes","internalType":"bytes"}],"outputs":[],"stateMutability":"nonpayable"},{"type":"function","name":"probeLiveLiquidation","inputs":[],"outputs":[],"stateMutability":"nonpayable"},{"type":"function","name":"probeValidationLiquidation","inputs":[],"outputs":[],"stateMutability":"nonpayable"},{"type":"function","name":"profitAmount","inputs":[],"outputs":[{"name":"","type":"uint256","internalType":"uint256"}],"stateMutability":"view"},{"type":"function","name":"profitToken","inputs":[],"outputs":[{"name":"","type":"address","internalType":"address"}],"stateMutability":"pure"},{"type":"function","name":"status","inputs":[],"outputs":[{"name":"","type":"bytes32","internalType":"bytes32"}],"stateMutability":"view"},{"type":"function","name":"validationCauldron","inputs":[],"outputs":[{"name":"","type":"address","internalType":"address"}],"stateMutability":"view"},{"type":"function","name":"validationOracle","inputs":[],"outputs":[{"name":"","type":"address","internalType":"address"}],"stateMutability":"view"},{"type":"function","name":"validationPathExecuted","inputs":[],"outputs":[{"name":"","type":"bool","internalType":"bool"}],"stateMutability":"view"}],"bytecode":{"object":"0x6080604052348015600e575f5ffd5b506169fe8061001c5f395ff3fe608060405260043610610183575f3560e01c80636b2ace87116100d0578063b2016bd411610089578063c5bd196f11610063578063c5bd196f146104ec578063c5d948e714610516578063daec383d14610540578063f10a3d811461056a5761018a565b8063b2016bd41461046e578063b7021f7714610498578063bd7a598c146104c25761018a565b80636b2ace871461038657806386316ffb146103b057806386e8a1a2146103da57806389d6ac761461040457806393a797091461042e578063983dae11146104445761018a565b80633c2448ed1161013d578063493436241161011757806349343624146102de578063495f92f1146103085780634f8d51ce146103325780635ff972cc1461035c5761018a565b80633c2448ed14610260578063463defd11461028a5780634686aeb0146102b45761018a565b8062a4c0641461018e578063072d5e47146101b8578063200d2ed2146101ce57806323e30c8b146101f85780633a634811146102205780633b04a8c9146102365761018a565b3661018a57005b5f5ffd5b348015610199575f5ffd5b506101a2610580565b6040516101af91906137cc565b60405180910390f35b3480156101c3575f5ffd5b506101cc610593565b005b3480156101d9575f5ffd5b506101e261060b565b6040516101ef91906137fd565b60405180910390f35b348015610203575f5ffd5b5061021e60048036038101906102199190613947565b610611565b005b34801561022b575f5ffd5b5061023461082f565b005b348015610241575f5ffd5b5061024a6108a7565b60405161025791906137cc565b60405180910390f35b34801561026b575f5ffd5b506102746108ba565b60405161028191906139ec565b60405180910390f35b348015610295575f5ffd5b5061029e610f97565b6040516102ab91906137cc565b60405180910390f35b3480156102bf575f5ffd5b506102c8610faa565b6040516102d591906137cc565b60405180910390f35b3480156102e9575f5ffd5b506102f2610fbd565b6040516102ff9190613a14565b60405180910390f35b348015610313575f5ffd5b5061031c610fd8565b60405161032991906137cc565b60405180910390f35b34801561033d575f5ffd5b50610346610feb565b60405161035391906137cc565b60405180910390f35b348015610367575f5ffd5b50610370610ffe565b60405161037d91906139ec565b60405180910390f35b348015610391575f5ffd5b5061039a611006565b6040516103a79190613a14565b60405180910390f35b3480156103bb575f5ffd5b506103c461102c565b6040516103d19190613a14565b60405180910390f35b3480156103e5575f5ffd5b506103ee611051565b6040516103fb91906137cc565b60405180910390f35b34801561040f575f5ffd5b50610418611064565b60405161042591906137cc565b60405180910390f35b348015610439575f5ffd5b50610442611077565b005b34801561044f575f5ffd5b5061045861132a565b6040516104659190613a14565b60405180910390f35b348015610479575f5ffd5b5061048261134f565b60405161048f9190613a14565b60405180910390f35b3480156104a3575f5ffd5b506104ac611374565b6040516104b991906137cc565b60405180910390f35b3480156104cd575f5ffd5b506104d6611387565b6040516104e39190613a14565b60405180910390f35b3480156104f7575f5ffd5b5061050061139f565b60405161050d91906137cc565b60405180910390f35b348015610521575f5ffd5b5061052a6113b2565b60405161053791906137cc565b60405180910390f35b34801561054b575f5ffd5b506105546113c5565b6040516105619190613a14565b60405180910390f35b348015610575575f5ffd5b5061057e6113dd565b005b600560149054906101000a900460ff1681565b3073ffffffffffffffffffffffffffffffffffffffff163373ffffffffffffffffffffffffffffffffffffffff1614610601576040517f08c379a00000000000000000000000000000000000000000000000000000000081526004016105f890613a87565b60405180910390fd5b610609611662565b565b60065481565b600260019054906101000a900473ffffffffffffffffffffffffffffffffffffffff1673ffffffffffffffffffffffffffffffffffffffff163373ffffffffffffffffffffffffffffffffffffffff16146106a1576040517f08c379a000000000000000000000000000000000000000000000000000000000815260040161069890613aef565b60405180910390fd5b3073ffffffffffffffffffffffffffffffffffffffff168673ffffffffffffffffffffffffffffffffffffffff161461070f576040517f08c379a000000000000000000000000000000000000000000000000000000000815260040161070690613b57565b60405180910390fd5b6001600381111561072357610722613b75565b5b60075f9054906101000a900460ff16600381111561074457610743613b75565b5b03610759576107548585856118ef565b610827565b6002600381111561076d5761076c613b75565b5b60075f9054906101000a900460ff16600381111561078e5761078d613b75565b5b036107a35761079e85858561205a565b610827565b6003808111156107b6576107b5613b75565b5b60075f9054906101000a900460ff1660038111156107d7576107d6613b75565b5b036107ec576107e785858561235c565b610827565b6040517f08c379a000000000000000000000000000000000000000000000000000000000815260040161081e90613bec565b60405180910390fd5b505050505050565b3073ffffffffffffffffffffffffffffffffffffffff163373ffffffffffffffffffffffffffffffffffffffff161461089d576040517f08c379a000000000000000000000000000000000000000000000000000000000815260040161089490613a87565b60405180910390fd5b6108a5612849565b565b600560189054906101000a900460ff1681565b5f60025f9054906101000a900460ff16156108d8575f549050610f94565b600160025f6101000a81548160ff0219169083151502179055507399d8a9c45b2eca8864373a26d1459e3dff1e17f373ffffffffffffffffffffffffffffffffffffffff166370a08231306040518263ffffffff1660e01b815260040161093f9190613a14565b602060405180830381865afa15801561095a573d5f5f3e3d5ffd5b505050506040513d601f19601f8201168201806040525081019061097e9190613c1e565b6001819055507346f54d434063e5f1a2b2cc6d9aaa657b1b9ff82c73ffffffffffffffffffffffffffffffffffffffff16636b2ace876040518163ffffffff1660e01b8152600401602060405180830381865afa1580156109e1573d5f5f3e3d5ffd5b505050506040513d601f19601f82011682018060405250810190610a059190613c5d565b600260016101000a81548173ffffffffffffffffffffffffffffffffffffffff021916908373ffffffffffffffffffffffffffffffffffffffff1602179055507346f54d434063e5f1a2b2cc6d9aaa657b1b9ff82c73ffffffffffffffffffffffffffffffffffffffff1663d8dfeb456040518163ffffffff1660e01b8152600401602060405180830381865afa158015610aa2573d5f5f3e3d5ffd5b505050506040513d601f19601f82011682018060405250810190610ac69190613c5d565b60035f6101000a81548173ffffffffffffffffffffffffffffffffffffffff021916908373ffffffffffffffffffffffffffffffffffffffff1602179055507399d8a9c45b2eca8864373a26d1459e3dff1e17f373ffffffffffffffffffffffffffffffffffffffff167346f54d434063e5f1a2b2cc6d9aaa657b1b9ff82c73ffffffffffffffffffffffffffffffffffffffff16639b352ae16040518163ffffffff1660e01b8152600401602060405180830381865afa158015610b8d573d5f5f3e3d5ffd5b505050506040513d601f19601f82011682018060405250810190610bb19190613c5d565b73ffffffffffffffffffffffffffffffffffffffff1614610c07576040517f08c379a0000000000000000000000000000000000000000000000000000000008152600401610bfe90613cd2565b60405180910390fd5b3073ffffffffffffffffffffffffffffffffffffffff1663072d5e476040518163ffffffff1660e01b81526004015f604051808303815f87803b158015610c4c575f5ffd5b505af1925050508015610c5d575060015b15610ceb57600560159054906101000a900460ff168015610c8a57506005601a9054906101000a900460ff165b8015610ca257506005601b9054906101000a900460ff165b15610cea5760016005601d6101000a81548160ff0219169083151502179055507f465fe967114895a6ceb349f1f083901ad81ae56d5a3ec9e13d7f3c59867e8b3d6006819055505b5b600560159054906101000a900460ff16610edc575f5f1b60065403610d32577f62e9a9d918642b1185ba3e148da42ba038e7e65b23e46e61cca58803eae656986006819055505b3073ffffffffffffffffffffffffffffffffffffffff16633a6348116040518163ffffffff1660e01b81526004015f604051808303815f87803b158015610d77575f5ffd5b505af1925050508015610d88575060015b15610da9576001600560186101000a81548160ff0219169083151502179055505b600560199054906101000a900460ff168015610dd157506005601a9054906101000a900460ff165b8015610de957506005601b9054906101000a900460ff165b8015610e0157506005601c9054906101000a900460ff165b6005601d6101000a81548160ff021916908315150217905550600560189054906101000a900460ff168015610e4357506005601d9054906101000a900460ff16155b6005601e6101000a81548160ff0219169083151502179055506005601d9054906101000a900460ff1615610e9d577f9bdb7051edc747410090a34e3942184fbfc1eedcbf1dfcab33a0b786e650276a600681905550610edb565b6005601e9054906101000a900460ff1615610eda577f4d31f747e880c66491c1b5e3d96c733c2ad704b2f553442c106a52c7215b65d36006819055505b5b5b5f7399d8a9c45b2eca8864373a26d1459e3dff1e17f373ffffffffffffffffffffffffffffffffffffffff166370a08231306040518263ffffffff1660e01b8152600401610f2a9190613a14565b602060405180830381865afa158015610f45573d5f5f3e3d5ffd5b505050506040513d601f19601f82011682018060405250810190610f699190613c1e565b90506001548111610f7a575f610f89565b60015481610f889190613d1d565b5b5f819055505f549150505b90565b6005601d9054906101000a900460ff1681565b600560179054906101000a900460ff1681565b5f7399d8a9c45b2eca8864373a26d1459e3dff1e17f3905090565b6005601e9054906101000a900460ff1681565b600560169054906101000a900460ff1681565b5f5f54905090565b600260019054906101000a900473ffffffffffffffffffffffffffffffffffffffff1681565b60055f9054906101000a900473ffffffffffffffffffffffffffffffffffffffff1681565b600560159054906101000a900460ff1681565b6005601b9054906101000a900460ff1681565b3073ffffffffffffffffffffffffffffffffffffffff163373ffffffffffffffffffffffffffffffffffffffff16146110e5576040517f08c379a00000000000000000000000000000000000000000000000000000000081526004016110dc90613a87565b60405180910390fd5b5f600167ffffffffffffffff81111561110157611100613d50565b5b60405190808252806020026020018201604052801561112f5781602001602082028036833780820191505090505b50905030815f8151811061114657611145613d7d565b5b602002602001019073ffffffffffffffffffffffffffffffffffffffff16908173ffffffffffffffffffffffffffffffffffffffff16815250505f600167ffffffffffffffff81111561119c5761119b613d50565b5b6040519080825280602002602001820160405280156111ca5781602001602082028036833780820191505090505b50905060055f9054906101000a900473ffffffffffffffffffffffffffffffffffffffff1673ffffffffffffffffffffffffffffffffffffffff166348e4163e306040518263ffffffff1660e01b81526004016112279190613a14565b602060405180830381865afa158015611242573d5f5f3e3d5ffd5b505050506040513d601f19601f820116820180604052508101906112669190613c1e565b815f8151811061127957611278613d7d565b5b60200260200101818152505060055f9054906101000a900473ffffffffffffffffffffffffffffffffffffffff1673ffffffffffffffffffffffffffffffffffffffff1663ff6ff84b8383305f6040518563ffffffff1660e01b81526004016112e59493929190613fa6565b6020604051808303815f875af1158015611301573d5f5f3e3d5ffd5b505050506040513d601f19601f820116820180604052508101906113259190613c1e565b505050565b60045f9054906101000a900473ffffffffffffffffffffffffffffffffffffffff1681565b60035f9054906101000a900473ffffffffffffffffffffffffffffffffffffffff1681565b6005601c9054906101000a900460ff1681565b7346f54d434063e5f1a2b2cc6d9aaa657b1b9ff82c81565b600560199054906101000a900460ff1681565b6005601a9054906101000a900460ff1681565b7399d8a9c45b2eca8864373a26d1459e3dff1e17f381565b3073ffffffffffffffffffffffffffffffffffffffff163373ffffffffffffffffffffffffffffffffffffffff161461144b576040517f08c379a000000000000000000000000000000000000000000000000000000000815260040161144290613a87565b60405180910390fd5b5f600167ffffffffffffffff81111561146757611466613d50565b5b6040519080825280602002602001820160405280156114955781602001602082028036833780820191505090505b50905030815f815181106114ac576114ab613d7d565b5b602002602001019073ffffffffffffffffffffffffffffffffffffffff16908173ffffffffffffffffffffffffffffffffffffffff16815250505f600167ffffffffffffffff81111561150257611501613d50565b5b6040519080825280602002602001820160405280156115305781602001602082028036833780820191505090505b5090507346f54d434063e5f1a2b2cc6d9aaa657b1b9ff82c73ffffffffffffffffffffffffffffffffffffffff166348e4163e306040518263ffffffff1660e01b81526004016115809190613a14565b602060405180830381865afa15801561159b573d5f5f3e3d5ffd5b505050506040513d601f19601f820116820180604052508101906115bf9190613c1e565b815f815181106115d2576115d1613d7d565b5b6020026020010181815250507346f54d434063e5f1a2b2cc6d9aaa657b1b9ff82c73ffffffffffffffffffffffffffffffffffffffff1663ff6ff84b8383305f6040518563ffffffff1660e01b81526004016116319493929190613fa6565b5f604051808303815f87803b158015611648575f5ffd5b505af115801561165a573d5f5f3e3d5ffd5b505050505050565b6001600560146101000a81548160ff0219169083151502179055505f7346f54d434063e5f1a2b2cc6d9aaa657b1b9ff82c73ffffffffffffffffffffffffffffffffffffffff166302ce728f6040518163ffffffff1660e01b815260040160408051808303815f875af11580156116db573d5f5f3e3d5ffd5b505050506040513d601f19601f820116820180604052508101906116ff9190614034565b9150505f811461172a576001600560176101000a81548160ff021916908315150217905550506118ed565b6001600560166101000a81548160ff02191690831515021790555061174d612e2e565b600b819055505f600b540361177d576001600560176101000a81548160ff021916908315150217905550506118ed565b6117a760035f9054906101000a900473ffffffffffffffffffffffffffffffffffffffff1661326b565b6008819055505f600854036117d7576001600560176101000a81548160ff021916908315150217905550506118ed565b600160075f6101000a81548160ff021916908360038111156117fc576117fb613b75565b5b0217905550600260019054906101000a900473ffffffffffffffffffffffffffffffffffffffff1673ffffffffffffffffffffffffffffffffffffffff1663f1676d37303060035f9054906101000a900473ffffffffffffffffffffffffffffffffffffffff1660085460405180602001604052805f8152506040518663ffffffff1660e01b8152600401611895959493929190614112565b5f604051808303815f87803b1580156118ac575f5ffd5b505af11580156118be573d5f5f3e3d5ffd5b505050505f60075f6101000a81548160ff021916908360038111156118e6576118e5613b75565b5b0217905550505b565b60035f9054906101000a900473ffffffffffffffffffffffffffffffffffffffff1673ffffffffffffffffffffffffffffffffffffffff168373ffffffffffffffffffffffffffffffffffffffff161461197e576040517f08c379a0000000000000000000000000000000000000000000000000000000008152600401611975906141b4565b60405180910390fd5b5f81146119c0576040517f08c379a00000000000000000000000000000000000000000000000000000000081526004016119b79061421c565b60405180910390fd5b611a0e60035f9054906101000a900473ffffffffffffffffffffffffffffffffffffffff16600260019054906101000a900473ffffffffffffffffffffffffffffffffffffffff1684613326565b600260019054906101000a900473ffffffffffffffffffffffffffffffffffffffff1673ffffffffffffffffffffffffffffffffffffffff166302b9446c60035f9054906101000a900473ffffffffffffffffffffffffffffffffffffffff163030865f6040518663ffffffff1660e01b8152600401611a92959493929190614273565b60408051808303815f875af1158015611aad573d5f5f3e3d5ffd5b505050506040513d601f19601f82011682018060405250810190611ad191906142c4565b9050600d5f8291905055507346f54d434063e5f1a2b2cc6d9aaa657b1b9ff82c73ffffffffffffffffffffffffffffffffffffffff1663860ffea1305f600d546040518463ffffffff1660e01b8152600401611b2f93929190614302565b5f604051808303815f87803b158015611b46575f5ffd5b505af1158015611b58573d5f5f3e3d5ffd5b505050507346f54d434063e5f1a2b2cc6d9aaa657b1b9ff82c73ffffffffffffffffffffffffffffffffffffffff16634b8a352930600b546040518363ffffffff1660e01b8152600401611bad929190614337565b60408051808303815f875af1158015611bc8573d5f5f3e3d5ffd5b505050506040513d601f19601f82011682018060405250810190611bec91906142c4565b9050600c5f8291905055505f600c5414156005601a6101000a81548160ff021916908315150217905550600260019054906101000a900473ffffffffffffffffffffffffffffffffffffffff1673ffffffffffffffffffffffffffffffffffffffff166397da6d307399d8a9c45b2eca8864373a26d1459e3dff1e17f330305f600c546040518663ffffffff1660e01b8152600401611c8f95949392919061435e565b60408051808303815f875af1158015611caa573d5f5f3e3d5ffd5b505050506040513d601f19601f82011682018060405250810190611cce91906142c4565b50507346f54d434063e5f1a2b2cc6d9aaa657b1b9ff82c73ffffffffffffffffffffffffffffffffffffffff1663876467f830600d546040518363ffffffff1660e01b8152600401611d21929190614337565b5f604051808303815f87803b158015611d38575f5ffd5b505af1158015611d4a573d5f5f3e3d5ffd5b50505050600260019054906101000a900473ffffffffffffffffffffffffffffffffffffffff1673ffffffffffffffffffffffffffffffffffffffff166397da6d3060035f9054906101000a900473ffffffffffffffffffffffffffffffffffffffff1630305f600d546040518663ffffffff1660e01b8152600401611dd495949392919061435e565b60408051808303815f875af1158015611def573d5f5f3e3d5ffd5b505050506040513d601f19601f82011682018060405250810190611e1391906142c4565b50508160035f9054906101000a900473ffffffffffffffffffffffffffffffffffffffff1673ffffffffffffffffffffffffffffffffffffffff166370a08231306040518263ffffffff1660e01b8152600401611e709190613a14565b602060405180830381865afa158015611e8b573d5f5f3e3d5ffd5b505050506040513d601f19601f82011682018060405250810190611eaf9190613c1e565b10156005601b6101000a81548160ff021916908315150217905550611f1860035f9054906101000a900473ffffffffffffffffffffffffffffffffffffffff16600260019054906101000a900473ffffffffffffffffffffffffffffffffffffffff168461342d565b3073ffffffffffffffffffffffffffffffffffffffff1663f10a3d816040518163ffffffff1660e01b81526004015f604051808303815f87803b158015611f5d575f5ffd5b505af1925050508015611f6e575060015b611f925760016005601c6101000a81548160ff021916908315150217905550611fad565b5f6005601c6101000a81548160ff0219169083151502179055505b5f7399d8a9c45b2eca8864373a26d1459e3dff1e17f373ffffffffffffffffffffffffffffffffffffffff166370a08231306040518263ffffffff1660e01b8152600401611ffb9190613a14565b602060405180830381865afa158015612016573d5f5f3e3d5ffd5b505050506040513d601f19601f8201168201806040525081019061203a9190613c1e565b1415600560156101000a81548160ff021916908315150217905550505050565b60035f9054906101000a900473ffffffffffffffffffffffffffffffffffffffff1673ffffffffffffffffffffffffffffffffffffffff168373ffffffffffffffffffffffffffffffffffffffff16146120e9576040517f08c379a00000000000000000000000000000000000000000000000000000000081526004016120e0906143f9565b60405180910390fd5b5f811461212b576040517f08c379a00000000000000000000000000000000000000000000000000000000081526004016121229061421c565b60405180910390fd5b61217860035f9054906101000a900473ffffffffffffffffffffffffffffffffffffffff1660055f9054906101000a900473ffffffffffffffffffffffffffffffffffffffff1684613326565b60055f9054906101000a900473ffffffffffffffffffffffffffffffffffffffff1673ffffffffffffffffffffffffffffffffffffffff16636d75b9ee30846040518363ffffffff1660e01b81526004016121d4929190614337565b5f604051808303815f87803b1580156121eb575f5ffd5b505af11580156121fd573d5f5f3e3d5ffd5b50505050600360075f6101000a81548160ff0219169083600381111561222657612225613b75565b5b0217905550600260019054906101000a900473ffffffffffffffffffffffffffffffffffffffff1673ffffffffffffffffffffffffffffffffffffffff1663f1676d3730307399d8a9c45b2eca8864373a26d1459e3dff1e17f3600a5460405180602001604052805f8152506040518663ffffffff1660e01b81526004016122b2959493929190614112565b5f604051808303815f87803b1580156122c9575f5ffd5b505af11580156122db573d5f5f3e3d5ffd5b50505050600260075f6101000a81548160ff0219169083600381111561230457612303613b75565b5b021790555061235760035f9054906101000a900473ffffffffffffffffffffffffffffffffffffffff16600260019054906101000a900473ffffffffffffffffffffffffffffffffffffffff168461342d565b505050565b7399d8a9c45b2eca8864373a26d1459e3dff1e17f373ffffffffffffffffffffffffffffffffffffffff168373ffffffffffffffffffffffffffffffffffffffff16146123de576040517f08c379a00000000000000000000000000000000000000000000000000000000081526004016123d590614461565b60405180910390fd5b5f8114612420576040517f08c379a00000000000000000000000000000000000000000000000000000000081526004016124179061421c565b60405180910390fd5b6124607399d8a9c45b2eca8864373a26d1459e3dff1e17f360055f9054906101000a900473ffffffffffffffffffffffffffffffffffffffff1684613326565b60055f9054906101000a900473ffffffffffffffffffffffffffffffffffffffff1673ffffffffffffffffffffffffffffffffffffffff1663c57fed13836040518263ffffffff1660e01b81526004016124ba91906139ec565b5f604051808303815f87803b1580156124d1575f5ffd5b505af11580156124e3573d5f5f3e3d5ffd5b5050505060055f9054906101000a900473ffffffffffffffffffffffffffffffffffffffff1673ffffffffffffffffffffffffffffffffffffffff16634b8a352930846040518363ffffffff1660e01b8152600401612543929190614337565b6020604051808303815f875af115801561255f573d5f5f3e3d5ffd5b505050506040513d601f19601f820116820180604052508101906125839190613c1e565b50817399d8a9c45b2eca8864373a26d1459e3dff1e17f373ffffffffffffffffffffffffffffffffffffffff166370a08231306040518263ffffffff1660e01b81526004016125d29190613a14565b602060405180830381865afa1580156125ed573d5f5f3e3d5ffd5b505050506040513d601f19601f820116820180604052508101906126119190613c1e565b10156005601a6101000a81548160ff02191690831515021790555060055f9054906101000a900473ffffffffffffffffffffffffffffffffffffffff1673ffffffffffffffffffffffffffffffffffffffff1663876467f8306009546040518363ffffffff1660e01b815260040161268a929190614337565b5f604051808303815f87803b1580156126a1575f5ffd5b505af11580156126b3573d5f5f3e3d5ffd5b5050505060095460035f9054906101000a900473ffffffffffffffffffffffffffffffffffffffff1673ffffffffffffffffffffffffffffffffffffffff166370a08231306040518263ffffffff1660e01b81526004016127149190613a14565b602060405180830381865afa15801561272f573d5f5f3e3d5ffd5b505050506040513d601f19601f820116820180604052508101906127539190613c1e565b10156005601b6101000a81548160ff0219169083151502179055503073ffffffffffffffffffffffffffffffffffffffff166393a797096040518163ffffffff1660e01b81526004015f604051808303815f87803b1580156127b3575f5ffd5b505af19250505080156127c4575060015b6127e85760016005601c6101000a81548160ff021916908315150217905550612803565b5f6005601c6101000a81548160ff0219169083151502179055505b6128447399d8a9c45b2eca8864373a26d1459e3dff1e17f3600260019054906101000a900473ffffffffffffffffffffffffffffffffffffffff168461342d565b505050565b60405161285590613798565b604051809103905ff08015801561286e573d5f5f3e3d5ffd5b5060045f6101000a81548173ffffffffffffffffffffffffffffffffffffffff021916908373ffffffffffffffffffffffffffffffffffffffff16021790555060035f9054906101000a900473ffffffffffffffffffffffffffffffffffffffff167399d8a9c45b2eca8864373a26d1459e3dff1e17f360045f9054906101000a900473ffffffffffffffffffffffffffffffffffffffff167346f54d434063e5f1a2b2cc6d9aaa657b1b9ff82c73ffffffffffffffffffffffffffffffffffffffff1663c7ee2a7b6040518163ffffffff1660e01b8152600401602060405180830381865afa158015612964573d5f5f3e3d5ffd5b505050506040513d601f19601f820116820180604052508101906129889190613c1e565b7346f54d434063e5f1a2b2cc6d9aaa657b1b9ff82c73ffffffffffffffffffffffffffffffffffffffff1663aba024f46040518163ffffffff1660e01b8152600401602060405180830381865afa1580156129e5573d5f5f3e3d5ffd5b505050506040513d601f19601f82011682018060405250810190612a099190613c1e565b604051612a15906137a5565b612a2395949392919061447f565b604051809103905ff080158015612a3c573d5f5f3e3d5ffd5b5060055f6101000a81548173ffffffffffffffffffffffffffffffffffffffff021916908373ffffffffffffffffffffffffffffffffffffffff16021790555060055f9054906101000a900473ffffffffffffffffffffffffffffffffffffffff1673ffffffffffffffffffffffffffffffffffffffff1663e1c7392a6040518163ffffffff1660e01b81526004015f604051808303815f87803b158015612ae2575f5ffd5b505af1158015612af4573d5f5f3e3d5ffd5b5050505060055f9054906101000a900473ffffffffffffffffffffffffffffffffffffffff1673ffffffffffffffffffffffffffffffffffffffff166375587d3c6040518163ffffffff1660e01b8152600401602060405180830381865afa158015612b62573d5f5f3e3d5ffd5b505050506040513d601f19601f82011682018060405250810190612b8691906144d0565b158015612c1f57505f60055f9054906101000a900473ffffffffffffffffffffffffffffffffffffffff1673ffffffffffffffffffffffffffffffffffffffff16633ba0b9a96040518163ffffffff1660e01b8152600401602060405180830381865afa158015612bf9573d5f5f3e3d5ffd5b505050506040513d601f19601f82011682018060405250810190612c1d9190613c1e565b145b600560196101000a81548160ff021916908315150217905550600560199054906101000a900460ff16612c87576040517f08c379a0000000000000000000000000000000000000000000000000000000008152600401612c7e90614545565b60405180910390fd5b612cb160035f9054906101000a900473ffffffffffffffffffffffffffffffffffffffff1661326b565b600981905550612cbf6134b3565b600a819055505f60095414158015612cd957505f600a5414155b612d18576040517f08c379a0000000000000000000000000000000000000000000000000000000008152600401612d0f906145ad565b60405180910390fd5b600260075f6101000a81548160ff02191690836003811115612d3d57612d3c613b75565b5b0217905550600260019054906101000a900473ffffffffffffffffffffffffffffffffffffffff1673ffffffffffffffffffffffffffffffffffffffff1663f1676d37303060035f9054906101000a900473ffffffffffffffffffffffffffffffffffffffff1660095460405180602001604052805f8152506040518663ffffffff1660e01b8152600401612dd6959493929190614112565b5f604051808303815f87803b158015612ded575f5ffd5b505af1158015612dff573d5f5f3e3d5ffd5b505050505f60075f6101000a81548160ff02191690836003811115612e2757612e26613b75565b5b0217905550565b5f5f612e386134e7565b90505f8103612e4a575f915050613268565b5f5f7346f54d434063e5f1a2b2cc6d9aaa657b1b9ff82c73ffffffffffffffffffffffffffffffffffffffff1663e551d11d6040518163ffffffff1660e01b81526004016040805180830381865afa158015612ea8573d5f5f3e3d5ffd5b505050506040513d601f19601f82011682018060405250810190612ecc9190614610565b915091505f5f7346f54d434063e5f1a2b2cc6d9aaa657b1b9ff82c73ffffffffffffffffffffffffffffffffffffffff16638285ef406040518163ffffffff1660e01b81526004016040805180830381865afa158015612f2e573d5f5f3e3d5ffd5b505050506040513d601f19601f82011682018060405250810190612f529190614610565b915091505f6fffffffffffffffffffffffffffffffff8016856fffffffffffffffffffffffffffffffff1614612fd757826fffffffffffffffffffffffffffffffff16856fffffffffffffffffffffffffffffffff1611612fb3575f612fc0565b8285612fbf919061464e565b5b6fffffffffffffffffffffffffffffffff16612ff9565b7fffffffffffffffffffffffffffffffffffffffffffffffffffffffffffffffff5b90505f7fffffffffffffffffffffffffffffffffffffffffffffffffffffffffffffffff90506fffffffffffffffffffffffffffffffff8016856fffffffffffffffffffffffffffffffff1614613202575f836fffffffffffffffffffffffffffffffff16148061307b57505f846fffffffffffffffffffffffffffffffff16145b156131235761311c856fffffffffffffffffffffffffffffffff167346f54d434063e5f1a2b2cc6d9aaa657b1b9ff82c73ffffffffffffffffffffffffffffffffffffffff1663aba024f46040518163ffffffff1660e01b8152600401602060405180830381865afa1580156130f3573d5f5f3e3d5ffd5b505050506040513d601f19601f820116820180604052508101906131179190613c1e565b613678565b9050613201565b5f836fffffffffffffffffffffffffffffffff16856fffffffffffffffffffffffffffffffff16876fffffffffffffffffffffffffffffffff166131679190614691565b61317191906146ff565b90506131fd817346f54d434063e5f1a2b2cc6d9aaa657b1b9ff82c73ffffffffffffffffffffffffffffffffffffffff1663aba024f46040518163ffffffff1660e01b8152600401602060405180830381865afa1580156131d4573d5f5f3e3d5ffd5b505050506040513d601f19601f820116820180604052508101906131f89190613c1e565b613678565b9150505b5b5f6132168861321185856136a9565b6136a9565b90505f6132367399d8a9c45b2eca8864373a26d1459e3dff1e17f361326b565b9050808211613250575f9950505050505050505050613268565b808261325c9190613d1d565b99505050505050505050505b90565b5f5f600260019054906101000a900473ffffffffffffffffffffffffffffffffffffffff1673ffffffffffffffffffffffffffffffffffffffff166356623118846001806040518463ffffffff1660e01b81526004016132cd93929190614768565b602060405180830381865afa1580156132e8573d5f5f3e3d5ffd5b505050506040513d601f19601f8201168201806040525081019061330c9190613c1e565b90505f811461331b578061331e565b60015b915050919050565b6133a78363095ea7b360e01b845f6040516024016133459291906147d9565b604051602081830303815290604052907bffffffffffffffffffffffffffffffffffffffffffffffffffffffff19166020820180517bffffffffffffffffffffffffffffffffffffffffffffffffffffffff83818316178352505050506136c1565b6134288363095ea7b360e01b84846040516024016133c6929190614337565b604051602081830303815290604052907bffffffffffffffffffffffffffffffffffffffffffffffffffffffff19166020820180517bffffffffffffffffffffffffffffffffffffffffffffffffffffffff83818316178352505050506136c1565b505050565b6134ae8363a9059cbb60e01b848460405160240161344c929190614337565b604051602081830303815290604052907bffffffffffffffffffffffffffffffffffffffffffffffffffffffff19166020820180517bffffffffffffffffffffffffffffffffffffffffffffffffffffffff83818316178352505050506136c1565b505050565b5f5f6134d27399d8a9c45b2eca8864373a26d1459e3dff1e17f361326b565b90506008816134e19190614691565b91505090565b5f5f600260019054906101000a900473ffffffffffffffffffffffffffffffffffffffff1673ffffffffffffffffffffffffffffffffffffffff1663f7888aec7399d8a9c45b2eca8864373a26d1459e3dff1e17f37346f54d434063e5f1a2b2cc6d9aaa657b1b9ff82c6040518363ffffffff1660e01b815260040161356e929190614800565b602060405180830381865afa158015613589573d5f5f3e3d5ffd5b505050506040513d601f19601f820116820180604052508101906135ad9190613c1e565b90505f81036135bf575f915050613675565b600260019054906101000a900473ffffffffffffffffffffffffffffffffffffffff1673ffffffffffffffffffffffffffffffffffffffff1663566231187399d8a9c45b2eca8864373a26d1459e3dff1e17f3835f6040518463ffffffff1660e01b815260040161363293929190614827565b602060405180830381865afa15801561364d573d5f5f3e3d5ffd5b505050506040513d601f19601f820116820180604052508101906136719190613c1e565b9150505b90565b5f81620186a0613688919061485c565b620186a0846136979190614691565b6136a191906146ff565b905092915050565b5f8183106136b757816136b9565b825b905092915050565b5f5f8373ffffffffffffffffffffffffffffffffffffffff16836040516136e891906148c9565b5f604051808303815f865af19150503d805f8114613721576040519150601f19603f3d011682016040523d82523d5f602084013e613726565b606091505b509150915081801561375357505f8151148061375257508080602001905181019061375191906144d0565b5b5b613792576040517f08c379a000000000000000000000000000000000000000000000000000000000815260040161378990614929565b60405180910390fd5b50505050565b6102178061494883390190565b611e6a80614b5f83390190565b5f8115159050919050565b6137c6816137b2565b82525050565b5f6020820190506137df5f8301846137bd565b92915050565b5f819050919050565b6137f7816137e5565b82525050565b5f6020820190506138105f8301846137ee565b92915050565b5f5ffd5b5f5ffd5b5f73ffffffffffffffffffffffffffffffffffffffff82169050919050565b5f6138478261381e565b9050919050565b6138578161383d565b8114613861575f5ffd5b50565b5f813590506138728161384e565b92915050565b5f6138828261383d565b9050919050565b61389281613878565b811461389c575f5ffd5b50565b5f813590506138ad81613889565b92915050565b5f819050919050565b6138c5816138b3565b81146138cf575f5ffd5b50565b5f813590506138e0816138bc565b92915050565b5f5ffd5b5f5ffd5b5f5ffd5b5f5f83601f840112613907576139066138e6565b5b8235905067ffffffffffffffff811115613924576139236138ea565b5b6020830191508360018202830111156139405761393f6138ee565b5b9250929050565b5f5f5f5f5f5f60a0878903121561396157613960613816565b5b5f61396e89828a01613864565b965050602061397f89828a0161389f565b955050604061399089828a016138d2565b94505060606139a189828a016138d2565b935050608087013567ffffffffffffffff8111156139c2576139c161381a565b5b6139ce89828a016138f2565b92509250509295509295509295565b6139e6816138b3565b82525050565b5f6020820190506139ff5f8301846139dd565b92915050565b613a0e8161383d565b82525050565b5f602082019050613a275f830184613a05565b92915050565b5f82825260208201905092915050565b7f4f4e4c595f53454c4600000000000000000000000000000000000000000000005f82015250565b5f613a71600983613a2d565b9150613a7c82613a3d565b602082019050919050565b5f6020820190508181035f830152613a9e81613a65565b9050919050565b7f4f4e4c595f42454e544f000000000000000000000000000000000000000000005f82015250565b5f613ad9600a83613a2d565b9150613ae482613aa5565b602082019050919050565b5f6020820190508181035f830152613b0681613acd565b9050919050565b7f4241445f53454e444552000000000000000000000000000000000000000000005f82015250565b5f613b41600a83613a2d565b9150613b4c82613b0d565b602082019050919050565b5f6020820190508181035f830152613b6e81613b35565b9050919050565b7f4e487b71000000000000000000000000000000000000000000000000000000005f52602160045260245ffd5b7f554e45585045435445445f464c4153485f4d4f444500000000000000000000005f82015250565b5f613bd6601583613a2d565b9150613be182613ba2565b602082019050919050565b5f6020820190508181035f830152613c0381613bca565b9050919050565b5f81519050613c18816138bc565b92915050565b5f60208284031215613c3357613c32613816565b5b5f613c4084828501613c0a565b91505092915050565b5f81519050613c578161384e565b92915050565b5f60208284031215613c7257613c71613816565b5b5f613c7f84828501613c49565b91505092915050565b7f554e45585045435445445f4d494d0000000000000000000000000000000000005f82015250565b5f613cbc600e83613a2d565b9150613cc782613c88565b602082019050919050565b5f6020820190508181035f830152613ce981613cb0565b9050919050565b7f4e487b71000000000000000000000000000000000000000000000000000000005f52601160045260245ffd5b5f613d27826138b3565b9150613d32836138b3565b9250828203905081811115613d4a57613d49613cf0565b5b92915050565b7f4e487b71000000000000000000000000000000000000000000000000000000005f52604160045260245ffd5b7f4e487b71000000000000000000000000000000000000000000000000000000005f52603260045260245ffd5b5f81519050919050565b5f82825260208201905092915050565b5f819050602082019050919050565b613ddc8161383d565b82525050565b5f613ded8383613dd3565b60208301905092915050565b5f602082019050919050565b5f613e0f82613daa565b613e198185613db4565b9350613e2483613dc4565b805f5b83811015613e54578151613e3b8882613de2565b9750613e4683613df9565b925050600181019050613e27565b5085935050505092915050565b5f81519050919050565b5f82825260208201905092915050565b5f819050602082019050919050565b613e93816138b3565b82525050565b5f613ea48383613e8a565b60208301905092915050565b5f602082019050919050565b5f613ec682613e61565b613ed08185613e6b565b9350613edb83613e7b565b805f5b83811015613f0b578151613ef28882613e99565b9750613efd83613eb0565b925050600181019050613ede565b5085935050505092915050565b5f819050919050565b5f613f3b613f36613f318461381e565b613f18565b61381e565b9050919050565b5f613f4c82613f21565b9050919050565b5f613f5d82613f42565b9050919050565b613f6d81613f53565b82525050565b5f82825260208201905092915050565b50565b5f613f915f83613f73565b9150613f9c82613f83565b5f82019050919050565b5f60a0820190508181035f830152613fbe8187613e05565b90508181036020830152613fd28186613ebc565b9050613fe16040830185613a05565b613fee6060830184613f64565b8181036080830152613fff81613f86565b905095945050505050565b614013816137b2565b811461401d575f5ffd5b50565b5f8151905061402e8161400a565b92915050565b5f5f6040838503121561404a57614049613816565b5b5f61405785828601614020565b925050602061406885828601613c0a565b9150509250929050565b5f61407c82613f42565b9050919050565b61408c81614072565b82525050565b5f61409c82613f42565b9050919050565b6140ac81614092565b82525050565b5f81519050919050565b8281835e5f83830152505050565b5f601f19601f8301169050919050565b5f6140e4826140b2565b6140ee8185613f73565b93506140fe8185602086016140bc565b614107816140ca565b840191505092915050565b5f60a0820190506141255f830188614083565b6141326020830187613a05565b61413f60408301866140a3565b61414c60608301856139dd565b818103608083015261415e81846140da565b90509695505050505050565b7f4241445f4c4956455f464c4153485f544f4b454e0000000000000000000000005f82015250565b5f61419e601483613a2d565b91506141a98261416a565b602082019050919050565b5f6020820190508181035f8301526141cb81614192565b9050919050565b7f554e45585045435445445f464c4153485f4645450000000000000000000000005f82015250565b5f614206601483613a2d565b9150614211826141d2565b602082019050919050565b5f6020820190508181035f830152614233816141fa565b9050919050565b5f819050919050565b5f61425d6142586142538461423a565b613f18565b6138b3565b9050919050565b61426d81614243565b82525050565b5f60a0820190506142865f830188613a05565b6142936020830187613a05565b6142a06040830186613a05565b6142ad60608301856139dd565b6142ba6080830184614264565b9695505050505050565b5f5f604083850312156142da576142d9613816565b5b5f6142e785828601613c0a565b92505060206142f885828601613c0a565b9150509250929050565b5f6060820190506143155f830186613a05565b61432260208301856137bd565b61432f60408301846139dd565b949350505050565b5f60408201905061434a5f830185613a05565b61435760208301846139dd565b9392505050565b5f60a0820190506143715f830188613a05565b61437e6020830187613a05565b61438b6040830186613a05565b6143986060830185614264565b6143a560808301846139dd565b9695505050505050565b7f4241445f56414c49444154494f4e5f434f4c4c41544552414c000000000000005f82015250565b5f6143e3601983613a2d565b91506143ee826143af565b602082019050919050565b5f6020820190508181035f830152614410816143d7565b9050919050565b7f4241445f56414c49444154494f4e5f4d494d00000000000000000000000000005f82015250565b5f61444b601283613a2d565b915061445682614417565b602082019050919050565b5f6020820190508181035f8301526144788161443f565b9050919050565b5f60a0820190506144925f830188613a05565b61449f6020830187613a05565b6144ac6040830186613a05565b6144b960608301856139dd565b6144c660808301846139dd565b9695505050505050565b5f602082840312156144e5576144e4613816565b5b5f6144f284828501614020565b91505092915050565b7f494e49545f4e4f545f56554c4e455241424c45000000000000000000000000005f82015250565b5f61452f601383613a2d565b915061453a826144fb565b602082019050919050565b5f6020820190508181035f83015261455c81614523565b9050919050565b7f4e4f5f464c4153485f53495a45000000000000000000000000000000000000005f82015250565b5f614597600d83613a2d565b91506145a282614563565b602082019050919050565b5f6020820190508181035f8301526145c48161458b565b9050919050565b5f6fffffffffffffffffffffffffffffffff82169050919050565b6145ef816145cb565b81146145f9575f5ffd5b50565b5f8151905061460a816145e6565b92915050565b5f5f6040838503121561462657614625613816565b5b5f614633858286016145fc565b9250506020614644858286016145fc565b9150509250929050565b5f614658826145cb565b9150614663836145cb565b925082820390506fffffffffffffffffffffffffffffffff81111561468b5761468a613cf0565b5b92915050565b5f61469b826138b3565b91506146a6836138b3565b92508282026146b4816138b3565b915082820484148315176146cb576146ca613cf0565b5b5092915050565b7f4e487b71000000000000000000000000000000000000000000000000000000005f52601260045260245ffd5b5f614709826138b3565b9150614714836138b3565b925082614724576147236146d2565b5b828204905092915050565b5f819050919050565b5f61475261474d6147488461472f565b613f18565b6138b3565b9050919050565b61476281614738565b82525050565b5f60608201905061477b5f830186613a05565b6147886020830185614759565b61479560408301846137bd565b949350505050565b5f60ff82169050919050565b5f6147c36147be6147b98461423a565b613f18565b61479d565b9050919050565b6147d3816147a9565b82525050565b5f6040820190506147ec5f830185613a05565b6147f960208301846147ca565b9392505050565b5f6040820190506148135f830185613a05565b6148206020830184613a05565b9392505050565b5f60608201905061483a5f830186613a05565b61484760208301856139dd565b61485460408301846137bd565b949350505050565b5f614866826138b3565b9150614871836138b3565b925082820190508082111561488957614888613cf0565b5b92915050565b5f81905092915050565b5f6148a3826140b2565b6148ad818561488f565b93506148bd8185602086016140bc565b80840191505092915050565b5f6148d48284614899565b915081905092915050565b7f544f4b454e5f43414c4c5f4641494c45440000000000000000000000000000005f82015250565b5f614913601183613a2d565b915061491e826148df565b602082019050919050565b5f6020820190508181035f83015261494081614907565b905091905056fe6080604052348015600e575f5ffd5b506101fb8061001c5f395ff3fe608060405234801561000f575f5ffd5b5060043610610034575f3560e01c8063d6d7d52514610038578063eeb8a8d314610069575b5f5ffd5b610052600480360381019061004d9190610121565b61009a565b60405161006092919061019e565b60405180910390f35b610083600480360381019061007e9190610121565b6100a9565b60405161009192919061019e565b60405180910390f35b5f5f5f5f915091509250929050565b5f5f5f5f915091509250929050565b5f5ffd5b5f5ffd5b5f5ffd5b5f5ffd5b5f5ffd5b5f5f83601f8401126100e1576100e06100c0565b5b8235905067ffffffffffffffff8111156100fe576100fd6100c4565b5b60208301915083600182028301111561011a576101196100c8565b5b9250929050565b5f5f60208385031215610137576101366100b8565b5b5f83013567ffffffffffffffff811115610154576101536100bc565b5b610160858286016100cc565b92509250509250929050565b5f8115159050919050565b6101808161016c565b82525050565b5f819050919050565b61019881610186565b82525050565b5f6040820190506101b15f830185610177565b6101be602083018461018f565b939250505056fea26469706673582212208d588e7d11e0c01bc8b5248d13437133c724c4b8c02683e54cc27f304696448064736f6c634300081e0033610120604052348015610010575f5ffd5b50604051611e6a380380611e6a8339818101604052810190610032919061017a565b8473ffffffffffffffffffffffffffffffffffffffff1660808173ffffffffffffffffffffffffffffffffffffffff16815250508373ffffffffffffffffffffffffffffffffffffffff1660a08173ffffffffffffffffffffffffffffffffffffffff16815250508273ffffffffffffffffffffffffffffffffffffffff1660c08173ffffffffffffffffffffffffffffffffffffffff16815250508160e0818152505080610100818152505050505050506101f1565b5f5ffd5b5f73ffffffffffffffffffffffffffffffffffffffff82169050919050565b5f610116826100ed565b9050919050565b6101268161010c565b8114610130575f5ffd5b50565b5f815190506101418161011d565b92915050565b5f819050919050565b61015981610147565b8114610163575f5ffd5b50565b5f8151905061017481610150565b92915050565b5f5f5f5f5f60a08688031215610193576101926100e9565b5b5f6101a088828901610133565b95505060206101b188828901610133565b94505060406101c288828901610133565b93505060606101d388828901610166565b92505060806101e488828901610166565b9150509295509295909350565b60805160a05160c05160e05161010051611c046102665f395f81816104be015261085301525f81816108bb0152610c2601525f818161039001528181610738015261096c01525f818161062b0152818161082f015261088f01525f81816106f3015281816107fd01526108df0152611c045ff3fe608060405234801561000f575f5ffd5b506004361061011f575f3560e01c8063876467f8116100ab578063c57fed131161006f578063c57fed13146102fa578063c7ee2a7b14610316578063d8dfeb4514610334578063e1c7392a14610352578063ff6ff84b1461035c5761011f565b8063876467f8146102545780638770398c146102705780639b352ae11461028e578063aba024f4146102ac578063b1c43cbe146102ca5761011f565b80634b8a3529116100f25780634b8a3529146101ae5780636d75b9ee146101de57806374471361146101fa57806375587d3c146102185780637dc0d1d0146102365761011f565b806302ce728f14610123578063158ef93e146101425780633ba0b9a91461016057806348e4163e1461017e575b5f5ffd5b61012b61038c565b604051610139929190610f80565b60405180910390f35b61014a610448565b6040516101579190610fa7565b60405180910390f35b610168610459565b6040516101759190610fc0565b60405180910390f35b61019860048036038101906101939190611044565b61045f565b6040516101a59190610fc0565b60405180910390f35b6101c860048036038101906101c39190611099565b610474565b6040516101d59190610fc0565b60405180910390f35b6101f860048036038101906101f39190611099565b610659565b005b61020261071e565b60405161020f9190610fc0565b60405180910390f35b610220610724565b60405161022d9190610fa7565b60405180910390f35b61023e610736565b60405161024b9190611132565b60405180910390f35b61026e60048036038101906102699190611099565b61075a565b005b610278610827565b6040516102859190610fc0565b60405180910390f35b61029661082d565b6040516102a3919061115a565b60405180910390f35b6102b4610851565b6040516102c19190610fc0565b60405180910390f35b6102e460048036038101906102df9190611044565b610875565b6040516102f19190610fc0565b60405180910390f35b610314600480360381019061030f9190611173565b61088a565b005b61031e6108b9565b60405161032b9190610fc0565b60405180910390f35b61033c6108dd565b604051610349919061115a565b60405180910390f35b61035a610901565b005b61037660048036038101906103719190611499565b610a28565b6040516103839190610fc0565b60405180910390f35b5f5f7f000000000000000000000000000000000000000000000000000000000000000073ffffffffffffffffffffffffffffffffffffffff1663d6d7d5256040518163ffffffff1660e01b81526004016103e590611597565b60408051808303815f875af1158015610400573d5f5f3e3d5ffd5b505050506040513d601f19601f8201168201806040525081019061042491906115f3565b8092508193505050811561043e5780600181905550610444565b60015490505b9091565b5f5f9054906101000a900460ff1681565b60015481565b6004602052805f5260405f205f915090505481565b5f5f82036104b7576040517f08c379a00000000000000000000000000000000000000000000000000000000081526004016104ae9061168b565b60405180910390fd5b5f620186a07f0000000000000000000000000000000000000000000000000000000000000000846104e891906116d6565b6104f29190611744565b90505f81846105019190611774565b90505f600254148061051457505f600354145b1561052157809250610558565b60025460016002546003548461053791906116d6565b6105419190611774565b61054b91906117a7565b6105559190611744565b92505b8060025f8282546105699190611774565b925050819055508260035f8282546105819190611774565b925050819055508260045f3373ffffffffffffffffffffffffffffffffffffffff1673ffffffffffffffffffffffffffffffffffffffff1681526020019081526020015f205f8282546105d49190611774565b925050819055506105e733600154610b7e565b610626576040517f08c379a000000000000000000000000000000000000000000000000000000000815260040161061d90611824565b60405180910390fd5b6106517f00000000000000000000000000000000000000000000000000000000000000008686610cad565b505092915050565b5f810361069b576040517f08c379a00000000000000000000000000000000000000000000000000000000081526004016106929061188c565b60405180910390fd5b8060055f8473ffffffffffffffffffffffffffffffffffffffff1673ffffffffffffffffffffffffffffffffffffffff1681526020019081526020015f205f8282546106e79190611774565b9250508190555061071a7f0000000000000000000000000000000000000000000000000000000000000000333084610dfc565b5050565b60035481565b5f60019054906101000a900460ff1681565b7f000000000000000000000000000000000000000000000000000000000000000081565b8060055f3373ffffffffffffffffffffffffffffffffffffffff1673ffffffffffffffffffffffffffffffffffffffff1681526020019081526020015f205f8282546107a691906117a7565b925050819055506107b933600154610b7e565b6107f8576040517f08c379a00000000000000000000000000000000000000000000000000000000081526004016107ef906118f4565b60405180910390fd5b6108237f00000000000000000000000000000000000000000000000000000000000000008383610cad565b5050565b60025481565b7f000000000000000000000000000000000000000000000000000000000000000081565b7f000000000000000000000000000000000000000000000000000000000000000081565b6005602052805f5260405f205f915090505481565b6108b67f0000000000000000000000000000000000000000000000000000000000000000333084610dfc565b50565b7f000000000000000000000000000000000000000000000000000000000000000081565b7f000000000000000000000000000000000000000000000000000000000000000081565b5f5f9054906101000a900460ff161561094f576040517f08c379a00000000000000000000000000000000000000000000000000000000081526004016109469061195c565b60405180910390fd5b60015f5f6101000a81548160ff0219169083151502179055505f5f7f000000000000000000000000000000000000000000000000000000000000000073ffffffffffffffffffffffffffffffffffffffff1663d6d7d5256040518163ffffffff1660e01b81526004016109c190611597565b60408051808303815f875af11580156109dc573d5f5f3e3d5ffd5b505050506040513d601f19601f82011682018060405250810190610a0091906115f3565b91509150815f60016101000a81548160ff021916908315150217905550806001819055505050565b5f5f610a3261038c565b9150505f5f90505b8751811015610b31575f60045f8a8481518110610a5a57610a5961197a565b5b602002602001015173ffffffffffffffffffffffffffffffffffffffff1673ffffffffffffffffffffffffffffffffffffffff1681526020019081526020015f2054905080888381518110610ab257610ab161197a565b5b60200260200101511015610ade57878281518110610ad357610ad261197a565b5b602002602001015190505b5f8114158015610b0f5750610b0d898381518110610aff57610afe61197a565b5b602002602001015184610b7e565b155b15610b23578084610b209190611774565b93505b508080600101915050610a3a565b505f8203610b74576040517f08c379a0000000000000000000000000000000000000000000000000000000008152600401610b6b906119f1565b60405180910390fd5b5095945050505050565b5f5f60045f8573ffffffffffffffffffffffffffffffffffffffff1673ffffffffffffffffffffffffffffffffffffffff1681526020019081526020015f205490505f8103610bd1576001915050610ca7565b5f60055f8673ffffffffffffffffffffffffffffffffffffffff1673ffffffffffffffffffffffffffffffffffffffff1681526020019081526020015f205490505f8103610c23575f92505050610ca7565b5f7f0000000000000000000000000000000000000000000000000000000000000000620186a0670de0b6b3a764000084610c5d91906116d6565b610c679190611744565b610c7191906116d6565b90505f6003548660025486610c8691906116d6565b610c9091906116d6565b610c9a9190611744565b9050808210159450505050505b92915050565b5f5f8473ffffffffffffffffffffffffffffffffffffffff1663a9059cbb60e01b8585604051602401610ce1929190611a0f565b604051602081830303815290604052907bffffffffffffffffffffffffffffffffffffffffffffffffffffffff19166020820180517bffffffffffffffffffffffffffffffffffffffffffffffffffffffff8381831617835250505050604051610d4b9190611a88565b5f604051808303815f865af19150503d805f8114610d84576040519150601f19603f3d011682016040523d82523d5f602084013e610d89565b606091505b5091509150818015610db657505f81511480610db5575080806020019051810190610db49190611a9e565b5b5b610df5576040517f08c379a0000000000000000000000000000000000000000000000000000000008152600401610dec90611b13565b60405180910390fd5b5050505050565b5f5f8573ffffffffffffffffffffffffffffffffffffffff166323b872dd60e01b868686604051602401610e3293929190611b31565b604051602081830303815290604052907bffffffffffffffffffffffffffffffffffffffffffffffffffffffff19166020820180517bffffffffffffffffffffffffffffffffffffffffffffffffffffffff8381831617835250505050604051610e9c9190611a88565b5f604051808303815f865af19150503d805f8114610ed5576040519150601f19603f3d011682016040523d82523d5f602084013e610eda565b606091505b5091509150818015610f0757505f81511480610f06575080806020019051810190610f059190611a9e565b5b5b610f46576040517f08c379a0000000000000000000000000000000000000000000000000000000008152600401610f3d90611bb0565b60405180910390fd5b505050505050565b5f8115159050919050565b610f6281610f4e565b82525050565b5f819050919050565b610f7a81610f68565b82525050565b5f604082019050610f935f830185610f59565b610fa06020830184610f71565b9392505050565b5f602082019050610fba5f830184610f59565b92915050565b5f602082019050610fd35f830184610f71565b92915050565b5f604051905090565b5f5ffd5b5f5ffd5b5f73ffffffffffffffffffffffffffffffffffffffff82169050919050565b5f61101382610fea565b9050919050565b61102381611009565b811461102d575f5ffd5b50565b5f8135905061103e8161101a565b92915050565b5f6020828403121561105957611058610fe2565b5b5f61106684828501611030565b91505092915050565b61107881610f68565b8114611082575f5ffd5b50565b5f813590506110938161106f565b92915050565b5f5f604083850312156110af576110ae610fe2565b5b5f6110bc85828601611030565b92505060206110cd85828601611085565b9150509250929050565b5f819050919050565b5f6110fa6110f56110f084610fea565b6110d7565b610fea565b9050919050565b5f61110b826110e0565b9050919050565b5f61111c82611101565b9050919050565b61112c81611112565b82525050565b5f6020820190506111455f830184611123565b92915050565b61115481611009565b82525050565b5f60208201905061116d5f83018461114b565b92915050565b5f6020828403121561118857611187610fe2565b5b5f61119584828501611085565b91505092915050565b5f5ffd5b5f601f19601f8301169050919050565b7f4e487b71000000000000000000000000000000000000000000000000000000005f52604160045260245ffd5b6111e8826111a2565b810181811067ffffffffffffffff82111715611207576112066111b2565b5b80604052505050565b5f611219610fd9565b905061122582826111df565b919050565b5f67ffffffffffffffff821115611244576112436111b2565b5b602082029050602081019050919050565b5f5ffd5b5f61126b6112668461122a565b611210565b9050808382526020820190506020840283018581111561128e5761128d611255565b5b835b818110156112b757806112a38882611030565b845260208401935050602081019050611290565b5050509392505050565b5f82601f8301126112d5576112d461119e565b5b81356112e5848260208601611259565b91505092915050565b5f67ffffffffffffffff821115611308576113076111b2565b5b602082029050602081019050919050565b5f61132b611326846112ee565b611210565b9050808382526020820190506020840283018581111561134e5761134d611255565b5b835b8181101561137757806113638882611085565b845260208401935050602081019050611350565b5050509392505050565b5f82601f8301126113955761139461119e565b5b81356113a5848260208601611319565b91505092915050565b5f6113b882611009565b9050919050565b6113c8816113ae565b81146113d2575f5ffd5b50565b5f813590506113e3816113bf565b92915050565b5f5ffd5b5f67ffffffffffffffff821115611407576114066111b2565b5b611410826111a2565b9050602081019050919050565b828183375f83830152505050565b5f61143d611438846113ed565b611210565b905082815260208101848484011115611459576114586113e9565b5b61146484828561141d565b509392505050565b5f82601f8301126114805761147f61119e565b5b813561149084826020860161142b565b91505092915050565b5f5f5f5f5f60a086880312156114b2576114b1610fe2565b5b5f86013567ffffffffffffffff8111156114cf576114ce610fe6565b5b6114db888289016112c1565b955050602086013567ffffffffffffffff8111156114fc576114fb610fe6565b5b61150888828901611381565b945050604061151988828901611030565b935050606061152a888289016113d5565b925050608086013567ffffffffffffffff81111561154b5761154a610fe6565b5b6115578882890161146c565b9150509295509295909350565b5f82825260208201905092915050565b50565b5f6115825f83611564565b915061158d82611574565b5f82019050919050565b5f6020820190508181035f8301526115ae81611577565b9050919050565b6115be81610f4e565b81146115c8575f5ffd5b50565b5f815190506115d9816115b5565b92915050565b5f815190506115ed8161106f565b92915050565b5f5f6040838503121561160957611608610fe2565b5b5f611616858286016115cb565b9250506020611627858286016115df565b9150509250929050565b5f82825260208201905092915050565b7f4e4f5f424f52524f5700000000000000000000000000000000000000000000005f82015250565b5f611675600983611631565b915061168082611641565b602082019050919050565b5f6020820190508181035f8301526116a281611669565b9050919050565b7f4e487b71000000000000000000000000000000000000000000000000000000005f52601160045260245ffd5b5f6116e082610f68565b91506116eb83610f68565b92508282026116f981610f68565b915082820484148315176117105761170f6116a9565b5b5092915050565b7f4e487b71000000000000000000000000000000000000000000000000000000005f52601260045260245ffd5b5f61174e82610f68565b915061175983610f68565b92508261176957611768611717565b5b828204905092915050565b5f61177e82610f68565b915061178983610f68565b92508282019050808211156117a1576117a06116a9565b5b92915050565b5f6117b182610f68565b91506117bc83610f68565b92508282039050818111156117d4576117d36116a9565b5b92915050565b7f494e534f4c56454e545f41465445525f424f52524f57000000000000000000005f82015250565b5f61180e601683611631565b9150611819826117da565b602082019050919050565b5f6020820190508181035f83015261183b81611802565b9050919050565b7f4e4f5f434f4c4c41544552414c000000000000000000000000000000000000005f82015250565b5f611876600d83611631565b915061188182611842565b602082019050919050565b5f6020820190508181035f8301526118a38161186a565b9050919050565b7f494e534f4c56454e545f41465445525f574954484452415700000000000000005f82015250565b5f6118de601883611631565b91506118e9826118aa565b602082019050919050565b5f6020820190508181035f83015261190b816118d2565b9050919050565b7f414c52454144595f494e495449414c495a4544000000000000000000000000005f82015250565b5f611946601383611631565b915061195182611912565b602082019050919050565b5f6020820190508181035f8301526119738161193a565b9050919050565b7f4e487b71000000000000000000000000000000000000000000000000000000005f52603260045260245ffd5b7f4361756c64726f6e3a20616c6c2061726520736f6c76656e74000000000000005f82015250565b5f6119db601983611631565b91506119e6826119a7565b602082019050919050565b5f6020820190508181035f830152611a08816119cf565b9050919050565b5f604082019050611a225f83018561114b565b611a2f6020830184610f71565b9392505050565b5f81519050919050565b5f81905092915050565b8281835e5f83830152505050565b5f611a6282611a36565b611a6c8185611a40565b9350611a7c818560208601611a4a565b80840191505092915050565b5f611a938284611a58565b915081905092915050565b5f60208284031215611ab357611ab2610fe2565b5b5f611ac0848285016115cb565b91505092915050565b7f5452414e534645525f4641494c454400000000000000000000000000000000005f82015250565b5f611afd600f83611631565b9150611b0882611ac9565b602082019050919050565b5f6020820190508181035f830152611b2a81611af1565b9050919050565b5f606082019050611b445f83018661114b565b611b51602083018561114b565b611b5e6040830184610f71565b949350505050565b7f5452414e534645525f46524f4d5f4641494c45440000000000000000000000005f82015250565b5f611b9a601483611631565b9150611ba582611b66565b602082019050919050565b5f6020820190508181035f830152611bc781611b8e565b905091905056fea26469706673582212208e2a0d53d88d89edccb7a92f0ed58e276d751c9a491cc3d5a13495a93203e14a64736f6c634300081e0033a2646970667358221220e3d082dd52363787e8a16fbb0747ee079f33ea715844865d54459d6308b52a4664736f6c634300081e0033","linkReferences":{}},"methodIdentifiers":{"MIM()":"daec383d","TARGET_CAULDRON()":"bd7a598c","attemptLiveTarget()":"072d5e47","attemptValidationPath()":"3a634811","bentoBox()":"6b2ace87","borrowSucceeded()":"c5d948e7","collateralToken()":"b2016bd4","collateralWithdrawalSucceeded()":"89d6ac76","executeOnOpportunity()":"3c2448ed","hypothesisRefuted()":"495f92f1","hypothesisValidated()":"463defd1","initAcceptedFailedOracleRead()":"c5bd196f","liquidationBlocked()":"b7021f77","liveTargetAttempted()":"00a4c064","liveTargetCachedZeroObserved()":"4f8d51ce","liveTargetInitializationStageInfeasible()":"4686aeb0","liveTargetProfitable()":"86e8a1a2","onFlashLoan(address,address,uint256,uint256,bytes)":"23e30c8b","probeLiveLiquidation()":"f10a3d81","probeValidationLiquidation()":"93a79709","profitAmount()":"5ff972cc","profitToken()":"49343624","status()":"200d2ed2","validationCauldron()":"86316ffb","validationOracle()":"983dae11","validationPathExecuted()":"3b04a8c9"},"id":0}