{"abi":[{"type":"constructor","inputs":[{"name":"collateral_","type":"address","internalType":"address"},{"name":"mim_","type":"address","internalType":"address"},{"name":"oracle_","type":"address","internalType":"address"},{"name":"collaterizationRate_","type":"uint256","internalType":"uint256"},{"name":"borrowOpeningFee_","type":"uint256","internalType":"uint256"}],"stateMutability":"nonpayable"},{"type":"function","name":"BORROW_OPENING_FEE","inputs":[],"outputs":[{"name":"","type":"uint256","internalType":"uint256"}],"stateMutability":"view"},{"type":"function","name":"COLLATERIZATION_RATE","inputs":[],"outputs":[{"name":"","type":"uint256","internalType":"uint256"}],"stateMutability":"view"},{"type":"function","name":"addCollateral","inputs":[{"name":"to","type":"address","internalType":"address"},{"name":"amount","type":"uint256","internalType":"uint256"}],"outputs":[],"stateMutability":"nonpayable"},{"type":"function","name":"borrow","inputs":[{"name":"to","type":"address","internalType":"address"},{"name":"amount","type":"uint256","internalType":"uint256"}],"outputs":[{"name":"part","type":"uint256","internalType":"uint256"}],"stateMutability":"nonpayable"},{"type":"function","name":"collateral","inputs":[],"outputs":[{"name":"","type":"address","internalType":"address"}],"stateMutability":"view"},{"type":"function","name":"exchangeRate","inputs":[],"outputs":[{"name":"","type":"uint256","internalType":"uint256"}],"stateMutability":"view"},{"type":"function","name":"init","inputs":[],"outputs":[],"stateMutability":"nonpayable"},{"type":"function","name":"initOracleSuccess","inputs":[],"outputs":[{"name":"","type":"bool","internalType":"bool"}],"stateMutability":"view"},{"type":"function","name":"initialized","inputs":[],"outputs":[{"name":"","type":"bool","internalType":"bool"}],"stateMutability":"view"},{"type":"function","name":"liquidate","inputs":[{"name":"users","type":"address[]","internalType":"address[]"},{"name":"maxBorrowParts","type":"uint256[]","internalType":"uint256[]"},{"name":"","type":"address","internalType":"address"},{"name":"","type":"address","internalType":"contract ISwapperV2Like"},{"name":"","type":"bytes","internalType":"bytes"}],"outputs":[{"name":"liquidated","type":"uint256","internalType":"uint256"}],"stateMutability":"nonpayable"},{"type":"function","name":"magicInternetMoney","inputs":[],"outputs":[{"name":"","type":"address","internalType":"address"}],"stateMutability":"view"},{"type":"function","name":"oracle","inputs":[],"outputs":[{"name":"","type":"address","internalType":"contract IOracleLike"}],"stateMutability":"view"},{"type":"function","name":"removeCollateral","inputs":[{"name":"to","type":"address","internalType":"address"},{"name":"amount","type":"uint256","internalType":"uint256"}],"outputs":[],"stateMutability":"nonpayable"},{"type":"function","name":"seedLiquidity","inputs":[{"name":"amount","type":"uint256","internalType":"uint256"}],"outputs":[],"stateMutability":"nonpayable"},{"type":"function","name":"totalBorrowBase","inputs":[],"outputs":[{"name":"","type":"uint256","internalType":"uint256"}],"stateMutability":"view"},{"type":"function","name":"totalBorrowElastic","inputs":[],"outputs":[{"name":"","type":"uint256","internalType":"uint256"}],"stateMutability":"view"},{"type":"function","name":"updateExchangeRate","inputs":[],"outputs":[{"name":"updated","type":"bool","internalType":"bool"},{"name":"rate","type":"uint256","internalType":"uint256"}],"stateMutability":"nonpayable"},{"type":"function","name":"userBorrowPart","inputs":[{"name":"","type":"address","internalType":"address"}],"outputs":[{"name":"","type":"uint256","internalType":"uint256"}],"stateMutability":"view"},{"type":"function","name":"userCollateralAmount","inputs":[{"name":"","type":"address","internalType":"address"}],"outputs":[{"name":"","type":"uint256","internalType":"uint256"}],"stateMutability":"view"}],"bytecode":{"object":"0x610120604052348015610010575f5ffd5b50604051611e6a380380611e6a8339818101604052810190610032919061017a565b8473ffffffffffffffffffffffffffffffffffffffff1660808173ffffffffffffffffffffffffffffffffffffffff16815250508373ffffffffffffffffffffffffffffffffffffffff1660a08173ffffffffffffffffffffffffffffffffffffffff16815250508273ffffffffffffffffffffffffffffffffffffffff1660c08173ffffffffffffffffffffffffffffffffffffffff16815250508160e0818152505080610100818152505050505050506101f1565b5f5ffd5b5f73ffffffffffffffffffffffffffffffffffffffff82169050919050565b5f610116826100ed565b9050919050565b6101268161010c565b8114610130575f5ffd5b50565b5f815190506101418161011d565b92915050565b5f819050919050565b61015981610147565b8114610163575f5ffd5b50565b5f8151905061017481610150565b92915050565b5f5f5f5f5f60a08688031215610193576101926100e9565b5b5f6101a088828901610133565b95505060206101b188828901610133565b94505060406101c288828901610133565b93505060606101d388828901610166565b92505060806101e488828901610166565b9150509295509295909350565b60805160a05160c05160e05161010051611c046102665f395f81816104be015261085301525f81816108bb0152610c2601525f818161039001528181610738015261096c01525f818161062b0152818161082f015261088f01525f81816106f3015281816107fd01526108df0152611c045ff3fe608060405234801561000f575f5ffd5b506004361061011f575f3560e01c8063876467f8116100ab578063c57fed131161006f578063c57fed13146102fa578063c7ee2a7b14610316578063d8dfeb4514610334578063e1c7392a14610352578063ff6ff84b1461035c5761011f565b8063876467f8146102545780638770398c146102705780639b352ae11461028e578063aba024f4146102ac578063b1c43cbe146102ca5761011f565b80634b8a3529116100f25780634b8a3529146101ae5780636d75b9ee146101de57806374471361146101fa57806375587d3c146102185780637dc0d1d0146102365761011f565b806302ce728f14610123578063158ef93e146101425780633ba0b9a91461016057806348e4163e1461017e575b5f5ffd5b61012b61038c565b604051610139929190610f80565b60405180910390f35b61014a610448565b6040516101579190610fa7565b60405180910390f35b610168610459565b6040516101759190610fc0565b60405180910390f35b61019860048036038101906101939190611044565b61045f565b6040516101a59190610fc0565b60405180910390f35b6101c860048036038101906101c39190611099565b610474565b6040516101d59190610fc0565b60405180910390f35b6101f860048036038101906101f39190611099565b610659565b005b61020261071e565b60405161020f9190610fc0565b60405180910390f35b610220610724565b60405161022d9190610fa7565b60405180910390f35b61023e610736565b60405161024b9190611132565b60405180910390f35b61026e60048036038101906102699190611099565b61075a565b005b610278610827565b6040516102859190610fc0565b60405180910390f35b61029661082d565b6040516102a3919061115a565b60405180910390f35b6102b4610851565b6040516102c19190610fc0565b60405180910390f35b6102e460048036038101906102df9190611044565b610875565b6040516102f19190610fc0565b60405180910390f35b610314600480360381019061030f9190611173565b61088a565b005b61031e6108b9565b60405161032b9190610fc0565b60405180910390f35b61033c6108dd565b604051610349919061115a565b60405180910390f35b61035a610901565b005b61037660048036038101906103719190611499565b610a28565b6040516103839190610fc0565b60405180910390f35b5f5f7f000000000000000000000000000000000000000000000000000000000000000073ffffffffffffffffffffffffffffffffffffffff1663d6d7d5256040518163ffffffff1660e01b81526004016103e590611597565b60408051808303815f875af1158015610400573d5f5f3e3d5ffd5b505050506040513d601f19601f8201168201806040525081019061042491906115f3565b8092508193505050811561043e5780600181905550610444565b60015490505b9091565b5f5f9054906101000a900460ff1681565b60015481565b6004602052805f5260405f205f915090505481565b5f5f82036104b7576040517f08c379a00000000000000000000000000000000000000000000000000000000081526004016104ae9061168b565b60405180910390fd5b5f620186a07f0000000000000000000000000000000000000000000000000000000000000000846104e891906116d6565b6104f29190611744565b90505f81846105019190611774565b90505f600254148061051457505f600354145b1561052157809250610558565b60025460016002546003548461053791906116d6565b6105419190611774565b61054b91906117a7565b6105559190611744565b92505b8060025f8282546105699190611774565b925050819055508260035f8282546105819190611774565b925050819055508260045f3373ffffffffffffffffffffffffffffffffffffffff1673ffffffffffffffffffffffffffffffffffffffff1681526020019081526020015f205f8282546105d49190611774565b925050819055506105e733600154610b7e565b610626576040517f08c379a000000000000000000000000000000000000000000000000000000000815260040161061d90611824565b60405180910390fd5b6106517f00000000000000000000000000000000000000000000000000000000000000008686610cad565b505092915050565b5f810361069b576040517f08c379a00000000000000000000000000000000000000000000000000000000081526004016106929061188c565b60405180910390fd5b8060055f8473ffffffffffffffffffffffffffffffffffffffff1673ffffffffffffffffffffffffffffffffffffffff1681526020019081526020015f205f8282546106e79190611774565b9250508190555061071a7f0000000000000000000000000000000000000000000000000000000000000000333084610dfc565b5050565b60035481565b5f60019054906101000a900460ff1681565b7f000000000000000000000000000000000000000000000000000000000000000081565b8060055f3373ffffffffffffffffffffffffffffffffffffffff1673ffffffffffffffffffffffffffffffffffffffff1681526020019081526020015f205f8282546107a691906117a7565b925050819055506107b933600154610b7e565b6107f8576040517f08c379a00000000000000000000000000000000000000000000000000000000081526004016107ef906118f4565b60405180910390fd5b6108237f00000000000000000000000000000000000000000000000000000000000000008383610cad565b5050565b60025481565b7f000000000000000000000000000000000000000000000000000000000000000081565b7f000000000000000000000000000000000000000000000000000000000000000081565b6005602052805f5260405f205f915090505481565b6108b67f0000000000000000000000000000000000000000000000000000000000000000333084610dfc565b50565b7f000000000000000000000000000000000000000000000000000000000000000081565b7f000000000000000000000000000000000000000000000000000000000000000081565b5f5f9054906101000a900460ff161561094f576040517f08c379a00000000000000000000000000000000000000000000000000000000081526004016109469061195c565b60405180910390fd5b60015f5f6101000a81548160ff0219169083151502179055505f5f7f000000000000000000000000000000000000000000000000000000000000000073ffffffffffffffffffffffffffffffffffffffff1663d6d7d5256040518163ffffffff1660e01b81526004016109c190611597565b60408051808303815f875af11580156109dc573d5f5f3e3d5ffd5b505050506040513d601f19601f82011682018060405250810190610a0091906115f3565b91509150815f60016101000a81548160ff021916908315150217905550806001819055505050565b5f5f610a3261038c565b9150505f5f90505b8751811015610b31575f60045f8a8481518110610a5a57610a5961197a565b5b602002602001015173ffffffffffffffffffffffffffffffffffffffff1673ffffffffffffffffffffffffffffffffffffffff1681526020019081526020015f2054905080888381518110610ab257610ab161197a565b5b60200260200101511015610ade57878281518110610ad357610ad261197a565b5b602002602001015190505b5f8114158015610b0f5750610b0d898381518110610aff57610afe61197a565b5b602002602001015184610b7e565b155b15610b23578084610b209190611774565b93505b508080600101915050610a3a565b505f8203610b74576040517f08c379a0000000000000000000000000000000000000000000000000000000008152600401610b6b906119f1565b60405180910390fd5b5095945050505050565b5f5f60045f8573ffffffffffffffffffffffffffffffffffffffff1673ffffffffffffffffffffffffffffffffffffffff1681526020019081526020015f205490505f8103610bd1576001915050610ca7565b5f60055f8673ffffffffffffffffffffffffffffffffffffffff1673ffffffffffffffffffffffffffffffffffffffff1681526020019081526020015f205490505f8103610c23575f92505050610ca7565b5f7f0000000000000000000000000000000000000000000000000000000000000000620186a0670de0b6b3a764000084610c5d91906116d6565b610c679190611744565b610c7191906116d6565b90505f6003548660025486610c8691906116d6565b610c9091906116d6565b610c9a9190611744565b9050808210159450505050505b92915050565b5f5f8473ffffffffffffffffffffffffffffffffffffffff1663a9059cbb60e01b8585604051602401610ce1929190611a0f565b604051602081830303815290604052907bffffffffffffffffffffffffffffffffffffffffffffffffffffffff19166020820180517bffffffffffffffffffffffffffffffffffffffffffffffffffffffff8381831617835250505050604051610d4b9190611a88565b5f604051808303815f865af19150503d805f8114610d84576040519150601f19603f3d011682016040523d82523d5f602084013e610d89565b606091505b5091509150818015610db657505f81511480610db5575080806020019051810190610db49190611a9e565b5b5b610df5576040517f08c379a0000000000000000000000000000000000000000000000000000000008152600401610dec90611b13565b60405180910390fd5b5050505050565b5f5f8573ffffffffffffffffffffffffffffffffffffffff166323b872dd60e01b868686604051602401610e3293929190611b31565b604051602081830303815290604052907bffffffffffffffffffffffffffffffffffffffffffffffffffffffff19166020820180517bffffffffffffffffffffffffffffffffffffffffffffffffffffffff8381831617835250505050604051610e9c9190611a88565b5f604051808303815f865af19150503d805f8114610ed5576040519150601f19603f3d011682016040523d82523d5f602084013e610eda565b606091505b5091509150818015610f0757505f81511480610f06575080806020019051810190610f059190611a9e565b5b5b610f46576040517f08c379a0000000000000000000000000000000000000000000000000000000008152600401610f3d90611bb0565b60405180910390fd5b505050505050565b5f8115159050919050565b610f6281610f4e565b82525050565b5f819050919050565b610f7a81610f68565b82525050565b5f604082019050610f935f830185610f59565b610fa06020830184610f71565b9392505050565b5f602082019050610fba5f830184610f59565b92915050565b5f602082019050610fd35f830184610f71565b92915050565b5f604051905090565b5f5ffd5b5f5ffd5b5f73ffffffffffffffffffffffffffffffffffffffff82169050919050565b5f61101382610fea565b9050919050565b61102381611009565b811461102d575f5ffd5b50565b5f8135905061103e8161101a565b92915050565b5f6020828403121561105957611058610fe2565b5b5f61106684828501611030565b91505092915050565b61107881610f68565b8114611082575f5ffd5b50565b5f813590506110938161106f565b92915050565b5f5f604083850312156110af576110ae610fe2565b5b5f6110bc85828601611030565b92505060206110cd85828601611085565b9150509250929050565b5f819050919050565b5f6110fa6110f56110f084610fea565b6110d7565b610fea565b9050919050565b5f61110b826110e0565b9050919050565b5f61111c82611101565b9050919050565b61112c81611112565b82525050565b5f6020820190506111455f830184611123565b92915050565b61115481611009565b82525050565b5f60208201905061116d5f83018461114b565b92915050565b5f6020828403121561118857611187610fe2565b5b5f61119584828501611085565b91505092915050565b5f5ffd5b5f601f19601f8301169050919050565b7f4e487b71000000000000000000000000000000000000000000000000000000005f52604160045260245ffd5b6111e8826111a2565b810181811067ffffffffffffffff82111715611207576112066111b2565b5b80604052505050565b5f611219610fd9565b905061122582826111df565b919050565b5f67ffffffffffffffff821115611244576112436111b2565b5b602082029050602081019050919050565b5f5ffd5b5f61126b6112668461122a565b611210565b9050808382526020820190506020840283018581111561128e5761128d611255565b5b835b818110156112b757806112a38882611030565b845260208401935050602081019050611290565b5050509392505050565b5f82601f8301126112d5576112d461119e565b5b81356112e5848260208601611259565b91505092915050565b5f67ffffffffffffffff821115611308576113076111b2565b5b602082029050602081019050919050565b5f61132b611326846112ee565b611210565b9050808382526020820190506020840283018581111561134e5761134d611255565b5b835b8181101561137757806113638882611085565b845260208401935050602081019050611350565b5050509392505050565b5f82601f8301126113955761139461119e565b5b81356113a5848260208601611319565b91505092915050565b5f6113b882611009565b9050919050565b6113c8816113ae565b81146113d2575f5ffd5b50565b5f813590506113e3816113bf565b92915050565b5f5ffd5b5f67ffffffffffffffff821115611407576114066111b2565b5b611410826111a2565b9050602081019050919050565b828183375f83830152505050565b5f61143d611438846113ed565b611210565b905082815260208101848484011115611459576114586113e9565b5b61146484828561141d565b509392505050565b5f82601f8301126114805761147f61119e565b5b813561149084826020860161142b565b91505092915050565b5f5f5f5f5f60a086880312156114b2576114b1610fe2565b5b5f86013567ffffffffffffffff8111156114cf576114ce610fe6565b5b6114db888289016112c1565b955050602086013567ffffffffffffffff8111156114fc576114fb610fe6565b5b61150888828901611381565b945050604061151988828901611030565b935050606061152a888289016113d5565b925050608086013567ffffffffffffffff81111561154b5761154a610fe6565b5b6115578882890161146c565b9150509295509295909350565b5f82825260208201905092915050565b50565b5f6115825f83611564565b915061158d82611574565b5f82019050919050565b5f6020820190508181035f8301526115ae81611577565b9050919050565b6115be81610f4e565b81146115c8575f5ffd5b50565b5f815190506115d9816115b5565b92915050565b5f815190506115ed8161106f565b92915050565b5f5f6040838503121561160957611608610fe2565b5b5f611616858286016115cb565b9250506020611627858286016115df565b9150509250929050565b5f82825260208201905092915050565b7f4e4f5f424f52524f5700000000000000000000000000000000000000000000005f82015250565b5f611675600983611631565b915061168082611641565b602082019050919050565b5f6020820190508181035f8301526116a281611669565b9050919050565b7f4e487b71000000000000000000000000000000000000000000000000000000005f52601160045260245ffd5b5f6116e082610f68565b91506116eb83610f68565b92508282026116f981610f68565b915082820484148315176117105761170f6116a9565b5b5092915050565b7f4e487b71000000000000000000000000000000000000000000000000000000005f52601260045260245ffd5b5f61174e82610f68565b915061175983610f68565b92508261176957611768611717565b5b828204905092915050565b5f61177e82610f68565b915061178983610f68565b92508282019050808211156117a1576117a06116a9565b5b92915050565b5f6117b182610f68565b91506117bc83610f68565b92508282039050818111156117d4576117d36116a9565b5b92915050565b7f494e534f4c56454e545f41465445525f424f52524f57000000000000000000005f82015250565b5f61180e601683611631565b9150611819826117da565b602082019050919050565b5f6020820190508181035f83015261183b81611802565b9050919050565b7f4e4f5f434f4c4c41544552414c000000000000000000000000000000000000005f82015250565b5f611876600d83611631565b915061188182611842565b602082019050919050565b5f6020820190508181035f8301526118a38161186a565b9050919050565b7f494e534f4c56454e545f41465445525f574954484452415700000000000000005f82015250565b5f6118de601883611631565b91506118e9826118aa565b602082019050919050565b5f6020820190508181035f83015261190b816118d2565b9050919050565b7f414c52454144595f494e495449414c495a4544000000000000000000000000005f82015250565b5f611946601383611631565b915061195182611912565b602082019050919050565b5f6020820190508181035f8301526119738161193a565b9050919050565b7f4e487b71000000000000000000000000000000000000000000000000000000005f52603260045260245ffd5b7f4361756c64726f6e3a20616c6c2061726520736f6c76656e74000000000000005f82015250565b5f6119db601983611631565b91506119e6826119a7565b602082019050919050565b5f6020820190508181035f830152611a08816119cf565b9050919050565b5f604082019050611a225f83018561114b565b611a2f6020830184610f71565b9392505050565b5f81519050919050565b5f81905092915050565b8281835e5f83830152505050565b5f611a6282611a36565b611a6c8185611a40565b9350611a7c818560208601611a4a565b80840191505092915050565b5f611a938284611a58565b915081905092915050565b5f60208284031215611ab357611ab2610fe2565b5b5f611ac0848285016115cb565b91505092915050565b7f5452414e534645525f4641494c454400000000000000000000000000000000005f82015250565b5f611afd600f83611631565b9150611b0882611ac9565b602082019050919050565b5f6020820190508181035f830152611b2a81611af1565b9050919050565b5f606082019050611b445f83018661114b565b611b51602083018561114b565b611b5e6040830184610f71565b949350505050565b7f5452414e534645525f46524f4d5f4641494c45440000000000000000000000005f82015250565b5f611b9a601483611631565b9150611ba582611b66565b602082019050919050565b5f6020820190508181035f830152611bc781611b8e565b905091905056fea26469706673582212208e2a0d53d88d89edccb7a92f0ed58e276d751c9a491cc3d5a13495a93203e14a64736f6c634300081e0033","linkReferences":{}},"methodIdentifiers":{"BORROW_OPENING_FEE()":"aba024f4","COLLATERIZATION_RATE()":"c7ee2a7b","addCollateral(address,uint256)":"6d75b9ee","borrow(address,uint256)":"4b8a3529","collateral()":"d8dfeb45","exchangeRate()":"3ba0b9a9","init()":"e1c7392a","initOracleSuccess()":"75587d3c","initialized()":"158ef93e","liquidate(address[],uint256[],address,address,bytes)":"ff6ff84b","magicInternetMoney()":"9b352ae1","oracle()":"7dc0d1d0","removeCollateral(address,uint256)":"876467f8","seedLiquidity(uint256)":"c57fed13","totalBorrowBase()":"74471361","totalBorrowElastic()":"8770398c","updateExchangeRate()":"02ce728f","userBorrowPart(address)":"48e4163e","userCollateralAmount(address)":"b1c43cbe"},"id":0}