{"abi":[{"type":"constructor","inputs":[],"stateMutability":"nonpayable"},{"type":"function","name":"TARGET","inputs":[],"outputs":[{"name":"","type":"address","internalType":"address"}],"stateMutability":"view"},{"type":"function","name":"UNISWAP_V2_ROUTER","inputs":[],"outputs":[{"name":"","type":"address","internalType":"address"}],"stateMutability":"view"},{"type":"function","name":"USDT","inputs":[],"outputs":[{"name":"","type":"address","internalType":"address"}],"stateMutability":"view"},{"type":"function","name":"WETH","inputs":[],"outputs":[{"name":"","type":"address","internalType":"address"}],"stateMutability":"view"},{"type":"function","name":"executeOnOpportunity","inputs":[],"outputs":[],"stateMutability":"nonpayable"},{"type":"function","name":"profitAmount","inputs":[],"outputs":[{"name":"","type":"uint256","internalType":"uint256"}],"stateMutability":"view"},{"type":"function","name":"profitToken","inputs":[],"outputs":[{"name":"","type":"address","internalType":"address"}],"stateMutability":"pure"}],"bytecode":{"object":"0x6080604052348015600e575f5ffd5b506117878061001c5f395ff3fe608060405234801561000f575f5ffd5b506004361061007b575f3560e01c8063a82ed9ec11610059578063a82ed9ec146100c5578063ad5c4648146100e3578063c54e44eb14610101578063cc1f2afa1461011f5761007b565b80633c2448ed1461007f57806349343624146100895780635ff972cc146100a7575b5f5ffd5b61008761013d565b005b6100916107c6565b60405161009e9190610e25565b60405180910390f35b6100af6107e1565b6040516100bc9190610e56565b60405180910390f35b6100cd6107e9565b6040516100da9190610e25565b60405180910390f35b6100eb610801565b6040516100f89190610e25565b60405180910390f35b610109610819565b6040516101169190610e25565b60405180910390f35b610127610831565b6040516101349190610e25565b60405180910390f35b5f73dac17f958d2ee523a2206206994597c13d831ec790505f73c02aaa39b223fe8d0a0e5c4f27ead9083c756cc290505f8173ffffffffffffffffffffffffffffffffffffffff166370a08231306040518263ffffffff1660e01b81526004016101a79190610e25565b602060405180830381865afa1580156101c2573d5f5f3e3d5ffd5b505050506040513d601f19601f820116820180604052508101906101e69190610eaa565b90505f8373ffffffffffffffffffffffffffffffffffffffff166370a0823173800cfd4a2ba8ce93ea2cc814fce26c36351690176040518263ffffffff1660e01b81526004016102369190610e25565b602060405180830381865afa158015610251573d5f5f3e3d5ffd5b505050506040513d601f19601f820116820180604052508101906102759190610eaa565b90505f81116102b9576040517f08c379a00000000000000000000000000000000000000000000000000000000081526004016102b090610f2f565b60405180910390fd5b73800cfd4a2ba8ce93ea2cc814fce26c363516901773ffffffffffffffffffffffffffffffffffffffff16639ce25b6d73dac17f958d2ee523a2206206994597c13d831ec7306040518363ffffffff1660e01b815260040161031c929190610f4d565b5f604051808303815f87803b158015610333575f5ffd5b505af1158015610345573d5f5f3e3d5ffd5b505050505f8473ffffffffffffffffffffffffffffffffffffffff1663dd62ed3e73800cfd4a2ba8ce93ea2cc814fce26c3635169017306040518363ffffffff1660e01b8152600401610399929190610f4d565b602060405180830381865afa1580156103b4573d5f5f3e3d5ffd5b505050506040513d601f19601f820116820180604052508101906103d89190610eaa565b90508181101561041d576040517f08c379a000000000000000000000000000000000000000000000000000000000815260040161041490610fbe565b60405180910390fd5b61045173dac17f958d2ee523a2206206994597c13d831ec773800cfd4a2ba8ce93ea2cc814fce26c36351690173085610849565b5f8573ffffffffffffffffffffffffffffffffffffffff166370a08231306040518263ffffffff1660e01b815260040161048b9190610e25565b602060405180830381865afa1580156104a6573d5f5f3e3d5ffd5b505050506040513d601f19601f820116820180604052508101906104ca9190610eaa565b90508281101561050f576040517f08c379a000000000000000000000000000000000000000000000000000000000815260040161050690611026565b60405180910390fd5b61054273dac17f958d2ee523a2206206994597c13d831ec7737a250d5630b4cf539739df2c5dacb4c659f2488d836109ea565b5f600267ffffffffffffffff81111561055e5761055d611044565b5b60405190808252806020026020018201604052801561058c5781602001602082028036833780820191505090505b50905073dac17f958d2ee523a2206206994597c13d831ec7815f815181106105b7576105b6611071565b5b602002602001019073ffffffffffffffffffffffffffffffffffffffff16908173ffffffffffffffffffffffffffffffffffffffff168152505073c02aaa39b223fe8d0a0e5c4f27ead9083c756cc28160018151811061061a57610619611071565b5b602002602001019073ffffffffffffffffffffffffffffffffffffffff16908173ffffffffffffffffffffffffffffffffffffffff1681525050737a250d5630b4cf539739df2c5dacb4c659f2488d73ffffffffffffffffffffffffffffffffffffffff166338ed17398360018430426040518663ffffffff1660e01b81526004016106aa959493929190611197565b5f604051808303815f875af11580156106c5573d5f5f3e3d5ffd5b505050506040513d5f823e3d601f19601f820116820180604052508101906106ed9190611312565b505f8673ffffffffffffffffffffffffffffffffffffffff166370a08231306040518263ffffffff1660e01b81526004016107289190610e25565b602060405180830381865afa158015610743573d5f5f3e3d5ffd5b505050506040513d601f19601f820116820180604052508101906107679190610eaa565b90508581116107ab576040517f08c379a00000000000000000000000000000000000000000000000000000000081526004016107a2906113a3565b60405180910390fd5b85816107b791906113ee565b5f819055505050505050505050565b5f73c02aaa39b223fe8d0a0e5c4f27ead9083c756cc2905090565b5f5f54905090565b737a250d5630b4cf539739df2c5dacb4c659f2488d81565b73c02aaa39b223fe8d0a0e5c4f27ead9083c756cc281565b73dac17f958d2ee523a2206206994597c13d831ec781565b73800cfd4a2ba8ce93ea2cc814fce26c363516901781565b5f5f8573ffffffffffffffffffffffffffffffffffffffff167f23b872dd7302113369cda2901243429419bec145408fa8b352b3dd92b66c680b86868660405160240161089893929190611421565b604051602081830303815290604052907bffffffffffffffffffffffffffffffffffffffffffffffffffffffff19166020820180517bffffffffffffffffffffffffffffffffffffffffffffffffffffffff838183161783525050505060405161090291906114a8565b5f604051808303815f865af19150503d805f811461093b576040519150601f19603f3d011682016040523d82523d5f602084013e610940565b606091505b509150915081610985576040517f08c379a000000000000000000000000000000000000000000000000000000000815260040161097c90611508565b60405180910390fd5b5f815111156109e257808060200190518101906109a2919061155b565b6109e1576040517f08c379a00000000000000000000000000000000000000000000000000000000081526004016109d8906115d0565b60405180910390fd5b5b505050505050565b5f5f8473ffffffffffffffffffffffffffffffffffffffff167f095ea7b334ae44009aa867bfb386f5c3b4b443ac6f0ee573fa91c4608fbadfba8585604051602401610a379291906115ee565b604051602081830303815290604052907bffffffffffffffffffffffffffffffffffffffffffffffffffffffff19166020820180517bffffffffffffffffffffffffffffffffffffffffffffffffffffffff8381831617835250505050604051610aa191906114a8565b5f604051808303815f865af19150503d805f8114610ada576040519150601f19603f3d011682016040523d82523d5f602084013e610adf565b606091505b5091509150818015610b0c57505f81511480610b0b575080806020019051810190610b0a919061155b565b5b5b15610b18575050610de1565b8473ffffffffffffffffffffffffffffffffffffffff167f095ea7b334ae44009aa867bfb386f5c3b4b443ac6f0ee573fa91c4608fbadfba855f604051602401610b6392919061165a565b604051602081830303815290604052907bffffffffffffffffffffffffffffffffffffffffffffffffffffffff19166020820180517bffffffffffffffffffffffffffffffffffffffffffffffffffffffff8381831617835250505050604051610bcd91906114a8565b5f604051808303815f865af19150503d805f8114610c06576040519150601f19603f3d011682016040523d82523d5f602084013e610c0b565b606091505b508092508193505050818015610c3c57505f81511480610c3b575080806020019051810190610c3a919061155b565b5b5b610c7b576040517f08c379a0000000000000000000000000000000000000000000000000000000008152600401610c72906116cb565b60405180910390fd5b8473ffffffffffffffffffffffffffffffffffffffff167f095ea7b334ae44009aa867bfb386f5c3b4b443ac6f0ee573fa91c4608fbadfba8585604051602401610cc69291906115ee565b604051602081830303815290604052907bffffffffffffffffffffffffffffffffffffffffffffffffffffffff19166020820180517bffffffffffffffffffffffffffffffffffffffffffffffffffffffff8381831617835250505050604051610d3091906114a8565b5f604051808303815f865af19150503d805f8114610d69576040519150601f19603f3d011682016040523d82523d5f602084013e610d6e565b606091505b508092508193505050818015610d9f57505f81511480610d9e575080806020019051810190610d9d919061155b565b5b5b610dde576040517f08c379a0000000000000000000000000000000000000000000000000000000008152600401610dd590611733565b60405180910390fd5b50505b505050565b5f73ffffffffffffffffffffffffffffffffffffffff82169050919050565b5f610e0f82610de6565b9050919050565b610e1f81610e05565b82525050565b5f602082019050610e385f830184610e16565b92915050565b5f819050919050565b610e5081610e3e565b82525050565b5f602082019050610e695f830184610e47565b92915050565b5f604051905090565b5f5ffd5b5f5ffd5b610e8981610e3e565b8114610e93575f5ffd5b50565b5f81519050610ea481610e80565b92915050565b5f60208284031215610ebf57610ebe610e78565b5b5f610ecc84828501610e96565b91505092915050565b5f82825260208201905092915050565b7f6e6f205553445420696e207461726765740000000000000000000000000000005f82015250565b5f610f19601183610ed5565b9150610f2482610ee5565b602082019050919050565b5f6020820190508181035f830152610f4681610f0d565b9050919050565b5f604082019050610f605f830185610e16565b610f6d6020830184610e16565b9392505050565b7f616c6c6f77616e6365206e6f74206772616e74656400000000000000000000005f82015250565b5f610fa8601583610ed5565b9150610fb382610f74565b602082019050919050565b5f6020820190508181035f830152610fd581610f9c565b9050919050565b7f647261696e206661696c656400000000000000000000000000000000000000005f82015250565b5f611010600c83610ed5565b915061101b82610fdc565b602082019050919050565b5f6020820190508181035f83015261103d81611004565b9050919050565b7f4e487b71000000000000000000000000000000000000000000000000000000005f52604160045260245ffd5b7f4e487b71000000000000000000000000000000000000000000000000000000005f52603260045260245ffd5b5f819050919050565b5f819050919050565b5f6110ca6110c56110c08461109e565b6110a7565b610e3e565b9050919050565b6110da816110b0565b82525050565b5f81519050919050565b5f82825260208201905092915050565b5f819050602082019050919050565b61111281610e05565b82525050565b5f6111238383611109565b60208301905092915050565b5f602082019050919050565b5f611145826110e0565b61114f81856110ea565b935061115a836110fa565b805f5b8381101561118a5781516111718882611118565b975061117c8361112f565b92505060018101905061115d565b5085935050505092915050565b5f60a0820190506111aa5f830188610e47565b6111b760208301876110d1565b81810360408301526111c9818661113b565b90506111d86060830185610e16565b6111e56080830184610e47565b9695505050505050565b5f5ffd5b5f601f19601f8301169050919050565b61120c826111f3565b810181811067ffffffffffffffff8211171561122b5761122a611044565b5b80604052505050565b5f61123d610e6f565b90506112498282611203565b919050565b5f67ffffffffffffffff82111561126857611267611044565b5b602082029050602081019050919050565b5f5ffd5b5f61128f61128a8461124e565b611234565b905080838252602082019050602084028301858111156112b2576112b1611279565b5b835b818110156112db57806112c78882610e96565b8452602084019350506020810190506112b4565b5050509392505050565b5f82601f8301126112f9576112f86111ef565b5b815161130984826020860161127d565b91505092915050565b5f6020828403121561132757611326610e78565b5b5f82015167ffffffffffffffff81111561134457611343610e7c565b5b611350848285016112e5565b91505092915050565b7f6e6f2070726f666974207265616c697a656400000000000000000000000000005f82015250565b5f61138d601283610ed5565b915061139882611359565b602082019050919050565b5f6020820190508181035f8301526113ba81611381565b9050919050565b7f4e487b71000000000000000000000000000000000000000000000000000000005f52601160045260245ffd5b5f6113f882610e3e565b915061140383610e3e565b925082820390508181111561141b5761141a6113c1565b5b92915050565b5f6060820190506114345f830186610e16565b6114416020830185610e16565b61144e6040830184610e47565b949350505050565b5f81519050919050565b5f81905092915050565b8281835e5f83830152505050565b5f61148282611456565b61148c8185611460565b935061149c81856020860161146a565b80840191505092915050565b5f6114b38284611478565b915081905092915050565b7f7472616e7366657246726f6d2063616c6c206661696c656400000000000000005f82015250565b5f6114f2601883610ed5565b91506114fd826114be565b602082019050919050565b5f6020820190508181035f83015261151f816114e6565b9050919050565b5f8115159050919050565b61153a81611526565b8114611544575f5ffd5b50565b5f8151905061155581611531565b92915050565b5f602082840312156115705761156f610e78565b5b5f61157d84828501611547565b91505092915050565b7f7472616e7366657246726f6d2072657475726e65642066616c736500000000005f82015250565b5f6115ba601b83610ed5565b91506115c582611586565b602082019050919050565b5f6020820190508181035f8301526115e7816115ae565b9050919050565b5f6040820190506116015f830185610e16565b61160e6020830184610e47565b9392505050565b5f819050919050565b5f60ff82169050919050565b5f61164461163f61163a84611615565b6110a7565b61161e565b9050919050565b6116548161162a565b82525050565b5f60408201905061166d5f830185610e16565b61167a602083018461164b565b9392505050565b7f617070726f7665207265736574206661696c65640000000000000000000000005f82015250565b5f6116b5601483610ed5565b91506116c082611681565b602082019050919050565b5f6020820190508181035f8301526116e2816116a9565b9050919050565b7f617070726f7665206661696c65640000000000000000000000000000000000005f82015250565b5f61171d600e83610ed5565b9150611728826116e9565b602082019050919050565b5f6020820190508181035f83015261174a81611711565b905091905056fea26469706673582212208b11e9966a30552d55606a2782fd2240e1bef97c04aab8115cf4d1074c00704c64736f6c634300081e0033","linkReferences":{}},"methodIdentifiers":{"TARGET()":"cc1f2afa","UNISWAP_V2_ROUTER()":"a82ed9ec","USDT()":"c54e44eb","WETH()":"ad5c4648","executeOnOpportunity()":"3c2448ed","profitAmount()":"5ff972cc","profitToken()":"49343624"},"id":0}