{"abi":[{"type":"constructor","inputs":[],"stateMutability":"nonpayable"},{"type":"function","name":"executeOnOpportunity","inputs":[],"outputs":[],"stateMutability":"nonpayable"},{"type":"function","name":"profitAmount","inputs":[],"outputs":[{"name":"","type":"uint256","internalType":"uint256"}],"stateMutability":"view"},{"type":"function","name":"profitToken","inputs":[],"outputs":[{"name":"","type":"address","internalType":"address"}],"stateMutability":"view"},{"type":"function","name":"receiveFlashLoan","inputs":[{"name":"tokens","type":"address[]","internalType":"contract IERC20Like[]"},{"name":"amounts","type":"uint256[]","internalType":"uint256[]"},{"name":"feeAmounts","type":"uint256[]","internalType":"uint256[]"},{"name":"","type":"bytes","internalType":"bytes"}],"outputs":[],"stateMutability":"nonpayable"},{"type":"function","name":"uniswapV2Call","inputs":[{"name":"sender","type":"address","internalType":"address"},{"name":"amount0","type":"uint256","internalType":"uint256"},{"name":"amount1","type":"uint256","internalType":"uint256"},{"name":"","type":"bytes","internalType":"bytes"}],"outputs":[],"stateMutability":"nonpayable"},{"type":"function","name":"uniswapV3FlashCallback","inputs":[{"name":"fee0","type":"uint256","internalType":"uint256"},{"name":"fee1","type":"uint256","internalType":"uint256"},{"name":"data","type":"bytes","internalType":"bytes"}],"outputs":[],"stateMutability":"nonpayable"}],"bytecode":{"object":"0x6080806040523460155761243e908161001a8239f35b5f80fdfe6080806040526004361015610012575f80fd5b5f3560e01c90816310d1e85c14610775575080633c2448ed1461075d57806349343624146106ea5780635ff972cc146106cd578063e9cbafb01461044b5763f04f27071461005e575f80fd5b346102c95760803660031901126102c95760043567ffffffffffffffff81116102c957366023820112156102c957806004013561009a816109e4565b916100a860405193846109c2565b8183526024602084019260051b820101903682116102c957602401915b81831061042b578360243567ffffffffffffffff81116102c9576100ed9036906004016109fc565b9060443567ffffffffffffffff81116102c95761010e9036906004016109fc565b9060643567ffffffffffffffff81116102c957366023820112156102c95780600401359067ffffffffffffffff82116104175760405191610159601f8201601f1916602001846109c2565b80835236602482840101116102c9575f92816024602094018483013701015273ba12222222228d8ba445958a75a0704d566bf2c833036103df576001815114806103d4575b806103c9575b15610392576001600160a01b03906101bb90610ab5565b51166001600160a01b036101cd61170d565b160361035a576101fb6101f4836101ef6101e961020296610ab5565b516110c4565b610ab5565b5191610ab5565b51906110b7565b602460206001600160a01b0361021661170d565b16604051928380926370a0823160e01b82523060048301525afa80156102d55782915f91610325575b50106102e0575f9060209060446001600160a01b0361025c61170d565b1691604051948593849263a9059cbb60e01b845273ba12222222228d8ba445958a75a0704d566bf2c8600485015260248401525af180156102d55761029d57005b6020813d6020116102cd575b816102b6602093836109c2565b810103126102c9576102c790610aa8565b005b5f80fd5b3d91506102a9565b6040513d5f823e3d90fd5b60405162461bcd60e51b815260206004820152601e60248201527f62616c616e6365722072657061796d656e7420756e617661696c61626c6500006044820152606490fd5b9150506020813d602011610352575b81610341602093836109c2565b810103126102c9578190518361023f565b3d9150610334565b60405162461bcd60e51b815260206004820152601060248201526f3ab732bc3832b1ba32b2103a37b5b2b760811b6044820152606490fd5b60405162461bcd60e51b815260206004820152600f60248201526e3ab732bc3832b1ba32b2103637b0b760891b6044820152606490fd5b5060018251146101a4565b50600183511461019e565b60405162461bcd60e51b815260206004820152601060248201526f1d5b995e1c1958dd1959081d985d5b1d60821b6044820152606490fd5b634e487b7160e01b5f52604160045260245ffd5b82356001600160a01b03811681036102c9578152602092830192016100c5565b346102c95760603660031901126102c95760443567ffffffffffffffff81116102c95761047c903690600401610978565b6004546001600160a01b031633036106965781602091810103126102c957356104a6811515610a59565b604051630dfe168160e01b8152602081600481335afa9081156102d5575f91610677575b506040516384b3d8e960e01b81526020816004815f5160206123e95f395f51905f525afa9081156102d5575f91610648575b506001600160a01b0391821691160361063a5761052561051f6004355b836110b7565b916110c4565b602460206001600160a01b0361053961170d565b16604051928380926370a0823160e01b82523060048301525afa80156102d55782915f91610605575b50106105c0575f906020906105b0906001600160a01b0361058161170d565b60405163a9059cbb60e01b81523360048201526024810193909352919485939190921691839182906044820190565b03925af180156102d55761029d57005b60405162461bcd60e51b815260206004820152601860248201527f76332072657061796d656e7420756e617661696c61626c6500000000000000006044820152606490fd5b9150506020813d602011610632575b81610621602093836109c2565b810103126102c95781905183610562565b3d9150610614565b61052561051f602435610519565b61066a915060203d602011610670575b61066281836109c2565b810190611098565b836104fc565b503d610658565b610690915060203d6020116106705761066281836109c2565b826104ca565b60405162461bcd60e51b815260206004820152600f60248201526e1d5b995e1c1958dd1959081c1bdbdb608a1b6044820152606490fd5b346102c9575f3660031901126102c9576020600254604051908152f35b346102c9575f3660031901126102c9576040516384b3d8e960e01b81526020816004815f5160206123e95f395f51905f525afa80156102d5576020915f91610740575b506040516001600160a01b039091168152f35b6107579150823d84116106705761066281836109c2565b8261072d565b346102c9575f3660031901126102c9576102c7610afa565b346102c95760803660031901126102c9576004356001600160a01b038116908190036102c9576024359160643567ffffffffffffffff81116102c9576107bf903690600401610978565b50506003546001600160a01b031633036109445750300361090b578015610902575b80156107ed8115610a59565b6107f6826110c4565b6103e882029182046103e81417156108ee576103e59004600181018091116108ee57602460206001600160a01b0361082c61170d565b16604051928380926370a0823160e01b82523060048301525afa80156102d55782915f916108b9575b5010610874575f906020906105b0906001600160a01b0361058161170d565b60405162461bcd60e51b815260206004820152601860248201527f76322072657061796d656e7420756e617661696c61626c6500000000000000006044820152606490fd5b9150506020813d6020116108e6575b816108d5602093836109c2565b810103126102c95781905183610855565b3d91506108c8565b634e487b7160e01b5f52601160045260245ffd5b506044356107e1565b60405162461bcd60e51b81526020600482015260116024820152703ab732bc3832b1ba32b21039b2b73232b960791b6044820152606490fd5b62461bcd60e51b815260206004820152600f60248201526e3ab732bc3832b1ba32b2103830b4b960891b6044820152606490fd5b9181601f840112156102c95782359167ffffffffffffffff83116102c957602083818601950101116102c957565b6080810190811067ffffffffffffffff82111761041757604052565b90601f8019910116810190811067ffffffffffffffff82111761041757604052565b67ffffffffffffffff81116104175760051b60200190565b9080601f830112156102c9578135610a13816109e4565b92610a2160405194856109c2565b81845260208085019260051b8201019283116102c957602001905b828210610a495750505090565b8135815260209182019101610a3c565b15610a6057565b60405162461bcd60e51b81526020600482015260116024820152701b9bc8119313d3d488189bdc9c9bddd959607a1b6044820152606490fd5b908160209103126102c9575190565b519081151582036102c957565b805115610ac25760200190565b634e487b7160e01b5f52603260045260245ffd5b805180835260209291819084018484015e5f828201840152601f01601f1916010190565b610b0261176a565b610b0a6117f1565b610b126118f9565b155f9061108f57602460206001600160a01b03610b2d61170d565b16604051928380926370a0823160e01b82523060048301525afa9081156102d5575f9161105d575b5080600460206001600160a01b03610b6b612120565b1660405192838092639358928b60e01b82525afa9081156102d5575f9161102b575b5060021c91602460206001600160a01b03610ba661170d565b16604051928380926370a0823160e01b82525f5160206123e95f395f51905f5260048301525afa9081156102d5575f91610ff9575b5060021c8315848115610fdd575b50610fd5575b50828015159182610fcb575b5050610fc4575b80610fb85750610c1190611ab0565b6040810160ff815116158015610fac575b610fa1575160ff1660018103610d3957508051600480546001600160a01b0319166001600160a01b0392909216918217905560608201511580159290610d32576020810151925b15610d2657602084915b01519260405193602085015260208452610c8e6040856109c2565b823b15610d225791610cd39391858094604051968795869485936312439b2f60e21b855230600486015260248501526044840152608060648401526084830190610ad6565b03925af18015610d1757610cff575b5050600480546001600160a01b03191690555b610cfd6119fb565b565b610d0a8280926109c2565b610d145780610ce2565b80fd5b6040513d84823e3d90fd5b8480fd5b60208082015191610c73565b8392610c69565b600203610e2e578051600380546001600160a01b0319166001600160a01b0392909216918217905560608201511580159290610e27576020810151925b15610e1b57602084915b01519260405193602085015260208452610d9b6040856109c2565b823b15610d225791610de093918580946040519687958694859363022c0d9f60e01b855260048501526024840152306044840152608060648401526084830190610ad6565b03925af18015610d1757610e06575b5050600380546001600160a01b0319169055610cf5565b610e118280926109c2565b610d145780610def565b60208082015191610d80565b8392610d76565b90506040805191610e3f82846109c2565b6001835260208301601f1983019182368337610e5961170d565b610e6286610ab5565b6001600160a01b039091169052835190602090610e7f86846109c2565b60018352818301943686370151610e9582610ab5565b5273ba12222222228d8ba445958a75a0704d566bf2c83b156102c9578351632e1c224f60e11b81523060048201526080602482015294516084860181905285939260a4850192915f5b818110610f7f5750505060209060031985840301604486015251918281520191905f5b818110610f6657505050906020825f8381950391600319830160648601525201818373ba12222222228d8ba445958a75a0704d566bf2c85af1908115610f5d5750610f4d575b50610cf5565b5f610f57916109c2565b5f610f47565b513d5f823e3d90fd5b8251845286945060209384019390920191600101610f01565b82516001600160a01b0316855288965060209485019490920191600101610ede565b505050610cfd6119fb565b50602082015115610c22565b9050610cf591506110c4565b5080610c02565b119050825f610bfb565b92505f610bef565b821515915081610fef575b505f610be9565b905081105f610fe8565b90506020813d602011611023575b81611014602093836109c2565b810103126102c957515f610bdb565b3d9150611007565b90506020813d602011611055575b81611046602093836109c2565b810103126102c957515f610b8d565b3d9150611039565b90506020813d602011611087575b81611078602093836109c2565b810103126102c957515f610b55565b3d915061106b565b50610cfd6119fb565b908160209103126102c957516001600160a01b03811681036102c95790565b919082018092116108ee57565b600281106113ab57604051636f561b0d60e11b8152906020826004815f5160206123e95f395f51905f525afa9182156102d5575f926116d9575b50811561159457600460206001600160a01b03611119612120565b1660405192838092639358928b60e01b82525afa9081156102d5575f916116a7575b50156115945761114961217f565b60018301908184116108ee571061159457604051632013864160e01b8152906020826004815f5160206123e95f395f51905f525afa9182156102d5575f92611673575b5060405190631b0cd93b60e31b82523060048301526024820152600160448201525f60648201526020816084815f5f5160206123e95f395f51905f525af180156102d557611644575b506111de612227565b6020810191825115801561163b575b61163557604051632013864160e01b81526020816004815f5160206123e95f395f51905f525afa9081156102d5575f91611603575b5011156115fe5760206001600160a01b0361123b612120565b169251602460405180958193637965d56d60e01b835260048301525afa9182156102d5575f926115ca575b5051116113ab575f5b8181106114f3575050611280612227565b6001600160a01b03611290612120565b1690602080820151602460405180958193637965d56d60e01b835260048301525afa9182156102d5575f926114bf575b50511015610cfd576040516392fd2daf60e01b8152306004820152600160248201526020816044815f5f5160206123e95f395f51905f525af19081156102d5575f9161148d575b5015610cfd576113156117f1565b602460206001600160a01b0361132961170d565b16604051928380926370a0823160e01b82525f5160206123e95f395f51905f5260048301525afa80156102d5575f9061145a575b6024915060206001600160a01b03611373612120565b16604051938480926370a0823160e01b82523060048301525afa9182156102d5575f92611426575b5080821161141e575b50806113ae575b50565b6040519063990966d560e01b825230600483015260248201525f6044820152600160648201526020816084815f5f5160206123e95f395f51905f525af16113f25750565b6020813d602011611416575b8161140b602093836109c2565b810103126102c95750565b3d91506113fe565b90505f6113a4565b9091506020813d602011611452575b81611442602093836109c2565b810103126102c95751905f61139b565b3d9150611435565b506020813d602011611485575b81611474602093836109c2565b810103126102c9576024905161135d565b3d9150611467565b90506020813d6020116114b7575b816114a8602093836109c2565b810103126102c957515f611307565b3d915061149b565b9091506020813d6020116114eb575b816114db602093836109c2565b810103126102c95751905f6112c0565b3d91506114ce565b60405163900cf0cf60e01b81526080816004815f5160206123e95f395f51905f525afa9081156102d5575f91611598575b50421061159457604051632bc5014b60e21b8152906020826004815f5f5160206123e95f395f51905f525af19182156102d557600192611566575b500161126f565b6115869060203d811161158d575b61157e81836109c2565b810190610a99565b505f61155f565b503d611574565b5050565b6115b9915060803d81116115c3575b6115b181836109c2565b81019061215d565b509150505f611524565b503d6115a7565b9091506020813d6020116115f6575b816115e6602093836109c2565b810103126102c95751905f611266565b3d91506115d9565b505050565b90506020813d60201161162d575b8161161e602093836109c2565b810103126102c957515f611222565b3d9150611611565b50505050565b508151156111ed565b6020813d60201161166b575b8161165d602093836109c2565b810103126102c957516111d5565b3d9150611650565b9091506020813d60201161169f575b8161168f602093836109c2565b810103126102c95751905f61118c565b3d9150611682565b90506020813d6020116116d1575b816116c2602093836109c2565b810103126102c957515f61113b565b3d91506116b5565b9091506020813d602011611705575b816116f5602093836109c2565b810103126102c95751905f6110fe565b3d91506116e8565b6040516384b3d8e960e01b81526020816004815f5160206123e95f395f51905f525afa9081156102d5575f9161174b575b506001600160a01b031690565b611764915060203d6020116106705761066281836109c2565b5f61173e565b5f5460ff81166113ab5760ff19166001175f55602460206001600160a01b0361179161170d565b16604051928380926370a0823160e01b82523060048301525afa9081156102d5575f916117bf575b50600155565b90506020813d6020116117e9575b816117da602093836109c2565b810103126102c957515f6117b9565b3d91506117cd565b5f60206001600160a01b0361180461170d565b1660446040518094819363095ea7b360e01b83525f5160206123e95f395f51905f526004840152811960248401525af180156102d5576118c2575b505f60206001600160a01b03611853612120565b1660446040518094819363095ea7b360e01b83525f5160206123e95f395f51905f526004840152811960248401525af180156102d5576118905750565b6020813d6020116118ba575b816118a9602093836109c2565b810103126102c9576113ab90610aa8565b3d915061189c565b6020813d6020116118f1575b816118db602093836109c2565b810103126102c9576118ec90610aa8565b61183f565b3d91506118ce565b604051636f561b0d60e11b81526020816004815f5160206123e95f395f51905f525afa9081156102d5575f916119bc575b50801561198557600460206001600160a01b03611945612120565b1660405192838092639358928b60e01b82525afa9081156102d5575f9161198a575b50156119855761197561217f565b600182018092116108ee57101590565b505f90565b90506020813d6020116119b4575b816119a5602093836109c2565b810103126102c957515f611967565b3d9150611998565b90506020813d6020116119e6575b816119d7602093836109c2565b810103126102c957515f61192a565b3d91506119ca565b919082039182116108ee57565b602460206001600160a01b03611a0f61170d565b16604051928380926370a0823160e01b82523060048301525afa9081156102d5575f91611a5a575b50600154811115611a5357600154611a4e916119ee565b600255565b505f600255565b90506020813d602011611a84575b81611a75602093836109c2565b810103126102c957515f611a37565b3d9150611a68565b60405190611a99826109a6565b5f6060838281528260208201528260408201520152565b90611ab9611a8c565b8215611ee15750611ac8611a8c565b906040516384b3d8e960e01b81526020816004815f5160206123e95f395f51905f525afa9081156102d5575f91612101575b50604051611b07816109a6565b73c02aaa39b223fe8d0a0e5c4f27ead9083c756cc2815273a0b86991c6218b36c1d19d4a2e9eb0ce3606eb48602082015273dac17f958d2ee523a2206206994597c13d831ec76040820152736b175474e89094c44da98b954eedeac495271d0f6060820152604051611b78816109a6565b606481526101f46020820152610bb8604082015261271060608201525f5b60048110611f0e5750505050611baa611a8c565b6040516384b3d8e960e01b815293906020856004815f5160206123e95f395f51905f525afa9485156102d5575f95611eed575b506040516040810181811067ffffffffffffffff82111761041757604052735c69bee701ef814a2b6a3edd4b1652cb9cc5aa6f815273c0aee478e3658e2610c5f7a4a2e1777ce9e4f2ac602082015260405190611c39826109a6565b73c02aaa39b223fe8d0a0e5c4f27ead9083c756cc2825273a0b86991c6218b36c1d19d4a2e9eb0ce3606eb48602083015273dac17f958d2ee523a2206206994597c13d831ec76040830152736b175474e89094c44da98b954eedeac495271d0f60608301525f5b600281101580611eac575f5b60048110611cbe575050600101611ca0565b81610ac257600583901b8401516001600160a01b0390811690611ce183886122d4565b51169060208c60446040518094819363e6a4390560e01b835260018060a01b03169687600484015260248301525afa9081156102d5575f91611e8e575b506001600160a01b0316908115611e8457604051630240bc6b60e21b815290606082600481865afa9182156102d5575f905f93611e2d575b50604051630dfe168160e01b815291602083600481885afa80156102d5576001600160701b03935f91611e0f575b506001600160a01b031614928315611e075750165b6001811115611dfc5760059004898111611df5575b60208901518111611dc7575b5050506001905b01611cac565b600193985060405192611dd9846109a6565b8352602083015260026040830152606082015295905f80611dba565b5088611dae565b505050600190611dc1565b905016611d99565b611e27915060203d81116106705761066281836109c2565b5f611d84565b9250506060823d8211611e7c575b81611e48606093836109c2565b810103126102c957611e59826122e5565b6040611e67602085016122e5565b93015163ffffffff8116036102c9575f611d56565b3d9150611e3b565b5050600190611dc1565b611ea6915060203d81116106705761066281836109c2565b5f611d1e565b5050505091929350611ebd906122f9565b908360208083015191015110611ee5575b506020810151602084015110611ee15750565b9150565b92505f611ece565b611f0791955060203d6020116106705761066281836109c2565b935f611bdd565b5f5b60048110611f215750600101611b96565b6001600160a01b03611f3383866122d4565b511662ffffff611f4383866122d4565b51604051630b4c774160e11b81526001600160a01b03891660048201819052602482019490945291166044820152602081606481731f98431c8ad98523631ae4a59f267346ea31f9845afa9081156102d5575f916120e3575b506001600160a01b031680156120d957602460206001600160a01b03611fc061170d565b16604051928380926370a0823160e01b82528660048301525afa9081156102d5575f916120a8575b50600181111561209d5760059004918a8311612095575b60208a01518311612018575b5050506001905b01611f10565b604051630dfe168160e01b81529399509091602084600481865afa9081156102d5576001945f92612075575b5060405193612052856109a6565b84526020840152836040840152838060a01b031614606082015296905f8061200b565b61208e91925060203d81116106705761066281836109c2565b905f612044565b8a9250611fff565b505050600190612012565b90506020813d82116120d1575b816120c2602093836109c2565b810103126102c957515f611fe8565b3d91506120b5565b5050600190612012565b6120fb915060203d81116106705761066281836109c2565b5f611f9c565b61211a915060203d6020116106705761066281836109c2565b5f611afa565b60405163f36080f160e01b81526020816004815f5160206123e95f395f51905f525afa9081156102d5575f9161174b57506001600160a01b031690565b91908260809103126102c9578151916020810151916060604083015192015190565b60405163900cf0cf60e01b81526080816004815f5160206123e95f395f51905f525afa80156102d5575f915f91612203575b508115908180156121fa575b6121f3576121cb90426119ee565b906121df5704600181018091116108ee5790565b634e487b7160e01b5f52601260045260245ffd5b5050505f90565b504281116121bd565b905061221e915060803d6080116115c3576115b181836109c2565b5090505f6121b1565b61222f611a8c565b906040516333a37a6160e11b81523060048201526080816024815f5160206123e95f395f51905f525afa80156102d5575f915f915f915f91612282575b5015156060860152604085015260208401528252565b93505050506080813d6080116122cc575b816122a0608093836109c2565b810103126102c9578051906020810151916122c2606060408401519301610aa8565b909291905f61226c565b3d9150612293565b906004811015610ac25760051b0190565b51906001600160701b03821682036102c957565b90612302611a8c565b91602460206001600160a01b0361231761170d565b16604051928380926370a0823160e01b825273ba12222222228d8ba445958a75a0704d566bf2c860048301525afa9081156102d5575f916123b6575b50600181111561159457600a9004908082116123ae575b50806123735750565b604051919250612382826109a6565b73ba12222222228d8ba445958a75a0704d566bf2c882526020820152600360408201525f606082015290565b90505f61236a565b90506020813d6020116123e0575b816123d1602093836109c2565b810103126102c957515f612353565b3d91506123c456fe000000000000000000000000759c6de5bca9ade8a1a2719a31553c4b7de02539a264697066735822122020a9f122346bdbe9dd0d1b47322300f84efb90d3e37708ab91b9911971ba987464736f6c634300081e0033","linkReferences":{}},"methodIdentifiers":{"executeOnOpportunity()":"3c2448ed","profitAmount()":"5ff972cc","profitToken()":"49343624","receiveFlashLoan(address[],uint256[],uint256[],bytes)":"f04f2707","uniswapV2Call(address,uint256,uint256,bytes)":"10d1e85c","uniswapV3FlashCallback(uint256,uint256,bytes)":"e9cbafb0"},"id":0}