{"abi":[{"type":"constructor","inputs":[],"stateMutability":"nonpayable"},{"type":"receive","stateMutability":"payable"},{"type":"function","name":"DAI","inputs":[],"outputs":[{"name":"","type":"address","internalType":"address"}],"stateMutability":"view"},{"type":"function","name":"SUSHISWAP_FACTORY","inputs":[],"outputs":[{"name":"","type":"address","internalType":"address"}],"stateMutability":"view"},{"type":"function","name":"TARGET","inputs":[],"outputs":[{"name":"","type":"address","internalType":"address"}],"stateMutability":"view"},{"type":"function","name":"UNISWAP_V2_FACTORY","inputs":[],"outputs":[{"name":"","type":"address","internalType":"address"}],"stateMutability":"view"},{"type":"function","name":"UNISWAP_V2_ROUTER","inputs":[],"outputs":[{"name":"","type":"address","internalType":"address"}],"stateMutability":"view"},{"type":"function","name":"USDC","inputs":[],"outputs":[{"name":"","type":"address","internalType":"address"}],"stateMutability":"view"},{"type":"function","name":"USDT","inputs":[],"outputs":[{"name":"","type":"address","internalType":"address"}],"stateMutability":"view"},{"type":"function","name":"WETH","inputs":[],"outputs":[{"name":"","type":"address","internalType":"address"}],"stateMutability":"view"},{"type":"function","name":"airdropContractWasSet","inputs":[],"outputs":[{"name":"","type":"bool","internalType":"bool"}],"stateMutability":"view"},{"type":"function","name":"airdropGateAlreadySatisfied","inputs":[],"outputs":[{"name":"","type":"bool","internalType":"bool"}],"stateMutability":"view"},{"type":"function","name":"auctionExpired","inputs":[],"outputs":[{"name":"","type":"bool","internalType":"bool"}],"stateMutability":"view"},{"type":"function","name":"bidIndexAfter","inputs":[],"outputs":[{"name":"","type":"uint256","internalType":"uint256"}],"stateMutability":"view"},{"type":"function","name":"bidIndexBefore","inputs":[],"outputs":[{"name":"","type":"uint256","internalType":"uint256"}],"stateMutability":"view"},{"type":"function","name":"claimRevertData","inputs":[],"outputs":[{"name":"","type":"bytes","internalType":"bytes"}],"stateMutability":"view"},{"type":"function","name":"economicallyLockedEth","inputs":[],"outputs":[{"name":"","type":"uint256","internalType":"uint256"}],"stateMutability":"view"},{"type":"function","name":"executeOnOpportunity","inputs":[],"outputs":[],"stateMutability":"nonpayable"},{"type":"function","name":"executed","inputs":[],"outputs":[{"name":"","type":"bool","internalType":"bool"}],"stateMutability":"view"},{"type":"function","name":"exploitPathUsed","inputs":[],"outputs":[{"name":"","type":"string","internalType":"string"}],"stateMutability":"pure"},{"type":"function","name":"extraNftsOverRecordCountBefore","inputs":[],"outputs":[{"name":"","type":"uint256","internalType":"uint256"}],"stateMutability":"view"},{"type":"function","name":"firstAggregatedRecordBidCount","inputs":[],"outputs":[{"name":"","type":"uint256","internalType":"uint256"}],"stateMutability":"view"},{"type":"function","name":"firstAggregatedRecordIndex","inputs":[],"outputs":[{"name":"","type":"uint256","internalType":"uint256"}],"stateMutability":"view"},{"type":"function","name":"flashswapFundingInfeasibleAtThisFork","inputs":[],"outputs":[{"name":"","type":"bool","internalType":"bool"}],"stateMutability":"view"},{"type":"function","name":"foundAggregatedBidRecord","inputs":[],"outputs":[{"name":"","type":"bool","internalType":"bool"}],"stateMutability":"view"},{"type":"function","name":"hypothesisRefuted","inputs":[],"outputs":[{"name":"","type":"bool","internalType":"bool"}],"stateMutability":"view"},{"type":"function","name":"hypothesisState","inputs":[],"outputs":[{"name":"","type":"string","internalType":"string"}],"stateMutability":"view"},{"type":"function","name":"hypothesisValidated","inputs":[],"outputs":[{"name":"","type":"bool","internalType":"bool"}],"stateMutability":"view"},{"type":"function","name":"maxReachableRefundProgressAfter","inputs":[],"outputs":[{"name":"","type":"uint256","internalType":"uint256"}],"stateMutability":"view"},{"type":"function","name":"maxReachableRefundProgressBefore","inputs":[],"outputs":[{"name":"","type":"uint256","internalType":"uint256"}],"stateMutability":"view"},{"type":"function","name":"ownerClaimAttempted","inputs":[],"outputs":[{"name":"","type":"uint256","internalType":"uint256"}],"stateMutability":"view"},{"type":"function","name":"permanentLockConditionAfter","inputs":[],"outputs":[{"name":"","type":"bool","internalType":"bool"}],"stateMutability":"view"},{"type":"function","name":"permanentLockConditionBefore","inputs":[],"outputs":[{"name":"","type":"bool","internalType":"bool"}],"stateMutability":"view"},{"type":"function","name":"permanentLockGapAfter","inputs":[],"outputs":[{"name":"","type":"uint256","internalType":"uint256"}],"stateMutability":"view"},{"type":"function","name":"permanentLockGapBefore","inputs":[],"outputs":[{"name":"","type":"uint256","internalType":"uint256"}],"stateMutability":"view"},{"type":"function","name":"processedRefundsToCompletion","inputs":[],"outputs":[{"name":"","type":"bool","internalType":"bool"}],"stateMutability":"view"},{"type":"function","name":"profitAmount","inputs":[],"outputs":[{"name":"","type":"uint256","internalType":"uint256"}],"stateMutability":"view"},{"type":"function","name":"profitToken","inputs":[],"outputs":[{"name":"","type":"address","internalType":"address"}],"stateMutability":"pure"},{"type":"function","name":"profitWasAchieved","inputs":[],"outputs":[{"name":"","type":"bool","internalType":"bool"}],"stateMutability":"view"},{"type":"function","name":"recordCountAfter","inputs":[],"outputs":[{"name":"","type":"uint256","internalType":"uint256"}],"stateMutability":"view"},{"type":"function","name":"recordCountBefore","inputs":[],"outputs":[{"name":"","type":"uint256","internalType":"uint256"}],"stateMutability":"view"},{"type":"function","name":"refundProgressAfter","inputs":[],"outputs":[{"name":"","type":"uint256","internalType":"uint256"}],"stateMutability":"view"},{"type":"function","name":"refundProgressBefore","inputs":[],"outputs":[{"name":"","type":"uint256","internalType":"uint256"}],"stateMutability":"view"},{"type":"function","name":"targetBalanceAfter","inputs":[],"outputs":[{"name":"","type":"uint256","internalType":"uint256"}],"stateMutability":"view"},{"type":"function","name":"targetBalanceBefore","inputs":[],"outputs":[{"name":"","type":"uint256","internalType":"uint256"}],"stateMutability":"view"},{"type":"function","name":"totalBidsAfter","inputs":[],"outputs":[{"name":"","type":"uint256","internalType":"uint256"}],"stateMutability":"view"},{"type":"function","name":"totalBidsBefore","inputs":[],"outputs":[{"name":"","type":"uint256","internalType":"uint256"}],"stateMutability":"view"},{"type":"function","name":"usedPublicLiquidityDustRoute","inputs":[],"outputs":[{"name":"","type":"bool","internalType":"bool"}],"stateMutability":"view"},{"type":"function","name":"verifierCannotCallClaimProjectFunds","inputs":[],"outputs":[{"name":"","type":"bool","internalType":"bool"}],"stateMutability":"view"}],"bytecode":{"object":"0x608080604052346015576123ca908161001a8239f35b5f80fdfe608080604052600436101561001c575b50361561001a575f80fd5b005b5f3560e01c908163041e973314610b1357508063057891d314610aee5780630b2eca3214610ad15780630c079f6514610a1a57806317994b0e146109fd57806319dc823f146109d85780631a1624fd146109bb5780632760fae914610996578063286b5cb3146109795780632eb5dfb61461095c57806331a38c891461093a578063346cefbb1461091d5780633c2448ed14610905578063448ca60f146108e057806344ff6593146108bc578063463defd114610897578063493436241461063a578063495c0f9b14610869578063495f92f1146108445780635cf5dc61146108275780635ff972cc1461080b5780636a3f5146146107e9578063869036df146107cc57806389a302711461079e57806389df82ca146107795780638a673b191461075c5780638b3d98111461073757806399d8fae314610709578063a18c68dd146106ec578063a45d15f3146106d1578063a581869c146106b4578063a82ed9ec14610686578063abddd45e14610661578063ad5c46481461063a578063b4ec69df1461061d578063c54e44eb146105ef578063c6c9b9df146105ca578063c85cf137146105ad578063cc1f2afa14610586578063d236d56d14610561578063d78c4281146102e9578063e0bab4c4146102c2578063e1d4c114146102a5578063e29c97ee14610288578063e5daf8541461026b578063e8ca92d41461024e5763f918b3f41461022d575f61000f565b3461024a575f36600319011261024a576020601454604051908152f35b5f80fd5b3461024a575f36600319011261024a576020600e54604051908152f35b3461024a575f36600319011261024a576020600354604051908152f35b3461024a575f36600319011261024a576020600254604051908152f35b3461024a575f36600319011261024a576020600a54604051908152f35b3461024a575f36600319011261024a5760206040515f5160206123355f395f51905f528152f35b3461024a575f36600319011261024a5761055d6040517f412062696464657220707572636861736573206d756c7469706c65204e46547360208201527f20696e206f6e652063616c6c20286062696428322960202f206062696428332960408201527f6029206f72206163726f7373206d756c7469706c652063616c6c732066726f6d6060820152740103a34329039b0b6b29030b2323932b9b9901e9f1605d1b60808201527f60746f74616c426964736020696e63726561736573206279204e46542071756160958201527f6e746974792062757420746865206269646465722072656d61696e73206f6e6560b5820152740103030b6362134b239b0103932b1b7b932101e9f1605d1b60d58201527f6070726f63657373526566756e6473282960206f6e6c7920616476616e63657360ea8201527f206f6e636520706572207265636f726420756e74696c206174206d6f7374206061010a8201527003134b224b73232bc10169018b0101e9f1607d1b61012a8201527f696620616e79207265636f726420726570726573656e7473206d6f726520746861013b8201527f616e206f6e65204e46542c2060726566756e6450726f6772657373602066696e61015b8201527f69736865732062656c6f772060746f74616c4269647360203d3e20000000000061017b8201527f60636c61696d50726f6a65637446756e647328296020737461797320756e72656101968201527f61636861626c6520616e64204554482072656d61696e73207065726d616e656e6101b6820152691d1b1e481b1bd8dad95960b21b6101d68201526101c081526105496101e082610b65565b604051918291602083526020830190610b9b565b0390f35b3461024a575f36600319011261024a57602060ff60155460181c166040519015158152f35b3461024a575f36600319011261024a5760206040515f5160206123755f395f51905f528152f35b3461024a575f36600319011261024a576020600c54604051908152f35b3461024a575f36600319011261024a57602060ff60155460481c166040519015158152f35b3461024a575f36600319011261024a57602060405173dac17f958d2ee523a2206206994597c13d831ec78152f35b3461024a575f36600319011261024a576020600454604051908152f35b3461024a575f36600319011261024a5760206040515f5160206123155f395f51905f528152f35b3461024a575f36600319011261024a57602060ff60155460081c166040519015158152f35b3461024a575f36600319011261024a576020604051737a250d5630b4cf539739df2c5dacb4c659f2488d8152f35b3461024a575f36600319011261024a576020601054604051908152f35b3461024a575f36600319011261024a5761055d6105496118e8565b3461024a575f36600319011261024a576020600f54604051908152f35b3461024a575f36600319011261024a576020604051735c69bee701ef814a2b6a3edd4b1652cb9cc5aa6f8152f35b3461024a575f36600319011261024a57602060ff60155460101c166040519015158152f35b3461024a575f36600319011261024a576020600d54604051908152f35b3461024a575f36600319011261024a57602060ff60155460401c166040519015158152f35b3461024a575f36600319011261024a57602060405173a0b86991c6218b36c1d19d4a2e9eb0ce3606eb488152f35b3461024a575f36600319011261024a576020600554604051908152f35b3461024a575f36600319011261024a57602060ff601554166040519015158152f35b3461024a575f36600319011261024a5760205f54604051908152f35b3461024a575f36600319011261024a576020600b54604051908152f35b3461024a575f36600319011261024a57602060ff60015460181c166040519015158152f35b3461024a575f36600319011261024a57602060405173c0aee478e3658e2610c5f7a4a2e1777ce9e4f2ac8152f35b3461024a575f36600319011261024a57602060ff60015460101c166040519015158152f35b3461024a575f36600319011261024a57602060ff601554821c166040519015158152f35b3461024a575f36600319011261024a57602060ff60155460381c166040519015158152f35b3461024a575f36600319011261024a5761001a610c1f565b3461024a575f36600319011261024a576020601354604051908152f35b3461024a575f36600319011261024a57602060ff600154166040519015158152f35b3461024a575f36600319011261024a576020600654604051908152f35b3461024a575f36600319011261024a576020600854604051908152f35b3461024a575f36600319011261024a57602060ff60155460301c166040519015158152f35b3461024a575f36600319011261024a576020601254604051908152f35b3461024a575f36600319011261024a57602060ff60015460081c166040519015158152f35b3461024a575f36600319011261024a576020601154604051908152f35b3461024a575f36600319011261024a576040515f601654610a3a81610b2d565b8084529060018116908115610aad5750600114610a62575b61055d8361054981850382610b65565b91905060165f525f5160206123555f395f51905f52915f905b808210610a9357509091508101602001610549610a52565b919260018160209254838588010152019101909291610a7b565b60ff191660208086019190915291151560051b840190910191506105499050610a52565b3461024a575f36600319011261024a576020600954604051908152f35b3461024a575f36600319011261024a57602060ff60155460281c166040519015158152f35b3461024a575f36600319011261024a576020906007548152f35b90600182811c92168015610b5b575b6020831014610b4757565b634e487b7160e01b5f52602260045260245ffd5b91607f1691610b3c565b90601f8019910116810190811067ffffffffffffffff821117610b8757604052565b634e487b7160e01b5f52604160045260245ffd5b805180835260209291819084018484015e5f828201840152601f01601f1916010190565b91908203918211610bcc57565b634e487b7160e01b5f52601160045260245ffd5b3d15610c1a573d9067ffffffffffffffff8211610b875760405191610c0f601f8201601f191660200184610b65565b82523d5f602084013e565b606090565b60015460ff81166118e55760ff1916600190811790556040516370a0823160e01b8152306004820152906020826024815f5160206123155f395f51905f525afa918215610fa0575f926118b1575b505f5160206123755f395f51905f5231600255610c88611975565b80600555610c946119e3565b9081600655610ca1611a18565b600755610cad82611a4d565b8060085580600a555f9060405193638622a68960e01b85526020856004815f5160206123755f395f51905f525afa805f9161187b575b610d489650611871575b5061ff009062ff000085610d2060ff60155497421116938460ff198916176015558683118061185f575b61184d57611a65565b601196919655856010551060101b169362ffffff19161791151560081b161717601555611b90565b60155460ff811615611188575060075490610d69610d646119e3565b611a4d565b5f5b608081106110ec575b50909150610d80611a18565b10156110d2575b5f5160206123755f395f51905f5231600355610da1611975565b80600b55610dc4610db06119e3565b80600c55610dbc611a18565b600d55611a4d565b80600e5580600f5560155463ff00000083831060181b169063ff0000001916176015558082116110bf575b50505f806040516020810190632385d93d60e21b825260048152610e14602482610b65565b5190825f5160206123755f395f51905f525af191610e30610be0565b92600160045565ff0000000000601554911560281b169065ff0000000000191617601555825167ffffffffffffffff8111610b8757610e70601654610b2d565b601f8111611057575b506020601f8211600114610fe957819293945f92610fde575b50508160011b915f199060031b1c1916176016555b6015549060ff8260081c169182610fb6575b5062ff000060015492151560101b1663ff00000060ff8262ff00001986161760101c161560181b169160ff838363ffff000019871617178060015560101c16610fab575b6040516370a0823160e01b81523060048201526020816024815f5160206123155f395f51905f525afa908115610fa0575f91610f6e575b5081811115610f635761ff0091610f4a91610bbf565b805f55151560081b169263ffffff001916171717600155565b505061ff005f610f4a565b90506020813d602011610f98575b81610f8960209383610b65565b8101031261024a57515f610f34565b3d9150610f7c565b6040513d5f823e3d90fd5b600354601455610efd565b90915060ff8160101c16908115610fd0575b50905f610eb9565b60ff915060181c165f610fc8565b015190505f80610e92565b601f1982169060165f525f5160206123555f395f51905f52915f5b81811061103f57509583600195969710611027575b505050811b01601655610ea7565b01515f1960f88460031b161c191690555f8080611019565b9192602060018192868b015181550194019201611004565b60165f52601f820160051c5f5160206123555f395f51905f520190602083106110aa575b601f0160051c5f5160206123555f395f51905f5201905b81811061109f5750610e79565b5f8155600101611092565b5f5160206123555f395f51905f52915061107b565b6110c891610bbf565b6013555f80610def565b64010000000064ff00000000196015541617601555610d87565b5f5160206123755f395f51905f523b1561024a5760405163a8feda5160e01b81525f81600481835f5160206123755f395f51905f525af19081611178575b50155f03610d745761113a611a18565b93841115611173578184101561115257600101610d6b565b5090915064010000000064ff0000000019601554161760155581905f610d74565b610d74565b5f61118291610b65565b5f61112a565b69ffff0000000000000000191669010100000000000000001760155560405163e6a4390560e01b81525f5160206123355f395f51905f5260048201525f5160206123155f395f51905f526024820152602081604481735c69bee701ef814a2b6a3edd4b1652cb9cc5aa6f5afa8015610fa0575f90611812575b61120b91506121ba565b60405163e6a4390560e01b81525f5160206123355f395f51905f52600482015273a0b86991c6218b36c1d19d4a2e9eb0ce3606eb486024820152602081604481735c69bee701ef814a2b6a3edd4b1652cb9cc5aa6f5afa8015610fa0575f906117d7575b61127991506121ba565b60405163e6a4390560e01b81525f5160206123355f395f51905f52600482015273dac17f958d2ee523a2206206994597c13d831ec76024820152602081604481735c69bee701ef814a2b6a3edd4b1652cb9cc5aa6f5afa8015610fa0575f9061179c575b6112e791506121ba565b60405163e6a4390560e01b81525f5160206123155f395f51905f52600482015273a0b86991c6218b36c1d19d4a2e9eb0ce3606eb486024820152602081604481735c69bee701ef814a2b6a3edd4b1652cb9cc5aa6f5afa8015610fa0575f90611761575b61135591506121ba565b60405163e6a4390560e01b81525f5160206123155f395f51905f52600482015273dac17f958d2ee523a2206206994597c13d831ec76024820152602081604481735c69bee701ef814a2b6a3edd4b1652cb9cc5aa6f5afa8015610fa0575f90611726575b6113c391506121ba565b60405163e6a4390560e01b81525f5160206123355f395f51905f5260048201525f5160206123155f395f51905f52602482015260208160448173c0aee478e3658e2610c5f7a4a2e1777ce9e4f2ac5afa8015610fa0575f906116eb575b61142a91506121ba565b60405163e6a4390560e01b81525f5160206123355f395f51905f52600482015273a0b86991c6218b36c1d19d4a2e9eb0ce3606eb48602482015260208160448173c0aee478e3658e2610c5f7a4a2e1777ce9e4f2ac5afa8015610fa0575f906116b0575b61149891506121ba565b60405163e6a4390560e01b81525f5160206123355f395f51905f52600482015273dac17f958d2ee523a2206206994597c13d831ec7602482015260208160448173c0aee478e3658e2610c5f7a4a2e1777ce9e4f2ac5afa8015610fa0575f90611675575b61150691506121ba565b60405163e6a4390560e01b81525f5160206123155f395f51905f52600482015273a0b86991c6218b36c1d19d4a2e9eb0ce3606eb48602482015260208160448173c0aee478e3658e2610c5f7a4a2e1777ce9e4f2ac5afa8015610fa0575f9061163a575b61157491506121ba565b60405163e6a4390560e01b81525f5160206123155f395f51905f52600482015273dac17f958d2ee523a2206206994597c13d831ec7602482015260208160448173c0aee478e3658e2610c5f7a4a2e1777ce9e4f2ac5afa8015610fa0575f906115ff575b6115e291506121ba565b6115ea611d1b565b6115f2611eaa565b6115fa612032565b610d87565b506020813d602011611632575b8161161960209383610b65565b8101031261024a5761162d6115e291611cc8565b6115d8565b3d915061160c565b506020813d60201161166d575b8161165460209383610b65565b8101031261024a5761166861157491611cc8565b61156a565b3d9150611647565b506020813d6020116116a8575b8161168f60209383610b65565b8101031261024a576116a361150691611cc8565b6114fc565b3d9150611682565b506020813d6020116116e3575b816116ca60209383610b65565b8101031261024a576116de61149891611cc8565b61148e565b3d91506116bd565b506020813d60201161171e575b8161170560209383610b65565b8101031261024a5761171961142a91611cc8565b611420565b3d91506116f8565b506020813d602011611759575b8161174060209383610b65565b8101031261024a576117546113c391611cc8565b6113b9565b3d9150611733565b506020813d602011611794575b8161177b60209383610b65565b8101031261024a5761178f61135591611cc8565b61134b565b3d915061176e565b506020813d6020116117cf575b816117b660209383610b65565b8101031261024a576117ca6112e791611cc8565b6112dd565b3d91506117a9565b506020813d60201161180a575b816117f160209383610b65565b8101031261024a5761180561127991611cc8565b61126f565b3d91506117e4565b506020813d602011611845575b8161182c60209383610b65565b8101031261024a5761184061120b91611cc8565b611201565b3d915061181f565b6118578784610bbf565b600955611a65565b6118698885610bbf565b601255610d17565b925061ff00610ced565b90506020863d6020116118a9575b8161189660209383610b65565b8101031261024a57610d48955190610ce3565b3d9150611889565b9091506020813d6020116118dd575b816118cd60209383610b65565b8101031261024a5751905f610c6d565b3d91506118c0565b50565b60015460ff8160101c1661194d5760181c60ff166119285760405161190e604082610b65565b600a8152691d5b9c995cdbdb1d995960b21b602082015290565b604051611936604082610b65565b60078152661c99599d5d195960ca1b602082015290565b5060405161195c604082610b65565b60098152681d985b1a59185d195960ba1b602082015290565b604051634581a09b60e11b81525f91906020816004815f5160206123755f395f51905f525afa5f91816119af575b506119ab5750565b9150565b9091506020813d6020116119db575b816119cb60209383610b65565b8101031261024a5751905f6119a3565b3d91506119be565b60405163061f04c160e41b81525f91906020816004815f5160206123755f395f51905f525afa5f91816119af57506119ab5750565b60405163ba8834fd60e01b81525f91906020816004815f5160206123755f395f51905f525afa5f91816119af57506119ab5750565b80611a5757505f90565b5f198101908111610bcc5790565b5f915f9160015b818110611a77575050565b5f5f906040516317daf56160e11b81528360048201526080816024815f5160206123755f395f51905f525afa905f5f90835f935f95611b1d575b50611b04575b5050505069ffffffffffffffffffff161580611af9575b611af05760ff1660018111611ae857506001905b01611a6c565b909450925050565b50600190611ae2565b5060ff811615611ace565b509093509150819069ffffffffffffffffffff5f611ab7565b9350935050506080813d8211611b88575b81611b3b60809383610b65565b8101031261024a57611b4c81611cc8565b90602081015169ffffffffffffffffffff8116810361024a57611b7d6060611b7660408501611cdc565b9301611cdc565b92909192935f611ab1565b3d9150611b2e565b6040516340687f5560e11b81525f906020816004815f5160206123755f395f51905f525afa5f9181611c8c575b50611c84575b5060018060a01b03168015906015549260ff60381b831560381b16928360ff60381b19861617601555611c7e5760049160205f91604051948580926319031fa960e11b82525afa805f91611c43575b66ff0000000000009450611c3b575b50101560301b169167ffff00000000000019161717601555565b90505f611c21565b90506020843d602011611c76575b81611c5e60209383610b65565b8101031261024a5766ff000000000000935190611c12565b3d9150611c51565b50505050565b90505f611bc3565b9091506020813d602011611cc0575b81611ca860209383610b65565b8101031261024a57611cb990611cc8565b905f611bbd565b3d9150611c9b565b51906001600160a01b038216820361024a57565b519060ff8216820361024a57565b805115611cf75760200190565b634e487b7160e01b5f52603260045260245ffd5b805160011015611cf75760400190565b6040516370a0823160e01b81523060048201526020816024815f5160206123355f395f51905f525afa908115610fa0575f91611e78575b5080156118e557611d6f5f5160206123355f395f51905f52612201565b611d86815f5160206123355f395f51905f526122ce565b60405190611d95606083610b65565b600282526020820160403682375f5160206123355f395f51905f52611db984611cea565b525f5160206123155f395f51905f52611dd184611d0b565b526040519160208301936338ed173960e01b855260c484019160248501525f604485015260a060648501525180915260e4830191905f5b818110611e59575050509181611e365f949385943060848301524260a483015203601f198101835282610b65565b519082737a250d5630b4cf539739df2c5dacb4c659f2488d5af1506118e5610be0565b82516001600160a01b0316845260209384019390920191600101611e08565b90506020813d602011611ea2575b81611e9360209383610b65565b8101031261024a57515f611d52565b3d9150611e86565b6040516370a0823160e01b815230600482015260208160248173a0b86991c6218b36c1d19d4a2e9eb0ce3606eb485afa908115610fa0575f91612000575b5080156118e557611f0c73a0b86991c6218b36c1d19d4a2e9eb0ce3606eb48612201565b611f2a8173a0b86991c6218b36c1d19d4a2e9eb0ce3606eb486122ce565b60405190611f39606083610b65565b6002825260208201604036823773a0b86991c6218b36c1d19d4a2e9eb0ce3606eb48611f6484611cea565b525f5160206123155f395f51905f52611f7c84611d0b565b526040519160208301936338ed173960e01b855260c484019160248501525f604485015260a060648501525180915260e4830191905f5b818110611fe1575050509181611e365f949385943060848301524260a483015203601f198101835282610b65565b82516001600160a01b0316845260209384019390920191600101611fb3565b90506020813d60201161202a575b8161201b60209383610b65565b8101031261024a57515f611ee8565b3d915061200e565b6040516370a0823160e01b815230600482015260208160248173dac17f958d2ee523a2206206994597c13d831ec75afa908115610fa0575f91612188575b5080156118e55761209473dac17f958d2ee523a2206206994597c13d831ec7612201565b6120b28173dac17f958d2ee523a2206206994597c13d831ec76122ce565b604051906120c1606083610b65565b6002825260208201604036823773dac17f958d2ee523a2206206994597c13d831ec76120ec84611cea565b525f5160206123155f395f51905f5261210484611d0b565b526040519160208301936338ed173960e01b855260c484019160248501525f604485015260a060648501525180915260e4830191905f5b818110612169575050509181611e365f949385943060848301524260a483015203601f198101835282610b65565b82516001600160a01b031684526020938401939092019160010161213b565b90506020813d6020116121b2575b816121a360209383610b65565b8101031261024a57515f612070565b3d9150612196565b6001600160a01b038116156118e5575f809160405182602082019163bc25cf7760e01b8352306024820152602481526121f4604482610b65565b51925af1506118e5610be0565b5f809160405182602082019163095ea7b360e01b8352737a250d5630b4cf539739df2c5dacb4c659f2488d602482015281604482015260448152612246606482610b65565b51925af1612252610be0565b81612296575b501561226057565b60405162461bcd60e51b815260206004820152600e60248201526d185c1c1c9bdd994819985a5b195960921b6044820152606490fd5b80518015925082156122ab575b50505f612258565b819250906020918101031261024a5760200151801515810361024a575f806122a3565b5f9190829182604051602081019263095ea7b360e01b8452737a250d5630b4cf539739df2c5dacb4c659f2488d6024830152604482015260448152612246606482610b6556fe000000000000000000000000c02aaa39b223fe8d0a0e5c4f27ead9083c756cc20000000000000000000000006b175474e89094c44da98b954eedeac495271d0fd833147d7dc355ba459fc788f669e58cfaf9dc25ddcd0702e87d69c7b5124289000000000000000000000000f42c318dbfbaab0eee040279c6a2588fa01a961da26469706673582212209c2731a2f9b7d5612f265b4003d996294928c221964d7692f8d85c7142c0e04364736f6c634300081e0033","linkReferences":{}},"methodIdentifiers":{"DAI()":"e0bab4c4","SUSHISWAP_FACTORY()":"495c0f9b","TARGET()":"cc1f2afa","UNISWAP_V2_FACTORY()":"99d8fae3","UNISWAP_V2_ROUTER()":"a82ed9ec","USDC()":"89a30271","USDT()":"c54e44eb","WETH()":"ad5c4648","airdropContractWasSet()":"448ca60f","airdropGateAlreadySatisfied()":"2760fae9","auctionExpired()":"6a3f5146","bidIndexAfter()":"c85cf137","bidIndexBefore()":"2eb5dfb6","claimRevertData()":"0c079f65","economicallyLockedEth()":"f918b3f4","executeOnOpportunity()":"3c2448ed","executed()":"31a38c89","exploitPathUsed()":"d78c4281","extraNftsOverRecordCountBefore()":"0b2eca32","firstAggregatedRecordBidCount()":"17994b0e","firstAggregatedRecordIndex()":"a581869c","flashswapFundingInfeasibleAtThisFork()":"89df82ca","foundAggregatedBidRecord()":"abddd45e","hypothesisRefuted()":"495f92f1","hypothesisState()":"a45d15f3","hypothesisValidated()":"463defd1","maxReachableRefundProgressAfter()":"a18c68dd","maxReachableRefundProgressBefore()":"e1d4c114","ownerClaimAttempted()":"b4ec69df","permanentLockConditionAfter()":"d236d56d","permanentLockConditionBefore()":"8b3d9811","permanentLockGapAfter()":"346cefbb","permanentLockGapBefore()":"1a1624fd","processedRefundsToCompletion()":"44ff6593","profitAmount()":"5ff972cc","profitToken()":"49343624","profitWasAchieved()":"19dc823f","recordCountAfter()":"e8ca92d4","recordCountBefore()":"286b5cb3","refundProgressAfter()":"8a673b19","refundProgressBefore()":"041e9733","targetBalanceAfter()":"e5daf854","targetBalanceBefore()":"e29c97ee","totalBidsAfter()":"5cf5dc61","totalBidsBefore()":"869036df","usedPublicLiquidityDustRoute()":"c6c9b9df","verifierCannotCallClaimProjectFunds()":"057891d3"},"id":0}