{"abi":[{"type":"constructor","inputs":[],"stateMutability":"nonpayable"},{"type":"function","name":"TARGET_PAIR","inputs":[],"outputs":[{"name":"","type":"address","internalType":"address"}],"stateMutability":"view"},{"type":"function","name":"attackerToken1After","inputs":[],"outputs":[{"name":"","type":"uint256","internalType":"uint256"}],"stateMutability":"view"},{"type":"function","name":"attackerToken1Before","inputs":[],"outputs":[{"name":"","type":"uint256","internalType":"uint256"}],"stateMutability":"view"},{"type":"function","name":"executeOnOpportunity","inputs":[],"outputs":[],"stateMutability":"nonpayable"},{"type":"function","name":"executed","inputs":[],"outputs":[{"name":"","type":"bool","internalType":"bool"}],"stateMutability":"view"},{"type":"function","name":"finalAttemptedAmount1Out","inputs":[],"outputs":[{"name":"","type":"uint256","internalType":"uint256"}],"stateMutability":"view"},{"type":"function","name":"hypothesisRefuted","inputs":[],"outputs":[{"name":"","type":"bool","internalType":"bool"}],"stateMutability":"view"},{"type":"function","name":"hypothesisValidated","inputs":[],"outputs":[{"name":"","type":"bool","internalType":"bool"}],"stateMutability":"view"},{"type":"function","name":"lastFailureReason","inputs":[],"outputs":[{"name":"","type":"string","internalType":"string"}],"stateMutability":"view"},{"type":"function","name":"profitAmount","inputs":[],"outputs":[{"name":"","type":"uint256","internalType":"uint256"}],"stateMutability":"view"},{"type":"function","name":"profitToken","inputs":[],"outputs":[{"name":"","type":"address","internalType":"address"}],"stateMutability":"view"},{"type":"function","name":"reserve0After","inputs":[],"outputs":[{"name":"","type":"uint112","internalType":"uint112"}],"stateMutability":"view"},{"type":"function","name":"reserve0Before","inputs":[],"outputs":[{"name":"","type":"uint112","internalType":"uint112"}],"stateMutability":"view"},{"type":"function","name":"reserve1After","inputs":[],"outputs":[{"name":"","type":"uint112","internalType":"uint112"}],"stateMutability":"view"},{"type":"function","name":"reserve1Before","inputs":[],"outputs":[{"name":"","type":"uint112","internalType":"uint112"}],"stateMutability":"view"},{"type":"function","name":"successfulAttempts","inputs":[],"outputs":[{"name":"","type":"uint256","internalType":"uint256"}],"stateMutability":"view"},{"type":"function","name":"successfulRounds","inputs":[],"outputs":[{"name":"","type":"uint256","internalType":"uint256"}],"stateMutability":"view"},{"type":"function","name":"token0","inputs":[],"outputs":[{"name":"","type":"address","internalType":"address"}],"stateMutability":"view"},{"type":"function","name":"token1","inputs":[],"outputs":[{"name":"","type":"address","internalType":"address"}],"stateMutability":"view"},{"type":"function","name":"triggerAttempts","inputs":[],"outputs":[{"name":"","type":"uint256","internalType":"uint256"}],"stateMutability":"view"}],"bytecode":{"object":"0x6080604052348015600e575f5ffd5b5061204d8061001c5f395ff3fe608060405234801561000f575f5ffd5b506004361061012a575f3560e01c8063495f92f1116100ab578063b89bf3381161006f578063b89bf338146102dc578063d21220a7146102fa578063ea486b4d14610318578063ed7a139f14610336578063f8fa884b146103545761012a565b8063495f92f1146102465780635ff972cc146102645780637e143f87146102825780637e68c85d146102a0578063ac7ab8d2146102be5761012a565b80633c2448ed116100f25780633c2448ed146101c4578063416eb8ee146101ce578063463defd1146101ec57806348f3ac751461020a57806349343624146102285761012a565b8063095842431461012e5780630dfe16811461014c578063125a14261461016a5780631f8200271461018857806331a38c89146101a6575b5f5ffd5b610136610372565b6040516101439190611667565b60405180910390f35b6101546103fe565b60405161016191906116c6565b60405180910390f35b610172610424565b60405161017f9190611707565b60405180910390f35b610190610444565b60405161019d9190611738565b60405180910390f35b6101ae61044a565b6040516101bb919061176b565b60405180910390f35b6101cc61045c565b005b6101d66109a4565b6040516101e39190611738565b60405180910390f35b6101f46109aa565b604051610201919061176b565b60405180910390f35b6102126109bd565b60405161021f9190611738565b60405180910390f35b6102306109c3565b60405161023d91906116c6565b60405180910390f35b61024e6109ea565b60405161025b919061176b565b60405180910390f35b61026c6109fb565b6040516102799190611738565b60405180910390f35b61028a610a04565b6040516102979190611738565b60405180910390f35b6102a8610a0a565b6040516102b59190611707565b60405180910390f35b6102c6610a2a565b6040516102d391906116c6565b60405180910390f35b6102e4610a42565b6040516102f19190611738565b60405180910390f35b610302610a48565b60405161030f91906116c6565b60405180910390f35b610320610a6d565b60405161032d9190611738565b60405180910390f35b61033e610a73565b60405161034b9190611707565b60405180910390f35b61035c610a92565b6040516103699190611707565b60405180910390f35b600c805461037f906117b1565b80601f01602080910402602001604051908101604052809291908181526020018280546103ab906117b1565b80156103f65780601f106103cd576101008083540402835291602001916103f6565b820191905f5260205f20905b8154815290600101906020018083116103d957829003601f168201915b505050505081565b600260039054906101000a900473ffffffffffffffffffffffffffffffffffffffff1681565b6005600e9054906101000a90046dffffffffffffffffffffffffffff1681565b600b5481565b60025f9054906101000a900460ff1681565b610464610ab1565b600160025f6101000a81548160ff0219169083151502179055505f7376ea342bc038d665e8a116392c82552d2605eda190508073ffffffffffffffffffffffffffffffffffffffff16630dfe16816040518163ffffffff1660e01b8152600401602060405180830381865afa1580156104df573d5f5f3e3d5ffd5b505050506040513d601f19601f820116820180604052508101906105039190611818565b600260036101000a81548173ffffffffffffffffffffffffffffffffffffffff021916908373ffffffffffffffffffffffffffffffffffffffff1602179055508073ffffffffffffffffffffffffffffffffffffffff1663d21220a76040518163ffffffff1660e01b8152600401602060405180830381865afa15801561058c573d5f5f3e3d5ffd5b505050506040513d601f19601f820116820180604052508101906105b09190611818565b60035f6101000a81548173ffffffffffffffffffffffffffffffffffffffff021916908373ffffffffffffffffffffffffffffffffffffffff1602179055508073ffffffffffffffffffffffffffffffffffffffff16630902f1ac6040518163ffffffff1660e01b8152600401606060405180830381865afa158015610638573d5f5f3e3d5ffd5b505050506040513d601f19601f8201168201806040525081019061065c91906118a6565b5060045f6004600e8491906101000a8154816dffffffffffffffffffffffffffff02191690836dffffffffffffffffffffffffffff1602179055508391906101000a8154816dffffffffffffffffffffffffffff02191690836dffffffffffffffffffffffffffff16021790555050506106f760035f9054906101000a900473ffffffffffffffffffffffffffffffffffffffff1630610cc7565b600681905550610705610e1d565b5f6001540361071f57610716610e6d565b61071e610e1d565b5b8073ffffffffffffffffffffffffffffffffffffffff16630902f1ac6040518163ffffffff1660e01b8152600401606060405180830381865afa158015610768573d5f5f3e3d5ffd5b505050506040513d601f19601f8201168201806040525081019061078c91906118a6565b5060055f6005600e8491906101000a8154816dffffffffffffffffffffffffffff02191690836dffffffffffffffffffffffffffff1602179055508391906101000a8154816dffffffffffffffffffffffffffff02191690836dffffffffffffffffffffffffffff160217905550505061082760035f9054906101000a900473ffffffffffffffffffffffffffffffffffffffff1630610cc7565b60078190555060065460075411156108e85760035f9054906101000a900473ffffffffffffffffffffffffffffffffffffffff165f5f6101000a81548173ffffffffffffffffffffffffffffffffffffffff021916908373ffffffffffffffffffffffffffffffffffffffff1602179055506006546007546108a99190611923565b6001819055506001600260016101000a81548160ff0219169083151502179055505f6002806101000a81548160ff0219169083151502179055506109a1565b5f5f5f6101000a81548173ffffffffffffffffffffffffffffffffffffffff021916908373ffffffffffffffffffffffffffffffffffffffff1602179055505f6001819055505f600260016101000a81548160ff02191690831515021790555060016002806101000a81548160ff0219169083151502179055505f600c8054610970906117b1565b9050036109a0576040518060600160405280603b8152602001611f7f603b9139600c908161099e9190611b23565b505b5b50565b60095481565b600260019054906101000a900460ff1681565b60085481565b5f5f5f9054906101000a900473ffffffffffffffffffffffffffffffffffffffff16905090565b60028054906101000a900460ff1681565b5f600154905090565b60065481565b6004600e9054906101000a90046dffffffffffffffffffffffffffff1681565b7376ea342bc038d665e8a116392c82552d2605eda181565b60075481565b60035f9054906101000a900473ffffffffffffffffffffffffffffffffffffffff1681565b600a5481565b60045f9054906101000a90046dffffffffffffffffffffffffffff1681565b60055f9054906101000a90046dffffffffffffffffffffffffffff1681565b5f600260016101000a81548160ff0219169083151502179055505f6002806101000a81548160ff0219169083151502179055505f600260036101000a81548173ffffffffffffffffffffffffffffffffffffffff021916908373ffffffffffffffffffffffffffffffffffffffff1602179055505f60035f6101000a81548173ffffffffffffffffffffffffffffffffffffffff021916908373ffffffffffffffffffffffffffffffffffffffff1602179055505f60045f6101000a8154816dffffffffffffffffffffffffffff02191690836dffffffffffffffffffffffffffff1602179055505f6004600e6101000a8154816dffffffffffffffffffffffffffff02191690836dffffffffffffffffffffffffffff1602179055505f60055f6101000a8154816dffffffffffffffffffffffffffff02191690836dffffffffffffffffffffffffffff1602179055505f6005600e6101000a8154816dffffffffffffffffffffffffffff02191690836dffffffffffffffffffffffffffff1602179055505f6006819055505f6007819055505f6008819055505f6009819055505f600a819055505f600b8190555060405180602001604052805f815250600c9081610c7e9190611b23565b505f5f5f6101000a81548173ffffffffffffffffffffffffffffffffffffffff021916908373ffffffffffffffffffffffffffffffffffffffff1602179055505f600181905550565b5f5f73ffffffffffffffffffffffffffffffffffffffff168373ffffffffffffffffffffffffffffffffffffffff1603610d03575f9050610e17565b5f5f8473ffffffffffffffffffffffffffffffffffffffff166370a0823160e01b85604051602401610d3591906116c6565b604051602081830303815290604052907bffffffffffffffffffffffffffffffffffffffffffffffffffffffff19166020820180517bffffffffffffffffffffffffffffffffffffffffffffffffffffffff8381831617835250505050604051610d9f9190611c36565b5f60405180830381855afa9150503d805f8114610dd7576040519150601f19603f3d011682016040523d82523d5f602084013e610ddc565b606091505b5091509150811580610def575060208151105b15610dfe575f92505050610e17565b80806020019051810190610e129190611c76565b925050505b92915050565b5f5f90505b6004811015610e6a575f610e3461119d565b925050505f8103610e455750610e6a565b600160085f828254610e579190611ca1565b9250508190555050806001019050610e22565b50565b5f604051806080016040528063a9059cbb60e01b7376ea342bc038d665e8a116392c82552d2605eda15f604051602401610ea8929190611d19565b604051602081830303815290604052907bffffffffffffffffffffffffffffffffffffffffffffffffffffffff19166020820180517bffffffffffffffffffffffffffffffffffffffffffffffffffffffff8381831617835250505050815260200163a9059cbb60e01b305f604051602401610f25929190611d19565b604051602081830303815290604052907bffffffffffffffffffffffffffffffffffffffffffffffffffffffff19166020820180517bffffffffffffffffffffffffffffffffffffffffffffffffffffffff838183161783525050505081526020017376ea342bc038d665e8a116392c82552d2605eda15f604051602401610fae929190611d19565b6040516020818303038152906040527f095ea7b3000000000000000000000000000000000000000000000000000000007bffffffffffffffffffffffffffffffffffffffffffffffffffffffff19166020820180517bffffffffffffffffffffffffffffffffffffffffffffffffffffffff83818316178352505050508152602001305f604051602401611043929190611d19565b6040516020818303038152906040527f095ea7b3000000000000000000000000000000000000000000000000000000007bffffffffffffffffffffffffffffffffffffffffffffffffffffffff19166020820180517bffffffffffffffffffffffffffffffffffffffffffffffffffffffff838183161783525050505081525090505f5f90505b6004811015611199576001600a5f8282546110e59190611ca1565b925050819055505f600260039054906101000a900473ffffffffffffffffffffffffffffffffffffffff1673ffffffffffffffffffffffffffffffffffffffff1683836004811061113957611138611d40565b5b602002015160405161114b9190611c36565b5f604051808303815f865af19150503d805f8114611184576040519150601f19603f3d011682016040523d82523d5f602084013e611189565b606091505b50509050508060010190506110ca565b5050565b5f5f5f5f7376ea342bc038d665e8a116392c82552d2605eda173ffffffffffffffffffffffffffffffffffffffff16630902f1ac6040518163ffffffff1660e01b8152600401606060405180830381865afa1580156111fe573d5f5f3e3d5ffd5b505050506040513d601f19601f8201168201806040525081019061122291906118a6565b509150505f816dffffffffffffffffffffffffffff1690506001811161127a57604051806060016040528060268152602001611ff260269139600c90816112699190611b23565b505f5f5f9450945094505050611486565b5f6112a660035f9054906101000a900473ffffffffffffffffffffffffffffffffffffffff1630610cc7565b90505f604051806101c00160405280600281526020016003815260200160048152602001600581526020016008815260200160108152602001602081526020016040815260200160808152602001610100815260200161020081526020016104008152602001610800815260200161100081525090505f5f90505b600e811015611442575f8282600e811061133e5761133d611d40565b5b60200201518561134e9190611d9a565b90505f81148061135e5750848110155b156113695750611437565b80600b819055505f5f61137b8361148b565b915091505f6113ab60035f9054906101000a900473ffffffffffffffffffffffffffffffffffffffff1630610cc7565b90505f8782116113bb575f6113c8565b87826113c79190611923565b5b90505f81111561140c57600160095f8282546113e49190611ca1565b925050819055508b8111156113fa57809b50849c505b809a5050505050505050505050611486565b8315801561141b57505f835114155b156114315782600c908161142f9190611b23565b505b50505050505b806001019050611321565b505f600c8054611451906117b1565b90500361148157604051806060016040528060388152602001611fba60389139600c908161147f9190611b23565b505b505050505b909192565b5f60607376ea342bc038d665e8a116392c82552d2605eda173ffffffffffffffffffffffffffffffffffffffff1663022c0d9f5f85306040518463ffffffff1660e01b81526004016114df93929190611e2d565b5f604051808303815f87803b1580156114f6575f5ffd5b505af1925050508015611507575060015b6115dc57611513611e81565b806308c379a00361153e5750611527611ed1565b80611532575061159c565b5f8192509250506115f2565b634e487b710361159c57611550611f60565b9061155b575061159c565b5f6040518060400160405280600d81526020017f737761702070616e69636b65640000000000000000000000000000000000000081525092509250506115f2565b5f6040518060400160405280600d81526020017f7377617020726576657274656400000000000000000000000000000000000000815250915091506115f2565b600160405180602001604052805f815250915091505b915091565b5f81519050919050565b5f82825260208201905092915050565b8281835e5f83830152505050565b5f601f19601f8301169050919050565b5f611639826115f7565b6116438185611601565b9350611653818560208601611611565b61165c8161161f565b840191505092915050565b5f6020820190508181035f83015261167f818461162f565b905092915050565b5f73ffffffffffffffffffffffffffffffffffffffff82169050919050565b5f6116b082611687565b9050919050565b6116c0816116a6565b82525050565b5f6020820190506116d95f8301846116b7565b92915050565b5f6dffffffffffffffffffffffffffff82169050919050565b611701816116df565b82525050565b5f60208201905061171a5f8301846116f8565b92915050565b5f819050919050565b61173281611720565b82525050565b5f60208201905061174b5f830184611729565b92915050565b5f8115159050919050565b61176581611751565b82525050565b5f60208201905061177e5f83018461175c565b92915050565b7f4e487b71000000000000000000000000000000000000000000000000000000005f52602260045260245ffd5b5f60028204905060018216806117c857607f821691505b6020821081036117db576117da611784565b5b50919050565b5f604051905090565b5f5ffd5b6117f7816116a6565b8114611801575f5ffd5b50565b5f81519050611812816117ee565b92915050565b5f6020828403121561182d5761182c6117ea565b5b5f61183a84828501611804565b91505092915050565b61184c816116df565b8114611856575f5ffd5b50565b5f8151905061186781611843565b92915050565b5f63ffffffff82169050919050565b6118858161186d565b811461188f575f5ffd5b50565b5f815190506118a08161187c565b92915050565b5f5f5f606084860312156118bd576118bc6117ea565b5b5f6118ca86828701611859565b93505060206118db86828701611859565b92505060406118ec86828701611892565b9150509250925092565b7f4e487b71000000000000000000000000000000000000000000000000000000005f52601160045260245ffd5b5f61192d82611720565b915061193883611720565b92508282039050818111156119505761194f6118f6565b5b92915050565b7f4e487b71000000000000000000000000000000000000000000000000000000005f52604160045260245ffd5b5f819050815f5260205f209050919050565b5f6020601f8301049050919050565b5f82821b905092915050565b5f600883026119df7fffffffffffffffffffffffffffffffffffffffffffffffffffffffffffffffff826119a4565b6119e986836119a4565b95508019841693508086168417925050509392505050565b5f819050919050565b5f611a24611a1f611a1a84611720565b611a01565b611720565b9050919050565b5f819050919050565b611a3d83611a0a565b611a51611a4982611a2b565b8484546119b0565b825550505050565b5f5f905090565b611a68611a59565b611a73818484611a34565b505050565b5b81811015611a9657611a8b5f82611a60565b600181019050611a79565b5050565b601f821115611adb57611aac81611983565b611ab584611995565b81016020851015611ac4578190505b611ad8611ad085611995565b830182611a78565b50505b505050565b5f82821c905092915050565b5f611afb5f1984600802611ae0565b1980831691505092915050565b5f611b138383611aec565b9150826002028217905092915050565b611b2c826115f7565b67ffffffffffffffff811115611b4557611b44611956565b5b611b4f82546117b1565b611b5a828285611a9a565b5f60209050601f831160018114611b8b575f8415611b79578287015190505b611b838582611b08565b865550611bea565b601f198416611b9986611983565b5f5b82811015611bc057848901518255600182019150602085019450602081019050611b9b565b86831015611bdd5784890151611bd9601f891682611aec565b8355505b6001600288020188555050505b505050505050565b5f81519050919050565b5f81905092915050565b5f611c1082611bf2565b611c1a8185611bfc565b9350611c2a818560208601611611565b80840191505092915050565b5f611c418284611c06565b915081905092915050565b611c5581611720565b8114611c5f575f5ffd5b50565b5f81519050611c7081611c4c565b92915050565b5f60208284031215611c8b57611c8a6117ea565b5b5f611c9884828501611c62565b91505092915050565b5f611cab82611720565b9150611cb683611720565b9250828201905080821115611cce57611ccd6118f6565b5b92915050565b5f819050919050565b5f60ff82169050919050565b5f611d03611cfe611cf984611cd4565b611a01565b611cdd565b9050919050565b611d1381611ce9565b82525050565b5f604082019050611d2c5f8301856116b7565b611d396020830184611d0a565b9392505050565b7f4e487b71000000000000000000000000000000000000000000000000000000005f52603260045260245ffd5b7f4e487b71000000000000000000000000000000000000000000000000000000005f52601260045260245ffd5b5f611da482611720565b9150611daf83611720565b925082611dbf57611dbe611d6d565b5b828204905092915050565b5f611de4611ddf611dda84611cd4565b611a01565b611720565b9050919050565b611df481611dca565b82525050565b5f82825260208201905092915050565b50565b5f611e185f83611dfa565b9150611e2382611e0a565b5f82019050919050565b5f608082019050611e405f830186611deb565b611e4d6020830185611729565b611e5a60408301846116b7565b8181036060830152611e6b81611e0d565b9050949350505050565b5f8160e01c9050919050565b5f60033d1115611e9d5760045f5f3e611e9a5f51611e75565b90505b90565b611ea98261161f565b810181811067ffffffffffffffff82111715611ec857611ec7611956565b5b80604052505050565b5f60443d10611f5d57611ee26117e1565b60043d036004823e80513d602482011167ffffffffffffffff82111715611f0a575050611f5d565b808201805167ffffffffffffffff811115611f285750505050611f5d565b80602083010160043d038501811115611f45575050505050611f5d565b611f5482602001850186611ea0565b82955050505050505b90565b5f5f60233d1115611f7a57602060045f3e600191505f5190505b909156fe4e6f207a65726f2d696e7075742073776170207969656c64656420746f6b656e312070726f666974206174207468697320666f726b20626c6f636b416c6c207a65726f2d696e70757420737761702073697a6573207265766572746564206f722072657475726e6564206e6f20746f6b656e315061697220686173206e6f20746f6b656e31207265736572766520746f207769746864726177a2646970667358221220389fd2383e99551e31b45d1259f254648374f5666ced3e02096b213955d3db9864736f6c634300081e0033","linkReferences":{}},"methodIdentifiers":{"TARGET_PAIR()":"ac7ab8d2","attackerToken1After()":"b89bf338","attackerToken1Before()":"7e143f87","executeOnOpportunity()":"3c2448ed","executed()":"31a38c89","finalAttemptedAmount1Out()":"1f820027","hypothesisRefuted()":"495f92f1","hypothesisValidated()":"463defd1","lastFailureReason()":"09584243","profitAmount()":"5ff972cc","profitToken()":"49343624","reserve0After()":"f8fa884b","reserve0Before()":"ed7a139f","reserve1After()":"125a1426","reserve1Before()":"7e68c85d","successfulAttempts()":"416eb8ee","successfulRounds()":"48f3ac75","token0()":"0dfe1681","token1()":"d21220a7","triggerAttempts()":"ea486b4d"},"id":0}