{"abi":[{"type":"constructor","inputs":[],"stateMutability":"nonpayable"},{"type":"receive","stateMutability":"payable"},{"type":"function","name":"beneficiary","inputs":[],"outputs":[{"name":"","type":"address","internalType":"address"}],"stateMutability":"view"},{"type":"function","name":"executeOnOpportunity","inputs":[],"outputs":[],"stateMutability":"payable"},{"type":"function","name":"pathReady","inputs":[],"outputs":[{"name":"","type":"bool","internalType":"bool"}],"stateMutability":"view"},{"type":"function","name":"profitAmount","inputs":[],"outputs":[{"name":"","type":"uint256","internalType":"uint256"}],"stateMutability":"view"},{"type":"function","name":"profitToken","inputs":[],"outputs":[{"name":"","type":"address","internalType":"address"}],"stateMutability":"view"},{"type":"function","name":"profitTokenCandidate","inputs":[],"outputs":[{"name":"","type":"address","internalType":"address"}],"stateMutability":"pure"},{"type":"function","name":"target","inputs":[],"outputs":[{"name":"","type":"address","internalType":"address"}],"stateMutability":"pure"}],"bytecode":{"object":"0x60808060405234603b57600180546001600160a01b03191673b0415d55f2c87b7f99285848bd341c367feac1ea1790556115c490816100408239f35b5f80fdfe608080604052600436101561001c575b50361561001a575f80fd5b005b5f3560e01c9081630cf9dea5146103725750806338af3eed1461034b5780633c2448ed1461010957806349343624146100e15780635ff972cc146100c4578063d4b839921461009d5763d796ef0214610075575f61000f565b34610099575f36600319011261009957602061008f610579565b6040519015158152f35b5f80fd5b34610099575f3660031901126100995760206040515f51602061156f5f395f51905f528152f35b34610099575f366003190112610099576020600254604051908152f35b34610099575f366003190112610099576001546040516001600160a01b039091168152602090f35b5f36600319011261009957306bffffffffffffffffffffffff60a01b5f5416175f5561013430610413565b6367ff15af4210156101c0575b8061014b30610413565b146101b3575b61015a30610413565b600180546001600160a01b03191673b0415d55f2c87b7f99285848bd341c367feac1ea17905590808211156101ab57810390811161019757600255005b634e487b7160e01b5f52601160045260245ffd5b50505f600255005b6101bb61076a565b610151565b6101c861049b565b806a52b7d2de2b3f1d00000000115f14610344576a52b7d2de2b3f1d00000000036a52b7d2de2b3f1d000000008111610197575b61020530610413565b908015158061033b575b6102dd575b505061021e6109e8565b610226610579565b156102cf575b610234610579565b15610141575f8060405160208101906366350d0360e11b82526004815261025c60248261039e565b5190825f51602061156f5f395f51905f525af16102776103d4565b501561028a576102856105c1565b610141565b60405162461bcd60e51b815260206004820152601960248201527f656d657267656e6379207769746864726177206661696c6564000000000000006044820152606490fd5b6102d7610c48565b5061022c565b6102ef918181111561033457506108f3565b156102fb578180610214565b60405162461bcd60e51b81526020600482015260116024820152701c9bd85c881d1bdc1d5c0819985a5b1959607a1b6044820152606490fd5b90506108f3565b5081151561020f565b505f6101fc565b34610099575f366003190112610099575f546040516001600160a01b039091168152602090f35b34610099575f366003190112610099578073b0415d55f2c87b7f99285848bd341c367feac1ea60209252f35b90601f8019910116810190811067ffffffffffffffff8211176103c057604052565b634e487b7160e01b5f52604160045260245ffd5b3d1561040e573d9067ffffffffffffffff82116103c05760405191610403601f8201601f19166020018461039e565b82523d5f602084013e565b606090565b905f80809360405160208101916370a0823160e01b835260018060a01b031660248201526024815261044660448261039e565b519073b0415d55f2c87b7f99285848bd341c367feac1ea5afa6104676103d4565b908061048f575b6104755750565b805191925060208082019282019190910312610099575190565b5060208151101561046e565b5f905f8060405160208101906370a0823160e01b82525f51602061156f5f395f51905f5260248201526024815261044660448261039e565b5f905f8060405160208101906370a0823160e01b82525f51602061156f5f395f51905f5260248201526024815261050b60448261039e565b51905f51602061156f5f395f51905f525afa6104676103d4565b905f80809360405160208101916370a0823160e01b835260018060a01b031660248201526024815261055860448261039e565b519073c02aaa39b223fe8d0a0e5c4f27ead9083c756cc25afa6104676103d4565b6367ff15af421015806105a5575b8061058f5790565b5063b9ce4d1360211b6105a06104d3565b101590565b506a52b7d2de2b3f1d000000006105ba61049b565b1015610587565b6105c961049b565b610768576105d630610413565b8015610765575f905f8060405160208101906370a0823160e01b82525f51602061156f5f395f51905f5260248201526024815261061460448261039e565b519073c02aaa39b223fe8d0a0e5c4f27ead9083c756cc25afa6106356103d4565b9080610759575b61073b575b50600182111561073757610694905f80604051602081019063fff6cae960e01b82526004815261067260248261039e565b5190825f51602061156f5f395f51905f525af15061068e6103d4565b506108f3565b156106f2575f198101908111610197576106af903090610e80565b156106b657565b60405162461bcd60e51b81526020600482015260146024820152730706f73742d647261696e207765746820737761760641b6044820152606490fd5b60405162461bcd60e51b815260206004820152601860248201527f706f73742d647261696e20726f6172207472616e7366657200000000000000006044820152606490fd5b5050565b8051919250602080820192820191909103126100995751905f610641565b5060208151101561063c565b50565b565b478015610765575f80916040516020810190630d0e30db60e41b82526004815261079560248261039e565b519173c02aaa39b223fe8d0a0e5c4f27ead9083c756cc25af16107b66103d4565b50156108b8576107c530610525565b8015610765576107d3610ff0565b9291921580156108b0575b80156108a8575b6108a357826107f491836111f9565b918215908115610898575b506107375761080d9061098a565b1561085c5761081d903090610f2c565b1561082457565b60405162461bcd60e51b815260206004820152601060248201526f1c9bd85c881cddd85c0819985a5b195960821b6044820152606490fd5b60405162461bcd60e51b81526020600482015260146024820152731dd95d1a081d1c985b9cd9995c8819985a5b195960621b6044820152606490fd5b90508210155f6107ff565b505050565b5080156107e5565b5082156107de565b60405162461bcd60e51b81526020600482015260136024820152721dd95d1a0819195c1bdcda5d0819985a5b1959606a1b6044820152606490fd5b5f8091604051602081019163a9059cbb60e01b83525f51602061156f5f395f51905f52602483015260448201526044815261092f60648261039e565b51908273b0415d55f2c87b7f99285848bd341c367feac1ea5af16109516103d4565b8161095a575090565b805180159250821561096b57505090565b8192509060209181010312610099576020015180151581036100995790565b5f8091604051602081019163a9059cbb60e01b83525f51602061156f5f395f51905f5260248301526044820152604481526109c660648261039e565b51908273c02aaa39b223fe8d0a0e5c4f27ead9083c756cc25af16109516103d4565b5f5b600381106109f55750565b6109fd611263565b801561073757610a0b61129a565b9080158015610c40575b610c295780610a2330610413565b108015610c2f575b610c2957610a38906108f3565b15610bf157610a469061098a565b15610bb9575f5f8060405160208101906335313c2160e11b825230602482015260248152610a7560448261039e565b5190825f51602061156f5f395f51905f525af1610a906103d4565b9080610bad575b610b91575b5080156108a3575f91829181811115610b8a57505b604051602081019163a9059cbb60e01b83525f51602061156f5f395f51905f526024830152604482015260448152610aea60648261039e565b5190825f51602061156f5f395f51905f525af1610b056103d4565b81610b52575b5015610b19576001016109ea565b60405162461bcd60e51b81526020600482015260116024820152703638103a37b83ab8103a3930b739b332b960791b6044820152606490fd5b8051801592508215610b67575b50505f610b0b565b819250906020918101031261009957602001518015158103610099575f80610b5f565b9050610ab1565b805160208083019350908201919091031261009957515f610a9c565b50602081511015610a97565b60405162461bcd60e51b815260206004820152601060248201526f3638103bb2ba34103a3930b739b332b960811b6044820152606490fd5b60405162461bcd60e51b815260206004820152601060248201526f3638103937b0b9103a3930b739b332b960811b6044820152606490fd5b50505050565b5081610c3a30610525565b10610a2b565b508115610a15565b6040516060810181811067ffffffffffffffff8211176103c057604052735c69bee701ef814a2b6a3edd4b1652cb9cc5aa6f815273c0aee478e3658e2610c5f7a4a2e1777ce9e4f2ac602082015273115934131916c8b277dd010ee02de363c09d037c604082015260405160a0810181811067ffffffffffffffff8211176103c05760405273c02aaa39b223fe8d0a0e5c4f27ead9083c756cc2815273a0b86991c6218b36c1d19d4a2e9eb0ce3606eb48602082015273dac17f958d2ee523a2206206994597c13d831ec76040820152736b175474e89094c44da98b954eedeac495271d0f6060820152732260fac5e5542a773aa44fbcfedf7c193bc2c59960808201525f5b60038110159283610e78575f5b6005811015610e6d5784610e595760018060a01b038360051b830151165f8060018060a01b038460051b88015116928193604051602081019163e6a4390560e01b835273b0415d55f2c87b7f99285848bd341c367feac1ea6024830152604482015260448152610dcc60648261039e565b51915afa610dd86103d4565b9080610e4d575b610e28575b506001600160a01b0381168015159081610e10575b50610e075750600101610d5b565b94505050505090565b5f51602061156f5f395f51905f52915014155f610df9565b80516001600160a01b039250610e46916020918101820191016113a7565b165f610de4565b50602081511015610ddf565b634e487b7160e01b5f52603260045260245ffd5b509250600101610d4e565b505050505f90565b90610e975f51602061156f5f395f51905f526113c6565b610ead5f51602061156f5f395f51905f52611436565b906001600160a01b031673c02aaa39b223fe8d0a0e5c4f27ead9083c756cc214610f14576001600160a01b031673c02aaa39b223fe8d0a0e5c4f27ead9083c756cc214610efa5750505f90565b610f11915f51602061156f5f395f51905f526114ed565b90565b50610f11915f51602061156f5f395f51905f5261145c565b90610f435f51602061156f5f395f51905f526113c6565b610f595f51602061156f5f395f51905f52611436565b906001600160a01b031673b0415d55f2c87b7f99285848bd341c367feac1ea14610f14576001600160a01b031673b0415d55f2c87b7f99285848bd341c367feac1ea14610efa5750505f90565b51906001600160701b038216820361009957565b9081606091031261009957610fce81610fa6565b916040610fdd60208401610fa6565b92015163ffffffff811681036100995790565b6110065f51602061156f5f395f51905f526113c6565b61101c5f51602061156f5f395f51905f52611436565b906001600160a01b031673b0415d55f2c87b7f99285848bd341c367feac1ea8114806111a2575b61112a5773c02aaa39b223fe8d0a0e5c4f27ead9083c756cc2149081611103575b50611071575f905f905f90565b604051630240bc6b60e21b8152906060826004815f51602061156f5f395f51905f525afa80156110f8575f925f916110b8575b506001600160701b03809116921690600190565b6001600160701b0393508391506110e69060603d6060116110f1575b6110de818361039e565b810190610fba565b5093909391506110a4565b503d6110d4565b6040513d5f823e3d90fd5b6001600160a01b031673b0415d55f2c87b7f99285848bd341c367feac1ea1490505f611064565b5050604051630240bc6b60e21b8152906060826004815f51602061156f5f395f51905f525afa9182156110f8575f905f9361117357506001600160701b03809116921690600190565b6001600160701b0393508391506111989060603d6060116110f1576110de818361039e565b50939091506110a4565b506001600160a01b03821673c02aaa39b223fe8d0a0e5c4f27ead9083c756cc214611043565b8181029291811591840414171561019757565b81156111e5570490565b634e487b7160e01b5f52601260045260245ffd5b91821580801561125b575b8015611253575b610e78576103e584029384046103e51417156101975761122b90836111c8565b916103e88202918083046103e8149015171561019757810180911161019757610f11916111db565b50811561120b565b508215611204565b61126b6104d3565b8063b9ce4d1360211b115f146112955763b9ce4d1360211b0363b9ce4d1360211b81116101975790565b505f90565b6112a2611263565b9081156113a0576112b1610ff0565b90915f915f8060405160208101906318160ddd60e01b8252600481526112d860248261039e565b51905f51602061156f5f395f51905f525afa6112f26103d4565b9080611394575b611376575b5015801561136e575b8015611366575b801561135e575b611353578161132761132c92876111c8565b6111db565b60018101809111610197576113459261132791956111c8565b600181018091116101975790565b50505090505f905f90565b508115611315565b50821561130e565b508015611307565b8051919350602080820192820191909103126100995751915f6112fe565b506020815110156112f9565b5f91508190565b9081602091031261009957516001600160a01b03811681036100995790565b905f8080936040516020810190630dfe168160e01b8252600481526113ec60248261039e565b51915afa6113f86103d4565b908061142a575b6114065750565b80519192506001600160a01b0391611426916020918101820191016113a7565b1690565b506020815110156113ff565b905f808093604051602081019063d21220a760e01b8252600481526113ec60248261039e565b5f92918380936114dd60c46040519261147660208561039e565b84845260206040519485928284019863022c0d9f60e01b8a52602485015287604485015260018060a01b031660648401526080608484015280519182918260a4860152018484015e85838284010152601f801991011681010301601f19810183528261039e565b51925af16114e96103d4565b5090565b5f92918380936114dd60c46040519261150760208561039e565b84845260206040519485928284019863022c0d9f60e01b8a52886024860152604485015260018060a01b031660648401526080608484015280519182918260a4860152018484015e85838284010152601f801991011681010301601f19810183528261039e56fe00000000000000000000000013028e6b95520ad16898396667d1e52cb5e550aca2646970667358221220f43c28833e09d5fae9f4d637ce65a78d7b718cc474bcea97eb7201746e9889fe64736f6c634300081e0033","linkReferences":{}},"methodIdentifiers":{"beneficiary()":"38af3eed","executeOnOpportunity()":"3c2448ed","pathReady()":"d796ef02","profitAmount()":"5ff972cc","profitToken()":"49343624","profitTokenCandidate()":"0cf9dea5","target()":"d4b83992"},"id":0}