{"abi":[{"type":"constructor","inputs":[],"stateMutability":"nonpayable"},{"type":"fallback","stateMutability":"payable"},{"type":"receive","stateMutability":"payable"},{"type":"function","name":"depositCallSucceeded","inputs":[],"outputs":[{"name":"","type":"bool","internalType":"bool"}],"stateMutability":"view"},{"type":"function","name":"ethBefore","inputs":[],"outputs":[{"name":"","type":"uint256","internalType":"uint256"}],"stateMutability":"view"},{"type":"function","name":"ethSentToHardcodedEndpoint","inputs":[],"outputs":[{"name":"","type":"uint256","internalType":"uint256"}],"stateMutability":"view"},{"type":"function","name":"executeOnOpportunity","inputs":[],"outputs":[],"stateMutability":"nonpayable"},{"type":"function","name":"exploitPath","inputs":[],"outputs":[{"name":"","type":"string","internalType":"string"}],"stateMutability":"pure"},{"type":"function","name":"hardcodedEndpointHasCode","inputs":[],"outputs":[{"name":"","type":"bool","internalType":"bool"}],"stateMutability":"view"},{"type":"function","name":"hypothesisRefuted","inputs":[],"outputs":[{"name":"","type":"bool","internalType":"bool"}],"stateMutability":"view"},{"type":"function","name":"hypothesisValidated","inputs":[],"outputs":[{"name":"","type":"bool","internalType":"bool"}],"stateMutability":"view"},{"type":"function","name":"profitAmount","inputs":[],"outputs":[{"name":"","type":"uint256","internalType":"uint256"}],"stateMutability":"view"},{"type":"function","name":"profitToken","inputs":[],"outputs":[{"name":"","type":"address","internalType":"address"}],"stateMutability":"view"},{"type":"function","name":"redeemableValueAfter","inputs":[],"outputs":[{"name":"","type":"uint256","internalType":"uint256"}],"stateMutability":"view"},{"type":"function","name":"wethAfter","inputs":[],"outputs":[{"name":"","type":"uint256","internalType":"uint256"}],"stateMutability":"view"},{"type":"function","name":"wethBefore","inputs":[],"outputs":[{"name":"","type":"uint256","internalType":"uint256"}],"stateMutability":"view"}],"bytecode":{"object":"0x608080604052346015576106ca908161001a8239f35b5f80fdfe608080604052600436101561001057005b5f3560e01c90816315fd8caa146104ed575080633b6a13d0146104d05780633c2448ed146103085780633c2de767146102e3578063463defd1146102c1578063493436241461029a578063495f92f1146102755780635ff972cc146102585780637e0b7f141461023b578063a5f84f081461021e578063cb707c62146100ea578063ce84a8d3146100cd5763d7d50fa4146100a757005b346100c9575f3660031901126100c957602060ff600854166040519015158152f35b5f80fd5b346100c9575f3660031901126100c9576020600454604051908152f35b346100c9575f3660031901126100c95760405161010860e082610507565b60b88152604060208201917f6465706c6f7920466c61775665726966696572206f6e2063757272656e74206383527f6861696e202d3e2066756e642077697468206e61746976652063757272656e63828201527f79202d3e2063616c6c20657865637574654f6e4f70706f7274756e697479282960608201527f202d3e205f7472794379636c6528292063616c6c73204957455448285745544860808201527f292e6465706f7369747b76616c75653a657468496e7d282920616761696e737460a08201527f2074686520686172642d636f64656420656e64706f696e74000000000000000060c08201528151928391602083525180918160208501528484015e5f828201840152601f01601f19168101030190f35b346100c9575f3660031901126100c9576020600554604051908152f35b346100c9575f3660031901126100c9576020600654604051908152f35b346100c9575f3660031901126100c9576020600154604051908152f35b346100c9575f3660031901126100c957602060ff60025460081c166040519015158152f35b346100c9575f3660031901126100c9575f546040516001600160a01b039091168152602090f35b346100c9575f3660031901126100c957602060ff600254166040519015158152f35b346100c9575f3660031901126100c957602060ff60085460081c166040519015158152f35b346100c9575f3660031901126100c9576bffffffffffffffffffffffff60a01b5f54165f555f60015561ffff19600254166002555f6004555f6005555f6006555f60075561ffff196008541680600855476003556103653061053d565b60055560ff73c02aaa39b223fe8d0a0e5c4f27ead9083c756cc23b1515161760085561038f6105fa565b6103983061053d565b80600655478181018091116104bc576007555f906005548082116104ab575b505080156104945773c02aaa39b223fe8d0a0e5c4f27ead9083c756cc26bffffffffffffffffffffffff60a01b5f5416175f55806001555b60014614801590610487575b1561043c575060ff60085460081c1680610431575b60ff6002549115151661ff00811560081b169161ffff191617176002555f80f35b506004541515610410565b60ff60085460081c16908161047b575b8161046e575b5061ff0060025491151560081b169061ffff1916176002555f80f35b9050600454111581610452565b6004541515915061044c565b5060ff60085416156103fb565b5f80546001600160a01b03191681556001556103ef565b8103915081116104bc5781806103b7565b634e487b7160e01b5f52601160045260245ffd5b346100c9575f3660031901126100c9576020600354604051908152f35b346100c9575f3660031901126100c9576020906007548152f35b90601f8019910116810190811067ffffffffffffffff82111761052957604052565b634e487b7160e01b5f52604160045260245ffd5b905f80809360405160208101916370a0823160e01b835260018060a01b0316602482015260248152610570604482610507565b519073c02aaa39b223fe8d0a0e5c4f27ead9083c756cc25afa3d156105f2573d9067ffffffffffffffff821161052957604051916105b8601f8201601f191660200184610507565b82523d5f602084013e5b806105e6575b6105cf5750565b9091506020818051810103126100c9576020015190565b506020815110156105c8565b6060906105c2565b478060045580156106865773c02aaa39b223fe8d0a0e5c4f27ead9083c756cc23b156100c9575f60049160405192838092630d0e30db60e41b825273c02aaa39b223fe8d0a0e5c4f27ead9083c756cc25af19081610676575b506106655761ff001960085416600855565b61010061ff00196008541617600855565b5f61068091610507565b5f610653565b5061ff00196008541660085556fea264697066735822122002ff58a43932840ac9e160100e54e918f952ea400e7bc3b84864b9ba85c5542e64736f6c634300081e0033","linkReferences":{}},"methodIdentifiers":{"depositCallSucceeded()":"3c2de767","ethBefore()":"3b6a13d0","ethSentToHardcodedEndpoint()":"ce84a8d3","executeOnOpportunity()":"3c2448ed","exploitPath()":"cb707c62","hardcodedEndpointHasCode()":"d7d50fa4","hypothesisRefuted()":"495f92f1","hypothesisValidated()":"463defd1","profitAmount()":"5ff972cc","profitToken()":"49343624","redeemableValueAfter()":"15fd8caa","wethAfter()":"7e0b7f14","wethBefore()":"a5f84f08"},"id":0}