{"abi":[{"type":"constructor","inputs":[],"stateMutability":"nonpayable"},{"type":"receive","stateMutability":"payable"},{"type":"function","name":"DAI","inputs":[],"outputs":[{"name":"","type":"address","internalType":"address"}],"stateMutability":"view"},{"type":"function","name":"MIM","inputs":[],"outputs":[{"name":"","type":"address","internalType":"address"}],"stateMutability":"view"},{"type":"function","name":"SUSHI_ROUTER","inputs":[],"outputs":[{"name":"","type":"address","internalType":"address"}],"stateMutability":"view"},{"type":"function","name":"TARGET","inputs":[],"outputs":[{"name":"","type":"address","internalType":"contract ICauldronV4Like"}],"stateMutability":"view"},{"type":"function","name":"TARGET_CAULDRON","inputs":[],"outputs":[{"name":"","type":"address","internalType":"address"}],"stateMutability":"view"},{"type":"function","name":"UNISWAP_V2_ROUTER","inputs":[],"outputs":[{"name":"","type":"address","internalType":"address"}],"stateMutability":"view"},{"type":"function","name":"USDC","inputs":[],"outputs":[{"name":"","type":"address","internalType":"address"}],"stateMutability":"view"},{"type":"function","name":"USDT","inputs":[],"outputs":[{"name":"","type":"address","internalType":"address"}],"stateMutability":"view"},{"type":"function","name":"WETH","inputs":[],"outputs":[{"name":"","type":"address","internalType":"address"}],"stateMutability":"view"},{"type":"function","name":"collateralToken","inputs":[],"outputs":[{"name":"","type":"address","internalType":"address"}],"stateMutability":"view"},{"type":"function","name":"convexDepositToken","inputs":[],"outputs":[{"name":"","type":"address","internalType":"address"}],"stateMutability":"view"},{"type":"function","name":"curveLpToken","inputs":[],"outputs":[{"name":"","type":"address","internalType":"address"}],"stateMutability":"view"},{"type":"function","name":"curvePool","inputs":[],"outputs":[{"name":"","type":"address","internalType":"address"}],"stateMutability":"view"},{"type":"function","name":"execute","inputs":[],"outputs":[{"name":"","type":"uint256","internalType":"uint256"}],"stateMutability":"nonpayable"},{"type":"function","name":"executeOnOpportunity","inputs":[],"outputs":[{"name":"","type":"uint256","internalType":"uint256"}],"stateMutability":"nonpayable"},{"type":"function","name":"exploit","inputs":[],"outputs":[{"name":"","type":"uint256","internalType":"uint256"}],"stateMutability":"nonpayable"},{"type":"function","name":"flashAmount","inputs":[],"outputs":[{"name":"","type":"uint256","internalType":"uint256"}],"stateMutability":"view"},{"type":"function","name":"flashFee","inputs":[],"outputs":[{"name":"","type":"uint256","internalType":"uint256"}],"stateMutability":"view"},{"type":"function","name":"hypothesisValidated","inputs":[],"outputs":[{"name":"","type":"bool","internalType":"bool"}],"stateMutability":"view"},{"type":"function","name":"lastBorrowAmount","inputs":[],"outputs":[{"name":"","type":"uint256","internalType":"uint256"}],"stateMutability":"view"},{"type":"function","name":"lastBorrowPart","inputs":[],"outputs":[{"name":"","type":"uint256","internalType":"uint256"}],"stateMutability":"view"},{"type":"function","name":"onFlashLoan","inputs":[{"name":"sender","type":"address","internalType":"address"},{"name":"token","type":"address","internalType":"contract IERC20Like"},{"name":"amount","type":"uint256","internalType":"uint256"},{"name":"fee","type":"uint256","internalType":"uint256"},{"name":"","type":"bytes","internalType":"bytes"}],"outputs":[],"stateMutability":"nonpayable"},{"type":"function","name":"probeBorrow","inputs":[{"name":"amount","type":"uint256","internalType":"uint256"}],"outputs":[],"stateMutability":"nonpayable"},{"type":"function","name":"profitAmount","inputs":[],"outputs":[{"name":"","type":"uint256","internalType":"uint256"}],"stateMutability":"view"},{"type":"function","name":"profitToken","inputs":[],"outputs":[{"name":"","type":"address","internalType":"address"}],"stateMutability":"pure"},{"type":"function","name":"run","inputs":[],"outputs":[{"name":"","type":"uint256","internalType":"uint256"}],"stateMutability":"nonpayable"},{"type":"function","name":"underlyingToken","inputs":[],"outputs":[{"name":"","type":"address","internalType":"address"}],"stateMutability":"view"},{"type":"function","name":"usedBorrowThenAccruePath","inputs":[],"outputs":[{"name":"","type":"bool","internalType":"bool"}],"stateMutability":"view"},{"type":"function","name":"usedRemoveThenUnsupportedPath","inputs":[],"outputs":[{"name":"","type":"bool","internalType":"bool"}],"stateMutability":"view"},{"type":"error","name":"BorrowProbeSucceeded","inputs":[]},{"type":"error","name":"ConcretePreconditionFailed","inputs":[{"name":"reason","type":"string","internalType":"string"}]},{"type":"error","name":"FlashLoanCallerMismatch","inputs":[]},{"type":"error","name":"FlashLoanSenderMismatch","inputs":[]},{"type":"error","name":"FlashLoanTokenMismatch","inputs":[]},{"type":"error","name":"UnauthorizedProbe","inputs":[]}],"bytecode":{"object":"0x6080604052348015600e575f5ffd5b50618e3f8061001c5f395ff3fe6080604052600436106101c5575f3560e01c8063646780df116100f6578063bd7a598c11610094578063cc1f2afa11610063578063cc1f2afa146105e6578063daec383d14610610578063e07df5b41461063a578063e0bab4c414610664576101cc565b8063bd7a598c1461053e578063c040622614610568578063c54e44eb14610592578063ca8ccab6146105bc576101cc565b8063a82ed9ec116100d0578063a82ed9ec14610496578063ad5c4648146104c0578063b2016bd4146104ea578063b570137a14610514576101cc565b8063646780df1461041857806389a3027114610442578063a6e59f531461046c576101cc565b8063463defd1116101635780635eb143ce1161013d5780635eb143ce146103705780635ff972cc1461039a57806361461954146103c457806363d9b770146103ee576101cc565b8063463defd1146102f4578063493436241461031e5780634ee8f10514610348576101cc565b806323e30c8b1161019f57806323e30c8b1461024e5780632495a599146102765780632900951a146102a05780633c2448ed146102ca576101cc565b80630c24f4fa146101d057806315aa44bd146101fa578063218751b214610224576101cc565b366101cc57005b5f5ffd5b3480156101db575f5ffd5b506101e461068e565b6040516101f191906176a6565b60405180910390f35b348015610205575f5ffd5b5061020e6106a6565b60405161021b91906176d9565b60405180910390f35b34801561022f575f5ffd5b506102386106b9565b60405161024591906176a6565b60405180910390f35b348015610259575f5ffd5b50610274600480360381019061026f91906177fc565b6106de565b005b348015610281575f5ffd5b5061028a6111fd565b60405161029791906176a6565b60405180910390f35b3480156102ab575f5ffd5b506102b4611222565b6040516102c191906176d9565b60405180910390f35b3480156102d5575f5ffd5b506102de611235565b6040516102eb91906178a1565b60405180910390f35b3480156102ff575f5ffd5b50610308611243565b60405161031591906176d9565b60405180910390f35b348015610329575f5ffd5b50610332611255565b60405161033f91906176a6565b60405180910390f35b348015610353575f5ffd5b5061036e600480360381019061036991906178ba565b611270565b005b34801561037b575f5ffd5b50610384611312565b60405161039191906176a6565b60405180910390f35b3480156103a5575f5ffd5b506103ae611337565b6040516103bb91906178a1565b60405180910390f35b3480156103cf575f5ffd5b506103d861133d565b6040516103e591906178a1565b60405180910390f35b3480156103f9575f5ffd5b5061040261134b565b60405161040f91906178a1565b60405180910390f35b348015610423575f5ffd5b5061042c611359565b60405161043991906176a6565b60405180910390f35b34801561044d575f5ffd5b5061045661137e565b60405161046391906176a6565b60405180910390f35b348015610477575f5ffd5b50610480611396565b60405161048d91906178a1565b60405180910390f35b3480156104a1575f5ffd5b506104aa61139c565b6040516104b791906176a6565b60405180910390f35b3480156104cb575f5ffd5b506104d46113b4565b6040516104e191906176a6565b60405180910390f35b3480156104f5575f5ffd5b506104fe6113cc565b60405161050b91906176a6565b60405180910390f35b34801561051f575f5ffd5b506105286113f0565b60405161053591906178a1565b60405180910390f35b348015610549575f5ffd5b506105526113f6565b60405161055f91906176a6565b60405180910390f35b348015610573575f5ffd5b5061057c61140e565b60405161058991906178a1565b60405180910390f35b34801561059d575f5ffd5b506105a661141c565b6040516105b391906176a6565b60405180910390f35b3480156105c7575f5ffd5b506105d0611434565b6040516105dd91906178a1565b60405180910390f35b3480156105f1575f5ffd5b506105fa61143a565b6040516106079190617940565b60405180910390f35b34801561061b575f5ffd5b50610624611452565b60405161063191906176a6565b60405180910390f35b348015610645575f5ffd5b5061064e61146a565b60405161065b91906178a1565b60405180910390f35b34801561066f575f5ffd5b50610678611470565b60405161068591906176a6565b60405180910390f35b73d9e1ce17f2641f24ae83637ab66a2cca9c378b9f81565b600a60029054906101000a900460ff1681565b60045f9054906101000a900473ffffffffffffffffffffffffffffffffffffffff1681565b5f7346f54d434063e5f1a2b2cc6d9aaa657b1b9ff82c73ffffffffffffffffffffffffffffffffffffffff16636b2ace876040518163ffffffff1660e01b8152600401602060405180830381865afa15801561073c573d5f5f3e3d5ffd5b505050506040513d601f19601f82011682018060405250810190610760919061796d565b90508073ffffffffffffffffffffffffffffffffffffffff163373ffffffffffffffffffffffffffffffffffffffff16146107c7576040517f1a51b24d00000000000000000000000000000000000000000000000000000000815260040160405180910390fd5b3073ffffffffffffffffffffffffffffffffffffffff168773ffffffffffffffffffffffffffffffffffffffff161461082c576040517fef908c5800000000000000000000000000000000000000000000000000000000815260040160405180910390fd5b5f5f9054906101000a900473ffffffffffffffffffffffffffffffffffffffff1673ffffffffffffffffffffffffffffffffffffffff168673ffffffffffffffffffffffffffffffffffffffff16146108b1576040517f351b6e5800000000000000000000000000000000000000000000000000000000815260040160405180910390fd5b84600881905550836009819055506108ea5f5f9054906101000a900473ffffffffffffffffffffffffffffffffffffffff168287611488565b5f8173ffffffffffffffffffffffffffffffffffffffff166302b9446c5f5f9054906101000a900473ffffffffffffffffffffffffffffffffffffffff16307346f54d434063e5f1a2b2cc6d9aaa657b1b9ff82c8a5f6040518663ffffffff1660e01b81526004016109609594939291906179d1565b60408051808303815f875af115801561097b573d5f5f3e3d5ffd5b505050506040513d601f19601f8201168201806040525081019061099f9190617a36565b9150505f81036109e4576040517f67fb15b10000000000000000000000000000000000000000000000000000000081526004016109db90617ace565b60405180910390fd5b7346f54d434063e5f1a2b2cc6d9aaa657b1b9ff82c73ffffffffffffffffffffffffffffffffffffffff1663860ffea1306001846040518463ffffffff1660e01b8152600401610a3693929190617aec565b5f604051808303815f87803b158015610a4d575f5ffd5b505af1158015610a5f573d5f5f3e3d5ffd5b505050505f7346f54d434063e5f1a2b2cc6d9aaa657b1b9ff82c73ffffffffffffffffffffffffffffffffffffffff16631c9e379b306040518263ffffffff1660e01b8152600401610ab191906176a6565b602060405180830381865afa158015610acc573d5f5f3e3d5ffd5b505050506040513d601f19601f82011682018060405250810190610af09190617b21565b03610b30576040517f67fb15b1000000000000000000000000000000000000000000000000000000008152600401610b2790617b96565b60405180910390fd5b5f610b39611721565b90505f8103610b7d576040517f67fb15b1000000000000000000000000000000000000000000000000000000008152600401610b7490617bfe565b60405180910390fd5b5f610b87826117ff565b5090505f811480610c2257505f7346f54d434063e5f1a2b2cc6d9aaa657b1b9ff82c73ffffffffffffffffffffffffffffffffffffffff166348e4163e306040518263ffffffff1660e01b8152600401610be191906176a6565b602060405180830381865afa158015610bfc573d5f5f3e3d5ffd5b505050506040513d601f19601f82011682018060405250810190610c209190617b21565b145b15610c62576040517f67fb15b1000000000000000000000000000000000000000000000000000000008152600401610c5990617c66565b60405180910390fd5b6001600a60016101000a81548160ff021916908315150217905550816006819055507346f54d434063e5f1a2b2cc6d9aaa657b1b9ff82c73ffffffffffffffffffffffffffffffffffffffff166348e4163e306040518263ffffffff1660e01b8152600401610cd191906176a6565b602060405180830381865afa158015610cec573d5f5f3e3d5ffd5b505050506040513d601f19601f82011682018060405250810190610d109190617b21565b600781905550610d337399d8a9c45b2eca8864373a26d1459e3dff1e17f3611ab1565b5f7346f54d434063e5f1a2b2cc6d9aaa657b1b9ff82c73ffffffffffffffffffffffffffffffffffffffff16631c9e379b306040518263ffffffff1660e01b8152600401610d8191906176a6565b602060405180830381865afa158015610d9c573d5f5f3e3d5ffd5b505050506040513d601f19601f82011682018060405250810190610dc09190617b21565b90505f8103610e04576040517f67fb15b1000000000000000000000000000000000000000000000000000000008152600401610dfb90617cce565b60405180910390fd5b610e0d81611c41565b6001600a60026101000a81548160ff021916908315150217905550610e515f5f9054906101000a900473ffffffffffffffffffffffffffffffffffffffff16611ab1565b5f888a610e5e9190617d19565b90505f5f5f9054906101000a900473ffffffffffffffffffffffffffffffffffffffff1673ffffffffffffffffffffffffffffffffffffffff166370a08231306040518263ffffffff1660e01b8152600401610eba91906176a6565b602060405180830381865afa158015610ed5573d5f5f3e3d5ffd5b505050506040513d601f19601f82011682018060405250810190610ef99190617b21565b905081811015610fb257610f178183610f129190617d4c565b611ee9565b5f5f9054906101000a900473ffffffffffffffffffffffffffffffffffffffff1673ffffffffffffffffffffffffffffffffffffffff166370a08231306040518263ffffffff1660e01b8152600401610f7091906176a6565b602060405180830381865afa158015610f8b573d5f5f3e3d5ffd5b505050506040513d601f19601f82011682018060405250810190610faf9190617b21565b90505b81811015610ff5576040517f67fb15b1000000000000000000000000000000000000000000000000000000008152600401610fec90617dc9565b60405180910390fd5b6110205f5f9054906101000a900473ffffffffffffffffffffffffffffffffffffffff168884612519565b5f7346f54d434063e5f1a2b2cc6d9aaa657b1b9ff82c73ffffffffffffffffffffffffffffffffffffffff166348e4163e306040518263ffffffff1660e01b815260040161106e91906176a6565b602060405180830381865afa158015611089573d5f5f3e3d5ffd5b505050506040513d601f19601f820116820180604052508101906110ad9190617b21565b11801561114457505f7346f54d434063e5f1a2b2cc6d9aaa657b1b9ff82c73ffffffffffffffffffffffffffffffffffffffff16631c9e379b306040518263ffffffff1660e01b815260040161110391906176a6565b602060405180830381865afa15801561111e573d5f5f3e3d5ffd5b505050506040513d601f19601f820116820180604052508101906111429190617b21565b145b600a5f6101000a81548160ff0219169083151502179055507399d8a9c45b2eca8864373a26d1459e3dff1e17f373ffffffffffffffffffffffffffffffffffffffff166370a08231306040518263ffffffff1660e01b81526004016111a991906176a6565b602060405180830381865afa1580156111c4573d5f5f3e3d5ffd5b505050506040513d601f19601f820116820180604052508101906111e89190617b21565b60058190555050505050505050505050505050565b60015f9054906101000a900473ffffffffffffffffffffffffffffffffffffffff1681565b600a60019054906101000a900460ff1681565b5f61123e612668565b905090565b600a5f9054906101000a900460ff1681565b5f7399d8a9c45b2eca8864373a26d1459e3dff1e17f3905090565b3073ffffffffffffffffffffffffffffffffffffffff163373ffffffffffffffffffffffffffffffffffffffff16146112d5576040517f0371982f00000000000000000000000000000000000000000000000000000000815260040160405180910390fd5b6112de816117ff565b50506040517fb25ec09800000000000000000000000000000000000000000000000000000000815260040160405180910390fd5b60025f9054906101000a900473ffffffffffffffffffffffffffffffffffffffff1681565b60055481565b5f611346612668565b905090565b5f611354612668565b905090565b60035f9054906101000a900473ffffffffffffffffffffffffffffffffffffffff1681565b73a0b86991c6218b36c1d19d4a2e9eb0ce3606eb4881565b60075481565b737a250d5630b4cf539739df2c5dacb4c659f2488d81565b73c02aaa39b223fe8d0a0e5c4f27ead9083c756cc281565b5f5f9054906101000a900473ffffffffffffffffffffffffffffffffffffffff1681565b60085481565b7346f54d434063e5f1a2b2cc6d9aaa657b1b9ff82c81565b5f611417612668565b905090565b73dac17f958d2ee523a2206206994597c13d831ec781565b60065481565b7346f54d434063e5f1a2b2cc6d9aaa657b1b9ff82c81565b7399d8a9c45b2eca8864373a26d1459e3dff1e17f381565b60095481565b736b175474e89094c44da98b954eedeac495271d0f81565b5f5f8473ffffffffffffffffffffffffffffffffffffffff1663095ea7b360e01b855f6040516024016114bc929190617e23565b604051602081830303815290604052907bffffffffffffffffffffffffffffffffffffffffffffffffffffffff19166020820180517bffffffffffffffffffffffffffffffffffffffffffffffffffffffff83818316178352505050506040516115269190617e9c565b5f604051808303815f865af19150503d805f811461155f576040519150601f19603f3d011682016040523d82523d5f602084013e611564565b606091505b509150915081801561159157505f8151148061159057508080602001905181019061158f9190617edc565b5b5b6115d0576040517f08c379a00000000000000000000000000000000000000000000000000000000081526004016115c790617f51565b60405180910390fd5b8473ffffffffffffffffffffffffffffffffffffffff1663095ea7b360e01b8585604051602401611602929190617f6f565b604051602081830303815290604052907bffffffffffffffffffffffffffffffffffffffffffffffffffffffff19166020820180517bffffffffffffffffffffffffffffffffffffffffffffffffffffffff838183161783525050505060405161166c9190617e9c565b5f604051808303815f865af19150503d805f81146116a5576040519150601f19603f3d011682016040523d82523d5f602084013e6116aa565b606091505b5080925081935050508180156116db57505f815114806116da5750808060200190518101906116d99190617edc565b5b5b61171a576040517f08c379a000000000000000000000000000000000000000000000000000000000815260040161171190617fe0565b60405180910390fd5b5050505050565b5f5f61172b612875565b90505f810361173d575f9150506117fc565b61174681612d93565b1561175457809150506117fc565b5f8190505f600283611766919061802b565b90505b5f811415801561177f575061177d81612d93565b155b1561179b57809150600281611794919061802b565b9050611769565b5f81036117ad575f93505050506117fc565b5b6001816117bb9190617d19565b8211156117f5575f600183836117d19190617d19565b901c90506117de81612d93565b156117eb578091506117ef565b8092505b506117ae565b8093505050505b90565b5f5f7f7fffffffffffffffffffffffffffffffffffffffffffffffffffffffffffffff831115611864576040517f67fb15b100000000000000000000000000000000000000000000000000000000815260040161185b906180a5565b60405180910390fd5b5f600267ffffffffffffffff8111156118805761187f6180c3565b5b6040519080825280602002602001820160405280156118ae5781602001602082028036833780820191505090505b5090505f600267ffffffffffffffff8111156118cd576118cc6180c3565b5b6040519080825280602002602001820160405280156118fb5781602001602082028036833780820191505090505b5090505f600267ffffffffffffffff81111561191a576119196180c3565b5b60405190808252806020026020018201604052801561194d57816020015b60608152602001906001900390816119385790505b5090506005835f81518110611965576119646180f0565b5b602002602001019060ff16908160ff1681525050853060405160200161198c929190618135565b604051602081830303815290604052815f815181106119ae576119ad6180f0565b5b60200260200101819052506008836001815181106119cf576119ce6180f0565b5b602002602001019060ff16908160ff168152505060405180602001604052805f81525081600181518110611a0657611a056180f0565b5b60200260200101819052507346f54d434063e5f1a2b2cc6d9aaa657b1b9ff82c73ffffffffffffffffffffffffffffffffffffffff1663656f3d648484846040518463ffffffff1660e01b8152600401611a62939291906183dd565b60408051808303815f875af1158015611a7d573d5f5f3e3d5ffd5b505050506040513d601f19601f82011682018060405250810190611aa19190617a36565b8095508196505050505050915091565b5f7346f54d434063e5f1a2b2cc6d9aaa657b1b9ff82c73ffffffffffffffffffffffffffffffffffffffff16636b2ace876040518163ffffffff1660e01b8152600401602060405180830381865afa158015611b0f573d5f5f3e3d5ffd5b505050506040513d601f19601f82011682018060405250810190611b33919061796d565b90505f8173ffffffffffffffffffffffffffffffffffffffff1663f7888aec84306040518363ffffffff1660e01b8152600401611b71929190618427565b602060405180830381865afa158015611b8c573d5f5f3e3d5ffd5b505050506040513d601f19601f82011682018060405250810190611bb09190617b21565b90505f8114611c3c578173ffffffffffffffffffffffffffffffffffffffff166397da6d308430305f866040518663ffffffff1660e01b8152600401611bfa95949392919061844e565b60408051808303815f875af1158015611c15573d5f5f3e3d5ffd5b505050506040513d601f19601f82011682018060405250810190611c399190617a36565b50505b505050565b7f7fffffffffffffffffffffffffffffffffffffffffffffffffffffffffffffff811115611ca4576040517f67fb15b1000000000000000000000000000000000000000000000000000000008152600401611c9b906184e9565b60405180910390fd5b5f600267ffffffffffffffff811115611cc057611cbf6180c3565b5b604051908082528060200260200182016040528015611cee5781602001602082028036833780820191505090505b5090505f600267ffffffffffffffff811115611d0d57611d0c6180c3565b5b604051908082528060200260200182016040528015611d3b5781602001602082028036833780820191505090505b5090505f600267ffffffffffffffff811115611d5a57611d596180c3565b5b604051908082528060200260200182016040528015611d8d57816020015b6060815260200190600190039081611d785790505b5090506004835f81518110611da557611da46180f0565b5b602002602001019060ff16908160ff16815250508330604051602001611dcc929190618135565b604051602081830303815290604052815f81518110611dee57611ded6180f0565b5b602002602001018190525060ff83600181518110611e0f57611e0e6180f0565b5b602002602001019060ff16908160ff168152505060405180602001604052805f81525081600181518110611e4657611e456180f0565b5b60200260200101819052507346f54d434063e5f1a2b2cc6d9aaa657b1b9ff82c73ffffffffffffffffffffffffffffffffffffffff1663656f3d648484846040518463ffffffff1660e01b8152600401611ea2939291906183dd565b60408051808303815f875af1158015611ebd573d5f5f3e3d5ffd5b505050506040513d601f19601f82011682018060405250810190611ee19190617a36565b505050505050565b5f810315612516575f7399d8a9c45b2eca8864373a26d1459e3dff1e17f373ffffffffffffffffffffffffffffffffffffffff166370a08231306040518263ffffffff1660e01b8152600401611f3f91906176a6565b602060405180830381865afa158015611f5a573d5f5f3e3d5ffd5b505050506040513d601f19601f82011682018060405250810190611f7e9190617b21565b90505f8103611f8d5750612516565b611fe173d9e1ce17f2641f24ae83637ab66a2cca9c378b9f7399d8a9c45b2eca8864373a26d1459e3dff1e17f35f5f9054906101000a900473ffffffffffffffffffffffffffffffffffffffff1684612ef9565b15611fec5750612516565b7399d8a9c45b2eca8864373a26d1459e3dff1e17f373ffffffffffffffffffffffffffffffffffffffff166370a08231306040518263ffffffff1660e01b815260040161203991906176a6565b602060405180830381865afa158015612054573d5f5f3e3d5ffd5b505050506040513d601f19601f820116820180604052508101906120789190617b21565b90505f81036120875750612516565b6120db737a250d5630b4cf539739df2c5dacb4c659f2488d7399d8a9c45b2eca8864373a26d1459e3dff1e17f35f5f9054906101000a900473ffffffffffffffffffffffffffffffffffffffff1684612ef9565b156120e65750612516565b5f73ffffffffffffffffffffffffffffffffffffffff1660015f9054906101000a900473ffffffffffffffffffffffffffffffffffffffff1673ffffffffffffffffffffffffffffffffffffffff16141580156121b057505f5f9054906101000a900473ffffffffffffffffffffffffffffffffffffffff1673ffffffffffffffffffffffffffffffffffffffff1660015f9054906101000a900473ffffffffffffffffffffffffffffffffffffffff1673ffffffffffffffffffffffffffffffffffffffff1614155b1561250a577399d8a9c45b2eca8864373a26d1459e3dff1e17f373ffffffffffffffffffffffffffffffffffffffff166370a08231306040518263ffffffff1660e01b815260040161220291906176a6565b602060405180830381865afa15801561221d573d5f5f3e3d5ffd5b505050506040513d601f19601f820116820180604052508101906122419190617b21565b90505f81141580156122a457506122a373d9e1ce17f2641f24ae83637ab66a2cca9c378b9f7399d8a9c45b2eca8864373a26d1459e3dff1e17f360015f9054906101000a900473ffffffffffffffffffffffffffffffffffffffff1684612ef9565b5b1561235f57815f5f9054906101000a900473ffffffffffffffffffffffffffffffffffffffff1673ffffffffffffffffffffffffffffffffffffffff166370a08231306040518263ffffffff1660e01b815260040161230391906176a6565b602060405180830381865afa15801561231e573d5f5f3e3d5ffd5b505050506040513d601f19601f820116820180604052508101906123429190617b21565b1015806123535750612352613173565b5b1561235e5750612516565b5b7399d8a9c45b2eca8864373a26d1459e3dff1e17f373ffffffffffffffffffffffffffffffffffffffff166370a08231306040518263ffffffff1660e01b81526004016123ac91906176a6565b602060405180830381865afa1580156123c7573d5f5f3e3d5ffd5b505050506040513d601f19601f820116820180604052508101906123eb9190617b21565b90505f811415801561244e575061244d737a250d5630b4cf539739df2c5dacb4c659f2488d7399d8a9c45b2eca8864373a26d1459e3dff1e17f360015f9054906101000a900473ffffffffffffffffffffffffffffffffffffffff1684612ef9565b5b1561250957815f5f9054906101000a900473ffffffffffffffffffffffffffffffffffffffff1673ffffffffffffffffffffffffffffffffffffffff166370a08231306040518263ffffffff1660e01b81526004016124ad91906176a6565b602060405180830381865afa1580156124c8573d5f5f3e3d5ffd5b505050506040513d601f19601f820116820180604052508101906124ec9190617b21565b1015806124fd57506124fc613173565b5b156125085750612516565b5b5b612513826138f2565b50505b50565b5f5f8473ffffffffffffffffffffffffffffffffffffffff1663a9059cbb60e01b858560405160240161254d929190617f6f565b604051602081830303815290604052907bffffffffffffffffffffffffffffffffffffffffffffffffffffffff19166020820180517bffffffffffffffffffffffffffffffffffffffffffffffffffffffff83818316178352505050506040516125b79190617e9c565b5f604051808303815f865af19150503d805f81146125f0576040519150601f19603f3d011682016040523d82523d5f602084013e6125f5565b606091505b509150915081801561262257505f815114806126215750808060200190518101906126209190617edc565b5b5b612661576040517f08c379a000000000000000000000000000000000000000000000000000000000815260040161265890618551565b60405180910390fd5b5050505050565b5f612671613e7f565b5f61267a61441b565b90505f81036126be576040517f67fb15b10000000000000000000000000000000000000000000000000000000081526004016126b5906185b9565b60405180910390fd5b7346f54d434063e5f1a2b2cc6d9aaa657b1b9ff82c73ffffffffffffffffffffffffffffffffffffffff16636b2ace876040518163ffffffff1660e01b8152600401602060405180830381865afa15801561271b573d5f5f3e3d5ffd5b505050506040513d601f19601f8201168201806040525081019061273f919061796d565b73ffffffffffffffffffffffffffffffffffffffff1663f1676d3730305f5f9054906101000a900473ffffffffffffffffffffffffffffffffffffffff168560405180602001604052805f8152506040518663ffffffff1660e01b81526004016127ad95949392919061863f565b5f604051808303815f87803b1580156127c4575f5ffd5b505af11580156127d6573d5f5f3e3d5ffd5b505050507399d8a9c45b2eca8864373a26d1459e3dff1e17f373ffffffffffffffffffffffffffffffffffffffff166370a08231306040518263ffffffff1660e01b815260040161282791906176a6565b602060405180830381865afa158015612842573d5f5f3e3d5ffd5b505050506040513d601f19601f820116820180604052508101906128669190617b21565b60058190555060055491505090565b5f5f7346f54d434063e5f1a2b2cc6d9aaa657b1b9ff82c73ffffffffffffffffffffffffffffffffffffffff16636b2ace876040518163ffffffff1660e01b8152600401602060405180830381865afa1580156128d4573d5f5f3e3d5ffd5b505050506040513d601f19601f820116820180604052508101906128f8919061796d565b90505f8173ffffffffffffffffffffffffffffffffffffffff1663f7888aec7399d8a9c45b2eca8864373a26d1459e3dff1e17f37346f54d434063e5f1a2b2cc6d9aaa657b1b9ff82c6040518363ffffffff1660e01b815260040161295e929190618427565b602060405180830381865afa158015612979573d5f5f3e3d5ffd5b505050506040513d601f19601f8201168201806040525081019061299d9190617b21565b90508173ffffffffffffffffffffffffffffffffffffffff1663566231187399d8a9c45b2eca8864373a26d1459e3dff1e17f3835f6040518463ffffffff1660e01b81526004016129f093929190618697565b602060405180830381865afa158015612a0b573d5f5f3e3d5ffd5b505050506040513d601f19601f82011682018060405250810190612a2f9190617b21565b92505f8303612a42575f92505050612d90565b5f7346f54d434063e5f1a2b2cc6d9aaa657b1b9ff82c73ffffffffffffffffffffffffffffffffffffffff1663aba024f46040518163ffffffff1660e01b8152600401602060405180830381865afa158015612aa0573d5f5f3e3d5ffd5b505050506040513d601f19601f82011682018060405250810190612ac49190617b21565b90505f5f7346f54d434063e5f1a2b2cc6d9aaa657b1b9ff82c73ffffffffffffffffffffffffffffffffffffffff16638285ef406040518163ffffffff1660e01b81526004016040805180830381865afa158015612b24573d5f5f3e3d5ffd5b505050506040513d601f19601f82011682018060405250810190612b489190618711565b915091505f5f7346f54d434063e5f1a2b2cc6d9aaa657b1b9ff82c73ffffffffffffffffffffffffffffffffffffffff1663e551d11d6040518163ffffffff1660e01b81526004016040805180830381865afa158015612baa573d5f5f3e3d5ffd5b505050506040513d601f19601f82011682018060405250810190612bce9190618711565b91509150836fffffffffffffffffffffffffffffffff16826fffffffffffffffffffffffffffffffff1611612c0c575f975050505050505050612d90565b5f846fffffffffffffffffffffffffffffffff16836fffffffffffffffffffffffffffffffff16612c3d9190617d4c565b90505f86620186a0612c4f9190617d19565b620186a083612c5e919061874f565b612c68919061802b565b905089811015612c76578099505b6fffffffffffffffffffffffffffffffff8016836fffffffffffffffffffffffffffffffff1614612d86575f5f866fffffffffffffffffffffffffffffffff1603612cfc5787620186a0612cca9190617d19565b620186a0856fffffffffffffffffffffffffffffffff16612ceb919061874f565b612cf5919061802b565b9050612d78565b5f866fffffffffffffffffffffffffffffffff16886fffffffffffffffffffffffffffffffff16866fffffffffffffffffffffffffffffffff16612d40919061874f565b612d4a919061802b565b905088620186a0612d5b9190617d19565b620186a082612d6a919061874f565b612d74919061802b565b9150505b8a811015612d8457809a505b505b5050505050505050505b90565b5f5f8203612da3575f9050612ef4565b5f5f3073ffffffffffffffffffffffffffffffffffffffff16634ee8f10560e01b85604051602401612dd591906178a1565b604051602081830303815290604052907bffffffffffffffffffffffffffffffffffffffffffffffffffffffff19166020820180517bffffffffffffffffffffffffffffffffffffffffffffffffffffffff8381831617835250505050604051612e3f9190617e9c565b5f604051808303815f865af19150503d805f8114612e78576040519150601f19603f3d011682016040523d82523d5f602084013e612e7d565b606091505b50915091508180612e8f575060048151105b15612e9e575f92505050612ef4565b5f6020820151905063b25ec09860e01b7bffffffffffffffffffffffffffffffffffffffffffffffffffffffff1916817bffffffffffffffffffffffffffffffffffffffffffffffffffffffff19161493505050505b919050565b5f5f821480612f3357505f73ffffffffffffffffffffffffffffffffffffffff168473ffffffffffffffffffffffffffffffffffffffff16145b80612f6957505f73ffffffffffffffffffffffffffffffffffffffff168373ffffffffffffffffffffffffffffffffffffffff16145b80612f9f57508273ffffffffffffffffffffffffffffffffffffffff168473ffffffffffffffffffffffffffffffffffffffff16145b15612fac575f905061316b565b5f612fb7858561458d565b9050612fc486828561467e565b15612fd357600191505061316b565b73c02aaa39b223fe8d0a0e5c4f27ead9083c756cc273ffffffffffffffffffffffffffffffffffffffff168573ffffffffffffffffffffffffffffffffffffffff1614158015613063575073c02aaa39b223fe8d0a0e5c4f27ead9083c756cc273ffffffffffffffffffffffffffffffffffffffff168473ffffffffffffffffffffffffffffffffffffffff1614155b15613092575f61307386866148d4565b905061308087828661467e565b156130905760019250505061316b565b505b73dac17f958d2ee523a2206206994597c13d831ec773ffffffffffffffffffffffffffffffffffffffff168573ffffffffffffffffffffffffffffffffffffffff1614158015613122575073dac17f958d2ee523a2206206994597c13d831ec773ffffffffffffffffffffffffffffffffffffffff168473ffffffffffffffffffffffffffffffffffffffff1614155b15613166575f6131478673dac17f958d2ee523a2206206994597c13d831ec787614a28565b905061315487828661467e565b156131645760019250505061316b565b505b5f9150505b949350505050565b5f5f73ffffffffffffffffffffffffffffffffffffffff1660015f9054906101000a900473ffffffffffffffffffffffffffffffffffffffff1673ffffffffffffffffffffffffffffffffffffffff16148061323b57505f5f9054906101000a900473ffffffffffffffffffffffffffffffffffffffff1673ffffffffffffffffffffffffffffffffffffffff1660015f9054906101000a900473ffffffffffffffffffffffffffffffffffffffff1673ffffffffffffffffffffffffffffffffffffffff16145b15613248575f90506138ef565b5f60015f9054906101000a900473ffffffffffffffffffffffffffffffffffffffff1673ffffffffffffffffffffffffffffffffffffffff166370a08231306040518263ffffffff1660e01b81526004016132a391906176a6565b602060405180830381865afa1580156132be573d5f5f3e3d5ffd5b505050506040513d601f19601f820116820180604052508101906132e29190617b21565b90505f81036132f4575f9150506138ef565b61334060015f9054906101000a900473ffffffffffffffffffffffffffffffffffffffff165f5f9054906101000a900473ffffffffffffffffffffffffffffffffffffffff1683611488565b5f5f5f9054906101000a900473ffffffffffffffffffffffffffffffffffffffff1673ffffffffffffffffffffffffffffffffffffffff166370a08231306040518263ffffffff1660e01b815260040161339a91906176a6565b602060405180830381865afa1580156133b5573d5f5f3e3d5ffd5b505050506040513d601f19601f820116820180604052508101906133d99190617b21565b90505f5f5f9054906101000a900473ffffffffffffffffffffffffffffffffffffffff1673ffffffffffffffffffffffffffffffffffffffff168360405160240161342491906178a1565b6040516020818303038152906040527fb6b55f25000000000000000000000000000000000000000000000000000000007bffffffffffffffffffffffffffffffffffffffffffffffffffffffff19166020820180517bffffffffffffffffffffffffffffffffffffffffffffffffffffffff83818316178352505050506040516134ae9190617e9c565b5f604051808303815f865af19150503d805f81146134e7576040519150601f19603f3d011682016040523d82523d5f602084013e6134ec565b606091505b505090508061360e575f5f9054906101000a900473ffffffffffffffffffffffffffffffffffffffff1673ffffffffffffffffffffffffffffffffffffffff16833060405160240161353f929190618790565b6040516020818303038152906040527f6e553f65000000000000000000000000000000000000000000000000000000007bffffffffffffffffffffffffffffffffffffffffffffffffffffffff19166020820180517bffffffffffffffffffffffffffffffffffffffffffffffffffffffff83818316178352505050506040516135c99190617e9c565b5f604051808303815f865af19150503d805f8114613602576040519150601f19603f3d011682016040523d82523d5f602084013e613607565b606091505b5050809150505b8061372a575f5f9054906101000a900473ffffffffffffffffffffffffffffffffffffffff1673ffffffffffffffffffffffffffffffffffffffff168360405160240161365b91906178a1565b6040516020818303038152906040527fea598cb0000000000000000000000000000000000000000000000000000000007bffffffffffffffffffffffffffffffffffffffffffffffffffffffff19166020820180517bffffffffffffffffffffffffffffffffffffffffffffffffffffffff83818316178352505050506040516136e59190617e9c565b5f604051808303815f865af19150503d805f811461371e576040519150601f19603f3d011682016040523d82523d5f602084013e613723565b606091505b5050809150505b80613846575f5f9054906101000a900473ffffffffffffffffffffffffffffffffffffffff1673ffffffffffffffffffffffffffffffffffffffff168360405160240161377791906178a1565b6040516020818303038152906040527fa59f3e0c000000000000000000000000000000000000000000000000000000007bffffffffffffffffffffffffffffffffffffffffffffffffffffffff19166020820180517bffffffffffffffffffffffffffffffffffffffffffffffffffffffff83818316178352505050506040516138019190617e9c565b5f604051808303815f865af19150503d805f811461383a576040519150601f19603f3d011682016040523d82523d5f602084013e61383f565b606091505b5050809150505b8080156138e95750815f5f9054906101000a900473ffffffffffffffffffffffffffffffffffffffff1673ffffffffffffffffffffffffffffffffffffffff166370a08231306040518263ffffffff1660e01b81526004016138a891906176a6565b602060405180830381865afa1580156138c3573d5f5f3e3d5ffd5b505050506040513d601f19601f820116820180604052508101906138e79190617b21565b115b93505050505b90565b5f5f73ffffffffffffffffffffffffffffffffffffffff1660035f9054906101000a900473ffffffffffffffffffffffffffffffffffffffff1673ffffffffffffffffffffffffffffffffffffffff16148061399a57505f73ffffffffffffffffffffffffffffffffffffffff1660045f9054906101000a900473ffffffffffffffffffffffffffffffffffffffff1673ffffffffffffffffffffffffffffffffffffffff16145b806139f157505f73ffffffffffffffffffffffffffffffffffffffff1660025f9054906101000a900473ffffffffffffffffffffffffffffffffffffffff1673ffffffffffffffffffffffffffffffffffffffff16145b156139fe575f9050613e7a565b5f7399d8a9c45b2eca8864373a26d1459e3dff1e17f373ffffffffffffffffffffffffffffffffffffffff166370a08231306040518263ffffffff1660e01b8152600401613a4c91906176a6565b602060405180830381865afa158015613a67573d5f5f3e3d5ffd5b505050506040513d601f19601f82011682018060405250810190613a8b9190617b21565b90505f8103613a9d575f915050613e7a565b613ae573d9e1ce17f2641f24ae83637ab66a2cca9c378b9f7399d8a9c45b2eca8864373a26d1459e3dff1e17f373dac17f958d2ee523a2206206994597c13d831ec784612ef9565b158015613b375750613b35737a250d5630b4cf539739df2c5dacb4c659f2488d7399d8a9c45b2eca8864373a26d1459e3dff1e17f373dac17f958d2ee523a2206206994597c13d831ec784612ef9565b155b15613b45575f915050613e7a565b5f73dac17f958d2ee523a2206206994597c13d831ec773ffffffffffffffffffffffffffffffffffffffff166370a08231306040518263ffffffff1660e01b8152600401613b9391906176a6565b602060405180830381865afa158015613bae573d5f5f3e3d5ffd5b505050506040513d601f19601f82011682018060405250810190613bd29190617b21565b90505f8103613be5575f92505050613e7a565b613c4760045f9054906101000a900473ffffffffffffffffffffffffffffffffffffffff1673dac17f958d2ee523a2206206994597c13d831ec78360035f9054906101000a900473ffffffffffffffffffffffffffffffffffffffff16614b69565b613c55575f92505050613e7a565b835f5f9054906101000a900473ffffffffffffffffffffffffffffffffffffffff1673ffffffffffffffffffffffffffffffffffffffff166370a08231306040518263ffffffff1660e01b8152600401613caf91906176a6565b602060405180830381865afa158015613cca573d5f5f3e3d5ffd5b505050506040513d601f19601f82011682018060405250810190613cee9190617b21565b10613cfe57600192505050613e7a565b60025f9054906101000a900473ffffffffffffffffffffffffffffffffffffffff1673ffffffffffffffffffffffffffffffffffffffff1660035f9054906101000a900473ffffffffffffffffffffffffffffffffffffffff1673ffffffffffffffffffffffffffffffffffffffff1614158015613da457505f613da260025f9054906101000a900473ffffffffffffffffffffffffffffffffffffffff16615359565b145b8015613db55750613db3615415565b155b15613dc4575f92505050613e7a565b835f5f9054906101000a900473ffffffffffffffffffffffffffffffffffffffff1673ffffffffffffffffffffffffffffffffffffffff166370a08231306040518263ffffffff1660e01b8152600401613e1e91906176a6565b602060405180830381865afa158015613e39573d5f5f3e3d5ffd5b505050506040513d601f19601f82011682018060405250810190613e5d9190617b21565b10613e6d57600192505050613e7a565b613e756159b9565b925050505b919050565b5f73ffffffffffffffffffffffffffffffffffffffff165f5f9054906101000a900473ffffffffffffffffffffffffffffffffffffffff1673ffffffffffffffffffffffffffffffffffffffff1603614419577346f54d434063e5f1a2b2cc6d9aaa657b1b9ff82c73ffffffffffffffffffffffffffffffffffffffff1663d8dfeb456040518163ffffffff1660e01b8152600401602060405180830381865afa158015613f2f573d5f5f3e3d5ffd5b505050506040513d601f19601f82011682018060405250810190613f53919061796d565b5f5f6101000a81548173ffffffffffffffffffffffffffffffffffffffff021916908373ffffffffffffffffffffffffffffffffffffffff160217905550613fba5f5f9054906101000a900473ffffffffffffffffffffffffffffffffffffffff1661601c565b60025f6101000a81548173ffffffffffffffffffffffffffffffffffffffff021916908373ffffffffffffffffffffffffffffffffffffffff1602179055505f73ffffffffffffffffffffffffffffffffffffffff1660025f9054906101000a900473ffffffffffffffffffffffffffffffffffffffff1673ffffffffffffffffffffffffffffffffffffffff16036140ae575f5f9054906101000a900473ffffffffffffffffffffffffffffffffffffffff1660025f6101000a81548173ffffffffffffffffffffffffffffffffffffffff021916908373ffffffffffffffffffffffffffffffffffffffff1602179055505b6140d860025f9054906101000a900473ffffffffffffffffffffffffffffffffffffffff166164b1565b60035f6101000a81548173ffffffffffffffffffffffffffffffffffffffff021916908373ffffffffffffffffffffffffffffffffffffffff1602179055505f73ffffffffffffffffffffffffffffffffffffffff1660035f9054906101000a900473ffffffffffffffffffffffffffffffffffffffff1673ffffffffffffffffffffffffffffffffffffffff16036141d4576141945f5f9054906101000a900473ffffffffffffffffffffffffffffffffffffffff166164b1565b60035f6101000a81548173ffffffffffffffffffffffffffffffffffffffff021916908373ffffffffffffffffffffffffffffffffffffffff1602179055505b6141fe60035f9054906101000a900473ffffffffffffffffffffffffffffffffffffffff16616946565b60045f6101000a81548173ffffffffffffffffffffffffffffffffffffffff021916908373ffffffffffffffffffffffffffffffffffffffff1602179055506142665f5f9054906101000a900473ffffffffffffffffffffffffffffffffffffffff1661601c565b60015f6101000a81548173ffffffffffffffffffffffffffffffffffffffff021916908373ffffffffffffffffffffffffffffffffffffffff1602179055505f73ffffffffffffffffffffffffffffffffffffffff1660015f9054906101000a900473ffffffffffffffffffffffffffffffffffffffff1673ffffffffffffffffffffffffffffffffffffffff16036143635761432360025f9054906101000a900473ffffffffffffffffffffffffffffffffffffffff1661601c565b60015f6101000a81548173ffffffffffffffffffffffffffffffffffffffff021916908373ffffffffffffffffffffffffffffffffffffffff1602179055505b5f73ffffffffffffffffffffffffffffffffffffffff1660015f9054906101000a900473ffffffffffffffffffffffffffffffffffffffff1673ffffffffffffffffffffffffffffffffffffffff1603614418575f5f9054906101000a900473ffffffffffffffffffffffffffffffffffffffff1660015f6101000a81548173ffffffffffffffffffffffffffffffffffffffff021916908373ffffffffffffffffffffffffffffffffffffffff1602179055505b5b565b5f5f7346f54d434063e5f1a2b2cc6d9aaa657b1b9ff82c73ffffffffffffffffffffffffffffffffffffffff16636b2ace876040518163ffffffff1660e01b8152600401602060405180830381865afa15801561447a573d5f5f3e3d5ffd5b505050506040513d601f19601f8201168201806040525081019061449e919061796d565b90505f5f5f9054906101000a900473ffffffffffffffffffffffffffffffffffffffff1673ffffffffffffffffffffffffffffffffffffffff166370a08231836040518263ffffffff1660e01b81526004016144fa91906176a6565b602060405180830381865afa158015614515573d5f5f3e3d5ffd5b505050506040513d601f19601f820116820180604052508101906145399190617b21565b90505f810361454c575f9250505061458a565b5f614555616b98565b90505f614568614563612875565b616eee565b905080945081851015614579578194505b82851115614585578294505b505050505b90565b6060600267ffffffffffffffff8111156145aa576145a96180c3565b5b6040519080825280602002602001820160405280156145d85781602001602082028036833780820191505090505b50905082815f815181106145ef576145ee6180f0565b5b602002602001019073ffffffffffffffffffffffffffffffffffffffff16908173ffffffffffffffffffffffffffffffffffffffff1681525050818160018151811061463e5761463d6180f0565b5b602002602001019073ffffffffffffffffffffffffffffffffffffffff16908173ffffffffffffffffffffffffffffffffffffffff168152505092915050565b5f5f820361468e575f90506148cd565b6002835110806146e357505f73ffffffffffffffffffffffffffffffffffffffff16835f815181106146c3576146c26180f0565b5b602002602001015173ffffffffffffffffffffffffffffffffffffffff16145b8061474057505f73ffffffffffffffffffffffffffffffffffffffff16836001855161470f9190617d4c565b815181106147205761471f6180f0565b5b602002602001015173ffffffffffffffffffffffffffffffffffffffff16145b1561474d575f90506148cd565b614756846171df565b158061476957506147678484617202565b155b15614776575f90506148cd565b81835f8151811061478a576147896180f0565b5b602002602001015173ffffffffffffffffffffffffffffffffffffffff166370a08231306040518263ffffffff1660e01b81526004016147ca91906176a6565b602060405180830381865afa1580156147e5573d5f5f3e3d5ffd5b505050506040513d601f19601f820116820180604052508101906148099190617b21565b1015614817575f90506148cd565b61483c835f8151811061482d5761482c6180f0565b5b60200260200101518584611488565b8373ffffffffffffffffffffffffffffffffffffffff166338ed1739835f8630426040518663ffffffff1660e01b815260040161487d95949392919061886e565b5f604051808303815f875af19250505080156148bb57506040513d5f823e3d601f19601f820116820180604052508101906148b891906189d1565b60015b6148c7575f90506148cd565b60019150505b9392505050565b6060600367ffffffffffffffff8111156148f1576148f06180c3565b5b60405190808252806020026020018201604052801561491f5781602001602082028036833780820191505090505b50905082815f81518110614936576149356180f0565b5b602002602001019073ffffffffffffffffffffffffffffffffffffffff16908173ffffffffffffffffffffffffffffffffffffffff168152505073c02aaa39b223fe8d0a0e5c4f27ead9083c756cc281600181518110614999576149986180f0565b5b602002602001019073ffffffffffffffffffffffffffffffffffffffff16908173ffffffffffffffffffffffffffffffffffffffff168152505081816002815181106149e8576149e76180f0565b5b602002602001019073ffffffffffffffffffffffffffffffffffffffff16908173ffffffffffffffffffffffffffffffffffffffff168152505092915050565b6060600367ffffffffffffffff811115614a4557614a446180c3565b5b604051908082528060200260200182016040528015614a735781602001602082028036833780820191505090505b50905083815f81518110614a8a57614a896180f0565b5b602002602001019073ffffffffffffffffffffffffffffffffffffffff16908173ffffffffffffffffffffffffffffffffffffffff16815250508281600181518110614ad957614ad86180f0565b5b602002602001019073ffffffffffffffffffffffffffffffffffffffff16908173ffffffffffffffffffffffffffffffffffffffff16815250508181600281518110614b2857614b276180f0565b5b602002602001019073ffffffffffffffffffffffffffffffffffffffff16908173ffffffffffffffffffffffffffffffffffffffff16815250509392505050565b5f614b75848685611488565b5f5f90505b600681101561534c575f614b8e87836173d5565b90508573ffffffffffffffffffffffffffffffffffffffff168173ffffffffffffffffffffffffffffffffffffffff1614614bc9575061533f565b5f8473ffffffffffffffffffffffffffffffffffffffff166370a08231306040518263ffffffff1660e01b8152600401614c0391906176a6565b602060405180830381865afa158015614c1e573d5f5f3e3d5ffd5b505050506040513d601f19601f82011682018060405250810190614c429190617b21565b90506002831015614e0257614c556175df565b86818560028110614c6957614c686180f0565b5b6020020181815250505f8973ffffffffffffffffffffffffffffffffffffffff16825f604051602401614c9d929190618a97565b6040516020818303038152906040527f0b4c7e4d000000000000000000000000000000000000000000000000000000007bffffffffffffffffffffffffffffffffffffffffffffffffffffffff19166020820180517bffffffffffffffffffffffffffffffffffffffffffffffffffffffff8381831617835250505050604051614d279190617e9c565b5f604051808303815f865af19150503d805f8114614d60576040519150601f19603f3d011682016040523d82523d5f602084013e614d65565b606091505b50509050808015614dec5750828773ffffffffffffffffffffffffffffffffffffffff166370a08231306040518263ffffffff1660e01b8152600401614dab91906176a6565b602060405180830381865afa158015614dc6573d5f5f3e3d5ffd5b505050506040513d601f19601f82011682018060405250810190614dea9190617b21565b115b15614dff57600195505050505050615351565b50505b6003831015614fc057614e13617601565b86818560038110614e2757614e266180f0565b5b6020020181815250505f8973ffffffffffffffffffffffffffffffffffffffff16825f604051602401614e5b929190618b3d565b6040516020818303038152906040527f4515cef3000000000000000000000000000000000000000000000000000000007bffffffffffffffffffffffffffffffffffffffffffffffffffffffff19166020820180517bffffffffffffffffffffffffffffffffffffffffffffffffffffffff8381831617835250505050604051614ee59190617e9c565b5f604051808303815f865af19150503d805f8114614f1e576040519150601f19603f3d011682016040523d82523d5f602084013e614f23565b606091505b50509050808015614faa5750828773ffffffffffffffffffffffffffffffffffffffff166370a08231306040518263ffffffff1660e01b8152600401614f6991906176a6565b602060405180830381865afa158015614f84573d5f5f3e3d5ffd5b505050506040513d601f19601f82011682018060405250810190614fa89190617b21565b115b15614fbd57600195505050505050615351565b50505b600483101561517e57614fd1617623565b86818560048110614fe557614fe46180f0565b5b6020020181815250505f8973ffffffffffffffffffffffffffffffffffffffff16825f604051602401615019929190618be3565b6040516020818303038152906040527f029b2f34000000000000000000000000000000000000000000000000000000007bffffffffffffffffffffffffffffffffffffffffffffffffffffffff19166020820180517bffffffffffffffffffffffffffffffffffffffffffffffffffffffff83818316178352505050506040516150a39190617e9c565b5f604051808303815f865af19150503d805f81146150dc576040519150601f19603f3d011682016040523d82523d5f602084013e6150e1565b606091505b505090508080156151685750828773ffffffffffffffffffffffffffffffffffffffff166370a08231306040518263ffffffff1660e01b815260040161512791906176a6565b602060405180830381865afa158015615142573d5f5f3e3d5ffd5b505050506040513d601f19601f820116820180604052508101906151669190617b21565b115b1561517b57600195505050505050615351565b50505b600583101561533c5761518f617645565b868185600581106151a3576151a26180f0565b5b6020020181815250505f8973ffffffffffffffffffffffffffffffffffffffff16825f6040516024016151d7929190618c89565b6040516020818303038152906040527f84738499000000000000000000000000000000000000000000000000000000007bffffffffffffffffffffffffffffffffffffffffffffffffffffffff19166020820180517bffffffffffffffffffffffffffffffffffffffffffffffffffffffff83818316178352505050506040516152619190617e9c565b5f604051808303815f865af19150503d805f811461529a576040519150601f19603f3d011682016040523d82523d5f602084013e61529f565b606091505b505090508080156153265750828773ffffffffffffffffffffffffffffffffffffffff166370a08231306040518263ffffffff1660e01b81526004016152e591906176a6565b602060405180830381865afa158015615300573d5f5f3e3d5ffd5b505050506040513d601f19601f820116820180604052508101906153249190617b21565b115b1561533957600195505050505050615351565b50505b50505b8080600101915050614b7a565b505f90505b949350505050565b5f5f73ffffffffffffffffffffffffffffffffffffffff168273ffffffffffffffffffffffffffffffffffffffff1603615395575f9050615410565b8173ffffffffffffffffffffffffffffffffffffffff166370a08231306040518263ffffffff1660e01b81526004016153ce91906176a6565b602060405180830381865afa1580156153e9573d5f5f3e3d5ffd5b505050506040513d601f19601f8201168201806040525081019061540d9190617b21565b90505b919050565b5f5f73ffffffffffffffffffffffffffffffffffffffff1660035f9054906101000a900473ffffffffffffffffffffffffffffffffffffffff1673ffffffffffffffffffffffffffffffffffffffff1614806154bd57505f73ffffffffffffffffffffffffffffffffffffffff1660025f9054906101000a900473ffffffffffffffffffffffffffffffffffffffff1673ffffffffffffffffffffffffffffffffffffffff16145b80615535575060025f9054906101000a900473ffffffffffffffffffffffffffffffffffffffff1673ffffffffffffffffffffffffffffffffffffffff1660035f9054906101000a900473ffffffffffffffffffffffffffffffffffffffff1673ffffffffffffffffffffffffffffffffffffffff16145b15615542575f90506159b6565b5f60035f9054906101000a900473ffffffffffffffffffffffffffffffffffffffff1673ffffffffffffffffffffffffffffffffffffffff166370a08231306040518263ffffffff1660e01b815260040161559d91906176a6565b602060405180830381865afa1580156155b8573d5f5f3e3d5ffd5b505050506040513d601f19601f820116820180604052508101906155dc9190617b21565b90505f81036155ee575f9150506159b6565b61563b60035f9054906101000a900473ffffffffffffffffffffffffffffffffffffffff1660025f9054906101000a900473ffffffffffffffffffffffffffffffffffffffff1683611488565b5f60025f9054906101000a900473ffffffffffffffffffffffffffffffffffffffff1673ffffffffffffffffffffffffffffffffffffffff166370a08231306040518263ffffffff1660e01b815260040161569691906176a6565b602060405180830381865afa1580156156b1573d5f5f3e3d5ffd5b505050506040513d601f19601f820116820180604052508101906156d59190617b21565b90505f60025f9054906101000a900473ffffffffffffffffffffffffffffffffffffffff1673ffffffffffffffffffffffffffffffffffffffff168360405160240161572191906178a1565b6040516020818303038152906040527fb6b55f25000000000000000000000000000000000000000000000000000000007bffffffffffffffffffffffffffffffffffffffffffffffffffffffff19166020820180517bffffffffffffffffffffffffffffffffffffffffffffffffffffffff83818316178352505050506040516157ab9190617e9c565b5f604051808303815f865af19150503d805f81146157e4576040519150601f19603f3d011682016040523d82523d5f602084013e6157e9565b606091505b505090508061590c5760025f9054906101000a900473ffffffffffffffffffffffffffffffffffffffff1673ffffffffffffffffffffffffffffffffffffffff16833060405160240161583d929190618790565b6040516020818303038152906040527f6e553f65000000000000000000000000000000000000000000000000000000007bffffffffffffffffffffffffffffffffffffffffffffffffffffffff19166020820180517bffffffffffffffffffffffffffffffffffffffffffffffffffffffff83818316178352505050506040516158c79190617e9c565b5f604051808303815f865af19150503d805f8114615900576040519150601f19603f3d011682016040523d82523d5f602084013e615905565b606091505b5050809150505b8080156159b057508160025f9054906101000a900473ffffffffffffffffffffffffffffffffffffffff1673ffffffffffffffffffffffffffffffffffffffff166370a08231306040518263ffffffff1660e01b815260040161596f91906176a6565b602060405180830381865afa15801561598a573d5f5f3e3d5ffd5b505050506040513d601f19601f820116820180604052508101906159ae9190617b21565b115b93505050505b90565b5f5f73ffffffffffffffffffffffffffffffffffffffff1660025f9054906101000a900473ffffffffffffffffffffffffffffffffffffffff1673ffffffffffffffffffffffffffffffffffffffff161480615a8157505f5f9054906101000a900473ffffffffffffffffffffffffffffffffffffffff1673ffffffffffffffffffffffffffffffffffffffff1660025f9054906101000a900473ffffffffffffffffffffffffffffffffffffffff1673ffffffffffffffffffffffffffffffffffffffff16145b15615a8e575f9050616019565b5f60025f9054906101000a900473ffffffffffffffffffffffffffffffffffffffff1673ffffffffffffffffffffffffffffffffffffffff166370a08231306040518263ffffffff1660e01b8152600401615ae991906176a6565b602060405180830381865afa158015615b04573d5f5f3e3d5ffd5b505050506040513d601f19601f82011682018060405250810190615b289190617b21565b90505f8103615b3a575f915050616019565b615b8660025f9054906101000a900473ffffffffffffffffffffffffffffffffffffffff165f5f9054906101000a900473ffffffffffffffffffffffffffffffffffffffff1683611488565b5f5f5f9054906101000a900473ffffffffffffffffffffffffffffffffffffffff1673ffffffffffffffffffffffffffffffffffffffff166370a08231306040518263ffffffff1660e01b8152600401615be091906176a6565b602060405180830381865afa158015615bfb573d5f5f3e3d5ffd5b505050506040513d601f19601f82011682018060405250810190615c1f9190617b21565b90505f5f5f9054906101000a900473ffffffffffffffffffffffffffffffffffffffff1673ffffffffffffffffffffffffffffffffffffffff1683604051602401615c6a91906178a1565b6040516020818303038152906040527fb6b55f25000000000000000000000000000000000000000000000000000000007bffffffffffffffffffffffffffffffffffffffffffffffffffffffff19166020820180517bffffffffffffffffffffffffffffffffffffffffffffffffffffffff8381831617835250505050604051615cf49190617e9c565b5f604051808303815f865af19150503d805f8114615d2d576040519150601f19603f3d011682016040523d82523d5f602084013e615d32565b606091505b5050905080615e54575f5f9054906101000a900473ffffffffffffffffffffffffffffffffffffffff1673ffffffffffffffffffffffffffffffffffffffff168330604051602401615d85929190618790565b6040516020818303038152906040527f6e553f65000000000000000000000000000000000000000000000000000000007bffffffffffffffffffffffffffffffffffffffffffffffffffffffff19166020820180517bffffffffffffffffffffffffffffffffffffffffffffffffffffffff8381831617835250505050604051615e0f9190617e9c565b5f604051808303815f865af19150503d805f8114615e48576040519150601f19603f3d011682016040523d82523d5f602084013e615e4d565b606091505b5050809150505b80615f70575f5f9054906101000a900473ffffffffffffffffffffffffffffffffffffffff1673ffffffffffffffffffffffffffffffffffffffff1683604051602401615ea191906178a1565b6040516020818303038152906040527fa694fc3a000000000000000000000000000000000000000000000000000000007bffffffffffffffffffffffffffffffffffffffffffffffffffffffff19166020820180517bffffffffffffffffffffffffffffffffffffffffffffffffffffffff8381831617835250505050604051615f2b9190617e9c565b5f604051808303815f865af19150503d805f8114615f64576040519150601f19603f3d011682016040523d82523d5f602084013e615f69565b606091505b5050809150505b8080156160135750815f5f9054906101000a900473ffffffffffffffffffffffffffffffffffffffff1673ffffffffffffffffffffffffffffffffffffffff166370a08231306040518263ffffffff1660e01b8152600401615fd291906176a6565b602060405180830381865afa158015615fed573d5f5f3e3d5ffd5b505050506040513d601f19601f820116820180604052508101906160119190617b21565b115b93505050505b90565b5f5f73ffffffffffffffffffffffffffffffffffffffff168273ffffffffffffffffffffffffffffffffffffffff1603616058575f90506164ac565b6160e4826040516024016040516020818303038152906040527f38d52e0f000000000000000000000000000000000000000000000000000000007bffffffffffffffffffffffffffffffffffffffffffffffffffffffff19166020820180517bffffffffffffffffffffffffffffffffffffffffffffffffffffffff8381831617835250505050617542565b90505f73ffffffffffffffffffffffffffffffffffffffff168173ffffffffffffffffffffffffffffffffffffffff16036164ac576161a5826040516024016040516020818303038152906040527ffc0c546a000000000000000000000000000000000000000000000000000000007bffffffffffffffffffffffffffffffffffffffffffffffffffffffff19166020820180517bffffffffffffffffffffffffffffffffffffffffffffffffffffffff8381831617835250505050617542565b90505f73ffffffffffffffffffffffffffffffffffffffff168173ffffffffffffffffffffffffffffffffffffffff16036164ac57616266826040516024016040516020818303038152906040527f6f307dc3000000000000000000000000000000000000000000000000000000007bffffffffffffffffffffffffffffffffffffffffffffffffffffffff19166020820180517bffffffffffffffffffffffffffffffffffffffffffffffffffffffff8381831617835250505050617542565b90505f73ffffffffffffffffffffffffffffffffffffffff168173ffffffffffffffffffffffffffffffffffffffff16036164ac57616327826040516024016040516020818303038152906040527f72f702f3000000000000000000000000000000000000000000000000000000007bffffffffffffffffffffffffffffffffffffffffffffffffffffffff19166020820180517bffffffffffffffffffffffffffffffffffffffffffffffffffffffff8381831617835250505050617542565b90505f73ffffffffffffffffffffffffffffffffffffffff168173ffffffffffffffffffffffffffffffffffffffff16036164ac576163e8826040516024016040516020818303038152906040527fc89039c5000000000000000000000000000000000000000000000000000000007bffffffffffffffffffffffffffffffffffffffffffffffffffffffff19166020820180517bffffffffffffffffffffffffffffffffffffffffffffffffffffffff8381831617835250505050617542565b90505f73ffffffffffffffffffffffffffffffffffffffff168173ffffffffffffffffffffffffffffffffffffffff16036164ac576164a9826040516024016040516020818303038152906040527f1f1fcd51000000000000000000000000000000000000000000000000000000007bffffffffffffffffffffffffffffffffffffffffffffffffffffffff19166020820180517bffffffffffffffffffffffffffffffffffffffffffffffffffffffff8381831617835250505050617542565b90505b919050565b5f5f73ffffffffffffffffffffffffffffffffffffffff168273ffffffffffffffffffffffffffffffffffffffff16036164ed575f9050616941565b616579826040516024016040516020818303038152906040527f646780df000000000000000000000000000000000000000000000000000000007bffffffffffffffffffffffffffffffffffffffffffffffffffffffff19166020820180517bffffffffffffffffffffffffffffffffffffffffffffffffffffffff8381831617835250505050617542565b90505f73ffffffffffffffffffffffffffffffffffffffff168173ffffffffffffffffffffffffffffffffffffffff16036169415761663a826040516024016040516020818303038152906040527f4f39059c000000000000000000000000000000000000000000000000000000007bffffffffffffffffffffffffffffffffffffffffffffffffffffffff19166020820180517bffffffffffffffffffffffffffffffffffffffffffffffffffffffff8381831617835250505050617542565b90505f73ffffffffffffffffffffffffffffffffffffffff168173ffffffffffffffffffffffffffffffffffffffff1603616941576166fb826040516024016040516020818303038152906040527f82c63066000000000000000000000000000000000000000000000000000000007bffffffffffffffffffffffffffffffffffffffffffffffffffffffff19166020820180517bffffffffffffffffffffffffffffffffffffffffffffffffffffffff8381831617835250505050617542565b90505f73ffffffffffffffffffffffffffffffffffffffff168173ffffffffffffffffffffffffffffffffffffffff1603616941576167bc826040516024016040516020818303038152906040527ffc0c546a000000000000000000000000000000000000000000000000000000007bffffffffffffffffffffffffffffffffffffffffffffffffffffffff19166020820180517bffffffffffffffffffffffffffffffffffffffffffffffffffffffff8381831617835250505050617542565b90505f73ffffffffffffffffffffffffffffffffffffffff168173ffffffffffffffffffffffffffffffffffffffff16036169415761687d826040516024016040516020818303038152906040527f6f307dc3000000000000000000000000000000000000000000000000000000007bffffffffffffffffffffffffffffffffffffffffffffffffffffffff19166020820180517bffffffffffffffffffffffffffffffffffffffffffffffffffffffff8381831617835250505050617542565b90505f73ffffffffffffffffffffffffffffffffffffffff168173ffffffffffffffffffffffffffffffffffffffff16036169415761693e826040516024016040516020818303038152906040527f38d52e0f000000000000000000000000000000000000000000000000000000007bffffffffffffffffffffffffffffffffffffffffffffffffffffffff19166020820180517bffffffffffffffffffffffffffffffffffffffffffffffffffffffff8381831617835250505050617542565b90505b919050565b5f5f73ffffffffffffffffffffffffffffffffffffffff168273ffffffffffffffffffffffffffffffffffffffff1603616982575f9050616b93565b616a0e826040516024016040516020818303038152906040527f07546172000000000000000000000000000000000000000000000000000000007bffffffffffffffffffffffffffffffffffffffffffffffffffffffff19166020820180517bffffffffffffffffffffffffffffffffffffffffffffffffffffffff8381831617835250505050617542565b90505f73ffffffffffffffffffffffffffffffffffffffff168173ffffffffffffffffffffffffffffffffffffffff1603616b9357616acf826040516024016040516020818303038152906040527f16f0115b000000000000000000000000000000000000000000000000000000007bffffffffffffffffffffffffffffffffffffffffffffffffffffffff19166020820180517bffffffffffffffffffffffffffffffffffffffffffffffffffffffff8381831617835250505050617542565b90505f73ffffffffffffffffffffffffffffffffffffffff168173ffffffffffffffffffffffffffffffffffffffff1603616b9357616b90826040516024016040516020818303038152906040527f8119c065000000000000000000000000000000000000000000000000000000007bffffffffffffffffffffffffffffffffffffffffffffffffffffffff19166020820180517bffffffffffffffffffffffffffffffffffffffffffffffffffffffff8381831617835250505050617542565b90505b919050565b5f5f7346f54d434063e5f1a2b2cc6d9aaa657b1b9ff82c73ffffffffffffffffffffffffffffffffffffffff16636b2ace876040518163ffffffff1660e01b8152600401602060405180830381865afa158015616bf7573d5f5f3e3d5ffd5b505050506040513d601f19601f82011682018060405250810190616c1b919061796d565b90505f5f5f9054906101000a900473ffffffffffffffffffffffffffffffffffffffff1673ffffffffffffffffffffffffffffffffffffffff166370a08231836040518263ffffffff1660e01b8152600401616c7791906176a6565b602060405180830381865afa158015616c92573d5f5f3e3d5ffd5b505050506040513d601f19601f82011682018060405250810190616cb69190617b21565b90505f8103616cc9575f92505050616eeb565b8173ffffffffffffffffffffffffffffffffffffffff1663566231185f5f9054906101000a900473ffffffffffffffffffffffffffffffffffffffff166001806040518463ffffffff1660e01b8152600401616d2793929190618ce9565b602060405180830381865afa158015616d42573d5f5f3e3d5ffd5b505050506040513d601f19601f82011682018060405250810190616d669190617b21565b92505f8303616d7457600192505b80831115616d80578092505b5f8273ffffffffffffffffffffffffffffffffffffffff1663da5139ca5f5f9054906101000a900473ffffffffffffffffffffffffffffffffffffffff16865f6040518463ffffffff1660e01b8152600401616dde93929190618697565b602060405180830381865afa158015616df9573d5f5f3e3d5ffd5b505050506040513d601f19601f82011682018060405250810190616e1d9190617b21565b03616ee8575f600284616e30919061874f565b9050818111158015616edd57505f8373ffffffffffffffffffffffffffffffffffffffff1663da5139ca5f5f9054906101000a900473ffffffffffffffffffffffffffffffffffffffff16845f6040518463ffffffff1660e01b8152600401616e9b93929190618697565b602060405180830381865afa158015616eb6573d5f5f3e3d5ffd5b505050506040513d601f19601f82011682018060405250810190616eda9190617b21565b14155b15616ee6578093505b505b50505b90565b5f5f8203616efe575f90506171da565b5f7346f54d434063e5f1a2b2cc6d9aaa657b1b9ff82c73ffffffffffffffffffffffffffffffffffffffff1663aba024f46040518163ffffffff1660e01b8152600401602060405180830381865afa158015616f5c573d5f5f3e3d5ffd5b505050506040513d601f19601f82011682018060405250810190616f809190617b21565b90505f7346f54d434063e5f1a2b2cc6d9aaa657b1b9ff82c73ffffffffffffffffffffffffffffffffffffffff1663c7ee2a7b6040518163ffffffff1660e01b8152600401602060405180830381865afa158015616fe0573d5f5f3e3d5ffd5b505050506040513d601f19601f820116820180604052508101906170049190617b21565b90505f8103617017575f925050506171da565b5f7346f54d434063e5f1a2b2cc6d9aaa657b1b9ff82c73ffffffffffffffffffffffffffffffffffffffff166302ce728f6040518163ffffffff1660e01b815260040160408051808303815f875af1158015617075573d5f5f3e3d5ffd5b505050506040513d601f19601f820116820180604052508101906170999190618d1e565b9150505f8103617127577346f54d434063e5f1a2b2cc6d9aaa657b1b9ff82c73ffffffffffffffffffffffffffffffffffffffff16633ba0b9a96040518163ffffffff1660e01b8152600401602060405180830381865afa158015617100573d5f5f3e3d5ffd5b505050506040513d601f19601f820116820180604052508101906171249190617b21565b90505b5f8103617139575f93505050506171da565b5f620186a084620186a061714d9190617d19565b87617158919061874f565b617162919061802b565b90505f6509184e72a00084617177919061874f565b9050806001828585617189919061874f565b6171939190617d19565b61719d9190617d4c565b6171a7919061802b565b95505f6064876171b7919061802b565b9050600181886171c79190617d19565b6171d19190617d19565b96505050505050505b919050565b5f5f8273ffffffffffffffffffffffffffffffffffffffff163b14159050919050565b5f600282511015617215575f90506173cf565b5f8373ffffffffffffffffffffffffffffffffffffffff1663c45a01556040518163ffffffff1660e01b8152600401602060405180830381865afa92505050801561727e57506040513d601f19601f8201168201806040525081019061727b919061796d565b60015b61728b575f9150506173cf565b80915050617298816171df565b6172a5575f9150506173cf565b5f5f90505b83516001826172b99190617d19565b10156173c8575f73ffffffffffffffffffffffffffffffffffffffff168273ffffffffffffffffffffffffffffffffffffffff1663e6a43905868481518110617305576173046180f0565b5b60200260200101518760018661731b9190617d19565b8151811061732c5761732b6180f0565b5b60200260200101516040518363ffffffff1660e01b8152600401617351929190618427565b602060405180830381865afa15801561736c573d5f5f3e3d5ffd5b505050506040513d601f19601f82011682018060405250810190617390919061796d565b73ffffffffffffffffffffffffffffffffffffffff16036173b5575f925050506173cf565b80806173c090618d5c565b9150506172aa565b5060019150505b92915050565b5f61746d83836040516024016173eb91906178a1565b6040516020818303038152906040527fc6610657000000000000000000000000000000000000000000000000000000007bffffffffffffffffffffffffffffffffffffffffffffffffffffffff19166020820180517bffffffffffffffffffffffffffffffffffffffffffffffffffffffff8381831617835250505050617542565b90505f73ffffffffffffffffffffffffffffffffffffffff168173ffffffffffffffffffffffffffffffffffffffff160361753c5761753983836040516024016174b791906178a1565b6040516020818303038152906040527fb9947eb0000000000000000000000000000000000000000000000000000000007bffffffffffffffffffffffffffffffffffffffffffffffffffffffff19166020820180517bffffffffffffffffffffffffffffffffffffffffffffffffffffffff8381831617835250505050617542565b90505b92915050565b5f5f5f8473ffffffffffffffffffffffffffffffffffffffff168460405161756a9190617e9c565b5f60405180830381855afa9150503d805f81146175a2576040519150601f19603f3d011682016040523d82523d5f602084013e6175a7565b606091505b50915091508180156175bb57506020815110155b156175d757808060200190518101906175d49190618dde565b92505b505092915050565b6040518060400160405280600290602082028036833780820191505090505090565b6040518060600160405280600390602082028036833780820191505090505090565b6040518060800160405280600490602082028036833780820191505090505090565b6040518060a00160405280600590602082028036833780820191505090505090565b5f73ffffffffffffffffffffffffffffffffffffffff82169050919050565b5f61769082617667565b9050919050565b6176a081617686565b82525050565b5f6020820190506176b95f830184617697565b92915050565b5f8115159050919050565b6176d3816176bf565b82525050565b5f6020820190506176ec5f8301846176ca565b92915050565b5f604051905090565b5f5ffd5b5f5ffd5b61770c81617686565b8114617716575f5ffd5b50565b5f8135905061772781617703565b92915050565b5f61773782617686565b9050919050565b6177478161772d565b8114617751575f5ffd5b50565b5f813590506177628161773e565b92915050565b5f819050919050565b61777a81617768565b8114617784575f5ffd5b50565b5f8135905061779581617771565b92915050565b5f5ffd5b5f5ffd5b5f5ffd5b5f5f83601f8401126177bc576177bb61779b565b5b8235905067ffffffffffffffff8111156177d9576177d861779f565b5b6020830191508360018202830111156177f5576177f46177a3565b5b9250929050565b5f5f5f5f5f5f60a08789031215617816576178156176fb565b5b5f61782389828a01617719565b965050602061783489828a01617754565b955050604061784589828a01617787565b945050606061785689828a01617787565b935050608087013567ffffffffffffffff811115617877576178766176ff565b5b61788389828a016177a7565b92509250509295509295509295565b61789b81617768565b82525050565b5f6020820190506178b45f830184617892565b92915050565b5f602082840312156178cf576178ce6176fb565b5b5f6178dc84828501617787565b91505092915050565b5f819050919050565b5f6179086179036178fe84617667565b6178e5565b617667565b9050919050565b5f617919826178ee565b9050919050565b5f61792a8261790f565b9050919050565b61793a81617920565b82525050565b5f6020820190506179535f830184617931565b92915050565b5f8151905061796781617703565b92915050565b5f60208284031215617982576179816176fb565b5b5f61798f84828501617959565b91505092915050565b5f819050919050565b5f6179bb6179b66179b184617998565b6178e5565b617768565b9050919050565b6179cb816179a1565b82525050565b5f60a0820190506179e45f830188617697565b6179f16020830187617697565b6179fe6040830186617697565b617a0b6060830185617892565b617a1860808301846179c2565b9695505050505050565b5f81519050617a3081617771565b92915050565b5f5f60408385031215617a4c57617a4b6176fb565b5b5f617a5985828601617a22565b9250506020617a6a85828601617a22565b9150509250929050565b5f82825260208201905092915050565b7f5a45524f5f434f4c4c41544552414c5f534841524500000000000000000000005f82015250565b5f617ab8601583617a74565b9150617ac382617a84565b602082019050919050565b5f6020820190508181035f830152617ae581617aac565b9050919050565b5f606082019050617aff5f830186617697565b617b0c60208301856176ca565b617b196040830184617892565b949350505050565b5f60208284031215617b3657617b356176fb565b5b5f617b4384828501617a22565b91505092915050565b7f4144445f434f4c4c41544552414c5f4641494c454400000000000000000000005f82015250565b5f617b80601583617a74565b9150617b8b82617b4c565b602082019050919050565b5f6020820190508181035f830152617bad81617b74565b9050919050565b7f4e4f5f424f52524f5741424c455f4d494d0000000000000000000000000000005f82015250565b5f617be8601183617a74565b9150617bf382617bb4565b602082019050919050565b5f6020820190508181035f830152617c1581617bdc565b9050919050565b7f424f52524f575f504154485f4641494c454400000000000000000000000000005f82015250565b5f617c50601283617a74565b9150617c5b82617c1c565b602082019050919050565b5f6020820190508181035f830152617c7d81617c44565b9050919050565b7f4e4f5f434f4c4c41544552414c5f544f5f52454d4f56450000000000000000005f82015250565b5f617cb8601783617a74565b9150617cc382617c84565b602082019050919050565b5f6020820190508181035f830152617ce581617cac565b9050919050565b7f4e487b71000000000000000000000000000000000000000000000000000000005f52601160045260245ffd5b5f617d2382617768565b9150617d2e83617768565b9250828201905080821115617d4657617d45617cec565b5b92915050565b5f617d5682617768565b9150617d6183617768565b9250828203905081811115617d7957617d78617cec565b5b92915050565b7f464c4153485f4645455f434f4c4c41544552414c5f554e415641494c41424c455f82015250565b5f617db3602083617a74565b9150617dbe82617d7f565b602082019050919050565b5f6020820190508181035f830152617de081617da7565b9050919050565b5f60ff82169050919050565b5f617e0d617e08617e0384617998565b6178e5565b617de7565b9050919050565b617e1d81617df3565b82525050565b5f604082019050617e365f830185617697565b617e436020830184617e14565b9392505050565b5f81519050919050565b5f81905092915050565b8281835e5f83830152505050565b5f617e7682617e4a565b617e808185617e54565b9350617e90818560208601617e5e565b80840191505092915050565b5f617ea78284617e6c565b915081905092915050565b617ebb816176bf565b8114617ec5575f5ffd5b50565b5f81519050617ed681617eb2565b92915050565b5f60208284031215617ef157617ef06176fb565b5b5f617efe84828501617ec8565b91505092915050565b7f415050524f56455f52455345545f4641494c45440000000000000000000000005f82015250565b5f617f3b601483617a74565b9150617f4682617f07565b602082019050919050565b5f6020820190508181035f830152617f6881617f2f565b9050919050565b5f604082019050617f825f830185617697565b617f8f6020830184617892565b9392505050565b7f415050524f56455f4641494c45440000000000000000000000000000000000005f82015250565b5f617fca600e83617a74565b9150617fd582617f96565b602082019050919050565b5f6020820190508181035f830152617ff781617fbe565b9050919050565b7f4e487b71000000000000000000000000000000000000000000000000000000005f52601260045260245ffd5b5f61803582617768565b915061804083617768565b9250826180505761804f617ffe565b5b828204905092915050565b7f424f52524f575f414d4f554e545f544f4f5f4c415247450000000000000000005f82015250565b5f61808f601783617a74565b915061809a8261805b565b602082019050919050565b5f6020820190508181035f8301526180bc81618083565b9050919050565b7f4e487b71000000000000000000000000000000000000000000000000000000005f52604160045260245ffd5b7f4e487b71000000000000000000000000000000000000000000000000000000005f52603260045260245ffd5b5f819050919050565b61812f8161811d565b82525050565b5f6040820190506181485f830185618126565b6181556020830184617697565b9392505050565b5f81519050919050565b5f82825260208201905092915050565b5f819050602082019050919050565b61818e81617de7565b82525050565b5f61819f8383618185565b60208301905092915050565b5f602082019050919050565b5f6181c18261815c565b6181cb8185618166565b93506181d683618176565b805f5b838110156182065781516181ed8882618194565b97506181f8836181ab565b9250506001810190506181d9565b5085935050505092915050565b5f81519050919050565b5f82825260208201905092915050565b5f819050602082019050919050565b61824581617768565b82525050565b5f618256838361823c565b60208301905092915050565b5f602082019050919050565b5f61827882618213565b618282818561821d565b935061828d8361822d565b805f5b838110156182bd5781516182a4888261824b565b97506182af83618262565b925050600181019050618290565b5085935050505092915050565b5f81519050919050565b5f82825260208201905092915050565b5f819050602082019050919050565b5f82825260208201905092915050565b5f601f19601f8301169050919050565b5f61831d82617e4a565b61832781856182f3565b9350618337818560208601617e5e565b61834081618303565b840191505092915050565b5f6183568383618313565b905092915050565b5f602082019050919050565b5f618374826182ca565b61837e81856182d4565b935083602082028501618390856182e4565b805f5b858110156183cb57848403895281516183ac858261834b565b94506183b78361835e565b925060208a01995050600181019050618393565b50829750879550505050505092915050565b5f6060820190508181035f8301526183f581866181b7565b90508181036020830152618409818561826e565b9050818103604083015261841d818461836a565b9050949350505050565b5f60408201905061843a5f830185617697565b6184476020830184617697565b9392505050565b5f60a0820190506184615f830188617697565b61846e6020830187617697565b61847b6040830186617697565b61848860608301856179c2565b6184956080830184617892565b9695505050505050565b7f434f4c4c41544552414c5f53484152455f544f4f5f4c415247450000000000005f82015250565b5f6184d3601a83617a74565b91506184de8261849f565b602082019050919050565b5f6020820190508181035f830152618500816184c7565b9050919050565b7f5452414e534645525f4641494c454400000000000000000000000000000000005f82015250565b5f61853b600f83617a74565b915061854682618507565b602082019050919050565b5f6020820190508181035f8301526185688161852f565b9050919050565b7f4e4f5f464c41534841424c455f434f4c4c41544552414c0000000000000000005f82015250565b5f6185a3601783617a74565b91506185ae8261856f565b602082019050919050565b5f6020820190508181035f8301526185d081618597565b9050919050565b5f6185e18261790f565b9050919050565b6185f1816185d7565b82525050565b5f82825260208201905092915050565b5f61861182617e4a565b61861b81856185f7565b935061862b818560208601617e5e565b61863481618303565b840191505092915050565b5f60a0820190506186525f8301886185e8565b61865f6020830187617697565b61866c6040830186617697565b6186796060830185617892565b818103608083015261868b8184618607565b90509695505050505050565b5f6060820190506186aa5f830186617697565b6186b76020830185617892565b6186c460408301846176ca565b949350505050565b5f6fffffffffffffffffffffffffffffffff82169050919050565b6186f0816186cc565b81146186fa575f5ffd5b50565b5f8151905061870b816186e7565b92915050565b5f5f60408385031215618727576187266176fb565b5b5f618734858286016186fd565b9250506020618745858286016186fd565b9150509250929050565b5f61875982617768565b915061876483617768565b925082820261877281617768565b9150828204841483151761878957618788617cec565b5b5092915050565b5f6040820190506187a35f830185617892565b6187b06020830184617697565b9392505050565b5f81519050919050565b5f82825260208201905092915050565b5f819050602082019050919050565b6187e981617686565b82525050565b5f6187fa83836187e0565b60208301905092915050565b5f602082019050919050565b5f61881c826187b7565b61882681856187c1565b9350618831836187d1565b805f5b8381101561886157815161884888826187ef565b975061885383618806565b925050600181019050618834565b5085935050505092915050565b5f60a0820190506188815f830188617892565b61888e60208301876179c2565b81810360408301526188a08186618812565b90506188af6060830185617697565b6188bc6080830184617892565b9695505050505050565b6188cf82618303565b810181811067ffffffffffffffff821117156188ee576188ed6180c3565b5b80604052505050565b5f6189006176f2565b905061890c82826188c6565b919050565b5f67ffffffffffffffff82111561892b5761892a6180c3565b5b602082029050602081019050919050565b5f61894e61894984618911565b6188f7565b90508083825260208201905060208402830185811115618971576189706177a3565b5b835b8181101561899a57806189868882617a22565b845260208401935050602081019050618973565b5050509392505050565b5f82601f8301126189b8576189b761779b565b5b81516189c884826020860161893c565b91505092915050565b5f602082840312156189e6576189e56176fb565b5b5f82015167ffffffffffffffff811115618a0357618a026176ff565b5b618a0f848285016189a4565b91505092915050565b5f60029050919050565b5f81905092915050565b5f819050919050565b5f602082019050919050565b618a4a81618a18565b618a548184618a22565b9250618a5f82618a2c565b805f5b83811015618a8f578151618a76878261824b565b9650618a8183618a35565b925050600181019050618a62565b505050505050565b5f606082019050618aaa5f830185618a41565b618ab76040830184617e14565b9392505050565b5f60039050919050565b5f81905092915050565b5f819050919050565b5f602082019050919050565b618af081618abe565b618afa8184618ac8565b9250618b0582618ad2565b805f5b83811015618b35578151618b1c878261824b565b9650618b2783618adb565b925050600181019050618b08565b505050505050565b5f608082019050618b505f830185618ae7565b618b5d6060830184617e14565b9392505050565b5f60049050919050565b5f81905092915050565b5f819050919050565b5f602082019050919050565b618b9681618b64565b618ba08184618b6e565b9250618bab82618b78565b805f5b83811015618bdb578151618bc2878261824b565b9650618bcd83618b81565b925050600181019050618bae565b505050505050565b5f60a082019050618bf65f830185618b8d565b618c036080830184617e14565b9392505050565b5f60059050919050565b5f81905092915050565b5f819050919050565b5f602082019050919050565b618c3c81618c0a565b618c468184618c14565b9250618c5182618c1e565b805f5b83811015618c81578151618c68878261824b565b9650618c7383618c27565b925050600181019050618c54565b505050505050565b5f60c082019050618c9c5f830185618c33565b618ca960a0830184617e14565b9392505050565b5f819050919050565b5f618cd3618cce618cc984618cb0565b6178e5565b617768565b9050919050565b618ce381618cb9565b82525050565b5f606082019050618cfc5f830186617697565b618d096020830185618cda565b618d1660408301846176ca565b949350505050565b5f5f60408385031215618d3457618d336176fb565b5b5f618d4185828601617ec8565b9250506020618d5285828601617a22565b9150509250929050565b5f618d6682617768565b91507fffffffffffffffffffffffffffffffffffffffffffffffffffffffffffffffff8203618d9857618d97617cec565b5b600182019050919050565b5f618dad82617667565b9050919050565b618dbd81618da3565b8114618dc7575f5ffd5b50565b5f81519050618dd881618db4565b92915050565b5f60208284031215618df357618df26176fb565b5b5f618e0084828501618dca565b9150509291505056fea264697066735822122089e8a3f4402b54402e002a168d6df0097ad077aa155dcf5a71cd523c2b8b018664736f6c634300081e0033","linkReferences":{}},"methodIdentifiers":{"DAI()":"e0bab4c4","MIM()":"daec383d","SUSHI_ROUTER()":"0c24f4fa","TARGET()":"cc1f2afa","TARGET_CAULDRON()":"bd7a598c","UNISWAP_V2_ROUTER()":"a82ed9ec","USDC()":"89a30271","USDT()":"c54e44eb","WETH()":"ad5c4648","collateralToken()":"b2016bd4","convexDepositToken()":"5eb143ce","curveLpToken()":"646780df","curvePool()":"218751b2","execute()":"61461954","executeOnOpportunity()":"3c2448ed","exploit()":"63d9b770","flashAmount()":"b570137a","flashFee()":"e07df5b4","hypothesisValidated()":"463defd1","lastBorrowAmount()":"ca8ccab6","lastBorrowPart()":"a6e59f53","onFlashLoan(address,address,uint256,uint256,bytes)":"23e30c8b","probeBorrow(uint256)":"4ee8f105","profitAmount()":"5ff972cc","profitToken()":"49343624","run()":"c0406226","underlyingToken()":"2495a599","usedBorrowThenAccruePath()":"2900951a","usedRemoveThenUnsupportedPath()":"15aa44bd"},"id":0}