{"abi":[{"type":"constructor","inputs":[],"stateMutability":"nonpayable"},{"type":"function","name":"TARGET","inputs":[],"outputs":[{"name":"","type":"address","internalType":"address"}],"stateMutability":"view"},{"type":"function","name":"executeOnOpportunity","inputs":[],"outputs":[],"stateMutability":"nonpayable"},{"type":"function","name":"onERC721Received","inputs":[{"name":"","type":"address","internalType":"address"},{"name":"","type":"address","internalType":"address"},{"name":"tokenId","type":"uint256","internalType":"uint256"},{"name":"","type":"bytes","internalType":"bytes"}],"outputs":[{"name":"","type":"bytes4","internalType":"bytes4"}],"stateMutability":"nonpayable"},{"type":"function","name":"profitAmount","inputs":[],"outputs":[{"name":"","type":"uint256","internalType":"uint256"}],"stateMutability":"view"},{"type":"function","name":"profitToken","inputs":[],"outputs":[{"name":"","type":"address","internalType":"address"}],"stateMutability":"view"}],"bytecode":{"object":"0x60808060405234601557611640908161001a8239f35b5f80fdfe6080806040526004361015610012575f80fd5b5f3560e01c908163150b7a02146100dc575080633c2448ed146100c2578063493436241461009b5780635ff972cc1461007e5763cc1f2afa14610053575f80fd5b3461007a575f36600319011261007a5760206040515f5160206115eb5f395f51905f528152f35b5f80fd5b3461007a575f36600319011261007a576020600154604051908152f35b3461007a575f36600319011261007a575f546040516001600160a01b039091168152602090f35b3461007a575f36600319011261007a576100da61018e565b005b3461007a57608036600319011261007a576100f5610162565b506100fe610178565b5060643567ffffffffffffffff811161007a573660238201121561007a57806004013567ffffffffffffffff811161007a573691016024011161007a57600280546001600160a01b03191633179055604435600355630a85bd0160e11b8152602090f35b600435906001600160a01b038216820361007a57565b602435906001600160a01b038216820361007a57565b600154158015906101a8575b6101a6576101a66101be565b565b505f5160206115eb5f395f51905f523b1561019a565b5f5160206115eb5f395f51905f523115155f60405163e89a7aed60e01b81526020816004815f5160206115eb5f395f51905f525afa5f918161046c575b50610464575b506001600160a01b03811691821561045f575f5b601781106102235750505050565b61022c81610547565b90813b156104565782604051610241816104a8565b5f81525f60208201525f60408201525f60608201525f60808201525f60a08201525f60c08201525f60e08201525f61010082015292604051631f0c602d60e01b815260018060a01b0382166004820152610120816024818b5afa5f918161037e575b50610376575b5083516001600160a01b03168015801561036a575b61035e576102cd90828861088b565b9081511561035e576102df3082610bb6565b92610336575b84516102f9906001600160a01b0316610b36565b61030c575b505050600191505b01610215565b93519293610323936001600160a01b031690610d30565b61033057805f80806102fe565b50505050565b845161034f90849084906001600160a01b031684610bf4565b156102e5575050505050505050565b50505060019150610306565b506020850151156102be565b93505f6102a9565b93509050610120833d821161044e575b8161039c6101209383610511565b8101031261007a576040516103b0816104a8565b6103b984610533565b8152602084015160208201526103d160408501610831565b60408201526103e260608501610831565b60608201526103f360808501610831565b608082015261040460a08501610831565b60a082015261041560c08501610831565b60c082015260e08401519363ffffffff8516850361007a5761010061044191899660e085015201610533565b610100820152905f6102a3565b3d915061038e565b60019150610306565b505050565b90505f610201565b9091506020813d6020116104a0575b8161048860209383610511565b8101031261007a5761049990610533565b905f6101fb565b3d915061047b565b610120810190811067ffffffffffffffff8211176104c557604052565b634e487b7160e01b5f52604160045260245ffd5b6060810190811067ffffffffffffffff8211176104c557604052565b6080810190811067ffffffffffffffff8211176104c557604052565b90601f8019910116810190811067ffffffffffffffff8211176104c557604052565b51906001600160a01b038216820361007a57565b801561081857600181146107ff57600281146107e657600381146107cd57600481146107b4576005811461079b576006811461078257600781146107695760088114610750576009811461073757600a811461071e57600b811461070557600c81146106ec57600d81146106d357600e81146106ba57600f81146106a15760108114610688576011811461066f5760128114610656576013811461063d57601481146106245760151461060c5773364c828ee171616a39897688a831c2499ad972ec90565b73bce3781ae7ca1a5e050bd9c4c77369867ebc307e90565b5073769272677fab02575e84945f03eca517acc544cc90565b507359325733eb952a92e069c87f0a6168b29e80627f90565b5073036721e5a769cc48b3189efbea922a4b8b7fc6b690565b5073a3aee8bce55beea1951ef834b99f3ac60d1abeeb90565b507334d85c9cdeb23fa97cb08333b511ac86e1c4e25890565b507379fcdef22feed20eddacbb2587640e45491b757f90565b50731a92f7381b9f03921564a437210bb9396471050c90565b5073e785e82358879f061bc3dcac6f0444462d4b533090565b50737bd29408f11d2bfc23c34f18275bbf23bb716bc790565b50738821bee2ba0df28761afff119d66390d594cd28090565b50735af0d9827cace6e16351126a8fb1bb82fd56280e90565b5073524cab2ec69124574082676e6f654a18df49a04890565b5073bd3531da5cf5857e7cfaa92426877b022e612cf890565b507349cf6f5d44e70224e2e23fdcdd2c053f30ada28b90565b50731792f4d1fdfcc12dbb7b2d07b80a900486ea85b590565b507323581767a106ae21c074b2276d25e5c3e136a68b90565b50738a90cab2b38dba80c64b7734e58ee1db38b8992e90565b5073306b1ea3ecdf94ab739f1910bbda052ed4a9f94990565b5073ed5af388653567af2f388e6224dc7c4b3241c54490565b507360e4d786628fea6478f785a6d7e704777c86a7c690565b5073bc4ca0eda7647a8ab7c2061c2e118a18a936f13d90565b519067ffffffffffffffff8216820361007a57565b8051156108535760200190565b634e487b7160e01b5f52603260045260245ffd5b8051600110156108535760400190565b80518210156108535760209160051b010190565b6040516329e81d7160e01b81526001600160a01b03928316600482015292821660248401525f916060916101809185916044918391165afa5f91816109d1575b5061ffff93506109bf575b50169081156109a5576040516108ed60e082610511565b6006815260c036602083013780925f8169d3c21bcecceda1000000029069d3c21bcecceda10000008204831415928215915b6006811061092f57505050505050565b8461099157600181018082116109915769d3c21bcecceda100000081840202908582041484171561099157612710900469d3c21bcecceda100000001908169d3c21bcecceda1000000116109915760019161098a8289610877565b520161091f565b634e487b7160e01b5f52601160045260245ffd5b90506040516109b5602082610511565b5f81525f36813790565b8291506040809101510151165f6108d6565b909150836101803d8111610b2f575b6109ea8183610511565b81010390610180821261007a5760405191610a04836104d9565b6080811261007a57604051610a18816104f5565b610a2187610533565b8152610a2f60208801610e4d565b6020820152610a4060408801610e4d565b6040820152610a50838801610e4d565b81840152835260a0607f1982011261007a5760405160a0810181811067ffffffffffffffff8211176104c557604052610a8b60808801610533565b8152610a9960a08801610e4d565b6020820152610aaa60c08801610e4d565b6040820152610abb60e08801610e4d565b83820152610acc6101008801610e4d565b6080820152602084015261011f19011261007a5761ffff93610b1e61016060405192610af7846104d9565b610b046101208201610533565b8452610b136101408201610e4d565b602085015201610e4d565b60408201526040820152905f6108cb565b503d6109e0565b6040516370a0823160e01b81525f5160206115eb5f395f51905f5260048201525f9291602090829060249082906001600160a01b03165afa5f9181610b82575b50610b7e5750565b9150565b9091506020813d602011610bae575b81610b9e60209383610511565b8101031261007a5751905f610b76565b3d9150610b91565b6040516370a0823160e01b81526001600160a01b0392831660048201525f9392909160209183916024918391165afa5f9181610b825750610b7e5750565b91925f9060405163e8dd7fc360e01b81526020816004815f5160206115eb5f395f51905f525afa5f9181610cf4575b50610cec575b505f5160206115eb5f395f51905f5231926001600160a01b038316158015610ce4575b610cda575f5b8651811015610ccf57610c658188610877565b51610c7486868684878c610e5c565b610cc257610c8686868684878c610e89565b610cc257610c9886868684878c610ead565b610cc257858585610caa93868b610ed1565b610cb657600101610c52565b50505050505050600190565b5050505050505050600190565b505050505050505f90565b5050505050505f90565b508315610c4c565b91505f610c29565b9091506020813d602011610d28575b81610d1060209383610511565b8101031261007a57610d2190610533565b905f610c23565b3d9150610d03565b909291610d3b61106b565b91604051600160fa1b602082015260018152610d58602182610511565b83526040805190610d698183610511565b60018252601f19015f5b818110610e3c575050610dde90602085019081526040519073c02aaa39b223fe8d0a0e5c4f27ead9083c756cc260208301525f5160206115eb5f395f51905f5260408301525f606083015260608252610dcd608083610511565b5190610dd882610846565b52610846565b504260408401525f5b8251811015610cda57610dfa8184610877565b5190858583610e088a610b36565b10610e3157610e189293856110e9565b610e26576001905b01610de7565b505050505050600190565b505060019150610e20565b806060602080938601015201610d73565b519061ffff8216820361007a57565b929394610e6b6101f483611317565b15610cda576101f4610e8092610e86976113d3565b916110e9565b90565b929394610e98610bb883611317565b15610cda57610bb8610e8092610e86976113d3565b929394610ebc61271083611317565b15610cda57612710610e8092610e86976113d3565b909594939293610ee087611585565b1561106157610eed61106b565b9360405191610efd606084610511565b6002835260208301986040368b3773c02aaa39b223fe8d0a0e5c4f27ead9083c756cc2610f2985610846565b52610f3384610867565b6001600160a01b039091169052604051600b60f81b6020820152600160fb1b602182015260028152610f66602282610511565b8652610fbe81610fb2610f7761108b565b60208a8101918252604080516001600160a01b039098169188019190915286019290925290939081606081015b03601f198101835282610511565b835190610dd882610846565b506040519260c08401915f5160206115eb5f395f51905f52602086015260408501525f606085015260a060808501525180915260e0830198905f5b81811061104257505050906110369161102582610e86999a5f60a083015203601f198101845283610511565b519061103082610867565b52610867565b504260408401526110e9565b82516001600160a01b03168b5260209a8b019a90920191600101610ff9565b505f955050505050565b60405190611078826104d9565b5f60408360608152606060208201520152565b6040516060919061109c8382610511565b6002815291601f1901825f5b8281106110b457505050565b8060606020809385010152016110a8565b805180835260209291819084018484015e5f828201840152601f01601f1916010190565b929091925f936bffffffffffffffffffffffff60a01b600254166002555f60035560405193611117856104f5565b60208501916060835260408601955f8752606081015f815260018060a01b0386169788835260209460405161114c8782610511565b5f81525f36813787528152600182525f5160206115eb5f395f51905f523b1561007a579492939190604051958694636730840760e11b8652608060048701526101048601935160848701525192608060a487015283518091528461012487019401905f5b818110611300575050505160c48501525160e48401526003198382030160248401526111e584516060835260608301906110c5565b9082850151918181038483015282518082528482019185808360051b8301019501925f915b8383106112ca5750505050506040805f96015191015260036044840152838382039160031983016064860152520181835f5160206115eb5f395f51905f525af190816112b5575b5061125c5750505090565b611267903090610bb6565b6002546001600160a01b03168314159190826112aa575b50506112a65781546001600160a01b03191617905569d3c21bcecceda1000000600190815590565b5090565b111590505f8061127e565b6112c29195505f90610511565b5f935f611251565b91939750919395979488806112eb600193601f198682030187528b516110c5565b9901930193019092899795989694929361120a565b8251865289975094860194918601916001016111b0565b604051630b4c774160e11b815273c02aaa39b223fe8d0a0e5c4f27ead9083c756cc260048201526001600160a01b03909116602482015262ffffff9091166044820152602081606481731f98431c8ad98523631ae4a59f267346ea31f9845afa5f9181611397575b5061138957505f90565b6001600160a01b0316151590565b9091506020813d6020116113cb575b816113b360209383610511565b8101031261007a576113c490610533565b905f61137f565b3d91506113a6565b9093926113de61106b565b946113e98482611317565b156115195761151093929161102591604051600b60f81b60208201525f60218201526002815261141a602282610511565b88526114688261145c61142b61108b565b60208c8101918252604080516001600160a01b03909a16918a01919091528801929092529095908160608101610fa4565b855190610dd882610846565b50604051736015551cd911ff4685072e2793f56c841e3ab66160611b602082015260e89590951b6001600160e81b031916603486015260601b6bffffffffffffffffffffffff19166037850152602b84526114c4604b85610511565b6114fc6040519485925f5160206115eb5f395f51905f52602085015260408401525f606084015260a0608084015260c08301906110c5565b5f60a083015203601f198101845283610511565b50426040830152565b50505050905061152761106b565b6040516020810181811067ffffffffffffffff8211176104c5576040525f81528152604051611557602082610511565b5f81525f805b818110611574575050602082015242604082015290565b80606060208093860101520161155d565b60405163e6a4390560e01b815273c02aaa39b223fe8d0a0e5c4f27ead9083c756cc260048201526001600160a01b039091166024820152602081604481735c69bee701ef814a2b6a3edd4b1652cb9cc5aa6f5afa5f9181611397575061138957505f9056fe00000000000000000000000049ad262c49c7aa708cc2df262ed53b64a17dd5eea26469706673582212204878812989a48d9e3204783e927e6f4efa555e7e89ff4af6d0a592bcad93217464736f6c634300081e0033","linkReferences":{}},"methodIdentifiers":{"TARGET()":"cc1f2afa","executeOnOpportunity()":"3c2448ed","onERC721Received(address,address,uint256,bytes)":"150b7a02","profitAmount()":"5ff972cc","profitToken()":"49343624"},"id":0}