{"abi":[{"type":"constructor","inputs":[],"stateMutability":"nonpayable"},{"type":"fallback","stateMutability":"payable"},{"type":"receive","stateMutability":"payable"},{"type":"function","name":"executeOnOpportunity","inputs":[],"outputs":[],"stateMutability":"nonpayable"},{"type":"function","name":"executed","inputs":[],"outputs":[{"name":"","type":"bool","internalType":"bool"}],"stateMutability":"view"},{"type":"function","name":"hypothesisValidated","inputs":[],"outputs":[{"name":"","type":"bool","internalType":"bool"}],"stateMutability":"view"},{"type":"function","name":"lockedBalances","inputs":[],"outputs":[{"name":"lockedWbtc","type":"uint256","internalType":"uint256"},{"name":"lockedUsdc","type":"uint256","internalType":"uint256"},{"name":"lockedUsdt","type":"uint256","internalType":"uint256"},{"name":"lockedDai","type":"uint256","internalType":"uint256"},{"name":"lockedWeth","type":"uint256","internalType":"uint256"}],"stateMutability":"view"},{"type":"function","name":"lockedEth","inputs":[],"outputs":[{"name":"","type":"uint256","internalType":"uint256"}],"stateMutability":"view"},{"type":"function","name":"profitAmount","inputs":[],"outputs":[{"name":"","type":"uint256","internalType":"uint256"}],"stateMutability":"view"},{"type":"function","name":"profitToken","inputs":[],"outputs":[{"name":"","type":"address","internalType":"address"}],"stateMutability":"pure"}],"bytecode":{"object":"0x60808060405234601557611f88908161001a8239f35b5f80fdfe6080806040526004361015610011575b005b5f905f3560e01c90816331a38c8914610d52575080633c2448ed146101a3578063463defd1146100ff57806349343624146100e357806353e4a89a146100a35780635ff972cc146100865763660b27f50361000f57346100835780600319360112610083576020600154604051908152f35b80fd5b503461008357806003193601126100835760209054604051908152f35b503461008357806003193601126100835760a060025460035460045460055490600654926040519485526020850152604084015260608301526080820152f35b5034610083578060031936011261008357602090604051908152f35b503461008357806003193601126100835760209060ff60075416908161013c575b81610131575b506040519015158152f35b90505415155f610126565b905060015415801590610198575b801561018d575b8015610182575b8015610177575b801561016c575b90610120565b506006541515610166565b50600554151561015f565b506004541515610158565b506003541515610151565b50600254151561014a565b5034610b44575f366003190112610b4457600160ff1960075416176007556040516101cd81610d71565b6367dd600781526367e0030760208201526367e2a60760408201526367e549076060820152604051906101ff82610d71565b5f8252610e10602083015262015180604083015262093a8060608301526040519161022983610d8d565b6001835260056020840152600a60408401526014606084015260296080840152602e60a08401526040519260a0840184811067ffffffffffffffff821117610d3e576040525f516020611f335f395f51905f5284525f516020611ef35f395f51905f5260208501525f516020611f135f395f51905f5260408501525f516020611ed35f395f51905f52606085015273c02aaa39b223fe8d0a0e5c4f27ead9083c756cc260808501525f5b60048110610b4857604051866102e882610da9565b5f516020611f335f395f51905f5282525f516020611ef35f395f51905f5260208301525f516020611f135f395f51905f5260408301525f516020611ed35f395f51905f52606083015273d46ba6d942050d489dbd938a2c909a5d5039a16160808301527395ad61b0a150d79219dcf64e1e6cc01f0b64c4ce60a0830152731f9840a85d5af5bf1d1762f925bdaddc4201f98460c083015273514910771af9ca656af840dff83e8264ecf986ca60e0830152737fc66500c84a76ad7e9c93437bfc5ac33e2ddae961010083015273d533a949740bb3306d119cc777fa900ba034cd52610120830152739f8f72aa9304c8b593d555f12ef6589cc3a579a261014083015273c00e94cb662c3520282e6f5717214004a7f26888610160830152730bc529c00c6401aef6d220be8c6ea1667f6ad93e610180830152735a98fcbea516cf06857215779fd812ca3bef1b326101a0830152737d1afa7b718fb893db30a3abc0cfc608aacfebb06101c0830152736982508145454ce325ddbe47a25d4ec3d23119336101e0830152733432b6a60d23ca0dfca7761b7ab56459d9c964d061020083015273090185f2135308bad17527004364ebcc2d37e5f66102208301525f5b60128110156104eb57600581901b830151600191906104e5906001600160a01b0316735c69bee701ef814a2b6a3edd4b1652cb9cc5aa6f611c42565b016104a9565b50610509735c69bee701ef814a2b6a3edd4b1652cb9cc5aa6f611ca8565b610526735c69bee701ef814a2b6a3edd4b1652cb9cc5aa6f611ccd565b610543735c69bee701ef814a2b6a3edd4b1652cb9cc5aa6f611cf2565b610560735c69bee701ef814a2b6a3edd4b1652cb9cc5aa6f611d17565b61057d735c69bee701ef814a2b6a3edd4b1652cb9cc5aa6f611d3c565b61059a735c69bee701ef814a2b6a3edd4b1652cb9cc5aa6f611d61565b604051906105a782610da9565b5f516020611f335f395f51905f5282525f516020611ef35f395f51905f5260208301525f516020611f135f395f51905f5260408301525f516020611ed35f395f51905f52606083015273d46ba6d942050d489dbd938a2c909a5d5039a16160808301527395ad61b0a150d79219dcf64e1e6cc01f0b64c4ce60a0830152731f9840a85d5af5bf1d1762f925bdaddc4201f98460c083015273514910771af9ca656af840dff83e8264ecf986ca60e0830152737fc66500c84a76ad7e9c93437bfc5ac33e2ddae961010083015273d533a949740bb3306d119cc777fa900ba034cd52610120830152739f8f72aa9304c8b593d555f12ef6589cc3a579a261014083015273c00e94cb662c3520282e6f5717214004a7f26888610160830152730bc529c00c6401aef6d220be8c6ea1667f6ad93e610180830152735a98fcbea516cf06857215779fd812ca3bef1b326101a0830152737d1afa7b718fb893db30a3abc0cfc608aacfebb06101c0830152736982508145454ce325ddbe47a25d4ec3d23119336101e0830152733432b6a60d23ca0dfca7761b7ab56459d9c964d061020083015273090185f2135308bad17527004364ebcc2d37e5f66102208301525f5b60128110156107aa57600581901b830151600191906107a4906001600160a01b031673c0aee478e3658e2610c5f7a4a2e1777ce9e4f2ac611c42565b01610768565b506107c873c0aee478e3658e2610c5f7a4a2e1777ce9e4f2ac611ca8565b6107e573c0aee478e3658e2610c5f7a4a2e1777ce9e4f2ac611ccd565b61080273c0aee478e3658e2610c5f7a4a2e1777ce9e4f2ac611cf2565b61081f73c0aee478e3658e2610c5f7a4a2e1777ce9e4f2ac611d17565b61083c73c0aee478e3658e2610c5f7a4a2e1777ce9e4f2ac611d3c565b61085973c0aee478e3658e2610c5f7a4a2e1777ce9e4f2ac611d61565b610861610e0d565b610869610e8a565b610871610f02565b610879610f7a565b610881610ff2565b610889611086565b61089161111a565b6108996111ae565b6108a1611242565b6108a96112d6565b6108b161136a565b6108b96113fe565b6108c1611492565b6108c9611526565b6108d16115ba565b6108d961164e565b6108e16116e2565b6108e9611776565b6108f161180a565b80610ad0575b50476001556040516370a0823160e01b81523060048201526020816024815f516020611f335f395f51905f525afa908115610a2f578291610a9e575b506002556040516370a0823160e01b81523060048201526020816024815f516020611ef35f395f51905f525afa908115610a2f578291610a6c575b506003556040516370a0823160e01b81523060048201526020816024815f516020611f135f395f51905f525afa908115610a2f578291610a3a575b506004556040516370a0823160e01b81523060048201526020816024815f516020611ed35f395f51905f525afa908115610a2f5782916109f9575b506005556109f061180a565b60065547815580f35b90506020813d602011610a27575b81610a1460209383610dc6565b81010312610a235751826109e4565b5080fd5b3d9150610a07565b6040513d84823e3d90fd5b90506020813d602011610a64575b81610a5560209383610dc6565b81010312610a235751826109a9565b3d9150610a48565b90506020813d602011610a96575b81610a8760209383610dc6565b81010312610a2357518261096e565b3d9150610a7a565b90506020813d602011610ac8575b81610ab960209383610dc6565b81010312610a23575182610933565b3d9150610aac565b73c02aaa39b223fe8d0a0e5c4f27ead9083c756cc23b15610b445760405190632e1a7d4d60e01b825260048201525f816024818373c02aaa39b223fe8d0a0e5c4f27ead9083c756cc25af18015610b3957156108f757610b3291505f90610dc6565b5f816108f7565b6040513d5f823e3d90fd5b5f80fd5b5f5b60048110610b5b57506001016102d3565b9065ffffffffffff610b7282879996959899610de8565b51169065ffffffffffff610b868486610de8565b511682019665ffffffffffff8811610cf357428311610d2f5765ffffffffffff5f96959698169342851115965b60068a1015610d1b5760058a811b8401516001600160801b039081169a918b0180821699911095905f5b6005811015610d075787610cf357600581901b8f0151604051600192916001600160a01b03168f610c0d83610d8d565b82528d6020830152739188738a7ca1e4b2af840a77e8726cc6dcbe7bdb60408301528b60608301528c608083015260a08201525f806040516020810190630cdc3aab60e11b8252610c7381610c6587602483016118b4565b03601f198101835282610dc6565b51908273f3f84ce038442ae4c4dcb6a8ca8bacd7f28c9bde5af1508d610c97611923565b50610ca4575b5001610bdd565b5f8091604051610cc981610c6560208201946318978a5d60e11b8652602483016118b4565b51908273f3f84ce038442ae4c4dcb6a8ca8bacd7f28c9bde5af150610cec611923565b505f610c9d565b634e487b7160e01b5f52601160045260245ffd5b509b919a5094506001919750019895610bb3565b965091935093979650600191505b01610b4a565b93949796509160019150610d29565b634e487b7160e01b5f52604160045260245ffd5b34610b44575f366003190112610b445760209060ff6007541615158152f35b6080810190811067ffffffffffffffff821117610d3e57604052565b60c0810190811067ffffffffffffffff821117610d3e57604052565b610240810190811067ffffffffffffffff821117610d3e57604052565b90601f8019910116810190811067ffffffffffffffff821117610d3e57604052565b906004811015610df95760051b0190565b634e487b7160e01b5f52603260045260245ffd5b610e235f516020611f335f395f51905f5261187a565b80158015610e83575b610e7e57610e47905f516020611f335f395f51905f5261197f565b610e8157610e615f516020611f335f395f51905f5261187a565b8015610e7e57610e7e905f516020611f335f395f51905f52611af2565b50565b565b505f610e2c565b610ea05f516020611ef35f395f51905f5261187a565b80158015610efb575b610e7e57610ec4905f516020611ef35f395f51905f5261197f565b610e8157610ede5f516020611ef35f395f51905f5261187a565b8015610e7e57610e7e905f516020611ef35f395f51905f52611af2565b505f610ea9565b610f185f516020611f135f395f51905f5261187a565b80158015610f73575b610e7e57610f3c905f516020611f135f395f51905f5261197f565b610e8157610f565f516020611f135f395f51905f5261187a565b8015610e7e57610e7e905f516020611f135f395f51905f52611af2565b505f610f21565b610f905f516020611ed35f395f51905f5261187a565b80158015610feb575b610e7e57610fb4905f516020611ed35f395f51905f5261197f565b610e8157610fce5f516020611ed35f395f51905f5261187a565b8015610e7e57610e7e905f516020611ed35f395f51905f52611af2565b505f610f99565b61100f73d46ba6d942050d489dbd938a2c909a5d5039a16161187a565b8015801561107f575b610e7e5761103a9073d46ba6d942050d489dbd938a2c909a5d5039a16161197f565b610e815761105b73d46ba6d942050d489dbd938a2c909a5d5039a16161187a565b8015610e7e57610e7e9073d46ba6d942050d489dbd938a2c909a5d5039a161611af2565b505f611018565b6110a37395ad61b0a150d79219dcf64e1e6cc01f0b64c4ce61187a565b80158015611113575b610e7e576110ce907395ad61b0a150d79219dcf64e1e6cc01f0b64c4ce61197f565b610e81576110ef7395ad61b0a150d79219dcf64e1e6cc01f0b64c4ce61187a565b8015610e7e57610e7e907395ad61b0a150d79219dcf64e1e6cc01f0b64c4ce611af2565b505f6110ac565b611137731f9840a85d5af5bf1d1762f925bdaddc4201f98461187a565b801580156111a7575b610e7e5761116290731f9840a85d5af5bf1d1762f925bdaddc4201f98461197f565b610e8157611183731f9840a85d5af5bf1d1762f925bdaddc4201f98461187a565b8015610e7e57610e7e90731f9840a85d5af5bf1d1762f925bdaddc4201f984611af2565b505f611140565b6111cb73514910771af9ca656af840dff83e8264ecf986ca61187a565b8015801561123b575b610e7e576111f69073514910771af9ca656af840dff83e8264ecf986ca61197f565b610e815761121773514910771af9ca656af840dff83e8264ecf986ca61187a565b8015610e7e57610e7e9073514910771af9ca656af840dff83e8264ecf986ca611af2565b505f6111d4565b61125f737fc66500c84a76ad7e9c93437bfc5ac33e2ddae961187a565b801580156112cf575b610e7e5761128a90737fc66500c84a76ad7e9c93437bfc5ac33e2ddae961197f565b610e81576112ab737fc66500c84a76ad7e9c93437bfc5ac33e2ddae961187a565b8015610e7e57610e7e90737fc66500c84a76ad7e9c93437bfc5ac33e2ddae9611af2565b505f611268565b6112f373d533a949740bb3306d119cc777fa900ba034cd5261187a565b80158015611363575b610e7e5761131e9073d533a949740bb3306d119cc777fa900ba034cd5261197f565b610e815761133f73d533a949740bb3306d119cc777fa900ba034cd5261187a565b8015610e7e57610e7e9073d533a949740bb3306d119cc777fa900ba034cd52611af2565b505f6112fc565b611387739f8f72aa9304c8b593d555f12ef6589cc3a579a261187a565b801580156113f7575b610e7e576113b290739f8f72aa9304c8b593d555f12ef6589cc3a579a261197f565b610e81576113d3739f8f72aa9304c8b593d555f12ef6589cc3a579a261187a565b8015610e7e57610e7e90739f8f72aa9304c8b593d555f12ef6589cc3a579a2611af2565b505f611390565b61141b73c00e94cb662c3520282e6f5717214004a7f2688861187a565b8015801561148b575b610e7e576114469073c00e94cb662c3520282e6f5717214004a7f2688861197f565b610e815761146773c00e94cb662c3520282e6f5717214004a7f2688861187a565b8015610e7e57610e7e9073c00e94cb662c3520282e6f5717214004a7f26888611af2565b505f611424565b6114af730bc529c00c6401aef6d220be8c6ea1667f6ad93e61187a565b8015801561151f575b610e7e576114da90730bc529c00c6401aef6d220be8c6ea1667f6ad93e61197f565b610e81576114fb730bc529c00c6401aef6d220be8c6ea1667f6ad93e61187a565b8015610e7e57610e7e90730bc529c00c6401aef6d220be8c6ea1667f6ad93e611af2565b505f6114b8565b611543735a98fcbea516cf06857215779fd812ca3bef1b3261187a565b801580156115b3575b610e7e5761156e90735a98fcbea516cf06857215779fd812ca3bef1b3261197f565b610e815761158f735a98fcbea516cf06857215779fd812ca3bef1b3261187a565b8015610e7e57610e7e90735a98fcbea516cf06857215779fd812ca3bef1b32611af2565b505f61154c565b6115d7737d1afa7b718fb893db30a3abc0cfc608aacfebb061187a565b80158015611647575b610e7e5761160290737d1afa7b718fb893db30a3abc0cfc608aacfebb061197f565b610e8157611623737d1afa7b718fb893db30a3abc0cfc608aacfebb061187a565b8015610e7e57610e7e90737d1afa7b718fb893db30a3abc0cfc608aacfebb0611af2565b505f6115e0565b61166b736982508145454ce325ddbe47a25d4ec3d231193361187a565b801580156116db575b610e7e5761169690736982508145454ce325ddbe47a25d4ec3d231193361197f565b610e81576116b7736982508145454ce325ddbe47a25d4ec3d231193361187a565b8015610e7e57610e7e90736982508145454ce325ddbe47a25d4ec3d2311933611af2565b505f611674565b6116ff733432b6a60d23ca0dfca7761b7ab56459d9c964d061187a565b8015801561176f575b610e7e5761172a90733432b6a60d23ca0dfca7761b7ab56459d9c964d061197f565b610e815761174b733432b6a60d23ca0dfca7761b7ab56459d9c964d061187a565b8015610e7e57610e7e90733432b6a60d23ca0dfca7761b7ab56459d9c964d0611af2565b505f611708565b61179373090185f2135308bad17527004364ebcc2d37e5f661187a565b80158015611803575b610e7e576117be9073090185f2135308bad17527004364ebcc2d37e5f661197f565b610e81576117df73090185f2135308bad17527004364ebcc2d37e5f661187a565b8015610e7e57610e7e9073090185f2135308bad17527004364ebcc2d37e5f6611af2565b505f61179c565b6040516370a0823160e01b815230600482015260208160248173c02aaa39b223fe8d0a0e5c4f27ead9083c756cc25afa908115610b39575f9161184b575090565b90506020813d602011611872575b8161186660209383610dc6565b81010312610b44575190565b3d9150611859565b6040516370a0823160e01b815230600482015290602090829060249082906001600160a01b03165afa908115610b39575f9161184b575090565b91909160a060c08201936001600160801b0381511683526001600160801b036020820151166020840152600180831b03604082015116604084015265ffffffffffff606082015116606084015265ffffffffffff608082015116608084015281600180821b0391015116910152565b3d1561195d573d9067ffffffffffffffff8211610d3e5760405191611952601f8201601f191660200184610dc6565b82523d5f602084013e565b606090565b805115610df95760200190565b805160011015610df95760400190565b905f916119a0737a250d5630b4cf539739df2c5dacb4c659f2488d82611d86565b15611aeb576119c482737a250d5630b4cf539739df2c5dacb4c659f2488d83611e09565b15611aeb57604051916119d8606084610dc6565b60028352602083019160403684376119ef84611962565b6001600160a01b03909116905273c02aaa39b223fe8d0a0e5c4f27ead9083c756cc2611a1a8461196f565b52737a250d5630b4cf539739df2c5dacb4c659f2488d3b15610b4457919060405192839263791ac94760e01b845260a484019160048501525f602485015260a060448501525180915260c4830191905f5b818110611ac95750505090805f92306064830152426084830152038183737a250d5630b4cf539739df2c5dacb4c659f2488d5af19081611ab4575b50611aae5790565b50600190565b611ac19192505f90610dc6565b5f905f611aa6565b82516001600160a01b0316845285945060209384019390920191600101611a6b565b5050505f90565b905f91611b1373d9e1ce17f2641f24ae83637ab66a2cca9c378b9f82611d86565b15611aeb57611b378273d9e1ce17f2641f24ae83637ab66a2cca9c378b9f83611e09565b15611aeb5760405191611b4b606084610dc6565b6002835260208301916040368437611b6284611962565b6001600160a01b03909116905273c02aaa39b223fe8d0a0e5c4f27ead9083c756cc2611b8d8461196f565b5273d9e1ce17f2641f24ae83637ab66a2cca9c378b9f3b15610b4457919060405192839263791ac94760e01b845260a484019160048501525f602485015260a060448501525180915260c4830191905f5b818110611c205750505090805f9230606483015242608483015203818373d9e1ce17f2641f24ae83637ab66a2cca9c378b9f5af19081611ab45750611aae5790565b82516001600160a01b0316845285945060209384019390920191600101611bde565b9073c02aaa39b223fe8d0a0e5c4f27ead9083c756cc2611c6192611e43565b6001600160a01b03811615610e7e575f809160405182602082019163bc25cf7760e01b835230602482015260248152611c9b604482610dc6565b51925af150610e7e611923565b5f516020611ef35f395f51905f525f516020611f335f395f51905f52611c6192611e43565b5f516020611f135f395f51905f525f516020611f335f395f51905f52611c6192611e43565b5f516020611ed35f395f51905f525f516020611f335f395f51905f52611c6192611e43565b5f516020611f135f395f51905f525f516020611ef35f395f51905f52611c6192611e43565b5f516020611ed35f395f51905f525f516020611ef35f395f51905f52611c6192611e43565b5f516020611ed35f395f51905f525f516020611f135f395f51905f52611c6192611e43565b60405163095ea7b360e01b602082019081526001600160a01b0390931660248201525f60448083018290528252928392918390611dc4606482610dc6565b51925af1611dd0611923565b81611dd9575090565b8051801592508215611dea57505090565b8192509060209181010312610b4457602001518015158103610b445790565b5f929183809360405190602082019363095ea7b360e01b855260018060a01b03166024830152604482015260448152611dc4606482610dc6565b60405163e6a4390560e01b602082019081526001600160a01b0393841660248301529390921660448084019190915282525f928392611e83606482610dc6565b51915afa611e8f611923565b90158015611ec7575b611ec257602081805181010312610b4457602001516001600160a01b03811690819003610b445790565b505f90565b506020815110611e9856fe0000000000000000000000006b175474e89094c44da98b954eedeac495271d0f000000000000000000000000a0b86991c6218b36c1d19d4a2e9eb0ce3606eb48000000000000000000000000dac17f958d2ee523a2206206994597c13d831ec70000000000000000000000002260fac5e5542a773aa44fbcfedf7c193bc2c599a2646970667358221220292250c1653e3c533659c0e1ae82553d782e5d5d8b791ba42450f77e858836d564736f6c634300081e0033","linkReferences":{}},"methodIdentifiers":{"executeOnOpportunity()":"3c2448ed","executed()":"31a38c89","hypothesisValidated()":"463defd1","lockedBalances()":"53e4a89a","lockedEth()":"660b27f5","profitAmount()":"5ff972cc","profitToken()":"49343624"},"id":0}