{"abi":[{"type":"constructor","inputs":[],"stateMutability":"nonpayable"},{"type":"function","name":"BALANCER_VAULT","inputs":[],"outputs":[{"name":"","type":"address","internalType":"address"}],"stateMutability":"view"},{"type":"function","name":"CANONICAL_USDC","inputs":[],"outputs":[{"name":"","type":"address","internalType":"address"}],"stateMutability":"view"},{"type":"function","name":"TARGET","inputs":[],"outputs":[{"name":"","type":"address","internalType":"address"}],"stateMutability":"view"},{"type":"function","name":"attemptCounter","inputs":[],"outputs":[{"name":"","type":"uint256","internalType":"uint256"}],"stateMutability":"view"},{"type":"function","name":"executeOnOpportunity","inputs":[],"outputs":[],"stateMutability":"nonpayable"},{"type":"function","name":"executeWithCapital","inputs":[{"name":"manipulationAmount","type":"uint256","internalType":"uint256"},{"name":"amount","type":"uint256","internalType":"uint256"}],"outputs":[{"name":"","type":"bool","internalType":"bool"}],"stateMutability":"nonpayable"},{"type":"function","name":"lastFailure","inputs":[],"outputs":[{"name":"","type":"string","internalType":"string"}],"stateMutability":"view"},{"type":"function","name":"profitAmount","inputs":[],"outputs":[{"name":"","type":"uint256","internalType":"uint256"}],"stateMutability":"view"},{"type":"function","name":"profitToken","inputs":[],"outputs":[{"name":"","type":"address","internalType":"address"}],"stateMutability":"view"},{"type":"function","name":"receiveFlashLoan","inputs":[{"name":"tokens","type":"address[]","internalType":"contract IERC20Like[]"},{"name":"amounts","type":"uint256[]","internalType":"uint256[]"},{"name":"feeAmounts","type":"uint256[]","internalType":"uint256[]"},{"name":"userData","type":"bytes","internalType":"bytes"}],"outputs":[],"stateMutability":"nonpayable"},{"type":"function","name":"startFlashLoan","inputs":[{"name":"flashAmount","type":"uint256","internalType":"uint256"},{"name":"totalManipulation","type":"uint256","internalType":"uint256"},{"name":"amount","type":"uint256","internalType":"uint256"}],"outputs":[{"name":"","type":"bool","internalType":"bool"}],"stateMutability":"nonpayable"}],"bytecode":{"object":"0x6080604052348015600e575f5ffd5b506141898061001c5f395ff3fe608060405234801561000f575f5ffd5b50600436106100a7575f3560e01c80635ff972cc1161006f5780635ff972cc14610151578063bc1638461461016f578063c3a5a1541461018d578063c7b3a51e146101ab578063cc1f2afa146101c9578063f04f2707146101e7576100a7565b806339f5fbbc146100ab5780633c2448ed146100c957806349343624146100d35780634d1b0352146100f15780635dce02cd14610121575b5f5ffd5b6100b3610203565b6040516100c09190612963565b60405180910390f35b6100d1610209565b005b6100db610784565b6040516100e891906129bb565b60405180910390f35b61010b60048036038101906101069190612a0f565b61081b565b6040516101189190612a67565b60405180910390f35b61013b60048036038101906101369190612a80565b610a22565b6040516101489190612a67565b60405180910390f35b610159610d0f565b6040516101669190612963565b60405180910390f35b610177610d18565b60405161018491906129bb565b60405180910390f35b610195610d30565b6040516101a29190612b40565b60405180910390f35b6101b3610dbc565b6040516101c091906129bb565b60405180910390f35b6101d1610dd4565b6040516101de91906129bb565b60405180910390f35b61020160048036038101906101fc9190612e4b565b610dec565b005b60085481565b610211611113565b6102196115ec565b5f6102226116c3565b90505f81036102615760405180606001604052806026815260200161412e6026913960099081610252919061311c565b5061025b6117ee565b50610782565b5f61026b82611937565b9050600160085f82825461027f9190613218565b925050819055505f60035f9054906101000a900473ffffffffffffffffffffffffffffffffffffffff1673ffffffffffffffffffffffffffffffffffffffff166370a08231306040518263ffffffff1660e01b81526004016102e191906129bb565b602060405180830381865afa1580156102fc573d5f5f3e3d5ffd5b505050506040513d601f19601f82011682018060405250810190610320919061325f565b90505f81111561044c575f828210610338578261033a565b815b90505f81111561044a573073ffffffffffffffffffffffffffffffffffffffff16634d1b035282866040518363ffffffff1660e01b815260040161037f92919061328a565b6020604051808303815f875af19250505080156103ba57506040513d601f19601f820116820180604052508101906103b791906132db565b60015b61040c573d805f81146103e8576040519150601f19603f3d011682016040523d82523d5f602084013e6103ed565b606091505b506103f781611ac4565b60099081610405919061311c565b5050610449565b80801561041a57505f600754115b156104475760405180602001604052805f8152506009908161043c919061311c565b505050505050610782565b505b5b505b5f60035f9054906101000a900473ffffffffffffffffffffffffffffffffffffffff1673ffffffffffffffffffffffffffffffffffffffff166370a08231306040518263ffffffff1660e01b81526004016104a791906129bb565b602060405180830381865afa1580156104c2573d5f5f3e3d5ffd5b505050506040513d601f19601f820116820180604052508101906104e6919061325f565b9050808311610500576104f76117ee565b50505050610782565b5f60035f9054906101000a900473ffffffffffffffffffffffffffffffffffffffff1673ffffffffffffffffffffffffffffffffffffffff166370a0823173ba12222222228d8ba445958a75a0704d566bf2c86040518263ffffffff1660e01b815260040161056f91906129bb565b602060405180830381865afa15801561058a573d5f5f3e3d5ffd5b505050506040513d601f19601f820116820180604052508101906105ae919061325f565b9050600181116105f2576040518060600160405280602b8152602001614103602b9139600990816105df919061311c565b506105e86117ee565b5050505050610782565b5f82856105ff9190613306565b90505f60018361060f9190613306565b90508082111561061d578091505b5f820361067d576040518060400160405280601981526020017f6e6f20666c61736820616d6f756e7420617661696c61626c650000000000000081525060099081610668919061311c565b506106716117ee565b50505050505050610782565b3073ffffffffffffffffffffffffffffffffffffffff16635dce02cd8384876106a69190613218565b8a6040518463ffffffff1660e01b81526004016106c593929190613339565b6020604051808303815f875af192505050801561070057506040513d601f19601f820116820180604052508101906106fd91906132db565b60015b610752573d805f811461072e576040519150601f19603f3d011682016040523d82523d5f602084013e610733565b606091505b5061073d81611ac4565b6009908161074b919061311c565b5050610772565b60405180602001604052805f8152506009908161076f919061311c565b50505b61077a6117ee565b505050505050505b565b5f5f73ffffffffffffffffffffffffffffffffffffffff1660035f9054906101000a900473ffffffffffffffffffffffffffffffffffffffff1673ffffffffffffffffffffffffffffffffffffffff16146108005760035f9054906101000a900473ffffffffffffffffffffffffffffffffffffffff16610816565b73a0b86991c6218b36c1d19d4a2e9eb0ce3606eb485b905090565b5f3073ffffffffffffffffffffffffffffffffffffffff163373ffffffffffffffffffffffffffffffffffffffff161461088a576040517f08c379a0000000000000000000000000000000000000000000000000000000008152600401610881906133b8565b60405180910390fd5b5f60035f9054906101000a900473ffffffffffffffffffffffffffffffffffffffff1673ffffffffffffffffffffffffffffffffffffffff166370a08231306040518263ffffffff1660e01b81526004016108e591906129bb565b602060405180830381865afa158015610900573d5f5f3e3d5ffd5b505050506040513d601f19601f82011682018060405250810190610924919061325f565b90506109308484611d0c565b5f60035f9054906101000a900473ffffffffffffffffffffffffffffffffffffffff1673ffffffffffffffffffffffffffffffffffffffff166370a08231306040518263ffffffff1660e01b815260040161098b91906129bb565b602060405180830381865afa1580156109a6573d5f5f3e3d5ffd5b505050506040513d601f19601f820116820180604052508101906109ca919061325f565b9050818111610a0e576040517f08c379a0000000000000000000000000000000000000000000000000000000008152600401610a0590613420565b60405180910390fd5b610a166117ee565b60019250505092915050565b5f3073ffffffffffffffffffffffffffffffffffffffff163373ffffffffffffffffffffffffffffffffffffffff1614610a91576040517f08c379a0000000000000000000000000000000000000000000000000000000008152600401610a88906133b8565b60405180910390fd5b5f600167ffffffffffffffff811115610aad57610aac612b64565b5b604051908082528060200260200182016040528015610adb5781602001602082028036833780820191505090505b50905060035f9054906101000a900473ffffffffffffffffffffffffffffffffffffffff16815f81518110610b1357610b1261343e565b5b602002602001019073ffffffffffffffffffffffffffffffffffffffff16908173ffffffffffffffffffffffffffffffffffffffff16815250505f600167ffffffffffffffff811115610b6957610b68612b64565b5b604051908082528060200260200182016040528015610b975781602001602082028036833780820191505090505b50905085815f81518110610bae57610bad61343e565b5b6020026020010181815250505f858560035f9054906101000a900473ffffffffffffffffffffffffffffffffffffffff1673ffffffffffffffffffffffffffffffffffffffff166370a08231306040518263ffffffff1660e01b8152600401610c1791906129bb565b602060405180830381865afa158015610c32573d5f5f3e3d5ffd5b505050506040513d601f19601f82011682018060405250810190610c56919061325f565b604051602001610c6893929190613339565b604051602081830303815290604052905073ba12222222228d8ba445958a75a0704d566bf2c873ffffffffffffffffffffffffffffffffffffffff16635c38449e308585856040518563ffffffff1660e01b8152600401610ccc949392919061368e565b5f604051808303815f87803b158015610ce3575f5ffd5b505af1158015610cf5573d5f5f3e3d5ffd5b50505050610d016117ee565b600193505050509392505050565b5f600754905090565b73ba12222222228d8ba445958a75a0704d566bf2c881565b60098054610d3d90612f4c565b80601f0160208091040260200160405190810160405280929190818152602001828054610d6990612f4c565b8015610db45780601f10610d8b57610100808354040283529160200191610db4565b820191905f5260205f20905b815481529060010190602001808311610d9757829003601f168201915b505050505081565b73a0b86991c6218b36c1d19d4a2e9eb0ce3606eb4881565b73765b8d7cd8ff304f796f4b6fb1bcf78698333f6d81565b73ba12222222228d8ba445958a75a0704d566bf2c873ffffffffffffffffffffffffffffffffffffffff163373ffffffffffffffffffffffffffffffffffffffff1614610e6e576040517f08c379a0000000000000000000000000000000000000000000000000000000008152600401610e6590613730565b60405180910390fd5b60018451148015610e80575060018351145b8015610e8d575060018251145b610ecc576040517f08c379a0000000000000000000000000000000000000000000000000000000008152600401610ec390613798565b60405180910390fd5b60035f9054906101000a900473ffffffffffffffffffffffffffffffffffffffff1673ffffffffffffffffffffffffffffffffffffffff16845f81518110610f1757610f1661343e565b5b602002602001015173ffffffffffffffffffffffffffffffffffffffff1614610f75576040517f08c379a0000000000000000000000000000000000000000000000000000000008152600401610f6c90613800565b60405180910390fd5b5f5f5f83806020019051810190610f8c919061381e565b925092509250610f9c8383611d0c565b5f855f81518110610fb057610faf61343e565b5b6020026020010151875f81518110610fcb57610fca61343e565b5b6020026020010151610fdd9190613218565b90505f60035f9054906101000a900473ffffffffffffffffffffffffffffffffffffffff1673ffffffffffffffffffffffffffffffffffffffff166370a08231306040518263ffffffff1660e01b815260040161103a91906129bb565b602060405180830381865afa158015611055573d5f5f3e3d5ffd5b505050506040513d601f19601f82011682018060405250810190611079919061325f565b905081836110879190613218565b81116110c8576040517f08c379a00000000000000000000000000000000000000000000000000000000081526004016110bf906138b8565b60405180910390fd5b61110860035f9054906101000a900473ffffffffffffffffffffffffffffffffffffffff1673ba12222222228d8ba445958a75a0704d566bf2c8846121f1565b505050505050505050565b5f73ffffffffffffffffffffffffffffffffffffffff1660025f9054906101000a900473ffffffffffffffffffffffffffffffffffffffff1673ffffffffffffffffffffffffffffffffffffffff16141580156111bd57505f73ffffffffffffffffffffffffffffffffffffffff1660035f9054906101000a900473ffffffffffffffffffffffffffffffffffffffff1673ffffffffffffffffffffffffffffffffffffffff1614155b801561121657505f73ffffffffffffffffffffffffffffffffffffffff1660045f9054906101000a900473ffffffffffffffffffffffffffffffffffffffff1673ffffffffffffffffffffffffffffffffffffffff1614155b6115ea575f73765b8d7cd8ff304f796f4b6fb1bcf78698333f6d90508073ffffffffffffffffffffffffffffffffffffffff166376b171236040518163ffffffff1660e01b8152600401602060405180830381865afa15801561127b573d5f5f3e3d5ffd5b505050506040513d601f19601f8201168201806040525081019061129f9190613900565b5f5f6101000a81548173ffffffffffffffffffffffffffffffffffffffff021916908373ffffffffffffffffffffffffffffffffffffffff1602179055508073ffffffffffffffffffffffffffffffffffffffff166349a76d0a6040518163ffffffff1660e01b8152600401602060405180830381865afa158015611326573d5f5f3e3d5ffd5b505050506040513d601f19601f8201168201806040525081019061134a9190613900565b60015f6101000a81548173ffffffffffffffffffffffffffffffffffffffff021916908373ffffffffffffffffffffffffffffffffffffffff1602179055508073ffffffffffffffffffffffffffffffffffffffff16637165485d6040518163ffffffff1660e01b8152600401602060405180830381865afa1580156113d2573d5f5f3e3d5ffd5b505050506040513d601f19601f820116820180604052508101906113f69190613900565b60025f6101000a81548173ffffffffffffffffffffffffffffffffffffffff021916908373ffffffffffffffffffffffffffffffffffffffff1602179055505f5f5f9054906101000a900473ffffffffffffffffffffffffffffffffffffffff1673ffffffffffffffffffffffffffffffffffffffff1663fc0c546a6040518163ffffffff1660e01b81526004015f60405180830381865afa15801561149e573d5f5f3e3d5ffd5b505050506040513d5f823e3d601f19601f820116820180604052508101906114c691906139c9565b5090505f60015f9054906101000a900473ffffffffffffffffffffffffffffffffffffffff1673ffffffffffffffffffffffffffffffffffffffff1663fc0c546a6040518163ffffffff1660e01b81526004015f60405180830381865afa158015611533573d5f5f3e3d5ffd5b505050506040513d5f823e3d601f19601f8201168201806040525081019061155b91906139c9565b5090508160035f6101000a81548173ffffffffffffffffffffffffffffffffffffffff021916908373ffffffffffffffffffffffffffffffffffffffff1602179055508060045f6101000a81548173ffffffffffffffffffffffffffffffffffffffff021916908373ffffffffffffffffffffffffffffffffffffffff1602179055506115e6612358565b5050505b565b60065f9054906101000a900460ff166116c157600160065f6101000a81548160ff02191690831515021790555060035f9054906101000a900473ffffffffffffffffffffffffffffffffffffffff1673ffffffffffffffffffffffffffffffffffffffff166370a08231306040518263ffffffff1660e01b815260040161167391906129bb565b602060405180830381865afa15801561168e573d5f5f3e3d5ffd5b505050506040513d601f19601f820116820180604052508101906116b2919061325f565b6005819055506116c06117ee565b5b565b5f5f73765b8d7cd8ff304f796f4b6fb1bcf78698333f6d73ffffffffffffffffffffffffffffffffffffffff1663a9a67eb96040518163ffffffff1660e01b8152600401602060405180830381865afa158015611722573d5f5f3e3d5ffd5b505050506040513d601f19601f82011682018060405250810190611746919061325f565b90505f5f9054906101000a900473ffffffffffffffffffffffffffffffffffffffff1673ffffffffffffffffffffffffffffffffffffffff1663b69ef8a86040518163ffffffff1660e01b81526004016020604051808303815f875af11580156117b2573d5f5f3e3d5ffd5b505050506040513d601f19601f820116820180604052508101906117d6919061325f565b9150808210156117e9575f9150506117eb565b505b90565b5f73ffffffffffffffffffffffffffffffffffffffff1660035f9054906101000a900473ffffffffffffffffffffffffffffffffffffffff1673ffffffffffffffffffffffffffffffffffffffff161480611855575060065f9054906101000a900460ff16155b15611866575f600781905550611935565b5f60035f9054906101000a900473ffffffffffffffffffffffffffffffffffffffff1673ffffffffffffffffffffffffffffffffffffffff166370a08231306040518263ffffffff1660e01b81526004016118c191906129bb565b602060405180830381865afa1580156118dc573d5f5f3e3d5ffd5b505050506040513d601f19601f82011682018060405250810190611900919061325f565b90505f6005548211611912575f611921565b600554826119209190613306565b5b905061192c81612425565b60078190555050505b565b5f5f6119436001612506565b90505f6119506002612506565b90505f5f82116119605782611962565b815b90505f60066008546119749190613a50565b90505f81036119aa5761199f60038761198d9190613a80565b60148461199a9190613ac1565b612650565b945050505050611abf565b600181036119df576119d46008876119c29190613a80565b600a846119cf9190613ac1565b612650565b945050505050611abf565b60028103611a1457611a096014876119f79190613a80565b600584611a049190613ac1565b612650565b945050505050611abf565b60038103611a5557611a4a602887611a2c9190613a80565b600a600385611a3b9190613a80565b611a459190613ac1565b612650565b945050505050611abf565b60048103611a8a57611a7f605087611a6d9190613a80565b600284611a7a9190613ac1565b612650565b945050505050611abf565b611ab8607887611a9a9190613a80565b600a600785611aa99190613a80565b611ab39190613ac1565b612650565b9450505050505b919050565b6060600482511015611b0d576040518060400160405280600d81526020017f63616c6c207265766572746564000000000000000000000000000000000000008152509050611d07565b5f602083015190506308c379a060e01b817bffffffffffffffffffffffffffffffffffffffffffffffffffffffff1916148015611b4c57506044835110155b15611c53575f60048451611b609190613306565b67ffffffffffffffff811115611b7957611b78612b64565b5b6040519080825280601f01601f191660200182016040528015611bab5781602001600182028036833780820191505090505b5090505f600490505b8451811015611c3557848181518110611bd057611bcf61343e565b5b602001015160f81c60f81b82600483611be99190613306565b81518110611bfa57611bf961343e565b5b60200101907effffffffffffffffffffffffffffffffffffffffffffffffffffffffffffff191690815f1a9053508080600101915050611bb4565b5080806020019051810190611c4a9190613af1565b92505050611d07565b634e487b7160e01b817bffffffffffffffffffffffffffffffffffffffffffffffffffffffff1916148015611c8a57506024835110155b15611ccd576040518060400160405280600581526020017f70616e6963000000000000000000000000000000000000000000000000000000815250915050611d07565b6040518060400160405280600d81526020017f63616c6c207265766572746564000000000000000000000000000000000000008152509150505b919050565b5f8211611d4e576040517f08c379a0000000000000000000000000000000000000000000000000000000008152600401611d4590613b82565b60405180910390fd5b5f60035f9054906101000a900473ffffffffffffffffffffffffffffffffffffffff1673ffffffffffffffffffffffffffffffffffffffff166370a08231306040518263ffffffff1660e01b8152600401611da991906129bb565b602060405180830381865afa158015611dc4573d5f5f3e3d5ffd5b505050506040513d601f19601f82011682018060405250810190611de8919061325f565b905082811015611e2d576040517f08c379a0000000000000000000000000000000000000000000000000000000008152600401611e2490613bea565b60405180910390fd5b611e7a60035f9054906101000a900473ffffffffffffffffffffffffffffffffffffffff1660025f9054906101000a900473ffffffffffffffffffffffffffffffffffffffff165f612669565b611ec760035f9054906101000a900473ffffffffffffffffffffffffffffffffffffffff1660025f9054906101000a900473ffffffffffffffffffffffffffffffffffffffff1685612669565b60025f9054906101000a900473ffffffffffffffffffffffffffffffffffffffff1673ffffffffffffffffffffffffffffffffffffffff1663a6417ed660016002865f6040518563ffffffff1660e01b8152600401611f299493929190613cbf565b5f604051808303815f87803b158015611f40575f5ffd5b505af1158015611f52573d5f5f3e3d5ffd5b5050505073765b8d7cd8ff304f796f4b6fb1bcf78698333f6d73ffffffffffffffffffffffffffffffffffffffff1663fcb5d44d836040518263ffffffff1660e01b8152600401611fa39190612963565b6020604051808303815f875af1158015611fbf573d5f5f3e3d5ffd5b505050506040513d601f19601f82011682018060405250810190611fe391906132db565b505f60045f9054906101000a900473ffffffffffffffffffffffffffffffffffffffff1673ffffffffffffffffffffffffffffffffffffffff166370a08231306040518263ffffffff1660e01b815260040161203f91906129bb565b602060405180830381865afa15801561205a573d5f5f3e3d5ffd5b505050506040513d601f19601f8201168201806040525081019061207e919061325f565b90505f81116120c2576040517f08c379a00000000000000000000000000000000000000000000000000000000081526004016120b990613d4c565b60405180910390fd5b61210f60045f9054906101000a900473ffffffffffffffffffffffffffffffffffffffff1660025f9054906101000a900473ffffffffffffffffffffffffffffffffffffffff165f612669565b61215c60045f9054906101000a900473ffffffffffffffffffffffffffffffffffffffff1660025f9054906101000a900473ffffffffffffffffffffffffffffffffffffffff1683612669565b60025f9054906101000a900473ffffffffffffffffffffffffffffffffffffffff1673ffffffffffffffffffffffffffffffffffffffff1663a6417ed660026001845f6040518563ffffffff1660e01b81526004016121be9493929190613d6a565b5f604051808303815f87803b1580156121d5575f5ffd5b505af11580156121e7573d5f5f3e3d5ffd5b5050505050505050565b5f5f8473ffffffffffffffffffffffffffffffffffffffff16848460405160240161221d929190613dad565b6040516020818303038152906040527fa9059cbb000000000000000000000000000000000000000000000000000000007bffffffffffffffffffffffffffffffffffffffffffffffffffffffff19166020820180517bffffffffffffffffffffffffffffffffffffffffffffffffffffffff83818316178352505050506040516122a79190613e0e565b5f604051808303815f865af19150503d805f81146122e0576040519150601f19603f3d011682016040523d82523d5f602084013e6122e5565b606091505b509150915081801561231257505f8151148061231157508080602001905181019061231091906132db565b5b5b612351576040517f08c379a000000000000000000000000000000000000000000000000000000000815260040161234890613e6e565b60405180910390fd5b5050505050565b600660029054906101000a900460ff16806123bf57505f73ffffffffffffffffffffffffffffffffffffffff1660035f9054906101000a900473ffffffffffffffffffffffffffffffffffffffff1673ffffffffffffffffffffffffffffffffffffffff16145b612423576001600660026101000a81548160ff02191690831515021790555061240860035f9054906101000a900473ffffffffffffffffffffffffffffffffffffffff166127d0565b600660016101000a81548160ff021916908360ff1602179055505b565b5f600660029054906101000a900460ff16158061244157505f82145b1561244e57819050612501565b6012600660019054906101000a900460ff1660ff160361247057819050612501565b6012600660019054906101000a900460ff1660ff1610156124c857600660019054906101000a900460ff1660126124a79190613e98565b60ff16600a6124b69190613ffb565b826124c19190613a80565b9050612501565b6012600660019054906101000a900460ff166124e49190613e98565b60ff16600a6124f39190613ffb565b826124fe9190613ac1565b90505b919050565b5f5f5f60025f9054906101000a900473ffffffffffffffffffffffffffffffffffffffff1673ffffffffffffffffffffffffffffffffffffffff16846040516024016125529190612963565b6040516020818303038152906040527f4903b0d1000000000000000000000000000000000000000000000000000000007bffffffffffffffffffffffffffffffffffffffffffffffffffffffff19166020820180517bffffffffffffffffffffffffffffffffffffffffffffffffffffffff83818316178352505050506040516125dc9190613e0e565b5f60405180830381855afa9150503d805f8114612614576040519150601f19603f3d011682016040523d82523d5f602084013e612619565b606091505b509150915081801561262d57506020815110155b156126495780806020019051810190612646919061325f565b92505b5050919050565b5f8183101561265f5781612661565b825b905092915050565b5f5f8473ffffffffffffffffffffffffffffffffffffffff168484604051602401612695929190613dad565b6040516020818303038152906040527f095ea7b3000000000000000000000000000000000000000000000000000000007bffffffffffffffffffffffffffffffffffffffffffffffffffffffff19166020820180517bffffffffffffffffffffffffffffffffffffffffffffffffffffffff838183161783525050505060405161271f9190613e0e565b5f604051808303815f865af19150503d805f8114612758576040519150601f19603f3d011682016040523d82523d5f602084013e61275d565b606091505b509150915081801561278a57505f8151148061278957508080602001905181019061278891906132db565b5b5b6127c9576040517f08c379a00000000000000000000000000000000000000000000000000000000081526004016127c09061408f565b60405180910390fd5b5050505050565b5f5f5f8373ffffffffffffffffffffffffffffffffffffffff166040516024016040516020818303038152906040527f313ce567000000000000000000000000000000000000000000000000000000007bffffffffffffffffffffffffffffffffffffffffffffffffffffffff19166020820180517bffffffffffffffffffffffffffffffffffffffffffffffffffffffff838183161783525050505060405161287a9190613e0e565b5f60405180830381855afa9150503d805f81146128b2576040519150601f19603f3d011682016040523d82523d5f602084013e6128b7565b606091505b50915091508180156128cb57506020815110155b156128ed57808060200190518101906128e491906140d7565b92505050612946565b73a0b86991c6218b36c1d19d4a2e9eb0ce3606eb4873ffffffffffffffffffffffffffffffffffffffff168473ffffffffffffffffffffffffffffffffffffffff160361293f57600692505050612946565b6012925050505b919050565b5f819050919050565b61295d8161294b565b82525050565b5f6020820190506129765f830184612954565b92915050565b5f73ffffffffffffffffffffffffffffffffffffffff82169050919050565b5f6129a58261297c565b9050919050565b6129b58161299b565b82525050565b5f6020820190506129ce5f8301846129ac565b92915050565b5f604051905090565b5f5ffd5b5f5ffd5b6129ee8161294b565b81146129f8575f5ffd5b50565b5f81359050612a09816129e5565b92915050565b5f5f60408385031215612a2557612a246129dd565b5b5f612a32858286016129fb565b9250506020612a43858286016129fb565b9150509250929050565b5f8115159050919050565b612a6181612a4d565b82525050565b5f602082019050612a7a5f830184612a58565b92915050565b5f5f5f60608486031215612a9757612a966129dd565b5b5f612aa4868287016129fb565b9350506020612ab5868287016129fb565b9250506040612ac6868287016129fb565b9150509250925092565b5f81519050919050565b5f82825260208201905092915050565b8281835e5f83830152505050565b5f601f19601f8301169050919050565b5f612b1282612ad0565b612b1c8185612ada565b9350612b2c818560208601612aea565b612b3581612af8565b840191505092915050565b5f6020820190508181035f830152612b588184612b08565b905092915050565b5f5ffd5b7f4e487b71000000000000000000000000000000000000000000000000000000005f52604160045260245ffd5b612b9a82612af8565b810181811067ffffffffffffffff82111715612bb957612bb8612b64565b5b80604052505050565b5f612bcb6129d4565b9050612bd78282612b91565b919050565b5f67ffffffffffffffff821115612bf657612bf5612b64565b5b602082029050602081019050919050565b5f5ffd5b5f612c158261299b565b9050919050565b612c2581612c0b565b8114612c2f575f5ffd5b50565b5f81359050612c4081612c1c565b92915050565b5f612c58612c5384612bdc565b612bc2565b90508083825260208201905060208402830185811115612c7b57612c7a612c07565b5b835b81811015612ca45780612c908882612c32565b845260208401935050602081019050612c7d565b5050509392505050565b5f82601f830112612cc257612cc1612b60565b5b8135612cd2848260208601612c46565b91505092915050565b5f67ffffffffffffffff821115612cf557612cf4612b64565b5b602082029050602081019050919050565b5f612d18612d1384612cdb565b612bc2565b90508083825260208201905060208402830185811115612d3b57612d3a612c07565b5b835b81811015612d645780612d5088826129fb565b845260208401935050602081019050612d3d565b5050509392505050565b5f82601f830112612d8257612d81612b60565b5b8135612d92848260208601612d06565b91505092915050565b5f5ffd5b5f67ffffffffffffffff821115612db957612db8612b64565b5b612dc282612af8565b9050602081019050919050565b828183375f83830152505050565b5f612def612dea84612d9f565b612bc2565b905082815260208101848484011115612e0b57612e0a612d9b565b5b612e16848285612dcf565b509392505050565b5f82601f830112612e3257612e31612b60565b5b8135612e42848260208601612ddd565b91505092915050565b5f5f5f5f60808587031215612e6357612e626129dd565b5b5f85013567ffffffffffffffff811115612e8057612e7f6129e1565b5b612e8c87828801612cae565b945050602085013567ffffffffffffffff811115612ead57612eac6129e1565b5b612eb987828801612d6e565b935050604085013567ffffffffffffffff811115612eda57612ed96129e1565b5b612ee687828801612d6e565b925050606085013567ffffffffffffffff811115612f0757612f066129e1565b5b612f1387828801612e1e565b91505092959194509250565b7f4e487b71000000000000000000000000000000000000000000000000000000005f52602260045260245ffd5b5f6002820490506001821680612f6357607f821691505b602082108103612f7657612f75612f1f565b5b50919050565b5f819050815f5260205f209050919050565b5f6020601f8301049050919050565b5f82821b905092915050565b5f60088302612fd87fffffffffffffffffffffffffffffffffffffffffffffffffffffffffffffffff82612f9d565b612fe28683612f9d565b95508019841693508086168417925050509392505050565b5f819050919050565b5f61301d6130186130138461294b565b612ffa565b61294b565b9050919050565b5f819050919050565b61303683613003565b61304a61304282613024565b848454612fa9565b825550505050565b5f5f905090565b613061613052565b61306c81848461302d565b505050565b5b8181101561308f576130845f82613059565b600181019050613072565b5050565b601f8211156130d4576130a581612f7c565b6130ae84612f8e565b810160208510156130bd578190505b6130d16130c985612f8e565b830182613071565b50505b505050565b5f82821c905092915050565b5f6130f45f19846008026130d9565b1980831691505092915050565b5f61310c83836130e5565b9150826002028217905092915050565b61312582612ad0565b67ffffffffffffffff81111561313e5761313d612b64565b5b6131488254612f4c565b613153828285613093565b5f60209050601f831160018114613184575f8415613172578287015190505b61317c8582613101565b8655506131e3565b601f19841661319286612f7c565b5f5b828110156131b957848901518255600182019150602085019450602081019050613194565b868310156131d657848901516131d2601f8916826130e5565b8355505b6001600288020188555050505b505050505050565b7f4e487b71000000000000000000000000000000000000000000000000000000005f52601160045260245ffd5b5f6132228261294b565b915061322d8361294b565b9250828201905080821115613245576132446131eb565b5b92915050565b5f81519050613259816129e5565b92915050565b5f60208284031215613274576132736129dd565b5b5f6132818482850161324b565b91505092915050565b5f60408201905061329d5f830185612954565b6132aa6020830184612954565b9392505050565b6132ba81612a4d565b81146132c4575f5ffd5b50565b5f815190506132d5816132b1565b92915050565b5f602082840312156132f0576132ef6129dd565b5b5f6132fd848285016132c7565b91505092915050565b5f6133108261294b565b915061331b8361294b565b9250828203905081811115613333576133326131eb565b5b92915050565b5f60608201905061334c5f830186612954565b6133596020830185612954565b6133666040830184612954565b949350505050565b7f73656c66206f6e6c7900000000000000000000000000000000000000000000005f82015250565b5f6133a2600983612ada565b91506133ad8261336e565b602082019050919050565b5f6020820190508181035f8301526133cf81613396565b9050919050565b7f6469726563742061747461636b20756e70726f66697461626c650000000000005f82015250565b5f61340a601a83612ada565b9150613415826133d6565b602082019050919050565b5f6020820190508181035f830152613437816133fe565b9050919050565b7f4e487b71000000000000000000000000000000000000000000000000000000005f52603260045260245ffd5b5f61348561348061347b8461297c565b612ffa565b61297c565b9050919050565b5f6134968261346b565b9050919050565b5f6134a78261348c565b9050919050565b6134b78161349d565b82525050565b5f81519050919050565b5f82825260208201905092915050565b5f819050602082019050919050565b5f6134f08261348c565b9050919050565b613500816134e6565b82525050565b5f61351183836134f7565b60208301905092915050565b5f602082019050919050565b5f613533826134bd565b61353d81856134c7565b9350613548836134d7565b805f5b8381101561357857815161355f8882613506565b975061356a8361351d565b92505060018101905061354b565b5085935050505092915050565b5f81519050919050565b5f82825260208201905092915050565b5f819050602082019050919050565b6135b78161294b565b82525050565b5f6135c883836135ae565b60208301905092915050565b5f602082019050919050565b5f6135ea82613585565b6135f4818561358f565b93506135ff8361359f565b805f5b8381101561362f57815161361688826135bd565b9750613621836135d4565b925050600181019050613602565b5085935050505092915050565b5f81519050919050565b5f82825260208201905092915050565b5f6136608261363c565b61366a8185613646565b935061367a818560208601612aea565b61368381612af8565b840191505092915050565b5f6080820190506136a15f8301876134ae565b81810360208301526136b38186613529565b905081810360408301526136c781856135e0565b905081810360608301526136db8184613656565b905095945050505050565b7f7661756c74206f6e6c79000000000000000000000000000000000000000000005f82015250565b5f61371a600a83612ada565b9150613725826136e6565b602082019050919050565b5f6020820190508181035f8301526137478161370e565b9050919050565b7f73696e676c652d746f6b656e206f6e6c790000000000000000000000000000005f82015250565b5f613782601183612ada565b915061378d8261374e565b602082019050919050565b5f6020820190508181035f8301526137af81613776565b9050919050565b7f756e657870656374656420746f6b656e000000000000000000000000000000005f82015250565b5f6137ea601083612ada565b91506137f5826137b6565b602082019050919050565b5f6020820190508181035f830152613817816137de565b9050919050565b5f5f5f60608486031215613835576138346129dd565b5b5f6138428682870161324b565b93505060206138538682870161324b565b92505060406138648682870161324b565b9150509250925092565b7f666c6173682061747461636b20756e70726f66697461626c65000000000000005f82015250565b5f6138a2601983612ada565b91506138ad8261386e565b602082019050919050565b5f6020820190508181035f8301526138cf81613896565b9050919050565b6138df8161299b565b81146138e9575f5ffd5b50565b5f815190506138fa816138d6565b92915050565b5f60208284031215613915576139146129dd565b5b5f613922848285016138ec565b91505092915050565b5f67ffffffffffffffff82111561394557613944612b64565b5b61394e82612af8565b9050602081019050919050565b5f61396d6139688461392b565b612bc2565b90508281526020810184848401111561398957613988612d9b565b5b613994848285612aea565b509392505050565b5f82601f8301126139b0576139af612b60565b5b81516139c084826020860161395b565b91505092915050565b5f5f604083850312156139df576139de6129dd565b5b5f6139ec858286016138ec565b925050602083015167ffffffffffffffff811115613a0d57613a0c6129e1565b5b613a198582860161399c565b9150509250929050565b7f4e487b71000000000000000000000000000000000000000000000000000000005f52601260045260245ffd5b5f613a5a8261294b565b9150613a658361294b565b925082613a7557613a74613a23565b5b828206905092915050565b5f613a8a8261294b565b9150613a958361294b565b9250828202613aa38161294b565b91508282048414831517613aba57613ab96131eb565b5b5092915050565b5f613acb8261294b565b9150613ad68361294b565b925082613ae657613ae5613a23565b5b828204905092915050565b5f60208284031215613b0657613b056129dd565b5b5f82015167ffffffffffffffff811115613b2357613b226129e1565b5b613b2f8482850161399c565b91505092915050565b7f6e6f206d616e6970756c6174696f6e206361706974616c0000000000000000005f82015250565b5f613b6c601783612ada565b9150613b7782613b38565b602082019050919050565b5f6020820190508181035f830152613b9981613b60565b9050919050565b7f696e73756666696369656e7420555344430000000000000000000000000000005f82015250565b5f613bd4601183612ada565b9150613bdf82613ba0565b602082019050919050565b5f6020820190508181035f830152613c0181613bc8565b9050919050565b5f819050919050565b5f81600f0b9050919050565b5f613c37613c32613c2d84613c08565b612ffa565b613c11565b9050919050565b613c4781613c1d565b82525050565b5f819050919050565b5f613c70613c6b613c6684613c4d565b612ffa565b613c11565b9050919050565b613c8081613c56565b82525050565b5f819050919050565b5f613ca9613ca4613c9f84613c86565b612ffa565b61294b565b9050919050565b613cb981613c8f565b82525050565b5f608082019050613cd25f830187613c3e565b613cdf6020830186613c77565b613cec6040830185612954565b613cf96060830184613cb0565b95945050505050565b7f6e6f205553445420746f20756e77696e640000000000000000000000000000005f82015250565b5f613d36601183612ada565b9150613d4182613d02565b602082019050919050565b5f6020820190508181035f830152613d6381613d2a565b9050919050565b5f608082019050613d7d5f830187613c77565b613d8a6020830186613c3e565b613d976040830185612954565b613da46060830184613cb0565b95945050505050565b5f604082019050613dc05f8301856129ac565b613dcd6020830184612954565b9392505050565b5f81905092915050565b5f613de88261363c565b613df28185613dd4565b9350613e02818560208601612aea565b80840191505092915050565b5f613e198284613dde565b915081905092915050565b7f7472616e73666572206661696c656400000000000000000000000000000000005f82015250565b5f613e58600f83612ada565b9150613e6382613e24565b602082019050919050565b5f6020820190508181035f830152613e8581613e4c565b9050919050565b5f60ff82169050919050565b5f613ea282613e8c565b9150613ead83613e8c565b9250828203905060ff811115613ec657613ec56131eb565b5b92915050565b5f8160011c9050919050565b5f5f8291508390505b6001851115613f2157808604811115613efd57613efc6131eb565b5b6001851615613f0c5780820291505b8081029050613f1a85613ecc565b9450613ee1565b94509492505050565b5f82613f395760019050613ff4565b81613f46575f9050613ff4565b8160018114613f5c5760028114613f6657613f95565b6001915050613ff4565b60ff841115613f7857613f776131eb565b5b8360020a915084821115613f8f57613f8e6131eb565b5b50613ff4565b5060208310610133831016604e8410600b8410161715613fca5782820a905083811115613fc557613fc46131eb565b5b613ff4565b613fd78484846001613ed8565b92509050818404811115613fee57613fed6131eb565b5b81810290505b9392505050565b5f6140058261294b565b91506140108361294b565b925061403d7fffffffffffffffffffffffffffffffffffffffffffffffffffffffffffffffff8484613f2a565b905092915050565b7f617070726f7665206661696c65640000000000000000000000000000000000005f82015250565b5f614079600e83612ada565b915061408482614045565b602082019050919050565b5f6020820190508181035f8301526140a68161406d565b9050919050565b6140b681613e8c565b81146140c0575f5ffd5b50565b5f815190506140d1816140ad565b92915050565b5f602082840312156140ec576140eb6129dd565b5b5f6140f9848285016140c3565b9150509291505056fe62616c616e636572207661756c7420686173206e6f20757361626c652055534443206c697175696469747966726f6d5f62616e6b2062616c616e63652062656c6f77206d696e696d756d5f616d6f756e74a2646970667358221220c03e993e53d2232b2423803114b91265671ad138a324f10790ca01eed13fc0e264736f6c634300081e0033","linkReferences":{}},"methodIdentifiers":{"BALANCER_VAULT()":"bc163846","CANONICAL_USDC()":"c7b3a51e","TARGET()":"cc1f2afa","attemptCounter()":"39f5fbbc","executeOnOpportunity()":"3c2448ed","executeWithCapital(uint256,uint256)":"4d1b0352","lastFailure()":"c3a5a154","profitAmount()":"5ff972cc","profitToken()":"49343624","receiveFlashLoan(address[],uint256[],uint256[],bytes)":"f04f2707","startFlashLoan(uint256,uint256,uint256)":"5dce02cd"},"id":0}