{"abi":[{"type":"constructor","inputs":[{"name":"attacker_","type":"address","internalType":"address"},{"name":"honestDepositor_","type":"address","internalType":"address"},{"name":"stakingTarget_","type":"address","internalType":"address"},{"name":"honestAllocation_","type":"uint256","internalType":"uint256"}],"stateMutability":"nonpayable"},{"type":"function","name":"ATTACKER","inputs":[],"outputs":[{"name":"","type":"address","internalType":"address"}],"stateMutability":"view"},{"type":"function","name":"DECIMALS","inputs":[],"outputs":[{"name":"","type":"uint8","internalType":"uint8"}],"stateMutability":"view"},{"type":"function","name":"HONEST_DEPOSITOR","inputs":[],"outputs":[{"name":"","type":"address","internalType":"address"}],"stateMutability":"view"},{"type":"function","name":"NAME","inputs":[],"outputs":[{"name":"","type":"string","internalType":"string"}],"stateMutability":"view"},{"type":"function","name":"STAKING_TARGET","inputs":[],"outputs":[{"name":"","type":"address","internalType":"address"}],"stateMutability":"view"},{"type":"function","name":"SYMBOL","inputs":[],"outputs":[{"name":"","type":"string","internalType":"string"}],"stateMutability":"view"},{"type":"function","name":"allowance","inputs":[{"name":"owner","type":"address","internalType":"address"},{"name":"spender","type":"address","internalType":"address"}],"outputs":[{"name":"","type":"uint256","internalType":"uint256"}],"stateMutability":"view"},{"type":"function","name":"approve","inputs":[{"name":"spender","type":"address","internalType":"address"},{"name":"amount","type":"uint256","internalType":"uint256"}],"outputs":[{"name":"","type":"bool","internalType":"bool"}],"stateMutability":"nonpayable"},{"type":"function","name":"balanceOf","inputs":[{"name":"account","type":"address","internalType":"address"}],"outputs":[{"name":"","type":"uint256","internalType":"uint256"}],"stateMutability":"view"},{"type":"function","name":"transfer","inputs":[{"name":"to","type":"address","internalType":"address"},{"name":"amount","type":"uint256","internalType":"uint256"}],"outputs":[{"name":"","type":"bool","internalType":"bool"}],"stateMutability":"nonpayable"},{"type":"function","name":"transferFrom","inputs":[{"name":"from","type":"address","internalType":"address"},{"name":"to","type":"address","internalType":"address"},{"name":"amount","type":"uint256","internalType":"uint256"}],"outputs":[{"name":"","type":"bool","internalType":"bool"}],"stateMutability":"nonpayable"},{"type":"event","name":"Approval","inputs":[{"name":"owner","type":"address","indexed":true,"internalType":"address"},{"name":"spender","type":"address","indexed":true,"internalType":"address"},{"name":"amount","type":"uint256","indexed":false,"internalType":"uint256"}],"anonymous":false},{"type":"event","name":"Transfer","inputs":[{"name":"from","type":"address","indexed":true,"internalType":"address"},{"name":"to","type":"address","indexed":true,"internalType":"address"},{"name":"amount","type":"uint256","indexed":false,"internalType":"uint256"}],"anonymous":false}],"bytecode":{"object":"0x60e0346100e857601f61072b38819003918201601f19168301916001600160401b038311848410176100ec578084926080946040528339810103126100e8575f7fddf252ad1be2c89b69c2b068fc378daa952ba7f163c4a11628f55a4df523b3ef602061006b84610100565b93610077828201610100565b90606061008660408301610100565b910151956080528160a05260c05260018060a01b031693848452838252806040852055604051908152a3604051610616908161011582396080518181816101d8015261043d015260a05181610284015260c05181818161016201526104910152f35b5f80fd5b634e487b7160e01b5f52604160045260245ffd5b51906001600160a01b03821682036100e85756fe60806040526004361015610011575f80fd5b5f3560e01c8063095ea7b31461033457806323b872dd146103055780632e0f2625146102ea57806370a08231146102b3578063869b11ad1461026f578063a3f4df7e14610207578063a55a1503146101c3578063a9059cbb14610191578063dc24707f1461014d578063dd62ed3e146100fd5763f76f8d7814610092575f80fd5b346100f9575f3660031901126100f957604051604081019080821067ffffffffffffffff8311176100e5576100e1916040526004815263119494d560e21b6020820152604051918291826103d9565b0390f35b634e487b7160e01b5f52604160045260245ffd5b5f80fd5b346100f95760403660031901126100f9576101166103ad565b61011e6103c3565b6001600160a01b039182165f908152600160209081526040808320949093168252928352819020549051908152f35b346100f9575f3660031901126100f9576040517f00000000000000000000000000000000000000000000000000000000000000006001600160a01b03168152602090f35b346100f95760403660031901126100f95760206101b96101af6103ad565b6024359033610565565b6040519015158152f35b346100f9575f3660031901126100f9576040517f00000000000000000000000000000000000000000000000000000000000000006001600160a01b03168152602090f35b346100f9575f3660031901126100f957604051604081019080821067ffffffffffffffff8311176100e5576100e191604052601881527f46616c73652052657475726e205374616b6520546f6b656e00000000000000006020820152604051918291826103d9565b346100f9575f3660031901126100f9576040517f00000000000000000000000000000000000000000000000000000000000000006001600160a01b03168152602090f35b346100f95760203660031901126100f9576001600160a01b036102d46103ad565b165f525f602052602060405f2054604051908152f35b346100f9575f3660031901126100f957602060405160128152f35b346100f95760603660031901126100f95760206101b96103236103ad565b61032b6103c3565b60443591610403565b346100f95760403660031901126100f95761034d6103ad565b335f8181526001602090815260408083206001600160a01b03909516808452948252918290206024359081905591519182527f8c5be1e5ebec7d5bd14f71427d1e84f3dd0314c0f7b2291e5b200ac8c7c3b92591a3602060405160018152f35b600435906001600160a01b03821682036100f957565b602435906001600160a01b03821682036100f957565b602060409281835280519182918282860152018484015e5f828201840152601f01601f1916010190565b6001600160a01b0381165f8181526001602090815260408083203384529091529020549193929183811061052a57600181016104b9575b507f00000000000000000000000000000000000000000000000000000000000000006001600160a01b03161480610483575b61047c5761047992610565565b90565b5050505f90565b506001600160a01b038181167f00000000000000000000000000000000000000000000000000000000000000009091161461046c565b83810390811161051657815f52600160205260405f2060018060a01b0333165f526020528060405f2055604051908152817f8c5be1e5ebec7d5bd14f71427d1e84f3dd0314c0f7b2291e5b200ac8c7c3b92560203393a35f61043a565b634e487b7160e01b5f52601160045260245ffd5b60405162461bcd60e51b8152602060048201526013602482015272185b1b1bddd85b98d9481d1bdbc81cdb585b1b606a1b6044820152606490fd5b60018060a01b031690815f525f60205260405f20548381106105d8577fddf252ad1be2c89b69c2b068fc378daa952ba7f163c4a11628f55a4df523b3ef9184602092855f525f84520360405f205560018060a01b031693845f525f825260405f20818154019055604051908152a3600190565b505050505f9056fea2646970667358221220b1c34a387ce2a069aa6e1205194e8ce1f6cba8913c28096b338d8fed2b91c99f64736f6c634300081e0033","linkReferences":{}},"methodIdentifiers":{"ATTACKER()":"a55a1503","DECIMALS()":"2e0f2625","HONEST_DEPOSITOR()":"869b11ad","NAME()":"a3f4df7e","STAKING_TARGET()":"dc24707f","SYMBOL()":"f76f8d78","allowance(address,address)":"dd62ed3e","approve(address,uint256)":"095ea7b3","balanceOf(address)":"70a08231","transfer(address,uint256)":"a9059cbb","transferFrom(address,address,uint256)":"23b872dd"},"id":0}