{"abi":[{"type":"constructor","inputs":[{"name":"owner_","type":"address","internalType":"address"}],"stateMutability":"nonpayable"},{"type":"function","name":"approveAndDeposit","inputs":[{"name":"staking","type":"address","internalType":"address"},{"name":"token","type":"address","internalType":"address"},{"name":"amount","type":"uint256","internalType":"uint256"}],"outputs":[],"stateMutability":"nonpayable"},{"type":"function","name":"owner","inputs":[],"outputs":[{"name":"","type":"address","internalType":"address"}],"stateMutability":"view"}],"bytecode":{"object":"0x60a034606b57601f6103af38819003918201601f19168301916001600160401b03831184841017606f57808492602094604052833981010312606b57516001600160a01b0381168103606b5760805260405161032b908161008482396080518181816049015260c00152f35b5f80fd5b634e487b7160e01b5f52604160045260245ffdfe6080806040526004361015610012575f80fd5b5f905f3560e01c9081637500856b1461007b5750638da5cb5b14610034575f80fd5b346100785780600319360112610078576040517f00000000000000000000000000000000000000000000000000000000000000006001600160a01b03168152602090f35b80fd5b9050346101b45760603660031901126101b4576004356001600160a01b03811691908290036101b4576024356001600160a01b03811691908290036101b457604435907f00000000000000000000000000000000000000000000000000000000000000006001600160a01b03163303610278575060405163095ea7b360e01b81528360048201525f60248201526020816044815f875af19081156101a9575f91610259575b501561021d5760405163095ea7b360e01b81528360048201528160248201526020816044815f875af19081156101a9575f916101ee575b50156101b857823b156101b45760645f92836040519586948593633d14d1b760e21b8552600485015260248401528160448401525af180156101a95761019b575080f35b6101a791505f906102a7565b005b6040513d5f823e3d90fd5b5f80fd5b60405162461bcd60e51b815260206004820152600e60248201526d185c1c1c9bdd994819985a5b195960921b6044820152606490fd5b610210915060203d602011610216575b61020881836102a7565b8101906102dd565b5f610157565b503d6101fe565b60405162461bcd60e51b8152602060048201526014602482015273185c1c1c9bdd99481c995cd95d0819985a5b195960621b6044820152606490fd5b610272915060203d6020116102165761020881836102a7565b5f610120565b62461bcd60e51b815260206004820152600a60248201526937b7363c9037bbb732b960b11b6044820152606490fd5b90601f8019910116810190811067ffffffffffffffff8211176102c957604052565b634e487b7160e01b5f52604160045260245ffd5b908160209103126101b4575180151581036101b4579056fea2646970667358221220d45dc6a164ebbf399fd5b9db549d92d4efcb0535ea0bfe98b4e10148c4e6d79c64736f6c634300081e0033","linkReferences":{}},"methodIdentifiers":{"approveAndDeposit(address,address,uint256)":"7500856b","owner()":"8da5cb5b"},"id":0}