{"abi":[{"type":"function","name":"fundApproveAndDeposit","inputs":[{"name":"token","type":"address","internalType":"address"},{"name":"staking","type":"address","internalType":"address"},{"name":"amount","type":"uint256","internalType":"uint256"}],"outputs":[],"stateMutability":"nonpayable"}],"bytecode":{"object":"0x608080604052346015576102f5908161001a8239f35b5f80fdfe6080806040526004361015610012575f80fd5b5f905f3560e01c6348f41da814610027575f80fd5b3461026d57606036600319011261026d576004356001600160a01b0381169081900361026d576024356001600160a01b038116919082810361026d5760443593823b1561026d576340c10f1960e01b8152306004820152602481018590525f8160448183875af180156102625761024d575b5060405163095ea7b360e01b815283600482015285602482015260208160448189875af1908115610242578691610223575b50156101e75760405163095ea7b360e01b81526001600160a01b039190911660048201526024810184905260208160448188865af19081156101dc5785916101ad575b5015610177578392823b156101725760648492836040519586948593633d14d1b760e21b8552600485015260248401528160448401525af18015610167576101535750f35b8161015d91610271565b6101645780f35b80fd5b6040513d84823e3d90fd5b505050fd5b60405162461bcd60e51b815260206004820152600e60248201526d185c1c1c9bdd994819985a5b195960921b6044820152606490fd5b6101cf915060203d6020116101d5575b6101c78183610271565b8101906102a7565b5f61010e565b503d6101bd565b6040513d87823e3d90fd5b60405162461bcd60e51b8152602060048201526014602482015273185c1c1c9bdd99481c995cd95d0819985a5b195960621b6044820152606490fd5b61023c915060203d6020116101d5576101c78183610271565b5f6100cb565b6040513d88823e3d90fd5b61025a9195505f90610271565b5f935f610099565b6040513d5f823e3d90fd5b5f80fd5b90601f8019910116810190811067ffffffffffffffff82111761029357604052565b634e487b7160e01b5f52604160045260245ffd5b9081602091031261026d5751801515810361026d579056fea264697066735822122098204f7f4eff90c91820d4143656c7f8d4828481c3f59852c6da1bdf515050e764736f6c634300081e0033","linkReferences":{}},"methodIdentifiers":{"fundApproveAndDeposit(address,address,uint256)":"48f41da8"},"id":0}