{"abi":[{"type":"function","name":"getNftOwner","inputs":[{"name":"","type":"uint256","internalType":"uint256"}],"outputs":[{"name":"","type":"address","internalType":"address"}],"stateMutability":"view"},{"type":"function","name":"pieceCount","inputs":[],"outputs":[{"name":"","type":"uint256","internalType":"uint256"}],"stateMutability":"view"},{"type":"function","name":"randomTrade","inputs":[{"name":"","type":"uint256","internalType":"uint256"}],"outputs":[{"name":"nftIds","type":"uint256[]","internalType":"uint256[]"}],"stateMutability":"pure"},{"type":"function","name":"specificTrade","inputs":[{"name":"","type":"uint256[]","internalType":"uint256[]"}],"outputs":[],"stateMutability":"pure"}],"bytecode":{"object":"0x6080604052348015600e575f5ffd5b506105958061001c5f395ff3fe608060405234801561000f575f5ffd5b506004361061004a575f3560e01c80634a5c4dfe1461004e5780638ad2d5a71461006c578063e6c6a2ad1461009c578063f109fa3b146100b8575b5f5ffd5b6100566100e8565b60405161006391906101a2565b60405180910390f35b610086600480360381019061008191906101f6565b6100f4565b6040516100939190610260565b60405180910390f35b6100b660048036038101906100b191906103c9565b6100fd565b005b6100d260048036038101906100cd91906101f6565b610138565b6040516100df91906104c7565b60405180910390f35b670de0b6b3a764000081565b5f309050919050565b6040517f08c379a000000000000000000000000000000000000000000000000000000000815260040161012f90610541565b60405180910390fd5b60605f67ffffffffffffffff8111156101545761015361028d565b5b6040519080825280602002602001820160405280156101825781602001602082028036833780820191505090505b509050919050565b5f819050919050565b61019c8161018a565b82525050565b5f6020820190506101b55f830184610193565b92915050565b5f604051905090565b5f5ffd5b5f5ffd5b6101d58161018a565b81146101df575f5ffd5b50565b5f813590506101f0816101cc565b92915050565b5f6020828403121561020b5761020a6101c4565b5b5f610218848285016101e2565b91505092915050565b5f73ffffffffffffffffffffffffffffffffffffffff82169050919050565b5f61024a82610221565b9050919050565b61025a81610240565b82525050565b5f6020820190506102735f830184610251565b92915050565b5f5ffd5b5f601f19601f8301169050919050565b7f4e487b71000000000000000000000000000000000000000000000000000000005f52604160045260245ffd5b6102c38261027d565b810181811067ffffffffffffffff821117156102e2576102e161028d565b5b80604052505050565b5f6102f46101bb565b905061030082826102ba565b919050565b5f67ffffffffffffffff82111561031f5761031e61028d565b5b602082029050602081019050919050565b5f5ffd5b5f61034661034184610305565b6102eb565b9050808382526020820190506020840283018581111561036957610368610330565b5b835b81811015610392578061037e88826101e2565b84526020840193505060208101905061036b565b5050509392505050565b5f82601f8301126103b0576103af610279565b5b81356103c0848260208601610334565b91505092915050565b5f602082840312156103de576103dd6101c4565b5b5f82013567ffffffffffffffff8111156103fb576103fa6101c8565b5b6104078482850161039c565b91505092915050565b5f81519050919050565b5f82825260208201905092915050565b5f819050602082019050919050565b6104428161018a565b82525050565b5f6104538383610439565b60208301905092915050565b5f602082019050919050565b5f61047582610410565b61047f818561041a565b935061048a8361042a565b805f5b838110156104ba5781516104a18882610448565b97506104ac8361045f565b92505060018101905061048d565b5085935050505092915050565b5f6020820190508181035f8301526104df818461046b565b905092915050565b5f82825260208201905092915050565b7f44554d4d595f53504543494649435f54524144450000000000000000000000005f82015250565b5f61052b6014836104e7565b9150610536826104f7565b602082019050919050565b5f6020820190508181035f8301526105588161051f565b905091905056fea264697066735822122086df6731d2dd056053233c0b172034545854bf855f265b1de7f8bfced9482a7564736f6c634300081e0033","linkReferences":{}},"methodIdentifiers":{"getNftOwner(uint256)":"8ad2d5a7","pieceCount()":"4a5c4dfe","randomTrade(uint256)":"f109fa3b","specificTrade(uint256[])":"e6c6a2ad"},"id":0}