{"abi":[{"type":"constructor","inputs":[],"stateMutability":"nonpayable"},{"type":"function","name":"APE","inputs":[],"outputs":[{"name":"","type":"address","internalType":"address"}],"stateMutability":"view"},{"type":"function","name":"BASE_PERCENTS","inputs":[],"outputs":[{"name":"","type":"uint256","internalType":"uint256"}],"stateMutability":"view"},{"type":"function","name":"BAYC","inputs":[],"outputs":[{"name":"","type":"address","internalType":"address"}],"stateMutability":"view"},{"type":"function","name":"BUYER","inputs":[],"outputs":[{"name":"","type":"address","internalType":"contract OwnershipChangeHelper"}],"stateMutability":"view"},{"type":"function","name":"MAYC","inputs":[],"outputs":[{"name":"","type":"address","internalType":"address"}],"stateMutability":"view"},{"type":"function","name":"TARGET","inputs":[],"outputs":[{"name":"","type":"address","internalType":"address"}],"stateMutability":"view"},{"type":"function","name":"attemptedAsset","inputs":[],"outputs":[{"name":"","type":"address","internalType":"address"}],"stateMutability":"view"},{"type":"function","name":"attemptedTokenId","inputs":[],"outputs":[{"name":"","type":"uint256","internalType":"uint256"}],"stateMutability":"view"},{"type":"function","name":"executeOnOpportunity","inputs":[],"outputs":[],"stateMutability":"nonpayable"},{"type":"function","name":"lastFailure","inputs":[],"outputs":[{"name":"","type":"bytes32","internalType":"bytes32"}],"stateMutability":"view"},{"type":"function","name":"lastStage","inputs":[],"outputs":[{"name":"","type":"uint8","internalType":"enum FlawVerifier.Stage"}],"stateMutability":"view"},{"type":"function","name":"onERC721Received","inputs":[{"name":"","type":"address","internalType":"address"},{"name":"","type":"address","internalType":"address"},{"name":"","type":"uint256","internalType":"uint256"},{"name":"","type":"bytes","internalType":"bytes"}],"outputs":[{"name":"","type":"bytes4","internalType":"bytes4"}],"stateMutability":"pure"},{"type":"function","name":"profitAmount","inputs":[],"outputs":[{"name":"","type":"uint256","internalType":"uint256"}],"stateMutability":"view"},{"type":"function","name":"profitToken","inputs":[],"outputs":[{"name":"","type":"address","internalType":"address"}],"stateMutability":"view"}],"bytecode":{"object":"0x60a060405234801561000f575f5ffd5b5060405161001c906100c1565b604051809103905ff080158015610035573d5f5f3e3d5ffd5b5073ffffffffffffffffffffffffffffffffffffffff1660808173ffffffffffffffffffffffffffffffffffffffff1681525050734d224452801aced8b2f0aebe155379bb5d5943815f5f6101000a81548173ffffffffffffffffffffffffffffffffffffffff021916908373ffffffffffffffffffffffffffffffffffffffff1602179055506100ce565b610812806132b983390190565b6080516131be6100fb5f395f81816106a601528181611b3201528181611bbc0152611c7b01526131be5ff3fe608060405234801561000f575f5ffd5b50600436106100e8575f3560e01c806396b7f3031161008a578063ab736f1c11610064578063ab736f1c14610216578063c183721b14610234578063c3a5a15414610252578063cc1f2afa14610270576100e8565b806396b7f303146101bc5780639ab77908146101da578063a8fa2987146101f8576100e8565b80633c2448ed116100c65780633c2448ed1461015857806349343624146101625780635ff972cc146101805780639582b6e51461019e576100e8565b8063150b7a02146100ec5780631b5d145d1461011c5780631bd3fc861461013a575b5f5ffd5b61010660048036038101906101019190612381565b61028e565b604051610113919061243f565b60405180910390f35b6101246102a2565b6040516101319190612467565b60405180910390f35b6101426102ba565b60405161014f91906124f3565b60405180910390f35b6101606102cc565b005b61016a610630565b6040516101779190612467565b60405180910390f35b610188610657565b604051610195919061251b565b60405180910390f35b6101a6610660565b6040516101b39190612467565b60405180910390f35b6101c4610678565b6040516101d19190612467565b60405180910390f35b6101e261069e565b6040516101ef919061251b565b60405180910390f35b6102006106a4565b60405161020d919061258f565b60405180910390f35b61021e6106c8565b60405161022b9190612467565b60405180910390f35b61023c6106e0565b604051610249919061251b565b60405180910390f35b61025a6106ec565b60405161026791906125c0565b60405180910390f35b6102786106f2565b6040516102859190612467565b60405180910390f35b5f63150b7a0260e01b905095945050505050565b734d224452801aced8b2f0aebe155379bb5d59438181565b60025f9054906101000a900460ff1681565b734d224452801aced8b2f0aebe155379bb5d5943815f5f6101000a81548173ffffffffffffffffffffffffffffffffffffffff021916908373ffffffffffffffffffffffffffffffffffffffff1602179055505f600181905550600160025f6101000a81548160ff0219169083600681111561034b5761034a612480565b5b02179055505f600260016101000a81548173ffffffffffffffffffffffffffffffffffffffff021916908373ffffffffffffffffffffffffffffffffffffffff1602179055505f6003819055505f5f1b6004819055505f7385018cf6f53c8bbd03c3137e71f4fca226cda92c73ffffffffffffffffffffffffffffffffffffffff163b036103ff577fc26b4ec9262a637f989f34bbf5c3f4ff37af870d62dc7e97e605ff7beb5d886760048190555061062e565b61040761070a565b610437577f5e8f6d8b0f8a9b219e4e6bf1b8759d473fcddd13cfc4b3497a9a170dadb8db3160048190555061062e565b5f61045d7385018cf6f53c8bbd03c3137e71f4fca226cda92c63ac7ad9ba60e01b610914565b90505f73ffffffffffffffffffffffffffffffffffffffff168173ffffffffffffffffffffffffffffffffffffffff16146104d257805f5f6101000a81548173ffffffffffffffffffffffffffffffffffffffff021916908373ffffffffffffffffffffffffffffffffffffffff1602179055505b5f6104fd5f5f9054906101000a900473ffffffffffffffffffffffffffffffffffffffff1630610a3b565b90505f6105537385018cf6f53c8bbd03c3137e71f4fca226cda92c5f5f9054906101000a900473ffffffffffffffffffffffffffffffffffffffff167360e4d786628fea6478f785a6d7e704777c86a7c6610b74565b9050806105b0576105ad7385018cf6f53c8bbd03c3137e71f4fca226cda92c5f5f9054906101000a900473ffffffffffffffffffffffffffffffffffffffff1673bc4ca0eda7647a8ab7c2061c2e118a18a936f13d610b74565b90505b80156105e157600660025f6101000a81548160ff021916908360068111156105db576105da612480565b5b02179055505b5f61060c5f5f9054906101000a900473ffffffffffffffffffffffffffffffffffffffff1630610a3b565b9050828111156106295782816106229190612606565b6001819055505b505050505b565b5f5f5f9054906101000a900473ffffffffffffffffffffffffffffffffffffffff16905090565b5f600154905090565b73bc4ca0eda7647a8ab7c2061c2e118a18a936f13d81565b600260019054906101000a900473ffffffffffffffffffffffffffffffffffffffff1681565b60035481565b7f000000000000000000000000000000000000000000000000000000000000000081565b7360e4d786628fea6478f785a6d7e704777c86a7c681565b670de0b6b3a764000081565b60045481565b7385018cf6f53c8bbd03c3137e71f4fca226cda92c81565b5f5f6107317385018cf6f53c8bbd03c3137e71f4fca226cda92c63ac7ad9ba60e01b610914565b90505f6107597385018cf6f53c8bbd03c3137e71f4fca226cda92c633956cfe460e01b610914565b90505f6107817385018cf6f53c8bbd03c3137e71f4fca226cda92c63e6b2356760e01b610914565b90505f6107a97385018cf6f53c8bbd03c3137e71f4fca226cda92c631ac4815d60e01b610914565b90505f73ffffffffffffffffffffffffffffffffffffffff168473ffffffffffffffffffffffffffffffffffffffff161415801561081357505f73ffffffffffffffffffffffffffffffffffffffff168373ffffffffffffffffffffffffffffffffffffffff1614155b801561084b57505f73ffffffffffffffffffffffffffffffffffffffff168273ffffffffffffffffffffffffffffffffffffffff1614155b801561088357505f73ffffffffffffffffffffffffffffffffffffffff168173ffffffffffffffffffffffffffffffffffffffff1614155b80156108a557505f8473ffffffffffffffffffffffffffffffffffffffff163b115b80156108c757505f8373ffffffffffffffffffffffffffffffffffffffff163b115b80156108e957505f8273ffffffffffffffffffffffffffffffffffffffff163b115b801561090b57505f8173ffffffffffffffffffffffffffffffffffffffff163b115b94505050505090565b5f5f8373ffffffffffffffffffffffffffffffffffffffff163b0361093b575f9050610a35565b5f5f8473ffffffffffffffffffffffffffffffffffffffff1684604051602401604051602081830303815290604052907bffffffffffffffffffffffffffffffffffffffffffffffffffffffff19166020820180517bffffffffffffffffffffffffffffffffffffffffffffffffffffffff83818316178352505050506040516109c5919061268b565b5f60405180830381855afa9150503d805f81146109fd576040519150601f19603f3d011682016040523d82523d5f602084013e610a02565b606091505b5091509150818015610a1657506020815110155b15610a325780806020019051810190610a2f91906126dc565b92505b50505b92915050565b5f5f8373ffffffffffffffffffffffffffffffffffffffff163b03610a62575f9050610b6e565b5f5f8473ffffffffffffffffffffffffffffffffffffffff166370a0823160e01b85604051602401610a949190612467565b604051602081830303815290604052907bffffffffffffffffffffffffffffffffffffffffffffffffffffffff19166020820180517bffffffffffffffffffffffffffffffffffffffffffffffffffffffff8381831617835250505050604051610afe919061268b565b5f60405180830381855afa9150503d805f8114610b36576040519150601f19603f3d011682016040523d82523d5f602084013e610b3b565b606091505b5091509150818015610b4f57506020815110155b15610b6b5780806020019051810190610b68919061271b565b92505b50505b92915050565b5f610b7e826116ae565b610bb1577f2b2e2acba1185b7b1bb70c6b1b1b88655e1dce7dbb3fb3ed8e2c796d628c5fa16004819055505f90506116a7565b5f610bbc83306116d0565b90505f8103610c63577360e4d786628fea6478f785a6d7e704777c86a7c673ffffffffffffffffffffffffffffffffffffffff168373ffffffffffffffffffffffffffffffffffffffff1614610c32577f3bfc35d16468ebdc4b9707682c0b03eadf2e12bdbe503dc3c78c7167fb884329610c54565b7f8ccbb3e512ae50e81c048619f44e01fcc861a79f25c79fe8d035e04c2f4655eb5b6004819055505f9150506116a7565b5f610c6e8530610a3b565b90505f8103610ca8577f4c033b7934120b53cfa63b48163d7537d2786aea932f4f89cf707686f2bb8f906004819055505f925050506116a7565b5f8473ffffffffffffffffffffffffffffffffffffffff16632f745c59305f6040518363ffffffff1660e01b8152600401610ce492919061277f565b602060405180830381865afa925050508015610d1e57506040513d601f19601f82011682018060405250810190610d1b919061271b565b60015b610d54577f1529682d6dc47bf0eb29e0e9a73d71e4adc1bd38d11f3783229bf5d11ea36fca6004819055505f93505050506116a7565b8091505063ffffffff8016811115610d98577fe5c822a3b45c3776942baebe888594ce82618c2bd928d9b96c268ad3d4c6513d6004819055505f93505050506116a7565b7bffffffffffffffffffffffffffffffffffffffffffffffffffffffff8016821115610df0577fbcc2344b0b978330464321192bb2a97f6f88f387551dac40e4e019b97aa3e7a26004819055505f93505050506116a7565b84600260016101000a81548173ffffffffffffffffffffffffffffffffffffffff021916908373ffffffffffffffffffffffffffffffffffffffff160217905550806003819055506002805f6101000a81548160ff02191690836006811115610e5c57610e5b612480565b5b0217905550610e8c86887fffffffffffffffffffffffffffffffffffffffffffffffffffffffffffffffff611809565b8473ffffffffffffffffffffffffffffffffffffffff1663a22cb4658860016040518363ffffffff1660e01b8152600401610ec89291906127c0565b5f604051808303815f87803b158015610edf575f5ffd5b505af1158015610ef1573d5f5f3e3d5ffd5b505050508673ffffffffffffffffffffffffffffffffffffffff1663d6a584fb670de0b6b3a76400006040518263ffffffff1660e01b8152600401610f36919061251b565b5f604051808303815f87803b158015610f4d575f5ffd5b505af1925050508015610f5e575060015b50610f676121b6565b600167ffffffffffffffff811115610f8257610f816127e7565b5b604051908082528060200260200182016040528015610fb05781602001602082028036833780820191505090505b50815f018190525081815f01515f81518110610fcf57610fce612814565b5b6020026020010181815250505f67ffffffffffffffff811115610ff557610ff46127e7565b5b6040519080825280602002602001820160405280156110235781602001602082028036833780820191505090505b5081602001819052505f60405180606001604052808873ffffffffffffffffffffffffffffffffffffffff1681526020018581526020015f81525090505f600167ffffffffffffffff81111561107c5761107b6127e7565b5b6040519080825280602002602001820160405280156110b557816020015b6110a26121d0565b81526020019060019003908161109a5790505b50905060405180604001604052806110cc86611a14565b63ffffffff1681526020016110e087611a66565b7bffffffffffffffffffffffffffffffffffffffffffffffffffffffff16815250815f8151811061111457611113612814565b5b60200260200101819052505f5f67ffffffffffffffff81111561113a576111396127e7565b5b60405190808252806020026020018201604052801561117357816020015b61116061220c565b8152602001906001900390816111585790505b5090508a73ffffffffffffffffffffffffffffffffffffffff1663057c8f38858585856040518563ffffffff1660e01b81526004016111b59493929190612bca565b5f604051808303815f87803b1580156111cc575f5ffd5b505af19250505080156111dd575060015b611217577f89872a57163b46d8984e1a1c31bdbe25a5d3af94d47bc05dd74d9ee14669d62c6004819055505f9750505050505050506116a7565b600360025f6101000a81548160ff0219169083600681111561123c5761123b612480565b5b021790555061124c8b8a87611ad0565b61125f575f9750505050505050506116a7565b600460025f6101000a81548160ff0219169083600681111561128457611283612480565b5b02179055505f600167ffffffffffffffff8111156112a5576112a46127e7565b5b6040519080825280602002602001820160405280156112d35781602001602082028036833780820191505090505b50905085815f815181106112ea576112e9612814565b5b6020026020010181815250505f5f67ffffffffffffffff811115611311576113106127e7565b5b60405190808252806020026020018201604052801561134a57816020015b61133761224f565b81526020019060019003908161132f5790505b5090508c73ffffffffffffffffffffffffffffffffffffffff16638ad115eb8c84846040518463ffffffff1660e01b815260040161138a93929190612d8d565b5f604051808303815f87803b1580156113a1575f5ffd5b505af19250505080156113b2575060015b50600560025f6101000a81548160ff021916908360068111156113d8576113d7612480565b5b02179055505f73bc4ca0eda7647a8ab7c2061c2e118a18a936f13d73ffffffffffffffffffffffffffffffffffffffff168c73ffffffffffffffffffffffffffffffffffffffff161461142b575f61142e565b60015b60ff1667ffffffffffffffff81111561144a576114496127e7565b5b6040519080825280602002602001820160405280156114785781602001602082028036833780820191505090505b5090505f7360e4d786628fea6478f785a6d7e704777c86a7c673ffffffffffffffffffffffffffffffffffffffff168d73ffffffffffffffffffffffffffffffffffffffff16146114c9575f6114cc565b60015b60ff1667ffffffffffffffff8111156114e8576114e76127e7565b5b6040519080825280602002602001820160405280156115165781602001602082028036833780820191505090505b5090505f5f67ffffffffffffffff811115611534576115336127e7565b5b6040519080825280602002602001820160405280156115625781602001602082028036833780820191505090505b50905073bc4ca0eda7647a8ab7c2061c2e118a18a936f13d73ffffffffffffffffffffffffffffffffffffffff168e73ffffffffffffffffffffffffffffffffffffffff16036115d15789835f815181106115c0576115bf612814565b5b6020026020010181815250506115f2565b89825f815181106115e5576115e4612814565b5b6020026020010181815250505b8f73ffffffffffffffffffffffffffffffffffffffff16635468c7308484846040518463ffffffff1660e01b815260040161162f93929190612dd0565b5f604051808303815f87803b158015611646575f5ffd5b505af1925050508015611657575060015b611696577f173ebd23c1afe89ff2fdfe77028389c524cfdf6cc911cb4569ff4f0121d7cd146004819055505f9c505050505050505050505050506116a7565b60019c505050505050505050505050505b9392505050565b5f5f8273ffffffffffffffffffffffffffffffffffffffff163b119050919050565b5f5f8373ffffffffffffffffffffffffffffffffffffffff163b036116f7575f9050611803565b5f5f8473ffffffffffffffffffffffffffffffffffffffff166370a0823160e01b856040516024016117299190612467565b604051602081830303815290604052907bffffffffffffffffffffffffffffffffffffffffffffffffffffffff19166020820180517bffffffffffffffffffffffffffffffffffffffffffffffffffffffff8381831617835250505050604051611793919061268b565b5f60405180830381855afa9150503d805f81146117cb576040519150601f19603f3d011682016040523d82523d5f602084013e6117d0565b606091505b50915091508180156117e457506020815110155b1561180057808060200190518101906117fd919061271b565b92505b50505b92915050565b61188a8363095ea7b360e01b8484604051602401611828929190612e1a565b604051602081830303815290604052907bffffffffffffffffffffffffffffffffffffffffffffffffffffffff19166020820180517bffffffffffffffffffffffffffffffffffffffffffffffffffffffff8381831617835250505050611d3f565b611a0f5761190f8363095ea7b360e01b845f6040516024016118ad929190612e7d565b604051602081830303815290604052907bffffffffffffffffffffffffffffffffffffffffffffffffffffffff19166020820180517bffffffffffffffffffffffffffffffffffffffffffffffffffffffff8381831617835250505050611d3f565b61194e576040517f08c379a000000000000000000000000000000000000000000000000000000000815260040161194590612efe565b60405180910390fd5b6119cf8363095ea7b360e01b848460405160240161196d929190612e1a565b604051602081830303815290604052907bffffffffffffffffffffffffffffffffffffffffffffffffffffffff19166020820180517bffffffffffffffffffffffffffffffffffffffffffffffffffffffff8381831617835250505050611d3f565b611a0e576040517f08c379a0000000000000000000000000000000000000000000000000000000008152600401611a0590612f66565b60405180910390fd5b5b505050565b5f63ffffffff8016821115611a5e576040517f08c379a0000000000000000000000000000000000000000000000000000000008152600401611a5590612fce565b60405180910390fd5b819050919050565b5f7bffffffffffffffffffffffffffffffffffffffffffffffffffffffff8016821115611ac8576040517f08c379a0000000000000000000000000000000000000000000000000000000008152600401611abf90613036565b60405180910390fd5b819050919050565b5f5f5f611add8686611e24565b91509150611aea826116ae565b1580611af557505f81145b15611b2b577fe01c7c93be3cb4ede7cb9cb612488b0e4c4d772af4132a37cac163569feecef76004819055505f92505050611d38565b80611b56837f0000000000000000000000000000000000000000000000000000000000000000610a3b565b1015611c795780611b678330610a3b565b1015611b9e577f7e2825edfb46c662d6fa398dd9fe20e916ea8220a40ab6cbb58da9e25e349a156004819055505f92505050611d38565b8173ffffffffffffffffffffffffffffffffffffffff1663a9059cbb7f0000000000000000000000000000000000000000000000000000000000000000836040518363ffffffff1660e01b8152600401611bf9929190612e1a565b6020604051808303815f875af1158015611c15573d5f5f3e3d5ffd5b505050506040513d601f19601f82011682018060405250810190611c39919061307e565b611c78576040517f08c379a0000000000000000000000000000000000000000000000000000000008152600401611c6f906130f3565b60405180910390fd5b5b7f000000000000000000000000000000000000000000000000000000000000000073ffffffffffffffffffffffffffffffffffffffff16637a57951d83866040518363ffffffff1660e01b8152600401611cd4929190612e1a565b5f604051808303815f87803b158015611ceb575f5ffd5b505af1925050508015611cfc575060015b611d31577f2bc541d0946950a278ae44e0ec32abdd7d20c06c4a2bdeca87f46772f37e79fd6004819055505f92505050611d38565b6001925050505b9392505050565b5f5f8373ffffffffffffffffffffffffffffffffffffffff163b03611d66575f9050611e1e565b5f5f8473ffffffffffffffffffffffffffffffffffffffff1684604051611d8d919061268b565b5f604051808303815f865af19150503d805f8114611dc6576040519150601f19603f3d011682016040523d82523d5f602084013e611dcb565b606091505b509150915081611ddf575f92505050611e1e565b5f815103611df257600192505050611e1e565b6020815110611e185780806020019051810190611e0f919061307e565b92505050611e1e565b5f925050505b92915050565b5f5f73bc4ca0eda7647a8ab7c2061c2e118a18a936f13d73ffffffffffffffffffffffffffffffffffffffff168373ffffffffffffffffffffffffffffffffffffffff1603611e8557611e7e8463e6b2356760e01b610914565b9150611ee1565b7360e4d786628fea6478f785a6d7e704777c86a7c673ffffffffffffffffffffffffffffffffffffffff168373ffffffffffffffffffffffffffffffffffffffff1603611ee057611edd84631ac4815d60e01b610914565b91505b5b611eea826116ae565b15611f0257611ef882612089565b90505f8111612082575b5f611f1485633956cfe460e01b610914565b9050611f1f816116ae565b611f2f575f5f9250925050612082565b5f5f8273ffffffffffffffffffffffffffffffffffffffff1663c435138660e01b87604051602401611f619190612467565b604051602081830303815290604052907bffffffffffffffffffffffffffffffffffffffffffffffffffffffff19166020820180517bffffffffffffffffffffffffffffffffffffffffffffffffffffffff8381831617835250505050604051611fcb919061268b565b5f60405180830381855afa9150503d805f8114612003576040519150601f19603f3d011682016040523d82523d5f602084013e612008565b606091505b509150915081158061201b575060a08151105b1561202e575f5f94509450505050612082565b5f818060200190518101906120439190613111565b909192935090508093508197508298505050508015806120695750612067866116ae565b155b1561207d575f5f9550955050505050612082565b505050505b9250929050565b5f5f8273ffffffffffffffffffffffffffffffffffffffff163b036120b0575f90506121b1565b5f5f8373ffffffffffffffffffffffffffffffffffffffff16634a5c4dfe60e01b604051602401604051602081830303815290604052907bffffffffffffffffffffffffffffffffffffffffffffffffffffffff19166020820180517bffffffffffffffffffffffffffffffffffffffffffffffffffffffff8381831617835250505050604051612141919061268b565b5f60405180830381855afa9150503d805f8114612179576040519150601f19603f3d011682016040523d82523d5f602084013e61217e565b606091505b509150915081801561219257506020815110155b156121ae57808060200190518101906121ab919061271b565b92505b50505b919050565b604051806040016040528060608152602001606081525090565b60405180604001604052805f63ffffffff1681526020015f7bffffffffffffffffffffffffffffffffffffffffffffffffffffffff1681525090565b60405180606001604052805f63ffffffff1681526020015f63ffffffff1681526020015f76ffffffffffffffffffffffffffffffffffffffffffffff1681525090565b60405180604001604052805f6fffffffffffffffffffffffffffffffff1681526020015f6fffffffffffffffffffffffffffffffff1681525090565b5f5ffd5b5f5ffd5b5f73ffffffffffffffffffffffffffffffffffffffff82169050919050565b5f6122bc82612293565b9050919050565b6122cc816122b2565b81146122d6575f5ffd5b50565b5f813590506122e7816122c3565b92915050565b5f819050919050565b6122ff816122ed565b8114612309575f5ffd5b50565b5f8135905061231a816122f6565b92915050565b5f5ffd5b5f5ffd5b5f5ffd5b5f5f83601f84011261234157612340612320565b5b8235905067ffffffffffffffff81111561235e5761235d612324565b5b60208301915083600182028301111561237a57612379612328565b5b9250929050565b5f5f5f5f5f6080868803121561239a5761239961228b565b5b5f6123a7888289016122d9565b95505060206123b8888289016122d9565b94505060406123c98882890161230c565b935050606086013567ffffffffffffffff8111156123ea576123e961228f565b5b6123f68882890161232c565b92509250509295509295909350565b5f7fffffffff0000000000000000000000000000000000000000000000000000000082169050919050565b61243981612405565b82525050565b5f6020820190506124525f830184612430565b92915050565b612461816122b2565b82525050565b5f60208201905061247a5f830184612458565b92915050565b7f4e487b71000000000000000000000000000000000000000000000000000000005f52602160045260245ffd5b600781106124be576124bd612480565b5b50565b5f8190506124ce826124ad565b919050565b5f6124dd826124c1565b9050919050565b6124ed816124d3565b82525050565b5f6020820190506125065f8301846124e4565b92915050565b612515816122ed565b82525050565b5f60208201905061252e5f83018461250c565b92915050565b5f819050919050565b5f61255761255261254d84612293565b612534565b612293565b9050919050565b5f6125688261253d565b9050919050565b5f6125798261255e565b9050919050565b6125898161256f565b82525050565b5f6020820190506125a25f830184612580565b92915050565b5f819050919050565b6125ba816125a8565b82525050565b5f6020820190506125d35f8301846125b1565b92915050565b7f4e487b71000000000000000000000000000000000000000000000000000000005f52601160045260245ffd5b5f612610826122ed565b915061261b836122ed565b9250828203905081811115612633576126326125d9565b5b92915050565b5f81519050919050565b5f81905092915050565b8281835e5f83830152505050565b5f61266582612639565b61266f8185612643565b935061267f81856020860161264d565b80840191505092915050565b5f612696828461265b565b915081905092915050565b5f6126ab82612293565b9050919050565b6126bb816126a1565b81146126c5575f5ffd5b50565b5f815190506126d6816126b2565b92915050565b5f602082840312156126f1576126f061228b565b5b5f6126fe848285016126c8565b91505092915050565b5f81519050612715816122f6565b92915050565b5f602082840312156127305761272f61228b565b5b5f61273d84828501612707565b91505092915050565b5f819050919050565b5f61276961276461275f84612746565b612534565b6122ed565b9050919050565b6127798161274f565b82525050565b5f6040820190506127925f830185612458565b61279f6020830184612770565b9392505050565b5f8115159050919050565b6127ba816127a6565b82525050565b5f6040820190506127d35f830185612458565b6127e060208301846127b1565b9392505050565b7f4e487b71000000000000000000000000000000000000000000000000000000005f52604160045260245ffd5b7f4e487b71000000000000000000000000000000000000000000000000000000005f52603260045260245ffd5b5f81519050919050565b5f82825260208201905092915050565b5f819050602082019050919050565b612873816122ed565b82525050565b5f612884838361286a565b60208301905092915050565b5f602082019050919050565b5f6128a682612841565b6128b0818561284b565b93506128bb8361285b565b805f5b838110156128eb5781516128d28882612879565b97506128dd83612890565b9250506001810190506128be565b5085935050505092915050565b5f604083015f8301518482035f860152612912828261289c565b9150506020830151848203602086015261292c828261289c565b9150508091505092915050565b612942816122b2565b82525050565b606082015f82015161295c5f850182612939565b50602082015161296f602085018261286a565b506040820151612982604085018261286a565b50505050565b5f81519050919050565b5f82825260208201905092915050565b5f819050602082019050919050565b5f63ffffffff82169050919050565b6129c9816129b1565b82525050565b5f7bffffffffffffffffffffffffffffffffffffffffffffffffffffffff82169050919050565b6129ff816129cf565b82525050565b604082015f820151612a195f8501826129c0565b506020820151612a2c60208501826129f6565b50505050565b5f612a3d8383612a05565b60408301905092915050565b5f602082019050919050565b5f612a5f82612988565b612a698185612992565b9350612a74836129a2565b805f5b83811015612aa4578151612a8b8882612a32565b9750612a9683612a49565b925050600181019050612a77565b5085935050505092915050565b5f81519050919050565b5f82825260208201905092915050565b5f819050602082019050919050565b5f76ffffffffffffffffffffffffffffffffffffffffffffff82169050919050565b612b0581612ada565b82525050565b606082015f820151612b1f5f8501826129c0565b506020820151612b3260208501826129c0565b506040820151612b456040850182612afc565b50505050565b5f612b568383612b0b565b60608301905092915050565b5f602082019050919050565b5f612b7882612ab1565b612b828185612abb565b9350612b8d83612acb565b805f5b83811015612bbd578151612ba48882612b4b565b9750612baf83612b62565b925050600181019050612b90565b5085935050505092915050565b5f60c0820190508181035f830152612be281876128f8565b9050612bf16020830186612948565b8181036080830152612c038185612a55565b905081810360a0830152612c178184612b6e565b905095945050505050565b5f82825260208201905092915050565b5f612c3c82612841565b612c468185612c22565b9350612c518361285b565b805f5b83811015612c81578151612c688882612879565b9750612c7383612890565b925050600181019050612c54565b5085935050505092915050565b5f81519050919050565b5f82825260208201905092915050565b5f819050602082019050919050565b5f6fffffffffffffffffffffffffffffffff82169050919050565b612cdb81612cb7565b82525050565b604082015f820151612cf55f850182612cd2565b506020820151612d086020850182612cd2565b50505050565b5f612d198383612ce1565b60408301905092915050565b5f602082019050919050565b5f612d3b82612c8e565b612d458185612c98565b9350612d5083612ca8565b805f5b83811015612d80578151612d678882612d0e565b9750612d7283612d25565b925050600181019050612d53565b5085935050505092915050565b5f606082019050612da05f830186612458565b8181036020830152612db28185612c32565b90508181036040830152612dc68184612d31565b9050949350505050565b5f6060820190508181035f830152612de88186612c32565b90508181036020830152612dfc8185612c32565b90508181036040830152612e108184612c32565b9050949350505050565b5f604082019050612e2d5f830185612458565b612e3a602083018461250c565b9392505050565b5f60ff82169050919050565b5f612e67612e62612e5d84612746565b612534565b612e41565b9050919050565b612e7781612e4d565b82525050565b5f604082019050612e905f830185612458565b612e9d6020830184612e6e565b9392505050565b5f82825260208201905092915050565b7f415050524f56455f52455345545f4641494c45440000000000000000000000005f82015250565b5f612ee8601483612ea4565b9150612ef382612eb4565b602082019050919050565b5f6020820190508181035f830152612f1581612edc565b9050919050565b7f415050524f56455f4641494c45440000000000000000000000000000000000005f82015250565b5f612f50600e83612ea4565b9150612f5b82612f1c565b602082019050919050565b5f6020820190508181035f830152612f7d81612f44565b9050919050565b7f55494e5433325f4f564552464c4f5700000000000000000000000000000000005f82015250565b5f612fb8600f83612ea4565b9150612fc382612f84565b602082019050919050565b5f6020820190508181035f830152612fe581612fac565b9050919050565b7f55494e543232345f4f564552464c4f57000000000000000000000000000000005f82015250565b5f613020601083612ea4565b915061302b82612fec565b602082019050919050565b5f6020820190508181035f83015261304d81613014565b9050919050565b61305d816127a6565b8114613067575f5ffd5b50565b5f8151905061307881613054565b92915050565b5f602082840312156130935761309261228b565b5b5f6130a08482850161306a565b91505092915050565b7f50544f4b454e5f5452414e534645525f4641494c4544000000000000000000005f82015250565b5f6130dd601683612ea4565b91506130e8826130a9565b602082019050919050565b5f6020820190508181035f83015261310a816130d1565b9050919050565b5f5f5f5f5f60a0868803121561312a5761312961228b565b5b5f613137888289016126c8565b9550506020613148888289016126c8565b945050604061315988828901612707565b935050606061316a88828901612707565b925050608061317b8882890161306a565b915050929550929590935056fea2646970667358221220985544f6ff8708b853de57e04c900b8929b6bfaf6a22f08d96ac555b67c6f07264736f6c634300081e00336080604052348015600e575f5ffd5b506107f68061001c5f395ff3fe608060405234801561000f575f5ffd5b506004361061003f575f3560e01c8063150b7a02146100435780637a57951d14610073578063b8dc491b1461008f575b5f5ffd5b61005d600480360381019061005891906103c7565b6100ab565b60405161006a9190610485565b60405180910390f35b61008d6004803603810190610088919061049e565b6100bf565b005b6100a960048036038101906100a491906104dc565b610197565b005b5f63150b7a0260e01b905095945050505050565b5f600167ffffffffffffffff8111156100db576100da61051a565b5b6040519080825280602002602001820160405280156101095781602001602082028036833780820191505090505b50905081815f815181106101205761011f610547565b5b6020026020010181815250508273ffffffffffffffffffffffffffffffffffffffff1663e6c6a2ad826040518263ffffffff1660e01b8152600401610165919061062b565b5f604051808303815f87803b15801561017c575f5ffd5b505af115801561018e573d5f5f3e3d5ffd5b50505050505050565b5f8290508073ffffffffffffffffffffffffffffffffffffffff1663a9059cbb838373ffffffffffffffffffffffffffffffffffffffff166370a08231306040518263ffffffff1660e01b81526004016101f1919061065a565b602060405180830381865afa15801561020c573d5f5f3e3d5ffd5b505050506040513d601f19601f820116820180604052508101906102309190610687565b6040518363ffffffff1660e01b815260040161024d9291906106c1565b6020604051808303815f875af1158015610269573d5f5f3e3d5ffd5b505050506040513d601f19601f8201168201806040525081019061028d919061071d565b6102cc576040517f08c379a00000000000000000000000000000000000000000000000000000000081526004016102c3906107a2565b60405180910390fd5b505050565b5f5ffd5b5f5ffd5b5f73ffffffffffffffffffffffffffffffffffffffff82169050919050565b5f610302826102d9565b9050919050565b610312816102f8565b811461031c575f5ffd5b50565b5f8135905061032d81610309565b92915050565b5f819050919050565b61034581610333565b811461034f575f5ffd5b50565b5f813590506103608161033c565b92915050565b5f5ffd5b5f5ffd5b5f5ffd5b5f5f83601f84011261038757610386610366565b5b8235905067ffffffffffffffff8111156103a4576103a361036a565b5b6020830191508360018202830111156103c0576103bf61036e565b5b9250929050565b5f5f5f5f5f608086880312156103e0576103df6102d1565b5b5f6103ed8882890161031f565b95505060206103fe8882890161031f565b945050604061040f88828901610352565b935050606086013567ffffffffffffffff8111156104305761042f6102d5565b5b61043c88828901610372565b92509250509295509295909350565b5f7fffffffff0000000000000000000000000000000000000000000000000000000082169050919050565b61047f8161044b565b82525050565b5f6020820190506104985f830184610476565b92915050565b5f5f604083850312156104b4576104b36102d1565b5b5f6104c18582860161031f565b92505060206104d285828601610352565b9150509250929050565b5f5f604083850312156104f2576104f16102d1565b5b5f6104ff8582860161031f565b92505060206105108582860161031f565b9150509250929050565b7f4e487b71000000000000000000000000000000000000000000000000000000005f52604160045260245ffd5b7f4e487b71000000000000000000000000000000000000000000000000000000005f52603260045260245ffd5b5f81519050919050565b5f82825260208201905092915050565b5f819050602082019050919050565b6105a681610333565b82525050565b5f6105b7838361059d565b60208301905092915050565b5f602082019050919050565b5f6105d982610574565b6105e3818561057e565b93506105ee8361058e565b805f5b8381101561061e57815161060588826105ac565b9750610610836105c3565b9250506001810190506105f1565b5085935050505092915050565b5f6020820190508181035f83015261064381846105cf565b905092915050565b610654816102f8565b82525050565b5f60208201905061066d5f83018461064b565b92915050565b5f815190506106818161033c565b92915050565b5f6020828403121561069c5761069b6102d1565b5b5f6106a984828501610673565b91505092915050565b6106bb81610333565b82525050565b5f6040820190506106d45f83018561064b565b6106e160208301846106b2565b9392505050565b5f8115159050919050565b6106fc816106e8565b8114610706575f5ffd5b50565b5f81519050610717816106f3565b92915050565b5f60208284031215610732576107316102d1565b5b5f61073f84828501610709565b91505092915050565b5f82825260208201905092915050565b7f53574545505f5452414e534645525f4641494c454400000000000000000000005f82015250565b5f61078c601583610748565b915061079782610758565b602082019050919050565b5f6020820190508181035f8301526107b981610780565b905091905056fea26469706673582212204bb32d392ee3217bebeb8497cc2c97a4b7de14c2ab61e241db59bf1456a7821964736f6c634300081e0033","linkReferences":{}},"methodIdentifiers":{"APE()":"1b5d145d","BASE_PERCENTS()":"c183721b","BAYC()":"9582b6e5","BUYER()":"a8fa2987","MAYC()":"ab736f1c","TARGET()":"cc1f2afa","attemptedAsset()":"96b7f303","attemptedTokenId()":"9ab77908","executeOnOpportunity()":"3c2448ed","lastFailure()":"c3a5a154","lastStage()":"1bd3fc86","onERC721Received(address,address,uint256,bytes)":"150b7a02","profitAmount()":"5ff972cc","profitToken()":"49343624"},"id":0}