{"abi":[{"type":"constructor","inputs":[{"name":"apeCoinStaking_","type":"address","internalType":"address"}],"stateMutability":"nonpayable"},{"type":"function","name":"apeCoinStaking","inputs":[],"outputs":[{"name":"","type":"address","internalType":"address"}],"stateMutability":"view"},{"type":"function","name":"borrowBalanceCurrent","inputs":[{"name":"","type":"address","internalType":"address"}],"outputs":[{"name":"","type":"uint256","internalType":"uint256"}],"stateMutability":"pure"},{"type":"function","name":"borrowBehalf","inputs":[{"name":"","type":"address","internalType":"address"},{"name":"","type":"uint256","internalType":"uint256"}],"outputs":[{"name":"","type":"uint256","internalType":"uint256"}],"stateMutability":"pure"},{"type":"function","name":"borrowRatePerBlock","inputs":[],"outputs":[{"name":"","type":"uint256","internalType":"uint256"}],"stateMutability":"pure"},{"type":"function","name":"mintBehalf","inputs":[{"name":"","type":"address","internalType":"address"},{"name":"","type":"uint256","internalType":"uint256"}],"outputs":[{"name":"","type":"uint256","internalType":"uint256"}],"stateMutability":"pure"},{"type":"function","name":"repayBorrowBehalf","inputs":[{"name":"","type":"address","internalType":"address"},{"name":"","type":"uint256","internalType":"uint256"}],"outputs":[{"name":"","type":"uint256","internalType":"uint256"}],"stateMutability":"pure"}],"bytecode":{"object":"0x60a060405234801561000f575f5ffd5b5060405161043e38038061043e833981810160405281019061003191906100c9565b8073ffffffffffffffffffffffffffffffffffffffff1660808173ffffffffffffffffffffffffffffffffffffffff1681525050506100f4565b5f5ffd5b5f73ffffffffffffffffffffffffffffffffffffffff82169050919050565b5f6100988261006f565b9050919050565b6100a88161008e565b81146100b2575f5ffd5b50565b5f815190506100c38161009f565b92915050565b5f602082840312156100de576100dd61006b565b5b5f6100eb848285016100b5565b91505092915050565b60805161033261010c5f395f61018901526103325ff3fe608060405234801561000f575f5ffd5b5060043610610060575f3560e01c806317bfdfbc1461006457806323323e03146100945780632608f818146100c4578063856e5bb3146100f4578063c9112a7714610124578063f8f9da2814610142575b5f5ffd5b61007e60048036038101906100799190610210565b610160565b60405161008b9190610253565b60405180910390f35b6100ae60048036038101906100a99190610296565b610169565b6040516100bb9190610253565b60405180910390f35b6100de60048036038101906100d99190610296565b610173565b6040516100eb9190610253565b60405180910390f35b61010e60048036038101906101099190610296565b61017d565b60405161011b9190610253565b60405180910390f35b61012c610187565b60405161013991906102e3565b60405180910390f35b61014a6101ab565b6040516101579190610253565b60405180910390f35b5f5f9050919050565b5f5f905092915050565b5f5f905092915050565b5f5f905092915050565b7f000000000000000000000000000000000000000000000000000000000000000081565b5f5f905090565b5f5ffd5b5f73ffffffffffffffffffffffffffffffffffffffff82169050919050565b5f6101df826101b6565b9050919050565b6101ef816101d5565b81146101f9575f5ffd5b50565b5f8135905061020a816101e6565b92915050565b5f60208284031215610225576102246101b2565b5b5f610232848285016101fc565b91505092915050565b5f819050919050565b61024d8161023b565b82525050565b5f6020820190506102665f830184610244565b92915050565b6102758161023b565b811461027f575f5ffd5b50565b5f813590506102908161026c565b92915050565b5f5f604083850312156102ac576102ab6101b2565b5b5f6102b9858286016101fc565b92505060206102ca85828601610282565b9150509250929050565b6102dd816101d5565b82525050565b5f6020820190506102f65f8301846102d4565b9291505056fea2646970667358221220da36dd43183040e4847a8853c5ca373805770660b526d885d08a76e2d0f1e35a64736f6c634300081e0033","linkReferences":{}},"methodIdentifiers":{"apeCoinStaking()":"c9112a77","borrowBalanceCurrent(address)":"17bfdfbc","borrowBehalf(address,uint256)":"856e5bb3","borrowRatePerBlock()":"f8f9da28","mintBehalf(address,uint256)":"23323e03","repayBorrowBehalf(address,uint256)":"2608f818"},"id":0}