{"abi":[{"type":"constructor","inputs":[{"name":"pToken_","type":"address","internalType":"address"}],"stateMutability":"nonpayable"},{"type":"function","name":"balanceOf","inputs":[{"name":"","type":"address","internalType":"address"}],"outputs":[{"name":"","type":"uint256","internalType":"uint256"}],"stateMutability":"view"},{"type":"function","name":"exchangeRateCurrent","inputs":[],"outputs":[{"name":"","type":"uint256","internalType":"uint256"}],"stateMutability":"pure"},{"type":"function","name":"mint","inputs":[{"name":"amount","type":"uint256","internalType":"uint256"}],"outputs":[{"name":"","type":"uint256","internalType":"uint256"}],"stateMutability":"nonpayable"},{"type":"function","name":"pToken","inputs":[],"outputs":[{"name":"","type":"address","internalType":"address"}],"stateMutability":"view"},{"type":"function","name":"redeem","inputs":[{"name":"amount","type":"uint256","internalType":"uint256"}],"outputs":[{"name":"","type":"uint256","internalType":"uint256"}],"stateMutability":"nonpayable"}],"bytecode":{"object":"0x60a060405234801561000f575f5ffd5b50604051610974380380610974833981810160405281019061003191906100c9565b8073ffffffffffffffffffffffffffffffffffffffff1660808173ffffffffffffffffffffffffffffffffffffffff1681525050506100f4565b5f5ffd5b5f73ffffffffffffffffffffffffffffffffffffffff82169050919050565b5f6100988261006f565b9050919050565b6100a88161008e565b81146100b2575f5ffd5b50565b5f815190506100c38161009f565b92915050565b5f602082840312156100de576100dd61006b565b5b5f6100eb848285016100b5565b91505092915050565b60805161085a61011a5f395f8181610127015281816101600152610375015261085a5ff3fe608060405234801561000f575f5ffd5b5060043610610055575f3560e01c806358a06f071461005957806370a0823114610077578063a0712d68146100a7578063bd6d894d146100d7578063db006a75146100f5575b5f5ffd5b610061610125565b60405161006e9190610495565b60405180910390f35b610091600480360381019061008c91906104dc565b610149565b60405161009e919061051f565b60405180910390f35b6100c160048036038101906100bc9190610562565b61015d565b6040516100ce919061051f565b60405180910390f35b6100df610294565b6040516100ec919061051f565b60405180910390f35b61010f600480360381019061010a9190610562565b6102a3565b60405161011c919061051f565b60405180910390f35b7f000000000000000000000000000000000000000000000000000000000000000081565b5f602052805f5260405f205f915090505481565b5f7f000000000000000000000000000000000000000000000000000000000000000073ffffffffffffffffffffffffffffffffffffffff166323b872dd3330856040518463ffffffff1660e01b81526004016101bb9392919061058d565b6020604051808303815f875af11580156101d7573d5f5f3e3d5ffd5b505050506040513d601f19601f820116820180604052508101906101fb91906105f7565b61023a576040517f08c379a00000000000000000000000000000000000000000000000000000000081526004016102319061067c565b60405180910390fd5b815f5f3373ffffffffffffffffffffffffffffffffffffffff1673ffffffffffffffffffffffffffffffffffffffff1681526020019081526020015f205f82825461028591906106c7565b925050819055505f9050919050565b5f670de0b6b3a7640000905090565b5f5f5f5f3373ffffffffffffffffffffffffffffffffffffffff1673ffffffffffffffffffffffffffffffffffffffff1681526020019081526020015f2054905082811015610327576040517f08c379a000000000000000000000000000000000000000000000000000000000815260040161031e90610744565b60405180910390fd5b82816103339190610762565b5f5f3373ffffffffffffffffffffffffffffffffffffffff1673ffffffffffffffffffffffffffffffffffffffff1681526020019081526020015f20819055507f000000000000000000000000000000000000000000000000000000000000000073ffffffffffffffffffffffffffffffffffffffff1663a9059cbb33856040518363ffffffff1660e01b81526004016103ce929190610795565b6020604051808303815f875af11580156103ea573d5f5f3e3d5ffd5b505050506040513d601f19601f8201168201806040525081019061040e91906105f7565b61044d576040517f08c379a000000000000000000000000000000000000000000000000000000000815260040161044490610806565b60405180910390fd5b5f915050919050565b5f73ffffffffffffffffffffffffffffffffffffffff82169050919050565b5f61047f82610456565b9050919050565b61048f81610475565b82525050565b5f6020820190506104a85f830184610486565b92915050565b5f5ffd5b6104bb81610475565b81146104c5575f5ffd5b50565b5f813590506104d6816104b2565b92915050565b5f602082840312156104f1576104f06104ae565b5b5f6104fe848285016104c8565b91505092915050565b5f819050919050565b61051981610507565b82525050565b5f6020820190506105325f830184610510565b92915050565b61054181610507565b811461054b575f5ffd5b50565b5f8135905061055c81610538565b92915050565b5f60208284031215610577576105766104ae565b5b5f6105848482850161054e565b91505092915050565b5f6060820190506105a05f830186610486565b6105ad6020830185610486565b6105ba6040830184610510565b949350505050565b5f8115159050919050565b6105d6816105c2565b81146105e0575f5ffd5b50565b5f815190506105f1816105cd565b92915050565b5f6020828403121561060c5761060b6104ae565b5b5f610619848285016105e3565b91505092915050565b5f82825260208201905092915050565b7f49544f4b454e5f4d494e545f50554c4c5f4641494c45440000000000000000005f82015250565b5f610666601783610622565b915061067182610632565b602082019050919050565b5f6020820190508181035f8301526106938161065a565b9050919050565b7f4e487b71000000000000000000000000000000000000000000000000000000005f52601160045260245ffd5b5f6106d182610507565b91506106dc83610507565b92508282019050808211156106f4576106f361069a565b5b92915050565b7f49544f4b454e5f52454445454d5f42414c414e434500000000000000000000005f82015250565b5f61072e601583610622565b9150610739826106fa565b602082019050919050565b5f6020820190508181035f83015261075b81610722565b9050919050565b5f61076c82610507565b915061077783610507565b925082820390508181111561078f5761078e61069a565b5b92915050565b5f6040820190506107a85f830185610486565b6107b56020830184610510565b9392505050565b7f49544f4b454e5f52454445454d5f5452414e534645525f4641494c45440000005f82015250565b5f6107f0601d83610622565b91506107fb826107bc565b602082019050919050565b5f6020820190508181035f83015261081d816107e4565b905091905056fea2646970667358221220f000745d89c7389713f5d10c3ded25c78287403921dff464e0a04b6f454124ac64736f6c634300081e0033","linkReferences":{}},"methodIdentifiers":{"balanceOf(address)":"70a08231","exchangeRateCurrent()":"bd6d894d","mint(uint256)":"a0712d68","pToken()":"58a06f07","redeem(uint256)":"db006a75"},"id":0}