{"abi":[{"type":"function","name":"marketInfo","inputs":[{"name":"nftAsset","type":"address","internalType":"address"}],"outputs":[{"name":"","type":"address","internalType":"address"},{"name":"","type":"address","internalType":"address"},{"name":"","type":"uint256","internalType":"uint256"},{"name":"","type":"uint256","internalType":"uint256"},{"name":"","type":"bool","internalType":"bool"}],"stateMutability":"view"},{"type":"function","name":"markets","inputs":[{"name":"","type":"address","internalType":"address"}],"outputs":[{"name":"iToken","type":"address","internalType":"address"},{"name":"pToken","type":"address","internalType":"address"},{"name":"pieceCount","type":"uint256","internalType":"uint256"},{"name":"available","type":"bool","internalType":"bool"}],"stateMutability":"view"},{"type":"function","name":"mintNft","inputs":[{"name":"","type":"address","internalType":"address"},{"name":"","type":"uint256[]","internalType":"uint256[]"}],"outputs":[],"stateMutability":"pure"},{"type":"function","name":"nftOwner","inputs":[{"name":"userAddr","type":"address","internalType":"address"},{"name":"","type":"address","internalType":"address"},{"name":"","type":"uint256","internalType":"uint256"}],"outputs":[{"name":"","type":"address","internalType":"address"}],"stateMutability":"pure"},{"type":"function","name":"redeemNft","inputs":[{"name":"","type":"address","internalType":"address"},{"name":"","type":"uint256[]","internalType":"uint256[]"}],"outputs":[],"stateMutability":"pure"},{"type":"function","name":"setMarket","inputs":[{"name":"nftAsset","type":"address","internalType":"address"},{"name":"iToken","type":"address","internalType":"address"},{"name":"pToken","type":"address","internalType":"address"},{"name":"pieceCount_","type":"uint256","internalType":"uint256"},{"name":"available","type":"bool","internalType":"bool"}],"outputs":[],"stateMutability":"nonpayable"}],"bytecode":{"object":"0x6080604052348015600e575f5ffd5b5061093b8061001c5f395ff3fe608060405234801561000f575f5ffd5b5060043610610060575f3560e01c806380547c22146100645780638e8f294b14610080578063c4351386146100b3578063d140a033146100e7578063e95b4cc214610103578063fafbb8601461011f575b5f5ffd5b61007e60048036038101906100799190610594565b61014f565b005b61009a600480360381019061009591906105f1565b61018a565b6040516100aa949392919061065d565b60405180910390f35b6100cd60048036038101906100c891906105f1565b6101ff565b6040516100de9594939291906106a0565b60405180910390f35b61010160048036038101906100fc9190610594565b610343565b005b61011d60048036038101906101189190610745565b61037e565b005b610139600480360381019061013491906107bc565b6104c6565b604051610146919061080c565b60405180910390f35b6040517f08c379a00000000000000000000000000000000000000000000000000000000081526004016101819061087f565b60405180910390fd5b5f602052805f5260405f205f91509050805f015f9054906101000a900473ffffffffffffffffffffffffffffffffffffffff1690806001015f9054906101000a900473ffffffffffffffffffffffffffffffffffffffff1690806002015490806003015f9054906101000a900460ff16905084565b5f5f5f5f5f5f5f5f8873ffffffffffffffffffffffffffffffffffffffff1673ffffffffffffffffffffffffffffffffffffffff1681526020019081526020015f206040518060800160405290815f82015f9054906101000a900473ffffffffffffffffffffffffffffffffffffffff1673ffffffffffffffffffffffffffffffffffffffff1673ffffffffffffffffffffffffffffffffffffffff168152602001600182015f9054906101000a900473ffffffffffffffffffffffffffffffffffffffff1673ffffffffffffffffffffffffffffffffffffffff1673ffffffffffffffffffffffffffffffffffffffff16815260200160028201548152602001600382015f9054906101000a900460ff1615151515815250509050805f0151816020015182604001515f8460600151955095509550955095505091939590929450565b6040517f08c379a0000000000000000000000000000000000000000000000000000000008152600401610375906108e7565b60405180910390fd5b60405180608001604052808573ffffffffffffffffffffffffffffffffffffffff1681526020018473ffffffffffffffffffffffffffffffffffffffff1681526020018381526020018215158152505f5f8773ffffffffffffffffffffffffffffffffffffffff1673ffffffffffffffffffffffffffffffffffffffff1681526020019081526020015f205f820151815f015f6101000a81548173ffffffffffffffffffffffffffffffffffffffff021916908373ffffffffffffffffffffffffffffffffffffffff1602179055506020820151816001015f6101000a81548173ffffffffffffffffffffffffffffffffffffffff021916908373ffffffffffffffffffffffffffffffffffffffff160217905550604082015181600201556060820151816003015f6101000a81548160ff0219169083151502179055509050505050505050565b5f8390509392505050565b5f5ffd5b5f5ffd5b5f73ffffffffffffffffffffffffffffffffffffffff82169050919050565b5f610502826104d9565b9050919050565b610512816104f8565b811461051c575f5ffd5b50565b5f8135905061052d81610509565b92915050565b5f5ffd5b5f5ffd5b5f5ffd5b5f5f83601f84011261055457610553610533565b5b8235905067ffffffffffffffff81111561057157610570610537565b5b60208301915083602082028301111561058d5761058c61053b565b5b9250929050565b5f5f5f604084860312156105ab576105aa6104d1565b5b5f6105b88682870161051f565b935050602084013567ffffffffffffffff8111156105d9576105d86104d5565b5b6105e58682870161053f565b92509250509250925092565b5f60208284031215610606576106056104d1565b5b5f6106138482850161051f565b91505092915050565b610625816104f8565b82525050565b5f819050919050565b61063d8161062b565b82525050565b5f8115159050919050565b61065781610643565b82525050565b5f6080820190506106705f83018761061c565b61067d602083018661061c565b61068a6040830185610634565b610697606083018461064e565b95945050505050565b5f60a0820190506106b35f83018861061c565b6106c0602083018761061c565b6106cd6040830186610634565b6106da6060830185610634565b6106e7608083018461064e565b9695505050505050565b6106fa8161062b565b8114610704575f5ffd5b50565b5f81359050610715816106f1565b92915050565b61072481610643565b811461072e575f5ffd5b50565b5f8135905061073f8161071b565b92915050565b5f5f5f5f5f60a0868803121561075e5761075d6104d1565b5b5f61076b8882890161051f565b955050602061077c8882890161051f565b945050604061078d8882890161051f565b935050606061079e88828901610707565b92505060806107af88828901610731565b9150509295509295909350565b5f5f5f606084860312156107d3576107d26104d1565b5b5f6107e08682870161051f565b93505060206107f18682870161051f565b925050604061080286828701610707565b9150509250925092565b5f60208201905061081f5f83018461061c565b92915050565b5f82825260208201905092915050565b7f474154455741595f52454445454d5f554e535550504f525445440000000000005f82015250565b5f610869601a83610825565b915061087482610835565b602082019050919050565b5f6020820190508181035f8301526108968161085d565b9050919050565b7f474154455741595f4d494e545f554e535550504f5254454400000000000000005f82015250565b5f6108d1601883610825565b91506108dc8261089d565b602082019050919050565b5f6020820190508181035f8301526108fe816108c5565b905091905056fea264697066735822122040e1c90f5b4617c1019a3d86e715c72961c44f3aab2141e9563ecde61a6bfd6864736f6c634300081e0033","linkReferences":{}},"methodIdentifiers":{"marketInfo(address)":"c4351386","markets(address)":"8e8f294b","mintNft(address,uint256[])":"d140a033","nftOwner(address,address,uint256)":"fafbb860","redeemNft(address,uint256[])":"80547c22","setMarket(address,address,address,uint256,bool)":"e95b4cc2"},"id":0}