{"abi":[{"type":"function","name":"onERC721Received","inputs":[{"name":"","type":"address","internalType":"address"},{"name":"","type":"address","internalType":"address"},{"name":"","type":"uint256","internalType":"uint256"},{"name":"","type":"bytes","internalType":"bytes"}],"outputs":[{"name":"","type":"bytes4","internalType":"bytes4"}],"stateMutability":"pure"},{"type":"function","name":"specificTrade","inputs":[{"name":"pToken","type":"address","internalType":"address"},{"name":"nftId","type":"uint256","internalType":"uint256"}],"outputs":[],"stateMutability":"nonpayable"},{"type":"function","name":"sweep","inputs":[{"name":"token","type":"address","internalType":"address"},{"name":"to","type":"address","internalType":"address"}],"outputs":[],"stateMutability":"nonpayable"}],"bytecode":{"object":"0x6080604052348015600e575f5ffd5b506107f68061001c5f395ff3fe608060405234801561000f575f5ffd5b506004361061003f575f3560e01c8063150b7a02146100435780637a57951d14610073578063b8dc491b1461008f575b5f5ffd5b61005d600480360381019061005891906103c7565b6100ab565b60405161006a9190610485565b60405180910390f35b61008d6004803603810190610088919061049e565b6100bf565b005b6100a960048036038101906100a491906104dc565b610197565b005b5f63150b7a0260e01b905095945050505050565b5f600167ffffffffffffffff8111156100db576100da61051a565b5b6040519080825280602002602001820160405280156101095781602001602082028036833780820191505090505b50905081815f815181106101205761011f610547565b5b6020026020010181815250508273ffffffffffffffffffffffffffffffffffffffff1663e6c6a2ad826040518263ffffffff1660e01b8152600401610165919061062b565b5f604051808303815f87803b15801561017c575f5ffd5b505af115801561018e573d5f5f3e3d5ffd5b50505050505050565b5f8290508073ffffffffffffffffffffffffffffffffffffffff1663a9059cbb838373ffffffffffffffffffffffffffffffffffffffff166370a08231306040518263ffffffff1660e01b81526004016101f1919061065a565b602060405180830381865afa15801561020c573d5f5f3e3d5ffd5b505050506040513d601f19601f820116820180604052508101906102309190610687565b6040518363ffffffff1660e01b815260040161024d9291906106c1565b6020604051808303815f875af1158015610269573d5f5f3e3d5ffd5b505050506040513d601f19601f8201168201806040525081019061028d919061071d565b6102cc576040517f08c379a00000000000000000000000000000000000000000000000000000000081526004016102c3906107a2565b60405180910390fd5b505050565b5f5ffd5b5f5ffd5b5f73ffffffffffffffffffffffffffffffffffffffff82169050919050565b5f610302826102d9565b9050919050565b610312816102f8565b811461031c575f5ffd5b50565b5f8135905061032d81610309565b92915050565b5f819050919050565b61034581610333565b811461034f575f5ffd5b50565b5f813590506103608161033c565b92915050565b5f5ffd5b5f5ffd5b5f5ffd5b5f5f83601f84011261038757610386610366565b5b8235905067ffffffffffffffff8111156103a4576103a361036a565b5b6020830191508360018202830111156103c0576103bf61036e565b5b9250929050565b5f5f5f5f5f608086880312156103e0576103df6102d1565b5b5f6103ed8882890161031f565b95505060206103fe8882890161031f565b945050604061040f88828901610352565b935050606086013567ffffffffffffffff8111156104305761042f6102d5565b5b61043c88828901610372565b92509250509295509295909350565b5f7fffffffff0000000000000000000000000000000000000000000000000000000082169050919050565b61047f8161044b565b82525050565b5f6020820190506104985f830184610476565b92915050565b5f5f604083850312156104b4576104b36102d1565b5b5f6104c18582860161031f565b92505060206104d285828601610352565b9150509250929050565b5f5f604083850312156104f2576104f16102d1565b5b5f6104ff8582860161031f565b92505060206105108582860161031f565b9150509250929050565b7f4e487b71000000000000000000000000000000000000000000000000000000005f52604160045260245ffd5b7f4e487b71000000000000000000000000000000000000000000000000000000005f52603260045260245ffd5b5f81519050919050565b5f82825260208201905092915050565b5f819050602082019050919050565b6105a681610333565b82525050565b5f6105b7838361059d565b60208301905092915050565b5f602082019050919050565b5f6105d982610574565b6105e3818561057e565b93506105ee8361058e565b805f5b8381101561061e57815161060588826105ac565b9750610610836105c3565b9250506001810190506105f1565b5085935050505092915050565b5f6020820190508181035f83015261064381846105cf565b905092915050565b610654816102f8565b82525050565b5f60208201905061066d5f83018461064b565b92915050565b5f815190506106818161033c565b92915050565b5f6020828403121561069c5761069b6102d1565b5b5f6106a984828501610673565b91505092915050565b6106bb81610333565b82525050565b5f6040820190506106d45f83018561064b565b6106e160208301846106b2565b9392505050565b5f8115159050919050565b6106fc816106e8565b8114610706575f5ffd5b50565b5f81519050610717816106f3565b92915050565b5f60208284031215610732576107316102d1565b5b5f61073f84828501610709565b91505092915050565b5f82825260208201905092915050565b7f53574545505f5452414e534645525f4641494c454400000000000000000000005f82015250565b5f61078c601583610748565b915061079782610758565b602082019050919050565b5f6020820190508181035f8301526107b981610780565b905091905056fea26469706673582212204bb32d392ee3217bebeb8497cc2c97a4b7de14c2ab61e241db59bf1456a7821964736f6c634300081e0033","linkReferences":{}},"methodIdentifiers":{"onERC721Received(address,address,uint256,bytes)":"150b7a02","specificTrade(address,uint256)":"7a57951d","sweep(address,address)":"b8dc491b"},"id":0}