{"abi":[{"type":"constructor","inputs":[],"stateMutability":"nonpayable"},{"type":"function","name":"TARGET","inputs":[],"outputs":[{"name":"","type":"address","internalType":"address"}],"stateMutability":"view"},{"type":"function","name":"executeOnOpportunity","inputs":[],"outputs":[],"stateMutability":"nonpayable"},{"type":"function","name":"executed","inputs":[],"outputs":[{"name":"","type":"bool","internalType":"bool"}],"stateMutability":"view"},{"type":"function","name":"failureFlags","inputs":[],"outputs":[{"name":"","type":"uint256","internalType":"uint256"}],"stateMutability":"view"},{"type":"function","name":"hypothesisValidated","inputs":[],"outputs":[{"name":"","type":"bool","internalType":"bool"}],"stateMutability":"view"},{"type":"function","name":"pathFlags","inputs":[],"outputs":[{"name":"","type":"uint256","internalType":"uint256"}],"stateMutability":"view"},{"type":"function","name":"profitAmount","inputs":[],"outputs":[{"name":"","type":"uint256","internalType":"uint256"}],"stateMutability":"view"},{"type":"function","name":"profitToken","inputs":[],"outputs":[{"name":"","type":"address","internalType":"address"}],"stateMutability":"view"}],"bytecode":{"object":"0x60808060405234601557611610908161001a8239f35b5f80fdfe6080806040526004361015610012575f80fd5b5f3560e01c90816311e7c2ad146101685750806331a38c89146101435780633c2448ed14610129578063463defd11461010757806349343624146100e05780635ff972cc146100c3578063b494b31b146100a65763cc1f2afa14610074575f80fd5b346100a2575f3660031901126100a25760206040517369422c7f237d70fcd55c218568a67d00dc4ea0688152f35b5f80fd5b346100a2575f3660031901126100a2576020600254604051908152f35b346100a2575f3660031901126100a2576020600154604051908152f35b346100a2575f3660031901126100a2575f546040516001600160a01b039091168152602090f35b346100a2575f3660031901126100a257602060ff600454166040519015158152f35b346100a2575f3660031901126100a2576101416101d7565b005b346100a2575f3660031901126100a257602060ff60045460081c166040519015158152f35b346100a2575f3660031901126100a2576020906003548152f35b90601f8019910116810190811067ffffffffffffffff8211176101a457604052565b634e487b7160e01b5f52604160045260245ffd5b908160209103126100a257516001600160a01b03811681036100a25790565b60045460ff8160081c16610619576101009061ff00191617600455604051634a1bb65d60e01b81526020816004817369422c7f237d70fcd55c218568a67d00dc4ea0685afa9081156104ba575f916105fa575b50604051638c205cc560e01b8152906020826004817369422c7f237d70fcd55c218568a67d00dc4ea0685afa9182156104ba575f926105c9575b506040516370a0823160e01b81523060048201526001600160a01b03828116919084169060208160248173c02aaa39b223fe8d0a0e5c4f27ead9083c756cc25afa9081156104ba575f91610597575b506040516370a0823160e01b815230600482015294602086602481875afa9586156104ba575f96610563575b506040516370a0823160e01b815230600482015294602086602481875afa9586156104ba575f9661052b575b50906103169161061c565b6040516370a0823160e01b815230600482015260208160248173c02aaa39b223fe8d0a0e5c4f27ead9083c756cc25afa9081156104ba575f916104f9575b506040516370a0823160e01b815230600482015290602082602481885afa9182156104ba575f926104c5575b506040516370a0823160e01b815230600482015292602084602481885afa9384156104ba575f94610486575b508082111561047d576103be916107f3565b955b80821115610474576103d1916107f3565b935b8082111561046b576103e4916107f3565b905b841561041b5750505f80546001600160a01b03191673c02aaa39b223fe8d0a0e5c4f27ead9083c756cc217905550506001555b565b929350909183156104435750506bffffffffffffffffffffffff60a01b5f5416175f55600155565b9150809250610450575050565b6bffffffffffffffffffffffff60a01b5f5416175f55600155565b50505f906103e6565b50505f936103d3565b50505f956103c0565b9093506020813d6020116104b2575b816104a260209383610182565b810103126100a25751925f6103ac565b3d9150610495565b6040513d5f823e3d90fd5b9091506020813d6020116104f1575b816104e160209383610182565b810103126100a25751905f610380565b3d91506104d4565b90506020813d602011610523575b8161051460209383610182565b810103126100a257515f610354565b3d9150610507565b919095506020823d60201161055b575b8161054860209383610182565b810103126100a25790519461031661030b565b3d915061053b565b9095506020813d60201161058f575b8161057f60209383610182565b810103126100a25751945f6102df565b3d9150610572565b90506020813d6020116105c1575b816105b260209383610182565b810103126100a257515f6102b3565b3d91506105a5565b6105ec91925060203d6020116105f3575b6105e48183610182565b8101906101b8565b905f610264565b503d6105da565b610613915060203d6020116105f3576105e48183610182565b5f61022a565b50565b6001600160a01b0381811692169061063381610814565b916040516370a0823160e01b81527369422c7f237d70fcd55c218568a67d00dc4ea0686004820152602081602481885afa9081156104ba575f916107c1575b506040516370a0823160e01b81527369422c7f237d70fcd55c218568a67d00dc4ea068600482015290602082602481865afa9081156104ba575f9161078b575b6106be92508486610942565b801561077b576106cf908286610a38565b80156107745783836106e19387610cc1565b1561076f576001600160a01b03821615610761576020602493604051948580926370a0823160e01b82523060048301525afa9182156104ba575f9261072b575b6104199350611137565b91506020833d602011610759575b8161074660209383610182565b810103126100a257610419925191610721565b3d9150610739565b505050600160035417600355565b505050565b5050505050565b5050505050600460035417600355565b90506020823d6020116107b9575b816107a660209383610182565b810103126100a2576106be9151906106b2565b3d9150610799565b90506020813d6020116107eb575b816107dc60209383610182565b810103126100a257515f610672565b3d91506107cf565b9190820391821161080057565b634e487b7160e01b5f52601160045260245ffd5b60405163e6a4390560e01b81526001600160a01b039091166004820181905273c02aaa39b223fe8d0a0e5c4f27ead9083c756cc260248301529060208160448173c0aee478e3658e2610c5f7a4a2e1777ce9e4f2ac5afa9081156104ba575f91610905575b506001600160a01b03811661090057506040519063e6a4390560e01b8252600482015273c02aaa39b223fe8d0a0e5c4f27ead9083c756cc26024820152602081604481735c69bee701ef814a2b6a3edd4b1652cb9cc5aa6f5afa9081156104ba575f916108e4575090565b6108fd915060203d6020116105f3576105e48183610182565b90565b905090565b61091e915060203d6020116105f3576105e48183610182565b5f610879565b811561092e570490565b634e487b7160e01b5f52601260045260245ffd5b91801580156109f1575b6109e9578060041c8460041c8082105f146109e15750935b84156109c4575b50506001600160a01b038216156109bf5761098591611445565b5060208111156109b35760051c808210156109ab5750905b81156109a557565b60019150565b90509061099d565b80821015610900575090565b505090565b91935090808210156109da57505b915f8061096b565b90506109d2565b905093610964565b505050505f90565b50831561094c565b3d15610a33573d9067ffffffffffffffff82116101a45760405191610a28601f8201601f191660200184610182565b82523d5f602084013e565b606090565b6040516370a0823160e01b8152306004820152916001600160a01b039190911690602083602481855afa9283156104ba575f93610c80575b506040516370a0823160e01b815230600482015291906001600160a01b0316602083602481845afa9283156104ba575f93610c49575b506040516356e4bb9760e11b602080830191825230602480850191909152604480850199909952978352915f918291610ae0606482610182565b5190827369422c7f237d70fcd55c218568a67d00dc4ea0685af192610b036109f9565b506040516370a0823160e01b815230600482015296879182905afa9485156104ba575f95610c12575b50906020602492604051938480926370a0823160e01b82523060048301525afa9182156104ba575f92610bde575b5015610bcd5781811180610bc4575b610ba157149182610b97575b5050610b89575b6004600354176003555f90565b600460025417600255610b7c565b1090505f80610b75565b9091506108fd9250600160025417600255600160ff1960045416176004556107f3565b50828414610b69565b505050506002600354176003555f90565b9091506020813d602011610c0a575b81610bfa60209383610182565b810103126100a25751905f610b5a565b3d9150610bed565b919094506020823d602011610c41575b81610c2f60209383610182565b810103126100a2579051936020610b2c565b3d9150610c22565b9492506020853d602011610c78575b81610c6560209383610182565b810103126100a257935191936020610aa6565b3d9150610c58565b9092506020813d602011610cac575b81610c9c60209383610182565b810103126100a25751915f610a70565b3d9150610c8f565b9190820180921161080057565b9493919290925f95831561112d576040516370a0823160e01b81527369422c7f237d70fcd55c218568a67d00dc4ea06860048201526001600160a01b039190911692602082602481875afa9182156104ba575f926110f9575b508482106110f0575b84156110e557610d499285929182916001600160a01b0382166110ae575b505050610924565b9283156110a5575b6010841161109c575b5f939192935b828110610d6e575050505050565b6040516370a0823160e01b81527369422c7f237d70fcd55c218568a67d00dc4ea0686004820152602081602481885afa80156104ba5786915f91611068575b5010611063576040516370a0823160e01b815230600482015292602084602481885afa9384156104ba575f94611030575b506040516370a0823160e01b81523060048201526001600160a01b0384169690956020876024818b5afa9687156104ba575f97610ffd575b505f8060405160208101906308742bcd60e21b825230602482015285604482015282606482015260648152610e4c608482610182565b5190827369422c7f237d70fcd55c218568a67d00dc4ea0685af194610e6f6109f9565b506040516370a0823160e01b815230600482015295602087602481865afa9687156104ba575f97610fc7575b50602060249a6040519b8c80926370a0823160e01b82523060048301525afa998a156104ba575f9a610f94575b5015610f6d5786861180610f64575b610f26575050505050149182610f1c575b5050610f0e575b8115610f00575b5f80808080610774565b601060035417600355610ef6565b600860025417600255610eef565b1090505f80610ee8565b94610f599398506001949a92975095610f53919660028054176002558560ff1960045416176004556107f3565b90610cb4565b960193919293610d60565b50878914610ed7565b5050505050505050508115610f86575f80808080610774565b600860035417600355610ef6565b9099506020813d8211610fbf575b81610faf60209383610182565b810103126100a25751985f610ec8565b3d9150610fa2565b99965060208a3d8211610ff5575b81610fe260209383610182565b810103126100a257985195986020610e9b565b3d9150610fd5565b9096506020813d8211611028575b8161101860209383610182565b810103126100a25751955f610e16565b3d915061100b565b9093506020813d821161105b575b8161104b60209383610182565b810103126100a25751925f610dde565b3d915061103e565b610774565b9150506020813d8211611094575b8161108360209383610182565b810103126100a2578590515f610dad565b3d9150611076565b60109350610d5a565b60019350610d51565b6110b791611445565b5060011c9081151590816110db575b506110d3575b8080610d41565b90505f6110cc565b905081105f6110c6565b505f96505050505050565b93508093610d23565b9091506020813d602011611125575b8161111560209383610182565b810103126100a25751905f610d1a565b3d9150611108565b505f955050505050565b9091801561076f576111488261155f565b6001600160a01b03808616959216929190838614908161140a575b81156113ce575b50156113be5761117a9084611445565b908015928380156113b6575b6113265760405163a9059cbb60e01b81526001600160a01b038716600482015260248101919091526020816044815f8b5af19081156104ba575f9161137b575b501561136a576040516370a0823160e01b81526001600160a01b03861660048201526020816024818a5afa9081156104ba575f91611338575b50818111156113265781611212916107f3565b926103e58402938085046103e5148115171561080057836103e5910202928484041484151715610800576103e882029182046103e8141715610800576112619261125b91610cb4565b90610924565b928315611317570361130c575f8091815b826020956112ee60c4604051926112898a85610182565b848452898401601f198b013682376040519485928c84019863022c0d9f60e01b8a5260248501526044840152306064840152608060848401525180918160a48501528484015e85838284010152601f801991011681010301601f198101835282610182565b51925af16112fa6109f9565b50156113035750565b60035417600355565b5f9182918291611272565b50505050602060035417600355565b50505050505050602060035417600355565b90506020813d602011611362575b8161135360209383610182565b810103126100a257515f6111ff565b3d9150611346565b505050505050602060035417600355565b90506020813d6020116113ae575b8161139660209383610182565b810103126100a2575180151581036100a2575f6111c6565b3d9150611389565b508215611186565b5050505050602060035417600355565b90508573c02aaa39b223fe8d0a0e5c4f27ead9083c756cc2851491826113f7575b50505f61116a565b6001600160a01b0316149050855f6113ef565b6001600160a01b03811673c02aaa39b223fe8d0a0e5c4f27ead9083c756cc2149150611163565b51906001600160701b03821682036100a257565b604051630240bc6b60e21b81529092916060826004816001600160a01b0388165afa9384156104ba575f925f95611502575b506114819061155f565b6001600160a01b039283169290911682036114a85750506001600160701b03809116921690565b9193916001600160a01b0316036114c9576001600160701b03809116921690565b60405162461bcd60e51b81526020600482015260116024820152703a37b5b2b7103737ba1034b7103830b4b960791b6044820152606490fd5b925093506060823d606011611557575b8161151f60609383610182565b810103126100a25761153082611431565b604061153e60208501611431565b93015163ffffffff8116036100a2579193611481611477565b3d9150611512565b604051630dfe168160e01b81526001600160a01b03919091169190602081600481865afa9081156104ba576004916020915f916115bd575b50936040519283809263d21220a760e01b82525afa9081156104ba575f916108e4575090565b6115d49150823d84116105f3576105e48183610182565b5f61159756fea2646970667358221220a6463a47e353a70dbdb14d68d7b2cf0412501b082d3b2ccb3aba14095044e68464736f6c634300081e0033","linkReferences":{}},"methodIdentifiers":{"TARGET()":"cc1f2afa","executeOnOpportunity()":"3c2448ed","executed()":"31a38c89","failureFlags()":"11e7c2ad","hypothesisValidated()":"463defd1","pathFlags()":"b494b31b","profitAmount()":"5ff972cc","profitToken()":"49343624"},"id":0}