{"abi":[{"type":"constructor","inputs":[],"stateMutability":"nonpayable"},{"type":"function","name":"REASON_BORROW_REVERTED_BEFORE_BYPASS","inputs":[],"outputs":[{"name":"","type":"uint8","internalType":"uint8"}],"stateMutability":"view"},{"type":"function","name":"REASON_LIQUIDITY_BELOW_REMAINING_CEILING","inputs":[],"outputs":[{"name":"","type":"uint8","internalType":"uint8"}],"stateMutability":"view"},{"type":"function","name":"REASON_LOOP_COUNT_EXCEEDS_SINGLE_TX_GAS","inputs":[],"outputs":[{"name":"","type":"uint8","internalType":"uint8"}],"stateMutability":"view"},{"type":"function","name":"REASON_NONE","inputs":[],"outputs":[{"name":"","type":"uint8","internalType":"uint8"}],"stateMutability":"view"},{"type":"function","name":"REASON_NO_BORROWABLE_ISOLATION_ASSET","inputs":[],"outputs":[{"name":"","type":"uint8","internalType":"uint8"}],"stateMutability":"view"},{"type":"function","name":"REASON_NO_DIRECT_COLLATERAL_AND_NOT_SELF_FUNDING","inputs":[],"outputs":[{"name":"","type":"uint8","internalType":"uint8"}],"stateMutability":"view"},{"type":"function","name":"REASON_NO_ISOLATED_COLLATERAL","inputs":[],"outputs":[{"name":"","type":"uint8","internalType":"uint8"}],"stateMutability":"view"},{"type":"function","name":"REASON_SUB_UNIT_BORROW_NOT_POSSIBLE","inputs":[],"outputs":[{"name":"","type":"uint8","internalType":"uint8"}],"stateMutability":"view"},{"type":"function","name":"accountingUnitRaw","inputs":[],"outputs":[{"name":"","type":"uint256","internalType":"uint256"}],"stateMutability":"view"},{"type":"function","name":"actualBorrowedRaw","inputs":[],"outputs":[{"name":"","type":"uint256","internalType":"uint256"}],"stateMutability":"view"},{"type":"function","name":"actualCeilingToBypassRaw","inputs":[],"outputs":[{"name":"","type":"uint256","internalType":"uint256"}],"stateMutability":"view"},{"type":"function","name":"bootstrapFundingCostInDebtAssetRaw","inputs":[],"outputs":[{"name":"","type":"uint256","internalType":"uint256"}],"stateMutability":"view"},{"type":"function","name":"bootstrapProfitShortfallRaw","inputs":[],"outputs":[{"name":"","type":"uint256","internalType":"uint256"}],"stateMutability":"view"},{"type":"function","name":"borrowChunkRaw","inputs":[],"outputs":[{"name":"","type":"uint256","internalType":"uint256"}],"stateMutability":"view"},{"type":"function","name":"borrowableIsolationReserveCount","inputs":[],"outputs":[{"name":"","type":"uint256","internalType":"uint256"}],"stateMutability":"view"},{"type":"function","name":"ceilingBypassed","inputs":[],"outputs":[{"name":"","type":"bool","internalType":"bool"}],"stateMutability":"view"},{"type":"function","name":"executeOnOpportunity","inputs":[],"outputs":[],"stateMutability":"nonpayable"},{"type":"function","name":"executedBorrowLoops","inputs":[],"outputs":[{"name":"","type":"uint256","internalType":"uint256"}],"stateMutability":"view"},{"type":"function","name":"hypothesisValidated","inputs":[],"outputs":[{"name":"","type":"bool","internalType":"bool"}],"stateMutability":"view"},{"type":"function","name":"infeasibilityReason","inputs":[],"outputs":[{"name":"","type":"uint8","internalType":"uint8"}],"stateMutability":"view"},{"type":"function","name":"isolatedCollateralReserveCount","inputs":[],"outputs":[{"name":"","type":"uint256","internalType":"uint256"}],"stateMutability":"view"},{"type":"function","name":"lastScannedConfigData","inputs":[],"outputs":[{"name":"","type":"uint256","internalType":"uint256"}],"stateMutability":"view"},{"type":"function","name":"lastScannedReserve","inputs":[],"outputs":[{"name":"","type":"address","internalType":"address"}],"stateMutability":"view"},{"type":"function","name":"maxBorrowableAgainstHeldCollateralRaw","inputs":[],"outputs":[{"name":"","type":"uint256","internalType":"uint256"}],"stateMutability":"view"},{"type":"function","name":"poolPriceOracle","inputs":[],"outputs":[{"name":"","type":"address","internalType":"address"}],"stateMutability":"view"},{"type":"function","name":"profitAmount","inputs":[],"outputs":[{"name":"","type":"uint256","internalType":"uint256"}],"stateMutability":"view"},{"type":"function","name":"profitToken","inputs":[],"outputs":[{"name":"","type":"address","internalType":"address"}],"stateMutability":"view"},{"type":"function","name":"remainingCeilingUnitsBefore","inputs":[],"outputs":[{"name":"","type":"uint256","internalType":"uint256"}],"stateMutability":"view"},{"type":"function","name":"requiredBorrowLoops","inputs":[],"outputs":[{"name":"","type":"uint256","internalType":"uint256"}],"stateMutability":"view"},{"type":"function","name":"requiredCollateralValueBase","inputs":[],"outputs":[{"name":"","type":"uint256","internalType":"uint256"}],"stateMutability":"view"},{"type":"function","name":"scannedReserveCount","inputs":[],"outputs":[{"name":"","type":"uint256","internalType":"uint256"}],"stateMutability":"view"},{"type":"function","name":"selectedCollateralAsset","inputs":[],"outputs":[{"name":"","type":"address","internalType":"address"}],"stateMutability":"view"},{"type":"function","name":"selectedCollateralBalance","inputs":[],"outputs":[{"name":"","type":"uint256","internalType":"uint256"}],"stateMutability":"view"},{"type":"function","name":"selectedCollateralLtv","inputs":[],"outputs":[{"name":"","type":"uint256","internalType":"uint256"}],"stateMutability":"view"},{"type":"function","name":"selectedCollateralOraclePrice","inputs":[],"outputs":[{"name":"","type":"uint256","internalType":"uint256"}],"stateMutability":"view"},{"type":"function","name":"selectedDebtAsset","inputs":[],"outputs":[{"name":"","type":"address","internalType":"address"}],"stateMutability":"view"},{"type":"function","name":"selectedDebtAssetLiquidity","inputs":[],"outputs":[{"name":"","type":"uint256","internalType":"uint256"}],"stateMutability":"view"},{"type":"function","name":"selectedDebtCeiling","inputs":[],"outputs":[{"name":"","type":"uint256","internalType":"uint256"}],"stateMutability":"view"},{"type":"function","name":"selectedDebtDecimals","inputs":[],"outputs":[{"name":"","type":"uint256","internalType":"uint256"}],"stateMutability":"view"},{"type":"function","name":"selectedDebtOraclePrice","inputs":[],"outputs":[{"name":"","type":"uint256","internalType":"uint256"}],"stateMutability":"view"},{"type":"function","name":"selectedFlashBorrowAmountRaw","inputs":[],"outputs":[{"name":"","type":"uint256","internalType":"uint256"}],"stateMutability":"view"},{"type":"function","name":"selectedFlashCollateralTopUpRaw","inputs":[],"outputs":[{"name":"","type":"uint256","internalType":"uint256"}],"stateMutability":"view"},{"type":"function","name":"selectedFlashPair","inputs":[],"outputs":[{"name":"","type":"address","internalType":"address"}],"stateMutability":"view"},{"type":"function","name":"selectedFlashPathMid","inputs":[],"outputs":[{"name":"","type":"address","internalType":"address"}],"stateMutability":"view"},{"type":"function","name":"selectedFlashRepayAmountRaw","inputs":[],"outputs":[{"name":"","type":"uint256","internalType":"uint256"}],"stateMutability":"view"},{"type":"function","name":"selectedFlashRouter","inputs":[],"outputs":[{"name":"","type":"address","internalType":"address"}],"stateMutability":"view"},{"type":"function","name":"selectedHTokenCollateralBalance","inputs":[],"outputs":[{"name":"","type":"uint256","internalType":"uint256"}],"stateMutability":"view"},{"type":"function","name":"selectedUnderlyingCollateralBalance","inputs":[],"outputs":[{"name":"","type":"uint256","internalType":"uint256"}],"stateMutability":"view"},{"type":"function","name":"trackedDebtAfter","inputs":[],"outputs":[{"name":"","type":"uint256","internalType":"uint256"}],"stateMutability":"view"},{"type":"function","name":"trackedDebtBefore","inputs":[],"outputs":[{"name":"","type":"uint256","internalType":"uint256"}],"stateMutability":"view"},{"type":"function","name":"uniswapV2Call","inputs":[{"name":"","type":"address","internalType":"address"},{"name":"amount0","type":"uint256","internalType":"uint256"},{"name":"amount1","type":"uint256","internalType":"uint256"},{"name":"","type":"bytes","internalType":"bytes"}],"outputs":[],"stateMutability":"nonpayable"}],"bytecode":{"object":"0x60808060405234601557613afb908161001a8239f35b5f80fdfe6080806040526004361015610012575f80fd5b5f3560e01c908163028a4ceb146108a2575080630979ddf214610885578063105ed87e1461085d57806310d1e85c146107f05780631c1d1090146107c857806326fa9056146107ad57806328b0fddf14610790578063303b36e41461077357806333ac125d14610756578063393e19441461072e5780633a9f9b04146107135780633c2448ed146106f957806341a0c5b2146106dc578063441b1200146106b4578063463defd11461068f578063477fe36814610672578063493436241461064b5780634b8d55c614610623578063510a9f0f14610606578063513cc44d146105e9578063589b48f8146105ce5780635d7d5cf4146105b35780635ff972cc1461059657806360db9d45146105795780636f3674081461055c5780637d45c0da1461053f5780638676df91146105225780638d3ed004146105055780638f19d35c146104dd57806390f7a89e146104c0578063989b7655146104a35780639af284d11461047b5780639c9b1f161461045e578063ae63d6ec14610441578063afad6bfc14610424578063b7edc2d914610407578063bcdac010146103ed578063c04f8289146103d2578063c748959a146103b5578063c7aa5caa14610390578063c8a2481114610373578063cd9b555614610356578063d0275c1314610339578063d3b7bda01461031d578063df45eabc14610300578063dfa6be1b146102e0578063e225beac146102c3578063e60d16b0146102a6578063ee04b7d21461028b578063f4bbeffa1461026e5763fb04b9581461024d575f80fd5b3461026a575f36600319011261026a576020600d54604051908152f35b5f80fd5b3461026a575f36600319011261026a576020601854604051908152f35b3461026a575f36600319011261026a57602060405160078152f35b3461026a575f36600319011261026a576020601154604051908152f35b3461026a575f36600319011261026a576020601254604051908152f35b3461026a575f36600319011261026a57602060ff60145416604051908152f35b3461026a575f36600319011261026a576020600854604051908152f35b3461026a575f36600319011261026a5760208054604051908152f35b3461026a575f36600319011261026a576020602654604051908152f35b3461026a575f36600319011261026a576020601f54604051908152f35b3461026a575f36600319011261026a576020600a54604051908152f35b3461026a575f36600319011261026a57602060ff60145460101c166040519015158152f35b3461026a575f36600319011261026a576020601e54604051908152f35b3461026a575f36600319011261026a57602060405160038152f35b3461026a575f36600319011261026a5760206040515f8152f35b3461026a575f36600319011261026a576020600554604051908152f35b3461026a575f36600319011261026a576020601354604051908152f35b3461026a575f36600319011261026a576020600454604051908152f35b3461026a575f36600319011261026a576020601654604051908152f35b3461026a575f36600319011261026a576021546040516001600160a01b039091168152602090f35b3461026a575f36600319011261026a576020600c54604051908152f35b3461026a575f36600319011261026a576020601054604051908152f35b3461026a575f36600319011261026a576003546040516001600160a01b039091168152602090f35b3461026a575f36600319011261026a576020601d54604051908152f35b3461026a575f36600319011261026a576020601c54604051908152f35b3461026a575f36600319011261026a576020600f54604051908152f35b3461026a575f36600319011261026a576020600754604051908152f35b3461026a575f36600319011261026a576020600e54604051908152f35b3461026a575f36600319011261026a576020600154604051908152f35b3461026a575f36600319011261026a57602060405160058152f35b3461026a575f36600319011261026a57602060405160028152f35b3461026a575f36600319011261026a576020600954604051908152f35b3461026a575f36600319011261026a576020602554604051908152f35b3461026a575f36600319011261026a576019546040516001600160a01b039091168152602090f35b3461026a575f36600319011261026a575f546040516001600160a01b039091168152602090f35b3461026a575f36600319011261026a576020601554604051908152f35b3461026a575f36600319011261026a57602060ff60145460081c166040519015158152f35b3461026a575f36600319011261026a57601a546040516001600160a01b039091168152602090f35b3461026a575f36600319011261026a576020601754604051908152f35b3461026a575f36600319011261026a5761071161132c565b005b3461026a575f36600319011261026a57602060405160068152f35b3461026a575f36600319011261026a576022546040516001600160a01b039091168152602090f35b3461026a575f36600319011261026a576020602454604051908152f35b3461026a575f36600319011261026a576020600654604051908152f35b3461026a575f36600319011261026a576020601b54604051908152f35b3461026a575f36600319011261026a57602060405160048152f35b3461026a575f36600319011261026a576023546040516001600160a01b039091168152602090f35b3461026a57608036600319011261026a576004356001600160a01b0381160361026a5760643567ffffffffffffffff811161026a573660238201121561026a57806004013567ffffffffffffffff811161026a573691016024011161026a57610711604435602435610bc0565b3461026a575f36600319011261026a576002546040516001600160a01b039091168152602090f35b3461026a575f36600319011261026a576020600b54604051908152f35b3461026a575f36600319011261026a5780600160209252f35b90601f8019910116810190811067ffffffffffffffff8211176108dd57604052565b634e487b7160e01b5f52604160045260245ffd5b67ffffffffffffffff81116108dd5760051b60200190565b8051156109165760200190565b634e487b7160e01b5f52603260045260245ffd5b8051600110156109165760400190565b8051600210156109165760600190565b80518210156109165760209160051b010190565b60208183031261026a5780519067ffffffffffffffff821161026a57019080601f8301121561026a578151610992816108f1565b926109a060405194856108bb565b81845260208085019260051b82010192831161026a57602001905b8282106109c85750505090565b81518152602091820191016109bb565b90602080835192838152019201905f5b8181106109f55750505090565b82516001600160a01b03168452602093840193909201916001016109e8565b51906001600160801b038216820361026a57565b51906001600160a01b038216820361026a57565b809103906101e0821261026a57604051916101e083019083821067ffffffffffffffff8311176108dd576020916040521261026a576040516020810181811067ffffffffffffffff8211176108dd57604052815181528252610aa060208201610a14565b6020830152610ab160408201610a14565b6040830152610ac260608201610a14565b6060830152610ad360808201610a14565b6080830152610ae460a08201610a14565b60a083015260c081015164ffffffffff8116810361026a5760c083015260e081015161ffff8116810361026a57610b96916101c09160e0850152610b2b6101008201610a28565b610100850152610b3e6101208201610a28565b610120850152610b516101408201610a28565b610140850152610b646101608201610a28565b610160850152610b776101808201610a14565b610180850152610b8a6101a08201610a14565b6101a085015201610a14565b6101c082015290565b91908203918211610bac57565b634e487b7160e01b5f52601160045260245ffd5b6027545f9291906001600160a01b03163381149081611322575b50156112ec57806112e557505b602c548091036112b157602a54610bfd816108f1565b91610c0b60405193846108bb565b818352601f19610c1a836108f1565b013660208501376003546001600160a01b03169160029083610c3b86610909565b5203611280576002546001600160a01b0316610c568461092a565b525b602b546110b7575b50506002546040516370a0823160e01b815230600482015291506001600160a01b0316602082602481845afa918215611078575f92611083575b5081610fda575b50506002546001600160a01b03165f516020613aa65f395f51905f523b15610fd65760405190635a3b74b960e01b82526004820152600160248201528181604481835f516020613aa65f395f51905f525af18015610f1e57908291610fbe575b5050600354610d18906001600160a01b0316611fc7565b6002546040516335ea6a7560e01b81526001600160a01b0390911660048201526101e0816024815f516020613aa65f395f51905f525afa908115610f1e576001600160801b03916101c0918491610f8f575b50015116600e55600354602754602d5460405163a9059cbb60e01b602082019081526001600160a01b0393841660248301526044820192909252849384931691908390610dc481606481015b03601f1981018352826108bb565b51925af1610dd0611f7b565b81610f60575b5015610f29576003546040516370a0823160e01b81523060048201526001600160a01b039091169190602081602481865afa908115610f1e578291610eec575b50602e5480821115610ee357610e2b91610b9f565b915b601354601054111580610ed6575b60ff9062ff000060145491151560101b1661ff00838262ff00001985161760101c16151560081b169162ffff00191617178060145560101c1680610ecd575b610eb95760405162461bcd60e51b815260206004820152601360248201527211931054d217d096541054d4d7d19052531151606a1b6044820152606490fd5b81546001600160a01b031916179055600155565b50821515610e7a565b50600e54600d5414610e3b565b50508091610e2d565b90506020813d602011610f16575b81610f07602093836108bb565b8101031261026a57515f610e16565b3d9150610efa565b6040513d84823e3d90fd5b60405162461bcd60e51b815260206004820152600f60248201526e1514905394d1915497d19052531151608a1b6044820152606490fd5b8051801592508215610f75575b50505f610dd6565b610f88925060208091830101910161208d565b5f80610f6d565b610fb191506101e03d8111610fb7575b610fa981836108bb565b810190610a3c565b5f610d6a565b503d610f9f565b81610fc8916108bb565b610fd357805f610d01565b80fd5b5080fd5b8181610fe8610fed936126b7565b61273e565b6002546001600160a01b0316905f516020613aa65f395f51905f523b1561026a5760405163617ba03760e01b81526001600160a01b0392909216600483015260248201523060448201525f6064820181905281608481835f516020613aa65f395f51905f525af1801561107857611065575b80610ca1565b61107191505f906108bb565b5f5f61105f565b6040513d5f823e3d90fd5b9091506020813d6020116110af575b8161109f602093836108bb565b8101031261026a5751905f610c9a565b3d9150611092565b60018060a01b0360285416915f80604051602081019063095ea7b360e01b8252866024820152826044820152604481526110f26064826108bb565b519082855af1611100611f7b565b81611251575b50156111ec5760405163095ea7b360e01b602082019081526001600160a01b03909416602482015260448101929092525f92839283906111498160648101610db6565b51925af1611155611f7b565b81611222575b50156111ec575f6111a89160018060a01b0360285416602b5483602c549160405196879586948593634401edf760e11b85526004850152602484015260a0604484015260a48301906109d8565b30606483015242608483015203925af18015611078576111ca575b8080610c60565b6111e5903d805f833e6111dd81836108bb565b81019061095e565b505f6111c3565b60405162461bcd60e51b815260206004820152600e60248201526d1054141493d59157d1905253115160921b6044820152606490fd5b8051801592508215611237575b50505f61115b565b61124a925060208091830101910161208d565b5f8061122f565b8051801592508215611266575b50505f611106565b611279925060208091830101910161208d565b5f8061125e565b6029546001600160a01b03166112958461092a565b526002546001600160a01b03166112ab8461093a565b52610c58565b60405162461bcd60e51b815260206004820152600c60248201526b11931054d217d05353d5539560a21b6044820152606490fd5b9050610be7565b60405162461bcd60e51b815260206004820152600e60248201526d464c4153485f43414c4c4241434b60901b6044820152606490fd5b905015155f610bda565b6001600160601b0360a01b5f54165f555f6001556001600160601b0360a01b600254166002556001600160601b0360a01b600354166003555f6004555f6005555f6006555f6007555f6008555f6009555f600a555f600b555f600c555f600d555f600e555f600f555f6010555f6011555f6012555f60135562ffffff19601454166014555f6015555f6016555f6017555f6018556001600160601b0360a01b601954166019556001600160601b0360a01b601a5416601a555f601b555f601c555f601d555f601e555f601f555f6020556001600160601b0360a01b602154166021556001600160601b0360a01b602254166022556001600160601b0360a01b602354166023555f6024555f6025555f60265561144661277d565b61144e6120a5565b6040516334651b6f60e21b815290915f826004815f516020613aa65f395f51905f525afa918215611078575f92611f51575b508151601555604051630150a5d760e21b81526020816004815f516020613aa65f395f51905f525afa908115611078575f91611f12575b50604051631f94a27560e31b815290602090829060049082906001600160a01b03165afa908115611078575f91611ed8575b50601a80546001600160a01b0319166001600160a01b0383161790555f5b83518110156115e1576001600160a01b03611522828661094a565b5116906040516335ea6a7560e01b81528260048201526101e0816024815f516020613aa65f395f51905f525afa92831561107857600193611591925f916115c2575b505151906001600160601b0360a01b601954161760195580601855611588816127c9565b6115af5761282c565b61159c575b01611507565b6115a7601654611f6d565b601655611596565b6115ba601754611f6d565b60175561282c565b6115db91506101e03d8111610fb757610fa981836108bb565b5f611564565b509190925f925b825184101561172b5761160e816001600160a01b03611607878761094a565b5116612890565b80516001600160a01b031615801561171f575b611715575f5b84518110156117075761164e836001600160a01b03611646848961094a565b511684612b3e565b80516001600160a01b03161515806116f0575b806116e3575b806116cf575b806116bb575b806116aa575b156116a1576116888582612e01565b611698575b506001905b01611627565b9350600161168d565b50600190611692565b506101006102008201511115611679565b506101608101516101e08201511115611673565b506101c08101516101e0820151111561166d565b5060608101511515611667565b506101408101516001600160a01b03161515611661565b5050926001905b01926115e8565b509260019061170e565b50606081015115611621565b5080519092506001600160a01b03161515905080611ec1575b611eaf57506117516120a5565b6040516334651b6f60e21b815290915f826004815f516020613aa65f395f51905f525afa918215611078575f92611e8b575b508151601555601a546001600160a01b03811693908415611d8c575b505f6016555f6017555f5b8351811015611848576001600160a01b036117c5828661094a565b5116906040516335ea6a7560e01b81528260048201526101e0816024815f516020613aa65f395f51905f525afa9283156110785760019361182a925f916115c257505151906001600160601b0360a01b601954161760195580601855611588816127c9565b611835575b016117aa565b611840601654611f6d565b60165561182f565b509092611853612669565b905f935b8051851015611a2557611876826001600160a01b03611607888561094a565b80519091906001600160a01b031615611a1b575f5b8151811015611a0d576118b2846001600160a01b036118aa848661094a565b511685612b3e565b80516001600160a01b03161515806119f6575b806119e7575b806119da575b806119cd575b806119bf575b806119ab575b8061199a575b15611991576118f781612f45565b80519091906001600160a01b0316158015611985575b61197b5787516001600160a01b031615801561196a575b8015611948575b61193c575b50506001905b0161188b565b9650945060015f611930565b5060e082015160e088015114801561192b57506119658882612e01565b61192b565b5060e082015160e088015110611924565b5050600190611936565b5060e08201511561190d565b50600190611936565b5061010061020082015111156118e9565b506101608101516101e082015111156118e3565b506101a081015115156118dd565b5060c081015115156118d7565b50608081015115156118d1565b506002610180820151116118cb565b506101408101516001600160a01b031615156118c5565b5094600191505b0193611857565b9460019150611a14565b50508151919250906001600160a01b0316611cfd575b5080516001600160a01b031615611cc057611a55906121c2565b6021546001600160a01b031680158015611cad575b611c9d57602780546001600160a01b031990811683179091556022546028805483166001600160a01b03928316179055602354602980549093169116908117909155611c945760ff60025b16602a55602454602b556025549081602c55602654602d5560018060a01b0360035416916040516370a0823160e01b8152306004820152602081602481875afa908115611078575f91611c62575b50602e55604051630dfe168160e01b8152602081600481865afa908115611078575f91611c1f575b505f93849392916001600160a01b031603611c1857805b81158414611c105783905b611bcf60c460405192611b616040856108bb565b6008845260208401671a1bdc195b195b9960c21b8152604051948592602084019863022c0d9f60e01b8a5260248501526044840152306064840152608060848401525180918160a48501528484015e85838284010152601f801991011681010301601f1981018352826108bb565b51925af1611bdb611f7b565b50611be461277d565b1580611c00575b611bf157565b600760ff196014541617601455565b5060ff60145460101c1615611beb565b508280611b4d565b8290611b42565b929190506020833d602011611c5a575b81611c3c602093836108bb565b8101031261026a575f93611c508594610a28565b9192935093611b2b565b3d9150611c2f565b90506020813d602011611c8c575b81611c7d602093836108bb565b8101031261026a57515f611b03565b3d9150611c70565b60ff6003611ab5565b50600660ff196014541617601455565b506022546001600160a01b031615611a6a565b50601654611cd857600160ff1960145416176014555b565b601754611cee57600260ff196014541617601455565b600660ff196014541617601455565b8051602180546001600160a01b039283166001600160a01b031991821617909155602083015160228054918416918316919091179055604083015160238054919093169116179055608081015160245560a081015160255560c001516026819055601f8190556101e082015181811115611d7e5750505f5b6020555f611a3b565b611d8791610b9f565b611d75565b604051630150a5d760e21b815294506020856004815f516020613aa65f395f51905f525afa948515611078575f95611e4c575b50604051631f94a27560e31b815294602090869060049082906001600160a01b03165afa948515611078575f95611e10575b506001600160a01b0319166001600160a01b03851617601a555f61179f565b9094506020813d602011611e44575b81611e2c602093836108bb565b8101031261026a57611e3d90610a28565b935f611df1565b3d9150611e1f565b94506020853d602011611e83575b81611e67602093836108bb565b8101031261026a576020611e7c600496610a28565b9550611dbf565b3d9150611e5a565b611ea89192503d805f833e611ea081836108bb565b810190612132565b905f611783565b80611ebc611cd6926121c2565b612303565b506101408101516001600160a01b03161515611744565b90506020813d602011611f0a575b81611ef3602093836108bb565b8101031261026a57611f0490610a28565b5f6114e9565b3d9150611ee6565b90506020813d602011611f49575b81611f2d602093836108bb565b8101031261026a576020611f42600492610a28565b91506114b7565b3d9150611f20565b611f669192503d805f833e611ea081836108bb565b905f611480565b5f198114610bac5760010190565b3d15611fb5573d9067ffffffffffffffff82116108dd5760405191611faa601f8201601f1916602001846108bb565b82523d5f602084013e565b606090565b91908201809211610bac57565b5f5b601154811080612081575b1561207d575f80600c54604051602081019163a415bcad60e01b835260018060a01b03871660248301526044820152600260648201528260848201523060a482015260a4815261202560c4826108bb565b5190825f516020613aa65f395f51905f525af1612040611f7b565b501561207d57612051601254611f6d565b601255612062600c54601354611fba565b80601355601054111561207d5761207890611f6d565b611fc9565b5050565b50620557305a11611fd4565b9081602091031261026a5751801515810361026a5790565b60405190610220820182811067ffffffffffffffff8211176108dd576040525f610200838281528260208201528260408201528260608201528260808201528260a08201528260c08201528260e08201528261010082015282610120820152826101408201528261016082015282610180820152826101a0820152826101c0820152826101e08201520152565b60208183031261026a5780519067ffffffffffffffff821161026a57019080601f8301121561026a578151612166816108f1565b9261217460405194856108bb565b81845260208085019260051b82010192831161026a57602001905b82821061219c5750505090565b602080916121a984610a28565b81520191019061218f565b604d8111610bac57600a0a90565b6101408101516001600160a01b0316801561207d5760018060a01b038251166001600160601b0360a01b60025416176002556001600160601b0360a01b6003541617600355606081015160045560208101516005556040810151600655608081015160075560c0810151601b5560e0810151600855610180810151806009556101608201908151600a556101a0830151601c55610100830151600d55610120830151600f556101c0830151601d5560028111156122f1576001198101908111610bac5761228e906121b4565b80600b555f198101908111610bac57600c556101e082015190816010556122bf610200840151938460115583612ef8565b601e5551106122e157610100106122d257565b600560ff196014541617601455565b50600460ff196014541617601455565b505050600360ff196014541617601455565b610140810180516040516370a0823160e01b815230600482015291925f9291602090839060249082906001600160a01b03165afa918215611078575f92612635575b5060208101805180612590575b505080516001600160a01b03165f516020613aa65f395f51905f523b1561258c5760405190635a3b74b960e01b82526004820152600160248201528381604481835f516020613aa65f395f51905f525af1801561253e57908491612573575b505083516123c7906001600160a01b0316611fc7565b516040516335ea6a7560e01b81526001600160a01b0390911660048201526101e0816024815f516020613aa65f395f51905f525afa908115612568576101c0602493926001600160801b03928691612549575b500151169081600e55602060018060a01b03865116604051948580926370a0823160e01b82523060048301525afa92831561253e57849361250a575b50601354601054111591826124fe575b5062ff000060145492151560101b169261ff0060ff8562ff00001986161760101c16151560081b169460ff868662ffff0019871617178060145560101c16806124f5575b6124c25750505062ffffff1916171760071760145550565b955186546001600160a01b0319166001600160a01b0391909116179095556124f0949093509150610b9f9050565b600155565b508282116124aa565b600d541491505f612466565b9092506020813d602011612536575b81612526602093836108bb565b8101031261026a5751915f612456565b3d9150612519565b6040513d86823e3d90fd5b61256291506101e03d8111610fb757610fa981836108bb565b5f61241a565b6040513d85823e3d90fd5b8161257d916108bb565b61258857825f6123b1565b8280fd5b8380fd5b82516125a991906001600160a01b0316610fe8816126b7565b60018060a01b0382511690515f516020613aa65f395f51905f523b1561026a5760405163617ba03760e01b81526001600160a01b0392909216600483015260248201523060448201525f6064820181905281608481835f516020613aa65f395f51905f525af1801561107857612620575b80612352565b61262d9193505f906108bb565b5f915f61261a565b9091506020813d602011612661575b81612651602093836108bb565b8101031261026a5751905f612345565b3d9150612644565b60405190610100820182811067ffffffffffffffff8211176108dd576040525f60e0838281528260208201528260408201528260608201528260808201528260a08201528260c08201520152565b5f809160405182602082019163095ea7b360e01b83525f516020613aa65f395f51905f526024820152816044820152604481526126f56064826108bb565b51925af1612701611f7b565b8161270f575b50156111ec57565b8051801592508215612724575b50505f612707565b612737925060208091830101910161208d565b5f8061271c565b5f9190829182604051602081019263095ea7b360e01b84525f516020613aa65f395f51905f5260248301526044820152604481526126f56064826108bb565b6001600160601b0360a01b602754166027556001600160601b0360a01b602854166028556001600160601b0360a01b602954166029555f602a555f602b555f602c555f602d555f602e55565b60018160381c161515908161281c575b8161280c575b816127fb575b816127ee575090565b60019150603d1c16151590565b9050600181603a1c161515906127e5565b9050600181603c1c1615906127df565b905060018160391c1615906127d9565b60018160381c1615159081612880575b81612870575b81612862575b81612851575090565b64ffffffffff915060d41c16151590565b61ffff811615159150612848565b9050600181603c1c161590612842565b905060018160391c16159061283c565b6040519291610140840167ffffffffffffffff8111858210176108dd576040525f84525f60208501525f60408501525f60608501525f60808501525f60a08501525f60c08501525f60e08501525f6101008501525f61012085015283604051926335ea6a7560e01b845260018060a01b03168060048501526101e0846024815f516020613aa65f395f51905f525afa938415611078575f94612b0a575b508351519161293b8361282c565b15612b0257508086526040516370a0823160e01b815230600482015290602082602481845afa918215611078575f92612ace575b5060208781019283526101008601516040516370a0823160e01b81523060048201529190829060249082906001600160a01b03165afa908115611078575f91612a9b575b50806020936129c79260408b015251611fba565b606088015261ffff8316608088015260ff8360301c1660a088015260246040518095819363b3596f0760e01b8352600483015260018060a01b03165afa918215611078575f92612a62575b5064ffffffffff6101c0916001600160801b039360c088015260d41c16928360e0870152015116806101008501528082115f14612a5a57612a5291610b9f565b610120830152565b50505f612a52565b91506020823d602011612a93575b81612a7d602093836108bb565b8101031261026a5790519064ffffffffff612a12565b3d9150612a70565b90506020813d602011612ac6575b81612ab6602093836108bb565b8101031261026a575160206129b3565b3d9150612aa9565b9091506020813d602011612afa575b81612aea602093836108bb565b8101031261026a5751905f61296f565b3d9150612add565b955050505050565b612b249194506101e03d8111610fb757610fa981836108bb565b925f61292d565b81810292918115918404141715610bac57565b90929192612b4a6120a5565b6040516335ea6a7560e01b81526001600160a01b0390921660048301819052909490926101e0836024815f516020613aa65f395f51905f525afa928315611078575f93612de0575b50825151612b9f816127c9565b15612dd95760301c60ff166002811115612dd9576001198101818111610bac57612bc8906121b4565b905f19820194828611610bac57610120840192835180155f14612db8575050602492602087965b60405163b3596f0760e01b8152600481018b905295869182906001600160a01b03165afa938415611078575f94612d81575b509060209161010060608701968c8689518981158015612d75575b8015612d6d575b15612d4a5750505060605f995b60018060a01b038451168352878401518884015260408401516040840152519101528c6080808301519101528c60a0808301519101528c60c0808301519101528c60e08083015191015201516101008c0152516101208b0152876101408b015261010060018060a01b03910151166024604051809981936370a0823160e01b835260048301525afa8015611078575f90612d16575b612d0e96506101608901526101808801526101a08701526101c0860152806101e086015261306c565b610200830152565b506020863d602011612d42575b81612d30602093836108bb565b8101031261026a57612d0e9551612ce5565b3d9150612d23565b606092612d679260a087015160c088015190608089015192612fc8565b99612c50565b508015612c43565b5060c085015115612c3c565b919093506020823d602011612db0575b81612d9e602093836108bb565b8101031261026a579051926020612c21565b3d9150612d91565b90612dc291612b2b565b9260018401809411610bac57602060249496612bef565b5050505050565b612dfa9193506101e03d8111610fb757610fa981836108bb565b915f612b92565b80516001600160a01b0316158015612ec4575b612ebe5781516001600160a01b031615612eb75760608101511515606083015115158103612eb1575061018081015161018083015190818103612ea357505061020081015161020083015190818103612eaa5750506101e08101516101e083015190818103612ea35750506101c08101516101c083015190818103612ea3575050610160809101519101511090565b1192915050565b1092915050565b91505090565b5050600190565b50505f90565b506101408101516001600160a01b031615612e14565b8115612ee4570490565b634e487b7160e01b5f52601260045260245ffd5b612f0b612f1f916101a084015190612b2b565b612f196101808401516121b4565b90612eda565b6127108102908082046127101490151715610bac576080612f429201519061306c565b90565b612f4d612669565b90612f81612f76612f63836101e0810151612ef8565b612f7060a08501516121b4565b90612b2b565b60c08301519061306c565b60018101809111610bac5760608201519283821115612fc15750612fab612f4293612fbb92610b9f565b612fb5818461309a565b9261340b565b9061371f565b9250505090565b90949391948115801561303a575b8015613032575b801561302a575b6130205761301461301b9461300f61271093612f19613009612f429b612f7098612b2b565b916121b4565b612b2b565b04916121b4565b612eda565b5050505050505f90565b508415612fe4565b508315612fdd565b508515612fd6565b5f908061304d575090565b5f19810191508111610bac576103e5900460018101809111610bac5790565b90816130785750505f90565b5f198201918211610bac5761308c91612eda565b60018101809111610bac5790565b91906130a4612669565b6101408401805185519295919391926001600160a01b0390811691168181148015613403575b612dd95760405163e6a4390560e01b81526001600160a01b03918216600482015291166024820152602081604481735c69bee701ef814a2b6a3edd4b1652cb9cc5aa6f5afa908115611078575f916133c9575b506001600160a01b03811661335b575b5082516001600160a01b0316915f516020613a865f395f51905f528314158061333a575b61315c575b50505050565b6040519263e6a4390560e01b845260048401525f516020613a865f395f51905f526024840152602083604481735c69bee701ef814a2b6a3edd4b1652cb9cc5aa6f5afa928315611078575f936132fe575b50805160405163e6a4390560e01b81525f516020613a865f395f51905f5260048201526001600160a01b039091166024820152602081604481735c69bee701ef814a2b6a3edd4b1652cb9cc5aa6f5afa908115611078575f916132c4575b506001600160a01b038416151590816132b1575b50156131565791737a250d5630b4cf539739df2c5dacb4c659f2488d6132a795969492612fbb94604051946132556080876108bb565b600386526060366020880137516001600160a01b031661327486610909565b525f516020613a865f395f51905f5261328c8661092a565b5280516001600160a01b03166132a18661093a565b526138d7565b905f808080613156565b6001600160a01b0316151590505f61321f565b90506020813d6020116132f6575b816132df602093836108bb565b8101031261026a576132f090610a28565b5f61320b565b3d91506132d2565b9092506020813d602011613332575b8161331a602093836108bb565b8101031261026a5761332b90610a28565b915f6131ad565b3d915061330d565b5080516001600160a01b03165f516020613a865f395f51905f521415613151565b6133c2919550604051906133706060836108bb565b60028252604036602084013784516001600160a01b031661339083610909565b5283516001600160a01b03166133a58361092a565b52737a250d5630b4cf539739df2c5dacb4c659f2488d8785613783565b935f61312d565b90506020813d6020116133fb575b816133e4602093836108bb565b8101031261026a576133f590610a28565b5f61311d565b3d91506133d7565b5082156130ca565b9190613415612669565b6101408401805185519295919391926001600160a01b0390811691168181148015613717575b612dd95760405163e6a4390560e01b81526001600160a01b0391821660048201529116602482015260208160448173c0aee478e3658e2610c5f7a4a2e1777ce9e4f2ac5afa908115611078575f916136dd575b506001600160a01b03811661366f575b5082516001600160a01b0316915f516020613a865f395f51905f528314158061364e575b6134cc5750505050565b6040519263e6a4390560e01b845260048401525f516020613a865f395f51905f52602484015260208360448173c0aee478e3658e2610c5f7a4a2e1777ce9e4f2ac5afa928315611078575f93613612575b50805160405163e6a4390560e01b81525f516020613a865f395f51905f5260048201526001600160a01b03909116602482015260208160448173c0aee478e3658e2610c5f7a4a2e1777ce9e4f2ac5afa908115611078575f916135d8575b506001600160a01b038416151590816135c5575b5015613156579173d9e1ce17f2641f24ae83637ab66a2cca9c378b9f6132a795969492612fbb94604051946132556080876108bb565b6001600160a01b0316151590505f61358f565b90506020813d60201161360a575b816135f3602093836108bb565b8101031261026a5761360490610a28565b5f61357b565b3d91506135e6565b9092506020813d602011613646575b8161362e602093836108bb565b8101031261026a5761363f90610a28565b915f61351d565b3d9150613621565b5080516001600160a01b03165f516020613a865f395f51905f5214156134c2565b6136d6919550604051906136846060836108bb565b60028252604036602084013784516001600160a01b03166136a483610909565b5283516001600160a01b03166136b98361092a565b5273d9e1ce17f2641f24ae83637ab66a2cca9c378b9f8785613783565b935f61349e565b90506020813d60201161370f575b816136f8602093836108bb565b8101031261026a5761370990610a28565b5f61348e565b3d91506136eb565b50821561343b565b90613728612669565b5081516001600160a01b0316156137735780516001600160a01b0316156137785760e081015160e08301519081811161377c57106137785760c081015160c083015111613773575090565b905090565b5090565b5050905090565b9190949394613790612669565b9561379c818385613a20565b901580156138ce575b6138c6576137b290610909565b51926103e88402958415968581046103e814881715610bac576137d490613042565b9680156138b7575b8015613839575b613830576001600160a01b0390811689521660208801525f60408801525160ff166060870152608086015260a085015260c084018290526101e001516138299190610b9f565b60e0830152565b50505050505050565b506101408601516040516370a0823160e01b81526001600160a01b038381166004830152909160209183916024918391165afa80156110785786915f91613882575b50106137e3565b9150506020813d6020116138af575b8161389e602093836108bb565b8101031261026a578590515f61387b565b3d9150613891565b506101e08601518710156137dc565b505050505050565b508051156137a5565b91909493946138e4612669565b956138f0818385613a20565b90158015613a17575b6138c65761390690610909565b51926103e88402958415968581046103e814881715610bac5761392890613042565b968015613a08575b801561398a575b613830576001600160a01b0390811689521660208801525f516020613a865f395f51905f5260408801525160ff166060870152608086015260a085015260c084018290526101e001516138299190610b9f565b506101408601516040516370a0823160e01b81526001600160a01b038381166004830152909160209183916024918391165afa80156110785786915f916139d3575b5010613937565b9150506020813d602011613a00575b816139ef602093836108bb565b8101031261026a578590515f6139cc565b3d91506139e2565b506101e0860151871015613930565b508051156138f9565b5f9291610db6613a56859460405192839160208301956307c0329d60e21b875260248401526040604484015260648301906109d8565b51915afa90613a63611f7b565b8215613a7c5780602080612f429351830101910161095e565b505f915060609056fe000000000000000000000000c02aaa39b223fe8d0a0e5c4f27ead9083c756cc200000000000000000000000053fbcada1201a465740f2d64ecdf6fac425f9030a2646970667358221220953495c92a93e4aab1c24589d0814032af21773532a5d81819c50891a1e7a55564736f6c634300081e0033","linkReferences":{}},"methodIdentifiers":{"REASON_BORROW_REVERTED_BEFORE_BYPASS()":"ee04b7d2","REASON_LIQUIDITY_BELOW_REMAINING_CEILING()":"26fa9056","REASON_LOOP_COUNT_EXCEEDS_SINGLE_TX_GAS()":"5d7d5cf4","REASON_NONE()":"bcdac010","REASON_NO_BORROWABLE_ISOLATION_ASSET()":"589b48f8","REASON_NO_DIRECT_COLLATERAL_AND_NOT_SELF_FUNDING()":"3a9f9b04","REASON_NO_ISOLATED_COLLATERAL()":"028a4ceb","REASON_SUB_UNIT_BORROW_NOT_POSSIBLE()":"c04f8289","accountingUnitRaw()":"0979ddf2","actualBorrowedRaw()":"afad6bfc","actualCeilingToBypassRaw()":"90f7a89e","bootstrapFundingCostInDebtAssetRaw()":"cd9b5556","bootstrapProfitShortfallRaw()":"d3b7bda0","borrowChunkRaw()":"989b7655","borrowableIsolationReserveCount()":"41a0c5b2","ceilingBypassed()":"c7aa5caa","executeOnOpportunity()":"3c2448ed","executedBorrowLoops()":"e225beac","hypothesisValidated()":"463defd1","infeasibilityReason()":"dfa6be1b","isolatedCollateralReserveCount()":"9c9b1f16","lastScannedConfigData()":"f4bbeffa","lastScannedReserve()":"4b8d55c6","maxBorrowableAgainstHeldCollateralRaw()":"8d3ed004","poolPriceOracle()":"441b1200","profitAmount()":"5ff972cc","profitToken()":"49343624","remainingCeilingUnitsBefore()":"7d45c0da","requiredBorrowLoops()":"e60d16b0","requiredCollateralValueBase()":"c748959a","scannedReserveCount()":"477fe368","selectedCollateralAsset()":"105ed87e","selectedCollateralBalance()":"ae63d6ec","selectedCollateralLtv()":"6f367408","selectedCollateralOraclePrice()":"28b0fddf","selectedDebtAsset()":"8f19d35c","selectedDebtAssetLiquidity()":"c8a24811","selectedDebtCeiling()":"df45eabc","selectedDebtDecimals()":"513cc44d","selectedDebtOraclePrice()":"8676df91","selectedFlashBorrowAmountRaw()":"510a9f0f","selectedFlashCollateralTopUpRaw()":"33ac125d","selectedFlashPair()":"9af284d1","selectedFlashPathMid()":"1c1d1090","selectedFlashRepayAmountRaw()":"d0275c13","selectedFlashRouter()":"393e1944","selectedHTokenCollateralBalance()":"303b36e4","selectedUnderlyingCollateralBalance()":"b7edc2d9","trackedDebtAfter()":"60db9d45","trackedDebtBefore()":"fb04b958","uniswapV2Call(address,uint256,uint256,bytes)":"10d1e85c"},"id":0}