{"abi":[{"type":"constructor","inputs":[],"stateMutability":"nonpayable"},{"type":"receive","stateMutability":"payable"},{"type":"function","name":"STATUS_DIRECT_SUCCESS","inputs":[],"outputs":[{"name":"","type":"uint8","internalType":"uint8"}],"stateMutability":"view"},{"type":"function","name":"STATUS_FLASH_FAILED","inputs":[],"outputs":[{"name":"","type":"uint8","internalType":"uint8"}],"stateMutability":"view"},{"type":"function","name":"STATUS_FLASH_SUCCESS","inputs":[],"outputs":[{"name":"","type":"uint8","internalType":"uint8"}],"stateMutability":"view"},{"type":"function","name":"STATUS_NO_REPAY_PATH","inputs":[],"outputs":[{"name":"","type":"uint8","internalType":"uint8"}],"stateMutability":"view"},{"type":"function","name":"STATUS_NO_WRITER_BALANCE","inputs":[],"outputs":[{"name":"","type":"uint8","internalType":"uint8"}],"stateMutability":"view"},{"type":"function","name":"STATUS_UNSET","inputs":[],"outputs":[{"name":"","type":"uint8","internalType":"uint8"}],"stateMutability":"view"},{"type":"function","name":"TARGET","inputs":[],"outputs":[{"name":"","type":"address","internalType":"address"}],"stateMutability":"view"},{"type":"function","name":"approve","inputs":[{"name":"","type":"address","internalType":"address"},{"name":"","type":"uint256","internalType":"uint256"}],"outputs":[{"name":"","type":"bool","internalType":"bool"}],"stateMutability":"pure"},{"type":"function","name":"attackerExchange","inputs":[],"outputs":[{"name":"","type":"address","internalType":"address"}],"stateMutability":"view"},{"type":"function","name":"balanceOf","inputs":[{"name":"","type":"address","internalType":"address"}],"outputs":[{"name":"","type":"uint256","internalType":"uint256"}],"stateMutability":"pure"},{"type":"function","name":"collateral","inputs":[],"outputs":[{"name":"","type":"address","internalType":"address"}],"stateMutability":"view"},{"type":"function","name":"executeOnOpportunity","inputs":[],"outputs":[],"stateMutability":"nonpayable"},{"type":"function","name":"expiryTime","inputs":[],"outputs":[{"name":"","type":"uint256","internalType":"uint256"}],"stateMutability":"pure"},{"type":"function","name":"exploitPath","inputs":[],"outputs":[{"name":"","type":"string","internalType":"string"}],"stateMutability":"pure"},{"type":"function","name":"fakeAcoToken","inputs":[],"outputs":[{"name":"","type":"address","internalType":"address"}],"stateMutability":"view"},{"type":"function","name":"fakeCollateral","inputs":[],"outputs":[{"name":"","type":"address","internalType":"address"}],"stateMutability":"view"},{"type":"function","name":"getTokenAmount","inputs":[{"name":"collateralAmount","type":"uint256","internalType":"uint256"}],"outputs":[{"name":"","type":"uint256","internalType":"uint256"}],"stateMutability":"pure"},{"type":"function","name":"hypothesisRefuted","inputs":[],"outputs":[{"name":"","type":"bool","internalType":"bool"}],"stateMutability":"view"},{"type":"function","name":"hypothesisValidated","inputs":[],"outputs":[{"name":"","type":"bool","internalType":"bool"}],"stateMutability":"view"},{"type":"function","name":"lastTargetToken","inputs":[],"outputs":[{"name":"","type":"address","internalType":"address"}],"stateMutability":"view"},{"type":"function","name":"lastWriteFailure","inputs":[],"outputs":[{"name":"","type":"bytes","internalType":"bytes"}],"stateMutability":"view"},{"type":"function","name":"mintTo","inputs":[{"name":"","type":"address","internalType":"address"},{"name":"","type":"uint256","internalType":"uint256"}],"outputs":[],"stateMutability":"nonpayable"},{"type":"function","name":"mintToPayable","inputs":[{"name":"","type":"address","internalType":"address"}],"outputs":[],"stateMutability":"payable"},{"type":"function","name":"profitAmount","inputs":[],"outputs":[{"name":"","type":"uint256","internalType":"uint256"}],"stateMutability":"view"},{"type":"function","name":"profitToken","inputs":[],"outputs":[{"name":"","type":"address","internalType":"address"}],"stateMutability":"view"},{"type":"function","name":"status","inputs":[],"outputs":[{"name":"","type":"uint8","internalType":"uint8"}],"stateMutability":"view"},{"type":"function","name":"strikeAsset","inputs":[],"outputs":[{"name":"","type":"address","internalType":"address"}],"stateMutability":"view"},{"type":"function","name":"successfulSweeps","inputs":[],"outputs":[{"name":"","type":"uint256","internalType":"uint256"}],"stateMutability":"view"},{"type":"function","name":"transfer","inputs":[{"name":"","type":"address","internalType":"address"},{"name":"","type":"uint256","internalType":"uint256"}],"outputs":[{"name":"","type":"bool","internalType":"bool"}],"stateMutability":"pure"},{"type":"function","name":"transferFrom","inputs":[{"name":"","type":"address","internalType":"address"},{"name":"","type":"address","internalType":"address"},{"name":"","type":"uint256","internalType":"uint256"}],"outputs":[{"name":"","type":"bool","internalType":"bool"}],"stateMutability":"pure"},{"type":"function","name":"uniswapV2Call","inputs":[{"name":"","type":"address","internalType":"address"},{"name":"amount0","type":"uint256","internalType":"uint256"},{"name":"amount1","type":"uint256","internalType":"uint256"},{"name":"","type":"bytes","internalType":"bytes"}],"outputs":[],"stateMutability":"nonpayable"}],"bytecode":{"object":"0x608080604052346015576134bd908161001a8239f35b5f80fdfe608080604052600436101561001c575b50361561001a575f80fd5b005b5f905f3560e01c90816305f5b76d146109ff57508063095ea7b3146104c15780630e253c46146101c257806310d1e85c146106c957806317d69bc81461069c578063200d2ed21461067c57806323b872dd1461064d5780633c2448ed14610631578063449a52f814610617578063463defd1146105f257806349343624146105c4578063495f92f11461059f5780634b4099a4146101c25780634d509133146105815780635bf5fc54146105655780635ff972cc1461054057806370a082311461051a5780637af65c86146104fe57806384253d73146104e257806399bc0aea146104c65780639f99c11f146101c2578063a9059cbb146104c1578063b0df1cc7146104a8578063bc473438146103ec578063c2507ac1146103ce578063cb707c6214610212578063cc1f2afa146101e3578063cd1441dd146101c7578063d8dfeb45146101c2578063f29a0bf2146101a65763f75971d50361000f57346101a357806003193601126101a3575460405160189190911c6001600160a01b03168152602090f35b80fd5b50346101a357806003193601126101a357602090604051908152f35b610a5d565b50346101a357806003193601126101a357602060405160018152f35b50346101a357806003193601126101a357602060405173e7597f774fd0a15a617894dc39d45a28b97afa4f8152f35b50346101a357806003193601126101a3576103ca6040517f6465706c6f7920612066616b652041434f20746f6b656e207468617420616c7360208201527f6f207365727665732061732066616b6520636f6c6c61746572616c3b2000000060408201527f63616c6c2077726974652866616b65546f6b656e2c20312c2061747461636b65605d8201527f722d636f6e74726f6c6c65642065786368616e67652c20222229207769746820607d8201527503a34329036b4b734b6bab69022aa241039b2b2b21d960551b609d8201527f5f73656c6c41434f546f6b656e732829207468656e207472757374732073747260b38201527f696b6541737365742829206f6e207468652066616b6520746f6b656e20616e6460d38201527f207472616e7366657273207468652077726974657227732066756c6c2062616c60f382015264030b731b2960dd1b6101138201527f6f66207468617420616c72656164792d6c697665206f6e2d636861696e20746f6101188201527235b2b7103a37903a34329030ba3a30b1b5b2b960691b61013882015261012b81526103b661014b82610aaf565b604051918291602083526020830190610ae5565b0390f35b50346101a35760203660031901126101a35760206040516004358152f35b50346101a357806003193601126101a35760405190806001549061040f82610a77565b80855291600181169081156104815750600114610437575b6103ca846103b681860382610aaf565b600181525f5160206134685f395f51905f52939250905b808210610467575090915081016020016103b682610427565b91926001816020925483858801015201910190929161044e565b60ff191660208087019190915292151560051b850190920192506103b69150839050610427565b5060203660031901126101a3576104bd610a18565b5080f35b610a44565b50346101a357806003193601126101a35760206040515f198152f35b50346101a357806003193601126101a357602060405160038152f35b50346101a357806003193601126101a357602060405160058152f35b50346101a35760203660031901126101a357602090610537610a18565b50604051908152f35b50346101a357806003193601126101a357602061055b6112fd565b9050604051908152f35b50346101a357806003193601126101a357602060405160048152f35b50346101a357806003193601126101a3576020600254604051908152f35b50346101a357806003193601126101a35760ff6020915460101c166040519015158152f35b50346101a357806003193601126101a35760206105df6112fd565b506040516001600160a01b039091168152f35b50346101a357806003193601126101a35760ff6020915460081c166040519015158152f35b50346101a35760403660031901126101a3576104bd610a18565b50346101a357806003193601126101a35761064a610b09565b80f35b50346101a35760603660031901126101a357610667610a18565b50610670610a2e565b50602060405160018152f35b50346101a357806003193601126101a35760ff6020915416604051908152f35b50346101a357806003193601126101a35760035460405160109190911c6001600160a01b03168152602090f35b5034610965576080366003190112610965576106e3610a18565b5060243560643567ffffffffffffffff8111610965573660238201121561096557806004013567ffffffffffffffff811161096557369101602401116109655773b4e16d0168e52d35cacd2c6185b44281ec28c9dc331480156109e2575b156109ab5780156109a2575b801561096957600147106108f6575b610764610c92565b61076c610d17565b600381028181046003036108e2576103e5900490600182018092116108e2579061079591610d72565b8061079f3061199c565b106108d4575b806107af3061199c565b1061089757818091604051602081019163a9059cbb60e01b83523360248301526044820152604481526107e3606482610aaf565b5190825f5160206133e85f395f51905f525af16107fe610f19565b8161085b575b5015610824576002546108145780f35b805461ffff191661010217815580f35b60405162461bcd60e51b815260206004820152600f60248201526e1d1c985b9cd9995c8819985a5b1959608a1b6044820152606490fd5b8051801592508215610870575b50505f610804565b819250906020918101031261089357602001518015158103610893575f80610868565b5080fd5b60405162461bcd60e51b815260206004820152601560248201527472657061796d656e7420756e617661696c61626c6560581b6044820152606490fd5b6108dd81611ae2565b6107a5565b634e487b7160e01b83526011600452602483fd5b5f5160206133e85f395f51905f523b1561096557604051632e1a7d4d60e01b8152600160048201525f81602481835f5160206133e85f395f51905f525af1801561095a57610945575b5061075c565b6109529192505f90610aaf565b5f905f61093f565b6040513d5f823e3d90fd5b5f80fd5b60405162461bcd60e51b81526020600482015260116024820152701d5b995e1c1958dd195908185b5bdd5b9d607a1b6044820152606490fd5b5060443561074d565b60405162461bcd60e51b815260206004820152600f60248201526e3ab732bc3832b1ba32b2103830b4b960891b6044820152606490fd5b5073397ff1542f962076d0bfe58ea045ffa2d347aca03314610741565b34610965575f3660031901126109655780600260209252f35b600435906001600160a01b038216820361096557565b602435906001600160a01b038216820361096557565b3461096557604036600319011261096557610670610a18565b34610965575f366003190112610965576020604051308152f35b90600182811c92168015610aa5575b6020831014610a9157565b634e487b7160e01b5f52602260045260245ffd5b91607f1691610a86565b90601f8019910116810190811067ffffffffffffffff821117610ad157604052565b634e487b7160e01b5f52604160045260245ffd5b805180835260209291819084018484015e5f828201840152601f01601f1916010190565b60035460ff8116610c595760ff600181198316178060035560081c1615610be2575b50610b34610da4565b15610bcb57610b41610e45565b610b9657610b4d610f58565b8015610b88575b1580610b7c575b610b6c575b60ff1960035416600355565b600460ff195f5416175f55610b60565b5060ff5f541615610b5b565b50610b91611152565b610b54565b610b9e610c92565b610ba6610d17565b600254610bb95760ff1960035416600355565b61010161ffff195f5416175f55610b60565b600360ff195f5416175f5560ff1960035416600355565b61ffff191661010117600355610bf6611c51565b5f5b60198110610c065750610b2b565b6001906001600160a01b03610c1b8285610d93565b511680151580610c4f575b610c32575b5001610bf8565b610c3c3082611a90565b905f52600560205260405f20555f610c2b565b50803b1515610c26565b50565b906010811015610c6d5760051b0190565b634e487b7160e01b5f52603260045260245ffd5b906009811015610c6d5760051b0190565b610c9a61136a565b5f5b60108110610cf2575050610cae6117ee565b5f5b60098110610cbc575050565b600190610cec610ce76001600160a01b03610cd78487610c81565b5116610ce281611509565b6118ec565b611509565b01610cb0565b600190610d116001600160a01b03610d0a8386610c5c565b5116611509565b01610c9c565b4780610d205750565b5f5160206133e85f395f51905f523b15610965575f60049160405192838092630d0e30db60e41b82525f5160206133e85f395f51905f525af1801561095a57610d665750565b5f610d7091610aaf565b565b91908201809211610d7f57565b634e487b7160e01b5f52601160045260245ffd5b906019811015610c6d5760051b0190565b610dac61136a565b5f5b60108110610e1d575050610dc06117ee565b5f5b60098110610dd05750505f90565b6001600160a01b03610de28284610c81565b5116610ded81611a27565b610e1557610dfd610e02916118ec565b611a27565b610e0e57600101610dc2565b5050600190565b505050600190565b610e396001600160a01b03610e328385610c5c565b5116611a27565b610e0e57600101610dae565b5f6001471015610ec6576001610e5a3061199c565b1015610e635790565b505f5160206133e85f395f51905f523b1561096557604051632e1a7d4d60e01b8152600160048201525f81602481835f5160206133e85f395f51905f525af1801561095a57610eb6575b50600147101590565b5f610ec091610aaf565b5f610ead565b50600190565b9081602091031261096557516001600160a01b03811681036109655790565b9092608092610f1695948352602083015260018060a01b031660408201528160608201520190610ae5565b90565b3d15610f53573d9067ffffffffffffffff8211610ad15760405191610f48601f8201601f191660200184610aaf565b82523d5f602084013e565b606090565b73b4e16d0168e52d35cacd2c6185b44281ec28c9dc3b1561114e57604051630dfe168160e01b815260208160048173b4e16d0168e52d35cacd2c6185b44281ec28c9dc5afa90811561095a575f9161112f575b5060405163d21220a760e01b81529060208260048173b4e16d0168e52d35cacd2c6185b44281ec28c9dc5afa91821561095a575f926110ef575b506001600160a01b03165f5160206133e85f395f51905f52148015806110cf575b6110c9575f918291156110b4575f5160206133e85f395f51905f526001915b6001600160a01b03161482146110ad576001905b611087604051916001602084015260208352611056604084610aaf565b611079604051938492602084019663022c0d9f60e01b8852309160248601610eeb565b03601f198101835282610aaf565b51908273b4e16d0168e52d35cacd2c6185b44281ec28c9dc5af16110a9610f19565b5090565b8190611039565b5f5160206133e85f395f51905f528291611025565b50505f90565b506001600160a01b0382165f5160206133e85f395f51905f521415611006565b5f5160206133e85f395f51905f529192506111219060203d602011611128575b6111198183610aaf565b810190610ecc565b9190610fe5565b503d61110f565b611148915060203d602011611128576111198183610aaf565b5f610fab565b5f90565b73397ff1542f962076d0bfe58ea045ffa2d347aca03b1561114e57604051630dfe168160e01b815260208160048173397ff1542f962076d0bfe58ea045ffa2d347aca05afa90811561095a575f916112de575b5060405163d21220a760e01b81529060208260048173397ff1542f962076d0bfe58ea045ffa2d347aca05afa91821561095a575f926112ae575b506001600160a01b03165f5160206133e85f395f51905f521480158061128e575b6110c9575f91829115611279575f5160206133e85f395f51905f526001915b6001600160a01b0316148214611272576001905b611250604051916001602084015260208352611056604084610aaf565b51908273397ff1542f962076d0bfe58ea045ffa2d347aca05af16110a9610f19565b8190611233565b5f5160206133e85f395f51905f52829161121f565b506001600160a01b0382165f5160206133e85f395f51905f521415611200565b5f5160206133e85f395f51905f529192506112d79060203d602011611128576111198183610aaf565b91906111df565b6112f7915060203d602011611128576111198183610aaf565b5f6111a5565b611305611c51565b905f5160206133e85f395f51905f5261131c611ee3565b925f5b6019811061132d5750509190565b6001600160a01b0361133f8284610d93565b511661134a81611f59565b9086821161135d575b505060010161131f565b909550925060015f611353565b6040519061020061137b8184610aaf565b36833773090185f2135308bad17527004364ebcc2d37e5f66101e0835f5160206133e85f395f51905f5281525f5160206134085f395f51905f5260208201525f5160206134285f395f51905f5260408201525f5160206134485f395f51905f526060820152732260fac5e5542a773aa44fbcfedf7c193bc2c599608082015273514910771af9ca656af840dff83e8264ecf986ca60a0820152737fc66500c84a76ad7e9c93437bfc5ac33e2ddae960c082015273d533a949740bb3306d119cc777fa900ba034cd5260e082015273c011a72400e58ecd99ee497cf89e3775d4bd732f610100820152739f8f72aa9304c8b593d555f12ef6589cc3a579a2610120820152730bc529c00c6401aef6d220be8c6ea1667f6ad93e61014082015273ba100000625a3754423978a60c9317c58a424e3d61016082015273956f47f50a910163d8bf957cf5846d573e7f87ca6101808201527303ab458634910aad20ef5f1c8ee96f1d6ac549196101a0820152730391d2021f89dc339f60fff84546ea23e337750f6101c08201520152565b5f91906001600160a01b038116801580156117e5575b80156117cf575b6117c9575f52600460205260405f20600160ff1982541617905561154981611a27565b156117c4575f80546301000000600160b81b031916601883901b6301000000600160b81b03161790556003805462010000600160b01b03191660109290921b62010000600160b01b0316919091179055604051602092906115aa8482610aaf565b5f815273e7597f774fd0a15a617894dc39d45a28b97afa4f3b15610965575f6116029160405180938192631c86323b60e01b835230600484015260016024840152306044840152608060648401526084830190610ae5565b0381600173e7597f774fd0a15a617894dc39d45a28b97afa4f5af190816117af575b5061177857611631610f19565b9081519167ffffffffffffffff83116117645761164f600154610a77565b601f81116116fd575b508491601f8411600114611691578394955092611686575b50508160011b915f199060031b1c191617600155565b015190505f80611670565b60018152601f198416955f5160206134685f395f51905f52939291905b8782106116e55750508360019596106116cd575b505050811b01600155565b01515f1960f88460031b161c191690555f80806116c2565b806001859682949686015181550195019301906116ae565b60018352601f840160051c5f5160206134685f395f51905f52019086851061174f575b601f0160051c5f5160206134685f395f51905f5201905b8181106117445750611658565b838155600101611737565b5f5160206134685f395f51905f529150611720565b634e487b7160e01b82526041600452602482fd5b9091506002545f19811461179b57600101600255805461ff001916610100179055565b634e487b7160e01b82526011600452602482fd5b6117bc9192505f90610aaf565b5f905f611624565b509050565b50509050565b50805f52600460205260ff60405f205416611526565b50813b1561151f565b604051906101206117ff8184610aaf565b36833773c12d099be31567add4e4e4d0d45691c3f58f56636101008373b05b83f1aab0036f9dadfdb18405da3d459c1f1c815273160e753eefe29ea3ac186bf27588ac9aca2f6139602082015273ff5b7c52245625b399d2e2927f52a8da86264a33604082015273c3eab6960e0cd51dcf304248e4bbb08d8eeab5526060820152739b297790cd8540876a04543499528835f1cea17560808201527358ea371c3d7bca0ed0c3a4e4dc9bb9270231048960a082015273b51a09c53d7cc6481e4c5d9d8d334a6e50776ecf60c082015273049d17c3d5ba37429de4d414a603127f1090ffa760e08201520152565b6001600160a01b038116158015611993575b611983575f809160405160208101906302fad37960e31b825260048152611926602482610aaf565b51915afa611932610f19565b90158015611988575b6119835760208180518101031261096557602001516001600160a01b0381169190829003610965578115828115611979575b5061197457565b5f9150565b90503b155f61196d565b505f90565b50602081511061193b565b50803b156118fe565b5f5160206133e85f395f51905f523b15611983575f809160405160208101916370a0823160e01b835260018060a01b03166024820152602481526119e1604482610aaf565b51905f5160206133e85f395f51905f525afa6119fb610f19565b90158015611a1c575b61198357602081805181010312610965576020015190565b506020815110611a04565b6001600160a01b038116158015611a87575b611983575f809160405160208101906370a0823160e01b825273e7597f774fd0a15a617894dc39d45a28b97afa4f602482015260248152611a7b604482610aaf565b51915afa6119fb610f19565b50803b15611a39565b906001600160a01b038216158015611ad9575b6110c9575f91829160405160208101916370a0823160e01b835260018060a01b0316602482015260248152611a7b604482610aaf565b50813b15611aa3565b611aea610d17565b80611af43061199c565b1015610c5957611b02611fa6565b80611b0c3061199c565b1015610c5957611b1a611ff0565b80611b243061199c565b1015610c5957611b3261203a565b80611b3c3061199c565b1015610c5957611b4a612084565b80611b543061199c565b1015610c5957611b626120e3565b80611b6c3061199c565b1015610c5957611b7a612142565b80611b843061199c565b1015610c5957611b926121a1565b80611b9c3061199c565b1015610c5957611baa612200565b80611bb43061199c565b1015610c5957611bc261225f565b80611bcc3061199c565b1015610c5957611bda6122be565b80611be43061199c565b1015610c5957611bf261231d565b80611bfc3061199c565b1015610c5957611c0a61237c565b80611c143061199c565b1015610c5957611c226123db565b80611c2c3061199c565b1015610c5957611c3a61243a565b611c433061199c565b1015610d7057610d70612499565b60405190610320611c628184610aaf565b36833773c12d099be31567add4e4e4d0d45691c3f58f5663610300835f5160206133e85f395f51905f5281525f5160206134085f395f51905f5260208201525f5160206134285f395f51905f5260408201525f5160206134485f395f51905f526060820152732260fac5e5542a773aa44fbcfedf7c193bc2c599608082015273514910771af9ca656af840dff83e8264ecf986ca60a0820152737fc66500c84a76ad7e9c93437bfc5ac33e2ddae960c082015273d533a949740bb3306d119cc777fa900ba034cd5260e082015273c011a72400e58ecd99ee497cf89e3775d4bd732f610100820152739f8f72aa9304c8b593d555f12ef6589cc3a579a2610120820152730bc529c00c6401aef6d220be8c6ea1667f6ad93e61014082015273ba100000625a3754423978a60c9317c58a424e3d61016082015273956f47f50a910163d8bf957cf5846d573e7f87ca6101808201527303ab458634910aad20ef5f1c8ee96f1d6ac549196101a0820152730391d2021f89dc339f60fff84546ea23e337750f6101c082015273090185f2135308bad17527004364ebcc2d37e5f66101e082015273b05b83f1aab0036f9dadfdb18405da3d459c1f1c61020082015273160e753eefe29ea3ac186bf27588ac9aca2f613961022082015273ff5b7c52245625b399d2e2927f52a8da86264a3361024082015273c3eab6960e0cd51dcf304248e4bbb08d8eeab552610260820152739b297790cd8540876a04543499528835f1cea1756102808201527358ea371c3d7bca0ed0c3a4e4dc9bb927023104896102a082015273b51a09c53d7cc6481e4c5d9d8d334a6e50776ecf6102c082015273049d17c3d5ba37429de4d414a603127f1090ffa76102e08201520152565b5f5160206133e85f395f51905f523b1561114e57611f0e305f5160206133e85f395f51905f52611a90565b5f5160206133e85f395f51905f525f5260056020527fa550ba85c46b24b567d2e17cd597f2283877afab43603f46d5de7858f1bdb73154808211156110c9578103908111610d7f5790565b6001600160a01b0381169081158015611f9d575b6110c957611f7c903090611a90565b905f52600560205260405f2054808211156110c9578103908111610d7f5790565b50803b15611f6d565b5f5160206134085f395f51905f523b15610d7057611fd1305f5160206134085f395f51905f52611a90565b80611fd95750565b610d70905f5160206134085f395f51905f526124f4565b5f5160206134285f395f51905f523b15610d705761201b305f5160206134285f395f51905f52611a90565b806120235750565b610d70905f5160206134285f395f51905f526124f4565b5f5160206134485f395f51905f523b15610d7057612065305f5160206134485f395f51905f52611a90565b8061206d5750565b610d70905f5160206134485f395f51905f526124f4565b732260fac5e5542a773aa44fbcfedf7c193bc2c5993b15610d70576120bd30732260fac5e5542a773aa44fbcfedf7c193bc2c599611a90565b806120c55750565b610d7090732260fac5e5542a773aa44fbcfedf7c193bc2c5996124f4565b73514910771af9ca656af840dff83e8264ecf986ca3b15610d705761211c3073514910771af9ca656af840dff83e8264ecf986ca611a90565b806121245750565b610d709073514910771af9ca656af840dff83e8264ecf986ca6124f4565b737fc66500c84a76ad7e9c93437bfc5ac33e2ddae93b15610d705761217b30737fc66500c84a76ad7e9c93437bfc5ac33e2ddae9611a90565b806121835750565b610d7090737fc66500c84a76ad7e9c93437bfc5ac33e2ddae96124f4565b73d533a949740bb3306d119cc777fa900ba034cd523b15610d70576121da3073d533a949740bb3306d119cc777fa900ba034cd52611a90565b806121e25750565b610d709073d533a949740bb3306d119cc777fa900ba034cd526124f4565b73c011a72400e58ecd99ee497cf89e3775d4bd732f3b15610d70576122393073c011a72400e58ecd99ee497cf89e3775d4bd732f611a90565b806122415750565b610d709073c011a72400e58ecd99ee497cf89e3775d4bd732f6124f4565b739f8f72aa9304c8b593d555f12ef6589cc3a579a23b15610d705761229830739f8f72aa9304c8b593d555f12ef6589cc3a579a2611a90565b806122a05750565b610d7090739f8f72aa9304c8b593d555f12ef6589cc3a579a26124f4565b730bc529c00c6401aef6d220be8c6ea1667f6ad93e3b15610d70576122f730730bc529c00c6401aef6d220be8c6ea1667f6ad93e611a90565b806122ff5750565b610d7090730bc529c00c6401aef6d220be8c6ea1667f6ad93e6124f4565b73ba100000625a3754423978a60c9317c58a424e3d3b15610d70576123563073ba100000625a3754423978a60c9317c58a424e3d611a90565b8061235e5750565b610d709073ba100000625a3754423978a60c9317c58a424e3d6124f4565b73956f47f50a910163d8bf957cf5846d573e7f87ca3b15610d70576123b53073956f47f50a910163d8bf957cf5846d573e7f87ca611a90565b806123bd5750565b610d709073956f47f50a910163d8bf957cf5846d573e7f87ca6124f4565b7303ab458634910aad20ef5f1c8ee96f1d6ac549193b15610d7057612414307303ab458634910aad20ef5f1c8ee96f1d6ac54919611a90565b8061241c5750565b610d70907303ab458634910aad20ef5f1c8ee96f1d6ac549196124f4565b730391d2021f89dc339f60fff84546ea23e337750f3b15610d705761247330730391d2021f89dc339f60fff84546ea23e337750f611a90565b8061247b5750565b610d7090730391d2021f89dc339f60fff84546ea23e337750f6124f4565b73090185f2135308bad17527004364ebcc2d37e5f63b15610d70576124d23073090185f2135308bad17527004364ebcc2d37e5f6611a90565b806124da5750565b610d709073090185f2135308bad17527004364ebcc2d37e5f65b90801580156127dc575b6127d85761251a815f5160206133e85f395f51905f52846127fb565b612532825f5160206133e85f395f51905f5285612973565b61254a835f5160206133e85f395f51905f5286612a11565b90612563845f5160206133e85f395f51905f5287612aa8565b92838282101591826127cd575b826127c2575b50506125e657828282101591826125db575b50506125c25710156125ab575f5160206133e85f395f51905f52610d7092612dad565b5f5160206133e85f395f51905f52610d7092612c7c565b50505f5160206133e85f395f51905f52610d7092612b3f565b10159050825f612588565b505060405163e6a4390560e01b81526001600160a01b038416600482018190525f5160206133e85f395f51905f5260248301529390929150602083604481735c69bee701ef814a2b6a3edd4b1652cb9cc5aa6f5afa92831561095a575f936127a1575b506040519363e6a4390560e01b855260048501525f5160206133e85f395f51905f52602485015260208460448173c0aee478e3658e2610c5f7a4a2e1777ce9e4f2ac5afa93841561095a575f94612780575b505f9384936001600160a01b038116151580612776575b612745575b506001600160a01b03811615158061273b575b612708575b506001600160a01b0384161515806126ff575b6126ed575b50505050565b6126f693613129565b5f8080806126e7565b508215156126e2565b612721835f5160206133e85f395f51905f528484612ef2565b84811161272f575b506126cf565b90945092505f80612729565b50803b15156126ca565b61275e845f5160206133e85f395f51905f528584612ef2565b8061276a575b506126b7565b90955093505f80612764565b50803b15156126b2565b61279a91945060203d602011611128576111198183610aaf565b925f61269b565b6127bb91935060203d602011611128576111198183610aaf565b915f612649565b10159050835f612576565b848110159250612570565b5050565b506001600160a01b0382165f5160206133e85f395f51905f52146124fe565b60405163e6a4390560e01b81526001600160a01b038281166004830152831660248201525f949390929091602084604481735c69bee701ef814a2b6a3edd4b1652cb9cc5aa6f5afa93841561095a575f94612952575b5060405163e6a4390560e01b81526001600160a01b038281166004830152831660248201529360208560448173c0aee478e3658e2610c5f7a4a2e1777ce9e4f2ac5afa94851561095a575f95612931575b508383836001600160a01b038416151580612927575b612908575b505050506001600160a01b0384161515806128fe575b6128dd5750505050565b6128e693612ef2565b8281116128f6575b8080806126e7565b91505f6128ee565b50833b15156128d3565b61291193612ef2565b8061291f575b8383836128bd565b95505f612917565b50833b15156128b8565b61294b91955060203d602011611128576111198183610aaf565b935f6128a2565b61296c91945060203d602011611128576111198183610aaf565b925f612851565b90916001600160a01b0382165f5160206134285f395f51905f5281149081156129f1575b81156129de575b506129d7575f5160206134285f395f51905f526129ba926127fb565b80156110c957610f16915f5160206134285f395f51905f526127fb565b5050505f90565b6001600160a01b0385161490505f61299e565b5f5160206134285f395f51905f526001600160a01b038616149150612997565b90916001600160a01b0382165f5160206134485f395f51905f528114908115612a88575b8115612a75575b506129d7575f5160206134485f395f51905f52612a58926127fb565b80156110c957610f16915f5160206134485f395f51905f526127fb565b6001600160a01b0385161490505f612a3c565b5f5160206134485f395f51905f526001600160a01b038616149150612a35565b90916001600160a01b0382165f5160206134085f395f51905f528114908115612b1f575b8115612b0c575b506129d7575f5160206134085f395f51905f52612aef926127fb565b80156110c957610f16915f5160206134085f395f51905f526127fb565b6001600160a01b0385161490505f612ad3565b5f5160206134085f395f51905f526001600160a01b038616149150612acc565b9091906001600160a01b0381165f5160206134285f395f51905f528114908115612c5c575b8115612c49575b50612c3d57612b88825f5160206134285f395f51905f528361326e565b916001600160a01b038316156126e757612bb1815f5160206134285f395f51905f528486612ef2565b918215612c4257612bc193613129565b612bd8305f5160206134285f395f51905f52611a90565b80156127d857612bf681835f5160206134285f395f51905f5261326e565b916001600160a01b03831615612c3d5781612c1f915f5160206134285f395f51905f5285612ef2565b908115612c3d575f5160206134285f395f51905f52610d7093613129565b505050565b5050505050565b6001600160a01b0385161490505f612b6b565b5f5160206134285f395f51905f526001600160a01b038616149150612b64565b9091906001600160a01b0381165f5160206134485f395f51905f528114908115612d8d575b8115612d7a575b50612c3d57612cc5825f5160206134485f395f51905f528361326e565b916001600160a01b038316156126e757612cee815f5160206134485f395f51905f528486612ef2565b918215612c4257612cfe93613129565b612d15305f5160206134485f395f51905f52611a90565b80156127d857612d3381835f5160206134485f395f51905f5261326e565b916001600160a01b03831615612c3d5781612d5c915f5160206134485f395f51905f5285612ef2565b908115612c3d575f5160206134485f395f51905f52610d7093613129565b6001600160a01b0385161490505f612ca8565b5f5160206134485f395f51905f526001600160a01b038616149150612ca1565b9091906001600160a01b0381165f5160206134085f395f51905f528114908115612ebe575b8115612eab575b50612c3d57612df6825f5160206134085f395f51905f528361326e565b916001600160a01b038316156126e757612e1f815f5160206134085f395f51905f528486612ef2565b918215612c4257612e2f93613129565b612e46305f5160206134085f395f51905f52611a90565b80156127d857612e6481835f5160206134085f395f51905f5261326e565b916001600160a01b03831615612c3d5781612e8d915f5160206134085f395f51905f5285612ef2565b908115612c3d575f5160206134085f395f51905f52610d7093613129565b6001600160a01b0385161490505f612dd9565b5f5160206134085f395f51905f526001600160a01b038616149150612dd2565b51906001600160701b038216820361096557565b604051630dfe168160e01b8152926001600160a01b0390911691602084600481865afa93841561095a575f94613108575b5060405163d21220a760e01b815290602082600481875afa91821561095a575f926130e7575b506001600160a01b039485169416848114948593846130d1575b84156130a0575b50505050156129d757606060049160405192838092630240bc6b60e21b82525afa91821561095a575f915f93613045575b5015613031576001600160701b038091169116915b8115808015613029575b613021576103e58202918083046103e51481151715610d7f57846103e5910202938285041482151715610d7f576103e883029283046103e8141715610d7f5761300291610d72565b90811561300d570490565b634e487b7160e01b5f52601260045260245ffd5b505050505f90565b508315612fba565b906001600160701b03809116911691612fb0565b915091506060813d606011613098575b8161306260609383610aaf565b810103126109655761307381612ede565b604061308160208401612ede565b92015163ffffffff8116036109655790915f612f9b565b3d9150613055565b6001600160a01b031614925090826130be575b50505f808080612f6a565b6001600160a01b03161490505f806130b3565b6001600160a01b03848116908216149450612f63565b61310191925060203d602011611128576111198183610aaf565b905f612f49565b61312291945060203d602011611128576111198183610aaf565b925f612f23565b5f8091604051602081019163a9059cbb60e01b835260018060a01b031695866024830152604482015260448152613161606482610aaf565b519082855af161316f610f19565b81613236575b501561082457604051630dfe168160e01b815290602082600481865afa91821561095a575f92613215575b506001600160a01b0391821691160361320e575f91905b604051906131c6602083610aaf565b5f808352366020840137803b15610965576131fd935f80946040519687958694859363022c0d9f60e01b8552309160048601610eeb565b03925af1801561095a57610d665750565b5f906131b7565b61322f91925060203d602011611128576111198183610aaf565b905f6131a0565b805180159250821561324b575b50505f613175565b819250906020918101031261096557602001518015158103610965575f80613243565b60405163e6a4390560e01b81526001600160a01b038281166004830152831660248201525f9493909190602083604481735c69bee701ef814a2b6a3edd4b1652cb9cc5aa6f5afa92831561095a575f936133c6575b5060405163e6a4390560e01b81526001600160a01b038381166004830152851660248201529360208560448173c0aee478e3658e2610c5f7a4a2e1777ce9e4f2ac5afa94851561095a575f956133a5575b505f936001600160a01b03811615158061339b575b613377575b506001600160a01b03851615158061336d575b61334c575050505050565b6133569285612ef2565b11613365575b80808080612c42565b91505f61335c565b50843b1515613341565b61338383838684612ef2565b8061338f575b5061332e565b90975093505f80613389565b50803b1515613329565b6133bf91955060203d602011611128576111198183610aaf565b935f613314565b6133e091935060203d602011611128576111198183610aaf565b915f6132c356fe000000000000000000000000c02aaa39b223fe8d0a0e5c4f27ead9083c756cc20000000000000000000000006b175474e89094c44da98b954eedeac495271d0f000000000000000000000000a0b86991c6218b36c1d19d4a2e9eb0ce3606eb48000000000000000000000000dac17f958d2ee523a2206206994597c13d831ec7b10e2d527612073b26eecdfd717e6a320cf44b4afac2b0732d9fcbe2b7fa0cf6a2646970667358221220dcaf2f6d0065c7bdf36a37d6a775f98ddadb8ef6d04ef8a1b27c129b8ef7c72a64736f6c634300081e0033","linkReferences":{}},"methodIdentifiers":{"STATUS_DIRECT_SUCCESS()":"cd1441dd","STATUS_FLASH_FAILED()":"5bf5fc54","STATUS_FLASH_SUCCESS()":"05f5b76d","STATUS_NO_REPAY_PATH()":"7af65c86","STATUS_NO_WRITER_BALANCE()":"84253d73","STATUS_UNSET()":"f29a0bf2","TARGET()":"cc1f2afa","approve(address,uint256)":"095ea7b3","attackerExchange()":"9f99c11f","balanceOf(address)":"70a08231","collateral()":"d8dfeb45","executeOnOpportunity()":"3c2448ed","expiryTime()":"99bc0aea","exploitPath()":"cb707c62","fakeAcoToken()":"4b4099a4","fakeCollateral()":"0e253c46","getTokenAmount(uint256)":"c2507ac1","hypothesisRefuted()":"495f92f1","hypothesisValidated()":"463defd1","lastTargetToken()":"f75971d5","lastWriteFailure()":"bc473438","mintTo(address,uint256)":"449a52f8","mintToPayable(address)":"b0df1cc7","profitAmount()":"5ff972cc","profitToken()":"49343624","status()":"200d2ed2","strikeAsset()":"17d69bc8","successfulSweeps()":"4d509133","transfer(address,uint256)":"a9059cbb","transferFrom(address,address,uint256)":"23b872dd","uniswapV2Call(address,uint256,uint256,bytes)":"10d1e85c"},"id":0}