{"abi":[{"type":"constructor","inputs":[],"stateMutability":"nonpayable"},{"type":"function","name":"TARGET","inputs":[],"outputs":[{"name":"","type":"address","internalType":"address"}],"stateMutability":"view"},{"type":"function","name":"executeOnOpportunity","inputs":[],"outputs":[],"stateMutability":"nonpayable"},{"type":"function","name":"executeWithInventory","inputs":[{"name":"baseUnderlyingIndex","type":"uint8","internalType":"uint8"},{"name":"susdAmount","type":"uint256","internalType":"uint256"}],"outputs":[],"stateMutability":"nonpayable"},{"type":"function","name":"profitAmount","inputs":[],"outputs":[{"name":"","type":"uint256","internalType":"uint256"}],"stateMutability":"view"},{"type":"function","name":"profitToken","inputs":[],"outputs":[{"name":"","type":"address","internalType":"address"}],"stateMutability":"view"},{"type":"function","name":"startFlash","inputs":[{"name":"baseUnderlyingIndex","type":"uint8","internalType":"uint8"},{"name":"pair","type":"address","internalType":"address"},{"name":"borrowAmount","type":"uint256","internalType":"uint256"}],"outputs":[],"stateMutability":"nonpayable"},{"type":"function","name":"uniswapV2Call","inputs":[{"name":"sender","type":"address","internalType":"address"},{"name":"amount0","type":"uint256","internalType":"uint256"},{"name":"amount1","type":"uint256","internalType":"uint256"},{"name":"","type":"bytes","internalType":"bytes"}],"outputs":[],"stateMutability":"nonpayable"}],"bytecode":{"object":"0x60808060405234601557612e7c908161001a8239f35b5f80fdfe60806040526004361015610011575f80fd5b5f5f3560e01c806305d3db89146109b357806310d1e85c14610503578063296aaef6146100f95780633c2448ed146100dd57806349343624146100b65780635ff972cc146100985763cc1f2afa14610067575f80fd5b34610095578060031936011261009557602060405173824dcd7b044d60df2e89b1bb888e66d8bcf414918152f35b80fd5b50346100955780600319360112610095576020600154604051908152f35b5034610095578060031936011261009557546040516001600160a01b039091168152602090f35b50346100955780600319360112610095576100f6610e2a565b80f35b503461037257606036600319011261037257610113610bcc565b6024356001600160a01b038116908190036103725760443591610137303314610bdc565b811515806104fa575b156104c45760045460ff8160081c1661048f5761016461015f836113e9565b610c14565b604051630dfe168160e01b8152602081600481875afa8015610367575f516020612e275f395f51905f52915f91610470575b506001600160a01b031614801561040e575b156103d957600280546001600160a01b031916841790556040516370a0823160e01b81523060048201526020816024815f516020612e275f395f51905f525afa908115610367575f916103a5575b506101009260ff91600355169061ffff1916171760045560405191630dfe168160e01b8352602083600481855afa9283156103675784935f516020612e275f395f51905f52915f91610376575b506001600160a01b0316036102f757604051600160208201526020815261026b604082610cb9565b823b156102f2576102979284928360405180968195829463022c0d9f60e01b8452309060048501610dfc565b03925af180156102e7576102d2575b50505b6bffffffffffffffffffffffff60a01b600254166002558060035561ffff196004541660045580f35b816102dc91610cb9565b61009557805f6102a6565b6040513d84823e3d90fd5b505050fd5b9091506040516001602082015260208152610313604082610cb9565b823b156103725761033f925f928360405180968195829463022c0d9f60e01b8452309060048501610dcf565b03925af1801561036757610354575b506102a9565b61036091505f90610cb9565b5f5f61034e565b6040513d5f823e3d90fd5b5f80fd5b610398915060203d60201161039e575b6103908183610cb9565b810190610d8c565b5f610243565b503d610386565b90506020813d6020116103d1575b816103c060209383610cb9565b8101031261037257516101006101f6565b3d91506103b3565b60405162461bcd60e51b815260206004820152600d60248201526c0a08292a4be9a92a69a82a8869609b1b6044820152606490fd5b5060405163d21220a760e01b8152602081600481875afa8015610367575f516020612e275f395f51905f52915f91610451575b506001600160a01b0316146101a8565b61046a915060203d60201161039e576103908183610cb9565b5f610441565b610489915060203d60201161039e576103908183610cb9565b5f610196565b60405162461bcd60e51b815260206004820152600d60248201526c43414c4c4241434b5f4255535960981b6044820152606490fd5b60405162461bcd60e51b815260206004820152600e60248201526d2120a22fa32620a9a42fa82620a760911b6044820152606490fd5b50821515610140565b34610372576080366003190112610372576004356001600160a01b038116908190036103725760243560643567ffffffffffffffff8111610372573660238201121561037257806004013567ffffffffffffffff81116103725736910160240111610372576004549160ff8360081c1615610980576002546001600160a01b0316330361094957300361091057801561090657905b81156108cc576040516370a0823160e01b81523060048201526020816024815f516020612e275f395f51905f525afa8015610367575f90610898575b6105e2915060035490610d5e565b801561085e5761060260ff61061a9316916105fc83611415565b926114af565b9061060e821515610cea565b60ff600454169061161d565b156108255761062890611c2f565b6040516370a0823160e01b81523060048201526020816024815f516020612e275f395f51905f525afa908115610367575f916107f3575b5061066c82600354610d7f565b116107be5760025460405163a9059cbb60e01b602082019081526001600160a01b03909216602482015260448101929092526106de915f9182916106bd81606481015b03601f198101835282610cb9565b5190825f516020612e275f395f51905f525af16106d8611c57565b906124de565b15610787576040516370a0823160e01b81523060048201526020816024815f516020612e275f395f51905f525afa8015610367575f90610753575b60035461074e9161072b828211610d24565b5f80546001600160a01b0319165f516020612e275f395f51905f52179055610d5e565b600155005b506020813d60201161077f575b8161076d60209383610cb9565b810103126103725761074e9051610719565b3d9150610760565b60405162461bcd60e51b815260206004820152600f60248201526e1514905394d1915497d19052531151608a1b6044820152606490fd5b60405162461bcd60e51b815260206004820152600d60248201526c1393d7d3915517d41493d19255609a1b6044820152606490fd5b90506020813d60201161081d575b8161080e60209383610cb9565b8101031261037257518261065f565b3d9150610801565b60405162461bcd60e51b81526020600482015260116024820152701393d7d4d554d117d49150d3d591549151607a1b6044820152606490fd5b60405162461bcd60e51b81526020600482015260126024820152711393d7d093d49493d5d7d49150d15255915160721b6044820152606490fd5b506020813d6020116108c4575b816108b260209383610cb9565b81010312610372576105e290516105d4565b3d91506108a5565b60405162461bcd60e51b81526020600482015260126024820152711393d7d093d49493d5d15117d05353d5539560721b6044820152606490fd5b5060443590610598565b60405162461bcd60e51b81526020600482015260116024820152702aa722ac2822a1aa22a22fa9a2a72222a960791b6044820152606490fd5b60405162461bcd60e51b815260206004820152600f60248201526e2aa722ac2822a1aa22a22fa820a4a960891b6044820152606490fd5b60405162461bcd60e51b815260206004820152600b60248201526a4e4f5f43414c4c4241434b60a81b6044820152606490fd5b34610372576040366003190112610372576109cc610bcc565b602435906109db303314610bdc565b6109e761015f826113e9565b8115610b9b576040516370a0823160e01b8152306004820152916020836024815f516020612e275f395f51905f525afa928315610367575f93610b67575b50808310610b2e57610a5982610a3d610a5f94611415565b90610a4884826114af565b91610a54831515610cea565b61161d565b11610d24565b6040516370a0823160e01b8152306004820152906020826024815f516020612e275f395f51905f525afa918215610367575f92610afa575b5080821115610ac7575f80546001600160a01b0319165f516020612e275f395f51905f5217905561074e91610d5e565b60405162461bcd60e51b815260206004820152600b60248201526a2727afa722aa2fa3a0a4a760a91b6044820152606490fd5b9091506020813d602011610b26575b81610b1660209383610cb9565b8101031261037257519082610a97565b3d9150610b09565b60405162461bcd60e51b8152602060048201526011602482015270125394d551919250d251539517d4d554d1607a1b6044820152606490fd5b9092506020813d602011610b93575b81610b8360209383610cb9565b8101031261037257519183610a25565b3d9150610b76565b60405162461bcd60e51b815260206004820152600960248201526810905117d25394155560ba1b6044820152606490fd5b6004359060ff8216820361037257565b15610be357565b60405162461bcd60e51b815260206004820152600960248201526853454c465f4f4e4c5960b81b6044820152606490fd5b15610c1b57565b60405162461bcd60e51b815260206004820152600e60248201526d0848288be8482a68abe929c888ab60931b6044820152606490fd5b6040810190811067ffffffffffffffff821117610c6d57604052565b634e487b7160e01b5f52604160045260245ffd5b6060810190811067ffffffffffffffff821117610c6d57604052565b60a0810190811067ffffffffffffffff821117610c6d57604052565b90601f8019910116810190811067ffffffffffffffff821117610c6d57604052565b90816020910312610372575190565b15610cf157565b60405162461bcd60e51b815260206004820152600b60248201526a1393d7d09054d157d3d55560aa1b6044820152606490fd5b15610d2b57565b60405162461bcd60e51b815260206004820152600b60248201526a16915493d7d41493d1925560aa1b6044820152606490fd5b91908203918211610d6b57565b634e487b7160e01b5f52601160045260245ffd5b91908201809211610d6b57565b9081602091031261037257516001600160a01b03811681036103725790565b805180835260209291819084018484015e5f828201840152601f01601f1916010190565b610df993926080925f8352602083015260018060a01b031660408201528160608201520190610dab565b90565b9081525f60208201526001600160a01b039091166040820152608060608201819052610df992910190610dab565b6bffffffffffffffffffffffff60a01b5f54165f555f60015560405162415c3360e91b81525f600482015260208160248173824dcd7b044d60df2e89b1bb888e66d8bcf414915afa5f91816113c8575b50610e825750565b6001600160a01b03167357ab1ec28d129707052df4df418d58a2d46d5f501901611394576040516370a0823160e01b81523060048201526020816024815f516020612e275f395f51905f525afa908115610367575f91611396575b508061137e575b50604051610ef181610c51565b5f81525f60208201525f5b6002811061126a575080516001600160a01b031615801561125e575b61125b57600c602082015104906040516391ceb3eb60e01b81525f600482015260208160248173824dcd7b044d60df2e89b1bb888e66d8bcf414915afa5f9181611227575b5061122257505f5b806111f6575b5081156111f257610f7a611f39565b91604051610f8781610c81565b6001815260026020820152600360408201525f905b6003821061110e5750506020830192835115611108576040519360e0850185811067ffffffffffffffff821117610c6d57604052805185528051600381029080820460031490151715610d6b5760021c6020860152805160011c6040860152805160021c6060860152805160031c60808601528051600581029080820460051490151715610d6b5760031c60a086015251600781029080820460071490151715610d6b5760031c60c08501525f5b60078110156110df578060051b850151662386f26fc10000811080156110ff575b6110f65761107d8160ff855116611f96565b156110f65760ff8351169060018060a01b03865116303b1561037257604051926314b5577b60e11b84526004840152602483015260448201525f8160648183305af190816110e6575b506110d6575b6001905b0161104a565b600154156110cc575b5050505050565b5f6110f091610cb9565b5f6110c6565b506001906110d0565b5083811161106b565b50505050565b929460ff611120838697959497611f63565b511695825f945b601c8610806111e1575b156111ce578489611141926128db565b936003810281810460031482151715610d6b5760021c89662386f26fc10000821015806111c4575b6111b2575b50506003810489662386f26fc1000082101561119b575b50506111949060011c95611f88565b9493611127565b906111aa9161119493976128db565b949089611185565b6111bc92966128db565b935f8961116e565b5082821415611169565b9691959350935060019196500190610f9c565b50662386f26fc10000851015611131565b5050565b60031c8215801561120f575b15610f6b5791505f610f6b565b5080151580156112025750828110611202565b610f65565b9091506020813d602011611253575b8161124360209383610cb9565b810103126103725751905f610f5d565b3d9150611236565b50565b50602081015115610f18565b919061127583612563565b6001600160a01b0316925f5b60058110611296575060019192935001610efc565b6001600160a01b036112a7826125da565b165f516020612e275f395f51905f528114611375576040519063e6a4390560e01b82525f516020612e275f395f51905f5260048301526024820152602081604481895afa908115610367575f91611357575b506001600160a01b03811690811561134d5761131490612697565b6020850151811161132c575b50506001905b01611281565b60019294506040519161133e83610c51565b8252602082015292905f611320565b5050600190611326565b61136f915060203d811161039e576103908183610cb9565b5f6112f9565b50600190611326565b61138790611ceb565b600154611394575f610ee4565b565b90506020813d6020116113c0575b816113b160209383610cb9565b8101031261037257515f610edd565b3d91506113a4565b6113e291925060203d60201161039e576103908183610cb9565b905f610e7a565b60ff166001811490811561140a575b8115611402575090565b600391501490565b6002811491506113f8565b60ff1660018114611496576002811461147d576003146114655760405162461bcd60e51b815260206004820152600e60248201526d2120a22fa120a9a2afaa27a5a2a760911b6044820152606490fd5b73dac17f958d2ee523a2206206994597c13d831ec790565b5073a0b86991c6218b36c1d19d4a2e9eb0ce3606eb4890565b50736b175474e89094c44da98b954eedeac495271d0f90565b906001600160a01b036114c183611415565b1691604051916370a0823160e01b8352306004840152602083602481875afa928315610367575f936115e9575b506114f881612004565b60ff60405192630f1c1f5d60e31b84525f600485015216602483015260448201525f606482015242608482015260208160a4815f73824dcd7b044d60df2e89b1bb888e66d8bcf414915af18015610367576115b8575b506020602492604051938480926370a0823160e01b82523060048301525afa8015610367575f90611584575b610df99250610d5e565b506020823d6020116115b0575b8161159e60209383610cb9565b8101031261037257610df9915161157a565b3d9150611591565b6020813d6020116115e1575b816115d160209383610cb9565b810103126103725750602061154e565b3d91506115c4565b9092506020813d602011611615575b8161160560209383610cb9565b810103126103725751915f6114ee565b3d91506115f8565b909161162a818484612126565b9182519360ff5f951615611bfa576040516370a0823160e01b8152306004820152936020856024815f516020612e275f395f51905f525afa948515610367575f95611bc6575b508060ff85925116600181145f1461177057505061169190611696936120a5565b612484565b9060405191635320bf6b60e11b8352600f0b60048301526003602483015260448201528260648201526020816084818673a5407eae9ba41422680e2e00537571bcc53efbfd5af1801561176557611736575b505b6040516370a0823160e01b8152306004820152916020836024815f516020612e275f395f51905f525afa90811561172a579061158457610df99250610d5e565b604051903d90823e3d90fd5b6117579060203d60201161175e575b61174f8183610cb9565b810190610cdb565b505f6116e8565b503d611745565b6040513d85823e3d90fd5b9092509050600281036119125750602001516001600160a01b031690611797838284612af2565b9283156118df57604051630dfe168160e01b815290602082600481875afa9182156118d457849088936118b1575b506117d09293611c96565b5f516020612e275f395f51905f526001600160a01b03919091160361186b57604051916117fe602084610cb9565b8483525f366020850137813b1561186757918491611835938360405180968195829463022c0d9f60e01b8452309060048501610dfc565b03925af180156117655790839161184e575b50506116ea565b8161185891610cb9565b61186357815f611847565b5080fd5b8480fd5b6040519161187a602084610cb9565b8483525f366020850137813b1561186757918491611835938360405180968195829463022c0d9f60e01b8452309060048501610dcf565b6117d093506118ce9060203d60201161039e576103908183610cb9565b926117c5565b6040513d89823e3d90fd5b60405162461bcd60e51b815260206004820152600b60248201526a16915493d7d58c97d3d55560aa1b6044820152606490fd5b91929091600303611b9157602082015160408301516060909301516001600160a01b03938416939081169116611949838683612af2565b918215611b5c5761195b838287612af2565b958615611b2757604051630dfe168160e01b8152946020866004818a5afa958615610367575f96611b06575b50604051630dfe168160e01b815290602082600481885afa9182156103675785905f93611ae3575b506119ba9293611c96565b6001600160a01b031603611a7457604051916119d7602084610cb9565b8783525f366020850137813b15611a70579187918583611a0e956040519687958694859363022c0d9f60e01b855260048501610dfc565b03925af18015611a6557908691611a50575b50505f516020612e275f395f51905f526001600160a01b03919091160361186b57604051916117fe602084610cb9565b81611a5a91610cb9565b61186757845f611a20565b6040513d88823e3d90fd5b8780fd5b90604051611a83602082610cb9565b5f808252366020830137823b1561037257611ab992855f80946040519687958694859363022c0d9f60e01b855260048501610dcf565b03925af1801561036757611ace575b506117d0565b611adb9195505f90610cb9565b5f935f611ac8565b6119ba9350611b009060203d60201161039e576103908183610cb9565b926119af565b611b2091965060203d60201161039e576103908183610cb9565b945f611987565b60405162461bcd60e51b815260206004820152600d60248201526c16915493d7d213d40c97d3d555609a1b6044820152606490fd5b60405162461bcd60e51b815260206004820152600d60248201526c16915493d7d213d40c57d3d555609a1b6044820152606490fd5b60405162461bcd60e51b815260206004820152600d60248201526c10905117d156125517d2d25391609a1b6044820152606490fd5b9094506020813d602011611bf2575b81611be260209383610cb9565b8101031261037257519383611670565b3d9150611bd5565b60405162461bcd60e51b815260206004820152600d60248201526c4e4f5f455849545f524f55544560981b6044820152606490fd5b6103e88102908082046103e81490151715610d6b576103e5900460018101809111610d6b5790565b3d15611c91573d9067ffffffffffffffff8211610c6d5760405191611c86601f8201601f191660200184610cb9565b82523d5f602084013e565b606090565b60405163a9059cbb60e01b602082019081526001600160a01b0390931660248201526044810193909352611ce4925f928392918390611cd881606481016106af565b51925af16106d8611c57565b1561078757565b611cf3611f39565b90604051611d0081610c81565b6001815260026020820152600360408201525f905b60038210611e585750506020820191825115611e53576040519260c0840184811067ffffffffffffffff821117610c6d57604052805184528051600381029080820460031490151715610d6b5760021c6020850152805160011c6040850152805160021c6060850152805160031c608085015251600781029080820460071490151715610d6b5760031c60a08401525f5b6006811015611108578060051b840151662386f26fc1000081108015611e4a575b611e4157611dd98160ff855116612518565b15611e415760ff83511690303b1561037257604051916305d3db8960e01b8352600483015260248201525f8160448183305af19081611e31575b50611e23575b6001905b01611da6565b60015415611e195750505050565b5f611e3b91610cb9565b5f611e13565b50600190611e1d565b50838111611dc7565b505050565b9160ff611e688385969496611f63565b511694815f935b601c851080611f28575b15611f16578388611e8992612cbf565b926003810281810460031482151715610d6b5760021c88662386f26fc1000082101580611f0c575b611efa575b50506003810488662386f26fc10000821015611ee3575b5050611edc9060011c94611f88565b9392611e6f565b90611ef291611edc9396612cbf565b939088611ecd565b611f049295612cbf565b925f88611eb6565b5082821415611eb1565b95919650939250600191500190611d15565b50662386f26fc10000841015611e79565b60405190611f4682610c9d565b5f6080838281528260208201528260408201528260608201520152565b906003811015611f745760051b0190565b634e487b7160e01b5f52603260045260245ffd5b5f198114610d6b5760010190565b90611fa091612905565b6080810151611ffe5760608101908151158015611ff2575b611fec5760400190815190601e820291808304601e1490151715610d6b57612710611fe592049051610d7f565b9051111590565b50505f90565b50604081015115611fb8565b50600190565b61204a5f80604051602081019063095ea7b360e01b825273824dcd7b044d60df2e89b1bb888e66d8bcf414916024820152856044820152604481526106bd606482610cb9565b61125b576113949061207d73824dcd7b044d60df2e89b1bb888e66d8bcf414915f516020612e275f395f51905f52612959565b73824dcd7b044d60df2e89b1bb888e66d8bcf414915f516020612e275f395f51905f526129d2565b906120fa5f80604051602081019063095ea7b360e01b825273a5407eae9ba41422680e2e00537571bcc53efbfd6024820152856044820152604481526120ec606482610cb9565b519082875af16106d8611c57565b6111f25773a5407eae9ba41422680e2e00537571bcc53efbfd826121218261139495612959565b6129d2565b92919092612132611f39565b938215611e5357612142816113e9565b6123bc575b5061215181612a14565b6001600160a01b0381169083838361236e575b505050505f5b6005811061217757505050565b612180816125da565b6001600160a01b038116908115801561235c575b8015612346575b61233c575f915f5f5b6002811061228a5750506121b782612a14565b91868660018060a01b0386169586158015612279575b8015612267575b61225857906121e39291612af2565b90811561224b57906121f59184612af2565b9160808901518311612210575b505050506001905b0161216a565b60019498506040519361222285610c9d565b600385526020850152848060a01b031660408401526060830152608082015294905f8080612202565b505050505060019061220a565b5050505050505060019061220a565b506001600160a01b03861687146121d4565b506001600160a01b038616156121cd565b6001600160a01b0361229b82612563565b60405163e6a4390560e01b81526001600160a01b038a166004820152602481018690529160209183916044918391165afa908115610367575f9161231e575b506001600160a01b03811615612315576122f485826127e0565b838111612308575b50506001905b016121a4565b909550915060015f6122fc565b50600190612302565b612336915060203d811161039e576103908183610cb9565b5f6122da565b505060019061220a565b505f516020612e275f395f51905f52821461219b565b506001600160a01b0384168214612194565b61237792612af2565b6080860151811161238a575b8383612164565b6040519295509061239a83610c9d565b6002835260208301525f60408301525f60608301526080820152925f80612383565b6123c590612484565b604051906307211ef760e01b8252600f0b60048201526003602482015282604482015260208160648173a5407eae9ba41422680e2e00537571bcc53efbfd5afa5f9181612450575b50156121475760808501518111156121475760405191945061242e82610c9d565b600182525f60208301525f60408301525f60608301526080820152925f612147565b9091506020813d60201161247c575b8161246c60209383610cb9565b810103126103725751905f61240d565b3d915061245f565b60ff16600181146124d95760028114611ffe576003146124d45760405162461bcd60e51b815260206004820152600e60248201526d0848288be8482a68abe929c888ab60931b6044820152606490fd5b600290565b505f90565b90816124e8575090565b80518015925082156124f957505090565b8192509060209181010312610372576020015180151581036103725790565b8161252291612cce565b608081015161255c57606001805115611fec57601e820290828204601e1483151715610d6b5761271061255792049051610d7f565b101590565b5050600190565b80156125c1576001146125a95760405162461bcd60e51b81526020600482015260116024820152700848288be8c8286a89ea4b2be929c888ab607b1b6044820152606490fd5b73c0aee478e3658e2610c5f7a4a2e1777ce9e4f2ac90565b50735c69bee701ef814a2b6a3edd4b1652cb9cc5aa6f90565b80156126345760018114611496576002811461147d576003811461261b57600414612603575f90565b732260fac5e5542a773aa44fbcfedf7c193bc2c59990565b5073dac17f958d2ee523a2206206994597c13d831ec790565b5073c02aaa39b223fe8d0a0e5c4f27ead9083c756cc290565b51906001600160701b038216820361037257565b90816060910312610372576126758161264d565b9160406126846020840161264d565b92015163ffffffff811681036103725790565b604051630240bc6b60e21b8152906001600160a01b0316606082600481845afa918215610367575f905f936127ab575b50604051630dfe168160e01b8152602081600481865afa8015610367575f516020612e275f395f51905f52915f9161278c575b506001600160a01b03161461277d575060206004916040519283809263d21220a760e01b82525afa8015610367575f516020612e275f395f51905f52915f9161275e575b506001600160a01b03161461275257505f90565b6001600160701b031690565b612777915060203d60201161039e576103908183610cb9565b5f61273e565b6001600160701b031692915050565b6127a5915060203d60201161039e576103908183610cb9565b5f6126fa565b90506127d091925060603d6060116127d9575b6127c88183610cb9565b810190612661565b5091905f6126c7565b503d6127be565b604051630240bc6b60e21b815291906001600160a01b0316606083600481845afa928315610367575f905f946128b6575b50604051630dfe168160e01b815292602084600481865afa938415610367575f94612895575b506001600160a01b0390811693168314612885575060206004916040519283809263d21220a760e01b82525afa908115610367575f9161275e57506001600160a01b03161461275257505f90565b6001600160701b03169392505050565b6128af91945060203d60201161039e576103908183610cb9565b925f612837565b90506128d291935060603d6060116127d9576127c88183610cb9565b5092905f612811565b916128ee916128e8611f39565b50612905565b6128f88282612d06565b612900575090565b905090565b919091612936612913611f39565b9360ff8316855280602086015261292981611c2f565b9260408601938452612d7b565b9081606085015251808211612949575050565b61295291610d5e565b6080830152565b5f80916129959382604051602081019263095ea7b360e01b845260018060a01b0316602482015281604482015260448152611cd8606482610cb9565b1561299c57565b60405162461bcd60e51b815260206004820152600e60248201526d1054141493d59157d1905253115160921b6044820152606490fd5b60405163095ea7b360e01b602082019081526001600160a01b0390931660248201526044810193909352612995925f928392918390611cd881606481016106af565b905f915f5f5b60028110612a2757505050565b604460206001600160a01b03612a3c84612563565b60405163e6a4390560e01b81526001600160a01b03881660048201525f516020612e275f395f51905f52602482015293849290918391165afa908115610367575f91612ad4575b506001600160a01b03811615612acb57612aaa5f516020612e275f395f51905f52826127e0565b838111612abe575b50506001905b01612a1a565b909550915060015f612ab2565b50600190612ab8565b612aec915060203d811161039e576103908183610cb9565b5f612a83565b6001600160a01b03169081158015612cb7575b612c4557604051630dfe168160e01b8152602081600481865afa908115610367575f91612c98575b5060405163d21220a760e01b815292602084600481845afa908115610367576004945f92612c74575b5060609060405195868092630240bc6b60e21b82525afa928315610367575f945f94612c4c575b506001600160a01b0390811692168203612c24575050906001600160701b038091169116915b8115808015612c1c575b612c14576103e58202918083046103e51481151715610d6b57846103e5910202938285041482151715610d6b576103e883029283046103e8141715610d6b57612bf591610d7f565b908115612c00570490565b634e487b7160e01b5f52601260045260245ffd5b505050505f90565b508315612bad565b6001600160a01b031603612c45576001600160701b03809116911691612ba3565b5050505f90565b909350612c6991945060603d6060116127d9576127c88183610cb9565b50939093925f612b7d565b6060919250612c919060203d60201161039e576103908183610cb9565b9190612b56565b612cb1915060203d60201161039e576103908183610cb9565b5f612b2d565b508215612b05565b916128ee91612ccc611f39565b505b9190612cf481612cdc611f39565b9460ff81168652816020870152816040870152612d7b565b90816060850152808211612949575050565b9060208201519182158015612d6f575b612c45576080810151801515906080840151918215158103612d665750818103612d5e57505060600151606082015190818103612d57575050602001511190565b1192915050565b119392505050565b94505050505090565b50606081015115612d16565b9060405190631d7638f960e21b82525f600483015260ff83166024830152604482015260208160648173824dcd7b044d60df2e89b1bb888e66d8bcf414915afa5f9181612df2575b50612dec57505f905b8115611fec5760809181612de2612de793611415565b612126565b015190565b90612dcc565b9091506020813d602011612e1e575b81612e0e60209383610cb9565b810103126103725751905f612dc3565b3d9150612e0156fe00000000000000000000000057ab1ec28d129707052df4df418d58a2d46d5f51a2646970667358221220364e50495eea6b5cde56a2e324d2d25d3ede455b15f82af242aa1ec7734fade364736f6c634300081e0033","linkReferences":{}},"methodIdentifiers":{"TARGET()":"cc1f2afa","executeOnOpportunity()":"3c2448ed","executeWithInventory(uint8,uint256)":"05d3db89","profitAmount()":"5ff972cc","profitToken()":"49343624","startFlash(uint8,address,uint256)":"296aaef6","uniswapV2Call(address,uint256,uint256,bytes)":"10d1e85c"},"id":0}