{"abi":[{"type":"constructor","inputs":[],"stateMutability":"payable"},{"type":"receive","stateMutability":"payable"},{"type":"function","name":"attemptCandidate","inputs":[{"name":"liquidPool","type":"address","internalType":"address"},{"name":"desiredShares","type":"uint256","internalType":"uint256"}],"outputs":[],"stateMutability":"nonpayable"},{"type":"function","name":"attemptWithoutTopUp","inputs":[{"name":"liquidPool","type":"address","internalType":"address"},{"name":"desiredShares","type":"uint256","internalType":"uint256"}],"outputs":[],"stateMutability":"nonpayable"},{"type":"function","name":"executeOnOpportunity","inputs":[],"outputs":[],"stateMutability":"nonpayable"},{"type":"function","name":"profitAmount","inputs":[],"outputs":[{"name":"","type":"uint256","internalType":"uint256"}],"stateMutability":"view"},{"type":"function","name":"profitToken","inputs":[],"outputs":[{"name":"","type":"address","internalType":"address"}],"stateMutability":"view"},{"type":"function","name":"receiveFlashLoan","inputs":[{"name":"tokens","type":"address[]","internalType":"contract IERC20Like[]"},{"name":"amounts","type":"uint256[]","internalType":"uint256[]"},{"name":"feeAmounts","type":"uint256[]","internalType":"uint256[]"},{"name":"userData","type":"bytes","internalType":"bytes"}],"outputs":[],"stateMutability":"nonpayable"}],"bytecode":{"object":"0x60808060405261190a90816100128239f3fe6080604052600436101561001a575b3615610018575f80fd5b005b5f5f3560e01c80631f87638014610d895780633c2448ed14610b72578063456be983146109f857806349343624146109d15780635ff972cc146109b45763f04f270714610067575061000e565b346106375760803660031901126106375760043567ffffffffffffffff811161063757366023820112156106375780600401356100a381610dfc565b916100b16040519384610dc6565b8183526024602084019260051b8201019036821161063757602401915b8183106109945750505060243567ffffffffffffffff8111610637576100f8903690600401610e14565b9060443567ffffffffffffffff811161063757610119903690600401610e14565b9060643567ffffffffffffffff811161063757366023820112156106375780600401359161014683610e71565b926101546040519485610dc6565b8084526020840192366024838301011161063757815f9260246020930186378501015273ba12222222228d8ba445958a75a0704d566bf2c8330361094f57600181511480610944575b80610939575b156108f45773c02aaa39b223fe8d0a0e5c4f27ead9083c756cc2906001600160a01b03906101d090610eeb565b5116036108af5760408280518101031261063757516001600160a01b0381169190829003610637576040015161020584610eeb565b5173c02aaa39b223fe8d0a0e5c4f27ead9083c756cc23b156106375760405190632e1a7d4d60e01b825260048201525f816024818373c02aaa39b223fe8d0a0e5c4f27ead9083c756cc25af180156108a45761088f575b5061026684610eeb565b5161027084610eeb565b519161027b306116b3565b908415610854578215159182610787575b604051916394bf804d60e01b835260048301523060248301526020826044818c7348afbbd342f64ef8a9ab1c143719b63c2ad817105af1801561077c57610749575b6102e191506102dc306116b3565b610eca565b8015610704576102f08561173b565b6102fa818661180b565b6103048186611308565b90806106fb575b156106a15784101561064e5760208895604447936040519889938492630201687360e41b845260048401528160248401525af1948515610643578895610609575b506103579047610eca565b9384156105cb57840361058f57610532575b50505061038261037b61038993610eeb565b5191610eeb565b5190611245565b8047106104e157819073c02aaa39b223fe8d0a0e5c4f27ead9083c756cc23b156104d357604051630d0e30db60e41b815282816004818573c02aaa39b223fe8d0a0e5c4f27ead9083c756cc25af19081156104d65783916104be575b5090604051602081019163a9059cbb60e01b835273ba12222222228d8ba445958a75a0704d566bf2c86024830152604482015260448152610427606482610dc6565b51908273c02aaa39b223fe8d0a0e5c4f27ead9083c756cc25af161044961166c565b8161048f575b50156104585780f35b60405162461bcd60e51b815260206004820152600f60248201526e1d1c985b9cd9995c8819985a5b1959608a1b6044820152606490fd5b80518015925082156104a4575b50505f61044f565b6104b7925060208091830101910161169b565b5f8061049c565b816104c891610dc6565b6104d357815f6103e5565b50fd5b6040513d85823e3d90fd5b60405162461bcd60e51b8152602060048201526024808201527f737761702070726f63656564732063616e6e6f7420726570617920666c6173686044820152633637b0b760e11b6064820152608490fd5b9061053c91611245565b101561054a575f8080610369565b60405162461bcd60e51b815260206004820152601f60248201527f746f702d7570206272616e6368206973206e6f742070726f66697461626c65006044820152606490fd5b60405162461bcd60e51b81526020600482015260146024820152730e6eec2e040e4cae8eae4dc40dad2e6dac2e8c6d60631b6044820152606490fd5b60405162461bcd60e51b81526020600482015260166024820152750e6eec2e040e4cae8eae4dccac840f4cae4de408aa8960531b6044820152606490fd5b9094506020813d60201161063b575b8161062560209383610dc6565b8101031261063757519361035761034c565b5f80fd5b3d9150610618565b6040513d8a823e3d90fd5b60405162461bcd60e51b815260206004820152602560248201527f71756f74652063616e6e6f74206576656e20636f76657220666c6173686c6f616044820152646e2066656560d81b6064820152608490fd5b60405162461bcd60e51b815260206004820152602c60248201527f676574416d6f756e744f75742875696e743235362920756e617661696c61626c60448201526b194818599d195c881b5a5b9d60a21b6064820152608490fd5b5080151561030b565b60405162461bcd60e51b815260206004820152601d60248201527f6d696e7420706174682070726f6475636564207a65726f206d704554480000006044820152606490fd5b6020823d602011610774575b8161076260209383610dc6565b81010312610637576102e191506102ce565b3d9150610755565b6040513d8b823e3d90fd5b604051608a8082019082821067ffffffffffffffff831117610840579180918c9361184b8339039086f08015610833576001600160a01b0316803b1561082f5781809160246040518094819363668a2f6760e01b83527348afbbd342f64ef8a9ab1c143719b63c2ad8171060048401525af180156108245761080b575b505061028c565b8161081591610dc6565b61082057885f610804565b8880fd5b6040513d84823e3d90fd5b5080fd5b50604051903d90823e3d90fd5b634e487b7160e01b8c52604160045260248cfd5b60405162461bcd60e51b81526020600482015260136024820152726c697175696420706f6f6c206d697373696e6760681b6044820152606490fd5b61089c9195505f90610dc6565b5f935f61025c565b6040513d5f823e3d90fd5b60405162461bcd60e51b815260206004820152601a60248201527f756e657870656374656420666c6173686c6f616e20746f6b656e0000000000006044820152606490fd5b60405162461bcd60e51b815260206004820152601a60248201527f756e657870656374656420666c6173686c6f616e2073686170650000000000006044820152606490fd5b5060018451146101a3565b50600185511461019d565b60405162461bcd60e51b815260206004820152601f60248201527f756e617574686f72697a656420666c6173686c6f616e2063616c6c6261636b006044820152606490fd5b82356001600160a01b0381168103610637578152602092830192016100ce565b34610637575f366003190112610637576020600154604051908152f35b34610637575f366003190112610637575f546040516001600160a01b039091168152602090f35b3461063757610a0636610da0565b90610a12303314610e8d565b610a1b306116b3565b6001600160a01b0382169290831561085457604051916394bf804d60e01b835260048301523060248301526020826044815f7348afbbd342f64ef8a9ab1c143719b63c2ad817105af180156108a457610b3f575b610a7d91506102dc306116b3565b908115610704578181610a92610aa19361173b565b610a9c828261180b565b611308565b9080610b36575b156106a1571561064e5760205f92604447936040519586938492630201687360e41b845260048401528160248401525af19182156108a4575f92610b00575b50610af29047610eca565b9081156105cb570361058f57005b9091506020813d602011610b2e575b81610b1c60209383610dc6565b81010312610637575190610af2610ae7565b3d9150610b0f565b50801515610aa8565b6020823d602011610b6a575b81610b5860209383610dc6565b8101031261063757610a7d9150610a6f565b3d9150610b4b565b34610637575f36600319011261063757604051634ee0b16560e11b815247906020816004817348afbbd342f64ef8a9ab1c143719b63c2ad817105afa9081156108a4575f91610d47575b506001600160a01b03811615610cf857803115610cba576001915f5b60088110610c4b575b505f80546001600160a01b0319169055610bfc915047610eca565b80825510610c0657005b60405162461bcd60e51b815260206004820152601a60248201527f6e6f206e6574204554482070726f666974207265616c697a65640000000000006044820152606490fd5b662386f26fc10000833110610ca85747610c648461137e565b662386f26fc100008110610cb357610c7c9085611528565b15610cad57471115610ca85767016345785d8a0000610c9b8347610eca565b1015610ca8578301610bd8565b610be1565b50610be1565b5050610be1565b60405162461bcd60e51b81526020600482015260166024820152750d8d2e2ead2c840e0deded840d0c2e640dcde408aa8960531b6044820152606490fd5b60405162461bcd60e51b815260206004820152602160248201527f6c6971756964556e7374616b65506f6f6c28292072657475726e6564207a65726044820152606f60f81b6064820152608490fd5b90506020813d602011610d81575b81610d6260209383610dc6565b8101031261063757516001600160a01b03811681036106375782610bbc565b3d9150610d55565b3461063757610018610d9a36610da0565b90610f0c565b6040906003190112610637576004356001600160a01b0381168103610637579060243590565b90601f8019910116810190811067ffffffffffffffff821117610de857604052565b634e487b7160e01b5f52604160045260245ffd5b67ffffffffffffffff8111610de85760051b60200190565b9080601f83011215610637578135610e2b81610dfc565b92610e396040519485610dc6565b81845260208085019260051b82010192831161063757602001905b828210610e615750505090565b8135815260209182019101610e54565b67ffffffffffffffff8111610de857601f01601f191660200190565b15610e9457565b60405162461bcd60e51b815260206004820152600e60248201526d73656c662d63616c6c206f6e6c7960901b6044820152606490fd5b91908203918211610ed757565b634e487b7160e01b5f52601160045260245ffd5b805115610ef85760200190565b634e487b7160e01b5f52603260045260245ffd5b90610f18303314610e8d565b303b156106375760405163456be98360e01b81526001600160a01b0383166004820152602481018290525f9290838160448183305af19081611230575b5061122b57610f6382611252565b9182156111e657610f748183611308565b90806111dc575b156111895780841015611160575b5060409161101c835194610f9d8587610dc6565b60018652602086019061102a601f198701958636853773c02aaa39b223fe8d0a0e5c4f27ead9083c756cc2610fd18a610eeb565b52875192610fdf8985610dc6565b600184526020840197368937610ff484610eeb565b5287516001600160a01b03909616602087019081526040870191909152949384906060820190565b03601f198101855284610dc6565b73ba12222222228d8ba445958a75a0704d566bf2c83b1561115c57959290918794928651978895632e1c224f60e11b87526084870190306004890152608060248901525180915260a487019290885b818110611137575050506020906003198784030160448801525191828152019390865b81811061111b575050509183916020936003198484030160648501525180918184528584015e8181018401869052601f01601f1916010301818373ba12222222228d8ba445958a75a0704d566bf2c85af190811561111257506110fd575050565b611108828092610dc6565b61110f5750565b80fd5b513d84823e3d90fd5b825186528a97508996506020958601959092019160010161109c565b82516001600160a01b031685528c99508b985060209485019490920191600101611079565b8780fd5b9092505f19810190811161117557915f610f89565b634e487b7160e01b84526011600452602484fd5b60405162461bcd60e51b815260206004820152602560248201527f63616e64696461746520686173206e6f20726570617961626c6520737761702060448201526471756f746560d81b6064820152608490fd5b5060018111610f7b565b60405162461bcd60e51b815260206004820152601f60248201527f63616e646964617465206661696c656420776974686f757420746f702d7570006044820152606490fd5b505050565b61123d9194505f90610dc6565b5f925f610f55565b91908201809211610ed757565b905f918015611302576040519063b3d7f6b960e01b825260048201526020816024817348afbbd342f64ef8a9ab1c143719b63c2ad817105afa5f91816112ce575b5061129e57505f9150565b7348afbbd342f64ef8a9ab1c143719b63c2ad8171031908181116112c0575050565b6112cb929350610eca565b90565b9091506020813d6020116112fa575b816112ea60209383610dc6565b810103126106375751905f611293565b3d91506112dd565b505f9150565b60408051635c19521760e01b8152600481019390935290829060249082906001600160a01b03165afa5f918161134a575b5061134557505f905f90565b600191565b9091506040813d604011611376575b8161136660409383610dc6565b810103126106375751905f611339565b3d9150611359565b905f9161138a816116b3565b908031662386f26fc1000083108015611520575b6115185760405192610140840184811067ffffffffffffffff821117610de85760405280845260078102811590828104600714821715610ed75760031c602086015260038202828104600314821715610ed75760021c60408601528160011b908282046002141715610ed7576003900460608501528060011c60808501526003810460a08501528060021c60c08501528060031c60e085015260041c610100840152662386f26fc100006101208401525f915f935f5b600a811015611510578060051b82015195662386f26fc1000087108015611507575b6114fd5750856114868185611308565b901580156114f5575b80156114ec575b6114e2576114a382611252565b90808210156114d757906114b691610eca565b8681116114ca575b50506001905b01611454565b909850945060015f6114be565b5050506001906114c4565b50506001906114c4565b50858111611496565b50801561148f565b95506001906114c4565b50808714611476565b505050505050565b505f93505050565b50801561139e565b905f9160405191610100830183811067ffffffffffffffff821117610de85760405280835260078102811590828104600714821715610ed75760031c602085015260038202828104600314821715610ed75760021c60408501528160011b908282046002141715610ed7576003900460608401528060011c60808401526003810460a084015260021c60c0830152662386f26fc1000060e08301525f915f5b6008811015611665578060051b82015193662386f26fc100008510801561165c575b611652575083303b1561063757604051623f0ec760e71b81526001600160a01b038516600482015260248101919091525f8160448183305af19081611642575b50611638576001905b016115c7565b5050505050600190565b5f61164c91610dc6565b5f611629565b9350600190611632565b508085146115e9565b5050505090565b3d15611696573d9061167d82610e71565b9161168b6040519384610dc6565b82523d5f602084013e565b606090565b90816020910312610637575180151581036106375790565b905f80809360405160208101916370a0823160e01b835260018060a01b03166024820152602481526116e6604482610dc6565b51907348afbbd342f64ef8a9ab1c143719b63c2ad817105afa61170761166c565b908061172f575b6117155750565b805191925060208082019282019190910312610637575190565b5060208151101561170e565b60405163095ea7b360e01b602082019081526001600160a01b0390921660248201525f60448083018290528252918291611776606482610dc6565b5190827348afbbd342f64ef8a9ab1c143719b63c2ad817105af161179861166c565b816117dc575b50156117a657565b60405162461bcd60e51b815260206004820152600e60248201526d185c1c1c9bdd994819985a5b195960921b6044820152606490fd5b80518015925082156117f1575b50505f61179e565b611804925060208091830101910161169b565b5f806117e9565b60405163095ea7b360e01b602082019081526001600160a01b039290921660248201526044808201939093529182525f91829190611776606482610dc656fe608080604052607a908160108239f3fe6004361015600b575f80fd5b5f3560e01c63668a2f6714601d575f80fd5b3460405760203660031901126040576004356001600160a01b0381168103604057ff5b5f80fdfea2646970667358221220601cb7a4347f536d2bca4bd69210ea27f7b230c2fd0cef22be3148d98f8d864864736f6c634300081e0033a264697066735822122044dcd0a449f5ef3db49e7655a9f89dee9467a37be7a78103926785b48916700b64736f6c634300081e0033","linkReferences":{}},"methodIdentifiers":{"attemptCandidate(address,uint256)":"1f876380","attemptWithoutTopUp(address,uint256)":"456be983","executeOnOpportunity()":"3c2448ed","profitAmount()":"5ff972cc","profitToken()":"49343624","receiveFlashLoan(address[],uint256[],uint256[],bytes)":"f04f2707"},"id":0}