{"abi":[{"type":"constructor","inputs":[],"stateMutability":"payable"},{"type":"function","name":"boom","inputs":[{"name":"target","type":"address","internalType":"address payable"}],"outputs":[],"stateMutability":"nonpayable"}],"bytecode":{"object":"0x608080604052607a908160108239f3fe6004361015600b575f80fd5b5f3560e01c63668a2f6714601d575f80fd5b3460405760203660031901126040576004356001600160a01b0381168103604057ff5b5f80fdfea2646970667358221220601cb7a4347f536d2bca4bd69210ea27f7b230c2fd0cef22be3148d98f8d864864736f6c634300081e0033","linkReferences":{}},"methodIdentifiers":{"boom(address)":"668a2f67"},"id":0}