{"abi":[{"type":"constructor","inputs":[],"stateMutability":"nonpayable"},{"type":"function","name":"TARGET","inputs":[],"outputs":[{"name":"","type":"address","internalType":"address"}],"stateMutability":"view"},{"type":"function","name":"executeOnOpportunity","inputs":[],"outputs":[],"stateMutability":"nonpayable"},{"type":"function","name":"exploitPathUsed","inputs":[],"outputs":[{"name":"","type":"string","internalType":"string"}],"stateMutability":"view"},{"type":"function","name":"failureReason","inputs":[],"outputs":[{"name":"","type":"string","internalType":"string"}],"stateMutability":"view"},{"type":"function","name":"hypothesisRefuted","inputs":[],"outputs":[{"name":"","type":"bool","internalType":"bool"}],"stateMutability":"view"},{"type":"function","name":"hypothesisValidated","inputs":[],"outputs":[{"name":"","type":"bool","internalType":"bool"}],"stateMutability":"view"},{"type":"function","name":"profitAchieved","inputs":[],"outputs":[{"name":"","type":"bool","internalType":"bool"}],"stateMutability":"view"},{"type":"function","name":"profitAmount","inputs":[],"outputs":[{"name":"","type":"uint256","internalType":"uint256"}],"stateMutability":"view"},{"type":"function","name":"profitToken","inputs":[],"outputs":[{"name":"","type":"address","internalType":"address"}],"stateMutability":"view"},{"type":"function","name":"recoverStageReached","inputs":[],"outputs":[{"name":"","type":"bool","internalType":"bool"}],"stateMutability":"view"},{"type":"function","name":"selectedDepositId","inputs":[],"outputs":[{"name":"","type":"uint256","internalType":"uint256"}],"stateMutability":"view"},{"type":"function","name":"selectedVictim","inputs":[],"outputs":[{"name":"","type":"address","internalType":"address"}],"stateMutability":"view"},{"type":"function","name":"targetOwner","inputs":[],"outputs":[{"name":"","type":"address","internalType":"address"}],"stateMutability":"view"},{"type":"function","name":"victimIndexCleared","inputs":[],"outputs":[{"name":"","type":"bool","internalType":"bool"}],"stateMutability":"view"}],"bytecode":{"object":"0x60808060405234601557611def908161001a8239f35b5f80fdfe6080806040526004361015610012575f80fd5b5f3560e01c90816334c7f894146103ad575080633c2448ed14610393578063416cc55914610376578063463defd11461035457806347e59f141461032c5780634934362414610305578063495f92f1146102e05780634f9522a41461024e5780635ff972cc14610231578063a0b937311461020c578063cc1f2afa146101e5578063cd0e34ee146101c1578063d78c4281146100df5763f0a01176146100b6575f80fd5b346100db575f3660031901126100db57602060ff60025460101c166040519015158152f35b5f80fd5b346100db575f3660031901126100db576040515f6005546100ff816103d3565b808452906001811690811561019d575060011461013f575b61013b836101278185038261040b565b604051918291602083526020830190610441565b0390f35b60055f9081527f036b6384b5eca791c62761152d0c79bb0604c104a5fb6f4eb0703f3154bb3db0939250905b80821061018357509091508101602001610127610117565b91926001816020925483858801015201910190929161016b565b60ff191660208086019190915291151560051b840190910191506101279050610117565b346100db575f3660031901126100db57602060ff600254821c166040519015158152f35b346100db575f3660031901126100db5760206040515f516020611d5a5f395f51905f528152f35b346100db575f3660031901126100db57602060ff60025460181c166040519015158152f35b346100db575f3660031901126100db576020600154604051908152f35b346100db575f3660031901126100db576040515f60065461026e816103d3565b808452906001811690811561019d57506001146102955761013b836101278185038261040b565b60065f9081525f516020611d9a5f395f51905f52939250905b8082106102c657509091508101602001610127610117565b9192600181602092548385880101520191019092916102ae565b346100db575f3660031901126100db57602060ff60025460081c166040519015158152f35b346100db575f3660031901126100db575f546040516001600160a01b039091168152602090f35b346100db575f3660031901126100db576003546040516001600160a01b039091168152602090f35b346100db575f3660031901126100db57602060ff600254166040519015158152f35b346100db575f3660031901126100db576020600454604051908152f35b346100db575f3660031901126100db576103ab610465565b005b346100db575f3660031901126100db5760025460281c6001600160a01b03168152602090f35b90600182811c92168015610401575b60208310146103ed57565b634e487b7160e01b5f52602260045260245ffd5b91607f16916103e2565b90601f8019910116810190811067ffffffffffffffff82111761042d57604052565b634e487b7160e01b5f52604160045260245ffd5b805180835260209291819084018484015e5f828201840152601f01601f1916010190565b5f6001600160601b0360a01b5f54165f555f60015566ffffffffffffff60c81b600254166002556001600160601b0360a01b600354166003555f6004556104ad6005546103d3565b601f8111610d6f575b505f6005556104c66006546103d3565b601f8111610d3a575b505f6006556104dc610e54565b80519091906001600160a01b031615610cda578151610503906001600160a01b0316611054565b92835115610c225760018060a01b038351166001600160601b0360a01b6003541617600355602083015160045561053b6005546103d3565b601f8111610bb9575b5061010d600555600582527f6f776e65722063616c6c73207265636f7665724173736574732876696374696d7f036b6384b5eca791c62761152d0c79bb0604c104a5fb6f4eb0703f3154bb3db0557f2c2061747461636b657229202d3e20636f6e74726163742072657772697465737f036b6384b5eca791c62761152d0c79bb0604c104a5fb6f4eb0703f3154bb3db1557f2076696374696d206465706f7369747320746f2061747461636b6572202d3e207f036b6384b5eca791c62761152d0c79bb0604c104a5fb6f4eb0703f3154bb3db2557f61747461636b657220776974686472617773206d6174757265642045524332307f036b6384b5eca791c62761152d0c79bb0604c104a5fb6f4eb0703f3154bb3db35565206c6f636b7360d01b7f036b6384b5eca791c62761152d0c79bb0604c104a5fb6f4eb0703f3154bb3db4558190845161069481610d9a565b906106a2604051928361040b565b8082526106b1601f1991610d9a565b013660208301376106c28651611000565b9184935b87518510156107c6576106e26106dc868a610e2c565b5161194b565b60a0810151158015906107b9575b80156107ac575b801561079a575b6107595786875b838110610763575b506107595760019161074061075092848060a01b0381511661072f8489610e2c565b523090858060a01b03905116611a9b565b61074a8288610e2c565b52611032565b945b01936106c6565b5093600190610752565b6001600160a01b036107758288610e2c565b5184516001600160a01b031691161461079057600101610705565b505060015f61070d565b5080516001600160a01b0316156106fe565b50606081015142106106f7565b50608081015115156106f0565b90969350949190946107e13060018060a01b038551166111d1565b15610ba25763010000006002548163ff0000001982161760025564ff0000000061081360018060a01b038751166118c5565b151560201b169064ffff00000019161717600255845b84518110156108fb5780866108436106dc60019489610e2c565b6080810151158015906108ee575b80156108d9575b80156108cc575b6108c55781906040610871858b610e2c565b51910151604051906020820192635d3de95560e11b845260248301526044820152604481526108a160648261040b565b5190825f516020611d5a5f395f51905f525af1506108bd611b7c565b505b01610829565b50506108bf565b506060810151421061085f565b5030848060a01b036020830151161415610858565b5060a08101511515610851565b50919394909250845b828110610af2575050505060ff600161ffff1960025416178060025560101c161561092d575050565b60600151610a1b576109406006546103d3565b601f81116109db575b5060069060a98255527f7265636f76657241737365747320657865637574656420627574206e6f206d615f516020611d9a5f395f51905f52557f74757265642045524332302076696374696d206c6f636b2065786973746564205f516020611d3a5f395f51905f525573199bdc881a5b5b59591a585d19481c1c9bd99a5d60621b5f516020611d7a5f395f51905f5255565b60068252601f0160051c5f516020611d9a5f395f51905f52015f516020611d1a5f395f51905f525b818110610a105750610949565b828155600101610a03565b610a266006546103d3565b601f8111610ab2575b50600690608b8255527f7265636f76657241737365747320657865637574656420627574206e6f206e655f516020611d9a5f395f51905f52557f742045524332302062616c616e636520696e63726561736520776173207265615f516020611d3a5f395f51905f5255641b1a5e995960da1b5f516020611d7a5f395f51905f5255565b60068252601f0160051c5f516020611d9a5f395f51905f52015f516020611d1a5f395f51905f525b818110610ae75750610a2f565b828155600101610ada565b610b0f306001600160a01b03610b088486610e2c565b5116611a9b565b610b198286610e2c565b51811115610b9957610b2b8286610e2c565b518103908111610b85579060019182548111610b4a575b505b01610904565b8255818060a01b03610b5c8285610e2c565b5188546001600160a01b03191691161787556002805462ff00001916620100001790555f610b42565b634e487b7160e01b87526011600452602487fd5b50600190610b44565b50505050505061010061ffff196002541617600255565b6005808452601f91909101901c7f036b6384b5eca791c62761152d0c79bb0604c104a5fb6f4eb0703f3154bb3db0017f036b6384b5eca791c62761152d0c79bb0604c104a5fb6f4eb0703f3154bb3db55b818110610c175750610544565b838155600101610c0a565b9250905061010161ffff196002541617600255610c406006546103d3565b601f8111610c9a575b5060069060478255527f76696374696d20686173206e6f206465706f73697473206174206578656375745f516020611d9a5f395f51905f52556234b7b760e91b5f516020611d3a5f395f51905f5255565b60068252601f0160051c5f516020611d9a5f395f51905f52015f516020611d7a5f395f51905f525b818110610ccf5750610c49565b828155600101610cc2565b505061010161ffff196002541617600255604360065560065f527f6e6f206c6976652076696374696d206465706f73697473206f6e2074617267655f516020611d9a5f395f51905f5255601d60fa1b5f516020611d3a5f395f51905f5255565b60065f52601f0160051c5f516020611d9a5f395f51905f52908101905b818110610d6457506104cf565b5f8155600101610d57565b60055f52601f60205f20910160051c8101905b818110610d8f57506104b6565b5f8155600101610d82565b67ffffffffffffffff811161042d5760051b60200190565b6020818303126100db5780519067ffffffffffffffff82116100db57019080601f830112156100db578151610de681610d9a565b92610df4604051948561040b565b81845260208085019260051b8201019283116100db57602001905b828210610e1c5750505090565b8151815260209182019101610e0f565b8051821015610e405760209160051b010190565b634e487b7160e01b5f52603260045260245ffd5b60405160a0810181811067ffffffffffffffff82111761042d576040525f81525f60208201525f60408201525f60608201525f608082015280604051631ae80e4960e21b81525f816004815f516020611d5a5f395f51905f525afa5f9181610fdc575b50610ec157505090565b909291505f5b8151811015610fd85780610ee06106dc60019385610e2c565b608081015115801590610fc5575b610fbf5760808601805115610f99575b60a08201511580610f8b575b80610f7e575b610f1e575b50505b01610ec7565b60608701918251158015610f6d575b610f38575b50610f15565b849260408492838060a01b036020820151168b52610f56878a610e2c565b5160208c0152015160408a015252525f8080610f32565b506040810151604089015110610f2d565b5060408201511515610f10565b506060820151421015610f0a565b838060a01b036020830151168752610fb18386610e2c565b516020880152838152610efe565b50610f18565b50828060a01b0360208201511615610eee565b5050565b610ff99192503d805f833e610ff1818361040b565b810190610db2565b905f610eb7565b9061100a82610d9a565b611017604051918261040b565b8281528092611028601f1991610d9a565b0190602036910137565b5f1981146110405760010190565b634e487b7160e01b5f52601160045260245ffd5b90604051631ae80e4960e21b81525f816004815f516020611d5a5f395f51905f525afa5f9181611188575b5061109f5750905060405161109560208261040b565b5f81525f36813790565b915f905f5b8451811015611103576110ba6106dc8287610e2c565b60808101511590816110e9575b506110d5575b6001016110a4565b916110e1600191611032565b9290506110cd565b602001516001600160a01b0384811691161490505f6110c7565b509061110e90611000565b925f915f5b8251811015611182576111296106dc8285610e2c565b6080810151159081611168575b50611144575b600101611113565b926111606001916111558686610e2c565b5161074a828a610e2c565b93905061113c565b602001516001600160a01b0384811691161490505f611136565b50505050565b61119d9192503d805f833e610ff1818361040b565b905f61107f565b9060606111ce925f516020611d5a5f395f51905f5281525f60208201528160408201520190610441565b90565b6111d9611b0c565b6002805465010000000000600160c81b031916602892831b65010000000000600160c81b03161790819055901c6001600160a01b031630146118ac575b5f80604051602081019063204a7f0760e21b82526004815261123960248261040b565b5190825f516020611d5a5f395f51905f525af150611255611b7c565b5061125e611b0c565b6002805465010000000000600160c81b031916602892831b65010000000000600160c81b03161790819055901c6001600160a01b031630146117d05760025460281c6001600160a01b03161561170c5760025460281c6001600160a01b03163b1561162f57604051638670236b60e01b60208201526001600160a01b0391821660248201529116604482015261130181606481015b03601f19810183528261040b565b600254604051635b0e93fb60e11b60208201526113489160281c6001600160a01b03166113438261133586602483016111a4565b03601f19810184528361040b565b611ce2565b6116295760025460408051631cff79cd60e01b60208201525f516020611d5a5f395f51905f526024820152604481019190915261139c9160281c6001600160a01b0316611343826113356064820187610441565b61162957600254604051630565bb6760e01b60208201526113d49160281c6001600160a01b03166113438261133586602483016111a4565b6116295760025460408051635f30016160e11b60208201525f516020611d5a5f395f51905f52602482015260448101919091526114289160281c6001600160a01b0316611343826113356064820187610441565b6116295760025460408051631376cd6560e31b60208201525f516020611d5a5f395f51905f526024820152604481019190915261147c9160281c6001600160a01b0316611343826113356064820187610441565b61162957600254604080516337d6e7b960e11b60208201525f516020611d5a5f395f51905f52602482015260448101919091526114d09160281c6001600160a01b0316611343826113356064820187610441565b61162957600254604051632224fa2560e01b60208201525f516020611d5a5f395f51905f5260248201525f604482018190526080606483015260a482015260a0608482015261153c92909160281c6001600160a01b0316906113439083906113359060c4830190610441565b6116245761154b6006546103d3565b601f81116115e4575b50609f60065560065f527f6f776e6572206973206120636f6e747261637420627574206578706f736573205f516020611d9a5f395f51905f52557f6e6f207375636365737366756c207075626c6963206578656375746f7220666f5f516020611d3a5f395f51905f52556e72207265636f76657241737365747360881b5f516020611d7a5f395f51905f52555f90565b60065f52601f0160051c5f516020611d9a5f395f51905f52015f516020611d1a5f395f51905f525b8181106116195750611554565b5f815560010161160c565b600190565b50600190565b505061163c6006546103d3565b601f81116116cc575b50608d60065560065f527f746172676574206f776e657220697320616e20454f413b206e6f207075626c695f516020611d9a5f395f51905f52557f63206f6e2d636861696e20726f7574652063616e2073617469736679206f6e6c5f516020611d3a5f395f51905f5255653ca7bbb732b960d11b5f516020611d7a5f395f51905f52555f90565b60065f52601f0160051c5f516020611d9a5f395f51905f52015f516020611d1a5f395f51905f525b8181106117015750611645565b5f81556001016116f4565b50506117196006546103d3565b601f8111611790575b50607960065560065f527f746172676574206f776e657220697320756e73657420616e6420696e697469615f516020611d9a5f395f51905f52557f6c697a6520646964206e6f7420636c61696d206f776e657273686970000000005f516020611d3a5f395f51905f52555f90565b60065f52601f0160051c5f516020611d9a5f395f51905f52015f516020611d7a5f395f51905f525b8181106117c55750611722565b5f81556001016117b8565b906117db8183611bbb565b6118a35750506117ec6006546103d3565b601f8111611863575b50606f60065560065f527f746172676574206f776e657220697320766572696669657220627574207265635f516020611d9a5f395f51905f52557f6f766572417373657473207374696c6c206661696c65640000000000000000005f516020611d3a5f395f51905f52555f90565b60065f52601f0160051c5f516020611d9a5f395f51905f52015f516020611d7a5f395f51905f525b81811061189857506117f5565b5f815560010161188b565b6111ce91611c16565b6118b68282611bbb565b1561121657906111ce91611c16565b604051630bd59ad360e01b81526001600160a01b0390911660048201525f816024815f516020611d5a5f395f51905f525afa5f918161190e575b5061190957505f90565b511590565b6119239192503d805f833e610ff1818361040b565b905f6118ff565b51906001600160a01b03821682036100db57565b519081151582036100db57565b906040519160c0830183811067ffffffffffffffff82111761042d576040525f8352602083015f815260408401905f825260608501925f845260808601915f835260a08701945f8652876040519363890db72f60e01b85526004850152610120846024815f516020611d5a5f395f51905f525afa955f935f5f935f968a5f995f9c611a11575b506119e5575b505050505050505050505050565b6001600160a01b03908116909152169052525215159052151590525f80808080808080808080806119d7565b99509a50509350509350610120853d8211611a93575b81611a35610120938361040b565b810103126100db57611a468561192a565b93611a536020870161192a565b92604087015190606088015194611a6c60808a0161193e565b97611a86610100611a7f60c08d0161193e565b9b0161193e565b5090929597989a5f6119d1565b3d9150611a27565b6040516370a0823160e01b81526001600160a01b0392831660048201529160209183916024918391165afa5f9181611ad8575b506111ce57505f90565b9091506020813d602011611b04575b81611af46020938361040b565b810103126100db5751905f611ace565b3d9150611ae7565b604051638da5cb5b60e01b81526020816004815f516020611d5a5f395f51905f525afa5f9181611b4057506111ce57505f90565b9091506020813d602011611b74575b81611b5c6020938361040b565b810103126100db57611b6d9061192a565b905f611ace565b3d9150611b4f565b3d15611bb6573d9067ffffffffffffffff821161042d5760405191611bab601f8201601f19166020018461040b565b82523d5f602084013e565b606090565b604051638670236b60e01b602082019081526001600160a01b0392831660248301529290911660448201525f918291611bf781606481016112f3565b5190825f516020611d5a5f395f51905f525af1611c12611b7c565b5090565b611c1f906118c5565b61162957604051630bd59ad360e01b81526001600160a01b0390911660048201819052905f816024815f516020611d5a5f395f51905f525afa5f9181611cc6575b50611c6b5750505f90565b905f5b8251811015611cbf57611c846106dc8285610e2c565b826080820151159182611ca8575b5050611ca057600101611c6e565b505050600190565b602001516001600160a01b0316149050825f611c92565b5050505f90565b611cdb9192503d805f833e610ff1818361040b565b905f611c60565b5f91829182602083519301915af1611cf8611b7c565b5015611d15576003546111ce9030906001600160a01b0316611c16565b5f9056fef652222313e28459528d920b65115c16c04f3efc82aaedc97be59f3f377c0d42f652222313e28459528d920b65115c16c04f3efc82aaedc97be59f3f377c0d40000000000000000000000000e2fe530c047f2d85298b07d9333c05737f1435fbf652222313e28459528d920b65115c16c04f3efc82aaedc97be59f3f377c0d41f652222313e28459528d920b65115c16c04f3efc82aaedc97be59f3f377c0d3fa264697066735822122020a94a4fd0d533170b7a46d00d9dbe38ce914b8c51013b15c332cb2f0a94df0664736f6c634300081e0033","linkReferences":{}},"methodIdentifiers":{"TARGET()":"cc1f2afa","executeOnOpportunity()":"3c2448ed","exploitPathUsed()":"d78c4281","failureReason()":"4f9522a4","hypothesisRefuted()":"495f92f1","hypothesisValidated()":"463defd1","profitAchieved()":"f0a01176","profitAmount()":"5ff972cc","profitToken()":"49343624","recoverStageReached()":"a0b93731","selectedDepositId()":"416cc559","selectedVictim()":"47e59f14","targetOwner()":"34c7f894","victimIndexCleared()":"cd0e34ee"},"id":0}