{"abi":[{"type":"constructor","inputs":[],"stateMutability":"nonpayable"},{"type":"receive","stateMutability":"payable"},{"type":"function","name":"TARGET_COMPTROLLER","inputs":[],"outputs":[{"name":"","type":"address","internalType":"address"}],"stateMutability":"view"},{"type":"function","name":"executeCandidate","inputs":[{"name":"candidate","type":"tuple","internalType":"struct FlawVerifier.CollateralCandidate","components":[{"name":"cCollateral","type":"address","internalType":"address"},{"name":"collateralToken","type":"address","internalType":"address"},{"name":"collateralOracle","type":"address","internalType":"address"},{"name":"originalCollateralPrice","type":"uint256","internalType":"uint256"},{"name":"collateralFactorMantissa","type":"uint256","internalType":"uint256"},{"name":"directAmount","type":"uint256","internalType":"uint256"},{"name":"flashPair","type":"address","internalType":"address"},{"name":"dexFactory","type":"address","internalType":"address"},{"name":"dexRouter","type":"address","internalType":"address"},{"name":"flashAmount","type":"uint256","internalType":"uint256"}]}],"outputs":[],"stateMutability":"nonpayable"},{"type":"function","name":"executeOnOpportunity","inputs":[],"outputs":[],"stateMutability":"nonpayable"},{"type":"function","name":"profitAmount","inputs":[],"outputs":[{"name":"","type":"uint256","internalType":"uint256"}],"stateMutability":"view"},{"type":"function","name":"profitToken","inputs":[],"outputs":[{"name":"","type":"address","internalType":"address"}],"stateMutability":"view"},{"type":"function","name":"sushiCall","inputs":[{"name":"sender","type":"address","internalType":"address"},{"name":"amount0","type":"uint256","internalType":"uint256"},{"name":"amount1","type":"uint256","internalType":"uint256"},{"name":"","type":"bytes","internalType":"bytes"}],"outputs":[],"stateMutability":"nonpayable"},{"type":"function","name":"uniswapV2Call","inputs":[{"name":"sender","type":"address","internalType":"address"},{"name":"amount0","type":"uint256","internalType":"uint256"},{"name":"amount1","type":"uint256","internalType":"uint256"},{"name":"","type":"bytes","internalType":"bytes"}],"outputs":[],"stateMutability":"nonpayable"}],"bytecode":{"object":"0x60808060405234601557613439908161001a8239f35b5f80fdfe6080604052600436101561001a575b3615610018575f80fd5b005b5f3560e01c80629914031461011257806310d1e85c146101125780633c2448ed146100fa57806349343624146100d35780635ff972cc146100b657806368510be1146100885763ae42fd200361000e573461008457610140366003190112610084576100186109c0565b5f80fd5b34610084575f366003190112610084576020604051733f2d1bc6d02522dbcdb216b2e75edddafe04b16f8152f35b34610084575f366003190112610084576020600154604051908152f35b34610084575f366003190112610084575f546040516001600160a01b039091168152602090f35b34610084575f36600319011261008457610018610793565b34610084576080366003190112610084576004356001600160a01b0381169081810361008457506024356044359160643567ffffffffffffffff811161008457366023820112156100845780600401359067ffffffffffffffff821161008457366024838301011161008457505030036106ad576006546001600160a01b0316913383900361067d5781156106755750905b60095490818303610643576002546003546004546005546007546040516001600160a01b03938416989297918416959484169492939092166101e861014084610771565b8083526020830185815260408401998a52606084019889525f6080850181905260a085015260c0840197885260e08401879052610100840196875261012084019290925290936102469184916001600160a01b0391821691166115ec565b805160405163140e25ad60e31b81526004810184905290602090829060249082905f906001600160a01b03165af1908115610638575f91610606575b506105d3578051604080519097916102e3915f916001600160a01b03166102a98b83610771565b60018252601f198b013660208401376102c1826106df565b52895180938192631853304760e31b8352602060048401526024830190611774565b038183733f2d1bc6d02522dbcdb216b2e75edddafe04b16f5af15f91816105b7575b5061032657875162461bcd60e51b815280610322600482016117b0565b0390fd5b8051151590816105a5575b501561058d579061038f9161036561034982516117d7565b8a51845188516001600160a01b03908116929181169116611822565b6103706001836118fb565b9851915185519151926001600160a01b03928316929182169116611822565b6103e88102908082046103e81490151715610579576103e5900491600183018093116105795760208601805182516080890180519399610446955f959094929361040a936103ea92916001600160a01b0390811691166115ec565b8a51875160a092909201516001600160a01b0390811692811691166122f8565b9160018060a01b039051169051838951809681958294634401edf760e11b84528b6004850152602484015260a0604484015260a4830190611774565b30606483015242608483015203925af1801561056f576104a96104b75f9694879694879461054f575b50519451885163a9059cbb60e01b602082019081526001600160a01b03928316602483015260448201969096529516949182906064820190565b03601f198101835282610771565b51925af16104c36115a0565b81610518575b50156104e3578151610018906001600160a01b03166119a9565b5162461bcd60e51b815260206004820152600f60248201526e1d1c985b9cd9995c8b59985a5b1959608a1b6044820152606490fd5b805180159250821561052d575b50505f6104c9565b819250906020918101031261008457602061054891016115df565b5f80610525565b61056a903d8087833e6105628183610771565b8101906116fa565b61046f565b85513d5f823e3d90fd5b634e487b7160e01b5f52601160045260245ffd5b865162461bcd60e51b815280610322600482016117b0565b6105af91506106df565b51155f610331565b6105cc9192503d805f833e6105628183610771565b905f610305565b60405162461bcd60e51b815260206004820152600b60248201526a1b5a5b9d0b59985a5b195960aa1b6044820152606490fd5b90506020813d602011610630575b8161062160209383610771565b8101031261008457515f610282565b3d9150610614565b6040513d5f823e3d90fd5b60405162461bcd60e51b815260206004820152600a6024820152691898590b585b5bdd5b9d60b21b6044820152606490fd5b9050906101a4565b60405162461bcd60e51b81526020600482015260086024820152673130b216b830b4b960c11b6044820152606490fd5b60405162461bcd60e51b815260206004820152600a6024820152693130b216b9b2b73232b960b11b6044820152606490fd5b8051156106ec5760200190565b634e487b7160e01b5f52603260045260245ffd5b8051600110156106ec5760400190565b80518210156106ec5760209160051b010190565b610140810190811067ffffffffffffffff82111761074157604052565b634e487b7160e01b5f52604160045260245ffd5b6080810190811067ffffffffffffffff82111761074157604052565b90601f8019910116810190811067ffffffffffffffff82111761074157604052565b5f80546001600160a01b03191681556001556107ad610ea0565b805190604082116109b7575b5f5b600281106108265750505f546001600160a01b0316151590508061081b575b156107e157565b60405162461bcd60e51b81526020600482015260126024820152711b9bcb5c1c9bd99a5d0b5c99585b1a5e995960721b6044820152606490fd5b5060015415156107da565b80155f5b6002811061083c5750506001016107bb565b5f9492945b838110610854575060010193919361082a565b9094929390610876866001600160a01b0361086f8486610710565b5116611026565b156109ae5760a081019084825115816109a6575b811561098a575b5061098057303b15610084576040805163057217e960e51b815282516001600160a01b03908116600483015260208401518116602483015291830151821660448201526060830151606482015260808301516084820152925160a484015260c0820151811660c484015260e0820151811660e48401526101008201511661010483015261012001516101248201525f816101448183305af19081610970575b50610945575b6001905b019490939294610841565b5f546001600160a01b0316151580610965575b1561093657505050505050565b506001541515610958565b5f61097a91610771565b5f610930565b505060019061093a565b6001881491508161099d575b505f610891565b9050155f610996565b90508061088a565b5060019061093a565b604091506107b9565b303303610e4357610140366003190112610084576040516109e081610724565b6004356001600160a01b03811681036100845781526024356001600160a01b038116810361008457602082019081526044356001600160a01b0381168103610084576040830190815260643560608401908152608435608085015260a43560a085018190529160c435916001600160a01b03831683036100845760c0860192835260e435956001600160a01b03871687036100845760e0810196875261010435906001600160a01b038216820361008457610100810191825261012081019561012435875280610c3b575084516001600160a01b0316151580610c31575b15610bf95751865193519251855198519251875160405161010081019b91976001600160a01b039384169796841696928416959284169390811692169067ffffffffffffffff8d11818e10176107415760e08991610bd79e6040528381528460208201528560408201528660608201528760808201528860a08201528960c082015201526001600160601b0360a01b60025416176002556001600160601b0360a01b60035416176003556001600160601b0360a01b60045416176004556005556001600160601b0360a01b60065416176006556001600160601b0360a01b60075416176007556001600160601b0360a01b600854161760085560095560018060a01b039051169160018060a01b03905116905191611149565b5f6002555f6003555f6004555f6005555f6006555f6007555f6008555f600955565b60405162461bcd60e51b815260206004820152601060248201526f6e6f2d66756e64696e672d726f75746560801b6044820152606490fd5b5085511515610abe565b87518251989a995094979196509294505f936020939250610c6a9183916001600160a01b0391821691166115ec565b845160405163140e25ad60e31b815260048101929092529092839160249183916001600160a01b03165af1908115610638575f91610e11575b506105d357815160408051909691610d04915f916001600160a01b0316610cca8a83610771565b60018252601f198a01366020840137610ce2826106df565b52885180938192631853304760e31b8352602060048401526024830190611774565b038183733f2d1bc6d02522dbcdb216b2e75edddafe04b16f5af15f9181610df5575b50610d4357865162461bcd60e51b815280610322600482016117b0565b80969192939495965115159081610de3575b5015610dcc575091610db891610dca9493610d8f610d7383516117d7565b8651855184516001600160a01b03908116929181169116611822565b610d995f846118fb565b9451925190519151926001600160a01b03928316929182169116611822565b602001516001600160a01b03166119a9565b565b5162461bcd60e51b815280610322600482016117b0565b610ded91506106df565b51155f610d55565b610e0a9192503d805f833e6105628183610771565b905f610d26565b90506020813d602011610e3b575b81610e2c60209383610771565b8101031261008457515f610ca3565b3d9150610e1f565b60405162461bcd60e51b815260206004820152600960248201526873656c662d6f6e6c7960b81b6044820152606490fd5b67ffffffffffffffff81116107415760051b60200190565b51906001600160a01b038216820361008457565b60405163b0772d0b60e01b81525f81600481733f2d1bc6d02522dbcdb216b2e75edddafe04b16f5afa5f9181610f2e575b50610f2b575060405190610820610ee88184610771565b60408352601f1901366020840137815f5b60408110610f05575050565b80610f11600192611364565b610f1b8285610710565b90838060a01b0316905201610ef9565b90565b9091503d805f833e610f408183610771565b8101906020818303126100845780519067ffffffffffffffff821161008457019080601f83011215610084578151610f7781610e74565b92610f856040519485610771565b81845260208085019260051b82010192831161008457602001905b828210610fb157505050905f610ed1565b60208091610fbe84610e8c565b815201910190610fa0565b60405190610fd682610724565b5f610120838281528260208201528260408201528260608201528260808201528260a08201528260c08201528260e0820152826101008201520152565b8181029291811591840414171561057957565b61103890611032610fc9565b506113e2565b939180939193941561111d575080159081611114575b81156110fc575b506110f75760208301516060840151611076916001600160a01b0316611529565b6101208901919091526001600160a01b0391821661010089015291811660e088015290911660c086015260a085019190915280156110f1576080840151906001820180921161057957670de0b6b3a7640000916110d291611013565b04916110da57565b908060011b90808204600214901517156105795790565b505f9150565b5f9150565b60019150148061110d575b5f611055565b5081611107565b8315915061104e565b93505f925050565b805180835260209291819084018484015e5f828201840152601f01601f1916010190565b604051630dfe168160e01b8152926001600160a01b039190911690602084600481855afa8015610638575f945f9161132a575b5060405163d21220a760e01b8152602081600481875afa908115610638575f916112f0575b506040519460016020870152602086526111bc604087610771565b6001600160a01b039081169216821461128c576001600160a01b03160361125757813b1561125357918391611221938360405180968195829463022c0d9f60e01b84528460048501526024840152306044840152608060648401526084830190611125565b03925af1801561124857611233575050565b61123e828092610771565b6112455750565b80fd5b6040513d84823e3d90fd5b8380fd5b60405162461bcd60e51b815260206004820152600d60248201526c0e0c2d2e45adad2e6dac2e8c6d609b1b6044820152606490fd5b505091908093503b15610084576112d5925f928360405180968195829463022c0d9f60e01b84526004840152836024840152306044840152608060648401526084830190611125565b03925af18015610638576112e65750565b5f610dca91610771565b90506020813d602011611322575b8161130b60209383610771565b810103126100845761131c90610e8c565b5f6111a1565b3d91506112fe565b90506020813d60201161135c575b8161134560209383610771565b810103126100845761135690610e8c565b5f61117c565b3d9150611338565b6040519063296c268f60e11b82526004820152602081602481733f2d1bc6d02522dbcdb216b2e75edddafe04b16f5afa5f91816113a6575b50610f2b57505f90565b9091506020813d6020116113da575b816113c260209383610771565b81010312610084576113d390610e8c565b905f61139c565b3d91506113b5565b6113ea610fc9565b916001600160a01b0382169182156115215761140581611ac3565b9190158015611519575b61150f5761141c81611b5d565b156115045761142a82611be0565b929092156114f8576001600160a01b03906114489084908490611c6b565b169081156114f8576001600160a01b031673c02aaa39b223fe8d0a0e5c4f27ead9083c756cc2811480156114db575b80156114be575b80156114a1575b9587526020870152604086015260608501526080840152600190565b50736b175474e89094c44da98b954eedeac495271d0f8114611485565b5073dac17f958d2ee523a2206206994597c13d831ec7811461147e565b5073a0b86991c6218b36c1d19d4a2e9eb0ce3606eb488114611477565b505f9450849392505050565b505f93508392915050565b505f925082919050565b50811561140f565b505f91508190565b916115343084611cb5565b92836115895761154390611d29565b929491939092916001600160a01b03861615838115611580575b5061156c57610f2b9083611013565b505f95508594508493508392508291508190565b9050155f61155d565b50906115959083611013565b5f915f915f915f9190565b3d156115da573d9067ffffffffffffffff821161074157604051916115cf601f8201601f191660200184610771565b82523d5f602084013e565b606090565b5190811515820361008457565b5f9291836104a961167382958380604051602081019063095ea7b360e01b825260018060a01b03891660248201528260448201526044815261162f606482610771565b5190828a5af15061163e6115a0565b5060405163095ea7b360e01b602082019081526001600160a01b03909616602482015260448101919091529182906064820190565b51925af161167f6115a0565b816116c3575b501561168d57565b60405162461bcd60e51b815260206004820152600e60248201526d185c1c1c9bdd994b59985a5b195960921b6044820152606490fd5b80518015925082156116d8575b50505f611685565b81925090602091810103126100845760206116f391016115df565b5f806116d0565b6020818303126100845780519067ffffffffffffffff821161008457019080601f8301121561008457815161172e81610e74565b9261173c6040519485610771565b81845260208085019260051b82010192831161008457602001905b8282106117645750505090565b8151815260209182019101611757565b90602080835192838152019201905f5b8181106117915750505090565b82516001600160a01b0316845260209384019390920191600101611784565b60609060208152600c60208201526b195b9d195c8b59985a5b195960a21b60408201520190565b801561181d577d10c6f7a0b5ed8d36b4c7f34938583621fafc8b0079a2834d26fa3fcc9ea9811161181757620f42408102908104620f4240036105795790565b505f1990565b505f90565b929091611833600483838688611dfe565b6118b4576001600160a01b03611847611f36565b16936001600160a01b0316841415928361189e575b5050509050610dca5760405162461bcd60e51b81526020600482015260116024820152701bdc9858db194b5cd95d0b59985a5b1959607a1b6044820152606490fd5b600493506118ab94611dfe565b805f808061185c565b50505050565b6040519060c0820182811067ffffffffffffffff821117610741576040525f60a0838281528260208201528260408201528260608201528260808201520152565b906119046118ba565b5061190d610ea0565b908151926040841161198f575b5f5b84811061195b5760405162461bcd60e51b815260206004820152601060248201526f1b9bcb589bdc9c9bddcb5b585c9ad95d60821b6044820152606490fd5b611979836001600160a01b036119718488610710565b511684611fb5565b611986575060010161191c565b94505050505090565b6040935061191a565b9060048110156106ec5760051b0190565b6119b33082611cb5565b9081611aa55750506040516119c781610755565b73c02aaa39b223fe8d0a0e5c4f27ead9083c756cc2815273a0b86991c6218b36c1d19d4a2e9eb0ce3606eb48602082015273dac17f958d2ee523a2206206994597c13d831ec76040820152736b175474e89094c44da98b954eedeac495271d0f60608201525f905b60048210611a4d5750505f80546001600160a01b0319168155600155565b611a6a306001600160a01b03611a638585611998565b5116611cb5565b9182611a7a576001019150611a2f565b6001600160a01b0391611a8d9190611998565b51166001600160601b0360a01b5f5416175f55600155565b60018060a01b03166001600160601b0360a01b5f5416175f55600155565b60408051638e8f294b60e01b81526001600160a01b03909216600483015290919082602481733f2d1bc6d02522dbcdb216b2e75edddafe04b16f5afa91825f915f94611b1b575b50611b1757505f91508190565b9190565b915092506040813d604011611b55575b81611b3860409383610771565b81010312610084576020611b4b826115df565b910151925f611b0a565b3d9150611b2b565b604051636f307dc360e01b815290602090829060049082906001600160a01b03165afa5f9181611ba4575b50611b9457505f905f90565b906001600160a01b038216151590565b9091506020813d602011611bd8575b81611bc060209383610771565b8101031261008457611bd190610e8c565b905f611b88565b3d9150611bb3565b5f9081906001600160a01b03611bf4611f36565b1690604051602081019163fc57d4df60e01b835260018060a01b0316602482015260248152611c24604482610771565b51915afa611c306115a0565b90158015611c60575b611c59576020815191818082019384920101031261008457519081151590565b505f905f90565b506020815110611c39565b91611c8b6004826001600160a01b03611c82611f36565b169486866123b5565b926001600160a01b038416611caf5782611ca69394506124f9565b610f2b57505f90565b50505090565b6040516370a0823160e01b602082019081526001600160a01b0390931660248083019190915281525f92839291611ced604482610771565b51915afa611cf96115a0565b90158015611d1e575b61181d5760208151918180820193849201010312610084575190565b506020815110611d02565b5f905f90611d368161258b565b906001600160a01b038116151580611de7575b611db3575050611d5890612718565b909381856001600160a01b038116151580611daa575b611d76575050565b955073c0aee478e3658e2610c5f7a4a2e1777ce9e4f2ac945073d9e1ce17f2641f24ae83637ab66a2cca9c378b9f93509150565b50811515611d6e565b94735c69bee701ef814a2b6a3edd4b1652cb9cc5aa6f9450737a250d5630b4cf539739df2c5dacb4c659f2488d9350909150565b50811515611d49565b5f1981019190821161057957565b6001600160a01b038116939291908415611f2c57611e1e84848484612899565b611ef1578515611f2c57611e328382612981565b6001600160a01b03811680151590879082611f21575b5050611f07575b50611e5a8282612981565b6001600160a01b03811680151590879082611efc575b5050611ed7575b50611e81906129fe565b936001600160a01b038516801515919082611ecc575b5050611ea7575b50505050505f90565b611eb3611eb995611df0565b93611dfe565b611ec7575f80808080611e9e565b600190565b141590505f80611e97565b611ee790858585611eb38b611df0565b611ef1575f611e77565b505050505050600190565b14159050865f611e70565b611f1790858585611eb38b611df0565b611ef1575f611e4f565b14159050865f611e48565b5050505050505f90565b6040516307dc0d1d60e41b8152602081600481733f2d1bc6d02522dbcdb216b2e75edddafe04b16f5afa908115610638575f91611f7b575b506001600160a01b031690565b90506020813d602011611fad575b81611f9660209383610771565b8101031261008457611fa790610e8c565b5f611f6e565b3d9150611f89565b90929192611fc16118ba565b936001600160a01b038216801580156122e5575b61229b57808652611fe583611b5d565b1580156122cc575b611e9e576001600160a01b0316602087018190528290816122a3575b5061229b5761201783612cb8565b158015612293575b611e9e5761202c84611be0565b90606089015215611e9e57602087015160608801516001600160a01b03916120579190831687611c6b565b1680604089015215611e9e57606087016120718151612d1b565b60408901805160208b0180519394929390929161209e9186916001600160a01b03918216918c9116611822565b6120a730612d3b565b50939015801561228b575b61226357505050906120c391612de2565b90606381029080820460631490151715610579576064900490605f810290808204605f149015171561057957606490048082101561225c57505b806080880152801590811561224a575b5061221c5760205f9160246080890151604051948593849263317afabb60e21b845260048401525af1908115610638575f916121ea575b506121b857604085015160208601805160608801519194612171936001600160a01b039283169216611822565b156121b05760e0820151905160209092015161219d926001600160a01b03918216929082169116612eca565b6001600160a01b031660a0830152600190565b50505f61219d565b506040840151602085015160608601519495946121e59450926001600160a01b0391821692909116611822565b905f90565b90506020813d602011612214575b8161220560209383610771565b8101031261008457515f612144565b3d91506121f8565b50506040840151602085015160608601519495946121e59450926001600160a01b0391821692909116611822565b612255915084612e34565b155f61210d565b90506120fd565b5191519051999a996121e59950976001600160a01b0391821697509550169250611822915050565b5083156120b2565b50801561201f565b505050505f90565b60e086015160208701516122c593506001600160a01b03908116929116612a22565b155f612009565b5060208501516001600160a01b03828116911614611fed565b5083516001600160a01b03168114611fd5565b92916001600160a01b03166060811561236757506040519061231b608083610771565b6003825260603660208401378194612332836106df565b6001600160a01b03909116905261234882610700565b528051600210156106ec576001600160a01b0390911660609190910152565b604051939491506123788185610771565b60028452601f190136602085013761238f836106df565b6001600160a01b0390911690526123a582610700565b6001600160a01b03909116905290565b6001600160a01b038116939291908415611f2c576123d584848484613169565b611986578515611f2c576123e98382612981565b6001600160a01b038116801515908790826124ee575b50506124c5575b506124118282612981565b6001600160a01b038116801515908790826124ba575b5050612491575b50612438906129fe565b936001600160a01b038516801515919082612486575b505061245d5750505050505f90565b61246961246f95611df0565b936123b5565b6001600160a01b038116610f2b5780808080611e9e565b141590505f8061244e565b6124a1908585856124698b611df0565b6001600160a01b0381161561242e579550505050505090565b14159050865f612427565b6124d5908585856124698b611df0565b6001600160a01b03811615612406579550505050505090565b14159050865f6123ff565b60405163fc57d4df60e01b602082019081526001600160a01b0390931660248083019190915281525f92839291612531604482610771565b51915afa61253d6115a0565b90158015612580575b61257a5760208151918180820193849201010312610084575190811561257a57801591821561257457505090565b14919050565b50505f90565b506020815110612546565b5f915f9160405161259b81610755565b73c02aaa39b223fe8d0a0e5c4f27ead9083c756cc2815273a0b86991c6218b36c1d19d4a2e9eb0ce3606eb48602082015273dac17f958d2ee523a2206206994597c13d831ec76040820152736b175474e89094c44da98b954eedeac495271d0f60608201525f5b6004811061260f57505050565b6001600160a01b036126218284611998565b5116956001600160a01b038416871461270e575060405163e6a4390560e01b81526001600160a01b038481166004830152969096166024870152939493602085604481735c69bee701ef814a2b6a3edd4b1652cb9cc5aa6f5afa948515610638575f956126d3575b5093948594906001600160a01b038616156126c957506126b16126ac8487613225565b6133b5565b94856126c257506001905b01612602565b9550505050565b94506001906126bc565b9094506020813d8211612706575b816126ee60209383610771565b81010312610084576126ff90610e8c565b935f612689565b3d91506126e1565b95506001906126bc565b5f915f9160405161272881610755565b73c02aaa39b223fe8d0a0e5c4f27ead9083c756cc2815273a0b86991c6218b36c1d19d4a2e9eb0ce3606eb48602082015273dac17f958d2ee523a2206206994597c13d831ec76040820152736b175474e89094c44da98b954eedeac495271d0f60608201525f5b6004811061279c57505050565b6001600160a01b036127ae8284611998565b5116956001600160a01b038416871461288f575060405163e6a4390560e01b81526001600160a01b03848116600483015296909616602487015293949360208560448173c0aee478e3658e2610c5f7a4a2e1777ce9e4f2ac5afa948515610638575f95612854575b5093948594906001600160a01b0386161561284a57506128396126ac8487613225565b94856126c257506001905b0161278f565b9450600190612844565b9094506020813d8211612887575b8161286f60209383610771565b810103126100845761288090610e8c565b935f612816565b3d9150612862565b9550600190612844565b919291906001600160a01b0382161561229b576040516293ffed60e51b602082019081526001600160a01b039092166024820152604481018490525f9182916128e581606481016104a9565b519082855af16128f36115a0565b5061295a576001600160a01b0383161561295357604051629a8acb60e41b602082019081526001600160a01b03909416602482015260448101929092525f928392839061294381606481016104a9565b51925af161294f6115a0565b5090565b5050505f90565b505050600190565b9081602091031261008457516001600160a01b03811681036100845790565b60405163addd509960e01b602082019081526001600160a01b0390931660248083019190915281525f928392916129b9604482610771565b51915afa6129c56115a0565b901580156129f3575b61181d5780516001600160a01b03916129ef91810160209081019101612962565b1690565b5060208151106129ce565b5f809160405160208101906380dce16960e01b8252600481526129b9602482610771565b6001600160a01b03838116939083169291838514612c745760405163e6a4390560e01b81526001600160a01b0384811660048301528381166024830152919091169290602081604481875afa908115610638575f91612c7e575b506001600160a01b0316612c745760405194612a9786610755565b73c02aaa39b223fe8d0a0e5c4f27ead9083c756cc2865273a0b86991c6218b36c1d19d4a2e9eb0ce3606eb48602087015273dac17f958d2ee523a2206206994597c13d831ec76040870152736b175474e89094c44da98b954eedeac495271d0f60608701525f5b60048110612b1157505050505050505f90565b6001600160a01b03612b238289611998565b51168681148015612c6b575b612c625760405163e6a4390560e01b81526001600160a01b038581166004830152821660248201526020816044818a5afa80156106385786915f91612c27575b506001600160a01b031615159182612b9e575b5050612b92576001905b01612afe565b50505050505050600190565b60405163e6a4390560e01b81526001600160a01b039182166004820152911660248201529050602081604481895afa908115610638575f91612bee575b506001600160a01b03161515845f612b82565b90506020813d8211612c1f575b81612c0860209383610771565b8101031261008457612c1990610e8c565b5f612bdb565b3d9150612bfb565b9150506020813d8211612c5a575b81612c4260209383610771565b8101031261008457612c548691610e8c565b5f612b6f565b3d9150612c35565b50600190612b8c565b50828114612b2f565b5050505050600190565b90506020813d602011612cb0575b81612c9960209383610771565b8101031261008457612caa90610e8c565b5f612a7c565b3d9150612c8c565b5f80916040516020810190631d8e90d160e11b825260048152612cdc602482610771565b51915afa612ce86115a0565b90158015612d10575b611c595760208151918180820193849201010312610084575190600190565b506020815110612cf1565b6001811115612d3557620f4240900480610f2b5750600190565b50600190565b5f80916040516020810191635ec88c7960e01b835260018060a01b0316602482015260248152612d6c604482610771565b5190733f2d1bc6d02522dbcdb216b2e75edddafe04b16f5afa90612d8e6115a0565b91158015612dd7575b612dce57606082805181010312610084576020820151906060604084015193015191612dc4576001929190565b5f92508291508190565b5f915081908190565b506060825110612d97565b811561257a577812725dd1d243aba0e75fe645cc4873f9e65afe688c928e1f218111612e2d57670de0b6b3a7640000810290808204670de0b6b3a76400001490151715610579570490565b50505f1990565b60405163368f515360e21b602082019081526001600160a01b0390921660248201523060448201526064808201939093529182525f91829190612e78608482610771565b5190733f2d1bc6d02522dbcdb216b2e75edddafe04b16f5afa612e996115a0565b90158015612ebf575b612d35576020815191818082019384920101031261008457511590565b506020815110612ea2565b6001600160a01b0383811693908316929183851480156130d5575b611e9e5760405194612ef686610755565b73c02aaa39b223fe8d0a0e5c4f27ead9083c756cc2865273a0b86991c6218b36c1d19d4a2e9eb0ce3606eb48602087015273dac17f958d2ee523a2206206994597c13d831ec76040870152736b175474e89094c44da98b954eedeac495271d0f60608701525f5b60048110612f7057505050505050505f90565b6001600160a01b03612f828289611998565b511686811480156130cc575b6130c35760405163e6a4390560e01b81526001600160a01b0387811660048301528281166024830152851690602081604481855afa908115610638575f9161308a575b506001600160a01b031615159081612fff575b50612ff457506001905b01612f5d565b965050505050505090565b60405163e6a4390560e01b81526001600160a01b038481166004830152881660248201529150602090829060449082905afa908115610638575f91613051575b506001600160a01b031615155f612fe4565b90506020813d8211613082575b8161306b60209383610771565b810103126100845761307c90610e8c565b5f61303f565b3d915061305e565b90506020813d82116130bb575b816130a460209383610771565b81010312610084576130b590610e8c565b5f612fd1565b3d9150613097565b50600190612fee565b50828114612f8e565b5060405163e6a4390560e01b81526001600160a01b03808516600483015283166024820152602081806044810103816001600160a01b0386165afa908115610638575f9161312f575b506001600160a01b03161515612ee5565b90506020813d602011613161575b8161314a60209383610771565b810103126100845761315b90610e8c565b5f61311e565b3d915061313d565b91908361317691846124f9565b15612953575f91829160405160208101916317a6948f60e21b835260018060a01b03166024820152602481526131ad604482610771565b51915afa6131b96115a0565b90158015613206575b6131ff5760208151918180820193849201010312610084575180151591826131e957505090565b801592509082156131f957505090565b14905090565b5050600190565b5060208151106131c2565b51906001600160701b038216820361008457565b604051630240bc6b60e21b815291906001600160a01b0316606083600481845afa928315610638575f905f9461335d575b50604051630dfe168160e01b815292602084600481865afa938415610638575f94613321575b506001600160a01b0390811693168314613311575060206004916040519283809263d21220a760e01b82525afa908115610638575f916132d7575b506001600160a01b0316146132cb57505f90565b6001600160701b031690565b90506020813d602011613309575b816132f260209383610771565b810103126100845761330390610e8c565b5f6132b7565b3d91506132e5565b6001600160701b03169392505050565b9093506020813d602011613355575b8161333d60209383610771565b810103126100845761334e90610e8c565b925f61327c565b3d9150613330565b9350506060833d6060116133ad575b8161337960609383610771565b810103126100845761338a83613211565b604061339860208601613211565b94015163ffffffff811603610084575f613256565b3d915061336c565b606481111561181d5761271081049081156133f8575b81156133ed575b808210156133de575090565b5f198101915081116105795790565b600a810491506133d2565b6064810491506133cb56fea26469706673582212202a64e755d6843ac6402dce4f49d767194d2e8cdb9b9931811c9f360acf4b0aee64736f6c634300081e0033","linkReferences":{}},"methodIdentifiers":{"TARGET_COMPTROLLER()":"68510be1","executeCandidate((address,address,address,uint256,uint256,uint256,address,address,address,uint256))":"ae42fd20","executeOnOpportunity()":"3c2448ed","profitAmount()":"5ff972cc","profitToken()":"49343624","sushiCall(address,uint256,uint256,bytes)":"00991403","uniswapV2Call(address,uint256,uint256,bytes)":"10d1e85c"},"id":0}