{"abi":[{"type":"constructor","inputs":[],"stateMutability":"nonpayable"},{"type":"receive","stateMutability":"payable"},{"type":"function","name":"DAI","inputs":[],"outputs":[{"name":"","type":"address","internalType":"address"}],"stateMutability":"view"},{"type":"function","name":"SUSHISWAP_FACTORY","inputs":[],"outputs":[{"name":"","type":"address","internalType":"address"}],"stateMutability":"view"},{"type":"function","name":"TARGET","inputs":[],"outputs":[{"name":"","type":"address","internalType":"address"}],"stateMutability":"view"},{"type":"function","name":"UNISWAP_V2_FACTORY","inputs":[],"outputs":[{"name":"","type":"address","internalType":"address"}],"stateMutability":"view"},{"type":"function","name":"USDC","inputs":[],"outputs":[{"name":"","type":"address","internalType":"address"}],"stateMutability":"view"},{"type":"function","name":"USDT","inputs":[],"outputs":[{"name":"","type":"address","internalType":"address"}],"stateMutability":"view"},{"type":"function","name":"WETH","inputs":[],"outputs":[{"name":"","type":"address","internalType":"address"}],"stateMutability":"view"},{"type":"function","name":"_attemptForcedDeposit","inputs":[{"name":"chosenAmount","type":"uint256","internalType":"uint256"}],"outputs":[],"stateMutability":"nonpayable"},{"type":"function","name":"_attemptForcedWithdraw","inputs":[{"name":"chosenAmount","type":"uint256","internalType":"uint256"},{"name":"shareAmount","type":"uint256","internalType":"uint256"}],"outputs":[],"stateMutability":"nonpayable"},{"type":"function","name":"_runFlashswap","inputs":[{"name":"seedWeth","type":"uint256","internalType":"uint256"}],"outputs":[],"stateMutability":"nonpayable"},{"type":"function","name":"attempted","inputs":[],"outputs":[{"name":"","type":"bool","internalType":"bool"}],"stateMutability":"view"},{"type":"function","name":"executeOnOpportunity","inputs":[],"outputs":[],"stateMutability":"nonpayable"},{"type":"function","name":"profitAmount","inputs":[],"outputs":[{"name":"","type":"uint256","internalType":"uint256"}],"stateMutability":"view"},{"type":"function","name":"profitToken","inputs":[],"outputs":[{"name":"","type":"address","internalType":"address"}],"stateMutability":"pure"},{"type":"function","name":"uniswapV2Call","inputs":[{"name":"sender","type":"address","internalType":"address"},{"name":"amount0","type":"uint256","internalType":"uint256"},{"name":"amount1","type":"uint256","internalType":"uint256"},{"name":"data","type":"bytes","internalType":"bytes"}],"outputs":[],"stateMutability":"nonpayable"}],"bytecode":{"object":"0x60808060405234601557611802908161001a8239f35b5f80fdfe608080604052600436101561001c575b50361561001a575f80fd5b005b5f905f3560e01c90816310d1e85c146106ad575080633c2448ed1461069457806342f422f0146104b45780634934362414610376578063495c0f9b146104855780635ff972cc1461046757806360eaf3db1461041e57806389a30271146103ef578063917f51b4146103cd57806399d8fae31461039e578063ad5c464814610376578063c54e44eb14610347578063cc1f2afa1461031f578063e0bab4c4146102f05763f6251ca60361000f57346101c45760403660031901126101c4576024356100e8303314610d1d565b60405163647a51dd60e01b81526020816004815f51602061178d5f395f51905f525afa9081156102b65783916102c1575b50811515908161023e575b501561020c5761015360405161013b604082610b10565b6003815262183c1960e91b60208201526004356113f0565b5f51602061178d5f395f51905f5231156101d55781905f51602061178d5f395f51905f523b156101d25760405190632e1a7d4d60e01b825260048201528181602481835f51602061178d5f395f51905f525af180156101c7576101b35750f35b816101bd91610b10565b6101c45780f35b80fd5b6040513d84823e3d90fd5b50fd5b60405162461bcd60e51b815260206004820152600f60248201526e0dcde40e6e8e4c2dcc8cac840cae8d608b1b6044820152606490fd5b60405162461bcd60e51b815260206004820152600a6024820152696261642073686172657360b01b6044820152606490fd5b6040516370a0823160e01b81523060048201529150602090829060249082906001600160a01b03165afa9081156102b6578391610280575b508111155f610124565b90506020813d6020116102ae575b8161029b60209383610b10565b810103126102aa57515f610276565b5f80fd5b3d915061028e565b6040513d85823e3d90fd5b6102e3915060203d6020116102e9575b6102db8183610b10565b810190610b46565b5f610119565b503d6102d1565b50346101c457806003193601126101c4576020604051736b175474e89094c44da98b954eedeac495271d0f8152f35b50346101c457806003193601126101c45760206040515f51602061178d5f395f51905f528152f35b50346101c457806003193601126101c457602060405173dac17f958d2ee523a2206206994597c13d831ec78152f35b50346101c457806003193601126101c45760206040515f5160206117ad5f395f51905f528152f35b50346101c457806003193601126101c4576020604051735c69bee701ef814a2b6a3edd4b1652cb9cc5aa6f8152f35b50346101c457806003193601126101c45760ff60209154166040519015158152f35b50346101c457806003193601126101c457602060405173a0b86991c6218b36c1d19d4a2e9eb0ce3606eb488152f35b50346101c45760203660031901126101c45761043b303314610d1d565b61046460405161044c604082610b10565b600381526230783160e81b60208201526004356113f0565b80f35b50346101c457806003193601126101c4576020600154604051908152f35b50346101c457806003193601126101c457602060405173c0aee478e3658e2610c5f7a4a2e1777ce9e4f2ac8152f35b50346101c45760203660031901126101c4576004356104d4303314610d1d565b8015610663576001600160a01b036104ea611067565b16801561063457600280546001600160a01b031916821790556003829055604051630dfe168160e01b8152839290602081600481865afa8015610629575f5160206117ad5f395f51905f5291859161060a575b506001600160a01b0316149081156106035780915b156105fc5783925b60405191602083015260208252610572604083610b10565b803b156105f8576105b5938580946040519687958694859363022c0d9f60e01b855260048501526024840152306044840152608060648401526084830190610d55565b03925af180156101c7576105e3575b506bffffffffffffffffffffffff60a01b600254166002558060035580f35b816105ed91610b10565b6101c457805f6105c4565b8480fd5b809261055a565b8391610552565b610623915060203d6020116102e9576102db8183610b10565b5f61053d565b6040513d86823e3d90fd5b60405162461bcd60e51b81526020600482015260076024820152663737903830b4b960c91b6044820152606490fd5b60405162461bcd60e51b81526020600482015260096024820152681e995c9bc81cd9595960ba1b6044820152606490fd5b50346101c457806003193601126101c457610464610b86565b9050346102aa5760803660031901126102aa576004356001600160a01b038116908190036102aa576024356064359167ffffffffffffffff83116102aa57366023840112156102aa57826004013567ffffffffffffffff81116102aa578301933660248601116102aa576002546001600160a01b03163303610ae357503003610ab1578015610aa3576024602091935b8390030160231901126102aa5760240135908181149081610a97575b5015610a655760405163647a51dd60e01b81526020816004815f51602061178d5f395f51905f525afa908115610a3b575f91610a46575b505f5160206117ad5f395f51905f523b156102aa57604051632e1a7d4d60e01b8152600481018390525f81602481835f5160206117ad5f395f51905f525af18015610a3b57610a26575b505f51602061178d5f395f51905f523b15610a22578260405163b6b55f2560e01b81528360048201528181602481875f51602061178d5f395f51905f525af180156101c757610a0d575b50506040516370a0823160e01b815230600482015290602090829060249082906001600160a01b03165afa9081156102b65783916109db575b5080156109aa5761086d90610d79565b1561096e576103e88102908082046103e8149015171561095a576103e590046001810180911161095a576108a081610e8c565b6040519063a9059cbb60e01b82523360048301526024820152602081604481855f5160206117ad5f395f51905f525af19081156101c757829161091b575b50156108e75780f35b60405162461bcd60e51b815260206004820152600c60248201526b1c995c185e4819985a5b195960a21b6044820152606490fd5b90506020813d602011610952575b8161093660209383610b10565b8101031261094e5751801515810361094e575f6108de565b5080fd5b3d9150610929565b634e487b7160e01b82526011600452602482fd5b60405162461bcd60e51b8152602060048201526014602482015273199bdc98d959081d5b9dda5b990819985a5b195960621b6044820152606490fd5b60405162461bcd60e51b81526020600482015260096024820152686e6f2073686172657360b81b6044820152606490fd5b90506020813d602011610a05575b816109f660209383610b10565b810103126102aa57515f61085d565b3d91506109e9565b81610a1791610b10565b610a2257825f610824565b8280fd5b610a339193505f90610b10565b5f915f6107da565b6040513d5f823e3d90fd5b610a5f915060203d6020116102e9576102db8183610b10565b5f610790565b60405162461bcd60e51b815260206004820152600a60248201526962616420626f72726f7760b01b6044820152606490fd5b9050600354145f610759565b50602060246044359361073d565b60405162461bcd60e51b815260206004820152600a6024820152693130b21039b2b73232b960b11b6044820152606490fd5b62461bcd60e51b81526020600482015260086024820152673130b2103830b4b960c11b6044820152606490fd5b90601f8019910116810190811067ffffffffffffffff821117610b3257604052565b634e487b7160e01b5f52604160045260245ffd5b908160209103126102aa57516001600160a01b03811681036102aa5790565b91908203918211610b7257565b634e487b7160e01b5f52601160045260245ffd5b5f5460ff8116610d1a5760ff19166001175f55610ba1610f9c565b610ba9611013565b506040519060e0820182811067ffffffffffffffff821117610b3257604052666a94d74f430000825267016345785d8a00006020830152670429d069189e00006040830152670de0b6b3a764000060608301526729a2241af62c00006080830152678ac7230489e8000060a08301526801a055690d9db8000060c08301525f5b6007811015610d12578060051b830151303b156102aa576040519063042f422f60e41b825260048201525f8160248183305af19081610d02575b50610c71575b600101610c29565b81610c7a610f9c565b1115610c69575090505b4780610cae575b50610c94610f9c565b90808211610ca0575050565b610ca991610b65565b600155565b5f5160206117ad5f395f51905f523b156102aa575f60049160405192838092630d0e30db60e41b82525f5160206117ad5f395f51905f525af18015610a3b5715610c8b575f610cfc91610b10565b5f610c8b565b5f610d0c91610b10565b5f610c63565b509050610c84565b50565b15610d2457565b60405162461bcd60e51b815260206004820152600960248201526873656c66206f6e6c7960b81b6044820152606490fd5b805180835260209291819084018484015e5f828201840152601f01601f1916010190565b6040516314a6bf0f60e01b81525f916020826004815f51602061178d5f395f51905f525afa918215610a3b575f92610e58575b506001821115610e2a578160011c9182158015610e4e575b610e3b575b8215908115610e31575b50610e2a57303b156102aa5760405191637b128e5360e11b8352600483015260248201525f8160448183305af19081610e15575b50610e0f5790565b50600190565b610e229192505f90610b10565b5f905f610e07565b5050505f90565b905082115f610dd3565b91505f198201828111610b725791610dc9565b5080831015610dc4565b9091506020813d602011610e84575b81610e7460209383610b10565b810103126102aa5751905f610dac565b3d9150610e67565b6040516370a0823160e01b81523060048201526020816024815f5160206117ad5f395f51905f525afa908115610a3b575f91610f6a575b5081811015610f6657610ed591610b65565b804710610f2e575f5160206117ad5f395f51905f523b156102aa575f60049160405192838092630d0e30db60e41b82525f5160206117ad5f395f51905f525af18015610a3b57610f225750565b5f610f2c91610b10565b565b60405162461bcd60e51b815260206004820152601060248201526f0d2dce6eaccccd2c6d2cadce840cae8d60831b6044820152606490fd5b5050565b90506020813d602011610f94575b81610f8560209383610b10565b810103126102aa57515f610ec3565b3d9150610f78565b6040516370a0823160e01b81523060048201526020816024815f5160206117ad5f395f51905f525afa908115610a3b575f91610fe1575b50478101809111610b725790565b90506020813d60201161100b575b81610ffc60209383610b10565b810103126102aa57515f610fd3565b3d9150610fef565b5f61102a5f51602061178d5f395f51905f5261166f565b801561106157303b156102aa57604051906360eaf3db60e01b825260048201525f8160248183305af19081610e155750610e0f5790565b50505f90565b60405163e6a4390560e01b81525f5160206117ad5f395f51905f52600482015273a0b86991c6218b36c1d19d4a2e9eb0ce3606eb486024820152602081604481735c69bee701ef814a2b6a3edd4b1652cb9cc5aa6f5afa908115610a3b575f916113b0575b506001600160a01b038116611331575060405163e6a4390560e01b81525f5160206117ad5f395f51905f526004820152736b175474e89094c44da98b954eedeac495271d0f6024820152602081604481735c69bee701ef814a2b6a3edd4b1652cb9cc5aa6f5afa908115610a3b575f91611391575b506001600160a01b038116611331575060405163e6a4390560e01b81525f5160206117ad5f395f51905f52600482015273dac17f958d2ee523a2206206994597c13d831ec76024820152602081604481735c69bee701ef814a2b6a3edd4b1652cb9cc5aa6f5afa908115610a3b575f91611372575b506001600160a01b038116611331575060405163e6a4390560e01b81525f5160206117ad5f395f51905f52600482015273a0b86991c6218b36c1d19d4a2e9eb0ce3606eb48602482015260208160448173c0aee478e3658e2610c5f7a4a2e1777ce9e4f2ac5afa908115610a3b575f91611353575b506001600160a01b038116611331575060405163e6a4390560e01b81525f5160206117ad5f395f51905f526004820152736b175474e89094c44da98b954eedeac495271d0f602482015260208160448173c0aee478e3658e2610c5f7a4a2e1777ce9e4f2ac5afa908115610a3b575f91611334575b506001600160a01b038116611331575060405163e6a4390560e01b81525f5160206117ad5f395f51905f52600482015273dac17f958d2ee523a2206206994597c13d831ec7602482015260208160448173c0aee478e3658e2610c5f7a4a2e1777ce9e4f2ac5afa908115610a3b575f91611318575090565b611331915060203d6020116102e9576102db8183610b10565b90565b61134d915060203d6020116102e9576102db8183610b10565b5f6112a0565b61136c915060203d6020116102e9576102db8183610b10565b5f61122b565b61138b915060203d6020116102e9576102db8183610b10565b5f6111b6565b6113aa915060203d6020116102e9576102db8183610b10565b5f611141565b6113c9915060203d6020116102e9576102db8183610b10565b5f6110cc565b8051156113dc5760200190565b634e487b7160e01b5f52603260045260245ffd5b604051633fc8cef360e01b81526020816004815f51602061178d5f395f51905f525afa8015610a3b575f5160206117ad5f395f51905f52915f91611650575b506001600160a01b0316036116195780156115e6576040908151926114548385610b10565b60018452601f1983019060208501823682378451936114738686610b10565b6001855260208501933685375f5160206117ad5f395f51905f52611496886113cf565b526114a0856113cf565b5284516372b181bf60e11b81526020816004815f51602061178d5f395f51905f525afa9081156115dc575f916115bd575b506001600160a01b031693843b156102aa578551632e1c224f60e11b81525f51602061178d5f395f51905f526004820152608060248201529651608488018190528794939260a4860192915f5b81811061159b5750505060209060031986840301604487015251918281520192905f5b818110611582575050505f836115668296948294600319848303016064850152610d55565b03925af19081156115795750610f225750565b513d5f823e3d90fd5b8251855288955060209485019490920191600101611541565b82516001600160a01b031685528a97506020948501949092019160010161151e565b6115d6915060203d6020116102e9576102db8183610b10565b5f6114d1565b86513d5f823e3d90fd5b60405162461bcd60e51b815260206004820152600b60248201526a1e995c9bc8185b5bdd5b9d60aa1b6044820152606490fd5b60405162461bcd60e51b815260206004820152600f60248201526e0eadccaf0e0cac6e8cac840eecae8d608b1b6044820152606490fd5b611669915060203d6020116102e9576102db8183610b10565b5f61142f565b604051633fc8cef360e01b81526001600160a01b039190911690602081600481855afa8015610a3b575f5160206117ad5f395f51905f52915f9161176d575b506001600160a01b031603611768576020600491604051928380926314a6bf0f60e01b82525afa908115610a3b575f91611736575b50801561172a5760149004662386f26fc10000811061171c575b670de0b6b3a7640000811161170f5790565b50670de0b6b3a764000090565b50662386f26fc100006116fd565b50662386f26fc1000090565b90506020813d602011611760575b8161175160209383610b10565b810103126102aa57515f6116e3565b3d9150611744565b505f90565b611786915060203d6020116102e9576102db8183610b10565b5f6116ae56fe000000000000000000000000e39fd820b58f83205db1d9225f28105971c3d309000000000000000000000000c02aaa39b223fe8d0a0e5c4f27ead9083c756cc2a264697066735822122095327d41148e64a4f5c258414b61dded188e4f793a2df757efb8fbf3f506a45964736f6c634300081e0033","linkReferences":{}},"methodIdentifiers":{"DAI()":"e0bab4c4","SUSHISWAP_FACTORY()":"495c0f9b","TARGET()":"cc1f2afa","UNISWAP_V2_FACTORY()":"99d8fae3","USDC()":"89a30271","USDT()":"c54e44eb","WETH()":"ad5c4648","_attemptForcedDeposit(uint256)":"60eaf3db","_attemptForcedWithdraw(uint256,uint256)":"f6251ca6","_runFlashswap(uint256)":"42f422f0","attempted()":"917f51b4","executeOnOpportunity()":"3c2448ed","profitAmount()":"5ff972cc","profitToken()":"49343624","uniswapV2Call(address,uint256,uint256,bytes)":"10d1e85c"},"id":0}