{"abi":[{"type":"constructor","inputs":[],"stateMutability":"nonpayable"},{"type":"receive","stateMutability":"payable"},{"type":"function","name":"CANONICAL_PATH_ATTACKER_CONTRIBUTION","inputs":[],"outputs":[{"name":"","type":"uint256","internalType":"uint256"}],"stateMutability":"view"},{"type":"function","name":"CANONICAL_PATH_INFLATED_SHARES","inputs":[],"outputs":[{"name":"","type":"uint256","internalType":"uint256"}],"stateMutability":"view"},{"type":"function","name":"CANONICAL_PATH_PARKED_LIQUIDITY","inputs":[],"outputs":[{"name":"","type":"uint256","internalType":"uint256"}],"stateMutability":"view"},{"type":"function","name":"CANONICAL_PATH_SEED_LIQUIDITY","inputs":[],"outputs":[{"name":"","type":"uint256","internalType":"uint256"}],"stateMutability":"view"},{"type":"function","name":"CANONICAL_PATH_SEED_SHARES","inputs":[],"outputs":[{"name":"","type":"uint256","internalType":"uint256"}],"stateMutability":"view"},{"type":"function","name":"TARGET_POOL","inputs":[],"outputs":[{"name":"","type":"address","internalType":"address"}],"stateMutability":"view"},{"type":"function","name":"_kickoffFlashSwap","inputs":[{"name":"amount0Out","type":"uint256","internalType":"uint256"},{"name":"amount1Out","type":"uint256","internalType":"uint256"}],"outputs":[],"stateMutability":"nonpayable"},{"type":"function","name":"actualMintedShares","inputs":[],"outputs":[{"name":"","type":"uint256","internalType":"uint256"}],"stateMutability":"view"},{"type":"function","name":"attackerControllableReturnLeg","inputs":[],"outputs":[{"name":"","type":"bool","internalType":"bool"}],"stateMutability":"view"},{"type":"function","name":"attackerDepositPathModeled","inputs":[],"outputs":[{"name":"","type":"bool","internalType":"bool"}],"stateMutability":"view"},{"type":"function","name":"depositAttempted","inputs":[],"outputs":[{"name":"","type":"bool","internalType":"bool"}],"stateMutability":"view"},{"type":"function","name":"depositSucceeded","inputs":[],"outputs":[{"name":"","type":"bool","internalType":"bool"}],"stateMutability":"view"},{"type":"function","name":"executeOnOpportunity","inputs":[],"outputs":[],"stateMutability":"nonpayable"},{"type":"function","name":"financingWithdrawBps","inputs":[],"outputs":[{"name":"","type":"uint256","internalType":"uint256"}],"stateMutability":"view"},{"type":"function","name":"honestSeedLiquidityDetected","inputs":[],"outputs":[{"name":"","type":"bool","internalType":"bool"}],"stateMutability":"view"},{"type":"function","name":"hypothesisValidated","inputs":[],"outputs":[{"name":"","type":"bool","internalType":"bool"}],"stateMutability":"view"},{"type":"function","name":"inflatedMintDetected","inputs":[],"outputs":[{"name":"","type":"bool","internalType":"bool"}],"stateMutability":"view"},{"type":"function","name":"inspectedToken","inputs":[],"outputs":[{"name":"","type":"address","internalType":"address"}],"stateMutability":"view"},{"type":"function","name":"lastReason","inputs":[],"outputs":[{"name":"","type":"bytes32","internalType":"bytes32"}],"stateMutability":"view"},{"type":"function","name":"matchedEthContribution","inputs":[],"outputs":[{"name":"","type":"uint256","internalType":"uint256"}],"stateMutability":"view"},{"type":"function","name":"matchedLiquidityContribution","inputs":[],"outputs":[{"name":"","type":"uint256","internalType":"uint256"}],"stateMutability":"view"},{"type":"function","name":"matchedTokenContribution","inputs":[],"outputs":[{"name":"","type":"uint256","internalType":"uint256"}],"stateMutability":"view"},{"type":"function","name":"orderbook","inputs":[],"outputs":[{"name":"","type":"address","internalType":"address"}],"stateMutability":"view"},{"type":"function","name":"parkedLiquidityDetected","inputs":[],"outputs":[{"name":"","type":"bool","internalType":"bool"}],"stateMutability":"view"},{"type":"function","name":"parkedLiquidityLowerBound","inputs":[],"outputs":[{"name":"","type":"uint256","internalType":"uint256"}],"stateMutability":"view"},{"type":"function","name":"poolInitialized","inputs":[],"outputs":[{"name":"","type":"bool","internalType":"bool"}],"stateMutability":"view"},{"type":"function","name":"poolTotalEth","inputs":[],"outputs":[{"name":"","type":"uint256","internalType":"uint256"}],"stateMutability":"view"},{"type":"function","name":"poolTotalLPShares","inputs":[],"outputs":[{"name":"","type":"uint256","internalType":"uint256"}],"stateMutability":"view"},{"type":"function","name":"poolTotalLiquidity","inputs":[],"outputs":[{"name":"","type":"uint256","internalType":"uint256"}],"stateMutability":"view"},{"type":"function","name":"poolTotalToken","inputs":[],"outputs":[{"name":"","type":"uint256","internalType":"uint256"}],"stateMutability":"view"},{"type":"function","name":"profitAmount","inputs":[],"outputs":[{"name":"","type":"uint256","internalType":"uint256"}],"stateMutability":"view"},{"type":"function","name":"profitToken","inputs":[],"outputs":[{"name":"","type":"address","internalType":"address"}],"stateMutability":"view"},{"type":"function","name":"reason","inputs":[],"outputs":[{"name":"","type":"bytes32","internalType":"bytes32"}],"stateMutability":"view"},{"type":"function","name":"registry","inputs":[],"outputs":[{"name":"","type":"address","internalType":"address"}],"stateMutability":"view"},{"type":"function","name":"reserveEth","inputs":[],"outputs":[{"name":"","type":"uint256","internalType":"uint256"}],"stateMutability":"view"},{"type":"function","name":"reserveToken","inputs":[],"outputs":[{"name":"","type":"uint256","internalType":"uint256"}],"stateMutability":"view"},{"type":"function","name":"retainedLPShares","inputs":[],"outputs":[{"name":"","type":"uint256","internalType":"uint256"}],"stateMutability":"view"},{"type":"function","name":"router","inputs":[],"outputs":[{"name":"","type":"address","internalType":"address"}],"stateMutability":"view"},{"type":"function","name":"simulatedInflatedShares","inputs":[],"outputs":[{"name":"","type":"uint256","internalType":"uint256"}],"stateMutability":"view"},{"type":"function","name":"simulatedShareBpsAfterMint","inputs":[],"outputs":[{"name":"","type":"uint256","internalType":"uint256"}],"stateMutability":"view"},{"type":"function","name":"summary","inputs":[],"outputs":[{"name":"token","type":"address","internalType":"address"},{"name":"preconditionsMet","type":"bool","internalType":"bool"},{"name":"attackerDepositModeled","type":"bool","internalType":"bool"},{"name":"inflatedShares","type":"bool","internalType":"bool"},{"name":"returnLegReachable","type":"bool","internalType":"bool"},{"name":"validated","type":"bool","internalType":"bool"},{"name":"shareBpsAfterMint","type":"uint256","internalType":"uint256"},{"name":"blocker","type":"bytes32","internalType":"bytes32"}],"stateMutability":"view"},{"type":"function","name":"transferETHToOrderbookPathObserved","inputs":[],"outputs":[{"name":"","type":"bool","internalType":"bool"}],"stateMutability":"view"},{"type":"function","name":"transferTokenToOrderbookPathObserved","inputs":[],"outputs":[{"name":"","type":"bool","internalType":"bool"}],"stateMutability":"view"},{"type":"function","name":"uniswapPair","inputs":[],"outputs":[{"name":"","type":"address","internalType":"address"}],"stateMutability":"view"},{"type":"function","name":"uniswapV2Call","inputs":[{"name":"sender","type":"address","internalType":"address"},{"name":"amount0","type":"uint256","internalType":"uint256"},{"name":"amount1","type":"uint256","internalType":"uint256"},{"name":"","type":"bytes","internalType":"bytes"}],"outputs":[],"stateMutability":"nonpayable"},{"type":"function","name":"weth","inputs":[],"outputs":[{"name":"","type":"address","internalType":"address"}],"stateMutability":"view"}],"bytecode":{"object":"0x6080604052348015600e575f5ffd5b50613d468061001c5f395ff3fe60806040526004361061027f575f3560e01c80637b1039991161014e578063c816841b116100c0578063e656824411610079578063e656824414610909578063f4325d6714610933578063f6c272201461095d578063f7d4bbf514610987578063f887ea40146109b1578063fff2beff146109db57610286565b8063c816841b1461080d578063c9cdcc8314610837578063cb0a40d914610861578063d86830241461088b578063defc6011146108b5578063e134e33d146108df57610286565b8063b65d293711610112578063b65d293714610711578063b788d7971461073b578063b98ad25514610765578063bcfeb57e1461078f578063c18b1d5e146107b9578063c2712893146107e357610286565b80637b10399914610638578063899b1528146106625780638b450af11461068c578063ae06e558146106b6578063b16a867c146106e057610286565b80633c2448ed116101f257806355ef5de2116101ab57806355ef5de21461053c57806359bdd7e2146105665780635ff972cc1461059057806365cfcc3c146105ba5780636a7bdec4146105e457806376f0e9b11461060e57610286565b80633c2448ed146104545780633fc8cef31461046a578063463defd11461049457806349343624146104be5780634b0cc7b7146104e85780634d0891cd1461051257610286565b806310d1e85c1161024457806310d1e85c1461035a578063181e0cc6146103825780631f38ffd8146103ac5780632d003394146103d6578063353789c1146104005780633aee2a171461042a57610286565b8062821d811461028a578063016e8c35146102b4578063019f0179146102dc578063026c25df146103065780630ceb1ff91461033057610286565b3661028657005b5f5ffd5b348015610295575f5ffd5b5061029e610a05565b6040516102ab9190612ffb565b60405180910390f35b3480156102bf575f5ffd5b506102da60048036038101906102d59190613058565b610a18565b005b3480156102e7575f5ffd5b506102f0610b6d565b6040516102fd9190612ffb565b60405180910390f35b348015610311575f5ffd5b5061031a610b80565b6040516103279190612ffb565b60405180910390f35b34801561033b575f5ffd5b50610344610b93565b6040516103519190612ffb565b60405180910390f35b348015610365575f5ffd5b50610380600480360381019061037b9190613151565b610ba6565b005b34801561038d575f5ffd5b50610396611385565b6040516103a391906131e4565b60405180910390f35b3480156103b7575f5ffd5b506103c061139d565b6040516103cd919061320c565b60405180910390f35b3480156103e1575f5ffd5b506103ea6113a3565b6040516103f7919061320c565b60405180910390f35b34801561040b575f5ffd5b506104146113a9565b604051610421919061320c565b60405180910390f35b348015610435575f5ffd5b5061043e6113af565b60405161044b9190612ffb565b60405180910390f35b34801561045f575f5ffd5b506104686113c2565b005b348015610475575f5ffd5b5061047e61262b565b60405161048b91906131e4565b60405180910390f35b34801561049f575f5ffd5b506104a8612650565b6040516104b59190612ffb565b60405180910390f35b3480156104c9575f5ffd5b506104d2612663565b6040516104df91906131e4565b60405180910390f35b3480156104f3575f5ffd5b506104fc61268a565b604051610509919061323d565b60405180910390f35b34801561051d575f5ffd5b50610526612690565b6040516105339190612ffb565b60405180910390f35b348015610547575f5ffd5b506105506126a3565b60405161055d919061320c565b60405180910390f35b348015610571575f5ffd5b5061057a6126a8565b604051610587919061320c565b60405180910390f35b34801561059b575f5ffd5b506105a46126ae565b6040516105b1919061320c565b60405180910390f35b3480156105c5575f5ffd5b506105ce6126b7565b6040516105db919061320c565b60405180910390f35b3480156105ef575f5ffd5b506105f86126bd565b6040516106059190612ffb565b60405180910390f35b348015610619575f5ffd5b506106226126d0565b60405161062f91906131e4565b60405180910390f35b348015610643575f5ffd5b5061064c6126f5565b60405161065991906131e4565b60405180910390f35b34801561066d575f5ffd5b5061067661271a565b604051610683919061320c565b60405180910390f35b348015610697575f5ffd5b506106a0612720565b6040516106ad919061320c565b60405180910390f35b3480156106c1575f5ffd5b506106ca612726565b6040516106d7919061320c565b60405180910390f35b3480156106eb575f5ffd5b506106f461272c565b604051610708989796959493929190613256565b60405180910390f35b34801561071c575f5ffd5b506107256127c6565b604051610732919061320c565b60405180910390f35b348015610746575f5ffd5b5061074f6127cc565b60405161075c919061320c565b60405180910390f35b348015610770575f5ffd5b506107796127d2565b6040516107869190612ffb565b60405180910390f35b34801561079a575f5ffd5b506107a36127e5565b6040516107b0919061320c565b60405180910390f35b3480156107c4575f5ffd5b506107cd6127eb565b6040516107da91906131e4565b60405180910390f35b3480156107ee575f5ffd5b506107f7612810565b604051610804919061320c565b60405180910390f35b348015610818575f5ffd5b50610821612816565b60405161082e91906131e4565b60405180910390f35b348015610842575f5ffd5b5061084b61283b565b6040516108589190612ffb565b60405180910390f35b34801561086c575f5ffd5b5061087561284e565b6040516108829190612ffb565b60405180910390f35b348015610896575f5ffd5b5061089f612861565b6040516108ac919061320c565b60405180910390f35b3480156108c0575f5ffd5b506108c9612867565b6040516108d6919061320c565b60405180910390f35b3480156108ea575f5ffd5b506108f361286c565b604051610900919061323d565b60405180910390f35b348015610914575f5ffd5b5061091d612875565b60405161092a919061320c565b60405180910390f35b34801561093e575f5ffd5b5061094761287b565b604051610954919061320c565b60405180910390f35b348015610968575f5ffd5b50610971612881565b60405161097e919061320c565b60405180910390f35b348015610992575f5ffd5b5061099b612887565b6040516109a8919061320c565b60405180910390f35b3480156109bc575f5ffd5b506109c561288d565b6040516109d291906131e4565b60405180910390f35b3480156109e6575f5ffd5b506109ef6128b2565b6040516109fc919061320c565b60405180910390f35b6007601a9054906101000a900460ff1681565b3073ffffffffffffffffffffffffffffffffffffffff163373ffffffffffffffffffffffffffffffffffffffff1614610a86576040517f08c379a0000000000000000000000000000000000000000000000000000000008152600401610a7d9061332c565b60405180910390fd5b6001601b60016101000a81548160ff02191690831515021790555060055f9054906101000a900473ffffffffffffffffffffffffffffffffffffffff1673ffffffffffffffffffffffffffffffffffffffff1663022c0d9f838330601954604051602001610af4919061320c565b6040516020818303038152906040526040518563ffffffff1660e01b8152600401610b2294939291906133ba565b5f604051808303815f87803b158015610b39575f5ffd5b505af1158015610b4b573d5f5f3e3d5ffd5b505050505f601b60016101000a81548160ff0219169083151502179055505050565b600760199054906101000a900460ff1681565b6007601b9054906101000a900460ff1681565b600760179054906101000a900460ff1681565b601b60019054906101000a900460ff16610bf5576040517f08c379a0000000000000000000000000000000000000000000000000000000008152600401610bec9061344e565b60405180910390fd5b60055f9054906101000a900473ffffffffffffffffffffffffffffffffffffffff1673ffffffffffffffffffffffffffffffffffffffff163373ffffffffffffffffffffffffffffffffffffffff1614610c84576040517f08c379a0000000000000000000000000000000000000000000000000000000008152600401610c7b906134b6565b60405180910390fd5b3073ffffffffffffffffffffffffffffffffffffffff168573ffffffffffffffffffffffffffffffffffffffff1614610cf2576040517f08c379a0000000000000000000000000000000000000000000000000000000008152600401610ce99061351e565b60405180910390fd5b5f601b5f9054906101000a900460ff16610d0c5783610d0e565b845b9050601954811015610d55576040517f08c379a0000000000000000000000000000000000000000000000000000000008152600401610d4c90613586565b60405180910390fd5b5f7337ea5f691bce8459c66ffceeb9cf34ffa32fdadc90505f8173ffffffffffffffffffffffffffffffffffffffff16637e49b93360025f9054906101000a900473ffffffffffffffffffffffffffffffffffffffff16306040518363ffffffff1660e01b8152600401610dca9291906135a4565b602060405180830381865afa158015610de5573d5f5f3e3d5ffd5b505050506040513d601f19601f82011682018060405250810190610e0991906135df565b90505f60105490505f60115490505f60025f9054906101000a900473ffffffffffffffffffffffffffffffffffffffff1673ffffffffffffffffffffffffffffffffffffffff166370a08231306040518263ffffffff1660e01b8152600401610e7291906131e4565b602060405180830381865afa158015610e8d573d5f5f3e3d5ffd5b505050506040513d601f19601f82011682018060405250810190610eb191906135df565b905080821115610edc57809150600d54600c5483610ecf9190613637565b610ed991906136a5565b92505b5f831480610ee957505f82145b15610f29576040517f08c379a0000000000000000000000000000000000000000000000000000000008152600401610f209061371f565b60405180910390fd5b60016007601b6101000a81548160ff021916908315150217905550610f8460025f9054906101000a900473ffffffffffffffffffffffffffffffffffffffff167337ea5f691bce8459c66ffceeb9cf34ffa32fdadc846128b8565b8473ffffffffffffffffffffffffffffffffffffffff16632bb9c9588460025f9054906101000a900473ffffffffffffffffffffffffffffffffffffffff1685866040518563ffffffff1660e01b8152600401610fe39392919061373d565b5f604051808303818588803b158015610ffa575f5ffd5b505af115801561100c573d5f5f3e3d5ffd5b50505050505f8573ffffffffffffffffffffffffffffffffffffffff16637e49b93360025f9054906101000a900473ffffffffffffffffffffffffffffffffffffffff16306040518363ffffffff1660e01b815260040161106e9291906135a4565b602060405180830381865afa158015611089573d5f5f3e3d5ffd5b505050506040513d601f19601f820116820180604052508101906110ad91906135df565b905084816110bb9190613772565b6013819055505f601354116007601c6101000a81548160ff0219169083151502179055506007601c9054906101000a900460ff1661112e576040517f08c379a0000000000000000000000000000000000000000000000000000000008152600401611125906137ef565b60405180910390fd5b6127106015819055508573ffffffffffffffffffffffffffffffffffffffff166306d47de960025f9054906101000a900473ffffffffffffffffffffffffffffffffffffffff166015546040518363ffffffff1660e01b815260040161119592919061380d565b5f604051808303815f87803b1580156111ac575f5ffd5b505af11580156111be573d5f5f3e3d5ffd5b505050508573ffffffffffffffffffffffffffffffffffffffff16637e49b93360025f9054906101000a900473ffffffffffffffffffffffffffffffffffffffff16306040518363ffffffff1660e01b815260040161121e9291906135a4565b602060405180830381865afa158015611239573d5f5f3e3d5ffd5b505050506040513d601f19601f8201168201806040525081019061125d91906135df565b601481905550601a544710156112a8576040517f08c379a000000000000000000000000000000000000000000000000000000000815260040161129f9061387e565b60405180910390fd5b60075f9054906101000a900473ffffffffffffffffffffffffffffffffffffffff1673ffffffffffffffffffffffffffffffffffffffff1663d0e30db0601a546040518263ffffffff1660e01b81526004015f604051808303818588803b158015611311575f5ffd5b505af1158015611323573d5f5f3e3d5ffd5b505050505061137760075f9054906101000a900473ffffffffffffffffffffffffffffffffffffffff1660055f9054906101000a900473ffffffffffffffffffffffffffffffffffffffff16601a54612a07565b505050505050505050505050565b7337ea5f691bce8459c66ffceeb9cf34ffa32fdadc81565b600e5481565b60155481565b60105481565b600760159054906101000a900460ff1681565b6113ca612b56565b476018819055505f7337ea5f691bce8459c66ffceeb9cf34ffa32fdadc90508073ffffffffffffffffffffffffffffffffffffffff1663830562bc6040518163ffffffff1660e01b8152600401602060405180830381865afa158015611432573d5f5f3e3d5ffd5b505050506040513d601f19601f8201168201806040525081019061145691906138b0565b60035f6101000a81548173ffffffffffffffffffffffffffffffffffffffff021916908373ffffffffffffffffffffffffffffffffffffffff1602179055505f73ffffffffffffffffffffffffffffffffffffffff1660035f9054906101000a900473ffffffffffffffffffffffffffffffffffffffff1673ffffffffffffffffffffffffffffffffffffffff1603611516577f7bc01f6143be63aea7d4ed094cdce1c2afb5e4a1d28cc33a1b666792ce6bc71f60178190555050612629565b5f60035f9054906101000a900473ffffffffffffffffffffffffffffffffffffffff1690508073ffffffffffffffffffffffffffffffffffffffff1663387c8aeb6040518163ffffffff1660e01b8152600401602060405180830381865afa158015611584573d5f5f3e3d5ffd5b505050506040513d601f19601f820116820180604052508101906115a891906138b0565b60025f6101000a81548173ffffffffffffffffffffffffffffffffffffffff021916908373ffffffffffffffffffffffffffffffffffffffff1602179055508073ffffffffffffffffffffffffffffffffffffffff1663c18b1d5e6040518163ffffffff1660e01b8152600401602060405180830381865afa158015611630573d5f5f3e3d5ffd5b505050506040513d601f19601f8201168201806040525081019061165491906138b0565b60045f6101000a81548173ffffffffffffffffffffffffffffffffffffffff021916908373ffffffffffffffffffffffffffffffffffffffff1602179055508073ffffffffffffffffffffffffffffffffffffffff1663f887ea406040518163ffffffff1660e01b8152600401602060405180830381865afa1580156116dc573d5f5f3e3d5ffd5b505050506040513d601f19601f8201168201806040525081019061170091906138b0565b60065f6101000a81548173ffffffffffffffffffffffffffffffffffffffff021916908373ffffffffffffffffffffffffffffffffffffffff1602179055505f73ffffffffffffffffffffffffffffffffffffffff1660065f9054906101000a900473ffffffffffffffffffffffffffffffffffffffff1673ffffffffffffffffffffffffffffffffffffffff16146118265760065f9054906101000a900473ffffffffffffffffffffffffffffffffffffffff1673ffffffffffffffffffffffffffffffffffffffff1663ad5c46486040518163ffffffff1660e01b8152600401602060405180830381865afa1580156117fd573d5f5f3e3d5ffd5b505050506040513d601f19601f8201168201806040525081019061182191906138b0565b611828565b5f5b60075f6101000a81548173ffffffffffffffffffffffffffffffffffffffff021916908373ffffffffffffffffffffffffffffffffffffffff1602179055505f73ffffffffffffffffffffffffffffffffffffffff1660025f9054906101000a900473ffffffffffffffffffffffffffffffffffffffff1673ffffffffffffffffffffffffffffffffffffffff16148061190e57505f73ffffffffffffffffffffffffffffffffffffffff1660065f9054906101000a900473ffffffffffffffffffffffffffffffffffffffff1673ffffffffffffffffffffffffffffffffffffffff16145b8061196557505f73ffffffffffffffffffffffffffffffffffffffff1660075f9054906101000a900473ffffffffffffffffffffffffffffffffffffffff1673ffffffffffffffffffffffffffffffffffffffff16145b15611998577f640c3a29d9a95e72e7b9a6b60c2c59adbc0eadf9920609d4be01ba5574afa84b6017819055505050612629565b5f8273ffffffffffffffffffffffffffffffffffffffff166306bfa93860025f9054906101000a900473ffffffffffffffffffffffffffffffffffffffff166040518263ffffffff1660e01b81526004016119f391906131e4565b60e060405180830381865afa158015611a0e573d5f5f3e3d5ffd5b505050506040513d601f19601f82011682018060405250810190611a329190613a08565b9050805f015160088190555080602001516009819055508060400151600a819055508060600151600b819055505f73ffffffffffffffffffffffffffffffffffffffff168160c0015173ffffffffffffffffffffffffffffffffffffffff1614611aa0578060c00151611b3a565b8273ffffffffffffffffffffffffffffffffffffffff166385e694b660025f9054906101000a900473ffffffffffffffffffffffffffffffffffffffff166040518263ffffffff1660e01b8152600401611afa91906131e4565b602060405180830381865afa158015611b15573d5f5f3e3d5ffd5b505050506040513d601f19601f82011682018060405250810190611b3991906138b0565b5b60055f6101000a81548173ffffffffffffffffffffffffffffffffffffffff021916908373ffffffffffffffffffffffffffffffffffffffff1602179055505f73ffffffffffffffffffffffffffffffffffffffff1660055f9054906101000a900473ffffffffffffffffffffffffffffffffffffffff1673ffffffffffffffffffffffffffffffffffffffff161415600760146101000a81548160ff021916908315150217905550600760149054906101000a900460ff16611c26577f50689d7311ecf3e2250e19f2b393870da67a0b2f4afadb214f743764e9ed21b9601781905550505050612629565b5f600b54118015611c3857505f600a54115b600760156101000a81548160ff021916908315150217905550600760159054906101000a900460ff16611c94577fc31fe254af480ac2d96194fe41513483a223499bf9b699a76fceaae398d3075f601781905550505050612629565b5f600854148015611ca657505f600954115b600760176101000a81548160ff0219169083151502179055505f600954148015611cd157505f600854115b600760186101000a81548160ff021916908315150217905550600a54600b54118015611d205750600760179054906101000a900460ff1680611d1f5750600760189054906101000a900460ff165b5b600760166101000a81548160ff021916908315150217905550600a54600b5411611d4a575f611d5b565b600a54600b54611d5a9190613772565b5b600e81905550600760169054906101000a900460ff16611da4577f926a906c8db2715507d08641bddbc3a7d7a63276267f9b0b5030feb34b66b6fd601781905550505050612629565b8273ffffffffffffffffffffffffffffffffffffffff16633e99c1e460025f9054906101000a900473ffffffffffffffffffffffffffffffffffffffff166040518263ffffffff1660e01b8152600401611dfe91906131e4565b6040805180830381865afa158015611e18573d5f5f3e3d5ffd5b505050506040513d601f19601f82011682018060405250810190611e3c9190613a33565b600c5f600d5f8491905055839190505550505f600c541480611e5f57505f600d54145b15611e93577f64b551db2f06a0a1af6284ddbaf5da614aa85d3e811fc198b6fd175ae2f658c5601781905550505050612629565b600760189054906101000a900460ff16611ed6577f6ce23a88aca898b58c7a7323877e267096f2d105f50634bafd61ea11980cf2da601781905550505050612629565b600160185411611f0f577f578de886ae6dff71cfd14f89d0a1f37c29fae64a0ae8122e76e43c1d7224402f601781905550505050612629565b60646063601854611f209190613637565b611f2a91906136a5565b601081905550600c54600d54601054611f439190613637565b611f4d91906136a5565b601181905550601154601054611f639190613a71565b600f819055505f601054118015611f7b57505f601154115b600760196101000a81548160ff021916908315150217905550600760199054906101000a900460ff16611fd7577f85e3c94baddaa3efb86b20a43e90b6a21751da14ba7181c31f3871e25576f182601781905550505050612629565b600a54600b54600f54611fea9190613637565b611ff491906136a5565b601281905550600f54601254116007601a6101000a81548160ff0219169083151502179055505f601254600b5461202b9190613a71565b111561206257601254600b546120419190613a71565b6127106012546120519190613637565b61205b91906136a5565b6016819055505b6007601a9054906101000a900460ff166120a5577fb869523793707950f116cdeb00c94e9ebcb1b525a08a87027e01f55acc881828601781905550505050612629565b6011546019819055506120bf601954600c54600d54612ef6565b601a819055505f60055f9054906101000a900473ffffffffffffffffffffffffffffffffffffffff16905060025f9054906101000a900473ffffffffffffffffffffffffffffffffffffffff1673ffffffffffffffffffffffffffffffffffffffff168173ffffffffffffffffffffffffffffffffffffffff16630dfe16816040518163ffffffff1660e01b8152600401602060405180830381865afa15801561216b573d5f5f3e3d5ffd5b505050506040513d601f19601f8201168201806040525081019061218f91906138b0565b73ffffffffffffffffffffffffffffffffffffffff1614601b5f6101000a81548160ff0219169083151502179055505f601b5f9054906101000a900460ff166121d8575f6121dc565b6019545b90505f601b5f9054906101000a900460ff166121fa576019546121fc565b5f5b90503073ffffffffffffffffffffffffffffffffffffffff1663016e8c3583836040518363ffffffff1660e01b8152600401612239929190613aa4565b5f604051808303815f87803b158015612250575f5ffd5b505af1925050508015612261575060015b612291577fa222ee1508f8cbbcf7f287dcfc0b42bbd117fa492a7df2004f030960177be185601781905550612622565b7337ea5f691bce8459c66ffceeb9cf34ffa32fdadc73ffffffffffffffffffffffffffffffffffffffff16637e49b93360025f9054906101000a900473ffffffffffffffffffffffffffffffffffffffff16306040518363ffffffff1660e01b81526004016123019291906135a4565b602060405180830381865afa15801561231c573d5f5f3e3d5ffd5b505050506040513d601f19601f8201168201806040525081019061234091906135df565b6014819055505f6007601d6101000a81548160ff0219169083151502179055506007601c9054906101000a900460ff16801561237f5750600f54601354115b6007601e6101000a81548160ff021916908315150217905550601854471115612421575f5f5f6101000a81548173ffffffffffffffffffffffffffffffffffffffff021916908373ffffffffffffffffffffffffffffffffffffffff160217905550601854476123ef9190613772565b6001819055507f43ff5a76e23818aa35c712efbe19254abb834b47b8db5fc1e57f3f4db329463e601781905550612621565b5f60025f9054906101000a900473ffffffffffffffffffffffffffffffffffffffff1673ffffffffffffffffffffffffffffffffffffffff166370a08231306040518263ffffffff1660e01b815260040161247c91906131e4565b602060405180830381865afa158015612497573d5f5f3e3d5ffd5b505050506040513d601f19601f820116820180604052508101906124bb91906135df565b11156125ec5760025f9054906101000a900473ffffffffffffffffffffffffffffffffffffffff165f5f6101000a81548173ffffffffffffffffffffffffffffffffffffffff021916908373ffffffffffffffffffffffffffffffffffffffff16021790555060025f9054906101000a900473ffffffffffffffffffffffffffffffffffffffff1673ffffffffffffffffffffffffffffffffffffffff166370a08231306040518263ffffffff1660e01b815260040161257b91906131e4565b602060405180830381865afa158015612596573d5f5f3e3d5ffd5b505050506040513d601f19601f820116820180604052508101906125ba91906135df565b6001819055507f1e52f405f464704c084728dcdf2ea9e0f281ce24b34cb45aeb8242d9ff33d7f1601781905550612620565b5f5f1b6017540361261f577f25b146d1885f1e4ff2d3dcee0be839b3df0c6e255d380d7aefb1cb52459e62576017819055505b5b5b5b5050505050505b565b60075f9054906101000a900473ffffffffffffffffffffffffffffffffffffffff1681565b6007601e9054906101000a900460ff1681565b5f5f5f9054906101000a900473ffffffffffffffffffffffffffffffffffffffff16905090565b60175481565b6007601c9054906101000a900460ff1681565b606481565b600b5481565b5f600154905090565b6103e881565b600760169054906101000a900460ff1681565b60025f9054906101000a900473ffffffffffffffffffffffffffffffffffffffff1681565b60035f9054906101000a900473ffffffffffffffffffffffffffffffffffffffff1681565b600c5481565b60115481565b6103e881565b5f5f5f5f5f5f5f5f60025f9054906101000a900473ffffffffffffffffffffffffffffffffffffffff16600760169054906101000a900460ff16600760199054906101000a900460ff166007601a9054906101000a900460ff166007601d9054906101000a900460ff166007601e9054906101000a900460ff16601654601754975097509750975097509750975097509091929394959697565b60145481565b60085481565b600760149054906101000a900460ff1681565b60135481565b60045f9054906101000a900473ffffffffffffffffffffffffffffffffffffffff1681565b60095481565b60055f9054906101000a900473ffffffffffffffffffffffffffffffffffffffff1681565b6007601d9054906101000a900460ff1681565b600760189054906101000a900460ff1681565b60125481565b606481565b5f601754905090565b60165481565b600d5481565b600f5481565b600a5481565b60065f9054906101000a900473ffffffffffffffffffffffffffffffffffffffff1681565b6103e881565b5f5f8473ffffffffffffffffffffffffffffffffffffffff1663095ea7b360e01b85856040516024016128ec92919061380d565b604051602081830303815290604052907bffffffffffffffffffffffffffffffffffffffffffffffffffffffff19166020820180517bffffffffffffffffffffffffffffffffffffffffffffffffffffffff83818316178352505050506040516129569190613b05565b5f604051808303815f865af19150503d805f811461298f576040519150601f19603f3d011682016040523d82523d5f602084013e612994565b606091505b50915091508180156129c157505f815114806129c05750808060200190518101906129bf9190613b45565b5b5b612a00576040517f08c379a00000000000000000000000000000000000000000000000000000000081526004016129f790613bba565b60405180910390fd5b5050505050565b5f5f8473ffffffffffffffffffffffffffffffffffffffff1663a9059cbb60e01b8585604051602401612a3b92919061380d565b604051602081830303815290604052907bffffffffffffffffffffffffffffffffffffffffffffffffffffffff19166020820180517bffffffffffffffffffffffffffffffffffffffffffffffffffffffff8381831617835250505050604051612aa59190613b05565b5f604051808303815f865af19150503d805f8114612ade576040519150601f19603f3d011682016040523d82523d5f602084013e612ae3565b606091505b5091509150818015612b1057505f81511480612b0f575080806020019051810190612b0e9190613b45565b5b5b612b4f576040517f08c379a0000000000000000000000000000000000000000000000000000000008152600401612b4690613c22565b60405180910390fd5b5050505050565b5f5f5f6101000a81548173ffffffffffffffffffffffffffffffffffffffff021916908373ffffffffffffffffffffffffffffffffffffffff1602179055505f6001819055505f60025f6101000a81548173ffffffffffffffffffffffffffffffffffffffff021916908373ffffffffffffffffffffffffffffffffffffffff1602179055505f60035f6101000a81548173ffffffffffffffffffffffffffffffffffffffff021916908373ffffffffffffffffffffffffffffffffffffffff1602179055505f60045f6101000a81548173ffffffffffffffffffffffffffffffffffffffff021916908373ffffffffffffffffffffffffffffffffffffffff1602179055505f60055f6101000a81548173ffffffffffffffffffffffffffffffffffffffff021916908373ffffffffffffffffffffffffffffffffffffffff1602179055505f60065f6101000a81548173ffffffffffffffffffffffffffffffffffffffff021916908373ffffffffffffffffffffffffffffffffffffffff1602179055505f60075f6101000a81548173ffffffffffffffffffffffffffffffffffffffff021916908373ffffffffffffffffffffffffffffffffffffffff1602179055505f600760146101000a81548160ff0219169083151502179055505f600760156101000a81548160ff0219169083151502179055505f600760166101000a81548160ff0219169083151502179055505f600760176101000a81548160ff0219169083151502179055505f600760186101000a81548160ff0219169083151502179055505f600760196101000a81548160ff0219169083151502179055505f6007601a6101000a81548160ff0219169083151502179055505f6007601b6101000a81548160ff0219169083151502179055505f6007601c6101000a81548160ff0219169083151502179055505f6007601d6101000a81548160ff0219169083151502179055505f6007601e6101000a81548160ff0219169083151502179055505f6008819055505f6009819055505f600a819055505f600b819055505f600c819055505f600d819055505f600e819055505f600f819055505f6010819055505f6011819055505f6012819055505f6013819055505f6014819055505f6015819055505f6016819055505f5f1b6017819055505f6018819055505f6019819055505f601a819055505f601b5f6101000a81548160ff0219169083151502179055505f601b60016101000a81548160ff021916908315150217905550565b5f5f8411612f39576040517f08c379a0000000000000000000000000000000000000000000000000000000008152600401612f3090613c8a565b60405180910390fd5b5f83118015612f4757508382115b612f86576040517f08c379a0000000000000000000000000000000000000000000000000000000008152600401612f7d90613cf2565b60405180910390fd5b5f6103e88585612f969190613637565b612fa09190613637565b90505f6103e58685612fb29190613772565b612fbc9190613637565b905060018183612fcc91906136a5565b612fd69190613a71565b925050509392505050565b5f8115159050919050565b612ff581612fe1565b82525050565b5f60208201905061300e5f830184612fec565b92915050565b5f604051905090565b5f5ffd5b5f5ffd5b5f819050919050565b61303781613025565b8114613041575f5ffd5b50565b5f813590506130528161302e565b92915050565b5f5f6040838503121561306e5761306d61301d565b5b5f61307b85828601613044565b925050602061308c85828601613044565b9150509250929050565b5f73ffffffffffffffffffffffffffffffffffffffff82169050919050565b5f6130bf82613096565b9050919050565b6130cf816130b5565b81146130d9575f5ffd5b50565b5f813590506130ea816130c6565b92915050565b5f5ffd5b5f5ffd5b5f5ffd5b5f5f83601f840112613111576131106130f0565b5b8235905067ffffffffffffffff81111561312e5761312d6130f4565b5b60208301915083600182028301111561314a576131496130f8565b5b9250929050565b5f5f5f5f5f6080868803121561316a5761316961301d565b5b5f613177888289016130dc565b955050602061318888828901613044565b945050604061319988828901613044565b935050606086013567ffffffffffffffff8111156131ba576131b9613021565b5b6131c6888289016130fc565b92509250509295509295909350565b6131de816130b5565b82525050565b5f6020820190506131f75f8301846131d5565b92915050565b61320681613025565b82525050565b5f60208201905061321f5f8301846131fd565b92915050565b5f819050919050565b61323781613225565b82525050565b5f6020820190506132505f83018461322e565b92915050565b5f6101008201905061326a5f83018b6131d5565b613277602083018a612fec565b6132846040830189612fec565b6132916060830188612fec565b61329e6080830187612fec565b6132ab60a0830186612fec565b6132b860c08301856131fd565b6132c560e083018461322e565b9998505050505050505050565b5f82825260208201905092915050565b7f53454c465f4f4e4c5900000000000000000000000000000000000000000000005f82015250565b5f6133166009836132d2565b9150613321826132e2565b602082019050919050565b5f6020820190508181035f8301526133438161330a565b9050919050565b5f81519050919050565b5f82825260208201905092915050565b8281835e5f83830152505050565b5f601f19601f8301169050919050565b5f61338c8261334a565b6133968185613354565b93506133a6818560208601613364565b6133af81613372565b840191505092915050565b5f6080820190506133cd5f8301876131fd565b6133da60208301866131fd565b6133e760408301856131d5565b81810360608301526133f98184613382565b905095945050505050565b7f4e4f5f464c4153485f494e5f50524f47524553530000000000000000000000005f82015250565b5f6134386014836132d2565b915061344382613404565b602082019050919050565b5f6020820190508181035f8301526134658161342c565b9050919050565b7f554e415554484f52495a45445f504149520000000000000000000000000000005f82015250565b5f6134a06011836132d2565b91506134ab8261346c565b602082019050919050565b5f6020820190508181035f8301526134cd81613494565b9050919050565b7f554e415554484f52495a45445f53454e444552000000000000000000000000005f82015250565b5f6135086013836132d2565b9150613513826134d4565b602082019050919050565b5f6020820190508181035f830152613535816134fc565b9050919050565b7f494e53554646494349454e545f464c4153485f544f4b454e53000000000000005f82015250565b5f6135706019836132d2565b915061357b8261353c565b602082019050919050565b5f6020820190508181035f83015261359d81613564565b9050919050565b5f6040820190506135b75f8301856131d5565b6135c460208301846131d5565b9392505050565b5f815190506135d98161302e565b92915050565b5f602082840312156135f4576135f361301d565b5b5f613601848285016135cb565b91505092915050565b7f4e487b71000000000000000000000000000000000000000000000000000000005f52601160045260245ffd5b5f61364182613025565b915061364c83613025565b925082820261365a81613025565b915082820484148315176136715761367061360a565b5b5092915050565b7f4e487b71000000000000000000000000000000000000000000000000000000005f52601260045260245ffd5b5f6136af82613025565b91506136ba83613025565b9250826136ca576136c9613678565b5b828204905092915050565b7f5a45524f5f434f4e545249425554494f4e0000000000000000000000000000005f82015250565b5f6137096011836132d2565b9150613714826136d5565b602082019050919050565b5f6020820190508181035f830152613736816136fd565b9050919050565b5f6060820190506137505f8301866131d5565b61375d60208301856131fd565b61376a60408301846131fd565b949350505050565b5f61377c82613025565b915061378783613025565b925082820390508181111561379f5761379e61360a565b5b92915050565b7f4e4f5f5348415245535f4d494e544544000000000000000000000000000000005f82015250565b5f6137d96010836132d2565b91506137e4826137a5565b602082019050919050565b5f6020820190508181035f830152613806816137cd565b9050919050565b5f6040820190506138205f8301856131d5565b61382d60208301846131fd565b9392505050565b7f494e53554646494349454e545f4554485f544f5f5245504159000000000000005f82015250565b5f6138686019836132d2565b915061387382613834565b602082019050919050565b5f6020820190508181035f8301526138958161385c565b9050919050565b5f815190506138aa816130c6565b92915050565b5f602082840312156138c5576138c461301d565b5b5f6138d28482850161389c565b91505092915050565b5f5ffd5b7f4e487b71000000000000000000000000000000000000000000000000000000005f52604160045260245ffd5b61391582613372565b810181811067ffffffffffffffff82111715613934576139336138df565b5b80604052505050565b5f613946613014565b9050613952828261390c565b919050565b5f60e0828403121561396c5761396b6138db565b5b61397660e061393d565b90505f613985848285016135cb565b5f830152506020613998848285016135cb565b60208301525060406139ac848285016135cb565b60408301525060606139c0848285016135cb565b60608301525060806139d4848285016135cb565b60808301525060a06139e8848285016135cb565b60a08301525060c06139fc8482850161389c565b60c08301525092915050565b5f60e08284031215613a1d57613a1c61301d565b5b5f613a2a84828501613957565b91505092915050565b5f5f60408385031215613a4957613a4861301d565b5b5f613a56858286016135cb565b9250506020613a67858286016135cb565b9150509250929050565b5f613a7b82613025565b9150613a8683613025565b9250828201905080821115613a9e57613a9d61360a565b5b92915050565b5f604082019050613ab75f8301856131fd565b613ac460208301846131fd565b9392505050565b5f81905092915050565b5f613adf8261334a565b613ae98185613acb565b9350613af9818560208601613364565b80840191505092915050565b5f613b108284613ad5565b915081905092915050565b613b2481612fe1565b8114613b2e575f5ffd5b50565b5f81519050613b3f81613b1b565b92915050565b5f60208284031215613b5a57613b5961301d565b5b5f613b6784828501613b31565b91505092915050565b7f415050524f56455f4641494c45440000000000000000000000000000000000005f82015250565b5f613ba4600e836132d2565b9150613baf82613b70565b602082019050919050565b5f6020820190508181035f830152613bd181613b98565b9050919050565b7f5452414e534645525f4641494c454400000000000000000000000000000000005f82015250565b5f613c0c600f836132d2565b9150613c1782613bd8565b602082019050919050565b5f6020820190508181035f830152613c3981613c00565b9050919050565b7f494e56414c49445f414d4f554e545f4f555400000000000000000000000000005f82015250565b5f613c746012836132d2565b9150613c7f82613c40565b602082019050919050565b5f6020820190508181035f830152613ca181613c68565b9050919050565b7f494e56414c49445f5245534552564553000000000000000000000000000000005f82015250565b5f613cdc6010836132d2565b9150613ce782613ca8565b602082019050919050565b5f6020820190508181035f830152613d0981613cd0565b905091905056fea26469706673582212206e9524d20cf578c9a16c572ce964a0aac106875b6ef5c675a9695960d97f4ff164736f6c634300081e0033","linkReferences":{}},"methodIdentifiers":{"CANONICAL_PATH_ATTACKER_CONTRIBUTION()":"55ef5de2","CANONICAL_PATH_INFLATED_SHARES()":"65cfcc3c","CANONICAL_PATH_PARKED_LIQUIDITY()":"defc6011","CANONICAL_PATH_SEED_LIQUIDITY()":"ae06e558","CANONICAL_PATH_SEED_SHARES()":"fff2beff","TARGET_POOL()":"181e0cc6","_kickoffFlashSwap(uint256,uint256)":"016e8c35","actualMintedShares()":"bcfeb57e","attackerControllableReturnLeg()":"c9cdcc83","attackerDepositPathModeled()":"019f0179","depositAttempted()":"026c25df","depositSucceeded()":"4d0891cd","executeOnOpportunity()":"3c2448ed","financingWithdrawBps()":"2d003394","honestSeedLiquidityDetected()":"3aee2a17","hypothesisValidated()":"463defd1","inflatedMintDetected()":"00821d81","inspectedToken()":"76f0e9b1","lastReason()":"4b0cc7b7","matchedEthContribution()":"353789c1","matchedLiquidityContribution()":"f6c27220","matchedTokenContribution()":"8b450af1","orderbook()":"c18b1d5e","parkedLiquidityDetected()":"6a7bdec4","parkedLiquidityLowerBound()":"1f38ffd8","poolInitialized()":"b98ad255","poolTotalEth()":"b788d797","poolTotalLPShares()":"59bdd7e2","poolTotalLiquidity()":"f7d4bbf5","poolTotalToken()":"c2712893","profitAmount()":"5ff972cc","profitToken()":"49343624","reason()":"e134e33d","registry()":"7b103999","reserveEth()":"899b1528","reserveToken()":"f4325d67","retainedLPShares()":"b65d2937","router()":"f887ea40","simulatedInflatedShares()":"d8683024","simulatedShareBpsAfterMint()":"e6568244","summary()":"b16a867c","transferETHToOrderbookPathObserved()":"0ceb1ff9","transferTokenToOrderbookPathObserved()":"cb0a40d9","uniswapPair()":"c816841b","uniswapV2Call(address,uint256,uint256,bytes)":"10d1e85c","weth()":"3fc8cef3"},"id":0}