{"abi":[{"type":"constructor","inputs":[],"stateMutability":"nonpayable"},{"type":"receive","stateMutability":"payable"},{"type":"function","name":"executeOnOpportunity","inputs":[],"outputs":[],"stateMutability":"nonpayable"},{"type":"function","name":"executeOperation","inputs":[{"name":"assets","type":"address[]","internalType":"address[]"},{"name":"amounts","type":"uint256[]","internalType":"uint256[]"},{"name":"premiums","type":"uint256[]","internalType":"uint256[]"},{"name":"","type":"address","internalType":"address"},{"name":"","type":"bytes","internalType":"bytes"}],"outputs":[{"name":"","type":"bool","internalType":"bool"}],"stateMutability":"nonpayable"},{"type":"function","name":"hypothesisWasValidated","inputs":[],"outputs":[{"name":"","type":"bool","internalType":"bool"}],"stateMutability":"view"},{"type":"function","name":"oraclePriceInCallback","inputs":[],"outputs":[{"name":"","type":"uint256","internalType":"uint256"}],"stateMutability":"view"},{"type":"function","name":"oraclePricePreExit","inputs":[],"outputs":[{"name":"","type":"uint256","internalType":"uint256"}],"stateMutability":"view"},{"type":"function","name":"profitAmount","inputs":[],"outputs":[{"name":"","type":"uint256","internalType":"uint256"}],"stateMutability":"view"},{"type":"function","name":"profitToken","inputs":[],"outputs":[{"name":"","type":"address","internalType":"address"}],"stateMutability":"pure"},{"type":"function","name":"recordCallbackOraclePrice","inputs":[{"name":"price","type":"uint256","internalType":"uint256"}],"outputs":[],"stateMutability":"nonpayable"},{"type":"function","name":"recordPreExitOraclePrice","inputs":[{"name":"price","type":"uint256","internalType":"uint256"}],"outputs":[],"stateMutability":"nonpayable"}],"bytecode":{"object":"0x60808060405234601557612967908161001a8239f35b5f80fdfe608080604052600436101561001c575b50361561001a575f80fd5b005b5f905f3560e01c90816314315a8114611067575080633c2448ed14610d105780634934362414610ce85780635ff972cc14610ccb57806388d2b88614610c98578063920f5c8414610129578063a4f6e2eb14610106578063bd3dc936146100e85763f7c79ebf0361000f57346100e55760203660031901126100e557600480549060ff90356100b933600885901c6001600160a01b031614611147565b8060035560025480151591826100db575b50501515169060ff19161760045580f35b1190505f806100ca565b80fd5b50346100e557806003193601126100e5576020600354604051908152f35b50346100e557806003193601126100e557602060ff600454166040519015158152f35b50346100e55760a03660031901126100e55760043567ffffffffffffffff811161081d5761015b903690600401611081565b9060243567ffffffffffffffff8111610c945761017c903690600401611081565b9160443567ffffffffffffffff8111610c905761019d903690600401611081565b90916064356001600160a01b03811603610c515760843567ffffffffffffffff8111610ad05736602382011215610ad057806004013567ffffffffffffffff811161080f5736910160240111610c51577387870bca3f3fd6335c3f4ce8392d69350b4fa4e23303610c60575f5160206129125f395f51905f523b15610c5157604051632e1a7d4d60e01b8152683ba1910bf341b00000600482015287908181602481835f5160206129125f395f51905f525af18015610c5557610c3c575b5050604095865161026c88826110b2565b87368237683ba1910bf341b0000081528751630b4c7e4d60e01b81529089600483015b60028210610c2657505050683635c9adc5dea000006044820152602081606481683ba1910bf341b0000073dc24316b9ae028f1497c275eb9192a3ea0f670225af1801561079057610c07575b5086516117418082019082821067ffffffffffffffff831117610bf357828b93926020926111d1833930815203019082f08015610be75760048054610100600160a81b031916600883901b610100600160a81b031617815589516370a0823160e01b815230918101919091526001600160a01b0391909116906020816024815f5160206129125f395f51905f525afa908115610afb578391610baf575b50895163a9059cbb60e01b81526001600160a01b03831660048201526024810191909152602081604481865f5160206129125f395f51905f525af18015610afb57610b92575b5088516370a0823160e01b8152306004820152602081602481737f39c581f595b53c5cb19bd0b3f8da6c935e2ca05afa908115610afb578391610b5a575b50895163a9059cbb60e01b81526001600160a01b0383166004820152602481019190915260208160448186737f39c581f595b53c5cb19bd0b3f8da6c935e2ca05af18015610afb57610b3d575b5088516370a0823160e01b81523060048201526020816024817306325440d014e39736583c165c2963ba99faf14e5afa908115610afb578391610b05575b50895163a9059cbb60e01b81526001600160a01b03831660048201526024810191909152602081604481867306325440d014e39736583c165c2963ba99faf14e5af18015610afb57610ade575b50803b1561081d5781809160048b5180948193634c2366cf60e11b83525af18015610ad457610abb575b505060048054610100600160a81b031916815587516370a0823160e01b815230918101919091526020816024817306325440d014e39736583c165c2963ba99faf14e5afa908115610790578991610a89575b5080610a1a575b5086516370a0823160e01b8152306004820152602081602481737f39c581f595b53c5cb19bd0b3f8da6c935e2ca05afa9081156107905789916109e8575b50861561079a57831561079a576105ae8535873561119b565b90818111610956575b5087516370a0823160e01b8152306004820152899060208160248173ae7ab96520de3a18e5e111b5eaab095312d7fe845afa90811561081357829161091d575b5080610821575b5050476107ae575b811561079a57889060209089906001600160a01b03610624876111bc565b1690825194858094819363095ea7b360e01b83528760048401928301927387870bca3f3fd6335c3f4ce8392d69350b4fa4e28152015203925af1801561079057610773575b506001101561075f576001600160a01b0390610687906020016111bc565b16936001101561074b576001101561073757916106ae60209283808896013591013561119b565b908451809481809463095ea7b360e01b82526004820190878a8301927387870bca3f3fd6335c3f4ce8392d69350b4fa4e28152015203925af1801561072b57602093506106fe575b505160018152f35b61071d90833d8511610724575b61071581836110b2565b810190611183565b505f6106f6565b503d61070b565b505051903d90823e3d90fd5b634e487b7160e01b85526032600452602485fd5b634e487b7160e01b86526032600452602486fd5b634e487b7160e01b87526032600452602487fd5b61078b9060203d6020116107245761071581836110b2565b610669565b88513d8b823e3d90fd5b634e487b7160e01b89526032600452602489fd5b88475f5160206129125f395f51905f523b1561081d57816004918b5192838092630d0e30db60e41b82525f5160206129125f395f51905f525af18015610813576107fa575b5050610606565b81610804916110b2565b61080f57885f6107f3565b8880fd5b8a513d84823e3d90fd5b5080fd5b895163095ea7b360e01b815273dc24316b9ae028f1497c275eb9192a3ea0f670226004820152602481018290526020816044818673ae7ab96520de3a18e5e111b5eaab095312d7fe845af18015610913576108f6575b5073dc24316b9ae028f1497c275eb9192a3ea0f670223b1561081d57895190630f7c084960e21b82526001600483015282602483015260448201526001606482015281816084818373dc24316b9ae028f1497c275eb9192a3ea0f670225af1801561081357156105fe57816108eb916110b2565b61080f57885f6105fe565b61090e9060203d6020116107245761071581836110b2565b610877565b8b513d85823e3d90fd5b9150506020813d60201161094e575b81610939602093836110b2565b8101031261094a578990515f6105f7565b5f80fd5b3d915061092c565b8181039081116109d457885190636f074d1f60e11b825260048201526020816024818d737f39c581f595b53c5cb19bd0b3f8da6c935e2ca05af180156109ca57156105b7576109bc9060203d6020116109c3575b6109b481836110b2565b810190611138565b505f6105b7565b503d6109aa565b89513d8c823e3d90fd5b634e487b7160e01b8a52601160045260248afd5b90506020813d602011610a12575b81610a03602093836110b2565b8101031261094a57515f610595565b3d91506109f6565b875190630d2680e960e11b82526004820152886024820152683635c9adc5dea0000060448201526020816064818c73dc24316b9ae028f1497c275eb9192a3ea0f670225af18015610790571561055757610a829060203d6020116109c3576109b481836110b2565b505f610557565b90506020813d602011610ab3575b81610aa4602093836110b2565b8101031261094a57515f610550565b3d9150610a97565b81610ac5916110b2565b610ad057875f6104fe565b8780fd5b89513d84823e3d90fd5b610af69060203d6020116107245761071581836110b2565b6104d4565b8a513d85823e3d90fd5b9250506020823d602011610b35575b81610b21602093836110b2565b8101031261094a5790518991906020610487565b3d9150610b14565b610b559060203d6020116107245761071581836110b2565b610449565b9250506020823d602011610b8a575b81610b76602093836110b2565b8101031261094a57905189919060206103fc565b3d9150610b69565b610baa9060203d6020116107245761071581836110b2565b6103be565b9250506020823d602011610bdf575b81610bcb602093836110b2565b8101031261094a5790518991906020610378565b3d9150610bbe565b508751903d90823e3d90fd5b634e487b7160e01b8b52604160045260248bfd5b610c1f9060203d6020116109c3576109b481836110b2565b505f6102db565b602080600192855181520193019101909161028f565b81610c46916110b2565b610c5157865f61025b565b8680fd5b6040513d84823e3d90fd5b60405162461bcd60e51b81526020600482015260086024820152676e6f742d6161766560c01b6044820152606490fd5b8580fd5b8380fd5b50346100e55760203660031901126100e557610cc260018060a01b0360045460081c163314611147565b60043560025580f35b50346100e557806003193601126100e55760209054604051908152f35b50346100e557806003193601126100e55760206040515f5160206129125f395f51905f528152f35b503461094a575f36600319011261094a5760015460ff811661102e5760019060ff191617600155604051610d456060826110b2565b6002815260208101604080368337737f39c581f595b53c5cb19bd0b3f8da6c935e2ca0610d71846110d4565b525f5160206129125f395f51905f52610d89846110f5565b5260405190610d996060836110b2565b6002825280366020840137690a968163f0a57b400000610db8836110d4565b52690cb49b44ba602d800000610dcd836110f5565b5260405190610ddd6060836110b2565b600282523660208301375f610df1826110d4565b525f610dfc826110f5565b5260405192602084019284841067ffffffffffffffff85111761101a57836040525f85527387870bca3f3fd6335c3f4ce8392d69350b4fa4e23b1561094a5760405163ab9c4b5d60e01b815230600482015260e06024820152955160e4870181905286949392610104860192915f5b818110610ff85750505092610ea78593610e955f9894602097600319888303016044890152611105565b85810360031901606487015290611105565b913060848501526003198484030160a48501525180918184528584015e858482840101528560c4840152601f801991011601030181837387870bca3f3fd6335c3f4ce8392d69350b4fa4e25af18015610fed57610fda575b5047610f75575b6040516370a0823160e01b81523060048201526020816024815f5160206129125f395f51905f525afa908115610c55578291610f43575b50815580f35b90506020813d602011610f6d575b81610f5e602093836110b2565b8101031261094a57515f610f3d565b3d9150610f51565b80475f5160206129125f395f51905f523b15610fd7578160049160405192838092630d0e30db60e41b82525f5160206129125f395f51905f525af18015610c5557610fc2575b5050610f06565b81610fcc916110b2565b6100e557805f610fbb565b50fd5b610fe691505f906110b2565b5f5f610eff565b6040513d5f823e3d90fd5b82516001600160a01b0316855289975060209485019490920191600101610e6b565b634e487b7160e01b5f52604160045260245ffd5b60405162461bcd60e51b8152602060048201526011602482015270185b1c9958591e4b585d1d195b5c1d1959607a1b6044820152606490fd5b3461094a575f36600319011261094a576020906002548152f35b9181601f8401121561094a5782359167ffffffffffffffff831161094a576020808501948460051b01011161094a57565b90601f8019910116810190811067ffffffffffffffff82111761101a57604052565b8051156110e15760200190565b634e487b7160e01b5f52603260045260245ffd5b8051600110156110e15760400190565b90602080835192838152019201905f5b8181106111225750505090565b8251845260209384019390920191600101611115565b9081602091031261094a575190565b1561114e57565b60405162461bcd60e51b815260206004820152600d60248201526c3737ba16b2bc383637b4ba32b960991b6044820152606490fd5b9081602091031261094a5751801515810361094a5790565b919082018092116111a857565b634e487b7160e01b5f52601160045260245ffd5b356001600160a01b038116810361094a579056fe60a034606e57601f61174138819003918201601f19168301916001600160401b03831184841017607257808492602094604052833981010312606e57516001600160a01b03811690819003606e576080526040516116ba90816100878239608051818181605d01526102060152f35b5f80fd5b634e487b7160e01b5f52604160045260245ffdfe60808060405260043610156101dd575b50361561001a575f80fd5b5f80545f1981146101c9576001809101805f551461003457005b60405163b3596f0760e01b81527310aa9eea35a3102cc47d4d93bc0ba9ae4555774660048201527f00000000000000000000000000000000000000000000000000000000000000006001600160a01b03169060208160248173e5d78eb340627b8d5bcff63590ebec1ef9118c895afa908115610188575f91610197575b50813b15610193575f9160248392604051948593849263f7c79ebf60e01b845260048401525af1801561018857610175575b50739f72dc67cec672bb99e3d02cbea0a21536a2b6573b1561016757604051635a3b74b960e01b815273901247d08bebfd449526da92941b35d756873bcd600482015260248101829052818160448183739f72dc67cec672bb99e3d02cbea0a21536a2b6575af1801561016a5761015657005b61016182809261139c565b61016757005b80fd5b6040513d84823e3d90fd5b61018191505f9061139c565b5f5f6100e3565b6040513d5f823e3d90fd5b5f80fd5b90506020813d6020116101c1575b816101b26020938361139c565b8101031261019357515f6100b1565b3d91506101a5565b634e487b7160e01b5f52601160045260245ffd5b5f905f3560e01c639846cd9e146101f4575061000f565b34610193575f366003190112610193577f00000000000000000000000000000000000000000000000000000000000000006001600160a01b0316903382900361133e575060405163038fff2d60e41b81526020816004815f5160206116455f395f51905f525afa908115610188575f9161130c575b5060609060405161027a838261139c565b60028152601f198301926020820184368237690a968163f0a57b4000006102a0846113d6565b52690c11f9e7b10e91a000006102b5846113f7565b52604051946102c4838761139c565b6002865236602087013760405190608082016001602084015283604084015284518091528260a0810183925f5b8181106112f357505061031292505f8683015203601f19810184528361139c565b737f39c581f595b53c5cb19bd0b3f8da6c935e2ca0610351604051976103378961136c565b8089528660208a0152604089019485525f868a01526113d6565b5273c02aaa39b223fe8d0a0e5c4f27ead9083c756cc261037187516113f7565b52604051639ebbf05d60e01b81525f81806103928a30808c60048601611495565b03818373e39b5e3b6d74016b2f6a9673d7d7493b6df549d55af1908115610188575f916112d8575b50604093919351938491608083019360016020850152806040850152875180955260a0840192945f5b8181106112bf575050610402945083015203601f19810184528361139c565b5261040c816113d6565b5160405163095ea7b360e01b81525f5160206116655f395f51905f5260048201526024810191909152906020826044815f737f39c581f595b53c5cb19bd0b3f8da6c935e2ca05af19182156101885761046a926112a2575b506113f7565b5160405163095ea7b360e01b81525f5160206116655f395f51905f52600482015260248101919091526020816044815f73c02aaa39b223fe8d0a0e5c4f27ead9083c756cc25af1801561018857611285575b505f5160206116655f395f51905f523b156101935760405163172b958560e31b8152915f91839182916104f791903090819060048601611495565b0381835f5160206116655f395f51905f525af1801561018857611270575b5060405163095ea7b360e01b815273a36be47700c079bd94adc09f35b0fa93a55297bc6004820152683635c9adc5dea000006024820152602081604481867306325440d014e39736583c165c2963ba99faf14e5af18015610de257611253575b5073a36be47700c079bd94adc09f35b0fa93a55297bc3b15610f995760405163259f2d0160e01b81527306325440d014e39736583c165c2963ba99faf14e6004820152683635c9adc5dea000006024820152306044820152829081816064818373a36be47700c079bd94adc09f35b0fa93a55297bc5af1801561016a5761123e575b505060405163095ea7b360e01b8152736ae5fd07c0bb2264b1f60b33f65920a2b912151c6004820152680ca65d6137250f3c136024820152602081604481865f5160206116455f395f51905f525af18015610de257611221575b50736ae5fd07c0bb2264b1f60b33f65920a2b912151c3b15610f995760405163259f2d0160e01b81525f5160206116455f395f51905f526004820152680ca65d6137250f3c1360248201523060448201528290818160648183736ae5fd07c0bb2264b1f60b33f65920a2b912151c5af1801561016a5761120c575b5050739f72dc67cec672bb99e3d02cbea0a21536a2b6573b15610f99578160405163a415bcad60e01b815273c02aaa39b223fe8d0a0e5c4f27ead9083c756cc26004820152681bd4670912eb21842a602482015260026044820152816064820152306084820152818160a48183739f72dc67cec672bb99e3d02cbea0a21536a2b6575af1801561016a576111f7575b5060405163038fff2d60e41b81526020816004815f5160206116455f395f51905f525afa90811561016a5782916111c2575b506040516370a0823160e01b8152306004820152906020826024815f5160206116455f395f51905f525afa918215610de257839261118b575b506107d082611581565b916040516331ecb14b60e21b81528481806107f18730308960048601611495565b03818373e39b5e3b6d74016b2f6a9673d7d7493b6df549d55af18015610fff57611172575b5060405163095ea7b360e01b81525f5160206116655f395f51905f5260048201526024810191909152602081604481875f5160206116455f395f51905f525af18015610fd357611155575b5060405163b3596f0760e01b81527310aa9eea35a3102cc47d4d93bc0ba9ae45557746600482015260208160248173e5d78eb340627b8d5bcff63590ebec1ef9118c895afa908115610fd3578491611120575b50843b1561111c57604051906344695c4360e11b82526004820152838160248183895af1908115610fd3578491611107575b50505f5160206116655f395f51905f523b15610fb257604051638bdb391360e01b81529183918391829161092291903090819060048601611495565b0381835f5160206116655f395f51905f525af1801561016a576110f2575b505073a36be47700c079bd94adc09f35b0fa93a55297bc3b15610f995760405163a5fdfc6360e01b81527306325440d014e39736583c165c2963ba99faf14e6004820152683635c9adc5dea000006024820152600a6044820152306064820152829081816084818373a36be47700c079bd94adc09f35b0fa93a55297bc5af1801561016a576110dd575b50604051632fe4a15f60e21b815230600482015260c081602481739f72dc67cec672bb99e3d02cbea0a21536a2b6575afa90811561016a5782916110a8575b5060405163095ea7b360e01b8152739f72dc67cec672bb99e3d02cbea0a21536a2b6576004820152602481018290526020816044818673c02aaa39b223fe8d0a0e5c4f27ead9083c756cc25af18015610de25761108b575b50739f72dc67cec672bb99e3d02cbea0a21536a2b6573b15610f99576040519062a718a960e01b82525f5160206116455f395f51905f52600483015273c02aaa39b223fe8d0a0e5c4f27ead9083c756cc260248301523060448301526064820152816084820152818160a48183739f72dc67cec672bb99e3d02cbea0a21536a2b6575af1801561016a57611076575b5060405163038fff2d60e41b81526020816004815f5160206116455f395f51905f525afa90811561016a578291611041575b506040516370a0823160e01b8152306004820152906020826024815f5160206116455f395f51905f525afa918215610de257839261100a575b50610b6582611581565b916040516331ecb14b60e21b8152848180610b868730308960048601611495565b03818373e39b5e3b6d74016b2f6a9673d7d7493b6df549d55af18015610fff57610fde575b5060405163095ea7b360e01b81525f5160206116655f395f51905f5260048201526024810191909152602081604481875f5160206116455f395f51905f525af18015610fd357610fb6575b505f5160206116655f395f51905f523b15610fb257604051638bdb391360e01b815291839183918291610c3191903090819060048601611495565b0381835f5160206116655f395f51905f525af1801561016a57610f9d575b505047610f29575b6040516370a0823160e01b815230600482015260208160248173c02aaa39b223fe8d0a0e5c4f27ead9083c756cc25afa908115610de2578391610ef7575b5080610e8b575b506040516370a0823160e01b8152306004820152602081602481737f39c581f595b53c5cb19bd0b3f8da6c935e2ca05afa908115610de2578391610e59575b5080610ded575b506040516370a0823160e01b8152306004820152906020826024817306325440d014e39736583c165c2963ba99faf14e5afa918215610de2578392610dae575b5081610d2c578280f35b60405163a9059cbb60e01b81526001600160a01b039190911660048201526024810191909152602081604481857306325440d014e39736583c165c2963ba99faf14e5af1801561016a57610d7f57808280f35b610da09060203d602011610da7575b610d98818361139c565b8101906113be565b505f808280f35b503d610d8e565b9091506020813d602011610dda575b81610dca6020938361139c565b810103126101935751905f610d22565b3d9150610dbd565b6040513d85823e3d90fd5b60405163a9059cbb60e01b81526001600160a01b0383166004820152602481019190915260208160448186737f39c581f595b53c5cb19bd0b3f8da6c935e2ca05af18015610de25715610ce257610e529060203d602011610da757610d98818361139c565b505f610ce2565b90506020813d602011610e83575b81610e746020938361139c565b8101031261019357515f610cdb565b3d9150610e67565b60405163a9059cbb60e01b81526001600160a01b038316600482015260248101919091526020816044818673c02aaa39b223fe8d0a0e5c4f27ead9083c756cc25af18015610de25715610c9c57610ef09060203d602011610da757610d98818361139c565b505f610c9c565b90506020813d602011610f21575b81610f126020938361139c565b8101031261019357515f610c95565b3d9150610f05565b814773c02aaa39b223fe8d0a0e5c4f27ead9083c756cc23b15610f99578160049160405192838092630d0e30db60e41b825273c02aaa39b223fe8d0a0e5c4f27ead9083c756cc25af1801561016a57610f84575b5050610c57565b81610f8e9161139c565b610f9957815f610f7d565b5080fd5b81610fa79161139c565b610f9957815f610c4f565b8280fd5b610fce9060203d602011610da757610d98818361139c565b610bf6565b6040513d86823e3d90fd5b610ff9903d8087833e610ff1818361139c565b810190611407565b50610bab565b6040513d87823e3d90fd5b925090506020823d602011611039575b816110276020938361139c565b8101031261019357839151905f610b5b565b3d915061101a565b9150506020813d60201161106e575b8161105d6020938361139c565b81010312610193578290515f610b22565b3d9150611050565b816110809161139c565b610f9957815f610af0565b6110a39060203d602011610da757610d98818361139c565b610a61565b905060c0813d60c0116110d5575b816110c360c0938361139c565b81010312610f9957602001515f610a09565b3d91506110b6565b816110e79161139c565b610f9957815f6109ca565b816110fc9161139c565b610f9957815f610940565b816111119161139c565b610fb257825f6108e6565b8380fd5b9350506020833d60201161114d575b8161113c6020938361139c565b81010312610193578492515f6108b4565b3d915061112f565b61116d9060203d602011610da757610d98818361139c565b610861565b611185903d8087833e610ff1818361139c565b50610816565b925090506020823d6020116111ba575b816111a86020938361139c565b8101031261019357839151905f6107c6565b3d915061119b565b9150506020813d6020116111ef575b816111de6020938361139c565b81010312610193578290515f61078d565b3d91506111d1565b816112019161139c565b610f9957815f61075b565b816112169161139c565b610f9957815f6106cc565b6112399060203d602011610da757610d98818361139c565b610651565b816112489161139c565b610f9957815f6105f7565b61126b9060203d602011610da757610d98818361139c565b610575565b61127d9192505f9061139c565b5f905f610515565b61129d9060203d602011610da757610d98818361139c565b6104bc565b6112ba9060203d602011610da757610d98818361139c565b610464565b86518552602096870196899650909401936001016103e3565b6112ec91503d805f833e610ff1818361139c565b505f6103ba565b84518352602094850194879450909201916001016102f1565b90506020813d602011611336575b816113276020938361139c565b8101031261019357515f610269565b3d915061131a565b62461bcd60e51b81526020600482015260096024820152683737ba16b7bbb732b960b91b6044820152606490fd5b6080810190811067ffffffffffffffff82111761138857604052565b634e487b7160e01b5f52604160045260245ffd5b90601f8019910116810190811067ffffffffffffffff82111761138857604052565b90816020910312610193575180151581036101935790565b8051156113e35760200190565b634e487b7160e01b5f52603260045260245ffd5b8051600110156113e35760400190565b91906040838203126101935782519260208101519067ffffffffffffffff821161019357019080601f830112156101935781519167ffffffffffffffff8311611388578260051b906020820193611461604051958661139c565b845260208085019282010192831161019357602001905b8282106114855750505090565b8151815260209182019101611478565b9081526001600160a01b039182166020808301919091529290911660408201526080606082018190528351818301918252805161010084018190529195946101209093019301905f5b818110611562575050506020810151918481036020860152602080845192838152019301905f5b81811061154c57505050602092936060808360408795015184870360408601528051958691828952018888015e5f86860188015201511515910152601f01601f1916010190565b8251855260209485019490920191600101611505565b82516001600160a01b03168552602094850194909201916001016114de565b905f60606040516115918161136c565b81815281602082015281604082015201525f611641606082604051916115b7818461139c565b60028352601f1981019687366020860137604051976115d6838a61139c565b600289523660208a013760405190600160208301526040820152604081526115fe828261139c565b6040519361160b8561136c565b88855260208501526040840152820152737f39c581f595b53c5cb19bd0b3f8da6c935e2ca061163a82966113d6565b52516113f7565b5256fe00000000000000000000000032296969ef14eb0c6d29669c550d4a0449130230000000000000000000000000ba12222222228d8ba445958a75a0704d566bf2c8a2646970667358221220e72d171e81c6b2e60f5c55c798e7a8f6cb4735d257f3987b4c45f68fe937b71a64736f6c634300081e0033000000000000000000000000c02aaa39b223fe8d0a0e5c4f27ead9083c756cc2a26469706673582212207d23167f9fe2e5f369421480a042f8f5cea289f5401fd3a5c9776a994d96186164736f6c634300081e0033","linkReferences":{}},"methodIdentifiers":{"executeOnOpportunity()":"3c2448ed","executeOperation(address[],uint256[],uint256[],address,bytes)":"920f5c84","hypothesisWasValidated()":"a4f6e2eb","oraclePriceInCallback()":"bd3dc936","oraclePricePreExit()":"14315a81","profitAmount()":"5ff972cc","profitToken()":"49343624","recordCallbackOraclePrice(uint256)":"f7c79ebf","recordPreExitOraclePrice(uint256)":"88d2b886"},"id":0}