{"abi":[{"type":"constructor","inputs":[],"stateMutability":"nonpayable"},{"type":"receive","stateMutability":"payable"},{"type":"function","name":"TARGET","inputs":[],"outputs":[{"name":"","type":"address","internalType":"contract ICauldronV4Like"}],"stateMutability":"view"},{"type":"function","name":"TARGET_CAULDRON","inputs":[],"outputs":[{"name":"","type":"address","internalType":"address"}],"stateMutability":"view"},{"type":"function","name":"execute","inputs":[],"outputs":[{"name":"profitAmount","type":"uint256","internalType":"uint256"}],"stateMutability":"nonpayable"},{"type":"function","name":"executeTo","inputs":[{"name":"recipient","type":"address","internalType":"address"}],"outputs":[{"name":"profitAmount","type":"uint256","internalType":"uint256"}],"stateMutability":"nonpayable"},{"type":"function","name":"exploit","inputs":[],"outputs":[{"name":"profitAmount","type":"uint256","internalType":"uint256"}],"stateMutability":"nonpayable"},{"type":"function","name":"hypothesisValidated","inputs":[],"outputs":[{"name":"","type":"bool","internalType":"bool"}],"stateMutability":"view"},{"type":"function","name":"lastBorrowAmount","inputs":[],"outputs":[{"name":"","type":"uint256","internalType":"uint256"}],"stateMutability":"view"},{"type":"function","name":"lastBorrowPart","inputs":[],"outputs":[{"name":"","type":"uint256","internalType":"uint256"}],"stateMutability":"view"},{"type":"function","name":"lastProfitAmount","inputs":[],"outputs":[{"name":"","type":"uint256","internalType":"uint256"}],"stateMutability":"view"},{"type":"function","name":"lastProfitToken","inputs":[],"outputs":[{"name":"","type":"address","internalType":"address"}],"stateMutability":"view"},{"type":"function","name":"previewBorrowAmount","inputs":[],"outputs":[{"name":"amount","type":"uint256","internalType":"uint256"}],"stateMutability":"view"},{"type":"function","name":"previewProfitToken","inputs":[],"outputs":[{"name":"","type":"address","internalType":"address"}],"stateMutability":"view"},{"type":"function","name":"run","inputs":[],"outputs":[{"name":"profitAmount","type":"uint256","internalType":"uint256"}],"stateMutability":"nonpayable"},{"type":"function","name":"sweep","inputs":[{"name":"token","type":"address","internalType":"address"},{"name":"to","type":"address","internalType":"address"}],"outputs":[{"name":"amount","type":"uint256","internalType":"uint256"}],"stateMutability":"nonpayable"},{"type":"error","name":"AlreadyExecuted","inputs":[]},{"type":"error","name":"BorrowDidNotCreateDebt","inputs":[]},{"type":"error","name":"BorrowSequenceFailed","inputs":[]},{"type":"error","name":"NoBentoSharesReceived","inputs":[]},{"type":"error","name":"NoBorrowableMim","inputs":[]},{"type":"error","name":"NoProfitRealized","inputs":[]},{"type":"error","name":"TokenTransferFailed","inputs":[]}],"bytecode":{"object":"0x6080604052348015600e575f5ffd5b506120b58061001c5f395ff3fe6080604052600436106100e0575f3560e01c8063ada2c46d1161007e578063c040622611610058578063c0406226146102b3578063ca8ccab6146102dd578063cc1f2afa14610307578063fe87c37514610331576100e7565b8063ada2c46d14610211578063b8dc491b1461024d578063bd7a598c14610289576100e7565b806363d9b770116100ba57806363d9b770146101695780636dcb95751461019357806397f37399146101bd578063a6e59f53146101e7576100e7565b8063463defd1146100eb57806361461954146101155780636236fa781461013f576100e7565b366100e757005b5f5ffd5b3480156100f6575f5ffd5b506100ff61035b565b60405161010c91906116cb565b60405180910390f35b348015610120575f5ffd5b5061012961036d565b60405161013691906116fc565b60405180910390f35b34801561014a575f5ffd5b5061015361037c565b6040516101609190611754565b60405180910390f35b348015610174575f5ffd5b5061017d6103a0565b60405161018a91906116fc565b60405180910390f35b34801561019e575f5ffd5b506101a76103af565b6040516101b491906116fc565b60405180910390f35b3480156101c8575f5ffd5b506101d16103b5565b6040516101de91906116fc565b60405180910390f35b3480156101f2575f5ffd5b506101fb6109fe565b60405161020891906116fc565b60405180910390f35b34801561021c575f5ffd5b506102376004803603810190610232919061179b565b610a04565b60405161024491906116fc565b60405180910390f35b348015610258575f5ffd5b50610273600480360381019061026e91906117c6565b610a15565b60405161028091906116fc565b60405180910390f35b348015610294575f5ffd5b5061029d610b5c565b6040516102aa9190611754565b60405180910390f35b3480156102be575f5ffd5b506102c7610b74565b6040516102d491906116fc565b60405180910390f35b3480156102e8575f5ffd5b506102f1610b83565b6040516102fe91906116fc565b60405180910390f35b348015610312575f5ffd5b5061031b610b89565b604051610328919061185f565b60405180910390f35b34801561033c575f5ffd5b50610345610ba1565b6040516103529190611754565b60405180910390f35b60045f9054906101000a900460ff1681565b5f61037733610c28565b905090565b5f5f9054906101000a900473ffffffffffffffffffffffffffffffffffffffff1681565b5f6103aa33610c28565b905090565b60015481565b5f5f7346f54d434063e5f1a2b2cc6d9aaa657b1b9ff82c73ffffffffffffffffffffffffffffffffffffffff16639b352ae16040518163ffffffff1660e01b8152600401602060405180830381865afa158015610414573d5f5f3e3d5ffd5b505050506040513d601f19601f82011682018060405250810190610438919061188c565b90505f7346f54d434063e5f1a2b2cc6d9aaa657b1b9ff82c73ffffffffffffffffffffffffffffffffffffffff16636b2ace876040518163ffffffff1660e01b8152600401602060405180830381865afa158015610498573d5f5f3e3d5ffd5b505050506040513d601f19601f820116820180604052508101906104bc919061188c565b90505f7346f54d434063e5f1a2b2cc6d9aaa657b1b9ff82c73ffffffffffffffffffffffffffffffffffffffff1663aba024f46040518163ffffffff1660e01b8152600401602060405180830381865afa15801561051c573d5f5f3e3d5ffd5b505050506040513d601f19601f8201168201806040525081019061054091906118e1565b90505f8273ffffffffffffffffffffffffffffffffffffffff1663f7888aec857346f54d434063e5f1a2b2cc6d9aaa657b1b9ff82c6040518363ffffffff1660e01b815260040161059292919061190c565b602060405180830381865afa1580156105ad573d5f5f3e3d5ffd5b505050506040513d601f19601f820116820180604052508101906105d191906118e1565b90505f81036105e6575f9450505050506109fb565b8273ffffffffffffffffffffffffffffffffffffffff16635662311885835f6040518463ffffffff1660e01b815260040161062393929190611933565b602060405180830381865afa15801561063e573d5f5f3e3d5ffd5b505050506040513d601f19601f8201168201806040525081019061066291906118e1565b94505f8503610677575f9450505050506109fb565b5f5f7346f54d434063e5f1a2b2cc6d9aaa657b1b9ff82c73ffffffffffffffffffffffffffffffffffffffff1663e551d11d6040518163ffffffff1660e01b81526004016040805180830381865afa1580156106d5573d5f5f3e3d5ffd5b505050506040513d601f19601f820116820180604052508101906106f991906119ad565b915091505f5f7346f54d434063e5f1a2b2cc6d9aaa657b1b9ff82c73ffffffffffffffffffffffffffffffffffffffff16638285ef406040518163ffffffff1660e01b81526004016040805180830381865afa15801561075b573d5f5f3e3d5ffd5b505050506040513d601f19601f8201168201806040525081019061077f91906119ad565b915091505f7346f54d434063e5f1a2b2cc6d9aaa657b1b9ff82c73ffffffffffffffffffffffffffffffffffffffff166348e4163e306040518263ffffffff1660e01b81526004016107d19190611754565b602060405180830381865afa1580156107ec573d5f5f3e3d5ffd5b505050506040513d601f19601f8201168201806040525081019061081091906118e1565b90506fffffffffffffffffffffffffffffffff8016856fffffffffffffffffffffffffffffffff16146108be575f836fffffffffffffffffffffffffffffffff16866fffffffffffffffffffffffffffffffff161161086f575f6108a0565b836fffffffffffffffffffffffffffffffff16866fffffffffffffffffffffffffffffffff1661089f9190611a18565b5b90505f6108ad828a611393565b90508b8110156108bb57809b505b50505b6fffffffffffffffffffffffffffffffff8016846fffffffffffffffffffffffffffffffff16146109d4575f81856fffffffffffffffffffffffffffffffff1611610909575f610928565b81856fffffffffffffffffffffffffffffffff166109279190611a18565b5b90505f5f820361093a575f90506109b7565b5f856fffffffffffffffffffffffffffffffff16148061096b57505f846fffffffffffffffffffffffffffffffff16145b15610978578190506109b6565b836fffffffffffffffffffffffffffffffff16856fffffffffffffffffffffffffffffffff16836109a99190611a4b565b6109b39190611ab9565b90505b5b5f6109c2828b611393565b90508c8110156109d057809c505b5050505b6127106126ac8b6109e59190611a4b565b6109ef9190611ab9565b99505050505050505050505b90565b60035481565b5f610a0e82610c28565b9050919050565b5f8273ffffffffffffffffffffffffffffffffffffffff166370a08231306040518263ffffffff1660e01b8152600401610a4f9190611754565b602060405180830381865afa158015610a6a573d5f5f3e3d5ffd5b505050506040513d601f19601f82011682018060405250810190610a8e91906118e1565b90505f8103610a9f575f9050610b56565b5f8373ffffffffffffffffffffffffffffffffffffffff1663a9059cbb84846040518363ffffffff1660e01b8152600401610adb929190611ae9565b6020604051808303815f875af1158015610af7573d5f5f3e3d5ffd5b505050506040513d601f19601f82011682018060405250810190610b1b9190611b3a565b905080610b54576040517f045c4b0200000000000000000000000000000000000000000000000000000000815260040160405180910390fd5b505b92915050565b7346f54d434063e5f1a2b2cc6d9aaa657b1b9ff82c81565b5f610b7e33610c28565b905090565b60025481565b7346f54d434063e5f1a2b2cc6d9aaa657b1b9ff82c81565b5f7346f54d434063e5f1a2b2cc6d9aaa657b1b9ff82c73ffffffffffffffffffffffffffffffffffffffff16639b352ae16040518163ffffffff1660e01b8152600401602060405180830381865afa158015610bff573d5f5f3e3d5ffd5b505050506040513d601f19601f82011682018060405250810190610c23919061188c565b905090565b5f5f7346f54d434063e5f1a2b2cc6d9aaa657b1b9ff82c73ffffffffffffffffffffffffffffffffffffffff166348e4163e306040518263ffffffff1660e01b8152600401610c779190611754565b602060405180830381865afa158015610c92573d5f5f3e3d5ffd5b505050506040513d601f19601f82011682018060405250810190610cb691906118e1565b14610ced576040517f0dc1019700000000000000000000000000000000000000000000000000000000815260040160405180910390fd5b5f7346f54d434063e5f1a2b2cc6d9aaa657b1b9ff82c73ffffffffffffffffffffffffffffffffffffffff16639b352ae16040518163ffffffff1660e01b8152600401602060405180830381865afa158015610d4b573d5f5f3e3d5ffd5b505050506040513d601f19601f82011682018060405250810190610d6f919061188c565b90505f7346f54d434063e5f1a2b2cc6d9aaa657b1b9ff82c73ffffffffffffffffffffffffffffffffffffffff16636b2ace876040518163ffffffff1660e01b8152600401602060405180830381865afa158015610dcf573d5f5f3e3d5ffd5b505050506040513d601f19601f82011682018060405250810190610df3919061188c565b90505f7346f54d434063e5f1a2b2cc6d9aaa657b1b9ff82c73ffffffffffffffffffffffffffffffffffffffff16631c9e379b306040518263ffffffff1660e01b8152600401610e439190611754565b602060405180830381865afa158015610e5e573d5f5f3e3d5ffd5b505050506040513d601f19601f82011682018060405250810190610e8291906118e1565b90505f610e8d6103b5565b90505f8103610ec8576040517f94d014b100000000000000000000000000000000000000000000000000000000815260040160405180910390fd5b5f8473ffffffffffffffffffffffffffffffffffffffff166370a08231886040518263ffffffff1660e01b8152600401610f029190611754565b602060405180830381865afa158015610f1d573d5f5f3e3d5ffd5b505050506040513d601f19601f82011682018060405250810190610f4191906118e1565b90505f5f5f90505b601881108015610f5957505f8414155b15610f9457610f67846113d4565b15610f7c576001915083600281905550610f94565b600184901c935080610f8d90611b65565b9050610f49565b5080610fcc576040517fc60044ff00000000000000000000000000000000000000000000000000000000815260040160405180910390fd5b7346f54d434063e5f1a2b2cc6d9aaa657b1b9ff82c73ffffffffffffffffffffffffffffffffffffffff166348e4163e306040518263ffffffff1660e01b81526004016110199190611754565b602060405180830381865afa158015611034573d5f5f3e3d5ffd5b505050506040513d601f19601f8201168201806040525081019061105891906118e1565b6003819055505f60035403611099576040517f5d8965fb00000000000000000000000000000000000000000000000000000000815260040160405180910390fd5b5f8573ffffffffffffffffffffffffffffffffffffffff1663f7888aec88306040518363ffffffff1660e01b81526004016110d592919061190c565b602060405180830381865afa1580156110f0573d5f5f3e3d5ffd5b505050506040513d601f19601f8201168201806040525081019061111491906118e1565b90505f810361114f576040517f14b59cfb00000000000000000000000000000000000000000000000000000000815260040160405180910390fd5b8573ffffffffffffffffffffffffffffffffffffffff166397da6d3088308c5f866040518663ffffffff1660e01b8152600401611190959493929190611be5565b60408051808303815f875af11580156111ab573d5f5f3e3d5ffd5b505050506040513d601f19601f820116820180604052508101906111cf9190611c36565b5050828773ffffffffffffffffffffffffffffffffffffffff166370a082318b6040518263ffffffff1660e01b815260040161120b9190611754565b602060405180830381865afa158015611226573d5f5f3e3d5ffd5b505050506040513d601f19601f8201168201806040525081019061124a91906118e1565b6112549190611a18565b97505f880361128f576040517f5b7d525b00000000000000000000000000000000000000000000000000000000815260040160405180910390fd5b865f5f6101000a81548173ffffffffffffffffffffffffffffffffffffffff021916908373ffffffffffffffffffffffffffffffffffffffff160217905550876001819055505f8514801561136f57505f7346f54d434063e5f1a2b2cc6d9aaa657b1b9ff82c73ffffffffffffffffffffffffffffffffffffffff166348e4163e306040518263ffffffff1660e01b815260040161132d9190611754565b602060405180830381865afa158015611348573d5f5f3e3d5ffd5b505050506040513d601f19601f8201168201806040525081019061136c91906118e1565b14155b60045f6101000a81548160ff02191690831515021790555050505050505050919050565b5f5f83036113a3575f90506113ce565b81620186a06113b29190611c74565b620186a0846113c19190611a4b565b6113cb9190611ab9565b90505b92915050565b5f7f7fffffffffffffffffffffffffffffffffffffffffffffffffffffffffffffff821115611421577f7fffffffffffffffffffffffffffffffffffffffffffffffffffffffffffffff91505b5f600267ffffffffffffffff81111561143d5761143c611ca7565b5b60405190808252806020026020018201604052801561146b5781602001602082028036833780820191505090505b5090506005815f8151811061148357611482611cd4565b5b602002602001019060ff16908160ff16815250506008816001815181106114ad576114ac611cd4565b5b602002602001019060ff16908160ff16815250505f600267ffffffffffffffff8111156114dd576114dc611ca7565b5b60405190808252806020026020018201604052801561150b5781602001602082028036833780820191505090505b5090505f600267ffffffffffffffff81111561152a57611529611ca7565b5b60405190808252806020026020018201604052801561155d57816020015b60608152602001906001900390816115485790505b5090505f8590508030604051602001611577929190611d19565b604051602081830303815290604052825f8151811061159957611598611cd4565b5b602002602001018190525060405180602001604052805f815250826001815181106115c7576115c6611cd4565b5b60200260200101819052507346f54d434063e5f1a2b2cc6d9aaa657b1b9ff82c73ffffffffffffffffffffffffffffffffffffffff1684848460405160240161161293929190611fe5565b60405160208183030381529060405263656f3d6460e01b6020820180517bffffffffffffffffffffffffffffffffffffffffffffffffffffffff83818316178352505050506040516116649190612069565b5f604051808303815f865af19150503d805f811461169d576040519150601f19603f3d011682016040523d82523d5f602084013e6116a2565b606091505b50508095505050505050919050565b5f8115159050919050565b6116c5816116b1565b82525050565b5f6020820190506116de5f8301846116bc565b92915050565b5f819050919050565b6116f6816116e4565b82525050565b5f60208201905061170f5f8301846116ed565b92915050565b5f73ffffffffffffffffffffffffffffffffffffffff82169050919050565b5f61173e82611715565b9050919050565b61174e81611734565b82525050565b5f6020820190506117675f830184611745565b92915050565b5f5ffd5b61177a81611734565b8114611784575f5ffd5b50565b5f8135905061179581611771565b92915050565b5f602082840312156117b0576117af61176d565b5b5f6117bd84828501611787565b91505092915050565b5f5f604083850312156117dc576117db61176d565b5b5f6117e985828601611787565b92505060206117fa85828601611787565b9150509250929050565b5f819050919050565b5f61182761182261181d84611715565b611804565b611715565b9050919050565b5f6118388261180d565b9050919050565b5f6118498261182e565b9050919050565b6118598161183f565b82525050565b5f6020820190506118725f830184611850565b92915050565b5f8151905061188681611771565b92915050565b5f602082840312156118a1576118a061176d565b5b5f6118ae84828501611878565b91505092915050565b6118c0816116e4565b81146118ca575f5ffd5b50565b5f815190506118db816118b7565b92915050565b5f602082840312156118f6576118f561176d565b5b5f611903848285016118cd565b91505092915050565b5f60408201905061191f5f830185611745565b61192c6020830184611745565b9392505050565b5f6060820190506119465f830186611745565b61195360208301856116ed565b61196060408301846116bc565b949350505050565b5f6fffffffffffffffffffffffffffffffff82169050919050565b61198c81611968565b8114611996575f5ffd5b50565b5f815190506119a781611983565b92915050565b5f5f604083850312156119c3576119c261176d565b5b5f6119d085828601611999565b92505060206119e185828601611999565b9150509250929050565b7f4e487b71000000000000000000000000000000000000000000000000000000005f52601160045260245ffd5b5f611a22826116e4565b9150611a2d836116e4565b9250828203905081811115611a4557611a446119eb565b5b92915050565b5f611a55826116e4565b9150611a60836116e4565b9250828202611a6e816116e4565b91508282048414831517611a8557611a846119eb565b5b5092915050565b7f4e487b71000000000000000000000000000000000000000000000000000000005f52601260045260245ffd5b5f611ac3826116e4565b9150611ace836116e4565b925082611ade57611add611a8c565b5b828204905092915050565b5f604082019050611afc5f830185611745565b611b0960208301846116ed565b9392505050565b611b19816116b1565b8114611b23575f5ffd5b50565b5f81519050611b3481611b10565b92915050565b5f60208284031215611b4f57611b4e61176d565b5b5f611b5c84828501611b26565b91505092915050565b5f611b6f826116e4565b91507fffffffffffffffffffffffffffffffffffffffffffffffffffffffffffffffff8203611ba157611ba06119eb565b5b600182019050919050565b5f819050919050565b5f611bcf611bca611bc584611bac565b611804565b6116e4565b9050919050565b611bdf81611bb5565b82525050565b5f60a082019050611bf85f830188611745565b611c056020830187611745565b611c126040830186611745565b611c1f6060830185611bd6565b611c2c60808301846116ed565b9695505050505050565b5f5f60408385031215611c4c57611c4b61176d565b5b5f611c59858286016118cd565b9250506020611c6a858286016118cd565b9150509250929050565b5f611c7e826116e4565b9150611c89836116e4565b9250828201905080821115611ca157611ca06119eb565b5b92915050565b7f4e487b71000000000000000000000000000000000000000000000000000000005f52604160045260245ffd5b7f4e487b71000000000000000000000000000000000000000000000000000000005f52603260045260245ffd5b5f819050919050565b611d1381611d01565b82525050565b5f604082019050611d2c5f830185611d0a565b611d396020830184611745565b9392505050565b5f81519050919050565b5f82825260208201905092915050565b5f819050602082019050919050565b5f60ff82169050919050565b611d7e81611d69565b82525050565b5f611d8f8383611d75565b60208301905092915050565b5f602082019050919050565b5f611db182611d40565b611dbb8185611d4a565b9350611dc683611d5a565b805f5b83811015611df6578151611ddd8882611d84565b9750611de883611d9b565b925050600181019050611dc9565b5085935050505092915050565b5f81519050919050565b5f82825260208201905092915050565b5f819050602082019050919050565b611e35816116e4565b82525050565b5f611e468383611e2c565b60208301905092915050565b5f602082019050919050565b5f611e6882611e03565b611e728185611e0d565b9350611e7d83611e1d565b805f5b83811015611ead578151611e948882611e3b565b9750611e9f83611e52565b925050600181019050611e80565b5085935050505092915050565b5f81519050919050565b5f82825260208201905092915050565b5f819050602082019050919050565b5f81519050919050565b5f82825260208201905092915050565b8281835e5f83830152505050565b5f601f19601f8301169050919050565b5f611f2582611ee3565b611f2f8185611eed565b9350611f3f818560208601611efd565b611f4881611f0b565b840191505092915050565b5f611f5e8383611f1b565b905092915050565b5f602082019050919050565b5f611f7c82611eba565b611f868185611ec4565b935083602082028501611f9885611ed4565b805f5b85811015611fd35784840389528151611fb48582611f53565b9450611fbf83611f66565b925060208a01995050600181019050611f9b565b50829750879550505050505092915050565b5f6060820190508181035f830152611ffd8186611da7565b905081810360208301526120118185611e5e565b905081810360408301526120258184611f72565b9050949350505050565b5f81905092915050565b5f61204382611ee3565b61204d818561202f565b935061205d818560208601611efd565b80840191505092915050565b5f6120748284612039565b91508190509291505056fea264697066735822122037fd54ef5ccf08b14499059f9bb4183ded29963f50896c1b8a81f2367e15602864736f6c634300081e0033","linkReferences":{}},"methodIdentifiers":{"TARGET()":"cc1f2afa","TARGET_CAULDRON()":"bd7a598c","execute()":"61461954","executeTo(address)":"ada2c46d","exploit()":"63d9b770","hypothesisValidated()":"463defd1","lastBorrowAmount()":"ca8ccab6","lastBorrowPart()":"a6e59f53","lastProfitAmount()":"6dcb9575","lastProfitToken()":"6236fa78","previewBorrowAmount()":"97f37399","previewProfitToken()":"fe87c375","run()":"c0406226","sweep(address,address)":"b8dc491b"},"id":0}