{"abi":[{"type":"constructor","inputs":[],"stateMutability":"nonpayable"},{"type":"receive","stateMutability":"payable"},{"type":"function","name":"executeOnOpportunity","inputs":[],"outputs":[],"stateMutability":"nonpayable"},{"type":"function","name":"executeOperation","inputs":[{"name":"assets","type":"address[]","internalType":"address[]"},{"name":"amounts","type":"uint256[]","internalType":"uint256[]"},{"name":"premiums","type":"uint256[]","internalType":"uint256[]"},{"name":"initiator","type":"address","internalType":"address"},{"name":"params","type":"bytes","internalType":"bytes"}],"outputs":[{"name":"","type":"bool","internalType":"bool"}],"stateMutability":"nonpayable"},{"type":"function","name":"profitAmount","inputs":[],"outputs":[{"name":"","type":"uint256","internalType":"uint256"}],"stateMutability":"view"},{"type":"function","name":"profitToken","inputs":[],"outputs":[{"name":"","type":"address","internalType":"address"}],"stateMutability":"pure"},{"type":"function","name":"uniswapV2Call","inputs":[{"name":"sender","type":"address","internalType":"address"},{"name":"amount0","type":"uint256","internalType":"uint256"},{"name":"amount1","type":"uint256","internalType":"uint256"},{"name":"data","type":"bytes","internalType":"bytes"}],"outputs":[],"stateMutability":"nonpayable"}],"bytecode":{"object":"0x6080806040523460155761350f908161001a8239f35b5f80fdfe608080604052600436101561001c575b50361561001a575f80fd5b005b5f905f3560e01c90816310d1e85c14610d7e575080633c2448ed1461096157806349343624146109395780635ff972cc1461091c5763920f5c840361000f57346109195760a0366003190112610919576004356001600160401b0381116109175761008b903690600401611308565b916024356001600160401b038111610917576100ab903690600401611308565b9190926044356001600160401b038111610913576100cd903690600401611308565b92906064356001600160a01b03811690819003610913576084356001600160401b03811161090f576101039036906004016112db565b91737d2768de32b0b80b7a3454c06bdac94a69ddc7a933036108d457300361089657610131918101906113a0565b96610145600160ff60208b01511614611523565b60e0880193818551510361085957610100890196808851510361081b5789516040516370a0823160e01b81523060048201529790602090899060249082906001600160a01b03165afa9788156108105786986107dc575b50855b875180518210156101e757906101e18d8c6101da846001966101c782898060a01b039261158e565b511693878060a01b03905116925161158e565b5191612175565b0161019f565b50509088918a8c8a60018060a01b03825116606083015190875191813b156107d857918c9161022d93836040518096819582946313da703560e21b8452600484016116ef565b03925af1801561067757908b916107c3575b505081516040516370a0823160e01b81523060048201529190602090839060249082906001600160a01b03165afa918215610677578b9261078f575b508082111561075c5761028d9161161d565b81516102a39082906001600160a01b03166120d6565b81516001600160a01b03165f51602061349a5f395f51905f523b1561072a576040516311f9fbc960e21b81526001600160a01b03919091166004820152602481018290528a81604481835f51602061349a5f395f51905f525af1801561067757908b91610747575b50506103188115156115e0565b815161032c906001600160a01b03166119cc565b81516001600160a01b03165f51602061349a5f395f51905f523b1561072a5760405163f3fef3a360e01b81526001600160a01b03919091166004820152602481018290528a81604481835f51602061349a5f395f51905f525af1801561067757908b9161072e575b505061039f8861168a565b91516001600160a01b031690813b1561072a57918a916103d6938360405180968195829463b02f0b7360e01b8452600484016116ef565b03925af1801561071f57908991610706575b505b8681106103fc57602060405160018152f35b61040f61040a828989611709565b611719565b8a516001600160a01b039061042590849061158e565b51166001600160a01b03909116036106ca57610458610445828685611709565b3561045183885161158e565b51146115a2565b610463818584611709565b3561046f82858b611709565b3581018091116106b657602460206001600160a01b0361049361040a868d8d611709565b16604051928380926370a0823160e01b82523060048301525afa90811561067757908b918291610682575b50808381106105ca575b50916104d7818394101561163e565b6104e561040a858c8c611709565b908280604051602081019063095ea7b360e01b8252737d2768de32b0b80b7a3454c06bdac94a69ddc7a9602482015282604482015260448152610529606482611368565b519082865af150610538611df7565b5082604051602081019263095ea7b360e01b8452737d2768de32b0b80b7a3454c06bdac94a69ddc7a9602483015260448201526044815261057a606482611368565b51925af1610586611df7565b5015610594576001016103ea565b60405162461bcd60e51b815260206004820152600e60248201526d185c1c1c9bdd994b59985a5b195960921b6044820152606490fd5b90506105ef91506105e96105e261040a868d8d611709565b918461161d565b90611b6f565b602460206001600160a01b0361060961040a868d8d611709565b16604051928380926370a0823160e01b82523060048301525afa90811561067757908b91829161063d575b506104d76104c8565b9150506020813d821161066f575b8161065860209383611368565b8101031261066b57518a906104d7610634565b5f80fd5b3d915061064b565b6040513d8d823e3d90fd5b9150506020813d82116106ae575b8161069d60209383611368565b8101031261066b578a90518d6104be565b3d9150610690565b634e487b7160e01b8a52601160045260248afd5b60405162461bcd60e51b81526020600482015260146024820152730c2e6e6cae85adee4c8cae45adad2e6dac2e8c6d60631b6044820152606490fd5b8161071091611368565b61071b57878a6103e8565b8780fd5b6040513d8b823e3d90fd5b8a80fd5b8161073891611368565b61074357898c610394565b8980fd5b8161075191611368565b61074357898c61030b565b60405162461bcd60e51b815260206004820152600b60248201526a1a9bda5b8b59985a5b195960aa1b6044820152606490fd5b9091506020813d6020116107bb575b816107ab60209383611368565b8101031261066b5751908c61027b565b3d915061079e565b816107cd91611368565b61074357898c61023f565b8c80fd5b9097506020813d602011610808575b816107f860209383611368565b8101031261066b5751965f61019c565b3d91506107eb565b6040513d88823e3d90fd5b60405162461bcd60e51b81526020600482015260166024820152750c2dadeeadce85ad8cadccee8d05adad2e6dac2e8c6d60531b6044820152606490fd5b60405162461bcd60e51b81526020600482015260156024820152740c2e6e6cae85ad8cadccee8d05adad2e6dac2e8c6d605b1b6044820152606490fd5b60405162461bcd60e51b81526020600482015260166024820152753ab730baba3437b934bd32b216b4b734ba34b0ba37b960511b6044820152606490fd5b60405162461bcd60e51b81526020600482015260136024820152723ab730baba3437b934bd32b216b632b73232b960691b6044820152606490fd5b8380fd5b8280fd5b505b80fd5b503461091957806003193601126109195760209054604051908152f35b503461091957806003193601126109195760206040515f5160206134ba5f395f51905f528152f35b503461091957806003193601126109195760015460ff8116610d455760ff1916600190811790556040516370a0823160e01b81523060048201526020816024815f5160206134ba5f395f51905f525afa908115610d3a578291610d08575b50815b600c8110610a60575b506040516370a0823160e01b8152306004820152906020826024815f5160206134ba5f395f51905f525afa918215610a55578392610a21575b50808211610a10578280f35b610a199161161d565b81555f808280f35b9091506020813d602011610a4d575b81610a3d60209383611368565b8101031261066b5751905f610a04565b3d9150610a30565b6040513d85823e3d90fd5b610a68611f0d565b80516001600160a01b031615610d0257839060208101600160ff825116145f14610b5057509050610a988161277e565b905b516001600160a01b03168452600260205260408420805460ff1916600117905580610ad1575b610acc576001016109c2565b6109cb565b506040516370a0823160e01b81523060048201526020816024815f5160206134ba5f395f51905f525afa8015610b455783918591610b11575b5011610ac0565b9150506020813d8211610b3d575b81610b2c60209383611368565b8101031261066b578290515f610b0a565b3d9150610b1f565b6040513d86823e3d90fd5b60ff600291511603610a9a5760408101805160018054610100600160a81b03191660089290921b610100600160a81b031691909117905560e0820151919250859182919082906001600160a01b0390610ba89061155d565b511690610bb961010087015161155d565b518351604051630dfe168160e01b815291939190602090829060049082906001600160a01b03165afa908115610810578691610cc5575b506001600160a01b031603610cbc5750905b51604051906001600160a01b0316610c2f82610c21886020830161269f565b03601f198101845283611368565b803b1561090f57610c72948480946040519788958694859363022c0d9f60e01b85526004850152602484015230604484015260806064840152608483019061275a565b03925af19182610ca3575b5050610c9c57835b60018054610100600160a81b031916905590610a9a565b6001610c85565b81610cad91611368565b610cb857845f610c7d565b8480fd5b91935092610c02565b90506020813d8211610cfa575b81610cdf60209383611368565b81010312610cf657610cf090611e78565b5f610bf0565b8580fd5b3d9150610cd2565b506109cb565b90506020813d602011610d32575b81610d2360209383611368565b8101031261066b57515f6109bf565b3d9150610d16565b6040513d84823e3d90fd5b60405162461bcd60e51b8152602060048201526011602482015270185b1c9958591e4b585d1d195b5c1d1959607a1b6044820152606490fd5b90503461066b57608036600319011261066b576004356001600160a01b0381169081900361066b57602435916064356001600160401b03811161066b57610dc99036906004016112db565b600154909391929060081c6001600160a01b031633036112915750300361125657610df6918101906113a0565b610e09600260ff60208401511614611523565b6040810151336001600160a01b03909116036112215760e081019160018351511480611211575b156111dc5780156111d257905b610e56610e4e61010083015161155d565b5183146115a2565b610e5f8161172d565b90610e6b8215156115e0565b8051610e7f906001600160a01b03166119cc565b80516001600160a01b03165f51602061349a5f395f51905f523b1561066b5760405163f3fef3a360e01b81526001600160a01b03919091166004820152602481018390525f81604481835f51602061349a5f395f51905f525af180156111c7576111b1575b505183516001600160a01b0391821692602092909160649190610f069061155d565b51168760405195869485936346ab38f160e01b855260048501526024840152600160448401525af18015610b4557611182575b506103e88102908082046103e8149015171561116e576103e590046001810180911161116e5782906024602060018060a01b03610f76865161155d565b5116604051928380926370a0823160e01b82523060048301525afa908115610a55578391611139575b5080828110611093575b5092610fb8828495101561163e565b516001600160a01b0390610fcb9061155d565b5160405163a9059cbb60e01b60208201908152336024830152604482019490945291169190839061100981606481015b03601f198101835282611368565b51925af1611015611df7565b8161105b575b50156110245780f35b60405162461bcd60e51b815260206004820152600f60248201526e1d1c985b9cd9995c8b59985a5b1959608a1b6044820152606490fd5b8051801592508215611070575b50505f61101b565b819250906020918101031261091757602001518015158103610917575f80611068565b84516110b992506105e9906001600160a01b03906110b09061155d565b5116918461161d565b6024602060018060a01b036110ce865161155d565b5116604051928380926370a0823160e01b82523060048301525afa908115610a55578391611100575b50610fb8610fa9565b9250506020823d602011611131575b8161111c60209383611368565b8101031261066b579051839190610fb86110f7565b3d915061110f565b9250506020823d602011611166575b8161115560209383611368565b8101031261066b578391515f610f9f565b3d9150611148565b634e487b7160e01b83526011600452602483fd5b6020813d6020116111a9575b8161119b60209383611368565b8101031261066b5751610f39565b3d915061118e565b6111be9195505f90611368565b5f936020610ee4565b6040513d5f823e3d90fd5b5060443590610e3d565b60405162461bcd60e51b815260206004820152600d60248201526c6261642d63616e64696461746560981b6044820152606490fd5b5060026101008301515114610e30565b60405162461bcd60e51b815260206004820152600d60248201526c0e0c2d2e45adad2e6dac2e8c6d609b1b6044820152606490fd5b60405162461bcd60e51b81526020600482015260136024820152723ab730baba3437b934bd32b216b9b2b73232b960691b6044820152606490fd5b62461bcd60e51b81526020600482015260116024820152703ab730baba3437b934bd32b216b830b4b960791b6044820152606490fd5b35906001600160a01b038216820361066b57565b9181601f8401121561066b578235916001600160401b03831161066b576020838186019501011161066b57565b9181601f8401121561066b578235916001600160401b03831161066b576020808501948460051b01011161066b57565b61012081019081106001600160401b0382111761135457604052565b634e487b7160e01b5f52604160045260245ffd5b90601f801991011681019081106001600160401b0382111761135457604052565b6001600160401b0381116113545760051b60200190565b60208183031261066b578035906001600160401b03821161066b5701906101208282031261066b57604051916113d583611338565b6113de816112c7565b8352602081013560ff8116810361066b576020840152611400604082016112c7565b6040840152606081013560608401526080810135608084015260a081013560a084015260c081013560c084015260e08101356001600160401b03811161066b57810182601f8201121561066b5780359061145982611389565b916114676040519384611368565b80835260208084019160051b8301019185831161066b57602001905b82821061150b5750505060e0840152610100810135906001600160401b03821161066b57019080601f8301121561066b5781356114bf81611389565b926114cd6040519485611368565b81845260208085019260051b82010192831161066b57602001905b8282106114fb5750505061010082015290565b81358152602091820191016114e8565b60208091611518846112c7565b815201910190611483565b1561152a57565b60405162461bcd60e51b815260206004820152600b60248201526a77726f6e672d726f75746560a81b6044820152606490fd5b80511561156a5760200190565b634e487b7160e01b5f52603260045260245ffd5b80516001101561156a5760400190565b805182101561156a5760209160051b010190565b156115a957565b60405162461bcd60e51b815260206004820152600f60248201526e0c4dee4e4deee5adad2e6dac2e8c6d608b1b6044820152606490fd5b156115e757565b60405162461bcd60e51b815260206004820152600e60248201526d1b9bcb5b1c0b5c9958d95a5d995960921b6044820152606490fd5b9190820391821161162a57565b634e487b7160e01b5f52601160045260245ffd5b1561164557565b60405162461bcd60e51b815260206004820152601e60248201527f696e73756666696369656e742d72657061796d656e742d62616c616e636500006044820152606490fd5b9061169482611389565b6116a16040519182611368565b82815280926116b2601f1991611389565b0190602036910137565b90602080835192838152019201905f5b8181106116d95750505090565b82518452602093840193909201916001016116cc565b6040906117069392815281602082015201906116bc565b90565b919081101561156a5760051b0190565b356001600160a01b038116810361066b5790565b80516040516370a0823160e01b815230600482015291929190602090829060249082906001600160a01b03165afa9081156111c7575f9161199a575b5060e08301516001600160a01b03906117819061155d565b511661179161010085015161157e565b516040516370a0823160e01b8152306004820152602081602481865afa80156111c75782915f91611965575b501061195d578451602091906117de9082906001600160a01b031685612175565b606460018060a01b03875116935f6040519586948593635db3427760e01b855260048501526024840152600160448401525af1908161192e575b5061182357505f9150565b82516040516370a0823160e01b815230600482015290602090829060249082906001600160a01b03165afa9081156111c7575f916118fc575b50818111156118f5579061186f9161161d565b916118838360018060a01b038351166120d6565b516001600160a01b03165f51602061349a5f395f51905f523b1561066b576040516311f9fbc960e21b81526001600160a01b03919091166004820152602481018390525f81604481835f51602061349a5f395f51905f525af180156111c7576118e95750565b5f6118f391611368565b565b505f925050565b90506020813d602011611926575b8161191760209383611368565b8101031261066b57515f61185c565b3d915061190a565b6020813d602011611955575b8161194760209383611368565b8101031261066b5751611818565b3d915061193a565b505f93505050565b9150506020813d602011611992575b8161198160209383611368565b8101031261066b578190515f6117bd565b3d9150611974565b90506020813d6020116119c4575b816119b560209383611368565b8101031261066b57515f611769565b3d91506119a8565b604080516346795d0960e11b81526001600160a01b038316600482015230602482015290816044815f51602061349a5f395f51905f525afa611a5e575b505f51602061349a5f395f51905f523b1561066b57604051633bd73ee360e21b81526001600160a01b0390911660048201525f81602481835f51602061349a5f395f51905f525af180156111c7576118e95750565b604090813d8311611a82575b611a748183611368565b8101031261066b575f611a09565b503d611a6a565b8181029291811591840414171561162a57565b8115611aa6570490565b634e487b7160e01b5f52601260045260245ffd5b60208183031261066b578051906001600160401b03821161066b57019080601f8301121561066b578151611aed81611389565b92611afb6040519485611368565b81845260208085019260051b82010192831161066b57602001905b828210611b235750505090565b8151815260209182019101611b16565b90602080835192838152019201905f5b818110611b505750505090565b82516001600160a01b0316845260209384019390920191600101611b43565b8115611df357611b7e906121fc565b90604051906307c0329d60e21b82526004820152604060248201525f8180611ba96044820186611b33565b0381737a250d5630b4cf539739df2c5dacb4c659f2488d5afa80156111c757611bd9915f91611dd9575b5061155d565b516040516370a0823160e01b81523060048201526020816024815f5160206134ba5f395f51905f525afa9081156111c7575f91611da7575b508111611d62575f80604051602081019063095ea7b360e01b8252737a250d5630b4cf539739df2c5dacb4c659f2488d602482015282604482015260448152611c5b606482611368565b5190825f5160206134ba5f395f51905f525af150611c77611df7565b505f80604051602081019063095ea7b360e01b8252737a250d5630b4cf539739df2c5dacb4c659f2488d602482015284604482015260448152611cbb606482611368565b5190825f5160206134ba5f395f51905f525af1611cd6611df7565b501561059457611d11915f9160405193849283926338ed173960e01b845260048401526001602484015260a0604484015260a4830190611b33565b306064830152426084830152038183737a250d5630b4cf539739df2c5dacb4c659f2488d5af180156111c757611d445750565b611d5f903d805f833e611d578183611368565b810190611aba565b50565b60405162461bcd60e51b815260206004820152601a60248201527f696e73756666696369656e742d636f7665722d746f2d73656c6c0000000000006044820152606490fd5b90506020813d602011611dd1575b81611dc260209383611368565b8101031261066b57515f611c11565b3d9150611db5565b611ded91503d805f833e611d578183611368565b5f611bd3565b5050565b3d15611e30573d906001600160401b0382116113545760405191611e25601f8201601f191660200184611368565b82523d5f602084013e565b606090565b60405190611e4282611338565b6060610100835f81525f60208201525f60408201525f838201525f60808201525f60a08201525f60c08201528260e08201520152565b51906001600160a01b038216820361066b57565b60208183031261066b578051906001600160401b03821161066b57019080601f8301121561066b578151611ebf81611389565b92611ecd6040519485611368565b81845260208085019260051b82010192831161066b57602001905b828210611ef55750505090565b60208091611f0284611e78565b815201910190611ee8565b611f15611e35565b604051636a0ee5f560e11b815291905f836004815f51602061349a5f395f51905f525afa9283156111c7575f936120b2575b50604051637a304b8560e11b81526020816004815f51602061349a5f395f51905f525afa9081156111c7575f91612080575b506040516396c82e5760e01b81526020816004815f51602061349a5f395f51905f525afa9081156111c7575f9161204e575b508451158015612046575b801561203e575b612037575f5b8551811015612030576001600160a01b03611fde828861158e565b511690815f526002602052828460ff60405f2054166120255761200192936123d5565b608081015160808601511061201c575b506001905b01611fc3565b93506001612011565b505060019150612016565b5050509150565b5090925050565b508015611fbd565b508115611fb6565b90506020813d602011612078575b8161206960209383611368565b8101031261066b57515f611fab565b3d915061205c565b90506020813d6020116120aa575b8161209b60209383611368565b8101031261066b57515f611f79565b3d915061208e565b6120cf9193503d805f833e6120c78183611368565b810190611e8c565b915f611f47565b5f919082918280604051602081019063095ea7b360e01b82525f51602061349a5f395f51905f52602482015282604482015260448152612117606482611368565b519082865af150612126611df7565b5082604051602081019263095ea7b360e01b84525f51602061349a5f395f51905f526024830152604482015260448152612161606482611368565b51925af161216d611df7565b501561059457565b5f929183610ffb61216182958380604051602081019063095ea7b360e01b825260018060a01b0389166024820152826044820152604481526121b8606482611368565b5190828a5af1506121c7611df7565b5060405163095ea7b360e01b602082019081526001600160a01b03909616602482015260448101919091529182906064820190565b6001600160a01b038116919060605f51602061347a5f395f51905f528414612334575061222881612953565b6122f2576122346128ac565b90816122e2575b501561229d5760405191612250608084611368565b600383526060366020850137825f5160206134ba5f395f51905f526122748261155d565b525f51602061347a5f395f51905f5261228c8261157e565b5280516002101561156a5760600152565b60405162461bcd60e51b815260206004820152601760248201527f6d697373696e672d636f7665722d737761702d706174680000000000000000006044820152606490fd5b6122ec91506129bc565b5f61223b565b509060405190612303606083611368565b6002825260403660208401375f5160206134ba5f395f51905f526123268361155d565b526123308261157e565b5290565b919250506123406128ac565b1561239057604051906123538183611368565b60028252601f19013660208301375f5160206134ba5f395f51905f526123788261155d565b525f51602061347a5f395f51905f526123308261157e565b60405162461bcd60e51b815260206004820152601760248201527f6d697373696e672d636f7665722d776574682d706169720000000000000000006044820152606490fd5b9092916123e0611e35565b6040516329018f6f60e21b81526001600160a01b0384166004820181905291956060826024815f51602061349a5f395f51905f525afa9384156111c7575f925f95612664575b508215801561265c575b8015612652575b61264a576040516370a0823160e01b81525f51602061349a5f395f51905f52600482015294602086602481885afa9586156111c7575f96612616575b50851561260d57612484904261161d565b64e8d4a5100083029280840464e8d4a51000149015171561162a5762093a80936124b46124b9926124be95611a89565b611a89565b611a9c565b049081156124eb575f6004916040519283809263cc77828d60e01b82525afa5f91816125f1575b506124f1575b50505050565b9294926124fc611e35565b9360405190608082018281106001600160401b03821117611354576040526123288252611d4c602083015261138860408301526109c460608301525f5b6004811015612577576125558160051b8401518787878d612f3c565b608081015160808901511061256e575b50600101612539565b96506001612565565b5096929394905060808101516080880151106125e9575b505f5b81518110156125db576125b985856001600160a01b036125b1858761158e565b511686612a25565b60808101516080890151106125d2575b50600101612591565b965060016125c9565b50505050505f8080806124eb565b95505f61258e565b6126069192503d805f833e6120c78183611368565b905f6124e5565b50505050505050565b9095506020813d602011612642575b8161263260209383611368565b8101031261066b5751945f612473565b3d9150612625565b505050505050565b5084421115612437565b508415612430565b925093506060823d606011612697575b8161268160609383611368565b8101031261066b5760408251920151935f612426565b3d9150612674565b906020825260018060a01b03815116602083015260ff602082015116604083015260018060a01b03604082015116606083015260608101516080830152608081015160a083015260a081015160c083015260c081015160e083015261010061271760e083015161012083860152610140850190611b33565b91015191610120601f1982840301910152602080835192838152019201905f5b8181106127445750505090565b8251845260209384019390920191600101612737565b805180835260209291819084018484015e5f828201840152601f01601f1916010190565b5f9060e081018051518015801561289c575b612894576127a0610c219161168a565b91516127bb610100850151946040519384916020830161269f565b737d2768de32b0b80b7a3454c06bdac94a69ddc7a93b1561066b5761284a61280e926128325f95612820604051988997889763ab9c4b5d60e01b89523060048a015260e060248a015260e4890190611b33565b878103600319016044890152906116bc565b858103600319016064870152906116bc565b3060848501528381036003190160a48501529061275a565b8360c4830152038183737d2768de32b0b80b7a3454c06bdac94a69ddc7a95af1908161287f575b506128795790565b50600190565b61288c9192505f90611368565b5f905f612871565b505050505f90565b5080610100840151511415612790565b60405163e6a4390560e01b81525f5160206134ba5f395f51905f5260048201525f51602061347a5f395f51905f526024820152602081604481735c69bee701ef814a2b6a3edd4b1652cb9cc5aa6f5afa9081156111c7575f91612919575b506001600160a01b0316151590565b90506020813d60201161294b575b8161293460209383611368565b8101031261066b5761294590611e78565b5f61290a565b3d9150612927565b60405163e6a4390560e01b81525f5160206134ba5f395f51905f5260048201526001600160a01b039091166024820152602081604481735c69bee701ef814a2b6a3edd4b1652cb9cc5aa6f5afa9081156111c7575f9161291957506001600160a01b0316151590565b60405163e6a4390560e01b81525f51602061347a5f395f51905f5260048201526001600160a01b039091166024820152602081604481735c69bee701ef814a2b6a3edd4b1652cb9cc5aa6f5afa9081156111c7575f9161291957506001600160a01b0316151590565b91612a2e611e35565b93612a3883613195565b15612f35576001600160a01b038316925f51602061347a5f395f51905f528403612ea25760405163e6a4390560e01b81525f51602061347a5f395f51905f526004820152736b175474e89094c44da98b954eedeac495271d0f6024820152602081604481735c69bee701ef814a2b6a3edd4b1652cb9cc5aa6f5afa9081156111c7575f91612e68575b50905b6001600160a01b0382169182158015612e58575b612e4557612ae69187613275565b948515612e4f57605a8602868104605a0361162a5760649004918215612e455760405163f8b2cb4f60e01b8152600481018790526001600160a01b03909216975f926020816024818d5afa5f9181612e11575b50612bfa575b508215612bee5750604092835196612b578589611368565b60018852601f1985013660208a0137612b6f8861155d565b52835197612b7e60608a611368565b6002895260403660208b0137612b938961155d565b52612b9d8861157e565b5264e8d4a51000612bb2856124b98886611a89565b0492805198612bc08a611338565b8952600260208a01528801526060870152608086015260a085015260c084015260e083015261010082015290565b97505050505050505090565b89604051634a46c67360e11b8152896004820152602081602481855afa5f9181612dda575b50612c2c575b5050612b3f565b6040516318160ddd60e01b8152602081600481865afa5f9181612da3575b50612c56575b50612c25565b60405163936c347760e01b815291602083600481875afa5f9381612d6c575b50612c81575b50612c50565b602060049460405195868092631a995bed60e31b82525afa5f9481612d38575b50612caf575b8d9350612c7b565b60405194638656b65360e01b8652600486015260248501526044840152606483015285608483015260a482015260208160c4818d5afa5f9181612d04575b50612cfc575b80808080612ca7565b92505f612cf3565b9091506020813d602011612d30575b81612d2060209383611368565b8101031261066b5751905f612ced565b3d9150612d13565b9094506020813d602011612d64575b81612d5460209383611368565b8101031261066b5751935f612ca1565b3d9150612d47565b945092506020843d602011612d9b575b81612d8960209383611368565b8101031261066b578d9351925f612c75565b3d9150612d7c565b935090506020833d602011612dd2575b81612dc060209383611368565b8101031261066b578c9251905f612c4a565b3d9150612db3565b925090506020823d602011612e09575b81612df760209383611368565b8101031261066b578b9151905f612c1f565b3d9150612dea565b9091506020813d602011612e3d575b81612e2d60209383611368565b8101031261066b5751905f612b39565b3d9150612e20565b5050505050505090565b50505050505090565b50612e628261321d565b15612ad8565b90506020813d602011612e9a575b81612e8360209383611368565b8101031261066b57612e9490611e78565b5f612ac1565b3d9150612e76565b60405163e6a4390560e01b8152600481018590525f51602061347a5f395f51905f526024820152602081604481735c69bee701ef814a2b6a3edd4b1652cb9cc5aa6f5afa9081156111c7575f91612efb575b5090612ac4565b90506020813d602011612f2d575b81612f1660209383611368565b8101031261066b57612f2790611e78565b5f612ef4565b3d9150612f09565b5050505090565b9392919092612f49611e35565b948451801590811561318a575b50613182576040516318160ddd60e01b81526001600160a01b03919091169190602081600481865afa5f918161314e575b50612f955750505050505090565b928315612e4f57612fa6865161168a565b91612fb1875161168a565b965f19925f5b82518110156130de576001600160a01b03612fd2828561158e565b5116612fdd81613195565b156130d05760405163f8b2cb4f60e01b8152600481018290526020816024818c5afa5f918161309d575b5061301b5750505050505050505050505090565b90811561308e5761271061302f8784611a89565b0491821561307e57613045906124b98c85611a89565b801561307e57878110613075575b509082916130636001948a61158e565b5261306e828d61158e565b5201612fb7565b96506001613053565b5050505050505050505050505090565b50505050505050505050505090565b9091506020813d82116130c8575b816130b860209383611368565b8101031261066b5751905f613007565b3d91506130ab565b505050505050505050505090565b5095505050909391955f198214613144575064e8d4a51000613104836124b98685611a89565b04906040519661311388611338565b8752600160208801525f60408801526060870152608086015260a085015260c084015260e083015261010082015290565b9550505050505090565b9091506020813d60201161317a575b8161316a60209383611368565b8101031261066b5751905f612f87565b3d915061315d565b505050505090565b60049150115f612f56565b60018060a01b03165f51602061347a5f395f51905f5281149081156131ff575b81156131e1575b81156131c6575090565b73dac17f958d2ee523a2206206994597c13d831ec791501490565b73a0b86991c6218b36c1d19d4a2e9eb0ce3606eb48811491506131bc565b736b175474e89094c44da98b954eedeac495271d0f811491506131b5565b6001600160a01b0381165f51602061347a5f395f51905f521461326c5761324381612953565b90811561324e575090565b90506132586128ac565b9081613262575090565b61170691506129bc565b506117066128ac565b60405163f8b2cb4f60e01b81526001600160a01b039283166004820181905292909160209183916024918391165afa5f9181613431575b506132b8575050505f90565b91600283111561342a57604051630240bc6b60e21b8152906001600160a01b0316606082600481845afa9081156111c7575f925f926133cc575b5092602060049460405195868092630dfe168160e01b82525afa80156111c7575f9061338c575b6001600160701b0394506001600160a01b0316036133845750165b600281111561337e578160021c918215613373575b5060068104908115613368575b5080821015613363575090565b905090565b905060011c5f613356565b60011c91505f613349565b50505f90565b905016613334565b506020843d6020116133c4575b816133a660209383611368565b8101031261066b576133bf6001600160701b0394611e78565b613319565b3d9150613399565b925090506060823d606011613422575b816133e960609383611368565b8101031261066b576133fa82613465565b92604061340960208501613465565b93015163ffffffff81160361066b5792919060206132f2565b3d91506133dc565b5050505f90565b9091506020813d60201161345d575b8161344d60209383611368565b8101031261066b5751905f6132ac565b3d9150613440565b51906001600160701b038216820361066b5756fe000000000000000000000000c02aaa39b223fe8d0a0e5c4f27ead9083c756cc2000000000000000000000000e0b94a7bb45dd905c79bb1992c9879f40f1caed50000000000000000000000005d8d9f5b96f4438195be9b99eee6118ed4304286a26469706673582212206e7f4e31fdc68fbac00baa86abb63bb4d72d52212969bad508af865aa91076c064736f6c634300081e0033","linkReferences":{}},"methodIdentifiers":{"executeOnOpportunity()":"3c2448ed","executeOperation(address[],uint256[],uint256[],address,bytes)":"920f5c84","profitAmount()":"5ff972cc","profitToken()":"49343624","uniswapV2Call(address,uint256,uint256,bytes)":"10d1e85c"},"id":0}