{"abi":[{"type":"constructor","inputs":[],"stateMutability":"nonpayable"},{"type":"function","name":"CDAI","inputs":[],"outputs":[{"name":"","type":"address","internalType":"address"}],"stateMutability":"view"},{"type":"function","name":"CUSDC","inputs":[],"outputs":[{"name":"","type":"address","internalType":"address"}],"stateMutability":"view"},{"type":"function","name":"CUSDT","inputs":[],"outputs":[{"name":"","type":"address","internalType":"address"}],"stateMutability":"view"},{"type":"function","name":"DAI","inputs":[],"outputs":[{"name":"","type":"address","internalType":"address"}],"stateMutability":"view"},{"type":"function","name":"TARGET","inputs":[],"outputs":[{"name":"","type":"address","internalType":"address"}],"stateMutability":"view"},{"type":"function","name":"USDC","inputs":[],"outputs":[{"name":"","type":"address","internalType":"address"}],"stateMutability":"view"},{"type":"function","name":"USDT","inputs":[],"outputs":[{"name":"","type":"address","internalType":"address"}],"stateMutability":"view"},{"type":"function","name":"chosenState","inputs":[],"outputs":[{"name":"token","type":"address","internalType":"address"},{"name":"cToken","type":"address","internalType":"address"},{"name":"mintPaused","type":"bool","internalType":"bool"},{"name":"accountedPrincipal","type":"uint256","internalType":"uint256"},{"name":"localIdleBalance","type":"uint256","internalType":"uint256"},{"name":"compoundCash","type":"uint256","internalType":"uint256"}],"stateMutability":"view"},{"type":"function","name":"executeOnOpportunity","inputs":[],"outputs":[],"stateMutability":"nonpayable"},{"type":"function","name":"executed","inputs":[],"outputs":[{"name":"","type":"bool","internalType":"bool"}],"stateMutability":"view"},{"type":"function","name":"exploitPathUsed","inputs":[],"outputs":[{"name":"","type":"string","internalType":"string"}],"stateMutability":"pure"},{"type":"function","name":"hypothesisValidated","inputs":[],"outputs":[{"name":"","type":"bool","internalType":"bool"}],"stateMutability":"view"},{"type":"function","name":"profitAchieved","inputs":[],"outputs":[{"name":"","type":"bool","internalType":"bool"}],"stateMutability":"view"},{"type":"function","name":"profitAmount","inputs":[],"outputs":[{"name":"","type":"uint256","internalType":"uint256"}],"stateMutability":"view"},{"type":"function","name":"profitToken","inputs":[],"outputs":[{"name":"","type":"address","internalType":"address"}],"stateMutability":"view"}],"bytecode":{"object":"0x6080604052348015600e575f5ffd5b50610f468061001c5f395ff3fe608060405234801561000f575f5ffd5b50600436106100f3575f3560e01c806389a3027111610095578063cc1f2afa11610064578063cc1f2afa14610232578063d78c428114610250578063e0bab4c41461026e578063f0a011761461028c576100f3565b806389a30271146101b5578063913551ed146101d3578063a37b9e7f146101f6578063c54e44eb14610214576100f3565b806349343624116100d1578063493436241461013d5780635ff972cc1461015b5780636504fbad14610179578063878f760314610197576100f3565b806331a38c89146100f75780633c2448ed14610115578063463defd11461011f575b5f5ffd5b6100ff6102aa565b60405161010c9190610b4c565b60405180910390f35b61011d6102bb565b005b610127610510565b6040516101349190610b4c565b60405180910390f35b610145610522565b6040516101529190610ba4565b60405180910390f35b61016361054a565b6040516101709190610bd5565b60405180910390f35b610181610553565b60405161018e9190610ba4565b60405180910390f35b61019f61056b565b6040516101ac9190610ba4565b60405180910390f35b6101bd610583565b6040516101ca9190610ba4565b60405180910390f35b6101db61059b565b6040516101ed96959493929190610bee565b60405180910390f35b6101fe61060f565b60405161020b9190610ba4565b60405180910390f35b61021c610627565b6040516102299190610ba4565b60405180910390f35b61023a61063f565b6040516102479190610ba4565b60405180910390f35b610258610657565b6040516102659190610cbd565b60405180910390f35b610276610678565b6040516102839190610ba4565b60405180910390f35b610294610690565b6040516102a19190610b4c565b60405180910390f35b5f5f9054906101000a900460ff1681565b5f5f9054906101000a900460ff1661050e5760015f5f6101000a81548160ff0219169083151502179055505f61031973a0b86991c6218b36c1d19d4a2e9eb0ce3606eb487339aa39c021dfbae8fac545936693ac917d5e75636106a2565b90505f61034e73dac17f958d2ee523a2206206994597c13d831ec773f650c3d88d12db855b8bf7d11be6c55a4e07dcc96106a2565b90505f610383736b175474e89094c44da98b954eedeac495271d0f735d3a536e4d6dbd6114cc1ead35777bab948e36436106a2565b90506103908383836109b2565b60025f820151815f015f6101000a81548173ffffffffffffffffffffffffffffffffffffffff021916908373ffffffffffffffffffffffffffffffffffffffff1602179055506020820151816001015f6101000a81548173ffffffffffffffffffffffffffffffffffffffff021916908373ffffffffffffffffffffffffffffffffffffffff16021790555060408201518160010160146101000a81548160ff021916908315150217905550606082015181600201556080820151816003015560a08201518160040155905050600260010160149054906101000a900460ff168061047f57505f600260030154115b8061049257506002800154600260040154105b5f60026101000a81548160ff0219169083151502179055505f5f60016101000a81548160ff0219169083151502179055505f5f60036101000a81548173ffffffffffffffffffffffffffffffffffffffff021916908373ffffffffffffffffffffffffffffffffffffffff1602179055505f6001819055505050505b565b5f60029054906101000a900460ff1681565b5f5f60039054906101000a900473ffffffffffffffffffffffffffffffffffffffff16905090565b5f600154905090565b73f650c3d88d12db855b8bf7d11be6c55a4e07dcc981565b735d3a536e4d6dbd6114cc1ead35777bab948e364381565b73a0b86991c6218b36c1d19d4a2e9eb0ce3606eb4881565b6002805f015f9054906101000a900473ffffffffffffffffffffffffffffffffffffffff1690806001015f9054906101000a900473ffffffffffffffffffffffffffffffffffffffff16908060010160149054906101000a900460ff16908060020154908060030154908060040154905086565b7339aa39c021dfbae8fac545936693ac917d5e756381565b73dac17f958d2ee523a2206206994597c13d831ec781565b73245a551ee0f55005e510b239c917fa34b41b346181565b606060405180610100016040528060d08152602001610e4160d09139905090565b736b175474e89094c44da98b954eedeac495271d0f81565b5f60019054906101000a900460ff1681565b6106aa610ad4565b82815f019073ffffffffffffffffffffffffffffffffffffffff16908173ffffffffffffffffffffffffffffffffffffffff168152505081816020019073ffffffffffffffffffffffffffffffffffffffff16908173ffffffffffffffffffffffffffffffffffffffff16815250508173ffffffffffffffffffffffffffffffffffffffff16635fe3b5676040518163ffffffff1660e01b8152600401602060405180830381865afa158015610762573d5f5f3e3d5ffd5b505050506040513d601f19601f820116820180604052508101906107869190610d0b565b73ffffffffffffffffffffffffffffffffffffffff1663731f0c2b836040518263ffffffff1660e01b81526004016107be9190610ba4565b602060405180830381865afa1580156107d9573d5f5f3e3d5ffd5b505050506040513d601f19601f820116820180604052508101906107fd9190610d60565b81604001901515908115158152505073245a551ee0f55005e510b239c917fa34b41b346173ffffffffffffffffffffffffffffffffffffffff16634c38e835846040518263ffffffff1660e01b81526004016108599190610ba4565b602060405180830381865afa158015610874573d5f5f3e3d5ffd5b505050506040513d601f19601f820116820180604052508101906108989190610db5565b8160600181815250508273ffffffffffffffffffffffffffffffffffffffff166370a0823173245a551ee0f55005e510b239c917fa34b41b34616040518263ffffffff1660e01b81526004016108ee9190610ba4565b602060405180830381865afa158015610909573d5f5f3e3d5ffd5b505050506040513d601f19601f8201168201806040525081019061092d9190610db5565b8160800181815250508173ffffffffffffffffffffffffffffffffffffffff16633b1d21a26040518163ffffffff1660e01b8152600401602060405180830381865afa15801561097f573d5f5f3e3d5ffd5b505050506040513d601f19601f820116820180604052508101906109a39190610db5565b8160a001818152505092915050565b6109ba610ad4565b5f8490506109c781610a01565b6109d085610a01565b11156109da578390505b6109e381610a01565b6109ec84610a01565b11156109f6578290505b809150509392505050565b5f5f5f9050826040015115610a3f577f800000000000000000000000000000000000000000000000000000000000000081610a3c9190610e0d565b90505b5f83608001511115610a7a577f400000000000000000000000000000000000000000000000000000000000000081610a779190610e0d565b90505b8260a0015183606001511115610ab9577f200000000000000000000000000000000000000000000000000000000000000081610ab69190610e0d565b90505b826060015181610ac99190610e0d565b905080915050919050565b6040518060c001604052805f73ffffffffffffffffffffffffffffffffffffffff1681526020015f73ffffffffffffffffffffffffffffffffffffffff1681526020015f151581526020015f81526020015f81526020015f81525090565b5f8115159050919050565b610b4681610b32565b82525050565b5f602082019050610b5f5f830184610b3d565b92915050565b5f73ffffffffffffffffffffffffffffffffffffffff82169050919050565b5f610b8e82610b65565b9050919050565b610b9e81610b84565b82525050565b5f602082019050610bb75f830184610b95565b92915050565b5f819050919050565b610bcf81610bbd565b82525050565b5f602082019050610be85f830184610bc6565b92915050565b5f60c082019050610c015f830189610b95565b610c0e6020830188610b95565b610c1b6040830187610b3d565b610c286060830186610bc6565b610c356080830185610bc6565b610c4260a0830184610bc6565b979650505050505050565b5f81519050919050565b5f82825260208201905092915050565b8281835e5f83830152505050565b5f601f19601f8301169050919050565b5f610c8f82610c4d565b610c998185610c57565b9350610ca9818560208601610c67565b610cb281610c75565b840191505092915050565b5f6020820190508181035f830152610cd58184610c85565b905092915050565b5f5ffd5b610cea81610b84565b8114610cf4575f5ffd5b50565b5f81519050610d0581610ce1565b92915050565b5f60208284031215610d2057610d1f610cdd565b5b5f610d2d84828501610cf7565b91505092915050565b610d3f81610b32565b8114610d49575f5ffd5b50565b5f81519050610d5a81610d36565b92915050565b5f60208284031215610d7557610d74610cdd565b5b5f610d8284828501610d4c565b91505092915050565b610d9481610bbd565b8114610d9e575f5ffd5b50565b5f81519050610daf81610d8b565b92915050565b5f60208284031215610dca57610dc9610cdd565b5b5f610dd784828501610da1565b91505092915050565b7f4e487b71000000000000000000000000000000000000000000000000000000005f52601160045260245ffd5b5f610e1782610bbd565b9150610e2283610bbd565b9250828201905080821115610e3a57610e39610de0565b5b9291505056fe6465706f73697428737461626c65292d3e737461626c65436f696e42616c616e6365732f75736572206372656469742d3e5f7472616e73666572546f436f6d706f756e64282920756e636865636b65643b20776974686472617728737461626c65292d3e696e7465726e616c2062616c616e63657320726564756365642d3e5f72656465656d46726f6d436f6d706f756e64282920756e636865636b65643b2065636f6e6f6d6963616c6c7920726566757465642061732070726f6669742070617468206174207468697320666f726ba26469706673582212207e03bdce47ad7bc49f476f317daaa418b5634ff3bb979dcc6ff666bfc78de3e064736f6c634300081e0033","linkReferences":{}},"methodIdentifiers":{"CDAI()":"878f7603","CUSDC()":"a37b9e7f","CUSDT()":"6504fbad","DAI()":"e0bab4c4","TARGET()":"cc1f2afa","USDC()":"89a30271","USDT()":"c54e44eb","chosenState()":"913551ed","executeOnOpportunity()":"3c2448ed","executed()":"31a38c89","exploitPathUsed()":"d78c4281","hypothesisValidated()":"463defd1","profitAchieved()":"f0a01176","profitAmount()":"5ff972cc","profitToken()":"49343624"},"id":0}