{"abi":[{"type":"constructor","inputs":[],"stateMutability":"nonpayable"},{"type":"receive","stateMutability":"payable"},{"type":"function","name":"executeOnOpportunity","inputs":[],"outputs":[],"stateMutability":"nonpayable"},{"type":"function","name":"profitAmount","inputs":[],"outputs":[{"name":"","type":"uint256","internalType":"uint256"}],"stateMutability":"view"},{"type":"function","name":"profitToken","inputs":[],"outputs":[{"name":"","type":"address","internalType":"address"}],"stateMutability":"pure"},{"type":"function","name":"uniswapV3SwapCallback","inputs":[{"name":"amount0Delta","type":"int256","internalType":"int256"},{"name":"amount1Delta","type":"int256","internalType":"int256"},{"name":"","type":"bytes","internalType":"bytes"}],"outputs":[],"stateMutability":"nonpayable"}],"bytecode":{"object":"0x6080806040523460155761073a908161001a8239f35b5f80fdfe608080604052600436101561001c575b50361561001a575f80fd5b005b5f905f3560e01c9081633c2448ed146102b857508063493436241461029c5780635ff972cc1461027f5763fa461e330361000f573461027c57606036600319011261027c5760243560443567ffffffffffffffff811161027a573660238201121561027a57806004013567ffffffffffffffff8111610276573691016024011161019e5773202a6012894ae5c288ea824cbc8a9bfb26a49b9333036102315781600435136101f357818113156101b5576040519063a9059cbb60e01b825273202a6012894ae5c288ea824cbc8a9bfb26a49b93600483015260248201526020816044818573cd5fe23c85820f7b72d0926fc9b05b43e359b7ee5af19081156101aa57829161016b575b501561012e5780f35b60405162461bcd60e51b81526020600482015260156024820152741dd9595d1a0b5d1c985b9cd9995c8b59985a5b1959605a1b6044820152606490fd5b90506020813d6020116101a2575b81610186602093836106e2565b8101031261019e5751801515810361019e575f610125565b5080fd5b3d9150610179565b6040513d84823e3d90fd5b60405162461bcd60e51b81526020600482015260166024820152751d5b995e1c1958dd19590b5d1bdad95b8c4b5919589d60521b6044820152606490fd5b60405162461bcd60e51b81526020600482015260166024820152751d5b995e1c1958dd19590b5d1bdad95b8c0b5919589d60521b6044820152606490fd5b60405162461bcd60e51b815260206004820152601760248201527f696e76616c69642d63616c6c6261636b2d73656e6465720000000000000000006044820152606490fd5b8380fd5b825b80fd5b503461027c578060031936011261027c5760209054604051908152f35b503461027c578060031936011261027c57602090604051908152f35b905034610555575f366003190112610555575f804792602081019062ede70960e21b8252306024820152602481526102f16044826106e2565b5190827354cd23460df45559fd5feeaada7ba25f89c135255af13d156106dd573d67ffffffffffffffff81116106c95760405190610339601f8201601f1916602001836106e2565b81525f60203d92013e5b15610690576040516370a0823160e01b81523060048201529060208260248173cd5fe23c85820f7b72d0926fc9b05b43e359b7ee5afa91821561054a575f9261065c575b508115610624576001600160ff1b0382116105e957604091602092839160c48251916103b385846106e2565b5f835283519485938492630251596160e31b84523060048501525f6024850152604484015273fffd8963efd1fc6a506488495d951d5263988d25606484015260a0608484015280519182918260a4860152018484015e5f838284010152601f801991011681010301815f73202a6012894ae5c288ea824cbc8a9bfb26a49b935af1801561054a576105be575b506040516370a0823160e01b8152306004820152828160248173c02aaa39b223fe8d0a0e5c4f27ead9083c756cc25afa90811561054a575f91610591575b5080156105595773c02aaa39b223fe8d0a0e5c4f27ead9083c756cc23b156105555760405190632e1a7d4d60e01b825260048201525f816024818373c02aaa39b223fe8d0a0e5c4f27ead9083c756cc25af1801561054a57610535575b5047818103818111610521578455146104f1575080f35b6064906040519062461bcd60e51b8252600482015260096024820152681b9bcb5c1c9bd99a5d60ba1b6044820152fd5b634e487b7160e01b85526011600452602485fd5b6105429193505f906106e2565b5f915f6104da565b6040513d5f823e3d90fd5b5f80fd5b60405162461bcd60e51b815260048101849052601060248201526f1b9bcb5dd95d1a0b5c9958d95a5d995960821b6044820152606490fd5b90508281813d83116105b7575b6105a881836106e2565b8101031261055557515f61047d565b503d61059e565b604090813d83116105e2575b6105d481836106e2565b81010312610555575f61043f565b503d6105ca565b60405162461bcd60e51b8152602060048201526013602482015272737761702d696e7075742d6f766572666c6f7760681b6044820152606490fd5b60405162461bcd60e51b815260206004820152601060248201526f1b9bcb5dd9595d1a0b591c985a5b995960821b6044820152606490fd5b9091506020813d602011610688575b81610678602093836106e2565b810103126105555751905f610387565b3d915061066b565b60405162461bcd60e51b81526020600482015260116024820152701c1c9bde1e4b58d85b1b0b59985a5b1959607a1b6044820152606490fd5b634e487b7160e01b5f52604160045260245ffd5b610343565b90601f8019910116810190811067ffffffffffffffff8211176106c95760405256fea26469706673582212201a5a7998adb88dde1acc3c8d416db533db594615f32ef98edc7879d75382e00a64736f6c634300081e0033","linkReferences":{}},"methodIdentifiers":{"executeOnOpportunity()":"3c2448ed","profitAmount()":"5ff972cc","profitToken()":"49343624","uniswapV3SwapCallback(int256,int256,bytes)":"fa461e33"},"id":0}