{"abi":[{"type":"constructor","inputs":[],"stateMutability":"nonpayable"},{"type":"receive","stateMutability":"payable"},{"type":"function","name":"executeOnOpportunity","inputs":[],"outputs":[],"stateMutability":"nonpayable"},{"type":"function","name":"exploitPath","inputs":[],"outputs":[{"name":"","type":"string","internalType":"string"}],"stateMutability":"view"},{"type":"function","name":"hypothesisValidated","inputs":[],"outputs":[{"name":"","type":"bool","internalType":"bool"}],"stateMutability":"view"},{"type":"function","name":"profitAchieved","inputs":[],"outputs":[{"name":"","type":"bool","internalType":"bool"}],"stateMutability":"view"},{"type":"function","name":"profitAmount","inputs":[],"outputs":[{"name":"","type":"uint256","internalType":"uint256"}],"stateMutability":"view"},{"type":"function","name":"profitToken","inputs":[],"outputs":[{"name":"","type":"address","internalType":"address"}],"stateMutability":"view"},{"type":"function","name":"receiveFlashLoan","inputs":[{"name":"tokens","type":"address[]","internalType":"contract IERC20[]"},{"name":"amounts","type":"uint256[]","internalType":"uint256[]"},{"name":"feeAmounts","type":"uint256[]","internalType":"uint256[]"},{"name":"userData","type":"bytes","internalType":"bytes"}],"outputs":[],"stateMutability":"nonpayable"}],"bytecode":{"object":"0x608080604052346015576122b6908161001a8239f35b5f80fdfe6080604052600436101561001a575b3615610018575f80fd5b005b5f5f3560e01c80633c2448ed1461102c578063463defd1146110085780634934362414610fe15780635ff972cc14610fc4578063cb707c6214610f91578063f04f2707146100995763f0a0117614610072575061000e565b3461009657806003193601126100965760ff6020915460101c166040519015158152f35b80fd5b50346109035760803660031901126109035760043567ffffffffffffffff811161090357366023820112156109035780600401356100d68161109e565b916100e46040519384611068565b8183526024602084019260051b8201019036821161090357602401915b818310610f715750505060243567ffffffffffffffff81116109035761012b9036906004016110b6565b9060443567ffffffffffffffff81116109035761014c9036906004016110b6565b9160643567ffffffffffffffff811161090357366023820112156109035780600401359261017984611113565b936101876040519586611068565b8085526020850192366024838301011161090357815f9260246020930186378601015273ba12222222228d8ba445958a75a0704d566bf2c83303610f3f57600181511480610f34575b80610f29575b15610ef9575f5160206122615f395f51905f52906001600160a01b03906101fc9061115d565b511603610ec85761010061ff00195f5416175f5560408380518101031261090357604061022b610232926118d4565b93016118d4565b916001600160a01b0316906102506102498261115d565b519461115d565b518401809411610eb4576102639061115d565b519060405163f77c479160e01b8152602081600481855afa908115610c72576004916020915f91610e97575b50604051632421cf3f60e11b815292839182906001600160a01b03165afa908115610c72575f91610e68575b50604051635598b20960e01b8152600481018390526001600160a01b03919091169290602081602481875afa908115610c72575f91610e36575b50610e00576040516370a0823160e01b81523060048201526020816024815f5160206122615f395f51905f525afa8015610c725782915f91610dcb575b5010610d975761037960405163095ea7b360e01b60208201528360248201525f604482015260448152610366606482611068565b5f5160206122615f395f51905f52612219565b60405163095ea7b360e01b60208201526001600160a01b0383166024820152604480820183905281526103b190610366606482611068565b604051906321d0683360e11b825260048201525f60248201525f60448201526020816064815f865af1908115610c72575f91610d65575b508015610d3857604051635598b20960e01b815260048101839052602081602481875afa908115610c72575f91610d06575b50610cc157604051635fcbd28560e01b8152602081600481865afa8015610c72575f90610c7d575b6104bd915060018060a01b031661048360405163095ea7b360e01b60208201528660248201525f60448201526044815261047d606482611068565b82612219565b60405163095ea7b360e01b60208201526001600160a01b038616602482015260448082018590528152906104b8606483611068565b612219565b823b156109035760405190637acb775760e01b825260048201528160248201525f8160448183875af18015610c7257610c5d575b50604051637d2041e560e11b81526001600160a01b0382166004820152306024820152602081604481865afa908115610c52578691610c20575b5015610beb5760405163d9ceab1360e01b815285936060908290600490829088906001600160a01b03165af1801561094e57610bbc575b50604051637d2041e560e11b81526001600160a01b038216600482015230602482015291602090839060449082905afa91821561098d578392610b85575b5081610b1f575b50506040516370a0823160e01b815230600482015290506020816024815f5160206122615f395f51905f525afa801561098d5782918491610aea575b5010610adc575b6040516370a0823160e01b81523060048201526020816024815f5160206122615f395f51905f525afa801561098d5782918491610aa7575b5010610a7057818091604051602081019163a9059cbb60e01b835273ba12222222228d8ba445958a75a0704d566bf2c8602483015260448201526044815261066b606482611068565b5190825f5160206122615f395f51905f525af1610686611a62565b9015610a37578051806109d7575b50506040516370a0823160e01b815230600482015260208160248173d533a949740bb3306d119cc777fa900ba034cd525afa80156109cc578290610998575b6106e1915060025490611a55565b6040516370a0823160e01b8152306004820152602081602481734e3fbd56cd56c3e72c1403e103b45db9da5b9d2b5afa801561098d578390610959575b61072c915060035490611a55565b6040516370a0823160e01b8152306004820152602081602481739ae380f0272e2162340a5bb646c354271c0f5cfc5afa801561094e57849061091a575b610777915060045490611a55565b906040516370a0823160e01b81523060048201526020816024815f5160206122615f395f51905f525afa801561090f5785906108d7575b6107bc915060055490611a55565b92640100000000600160c01b03198554169077d533a949740bb3306d119cc777fa900ba034cd5200000000821786558060015582116108b1575b5050600154811161087c575b506001548111610847575b50600154151562ff000082549160101b1663ff00000060ff8262ff00001985161760101c16151560181b169163ffff000019161717815580f35b8154640100000000600160c01b03191677c02aaa39b223fe8d0a0e5c4f27ead9083c756cc2000000001782556001555f61080d565b8254640100000000600160c01b031916779ae380f0272e2162340a5bb646c354271c0f5cfc000000001783556001555f610802565b774e3fbd56cd56c3e72c1403e103b45db9da5b9d2b000000001784556001555f806107f6565b506020813d602011610907575b816108f160209383611068565b81010312610903576107bc90516107ae565b5f80fd5b3d91506108e4565b6040513d87823e3d90fd5b506020813d602011610946575b8161093460209383611068565b81010312610903576107779051610769565b3d9150610927565b6040513d86823e3d90fd5b506020813d602011610985575b8161097360209383611068565b810103126109035761072c905161071e565b3d9150610966565b6040513d85823e3d90fd5b506020813d6020116109c4575b816109b260209383611068565b81010312610903576106e190516106d3565b3d91506109a5565b6040513d84823e3d90fd5b8160209181010312610a335760200151801590811503610a33576109fc575f80610694565b60405162461bcd60e51b815260206004820152600f60248201526e1d1bdad95b881bdc0819985a5b1959608a1b6044820152606490fd5b5080fd5b60405162461bcd60e51b81526020600482015260116024820152701d1bdad95b8818d85b1b0819985a5b1959607a1b6044820152606490fd5b60405162461bcd60e51b815260206004820152600f60248201526e1c995c185e481cda1bdc9d19985b1b608a1b6044820152606490fd5b9150506020813d602011610ad4575b81610ac360209383611068565b81010312610903578190515f610622565b3d9150610ab6565b610ae581611b17565b6105ea565b9150506020813d602011610b17575b81610b0660209383611068565b81010312610903578190515f6105e3565b3d9150610af9565b604460209260405194859384926310aec8f960e01b845260048401528160248401525af1801561098d57610b56575b8083916105a7565b610b779060203d602011610b7e575b610b6f8183611068565b81019061114e565b505f610b4e565b503d610b65565b925090506020823d602011610bb4575b81610ba260209383611068565b8101031261090357839151905f6105a0565b3d9150610b95565b606090813d8311610be4575b610bd28183611068565b81010312610be0575f610562565b8280fd5b503d610bc8565b60405162461bcd60e51b815260206004820152600d60248201526c7374616b65206d697373696e6760981b6044820152606490fd5b90506020813d602011610c4a575b81610c3b60209383611068565b8101031261090357515f61052b565b3d9150610c2e565b6040513d88823e3d90fd5b610c6a9195505f90611068565b5f935f6104f1565b6040513d5f823e3d90fd5b506020813d602011610cb9575b81610c9760209383611068565b8101031261090357516001600160a01b0381168103610903576104bd90610442565b3d9150610c8a565b60405162461bcd60e51b815260206004820152601860248201527f756e6578706563746564207374616b657220737570706c7900000000000000006044820152606490fd5b90506020813d602011610d30575b81610d2160209383611068565b8101031261090357515f61041a565b3d9150610d14565b60405162461bcd60e51b815260206004820152600560248201526406e6f204c560dc1b6044820152606490fd5b90506020813d602011610d8f575b81610d8060209383611068565b8101031261090357515f6103e8565b3d9150610d73565b60405162461bcd60e51b815260206004820152600c60248201526b0dad2e6e6d2dcce40ae8aa8960a31b6044820152606490fd5b9150506020813d602011610df8575b81610de760209383611068565b81010312610903578190515f610332565b3d9150610dda565b60405162461bcd60e51b815260206004820152600e60248201526d7374616b65206e6f74207a65726f60901b6044820152606490fd5b90506020813d602011610e60575b81610e5160209383611068565b8101031261090357515f6102f5565b3d9150610e44565b610e8a915060203d602011610e90575b610e828183611068565b81019061112f565b5f6102bb565b503d610e78565b610eae9150823d8411610e9057610e828183611068565b5f61028f565b634e487b7160e01b5f52601160045260245ffd5b60405162461bcd60e51b81526020600482015260096024820152683130b2103a37b5b2b760b91b6044820152606490fd5b60405162461bcd60e51b81526020600482015260086024820152673130b2103637b0b760c11b6044820152606490fd5b5060018551146101d6565b5060018351146101d0565b60405162461bcd60e51b815260206004820152600a6024820152693130b2103632b73232b960b11b6044820152606490fd5b82356001600160a01b038116810361090357815260209283019201610101565b34610903575f36600319011261090357610fc0610fac6116ce565b604051918291602083526020830190611044565b0390f35b34610903575f366003190112610903576020600154604051908152f35b34610903575f366003190112610903575f54604051602091821c6001600160a01b03168152f35b34610903575f36600319011261090357602060ff5f5460181c166040519015158152f35b34610903575f3660031901126109035761001861118e565b805180835260209291819084018484015e5f828201840152601f01601f1916010190565b90601f8019910116810190811067ffffffffffffffff82111761108a57604052565b634e487b7160e01b5f52604160045260245ffd5b67ffffffffffffffff811161108a5760051b60200190565b9080601f830112156109035781356110cd8161109e565b926110db6040519485611068565b81845260208085019260051b82010192831161090357602001905b8282106111035750505090565b81358152602091820191016110f6565b67ffffffffffffffff811161108a57601f01601f191660200190565b9081602091031261090357516001600160a01b03811681036109035790565b90816020910312610903575190565b80511561116a5760200190565b634e487b7160e01b5f52603260045260245ffd5b80516001101561116a5760400190565b5f5460ff81166116cb5760ff19166001175f556111a96118e8565b906001600160a01b038116801580156116ba575b61166657604051636f307dc360e01b8152602081600481855afa8015610c72575f9061166b575b6001600160a01b031673c02aaa39b223fe8d0a0e5c4f27ead9083c756cc1190190506116665760405163f77c479160e01b815290602082600481845afa918215610c72576004926020915f91611649575b50604051632421cf3f60e11b815293849182906001600160a01b03165afa918215610c72575f92611627575b50604051635598b20960e01b8152600481019190915290602090829060249082906001600160a01b03165afa908115610c72575f916115f5575b506115f1576040516370a0823160e01b815230600482015260208160248173d533a949740bb3306d119cc777fa900ba034cd525afa908115610c72575f916115bf575b506002556040516370a0823160e01b8152306004820152602081602481734e3fbd56cd56c3e72c1403e103b45db9da5b9d2b5afa908115610c72575f9161158d575b506003556040516370a0823160e01b8152306004820152602081602481739ae380f0272e2162340a5bb646c354271c0f5cfc5afa908115610c72575f9161155b575b506004556040516370a0823160e01b81523060048201526020816024815f5160206122615f395f51905f525afa908115610c72575f91611529575b506005556040908151926113b18385611068565b600184526020840190601f19840193843684375f5160206122615f395f51905f526113db8761115d565b526114328151926113ec8385611068565b600184526020840196368837671bc16d674ec8000061140a8561115d565b5282516001600160a01b03968716602082015295166040808701919091528552606085611068565b73ba12222222228d8ba445958a75a0704d566bf2c83b156109035751632e1c224f60e11b81523060048201526080602482015294516084860181905292938593909260a4850192915f5b8181106115075750505060209060031985840301604486015251918281520191905f5b8181106114ee575050506114c182915f94600319848303016064850152611044565b03818373ba12222222228d8ba445958a75a0704d566bf2c85af16114e25750565b5f6114ec91611068565b565b825184528694506020938401939092019160010161149f565b82516001600160a01b031685528896506020948501949092019160010161147c565b90506020813d602011611553575b8161154460209383611068565b8101031261090357515f61139d565b3d9150611537565b90506020813d602011611585575b8161157660209383611068565b8101031261090357515f611362565b3d9150611569565b90506020813d6020116115b7575b816115a860209383611068565b8101031261090357515f611320565b3d915061159b565b90506020813d6020116115e9575b816115da60209383611068565b8101031261090357515f6112de565b3d91506115cd565b5050565b90506020813d60201161161f575b8161161060209383611068565b8101031261090357515f61129b565b3d9150611603565b602091925061164290823d8411610e9057610e828183611068565b9190611261565b6116609150823d8411610e9057610e828183611068565b5f611235565b505050565b506020813d6020116116b2575b8161168560209383611068565b8101031261090357516001600160a01b0381168103610903575f5160206122615f395f51905f52906111e4565b3d9150611678565b506001600160a01b038316156111bd565b50565b60ff5f5460081c166117a3576040516116e860c082611068565b609381527f686973746f726963616c207a65726f2d7374616b65206261636b6c6f67202d3e60208201527f206669727374207374616b65206166746572207a65726f20696e74657276616c60408201527f202d3e20636c61696d4561726e696e67732829202f205f6163636f756e74436860608201527f65636b706f696e742829202f20706f6f6c436865636b706f696e742829202d3e60808201527220756e7374616b65416e64576974686472617760681b60a082015290565b6040516117b261012082611068565b60e781527f686973746f726963616c207a65726f2d7374616b65206261636b6c6f67202d3e60208201527f2074656d706f726172792057455448207374616b65207669612042616c616e6360408201527f657220666c6173686c6f616e202d3e206669727374207374616b65206166746560608201527f72207a65726f20696e74657276616c202d3e20636c61696d4561726e696e677360808201527f2829202f205f6163636f756e74436865636b706f696e742829202f20706f6f6c60a08201527f436865636b706f696e742829202d3e20756e7374616b65416e6457697468647260c08201527f6177202d3e2064657465726d696e697374696320666c6173686c6f616e20726560e0820152661c185e5b595b9d60ca1b61010082015290565b51906001600160a01b038216820361090357565b5f5f5f8060405160208101906307a77c5360e11b82526004815261190d602482611068565b519073bb787d6243a8d450659e09ea6fd82f1c859691e95afa61192e611a62565b9080611a49575b611a1e575b506001600160a01b031680611a0357505f915f8060405160208101906316f0115b60e01b82526004815261196f602482611068565b519073bb787d6243a8d450659e09ea6fd82f1c859691e95afa611990611a62565b90806119f7575b6119ca575b50826001600160a01b0381166119af5750565b925073bb787d6243a8d450659e09ea6fd82f1c859691e99150565b909250602081805181010312610903576001600160a01b03906119ef906020016118d4565b16915f61199c565b50602081511015611997565b73bb787d6243a8d450659e09ea6fd82f1c859691e992909150565b9050602081805181010312610903576001600160a01b0390611a42906020016118d4565b165f61193a565b50602081511015611935565b91908203918211610eb457565b3d15611a8c573d90611a7382611113565b91611a816040519384611068565b82523d5f602084013e565b606090565b906114ec91611ad860405163095ea7b360e01b602082015273d9e1ce17f2641f24ae83637ab66a2cca9c378b9f60248201525f60448201526044815261047d606482611068565b6040519163095ea7b360e01b602084015273d9e1ce17f2641f24ae83637ab66a2cca9c378b9f60248401526044830152604482526104b8606483611068565b6040516370a0823160e01b81523060048201526020816024815f5160206122615f395f51905f525afa8015610c725782915f916121e4575b5010156116cb576040516370a0823160e01b815230600482015260208160248173d533a949740bb3306d119cc777fa900ba034cd525afa908115610c72575f916121b2575b5080611fa8575b506040516370a0823160e01b8152306004820152602081602481734e3fbd56cd56c3e72c1403e103b45db9da5b9d2b5afa908115610c72575f91611f76575b5080611d6f575b50506040516370a0823160e01b8152306004820152602081602481739ae380f0272e2162340a5bb646c354271c0f5cfc5afa908115610c72575f91611d3d575b5080611c2a5750565b611c8660405163095ea7b360e01b602082015273838af967537350d2c44abb8c010e49e32673ab9460248201525f604482015260448152611c6c606482611068565b739ae380f0272e2162340a5bb646c354271c0f5cfc612219565b611cc860405163095ea7b360e01b602082015273838af967537350d2c44abb8c010e49e32673ab94602482015282604482015260448152611c6c606482611068565b6040519063ce7d650360e01b8252600160048301525f602483015260448201525f60648201525f60848201523060a482015260208160c4815f73838af967537350d2c44abb8c010e49e32673ab945af18015610c7257611d255750565b6116cb9060203d602011610b7e57610b6f8183611068565b90506020813d602011611d67575b81611d5860209383611068565b8101031261090357515f611c21565b3d9150611d4b565b611d8d81734e3fbd56cd56c3e72c1403e103b45db9da5b9d2b611a91565b604051611d9b606082611068565b60028152602081016040368237734e3fbd56cd56c3e72c1403e103b45db9da5b9d2b611dc68361115d565b525f5160206122615f395f51905f52611dde8361117e565b526040519283926338ed173960e01b845260a484019160048501525f602485015260a060448501525180915260c4830191905f5b818110611f545750505090805f9230606483015242608483015203818373d9e1ce17f2641f24ae83637ab66a2cca9c378b9f5af18015610c7257611ec9575b506040516370a0823160e01b81523060048201526020816024815f5160206122615f395f51905f525afa908115610c72575f91611e97575b5010156114ec575f80611be1565b90506020813d602011611ec1575b81611eb260209383611068565b8101031261090357515f611e89565b3d9150611ea5565b3d805f833e611ed88183611068565b8101906020818303126109035780519067ffffffffffffffff8211610903570181601f8201121561090357805190602080611f128461109e565b611f1f6040519182611068565b848152019260051b82010192831161090357602001905b828210611f44575050611e51565b8151815260209182019101611f36565b82516001600160a01b0316845285945060209384019390920191600101611e12565b90506020813d602011611fa0575b81611f9160209383611068565b8101031261090357515f611bda565b3d9150611f84565b611fc68173d533a949740bb3306d119cc777fa900ba034cd52611a91565b604051611fd4606082611068565b6002815260208101604036823773d533a949740bb3306d119cc777fa900ba034cd52611fff8361115d565b525f5160206122615f395f51905f526120178361117e565b526040519283926338ed173960e01b845260a484019160048501525f602485015260a060448501525180915260c4830191905f5b8181106121905750505090805f9230606483015242608483015203818373d9e1ce17f2641f24ae83637ab66a2cca9c378b9f5af18015610c7257612105575b506040516370a0823160e01b81523060048201526020816024815f5160206122615f395f51905f525afa8015610c725782915f916120d0575b5010156116cb575f611b9b565b9150506020813d6020116120fd575b816120ec60209383611068565b81010312610903578190515f6120c3565b3d91506120df565b3d805f833e6121148183611068565b8101906020818303126109035780519067ffffffffffffffff8211610903570181601f820112156109035780519060208061214e8461109e565b61215b6040519182611068565b848152019260051b82010192831161090357602001905b82821061218057505061208a565b8151815260209182019101612172565b82516001600160a01b031684528594506020938401939092019160010161204b565b90506020813d6020116121dc575b816121cd60209383611068565b8101031261090357515f611b94565b3d91506121c0565b9150506020813d602011612211575b8161220060209383611068565b81010312610903578190515f611b4f565b3d91506121f3565b5f91829182602083519301915af161222f611a62565b9015610a3757805180612240575050565b81602091810103126109035760200151801590811503610903576109fc5756fe000000000000000000000000c02aaa39b223fe8d0a0e5c4f27ead9083c756cc2a26469706673582212204bc4ef4304577938409a7f359f6f4761e2bd76ce5c7bdebf8f5013e8af15fd4664736f6c634300081e0033","linkReferences":{}},"methodIdentifiers":{"executeOnOpportunity()":"3c2448ed","exploitPath()":"cb707c62","hypothesisValidated()":"463defd1","profitAchieved()":"f0a01176","profitAmount()":"5ff972cc","profitToken()":"49343624","receiveFlashLoan(address[],uint256[],uint256[],bytes)":"f04f2707"},"id":0}