{"abi":[{"type":"constructor","inputs":[],"stateMutability":"nonpayable"},{"type":"receive","stateMutability":"payable"},{"type":"function","name":"DAI","inputs":[],"outputs":[{"name":"","type":"address","internalType":"address"}],"stateMutability":"view"},{"type":"function","name":"SUSHI_FACTORY","inputs":[],"outputs":[{"name":"","type":"address","internalType":"address"}],"stateMutability":"view"},{"type":"function","name":"TARGET_POOL","inputs":[],"outputs":[{"name":"","type":"address","internalType":"address"}],"stateMutability":"view"},{"type":"function","name":"UNISWAP_V2_FACTORY","inputs":[],"outputs":[{"name":"","type":"address","internalType":"address"}],"stateMutability":"view"},{"type":"function","name":"USDC","inputs":[],"outputs":[{"name":"","type":"address","internalType":"address"}],"stateMutability":"view"},{"type":"function","name":"USDT","inputs":[],"outputs":[{"name":"","type":"address","internalType":"address"}],"stateMutability":"view"},{"type":"function","name":"WETH","inputs":[],"outputs":[{"name":"","type":"address","internalType":"address"}],"stateMutability":"view"},{"type":"function","name":"attemptDirectLp","inputs":[{"name":"assetA","type":"uint256","internalType":"uint256"},{"name":"assetB","type":"uint256","internalType":"uint256"},{"name":"amountIn","type":"uint256","internalType":"uint256"}],"outputs":[],"stateMutability":"nonpayable"},{"type":"function","name":"attemptDirectSwapExactOut","inputs":[{"name":"assetA","type":"uint256","internalType":"uint256"},{"name":"assetB","type":"uint256","internalType":"uint256"},{"name":"amountIn","type":"uint256","internalType":"uint256"},{"name":"amountOut","type":"uint256","internalType":"uint256"}],"outputs":[],"stateMutability":"nonpayable"},{"type":"function","name":"attemptFlashLp","inputs":[],"outputs":[],"stateMutability":"nonpayable"},{"type":"function","name":"attemptFlashSwapExactOut","inputs":[],"outputs":[],"stateMutability":"nonpayable"},{"type":"function","name":"executeOnOpportunity","inputs":[],"outputs":[],"stateMutability":"nonpayable"},{"type":"function","name":"profitAmount","inputs":[],"outputs":[{"name":"","type":"uint256","internalType":"uint256"}],"stateMutability":"view"},{"type":"function","name":"profitToken","inputs":[],"outputs":[{"name":"","type":"address","internalType":"address"}],"stateMutability":"view"},{"type":"function","name":"uniswapV2Call","inputs":[{"name":"sender","type":"address","internalType":"address"},{"name":"amount0","type":"uint256","internalType":"uint256"},{"name":"amount1","type":"uint256","internalType":"uint256"},{"name":"","type":"bytes","internalType":"bytes"}],"outputs":[],"stateMutability":"nonpayable"}],"bytecode":{"object":"0x6080604052348015600e575f5ffd5b50617d768061001c5f395ff3fe6080604052600436106100eb575f3560e01c806399d0366911610089578063c54e44eb11610058578063c54e44eb14610286578063e0bab4c4146102b0578063e9c09c62146102da578063f8a8775914610302576100f2565b806399d03669146101f257806399d8fae314610208578063ad5c464814610232578063b753bb471461025c576100f2565b806342ab78f0116100c557806342ab78f01461015e57806349343624146101745780635ff972cc1461019e57806389a30271146101c8576100f2565b806310d1e85c146100f6578063181e0cc61461011e5780633c2448ed14610148576100f2565b366100f257005b5f5ffd5b348015610101575f5ffd5b5061011c60048036038101906101179190616a64565b61032a565b005b348015610129575f5ffd5b5061013261053e565b60405161013f9190616af7565b60405180910390f35b348015610153575f5ffd5b5061015c610556565b005b348015610169575f5ffd5b506101726107ba565b005b34801561017f575f5ffd5b50610188610c89565b6040516101959190616af7565b60405180910390f35b3480156101a9575f5ffd5b506101b2610cb0565b6040516101bf9190616b1f565b60405180910390f35b3480156101d3575f5ffd5b506101dc610cb9565b6040516101e99190616af7565b60405180910390f35b3480156101fd575f5ffd5b50610206610cd1565b005b348015610213575f5ffd5b5061021c6111a2565b6040516102299190616af7565b60405180910390f35b34801561023d575f5ffd5b506102466111ba565b6040516102539190616af7565b60405180910390f35b348015610267575f5ffd5b506102706111d2565b60405161027d9190616af7565b60405180910390f35b348015610291575f5ffd5b5061029a6111ea565b6040516102a79190616af7565b60405180910390f35b3480156102bb575f5ffd5b506102c4611202565b6040516102d19190616af7565b60405180910390f35b3480156102e5575f5ffd5b5061030060048036038101906102fb9190616b38565b61121a565b005b34801561030d575f5ffd5b5061032860048036038101906103239190616b9c565b61154c565b005b3073ffffffffffffffffffffffffffffffffffffffff168573ffffffffffffffffffffffffffffffffffffffff1614610398576040517f08c379a000000000000000000000000000000000000000000000000000000000815260040161038f90616c46565b60405180910390fd5b60045f9054906101000a900473ffffffffffffffffffffffffffffffffffffffff1673ffffffffffffffffffffffffffffffffffffffff163373ffffffffffffffffffffffffffffffffffffffff1614610427576040517f08c379a000000000000000000000000000000000000000000000000000000000815260040161041e90616cae565b60405180910390fd5b5f5f85116104355783610437565b845b9050600654811461047d576040517f08c379a000000000000000000000000000000000000000000000000000000000815260040161047490616d16565b60405180910390fd5b6001600354036104945761048f611b88565b6104e7565b6002600354036104ab576104a6611f29565b6104e6565b6040517f08c379a00000000000000000000000000000000000000000000000000000000081526004016104dd90616d7e565b60405180910390fd5b5b61053660055f9054906101000a900473ffffffffffffffffffffffffffffffffffffffff1660045f9054906101000a900473ffffffffffffffffffffffffffffffffffffffff1660075461258f565b505050505050565b73ccd04073f4bdc4510927ea9ba350875c3c65bf8181565b60025f9054906101000a900460ff16156105a5576040517f08c379a000000000000000000000000000000000000000000000000000000000815260040161059c90616de6565b60405180910390fd5b600160025f6101000a81548160ff0219169083151502179055505f5f5f6101000a81548173ffffffffffffffffffffffffffffffffffffffff021916908373ffffffffffffffffffffffffffffffffffffffff1602179055505f60018190555061060d6126de565b5f73ccd04073f4bdc4510927ea9ba350875c3c65bf8190505f8173ffffffffffffffffffffffffffffffffffffffff16630b36628d6040518163ffffffff1660e01b8152600401602060405180830381865afa15801561066f573d5f5f3e3d5ffd5b505050506040513d601f19601f820116820180604052508101906106939190616e18565b90505f7fffffffffffffffffffffffffffffffffffffffffffffffffffffffffffffffff90505f5f90505f5f90505b8381101561072b575f5f6106d6878461275f565b915091505f8214806106e757505f81145b806106f25750818110155b156106fe575050610720565b5f818361070b9190616e70565b90508481111561071c578094508395505b5050505b8060010190506106c2565b507fffffffffffffffffffffffffffffffffffffffffffffffffffffffffffffffff821461079b5761075e8484846129fe565b610769848484612b25565b61079a57610778848484612f88565b61079957610787848484613227565b610798576107968484846134e1565b505b5b5b5b5f60025f6101000a81548160ff02191690831515021790555050505050565b3073ffffffffffffffffffffffffffffffffffffffff163373ffffffffffffffffffffffffffffffffffffffff1614610828576040517f08c379a000000000000000000000000000000000000000000000000000000000815260040161081f90616eed565b60405180910390fd5b5f73ccd04073f4bdc4510927ea9ba350875c3c65bf8190505f8173ffffffffffffffffffffffffffffffffffffffff1663cf35bdd06013546040518263ffffffff1660e01b815260040161087c9190616b1f565b602060405180830381865afa158015610897573d5f5f3e3d5ffd5b505050506040513d601f19601f820116820180604052508101906108bb9190616f1f565b90505f8273ffffffffffffffffffffffffffffffffffffffff1663cf35bdd06014546040518263ffffffff1660e01b81526004016108f99190616b1f565b602060405180830381865afa158015610914573d5f5f3e3d5ffd5b505050506040513d601f19601f820116820180604052508101906109389190616f1f565b90505f8273ffffffffffffffffffffffffffffffffffffffff166370a08231306040518263ffffffff1660e01b81526004016109749190616af7565b602060405180830381865afa15801561098f573d5f5f3e3d5ffd5b505050506040513d601f19601f820116820180604052508101906109b39190616e18565b90505f8273ffffffffffffffffffffffffffffffffffffffff166370a08231306040518263ffffffff1660e01b81526004016109ef9190616af7565b602060405180830381865afa158015610a0a573d5f5f3e3d5ffd5b505050506040513d601f19601f82011682018060405250810190610a2e9190616e18565b90506002600381905550600f5f9054906101000a900473ffffffffffffffffffffffffffffffffffffffff1660045f6101000a81548173ffffffffffffffffffffffffffffffffffffffff021916908373ffffffffffffffffffffffffffffffffffffffff1602179055508360055f6101000a81548173ffffffffffffffffffffffffffffffffffffffff021916908373ffffffffffffffffffffffffffffffffffffffff160217905550601654600681905550610aed60165461379b565b600781905550601354600881905550601454600981905550601554600a819055505f600b8190555060105f9054906101000a900473ffffffffffffffffffffffffffffffffffffffff16600c5f6101000a81548173ffffffffffffffffffffffffffffffffffffffff021916908373ffffffffffffffffffffffffffffffffffffffff16021790555060115f9054906101000a900473ffffffffffffffffffffffffffffffffffffffff16600d5f6101000a81548173ffffffffffffffffffffffffffffffffffffffff021916908373ffffffffffffffffffffffffffffffffffffffff16021790555060125f9054906101000a900473ffffffffffffffffffffffffffffffffffffffff16600e5f6101000a81548173ffffffffffffffffffffffffffffffffffffffff021916908373ffffffffffffffffffffffffffffffffffffffff160217905550610c6660045f9054906101000a900473ffffffffffffffffffffffffffffffffffffffff16856016546137ca565b610c7a8484848466038d7ea4c6800061394d565b610c82613bd4565b5050505050565b5f5f5f9054906101000a900473ffffffffffffffffffffffffffffffffffffffff16905090565b5f600154905090565b73a0b86991c6218b36c1d19d4a2e9eb0ce3606eb4881565b3073ffffffffffffffffffffffffffffffffffffffff163373ffffffffffffffffffffffffffffffffffffffff1614610d3f576040517f08c379a0000000000000000000000000000000000000000000000000000000008152600401610d3690616eed565b60405180910390fd5b5f73ccd04073f4bdc4510927ea9ba350875c3c65bf8190505f8173ffffffffffffffffffffffffffffffffffffffff1663cf35bdd06013546040518263ffffffff1660e01b8152600401610d939190616b1f565b602060405180830381865afa158015610dae573d5f5f3e3d5ffd5b505050506040513d601f19601f82011682018060405250810190610dd29190616f1f565b90505f8273ffffffffffffffffffffffffffffffffffffffff1663cf35bdd06014546040518263ffffffff1660e01b8152600401610e109190616b1f565b602060405180830381865afa158015610e2b573d5f5f3e3d5ffd5b505050506040513d601f19601f82011682018060405250810190610e4f9190616f1f565b90505f8273ffffffffffffffffffffffffffffffffffffffff166370a08231306040518263ffffffff1660e01b8152600401610e8b9190616af7565b602060405180830381865afa158015610ea6573d5f5f3e3d5ffd5b505050506040513d601f19601f82011682018060405250810190610eca9190616e18565b90505f8273ffffffffffffffffffffffffffffffffffffffff166370a08231306040518263ffffffff1660e01b8152600401610f069190616af7565b602060405180830381865afa158015610f21573d5f5f3e3d5ffd5b505050506040513d601f19601f82011682018060405250810190610f459190616e18565b90506001600381905550600f5f9054906101000a900473ffffffffffffffffffffffffffffffffffffffff1660045f6101000a81548173ffffffffffffffffffffffffffffffffffffffff021916908373ffffffffffffffffffffffffffffffffffffffff1602179055508360055f6101000a81548173ffffffffffffffffffffffffffffffffffffffff021916908373ffffffffffffffffffffffffffffffffffffffff16021790555060165460068190555061100460165461379b565b600781905550601354600881905550601454600981905550601554600a81905550601754600b8190555060105f9054906101000a900473ffffffffffffffffffffffffffffffffffffffff16600c5f6101000a81548173ffffffffffffffffffffffffffffffffffffffff021916908373ffffffffffffffffffffffffffffffffffffffff16021790555060115f9054906101000a900473ffffffffffffffffffffffffffffffffffffffff16600d5f6101000a81548173ffffffffffffffffffffffffffffffffffffffff021916908373ffffffffffffffffffffffffffffffffffffffff16021790555060125f9054906101000a900473ffffffffffffffffffffffffffffffffffffffff16600e5f6101000a81548173ffffffffffffffffffffffffffffffffffffffff021916908373ffffffffffffffffffffffffffffffffffffffff16021790555061117f60045f9054906101000a900473ffffffffffffffffffffffffffffffffffffffff16856016546137ca565b6111938484848466038d7ea4c6800061394d565b61119b613bd4565b5050505050565b735c69bee701ef814a2b6a3edd4b1652cb9cc5aa6f81565b73c02aaa39b223fe8d0a0e5c4f27ead9083c756cc281565b73c0aee478e3658e2610c5f7a4a2e1777ce9e4f2ac81565b73dac17f958d2ee523a2206206994597c13d831ec781565b736b175474e89094c44da98b954eedeac495271d0f81565b3073ffffffffffffffffffffffffffffffffffffffff163373ffffffffffffffffffffffffffffffffffffffff1614611288576040517f08c379a000000000000000000000000000000000000000000000000000000000815260040161127f90616eed565b60405180910390fd5b5f73ccd04073f4bdc4510927ea9ba350875c3c65bf8190505f8173ffffffffffffffffffffffffffffffffffffffff1663cf35bdd0876040518263ffffffff1660e01b81526004016112da9190616b1f565b602060405180830381865afa1580156112f5573d5f5f3e3d5ffd5b505050506040513d601f19601f820116820180604052508101906113199190616f1f565b90505f8273ffffffffffffffffffffffffffffffffffffffff1663cf35bdd0876040518263ffffffff1660e01b81526004016113559190616b1f565b602060405180830381865afa158015611370573d5f5f3e3d5ffd5b505050506040513d601f19601f820116820180604052508101906113949190616f1f565b90505f8273ffffffffffffffffffffffffffffffffffffffff166370a08231306040518263ffffffff1660e01b81526004016113d09190616af7565b602060405180830381865afa1580156113eb573d5f5f3e3d5ffd5b505050506040513d601f19601f8201168201806040525081019061140f9190616e18565b90505f8273ffffffffffffffffffffffffffffffffffffffff166370a08231306040518263ffffffff1660e01b815260040161144b9190616af7565b602060405180830381865afa158015611466573d5f5f3e3d5ffd5b505050506040513d601f19601f8201168201806040525081019061148a9190616e18565b90506114ab8473ccd04073f4bdc4510927ea9ba350875c3c65bf8189613d4f565b8473ffffffffffffffffffffffffffffffffffffffff1663bbddbca08a8a898b306040518663ffffffff1660e01b81526004016114ec959493929190616f4a565b6020604051808303815f875af1158015611508573d5f5f3e3d5ffd5b505050506040513d601f19601f8201168201806040525081019061152c9190616e18565b506115418484848466038d7ea4c6800061394d565b505050505050505050565b3073ffffffffffffffffffffffffffffffffffffffff163373ffffffffffffffffffffffffffffffffffffffff16146115ba576040517f08c379a00000000000000000000000000000000000000000000000000000000081526004016115b190616eed565b60405180910390fd5b5f73ccd04073f4bdc4510927ea9ba350875c3c65bf8190505f8173ffffffffffffffffffffffffffffffffffffffff1663cf35bdd0866040518263ffffffff1660e01b815260040161160c9190616b1f565b602060405180830381865afa158015611627573d5f5f3e3d5ffd5b505050506040513d601f19601f8201168201806040525081019061164b9190616f1f565b90505f8273ffffffffffffffffffffffffffffffffffffffff1663cf35bdd0866040518263ffffffff1660e01b81526004016116879190616b1f565b602060405180830381865afa1580156116a2573d5f5f3e3d5ffd5b505050506040513d601f19601f820116820180604052508101906116c69190616f1f565b90505f8373ffffffffffffffffffffffffffffffffffffffff1663fc0c546a6040518163ffffffff1660e01b8152600401602060405180830381865afa158015611712573d5f5f3e3d5ffd5b505050506040513d601f19601f820116820180604052508101906117369190616f1f565b90505f8373ffffffffffffffffffffffffffffffffffffffff166370a08231306040518263ffffffff1660e01b81526004016117729190616af7565b602060405180830381865afa15801561178d573d5f5f3e3d5ffd5b505050506040513d601f19601f820116820180604052508101906117b19190616e18565b90505f8373ffffffffffffffffffffffffffffffffffffffff166370a08231306040518263ffffffff1660e01b81526004016117ed9190616af7565b602060405180830381865afa158015611808573d5f5f3e3d5ffd5b505050506040513d601f19601f8201168201806040525081019061182c9190616e18565b90505f8373ffffffffffffffffffffffffffffffffffffffff166370a08231306040518263ffffffff1660e01b81526004016118689190616af7565b602060405180830381865afa158015611883573d5f5f3e3d5ffd5b505050506040513d601f19601f820116820180604052508101906118a79190616e18565b90505f8773ffffffffffffffffffffffffffffffffffffffff16630b36628d6040518163ffffffff1660e01b8152600401602060405180830381865afa1580156118f3573d5f5f3e3d5ffd5b505050506040513d601f19601f820116820180604052508101906119179190616e18565b67ffffffffffffffff8111156119305761192f616f9b565b5b60405190808252806020026020018201604052801561195e5781602001602082028036833780820191505090505b50905088818c8151811061197557611974616fc8565b5b6020026020010181815250506119a08773ccd04073f4bdc4510927ea9ba350875c3c65bf818b613d4f565b8773ffffffffffffffffffffffffffffffffffffffff1663a7256d09825f306040518463ffffffff1660e01b81526004016119dd939291906170ee565b6020604051808303815f875af11580156119f9573d5f5f3e3d5ffd5b505050506040513d601f19601f82011682018060405250810190611a1d9190616e18565b505f828673ffffffffffffffffffffffffffffffffffffffff166370a08231306040518263ffffffff1660e01b8152600401611a599190616af7565b602060405180830381865afa158015611a74573d5f5f3e3d5ffd5b505050506040513d601f19601f82011682018060405250810190611a989190616e18565b611aa29190616e70565b90505f8111611ae6576040517f08c379a0000000000000000000000000000000000000000000000000000000008152600401611add90617174565b60405180910390fd5b8873ffffffffffffffffffffffffffffffffffffffff166380ef1f0d8c835f306040518563ffffffff1660e01b8152600401611b259493929190617192565b6020604051808303815f875af1158015611b41573d5f5f3e3d5ffd5b505050506040513d601f19601f82011682018060405250810190611b659190616e18565b50611b7a8888878766038d7ea4c6800061394d565b505050505050505050505050565b600a5460085403611bce576040517f08c379a0000000000000000000000000000000000000000000000000000000008152600401611bc59061721f565b60405180910390fd5b600a5460095403611c14576040517f08c379a0000000000000000000000000000000000000000000000000000000008152600401611c0b90617287565b60405180910390fd5b60095460085403611c5a576040517f08c379a0000000000000000000000000000000000000000000000000000000008152600401611c51906172ef565b60405180910390fd5b5f600b5411611c9e576040517f08c379a0000000000000000000000000000000000000000000000000000000008152600401611c9590617357565b60405180910390fd5b5f73ccd04073f4bdc4510927ea9ba350875c3c65bf8190505f8173ffffffffffffffffffffffffffffffffffffffff1663cf35bdd06008546040518263ffffffff1660e01b8152600401611cf29190616b1f565b602060405180830381865afa158015611d0d573d5f5f3e3d5ffd5b505050506040513d601f19601f82011682018060405250810190611d319190616f1f565b90505f8273ffffffffffffffffffffffffffffffffffffffff1663cf35bdd06009546040518263ffffffff1660e01b8152600401611d6f9190616b1f565b602060405180830381865afa158015611d8a573d5f5f3e3d5ffd5b505050506040513d601f19601f82011682018060405250810190611dae9190616f1f565b9050611dd18273ccd04073f4bdc4510927ea9ba350875c3c65bf81600654613d4f565b8273ffffffffffffffffffffffffffffffffffffffff1663bbddbca0600854600954600b54600654306040518663ffffffff1660e01b8152600401611e1a959493929190616f4a565b6020604051808303815f875af1158015611e36573d5f5f3e3d5ffd5b505050506040513d601f19601f82011682018060405250810190611e5a9190616e18565b50611e688282600754613fe8565b6007548273ffffffffffffffffffffffffffffffffffffffff166370a08231306040518263ffffffff1660e01b8152600401611ea49190616af7565b602060405180830381865afa158015611ebf573d5f5f3e3d5ffd5b505050506040513d601f19601f82011682018060405250810190611ee39190616e18565b1015611f24576040517f08c379a0000000000000000000000000000000000000000000000000000000008152600401611f1b906173bf565b60405180910390fd5b505050565b600a5460085403611f6f576040517f08c379a0000000000000000000000000000000000000000000000000000000008152600401611f6690617427565b60405180910390fd5b600a5460095403611fb5576040517f08c379a0000000000000000000000000000000000000000000000000000000008152600401611fac9061748f565b60405180910390fd5b60095460085403611ffb576040517f08c379a0000000000000000000000000000000000000000000000000000000008152600401611ff2906172ef565b60405180910390fd5b5f73ccd04073f4bdc4510927ea9ba350875c3c65bf8190505f8173ffffffffffffffffffffffffffffffffffffffff1663cf35bdd06008546040518263ffffffff1660e01b815260040161204f9190616b1f565b602060405180830381865afa15801561206a573d5f5f3e3d5ffd5b505050506040513d601f19601f8201168201806040525081019061208e9190616f1f565b90505f8273ffffffffffffffffffffffffffffffffffffffff1663cf35bdd06009546040518263ffffffff1660e01b81526004016120cc9190616b1f565b602060405180830381865afa1580156120e7573d5f5f3e3d5ffd5b505050506040513d601f19601f8201168201806040525081019061210b9190616f1f565b90505f8373ffffffffffffffffffffffffffffffffffffffff1663fc0c546a6040518163ffffffff1660e01b8152600401602060405180830381865afa158015612157573d5f5f3e3d5ffd5b505050506040513d601f19601f8201168201806040525081019061217b9190616f1f565b90505f8473ffffffffffffffffffffffffffffffffffffffff16630b36628d6040518163ffffffff1660e01b8152600401602060405180830381865afa1580156121c7573d5f5f3e3d5ffd5b505050506040513d601f19601f820116820180604052508101906121eb9190616e18565b67ffffffffffffffff81111561220457612203616f9b565b5b6040519080825280602002602001820160405280156122325781602001602082028036833780820191505090505b509050600654816008548151811061224d5761224c616fc8565b5b60200260200101818152505061227a8473ccd04073f4bdc4510927ea9ba350875c3c65bf81600654613d4f565b5f8273ffffffffffffffffffffffffffffffffffffffff166370a08231306040518263ffffffff1660e01b81526004016122b49190616af7565b602060405180830381865afa1580156122cf573d5f5f3e3d5ffd5b505050506040513d601f19601f820116820180604052508101906122f39190616e18565b90508573ffffffffffffffffffffffffffffffffffffffff1663a7256d09835f306040518463ffffffff1660e01b8152600401612332939291906170ee565b6020604051808303815f875af115801561234e573d5f5f3e3d5ffd5b505050506040513d601f19601f820116820180604052508101906123729190616e18565b505f818473ffffffffffffffffffffffffffffffffffffffff166370a08231306040518263ffffffff1660e01b81526004016123ae9190616af7565b602060405180830381865afa1580156123c9573d5f5f3e3d5ffd5b505050506040513d601f19601f820116820180604052508101906123ed9190616e18565b6123f79190616e70565b90505f811161243b576040517f08c379a000000000000000000000000000000000000000000000000000000000815260040161243290617174565b60405180910390fd5b8673ffffffffffffffffffffffffffffffffffffffff166380ef1f0d600954835f306040518563ffffffff1660e01b815260040161247c9493929190617192565b6020604051808303815f875af1158015612498573d5f5f3e3d5ffd5b505050506040513d601f19601f820116820180604052508101906124bc9190616e18565b506124ca8686600754613fe8565b6007548673ffffffffffffffffffffffffffffffffffffffff166370a08231306040518263ffffffff1660e01b81526004016125069190616af7565b602060405180830381865afa158015612521573d5f5f3e3d5ffd5b505050506040513d601f19601f820116820180604052508101906125459190616e18565b1015612586576040517f08c379a000000000000000000000000000000000000000000000000000000000815260040161257d906173bf565b60405180910390fd5b50505050505050565b5f5f8473ffffffffffffffffffffffffffffffffffffffff1663a9059cbb60e01b85856040516024016125c39291906174ad565b604051602081830303815290604052907bffffffffffffffffffffffffffffffffffffffffffffffffffffffff19166020820180517bffffffffffffffffffffffffffffffffffffffffffffffffffffffff838183161783525050505060405161262d9190617526565b5f604051808303815f865af19150503d805f8114612666576040519150601f19603f3d011682016040523d82523d5f602084013e61266b565b606091505b509150915081801561269857505f815114806126975750808060200190518101906126969190617571565b5b5b6126d7576040517f08c379a00000000000000000000000000000000000000000000000000000000081526004016126ce906175e6565b60405180910390fd5b5050505050565b5f4790505f81111561275c5773c02aaa39b223fe8d0a0e5c4f27ead9083c756cc273ffffffffffffffffffffffffffffffffffffffff1663d0e30db0826040518263ffffffff1660e01b81526004015f604051808303818588803b158015612744575f5ffd5b505af1158015612756573d5f5f3e3d5ffd5b50505050505b50565b5f5f8373ffffffffffffffffffffffffffffffffffffffff1663e7ee6ad6846040518263ffffffff1660e01b815260040161279a9190616b1f565b602060405180830381865afa9250505080156127d457506040513d601f19601f820116820180604052508101906127d19190616e18565b60015b6127e3575f5f915091506129f7565b809250505f5f8573ffffffffffffffffffffffffffffffffffffffff166320b014d5866040518263ffffffff1660e01b81526004016128229190616b1f565b602060405180830381865afa92505050801561285c57506040513d601f19601f820116820180604052508101906128599190616f1f565b60015b61286d57835f9350935050506129f7565b809250508573ffffffffffffffffffffffffffffffffffffffff1663cf35bdd0866040518263ffffffff1660e01b81526004016128aa9190616b1f565b602060405180830381865afa9250505080156128e457506040513d601f19601f820116820180604052508101906128e19190616f1f565b60015b6128f557835f9350935050506129f7565b809150505f73ffffffffffffffffffffffffffffffffffffffff168273ffffffffffffffffffffffffffffffffffffffff16148061295e57505f73ffffffffffffffffffffffffffffffffffffffff168173ffffffffffffffffffffffffffffffffffffffff16145b1561297057835f9350935050506129f7565b8173ffffffffffffffffffffffffffffffffffffffff16630ba9d8ca826040518263ffffffff1660e01b81526004016129a99190616af7565b602060405180830381865afa9250505080156129e357506040513d601f19601f820116820180604052508101906129e09190616e18565b60015b6129ef575f92506129f4565b809350505b50505b9250929050565b6001821115612b20575f600183612a159190616e70565b67ffffffffffffffff811115612a2e57612a2d616f9b565b5b604051908082528060200260200182016040528015612a5c5781602001602082028036833780820191505090505b5090505f5f5f90505b84811015612aad5783810315612aa25780838381518110612a8957612a88616fc8565b5b60200260200101818152505081612a9f90617604565b91505b806001019050612a65565b505f811115612b1d578473ffffffffffffffffffffffffffffffffffffffff16634fa0e817836040518263ffffffff1660e01b8152600401612aef919061764b565b5f604051808303815f87803b158015612b06575f5ffd5b505af1158015612b18573d5f5f3e3d5ffd5b505050505b50505b505050565b5f5f5f90505b83811015612f7c5782811480612b485750612b4685826142f5565b155b612f71575f8573ffffffffffffffffffffffffffffffffffffffff1663cf35bdd0836040518263ffffffff1660e01b8152600401612b869190616b1f565b602060405180830381865afa158015612ba1573d5f5f3e3d5ffd5b505050506040513d601f19601f82011682018060405250810190612bc59190616f1f565b90505f8173ffffffffffffffffffffffffffffffffffffffff166370a08231306040518263ffffffff1660e01b8152600401612c019190616af7565b602060405180830381865afa158015612c1c573d5f5f3e3d5ffd5b505050506040513d601f19601f82011682018060405250810190612c409190616e18565b905066038d7ea4c680008111612c57575050612f71565b5f5f90505b86811015612f6d5785811480612c7157508381145b80612c835750612c8188826142f5565b155b612f62575f8873ffffffffffffffffffffffffffffffffffffffff1663cf35bdd0836040518263ffffffff1660e01b8152600401612cc19190616b1f565b602060405180830381865afa158015612cdc573d5f5f3e3d5ffd5b505050506040513d601f19601f82011682018060405250810190612d009190616f1f565b90505f8173ffffffffffffffffffffffffffffffffffffffff166370a0823173ccd04073f4bdc4510927ea9ba350875c3c65bf816040518263ffffffff1660e01b8152600401612d509190616af7565b602060405180830381865afa158015612d6b573d5f5f3e3d5ffd5b505050506040513d601f19601f82011682018060405250810190612d8f9190616e18565b905066038d7ea4c680008111612da6575050612f62565b5f6040518061010001604052806004815260200160088152602001600c815260200160108152602001601481526020016020815260200160308152602001604081525090505f604051806101000160405280600c8152602001601081526020016014815260200160188152602001602081526020016028815260200160328152602001604081525090505f5f90505b6008811015612f5c575f838260088110612e5257612e51616fc8565b5b602002015188612e629190617698565b905066038d7ea4c680008111612e785750612f51565b5f5f90505b6008811015612f4e575f848260088110612e9a57612e99616fc8565b5b602002015187612eaa9190617698565b905066038d7ea4c680008111612ec05750612f43565b3073ffffffffffffffffffffffffffffffffffffffff1663e9c09c628d8b86856040518563ffffffff1660e01b8152600401612eff94939291906176c8565b5f604051808303815f87803b158015612f16575f5ffd5b505af1925050508015612f27575060015b15612f415760019c50505050505050505050505050612f81565b505b806001019050612e7d565b50505b806001019050612e35565b50505050505b806001019050612c5c565b5050505b806001019050612b2b565b505f90505b9392505050565b5f5f5f90505b8381101561321b5782811480612fab5750612fa985826142f5565b155b613210575f8573ffffffffffffffffffffffffffffffffffffffff1663cf35bdd0836040518263ffffffff1660e01b8152600401612fe99190616b1f565b602060405180830381865afa158015613004573d5f5f3e3d5ffd5b505050506040513d601f19601f820116820180604052508101906130289190616f1f565b90505f8173ffffffffffffffffffffffffffffffffffffffff166370a08231306040518263ffffffff1660e01b81526004016130649190616af7565b602060405180830381865afa15801561307f573d5f5f3e3d5ffd5b505050506040513d601f19601f820116820180604052508101906130a39190616e18565b905066038d7ea4c6800081116130ba575050613210565b5f5f90505b8681101561320c57858114806130d457508381145b806130e657506130e488826142f5565b155b613201575f6040518061010001604052806004815260200160088152602001600c815260200160108152602001601481526020016020815260200160308152602001604081525090505f5f90505b60088110156131fe575f82826008811061315157613150616fc8565b5b6020020151856131619190617698565b905066038d7ea4c68000811161317757506131f3565b3073ffffffffffffffffffffffffffffffffffffffff1663f8a877598886846040518463ffffffff1660e01b81526004016131b49392919061770b565b5f604051808303815f87803b1580156131cb575f5ffd5b505af19250505080156131dc575060015b156131f1576001975050505050505050613220565b505b806001019050613134565b50505b8060010190506130bf565b5050505b806001019050612f8e565b505f90505b9392505050565b5f5f5f90505b838110156134d5578281148061324a575061324885826142f5565b155b6134ca575f8573ffffffffffffffffffffffffffffffffffffffff1663cf35bdd0836040518263ffffffff1660e01b81526004016132889190616b1f565b602060405180830381865afa1580156132a3573d5f5f3e3d5ffd5b505050506040513d601f19601f820116820180604052508101906132c79190616f1f565b90505f6132d38261434b565b90505f5f90505b868110156134c657858114806132ef57508381145b8061330157506132ff88826142f5565b155b6134bb575f8873ffffffffffffffffffffffffffffffffffffffff1663cf35bdd0836040518263ffffffff1660e01b815260040161333f9190616b1f565b602060405180830381865afa15801561335a573d5f5f3e3d5ffd5b505050506040513d601f19601f8201168201806040525081019061337e9190616f1f565b90505f8173ffffffffffffffffffffffffffffffffffffffff166370a0823173ccd04073f4bdc4510927ea9ba350875c3c65bf816040518263ffffffff1660e01b81526004016133ce9190616af7565b602060405180830381865afa1580156133e9573d5f5f3e3d5ffd5b505050506040513d601f19601f8201168201806040525081019061340d9190616e18565b905066038d7ea4c6800081116134245750506134bb565b5f5f90505b60088110156134b7575f85826008811061344657613445616fc8565b5b602002015190505f73ffffffffffffffffffffffffffffffffffffffff168173ffffffffffffffffffffffffffffffffffffffff160361348657506134ac565b6134948c8b8a888588614747565b156134aa576001985050505050505050506134da565b505b806001019050613429565b5050505b8060010190506132da565b5050505b80600101905061322d565b505f90505b9392505050565b5f5f5f90505b8381101561378f5782811480613504575061350285826142f5565b155b613784575f8573ffffffffffffffffffffffffffffffffffffffff1663cf35bdd0836040518263ffffffff1660e01b81526004016135429190616b1f565b602060405180830381865afa15801561355d573d5f5f3e3d5ffd5b505050506040513d601f19601f820116820180604052508101906135819190616f1f565b90505f61358d8261434b565b90505f5f90505b8681101561378057858114806135a957508381145b806135bb57506135b988826142f5565b155b613775575f8873ffffffffffffffffffffffffffffffffffffffff1663cf35bdd0836040518263ffffffff1660e01b81526004016135f99190616b1f565b602060405180830381865afa158015613614573d5f5f3e3d5ffd5b505050506040513d601f19601f820116820180604052508101906136389190616f1f565b90505f8173ffffffffffffffffffffffffffffffffffffffff166370a0823173ccd04073f4bdc4510927ea9ba350875c3c65bf816040518263ffffffff1660e01b81526004016136889190616af7565b602060405180830381865afa1580156136a3573d5f5f3e3d5ffd5b505050506040513d601f19601f820116820180604052508101906136c79190616e18565b905066038d7ea4c6800081116136de575050613775565b5f5f90505b6008811015613771575f858260088110613700576136ff616fc8565b5b602002015190505f73ffffffffffffffffffffffffffffffffffffffff168173ffffffffffffffffffffffffffffffffffffffff16036137405750613766565b61374e8c8b8a888588614a30565b1561376457600198505050505050505050613794565b505b8060010190506136e3565b5050505b806001019050613594565b5050505b8060010190506134e7565b505f90505b9392505050565b5f60016103e56103e8846137af9190617740565b6137b99190617698565b6137c39190617781565b9050919050565b5f8390508273ffffffffffffffffffffffffffffffffffffffff168173ffffffffffffffffffffffffffffffffffffffff16630dfe16816040518163ffffffff1660e01b8152600401602060405180830381865afa15801561382e573d5f5f3e3d5ffd5b505050506040513d601f19601f820116820180604052508101906138529190616f1f565b73ffffffffffffffffffffffffffffffffffffffff16036138dc578073ffffffffffffffffffffffffffffffffffffffff1663022c0d9f835f306040518463ffffffff1660e01b81526004016138aa9392919061780e565b5f604051808303815f87803b1580156138c1575f5ffd5b505af11580156138d3573d5f5f3e3d5ffd5b50505050613947565b8073ffffffffffffffffffffffffffffffffffffffff1663022c0d9f5f84306040518463ffffffff1660e01b815260040161391993929190617856565b5f604051808303815f87803b158015613930575f5ffd5b505af1158015613942573d5f5f3e3d5ffd5b505050505b50505050565b5f8473ffffffffffffffffffffffffffffffffffffffff166370a08231306040518263ffffffff1660e01b81526004016139879190616af7565b602060405180830381865afa1580156139a2573d5f5f3e3d5ffd5b505050506040513d601f19601f820116820180604052508101906139c69190616e18565b905082811115613a6f575f83826139dd9190616e70565b905082811015613a22576040517f08c379a0000000000000000000000000000000000000000000000000000000008152600401613a19906178e8565b60405180910390fd5b855f5f6101000a81548173ffffffffffffffffffffffffffffffffffffffff021916908373ffffffffffffffffffffffffffffffffffffffff160217905550806001819055505050613bcd565b5f8673ffffffffffffffffffffffffffffffffffffffff166370a08231306040518263ffffffff1660e01b8152600401613aa99190616af7565b602060405180830381865afa158015613ac4573d5f5f3e3d5ffd5b505050506040513d601f19601f82011682018060405250810190613ae89190616e18565b905084811115613b92575f8582613aff9190616e70565b905083811015613b44576040517f08c379a0000000000000000000000000000000000000000000000000000000008152600401613b3b906178e8565b60405180910390fd5b875f5f6101000a81548173ffffffffffffffffffffffffffffffffffffffff021916908373ffffffffffffffffffffffffffffffffffffffff16021790555080600181905550505050613bcd565b6040517f08c379a0000000000000000000000000000000000000000000000000000000008152600401613bc490617950565b60405180910390fd5b5050505050565b5f6003819055505f60045f6101000a81548173ffffffffffffffffffffffffffffffffffffffff021916908373ffffffffffffffffffffffffffffffffffffffff1602179055505f60055f6101000a81548173ffffffffffffffffffffffffffffffffffffffff021916908373ffffffffffffffffffffffffffffffffffffffff1602179055505f6006819055505f6007819055505f6008819055505f6009819055505f600a819055505f600b819055505f600c5f6101000a81548173ffffffffffffffffffffffffffffffffffffffff021916908373ffffffffffffffffffffffffffffffffffffffff1602179055505f600d5f6101000a81548173ffffffffffffffffffffffffffffffffffffffff021916908373ffffffffffffffffffffffffffffffffffffffff1602179055505f600e5f6101000a81548173ffffffffffffffffffffffffffffffffffffffff021916908373ffffffffffffffffffffffffffffffffffffffff160217905550613d4d614d18565b565b5f5f8473ffffffffffffffffffffffffffffffffffffffff1663095ea7b360e01b855f604051602401613d839291906179aa565b604051602081830303815290604052907bffffffffffffffffffffffffffffffffffffffffffffffffffffffff19166020820180517bffffffffffffffffffffffffffffffffffffffffffffffffffffffff8381831617835250505050604051613ded9190617526565b5f604051808303815f865af19150503d805f8114613e26576040519150601f19603f3d011682016040523d82523d5f602084013e613e2b565b606091505b5091509150818015613e5857505f81511480613e57575080806020019051810190613e569190617571565b5b5b613e97576040517f08c379a0000000000000000000000000000000000000000000000000000000008152600401613e8e90617a1b565b60405180910390fd5b5f5f8673ffffffffffffffffffffffffffffffffffffffff1663095ea7b360e01b8787604051602401613ecb9291906174ad565b604051602081830303815290604052907bffffffffffffffffffffffffffffffffffffffffffffffffffffffff19166020820180517bffffffffffffffffffffffffffffffffffffffffffffffffffffffff8381831617835250505050604051613f359190617526565b5f604051808303815f865af19150503d805f8114613f6e576040519150601f19603f3d011682016040523d82523d5f602084013e613f73565b606091505b5091509150818015613fa057505f81511480613f9f575080806020019051810190613f9e9190617571565b5b5b613fdf576040517f08c379a0000000000000000000000000000000000000000000000000000000008152600401613fd690617a83565b60405180910390fd5b50505050505050565b5f8373ffffffffffffffffffffffffffffffffffffffff166370a08231306040518263ffffffff1660e01b81526004016140229190616af7565b602060405180830381865afa15801561403d573d5f5f3e3d5ffd5b505050506040513d601f19601f820116820180604052508101906140619190616e18565b905081811061407057506142f0565b5f818361407d9190616e70565b905061408a848683614e3d565b156140965750506142f0565b5f6040518061018001604052806001815260200160018152602001600181526020016001815260200160018152602001600281526020016003815260200160048152602001600181526020016001815260200160018152602001600181525090505f6040518061018001604052806040815260200160208152602001601081526020016008815260200160048152602001600581526020016007815260200160098152602001600381526020016002815260200160018152602001600181525090505f5f90505b600c8110156142ea57858873ffffffffffffffffffffffffffffffffffffffff166370a08231306040518263ffffffff1660e01b81526004016141a09190616af7565b602060405180830381865afa1580156141bb573d5f5f3e3d5ffd5b505050506040513d601f19601f820116820180604052508101906141df9190616e18565b106141ee5750505050506142f0565b5f8773ffffffffffffffffffffffffffffffffffffffff166370a08231306040518263ffffffff1660e01b81526004016142289190616af7565b602060405180830381865afa158015614243573d5f5f3e3d5ffd5b505050506040513d601f19601f820116820180604052508101906142679190616e18565b90505f810361427b575050505050506142f0565b5f8383600c811061428f5761428e616fc8565b5b60200201518584600c81106142a7576142a6616fc8565b5b6020020151836142b79190617740565b6142c19190617698565b90505f81036142d15750506142df565b6142db8982615165565b5050505b80600101905061415d565b50505050505b505050565b5f5f5f614302858561275f565b915091505f82148061431357505f81145b15614322575f92505050614345565b6126de826143309190617740565b6127108261433e9190617740565b1015925050505b92915050565b61435361694b565b614386735c69bee701ef814a2b6a3edd4b1652cb9cc5aa6f8373c02aaa39b223fe8d0a0e5c4f27ead9083c756cc2615240565b815f6008811061439957614398616fc8565b5b602002019073ffffffffffffffffffffffffffffffffffffffff16908173ffffffffffffffffffffffffffffffffffffffff168152505061440373c0aee478e3658e2610c5f7a4a2e1777ce9e4f2ac8373c02aaa39b223fe8d0a0e5c4f27ead9083c756cc2615240565b8160016008811061441757614416616fc8565b5b602002019073ffffffffffffffffffffffffffffffffffffffff16908173ffffffffffffffffffffffffffffffffffffffff1681525050614481735c69bee701ef814a2b6a3edd4b1652cb9cc5aa6f8373a0b86991c6218b36c1d19d4a2e9eb0ce3606eb48615240565b8160026008811061449557614494616fc8565b5b602002019073ffffffffffffffffffffffffffffffffffffffff16908173ffffffffffffffffffffffffffffffffffffffff16815250506144ff73c0aee478e3658e2610c5f7a4a2e1777ce9e4f2ac8373a0b86991c6218b36c1d19d4a2e9eb0ce3606eb48615240565b8160036008811061451357614512616fc8565b5b602002019073ffffffffffffffffffffffffffffffffffffffff16908173ffffffffffffffffffffffffffffffffffffffff168152505061457d735c69bee701ef814a2b6a3edd4b1652cb9cc5aa6f8373dac17f958d2ee523a2206206994597c13d831ec7615240565b8160046008811061459157614590616fc8565b5b602002019073ffffffffffffffffffffffffffffffffffffffff16908173ffffffffffffffffffffffffffffffffffffffff16815250506145fb73c0aee478e3658e2610c5f7a4a2e1777ce9e4f2ac8373dac17f958d2ee523a2206206994597c13d831ec7615240565b8160056008811061460f5761460e616fc8565b5b602002019073ffffffffffffffffffffffffffffffffffffffff16908173ffffffffffffffffffffffffffffffffffffffff1681525050614679735c69bee701ef814a2b6a3edd4b1652cb9cc5aa6f83736b175474e89094c44da98b954eedeac495271d0f615240565b8160066008811061468d5761468c616fc8565b5b602002019073ffffffffffffffffffffffffffffffffffffffff16908173ffffffffffffffffffffffffffffffffffffffff16815250506146f773c0aee478e3658e2610c5f7a4a2e1777ce9e4f2ac83736b175474e89094c44da98b954eedeac495271d0f615240565b8160076008811061470b5761470a616fc8565b5b602002019073ffffffffffffffffffffffffffffffffffffffff16908173ffffffffffffffffffffffffffffffffffffffff1681525050919050565b5f5f8773ffffffffffffffffffffffffffffffffffffffff1663cf35bdd0876040518263ffffffff1660e01b81526004016147829190616b1f565b602060405180830381865afa15801561479d573d5f5f3e3d5ffd5b505050506040513d601f19601f820116820180604052508101906147c19190616f1f565b90505f8873ffffffffffffffffffffffffffffffffffffffff1663cf35bdd0876040518263ffffffff1660e01b81526004016147fd9190616b1f565b602060405180830381865afa158015614818573d5f5f3e3d5ffd5b505050506040513d601f19601f8201168201806040525081019061483c9190616f1f565b90505f5f5f61484c84868a615309565b9250925092505f73ffffffffffffffffffffffffffffffffffffffff168373ffffffffffffffffffffffffffffffffffffffff1603614892575f95505050505050614a26565b5f61489d89876155ca565b905066038d7ea4c6800081116148bb575f9650505050505050614a26565b5f6148de6005836148cc9190617698565b60038b6148d99190617698565b6157c4565b905066038d7ea4c6800081116148fd575f975050505050505050614a26565b89600f5f6101000a81548173ffffffffffffffffffffffffffffffffffffffff021916908373ffffffffffffffffffffffffffffffffffffffff1602179055508460105f6101000a81548173ffffffffffffffffffffffffffffffffffffffff021916908373ffffffffffffffffffffffffffffffffffffffff1602179055508360115f6101000a81548173ffffffffffffffffffffffffffffffffffffffff021916908373ffffffffffffffffffffffffffffffffffffffff1602179055508260125f6101000a81548173ffffffffffffffffffffffffffffffffffffffff021916908373ffffffffffffffffffffffffffffffffffffffff1602179055508b6013819055508a6014819055508c601581905550614a1c818a6157dc565b9750505050505050505b9695505050505050565b5f5f8773ffffffffffffffffffffffffffffffffffffffff1663cf35bdd0876040518263ffffffff1660e01b8152600401614a6b9190616b1f565b602060405180830381865afa158015614a86573d5f5f3e3d5ffd5b505050506040513d601f19601f82011682018060405250810190614aaa9190616f1f565b90505f8873ffffffffffffffffffffffffffffffffffffffff1663cf35bdd0876040518263ffffffff1660e01b8152600401614ae69190616b1f565b602060405180830381865afa158015614b01573d5f5f3e3d5ffd5b505050506040513d601f19601f82011682018060405250810190614b259190616f1f565b90505f5f5f614b3584868a615309565b9250925092505f73ffffffffffffffffffffffffffffffffffffffff168373ffffffffffffffffffffffffffffffffffffffff1603614b7b575f95505050505050614d0e565b5f614b8689876155ca565b905066038d7ea4c680008111614ba4575f9650505050505050614d0e565b5f614bc7600683614bb59190617698565b60048b614bc29190617698565b6157c4565b905066038d7ea4c680008111614be6575f975050505050505050614d0e565b89600f5f6101000a81548173ffffffffffffffffffffffffffffffffffffffff021916908373ffffffffffffffffffffffffffffffffffffffff1602179055508460105f6101000a81548173ffffffffffffffffffffffffffffffffffffffff021916908373ffffffffffffffffffffffffffffffffffffffff1602179055508360115f6101000a81548173ffffffffffffffffffffffffffffffffffffffff021916908373ffffffffffffffffffffffffffffffffffffffff1602179055508260125f6101000a81548173ffffffffffffffffffffffffffffffffffffffff021916908373ffffffffffffffffffffffffffffffffffffffff1602179055508b6013819055508a6014819055508c601581905550614d04816159cf565b9750505050505050505b9695505050505050565b5f600f5f6101000a81548173ffffffffffffffffffffffffffffffffffffffff021916908373ffffffffffffffffffffffffffffffffffffffff1602179055505f60105f6101000a81548173ffffffffffffffffffffffffffffffffffffffff021916908373ffffffffffffffffffffffffffffffffffffffff1602179055505f60115f6101000a81548173ffffffffffffffffffffffffffffffffffffffff021916908373ffffffffffffffffffffffffffffffffffffffff1602179055505f60125f6101000a81548173ffffffffffffffffffffffffffffffffffffffff021916908373ffffffffffffffffffffffffffffffffffffffff1602179055505f6013819055505f6014819055505f6015819055505f6016819055505f601781905550565b5f5f821480614e9857505f73ffffffffffffffffffffffffffffffffffffffff16600c5f9054906101000a900473ffffffffffffffffffffffffffffffffffffffff1673ffffffffffffffffffffffffffffffffffffffff16145b15614ea5575f905061515e565b5f8473ffffffffffffffffffffffffffffffffffffffff166370a08231306040518263ffffffff1660e01b8152600401614edf9190616af7565b602060405180830381865afa158015614efa573d5f5f3e3d5ffd5b505050506040513d601f19601f82011682018060405250810190614f1e9190616e18565b90505f8103614f30575f91505061515e565b5f73ffffffffffffffffffffffffffffffffffffffff16600d5f9054906101000a900473ffffffffffffffffffffffffffffffffffffffff1673ffffffffffffffffffffffffffffffffffffffff1603615009575f614fb1600c5f9054906101000a900473ffffffffffffffffffffffffffffffffffffffff168786615b06565b90505f811480614fc057508181115b15614fcf575f9250505061515e565b614ffd600c5f9054906101000a900473ffffffffffffffffffffffffffffffffffffffff1687878730615d79565b5060019250505061515e565b5f615057600d5f9054906101000a900473ffffffffffffffffffffffffffffffffffffffff16600e5f9054906101000a900473ffffffffffffffffffffffffffffffffffffffff1686615b06565b90505f810361506a575f9250505061515e565b5f615097600c5f9054906101000a900473ffffffffffffffffffffffffffffffffffffffff168884615b06565b90505f8114806150a657508281115b156150b6575f935050505061515e565b615105600c5f9054906101000a900473ffffffffffffffffffffffffffffffffffffffff1688600e5f9054906101000a900473ffffffffffffffffffffffffffffffffffffffff168530615d79565b50615155600d5f9054906101000a900473ffffffffffffffffffffffffffffffffffffffff16600e5f9054906101000a900473ffffffffffffffffffffffffffffffffffffffff16888830615d79565b50600193505050505b9392505050565b5f615193600c5f9054906101000a900473ffffffffffffffffffffffffffffffffffffffff1684843061621b565b90505f73ffffffffffffffffffffffffffffffffffffffff16600d5f9054906101000a900473ffffffffffffffffffffffffffffffffffffffff1673ffffffffffffffffffffffffffffffffffffffff161461523a57615237600d5f9054906101000a900473ffffffffffffffffffffffffffffffffffffffff16600e5f9054906101000a900473ffffffffffffffffffffffffffffffffffffffff16833061621b565b90505b92915050565b5f8173ffffffffffffffffffffffffffffffffffffffff168373ffffffffffffffffffffffffffffffffffffffff160361527c575f9050615302565b8373ffffffffffffffffffffffffffffffffffffffff1663e6a4390584846040518363ffffffff1660e01b81526004016152b7929190617aa1565b602060405180830381865afa9250505080156152f157506040513d601f19601f820116820180604052508101906152ee9190616f1f565b60015b6152fd575f9050615302565b809150505b9392505050565b5f5f5f6153188686865f61664e565b92505f73ffffffffffffffffffffffffffffffffffffffff168373ffffffffffffffffffffffffffffffffffffffff161461535b57825f5f9250925092506155c1565b5f604051806080016040528073c02aaa39b223fe8d0a0e5c4f27ead9083c756cc273ffffffffffffffffffffffffffffffffffffffff1673ffffffffffffffffffffffffffffffffffffffff16815260200173a0b86991c6218b36c1d19d4a2e9eb0ce3606eb4873ffffffffffffffffffffffffffffffffffffffff1673ffffffffffffffffffffffffffffffffffffffff16815260200173dac17f958d2ee523a2206206994597c13d831ec773ffffffffffffffffffffffffffffffffffffffff1673ffffffffffffffffffffffffffffffffffffffff168152602001736b175474e89094c44da98b954eedeac495271d0f73ffffffffffffffffffffffffffffffffffffffff1673ffffffffffffffffffffffffffffffffffffffff1681525090505f5f90505b60048110156155be575f8282600481106154a1576154a0616fc8565b5b602002015190508873ffffffffffffffffffffffffffffffffffffffff168173ffffffffffffffffffffffffffffffffffffffff16148061550d57508773ffffffffffffffffffffffffffffffffffffffff168173ffffffffffffffffffffffffffffffffffffffff16145b1561551857506155b3565b6155248982895f61664e565b95505f73ffffffffffffffffffffffffffffffffffffffff168673ffffffffffffffffffffffffffffffffffffffff160361555f57506155b3565b61556b8189898961664e565b94505f73ffffffffffffffffffffffffffffffffffffffff168573ffffffffffffffffffffffffffffffffffffffff16146155b1578585829550955095505050506155c1565b505b806001019050615484565b50505b93509350939050565b5f5f8390505f5f8273ffffffffffffffffffffffffffffffffffffffff16630902f1ac6040518163ffffffff1660e01b8152600401606060405180830381865afa15801561561a573d5f5f3e3d5ffd5b505050506040513d601f19601f8201168201806040525081019061563e9190617b44565b50915091508473ffffffffffffffffffffffffffffffffffffffff168373ffffffffffffffffffffffffffffffffffffffff16630dfe16816040518163ffffffff1660e01b8152600401602060405180830381865afa1580156156a3573d5f5f3e3d5ffd5b505050506040513d601f19601f820116820180604052508101906156c79190616f1f565b73ffffffffffffffffffffffffffffffffffffffff16036156fd57816dffffffffffffffffffffffffffff1693505050506157be565b8473ffffffffffffffffffffffffffffffffffffffff168373ffffffffffffffffffffffffffffffffffffffff1663d21220a76040518163ffffffff1660e01b8152600401602060405180830381865afa15801561575d573d5f5f3e3d5ffd5b505050506040513d601f19601f820116820180604052508101906157819190616f1f565b73ffffffffffffffffffffffffffffffffffffffff16036157b757806dffffffffffffffffffffffffffff1693505050506157be565b5f93505050505b92915050565b5f8183106157d257816157d4565b825b905092915050565b5f5f60405180610180016040528060088152602001600c8152602001601081526020016014815260200160188152602001602081526020016028815260200160328152602001604081526020016050815260200160648152602001607d81525090505f604051806101800160405280600c8152602001601081526020016014815260200160188152602001602081526020016028815260200160328152602001604081526020016050815260200160648152602001607d815260200160a081525090505f5f90505b600c8110156159c2575f8382600c81106158c1576158c0616fc8565b5b6020020151876158d19190617698565b905066038d7ea4c6800081116158e757506159b7565b5f5f90505b600c8110156159b4575f8482600c811061590957615908616fc8565b5b6020020151886159199190617698565b905066038d7ea4c68000811161592f57506159a9565b82601681905550806017819055503073ffffffffffffffffffffffffffffffffffffffff166399d036696040518163ffffffff1660e01b81526004015f604051808303815f87803b158015615982575f5ffd5b505af1925050508015615993575060015b156159a757600196505050505050506159c9565b505b8060010190506158ec565b50505b8060010190506158a4565b505f925050505b92915050565b5f5f604051806101800160405280600c8152602001601081526020016014815260200160188152602001602081526020016028815260200160328152602001604081526020016050815260200160648152602001607d815260200160a081525090505f5f90505b600c811015615afb575f8282600c8110615a5357615a52616fc8565b5b602002015185615a639190617698565b905066038d7ea4c680008111615a795750615af0565b806016819055505f6017819055503073ffffffffffffffffffffffffffffffffffffffff166342ab78f06040518163ffffffff1660e01b81526004015f604051808303815f87803b158015615acc575f5ffd5b505af1925050508015615add575060015b15615aee5760019350505050615b01565b505b806001019050615a36565b505f9150505b919050565b5f5f8490505f5f8273ffffffffffffffffffffffffffffffffffffffff16630902f1ac6040518163ffffffff1660e01b8152600401606060405180830381865afa158015615b56573d5f5f3e3d5ffd5b505050506040513d601f19601f82011682018060405250810190615b7a9190617b44565b50915091508573ffffffffffffffffffffffffffffffffffffffff168373ffffffffffffffffffffffffffffffffffffffff16630dfe16816040518163ffffffff1660e01b8152600401602060405180830381865afa158015615bdf573d5f5f3e3d5ffd5b505050506040513d601f19601f82011682018060405250810190615c039190616f1f565b73ffffffffffffffffffffffffffffffffffffffff1603615c755784816dffffffffffffffffffffffffffff1611615c40575f9350505050615d72565b615c6b85836dffffffffffffffffffffffffffff16836dffffffffffffffffffffffffffff166167fe565b9350505050615d72565b8573ffffffffffffffffffffffffffffffffffffffff168373ffffffffffffffffffffffffffffffffffffffff1663d21220a76040518163ffffffff1660e01b8152600401602060405180830381865afa158015615cd5573d5f5f3e3d5ffd5b505050506040513d601f19601f82011682018060405250810190615cf99190616f1f565b73ffffffffffffffffffffffffffffffffffffffff1603615d6b5784826dffffffffffffffffffffffffffff1611615d36575f9350505050615d72565b615d6185826dffffffffffffffffffffffffffff16846dffffffffffffffffffffffffffff166167fe565b9350505050615d72565b5f93505050505b9392505050565b5f5f8690505f8173ffffffffffffffffffffffffffffffffffffffff16630dfe16816040518163ffffffff1660e01b8152600401602060405180830381865afa158015615dc8573d5f5f3e3d5ffd5b505050506040513d601f19601f82011682018060405250810190615dec9190616f1f565b90505f8273ffffffffffffffffffffffffffffffffffffffff1663d21220a76040518163ffffffff1660e01b8152600401602060405180830381865afa158015615e38573d5f5f3e3d5ffd5b505050506040513d601f19601f82011682018060405250810190615e5c9190616f1f565b90508173ffffffffffffffffffffffffffffffffffffffff168873ffffffffffffffffffffffffffffffffffffffff16148015615ec457508073ffffffffffffffffffffffffffffffffffffffff168773ffffffffffffffffffffffffffffffffffffffff16145b80615f3157508073ffffffffffffffffffffffffffffffffffffffff168873ffffffffffffffffffffffffffffffffffffffff16148015615f3057508173ffffffffffffffffffffffffffffffffffffffff168773ffffffffffffffffffffffffffffffffffffffff16145b5b615f70576040517f08c379a0000000000000000000000000000000000000000000000000000000008152600401615f6790617bde565b60405180910390fd5b5f5f8473ffffffffffffffffffffffffffffffffffffffff16630902f1ac6040518163ffffffff1660e01b8152600401606060405180830381865afa158015615fbb573d5f5f3e3d5ffd5b505050506040513d601f19601f82011682018060405250810190615fdf9190617b44565b50915091505f8473ffffffffffffffffffffffffffffffffffffffff168b73ffffffffffffffffffffffffffffffffffffffff161490505f8161603257826dffffffffffffffffffffffffffff16616044565b836dffffffffffffffffffffffffffff165b90505f8261606257846dffffffffffffffffffffffffffff16616074565b836dffffffffffffffffffffffffffff165b90506160818b83836167fe565b985061608e8d8f8b61258f565b8215616151578773ffffffffffffffffffffffffffffffffffffffff1663022c0d9f5f8d8d5f67ffffffffffffffff8111156160cd576160cc616f9b565b5b6040519080825280601f01601f1916602001820160405280156160ff5781602001600182028036833780820191505090505b506040518563ffffffff1660e01b815260040161611f9493929190617c44565b5f604051808303815f87803b158015616136575f5ffd5b505af1158015616148573d5f5f3e3d5ffd5b5050505061620a565b8773ffffffffffffffffffffffffffffffffffffffff1663022c0d9f8c5f8d5f67ffffffffffffffff81111561618a57616189616f9b565b5b6040519080825280601f01601f1916602001820160405280156161bc5781602001600182028036833780820191505090505b506040518563ffffffff1660e01b81526004016161dc9493929190617c8e565b5f604051808303815f87803b1580156161f3575f5ffd5b505af1158015616205573d5f5f3e3d5ffd5b505050505b505050505050505095945050505050565b5f5f8590505f8173ffffffffffffffffffffffffffffffffffffffff16630dfe16816040518163ffffffff1660e01b8152600401602060405180830381865afa15801561626a573d5f5f3e3d5ffd5b505050506040513d601f19601f8201168201806040525081019061628e9190616f1f565b90505f8273ffffffffffffffffffffffffffffffffffffffff1663d21220a76040518163ffffffff1660e01b8152600401602060405180830381865afa1580156162da573d5f5f3e3d5ffd5b505050506040513d601f19601f820116820180604052508101906162fe9190616f1f565b90508173ffffffffffffffffffffffffffffffffffffffff168773ffffffffffffffffffffffffffffffffffffffff16148061636557508073ffffffffffffffffffffffffffffffffffffffff168773ffffffffffffffffffffffffffffffffffffffff16145b6163a4576040517f08c379a000000000000000000000000000000000000000000000000000000000815260040161639b90617bde565b60405180910390fd5b5f5f8473ffffffffffffffffffffffffffffffffffffffff16630902f1ac6040518163ffffffff1660e01b8152600401606060405180830381865afa1580156163ef573d5f5f3e3d5ffd5b505050506040513d601f19601f820116820180604052508101906164139190617b44565b50915091505f8473ffffffffffffffffffffffffffffffffffffffff168a73ffffffffffffffffffffffffffffffffffffffff161490505f8161646657826dffffffffffffffffffffffffffff16616478565b836dffffffffffffffffffffffffffff165b90505f8261649657846dffffffffffffffffffffffffffff166164a8565b836dffffffffffffffffffffffffffff165b90506164b58b83836168a8565b98506164c28c8e8d61258f565b8215616585578773ffffffffffffffffffffffffffffffffffffffff1663022c0d9f5f8b8d5f67ffffffffffffffff81111561650157616500616f9b565b5b6040519080825280601f01601f1916602001820160405280156165335781602001600182028036833780820191505090505b506040518563ffffffff1660e01b81526004016165539493929190617c44565b5f604051808303815f87803b15801561656a575f5ffd5b505af115801561657c573d5f5f3e3d5ffd5b5050505061663e565b8773ffffffffffffffffffffffffffffffffffffffff1663022c0d9f8a5f8d5f67ffffffffffffffff8111156165be576165bd616f9b565b5b6040519080825280601f01601f1916602001820160405280156165f05781602001600182028036833780820191505090505b506040518563ffffffff1660e01b81526004016166109493929190617c8e565b5f604051808303815f87803b158015616627575f5ffd5b505af1158015616639573d5f5f3e3d5ffd5b505050505b5050505050505050949350505050565b5f5f61666f735c69bee701ef814a2b6a3edd4b1652cb9cc5aa6f8787615240565b90505f73ffffffffffffffffffffffffffffffffffffffff168173ffffffffffffffffffffffffffffffffffffffff16141580156166d957508373ffffffffffffffffffffffffffffffffffffffff168173ffffffffffffffffffffffffffffffffffffffff1614155b801561671157508273ffffffffffffffffffffffffffffffffffffffff168173ffffffffffffffffffffffffffffffffffffffff1614155b1561671f57809150506167f6565b5f61673f73c0aee478e3658e2610c5f7a4a2e1777ce9e4f2ac8888615240565b90505f73ffffffffffffffffffffffffffffffffffffffff168173ffffffffffffffffffffffffffffffffffffffff16141580156167a957508473ffffffffffffffffffffffffffffffffffffffff168173ffffffffffffffffffffffffffffffffffffffff1614155b80156167e157508373ffffffffffffffffffffffffffffffffffffffff168173ffffffffffffffffffffffffffffffffffffffff1614155b156167f05780925050506167f6565b5f925050505b949350505050565b5f5f8411801561680d57505f83115b801561681857508382115b616857576040517f08c379a000000000000000000000000000000000000000000000000000000000815260040161684e90617d22565b60405180910390fd5b60016103e585846168689190616e70565b6168729190617740565b6103e886866168819190617740565b61688b9190617740565b6168959190617698565b61689f9190617781565b90509392505050565b5f5f841180156168b757505f83115b80156168c257505f82115b616901576040517f08c379a00000000000000000000000000000000000000000000000000000000081526004016168f890617d22565b60405180910390fd5b5f6103e5856169109190617740565b9050806103e8856169219190617740565b61692b9190617781565b83826169379190617740565b6169419190617698565b9150509392505050565b604051806101000160405280600890602082028036833780820191505090505090565b5f5ffd5b5f5ffd5b5f73ffffffffffffffffffffffffffffffffffffffff82169050919050565b5f61699f82616976565b9050919050565b6169af81616995565b81146169b9575f5ffd5b50565b5f813590506169ca816169a6565b92915050565b5f819050919050565b6169e2816169d0565b81146169ec575f5ffd5b50565b5f813590506169fd816169d9565b92915050565b5f5ffd5b5f5ffd5b5f5ffd5b5f5f83601f840112616a2457616a23616a03565b5b8235905067ffffffffffffffff811115616a4157616a40616a07565b5b602083019150836001820283011115616a5d57616a5c616a0b565b5b9250929050565b5f5f5f5f5f60808688031215616a7d57616a7c61696e565b5b5f616a8a888289016169bc565b9550506020616a9b888289016169ef565b9450506040616aac888289016169ef565b935050606086013567ffffffffffffffff811115616acd57616acc616972565b5b616ad988828901616a0f565b92509250509295509295909350565b616af181616995565b82525050565b5f602082019050616b0a5f830184616ae8565b92915050565b616b19816169d0565b82525050565b5f602082019050616b325f830184616b10565b92915050565b5f5f5f5f60808587031215616b5057616b4f61696e565b5b5f616b5d878288016169ef565b9450506020616b6e878288016169ef565b9350506040616b7f878288016169ef565b9250506060616b90878288016169ef565b91505092959194509250565b5f5f5f60608486031215616bb357616bb261696e565b5b5f616bc0868287016169ef565b9350506020616bd1868287016169ef565b9250506040616be2868287016169ef565b9150509250925092565b5f82825260208201905092915050565b7f6261642073656e646572000000000000000000000000000000000000000000005f82015250565b5f616c30600a83616bec565b9150616c3b82616bfc565b602082019050919050565b5f6020820190508181035f830152616c5d81616c24565b9050919050565b7f62616420706169720000000000000000000000000000000000000000000000005f82015250565b5f616c98600883616bec565b9150616ca382616c64565b602082019050919050565b5f6020820190508181035f830152616cc581616c8c565b9050919050565b7f62616420616d6f756e74000000000000000000000000000000000000000000005f82015250565b5f616d00600a83616bec565b9150616d0b82616ccc565b602082019050919050565b5f6020820190508181035f830152616d2d81616cf4565b9050919050565b7f626164206d6f64650000000000000000000000000000000000000000000000005f82015250565b5f616d68600883616bec565b9150616d7382616d34565b602082019050919050565b5f6020820190508181035f830152616d9581616d5c565b9050919050565b7f62757379000000000000000000000000000000000000000000000000000000005f82015250565b5f616dd0600483616bec565b9150616ddb82616d9c565b602082019050919050565b5f6020820190508181035f830152616dfd81616dc4565b9050919050565b5f81519050616e12816169d9565b92915050565b5f60208284031215616e2d57616e2c61696e565b5b5f616e3a84828501616e04565b91505092915050565b7f4e487b71000000000000000000000000000000000000000000000000000000005f52601160045260245ffd5b5f616e7a826169d0565b9150616e85836169d0565b9250828203905081811115616e9d57616e9c616e43565b5b92915050565b7f73656c66206f6e6c7900000000000000000000000000000000000000000000005f82015250565b5f616ed7600983616bec565b9150616ee282616ea3565b602082019050919050565b5f6020820190508181035f830152616f0481616ecb565b9050919050565b5f81519050616f19816169a6565b92915050565b5f60208284031215616f3457616f3361696e565b5b5f616f4184828501616f0b565b91505092915050565b5f60a082019050616f5d5f830188616b10565b616f6a6020830187616b10565b616f776040830186616b10565b616f846060830185616b10565b616f916080830184616ae8565b9695505050505050565b7f4e487b71000000000000000000000000000000000000000000000000000000005f52604160045260245ffd5b7f4e487b71000000000000000000000000000000000000000000000000000000005f52603260045260245ffd5b5f81519050919050565b5f82825260208201905092915050565b5f819050602082019050919050565b617027816169d0565b82525050565b5f617038838361701e565b60208301905092915050565b5f602082019050919050565b5f61705a82616ff5565b6170648185616fff565b935061706f8361700f565b805f5b8381101561709f578151617086888261702d565b975061709183617044565b925050600181019050617072565b5085935050505092915050565b5f819050919050565b5f819050919050565b5f6170d86170d36170ce846170ac565b6170b5565b6169d0565b9050919050565b6170e8816170be565b82525050565b5f6060820190508181035f8301526171068186617050565b905061711560208301856170df565b6171226040830184616ae8565b949350505050565b7f6e6f206c700000000000000000000000000000000000000000000000000000005f82015250565b5f61715e600583616bec565b91506171698261712a565b602082019050919050565b5f6020820190508181035f83015261718b81617152565b9050919050565b5f6080820190506171a55f830187616b10565b6171b26020830186616b10565b6171bf60408301856170df565b6171cc6060830184616ae8565b95945050505050565b7f7374616c6520696e0000000000000000000000000000000000000000000000005f82015250565b5f617209600883616bec565b9150617214826171d5565b602082019050919050565b5f6020820190508181035f830152617236816171fd565b9050919050565b7f7374616c65206f757400000000000000000000000000000000000000000000005f82015250565b5f617271600983616bec565b915061727c8261723d565b602082019050919050565b5f6020820190508181035f83015261729e81617265565b9050919050565b7f73616d65206173736574000000000000000000000000000000000000000000005f82015250565b5f6172d9600a83616bec565b91506172e4826172a5565b602082019050919050565b5f6020820190508181035f830152617306816172cd565b9050919050565b7f6e6f206f757400000000000000000000000000000000000000000000000000005f82015250565b5f617341600683616bec565b915061734c8261730d565b602082019050919050565b5f6020820190508181035f83015261736e81617335565b9050919050565b7f72657061792073686f727466616c6c00000000000000000000000000000000005f82015250565b5f6173a9600f83616bec565b91506173b482617375565b602082019050919050565b5f6020820190508181035f8301526173d68161739d565b9050919050565b7f7374616c65206465706f736974000000000000000000000000000000000000005f82015250565b5f617411600d83616bec565b915061741c826173dd565b602082019050919050565b5f6020820190508181035f83015261743e81617405565b9050919050565b7f7374616c652077697468647261770000000000000000000000000000000000005f82015250565b5f617479600e83616bec565b915061748482617445565b602082019050919050565b5f6020820190508181035f8301526174a68161746d565b9050919050565b5f6040820190506174c05f830185616ae8565b6174cd6020830184616b10565b9392505050565b5f81519050919050565b5f81905092915050565b8281835e5f83830152505050565b5f617500826174d4565b61750a81856174de565b935061751a8185602086016174e8565b80840191505092915050565b5f61753182846174f6565b915081905092915050565b5f8115159050919050565b6175508161753c565b811461755a575f5ffd5b50565b5f8151905061756b81617547565b92915050565b5f602082840312156175865761758561696e565b5b5f6175938482850161755d565b91505092915050565b7f7472616e73666572206661696c656400000000000000000000000000000000005f82015250565b5f6175d0600f83616bec565b91506175db8261759c565b602082019050919050565b5f6020820190508181035f8301526175fd816175c4565b9050919050565b5f61760e826169d0565b91507fffffffffffffffffffffffffffffffffffffffffffffffffffffffffffffffff82036176405761763f616e43565b5b600182019050919050565b5f6020820190508181035f8301526176638184617050565b905092915050565b7f4e487b71000000000000000000000000000000000000000000000000000000005f52601260045260245ffd5b5f6176a2826169d0565b91506176ad836169d0565b9250826176bd576176bc61766b565b5b828204905092915050565b5f6080820190506176db5f830187616b10565b6176e86020830186616b10565b6176f56040830185616b10565b6177026060830184616b10565b95945050505050565b5f60608201905061771e5f830186616b10565b61772b6020830185616b10565b6177386040830184616b10565b949350505050565b5f61774a826169d0565b9150617755836169d0565b9250828202617763816169d0565b9150828204841483151761777a57617779616e43565b5b5092915050565b5f61778b826169d0565b9150617796836169d0565b92508282019050808211156177ae576177ad616e43565b5b92915050565b5f82825260208201905092915050565b7f01000000000000000000000000000000000000000000000000000000000000005f82015250565b5f6177f86001836177b4565b9150617803826177c4565b602082019050919050565b5f6080820190506178215f830186616b10565b61782e60208301856170df565b61783b6040830184616ae8565b818103606083015261784c816177ec565b9050949350505050565b5f6080820190506178695f8301866170df565b6178766020830185616b10565b6178836040830184616ae8565b8181036060830152617894816177ec565b9050949350505050565b7f70726f6669742062656c6f77207468726573686f6c64000000000000000000005f82015250565b5f6178d2601683616bec565b91506178dd8261789e565b602082019050919050565b5f6020820190508181035f8301526178ff816178c6565b9050919050565b7f6e6f2070726f66697400000000000000000000000000000000000000000000005f82015250565b5f61793a600983616bec565b915061794582617906565b602082019050919050565b5f6020820190508181035f8301526179678161792e565b9050919050565b5f60ff82169050919050565b5f61799461798f61798a846170ac565b6170b5565b61796e565b9050919050565b6179a48161797a565b82525050565b5f6040820190506179bd5f830185616ae8565b6179ca602083018461799b565b9392505050565b7f617070726f7665207265736574206661696c65640000000000000000000000005f82015250565b5f617a05601483616bec565b9150617a10826179d1565b602082019050919050565b5f6020820190508181035f830152617a32816179f9565b9050919050565b7f617070726f7665206661696c65640000000000000000000000000000000000005f82015250565b5f617a6d600e83616bec565b9150617a7882617a39565b602082019050919050565b5f6020820190508181035f830152617a9a81617a61565b9050919050565b5f604082019050617ab45f830185616ae8565b617ac16020830184616ae8565b9392505050565b5f6dffffffffffffffffffffffffffff82169050919050565b617aea81617ac8565b8114617af4575f5ffd5b50565b5f81519050617b0581617ae1565b92915050565b5f63ffffffff82169050919050565b617b2381617b0b565b8114617b2d575f5ffd5b50565b5f81519050617b3e81617b1a565b92915050565b5f5f5f60608486031215617b5b57617b5a61696e565b5b5f617b6886828701617af7565b9350506020617b7986828701617af7565b9250506040617b8a86828701617b30565b9150509250925092565b7f62616420726f75746500000000000000000000000000000000000000000000005f82015250565b5f617bc8600983616bec565b9150617bd382617b94565b602082019050919050565b5f6020820190508181035f830152617bf581617bbc565b9050919050565b5f601f19601f8301169050919050565b5f617c16826174d4565b617c2081856177b4565b9350617c308185602086016174e8565b617c3981617bfc565b840191505092915050565b5f608082019050617c575f8301876170df565b617c646020830186616b10565b617c716040830185616ae8565b8181036060830152617c838184617c0c565b905095945050505050565b5f608082019050617ca15f830187616b10565b617cae60208301866170df565b617cbb6040830185616ae8565b8181036060830152617ccd8184617c0c565b905095945050505050565b7f6261642071756f746500000000000000000000000000000000000000000000005f82015250565b5f617d0c600983616bec565b9150617d1782617cd8565b602082019050919050565b5f6020820190508181035f830152617d3981617d00565b905091905056fea2646970667358221220013a671a14d7de02443233161aa0980ece682af5aa43afb6209ff15f874c7a3564736f6c634300081e0033","linkReferences":{}},"methodIdentifiers":{"DAI()":"e0bab4c4","SUSHI_FACTORY()":"b753bb47","TARGET_POOL()":"181e0cc6","UNISWAP_V2_FACTORY()":"99d8fae3","USDC()":"89a30271","USDT()":"c54e44eb","WETH()":"ad5c4648","attemptDirectLp(uint256,uint256,uint256)":"f8a87759","attemptDirectSwapExactOut(uint256,uint256,uint256,uint256)":"e9c09c62","attemptFlashLp()":"42ab78f0","attemptFlashSwapExactOut()":"99d03669","executeOnOpportunity()":"3c2448ed","profitAmount()":"5ff972cc","profitToken()":"49343624","uniswapV2Call(address,uint256,uint256,bytes)":"10d1e85c"},"id":0}