{"abi":[{"type":"constructor","inputs":[],"stateMutability":"nonpayable"},{"type":"receive","stateMutability":"payable"},{"type":"function","name":"DEFAULT_PROFIT_TOKEN","inputs":[],"outputs":[{"name":"","type":"address","internalType":"address"}],"stateMutability":"view"},{"type":"function","name":"SEED_PAIR","inputs":[],"outputs":[{"name":"","type":"address","internalType":"address"}],"stateMutability":"view"},{"type":"function","name":"collateralToken","inputs":[],"outputs":[{"name":"","type":"address","internalType":"address"}],"stateMutability":"view"},{"type":"function","name":"debtToken","inputs":[],"outputs":[{"name":"","type":"address","internalType":"address"}],"stateMutability":"view"},{"type":"function","name":"executeOnOpportunity","inputs":[],"outputs":[],"stateMutability":"nonpayable"},{"type":"function","name":"executed","inputs":[],"outputs":[{"name":"","type":"bool","internalType":"bool"}],"stateMutability":"view"},{"type":"function","name":"exploitPath","inputs":[],"outputs":[{"name":"","type":"string","internalType":"string"}],"stateMutability":"pure"},{"type":"function","name":"exploitedPair","inputs":[],"outputs":[{"name":"","type":"address","internalType":"address"}],"stateMutability":"view"},{"type":"function","name":"exploitedSwapper","inputs":[],"outputs":[{"name":"","type":"address","internalType":"address"}],"stateMutability":"view"},{"type":"function","name":"hypothesisValidated","inputs":[],"outputs":[{"name":"","type":"bool","internalType":"bool"}],"stateMutability":"view"},{"type":"function","name":"liquidationHandler","inputs":[],"outputs":[{"name":"","type":"address","internalType":"address"}],"stateMutability":"view"},{"type":"function","name":"outcome","inputs":[],"outputs":[{"name":"","type":"string","internalType":"string"}],"stateMutability":"view"},{"type":"function","name":"pathAnchors","inputs":[],"outputs":[{"name":"","type":"string","internalType":"string"}],"stateMutability":"pure"},{"type":"function","name":"pathStage1RequiresExistingUndercollateralizedBorrower","inputs":[],"outputs":[{"name":"","type":"bool","internalType":"bool"}],"stateMutability":"view"},{"type":"function","name":"pathStage2RedeemCollateralRemovesRealAssets","inputs":[],"outputs":[{"name":"","type":"bool","internalType":"bool"}],"stateMutability":"view"},{"type":"function","name":"pathStage3CheckpointUsesCalcRewardIntegral","inputs":[],"outputs":[{"name":"","type":"bool","internalType":"bool"}],"stateMutability":"view"},{"type":"function","name":"pathStage4ExcessWriteOffCanDisappear","inputs":[],"outputs":[{"name":"","type":"bool","internalType":"bool"}],"stateMutability":"view"},{"type":"function","name":"pathStage5HoleEnablesLaterCollateralExit","inputs":[],"outputs":[{"name":"","type":"bool","internalType":"bool"}],"stateMutability":"view"},{"type":"function","name":"profitAchieved","inputs":[],"outputs":[{"name":"","type":"bool","internalType":"bool"}],"stateMutability":"view"},{"type":"function","name":"profitAmount","inputs":[],"outputs":[{"name":"","type":"uint256","internalType":"uint256"}],"stateMutability":"view"},{"type":"function","name":"profitToken","inputs":[],"outputs":[{"name":"","type":"address","internalType":"address"}],"stateMutability":"view"},{"type":"function","name":"redemptionHandler","inputs":[],"outputs":[{"name":"","type":"address","internalType":"address"}],"stateMutability":"view"},{"type":"function","name":"registry","inputs":[],"outputs":[{"name":"","type":"address","internalType":"address"}],"stateMutability":"view"},{"type":"function","name":"underlyingToken","inputs":[],"outputs":[{"name":"","type":"address","internalType":"address"}],"stateMutability":"view"}],"bytecode":{"object":"0x60808060405234603a575f80546001600160a01b0319167301144442fba7adccb5c9dc9cf33dd009d50a9e1d179055613792908161003f8239f35b5f80fdfe608080604052600436101561001c575b50361561001a575f80fd5b005b5f3560e01c9081630918a1241461092f575080632495a5991461090757806327793f87146108445780632bffd6181461081f57806331a38c89146107fd5780633c2448ed146107e5578063463defd1146107c057806349343624146107995780635ff972cc146107565780637889941d146107315780637943416f146107095780637a776c5d146106e45780637b103999146106b8578063b2016bd414610690578063b6f1a6471461066b578063ba5b12121461063d578063c4fbf5cb14610574578063c87b0ee31461054c578063cb707c6214610216578063d25adeb3146101ee578063e8673ef5146101c6578063f0a0117614610181578063f8d89898146101595763fbfb543814610130575f61000f565b34610155575f36600319011261015557602060ff60095460b81c166040519015158152f35b5f80fd5b34610155575f366003190112610155576003546040516001600160a01b039091168152602090f35b34610155575f366003190112610155575f546020906101a8906001600160a01b0316612019565b6001548082106101be575b506040519015158152f35b9050826101b3565b34610155575f366003190112610155576006546040516001600160a01b039091168152602090f35b34610155575f366003190112610155576007546040516001600160a01b039091168152602090f35b34610155575f366003190112610155576105486102a06102396040519182610993565b61027681527f616e2061747461636b6572206669727374206f70656e7320616e206561726c6960208201527f657220636f6c6c61746572616c697a656420706f736974696f6e2c207468656e60408201527f20637265617465732061207365636f6e64207072652d726564656d7074696f6e60608201527f20626f72726f7765722077697468206c617267657220626f72726f772073686160808201527f72657320616e64206d696e696d616c2072656d61696e696e672062756666657260a08201527f202d3e2072656465656d436f6c6c61746572616c2072656d6f766573206c697660c08201527f6520636f6c6c61746572616c2066726f6d20746865207061697220616e64206f60e08201527f6e6c79206d696e74732064656c6179656420726564656d7074696f6e577269746101008201527f654f66662072657761726473202d3e207768656e2074686520686967682d73686101208201527f61726520626f72726f776572206973206c6174657220636865636b706f696e746101408201527f6564207468726f7567682075736572436f6c6c61746572616c42616c616e63656101608201527f2c205f63616c63526577617264496e74656772616c282920616c6c6f636174656101808201527f732072546f6b656e7320627920626f72726f772073686172657320616e64205f6101a08201527f73796e6355736572526564656d7074696f6e73282920666c6f6f727320616e796101c08201527f206578636573732068616972637574206174207a65726f202d3e2061676772656101e08201527f67617465206163636f756e74696e672073746179732061626f7665207265616c6102008201527f20636f6c6c61746572616c20616e6420746865206561726c69657220617474616102208201527f636b657220706f736974696f6e2063616e207374696c6c206578697420636f6c6102408201527f6c61746572616c207468726f7567682072656d6f7665436f6c6c61746572616c610260820152750bdc995b5bdd9950dbdb1b185d195c985b15985d5b1d60521b610280820152604051918291826109c9565b0390f35b34610155575f366003190112610155576009546040516001600160a01b039091168152602090f35b34610155575f3660031901126101555761054860405161059560a082610993565b607b81527f72656465656d436f6c6c61746572616c20726564656d7074696f6e577269746560208201527f4f6666205f63616c63526577617264496e74656772616c205f73796e6355736560408201527f72526564656d7074696f6e732072546f6b656e732075736572436f6c6c61746560608201527f72616c42616c616e63652072656d6f7665436f6c6c61746572616c00000000006080820152604051918291826109c9565b34610155575f366003190112610155576020604051736e90c85a495d54c6d7e1f3400fef1f6e59f86bd68152f35b34610155575f36600319011261015557602060ff60095460c01c166040519015158152f35b34610155575f366003190112610155576004546040516001600160a01b039091168152602090f35b34610155575f3660031901126101555760025460405160109190911c6001600160a01b03168152602090f35b34610155575f36600319011261015557602060ff60095460b01c166040519015158152f35b34610155575f366003190112610155576008546040516001600160a01b039091168152602090f35b34610155575f36600319011261015557602060ff60095460a01c166040519015158152f35b34610155575f366003190112610155575f5460209061077d906001600160a01b0316612019565b6001548082111561079257505b604051908152f35b905061078a565b34610155575f366003190112610155575f546040516001600160a01b039091168152602090f35b34610155575f36600319011261015557602060ff60025460081c166040519015158152f35b34610155575f3660031901126101555761001a610a12565b34610155575f36600319011261015557602060ff600254166040519015158152f35b34610155575f36600319011261015557602060ff60095460a81c166040519015158152f35b34610155575f366003190112610155576040515f600a546108648161095b565b80845290600181169081156108e35750600114610898575b6105488361088c81850382610993565b604051918291826109c9565b919050600a5f525f51602061373d5f395f51905f52915f905b8082106108c95750909150810160200161088c61087c565b9192600181602092548385880101520191019092916108b1565b60ff191660208086019190915291151560051b8401909101915061088c905061087c565b34610155575f366003190112610155576005546040516001600160a01b039091168152602090f35b34610155575f36600319011261015557807301144442fba7adccb5c9dc9cf33dd009d50a9e1d60209252f35b90600182811c92168015610989575b602083101461097557565b634e487b7160e01b5f52602260045260245ffd5b91607f169161096a565b90601f8019910116810190811067ffffffffffffffff8211176109b557604052565b634e487b7160e01b5f52604160045260245ffd5b602060409281835280519182918282860152018484015e5f828201840152601f01601f1916010190565b9081602091031261015557516001600160a01b03811681036101555790565b60025460ff811661138b5760ff1981166001176002556009805464ffffffffff60a01b19169055604051637b10399960e01b815290602082600481736e90c85a495d54c6d7e1f3400fef1f6e59f86bd65afa8015611323576001925f9161136c575b50620100008360b01b039060101b169061ff018360b01b03191617178060025560018060a01b039060101c16604051637e062a3560e11b8152602081600481855afa908115611323575f9161134d575b50600380546001600160a01b0319166001600160a01b039290921691909117905560405163e8673ef560e01b8152602081600481855afa908115611323575f9161132e575b50600680546001600160a01b0319166001600160a01b039290921691909117905560405163d25adeb360e01b8152602081600481855afa908115611323575f916112f4575b5060018060a01b03166001600160601b0360a01b600754161760075560046020600192604051928380926323103b7d60e01b82525afa5f91816112c0575b50611288575b505f5b81811061124b575b5050610ba7611e9b565b60ff600154151561ff006002549160081b169061ff001916178060025560081c165f1461105857610bd9600a5461095b565b601f8111611005575b506103ed600a55600a5f527f76616c6964617465643a2061207072652d6578697374696e6720686967682d735f51602061373d5f395f51905f52557f6861726520626f72726f77657220776173206c656674207769746820746f6f207fc65a7bb8d6351c1cf70c95a316cc6a92839c986682d98bc35f958f4883f9d2a9557f6c6974746c6520636f6c6c61746572616c20627566666572206265666f7265207fc65a7bb8d6351c1cf70c95a316cc6a92839c986682d98bc35f958f4883f9d2aa557f726564656d7074696f6e2c2072656465656d436f6c6c61746572616c2072656d7fc65a7bb8d6351c1cf70c95a316cc6a92839c986682d98bc35f958f4883f9d2ab557f6f766564206c69766520636f6c6c61746572616c20616e64206d696e746564207fc65a7bb8d6351c1cf70c95a316cc6a92839c986682d98bc35f958f4883f9d2ac557f64656c6179656420726564656d7074696f6e57726974654f66662072657761727fc65a7bb8d6351c1cf70c95a316cc6a92839c986682d98bc35f958f4883f9d2ad557f64732c2075736572436f6c6c61746572616c42616c616e6365206c61746572207fc65a7bb8d6351c1cf70c95a316cc6a92839c986682d98bc35f958f4883f9d2ae557f726f75746564207468652077726974652d6f6666207468726f756768205f63617fc65a7bb8d6351c1cf70c95a316cc6a92839c986682d98bc35f958f4883f9d2af557f6c63526577617264496e74656772616c28292f5f73796e6355736572526564657fc65a7bb8d6351c1cf70c95a316cc6a92839c986682d98bc35f958f4883f9d2b0557f6d7074696f6e7328292c2074686520636865636b706f696e74656420626f72727fc65a7bb8d6351c1cf70c95a316cc6a92839c986682d98bc35f958f4883f9d2b1557f6f7765722077617320666c6f6f72656420746f207a65726f20736f20657863657fc65a7bb8d6351c1cf70c95a316cc6a92839c986682d98bc35f958f4883f9d2b2557f73732072546f6b656e732064697361707065617265642c20616e6420746865207fc65a7bb8d6351c1cf70c95a316cc6a92839c986682d98bc35f958f4883f9d2b3557f6f6c6465722061747461636b657220706f736974696f6e2065786974656420637fc65a7bb8d6351c1cf70c95a316cc6a92839c986682d98bc35f958f4883f9d2b4557f6f6c6c61746572616c207468726f7567682072656d6f7665436f6c6c617465727fc65a7bb8d6351c1cf70c95a316cc6a92839c986682d98bc35f958f4883f9d2b5557f616c2f72656d6f7665436f6c6c61746572616c5661756c7420616761696e73747fc65a7bb8d6351c1cf70c95a316cc6a92839c986682d98bc35f958f4883f9d2b65575206f766572737461746564206163636f756e74696e6760501b7fc65a7bb8d6351c1cf70c95a316cc6a92839c986682d98bc35f958f4883f9d2b755565b600a5f52601f0160051c5f51602061373d5f395f51905f52017fc65a7bb8d6351c1cf70c95a316cc6a92839c986682d98bc35f958f4883f9d2b85b81811061104d5750610be2565b5f8155600101611040565b611063600a5461095b565b601f81116111f8575b5061017d600a55600a5f527f756e7265616c697a6564206f6e207468697320666f726b3a206e6f20706169725f51602061373d5f395f51905f52557f20636f6d706c657465642074686520696e74656e6465642073657175656e63657fc65a7bb8d6351c1cf70c95a316cc6a92839c986682d98bc35f958f4883f9d2a9557f206f66207072652d706f736974696f6e656420626f72726f776572202d3e20727fc65a7bb8d6351c1cf70c95a316cc6a92839c986682d98bc35f958f4883f9d2aa557f6564656d7074696f6e202d3e2064656c617965642077726974652d6f666620637fc65a7bb8d6351c1cf70c95a316cc6a92839c986682d98bc35f958f4883f9d2ab557f6865636b706f696e74202d3e20646973636172646564206578636573732068617fc65a7bb8d6351c1cf70c95a316cc6a92839c986682d98bc35f958f4883f9d2ac557f6972637574202d3e206c6174657220636f6c6c61746572616c206578697400007fc65a7bb8d6351c1cf70c95a316cc6a92839c986682d98bc35f958f4883f9d2ad55565b600a5f52601f0160051c5f51602061373d5f395f51905f52017fc65a7bb8d6351c1cf70c95a316cc6a92839c986682d98bc35f958f4883f9d2ae5b818110611240575061106c565b5f8155600101611233565b6112548161138e565b6001600160a01b0381161561127f5761126c90611447565b61127a576001905b01610b95565b610b9d565b50600190611274565b9050600181018091116112ac57601081116112a4575b5f610b92565b50601061129e565b634e487b7160e01b5f52601160045260245ffd5b9091506020813d6020116112ec575b816112dc60209383610993565b810103126101555751905f610b8c565b3d91506112cf565b611316915060203d60201161131c575b61130e8183610993565b8101906109f3565b5f610b4e565b503d611304565b6040513d5f823e3d90fd5b611347915060203d60201161131c5761130e8183610993565b5f610b09565b611366915060203d60201161131c5761130e8183610993565b5f610ac4565b611385915060203d60201161131c5761130e8183610993565b5f610a74565b50565b80156114025760025460101c6001600160a01b0316905f1981019081116112ac5760209060246040518094819363163f8e0160e31b835260048301525afa5f91816113e1575b506113de57505f90565b90565b6113fb91925060203d60201161131c5761130e8183610993565b905f6113d4565b50736e90c85a495d54c6d7e1f3400fef1f6e59f86bd690565b51906001600160801b038216820361015557565b90816020910312610155575180151581036101555790565b6040516001600160a01b03821691905f610100820167ffffffffffffffff8111838210176109b5576040525f825260208201925f845260408301905f825260608401915f8352608085015f815260a08601905f825260c08701905f825260e08801905f8252600460208c60405192838092637b10399960e01b82525afa5f9181611e7a575b506114e1575050505050505050505050505f90565b60025460101c6001600160a01b03908116911603611e6b5760405163d8dfeb4560e01b8152906020826004818f5afa5f9281611e4a575b5061152d575050505050505050505050505f90565b6001600160a01b039091168952604051636f307dc360e01b8152906020826004818f5afa5f9281611e29575b5061156e575050505050505050505050505f90565b6001600160a01b039091168a526040516347a8754960e11b8152906020826004818f5afa5f9281611df5575b506115af575050505050505050505050505f90565b908552604051630463f1b360e11b8152906020826004818f5afa805f91611dc0575b60049350611db95750683635c9adc5dea0000088525b60405163ab7cfaf960e01b8152916020908390818f5afa5f9281611d85575b50611d7d575b50506040516393ae0df960e01b81526020816004818e5afa5f9181611d49575b506116405750505050505050505050505f90565b83526040805163020a17bd60e61b815290816004818e5afa5f9181611d00575b506116745750505050505050505050505f90565b6001600160801b0316825287518951611699916001600160a01b03918216911661208b565b15159052845115611cef575b51825111908115611ce3575b50611cd8576116c1858389612154565b15611cd85760405161058880820182811067ffffffffffffffff8211176109b55782916131b5833903905ff09283156113235761170086848a87612250565b15611ccc576009805460ff60a01b1916600160a01b17905581519051611727918986612352565b9080518210611c215760035460065460405163095ea7b360e01b81526001600160a01b0391821660048201525f19602482015291602091839160449183918b91165af18015611c16579061179394939291611be9575b505186516001600160a01b0316929091906124b2565b15611a9f576009805460ff60a81b1916600160a81b179055604051634fd422df60e01b81526001600160a01b03909116600482018190529082906020816024818a5afa849181611a6b575b50611a63575b5082906040516354b94c2f60e11b815287600482015260208160248188885af1859181611a2f575b50611a27575b5015159081611a0f575b81611a06575b506119ee575b82516001600160a01b0316813b156119b15760405163b8dc491b60e01b81526001600160a01b03919091166004820152306024820152828160448183865af180156119ce579083916119d9575b505083516001600160a01b0316813b156119b15760405163b8dc491b60e01b81526001600160a01b03919091166004820152306024820152828160448183865af180156119ce579083916119b5575b50506003546001600160a01b0316813b156119b15760405163b8dc491b60e01b81526001600160a01b039190911660048201523060248201529082908290604490829084905af180156119a65761198e575b505080518251611933916001600160a01b03918216911685612807565b519051600880546001600160a01b031990811690941790556004805484166001600160a01b03938416179055600580549093169116179055611973611e9b565b60ff60095460c01c1680156119855790565b50600154151590565b611999828092610993565b6119a35780611916565b80fd5b6040513d84823e3d90fd5b8280fd5b816119bf91610993565b6119ca57815f6118c4565b5080fd5b6040513d85823e3d90fd5b816119e391610993565b6119ca57815f611875565b6009805460ff60b81b1916600160b81b179055611828565b9050155f611822565b6009805460ff60b01b1916600160b01b17905561181c565b91505f611812565b9091506020813d602011611a5b575b81611a4b60209383610993565b810103126101555751905f61180c565b3d9150611a3e565b90505f6117e4565b9091506020813d602011611a97575b81611a8760209383610993565b810103126101555751905f6117de565b3d9150611a7a565b91519093506001600160a01b03918216929116823b15611be55760405163b8dc491b60e01b81526001600160a01b03919091166004820152306024820152838160448183875af18015611bda57908491611bc5575b5050516001600160a01b0316813b156119b15760405163b8dc491b60e01b81526001600160a01b039091166004820152306024820152828180604481015b038183865af180156119ce57908391611bb0575b50506003546001600160a01b0316813b156119b15760405163b8dc491b60e01b81526001600160a01b039190911660048201523060248201529082908290604490829084905af180156119a657908291611b9f57505090565b81611ba991610993565b6119a35790565b81611bba91610993565b6119ca57815f611b46565b81611bcf91610993565b6119b157825f611af4565b6040513d86823e3d90fd5b8380fd5b611c0a9060203d602011611c0f575b611c028183610993565b81019061142f565b61177d565b503d611bf8565b6040513d88823e3d90fd5b505092519194506001600160a01b0390811693925016823b156101555760405163b8dc491b60e01b81526001600160a01b039190911660048201523060248201525f8160448183875af1801561132357611cb7575b50516001600160a01b0316813b156119b15760405163b8dc491b60e01b81526001600160a01b03909116600482015230602482015282818060448101611b32565b611cc49193505f90610993565b5f915f611c76565b50505050505050505f90565b505050505050505f90565b9050518351115f6116b1565b683635c9adc5dea0000085526116a5565b9091506040813d604011611d41575b81611d1c60409383610993565b8101031261015557611d396020611d328361141b565b920161141b565b50905f611660565b3d9150611d0f565b9091506020813d602011611d75575b81611d6560209383610993565b810103126101555751905f61162c565b3d9150611d58565b525f8061160c565b9092506020813d602011611db1575b81611da160209383610993565b810103126101555751915f611606565b3d9150611d94565b88526115e7565b90506020833d602011611ded575b81611ddb60209383610993565b810103126101555760049251906115d1565b3d9150611dce565b9092506020813d602011611e21575b81611e1160209383610993565b810103126101555751915f61159a565b3d9150611e04565b611e4391935060203d60201161131c5761130e8183610993565b915f611559565b611e6491935060203d60201161131c5761130e8183610993565b915f611518565b50505050505050505050505f90565b611e9491925060203d60201161131c5761130e8183610993565b905f6114cc565b6004546001600160a01b0316611eb081612019565b9060018060a01b036005541690611ec682612019565b6003549092906001600160a01b0316611ede81612019565b6040516370a0823160e01b8152306004820152926020846024817301144442fba7adccb5c9dc9cf33dd009d50a9e1d5afa938415611323575f94611fe5575b505f546001549790966001600160a01b03881696909181151580611fdc575b611fd1575b505081151580611fc8575b611fbd575b505081151580611fb4575b611fa9575b5050838111611f8a575b506001600160a01b03166001600160a01b031991909116175f55600155565b92507301144442fba7adccb5c9dc9cf33dd009d50a9e1d90505f611f6b565b945091505f80611f61565b50858111611f5c565b965093505f80611f51565b50878111611f4c565b985095505f80611f41565b50898111611f3c565b9093506020813d602011612011575b8161200160209383610993565b810103126101555751925f611f1d565b3d9150611ff4565b6001600160a01b03168015612086576020602491604051928380926370a0823160e01b82523060048301525afa908115611323575f91612057575090565b90506020813d60201161207e575b8161207260209383610993565b81010312610155575190565b3d9150612065565b504790565b6001600160a01b0316908115801561211e575b801561210c575b612106576020600492604051938480926338d52e0f60e01b82525afa5f92816120e5575b506120d45750505f90565b6001600160a01b0391821691161490565b6120ff91935060203d60201161131c5761130e8183610993565b915f6120c9565b50505f90565b506001600160a01b03811682146120a5565b506001600160a01b0381161561209e565b9060088110156121405760051b0190565b634e487b7160e01b5f52603260045260245ffd5b6040519290916101006121678186610993565b36853760608201928351855283518060011b90808204600214901517156112ac57602086015283516003810290808204600314901517156112ac57604086015283516005810290808204600514901517156112ac57606086015260a083019460c88651046080820152606486510460a0820152603286510460c0820152601986510460e08201525f5b6008811061220357505050505050505f90565b612219612210828461212f565b51885190612a14565b865181106122475761222d90868686612a35565b61223b576001905b016121f0565b50505050505050600190565b50600190612235565b939291909161225e83612ac7565b9161010093604051946122718187610993565b3686378360021c85526005840460208601528360031c6040860152600a8404606086015260608301938451600a810290808204600a14901517156112ac57608087015284516005810290808204600514901517156112ac5760a087015284518060011b90808204600214901517156112ac5760c0870152845160e08701525f5b6008811061230557505f9750505050505050565b61231982612313838a61212f565b51612a14565b865181106123495761232e908686868d612b34565b61233c576001905b016122f1565b5060019750505050505050565b50600190612336565b9092919261235f81612ac7565b93610120604051906123718183610993565b3682378560021c81526005860460208201528560031c6040820152600a86046060820152600a8502851590868104600a148217156112ac576080830152600586028681046005148217156112ac5760a08301528560011b9086820460021417156112ac5760c08201528185018086116112ac5760e0820152846101008201525f5b6009811015611cd85761240b878260051b840151612a14565b86811080156124a9575b6124a057604051633b22018760e21b81526001600160a01b038616600482015260248101829052306044820152602081806064810103815f6001600160a01b038c165af1908115611323575f91612482575b5061247757506001905b016123f2565b965050505050505090565b61249a915060203d8111611c0f57611c028183610993565b5f612467565b50600190612471565b50838110612415565b9290926124be82612019565b9284106127ff576040516301e9a69560e41b60208201526001600160a01b038216602482015260448082018690528152612502906124fd606482610993565b612bca565b6127f357604051635c833bfd60e01b60208201526001600160a01b03821660248201526044810185905230606482015261254d906124fd81608481015b03601f198101835282610993565b6127f35760405163155aff6760e21b60208201526001600160a01b03821660248201526044810185905230606482015261258e906124fd816084810161253f565b6127f35760405163d9aa047360e01b60208201526001600160a01b038216602482015230604482018190526064820186905260848201526125d6906124fd8160a4810161253f565b6127f3576040516338f026a760e01b60208201526001600160a01b0382166024820152306044820181905260648201869052608482015261261e906124fd8160a4810161253f565b6127f3576040519361263160c086610993565b60c03686375f85526611c37937e080006020860152662386f26fc10000604086015266470de4df820000606086015266b1a2bc2ec50000608086015267016345785d8a000060a08601525f5b60068110156127e957600581901b8601516040516321de7d5b60e11b60208201526001600160a01b038516602482015260448101849052606481018290523060848201526126d2906124fd8160a4810161253f565b6127da57604051637eb6829360e11b60208201526001600160a01b0385166024820152604481018490526064810182905230608482015261271a906124fd8160a4810161253f565b6127da57604051639f6f6ba960e01b60208201526001600160a01b03851660248201523060448201819052606482018590526084820183905260a4820152612769906124fd8160c4810161253f565b6127da57604051637c696a7f60e01b60208201526001600160a01b0385166024820152306044820181905260648201859052608482019290925260a48101919091526127bc906124fd8160c4810161253f565b6127c85760010161267d565b5050506127d6919250612019565b1190565b505050506127d6919250612019565b5050505050505f90565b506127d6919250612019565b505050505f90565b604051635ad7983160e11b81523060048201529192916001600160a01b03909116906020816024815f865af15f91816129e0575b506128465750505050565b9283156129da5761285681612019565b9061286084612019565b926040519561287060e088610993565b60e0368837808752605f8102818104605f036112ac5760649004602088015260508102908082046050036112ac5760646014920460408901528060011c60608901528060021c6080890152600a810460a08901520460c08701525f5b6007811015612959578060051b87015180156129d157823b1561015557604051638049d97160e01b8152600481018290523060248201525f8160448183885af190816129c1575b506129b157823b1561015557604051636a0eee4b60e11b815260048101919091523060248201525f8160448183875af190816129a1575b50612959576001905b016128cc565b50506129689192939450612019565b1191821561298e575b505061297957565b6009805460ff60c01b1916600160c01b179055565b612999919250612019565b115f80612971565b5f6129ab91610993565b5f61294a565b5050506129689192939450612019565b5f6129cb91610993565b5f612913565b50600190612953565b50505050565b9091506020813d602011612a0c575b816129fc60209383610993565b810103126101555751905f61283b565b3d91506129ef565b8115612106578015612a315781811115612a2c575090565b905090565b5090565b91925f5b60088110612a4a5750505050505f90565b612a5381612c20565b612a5d8186612c84565b15612abe57612a6e83878388612d5c565b612a7d57506001905b01612a39565b94505050905060018060a01b03166001600160601b0360a01b600854161760085560018060a01b03166001600160601b0360a01b6009541617600955600190565b50600190612a77565b6040516393ae0df960e01b81525f9291602090829060049082906001600160a01b03165afa5f9181612b00575b50612afc5750565b9150565b9091506020813d602011612b2c575b81612b1c60209383610993565b810103126101555751905f612af4565b3d9150612b0f565b9390925f5b60088110612b4b575050505050505f90565b612b5481612c20565b612b5e8187612c84565b15612bc157612b70848483888b612f99565b612b7f57506001905b01612b39565b9550505050905060018060a01b03166001600160601b0360a01b600854161760085560018060a01b03166001600160601b0360a01b6009541617600955600190565b50600190612b79565b60065481515f92839260209091019083906001600160a01b03165af13d156113de573d67ffffffffffffffff81116109b55760405190612c14601f8201601f191660200183610993565b81525f60203d92013e90565b600254604051636928572760e01b815260048101929092525f9291906020908290602490829060101c6001600160a01b03165afa5f9181612c635750612afc5750565b612c7d91925060203d60201161131c5761130e8183610993565b905f612af4565b5f92916001600160a01b03168015612cea57604051634656bfdf60e11b8152600481019190915290602090829060249082906001600160a01b03165afa5f9181612cd05750612afc5750565b612c7d91925060203d602011611c0f57611c028183610993565b505f925050565b90602080835192838152019201905f5b818110612d0e5750505090565b82516001600160a01b0316845260209384019390920191600101612d01565b6113de939260a092600180851b0316825260208201525f60408201525f60608201528160808201520190612cf1565b825191929091612d74906001600160a01b03166130fe565b60208201518251919391612d94916001600160a01b03918216911661314a565b60405163d8dfeb4560e01b81526001600160a01b03909216929091602081600481875afa908115611323575f91612f49575b50604051636f307dc360e01b8152602081600481885afa908115611323575f91612f2a575b506001600160a01b03918216911614612f035760e0015115612ee0576020612e29916040518093819263140a7b6d60e31b8352898960048501612d2d565b03815f865af19081612eb1575b50612ea857612e60935f6020946040519687958694859363140a7b6d60e31b855260048501612d2d565b03925af19081612e79575b50612e74575f90565b600190565b6020813d602011612ea0575b81612e9260209383610993565b810103126101555751612e6b565b3d9150612e85565b50505050600190565b6020813d602011612ed8575b81612eca60209383610993565b810103126101555751612e36565b3d9150612ebd565b916020612e29916040518093819263140a7b6d60e31b8352898960048501612d2d565b5050612e60935f6020946040519687958694859363140a7b6d60e31b855260048501612d2d565b612f43915060203d60201161131c5761130e8183610993565b5f612deb565b612f62915060203d60201161131c5761130e8183610993565b5f612dc6565b6001600160a01b0391821681529116602082015260408101919091526080606082018190526113de92910190612cf1565b835190949193919290612fb4906001600160a01b03166130fe565b6020830151835191969160e091612fd7916001600160a01b03908116911661314a565b930151156130ae57604051630e68220360e21b81526001600160a01b03909116926020908290819061300f9088878b60048601612f68565b03815f875af1908115611323575f9161308f575b50613085575f60209461304c60405197889687958694630e68220360e21b865260048601612f68565b03925af1908115611323575f916130665750612e74575f90565b61307f915060203d602011611c0f57611c028183610993565b5f612e6b565b5050505050600190565b6130a8915060203d602011611c0f57611c028183610993565b5f613023565b604051630e68220360e21b815292956001600160a01b0390911692906020908290819061300f9088878b60048601612f68565b8051156121405760200190565b8051600110156121405760400190565b906040519161310e606084610993565b60028352604036602085013760035461313b9084906001600160a01b0316613135826130e1565b526130ee565b6001600160a01b039091169052565b919060405161315a608082610993565b600381526060366020830137600354909384916001600160a01b031661317f836130e1565b52613189826130ee565b6001600160a01b039091169052805160021015612140576001600160a01b039091166060919091015256fe608080604052346026575f80546001600160a01b0319163317905561055d908161002b8239f35b5f80fdfe6080604052600436101561001a575b3615610018575f80fd5b005b5f3560e01c806339a0880c1461023a578063a972985e14610189578063b8dc491b1461014b578063ec88061c146100805763f77c47910361000e573461007c575f36600319011261007c575f546040516001600160a01b039091168152602090f35b5f80fd5b3461007c57606036600319011261007c57610099610369565b6044356001600160a01b038116919082900361007c5760205f916100c760018060a01b038454163314610395565b60648394604051948593849263035af68360e61b84526024356004850152826024850152604484015260018060a01b03165af1908161011c575b50610114575b6020906040519015158152f35b506001610107565b6020813d602011610143575b81610135602093836103cf565b8101031261007c5751610101565b3d9150610128565b3461007c57604036600319011261007c57610018610167610369565b61016f61037f565b9061018460018060a01b035f54163314610395565b610405565b3461007c57602036600319011261007c575f6101a3610369565b6101b760018060a01b038354163314610395565b604051635ad7983160e11b815230600482015291906020908390602490829085906001600160a01b03165af1805f91610205575b602093506101fd575b50604051908152f35b9050826101f4565b90506020833d602011610232575b81610220602093836103cf565b8101031261007c5760209251906101eb565b3d9150610213565b3461007c57608036600319011261007c57610253610369565b61025b61037f565b6064359167ffffffffffffffff831161007c573660238401121561007c5782600401359267ffffffffffffffff841161007c573660248560051b8301011161007c5792916102b360018060a01b035f54163314610395565b5f938360405194859363140a7b6d60e31b855260a485019060018060a01b0316600486015260443560248601525f60448601525f606486015260a0608486015252602460c484019201905f905b808210610339575060209492849003928492505f91506001600160a01b03165af1908161011c5750610114576020906040519015158152f35b9193509183356001600160a01b038116919082900361007c57602081600193829352019401920185939291610300565b600435906001600160a01b038216820361007c57565b602435906001600160a01b038216820361007c57565b1561039c57565b60405162461bcd60e51b815260206004820152600b60248201526a10b1b7b73a3937b63632b960a91b6044820152606490fd5b90601f8019910116810190811067ffffffffffffffff8211176103f157604052565b634e487b7160e01b5f52604160045260245ffd5b6001600160a01b03169081156104f9576040516370a0823160e01b8152306004820152602081602481865afa9081156104bc575f916104c7575b508061044a57505050565b60405163a9059cbb60e01b81526001600160a01b039092166004830152602482015290602090829060449082905f905af180156104bc576104885750565b6020813d6020116104b4575b816104a1602093836103cf565b8101031261007c57518015150361007c57565b3d9150610494565b6040513d5f823e3d90fd5b90506020813d6020116104f1575b816104e2602093836103cf565b8101031261007c57515f61043f565b3d91506104d5565b5f80809350809247908290821561051d575b6001600160a01b031690f1156104bc57565b6108fc915061050b56fea264697066735822122020776b2f44bebe0eabe74e080b140f93a11f9b8db2349c3358fb0d30332267e864736f6c634300081e0033c65a7bb8d6351c1cf70c95a316cc6a92839c986682d98bc35f958f4883f9d2a8a26469706673582212207abfd32a9429340c6e0fe7a6500999b0410ff374a6c8023006270846f7ef61e964736f6c634300081e0033","linkReferences":{}},"methodIdentifiers":{"DEFAULT_PROFIT_TOKEN()":"0918a124","SEED_PAIR()":"ba5b1212","collateralToken()":"b2016bd4","debtToken()":"f8d89898","executeOnOpportunity()":"3c2448ed","executed()":"31a38c89","exploitPath()":"cb707c62","exploitedPair()":"7943416f","exploitedSwapper()":"c87b0ee3","hypothesisValidated()":"463defd1","liquidationHandler()":"d25adeb3","outcome()":"27793f87","pathAnchors()":"c4fbf5cb","pathStage1RequiresExistingUndercollateralizedBorrower()":"7889941d","pathStage2RedeemCollateralRemovesRealAssets()":"2bffd618","pathStage3CheckpointUsesCalcRewardIntegral()":"7a776c5d","pathStage4ExcessWriteOffCanDisappear()":"fbfb5438","pathStage5HoleEnablesLaterCollateralExit()":"b6f1a647","profitAchieved()":"f0a01176","profitAmount()":"5ff972cc","profitToken()":"49343624","redemptionHandler()":"e8673ef5","registry()":"7b103999","underlyingToken()":"2495a599"},"id":0}