{"abi":[{"type":"constructor","inputs":[],"stateMutability":"nonpayable"},{"type":"receive","stateMutability":"payable"},{"type":"function","name":"borrowTo","inputs":[{"name":"pair","type":"address","internalType":"address"},{"name":"borrowAmount","type":"uint256","internalType":"uint256"},{"name":"receiver","type":"address","internalType":"address"}],"outputs":[{"name":"ok","type":"bool","internalType":"bool"}],"stateMutability":"nonpayable"},{"type":"function","name":"checkpoint","inputs":[{"name":"pair","type":"address","internalType":"address"}],"outputs":[{"name":"amount","type":"uint256","internalType":"uint256"}],"stateMutability":"nonpayable"},{"type":"function","name":"controller","inputs":[],"outputs":[{"name":"","type":"address","internalType":"address"}],"stateMutability":"view"},{"type":"function","name":"openLeveragedPosition","inputs":[{"name":"pair","type":"address","internalType":"address"},{"name":"swapper","type":"address","internalType":"address"},{"name":"borrowAmount","type":"uint256","internalType":"uint256"},{"name":"path","type":"address[]","internalType":"address[]"}],"outputs":[{"name":"ok","type":"bool","internalType":"bool"}],"stateMutability":"nonpayable"},{"type":"function","name":"sweep","inputs":[{"name":"token","type":"address","internalType":"address"},{"name":"to","type":"address","internalType":"address"}],"outputs":[],"stateMutability":"nonpayable"}],"bytecode":{"object":"0x608080604052346026575f80546001600160a01b0319163317905561055d908161002b8239f35b5f80fdfe6080604052600436101561001a575b3615610018575f80fd5b005b5f3560e01c806339a0880c1461023a578063a972985e14610189578063b8dc491b1461014b578063ec88061c146100805763f77c47910361000e573461007c575f36600319011261007c575f546040516001600160a01b039091168152602090f35b5f80fd5b3461007c57606036600319011261007c57610099610369565b6044356001600160a01b038116919082900361007c5760205f916100c760018060a01b038454163314610395565b60648394604051948593849263035af68360e61b84526024356004850152826024850152604484015260018060a01b03165af1908161011c575b50610114575b6020906040519015158152f35b506001610107565b6020813d602011610143575b81610135602093836103cf565b8101031261007c5751610101565b3d9150610128565b3461007c57604036600319011261007c57610018610167610369565b61016f61037f565b9061018460018060a01b035f54163314610395565b610405565b3461007c57602036600319011261007c575f6101a3610369565b6101b760018060a01b038354163314610395565b604051635ad7983160e11b815230600482015291906020908390602490829085906001600160a01b03165af1805f91610205575b602093506101fd575b50604051908152f35b9050826101f4565b90506020833d602011610232575b81610220602093836103cf565b8101031261007c5760209251906101eb565b3d9150610213565b3461007c57608036600319011261007c57610253610369565b61025b61037f565b6064359167ffffffffffffffff831161007c573660238401121561007c5782600401359267ffffffffffffffff841161007c573660248560051b8301011161007c5792916102b360018060a01b035f54163314610395565b5f938360405194859363140a7b6d60e31b855260a485019060018060a01b0316600486015260443560248601525f60448601525f606486015260a0608486015252602460c484019201905f905b808210610339575060209492849003928492505f91506001600160a01b03165af1908161011c5750610114576020906040519015158152f35b9193509183356001600160a01b038116919082900361007c57602081600193829352019401920185939291610300565b600435906001600160a01b038216820361007c57565b602435906001600160a01b038216820361007c57565b1561039c57565b60405162461bcd60e51b815260206004820152600b60248201526a10b1b7b73a3937b63632b960a91b6044820152606490fd5b90601f8019910116810190811067ffffffffffffffff8211176103f157604052565b634e487b7160e01b5f52604160045260245ffd5b6001600160a01b03169081156104f9576040516370a0823160e01b8152306004820152602081602481865afa9081156104bc575f916104c7575b508061044a57505050565b60405163a9059cbb60e01b81526001600160a01b039092166004830152602482015290602090829060449082905f905af180156104bc576104885750565b6020813d6020116104b4575b816104a1602093836103cf565b8101031261007c57518015150361007c57565b3d9150610494565b6040513d5f823e3d90fd5b90506020813d6020116104f1575b816104e2602093836103cf565b8101031261007c57515f61043f565b3d91506104d5565b5f80809350809247908290821561051d575b6001600160a01b031690f1156104bc57565b6108fc915061050b56fea264697066735822122020776b2f44bebe0eabe74e080b140f93a11f9b8db2349c3358fb0d30332267e864736f6c634300081e0033","linkReferences":{}},"methodIdentifiers":{"borrowTo(address,uint256,address)":"ec88061c","checkpoint(address)":"a972985e","controller()":"f77c4791","openLeveragedPosition(address,address,uint256,address[])":"39a0880c","sweep(address,address)":"b8dc491b"},"id":0}