{"abi":[{"type":"constructor","inputs":[],"stateMutability":"nonpayable"},{"type":"receive","stateMutability":"payable"},{"type":"function","name":"TARGET","inputs":[],"outputs":[{"name":"","type":"address","internalType":"address"}],"stateMutability":"view"},{"type":"function","name":"executeOnOpportunity","inputs":[],"outputs":[],"stateMutability":"nonpayable"},{"type":"function","name":"executed","inputs":[],"outputs":[{"name":"","type":"bool","internalType":"bool"}],"stateMutability":"view"},{"type":"function","name":"exploitPathUsed","inputs":[],"outputs":[{"name":"","type":"string","internalType":"string"}],"stateMutability":"view"},{"type":"function","name":"hypothesisOutcome","inputs":[],"outputs":[{"name":"","type":"string","internalType":"string"}],"stateMutability":"view"},{"type":"function","name":"lastCallReturnData","inputs":[],"outputs":[{"name":"","type":"bytes","internalType":"bytes"}],"stateMutability":"view"},{"type":"function","name":"observedClaimDuration","inputs":[],"outputs":[{"name":"","type":"uint256","internalType":"uint256"}],"stateMutability":"view"},{"type":"function","name":"observedClaimStartTime","inputs":[],"outputs":[{"name":"","type":"uint256","internalType":"uint256"}],"stateMutability":"view"},{"type":"function","name":"observedClaimableAmount","inputs":[],"outputs":[{"name":"","type":"uint256","internalType":"uint256"}],"stateMutability":"view"},{"type":"function","name":"observedOwner","inputs":[],"outputs":[{"name":"","type":"address","internalType":"address"}],"stateMutability":"view"},{"type":"function","name":"onERC721Received","inputs":[{"name":"","type":"address","internalType":"address"},{"name":"","type":"address","internalType":"address"},{"name":"","type":"uint256","internalType":"uint256"},{"name":"","type":"bytes","internalType":"bytes"}],"outputs":[{"name":"","type":"bytes4","internalType":"bytes4"}],"stateMutability":"pure"},{"type":"function","name":"profitAchieved","inputs":[],"outputs":[{"name":"","type":"bool","internalType":"bool"}],"stateMutability":"view"},{"type":"function","name":"profitAmount","inputs":[],"outputs":[{"name":"","type":"uint256","internalType":"uint256"}],"stateMutability":"view"},{"type":"function","name":"profitToken","inputs":[],"outputs":[{"name":"","type":"address","internalType":"address"}],"stateMutability":"view"},{"type":"function","name":"uniswapV2Call","inputs":[{"name":"sender","type":"address","internalType":"address"},{"name":"amount0","type":"uint256","internalType":"uint256"},{"name":"amount1","type":"uint256","internalType":"uint256"},{"name":"data","type":"bytes","internalType":"bytes"}],"outputs":[],"stateMutability":"nonpayable"}],"bytecode":{"object":"0x6080604052348015600f57600080fd5b5061542a8061001f6000396000f3fe6080604052600436106100ec5760003560e01c80635ff972cc1161008a578063e0a5eebc11610059578063e0a5eebc14610293578063e5b39219146102a9578063f0a01176146102be578063fe1aac47146102db57600080fd5b80635ff972cc1461022157806379965d8b14610236578063cc1f2afa14610256578063d78c42811461027e57600080fd5b806331a38c89116100c657806331a38c89146101885780633abb0335146101b25780633c2448ed146101d457806349343624146101e957600080fd5b806310d1e85c146100f8578063150b7a021461011a5780631a733ddb1461016457600080fd5b366100f357005b600080fd5b34801561010457600080fd5b50610118610113366004613d58565b6102f1565b005b34801561012657600080fd5b50610146610135366004613dc2565b630a85bd0160e11b95945050505050565b6040516001600160e01b031990911681526020015b60405180910390f35b34801561017057600080fd5b5061017a60045481565b60405190815260200161015b565b34801561019457600080fd5b506000546101a29060ff1681565b604051901515815260200161015b565b3480156101be57600080fd5b506101c7610481565b60405161015b9190613e68565b3480156101e057600080fd5b50610118610582565b3480156101f557600080fd5b506000546201000090046001600160a01b03165b6040516001600160a01b03909116815260200161015b565b34801561022d57600080fd5b5060015461017a565b34801561024257600080fd5b50600654610209906001600160a01b031681565b34801561026257600080fd5b5061020973025c6da5bd0e6a5dd1350fda9e3b6a614b205a1f81565b34801561028a57600080fd5b506101c7610dab565b34801561029f57600080fd5b5061017a60055481565b3480156102b557600080fd5b506101c7610e3d565b3480156102ca57600080fd5b50600054610100900460ff166101a2565b3480156102e757600080fd5b5061017a60035481565b6008546001600160a01b031633146103425760405162461bcd60e51b815260206004820152600f60248201526e3ab732bc3832b1ba32b2103830b4b960891b60448201526064015b60405180910390fd5b6001600160a01b038516301461038e5760405162461bcd60e51b81526020600482015260116024820152703ab732bc3832b1ba32b21039b2b73232b960791b6044820152606401610339565b60008061039d83850185613faf565b91509150808614806103ae57508085145b6103ee5760405162461bcd60e51b8152602060048201526011602482015270756e657870656374656420626f72726f7760781b6044820152606401610339565b6103f88282610ecb565b610478828273025c6da5bd0e6a5dd1350fda9e3b6a614b205a1f6001600160a01b03166398d0e0c66040518163ffffffff1660e01b8152600401602060405180830381865afa15801561044f573d6000803e3d6000fd5b505050506040513d601f19601f8201168201806040525081019061047391906140aa565b6113de565b50505050505050565b60606000600260405161049491906140fb565b604051809103902090506040518060800160405280605e8152602001615397605e91398051906020012081036104e95750506040805180820190915260098152681d985b1a59185d195960ba1b602082015290565b600054610100900460ff161561051e5750506040805180820190915260098152681d985b1a59185d195960ba1b602082015290565b6002805461052b906140c7565b905060000361055c57505060408051808201909152600c81526b696e636f6e636c757369766560a01b602082015290565b505060408051808201909152600a815269696e6665617369626c6560b01b602082015290565b60005460ff161561058f57565b6000805461ff01600160b01b03191675c02aaa39b223fe8d0a0e5c4f27ead9083c756cc200011790556040805163a6a11bb160e01b8152905173025c6da5bd0e6a5dd1350fda9e3b6a614b205a1f91829163a6a11bb1916004808201926020929091908290030181865afa15801561060b573d6000803e3d6000fd5b505050506040513d601f19601f8201168201806040525081019061062f9190614170565b600481905550806001600160a01b031663ab1a4d946040518163ffffffff1660e01b8152600401602060405180830381865afa158015610673573d6000803e3d6000fd5b505050506040513d601f19601f820116820180604052508101906106979190614170565b600581905550806001600160a01b0316638da5cb5b6040518163ffffffff1660e01b8152600401602060405180830381865afa1580156106db573d6000803e3d6000fd5b505050506040513d601f19601f820116820180604052508101906106ff91906140aa565b600680546001600160a01b0319166001600160a01b03929092169190911790556005546004546000916107319161419f565b9050600454421015801561074457508042105b610773576040518060600160405280603081526020016152816030913960029061076e90826141f9565b505050565b600061077e8361191c565b8051602001519091506001600160a01b031615806107a857508051604001516001600160a01b0316155b156107d9576040518060600160405280603281526020016151d8603291396002906107d390826141f9565b50505050565b60208082015101516001600160a01b0316158061080557506020810151604001516001600160a01b0316155b15610830576040518060600160405280602a815260200161522a602a91396002906107d390826141f9565b80516060015115806108485750602081015160600151155b15610873576040518060800160405280604381526020016152f2604391396002906107d390826141f9565b6000610898826020015160400151836020015160200151846020015160800151611b53565b8251604081015160208201516080909201516108b49290611b53565b6108be919061419f565b6040516370a0823160e01b815230600482015290915060009060008051602061520a833981519152906370a0823190602401602060405180830381865afa15801561090d573d6000803e3d6000fd5b505050506040513d601f19601f820116820180604052508101906109319190614170565b905081811015801561094257508115155b156109c357610952836000610ecb565b6109bc856001600160a01b03166398d0e0c66040518163ffffffff1660e01b8152600401602060405180830381865afa158015610993573d6000803e3d6000fd5b505050506040513d601f19601f820116820180604052508101906109b791906140aa565b611bdd565b5050505050565b6109ef60008051602061520a83398151915273a0b86991c6218b36c1d19d4a2e9eb0ce3606eb48611d37565b6001600160a01b0316604085018190529050610a335760405180606001604052806026815260200161537160269139600290610a2b90826141f9565b505050505050565b6000818311610a43576000610a4d565b610a4d82846142b8565b604085810151600880546001600160a01b0319166001600160a01b0390921691821790558151630dfe168160e01b815291519293506000929091630dfe16819160048083019260209291908290030181865afa158015610ab1573d6000803e3d6000fd5b505050506040513d601f19601f82011682018060405250810190610ad591906140aa565b9050600085604001516001600160a01b031663d21220a76040518163ffffffff1660e01b8152600401602060405180830381865afa158015610b1b573d6000803e3d6000fd5b505050506040513d601f19601f82011682018060405250810190610b3f91906140aa565b90506001600160a01b03821660008051602061520a8339815191521480610b7c57506001600160a01b03811660008051602061520a833981519152145b610bb1576040518060600160405280602d8152602001615254602d9139600290610ba690826141f9565b505050505050505050565b60008684604051602001610bc6929190614312565b60408051601f198184030181529190529050606073c02aaa39b223fe8d0a0e5c4f27ead9083c756cc1196001600160a01b03851601610c595760405163022c0d9f60e01b90610c209087906000903090879060240161439d565b60408051601f198184030181529190526020810180516001600160e01b03166001600160e01b0319909316929092179091529050610caf565b60405163022c0d9f60e01b90610c7a906000908890309087906024016143da565b60408051601f198184030181529190526020810180516001600160e01b03166001600160e01b03199093169290921790915290505b60008089604001516001600160a01b031683604051610cce919061440a565b6000604051808303816000865af19150503d8060008114610d0b576040519150601f19603f3d011682016040523d82523d6000602084013e610d10565b606091505b509150915081610d5c576007610d2682826141f9565b506040518060600160405280603c8152602001615335603c9139600290610d4d90826141f9565b50505050505050505050505050565b610d9d8c6001600160a01b03166398d0e0c66040518163ffffffff1660e01b8152600401602060405180830381865afa158015610993573d6000803e3d6000fd5b505050505050505050505050565b606060028054610dba906140c7565b80601f0160208091040260200160405190810160405280929190818152602001828054610de6906140c7565b8015610e335780601f10610e0857610100808354040283529160200191610e33565b820191906000526020600020905b815481529060010190602001808311610e1657829003601f168201915b5050505050905090565b60078054610e4a906140c7565b80601f0160208091040260200160405190810160405280929190818152602001828054610e76906140c7565b8015610ec35780601f10610e9857610100808354040283529160200191610ec3565b820191906000526020600020905b815481529060010190602001808311610ea657829003601f168201915b505050505081565b81516080015115610ef457815160408101516020820151608090920151610ef29290611f32565b505b60208201516080015115610f2757610f25826020015160400151836020015160200151846020015160800151611f32565b505b81516080015115610f495781516020810151606090910151610f4991906121c2565b60208201516080015115610f7157610f718260200151602001518360200151606001516121c2565b610f7961241c565b60003073025c6da5bd0e6a5dd1350fda9e3b6a614b205a1f604051610f9d90613c41565b6001600160a01b03928316815291166020820152604001604051809103906000f080158015610fd0573d6000803e3d6000fd5b50604051633a6afc2560e01b815230600482015290915073025c6da5bd0e6a5dd1350fda9e3b6a614b205a1f90633a6afc2590602401602060405180830381865afa158015611023573d6000803e3d6000fd5b505050506040513d601f19601f820116820180604052508101906110479190614170565b60038190556000036110a55760405162461bcd60e51b815260206004820152602160248201527f696e76656e746f727920686173206e6f20636c61696d61626c6520616d6f756e6044820152601d60fa1b6064820152608401610339565b73025c6da5bd0e6a5dd1350fda9e3b6a614b205a1f6001600160a01b03166348c54b9d6040518163ffffffff1660e01b8152600401600060405180830381600087803b1580156110f457600080fd5b505af1158015611108573d6000803e3d6000fd5b505084515161111a9250905082612483565b60208301515161112a9082612483565b600080826001600160a01b0316637c63cf296111446125fc565b6040518263ffffffff1660e01b815260040161116291815260200190565b6000604051808303816000875af1158015611181573d6000803e3d6000fd5b505050506040513d6000823e601f3d908101601f191682016040526111a99190810190614426565b909250905060076111ba82826141f9565b50816111ec576040518060800160405280605e8152602001615397605e91396002906111e690826141f9565b50611214565b6040518060800160405280604181526020016152b16041913960029061121290826141f9565b505b826001600160a01b031663258836fe73025c6da5bd0e6a5dd1350fda9e3b6a614b205a1f6001600160a01b03166398d0e0c66040518163ffffffff1660e01b8152600401602060405180830381865afa158015611275573d6000803e3d6000fd5b505050506040513d601f19601f8201168201806040525081019061129991906140aa565b6040516001600160e01b031960e084901b1681526001600160a01b039091166004820152306024820152604401600060405180830381600087803b1580156112e057600080fd5b505af11580156112f4573d6000803e3d6000fd5b5050865151604051633e9fd99560e01b81526001600160a01b0391821660048201523060248201529086169250633e9fd9959150604401600060405180830381600087803b15801561134557600080fd5b505af1158015611359573d6000803e3d6000fd5b50505050602085015151604051633e9fd99560e01b81526001600160a01b03918216600482015230602482015290841690633e9fd99590604401600060405180830381600087803b1580156113ad57600080fd5b505af11580156113c1573d6000803e3d6000fd5b505050506113cd61241c565b836000036109bc576109bc85612657565b6113e783612657565b8251602001516001600160a01b03161561148f578251602001516040516370a0823160e01b81523060048201526000916001600160a01b0316906370a0823190602401602060405180830381865afa158015611447573d6000803e3d6000fd5b505050506040513d601f19601f8201168201806040525081019061146b9190614170565b9050801561148d578351604081015160209091015161148b919083612680565b505b505b60208084015101516001600160a01b03161561153e5760208381015101516040516370a0823160e01b81523060048201526000916001600160a01b0316906370a0823190602401602060405180830381865afa1580156114f3573d6000803e3d6000fd5b505050506040513d601f19601f820116820180604052508101906115179190614170565b9050801561153c5761153a84602001516040015185602001516020015183612680565b505b505b6000611549836129d3565b6040516370a0823160e01b815230600482015290915060009060008051602061520a833981519152906370a0823190602401602060405180830381865afa158015611598573d6000803e3d6000fd5b505050506040513d601f19601f820116820180604052508101906115bc9190614170565b905081811015611798576040516370a0823160e01b81523060048201526000906001600160a01b038516906370a0823190602401602060405180830381865afa15801561160d573d6000803e3d6000fd5b505050506040513d601f19601f820116820180604052508101906116319190614170565b9050801580159061164457506060860151515b15611796578560600151602001511561175157856060015160400151156116935761168d8473a0b86991c6218b36c1d19d4a2e9eb0ce3606eb48886060015160600151846129ff565b506116a8565b6116a68660600151608001518583612680565b505b6040516370a0823160e01b815230600482015260009073a0b86991c6218b36c1d19d4a2e9eb0ce3606eb48906370a0823190602401602060405180830381865afa1580156116fa573d6000803e3d6000fd5b505050506040513d601f19601f8201168201806040525081019061171e9190614170565b9050801561174b57611749876040015173a0b86991c6218b36c1d19d4a2e9eb0ce3606eb4883612680565b505b50611796565b856060015160400151156117815761174b8460008051602061520a833981519152886060015160600151846129ff565b6117948660600151608001518583612680565b505b505b6040516370a0823160e01b8152306004820152829060008051602061520a833981519152906370a0823190602401602060405180830381865afa1580156117e3573d6000803e3d6000fd5b505050506040513d601f19601f820116820180604052508101906118079190614170565b10156118555760405162461bcd60e51b815260206004820152601a60248201527f696e73756666696369656e74207765746820746f2072657061790000000000006044820152606401610339565b60085460405163a9059cbb60e01b81526001600160a01b0390911660048201526024810183905260008051602061520a8339815191529063a9059cbb906044016020604051808303816000875af11580156118b4573d6000803e3d6000fd5b505050506040513d601f19601f820116820180604052508101906118d891906144d2565b6109bc5760405162461bcd60e51b81526020600482015260156024820152741c995c185e481d1c985b9cd9995c8819985a5b1959605a1b6044820152606401610339565b611924613c4e565b6119f181836001600160a01b031663db1d0fd56040518163ffffffff1660e01b8152600401602060405180830381865afa158015611966573d6000803e3d6000fd5b505050506040513d601f19601f8201168201806040525081019061198a91906140aa565b846001600160a01b0316639faa3c916040518163ffffffff1660e01b8152600401602060405180830381865afa1580156119c8573d6000803e3d6000fd5b505050506040513d601f19601f820116820180604052508101906119ec91906140aa565b612ba2565b80516060015160181015611a0a57805160186060909101525b8051606081015160a090910151611a219190612d80565b81600001516080018181525050611a9981836001600160a01b031663b13739296040518163ffffffff1660e01b8152600401602060405180830381865afa158015611a70573d6000803e3d6000fd5b505050506040513d601f19601f82011682018060405250810190611a9491906140aa565b612da4565b60188160200151606001511115611ab857602081015160186060909101525b611ad2816020015160600151826020015160a00151612d80565b81602001516080018181525050611b49826001600160a01b03166398d0e0c66040518163ffffffff1660e01b8152600401602060405180830381865afa158015611b20573d6000803e3d6000fd5b505050506040513d601f19601f82011682018060405250810190611b4491906140aa565b612e0f565b6060820152919050565b600081600003611b6557506000611bd6565b600080611b728686612f5b565b9250925050808410611bc65760405162461bcd60e51b815260206004820152601960248201527f71756f746520616d6f756e744f757420746f6f206c61726765000000000000006044820152606401610339565b611bd1848383613169565b925050505b9392505050565b6040516370a0823160e01b815230600482015260009060008051602061520a833981519152906370a0823190602401602060405180830381865afa158015611c29573d6000803e3d6000fd5b505050506040513d601f19601f82011682018060405250810190611c4d9190614170565b90508015611c895760008054600192909255610100600160b01b031990911675c02aaa39b223fe8d0a0e5c4f27ead9083c756cc2010017905550565b6040516370a0823160e01b81523060048201526000906001600160a01b038416906370a0823190602401602060405180830381865afa158015611cd0573d6000803e3d6000fd5b505050506040513d601f19601f82011682018060405250810190611cf49190614170565b600080546001839055610100600160b01b031916620100006001600160a01b03969096169590950261ff0019169490941761010091151591909102179092555050565b60405163e6a4390560e01b81526001600160a01b038084166004830152821660248201526000908190819073c0aee478e3658e2610c5f7a4a2e1777ce9e4f2ac9063e6a4390590604401602060405180830381865afa158015611d9e573d6000803e3d6000fd5b505050506040513d601f19601f82011682018060405250810190611dc291906140aa565b60405163e6a4390560e01b81526001600160a01b03808816600483015286166024820152909150600090735c69bee701ef814a2b6a3edd4b1652cb9cc5aa6f9063e6a4390590604401602060405180830381865afa158015611e28573d6000803e3d6000fd5b505050506040513d601f19601f82011682018060405250810190611e4c91906140aa565b90506001600160a01b038216611e99576001600160a01b03811615611e8b57735c69bee701ef814a2b6a3edd4b1652cb9cc5aa6f93509150611f2b9050565b600080935093505050611f2b565b6001600160a01b038116611ec6575073c0aee478e3658e2610c5f7a4a2e1777ce9e4f2ac92509050611f2b565b6000611ed283876131ac565b90506000611ee083886131ac565b905081811115611f0d57735c69bee701ef814a2b6a3edd4b1652cb9cc5aa6f839550955050505050611f2b565b5073c0aee478e3658e2610c5f7a4a2e1777ce9e4f2ac945091925050505b9250929050565b600080600080611f428787612f5b565b91945092509050808510611f8e5760405162461bcd60e51b8152602060048201526013602482015272616d6f756e744f757420746f6f206c6172676560681b6044820152606401610339565b611f99858383613169565b60405163a9059cbb60e01b81526001600160a01b038981166004830152602482018390529195509084169063a9059cbb906044016020604051808303816000875af1158015611fec573d6000803e3d6000fd5b505050506040513d601f19601f8201168201806040525081019061201091906144d2565b6120515760405162461bcd60e51b81526020600482015260126024820152711d1c985b9cd9995c881a5b8819985a5b195960721b6044820152606401610339565b6000876001600160a01b0316630dfe16816040518163ffffffff1660e01b8152600401602060405180830381865afa158015612091573d6000803e3d6000fd5b505050506040513d601f19601f820116820180604052508101906120b591906140aa565b9050806001600160a01b0316876001600160a01b03160361214557604080516000808252602082019283905263022c0d9f60e01b9092526001600160a01b038a169163022c0d9f9161210e918a913090602481016144ef565b600060405180830381600087803b15801561212857600080fd5b505af115801561213c573d6000803e3d6000fd5b505050506121b7565b604080516000808252602082019283905263022c0d9f60e01b9092526001600160a01b038a169163022c0d9f9161218491908a903090602481016144ef565b600060405180830381600087803b15801561219e57600080fd5b505af11580156121b2573d6000803e3d6000fd5b505050505b505050509392505050565b6001600160a01b03821615806121d6575080155b156121df575050565b60408051600080825260208201909252906362506dcb60e11b612206848460448101614558565b604051602081830303815290604052906001600160e01b0319166020820180516001600160e01b03838183161783525050505090506000846001600160a01b031682604051612255919061440a565b6000604051808303816000865af19150503d8060008114612292576040519150601f19603f3d011682016040523d82523d6000602084013e612297565b606091505b50509050806109bc576040516370a0823160e01b815230600482015260009060008051602061520a833981519152906370a0823190602401602060405180830381865afa1580156122ec573d6000803e3d6000fd5b505050506040513d601f19601f820116820180604052508101906123109190614170565b9050801561237857604051632e1a7d4d60e01b81526004810182905260008051602061520a83398151915290632e1a7d4d90602401600060405180830381600087803b15801561235f57600080fd5b505af1158015612373573d6000803e3d6000fd5b505050505b856001600160a01b03164784604051612391919061440a565b60006040518083038185875af1925050503d80600081146123ce576040519150601f19603f3d011682016040523d82523d6000602084013e6123d3565b606091505b50508092505081610a2b5760405162461bcd60e51b81526020600482015260136024820152721d985d5b1d081c995919595b4819985a5b1959606a1b6044820152606401610339565b4780156124805760008051602061520a8339815191526001600160a01b031663d0e30db0826040518263ffffffff1660e01b81526004016000604051808303818588803b15801561246c57600080fd5b505af1158015610a2b573d6000803e3d6000fd5b50565b6001600160a01b03821615806124a057506001600160a01b038116155b156124a9575050565b815b6040516370a0823160e01b81523060048201526001600160a01b038216906370a0823190602401602060405180830381865afa1580156124ef573d6000803e3d6000fd5b505050506040513d601f19601f820116820180604052508101906125139190614170565b1561076e57604051632f745c5960e01b8152306004820152600060248201819052906001600160a01b03831690632f745c5990604401602060405180830381865afa158015612566573d6000803e3d6000fd5b505050506040513d601f19601f8201168201806040525081019061258a9190614170565b6040516323b872dd60e01b81523060048201526001600160a01b03858116602483015260448201839052919250908516906323b872dd90606401600060405180830381600087803b1580156125de57600080fd5b505af11580156125f2573d6000803e3d6000fd5b50505050506124ab565b600045620493e081111561261a57612617620493e0826142b8565b90505b60005a9050620493e08111801561263c5750612639620493e0826142b8565b82115b156126515761264e620493e0826142b8565b91505b50919050565b8051805160209091015161266b919061337c565b6020808201518051910151612480919061337c565b600080846001600160a01b0316630dfe16816040518163ffffffff1660e01b8152600401602060405180830381865afa1580156126c1573d6000803e3d6000fd5b505050506040513d601f19601f820116820180604052508101906126e591906140aa565b9050600080866001600160a01b0316630902f1ac6040518163ffffffff1660e01b8152600401606060405180830381865afa158015612728573d6000803e3d6000fd5b505050506040513d601f19601f8201168201806040525081019061274c919061458d565b50915091506000806000856001600160a01b0316896001600160a01b0316036127f057846001600160701b03169250836001600160701b03169150896001600160a01b031663d21220a76040518163ffffffff1660e01b8152600401602060405180830381865afa1580156127c5573d6000803e3d6000fd5b505050506040513d601f19601f820116820180604052508101906127e991906140aa565b9050612803565b50506001600160701b0380831691508316845b61280e8884846135f3565b60405163a9059cbb60e01b81526001600160a01b038c81166004830152602482018b9052919850908a169063a9059cbb906044016020604051808303816000875af1158015612861573d6000803e3d6000fd5b505050506040513d601f19601f8201168201806040525081019061288591906144d2565b6128c65760405162461bcd60e51b81526020600482015260126024820152711d1c985b9cd9995c881a5b8819985a5b195960721b6044820152606401610339565b856001600160a01b0316816001600160a01b03160361295457604080516000808252602082019283905263022c0d9f60e01b9092526001600160a01b038c169163022c0d9f9161291d918b913090602481016144ef565b600060405180830381600087803b15801561293757600080fd5b505af115801561294b573d6000803e3d6000fd5b505050506129c6565b604080516000808252602082019283905263022c0d9f60e01b9092526001600160a01b038c169163022c0d9f9161299391908b903090602481016144ef565b600060405180830381600087803b1580156129ad57600080fd5b505af11580156129c1573d6000803e3d6000fd5b505050505b5050505050509392505050565b60006103e56129e4836103e86145dd565b6129ee91906145f4565b6129f990600161419f565b92915050565b600081600003612a1157506000612b9a565b60405163095ea7b360e01b815273e592427a0aece92de3edee1f18e0157c058615646004820152602481018390526001600160a01b0386169063095ea7b3906044016020604051808303816000875af1158015612a72573d6000803e3d6000fd5b505050506040513d601f19601f82011682018060405250810190612a9691906144d2565b612ad35760405162461bcd60e51b815260206004820152600e60248201526d185c1c1c9bdd994819985a5b195960921b6044820152606401610339565b60408051610100810182526001600160a01b0380881682528616602082015262ffffff85168183015230606082015242608082015260a08101849052600060c0820181905260e0820152905163414bf38960e01b815273e592427a0aece92de3edee1f18e0157c058615649063414bf38990612b53908490600401614616565b6020604051808303816000875af1158015612b72573d6000803e3d6000fd5b505050506040513d601f19601f82011682018060405250810190612b969190614170565b9150505b949350505050565b600080600080612bb185613638565b9350935093509350600080600080612bc88a613638565b93509350935093506000612bdd888a886138af565b90506000612bec8587856138af565b9050600073025c6da5bd0e6a5dd1350fda9e3b6a614b205a1f6001600160a01b0316636fc334fc6040518163ffffffff1660e01b8152600401602060405180830381865afa158015612c42573d6000803e3d6000fd5b505050506040513d601f19601f82011682018060405250810190612c669190614170565b612c7090846145dd565b9050600073025c6da5bd0e6a5dd1350fda9e3b6a614b205a1f6001600160a01b0316639c1688ac6040518163ffffffff1660e01b8152600401602060405180830381865afa158015612cc6573d6000803e3d6000fd5b505050506040513d601f19601f82011682018060405250810190612cea9190614170565b612cf490846145dd565b9050808210612d38578e516001600160a01b03808c169091528f518d82166020909101528f51908c166040909101528e516060018490528e5160a001899052612d6f565b8e516001600160a01b038088169091528f518982166020909101528f519088166040909101528e516060018390528e5160a0018590525b505050505050505050505050505050565b6000821580612d8d575081155b15612d9a575060006129f9565b611bd682846145dd565b600080600080612db385613638565b6020808b0180516001600160a01b0380861690915281518188169301929092525190841660409091015292965090945092509050612df28385836138af565b6020909601805160600196909652945160a0019490945250505050565b6040805160a081018252600080825260208201819052918101829052606081018290526080810182905290612e528360008051602061520a833981519152613934565b905062ffffff811615612e78576001808352604083015262ffffff166060820152919050565b612e968373a0b86991c6218b36c1d19d4a2e9eb0ce3606eb48613934565b905062ffffff811615612ec357600180835260408301819052602083015262ffffff166060820152919050565b6000612edd8460008051602061520a833981519152611d37565b9150506001600160a01b03811615612f0757600183526001600160a01b0316608083015250919050565b6000612f278573a0b86991c6218b36c1d19d4a2e9eb0ce3606eb48611d37565b9150506001600160a01b03811615612f5357600180855260208501526001600160a01b03811660808501525b505050919050565b600080600080856001600160a01b0316630dfe16816040518163ffffffff1660e01b8152600401602060405180830381865afa158015612f9f573d6000803e3d6000fd5b505050506040513d601f19601f82011682018060405250810190612fc391906140aa565b90506000866001600160a01b031663d21220a76040518163ffffffff1660e01b8152600401602060405180830381865afa158015613005573d6000803e3d6000fd5b505050506040513d601f19601f8201168201806040525081019061302991906140aa565b9050816001600160a01b0316866001600160a01b0316148061305c5750806001600160a01b0316866001600160a01b0316145b61309f5760405162461bcd60e51b81526020600482015260146024820152733a37b5b2b727baba103737ba1034b7103830b4b960611b6044820152606401610339565b600080886001600160a01b0316630902f1ac6040518163ffffffff1660e01b8152600401606060405180830381865afa1580156130e0573d6000803e3d6000fd5b505050506040513d601f19601f82011682018060405250810190613104919061458d565b5091509150836001600160a01b0316886001600160a01b03160361314257829650806001600160701b03169550816001600160701b0316945061315e565b839650816001600160701b03169550806001600160701b031694505b505050509250925092565b600061317584836142b8565b613181906103e56145dd565b61318b85856145dd565b613197906103e86145dd565b6131a191906145f4565b612b9a90600161419f565b60006001600160a01b0383166131c4575060006129f9565b6000836001600160a01b0316630dfe16816040518163ffffffff1660e01b8152600401602060405180830381865afa158015613204573d6000803e3d6000fd5b505050506040513d601f19601f8201168201806040525081019061322891906140aa565b90506000846001600160a01b031663d21220a76040518163ffffffff1660e01b8152600401602060405180830381865afa15801561326a573d6000803e3d6000fd5b505050506040513d601f19601f8201168201806040525081019061328e91906140aa565b9050816001600160a01b0316846001600160a01b0316141580156132c45750806001600160a01b0316846001600160a01b031614155b156132d4576000925050506129f9565b600080866001600160a01b0316630902f1ac6040518163ffffffff1660e01b8152600401606060405180830381865afa158015613315573d6000803e3d6000fd5b505050506040513d601f19601f82011682018060405250810190613339919061458d565b5091509150836001600160a01b0316866001600160a01b03161461336657806001600160701b0316613371565b816001600160701b03165b979650505050505050565b6001600160a01b038216158061339957506001600160a01b038116155b156133a2575050565b6040516370a0823160e01b815230600482015282906000906001600160a01b038316906370a0823190602401602060405180830381865afa1580156133eb573d6000803e3d6000fd5b505050506040513d601f19601f8201168201806040525081019061340f9190614170565b90508060000361341f5750505050565b60008167ffffffffffffffff81111561343a5761343a613e7b565b604051908082528060200260200182016040528015613463578160200160208202803683370190505b50905060005b8281101561350557604051632f745c5960e01b8152306004820152602481018290526001600160a01b03851690632f745c5990604401602060405180830381865afa1580156134bc573d6000803e3d6000fd5b505050506040513d601f19601f820116820180604052508101906134e09190614170565b8282815181106134f2576134f2614693565b6020908102919091010152600101613469565b506040805160008082526020820190925260405163a22cb46560e01b81526001600160a01b038781166004830152600160248301529192509085169063a22cb46590604401600060405180830381600087803b15801561356457600080fd5b505af1158015613578573d6000803e3d6000fd5b5050604051630f57464360e21b81526001600160a01b0388169250633d5d190c91506135aa90859085906004016146a9565b6020604051808303816000875af19250505080156135e5575060408051601f3d908101601f191682019092526135e291810190614170565b60015b15610a2b5750505050505050565b600080613602856103e56145dd565b905080613611856103e86145dd565b61361b919061419f565b61362584836145dd565b61362f91906145f4565b95945050505050565b60008080806001600160a01b03851661365c575060009250829150819050806138a8565b600073be86f647b167567525ccaafcd6f881f1ee55821690506000816001600160a01b031663264a62086040518163ffffffff1660e01b8152600401602060405180830381865afa9250505080156136d1575060408051601f3d908101601f191682019092526136ce91810190614170565b60015b6136ea57600080600080955095509550955050506138a8565b905060008060005b838110156138a2576040516340d1b7db60e11b8152600481018290526000906001600160a01b038716906381a36fb690602401602060405180830381865afa92505050801561375e575060408051601f3d908101601f1916820190925261375b918101906140aa565b60015b613768575061389a565b90506001600160a01b03811661377e575061389a565b6000816001600160a01b0316631ba46cfd6040518163ffffffff1660e01b8152600401602060405180830381865afa9250505080156137da575060408051601f3d908101601f191682019092526137d7918101906140aa565b60015b6137e557505061389a565b90508b6001600160a01b0316816001600160a01b03161461380757505061389a565b60006138218360008051602061520a833981519152611d37565b9150506001600160a01b03811661383a5750505061389a565b6000613845856139da565b905060006138548386846138af565b9050600061386284876131ac565b90508882118061387b5750888214801561387b57508781115b1561389357819850809750859e50839d50849c50829b505b5050505050505b6001016136f2565b50505050505b9193509193565b60006001600160a01b03841615806138ce57506001600160a01b038316155b806138d7575081155b156138e457506000611bd6565b60006138f085856131ac565b9050828111613903576000915050611bd6565b60006139106001836142b8565b905061391e84612af86145dd565b61392a612710836145dd565b611bd191906145f4565b600080600061394685856101f4613b29565b9050816001600160801b0316816001600160801b0316111561396b578091506101f492505b600061397a8686610bb8613b29565b9050826001600160801b0316816001600160801b0316111561399f57809250610bb893505b60006139ae8787612710613b29565b9050836001600160801b0316816001600160801b031611156139d05761271094505b5050505092915050565b60408051602480820184905282518083039091018152604490910182526020810180516001600160e01b0316632206137960e01b1790529051670de0b6b3a764000091600091829173be86f647b167567525ccaafcd6f881f1ee55821691613a42919061440a565b600060405180830381855afa9150503d8060008114613a7d576040519150601f19603f3d011682016040523d82523d6000602084013e613a82565b606091505b5091509150811580613a95575060a08151105b15613aa1575050919050565b600080600080600085806020019051810190613abd91906146ce565b9398509196509450925090508480851115613ad55750835b80841115613ae05750825b80831115613aeb5750815b80821115613af65750805b670de0b6b3a7640000811115613b115750670de0b6b3a76400005b613b1b818a61419f565b9a9950505050505050505050565b604051630b4c774160e11b81526001600160a01b0380851660048301528316602482015262ffffff821660448201526000908190731f98431c8ad98523631ae4a59f267346ea31f98490631698ee8290606401602060405180830381865afa158015613b99573d6000803e3d6000fd5b505050506040513d601f19601f82011682018060405250810190613bbd91906140aa565b90506001600160a01b038116613bd7576000915050611bd6565b806001600160a01b0316631a6865026040518163ffffffff1660e01b8152600401602060405180830381865afa925050508015613c31575060408051601f3d908101601f19168201909252613c2e9181019061470e565b60015b15613c395791505b509392505050565b610aa08061473883390190565b6040518060800160405280613c61613cb0565b8152602001613c6e613cb0565b815260006020820152604001613cab6040805160a08101825260008082526020820181905291810182905260608101829052608081019190915290565b905290565b6040518060c0016040528060006001600160a01b0316815260200160006001600160a01b0316815260200160006001600160a01b031681526020016000815260200160008152602001600081525090565b6001600160a01b038116811461248057600080fd5b60008083601f840112613d2857600080fd5b50813567ffffffffffffffff811115613d4057600080fd5b602083019150836020828501011115611f2b57600080fd5b600080600080600060808688031215613d7057600080fd5b8535613d7b81613d01565b94506020860135935060408601359250606086013567ffffffffffffffff811115613da557600080fd5b613db188828901613d16565b969995985093965092949392505050565b600080600080600060808688031215613dda57600080fd5b8535613de581613d01565b94506020860135613df581613d01565b935060408601359250606086013567ffffffffffffffff811115613da557600080fd5b60005b83811015613e33578181015183820152602001613e1b565b50506000910152565b60008151808452613e54816020860160208601613e18565b601f01601f19169290920160200192915050565b602081526000611bd66020830184613e3c565b634e487b7160e01b600052604160045260246000fd5b6040516080810167ffffffffffffffff81118282101715613eb457613eb4613e7b565b60405290565b60405160a0810167ffffffffffffffff81118282101715613eb457613eb4613e7b565b604051601f8201601f1916810167ffffffffffffffff81118282101715613f0657613f06613e7b565b604052919050565b600060c08284031215613f2057600080fd5b60405160c0810167ffffffffffffffff81118282101715613f4357613f43613e7b565b6040529050808235613f5481613d01565b81526020830135613f6481613d01565b60208201526040830135613f7781613d01565b6040820152606083810135908201526080808401359082015260a092830135920191909152919050565b801515811461248057600080fd5b600080828403610260811215613fc457600080fd5b610240811215613fd357600080fd5b613fdb613e91565b613fe58686613f0e565b8152613ff48660c08701613f0e565b602082015261018085013561400881613d01565b604082015260a061019f198301121561402057600080fd5b614028613eba565b91506101a085013561403981613fa1565b82526101c085013561404a81613fa1565b60208301526101e085013561405e81613fa1565b604083015261020085013562ffffff8116811461407a57600080fd5b606083015261022085013561408e81613d01565b6080830152606081019190915294610240939093013593505050565b6000602082840312156140bc57600080fd5b8151611bd681613d01565b600181811c908216806140db57607f821691505b60208210810361265157634e487b7160e01b600052602260045260246000fd5b6000808354614109816140c7565b600182168015614120576001811461413557614165565b60ff1983168652811515820286019350614165565b86600052602060002060005b8381101561415d57815488820152600190910190602001614141565b505081860193505b509195945050505050565b60006020828403121561418257600080fd5b5051919050565b634e487b7160e01b600052601160045260246000fd5b808201808211156129f9576129f9614189565b601f82111561076e57806000526020600020601f840160051c810160208510156141d95750805b601f840160051c820191505b818110156109bc57600081556001016141e5565b815167ffffffffffffffff81111561421357614213613e7b565b6142278161422184546140c7565b846141b2565b6020601f82116001811461425b57600083156142435750848201515b600019600385901b1c1916600184901b1784556109bc565b600084815260208120601f198516915b8281101561428b578785015182556020948501946001909201910161426b565b50848210156142a95786840151600019600387901b60f8161c191681555b50505050600190811b01905550565b818103818111156129f9576129f9614189565b80516001600160a01b03908116835260208083015182169084015260408083015190911690830152606080820151908301526080808201519083015260a090810151910152565b6000610260820190506143268285516142cb565b602084015161433860c08401826142cb565b506040848101516001600160a01b03908116610180850152606095860151805115156101a0860152602081015115156101c08601529182015115156101e08501529481015162ffffff1661020084015260800151909316610220820152610240015290565b84815260ff841660208201526001600160a01b03831660408201526080606082018190526000906143d090830184613e3c565b9695505050505050565b60ff8516815283602082015260018060a01b03831660408201526080606082015260006143d06080830184613e3c565b6000825161441c818460208701613e18565b9190910192915050565b6000806040838503121561443957600080fd5b825161444481613fa1565b602084015190925067ffffffffffffffff81111561446157600080fd5b8301601f8101851361447257600080fd5b805167ffffffffffffffff81111561448c5761448c613e7b565b61449f601f8201601f1916602001613edd565b8181528660208385010111156144b457600080fd5b6144c5826020830160208601613e18565b8093505050509250929050565b6000602082840312156144e457600080fd5b8151611bd681613fa1565b84815283602082015260018060a01b03831660408201526080606082015260006143d06080830184613e3c565b600081518084526020840193506020830160005b8281101561454e578151865260209586019590910190600101614530565b5093949350505050565b828152604060208201526000612b9a604083018461451c565b80516001600160701b038116811461458857600080fd5b919050565b6000806000606084860312156145a257600080fd5b6145ab84614571565b92506145b960208501614571565b9150604084015163ffffffff811681146145d257600080fd5b809150509250925092565b80820281158282048414176129f9576129f9614189565b60008261461157634e487b7160e01b600052601260045260246000fd5b500490565b81516001600160a01b03908116825260208084015182169083015260408084015162ffffff169083015260608084015191821690830152610100820190506080830151608083015260a083015160a083015260c083015160c083015260e083015161468c60e08401826001600160a01b03169052565b5092915050565b634e487b7160e01b600052603260045260246000fd5b6040815260006146bc604083018561451c565b828103602084015261362f818561451c565b600080600080600060a086880312156146e657600080fd5b5050835160208501516040860151606087015160809097015192989197509594509092509050565b60006020828403121561472057600080fd5b81516001600160801b0381168114611bd657600080fdfe60c060405234801561001057600080fd5b50604051610aa0380380610aa083398101604081905261002f91610062565b6001600160a01b039182166080521660a052610095565b80516001600160a01b038116811461005d57600080fd5b919050565b6000806040838503121561007557600080fd5b61007e83610046565b915061008c60208401610046565b90509250929050565b60805160a0516109ca6100d660003960008181610189015261059201526000818161010c015281816101b601528181610382015261052101526109ca6000f3fe608060405234801561001057600080fd5b50600436106100885760003560e01c8063570ca7351161005b578063570ca735146101075780637c63cf2914610146578063ab30dcb614610167578063d4b839921461018457600080fd5b8063150b7a021461008d578063258836fe146100ca5780632e1b2cfa146100df5780633e9fd995146100f4575b600080fd5b6100ac61009b366004610644565b630a85bd0160e11b95945050505050565b6040516001600160e01b031990911681526020015b60405180910390f35b6100dd6100d83660046106e1565b6101ab565b005b6100e76102e9565b6040516100c19190610764565b6100dd6101023660046106e1565b610377565b61012e7f000000000000000000000000000000000000000000000000000000000000000081565b6040516001600160a01b0390911681526020016100c1565b61015961015436600461077e565b610512565b6040516100c1929190610797565b6000546101749060ff1681565b60405190151581526020016100c1565b61012e7f000000000000000000000000000000000000000000000000000000000000000081565b336001600160a01b037f000000000000000000000000000000000000000000000000000000000000000016146101fc5760405162461bcd60e51b81526004016101f3906107ba565b60405180910390fd5b6040516370a0823160e01b81523060048201526000906001600160a01b038416906370a0823190602401602060405180830381865afa158015610243573d6000803e3d6000fd5b505050506040513d601f19601f8201168201806040525081019061026791906107e0565b905080156102e45760405163a9059cbb60e01b81526001600160a01b0383811660048301526024820183905284169063a9059cbb906044016020604051808303816000875af11580156102be573d6000803e3d6000fd5b505050506040513d601f19601f820116820180604052508101906102e291906107f9565b505b505050565b600180546102f69061081b565b80601f01602080910402602001604051908101604052809291908181526020018280546103229061081b565b801561036f5780601f106103445761010080835404028352916020019161036f565b820191906000526020600020905b81548152906001019060200180831161035257829003601f168201915b505050505081565b336001600160a01b037f000000000000000000000000000000000000000000000000000000000000000016146103bf5760405162461bcd60e51b81526004016101f3906107ba565b815b6040516370a0823160e01b81523060048201526001600160a01b038216906370a0823190602401602060405180830381865afa158015610405573d6000803e3d6000fd5b505050506040513d601f19601f8201168201806040525081019061042991906107e0565b156102e457604051632f745c5960e01b8152306004820152600060248201819052906001600160a01b03831690632f745c5990604401602060405180830381865afa15801561047c573d6000803e3d6000fd5b505050506040513d601f19601f820116820180604052508101906104a091906107e0565b6040516323b872dd60e01b81523060048201526001600160a01b03858116602483015260448201839052919250908516906323b872dd90606401600060405180830381600087803b1580156104f457600080fd5b505af1158015610508573d6000803e3d6000fd5b50505050506103c1565b60006060336001600160a01b037f0000000000000000000000000000000000000000000000000000000000000000161461055e5760405162461bcd60e51b81526004016101f3906107ba565b60408051600481526024810182526020810180516001600160e01b03166348c54b9d60e01b17905290516001600160a01b037f0000000000000000000000000000000000000000000000000000000000000000169185916105bf9190610855565b60006040518083038160008787f1925050503d80600081146105fd576040519150601f19603f3d011682016040523d82523d6000602084013e610602565b606091505b506000805460ff19168315151790559092509050600161062282826108d5565b50915091565b80356001600160a01b038116811461063f57600080fd5b919050565b60008060008060006080868803121561065c57600080fd5b61066586610628565b945061067360208701610628565b935060408601359250606086013567ffffffffffffffff81111561069657600080fd5b8601601f810188136106a757600080fd5b803567ffffffffffffffff8111156106be57600080fd5b8860208284010111156106d057600080fd5b959894975092955050506020019190565b600080604083850312156106f457600080fd5b6106fd83610628565b915061070b60208401610628565b90509250929050565b60005b8381101561072f578181015183820152602001610717565b50506000910152565b60008151808452610750816020860160208601610714565b601f01601f19169290920160200192915050565b6020815260006107776020830184610738565b9392505050565b60006020828403121561079057600080fd5b5035919050565b82151581526040602082015260006107b26040830184610738565b949350505050565b6020808252600c908201526b3737ba1037b832b930ba37b960a11b604082015260600190565b6000602082840312156107f257600080fd5b5051919050565b60006020828403121561080b57600080fd5b8151801515811461077757600080fd5b600181811c9082168061082f57607f821691505b60208210810361084f57634e487b7160e01b600052602260045260246000fd5b50919050565b60008251610867818460208701610714565b9190910192915050565b634e487b7160e01b600052604160045260246000fd5b601f8211156102e457806000526020600020601f840160051c810160208510156108ae5750805b601f840160051c820191505b818110156108ce57600081556001016108ba565b5050505050565b815167ffffffffffffffff8111156108ef576108ef610871565b610903816108fd845461081b565b84610887565b6020601f821160018114610937576000831561091f5750848201515b600019600385901b1c1916600184901b1784556108ce565b600084815260208120601f198516915b828110156109675787850151825560209485019460019092019101610947565b50848210156109855786840151600019600387901b60f8161c191681555b50505050600190811b0190555056fea2646970667358221220db54103adc261bf53151b2f7ec297a6ebbe0f8f69cfeeb6b9d0a2bb659ebf36964736f6c634300081e0033696e6665617369626c653a6e6f5f7075626c69635f616c7068615f6f725f626574615f6c69717569646974795f726f757465000000000000000000000000c02aaa39b223fe8d0a0e5c4f27ead9083c756cc2696e6665617369626c653a6e6f5f7075626c69635f67616d6d615f6c69717569646974795f726f757465696e6665617369626c653a73656c65637465645f66756e64696e675f706169725f6d697373696e675f77657468696e6665617369626c653a636c61696d5f77696e646f775f6e6f745f6163746976655f61745f666f726b5f626c6f636b726566757465643a76696374696d5f636c61696d5f73756363656564735f61667465725f636c61696d65645f616e645f756e636c61696d65645f64757374696e67696e6665617369626c653a696e73756666696369656e745f7075626c69635f6c69717569646974795f666f725f636c61696d65645f647573745f696e76656e746f7279696e6665617369626c653a74656d706f726172795f6361706974616c5f726f7574655f63616e6e6f745f636f6d706c6574655f616e645f7265706179696e6665617369626c653a6e6f5f7075626c69635f776574685f66756e64696e675f7061697276616c6964617465643a61747461636b65725f636c61696d735f736565645f7468656e5f64757374735f76696374696d5f7468656e5f76696374696d5f636c61696d5f726576657274735f756e6465725f626c6f636b5f6761735f636170a264697066735822122022fd5814326484e71cebebcb55879cb1d0142822907b8f6f225dadf146a6abb464736f6c634300081e0033","linkReferences":{}},"methodIdentifiers":{"TARGET()":"cc1f2afa","executeOnOpportunity()":"3c2448ed","executed()":"31a38c89","exploitPathUsed()":"d78c4281","hypothesisOutcome()":"3abb0335","lastCallReturnData()":"e5b39219","observedClaimDuration()":"e0a5eebc","observedClaimStartTime()":"1a733ddb","observedClaimableAmount()":"fe1aac47","observedOwner()":"79965d8b","onERC721Received(address,address,uint256,bytes)":"150b7a02","profitAchieved()":"f0a01176","profitAmount()":"5ff972cc","profitToken()":"49343624","uniswapV2Call(address,uint256,uint256,bytes)":"10d1e85c"},"id":0}