{"abi":[{"type":"constructor","inputs":[{"name":"_operator","type":"address","internalType":"address"},{"name":"_target","type":"address","internalType":"address"}],"stateMutability":"nonpayable"},{"type":"function","name":"attemptClaim","inputs":[{"name":"gasLimit","type":"uint256","internalType":"uint256"}],"outputs":[{"name":"ok","type":"bool","internalType":"bool"},{"name":"data","type":"bytes","internalType":"bytes"}],"stateMutability":"nonpayable"},{"type":"function","name":"lastClaimData","inputs":[],"outputs":[{"name":"","type":"bytes","internalType":"bytes"}],"stateMutability":"view"},{"type":"function","name":"lastClaimOk","inputs":[],"outputs":[{"name":"","type":"bool","internalType":"bool"}],"stateMutability":"view"},{"type":"function","name":"onERC721Received","inputs":[{"name":"","type":"address","internalType":"address"},{"name":"","type":"address","internalType":"address"},{"name":"","type":"uint256","internalType":"uint256"},{"name":"","type":"bytes","internalType":"bytes"}],"outputs":[{"name":"","type":"bytes4","internalType":"bytes4"}],"stateMutability":"pure"},{"type":"function","name":"operator","inputs":[],"outputs":[{"name":"","type":"address","internalType":"address"}],"stateMutability":"view"},{"type":"function","name":"sweepCollection","inputs":[{"name":"collection","type":"address","internalType":"address"},{"name":"recipient","type":"address","internalType":"address"}],"outputs":[],"stateMutability":"nonpayable"},{"type":"function","name":"sweepToken","inputs":[{"name":"token","type":"address","internalType":"address"},{"name":"recipient","type":"address","internalType":"address"}],"outputs":[],"stateMutability":"nonpayable"},{"type":"function","name":"target","inputs":[],"outputs":[{"name":"","type":"address","internalType":"address"}],"stateMutability":"view"}],"bytecode":{"object":"0x60c060405234801561001057600080fd5b50604051610aa0380380610aa083398101604081905261002f91610062565b6001600160a01b039182166080521660a052610095565b80516001600160a01b038116811461005d57600080fd5b919050565b6000806040838503121561007557600080fd5b61007e83610046565b915061008c60208401610046565b90509250929050565b60805160a0516109ca6100d660003960008181610189015261059201526000818161010c015281816101b601528181610382015261052101526109ca6000f3fe608060405234801561001057600080fd5b50600436106100885760003560e01c8063570ca7351161005b578063570ca735146101075780637c63cf2914610146578063ab30dcb614610167578063d4b839921461018457600080fd5b8063150b7a021461008d578063258836fe146100ca5780632e1b2cfa146100df5780633e9fd995146100f4575b600080fd5b6100ac61009b366004610644565b630a85bd0160e11b95945050505050565b6040516001600160e01b031990911681526020015b60405180910390f35b6100dd6100d83660046106e1565b6101ab565b005b6100e76102e9565b6040516100c19190610764565b6100dd6101023660046106e1565b610377565b61012e7f000000000000000000000000000000000000000000000000000000000000000081565b6040516001600160a01b0390911681526020016100c1565b61015961015436600461077e565b610512565b6040516100c1929190610797565b6000546101749060ff1681565b60405190151581526020016100c1565b61012e7f000000000000000000000000000000000000000000000000000000000000000081565b336001600160a01b037f000000000000000000000000000000000000000000000000000000000000000016146101fc5760405162461bcd60e51b81526004016101f3906107ba565b60405180910390fd5b6040516370a0823160e01b81523060048201526000906001600160a01b038416906370a0823190602401602060405180830381865afa158015610243573d6000803e3d6000fd5b505050506040513d601f19601f8201168201806040525081019061026791906107e0565b905080156102e45760405163a9059cbb60e01b81526001600160a01b0383811660048301526024820183905284169063a9059cbb906044016020604051808303816000875af11580156102be573d6000803e3d6000fd5b505050506040513d601f19601f820116820180604052508101906102e291906107f9565b505b505050565b600180546102f69061081b565b80601f01602080910402602001604051908101604052809291908181526020018280546103229061081b565b801561036f5780601f106103445761010080835404028352916020019161036f565b820191906000526020600020905b81548152906001019060200180831161035257829003601f168201915b505050505081565b336001600160a01b037f000000000000000000000000000000000000000000000000000000000000000016146103bf5760405162461bcd60e51b81526004016101f3906107ba565b815b6040516370a0823160e01b81523060048201526001600160a01b038216906370a0823190602401602060405180830381865afa158015610405573d6000803e3d6000fd5b505050506040513d601f19601f8201168201806040525081019061042991906107e0565b156102e457604051632f745c5960e01b8152306004820152600060248201819052906001600160a01b03831690632f745c5990604401602060405180830381865afa15801561047c573d6000803e3d6000fd5b505050506040513d601f19601f820116820180604052508101906104a091906107e0565b6040516323b872dd60e01b81523060048201526001600160a01b03858116602483015260448201839052919250908516906323b872dd90606401600060405180830381600087803b1580156104f457600080fd5b505af1158015610508573d6000803e3d6000fd5b50505050506103c1565b60006060336001600160a01b037f0000000000000000000000000000000000000000000000000000000000000000161461055e5760405162461bcd60e51b81526004016101f3906107ba565b60408051600481526024810182526020810180516001600160e01b03166348c54b9d60e01b17905290516001600160a01b037f0000000000000000000000000000000000000000000000000000000000000000169185916105bf9190610855565b60006040518083038160008787f1925050503d80600081146105fd576040519150601f19603f3d011682016040523d82523d6000602084013e610602565b606091505b506000805460ff19168315151790559092509050600161062282826108d5565b50915091565b80356001600160a01b038116811461063f57600080fd5b919050565b60008060008060006080868803121561065c57600080fd5b61066586610628565b945061067360208701610628565b935060408601359250606086013567ffffffffffffffff81111561069657600080fd5b8601601f810188136106a757600080fd5b803567ffffffffffffffff8111156106be57600080fd5b8860208284010111156106d057600080fd5b959894975092955050506020019190565b600080604083850312156106f457600080fd5b6106fd83610628565b915061070b60208401610628565b90509250929050565b60005b8381101561072f578181015183820152602001610717565b50506000910152565b60008151808452610750816020860160208601610714565b601f01601f19169290920160200192915050565b6020815260006107776020830184610738565b9392505050565b60006020828403121561079057600080fd5b5035919050565b82151581526040602082015260006107b26040830184610738565b949350505050565b6020808252600c908201526b3737ba1037b832b930ba37b960a11b604082015260600190565b6000602082840312156107f257600080fd5b5051919050565b60006020828403121561080b57600080fd5b8151801515811461077757600080fd5b600181811c9082168061082f57607f821691505b60208210810361084f57634e487b7160e01b600052602260045260246000fd5b50919050565b60008251610867818460208701610714565b9190910192915050565b634e487b7160e01b600052604160045260246000fd5b601f8211156102e457806000526020600020601f840160051c810160208510156108ae5750805b601f840160051c820191505b818110156108ce57600081556001016108ba565b5050505050565b815167ffffffffffffffff8111156108ef576108ef610871565b610903816108fd845461081b565b84610887565b6020601f821160018114610937576000831561091f5750848201515b600019600385901b1c1916600184901b1784556108ce565b600084815260208120601f198516915b828110156109675787850151825560209485019460019092019101610947565b50848210156109855786840151600019600387901b60f8161c191681555b50505050600190811b0190555056fea2646970667358221220db54103adc261bf53151b2f7ec297a6ebbe0f8f69cfeeb6b9d0a2bb659ebf36964736f6c634300081e0033","linkReferences":{}},"methodIdentifiers":{"attemptClaim(uint256)":"7c63cf29","lastClaimData()":"2e1b2cfa","lastClaimOk()":"ab30dcb6","onERC721Received(address,address,uint256,bytes)":"150b7a02","operator()":"570ca735","sweepCollection(address,address)":"3e9fd995","sweepToken(address,address)":"258836fe","target()":"d4b83992"},"id":0}