{"abi":[{"type":"constructor","inputs":[],"stateMutability":"nonpayable"},{"type":"function","name":"TARGET","inputs":[],"outputs":[{"name":"","type":"address","internalType":"address"}],"stateMutability":"view"},{"type":"function","name":"executeOnOpportunity","inputs":[],"outputs":[],"stateMutability":"nonpayable"},{"type":"function","name":"exploitPathUsed","inputs":[],"outputs":[{"name":"","type":"string","internalType":"string"}],"stateMutability":"view"},{"type":"function","name":"failureReason","inputs":[],"outputs":[{"name":"","type":"string","internalType":"string"}],"stateMutability":"view"},{"type":"function","name":"hypothesisRefuted","inputs":[],"outputs":[{"name":"","type":"bool","internalType":"bool"}],"stateMutability":"view"},{"type":"function","name":"hypothesisValidated","inputs":[],"outputs":[{"name":"","type":"bool","internalType":"bool"}],"stateMutability":"view"},{"type":"function","name":"profitAchieved","inputs":[],"outputs":[{"name":"","type":"bool","internalType":"bool"}],"stateMutability":"view"},{"type":"function","name":"profitAmount","inputs":[],"outputs":[{"name":"","type":"uint256","internalType":"uint256"}],"stateMutability":"view"},{"type":"function","name":"profitToken","inputs":[],"outputs":[{"name":"","type":"address","internalType":"address"}],"stateMutability":"view"},{"type":"function","name":"recoverStageReached","inputs":[],"outputs":[{"name":"","type":"bool","internalType":"bool"}],"stateMutability":"view"},{"type":"function","name":"selectedDepositId","inputs":[],"outputs":[{"name":"","type":"uint256","internalType":"uint256"}],"stateMutability":"view"},{"type":"function","name":"selectedVictim","inputs":[],"outputs":[{"name":"","type":"address","internalType":"address"}],"stateMutability":"view"},{"type":"function","name":"targetOwner","inputs":[],"outputs":[{"name":"","type":"address","internalType":"address"}],"stateMutability":"view"},{"type":"function","name":"victimIndexCleared","inputs":[],"outputs":[{"name":"","type":"bool","internalType":"bool"}],"stateMutability":"view"}],"bytecode":{"object":"0x6080604052348015600e575f5ffd5b506131398061001c5f395ff3fe608060405234801561000f575f5ffd5b50600436106100e8575f3560e01c80634f9522a41161008a578063cc1f2afa11610064578063cc1f2afa14610204578063cd0e34ee14610222578063d78c428114610240578063f0a011761461025e576100e8565b80634f9522a4146101aa5780635ff972cc146101c8578063a0b93731146101e6576100e8565b8063463defd1116100c6578063463defd11461013257806347e59f1414610150578063493436241461016e578063495f92f11461018c576100e8565b806334c7f894146100ec5780633c2448ed1461010a578063416cc55914610114575b5f5ffd5b6100f461027c565b60405161010191906124aa565b60405180910390f35b6101126102a2565b005b61011c6105a2565b60405161012991906124db565b60405180910390f35b61013a6105a8565b604051610147919061250e565b60405180910390f35b6101586105ba565b60405161016591906124aa565b60405180910390f35b6101766105df565b60405161018391906124aa565b60405180910390f35b610194610606565b6040516101a1919061250e565b60405180910390f35b6101b2610619565b6040516101bf9190612597565b60405180910390f35b6101d06106a5565b6040516101dd91906124db565b60405180910390f35b6101ee6106ae565b6040516101fb919061250e565b60405180910390f35b61020c6106c1565b60405161021991906124aa565b60405180910390f35b61022a6106d9565b604051610237919061250e565b60405180910390f35b6102486106ec565b6040516102559190612597565b60405180910390f35b610266610778565b604051610273919061250e565b60405180910390f35b600260059054906101000a900473ffffffffffffffffffffffffffffffffffffffff1681565b6102aa610789565b5f6102b3610915565b90505f73ffffffffffffffffffffffffffffffffffffffff16815f015173ffffffffffffffffffffffffffffffffffffffff160361034e57600160025f6101000a81548160ff0219169083151502179055506001600260016101000a81548160ff021916908315150217905550604051806060016040528060218152602001612e99602191396006908161034791906127e1565b50506105a0565b5f61035b825f0151610b8f565b90505f8151036103c957600160025f6101000a81548160ff0219169083151502179055506001600260016101000a81548160ff02191690831515021790555060405180606001604052806023815260200161304860239139600690816103c191906127e1565b5050506105a0565b815f015160035f6101000a81548173ffffffffffffffffffffffffffffffffffffffff021916908373ffffffffffffffffffffffffffffffffffffffff16021790555081602001516004819055506040518060c0016040528060868152602001612f2d608691396005908161043e91906127e1565b505f5f5f61044b84610e2c565b92509250925061045e855f015130611083565b6104a0575f60025f6101000a81548160ff0219169083151502179055506001600260016101000a81548160ff02191690831515021790555050505050506105a0565b6001600260036101000a81548160ff0219169083151502179055506104c7855f01516119f2565b600260046101000a81548160ff0219169083151502179055506104e984611a96565b6104f4838383611b69565b600160025f6101000a81548160ff0219169083151502179055505f600260016101000a81548160ff02191690831515021790555060028054906101000a900460ff1661059a5784606001516105705760405180608001604052806054815260200161306b605491396006908161056a91906127e1565b50610599565b6040518060800160405280604581526020016130bf604591396006908161059791906127e1565b505b5b50505050505b565b60045481565b60025f9054906101000a900460ff1681565b60035f9054906101000a900473ffffffffffffffffffffffffffffffffffffffff1681565b5f5f5f9054906101000a900473ffffffffffffffffffffffffffffffffffffffff16905090565b600260019054906101000a900460ff1681565b6006805461062690612611565b80601f016020809104026020016040519081016040528092919081815260200182805461065290612611565b801561069d5780601f106106745761010080835404028352916020019161069d565b820191905f5260205f20905b81548152906001019060200180831161068057829003601f168201915b505050505081565b5f600154905090565b600260039054906101000a900460ff1681565b73e2fe530c047f2d85298b07d9333c05737f1435fb81565b600260049054906101000a900460ff1681565b600580546106f990612611565b80601f016020809104026020016040519081016040528092919081815260200182805461072590612611565b80156107705780601f1061074757610100808354040283529160200191610770565b820191905f5260205f20905b81548152906001019060200180831161075357829003601f168201915b505050505081565b60028054906101000a900460ff1681565b5f5f5f6101000a81548173ffffffffffffffffffffffffffffffffffffffff021916908373ffffffffffffffffffffffffffffffffffffffff1602179055505f6001819055505f60025f6101000a81548160ff0219169083151502179055505f600260016101000a81548160ff0219169083151502179055505f6002806101000a81548160ff0219169083151502179055505f600260036101000a81548160ff0219169083151502179055505f600260046101000a81548160ff0219169083151502179055505f600260056101000a81548173ffffffffffffffffffffffffffffffffffffffff021916908373ffffffffffffffffffffffffffffffffffffffff1602179055505f60035f6101000a81548173ffffffffffffffffffffffffffffffffffffffff021916908373ffffffffffffffffffffffffffffffffffffffff1602179055505f60048190555060405180602001604052805f815250600590816108f491906127e1565b5060405180602001604052805f8152506006908161091291906127e1565b50565b61091d6123c7565b606073e2fe530c047f2d85298b07d9333c05737f1435fb73ffffffffffffffffffffffffffffffffffffffff16636ba039246040518163ffffffff1660e01b81526004015f60405180830381865afa92505050801561099e57506040513d5f823e3d601f19601f8201168201806040525081019061099b91906129fe565b60015b6109a85750610b8c565b809150505f5f90505b8151811015610b89575f6109de8383815181106109d1576109d0612a45565b5b6020026020010151611c86565b9050806080015180610a1f57505f73ffffffffffffffffffffffffffffffffffffffff16816020015173ffffffffffffffffffffffffffffffffffffffff16145b15610a2a5750610b7e565b8360800151610aa4578060200151845f019073ffffffffffffffffffffffffffffffffffffffff16908173ffffffffffffffffffffffffffffffffffffffff1681525050828281518110610a8157610a80612a45565b5b602002602001015184602001818152505060018460800190151590811515815250505b8060a00151158015610aba575042816060015111155b8015610ac957505f8160400151115b15610b7c5783606001511580610ae6575083604001518160400151115b15610b7b578060200151845f019073ffffffffffffffffffffffffffffffffffffffff16908173ffffffffffffffffffffffffffffffffffffffff1681525050828281518110610b3957610b38612a45565b5b60200260200101518460200181815250508060400151846040018181525050600184606001901515908115158152505060018460800190151590811515815250505b5b505b8060010190506109b1565b50505b90565b60608073e2fe530c047f2d85298b07d9333c05737f1435fb73ffffffffffffffffffffffffffffffffffffffff16636ba039246040518163ffffffff1660e01b81526004015f60405180830381865afa925050508015610c1157506040513d5f823e3d601f19601f82011682018060405250810190610c0e91906129fe565b60015b610c66575f67ffffffffffffffff811115610c2f57610c2e6125b7565b5b604051908082528060200260200182016040528015610c5d5781602001602082028036833780820191505090505b50915050610e27565b809150505f5f90505f5f90505b8251811015610d03575f610ca0848381518110610c9357610c92612a45565b5b6020026020010151611c86565b90508060800151158015610ce357508573ffffffffffffffffffffffffffffffffffffffff16816020015173ffffffffffffffffffffffffffffffffffffffff16145b15610cf7578280610cf390612a9f565b9350505b50806001019050610c73565b508067ffffffffffffffff811115610d1e57610d1d6125b7565b5b604051908082528060200260200182016040528015610d4c5781602001602082028036833780820191505090505b5092505f5f90505f5f90505b8351811015610e22575f610d85858381518110610d7857610d77612a45565b5b6020026020010151611c86565b90508060800151158015610dc857508673ffffffffffffffffffffffffffffffffffffffff16816020015173ffffffffffffffffffffffffffffffffffffffff16145b15610e1657848281518110610de057610ddf612a45565b5b6020026020010151868481518110610dfb57610dfa612a45565b5b6020026020010181815250508280610e1290612a9f565b9350505b50806001019050610d58565b505050505b919050565b6060805f835167ffffffffffffffff811115610e4b57610e4a6125b7565b5b604051908082528060200260200182016040528015610e795781602001602082028036833780820191505090505b509250835167ffffffffffffffff811115610e9757610e966125b7565b5b604051908082528060200260200182016040528015610ec55781602001602082028036833780820191505090505b5091505f5f90505b845181101561107b575f610efa868381518110610eed57610eec612a45565b5b6020026020010151611c86565b90508060a0015180610f0d575080608001515b80610f1b5750428160600151115b80610f5457505f73ffffffffffffffffffffffffffffffffffffffff16815f015173ffffffffffffffffffffffffffffffffffffffff16145b15610f5f5750611070565b5f5f90505f5f90505b84811015610fd457825f015173ffffffffffffffffffffffffffffffffffffffff16878281518110610f9d57610f9c612a45565b5b602002602001015173ffffffffffffffffffffffffffffffffffffffff1603610fc95760019150610fd4565b806001019050610f68565b508015610fe2575050611070565b815f0151868581518110610ff957610ff8612a45565b5b602002602001019073ffffffffffffffffffffffffffffffffffffffff16908173ffffffffffffffffffffffffffffffffffffffff1681525050611040825f015130611dcd565b85858151811061105357611052612a45565b5b602002602001018181525050838061106a90612a9f565b94505050505b806001019050610ecd565b509193909250565b5f61108c611e58565b600260056101000a81548173ffffffffffffffffffffffffffffffffffffffff021916908373ffffffffffffffffffffffffffffffffffffffff1602179055503073ffffffffffffffffffffffffffffffffffffffff16600260059054906101000a900473ffffffffffffffffffffffffffffffffffffffff1673ffffffffffffffffffffffffffffffffffffffff16036111425761112b8383611ee9565b156111415761113a8383611fe4565b90506119ec565b5b61114a612137565b611152611e58565b600260056101000a81548173ffffffffffffffffffffffffffffffffffffffff021916908373ffffffffffffffffffffffffffffffffffffffff1602179055503073ffffffffffffffffffffffffffffffffffffffff16600260059054906101000a900473ffffffffffffffffffffffffffffffffffffffff1673ffffffffffffffffffffffffffffffffffffffff1603611237576111f18383611ee9565b15611207576112008383611fe4565b90506119ec565b604051806060016040528060378152602001612ef6603791396006908161122e91906127e1565b505f90506119ec565b5f73ffffffffffffffffffffffffffffffffffffffff16600260059054906101000a900473ffffffffffffffffffffffffffffffffffffffff1673ffffffffffffffffffffffffffffffffffffffff16036112bc576040518060600160405280603c8152602001612eba603c9139600690816112b391906127e1565b505f90506119ec565b5f600260059054906101000a900473ffffffffffffffffffffffffffffffffffffffff1673ffffffffffffffffffffffffffffffffffffffff163b0361132c57604051806080016040528060468152602001613002604691396006908161132391906127e1565b505f90506119ec565b5f638670236b60e01b8484604051602401611348929190612ae6565b604051602081830303815290604052907bffffffffffffffffffffffffffffffffffffffffffffffffffffffff19166020820180517bffffffffffffffffffffffffffffffffffffffffffffffffffffffff83818316178352505050509050611478600260059054906101000a900473ffffffffffffffffffffffffffffffffffffffff1673e2fe530c047f2d85298b07d9333c05737f1435fb5f846040516024016113f693929190612ba4565b6040516020818303038152906040527fb61d27f6000000000000000000000000000000000000000000000000000000007bffffffffffffffffffffffffffffffffffffffffffffffffffffffff19166020820180517bffffffffffffffffffffffffffffffffffffffffffffffffffffffff8381831617835250505050612220565b156114875760019150506119ec565b611556600260059054906101000a900473ffffffffffffffffffffffffffffffffffffffff1673e2fe530c047f2d85298b07d9333c05737f1435fb836040516024016114d4929190612be0565b6040516020818303038152906040527f1cff79cd000000000000000000000000000000000000000000000000000000007bffffffffffffffffffffffffffffffffffffffffffffffffffffffff19166020820180517bffffffffffffffffffffffffffffffffffffffffffffffffffffffff8381831617835250505050612220565b156115655760019150506119ec565b611636600260059054906101000a900473ffffffffffffffffffffffffffffffffffffffff1673e2fe530c047f2d85298b07d9333c05737f1435fb5f846040516024016115b493929190612ba4565b6040516020818303038152906040527f0565bb67000000000000000000000000000000000000000000000000000000007bffffffffffffffffffffffffffffffffffffffffffffffffffffffff19166020820180517bffffffffffffffffffffffffffffffffffffffffffffffffffffffff8381831617835250505050612220565b156116455760019150506119ec565b611714600260059054906101000a900473ffffffffffffffffffffffffffffffffffffffff1673e2fe530c047f2d85298b07d9333c05737f1435fb83604051602401611692929190612be0565b6040516020818303038152906040527fbe6002c2000000000000000000000000000000000000000000000000000000007bffffffffffffffffffffffffffffffffffffffffffffffffffffffff19166020820180517bffffffffffffffffffffffffffffffffffffffffffffffffffffffff8381831617835250505050612220565b156117235760019150506119ec565b6117f2600260059054906101000a900473ffffffffffffffffffffffffffffffffffffffff1673e2fe530c047f2d85298b07d9333c05737f1435fb83604051602401611770929190612be0565b6040516020818303038152906040527f9bb66b28000000000000000000000000000000000000000000000000000000007bffffffffffffffffffffffffffffffffffffffffffffffffffffffff19166020820180517bffffffffffffffffffffffffffffffffffffffffffffffffffffffff8381831617835250505050612220565b156118015760019150506119ec565b6118d0600260059054906101000a900473ffffffffffffffffffffffffffffffffffffffff1673e2fe530c047f2d85298b07d9333c05737f1435fb8360405160240161184e929190612be0565b6040516020818303038152906040527f6fadcf72000000000000000000000000000000000000000000000000000000007bffffffffffffffffffffffffffffffffffffffffffffffffffffffff19166020820180517bffffffffffffffffffffffffffffffffffffffffffffffffffffffff8381831617835250505050612220565b156118df5760019150506119ec565b6119b0600260059054906101000a900473ffffffffffffffffffffffffffffffffffffffff1673e2fe530c047f2d85298b07d9333c05737f1435fb5f8460405160240161192e93929190612c31565b6040516020818303038152906040527f2224fa25000000000000000000000000000000000000000000000000000000007bffffffffffffffffffffffffffffffffffffffffffffffffffffffff19166020820180517bffffffffffffffffffffffffffffffffffffffffffffffffffffffff8381831617835250505050612220565b156119bf5760019150506119ec565b6040518060800160405280604f8152602001612fb3604f9139600690816119e691906127e1565b505f9150505b92915050565b5f73e2fe530c047f2d85298b07d9333c05737f1435fb73ffffffffffffffffffffffffffffffffffffffff16630bd59ad3836040518263ffffffff1660e01b8152600401611a4091906124aa565b5f60405180830381865afa925050508015611a7d57506040513d5f823e3d601f19601f82011682018060405250810190611a7a91906129fe565b60015b611a89575f9050611a91565b5f8151149150505b919050565b5f5f90505b8151811015611b65575f611ac8838381518110611abb57611aba612a45565b5b6020026020010151611c86565b9050806080015180611adb57508060a001515b80611b1657503073ffffffffffffffffffffffffffffffffffffffff16816020015173ffffffffffffffffffffffffffffffffffffffff1614155b80611b245750428160600151115b15611b2f5750611b5a565b611b57838381518110611b4557611b44612a45565b5b602002602001015182604001516122cc565b50505b806001019050611a9b565b5050565b5f5f90505b81811015611c80575f611b9b858381518110611b8d57611b8c612a45565b5b602002602001015130611dcd565b9050838281518110611bb057611baf612a45565b5b60200260200101518111611bc45750611c75565b5f848381518110611bd857611bd7612a45565b5b602002602001015182611beb9190612c80565b9050600154811115611c725780600181905550858381518110611c1157611c10612a45565b5b60200260200101515f5f6101000a81548173ffffffffffffffffffffffffffffffffffffffff021916908373ffffffffffffffffffffffffffffffffffffffff16021790555060016002806101000a81548160ff0219169083151502179055505b50505b806001019050611b6e565b50505050565b611c8e61240b565b73e2fe530c047f2d85298b07d9333c05737f1435fb73ffffffffffffffffffffffffffffffffffffffff1663890db72f836040518263ffffffff1660e01b8152600401611cdb91906124db565b61012060405180830381865afa925050508015611d1657506040513d601f19601f82011682018060405250810190611d139190612d07565b60015b15611dc857888a5f019073ffffffffffffffffffffffffffffffffffffffff16908173ffffffffffffffffffffffffffffffffffffffff1681525050878a6020019073ffffffffffffffffffffffffffffffffffffffff16908173ffffffffffffffffffffffffffffffffffffffff1681525050868a6040018181525050858a6060018181525050848a6080019015159081151581525050828a60a00190151590811515815250505050505050505050505b919050565b5f8273ffffffffffffffffffffffffffffffffffffffff166370a08231836040518263ffffffff1660e01b8152600401611e0791906124aa565b602060405180830381865afa925050508015611e4157506040513d601f19601f82011682018060405250810190611e3e9190612dcb565b60015b611e4d575f9050611e52565b809150505b92915050565b5f73e2fe530c047f2d85298b07d9333c05737f1435fb73ffffffffffffffffffffffffffffffffffffffff16638da5cb5b6040518163ffffffff1660e01b8152600401602060405180830381865afa925050508015611ed557506040513d601f19601f82011682018060405250810190611ed29190612df6565b60015b611ee1575f9050611ee6565b809150505b90565b5f73e2fe530c047f2d85298b07d9333c05737f1435fb73ffffffffffffffffffffffffffffffffffffffff16638670236b60e01b8484604051602401611f30929190612ae6565b604051602081830303815290604052907bffffffffffffffffffffffffffffffffffffffffffffffffffffffff19166020820180517bffffffffffffffffffffffffffffffffffffffffffffffffffffffff8381831617835250505050604051611f9a9190612e5b565b5f604051808303815f865af19150503d805f8114611fd3576040519150601f19603f3d011682016040523d82523d5f602084013e611fd8565b606091505b50508091505092915050565b5f611fee836119f2565b15611ffc5760019050612131565b606073e2fe530c047f2d85298b07d9333c05737f1435fb73ffffffffffffffffffffffffffffffffffffffff16630bd59ad3846040518263ffffffff1660e01b815260040161204b91906124aa565b5f60405180830381865afa92505050801561208857506040513d5f823e3d601f19601f8201168201806040525081019061208591906129fe565b60015b612095575f915050612131565b809150505f5f90505b815181101561212b575f6120cb8383815181106120be576120bd612a45565b5b6020026020010151611c86565b9050806080015115801561210e57508473ffffffffffffffffffffffffffffffffffffffff16816020015173ffffffffffffffffffffffffffffffffffffffff16145b1561211f5760019350505050612131565b5080600101905061209e565b505f9150505b92915050565b5f73e2fe530c047f2d85298b07d9333c05737f1435fb73ffffffffffffffffffffffffffffffffffffffff16638129fc1c60e01b604051602401604051602081830303815290604052907bffffffffffffffffffffffffffffffffffffffffffffffffffffffff19166020820180517bffffffffffffffffffffffffffffffffffffffffffffffffffffffff83818316178352505050506040516121db9190612e5b565b5f604051808303815f865af19150503d805f8114612214576040519150601f19603f3d011682016040523d82523d5f602084013e612219565b606091505b5050905050565b5f5f8373ffffffffffffffffffffffffffffffffffffffff16836040516122479190612e5b565b5f604051808303815f865af19150503d805f8114612280576040519150601f19603f3d011682016040523d82523d5f602084013e612285565b606091505b5050905080612297575f9150506122c6565b6122c260035f9054906101000a900473ffffffffffffffffffffffffffffffffffffffff1630611fe4565b9150505b92915050565b5f73e2fe530c047f2d85298b07d9333c05737f1435fb73ffffffffffffffffffffffffffffffffffffffff1663ba7bd2aa60e01b8484604051602401612313929190612e71565b604051602081830303815290604052907bffffffffffffffffffffffffffffffffffffffffffffffffffffffff19166020820180517bffffffffffffffffffffffffffffffffffffffffffffffffffffffff838183161783525050505060405161237d9190612e5b565b5f604051808303815f865af19150503d805f81146123b6576040519150601f19603f3d011682016040523d82523d5f602084013e6123bb565b606091505b50508091505092915050565b6040518060a001604052805f73ffffffffffffffffffffffffffffffffffffffff1681526020015f81526020015f81526020015f151581526020015f151581525090565b6040518060c001604052805f73ffffffffffffffffffffffffffffffffffffffff1681526020015f73ffffffffffffffffffffffffffffffffffffffff1681526020015f81526020015f81526020015f151581526020015f151581525090565b5f73ffffffffffffffffffffffffffffffffffffffff82169050919050565b5f6124948261246b565b9050919050565b6124a48161248a565b82525050565b5f6020820190506124bd5f83018461249b565b92915050565b5f819050919050565b6124d5816124c3565b82525050565b5f6020820190506124ee5f8301846124cc565b92915050565b5f8115159050919050565b612508816124f4565b82525050565b5f6020820190506125215f8301846124ff565b92915050565b5f81519050919050565b5f82825260208201905092915050565b8281835e5f83830152505050565b5f601f19601f8301169050919050565b5f61256982612527565b6125738185612531565b9350612583818560208601612541565b61258c8161254f565b840191505092915050565b5f6020820190508181035f8301526125af818461255f565b905092915050565b7f4e487b71000000000000000000000000000000000000000000000000000000005f52604160045260245ffd5b7f4e487b71000000000000000000000000000000000000000000000000000000005f52602260045260245ffd5b5f600282049050600182168061262857607f821691505b60208210810361263b5761263a6125e4565b5b50919050565b5f819050815f5260205f209050919050565b5f6020601f8301049050919050565b5f82821b905092915050565b5f6008830261269d7fffffffffffffffffffffffffffffffffffffffffffffffffffffffffffffffff82612662565b6126a78683612662565b95508019841693508086168417925050509392505050565b5f819050919050565b5f6126e26126dd6126d8846124c3565b6126bf565b6124c3565b9050919050565b5f819050919050565b6126fb836126c8565b61270f612707826126e9565b84845461266e565b825550505050565b5f5f905090565b612726612717565b6127318184846126f2565b505050565b5b81811015612754576127495f8261271e565b600181019050612737565b5050565b601f8211156127995761276a81612641565b61277384612653565b81016020851015612782578190505b61279661278e85612653565b830182612736565b50505b505050565b5f82821c905092915050565b5f6127b95f198460080261279e565b1980831691505092915050565b5f6127d183836127aa565b9150826002028217905092915050565b6127ea82612527565b67ffffffffffffffff811115612803576128026125b7565b5b61280d8254612611565b612818828285612758565b5f60209050601f831160018114612849575f8415612837578287015190505b61284185826127c6565b8655506128a8565b601f19841661285786612641565b5f5b8281101561287e57848901518255600182019150602085019450602081019050612859565b8683101561289b5784890151612897601f8916826127aa565b8355505b6001600288020188555050505b505050505050565b5f604051905090565b5f5ffd5b5f5ffd5b5f5ffd5b6128ce8261254f565b810181811067ffffffffffffffff821117156128ed576128ec6125b7565b5b80604052505050565b5f6128ff6128b0565b905061290b82826128c5565b919050565b5f67ffffffffffffffff82111561292a576129296125b7565b5b602082029050602081019050919050565b5f5ffd5b612948816124c3565b8114612952575f5ffd5b50565b5f815190506129638161293f565b92915050565b5f61297b61297684612910565b6128f6565b9050808382526020820190506020840283018581111561299e5761299d61293b565b5b835b818110156129c757806129b38882612955565b8452602084019350506020810190506129a0565b5050509392505050565b5f82601f8301126129e5576129e46128c1565b5b81516129f5848260208601612969565b91505092915050565b5f60208284031215612a1357612a126128b9565b5b5f82015167ffffffffffffffff811115612a3057612a2f6128bd565b5b612a3c848285016129d1565b91505092915050565b7f4e487b71000000000000000000000000000000000000000000000000000000005f52603260045260245ffd5b7f4e487b71000000000000000000000000000000000000000000000000000000005f52601160045260245ffd5b5f612aa9826124c3565b91507fffffffffffffffffffffffffffffffffffffffffffffffffffffffffffffffff8203612adb57612ada612a72565b5b600182019050919050565b5f604082019050612af95f83018561249b565b612b06602083018461249b565b9392505050565b5f819050919050565b5f60ff82169050919050565b5f612b3c612b37612b3284612b0d565b6126bf565b612b16565b9050919050565b612b4c81612b22565b82525050565b5f81519050919050565b5f82825260208201905092915050565b5f612b7682612b52565b612b808185612b5c565b9350612b90818560208601612541565b612b998161254f565b840191505092915050565b5f606082019050612bb75f83018661249b565b612bc46020830185612b43565b8181036040830152612bd68184612b6c565b9050949350505050565b5f604082019050612bf35f83018561249b565b8181036020830152612c058184612b6c565b90509392505050565b50565b5f612c1c5f83612531565b9150612c2782612c0e565b5f82019050919050565b5f608082019050612c445f83018661249b565b612c516020830185612b43565b8181036040830152612c6281612c11565b90508181036060830152612c768184612b6c565b9050949350505050565b5f612c8a826124c3565b9150612c95836124c3565b9250828203905081811115612cad57612cac612a72565b5b92915050565b612cbc8161248a565b8114612cc6575f5ffd5b50565b5f81519050612cd781612cb3565b92915050565b612ce6816124f4565b8114612cf0575f5ffd5b50565b5f81519050612d0181612cdd565b92915050565b5f5f5f5f5f5f5f5f5f6101208a8c031215612d2557612d246128b9565b5b5f612d328c828d01612cc9565b9950506020612d438c828d01612cc9565b9850506040612d548c828d01612955565b9750506060612d658c828d01612955565b9650506080612d768c828d01612cf3565b95505060a0612d878c828d01612955565b94505060c0612d988c828d01612cf3565b93505060e0612da98c828d01612955565b925050610100612dbb8c828d01612cf3565b9150509295985092959850929598565b5f60208284031215612de057612ddf6128b9565b5b5f612ded84828501612955565b91505092915050565b5f60208284031215612e0b57612e0a6128b9565b5b5f612e1884828501612cc9565b91505092915050565b5f81905092915050565b5f612e3582612b52565b612e3f8185612e21565b9350612e4f818560208601612541565b80840191505092915050565b5f612e668284612e2b565b915081905092915050565b5f604082019050612e845f8301856124cc565b612e9160208301846124cc565b939250505056fe6e6f206c6976652076696374696d206465706f73697473206f6e20746172676574746172676574206f776e657220697320756e73657420616e6420696e697469616c697a6520646964206e6f7420636c61696d206f776e657273686970746172676574206f776e657220697320766572696669657220627574207265636f766572417373657473207374696c6c206661696c65646f776e65722063616c6c73207265636f7665724173736574732876696374696d2c2061747461636b657229202d3e20636f6e74726163742072657772697465732076696374696d206465706f7369747320746f2061747461636b6572202d3e2061747461636b657220776974686472617773206d617475726564204552433230206c6f636b736f776e6572206973206120636f6e747261637420627574206578706f736573206e6f207375636365737366756c207075626c6963206578656375746f7220666f72207265636f766572417373657473746172676574206f776e657220697320616e20454f413b206e6f207075626c6963206f6e2d636861696e20726f7574652063616e2073617469736679206f6e6c794f776e657276696374696d20686173206e6f206465706f7369747320617420657865637574696f6e7265636f76657241737365747320657865637574656420627574206e6f206d6174757265642045524332302076696374696d206c6f636b206578697374656420666f7220696d6d6564696174652070726f6669747265636f76657241737365747320657865637574656420627574206e6f206e65742045524332302062616c616e636520696e63726561736520776173207265616c697a6564a264697066735822122038b9c254f08492ad741084c5f88437f07b2d3b9af52e9b42dbe9a7c4285dbbcf64736f6c634300081e0033","linkReferences":{}},"methodIdentifiers":{"TARGET()":"cc1f2afa","executeOnOpportunity()":"3c2448ed","exploitPathUsed()":"d78c4281","failureReason()":"4f9522a4","hypothesisRefuted()":"495f92f1","hypothesisValidated()":"463defd1","profitAchieved()":"f0a01176","profitAmount()":"5ff972cc","profitToken()":"49343624","recoverStageReached()":"a0b93731","selectedDepositId()":"416cc559","selectedVictim()":"47e59f14","targetOwner()":"34c7f894","victimIndexCleared()":"cd0e34ee"},"id":0}