{"abi":[{"type":"constructor","inputs":[],"stateMutability":"nonpayable"},{"type":"receive","stateMutability":"payable"},{"type":"function","name":"executeOnOpportunity","inputs":[],"outputs":[],"stateMutability":"nonpayable"},{"type":"function","name":"profitAmount","inputs":[],"outputs":[{"name":"","type":"uint256","internalType":"uint256"}],"stateMutability":"view"},{"type":"function","name":"profitToken","inputs":[],"outputs":[{"name":"","type":"address","internalType":"address"}],"stateMutability":"view"},{"type":"function","name":"uniswapV2Call","inputs":[{"name":"sender","type":"address","internalType":"address"},{"name":"amount0","type":"uint256","internalType":"uint256"},{"name":"amount1","type":"uint256","internalType":"uint256"},{"name":"data","type":"bytes","internalType":"bytes"}],"outputs":[],"stateMutability":"nonpayable"},{"type":"function","name":"victim","inputs":[],"outputs":[{"name":"","type":"address","internalType":"contract VictimDepositor"}],"stateMutability":"view"}],"bytecode":{"object":"0x60a080604052346070576104788181016001600160401b03811183821017605c578291612783833903905ff0801560515760805260405161270e90816100758239608051818181607001526103430152f35b6040513d5f823e3d90fd5b634e487b7160e01b5f52604160045260245ffd5b5f80fdfe608080604052600436101561001c575b50361561001a575f80fd5b005b5f905f3560e01c90816310d1e85c14610103575080633c2448ed146100e757806349343624146100c05780635ff972cc146100a25763930c20030361000f573461009f578060031936011261009f576040517f00000000000000000000000000000000000000000000000000000000000000006001600160a01b03168152602090f35b80fd5b503461009f578060031936011261009f576020600154604051908152f35b503461009f578060031936011261009f57546040516001600160a01b039091168152602090f35b503461009f578060031936011261009f576101006109d5565b80f35b905034610607576080366003190112610607576004356001600160a01b038116919082900361060757602435916064359167ffffffffffffffff831161060757366023840112156106075782600401359267ffffffffffffffff84116106075760248436920101116106075760025460081c6001600160a01b03163303610919575030036108de57156108a1578061089c57506044355b600354810361086357604051609d80820182811067ffffffffffffffff82111761084f578291611d10833903905ff080156107b057604051906108ec80830183811067ffffffffffffffff82111761084f576040928492611dad84395f5160206126b95f395f51905f5282526001600160a01b031660208201520301905ff080156107b05760018060a01b03165f80604051602081019063095ea7b360e01b82528460248201528260448201526044815261025660648261094f565b5190825f5160206126b95f395f51905f525af1610271611442565b81610820575b50156107bb575f80604051602081019063095ea7b360e01b825284602482015260016044820152604481526102ad60648261094f565b5190825f5160206126b95f395f51905f525af16102c8611442565b816107f1575b50156107bb57803b156106075760405163b6b55f2560e01b8152600160048201525f8160248183865af180156107b05761079b575b506040516370a0823160e01b815230600482015290602082602481845afa91821561079057849261075c575b50600182036107205761034181611576565b7f00000000000000000000000000000000000000000000000000000000000000006001600160a01b031661037481611576565b6040516318160ddd60e01b8152602081600481865afa9081156107155786916106e3575b5080670186cc6acd4b00000290670186cc6acd4b00008204036106cf576040516316d3df1560e31b815290602082600481875afa9182156106c4578792610690575b50811561067c570461063757803b156106335784604051639f0d5f2760e01b8152836004820152818160248183875af180156105905761061e575b5050604051906370a0823160e01b82526004820152602081602481855afa9081156106135785916105dd575b5061059f578391813b1561059b578291602483926040519485938492632e1a7d4d60e01b845260048401525af1801561059057610577575b50506103e88102908082046103e81490151715610563576103e59004600181018091116105635760405163a9059cbb60e01b60208201908152336024830152604480830193909352918152829182916104d360648261094f565b5190825f5160206126b95f395f51905f525af16104ee611442565b81610534575b50156104fd5780f35b60405162461bcd60e51b815260206004820152600f60248201526e1d1c985b9cd9995c8819985a5b1959608a1b6044820152606490fd5b8051801592508215610549575b50505f6104f4565b61055c9250602080918301019101611481565b5f80610541565b634e487b7160e01b82526011600452602482fd5b816105819161094f565b61058c57815f610479565b5080fd5b6040513d84823e3d90fd5b8280fd5b60405162461bcd60e51b815260206004820152601660248201527576696374696d2072656365697665642073686172657360501b6044820152606490fd5b90506020813d60201161060b575b816105f86020938361094f565b8101031261060757515f610441565b5f80fd5b3d91506105eb565b6040513d87823e3d90fd5b816106289161094f565b61063357845f610415565b8480fd5b60405162461bcd60e51b815260206004820152601860248201527f76696374696d20776f756c64206d696e742073686172657300000000000000006044820152606490fd5b634e487b7160e01b87526012600452602487fd5b9091506020813d6020116106bc575b816106ac6020938361094f565b810103126106075751905f6103da565b3d915061069f565b6040513d89823e3d90fd5b634e487b7160e01b86526011600452602486fd5b90506020813d60201161070d575b816106fe6020938361094f565b8101031261060757515f610398565b3d91506106f1565b6040513d88823e3d90fd5b60405162461bcd60e51b81526020600482015260146024820152730e6cacac840e6d0c2e4cae640dad2e6dac2e8c6d60631b6044820152606490fd5b9091506020813d602011610788575b816107786020938361094f565b810103126106075751905f61032f565b3d915061076b565b6040513d86823e3d90fd5b6107a89193505f9061094f565b5f915f610303565b6040513d5f823e3d90fd5b60405162461bcd60e51b815260206004820152600e60248201526d185c1c1c9bdd994819985a5b195960921b6044820152606490fd5b8051801592508215610806575b50505f6102ce565b6108199250602080918301019101611481565b5f806107fe565b8051801592508215610835575b50505f610277565b6108489250602080918301019101611481565b5f8061082d565b634e487b7160e01b5f52604160045260245ffd5b60405162461bcd60e51b81526020600482015260116024820152701d5b995e1c1958dd195908185b5bdd5b9d607a1b6044820152606490fd5b61019a565b60405162461bcd60e51b81526020600482015260156024820152746d697373696e672063616c6c6261636b206461746160581b6044820152606490fd5b60405162461bcd60e51b81526020600482015260136024820152723ab730baba3437b934bd32b21039b2b73232b960691b6044820152606490fd5b62461bcd60e51b81526020600482015260116024820152703ab730baba3437b934bd32b2103830b4b960791b6044820152606490fd5b90601f8019910116810190811067ffffffffffffffff82111761084f57604052565b9190820391821161097e57565b634e487b7160e01b5f52601160045260245ffd5b9081602091031261060757516001600160a01b03811681036106075790565b805180835260209291819084018484015e5f828201840152601f01601f1916010190565b6002545f9060ff811661143e5760019060ff1916176002555f5160206126b95f395f51905f526bffffffffffffffffffffffff60a01b5f5416175f556040516370a0823160e01b81523060048201526020816024815f5160206126b95f395f51905f525afa9081156107b0575f9161140c575b506040516370a0823160e01b815230600482015260208160248173acd43e627e64355f1861cec6d3a6688b31a6f9525afa9081156107b0575f916113da575b508061136f575b504761130b575b60405163e6a4390560e01b81525f5160206126b95f395f51905f5260048201525f5160206126995f395f51905f526024820152602081604481735c69bee701ef814a2b6a3edd4b1652cb9cc5aa6f5afa9081156111485790610afe9184916112ec575b50611ca6565b60405163e6a4390560e01b81525f5160206126b95f395f51905f52600482015273a0b86991c6218b36c1d19d4a2e9eb0ce3606eb486024820152602081604481735c69bee701ef814a2b6a3edd4b1652cb9cc5aa6f5afa9081156111485790610b6d9184916112ec5750611ca6565b60405163e6a4390560e01b81525f5160206126b95f395f51905f52600482015273dac17f958d2ee523a2206206994597c13d831ec76024820152602081604481735c69bee701ef814a2b6a3edd4b1652cb9cc5aa6f5afa9081156111485790610bdc9184916112ec5750611ca6565b60405163e6a4390560e01b81525f5160206126995f395f51905f52600482015273a0b86991c6218b36c1d19d4a2e9eb0ce3606eb486024820152602081604481735c69bee701ef814a2b6a3edd4b1652cb9cc5aa6f5afa9081156111485790610c4b9184916112ec5750611ca6565b60405163e6a4390560e01b81525f5160206126995f395f51905f52600482015273dac17f958d2ee523a2206206994597c13d831ec76024820152602081604481735c69bee701ef814a2b6a3edd4b1652cb9cc5aa6f5afa9081156111485790610cba9184916112ec5750611ca6565b60405163e6a4390560e01b81525f5160206126b95f395f51905f5260048201525f5160206126995f395f51905f52602482015260208160448173c0aee478e3658e2610c5f7a4a2e1777ce9e4f2ac5afa9081156111485790610d229184916112ec5750611ca6565b60405163e6a4390560e01b81525f5160206126b95f395f51905f52600482015273a0b86991c6218b36c1d19d4a2e9eb0ce3606eb48602482015260208160448173c0aee478e3658e2610c5f7a4a2e1777ce9e4f2ac5afa9081156111485790610d919184916112ec5750611ca6565b60405163e6a4390560e01b81525f5160206126b95f395f51905f52600482015273dac17f958d2ee523a2206206994597c13d831ec7602482015260208160448173c0aee478e3658e2610c5f7a4a2e1777ce9e4f2ac5afa9081156111485790610e009184916112ec5750611ca6565b60405163e6a4390560e01b81525f5160206126995f395f51905f52600482015273a0b86991c6218b36c1d19d4a2e9eb0ce3606eb48602482015260208160448173c0aee478e3658e2610c5f7a4a2e1777ce9e4f2ac5afa9081156111485790610e6f9184916112ec5750611ca6565b60405163e6a4390560e01b81525f5160206126995f395f51905f52600482015273dac17f958d2ee523a2206206994597c13d831ec7602482015260208160448173c0aee478e3658e2610c5f7a4a2e1777ce9e4f2ac5afa9081156111485790610ede9184916112ec5750611ca6565b610ee6611656565b610eee611860565b610ef6611a83565b6040516370a0823160e01b81523060048201526020816024815f5160206126b95f395f51905f525afa80156111485783906112b2575b670186cc6acd4b00019150106112725760405163e6a4390560e01b81525f5160206126b95f395f51905f5260048201525f5160206126995f395f51905f526024820152602081604481735c69bee701ef814a2b6a3edd4b1652cb9cc5aa6f5afa908115611148578391611253575b506001600160a01b0381169081156112195760028054610100600160a81b03191660089290921b610100600160a81b0316919091179055670186cc6acd4b0000600355604051630dfe168160e01b8152602081600481855afa90811561079057905f5160206126b95f395f51905f529185916111ea575b506001600160a01b031603611153576003549060405191600160208401526020835261103e60408461094f565b813b1561063357918491611082938360405180968195829463022c0d9f60e01b845260048401528360248401523060448401526080606484015260848301906109b1565b03925af1801561114857908391611133575b50505b60028054610100600160a81b031916905560038290556040516370a0823160e01b8152306004820152916020836024815f5160206126b95f395f51905f525afa90811561112757906110f3575b6110ee9250610971565b600155565b506020823d60201161111f575b8161110d6020938361094f565b81010312610607576110ee91516110e4565b3d9150611100565b604051903d90823e3d90fd5b8161113d9161094f565b61058c57815f611094565b6040513d85823e3d90fd5b604051600160208201526020815261116c60408261094f565b813b156111e6576111b88492839260405194858094819363022c0d9f60e01b8352836004840152670186cc6acd4b000060248401523060448401526080606484015260848301906109b1565b03925af18015611148579083916111d1575b5050611097565b816111db9161094f565b61058c57815f6111ca565b8380fd5b61120c915060203d602011611212575b611204818361094f565b810190610992565b5f611011565b503d6111fa565b60405162461bcd60e51b815260206004820152601260248201527136b4b9b9b4b73390333630b9b4103830b4b960711b6044820152606490fd5b61126c915060203d60201161121257611204818361094f565b5f610f9a565b6040516370a0823160e01b8152306004820152916020836024815f5160206126b95f395f51905f525afa90811561112757906110f3576110ee9250610971565b506020813d6020116112e4575b816112cc6020938361094f565b8101031261060757670186cc6acd4b00019051610f2c565b3d91506112bf565b611305915060203d60201161121257611204818361094f565b5f610af8565b475f5160206126995f395f51905f523b1561059b578260049160405192838092630d0e30db60e41b82525f5160206126995f395f51905f525af180156111485790839161135a575b5050610a95565b816113649161094f565b61058c57815f611353565b73acd43e627e64355f1861cec6d3a6688b31a6f9523b156106075760405190632e1a7d4d60e01b825260048201525f816024818373acd43e627e64355f1861cec6d3a6688b31a6f9525af180156107b05715610a8e576113d29192505f9061094f565b5f905f610a8e565b90506020813d602011611404575b816113f56020938361094f565b8101031261060757515f610a87565b3d91506113e8565b90506020813d602011611436575b816114276020938361094f565b8101031261060757515f610a48565b3d915061141a565b5050565b3d1561147c573d9067ffffffffffffffff821161084f5760405191611471601f8201601f19166020018461094f565b82523d5f602084013e565b606090565b90816020910312610607575180151581036106075790565b5f809160405182602082019163095ea7b360e01b8352737a250d5630b4cf539739df2c5dacb4c659f2488d6024820152816044820152604481526114de60648261094f565b51926001600160a01b03165af16114f3611442565b81611501575b50156107bb57565b8051801592508215611516575b50505f6114f9565b6115299250602080918301019101611481565b5f8061150e565b5f9190829182604051602081019263095ea7b360e01b8452737a250d5630b4cf539739df2c5dacb4c659f2488d60248301526044820152604481526114de60648261094f565b5f8091604051602081019163a9059cbb60e01b835260018060a01b03166024820152670186cc6acd4b00006044820152604481526115b560648261094f565b5190825f5160206126b95f395f51905f525af16115d0611442565b816115de575b50156104fd57565b80518015925082156115f3575b50505f6115d6565b6116069250602080918301019101611481565b5f806115eb565b67ffffffffffffffff811161084f5760051b60200190565b8051156116325760200190565b634e487b7160e01b5f52603260045260245ffd5b8051600110156116325760400190565b6040516370a0823160e01b81523060048201526020816024815f5160206126995f395f51905f525afa9081156107b0575f9161182e575b50801561182b576116aa5f5160206126995f395f51905f52611499565b6116c1815f5160206126995f395f51905f52611530565b6040516116cf60608261094f565b600281526020810160403682375f5160206126995f395f51905f526116f383611625565b525f5160206126b95f395f51905f5261170b83611646565b526040519283926338ed173960e01b845260a484019160048501525f602485015260a060448501525180915260c4830191905f5b8181106118095750505090805f92306064830152426084830152038183737a250d5630b4cf539739df2c5dacb4c659f2488d5af180156107b0576117805750565b3d805f833e61178f818361094f565b8101906020818303126106075780519067ffffffffffffffff8211610607570181601f82011215610607578051906020806117c98461160d565b6117d6604051918261094f565b848152019260051b82010192831161060757602001905b8282106117f957505050565b81518152602091820191016117ed565b82516001600160a01b031684528594506020938401939092019160010161173f565b50565b90506020813d602011611858575b816118496020938361094f565b8101031261060757515f61168d565b3d915061183c565b6040516370a0823160e01b815230600482015260208160248173a0b86991c6218b36c1d19d4a2e9eb0ce3606eb485afa9081156107b0575f91611a51575b50801561182b576118c273a0b86991c6218b36c1d19d4a2e9eb0ce3606eb48611499565b6118e08173a0b86991c6218b36c1d19d4a2e9eb0ce3606eb48611530565b6040516118ee60608261094f565b6002815260208101604036823773a0b86991c6218b36c1d19d4a2e9eb0ce3606eb4861191983611625565b525f5160206126b95f395f51905f5261193183611646565b526040519283926338ed173960e01b845260a484019160048501525f602485015260a060448501525180915260c4830191905f5b818110611a2f5750505090805f92306064830152426084830152038183737a250d5630b4cf539739df2c5dacb4c659f2488d5af180156107b0576119a65750565b3d805f833e6119b5818361094f565b8101906020818303126106075780519067ffffffffffffffff8211610607570181601f82011215610607578051906020806119ef8461160d565b6119fc604051918261094f565b848152019260051b82010192831161060757602001905b828210611a1f57505050565b8151815260209182019101611a13565b82516001600160a01b0316845285945060209384019390920191600101611965565b90506020813d602011611a7b575b81611a6c6020938361094f565b8101031261060757515f61189e565b3d9150611a5f565b6040516370a0823160e01b815230600482015260208160248173dac17f958d2ee523a2206206994597c13d831ec75afa9081156107b0575f91611c74575b50801561182b57611ae573dac17f958d2ee523a2206206994597c13d831ec7611499565b611b038173dac17f958d2ee523a2206206994597c13d831ec7611530565b604051611b1160608261094f565b6002815260208101604036823773dac17f958d2ee523a2206206994597c13d831ec7611b3c83611625565b525f5160206126b95f395f51905f52611b5483611646565b526040519283926338ed173960e01b845260a484019160048501525f602485015260a060448501525180915260c4830191905f5b818110611c525750505090805f92306064830152426084830152038183737a250d5630b4cf539739df2c5dacb4c659f2488d5af180156107b057611bc95750565b3d805f833e611bd8818361094f565b8101906020818303126106075780519067ffffffffffffffff8211610607570181601f8201121561060757805190602080611c128461160d565b611c1f604051918261094f565b848152019260051b82010192831161060757602001905b828210611c4257505050565b8151815260209182019101611c36565b82516001600160a01b0316845285945060209384019390920191600101611b88565b90506020813d602011611c9e575b81611c8f6020938361094f565b8101031261060757515f611ac1565b3d9150611c82565b6001600160a01b0381168015908115611cf7575b5061182b575f809160405182602082019163bc25cf7760e01b835230602482015260248152611cea60448261094f565b51925af15061182b611442565b60025460081c6001600160a01b03161490505f611cba56fe608080604052346013576085908160188239f35b5f80fdfe60808060405260043610156011575f80fd5b5f3560e01c6370a08231146023575f80fd5b34604b576020366003190112604b576004356001600160a01b03811603604b57805f60209252f35b5f80fdfea2646970667358221220d416c832f5850bd53dc6d766d5cbdb0dce23d02ed074999ec8044e2435a016d564736f6c634300081e003360c03461009e57601f6108ec38819003918201601f19168301916001600160401b038311848410176100a257808492604094855283398101031261009e57610052602061004b836100b6565b92016100b6565b6001600160a01b0390911660805260a05260405161082190816100cb8239608051818181607e01528181610123015281816103f00152610689015260a05181818160c601526106e70152f35b5f80fd5b634e487b7160e01b5f52604160045260245ffd5b51906001600160a01b038216820361009e5756fe6080806040526004361015610012575f80fd5b5f3560e01c90816318160ddd146105c6575080632e1a7d4d1461037157806370a0823114610335578063b69ef8a814610313578063b6b55f25146100f5578063f77c4791146100b15763fc0c546a14610069575f80fd5b346100ad575f3660031901126100ad576040517f00000000000000000000000000000000000000000000000000000000000000006001600160a01b03168152602090f35b5f80fd5b346100ad575f3660031901126100ad576040517f00000000000000000000000000000000000000000000000000000000000000006001600160a01b03168152602090f35b346100ad5760203660031901126100ad5761010e610674565b6040516370a0823160e01b81523060048201527f00000000000000000000000000000000000000000000000000000000000000006001600160a01b0316602082602481845afa91821561026a575f926102df575b505f8060405160208101906323b872dd60e01b825233602482015230604482015260043560648201526064815261019a608482610631565b519082855af16101a8610794565b816102b0575b5015610275576020602491604051928380926370a0823160e01b82523060048301525afa90811561026a575f91610236575b50610200916101ee91610624565b5f5492838061021d5750508092610667565b5f55335f52600160205261021960405f20918254610667565b9055005b61022a9061022f936105df565b610606565b8092610667565b90506020813d602011610262575b8161025160209383610631565b810103126100ad57516102006101e0565b3d9150610244565b6040513d5f823e3d90fd5b60405162461bcd60e51b81526020600482015260136024820152721d1c985b9cd9995c919c9bdb4819985a5b1959606a1b6044820152606490fd5b80518015925082156102c5575b5050846101ae565b6102d892506020809183010191016107d3565b84806102bd565b9091506020813d60201161030b575b816102fb60209383610631565b810103126100ad57519083610162565b3d91506102ee565b346100ad575f3660031901126100ad57602061032d610674565b604051908152f35b346100ad5760203660031901126100ad576004356001600160a01b038116908190036100ad575f526001602052602060405f2054604051908152f35b346100ad5760203660031901126100ad57600435335f52600160205260405f2054811161058b575f54801561055a576103b86103d99161022a846103b3610674565b6105df565b91335f52600160205260405f206103d0828254610624565b90555f54610624565b5f556040516370a0823160e01b81523060048201527f00000000000000000000000000000000000000000000000000000000000000006001600160a01b03169190602081602481865afa801561026a5782915f91610525575b50106104e9575f91829182604051602081019263a9059cbb60e01b8452336024830152604482015260448152610469606482610631565b51925af1610475610794565b816104ba575b501561048357005b60405162461bcd60e51b815260206004820152600f60248201526e1d1c985b9cd9995c8819985a5b1959608a1b6044820152606490fd5b80518015925082156104cf575b50508161047b565b6104e292506020809183010191016107d3565b81806104c7565b60405162461bcd60e51b81526020600482015260146024820152731a5b9cdd59999a58da595b9d081bdb881a185b9960621b6044820152606490fd5b9150506020813d602011610552575b8161054160209383610631565b810103126100ad5781905184610432565b3d9150610534565b60405162461bcd60e51b81526020600482015260096024820152686e6f20737570706c7960b81b6044820152606490fd5b60405162461bcd60e51b8152602060048201526013602482015272696e73756666696369656e742073686172657360681b6044820152606490fd5b346100ad575f3660031901126100ad576020905f548152f35b818102929181159184041417156105f257565b634e487b7160e01b5f52601160045260245ffd5b8115610610570490565b634e487b7160e01b5f52601260045260245ffd5b919082039182116105f257565b90601f8019910116810190811067ffffffffffffffff82111761065357604052565b634e487b7160e01b5f52604160045260245ffd5b919082018092116105f257565b6040516370a0823160e01b81523060048201527f00000000000000000000000000000000000000000000000000000000000000006001600160a01b031690602081602481855afa90811561026a575f91610762575b506040516370a0823160e01b815260048101929092526020826024817f00000000000000000000000000000000000000000000000000000000000000006001600160a01b03165afa90811561026a575f9161072c575b6107299250610667565b90565b90506020823d60201161075a575b8161074760209383610631565b810103126100ad5761072991519061071f565b3d915061073a565b90506020813d60201161078c575b8161077d60209383610631565b810103126100ad57515f6106c9565b3d9150610770565b3d156107ce573d9067ffffffffffffffff821161065357604051916107c3601f8201601f191660200184610631565b82523d5f602084013e565b606090565b908160209103126100ad575180151581036100ad579056fea264697066735822122049bc7be5692b19dc7439a3781d876a34838c3186809878d48a502cc0afea81b564736f6c634300081e0033000000000000000000000000c02aaa39b223fe8d0a0e5c4f27ead9083c756cc20000000000000000000000006b175474e89094c44da98b954eedeac495271d0fa2646970667358221220085760569bd393036136f47da281c74dd6bcfe6a2528cc6b37eea29c2b08ad6764736f6c634300081e003360a080604052346027573360805261044c908161002c82396080518181816077015260de0152f35b5f80fdfe6080806040526004361015610012575f80fd5b5f3560e01c9081638da5cb5b146100655750639f0d5f2714610032575f80fd5b34610061576020366003190112610061576004356001600160a01b03811681036100615761005f906100dc565b005b5f80fd5b34610061575f366003190112610061577f00000000000000000000000000000000000000000000000000000000000000006001600160a01b03168152602090f35b90601f8019910116810190811067ffffffffffffffff8211176100c857604052565b634e487b7160e01b5f52604160045260245ffd5b7f00000000000000000000000000000000000000000000000000000000000000006001600160a01b031633036103e457604051637e062a3560e11b81526001600160a01b039190911690602081600481855afa9081156102aa575f916103a2575b506040516370a0823160e01b8152306004820152906001600160a01b0316602082602481845afa9182156102aa575f9261036e575b508115610369575f80604051602081019063095ea7b360e01b8252866024820152826044820152604481526101a86064826100a6565b519082855af13d15610362573d67ffffffffffffffff81116100c857604051906101dc601f8201601f1916602001836100a6565b81523d5f602083013e5b8161032a575b50156102b5575f809160405182602082019163095ea7b360e01b8352876024820152866044820152604481526102236064826100a6565b51925af13d15610323573d67ffffffffffffffff81116100c85760405190610255601f8201601f1916602001836100a6565b81523d5f602083013e5b816102eb575b50156102b557813b15610061575f9160248392604051948593849263b6b55f2560e01b845260048401525af180156102aa5761029e5750565b5f6102a8916100a6565b565b6040513d5f823e3d90fd5b60405162461bcd60e51b815260206004820152600e60248201526d185c1c1c9bdd994819985a5b195960921b6044820152606490fd5b8051801592508215610300575b50505f610265565b819250906020918101031261006157602001518015158103610061575f806102f8565b606061025f565b805180159250821561033f575b50505f6101ec565b819250906020918101031261006157602001518015158103610061575f80610337565b60606101e6565b505050565b9091506020813d60201161039a575b8161038a602093836100a6565b810103126100615751905f610172565b3d915061037d565b90506020813d6020116103dc575b816103bd602093836100a6565b8101031261006157516001600160a01b0381168103610061575f61013d565b3d91506103b0565b60405162461bcd60e51b815260206004820152600a60248201526937b7363c9037bbb732b960b11b6044820152606490fdfea26469706673582212208c0850024eb535e696000460f0579fd11148848f2e042e03cf9efd0edc5bc53364736f6c634300081e0033","linkReferences":{}},"methodIdentifiers":{"executeOnOpportunity()":"3c2448ed","profitAmount()":"5ff972cc","profitToken()":"49343624","uniswapV2Call(address,uint256,uint256,bytes)":"10d1e85c","victim()":"930c2003"},"id":0}