{"abi":[{"type":"constructor","inputs":[{"name":"token_","type":"address","internalType":"address"},{"name":"controller_","type":"address","internalType":"address"}],"stateMutability":"nonpayable"},{"type":"function","name":"balance","inputs":[],"outputs":[{"name":"","type":"uint256","internalType":"uint256"}],"stateMutability":"view"},{"type":"function","name":"balanceOf","inputs":[{"name":"","type":"address","internalType":"address"}],"outputs":[{"name":"","type":"uint256","internalType":"uint256"}],"stateMutability":"view"},{"type":"function","name":"controller","inputs":[],"outputs":[{"name":"","type":"address","internalType":"address"}],"stateMutability":"view"},{"type":"function","name":"deposit","inputs":[{"name":"amount","type":"uint256","internalType":"uint256"}],"outputs":[],"stateMutability":"nonpayable"},{"type":"function","name":"token","inputs":[],"outputs":[{"name":"","type":"address","internalType":"contract IERC20"}],"stateMutability":"view"},{"type":"function","name":"totalSupply","inputs":[],"outputs":[{"name":"","type":"uint256","internalType":"uint256"}],"stateMutability":"view"},{"type":"function","name":"withdraw","inputs":[{"name":"shares","type":"uint256","internalType":"uint256"}],"outputs":[],"stateMutability":"nonpayable"}],"bytecode":{"object":"0x60c03461009e57601f6108ec38819003918201601f19168301916001600160401b038311848410176100a257808492604094855283398101031261009e57610052602061004b836100b6565b92016100b6565b6001600160a01b0390911660805260a05260405161082190816100cb8239608051818181607e01528181610123015281816103f00152610689015260a05181818160c601526106e70152f35b5f80fd5b634e487b7160e01b5f52604160045260245ffd5b51906001600160a01b038216820361009e5756fe6080806040526004361015610012575f80fd5b5f3560e01c90816318160ddd146105c6575080632e1a7d4d1461037157806370a0823114610335578063b69ef8a814610313578063b6b55f25146100f5578063f77c4791146100b15763fc0c546a14610069575f80fd5b346100ad575f3660031901126100ad576040517f00000000000000000000000000000000000000000000000000000000000000006001600160a01b03168152602090f35b5f80fd5b346100ad575f3660031901126100ad576040517f00000000000000000000000000000000000000000000000000000000000000006001600160a01b03168152602090f35b346100ad5760203660031901126100ad5761010e610674565b6040516370a0823160e01b81523060048201527f00000000000000000000000000000000000000000000000000000000000000006001600160a01b0316602082602481845afa91821561026a575f926102df575b505f8060405160208101906323b872dd60e01b825233602482015230604482015260043560648201526064815261019a608482610631565b519082855af16101a8610794565b816102b0575b5015610275576020602491604051928380926370a0823160e01b82523060048301525afa90811561026a575f91610236575b50610200916101ee91610624565b5f5492838061021d5750508092610667565b5f55335f52600160205261021960405f20918254610667565b9055005b61022a9061022f936105df565b610606565b8092610667565b90506020813d602011610262575b8161025160209383610631565b810103126100ad57516102006101e0565b3d9150610244565b6040513d5f823e3d90fd5b60405162461bcd60e51b81526020600482015260136024820152721d1c985b9cd9995c919c9bdb4819985a5b1959606a1b6044820152606490fd5b80518015925082156102c5575b5050846101ae565b6102d892506020809183010191016107d3565b84806102bd565b9091506020813d60201161030b575b816102fb60209383610631565b810103126100ad57519083610162565b3d91506102ee565b346100ad575f3660031901126100ad57602061032d610674565b604051908152f35b346100ad5760203660031901126100ad576004356001600160a01b038116908190036100ad575f526001602052602060405f2054604051908152f35b346100ad5760203660031901126100ad57600435335f52600160205260405f2054811161058b575f54801561055a576103b86103d99161022a846103b3610674565b6105df565b91335f52600160205260405f206103d0828254610624565b90555f54610624565b5f556040516370a0823160e01b81523060048201527f00000000000000000000000000000000000000000000000000000000000000006001600160a01b03169190602081602481865afa801561026a5782915f91610525575b50106104e9575f91829182604051602081019263a9059cbb60e01b8452336024830152604482015260448152610469606482610631565b51925af1610475610794565b816104ba575b501561048357005b60405162461bcd60e51b815260206004820152600f60248201526e1d1c985b9cd9995c8819985a5b1959608a1b6044820152606490fd5b80518015925082156104cf575b50508161047b565b6104e292506020809183010191016107d3565b81806104c7565b60405162461bcd60e51b81526020600482015260146024820152731a5b9cdd59999a58da595b9d081bdb881a185b9960621b6044820152606490fd5b9150506020813d602011610552575b8161054160209383610631565b810103126100ad5781905184610432565b3d9150610534565b60405162461bcd60e51b81526020600482015260096024820152686e6f20737570706c7960b81b6044820152606490fd5b60405162461bcd60e51b8152602060048201526013602482015272696e73756666696369656e742073686172657360681b6044820152606490fd5b346100ad575f3660031901126100ad576020905f548152f35b818102929181159184041417156105f257565b634e487b7160e01b5f52601160045260245ffd5b8115610610570490565b634e487b7160e01b5f52601260045260245ffd5b919082039182116105f257565b90601f8019910116810190811067ffffffffffffffff82111761065357604052565b634e487b7160e01b5f52604160045260245ffd5b919082018092116105f257565b6040516370a0823160e01b81523060048201527f00000000000000000000000000000000000000000000000000000000000000006001600160a01b031690602081602481855afa90811561026a575f91610762575b506040516370a0823160e01b815260048101929092526020826024817f00000000000000000000000000000000000000000000000000000000000000006001600160a01b03165afa90811561026a575f9161072c575b6107299250610667565b90565b90506020823d60201161075a575b8161074760209383610631565b810103126100ad5761072991519061071f565b3d915061073a565b90506020813d60201161078c575b8161077d60209383610631565b810103126100ad57515f6106c9565b3d9150610770565b3d156107ce573d9067ffffffffffffffff821161065357604051916107c3601f8201601f191660200184610631565b82523d5f602084013e565b606090565b908160209103126100ad575180151581036100ad579056fea264697066735822122049bc7be5692b19dc7439a3781d876a34838c3186809878d48a502cc0afea81b564736f6c634300081e0033","linkReferences":{}},"methodIdentifiers":{"balance()":"b69ef8a8","balanceOf(address)":"70a08231","controller()":"f77c4791","deposit(uint256)":"b6b55f25","token()":"fc0c546a","totalSupply()":"18160ddd","withdraw(uint256)":"2e1a7d4d"},"id":0}