{"abi":[{"type":"function","name":"balanceOf","inputs":[{"name":"","type":"address","internalType":"address"}],"outputs":[{"name":"","type":"uint256","internalType":"uint256"}],"stateMutability":"pure"}],"bytecode":{"object":"0x608080604052346013576085908160188239f35b5f80fdfe60808060405260043610156011575f80fd5b5f3560e01c6370a08231146023575f80fd5b34604b576020366003190112604b576004356001600160a01b03811603604b57805f60209252f35b5f80fdfea2646970667358221220d416c832f5850bd53dc6d766d5cbdb0dce23d02ed074999ec8044e2435a016d564736f6c634300081e0033","linkReferences":{}},"methodIdentifiers":{"balanceOf(address)":"70a08231"},"id":0}