{"abi":[{"type":"constructor","inputs":[],"stateMutability":"nonpayable"},{"type":"function","name":"depositAll","inputs":[{"name":"vaultAddress","type":"address","internalType":"address"}],"outputs":[],"stateMutability":"nonpayable"},{"type":"function","name":"owner","inputs":[],"outputs":[{"name":"","type":"address","internalType":"address"}],"stateMutability":"view"}],"bytecode":{"object":"0x60a080604052346027573360805261044c908161002c82396080518181816077015260de0152f35b5f80fdfe6080806040526004361015610012575f80fd5b5f3560e01c9081638da5cb5b146100655750639f0d5f2714610032575f80fd5b34610061576020366003190112610061576004356001600160a01b03811681036100615761005f906100dc565b005b5f80fd5b34610061575f366003190112610061577f00000000000000000000000000000000000000000000000000000000000000006001600160a01b03168152602090f35b90601f8019910116810190811067ffffffffffffffff8211176100c857604052565b634e487b7160e01b5f52604160045260245ffd5b7f00000000000000000000000000000000000000000000000000000000000000006001600160a01b031633036103e457604051637e062a3560e11b81526001600160a01b039190911690602081600481855afa9081156102aa575f916103a2575b506040516370a0823160e01b8152306004820152906001600160a01b0316602082602481845afa9182156102aa575f9261036e575b508115610369575f80604051602081019063095ea7b360e01b8252866024820152826044820152604481526101a86064826100a6565b519082855af13d15610362573d67ffffffffffffffff81116100c857604051906101dc601f8201601f1916602001836100a6565b81523d5f602083013e5b8161032a575b50156102b5575f809160405182602082019163095ea7b360e01b8352876024820152866044820152604481526102236064826100a6565b51925af13d15610323573d67ffffffffffffffff81116100c85760405190610255601f8201601f1916602001836100a6565b81523d5f602083013e5b816102eb575b50156102b557813b15610061575f9160248392604051948593849263b6b55f2560e01b845260048401525af180156102aa5761029e5750565b5f6102a8916100a6565b565b6040513d5f823e3d90fd5b60405162461bcd60e51b815260206004820152600e60248201526d185c1c1c9bdd994819985a5b195960921b6044820152606490fd5b8051801592508215610300575b50505f610265565b819250906020918101031261006157602001518015158103610061575f806102f8565b606061025f565b805180159250821561033f575b50505f6101ec565b819250906020918101031261006157602001518015158103610061575f80610337565b60606101e6565b505050565b9091506020813d60201161039a575b8161038a602093836100a6565b810103126100615751905f610172565b3d915061037d565b90506020813d6020116103dc575b816103bd602093836100a6565b8101031261006157516001600160a01b0381168103610061575f61013d565b3d91506103b0565b60405162461bcd60e51b815260206004820152600a60248201526937b7363c9037bbb732b960b11b6044820152606490fdfea26469706673582212208c0850024eb535e696000460f0579fd11148848f2e042e03cf9efd0edc5bc53364736f6c634300081e0033","linkReferences":{}},"methodIdentifiers":{"depositAll(address)":"9f0d5f27","owner()":"8da5cb5b"},"id":0}