{"abi":[{"type":"constructor","inputs":[],"stateMutability":"nonpayable"},{"type":"receive","stateMutability":"payable"},{"type":"function","name":"EXPECTED_CHAIN_ID","inputs":[],"outputs":[{"name":"","type":"uint256","internalType":"uint256"}],"stateMutability":"view"},{"type":"function","name":"HEX","inputs":[],"outputs":[{"name":"","type":"address","internalType":"address"}],"stateMutability":"view"},{"type":"function","name":"TARGET","inputs":[],"outputs":[{"name":"","type":"address","internalType":"address"}],"stateMutability":"view"},{"type":"function","name":"ethBackedOffersObserved","inputs":[],"outputs":[{"name":"","type":"uint256","internalType":"uint256"}],"stateMutability":"view"},{"type":"function","name":"execute","inputs":[],"outputs":[{"name":"","type":"uint256","internalType":"uint256"}],"stateMutability":"nonpayable"},{"type":"function","name":"executed","inputs":[],"outputs":[{"name":"","type":"bool","internalType":"bool"}],"stateMutability":"view"},{"type":"function","name":"exploit","inputs":[],"outputs":[{"name":"","type":"uint256","internalType":"uint256"}],"stateMutability":"nonpayable"},{"type":"function","name":"exploitPathMask","inputs":[],"outputs":[{"name":"","type":"uint256","internalType":"uint256"}],"stateMutability":"view"},{"type":"function","name":"hexBackedOffersObserved","inputs":[],"outputs":[{"name":"","type":"uint256","internalType":"uint256"}],"stateMutability":"view"},{"type":"function","name":"hexCodeHash","inputs":[],"outputs":[{"name":"","type":"bytes32","internalType":"bytes32"}],"stateMutability":"view"},{"type":"function","name":"hypothesisRefuted","inputs":[],"outputs":[{"name":"","type":"bool","internalType":"bool"}],"stateMutability":"view"},{"type":"function","name":"hypothesisValidated","inputs":[],"outputs":[{"name":"","type":"bool","internalType":"bool"}],"stateMutability":"view"},{"type":"function","name":"observedChainId","inputs":[],"outputs":[{"name":"","type":"uint256","internalType":"uint256"}],"stateMutability":"view"},{"type":"function","name":"observedLastOfferId","inputs":[],"outputs":[{"name":"","type":"uint256","internalType":"uint256"}],"stateMutability":"view"},{"type":"function","name":"profitAmount","inputs":[],"outputs":[{"name":"","type":"uint256","internalType":"uint256"}],"stateMutability":"view"},{"type":"function","name":"profitToken","inputs":[],"outputs":[{"name":"","type":"address","internalType":"address"}],"stateMutability":"view"},{"type":"function","name":"run","inputs":[],"outputs":[{"name":"","type":"uint256","internalType":"uint256"}],"stateMutability":"nonpayable"},{"type":"function","name":"targetCodeHash","inputs":[],"outputs":[{"name":"","type":"bytes32","internalType":"bytes32"}],"stateMutability":"view"}],"bytecode":{"object":"0x6080604052348015600e575f5ffd5b50610bdd8061001c5f395ff3fe60806040526004361061010c575f3560e01c806363d9b77011610094578063bdabcdcc11610063578063bdabcdcc14610339578063bec00d8714610363578063c04062261461038d578063c1ffb3df146103b7578063cc1f2afa146103e157610113565b806363d9b7701461029157806364b3b78e146102bb578063884ff703146102e5578063aa4dd3311461030f57610113565b806349343624116100db57806349343624146101bf578063495f92f1146101e957806354f163b0146102135780635ff972cc1461023d578063614619541461026757610113565b80631d558966146101175780632b0c39471461014157806331a38c891461016b578063463defd11461019557610113565b3661011357005b5f5ffd5b348015610122575f5ffd5b5061012b61040b565b60405161013891906108df565b60405180910390f35b34801561014c575f5ffd5b50610155610423565b6040516101629190610910565b60405180910390f35b348015610176575f5ffd5b5061017f610429565b60405161018c9190610943565b60405180910390f35b3480156101a0575f5ffd5b506101a961043a565b6040516101b69190610943565b60405180910390f35b3480156101ca575f5ffd5b506101d361044c565b6040516101e091906108df565b60405180910390f35b3480156101f4575f5ffd5b506101fd610471565b60405161020a9190610943565b60405180910390f35b34801561021e575f5ffd5b50610227610483565b6040516102349190610974565b60405180910390f35b348015610248575f5ffd5b50610251610489565b60405161025e9190610974565b60405180910390f35b348015610272575f5ffd5b5061027b61048f565b6040516102889190610974565b60405180910390f35b34801561029c575f5ffd5b506102a561049d565b6040516102b29190610974565b60405180910390f35b3480156102c6575f5ffd5b506102cf6104ab565b6040516102dc9190610974565b60405180910390f35b3480156102f0575f5ffd5b506102f96104b1565b6040516103069190610974565b60405180910390f35b34801561031a575f5ffd5b506103236104b7565b6040516103309190610974565b60405180910390f35b348015610344575f5ffd5b5061034d6104bd565b60405161035a9190610974565b60405180910390f35b34801561036e575f5ffd5b506103776104c3565b6040516103849190610910565b60405180910390f35b348015610398575f5ffd5b506103a16104c9565b6040516103ae9190610974565b60405180910390f35b3480156103c2575f5ffd5b506103cb6104d7565b6040516103d89190610974565b60405180910390f35b3480156103ec575f5ffd5b506103f56104dc565b60405161040291906108df565b60405180910390f35b732b591e99afe9f32eaa6214f7b7629768c40eeb3981565b60035481565b5f5f9054906101000a900460ff1681565b5f60019054906101000a900460ff1681565b60085f9054906101000a900473ffffffffffffffffffffffffffffffffffffffff1681565b5f60029054906101000a900460ff1681565b60075481565b60095481565b5f6104986104f4565b905090565b5f6104a66104f4565b905090565b60025481565b60065481565b60055481565b60015481565b60045481565b5f6104d26104f4565b905090565b600181565b73204b937feaec333e9e6d72d35f1d131f187ecea181565b5f5f5f9054906101000a900460ff16156105125760095490506106e9565b60015f5f6101000a81548160ff0219169083151502179055504660018190555073204b937feaec333e9e6d72d35f1d131f187ecea173ffffffffffffffffffffffffffffffffffffffff1663232cae0b6040518163ffffffff1660e01b8152600401602060405180830381865afa15801561058f573d5f5f3e3d5ffd5b505050506040513d601f19601f820116820180604052508101906105b391906109bb565b6002819055506105d673204b937feaec333e9e6d72d35f1d131f187ecea16106ec565b6003819055506105f9732b591e99afe9f32eaa6214f7b7629768c40eeb396106ec565b6004819055506106076106f6565b61060f61084c565b1561062557600160075f82825417925050819055505b61062d61084c565b1561064357600260075f82825417925050819055505b61064b61084c565b1561066157600460075f82825417925050819055505b5f60075414155f60016101000a81548160ff0219169083151502179055505f600754145f60026101000a81548160ff0219169083151502179055505f60085f6101000a81548173ffffffffffffffffffffffffffffffffffffffff021916908373ffffffffffffffffffffffffffffffffffffffff1602179055505f60098190555060095490505b90565b5f813f9050919050565b5f60025490505f6018821161070c57600161071a565b6018826107199190610a13565b5b90505f8190505b828111610847575f5f5f5f73204b937feaec333e9e6d72d35f1d131f187ecea173ffffffffffffffffffffffffffffffffffffffff16638a72ea6a866040518263ffffffff1660e01b81526004016107799190610974565b60c060405180830381865afa158015610794573d5f5f3e3d5ffd5b505050506040513d601f19601f820116820180604052508101906107b89190610ad7565b955050945050935093505f8267ffffffffffffffff1614806107d957505f84145b806107e357505f83145b156107f15750505050610836565b600181036108135760055f815461080790610b60565b91905081905550610831565b5f81036108305760065f815461082890610b60565b919050819055505b5b505050505b8061084090610b60565b9050610721565b505050565b5f6001461461085e576001905061089d565b5f732b591e99afe9f32eaa6214f7b7629768c40eeb3973ffffffffffffffffffffffffffffffffffffffff163b03610899576001905061089d565b5f90505b90565b5f73ffffffffffffffffffffffffffffffffffffffff82169050919050565b5f6108c9826108a0565b9050919050565b6108d9816108bf565b82525050565b5f6020820190506108f25f8301846108d0565b92915050565b5f819050919050565b61090a816108f8565b82525050565b5f6020820190506109235f830184610901565b92915050565b5f8115159050919050565b61093d81610929565b82525050565b5f6020820190506109565f830184610934565b92915050565b5f819050919050565b61096e8161095c565b82525050565b5f6020820190506109875f830184610965565b92915050565b5f5ffd5b61099a8161095c565b81146109a4575f5ffd5b50565b5f815190506109b581610991565b92915050565b5f602082840312156109d0576109cf61098d565b5b5f6109dd848285016109a7565b91505092915050565b7f4e487b71000000000000000000000000000000000000000000000000000000005f52601160045260245ffd5b5f610a1d8261095c565b9150610a288361095c565b9250828203905081811115610a4057610a3f6109e6565b5b92915050565b610a4f816108bf565b8114610a59575f5ffd5b50565b5f81519050610a6a81610a46565b92915050565b5f67ffffffffffffffff82169050919050565b610a8c81610a70565b8114610a96575f5ffd5b50565b5f81519050610aa781610a83565b92915050565b610ab6816108f8565b8114610ac0575f5ffd5b50565b5f81519050610ad181610aad565b92915050565b5f5f5f5f5f5f60c08789031215610af157610af061098d565b5b5f610afe89828a016109a7565b9650506020610b0f89828a016109a7565b9550506040610b2089828a01610a5c565b9450506060610b3189828a01610a99565b9350506080610b4289828a01610ac3565b92505060a0610b5389828a016109a7565b9150509295509295509295565b5f610b6a8261095c565b91507fffffffffffffffffffffffffffffffffffffffffffffffffffffffffffffffff8203610b9c57610b9b6109e6565b5b60018201905091905056fea2646970667358221220aeaf45d83d4aca7f7da3a2811bda4fcccd4dc593cc11de81908bcec679ead3bd64736f6c634300081e0033","linkReferences":{}},"methodIdentifiers":{"EXPECTED_CHAIN_ID()":"c1ffb3df","HEX()":"1d558966","TARGET()":"cc1f2afa","ethBackedOffersObserved()":"aa4dd331","execute()":"61461954","executed()":"31a38c89","exploit()":"63d9b770","exploitPathMask()":"54f163b0","hexBackedOffersObserved()":"884ff703","hexCodeHash()":"bec00d87","hypothesisRefuted()":"495f92f1","hypothesisValidated()":"463defd1","observedChainId()":"bdabcdcc","observedLastOfferId()":"64b3b78e","profitAmount()":"5ff972cc","profitToken()":"49343624","run()":"c0406226","targetCodeHash()":"2b0c3947"},"id":0}