{"abi":[{"type":"constructor","inputs":[],"stateMutability":"nonpayable"},{"type":"function","name":"DAI","inputs":[],"outputs":[{"name":"","type":"address","internalType":"address"}],"stateMutability":"view"},{"type":"function","name":"SUSHI_FACTORY","inputs":[],"outputs":[{"name":"","type":"address","internalType":"address"}],"stateMutability":"view"},{"type":"function","name":"TARGET_POOL","inputs":[],"outputs":[{"name":"","type":"address","internalType":"address"}],"stateMutability":"view"},{"type":"function","name":"UNISWAP_V2_FACTORY","inputs":[],"outputs":[{"name":"","type":"address","internalType":"address"}],"stateMutability":"view"},{"type":"function","name":"USDC","inputs":[],"outputs":[{"name":"","type":"address","internalType":"address"}],"stateMutability":"view"},{"type":"function","name":"USDT","inputs":[],"outputs":[{"name":"","type":"address","internalType":"address"}],"stateMutability":"view"},{"type":"function","name":"WETH","inputs":[],"outputs":[{"name":"","type":"address","internalType":"address"}],"stateMutability":"view"},{"type":"function","name":"attemptDirectLpAcquisition","inputs":[],"outputs":[],"stateMutability":"nonpayable"},{"type":"function","name":"attemptExistingLpExit","inputs":[],"outputs":[],"stateMutability":"nonpayable"},{"type":"function","name":"attemptFlashLp","inputs":[],"outputs":[],"stateMutability":"nonpayable"},{"type":"function","name":"executeOnOpportunity","inputs":[],"outputs":[],"stateMutability":"nonpayable"},{"type":"function","name":"profitAmount","inputs":[],"outputs":[{"name":"","type":"uint256","internalType":"uint256"}],"stateMutability":"view"},{"type":"function","name":"profitToken","inputs":[],"outputs":[{"name":"","type":"address","internalType":"address"}],"stateMutability":"view"},{"type":"function","name":"uniswapV2Call","inputs":[{"name":"sender","type":"address","internalType":"address"},{"name":"amount0","type":"uint256","internalType":"uint256"},{"name":"amount1","type":"uint256","internalType":"uint256"},{"name":"","type":"bytes","internalType":"bytes"}],"outputs":[],"stateMutability":"nonpayable"}],"bytecode":{"object":"0x6080604052348015600e575f5ffd5b506145e68061001c5f395ff3fe608060405234801561000f575f5ffd5b50600436106100e8575f3560e01c806382cd4beb1161008a578063ad5c464811610064578063ad5c4648146101c6578063b753bb47146101e4578063c54e44eb14610202578063e0bab4c414610220576100e8565b806382cd4beb1461018057806389a302711461018a57806399d8fae3146101a8576100e8565b80633c2448ed116100c65780633c2448ed1461013057806342ab78f01461013a57806349343624146101445780635ff972cc14610162576100e8565b806310d1e85c146100ec578063181e0cc6146101085780632d2cbb8b14610126575b5f5ffd5b61010660048036038101906101019190613727565b61023e565b005b6101106105ef565b60405161011d91906137ba565b60405180910390f35b61012e610607565b005b610138610b6a565b005b610142610dff565b005b61014c61148b565b60405161015991906137ba565b60405180910390f35b61016a6114b2565b60405161017791906137e2565b60405180910390f35b6101886114bb565b005b61019261187a565b60405161019f91906137ba565b60405180910390f35b6101b0611892565b6040516101bd91906137ba565b60405180910390f35b6101ce6118aa565b6040516101db91906137ba565b60405180910390f35b6101ec6118c2565b6040516101f991906137ba565b60405180910390f35b61020a6118da565b60405161021791906137ba565b60405180910390f35b6102286118f2565b60405161023591906137ba565b60405180910390f35b3073ffffffffffffffffffffffffffffffffffffffff168573ffffffffffffffffffffffffffffffffffffffff16146102ac576040517f08c379a00000000000000000000000000000000000000000000000000000000081526004016102a390613855565b60405180910390fd5b6001600354146102f1576040517f08c379a00000000000000000000000000000000000000000000000000000000081526004016102e8906138bd565b60405180910390fd5b60045f9054906101000a900473ffffffffffffffffffffffffffffffffffffffff1673ffffffffffffffffffffffffffffffffffffffff163373ffffffffffffffffffffffffffffffffffffffff1614610380576040517f08c379a000000000000000000000000000000000000000000000000000000000815260040161037790613925565b60405180910390fd5b5f73ccd04073f4bdc4510927ea9ba350875c3c65bf8190505f8173ffffffffffffffffffffffffffffffffffffffff16630b36628d6040518163ffffffff1660e01b8152600401602060405180830381865afa1580156103e2573d5f5f3e3d5ffd5b505050506040513d601f19601f820116820180604052508101906104069190613957565b90505f610413838361190a565b90505f61041f82611a3b565b90505f5f891161042f5787610431565b885b90506006548114610477576040517f08c379a000000000000000000000000000000000000000000000000000000000815260040161046e906139cc565b60405180910390fd5b610482858286611b59565b6104ae838360055f9054906101000a900473ffffffffffffffffffffffffffffffffffffffff16611c15565b6104b785611d68565b60075460055f9054906101000a900473ffffffffffffffffffffffffffffffffffffffff1673ffffffffffffffffffffffffffffffffffffffff166370a08231306040518263ffffffff1660e01b815260040161051491906137ba565b602060405180830381865afa15801561052f573d5f5f3e3d5ffd5b505050506040513d601f19601f820116820180604052508101906105539190613957565b1015610594576040517f08c379a000000000000000000000000000000000000000000000000000000000815260040161058b90613a34565b60405180910390fd5b6105e360055f9054906101000a900473ffffffffffffffffffffffffffffffffffffffff1660045f9054906101000a900473ffffffffffffffffffffffffffffffffffffffff16600754611f99565b50505050505050505050565b73ccd04073f4bdc4510927ea9ba350875c3c65bf8181565b3073ffffffffffffffffffffffffffffffffffffffff163373ffffffffffffffffffffffffffffffffffffffff1614610675576040517f08c379a000000000000000000000000000000000000000000000000000000000815260040161066c90613a9c565b60405180910390fd5b5f73ccd04073f4bdc4510927ea9ba350875c3c65bf8190505f8173ffffffffffffffffffffffffffffffffffffffff1663fc0c546a6040518163ffffffff1660e01b8152600401602060405180830381865afa1580156106d7573d5f5f3e3d5ffd5b505050506040513d601f19601f820116820180604052508101906106fb9190613ace565b90505f8273ffffffffffffffffffffffffffffffffffffffff16630b36628d6040518163ffffffff1660e01b8152600401602060405180830381865afa158015610747573d5f5f3e3d5ffd5b505050506040513d601f19601f8201168201806040525081019061076b9190613957565b90505f610778848361190a565b90505f610784826120e8565b90505f5f90505b8151811015610b2c575f8282815181106107a8576107a7613af9565b5b602002602001015190505f73ffffffffffffffffffffffffffffffffffffffff168173ffffffffffffffffffffffffffffffffffffffff16148061081757508573ffffffffffffffffffffffffffffffffffffffff168173ffffffffffffffffffffffffffffffffffffffff16145b156108225750610b21565b5f8173ffffffffffffffffffffffffffffffffffffffff166370a08231306040518263ffffffff1660e01b815260040161085c91906137ba565b602060405180830381865afa158015610877573d5f5f3e3d5ffd5b505050506040513d601f19601f8201168201806040525081019061089b9190613957565b90505f81036108ab575050610b21565b5f6108b68884612360565b90505f73ffffffffffffffffffffffffffffffffffffffff168173ffffffffffffffffffffffffffffffffffffffff16036108f357505050610b21565b5f61271061270f846109059190613b53565b61090f9190613bc1565b90505f81036109215750505050610b21565b5f61092b88611a3b565b90505f8a73ffffffffffffffffffffffffffffffffffffffff166370a08231306040518263ffffffff1660e01b815260040161096791906137ba565b602060405180830381865afa158015610982573d5f5f3e3d5ffd5b505050506040513d601f19601f820116820180604052508101906109a69190613957565b90506109b584878d86306124bb565b5f818c73ffffffffffffffffffffffffffffffffffffffff166370a08231306040518263ffffffff1660e01b81526004016109f091906137ba565b602060405180830381865afa158015610a0b573d5f5f3e3d5ffd5b505050506040513d601f19601f82011682018060405250810190610a2f9190613957565b610a399190613bf1565b90505f8103610a4e5750505050505050610b21565b610a598d828d611b59565b610a648a8489611c15565b610a6d8d611d68565b5f8773ffffffffffffffffffffffffffffffffffffffff166370a08231306040518263ffffffff1660e01b8152600401610aa791906137ba565b602060405180830381865afa158015610ac2573d5f5f3e3d5ffd5b505050506040513d601f19601f82011682018060405250810190610ae69190613957565b905086811115610b1857610b05888883610b009190613bf1565b612746565b5050505050505050505050505050610b68565b50505050505050505b80600101905061078b565b506040517f08c379a0000000000000000000000000000000000000000000000000000000008152600401610b5f90613c6e565b60405180910390fd5b565b60025f9054906101000a900460ff1615610bb9576040517f08c379a0000000000000000000000000000000000000000000000000000000008152600401610bb090613cd6565b60405180910390fd5b600160025f6101000a81548160ff0219169083151502179055505f5f5f6101000a81548173ffffffffffffffffffffffffffffffffffffffff021916908373ffffffffffffffffffffffffffffffffffffffff1602179055505f6001819055505f610c2261279b565b148015610c345750610c3261287f565b155b15610c57575f60025f6101000a81548160ff021916908315150217905550610dfd565b3073ffffffffffffffffffffffffffffffffffffffff166382cd4beb6040518163ffffffff1660e01b81526004015f604051808303815f87803b158015610c9c575f5ffd5b505af1925050508015610cad575060015b15610cdb575f6001541115610cda575f60025f6101000a81548160ff021916908315150217905550610dfd565b5b3073ffffffffffffffffffffffffffffffffffffffff16632d2cbb8b6040518163ffffffff1660e01b81526004015f604051808303815f87803b158015610d20575f5ffd5b505af1925050508015610d31575060015b15610d5f575f6001541115610d5e575f60025f6101000a81548160ff021916908315150217905550610dfd565b5b3073ffffffffffffffffffffffffffffffffffffffff166342ab78f06040518163ffffffff1660e01b81526004015f604051808303815f87803b158015610da4575f5ffd5b505af1925050508015610db5575060015b15610de3575f6001541115610de2575f60025f6101000a81548160ff021916908315150217905550610dfd565b5b5f60025f6101000a81548160ff0219169083151502179055505b565b3073ffffffffffffffffffffffffffffffffffffffff163373ffffffffffffffffffffffffffffffffffffffff1614610e6d576040517f08c379a0000000000000000000000000000000000000000000000000000000008152600401610e6490613a9c565b60405180910390fd5b5f73ccd04073f4bdc4510927ea9ba350875c3c65bf8190505f8173ffffffffffffffffffffffffffffffffffffffff1663fc0c546a6040518163ffffffff1660e01b8152600401602060405180830381865afa158015610ecf573d5f5f3e3d5ffd5b505050506040513d601f19601f82011682018060405250810190610ef39190613ace565b90505f604051806080016040528073c02aaa39b223fe8d0a0e5c4f27ead9083c756cc273ffffffffffffffffffffffffffffffffffffffff1673ffffffffffffffffffffffffffffffffffffffff16815260200173a0b86991c6218b36c1d19d4a2e9eb0ce3606eb4873ffffffffffffffffffffffffffffffffffffffff1673ffffffffffffffffffffffffffffffffffffffff16815260200173dac17f958d2ee523a2206206994597c13d831ec773ffffffffffffffffffffffffffffffffffffffff1673ffffffffffffffffffffffffffffffffffffffff168152602001736b175474e89094c44da98b954eedeac495271d0f73ffffffffffffffffffffffffffffffffffffffff1673ffffffffffffffffffffffffffffffffffffffff1681525090505f5f90505b600481101561144d575f82826004811061103b5761103a613af9565b5b602002015190508373ffffffffffffffffffffffffffffffffffffffff168173ffffffffffffffffffffffffffffffffffffffff160361107b5750611442565b5f6110868583612360565b90505f73ffffffffffffffffffffffffffffffffffffffff168173ffffffffffffffffffffffffffffffffffffffff16036110c2575050611442565b5f5f6110cf838886612a63565b915091505f8214806110e057505f81145b156110ee5750505050611442565b5f6014836110fc9190613bc1565b90505f81148061110c5750828110155b1561111b575050505050611442565b60016003819055508360045f6101000a81548173ffffffffffffffffffffffffffffffffffffffff021916908373ffffffffffffffffffffffffffffffffffffffff1602179055508460055f6101000a81548173ffffffffffffffffffffffffffffffffffffffff021916908373ffffffffffffffffffffffffffffffffffffffff160217905550806006819055506111b5818385612d88565b6007819055505f8573ffffffffffffffffffffffffffffffffffffffff166370a08231306040518263ffffffff1660e01b81526004016111f591906137ba565b602060405180830381865afa158015611210573d5f5f3e3d5ffd5b505050506040513d601f19601f820116820180604052508101906112349190613957565b90505f5f8a73ffffffffffffffffffffffffffffffffffffffff168773ffffffffffffffffffffffffffffffffffffffff16630dfe16816040518163ffffffff1660e01b8152600401602060405180830381865afa158015611298573d5f5f3e3d5ffd5b505050506040513d601f19601f820116820180604052508101906112bc9190613ace565b73ffffffffffffffffffffffffffffffffffffffff16146112de575f846112e1565b835f5b915091508673ffffffffffffffffffffffffffffffffffffffff1663022c0d9f8383306040518060400160405280600881526020017f666c6173682d6c700000000000000000000000000000000000000000000000008152506040518563ffffffff1660e01b81526004016113599493929190613d64565b5f604051808303815f87803b158015611370575f5ffd5b505af1158015611382573d5f5f3e3d5ffd5b505050505f8873ffffffffffffffffffffffffffffffffffffffff166370a08231306040518263ffffffff1660e01b81526004016113c091906137ba565b602060405180830381865afa1580156113db573d5f5f3e3d5ffd5b505050506040513d601f19601f820116820180604052508101906113ff9190613957565b9050611409612e1c565b83811115611438576114268985836114219190613bf1565b612746565b50505050505050505050505050611489565b5050505050505050505b80600101905061101e565b506040517f08c379a000000000000000000000000000000000000000000000000000000000815260040161148090613df8565b60405180910390fd5b565b5f5f5f9054906101000a900473ffffffffffffffffffffffffffffffffffffffff16905090565b5f600154905090565b3073ffffffffffffffffffffffffffffffffffffffff163373ffffffffffffffffffffffffffffffffffffffff1614611529576040517f08c379a000000000000000000000000000000000000000000000000000000000815260040161152090613a9c565b60405180910390fd5b5f73ccd04073f4bdc4510927ea9ba350875c3c65bf8190505f8173ffffffffffffffffffffffffffffffffffffffff1663fc0c546a6040518163ffffffff1660e01b8152600401602060405180830381865afa15801561158b573d5f5f3e3d5ffd5b505050506040513d601f19601f820116820180604052508101906115af9190613ace565b90505f8173ffffffffffffffffffffffffffffffffffffffff166370a08231306040518263ffffffff1660e01b81526004016115eb91906137ba565b602060405180830381865afa158015611606573d5f5f3e3d5ffd5b505050506040513d601f19601f8201168201806040525081019061162a9190613957565b90505f811161166e576040517f08c379a000000000000000000000000000000000000000000000000000000000815260040161166590613e60565b60405180910390fd5b5f8373ffffffffffffffffffffffffffffffffffffffff16630b36628d6040518163ffffffff1660e01b8152600401602060405180830381865afa1580156116b8573d5f5f3e3d5ffd5b505050506040513d601f19601f820116820180604052508101906116dc9190613957565b90505f6116e9858361190a565b90505f6116f582612eb3565b90505f61170183611a3b565b90505f8273ffffffffffffffffffffffffffffffffffffffff166370a08231306040518263ffffffff1660e01b815260040161173d91906137ba565b602060405180830381865afa158015611758573d5f5f3e3d5ffd5b505050506040513d601f19601f8201168201806040525081019061177c9190613957565b9050611789888787611b59565b611794848385611c15565b61179d88611d68565b5f8373ffffffffffffffffffffffffffffffffffffffff166370a08231306040518263ffffffff1660e01b81526004016117d791906137ba565b602060405180830381865afa1580156117f2573d5f5f3e3d5ffd5b505050506040513d601f19601f820116820180604052508101906118169190613957565b905081811161185a576040517f08c379a000000000000000000000000000000000000000000000000000000000815260040161185190613ec8565b60405180910390fd5b61186f84838361186a9190613bf1565b612746565b505050505050505050565b73a0b86991c6218b36c1d19d4a2e9eb0ce3606eb4881565b735c69bee701ef814a2b6a3edd4b1652cb9cc5aa6f81565b73c02aaa39b223fe8d0a0e5c4f27ead9083c756cc281565b73c0aee478e3658e2610c5f7a4a2e1777ce9e4f2ac81565b73dac17f958d2ee523a2206206994597c13d831ec781565b736b175474e89094c44da98b954eedeac495271d0f81565b60608167ffffffffffffffff81111561192657611925613ee6565b5b6040519080825280602002602001820160405280156119545781602001602082028036833780820191505090505b5090505f5f90505b82811015611a34578373ffffffffffffffffffffffffffffffffffffffff1663cf35bdd0826040518263ffffffff1660e01b815260040161199d91906137e2565b602060405180830381865afa1580156119b8573d5f5f3e3d5ffd5b505050506040513d601f19601f820116820180604052508101906119dc9190613ace565b8282815181106119ef576119ee613af9565b5b602002602001019073ffffffffffffffffffffffffffffffffffffffff16908173ffffffffffffffffffffffffffffffffffffffff168152505080600101905061195c565b5092915050565b6060815167ffffffffffffffff811115611a5857611a57613ee6565b5b604051908082528060200260200182016040528015611a865781602001602082028036833780820191505090505b5090505f5f90505b8251811015611b5357828181518110611aaa57611aa9613af9565b5b602002602001015173ffffffffffffffffffffffffffffffffffffffff166370a08231306040518263ffffffff1660e01b8152600401611aea91906137ba565b602060405180830381865afa158015611b05573d5f5f3e3d5ffd5b505050506040513d601f19601f82011682018060405250810190611b299190613957565b828281518110611b3c57611b3b613af9565b5b602002602001018181525050806001019050611a8e565b50919050565b5f8167ffffffffffffffff811115611b7457611b73613ee6565b5b604051908082528060200260200182016040528015611ba25781602001602082028036833780820191505090505b5090508373ffffffffffffffffffffffffffffffffffffffff16635e604cd28483306040518463ffffffff1660e01b8152600401611be293929190613fca565b5f604051808303815f87803b158015611bf9575f5ffd5b505af1158015611c0b573d5f5f3e3d5ffd5b5050505050505050565b5f5f90505b8351811015611d62575f848281518110611c3757611c36613af9565b5b602002602001015190505f8173ffffffffffffffffffffffffffffffffffffffff166370a08231306040518263ffffffff1660e01b8152600401611c7b91906137ba565b602060405180830381865afa158015611c96573d5f5f3e3d5ffd5b505050506040513d601f19601f82011682018060405250810190611cba9190613957565b9050848381518110611ccf57611cce613af9565b5b60200260200101518111611ce4575050611d57565b5f858481518110611cf857611cf7613af9565b5b602002602001015182611d0b9190613bf1565b90508473ffffffffffffffffffffffffffffffffffffffff168373ffffffffffffffffffffffffffffffffffffffff1603611d4857505050611d57565b611d53838683612f8b565b5050505b806001019050611c1a565b50505050565b5f611d7161279b565b90505f811115611f17575f8167ffffffffffffffff811115611d9657611d95613ee6565b5b604051908082528060200260200182016040528015611dc45781602001602082028036833780820191505090505b5090505f5f90505f8473ffffffffffffffffffffffffffffffffffffffff16630b36628d6040518163ffffffff1660e01b8152600401602060405180830381865afa158015611e15573d5f5f3e3d5ffd5b505050506040513d601f19601f82011682018060405250810190611e399190613957565b90505f5f90505b81811015611eb0575f5f611e548884613322565b915091505f82118015611e6657505f81115b8015611e7157508181105b15611ea35782868681518110611e8a57611e89613af9565b5b60200260200101818152505084611ea090614006565b94505b5050806001019050611e40565b508473ffffffffffffffffffffffffffffffffffffffff16634fa0e817846040518263ffffffff1660e01b8152600401611eea919061404d565b5f604051808303815f87803b158015611f01575f5ffd5b505af1925050508015611f12575060015b505050505b611f1f61287f565b15611f95578173ffffffffffffffffffffffffffffffffffffffff1663e355a6d16040518163ffffffff1660e01b81526004016020604051808303815f875af1925050508015611f8d57506040513d601f19601f82011682018060405250810190611f8a91906140a2565b60015b15611f9457505b5b5050565b5f5f8473ffffffffffffffffffffffffffffffffffffffff1663a9059cbb60e01b8585604051602401611fcd9291906140cd565b604051602081830303815290604052907bffffffffffffffffffffffffffffffffffffffffffffffffffffffff19166020820180517bffffffffffffffffffffffffffffffffffffffffffffffffffffffff8381831617835250505050604051612037919061412e565b5f604051808303815f865af19150503d805f8114612070576040519150601f19603f3d011682016040523d82523d5f602084013e612075565b606091505b50915091508180156120a257505f815114806120a15750808060200190518101906120a091906140a2565b5b5b6120e1576040517f08c379a00000000000000000000000000000000000000000000000000000000081526004016120d89061418e565b60405180910390fd5b5050505050565b6060600482516120f891906141ac565b67ffffffffffffffff81111561211157612110613ee6565b5b60405190808252806020026020018201604052801561213f5781602001602082028036833780820191505090505b50905073c02aaa39b223fe8d0a0e5c4f27ead9083c756cc2815f8151811061216a57612169613af9565b5b602002602001019073ffffffffffffffffffffffffffffffffffffffff16908173ffffffffffffffffffffffffffffffffffffffff168152505073a0b86991c6218b36c1d19d4a2e9eb0ce3606eb48816001815181106121cd576121cc613af9565b5b602002602001019073ffffffffffffffffffffffffffffffffffffffff16908173ffffffffffffffffffffffffffffffffffffffff168152505073dac17f958d2ee523a2206206994597c13d831ec7816002815181106122305761222f613af9565b5b602002602001019073ffffffffffffffffffffffffffffffffffffffff16908173ffffffffffffffffffffffffffffffffffffffff1681525050736b175474e89094c44da98b954eedeac495271d0f8160038151811061229357612292613af9565b5b602002602001019073ffffffffffffffffffffffffffffffffffffffff16908173ffffffffffffffffffffffffffffffffffffffff16815250505f5f90505b825181101561235a578281815181106122ee576122ed613af9565b5b60200260200101518282600461230491906141ac565b8151811061231557612314613af9565b5b602002602001019073ffffffffffffffffffffffffffffffffffffffff16908173ffffffffffffffffffffffffffffffffffffffff16815250508060010190506122d2565b50919050565b5f73c0aee478e3658e2610c5f7a4a2e1777ce9e4f2ac73ffffffffffffffffffffffffffffffffffffffff1663e6a4390584846040518363ffffffff1660e01b81526004016123b09291906141df565b602060405180830381865afa1580156123cb573d5f5f3e3d5ffd5b505050506040513d601f19601f820116820180604052508101906123ef9190613ace565b90505f73ffffffffffffffffffffffffffffffffffffffff168173ffffffffffffffffffffffffffffffffffffffff16036124b557735c69bee701ef814a2b6a3edd4b1652cb9cc5aa6f73ffffffffffffffffffffffffffffffffffffffff1663e6a4390584846040518363ffffffff1660e01b81526004016124739291906141df565b602060405180830381865afa15801561248e573d5f5f3e3d5ffd5b505050506040513d601f19601f820116820180604052508101906124b29190613ace565b90505b92915050565b5f5f6124c8878787612a63565b915091505f6124d88584846135c1565b90505f811161251c576040517f08c379a000000000000000000000000000000000000000000000000000000000815260040161251390614250565b60405180910390fd5b612527878987611f99565b8673ffffffffffffffffffffffffffffffffffffffff168873ffffffffffffffffffffffffffffffffffffffff16630dfe16816040518163ffffffff1660e01b8152600401602060405180830381865afa158015612587573d5f5f3e3d5ffd5b505050506040513d601f19601f820116820180604052508101906125ab9190613ace565b73ffffffffffffffffffffffffffffffffffffffff1603612683578773ffffffffffffffffffffffffffffffffffffffff1663022c0d9f5f83875f67ffffffffffffffff8111156125ff576125fe613ee6565b5b6040519080825280601f01601f1916602001820160405280156126315781602001600182028036833780820191505090505b506040518563ffffffff1660e01b815260040161265194939291906142b0565b5f604051808303815f87803b158015612668575f5ffd5b505af115801561267a573d5f5f3e3d5ffd5b5050505061273c565b8773ffffffffffffffffffffffffffffffffffffffff1663022c0d9f825f875f67ffffffffffffffff8111156126bc576126bb613ee6565b5b6040519080825280601f01601f1916602001820160405280156126ee5781602001600182028036833780820191505090505b506040518563ffffffff1660e01b815260040161270e94939291906142fa565b5f604051808303815f87803b158015612725575f5ffd5b505af1158015612737573d5f5f3e3d5ffd5b505050505b5050505050505050565b60015481111561279757815f5f6101000a81548173ffffffffffffffffffffffffffffffffffffffff021916908373ffffffffffffffffffffffffffffffffffffffff160217905550806001819055505b5050565b5f5f73ccd04073f4bdc4510927ea9ba350875c3c65bf8190505f8173ffffffffffffffffffffffffffffffffffffffff16630b36628d6040518163ffffffff1660e01b8152600401602060405180830381865afa1580156127fe573d5f5f3e3d5ffd5b505050506040513d601f19601f820116820180604052508101906128229190613957565b90505f5f90505b81811015612879575f5f61283d8584613322565b915091505f8211801561284f57505f81115b801561285a57508181105b1561286c578561286990614006565b95505b5050806001019050612829565b50505090565b5f5f73ccd04073f4bdc4510927ea9ba350875c3c65bf8190505f5f5f8373ffffffffffffffffffffffffffffffffffffffff1663b78d1a2f6040518163ffffffff1660e01b8152600401602060405180830381865afa92505050801561290357506040513d601f19601f820116820180604052508101906129009190613957565b60015b612913575f945050505050612a60565b809350508373ffffffffffffffffffffffffffffffffffffffff16632d86ba516040518163ffffffff1660e01b8152600401602060405180830381865afa92505050801561297f57506040513d601f19601f8201168201806040525081019061297c9190613957565b60015b61298f575f945050505050612a60565b809250508373ffffffffffffffffffffffffffffffffffffffff1663c8d6404a6040518163ffffffff1660e01b8152600401602060405180830381865afa9250505080156129fb57506040513d601f19601f820116820180604052508101906129f89190613957565b60015b612a0b575f945050505050612a60565b809150505f831480612a1c57508242105b15612a2d575f945050505050612a60565b4282118015612a465750808342612a449190613bf1565b105b15612a57575f945050505050612a60565b60019450505050505b90565b5f5f5f5f8673ffffffffffffffffffffffffffffffffffffffff16630902f1ac6040518163ffffffff1660e01b8152600401606060405180830381865afa158015612ab0573d5f5f3e3d5ffd5b505050506040513d601f19601f82011682018060405250810190612ad491906143c0565b50915091508573ffffffffffffffffffffffffffffffffffffffff168773ffffffffffffffffffffffffffffffffffffffff16630dfe16816040518163ffffffff1660e01b8152600401602060405180830381865afa158015612b39573d5f5f3e3d5ffd5b505050506040513d601f19601f82011682018060405250810190612b5d9190613ace565b73ffffffffffffffffffffffffffffffffffffffff1603612ba357816dffffffffffffffffffffffffffff169350806dffffffffffffffffffffffffffff169250612d7e565b8573ffffffffffffffffffffffffffffffffffffffff168773ffffffffffffffffffffffffffffffffffffffff1663d21220a76040518163ffffffff1660e01b8152600401602060405180830381865afa158015612c03573d5f5f3e3d5ffd5b505050506040513d601f19601f82011682018060405250810190612c279190613ace565b73ffffffffffffffffffffffffffffffffffffffff1614612c7d576040517f08c379a0000000000000000000000000000000000000000000000000000000008152600401612c749061445a565b60405180910390fd5b8473ffffffffffffffffffffffffffffffffffffffff168773ffffffffffffffffffffffffffffffffffffffff16630dfe16816040518163ffffffff1660e01b8152600401602060405180830381865afa158015612cdd573d5f5f3e3d5ffd5b505050506040513d601f19601f82011682018060405250810190612d019190613ace565b73ffffffffffffffffffffffffffffffffffffffff1614612d57576040517f08c379a0000000000000000000000000000000000000000000000000000000008152600401612d4e9061445a565b60405180910390fd5b806dffffffffffffffffffffffffffff169350816dffffffffffffffffffffffffffff1692505b5050935093915050565b5f818410612dcb576040517f08c379a0000000000000000000000000000000000000000000000000000000008152600401612dc2906144c2565b60405180910390fd5b60016103e58584612ddc9190613bf1565b612de69190613b53565b6103e88686612df59190613b53565b612dff9190613b53565b612e099190613bc1565b612e1391906141ac565b90509392505050565b5f6003819055505f60045f6101000a81548173ffffffffffffffffffffffffffffffffffffffff021916908373ffffffffffffffffffffffffffffffffffffffff1602179055505f60055f6101000a81548173ffffffffffffffffffffffffffffffffffffffff021916908373ffffffffffffffffffffffffffffffffffffffff1602179055505f6006819055505f600781905550565b5f5f612ebe836120e8565b90505f5f90505b8151811015612f4a575f73ffffffffffffffffffffffffffffffffffffffff16828281518110612ef857612ef7613af9565b5b602002602001015173ffffffffffffffffffffffffffffffffffffffff1614612f3f57818181518110612f2e57612f2d613af9565b5b602002602001015192505050612f86565b806001019050612ec5565b506040517f08c379a0000000000000000000000000000000000000000000000000000000008152600401612f7d9061452a565b60405180910390fd5b919050565b8173ffffffffffffffffffffffffffffffffffffffff168373ffffffffffffffffffffffffffffffffffffffff161480612fc457505f81145b61331d575f612fd38484612360565b90505f73ffffffffffffffffffffffffffffffffffffffff168173ffffffffffffffffffffffffffffffffffffffff161461301b5761301581858585306124bb565b5061331d565b73c02aaa39b223fe8d0a0e5c4f27ead9083c756cc273ffffffffffffffffffffffffffffffffffffffff168473ffffffffffffffffffffffffffffffffffffffff16141580156130ab575073c02aaa39b223fe8d0a0e5c4f27ead9083c756cc273ffffffffffffffffffffffffffffffffffffffff168373ffffffffffffffffffffffffffffffffffffffff1614155b156132e2575f6130cf8573c02aaa39b223fe8d0a0e5c4f27ead9083c756cc2612360565b90505f6130f073c02aaa39b223fe8d0a0e5c4f27ead9083c756cc286612360565b90505f73ffffffffffffffffffffffffffffffffffffffff168273ffffffffffffffffffffffffffffffffffffffff161415801561315a57505f73ffffffffffffffffffffffffffffffffffffffff168173ffffffffffffffffffffffffffffffffffffffff1614155b156132df575f73c02aaa39b223fe8d0a0e5c4f27ead9083c756cc273ffffffffffffffffffffffffffffffffffffffff166370a08231306040518263ffffffff1660e01b81526004016131ad91906137ba565b602060405180830381865afa1580156131c8573d5f5f3e3d5ffd5b505050506040513d601f19601f820116820180604052508101906131ec9190613957565b905061320f838873c02aaa39b223fe8d0a0e5c4f27ead9083c756cc288306124bb565b5f8173c02aaa39b223fe8d0a0e5c4f27ead9083c756cc273ffffffffffffffffffffffffffffffffffffffff166370a08231306040518263ffffffff1660e01b815260040161325e91906137ba565b602060405180830381865afa158015613279573d5f5f3e3d5ffd5b505050506040513d601f19601f8201168201806040525081019061329d9190613957565b6132a79190613bf1565b90505f8111156132dc576132d28373c02aaa39b223fe8d0a0e5c4f27ead9083c756cc28984306124bb565b505050505061331d565b50505b50505b6040517f08c379a000000000000000000000000000000000000000000000000000000000815260040161331490614592565b60405180910390fd5b505050565b5f5f8373ffffffffffffffffffffffffffffffffffffffff1663e7ee6ad6846040518263ffffffff1660e01b815260040161335d91906137e2565b602060405180830381865afa92505050801561339757506040513d601f19601f820116820180604052508101906133949190613957565b60015b6133a6575f5f915091506135ba565b809250505f5f8573ffffffffffffffffffffffffffffffffffffffff166320b014d5866040518263ffffffff1660e01b81526004016133e591906137e2565b602060405180830381865afa92505050801561341f57506040513d601f19601f8201168201806040525081019061341c9190613ace565b60015b61343057835f9350935050506135ba565b809250508573ffffffffffffffffffffffffffffffffffffffff1663cf35bdd0866040518263ffffffff1660e01b815260040161346d91906137e2565b602060405180830381865afa9250505080156134a757506040513d601f19601f820116820180604052508101906134a49190613ace565b60015b6134b857835f9350935050506135ba565b809150505f73ffffffffffffffffffffffffffffffffffffffff168273ffffffffffffffffffffffffffffffffffffffff16148061352157505f73ffffffffffffffffffffffffffffffffffffffff168173ffffffffffffffffffffffffffffffffffffffff16145b1561353357835f9350935050506135ba565b8173ffffffffffffffffffffffffffffffffffffffff16630ba9d8ca826040518263ffffffff1660e01b815260040161356c91906137ba565b602060405180830381865afa9250505080156135a657506040513d601f19601f820116820180604052508101906135a39190613957565b60015b6135b2575f92506135b7565b809350505b50505b9250929050565b5f5f8414806135cf57505f83145b806135d957505f82145b156135e6575f905061362a565b5f6103e5856135f59190613b53565b9050806103e8856136069190613b53565b61361091906141ac565b838261361c9190613b53565b6136269190613bc1565b9150505b9392505050565b5f5ffd5b5f5ffd5b5f73ffffffffffffffffffffffffffffffffffffffff82169050919050565b5f61366282613639565b9050919050565b61367281613658565b811461367c575f5ffd5b50565b5f8135905061368d81613669565b92915050565b5f819050919050565b6136a581613693565b81146136af575f5ffd5b50565b5f813590506136c08161369c565b92915050565b5f5ffd5b5f5ffd5b5f5ffd5b5f5f83601f8401126136e7576136e66136c6565b5b8235905067ffffffffffffffff811115613704576137036136ca565b5b6020830191508360018202830111156137205761371f6136ce565b5b9250929050565b5f5f5f5f5f608086880312156137405761373f613631565b5b5f61374d8882890161367f565b955050602061375e888289016136b2565b945050604061376f888289016136b2565b935050606086013567ffffffffffffffff8111156137905761378f613635565b5b61379c888289016136d2565b92509250509295509295909350565b6137b481613658565b82525050565b5f6020820190506137cd5f8301846137ab565b92915050565b6137dc81613693565b82525050565b5f6020820190506137f55f8301846137d3565b92915050565b5f82825260208201905092915050565b7f6261642073656e646572000000000000000000000000000000000000000000005f82015250565b5f61383f600a836137fb565b915061384a8261380b565b602082019050919050565b5f6020820190508181035f83015261386c81613833565b9050919050565b7f626164206d6f64650000000000000000000000000000000000000000000000005f82015250565b5f6138a76008836137fb565b91506138b282613873565b602082019050919050565b5f6020820190508181035f8301526138d48161389b565b9050919050565b7f62616420706169720000000000000000000000000000000000000000000000005f82015250565b5f61390f6008836137fb565b915061391a826138db565b602082019050919050565b5f6020820190508181035f83015261393c81613903565b9050919050565b5f815190506139518161369c565b92915050565b5f6020828403121561396c5761396b613631565b5b5f61397984828501613943565b91505092915050565b7f62616420626f72726f77000000000000000000000000000000000000000000005f82015250565b5f6139b6600a836137fb565b91506139c182613982565b602082019050919050565b5f6020820190508181035f8301526139e3816139aa565b9050919050565b7f696e736f6c76656e7400000000000000000000000000000000000000000000005f82015250565b5f613a1e6009836137fb565b9150613a29826139ea565b602082019050919050565b5f6020820190508181035f830152613a4b81613a12565b9050919050565b7f73656c66206f6e6c7900000000000000000000000000000000000000000000005f82015250565b5f613a866009836137fb565b9150613a9182613a52565b602082019050919050565b5f6020820190508181035f830152613ab381613a7a565b9050919050565b5f81519050613ac881613669565b92915050565b5f60208284031215613ae357613ae2613631565b5b5f613af084828501613aba565b91505092915050565b7f4e487b71000000000000000000000000000000000000000000000000000000005f52603260045260245ffd5b7f4e487b71000000000000000000000000000000000000000000000000000000005f52601160045260245ffd5b5f613b5d82613693565b9150613b6883613693565b9250828202613b7681613693565b91508282048414831517613b8d57613b8c613b26565b5b5092915050565b7f4e487b71000000000000000000000000000000000000000000000000000000005f52601260045260245ffd5b5f613bcb82613693565b9150613bd683613693565b925082613be657613be5613b94565b5b828204905092915050565b5f613bfb82613693565b9150613c0683613693565b9250828203905081811115613c1e57613c1d613b26565b5b92915050565b7f6469726563742070617468206661696c656400000000000000000000000000005f82015250565b5f613c586012836137fb565b9150613c6382613c24565b602082019050919050565b5f6020820190508181035f830152613c8581613c4c565b9050919050565b7f62757379000000000000000000000000000000000000000000000000000000005f82015250565b5f613cc06004836137fb565b9150613ccb82613c8c565b602082019050919050565b5f6020820190508181035f830152613ced81613cb4565b9050919050565b5f81519050919050565b5f82825260208201905092915050565b8281835e5f83830152505050565b5f601f19601f8301169050919050565b5f613d3682613cf4565b613d408185613cfe565b9350613d50818560208601613d0e565b613d5981613d1c565b840191505092915050565b5f608082019050613d775f8301876137d3565b613d8460208301866137d3565b613d9160408301856137ab565b8181036060830152613da38184613d2c565b905095945050505050565b7f666c6173682070617468206661696c65640000000000000000000000000000005f82015250565b5f613de26011836137fb565b9150613ded82613dae565b602082019050919050565b5f6020820190508181035f830152613e0f81613dd6565b9050919050565b7f6e6f206c700000000000000000000000000000000000000000000000000000005f82015250565b5f613e4a6005836137fb565b9150613e5582613e16565b602082019050919050565b5f6020820190508181035f830152613e7781613e3e565b9050919050565b7f6e6f2070726f66697400000000000000000000000000000000000000000000005f82015250565b5f613eb26009836137fb565b9150613ebd82613e7e565b602082019050919050565b5f6020820190508181035f830152613edf81613ea6565b9050919050565b7f4e487b71000000000000000000000000000000000000000000000000000000005f52604160045260245ffd5b5f81519050919050565b5f82825260208201905092915050565b5f819050602082019050919050565b613f4581613693565b82525050565b5f613f568383613f3c565b60208301905092915050565b5f602082019050919050565b5f613f7882613f13565b613f828185613f1d565b9350613f8d83613f2d565b805f5b83811015613fbd578151613fa48882613f4b565b9750613faf83613f62565b925050600181019050613f90565b5085935050505092915050565b5f606082019050613fdd5f8301866137d3565b8181036020830152613fef8185613f6e565b9050613ffe60408301846137ab565b949350505050565b5f61401082613693565b91507fffffffffffffffffffffffffffffffffffffffffffffffffffffffffffffffff820361404257614041613b26565b5b600182019050919050565b5f6020820190508181035f8301526140658184613f6e565b905092915050565b5f8115159050919050565b6140818161406d565b811461408b575f5ffd5b50565b5f8151905061409c81614078565b92915050565b5f602082840312156140b7576140b6613631565b5b5f6140c48482850161408e565b91505092915050565b5f6040820190506140e05f8301856137ab565b6140ed60208301846137d3565b9392505050565b5f81905092915050565b5f61410882613cf4565b61411281856140f4565b9350614122818560208601613d0e565b80840191505092915050565b5f61413982846140fe565b915081905092915050565b7f7472616e73666572206661696c656400000000000000000000000000000000005f82015250565b5f614178600f836137fb565b915061418382614144565b602082019050919050565b5f6020820190508181035f8301526141a58161416c565b9050919050565b5f6141b682613693565b91506141c183613693565b92508282019050808211156141d9576141d8613b26565b5b92915050565b5f6040820190506141f25f8301856137ab565b6141ff60208301846137ab565b9392505050565b7f7a65726f206f75740000000000000000000000000000000000000000000000005f82015250565b5f61423a6008836137fb565b915061424582614206565b602082019050919050565b5f6020820190508181035f8301526142678161422e565b9050919050565b5f819050919050565b5f819050919050565b5f61429a6142956142908461426e565b614277565b613693565b9050919050565b6142aa81614280565b82525050565b5f6080820190506142c35f8301876142a1565b6142d060208301866137d3565b6142dd60408301856137ab565b81810360608301526142ef8184613d2c565b905095945050505050565b5f60808201905061430d5f8301876137d3565b61431a60208301866142a1565b61432760408301856137ab565b81810360608301526143398184613d2c565b905095945050505050565b5f6dffffffffffffffffffffffffffff82169050919050565b61436681614344565b8114614370575f5ffd5b50565b5f815190506143818161435d565b92915050565b5f63ffffffff82169050919050565b61439f81614387565b81146143a9575f5ffd5b50565b5f815190506143ba81614396565b92915050565b5f5f5f606084860312156143d7576143d6613631565b5b5f6143e486828701614373565b93505060206143f586828701614373565b9250506040614406868287016143ac565b9150509250925092565b7f70616972206d69736d61746368000000000000000000000000000000000000005f82015250565b5f614444600d836137fb565b915061444f82614410565b602082019050919050565b5f6020820190508181035f83015261447181614438565b9050919050565b7f746f6f206d756368206f757400000000000000000000000000000000000000005f82015250565b5f6144ac600c836137fb565b91506144b782614478565b602082019050919050565b5f6020820190508181035f8301526144d9816144a0565b9050919050565b7f6e6f2070726f66697420746f6b656e00000000000000000000000000000000005f82015250565b5f614514600f836137fb565b915061451f826144e0565b602082019050919050565b5f6020820190508181035f83015261454181614508565b9050919050565b7f6e6f20726f7574650000000000000000000000000000000000000000000000005f82015250565b5f61457c6008836137fb565b915061458782614548565b602082019050919050565b5f6020820190508181035f8301526145a981614570565b905091905056fea264697066735822122055f1fa63d9fd0ef70a7bf92ab50bb4a7eb849f22375f948a798fd1347e15a53664736f6c634300081e0033","linkReferences":{}},"methodIdentifiers":{"DAI()":"e0bab4c4","SUSHI_FACTORY()":"b753bb47","TARGET_POOL()":"181e0cc6","UNISWAP_V2_FACTORY()":"99d8fae3","USDC()":"89a30271","USDT()":"c54e44eb","WETH()":"ad5c4648","attemptDirectLpAcquisition()":"2d2cbb8b","attemptExistingLpExit()":"82cd4beb","attemptFlashLp()":"42ab78f0","executeOnOpportunity()":"3c2448ed","profitAmount()":"5ff972cc","profitToken()":"49343624","uniswapV2Call(address,uint256,uint256,bytes)":"10d1e85c"},"id":0}