{"abi":[{"type":"constructor","inputs":[],"stateMutability":"nonpayable"},{"type":"function","name":"TARGET","inputs":[],"outputs":[{"name":"","type":"address","internalType":"address"}],"stateMutability":"view"},{"type":"function","name":"executeOnOpportunity","inputs":[],"outputs":[],"stateMutability":"nonpayable"},{"type":"function","name":"executed","inputs":[],"outputs":[{"name":"","type":"bool","internalType":"bool"}],"stateMutability":"view"},{"type":"function","name":"failureFlags","inputs":[],"outputs":[{"name":"","type":"uint256","internalType":"uint256"}],"stateMutability":"view"},{"type":"function","name":"hypothesisValidated","inputs":[],"outputs":[{"name":"","type":"bool","internalType":"bool"}],"stateMutability":"view"},{"type":"function","name":"pathFlags","inputs":[],"outputs":[{"name":"","type":"uint256","internalType":"uint256"}],"stateMutability":"view"},{"type":"function","name":"profitAmount","inputs":[],"outputs":[{"name":"","type":"uint256","internalType":"uint256"}],"stateMutability":"view"},{"type":"function","name":"profitToken","inputs":[],"outputs":[{"name":"","type":"address","internalType":"address"}],"stateMutability":"view"}],"bytecode":{"object":"0x6080604052348015600e575f5ffd5b506123548061001c5f395ff3fe608060405234801561000f575f5ffd5b5060043610610086575f3560e01c8063493436241161005957806349343624146100ee5780635ff972cc1461010c578063b494b31b1461012a578063cc1f2afa1461014857610086565b806311e7c2ad1461008a57806331a38c89146100a85780633c2448ed146100c6578063463defd1146100d0575b5f5ffd5b610092610166565b60405161009f9190611d48565b60405180910390f35b6100b061016c565b6040516100bd9190611d7b565b60405180910390f35b6100ce61017f565b005b6100d8610455565b6040516100e59190611d7b565b60405180910390f35b6100f6610467565b6040516101039190611dd3565b60405180910390f35b61011461048e565b6040516101219190611d48565b60405180910390f35b610132610497565b60405161013f9190611d48565b60405180910390f35b61015061049d565b60405161015d9190611dd3565b60405180910390f35b60035481565b600460019054906101000a900460ff1681565b600460019054906101000a900460ff16610453576001600460016101000a81548160ff0219169083151502179055505f7369422c7f237d70fcd55c218568a67d00dc4ea06890505f8173ffffffffffffffffffffffffffffffffffffffff16634a1bb65d6040518163ffffffff1660e01b8152600401602060405180830381865afa158015610210573d5f5f3e3d5ffd5b505050506040513d601f19601f820116820180604052508101906102349190611e1a565b90505f8273ffffffffffffffffffffffffffffffffffffffff16638c205cc56040518163ffffffff1660e01b8152600401602060405180830381865afa158015610280573d5f5f3e3d5ffd5b505050506040513d601f19601f820116820180604052508101906102a49190611e1a565b90505f8290505f8290505f73c02aaa39b223fe8d0a0e5c4f27ead9083c756cc273ffffffffffffffffffffffffffffffffffffffff166370a08231306040518263ffffffff1660e01b81526004016102fc9190611dd3565b602060405180830381865afa158015610317573d5f5f3e3d5ffd5b505050506040513d601f19601f8201168201806040525081019061033b9190611e6f565b90505f8373ffffffffffffffffffffffffffffffffffffffff166370a08231306040518263ffffffff1660e01b81526004016103779190611dd3565b602060405180830381865afa158015610392573d5f5f3e3d5ffd5b505050506040513d601f19601f820116820180604052508101906103b69190611e6f565b90505f8373ffffffffffffffffffffffffffffffffffffffff166370a08231306040518263ffffffff1660e01b81526004016103f29190611dd3565b602060405180830381865afa15801561040d573d5f5f3e3d5ffd5b505050506040513d601f19601f820116820180604052508101906104319190611e6f565b905061043d87876104b5565b61044a8787848487610725565b50505050505050505b565b60045f9054906101000a900460ff1681565b5f5f5f9054906101000a900473ffffffffffffffffffffffffffffffffffffffff16905090565b5f600154905090565b60025481565b7369422c7f237d70fcd55c218568a67d00dc4ea06881565b5f8290505f8290505f6104c785610a19565b90505f6105ec82878673ffffffffffffffffffffffffffffffffffffffff166370a082317369422c7f237d70fcd55c218568a67d00dc4ea0686040518263ffffffff1660e01b815260040161051c9190611dd3565b602060405180830381865afa158015610537573d5f5f3e3d5ffd5b505050506040513d601f19601f8201168201806040525081019061055b9190611e6f565b8673ffffffffffffffffffffffffffffffffffffffff166370a082317369422c7f237d70fcd55c218568a67d00dc4ea0686040518263ffffffff1660e01b81526004016105a89190611dd3565b602060405180830381865afa1580156105c3573d5f5f3e3d5ffd5b505050506040513d601f19601f820116820180604052508101906105e79190611e6f565b610ba6565b90505f810361060e57600460035f828254179250508190555050505050610721565b5f61061a858584610c93565b90505f810361062d575050505050610721565b5f61063b86868a878661102e565b90505f810361064f57505050505050610721565b5f73ffffffffffffffffffffffffffffffffffffffff168473ffffffffffffffffffffffffffffffffffffffff16146107095761070484898873ffffffffffffffffffffffffffffffffffffffff166370a08231306040518263ffffffff1660e01b81526004016106c09190611dd3565b602060405180830381865afa1580156106db573d5f5f3e3d5ffd5b505050506040513d601f19601f820116820180604052508101906106ff9190611e6f565b6115e7565b61071a565b600160035f82825417925050819055505b5050505050505b5050565b5f73c02aaa39b223fe8d0a0e5c4f27ead9083c756cc273ffffffffffffffffffffffffffffffffffffffff166370a08231306040518263ffffffff1660e01b81526004016107739190611dd3565b602060405180830381865afa15801561078e573d5f5f3e3d5ffd5b505050506040513d601f19601f820116820180604052508101906107b29190611e6f565b90505f8673ffffffffffffffffffffffffffffffffffffffff166370a08231306040518263ffffffff1660e01b81526004016107ee9190611dd3565b602060405180830381865afa158015610809573d5f5f3e3d5ffd5b505050506040513d601f19601f8201168201806040525081019061082d9190611e6f565b90505f8673ffffffffffffffffffffffffffffffffffffffff166370a08231306040518263ffffffff1660e01b81526004016108699190611dd3565b602060405180830381865afa158015610884573d5f5f3e3d5ffd5b505050506040513d601f19601f820116820180604052508101906108a89190611e6f565b90505f8484116108b8575f6108c5565b84846108c49190611ec7565b5b90505f8784116108d5575f6108e2565b87846108e19190611ec7565b5b90505f8784116108f2575f6108ff565b87846108fe9190611ec7565b5b90505f8311156109685773c02aaa39b223fe8d0a0e5c4f27ead9083c756cc25f5f6101000a81548173ffffffffffffffffffffffffffffffffffffffff021916908373ffffffffffffffffffffffffffffffffffffffff16021790555082600181905550610a0c565b5f8211156109bb578a5f5f6101000a81548173ffffffffffffffffffffffffffffffffffffffff021916908373ffffffffffffffffffffffffffffffffffffffff16021790555081600181905550610a0b565b5f811115610a0a57895f5f6101000a81548173ffffffffffffffffffffffffffffffffffffffff021916908373ffffffffffffffffffffffffffffffffffffffff160217905550806001819055505b5b5b5050505050505050505050565b5f5f73c0aee478e3658e2610c5f7a4a2e1777ce9e4f2ac73ffffffffffffffffffffffffffffffffffffffff1663e6a439058473c02aaa39b223fe8d0a0e5c4f27ead9083c756cc26040518363ffffffff1660e01b8152600401610a7e929190611efa565b602060405180830381865afa158015610a99573d5f5f3e3d5ffd5b505050506040513d601f19601f82011682018060405250810190610abd9190611e1a565b90505f73ffffffffffffffffffffffffffffffffffffffff168173ffffffffffffffffffffffffffffffffffffffff1614610afb5780915050610ba1565b735c69bee701ef814a2b6a3edd4b1652cb9cc5aa6f73ffffffffffffffffffffffffffffffffffffffff1663e6a439058473c02aaa39b223fe8d0a0e5c4f27ead9083c756cc26040518363ffffffff1660e01b8152600401610b5e929190611efa565b602060405180830381865afa158015610b79573d5f5f3e3d5ffd5b505050506040513d601f19601f82011682018060405250810190610b9d9190611e1a565b9150505b919050565b5f5f831480610bb457505f82145b15610bc1575f9050610c8b565b5f610be4601085610bd29190611f4e565b601085610bdf9190611f4e565b611a5b565b90505f8103610bfa57610bf78484611a5b565b90505b5f73ffffffffffffffffffffffffffffffffffffffff168673ffffffffffffffffffffffffffffffffffffffff1603610c365780915050610c8b565b5f610c418787611a73565b50905060208111610c5f57610c568282611a5b565b92505050610c8b565b5f602082610c6d9190611f4e565b9050610c798382611a5b565b93505f8403610c8757600193505b5050505b949350505050565b5f5f8473ffffffffffffffffffffffffffffffffffffffff166370a08231306040518263ffffffff1660e01b8152600401610cce9190611dd3565b602060405180830381865afa158015610ce9573d5f5f3e3d5ffd5b505050506040513d601f19601f82011682018060405250810190610d0d9190611e6f565b90505f8473ffffffffffffffffffffffffffffffffffffffff166370a08231306040518263ffffffff1660e01b8152600401610d499190611dd3565b602060405180830381865afa158015610d64573d5f5f3e3d5ffd5b505050506040513d601f19601f82011682018060405250810190610d889190611e6f565b90505f7369422c7f237d70fcd55c218568a67d00dc4ea06873ffffffffffffffffffffffffffffffffffffffff1663adc9772e60e01b3087604051602401610dd1929190611f7e565b604051602081830303815290604052907bffffffffffffffffffffffffffffffffffffffffffffffffffffffff19166020820180517bffffffffffffffffffffffffffffffffffffffffffffffffffffffff8381831617835250505050604051610e3b9190611ff7565b5f604051808303815f865af19150503d805f8114610e74576040519150601f19603f3d011682016040523d82523d5f602084013e610e79565b606091505b505090505f8773ffffffffffffffffffffffffffffffffffffffff166370a08231306040518263ffffffff1660e01b8152600401610eb79190611dd3565b602060405180830381865afa158015610ed2573d5f5f3e3d5ffd5b505050506040513d601f19601f82011682018060405250810190610ef69190611e6f565b90505f8773ffffffffffffffffffffffffffffffffffffffff166370a08231306040518263ffffffff1660e01b8152600401610f329190611dd3565b602060405180830381865afa158015610f4d573d5f5f3e3d5ffd5b505050506040513d601f19601f82011682018060405250810190610f719190611e6f565b905082610f9557600260035f82825417925050819055505f95505050505050611027565b8381118015610fa357508482145b15610fea57600160025f8282541792505081905550600160045f6101000a81548160ff0219169083151502179055508381610fde9190611ec7565b95505050505050611027565b8381148015610ff857508482105b1561100e57600460025f82825417925050819055505b600460035f82825417925050819055505f955050505050505b9392505050565b5f5f820361103e575f90506115de565b5f8673ffffffffffffffffffffffffffffffffffffffff166370a082317369422c7f237d70fcd55c218568a67d00dc4ea0686040518263ffffffff1660e01b815260040161108c9190611dd3565b602060405180830381865afa1580156110a7573d5f5f3e3d5ffd5b505050506040513d601f19601f820116820180604052508101906110cb9190611e6f565b9050828110156110d9578092505b5f83036110e9575f9150506115de565b5f8190505f73ffffffffffffffffffffffffffffffffffffffff168573ffffffffffffffffffffffffffffffffffffffff1614611159575f61112b8688611a73565b5090505f60028261113c9190611f4e565b90505f811415801561114d57508281105b15611156578092505b50505b5f84826111669190611f4e565b90505f810361117457600190505b601081111561118257601090505b5f5f90505b818110156115d957858a73ffffffffffffffffffffffffffffffffffffffff166370a082317369422c7f237d70fcd55c218568a67d00dc4ea0686040518263ffffffff1660e01b81526004016111dd9190611dd3565b602060405180830381865afa1580156111f8573d5f5f3e3d5ffd5b505050506040513d601f19601f8201168201806040525081019061121c9190611e6f565b106115d9575f8a73ffffffffffffffffffffffffffffffffffffffff166370a08231306040518263ffffffff1660e01b815260040161125b9190611dd3565b602060405180830381865afa158015611276573d5f5f3e3d5ffd5b505050506040513d601f19601f8201168201806040525081019061129a9190611e6f565b90505f8a73ffffffffffffffffffffffffffffffffffffffff166370a08231306040518263ffffffff1660e01b81526004016112d69190611dd3565b602060405180830381865afa1580156112f1573d5f5f3e3d5ffd5b505050506040513d601f19601f820116820180604052508101906113159190611e6f565b90505f7369422c7f237d70fcd55c218568a67d00dc4ea06873ffffffffffffffffffffffffffffffffffffffff166321d0af3460e01b308b5f6040516024016113609392919061200d565b604051602081830303815290604052907bffffffffffffffffffffffffffffffffffffffffffffffffffffffff19166020820180517bffffffffffffffffffffffffffffffffffffffffffffffffffffffff83818316178352505050506040516113ca9190611ff7565b5f604051808303815f865af19150503d805f8114611403576040519150601f19603f3d011682016040523d82523d5f602084013e611408565b606091505b505090505f8d73ffffffffffffffffffffffffffffffffffffffff166370a08231306040518263ffffffff1660e01b81526004016114469190611dd3565b602060405180830381865afa158015611461573d5f5f3e3d5ffd5b505050506040513d601f19601f820116820180604052508101906114859190611e6f565b90505f8d73ffffffffffffffffffffffffffffffffffffffff166370a08231306040518263ffffffff1660e01b81526004016114c19190611dd3565b602060405180830381865afa1580156114dc573d5f5f3e3d5ffd5b505050506040513d601f19601f820116820180604052508101906115009190611e6f565b905082611529575f8a0361151f57600860035f82825417925050819055505b50505050506115d9565b848211801561153757508381145b15611588576002805f8282541792505081905550600160045f6101000a81548160ff02191690831515021790555084826115719190611ec7565b8a61157c9190612042565b995050505050506115ce565b848214801561159657508381105b156115ac57600860025f82825417925050819055505b5f8a036115c457601060035f82825417925050819055505b50505050506115d9565b806001019050611187565b505050505b95945050505050565b5f810315611a56575f5f6115fa85611bf6565b915091508373ffffffffffffffffffffffffffffffffffffffff168273ffffffffffffffffffffffffffffffffffffffff16148015611678575073c02aaa39b223fe8d0a0e5c4f27ead9083c756cc273ffffffffffffffffffffffffffffffffffffffff168173ffffffffffffffffffffffffffffffffffffffff16145b806116f9575073c02aaa39b223fe8d0a0e5c4f27ead9083c756cc273ffffffffffffffffffffffffffffffffffffffff168273ffffffffffffffffffffffffffffffffffffffff161480156116f857508373ffffffffffffffffffffffffffffffffffffffff168173ffffffffffffffffffffffffffffffffffffffff16145b5b61171457602060035f82825417925050819055505050611a56565b5f5f6117208787611a73565b915091505f82148061173157505f81145b1561174f57602060035f828254179250508190555050505050611a56565b8573ffffffffffffffffffffffffffffffffffffffff1663a9059cbb88876040518363ffffffff1660e01b815260040161178a929190611f7e565b6020604051808303815f875af11580156117a6573d5f5f3e3d5ffd5b505050506040513d601f19601f820116820180604052508101906117ca919061209f565b6117e757602060035f828254179250508190555050505050611a56565b5f8673ffffffffffffffffffffffffffffffffffffffff166370a08231896040518263ffffffff1660e01b81526004016118219190611dd3565b602060405180830381865afa15801561183c573d5f5f3e3d5ffd5b505050506040513d601f19601f820116820180604052508101906118609190611e6f565b905082811161188357602060035f82825417925050819055505050505050611a56565b5f83826118909190611ec7565b90505f61189e828686611cdb565b90505f81036118c357602060035f828254179250508190555050505050505050611a56565b5f5f8873ffffffffffffffffffffffffffffffffffffffff168b73ffffffffffffffffffffffffffffffffffffffff16146118ff57825f611902565b5f835b915091505f8c73ffffffffffffffffffffffffffffffffffffffff1663022c0d9f60e01b8484305f67ffffffffffffffff811115611943576119426120ca565b5b6040519080825280601f01601f1916602001820160405280156119755781602001600182028036833780820191505090505b50604051602401611989949392919061214f565b604051602081830303815290604052907bffffffffffffffffffffffffffffffffffffffffffffffffffffffff19166020820180517bffffffffffffffffffffffffffffffffffffffffffffffffffffffff83818316178352505050506040516119f39190611ff7565b5f604051808303815f865af19150503d805f8114611a2c576040519150601f19603f3d011682016040523d82523d5f602084013e611a31565b606091505b5050905080611a4b57602060035f82825417925050819055505b505050505050505050505b505050565b5f818310611a695781611a6b565b825b905092915050565b5f5f5f5f8573ffffffffffffffffffffffffffffffffffffffff16630902f1ac6040518163ffffffff1660e01b8152600401606060405180830381865afa158015611ac0573d5f5f3e3d5ffd5b505050506040513d601f19601f82011682018060405250810190611ae49190612215565b50915091505f5f611af488611bf6565b915091508173ffffffffffffffffffffffffffffffffffffffff168773ffffffffffffffffffffffffffffffffffffffff1603611b5657836dffffffffffffffffffffffffffff169550826dffffffffffffffffffffffffffff169450611beb565b8073ffffffffffffffffffffffffffffffffffffffff168773ffffffffffffffffffffffffffffffffffffffff1614611bc4576040517f08c379a0000000000000000000000000000000000000000000000000000000008152600401611bbb906122bf565b60405180910390fd5b826dffffffffffffffffffffffffffff169550836dffffffffffffffffffffffffffff1694505b505050509250929050565b5f5f8273ffffffffffffffffffffffffffffffffffffffff16630dfe16816040518163ffffffff1660e01b8152600401602060405180830381865afa158015611c41573d5f5f3e3d5ffd5b505050506040513d601f19601f82011682018060405250810190611c659190611e1a565b91508273ffffffffffffffffffffffffffffffffffffffff1663d21220a76040518163ffffffff1660e01b8152600401602060405180830381865afa158015611cb0573d5f5f3e3d5ffd5b505050506040513d601f19601f82011682018060405250810190611cd49190611e1a565b9050915091565b5f5f6103e585611ceb91906122dd565b90505f8382611cfa91906122dd565b90505f826103e887611d0c91906122dd565b611d169190612042565b90508082611d249190611f4e565b93505050509392505050565b5f819050919050565b611d4281611d30565b82525050565b5f602082019050611d5b5f830184611d39565b92915050565b5f8115159050919050565b611d7581611d61565b82525050565b5f602082019050611d8e5f830184611d6c565b92915050565b5f73ffffffffffffffffffffffffffffffffffffffff82169050919050565b5f611dbd82611d94565b9050919050565b611dcd81611db3565b82525050565b5f602082019050611de65f830184611dc4565b92915050565b5f5ffd5b611df981611db3565b8114611e03575f5ffd5b50565b5f81519050611e1481611df0565b92915050565b5f60208284031215611e2f57611e2e611dec565b5b5f611e3c84828501611e06565b91505092915050565b611e4e81611d30565b8114611e58575f5ffd5b50565b5f81519050611e6981611e45565b92915050565b5f60208284031215611e8457611e83611dec565b5b5f611e9184828501611e5b565b91505092915050565b7f4e487b71000000000000000000000000000000000000000000000000000000005f52601160045260245ffd5b5f611ed182611d30565b9150611edc83611d30565b9250828203905081811115611ef457611ef3611e9a565b5b92915050565b5f604082019050611f0d5f830185611dc4565b611f1a6020830184611dc4565b9392505050565b7f4e487b71000000000000000000000000000000000000000000000000000000005f52601260045260245ffd5b5f611f5882611d30565b9150611f6383611d30565b925082611f7357611f72611f21565b5b828204905092915050565b5f604082019050611f915f830185611dc4565b611f9e6020830184611d39565b9392505050565b5f81519050919050565b5f81905092915050565b8281835e5f83830152505050565b5f611fd182611fa5565b611fdb8185611faf565b9350611feb818560208601611fb9565b80840191505092915050565b5f6120028284611fc7565b915081905092915050565b5f6060820190506120205f830186611dc4565b61202d6020830185611d39565b61203a6040830184611d6c565b949350505050565b5f61204c82611d30565b915061205783611d30565b925082820190508082111561206f5761206e611e9a565b5b92915050565b61207e81611d61565b8114612088575f5ffd5b50565b5f8151905061209981612075565b92915050565b5f602082840312156120b4576120b3611dec565b5b5f6120c18482850161208b565b91505092915050565b7f4e487b71000000000000000000000000000000000000000000000000000000005f52604160045260245ffd5b5f82825260208201905092915050565b5f601f19601f8301169050919050565b5f61212182611fa5565b61212b81856120f7565b935061213b818560208601611fb9565b61214481612107565b840191505092915050565b5f6080820190506121625f830187611d39565b61216f6020830186611d39565b61217c6040830185611dc4565b818103606083015261218e8184612117565b905095945050505050565b5f6dffffffffffffffffffffffffffff82169050919050565b6121bb81612199565b81146121c5575f5ffd5b50565b5f815190506121d6816121b2565b92915050565b5f63ffffffff82169050919050565b6121f4816121dc565b81146121fe575f5ffd5b50565b5f8151905061220f816121eb565b92915050565b5f5f5f6060848603121561222c5761222b611dec565b5b5f612239868287016121c8565b935050602061224a868287016121c8565b925050604061225b86828701612201565b9150509250925092565b5f82825260208201905092915050565b7f746f6b656e206e6f7420696e20706169720000000000000000000000000000005f82015250565b5f6122a9601183612265565b91506122b482612275565b602082019050919050565b5f6020820190508181035f8301526122d68161229d565b9050919050565b5f6122e782611d30565b91506122f283611d30565b925082820261230081611d30565b9150828204841483151761231757612316611e9a565b5b509291505056fea264697066735822122092d55354ccd9e4bb3d226c19ac2bd79c289b452d26ff06b81c526991cdbc0a0464736f6c634300081e0033","linkReferences":{}},"methodIdentifiers":{"TARGET()":"cc1f2afa","executeOnOpportunity()":"3c2448ed","executed()":"31a38c89","failureFlags()":"11e7c2ad","hypothesisValidated()":"463defd1","pathFlags()":"b494b31b","profitAmount()":"5ff972cc","profitToken()":"49343624"},"id":0}