{"abi":[{"type":"constructor","inputs":[],"stateMutability":"nonpayable"},{"type":"receive","stateMutability":"payable"},{"type":"function","name":"CDAI","inputs":[],"outputs":[{"name":"","type":"address","internalType":"address"}],"stateMutability":"view"},{"type":"function","name":"CUSDC","inputs":[],"outputs":[{"name":"","type":"address","internalType":"address"}],"stateMutability":"view"},{"type":"function","name":"CUSDT","inputs":[],"outputs":[{"name":"","type":"address","internalType":"address"}],"stateMutability":"view"},{"type":"function","name":"DAI","inputs":[],"outputs":[{"name":"","type":"address","internalType":"address"}],"stateMutability":"view"},{"type":"function","name":"TARGET","inputs":[],"outputs":[{"name":"","type":"address","internalType":"address"}],"stateMutability":"view"},{"type":"function","name":"UNISWAP_V2_ROUTER","inputs":[],"outputs":[{"name":"","type":"address","internalType":"address"}],"stateMutability":"view"},{"type":"function","name":"USDC","inputs":[],"outputs":[{"name":"","type":"address","internalType":"address"}],"stateMutability":"view"},{"type":"function","name":"USDT","inputs":[],"outputs":[{"name":"","type":"address","internalType":"address"}],"stateMutability":"view"},{"type":"function","name":"WETH","inputs":[],"outputs":[{"name":"","type":"address","internalType":"address"}],"stateMutability":"view"},{"type":"function","name":"chosenState","inputs":[],"outputs":[{"name":"token","type":"address","internalType":"address"},{"name":"cToken","type":"address","internalType":"address"},{"name":"mintPaused","type":"bool","internalType":"bool"},{"name":"accountedPrincipal","type":"uint256","internalType":"uint256"},{"name":"localIdleBalance","type":"uint256","internalType":"uint256"},{"name":"compoundCash","type":"uint256","internalType":"uint256"},{"name":"compoundUnderlying","type":"uint256","internalType":"uint256"},{"name":"cTokenBalance","type":"uint256","internalType":"uint256"}],"stateMutability":"view"},{"type":"function","name":"depositPathReachable","inputs":[],"outputs":[{"name":"","type":"bool","internalType":"bool"}],"stateMutability":"view"},{"type":"function","name":"executeOnOpportunity","inputs":[],"outputs":[],"stateMutability":"nonpayable"},{"type":"function","name":"executed","inputs":[],"outputs":[{"name":"","type":"bool","internalType":"bool"}],"stateMutability":"view"},{"type":"function","name":"exercisedPath","inputs":[],"outputs":[{"name":"","type":"bool","internalType":"bool"}],"stateMutability":"view"},{"type":"function","name":"exploitPathUsed","inputs":[],"outputs":[{"name":"","type":"string","internalType":"string"}],"stateMutability":"pure"},{"type":"function","name":"hypothesisValidated","inputs":[],"outputs":[{"name":"","type":"bool","internalType":"bool"}],"stateMutability":"view"},{"type":"function","name":"profitAchieved","inputs":[],"outputs":[{"name":"","type":"bool","internalType":"bool"}],"stateMutability":"view"},{"type":"function","name":"profitAmount","inputs":[],"outputs":[{"name":"","type":"uint256","internalType":"uint256"}],"stateMutability":"view"},{"type":"function","name":"profitToken","inputs":[],"outputs":[{"name":"","type":"address","internalType":"address"}],"stateMutability":"view"},{"type":"function","name":"withdrawPathReachable","inputs":[],"outputs":[{"name":"","type":"bool","internalType":"bool"}],"stateMutability":"view"}],"bytecode":{"object":"0x608080604052346043575f8054600160301b600160d01b031916796b175474e89094c44da98b954eedeac495271d0f000000000000179055611a1490816100488239f35b5f80fdfe608080604052600436101561001c575b50361561001a575f80fd5b005b5f3560e01c9081630aed178f146105f45750806331a38c89146105d35780633c2448ed146105bb578063463defd114610597578063493436241461056c5780635ff972cc1461054f5780636504fbad14610521578063847df735146104fd578063878f7603146104cf57806389a30271146104a1578063913551ed14610432578063a37b9e7f14610404578063a82ed9ec146103d6578063ad5c4648146103a8578063b14d87b414610385578063c54e44eb14610357578063cc1f2afa14610330578063d78c428114610153578063e0bab4c41461012c5763f0a0117614610104575f61000f565b34610128575f36600319011261012857602060ff5f5460281c166040519015158152f35b5f80fd5b34610128575f3660031901126101285760206040515f5160206119bf5f395f51905f528152f35b34610128575f36600319011261012857604051610160810181811067ffffffffffffffff82111761031c576040526101268152604060208201917f6465706f73697428737461626c65292d3e737461626c65436f696e42616c616e83527f6365732f75736572206372656469742d3e5f7472616e73666572546f436f6d70828201527f6f756e64282920756e636865636b65643b20776974686472617728737461626c60608201527f65292d3e696e7465726e616c2062616c616e63657320726564756365642d3e5f60808201527f72656465656d46726f6d436f6d706f756e64282920756e636865636b65643b2060a08201527f737570706c69656420666f726b2070726f76657320746865206661696c696e6760c08201527f20436f6d706f756e642073746167652069732063757272656e746c7920696e6660e08201527f65617369626c652c20736f206f6e6c792076657269666965722d68656c6420446101008201527f41492062616c616e6365206973207265616c697a656420666f722074686520686101208201526561726e65737360d01b6101408201528151928391602083525180918160208501528484015e5f828201840152601f01601f19168101030190f35b634e487b7160e01b5f52604160045260245ffd5b34610128575f3660031901126101285760206040515f51602061199f5f395f51905f528152f35b34610128575f36600319011261012857602060405173dac17f958d2ee523a2206206994597c13d831ec78152f35b34610128575f36600319011261012857602060ff5f54821c166040519015158152f35b34610128575f36600319011261012857602060405173c02aaa39b223fe8d0a0e5c4f27ead9083c756cc28152f35b34610128575f366003190112610128576020604051737a250d5630b4cf539739df2c5dacb4c659f2488d8152f35b34610128575f3660031901126101285760206040517339aa39c021dfbae8fac545936693ac917d5e75638152f35b34610128575f3660031901126101285761010060018060a01b0360025416600354600454600554600654906007549260ff6008549560405197885260018060a01b038116602089015260a01c16151560408701526060860152608085015260a084015260c083015260e0820152f35b34610128575f36600319011261012857602060405173a0b86991c6218b36c1d19d4a2e9eb0ce3606eb488152f35b34610128575f366003190112610128576020604051735d3a536e4d6dbd6114cc1ead35777bab948e36438152f35b34610128575f36600319011261012857602060ff5f5460181c166040519015158152f35b34610128575f36600319011261012857602060405173f650c3d88d12db855b8bf7d11be6c55a4e07dcc98152f35b34610128575f366003190112610128576020600154604051908152f35b34610128575f366003190112610128575f5460405160309190911c6001600160a01b03168152602090f35b34610128575f36600319011261012857602060ff5f5460081c166040519015158152f35b34610128575f3660031901126101285761001a610637565b34610128575f36600319011261012857602060ff5f54166040519015158152f35b34610128575f3660031901126101285760209060ff5f5460101c1615158152f35b90601f8019910116810190811067ffffffffffffffff82111761031c57604052565b5f5460ff81166116f05760ff19166001175f556106526116f3565b73a0b86991c6218b36c1d19d4a2e9eb0ce3606eb4881527339aa39c021dfbae8fac545936693ac917d5e75636020820152604051635fe3b56760e01b81526020816004817339aa39c021dfbae8fac545936693ac917d5e75635afa908115610e2e575f916116ab575b5060405163731f0c2b60e01b81527339aa39c021dfbae8fac545936693ac917d5e756360048201529190602090839060249082906001600160a01b03165afa918215610e2e575f9261168a575b5060408101911515825260405190634c38e83560e01b825273a0b86991c6218b36c1d19d4a2e9eb0ce3606eb4860048301526020826024815f51602061199f5f395f51905f525afa918215610e2e575f92611656575b50606081019182526040516370a0823160e01b81525f51602061199f5f395f51905f52600482015260208160248173a0b86991c6218b36c1d19d4a2e9eb0ce3606eb485afa908115610e2e575f91611624575b5060808201908152604051631d8e90d160e11b81526020816004817339aa39c021dfbae8fac545936693ac917d5e75635afa908115610e2e575f916115f2575b5060a08301526040516370a0823160e01b81525f51602061199f5f395f51905f5260048201526020816024817339aa39c021dfbae8fac545936693ac917d5e75635afa908115610e2e575f916115c0575b508060e084015261152b575b6108566116f3565b73dac17f958d2ee523a2206206994597c13d831ec7815273f650c3d88d12db855b8bf7d11be6c55a4e07dcc96020820152604051635fe3b56760e01b815260208160048173f650c3d88d12db855b8bf7d11be6c55a4e07dcc95afa908115610e2e575f916114e6575b5060405163731f0c2b60e01b815273f650c3d88d12db855b8bf7d11be6c55a4e07dcc960048201529390602090859060249082906001600160a01b03165afa938415610e2e575f946114c5575b5060408201931515845260405191634c38e83560e01b835273dac17f958d2ee523a2206206994597c13d831ec760048401526020836024815f51602061199f5f395f51905f525afa928315610e2e575f93611491575b50606081019283526040516370a0823160e01b81525f51602061199f5f395f51905f5260048201529260208460248173dac17f958d2ee523a2206206994597c13d831ec75afa938415610e2e575f9461145d575b5060808201938452604051631d8e90d160e11b815260208160048173f650c3d88d12db855b8bf7d11be6c55a4e07dcc95afa908115610e2e575f9161142b575b5060a08301526040516370a0823160e01b81525f51602061199f5f395f51905f52600482015260208160248173f650c3d88d12db855b8bf7d11be6c55a4e07dcc95afa908115610e2e575f916113f9575b508060e0840152611364575b610a5b6116f3565b915f5160206119bf5f395f51905f528352735d3a536e4d6dbd6114cc1ead35777bab948e36436020840152604051635fe3b56760e01b8152602081600481735d3a536e4d6dbd6114cc1ead35777bab948e36435afa908115610e2e575f9161131f575b5060405163731f0c2b60e01b8152735d3a536e4d6dbd6114cc1ead35777bab948e3643600482015298906020908a9060249082906001600160a01b03165afa988915610e2e575f996112ee575b5060408401981515895260405194634c38e83560e01b86525f5160206119bf5f395f51905f5260048701526020866024815f51602061199f5f395f51905f525afa958615610e2e575f966112ba575b50606085019586526040516370a0823160e01b81525f51602061199f5f395f51905f5260048201529960208b6024815f5160206119bf5f395f51905f525afa9a8b15610e2e575f9b611286575b50608086019a8b52604051631d8e90d160e11b8152602081600481735d3a536e4d6dbd6114cc1ead35777bab948e36435afa908115610e2e575f91611254575b5060a08701526040516370a0823160e01b81525f51602061199f5f395f51905f526004820152602081602481735d3a536e4d6dbd6114cc1ead35777bab948e36435afa908115610e2e575f91611222575b508060e0880152611189575b60ff9b610c4f6116f3565b5082610c5a86611933565b610c6385611933565b10611182575b610c7288611933565b610c7b82611933565b1061117b575b8051600280546001600160a01b0319166001600160a01b0392831617905560208201516003805460408501516001600160a81b0319909116929093169190911791151560a090811b60ff60a01b169290921790556060820151600455608082015160055581015160065560c081015160075560e00151600855511580159a90611170575b508915611161575b5063ff00000097989962ff00005f549b151560101b1699511597881598611156575b50871561114b575b50861561113b575b5050841561112b575b5050821561111b575b5050151560181b169061ff00828263ffff00001986161717858160101c1690811561110e575b50151560081b169263ffffff001916171717805f5560081c16806110ed575b6110c5575b47610e39575b6040516370a0823160e01b81523060048201526020816024815f5160206119bf5f395f51905f525afa908115610e2e575f91610dfc575b508060015565ff00000000005f5491151560281b169065ff00000000001916175f55565b90506020813d602011610e26575b81610e1760209383610615565b8101031261012857515f610dd8565b3d9150610e0a565b6040513d5f823e3d90fd5b6040516370a0823160e01b81523060048201526020816024815f5160206119bf5f395f51905f525afa908115610e2e575f91611093575b50604051610e7f606082610615565b6002815260208101604036823781511561107f5773c02aaa39b223fe8d0a0e5c4f27ead9083c756cc2815281516001101561107f575f5160206119bf5f395f51905f5260408084019190915251637ff36ab560e01b815260016004820152608060248201529151608483018190524791839160a4830191905f5b81811061105d575050509181805f943060448301524260648301520391737a250d5630b4cf539739df2c5dacb4c659f2488d5af18015610e2e57610fc3575b506040516370a0823160e01b8152306004820152906020826024815f5160206119bf5f395f51905f525afa918215610e2e575f92610f8f575b5081031115610da1575b634e487b7160e01b5f52601160045260245ffd5b9091506020813d602011610fbb575b81610fab60209383610615565b810103126101285751905f610f71565b3d9150610f9e565b3d805f833e610fd28183610615565b8101906020818303126101285780519067ffffffffffffffff821161012857019080601f830112156101285781519167ffffffffffffffff831161031c578260051b9060208201936110276040519586610615565b845260208085019282010192831161012857602001905b82821061104d57505050610f38565b815181526020918201910161103e565b82516001600160a01b0316845286945060209384019390920191600101610ef9565b634e487b7160e01b5f52603260045260245ffd5b90506020813d6020116110bd575b816110ae60209383610615565b8101031261012857515f610e70565b3d91506110a1565b6110cd611759565b151564ff000000005f549160201b169064ff000000001916175f55610d9b565b506002546001600160a01b03165f5160206119bf5f395f51905f5214610d96565b86915060181c165f610d77565b60c0015190511190505f80610d51565b60c0015190511192505f80610d48565b60c0015190511194505f80610d3f565b51151596505f610d37565b51151597505f610d2f565b511515985063ff000000610d0d565b51151599505f610d05565b5086610c81565b5084610c69565b604051633af9e66960e01b81525f51602061199f5f395f51905f5260048201529b60208d6024815f735d3a536e4d6dbd6114cc1ead35777bab948e36435af1805f916111f1575b60ff9e506111e757505f60c08801525b9b50610c44565b60c08801526111e0565b905060208e813d831161121b575b6112098183610615565b810103126101285760ff9d51906111d0565b503d6111ff565b90506020813d60201161124c575b8161123d60209383610615565b8101031261012857515f610c38565b3d9150611230565b90506020813d60201161127e575b8161126f60209383610615565b8101031261012857515f610be7565b3d9150611262565b909a506020813d6020116112b2575b816112a260209383610615565b810103126101285751995f610ba7565b3d9150611295565b9095506020813d6020116112e6575b816112d660209383610615565b810103126101285751945f610b5a565b3d91506112c9565b61131191995060203d602011611318575b6113098183610615565b810190611741565b975f610b0b565b503d6112ff565b90506020813d60201161135c575b8161133a60209383610615565b810103126101285751976001600160a01b038916890361012857976020610abe565b3d915061132d565b604051633af9e66960e01b81525f51602061199f5f395f51905f5260048201526020816024815f73f650c3d88d12db855b8bf7d11be6c55a4e07dcc95af15f91816113c5575b506113bb57505f60c0830152610a53565b60c0830152610a53565b9091506020813d6020116113f1575b816113e160209383610615565b810103126101285751905f6113aa565b3d91506113d4565b90506020813d602011611423575b8161141460209383610615565b8101031261012857515f610a47565b3d9150611407565b90506020813d602011611455575b8161144660209383610615565b8101031261012857515f6109f6565b3d9150611439565b9093506020813d602011611489575b8161147960209383610615565b810103126101285751925f6109b6565b3d915061146c565b9092506020813d6020116114bd575b816114ad60209383610615565b810103126101285751915f610962565b3d91506114a0565b6114df91945060203d602011611318576113098183610615565b925f61090c565b90506020813d602011611523575b8161150160209383610615565b810103126101285751926001600160a01b0384168403610128579260206108bf565b3d91506114f4565b604051633af9e66960e01b81525f51602061199f5f395f51905f5260048201526020816024815f7339aa39c021dfbae8fac545936693ac917d5e75635af15f918161158c575b5061158257505f60c083015261084e565b60c083015261084e565b9091506020813d6020116115b8575b816115a860209383610615565b810103126101285751905f611571565b3d915061159b565b90506020813d6020116115ea575b816115db60209383610615565b8101031261012857515f610842565b3d91506115ce565b90506020813d60201161161c575b8161160d60209383610615565b8101031261012857515f6107f1565b3d9150611600565b90506020813d60201161164e575b8161163f60209383610615565b8101031261012857515f6107b1565b3d9150611632565b9091506020813d602011611682575b8161167260209383610615565b810103126101285751905f61075e565b3d9150611665565b6116a491925060203d602011611318576113098183610615565b905f610708565b90506020813d6020116116e8575b816116c660209383610615565b810103126101285751906001600160a01b0382168203610128579060206106bb565b3d91506116b9565b50565b60405190610100820182811067ffffffffffffffff82111761031c576040525f60e0838281528260208201528260408201528260608201528260808201528260a08201528260c08201520152565b90816020910312610128575180151581036101285790565b6040516370a0823160e01b81523060048201525f906020816024815f5160206119bf5f395f51905f525afa908115610e2e575f91611901575b5080156118fb5760405163095ea7b360e01b81525f51602061199f5f395f51905f526004820152602481018290526020816044815f5f5160206119bf5f395f51905f525af18015610e2e576118de575b505f51602061199f5f395f51905f523b1561012857604051633d14d1b760e21b81525f5160206119bf5f395f51905f5260048201528160248201525f60448201525f81606481835f51602061199f5f395f51905f525af190816118c9575b50611849575090565b5f51602061199f5f395f51905f523b156118c5576040519063f3fef3a360e01b82525f5160206119bf5f395f51905f5260048301526024820152818082604481835f51602061199f5f395f51905f525af191826118b0575b50506118aa5790565b50600190565b816118ba91610615565b6118c557815f6118a1565b5080fd5b6118d69193505f90610615565b5f915f611840565b6118f69060203d602011611318576113098183610615565b6117e2565b50505f90565b90506020813d60201161192b575b8161191c60209383610615565b8101031261012857515f611792565b3d915061190f565b5f906040810151611992575b608081015161197d575b606060c0820151910190815111611968575b518101809111610f7b5790565b90600160fd1b8101908110610f7b579061195b565b90600160fe1b8101908110610f7b5790611949565b600160ff1b915061193f56fe000000000000000000000000245a551ee0f55005e510b239c917fa34b41b34610000000000000000000000006b175474e89094c44da98b954eedeac495271d0fa2646970667358221220f11c3cc460a2ced4d55f26cba455ae5dcfa13c12849ed2a8e2fcc69dc58a616464736f6c634300081e0033","linkReferences":{}},"methodIdentifiers":{"CDAI()":"878f7603","CUSDC()":"a37b9e7f","CUSDT()":"6504fbad","DAI()":"e0bab4c4","TARGET()":"cc1f2afa","UNISWAP_V2_ROUTER()":"a82ed9ec","USDC()":"89a30271","USDT()":"c54e44eb","WETH()":"ad5c4648","chosenState()":"913551ed","depositPathReachable()":"0aed178f","executeOnOpportunity()":"3c2448ed","executed()":"31a38c89","exercisedPath()":"b14d87b4","exploitPathUsed()":"d78c4281","hypothesisValidated()":"463defd1","profitAchieved()":"f0a01176","profitAmount()":"5ff972cc","profitToken()":"49343624","withdrawPathReachable()":"847df735"},"id":0}