{"0x025c6da5bd0e6a5dd1350fda9e3b6a614b205a1f/contracts/AirdropGrapesToken.sol":{"AirdropGrapesToken":{"abi":[{"type":"constructor","inputs":[{"name":"_grapesTokenAddress","type":"address","internalType":"address"},{"name":"_alphaContractAddress","type":"address","internalType":"address"},{"name":"_betaContractAddress","type":"address","internalType":"address"},{"name":"_gammaContractAddress","type":"address","internalType":"address"},{"name":"_ALPHA_DISTRIBUTION_AMOUNT","type":"uint256","internalType":"uint256"},{"name":"_BETA_DISTRIBUTION_AMOUNT","type":"uint256","internalType":"uint256"},{"name":"_GAMMA_DISTRIBUTION_AMOUNT","type":"uint256","internalType":"uint256"}],"stateMutability":"nonpayable"},{"type":"function","name":"ALPHA_DISTRIBUTION_AMOUNT","inputs":[],"outputs":[{"name":"","type":"uint256","internalType":"uint256"}],"stateMutability":"view"},{"type":"function","name":"BETA_DISTRIBUTION_AMOUNT","inputs":[],"outputs":[{"name":"","type":"uint256","internalType":"uint256"}],"stateMutability":"view"},{"type":"function","name":"GAMMA_DISTRIBUTION_AMOUNT","inputs":[],"outputs":[{"name":"","type":"uint256","internalType":"uint256"}],"stateMutability":"view"},{"type":"function","name":"alpha","inputs":[],"outputs":[{"name":"","type":"address","internalType":"contract ERC721Enumerable"}],"stateMutability":"view"},{"type":"function","name":"alphaClaimed","inputs":[{"name":"","type":"uint256","internalType":"uint256"}],"outputs":[{"name":"","type":"bool","internalType":"bool"}],"stateMutability":"view"},{"type":"function","name":"beta","inputs":[],"outputs":[{"name":"","type":"address","internalType":"contract ERC721Enumerable"}],"stateMutability":"view"},{"type":"function","name":"betaClaimed","inputs":[{"name":"","type":"uint256","internalType":"uint256"}],"outputs":[{"name":"","type":"bool","internalType":"bool"}],"stateMutability":"view"},{"type":"function","name":"claimDuration","inputs":[],"outputs":[{"name":"","type":"uint256","internalType":"uint256"}],"stateMutability":"view"},{"type":"function","name":"claimStartTime","inputs":[],"outputs":[{"name":"","type":"uint256","internalType":"uint256"}],"stateMutability":"view"},{"type":"function","name":"claimTokens","inputs":[],"outputs":[],"stateMutability":"nonpayable"},{"type":"function","name":"claimUnclaimedTokens","inputs":[],"outputs":[],"stateMutability":"nonpayable"},{"type":"function","name":"gamma","inputs":[],"outputs":[{"name":"","type":"address","internalType":"contract ERC721Enumerable"}],"stateMutability":"view"},{"type":"function","name":"gammaClaimed","inputs":[{"name":"","type":"uint256","internalType":"uint256"}],"outputs":[{"name":"","type":"bool","internalType":"bool"}],"stateMutability":"view"},{"type":"function","name":"getClaimableTokenAmount","inputs":[{"name":"_account","type":"address","internalType":"address"}],"outputs":[{"name":"","type":"uint256","internalType":"uint256"}],"stateMutability":"view"},{"type":"function","name":"grapesToken","inputs":[],"outputs":[{"name":"","type":"address","internalType":"contract IERC20"}],"stateMutability":"view"},{"type":"function","name":"owner","inputs":[],"outputs":[{"name":"","type":"address","internalType":"address"}],"stateMutability":"view"},{"type":"function","name":"pauseClaimablePeriod","inputs":[],"outputs":[],"stateMutability":"nonpayable"},{"type":"function","name":"paused","inputs":[],"outputs":[{"name":"","type":"bool","internalType":"bool"}],"stateMutability":"view"},{"type":"function","name":"renounceOwnership","inputs":[],"outputs":[],"stateMutability":"nonpayable"},{"type":"function","name":"startClaimablePeriod","inputs":[{"name":"_claimDuration","type":"uint256","internalType":"uint256"}],"outputs":[],"stateMutability":"nonpayable"},{"type":"function","name":"totalClaimed","inputs":[],"outputs":[{"name":"","type":"uint256","internalType":"uint256"}],"stateMutability":"view"},{"type":"function","name":"transferOwnership","inputs":[{"name":"newOwner","type":"address","internalType":"address"}],"outputs":[],"stateMutability":"nonpayable"},{"type":"event","name":"AirDrop","inputs":[{"name":"account","type":"address","indexed":true,"internalType":"address"},{"name":"amount","type":"uint256","indexed":true,"internalType":"uint256"},{"name":"timestamp","type":"uint256","indexed":false,"internalType":"uint256"}],"anonymous":false},{"type":"event","name":"AlphaClaimed","inputs":[{"name":"tokenId","type":"uint256","indexed":true,"internalType":"uint256"},{"name":"account","type":"address","indexed":true,"internalType":"address"},{"name":"timestamp","type":"uint256","indexed":false,"internalType":"uint256"}],"anonymous":false},{"type":"event","name":"BetaClaimed","inputs":[{"name":"tokenId","type":"uint256","indexed":true,"internalType":"uint256"},{"name":"account","type":"address","indexed":true,"internalType":"address"},{"name":"timestamp","type":"uint256","indexed":false,"internalType":"uint256"}],"anonymous":false},{"type":"event","name":"ClaimStart","inputs":[{"name":"_claimDuration","type":"uint256","indexed":false,"internalType":"uint256"},{"name":"_claimStartTime","type":"uint256","indexed":false,"internalType":"uint256"}],"anonymous":false},{"type":"event","name":"GammaClaimed","inputs":[{"name":"tokenId","type":"uint256","indexed":true,"internalType":"uint256"},{"name":"account","type":"address","indexed":true,"internalType":"address"},{"name":"timestamp","type":"uint256","indexed":false,"internalType":"uint256"}],"anonymous":false},{"type":"event","name":"OwnershipTransferred","inputs":[{"name":"previousOwner","type":"address","indexed":true,"internalType":"address"},{"name":"newOwner","type":"address","indexed":true,"internalType":"address"}],"anonymous":false},{"type":"event","name":"Paused","inputs":[{"name":"account","type":"address","indexed":false,"internalType":"address"}],"anonymous":false},{"type":"event","name":"Unpaused","inputs":[{"name":"account","type":"address","indexed":false,"internalType":"address"}],"anonymous":false}],"userdoc":{},"devdoc":{},"evm":{"bytecode":{"object":"6101606040523480156200001257600080fd5b5060405162001fc438038062001fc4833981016040819052620000359162000349565b62000040336200022d565b6000805460ff60a01b191690556001600160a01b038716620000b55760405162461bcd60e51b815260206004820152602360248201527f5468652047726170657320746f6b656e20616464726573732063616e2774206260448201526206520360ec1b60648201526084015b60405180910390fd5b6001600160a01b0386166200011b5760405162461bcd60e51b815260206004820152602560248201527f54686520416c70686120636f6e747261637420616464726573732063616e2774604482015264020626520360dc1b6064820152608401620000ac565b6001600160a01b0385166200017f5760405162461bcd60e51b8152602060048201526024808201527f546865204265746120636f6e747261637420616464726573732063616e2774206044820152630626520360e41b6064820152608401620000ac565b6001600160a01b038416620001e55760405162461bcd60e51b815260206004820152602560248201527f5468652047616d6d6120636f6e747261637420616464726573732063616e2774604482015264020626520360dc1b6064820152608401620000ac565b6001600160a01b0380881660805286811660a05285811660c052841660e052610100839052610120829052610140819052620002206200027d565b50505050505050620003c3565b600080546001600160a01b038381166001600160a01b0319831681178455604051919092169283917f8be0079c531659141344cd1fd0a4f28419497f9722a3daafe3b4186f6b6457e09190a35050565b62000291600054600160a01b900460ff1690565b15620002d35760405162461bcd60e51b815260206004820152601060248201526f14185d5cd8589b194e881c185d5cd95960821b6044820152606401620000ac565b6000805460ff60a01b1916600160a01b1790557f62e78cea01bee320cd4e420270b5ea74000d11b0c9f74754ebdbfc544b05a2586200030f3390565b6040516001600160a01b03909116815260200160405180910390a1565b80516001600160a01b03811681146200034457600080fd5b919050565b600080600080600080600060e0888a0312156200036557600080fd5b62000370886200032c565b965062000380602089016200032c565b955062000390604089016200032c565b9450620003a0606089016200032c565b93506080880151925060a0880151915060c0880151905092959891949750929550565b60805160a05160c05160e051610100516101205161014051611b1a620004aa6000396000818161032c01526114030152600081816101ff015261142d01526000818161028201526114570152600081816102e201528181610a6801528181610b01015281816112a601526113410152600081816102a9015281816105aa015281816108c0015281816109590152818161114401526111df01526000818161035c0152818161063c01528181610719015281816107b201528181610fe2015261107d01526000818161025b01528181610c1e01528181610dbe0152610e3b0152611b1a6000f3fe608060405234801561001057600080fd5b50600436106101425760003560e01c806398d0e0c6116100b8578063b13739291161007c578063b1373929146102dd578063b7c1f6fa14610304578063c89645f514610327578063d54ad2a11461034e578063db1d0fd514610357578063f2fde38b1461037e57600080fd5b806398d0e0c6146102565780639c1688ac1461027d5780639faa3c91146102a4578063a6a11bb1146102cb578063ab1a4d94146102d457600080fd5b80635c975abb1161010a5780635c975abb146101e05780636362bab5146101f25780636fc334fc146101fa578063715018a61461022157806388c5db27146102295780638da5cb5b1461023157600080fd5b806304b62fd3146101475780632f1f38ae1461015c5780633a6afc251461019457806348c54b9d146101b55780634f2a7abb146101bd575b600080fd5b61015a61015536600461194b565b610391565b005b61017f61016a36600461194b565b60056020526000908152604090205460ff1681565b60405190151581526020015b60405180910390f35b6101a76101a2366004611964565b6104c5565b60405190815260200161018b565b61015a6104d9565b61017f6101cb36600461194b565b60046020526000908152604090205460ff1681565b600054600160a01b900460ff1661017f565b61015a610c98565b6101a77f000000000000000000000000000000000000000000000000000000000000000081565b61015a610ccc565b61015a610d00565b6000546001600160a01b03165b6040516001600160a01b03909116815260200161018b565b61023e7f000000000000000000000000000000000000000000000000000000000000000081565b6101a77f000000000000000000000000000000000000000000000000000000000000000081565b61023e7f000000000000000000000000000000000000000000000000000000000000000081565b6101a760035481565b6101a760025481565b61023e7f000000000000000000000000000000000000000000000000000000000000000081565b61017f61031236600461194b565b60066020526000908152604090205460ff1681565b6101a77f000000000000000000000000000000000000000000000000000000000000000081565b6101a760015481565b61023e7f000000000000000000000000000000000000000000000000000000000000000081565b61015a61038c366004611964565b610e87565b6000546001600160a01b031633146103c45760405162461bcd60e51b81526004016103bb9061198d565b60405180910390fd5b600054600160a01b900460ff166104145760405162461bcd60e51b815260206004820152601460248201527314185d5cd8589b194e881b9bdd081c185d5cd95960621b60448201526064016103bb565b600081116104745760405162461bcd60e51b815260206004820152602760248201527f436c61696d206475726174696f6e2073686f756c6420626520677265617465726044820152660207468616e20360cc1b60648201526084016103bb565b600281905542600355610485610f1f565b6003546040805183815260208101929092527f173cfce21d858913a305a9349759fce57ca02969c9500cc06f06a52eb325ac53910160405180910390a150565b6000806104d183610fbc565b509392505050565b600054600160a01b900460ff16156105265760405162461bcd60e51b815260206004820152601060248201526f14185d5cd8589b194e881c185d5cd95960821b60448201526064016103bb565b6003544210158015610546575060025460035461054391906119d8565b42105b6105925760405162461bcd60e51b815260206004820152601c60248201527f436c61696d61626c6520706572696f642069732066696e69736865640000000060448201526064016103bb565b6040516370a0823160e01b81523360048201526000907f00000000000000000000000000000000000000000000000000000000000000006001600160a01b0316906370a0823190602401602060405180830381865afa1580156105f9573d6000803e3d6000fd5b505050506040513d601f19601f8201168201806040525081019061061d91906119f0565b11806106b157506040516370a0823160e01b81523360048201526000907f00000000000000000000000000000000000000000000000000000000000000006001600160a01b0316906370a0823190602401602060405180830381865afa15801561068b573d6000803e3d6000fd5b505050506040513d601f19601f820116820180604052508101906106af91906119f0565b115b6106f05760405162461bcd60e51b815260206004820152601060248201526f4e6f7468696e6720746f20636c61696d60801b60448201526064016103bb565b6000806106fc33610fbc565b909250905060005b6040516370a0823160e01b81523360048201527f00000000000000000000000000000000000000000000000000000000000000006001600160a01b0316906370a0823190602401602060405180830381865afa158015610768573d6000803e3d6000fd5b505050506040513d601f19601f8201168201806040525081019061078c91906119f0565b8110156108a757604051632f745c5960e01b8152336004820152602481018290526000907f00000000000000000000000000000000000000000000000000000000000000006001600160a01b031690632f745c5990604401602060405180830381865afa158015610801573d6000803e3d6000fd5b505050506040513d601f19601f8201168201806040525081019061082591906119f0565b60008181526004602052604090205490915060ff166108965760008181526004602052604090819020805460ff1916600117905551339082907f592993b07849bd4ab51c2de371aea3db52156da6f3cd8476b1c585454b254f489061088d9042815260200190565b60405180910390a35b506108a081611a09565b9050610704565b5060005b6040516370a0823160e01b81523360048201527f00000000000000000000000000000000000000000000000000000000000000006001600160a01b0316906370a0823190602401602060405180830381865afa15801561090f573d6000803e3d6000fd5b505050506040513d601f19601f8201168201806040525081019061093391906119f0565b811015610a4e57604051632f745c5960e01b8152336004820152602481018290526000907f00000000000000000000000000000000000000000000000000000000000000006001600160a01b031690632f745c5990604401602060405180830381865afa1580156109a8573d6000803e3d6000fd5b505050506040513d601f19601f820116820180604052508101906109cc91906119f0565b60008181526005602052604090205490915060ff16610a3d5760008181526005602052604090819020805460ff1916600117905551339082907f60a71155ef46ccb54dcf7272c207d5c8115509a8f30aa6c09b8fc4cbbe3fa48690610a349042815260200190565b60405180910390a35b50610a4781611a09565b90506108ab565b506000805b6040516370a0823160e01b81523360048201527f00000000000000000000000000000000000000000000000000000000000000006001600160a01b0316906370a0823190602401602060405180830381865afa158015610ab7573d6000803e3d6000fd5b505050506040513d601f19601f82011682018060405250810190610adb91906119f0565b811015610c1057604051632f745c5960e01b8152336004820152602481018290526000907f00000000000000000000000000000000000000000000000000000000000000006001600160a01b031690632f745c5990604401602060405180830381865afa158015610b50573d6000803e3d6000fd5b505050506040513d601f19601f82011682018060405250810190610b7491906119f0565b60008181526006602052604090205490915060ff16158015610b9557508383105b15610bff5760008181526006602052604090819020805460ff1916600117905551339082907fe76cdf9bb2f0219ea4bb21f5df9c962806cc82832dc5c7789f0f2ef7b57b176190610be99042815260200190565b60405180910390a382610bfb81611a09565b9350505b50610c0981611a09565b9050610a53565b50610c456001600160a01b037f000000000000000000000000000000000000000000000000000000000000000016338561149e565b8260016000828254610c5791906119d8565b9091555050604051428152839033907fc804beabd6deef69632486188d3b1a0fc6837d20bf348393884d368fa5bf10cd9060200160405180910390a3505050565b6000546001600160a01b03163314610cc25760405162461bcd60e51b81526004016103bb9061198d565b610cca6114f5565b565b6000546001600160a01b03163314610cf65760405162461bcd60e51b81526004016103bb9061198d565b610cca600061157d565b6000546001600160a01b03163314610d2a5760405162461bcd60e51b81526004016103bb9061198d565b600254600354610d3a91906119d8565b4211610d945760405162461bcd60e51b8152602060048201526024808201527f436c61696d61626c6520706572696f64206973206e6f742066696e6973686564604482015263081e595d60e21b60648201526084016103bb565b610e62610da96000546001600160a01b031690565b6040516370a0823160e01b81523060048201527f00000000000000000000000000000000000000000000000000000000000000006001600160a01b0316906370a0823190602401602060405180830381865afa158015610e0d573d6000803e3d6000fd5b505050506040513d601f19601f82011682018060405250810190610e3191906119f0565b6001600160a01b037f000000000000000000000000000000000000000000000000000000000000000016919061149e565b478015610e8457610e84610e7e6000546001600160a01b031690565b826115cd565b50565b6000546001600160a01b03163314610eb15760405162461bcd60e51b81526004016103bb9061198d565b6001600160a01b038116610f165760405162461bcd60e51b815260206004820152602660248201527f4f776e61626c653a206e6577206f776e657220697320746865207a65726f206160448201526564647265737360d01b60648201526084016103bb565b610e848161157d565b600054600160a01b900460ff16610f6f5760405162461bcd60e51b815260206004820152601460248201527314185d5cd8589b194e881b9bdd081c185d5cd95960621b60448201526064016103bb565b6000805460ff60a01b191690557f5db9ee0a495bf2e6ff9c91a7834c1ba4fdd244a5e8aa4e537bd38aeae4b073aa335b6040516001600160a01b03909116815260200160405180910390a1565b6000806000805b6040516370a0823160e01b81526001600160a01b0386811660048301527f000000000000000000000000000000000000000000000000000000000000000016906370a0823190602401602060405180830381865afa158015611029573d6000803e3d6000fd5b505050506040513d601f19601f8201168201806040525081019061104d91906119f0565b81101561112057604051632f745c5960e01b81526001600160a01b038681166004830152602482018390526000917f000000000000000000000000000000000000000000000000000000000000000090911690632f745c5990604401602060405180830381865afa1580156110c6573d6000803e3d6000fd5b505050506040513d601f19601f820116820180604052508101906110ea91906119f0565b60008181526004602052604090205490915060ff1661110f5761110c83611a09565b92505b5061111981611a09565b9050610fc3565b506000805b6040516370a0823160e01b81526001600160a01b0387811660048301527f000000000000000000000000000000000000000000000000000000000000000016906370a0823190602401602060405180830381865afa15801561118b573d6000803e3d6000fd5b505050506040513d601f19601f820116820180604052508101906111af91906119f0565b81101561128257604051632f745c5960e01b81526001600160a01b038781166004830152602482018390526000917f000000000000000000000000000000000000000000000000000000000000000090911690632f745c5990604401602060405180830381865afa158015611228573d6000803e3d6000fd5b505050506040513d601f19601f8201168201806040525081019061124c91906119f0565b60008181526005602052604090205490915060ff166112715761126e83611a09565b92505b5061127b81611a09565b9050611125565b506000805b6040516370a0823160e01b81526001600160a01b0388811660048301527f000000000000000000000000000000000000000000000000000000000000000016906370a0823190602401602060405180830381865afa1580156112ed573d6000803e3d6000fd5b505050506040513d601f19601f8201168201806040525081019061131191906119f0565b8110156113e457604051632f745c5960e01b81526001600160a01b038881166004830152602482018390526000917f000000000000000000000000000000000000000000000000000000000000000090911690632f745c5990604401602060405180830381865afa15801561138a573d6000803e3d6000fd5b505050506040513d601f19601f820116820180604052508101906113ae91906119f0565b60008181526006602052604090205490915060ff166113d3576113d083611a09565b92505b506113dd81611a09565b9050611287565b5060006113fa6113f484866119d8565b836116e6565b905060006114287f000000000000000000000000000000000000000000000000000000000000000083611a24565b6114527f000000000000000000000000000000000000000000000000000000000000000086611a24565b61147c7f000000000000000000000000000000000000000000000000000000000000000088611a24565b61148691906119d8565b61149091906119d8565b989197509095505050505050565b604080516001600160a01b038416602482015260448082018490528251808303909101815260649091019091526020810180516001600160e01b031663a9059cbb60e01b1790526114f09084906116ff565b505050565b600054600160a01b900460ff16156115425760405162461bcd60e51b815260206004820152601060248201526f14185d5cd8589b194e881c185d5cd95960821b60448201526064016103bb565b6000805460ff60a01b1916600160a01b1790557f62e78cea01bee320cd4e420270b5ea74000d11b0c9f74754ebdbfc544b05a258610f9f3390565b600080546001600160a01b038381166001600160a01b0319831681178455604051919092169283917f8be0079c531659141344cd1fd0a4f28419497f9722a3daafe3b4186f6b6457e09190a35050565b8047101561161d5760405162461bcd60e51b815260206004820152601d60248201527f416464726573733a20696e73756666696369656e742062616c616e636500000060448201526064016103bb565b6000826001600160a01b03168260405160006040518083038185875af1925050503d806000811461166a576040519150601f19603f3d011682016040523d82523d6000602084013e61166f565b606091505b50509050806114f05760405162461bcd60e51b815260206004820152603a60248201527f416464726573733a20756e61626c6520746f2073656e642076616c75652c207260448201527f6563697069656e74206d6179206861766520726576657274656400000000000060648201526084016103bb565b60008183116116f65750816116f9565b50805b92915050565b6000611754826040518060400160405280602081526020017f5361666545524332303a206c6f772d6c6576656c2063616c6c206661696c6564815250856001600160a01b03166117d19092919063ffffffff16565b8051909150156114f057808060200190518101906117729190611a43565b6114f05760405162461bcd60e51b815260206004820152602a60248201527f5361666545524332303a204552433230206f7065726174696f6e20646964206e6044820152691bdd081cdd58d8d9595960b21b60648201526084016103bb565b60606117e084846000856117ea565b90505b9392505050565b60608247101561184b5760405162461bcd60e51b815260206004820152602660248201527f416464726573733a20696e73756666696369656e742062616c616e636520666f6044820152651c8818d85b1b60d21b60648201526084016103bb565b843b6118995760405162461bcd60e51b815260206004820152601d60248201527f416464726573733a2063616c6c20746f206e6f6e2d636f6e747261637400000060448201526064016103bb565b600080866001600160a01b031685876040516118b59190611a95565b60006040518083038185875af1925050503d80600081146118f2576040519150601f19603f3d011682016040523d82523d6000602084013e6118f7565b606091505b5091509150611907828286611912565b979650505050505050565b606083156119215750816117e3565b8251156119315782518084602001fd5b8160405162461bcd60e51b81526004016103bb9190611ab1565b60006020828403121561195d57600080fd5b5035919050565b60006020828403121561197657600080fd5b81356001600160a01b03811681146117e357600080fd5b6020808252818101527f4f776e61626c653a2063616c6c6572206973206e6f7420746865206f776e6572604082015260600190565b634e487b7160e01b600052601160045260246000fd5b600082198211156119eb576119eb6119c2565b500190565b600060208284031215611a0257600080fd5b5051919050565b6000600019821415611a1d57611a1d6119c2565b5060010190565b6000816000190483118215151615611a3e57611a3e6119c2565b500290565b600060208284031215611a5557600080fd5b815180151581146117e357600080fd5b60005b83811015611a80578181015183820152602001611a68565b83811115611a8f576000848401525b50505050565b60008251611aa7818460208701611a65565b9190910192915050565b6020815260008251806020840152611ad0816040850160208701611a65565b601f01601f1916919091016040019291505056fea2646970667358221220f4fff699c9a80bda20d9b4567fa8bc0f5959fad645ccf7fde0698103c38570ab64736f6c634300080a0033","linkReferences":{}},"methodIdentifiers":{"ALPHA_DISTRIBUTION_AMOUNT()":"9c1688ac","BETA_DISTRIBUTION_AMOUNT()":"6fc334fc","GAMMA_DISTRIBUTION_AMOUNT()":"c89645f5","alpha()":"db1d0fd5","alphaClaimed(uint256)":"4f2a7abb","beta()":"9faa3c91","betaClaimed(uint256)":"2f1f38ae","claimDuration()":"ab1a4d94","claimStartTime()":"a6a11bb1","claimTokens()":"48c54b9d","claimUnclaimedTokens()":"88c5db27","gamma()":"b1373929","gammaClaimed(uint256)":"b7c1f6fa","getClaimableTokenAmount(address)":"3a6afc25","grapesToken()":"98d0e0c6","owner()":"8da5cb5b","pauseClaimablePeriod()":"6362bab5","paused()":"5c975abb","renounceOwnership()":"715018a6","startClaimablePeriod(uint256)":"04b62fd3","totalClaimed()":"d54ad2a1","transferOwnership(address)":"f2fde38b"}}}}}