{"abi":[{"type":"constructor","inputs":[],"stateMutability":"nonpayable"},{"type":"function","name":"TARGET","inputs":[],"outputs":[{"name":"","type":"address","internalType":"address"}],"stateMutability":"view"},{"type":"function","name":"executeBalancer","inputs":[{"name":"stakeAmount","type":"uint256","internalType":"uint256"}],"outputs":[],"stateMutability":"nonpayable"},{"type":"function","name":"executeDirect","inputs":[{"name":"stakeAmount","type":"uint256","internalType":"uint256"}],"outputs":[],"stateMutability":"nonpayable"},{"type":"function","name":"executeOnOpportunity","inputs":[],"outputs":[],"stateMutability":"nonpayable"},{"type":"function","name":"executePairFlash","inputs":[{"name":"pair","type":"address","internalType":"address"},{"name":"desiredBorrow","type":"uint256","internalType":"uint256"}],"outputs":[],"stateMutability":"nonpayable"},{"type":"function","name":"pancakeCall","inputs":[{"name":"sender","type":"address","internalType":"address"},{"name":"amount0","type":"uint256","internalType":"uint256"},{"name":"amount1","type":"uint256","internalType":"uint256"},{"name":"data","type":"bytes","internalType":"bytes"}],"outputs":[],"stateMutability":"nonpayable"},{"type":"function","name":"profitAmount","inputs":[],"outputs":[{"name":"","type":"uint256","internalType":"uint256"}],"stateMutability":"view"},{"type":"function","name":"profitToken","inputs":[],"outputs":[{"name":"","type":"address","internalType":"address"}],"stateMutability":"view"},{"type":"function","name":"receiveFlashLoan","inputs":[{"name":"tokens","type":"address[]","internalType":"address[]"},{"name":"amounts","type":"uint256[]","internalType":"uint256[]"},{"name":"feeAmounts","type":"uint256[]","internalType":"uint256[]"},{"name":"userData","type":"bytes","internalType":"bytes"}],"outputs":[],"stateMutability":"nonpayable"},{"type":"function","name":"sushiCall","inputs":[{"name":"sender","type":"address","internalType":"address"},{"name":"amount0","type":"uint256","internalType":"uint256"},{"name":"amount1","type":"uint256","internalType":"uint256"},{"name":"data","type":"bytes","internalType":"bytes"}],"outputs":[],"stateMutability":"nonpayable"},{"type":"function","name":"uniswapV2Call","inputs":[{"name":"sender","type":"address","internalType":"address"},{"name":"amount0","type":"uint256","internalType":"uint256"},{"name":"amount1","type":"uint256","internalType":"uint256"},{"name":"data","type":"bytes","internalType":"bytes"}],"outputs":[],"stateMutability":"nonpayable"},{"type":"error","name":"BorrowTooSmall","inputs":[]},{"type":"error","name":"InvalidCallback","inputs":[]},{"type":"error","name":"NoFundingPath","inputs":[]},{"type":"error","name":"NoPoolLiquidity","inputs":[]},{"type":"error","name":"SelfOnly","inputs":[]},{"type":"error","name":"WarpUnavailable","inputs":[]}],"bytecode":{"object":"0x6080806040523460b75763f7c618c160e01b8152602081600481735d16b8ba2a9a4eca6126635a6ffbf05b52727d505afa90811560d5575f91606c575b50600180546001600160a01b0319166001600160a01b03929092169190911790556040516119ec90816100e18239f35b905060203d60201160cf575b601f8101601f191682016001600160401b0381118382101760bb5760209183916040528101031260b757516001600160a01b038116810360b7575f603c565b5f80fd5b634e487b7160e01b5f52604160045260245ffd5b503d6078565b6040513d5f823e3d90fdfe60806040526004361015610011575f80fd5b5f5f3560e01c8062991403146109b057806310d1e85c146105bc5780631e00ef0f1461064d5780633c2448ed14610634578063406e848c1461060d57806349343624146105e45780635ff972cc146105c157806384800812146105bc578063cc1f2afa14610594578063d40668fa146103875763f04f270714610092575f80fd5b346103845760803660031901126103845760043567ffffffffffffffff811161038257366023820112156103825780600401356100ce81610b92565b916100dc6040519384610b5c565b8183526024602084019260051b8201019036821161035a57602401915b8183106103625750505060243567ffffffffffffffff811161035657610123903690600401610baa565b60443567ffffffffffffffff811161035e57610143903690600401610baa565b9160643567ffffffffffffffff811161035a573660238201121561035a578060040135918561017184610c07565b9261017f6040519485610b5c565b84845260208401943660248284010111610356578060246020930187378401015273ba12222222228d8ba445958a75a0704d566bf2c8330361032f57600181511480159061034a575b801561033e575b61032f576001600160a01b03906101e590610f18565b511660018060a01b03600154160361032057816020828193510101031261031c578392839261024761024161021d61024e95516117e4565b936102278561127c565b61023a61023385610f18565b5191610f18565b5190610f39565b91610f18565b5190611865565b60018060a01b03600154169082604051602081019263a9059cbb60e01b845273ba12222222228d8ba445958a75a0704d566bf2c8602483015260448201526044815261029b606482610b5c565b51925af16102a761194f565b816102ed575b50156102b65780f35b60405162461bcd60e51b815260206004820152600f60248201526e1d1c985b9cd9995c8819985a5b1959608a1b6044820152606490fd5b8051801592508215610302575b50505f6102ad565b610315925060208091830101910161197e565b5f806102fa565b5f80fd5b63f7a632f560e01b8552600485fd5b63f7a632f560e01b8652600486fd5b506001855114156101cf565b506001845114156101c8565b8280fd5b8480fd5b8380fd5b82356001600160a01b038116810361031c578152602092830192016100f9565b505b80fd5b5034610384576020366003190112610384573033036105855760409081516103af8382610b5c565b60018152601f19830192602460208301853682376001546001600160a01b0316806103d986610f18565b5260208451916103e98684610b5c565b6001835281830198368a3760043561040084610f18565b5285516370a0823160e01b815230600482015294859182905afa92831561057b578693610547575b5083519260208401526020835261043f8484610b5c565b73ba12222222228d8ba445958a75a0704d566bf2c83b15610543578351632e1c224f60e11b81523060048201526080602482015294516084860181905260a486019290875b818110610524575050506020906003198684030160448701525191828152019590855b81811061050e5750505082806104cb86978794600319848303016064850152610c74565b03818373ba12222222228d8ba445958a75a0704d566bf2c85af190811561050557506104f45750f35b816104fe91610b5c565b6103845780f35b513d84823e3d90fd5b82518852602097880197909201916001016104a7565b82516001600160a01b0316855260209485019490920191600101610484565b8580fd5b9092506020813d602011610573575b8161056360209383610b5c565b8101031261031c5751915f610428565b3d9150610556565b84513d88823e3d90fd5b63f5bd95f760e01b8152600490fd5b503461038457806003193601126103845760206040515f5160206119975f395f51905f528152f35b6109b0565b503461038457806003193601126103845760206105dc610ee7565b604051908152f35b50346103845780600319360112610384576001546040516001600160a01b039091168152602090f35b5034610384576020366003190112610384573033036105855761063160043561127c565b80f35b5034610384578060031936011261038457610631610c98565b503461031c57604036600319011261031c576004356001600160a01b03811680820361031c576024353033036109a157604051630dfe168160e01b815292602084600481865afa938415610867575f94610980575b5060405163d21220a760e01b815291602083600481875afa928315610867575f9361094f575b506001546001600160a01b03908116951685149283159086908261093b575b505061092c57604051630240bc6b60e21b8152606081600481885afa8015610867575f905f906108cb575b6001600160701b03925085156108c35750165b60021c808210156108bb5750915b60018311156108ac576020602495604051968780926370a0823160e01b82523060048301525afa9182156108675786955f93610872575b50604080516001600160a01b0392909216602083015281810193909352918252610795606083610b5c565b1561080057823b156107fb576107dd9284928360405180968195829463022c0d9f60e01b84526004840152836024840152306044840152608060648401526084830190610c74565b03925af180156107f0576104f457505080f35b6040513d84823e3d90fd5b505050fd5b90918093503b1561031c57610847925f928360405180968195829463022c0d9f60e01b84528460048501526024840152306044840152608060648401526084830190610c74565b03925af1801561086757610859575080f35b61086591505f90610b5c565b005b6040513d5f823e3d90fd5b955091506020853d6020116108a4575b8161088f60209383610b5c565b8101031261031c57610795869551929061076a565b3d9150610882565b637139da2360e11b5f5260045ffd5b905091610733565b905016610725565b50506060813d606011610924575b816108e660609383610b5c565b8101031261031c576108f781610c42565b90604061090660208301610c42565b91015163ffffffff81160361031c576001600160701b039190610712565b3d91506108d9565b63e170e01160e01b5f5260045ffd5b6001600160a01b031614159050855f6106e7565b61097291935060203d602011610979575b61096a8183610b5c565b810190610c23565b915f6106c8565b503d610960565b61099a91945060203d6020116109795761096a8183610b5c565b925f6106a2565b63f5bd95f760e01b5f5260045ffd5b3461031c57608036600319011261031c576004356001600160a01b0381169081810361031c57506024356044356064359267ffffffffffffffff841161031c573660238501121561031c57836004013567ffffffffffffffff811161031c5760248501918186019136602484011161031c57503003610b4d576040908590031261031c57356001600160a01b0381169081900361031c573303610b4d578115610b455750905b81156108ac576044610a699101356117e4565b90610a738261127c565b60038102818104600303610b31576103e5900460018101809111610b31575f9282610aa2610aa7938695610f39565b611865565b60015460405163a9059cbb60e01b602082019081523360248301526044808301949094529281526001600160a01b0390911691908390610ae8606482610b5c565b51925af1610af461194f565b81610b02575b50156102b657005b8051801592508215610b17575b50505f610afa565b610b2a925060208091830101910161197e565b5f80610b0f565b634e487b7160e01b5f52601160045260245ffd5b905090610a56565b63f7a632f560e01b5f5260045ffd5b90601f8019910116810190811067ffffffffffffffff821117610b7e57604052565b634e487b7160e01b5f52604160045260245ffd5b67ffffffffffffffff8111610b7e5760051b60200190565b9080601f8301121561031c578135610bc181610b92565b92610bcf6040519485610b5c565b81845260208085019260051b82010192831161031c57602001905b828210610bf75750505090565b8135815260209182019101610bea565b67ffffffffffffffff8111610b7e57601f01601f191660200190565b9081602091031261031c57516001600160a01b038116810361031c5790565b51906001600160701b038216820361031c57565b8115610c60570490565b634e487b7160e01b5f52601260045260245ffd5b805180835260209291819084018484015e5f828201840152601f01601f1916010190565b60405163f7c618c160e01b81526020816004815f5160206119975f395f51905f525afa908115610867575f91610ec8575b50600180546001600160a01b0319166001600160a01b039290921691821790555f80556040516370a0823160e01b815230600482015290602082602481845afa918215610867575f92610e93575b50602060249183600255604051928380926370a0823160e01b82525f5160206119975f395f51905f5260048301525afa908115610867575f91610e61575b5060405163182fffeb60e11b8152906020826004815f5160206119975f395f51905f525afa918215610867575f92610e2d575b5080158015610e25575b610e165760071c80821015610e0e5750905b60018211156108ac57600181119081610deb575b50610de857610dc681610fc8565b610de857610dd390611043565b610de65763e170e01160e01b5f5260045ffd5b565b50565b905081811015610e0457610dfe90610f46565b5f610db8565b50610dfe81610f46565b905090610da4565b631fa5e75f60e31b5f5260045ffd5b508115610d92565b9091506020813d602011610e59575b81610e4960209383610b5c565b8101031261031c5751905f610d88565b3d9150610e3c565b90506020813d602011610e8b575b81610e7c60209383610b5c565b8101031261031c57515f610d55565b3d9150610e6f565b9091506020813d602011610ec0575b81610eaf60209383610b5c565b8101031261031c5751906020610d17565b3d9150610ea2565b610ee1915060203d6020116109795761096a8183610b5c565b5f610cc9565b6001546001600160a01b031615610f1357610f00611760565b5f5490818111610f0e575090565b905090565b5f5490565b805115610f255760200190565b634e487b7160e01b5f52603260045260245ffd5b91908201809211610b3157565b5f5b600c8110610f57575b50505f90565b81811c6001811115610fc257303b1561031c576040519063101ba12360e21b825260048201525f8160248183305af19081610fb2575b50610f9b575b600101610f48565b610fa3611760565b805f5515610f93575050600190565b5f610fbc91610b5c565b5f610f8d565b50610f51565b5f5b600c8110610fd85750505f90565b81811c6001811115610fc257303b1561031c5760405190636a03347d60e11b825260048201525f8160248183305af19081611033575b5061101c575b600101610fca565b611024611760565b805f5515611014575050600190565b5f61103d91610b5c565b5f61100e565b604051906040820182811067ffffffffffffffff821117610b7e57604052735c69bee701ef814a2b6a3edd4b1652cb9cc5aa6f825273c0aee478e3658e2610c5f7a4a2e1777ce9e4f2ac60208301526040516080810181811067ffffffffffffffff821117610b7e5760405273c02aaa39b223fe8d0a0e5c4f27ead9083c756cc2815273a0b86991c6218b36c1d19d4a2e9eb0ce3606eb48602082015273dac17f958d2ee523a2206206994597c13d831ec76040820152736b175474e89094c44da98b954eedeac495271d0f60608201525f925b60028410159384611266575f5b600481101561125b5785610f2557600582811b8401516001549183901b86015160405163e6a4390560e01b81526001600160a01b03938416600482015290831660248201529160209183916044918391165afa908115610867575f9161123d575b506001600160a01b03811615611234575f5b600c81106111ac575b50506001905b01611124565b86811c600181111561122e57303b1561031c57604051631e00ef0f60e01b81526001600160a01b038416600482015260248101919091525f8160448183305af1908161121e575b50611201575b600101611197565b611209611760565b805f55156111f9575050505050505050600190565b5f61122891610b5c565b5f6111f3565b506111a0565b506001906111a6565b611255915060203d81116109795761096a8183610b5c565b5f611185565b506001019350611117565b50505050505f90565b91908203918211610b3157565b6001546040516370a0823160e01b81523060048201525f926001600160a01b039092169190602081602481865afa908115610867575f9161172e575b50808210156117265750905b60018211156108ac575f809160405182602082019163095ea7b360e01b83525f5160206119975f395f51905f5260248201528160448201526044815261130b606482610b5c565b51925af161131761194f565b816116f7575b5015611692575f8060018060a01b036001541660405182602082019163095ea7b360e01b83525f5160206119975f395f51905f5260248201528660448201526044815261136b606482610b5c565b51925af161137761194f565b816116c8575b5015611692575f5160206119975f395f51905f523b1561031c5760405163654cfdff60e01b815260048101829052600260248201525f81604481835f5160206119975f395f51905f525af180156108675761167d575b50624f1a0142018042116116695782809160405160208101916372eb5f8160e11b835260248201526024815261140a604482610b5c565b519082737109709ecfa91a80626ff3989d68f67f5b1dd12d5af161142c61194f565b501561165a5760405163f6ed201760e01b81523060048201526020816024815f5160206119975f395f51905f525afa90811561164f57839161161d575b50156115e3578092602882116115da575b600284106115d1575b61148d8483610c56565b9182156115c2579083915b600183018084116115ae5786111561154c575f5160206119975f395f51905f523b1561035a57604051632e1a7d4d60e01b8152600481018590528581602481835f5160206119975f395f51905f525af180156115415785918791611528575b50506115029161126f565b915f1981146115145760010191611498565b634e487b7160e01b85526011600452602485fd5b8192509061153591610b5c565b61035a5783855f6114f7565b6040513d88823e3d90fd5b92509350505f5160206119975f395f51905f523b156103825760405190632e1a7d4d60e01b825260048201528181602481835f5160206119975f395f51905f525af180156107f05761159c575050565b6115a7828092610b5c565b6103845750565b634e487b7160e01b86526011600452602486fd5b637139da2360e11b8452600484fd5b60029350611483565b6028935061147a565b60405162461bcd60e51b81526020600482015260126024820152711c995dd85c99081b9bdd081b585d1d5c995960721b6044820152606490fd5b90506020813d602011611647575b8161163860209383610b5c565b8101031261031c57515f611469565b3d915061162b565b6040513d85823e3d90fd5b633bb091c760e11b8252600482fd5b634e487b7160e01b83526011600452602483fd5b61168a9192505f90610b5c565b5f905f6113d3565b60405162461bcd60e51b815260206004820152600e60248201526d185c1c1c9bdd994819985a5b195960921b6044820152606490fd5b80518015925082156116dd575b50505f61137d565b6116f0925060208091830101910161197e565b5f806116d5565b805180159250821561170c575b50505f61131d565b61171f925060208091830101910161197e565b5f80611704565b9050906112c4565b90506020813d602011611758575b8161174960209383610b5c565b8101031261031c57515f6112b8565b3d915061173c565b6001546040516370a0823160e01b815230600482015290602090829060249082906001600160a01b03165afa908115610867575f916117b2575b5060025480821115610f51576117af9161126f565b90565b90506020813d6020116117dc575b816117cd60209383610b5c565b8101031261031c57515f61179a565b3d91506117c0565b6001546040516370a0823160e01b81523060048201529190602090839060249082906001600160a01b03165afa918215610867575f92611831575b5080821115610f51576117af9161126f565b9091506020813d60201161185d575b8161184d60209383610b5c565b8101031261031c5751905f61181f565b3d9150611840565b91908215611948578015801561193e575b611924576127108202918083046127101490151715610b315761189891610c56565b9081158015611918575b6118fe57612af88102908104612af803610b31576127109004906127108202918083046127101490151715610b3157816118dc5750505f90565b5f198201918211610b31576118f091610c56565b60018101809111610b315790565b9050612af88102908104612af803610b3157612710900490565b506127108210156118a2565b5050612af88102908104612af803610b3157612710900490565b5080821015611876565b5050505f90565b3d15611979573d9061196082610c07565b9161196e6040519384610b5c565b82523d5f602084013e565b606090565b9081602091031261031c5751801515810361031c579056fe0000000000000000000000005d16b8ba2a9a4eca6126635a6ffbf05b52727d50a2646970667358221220e43e2437a8734519255b66c5ca12c51355994a22fff3eb626045fbfa6cedc3af64736f6c634300081e0033","linkReferences":{}},"methodIdentifiers":{"TARGET()":"cc1f2afa","executeBalancer(uint256)":"d40668fa","executeDirect(uint256)":"406e848c","executeOnOpportunity()":"3c2448ed","executePairFlash(address,uint256)":"1e00ef0f","pancakeCall(address,uint256,uint256,bytes)":"84800812","profitAmount()":"5ff972cc","profitToken()":"49343624","receiveFlashLoan(address[],uint256[],uint256[],bytes)":"f04f2707","sushiCall(address,uint256,uint256,bytes)":"00991403","uniswapV2Call(address,uint256,uint256,bytes)":"10d1e85c"},"id":0}