{"abi":[{"type":"constructor","inputs":[],"stateMutability":"nonpayable"},{"type":"function","name":"candidateLoanId","inputs":[],"outputs":[{"name":"","type":"uint256","internalType":"uint256"}],"stateMutability":"view"},{"type":"function","name":"candidateLocated","inputs":[],"outputs":[{"name":"","type":"bool","internalType":"bool"}],"stateMutability":"view"},{"type":"function","name":"candidateOutstandingPrincipalWei","inputs":[],"outputs":[{"name":"","type":"uint256","internalType":"uint256"}],"stateMutability":"view"},{"type":"function","name":"executeOnOpportunity","inputs":[],"outputs":[],"stateMutability":"nonpayable"},{"type":"function","name":"expectedBrokenFlow","inputs":[],"outputs":[{"name":"","type":"address","internalType":"address"},{"name":"","type":"address","internalType":"address"},{"name":"","type":"address","internalType":"address"}],"stateMutability":"view"},{"type":"function","name":"exploitPathUsed","inputs":[],"outputs":[{"name":"","type":"string","internalType":"string"}],"stateMutability":"view"},{"type":"function","name":"hypothesisRefuted","inputs":[],"outputs":[{"name":"","type":"bool","internalType":"bool"}],"stateMutability":"view"},{"type":"function","name":"hypothesisValidated","inputs":[],"outputs":[{"name":"","type":"bool","internalType":"bool"}],"stateMutability":"view"},{"type":"function","name":"lastFailureCode","inputs":[],"outputs":[{"name":"","type":"uint8","internalType":"uint8"}],"stateMutability":"view"},{"type":"function","name":"lastRevertData","inputs":[],"outputs":[{"name":"","type":"bytes","internalType":"bytes"}],"stateMutability":"view"},{"type":"function","name":"observedPoolSelfAllowance","inputs":[],"outputs":[{"name":"","type":"uint256","internalType":"uint256"}],"stateMutability":"view"},{"type":"function","name":"pathAnchors","inputs":[],"outputs":[{"name":"","type":"string","internalType":"string"}],"stateMutability":"pure"},{"type":"function","name":"profitAmount","inputs":[],"outputs":[{"name":"","type":"uint256","internalType":"uint256"}],"stateMutability":"view"},{"type":"function","name":"profitToken","inputs":[],"outputs":[{"name":"","type":"address","internalType":"address"}],"stateMutability":"view"},{"type":"function","name":"receiveFlashLoan","inputs":[{"name":"tokens","type":"address[]","internalType":"contract IERC20Like[]"},{"name":"amounts","type":"uint256[]","internalType":"uint256[]"},{"name":"feeAmounts","type":"uint256[]","internalType":"uint256[]"},{"name":"userData","type":"bytes","internalType":"bytes"}],"outputs":[],"stateMutability":"nonpayable"},{"type":"function","name":"selfTransferFromWithoutAllowanceWorks","inputs":[],"outputs":[{"name":"","type":"bool","internalType":"bool"}],"stateMutability":"view"},{"type":"function","name":"storageLayoutVerified","inputs":[],"outputs":[{"name":"","type":"bool","internalType":"bool"}],"stateMutability":"view"},{"type":"function","name":"targetPool","inputs":[],"outputs":[{"name":"","type":"address","internalType":"address"}],"stateMutability":"pure"},{"type":"function","name":"uniswapV2Call","inputs":[{"name":"sender","type":"address","internalType":"address"},{"name":"amount0","type":"uint256","internalType":"uint256"},{"name":"amount1","type":"uint256","internalType":"uint256"},{"name":"data","type":"bytes","internalType":"bytes"}],"outputs":[],"stateMutability":"nonpayable"},{"type":"function","name":"usedDirectBalance","inputs":[],"outputs":[{"name":"","type":"bool","internalType":"bool"}],"stateMutability":"view"},{"type":"function","name":"usedExternalFlashswap","inputs":[],"outputs":[{"name":"","type":"bool","internalType":"bool"}],"stateMutability":"view"}],"bytecode":{"object":"0x610120806040523461020857732405913d54fc46eeaf3fb092bfb099f46803872f608052637ec8a3d760e11b8152602081600481732405913d54fc46eeaf3fb092bfb099f46803872f5afa9081156101bf575f916101e9575b5060c05260805160405163781cc8e560e01b815290602090829060049082906001600160a01b03165afa9081156101bf575f916101ca575b5060e05260805160405163ca45f77360e01b815290602090829060049082906001600160a01b03165afa9081156101bf575f91610190575b506101005260c0516001600160a01b031660a0526040516132be90816102638239608051818181610ffa0152818161272e01526129e7015260a05181818161030201528181610d09015281816110a90152818161182d01528181611906015281816122ea015281816124f801526126cf015260c0518181816102660152818161073801528181610daa0152818161176e01528181611c0a015281816120260152612578015260e05181818161075d0152611c450152610100518181816107850152611bc40152f35b6101b2915060203d6020116101b8575b6101aa818361020c565b810190610243565b5f6100c8565b503d6101a0565b6040513d5f823e3d90fd5b6101e3915060203d6020116101b8576101aa818361020c565b5f610090565b610202915060203d6020116101b8576101aa818361020c565b5f610058565b5f80fd5b601f909101601f19168101906001600160401b0382119082101761022f57604052565b634e487b7160e01b5f52604160045260245ffd5b9081602091031261020857516001600160a01b0381168103610208579056fe60806040526004361015610011575f80fd5b5f3560e01c806310d1e85c146101645780633c2448ed1461015f578063430618f81461015a578063463defd1146101555780634934362414610150578063495f92f11461014b5780635b2c9f1b146101465780635ff972cc146101415780637d5c9b391461013c5780638d9eeb77146101375780639add6bee146101325780639ca1f61d1461012d578063ab295ad614610128578063c3a9b4f814610123578063c4fbf5cb1461011e578063d78c428114610119578063e60e241714610114578063ea2281521461010f578063edda87ca1461010a578063f04f2707146101055763fb4940e914610100575f80fd5b6109ac565b6108bb565b6107b1565b61071a565b6106ec565b6106bd565b6105bb565b610596565b610574565b6104b1565b6103c7565b6103a2565b610386565b6102d7565b6102ba565b610295565b610251565b61022d565b610210565b6101f8565b61017e565b6001600160a01b0381160361017a57565b5f80fd5b3461017a57608036600319011261017a5760043561019b81610169565b60243560443591606435926001600160401b03841161017a573660238501121561017a578360040135926001600160401b03841161017a57366024858701011161017a5760246101ec950192610c4b565b005b5f91031261017a57565b3461017a575f36600319011261017a576101ec610fe5565b3461017a575f36600319011261017a576020600454604051908152f35b3461017a575f36600319011261017a57602060ff600254821c166040519015158152f35b3461017a575f36600319011261017a576040517f00000000000000000000000000000000000000000000000000000000000000006001600160a01b03168152602090f35b3461017a575f36600319011261017a57602060ff60025460281c166040519015158152f35b3461017a575f36600319011261017a576020600154604051908152f35b3461017a575f36600319011261017a576040516370a0823160e01b81523060048201526020816024817f00000000000000000000000000000000000000000000000000000000000000006001600160a01b03165afa80156103815761034e915f91610352575b506040519081529081906020820190565b0390f35b610374915060203d60201161037a575b61036c8183610458565b810190610b47565b5f61033d565b503d610362565b610b56565b3461017a575f36600319011261017a5760205f54604051908152f35b3461017a575f36600319011261017a57602060ff60025460101c166040519015158152f35b3461017a575f36600319011261017a57602060ff60025460301c166040519015158152f35b90600182811c9216801561041a575b602083101461040657565b634e487b7160e01b5f52602260045260245ffd5b91607f16916103fb565b634e487b7160e01b5f52604160045260245ffd5b60a081019081106001600160401b0382111761045357604052565b610424565b90601f801991011681019081106001600160401b0382111761045357604052565b805180835260209291819084018484015e5f828201840152601f01601f1916010190565b9060206104ae928181520190610479565b90565b3461017a575f36600319011261017a576040515f6003546104d1816103ec565b80845290600181169081156105505750600114610505575b61034e836104f981850382610458565b6040519182918261049d565b91905060035f525f5160206132495f395f51905f52915f905b808210610536575090915081016020016104f96104e9565b91926001816020925483858801015201910190929161051e565b60ff191660208086019190915291151560051b840190910191506104f990506104e9565b3461017a575f36600319011261017a57602060ff600254166040519015158152f35b3461017a575f36600319011261017a57602060ff60025460081c166040519015158152f35b3461017a575f36600319011261017a5761034e6040516105dc60e082610458565b60bb81525f5160206132695f395f51905f5260208201527f6c6c6574293b207472616e7366657246726f6d286d73672e73656e6465722c2060408201527f616464726573732874686973292c207265706179416d6f756e74293b2074726160608201527f6e7366657246726f6d28616464726573732874686973292c205f66756e64536f60808201527f757263652c202e2e2e293b207472616e7366657246726f6d286164647265737360a08201527f2874686973292c205f636f6e74726f6c506c616e652c202e2e2e29000000000060c08201526040519182918261049d565b3461017a575f36600319011261017a5761034e6106d86113ec565b604051918291602083526020830190610479565b3461017a575f36600319011261017a576020604051732405913d54fc46eeaf3fb092bfb099f46803872f8152f35b3461017a575f36600319011261017a57604080516001600160a01b037f0000000000000000000000000000000000000000000000000000000000000000811682527f0000000000000000000000000000000000000000000000000000000000000000811660208301527f00000000000000000000000000000000000000000000000000000000000000001691810191909152606090f35b3461017a575f36600319011261017a57602060ff60025460401c16604051908152f35b604051906107e461010083610458565b565b6001600160401b0381116104535760051b60200190565b9080601f8301121561017a578135610814816107e6565b926108226040519485610458565b81845260208085019260051b82010192831161017a57602001905b82821061084a5750505090565b813581526020918201910161083d565b6001600160401b03811161045357601f01601f191660200190565b81601f8201121561017a5780359061088c8261085a565b9261089a6040519485610458565b8284526020838301011161017a57815f926020809301838601378301015290565b3461017a57608036600319011261017a576004356001600160401b03811161017a573660238201121561017a578060040135906108f7826107e6565b916109056040519384610458565b8083526024602084019160051b8301019136831161017a57602401905b82821061099257836024356001600160401b03811161017a576109499036906004016107fd565b906044356001600160401b03811161017a576109699036906004016107fd565b606435926001600160401b03841161017a5761098c6101ec943690600401610875565b926116e9565b6020809183356109a181610169565b815201910190610922565b3461017a575f36600319011261017a57602060ff60025460181c166040519015158152f35b156109d857565b60405162461bcd60e51b81526020600482015260116024820152703ab732bc3832b1ba32b21039b2b73232b960791b6044820152606490fd5b15610a1857565b60405162461bcd60e51b8152602060048201526012602482015271756e657870656374656420616d6f756e747360701b6044820152606490fd5b809291039160c0831261017a5760a0813593601f19011261017a5760405190610a7a82610438565b6020810135610a8881610169565b82526040810135610a9881610169565b602083015260608101359062ffffff8216820361017a5760a0916040840152608081013560608401520135608082015290565b15610ad257565b60405162461bcd60e51b815260206004820152600f60248201526e756e6578706563746564206d6f646560881b6044820152606490fd5b15610b1057565b60405162461bcd60e51b815260206004820152600f60248201526e3ab732bc3832b1ba32b2103830b4b960891b6044820152606490fd5b9081602091031261017a575190565b6040513d5f823e3d90fd5b15610b6857565b60405162461bcd60e51b81526020600482015260136024820152726d697373696e672070726f62652066756e647360681b6044820152606490fd5b15610baa57565b60405162461bcd60e51b815260206004820152601e60248201527f76322072657061796d656e7420726f75746520756e617661696c61626c6500006044820152606490fd5b9081602091031261017a5751801515810361017a5790565b15610c0e57565b60405162461bcd60e51b81526020600482015260156024820152741c185a5c881c995c185e5b595b9d0819985a5b1959605a1b6044820152606490fd5b93610c9c610ca493610cab9593610c8d7fc4153d19c8a3d2eec52a8ed60689d0a7a3755d576f1868fd644c3199b59c4f5898309060018060a01b0316146109d1565b15908115610fdc575b50610a11565b810190610a52565b9214610acb565b8051610cd290610ccb906001600160a01b03165b6001600160a01b031690565b3314610b09565b60025460ff602082901c1615610ce7565b1590565b9081610fc7575b50610fba575b6040516370a0823160e01b81523060048201527f0000000000000000000000000000000000000000000000000000000000000000916020826024816001600160a01b0387165afa918215610381575f92610f93575b50610d6e828094610d606001610e7b961015610b61565b610d69816119ee565b611aa5565b602081810180519094906001600160a01b031690610de8610d95604086015162ffffff1690565b610ddc610da06107d4565b6001600160a01b037f0000000000000000000000000000000000000000000000000000000000000000168152946001600160a01b031685870152565b62ffffff166040840152565b3060608301908152426080840190815260a084019283525f60c0850181815260e086019182526040805163414bf38960e01b815287516001600160a01b039081166004830152602089015181166024830152919097015162ffffff16604488015293518416606487015291516084860152925160a48501525160c484015290511660e48201529283908190610104820190565b03815f73e592427a0aece92de3edee1f18e0157c058615645af190811561038157610f1a936020935f93610f64575b50610ed6610cbf610cbf610ee493610ec9608087019788511115610ba3565b516001600160a01b031690565b91516001600160a01b031690565b915160405163a9059cbb60e01b81526001600160a01b0390931660048401526024830152909283919082905f9082906044820190565b03925af18015610381576107e4915f91610f35575b50610c07565b610f57915060203d602011610f5d575b610f4f8183610458565b810190610bef565b5f610f2f565b503d610f45565b610ee4919350610cbf610cbf610f89610ed693883d8a1161037a5761036c8183610458565b9593505050610eaa565b610e7b9250610fb3610d6e9160203d60201161037a5761036c8183610458565b9250610d49565b610fc26118c0565b610cf4565b610fd6915060281c60ff161590565b5f610cee565b9050155f610c96565b604051635c975abb60e01b81526020816004817f00000000000000000000000000000000000000000000000000000000000000006001600160a01b03165afa908115610381575f9161122e575b506112115761105f611042611b68565b63ff00000060025491151560181b169063ff000000191617600255565b61106e610ce360025460ff1690565b611204575b611082610ce360025460ff1690565b6111e7576040516370a0823160e01b81523060048201526020816024816001600160a01b037f0000000000000000000000000000000000000000000000000000000000000000165afa8015610381576001915f916111c8575b501015611183575b6110f96201000062ff0000196002541617600255565b611101612024565b61115a575b61110e6122dd565b60025460ff602082901c16159081611145575b5061112857565b6107e46809000000000000000060ff60401b196002541617600255565b611154915060281c60ff161590565b5f611121565b600254602081901c60ff16908115611175575b501561110657565b60281c60ff1690505f61116d565b61119761010061ff00196002541617600255565b61119f6118c0565b600254602081901c60ff169081156111ba575b50156110e357565b60281c60ff1690505f6111b2565b6111e1915060203d60201161037a5761036c8183610458565b5f6110db565b6107e46801000000000000000060ff60401b196002541617600255565b61120c611d60565b611073565b6107e46808000000000000000060ff60401b196002541617600255565b611247915060203d602011610f5d57610f4f8183610458565b5f611032565b6040519061125c602083610458565b5f8252565b6040519061127161010083610458565b60c18252602960f81b60e0835f5160206132695f395f51905f5260208201527f6c6c657429202d3e207472616e7366657246726f6d286d73672e73656e64657260408201527f2c20616464726573732874686973292c207265706179416d6f756e7429202d3e60608201527f207472616e7366657246726f6d28616464726573732874686973292c205f667560808201527f6e64536f757263652c202e2e2e29202d3e207472616e7366657246726f6d286160a08201527f6464726573732874686973292c205f636f6e74726f6c506c616e652c202e2e2e60c08201520152565b6040519061136160a083610458565b607c82527f6861732061206e6f6e7a65726f2073656c662d616c6c6f77616e6365000000006080835f5160206132695f395f51905f5260208201527f6c6c65742920697320696e6665617369626c65206174207468697320666f726b60408201527f20626c6f636b20626563617573652074686520706f6f6c20616c72656164792060608201520152565b60025460ff8160201c166115355760ff8160281c1680611528575b6114365760281c60ff168061142b575b611423576104ae611261565b6104ae611352565b506004541515611417565b5060405161144661010082610458565b60c181525f5160206132695f395f51905f5260208201527f6c6c65742920697320696e6665617369626c65206174207468697320666f726b60408201527f20626c6f636b206265636175736520746865206c69766520737570706f72746560608201527f642063757272656e6379207065726d697473206e6f6e7a65726f2073656c662d60808201527f736f7572636564207472616e7366657246726f6d28616464726573732874686960a08201527f73292c202e2e2e2920776974686f757420612073656c662d616c6c6f77616e6360c0820152606560f81b60e082015290565b5060ff8160301c16611407565b506104ae611261565b1561154557565b60405162461bcd60e51b81526020600482015260116024820152703ab732bc3832b1ba32b2103632b73232b960791b6044820152606490fd5b1561158557565b60405162461bcd60e51b815260206004820152600f60248201526e3ab732bc3832b1ba32b2103637b0b760891b6044820152606490fd5b634e487b7160e01b5f52603260045260245ffd5b8051156115dd5760200190565b6115bc565b156115e957565b60405162461bcd60e51b815260206004820152601060248201526f3ab732bc3832b1ba32b2103a37b5b2b760811b6044820152606490fd5b1561162857565b60405162461bcd60e51b815260206004820152601160248201527034b739bab33334b1b4b2b73a103637b0b760791b6044820152606490fd5b1561166857565b60405162461bcd60e51b8152602060048201526014602482015273756e657870656374656420666c6173682066656560601b6044820152606490fd5b156116ab57565b60405162461bcd60e51b81526020600482015260166024820152751d985d5b1d081c995c185e5b595b9d0819985a5b195960521b6044820152606490fd5b906117d16117ca6020946117b47f8732015296807ffc8a8d9eafa7837c0c6d8a6719185d192253b41e5bd191d2e16117ae611828996117a061176c610cbf610ec96117ee9c61174d73ba12222222228d8ba445958a75a0704d566bf2c8331461153e565b6001815114806118b5575b806118aa575b6117679061157e565b6115d0565b7f00000000000000000000000000000000000000000000000000000000000000006001600160a01b039081169116146115e2565b898082518301019101610b47565b14610acb565b61176760016117c2866115d0565b511015611621565b5115611661565b60025460ff602082901c16159081611895575b5061188d576115d0565b516040518093819263a9059cbb60e01b83526004830191906020604084019373ba12222222228d8ba445958a75a0704d566bf2c881520152565b03815f7f00000000000000000000000000000000000000000000000000000000000000006001600160a01b03165af18015610381576107e4915f9161186e575b506116a4565b611887915060203d602011610f5d57610f4f8183610458565b5f611868565b6117676118c0565b6118a4915060281c60ff161590565b5f6117e4565b50895160011461175e565b5060018d5114611758565b6118c861249e565b604051636eb1769f60e11b8152732405913d54fc46eeaf3fb092bfb099f46803872f6004820181905260248201526020816044816001600160a01b037f0000000000000000000000000000000000000000000000000000000000000000165afa80156103815761193f915f916119cf575b50600455565b60025460301c60ff166119965760045461195d576107e45f546126c1565b6119796501000000000065ff0000000000196002541617600255565b6107e46805000000000000000060ff60401b196002541617600255565b6119b26501000000000065ff0000000000196002541617600255565b6107e46803000000000000000060ff60401b196002541617600255565b6119e8915060203d60201161037a5761036c8183610458565b5f611939565b60405163095ea7b360e01b815273e592427a0aece92de3edee1f18e0157c0586156460048201525f602482018190529091602091839190829081604481015b03926001600160a01b03165af1908115610381575f91611a86575b5015611a5057565b60405162461bcd60e51b815260206004820152600e60248201526d185c1c1c9bdd994819985a5b195960921b6044820152606490fd5b611a9f915060203d602011610f5d57610f4f8183610458565b5f611a48565b60405163095ea7b360e01b815273e592427a0aece92de3edee1f18e0157c05861564600482015260248101929092526020908290815f8160448101611a2d565b60405163095ea7b360e01b8152732405913d54fc46eeaf3fb092bfb099f46803872f60048201525f60248201819052909160209183919082908160448101611a2d565b60405163095ea7b360e01b8152732405913d54fc46eeaf3fb092bfb099f46803872f600482015260248101929092526020908290815f8160448101611a2d565b604051630667f9d760e41b8152732405913d54fc46eeaf3fb092bfb099f46803872f600482015260cb6024820152602081604481737109709ecfa91a80626ff3989d68f67f5b1dd12d5afa908115610381575f91611c77575b507f00000000000000000000000000000000000000000000000000000000000000006001600160a01b0390811691161480611c3a575b80611bff5790565b50611c0861291b565b7f00000000000000000000000000000000000000000000000000000000000000006001600160a01b0390811691161490565b50611c43612896565b7f00000000000000000000000000000000000000000000000000000000000000006001600160a01b03908116911614611bf7565b611c90915060203d60201161037a5761036c8183610458565b5f611bc1565b818110611ca1575050565b5f8155600101611c96565b634e487b7160e01b5f52601160045260245ffd5b906103e58202918083046103e51490151715611cd857565b611cac565b611ce86003546103ec565b80611cf05750565b601f8111600114611d0257505f600355565b60035f52611d4590601f0160051c5f5160206132495f395f51905f52017fc2575a0e9e593c00f959f8c92f12db2869c3395a3b0502d05e2516446f71f85c611c96565b60035f818152908190555f5160206132495f395f51905f5255565b6002545f9060181c60ff1615611e2c575f5b6127108110611da45750505b60025460ff16611d8a57565b611d9c60ff60401b1960025416600255565b6107e4611cdd565b611dad81612aeb565b91611dd5610cbf6040611dc68651602088015190612ac2565b9501516001600160a01b031690565b158015611e24575b8015611e1a575b611e105750600190611df883825f55600155565b611e0a600160ff196002541617600255565b01611d72565b9150600190611e0a565b5080831115611de4565b508215611ddd565b5f5b6127108110611e3e575050611d7e565b611e47816129bf565b91611e60610cbf6040611dc68651602088015190612ac2565b158015611eaf575b8015611ea5575b611e9b5750600190611e8383825f55600155565b611e95600160ff196002541617600255565b01611e2e565b9150600190611e95565b5080831115611e6f565b508215611e68565b90926080926104ae95948352602083015260018060a01b031660408201528160608201520190610479565b3d15611f0c573d90611ef38261085a565b91611f016040519384610458565b82523d5f602084013e565b606090565b9190601f8111611f2057505050565b6107e4925f5260205f20906020601f840160051c83019310611f4a575b601f0160051c0190611c96565b9091508190611f3d565b9081516001600160401b03811161045357611f7b81611f746003546103ec565b6003611f11565b602092601f8211600114611fbb57611fab929382915f92611fb0575b50508160011b915f199060031b1c19161790565b600355565b015190505f80611f97565b60035f52601f198216935f5160206132495f395f51905f52915f5b86811061200c5750836001959610611ff4575b505050811b01600355565b01515f1960f88460031b161c191690555f8080611fe9565b91926020600181928685015181550194019201611fd6565b7f000000000000000000000000000000000000000000000000000000000000000073c02aaa39b223fe8d0a0e5c4f27ead9083c756cc1196001600160a01b0382160161221857612072612c5d565b80516001600160a01b03161561220a575b80516001600160a01b03168080156122025761214f916120ae9085906001600160a01b031692612f53565b156121f8576120cd6060840151945b84516001600160a01b0316612f53565b156121ea5761215d5f935b6040519384916020830191909160a0608060c08301947fc4153d19c8a3d2eec52a8ed60689d0a7a3755d576f1868fd644c3199b59c4f588452600180841b038151166020850152600180841b03602082015116604085015262ffffff60408201511660608501526060810151828501520151910152565b03601f198101845283610458565b803b1561017a5761218a935f80946040519687958694859363022c0d9f60e01b8552309160048601611eb7565b03925af190816121d0575b506121cb576121aa6121a5611ee2565b611f54565b6121c7680b000000000000000060ff60401b196002541617600255565b5f90565b600190565b806121de5f6121e493610458565b806101ee565b5f612195565b61215d6060840151936120d8565b6120cd5f946120bd565b505050505f90565b50612213612e23565b612083565b505f90565b6040805190919061222e8382610458565b6001815291601f1901366020840137565b6001600160a01b03909116815260806020808301829052835191830182905260a0830196959301905f5b8181106122be5750505080850360408201526020808451968781520193015f955b8087106122a65750506104ae9394506060818403910152610479565b9093602080600192875181520195019601959061228a565b82516001600160a01b0316885260209788019790920191600101612269565b6122e561221d565b6123217f0000000000000000000000000000000000000000000000000000000000000000612312836115d0565b6001600160a01b039091169052565b61232961221d565b906001612335836115d0565b526040519161237d8361236f60208201907f8732015296807ffc8a8d9eafa7837c0c6d8a6719185d192253b41e5bd191d2e1602083019252565b03601f198101855284610458565b73ba12222222228d8ba445958a75a0704d566bf2c83b1561017a575f916123b96040519485938493632e1c224f60e11b8552306004860161223f565b03818373ba12222222228d8ba445958a75a0704d566bf2c85af19081612407575b506107e4576123ea6121a5611ee2565b6107e4680a000000000000000060ff60401b196002541617600255565b806121de5f61241593610458565b5f6123da565b1561242257565b60405162461bcd60e51b815260206004820152601160248201527070726f626520616d6f756e74207a65726f60781b6044820152606490fd5b1561246257565b60405162461bcd60e51b815260206004820152601460248201527370726f62652072657175697265732066756e647360601b6044820152606490fd5b60025460381c60ff166107e4576124cb67010000000000000067ff00000000000000196002541617600255565b6124d5600161241b565b6040516370a0823160e01b81523060048201526020816024816001600160a01b037f0000000000000000000000000000000000000000000000000000000000000000165afa90811561038157612537916001915f9161261f575b50101561245b565b6040516323b872dd60e01b6020820190815230602483018190526044830152600160648084019190915282525f91829190612573608482610458565b5190827f00000000000000000000000000000000000000000000000000000000000000005af16125a1611ee2565b901561261c5780519081156125fc57602082101591826125e2575b50506125c457565b6107e4660100000000000066ff000000000000196002541617600255565b6125f59250602080918301019101610bef565b5f806125bc565b50506107e4660100000000000066ff000000000000196002541617600255565b50565b612638915060203d60201161037a5761036c8183610458565b5f61252f565b6040519061264d606083610458565b60248252636f61642960e01b6040837f66756e64207472616e7366657220756e7375636365737366756c20287061796c60208201520152565b60405190612695604083610458565b602082527f66756e64207472616e7366657220756e7375636365737366756c2028666565296020830152565b60206001612729926126fc827f00000000000000000000000000000000000000000000000000000000000000006126f781611ae5565b611b28565b604051938492839263b1e8f8ef60e01b8452600484016040905f9294936060820195825260208201520152565b03815f7f00000000000000000000000000000000000000000000000000000000000000006001600160a01b03165af15f9181612875575b5061281f575061277f612771611ee2565b61277a81611f54565b61305d565b6020815191012061278e61263e565b602081519101208114908115612807575b506127d05760025460301c60ff166119965760045461195d576107e4600760401b60ff60401b196002541617600255565b6127ea64010000000064ff00000000196002541617600255565b6107e46804000000000000000060ff60401b196002541617600255565b9050612811612686565b60208151910120145f61279f565b1561285d576128406501000000000065ff0000000000196002541617600255565b6107e46802000000000000000060ff60401b196002541617600255565b6107e4600760401b60ff60401b196002541617600255565b61288f91925060203d602011610f5d57610f4f8183610458565b905f612760565b604051630667f9d760e41b8152732405913d54fc46eeaf3fb092bfb099f46803872f600482015260cc6024820152602081604481737109709ecfa91a80626ff3989d68f67f5b1dd12d5afa908115610381575f916128fc575b506001600160a01b031690565b612915915060203d60201161037a5761036c8183610458565b5f6128ef565b604051630667f9d760e41b8152732405913d54fc46eeaf3fb092bfb099f46803872f600482015260cd6024820152602081604481737109709ecfa91a80626ff3989d68f67f5b1dd12d5afa908115610381575f916128fc57506001600160a01b031690565b60405190606082018281106001600160401b03821117610453576040525f6040838281528260208201520152565b519063ffffffff8216820361017a57565b906129c8612980565b60405163bd5c569b60e01b8152600481019390935291610120816024817f00000000000000000000000000000000000000000000000000000000000000006001600160a01b03165afa8015610381575f5f905f92612a39575b855260208501526001600160a01b0316604084015250565b505050610120813d8211612a9e575b81612a566101209383610458565b8101031261017a5780612a6e60406107e493016129ae565b50612a7b606082016129ae565b50608081015161010060a083015192015190612a9682610169565b919091612a21565b3d9150612a48565b600319810191908211611cd857565b91908203918211611cd857565b9080821115612ad7578103908111611cd85790565b50505f90565b9060018201809211611cd857565b90612af4612980565b916040516020810191825260d4604082015260408152612b15606082610458565b51902060038101808211611cd857612b2c906130fc565b835260048101808211611cd857612b42906130fc565b602084015260078101809111611cd85760405190630667f9d760e41b8252732405913d54fc46eeaf3fb092bfb099f46803872f60048301526024820152602081604481737109709ecfa91a80626ff3989d68f67f5b1dd12d5afa8015610381576107e4915f91612bbe575b506001600160a01b03166040840152565b612bd7915060203d60201161037a5761036c8183610458565b5f612bad565b60405190612bea82610438565b5f6080838281528260208201528260408201528260608201520152565b9081602091031261017a57516104ae81610169565b51906001600160701b038216820361017a57565b9081606091031261017a57612c4481612c1c565b916104ae6040612c5660208501612c1c565b93016129ae565b612c65612bdd565b60405163e6a4390560e01b815273c02aaa39b223fe8d0a0e5c4f27ead9083c756cc2600482015273a0b86991c6218b36c1d19d4a2e9eb0ce3606eb486024820152909190602081604481735c69bee701ef814a2b6a3edd4b1652cb9cc5aa6f5afa908115610381575f91612df4575b506001600160a01b0381168015612df05790606060049260405193848092630240bc6b60e21b82525afa8015610381575f925f91612db5575b506001600160701b0390612d2083612ee0565b938415612dac57828116945b15612da3575016905b66038d7ea4c680008311801590612d9b575b612d96576001600160a01b03168452612d8f919073a0b86991c6218b36c1d19d4a2e9eb0ce3606eb4860208601526101f4604086015266038d7ea4c68000606086015261318e565b6080830152565b505050565b508115612d47565b90501690612d35565b82821694612d2c565b6001600160701b039350612de1915060603d606011612de9575b612dd98183610458565b810190612c30565b509092612d0d565b503d612dcf565b5050565b612e16915060203d602011612e1c575b612e0e8183610458565b810190612c07565b5f612cd4565b503d612e04565b612e2b612bdd565b60405163e6a4390560e01b815273c02aaa39b223fe8d0a0e5c4f27ead9083c756cc2600482015273a0b86991c6218b36c1d19d4a2e9eb0ce3606eb48602482015290919060208160448173c0aee478e3658e2610c5f7a4a2e1777ce9e4f2ac5afa908115610381575f91612df457506001600160a01b0381168015612df05790606060049260405193848092630240bc6b60e21b82525afa8015610381575f925f91612db557506001600160701b0390612d20835b604051630dfe168160e01b815290602090829060049082906001600160a01b03165afa80156103815773c02aaa39b223fe8d0a0e5c4f27ead9083c756cc2915f91612f34575b506001600160a01b03161490565b612f4d915060203d602011612e1c57612e0e8183610458565b5f612f26565b604051630dfe168160e01b81529190602090839060049082906001600160a01b03165afa918215610381575f92612f97575b506001600160a01b0391821691161490565b612fb191925060203d602011612e1c57612e0e8183610458565b905f612f85565b90612fc28261085a565b612fcf6040519182610458565b8281528092612fe0601f199161085a565b0190602036910137565b9081518110156115dd570160200190565b60208183031261017a578051906001600160401b03821161017a570181601f8201121561017a5780519061302e8261085a565b9261303c6040519485610458565b8284526020838301011161017a57815f9260208093018386015e8301015290565b9060448251106130f25760208201516001600160e01b0319166307b9e43360e51b016130f2576130956130908351612aa6565b612fb8565b60045b83518110156130dc57806130bf6130b160019387612fea565b516001600160f81b03191690565b6130d56130cb83612aa6565b915f1a9185612fea565b5301613098565b506104ae91925060208082518301019101612ffb565b90506104ae61124d565b60405190630667f9d760e41b8252732405913d54fc46eeaf3fb092bfb099f46803872f60048301526024820152602081604481737109709ecfa91a80626ff3989d68f67f5b1dd12d5afa908115610381575f91613157575090565b6104ae915060203d60201161037a5761036c8183610458565b811561317a570490565b634e487b7160e01b5f52601260045260245ffd5b908115801580613238575b156131fa5766038d7ea4c68000830292830466038d7ea4c68000141715611cd8576103e88202918083046103e81490151715611cd8576104ae916131ef6131ea66038d7ea4c680006131f594612ab5565b611cc0565b90613170565b612add565b60405162461bcd60e51b8152602060048201526016602482015275696e73756666696369656e74206c697175696469747960501b6044820152606490fd5b5066038d7ea4c68000821161319956fec2575a0e9e593c00f959f8c92f12db2869c3395a3b0502d05e2516446f71f85b7265706179286e667449442c207265706179416d6f756e742c2070696e655761a2646970667358221220f024897728e304cafac54de8f77c9204c41bda4afa9475abd82c48c903610da564736f6c634300081e0033","linkReferences":{}},"methodIdentifiers":{"candidateLoanId()":"7d5c9b39","candidateLocated()":"ab295ad6","candidateOutstandingPrincipalWei()":"5b2c9f1b","executeOnOpportunity()":"3c2448ed","expectedBrokenFlow()":"ea228152","exploitPathUsed()":"d78c4281","hypothesisRefuted()":"495f92f1","hypothesisValidated()":"463defd1","lastFailureCode()":"edda87ca","lastRevertData()":"9ca1f61d","observedPoolSelfAllowance()":"430618f8","pathAnchors()":"c4fbf5cb","profitAmount()":"5ff972cc","profitToken()":"49343624","receiveFlashLoan(address[],uint256[],uint256[],bytes)":"f04f2707","selfTransferFromWithoutAllowanceWorks()":"9add6bee","storageLayoutVerified()":"fb4940e9","targetPool()":"e60e2417","uniswapV2Call(address,uint256,uint256,bytes)":"10d1e85c","usedDirectBalance()":"c3a9b4f8","usedExternalFlashswap()":"8d9eeb77"},"id":0}