{"abi":[{"type":"function","name":"migrateWithdraw","inputs":[{"name":"","type":"address","internalType":"address"},{"name":"","type":"uint256","internalType":"uint256"}],"outputs":[],"stateMutability":"nonpayable"}],"bytecode":{"object":"0x608080604052346013576079908160188239f35b5f80fdfe6004361015600b575f80fd5b5f3560e01c633c24436c14601d575f80fd5b34603f576040366003190112603f576004356001600160a01b03811603603f57005b5f80fdfea26469706673582212205ce921758764eeeebe533a8160a2e0ef2c274d6075f33ab5fa07c15b6a669e0264736f6c634300081e0033","linkReferences":{}},"methodIdentifiers":{"migrateWithdraw(address,uint256)":"3c24436c"},"id":0}