{"abi":[{"type":"constructor","inputs":[],"stateMutability":"nonpayable"},{"type":"receive","stateMutability":"payable"},{"type":"function","name":"executeOnOpportunity","inputs":[],"outputs":[],"stateMutability":"nonpayable"},{"type":"function","name":"onMorphoFlashLoan","inputs":[{"name":"","type":"uint256","internalType":"uint256"},{"name":"","type":"bytes","internalType":"bytes"}],"outputs":[],"stateMutability":"nonpayable"},{"type":"function","name":"profitAmount","inputs":[],"outputs":[{"name":"","type":"uint256","internalType":"uint256"}],"stateMutability":"view"},{"type":"function","name":"profitToken","inputs":[],"outputs":[{"name":"","type":"address","internalType":"address"}],"stateMutability":"pure"}],"bytecode":{"object":"0x6080806040523461075d5763095ea7b360e01b815273b30da2376f63de30b42dc055c93fa474f31330a560048201525f1960248201526020816044815f73a0b86991c6218b36c1d19d4a2e9eb0ce3606eb485af1801561059f57610740575b5060405163095ea7b360e01b8152737a250d5630b4cf539739df2c5dacb4c659f2488d60048201525f1960248201526020816044815f73a0b86991c6218b36c1d19d4a2e9eb0ce3606eb485af1801561059f57610723575b5060405163095ea7b360e01b815273a920de414ea4ab66b97da1bfe9e6eca7d421963560048201525f1960248201526020816044815f73c02aaa39b223fe8d0a0e5c4f27ead9083c756cc25af1801561059f57610706575b5060405163095ea7b360e01b8152730655977feb2f289a4ab78af67bab0d17aab8436760048201525f1960248201526020816044815f73f939e0a03fb07f59a73314e73794be0e57ac1b4e5af1801561059f576106e9575b5060405163095ea7b360e01b815273a920de414ea4ab66b97da1bfe9e6eca7d421963560048201525f1960248201526020816044815f73f939e0a03fb07f59a73314e73794be0e57ac1b4e5af1801561059f576106cc575b5060405163095ea7b360e01b81527279885e248b572cdc4559a8b156745e2d8ea1f760048201525f1960248201526020816044815f73f939e0a03fb07f59a73314e73794be0e57ac1b4e5af1801561059f576106af575b5060405163095ea7b360e01b815273ad444663c6c92b497225c6ce65fee2e7f78bfb8660048201525f1960248201526020816044815f73f939e0a03fb07f59a73314e73794be0e57ac1b4e5af1801561059f57610692575b5060405163095ea7b360e01b81527279885e248b572cdc4559a8b156745e2d8ea1f760048201525f1960248201526020816044815f5f5160206128585f395f51905f525af1801561059f57610675575b5060405163095ea7b360e01b815273ad444663c6c92b497225c6ce65fee2e7f78bfb8660048201525f1960248201526020816044815f5f5160206128585f395f51905f525af1801561059f57610658575b5060405163095ea7b360e01b815273460638e6f7605b866736e38045c0de8294d7d87f60048201525f1960248201526020816044815f5f5160206128585f395f51905f525af1801561059f5761063b575b5060405163095ea7b360e01b81527376a962ba6770068bcf454d34dde17175611e663760048201525f1960248201526020816044815f5f5160206128585f395f51905f525af1801561059f5761061e575b5060405163095ea7b360e01b81525f5160206128585f395f51905f5260048201525f1960248201526020816044815f73865377367054516e17014ccded1e7d814edc9ce45af1801561059f57610601575b5060405163095ea7b360e01b815273e5f24791e273cb96a1f8e5b67bc2397f0ad9b8b460048201525f1960248201526020816044815f73865377367054516e17014ccded1e7d814edc9ce45af1801561059f576105e4575b5060405163095ea7b360e01b815273b30da2376f63de30b42dc055c93fa474f31330a560048201525f1960248201526020816044815f73bc6da0fe9ad5f3b0d58160288917aa56653660e95af1801561059f576105c7575b5060405163095ea7b360e01b815273460638e6f7605b866736e38045c0de8294d7d87f60048201525f1960248201526020816044815f73bc6da0fe9ad5f3b0d58160288917aa56653660e95af1801561059f576105aa575b5060405163095ea7b360e01b81527376a962ba6770068bcf454d34dde17175611e663760048201525f1960248201526020816044815f730655977feb2f289a4ab78af67bab0d17aab843675af1801561059f57610570575b6040516120a790816107b18239f35b6105919060203d602011610598575b6105898183610761565b810190610798565b505f610561565b503d61057f565b6040513d5f823e3d90fd5b6105c29060203d602011610598576105898183610761565b610509565b6105df9060203d602011610598576105898183610761565b6104b1565b6105fc9060203d602011610598576105898183610761565b610459565b6106199060203d602011610598576105898183610761565b610401565b6106369060203d602011610598576105898183610761565b6103b0565b6106539060203d602011610598576105898183610761565b61035f565b6106709060203d602011610598576105898183610761565b61030e565b61068d9060203d602011610598576105898183610761565b6102bd565b6106aa9060203d602011610598576105898183610761565b61026d565b6106c79060203d602011610598576105898183610761565b610215565b6106e49060203d602011610598576105898183610761565b6101be565b6107019060203d602011610598576105898183610761565b610166565b61071e9060203d602011610598576105898183610761565b61010e565b61073b9060203d602011610598576105898183610761565b6100b6565b6107589060203d602011610598576105898183610761565b61005e565b5f80fd5b601f909101601f19168101906001600160401b0382119082101761078457604052565b634e487b7160e01b5f52604160045260245ffd5b9081602091031261075d5751801515810361075d579056fe6080604052600436101561001a575b3615610018575f80fd5b005b5f3560e01c806331f57072146101405780633c2448ed1461012857806349343624146100fa57635ff972cc0361000e57346100e3575f3660031901126100e3576040516370a0823160e01b815230600482015260208160248173865377367054516e17014ccded1e7d814edc9ce45afa80156100ef575f906100b8575b6001546020925090808211156100b157505b604051908152f35b90506100a9565b506020813d6020116100e7575b816100d260209383610195565b810103126100e35760209051610097565b5f80fd5b3d91506100c5565b6040513d5f823e3d90fd5b346100e3575f3660031901126100e357602060405173865377367054516e17014ccded1e7d814edc9ce48152f35b346100e3575f3660031901126100e357610018610455565b346100e35760403660031901126100e35760243567ffffffffffffffff81116100e357366023820112156100e357806004013567ffffffffffffffff81116100e357369101602401116100e3576100186101e3565b90601f8019910116810190811067ffffffffffffffff8211176101b757604052565b634e487b7160e01b5f52604160045260245ffd5b908160209103126100e3575180151581036100e35790565b73bbbbbbbbbb9cc5e90e3b3af64bdaf62c37eeffcb330361041c576040516370a0823160e01b815273bbbbbbbbbb9cc5e90e3b3af64bdaf62c37eeffcb60048201525f906020816024815f5160206120525f395f51905f525afa9081156100ef575f916103ea575b505f5460ff8116156102f657505061026161073a565b60405163095ea7b360e01b815273bbbbbbbbbb9cc5e90e3b3af64bdaf62c37eeffcb60048201526903629bcfc8e6ab85973a602482015290602082604481845f5160206120525f395f51905f525af19081156102ea57506102bf5750565b6102e09060203d6020116102e3575b6102d88183610195565b8101906101cb565b50565b503d6102ce565b604051903d90823e3d90fd5b60ff19166001175f5573bbbbbbbbbb9cc5e90e3b3af64bdaf62c37eeffcb3b156100e3576040519063701195a160e11b82525f5160206120525f395f51905f5260048301526024820152606060448201525f60648201525f816084818373bbbbbbbbbb9cc5e90e3b3af64bdaf62c37eeffcb5af180156100ef576103d7575b5060405163095ea7b360e01b815273bbbbbbbbbb9cc5e90e3b3af64bdaf62c37eeffcb60048201526509184e72a0006024820152906020826044818473a0b86991c6218b36c1d19d4a2e9eb0ce3606eb485af19081156102ea57506102bf5750565b6103e391505f90610195565b5f5f610375565b90506020813d602011610414575b8161040560209383610195565b810103126100e357515f61024b565b3d91506103f8565b60405162461bcd60e51b81526020600482015260116024820152703ab732bc3832b1ba32b2103632b73232b960791b6044820152606490fd5b6040516370a0823160e01b815273bbbbbbbbbb9cc5e90e3b3af64bdaf62c37eeffcb60048201525f906020816024815f5160206120525f395f51905f525afa9081156100ef575f91610708575b506040516370a0823160e01b815230600482015260208160248173a0b86991c6218b36c1d19d4a2e9eb0ce3606eb485afa80156100ef575f906106d0575b6509184e72a00091501015908161065b575b506106045773bbbbbbbbbb9cc5e90e3b3af64bdaf62c37eeffcb3b156100e35760405163701195a160e11b815273a0b86991c6218b36c1d19d4a2e9eb0ce3606eb4860048201526509184e72a0006024820152606060448201525f60648201819052816084818373bbbbbbbbbb9cc5e90e3b3af64bdaf62c37eeffcb5af180156100ef576105f1575b506040516370a0823160e01b815230600482015260208160248173865377367054516e17014ccded1e7d814edc9ce45afa9182156102ea57916105bf575b50600155565b90506020813d6020116105e9575b816105da60209383610195565b810103126100e357515f6105b9565b3d91506105cd565b6105fd91505f90610195565b5f5f61057b565b50600160ff195f5416175f5561061861073a565b6040516370a0823160e01b815230600482015260208160248173865377367054516e17014ccded1e7d814edc9ce45afa9081156100ef575f916105bf5750600155565b6040516370a0823160e01b81523060048201529091506020816024815f5160206120525f395f51905f525afa9081156100ef575f9161069e575b5010155f6104f2565b90506020813d6020116106c8575b816106b960209383610195565b810103126100e357515f610695565b3d91506106ac565b506020813d602011610700575b816106ea60209383610195565b810103126100e3576509184e72a00090516104e0565b3d91506106dd565b90506020813d602011610732575b8161072360209383610195565b810103126100e357515f6104a2565b3d9150610716565b73b30da2376f63de30b42dc055c93fa474f31330a53b156100e357604051635320bf6b60e11b8152600260048201525f6024820181905265065dd08370006044830152600160648301529081816084818373b30da2376f63de30b42dc055c93fa474f31330a55af180156100ef57611958575b5073460638e6f7605b866736e38045c0de8294d7d87f3b1561137957604051630f7c084960e21b8152600160048201528160248201526989a4921338674240000060448201526001606482015281816084818373460638e6f7605b866736e38045c0de8294d7d87f5af1801561137c57908291611943575b50506040516370a0823160e01b81523060048201526020816024815f5160206120525f395f51905f525afa90811561137c578291611911575b505f5160206120525f395f51905f523b1561138757604051632e1a7d4d60e01b8152600481018290528281602481835f5160206120525f395f51905f525af180156114d7579083916118fc575b505073a920de414ea4ab66b97da1bfe9e6eca7d42196353b156113875781606491604051928380926323cfed0360e01b82528060048301526a14adf4b7320334b900000060248301526004604483015273a920de414ea4ab66b97da1bfe9e6eca7d42196355af1801561137c579082916118e7575b5050604051636e553f6560e01b81526a05ca4ec2a79a7f67000000600482015230602482015260208160448185730655977feb2f289a4ab78af67bab0d17aab843675af1801561137c576118b8575b507376a962ba6770068bcf454d34dde17175611e66373b1561137957604051630f7c084960e21b815281600482015260016024820152694e59bd7d27fbc34000006044820152600160648201528181608481837376a962ba6770068bcf454d34dde17175611e66375af1801561137c579082916118a3575b5050604051630b68372160e31b8152816004820152600160248201526a0d3c21bcecceda10000000604482015260016064820152604081608481857279885e248b572cdc4559a8b156745e2d8ea1f75af1801561137c57611884575b506040516370a0823160e01b815230600482015260208160248173b45ad160634c528cc3d2926d9807104fa31573055afa90811561137c578291611851575b50604051635d043b2960e11b81526004810191909152306024820181905260448201526020816064818573b45ad160634c528cc3d2926d9807104fa31573055af1801561137c57611822575b5073e5f24791e273cb96a1f8e5b67bc2397f0ad9b8b43b1561137957604051637acb775760e01b815269286611505b969cc46b0a600482015273b45ad160634c528cc3d2926d9807104fa3157305602482015281816044818373e5f24791e273cb96a1f8e5b67bc2397f0ad9b8b45af1801561137c5790829161180d575b50506040516303d1689d60e11b8152670de0b6b3a7640000600482015260208160248173b45ad160634c528cc3d2926d9807104fa31573055afa801561137c5782906117d3575b670de0b6b3a76400009150111561179957604051630b68372160e31b81528160048201526001602482015281604482015260016064820152604081608481857279885e248b572cdc4559a8b156745e2d8ea1f75af1801561137c5761177c575b506040516106868082019082821067ffffffffffffffff831117611429579082916119cc8339039082f0801561176f576040516370a0823160e01b81523060048201529060208260248173f939e0a03fb07f59a73314e73794be0e57ac1b4e5afa9182156114d757839261173b575b5060405163a9059cbb60e01b81526001600160a01b03919091166004820181905260248201929092526020816044818673f939e0a03fb07f59a73314e73794be0e57ac1b4e5af180156114d75761171e575b50803b156113875781809160046040518094819363507cfae560e01b83525af1801561137c57908291611709575b50506040516394bf804d60e01b81526a011349242670ce8480000060048201523060248201526020816044818573b45ad160634c528cc3d2926d9807104fa31573055af1801561137c576116da575b506040516333ef816560e11b8152600481018290526001602482015269910deca5fa74b220000060448201526020816064818573460638e6f7605b866736e38045c0de8294d7d87f5af190811561137c5782916116a8575b5073460638e6f7605b866736e38045c0de8294d7d87f3b156113875760405190630f7c084960e21b82528260048301526001602483015260448201526001606482015281816084818373460638e6f7605b866736e38045c0de8294d7d87f5af1801561137c57908291611693575b50506040516370a0823160e01b815230600482015260208160248173bc6da0fe9ad5f3b0d58160288917aa56653660e95afa90811561137c578291611661575b5073b30da2376f63de30b42dc055c93fa474f31330a53b156113875760405190635320bf6b60e11b82528260048301526002602483015260448201526001606482015281816084818373b30da2376f63de30b42dc055c93fa474f31330a55af1801561137c5790829161164c575b50506040516333ef816560e11b81526001600482015260248101829052694ec629108387808000006044820152602081606481857376a962ba6770068bcf454d34dde17175611e66375af190811561137c57829161161a575b507376a962ba6770068bcf454d34dde17175611e66373b156113875760405190630f7c084960e21b8252600160048301528260248301526044820152600160648201528181608481837376a962ba6770068bcf454d34dde17175611e66375af1801561137c57908291611605575b50506040516370a0823160e01b8152306004820152602081602481730655977feb2f289a4ab78af67bab0d17aab843675afa90811561137c5782916115d2575b50604051635d043b2960e11b815260048101919091523060248201819052604482015260208160648185730655977feb2f289a4ab78af67bab0d17aab843675af1801561137c576115a3575b506040516370a0823160e01b815230600482015260208160248173b45ad160634c528cc3d2926d9807104fa31573055afa90811561137c578291611570575b50604051635d043b2960e11b81526004810191909152306024820181905260448201526020816064818573b45ad160634c528cc3d2926d9807104fa31573055af1801561137c57611541575b50604051630b68372160e31b81528160048201526001602482015281604482015260016064820152604081608481857279885e248b572cdc4559a8b156745e2d8ea1f75af1801561137c57611514575b506040516353ab990360e11b81526a09050426f9ec7dacc2e3526004820152600460248201526020816044818573ad444663c6c92b497225c6ce65fee2e7f78bfb865af190811561137c5782916114e2575b506040516394bf804d60e01b8152600481018290523060248201526020816044818673b45ad160634c528cc3d2926d9807104fa31573055af180156114d7576114a8575b5073ad444663c6c92b497225c6ce65fee2e7f78bfb863b1561138757604051906323cfed0360e01b825260048201526a09050426f9ec7dacc2e2ee60248201526004604482015281816064818373ad444663c6c92b497225c6ce65fee2e7f78bfb865af1801561137c57908291611493575b505073a920de414ea4ab66b97da1bfe9e6eca7d42196353b1561137957604051631b8fec7360e11b81526a295be96e64066972000000600482015281816024818373a920de414ea4ab66b97da1bfe9e6eca7d42196355af1801561137c5790829161147e575b5050604051611251606082610195565b6002815260208101604036823781511561146a5773a0b86991c6218b36c1d19d4a2e9eb0ce3606eb48815281516001101561146a57905f5160206120525f395f51905f5260408201528260405180936338ed173960e01b825260a482019364031541671560048401526001602484015260a060448401525180945260c482019093835b818110611445575050819293503060648301526369a4fd3b6084830152038183737a250d5630b4cf539739df2c5dacb4c659f2488d5af1801561137c5761138b575b504761131f5750565b475f5160206120525f395f51905f523b15611387578160049160405192838092630d0e30db60e41b82525f5160206120525f395f51905f525af1801561137c57611367575050565b611372828092610195565b6113795750565b80fd5b6040513d84823e3d90fd5b5080fd5b3d8083833e61139a8183610195565b81019060208183031261143d5780519067ffffffffffffffff821161144157019080601f8301121561143d5781519167ffffffffffffffff8311611429578260051b9060208201936113ef6040519586610195565b845260208085019282010192831161142557602001905b82821061141557505050611316565b8151815260209182019101611406565b8480fd5b634e487b7160e01b84526041600452602484fd5b8280fd5b8380fd5b85516001600160a01b03168352602095860195889550879450909201916001016112d4565b634e487b7160e01b83526032600452602483fd5b8161148891610195565b61137957805f611241565b8161149d91610195565b61137957805f6111db565b6020813d6020116114cf575b816114c160209383610195565b810103126100e35751611169565b3d91506114b4565b6040513d85823e3d90fd5b90506020813d60201161150c575b816114fd60209383610195565b810103126100e357515f611125565b3d91506114f0565b6115359060403d60401161153a575b61152d8183610195565b81019061196b565b6110d3565b503d611523565b6020813d602011611568575b8161155a60209383610195565b810103126100e35751611083565b3d915061154d565b90506020813d60201161159b575b8161158b60209383610195565b810103126100e357516020611037565b3d915061157e565b6020813d6020116115ca575b816115bc60209383610195565b810103126100e35751610ff8565b3d91506115af565b90506020813d6020116115fd575b816115ed60209383610195565b810103126100e357516020610fac565b3d91506115e0565b8161160f91610195565b61137957805f610f6c565b90506020813d602011611644575b8161163560209383610195565b810103126100e357515f610efe565b3d9150611628565b8161165691610195565b61137957805f610ea5565b90506020813d60201161168b575b8161167c60209383610195565b810103126100e357515f610e37565b3d915061166f565b8161169d91610195565b61137957805f610df7565b90506020813d6020116116d2575b816116c360209383610195565b810103126100e357515f610d89565b3d91506116b6565b6020813d602011611701575b816116f360209383610195565b810103126100e35751610d31565b3d91506116e6565b8161171391610195565b61137957805f610ce2565b6117369060203d6020116102e3576102d88183610195565b610cb4565b9091506020813d602011611767575b8161175760209383610195565b810103126100e35751905f610c62565b3d915061174a565b50604051903d90823e3d90fd5b6117949060403d60401161153a5761152d8183610195565b610bf3565b60405162461bcd60e51b81526020600482015260126024820152711cd113d310481b9bdd081a5b999b185d195960721b6044820152606490fd5b506020813d602011611805575b816117ed60209383610195565b810103126100e357670de0b6b3a76400009051610b93565b3d91506117e0565b8161181791610195565b61137957805f610b4c565b6020813d602011611849575b8161183b60209383610195565b810103126100e35751610ace565b3d915061182e565b90506020813d60201161187c575b8161186c60209383610195565b810103126100e357516020610a82565b3d915061185f565b61189c9060403d60401161153a5761152d8183610195565b505f610a43565b816118ad91610195565b61137957805f6109e7565b6020813d6020116118df575b816118d160209383610195565b810103126100e3575161096f565b3d91506118c4565b816118f191610195565b61137957805f610920565b8161190691610195565b61138757815f6108ab565b90506020813d60201161193b575b8161192c60209383610195565b810103126100e357515f61085e565b3d915061191f565b8161194d91610195565b61137957805f610825565b61196491505f90610195565b5f5f6107ad565b906040828203126100e35780601f830112156100e357604051916040830183811067ffffffffffffffff8211176101b7576040528290604081019283116100e357905b8282106119bb5750505090565b81518152602091820191016119ae56fe60a080604052346100c7573360805263095ea7b360e01b815273ad444663c6c92b497225c6ce65fee2e7f78bfb8660048201525f1960248201526020816044815f73f939e0a03fb07f59a73314e73794be0e57ac1b4e5af180156100e657610081575b60405161059490816100f2823960805181818161025c01526103260152f35b60203d6020116100df575b601f8101601f191682016001600160401b038111838210176100cb576020918391604052810103126100c75751801515036100c7575f610062565b5f80fd5b634e487b7160e01b5f52604160045260245ffd5b503d61008c565b6040513d5f823e3d90fdfe6080806040526004361015610012575f80fd5b5f3560e01c63507cfae514610025575f80fd5b346101bd575f3660031901126101bd57627c98ab60e01b81525f816004818373ad444663c6c92b497225c6ce65fee2e7f78bfb865af19081156101b2575f916103d5575b505f5b815181101561011b5760208160051b83010151905f5468010000000000000000811015610107578060016100a292015f556104fa565b6100f45760046080600194858060a01b038151166bffffffffffffffffffffffff60a01b855416178455602081015186850155604081015160028501556060810151600385015501519101550161006c565b634e487b7160e01b5f525f60045260245ffd5b634e487b7160e01b5f52604160045260245ffd5b5f5b5f548110156101c15761012f816104fa565b50546001600160a01b03169073ad444663c6c92b497225c6ce65fee2e7f78bfb863b156101bd576040519163bcbaf48760e01b835260048301525f60248301525f826044818373ad444663c6c92b497225c6ce65fee2e7f78bfb865af19182156101b2576001926101a2575b500161011d565b5f6101ac916104d8565b8261019b565b6040513d5f823e3d90fd5b5f80fd5b6040516370a0823160e01b815230600482015260208160248173f939e0a03fb07f59a73314e73794be0e57ac1b4e5afa9081156101b2575f916103a3575b5080610317575b506040516370a0823160e01b815230600482015260208160248173865377367054516e17014ccded1e7d814edc9ce45afa9081156101b2575f916102e5575b508061024d57005b60405163a9059cbb60e01b81527f00000000000000000000000000000000000000000000000000000000000000006001600160a01b0316600482015260248101919091526020816044815f73865377367054516e17014ccded1e7d814edc9ce45af180156101b2576102bb57005b6102dc9060203d6020116102de575b6102d481836104d8565b810190610546565b005b503d6102ca565b90506020813d60201161030f575b81610300602093836104d8565b810103126101bd575181610245565b3d91506102f3565b60405163a9059cbb60e01b81527f00000000000000000000000000000000000000000000000000000000000000006001600160a01b0316600482015260248101919091526020816044815f73f939e0a03fb07f59a73314e73794be0e57ac1b4e5af180156101b257156102065761039c9060203d6020116102de576102d481836104d8565b5080610206565b90506020813d6020116103cd575b816103be602093836104d8565b810103126101bd5751816101ff565b3d91506103b1565b90503d805f833e6103e681836104d8565b8101906020818303126101bd5780519067ffffffffffffffff82116101bd570181601f820112156101bd5780519067ffffffffffffffff8211610107576040519261043760208460051b01856104d8565b828452602060a08186019402830101918183116101bd57602001925b82841061046457505050505f610069565b60a0848303126101bd576040519060a0820182811067ffffffffffffffff821117610107576040528451906001600160a01b03821682036101bd578260209260a094528287015183820152604087015160408201526060870151606082015260808701516080820152815201930192610453565b90601f8019910116810190811067ffffffffffffffff82111761010757604052565b5f54811015610532575f8080526005919091027f290decd9548b62a8d60345a988386fc84ba6bc95484008f6362f93160ef3e5630191565b634e487b7160e01b5f52603260045260245ffd5b908160209103126101bd575180151581036101bd579056fea2646970667358221220936786d90b24383a653762383372586120f71dda116952657ef23c691d3b5fe864736f6c634300081e0033000000000000000000000000c02aaa39b223fe8d0a0e5c4f27ead9083c756cc2a26469706673582212203fef54b13dd9e86436cb6cb71d2499bca1bd5d1adf71793988f3b2ce9045af7f64736f6c634300081e0033000000000000000000000000b45ad160634c528cc3d2926d9807104fa3157305","linkReferences":{}},"methodIdentifiers":{"executeOnOpportunity()":"3c2448ed","onMorphoFlashLoan(uint256,bytes)":"31f57072","profitAmount()":"5ff972cc","profitToken()":"49343624"},"id":0}