{"abi":[{"type":"constructor","inputs":[],"stateMutability":"nonpayable"},{"type":"function","name":"liquidateAllUsers","inputs":[],"outputs":[],"stateMutability":"nonpayable"}],"bytecode":{"object":"0x60a080604052346100c7573360805263095ea7b360e01b815273ad444663c6c92b497225c6ce65fee2e7f78bfb8660048201525f1960248201526020816044815f73f939e0a03fb07f59a73314e73794be0e57ac1b4e5af180156100e657610081575b60405161059490816100f2823960805181818161025c01526103260152f35b60203d6020116100df575b601f8101601f191682016001600160401b038111838210176100cb576020918391604052810103126100c75751801515036100c7575f610062565b5f80fd5b634e487b7160e01b5f52604160045260245ffd5b503d61008c565b6040513d5f823e3d90fdfe6080806040526004361015610012575f80fd5b5f3560e01c63507cfae514610025575f80fd5b346101bd575f3660031901126101bd57627c98ab60e01b81525f816004818373ad444663c6c92b497225c6ce65fee2e7f78bfb865af19081156101b2575f916103d5575b505f5b815181101561011b5760208160051b83010151905f5468010000000000000000811015610107578060016100a292015f556104fa565b6100f45760046080600194858060a01b038151166bffffffffffffffffffffffff60a01b855416178455602081015186850155604081015160028501556060810151600385015501519101550161006c565b634e487b7160e01b5f525f60045260245ffd5b634e487b7160e01b5f52604160045260245ffd5b5f5b5f548110156101c15761012f816104fa565b50546001600160a01b03169073ad444663c6c92b497225c6ce65fee2e7f78bfb863b156101bd576040519163bcbaf48760e01b835260048301525f60248301525f826044818373ad444663c6c92b497225c6ce65fee2e7f78bfb865af19182156101b2576001926101a2575b500161011d565b5f6101ac916104d8565b8261019b565b6040513d5f823e3d90fd5b5f80fd5b6040516370a0823160e01b815230600482015260208160248173f939e0a03fb07f59a73314e73794be0e57ac1b4e5afa9081156101b2575f916103a3575b5080610317575b506040516370a0823160e01b815230600482015260208160248173865377367054516e17014ccded1e7d814edc9ce45afa9081156101b2575f916102e5575b508061024d57005b60405163a9059cbb60e01b81527f00000000000000000000000000000000000000000000000000000000000000006001600160a01b0316600482015260248101919091526020816044815f73865377367054516e17014ccded1e7d814edc9ce45af180156101b2576102bb57005b6102dc9060203d6020116102de575b6102d481836104d8565b810190610546565b005b503d6102ca565b90506020813d60201161030f575b81610300602093836104d8565b810103126101bd575181610245565b3d91506102f3565b60405163a9059cbb60e01b81527f00000000000000000000000000000000000000000000000000000000000000006001600160a01b0316600482015260248101919091526020816044815f73f939e0a03fb07f59a73314e73794be0e57ac1b4e5af180156101b257156102065761039c9060203d6020116102de576102d481836104d8565b5080610206565b90506020813d6020116103cd575b816103be602093836104d8565b810103126101bd5751816101ff565b3d91506103b1565b90503d805f833e6103e681836104d8565b8101906020818303126101bd5780519067ffffffffffffffff82116101bd570181601f820112156101bd5780519067ffffffffffffffff8211610107576040519261043760208460051b01856104d8565b828452602060a08186019402830101918183116101bd57602001925b82841061046457505050505f610069565b60a0848303126101bd576040519060a0820182811067ffffffffffffffff821117610107576040528451906001600160a01b03821682036101bd578260209260a094528287015183820152604087015160408201526060870151606082015260808701516080820152815201930192610453565b90601f8019910116810190811067ffffffffffffffff82111761010757604052565b5f54811015610532575f8080526005919091027f290decd9548b62a8d60345a988386fc84ba6bc95484008f6362f93160ef3e5630191565b634e487b7160e01b5f52603260045260245ffd5b908160209103126101bd575180151581036101bd579056fea2646970667358221220936786d90b24383a653762383372586120f71dda116952657ef23c691d3b5fe864736f6c634300081e0033","linkReferences":{}},"methodIdentifiers":{"liquidateAllUsers()":"507cfae5"},"id":0}