{"abi":[{"type":"constructor","inputs":[{"name":"game_","type":"address","internalType":"contract IGameAuction"},{"name":"verifier_","type":"address","internalType":"address"}],"stateMutability":"payable"},{"type":"receive","stateMutability":"payable"},{"type":"function","name":"bid","inputs":[{"name":"amount","type":"uint256","internalType":"uint256"}],"outputs":[],"stateMutability":"payable"},{"type":"function","name":"configureReentry","inputs":[{"name":"reentryBidAmount_","type":"uint256","internalType":"uint256"},{"name":"reentriesRemaining_","type":"uint256","internalType":"uint256"},{"name":"armed_","type":"bool","internalType":"bool"}],"outputs":[],"stateMutability":"nonpayable"},{"type":"function","name":"sweep","inputs":[],"outputs":[],"stateMutability":"nonpayable"}],"bytecode":{"object":"0x60c06040526040516109663803806109668339818101604052810190610025919061012d565b8173ffffffffffffffffffffffffffffffffffffffff1660808173ffffffffffffffffffffffffffffffffffffffff16815250508073ffffffffffffffffffffffffffffffffffffffff1660a08173ffffffffffffffffffffffffffffffffffffffff1681525050505061016b565b5f5ffd5b5f73ffffffffffffffffffffffffffffffffffffffff82169050919050565b5f6100c182610098565b9050919050565b5f6100d2826100b7565b9050919050565b6100e2816100c8565b81146100ec575f5ffd5b50565b5f815190506100fd816100d9565b92915050565b61010c816100b7565b8114610116575f5ffd5b50565b5f8151905061012781610103565b92915050565b5f5f6040838503121561014357610142610094565b5b5f610150858286016100ef565b925050602061016185828601610119565b9150509250929050565b60805160a0516107b96101ad5f395f81816101b3015281816102420152818161030c015261045c01525f8181603e0152818160d401526103dc01526107b95ff3fe608060405260043610610037575f3560e01c806335faa41614610157578063454a2ab31461016d578063ec886ff31461018957610153565b36610153577f000000000000000000000000000000000000000000000000000000000000000073ffffffffffffffffffffffffffffffffffffffff163373ffffffffffffffffffffffffffffffffffffffff161480156100a2575060025f9054906101000a900460ff165b80156100b057505f60015414155b80156100bd57505f544710155b156101515760015f815460019003919050819055507f000000000000000000000000000000000000000000000000000000000000000073ffffffffffffffffffffffffffffffffffffffff1663f30e36585f546040518263ffffffff1660e01b81526004015f604051808303818588803b158015610139575f5ffd5b505af115801561014b573d5f5f3e3d5ffd5b50505050505b005b5f5ffd5b348015610162575f5ffd5b5061016b6101b1565b005b6101876004803603810190610182919061054a565b61030a565b005b348015610194575f5ffd5b506101af60048036038101906101aa91906105aa565b61045a565b005b7f000000000000000000000000000000000000000000000000000000000000000073ffffffffffffffffffffffffffffffffffffffff163373ffffffffffffffffffffffffffffffffffffffff161461023f576040517f08c379a000000000000000000000000000000000000000000000000000000000815260040161023690610654565b60405180910390fd5b5f7f000000000000000000000000000000000000000000000000000000000000000073ffffffffffffffffffffffffffffffffffffffff16476040516102849061069f565b5f6040518083038185875af1925050503d805f81146102be576040519150601f19603f3d011682016040523d82523d5f602084013e6102c3565b606091505b5050905080610307576040517f08c379a00000000000000000000000000000000000000000000000000000000081526004016102fe906106fd565b60405180910390fd5b50565b7f000000000000000000000000000000000000000000000000000000000000000073ffffffffffffffffffffffffffffffffffffffff163373ffffffffffffffffffffffffffffffffffffffff1614610398576040517f08c379a000000000000000000000000000000000000000000000000000000000815260040161038f90610654565b60405180910390fd5b8034146103da576040517f08c379a00000000000000000000000000000000000000000000000000000000081526004016103d190610765565b60405180910390fd5b7f000000000000000000000000000000000000000000000000000000000000000073ffffffffffffffffffffffffffffffffffffffff1663f30e3658826040518263ffffffff1660e01b81526004015f604051808303818588803b158015610440575f5ffd5b505af1158015610452573d5f5f3e3d5ffd5b505050505050565b7f000000000000000000000000000000000000000000000000000000000000000073ffffffffffffffffffffffffffffffffffffffff163373ffffffffffffffffffffffffffffffffffffffff16146104e8576040517f08c379a00000000000000000000000000000000000000000000000000000000081526004016104df90610654565b60405180910390fd5b825f81905550816001819055508060025f6101000a81548160ff021916908315150217905550505050565b5f5ffd5b5f819050919050565b61052981610517565b8114610533575f5ffd5b50565b5f8135905061054481610520565b92915050565b5f6020828403121561055f5761055e610513565b5b5f61056c84828501610536565b91505092915050565b5f8115159050919050565b61058981610575565b8114610593575f5ffd5b50565b5f813590506105a481610580565b92915050565b5f5f5f606084860312156105c1576105c0610513565b5b5f6105ce86828701610536565b93505060206105df86828701610536565b92505060406105f086828701610596565b9150509250925092565b5f82825260208201905092915050565b7f6f6e6c79207665726966696572000000000000000000000000000000000000005f82015250565b5f61063e600d836105fa565b91506106498261060a565b602082019050919050565b5f6020820190508181035f83015261066b81610632565b9050919050565b5f81905092915050565b50565b5f61068a5f83610672565b91506106958261067c565b5f82019050919050565b5f6106a98261067f565b9150819050919050565b7f7377656570206661696c656400000000000000000000000000000000000000005f82015250565b5f6106e7600c836105fa565b91506106f2826106b3565b602082019050919050565b5f6020820190508181035f830152610714816106db565b9050919050565b7f6261642076616c756500000000000000000000000000000000000000000000005f82015250565b5f61074f6009836105fa565b915061075a8261071b565b602082019050919050565b5f6020820190508181035f83015261077c81610743565b905091905056fea264697066735822122099170eb146fb2c9d18d9d32c27bc40c449acc6dca06f4548dca6bb10e232da5b64736f6c634300081e0033","linkReferences":{}},"methodIdentifiers":{"bid(uint256)":"454a2ab3","configureReentry(uint256,uint256,bool)":"ec886ff3","sweep()":"35faa416"},"id":0}