{"abi":[{"type":"constructor","inputs":[{"name":"game_","type":"address","internalType":"contract IGameAuction"},{"name":"verifier_","type":"address","internalType":"address"}],"stateMutability":"payable"},{"type":"receive","stateMutability":"payable"},{"type":"function","name":"bid","inputs":[{"name":"amount","type":"uint256","internalType":"uint256"}],"outputs":[],"stateMutability":"payable"}],"bytecode":{"object":"0x60c060405260405161053c38038061053c8339818101604052810190610025919061012d565b8173ffffffffffffffffffffffffffffffffffffffff1660808173ffffffffffffffffffffffffffffffffffffffff16815250508073ffffffffffffffffffffffffffffffffffffffff1660a08173ffffffffffffffffffffffffffffffffffffffff1681525050505061016b565b5f5ffd5b5f73ffffffffffffffffffffffffffffffffffffffff82169050919050565b5f6100c182610098565b9050919050565b5f6100d2826100b7565b9050919050565b6100e2816100c8565b81146100ec575f5ffd5b50565b5f815190506100fd816100d9565b92915050565b61010c816100b7565b8114610116575f5ffd5b50565b5f8151905061012781610103565b92915050565b5f5f6040838503121561014357610142610094565b5b5f610150858286016100ef565b925050602061016185828601610119565b9150509250929050565b60805160a0516103b161018b5f395f608301525f61015301526103b15ff3fe608060405260043610610021575f3560e01c8063454a2ab31461006557610061565b36610061576040517f08c379a00000000000000000000000000000000000000000000000000000000081526004016100589061022b565b60405180910390fd5b5f5ffd5b61007f600480360381019061007a9190610280565b610081565b005b7f000000000000000000000000000000000000000000000000000000000000000073ffffffffffffffffffffffffffffffffffffffff163373ffffffffffffffffffffffffffffffffffffffff161461010f576040517f08c379a0000000000000000000000000000000000000000000000000000000008152600401610106906102f5565b60405180910390fd5b803414610151576040517f08c379a00000000000000000000000000000000000000000000000000000000081526004016101489061035d565b60405180910390fd5b7f000000000000000000000000000000000000000000000000000000000000000073ffffffffffffffffffffffffffffffffffffffff1663f30e3658826040518263ffffffff1660e01b81526004015f604051808303818588803b1580156101b7575f5ffd5b505af11580156101c9573d5f5f3e3d5ffd5b505050505050565b5f82825260208201905092915050565b7f726566756e6420626c6f636b65640000000000000000000000000000000000005f82015250565b5f610215600e836101d1565b9150610220826101e1565b602082019050919050565b5f6020820190508181035f83015261024281610209565b9050919050565b5f5ffd5b5f819050919050565b61025f8161024d565b8114610269575f5ffd5b50565b5f8135905061027a81610256565b92915050565b5f6020828403121561029557610294610249565b5b5f6102a28482850161026c565b91505092915050565b7f6f6e6c79207665726966696572000000000000000000000000000000000000005f82015250565b5f6102df600d836101d1565b91506102ea826102ab565b602082019050919050565b5f6020820190508181035f83015261030c816102d3565b9050919050565b7f6261642076616c756500000000000000000000000000000000000000000000005f82015250565b5f6103476009836101d1565b915061035282610313565b602082019050919050565b5f6020820190508181035f8301526103748161033b565b905091905056fea2646970667358221220b62cef9c26a2fe047af995b4760fcc03bb193d636b33bac579d20e4fb4a063df64736f6c634300081e0033","linkReferences":{}},"methodIdentifiers":{"bid(uint256)":"454a2ab3"},"id":0}