{"abi":[{"type":"constructor","inputs":[{"name":"game_","type":"address","internalType":"contract IGameAuction"},{"name":"verifier_","type":"address","internalType":"address"}],"stateMutability":"payable"},{"type":"receive","stateMutability":"payable"},{"type":"function","name":"attemptBid","inputs":[{"name":"amount","type":"uint256","internalType":"uint256"}],"outputs":[{"name":"success","type":"bool","internalType":"bool"},{"name":"data","type":"bytes","internalType":"bytes"}],"stateMutability":"payable"},{"type":"function","name":"bid","inputs":[{"name":"amount","type":"uint256","internalType":"uint256"}],"outputs":[],"stateMutability":"payable"},{"type":"function","name":"sweep","inputs":[],"outputs":[],"stateMutability":"nonpayable"}],"bytecode":{"object":"0x60c06040526040516109e43803806109e48339818101604052810190610025919061012d565b8173ffffffffffffffffffffffffffffffffffffffff1660808173ffffffffffffffffffffffffffffffffffffffff16815250508073ffffffffffffffffffffffffffffffffffffffff1660a08173ffffffffffffffffffffffffffffffffffffffff1681525050505061016b565b5f5ffd5b5f73ffffffffffffffffffffffffffffffffffffffff82169050919050565b5f6100c182610098565b9050919050565b5f6100d2826100b7565b9050919050565b6100e2816100c8565b81146100ec575f5ffd5b50565b5f815190506100fd816100d9565b92915050565b61010c816100b7565b8114610116575f5ffd5b50565b5f8151905061012781610103565b92915050565b5f5f6040838503121561014357610142610094565b5b5f610150858286016100ef565b925050602061016185828601610119565b9150509250929050565b60805160a05161083d6101a75f395f818160a70152818161013601528181610200015261035301525f81816102d00152610423015261083d5ff3fe608060405260043610610037575f3560e01c806335faa41614610042578063454a2ab314610058578063687866b3146100745761003e565b3661003e57005b5f5ffd5b34801561004d575f5ffd5b506100566100a5565b005b610072600480360381019061006d9190610555565b6101fe565b005b61008e60048036038101906100899190610555565b61034e565b60405161009c92919061060a565b60405180910390f35b7f000000000000000000000000000000000000000000000000000000000000000073ffffffffffffffffffffffffffffffffffffffff163373ffffffffffffffffffffffffffffffffffffffff1614610133576040517f08c379a000000000000000000000000000000000000000000000000000000000815260040161012a90610692565b60405180910390fd5b5f7f000000000000000000000000000000000000000000000000000000000000000073ffffffffffffffffffffffffffffffffffffffff1647604051610178906106dd565b5f6040518083038185875af1925050503d805f81146101b2576040519150601f19603f3d011682016040523d82523d5f602084013e6101b7565b606091505b50509050806101fb576040517f08c379a00000000000000000000000000000000000000000000000000000000081526004016101f29061073b565b60405180910390fd5b50565b7f000000000000000000000000000000000000000000000000000000000000000073ffffffffffffffffffffffffffffffffffffffff163373ffffffffffffffffffffffffffffffffffffffff161461028c576040517f08c379a000000000000000000000000000000000000000000000000000000000815260040161028390610692565b60405180910390fd5b8034146102ce576040517f08c379a00000000000000000000000000000000000000000000000000000000081526004016102c5906107a3565b60405180910390fd5b7f000000000000000000000000000000000000000000000000000000000000000073ffffffffffffffffffffffffffffffffffffffff1663f30e3658826040518263ffffffff1660e01b81526004015f604051808303818588803b158015610334575f5ffd5b505af1158015610346573d5f5f3e3d5ffd5b505050505050565b5f60607f000000000000000000000000000000000000000000000000000000000000000073ffffffffffffffffffffffffffffffffffffffff163373ffffffffffffffffffffffffffffffffffffffff16146103df576040517f08c379a00000000000000000000000000000000000000000000000000000000081526004016103d690610692565b60405180910390fd5b823414610421576040517f08c379a0000000000000000000000000000000000000000000000000000000008152600401610418906107a3565b60405180910390fd5b7f000000000000000000000000000000000000000000000000000000000000000073ffffffffffffffffffffffffffffffffffffffff168363f30e365860e01b604051602401604051602081830303815290604052907bffffffffffffffffffffffffffffffffffffffffffffffffffffffff19166020820180517bffffffffffffffffffffffffffffffffffffffffffffffffffffffff83818316178352505050506040516104d191906107f1565b5f6040518083038185875af1925050503d805f811461050b576040519150601f19603f3d011682016040523d82523d5f602084013e610510565b606091505b508092508193505050915091565b5f5ffd5b5f819050919050565b61053481610522565b811461053e575f5ffd5b50565b5f8135905061054f8161052b565b92915050565b5f6020828403121561056a5761056961051e565b5b5f61057784828501610541565b91505092915050565b5f8115159050919050565b61059481610580565b82525050565b5f81519050919050565b5f82825260208201905092915050565b8281835e5f83830152505050565b5f601f19601f8301169050919050565b5f6105dc8261059a565b6105e681856105a4565b93506105f68185602086016105b4565b6105ff816105c2565b840191505092915050565b5f60408201905061061d5f83018561058b565b818103602083015261062f81846105d2565b90509392505050565b5f82825260208201905092915050565b7f6f6e6c79207665726966696572000000000000000000000000000000000000005f82015250565b5f61067c600d83610638565b915061068782610648565b602082019050919050565b5f6020820190508181035f8301526106a981610670565b9050919050565b5f81905092915050565b50565b5f6106c85f836106b0565b91506106d3826106ba565b5f82019050919050565b5f6106e7826106bd565b9150819050919050565b7f7377656570206661696c656400000000000000000000000000000000000000005f82015250565b5f610725600c83610638565b9150610730826106f1565b602082019050919050565b5f6020820190508181035f83015261075281610719565b9050919050565b7f6261642076616c756500000000000000000000000000000000000000000000005f82015250565b5f61078d600983610638565b915061079882610759565b602082019050919050565b5f6020820190508181035f8301526107ba81610781565b9050919050565b5f6107cb8261059a565b6107d581856106b0565b93506107e58185602086016105b4565b80840191505092915050565b5f6107fc82846107c1565b91508190509291505056fea2646970667358221220523d50f0be8ab0dca1d4d49fe28c0e9e041f33e6fa29589f2bf1dc4d45955c1764736f6c634300081e0033","linkReferences":{}},"methodIdentifiers":{"attemptBid(uint256)":"687866b3","bid(uint256)":"454a2ab3","sweep()":"35faa416"},"id":0}