{"abi":[{"type":"constructor","inputs":[],"stateMutability":"nonpayable"},{"type":"function","name":"TARGET","inputs":[],"outputs":[{"name":"","type":"address","internalType":"address"}],"stateMutability":"view"},{"type":"function","name":"executeOnOpportunity","inputs":[],"outputs":[],"stateMutability":"nonpayable"},{"type":"function","name":"profitAmount","inputs":[],"outputs":[{"name":"","type":"uint256","internalType":"uint256"}],"stateMutability":"view"},{"type":"function","name":"profitToken","inputs":[],"outputs":[{"name":"","type":"address","internalType":"address"}],"stateMutability":"pure"}],"bytecode":{"object":"0x6080604052348015600e575f5ffd5b50610aa78061001c5f395ff3fe608060405234801561000f575f5ffd5b506004361061004a575f3560e01c80633c2448ed1461004e57806349343624146100585780635ff972cc14610076578063cc1f2afa14610094575b5f5ffd5b6100566100b2565b005b610060610326565b60405161006d9190610678565b60405180910390f35b61007e610341565b60405161008b91906106a9565b60405180910390f35b61009c610349565b6040516100a99190610678565b60405180910390f35b5f73ddadf1bf44363d07e750c20219c2347ed7d826b990505f8173ffffffffffffffffffffffffffffffffffffffff16634f02c4206040518163ffffffff1660e01b8152600401602060405180830381865afa158015610114573d5f5f3e3d5ffd5b505050506040513d601f19601f8201168201806040525081019061013891906106f0565b90505f8273ffffffffffffffffffffffffffffffffffffffff1663313ce5676040518163ffffffff1660e01b8152600401602060405180830381865afa158015610184573d5f5f3e3d5ffd5b505050506040513d601f19601f820116820180604052508101906101a89190610751565b60ff16600a6101b791906108d8565b90505f8373ffffffffffffffffffffffffffffffffffffffff1663d83240416040518163ffffffff1660e01b8152600401602060405180830381865afa158015610203573d5f5f3e3d5ffd5b505050506040513d601f19601f82011682018060405250810190610227919061094c565b905061023584828585610361565b1561024b576102426104bc565b50505050610324565b5f8473ffffffffffffffffffffffffffffffffffffffff16638da5cb5b6040518163ffffffff1660e01b8152600401602060405180830381865afa158015610295573d5f5f3e3d5ffd5b505050506040513d601f19601f820116820180604052508101906102b9919061094c565b90508173ffffffffffffffffffffffffffffffffffffffff168173ffffffffffffffffffffffffffffffffffffffff16141580156102ff57506102fe85828686610361565b5b156103165761030c6104bc565b5050505050610324565b61031e6104bc565b50505050505b565b5f73ddadf1bf44363d07e750c20219c2347ed7d826b9905090565b5f5f54905090565b73ddadf1bf44363d07e750c20219c2347ed7d826b981565b5f5f73ffffffffffffffffffffffffffffffffffffffff168473ffffffffffffffffffffffffffffffffffffffff1614806103c757503073ffffffffffffffffffffffffffffffffffffffff168473ffffffffffffffffffffffffffffffffffffffff16145b156103d4575f90506104b4565b5f8573ffffffffffffffffffffffffffffffffffffffff166370a08231866040518263ffffffff1660e01b815260040161040e9190610678565b602060405180830381865afa158015610429573d5f5f3e3d5ffd5b505050506040513d601f19601f8201168201806040525081019061044d91906106f0565b905083811161045f575f9150506104b4565b61046a86868361054f565b156104795760019150506104b4565b5f838261048691906109a4565b9050848111801561049e575061049d87878361054f565b5b156104ae576001925050506104b4565b5f925050505b949350505050565b73ddadf1bf44363d07e750c20219c2347ed7d826b973ffffffffffffffffffffffffffffffffffffffff166370a08231306040518263ffffffff1660e01b81526004016105099190610678565b602060405180830381865afa158015610524573d5f5f3e3d5ffd5b505050506040513d601f19601f8201168201806040525081019061054891906106f0565b5f81905550565b5f8373ffffffffffffffffffffffffffffffffffffffff166323b872dd60e01b843085604051602401610584939291906109d4565b604051602081830303815290604052907bffffffffffffffffffffffffffffffffffffffffffffffffffffffff19166020820180517bffffffffffffffffffffffffffffffffffffffffffffffffffffffff83818316178352505050506040516105ee9190610a5b565b5f604051808303815f865af19150503d805f8114610627576040519150601f19603f3d011682016040523d82523d5f602084013e61062c565b606091505b5050809150509392505050565b5f73ffffffffffffffffffffffffffffffffffffffff82169050919050565b5f61066282610639565b9050919050565b61067281610658565b82525050565b5f60208201905061068b5f830184610669565b92915050565b5f819050919050565b6106a381610691565b82525050565b5f6020820190506106bc5f83018461069a565b92915050565b5f5ffd5b6106cf81610691565b81146106d9575f5ffd5b50565b5f815190506106ea816106c6565b92915050565b5f60208284031215610705576107046106c2565b5b5f610712848285016106dc565b91505092915050565b5f60ff82169050919050565b6107308161071b565b811461073a575f5ffd5b50565b5f8151905061074b81610727565b92915050565b5f60208284031215610766576107656106c2565b5b5f6107738482850161073d565b91505092915050565b7f4e487b71000000000000000000000000000000000000000000000000000000005f52601160045260245ffd5b5f8160011c9050919050565b5f5f8291508390505b60018511156107fe578086048111156107da576107d961077c565b5b60018516156107e95780820291505b80810290506107f7856107a9565b94506107be565b94509492505050565b5f8261081657600190506108d1565b81610823575f90506108d1565b8160018114610839576002811461084357610872565b60019150506108d1565b60ff8411156108555761085461077c565b5b8360020a91508482111561086c5761086b61077c565b5b506108d1565b5060208310610133831016604e8410600b84101617156108a75782820a9050838111156108a2576108a161077c565b5b6108d1565b6108b484848460016107b5565b925090508184048111156108cb576108ca61077c565b5b81810290505b9392505050565b5f6108e282610691565b91506108ed83610691565b925061091a7fffffffffffffffffffffffffffffffffffffffffffffffffffffffffffffffff8484610807565b905092915050565b61092b81610658565b8114610935575f5ffd5b50565b5f8151905061094681610922565b92915050565b5f60208284031215610961576109606106c2565b5b5f61096e84828501610938565b91505092915050565b7f4e487b71000000000000000000000000000000000000000000000000000000005f52601260045260245ffd5b5f6109ae82610691565b91506109b983610691565b9250826109c9576109c8610977565b5b828206905092915050565b5f6060820190506109e75f830186610669565b6109f46020830185610669565b610a01604083018461069a565b949350505050565b5f81519050919050565b5f81905092915050565b8281835e5f83830152505050565b5f610a3582610a09565b610a3f8185610a13565b9350610a4f818560208601610a1d565b80840191505092915050565b5f610a668284610a2b565b91508190509291505056fea26469706673582212207b09a9738505ba7342ffdc7169a8ca937f276a2313700351ff30d5dd89ecf96564736f6c634300081e0033","linkReferences":{}},"methodIdentifiers":{"TARGET()":"cc1f2afa","executeOnOpportunity()":"3c2448ed","profitAmount()":"5ff972cc","profitToken()":"49343624"},"id":0}