{"abi":[{"type":"constructor","inputs":[],"stateMutability":"nonpayable"},{"type":"function","name":"configure","inputs":[{"name":"sousChef","type":"address","internalType":"address"},{"name":"bill","type":"address","internalType":"address"},{"name":"strategy","type":"address","internalType":"address"}],"outputs":[],"stateMutability":"nonpayable"},{"type":"function","name":"configuredBill","inputs":[],"outputs":[{"name":"","type":"address","internalType":"address"}],"stateMutability":"view"},{"type":"function","name":"configuredSousChef","inputs":[],"outputs":[{"name":"","type":"address","internalType":"address"}],"stateMutability":"view"},{"type":"function","name":"configuredStrategy","inputs":[],"outputs":[{"name":"","type":"address","internalType":"address"}],"stateMutability":"view"},{"type":"function","name":"deployer","inputs":[],"outputs":[{"name":"","type":"address","internalType":"address"}],"stateMutability":"view"},{"type":"function","name":"executeOnOpportunity","inputs":[],"outputs":[],"stateMutability":"nonpayable"},{"type":"function","name":"profitAmount","inputs":[],"outputs":[{"name":"","type":"uint256","internalType":"uint256"}],"stateMutability":"view"},{"type":"function","name":"profitToken","inputs":[],"outputs":[{"name":"","type":"address","internalType":"address"}],"stateMutability":"view"},{"type":"error","name":"BillUnavailable","inputs":[]},{"type":"error","name":"NoExecutablePath","inputs":[]},{"type":"error","name":"SousChefNotFound","inputs":[]},{"type":"error","name":"StrategyUnavailable","inputs":[]}],"bytecode":{"object":"0x60a0604052348015600e575f5ffd5b503373ffffffffffffffffffffffffffffffffffffffff1660808173ffffffffffffffffffffffffffffffffffffffff1681525050608051616c966100625f395f81816103f9015261057a0152616c965ff3fe608060405234801561000f575f5ffd5b5060043610610086575f3560e01c806355d28f201161005957806355d28f20146100ee5780635ff972cc1461010a57806390f0a14114610128578063d5f394881461014657610086565b80632d2f771d1461008a5780633c2448ed146100a857806349343624146100b257806355a26f34146100d0575b5f5ffd5b610092610164565b60405161009f9190614602565b60405180910390f35b6100b0610189565b005b6100ba6103ab565b6040516100c79190614602565b60405180910390f35b6100d86103d2565b6040516100e59190614602565b60405180910390f35b61010860048036038101906101039190614649565b6103f7565b005b61011261054a565b60405161011f91906146b1565b60405180910390f35b610130610553565b60405161013d9190614602565b60405180910390f35b61014e610578565b60405161015b9190614602565b60405180910390f35b60025f9054906101000a900473ffffffffffffffffffffffffffffffffffffffff1681565b5f5f5f6101000a81548173ffffffffffffffffffffffffffffffffffffffff021916908373ffffffffffffffffffffffffffffffffffffffff1602179055505f6001819055505f6101d861059c565b9050806060015173ffffffffffffffffffffffffffffffffffffffff1663c2c4c5c16040518163ffffffff1660e01b81526004015f604051808303815f87803b158015610223575f5ffd5b505af1158015610235573d5f5f3e3d5ffd5b50505050806060015173ffffffffffffffffffffffffffffffffffffffff1663ba0909dd6040518163ffffffff1660e01b8152600401602060405180830381865afa158015610286573d5f5f3e3d5ffd5b505050506040513d601f19601f820116820180604052508101906102aa91906146de565b73ffffffffffffffffffffffffffffffffffffffff1663ed64bab282604001516040518263ffffffff1660e01b81526004016102e691906146b1565b5f604051808303815f87803b1580156102fd575f5ffd5b505af115801561030f573d5f5f3e3d5ffd5b5050505061031c816119f4565b1561032757506103a9565b61033081611b30565b1561033b57506103a9565b61034481611c70565b1561034f57506103a9565b610358816120b8565b1561036357506103a9565b61036c8161233e565b1561037757506103a9565b6040517fa495385f00000000000000000000000000000000000000000000000000000000815260040160405180910390fd5b565b5f5f5f9054906101000a900473ffffffffffffffffffffffffffffffffffffffff16905090565b60035f9054906101000a900473ffffffffffffffffffffffffffffffffffffffff1681565b7f000000000000000000000000000000000000000000000000000000000000000073ffffffffffffffffffffffffffffffffffffffff163373ffffffffffffffffffffffffffffffffffffffff1614610485576040517f08c379a000000000000000000000000000000000000000000000000000000000815260040161047c90614763565b60405180910390fd5b8260025f6101000a81548173ffffffffffffffffffffffffffffffffffffffff021916908373ffffffffffffffffffffffffffffffffffffffff1602179055508160035f6101000a81548173ffffffffffffffffffffffffffffffffffffffff021916908373ffffffffffffffffffffffffffffffffffffffff1602179055508060045f6101000a81548173ffffffffffffffffffffffffffffffffffffffff021916908373ffffffffffffffffffffffffffffffffffffffff160217905550505050565b5f600154905090565b60045f9054906101000a900473ffffffffffffffffffffffffffffffffffffffff1681565b7f000000000000000000000000000000000000000000000000000000000000000081565b6105a4614446565b73a44e79a2c9a8965e7a6fa77bf0ca8faf50e6c73e815f019073ffffffffffffffffffffffffffffffffffffffff16908173ffffffffffffffffffffffffffffffffffffffff1681525050805f015173ffffffffffffffffffffffffffffffffffffffff1663f10684546040518163ffffffff1660e01b8152600401602060405180830381865afa15801561063b573d5f5f3e3d5ffd5b505050506040513d601f19601f8201168201806040525081019061065f91906147ab565b816040018181525050805f015173ffffffffffffffffffffffffffffffffffffffff1663c45a01556040518163ffffffff1660e01b8152600401602060405180830381865afa1580156106b4573d5f5f3e3d5ffd5b505050506040513d601f19601f820116820180604052508101906106d891906146de565b816020019073ffffffffffffffffffffffffffffffffffffffff16908173ffffffffffffffffffffffffffffffffffffffff1681525050805f015173ffffffffffffffffffffffffffffffffffffffff16635fcbd2856040518163ffffffff1660e01b8152600401602060405180830381865afa15801561075b573d5f5f3e3d5ffd5b505050506040513d601f19601f8201168201806040525081019061077f91906146de565b81610120019073ffffffffffffffffffffffffffffffffffffffff16908173ffffffffffffffffffffffffffffffffffffffff1681525050805f015173ffffffffffffffffffffffffffffffffffffffff16630a0879036040518163ffffffff1660e01b8152600401602060405180830381865afa158015610803573d5f5f3e3d5ffd5b505050506040513d601f19601f8201168201806040525081019061082791906146de565b81610140019073ffffffffffffffffffffffffffffffffffffffff16908173ffffffffffffffffffffffffffffffffffffffff1681525050805f015173ffffffffffffffffffffffffffffffffffffffff16630dfe16816040518163ffffffff1660e01b8152600401602060405180830381865afa1580156108ab573d5f5f3e3d5ffd5b505050506040513d601f19601f820116820180604052508101906108cf91906146de565b81610160019073ffffffffffffffffffffffffffffffffffffffff16908173ffffffffffffffffffffffffffffffffffffffff1681525050805f015173ffffffffffffffffffffffffffffffffffffffff1663d21220a76040518163ffffffff1660e01b8152600401602060405180830381865afa158015610953573d5f5f3e3d5ffd5b505050506040513d601f19601f8201168201806040525081019061097791906146de565b81610180019073ffffffffffffffffffffffffffffffffffffffff16908173ffffffffffffffffffffffffffffffffffffffff168152505060035f9054906101000a900473ffffffffffffffffffffffffffffffffffffffff16816080019073ffffffffffffffffffffffffffffffffffffffff16908173ffffffffffffffffffffffffffffffffffffffff16815250505f73ffffffffffffffffffffffffffffffffffffffff16816080015173ffffffffffffffffffffffffffffffffffffffff1614158015610a6257505f816080015173ffffffffffffffffffffffffffffffffffffffff163b115b15610bb857806080015173ffffffffffffffffffffffffffffffffffffffff1663233b25646040518163ffffffff1660e01b8152600401602060405180830381865afa158015610ab4573d5f5f3e3d5ffd5b505050506040513d601f19601f82011682018060405250810190610ad891906146de565b816060019073ffffffffffffffffffffffffffffffffffffffff16908173ffffffffffffffffffffffffffffffffffffffff1681525050806080015173ffffffffffffffffffffffffffffffffffffffff1663a8694e576040518163ffffffff1660e01b8152600401602060405180830381865afa158015610b5c573d5f5f3e3d5ffd5b505050506040513d601f19601f82011682018060405250810190610b8091906146de565b8160e0019073ffffffffffffffffffffffffffffffffffffffff16908173ffffffffffffffffffffffffffffffffffffffff16815250505b60045f9054906101000a900473ffffffffffffffffffffffffffffffffffffffff168160c0019073ffffffffffffffffffffffffffffffffffffffff16908173ffffffffffffffffffffffffffffffffffffffff16815250505f73ffffffffffffffffffffffffffffffffffffffff168160c0015173ffffffffffffffffffffffffffffffffffffffff1614158015610c6b57505f8160c0015173ffffffffffffffffffffffffffffffffffffffff163b115b15610df9578060c0015173ffffffffffffffffffffffffffffffffffffffff1663c45a01556040518163ffffffff1660e01b8152600401602060405180830381865afa158015610cbd573d5f5f3e3d5ffd5b505050506040513d601f19601f82011682018060405250810190610ce191906146de565b8160a0019073ffffffffffffffffffffffffffffffffffffffff16908173ffffffffffffffffffffffffffffffffffffffff16815250505f73ffffffffffffffffffffffffffffffffffffffff168160e0015173ffffffffffffffffffffffffffffffffffffffff1603610df8578060c0015173ffffffffffffffffffffffffffffffffffffffff1663a8694e576040518163ffffffff1660e01b8152600401602060405180830381865afa158015610d9c573d5f5f3e3d5ffd5b505050506040513d601f19601f82011682018060405250810190610dc091906146de565b8160e0019073ffffffffffffffffffffffffffffffffffffffff16908173ffffffffffffffffffffffffffffffffffffffff16815250505b5b5f73ffffffffffffffffffffffffffffffffffffffff1660025f9054906101000a900473ffffffffffffffffffffffffffffffffffffffff1673ffffffffffffffffffffffffffffffffffffffff1614610ea75760025f9054906101000a900473ffffffffffffffffffffffffffffffffffffffff16816060019073ffffffffffffffffffffffffffffffffffffffff16908173ffffffffffffffffffffffffffffffffffffffff16815250505b5f73ffffffffffffffffffffffffffffffffffffffff16816060015173ffffffffffffffffffffffffffffffffffffffff1614158015610f1657505f73ffffffffffffffffffffffffffffffffffffffff168160a0015173ffffffffffffffffffffffffffffffffffffffff16145b15610fc457806060015173ffffffffffffffffffffffffffffffffffffffff1663654e6d776040518163ffffffff1660e01b8152600401602060405180830381865afa158015610f68573d5f5f3e3d5ffd5b505050506040513d601f19601f82011682018060405250810190610f8c91906146de565b8160a0019073ffffffffffffffffffffffffffffffffffffffff16908173ffffffffffffffffffffffffffffffffffffffff16815250505b5f73ffffffffffffffffffffffffffffffffffffffff168160a0015173ffffffffffffffffffffffffffffffffffffffff160361104057611008816020015161248e565b8160a0019073ffffffffffffffffffffffffffffffffffffffff16908173ffffffffffffffffffffffffffffffffffffffff16815250505b5f73ffffffffffffffffffffffffffffffffffffffff168160a0015173ffffffffffffffffffffffffffffffffffffffff16036110a9576040517f1f98a5ba00000000000000000000000000000000000000000000000000000000815260040160405180910390fd5b5f73ffffffffffffffffffffffffffffffffffffffff168160c0015173ffffffffffffffffffffffffffffffffffffffff16036112ac578060a0015173ffffffffffffffffffffffffffffffffffffffff1663dd436ca482604001516040518263ffffffff1660e01b815260040161112191906146b1565b602060405180830381865afa15801561113c573d5f5f3e3d5ffd5b505050506040513d601f19601f8201168201806040525081019061116091906146de565b8160c0019073ffffffffffffffffffffffffffffffffffffffff16908173ffffffffffffffffffffffffffffffffffffffff16815250505f73ffffffffffffffffffffffffffffffffffffffff168160c0015173ffffffffffffffffffffffffffffffffffffffff16036112ab575f8160a0015173ffffffffffffffffffffffffffffffffffffffff1663c89716c583604001516040518263ffffffff1660e01b815260040161121091906146b1565b602060405180830381865afa15801561122b573d5f5f3e3d5ffd5b505050506040513d601f19601f8201168201806040525081019061124f91906146de565b90505f8173ffffffffffffffffffffffffffffffffffffffff163b11156112a957808260c0019073ffffffffffffffffffffffffffffffffffffffff16908173ffffffffffffffffffffffffffffffffffffffff16815250505b505b5b5f73ffffffffffffffffffffffffffffffffffffffff16816060015173ffffffffffffffffffffffffffffffffffffffff1603611332576112fa816020015182604001518360a00151612547565b816060019073ffffffffffffffffffffffffffffffffffffffff16908173ffffffffffffffffffffffffffffffffffffffff16815250505b5f73ffffffffffffffffffffffffffffffffffffffff16816060015173ffffffffffffffffffffffffffffffffffffffff160361139b576040517fc1e6185400000000000000000000000000000000000000000000000000000000815260040160405180910390fd5b5f73ffffffffffffffffffffffffffffffffffffffff16816080015173ffffffffffffffffffffffffffffffffffffffff160361165b57806060015173ffffffffffffffffffffffffffffffffffffffff1663b1cd06e682604001516040518263ffffffff1660e01b815260040161141391906146b1565b602060405180830381865afa15801561142e573d5f5f3e3d5ffd5b505050506040513d601f19601f8201168201806040525081019061145291906146de565b816080019073ffffffffffffffffffffffffffffffffffffffff16908173ffffffffffffffffffffffffffffffffffffffff16815250505f73ffffffffffffffffffffffffffffffffffffffff16816080015173ffffffffffffffffffffffffffffffffffffffff160361165a575f816060015173ffffffffffffffffffffffffffffffffffffffff1663376370ae83604001516040518263ffffffff1660e01b815260040161150291906146b1565b602060405180830381865afa15801561151d573d5f5f3e3d5ffd5b505050506040513d601f19601f8201168201806040525081019061154191906146de565b90505f8173ffffffffffffffffffffffffffffffffffffffff163b111561159f5780826080019073ffffffffffffffffffffffffffffffffffffffff16908173ffffffffffffffffffffffffffffffffffffffff1681525050611658565b816060015173ffffffffffffffffffffffffffffffffffffffff16631c8f078983604001516040518263ffffffff1660e01b81526004016115e091906146b1565b6020604051808303815f875af11580156115fc573d5f5f3e3d5ffd5b505050506040513d601f19601f8201168201806040525081019061162091906146de565b826080019073ffffffffffffffffffffffffffffffffffffffff16908173ffffffffffffffffffffffffffffffffffffffff16815250505b505b5b5f73ffffffffffffffffffffffffffffffffffffffff16816080015173ffffffffffffffffffffffffffffffffffffffff1614806116b357505f816080015173ffffffffffffffffffffffffffffffffffffffff163b145b156116ea576040517f48f0a2a600000000000000000000000000000000000000000000000000000000815260040160405180910390fd5b5f73ffffffffffffffffffffffffffffffffffffffff168160c0015173ffffffffffffffffffffffffffffffffffffffff16036117d9578060a0015173ffffffffffffffffffffffffffffffffffffffff1663dd436ca482604001516040518263ffffffff1660e01b815260040161176291906146b1565b602060405180830381865afa15801561177d573d5f5f3e3d5ffd5b505050506040513d601f19601f820116820180604052508101906117a191906146de565b8160c0019073ffffffffffffffffffffffffffffffffffffffff16908173ffffffffffffffffffffffffffffffffffffffff16815250505b5f73ffffffffffffffffffffffffffffffffffffffff168160c0015173ffffffffffffffffffffffffffffffffffffffff16148061183157505f8160c0015173ffffffffffffffffffffffffffffffffffffffff163b145b15611868576040517f1f98a5ba00000000000000000000000000000000000000000000000000000000815260040160405180910390fd5b5f73ffffffffffffffffffffffffffffffffffffffff168160e0015173ffffffffffffffffffffffffffffffffffffffff160361194857806080015173ffffffffffffffffffffffffffffffffffffffff1663a8694e576040518163ffffffff1660e01b8152600401602060405180830381865afa1580156118ec573d5f5f3e3d5ffd5b505050506040513d601f19601f8201168201806040525081019061191091906146de565b8160e0019073ffffffffffffffffffffffffffffffffffffffff16908173ffffffffffffffffffffffffffffffffffffffff16815250505b806060015173ffffffffffffffffffffffffffffffffffffffff1663ffe066a06040518163ffffffff1660e01b8152600401602060405180830381865afa158015611995573d5f5f3e3d5ffd5b505050506040513d601f19601f820116820180604052508101906119b991906146de565b81610100019073ffffffffffffffffffffffffffffffffffffffff16908173ffffffffffffffffffffffffffffffffffffffff168152505090565b5f5f8260e0015173ffffffffffffffffffffffffffffffffffffffff166370a08231306040518263ffffffff1660e01b8152600401611a339190614602565b602060405180830381865afa158015611a4e573d5f5f3e3d5ffd5b505050506040513d601f19601f82011682018060405250810190611a7291906147ab565b90505f8103611a84575f915050611b2b565b5f83610100015173ffffffffffffffffffffffffffffffffffffffff166370a08231306040518263ffffffff1660e01b8152600401611ac39190614602565b602060405180830381865afa158015611ade573d5f5f3e3d5ffd5b505050506040513d601f19601f82011682018060405250810190611b0291906147ab565b9050611b1784608001518560e00151846126fa565b611b26846101000151826128df565b925050505b919050565b5f5f825f015173ffffffffffffffffffffffffffffffffffffffff166370a08231306040518263ffffffff1660e01b8152600401611b6e9190614602565b602060405180830381865afa158015611b89573d5f5f3e3d5ffd5b505050506040513d601f19601f82011682018060405250810190611bad91906147ab565b90505f8103611bbf575f915050611c6b565b5f83610100015173ffffffffffffffffffffffffffffffffffffffff166370a08231306040518263ffffffff1660e01b8152600401611bfe9190614602565b602060405180830381865afa158015611c19573d5f5f3e3d5ffd5b505050506040513d601f19601f82011682018060405250810190611c3d91906147ab565b9050611c4984836129c8565b611c57575f92505050611c6b565b611c66846101000151826128df565b925050505b919050565b5f5f82610120015173ffffffffffffffffffffffffffffffffffffffff166370a08231306040518263ffffffff1660e01b8152600401611cb09190614602565b602060405180830381865afa158015611ccb573d5f5f3e3d5ffd5b505050506040513d601f19601f82011682018060405250810190611cef91906147ab565b90505f8103611d01575f9150506120b3565b5f611d16846101600151856101400151612b1d565b90505f611d2d856101800151866101400151612b1d565b90505f30604051611d3d906145a9565b611d479190614602565b604051809103905ff080158015611d60573d5f5f3e3d5ffd5b5090505f30604051611d71906145b6565b611d7b9190614602565b604051809103905ff080158015611d94573d5f5f3e3d5ffd5b509050611da78761012001518387612ec4565b5f87610100015173ffffffffffffffffffffffffffffffffffffffff166370a08231306040518263ffffffff1660e01b8152600401611de69190614602565b602060405180830381865afa158015611e01573d5f5f3e3d5ffd5b505050506040513d601f19601f82011682018060405250810190611e2591906147ab565b90505f8373ffffffffffffffffffffffffffffffffffffffff16639b8341808a5f01518b60c001518c608001518b8b8b8a6303bfc4006040518963ffffffff1660e01b8152600401611e7e98979695949392919061488d565b6020604051808303815f875af1925050508015611eb957506040513d601f19601f82011682018060405250810190611eb691906147ab565b60015b611ecc575f9750505050505050506120b3565b809150505f8103611ee6575f9750505050505050506120b3565b8273ffffffffffffffffffffffffffffffffffffffff1663f1e42ccd8a60800151306040518363ffffffff1660e01b8152600401611f25929190614917565b5f604051808303815f87803b158015611f3c575f5ffd5b505af1158015611f4e573d5f5f3e3d5ffd5b505050508273ffffffffffffffffffffffffffffffffffffffff166397125c5a8a6080015186846040518463ffffffff1660e01b8152600401611f939392919061493e565b5f604051808303815f87803b158015611faa575f5ffd5b505af1158015611fbc573d5f5f3e3d5ffd5b505050508373ffffffffffffffffffffffffffffffffffffffff1663f7bd5a438a6080015183876040518463ffffffff1660e01b815260040161200193929190614973565b5f604051808303815f87803b158015612018575f5ffd5b505af115801561202a573d5f5f3e3d5ffd5b505050508373ffffffffffffffffffffffffffffffffffffffff1663b8dc491b8a60e00151306040518363ffffffff1660e01b815260040161206d929190614917565b5f604051808303815f87803b158015612084575f5ffd5b505af1158015612096573d5f5f3e3d5ffd5b505050506120a9896101000151836128df565b9750505050505050505b919050565b5f5f82610140015173ffffffffffffffffffffffffffffffffffffffff166370a08231306040518263ffffffff1660e01b81526004016120f89190614602565b602060405180830381865afa158015612113573d5f5f3e3d5ffd5b505050506040513d601f19601f8201168201806040525081019061213791906147ab565b90505f8103612149575f915050612339565b5f61215e84610160015185610140015161301c565b90505f61217585610180015186610140015161301c565b90505f85610100015173ffffffffffffffffffffffffffffffffffffffff166370a08231306040518263ffffffff1660e01b81526004016121b69190614602565b602060405180830381865afa1580156121d1573d5f5f3e3d5ffd5b505050506040513d601f19601f820116820180604052508101906121f591906147ab565b9050855f015173ffffffffffffffffffffffffffffffffffffffff166353d44f088585855f30426040518763ffffffff1660e01b815260040161223d969594939291906149ea565b5f604051808303815f87803b158015612254575f5ffd5b505af1925050508015612265575060015b612275575f945050505050612339565b5f865f015173ffffffffffffffffffffffffffffffffffffffff166370a08231306040518263ffffffff1660e01b81526004016122b29190614602565b602060405180830381865afa1580156122cd573d5f5f3e3d5ffd5b505050506040513d601f19601f820116820180604052508101906122f191906147ab565b90505f8103612307575f95505050505050612339565b61231187826129c8565b612322575f95505050505050612339565b612331876101000151836128df565b955050505050505b919050565b5f5f8260a0015173ffffffffffffffffffffffffffffffffffffffff1663469048406040518163ffffffff1660e01b8152600401602060405180830381865afa15801561238d573d5f5f3e3d5ffd5b505050506040513d601f19601f820116820180604052508101906123b191906146de565b90505f73ffffffffffffffffffffffffffffffffffffffff168173ffffffffffffffffffffffffffffffffffffffff16148061240357505f8173ffffffffffffffffffffffffffffffffffffffff163b145b15612411575f915050612489565b61241e81845f01516133c3565b61242783611b30565b15612436576001915050612489565b612445818461012001516133c3565b61244e83611c70565b1561245d576001915050612489565b61246c818461014001516133c3565b612475836120b8565b15612484576001915050612489565b5f9150505b919050565b5f5f612499836134d7565b90505f73ffffffffffffffffffffffffffffffffffffffff168173ffffffffffffffffffffffffffffffffffffffff16036124d7575f915050612542565b5f6124e28285613643565b90505f8114612533576124f68285836136b4565b92505f73ffffffffffffffffffffffffffffffffffffffff168373ffffffffffffffffffffffffffffffffffffffff1614612532575050612542565b5b61253d8285613749565b925050505b919050565b5f5f612552856134d7565b90505f73ffffffffffffffffffffffffffffffffffffffff168173ffffffffffffffffffffffffffffffffffffffff1603612590575f9150506126f3565b5f61259b8287613643565b90505f81146125ed576125b08286868461379c565b92505f73ffffffffffffffffffffffffffffffffffffffff168373ffffffffffffffffffffffffffffffffffffffff16146125ec5750506126f3565b5b6125f8828686613833565b92505f73ffffffffffffffffffffffffffffffffffffffff168373ffffffffffffffffffffffffffffffffffffffff16146126345750506126f3565b5f73ffffffffffffffffffffffffffffffffffffffff168473ffffffffffffffffffffffffffffffffffffffff16146126f0575f612671856134d7565b90505f73ffffffffffffffffffffffffffffffffffffffff168173ffffffffffffffffffffffffffffffffffffffff16141580156126db57508273ffffffffffffffffffffffffffffffffffffffff168173ffffffffffffffffffffffffffffffffffffffff1614155b156126ee576126eb818787613833565b93505b505b50505b9392505050565b5f30604051612708906145b6565b6127129190614602565b604051809103905ff08015801561272b573d5f5f3e3d5ffd5b5090506127388385613888565b8373ffffffffffffffffffffffffffffffffffffffff16636e553f6583836040518363ffffffff1660e01b8152600401612773929190614a57565b5f604051808303815f87803b15801561278a575f5ffd5b505af115801561279c573d5f5f3e3d5ffd5b505050508073ffffffffffffffffffffffffffffffffffffffff1663f1e42ccd85306040518363ffffffff1660e01b81526004016127db929190614917565b5f604051808303815f87803b1580156127f2575f5ffd5b505af1158015612804573d5f5f3e3d5ffd5b505050508073ffffffffffffffffffffffffffffffffffffffff166397125c5a8530856040518463ffffffff1660e01b81526004016128459392919061493e565b5f604051808303815f87803b15801561285c575f5ffd5b505af115801561286e573d5f5f3e3d5ffd5b505050508373ffffffffffffffffffffffffffffffffffffffff1662f714ce83306040518363ffffffff1660e01b81526004016128ac929190614a57565b5f604051808303815f87803b1580156128c3575f5ffd5b505af11580156128d5573d5f5f3e3d5ffd5b5050505050505050565b5f5f828473ffffffffffffffffffffffffffffffffffffffff166370a08231306040518263ffffffff1660e01b815260040161291b9190614602565b602060405180830381865afa158015612936573d5f5f3e3d5ffd5b505050506040513d601f19601f8201168201806040525081019061295a91906147ab565b6129649190614aab565b90505f8103612976575f9150506129c2565b835f5f6101000a81548173ffffffffffffffffffffffffffffffffffffffff021916908373ffffffffffffffffffffffffffffffffffffffff1602179055508060018190555060019150505b92915050565b5f5f8360c0015173ffffffffffffffffffffffffffffffffffffffff166395da4c316040518163ffffffff1660e01b8152600401602060405180830381865afa158015612a17573d5f5f3e3d5ffd5b505050506040513d601f19601f82011682018060405250810190612a3b91906146de565b9050612a4a845f015182613888565b5f8173ffffffffffffffffffffffffffffffffffffffff1663436045178660c00151866303bfc400305f6040518663ffffffff1660e01b8152600401612a94959493929190614af8565b610160604051808303815f875af1925050508015612ad057506040513d601f19601f82011682018060405250810190612acd9190614b73565b60015b612ade575f92505050612b17565b839b5050505050505050505050505f8103612afd575f92505050612b17565b612b1085608001518660e00151836126fa565b6001925050505b92915050565b60608173ffffffffffffffffffffffffffffffffffffffff168373ffffffffffffffffffffffffffffffffffffffff1603612bf157600167ffffffffffffffff811115612b6d57612b6c614c60565b5b604051908082528060200260200182016040528015612b9b5781602001602082028036833780820191505090505b50905081815f81518110612bb257612bb1614c8d565b5b602002602001019073ffffffffffffffffffffffffffffffffffffffff16908173ffffffffffffffffffffffffffffffffffffffff1681525050612ebe565b73c02aaa39b223fe8d0a0e5c4f27ead9083c756cc273ffffffffffffffffffffffffffffffffffffffff168373ffffffffffffffffffffffffffffffffffffffff161480612c7e575073c02aaa39b223fe8d0a0e5c4f27ead9083c756cc273ffffffffffffffffffffffffffffffffffffffff168273ffffffffffffffffffffffffffffffffffffffff16145b15612d7157600267ffffffffffffffff811115612c9e57612c9d614c60565b5b604051908082528060200260200182016040528015612ccc5781602001602082028036833780820191505090505b50905082815f81518110612ce357612ce2614c8d565b5b602002602001019073ffffffffffffffffffffffffffffffffffffffff16908173ffffffffffffffffffffffffffffffffffffffff16815250508181600181518110612d3257612d31614c8d565b5b602002602001019073ffffffffffffffffffffffffffffffffffffffff16908173ffffffffffffffffffffffffffffffffffffffff1681525050612ebe565b600367ffffffffffffffff811115612d8c57612d8b614c60565b5b604051908082528060200260200182016040528015612dba5781602001602082028036833780820191505090505b50905082815f81518110612dd157612dd0614c8d565b5b602002602001019073ffffffffffffffffffffffffffffffffffffffff16908173ffffffffffffffffffffffffffffffffffffffff168152505073c02aaa39b223fe8d0a0e5c4f27ead9083c756cc281600181518110612e3457612e33614c8d565b5b602002602001019073ffffffffffffffffffffffffffffffffffffffff16908173ffffffffffffffffffffffffffffffffffffffff16815250508181600281518110612e8357612e82614c8d565b5b602002602001019073ffffffffffffffffffffffffffffffffffffffff16908173ffffffffffffffffffffffffffffffffffffffff16815250505b92915050565b5f810315613017575f5f8473ffffffffffffffffffffffffffffffffffffffff1663a9059cbb60e01b8585604051602401612f00929190614cba565b604051602081830303815290604052907bffffffffffffffffffffffffffffffffffffffffffffffffffffffff19166020820180517bffffffffffffffffffffffffffffffffffffffffffffffffffffffff8381831617835250505050604051612f6a9190614d33565b5f604051808303815f865af19150503d805f8114612fa3576040519150601f19603f3d011682016040523d82523d5f602084013e612fa8565b606091505b5091509150818015612fd557505f81511480612fd4575080806020019051810190612fd39190614d49565b5b5b613014576040517f08c379a000000000000000000000000000000000000000000000000000000000815260040161300b90614dbe565b60405180910390fd5b50505b505050565b60608173ffffffffffffffffffffffffffffffffffffffff168373ffffffffffffffffffffffffffffffffffffffff16036130f057600167ffffffffffffffff81111561306c5761306b614c60565b5b60405190808252806020026020018201604052801561309a5781602001602082028036833780820191505090505b50905081815f815181106130b1576130b0614c8d565b5b602002602001019073ffffffffffffffffffffffffffffffffffffffff16908173ffffffffffffffffffffffffffffffffffffffff16815250506133bd565b73c02aaa39b223fe8d0a0e5c4f27ead9083c756cc273ffffffffffffffffffffffffffffffffffffffff168373ffffffffffffffffffffffffffffffffffffffff16148061317d575073c02aaa39b223fe8d0a0e5c4f27ead9083c756cc273ffffffffffffffffffffffffffffffffffffffff168273ffffffffffffffffffffffffffffffffffffffff16145b1561327057600267ffffffffffffffff81111561319d5761319c614c60565b5b6040519080825280602002602001820160405280156131cb5781602001602082028036833780820191505090505b50905081815f815181106131e2576131e1614c8d565b5b602002602001019073ffffffffffffffffffffffffffffffffffffffff16908173ffffffffffffffffffffffffffffffffffffffff1681525050828160018151811061323157613230614c8d565b5b602002602001019073ffffffffffffffffffffffffffffffffffffffff16908173ffffffffffffffffffffffffffffffffffffffff16815250506133bd565b600367ffffffffffffffff81111561328b5761328a614c60565b5b6040519080825280602002602001820160405280156132b95781602001602082028036833780820191505090505b50905081815f815181106132d0576132cf614c8d565b5b602002602001019073ffffffffffffffffffffffffffffffffffffffff16908173ffffffffffffffffffffffffffffffffffffffff168152505073c02aaa39b223fe8d0a0e5c4f27ead9083c756cc28160018151811061333357613332614c8d565b5b602002602001019073ffffffffffffffffffffffffffffffffffffffff16908173ffffffffffffffffffffffffffffffffffffffff1681525050828160028151811061338257613381614c8d565b5b602002602001019073ffffffffffffffffffffffffffffffffffffffff16908173ffffffffffffffffffffffffffffffffffffffff16815250505b92915050565b5f73ffffffffffffffffffffffffffffffffffffffff168173ffffffffffffffffffffffffffffffffffffffff1603156134d3578173ffffffffffffffffffffffffffffffffffffffff16631e83409a60e01b826040516024016134279190614602565b604051602081830303815290604052907bffffffffffffffffffffffffffffffffffffffffffffffffffffffff19166020820180517bffffffffffffffffffffffffffffffffffffffffffffffffffffffff83818316178352505050506040516134919190614d33565b5f604051808303815f865af19150503d805f81146134ca576040519150601f19603f3d011682016040523d82523d5f602084013e6134cf565b606091505b5050505b5050565b5f5f73ffffffffffffffffffffffffffffffffffffffff168273ffffffffffffffffffffffffffffffffffffffff16148061352857505f8273ffffffffffffffffffffffffffffffffffffffff163b145b15613535575f905061363e565b5f5f8373ffffffffffffffffffffffffffffffffffffffff16638da5cb5b60e01b604051602401604051602081830303815290604052907bffffffffffffffffffffffffffffffffffffffffffffffffffffffff19166020820180517bffffffffffffffffffffffffffffffffffffffffffffffffffffffff83818316178352505050506040516135c69190614d33565b5f60405180830381855afa9150503d805f81146135fe576040519150601f19603f3d011682016040523d82523d5f602084013e613603565b606091505b5091509150811580613616575060208151105b15613625575f9250505061363e565b808060200190518101906136399190614e17565b925050505b919050565b5f5f600190505b61018081116136a9578273ffffffffffffffffffffffffffffffffffffffff1661367485836139f6565b73ffffffffffffffffffffffffffffffffffffffff160361369857809150506136ae565b806136a290614e42565b905061364a565b505f90505b92915050565b5f5f601883116136c55760016136d3565b6018836136d29190614aab565b5b90505f6018846136e39190614e89565b90506101808111156136f55761018090505b5f8290505b81811161373b575f61370c88836139f6565b90506137188188613bd6565b156137295780945050505050613742565b508061373490614e42565b90506136fa565b505f925050505b9392505050565b5f5f600190505b6101808111613791575f61376485836139f6565b90506137708185613bd6565b1561377f578092505050613796565b508061378a90614e42565b9050613750565b505f90505b92915050565b5f5f601883116137ad5760016137bb565b6018836137ba9190614aab565b5b90505f6018846137cb9190614e89565b90506101808111156137dd5761018090505b5f8290505b818111613824575f6137f489836139f6565b9050613801818989613eb2565b15613812578094505050505061382b565b508061381d90614e42565b90506137e2565b505f925050505b949350505050565b5f5f600190505b610180811161387c575f61384e86836139f6565b905061385b818686613eb2565b1561386a578092505050613881565b508061387590614e42565b905061383a565b505f90505b9392505050565b5f5f8373ffffffffffffffffffffffffffffffffffffffff1663095ea7b360e01b847fffffffffffffffffffffffffffffffffffffffffffffffffffffffffffffffff6040516024016138dc929190614cba565b604051602081830303815290604052907bffffffffffffffffffffffffffffffffffffffffffffffffffffffff19166020820180517bffffffffffffffffffffffffffffffffffffffffffffffffffffffff83818316178352505050506040516139469190614d33565b5f604051808303815f865af19150503d805f811461397f576040519150601f19603f3d011682016040523d82523d5f602084013e613984565b606091505b50915091508180156139b157505f815114806139b05750808060200190518101906139af9190614d49565b5b5b6139f0576040517f08c379a00000000000000000000000000000000000000000000000000000000081526004016139e790614f06565b60405180910390fd5b50505050565b5f5f5f8303613a3f5760d660f81b609460f81b85608060f81b604051602001613a229493929190614fb4565b604051602081830303815290604052805190602001209050613bca565b607f8311613a865760d660f81b609460f81b858560f81b604051602001613a699493929190614fb4565b604051602081830303815290604052805190602001209050613bc9565b60ff8311613ad35760d760f81b609460f81b85608160f81b8660f81b604051602001613ab6959493929190615001565b604051602081830303815290604052805190602001209050613bc8565b61ffff8311613b2a5760d860f81b609460f81b85608260f81b600887901c60f81b8760f81b604051602001613b0d9695949392919061505f565b604051602081830303815290604052805190602001209050613bc7565b62ffffff8311613b8b5760d960f81b609460f81b85608360f81b601087901c60f81b600888901c60f81b8860f81b604051602001613b6e97969594939291906150ce565b604051602081830303815290604052805190602001209050613bc6565b6040517f08c379a0000000000000000000000000000000000000000000000000000000008152600401613bbd90615198565b60405180910390fd5b5b5b5b5b805f1c91505092915050565b5f5f73ffffffffffffffffffffffffffffffffffffffff168373ffffffffffffffffffffffffffffffffffffffff161480613c2757505f8373ffffffffffffffffffffffffffffffffffffffff163b145b15613c34575f9050613eac565b5f5f8473ffffffffffffffffffffffffffffffffffffffff16633e1875ed60e01b604051602401604051602081830303815290604052907bffffffffffffffffffffffffffffffffffffffffffffffffffffffff19166020820180517bffffffffffffffffffffffffffffffffffffffffffffffffffffffff8381831617835250505050604051613cc59190614d33565b5f60405180830381855afa9150503d805f8114613cfd576040519150601f19603f3d011682016040523d82523d5f602084013e613d02565b606091505b50915091505f5f8673ffffffffffffffffffffffffffffffffffffffff166395da4c3160e01b604051602401604051602081830303815290604052907bffffffffffffffffffffffffffffffffffffffffffffffffffffffff19166020820180517bffffffffffffffffffffffffffffffffffffffffffffffffffffffff8381831617835250505050604051613d989190614d33565b5f60405180830381855afa9150503d805f8114613dd0576040519150601f19603f3d011682016040523d82523d5f602084013e613dd5565b606091505b5091509150831580613de5575081155b80613df1575060208351105b80613dfd575060208151105b15613e0e575f945050505050613eac565b5f83806020019051810190613e239190614e17565b90505f82806020019051810190613e3a9190614e17565b90508773ffffffffffffffffffffffffffffffffffffffff168273ffffffffffffffffffffffffffffffffffffffff16148015613ea357505f73ffffffffffffffffffffffffffffffffffffffff168173ffffffffffffffffffffffffffffffffffffffff1614155b96505050505050505b92915050565b5f5f73ffffffffffffffffffffffffffffffffffffffff168473ffffffffffffffffffffffffffffffffffffffff161480613f0357505f8473ffffffffffffffffffffffffffffffffffffffff163b145b15613f10575f905061443f565b5f5f8573ffffffffffffffffffffffffffffffffffffffff1663ffe066a060e01b604051602401604051602081830303815290604052907bffffffffffffffffffffffffffffffffffffffffffffffffffffffff19166020820180517bffffffffffffffffffffffffffffffffffffffffffffffffffffffff8381831617835250505050604051613fa19190614d33565b5f60405180830381855afa9150503d805f8114613fd9576040519150601f19603f3d011682016040523d82523d5f602084013e613fde565b606091505b50915091505f5f8773ffffffffffffffffffffffffffffffffffffffff1663654e6d7760e01b604051602401604051602081830303815290604052907bffffffffffffffffffffffffffffffffffffffffffffffffffffffff19166020820180517bffffffffffffffffffffffffffffffffffffffffffffffffffffffff83818316178352505050506040516140749190614d33565b5f60405180830381855afa9150503d805f81146140ac576040519150601f19603f3d011682016040523d82523d5f602084013e6140b1565b606091505b50915091505f8873ffffffffffffffffffffffffffffffffffffffff1663b1cd06e660e01b896040516024016140e791906146b1565b604051602081830303815290604052907bffffffffffffffffffffffffffffffffffffffffffffffffffffffff19166020820180517bffffffffffffffffffffffffffffffffffffffffffffffffffffffff83818316178352505050506040516141519190614d33565b5f60405180830381855afa9150503d805f8114614189576040519150601f19603f3d011682016040523d82523d5f602084013e61418e565b606091505b505090505f5f8a73ffffffffffffffffffffffffffffffffffffffff1663ba0909dd60e01b604051602401604051602081830303815290604052907bffffffffffffffffffffffffffffffffffffffffffffffffffffffff19166020820180517bffffffffffffffffffffffffffffffffffffffffffffffffffffffff83818316178352505050506040516142239190614d33565b5f60405180830381855afa9150503d805f811461425b576040519150601f19603f3d011682016040523d82523d5f602084013e614260565b606091505b5091509150861580614270575084155b80614279575082155b80614282575081155b8061428e575060208651105b8061429a575060208451105b806142a6575060208151105b156142ba575f97505050505050505061443f565b5f868060200190518101906142cf9190614e17565b90505f858060200190518101906142e69190614e17565b90505f838060200190518101906142fd9190614e17565b90505f73ffffffffffffffffffffffffffffffffffffffff168373ffffffffffffffffffffffffffffffffffffffff16148061436457505f73ffffffffffffffffffffffffffffffffffffffff168273ffffffffffffffffffffffffffffffffffffffff16145b8061439a57505f73ffffffffffffffffffffffffffffffffffffffff168173ffffffffffffffffffffffffffffffffffffffff16145b156143b1575f9a505050505050505050505061443f565b5f73ffffffffffffffffffffffffffffffffffffffff168c73ffffffffffffffffffffffffffffffffffffffff161415801561441957508b73ffffffffffffffffffffffffffffffffffffffff168273ffffffffffffffffffffffffffffffffffffffff1614155b15614430575f9a505050505050505050505061443f565b60019a50505050505050505050505b9392505050565b604051806101a001604052805f73ffffffffffffffffffffffffffffffffffffffff1681526020015f73ffffffffffffffffffffffffffffffffffffffff1681526020015f81526020015f73ffffffffffffffffffffffffffffffffffffffff1681526020015f73ffffffffffffffffffffffffffffffffffffffff1681526020015f73ffffffffffffffffffffffffffffffffffffffff1681526020015f73ffffffffffffffffffffffffffffffffffffffff1681526020015f73ffffffffffffffffffffffffffffffffffffffff1681526020015f73ffffffffffffffffffffffffffffffffffffffff1681526020015f73ffffffffffffffffffffffffffffffffffffffff1681526020015f73ffffffffffffffffffffffffffffffffffffffff1681526020015f73ffffffffffffffffffffffffffffffffffffffff1681526020015f73ffffffffffffffffffffffffffffffffffffffff1681525090565b61139d806151b783390190565b61070d8061655483390190565b5f73ffffffffffffffffffffffffffffffffffffffff82169050919050565b5f6145ec826145c3565b9050919050565b6145fc816145e2565b82525050565b5f6020820190506146155f8301846145f3565b92915050565b5f5ffd5b614628816145e2565b8114614632575f5ffd5b50565b5f813590506146438161461f565b92915050565b5f5f5f606084860312156146605761465f61461b565b5b5f61466d86828701614635565b935050602061467e86828701614635565b925050604061468f86828701614635565b9150509250925092565b5f819050919050565b6146ab81614699565b82525050565b5f6020820190506146c45f8301846146a2565b92915050565b5f815190506146d88161461f565b92915050565b5f602082840312156146f3576146f261461b565b5b5f614700848285016146ca565b91505092915050565b5f82825260208201905092915050565b7f6e6f742d6465706c6f79657200000000000000000000000000000000000000005f82015250565b5f61474d600c83614709565b915061475882614719565b602082019050919050565b5f6020820190508181035f83015261477a81614741565b9050919050565b61478a81614699565b8114614794575f5ffd5b50565b5f815190506147a581614781565b92915050565b5f602082840312156147c0576147bf61461b565b5b5f6147cd84828501614797565b91505092915050565b5f81519050919050565b5f82825260208201905092915050565b5f819050602082019050919050565b614808816145e2565b82525050565b5f61481983836147ff565b60208301905092915050565b5f602082019050919050565b5f61483b826147d6565b61484581856147e0565b9350614850836147f0565b805f5b83811015614880578151614867888261480e565b975061487283614825565b925050600181019050614853565b5085935050505092915050565b5f610100820190506148a15f83018b6145f3565b6148ae602083018a6145f3565b6148bb60408301896145f3565b6148c860608301886146a2565b81810360808301526148da8187614831565b905081810360a08301526148ee8186614831565b90506148fd60c08301856145f3565b61490a60e08301846146a2565b9998505050505050505050565b5f60408201905061492a5f8301856145f3565b61493760208301846145f3565b9392505050565b5f6060820190506149515f8301866145f3565b61495e60208301856145f3565b61496b60408301846146a2565b949350505050565b5f6060820190506149865f8301866145f3565b61499360208301856146a2565b6149a060408301846145f3565b949350505050565b5f819050919050565b5f819050919050565b5f6149d46149cf6149ca846149a8565b6149b1565b614699565b9050919050565b6149e4816149ba565b82525050565b5f60c0820190506149fd5f8301896146a2565b8181036020830152614a0f8188614831565b90508181036040830152614a238187614831565b9050614a3260608301866149db565b614a3f60808301856145f3565b614a4c60a08301846146a2565b979650505050505050565b5f604082019050614a6a5f8301856146a2565b614a7760208301846145f3565b9392505050565b7f4e487b71000000000000000000000000000000000000000000000000000000005f52601160045260245ffd5b5f614ab582614699565b9150614ac083614699565b9250828203905081811115614ad857614ad7614a7e565b5b92915050565b5f8115159050919050565b614af281614ade565b82525050565b5f60a082019050614b0b5f8301886145f3565b614b1860208301876146a2565b614b2560408301866146a2565b614b3260608301856145f3565b614b3f6080830184614ae9565b9695505050505050565b614b5281614ade565b8114614b5c575f5ffd5b50565b5f81519050614b6d81614b49565b92915050565b5f5f5f5f5f5f5f5f5f5f5f6101608c8e031215614b9357614b9261461b565b5b5f614ba08e828f016146ca565b9b50506020614bb18e828f016146ca565b9a50506040614bc28e828f01614797565b9950506060614bd38e828f01614797565b9850506080614be48e828f01614797565b97505060a0614bf58e828f01614b5f565b96505060c0614c068e828f01614797565b95505060e0614c178e828f01614797565b945050610100614c298e828f01614797565b935050610120614c3b8e828f01614797565b925050610140614c4d8e828f01614797565b9150509295989b509295989b9093969950565b7f4e487b71000000000000000000000000000000000000000000000000000000005f52604160045260245ffd5b7f4e487b71000000000000000000000000000000000000000000000000000000005f52603260045260245ffd5b5f604082019050614ccd5f8301856145f3565b614cda60208301846146a2565b9392505050565b5f81519050919050565b5f81905092915050565b8281835e5f83830152505050565b5f614d0d82614ce1565b614d178185614ceb565b9350614d27818560208601614cf5565b80840191505092915050565b5f614d3e8284614d03565b915081905092915050565b5f60208284031215614d5e57614d5d61461b565b5b5f614d6b84828501614b5f565b91505092915050565b7f7472616e736665720000000000000000000000000000000000000000000000005f82015250565b5f614da8600883614709565b9150614db382614d74565b602082019050919050565b5f6020820190508181035f830152614dd581614d9c565b9050919050565b5f614de6826145c3565b9050919050565b614df681614ddc565b8114614e00575f5ffd5b50565b5f81519050614e1181614ded565b92915050565b5f60208284031215614e2c57614e2b61461b565b5b5f614e3984828501614e03565b91505092915050565b5f614e4c82614699565b91507fffffffffffffffffffffffffffffffffffffffffffffffffffffffffffffffff8203614e7e57614e7d614a7e565b5b600182019050919050565b5f614e9382614699565b9150614e9e83614699565b9250828201905080821115614eb657614eb5614a7e565b5b92915050565b7f617070726f7665000000000000000000000000000000000000000000000000005f82015250565b5f614ef0600783614709565b9150614efb82614ebc565b602082019050919050565b5f6020820190508181035f830152614f1d81614ee4565b9050919050565b5f7fff0000000000000000000000000000000000000000000000000000000000000082169050919050565b5f819050919050565b614f69614f6482614f24565b614f4f565b82525050565b5f8160601b9050919050565b5f614f8582614f6f565b9050919050565b5f614f9682614f7b565b9050919050565b614fae614fa9826145e2565b614f8c565b82525050565b5f614fbf8287614f58565b600182019150614fcf8286614f58565b600182019150614fdf8285614f9d565b601482019150614fef8284614f58565b60018201915081905095945050505050565b5f61500c8288614f58565b60018201915061501c8287614f58565b60018201915061502c8286614f9d565b60148201915061503c8285614f58565b60018201915061504c8284614f58565b6001820191508190509695505050505050565b5f61506a8289614f58565b60018201915061507a8288614f58565b60018201915061508a8287614f9d565b60148201915061509a8286614f58565b6001820191506150aa8285614f58565b6001820191506150ba8284614f58565b600182019150819050979650505050505050565b5f6150d9828a614f58565b6001820191506150e98289614f58565b6001820191506150f98288614f9d565b6014820191506151098287614f58565b6001820191506151198286614f58565b6001820191506151298285614f58565b6001820191506151398284614f58565b60018201915081905098975050505050505050565b7f6e6f6e63652d746f6f2d6c6172676500000000000000000000000000000000005f82015250565b5f615182600f83614709565b915061518d8261514e565b602082019050919050565b5f6020820190508181035f8301526151af81615176565b905091905056fe60a060405234801561000f575f5ffd5b5060405161139d38038061139d833981810160405281019061003191906100c9565b8073ffffffffffffffffffffffffffffffffffffffff1660808173ffffffffffffffffffffffffffffffffffffffff1681525050506100f4565b5f5ffd5b5f73ffffffffffffffffffffffffffffffffffffffff82169050919050565b5f6100988261006f565b9050919050565b6100a88161008e565b81146100b2575f5ffd5b50565b5f815190506100c38161009f565b92915050565b5f602082840312156100de576100dd61006b565b5b5f6100eb848285016100b5565b91505092915050565b60805161127e61011f5f395f818160d60152818160fb01528181610519015261062d015261127e5ff3fe608060405234801561000f575f5ffd5b506004361061004a575f3560e01c80638da5cb5b1461004e5780639b8341801461006c578063b8dc491b1461009c578063f7bd5a43146100b8575b5f5ffd5b6100566100d4565b6040516100639190610a2a565b60405180910390f35b61008660048036038101906100819190610b09565b6100f8565b6040516100939190610c09565b60405180910390f35b6100b660048036038101906100b19190610c22565b610517565b005b6100d260048036038101906100cd9190610c60565b61062b565b005b7f000000000000000000000000000000000000000000000000000000000000000081565b5f7f000000000000000000000000000000000000000000000000000000000000000073ffffffffffffffffffffffffffffffffffffffff163373ffffffffffffffffffffffffffffffffffffffff1614610187576040517f08c379a000000000000000000000000000000000000000000000000000000000815260040161017e90610d0a565b60405180910390fd5b6101fd8b73ffffffffffffffffffffffffffffffffffffffff16635fcbd2856040518163ffffffff1660e01b8152600401602060405180830381865afa1580156101d3573d5f5f3e3d5ffd5b505050506040513d601f19601f820116820180604052508101906101f79190610d3c565b8c610725565b8a73ffffffffffffffffffffffffffffffffffffffff16621701a889898989895f30426040518963ffffffff1660e01b8152600401610243989796959493929190610e65565b5f604051808303815f87803b15801561025a575f5ffd5b505af115801561026c573d5f5f3e3d5ffd5b505050505f8b73ffffffffffffffffffffffffffffffffffffffff166370a08231306040518263ffffffff1660e01b81526004016102aa9190610a2a565b602060405180830381865afa1580156102c5573d5f5f3e3d5ffd5b505050506040513d601f19601f820116820180604052508101906102e99190610eea565b90505f8b73ffffffffffffffffffffffffffffffffffffffff166395da4c316040518163ffffffff1660e01b8152600401602060405180830381865afa158015610335573d5f5f3e3d5ffd5b505050506040513d601f19601f820116820180604052508101906103599190610d3c565b90506103658d82610725565b8073ffffffffffffffffffffffffffffffffffffffff1663436045178d8487305f6040518663ffffffff1660e01b81526004016103a6959493929190610f2f565b610160604051808303815f875af11580156103c3573d5f5f3e3d5ffd5b505050506040513d601f19601f820116820180604052508101906103e79190610faa565b90919293949596979899509091929394959697985090919293949596975090919293949596509091929394955090919293945090919293509091509050508093505061049f8c73ffffffffffffffffffffffffffffffffffffffff1663a8694e576040518163ffffffff1660e01b8152600401602060405180830381865afa158015610475573d5f5f3e3d5ffd5b505050506040513d601f19601f820116820180604052508101906104999190610d3c565b8c610725565b8a73ffffffffffffffffffffffffffffffffffffffff16636e553f6584876040518363ffffffff1660e01b81526004016104da929190611097565b5f604051808303815f87803b1580156104f1575f5ffd5b505af1158015610503573d5f5f3e3d5ffd5b5050505050509a9950505050505050505050565b7f000000000000000000000000000000000000000000000000000000000000000073ffffffffffffffffffffffffffffffffffffffff163373ffffffffffffffffffffffffffffffffffffffff16146105a5576040517f08c379a000000000000000000000000000000000000000000000000000000000815260040161059c90610d0a565b60405180910390fd5b61062782828473ffffffffffffffffffffffffffffffffffffffff166370a08231306040518263ffffffff1660e01b81526004016105e39190610a2a565b602060405180830381865afa1580156105fe573d5f5f3e3d5ffd5b505050506040513d601f19601f820116820180604052508101906106229190610eea565b610893565b5050565b7f000000000000000000000000000000000000000000000000000000000000000073ffffffffffffffffffffffffffffffffffffffff163373ffffffffffffffffffffffffffffffffffffffff16146106b9576040517f08c379a00000000000000000000000000000000000000000000000000000000081526004016106b090610d0a565b60405180910390fd5b8273ffffffffffffffffffffffffffffffffffffffff1662f714ce83836040518363ffffffff1660e01b81526004016106f3929190611097565b5f604051808303815f87803b15801561070a575f5ffd5b505af115801561071c573d5f5f3e3d5ffd5b50505050505050565b5f5f8373ffffffffffffffffffffffffffffffffffffffff1663095ea7b360e01b847fffffffffffffffffffffffffffffffffffffffffffffffffffffffffffffffff6040516024016107799291906110be565b604051602081830303815290604052907bffffffffffffffffffffffffffffffffffffffffffffffffffffffff19166020820180517bffffffffffffffffffffffffffffffffffffffffffffffffffffffff83818316178352505050506040516107e39190611137565b5f604051808303815f865af19150503d805f811461081c576040519150601f19603f3d011682016040523d82523d5f602084013e610821565b606091505b509150915081801561084e57505f8151148061084d57508080602001905181019061084c919061114d565b5b5b61088d576040517f08c379a0000000000000000000000000000000000000000000000000000000008152600401610884906111c2565b60405180910390fd5b50505050565b5f8103156109e6575f5f8473ffffffffffffffffffffffffffffffffffffffff1663a9059cbb60e01b85856040516024016108cf9291906110be565b604051602081830303815290604052907bffffffffffffffffffffffffffffffffffffffffffffffffffffffff19166020820180517bffffffffffffffffffffffffffffffffffffffffffffffffffffffff83818316178352505050506040516109399190611137565b5f604051808303815f865af19150503d805f8114610972576040519150601f19603f3d011682016040523d82523d5f602084013e610977565b606091505b50915091508180156109a457505f815114806109a35750808060200190518101906109a2919061114d565b5b5b6109e3576040517f08c379a00000000000000000000000000000000000000000000000000000000081526004016109da9061122a565b60405180910390fd5b50505b505050565b5f73ffffffffffffffffffffffffffffffffffffffff82169050919050565b5f610a14826109eb565b9050919050565b610a2481610a0a565b82525050565b5f602082019050610a3d5f830184610a1b565b92915050565b5f5ffd5b5f5ffd5b610a5481610a0a565b8114610a5e575f5ffd5b50565b5f81359050610a6f81610a4b565b92915050565b5f819050919050565b610a8781610a75565b8114610a91575f5ffd5b50565b5f81359050610aa281610a7e565b92915050565b5f5ffd5b5f5ffd5b5f5ffd5b5f5f83601f840112610ac957610ac8610aa8565b5b8235905067ffffffffffffffff811115610ae657610ae5610aac565b5b602083019150836020820283011115610b0257610b01610ab0565b5b9250929050565b5f5f5f5f5f5f5f5f5f5f6101008b8d031215610b2857610b27610a43565b5b5f610b358d828e01610a61565b9a50506020610b468d828e01610a61565b9950506040610b578d828e01610a61565b9850506060610b688d828e01610a94565b97505060808b013567ffffffffffffffff811115610b8957610b88610a47565b5b610b958d828e01610ab4565b965096505060a08b013567ffffffffffffffff811115610bb857610bb7610a47565b5b610bc48d828e01610ab4565b945094505060c0610bd78d828e01610a61565b92505060e0610be88d828e01610a94565b9150509295989b9194979a5092959850565b610c0381610a75565b82525050565b5f602082019050610c1c5f830184610bfa565b92915050565b5f5f60408385031215610c3857610c37610a43565b5b5f610c4585828601610a61565b9250506020610c5685828601610a61565b9150509250929050565b5f5f5f60608486031215610c7757610c76610a43565b5b5f610c8486828701610a61565b9350506020610c9586828701610a94565b9250506040610ca686828701610a61565b9150509250925092565b5f82825260208201905092915050565b7f6e6f742d6f776e657200000000000000000000000000000000000000000000005f82015250565b5f610cf4600983610cb0565b9150610cff82610cc0565b602082019050919050565b5f6020820190508181035f830152610d2181610ce8565b9050919050565b5f81519050610d3681610a4b565b92915050565b5f60208284031215610d5157610d50610a43565b5b5f610d5e84828501610d28565b91505092915050565b5f82825260208201905092915050565b5f819050919050565b610d8981610a0a565b82525050565b5f610d9a8383610d80565b60208301905092915050565b5f610db46020840184610a61565b905092915050565b5f602082019050919050565b5f610dd38385610d67565b9350610dde82610d77565b805f5b85811015610e1657610df38284610da6565b610dfd8882610d8f565b9750610e0883610dbc565b925050600181019050610de1565b5085925050509392505050565b5f819050919050565b5f819050919050565b5f610e4f610e4a610e4584610e23565b610e2c565b610a75565b9050919050565b610e5f81610e35565b82525050565b5f60c082019050610e785f83018b610bfa565b8181036020830152610e8b81898b610dc8565b90508181036040830152610ea0818789610dc8565b9050610eaf6060830186610e56565b610ebc6080830185610a1b565b610ec960a0830184610bfa565b9998505050505050505050565b5f81519050610ee481610a7e565b92915050565b5f60208284031215610eff57610efe610a43565b5b5f610f0c84828501610ed6565b91505092915050565b5f8115159050919050565b610f2981610f15565b82525050565b5f60a082019050610f425f830188610a1b565b610f4f6020830187610bfa565b610f5c6040830186610bfa565b610f696060830185610a1b565b610f766080830184610f20565b9695505050505050565b610f8981610f15565b8114610f93575f5ffd5b50565b5f81519050610fa481610f80565b92915050565b5f5f5f5f5f5f5f5f5f5f5f6101608c8e031215610fca57610fc9610a43565b5b5f610fd78e828f01610d28565b9b50506020610fe88e828f01610d28565b9a50506040610ff98e828f01610ed6565b995050606061100a8e828f01610ed6565b985050608061101b8e828f01610ed6565b97505060a061102c8e828f01610f96565b96505060c061103d8e828f01610ed6565b95505060e061104e8e828f01610ed6565b9450506101006110608e828f01610ed6565b9350506101206110728e828f01610ed6565b9250506101406110848e828f01610ed6565b9150509295989b509295989b9093969950565b5f6040820190506110aa5f830185610bfa565b6110b76020830184610a1b565b9392505050565b5f6040820190506110d15f830185610a1b565b6110de6020830184610bfa565b9392505050565b5f81519050919050565b5f81905092915050565b8281835e5f83830152505050565b5f611111826110e5565b61111b81856110ef565b935061112b8185602086016110f9565b80840191505092915050565b5f6111428284611107565b915081905092915050565b5f6020828403121561116257611161610a43565b5b5f61116f84828501610f96565b91505092915050565b7f617070726f7665000000000000000000000000000000000000000000000000005f82015250565b5f6111ac600783610cb0565b91506111b782611178565b602082019050919050565b5f6020820190508181035f8301526111d9816111a0565b9050919050565b7f7472616e736665720000000000000000000000000000000000000000000000005f82015250565b5f611214600883610cb0565b915061121f826111e0565b602082019050919050565b5f6020820190508181035f83015261124181611208565b905091905056fea26469706673582212206da45f7329ce71dc98c41a39681d43ba656f03ec39ab8be36745d25d1a76827864736f6c634300081e003360a060405234801561000f575f5ffd5b5060405161070d38038061070d833981810160405281019061003191906100c9565b8073ffffffffffffffffffffffffffffffffffffffff1660808173ffffffffffffffffffffffffffffffffffffffff1681525050506100f4565b5f5ffd5b5f73ffffffffffffffffffffffffffffffffffffffff82169050919050565b5f6100988261006f565b9050919050565b6100a88161008e565b81146100b2575f5ffd5b50565b5f815190506100c38161009f565b92915050565b5f602082840312156100de576100dd61006b565b5b5f6100eb848285016100b5565b91505092915050565b6080516105f56101185f395f8181609b0152818160bf015261020c01526105f55ff3fe608060405234801561000f575f5ffd5b506004361061003f575f3560e01c80638da5cb5b1461004357806397125c5a14610061578063f1e42ccd1461007d575b5f5ffd5b61004b610099565b6040516100589190610341565b60405180910390f35b61007b600480360381019061007691906103bb565b6100bd565b005b6100976004803603810190610092919061040b565b61020a565b005b7f000000000000000000000000000000000000000000000000000000000000000081565b7f000000000000000000000000000000000000000000000000000000000000000073ffffffffffffffffffffffffffffffffffffffff163373ffffffffffffffffffffffffffffffffffffffff161461014b576040517f08c379a0000000000000000000000000000000000000000000000000000000008152600401610142906104a3565b60405180910390fd5b8273ffffffffffffffffffffffffffffffffffffffff1663a9059cbb83836040518363ffffffff1660e01b81526004016101869291906104d0565b6020604051808303815f875af11580156101a2573d5f5f3e3d5ffd5b505050506040513d601f19601f820116820180604052508101906101c6919061052c565b610205576040517f08c379a00000000000000000000000000000000000000000000000000000000081526004016101fc906105a1565b60405180910390fd5b505050565b7f000000000000000000000000000000000000000000000000000000000000000073ffffffffffffffffffffffffffffffffffffffff163373ffffffffffffffffffffffffffffffffffffffff1614610298576040517f08c379a000000000000000000000000000000000000000000000000000000000815260040161028f906104a3565b60405180910390fd5b8173ffffffffffffffffffffffffffffffffffffffff1663ef5cfb8c826040518263ffffffff1660e01b81526004016102d19190610341565b5f604051808303815f87803b1580156102e8575f5ffd5b505af11580156102fa573d5f5f3e3d5ffd5b505050505050565b5f73ffffffffffffffffffffffffffffffffffffffff82169050919050565b5f61032b82610302565b9050919050565b61033b81610321565b82525050565b5f6020820190506103545f830184610332565b92915050565b5f5ffd5b61036781610321565b8114610371575f5ffd5b50565b5f813590506103828161035e565b92915050565b5f819050919050565b61039a81610388565b81146103a4575f5ffd5b50565b5f813590506103b581610391565b92915050565b5f5f5f606084860312156103d2576103d161035a565b5b5f6103df86828701610374565b93505060206103f086828701610374565b9250506040610401868287016103a7565b9150509250925092565b5f5f604083850312156104215761042061035a565b5b5f61042e85828601610374565b925050602061043f85828601610374565b9150509250929050565b5f82825260208201905092915050565b7f6e6f742d6f776e657200000000000000000000000000000000000000000000005f82015250565b5f61048d600983610449565b915061049882610459565b602082019050919050565b5f6020820190508181035f8301526104ba81610481565b9050919050565b6104ca81610388565b82525050565b5f6040820190506104e35f830185610332565b6104f060208301846104c1565b9392505050565b5f8115159050919050565b61050b816104f7565b8114610515575f5ffd5b50565b5f8151905061052681610502565b92915050565b5f602082840312156105415761054061035a565b5b5f61054e84828501610518565b91505092915050565b7f62696c6c2d7472616e73666572000000000000000000000000000000000000005f82015250565b5f61058b600d83610449565b915061059682610557565b602082019050919050565b5f6020820190508181035f8301526105b88161057f565b905091905056fea2646970667358221220944dad2be5221b2308a336b2a4d0cb0113ad23fd922a631d0540af9037bcfc4864736f6c634300081e0033a26469706673582212204a8bc30c61a3a6d75230ebea765c972a7ad3c5765a3ab4ba1a86a14c5601827264736f6c634300081e0033","linkReferences":{}},"methodIdentifiers":{"configure(address,address,address)":"55d28f20","configuredBill()":"55a26f34","configuredSousChef()":"2d2f771d","configuredStrategy()":"90f0a141","deployer()":"d5f39488","executeOnOpportunity()":"3c2448ed","profitAmount()":"5ff972cc","profitToken()":"49343624"},"id":0}