{"abi":[{"type":"constructor","inputs":[{"name":"_owner","type":"address","internalType":"address"}],"stateMutability":"nonpayable"},{"type":"function","name":"claimRewards","inputs":[{"name":"bill","type":"address","internalType":"address"},{"name":"rewardTo","type":"address","internalType":"address"}],"outputs":[],"stateMutability":"nonpayable"},{"type":"function","name":"owner","inputs":[],"outputs":[{"name":"","type":"address","internalType":"address"}],"stateMutability":"view"},{"type":"function","name":"transferBill","inputs":[{"name":"bill","type":"address","internalType":"address"},{"name":"to","type":"address","internalType":"address"},{"name":"amount","type":"uint256","internalType":"uint256"}],"outputs":[],"stateMutability":"nonpayable"}],"bytecode":{"object":"0x60a060405234801561000f575f5ffd5b5060405161070d38038061070d833981810160405281019061003191906100c9565b8073ffffffffffffffffffffffffffffffffffffffff1660808173ffffffffffffffffffffffffffffffffffffffff1681525050506100f4565b5f5ffd5b5f73ffffffffffffffffffffffffffffffffffffffff82169050919050565b5f6100988261006f565b9050919050565b6100a88161008e565b81146100b2575f5ffd5b50565b5f815190506100c38161009f565b92915050565b5f602082840312156100de576100dd61006b565b5b5f6100eb848285016100b5565b91505092915050565b6080516105f56101185f395f8181609b0152818160bf015261020c01526105f55ff3fe608060405234801561000f575f5ffd5b506004361061003f575f3560e01c80638da5cb5b1461004357806397125c5a14610061578063f1e42ccd1461007d575b5f5ffd5b61004b610099565b6040516100589190610341565b60405180910390f35b61007b600480360381019061007691906103bb565b6100bd565b005b6100976004803603810190610092919061040b565b61020a565b005b7f000000000000000000000000000000000000000000000000000000000000000081565b7f000000000000000000000000000000000000000000000000000000000000000073ffffffffffffffffffffffffffffffffffffffff163373ffffffffffffffffffffffffffffffffffffffff161461014b576040517f08c379a0000000000000000000000000000000000000000000000000000000008152600401610142906104a3565b60405180910390fd5b8273ffffffffffffffffffffffffffffffffffffffff1663a9059cbb83836040518363ffffffff1660e01b81526004016101869291906104d0565b6020604051808303815f875af11580156101a2573d5f5f3e3d5ffd5b505050506040513d601f19601f820116820180604052508101906101c6919061052c565b610205576040517f08c379a00000000000000000000000000000000000000000000000000000000081526004016101fc906105a1565b60405180910390fd5b505050565b7f000000000000000000000000000000000000000000000000000000000000000073ffffffffffffffffffffffffffffffffffffffff163373ffffffffffffffffffffffffffffffffffffffff1614610298576040517f08c379a000000000000000000000000000000000000000000000000000000000815260040161028f906104a3565b60405180910390fd5b8173ffffffffffffffffffffffffffffffffffffffff1663ef5cfb8c826040518263ffffffff1660e01b81526004016102d19190610341565b5f604051808303815f87803b1580156102e8575f5ffd5b505af11580156102fa573d5f5f3e3d5ffd5b505050505050565b5f73ffffffffffffffffffffffffffffffffffffffff82169050919050565b5f61032b82610302565b9050919050565b61033b81610321565b82525050565b5f6020820190506103545f830184610332565b92915050565b5f5ffd5b61036781610321565b8114610371575f5ffd5b50565b5f813590506103828161035e565b92915050565b5f819050919050565b61039a81610388565b81146103a4575f5ffd5b50565b5f813590506103b581610391565b92915050565b5f5f5f606084860312156103d2576103d161035a565b5b5f6103df86828701610374565b93505060206103f086828701610374565b9250506040610401868287016103a7565b9150509250925092565b5f5f604083850312156104215761042061035a565b5b5f61042e85828601610374565b925050602061043f85828601610374565b9150509250929050565b5f82825260208201905092915050565b7f6e6f742d6f776e657200000000000000000000000000000000000000000000005f82015250565b5f61048d600983610449565b915061049882610459565b602082019050919050565b5f6020820190508181035f8301526104ba81610481565b9050919050565b6104ca81610388565b82525050565b5f6040820190506104e35f830185610332565b6104f060208301846104c1565b9392505050565b5f8115159050919050565b61050b816104f7565b8114610515575f5ffd5b50565b5f8151905061052681610502565b92915050565b5f602082840312156105415761054061035a565b5b5f61054e84828501610518565b91505092915050565b7f62696c6c2d7472616e73666572000000000000000000000000000000000000005f82015250565b5f61058b600d83610449565b915061059682610557565b602082019050919050565b5f6020820190508181035f8301526105b88161057f565b905091905056fea2646970667358221220944dad2be5221b2308a336b2a4d0cb0113ad23fd922a631d0540af9037bcfc4864736f6c634300081e0033","linkReferences":{}},"methodIdentifiers":{"claimRewards(address,address)":"f1e42ccd","owner()":"8da5cb5b","transferBill(address,address,uint256)":"97125c5a"},"id":0}