{"abi":[{"type":"constructor","inputs":[],"stateMutability":"nonpayable"},{"type":"function","name":"executeOnOpportunity","inputs":[],"outputs":[],"stateMutability":"nonpayable"},{"type":"function","name":"executeOperation","inputs":[{"name":"asset","type":"address","internalType":"address"},{"name":"amount","type":"uint256","internalType":"uint256"},{"name":"premium","type":"uint256","internalType":"uint256"},{"name":"initiator","type":"address","internalType":"address"},{"name":"","type":"bytes","internalType":"bytes"}],"outputs":[{"name":"","type":"bool","internalType":"bool"}],"stateMutability":"nonpayable"},{"type":"function","name":"profitAmount","inputs":[],"outputs":[{"name":"","type":"uint256","internalType":"uint256"}],"stateMutability":"view"},{"type":"function","name":"profitToken","inputs":[],"outputs":[{"name":"","type":"address","internalType":"address"}],"stateMutability":"pure"},{"type":"function","name":"receiveFlashLoan","inputs":[{"name":"tokens","type":"address[]","internalType":"contract IERC20Minimal[]"},{"name":"amounts","type":"uint256[]","internalType":"uint256[]"},{"name":"feeAmounts","type":"uint256[]","internalType":"uint256[]"},{"name":"","type":"bytes","internalType":"bytes"}],"outputs":[],"stateMutability":"nonpayable"}],"bytecode":{"object":"0x608080604052346103655763095ea7b360e01b81527332e616f4f17d43f9a5cd9be0e294727187064cb360048201525f1960248201526020816044815f73a0b86991c6218b36c1d19d4a2e9eb0ce3606eb485af180156102ac57610348575b5060405163095ea7b360e01b815273bebc44782c7db0a1a60cb6fe97d0b483032ff1c760048201525f1960248201526020816044815f73a0b86991c6218b36c1d19d4a2e9eb0ce3606eb485af180156102ac5761032b575b5060405163095ea7b360e01b81527387870bca3f3fd6335c3f4ce8392d69350b4fa4e260048201525f1960248201526020816044815f73a0b86991c6218b36c1d19d4a2e9eb0ce3606eb485af180156102ac5761030e575b5060405163095ea7b360e01b81527332e616f4f17d43f9a5cd9be0e294727187064cb360048201525f1960248201526020816044815f731e33e98af620f1d563fcd3cfd3c75ace841204ef5af180156102ac576102f1575b5060405163095ea7b360e01b8152735a6a4d54456819380173272a5e8e9b9904bdf41b60048201525f1960248201526020816044815f736c3f90f043a72fa612cbac8115ee7e52bde6e4905af180156102ac576102d4575b5060405163095ea7b360e01b815273bebc44782c7db0a1a60cb6fe97d0b483032ff1c760048201525f1960248201526020816044815f736c3f90f043a72fa612cbac8115ee7e52bde6e4905af180156102ac576102b7575b5060405163095ea7b360e01b8152735a6a4d54456819380173272a5e8e9b9904bdf41b60048201525f1960248201526020816044815f7399d8a9c45b2eca8864373a26d1459e3dff1e17f35af180156102ac5761027d575b604051611ef590816103b98239f35b61029e9060203d6020116102a5575b6102968183610369565b8101906103a0565b505f61026e565b503d61028c565b6040513d5f823e3d90fd5b6102cf9060203d6020116102a5576102968183610369565b610216565b6102ec9060203d6020116102a5576102968183610369565b6101be565b6103099060203d6020116102a5576102968183610369565b610166565b6103269060203d6020116102a5576102968183610369565b61010e565b6103439060203d6020116102a5576102968183610369565b6100b6565b6103609060203d6020116102a5576102968183610369565b61005e565b5f80fd5b601f909101601f19168101906001600160401b0382119082101761038c57604052565b634e487b7160e01b5f52604160045260245ffd5b9081602091031261036557518015158103610365579056fe6080806040526004361015610012575f80fd5b5f3560e01c9081631b11d0ff14610436575080633c2448ed1461041c57806349343624146103ee5780635ff972cc146103d25763f04f270714610053575f80fd5b346102695760803660031901126102695760043567ffffffffffffffff8111610269573660238201121561026957806004013561008f816106b9565b9161009d6040519384610697565b8183526024602084019260051b8201019036821161026957602401915b8183106103b2578360243567ffffffffffffffff8111610269576100e29036906004016106d1565b9060443567ffffffffffffffff8111610269576101039036906004016106d1565b9060643567ffffffffffffffff81116102695736602382011215610269578060040135906101308261072e565b9161013e6040519384610697565b8083523660248284010111610269575f92816024602094018483013701015273ba12222222228d8ba445958a75a0704d566bf2c8330361036d5760018151149081610342575b5015610306576101a86101a16101af9361019c610ba3565b61079c565b519161079c565b519061074a565b6040516370a0823160e01b81523060048201526020816024815f516020611ea05f395f51905f525afa80156102755782915f916102d1575b5010610280576040519063a9059cbb60e01b825273ba12222222228d8ba445958a75a0704d566bf2c8600483015260248201526020816044815f5f516020611ea05f395f51905f525af180156102755761023d57005b6020813d60201161026d575b8161025660209383610697565b8101031261026957518015150361026957005b5f80fd5b3d9150610249565b6040513d5f823e3d90fd5b60405162461bcd60e51b8152602060048201526024808201527f696e73756666696369656e74205553444320666f722042616c616e63657220726044820152636570617960e01b6064820152608490fd5b9150506020813d6020116102fe575b816102ed60209383610697565b8101031261026957819051836101e7565b3d91506102e0565b60405162461bcd60e51b81526020600482015260146024820152731d5b995e1c1958dd1959081d1bdad95b881cd95d60621b6044820152606490fd5b5f516020611ea05f395f51905f5291506001600160a01b03906103649061079c565b51161483610184565b60405162461bcd60e51b815260206004820152601a60248201527f756e65787065637465642062616c616e6365722063616c6c65720000000000006044820152606490fd5b82356001600160a01b0381168103610269578152602092830192016100ba565b34610269575f3660031901126102695760205f54604051908152f35b34610269575f366003190112610269576020604051736c3f90f043a72fa612cbac8115ee7e52bde6e4908152f35b34610269575f36600319011261026957610434610872565b005b346102695760a0366003190112610269576004356001600160a01b0381169190829003610269576064356001600160a01b03811691908290036102695760843567ffffffffffffffff8111610269573660238201121561026957806004013567ffffffffffffffff81116102695736910160240111610269577387870bca3f3fd6335c3f4ce8392d69350b4fa4e2330361062c575030036105f0575f516020611ea05f395f51905f52036105b8576104ec610ba3565b6104fa60443560243561074a565b6040516370a0823160e01b81523060048201526020816024815f516020611ea05f395f51905f525afa908115610275575f91610586575b501061054257602060405160018152f35b606460405162461bcd60e51b815260206004820152602060248201527f696e73756666696369656e74205553444320666f7220416176652072657061796044820152fd5b90506020813d6020116105b0575b816105a160209383610697565b81010312610269575182610531565b3d9150610594565b60405162461bcd60e51b815260206004820152601060248201526f1d5b995e1c1958dd195908185cdcd95d60821b6044820152606490fd5b60405162461bcd60e51b81526020600482015260146024820152733ab732bc3832b1ba32b21034b734ba34b0ba37b960611b6044820152606490fd5b62461bcd60e51b81526020600482015260166024820152753ab732bc3832b1ba32b21030b0bb329031b0b63632b960511b6044820152606490fd5b6060810190811067ffffffffffffffff82111761068357604052565b634e487b7160e01b5f52604160045260245ffd5b90601f8019910116810190811067ffffffffffffffff82111761068357604052565b67ffffffffffffffff81116106835760051b60200190565b9080601f830112156102695781356106e8816106b9565b926106f66040519485610697565b81845260208085019260051b82010192831161026957602001905b82821061071e5750505090565b8135815260209182019101610711565b67ffffffffffffffff811161068357601f01601f191660200190565b9190820180921161075757565b634e487b7160e01b5f52601160045260245ffd5b9190820391821161075757565b805180835260209291819084018484015e5f828201840152601f01601f1916010190565b8051156107a95760200190565b634e487b7160e01b5f52603260045260245ffd5b8051600110156107a95760400190565b8051600210156107a95760600190565b8051600310156107a95760800190565b8051600410156107a95760a00190565b8051600510156107a95760c00190565b8051600610156107a95760e00190565b8051600710156107a9576101000190565b8051600810156107a9576101200190565b90602080835192838152019201905f5b81811061085c5750505090565b825184526020938401939092019160010161084f565b6001545f9060ff8116610b6d5760ff1916600190811790556040516370a0823160e01b81523060048201526020816024815f516020611ea05f395f51905f525afa908115610275575f91610b3b575b5065fea894898000811015610b29578065fea8948980000365fea894898000811161075757604080516108f48282610697565b60048152634141564560e01b60208201527387870bca3f3fd6335c3f4ce8392d69350b4fa4e23b15610269575f610965918351809381926310ac2ddf60e21b83523060048401525f516020611ea05f395f51905f52602484015287604484015260a0606484015260a4830190610778565b8360848301520381837387870bca3f3fd6335c3f4ce8392d69350b4fa4e25af19081610b14575b50610b085780519161099e8284610697565b600183526020830190601f19830190813684375f516020611ea05f395f51905f526109c88661079c565b528351916109d68584610697565b600183523660208401376109e98261079c565b528251926109f78185610697565b60088452672120a620a721a2a960c11b602085015273ba12222222228d8ba445958a75a0704d566bf2c83b15610b045751632e1c224f60e11b8152306004820152608060248201529351608485018190528692859260a4840192909190855b818110610adf575050508394610a7c8493610a8e9360031986830301604487015261083f565b83810360031901606485015290610778565b03818373ba12222222228d8ba445958a75a0704d566bf2c85af19182610ac6575b5050610aba57508055565b610ac49150611455565b565b81610ad091610697565b610adb57825f610aaf565b8280fd5b82516001600160a01b031685528a965088955060209485019490920191600101610a56565b8680fd5b5050610ac49150611455565b610b219195505f90610697565b5f935f61098c565b610ac49150610b36610ba3565b611455565b90506020813d602011610b65575b81610b5660209383610697565b8101031261026957515f6108c1565b3d9150610b49565b5050565b6080810192915f825b60038210610b8d5750505060605f910152565b6020806001928551815201930191019091610b7a565b606060405f5b60028110610bb657505050565b610c0f6020604051610bc88682610697565b60028152843683830137655af3107a4000610be28261079c565b525f610bed826107bd565b526040518093819263a7256d0960e01b8352886004840152606483019061083f565b5f602483015230604483015203815f7332e616f4f17d43f9a5cd9be0e294727187064cb35af1801561027557611427575b50604051630f7c084960e21b81525f6004820152600160248201526509184e72a00060448201525f60648201526020816084815f7332e616f4f17d43f9a5cd9be0e294727187064cb35af18015610275576113f9575b50604051610ca381610667565b5f8152659a9d359ca00060208201525f604082015273bebc44782c7db0a1a60cb6fe97d0b483032ff1c73b15610269575f610cf29160405180938192634515cef360e01b835260048301610b71565b03818373bebc44782c7db0a1a60cb6fe97d0b483032ff1c75af18015610275576113e9575b506040516040810181811067ffffffffffffffff8211176106835760409081525f8083526a18d0bf423c03d8de00000060208401529051630b4c7e4d60e01b815291600483015b600283106113d3575050505f60448201526020816064815f735a6a4d54456819380173272a5e8e9b9904bdf41b5af18015610275576113a5575b50604051630d2680e960e11b81526a0c685fa11e01ec6f00000060048201525f60248201525f60448201526020816064815f735a6a4d54456819380173272a5e8e9b9904bdf41b5af1908115610275575f91611374575b50604051630f7c084960e21b8152600160048201525f60248201526a6342fd08f00f637800000060448201525f60648201526020816084815f735a6a4d54456819380173272a5e8e9b9904bdf41b5af1908115610275575f91611343575b50610e5661166b565b610e5e611df1565b6040516370a0823160e01b8152306004820152602081602481731e33e98af620f1d563fcd3cfd3c75ace841204ef5afa908115610275575f91611312575b5060405190630f7c084960e21b8252600160048301525f602483015260448201525f60648201526020816084815f7332e616f4f17d43f9a5cd9be0e294727187064cb35af18015610275576112e4575b506040516370a0823160e01b81523060048201526020816024817332e616f4f17d43f9a5cd9be0e294727187064cb35afa908115610275575f916112b3575b5060405190630d2680e960e11b825260048201525f60248201525f60448201526020816064815f7332e616f4f17d43f9a5cd9be0e294727187064cb35af1801561027557611283575b50604051630f7c084960e21b81525f60048201819052600160248301526044820192909252606481018290529060209082906084908290735a6a4d54456819380173272a5e8e9b9904bdf41b5af1801561027557611255575b506040516370a0823160e01b8152306004820152602081602481735a6a4d54456819380173272a5e8e9b9904bdf41b5afa908115610275575f91611224575b5060405190630d2680e960e11b82526004820152600160248201525f60448201526020816064815f735a6a4d54456819380173272a5e8e9b9904bdf41b5af18015610275576111f4575b50604051630f7c084960e21b81525f60048201819052600160248301526044820192909252606481018290529060209082906084908290735a6a4d54456819380173272a5e8e9b9904bdf41b5af18015610275576111c6575b506040516370a0823160e01b8152306004820152602081602481736c3f90f043a72fa612cbac8115ee7e52bde6e4905afa908115610275575f91611195575b5073bebc44782c7db0a1a60cb6fe97d0b483032ff1c73b156102695760405190630d2680e960e11b82526004820152600160248201525f60448201525f816064818373bebc44782c7db0a1a60cb6fe97d0b483032ff1c75af1801561027557611185575b50600181019081811161075757600260019210611170575b01610ba9565b61117861166b565b611180611df1565b61116a565b5f61118f91610697565b5f611152565b90506020813d82116111be575b816111af60209383610697565b8101031261026957515f6110ee565b3d91506111a2565b6020813d82116111ec575b816111de60209383610697565b8101031261026957516110af565b3d91506111d1565b6020813d821161121c575b8161120c60209383610697565b8101031261026957506020611056565b3d91506111ff565b90506020813d821161124d575b8161123e60209383610697565b8101031261026957515f61100c565b3d9150611231565b6020813d821161127b575b8161126d60209383610697565b810103126102695751610fcd565b3d9150611260565b6020813d82116112ab575b8161129b60209383610697565b8101031261026957506020610f74565b3d915061128e565b90506020813d82116112dc575b816112cd60209383610697565b8101031261026957515f610f2b565b3d91506112c0565b6020813d821161130a575b816112fc60209383610697565b810103126102695751610eec565b3d91506112ef565b90506020813d821161133b575b8161132c60209383610697565b8101031261026957515f610e9c565b3d915061131f565b90506020813d821161136c575b8161135d60209383610697565b8101031261026957515f610e4d565b3d9150611350565b90506020813d821161139d575b8161138e60209383610697565b8101031261026957515f610def565b3d9150611381565b6020813d82116113cb575b816113bd60209383610697565b810103126102695751610d98565b3d91506113b0565b6020806001928451815201920192019190610d5e565b5f6113f391610697565b5f610d17565b6020813d821161141f575b8161141160209383610697565b810103126102695751610c96565b3d9150611404565b6020813d821161144d575b8161143f60209383610697565b810103126102695751610c40565b3d9150611432565b6040516370a0823160e01b81523060048201525f916020826024815f516020611ea05f395f51905f525afa918215610275575f92611637575b508082111561162f576114a09161076b565b6040516370a0823160e01b815230600482015290602082602481736c3f90f043a72fa612cbac8115ee7e52bde6e4905afa918215610275575f926115fb575b50604051906114ed82610667565b5f825260208201525f604082015273bebc44782c7db0a1a60cb6fe97d0b483032ff1c73b15610269575f6115359160405180938192634515cef360e01b835260048301610b71565b03818373bebc44782c7db0a1a60cb6fe97d0b483032ff1c75af18015610275576115e6575b506040516370a0823160e01b815230600482015290602082602481736c3f90f043a72fa612cbac8115ee7e52bde6e4905afa80156115db5783906115a7575b6115a3925061076b565b9055565b506020823d6020116115d3575b816115c160209383610697565b81010312610269576115a39151611599565b3d91506115b4565b6040513d85823e3d90fd5b6115f39192505f90610697565b5f905f61155a565b9091506020813d602011611627575b8161161760209383610697565b810103126102695751905f6114df565b3d915061160a565b5050505f8055565b9091506020813d602011611663575b8161165360209383610697565b810103126102695751905f61148e565b3d9150611646565b604051611679608082610697565b600381526060366020830137736b175474e89094c44da98b954eedeac495271d0f6116a38261079c565b525f516020611ea05f395f51905f526116bb826107bd565b5273dac17f958d2ee523a2206206994597c13d831ec76116da826107cd565b52604051906101806116ec8184610697565b600b8352601f19013660208401377f70a082310104ff0000000004fd5abf66b003881b88567eb9ed9c651f14dc47716117248361079c565b527f6d5433e6010406ff00000004836c9007dbd73fcfc473190304c72b7e39babb9161174f836107bd565b527fcc2b27d7810406ff000000845a6a4d54456819380173272a5e8e9b9904bdf41b61177a836107cd565b527f62de91e9018405ff000000046e2ed2f457c41f38556ab0c2b1185cc9e6563d8d6117a5836107dd565b527f18160ddd01ff0000000000086c3f90f043a72fa612cbac8115ee7e52bde6e4906117d0836107ed565b527f4903b0d10105ff0000000005bebc44782c7db0a1a60cb6fe97d0b483032ff1c76117fb836107fd565b527f4903b0d10106ff0000000006bebc44782c7db0a1a60cb6fe97d0b483032ff1c76118268361080d565b527f4903b0d10107ff0000000007bebc44782c7db0a1a60cb6fe97d0b483032ff1c76118518361081d565b527faa9a091201050408ff000000836c9007dbd73fcfc473190304c72b7e39babb9161187c8361082e565b528151600910156107a9577faa9a091201060408ff000001836c9007dbd73fcfc473190304c72b7e39babb916101408301528151600a10156107a9577faa9a091201070408ff000002836c9007dbd73fcfc473190304c72b7e39babb91610160830152604051916101406118f08185610697565b60098452601f19015f5b818110611de05750506020906040516119138382610697565b5f815261191f8561079c565b526119298461079c565b506040516119378382610697565b5f8152611943856107bd565b5261194d846107bd565b5060405161195b8382610697565b5f8152611967856107cd565b52611971846107cd565b506040515f1983820152828152611989604082610697565b611992856107dd565b5261199c846107dd565b5060409384516119ac8682610697565b83815273d1a1c248b253f1fc60eacd90777b9a63f8c8c1bc848201526119d1826107ed565b526119db816107ed565b5084515f848201528381526119f08682610697565b6119f9826107fd565b52611a03816107fd565b508451600184820152838152611a198682610697565b611a228261080d565b52611a2c8161080d565b508451600284820152838152611a428682610697565b611a4b8261081d565b52611a558161081d565b508451611a628482610697565b5f8152611a6e8261082e565b52611a788161082e565b5061010090855192611a8a8385610697565b60078452601f19830136868601377fa7a3f0f3dbca12895d1f9424e8d0a924d50c92edfec3f817082763f73cb4cd5a611ac28561079c565b527ff326b46750aa6deec7344bb6f7243a395bcfde2680300e16f1bbff78672cbf3c611aed856107bd565b527f8c6626860a4b2368ed8caf9fd5b14b90d151c3ca390b7aff38dfe7003b5d421d611b18856107cd565b527f166be3838e86d1af766aeb93493d81b89e564c96c2f8decb94b400912de6afed611b43856107dd565b527fede17ea0feb39c3e2c3b900b4a95f239f010c251afb46a89984d868151c5b209611b6e856107ed565b527fbf97f0d554ad3b05a210efb4de2a4930747e423e87b1fb139b63fcc94f17e286611b99856107fd565b527fae44b282d93e68621a7e6efa1e9b9893cc74b52a65196a60693a9e325c0fc401611bc48561080d565b52865190610120820182811067ffffffffffffffff8211176106835788526ff819a666d560f6ce6f065fe9be0469508252858201965f88528883015f81526060840190600182526080850192835260a0850193845260c0850195865260e0850196601f60781b885285019788528a5199639341a47560e01b8b528960048c01526101448b01955160248c015251151560448b01525160648a0152516004811015611dcc57918997959391899795936084890152519161012060a489015282518091528661016489019301905f5b818110611da95750505090611cb291516023198883030160c489015261083f565b9051936023198683030160e48701528451908183528083019281808460051b8301019701935f915b848310611d705750505050505091611d1a916fffffffffffffffffffffffffffffffff85945116610104850152516023198483030161012485015261083f565b03815f73d1a1c248b253f1fc60eacd90777b9a63f8c8c1bc5af18015611d6657611d42575050565b813d8311611d5f575b611d558183610697565b8101031261026957565b503d611d4b565b82513d5f823e3d90fd5b92600192959a50809698819295989a50611d9490601f198682030187528c51610778565b9a019301930189979592938b99979592611cda565b82516001600160a01b031685528c9a508b99509388019391880191600101611c91565b634e487b7160e01b5f52602160045260245ffd5b8060606020809388010152016118fa565b5f8060405160208101906313af42e560e21b825260048152611e14602482610697565b519082736b006870c83b1cd49e766ac9209f8d68763df7215af13d15611e9a573d611e3e8161072e565b90611e4c6040519283610697565b81525f60203d92013e5b15611e5d57565b60405162461bcd60e51b81526020600482015260156024820152741d5c19185d19551bdd185b105d5b4819985a5b1959605a1b6044820152606490fd5b611e5656fe000000000000000000000000a0b86991c6218b36c1d19d4a2e9eb0ce3606eb48a2646970667358221220703d0ed0e28085061f910589bbeddc4953d6e145d356a0d4649521640a6f3b3464736f6c634300081e0033","linkReferences":{}},"methodIdentifiers":{"executeOnOpportunity()":"3c2448ed","executeOperation(address,uint256,uint256,address,bytes)":"1b11d0ff","profitAmount()":"5ff972cc","profitToken()":"49343624","receiveFlashLoan(address[],uint256[],uint256[],bytes)":"f04f2707"},"id":0}