{"abi":[{"type":"function","name":"poke","inputs":[{"name":"token","type":"address","internalType":"address"},{"name":"to","type":"address","internalType":"address"},{"name":"amount","type":"uint256","internalType":"uint256"}],"outputs":[],"stateMutability":"nonpayable"}],"bytecode":{"object":"0x60808060405234601557610180908161001a8239f35b5f80fdfe6080806040526004361015610012575f80fd5b5f3560e01c631fddb48214610025575f80fd5b34610120576060366003190112610120576004356001600160a01b03811690819003610120576024356001600160a01b0381169190829003610120576044835f819360209563a9059cbb60e01b84526004840152833560248401525af190811561013f575f916100d6575b501561009857005b60405162461bcd60e51b81526020600482015260166024820152751a195b1c195c881d1c985b9cd9995c8819985a5b195960521b6044820152606490fd5b905060203d602011610138575b601f8101601f1916820167ffffffffffffffff8111838210176101245760209183916040528101031261012057518015158103610120575f610090565b5f80fd5b634e487b7160e01b5f52604160045260245ffd5b503d6100e3565b6040513d5f823e3d90fdfea2646970667358221220d60147f356576c00e16d20d27b2591228f1cb3756ff85ab84beef26c9d84f8ea64736f6c634300081e0033","linkReferences":{}},"methodIdentifiers":{"poke(address,address,uint256)":"1fddb482"},"id":0}