{"abi":[{"type":"constructor","inputs":[],"stateMutability":"nonpayable"},{"type":"receive","stateMutability":"payable"},{"type":"function","name":"executeOnOpportunity","inputs":[],"outputs":[],"stateMutability":"nonpayable"},{"type":"function","name":"onMorphoFlashLoan","inputs":[{"name":"assets","type":"uint256","internalType":"uint256"},{"name":"data","type":"bytes","internalType":"bytes"}],"outputs":[],"stateMutability":"nonpayable"},{"type":"function","name":"pancakeV3SwapCallback","inputs":[{"name":"","type":"int256","internalType":"int256"},{"name":"amount1Delta","type":"int256","internalType":"int256"},{"name":"","type":"bytes","internalType":"bytes"}],"outputs":[],"stateMutability":"nonpayable"},{"type":"function","name":"profitAmount","inputs":[],"outputs":[{"name":"","type":"uint256","internalType":"uint256"}],"stateMutability":"view"},{"type":"function","name":"profitToken","inputs":[],"outputs":[{"name":"","type":"address","internalType":"address"}],"stateMutability":"view"},{"type":"function","name":"uniswapV2Call","inputs":[{"name":"sender","type":"address","internalType":"address"},{"name":"amount0","type":"uint256","internalType":"uint256"},{"name":"amount1","type":"uint256","internalType":"uint256"},{"name":"data","type":"bytes","internalType":"bytes"}],"outputs":[],"stateMutability":"nonpayable"},{"type":"function","name":"uniswapV3SwapCallback","inputs":[{"name":"","type":"int256","internalType":"int256"},{"name":"amount1Delta","type":"int256","internalType":"int256"},{"name":"","type":"bytes","internalType":"bytes"}],"outputs":[],"stateMutability":"nonpayable"}],"bytecode":{"object":"0x60808060405234603a575f80546001600160a01b03191673c02aaa39b223fe8d0a0e5c4f27ead9083c756cc217905561183f908161003f8239f35b5f80fdfe6080604052600436101561001a575b3615610018575f80fd5b005b5f5f3560e01c90816310d1e85c14610a0457816323a69e751461006f57816331f57072146108765781633c2448ed146100ba57816349343624146100945781635ff972cc14610074575063fa461e330361000e575b610d18565b346100915780600319360112610091576020600154604051908152f35b80fd5b34610091578060031936011261009157546040516001600160a01b039091168152602090f35b346104f3575f3660031901126104f35760ff6003541661083e576003805460ff191660011790556040516370a0823160e01b81523060048201526020816024815f5160206117ea5f395f51905f525afa908115610741575f9161080c575b506040516370a0823160e01b815230600482015260208160248173c02aaa39b223fe8d0a0e5c4f27ead9083c756cc25afa908115610741575f916107da575b5060405163095ea7b360e01b81527340aa958dd87fc8305b97f2ba922cddca374bcd7f60048201525f1960248201524792906020816044815f5f5160206117ea5f395f51905f525af18015610741576107ab575b50650cb7270223408110610661576101cd61010061ff00196003541617600355565b604080516101db8282610e88565b60018152601f1982013660208301377f200000000000000000000000e0554a476a092703abdb3ef35c80e0d76d32939f61021482611143565b528151630d5f0e3b60e01b8152306004820152650cb72702234060248201526701554edc98b9d23c604482015260806064820152602081806102596084820186611164565b03818a732e1dee213ba8d7af0934c49a23187babeaca87645af1801561062857610632575b5081516339d1f67760e21b815264174876e80060048201526020816024818a736a06707ab339bee00c6663db17ddb422301ff5e85af18015610628576105f7575b506020817f800000000000000000000000e0554a476a092703abdb3ef35c80e0d76d32939f6102f061032d94611143565b52835180938192630d5f0e3b60e01b8352306004840152682a48acab61f84c7fe960248401528a6044840152608060648401526084830190611164565b0381682a48acab61f84c7fe9732e1dee213ba8d7af0934c49a23187babeaca87645af180156105ed576105be575b50479081610547575b50505b6040516370a0823160e01b81523060048201526020816024815f5160206117ea5f395f51905f525afa90811561053c57859161050a575b506040516370a0823160e01b81523060048201529060208260248173c02aaa39b223fe8d0a0e5c4f27ead9083c756cc25afa9182156104ff5786926104c7575b504792808211156104be576103f291610ee4565b925b808211156104b55761040591610ee4565b925b808211156104ac5761041891610ee4565b915b6bffffffffffffffffffffffff60a01b8454169073c02aaa39b223fe8d0a0e5c4f27ead9083c756cc2821785558060015515806104a3575b610488575b5050600154158061047f575b61046b575080f35b81546001600160a01b031916825560015580f35b50801515610463565b5f5160206117ea5f395f51905f521783556001558280610457565b50811515610452565b5050829161041a565b50508392610407565b505084926103f4565b9091506020813d6020116104f7575b816104e360209383610e88565b810103126104f3575190866103de565b5f80fd5b3d91506104d6565b6040513d88823e3d90fd5b90506020813d602011610534575b8161052560209383610e88565b810103126104f357518561039e565b3d9150610518565b6040513d87823e3d90fd5b8573c02aaa39b223fe8d0a0e5c4f27ead9083c756cc23b15610091578151630d0e30db60e41b8152928390600490829073c02aaa39b223fe8d0a0e5c4f27ead9083c756cc25af19081156105b557506105a1575b80610364565b846105ae91959295610e88565b928461059b565b513d87823e3d90fd5b6020813d6020116105e5575b816105d760209383610e88565b810103126104f3575161035b565b3d91506105ca565b82513d88823e3d90fd5b6020813d602011610620575b8161061060209383610e88565b810103126104f3575060206102bf565b3d9150610603565b83513d89823e3d90fd5b6020813d602011610659575b8161064b60209383610e88565b810103126104f3575161027e565b3d915061063e565b61066a81610ebe565b805f5f5b6003811061074c57501061068b576106869085611038565b610367565b604080516020808201849052815291906106a59083610e88565b73bbbbbbbbbb9cc5e90e3b3af64bdaf62c37eeffcb3b156104f357610701915f91604051938492839263701195a160e11b84525f5160206117ea5f395f51905f5260048501526024840152606060448401526064830190610f09565b03818373bbbbbbbbbb9cc5e90e3b3af64bdaf62c37eeffcb5af180156107415761072c575b50610367565b6107399194505f90610e88565b5f9284610726565b6040513d5f823e3d90fd5b90915061076061075b82610f2d565b61160e565b905060018111610777575b5060010190829161066e565b90915f1982019182116107975760019161079091610e7b565b919061076b565b634e487b7160e01b5f52601160045260245ffd5b6107cc9060203d6020116107d3575b6107c48183610e88565b810190610ef1565b50846101ab565b503d6107ba565b90506020813d602011610804575b816107f560209383610e88565b810103126104f3575183610157565b3d91506107e8565b90506020813d602011610836575b8161082760209383610e88565b810103126104f3575182610118565b3d915061081a565b60405162461bcd60e51b815260206004820152601060248201526f185b1c9958591e48195e1958dd5d195960821b6044820152606490fd5b346104f35760403660031901126104f35760043560243567ffffffffffffffff81116104f3576108aa903690600401610cea565b919073bbbbbbbbbb9cc5e90e3b3af64bdaf62c37eeffcb33036109d1576003549260ff8460081c166109995781602091810103126104f357358103610967576101006108fe9261ff00191617600355611197565b60405163095ea7b360e01b815273bbbbbbbbbb9cc5e90e3b3af64bdaf62c37eeffcb60048201525f1960248201526020816044815f5f5160206117ea5f395f51905f525af180156107415761094f57005b6100189060203d6020116107d3576107c48183610e88565b60405162461bcd60e51b815260206004820152600a6024820152696261642061737365747360b01b6044820152606490fd5b60405162461bcd60e51b815260206004820152601060248201526f616c726561647920636f6d706c65746560801b6044820152606490fd5b60405162461bcd60e51b815260206004820152600b60248201526a6f6e6c79206d6f7270686f60a81b6044820152606490fd5b346104f35760803660031901126104f3576004356001600160a01b038116908190036104f35760243560643567ffffffffffffffff81116104f357610a4d903690600401610cea565b90923003610cb85782604091810103126104f35760208235920135610a7183610f2d565b916001600160a01b0383163303610c87578015610c7d57905b8103610c4a576103e88102908082046103e81490151715610797576103e59004916001830180931161079757610ac283600254610e7b565b6002556040516370a0823160e01b81523060048201526020816024815f5160206117ea5f395f51905f525afa908115610741575f91610c18575b50650cb7270223408110610bf6575b505060ff60035460081c1615610bd2575b60405163a9059cbb60e01b81526001600160a01b039091166004820152602481018290526020816044815f5f5160206117ea5f395f51905f525af1908115610741575f91610bb3575b5015610b7c57610b7790600254610ee4565b600255005b60405162461bcd60e51b815260206004820152600f60248201526e1d1c985b9cd9995c8819985a5b1959608a1b6044820152606490fd5b610bcc915060203d6020116107d3576107c48183610e88565b82610b65565b610be661010061ff00196003541617600355565b610bf1600254611197565b610b1c565b610c0b610c05610c1193610e6d565b91610ebe565b90611038565b8280610b0b565b90506020813d602011610c42575b81610c3360209383610e88565b810103126104f3575184610afc565b3d9150610c26565b60405162461bcd60e51b815260206004820152600b60248201526a62616420616d6f756e747360a81b6044820152606490fd5b5060443590610a8a565b60405162461bcd60e51b815260206004820152600960248201526837b7363c903830b4b960b91b6044820152606490fd5b60405162461bcd60e51b815260206004820152600a6024820152693130b21039b2b73232b960b11b6044820152606490fd5b9181601f840112156104f35782359167ffffffffffffffff83116104f357602083818601950101116104f357565b346104f35760603660031901126104f35760243560443567ffffffffffffffff81116104f357610d4c903690600401610cea565b505073e0554a476a092703abdb3ef35c80e0d76d32939e193301610e32575f8113610d7357005b5f8112610dfc5760405163a9059cbb60e01b815273e0554a476a092703abdb3ef35c80e0d76d32939f600482015260248101919091526020816044815f73c02aaa39b223fe8d0a0e5c4f27ead9083c756cc25af1908115610741575f91610ddd575b5015610b7c57005b610df6915060203d6020116107d3576107c48183610e88565b5f610dd5565b60405162461bcd60e51b815260206004820152600e60248201526d6e656761746976652076616c756560901b6044820152606490fd5b60405162461bcd60e51b81526020600482015260096024820152681bdb9b1e481c1bdbdb60ba1b6044820152606490fd5b5f9103126104f357565b906001820180921161079757565b9190820180921161079757565b90601f8019910116810190811067ffffffffffffffff821117610eaa57604052565b634e487b7160e01b5f52604160045260245ffd5b650cb7270223400390650cb727022340821161079757565b5f1981019190821161079757565b9190820391821161079757565b908160209103126104f3575180151581036104f35790565b805180835260209291819084018484015e5f828201840152601f01601f1916010190565b8015610fa55760018114610f8c57600214610f745760405162461bcd60e51b815260206004820152600a6024820152690e0c2d2e440d2dcc8caf60b31b6044820152606490fd5b73397ff1542f962076d0bfe58ea045ffa2d347aca090565b5073b4e16d0168e52d35cacd2c6185b44281ec28c9dc90565b50733041cbd36888becc7bbcbc0045e3b1f144466f5f90565b15610fc557565b60405162461bcd60e51b815260206004820152601c60248201527f696e73756666696369656e7420666c617368206c6971756964697479000000006044820152606490fd5b909260809261103595948352602083015260018060a01b031660408201528160608201520190610f09565b90565b811561113f5761104a60038210610fbe565b61105381610f2d565b61105c8161160e565b9190936001831115611128576110728193610ed6565b809111611120575b506001600160a01b031683156111195781935b1561110f576110b65f935b60408051602081019290925281810194909452928352606083610e88565b803b156104f3576110e3935f80946040519687958694859363022c0d9f60e01b855230916004860161100a565b03925af1801561110a576110f45750565b806111025f61110893610e88565b80610e63565b565b610741565b6110b68293611098565b5f9361108d565b91505f61107a565b929050611108935061113a9150610e6d565b611038565b5050565b8051156111505760200190565b634e487b7160e01b5f52603260045260245ffd5b90602080835192838152019201905f5b8181106111815750505090565b8251845260209384019390920191600101611174565b5f9060409081516111a88382610e88565b60018152601f1983013660208301377f200000000000000000000000e0554a476a092703abdb3ef35c80e0d76d32939f6111e182611143565b528251630d5f0e3b60e01b8152306004820152650cb72702234060248201526701554edc98b9d23c604482015260806064820152602081806112266084820186611164565b03815f732e1dee213ba8d7af0934c49a23187babeaca87645af180156115a2576115ac575b5082516339d1f67760e21b815264174876e80060048201526020816024815f736a06707ab339bee00c6663db17ddb422301ff5e85af180156115a257611571575b506020817f800000000000000000000000e0554a476a092703abdb3ef35c80e0d76d32939f6112bd6112fa94611143565b52845180938192630d5f0e3b60e01b8352306004840152682a48acab61f84c7fe960248401525f6044840152608060648401526084830190611164565b0381682a48acab61f84c7fe9732e1dee213ba8d7af0934c49a23187babeaca87645af1801561153857611542575b5047806114d2575b508061133b57505050565b81516370a0823160e01b81523060048201526020816024815f5160206117ea5f395f51905f525afa9081156114c5578491611493575b50818110611380575b50505050565b61138991610ee4565b6001600160ff1b03811161146057600160ff1b811461144c57815190630251596160e31b82523060048301528360248301528303604482015273fffd8963efd1fc6a506488495d951d5263988d25606482015260a060848201528260a4820152818160c4818673e0554a476a092703abdb3ef35c80e0d76d32939f5af1801561144057611417575b8061137a565b813d8311611439575b61142a8183610e88565b81010312610091578080611411565b503d611420565b505051903d90823e3d90fd5b634e487b7160e01b83526011600452602483fd5b815162461bcd60e51b815260206004820152600c60248201526b696e74206f766572666c6f7760a01b6044820152606490fd5b90506020813d6020116114bd575b816114ae60209383610e88565b810103126104f357515f611371565b3d91506114a1565b50505051903d90823e3d90fd5b73c02aaa39b223fe8d0a0e5c4f27ead9083c756cc23b156104f3575f600491845192838092630d0e30db60e41b825273c02aaa39b223fe8d0a0e5c4f27ead9083c756cc25af180156115385715611330576115309193505f90610e88565b5f915f611330565b83513d5f823e3d90fd5b6020813d602011611569575b8161155b60209383610e88565b810103126104f35751611328565b3d915061154e565b6020813d60201161159a575b8161158a60209383610e88565b810103126104f35750602061128c565b3d915061157d565b84513d5f823e3d90fd5b6020813d6020116115d3575b816115c560209383610e88565b810103126104f3575161124b565b3d91506115b8565b908160209103126104f357516001600160a01b03811681036104f35790565b51906001600160701b03821682036104f357565b604051630dfe168160e01b815291906001600160a01b0316602083600481845afa928315610741575f936117c8575b5060405163d21220a760e01b815292602084600481855afa938415610741575f94611788575b506001600160a01b03165f5160206117ea5f395f51905f52149283908115611768575b501561172f57606060049160405192838092630240bc6b60e21b82525afa8015610741575f905f906116ce575b6001600160701b03925084156116c857501690565b90501690565b50506060813d606011611727575b816116e960609383610e88565b810103126104f3576116fa816115fa565b906040611709602083016115fa565b91015163ffffffff8116036104f3576001600160701b0391906116b3565b3d91506116dc565b60405162461bcd60e51b815260206004820152601160248201527070616972206d697373696e67207573646360781b6044820152606490fd5b6001600160a01b03165f5160206117ea5f395f51905f521490505f611686565b5f5160206117ea5f395f51905f529194506117ba9060203d6020116117c1575b6117b28183610e88565b8101906115db565b9390611663565b503d6117a8565b6117e291935060203d6020116117c1576117b28183610e88565b915f61163d56fe000000000000000000000000a0b86991c6218b36c1d19d4a2e9eb0ce3606eb48a2646970667358221220dd3f39939ceda0b97604cc88267b4ac0ed52b7ed9be2da4eb8d46f4aa1da809a64736f6c634300081e0033","linkReferences":{}},"methodIdentifiers":{"executeOnOpportunity()":"3c2448ed","onMorphoFlashLoan(uint256,bytes)":"31f57072","pancakeV3SwapCallback(int256,int256,bytes)":"23a69e75","profitAmount()":"5ff972cc","profitToken()":"49343624","uniswapV2Call(address,uint256,uint256,bytes)":"10d1e85c","uniswapV3SwapCallback(int256,int256,bytes)":"fa461e33"},"id":0}