{"abi":[{"type":"constructor","inputs":[],"stateMutability":"nonpayable"},{"type":"function","name":"TARGET","inputs":[],"outputs":[{"name":"","type":"address","internalType":"address"}],"stateMutability":"view"},{"type":"function","name":"claimedDepositAmount","inputs":[],"outputs":[{"name":"","type":"uint256","internalType":"uint256"}],"stateMutability":"view"},{"type":"function","name":"executeOnOpportunity","inputs":[],"outputs":[],"stateMutability":"nonpayable"},{"type":"function","name":"fakeVisor","inputs":[],"outputs":[{"name":"","type":"address","internalType":"address"}],"stateMutability":"view"},{"type":"function","name":"poolShareSupplyBefore","inputs":[],"outputs":[{"name":"","type":"uint256","internalType":"uint256"}],"stateMutability":"view"},{"type":"function","name":"poolVisrBefore","inputs":[],"outputs":[{"name":"","type":"uint256","internalType":"uint256"}],"stateMutability":"view"},{"type":"function","name":"profitAmount","inputs":[],"outputs":[{"name":"","type":"uint256","internalType":"uint256"}],"stateMutability":"view"},{"type":"function","name":"profitToken","inputs":[],"outputs":[{"name":"","type":"address","internalType":"address"}],"stateMutability":"view"},{"type":"function","name":"unbackedSharesMinted","inputs":[],"outputs":[{"name":"","type":"uint256","internalType":"uint256"}],"stateMutability":"view"},{"type":"function","name":"visrBalanceAfter","inputs":[],"outputs":[{"name":"","type":"uint256","internalType":"uint256"}],"stateMutability":"view"},{"type":"function","name":"visrBalanceBefore","inputs":[],"outputs":[{"name":"","type":"uint256","internalType":"uint256"}],"stateMutability":"view"},{"type":"function","name":"visrRedeemed","inputs":[],"outputs":[{"name":"","type":"uint256","internalType":"uint256"}],"stateMutability":"view"}],"bytecode":{"object":"0x608080604052346015576113d2908161001a8239f35b5f80fdfe6080806040526004361015610012575f80fd5b5f3560e01c90816304957879146108f4575080630f9e9cba146108d75780631e96c19c146108ba5780633c2448ed146102235780633d7d6a6c1461020657806349343624146101715780635ff972cc146101555780637bf6cf2614610138578063b84f10111461011b578063cc1f2afa146100ed578063dd53b87c146100d05763e135dd95146100a0575f80fd5b346100cc575f3660031901126100cc5760015460405160089190911c6001600160a01b03168152602090f35b5f80fd5b346100cc575f3660031901126100cc576020600754604051908152f35b346100cc575f3660031901126100cc57602060405173c9f27a50f82571c1c8423a42970613b8dbda14ef8152f35b346100cc575f3660031901126100cc576020600354604051908152f35b346100cc575f3660031901126100cc576020600254604051908152f35b346100cc575f3660031901126100cc5760205f54604051908152f35b346100cc575f3660031901126100cc5760405163468ee2b560e11b815260208160048173c9f27a50f82571c1c8423a42970613b8dbda14ef5afa80156101fb576020915f916101ce575b506040516001600160a01b039091168152f35b6101ee9150823d84116101f4575b6101e6818361090e565b810190610930565b826101bb565b503d6101dc565b6040513d5f823e3d90fd5b346100cc575f3660031901126100cc576020600554604051908152f35b346100cc575f3660031901126100cc5760015460ff81166108825760ff19166001908117905560405163468ee2b560e11b815260208160048173c9f27a50f82571c1c8423a42970613b8dbda14ef5afa9081156101fb575f91610863575b506040516305888dfd60e01b81529060208260048173c9f27a50f82571c1c8423a42970613b8dbda14ef5afa9182156101fb575f92610842575b506040516370a0823160e01b81523060048201526001600160a01b03919091169190602081602481865afa9081156101fb575f91610810575b506002556040516370a0823160e01b815273c9f27a50f82571c1c8423a42970613b8dbda14ef600482015290602082602481865afa9182156101fb575f926107dc575b5060048281556040516318160ddd60e01b81526001600160a01b03929092169290602090839081865afa9182156101fb575f926107a8575b508160055515610764571561070e5760405161016b8082019082821067ffffffffffffffff8311176106fa57602091839161123283393081520301905ff080156101fb5760018054610100600160a81b03191660089290921b610100600160a81b0316919091179081905560055480156106e6575f1904905f19820191821161052f578160065560045482111561068e57604051630b8b4a6160e21b8152600481019290925260081c6001600160a01b031660248201523060448201526020816064815f73c9f27a50f82571c1c8423a42970613b8dbda14ef5af180156101fb5761065d575b506020602491604051928380926370a0823160e01b82523060048301525afa9081156101fb575f9161062b575b508060075580156105e65760405190632d182be560e21b825260048201523060248201523060448201526020816064815f73c9f27a50f82571c1c8423a42970613b8dbda14ef5af19081156101fb575f916105b3575b506008556040516370a0823160e01b815230600482015290602090829060249082905afa9081156101fb575f91610581575b50806003556002548082111561054357810390811161052f575f5561052d61094f565b005b634e487b7160e01b5f52601160045260245ffd5b60405162461bcd60e51b81526020600482015260166024820152756578706c6f6974206e6f742070726f66697461626c6560501b6044820152606490fd5b90506020813d6020116105ab575b8161059c6020938361090e565b810103126100cc57518161050a565b3d915061058f565b90506020813d6020116105de575b816105ce6020938361090e565b810103126100cc575160246104d8565b3d91506105c1565b60405162461bcd60e51b815260206004820152601860248201527f6465706f736974206d696e746564206e6f2073686172657300000000000000006044820152606490fd5b90506020813d602011610655575b816106466020938361090e565b810103126100cc575182610482565b3d9150610639565b6020813d602011610686575b816106766020938361090e565b810103126100cc57506020610455565b3d9150610669565b60405162461bcd60e51b815260206004820152602a60248201527f696e6665617369626c653a207361666520636c61696d6564206465706f736974604482015269081d1bdbc81cdb585b1b60b21b6064820152608490fd5b634e487b7160e01b5f52601260045260245ffd5b634e487b7160e01b5f52604160045260245ffd5b60405162461bcd60e51b815260206004820152602860248201527f696e6665617369626c653a20765649535220737570706c79206973207a65726f60448201526720617420666f726b60c01b6064820152608490fd5b606460405162461bcd60e51b815260206004820152602060248201527f696e6665617369626c653a2074617267657420686f6c6473206e6f20564953526044820152fd5b9091506020813d6020116107d4575b816107c46020938361090e565b810103126100cc5751908461036f565b3d91506107b7565b9091506020813d602011610808575b816107f86020938361090e565b810103126100cc57519083610337565b3d91506107eb565b90506020813d60201161083a575b8161082b6020938361090e565b810103126100cc5751836102f4565b3d915061081e565b61085c91925060203d6020116101f4576101e6818361090e565b90826102bb565b61087c915060203d6020116101f4576101e6818361090e565b81610281565b60405162461bcd60e51b815260206004820152601060248201526f185b1c9958591e48195e1958dd5d195960821b6044820152606490fd5b346100cc575f3660031901126100cc576020600854604051908152f35b346100cc575f3660031901126100cc576020600654604051908152f35b346100cc575f3660031901126100cc576020906004548152f35b90601f8019910116810190811067ffffffffffffffff8211176106fa57604052565b908160209103126100cc57516001600160a01b03811681036100cc5790565b610957610c0b565b6001600160a01b0381168015610bbf5773c02aaa39b223fe8d0a0e5c4f27ead9083c756cc214610bc35761098b3082610d5e565b8015610bbf57610a4a905f80604051602081019063095ea7b360e01b8252737a250d5630b4cf539739df2c5dacb4c659f2488d6024820152826044820152604481526109d860648261090e565b519082875af1506109e7610bcc565b505f80604051602081019063095ea7b360e01b8252737a250d5630b4cf539739df2c5dacb4c659f2488d602482015284604482015260448152610a2b60648261090e565b519082875af150610a3a610bcc565b50610a4483610e07565b90610ec3565b610a67610a573083610d5e565b610a6083610f7d565b90836110be565b610a7d610a743083610d5e565b610a6083610fec565b610a93610a8a3083610d5e565b610a6083611055565b610a9d3082610d5e565b9081610ab0575b5050610aae610c7e565b565b610b6c610bb8925f80604051602081019063095ea7b360e01b825273d9e1ce17f2641f24ae83637ab66a2cca9c378b9f602482015282604482015260448152610afa60648261090e565b519082875af150610b09610bcc565b505f80604051602081019063095ea7b360e01b825273d9e1ce17f2641f24ae83637ab66a2cca9c378b9f602482015284604482015260448152610b4d60648261090e565b519082875af150610b5c610bcc565b50610b6683610e07565b90610f27565b610b89610b793083610d5e565b610b8283610f7d565b908361117a565b610b9f610b963083610d5e565b610b8283610fec565b610ba93082610d5e565b610bb282611055565b9161117a565b5f80610aa4565b5050565b50610aae610c7e565b3d15610c06573d9067ffffffffffffffff82116106fa5760405191610bfb601f8201601f19166020018461090e565b82523d5f602084013e565b606090565b5f80604051602081019063124d0d8960e21b825260048152610c2e60248261090e565b5190305afa610c3b610bcc565b90158015610c73575b610c6e576020818051810103126100cc57602001516001600160a01b038116908190036100cc5790565b505f90565b506020815110610c44565b610c8730610cdc565b8015610cd9575f80916040516020810191632e1a7d4d60e01b8352602482015260248152610cb660448261090e565b51908273c02aaa39b223fe8d0a0e5c4f27ead9083c756cc25af150610cd9610bcc565b50565b5f809160405160208101916370a0823160e01b835260018060a01b0316602482015260248152610d0d60448261090e565b519073c02aaa39b223fe8d0a0e5c4f27ead9083c756cc25afa610d2e610bcc565b90158015610d53575b610c6e57602081519181808201938492010103126100cc575190565b506020815110610d37565b906001600160a01b03821615610dac575f91829160405160208101916370a0823160e01b835260018060a01b0316602482015260248152610da060448261090e565b51915afa610d2e610bcc565b50505f90565b805115610dbf5760200190565b634e487b7160e01b5f52603260045260245ffd5b805160011015610dbf5760400190565b805160021015610dbf5760600190565b8051821015610dbf5760209160051b010190565b9073c02aaa39b223fe8d0a0e5c4f27ead9083c756cc2610e57604051610e2e60608261090e565b6002815260403660208301378094610e4582610db2565b6001600160a01b039091169052610dd3565b52565b91909493929460a083019083525f602084015260a060408401528151809152602060c084019201905f5b818110610ea4575050506001600160a01b03909416606082015260800152565b82516001600160a01b0316845260209384019390920191600101610e84565b908115610bbf575f91610ef6610f048493604051928391602083019563791ac94760e01b87524291309160248601610e5a565b03601f19810183528261090e565b519082737a250d5630b4cf539739df2c5dacb4c659f2488d5af150610cd9610bcc565b908115610bbf575f91610ef6610f5a8493604051928391602083019563791ac94760e01b87524291309160248601610e5a565b51908273d9e1ce17f2641f24ae83637ab66a2cca9c378b9f5af150610cd9610bcc565b9073c02aaa39b223fe8d0a0e5c4f27ead9083c756cc2610e57604051610fa460808261090e565b6003815260603660208301378094610fbb82610db2565b6001600160a01b03909116905273a0b86991c6218b36c1d19d4a2e9eb0ce3606eb48610fe682610dd3565b52610de3565b9073c02aaa39b223fe8d0a0e5c4f27ead9083c756cc2610e5760405161101360808261090e565b600381526060366020830137809461102a82610db2565b6001600160a01b03909116905273dac17f958d2ee523a2206206994597c13d831ec7610fe682610dd3565b9073c02aaa39b223fe8d0a0e5c4f27ead9083c756cc2610e5760405161107c60808261090e565b600381526060366020830137809461109382610db2565b6001600160a01b039091169052736b175474e89094c44da98b954eedeac495271d0f610fe682610dd3565b919091821561117557600282511090811561114c575b50801561110c575b610bbf575f91610ef6610f0484936040519283916020830195635c11d79560e01b87524291309160248601610e5a565b5080515f19810190811161052f5773c02aaa39b223fe8d0a0e5c4f27ead9083c756cc2906001600160a01b03906111439084610df3565b511614156110dc565b90506001600160a01b0361115f83610db2565b516001600160a01b03909216911614155f6110d4565b505050565b9190918215611175576002825110908115611208575b5080156111c8575b610bbf575f91610ef6610f5a84936040519283916020830195635c11d79560e01b87524291309160248601610e5a565b5080515f19810190811161052f5773c02aaa39b223fe8d0a0e5c4f27ead9083c756cc2906001600160a01b03906111ff9084610df3565b51161415611198565b90506001600160a01b0361121b83610db2565b516001600160a01b03909216911614155f61119056fe60a034606457601f61016b38819003918201601f19168301916001600160401b03831184841017606857808492602094604052833981010312606457516001600160a01b038116810360645760805260405160ee908161007d823960805181603d0152f35b5f80fd5b634e487b7160e01b5f52604160045260245ffdfe60808060405260043610156011575f80fd5b5f3560e01c80632e88fb9714607057638da5cb5b14602d575f80fd5b34606c575f366003190112606c577f00000000000000000000000000000000000000000000000000000000000000006001600160a01b03168152602090f35b5f80fd5b34606c576060366003190112606c576085608e565b50608c60a3565b005b600435906001600160a01b0382168203606c57565b602435906001600160a01b0382168203606c5756fea2646970667358221220295a87b4cf4c2e7cc97255ac95edab35548d1e83f9d95b8518825f53b94bf01864736f6c634300081e0033a264697066735822122098604207d55e9e1f8f0a63f1fd26dc3f9434539bc3790256bc93b1612c210c1764736f6c634300081e0033","linkReferences":{}},"methodIdentifiers":{"TARGET()":"cc1f2afa","claimedDepositAmount()":"0f9e9cba","executeOnOpportunity()":"3c2448ed","fakeVisor()":"e135dd95","poolShareSupplyBefore()":"3d7d6a6c","poolVisrBefore()":"04957879","profitAmount()":"5ff972cc","profitToken()":"49343624","unbackedSharesMinted()":"dd53b87c","visrBalanceAfter()":"b84f1011","visrBalanceBefore()":"7bf6cf26","visrRedeemed()":"1e96c19c"},"id":0}