{"abi":[{"type":"constructor","inputs":[],"stateMutability":"nonpayable"},{"type":"receive","stateMutability":"payable"},{"type":"function","name":"executeOnOpportunity","inputs":[],"outputs":[],"stateMutability":"nonpayable"},{"type":"function","name":"profitAmount","inputs":[],"outputs":[{"name":"","type":"uint256","internalType":"uint256"}],"stateMutability":"view"},{"type":"function","name":"profitToken","inputs":[],"outputs":[{"name":"","type":"address","internalType":"address"}],"stateMutability":"pure"},{"type":"function","name":"uniswapV2Call","inputs":[{"name":"","type":"address","internalType":"address"},{"name":"amount0","type":"uint256","internalType":"uint256"},{"name":"amount1","type":"uint256","internalType":"uint256"},{"name":"data","type":"bytes","internalType":"bytes"}],"outputs":[],"stateMutability":"nonpayable"}],"bytecode":{"object":"0x6080604052348015600e575f5ffd5b50612f088061001c5f395ff3fe608060405260043610610042575f3560e01c806310d1e85c1461004d5780633c2448ed14610075578063493436241461008b5780635ff972cc146100b557610049565b3661004957005b5f5ffd5b348015610058575f5ffd5b50610073600480360381019061006e9190612218565b6100df565b005b348015610080575f5ffd5b5061008961047a565b005b348015610096575f5ffd5b5061009f61058b565b6040516100ac91906122ab565b60405180910390f35b3480156100c0575f5ffd5b506100c96105a6565b6040516100d691906122d3565b60405180910390f35b5f6100e86105ae565b90508073ffffffffffffffffffffffffffffffffffffffff163373ffffffffffffffffffffffffffffffffffffffff1614610158576040517f08c379a000000000000000000000000000000000000000000000000000000000815260040161014f90612346565b60405180910390fd5b600260019054906101000a900460ff166101a7576040517f08c379a000000000000000000000000000000000000000000000000000000000815260040161019e906123ae565b60405180910390fd5b5f5f86116101b557846101b7565b855b90505f81116101fb576040517f08c379a00000000000000000000000000000000000000000000000000000000081526004016101f290612416565b60405180910390fd5b5f600482610209919061248e565b90505f8103610216578190505b61021f816106d6565b61022761095b565b61023083610cbf565b5f60016103e56103e88561024491906124be565b61024e919061248e565b61025891906124ff565b90508047106102d35773c02aaa39b223fe8d0a0e5c4f27ead9083c756cc273ffffffffffffffffffffffffffffffffffffffff1663d0e30db0826040518263ffffffff1660e01b81526004015f604051808303818588803b1580156102bb575f5ffd5b505af11580156102cd573d5f5f3e3d5ffd5b50505050505b8073c02aaa39b223fe8d0a0e5c4f27ead9083c756cc273ffffffffffffffffffffffffffffffffffffffff166370a08231306040518263ffffffff1660e01b815260040161032191906122ab565b602060405180830381865afa15801561033c573d5f5f3e3d5ffd5b505050506040513d601f19601f820116820180604052508101906103609190612546565b10156103a1576040517f08c379a0000000000000000000000000000000000000000000000000000000008152600401610398906125bb565b60405180910390fd5b73c02aaa39b223fe8d0a0e5c4f27ead9083c756cc273ffffffffffffffffffffffffffffffffffffffff1663a9059cbb85836040518363ffffffff1660e01b81526004016103f09291906125d9565b6020604051808303815f875af115801561040c573d5f5f3e3d5ffd5b505050506040513d601f19601f820116820180604052508101906104309190612635565b61046f576040517f08c379a0000000000000000000000000000000000000000000000000000000008152600401610466906126aa565b60405180910390fd5b505050505050505050565b60025f9054906101000a900460ff161561049b57610496610ea5565b610589565b600160025f6101000a81548160ff021916908315150217905550734ae2cd1f5b8806a973953b76f9ce6d5fab9cdcfd73ffffffffffffffffffffffffffffffffffffffff166370a08231306040518263ffffffff1660e01b815260040161050291906122ab565b602060405180830381865afa15801561051d573d5f5f3e3d5ffd5b505050506040513d601f19601f820116820180604052508101906105419190612546565b6001819055505f6105506105ae565b905061055b81610f60565b6105636105ae565b905061056e81610ff5565b61057781611218565b61057f611491565b610587610ea5565b505b565b5f734ae2cd1f5b8806a973953b76f9ce6d5fab9cdcfd905090565b5f5f54905090565b5f737a250d5630b4cf539739df2c5dacb4c659f2488d73ffffffffffffffffffffffffffffffffffffffff1663c45a01556040518163ffffffff1660e01b8152600401602060405180830381865afa15801561060c573d5f5f3e3d5ffd5b505050506040513d601f19601f8201168201806040525081019061063091906126dc565b73ffffffffffffffffffffffffffffffffffffffff1663e6a43905734ae2cd1f5b8806a973953b76f9ce6d5fab9cdcfd73c02aaa39b223fe8d0a0e5c4f27ead9083c756cc26040518363ffffffff1660e01b8152600401610692929190612707565b602060405180830381865afa1580156106ad573d5f5f3e3d5ffd5b505050506040513d601f19601f820116820180604052508101906106d191906126dc565b905090565b5f8103156109585761071173c02aaa39b223fe8d0a0e5c4f27ead9083c756cc2737a250d5630b4cf539739df2c5dacb4c659f2488d5f6117af565b5061074573c02aaa39b223fe8d0a0e5c4f27ead9083c756cc2737a250d5630b4cf539739df2c5dacb4c659f2488d836117af565b15610958575f600267ffffffffffffffff8111156107665761076561272e565b5b6040519080825280602002602001820160405280156107945781602001602082028036833780820191505090505b50905073c02aaa39b223fe8d0a0e5c4f27ead9083c756cc2815f815181106107bf576107be61275b565b5b602002602001019073ffffffffffffffffffffffffffffffffffffffff16908173ffffffffffffffffffffffffffffffffffffffff1681525050734ae2cd1f5b8806a973953b76f9ce6d5fab9cdcfd816001815181106108225761082161275b565b5b602002602001019073ffffffffffffffffffffffffffffffffffffffff16908173ffffffffffffffffffffffffffffffffffffffff16815250505f737a250d5630b4cf539739df2c5dacb4c659f2488d73ffffffffffffffffffffffffffffffffffffffff16635c11d79560e01b845f8530426040516024016108a995949392919061288d565b604051602081830303815290604052907bffffffffffffffffffffffffffffffffffffffffffffffffffffffff19166020820180517bffffffffffffffffffffffffffffffffffffffffffffffffffffffff83818316178352505050506040516109139190612937565b5f604051808303815f865af19150503d805f811461094c576040519150601f19603f3d011682016040523d82523d5f602084013e610951565b606091505b5050905050505b50565b5f734ae2cd1f5b8806a973953b76f9ce6d5fab9cdcfd73ffffffffffffffffffffffffffffffffffffffff1663cef851396040518163ffffffff1660e01b8152600401602060405180830381865afa9250505080156109d857506040513d601f19601f820116820180604052508101906109d59190612546565b60015b6109e4575f90506109e9565b809150505b5f8114158015610a97575080734ae2cd1f5b8806a973953b76f9ce6d5fab9cdcfd73ffffffffffffffffffffffffffffffffffffffff166370a08231734ae2cd1f5b8806a973953b76f9ce6d5fab9cdcfd6040518263ffffffff1660e01b8152600401610a5691906122ab565b602060405180830381865afa158015610a71573d5f5f3e3d5ffd5b505050506040513d601f19601f82011682018060405250810190610a959190612546565b105b15610aa25750610cbd565b5f734ae2cd1f5b8806a973953b76f9ce6d5fab9cdcfd73ffffffffffffffffffffffffffffffffffffffff166370a08231306040518263ffffffff1660e01b8152600401610af091906122ab565b602060405180830381865afa158015610b0b573d5f5f3e3d5ffd5b505050506040513d601f19601f82011682018060405250810190610b2f9190612546565b90505f8103610b3f575050610cbd565b670de0b6b3a7640000811115610b5b57670de0b6b3a764000090505b5f604051610b6890612115565b604051809103905ff080158015610b81573d5f5f3e3d5ffd5b509050610ba3734ae2cd1f5b8806a973953b76f9ce6d5fab9cdcfd82846118c4565b610baf57505050610cbd565b5f8173ffffffffffffffffffffffffffffffffffffffff16631fddb48260e01b734ae2cd1f5b8806a973953b76f9ce6d5fab9cdcfd73111111111111111111111111111111111111111186604051602401610c0c9392919061294d565b604051602081830303815290604052907bffffffffffffffffffffffffffffffffffffffffffffffffffffffff19166020820180517bffffffffffffffffffffffffffffffffffffffffffffffffffffffff8381831617835250505050604051610c769190612937565b5f604051808303815f865af19150503d805f8114610caf576040519150601f19603f3d011682016040523d82523d5f602084013e610cb4565b606091505b50509050505050505b565b5f8173ffffffffffffffffffffffffffffffffffffffff166370a08231306040518263ffffffff1660e01b8152600401610cf991906122ab565b602060405180830381865afa158015610d14573d5f5f3e3d5ffd5b505050506040513d601f19601f82011682018060405250810190610d389190612546565b90505f8103610d475750610ea2565b610d6682737a250d5630b4cf539739df2c5dacb4c659f2488d5f6117af565b50610d8682737a250d5630b4cf539739df2c5dacb4c659f2488d836117af565b610d905750610ea2565b5f737a250d5630b4cf539739df2c5dacb4c659f2488d73ffffffffffffffffffffffffffffffffffffffff1663af2979eb60e01b734ae2cd1f5b8806a973953b76f9ce6d5fab9cdcfd845f5f3042604051602401610df396959493929190612982565b604051602081830303815290604052907bffffffffffffffffffffffffffffffffffffffffffffffffffffffff19166020820180517bffffffffffffffffffffffffffffffffffffffffffffffffffffffff8381831617835250505050604051610e5d9190612937565b5f604051808303815f865af19150503d805f8114610e96576040519150601f19603f3d011682016040523d82523d5f602084013e610e9b565b606091505b5050905050505b50565b5f734ae2cd1f5b8806a973953b76f9ce6d5fab9cdcfd73ffffffffffffffffffffffffffffffffffffffff166370a08231306040518263ffffffff1660e01b8152600401610ef391906122ab565b602060405180830381865afa158015610f0e573d5f5f3e3d5ffd5b505050506040513d601f19601f82011682018060405250810190610f329190612546565b9050600154811115610f565760015481610f4c91906129e1565b5f81905550610f5d565b5f5f819055505b50565b5f73ffffffffffffffffffffffffffffffffffffffff168173ffffffffffffffffffffffffffffffffffffffff1603610fa657610f9b6119d9565b610fa36105ae565b90505b5f73ffffffffffffffffffffffffffffffffffffffff168173ffffffffffffffffffffffffffffffffffffffff160315610ff257610fe2611ac2565b15610ff157610ff081610cbf565b5b5b50565b5f73ffffffffffffffffffffffffffffffffffffffff168173ffffffffffffffffffffffffffffffffffffffff1603611033576110306105ae565b90505b5f73ffffffffffffffffffffffffffffffffffffffff168173ffffffffffffffffffffffffffffffffffffffff1603156112155761106f611b81565b15611215576001600260016101000a81548160ff02191690831515021790555061109881610cbf565b5f734ae2cd1f5b8806a973953b76f9ce6d5fab9cdcfd73ffffffffffffffffffffffffffffffffffffffff166370a08231306040518263ffffffff1660e01b81526004016110e691906122ab565b602060405180830381865afa158015611101573d5f5f3e3d5ffd5b505050506040513d601f19601f820116820180604052508101906111259190612546565b14801561113157505f47145b1561114c5761114781662386f26fc10000611c77565b6111fa565b5f734ae2cd1f5b8806a973953b76f9ce6d5fab9cdcfd73ffffffffffffffffffffffffffffffffffffffff166370a08231306040518263ffffffff1660e01b815260040161119a91906122ab565b602060405180830381865afa1580156111b5573d5f5f3e3d5ffd5b505050506040513d601f19601f820116820180604052508101906111d99190612546565b036111e8576111e747611efc565b5b6111f061095b565b6111f981610cbf565b5b5f600260016101000a81548160ff0219169083151502179055505b50565b5f73ffffffffffffffffffffffffffffffffffffffff168173ffffffffffffffffffffffffffffffffffffffff16031561148e575f8190505f8173ffffffffffffffffffffffffffffffffffffffff166370a08231846040518263ffffffff1660e01b815260040161128a91906122ab565b602060405180830381865afa1580156112a5573d5f5f3e3d5ffd5b505050506040513d601f19601f820116820180604052508101906112c99190612546565b11156113ae575f8273ffffffffffffffffffffffffffffffffffffffff166389afcb4460e01b3060405160240161130091906122ab565b604051602081830303815290604052907bffffffffffffffffffffffffffffffffffffffffffffffffffffffff19166020820180517bffffffffffffffffffffffffffffffffffffffffffffffffffffffff838183161783525050505060405161136a9190612937565b5f604051808303815f865af19150503d805f81146113a3576040519150601f19603f3d011682016040523d82523d5f602084013e6113a8565b606091505b50509050505b5f8273ffffffffffffffffffffffffffffffffffffffff1663bc25cf7760e01b306040516024016113df91906122ab565b604051602081830303815290604052907bffffffffffffffffffffffffffffffffffffffffffffffffffffffff19166020820180517bffffffffffffffffffffffffffffffffffffffffffffffffffffffff83818316178352505050506040516114499190612937565b5f604051808303815f865af19150503d805f8114611482576040519150601f19603f3d011682016040523d82523d5f602084013e611487565b606091505b5050905050505b50565b5f73c02aaa39b223fe8d0a0e5c4f27ead9083c756cc273ffffffffffffffffffffffffffffffffffffffff166370a08231306040518263ffffffff1660e01b81526004016114df91906122ab565b602060405180830381865afa1580156114fa573d5f5f3e3d5ffd5b505050506040513d601f19601f8201168201806040525081019061151e9190612546565b90505f810361152d57506117ad565b61156073c02aaa39b223fe8d0a0e5c4f27ead9083c756cc2737a250d5630b4cf539739df2c5dacb4c659f2488d5f6117af565b5061159473c02aaa39b223fe8d0a0e5c4f27ead9083c756cc2737a250d5630b4cf539739df2c5dacb4c659f2488d836117af565b61159e57506117ad565b5f600267ffffffffffffffff8111156115ba576115b961272e565b5b6040519080825280602002602001820160405280156115e85781602001602082028036833780820191505090505b50905073c02aaa39b223fe8d0a0e5c4f27ead9083c756cc2815f815181106116135761161261275b565b5b602002602001019073ffffffffffffffffffffffffffffffffffffffff16908173ffffffffffffffffffffffffffffffffffffffff1681525050734ae2cd1f5b8806a973953b76f9ce6d5fab9cdcfd816001815181106116765761167561275b565b5b602002602001019073ffffffffffffffffffffffffffffffffffffffff16908173ffffffffffffffffffffffffffffffffffffffff16815250505f737a250d5630b4cf539739df2c5dacb4c659f2488d73ffffffffffffffffffffffffffffffffffffffff16635c11d79560e01b845f8530426040516024016116fd95949392919061288d565b604051602081830303815290604052907bffffffffffffffffffffffffffffffffffffffffffffffffffffffff19166020820180517bffffffffffffffffffffffffffffffffffffffffffffffffffffffff83818316178352505050506040516117679190612937565b5f604051808303815f865af19150503d805f81146117a0576040519150601f19603f3d011682016040523d82523d5f602084013e6117a5565b606091505b505090505050505b565b5f5f5f8573ffffffffffffffffffffffffffffffffffffffff1663095ea7b360e01b86866040516024016117e49291906125d9565b604051602081830303815290604052907bffffffffffffffffffffffffffffffffffffffffffffffffffffffff19166020820180517bffffffffffffffffffffffffffffffffffffffffffffffffffffffff838183161783525050505060405161184e9190612937565b5f604051808303815f865af19150503d805f8114611887576040519150601f19603f3d011682016040523d82523d5f602084013e61188c565b606091505b50915091508180156118b957505f815114806118b85750808060200190518101906118b79190612635565b5b5b925050509392505050565b5f5f5f8573ffffffffffffffffffffffffffffffffffffffff1663a9059cbb60e01b86866040516024016118f99291906125d9565b604051602081830303815290604052907bffffffffffffffffffffffffffffffffffffffffffffffffffffffff19166020820180517bffffffffffffffffffffffffffffffffffffffffffffffffffffffff83818316178352505050506040516119639190612937565b5f604051808303815f865af19150503d805f811461199c576040519150601f19603f3d011682016040523d82523d5f602084013e6119a1565b606091505b50915091508180156119ce57505f815114806119cd5750808060200190518101906119cc9190612635565b5b5b925050509392505050565b5f734ae2cd1f5b8806a973953b76f9ce6d5fab9cdcfd73ffffffffffffffffffffffffffffffffffffffff1663293230b860e01b604051602401604051602081830303815290604052907bffffffffffffffffffffffffffffffffffffffffffffffffffffffff19166020820180517bffffffffffffffffffffffffffffffffffffffffffffffffffffffff8381831617835250505050604051611a7d9190612937565b5f604051808303815f865af19150503d805f8114611ab6576040519150601f19603f3d011682016040523d82523d5f602084013e611abb565b606091505b5050905050565b5f734ae2cd1f5b8806a973953b76f9ce6d5fab9cdcfd73ffffffffffffffffffffffffffffffffffffffff16638da5cb5b6040518163ffffffff1660e01b8152600401602060405180830381865afa925050508015611b3f57506040513d601f19601f82011682018060405250810190611b3c91906126dc565b60015b611b4b575f9050611b7e565b3073ffffffffffffffffffffffffffffffffffffffff168173ffffffffffffffffffffffffffffffffffffffff16149150505b90565b5f734ae2cd1f5b8806a973953b76f9ce6d5fab9cdcfd73ffffffffffffffffffffffffffffffffffffffff1663c69bebe460e01b30604051602401611bc691906122ab565b604051602081830303815290604052907bffffffffffffffffffffffffffffffffffffffffffffffffffffffff19166020820180517bffffffffffffffffffffffffffffffffffffffffffffffffffffffff8381831617835250505050604051611c309190612937565b5f604051808303815f865af19150503d805f8114611c69576040519150601f19603f3d011682016040523d82523d5f602084013e611c6e565b606091505b50508091505090565b5f810315611ef8575f8290505f8173ffffffffffffffffffffffffffffffffffffffff16630dfe16816040518163ffffffff1660e01b8152600401602060405180830381865afa158015611ccd573d5f5f3e3d5ffd5b505050506040513d601f19601f82011682018060405250810190611cf191906126dc565b90505f8273ffffffffffffffffffffffffffffffffffffffff1663d21220a76040518163ffffffff1660e01b8152600401602060405180830381865afa158015611d3d573d5f5f3e3d5ffd5b505050506040513d601f19601f82011682018060405250810190611d6191906126dc565b90505f84604051602001611d7591906122d3565b604051602081830303815290604052905073c02aaa39b223fe8d0a0e5c4f27ead9083c756cc273ffffffffffffffffffffffffffffffffffffffff168373ffffffffffffffffffffffffffffffffffffffff1603611e3e578373ffffffffffffffffffffffffffffffffffffffff1663022c0d9f865f30856040518563ffffffff1660e01b8152600401611e0c9493929190612a9c565b5f604051808303815f87803b158015611e23575f5ffd5b505af1158015611e35573d5f5f3e3d5ffd5b50505050611ef3565b73c02aaa39b223fe8d0a0e5c4f27ead9083c756cc273ffffffffffffffffffffffffffffffffffffffff168273ffffffffffffffffffffffffffffffffffffffff1603611ef2578373ffffffffffffffffffffffffffffffffffffffff1663022c0d9f5f8730856040518563ffffffff1660e01b8152600401611ec49493929190612ae6565b5f604051808303815f87803b158015611edb575f5ffd5b505af1158015611eed573d5f5f3e3d5ffd5b505050505b5b505050505b5050565b5f810315612112575f600267ffffffffffffffff811115611f2057611f1f61272e565b5b604051908082528060200260200182016040528015611f4e5781602001602082028036833780820191505090505b50905073c02aaa39b223fe8d0a0e5c4f27ead9083c756cc2815f81518110611f7957611f7861275b565b5b602002602001019073ffffffffffffffffffffffffffffffffffffffff16908173ffffffffffffffffffffffffffffffffffffffff1681525050734ae2cd1f5b8806a973953b76f9ce6d5fab9cdcfd81600181518110611fdc57611fdb61275b565b5b602002602001019073ffffffffffffffffffffffffffffffffffffffff16908173ffffffffffffffffffffffffffffffffffffffff16815250505f737a250d5630b4cf539739df2c5dacb4c659f2488d73ffffffffffffffffffffffffffffffffffffffff168363b6f9de9560e01b5f8530426040516024016120629493929190612b30565b604051602081830303815290604052907bffffffffffffffffffffffffffffffffffffffffffffffffffffffff19166020820180517bffffffffffffffffffffffffffffffffffffffffffffffffffffffff83818316178352505050506040516120cc9190612937565b5f6040518083038185875af1925050503d805f8114612106576040519150601f19603f3d011682016040523d82523d5f602084013e61210b565b606091505b5050905050505b50565b61035880612b7b83390190565b5f5ffd5b5f5ffd5b5f73ffffffffffffffffffffffffffffffffffffffff82169050919050565b5f6121538261212a565b9050919050565b61216381612149565b811461216d575f5ffd5b50565b5f8135905061217e8161215a565b92915050565b5f819050919050565b61219681612184565b81146121a0575f5ffd5b50565b5f813590506121b18161218d565b92915050565b5f5ffd5b5f5ffd5b5f5ffd5b5f5f83601f8401126121d8576121d76121b7565b5b8235905067ffffffffffffffff8111156121f5576121f46121bb565b5b602083019150836001820283011115612211576122106121bf565b5b9250929050565b5f5f5f5f5f6080868803121561223157612230612122565b5b5f61223e88828901612170565b955050602061224f888289016121a3565b9450506040612260888289016121a3565b935050606086013567ffffffffffffffff81111561228157612280612126565b5b61228d888289016121c3565b92509250509295509295909350565b6122a581612149565b82525050565b5f6020820190506122be5f83018461229c565b92915050565b6122cd81612184565b82525050565b5f6020820190506122e65f8301846122c4565b92915050565b5f82825260208201905092915050565b7f756e6578706563746564207061697200000000000000000000000000000000005f82015250565b5f612330600f836122ec565b915061233b826122fc565b602082019050919050565b5f6020820190508181035f83015261235d81612324565b9050919050565b7f706174683120696e6163746976650000000000000000000000000000000000005f82015250565b5f612398600e836122ec565b91506123a382612364565b602082019050919050565b5f6020820190508181035f8301526123c58161238c565b9050919050565b7f6e6f20666c6173682066756e64730000000000000000000000000000000000005f82015250565b5f612400600e836122ec565b915061240b826123cc565b602082019050919050565b5f6020820190508181035f83015261242d816123f4565b9050919050565b7f4e487b71000000000000000000000000000000000000000000000000000000005f52601260045260245ffd5b7f4e487b71000000000000000000000000000000000000000000000000000000005f52601160045260245ffd5b5f61249882612184565b91506124a383612184565b9250826124b3576124b2612434565b5b828204905092915050565b5f6124c882612184565b91506124d383612184565b92508282026124e181612184565b915082820484148315176124f8576124f7612461565b5b5092915050565b5f61250982612184565b915061251483612184565b925082820190508082111561252c5761252b612461565b5b92915050565b5f815190506125408161218d565b92915050565b5f6020828403121561255b5761255a612122565b5b5f61256884828501612532565b91505092915050565b7f666c61736873776170206e6f74207265706169640000000000000000000000005f82015250565b5f6125a56014836122ec565b91506125b082612571565b602082019050919050565b5f6020820190508181035f8301526125d281612599565b9050919050565b5f6040820190506125ec5f83018561229c565b6125f960208301846122c4565b9392505050565b5f8115159050919050565b61261481612600565b811461261e575f5ffd5b50565b5f8151905061262f8161260b565b92915050565b5f6020828403121561264a57612649612122565b5b5f61265784828501612621565b91505092915050565b7f7265706179206661696c656400000000000000000000000000000000000000005f82015250565b5f612694600c836122ec565b915061269f82612660565b602082019050919050565b5f6020820190508181035f8301526126c181612688565b9050919050565b5f815190506126d68161215a565b92915050565b5f602082840312156126f1576126f0612122565b5b5f6126fe848285016126c8565b91505092915050565b5f60408201905061271a5f83018561229c565b612727602083018461229c565b9392505050565b7f4e487b71000000000000000000000000000000000000000000000000000000005f52604160045260245ffd5b7f4e487b71000000000000000000000000000000000000000000000000000000005f52603260045260245ffd5b5f819050919050565b5f60ff82169050919050565b5f819050919050565b5f6127c06127bb6127b684612788565b61279d565b612791565b9050919050565b6127d0816127a6565b82525050565b5f81519050919050565b5f82825260208201905092915050565b5f819050602082019050919050565b61280881612149565b82525050565b5f61281983836127ff565b60208301905092915050565b5f602082019050919050565b5f61283b826127d6565b61284581856127e0565b9350612850836127f0565b805f5b83811015612880578151612867888261280e565b975061287283612825565b925050600181019050612853565b5085935050505092915050565b5f60a0820190506128a05f8301886122c4565b6128ad60208301876127c7565b81810360408301526128bf8186612831565b90506128ce606083018561229c565b6128db60808301846122c4565b9695505050505050565b5f81519050919050565b5f81905092915050565b8281835e5f83830152505050565b5f612911826128e5565b61291b81856128ef565b935061292b8185602086016128f9565b80840191505092915050565b5f6129428284612907565b915081905092915050565b5f6060820190506129605f83018661229c565b61296d602083018561229c565b61297a60408301846122c4565b949350505050565b5f60c0820190506129955f83018961229c565b6129a260208301886122c4565b6129af60408301876127c7565b6129bc60608301866127c7565b6129c9608083018561229c565b6129d660a08301846122c4565b979650505050505050565b5f6129eb82612184565b91506129f683612184565b9250828203905081811115612a0e57612a0d612461565b5b92915050565b5f612a2e612a29612a2484612788565b61279d565b612184565b9050919050565b612a3e81612a14565b82525050565b5f82825260208201905092915050565b5f601f19601f8301169050919050565b5f612a6e826128e5565b612a788185612a44565b9350612a888185602086016128f9565b612a9181612a54565b840191505092915050565b5f608082019050612aaf5f8301876122c4565b612abc6020830186612a35565b612ac9604083018561229c565b8181036060830152612adb8184612a64565b905095945050505050565b5f608082019050612af95f830187612a35565b612b0660208301866122c4565b612b13604083018561229c565b8181036060830152612b258184612a64565b905095945050505050565b5f608082019050612b435f8301876127c7565b8181036020830152612b558186612831565b9050612b64604083018561229c565b612b7160608301846122c4565b9594505050505056fe6080604052348015600e575f5ffd5b5061033c8061001c5f395ff3fe608060405234801561000f575f5ffd5b5060043610610029575f3560e01c80631fddb4821461002d575b5f5ffd5b61004760048036038101906100429190610199565b610049565b005b8273ffffffffffffffffffffffffffffffffffffffff1663a9059cbb83836040518363ffffffff1660e01b8152600401610084929190610207565b6020604051808303815f875af11580156100a0573d5f5f3e3d5ffd5b505050506040513d601f19601f820116820180604052508101906100c49190610263565b610103576040517f08c379a00000000000000000000000000000000000000000000000000000000081526004016100fa906102e8565b60405180910390fd5b505050565b5f5ffd5b5f73ffffffffffffffffffffffffffffffffffffffff82169050919050565b5f6101358261010c565b9050919050565b6101458161012b565b811461014f575f5ffd5b50565b5f813590506101608161013c565b92915050565b5f819050919050565b61017881610166565b8114610182575f5ffd5b50565b5f813590506101938161016f565b92915050565b5f5f5f606084860312156101b0576101af610108565b5b5f6101bd86828701610152565b93505060206101ce86828701610152565b92505060406101df86828701610185565b9150509250925092565b6101f28161012b565b82525050565b61020181610166565b82525050565b5f60408201905061021a5f8301856101e9565b61022760208301846101f8565b9392505050565b5f8115159050919050565b6102428161022e565b811461024c575f5ffd5b50565b5f8151905061025d81610239565b92915050565b5f6020828403121561027857610277610108565b5b5f6102858482850161024f565b91505092915050565b5f82825260208201905092915050565b7f68656c706572207472616e73666572206661696c6564000000000000000000005f82015250565b5f6102d260168361028e565b91506102dd8261029e565b602082019050919050565b5f6020820190508181035f8301526102ff816102c6565b905091905056fea2646970667358221220533f457074b7eb6bfde121815475e7d9abb6b8c56d3d847a02a44e77b937941164736f6c634300081e0033a2646970667358221220dbaf3f76e66ff188b3801e9976201e25ba2db5e423e67faed8fd33ec582ebe1364736f6c634300081e0033","linkReferences":{}},"methodIdentifiers":{"executeOnOpportunity()":"3c2448ed","profitAmount()":"5ff972cc","profitToken()":"49343624","uniswapV2Call(address,uint256,uint256,bytes)":"10d1e85c"},"id":0}