{"abi":[{"type":"function","name":"poke","inputs":[{"name":"token","type":"address","internalType":"address"},{"name":"to","type":"address","internalType":"address"},{"name":"amount","type":"uint256","internalType":"uint256"}],"outputs":[],"stateMutability":"nonpayable"}],"bytecode":{"object":"0x6080604052348015600e575f5ffd5b5061033c8061001c5f395ff3fe608060405234801561000f575f5ffd5b5060043610610029575f3560e01c80631fddb4821461002d575b5f5ffd5b61004760048036038101906100429190610199565b610049565b005b8273ffffffffffffffffffffffffffffffffffffffff1663a9059cbb83836040518363ffffffff1660e01b8152600401610084929190610207565b6020604051808303815f875af11580156100a0573d5f5f3e3d5ffd5b505050506040513d601f19601f820116820180604052508101906100c49190610263565b610103576040517f08c379a00000000000000000000000000000000000000000000000000000000081526004016100fa906102e8565b60405180910390fd5b505050565b5f5ffd5b5f73ffffffffffffffffffffffffffffffffffffffff82169050919050565b5f6101358261010c565b9050919050565b6101458161012b565b811461014f575f5ffd5b50565b5f813590506101608161013c565b92915050565b5f819050919050565b61017881610166565b8114610182575f5ffd5b50565b5f813590506101938161016f565b92915050565b5f5f5f606084860312156101b0576101af610108565b5b5f6101bd86828701610152565b93505060206101ce86828701610152565b92505060406101df86828701610185565b9150509250925092565b6101f28161012b565b82525050565b61020181610166565b82525050565b5f60408201905061021a5f8301856101e9565b61022760208301846101f8565b9392505050565b5f8115159050919050565b6102428161022e565b811461024c575f5ffd5b50565b5f8151905061025d81610239565b92915050565b5f6020828403121561027857610277610108565b5b5f6102858482850161024f565b91505092915050565b5f82825260208201905092915050565b7f68656c706572207472616e73666572206661696c6564000000000000000000005f82015250565b5f6102d260168361028e565b91506102dd8261029e565b602082019050919050565b5f6020820190508181035f8301526102ff816102c6565b905091905056fea2646970667358221220533f457074b7eb6bfde121815475e7d9abb6b8c56d3d847a02a44e77b937941164736f6c634300081e0033","linkReferences":{}},"methodIdentifiers":{"poke(address,address,uint256)":"1fddb482"},"id":0}