{"abi":[{"type":"constructor","inputs":[],"stateMutability":"nonpayable"},{"type":"receive","stateMutability":"payable"},{"type":"function","name":"addReservesPathProvablyInfeasible","inputs":[],"outputs":[{"name":"","type":"bool","internalType":"bool"}],"stateMutability":"view"},{"type":"function","name":"executeOnOpportunity","inputs":[],"outputs":[],"stateMutability":"nonpayable"},{"type":"function","name":"initiateBalancerFlashLoan","inputs":[{"name":"fundingToken","type":"address","internalType":"address"},{"name":"amount","type":"uint256","internalType":"uint256"}],"outputs":[],"stateMutability":"nonpayable"},{"type":"function","name":"liquidationPathProvablyInfeasible","inputs":[],"outputs":[{"name":"","type":"bool","internalType":"bool"}],"stateMutability":"view"},{"type":"function","name":"mintPathValidated","inputs":[],"outputs":[{"name":"","type":"bool","internalType":"bool"}],"stateMutability":"view"},{"type":"function","name":"profitAmount","inputs":[],"outputs":[{"name":"","type":"uint256","internalType":"uint256"}],"stateMutability":"view"},{"type":"function","name":"profitToken","inputs":[],"outputs":[{"name":"","type":"address","internalType":"address"}],"stateMutability":"view"},{"type":"function","name":"receiveFlashLoan","inputs":[{"name":"tokens","type":"address[]","internalType":"address[]"},{"name":"amounts","type":"uint256[]","internalType":"uint256[]"},{"name":"feeAmounts","type":"uint256[]","internalType":"uint256[]"},{"name":"","type":"bytes","internalType":"bytes"}],"outputs":[],"stateMutability":"nonpayable"},{"type":"function","name":"repayPathValidated","inputs":[],"outputs":[{"name":"","type":"bool","internalType":"bool"}],"stateMutability":"view"}],"bytecode":{"object":"0x60a0806040523461012757636f307dc360e01b81526020816004817312392f67bdf24fae0af363c24ac620a2f67dad865afa908115610146575f916100d7575b506080819052600180546001600160a01b0319166001600160a01b039092169190911790556040516132ff908161015282396080518181816106810152818161082001528181610d7a015281816111e3015281816114a10152818161175c01528181611ba90152818161205a015281816121c00152818161244601528181612a3001528181612cc501528181612d9c0152612ed60152f35b905060203d60201161013f575b601f8101601f191682016001600160401b0381118382101761012b5760209183916040528101031261012757516001600160a01b0381168103610127575f61003f565b5f80fd5b634e487b7160e01b5f52604160045260245ffd5b503d6100e4565b6040513d5f823e3d90fdfe608080604052600436101561001c575b50361561001a575f80fd5b005b5f905f3560e01c90816309ebc148146102c85750806327978561146102a25780633c2448ed1461028957806349343624146102605780635ff972cc14610242578063d41b6b6d1461021c578063d559a1c2146101f9578063e795e7e6146101d35763f04f27070361000f57346101d05760803660031901126101d05760043567ffffffffffffffff81116101ce57366023820112156101ce5780600401356100c3816104fe565b916100d160405193846104dc565b8183526024602084019260051b820101903682116101a257602401915b8183106101aa5750505060243567ffffffffffffffff811161019e57610118903690600401610516565b60443567ffffffffffffffff81116101a657610138903690600401610516565b906064359267ffffffffffffffff84116101a257366023850112156101a2578484600401359461016786610573565b9561017560405197886104dc565b808752366024828401011161019e5761019b968160246020940184830137010152610787565b80f35b8280fd5b8480fd5b8380fd5b82356001600160a01b03811681036101ca578152602092830192016100ee565b8580fd5b505b80fd5b50346101d057806003193601126101d057602060ff60045460181c166040519015158152f35b50346101d057806003193601126101d057602060ff600454166040519015158152f35b50346101d057806003193601126101d057602060ff60045460081c166040519015158152f35b50346101d057806003193601126101d0576020600254604051908152f35b50346101d057806003193601126101d0576001546040516001600160a01b039091168152602090f35b50346101d057806003193601126101d05761019b610654565b50346101d057806003193601126101d057602060ff60045460101c166040519015158152f35b905034610466576040366003190112610466576004356001600160a01b03811691908290036104665730330361047e575060ff5f5416600281101561046a576001610313911461058f565b604080519161032282846104dc565b60018352601f198201908136602086013761033c846105c8565b5281519061034a83836104dc565b600182526020820190368237602435610362836105c8565b52825160209261037284836104dc565b5f825273ba12222222228d8ba445958a75a0704d566bf2c83b15610466578451632e1c224f60e11b81523060048201526080602482015295869392919085906103bf906084870190610609565b8581036003190160448701529151808352910192905f5b81811061044f5750505083915f9484926003198484030160648501528051918291828552018584015e8181018401869052601f01601f1916010301818373ba12222222228d8ba445958a75a0704d566bf2c85af1908115610446575061043a575080f35b61001a91505f906104dc565b513d5f823e3d90fd5b8251855288955093860193918601916001016103d6565b5f80fd5b634e487b7160e01b5f52602160045260245ffd5b62461bcd60e51b815260206004820152600960248201526873656c662d6f6e6c7960b81b6044820152606490fd5b60a0810190811067ffffffffffffffff8211176104c857604052565b634e487b7160e01b5f52604160045260245ffd5b90601f8019910116810190811067ffffffffffffffff8211176104c857604052565b67ffffffffffffffff81116104c85760051b60200190565b9080601f8301121561046657813561052d816104fe565b9261053b60405194856104dc565b81845260208085019260051b82010192831161046657602001905b8282106105635750505090565b8135815260209182019101610556565b67ffffffffffffffff81116104c857601f01601f191660200190565b1561059657565b60405162461bcd60e51b815260206004820152600a60248201526977726f6e672d6d6f646560b01b6044820152606490fd5b8051156105d55760200190565b634e487b7160e01b5f52603260045260245ffd5b8051600110156105d55760400190565b8051600210156105d55760600190565b90602080835192838152019201905f5b8181106106265750505090565b82516001600160a01b0316845260209384019390920191600101610619565b90816020910312610466575190565b5f5460ff8160081c166107565761ff001916610100175f556040516370a0823160e01b81523060048201527f00000000000000000000000000000000000000000000000000000000000000006001600160a01b031690602081602481855afa90811561074b575f91610719575b506003556bffffffffffffffffffffffff60a01b60015416176001555f6002556106e9610d5f565b6106f1610e15565b6106f9611484565b630101000063ffff0000196004541617600455610714611741565b600255565b90506020813d602011610743575b81610734602093836104dc565b8101031261046657515f6106c1565b3d9150610727565b6040513d5f823e3d90fd5b50565b9190820391821161076657565b634e487b7160e01b5f52601160045260245ffd5b9190820180921161076657565b919073ba12222222228d8ba445958a75a0704d566bf2c83303610d2e575f549260ff8416600281101561046a5760016107c0911461058f565b600181511480610d23575b80610d18575b15610cdf576001600160a01b03906107e8906105c8565b5160109490941c6001600160a01b03169316839003610ca75761080a906105c8565b516040516370a0823160e01b81523060048201527f0000000000000000000000000000000000000000000000000000000000000000936001600160a01b0385169391929190602084602481885afa93841561074b575f94610c73575b5085858203610c0c575b50506040516370a0823160e01b815230600482015290602082602481885afa91821561074b575f92610bd8575b5083821115610ba2576108be6108b96108ca956108c394610759565b611b8d565b6105c8565b519061077a565b5f5490919060101c6001600160a01b03168114610af857505f546040516370a0823160e01b815230600482015291929060101c6001600160a01b0316602083602481845afa90811561074b5784935f92610ac1575b508192848310610991575b5050501061094c575f5461094a919060101c6001600160a01b0316611f70565b565b60405162461bcd60e51b815260206004820152601960248201527f666c6173682d6c6f616e2d6e6f742d70726f66697461626c65000000000000006044820152606490fd5b9091935061099f925061180e565b60208101519091906001600160a01b031615610a87576109c26109c89184610759565b8261203e565b8015610a53576109d791611897565b505f546040516370a0823160e01b8152306004820152906020908290602490829060101c6001600160a01b03165afa801561074b5782915f91610a1e575b505f808061092a565b9150506020813d602011610a4b575b81610a3a602093836104dc565b81010312610466578190515f610a15565b3d9150610a2d565b60405162461bcd60e51b815260206004820152600c60248201526b1c5d5bdd194b59985a5b195960a21b6044820152606490fd5b60405162461bcd60e51b81526020600482015260126024820152711b9bcb58dd5c9d994b5c9bdd5d194b5bdd5d60721b6044820152606490fd5b935090506020833d602011610af0575b81610ade602093836104dc565b8101031261046657839251905f61091f565b3d9150610ad1565b6020602491604051928380926370a0823160e01b82523060048301525afa801561074b5782915f91610b6d575b5010610b345761094a91611f70565b60405162461bcd60e51b81526020600482015260116024820152701a5b9cdd59999a58da595b9d0b5d1d5cd9607a1b6044820152606490fd5b9150506020813d602011610b9a575b81610b89602093836104dc565b81010312610466578190515f610b25565b3d9150610b7c565b60405162461bcd60e51b815260206004820152600e60248201526d1b9bcb5d1d5cd90b599d5b99195960921b6044820152606490fd5b9091506020813d602011610c04575b81610bf4602093836104dc565b810103126104665751905f61089d565b3d9150610be7565b610c159161180e565b60208101516001600160a01b031615610c3a5782610c3291611897565b505f85610870565b60405162461bcd60e51b8152602060048201526011602482015270373796b1bab93b3296b937baba3296b4b760791b6044820152606490fd5b9093506020813d602011610c9f575b81610c8f602093836104dc565b810103126104665751925f610866565b3d9150610c82565b60405162461bcd60e51b815260206004820152601060248201526f3ab732bc3832b1ba32b216ba37b5b2b760811b6044820152606490fd5b60405162461bcd60e51b815260206004820152601160248201527073696e676c652d746f6b656e2d6f6e6c7960781b6044820152606490fd5b5060018351146107d1565b5060018251146107cb565b60405162461bcd60e51b81526020600482015260096024820152681b9bdd0b5d985d5b1d60ba1b6044820152606490fd5b6040516370a0823160e01b81523060048201526020816024817f00000000000000000000000000000000000000000000000000000000000000006001600160a01b03165afa90811561074b575f91610de3575b50801561075657683635c9adc5dea000008111610dd3575b61094a90611b8d565b50683635c9adc5dea00000610dca565b90506020813d602011610e0d575b81610dfe602093836104dc565b8101031261046657515f610db2565b3d9150610df1565b5f805461ff01600160b01b03191675a0b86991c6218b36c1d19d4a2e9eb0ce3606eb480001178155610e45611741565b303b156104665760405163013d782960e31b815273a0b86991c6218b36c1d19d4a2e9eb0ce3606eb486004820152643a3529440060248201525f8160448183305af190816113d6575b506113b0575b505f805460ff19169055805462010000600160b01b03191681556702c68af0bb140000610ebf611741565b1015610756575f805460ff19166001179055805462010000600160b01b03191675a0b86991c6218b36c1d19d4a2e9eb0ce3606eb480000178155610f01611741565b303b156101ce5760405163013d782960e31b815273a0b86991c6218b36c1d19d4a2e9eb0ce3606eb48600482015264e8d4a51000602482015282808260448183305af1918261139b575b5050611375575b505f805460ff19169055805462010000600160b01b03191681556702c68af0bb140000610f7d611741565b1015610756575f805460ff19166001179055805462010000600160b01b031916756b175474e89094c44da98b954eedeac495271d0f0000178155610fbf611741565b303b156101ce5760405163013d782960e31b8152736b175474e89094c44da98b954eedeac495271d0f60048201526934f086f3b33b68400000602482015282808260448183305af19182611360575b505061133a575b505f805460ff19169055805462010000600160b01b03191681556702c68af0bb140000611040611741565b1015610756575f805460ff19166001179055805462010000600160b01b031916756b175474e89094c44da98b954eedeac495271d0f0000178155611082611741565b303b156101ce5760405163013d782960e31b8152736b175474e89094c44da98b954eedeac495271d0f600482015269d3c21bcecceda1000000602482015282808260448183305af19182611325575b50506112ff575b505f805460ff19169055805462010000600160b01b03191681556702c68af0bb140000611103611741565b1015610756575f805460ff19166001179055805462010000600160b01b03191675dac17f958d2ee523a2206206994597c13d831ec70000178155611145611741565b303b156101ce5760405163013d782960e31b815273dac17f958d2ee523a2206206994597c13d831ec76004820152643a35294400602482015282808260448183305af191826112ea575b50506112c4575b505f805460ff19169055805462010000600160b01b03191681556702c68af0bb1400006111c1611741565b1015610756575f805460ff19166001179055805462010000600160b01b0319167f0000000000000000000000000000000000000000000000000000000000000000601081901b62010000600160b01b0316919091178255611220611741565b90303b1561019e5760405163013d782960e31b81526001600160a01b03909116600482015269152d02c7e14af6800000602482015282808260448183305af191826112af575b5050611289575b505f805460ff19169055805462010000600160b01b0319169055565b611291611741565b1161129d575b5f61126d565b600160ff196004541617600455611297565b816112b9916104dc565b61019e57825f611266565b6112cc611741565b116112d8575b5f611196565b600160ff1960045416176004556112d2565b816112f4916104dc565b61019e57825f61118f565b611307611741565b11611313575b5f6110d8565b600160ff19600454161760045561130d565b8161132f916104dc565b61019e57825f6110d1565b611342611741565b1161134e575b5f611015565b600160ff196004541617600455611348565b8161136a916104dc565b61019e57825f61100e565b61137d611741565b11611389575b5f610f52565b600160ff196004541617600455611383565b816113a5916104dc565b61019e57825f610f4b565b6113b8611741565b116113c4575b5f610e94565b600160ff1960045416176004556113be565b6113e39193505f906104dc565b5f915f610e8e565b9081602091031261046657516001600160a01b03811681036104665790565b6020818303126104665780519067ffffffffffffffff821161046657019080601f8301121561046657815161143e816104fe565b9261144c60405194856104dc565b81845260208085019260051b82010192831161046657602001905b8282106114745750505090565b8151815260209182019101611467565b6040516370a0823160e01b81523060048201525f906020816024817f00000000000000000000000000000000000000000000000000000000000000006001600160a01b03165afa801561074b575f90611706575b680ada55474b8134000091501115610756576114f261217f565b80156117025773c02aaa39b223fe8d0a0e5c4f27ead9083c756cc23b1561046657604051632e1a7d4d60e01b8152600481018290525f816024818373c02aaa39b223fe8d0a0e5c4f27ead9083c756cc25af1801561074b576116ed575b50734ddc2d193948926d02f9b1fe9e1daa0718270ed53b156101ce578160049160405192838092631249c58b60e01b8252734ddc2d193948926d02f9b1fe9e1daa0718270ed55af180156116e2579082916116cd575b5050604080516115b582826104dc565b60018152601f198201366020830137734ddc2d193948926d02f9b1fe9e1daa0718270ed56115e2826105c8565b528151635fe3b56760e01b8152906020826004815f5160206132aa5f395f51905f525afa9182156116c057849392849261164192849261168f575b508451958680948193631853304760e31b8352602060048401526024830190610609565b03926001600160a01b03165af19081156116865750611665575b505061094a612358565b611680913d8091833e61167881836104dc565b81019061140a565b5f61165b565b513d84823e3d90fd5b6116b291925060203d6020116116b9575b6116aa81836104dc565b8101906113eb565b905f61161d565b503d6116a0565b50505051903d90823e3d90fd5b816116d7916104dc565b6101d057805f6115a5565b6040513d84823e3d90fd5b6116fa9192505f906104dc565b5f905f61154f565b5050565b506020813d602011611739575b81611720602093836104dc565b8101031261046657680ada55474b8134000090516114d8565b3d9150611713565b6040516370a0823160e01b81523060048201526020816024817f00000000000000000000000000000000000000000000000000000000000000006001600160a01b03165afa90811561074b575f916117b2575b50600354808211156117ac576117a991610759565b90565b50505f90565b90506020813d6020116117dc575b816117cd602093836104dc565b8101031261046657515f611794565b3d91506117c0565b604051906117f1826104ac565b5f6080838281528260208201528260408201528260608201520152565b906118176117e4565b5061182a8183611825612694565b6127b5565b60208101516001600160a01b0316611891575061184a81836118256126ed565b60208101516001600160a01b0316611891575061186a818361182561272b565b60208101519092906001600160a01b031661188c576117a99250611825612769565b505090565b91505090565b8115611b5c5760808101805190919015611b46576118bb6040820151600f0b61297e565b905b825115611b31576118d46060820151600f0b61297e565b6040516370a0823160e01b8152306004820152936001600160a01b03919091169290602085602481875afa94851561074b575f95611afd575b5061193b86602085019361192a60018060a01b0386511682612a52565b84516001600160a01b031690612b1f565b5115611a7757516040828101516060909301519051635320bf6b60e11b8152600f93840b6004820152920b602483015260448201949094525f606482018190529093602091859160849183916001600160a01b03165af190811561074b57602493602092611a4a575b505b6040516370a0823160e01b815230600482015293849182905afa801561074b575f90611a16575b6119d79250610759565b9081156119e057565b60405162461bcd60e51b815260206004820152600e60248201526d18dd5c9d994b5e995c9bcb5bdd5d60921b6044820152606490fd5b506020823d602011611a42575b81611a30602093836104dc565b81010312610466576119d791516119cd565b3d9150611a23565b611a6990833d8511611a70575b611a6181836104dc565b810190610645565b505f6119a4565b503d611a57565b516040828101516060909301519051630f7c084960e21b8152600f93840b6004820152920b602483015260448201949094525f606482018190529093602091859160849183916001600160a01b03165af190811561074b57602493602092611ae0575b506119a6565b611af690833d8511611a7057611a6181836104dc565b505f611ada565b9094506020813d602011611b29575b81611b19602093836104dc565b810103126104665751935f61190d565b3d9150611b0c565b611b416060820151600f0b61297e565b6118d4565b611b566040820151600f0b61297e565b906118bd565b60405162461bcd60e51b815260206004820152600960248201526807a65726f2d737761760bc1b6044820152606490fd5b8015610756576040516370a0823160e01b8152306004820152907f00000000000000000000000000000000000000000000000000000000000000006001600160a01b03811691602084602481865afa93841561074b575f94611f00575b506040516370a0823160e01b8152306004820152916020836024815f5160206132aa5f395f51905f525afa92831561074b575f93611ecc575b505f81611c308293612ae1565b60405182602082019163095ea7b360e01b83525f5160206132aa5f395f51905f52602482015286604482015260448152611c6b6064826104dc565b51925af1611c77611f34565b81611e95575b5015611e5f576040519063140e25ad60e31b825260048201526020816024815f5f5160206132aa5f395f51905f525af190811561074b575f91611e2d575b50611e28576040516370a0823160e01b8152306004820152906020826024815f5160206132aa5f395f51905f525afa91821561074b575f92611df4575b5080821115611dee57611d0a91610759565b6040519063db006a7560e01b825260048201526020816024815f5f5160206132aa5f395f51905f525af190811561074b575f91611dbc575b50611702576020602491604051928380926370a0823160e01b82523060048301525afa90811561074b575f91611d8a575b5011611d7b57565b600160ff196004541617600455565b90506020813d602011611db4575b81611da5602093836104dc565b8101031261046657515f611d73565b3d9150611d98565b90506020813d602011611de6575b81611dd7602093836104dc565b8101031261046657515f611d42565b3d9150611dca565b50505050565b9091506020813d602011611e20575b81611e10602093836104dc565b810103126104665751905f611cf8565b3d9150611e03565b505050565b90506020813d602011611e57575b81611e48602093836104dc565b8101031261046657515f611cbb565b3d9150611e3b565b60405162461bcd60e51b815260206004820152600e60248201526d185c1c1c9bdd994b59985a5b195960921b6044820152606490fd5b8051801592508215611eaa575b50505f611c7d565b8192509060209181010312610466576020611ec59101611f63565b5f80611ea2565b9092506020813d602011611ef8575b81611ee8602093836104dc565b810103126104665751915f611c23565b3d9150611edb565b9093506020813d602011611f2c575b81611f1c602093836104dc565b810103126104665751925f611bea565b3d9150611f0f565b3d15611f5e573d90611f4582610573565b91611f5360405193846104dc565b82523d5f602084013e565b606090565b5190811515820361046657565b5f9190829182604051602081019263a9059cbb60e01b845273ba12222222228d8ba445958a75a0704d566bf2c86024830152604482015260448152611fb66064826104dc565b51925af1611fc2611f34565b81612007575b5015611fd057565b60405162461bcd60e51b815260206004820152600f60248201526e1d1c985b9cd9995c8b59985a5b1959608a1b6044820152606490fd5b805180159250821561201c575b50505f611fc8565b81925090602091810103126104665760206120379101611f63565b5f80612014565b6040516370a0823160e01b8152306004820152906020826024817f00000000000000000000000000000000000000000000000000000000000000006001600160a01b03165afa91821561074b575f9261214b575b508115612144575f92828460015b601882106120db575b50505082841592836120c6575b5050506120c1575090565b905090565b6120d1929350612b5f565b10155f82816120b6565b9091956120f46120eb8389610759565b60011c8361077a565b96846121008988612b5f565b1061212c5750508560018114612127575f19810190811161076657600190925b01906120a0565b6120a9565b92915095600181018091116107665760019091612120565b5050505f90565b9091506020813d602011612177575b81612167602093836104dc565b810103126104665751905f612092565b3d915061215a565b6040516370a0823160e01b815230600482015260208160248173c02aaa39b223fe8d0a0e5c4f27ead9083c756cc25afa90811561074b575f91612326575b507f00000000000000000000000000000000000000000000000000000000000000006121fa6121eb82612c51565b680ad78ebc5ac6200000612ca4565b6122de5761221961220a82612c51565b680ad78ebc5ac6200000612d7b565b6122de576122296121eb82612dfc565b6122de5761223961220a82612dfc565b6122de576122496121eb82612e6b565b6122de5761220a61225991612e6b565b61226257505f90565b6040516370a0823160e01b81523060048201529060208260248173c02aaa39b223fe8d0a0e5c4f27ead9083c756cc25afa801561074b575f906122aa575b6117a99250610759565b506020823d6020116122d6575b816122c4602093836104dc565b81010312610466576117a991516122a0565b3d91506122b7565b506040516370a0823160e01b81523060048201529060208260248173c02aaa39b223fe8d0a0e5c4f27ead9083c756cc25afa801561074b575f906122aa576117a99250610759565b90506020813d602011612350575b81612341602093836104dc565b8101031261046657515f6121bd565b3d9150612334565b604051635fe3b56760e01b81526020816004815f5160206132aa5f395f51905f525afa90811561074b576024916060915f91612675575b50604051635ec88c7960e01b815230600482015292839182906001600160a01b03165afa801561074b575f915f91612639575b5015801590612631575b61075657604051631d8e90d160e11b81526020816004815f5160206132aa5f395f51905f525afa90811561074b575f916125ff575b508015611702576802b5e3af16b188000091603c810290808204603c149015171561076657606490048083116125f7575b508082116125ef575b508015610756575f807f000000000000000000000000000000000000000000000000000000000000000061246e81612ae1565b60405182602082019163095ea7b360e01b83525f5160206132aa5f395f51905f52602482015281196044820152604481526124aa6064826104dc565b51925af16124b6611f34565b816125b8575b5015611e5f576040519063317afabb60e21b825260048201526020816024815f5f5160206132aa5f395f51905f525af190811561074b575f91612586575b5061094a57612507612ed4565b61250f6130eb565b61252b575b61251a57565b61010061ff00196004541617600455565b5f80604051602081019063073a938160e11b825282196024820152602481526125556044826104dc565b5190825f5160206132aa5f395f51905f525af1612570611f34565b50156107565761257e6130eb565b156125145750565b90506020813d6020116125b0575b816125a1602093836104dc565b8101031261046657515f6124fa565b3d9150612594565b80518015925082156125cd575b50505f6124bc565b81925090602091810103126104665760206125e89101611f63565b5f806125c5565b90505f61243b565b91505f612432565b90506020813d602011612629575b8161261a602093836104dc565b8101031261046657515f612401565b3d915061260d565b5080156123cc565b9150506060813d60601161266d575b81612655606093836104dc565b8101031261046657604060208201519101515f6123c2565b3d9150612648565b61268e915060203d6020116116b9576116aa81836104dc565b5f61238f565b60405163a262904b60e01b81526020816004816f22d53366457f9d5e68ec105046fc43835afa5f91816126cc575b506117a957505f90565b6126e691925060203d6020116116b9576116aa81836104dc565b905f6126c2565b60405163124fd3dd60e21b8152600360048201526020816024816f22d53366457f9d5e68ec105046fc43835afa5f91816126cc57506117a957505f90565b60405163124fd3dd60e21b8152600560048201526020816024816f22d53366457f9d5e68ec105046fc43835afa5f91816126cc57506117a957505f90565b60405163124fd3dd60e21b8152600660048201526020816024816f22d53366457f9d5e68ec105046fc43835afa5f91816126cc57506117a957505f90565b519081600f0b820361046657565b9291906127c06117e4565b936001600160a01b0316918215611e2857604051632a1f7c1b60e21b81526001600160a01b0392831660048201819052919092166024830181905291602081604481875afa5f918161295d575b506129585750604051636982eb0b60e01b81528160048201528260248201525f6044820152602081606481875afa5f9181612937575b5061284e5750505050565b6001600160a01b0316918215611dee576040519163eb85226d60e01b835283600484015260248301526044820152606081606481865afa915f90835f935f956128dc575b5061289f575b5050505050565b90919293949550604051946128b3866104ac565b85526020850152600f0b6040840152600f0b606083015215156080820152905f80808080612898565b9250935091506060813d60601161292f575b816128fb606093836104dc565b810103126104665761290c816127a7565b91612925604061291e602085016127a7565b9301611f63565b929192935f612892565b3d91506128ee565b61295191925060203d6020116116b9576116aa81836104dc565b905f612843565b61284e565b61297791925060203d6020116116b9576116aa81836104dc565b905f61280d565b600f0b8015612a2d5760018114612a1457600281146129fb576003146129e35760405162461bcd60e51b815260206004820152601760248201527f756e737570706f727465642d63757276652d696e6465780000000000000000006044820152606490fd5b73dac17f958d2ee523a2206206994597c13d831ec790565b5073a0b86991c6218b36c1d19d4a2e9eb0ce3606eb4890565b50736b175474e89094c44da98b954eedeac495271d0f90565b507f000000000000000000000000000000000000000000000000000000000000000090565b60405163095ea7b360e01b602082019081526001600160a01b0390931660248201525f60448083018290528252928392918390612a906064826104dc565b51925af1612a9c611f34565b81612aaa575b5015611e5f57565b8051801592508215612abf575b50505f612aa2565b8192509060209181010312610466576020612ada9101611f63565b5f80612ab7565b5f809160405182602082019163095ea7b360e01b83525f5160206132aa5f395f51905f52602482015281604482015260448152612a906064826104dc565b60405163095ea7b360e01b602082019081526001600160a01b0390931660248201526044808201949094529283525f928392908390612a906064826104dc565b81156117ac576080810151612c02576020818101516040808401516060909401519051635e0d443f60e01b8152600f94850b6004820152930b60248401526044830193909352909182906001600160a01b03168180606481015b03915afa5f9181612bce57506117a957505f90565b9091506020813d602011612bfa575b81612bea602093836104dc565b810103126104665751905f6126c2565b3d9150612bdd565b60208181015160408084015160609094015190516307211ef760e01b8152600f94850b6004820152930b60248401526044830193909352909182906001600160a01b0316818060648101612bb9565b9073c02aaa39b223fe8d0a0e5c4f27ead9083c756cc2612ca1604051612c786060826104dc565b6002815260403660208301378094612c8f826105c8565b6001600160a01b0390911690526105e9565b52565b612d21915f91612cf381737a250d5630b4cf539739df2c5dacb4c659f2488d7f0000000000000000000000000000000000000000000000000000000000000000612cee8282612a52565b612b1f565b60405193849283926338ed173960e01b8452600484015284602484015260a0604484015260a4830190610609565b306064830152426084830152038183737a250d5630b4cf539739df2c5dacb4c659f2488d5af15f9181612d5f575b50612d5957505f90565b51151590565b612d749192503d805f833e61167881836104dc565b905f612d4f565b612dc5915f91612cf38173d9e1ce17f2641f24ae83637ab66a2cca9c378b9f7f0000000000000000000000000000000000000000000000000000000000000000612cee8282612a52565b30606483015242608483015203818373d9e1ce17f2641f24ae83637ab66a2cca9c378b9f5af15f9181612d5f5750612d5957505f90565b9073c02aaa39b223fe8d0a0e5c4f27ead9083c756cc2612ca1604051612e236080826104dc565b6003815260603660208301378094612e3a826105c8565b6001600160a01b03909116905273a0b86991c6218b36c1d19d4a2e9eb0ce3606eb48612e65826105e9565b526105f9565b9073c02aaa39b223fe8d0a0e5c4f27ead9083c756cc2612ca1604051612e926080826104dc565b6003815260603660208301378094612ea9826105c8565b6001600160a01b03909116905273dac17f958d2ee523a2206206994597c13d831ec7612e65826105e9565b7f00000000000000000000000000000000000000000000000000000000000000006001600160a01b03165f5b60108110612f0e5750505f90565b612f166130eb565b80156130e357612f268183613126565b9081156130d9576040516370a0823160e01b815230600482015291602083602481885afa92831561074b575f936130a6575b5080831061309b575f8091604051602081019163073a938160e11b8352602482015260248152612f896044826104dc565b5190825f5160206132aa5f395f51905f525af190612fa5611f34565b50612fae6130eb565b91604051936370a0823160e01b85523060048601526020856024818a5afa94851561074b575f95613068575b50848082111561305f57612fed91610759565b905b156130535782808311928361303f575b50505061303657159081613024575b5061301d576001905b01612f00565b5050600190565b6702c68af0bb1400009150115f61300e565b50505050600190565b61304a929350610759565b115f8281612fff565b50505050600190613017565b50505f90612fef565b9094506020813d8211613093575b81613083602093836104dc565b810103126104665751935f612fda565b3d9150613076565b505050600190613017565b9092506020813d82116130d1575b816130c1602093836104dc565b810103126104665751915f612f58565b3d91506130b4565b5050600190613017565b505050600190565b6040516305eff7ef60e21b81523060048201526020816024815f5f5160206132aa5f395f51905f525af15f9181612bce57506117a957505f90565b801561301d57600181146132a057600281146132955760038114613288576004811461327a5760058114613273576006811461326c5760078114613265576008811461325e576009811461325757600a811461325057600b811461324957600c811461322f57600d81148061321e575b61320757600e8114806131f6575b6131df57600f14806131cf575b6131ba57505f90565b66038d7ea4c67fff1981019081116107665790565b5066038d7ea4c6800081116131b1565b5067016345785d89ffff1981019081116107665790565b5067016345785d8a000082116131a4565b50670de0b6b3a763ffff1981019081116107665790565b50670de0b6b3a76400008211613196565b506003810290808204600314901517156107665760021c90565b5060011c90565b5060021c90565b5060041c90565b5060061c90565b5060081c90565b50600a1c90565b50600b1c90565b505067016345785d8a000090565b505066038d7ea4c6800090565b505064e8d4a5100090565b5050620f42409056fe00000000000000000000000012392f67bdf24fae0af363c24ac620a2f67dad86a2646970667358221220fbe0b97f14ff27a3887060002bdcc9d2b374eed937b14f1f32430e7b233f63f664736f6c634300081e0033","linkReferences":{}},"methodIdentifiers":{"addReservesPathProvablyInfeasible()":"e795e7e6","executeOnOpportunity()":"3c2448ed","initiateBalancerFlashLoan(address,uint256)":"09ebc148","liquidationPathProvablyInfeasible()":"27978561","mintPathValidated()":"d559a1c2","profitAmount()":"5ff972cc","profitToken()":"49343624","receiveFlashLoan(address[],uint256[],uint256[],bytes)":"f04f2707","repayPathValidated()":"d41b6b6d"},"id":0}