{"abi":[{"type":"constructor","inputs":[],"stateMutability":"nonpayable"},{"type":"receive","stateMutability":"payable"},{"type":"function","name":"STATUS_DIRECT_SUCCESS","inputs":[],"outputs":[{"name":"","type":"uint8","internalType":"uint8"}],"stateMutability":"view"},{"type":"function","name":"STATUS_FLASH_FAILED","inputs":[],"outputs":[{"name":"","type":"uint8","internalType":"uint8"}],"stateMutability":"view"},{"type":"function","name":"STATUS_FLASH_SUCCESS","inputs":[],"outputs":[{"name":"","type":"uint8","internalType":"uint8"}],"stateMutability":"view"},{"type":"function","name":"STATUS_NO_REPAY_PATH","inputs":[],"outputs":[{"name":"","type":"uint8","internalType":"uint8"}],"stateMutability":"view"},{"type":"function","name":"STATUS_NO_WRITER_BALANCE","inputs":[],"outputs":[{"name":"","type":"uint8","internalType":"uint8"}],"stateMutability":"view"},{"type":"function","name":"STATUS_UNSET","inputs":[],"outputs":[{"name":"","type":"uint8","internalType":"uint8"}],"stateMutability":"view"},{"type":"function","name":"TARGET","inputs":[],"outputs":[{"name":"","type":"address","internalType":"address"}],"stateMutability":"view"},{"type":"function","name":"approve","inputs":[{"name":"","type":"address","internalType":"address"},{"name":"","type":"uint256","internalType":"uint256"}],"outputs":[{"name":"","type":"bool","internalType":"bool"}],"stateMutability":"pure"},{"type":"function","name":"attackerExchange","inputs":[],"outputs":[{"name":"","type":"address","internalType":"address"}],"stateMutability":"view"},{"type":"function","name":"balanceOf","inputs":[{"name":"","type":"address","internalType":"address"}],"outputs":[{"name":"","type":"uint256","internalType":"uint256"}],"stateMutability":"pure"},{"type":"function","name":"collateral","inputs":[],"outputs":[{"name":"","type":"address","internalType":"address"}],"stateMutability":"view"},{"type":"function","name":"executeOnOpportunity","inputs":[],"outputs":[],"stateMutability":"nonpayable"},{"type":"function","name":"expiryTime","inputs":[],"outputs":[{"name":"","type":"uint256","internalType":"uint256"}],"stateMutability":"pure"},{"type":"function","name":"exploitPath","inputs":[],"outputs":[{"name":"","type":"string","internalType":"string"}],"stateMutability":"pure"},{"type":"function","name":"fakeAcoToken","inputs":[],"outputs":[{"name":"","type":"address","internalType":"address"}],"stateMutability":"view"},{"type":"function","name":"fakeCollateral","inputs":[],"outputs":[{"name":"","type":"address","internalType":"address"}],"stateMutability":"view"},{"type":"function","name":"getTokenAmount","inputs":[{"name":"collateralAmount","type":"uint256","internalType":"uint256"}],"outputs":[{"name":"","type":"uint256","internalType":"uint256"}],"stateMutability":"pure"},{"type":"function","name":"hypothesisRefuted","inputs":[],"outputs":[{"name":"","type":"bool","internalType":"bool"}],"stateMutability":"view"},{"type":"function","name":"hypothesisValidated","inputs":[],"outputs":[{"name":"","type":"bool","internalType":"bool"}],"stateMutability":"view"},{"type":"function","name":"lastTargetToken","inputs":[],"outputs":[{"name":"","type":"address","internalType":"address"}],"stateMutability":"view"},{"type":"function","name":"lastWriteFailure","inputs":[],"outputs":[{"name":"","type":"bytes","internalType":"bytes"}],"stateMutability":"view"},{"type":"function","name":"mintTo","inputs":[{"name":"","type":"address","internalType":"address"},{"name":"","type":"uint256","internalType":"uint256"}],"outputs":[],"stateMutability":"nonpayable"},{"type":"function","name":"mintToPayable","inputs":[{"name":"","type":"address","internalType":"address"}],"outputs":[],"stateMutability":"payable"},{"type":"function","name":"profitAmount","inputs":[],"outputs":[{"name":"","type":"uint256","internalType":"uint256"}],"stateMutability":"view"},{"type":"function","name":"profitToken","inputs":[],"outputs":[{"name":"","type":"address","internalType":"address"}],"stateMutability":"view"},{"type":"function","name":"status","inputs":[],"outputs":[{"name":"","type":"uint8","internalType":"uint8"}],"stateMutability":"view"},{"type":"function","name":"strikeAsset","inputs":[],"outputs":[{"name":"","type":"address","internalType":"address"}],"stateMutability":"view"},{"type":"function","name":"successfulSweeps","inputs":[],"outputs":[{"name":"","type":"uint256","internalType":"uint256"}],"stateMutability":"view"},{"type":"function","name":"transfer","inputs":[{"name":"","type":"address","internalType":"address"},{"name":"","type":"uint256","internalType":"uint256"}],"outputs":[{"name":"","type":"bool","internalType":"bool"}],"stateMutability":"pure"},{"type":"function","name":"transferFrom","inputs":[{"name":"","type":"address","internalType":"address"},{"name":"","type":"address","internalType":"address"},{"name":"","type":"uint256","internalType":"uint256"}],"outputs":[{"name":"","type":"bool","internalType":"bool"}],"stateMutability":"pure"},{"type":"function","name":"uniswapV2Call","inputs":[{"name":"","type":"address","internalType":"address"},{"name":"amount0","type":"uint256","internalType":"uint256"},{"name":"amount1","type":"uint256","internalType":"uint256"},{"name":"","type":"bytes","internalType":"bytes"}],"outputs":[],"stateMutability":"nonpayable"}],"bytecode":{"object":"0x6080604052348015600e575f5ffd5b506155b18061001c5f395ff3fe6080604052600436106101db575f3560e01c80635ff972cc11610101578063bc47343811610094578063cd1441dd11610063578063cd1441dd14610688578063d8dfeb45146106b2578063f29a0bf2146106dc578063f75971d514610706576101e2565b8063bc473438146105ce578063c2507ac1146105f8578063cb707c6214610634578063cc1f2afa1461065e576101e2565b806399bc0aea116100d057806399bc0aea146105225780639f99c11f1461054c578063a9059cbb14610576578063b0df1cc7146105b2576101e2565b80635ff972cc1461046857806370a08231146104925780637af65c86146104ce57806384253d73146104f8576101e2565b80633c2448ed11610179578063495f92f111610148578063495f92f1146103c05780634b4099a4146103ea5780634d509133146104145780635bf5fc541461043e576101e2565b80633c2448ed1461032e578063449a52f814610344578063463defd11461036c5780634934362414610396576101e2565b806310d1e85c116101b557806310d1e85c1461027657806317d69bc81461029e578063200d2ed2146102c857806323b872dd146102f2576101e2565b806305f5b76d146101e6578063095ea7b3146102105780630e253c461461024c576101e2565b366101e257005b5f5ffd5b3480156101f1575f5ffd5b506101fa610730565b6040516102079190614599565b60405180910390f35b34801561021b575f5ffd5b5061023660048036038101906102319190614647565b610735565b604051610243919061469f565b60405180910390f35b348015610257575f5ffd5b50610260610740565b60405161026d91906146c7565b60405180910390f35b348015610281575f5ffd5b5061029c60048036038101906102979190614741565b610747565b005b3480156102a9575f5ffd5b506102b261094d565b6040516102bf91906146c7565b60405180910390f35b3480156102d3575f5ffd5b506102dc610976565b6040516102e99190614599565b60405180910390f35b3480156102fd575f5ffd5b50610318600480360381019061031391906147c5565b610987565b604051610325919061469f565b60405180910390f35b348015610339575f5ffd5b50610342610993565b005b34801561034f575f5ffd5b5061036a60048036038101906103659190614647565b610b3d565b005b348015610377575f5ffd5b50610380610b41565b60405161038d919061469f565b60405180910390f35b3480156103a1575f5ffd5b506103aa610b53565b6040516103b791906146c7565b60405180910390f35b3480156103cb575f5ffd5b506103d4610b67565b6040516103e1919061469f565b60405180910390f35b3480156103f5575f5ffd5b506103fe610b79565b60405161040b91906146c7565b60405180910390f35b34801561041f575f5ffd5b50610428610b80565b6040516104359190614824565b60405180910390f35b348015610449575f5ffd5b50610452610b86565b60405161045f9190614599565b60405180910390f35b348015610473575f5ffd5b5061047c610b8b565b6040516104899190614824565b60405180910390f35b34801561049d575f5ffd5b506104b860048036038101906104b3919061483d565b610b9f565b6040516104c59190614824565b60405180910390f35b3480156104d9575f5ffd5b506104e2610ba8565b6040516104ef9190614599565b60405180910390f35b348015610503575f5ffd5b5061050c610bad565b6040516105199190614599565b60405180910390f35b34801561052d575f5ffd5b50610536610bb2565b6040516105439190614824565b60405180910390f35b348015610557575f5ffd5b50610560610bd9565b60405161056d91906146c7565b60405180910390f35b348015610581575f5ffd5b5061059c60048036038101906105979190614647565b610be0565b6040516105a9919061469f565b60405180910390f35b6105cc60048036038101906105c7919061483d565b610beb565b005b3480156105d9575f5ffd5b506105e2610bee565b6040516105ef91906148d8565b60405180910390f35b348015610603575f5ffd5b5061061e600480360381019061061991906148f8565b610c7a565b60405161062b9190614824565b60405180910390f35b34801561063f575f5ffd5b50610648610c83565b6040516106559190614975565b60405180910390f35b348015610669575f5ffd5b50610672610ca8565b60405161067f91906146c7565b60405180910390f35b348015610693575f5ffd5b5061069c610cc0565b6040516106a99190614599565b60405180910390f35b3480156106bd575f5ffd5b506106c6610cc5565b6040516106d391906146c7565b60405180910390f35b3480156106e7575f5ffd5b506106f0610ccc565b6040516106fd9190614599565b60405180910390f35b348015610711575f5ffd5b5061071a610cd0565b60405161072791906146c7565b60405180910390f35b600281565b5f6001905092915050565b5f30905090565b73b4e16d0168e52d35cacd2c6185b44281ec28c9dc73ffffffffffffffffffffffffffffffffffffffff163373ffffffffffffffffffffffffffffffffffffffff1614806107d4575073397ff1542f962076d0bfe58ea045ffa2d347aca073ffffffffffffffffffffffffffffffffffffffff163373ffffffffffffffffffffffffffffffffffffffff16145b610813576040517f08c379a000000000000000000000000000000000000000000000000000000000815260040161080a906149df565b60405180910390fd5b5f5f85116108215783610823565b845b90505f8111610867576040517f08c379a000000000000000000000000000000000000000000000000000000000815260040161085e90614a47565b60405180910390fd5b60014710156108ec5773c02aaa39b223fe8d0a0e5c4f27ead9083c756cc273ffffffffffffffffffffffffffffffffffffffff16632e1a7d4d60016040518263ffffffff1660e01b81526004016108be9190614824565b5f604051808303815f87803b1580156108d5575f5ffd5b505af11580156108e7573d5f5f3e3d5ffd5b505050505b6108f4610cf5565b6108fc610d99565b6109063382610e1a565b5f60025411156109455760025f5f6101000a81548160ff021916908360ff16021790555060015f60016101000a81548160ff0219169083151502179055505b505050505050565b5f600360029054906101000a900473ffffffffffffffffffffffffffffffffffffffff16905090565b5f5f9054906101000a900460ff1681565b5f600190509392505050565b60035f9054906101000a900460ff16610b3b57600160035f6101000a81548160ff021916908315150217905550600360019054906101000a900460ff166109dd576109dc610f20565b5b6109e5611022565b610a215760035f5f6101000a81548160ff021916908360ff1602179055505f60035f6101000a81548160ff021916908315150217905550610b3b565b610a2961114b565b15610a9b57610a36610cf5565b610a3e610d99565b5f6002541115610a7d5760015f5f6101000a81548160ff021916908360ff16021790555060015f60016101000a81548160ff0219169083151502179055505b5f60035f6101000a81548160ff021916908315150217905550610b3b565b5f610ab973b4e16d0168e52d35cacd2c6185b44281ec28c9dc611210565b905080610ae057610add73397ff1542f962076d0bfe58ea045ffa2d347aca0611210565b90505b80158015610b0057505f60ff165f5f9054906101000a900460ff1660ff16145b15610b205760045f5f6101000a81548160ff021916908360ff1602179055505b5f60035f6101000a81548160ff021916908315150217905550505b565b5050565b5f60019054906101000a900460ff1681565b5f5f610b5d611560565b5090508091505090565b5f60029054906101000a900460ff1681565b5f30905090565b60025481565b600481565b5f5f610b95611560565b9150508091505090565b5f5f9050919050565b600581565b600381565b5f7fffffffffffffffffffffffffffffffffffffffffffffffffffffffffffffffff905090565b5f30905090565b5f6001905092915050565b50565b60018054610bfb90614a92565b80601f0160208091040260200160405190810160405280929190818152602001828054610c2790614a92565b8015610c725780601f10610c4957610100808354040283529160200191610c72565b820191905f5260205f20905b815481529060010190602001808311610c5557829003601f168201915b505050505081565b5f819050919050565b6060604051602001610c9490614cfe565b604051602081830303815290604052905090565b73e7597f774fd0a15a617894dc39d45a28b97afa4f81565b600181565b5f30905090565b5f81565b5f60039054906101000a900473ffffffffffffffffffffffffffffffffffffffff1681565b5f610cfe611604565b90505f5f90505b6010811015610d3957610d2e828260108110610d2457610d23614d33565b5b6020020151611c0e565b806001019050610d05565b505f610d43611ec3565b90505f5f90505b6009811015610d94575f828260098110610d6757610d66614d33565b5b60200201519050610d7781611c0e565b610d88610d838261222d565b611c0e565b50806001019050610d4a565b505050565b5f4790505f811115610e175773c02aaa39b223fe8d0a0e5c4f27ead9083c756cc273ffffffffffffffffffffffffffffffffffffffff1663d0e30db0826040518263ffffffff1660e01b81526004015f604051808303818588803b158015610dff575f5ffd5b505af1158015610e11573d5f5f3e3d5ffd5b50505050505b50565b5f60016103e5600384610e2d9190614d8d565b610e379190614dfb565b610e419190614e2b565b82610e4c9190614e2b565b905080610e6d73c02aaa39b223fe8d0a0e5c4f27ead9083c756cc2306123f8565b1015610e7d57610e7c81612570565b5b5f610e9c73c02aaa39b223fe8d0a0e5c4f27ead9083c756cc2306123f8565b905081811015610efb5760055f5f6101000a81548160ff021916908360ff1602179055506040517f08c379a0000000000000000000000000000000000000000000000000000000008152600401610ef290614ea8565b60405180910390fd5b610f1a73c02aaa39b223fe8d0a0e5c4f27ead9083c756cc2858461295a565b50505050565b6001600360016101000a81548160ff0219169083151502179055505f610f44612aa9565b90505f5f90505b601981101561101e575f828260198110610f6857610f67614d33565b5b602002015190505f73ffffffffffffffffffffffffffffffffffffffff168173ffffffffffffffffffffffffffffffffffffffff1614158015610fc157505f8173ffffffffffffffffffffffffffffffffffffffff163b115b1561101257610fd081306123f8565b60055f8373ffffffffffffffffffffffffffffffffffffffff1673ffffffffffffffffffffffffffffffffffffffff1681526020019081526020015f20819055505b50806001019050610f4b565b5050565b5f5f61102c611604565b90505f5f90505b601081101561108e575f61107283836010811061105357611052614d33565b5b602002015173e7597f774fd0a15a617894dc39d45a28b97afa4f6123f8565b111561108357600192505050611148565b806001019050611033565b505f611098611ec3565b90505f5f90505b6009811015611141575f8282600981106110bc576110bb614d33565b5b602002015190505f6110e28273e7597f774fd0a15a617894dc39d45a28b97afa4f6123f8565b11156110f5576001945050505050611148565b5f6110ff8261222d565b90505f6111208273e7597f774fd0a15a617894dc39d45a28b97afa4f6123f8565b111561113457600195505050505050611148565b505080600101905061109f565b505f925050505b90565b5f6001471061115d576001905061120d565b600161117d73c02aaa39b223fe8d0a0e5c4f27ead9083c756cc2306123f8565b106112095773c02aaa39b223fe8d0a0e5c4f27ead9083c756cc273ffffffffffffffffffffffffffffffffffffffff16632e1a7d4d60016040518263ffffffff1660e01b81526004016111d09190614824565b5f604051808303815f87803b1580156111e7575f5ffd5b505af11580156111f9573d5f5f3e3d5ffd5b505050506001471015905061120d565b5f90505b90565b5f5f8273ffffffffffffffffffffffffffffffffffffffff163b03611237575f905061155b565b5f8273ffffffffffffffffffffffffffffffffffffffff16630dfe16816040518163ffffffff1660e01b8152600401602060405180830381865afa158015611281573d5f5f3e3d5ffd5b505050506040513d601f19601f820116820180604052508101906112a59190614eda565b90505f8373ffffffffffffffffffffffffffffffffffffffff1663d21220a76040518163ffffffff1660e01b8152600401602060405180830381865afa1580156112f1573d5f5f3e3d5ffd5b505050506040513d601f19601f820116820180604052508101906113159190614eda565b905073c02aaa39b223fe8d0a0e5c4f27ead9083c756cc273ffffffffffffffffffffffffffffffffffffffff168273ffffffffffffffffffffffffffffffffffffffff16141580156113a7575073c02aaa39b223fe8d0a0e5c4f27ead9083c756cc273ffffffffffffffffffffffffffffffffffffffff168173ffffffffffffffffffffffffffffffffffffffff1614155b156113b6575f9250505061155b565b8373ffffffffffffffffffffffffffffffffffffffff1663022c0d9f60e01b73c02aaa39b223fe8d0a0e5c4f27ead9083c756cc273ffffffffffffffffffffffffffffffffffffffff168473ffffffffffffffffffffffffffffffffffffffff1614611422575f611425565b60015b73c02aaa39b223fe8d0a0e5c4f27ead9083c756cc273ffffffffffffffffffffffffffffffffffffffff168473ffffffffffffffffffffffffffffffffffffffff1614611472575f611475565b60015b3060016040516020016114889190614824565b6040516020818303038152906040526040516024016114aa9493929190614f05565b604051602081830303815290604052907bffffffffffffffffffffffffffffffffffffffffffffffffffffffff19166020820180517bffffffffffffffffffffffffffffffffffffffffffffffffffffffff83818316178352505050506040516115149190614f89565b5f604051808303815f865af19150503d805f811461154d576040519150601f19603f3d011682016040523d82523d5f602084013e611552565b606091505b50508093505050505b919050565b5f5f5f61156b612aa9565b90505f73c02aaa39b223fe8d0a0e5c4f27ead9083c756cc290505f6115a373c02aaa39b223fe8d0a0e5c4f27ead9083c756cc2613413565b90505f5f90505b60198110156115f6575f8482601981106115c7576115c6614d33565b5b602002015190505f6115d882613413565b9050838111156115e9578194508093505b50508060010190506115aa565b508181945094505050509091565b61160c614515565b73c02aaa39b223fe8d0a0e5c4f27ead9083c756cc2815f6010811061163457611633614d33565b5b602002019073ffffffffffffffffffffffffffffffffffffffff16908173ffffffffffffffffffffffffffffffffffffffff1681525050736b175474e89094c44da98b954eedeac495271d0f8160016010811061169457611693614d33565b5b602002019073ffffffffffffffffffffffffffffffffffffffff16908173ffffffffffffffffffffffffffffffffffffffff168152505073a0b86991c6218b36c1d19d4a2e9eb0ce3606eb48816002601081106116f4576116f3614d33565b5b602002019073ffffffffffffffffffffffffffffffffffffffff16908173ffffffffffffffffffffffffffffffffffffffff168152505073dac17f958d2ee523a2206206994597c13d831ec78160036010811061175457611753614d33565b5b602002019073ffffffffffffffffffffffffffffffffffffffff16908173ffffffffffffffffffffffffffffffffffffffff1681525050732260fac5e5542a773aa44fbcfedf7c193bc2c599816004601081106117b4576117b3614d33565b5b602002019073ffffffffffffffffffffffffffffffffffffffff16908173ffffffffffffffffffffffffffffffffffffffff168152505073514910771af9ca656af840dff83e8264ecf986ca8160056010811061181457611813614d33565b5b602002019073ffffffffffffffffffffffffffffffffffffffff16908173ffffffffffffffffffffffffffffffffffffffff1681525050737fc66500c84a76ad7e9c93437bfc5ac33e2ddae98160066010811061187457611873614d33565b5b602002019073ffffffffffffffffffffffffffffffffffffffff16908173ffffffffffffffffffffffffffffffffffffffff168152505073d533a949740bb3306d119cc777fa900ba034cd52816007601081106118d4576118d3614d33565b5b602002019073ffffffffffffffffffffffffffffffffffffffff16908173ffffffffffffffffffffffffffffffffffffffff168152505073c011a72400e58ecd99ee497cf89e3775d4bd732f8160086010811061193457611933614d33565b5b602002019073ffffffffffffffffffffffffffffffffffffffff16908173ffffffffffffffffffffffffffffffffffffffff1681525050739f8f72aa9304c8b593d555f12ef6589cc3a579a28160096010811061199457611993614d33565b5b602002019073ffffffffffffffffffffffffffffffffffffffff16908173ffffffffffffffffffffffffffffffffffffffff1681525050730bc529c00c6401aef6d220be8c6ea1667f6ad93e81600a601081106119f4576119f3614d33565b5b602002019073ffffffffffffffffffffffffffffffffffffffff16908173ffffffffffffffffffffffffffffffffffffffff168152505073ba100000625a3754423978a60c9317c58a424e3d81600b60108110611a5457611a53614d33565b5b602002019073ffffffffffffffffffffffffffffffffffffffff16908173ffffffffffffffffffffffffffffffffffffffff168152505073956f47f50a910163d8bf957cf5846d573e7f87ca81600c60108110611ab457611ab3614d33565b5b602002019073ffffffffffffffffffffffffffffffffffffffff16908173ffffffffffffffffffffffffffffffffffffffff16815250507303ab458634910aad20ef5f1c8ee96f1d6ac5491981600d60108110611b1457611b13614d33565b5b602002019073ffffffffffffffffffffffffffffffffffffffff16908173ffffffffffffffffffffffffffffffffffffffff1681525050730391d2021f89dc339f60fff84546ea23e337750f81600e60108110611b7457611b73614d33565b5b602002019073ffffffffffffffffffffffffffffffffffffffff16908173ffffffffffffffffffffffffffffffffffffffff168152505073090185f2135308bad17527004364ebcc2d37e5f681600f60108110611bd457611bd3614d33565b5b602002019073ffffffffffffffffffffffffffffffffffffffff16908173ffffffffffffffffffffffffffffffffffffffff168152505090565b5f73ffffffffffffffffffffffffffffffffffffffff168173ffffffffffffffffffffffffffffffffffffffff161480611c5e57505f8173ffffffffffffffffffffffffffffffffffffffff163b145b80611caf575060045f8273ffffffffffffffffffffffffffffffffffffffff1673ffffffffffffffffffffffffffffffffffffffff1681526020019081526020015f205f9054906101000a900460ff165b611ec057600160045f8373ffffffffffffffffffffffffffffffffffffffff1673ffffffffffffffffffffffffffffffffffffffff1681526020019081526020015f205f6101000a81548160ff0219169083151502179055505f611d278273e7597f774fd0a15a617894dc39d45a28b97afa4f6123f8565b90505f8103611d365750611ec0565b815f60036101000a81548173ffffffffffffffffffffffffffffffffffffffff021916908373ffffffffffffffffffffffffffffffffffffffff16021790555081600360026101000a81548173ffffffffffffffffffffffffffffffffffffffff021916908373ffffffffffffffffffffffffffffffffffffffff16021790555073e7597f774fd0a15a617894dc39d45a28b97afa4f73ffffffffffffffffffffffffffffffffffffffff16631c86323b60013060013060405180602001604052805f8152506040518663ffffffff1660e01b8152600401611e1b9493929190614f9f565b5f604051808303818588803b158015611e32575f5ffd5b505af193505050508015611e44575060015b611e8e573d805f8114611e72576040519150601f19603f3d011682016040523d82523d5f602084013e611e77565b606091505b508060019081611e8791906151b6565b5050611ebe565b60025f8154611e9c90615285565b9190508190555060015f60016101000a81548160ff0219169083151502179055505b505b50565b611ecb614538565b73b05b83f1aab0036f9dadfdb18405da3d459c1f1c815f60098110611ef357611ef2614d33565b5b602002019073ffffffffffffffffffffffffffffffffffffffff16908173ffffffffffffffffffffffffffffffffffffffff168152505073160e753eefe29ea3ac186bf27588ac9aca2f613981600160098110611f5357611f52614d33565b5b602002019073ffffffffffffffffffffffffffffffffffffffff16908173ffffffffffffffffffffffffffffffffffffffff168152505073ff5b7c52245625b399d2e2927f52a8da86264a3381600260098110611fb357611fb2614d33565b5b602002019073ffffffffffffffffffffffffffffffffffffffff16908173ffffffffffffffffffffffffffffffffffffffff168152505073c3eab6960e0cd51dcf304248e4bbb08d8eeab5528160036009811061201357612012614d33565b5b602002019073ffffffffffffffffffffffffffffffffffffffff16908173ffffffffffffffffffffffffffffffffffffffff1681525050739b297790cd8540876a04543499528835f1cea1758160046009811061207357612072614d33565b5b602002019073ffffffffffffffffffffffffffffffffffffffff16908173ffffffffffffffffffffffffffffffffffffffff16815250507358ea371c3d7bca0ed0c3a4e4dc9bb92702310489816005600981106120d3576120d2614d33565b5b602002019073ffffffffffffffffffffffffffffffffffffffff16908173ffffffffffffffffffffffffffffffffffffffff168152505073b51a09c53d7cc6481e4c5d9d8d334a6e50776ecf8160066009811061213357612132614d33565b5b602002019073ffffffffffffffffffffffffffffffffffffffff16908173ffffffffffffffffffffffffffffffffffffffff168152505073049d17c3d5ba37429de4d414a603127f1090ffa78160076009811061219357612192614d33565b5b602002019073ffffffffffffffffffffffffffffffffffffffff16908173ffffffffffffffffffffffffffffffffffffffff168152505073c12d099be31567add4e4e4d0d45691c3f58f5663816008600981106121f3576121f2614d33565b5b602002019073ffffffffffffffffffffffffffffffffffffffff16908173ffffffffffffffffffffffffffffffffffffffff168152505090565b5f5f73ffffffffffffffffffffffffffffffffffffffff168273ffffffffffffffffffffffffffffffffffffffff16148061227e57505f8273ffffffffffffffffffffffffffffffffffffffff163b145b1561228b575f90506123f3565b5f5f8373ffffffffffffffffffffffffffffffffffffffff166317d69bc860e01b604051602401604051602081830303815290604052907bffffffffffffffffffffffffffffffffffffffffffffffffffffffff19166020820180517bffffffffffffffffffffffffffffffffffffffffffffffffffffffff838183161783525050505060405161231c9190614f89565b5f60405180830381855afa9150503d805f8114612354576040519150601f19603f3d011682016040523d82523d5f602084013e612359565b606091505b509150915081158061236c575060208151105b1561237b575f925050506123f3565b8080602001905181019061238f9190615307565b92505f73ffffffffffffffffffffffffffffffffffffffff168373ffffffffffffffffffffffffffffffffffffffff1614806123e157505f8373ffffffffffffffffffffffffffffffffffffffff163b145b156123f0575f925050506123f3565b50505b919050565b5f5f73ffffffffffffffffffffffffffffffffffffffff168373ffffffffffffffffffffffffffffffffffffffff16148061244957505f8373ffffffffffffffffffffffffffffffffffffffff163b145b15612456575f905061256a565b5f5f8473ffffffffffffffffffffffffffffffffffffffff166370a0823160e01b8560405160240161248891906146c7565b604051602081830303815290604052907bffffffffffffffffffffffffffffffffffffffffffffffffffffffff19166020820180517bffffffffffffffffffffffffffffffffffffffffffffffffffffffff83818316178352505050506040516124f29190614f89565b5f60405180830381855afa9150503d805f811461252a576040519150601f19603f3d011682016040523d82523d5f602084013e61252f565b606091505b5091509150811580612542575060208151105b15612551575f9250505061256a565b808060200190518101906125659190615346565b925050505b92915050565b612578610d99565b8061259773c02aaa39b223fe8d0a0e5c4f27ead9083c756cc2306123f8565b1015612957576125ba736b175474e89094c44da98b954eedeac495271d0f6134e6565b806125d973c02aaa39b223fe8d0a0e5c4f27ead9083c756cc2306123f8565b1015612957576125fc73a0b86991c6218b36c1d19d4a2e9eb0ce3606eb486134e6565b8061261b73c02aaa39b223fe8d0a0e5c4f27ead9083c756cc2306123f8565b10156129575761263e73dac17f958d2ee523a2206206994597c13d831ec76134e6565b8061265d73c02aaa39b223fe8d0a0e5c4f27ead9083c756cc2306123f8565b101561295757612680732260fac5e5542a773aa44fbcfedf7c193bc2c5996134e6565b8061269f73c02aaa39b223fe8d0a0e5c4f27ead9083c756cc2306123f8565b1015612957576126c273514910771af9ca656af840dff83e8264ecf986ca6134e6565b806126e173c02aaa39b223fe8d0a0e5c4f27ead9083c756cc2306123f8565b101561295757612704737fc66500c84a76ad7e9c93437bfc5ac33e2ddae96134e6565b8061272373c02aaa39b223fe8d0a0e5c4f27ead9083c756cc2306123f8565b10156129575761274673d533a949740bb3306d119cc777fa900ba034cd526134e6565b8061276573c02aaa39b223fe8d0a0e5c4f27ead9083c756cc2306123f8565b10156129575761278873c011a72400e58ecd99ee497cf89e3775d4bd732f6134e6565b806127a773c02aaa39b223fe8d0a0e5c4f27ead9083c756cc2306123f8565b1015612957576127ca739f8f72aa9304c8b593d555f12ef6589cc3a579a26134e6565b806127e973c02aaa39b223fe8d0a0e5c4f27ead9083c756cc2306123f8565b10156129575761280c730bc529c00c6401aef6d220be8c6ea1667f6ad93e6134e6565b8061282b73c02aaa39b223fe8d0a0e5c4f27ead9083c756cc2306123f8565b10156129575761284e73ba100000625a3754423978a60c9317c58a424e3d6134e6565b8061286d73c02aaa39b223fe8d0a0e5c4f27ead9083c756cc2306123f8565b10156129575761289073956f47f50a910163d8bf957cf5846d573e7f87ca6134e6565b806128af73c02aaa39b223fe8d0a0e5c4f27ead9083c756cc2306123f8565b1015612957576128d27303ab458634910aad20ef5f1c8ee96f1d6ac549196134e6565b806128f173c02aaa39b223fe8d0a0e5c4f27ead9083c756cc2306123f8565b101561295757612914730391d2021f89dc339f60fff84546ea23e337750f6134e6565b8061293373c02aaa39b223fe8d0a0e5c4f27ead9083c756cc2306123f8565b10156129575761295673090185f2135308bad17527004364ebcc2d37e5f66134e6565b5b50565b5f5f8473ffffffffffffffffffffffffffffffffffffffff1663a9059cbb60e01b858560405160240161298e929190615371565b604051602081830303815290604052907bffffffffffffffffffffffffffffffffffffffffffffffffffffffff19166020820180517bffffffffffffffffffffffffffffffffffffffffffffffffffffffff83818316178352505050506040516129f89190614f89565b5f604051808303815f865af19150503d805f8114612a31576040519150601f19603f3d011682016040523d82523d5f602084013e612a36565b606091505b5091509150818015612a6357505f81511480612a62575080806020019051810190612a6191906153c2565b5b5b612aa2576040517f08c379a0000000000000000000000000000000000000000000000000000000008152600401612a9990615437565b60405180910390fd5b5050505050565b612ab161455b565b73c02aaa39b223fe8d0a0e5c4f27ead9083c756cc2815f60198110612ad957612ad8614d33565b5b602002019073ffffffffffffffffffffffffffffffffffffffff16908173ffffffffffffffffffffffffffffffffffffffff1681525050736b175474e89094c44da98b954eedeac495271d0f81600160198110612b3957612b38614d33565b5b602002019073ffffffffffffffffffffffffffffffffffffffff16908173ffffffffffffffffffffffffffffffffffffffff168152505073a0b86991c6218b36c1d19d4a2e9eb0ce3606eb4881600260198110612b9957612b98614d33565b5b602002019073ffffffffffffffffffffffffffffffffffffffff16908173ffffffffffffffffffffffffffffffffffffffff168152505073dac17f958d2ee523a2206206994597c13d831ec781600360198110612bf957612bf8614d33565b5b602002019073ffffffffffffffffffffffffffffffffffffffff16908173ffffffffffffffffffffffffffffffffffffffff1681525050732260fac5e5542a773aa44fbcfedf7c193bc2c59981600460198110612c5957612c58614d33565b5b602002019073ffffffffffffffffffffffffffffffffffffffff16908173ffffffffffffffffffffffffffffffffffffffff168152505073514910771af9ca656af840dff83e8264ecf986ca81600560198110612cb957612cb8614d33565b5b602002019073ffffffffffffffffffffffffffffffffffffffff16908173ffffffffffffffffffffffffffffffffffffffff1681525050737fc66500c84a76ad7e9c93437bfc5ac33e2ddae981600660198110612d1957612d18614d33565b5b602002019073ffffffffffffffffffffffffffffffffffffffff16908173ffffffffffffffffffffffffffffffffffffffff168152505073d533a949740bb3306d119cc777fa900ba034cd5281600760198110612d7957612d78614d33565b5b602002019073ffffffffffffffffffffffffffffffffffffffff16908173ffffffffffffffffffffffffffffffffffffffff168152505073c011a72400e58ecd99ee497cf89e3775d4bd732f81600860198110612dd957612dd8614d33565b5b602002019073ffffffffffffffffffffffffffffffffffffffff16908173ffffffffffffffffffffffffffffffffffffffff1681525050739f8f72aa9304c8b593d555f12ef6589cc3a579a281600960198110612e3957612e38614d33565b5b602002019073ffffffffffffffffffffffffffffffffffffffff16908173ffffffffffffffffffffffffffffffffffffffff1681525050730bc529c00c6401aef6d220be8c6ea1667f6ad93e81600a60198110612e9957612e98614d33565b5b602002019073ffffffffffffffffffffffffffffffffffffffff16908173ffffffffffffffffffffffffffffffffffffffff168152505073ba100000625a3754423978a60c9317c58a424e3d81600b60198110612ef957612ef8614d33565b5b602002019073ffffffffffffffffffffffffffffffffffffffff16908173ffffffffffffffffffffffffffffffffffffffff168152505073956f47f50a910163d8bf957cf5846d573e7f87ca81600c60198110612f5957612f58614d33565b5b602002019073ffffffffffffffffffffffffffffffffffffffff16908173ffffffffffffffffffffffffffffffffffffffff16815250507303ab458634910aad20ef5f1c8ee96f1d6ac5491981600d60198110612fb957612fb8614d33565b5b602002019073ffffffffffffffffffffffffffffffffffffffff16908173ffffffffffffffffffffffffffffffffffffffff1681525050730391d2021f89dc339f60fff84546ea23e337750f81600e6019811061301957613018614d33565b5b602002019073ffffffffffffffffffffffffffffffffffffffff16908173ffffffffffffffffffffffffffffffffffffffff168152505073090185f2135308bad17527004364ebcc2d37e5f681600f6019811061307957613078614d33565b5b602002019073ffffffffffffffffffffffffffffffffffffffff16908173ffffffffffffffffffffffffffffffffffffffff168152505073b05b83f1aab0036f9dadfdb18405da3d459c1f1c816010601981106130d9576130d8614d33565b5b602002019073ffffffffffffffffffffffffffffffffffffffff16908173ffffffffffffffffffffffffffffffffffffffff168152505073160e753eefe29ea3ac186bf27588ac9aca2f61398160116019811061313957613138614d33565b5b602002019073ffffffffffffffffffffffffffffffffffffffff16908173ffffffffffffffffffffffffffffffffffffffff168152505073ff5b7c52245625b399d2e2927f52a8da86264a338160126019811061319957613198614d33565b5b602002019073ffffffffffffffffffffffffffffffffffffffff16908173ffffffffffffffffffffffffffffffffffffffff168152505073c3eab6960e0cd51dcf304248e4bbb08d8eeab552816013601981106131f9576131f8614d33565b5b602002019073ffffffffffffffffffffffffffffffffffffffff16908173ffffffffffffffffffffffffffffffffffffffff1681525050739b297790cd8540876a04543499528835f1cea1758160146019811061325957613258614d33565b5b602002019073ffffffffffffffffffffffffffffffffffffffff16908173ffffffffffffffffffffffffffffffffffffffff16815250507358ea371c3d7bca0ed0c3a4e4dc9bb92702310489816015601981106132b9576132b8614d33565b5b602002019073ffffffffffffffffffffffffffffffffffffffff16908173ffffffffffffffffffffffffffffffffffffffff168152505073b51a09c53d7cc6481e4c5d9d8d334a6e50776ecf8160166019811061331957613318614d33565b5b602002019073ffffffffffffffffffffffffffffffffffffffff16908173ffffffffffffffffffffffffffffffffffffffff168152505073049d17c3d5ba37429de4d414a603127f1090ffa78160176019811061337957613378614d33565b5b602002019073ffffffffffffffffffffffffffffffffffffffff16908173ffffffffffffffffffffffffffffffffffffffff168152505073c12d099be31567add4e4e4d0d45691c3f58f5663816018601981106133d9576133d8614d33565b5b602002019073ffffffffffffffffffffffffffffffffffffffff16908173ffffffffffffffffffffffffffffffffffffffff168152505090565b5f5f73ffffffffffffffffffffffffffffffffffffffff168273ffffffffffffffffffffffffffffffffffffffff16148061346457505f8273ffffffffffffffffffffffffffffffffffffffff163b145b15613471575f90506134e1565b5f61347c83306123f8565b90505f60055f8573ffffffffffffffffffffffffffffffffffffffff1673ffffffffffffffffffffffffffffffffffffffff1681526020019081526020015f205490508082116134d0575f925050506134e1565b80826134dc9190615455565b925050505b919050565b73c02aaa39b223fe8d0a0e5c4f27ead9083c756cc273ffffffffffffffffffffffffffffffffffffffff168173ffffffffffffffffffffffffffffffffffffffff16148061355f57505f73ffffffffffffffffffffffffffffffffffffffff168173ffffffffffffffffffffffffffffffffffffffff16145b8061358057505f8173ffffffffffffffffffffffffffffffffffffffff163b145b6135bb575f61358f82306123f8565b90505f8111156135b9576135b88273c02aaa39b223fe8d0a0e5c4f27ead9083c756cc2836135be565b5b505b50565b5f8114806135f757508173ffffffffffffffffffffffffffffffffffffffff168373ffffffffffffffffffffffffffffffffffffffff16145b61373a575f61360784848461373f565b90505f61362a8573a0b86991c6218b36c1d19d4a2e9eb0ce3606eb488686613953565b90505f61364d8673dac17f958d2ee523a2206206994597c13d831ec78787613953565b90505f61367087736b175474e89094c44da98b954eedeac495271d0f8888613953565b90508284101580156136825750818410155b801561368e5750808410155b156136a75761369e878787613a31565b5050505061373a565b8183101580156136b75750808310155b156136e5576136dc8773a0b86991c6218b36c1d19d4a2e9eb0ce3606eb488888613c9f565b5050505061373a565b8082106137155761370c8773dac17f958d2ee523a2206206994597c13d831ec78888613c9f565b5050505061373a565b61373587736b175474e89094c44da98b954eedeac495271d0f8888613c9f565b505050505b505050565b5f5f735c69bee701ef814a2b6a3edd4b1652cb9cc5aa6f73ffffffffffffffffffffffffffffffffffffffff1663e6a4390586866040518363ffffffff1660e01b8152600401613790929190615488565b602060405180830381865afa1580156137ab573d5f5f3e3d5ffd5b505050506040513d601f19601f820116820180604052508101906137cf9190614eda565b90505f73c0aee478e3658e2610c5f7a4a2e1777ce9e4f2ac73ffffffffffffffffffffffffffffffffffffffff1663e6a4390587876040518363ffffffff1660e01b8152600401613821929190615488565b602060405180830381865afa15801561383c573d5f5f3e3d5ffd5b505050506040513d601f19601f820116820180604052508101906138609190614eda565b90505f73ffffffffffffffffffffffffffffffffffffffff168273ffffffffffffffffffffffffffffffffffffffff16141580156138b457505f8273ffffffffffffffffffffffffffffffffffffffff163b115b156138d6575f6138c683888888613e4c565b9050838111156138d4578093505b505b5f73ffffffffffffffffffffffffffffffffffffffff168173ffffffffffffffffffffffffffffffffffffffff161415801561392857505f8173ffffffffffffffffffffffffffffffffffffffff163b115b1561394a575f61393a82888888613e4c565b905083811115613948578093505b505b50509392505050565b5f8373ffffffffffffffffffffffffffffffffffffffff168573ffffffffffffffffffffffffffffffffffffffff1614806139b957508273ffffffffffffffffffffffffffffffffffffffff168473ffffffffffffffffffffffffffffffffffffffff16145b806139ef57508273ffffffffffffffffffffffffffffffffffffffff168573ffffffffffffffffffffffffffffffffffffffff16145b156139fc575f9050613a29565b5f613a0886868561373f565b90505f8103613a1a575f915050613a29565b613a2585858361373f565b9150505b949350505050565b5f735c69bee701ef814a2b6a3edd4b1652cb9cc5aa6f73ffffffffffffffffffffffffffffffffffffffff1663e6a4390585856040518363ffffffff1660e01b8152600401613a81929190615488565b602060405180830381865afa158015613a9c573d5f5f3e3d5ffd5b505050506040513d601f19601f82011682018060405250810190613ac09190614eda565b90505f73c0aee478e3658e2610c5f7a4a2e1777ce9e4f2ac73ffffffffffffffffffffffffffffffffffffffff1663e6a4390586866040518363ffffffff1660e01b8152600401613b12929190615488565b602060405180830381865afa158015613b2d573d5f5f3e3d5ffd5b505050506040513d601f19601f82011682018060405250810190613b519190614eda565b90505f5f90505f5f90505f73ffffffffffffffffffffffffffffffffffffffff168473ffffffffffffffffffffffffffffffffffffffff1614158015613bad57505f8473ffffffffffffffffffffffffffffffffffffffff163b115b15613bd2575f613bbf85898989613e4c565b905081811115613bd0578091508492505b505b5f73ffffffffffffffffffffffffffffffffffffffff168373ffffffffffffffffffffffffffffffffffffffff1614158015613c2457505f8373ffffffffffffffffffffffffffffffffffffffff163b115b15613c49575f613c3684898989613e4c565b905081811115613c47578091508392505b505b5f73ffffffffffffffffffffffffffffffffffffffff168273ffffffffffffffffffffffffffffffffffffffff1614158015613c8457505f81115b15613c9657613c9582888784614177565b5b50505050505050565b8273ffffffffffffffffffffffffffffffffffffffff168473ffffffffffffffffffffffffffffffffffffffff161480613d0457508173ffffffffffffffffffffffffffffffffffffffff168373ffffffffffffffffffffffffffffffffffffffff16145b80613d3a57508173ffffffffffffffffffffffffffffffffffffffff168473ffffffffffffffffffffffffffffffffffffffff16145b613e46575f613d4a8585846142f6565b90505f73ffffffffffffffffffffffffffffffffffffffff168173ffffffffffffffffffffffffffffffffffffffff1603613d855750613e46565b5f613d9282878786613e4c565b90505f8103613da2575050613e46565b613dae82878584614177565b5f613db986306123f8565b90505f8103613dca57505050613e46565b5f613dd68787846142f6565b90505f73ffffffffffffffffffffffffffffffffffffffff168173ffffffffffffffffffffffffffffffffffffffff1603613e145750505050613e46565b5f613e2182898986613e4c565b90505f8103613e34575050505050613e46565b613e4082898584614177565b50505050505b50505050565b5f5f8573ffffffffffffffffffffffffffffffffffffffff16630dfe16816040518163ffffffff1660e01b8152600401602060405180830381865afa158015613e97573d5f5f3e3d5ffd5b505050506040513d601f19601f82011682018060405250810190613ebb9190614eda565b90505f8673ffffffffffffffffffffffffffffffffffffffff1663d21220a76040518163ffffffff1660e01b8152600401602060405180830381865afa158015613f07573d5f5f3e3d5ffd5b505050506040513d601f19601f82011682018060405250810190613f2b9190614eda565b90508573ffffffffffffffffffffffffffffffffffffffff168273ffffffffffffffffffffffffffffffffffffffff16148015613f9357508473ffffffffffffffffffffffffffffffffffffffff168173ffffffffffffffffffffffffffffffffffffffff16145b8061400057508473ffffffffffffffffffffffffffffffffffffffff168273ffffffffffffffffffffffffffffffffffffffff16148015613fff57508573ffffffffffffffffffffffffffffffffffffffff168173ffffffffffffffffffffffffffffffffffffffff16145b5b61400e575f9250505061416f565b5f5f8873ffffffffffffffffffffffffffffffffffffffff16630902f1ac6040518163ffffffff1660e01b8152600401606060405180830381865afa158015614059573d5f5f3e3d5ffd5b505050506040513d601f19601f8201168201806040525081019061407d919061552b565b50915091505f5f8973ffffffffffffffffffffffffffffffffffffffff168673ffffffffffffffffffffffffffffffffffffffff16146140de57826dffffffffffffffffffffffffffff16846dffffffffffffffffffffffffffff16614101565b836dffffffffffffffffffffffffffff16836dffffffffffffffffffffffffffff165b915091505f82148061411257505f81145b15614125575f965050505050505061416f565b5f6103e5896141349190614d8d565b9050806103e8846141459190614d8d565b61414f9190614e2b565b828261415b9190614d8d565b6141659190614dfb565b9750505050505050505b949350505050565b61418283858461295a565b5f8473ffffffffffffffffffffffffffffffffffffffff16630dfe16816040518163ffffffff1660e01b8152600401602060405180830381865afa1580156141cc573d5f5f3e3d5ffd5b505050506040513d601f19601f820116820180604052508101906141f09190614eda565b90505f5f8573ffffffffffffffffffffffffffffffffffffffff168373ffffffffffffffffffffffffffffffffffffffff161461422e57835f614231565b5f845b915091508673ffffffffffffffffffffffffffffffffffffffff1663022c0d9f8383305f67ffffffffffffffff81111561426e5761426d614fe9565b5b6040519080825280601f01601f1916602001820160405280156142a05781602001600182028036833780820191505090505b506040518563ffffffff1660e01b81526004016142c09493929190614f05565b5f604051808303815f87803b1580156142d7575f5ffd5b505af11580156142e9573d5f5f3e3d5ffd5b5050505050505050505050565b5f5f735c69bee701ef814a2b6a3edd4b1652cb9cc5aa6f73ffffffffffffffffffffffffffffffffffffffff1663e6a4390586866040518363ffffffff1660e01b8152600401614347929190615488565b602060405180830381865afa158015614362573d5f5f3e3d5ffd5b505050506040513d601f19601f820116820180604052508101906143869190614eda565b90505f73c0aee478e3658e2610c5f7a4a2e1777ce9e4f2ac73ffffffffffffffffffffffffffffffffffffffff1663e6a4390587876040518363ffffffff1660e01b81526004016143d8929190615488565b602060405180830381865afa1580156143f3573d5f5f3e3d5ffd5b505050506040513d601f19601f820116820180604052508101906144179190614eda565b90505f5f90505f73ffffffffffffffffffffffffffffffffffffffff168373ffffffffffffffffffffffffffffffffffffffff161415801561446f57505f8373ffffffffffffffffffffffffffffffffffffffff163b115b15614494575f61448184898989613e4c565b905081811115614492578091508394505b505b5f73ffffffffffffffffffffffffffffffffffffffff168273ffffffffffffffffffffffffffffffffffffffff16141580156144e657505f8273ffffffffffffffffffffffffffffffffffffffff163b115b1561450b575f6144f883898989613e4c565b905081811115614509578091508294505b505b5050509392505050565b604051806102000160405280601090602082028036833780820191505090505090565b604051806101200160405280600990602082028036833780820191505090505090565b604051806103200160405280601990602082028036833780820191505090505090565b5f60ff82169050919050565b6145938161457e565b82525050565b5f6020820190506145ac5f83018461458a565b92915050565b5f5ffd5b5f5ffd5b5f73ffffffffffffffffffffffffffffffffffffffff82169050919050565b5f6145e3826145ba565b9050919050565b6145f3816145d9565b81146145fd575f5ffd5b50565b5f8135905061460e816145ea565b92915050565b5f819050919050565b61462681614614565b8114614630575f5ffd5b50565b5f813590506146418161461d565b92915050565b5f5f6040838503121561465d5761465c6145b2565b5b5f61466a85828601614600565b925050602061467b85828601614633565b9150509250929050565b5f8115159050919050565b61469981614685565b82525050565b5f6020820190506146b25f830184614690565b92915050565b6146c1816145d9565b82525050565b5f6020820190506146da5f8301846146b8565b92915050565b5f5ffd5b5f5ffd5b5f5ffd5b5f5f83601f840112614701576147006146e0565b5b8235905067ffffffffffffffff81111561471e5761471d6146e4565b5b60208301915083600182028301111561473a576147396146e8565b5b9250929050565b5f5f5f5f5f6080868803121561475a576147596145b2565b5b5f61476788828901614600565b955050602061477888828901614633565b945050604061478988828901614633565b935050606086013567ffffffffffffffff8111156147aa576147a96145b6565b5b6147b6888289016146ec565b92509250509295509295909350565b5f5f5f606084860312156147dc576147db6145b2565b5b5f6147e986828701614600565b93505060206147fa86828701614600565b925050604061480b86828701614633565b9150509250925092565b61481e81614614565b82525050565b5f6020820190506148375f830184614815565b92915050565b5f60208284031215614852576148516145b2565b5b5f61485f84828501614600565b91505092915050565b5f81519050919050565b5f82825260208201905092915050565b8281835e5f83830152505050565b5f601f19601f8301169050919050565b5f6148aa82614868565b6148b48185614872565b93506148c4818560208601614882565b6148cd81614890565b840191505092915050565b5f6020820190508181035f8301526148f081846148a0565b905092915050565b5f6020828403121561490d5761490c6145b2565b5b5f61491a84828501614633565b91505092915050565b5f81519050919050565b5f82825260208201905092915050565b5f61494782614923565b614951818561492d565b9350614961818560208601614882565b61496a81614890565b840191505092915050565b5f6020820190508181035f83015261498d818461493d565b905092915050565b7f756e6578706563746564207061697200000000000000000000000000000000005f82015250565b5f6149c9600f8361492d565b91506149d482614995565b602082019050919050565b5f6020820190508181035f8301526149f6816149bd565b9050919050565b7f756e657870656374656420616d6f756e740000000000000000000000000000005f82015250565b5f614a3160118361492d565b9150614a3c826149fd565b602082019050919050565b5f6020820190508181035f830152614a5e81614a25565b9050919050565b7f4e487b71000000000000000000000000000000000000000000000000000000005f52602260045260245ffd5b5f6002820490506001821680614aa957607f821691505b602082108103614abc57614abb614a65565b5b50919050565b5f81905092915050565b7f6465706c6f7920612066616b652041434f20746f6b656e207468617420616c735f8201527f6f207365727665732061732066616b6520636f6c6c61746572616c3b20000000602082015250565b5f614b26603d83614ac2565b9150614b3182614acc565b603d82019050919050565b7f63616c6c2077726974652866616b65546f6b656e2c20312c2061747461636b655f8201527f722d636f6e74726f6c6c65642065786368616e67652c2022222920776974682060208201527f746865206d696e696d756d2045544820736565643b2000000000000000000000604082015250565b5f614bbc605683614ac2565b9150614bc782614b3c565b605682019050919050565b7f5f73656c6c41434f546f6b656e732829207468656e20747275737473207374725f8201527f696b6541737365742829206f6e207468652066616b6520746f6b656e20616e6460208201527f207472616e7366657273207468652077726974657227732066756c6c2062616c60408201527f616e636520000000000000000000000000000000000000000000000000000000606082015250565b5f614c78606583614ac2565b9150614c8382614bd2565b606582019050919050565b7f6f66207468617420616c72656164792d6c697665206f6e2d636861696e20746f5f8201527f6b656e20746f207468652061747461636b657200000000000000000000000000602082015250565b5f614ce8603383614ac2565b9150614cf382614c8e565b603382019050919050565b5f614d0882614b1a565b9150614d1382614bb0565b9150614d1e82614c6c565b9150614d2982614cdc565b9150819050919050565b7f4e487b71000000000000000000000000000000000000000000000000000000005f52603260045260245ffd5b7f4e487b71000000000000000000000000000000000000000000000000000000005f52601160045260245ffd5b5f614d9782614614565b9150614da283614614565b9250828202614db081614614565b91508282048414831517614dc757614dc6614d60565b5b5092915050565b7f4e487b71000000000000000000000000000000000000000000000000000000005f52601260045260245ffd5b5f614e0582614614565b9150614e1083614614565b925082614e2057614e1f614dce565b5b828204905092915050565b5f614e3582614614565b9150614e4083614614565b9250828201905080821115614e5857614e57614d60565b5b92915050565b7f72657061796d656e7420756e617661696c61626c6500000000000000000000005f82015250565b5f614e9260158361492d565b9150614e9d82614e5e565b602082019050919050565b5f6020820190508181035f830152614ebf81614e86565b9050919050565b5f81519050614ed4816145ea565b92915050565b5f60208284031215614eef57614eee6145b2565b5b5f614efc84828501614ec6565b91505092915050565b5f608082019050614f185f830187614815565b614f256020830186614815565b614f3260408301856146b8565b8181036060830152614f4481846148a0565b905095945050505050565b5f81905092915050565b5f614f6382614868565b614f6d8185614f4f565b9350614f7d818560208601614882565b80840191505092915050565b5f614f948284614f59565b915081905092915050565b5f608082019050614fb25f8301876146b8565b614fbf6020830186614815565b614fcc60408301856146b8565b8181036060830152614fde81846148a0565b905095945050505050565b7f4e487b71000000000000000000000000000000000000000000000000000000005f52604160045260245ffd5b5f819050815f5260205f209050919050565b5f6020601f8301049050919050565b5f82821b905092915050565b5f600883026150727fffffffffffffffffffffffffffffffffffffffffffffffffffffffffffffffff82615037565b61507c8683615037565b95508019841693508086168417925050509392505050565b5f819050919050565b5f6150b76150b26150ad84614614565b615094565b614614565b9050919050565b5f819050919050565b6150d08361509d565b6150e46150dc826150be565b848454615043565b825550505050565b5f5f905090565b6150fb6150ec565b6151068184846150c7565b505050565b5b818110156151295761511e5f826150f3565b60018101905061510c565b5050565b601f82111561516e5761513f81615016565b61514884615028565b81016020851015615157578190505b61516b61516385615028565b83018261510b565b50505b505050565b5f82821c905092915050565b5f61518e5f1984600802615173565b1980831691505092915050565b5f6151a6838361517f565b9150826002028217905092915050565b6151bf82614868565b67ffffffffffffffff8111156151d8576151d7614fe9565b5b6151e28254614a92565b6151ed82828561512d565b5f60209050601f83116001811461521e575f841561520c578287015190505b615216858261519b565b86555061527d565b601f19841661522c86615016565b5f5b828110156152535784890151825560018201915060208501945060208101905061522e565b86831015615270578489015161526c601f89168261517f565b8355505b6001600288020188555050505b505050505050565b5f61528f82614614565b91507fffffffffffffffffffffffffffffffffffffffffffffffffffffffffffffffff82036152c1576152c0614d60565b5b600182019050919050565b5f6152d6826145ba565b9050919050565b6152e6816152cc565b81146152f0575f5ffd5b50565b5f81519050615301816152dd565b92915050565b5f6020828403121561531c5761531b6145b2565b5b5f615329848285016152f3565b91505092915050565b5f815190506153408161461d565b92915050565b5f6020828403121561535b5761535a6145b2565b5b5f61536884828501615332565b91505092915050565b5f6040820190506153845f8301856146b8565b6153916020830184614815565b9392505050565b6153a181614685565b81146153ab575f5ffd5b50565b5f815190506153bc81615398565b92915050565b5f602082840312156153d7576153d66145b2565b5b5f6153e4848285016153ae565b91505092915050565b7f7472616e73666572206661696c656400000000000000000000000000000000005f82015250565b5f615421600f8361492d565b915061542c826153ed565b602082019050919050565b5f6020820190508181035f83015261544e81615415565b9050919050565b5f61545f82614614565b915061546a83614614565b925082820390508181111561548257615481614d60565b5b92915050565b5f60408201905061549b5f8301856146b8565b6154a860208301846146b8565b9392505050565b5f6dffffffffffffffffffffffffffff82169050919050565b6154d1816154af565b81146154db575f5ffd5b50565b5f815190506154ec816154c8565b92915050565b5f63ffffffff82169050919050565b61550a816154f2565b8114615514575f5ffd5b50565b5f8151905061552581615501565b92915050565b5f5f5f60608486031215615542576155416145b2565b5b5f61554f868287016154de565b9350506020615560868287016154de565b925050604061557186828701615517565b915050925092509256fea264697066735822122046adb93c4ecbea57778abb30ff1abaab425be2e1d2bab8cfaf427bfa04b480a164736f6c634300081e0033","linkReferences":{}},"methodIdentifiers":{"STATUS_DIRECT_SUCCESS()":"cd1441dd","STATUS_FLASH_FAILED()":"5bf5fc54","STATUS_FLASH_SUCCESS()":"05f5b76d","STATUS_NO_REPAY_PATH()":"7af65c86","STATUS_NO_WRITER_BALANCE()":"84253d73","STATUS_UNSET()":"f29a0bf2","TARGET()":"cc1f2afa","approve(address,uint256)":"095ea7b3","attackerExchange()":"9f99c11f","balanceOf(address)":"70a08231","collateral()":"d8dfeb45","executeOnOpportunity()":"3c2448ed","expiryTime()":"99bc0aea","exploitPath()":"cb707c62","fakeAcoToken()":"4b4099a4","fakeCollateral()":"0e253c46","getTokenAmount(uint256)":"c2507ac1","hypothesisRefuted()":"495f92f1","hypothesisValidated()":"463defd1","lastTargetToken()":"f75971d5","lastWriteFailure()":"bc473438","mintTo(address,uint256)":"449a52f8","mintToPayable(address)":"b0df1cc7","profitAmount()":"5ff972cc","profitToken()":"49343624","status()":"200d2ed2","strikeAsset()":"17d69bc8","successfulSweeps()":"4d509133","transfer(address,uint256)":"a9059cbb","transferFrom(address,address,uint256)":"23b872dd","uniswapV2Call(address,uint256,uint256,bytes)":"10d1e85c"},"id":0}