{"abi":[{"type":"function","name":"approve","inputs":[{"name":"","type":"address","internalType":"address"},{"name":"","type":"uint256","internalType":"uint256"}],"outputs":[{"name":"","type":"bool","internalType":"bool"}],"stateMutability":"pure"},{"type":"function","name":"balanceOf","inputs":[{"name":"","type":"address","internalType":"address"}],"outputs":[{"name":"","type":"uint256","internalType":"uint256"}],"stateMutability":"pure"},{"type":"function","name":"transfer","inputs":[{"name":"","type":"address","internalType":"address"},{"name":"","type":"uint256","internalType":"uint256"}],"outputs":[{"name":"","type":"bool","internalType":"bool"}],"stateMutability":"pure"},{"type":"function","name":"transferFrom","inputs":[{"name":"","type":"address","internalType":"address"},{"name":"","type":"address","internalType":"address"},{"name":"","type":"uint256","internalType":"uint256"}],"outputs":[{"name":"","type":"bool","internalType":"bool"}],"stateMutability":"pure"}],"bytecode":{"object":"0x6080604052348015600e575f5ffd5b506103148061001c5f395ff3fe608060405234801561000f575f5ffd5b506004361061004a575f3560e01c8063095ea7b31461004e57806323b872dd1461007e57806370a08231146100ae578063a9059cbb146100de575b5f5ffd5b610068600480360381019061006391906101ca565b61010e565b6040516100759190610222565b60405180910390f35b6100986004803603810190610093919061023b565b610119565b6040516100a59190610222565b60405180910390f35b6100c860048036038101906100c3919061028b565b610125565b6040516100d591906102c5565b60405180910390f35b6100f860048036038101906100f391906101ca565b61012e565b6040516101059190610222565b60405180910390f35b5f6001905092915050565b5f600190509392505050565b5f5f9050919050565b5f6001905092915050565b5f5ffd5b5f73ffffffffffffffffffffffffffffffffffffffff82169050919050565b5f6101668261013d565b9050919050565b6101768161015c565b8114610180575f5ffd5b50565b5f813590506101918161016d565b92915050565b5f819050919050565b6101a981610197565b81146101b3575f5ffd5b50565b5f813590506101c4816101a0565b92915050565b5f5f604083850312156101e0576101df610139565b5b5f6101ed85828601610183565b92505060206101fe858286016101b6565b9150509250929050565b5f8115159050919050565b61021c81610208565b82525050565b5f6020820190506102355f830184610213565b92915050565b5f5f5f6060848603121561025257610251610139565b5b5f61025f86828701610183565b935050602061027086828701610183565b9250506040610281868287016101b6565b9150509250925092565b5f602082840312156102a05761029f610139565b5b5f6102ad84828501610183565b91505092915050565b6102bf81610197565b82525050565b5f6020820190506102d85f8301846102b6565b9291505056fea26469706673582212203276d9e8298bff79ada84ee0b6c579aeece66c0c1111b715f5dcb5a218a0164f64736f6c634300081e0033","linkReferences":{}},"methodIdentifiers":{"approve(address,uint256)":"095ea7b3","balanceOf(address)":"70a08231","transfer(address,uint256)":"a9059cbb","transferFrom(address,address,uint256)":"23b872dd"},"id":0}