{"abi":[{"type":"constructor","inputs":[{"name":"collateralToken_","type":"address","internalType":"address"}],"stateMutability":"nonpayable"},{"type":"function","name":"approve","inputs":[{"name":"","type":"address","internalType":"address"},{"name":"","type":"uint256","internalType":"uint256"}],"outputs":[{"name":"","type":"bool","internalType":"bool"}],"stateMutability":"pure"},{"type":"function","name":"balanceOf","inputs":[{"name":"account","type":"address","internalType":"address"}],"outputs":[{"name":"","type":"uint256","internalType":"uint256"}],"stateMutability":"view"},{"type":"function","name":"collateral","inputs":[],"outputs":[{"name":"","type":"address","internalType":"address"}],"stateMutability":"view"},{"type":"function","name":"collateralToken","inputs":[],"outputs":[{"name":"","type":"address","internalType":"address"}],"stateMutability":"view"},{"type":"function","name":"configureStrike","inputs":[{"name":"strikeToken_","type":"address","internalType":"address"}],"outputs":[],"stateMutability":"nonpayable"},{"type":"function","name":"expiryTime","inputs":[],"outputs":[{"name":"","type":"uint256","internalType":"uint256"}],"stateMutability":"pure"},{"type":"function","name":"getTokenAmount","inputs":[{"name":"collateralAmount","type":"uint256","internalType":"uint256"}],"outputs":[{"name":"","type":"uint256","internalType":"uint256"}],"stateMutability":"pure"},{"type":"function","name":"mintTo","inputs":[{"name":"account","type":"address","internalType":"address"},{"name":"collateralAmount","type":"uint256","internalType":"uint256"}],"outputs":[],"stateMutability":"nonpayable"},{"type":"function","name":"mintToPayable","inputs":[{"name":"account","type":"address","internalType":"address"}],"outputs":[],"stateMutability":"payable"},{"type":"function","name":"strikeAsset","inputs":[],"outputs":[{"name":"","type":"address","internalType":"address"}],"stateMutability":"view"},{"type":"function","name":"strikeToken","inputs":[],"outputs":[{"name":"","type":"address","internalType":"address"}],"stateMutability":"view"},{"type":"function","name":"transfer","inputs":[{"name":"","type":"address","internalType":"address"},{"name":"","type":"uint256","internalType":"uint256"}],"outputs":[{"name":"","type":"bool","internalType":"bool"}],"stateMutability":"pure"},{"type":"function","name":"transferFrom","inputs":[{"name":"","type":"address","internalType":"address"},{"name":"","type":"address","internalType":"address"},{"name":"","type":"uint256","internalType":"uint256"}],"outputs":[{"name":"","type":"bool","internalType":"bool"}],"stateMutability":"pure"}],"bytecode":{"object":"0x60a060405234801561000f575f5ffd5b506040516108ed3803806108ed833981810160405281019061003191906100c9565b8073ffffffffffffffffffffffffffffffffffffffff1660808173ffffffffffffffffffffffffffffffffffffffff1681525050506100f4565b5f5ffd5b5f73ffffffffffffffffffffffffffffffffffffffff82169050919050565b5f6100988261006f565b9050919050565b6100a88161008e565b81146100b2575f5ffd5b50565b5f815190506100c38161009f565b92915050565b5f602082840312156100de576100dd61006b565b5b5f6100eb848285016100b5565b91505092915050565b6080516107da6101135f395f81816104fa015261052801526107da5ff3fe6080604052600436106100c1575f3560e01c80638c3199a51161007e578063b0df1cc711610058578063b0df1cc714610283578063b2016bd41461029f578063c2507ac1146102c9578063d8dfeb4514610305576100c1565b80638c3199a5146101f357806399bc0aea1461021d578063a9059cbb14610247576100c1565b8063095ea7b3146100c55780630adc17721461010157806317d69bc81461012957806323b872dd14610153578063449a52f81461018f57806370a08231146101b7575b5f5ffd5b3480156100d0575f5ffd5b506100eb60048036038101906100e691906105dd565b61032f565b6040516100f89190610635565b60405180910390f35b34801561010c575f5ffd5b506101276004803603810190610122919061064e565b61033a565b005b348015610134575f5ffd5b5061013d61037c565b60405161014a9190610688565b60405180910390f35b34801561015e575f5ffd5b50610179600480360381019061017491906106a1565b6103a3565b6040516101869190610635565b60405180910390f35b34801561019a575f5ffd5b506101b560048036038101906101b091906105dd565b6103af565b005b3480156101c2575f5ffd5b506101dd60048036038101906101d8919061064e565b610406565b6040516101ea9190610700565b60405180910390f35b3480156101fe575f5ffd5b5061020761044c565b6040516102149190610688565b60405180910390f35b348015610228575f5ffd5b50610231610470565b60405161023e9190610700565b60405180910390f35b348015610252575f5ffd5b5061026d600480360381019061026891906105dd565b610497565b60405161027a9190610635565b60405180910390f35b61029d6004803603810190610298919061064e565b6104a2565b005b3480156102aa575f5ffd5b506102b36104f8565b6040516102c09190610688565b60405180910390f35b3480156102d4575f5ffd5b506102ef60048036038101906102ea9190610719565b61051c565b6040516102fc9190610700565b60405180910390f35b348015610310575f5ffd5b50610319610525565b6040516103269190610688565b60405180910390f35b5f6001905092915050565b805f5f6101000a81548173ffffffffffffffffffffffffffffffffffffffff021916908373ffffffffffffffffffffffffffffffffffffffff16021790555050565b5f5f5f9054906101000a900473ffffffffffffffffffffffffffffffffffffffff16905090565b5f600190509392505050565b8060015f8473ffffffffffffffffffffffffffffffffffffffff1673ffffffffffffffffffffffffffffffffffffffff1681526020019081526020015f205f8282546103fb9190610771565b925050819055505050565b5f60015f8373ffffffffffffffffffffffffffffffffffffffff1673ffffffffffffffffffffffffffffffffffffffff1681526020019081526020015f20549050919050565b5f5f9054906101000a900473ffffffffffffffffffffffffffffffffffffffff1681565b5f7fffffffffffffffffffffffffffffffffffffffffffffffffffffffffffffffff905090565b5f6001905092915050565b3460015f8373ffffffffffffffffffffffffffffffffffffffff1673ffffffffffffffffffffffffffffffffffffffff1681526020019081526020015f205f8282546104ee9190610771565b9250508190555050565b7f000000000000000000000000000000000000000000000000000000000000000081565b5f819050919050565b5f7f0000000000000000000000000000000000000000000000000000000000000000905090565b5f5ffd5b5f73ffffffffffffffffffffffffffffffffffffffff82169050919050565b5f61057982610550565b9050919050565b6105898161056f565b8114610593575f5ffd5b50565b5f813590506105a481610580565b92915050565b5f819050919050565b6105bc816105aa565b81146105c6575f5ffd5b50565b5f813590506105d7816105b3565b92915050565b5f5f604083850312156105f3576105f261054c565b5b5f61060085828601610596565b9250506020610611858286016105c9565b9150509250929050565b5f8115159050919050565b61062f8161061b565b82525050565b5f6020820190506106485f830184610626565b92915050565b5f602082840312156106635761066261054c565b5b5f61067084828501610596565b91505092915050565b6106828161056f565b82525050565b5f60208201905061069b5f830184610679565b92915050565b5f5f5f606084860312156106b8576106b761054c565b5b5f6106c586828701610596565b93505060206106d686828701610596565b92505060406106e7868287016105c9565b9150509250925092565b6106fa816105aa565b82525050565b5f6020820190506107135f8301846106f1565b92915050565b5f6020828403121561072e5761072d61054c565b5b5f61073b848285016105c9565b91505092915050565b7f4e487b71000000000000000000000000000000000000000000000000000000005f52601160045260245ffd5b5f61077b826105aa565b9150610786836105aa565b925082820190508082111561079e5761079d610744565b5b9291505056fea2646970667358221220b538bfccf524edc5030bbbec5aab289c092a8a73035abb463bd6f21012414b1c64736f6c634300081e0033","linkReferences":{}},"methodIdentifiers":{"approve(address,uint256)":"095ea7b3","balanceOf(address)":"70a08231","collateral()":"d8dfeb45","collateralToken()":"b2016bd4","configureStrike(address)":"0adc1772","expiryTime()":"99bc0aea","getTokenAmount(uint256)":"c2507ac1","mintTo(address,uint256)":"449a52f8","mintToPayable(address)":"b0df1cc7","strikeAsset()":"17d69bc8","strikeToken()":"8c3199a5","transfer(address,uint256)":"a9059cbb","transferFrom(address,address,uint256)":"23b872dd"},"id":0}