{"abi":[{"type":"constructor","inputs":[],"stateMutability":"nonpayable"},{"type":"receive","stateMutability":"payable"},{"type":"function","name":"DAI","inputs":[],"outputs":[{"name":"","type":"address","internalType":"address"}],"stateMutability":"view"},{"type":"function","name":"MIM","inputs":[],"outputs":[{"name":"","type":"address","internalType":"address"}],"stateMutability":"view"},{"type":"function","name":"PROVIDED_TARGET","inputs":[],"outputs":[{"name":"","type":"address","internalType":"address"}],"stateMutability":"view"},{"type":"function","name":"SUSHI_ROUTER","inputs":[],"outputs":[{"name":"","type":"address","internalType":"address"}],"stateMutability":"view"},{"type":"function","name":"TARGET_CAULDRON","inputs":[],"outputs":[{"name":"","type":"address","internalType":"address"}],"stateMutability":"view"},{"type":"function","name":"UNISWAP_V2_ROUTER","inputs":[],"outputs":[{"name":"","type":"address","internalType":"address"}],"stateMutability":"view"},{"type":"function","name":"USDC","inputs":[],"outputs":[{"name":"","type":"address","internalType":"address"}],"stateMutability":"view"},{"type":"function","name":"USDT","inputs":[],"outputs":[{"name":"","type":"address","internalType":"address"}],"stateMutability":"view"},{"type":"function","name":"WETH","inputs":[],"outputs":[{"name":"","type":"address","internalType":"address"}],"stateMutability":"view"},{"type":"function","name":"activeCauldron","inputs":[],"outputs":[{"name":"","type":"address","internalType":"address"}],"stateMutability":"view"},{"type":"function","name":"addCollateralStageReached","inputs":[],"outputs":[{"name":"","type":"bool","internalType":"bool"}],"stateMutability":"view"},{"type":"function","name":"bentoBoxAddress","inputs":[],"outputs":[{"name":"","type":"address","internalType":"address"}],"stateMutability":"view"},{"type":"function","name":"borrowStageReached","inputs":[],"outputs":[{"name":"","type":"bool","internalType":"bool"}],"stateMutability":"view"},{"type":"function","name":"borrowedMimAmount","inputs":[],"outputs":[{"name":"","type":"uint256","internalType":"uint256"}],"stateMutability":"view"},{"type":"function","name":"borrowedMimShare","inputs":[],"outputs":[{"name":"","type":"uint256","internalType":"uint256"}],"stateMutability":"view"},{"type":"function","name":"collateralDepositAmount","inputs":[],"outputs":[{"name":"","type":"uint256","internalType":"uint256"}],"stateMutability":"view"},{"type":"function","name":"collateralLeaveShare","inputs":[],"outputs":[{"name":"","type":"uint256","internalType":"uint256"}],"stateMutability":"view"},{"type":"function","name":"collateralLpDetected","inputs":[],"outputs":[{"name":"","type":"bool","internalType":"bool"}],"stateMutability":"view"},{"type":"function","name":"collateralLpToken0","inputs":[],"outputs":[{"name":"","type":"address","internalType":"address"}],"stateMutability":"view"},{"type":"function","name":"collateralLpToken1","inputs":[],"outputs":[{"name":"","type":"address","internalType":"address"}],"stateMutability":"view"},{"type":"function","name":"collateralShareAdded","inputs":[],"outputs":[{"name":"","type":"uint256","internalType":"uint256"}],"stateMutability":"view"},{"type":"function","name":"collateralToken","inputs":[],"outputs":[{"name":"","type":"address","internalType":"address"}],"stateMutability":"view"},{"type":"function","name":"collateralTopUpAmount","inputs":[],"outputs":[{"name":"","type":"uint256","internalType":"uint256"}],"stateMutability":"view"},{"type":"function","name":"collateralTopUpSpentMim","inputs":[],"outputs":[{"name":"","type":"uint256","internalType":"uint256"}],"stateMutability":"view"},{"type":"function","name":"directOracleRate","inputs":[],"outputs":[{"name":"","type":"uint256","internalType":"uint256"}],"stateMutability":"view"},{"type":"function","name":"directOracleSuccess","inputs":[],"outputs":[{"name":"","type":"bool","internalType":"bool"}],"stateMutability":"view"},{"type":"function","name":"execute","inputs":[],"outputs":[{"name":"","type":"uint256","internalType":"uint256"}],"stateMutability":"nonpayable"},{"type":"function","name":"executeOnOpportunity","inputs":[],"outputs":[{"name":"","type":"uint256","internalType":"uint256"}],"stateMutability":"nonpayable"},{"type":"function","name":"exploit","inputs":[],"outputs":[{"name":"","type":"uint256","internalType":"uint256"}],"stateMutability":"nonpayable"},{"type":"function","name":"feeBufferBought","inputs":[],"outputs":[{"name":"","type":"uint256","internalType":"uint256"}],"stateMutability":"view"},{"type":"function","name":"flashCollateralAmount","inputs":[],"outputs":[{"name":"","type":"uint256","internalType":"uint256"}],"stateMutability":"view"},{"type":"function","name":"flashCollateralFee","inputs":[],"outputs":[{"name":"","type":"uint256","internalType":"uint256"}],"stateMutability":"view"},{"type":"function","name":"flashMimAmount","inputs":[],"outputs":[{"name":"","type":"uint256","internalType":"uint256"}],"stateMutability":"view"},{"type":"function","name":"flashMimFee","inputs":[],"outputs":[{"name":"","type":"uint256","internalType":"uint256"}],"stateMutability":"view"},{"type":"function","name":"grossMimBalance","inputs":[],"outputs":[{"name":"","type":"uint256","internalType":"uint256"}],"stateMutability":"view"},{"type":"function","name":"hypothesisRefuted","inputs":[],"outputs":[{"name":"","type":"bool","internalType":"bool"}],"stateMutability":"view"},{"type":"function","name":"hypothesisValidated","inputs":[],"outputs":[{"name":"","type":"bool","internalType":"bool"}],"stateMutability":"view"},{"type":"function","name":"infeasibleReason","inputs":[],"outputs":[{"name":"","type":"bytes32","internalType":"bytes32"}],"stateMutability":"view"},{"type":"function","name":"liquidateStageReached","inputs":[],"outputs":[{"name":"","type":"bool","internalType":"bool"}],"stateMutability":"view"},{"type":"function","name":"liquidationBlocked","inputs":[],"outputs":[{"name":"","type":"bool","internalType":"bool"}],"stateMutability":"view"},{"type":"function","name":"liveTargetCachedZero","inputs":[],"outputs":[{"name":"","type":"bool","internalType":"bool"}],"stateMutability":"view"},{"type":"function","name":"liveTargetInitPathOnly","inputs":[],"outputs":[{"name":"","type":"bool","internalType":"bool"}],"stateMutability":"view"},{"type":"function","name":"liveTargetUpdateZeroWorked","inputs":[],"outputs":[{"name":"","type":"bool","internalType":"bool"}],"stateMutability":"view"},{"type":"function","name":"liveTargetZeroRateMissing","inputs":[],"outputs":[{"name":"","type":"bool","internalType":"bool"}],"stateMutability":"view"},{"type":"function","name":"liveUpdateRate","inputs":[],"outputs":[{"name":"","type":"uint256","internalType":"uint256"}],"stateMutability":"view"},{"type":"function","name":"liveUpdateReturnedUpdated","inputs":[],"outputs":[{"name":"","type":"bool","internalType":"bool"}],"stateMutability":"view"},{"type":"function","name":"liveUpdateWorked","inputs":[],"outputs":[{"name":"","type":"bool","internalType":"bool"}],"stateMutability":"view"},{"type":"function","name":"mimLiquiditySeededShare","inputs":[],"outputs":[{"name":"","type":"uint256","internalType":"uint256"}],"stateMutability":"view"},{"type":"function","name":"onFlashLoan","inputs":[{"name":"sender","type":"address","internalType":"address"},{"name":"token","type":"address","internalType":"address"},{"name":"amount","type":"uint256","internalType":"uint256"},{"name":"fee","type":"uint256","internalType":"uint256"},{"name":"","type":"bytes","internalType":"bytes"}],"outputs":[],"stateMutability":"nonpayable"},{"type":"function","name":"oracleAddress","inputs":[],"outputs":[{"name":"","type":"address","internalType":"address"}],"stateMutability":"view"},{"type":"function","name":"oracleDataBlob","inputs":[],"outputs":[{"name":"","type":"bytes","internalType":"bytes"}],"stateMutability":"view"},{"type":"function","name":"oracleStageReached","inputs":[],"outputs":[{"name":"","type":"bool","internalType":"bool"}],"stateMutability":"view"},{"type":"function","name":"postBorrowSolvent","inputs":[],"outputs":[{"name":"","type":"bool","internalType":"bool"}],"stateMutability":"view"},{"type":"function","name":"profitAmount","inputs":[],"outputs":[{"name":"","type":"uint256","internalType":"uint256"}],"stateMutability":"view"},{"type":"function","name":"profitToken","inputs":[],"outputs":[{"name":"","type":"address","internalType":"address"}],"stateMutability":"pure"},{"type":"function","name":"run","inputs":[],"outputs":[{"name":"","type":"uint256","internalType":"uint256"}],"stateMutability":"nonpayable"},{"type":"function","name":"selectedTarget","inputs":[],"outputs":[{"name":"","type":"address","internalType":"address"}],"stateMutability":"view"},{"type":"function","name":"updateRateStageReached","inputs":[],"outputs":[{"name":"","type":"bool","internalType":"bool"}],"stateMutability":"view"},{"type":"function","name":"usedLiveTarget","inputs":[],"outputs":[{"name":"","type":"bool","internalType":"bool"}],"stateMutability":"view"},{"type":"function","name":"usedValidationClone","inputs":[],"outputs":[{"name":"","type":"bool","internalType":"bool"}],"stateMutability":"view"},{"type":"function","name":"validationClone","inputs":[],"outputs":[{"name":"","type":"address","internalType":"address"}],"stateMutability":"view"},{"type":"function","name":"zeroOracle","inputs":[],"outputs":[{"name":"","type":"address","internalType":"address"}],"stateMutability":"view"}],"bytecode":{"object":"0x6080604052348015600e575f5ffd5b50618cfd8061001c5f395ff3fe6080604052600436106103b0575f3560e01c8063a3bb46dd116101e6578063d5b5a5571161010c578063e6687f051161009f578063eb77ff0f1161006e578063eb77ff0f14610d3d578063f1f361a414610d67578063f9d3cc0514610d91578063fcafc31914610dbb576103b7565b8063e6687f0514610c95578063e7cda06d14610cbf578063e8c28fee14610ce9578063ea54459314610d13576103b7565b8063de02cfdf116100db578063de02cfdf14610bed578063e0bab4c414610c17578063e2708ebb14610c41578063e3fc037b14610c6b576103b7565b8063d5b5a55714610b45578063d87bf97f14610b6f578063daec383d14610b99578063dbe7b09f14610bc3576103b7565b8063ad5c464811610184578063bd7a598c11610153578063bd7a598c14610a9d578063c040622614610ac7578063c54e44eb14610af1578063cf30cf7b14610b1b576103b7565b8063ad5c4648146109f5578063b2016bd414610a1f578063b40d2e9814610a49578063b7021f7714610a73576103b7565b8063a82ed9ec116101c0578063a82ed9ec1461094d578063a89ae4ba14610977578063a8b81f55146109a1578063ace5cb58146109cb576103b7565b8063a3bb46dd146108cf578063a539b246146108f9578063a665215714610923576103b7565b80635bf39ab9116102d6578063810c7a40116102695780638f310cf0116102385780638f310cf0146108275780639348a23814610851578063954589141461087b578063981c88f7146108a5576103b7565b8063810c7a401461077f5780638469ff16146107a9578063892d0bd2146107d357806389a30271146107fd576103b7565b806363d9b770116102a557806363d9b770146106d75780636d02b5ca1461070157806372ea48091461072b5780637c27e19f14610755576103b7565b80635bf39ab91461062f5780635ff972cc1461065957806361461954146106835780636208fdd8146106ad576103b7565b80633c2448ed1161034e578063495f92f11161031d578063495f92f1146105875780634af5e4e6146105b15780635a41b82a146105db5780635a6e402b14610605576103b7565b80633c2448ed146104df5780634071084d14610509578063463defd114610533578063493436241461055d576103b7565b806323e30c8b1161038a57806323e30c8b146104395780632759f2f1146104615780632edf00fb1461048b578063370be116146104b5576103b7565b80630c24f4fa146103bb5780631018911e146103e557806322cb9ca31461040f576103b7565b366103b757005b5f5ffd5b3480156103c6575f5ffd5b506103cf610de5565b6040516103dc919061704b565b60405180910390f35b3480156103f0575f5ffd5b506103f9610dfd565b604051610406919061704b565b60405180910390f35b34801561041a575f5ffd5b50610423610e15565b604051610430919061704b565b60405180910390f35b348015610444575f5ffd5b5061045f600480360381019061045a9190617133565b610e3a565b005b34801561046c575f5ffd5b5061047561102f565b60405161048291906171e3565b60405180910390f35b348015610496575f5ffd5b5061049f611042565b6040516104ac919061704b565b60405180910390f35b3480156104c0575f5ffd5b506104c9611066565b6040516104d6919061704b565b60405180910390f35b3480156104ea575f5ffd5b506104f361108b565b604051610500919061720b565b60405180910390f35b348015610514575f5ffd5b5061051d611099565b60405161052a919061720b565b60405180910390f35b34801561053e575f5ffd5b5061054761109f565b60405161055491906171e3565b60405180910390f35b348015610568575f5ffd5b506105716110b2565b60405161057e919061704b565b60405180910390f35b348015610592575f5ffd5b5061059b6110cd565b6040516105a891906171e3565b60405180910390f35b3480156105bc575f5ffd5b506105c56110e0565b6040516105d2919061720b565b60405180910390f35b3480156105e6575f5ffd5b506105ef6110e6565b6040516105fc91906171e3565b60405180910390f35b348015610610575f5ffd5b506106196110f9565b604051610626919061720b565b60405180910390f35b34801561063a575f5ffd5b506106436110ff565b604051610650919061720b565b60405180910390f35b348015610664575f5ffd5b5061066d611105565b60405161067a919061720b565b60405180910390f35b34801561068e575f5ffd5b5061069761110e565b6040516106a4919061720b565b60405180910390f35b3480156106b8575f5ffd5b506106c161111c565b6040516106ce919061720b565b60405180910390f35b3480156106e2575f5ffd5b506106eb611122565b6040516106f8919061720b565b60405180910390f35b34801561070c575f5ffd5b50610715611130565b604051610722919061720b565b60405180910390f35b348015610736575f5ffd5b5061073f611136565b60405161074c919061720b565b60405180910390f35b348015610760575f5ffd5b5061076961113c565b60405161077691906171e3565b60405180910390f35b34801561078a575f5ffd5b5061079361114f565b6040516107a0919061720b565b60405180910390f35b3480156107b4575f5ffd5b506107bd611155565b6040516107ca91906171e3565b60405180910390f35b3480156107de575f5ffd5b506107e7611168565b6040516107f4919061720b565b60405180910390f35b348015610808575f5ffd5b5061081161116e565b60405161081e919061704b565b60405180910390f35b348015610832575f5ffd5b5061083b611186565b60405161084891906171e3565b60405180910390f35b34801561085c575f5ffd5b50610865611198565b60405161087291906171e3565b60405180910390f35b348015610886575f5ffd5b5061088f6111ab565b60405161089c919061720b565b60405180910390f35b3480156108b0575f5ffd5b506108b96111b1565b6040516108c6919061704b565b60405180910390f35b3480156108da575f5ffd5b506108e36111d6565b6040516108f0919061720b565b60405180910390f35b348015610904575f5ffd5b5061090d6111dc565b60405161091a91906171e3565b60405180910390f35b34801561092e575f5ffd5b506109376111ee565b604051610944919061723c565b60405180910390f35b348015610958575f5ffd5b506109616111f4565b60405161096e919061704b565b60405180910390f35b348015610982575f5ffd5b5061098b61120c565b604051610998919061704b565b60405180910390f35b3480156109ac575f5ffd5b506109b5611231565b6040516109c291906171e3565b60405180910390f35b3480156109d6575f5ffd5b506109df611244565b6040516109ec91906171e3565b60405180910390f35b348015610a00575f5ffd5b50610a09611257565b604051610a16919061704b565b60405180910390f35b348015610a2a575f5ffd5b50610a3361126f565b604051610a40919061704b565b60405180910390f35b348015610a54575f5ffd5b50610a5d611294565b604051610a6a91906171e3565b60405180910390f35b348015610a7e575f5ffd5b50610a876112a6565b604051610a9491906171e3565b60405180910390f35b348015610aa8575f5ffd5b50610ab16112b9565b604051610abe919061704b565b60405180910390f35b348015610ad2575f5ffd5b50610adb6112d1565b604051610ae8919061720b565b60405180910390f35b348015610afc575f5ffd5b50610b056112df565b604051610b12919061704b565b60405180910390f35b348015610b26575f5ffd5b50610b2f6112f7565b604051610b3c91906171e3565b60405180910390f35b348015610b50575f5ffd5b50610b5961130a565b604051610b6691906171e3565b60405180910390f35b348015610b7a575f5ffd5b50610b8361131c565b604051610b90919061720b565b60405180910390f35b348015610ba4575f5ffd5b50610bad611322565b604051610bba919061704b565b60405180910390f35b348015610bce575f5ffd5b50610bd761133a565b604051610be4919061704b565b60405180910390f35b348015610bf8575f5ffd5b50610c01611360565b604051610c0e919061720b565b60405180910390f35b348015610c22575f5ffd5b50610c2b611366565b604051610c38919061704b565b60405180910390f35b348015610c4c575f5ffd5b50610c5561137e565b604051610c62919061720b565b60405180910390f35b348015610c76575f5ffd5b50610c7f611384565b604051610c8c91906172c5565b60405180910390f35b348015610ca0575f5ffd5b50610ca9611410565b604051610cb6919061720b565b60405180910390f35b348015610cca575f5ffd5b50610cd3611416565b604051610ce0919061720b565b60405180910390f35b348015610cf4575f5ffd5b50610cfd61141c565b604051610d0a91906171e3565b60405180910390f35b348015610d1e575f5ffd5b50610d2761142d565b604051610d3491906171e3565b60405180910390f35b348015610d48575f5ffd5b50610d51611440565b604051610d5e919061704b565b60405180910390f35b348015610d72575f5ffd5b50610d7b611465565b604051610d88919061704b565b60405180910390f35b348015610d9c575f5ffd5b50610da561148a565b604051610db291906171e3565b60405180910390f35b348015610dc6575f5ffd5b50610dcf61149c565b604051610ddc91906171e3565b60405180910390f35b73d9e1ce17f2641f24ae83637ab66a2cca9c378b9f81565b73289424add4a1a503870eb475fd8bf1d586b134ed81565b601e5f9054906101000a900473ffffffffffffffffffffffffffffffffffffffff1681565b601b5f9054906101000a900473ffffffffffffffffffffffffffffffffffffffff1673ffffffffffffffffffffffffffffffffffffffff163373ffffffffffffffffffffffffffffffffffffffff1614610ec9576040517f08c379a0000000000000000000000000000000000000000000000000000000008152600401610ec09061733f565b60405180910390fd5b3073ffffffffffffffffffffffffffffffffffffffff168673ffffffffffffffffffffffffffffffffffffffff1614610f37576040517f08c379a0000000000000000000000000000000000000000000000000000000008152600401610f2e906173a7565b60405180910390fd5b60195f9054906101000a900473ffffffffffffffffffffffffffffffffffffffff1673ffffffffffffffffffffffffffffffffffffffff168573ffffffffffffffffffffffffffffffffffffffff1603610f9a57610f9584846114af565b611027565b7399d8a9c45b2eca8864373a26d1459e3dff1e17f373ffffffffffffffffffffffffffffffffffffffff168573ffffffffffffffffffffffffffffffffffffffff161461101c576040517f08c379a00000000000000000000000000000000000000000000000000000000081526004016110139061740f565b60405180910390fd5b61102684846116fa565b5b505050505050565b6002600b9054906101000a900460ff1681565b5f5f9054906101000a900473ffffffffffffffffffffffffffffffffffffffff1681565b601d5f9054906101000a900473ffffffffffffffffffffffffffffffffffffffff1681565b5f6110946119be565b905090565b600d5481565b600260069054906101000a900460ff1681565b5f7399d8a9c45b2eca8864373a26d1459e3dff1e17f3905090565b600260079054906101000a900460ff1681565b600c5481565b6002600a9054906101000a900460ff1681565b600a5481565b60115481565b5f600154905090565b5f6111176119be565b905090565b60085481565b5f61112b6119be565b905090565b60035481565b600e5481565b600260039054906101000a900460ff1681565b60125481565b600260019054906101000a900460ff1681565b60095481565b73a0b86991c6218b36c1d19d4a2e9eb0ce3606eb4881565b60045f9054906101000a900460ff1681565b600260049054906101000a900460ff1681565b60145481565b601c5f9054906101000a900473ffffffffffffffffffffffffffffffffffffffff1681565b60105481565b60025f9054906101000a900460ff1681565b60165481565b737a250d5630b4cf539739df2c5dacb4c659f2488d81565b601a5f9054906101000a900473ffffffffffffffffffffffffffffffffffffffff1681565b6002600c9054906101000a900460ff1681565b600660019054906101000a900460ff1681565b73c02aaa39b223fe8d0a0e5c4f27ead9083c756cc281565b60195f9054906101000a900473ffffffffffffffffffffffffffffffffffffffff1681565b60065f9054906101000a900460ff1681565b600260059054906101000a900460ff1681565b7346f54d434063e5f1a2b2cc6d9aaa657b1b9ff82c81565b5f6112da6119be565b905090565b73dac17f958d2ee523a2206206994597c13d831ec781565b600260089054906101000a900460ff1681565b60155f9054906101000a900460ff1681565b60135481565b7399d8a9c45b2eca8864373a26d1459e3dff1e17f381565b601760019054906101000a900473ffffffffffffffffffffffffffffffffffffffff1681565b60055481565b736b175474e89094c44da98b954eedeac495271d0f81565b600f5481565b601f80546113919061745a565b80601f01602080910402602001604051908101604052809291908181526020018280546113bd9061745a565b80156114085780601f106113df57610100808354040283529160200191611408565b820191905f5260205f20905b8154815290600101906020018083116113eb57829003601f168201915b505050505081565b600b5481565b60075481565b60028054906101000a900460ff1681565b600260099054906101000a900460ff1681565b601b5f9054906101000a900473ffffffffffffffffffffffffffffffffffffffff1681565b60185f9054906101000a900473ffffffffffffffffffffffffffffffffffffffff1681565b60175f9054906101000a900460ff1681565b600460019054906101000a900460ff1681565b80600a819055505f601b5f9054906101000a900473ffffffffffffffffffffffffffffffffffffffff1690506002600b9054906101000a900460ff1615611587578073ffffffffffffffffffffffffffffffffffffffff1663f1676d3730307399d8a9c45b2eca8864373a26d1459e3dff1e17f3600b5460405180602001604052805f8152506040518663ffffffff1660e01b81526004016115559594939291906174e5565b5f604051808303815f87803b15801561156c575f5ffd5b505af115801561157e573d5f5f3e3d5ffd5b505050506115b2565b6115b1601c5f9054906101000a900473ffffffffffffffffffffffffffffffffffffffff166125e8565b5b5f60195f9054906101000a900473ffffffffffffffffffffffffffffffffffffffff1673ffffffffffffffffffffffffffffffffffffffff166370a08231306040518263ffffffff1660e01b815260040161160d919061704b565b602060405180830381865afa158015611628573d5f5f3e3d5ffd5b505050506040513d601f19601f8201168201806040525081019061164c9190617551565b9050828461165a91906175a9565b81101561169c576040517f08c379a000000000000000000000000000000000000000000000000000000000815260040161169390617626565b60405180910390fd5b6116f460195f9054906101000a900473ffffffffffffffffffffffffffffffffffffffff16601b5f9054906101000a900473ffffffffffffffffffffffffffffffffffffffff1685876116ef91906175a9565b613341565b50505050565b6002600b9054906101000a900460ff16611749576040517f08c379a00000000000000000000000000000000000000000000000000000000081526004016117409061768e565b60405180910390fd5b80600c819055505f601b5f9054906101000a900473ffffffffffffffffffffffffffffffffffffffff1690508073ffffffffffffffffffffffffffffffffffffffff166302b9446c7399d8a9c45b2eca8864373a26d1459e3dff1e17f330601c5f9054906101000a900473ffffffffffffffffffffffffffffffffffffffff16875f6040518663ffffffff1660e01b81526004016117eb9594939291906176e5565b60408051808303815f875af1158015611806573d5f5f3e3d5ffd5b505050506040513d601f19601f8201168201806040525081019061182a9190617736565b905060125f8291905055505f60125403611879576040517f08c379a0000000000000000000000000000000000000000000000000000000008152600401611870906177be565b60405180910390fd5b5f821461198f57817399d8a9c45b2eca8864373a26d1459e3dff1e17f373ffffffffffffffffffffffffffffffffffffffff166370a08231306040518263ffffffff1660e01b81526004016118ce919061704b565b602060405180830381865afa1580156118e9573d5f5f3e3d5ffd5b505050506040513d601f19601f8201168201806040525081019061190d9190617551565b101561194e576040517f08c379a000000000000000000000000000000000000000000000000000000000815260040161194590617826565b60405180910390fd5b61198e7399d8a9c45b2eca8864373a26d1459e3dff1e17f3601b5f9054906101000a900473ffffffffffffffffffffffffffffffffffffffff1684613341565b5b6119b9601c5f9054906101000a900473ffffffffffffffffffffffffffffffffffffffff166125e8565b505050565b5f5f60149054906101000a900460ff16156119dd5760015490506125e5565b60015f60146101000a81548160ff0219169083151502179055506119ff613490565b5f5f6101000a81548173ffffffffffffffffffffffffffffffffffffffff021916908373ffffffffffffffffffffffffffffffffffffffff1602179055505f73ffffffffffffffffffffffffffffffffffffffff165f5f9054906101000a900473ffffffffffffffffffffffffffffffffffffffff1673ffffffffffffffffffffffffffffffffffffffff1603611ada576001600260076101000a81548160ff0219169083151502179055507f38ed9f55514e3edd71f8851d7534fe642e7b0c697d86250a1c6790ad7b43d7e06016819055505f90506125e5565b5f5f5f9054906101000a900473ffffffffffffffffffffffffffffffffffffffff1690507399d8a9c45b2eca8864373a26d1459e3dff1e17f373ffffffffffffffffffffffffffffffffffffffff168173ffffffffffffffffffffffffffffffffffffffff16639b352ae16040518163ffffffff1660e01b8152600401602060405180830381865afa158015611b72573d5f5f3e3d5ffd5b505050506040513d601f19601f82011682018060405250810190611b969190617858565b73ffffffffffffffffffffffffffffffffffffffff1614611bfc576001600260076101000a81548160ff0219169083151502179055507f365a7ff08c8322c57603f9d881ad4ef803926f04a09ddcbc98d1ff67b1555cca6016819055505f9150506125e5565b8073ffffffffffffffffffffffffffffffffffffffff1663d8dfeb456040518163ffffffff1660e01b8152600401602060405180830381865afa158015611c45573d5f5f3e3d5ffd5b505050506040513d601f19601f82011682018060405250810190611c699190617858565b60195f6101000a81548173ffffffffffffffffffffffffffffffffffffffff021916908373ffffffffffffffffffffffffffffffffffffffff1602179055508073ffffffffffffffffffffffffffffffffffffffff16637dc0d1d06040518163ffffffff1660e01b8152600401602060405180830381865afa158015611cf1573d5f5f3e3d5ffd5b505050506040513d601f19601f82011682018060405250810190611d159190617858565b601a5f6101000a81548173ffffffffffffffffffffffffffffffffffffffff021916908373ffffffffffffffffffffffffffffffffffffffff1602179055508073ffffffffffffffffffffffffffffffffffffffff166374645ff36040518163ffffffff1660e01b81526004015f60405180830381865afa158015611d9c573d5f5f3e3d5ffd5b505050506040513d5f823e3d601f19601f82011682018060405250810190611dc4919061799d565b601f9081611dd29190617b7b565b508073ffffffffffffffffffffffffffffffffffffffff16636b2ace876040518163ffffffff1660e01b8152600401602060405180830381865afa158015611e1c573d5f5f3e3d5ffd5b505050506040513d601f19601f82011682018060405250810190611e409190617858565b601b5f6101000a81548173ffffffffffffffffffffffffffffffffffffffff021916908373ffffffffffffffffffffffffffffffffffffffff1602179055505f73ffffffffffffffffffffffffffffffffffffffff1660195f9054906101000a900473ffffffffffffffffffffffffffffffffffffffff1673ffffffffffffffffffffffffffffffffffffffff161480611f2657505f73ffffffffffffffffffffffffffffffffffffffff16601a5f9054906101000a900473ffffffffffffffffffffffffffffffffffffffff1673ffffffffffffffffffffffffffffffffffffffff16145b80611f7d57505f73ffffffffffffffffffffffffffffffffffffffff16601b5f9054906101000a900473ffffffffffffffffffffffffffffffffffffffff1673ffffffffffffffffffffffffffffffffffffffff16145b15611fcd576001600260076101000a81548160ff0219169083151502179055507fc36d260585e1e637e41b8f34b284c3ac0a0dd7119e0b4574932855a97eb23f716016819055505f9150506125e5565b611fd56134d3565b611fdd613648565b600f819055505f600f5403612037576001600260076101000a81548160ff0219169083151502179055507fcf609d0601476db69bfdfcca9001e93b9592563c93281a23ed5bedba069abebf6016819055505f9150506125e5565b61203f613650565b6009819055505f60095403612099576001600260076101000a81548160ff0219169083151502179055507fe62aa29de1d75a8317ada22b1ef4807f9478b75ee9f1c7431eca788282ba4a9b6016819055505f9150506125e5565b6120a161382f565b60065f9054906101000a900460ff16806120c75750600660019054906101000a900460ff165b15612180575f5f9054906101000a900473ffffffffffffffffffffffffffffffffffffffff16601c5f6101000a81548173ffffffffffffffffffffffffffffffffffffffff021916908373ffffffffffffffffffffffffffffffffffffffff16021790555060016002600a6101000a81548160ff02191690831515021790555060016002806101000a81548160ff021916908315150217905550600160025f6101000a81548160ff021916908315150217905550612396565b6001600260086101000a81548160ff0219169083151502179055506001600260096101000a81548160ff0219169083151502179055506121be613b54565b601d5f9054906101000a900473ffffffffffffffffffffffffffffffffffffffff16601c5f6101000a81548173ffffffffffffffffffffffffffffffffffffffff021916908373ffffffffffffffffffffffffffffffffffffffff16021790555060016002600b6101000a81548160ff0219169083151502179055506122426142bf565b7399d8a9c45b2eca8864373a26d1459e3dff1e17f373ffffffffffffffffffffffffffffffffffffffff166370a08231306040518263ffffffff1660e01b815260040161228f919061704b565b602060405180830381865afa1580156122aa573d5f5f3e3d5ffd5b505050506040513d601f19601f820116820180604052508101906122ce9190617551565b6013819055505f60135403612328576001600260076101000a81548160ff0219169083151502179055507ffcfb2f4d021db9b6947e6190c6da0f6415bd8d3d496d21699a112b93fa9791296016819055505f9150506125e5565b6123336013546146ca565b600b8190555067016345785d8a0000600b5411612395576001600260076101000a81548160ff0219169083151502179055507f75c4b12af9078110608299b054ff7c246969bbb5bd51bf71ab83dbd4323cf3036016819055505f9150506125e5565b5b601b5f9054906101000a900473ffffffffffffffffffffffffffffffffffffffff1673ffffffffffffffffffffffffffffffffffffffff1663f1676d37303060195f9054906101000a900473ffffffffffffffffffffffffffffffffffffffff1660095460405180602001604052805f8152506040518663ffffffff1660e01b81526004016124299594939291906174e5565b5f604051808303815f87803b158015612440575f5ffd5b505af1158015612452573d5f5f3e3d5ffd5b505050507399d8a9c45b2eca8864373a26d1459e3dff1e17f373ffffffffffffffffffffffffffffffffffffffff166370a08231306040518263ffffffff1660e01b81526004016124a3919061704b565b602060405180830381865afa1580156124be573d5f5f3e3d5ffd5b505050506040513d601f19601f820116820180604052508101906124e29190617551565b601481905550601354601454116124f9575f61250a565b6013546014546125099190617c4a565b5b60018190555060025f9054906101000a900460ff1680156125375750600260019054906101000a900460ff165b801561254f5750600260039054906101000a900460ff165b80156125675750600260049054906101000a900460ff165b801561257f5750600260059054906101000a900460ff165b8015612595575067016345785d8a000060015410155b600260066101000a81548160ff021916908315150217905550600260069054906101000a900460ff166125de576001600260076101000a81548160ff0219169083151502179055505b6001549150505b90565b5f601b5f9054906101000a900473ffffffffffffffffffffffffffffffffffffffff169050600a5460095411612653576040517f08c379a000000000000000000000000000000000000000000000000000000000815260040161264a90617cc7565b60405180910390fd5b600a546009546126639190617c4a565b600e819055508073ffffffffffffffffffffffffffffffffffffffff166302b9446c60195f9054906101000a900473ffffffffffffffffffffffffffffffffffffffff1630601c5f9054906101000a900473ffffffffffffffffffffffffffffffffffffffff16600e545f6040518663ffffffff1660e01b81526004016126ee9594939291906176e5565b60408051808303815f875af1158015612709573d5f5f3e3d5ffd5b505050506040513d601f19601f8201168201806040525081019061272d9190617736565b9050600d5f829190505550600f54600d541161277e576040517f08c379a000000000000000000000000000000000000000000000000000000000815260040161277590617d2f565b60405180910390fd5b8173ffffffffffffffffffffffffffffffffffffffff1663860ffea1306001600d546040518463ffffffff1660e01b81526004016127be93929190617d4d565b5f604051808303815f87803b1580156127d5575f5ffd5b505af11580156127e7573d5f5f3e3d5ffd5b505050506001600260016101000a81548160ff0219169083151502179055505f8173ffffffffffffffffffffffffffffffffffffffff1663f7888aec7399d8a9c45b2eca8864373a26d1459e3dff1e17f3601c5f9054906101000a900473ffffffffffffffffffffffffffffffffffffffff166040518363ffffffff1660e01b8152600401612877929190617d82565b602060405180830381865afa158015612892573d5f5f3e3d5ffd5b505050506040513d601f19601f820116820180604052508101906128b69190617551565b90505f8273ffffffffffffffffffffffffffffffffffffffff1663566231187399d8a9c45b2eca8864373a26d1459e3dff1e17f3845f6040518463ffffffff1660e01b815260040161290a93929190617da9565b602060405180830381865afa158015612925573d5f5f3e3d5ffd5b505050506040513d601f19601f820116820180604052508101906129499190617551565b90506001811161298e576040517f08c379a000000000000000000000000000000000000000000000000000000000815260040161298590617e28565b60405180910390fd5b60018161299b9190617c4a565b6007819055508373ffffffffffffffffffffffffffffffffffffffff16634b8a3529306007546040518363ffffffff1660e01b81526004016129de929190617e46565b60408051808303815f875af11580156129f9573d5f5f3e3d5ffd5b505050506040513d601f19601f82011682018060405250810190612a1d9190617736565b905060085f8291905055506001600260036101000a81548160ff0219169083151502179055505f60085414612aec578273ffffffffffffffffffffffffffffffffffffffff166397da6d307399d8a9c45b2eca8864373a26d1459e3dff1e17f330305f6008546040518663ffffffff1660e01b8152600401612aa3959493929190617e6d565b60408051808303815f875af1158015612abe573d5f5f3e3d5ffd5b505050506040513d601f19601f82011682018060405250810190612ae29190617736565b50505f6008819055505b8373ffffffffffffffffffffffffffffffffffffffff166338b51ce1306040518263ffffffff1660e01b8152600401612b25919061704b565b602060405180830381865afa158015612b40573d5f5f3e3d5ffd5b505050506040513d601f19601f82011682018060405250810190612b649190617ee8565b60155f6101000a81548160ff0219169083151502179055505f8473ffffffffffffffffffffffffffffffffffffffff16631c9e379b306040518263ffffffff1660e01b8152600401612bb6919061704b565b602060405180830381865afa158015612bd1573d5f5f3e3d5ffd5b505050506040513d601f19601f82011682018060405250810190612bf59190617551565b9050600f54811115612dc6575f600f5482612c109190617c4a565b90508573ffffffffffffffffffffffffffffffffffffffff1663876467f830836040518363ffffffff1660e01b8152600401612c4d929190617e46565b5f604051808303815f87803b158015612c64575f5ffd5b505af1158015612c76573d5f5f3e3d5ffd5b505050505f8573ffffffffffffffffffffffffffffffffffffffff1663f7888aec60195f9054906101000a900473ffffffffffffffffffffffffffffffffffffffff16306040518363ffffffff1660e01b8152600401612cd7929190617d82565b602060405180830381865afa158015612cf2573d5f5f3e3d5ffd5b505050506040513d601f19601f82011682018060405250810190612d169190617551565b90505f8114612dc3578573ffffffffffffffffffffffffffffffffffffffff166397da6d3060195f9054906101000a900473ffffffffffffffffffffffffffffffffffffffff1630305f866040518663ffffffff1660e01b8152600401612d81959493929190617e6d565b60408051808303815f875af1158015612d9c573d5f5f3e3d5ffd5b505050506040513d601f19601f82011682018060405250810190612dc09190617736565b50505b50505b5f600a54600954612dd791906175a9565b90505f60195f9054906101000a900473ffffffffffffffffffffffffffffffffffffffff1673ffffffffffffffffffffffffffffffffffffffff166370a08231306040518263ffffffff1660e01b8152600401612e34919061704b565b602060405180830381865afa158015612e4f573d5f5f3e3d5ffd5b505050506040513d601f19601f82011682018060405250810190612e739190617551565b90505f6010819055505f60118190555081811015612f8a578082612e979190617c4a565b601081905550612ea86010546147e0565b6011819055508160195f9054906101000a900473ffffffffffffffffffffffffffffffffffffffff1673ffffffffffffffffffffffffffffffffffffffff166370a08231306040518263ffffffff1660e01b8152600401612f09919061704b565b602060405180830381865afa158015612f24573d5f5f3e3d5ffd5b505050506040513d601f19601f82011682018060405250810190612f489190617551565b1015612f89576040517f08c379a0000000000000000000000000000000000000000000000000000000008152600401612f8090617f5d565b60405180910390fd5b5b5f600167ffffffffffffffff811115612fa657612fa5617887565b5b604051908082528060200260200182016040528015612fd45781602001602082028036833780820191505090505b50905030815f81518110612feb57612fea617f7b565b5b602002602001019073ffffffffffffffffffffffffffffffffffffffff16908173ffffffffffffffffffffffffffffffffffffffff16815250505f600167ffffffffffffffff81111561304157613040617887565b5b60405190808252806020026020018201604052801561306f5781602001602082028036833780820191505090505b5090508873ffffffffffffffffffffffffffffffffffffffff166348e4163e306040518263ffffffff1660e01b81526004016130ab919061704b565b602060405180830381865afa1580156130c6573d5f5f3e3d5ffd5b505050506040513d601f19601f820116820180604052508101906130ea9190617551565b815f815181106130fd576130fc617f7b565b5b6020026020010181815250505f5f601c5f9054906101000a900473ffffffffffffffffffffffffffffffffffffffff1673ffffffffffffffffffffffffffffffffffffffff1663ff6ff84b60e01b8585305f60405180602001604052805f815250604051602401613172959493929190618116565b604051602081830303815290604052907bffffffffffffffffffffffffffffffffffffffffffffffffffffffff19166020820180517bffffffffffffffffffffffffffffffffffffffffffffffffffffffff83818316178352505050506040516131dc91906181b6565b5f604051808303815f865af19150503d805f8114613215576040519150601f19603f3d011682016040523d82523d5f602084013e61321a565b606091505b50915091506001600260046101000a81548160ff021916908315150217905550811580156132cc575061324c8161494a565b806132cb57508a73ffffffffffffffffffffffffffffffffffffffff166338b51ce1306040518263ffffffff1660e01b815260040161328b919061704b565b602060405180830381865afa1580156132a6573d5f5f3e3d5ffd5b505050506040513d601f19601f820116820180604052508101906132ca9190617ee8565b5b5b600260056101000a81548160ff021916908315150217905550600260059054906101000a900460ff16613334576040517f08c379a000000000000000000000000000000000000000000000000000000000815260040161332b90618216565b60405180910390fd5b5050505050505050505050565b5f5f8473ffffffffffffffffffffffffffffffffffffffff1663a9059cbb60e01b8585604051602401613375929190617e46565b604051602081830303815290604052907bffffffffffffffffffffffffffffffffffffffffffffffffffffffff19166020820180517bffffffffffffffffffffffffffffffffffffffffffffffffffffffff83818316178352505050506040516133df91906181b6565b5f604051808303815f865af19150503d805f8114613418576040519150601f19603f3d011682016040523d82523d5f602084013e61341d565b606091505b509150915081801561344a57505f815114806134495750808060200190518101906134489190617ee8565b5b5b613489576040517f08c379a00000000000000000000000000000000000000000000000000000000081526004016134809061827e565b60405180910390fd5b5050505050565b5f6134ae7346f54d434063e5f1a2b2cc6d9aaa657b1b9ff82c614ae8565b156134cf577346f54d434063e5f1a2b2cc6d9aaa657b1b9ff82c90506134d0565b5b90565b61354060195f9054906101000a900473ffffffffffffffffffffffffffffffffffffffff16601b5f9054906101000a900473ffffffffffffffffffffffffffffffffffffffff167fffffffffffffffffffffffffffffffffffffffffffffffffffffffffffffffff614be5565b6135a07399d8a9c45b2eca8864373a26d1459e3dff1e17f3601b5f9054906101000a900473ffffffffffffffffffffffffffffffffffffffff167fffffffffffffffffffffffffffffffffffffffffffffffffffffffffffffffff614be5565b6135f37399d8a9c45b2eca8864373a26d1459e3dff1e17f373d9e1ce17f2641f24ae83637ab66a2cca9c378b9f7fffffffffffffffffffffffffffffffffffffffffffffffffffffffffffffffff614be5565b6136467399d8a9c45b2eca8864373a26d1459e3dff1e17f3737a250d5630b4cf539739df2c5dacb4c659f2488d7fffffffffffffffffffffffffffffffffffffffffffffffffffffffffffffffff614be5565b565b5f6001905090565b5f5f601b5f9054906101000a900473ffffffffffffffffffffffffffffffffffffffff1690505f60195f9054906101000a900473ffffffffffffffffffffffffffffffffffffffff1673ffffffffffffffffffffffffffffffffffffffff166370a08231601b5f9054906101000a900473ffffffffffffffffffffffffffffffffffffffff166040518263ffffffff1660e01b81526004016136f2919061704b565b602060405180830381865afa15801561370d573d5f5f3e3d5ffd5b505050506040513d601f19601f820116820180604052508101906137319190617551565b90506103e78111613746575f9250505061382c565b6103e792505b6107cf831161382657808310613766575f9250505061382c565b600f548273ffffffffffffffffffffffffffffffffffffffff1663da5139ca60195f9054906101000a900473ffffffffffffffffffffffffffffffffffffffff16865f6040518463ffffffff1660e01b81526004016137c793929190617da9565b602060405180830381865afa1580156137e2573d5f5f3e3d5ffd5b505050506040513d601f19601f820116820180604052508101906138069190617551565b111561381357505061382c565b828061381e9061829c565b93505061374c565b5f925050505b90565b5f5f5f9054906101000a900473ffffffffffffffffffffffffffffffffffffffff1690505f8173ffffffffffffffffffffffffffffffffffffffff16633ba0b9a96040518163ffffffff1660e01b8152600401602060405180830381865afa15801561389d573d5f5f3e3d5ffd5b505050506040513d601f19601f820116820180604052508101906138c19190617551565b90505f811460065f6101000a81548160ff02191690831515021790555060065f9054906101000a900460ff1615613913575f600260096101000a81548160ff0219169083151502179055505050613b52565b601a5f9054906101000a900473ffffffffffffffffffffffffffffffffffffffff1673ffffffffffffffffffffffffffffffffffffffff1663d6d7d525601f6040518263ffffffff1660e01b815260040161396e9190618364565b60408051808303815f875af1158015613989573d5f5f3e3d5ffd5b505050506040513d601f19601f820116820180604052508101906139ad9190618384565b6002600c60035f84919050558391906101000a81548160ff02191690831515021790555050506002600c9054906101000a900460ff1680156139f057505f600354145b15613b0f575f5f6139ff614c8a565b9150915081600460016101000a81548160ff021916908315150217905550818015613a2957505f81145b60045f6101000a81548160ff02191690831515021790555080600581905550818015613a5457505f81145b8015613acb57505f8473ffffffffffffffffffffffffffffffffffffffff16633ba0b9a96040518163ffffffff1660e01b8152600401602060405180830381865afa158015613aa5573d5f5f3e3d5ffd5b505050506040513d601f19601f82011682018060405250810190613ac99190617551565b145b600660016101000a81548160ff021916908315150217905550600660019054906101000a900460ff1660025f6101000a81548160ff02191690831515021790555050505b60065f9054906101000a900460ff1680613b355750600660019054906101000a900460ff165b15600260096101000a81548160ff02191690831515021790555050505b565b5f73ffffffffffffffffffffffffffffffffffffffff16601d5f9054906101000a900473ffffffffffffffffffffffffffffffffffffffff1673ffffffffffffffffffffffffffffffffffffffff1614613c7b575f601d5f9054906101000a900473ffffffffffffffffffffffffffffffffffffffff1673ffffffffffffffffffffffffffffffffffffffff16633ba0b9a96040518163ffffffff1660e01b8152600401602060405180830381865afa158015613c13573d5f5f3e3d5ffd5b505050506040513d601f19601f82011682018060405250810190613c379190617551565b146002806101000a81548160ff02191690831515021790555060028054906101000a900460ff1660025f6101000a81548160ff0219169083151502179055506142bd565b604051613c8790616fff565b604051809103905ff080158015613ca0573d5f5f3e3d5ffd5b50601e5f6101000a81548173ffffffffffffffffffffffffffffffffffffffff021916908373ffffffffffffffffffffffffffffffffffffffff1602179055505f5f601e5f9054906101000a900473ffffffffffffffffffffffffffffffffffffffff1673ffffffffffffffffffffffffffffffffffffffff1663d6d7d52560405180602001604052805f8152506040518263ffffffff1660e01b8152600401613d4a91906172c5565b60408051808303815f875af1158015613d65573d5f5f3e3d5ffd5b505050506040513d601f19601f82011682018060405250810190613d899190618384565b91509150818015613d9957505f81145b613dd8576040517f08c379a0000000000000000000000000000000000000000000000000000000008152600401613dcf9061840c565b60405180910390fd5b5f601b5f9054906101000a900473ffffffffffffffffffffffffffffffffffffffff1673ffffffffffffffffffffffffffffffffffffffff1663bafe4f145f5f9054906101000a900473ffffffffffffffffffffffffffffffffffffffff166040518263ffffffff1660e01b8152600401613e53919061704b565b602060405180830381865afa158015613e6e573d5f5f3e3d5ffd5b505050506040513d601f19601f82011682018060405250810190613e929190617858565b90505f73ffffffffffffffffffffffffffffffffffffffff168173ffffffffffffffffffffffffffffffffffffffff1603613f02576040517f08c379a0000000000000000000000000000000000000000000000000000000008152600401613ef990618474565b60405180910390fd5b5f60195f9054906101000a900473ffffffffffffffffffffffffffffffffffffffff16601e5f9054906101000a900473ffffffffffffffffffffffffffffffffffffffff1660405180602001604052805f8152505f6201b580620124f85f604051602001613f7697969594939291906184b4565b6040516020818303038152906040529050601b5f9054906101000a900473ffffffffffffffffffffffffffffffffffffffff1673ffffffffffffffffffffffffffffffffffffffff16631f54245b83835f6040518463ffffffff1660e01b8152600401613fe593929190618528565b6020604051808303815f875af1158015614001573d5f5f3e3d5ffd5b505050506040513d601f19601f820116820180604052508101906140259190617858565b601d5f6101000a81548173ffffffffffffffffffffffffffffffffffffffff021916908373ffffffffffffffffffffffffffffffffffffffff1602179055505f73ffffffffffffffffffffffffffffffffffffffff16601d5f9054906101000a900473ffffffffffffffffffffffffffffffffffffffff1673ffffffffffffffffffffffffffffffffffffffff16036140f3576040517f08c379a00000000000000000000000000000000000000000000000000000000081526004016140ea906185ae565b60405180910390fd5b5f5f601d5f9054906101000a900473ffffffffffffffffffffffffffffffffffffffff1673ffffffffffffffffffffffffffffffffffffffff166302ce728f6040518163ffffffff1660e01b815260040160408051808303815f875af115801561415f573d5f5f3e3d5ffd5b505050506040513d601f19601f820116820180604052508101906141839190618384565b9150915081801561419357505f81145b801561422b57505f601d5f9054906101000a900473ffffffffffffffffffffffffffffffffffffffff1673ffffffffffffffffffffffffffffffffffffffff16633ba0b9a96040518163ffffffff1660e01b8152600401602060405180830381865afa158015614205573d5f5f3e3d5ffd5b505050506040513d601f19601f820116820180604052508101906142299190617551565b145b6002806101000a81548160ff02191690831515021790555060028054906101000a900460ff1660025f6101000a81548160ff02191690831515021790555060028054906101000a900460ff166142b6576040517f08c379a00000000000000000000000000000000000000000000000000000000081526004016142ad90618616565b60405180910390fd5b5050505050505b565b5f7399d8a9c45b2eca8864373a26d1459e3dff1e17f373ffffffffffffffffffffffffffffffffffffffff166370a08231306040518263ffffffff1660e01b815260040161430d919061704b565b602060405180830381865afa158015614328573d5f5f3e3d5ffd5b505050506040513d601f19601f8201168201806040525081019061434c9190617551565b14158061435857505f47145b6146c8575f479050660110d9316ec00081111561437a57660110d9316ec00090505b6143ca73d9e1ce17f2641f24ae83637ab66a2cca9c378b9f6143c473c02aaa39b223fe8d0a0e5c4f27ead9083c756cc27399d8a9c45b2eca8864373a26d1459e3dff1e17f3614d30565b83614e21565b156143d557506146c8565b61443a73d9e1ce17f2641f24ae83637ab66a2cca9c378b9f61443473c02aaa39b223fe8d0a0e5c4f27ead9083c756cc273dac17f958d2ee523a2206206994597c13d831ec77399d8a9c45b2eca8864373a26d1459e3dff1e17f3614f64565b83614e21565b1561444557506146c8565b6144aa73d9e1ce17f2641f24ae83637ab66a2cca9c378b9f6144a473c02aaa39b223fe8d0a0e5c4f27ead9083c756cc273a0b86991c6218b36c1d19d4a2e9eb0ce3606eb487399d8a9c45b2eca8864373a26d1459e3dff1e17f3614f64565b83614e21565b156144b557506146c8565b61451a73d9e1ce17f2641f24ae83637ab66a2cca9c378b9f61451473c02aaa39b223fe8d0a0e5c4f27ead9083c756cc2736b175474e89094c44da98b954eedeac495271d0f7399d8a9c45b2eca8864373a26d1459e3dff1e17f3614f64565b83614e21565b1561452557506146c8565b614575737a250d5630b4cf539739df2c5dacb4c659f2488d61456f73c02aaa39b223fe8d0a0e5c4f27ead9083c756cc27399d8a9c45b2eca8864373a26d1459e3dff1e17f3614d30565b83614e21565b1561458057506146c8565b6145e5737a250d5630b4cf539739df2c5dacb4c659f2488d6145df73c02aaa39b223fe8d0a0e5c4f27ead9083c756cc273dac17f958d2ee523a2206206994597c13d831ec77399d8a9c45b2eca8864373a26d1459e3dff1e17f3614f64565b83614e21565b156145f057506146c8565b614655737a250d5630b4cf539739df2c5dacb4c659f2488d61464f73c02aaa39b223fe8d0a0e5c4f27ead9083c756cc273a0b86991c6218b36c1d19d4a2e9eb0ce3606eb487399d8a9c45b2eca8864373a26d1459e3dff1e17f3614f64565b83614e21565b1561466057506146c8565b6146c5737a250d5630b4cf539739df2c5dacb4c659f2488d6146bf73c02aaa39b223fe8d0a0e5c4f27ead9083c756cc2736b175474e89094c44da98b954eedeac495271d0f7399d8a9c45b2eca8864373a26d1459e3dff1e17f3614f64565b83614e21565b50505b565b5f5f7399d8a9c45b2eca8864373a26d1459e3dff1e17f373ffffffffffffffffffffffffffffffffffffffff166370a08231601b5f9054906101000a900473ffffffffffffffffffffffffffffffffffffffff166040518263ffffffff1660e01b815260040161473a919061704b565b602060405180830381865afa158015614755573d5f5f3e3d5ffd5b505050506040513d601f19601f820116820180604052508101906147799190617551565b90506001811161478c575f9150506147db565b5f60646107d061479c9190617c4a565b846147a79190618634565b9050680ad78ebc5ac62000009250808311156147c1578092505b8183106147d8576001826147d59190617c4a565b92505b50505b919050565b5f5f82036147f0575f9050614945565b5f7399d8a9c45b2eca8864373a26d1459e3dff1e17f373ffffffffffffffffffffffffffffffffffffffff166370a08231306040518263ffffffff1660e01b815260040161483e919061704b565b602060405180830381865afa158015614859573d5f5f3e3d5ffd5b505050506040513d601f19601f8201168201806040525081019061487d9190617551565b9050614888836150a5565b6148975761489583615464565b505b5f7399d8a9c45b2eca8864373a26d1459e3dff1e17f373ffffffffffffffffffffffffffffffffffffffff166370a08231306040518263ffffffff1660e01b81526004016148e5919061704b565b602060405180830381865afa158015614900573d5f5f3e3d5ffd5b505050506040513d601f19601f820116820180604052508101906149249190617551565b9050808211614933575f614940565b808261493f9190617c4a565b5b925050505b919050565b5f60448251101561495d575f9050614ae3565b5f602083015190506308c379a060e01b817bffffffffffffffffffffffffffffffffffffffffffffffffffffffff19161461499b575f915050614ae3565b5f600484516149aa9190617c4a565b67ffffffffffffffff8111156149c3576149c2617887565b5b6040519080825280601f01601f1916602001820160405280156149f55781602001600182028036833780820191505090505b5090505f600490505b8451811015614a7f57848181518110614a1a57614a19617f7b565b5b602001015160f81c60f81b82600483614a339190617c4a565b81518110614a4457614a43617f7b565b5b60200101907effffffffffffffffffffffffffffffffffffffffffffffffffffffffffffff191690815f1a90535080806001019150506149fe565b505f81806020019051810190614a959190618713565b90506040518060400160405280601981526020017f4361756c64726f6e3a20616c6c2061726520736f6c76656e74000000000000008152508051906020012081805190602001201493505050505b919050565b5f5f73ffffffffffffffffffffffffffffffffffffffff168273ffffffffffffffffffffffffffffffffffffffff1603614b24575f9050614be0565b8173ffffffffffffffffffffffffffffffffffffffff16639b352ae16040518163ffffffff1660e01b8152600401602060405180830381865afa925050508015614b8c57506040513d601f19601f82011682018060405250810190614b899190617858565b60015b614b98575f9050614bdf565b7399d8a9c45b2eca8864373a26d1459e3dff1e17f373ffffffffffffffffffffffffffffffffffffffff168173ffffffffffffffffffffffffffffffffffffffff16149150505b5b919050565b8273ffffffffffffffffffffffffffffffffffffffff1663dd62ed3e30846040518363ffffffff1660e01b8152600401614c20929190617d82565b602060405180830381865afa925050508015614c5a57506040513d601f19601f82011682018060405250810190614c579190617551565b60015b15614c6e57818110614c6c5750614c85565b505b614c7983835f616014565b614c84838383616014565b5b505050565b5f5f5f5f9054906101000a900473ffffffffffffffffffffffffffffffffffffffff1673ffffffffffffffffffffffffffffffffffffffff166302ce728f6040518163ffffffff1660e01b815260040160408051808303815f875af1925050508015614d1457506040513d601f19601f82011682018060405250810190614d119190618384565b60015b614d23575f91505f9050614d2c565b81935080925050505b9091565b6060600267ffffffffffffffff811115614d4d57614d4c617887565b5b604051908082528060200260200182016040528015614d7b5781602001602082028036833780820191505090505b50905082815f81518110614d9257614d91617f7b565b5b602002602001019073ffffffffffffffffffffffffffffffffffffffff16908173ffffffffffffffffffffffffffffffffffffffff16815250508181600181518110614de157614de0617f7b565b5b602002602001019073ffffffffffffffffffffffffffffffffffffffff16908173ffffffffffffffffffffffffffffffffffffffff168152505092915050565b5f5f8203614e31575f9050614f5d565b8373ffffffffffffffffffffffffffffffffffffffff16637ff36ab5835f8630426040518663ffffffff1660e01b8152600401614e71949392919061875a565b5f6040518083038185885af193505050508015614eb057506040513d5f823e3d601f19601f82011682018060405250810190614ead9190618864565b60015b614ebc575f9050614f5c565b5f815114158015614f5857505f7399d8a9c45b2eca8864373a26d1459e3dff1e17f373ffffffffffffffffffffffffffffffffffffffff166370a08231306040518263ffffffff1660e01b8152600401614f16919061704b565b602060405180830381865afa158015614f31573d5f5f3e3d5ffd5b505050506040513d601f19601f82011682018060405250810190614f559190617551565b14155b9150505b5b9392505050565b6060600367ffffffffffffffff811115614f8157614f80617887565b5b604051908082528060200260200182016040528015614faf5781602001602082028036833780820191505090505b50905083815f81518110614fc657614fc5617f7b565b5b602002602001019073ffffffffffffffffffffffffffffffffffffffff16908173ffffffffffffffffffffffffffffffffffffffff1681525050828160018151811061501557615014617f7b565b5b602002602001019073ffffffffffffffffffffffffffffffffffffffff16908173ffffffffffffffffffffffffffffffffffffffff1681525050818160028151811061506457615063617f7b565b5b602002602001019073ffffffffffffffffffffffffffffffffffffffff16908173ffffffffffffffffffffffffffffffffffffffff16815250509392505050565b5f5f82036150b6576001905061545f565b5f5f5f5f5f5f6150e660195f9054906101000a900473ffffffffffffffffffffffffffffffffffffffff16616163565b9550955095509550955095508515806150fe57505f81145b8061511857505f836dffffffffffffffffffffffffffff16145b8061513257505f826dffffffffffffffffffffffffffff16145b15615145575f965050505050505061545f565b600160175f6101000a81548160ff02191690831515021790555084601760016101000a81548173ffffffffffffffffffffffffffffffffffffffff021916908373ffffffffffffffffffffffffffffffffffffffff1602179055508360185f6101000a81548173ffffffffffffffffffffffffffffffffffffffff021916908373ffffffffffffffffffffffffffffffffffffffff1602179055505f615206846dffffffffffffffffffffffffffff168a6152009190618634565b8361661e565b90505f61522e846dffffffffffffffffffffffffffff168b6152289190618634565b8461661e565b90505f820361523c57600191505b5f810361524857600190505b60018261525591906175a9565b915060018161526491906175a9565b90506152708783616659565b615284575f9850505050505050505061545f565b61528e8682616659565b6152a2575f9850505050505050505061545f565b6152ce8760195f9054906101000a900473ffffffffffffffffffffffffffffffffffffffff1684613341565b6152fa8660195f9054906101000a900473ffffffffffffffffffffffffffffffffffffffff1683613341565b60195f9054906101000a900473ffffffffffffffffffffffffffffffffffffffff1673ffffffffffffffffffffffffffffffffffffffff16636a627842306040518263ffffffff1660e01b8152600401615354919061704b565b6020604051808303815f875af192505050801561538f57506040513d601f19601f8201168201806040525081019061538c9190617551565b60015b61539b575f9850615456565b8a81101580156154525750600a546009546153b691906175a9565b60195f9054906101000a900473ffffffffffffffffffffffffffffffffffffffff1673ffffffffffffffffffffffffffffffffffffffff166370a08231306040518263ffffffff1660e01b8152600401615410919061704b565b602060405180830381865afa15801561542b573d5f5f3e3d5ffd5b505050506040513d601f19601f8201168201806040525081019061544f9190617551565b10155b9950505b50505050505050505b919050565b5f5f8203615474575f905061600f565b5f7399d8a9c45b2eca8864373a26d1459e3dff1e17f373ffffffffffffffffffffffffffffffffffffffff166370a08231306040518263ffffffff1660e01b81526004016154c2919061704b565b602060405180830381865afa1580156154dd573d5f5f3e3d5ffd5b505050506040513d601f19601f820116820180604052508101906155019190617551565b905067016345785d8a0000811161551b575f91505061600f565b5f67016345785d8a0000826155309190617c4a565b90505f8103615543575f9250505061600f565b6155a173d9e1ce17f2641f24ae83637ab66a2cca9c378b9f61559a7399d8a9c45b2eca8864373a26d1459e3dff1e17f360195f9054906101000a900473ffffffffffffffffffffffffffffffffffffffff16614d30565b86846168bf565b15615646577399d8a9c45b2eca8864373a26d1459e3dff1e17f373ffffffffffffffffffffffffffffffffffffffff166370a08231306040518263ffffffff1660e01b81526004016155f3919061704b565b602060405180830381865afa15801561560e573d5f5f3e3d5ffd5b505050506040513d601f19601f820116820180604052508101906156329190617551565b8261563d9190617c4a565b9250505061600f565b6156b973d9e1ce17f2641f24ae83637ab66a2cca9c378b9f6156b27399d8a9c45b2eca8864373a26d1459e3dff1e17f373c02aaa39b223fe8d0a0e5c4f27ead9083c756cc260195f9054906101000a900473ffffffffffffffffffffffffffffffffffffffff16614f64565b86846168bf565b1561575e577399d8a9c45b2eca8864373a26d1459e3dff1e17f373ffffffffffffffffffffffffffffffffffffffff166370a08231306040518263ffffffff1660e01b815260040161570b919061704b565b602060405180830381865afa158015615726573d5f5f3e3d5ffd5b505050506040513d601f19601f8201168201806040525081019061574a9190617551565b826157559190617c4a565b9250505061600f565b6157d173d9e1ce17f2641f24ae83637ab66a2cca9c378b9f6157ca7399d8a9c45b2eca8864373a26d1459e3dff1e17f373dac17f958d2ee523a2206206994597c13d831ec760195f9054906101000a900473ffffffffffffffffffffffffffffffffffffffff16614f64565b86846168bf565b15615876577399d8a9c45b2eca8864373a26d1459e3dff1e17f373ffffffffffffffffffffffffffffffffffffffff166370a08231306040518263ffffffff1660e01b8152600401615823919061704b565b602060405180830381865afa15801561583e573d5f5f3e3d5ffd5b505050506040513d601f19601f820116820180604052508101906158629190617551565b8261586d9190617c4a565b9250505061600f565b6158e973d9e1ce17f2641f24ae83637ab66a2cca9c378b9f6158e27399d8a9c45b2eca8864373a26d1459e3dff1e17f373a0b86991c6218b36c1d19d4a2e9eb0ce3606eb4860195f9054906101000a900473ffffffffffffffffffffffffffffffffffffffff16614f64565b86846168bf565b1561598e577399d8a9c45b2eca8864373a26d1459e3dff1e17f373ffffffffffffffffffffffffffffffffffffffff166370a08231306040518263ffffffff1660e01b815260040161593b919061704b565b602060405180830381865afa158015615956573d5f5f3e3d5ffd5b505050506040513d601f19601f8201168201806040525081019061597a9190617551565b826159859190617c4a565b9250505061600f565b615a0173d9e1ce17f2641f24ae83637ab66a2cca9c378b9f6159fa7399d8a9c45b2eca8864373a26d1459e3dff1e17f3736b175474e89094c44da98b954eedeac495271d0f60195f9054906101000a900473ffffffffffffffffffffffffffffffffffffffff16614f64565b86846168bf565b15615aa6577399d8a9c45b2eca8864373a26d1459e3dff1e17f373ffffffffffffffffffffffffffffffffffffffff166370a08231306040518263ffffffff1660e01b8152600401615a53919061704b565b602060405180830381865afa158015615a6e573d5f5f3e3d5ffd5b505050506040513d601f19601f82011682018060405250810190615a929190617551565b82615a9d9190617c4a565b9250505061600f565b615b04737a250d5630b4cf539739df2c5dacb4c659f2488d615afd7399d8a9c45b2eca8864373a26d1459e3dff1e17f360195f9054906101000a900473ffffffffffffffffffffffffffffffffffffffff16614d30565b86846168bf565b15615ba9577399d8a9c45b2eca8864373a26d1459e3dff1e17f373ffffffffffffffffffffffffffffffffffffffff166370a08231306040518263ffffffff1660e01b8152600401615b56919061704b565b602060405180830381865afa158015615b71573d5f5f3e3d5ffd5b505050506040513d601f19601f82011682018060405250810190615b959190617551565b82615ba09190617c4a565b9250505061600f565b615c1c737a250d5630b4cf539739df2c5dacb4c659f2488d615c157399d8a9c45b2eca8864373a26d1459e3dff1e17f373c02aaa39b223fe8d0a0e5c4f27ead9083c756cc260195f9054906101000a900473ffffffffffffffffffffffffffffffffffffffff16614f64565b86846168bf565b15615cc1577399d8a9c45b2eca8864373a26d1459e3dff1e17f373ffffffffffffffffffffffffffffffffffffffff166370a08231306040518263ffffffff1660e01b8152600401615c6e919061704b565b602060405180830381865afa158015615c89573d5f5f3e3d5ffd5b505050506040513d601f19601f82011682018060405250810190615cad9190617551565b82615cb89190617c4a565b9250505061600f565b615d34737a250d5630b4cf539739df2c5dacb4c659f2488d615d2d7399d8a9c45b2eca8864373a26d1459e3dff1e17f373dac17f958d2ee523a2206206994597c13d831ec760195f9054906101000a900473ffffffffffffffffffffffffffffffffffffffff16614f64565b86846168bf565b15615dd9577399d8a9c45b2eca8864373a26d1459e3dff1e17f373ffffffffffffffffffffffffffffffffffffffff166370a08231306040518263ffffffff1660e01b8152600401615d86919061704b565b602060405180830381865afa158015615da1573d5f5f3e3d5ffd5b505050506040513d601f19601f82011682018060405250810190615dc59190617551565b82615dd09190617c4a565b9250505061600f565b615e4c737a250d5630b4cf539739df2c5dacb4c659f2488d615e457399d8a9c45b2eca8864373a26d1459e3dff1e17f373a0b86991c6218b36c1d19d4a2e9eb0ce3606eb4860195f9054906101000a900473ffffffffffffffffffffffffffffffffffffffff16614f64565b86846168bf565b15615ef1577399d8a9c45b2eca8864373a26d1459e3dff1e17f373ffffffffffffffffffffffffffffffffffffffff166370a08231306040518263ffffffff1660e01b8152600401615e9e919061704b565b602060405180830381865afa158015615eb9573d5f5f3e3d5ffd5b505050506040513d601f19601f82011682018060405250810190615edd9190617551565b82615ee89190617c4a565b9250505061600f565b615f64737a250d5630b4cf539739df2c5dacb4c659f2488d615f5d7399d8a9c45b2eca8864373a26d1459e3dff1e17f3736b175474e89094c44da98b954eedeac495271d0f60195f9054906101000a900473ffffffffffffffffffffffffffffffffffffffff16614f64565b86846168bf565b15616009577399d8a9c45b2eca8864373a26d1459e3dff1e17f373ffffffffffffffffffffffffffffffffffffffff166370a08231306040518263ffffffff1660e01b8152600401615fb6919061704b565b602060405180830381865afa158015615fd1573d5f5f3e3d5ffd5b505050506040513d601f19601f82011682018060405250810190615ff59190617551565b826160009190617c4a565b9250505061600f565b5f925050505b919050565b5f5f8473ffffffffffffffffffffffffffffffffffffffff1663095ea7b360e01b8585604051602401616048929190617e46565b604051602081830303815290604052907bffffffffffffffffffffffffffffffffffffffffffffffffffffffff19166020820180517bffffffffffffffffffffffffffffffffffffffffffffffffffffffff83818316178352505050506040516160b291906181b6565b5f604051808303815f865af19150503d805f81146160eb576040519150601f19603f3d011682016040523d82523d5f602084013e6160f0565b606091505b509150915081801561611d57505f8151148061611c57508080602001905181019061611b9190617ee8565b5b5b61615c576040517f08c379a0000000000000000000000000000000000000000000000000000000008152600401616153906188f5565b60405180910390fd5b5050505050565b5f5f5f5f5f5f5f5f8873ffffffffffffffffffffffffffffffffffffffff16630dfe168160e01b604051602401604051602081830303815290604052907bffffffffffffffffffffffffffffffffffffffffffffffffffffffff19166020820180517bffffffffffffffffffffffffffffffffffffffffffffffffffffffff83818316178352505050506040516161fa91906181b6565b5f60405180830381855afa9150503d805f8114616232576040519150601f19603f3d011682016040523d82523d5f602084013e616237565b606091505b50915091505f5f8a73ffffffffffffffffffffffffffffffffffffffff1663d21220a760e01b604051602401604051602081830303815290604052907bffffffffffffffffffffffffffffffffffffffffffffffffffffffff19166020820180517bffffffffffffffffffffffffffffffffffffffffffffffffffffffff83818316178352505050506040516162cd91906181b6565b5f60405180830381855afa9150503d805f8114616305576040519150601f19603f3d011682016040523d82523d5f602084013e61630a565b606091505b50915091505f5f8c73ffffffffffffffffffffffffffffffffffffffff16630902f1ac60e01b604051602401604051602081830303815290604052907bffffffffffffffffffffffffffffffffffffffffffffffffffffffff19166020820180517bffffffffffffffffffffffffffffffffffffffffffffffffffffffff83818316178352505050506040516163a091906181b6565b5f60405180830381855afa9150503d805f81146163d8576040519150601f19603f3d011682016040523d82523d5f602084013e6163dd565b606091505b50915091505f5f8e73ffffffffffffffffffffffffffffffffffffffff166318160ddd60e01b604051602401604051602081830303815290604052907bffffffffffffffffffffffffffffffffffffffffffffffffffffffff19166020820180517bffffffffffffffffffffffffffffffffffffffffffffffffffffffff838183161783525050505060405161647391906181b6565b5f60405180830381855afa9150503d805f81146164ab576040519150601f19603f3d011682016040523d82523d5f602084013e6164b0565b606091505b50915091508715806164c0575085155b806164c9575083155b806164d2575081155b156164f6575f5f5f5f5f5f9d509d509d509d509d509d505050505050505050616615565b602087511080616507575060208551105b80616513575060608351105b8061651f575060208151105b15616543575f5f5f5f5f5f9d509d509d509d509d509d505050505050505050616615565b86806020019051810190616557919061894e565b9c508480602001905181019061656d919061894e565b9b508280602001905181019061658391906189f5565b50809b50819c505050808060200190518101906165a09190617551565b98505f73ffffffffffffffffffffffffffffffffffffffff168d73ffffffffffffffffffffffffffffffffffffffff161415801561660a57505f73ffffffffffffffffffffffffffffffffffffffff168c73ffffffffffffffffffffffffffffffffffffffff1614155b9d5050505050505050505b91939550919395565b5f5f831461664f576001826001856166369190617c4a565b6166409190618a72565b61664a91906175a9565b616651565b5f5b905092915050565b5f5f8373ffffffffffffffffffffffffffffffffffffffff166370a08231306040518263ffffffff1660e01b8152600401616694919061704b565b602060405180830381865afa1580156166af573d5f5f3e3d5ffd5b505050506040513d601f19601f820116820180604052508101906166d39190617551565b90508281106166e65760019150506168b9565b5f81846166f39190617c4a565b90507399d8a9c45b2eca8864373a26d1459e3dff1e17f373ffffffffffffffffffffffffffffffffffffffff168573ffffffffffffffffffffffffffffffffffffffff16036167d457837399d8a9c45b2eca8864373a26d1459e3dff1e17f373ffffffffffffffffffffffffffffffffffffffff166370a08231306040518263ffffffff1660e01b815260040161678a919061704b565b602060405180830381865afa1580156167a5573d5f5f3e3d5ffd5b505050506040513d601f19601f820116820180604052508101906167c99190617551565b1015925050506168b9565b5f7399d8a9c45b2eca8864373a26d1459e3dff1e17f373ffffffffffffffffffffffffffffffffffffffff166370a08231306040518263ffffffff1660e01b8152600401616822919061704b565b602060405180830381865afa15801561683d573d5f5f3e3d5ffd5b505050506040513d601f19601f820116820180604052508101906168619190617551565b905067016345785d8a0000811161687d575f93505050506168b9565b5f67016345785d8a0000826168929190617c4a565b90505f81036168a7575f9450505050506168b9565b6168b2878483616a2a565b9450505050505b92915050565b5f5f8314806168cd57505f82145b156168da575f9050616a22565b8473ffffffffffffffffffffffffffffffffffffffff16638803dbee84848730426040518663ffffffff1660e01b815260040161691b959493929190618aa2565b5f604051808303815f875af192505050801561695957506040513d5f823e3d601f19601f820116820180604052508101906169569190618864565b60015b616965575f9050616a21565b5f815114158015616a1d5750600a5460095461698191906175a9565b60195f9054906101000a900473ffffffffffffffffffffffffffffffffffffffff1673ffffffffffffffffffffffffffffffffffffffff166370a08231306040518263ffffffff1660e01b81526004016169db919061704b565b602060405180830381865afa1580156169f6573d5f5f3e3d5ffd5b505050506040513d601f19601f82011682018060405250810190616a1a9190617551565b10155b9150505b5b949350505050565b5f5f8303616a3b5760019050616ebc565b7399d8a9c45b2eca8864373a26d1459e3dff1e17f373ffffffffffffffffffffffffffffffffffffffff168473ffffffffffffffffffffffffffffffffffffffff1603616b1857827399d8a9c45b2eca8864373a26d1459e3dff1e17f373ffffffffffffffffffffffffffffffffffffffff166370a08231306040518263ffffffff1660e01b8152600401616ad0919061704b565b602060405180830381865afa158015616aeb573d5f5f3e3d5ffd5b505050506040513d601f19601f82011682018060405250810190616b0f9190617551565b10159050616ebc565b616b5673d9e1ce17f2641f24ae83637ab66a2cca9c378b9f616b4e7399d8a9c45b2eca8864373a26d1459e3dff1e17f387614d30565b868686616ec3565b15616b645760019050616ebc565b616bb773d9e1ce17f2641f24ae83637ab66a2cca9c378b9f616baf7399d8a9c45b2eca8864373a26d1459e3dff1e17f373c02aaa39b223fe8d0a0e5c4f27ead9083c756cc288614f64565b868686616ec3565b15616bc55760019050616ebc565b616c1873d9e1ce17f2641f24ae83637ab66a2cca9c378b9f616c107399d8a9c45b2eca8864373a26d1459e3dff1e17f373dac17f958d2ee523a2206206994597c13d831ec788614f64565b868686616ec3565b15616c265760019050616ebc565b616c7973d9e1ce17f2641f24ae83637ab66a2cca9c378b9f616c717399d8a9c45b2eca8864373a26d1459e3dff1e17f373a0b86991c6218b36c1d19d4a2e9eb0ce3606eb4888614f64565b868686616ec3565b15616c875760019050616ebc565b616cda73d9e1ce17f2641f24ae83637ab66a2cca9c378b9f616cd27399d8a9c45b2eca8864373a26d1459e3dff1e17f3736b175474e89094c44da98b954eedeac495271d0f88614f64565b868686616ec3565b15616ce85760019050616ebc565b616d26737a250d5630b4cf539739df2c5dacb4c659f2488d616d1e7399d8a9c45b2eca8864373a26d1459e3dff1e17f387614d30565b868686616ec3565b15616d345760019050616ebc565b616d87737a250d5630b4cf539739df2c5dacb4c659f2488d616d7f7399d8a9c45b2eca8864373a26d1459e3dff1e17f373c02aaa39b223fe8d0a0e5c4f27ead9083c756cc288614f64565b868686616ec3565b15616d955760019050616ebc565b616de8737a250d5630b4cf539739df2c5dacb4c659f2488d616de07399d8a9c45b2eca8864373a26d1459e3dff1e17f373dac17f958d2ee523a2206206994597c13d831ec788614f64565b868686616ec3565b15616df65760019050616ebc565b616e49737a250d5630b4cf539739df2c5dacb4c659f2488d616e417399d8a9c45b2eca8864373a26d1459e3dff1e17f373a0b86991c6218b36c1d19d4a2e9eb0ce3606eb4888614f64565b868686616ec3565b15616e575760019050616ebc565b616eaa737a250d5630b4cf539739df2c5dacb4c659f2488d616ea27399d8a9c45b2eca8864373a26d1459e3dff1e17f3736b175474e89094c44da98b954eedeac495271d0f88614f64565b868686616ec3565b15616eb85760019050616ebc565b5f90505b9392505050565b5f5f831480616ed157505f82145b15616ede575f9050616ff6565b8573ffffffffffffffffffffffffffffffffffffffff16638803dbee84848830426040518663ffffffff1660e01b8152600401616f1f959493929190618aa2565b5f604051808303815f875af1925050508015616f5d57506040513d5f823e3d601f19601f82011682018060405250810190616f5a9190618864565b60015b616f69575f9050616ff5565b5f815114158015616ff15750838573ffffffffffffffffffffffffffffffffffffffff166370a08231306040518263ffffffff1660e01b8152600401616faf919061704b565b602060405180830381865afa158015616fca573d5f5f3e3d5ffd5b505050506040513d601f19601f82011682018060405250810190616fee9190617551565b10155b9150505b5b95945050505050565b6101cd80618afb83390190565b5f73ffffffffffffffffffffffffffffffffffffffff82169050919050565b5f6170358261700c565b9050919050565b6170458161702b565b82525050565b5f60208201905061705e5f83018461703c565b92915050565b5f604051905090565b5f5ffd5b5f5ffd5b61707e8161702b565b8114617088575f5ffd5b50565b5f8135905061709981617075565b92915050565b5f819050919050565b6170b18161709f565b81146170bb575f5ffd5b50565b5f813590506170cc816170a8565b92915050565b5f5ffd5b5f5ffd5b5f5ffd5b5f5f83601f8401126170f3576170f26170d2565b5b8235905067ffffffffffffffff8111156171105761710f6170d6565b5b60208301915083600182028301111561712c5761712b6170da565b5b9250929050565b5f5f5f5f5f5f60a0878903121561714d5761714c61706d565b5b5f61715a89828a0161708b565b965050602061716b89828a0161708b565b955050604061717c89828a016170be565b945050606061718d89828a016170be565b935050608087013567ffffffffffffffff8111156171ae576171ad617071565b5b6171ba89828a016170de565b92509250509295509295509295565b5f8115159050919050565b6171dd816171c9565b82525050565b5f6020820190506171f65f8301846171d4565b92915050565b6172058161709f565b82525050565b5f60208201905061721e5f8301846171fc565b92915050565b5f819050919050565b61723681617224565b82525050565b5f60208201905061724f5f83018461722d565b92915050565b5f81519050919050565b5f82825260208201905092915050565b8281835e5f83830152505050565b5f601f19601f8301169050919050565b5f61729782617255565b6172a1818561725f565b93506172b181856020860161726f565b6172ba8161727d565b840191505092915050565b5f6020820190508181035f8301526172dd818461728d565b905092915050565b5f82825260208201905092915050565b7f6261642d62656e746f00000000000000000000000000000000000000000000005f82015250565b5f6173296009836172e5565b9150617334826172f5565b602082019050919050565b5f6020820190508181035f8301526173568161731d565b9050919050565b7f6261642d73656e646572000000000000000000000000000000000000000000005f82015250565b5f617391600a836172e5565b915061739c8261735d565b602082019050919050565b5f6020820190508181035f8301526173be81617385565b9050919050565b7f6261642d746f6b656e00000000000000000000000000000000000000000000005f82015250565b5f6173f96009836172e5565b9150617404826173c5565b602082019050919050565b5f6020820190508181035f830152617426816173ed565b9050919050565b7f4e487b71000000000000000000000000000000000000000000000000000000005f52602260045260245ffd5b5f600282049050600182168061747157607f821691505b6020821081036174845761748361742d565b5b50919050565b5f819050919050565b5f6174ad6174a86174a38461700c565b61748a565b61700c565b9050919050565b5f6174be82617493565b9050919050565b5f6174cf826174b4565b9050919050565b6174df816174c5565b82525050565b5f60a0820190506174f85f8301886174d6565b617505602083018761703c565b617512604083018661703c565b61751f60608301856171fc565b8181036080830152617531818461728d565b90509695505050505050565b5f8151905061754b816170a8565b92915050565b5f602082840312156175665761756561706d565b5b5f6175738482850161753d565b91505092915050565b7f4e487b71000000000000000000000000000000000000000000000000000000005f52601160045260245ffd5b5f6175b38261709f565b91506175be8361709f565b92508282019050808211156175d6576175d561757c565b5b92915050565b7f696e73756666696369656e742d636f6c6c61746572616c2d72657061790000005f82015250565b5f617610601d836172e5565b915061761b826175dc565b602082019050919050565b5f6020820190508181035f83015261763d81617604565b9050919050565b7f756e65787065637465642d6d696d2d666c6173680000000000000000000000005f82015250565b5f6176786014836172e5565b915061768382617644565b602082019050919050565b5f6020820190508181035f8301526176a58161766c565b9050919050565b5f819050919050565b5f6176cf6176ca6176c5846176ac565b61748a565b61709f565b9050919050565b6176df816176b5565b82525050565b5f60a0820190506176f85f83018861703c565b617705602083018761703c565b617712604083018661703c565b61771f60608301856171fc565b61772c60808301846176d6565b9695505050505050565b5f5f6040838503121561774c5761774b61706d565b5b5f6177598582860161753d565b925050602061776a8582860161753d565b9150509250929050565b7f7a65726f2d6d696d2d736565642d7368617265000000000000000000000000005f82015250565b5f6177a86013836172e5565b91506177b382617774565b602082019050919050565b5f6020820190508181035f8301526177d58161779c565b9050919050565b7f696e73756666696369656e742d6d696d2d6665650000000000000000000000005f82015250565b5f6178106014836172e5565b915061781b826177dc565b602082019050919050565b5f6020820190508181035f83015261783d81617804565b9050919050565b5f8151905061785281617075565b92915050565b5f6020828403121561786d5761786c61706d565b5b5f61787a84828501617844565b91505092915050565b5f5ffd5b7f4e487b71000000000000000000000000000000000000000000000000000000005f52604160045260245ffd5b6178bd8261727d565b810181811067ffffffffffffffff821117156178dc576178db617887565b5b80604052505050565b5f6178ee617064565b90506178fa82826178b4565b919050565b5f67ffffffffffffffff82111561791957617918617887565b5b6179228261727d565b9050602081019050919050565b5f61794161793c846178ff565b6178e5565b90508281526020810184848401111561795d5761795c617883565b5b61796884828561726f565b509392505050565b5f82601f830112617984576179836170d2565b5b815161799484826020860161792f565b91505092915050565b5f602082840312156179b2576179b161706d565b5b5f82015167ffffffffffffffff8111156179cf576179ce617071565b5b6179db84828501617970565b91505092915050565b5f819050815f5260205f209050919050565b5f6020601f8301049050919050565b5f82821b905092915050565b5f60088302617a407fffffffffffffffffffffffffffffffffffffffffffffffffffffffffffffffff82617a05565b617a4a8683617a05565b95508019841693508086168417925050509392505050565b5f617a7c617a77617a728461709f565b61748a565b61709f565b9050919050565b5f819050919050565b617a9583617a62565b617aa9617aa182617a83565b848454617a11565b825550505050565b5f5f905090565b617ac0617ab1565b617acb818484617a8c565b505050565b5b81811015617aee57617ae35f82617ab8565b600181019050617ad1565b5050565b601f821115617b3357617b04816179e4565b617b0d846179f6565b81016020851015617b1c578190505b617b30617b28856179f6565b830182617ad0565b50505b505050565b5f82821c905092915050565b5f617b535f1984600802617b38565b1980831691505092915050565b5f617b6b8383617b44565b9150826002028217905092915050565b617b8482617255565b67ffffffffffffffff811115617b9d57617b9c617887565b5b617ba7825461745a565b617bb2828285617af2565b5f60209050601f831160018114617be3575f8415617bd1578287015190505b617bdb8582617b60565b865550617c42565b601f198416617bf1866179e4565b5f5b82811015617c1857848901518255600182019150602085019450602081019050617bf3565b86831015617c355784890151617c31601f891682617b44565b8355505b6001600288020188555050505b505050505050565b5f617c548261709f565b9150617c5f8361709f565b9250828203905081811115617c7757617c7661757c565b5b92915050565b7f636f6c6c61746572616c2d6665652d746f6f2d6c6172676500000000000000005f82015250565b5f617cb16018836172e5565b9150617cbc82617c7d565b602082019050919050565b5f6020820190508181035f830152617cde81617ca5565b9050919050565b7f647573742d73686172652d7a65726f00000000000000000000000000000000005f82015250565b5f617d19600f836172e5565b9150617d2482617ce5565b602082019050919050565b5f6020820190508181035f830152617d4681617d0d565b9050919050565b5f606082019050617d605f83018661703c565b617d6d60208301856171d4565b617d7a60408301846171fc565b949350505050565b5f604082019050617d955f83018561703c565b617da2602083018461703c565b9392505050565b5f606082019050617dbc5f83018661703c565b617dc960208301856171fc565b617dd660408301846171d4565b949350505050565b7f6e6f2d6d696d2d6c6971756964697479000000000000000000000000000000005f82015250565b5f617e126010836172e5565b9150617e1d82617dde565b602082019050919050565b5f6020820190508181035f830152617e3f81617e06565b9050919050565b5f604082019050617e595f83018561703c565b617e6660208301846171fc565b9392505050565b5f60a082019050617e805f83018861703c565b617e8d602083018761703c565b617e9a604083018661703c565b617ea760608301856176d6565b617eb460808301846171fc565b9695505050505050565b617ec7816171c9565b8114617ed1575f5ffd5b50565b5f81519050617ee281617ebe565b92915050565b5f60208284031215617efd57617efc61706d565b5b5f617f0a84828501617ed4565b91505092915050565b7f636f6c6c61746572616c2d746f7075702d6661696c65640000000000000000005f82015250565b5f617f476017836172e5565b9150617f5282617f13565b602082019050919050565b5f6020820190508181035f830152617f7481617f3b565b9050919050565b7f4e487b71000000000000000000000000000000000000000000000000000000005f52603260045260245ffd5b5f81519050919050565b5f82825260208201905092915050565b5f819050602082019050919050565b617fda8161702b565b82525050565b5f617feb8383617fd1565b60208301905092915050565b5f602082019050919050565b5f61800d82617fa8565b6180178185617fb2565b935061802283617fc2565b805f5b838110156180525781516180398882617fe0565b975061804483617ff7565b925050600181019050618025565b5085935050505092915050565b5f81519050919050565b5f82825260208201905092915050565b5f819050602082019050919050565b6180918161709f565b82525050565b5f6180a28383618088565b60208301905092915050565b5f602082019050919050565b5f6180c48261805f565b6180ce8185618069565b93506180d983618079565b805f5b838110156181095781516180f08882618097565b97506180fb836180ae565b9250506001810190506180dc565b5085935050505092915050565b5f60a0820190508181035f83015261812e8188618003565b9050818103602083015261814281876180ba565b9050618151604083018661703c565b61815e606083018561703c565b8181036080830152618170818461728d565b90509695505050505050565b5f81905092915050565b5f61819082617255565b61819a818561817c565b93506181aa81856020860161726f565b80840191505092915050565b5f6181c18284618186565b915081905092915050565b7f6c69717569646174696f6e2d6e6f742d626c6f636b65640000000000000000005f82015250565b5f6182006017836172e5565b915061820b826181cc565b602082019050919050565b5f6020820190508181035f83015261822d816181f4565b9050919050565b7f7472616e736665722d6661696c656400000000000000000000000000000000005f82015250565b5f618268600f836172e5565b915061827382618234565b602082019050919050565b5f6020820190508181035f8301526182958161825c565b9050919050565b5f6182a68261709f565b91507fffffffffffffffffffffffffffffffffffffffffffffffffffffffffffffffff82036182d8576182d761757c565b5b600182019050919050565b5f81546182ef8161745a565b6182f9818661725f565b9450600182165f811461831357600181146183295761835b565b60ff19831686528115156020028601935061835b565b618332856179e4565b5f5b8381101561835357815481890152600182019150602081019050618334565b808801955050505b50505092915050565b5f6020820190508181035f83015261837c81846182e3565b905092915050565b5f5f6040838503121561839a5761839961706d565b5b5f6183a785828601617ed4565b92505060206183b88582860161753d565b9150509250929050565b7f6261642d7a65726f2d6f7261636c6500000000000000000000000000000000005f82015250565b5f6183f6600f836172e5565b9150618401826183c2565b602082019050919050565b5f6020820190508181035f830152618423816183ea565b9050919050565b7f6d697373696e672d6d61737465720000000000000000000000000000000000005f82015250565b5f61845e600e836172e5565b91506184698261842a565b602082019050919050565b5f6020820190508181035f83015261848b81618452565b9050919050565b5f67ffffffffffffffff82169050919050565b6184ae81618492565b82525050565b5f60e0820190506184c75f83018a61703c565b6184d4602083018961703c565b81810360408301526184e6818861728d565b90506184f560608301876184a5565b61850260808301866171fc565b61850f60a08301856171fc565b61851c60c08301846171fc565b98975050505050505050565b5f60608201905061853b5f83018661703c565b818103602083015261854d818561728d565b905061855c60408301846171d4565b949350505050565b7f636c6f6e652d6465706c6f792d6661696c6564000000000000000000000000005f82015250565b5f6185986013836172e5565b91506185a382618564565b602082019050919050565b5f6020820190508181035f8301526185c58161858c565b9050919050565b7f696e69742d7a65726f2d726174652d6d697373696e67000000000000000000005f82015250565b5f6186006016836172e5565b915061860b826185cc565b602082019050919050565b5f6020820190508181035f83015261862d816185f4565b9050919050565b5f61863e8261709f565b91506186498361709f565b92508282026186578161709f565b9150828204841483151761866e5761866d61757c565b5b5092915050565b5f67ffffffffffffffff82111561868f5761868e617887565b5b6186988261727d565b9050602081019050919050565b5f6186b76186b284618675565b6178e5565b9050828152602081018484840111156186d3576186d2617883565b5b6186de84828561726f565b509392505050565b5f82601f8301126186fa576186f96170d2565b5b815161870a8482602086016186a5565b91505092915050565b5f602082840312156187285761872761706d565b5b5f82015167ffffffffffffffff81111561874557618744617071565b5b618751848285016186e6565b91505092915050565b5f60808201905061876d5f8301876176d6565b818103602083015261877f8186618003565b905061878e604083018561703c565b61879b60608301846171fc565b95945050505050565b5f67ffffffffffffffff8211156187be576187bd617887565b5b602082029050602081019050919050565b5f6187e16187dc846187a4565b6178e5565b90508083825260208201905060208402830185811115618804576188036170da565b5b835b8181101561882d5780618819888261753d565b845260208401935050602081019050618806565b5050509392505050565b5f82601f83011261884b5761884a6170d2565b5b815161885b8482602086016187cf565b91505092915050565b5f602082840312156188795761887861706d565b5b5f82015167ffffffffffffffff81111561889657618895617071565b5b6188a284828501618837565b91505092915050565b7f617070726f76652d6661696c65640000000000000000000000000000000000005f82015250565b5f6188df600e836172e5565b91506188ea826188ab565b602082019050919050565b5f6020820190508181035f83015261890c816188d3565b9050919050565b5f61891d8261700c565b9050919050565b61892d81618913565b8114618937575f5ffd5b50565b5f8151905061894881618924565b92915050565b5f602082840312156189635761896261706d565b5b5f6189708482850161893a565b91505092915050565b5f6dffffffffffffffffffffffffffff82169050919050565b61899b81618979565b81146189a5575f5ffd5b50565b5f815190506189b681618992565b92915050565b5f63ffffffff82169050919050565b6189d4816189bc565b81146189de575f5ffd5b50565b5f815190506189ef816189cb565b92915050565b5f5f5f60608486031215618a0c57618a0b61706d565b5b5f618a19868287016189a8565b9350506020618a2a868287016189a8565b9250506040618a3b868287016189e1565b9150509250925092565b7f4e487b71000000000000000000000000000000000000000000000000000000005f52601260045260245ffd5b5f618a7c8261709f565b9150618a878361709f565b925082618a9757618a96618a45565b5b828204905092915050565b5f60a082019050618ab55f8301886171fc565b618ac260208301876171fc565b8181036040830152618ad48186618003565b9050618ae3606083018561703c565b618af060808301846171fc565b969550505050505056fe6080604052348015600e575f5ffd5b506101b18061001c5f395ff3fe608060405234801561000f575f5ffd5b5060043610610029575f3560e01c8063d6d7d5251461002d575b5f5ffd5b610047600480360381019061004291906100d7565b61005e565b604051610055929190610154565b60405180910390f35b5f5f600191505f90509250929050565b5f5ffd5b5f5ffd5b5f5ffd5b5f5ffd5b5f5ffd5b5f5f83601f84011261009757610096610076565b5b8235905067ffffffffffffffff8111156100b4576100b361007a565b5b6020830191508360018202830111156100d0576100cf61007e565b5b9250929050565b5f5f602083850312156100ed576100ec61006e565b5b5f83013567ffffffffffffffff81111561010a57610109610072565b5b61011685828601610082565b92509250509250929050565b5f8115159050919050565b61013681610122565b82525050565b5f819050919050565b61014e8161013c565b82525050565b5f6040820190506101675f83018561012d565b6101746020830184610145565b939250505056fea2646970667358221220f7ed619e74cd69e2108f578fe463aee1cedcf9a5e24287b277e02964460578dc64736f6c634300081e0033a26469706673582212209ff5ade0d784584f8f28e81e8d6cda0068f478759cff3ba65b2d986966e7e02564736f6c634300081e0033","linkReferences":{}},"methodIdentifiers":{"DAI()":"e0bab4c4","MIM()":"daec383d","PROVIDED_TARGET()":"1018911e","SUSHI_ROUTER()":"0c24f4fa","TARGET_CAULDRON()":"bd7a598c","UNISWAP_V2_ROUTER()":"a82ed9ec","USDC()":"89a30271","USDT()":"c54e44eb","WETH()":"ad5c4648","activeCauldron()":"981c88f7","addCollateralStageReached()":"8469ff16","bentoBoxAddress()":"eb77ff0f","borrowStageReached()":"7c27e19f","borrowedMimAmount()":"e7cda06d","borrowedMimShare()":"6208fdd8","collateralDepositAmount()":"72ea4809","collateralLeaveShare()":"e2708ebb","collateralLpDetected()":"f9d3cc05","collateralLpToken0()":"dbe7b09f","collateralLpToken1()":"f1f361a4","collateralShareAdded()":"4071084d","collateralToken()":"b2016bd4","collateralTopUpAmount()":"a3bb46dd","collateralTopUpSpentMim()":"5bf39ab9","directOracleRate()":"6d02b5ca","directOracleSuccess()":"a8b81f55","execute()":"61461954","executeOnOpportunity()":"3c2448ed","exploit()":"63d9b770","feeBufferBought()":"d87bf97f","flashCollateralAmount()":"892d0bd2","flashCollateralFee()":"5a6e402b","flashMimAmount()":"e6687f05","flashMimFee()":"4af5e4e6","grossMimBalance()":"95458914","hypothesisRefuted()":"495f92f1","hypothesisValidated()":"463defd1","infeasibleReason()":"a6652157","liquidateStageReached()":"9348a238","liquidationBlocked()":"b7021f77","liveTargetCachedZero()":"b40d2e98","liveTargetInitPathOnly()":"cf30cf7b","liveTargetUpdateZeroWorked()":"ace5cb58","liveTargetZeroRateMissing()":"ea544593","liveUpdateRate()":"de02cfdf","liveUpdateReturnedUpdated()":"fcafc319","liveUpdateWorked()":"8f310cf0","mimLiquiditySeededShare()":"810c7a40","onFlashLoan(address,address,uint256,uint256,bytes)":"23e30c8b","oracleAddress()":"a89ae4ba","oracleDataBlob()":"e3fc037b","oracleStageReached()":"e8c28fee","postBorrowSolvent()":"d5b5a557","profitAmount()":"5ff972cc","profitToken()":"49343624","run()":"c0406226","selectedTarget()":"2edf00fb","updateRateStageReached()":"a539b246","usedLiveTarget()":"5a41b82a","usedValidationClone()":"2759f2f1","validationClone()":"370be116","zeroOracle()":"22cb9ca3"},"id":0}