{"abi":[{"type":"constructor","inputs":[],"stateMutability":"payable"},{"type":"receive","stateMutability":"payable"},{"type":"function","name":"DEMO_DONATION","inputs":[],"outputs":[{"name":"","type":"uint256","internalType":"uint256"}],"stateMutability":"view"},{"type":"function","name":"LIVE_TARGET","inputs":[],"outputs":[{"name":"","type":"address","internalType":"address"}],"stateMutability":"view"},{"type":"function","name":"REQUIRED_UPSIDE","inputs":[],"outputs":[{"name":"","type":"uint256","internalType":"uint256"}],"stateMutability":"view"},{"type":"function","name":"WETH","inputs":[],"outputs":[{"name":"","type":"address","internalType":"address"}],"stateMutability":"view"},{"type":"function","name":"balanceGapAfterDonation","inputs":[],"outputs":[{"name":"","type":"uint256","internalType":"uint256"}],"stateMutability":"view"},{"type":"function","name":"donateForced","inputs":[],"outputs":[],"stateMutability":"payable"},{"type":"function","name":"donatedBalancePersistedAcrossAttempts","inputs":[],"outputs":[{"name":"","type":"bool","internalType":"bool"}],"stateMutability":"view"},{"type":"function","name":"executeOnOpportunity","inputs":[],"outputs":[],"stateMutability":"nonpayable"},{"type":"function","name":"finalCheckStillShortAfterAttempts","inputs":[],"outputs":[{"name":"","type":"bool","internalType":"bool"}],"stateMutability":"view"},{"type":"function","name":"firstPostDonationRevertHash","inputs":[],"outputs":[{"name":"","type":"bytes32","internalType":"bytes32"}],"stateMutability":"view"},{"type":"function","name":"hypothesisValidated","inputs":[],"outputs":[{"name":"","type":"bool","internalType":"bool"}],"stateMutability":"view"},{"type":"function","name":"lastDonation","inputs":[],"outputs":[{"name":"","type":"uint256","internalType":"uint256"}],"stateMutability":"view"},{"type":"function","name":"path0DonationObserved","inputs":[],"outputs":[{"name":"","type":"bool","internalType":"bool"}],"stateMutability":"view"},{"type":"function","name":"path1SnapshotObserved","inputs":[],"outputs":[{"name":"","type":"bool","internalType":"bool"}],"stateMutability":"view"},{"type":"function","name":"path2ThresholdRevertObserved","inputs":[],"outputs":[{"name":"","type":"bool","internalType":"bool"}],"stateMutability":"view"},{"type":"function","name":"preDonationAlreadyReverted","inputs":[],"outputs":[{"name":"","type":"bool","internalType":"bool"}],"stateMutability":"view"},{"type":"function","name":"preDonationRevertHash","inputs":[],"outputs":[{"name":"","type":"bytes32","internalType":"bytes32"}],"stateMutability":"view"},{"type":"function","name":"profitAmount","inputs":[],"outputs":[{"name":"","type":"uint256","internalType":"uint256"}],"stateMutability":"view"},{"type":"function","name":"profitToken","inputs":[],"outputs":[{"name":"","type":"address","internalType":"address"}],"stateMutability":"view"},{"type":"function","name":"requiredBalanceAfterDonation","inputs":[],"outputs":[{"name":"","type":"uint256","internalType":"uint256"}],"stateMutability":"view"},{"type":"function","name":"secondPostDonationRevertHash","inputs":[],"outputs":[{"name":"","type":"bytes32","internalType":"bytes32"}],"stateMutability":"view"},{"type":"function","name":"shortfallAfterFirstPostProbe","inputs":[],"outputs":[{"name":"","type":"uint256","internalType":"uint256"}],"stateMutability":"view"},{"type":"function","name":"shortfallAfterSecondPostProbe","inputs":[],"outputs":[{"name":"","type":"uint256","internalType":"uint256"}],"stateMutability":"view"},{"type":"function","name":"targetBalanceAfterDonation","inputs":[],"outputs":[{"name":"","type":"uint256","internalType":"uint256"}],"stateMutability":"view"},{"type":"function","name":"targetBalanceAfterFirstPostProbe","inputs":[],"outputs":[{"name":"","type":"uint256","internalType":"uint256"}],"stateMutability":"view"},{"type":"function","name":"targetBalanceAfterSecondPostProbe","inputs":[],"outputs":[{"name":"","type":"uint256","internalType":"uint256"}],"stateMutability":"view"},{"type":"function","name":"targetBalanceBefore","inputs":[],"outputs":[{"name":"","type":"uint256","internalType":"uint256"}],"stateMutability":"view"},{"type":"function","name":"usedForceSendPath","inputs":[],"outputs":[{"name":"","type":"bool","internalType":"bool"}],"stateMutability":"view"},{"type":"function","name":"verdict","inputs":[],"outputs":[{"name":"","type":"uint8","internalType":"enum FlawVerifier.Verdict"}],"stateMutability":"view"},{"type":"function","name":"witnessSink","inputs":[],"outputs":[{"name":"","type":"address","internalType":"address"}],"stateMutability":"view"},{"type":"function","name":"witnessTarget","inputs":[],"outputs":[{"name":"","type":"address","internalType":"address"}],"stateMutability":"view"}],"bytecode":{"object":"0x60806040819052600d80546001600160a01b0319167376ea342bc038d665e8a116392c82552d2605eda1179055610c8290816100398239f3fe608080604052600436101561001c575b50361561001a575f80fd5b005b5f3560e01c90816308641e4c1461059757508063105e5a2d1461057357806323aa41cb14610556578063262a24d51461052e57806327b0bf42146105115780632f7766a3146104ef57806339865598146104d25780633bfde1a1146104a35780633c2448ed1461048b578063463defd114610467578063493436241461043f5780634ab3775a1461041c5780635ff972cc146103ff57806361520510146103dd578063661a5611146103c05780636aba253c14610384578063704175f41461036757806372d95cf814610343578063740ae47b146103265780637eda78431461030957806385a95b07146102e55780639496282f146102bd578063ad5c46481461028f578063afa0e61014610272578063b123df8e1461024e578063b39aa51214610231578063c89720071461020d578063d89018ae146101e9578063dd68d66d146101cc578063e29c97ee146101af5763e62f59961461017d575f61000f565b346101ab575f3660031901126101ab5760206040517376ea342bc038d665e8a116392c82552d2605eda18152f35b5f80fd5b346101ab575f3660031901126101ab576020600254604051908152f35b346101ab575f3660031901126101ab576020600754604051908152f35b346101ab575f3660031901126101ab57602060ff5f5460381c166040519015158152f35b346101ab575f3660031901126101ab57602060ff5f5460101c166040519015158152f35b346101ab575f3660031901126101ab576020600c54604051908152f35b346101ab575f3660031901126101ab57602060ff5f5460181c166040519015158152f35b346101ab575f3660031901126101ab576020600354604051908152f35b346101ab575f3660031901126101ab57602060405173c02aaa39b223fe8d0a0e5c4f27ead9083c756cc28152f35b346101ab575f3660031901126101ab57600e546040516001600160a01b039091168152602090f35b346101ab575f3660031901126101ab57602060ff5f5460401c166040519015158152f35b346101ab575f3660031901126101ab576020600b54604051908152f35b346101ab575f3660031901126101ab576020600654604051908152f35b346101ab575f3660031901126101ab57602060ff5f5460281c166040519015158152f35b346101ab575f3660031901126101ab576020600954604051908152f35b346101ab575f3660031901126101ab5760ff5f541660405160048210156103ac576020918152f35b634e487b7160e01b5f52602160045260245ffd5b346101ab575f3660031901126101ab576020600154604051908152f35b346101ab575f3660031901126101ab57602060405167016345785d8a00008152f35b346101ab575f3660031901126101ab576020601054604051908152f35b346101ab575f3660031901126101ab57602060ff5f54821c166040519015158152f35b346101ab575f3660031901126101ab57600f546040516001600160a01b039091168152602090f35b346101ab575f3660031901126101ab57602060ff5f5460301c166040519015158152f35b346101ab575f3660031901126101ab5761001a6105df565b5f3660031901126101ab573434156104bf575b61001a90610a70565b5061001a6104cb610a44565b90506104b6565b346101ab575f3660031901126101ab576020600554604051908152f35b346101ab575f3660031901126101ab57602060405167016345785d8a00018152f35b346101ab575f3660031901126101ab576020600454604051908152f35b346101ab575f3660031901126101ab57600d546040516001600160a01b039091168152602090f35b346101ab575f3660031901126101ab576020600854604051908152f35b346101ab575f3660031901126101ab57602060ff5f5460081c166040519015158152f35b346101ab575f3660031901126101ab57602090600a548152f35b919082018092116105be57565b634e487b7160e01b5f52601160045260245ffd5b919082039182116105be57565b60ff195f54165f5568ffffffffffffffff00195f54165f555f6001555f6003555f6004555f6005555f6006555f6007555f6008555f6009555f600a555f600b555f600c557376ea342bc038d665e8a116392c82552d2605eda16001600160601b0360a01b600d5416176001600160601b0360a01b600e5416600e556001600160601b0360a01b600f5416600f555f601055600d557376ea342bc038d665e8a116392c82552d2605eda131600255610694610b6d565b9015610a1f575b506106a4610a44565b8015610a11576106b390610a70565b60035467016345785d8a000081018082116105be576106db828263ff000000936004556105d2565b91826005555f549260ff8460101c1691826109f6575b50816109e4575b50151560181b169063ff0000001916175f55610712610b6d565b907376ea342bc038d665e8a116392c82552d2605eda131600655801591826109d4575b5061073e610b6d565b7376ea342bc038d665e8a116392c82552d2605eda1929192319081600755831590816109c4575b5060065491600454908184106109b2575b8181106109a0575b600354918285149283610996575b5067ff000000000000005f5493151560381b169167016345785d8a0000600854149586610982575b86610964575b508561093f575b505060ff60401b60ff94151560401b1691828268ffff000000000000001983161717858160181c169485610937575b8561092f575b5084610923575b84610915575b84610907575b846108f5575b5068ffff0000ff0000000019161791151560201b64ff00000000169066ff0000000000008184178317601081901c861690816108e7575b816108da575b50151560301b169266ff0000000000001916171717805f5560301c165f146108ac57505050600160ff195f5416175f5573c02aaa39b223fe8d0a0e5c4f27ead9083c756cc26001600160601b0360a01b600f541617600f55600154601055565b916108d2575b50156108c557600260ff195f5416175f55565b600360ff195f5416175f55565b90505f6108b2565b86915060201c165f61084c565b9050858160181c1690610846565b60401c8516935064ff0000000061080f565b9350848460381c1693610809565b600b54600c54149450610803565b600b54151594506107fd565b94505f6107f6565b8995506107f0565b90945067016345785d8a000081018091116105be5760ff9460ff60401b9114946107c1565b90955067016345785d8a000081018091116105be578114945f6107ba565b60095467016345785d8a00001496506107b4565b821492505f61078c565b6109aa81836105d2565b60095561077e565b6109bc84836105d2565b600855610776565b60208151910120600c555f610765565b60208151910120600b555f610735565b67016345785d8a00009150145f6106f8565b909150610a08600254600154906105b1565b1115905f6106f1565b50600360ff195f5416175f55565b6501000000000065ff0000000000195f5416175f5560208151910120600a555f61069b565b478015610a6b5767016345785d8a0001811015610a5e5790565b5067016345785d8a000190565b505f90565b8015610b48578060015561010061ff00195f5416175f5560405160618082019082821067ffffffffffffffff831117610b34576020918391610bec83397376ea342bc038d665e8a116392c82552d2605eda1815203019082f08015610b295760018060a01b03166001600160601b0360a01b600e541617600e55610b107376ea342bc038d665e8a116392c82552d2605eda13191826003556002546105b1565b111562ff00005f549160101b169062ff00001916175f55565b6040513d5f823e3d90fd5b634e487b7160e01b5f52604160045260245ffd5b50565b90601f8019910116810190811067ffffffffffffffff821117610b3457604052565b5f806040516020810190633c2448ed60e01b825260048152610b90602482610b4b565b5190827376ea342bc038d665e8a116392c82552d2605eda15af13d15610be5573d67ffffffffffffffff8111610b345760405190610bd8601f8201601f191660200183610b4b565b81523d5f602083013e9091565b6060909156fe6080601f606138819003918201601f19168301916001600160401b03831184841017604c57808492602094604052833981010312604857516001600160a01b0381168103604857ff5b5f80fd5b634e487b7160e01b5f52604160045260245ffdfea264697066735822122050aa1b2a926ecb65f1722e18718d66239538ada743a51fc7cead1ac7f1851e2964736f6c634300081e0033","linkReferences":{}},"methodIdentifiers":{"DEMO_DONATION()":"2f7766a3","LIVE_TARGET()":"e62f5996","REQUIRED_UPSIDE()":"61520510","WETH()":"ad5c4648","balanceGapAfterDonation()":"39865598","donateForced()":"3bfde1a1","donatedBalancePersistedAcrossAttempts()":"d89018ae","executeOnOpportunity()":"3c2448ed","finalCheckStillShortAfterAttempts()":"85a95b07","firstPostDonationRevertHash()":"7eda7843","hypothesisValidated()":"463defd1","lastDonation()":"661a5611","path0DonationObserved()":"c8972007","path1SnapshotObserved()":"b123df8e","path2ThresholdRevertObserved()":"4ab3775a","preDonationAlreadyReverted()":"72d95cf8","preDonationRevertHash()":"08641e4c","profitAmount()":"5ff972cc","profitToken()":"49343624","requiredBalanceAfterDonation()":"27b0bf42","secondPostDonationRevertHash()":"b39aa512","shortfallAfterFirstPostProbe()":"23aa41cb","shortfallAfterSecondPostProbe()":"704175f4","targetBalanceAfterDonation()":"afa0e610","targetBalanceAfterFirstPostProbe()":"740ae47b","targetBalanceAfterSecondPostProbe()":"dd68d66d","targetBalanceBefore()":"e29c97ee","usedForceSendPath()":"105e5a2d","verdict()":"6aba253c","witnessSink()":"9496282f","witnessTarget()":"262a24d5"},"id":0}