{"abi":[{"type":"constructor","inputs":[],"stateMutability":"nonpayable"},{"type":"function","name":"probe","inputs":[{"name":"target","type":"address","internalType":"address"}],"outputs":[],"stateMutability":"nonpayable"}],"bytecode":{"object":"0x608080604052346015576101aa908161001a8239f35b5f80fdfe60806040526004361015610011575f80fd5b5f3560e01c63275e5da514610024575f80fd5b346100e35760203660031901126100e3576004356001600160a01b03811681036100e357633c2448ed60e01b60a05260046080525f90819061006660246100fb565b60a082608051925af13d156100d6573d67ffffffffffffffff81116100d1576100cd6100bf91604051906100a46020601f19601f840116018361011e565b81523d5f602083013e5b604051928391602083019586610140565b03601f19810183528261011e565b5190fd5b6100e7565b6100bf6100cd60606100ae565b5f80fd5b634e487b7160e01b5f52604160045260245ffd5b601f80199101166080016080811067ffffffffffffffff8211176100d157604052565b90601f8019910116810190811067ffffffffffffffff8211176100d157604052565b90606092602091151583526040828401528051918291826040860152018484015e5f828201840152601f01601f191601019056fea26469706673582212202092aac477e7f2f2dcca026f1533740d46f7eb95435bb557ec739f786fe96e0364736f6c634300081e0033","linkReferences":{}},"methodIdentifiers":{"probe(address)":"275e5da5"},"id":0}