{"abi":[{"type":"constructor","inputs":[],"stateMutability":"nonpayable"},{"type":"receive","stateMutability":"payable"},{"type":"function","name":"attempted","inputs":[],"outputs":[{"name":"","type":"bool","internalType":"bool"}],"stateMutability":"view"},{"type":"function","name":"borrowedWethAmount","inputs":[],"outputs":[{"name":"","type":"uint256","internalType":"uint256"}],"stateMutability":"view"},{"type":"function","name":"executeOnOpportunity","inputs":[],"outputs":[],"stateMutability":"nonpayable"},{"type":"function","name":"executeOperation","inputs":[{"name":"","type":"address[]","internalType":"address[]"},{"name":"","type":"uint256[]","internalType":"uint256[]"},{"name":"","type":"uint256[]","internalType":"uint256[]"},{"name":"","type":"address","internalType":"address"},{"name":"","type":"bytes","internalType":"bytes"}],"outputs":[{"name":"","type":"bool","internalType":"bool"}],"stateMutability":"nonpayable"},{"type":"function","name":"hypothesisValidated","inputs":[],"outputs":[{"name":"","type":"bool","internalType":"bool"}],"stateMutability":"view"},{"type":"function","name":"oraclePriceAfterExit","inputs":[],"outputs":[{"name":"","type":"uint256","internalType":"uint256"}],"stateMutability":"view"},{"type":"function","name":"oraclePriceBeforeExit","inputs":[],"outputs":[{"name":"","type":"uint256","internalType":"uint256"}],"stateMutability":"view"},{"type":"function","name":"oraclePriceDuringCallback","inputs":[],"outputs":[{"name":"","type":"uint256","internalType":"uint256"}],"stateMutability":"view"},{"type":"function","name":"profitAmount","inputs":[],"outputs":[{"name":"","type":"uint256","internalType":"uint256"}],"stateMutability":"view"},{"type":"function","name":"profitToken","inputs":[],"outputs":[{"name":"","type":"address","internalType":"address"}],"stateMutability":"pure"},{"type":"function","name":"requestFlashloan","inputs":[{"name":"wstEthShortfall","type":"uint256","internalType":"uint256"},{"name":"wethShortfall","type":"uint256","internalType":"uint256"}],"outputs":[],"stateMutability":"nonpayable"}],"bytecode":{"object":"0x6080604052348015600e575f5ffd5b5061109b8061001c5f395ff3fe60806040526004361061009f575f3560e01c80635ff972cc116100635780635ff972cc146102e85780637ef43d7614610312578063917f51b41461033c578063920f5c8414610366578063c3b85220146103a2578063cde0d4ef146103ca57610226565b80631a1ea4981461022a5780631f149c7c146102545780633c2448ed1461027e578063463defd11461029457806349343624146102be57610226565b3661022657600560029054906101000a900460ff1680156100cd5750600560039054906101000a900460ff16155b15610224576001600560036101000a81548160ff02191690831515021790555073e5d78eb340627b8d5bcff63590ebec1ef9118c8973ffffffffffffffffffffffffffffffffffffffff1663b3596f077310aa9eea35a3102cc47d4d93bc0ba9ae455577466040518263ffffffff1660e01b815260040161014e91906108d8565b602060405180830381865afa158015610169573d5f5f3e3d5ffd5b505050506040513d601f19601f8201168201806040525081019061018d919061092c565b600281905550739f72dc67cec672bb99e3d02cbea0a21536a2b65773ffffffffffffffffffffffffffffffffffffffff16635a3b74b973901247d08bebfd449526da92941b35d756873bcd5f6040518363ffffffff1660e01b81526004016101f6929190610971565b5f604051808303815f87803b15801561020d575f5ffd5b505af115801561021f573d5f5f3e3d5ffd5b505050505b005b5f5ffd5b348015610235575f5ffd5b5061023e6103f4565b60405161024b91906109a7565b60405180910390f35b34801561025f575f5ffd5b506102686103fa565b60405161027591906109a7565b60405180910390f35b348015610289575f5ffd5b50610292610400565b005b34801561029f575f5ffd5b506102a86104ac565b6040516102b591906109c0565b60405180910390f35b3480156102c9575f5ffd5b506102d26104bf565b6040516102df91906108d8565b60405180910390f35b3480156102f3575f5ffd5b506102fc6104da565b60405161030991906109a7565b60405180910390f35b34801561031d575f5ffd5b506103266104e2565b60405161033391906109a7565b60405180910390f35b348015610347575f5ffd5b506103506104e8565b60405161035d91906109c0565b60405180910390f35b348015610371575f5ffd5b5061038c60048036038101906103879190610b0e565b6104fa565b60405161039991906109c0565b60405180910390f35b3480156103ad575f5ffd5b506103c860048036038101906103c39190610c18565b61050c565b005b3480156103d5575f5ffd5b506103de610893565b6040516103eb91906109a7565b60405180910390f35b60025481565b60015481565b600160055f6101000a81548160ff0219169083151502179055503073ffffffffffffffffffffffffffffffffffffffff1663c3b85220690a968163f0a57b400000683ba1910bf341b00000690c11f9e7b10e91a000006104609190610c83565b6040518363ffffffff1660e01b815260040161047d929190610cb6565b5f604051808303815f87803b158015610494575f5ffd5b505af11580156104a6573d5f5f3e3d5ffd5b50505050565b600560019054906101000a900460ff1681565b5f73c02aaa39b223fe8d0a0e5c4f27ead9083c756cc2905090565b5f5f54905090565b60035481565b60055f9054906101000a900460ff1681565b5f600190509998505050505050505050565b3073ffffffffffffffffffffffffffffffffffffffff163373ffffffffffffffffffffffffffffffffffffffff161461057a576040517f08c379a000000000000000000000000000000000000000000000000000000000815260040161057190610d37565b60405180910390fd5b5f600267ffffffffffffffff81111561059657610595610d55565b5b6040519080825280602002602001820160405280156105c45781602001602082028036833780820191505090505b509050737f39c581f595b53c5cb19bd0b3f8da6c935e2ca0815f815181106105ef576105ee610d82565b5b602002602001019073ffffffffffffffffffffffffffffffffffffffff16908173ffffffffffffffffffffffffffffffffffffffff168152505073c02aaa39b223fe8d0a0e5c4f27ead9083c756cc28160018151811061065257610651610d82565b5b602002602001019073ffffffffffffffffffffffffffffffffffffffff16908173ffffffffffffffffffffffffffffffffffffffff16815250505f600267ffffffffffffffff8111156106a8576106a7610d55565b5b6040519080825280602002602001820160405280156106d65781602001602082028036833780820191505090505b50905083815f815181106106ed576106ec610d82565b5b602002602001018181525050828160018151811061070e5761070d610d82565b5b6020026020010181815250505f600267ffffffffffffffff81111561073657610735610d55565b5b6040519080825280602002602001820160405280156107645781602001602082028036833780820191505090505b5090507387870bca3f3fd6335c3f4ce8392d69350b4fa4e273ffffffffffffffffffffffffffffffffffffffff1663ab9c4b5d308585853060405180602001604052805f8152505f6040518863ffffffff1660e01b81526004016107ce9796959493929190610fdc565b5f604051808303815f87803b1580156107e5575f5ffd5b505af11580156107f7573d5f5f3e3d5ffd5b5050505073c02aaa39b223fe8d0a0e5c4f27ead9083c756cc273ffffffffffffffffffffffffffffffffffffffff166370a08231306040518263ffffffff1660e01b815260040161084891906108d8565b602060405180830381865afa158015610863573d5f5f3e3d5ffd5b505050506040513d601f19601f82011682018060405250810190610887919061092c565b5f819055505050505050565b60045481565b5f73ffffffffffffffffffffffffffffffffffffffff82169050919050565b5f6108c282610899565b9050919050565b6108d2816108b8565b82525050565b5f6020820190506108eb5f8301846108c9565b92915050565b5f5ffd5b5f5ffd5b5f819050919050565b61090b816108f9565b8114610915575f5ffd5b50565b5f8151905061092681610902565b92915050565b5f60208284031215610941576109406108f1565b5b5f61094e84828501610918565b91505092915050565b5f8115159050919050565b61096b81610957565b82525050565b5f6040820190506109845f8301856108c9565b6109916020830184610962565b9392505050565b6109a1816108f9565b82525050565b5f6020820190506109ba5f830184610998565b92915050565b5f6020820190506109d35f830184610962565b92915050565b5f5ffd5b5f5ffd5b5f5ffd5b5f5f83601f8401126109fa576109f96109d9565b5b8235905067ffffffffffffffff811115610a1757610a166109dd565b5b602083019150836020820283011115610a3357610a326109e1565b5b9250929050565b5f5f83601f840112610a4f57610a4e6109d9565b5b8235905067ffffffffffffffff811115610a6c57610a6b6109dd565b5b602083019150836020820283011115610a8857610a876109e1565b5b9250929050565b610a98816108b8565b8114610aa2575f5ffd5b50565b5f81359050610ab381610a8f565b92915050565b5f5f83601f840112610ace57610acd6109d9565b5b8235905067ffffffffffffffff811115610aeb57610aea6109dd565b5b602083019150836001820283011115610b0757610b066109e1565b5b9250929050565b5f5f5f5f5f5f5f5f5f60a08a8c031215610b2b57610b2a6108f1565b5b5f8a013567ffffffffffffffff811115610b4857610b476108f5565b5b610b548c828d016109e5565b995099505060208a013567ffffffffffffffff811115610b7757610b766108f5565b5b610b838c828d01610a3a565b975097505060408a013567ffffffffffffffff811115610ba657610ba56108f5565b5b610bb28c828d01610a3a565b95509550506060610bc58c828d01610aa5565b93505060808a013567ffffffffffffffff811115610be657610be56108f5565b5b610bf28c828d01610ab9565b92509250509295985092959850929598565b5f81359050610c1281610902565b92915050565b5f5f60408385031215610c2e57610c2d6108f1565b5b5f610c3b85828601610c04565b9250506020610c4c85828601610c04565b9150509250929050565b7f4e487b71000000000000000000000000000000000000000000000000000000005f52601160045260245ffd5b5f610c8d826108f9565b9150610c98836108f9565b9250828201905080821115610cb057610caf610c56565b5b92915050565b5f604082019050610cc95f830185610998565b610cd66020830184610998565b9392505050565b5f82825260208201905092915050565b7f6f6e6c792d73656c6600000000000000000000000000000000000000000000005f82015250565b5f610d21600983610cdd565b9150610d2c82610ced565b602082019050919050565b5f6020820190508181035f830152610d4e81610d15565b9050919050565b7f4e487b71000000000000000000000000000000000000000000000000000000005f52604160045260245ffd5b7f4e487b71000000000000000000000000000000000000000000000000000000005f52603260045260245ffd5b5f81519050919050565b5f82825260208201905092915050565b5f819050602082019050919050565b610de1816108b8565b82525050565b5f610df28383610dd8565b60208301905092915050565b5f602082019050919050565b5f610e1482610daf565b610e1e8185610db9565b9350610e2983610dc9565b805f5b83811015610e59578151610e408882610de7565b9750610e4b83610dfe565b925050600181019050610e2c565b5085935050505092915050565b5f81519050919050565b5f82825260208201905092915050565b5f819050602082019050919050565b610e98816108f9565b82525050565b5f610ea98383610e8f565b60208301905092915050565b5f602082019050919050565b5f610ecb82610e66565b610ed58185610e70565b9350610ee083610e80565b805f5b83811015610f10578151610ef78882610e9e565b9750610f0283610eb5565b925050600181019050610ee3565b5085935050505092915050565b5f81519050919050565b5f82825260208201905092915050565b8281835e5f83830152505050565b5f601f19601f8301169050919050565b5f610f5f82610f1d565b610f698185610f27565b9350610f79818560208601610f37565b610f8281610f45565b840191505092915050565b5f819050919050565b5f61ffff82169050919050565b5f819050919050565b5f610fc6610fc1610fbc84610f8d565b610fa3565b610f96565b9050919050565b610fd681610fac565b82525050565b5f60e082019050610fef5f83018a6108c9565b81810360208301526110018189610e0a565b905081810360408301526110158188610ec1565b905081810360608301526110298187610ec1565b905061103860808301866108c9565b81810360a083015261104a8185610f55565b905061105960c0830184610fcd565b9897505050505050505056fea2646970667358221220c5ff1f3de763ec5c0f078af45236200c3425364336eb9db34c085f9be5d8599564736f6c634300081e0033","linkReferences":{}},"methodIdentifiers":{"attempted()":"917f51b4","borrowedWethAmount()":"cde0d4ef","executeOnOpportunity()":"3c2448ed","executeOperation(address[],uint256[],uint256[],address,bytes)":"920f5c84","hypothesisValidated()":"463defd1","oraclePriceAfterExit()":"7ef43d76","oraclePriceBeforeExit()":"1f149c7c","oraclePriceDuringCallback()":"1a1ea498","profitAmount()":"5ff972cc","profitToken()":"49343624","requestFlashloan(uint256,uint256)":"c3b85220"},"id":0}