{"abi":[{"type":"receive","stateMutability":"payable"},{"type":"function","name":"TARGET","inputs":[],"outputs":[{"name":"","type":"address","internalType":"address"}],"stateMutability":"view"},{"type":"function","name":"executeOnOpportunity","inputs":[],"outputs":[],"stateMutability":"nonpayable"}],"bytecode":{"object":"0x608060405234801561000f575f80fd5b506101f68061001d5f395ff3fe60806040526004361061002c575f3560e01c80633c2448ed14610037578063cc1f2afa1461004d57610033565b3661003357005b5f80fd5b348015610042575f80fd5b5061004b610077565b005b348015610058575f80fd5b506100616100b2565b60405161006e9190610109565b60405180910390f35b6040517f08c379a00000000000000000000000000000000000000000000000000000000081526004016100a9906101a2565b60405180910390fd5b73ccd04073f4bdc4510927ea9ba350875c3c65bf8181565b5f73ffffffffffffffffffffffffffffffffffffffff82169050919050565b5f6100f3826100ca565b9050919050565b610103816100e9565b82525050565b5f60208201905061011c5f8301846100fa565b92915050565b5f82825260208201905092915050565b7f504f432067656e65726174696f6e206661696c656420666f7220414c4c5f46495f8201527f4e44494e47530000000000000000000000000000000000000000000000000000602082015250565b5f61018c602683610122565b915061019782610132565b604082019050919050565b5f6020820190508181035f8301526101b981610180565b905091905056fea26469706673582212203cb37dbb064b1098999873463bee289d8600ff8d063924383bccd25c89303f7064736f6c63430008140033","linkReferences":{}},"methodIdentifiers":{"TARGET()":"cc1f2afa","executeOnOpportunity()":"3c2448ed"},"id":0}