{"abi":[{"type":"constructor","inputs":[],"stateMutability":"nonpayable"},{"type":"receive","stateMutability":"payable"},{"type":"function","name":"CONTROLLER","inputs":[],"outputs":[{"name":"","type":"address","internalType":"address"}],"stateMutability":"view"},{"type":"function","name":"UNISWAP_V2_FACTORY","inputs":[],"outputs":[{"name":"","type":"address","internalType":"address"}],"stateMutability":"view"},{"type":"function","name":"UNISWAP_V2_ROUTER","inputs":[],"outputs":[{"name":"","type":"address","internalType":"address"}],"stateMutability":"view"},{"type":"function","name":"WETH","inputs":[],"outputs":[{"name":"","type":"address","internalType":"address"}],"stateMutability":"view"},{"type":"function","name":"executeOnOpportunity","inputs":[],"outputs":[],"stateMutability":"nonpayable"},{"type":"function","name":"profitAmount","inputs":[],"outputs":[{"name":"","type":"uint256","internalType":"uint256"}],"stateMutability":"view"},{"type":"function","name":"profitToken","inputs":[],"outputs":[{"name":"","type":"address","internalType":"address"}],"stateMutability":"pure"},{"type":"function","name":"runCandidate","inputs":[{"name":"pool","type":"address","internalType":"address"},{"name":"categoryID","type":"uint16","internalType":"uint16"},{"name":"useReindex","type":"bool","internalType":"bool"},{"name":"tokenIn","type":"address","internalType":"address"},{"name":"tokenOut","type":"address","internalType":"address"},{"name":"fundingMode","type":"uint8","internalType":"uint8"},{"name":"amountIn","type":"uint256","internalType":"uint256"}],"outputs":[],"stateMutability":"nonpayable"},{"type":"function","name":"simulateCandidate","inputs":[{"name":"pool","type":"address","internalType":"address"},{"name":"categoryID","type":"uint16","internalType":"uint16"},{"name":"useReindex","type":"bool","internalType":"bool"},{"name":"tokenIn","type":"address","internalType":"address"},{"name":"tokenOut","type":"address","internalType":"address"},{"name":"fundingMode","type":"uint8","internalType":"uint8"},{"name":"amountIn","type":"uint256","internalType":"uint256"}],"outputs":[],"stateMutability":"nonpayable"},{"type":"function","name":"uniswapV2Call","inputs":[{"name":"","type":"address","internalType":"address"},{"name":"amount0","type":"uint256","internalType":"uint256"},{"name":"amount1","type":"uint256","internalType":"uint256"},{"name":"","type":"bytes","internalType":"bytes"}],"outputs":[],"stateMutability":"nonpayable"},{"type":"error","name":"Simulated","inputs":[{"name":"profit","type":"uint256","internalType":"uint256"}]}],"bytecode":{"object":"0x60808060405234601557613042908161001a8239f35b5f80fdfe6080604052600436101561001a575b3615610018575f80fd5b005b5f3560e01c8063032ff5ea146100b457806310d1e85c146100af5780633c2448ed146100aa57806349343624146100965780635ff972cc146100a557806399d8fae3146100a0578063a82ed9ec1461009b578063ad5c464814610096578063d898a409146100915763ee0fc1210361000e576103ca565b610367565b6102c7565b610339565b61030b565b6102ee565b6102af565b610240565b61015b565b6001600160a01b031690565b6001600160a01b038116036100d657565b5f80fd5b61ffff8116036100d657565b801515036100d657565b60ff8116036100d657565b60e09060031901126100d657600435610113816100c5565b90602435610120816100da565b9060443561012d816100e6565b9060643561013a816100c5565b90608435610147816100c5565b9060a435610154816100f0565b9060c43590565b346100d6576101df6102026101d46101e86101f2610178366100fb565b97949161018d9b939b999196993033146103f1565b6101c461019930610892565b9c6101b46101a56104b5565b6001600160a01b03909d168d52565b6001600160a01b031660208c0152565b6001600160a01b031660408a0152565b61ffff166060880152565b15156080860152565b60ff1660a0840152565b60c08201525f60e0820152610a30565b61020b30610892565b8181111561023557610232916102209161050b565b636f14983160e01b5f52600452602490565b5ffd5b50506102325f610220565b346100d65760803660031901126100d65761025c6004356100c5565b6024356044356064356001600160401b0381116100d657366023820112156100d65780600401356001600160401b0381116100d657369101602401116100d65761001891610680565b5f9103126100d657565b346100d6575f3660031901126100d657610018610793565b346100d6575f3660031901126100d65760206040515f516020612fcd5f395f51905f528152f35b346100d6575f3660031901126100d6576020600754604051908152f35b346100d6575f3660031901126100d6576020604051735c69bee701ef814a2b6a3edd4b1652cb9cc5aa6f8152f35b346100d6575f3660031901126100d6576020604051737a250d5630b4cf539739df2c5dacb4c659f2488d8152f35b346100d65761001861ffff6101e86101f2610381366100fb565b979491909598926103933033146103f1565b604051996103a08b61043d565b6001600160a01b039081168b5290811660208b015216604089015216606087015215156080860152565b346100d6575f3660031901126100d65760206040515f516020612fed5f395f51905f528152f35b156103f857565b60405162461bcd60e51b815260206004820152600960248201526873656c66206f6e6c7960b81b6044820152606490fd5b634e487b7160e01b5f52604160045260245ffd5b61010081019081106001600160401b0382111761045957604052565b610429565b60a081019081106001600160401b0382111761045957604052565b60e081019081106001600160401b0382111761045957604052565b90601f801991011681019081106001600160401b0382111761045957604052565b604051906104c561010083610494565b565b604051906104c560c083610494565b906104c56040519283610494565b634e487b7160e01b5f52601160045260245ffd5b5f1981019190821161050657565b6104e4565b9190820391821161050657565b6040519060c082018281106001600160401b03821117610459576040526001546001600160a01b0390811683526002541660208301526104c582600354610573906001600160a01b03165b6001600160a01b03166040830152565b6004546001600160a01b03166060820152600554608082015260a061059a60065460ff1690565b1515910152565b156105a857565b60405162461bcd60e51b81526020600482015260086024820152670dcde40ccd8c2e6d60c31b6044820152606490fd5b156105df57565b60405162461bcd60e51b81526020600482015260086024820152673130b2103830b4b960c11b6044820152606490fd5b1561061657565b60405162461bcd60e51b815260206004820152600a60248201526918985908185b5bdd5b9d60b21b6044820152606490fd5b1561064f57565b60405162461bcd60e51b81526020600482015260096024820152681b9bc81c1c9bd99a5d60ba1b6044820152606490fd5b9061076a61074961076f93610693610518565b936106a96106a460a0870151151590565b6105a1565b84516106c8906106c1906001600160a01b03166100b9565b33146105d8565b811561078c57505b6106e0608085019182511461060f565b6020840151610741906001600160a01b0316604086018051909161071e916001600160a01b031660608901516001600160a01b031690865192610e28565b855161073b906001600160a01b031691516001600160a01b031690565b90610eb7565b909151611016565b9161075d8361075730610892565b11610648565b516001600160a01b031690565b6110ea565b6104c55f6001555f6002555f6003555f6004555f6005555f600655565b90506106d0565b5f5460ff166104c5576107ac600160ff195f5416175f55565b6107b530610892565b5f5b600381106107fd575b506104c5906107ce30610892565b90808211156107f5576107e1908261050b565b905b81156107ef5750600755565b60075550565b505f906107e3565b6108056112b8565b8051610819906001600160a01b03166100b9565b15801561086c575b8015610860575b61085a5761083590610a30565b67016345785d8a000061084730610892565b1015610855576001016107b7565b6107c0565b506107c0565b5060e081015115610828565b5060c081015115610821565b908160209103126100d6575190565b6040513d5f823e3d90fd5b6040516370a0823160e01b81526001600160a01b0390911660048201526020816024815f516020612fcd5f395f51905f525afa5f91816108da575b506108d757505f90565b90565b6108fd91925060203d602011610904575b6108f58183610494565b810190610878565b905f6108cd565b503d6108eb565b6040516370a0823160e01b81526001600160a01b0392831660048201529160209183916024918391165afa5f91816108da57506108d757505f90565b8051600180546001600160a01b039283166001600160a01b031991821617909155602083015160028054918416918316919091179055604083015160038054918416918316919091179055606083015160048054919093169116179055608081015160055560a001516104c590151560069060ff801983541691151516179055565b604051906109d8604083610494565b60058252640ccd8c2e6d60db1b6020830152565b9260209260a09592855283850152600180861b03166040840152608060608401528051918291826080860152018484015e5f828201840152601f01601f1916010190565b602081018051909190610a4b906001600160a01b0316611535565b90813b15610a58565b1590565b610d1757606081015161ffff165f516020612fed5f395f51905f523b156100d65760405163b25f86f960e01b815261ffff9190911660048201525f81602481835f516020612fed5f395f51905f525af19081610e14575b50610ab957505050565b608081015115610d975780516001600160a01b03165f516020612fed5f395f51905f523b156100d657604051632858f1a160e11b81526001600160a01b039190911660048201525f81602481835f516020612fed5f395f51905f525af19081610d83575b50610b2757505050565b60a0810160ff610b38825160ff1690565b1615610d245760ff610b4d6001925160ff1690565b1614610cb6578051610be4906001600160a01b031684516001600160a01b03166040840151610bd39060c0906001600160a01b0316950194610bc3865193610bb3610b966104c7565b6001600160a01b038b168152966001600160a01b03166020880152565b6001600160a01b03166040860152565b6001600160a01b03166060840152565b6080820152600160a0820152610947565b8251610c0b90610bfc906001600160a01b03166119a4565b5093516001600160a01b031690565b926001600160a01b039081169084168103610ca6578151936001600160a01b03165b03610c9f57505f905b6001600160a01b0316610c476109c9565b90803b156100d657610c75935f80946040519687958694859363022c0d9f60e01b85523091600486016109ec565b03925af18015610c9a57610c865750565b80610c945f6104c593610494565b806102a5565b610887565b5190610c36565b5f936001600160a01b0316610c2d565b919050610cc230610892565b60c083015180821015610d1c5750905b8115610d175782516104c59390610d1190604090610d02906001600160a01b03165b94516001600160a01b031690565b9201516001600160a01b031690565b91611786565b505050565b905090610cd2565b50825190929150610d3f906001600160a01b0316309061090b565b60c083015180821015610d7b5750905b8115610d175782516104c59390610d7590604090610d02906001600160a01b0316610cf4565b91610e28565b905090610d4f565b80610c945f610d9193610494565b5f610b1d565b80516001600160a01b03165f516020612fed5f395f51905f523b156100d65760405163e9819daf60e01b81526001600160a01b039190911660048201525f81602481835f516020612fed5f395f51905f525af19081610e00575b50610dfb57505050565b610b27565b80610c945f610e0e93610494565b5f610df1565b80610c945f610e2293610494565b5f610aaf565b92918215610e52576001600160a01b038116610e4857506104c592611ab5565b906104c593611a4c565b50505050565b51906001600160701b03821682036100d657565b908160609103126100d657610e8081610e58565b916040610e8f60208401610e58565b92015163ffffffff811681036100d65790565b908160209103126100d657516108d7816100c5565b909190803b15610fc257604051630240bc6b60e21b81526001600160a01b039190911692606082600481875afa93845f935f96610f8a575b50610eff5750505090505f905f90565b90602060049260405193848092630dfe168160e01b82525afa918215610c9a575f92610f59575b506001600160a01b03918216911603610f49576001600160701b03809116921690565b6001600160701b03928316921690565b610f7c91925060203d602011610f83575b610f748183610494565b810190610ea2565b905f610f26565b503d610f6a565b909550610fb091935060603d606011610fbb575b610fa88183610494565b810190610e6c565b50929092945f610eef565b503d610f9e565b505f91508190565b8181029291811591840414171561050657565b8115610fe7570490565b634e487b7160e01b5f52601260045260245ffd5b906001820180921161050657565b9190820180921161050657565b91908215801561108f575b8015611085575b61107d578261103691610fca565b906103e88202918083046103e814901517156105065782810392818411610506576103e584029384046103e51491141715610506576108d79161107891610fdd565b610ffb565b5050505f1990565b5082821115611028565b508015611021565b3d156110d0573d906001600160401b03821161045957604051916110c5601f8201601f191660200184610494565b82523d5f602084013e565b606090565b908160209103126100d657516108d7816100e6565b60405163a9059cbb60e01b602082019081526001600160a01b03909216602482015260448101929092525f9182919061113081606481015b03601f198101835282610494565b5190825f516020612fcd5f395f51905f525af161114b611097565b81611190575b501561115957565b60405162461bcd60e51b815260206004820152600f60248201526e1d1c985b9cd9995c8819985a5b1959608a1b6044820152606490fd5b80518015925082156111a5575b50505f611151565b6111b892506020809183010191016110d5565b5f8061119d565b604051906111cc8261043d565b5f60e0838281528260208201528260408201528260608201528260808201528260a08201528260c08201520152565b5f1981146105065760010190565b604051906112168261045e565b5f6080838281528260208201528260408201528260608201520152565b51906104c5826100f0565b908160a09103126100d6576080604051916112588361045e565b8051611263816100e6565b83526020810151611273816100da565b60208401526040810151611286816100f0565b60408401526060810151611299816100f0565b606084015201516001600160401b03811681036100d657608082015290565b6112c06111bf565b90604051633aa67f0160e21b81526020816004815f516020612fed5f395f51905f525afa5f9181611514575b506112f45750565b60015b81811115611303575050565b60025b600a81111561131e5750611319906111fb565b6112f7565b604051634ee8cd2960e11b815260048101839052602481018290526020816044815f516020612fed5f395f51905f525afa5f91816114f4575b5061136b5750611366906111fb565b611306565b803b156114ea5761137a611209565b50604051630141333d60e11b81526001600160a01b038216600482015260a0816024815f516020612fed5f395f51905f525afa5f91816114ba575b506113c5575050611366906111fb565b6113d2610a548251151590565b6113ff576113df81611ba8565b6113e882611be8565b908015806114b2575b6114a557611450575b61140a575b5050611366906111fb565b6020015161141d919061ffff1690611de6565b60e08101519060e08701518211156113ff5790955067016345785d8a00008196101561144957806113ff565b9450505050565b611468611462602084015161ffff1690565b84611ca7565b60e08101519060e08a01518211611481575b50506113fa565b90985067016345785d8a00008199101561149b578061147a565b9750505050505050565b50505050611366906111fb565b5081156113f1565b6114dc91925060a03d81116114e3575b6114d48183610494565b81019061123e565b905f6113b5565b503d6114ca565b50611366906111fb565b61150d91925060203d8111610f8357610f748183610494565b905f611357565b61152e91925060203d602011610904576108f58183610494565b905f6112ec565b6100b96115525f516020612fcd5f395f51905f526108d793611a2a565b6040519060208201926001600160601b03199060601b1683526001600160601b03199060601b1660348201526028815261158d604882610494565b519020604051602081019160ff60f81b8352735c69bee701ef814a2b6a3edd4b1652cb9cc5aa6f60601b602183015260358201527f96e8ac4277198ff8b6f785478aa9a39f403cb768dd02cbee326c3e7da348845f6055820152605581526115f6607582610494565b5190206001600160a01b031690565b6001600160401b0381116104595760051b60200190565b6040516060919061162d8382610494565b6002815291601f1901366020840137565b6040519061164d602083610494565b5f808352366020840137565b634e487b7160e01b5f52603260045260245ffd5b80511561167a5760200190565b611659565b80516001101561167a5760400190565b805182101561167a5760209160051b010190565b6020818303126100d6578051906001600160401b0382116100d657019080601f830112156100d65781516116d681611605565b926116e46040519485610494565b81845260208085019260051b8201019283116100d657602001905b82821061170c5750505090565b81518152602091820191016116ff565b91909493929460a083019083526001602084015260a060408401528151809152602060c084019201905f5b818110611767575050506001600160a01b03909416606082015260800152565b82516001600160a01b0316845260209384019390920191600101611747565b91908315610e525760405163095ea7b360e01b60208201908152737a250d5630b4cf539739df2c5dacb4c659f2488d60248301525f604483018190526118d7969092909161180691849182916117df8160648101611122565b5190825f516020612fcd5f395f51905f525af16117fa611097565b81611975575b50611eae565b60405163095ea7b360e01b60208201908152737a250d5630b4cf539739df2c5dacb4c659f2488d602483015260448201839052611875918491829161184e8160648101611122565b5190825f516020612fcd5f395f51905f525af1611869611097565b81611946575b50611eec565b61187d61161c565b9061189c61188a8361166d565b5f516020612fcd5f395f51905f529052565b6118b8846118a98461167f565b6001600160a01b039091169052565b6040516338ed173960e01b81529687928392429130916004860161171c565b038183737a250d5630b4cf539739df2c5dacb4c659f2488d5af15f9481611922575b506119045750505050565b61191b846119156104c596516104f8565b9061168f565b5192610e28565b61193f9195503d805f833e6119378183610494565b8101906116a3565b935f6118f9565b805180159250821561195b575b50505f61186f565b61196e92506020809183010191016110d5565b5f80611953565b805180159250821561198a575b50505f611800565b61199d92506020809183010191016110d5565b5f80611982565b6001600160a01b0381165f516020612fcd5f395f51905f5281146119f9575f516020612fcd5f395f51905f5211156119e8575f516020612fcd5f395f51905f529091565b5f516020612fcd5f395f51905f5291565b60405162461bcd60e51b81526020600482015260096024820152681a59195b9d1a58d85b60ba1b6044820152606490fd5b6001600160a01b038281169082168082146119f9571015611a485791565b9091565b92829391611a659392611a60838284611fd9565b612082565b8015611aa05773c02aaa39b223fe8d0a0e5c4f27ead9083c756cc1196001600160a01b03831601611a94575050565b611a9d91612110565b50565b5050565b90600381101561167a5760051b0190565b919091611ac283826122e1565b9390928415611ba157611ad6818484611fd9565b905f5b858110611ae857505050505050565b85611af282610ffb565b03611b8957825b8015611b8057611b17611b0f61075d8489611aa4565b828588612082565b938415611b755760019291611b2b9161050b565b935f516020612fcd5f395f51905f52611b4a6100b961075d858b611aa4565b03611b58575b505b01611ad9565b611b6e90611b6961075d848a611aa4565b612110565b505f611b50565b935050600190611b52565b50600190611b52565b611b9c611b96828861050b565b84610fdd565b611af9565b5050505050565b6001600160401b0360808201511662093a808101809111610506574210611be357606060ff9101511660018101809111610506576003161590565b505f90565b6001600160401b0360808201511662093a808101809111610506574210611be357606060ff910151166001810180911161050657600316151590565b6020818303126100d6578051906001600160401b0382116100d657019080601f830112156100d6578151611c5781611605565b92611c656040519485610494565b81845260208085019260051b8201019283116100d657602001905b828210611c8d5750505090565b602080918351611c9c816100c5565b815201910190611c80565b611caf6111bf565b60405163de105dbd60e01b815261ffff841660048201529091905f816024815f516020612fed5f395f51905f525afa5f9181611dc2575b50611cf2575050905090565b92611cfc82612566565b915f5b8551811015611db957611d1561075d828861168f565b6001600160a01b0381168015908115611da2575b50611d9957611d3881866125ba565b611d9957611d48610a5482612600565b611d9957611d57908484612632565b60e08101519060e08701518211611d75575b50506001905b01611cff565b90955067016345785d8a000081961015611d8f5780611d69565b9550505050505090565b50600190611d6f565b5f516020612fcd5f395f51905f529150145f611d29565b50505050919050565b611ddf9192503d805f833e611dd78183610494565b810190611c24565b905f611ce6565b611dee6111bf565b90611df881612566565b925f5b8451811015611ea657611e1161075d828761168f565b6001600160a01b0381168015908115611e8f575b50611e8657611e36610a5482612600565b611e8657611e45908385612a25565b60e08101519060e08601518211611e63575b50506001905b01611dfb565b90945067016345785d8a000081951015611e7d5780611e57565b94505050505090565b50600190611e5d565b5f516020612fcd5f395f51905f529150145f611e25565b505050919050565b15611eb557565b60405162461bcd60e51b815260206004820152600f60248201526e185c1c1c9bdd994c0819985a5b1959608a1b6044820152606490fd5b15611ef357565b60405162461bcd60e51b815260206004820152600e60248201526d185c1c1c9bdd994819985a5b195960921b6044820152606490fd5b60405163095ea7b360e01b60208201908152737a250d5630b4cf539739df2c5dacb4c659f2488d60248301525f604483018190526104c594909384939092611f8a9185918291611f7c8160648101611122565b519082875af16117fa611097565b60405163095ea7b360e01b60208201908152737a250d5630b4cf539739df2c5dacb4c659f2488d602483015260448201929092528390611fcd8160648101611122565b51925af1611869611097565b60405163095ea7b360e01b602082019081526001600160a01b03841660248301525f604483018190526104c59590948594939092859261112292611fcd92612038918691829161202a81606481018a565b5190828b5af16117fa611097565b60405163095ea7b360e01b602082019081526001600160a01b03909616602482015260448101919091529182906064820190565b91908260409103126100d6576020825192015190565b60408051638201aa3f60e01b81526001600160a01b03938416600482015260248101949094529382166044840152600160648401525f196084840152919291839160a49183915f91165af15f91816120de57506108d757505f90565b61210191925060403d604011612109575b6120f98183610494565b81019061206c565b50905f6108cd565b503d6120ef565b81156121e1576001600160a01b0381165f516020612fcd5f395f51905f52146121dd578082612143612183945f94611f29565b61215861214e61161c565b926118a98461166d565b61216461188a8361167f565b6040516338ed173960e01b81529384928392429130916004860161171c565b038183737a250d5630b4cf539739df2c5dacb4c659f2488d5af15f91816121c1575b506121af57505f90565b806119156121bd92516104f8565b5190565b6121d69192503d805f833e6119378183610494565b905f6121a5565b5090565b50505f90565b604051906121f6606083610494565b6060368337565b6040519061220a82610479565b5f60c0838281528260208201528260408201528260608201528260808201528260a08201520152565b519064ffffffffff821682036100d657565b51906001600160601b03821682036100d657565b908160e09103126100d65760c06040519161227383610479565b805161227e816100e6565b8352602081015161228e816100e6565b602084015261229f60408201612233565b60408401526122b060608201612245565b60608401526122c160808201612245565b60808401526122d260a08201611233565b60a0840152015160c082015290565b91906122eb6121e7565b905f936122f781612d8b565b946123006121e7565b925f5b875181101561255c5761231961075d828a61168f565b6001600160a01b0381168015801561254a575b612540576123386121fd565b506040516364c7d66160e01b81526001600160a01b03838116600483015287169060e081602481855afa5f9181612510575b5061237d57505050506001905b01612303565b9895939897929497612392610a548251151590565b908115612503575b5061248157604051634aa4e0b560e01b81526001600160a01b0386166004820152602081602481855afa5f91816124e3575b506124cd575060405163f8b2cb4f60e01b81526001600160a01b038616600482015290602090829060249082905afa5f91816124ad575b5061249857505f516020612fcd5f395f51905f525f915b0361245157935b84156124425791612436939160019593612dce565b94919492909495612377565b96909592506001919350612377565b6124638461245e81611535565b610eb7565b9190158015612490575b612481579061247b91611009565b93612421565b50509491509194600190612377565b50811561246d565b5f516020612fcd5f395f51905f52909161241a565b6124c691925060203d8111610904576108f58183610494565b905f612403565b5f516020612fcd5f395f51905f5291509161241a565b6124fc91925060203d8111610904576108f58183610494565b905f6123cc565b602001511590505f61239a565b61253291925060e03d8111612539575b61252a8183610494565b810190612259565b905f61236a565b503d612520565b5050600190612377565b506001600160a01b038416811461232c565b5050939294505050565b60405163039209af60e01b8152905f90829060049082906001600160a01b03165afa5f918161259e575b506108d757506108d761163e565b6125b39192503d805f833e611dd78183610494565b905f612590565b905f5b82518110156125f9576001600160a01b036125d8828561168f565b51166001600160a01b038316146125f1576001016125bd565b505050600190565b5050505f90565b61260d9061245e81611535565b901515908161261a575090565b9050151590565b90600f81101561167a5760051b0190565b929161263c6111bf565b936126456121e7565b5061265082826122e1565b9290938315611ba157612663308361090b565b8061296d575b5061267330610892565b80612840575b506126878261245e81611535565b81939115908115612837575b5061282f576126a36101e06104d6565b956019875260326020880152604b6040880152606460608801526096608088015260c860a088015261012c60c08801526101f460e08801526103206101008801526104b0610120880152610640610140880152610960610160880152610c80610180880152610fa06101a08801526113886101c08801525f5b600f811061272e575050505050505050565b61274d61274561273e838b612621565b5187610fca565b612710900490565b80158015612825575b61281c575f5b88811061276f5750506001905b0161271c565b61278a8261278061075d8488611aa4565b8760018a8d612f9f565b60e08d0151811161279f575b5060010161275c565b9b506127ae61075d8286611aa4565b6127da6127b96104b5565b6001600160a01b038b168152916001600160a01b0388166020840152610563565b61ffff8716606082015260016080820152600260a08201528260c08201528c60e082015267016345785d8a0000819d10612796579b5050505050505050505050565b50600190612769565b5085811015612756565b505050505050565b9050155f612693565b606061284c60606104d6565b916109c48352611388602084015261271060408401525f5b6003811061287457505050612679565b61288b6127456128848387611aa4565b5184610fca565b8015612964575f8c8989898e8e5b86106128b057505050505050506001905b01612864565b926128ce92600188936128c861075d8a60e099611aa4565b93612f72565b91015181116128e7575b506001018c8989898e8e612899565b9c506128f661075d828d611aa4565b6129226129016104b5565b6001600160a01b038c168152916001600160a01b038b166020840152610563565b61ffff88168187015260016080820152600160a08201528260c08201528d60e082015267016345785d8a0000819e106128d8579c505050505050505050505050565b506001906128aa565b5f5b85811061297c5750612669565b6129978261298d61075d848b611aa4565b866001878a612efe565b60e08a015181116129ac575b5060010161296f565b98506129bb61075d8289611aa4565b6129e76129c66104b5565b6001600160a01b0388168152916001600160a01b0387166020840152610563565b61ffff84166060820152600160808201525f60a08201528260c08201528960e082015267016345785d8a0000819a106129a357985050505050505050565b9291612a2f6111bf565b93612a386121e7565b50612a4382826122e1565b9290938315611ba157612a56308361090b565b80612cf6575b50612a6630610892565b80612bf9575b50612a7a8261245e81611535565b81939115908115612bf0575b5061282f57612a966101e06104d6565b956019875260326020880152604b6040880152606460608801526096608088015260c860a088015261012c60c08801526101f460e08801526103206101008801526104b0610120880152610640610140880152610960610160880152610c80610180880152610fa06101a08801526113886101c08801525f5b600f8110612b21575050505050505050565b612b3161274561273e838b612621565b80158015612be6575b612bdd575f5b888110612b535750506001905b01612b0f565b612b6d82612b6461075d8488611aa4565b875f8a8d612f9f565b60e08d01518111612b82575b50600101612b40565b9b50612b9161075d8286611aa4565b612b9c6127b96104b5565b61ffff871660608201525f6080820152600260a08201528260c08201528c60e082015267016345785d8a0000819d10612b79579b5050505050505050505050565b50600190612b4d565b5085811015612b3a565b9050155f612a86565b6060612c0560606104d6565b916109c48352611388602084015261271060408401525f5b60038110612c2d57505050612a6c565b612c3d6127456128848387611aa4565b8015612ced575f8c8989898e8e5b8610612c6257505050505050506001905b01612c1d565b92612c79925f88936128c861075d8a60e099611aa4565b9101518111612c92575b506001018c8989898e8e612c4b565b9c50612ca161075d828d611aa4565b612cac6129016104b5565b61ffff8816818701525f6080820152600160a08201528260c08201528d60e082015267016345785d8a0000819e10612c83579c505050505050505050505050565b50600190612c5c565b5f5b858110612d055750612a5c565b612d1f82612d1661075d848b611aa4565b865f878a612efe565b60e08a01518111612d34575b50600101612cf8565b9850612d4361075d8289611aa4565b612d4e6129c66104b5565b61ffff841660608201525f60808201525f60a08201528260c08201528960e082015267016345785d8a0000819a10612d2b57985050505050505050565b60405163cc77828d60e01b8152905f90829060049082906001600160a01b03165afa5f918161259e57506108d757506108d761163e565b8015610506575f190190565b9193909492612ddb6121e7565b50612de46121e7565b506003905f5b60038110612e93575b5060038214612e8b5760025b828111612e3d575090612e19612e1f926118a98387611aa4565b86611aa4565b5260038310612e2d57929190565b91612e37906111fb565b91929190565b80612e63612e5961075d612e53612e86956104f8565b89611aa4565b6118a98389611aa4565b612e75612e6f826104f8565b8a611aa4565b51612e80828b611aa4565b52612dc2565b612dff565b505050929190565b612e9d8189611aa4565b518411612eac57600101612dea565b91505f612df3565b6001600160a01b03918216815261ffff92909216602083015291151560408201529181166060830152909116608082015260ff9190911660a082015260c081019190915260e00190565b92906111225f96878097612f2a95604051978896602088019a630197faf560e11b8c5260248901612eb4565b519082305af1612f38611097565b908015612f67575b611be35760208101516001600160e01b0319166390eb67cf60e01b01611be3576024015190565b506024815110612f40565b92906111225f9660018897612f2a95604051978896602088019a630197faf560e11b8c5260248901612eb4565b92906111225f9660028897612f2a95604051978896602088019a630197faf560e11b8c5260248901612eb456fe000000000000000000000000c02aaa39b223fe8d0a0e5c4f27ead9083c756cc2000000000000000000000000f00a38376c8668fc1f3cd3daeef42e0e44a7fcdba2646970667358221220b8c3bb2499f5bfad412798ce89efff2453d61414020adcca532bb5b76180c0b164736f6c634300081e0033","linkReferences":{}},"methodIdentifiers":{"CONTROLLER()":"ee0fc121","UNISWAP_V2_FACTORY()":"99d8fae3","UNISWAP_V2_ROUTER()":"a82ed9ec","WETH()":"ad5c4648","executeOnOpportunity()":"3c2448ed","profitAmount()":"5ff972cc","profitToken()":"49343624","runCandidate(address,uint16,bool,address,address,uint8,uint256)":"d898a409","simulateCandidate(address,uint16,bool,address,address,uint8,uint256)":"032ff5ea","uniswapV2Call(address,uint256,uint256,bytes)":"10d1e85c"},"id":0}