{"abi":[{"type":"function","name":"CLOSE_FACTOR_HF_THRESHOLD","inputs":[],"outputs":[{"name":"","type":"uint256","internalType":"uint256"}],"stateMutability":"view"},{"type":"function","name":"MAX_LIQUIDATION_CLOSE_FACTOR","inputs":[],"outputs":[{"name":"","type":"uint256","internalType":"uint256"}],"stateMutability":"view"},{"type":"event","name":"LiquidationCall","inputs":[{"name":"collateralAsset","type":"address","indexed":true,"internalType":"address"},{"name":"debtAsset","type":"address","indexed":true,"internalType":"address"},{"name":"user","type":"address","indexed":true,"internalType":"address"},{"name":"debtToCover","type":"uint256","indexed":false,"internalType":"uint256"},{"name":"liquidatedCollateralAmount","type":"uint256","indexed":false,"internalType":"uint256"},{"name":"liquidator","type":"address","indexed":false,"internalType":"address"},{"name":"receiveAToken","type":"bool","indexed":false,"internalType":"bool"}],"anonymous":false},{"type":"event","name":"ReserveUsedAsCollateralDisabled","inputs":[{"name":"reserve","type":"address","indexed":true,"internalType":"address"},{"name":"user","type":"address","indexed":true,"internalType":"address"}],"anonymous":false},{"type":"event","name":"ReserveUsedAsCollateralEnabled","inputs":[{"name":"reserve","type":"address","indexed":true,"internalType":"address"},{"name":"user","type":"address","indexed":true,"internalType":"address"}],"anonymous":false}],"bytecode":{"object":"0x615135610053600b82828239805160001a607314610046577f4e487b7100000000000000000000000000000000000000000000000000000000600052600060045260246000fd5b30600052607381538281f3fe730000000000000000000000000000000000000000301460806040526004361061004b5760003560e01c806383c1087d14610050578063a18964a514610079578063d246754414610097575b600080fd5b81801561005c57600080fd5b5061007760048036038101906100729190614605565b6100b5565b005b610081610810565b60405161008e9190614690565b60405180910390f35b61009f61081c565b6040516100ac9190614690565b60405180910390f35b6100bd613f52565b6000866000846040015173ffffffffffffffffffffffffffffffffffffffff1673ffffffffffffffffffffffffffffffffffffffff16815260200190815260200160002090506000876000856060015173ffffffffffffffffffffffffffffffffffffffff1673ffffffffffffffffffffffffffffffffffffffff16815260200190815260200160002090506000866000866080015173ffffffffffffffffffffffffffffffffffffffff1673ffffffffffffffffffffffffffffffffffffffff168152602001908152602001600020905061019882610822565b8461016001819052506101b984610160015183610bf790919063ffffffff16565b61023f8989886040518060a001604052808660405180602001604052908160008201548152505081526020018a6000015181526020018a6080015173ffffffffffffffffffffffffffffffffffffffff1681526020018a60c0015173ffffffffffffffffffffffffffffffffffffffff1681526020018a60e0015160ff16815250610c0f565b909192939450909192935090919250909150508460c001818152505061026f846101600151868660c001516111f2565b8660200187604001886060018381525083815250838152505050506102dd818460405180608001604052808861016001518152602001886040015181526020018860c00151815260200189610100015173ffffffffffffffffffffffffffffffffffffffff16815250611285565b6102e886848761175d565b8761014001886101000189610120018a60a001848152508473ffffffffffffffffffffffffffffffffffffffff1673ffffffffffffffffffffffffffffffffffffffff168152508473ffffffffffffffffffffffffffffffffffffffff1673ffffffffffffffffffffffffffffffffffffffff168152508473ffffffffffffffffffffffffffffffffffffffff1673ffffffffffffffffffffffffffffffffffffffff168152505050505083610140015173ffffffffffffffffffffffffffffffffffffffff166370a0823186608001516040518263ffffffff1660e01b81526004016103d591906146ba565b602060405180830381865afa1580156103f2573d6000803e3d6000fd5b505050506040513d601f19601f8201168201806040525081019061041691906146ea565b84600001818152505061044e83856101600151866101000151876101200151886060015189600001518a60a001518c60c0015161190c565b86608001876060018860e0018381525083815250838152505050508360600151846040015114156104a6576104a58260030160159054906101000a900461ffff1661ffff16600083611c619092919063ffffffff16565b5b6104b08585611d25565b6104d784610160015186606001518660600151600086611f5990949392919063ffffffff16565b6104ed8989838761016001518860600151612259565b8460a001511561050a5761050589898986898961251c565b610516565b610515838686612724565b5b60008460e00151146106125783610140015173ffffffffffffffffffffffffffffffffffffffff1663f866c319866080015186610140015173ffffffffffffffffffffffffffffffffffffffff1663ae1673356040518163ffffffff1660e01b8152600401602060405180830381865afa158015610598573d6000803e3d6000fd5b505050506040513d601f19601f820116820180604052508101906105bc919061472c565b8760e001516040518463ffffffff1660e01b81526004016105df93929190614768565b600060405180830381600087803b1580156105f957600080fd5b505af115801561060d573d6000803e3d6000fd5b505050505b8360000151846080015114156106b15761064e8360030160159054906101000a900461ffff1661ffff166000836127ef9092919063ffffffff16565b846080015173ffffffffffffffffffffffffffffffffffffffff16856040015173ffffffffffffffffffffffffffffffffffffffff167f44c58d81365b66dd4b1a7f36c25aa97b8c71c361ee4937adc1a00000227db5dd60405160405180910390a35b6106f0338561016001516101e001518660600151886060015173ffffffffffffffffffffffffffffffffffffffff166128b5909392919063ffffffff16565b8361016001516101e0015173ffffffffffffffffffffffffffffffffffffffff166388dd91a13386606001516040518363ffffffff1660e01b815260040161073992919061479f565b600060405180830381600087803b15801561075357600080fd5b505af1158015610767573d6000803e3d6000fd5b50505050846080015173ffffffffffffffffffffffffffffffffffffffff16856060015173ffffffffffffffffffffffffffffffffffffffff16866040015173ffffffffffffffffffffffffffffffffffffffff167fe413a321e8681d831f4dbccbca790d2952b56f977908e45be37335533e00528687606001518860800151338b60a001516040516107fd94939291906147d7565b60405180910390a4505050505050505050565b670d2f13f7789f000081565b61271081565b61082a613ffb565b610832613ffb565b82600001604051806020016040529081600082015481525050816101c00181905250610862816101c0015161296e565b816101a00181815250508260010160009054906101000a90046fffffffffffffffffffffffffffffffff166fffffffffffffffffffffffffffffffff168160e00181815250508260020160009054906101000a90046fffffffffffffffffffffffffffffffff166fffffffffffffffffffffffffffffffff16816101200181815250508260010160109054906101000a90046fffffffffffffffffffffffffffffffff166fffffffffffffffffffffffffffffffff16816101600181815250508260020160109054906101000a90046fffffffffffffffffffffffffffffffff166fffffffffffffffffffffffffffffffff16816101800181815250508260040160009054906101000a900473ffffffffffffffffffffffffffffffffffffffff16816101e0019073ffffffffffffffffffffffffffffffffffffffff16908173ffffffffffffffffffffffffffffffffffffffff16815250508260050160009054906101000a900473ffffffffffffffffffffffffffffffffffffffff1681610200019073ffffffffffffffffffffffffffffffffffffffff16908173ffffffffffffffffffffffffffffffffffffffff16815250508260060160009054906101000a900473ffffffffffffffffffffffffffffffffffffffff1681610220019073ffffffffffffffffffffffffffffffffffffffff16908173ffffffffffffffffffffffffffffffffffffffff16815250508260030160109054906101000a900464ffffffffff1681610240019064ffffffffff16908164ffffffffff168152505080610220015173ffffffffffffffffffffffffffffffffffffffff1663b1bf962d6040518163ffffffff1660e01b8152600401602060405180830381865afa158015610af6573d6000803e3d6000fd5b505050506040513d601f19601f82011682018060405250810190610b1a91906146ea565b816020018181525081600001818152505080610200015173ffffffffffffffffffffffffffffffffffffffff1663797743386040518163ffffffff1660e01b8152600401608060405180830381865afa158015610b7b573d6000803e3d6000fd5b505050506040513d601f19601f82011682018060405250810190610b9f9190614859565b84604001856080018660600187610260018464ffffffffff1664ffffffffff168152508481525084815250848152505050505080608001518160c001818152505080606001518160a001818152505080915050919050565b610c0182826129a3565b610c0b8282612b0b565b5050565b600080600080600080610c258760000151612cb9565b15610c64576000806000807fffffffffffffffffffffffffffffffffffffffffffffffffffffffffffffffff60009550955095509550955095506111e5565b610c6c6140ea565b6000886080015160ff1614610cc357610ca48960008a6080015160ff1660ff1681526020019081526020016000208960600151612cc9565b836101a001846101c00185610180018381525083815250838152505050505b5b87602001518160c0015110156110cd57610cef8160c001518960000151612df190919063ffffffff16565b610d07578060c0018051600101908181525050610cc4565b8960008260c00151815260200190815260200160002060009054906101000a900473ffffffffffffffffffffffffffffffffffffffff1681610200019073ffffffffffffffffffffffffffffffffffffffff16908173ffffffffffffffffffffffffffffffffffffffff1681525050600073ffffffffffffffffffffffffffffffffffffffff1681610200015173ffffffffffffffffffffffffffffffffffffffff161415610dc4578060c0018051600101908181525050610cc4565b60008b600083610200015173ffffffffffffffffffffffffffffffffffffffff1673ffffffffffffffffffffffffffffffffffffffff1681526020019081526020016000209050610e2c81600001604051806020016040529081600082015481525050612e8e565b909192509050856080018660a00187606001886101e00184815250848152508481525084815250505050508160600151600a0a826020018181525050600082610180015114158015610e895750816101e00151896080015160ff16145b610f1557886060015173ffffffffffffffffffffffffffffffffffffffff1663b3596f078361020001516040518263ffffffff1660e01b8152600401610ecf91906146ba565b602060405180830381865afa158015610eec573d6000803e3d6000fd5b505050506040513d601f19601f82011682018060405250810190610f1091906146ea565b610f1c565b8161018001515b82600001818152505060008260a0015114158015610f515750610f508260c001518a60000151612fa290919063ffffffff16565b5b1561106657610f6e89604001518284600001518560200151613041565b82604001818152505081604001518261010001818151610f8e91906148ef565b91508181525050610fab896080015160ff16836101e0015161312b565b82610240019015159081151581525050600082608001511461100f57816102400151610fdb578160800151610fe2565b816101a001515b8260400151610ff19190614945565b826101400181815161100391906148ef565b91508181525050611022565b6001826102200190151590811515815250505b816102400151611036578160a0015161103d565b816101c001515b826040015161104c9190614945565b826101600181815161105e91906148ef565b915081815250505b6110818260c001518a6000015161314490919063ffffffff16565b156110b85761109e896040015182846000015185602001516131e0565b82610120018181516110b091906148ef565b915081815250505b8160c001805160010190818152505050610cc4565b600081610100015114156110e25760006110fe565b806101000151816101400151816110fc576110fb61499f565b5b045b816101400181815250506000816101000151141561111d576000611139565b806101000151816101600151816111375761113661499f565b5b045b816101600181815250506000816101200151146111895761118481610120015161117683610160015184610100015161337e90919063ffffffff16565b6133ab90919063ffffffff16565b6111ab565b7fffffffffffffffffffffffffffffffffffffffffffffffffffffffffffffffff5b8160e00181815250508061010001518161012001518261014001518361016001518460e00151856102200151965096509650965096509650505b9499939850945094509450565b60008060008060006112088760800151896133ea565b915091506000818361121a91906148ef565b90506000670d2f13f7789f0000881161123557612710611239565b6113885b90506000611250828461337e90919063ffffffff16565b90506000818b6020015111611269578a6020015161126b565b815b905084848298509850985050505050505093509350939050565b61128d614196565b6112ae836000016040518060200160405290816000820154815250506134f6565b90919250909150905082600001836020018215151515815250821515151581525050506112e382600001516101c001516134f6565b909192509091509050826040018360600182151515158152508215151515815250505080600001518015611318575080604001515b6040518060400160405280600281526020017f32370000000000000000000000000000000000000000000000000000000000008152509061138f576040517f08c379a00000000000000000000000000000000000000000000000000000000081526004016113869190614a56565b60405180910390fd5b5080602001511580156113a457508060600151155b6040518060400160405280600281526020017f32390000000000000000000000000000000000000000000000000000000000008152509061141b576040517f08c379a00000000000000000000000000000000000000000000000000000000081526004016114129190614a56565b60405180910390fd5b50600073ffffffffffffffffffffffffffffffffffffffff16826060015173ffffffffffffffffffffffffffffffffffffffff1614806114665750670d2f13f7789f00008260400151105b806114e05750816060015173ffffffffffffffffffffffffffffffffffffffff16637a5d20ea6040518163ffffffff1660e01b8152600401602060405180830381865afa1580156114bb573d6000803e3d6000fd5b505050506040513d601f19601f820116820180604052508101906114df9190614a8d565b5b6040518060400160405280600281526020017f353900000000000000000000000000000000000000000000000000000000000081525090611557576040517f08c379a000000000000000000000000000000000000000000000000000000000815260040161154e9190614a56565b60405180910390fd5b50670de0b6b3a76400008260400151106040518060400160405280600281526020017f3435000000000000000000000000000000000000000000000000000000000000815250906115de576040517f08c379a00000000000000000000000000000000000000000000000000000000081526004016115d59190614a56565b60405180910390fd5b506000611602846000016040518060200160405290816000820154815250506135e2565b1415801561164a57506116498360030160159054906101000a900461ffff1661ffff1685604051806020016040529081600082015481525050612fa290919063ffffffff16565b5b81608001901515908115158152505080608001516040518060400160405280600281526020017f3436000000000000000000000000000000000000000000000000000000000000815250906116d5576040517f08c379a00000000000000000000000000000000000000000000000000000000081526004016116cc9190614a56565b60405180910390fd5b506000826020015114156040518060400160405280600281526020017f343700000000000000000000000000000000000000000000000000000000000081525090611756576040517f08c379a000000000000000000000000000000000000000000000000000000000815260040161174d9190614a56565b60405180910390fd5b5050505050565b60008060008060008660040160009054906101000a900473ffffffffffffffffffffffffffffffffffffffff16905060006117af88600001604051806020016040529081600082015481525050613617565b905060008760400151905060008860600151905060008960e0015160ff16146118f35760008b60008b60e0015160ff1660ff16815260200190815260200160002060000160069054906101000a900473ffffffffffffffffffffffffffffffffffffffff1690506118478a60e0015160ff166118428d60000160405180602001604052908160008201548152505061364c565b61312b565b156118b9578b60008b60e0015160ff1660ff16815260200190815260200160002060000160049054906101000a900461ffff1661ffff169350600073ffffffffffffffffffffffffffffffffffffffff168173ffffffffffffffffffffffffffffffffffffffff16146118b8578092505b5b600073ffffffffffffffffffffffffffffffffffffffff168173ffffffffffffffffffffffffffffffffffffffff16146118f1578091505b505b8382828597509750975097505050505093509350935093565b60008060006119196141cf565b8473ffffffffffffffffffffffffffffffffffffffff1663b3596f078b6040518263ffffffff1660e01b815260040161195291906146ba565b602060405180830381865afa15801561196f573d6000803e3d6000fd5b505050506040513d601f19601f8201168201806040525081019061199391906146ea565b8160000181815250508473ffffffffffffffffffffffffffffffffffffffff1663b3596f078a6040518263ffffffff1660e01b81526004016119d591906146ba565b602060405180830381865afa1580156119f2573d6000803e3d6000fd5b505050506040513d601f19601f82011682018060405250810190611a1691906146ea565b816020018181525050611a408c600001604051806020016040529081600082015481525050613681565b8160c0018181525050611a578b6101c00151613681565b8160a00181815250508060c00151600a0a8160e00181815250508060a00151600a0a81610100018181525050611aa48c6000016040518060200160405290816000820154815250506136b6565b816101600181815250508061010001518160000151611ac39190614945565b8160e00151898360200151611ad89190614945565b611ae29190614945565b611aec9190614aba565b816060018181525050611b0c86826060015161337e90919063ffffffff16565b8160400181815250508681604001511115611b90578681610120018181525050611b81868260e001518360200151611b449190614945565b8361010001518461012001518560000151611b5f9190614945565b611b699190614945565b611b739190614aba565b6136eb90919063ffffffff16565b81610140018181525050611bab565b80604001518161012001818152505087816101400181815250505b600081610160015114611c3d57611bd0868261012001516136eb90919063ffffffff16565b816101200151611be09190614aeb565b816080018181525050611c05816101600151826080015161337e90919063ffffffff16565b81610180018181525050806101800151816101200151611c259190614aeb565b81610140015182610180015193509350935050611c53565b8061012001518161014001516000935093509350505b985098509895505050505050565b608061ffff1682106040518060400160405280600281526020017f373400000000000000000000000000000000000000000000000000000000000081525090611ce0576040517f08c379a0000000000000000000000000000000000000000000000000000000008152600401611cd79190614a56565b60405180910390fd5b506000600183901b6001901b90508115611d0b57808460000160008282541792505081905550611d1f565b801984600001600082825416925050819055505b50505050565b8060600151816020015110611de357806101600151610220015173ffffffffffffffffffffffffffffffffffffffff1663f5298aca8360800151836060015184610160015161014001516040518463ffffffff1660e01b8152600401611d8d93929190614b1f565b6020604051808303816000875af1158015611dac573d6000803e3d6000fd5b505050506040513d601f19601f82011682018060405250810190611dd091906146ea565b8161016001516020018181525050611f55565b6000816020015114611e9a57806101600151610220015173ffffffffffffffffffffffffffffffffffffffff1663f5298aca8360800151836020015184610160015161014001516040518463ffffffff1660e01b8152600401611e4893929190614b1f565b6020604051808303816000875af1158015611e67573d6000803e3d6000fd5b505050506040513d601f19601f82011682018060405250810190611e8b91906146ea565b81610160015160200181815250505b806101600151610200015173ffffffffffffffffffffffffffffffffffffffff16639dc29fac836080015183602001518460600151611ed99190614aeb565b6040518363ffffffff1660e01b8152600401611ef692919061479f565b60408051808303816000875af1158015611f14573d6000803e3d6000fd5b505050506040513d601f19601f82011682018060405250810190611f389190614b56565b82610160015160c00183610160015160a001828152508281525050505b5050565b611f61614237565b611f7d856101400151866020015161371e90919063ffffffff16565b8160600181815250508560070160009054906101000a900473ffffffffffffffffffffffffffffffffffffffff1673ffffffffffffffffffffffffffffffffffffffff1663a58987096040518061012001604052806000611fe28a6101c00151613769565b1415611fef576000612011565b8960080160109054906101000a90046fffffffffffffffffffffffffffffffff165b6fffffffffffffffffffffffffffffffff1681526020018681526020018581526020018860c001518152602001846060015181526020018860a001518152602001886101a0015181526020018773ffffffffffffffffffffffffffffffffffffffff168152602001886101e0015173ffffffffffffffffffffffffffffffffffffffff168152506040518263ffffffff1660e01b81526004016120b49190614c6b565b606060405180830381865afa1580156120d1573d6000803e3d6000fd5b505050506040513d601f19601f820116820180604052508101906120f59190614c87565b83600001846020018560400183815250838152508381525050505061211d816000015161379e565b8660010160106101000a8154816fffffffffffffffffffffffffffffffff02191690836fffffffffffffffffffffffffffffffff160217905550612164816020015161379e565b8660030160006101000a8154816fffffffffffffffffffffffffffffffff02191690836fffffffffffffffffffffffffffffffff1602179055506121ab816040015161379e565b8660020160106101000a8154816fffffffffffffffffffffffffffffffff02191690836fffffffffffffffffffffffffffffffff1602179055508373ffffffffffffffffffffffffffffffffffffffff167f804c9b842b2748a22bb64b345453a3de7ca54a6ca45ce00d415894979e22897a8260000151836020015184604001518961010001518a6101400151604051612249959493929190614cda565b60405180910390a2505050505050565b6000806122868787876040518060200160405290816000820154815250506137fd9092919063ffffffff16565b509150915081156125135760008760008373ffffffffffffffffffffffffffffffffffffffff1673ffffffffffffffffffffffffffffffffffffffff16815260200190815260200160002060090160009054906101000a90046fffffffffffffffffffffffffffffffff169050600061232e6002612308886101c00151613681565b6123129190614aeb565b600a61231e9190614e60565b866123299190614aba565b61379e565b9050806fffffffffffffffffffffffffffffffff16826fffffffffffffffffffffffffffffffff16116124285760008960008573ffffffffffffffffffffffffffffffffffffffff1673ffffffffffffffffffffffffffffffffffffffff16815260200190815260200160002060090160006101000a8154816fffffffffffffffffffffffffffffffff02191690836fffffffffffffffffffffffffffffffff1602179055508273ffffffffffffffffffffffffffffffffffffffff167faef84d3b40895fd58c561f3998000f0583abb992a52fbdc99ace8e8de4d676a5600060405161241b9190614ef0565b60405180910390a2612510565b600081836124369190614f27565b8a60008673ffffffffffffffffffffffffffffffffffffffff1673ffffffffffffffffffffffffffffffffffffffff16815260200190815260200160002060090160006101000a8154816fffffffffffffffffffffffffffffffff02191690836fffffffffffffffffffffffffffffffff16021790556fffffffffffffffffffffffffffffffff1690508373ffffffffffffffffffffffffffffffffffffffff167faef84d3b40895fd58c561f3998000f0583abb992a52fbdc99ace8e8de4d676a5826040516125069190614f5b565b60405180910390a2505b50505b50505050505050565b600081610140015173ffffffffffffffffffffffffffffffffffffffff166370a08231336040518263ffffffff1660e01b815260040161255c91906146ba565b602060405180830381865afa158015612579573d6000803e3d6000fd5b505050506040513d601f19601f8201168201806040525081019061259d91906146ea565b905081610140015173ffffffffffffffffffffffffffffffffffffffff1663f866c31984608001513385608001516040518463ffffffff1660e01b81526004016125e993929190614768565b600060405180830381600087803b15801561260357600080fd5b505af1158015612617573d6000803e3d6000fd5b50505050600081141561271b5760008560003373ffffffffffffffffffffffffffffffffffffffff1673ffffffffffffffffffffffffffffffffffffffff168152602001908152602001600020905061268a8888838860000160405180602001604052908160008201548152505061390a565b15612719576126bb8560030160159054906101000a900461ffff1661ffff166001836127ef9092919063ffffffff16565b3373ffffffffffffffffffffffffffffffffffffffff16846040015173ffffffffffffffffffffffffffffffffffffffff167e058a56ea94653cdf4f152d227ace22d4c00ad99e2a43f58cb7d9e3feb295f260405160405180910390a35b505b50505050505050565b600061272f84610822565b90506127448185610bf790919063ffffffff16565b6127668184604001516000856080015188611f5990949392919063ffffffff16565b81610140015173ffffffffffffffffffffffffffffffffffffffff1663d7020d0a84608001513385608001518561010001516040518563ffffffff1660e01b81526004016127b79493929190614f76565b600060405180830381600087803b1580156127d157600080fd5b505af11580156127e5573d6000803e3d6000fd5b5050505050505050565b608061ffff1682106040518060400160405280600281526020017f37340000000000000000000000000000000000000000000000000000000000008152509061286e576040517f08c379a00000000000000000000000000000000000000000000000000000000081526004016128659190614a56565b60405180910390fd5b50600060018084901b016001901b9050811561289b578084600001600082825417925050819055506128af565b801984600001600082825416925050819055505b50505050565b60006323b872dd60e01b905060405181815273ffffffffffffffffffffffffffffffffffffffff8516600482015273ffffffffffffffffffffffffffffffffffffffff8416602482015282604482015260008060648360008a5af161291e573d6000803e3d6000fd5b5061292885613989565b612967576040517f08c379a000000000000000000000000000000000000000000000000000000000815260040161295e90615007565b60405180910390fd5b5050505050565b600060407fffffffffffffffffffffffffffffffffffffffffffff0000ffffffffffffffff19836000015116901c9050919050565b8060e001518161010001818152505080610120015181610140018181525050600081610160015114612ae25760006129e5826101600151836102400151613a56565b90506129fe8260e001518261371e90919063ffffffff16565b82610100018181525050612a1682610100015161379e565b8360010160006101000a8154816fffffffffffffffffffffffffffffffff02191690836fffffffffffffffffffffffffffffffff1602179055506000826000015114612ae0576000612a72836101800151846102400151613ab1565b9050612a8c8361012001518261371e90919063ffffffff16565b83610140018181525050612aa483610140015161379e565b8460020160006101000a8154816fffffffffffffffffffffffffffffffff02191690836fffffffffffffffffffffffffffffffff160217905550505b505b428260030160106101000a81548164ffffffffff021916908364ffffffffff1602179055505050565b612b1361425f565b6000826101a001511415612b275750612cb5565b612b43826101200151836000015161371e90919063ffffffff16565b816020018181525050612b68826101400151836000015161371e90919063ffffffff16565b816040018181525050612b91826060015183610260015184610240015164ffffffffff16613ac6565b816060018181525050612bb58160600151836040015161371e90919063ffffffff16565b8160000181815250508060000151816020015183608001518360400151612bdc91906148ef565b612be69190614aeb565b612bf09190614aeb565b816080018181525050612c15826101a00151826080015161337e90919063ffffffff16565b8160a001818152505060008160a0015114612cb357612c4e612c498361010001518360a00151613c3490919063ffffffff16565b61379e565b8360080160008282829054906101000a90046fffffffffffffffffffffffffffffffff16612c7c9190615027565b92506101000a8154816fffffffffffffffffffffffffffffffff02191690836fffffffffffffffffffffffffffffffff1602179055505b505b5050565b6000808260000151149050919050565b6000806000806000905060008660000160069054906101000a900473ffffffffffffffffffffffffffffffffffffffff169050600073ffffffffffffffffffffffffffffffffffffffff168173ffffffffffffffffffffffffffffffffffffffff1614612dad578573ffffffffffffffffffffffffffffffffffffffff1663b3596f07826040518263ffffffff1660e01b8152600401612d6991906146ba565b602060405180830381865afa158015612d86573d6000803e3d6000fd5b505050506040513d601f19601f82011682018060405250810190612daa91906146ea565b91505b8660000160009054906101000a900461ffff168760000160029054906101000a900461ffff16838261ffff1692508161ffff16915094509450945050509250925092565b6000608061ffff1682106040518060400160405280600281526020017f373400000000000000000000000000000000000000000000000000000000000081525090612e72576040517f08c379a0000000000000000000000000000000000000000000000000000000008152600401612e699190614a56565b60405180910390fd5b5060006003600184901b8560000151901c161415905092915050565b6000806000806000806000876000015190507fffffffffffffffffffffffffffffffffffffffffffffffffffffffffffff000019811660107fffffffffffffffffffffffffffffffffffffffffffffffffffffffff0000ffff198316901c60207fffffffffffffffffffffffffffffffffffffffffffffffffffff0000ffffffff198416901c60307fffffffffffffffffffffffffffffffffffffffffffffffffff00ffffffffffff198516901c60407fffffffffffffffffffffffffffffffffffffffffffff0000ffffffffffffffff198616901c60a87fffffffffffffffffffff00ffffffffffffffffffffffffffffffffffffffffff198716901c9650965096509650965096505091939550919395565b6000608061ffff1682106040518060400160405280600281526020017f373400000000000000000000000000000000000000000000000000000000000081525090613023576040517f08c379a000000000000000000000000000000000000000000000000000000000815260040161301a9190614a56565b60405180910390fd5b506000600180600185901b018560000151901c161415905092915050565b60008061304d85613c7b565b9050600084613102838860040160009054906101000a900473ffffffffffffffffffffffffffffffffffffffff1673ffffffffffffffffffffffffffffffffffffffff16631da24f3e8b6040518263ffffffff1660e01b81526004016130b391906146ba565b602060405180830381865afa1580156130d0573d6000803e3d6000fd5b505050506040513d601f19601f820116820180604052508101906130f491906146ea565b61371e90919063ffffffff16565b61310c9190614945565b905083818161311e5761311d61499f565b5b0492505050949350505050565b600080831415801561313c57508282145b905092915050565b6000608061ffff1682106040518060400160405280600281526020017f3734000000000000000000000000000000000000000000000000000000000000815250906131c5576040517f08c379a00000000000000000000000000000000000000000000000000000000081526004016131bc9190614a56565b60405180910390fd5b50600060018084901b8560000151901c161415905092915050565b6000808460060160009054906101000a900473ffffffffffffffffffffffffffffffffffffffff1673ffffffffffffffffffffffffffffffffffffffff16631da24f3e876040518263ffffffff1660e01b815260040161324091906146ba565b602060405180830381865afa15801561325d573d6000803e3d6000fd5b505050506040513d601f19601f8201168201806040525081019061328191906146ea565b9050600081146132a9576132a661329786613d69565b8261371e90919063ffffffff16565b90505b8460050160009054906101000a900473ffffffffffffffffffffffffffffffffffffffff1673ffffffffffffffffffffffffffffffffffffffff166370a08231876040518263ffffffff1660e01b815260040161330691906146ba565b602060405180830381865afa158015613323573d6000803e3d6000fd5b505050506040513d601f19601f8201168201806040525081019061334791906146ea565b8161335291906148ef565b905080846133609190614945565b90508281816133725761337161499f565b5b04915050949350505050565b600081611388600019030483111582151761339857600080fd5b6127106113888385020104905092915050565b6000670de0b6b3a764000060028304600019030483111515821517156133d057600080fd5b8160028304670de0b6b3a764000085020104905092915050565b60008082610200015173ffffffffffffffffffffffffffffffffffffffff166370a08231856040518263ffffffff1660e01b815260040161342b91906146ba565b602060405180830381865afa158015613448573d6000803e3d6000fd5b505050506040513d601f19601f8201168201806040525081019061346c91906146ea565b83610220015173ffffffffffffffffffffffffffffffffffffffff166370a08231866040518263ffffffff1660e01b81526004016134aa91906146ba565b602060405180830381865afa1580156134c7573d6000803e3d6000fd5b505050506040513d601f19601f820116820180604052508101906134eb91906146ea565b915091509250929050565b6000806000806000808660000151905060007ffffffffffffffffffffffffffffffffffffffffffffffffffeffffffffffffff198216141560007ffffffffffffffffffffffffffffffffffffffffffffffffffdffffffffffffff198316141560007ffffffffffffffffffffffffffffffffffffffffffffffffffbffffffffffffff198416141560007ffffffffffffffffffffffffffffffffffffffffffffffffff7ffffffffffffff198516141560007fffffffffffffffffffffffffffffffffffffffffffffffffefffffffffffffff1986161415955095509550955095505091939590929450565b600060107fffffffffffffffffffffffffffffffffffffffffffffffffffffffff0000ffff19836000015116901c9050919050565b600060207fffffffffffffffffffffffffffffffffffffffffffffffffffff0000ffffffff19836000015116901c9050919050565b600060a87fffffffffffffffffffff00ffffffffffffffffffffffffffffffffffffffffff19836000015116901c9050919050565b600060307fffffffffffffffffffffffffffffffffffffffffffffffffff00ffffffffffff19836000015116901c9050919050565b600060987fffffffffffffffffffffff0000ffffffffffffffffffffffffffffffffffffff19836000015116901c9050919050565b6000612710600283046000190304831115158215171561370a57600080fd5b816002830461271085020104905092915050565b6000816b019d971e4fe8401e74000000600019030483111582151761374257600080fd5b6b033b2e3c9fd0803ce80000006b019d971e4fe8401e740000008385020104905092915050565b600060b07ffffffffffff000000000ffffffffffffffffffffffffffffffffffffffffffff19836000015116901c9050919050565b60006fffffffffffffffffffffffffffffffff80168211156137f5576040517f08c379a00000000000000000000000000000000000000000000000000000000081526004016137ec906150df565b60405180910390fd5b819050919050565b600080600061380b86613e57565b156138f557600061383c877faaaaaaaaaaaaaaaaaaaaaaaaaaaaaaaaaaaaaaaaaaaaaaaaaaaaaaaaaaaaaaaa613eaa565b9050600085600083815260200190815260200160002060009054906101000a900473ffffffffffffffffffffffffffffffffffffffff16905060006138d58860008473ffffffffffffffffffffffffffffffffffffffff1673ffffffffffffffffffffffffffffffffffffffff168152602001908152602001600020600001604051806020016040529081600082015481525050613eea565b9050600081146138f15760018282955095509550505050613901565b5050505b60008060009250925092505b93509350939050565b600061392a83604051806020016040529081600082015481525050613f1f565b6139375760019050613981565b60006139638686866040518060200160405290816000820154815250506137fd9092919063ffffffff16565b505090508015801561397d5750600061397b84613eea565b145b9150505b949350505050565b60006139c7565b7f08c379a0000000000000000000000000000000000000000000000000000000006000526020600452806024528160445260646000fd5b3d60008114613a085760208114613a4357613a037f475076323a206d616c666f726d6564207472616e7366657220726573756c7400601f613990565b613a50565b823b613a3a57613a397f475076323a206e6f74206120636f6e74726163740000000000000000000000006014613990565b5b60019150613a50565b3d6000803e600051151591505b50919050565b6000808264ffffffffff1642613a6c9190614aeb565b84613a779190614945565b90506301e133808181613a8d57613a8c61499f565b5b049050806b033b2e3c9fd0803ce8000000613aa891906148ef565b91505092915050565b6000613abe838342613ac6565b905092915050565b6000808364ffffffffff1683613adc9190614aeb565b90506000811415613afc576b033b2e3c9fd0803ce8000000915050613c2d565b60008060008060018503935060028511613b17576000613b1c565b600285035b92506301e133808002613b388a8b61371e90919063ffffffff16565b81613b4657613b4561499f565b5b0491506301e13380613b618a8461371e90919063ffffffff16565b81613b6f57613b6e61499f565b5b0490506000828587613b819190614945565b613b8b9190614945565b905060028181613b9e57613b9d61499f565b5b049050600082858789613bb19190614945565b613bbb9190614945565b613bc59190614945565b905060068181613bd857613bd761499f565b5b04905080826301e13380898e613bee9190614945565b613bf89190614aba565b6b033b2e3c9fd0803ce8000000613c0f91906148ef565b613c1991906148ef565b613c2391906148ef565b9750505050505050505b9392505050565b60006b033b2e3c9fd0803ce80000006002830460001903048311151582151715613c5d57600080fd5b81600283046b033b2e3c9fd0803ce800000085020104905092915050565b6000808260030160109054906101000a900464ffffffffff169050428164ffffffffff161415613ce0578260010160009054906101000a90046fffffffffffffffffffffffffffffffff166fffffffffffffffffffffffffffffffff16915050613d64565b613d608360010160009054906101000a90046fffffffffffffffffffffffffffffffff166fffffffffffffffffffffffffffffffff16613d528560010160109054906101000a90046fffffffffffffffffffffffffffffffff166fffffffffffffffffffffffffffffffff1684613a56565b61371e90919063ffffffff16565b9150505b919050565b6000808260030160109054906101000a900464ffffffffff169050428164ffffffffff161415613dce578260020160009054906101000a90046fffffffffffffffffffffffffffffffff166fffffffffffffffffffffffffffffffff16915050613e52565b613e4e8360020160009054906101000a90046fffffffffffffffffffffffffffffffff166fffffffffffffffffffffffffffffffff16613e408560020160109054906101000a90046fffffffffffffffffffffffffffffffff166fffffffffffffffffffffffffffffffff1684613ab1565b61371e90919063ffffffff16565b9150505b919050565b6000807faaaaaaaaaaaaaaaaaaaaaaaaaaaaaaaaaaaaaaaaaaaaaaaaaaaaaaaaaaaaaaaa836000015116905060008114158015613ea257506000600182613e9e9190614aeb565b8216145b915050919050565b600080828460000151169050600060018203198216905060005b6000600283901c92508214613ede57600181019050613ec4565b80935050505092915050565b600060d47ff0000000000fffffffffffffffffffffffffffffffffffffffffffffffffffff19836000015116901c9050919050565b6000807faaaaaaaaaaaaaaaaaaaaaaaaaaaaaaaaaaaaaaaaaaaaaaaaaaaaaaaaaaaaaaaa83600001511614159050919050565b6040518061018001604052806000815260200160008152602001600081526020016000815260200160008152602001600081526020016000815260200160008152602001600073ffffffffffffffffffffffffffffffffffffffff168152602001600073ffffffffffffffffffffffffffffffffffffffff168152602001600073ffffffffffffffffffffffffffffffffffffffff168152602001613ff5613ffb565b81525090565b6040518061028001604052806000815260200160008152602001600081526020016000815260200160008152602001600081526020016000815260200160008152602001600081526020016000815260200160008152602001600081526020016000815260200160008152602001614071614295565b8152602001600073ffffffffffffffffffffffffffffffffffffffff168152602001600073ffffffffffffffffffffffffffffffffffffffff168152602001600073ffffffffffffffffffffffffffffffffffffffff168152602001600064ffffffffff168152602001600064ffffffffff1681525090565b60405180610260016040528060008152602001600081526020016000815260200160008152602001600081526020016000815260200160008152602001600081526020016000815260200160008152602001600081526020016000815260200160008152602001600081526020016000815260200160008152602001600073ffffffffffffffffffffffffffffffffffffffff1681526020016000151581526020016000151581525090565b6040518060a001604052806000151581526020016000151581526020016000151581526020016000151581526020016000151581525090565b604051806101a00160405280600081526020016000815260200160008152602001600081526020016000815260200160008152602001600081526020016000815260200160008152602001600081526020016000815260200160008152602001600081525090565b6040518060800160405280600081526020016000815260200160008152602001600081525090565b6040518060c001604052806000815260200160008152602001600081526020016000815260200160008152602001600081525090565b6040518060200160405280600081525090565b6000604051905090565b600080fd5b6000819050919050565b6142ca816142b7565b81146142d557600080fd5b50565b6000813590506142e7816142c1565b92915050565b6000819050919050565b614300816142ed565b811461430b57600080fd5b50565b60008135905061431d816142f7565b92915050565b6000819050919050565b61433681614323565b811461434157600080fd5b50565b6000813590506143538161432d565b92915050565b6000819050919050565b61436c81614359565b811461437757600080fd5b50565b60008135905061438981614363565b92915050565b600080fd5b6000601f19601f8301169050919050565b7f4e487b7100000000000000000000000000000000000000000000000000000000600052604160045260246000fd5b6143dd82614394565b810181811067ffffffffffffffff821117156143fc576143fb6143a5565b5b80604052505050565b600061440f6142a8565b905061441b82826143d4565b919050565b6000819050919050565b61443381614420565b811461443e57600080fd5b50565b6000813590506144508161442a565b92915050565b600073ffffffffffffffffffffffffffffffffffffffff82169050919050565b600061448182614456565b9050919050565b61449181614476565b811461449c57600080fd5b50565b6000813590506144ae81614488565b92915050565b60008115159050919050565b6144c9816144b4565b81146144d457600080fd5b50565b6000813590506144e6816144c0565b92915050565b600060ff82169050919050565b614502816144ec565b811461450d57600080fd5b50565b60008135905061451f816144f9565b92915050565b6000610120828403121561453c5761453b61438f565b5b614547610120614405565b9050600061455784828501614441565b600083015250602061456b84828501614441565b602083015250604061457f8482850161449f565b60408301525060606145938482850161449f565b60608301525060806145a78482850161449f565b60808301525060a06145bb848285016144d7565b60a08301525060c06145cf8482850161449f565b60c08301525060e06145e384828501614510565b60e0830152506101006145f88482850161449f565b6101008301525092915050565b60008060008060006101a08688031215614622576146216142b2565b5b6000614630888289016142d8565b95505060206146418882890161430e565b945050604061465288828901614344565b93505060606146638882890161437a565b925050608061467488828901614525565b9150509295509295909350565b61468a81614420565b82525050565b60006020820190506146a56000830184614681565b92915050565b6146b481614476565b82525050565b60006020820190506146cf60008301846146ab565b92915050565b6000815190506146e48161442a565b92915050565b600060208284031215614700576146ff6142b2565b5b600061470e848285016146d5565b91505092915050565b60008151905061472681614488565b92915050565b600060208284031215614742576147416142b2565b5b600061475084828501614717565b91505092915050565b61476281614420565b82525050565b600060608201905061477d60008301866146ab565b61478a60208301856146ab565b6147976040830184614759565b949350505050565b60006040820190506147b460008301856146ab565b6147c16020830184614759565b9392505050565b6147d1816144b4565b82525050565b60006080820190506147ec6000830187614759565b6147f96020830186614759565b61480660408301856146ab565b61481360608301846147c8565b95945050505050565b600064ffffffffff82169050919050565b6148368161481c565b811461484157600080fd5b50565b6000815190506148538161482d565b92915050565b60008060008060808587031215614873576148726142b2565b5b6000614881878288016146d5565b9450506020614892878288016146d5565b93505060406148a3878288016146d5565b92505060606148b487828801614844565b91505092959194509250565b7f4e487b7100000000000000000000000000000000000000000000000000000000600052601160045260246000fd5b60006148fa82614420565b915061490583614420565b9250827fffffffffffffffffffffffffffffffffffffffffffffffffffffffffffffffff0382111561493a576149396148c0565b5b828201905092915050565b600061495082614420565b915061495b83614420565b9250817fffffffffffffffffffffffffffffffffffffffffffffffffffffffffffffffff0483118215151615614994576149936148c0565b5b828202905092915050565b7f4e487b7100000000000000000000000000000000000000000000000000000000600052601260045260246000fd5b600081519050919050565b600082825260208201905092915050565b60005b83811015614a085780820151818401526020810190506149ed565b83811115614a17576000848401525b50505050565b6000614a28826149ce565b614a3281856149d9565b9350614a428185602086016149ea565b614a4b81614394565b840191505092915050565b60006020820190508181036000830152614a708184614a1d565b905092915050565b600081519050614a87816144c0565b92915050565b600060208284031215614aa357614aa26142b2565b5b6000614ab184828501614a78565b91505092915050565b6000614ac582614420565b9150614ad083614420565b925082614ae057614adf61499f565b5b828204905092915050565b6000614af682614420565b9150614b0183614420565b925082821015614b1457614b136148c0565b5b828203905092915050565b6000606082019050614b3460008301866146ab565b614b416020830185614759565b614b4e6040830184614759565b949350505050565b60008060408385031215614b6d57614b6c6142b2565b5b6000614b7b858286016146d5565b9250506020614b8c858286016146d5565b9150509250929050565b614b9f81614420565b82525050565b614bae81614476565b82525050565b61012082016000820151614bcb6000850182614b96565b506020820151614bde6020850182614b96565b506040820151614bf16040850182614b96565b506060820151614c046060850182614b96565b506080820151614c176080850182614b96565b5060a0820151614c2a60a0850182614b96565b5060c0820151614c3d60c0850182614b96565b5060e0820151614c5060e0850182614ba5565b50610100820151614c65610100850182614ba5565b50505050565b600061012082019050614c816000830184614bb4565b92915050565b600080600060608486031215614ca057614c9f6142b2565b5b6000614cae868287016146d5565b9350506020614cbf868287016146d5565b9250506040614cd0868287016146d5565b9150509250925092565b600060a082019050614cef6000830188614759565b614cfc6020830187614759565b614d096040830186614759565b614d166060830185614759565b614d236080830184614759565b9695505050505050565b60008160011c9050919050565b6000808291508390505b6001851115614d8457808604811115614d6057614d5f6148c0565b5b6001851615614d6f5780820291505b8081029050614d7d85614d2d565b9450614d44565b94509492505050565b600082614d9d5760019050614e59565b81614dab5760009050614e59565b8160018114614dc15760028114614dcb57614dfa565b6001915050614e59565b60ff841115614ddd57614ddc6148c0565b5b8360020a915084821115614df457614df36148c0565b5b50614e59565b5060208310610133831016604e8410600b8410161715614e2f5782820a905083811115614e2a57614e296148c0565b5b614e59565b614e3c8484846001614d3a565b92509050818404811115614e5357614e526148c0565b5b81810290505b9392505050565b6000614e6b82614420565b9150614e7683614420565b9250614ea37fffffffffffffffffffffffffffffffffffffffffffffffffffffffffffffffff8484614d8d565b905092915050565b6000819050919050565b6000819050919050565b6000614eda614ed5614ed084614eab565b614eb5565b614420565b9050919050565b614eea81614ebf565b82525050565b6000602082019050614f056000830184614ee1565b92915050565b60006fffffffffffffffffffffffffffffffff82169050919050565b6000614f3282614f0b565b9150614f3d83614f0b565b925082821015614f5057614f4f6148c0565b5b828203905092915050565b6000602082019050614f706000830184614759565b92915050565b6000608082019050614f8b60008301876146ab565b614f9860208301866146ab565b614fa56040830185614759565b614fb26060830184614759565b95945050505050565b7f475076323a206661696c6564207472616e7366657246726f6d00000000000000600082015250565b6000614ff16019836149d9565b9150614ffc82614fbb565b602082019050919050565b6000602082019050818103600083015261502081614fe4565b9050919050565b600061503282614f0b565b915061503d83614f0b565b9250826fffffffffffffffffffffffffffffffff03821115615062576150616148c0565b5b828201905092915050565b7f53616665436173743a2076616c756520646f65736e27742066697420696e203160008201527f3238206269747300000000000000000000000000000000000000000000000000602082015250565b60006150c96027836149d9565b91506150d48261506d565b604082019050919050565b600060208201905081810360008301526150f8816150bc565b905091905056fea2646970667358221220e003c85dd4942d457883dd9faca67b242fa4532ec3c1ed7ba0d2fc7c01e8992064736f6c634300080a0033","linkReferences":{}},"methodIdentifiers":{"CLOSE_FACTOR_HF_THRESHOLD()":"a18964a5","MAX_LIQUIDATION_CLOSE_FACTOR()":"d2467544","executeLiquidationCall(mapping(address => DataTypes.ReserveData) storage,mapping(uint256 => address) storage,mapping(address => DataTypes.UserConfigurationMap) storage,mapping(uint8 => DataTypes.EModeCategory) storage,DataTypes.ExecuteLiquidationCallParams)":"83c1087d"},"id":31}