{"abi":[{"type":"function","name":"DEBT_CEILING_DECIMALS","inputs":[],"outputs":[{"name":"","type":"uint256","internalType":"uint256"}],"stateMutability":"view"},{"type":"function","name":"MAX_RESERVES_COUNT","inputs":[],"outputs":[{"name":"","type":"uint16","internalType":"uint16"}],"stateMutability":"view"}],"bytecode":{"object":"0x61011a610053600b82828239805160001a607314610046577f4e487b7100000000000000000000000000000000000000000000000000000000600052600060045260246000fd5b30600052607381538281f3fe7300000000000000000000000000000000000000003014608060405260043610603d5760003560e01c8063280d5de914604257806331b561ba14605c575b600080fd5b60486076565b604051605391906097565b60405180910390f35b6062607b565b604051606d919060cb565b60405180910390f35b600281565b608081565b6000819050919050565b6091816080565b82525050565b600060208201905060aa6000830184608a565b92915050565b600061ffff82169050919050565b60c58160b0565b82525050565b600060208201905060de600083018460be565b9291505056fea264697066735822122021d5641c4ff954e09b02d86a6cb0b2edd8c6222c972ea3818a8dd0b5703d445064736f6c634300080a0033","linkReferences":{}},"methodIdentifiers":{"DEBT_CEILING_DECIMALS()":"280d5de9","MAX_RESERVES_COUNT()":"31b561ba"},"id":21}