{"abi":[{"type":"constructor","inputs":[{"name":"owner_","type":"address","internalType":"address"}],"stateMutability":"nonpayable"},{"type":"function","name":"approveAndDeposit","inputs":[{"name":"staking","type":"address","internalType":"address"},{"name":"token","type":"address","internalType":"address"},{"name":"amount","type":"uint256","internalType":"uint256"}],"outputs":[],"stateMutability":"nonpayable"},{"type":"function","name":"owner","inputs":[],"outputs":[{"name":"","type":"address","internalType":"address"}],"stateMutability":"view"}],"bytecode":{"object":"0x60a034606b57601f6103db38819003918201601f19168301916001600160401b03831184841017606f57808492602094604052833981010312606b57516001600160a01b0381168103606b57608052604051610357908161008482396080518181816049015260c00152f35b5f80fd5b634e487b7160e01b5f52604160045260245ffdfe6080806040526004361015610012575f80fd5b5f905f3560e01c9081637500856b1461007b5750638da5cb5b14610034575f80fd5b346100785780600319360112610078576040517f00000000000000000000000000000000000000000000000000000000000000006001600160a01b03168152602090f35b80fd5b9050346101b95760603660031901126101b9576004356001600160a01b03811691908290036101b9576024356001600160a01b03811691908281036101b957604435917f00000000000000000000000000000000000000000000000000000000000000006001600160a01b0316330361022a575061012360405163095ea7b360e01b60208201528560248201525f60448201526044815261011d606482610259565b8261028f565b156101f35760405163095ea7b360e01b6020820152602481018590526044808201849052815261015d91610158606483610259565b61028f565b156101bd57823b156101b95760645f92836040519586948593633d14d1b760e21b8552600485015260248401528160448401525af180156101ae576101a0575080f35b6101ac91505f90610259565b005b6040513d5f823e3d90fd5b5f80fd5b60405162461bcd60e51b815260206004820152600e60248201526d185c1c1c9bdd994819985a5b195960921b6044820152606490fd5b60405162461bcd60e51b815260206004820152600f60248201526e185c1c1c9bdd994c0819985a5b1959608a1b6044820152606490fd5b62461bcd60e51b815260206004820152600a60248201526937b7363c9037bbb732b960b11b6044820152606490fd5b90601f8019910116810190811067ffffffffffffffff82111761027b57604052565b634e487b7160e01b5f52604160045260245ffd5b5f91829182602083519301915af13d15610319573d9067ffffffffffffffff821161027b57604051916102cc601f8201601f191660200184610259565b82523d5f602084013e5b15610314578051801561030d57602081106103075781602091810103126101b9576020015180151581036101b95790565b50505f90565b5050600190565b505f90565b6060906102d656fea2646970667358221220624e171b04b9d7cffe307b49493d59035bd511e702f6badf67c0c9f2e7171b0e64736f6c634300081e0033","linkReferences":{}},"methodIdentifiers":{"approveAndDeposit(address,address,uint256)":"7500856b","owner()":"8da5cb5b"},"id":0}