{"abi":[{"type":"function","name":"provide","inputs":[{"name":"staking","type":"address","internalType":"address"},{"name":"token","type":"address","internalType":"address"},{"name":"amount","type":"uint256","internalType":"uint256"}],"outputs":[],"stateMutability":"nonpayable"}],"bytecode":{"object":"0x608080604052346015576101d4908161001a8239f35b5f80fdfe6080806040526004361015610012575f80fd5b5f905f3560e01c63f9ac021714610027575f80fd5b346100f35760603660031901126100f3576004356001600160a01b03811691908290036100f3576024356001600160a01b03811691908290036100f3576044359063095ea7b360e01b81528360048201528160248201526020816044815f875af19081156100e8575f9161012d575b50156100f757823b156100f35760645f92836040519586948593633d14d1b760e21b8552600485015260248401528160448401525af180156100e8576100da575080f35b6100e691505f90610168565b005b6040513d5f823e3d90fd5b5f80fd5b60405162461bcd60e51b815260206004820152600e60248201526d185c1c1c9bdd994819985a5b195960921b6044820152606490fd5b90506020813d602011610160575b8161014860209383610168565b810103126100f3575180151581036100f3575f610096565b3d915061013b565b90601f8019910116810190811067ffffffffffffffff82111761018a57604052565b634e487b7160e01b5f52604160045260245ffdfea2646970667358221220ae8fd60d549f61ab8dbafef3173a44f51e987a24daf648d21b19a1e263ebf94364736f6c634300081e0033","linkReferences":{}},"methodIdentifiers":{"provide(address,address,uint256)":"f9ac0217"},"id":0}