{"abi":[{"type":"function","name":"probe","inputs":[{"name":"token","type":"address","internalType":"address"},{"name":"from","type":"address","internalType":"address"},{"name":"to","type":"address","internalType":"address"},{"name":"amount","type":"uint256","internalType":"uint256"}],"outputs":[{"name":"ok","type":"bool","internalType":"bool"},{"name":"returnedBool","type":"bool","internalType":"bool"}],"stateMutability":"nonpayable"}],"bytecode":{"object":"0x608080604052346015576101dd908161001a8239f35b5f80fdfe60806040526004361015610011575f80fd5b5f3560e01c635a7b826814610024575f80fd5b3461008f57608036600319011261008f576004356001600160a01b038116810361008f576024356001600160a01b038116810361008f57604435916001600160a01b038316830361008f5760409261007f92606435926100c9565b8251911515825215156020820152f35b5f80fd5b90601f8019910116810190811067ffffffffffffffff8211176100b557604052565b634e487b7160e01b5f52604160045260245ffd5b6040516323b872dd60e01b602082019081526001600160a01b0393841660248301529390921660448301526064808301949094529281525f92839290918390610113608482610093565b51925af13d1561019f573d9067ffffffffffffffff82116100b55760405191610146601f8201601f191660200184610093565b82523d5f602084013e5b15610198578051801561018e576020811061018557816020918101031261008f576020015190811515820361008f5760019190565b50506001905f90565b5050600190600190565b505f905f90565b60609061015056fea2646970667358221220e7dd05cf4c513c7a5d35e85a1ae3527f65d0e19b944fd6556e8f331f18dcf6f564736f6c634300081e0033","linkReferences":{}},"methodIdentifiers":{"probe(address,address,address,uint256)":"5a7b8268"},"id":0}