{"abi":[{"type":"constructor","inputs":[],"stateMutability":"nonpayable"},{"type":"function","name":"TARGET","inputs":[],"outputs":[{"name":"","type":"address","internalType":"address"}],"stateMutability":"view"},{"type":"function","name":"deployLootWallet","inputs":[],"outputs":[{"name":"deployed","type":"address","internalType":"address"}],"stateMutability":"nonpayable"},{"type":"function","name":"executeOnOpportunity","inputs":[],"outputs":[],"stateMutability":"nonpayable"},{"type":"function","name":"exploitedFrom","inputs":[],"outputs":[{"name":"","type":"address","internalType":"address"}],"stateMutability":"view"},{"type":"function","name":"exploitedTokenId","inputs":[],"outputs":[{"name":"","type":"uint256","internalType":"uint256"}],"stateMutability":"view"},{"type":"function","name":"hypothesisRefuted","inputs":[],"outputs":[{"name":"","type":"bool","internalType":"bool"}],"stateMutability":"view"},{"type":"function","name":"hypothesisValidated","inputs":[],"outputs":[{"name":"","type":"bool","internalType":"bool"}],"stateMutability":"view"},{"type":"function","name":"lootAddress","inputs":[],"outputs":[{"name":"","type":"address","internalType":"address"}],"stateMutability":"view"},{"type":"function","name":"profitAmount","inputs":[],"outputs":[{"name":"","type":"uint256","internalType":"uint256"}],"stateMutability":"view"},{"type":"function","name":"profitToken","inputs":[],"outputs":[{"name":"","type":"address","internalType":"address"}],"stateMutability":"view"},{"type":"function","name":"uniswapV2Call","inputs":[{"name":"sender","type":"address","internalType":"address"},{"name":"amount0","type":"uint256","internalType":"uint256"},{"name":"amount1","type":"uint256","internalType":"uint256"},{"name":"","type":"bytes","internalType":"bytes"}],"outputs":[],"stateMutability":"nonpayable"}],"bytecode":{"object":"0x60a060405234801561000f575f5ffd5b5061001e6100a960201b60201c565b73ffffffffffffffffffffffffffffffffffffffff1660808173ffffffffffffffffffffffffffffffffffffffff168152505073c02aaa39b223fe8d0a0e5c4f27ead9083c756cc25f5f6101000a81548173ffffffffffffffffffffffffffffffffffffffff021916908373ffffffffffffffffffffffffffffffffffffffff160217905550610274565b5f5f60ff60f81b307f3f1d3e6264fe54b0d7dee9b6c3ba2bfe004be13eb8645b676213e26c5ca43584604051806020016100e290610131565b6020820181038252601f19601f82011660405250805190602001206040516020016101109493929190610227565b604051602081830303815290604052805190602001209050805f1c91505090565b610a37806139b283390190565b5f7fff0000000000000000000000000000000000000000000000000000000000000082169050919050565b5f819050919050565b61018361017e8261013e565b610169565b82525050565b5f73ffffffffffffffffffffffffffffffffffffffff82169050919050565b5f6101b282610189565b9050919050565b5f8160601b9050919050565b5f6101cf826101b9565b9050919050565b5f6101e0826101c5565b9050919050565b6101f86101f3826101a8565b6101d6565b82525050565b5f819050919050565b5f819050919050565b61022161021c826101fe565b610207565b82525050565b5f6102328287610172565b60018201915061024282866101e7565b6014820191506102528285610210565b6020820191506102628284610210565b60208201915081905095945050505050565b60805161370a6102a85f395f81816101f001528181610983015281816109c001528181610a35015261121b015261370a5ff3fe608060405234801561000f575f5ffd5b50600436106100a7575f3560e01c8063493436241161006f578063493436241461012b578063495f92f1146101495780635ff972cc146101675780636c704a4614610185578063ba0ed2e4146101a3578063cc1f2afa146101c1576100a7565b8063010d9a29146100ab5780630e439326146100c957806310d1e85c146100e75780633c2448ed14610103578063463defd11461010d575b5f5ffd5b6100b36101df565b6040516100c0919061225b565b60405180910390f35b6100d16101ed565b6040516100de919061225b565b60405180910390f35b61010160048036038101906100fc9190612343565b610214565b005b61010b610756565b005b6101156108e8565b60405161012291906123e1565b60405180910390f35b6101336108fa565b604051610140919061225b565b60405180910390f35b610151610921565b60405161015e91906123e1565b60405180910390f35b61016f610934565b60405161017c9190612409565b60405180910390f35b61018d61093d565b60405161019a919061225b565b60405180910390f35b6101ab610961565b6040516101b89190612409565b60405180910390f35b6101c9610967565b6040516101d6919061225b565b60405180910390f35b5f6101e861097f565b905090565b5f7f0000000000000000000000000000000000000000000000000000000000000000905090565b60045f9054906101000a900473ffffffffffffffffffffffffffffffffffffffff1673ffffffffffffffffffffffffffffffffffffffff163373ffffffffffffffffffffffffffffffffffffffff16146102a3576040517f08c379a000000000000000000000000000000000000000000000000000000000815260040161029a9061247c565b60405180910390fd5b3073ffffffffffffffffffffffffffffffffffffffff168573ffffffffffffffffffffffffffffffffffffffff1614610311576040517f08c379a0000000000000000000000000000000000000000000000000000000008152600401610308906124e4565b60405180910390fd5b5f5f850361031f5783610321565b845b90506007548114610367576040517f08c379a000000000000000000000000000000000000000000000000000000000815260040161035e9061254c565b60405180910390fd5b5f73e77ec1bf3a5c95bfe3be7bdbacfe3ac1c7e454cd90505f8173ffffffffffffffffffffffffffffffffffffffff166370a0823160055f9054906101000a900473ffffffffffffffffffffffffffffffffffffffff166040518263ffffffff1660e01b81526004016103da919061225b565b602060405180830381865afa1580156103f5573d5f5f3e3d5ffd5b505050506040513d601f19601f82011682018060405250810190610419919061257e565b90505f8273ffffffffffffffffffffffffffffffffffffffff166323b872dd60055f9054906101000a900473ffffffffffffffffffffffffffffffffffffffff1660045f9054906101000a900473ffffffffffffffffffffffffffffffffffffffff166006546040518463ffffffff1660e01b815260040161049d939291906125a9565b6020604051808303815f875af11580156104b9573d5f5f3e3d5ffd5b505050506040513d601f19601f820116820180604052508101906104dd9190612608565b90508061051f576040517f08c379a00000000000000000000000000000000000000000000000000000000081526004016105169061267d565b60405180910390fd5b5f8373ffffffffffffffffffffffffffffffffffffffff16635afcc2f56040518163ffffffff1660e01b8152600401602060405180830381865afa158015610569573d5f5f3e3d5ffd5b505050506040513d601f19601f8201168201806040525081019061058d919061257e565b90505f8473ffffffffffffffffffffffffffffffffffffffff166370a0823160055f9054906101000a900473ffffffffffffffffffffffffffffffffffffffff166040518263ffffffff1660e01b81526004016105ea919061225b565b602060405180830381865afa158015610605573d5f5f3e3d5ffd5b505050506040513d601f19601f82011682018060405250810190610629919061257e565b905060028261063891906126c8565b841015801561065d57508360028361065091906126c8565b8261065b9190612709565b145b156106eb57600160025f6101000a81548160ff02191690831515021790555060055f9054906101000a900473ffffffffffffffffffffffffffffffffffffffff166002806101000a81548173ffffffffffffffffffffffffffffffffffffffff021916908373ffffffffffffffffffffffffffffffffffffffff160217905550600654600381905550610741565b6001600260016101000a81548160ff0219169083151502179055506040517f08c379a000000000000000000000000000000000000000000000000000000000815260040161073890612786565b60405180910390fd5b610749610ac5565b5050505050505050505050565b5f73e77ec1bf3a5c95bfe3be7bdbacfe3ac1c7e454cd90505f61078d73c02aaa39b223fe8d0a0e5c4f27ead9083c756cc230610b55565b90505f8273ffffffffffffffffffffffffffffffffffffffff16635afcc2f56040518163ffffffff1660e01b8152600401602060405180830381865afa1580156107d9573d5f5f3e3d5ffd5b505050506040513d601f19601f820116820180604052508101906107fd919061257e565b90505f61080984610c88565b90505f61081582610e1d565b905061081f610e64565b61082a858483610f42565b15610868578361084e73c02aaa39b223fe8d0a0e5c4f27ead9083c756cc230610b55565b61085891906127a4565b60018190555050505050506108e6565b6108738584836110af565b156108b1578361089773c02aaa39b223fe8d0a0e5c4f27ead9083c756cc230610b55565b6108a191906127a4565b60018190555050505050506108e6565b836108d073c02aaa39b223fe8d0a0e5c4f27ead9083c756cc230610b55565b6108da91906127a4565b60018190555050505050505b565b60025f9054906101000a900460ff1681565b5f5f5f9054906101000a900473ffffffffffffffffffffffffffffffffffffffff16905090565b600260019054906101000a900460ff1681565b5f600154905090565b60028054906101000a900473ffffffffffffffffffffffffffffffffffffffff1681565b60035481565b73e77ec1bf3a5c95bfe3be7bdbacfe3ac1c7e454cd81565b5f5f7f000000000000000000000000000000000000000000000000000000000000000073ffffffffffffffffffffffffffffffffffffffff163b146109e6577f00000000000000000000000000000000000000000000000000000000000000009050610ac2565b7f3f1d3e6264fe54b0d7dee9b6c3ba2bfe004be13eb8645b676213e26c5ca43584604051610a13906121ec565b8190604051809103905ff5905080158015610a30573d5f5f3e3d5ffd5b5090507f000000000000000000000000000000000000000000000000000000000000000073ffffffffffffffffffffffffffffffffffffffff168173ffffffffffffffffffffffffffffffffffffffff1614610ac1576040517f08c379a0000000000000000000000000000000000000000000000000000000008152600401610ab890612821565b60405180910390fd5b5b90565b5f60045f6101000a81548173ffffffffffffffffffffffffffffffffffffffff021916908373ffffffffffffffffffffffffffffffffffffffff1602179055505f60055f6101000a81548173ffffffffffffffffffffffffffffffffffffffff021916908373ffffffffffffffffffffffffffffffffffffffff1602179055505f6006819055505f600781905550565b5f5f5f8473ffffffffffffffffffffffffffffffffffffffff1684604051602401610b80919061225b565b6040516020818303038152906040527f70a08231000000000000000000000000000000000000000000000000000000007bffffffffffffffffffffffffffffffffffffffffffffffffffffffff19166020820180517bffffffffffffffffffffffffffffffffffffffffffffffffffffffff8381831617835250505050604051610c0a9190612891565b5f60405180830381855afa9150503d805f8114610c42576040519150601f19603f3d011682016040523d82523d5f602084013e610c47565b606091505b5091509150811580610c5a575060208151105b15610c69575f92505050610c82565b80806020019051810190610c7d919061257e565b925050505b92915050565b5f5f8273ffffffffffffffffffffffffffffffffffffffff16635afcc2f56040518163ffffffff1660e01b8152600401602060405180830381865afa158015610cd3573d5f5f3e3d5ffd5b505050506040513d601f19601f82011682018060405250810190610cf7919061257e565b90505f8103610d0a576001915050610e18565b5f6001828573ffffffffffffffffffffffffffffffffffffffff166318160ddd6040518163ffffffff1660e01b8152600401602060405180830381865afa158015610d57573d5f5f3e3d5ffd5b505050506040513d601f19601f82011682018060405250810190610d7b919061257e565b610d8591906128d4565b610d8f9190612709565b90505f600190505f8290505b80600183610da99190612709565b1015610dee575f60018383610dbe91906127a4565b901c83610dcb9190612709565b9050610dd787826113d0565b15610de457809250610de8565b8091505b50610d9b565b610df886836113d0565b610e03576001610e11565b600182610e109190612709565b5b9450505050505b919050565b5f60018211610e2f5760019050610e5f565b6001610800610e3e9190612709565b821115610e5b576001610800610e549190612709565b9050610e5f565b8190505b919050565b73c02aaa39b223fe8d0a0e5c4f27ead9083c756cc25f5f6101000a81548173ffffffffffffffffffffffffffffffffffffffff021916908373ffffffffffffffffffffffffffffffffffffffff1602179055505f6001819055505f60025f6101000a81548160ff0219169083151502179055505f600260016101000a81548160ff0219169083151502179055505f6002806101000a81548173ffffffffffffffffffffffffffffffffffffffff021916908373ffffffffffffffffffffffffffffffffffffffff1602179055505f600381905550610f40610ac5565b565b5f5f610f4d8561146e565b90505f5f90505b60088110156110a2575f828260088110610f7157610f70612904565b5b602002015190505f73ffffffffffffffffffffffffffffffffffffffff168173ffffffffffffffffffffffffffffffffffffffff1603610fb15750611097565b610fbb878261183b565b610fc55750611097565b600286610fd291906126c8565b8773ffffffffffffffffffffffffffffffffffffffff166370a08231836040518263ffffffff1660e01b815260040161100b919061225b565b602060405180830381865afa158015611026573d5f5f3e3d5ffd5b505050506040513d601f19601f8201168201806040525081019061104a919061257e565b10156110565750611097565b5f5f6110638984896118fb565b915091508161107457505050611097565b6110808984838b6119fd565b15611093576001955050505050506110a8565b5050505b806001019050610f54565b505f9150505b9392505050565b5f5f6110ba8561146e565b90505f600190505b838110156113c3575f8673ffffffffffffffffffffffffffffffffffffffff1663081812fc836040518263ffffffff1660e01b81526004016111049190612409565b602060405180830381865afa92505050801561113e57506040513d601f19601f8201168201806040525081019061113b9190612945565b60015b61114857506113b8565b809150503073ffffffffffffffffffffffffffffffffffffffff168173ffffffffffffffffffffffffffffffffffffffff161461118557506113b8565b5f5f90505b60088110156113b5575f8482600881106111a7576111a6612904565b5b602002015190505f73ffffffffffffffffffffffffffffffffffffffff168173ffffffffffffffffffffffffffffffffffffffff16148061121357503073ffffffffffffffffffffffffffffffffffffffff168173ffffffffffffffffffffffffffffffffffffffff16145b8061126957507f000000000000000000000000000000000000000000000000000000000000000073ffffffffffffffffffffffffffffffffffffffff168173ffffffffffffffffffffffffffffffffffffffff16145b1561127457506113aa565b8873ffffffffffffffffffffffffffffffffffffffff1663c5b8f77282866040518363ffffffff1660e01b81526004016112af929190612970565b602060405180830381865afa1580156112ca573d5f5f3e3d5ffd5b505050506040513d601f19601f820116820180604052508101906112ee9190612608565b6112f857506113aa565b60028861130591906126c8565b8973ffffffffffffffffffffffffffffffffffffffff166370a08231836040518263ffffffff1660e01b815260040161133e919061225b565b602060405180830381865afa158015611359573d5f5f3e3d5ffd5b505050506040513d601f19601f8201168201806040525081019061137d919061257e565b101561138957506113aa565b6113958982868b6119fd565b156113a8576001955050505050506113c9565b505b80600101905061118a565b50505b8060010190506110c2565b505f9150505b9392505050565b5f5f82036113e0575f9050611468565b8273ffffffffffffffffffffffffffffffffffffffff1663c87b56dd836040518263ffffffff1660e01b81526004016114199190612409565b5f60405180830381865afa92505050801561145657506040513d5f823e3d601f19601f820116820180604052508101906114539190612ac1565b60015b611462575f9050611468565b60019150505b92915050565b6114766121f9565b33815f6008811061148a57611489612904565b5b602002019073ffffffffffffffffffffffffffffffffffffffff16908173ffffffffffffffffffffffffffffffffffffffff168152505032816001600881106114d6576114d5612904565b5b602002019073ffffffffffffffffffffffffffffffffffffffff16908173ffffffffffffffffffffffffffffffffffffffff16815250508173ffffffffffffffffffffffffffffffffffffffff16638da5cb5b6040518163ffffffff1660e01b8152600401602060405180830381865afa158015611556573d5f5f3e3d5ffd5b505050506040513d601f19601f8201168201806040525081019061157a9190612945565b8160026008811061158e5761158d612904565b5b602002019073ffffffffffffffffffffffffffffffffffffffff16908173ffffffffffffffffffffffffffffffffffffffff16815250506115f7735c69bee701ef814a2b6a3edd4b1652cb9cc5aa6f73c02aaa39b223fe8d0a0e5c4f27ead9083c756cc2611bab565b8160036008811061160b5761160a612904565b5b602002019073ffffffffffffffffffffffffffffffffffffffff16908173ffffffffffffffffffffffffffffffffffffffff168152505061167473c0aee478e3658e2610c5f7a4a2e1777ce9e4f2ac73c02aaa39b223fe8d0a0e5c4f27ead9083c756cc2611bab565b8160046008811061168857611687612904565b5b602002019073ffffffffffffffffffffffffffffffffffffffff16908173ffffffffffffffffffffffffffffffffffffffff16815250506116f1735c69bee701ef814a2b6a3edd4b1652cb9cc5aa6f73a0b86991c6218b36c1d19d4a2e9eb0ce3606eb48611bab565b8160056008811061170557611704612904565b5b602002019073ffffffffffffffffffffffffffffffffffffffff16908173ffffffffffffffffffffffffffffffffffffffff168152505061176e735c69bee701ef814a2b6a3edd4b1652cb9cc5aa6f73dac17f958d2ee523a2206206994597c13d831ec7611bab565b8160066008811061178257611781612904565b5b602002019073ffffffffffffffffffffffffffffffffffffffff16908173ffffffffffffffffffffffffffffffffffffffff16815250506117eb735c69bee701ef814a2b6a3edd4b1652cb9cc5aa6f736b175474e89094c44da98b954eedeac495271d0f611bab565b816007600881106117ff576117fe612904565b5b602002019073ffffffffffffffffffffffffffffffffffffffff16908173ffffffffffffffffffffffffffffffffffffffff1681525050919050565b5f3073ffffffffffffffffffffffffffffffffffffffff168273ffffffffffffffffffffffffffffffffffffffff160361187857600190506118f5565b8273ffffffffffffffffffffffffffffffffffffffff1663e985e9c583306040518363ffffffff1660e01b81526004016118b3929190612b08565b602060405180830381865afa1580156118ce573d5f5f3e3d5ffd5b505050506040513d601f19601f820116820180604052508101906118f29190612608565b90505b92915050565b5f5f5f73ffffffffffffffffffffffffffffffffffffffff168473ffffffffffffffffffffffffffffffffffffffff161480611938575060018311155b15611948575f5f915091506119f5565b5f600190505b838110156119ed578573ffffffffffffffffffffffffffffffffffffffff1663c5b8f77286836040518363ffffffff1660e01b8152600401611991929190612970565b602060405180830381865afa1580156119ac573d5f5f3e3d5ffd5b505050506040513d601f19601f820116820180604052508101906119d09190612608565b156119e25760018192509250506119f5565b80600101905061194e565b505f5f915091505b935093915050565b5f5f5f5f611a16600286611a1191906126c8565b611c72565b9250925092505f73ffffffffffffffffffffffffffffffffffffffff168373ffffffffffffffffffffffffffffffffffffffff161480611a5c575066038d7ea4c6800081105b15611a6c575f9350505050611ba3565b8260045f6101000a81548173ffffffffffffffffffffffffffffffffffffffff021916908373ffffffffffffffffffffffffffffffffffffffff1602179055508660055f6101000a81548173ffffffffffffffffffffffffffffffffffffffff021916908373ffffffffffffffffffffffffffffffffffffffff16021790555085600681905550806007819055508273ffffffffffffffffffffffffffffffffffffffff1663022c0d9f83611b215782611b23565b5f5b84611b2e575f611b30565b835b306040518463ffffffff1660e01b8152600401611b4f93929190612b89565b5f604051808303815f87803b158015611b66575f5ffd5b505af1925050508015611b77575060015b611b8e57611b83610ac5565b5f9350505050611ba3565b60025f9054906101000a900460ff1693505050505b949350505050565b5f5f8373ffffffffffffffffffffffffffffffffffffffff163b03611bd2575f9050611c6c565b8273ffffffffffffffffffffffffffffffffffffffff1663e6a4390573e77ec1bf3a5c95bfe3be7bdbacfe3ac1c7e454cd846040518363ffffffff1660e01b8152600401611c21929190612b08565b602060405180830381865afa925050508015611c5b57506040513d601f19601f82011682018060405250810190611c589190612945565b60015b611c67575f9050611c6c565b809150505b92915050565b5f5f5f5f5f5f611cb3611cad735c69bee701ef814a2b6a3edd4b1652cb9cc5aa6f73c02aaa39b223fe8d0a0e5c4f27ead9083c756cc2611bab565b88611d2f565b9250925092505f5f5f611cf7611cf173c0aee478e3658e2610c5f7a4a2e1777ce9e4f2ac73c02aaa39b223fe8d0a0e5c4f27ead9083c756cc2611bab565b8b611d2f565b925092509250808410611d1857858585985098509850505050505050611d28565b8282829850985098505050505050505b9193909250565b5f5f5f5f73ffffffffffffffffffffffffffffffffffffffff168573ffffffffffffffffffffffffffffffffffffffff161480611d8257505f8573ffffffffffffffffffffffffffffffffffffffff163b145b15611d95575f5f5f925092509250612175565b8473ffffffffffffffffffffffffffffffffffffffff16630dfe16816040518163ffffffff1660e01b8152600401602060405180830381865afa925050508015611dfd57506040513d601f19601f82011682018060405250810190611dfa9190612945565b60015b611e0f575f5f5f925092509250612175565b8573ffffffffffffffffffffffffffffffffffffffff1663d21220a76040518163ffffffff1660e01b8152600401602060405180830381865afa925050508015611e7757506040513d601f19601f82011682018060405250810190611e749190612945565b60015b611e8a575f5f5f93509350935050612175565b73e77ec1bf3a5c95bfe3be7bdbacfe3ac1c7e454cd73ffffffffffffffffffffffffffffffffffffffff168273ffffffffffffffffffffffffffffffffffffffff16148015611f18575073c02aaa39b223fe8d0a0e5c4f27ead9083c756cc273ffffffffffffffffffffffffffffffffffffffff168173ffffffffffffffffffffffffffffffffffffffff16145b80611fad575073c02aaa39b223fe8d0a0e5c4f27ead9083c756cc273ffffffffffffffffffffffffffffffffffffffff168273ffffffffffffffffffffffffffffffffffffffff16148015611fac575073e77ec1bf3a5c95bfe3be7bdbacfe3ac1c7e454cd73ffffffffffffffffffffffffffffffffffffffff168173ffffffffffffffffffffffffffffffffffffffff16145b5b611fc1575f5f5f9450945094505050612175565b5f5f8873ffffffffffffffffffffffffffffffffffffffff16630902f1ac6040518163ffffffff1660e01b8152600401606060405180830381865afa15801561200c573d5f5f3e3d5ffd5b505050506040513d601f19601f820116820180604052508101906120309190612c4d565b50915091505f826dffffffffffffffffffffffffffff16148061206257505f816dffffffffffffffffffffffffffff16145b15612079575f5f5f96509650965050505050612175565b5f73e77ec1bf3a5c95bfe3be7bdbacfe3ac1c7e454cd73ffffffffffffffffffffffffffffffffffffffff168573ffffffffffffffffffffffffffffffffffffffff161490505f816120db57826dffffffffffffffffffffffffffff166120ed565b836dffffffffffffffffffffffffffff165b90505f8261210b57846dffffffffffffffffffffffffffff1661211d565b836dffffffffffffffffffffffffffff165b90505f61212b8c848461217c565b90506001811161214b578c845f9a509a509a505050505050505050612175565b8c84606460638461215c91906126c8565b61216691906128d4565b9a509a509a5050505050505050505b9250925092565b5f5f84148061218a57505f83145b8061219457505f82145b156121a1575f90506121e5565b5f6103e5856121b091906126c8565b9050806103e8856121c191906126c8565b6121cb9190612709565b83826121d791906126c8565b6121e191906128d4565b9150505b9392505050565b610a3780612c9e83390190565b604051806101000160405280600890602082028036833780820191505090505090565b5f73ffffffffffffffffffffffffffffffffffffffff82169050919050565b5f6122458261221c565b9050919050565b6122558161223b565b82525050565b5f60208201905061226e5f83018461224c565b92915050565b5f604051905090565b5f5ffd5b5f5ffd5b61228e8161223b565b8114612298575f5ffd5b50565b5f813590506122a981612285565b92915050565b5f819050919050565b6122c1816122af565b81146122cb575f5ffd5b50565b5f813590506122dc816122b8565b92915050565b5f5ffd5b5f5ffd5b5f5ffd5b5f5f83601f840112612303576123026122e2565b5b8235905067ffffffffffffffff8111156123205761231f6122e6565b5b60208301915083600182028301111561233c5761233b6122ea565b5b9250929050565b5f5f5f5f5f6080868803121561235c5761235b61227d565b5b5f6123698882890161229b565b955050602061237a888289016122ce565b945050604061238b888289016122ce565b935050606086013567ffffffffffffffff8111156123ac576123ab612281565b5b6123b8888289016122ee565b92509250509295509295909350565b5f8115159050919050565b6123db816123c7565b82525050565b5f6020820190506123f45f8301846123d2565b92915050565b612403816122af565b82525050565b5f60208201905061241c5f8301846123fa565b92915050565b5f82825260208201905092915050565b7f756e6578706563746564207061697200000000000000000000000000000000005f82015250565b5f612466600f83612422565b915061247182612432565b602082019050919050565b5f6020820190508181035f8301526124938161245a565b9050919050565b7f756e65787065637465642073656e6465720000000000000000000000000000005f82015250565b5f6124ce601183612422565b91506124d98261249a565b602082019050919050565b5f6020820190508181035f8301526124fb816124c2565b9050919050565b7f756e6578706563746564206f75747075740000000000000000000000000000005f82015250565b5f612536601183612422565b915061254182612502565b602082019050919050565b5f6020820190508181035f8301526125638161252a565b9050919050565b5f81519050612578816122b8565b92915050565b5f602082840312156125935761259261227d565b5b5f6125a08482850161256a565b91505092915050565b5f6060820190506125bc5f83018661224c565b6125c9602083018561224c565b6125d660408301846123fa565b949350505050565b6125e7816123c7565b81146125f1575f5ffd5b50565b5f81519050612602816125de565b92915050565b5f6020828403121561261d5761261c61227d565b5b5f61262a848285016125f4565b91505092915050565b7f7472616e7366657246726f6d206661696c6564000000000000000000000000005f82015250565b5f612667601383612422565b915061267282612633565b602082019050919050565b5f6020820190508181035f8301526126948161265b565b9050919050565b7f4e487b71000000000000000000000000000000000000000000000000000000005f52601160045260245ffd5b5f6126d2826122af565b91506126dd836122af565b92508282026126eb816122af565b915082820484148315176127025761270161269b565b5b5092915050565b5f612713826122af565b915061271e836122af565b92508282019050808211156127365761273561269b565b5b92915050565b7f756e6578706563746564206163636f756e74696e6700000000000000000000005f82015250565b5f612770601583612422565b915061277b8261273c565b602082019050919050565b5f6020820190508181035f83015261279d81612764565b9050919050565b5f6127ae826122af565b91506127b9836122af565b92508282039050818111156127d1576127d061269b565b5b92915050565b7f6c6f6f74206d69736d61746368000000000000000000000000000000000000005f82015250565b5f61280b600d83612422565b9150612816826127d7565b602082019050919050565b5f6020820190508181035f830152612838816127ff565b9050919050565b5f81519050919050565b5f81905092915050565b8281835e5f83830152505050565b5f61286b8261283f565b6128758185612849565b9350612885818560208601612853565b80840191505092915050565b5f61289c8284612861565b915081905092915050565b7f4e487b71000000000000000000000000000000000000000000000000000000005f52601260045260245ffd5b5f6128de826122af565b91506128e9836122af565b9250826128f9576128f86128a7565b5b828204905092915050565b7f4e487b71000000000000000000000000000000000000000000000000000000005f52603260045260245ffd5b5f8151905061293f81612285565b92915050565b5f6020828403121561295a5761295961227d565b5b5f61296784828501612931565b91505092915050565b5f6040820190506129835f83018561224c565b61299060208301846123fa565b9392505050565b5f5ffd5b5f601f19601f8301169050919050565b7f4e487b71000000000000000000000000000000000000000000000000000000005f52604160045260245ffd5b6129e18261299b565b810181811067ffffffffffffffff82111715612a00576129ff6129ab565b5b80604052505050565b5f612a12612274565b9050612a1e82826129d8565b919050565b5f67ffffffffffffffff821115612a3d57612a3c6129ab565b5b612a468261299b565b9050602081019050919050565b5f612a65612a6084612a23565b612a09565b905082815260208101848484011115612a8157612a80612997565b5b612a8c848285612853565b509392505050565b5f82601f830112612aa857612aa76122e2565b5b8151612ab8848260208601612a53565b91505092915050565b5f60208284031215612ad657612ad561227d565b5b5f82015167ffffffffffffffff811115612af357612af2612281565b5b612aff84828501612a94565b91505092915050565b5f604082019050612b1b5f83018561224c565b612b28602083018461224c565b9392505050565b5f82825260208201905092915050565b7f01000000000000000000000000000000000000000000000000000000000000005f82015250565b5f612b73600183612b2f565b9150612b7e82612b3f565b602082019050919050565b5f608082019050612b9c5f8301866123fa565b612ba960208301856123fa565b612bb6604083018461224c565b8181036060830152612bc781612b67565b9050949350505050565b5f6dffffffffffffffffffffffffffff82169050919050565b612bf381612bd1565b8114612bfd575f5ffd5b50565b5f81519050612c0e81612bea565b92915050565b5f63ffffffff82169050919050565b612c2c81612c14565b8114612c36575f5ffd5b50565b5f81519050612c4781612c23565b92915050565b5f5f5f60608486031215612c6457612c6361227d565b5b5f612c7186828701612c00565b9350506020612c8286828701612c00565b9250506040612c9386828701612c39565b915050925092509256fe6080604052348015600e575f5ffd5b50610a1b8061001c5f395ff3fe608060405234801561000f575f5ffd5b5060043610610029575f3560e01c8063b8dc491b1461002d575b5f5ffd5b610047600480360381019061004291906105ca565b610049565b005b5f8290505f6100578261022a565b90505f5f90505b6008811015610122575f5f6100748530866103bf565b9150915081610084575050610122565b8473ffffffffffffffffffffffffffffffffffffffff166323b872dd3088846040518463ffffffff1660e01b81526004016100c19392919061062f565b6020604051808303815f875af19250505080156100fc57506040513d601f19601f820116820180604052508101906100f99190610699565b60015b610107575050610122565b8061011457505050610122565b50505080600101905061005e565b505f8273ffffffffffffffffffffffffffffffffffffffff166370a08231306040518263ffffffff1660e01b815260040161015d91906106c4565b602060405180830381865afa158015610178573d5f5f3e3d5ffd5b505050506040513d601f19601f8201168201806040525081019061019c9190610707565b90505f8114610223578273ffffffffffffffffffffffffffffffffffffffff1663a9059cbb85836040518363ffffffff1660e01b81526004016101e0929190610732565b6020604051808303815f875af192505050801561021b57506040513d601f19601f820116820180604052508101906102189190610699565b60015b1561022257505b5b5050505050565b5f5f8273ffffffffffffffffffffffffffffffffffffffff16635afcc2f56040518163ffffffff1660e01b8152600401602060405180830381865afa158015610275573d5f5f3e3d5ffd5b505050506040513d601f19601f820116820180604052508101906102999190610707565b90505f81036102ac5760019150506103ba565b5f6001828573ffffffffffffffffffffffffffffffffffffffff166318160ddd6040518163ffffffff1660e01b8152600401602060405180830381865afa1580156102f9573d5f5f3e3d5ffd5b505050506040513d601f19601f8201168201806040525081019061031d9190610707565b61032791906107b3565b61033191906107e3565b90505f600190505f8290505b8060018361034b91906107e3565b1015610390575f600183836103609190610816565b901c8361036d91906107e3565b905061037987826104c1565b156103865780925061038a565b8091505b5061033d565b61039a86836104c1565b6103a55760016103b3565b6001826103b291906107e3565b5b9450505050505b919050565b5f5f5f73ffffffffffffffffffffffffffffffffffffffff168473ffffffffffffffffffffffffffffffffffffffff1614806103fc575060018311155b1561040c575f5f915091506104b9565b5f600190505b838110156104b1578573ffffffffffffffffffffffffffffffffffffffff1663c5b8f77286836040518363ffffffff1660e01b8152600401610455929190610732565b602060405180830381865afa158015610470573d5f5f3e3d5ffd5b505050506040513d601f19601f820116820180604052508101906104949190610699565b156104a65760018192509250506104b9565b806001019050610412565b505f5f915091505b935093915050565b5f5f82036104d1575f9050610559565b8273ffffffffffffffffffffffffffffffffffffffff1663c87b56dd836040518263ffffffff1660e01b815260040161050a9190610849565b5f60405180830381865afa92505050801561054757506040513d5f823e3d601f19601f82011682018060405250810190610544919061099e565b60015b610553575f9050610559565b60019150505b92915050565b5f604051905090565b5f5ffd5b5f5ffd5b5f73ffffffffffffffffffffffffffffffffffffffff82169050919050565b5f61059982610570565b9050919050565b6105a98161058f565b81146105b3575f5ffd5b50565b5f813590506105c4816105a0565b92915050565b5f5f604083850312156105e0576105df610568565b5b5f6105ed858286016105b6565b92505060206105fe858286016105b6565b9150509250929050565b6106118161058f565b82525050565b5f819050919050565b61062981610617565b82525050565b5f6060820190506106425f830186610608565b61064f6020830185610608565b61065c6040830184610620565b949350505050565b5f8115159050919050565b61067881610664565b8114610682575f5ffd5b50565b5f815190506106938161066f565b92915050565b5f602082840312156106ae576106ad610568565b5b5f6106bb84828501610685565b91505092915050565b5f6020820190506106d75f830184610608565b92915050565b6106e681610617565b81146106f0575f5ffd5b50565b5f81519050610701816106dd565b92915050565b5f6020828403121561071c5761071b610568565b5b5f610729848285016106f3565b91505092915050565b5f6040820190506107455f830185610608565b6107526020830184610620565b9392505050565b7f4e487b71000000000000000000000000000000000000000000000000000000005f52601260045260245ffd5b7f4e487b71000000000000000000000000000000000000000000000000000000005f52601160045260245ffd5b5f6107bd82610617565b91506107c883610617565b9250826107d8576107d7610759565b5b828204905092915050565b5f6107ed82610617565b91506107f883610617565b92508282019050808211156108105761080f610786565b5b92915050565b5f61082082610617565b915061082b83610617565b925082820390508181111561084357610842610786565b5b92915050565b5f60208201905061085c5f830184610620565b92915050565b5f5ffd5b5f5ffd5b5f601f19601f8301169050919050565b7f4e487b71000000000000000000000000000000000000000000000000000000005f52604160045260245ffd5b6108b08261086a565b810181811067ffffffffffffffff821117156108cf576108ce61087a565b5b80604052505050565b5f6108e161055f565b90506108ed82826108a7565b919050565b5f67ffffffffffffffff82111561090c5761090b61087a565b5b6109158261086a565b9050602081019050919050565b8281835e5f83830152505050565b5f61094261093d846108f2565b6108d8565b90508281526020810184848401111561095e5761095d610866565b5b610969848285610922565b509392505050565b5f82601f83011261098557610984610862565b5b8151610995848260208601610930565b91505092915050565b5f602082840312156109b3576109b2610568565b5b5f82015167ffffffffffffffff8111156109d0576109cf61056c565b5b6109dc84828501610971565b9150509291505056fea264697066735822122086b463e3ae24ecec55fd2d8263e045eee7292dd459501872015b46cc783fc87f64736f6c634300081e0033a2646970667358221220ee41ded679c4b7aadc36362e216e864ee7d8d3cceabfbe5f7e579d7e8633229064736f6c634300081e00336080604052348015600e575f5ffd5b50610a1b8061001c5f395ff3fe608060405234801561000f575f5ffd5b5060043610610029575f3560e01c8063b8dc491b1461002d575b5f5ffd5b610047600480360381019061004291906105ca565b610049565b005b5f8290505f6100578261022a565b90505f5f90505b6008811015610122575f5f6100748530866103bf565b9150915081610084575050610122565b8473ffffffffffffffffffffffffffffffffffffffff166323b872dd3088846040518463ffffffff1660e01b81526004016100c19392919061062f565b6020604051808303815f875af19250505080156100fc57506040513d601f19601f820116820180604052508101906100f99190610699565b60015b610107575050610122565b8061011457505050610122565b50505080600101905061005e565b505f8273ffffffffffffffffffffffffffffffffffffffff166370a08231306040518263ffffffff1660e01b815260040161015d91906106c4565b602060405180830381865afa158015610178573d5f5f3e3d5ffd5b505050506040513d601f19601f8201168201806040525081019061019c9190610707565b90505f8114610223578273ffffffffffffffffffffffffffffffffffffffff1663a9059cbb85836040518363ffffffff1660e01b81526004016101e0929190610732565b6020604051808303815f875af192505050801561021b57506040513d601f19601f820116820180604052508101906102189190610699565b60015b1561022257505b5b5050505050565b5f5f8273ffffffffffffffffffffffffffffffffffffffff16635afcc2f56040518163ffffffff1660e01b8152600401602060405180830381865afa158015610275573d5f5f3e3d5ffd5b505050506040513d601f19601f820116820180604052508101906102999190610707565b90505f81036102ac5760019150506103ba565b5f6001828573ffffffffffffffffffffffffffffffffffffffff166318160ddd6040518163ffffffff1660e01b8152600401602060405180830381865afa1580156102f9573d5f5f3e3d5ffd5b505050506040513d601f19601f8201168201806040525081019061031d9190610707565b61032791906107b3565b61033191906107e3565b90505f600190505f8290505b8060018361034b91906107e3565b1015610390575f600183836103609190610816565b901c8361036d91906107e3565b905061037987826104c1565b156103865780925061038a565b8091505b5061033d565b61039a86836104c1565b6103a55760016103b3565b6001826103b291906107e3565b5b9450505050505b919050565b5f5f5f73ffffffffffffffffffffffffffffffffffffffff168473ffffffffffffffffffffffffffffffffffffffff1614806103fc575060018311155b1561040c575f5f915091506104b9565b5f600190505b838110156104b1578573ffffffffffffffffffffffffffffffffffffffff1663c5b8f77286836040518363ffffffff1660e01b8152600401610455929190610732565b602060405180830381865afa158015610470573d5f5f3e3d5ffd5b505050506040513d601f19601f820116820180604052508101906104949190610699565b156104a65760018192509250506104b9565b806001019050610412565b505f5f915091505b935093915050565b5f5f82036104d1575f9050610559565b8273ffffffffffffffffffffffffffffffffffffffff1663c87b56dd836040518263ffffffff1660e01b815260040161050a9190610849565b5f60405180830381865afa92505050801561054757506040513d5f823e3d601f19601f82011682018060405250810190610544919061099e565b60015b610553575f9050610559565b60019150505b92915050565b5f604051905090565b5f5ffd5b5f5ffd5b5f73ffffffffffffffffffffffffffffffffffffffff82169050919050565b5f61059982610570565b9050919050565b6105a98161058f565b81146105b3575f5ffd5b50565b5f813590506105c4816105a0565b92915050565b5f5f604083850312156105e0576105df610568565b5b5f6105ed858286016105b6565b92505060206105fe858286016105b6565b9150509250929050565b6106118161058f565b82525050565b5f819050919050565b61062981610617565b82525050565b5f6060820190506106425f830186610608565b61064f6020830185610608565b61065c6040830184610620565b949350505050565b5f8115159050919050565b61067881610664565b8114610682575f5ffd5b50565b5f815190506106938161066f565b92915050565b5f602082840312156106ae576106ad610568565b5b5f6106bb84828501610685565b91505092915050565b5f6020820190506106d75f830184610608565b92915050565b6106e681610617565b81146106f0575f5ffd5b50565b5f81519050610701816106dd565b92915050565b5f6020828403121561071c5761071b610568565b5b5f610729848285016106f3565b91505092915050565b5f6040820190506107455f830185610608565b6107526020830184610620565b9392505050565b7f4e487b71000000000000000000000000000000000000000000000000000000005f52601260045260245ffd5b7f4e487b71000000000000000000000000000000000000000000000000000000005f52601160045260245ffd5b5f6107bd82610617565b91506107c883610617565b9250826107d8576107d7610759565b5b828204905092915050565b5f6107ed82610617565b91506107f883610617565b92508282019050808211156108105761080f610786565b5b92915050565b5f61082082610617565b915061082b83610617565b925082820390508181111561084357610842610786565b5b92915050565b5f60208201905061085c5f830184610620565b92915050565b5f5ffd5b5f5ffd5b5f601f19601f8301169050919050565b7f4e487b71000000000000000000000000000000000000000000000000000000005f52604160045260245ffd5b6108b08261086a565b810181811067ffffffffffffffff821117156108cf576108ce61087a565b5b80604052505050565b5f6108e161055f565b90506108ed82826108a7565b919050565b5f67ffffffffffffffff82111561090c5761090b61087a565b5b6109158261086a565b9050602081019050919050565b8281835e5f83830152505050565b5f61094261093d846108f2565b6108d8565b90508281526020810184848401111561095e5761095d610866565b5b610969848285610922565b509392505050565b5f82601f83011261098557610984610862565b5b8151610995848260208601610930565b91505092915050565b5f602082840312156109b3576109b2610568565b5b5f82015167ffffffffffffffff8111156109d0576109cf61056c565b5b6109dc84828501610971565b9150509291505056fea264697066735822122086b463e3ae24ecec55fd2d8263e045eee7292dd459501872015b46cc783fc87f64736f6c634300081e0033","linkReferences":{}},"methodIdentifiers":{"TARGET()":"cc1f2afa","deployLootWallet()":"010d9a29","executeOnOpportunity()":"3c2448ed","exploitedFrom()":"6c704a46","exploitedTokenId()":"ba0ed2e4","hypothesisRefuted()":"495f92f1","hypothesisValidated()":"463defd1","lootAddress()":"0e439326","profitAmount()":"5ff972cc","profitToken()":"49343624","uniswapV2Call(address,uint256,uint256,bytes)":"10d1e85c"},"id":0}