{"abi":[{"type":"constructor","inputs":[],"stateMutability":"nonpayable"},{"type":"function","name":"sweep","inputs":[{"name":"target","type":"address","internalType":"address"},{"name":"to","type":"address","internalType":"address"}],"outputs":[],"stateMutability":"nonpayable"}],"bytecode":{"object":"0x6080604052348015600e575f5ffd5b50610a1b8061001c5f395ff3fe608060405234801561000f575f5ffd5b5060043610610029575f3560e01c8063b8dc491b1461002d575b5f5ffd5b610047600480360381019061004291906105ca565b610049565b005b5f8290505f6100578261022a565b90505f5f90505b6008811015610122575f5f6100748530866103bf565b9150915081610084575050610122565b8473ffffffffffffffffffffffffffffffffffffffff166323b872dd3088846040518463ffffffff1660e01b81526004016100c19392919061062f565b6020604051808303815f875af19250505080156100fc57506040513d601f19601f820116820180604052508101906100f99190610699565b60015b610107575050610122565b8061011457505050610122565b50505080600101905061005e565b505f8273ffffffffffffffffffffffffffffffffffffffff166370a08231306040518263ffffffff1660e01b815260040161015d91906106c4565b602060405180830381865afa158015610178573d5f5f3e3d5ffd5b505050506040513d601f19601f8201168201806040525081019061019c9190610707565b90505f8114610223578273ffffffffffffffffffffffffffffffffffffffff1663a9059cbb85836040518363ffffffff1660e01b81526004016101e0929190610732565b6020604051808303815f875af192505050801561021b57506040513d601f19601f820116820180604052508101906102189190610699565b60015b1561022257505b5b5050505050565b5f5f8273ffffffffffffffffffffffffffffffffffffffff16635afcc2f56040518163ffffffff1660e01b8152600401602060405180830381865afa158015610275573d5f5f3e3d5ffd5b505050506040513d601f19601f820116820180604052508101906102999190610707565b90505f81036102ac5760019150506103ba565b5f6001828573ffffffffffffffffffffffffffffffffffffffff166318160ddd6040518163ffffffff1660e01b8152600401602060405180830381865afa1580156102f9573d5f5f3e3d5ffd5b505050506040513d601f19601f8201168201806040525081019061031d9190610707565b61032791906107b3565b61033191906107e3565b90505f600190505f8290505b8060018361034b91906107e3565b1015610390575f600183836103609190610816565b901c8361036d91906107e3565b905061037987826104c1565b156103865780925061038a565b8091505b5061033d565b61039a86836104c1565b6103a55760016103b3565b6001826103b291906107e3565b5b9450505050505b919050565b5f5f5f73ffffffffffffffffffffffffffffffffffffffff168473ffffffffffffffffffffffffffffffffffffffff1614806103fc575060018311155b1561040c575f5f915091506104b9565b5f600190505b838110156104b1578573ffffffffffffffffffffffffffffffffffffffff1663c5b8f77286836040518363ffffffff1660e01b8152600401610455929190610732565b602060405180830381865afa158015610470573d5f5f3e3d5ffd5b505050506040513d601f19601f820116820180604052508101906104949190610699565b156104a65760018192509250506104b9565b806001019050610412565b505f5f915091505b935093915050565b5f5f82036104d1575f9050610559565b8273ffffffffffffffffffffffffffffffffffffffff1663c87b56dd836040518263ffffffff1660e01b815260040161050a9190610849565b5f60405180830381865afa92505050801561054757506040513d5f823e3d601f19601f82011682018060405250810190610544919061099e565b60015b610553575f9050610559565b60019150505b92915050565b5f604051905090565b5f5ffd5b5f5ffd5b5f73ffffffffffffffffffffffffffffffffffffffff82169050919050565b5f61059982610570565b9050919050565b6105a98161058f565b81146105b3575f5ffd5b50565b5f813590506105c4816105a0565b92915050565b5f5f604083850312156105e0576105df610568565b5b5f6105ed858286016105b6565b92505060206105fe858286016105b6565b9150509250929050565b6106118161058f565b82525050565b5f819050919050565b61062981610617565b82525050565b5f6060820190506106425f830186610608565b61064f6020830185610608565b61065c6040830184610620565b949350505050565b5f8115159050919050565b61067881610664565b8114610682575f5ffd5b50565b5f815190506106938161066f565b92915050565b5f602082840312156106ae576106ad610568565b5b5f6106bb84828501610685565b91505092915050565b5f6020820190506106d75f830184610608565b92915050565b6106e681610617565b81146106f0575f5ffd5b50565b5f81519050610701816106dd565b92915050565b5f6020828403121561071c5761071b610568565b5b5f610729848285016106f3565b91505092915050565b5f6040820190506107455f830185610608565b6107526020830184610620565b9392505050565b7f4e487b71000000000000000000000000000000000000000000000000000000005f52601260045260245ffd5b7f4e487b71000000000000000000000000000000000000000000000000000000005f52601160045260245ffd5b5f6107bd82610617565b91506107c883610617565b9250826107d8576107d7610759565b5b828204905092915050565b5f6107ed82610617565b91506107f883610617565b92508282019050808211156108105761080f610786565b5b92915050565b5f61082082610617565b915061082b83610617565b925082820390508181111561084357610842610786565b5b92915050565b5f60208201905061085c5f830184610620565b92915050565b5f5ffd5b5f5ffd5b5f601f19601f8301169050919050565b7f4e487b71000000000000000000000000000000000000000000000000000000005f52604160045260245ffd5b6108b08261086a565b810181811067ffffffffffffffff821117156108cf576108ce61087a565b5b80604052505050565b5f6108e161055f565b90506108ed82826108a7565b919050565b5f67ffffffffffffffff82111561090c5761090b61087a565b5b6109158261086a565b9050602081019050919050565b8281835e5f83830152505050565b5f61094261093d846108f2565b6108d8565b90508281526020810184848401111561095e5761095d610866565b5b610969848285610922565b509392505050565b5f82601f83011261098557610984610862565b5b8151610995848260208601610930565b91505092915050565b5f602082840312156109b3576109b2610568565b5b5f82015167ffffffffffffffff8111156109d0576109cf61056c565b5b6109dc84828501610971565b9150509291505056fea264697066735822122086b463e3ae24ecec55fd2d8263e045eee7292dd459501872015b46cc783fc87f64736f6c634300081e0033","linkReferences":{}},"methodIdentifiers":{"sweep(address,address)":"b8dc491b"},"id":0}