{"abi":[{"type":"constructor","inputs":[],"stateMutability":"payable"},{"type":"receive","stateMutability":"payable"},{"type":"function","name":"allowance","inputs":[{"name":"owner","type":"address","internalType":"address"},{"name":"spender","type":"address","internalType":"address"}],"outputs":[{"name":"","type":"uint256","internalType":"uint256"}],"stateMutability":"view"},{"type":"function","name":"amountOfValidators","inputs":[],"outputs":[{"name":"","type":"uint256","internalType":"uint256"}],"stateMutability":"view"},{"type":"function","name":"approve","inputs":[{"name":"spender","type":"address","internalType":"address"},{"name":"amount","type":"uint256","internalType":"uint256"}],"outputs":[{"name":"","type":"bool","internalType":"bool"}],"stateMutability":"nonpayable"},{"type":"function","name":"apr","inputs":[],"outputs":[{"name":"","type":"uint256","internalType":"uint256"}],"stateMutability":"view"},{"type":"function","name":"balanceOf","inputs":[{"name":"account","type":"address","internalType":"address"}],"outputs":[{"name":"","type":"uint256","internalType":"uint256"}],"stateMutability":"view"},{"type":"function","name":"claim","inputs":[{"name":"validator","type":"uint256","internalType":"uint256"}],"outputs":[],"stateMutability":"nonpayable"},{"type":"function","name":"createValidator","inputs":[],"outputs":[],"stateMutability":"nonpayable"},{"type":"function","name":"decimals","inputs":[],"outputs":[{"name":"","type":"uint8","internalType":"uint8"}],"stateMutability":"view"},{"type":"function","name":"decreaseAllowance","inputs":[{"name":"spender","type":"address","internalType":"address"},{"name":"subtractedValue","type":"uint256","internalType":"uint256"}],"outputs":[{"name":"","type":"bool","internalType":"bool"}],"stateMutability":"nonpayable"},{"type":"function","name":"excludeFromFees","inputs":[{"name":"account","type":"address","internalType":"address"},{"name":"excluded","type":"bool","internalType":"bool"}],"outputs":[],"stateMutability":"nonpayable"},{"type":"function","name":"forceSwap","inputs":[],"outputs":[],"stateMutability":"nonpayable"},{"type":"function","name":"increaseAllowance","inputs":[{"name":"spender","type":"address","internalType":"address"},{"name":"addedValue","type":"uint256","internalType":"uint256"}],"outputs":[{"name":"","type":"bool","internalType":"bool"}],"stateMutability":"nonpayable"},{"type":"function","name":"isExcludedFromFees","inputs":[{"name":"account","type":"address","internalType":"address"}],"outputs":[{"name":"","type":"bool","internalType":"bool"}],"stateMutability":"view"},{"type":"function","name":"isStaking","inputs":[{"name":"stakerAddr","type":"address","internalType":"address"},{"name":"validator","type":"uint256","internalType":"uint256"}],"outputs":[{"name":"","type":"bool","internalType":"bool"}],"stateMutability":"view"},{"type":"function","name":"limitsInEffect","inputs":[],"outputs":[{"name":"","type":"bool","internalType":"bool"}],"stateMutability":"view"},{"type":"function","name":"maxSupply","inputs":[],"outputs":[{"name":"","type":"uint256","internalType":"uint256"}],"stateMutability":"view"},{"type":"function","name":"maxTransactionAmount","inputs":[],"outputs":[{"name":"","type":"uint256","internalType":"uint256"}],"stateMutability":"view"},{"type":"function","name":"maxWallet","inputs":[],"outputs":[{"name":"","type":"uint256","internalType":"uint256"}],"stateMutability":"view"},{"type":"function","name":"name","inputs":[],"outputs":[{"name":"","type":"string","internalType":"string"}],"stateMutability":"view"},{"type":"function","name":"owner","inputs":[],"outputs":[{"name":"","type":"address","internalType":"address"}],"stateMutability":"view"},{"type":"function","name":"removeLimits","inputs":[],"outputs":[],"stateMutability":"nonpayable"},{"type":"function","name":"renounceOwnership","inputs":[],"outputs":[],"stateMutability":"nonpayable"},{"type":"function","name":"rewardToken","inputs":[],"outputs":[{"name":"","type":"address","internalType":"address"}],"stateMutability":"view"},{"type":"function","name":"setStakingState","inputs":[{"name":"onoff","type":"bool","internalType":"bool"}],"outputs":[],"stateMutability":"nonpayable"},{"type":"function","name":"stake","inputs":[{"name":"stakeAmount","type":"uint256","internalType":"uint256"},{"name":"validator","type":"uint256","internalType":"uint256"}],"outputs":[],"stateMutability":"nonpayable"},{"type":"function","name":"stakingEnabled","inputs":[],"outputs":[{"name":"","type":"bool","internalType":"bool"}],"stateMutability":"view"},{"type":"function","name":"stakingToken","inputs":[],"outputs":[{"name":"","type":"address","internalType":"address"}],"stateMutability":"view"},{"type":"function","name":"startTrading","inputs":[],"outputs":[],"stateMutability":"nonpayable"},{"type":"function","name":"swapTokensThreshold","inputs":[],"outputs":[{"name":"","type":"uint256","internalType":"uint256"}],"stateMutability":"view"},{"type":"function","name":"symbol","inputs":[],"outputs":[{"name":"","type":"string","internalType":"string"}],"stateMutability":"view"},{"type":"function","name":"totalClaimed","inputs":[],"outputs":[{"name":"","type":"uint256","internalType":"uint256"}],"stateMutability":"view"},{"type":"function","name":"totalFees","inputs":[],"outputs":[{"name":"","type":"uint256","internalType":"uint256"}],"stateMutability":"view"},{"type":"function","name":"totalStaked","inputs":[],"outputs":[{"name":"","type":"uint256","internalType":"uint256"}],"stateMutability":"view"},{"type":"function","name":"totalSupply","inputs":[],"outputs":[{"name":"","type":"uint256","internalType":"uint256"}],"stateMutability":"view"},{"type":"function","name":"transfer","inputs":[{"name":"to","type":"address","internalType":"address"},{"name":"amount","type":"uint256","internalType":"uint256"}],"outputs":[{"name":"","type":"bool","internalType":"bool"}],"stateMutability":"nonpayable"},{"type":"function","name":"transferFrom","inputs":[{"name":"from","type":"address","internalType":"address"},{"name":"to","type":"address","internalType":"address"},{"name":"amount","type":"uint256","internalType":"uint256"}],"outputs":[{"name":"","type":"bool","internalType":"bool"}],"stateMutability":"nonpayable"},{"type":"function","name":"transferOwnership","inputs":[{"name":"newOwner","type":"address","internalType":"address"}],"outputs":[],"stateMutability":"nonpayable"},{"type":"function","name":"unstake","inputs":[{"name":"validator","type":"uint256","internalType":"uint256"}],"outputs":[],"stateMutability":"nonpayable"},{"type":"function","name":"updateFeeReceiver","inputs":[{"name":"newWallet","type":"address","internalType":"address"}],"outputs":[],"stateMutability":"nonpayable"},{"type":"function","name":"updateFees","inputs":[{"name":"marketingFee","type":"uint256","internalType":"uint256"},{"name":"liquidityFee","type":"uint256","internalType":"uint256"},{"name":"validatorFee","type":"uint256","internalType":"uint256"}],"outputs":[],"stateMutability":"nonpayable"},{"type":"function","name":"updateSwapTokensThreshold","inputs":[{"name":"newThreshold","type":"uint256","internalType":"uint256"}],"outputs":[{"name":"","type":"bool","internalType":"bool"}],"stateMutability":"nonpayable"},{"type":"function","name":"userClaimHistory","inputs":[{"name":"staker","type":"address","internalType":"address"}],"outputs":[{"name":"","type":"tuple","internalType":"struct EHIVE.ClaimHistory","components":[{"name":"dates","type":"uint256[]","internalType":"uint256[]"},{"name":"amounts","type":"uint256[]","internalType":"uint256[]"}]}],"stateMutability":"view"},{"type":"function","name":"userEarned","inputs":[{"name":"staker","type":"address","internalType":"address"},{"name":"validator","type":"uint256","internalType":"uint256"}],"outputs":[{"name":"","type":"uint256","internalType":"uint256"}],"stateMutability":"view"},{"type":"function","name":"userStaked","inputs":[{"name":"staker","type":"address","internalType":"address"},{"name":"validator","type":"uint256","internalType":"uint256"}],"outputs":[{"name":"","type":"uint256","internalType":"uint256"}],"stateMutability":"view"},{"type":"function","name":"validators","inputs":[{"name":"","type":"uint256","internalType":"uint256"}],"outputs":[{"name":"creationTime","type":"uint256","internalType":"uint256"},{"name":"staked","type":"uint256","internalType":"uint256"}],"stateMutability":"view"},{"type":"function","name":"withdrawContractETH","inputs":[],"outputs":[],"stateMutability":"nonpayable"},{"type":"event","name":"Approval","inputs":[{"name":"owner","type":"address","indexed":true,"internalType":"address"},{"name":"spender","type":"address","indexed":true,"internalType":"address"},{"name":"value","type":"uint256","indexed":false,"internalType":"uint256"}],"anonymous":false},{"type":"event","name":"OwnershipTransferred","inputs":[{"name":"previousOwner","type":"address","indexed":true,"internalType":"address"},{"name":"newOwner","type":"address","indexed":true,"internalType":"address"}],"anonymous":false},{"type":"event","name":"Transfer","inputs":[{"name":"from","type":"address","indexed":true,"internalType":"address"},{"name":"to","type":"address","indexed":true,"internalType":"address"},{"name":"value","type":"uint256","indexed":false,"internalType":"uint256"}],"anonymous":false}],"bytecode":{"object":"0x60806040526001600d5f6101000a81548160ff0219169083151502179055505f60195f6101000a81548160ff0219169083151502179055506040518060400160405280600d81526020017f457468657265756d2048697665000000000000000000000000000000000000008152506040518060400160405280600581526020017f454849564500000000000000000000000000000000000000000000000000000081525081600390816100b29190610ac9565b5080600490816100c29190610ac9565b5050506100e16100d66104d460201b60201c565b6104db60201b60201c565b5f737a250d5630b4cf539739df2c5dacb4c659f2488d90506001601c5f8373ffffffffffffffffffffffffffffffffffffffff1673ffffffffffffffffffffffffffffffffffffffff1681526020019081526020015f205f6101000a81548160ff0219169083151502179055508060075f6101000a81548173ffffffffffffffffffffffffffffffffffffffff021916908373ffffffffffffffffffffffffffffffffffffffff1602179055505f600290505f600190505f600390505f6c064f964e68233a76f52000000090506c0c9f2c9cd04674edea400000006006819055506103e86004826101d29190610bc5565b6101dc9190610c33565b600a8190555060646001826101f19190610bc5565b6101fb9190610c33565b600b819055506103e86001826102119190610bc5565b61021b9190610c33565b600c8190555083600f819055508260108190555081601181905550601154601054600f546102499190610c63565b6102539190610c63565b600e8190555061026761059e60201b60201c565b60095f6101000a81548173ffffffffffffffffffffffffffffffffffffffff021916908373ffffffffffffffffffffffffffffffffffffffff1602179055506102c46102b761059e60201b60201c565b60016105c660201b60201c565b6102d53060016105c660201b60201c565b6102e861dead60016105c660201b60201c565b6001601c5f6102fb61059e60201b60201c565b73ffffffffffffffffffffffffffffffffffffffff1673ffffffffffffffffffffffffffffffffffffffff1681526020019081526020015f205f6101000a81548160ff0219169083151502179055506001601c5f3073ffffffffffffffffffffffffffffffffffffffff1673ffffffffffffffffffffffffffffffffffffffff1681526020019081526020015f205f6101000a81548160ff0219169083151502179055506001601c5f61dead73ffffffffffffffffffffffffffffffffffffffff1673ffffffffffffffffffffffffffffffffffffffff1681526020019081526020015f205f6101000a81548160ff0219169083151502179055503060165f6101000a81548173ffffffffffffffffffffffffffffffffffffffff021916908373ffffffffffffffffffffffffffffffffffffffff1602179055503060175f6101000a81548173ffffffffffffffffffffffffffffffffffffffff021916908373ffffffffffffffffffffffffffffffffffffffff16021790555060326018819055506104ad306104a26c02254cb44220752872100000008461070a60201b90919060201c565b61071f60201b60201c565b6104ca336c02254cb442207528721000000061071f60201b60201c565b5050505050610df7565b5f33905090565b5f60055f9054906101000a900473ffffffffffffffffffffffffffffffffffffffff1690508160055f6101000a81548173ffffffffffffffffffffffffffffffffffffffff021916908373ffffffffffffffffffffffffffffffffffffffff1602179055508173ffffffffffffffffffffffffffffffffffffffff168173ffffffffffffffffffffffffffffffffffffffff167f8be0079c531659141344cd1fd0a4f28419497f9722a3daafe3b4186f6b6457e060405160405180910390a35050565b5f60055f9054906101000a900473ffffffffffffffffffffffffffffffffffffffff16905090565b6105d46104d460201b60201c565b73ffffffffffffffffffffffffffffffffffffffff1660095f9054906101000a900473ffffffffffffffffffffffffffffffffffffffff1673ffffffffffffffffffffffffffffffffffffffff16148061067357506106376104d460201b60201c565b73ffffffffffffffffffffffffffffffffffffffff1661065b61059e60201b60201c565b73ffffffffffffffffffffffffffffffffffffffff16145b6106b2576040517f08c379a00000000000000000000000000000000000000000000000000000000081526004016106a990610d16565b60405180910390fd5b80601b5f8473ffffffffffffffffffffffffffffffffffffffff1673ffffffffffffffffffffffffffffffffffffffff1681526020019081526020015f205f6101000a81548160ff0219169083151502179055505050565b5f81836107179190610d34565b905092915050565b5f73ffffffffffffffffffffffffffffffffffffffff168273ffffffffffffffffffffffffffffffffffffffff160361078d576040517f08c379a000000000000000000000000000000000000000000000000000000000815260040161078490610db1565b60405180910390fd5b61079e5f838361088260201b60201c565b8060025f8282546107af9190610c63565b92505081905550805f5f8473ffffffffffffffffffffffffffffffffffffffff1673ffffffffffffffffffffffffffffffffffffffff1681526020019081526020015f205f8282546108019190610c63565b925050819055508173ffffffffffffffffffffffffffffffffffffffff165f73ffffffffffffffffffffffffffffffffffffffff167fddf252ad1be2c89b69c2b068fc378daa952ba7f163c4a11628f55a4df523b3ef836040516108659190610dde565b60405180910390a361087e5f838361088760201b60201c565b5050565b505050565b505050565b5f81519050919050565b7f4e487b71000000000000000000000000000000000000000000000000000000005f52604160045260245ffd5b7f4e487b71000000000000000000000000000000000000000000000000000000005f52602260045260245ffd5b5f600282049050600182168061090757607f821691505b60208210810361091a576109196108c3565b5b50919050565b5f819050815f5260205f209050919050565b5f6020601f8301049050919050565b5f82821b905092915050565b5f6008830261097c7fffffffffffffffffffffffffffffffffffffffffffffffffffffffffffffffff82610941565b6109868683610941565b95508019841693508086168417925050509392505050565b5f819050919050565b5f819050919050565b5f6109ca6109c56109c08461099e565b6109a7565b61099e565b9050919050565b5f819050919050565b6109e3836109b0565b6109f76109ef826109d1565b84845461094d565b825550505050565b5f5f905090565b610a0e6109ff565b610a198184846109da565b505050565b5b81811015610a3c57610a315f82610a06565b600181019050610a1f565b5050565b601f821115610a8157610a5281610920565b610a5b84610932565b81016020851015610a6a578190505b610a7e610a7685610932565b830182610a1e565b50505b505050565b5f82821c905092915050565b5f610aa15f1984600802610a86565b1980831691505092915050565b5f610ab98383610a92565b9150826002028217905092915050565b610ad28261088c565b67ffffffffffffffff811115610aeb57610aea610896565b5b610af582546108f0565b610b00828285610a40565b5f60209050601f831160018114610b31575f8415610b1f578287015190505b610b298582610aae565b865550610b90565b601f198416610b3f86610920565b5f5b82811015610b6657848901518255600182019150602085019450602081019050610b41565b86831015610b835784890151610b7f601f891682610a92565b8355505b6001600288020188555050505b505050505050565b7f4e487b71000000000000000000000000000000000000000000000000000000005f52601160045260245ffd5b5f610bcf8261099e565b9150610bda8361099e565b9250828202610be88161099e565b91508282048414831517610bff57610bfe610b98565b5b5092915050565b7f4e487b71000000000000000000000000000000000000000000000000000000005f52601260045260245ffd5b5f610c3d8261099e565b9150610c488361099e565b925082610c5857610c57610c06565b5b828204905092915050565b5f610c6d8261099e565b9150610c788361099e565b9250828201905080821115610c9057610c8f610b98565b5b92915050565b5f82825260208201905092915050565b7f43616c6c6572206973206e6f7420746865205f737761704665655265636569765f8201527f65722061646472657373206e6f72206f776e65722e0000000000000000000000602082015250565b5f610d00603583610c96565b9150610d0b82610ca6565b604082019050919050565b5f6020820190508181035f830152610d2d81610cf4565b9050919050565b5f610d3e8261099e565b9150610d498361099e565b9250828203905081811115610d6157610d60610b98565b5b92915050565b7f45524332303a206d696e7420746f20746865207a65726f2061646472657373005f82015250565b5f610d9b601f83610c96565b9150610da682610d67565b602082019050919050565b5f6020820190508181035f830152610dc881610d8f565b9050919050565b610dd88161099e565b82525050565b5f602082019050610df15f830184610dcf565b92915050565b615b9c80610e045f395ff3fe608060405260043610610280575f3560e01c8063715018a61161014e578063c0246668116100c0578063d5abeb0111610079578063d5abeb0114610994578063dd62ed3e146109be578063df778d26146109fa578063f2fde38b14610a10578063f7c618c114610a38578063f8b45b0514610a6257610287565b8063c0246668146108b0578063c69bebe4146108d8578063c8c8ebe414610900578063cef851391461092a578063d125ca1814610954578063d54ad2a11461096a57610287565b80638baa63b2116101125780638baa63b21461076c5780638da5cb5b146107a857806395d89b41146107d2578063a39b2153146107fc578063a457c2d714610838578063a9059cbb1461087457610287565b8063715018a6146106c457806372f702f3146106da578063751039fc146107045780637b0472f01461071a578063817b1cd21461074257610287565b806335aa2e44116101f25780634a62bb65116101ab5780634a62bb65146105925780634fbee193146105bc57806357ded9c9146105f8578063590654e9146106225780636ceb23a11461064c57806370a082311461068857610287565b806335aa2e4414610477578063379607f5146104b457806339509351146104dc5780633b51e5cf146105185780633dd5b2da146105405780634093e7d51461055657610287565b80632242908511610244578063224290851461036f57806323b872dd14610397578063245fc1ba146103d3578063293230b81461040f5780632e17de7814610425578063313ce5671461044d57610287565b806306fdde031461028b578063095ea7b3146102b557806313114a9d146102f157806318160ddd1461031b5780631cfff51b1461034557610287565b3661028757005b5f5ffd5b348015610296575f5ffd5b5061029f610a8c565b6040516102ac9190614588565b60405180910390f35b3480156102c0575f5ffd5b506102db60048036038101906102d69190614639565b610b1c565b6040516102e89190614691565b60405180910390f35b3480156102fc575f5ffd5b50610305610b3e565b60405161031291906146b9565b60405180910390f35b348015610326575f5ffd5b5061032f610b44565b60405161033c91906146b9565b60405180910390f35b348015610350575f5ffd5b50610359610b4d565b6040516103669190614691565b60405180910390f35b34801561037a575f5ffd5b50610395600480360381019061039091906146d2565b610b5f565b005b3480156103a2575f5ffd5b506103bd60048036038101906103b89190614722565b610c5e565b6040516103ca9190614691565b60405180910390f35b3480156103de575f5ffd5b506103f960048036038101906103f49190614639565b610c8c565b6040516104069190614691565b60405180910390f35b34801561041a575f5ffd5b50610423610d31565b005b348015610430575f5ffd5b5061044b60048036038101906104469190614772565b6111b9565b005b348015610458575f5ffd5b5061046161156e565b60405161046e91906147b8565b60405180910390f35b348015610482575f5ffd5b5061049d60048036038101906104989190614772565b611576565b6040516104ab9291906147d1565b60405180910390f35b3480156104bf575f5ffd5b506104da60048036038101906104d59190614772565b6115a5565b005b3480156104e7575f5ffd5b5061050260048036038101906104fd9190614639565b61182a565b60405161050f9190614691565b60405180910390f35b348015610523575f5ffd5b5061053e60048036038101906105399190614822565b6118cf565b005b34801561054b575f5ffd5b506105546119c5565b005b348015610561575f5ffd5b5061057c60048036038101906105779190614639565b611a2c565b60405161058991906146b9565b60405180910390f35b34801561059d575f5ffd5b506105a6611abd565b6040516105b39190614691565b60405180910390f35b3480156105c7575f5ffd5b506105e260048036038101906105dd919061484d565b611acf565b6040516105ef9190614691565b60405180910390f35b348015610603575f5ffd5b5061060c611b21565b60405161061991906146b9565b60405180910390f35b34801561062d575f5ffd5b50610636611b27565b60405161064391906146b9565b60405180910390f35b348015610657575f5ffd5b50610672600480360381019061066d919061484d565b611b33565b60405161067f9190614970565b60405180910390f35b348015610693575f5ffd5b506106ae60048036038101906106a9919061484d565b611c35565b6040516106bb91906146b9565b60405180910390f35b3480156106cf575f5ffd5b506106d8611c7a565b005b3480156106e5575f5ffd5b506106ee611d01565b6040516106fb919061499f565b60405180910390f35b34801561070f575f5ffd5b50610718611d26565b005b348015610725575f5ffd5b50610740600480360381019061073b91906149b8565b611e1b565b005b34801561074d575f5ffd5b50610756612138565b60405161076391906146b9565b60405180910390f35b348015610777575f5ffd5b50610792600480360381019061078d9190614772565b61213e565b60405161079f9190614691565b60405180910390f35b3480156107b3575f5ffd5b506107bc6122f0565b6040516107c9919061499f565b60405180910390f35b3480156107dd575f5ffd5b506107e6612318565b6040516107f39190614588565b60405180910390f35b348015610807575f5ffd5b50610822600480360381019061081d9190614639565b6123a8565b60405161082f91906146b9565b60405180910390f35b348015610843575f5ffd5b5061085e60048036038101906108599190614639565b612401565b60405161086b9190614691565b60405180910390f35b34801561087f575f5ffd5b5061089a60048036038101906108959190614639565b6124e5565b6040516108a79190614691565b60405180910390f35b3480156108bb575f5ffd5b506108d660048036038101906108d191906149f6565b612507565b005b3480156108e3575f5ffd5b506108fe60048036038101906108f9919061484d565b612639565b005b34801561090b575f5ffd5b50610914612756565b60405161092191906146b9565b60405180910390f35b348015610935575f5ffd5b5061093e61275c565b60405161094b91906146b9565b60405180910390f35b34801561095f575f5ffd5b50610968612762565b005b348015610975575f5ffd5b5061097e612894565b60405161098b91906146b9565b60405180910390f35b34801561099f575f5ffd5b506109a861289a565b6040516109b591906146b9565b60405180910390f35b3480156109c9575f5ffd5b506109e460048036038101906109df9190614a34565b6128a0565b6040516109f191906146b9565b60405180910390f35b348015610a05575f5ffd5b50610a0e612922565b005b348015610a1b575f5ffd5b50610a366004803603810190610a31919061484d565b612a0f565b005b348015610a43575f5ffd5b50610a4c612b05565b604051610a59919061499f565b60405180910390f35b348015610a6d575f5ffd5b50610a76612b2a565b604051610a8391906146b9565b60405180910390f35b606060038054610a9b90614a9f565b80601f0160208091040260200160405190810160405280929190818152602001828054610ac790614a9f565b8015610b125780601f10610ae957610100808354040283529160200191610b12565b820191905f5260205f20905b815481529060010190602001808311610af557829003601f168201915b5050505050905090565b5f5f610b26612b30565b9050610b33818585612b37565b600191505092915050565b600e5481565b5f600254905090565b60195f9054906101000a900460ff1681565b610b67612b30565b73ffffffffffffffffffffffffffffffffffffffff16610b856122f0565b73ffffffffffffffffffffffffffffffffffffffff1614610bdb576040517f08c379a0000000000000000000000000000000000000000000000000000000008152600401610bd290614b19565b60405180910390fd5b82600f819055508160108190555080601181905550601154601054600f54610c039190614b64565b610c0d9190614b64565b600e819055506006600e541115610c59576040517f08c379a0000000000000000000000000000000000000000000000000000000008152600401610c5090614be1565b60405180910390fd5b505050565b5f5f610c68612b30565b9050610c75858285612cfa565b610c80858585612d85565b60019150509392505050565b5f8273ffffffffffffffffffffffffffffffffffffffff16601f5f8573ffffffffffffffffffffffffffffffffffffffff1673ffffffffffffffffffffffffffffffffffffffff1681526020019081526020015f205f8481526020019081526020015f205f015f9054906101000a900473ffffffffffffffffffffffffffffffffffffffff1673ffffffffffffffffffffffffffffffffffffffff1614905092915050565b610d39612b30565b73ffffffffffffffffffffffffffffffffffffffff1660095f9054906101000a900473ffffffffffffffffffffffffffffffffffffffff1673ffffffffffffffffffffffffffffffffffffffff161480610dcc5750610d96612b30565b73ffffffffffffffffffffffffffffffffffffffff16610db46122f0565b73ffffffffffffffffffffffffffffffffffffffff16145b610e0b576040517f08c379a0000000000000000000000000000000000000000000000000000000008152600401610e0290614c6f565b60405180910390fd5b60075f9054906101000a900473ffffffffffffffffffffffffffffffffffffffff1673ffffffffffffffffffffffffffffffffffffffff1663c45a01556040518163ffffffff1660e01b8152600401602060405180830381865afa158015610e75573d5f5f3e3d5ffd5b505050506040513d601f19601f82011682018060405250810190610e999190614ca1565b73ffffffffffffffffffffffffffffffffffffffff1663c9c653963060075f9054906101000a900473ffffffffffffffffffffffffffffffffffffffff1673ffffffffffffffffffffffffffffffffffffffff1663ad5c46486040518163ffffffff1660e01b8152600401602060405180830381865afa158015610f1f573d5f5f3e3d5ffd5b505050506040513d601f19601f82011682018060405250810190610f439190614ca1565b6040518363ffffffff1660e01b8152600401610f60929190614ccc565b6020604051808303815f875af1158015610f7c573d5f5f3e3d5ffd5b505050506040513d601f19601f82011682018060405250810190610fa09190614ca1565b60085f6101000a81548173ffffffffffffffffffffffffffffffffffffffff021916908373ffffffffffffffffffffffffffffffffffffffff1602179055506001601c5f60085f9054906101000a900473ffffffffffffffffffffffffffffffffffffffff1673ffffffffffffffffffffffffffffffffffffffff1673ffffffffffffffffffffffffffffffffffffffff1681526020019081526020015f205f6101000a81548160ff0219169083151502179055506001601d5f60085f9054906101000a900473ffffffffffffffffffffffffffffffffffffffff1673ffffffffffffffffffffffffffffffffffffffff1673ffffffffffffffffffffffffffffffffffffffff1681526020019081526020015f205f6101000a81548160ff0219169083151502179055506110ff3060075f9054906101000a900473ffffffffffffffffffffffffffffffffffffffff166110fa30611c35565b612b37565b60075f9054906101000a900473ffffffffffffffffffffffffffffffffffffffff1673ffffffffffffffffffffffffffffffffffffffff1663f305d719473061114730611c35565b5f5f6111516122f0565b426040518863ffffffff1660e01b815260040161117396959493929190614d35565b60606040518083038185885af115801561118f573d5f5f3e3d5ffd5b50505050506040513d601f19601f820116820180604052508101906111b49190614da8565b505050565b6111c33382610c8c565b611202576040517f08c379a00000000000000000000000000000000000000000000000000000000081526004016111f990614e42565b60405180910390fd5b5f61120d3383611a2c565b905060065461122c8261121e610b44565b6137af90919063ffffffff16565b108015611244575060195f9054906101000a900460ff165b156113985760205f3373ffffffffffffffffffffffffffffffffffffffff1673ffffffffffffffffffffffffffffffffffffffff1681526020019081526020015f205f0142908060018154018082558091505060019003905f5260205f20015f909190919091505560205f3373ffffffffffffffffffffffffffffffffffffffff1673ffffffffffffffffffffffffffffffffffffffff1681526020019081526020015f2060010181908060018154018082558091505060019003905f5260205f20015f909190919091505580601a5f8282546113219190614b64565b925050819055506113933361138e83601f5f3373ffffffffffffffffffffffffffffffffffffffff1673ffffffffffffffffffffffffffffffffffffffff1681526020019081526020015f205f8781526020019081526020015f20600201546137af90919063ffffffff16565b6137c4565b6113f2565b6113f133601f5f3373ffffffffffffffffffffffffffffffffffffffff1673ffffffffffffffffffffffffffffffffffffffff1681526020019081526020015f205f8581526020019081526020015f20600201546137c4565b5b601f5f3373ffffffffffffffffffffffffffffffffffffffff1673ffffffffffffffffffffffffffffffffffffffff1681526020019081526020015f205f8381526020019081526020015f20600201546021838154811061145657611455614e60565b5b905f5260205f2090600202016001015f8282546114739190614e8d565b92505081905550601f5f3373ffffffffffffffffffffffffffffffffffffffff1673ffffffffffffffffffffffffffffffffffffffff1681526020019081526020015f205f8381526020019081526020015f206002015460155f8282546114da9190614e8d565b92505081905550601f5f3373ffffffffffffffffffffffffffffffffffffffff1673ffffffffffffffffffffffffffffffffffffffff1681526020019081526020015f205f8381526020019081526020015f205f5f82015f6101000a81549073ffffffffffffffffffffffffffffffffffffffff0219169055600182015f9055600282015f9055600382015f905550505050565b5f6012905090565b60218181548110611585575f80fd5b905f5260205f2090600202015f91509050805f0154908060010154905082565b60195f9054906101000a900460ff166115f3576040517f08c379a00000000000000000000000000000000000000000000000000000000081526004016115ea90614f0a565b60405180910390fd5b6115fd3382610c8c565b61163c576040517f08c379a000000000000000000000000000000000000000000000000000000000815260040161163390614e42565b60405180910390fd5b600654611647610b44565b1115611688576040517f08c379a000000000000000000000000000000000000000000000000000000000815260040161167f90614f98565b60405180910390fd5b5f6116933383611a2c565b905060205f3373ffffffffffffffffffffffffffffffffffffffff1673ffffffffffffffffffffffffffffffffffffffff1681526020019081526020015f205f0142908060018154018082558091505060019003905f5260205f20015f909190919091505560205f3373ffffffffffffffffffffffffffffffffffffffff1673ffffffffffffffffffffffffffffffffffffffff1681526020019081526020015f2060010181908060018154018082558091505060019003905f5260205f20015f909190919091505580601a5f82825461176d9190614b64565b9250508190555061177e33826137c4565b42601f5f3373ffffffffffffffffffffffffffffffffffffffff1673ffffffffffffffffffffffffffffffffffffffff1681526020019081526020015f205f8481526020019081526020015f20600101819055505f601f5f3373ffffffffffffffffffffffffffffffffffffffff1673ffffffffffffffffffffffffffffffffffffffff1681526020019081526020015f205f8481526020019081526020015f20600301819055505050565b5f5f611834612b30565b90506118c481858560015f8673ffffffffffffffffffffffffffffffffffffffff1673ffffffffffffffffffffffffffffffffffffffff1681526020019081526020015f205f8973ffffffffffffffffffffffffffffffffffffffff1673ffffffffffffffffffffffffffffffffffffffff1681526020019081526020015f20546118bf9190614b64565b612b37565b600191505092915050565b6118d7612b30565b73ffffffffffffffffffffffffffffffffffffffff1660095f9054906101000a900473ffffffffffffffffffffffffffffffffffffffff1673ffffffffffffffffffffffffffffffffffffffff16148061196a5750611934612b30565b73ffffffffffffffffffffffffffffffffffffffff166119526122f0565b73ffffffffffffffffffffffffffffffffffffffff16145b6119a9576040517f08c379a00000000000000000000000000000000000000000000000000000000081526004016119a090614c6f565b60405180910390fd5b8060195f6101000a81548160ff02191690831515021790555050565b60095f9054906101000a900473ffffffffffffffffffffffffffffffffffffffff1673ffffffffffffffffffffffffffffffffffffffff166108fc4790811502906040515f60405180830381858888f19350505050158015611a29573d5f5f3e3d5ffd5b50565b5f5f611a38848461391b565b90505f601f5f3373ffffffffffffffffffffffffffffffffffffffff1673ffffffffffffffffffffffffffffffffffffffff1681526020019081526020015f205f8581526020019081526020015f206003015490505f811115611ab157611aa881836137af90919063ffffffff16565b92505050611ab7565b81925050505b92915050565b600d5f9054906101000a900460ff1681565b5f601b5f8373ffffffffffffffffffffffffffffffffffffffff1673ffffffffffffffffffffffffffffffffffffffff1681526020019081526020015f205f9054906101000a900460ff169050919050565b60185481565b5f602180549050905090565b611b3b6144fe565b60205f8373ffffffffffffffffffffffffffffffffffffffff1673ffffffffffffffffffffffffffffffffffffffff1681526020019081526020015f206040518060400160405290815f8201805480602002602001604051908101604052809291908181526020018280548015611bcf57602002820191905f5260205f20905b815481526020019060010190808311611bbb575b5050505050815260200160018201805480602002602001604051908101604052809291908181526020018280548015611c2557602002820191905f5260205f20905b815481526020019060010190808311611c11575b5050505050815250509050919050565b5f5f5f8373ffffffffffffffffffffffffffffffffffffffff1673ffffffffffffffffffffffffffffffffffffffff1681526020019081526020015f20549050919050565b611c82612b30565b73ffffffffffffffffffffffffffffffffffffffff16611ca06122f0565b73ffffffffffffffffffffffffffffffffffffffff1614611cf6576040517f08c379a0000000000000000000000000000000000000000000000000000000008152600401611ced90614b19565b60405180910390fd5b611cff5f613aa7565b565b60165f9054906101000a900473ffffffffffffffffffffffffffffffffffffffff1681565b611d2e612b30565b73ffffffffffffffffffffffffffffffffffffffff1660095f9054906101000a900473ffffffffffffffffffffffffffffffffffffffff1673ffffffffffffffffffffffffffffffffffffffff161480611dc15750611d8b612b30565b73ffffffffffffffffffffffffffffffffffffffff16611da96122f0565b73ffffffffffffffffffffffffffffffffffffffff16145b611e00576040517f08c379a0000000000000000000000000000000000000000000000000000000008152600401611df790614c6f565b60405180910390fd5b5f600d5f6101000a81548160ff021916908315150217905550565b60195f9054906101000a900460ff16611e69576040517f08c379a0000000000000000000000000000000000000000000000000000000008152600401611e6090614f0a565b60405180910390fd5b600654611e74610b44565b1115611eb5576040517f08c379a0000000000000000000000000000000000000000000000000000000008152600401611eac90614f98565b60405180910390fd5b611ebf3382610c8c565b15611ff05781601f5f3373ffffffffffffffffffffffffffffffffffffffff1673ffffffffffffffffffffffffffffffffffffffff1681526020019081526020015f205f8381526020019081526020015f206002015f828254611f229190614b64565b92505081905550611f33338261391b565b601f5f3373ffffffffffffffffffffffffffffffffffffffff1673ffffffffffffffffffffffffffffffffffffffff1681526020019081526020015f205f8381526020019081526020015f206003015f828254611f909190614b64565b9250508190555042601f5f3373ffffffffffffffffffffffffffffffffffffffff1673ffffffffffffffffffffffffffffffffffffffff1681526020019081526020015f205f8381526020019081526020015f20600101819055506120d9565b60405180608001604052803373ffffffffffffffffffffffffffffffffffffffff1681526020014281526020018381526020015f815250601f5f3373ffffffffffffffffffffffffffffffffffffffff1673ffffffffffffffffffffffffffffffffffffffff1681526020019081526020015f205f8381526020019081526020015f205f820151815f015f6101000a81548173ffffffffffffffffffffffffffffffffffffffff021916908373ffffffffffffffffffffffffffffffffffffffff1602179055506020820151816001015560408201518160020155606082015181600301559050505b81602182815481106120ee576120ed614e60565b5b905f5260205f2090600202016001015f82825461210b9190614b64565b925050819055508160155f8282546121239190614b64565b925050819055506121343383613b6a565b5050565b60155481565b5f612147612b30565b73ffffffffffffffffffffffffffffffffffffffff1660095f9054906101000a900473ffffffffffffffffffffffffffffffffffffffff1673ffffffffffffffffffffffffffffffffffffffff1614806121da57506121a4612b30565b73ffffffffffffffffffffffffffffffffffffffff166121c26122f0565b73ffffffffffffffffffffffffffffffffffffffff16145b612219576040517f08c379a000000000000000000000000000000000000000000000000000000000815260040161221090614c6f565b60405180910390fd5b620186a06001612227610b44565b6122319190614fb6565b61223b9190615024565b82101561227d576040517f08c379a0000000000000000000000000000000000000000000000000000000008152600401612274906150c4565b60405180910390fd5b6103e8600561228a610b44565b6122949190614fb6565b61229e9190615024565b8211156122e0576040517f08c379a00000000000000000000000000000000000000000000000000000000081526004016122d790615152565b60405180910390fd5b81600c8190555060019050919050565b5f60055f9054906101000a900473ffffffffffffffffffffffffffffffffffffffff16905090565b60606004805461232790614a9f565b80601f016020809104026020016040519081016040528092919081815260200182805461235390614a9f565b801561239e5780601f106123755761010080835404028352916020019161239e565b820191905f5260205f20905b81548152906001019060200180831161238157829003601f168201915b5050505050905090565b5f601f5f8473ffffffffffffffffffffffffffffffffffffffff1673ffffffffffffffffffffffffffffffffffffffff1681526020019081526020015f205f8381526020019081526020015f2060020154905092915050565b5f5f61240b612b30565b90505f60015f8373ffffffffffffffffffffffffffffffffffffffff1673ffffffffffffffffffffffffffffffffffffffff1681526020019081526020015f205f8673ffffffffffffffffffffffffffffffffffffffff1673ffffffffffffffffffffffffffffffffffffffff1681526020019081526020015f20549050838110156124cc576040517f08c379a00000000000000000000000000000000000000000000000000000000081526004016124c3906151e0565b60405180910390fd5b6124d98286868403612b37565b60019250505092915050565b5f5f6124ef612b30565b90506124fc818585612d85565b600191505092915050565b61250f612b30565b73ffffffffffffffffffffffffffffffffffffffff1660095f9054906101000a900473ffffffffffffffffffffffffffffffffffffffff1673ffffffffffffffffffffffffffffffffffffffff1614806125a2575061256c612b30565b73ffffffffffffffffffffffffffffffffffffffff1661258a6122f0565b73ffffffffffffffffffffffffffffffffffffffff16145b6125e1576040517f08c379a00000000000000000000000000000000000000000000000000000000081526004016125d890614c6f565b60405180910390fd5b80601b5f8473ffffffffffffffffffffffffffffffffffffffff1673ffffffffffffffffffffffffffffffffffffffff1681526020019081526020015f205f6101000a81548160ff0219169083151502179055505050565b612641612b30565b73ffffffffffffffffffffffffffffffffffffffff1660095f9054906101000a900473ffffffffffffffffffffffffffffffffffffffff1673ffffffffffffffffffffffffffffffffffffffff1614806126d4575061269e612b30565b73ffffffffffffffffffffffffffffffffffffffff166126bc6122f0565b73ffffffffffffffffffffffffffffffffffffffff16145b612713576040517f08c379a000000000000000000000000000000000000000000000000000000000815260040161270a90614c6f565b60405180910390fd5b8060095f6101000a81548173ffffffffffffffffffffffffffffffffffffffff021916908373ffffffffffffffffffffffffffffffffffffffff16021790555050565b600a5481565b600c5481565b61276a612b30565b73ffffffffffffffffffffffffffffffffffffffff1660095f9054906101000a900473ffffffffffffffffffffffffffffffffffffffff1673ffffffffffffffffffffffffffffffffffffffff1614806127fd57506127c7612b30565b73ffffffffffffffffffffffffffffffffffffffff166127e56122f0565b73ffffffffffffffffffffffffffffffffffffffff16145b61283c576040517f08c379a000000000000000000000000000000000000000000000000000000000815260040161283390614c6f565b60405180910390fd5b5f60405180604001604052804281526020015f8152509050602181908060018154018082558091505060019003905f5260205f2090600202015f909190919091505f820151815f015560208201518160010155505050565b601a5481565b60065481565b5f60015f8473ffffffffffffffffffffffffffffffffffffffff1673ffffffffffffffffffffffffffffffffffffffff1681526020019081526020015f205f8373ffffffffffffffffffffffffffffffffffffffff1673ffffffffffffffffffffffffffffffffffffffff1681526020019081526020015f2054905092915050565b61292a612b30565b73ffffffffffffffffffffffffffffffffffffffff1660095f9054906101000a900473ffffffffffffffffffffffffffffffffffffffff1673ffffffffffffffffffffffffffffffffffffffff1614806129bd5750612987612b30565b73ffffffffffffffffffffffffffffffffffffffff166129a56122f0565b73ffffffffffffffffffffffffffffffffffffffff16145b6129fc576040517f08c379a00000000000000000000000000000000000000000000000000000000081526004016129f390614c6f565b60405180910390fd5b612a0d612a0830611c35565b613d36565b565b612a17612b30565b73ffffffffffffffffffffffffffffffffffffffff16612a356122f0565b73ffffffffffffffffffffffffffffffffffffffff1614612a8b576040517f08c379a0000000000000000000000000000000000000000000000000000000008152600401612a8290614b19565b60405180910390fd5b5f73ffffffffffffffffffffffffffffffffffffffff168173ffffffffffffffffffffffffffffffffffffffff1603612af9576040517f08c379a0000000000000000000000000000000000000000000000000000000008152600401612af09061526e565b60405180910390fd5b612b0281613aa7565b50565b60175f9054906101000a900473ffffffffffffffffffffffffffffffffffffffff1681565b600b5481565b5f33905090565b5f73ffffffffffffffffffffffffffffffffffffffff168373ffffffffffffffffffffffffffffffffffffffff1603612ba5576040517f08c379a0000000000000000000000000000000000000000000000000000000008152600401612b9c906152fc565b60405180910390fd5b5f73ffffffffffffffffffffffffffffffffffffffff168273ffffffffffffffffffffffffffffffffffffffff1603612c13576040517f08c379a0000000000000000000000000000000000000000000000000000000008152600401612c0a9061538a565b60405180910390fd5b8060015f8573ffffffffffffffffffffffffffffffffffffffff1673ffffffffffffffffffffffffffffffffffffffff1681526020019081526020015f205f8473ffffffffffffffffffffffffffffffffffffffff1673ffffffffffffffffffffffffffffffffffffffff1681526020019081526020015f20819055508173ffffffffffffffffffffffffffffffffffffffff168373ffffffffffffffffffffffffffffffffffffffff167f8c5be1e5ebec7d5bd14f71427d1e84f3dd0314c0f7b2291e5b200ac8c7c3b92583604051612ced91906146b9565b60405180910390a3505050565b5f612d0584846128a0565b90507fffffffffffffffffffffffffffffffffffffffffffffffffffffffffffffffff8114612d7f5781811015612d71576040517f08c379a0000000000000000000000000000000000000000000000000000000008152600401612d68906153f2565b60405180910390fd5b612d7e8484848403612b37565b5b50505050565b5f73ffffffffffffffffffffffffffffffffffffffff168373ffffffffffffffffffffffffffffffffffffffff1603612df3576040517f08c379a0000000000000000000000000000000000000000000000000000000008152600401612dea90615480565b60405180910390fd5b5f73ffffffffffffffffffffffffffffffffffffffff168273ffffffffffffffffffffffffffffffffffffffff1603612e61576040517f08c379a0000000000000000000000000000000000000000000000000000000008152600401612e589061550e565b60405180910390fd5b5f8103612e7857612e7383835f613f6c565b6137aa565b600d5f9054906101000a900460ff16156133e557612e946122f0565b73ffffffffffffffffffffffffffffffffffffffff168373ffffffffffffffffffffffffffffffffffffffff1614158015612f025750612ed26122f0565b73ffffffffffffffffffffffffffffffffffffffff168273ffffffffffffffffffffffffffffffffffffffff1614155b8015612f3c575061dead73ffffffffffffffffffffffffffffffffffffffff168273ffffffffffffffffffffffffffffffffffffffff1614155b8015612f555750600860149054906101000a900460ff16155b156133e457612f626122f0565b73ffffffffffffffffffffffffffffffffffffffff168273ffffffffffffffffffffffffffffffffffffffff1614158015612fea575060075f9054906101000a900473ffffffffffffffffffffffffffffffffffffffff1673ffffffffffffffffffffffffffffffffffffffff168273ffffffffffffffffffffffffffffffffffffffff1614155b8015613043575060085f9054906101000a900473ffffffffffffffffffffffffffffffffffffffff1673ffffffffffffffffffffffffffffffffffffffff168273ffffffffffffffffffffffffffffffffffffffff1614155b1561310a5743601e5f3273ffffffffffffffffffffffffffffffffffffffff1673ffffffffffffffffffffffffffffffffffffffff1681526020019081526020015f2054106130c7576040517f08c379a00000000000000000000000000000000000000000000000000000000081526004016130be906155c2565b60405180910390fd5b43601e5f3273ffffffffffffffffffffffffffffffffffffffff1673ffffffffffffffffffffffffffffffffffffffff1681526020019081526020015f20819055505b601d5f8473ffffffffffffffffffffffffffffffffffffffff1673ffffffffffffffffffffffffffffffffffffffff1681526020019081526020015f205f9054906101000a900460ff1680156131a75750601c5f8373ffffffffffffffffffffffffffffffffffffffff1673ffffffffffffffffffffffffffffffffffffffff1681526020019081526020015f205f9054906101000a900460ff16155b1561324e57600a548111156131f1576040517f08c379a00000000000000000000000000000000000000000000000000000000081526004016131e890615676565b60405180910390fd5b600b546131fd83611c35565b826132089190614b64565b1115613249576040517f08c379a0000000000000000000000000000000000000000000000000000000008152600401613240906156de565b60405180910390fd5b6133e3565b601d5f8373ffffffffffffffffffffffffffffffffffffffff1673ffffffffffffffffffffffffffffffffffffffff1681526020019081526020015f205f9054906101000a900460ff1680156132eb5750601c5f8473ffffffffffffffffffffffffffffffffffffffff1673ffffffffffffffffffffffffffffffffffffffff1681526020019081526020015f205f9054906101000a900460ff16155b1561333a57600a54811115613335576040517f08c379a000000000000000000000000000000000000000000000000000000000815260040161332c90615792565b60405180910390fd5b6133e2565b601c5f8373ffffffffffffffffffffffffffffffffffffffff1673ffffffffffffffffffffffffffffffffffffffff1681526020019081526020015f205f9054906101000a900460ff166133e157600b5461339483611c35565b8261339f9190614b64565b11156133e0576040517f08c379a00000000000000000000000000000000000000000000000000000000081526004016133d7906156de565b60405180910390fd5b5b5b5b5b5b5f6133ef30611c35565b90505f600c5482101590508080156134145750600860149054906101000a900460ff16155b80156134675750601d5f8673ffffffffffffffffffffffffffffffffffffffff1673ffffffffffffffffffffffffffffffffffffffff1681526020019081526020015f205f9054906101000a900460ff16155b80156134ba5750601b5f8673ffffffffffffffffffffffffffffffffffffffff1673ffffffffffffffffffffffffffffffffffffffff1681526020019081526020015f205f9054906101000a900460ff16155b801561350d5750601b5f8573ffffffffffffffffffffffffffffffffffffffff1673ffffffffffffffffffffffffffffffffffffffff1681526020019081526020015f205f9054906101000a900460ff16155b15613550576001600860146101000a81548160ff0219169083151502179055506135356141e1565b5f600860146101000a81548160ff0219169083151502179055505b5f600860149054906101000a900460ff16159050601b5f8773ffffffffffffffffffffffffffffffffffffffff1673ffffffffffffffffffffffffffffffffffffffff1681526020019081526020015f205f9054906101000a900460ff16806135ff5750601b5f8673ffffffffffffffffffffffffffffffffffffffff1673ffffffffffffffffffffffffffffffffffffffff1681526020019081526020015f205f9054906101000a900460ff165b806136a45750601d5f8773ffffffffffffffffffffffffffffffffffffffff1673ffffffffffffffffffffffffffffffffffffffff1681526020019081526020015f205f9054906101000a900460ff161580156136a35750601d5f8673ffffffffffffffffffffffffffffffffffffffff1673ffffffffffffffffffffffffffffffffffffffff1681526020019081526020015f205f9054906101000a900460ff16155b5b156136ad575f90505b5f5f9050811561379a576136df60646136d1600e54886143bb90919063ffffffff16565b6143d090919063ffffffff16565b9050600e54601054826136f29190614fb6565b6136fc9190615024565b60135f82825461370c9190614b64565b92505081905550600e54601154826137249190614fb6565b61372e9190615024565b60145f82825461373e9190614b64565b92505081905550600e54600f54826137569190614fb6565b6137609190615024565b60125f8282546137709190614b64565b925050819055505f81111561378b5761378a873083613f6c565b5b80856137979190614e8d565b94505b6137a5878787613f6c565b505050505b505050565b5f81836137bc9190614b64565b905092915050565b5f73ffffffffffffffffffffffffffffffffffffffff168273ffffffffffffffffffffffffffffffffffffffff1603613832576040517f08c379a0000000000000000000000000000000000000000000000000000000008152600401613829906157fa565b60405180910390fd5b61383d5f83836143e5565b8060025f82825461384e9190614b64565b92505081905550805f5f8473ffffffffffffffffffffffffffffffffffffffff1673ffffffffffffffffffffffffffffffffffffffff1681526020019081526020015f205f8282546138a09190614b64565b925050819055508173ffffffffffffffffffffffffffffffffffffffff165f73ffffffffffffffffffffffffffffffffffffffff167fddf252ad1be2c89b69c2b068fc378daa952ba7f163c4a11628f55a4df523b3ef8360405161390491906146b9565b60405180910390a36139175f83836143ea565b5050565b5f6139268383610c8c565b613965576040517f08c379a000000000000000000000000000000000000000000000000000000000815260040161395c90615862565b60405180910390fd5b5f61397084846123a8565b90505f6139d66001601f5f8873ffffffffffffffffffffffffffffffffffffffff1673ffffffffffffffffffffffffffffffffffffffff1681526020019081526020015f205f8781526020019081526020015f20600101546143d090919063ffffffff16565b90505f6139ed6001426143d090919063ffffffff16565b90505f613a0383836143ef90919063ffffffff16565b90505f613a2e6064613a20601854886143bb90919063ffffffff16565b6143d090919063ffffffff16565b90505f613a7f603c613a71603c613a636018613a5561016d896143d090919063ffffffff16565b6143d090919063ffffffff16565b6143d090919063ffffffff16565b6143d090919063ffffffff16565b90505f613a9584836143bb90919063ffffffff16565b90508097505050505050505092915050565b5f60055f9054906101000a900473ffffffffffffffffffffffffffffffffffffffff1690508160055f6101000a81548173ffffffffffffffffffffffffffffffffffffffff021916908373ffffffffffffffffffffffffffffffffffffffff1602179055508173ffffffffffffffffffffffffffffffffffffffff168173ffffffffffffffffffffffffffffffffffffffff167f8be0079c531659141344cd1fd0a4f28419497f9722a3daafe3b4186f6b6457e060405160405180910390a35050565b5f73ffffffffffffffffffffffffffffffffffffffff168273ffffffffffffffffffffffffffffffffffffffff1603613bd8576040517f08c379a0000000000000000000000000000000000000000000000000000000008152600401613bcf906158f0565b60405180910390fd5b613be3825f836143e5565b5f5f5f8473ffffffffffffffffffffffffffffffffffffffff1673ffffffffffffffffffffffffffffffffffffffff1681526020019081526020015f2054905081811015613c66576040517f08c379a0000000000000000000000000000000000000000000000000000000008152600401613c5d9061597e565b60405180910390fd5b8181035f5f8573ffffffffffffffffffffffffffffffffffffffff1673ffffffffffffffffffffffffffffffffffffffff1681526020019081526020015f20819055508160025f828254613cba9190614e8d565b925050819055505f73ffffffffffffffffffffffffffffffffffffffff168373ffffffffffffffffffffffffffffffffffffffff167fddf252ad1be2c89b69c2b068fc378daa952ba7f163c4a11628f55a4df523b3ef84604051613d1e91906146b9565b60405180910390a3613d31835f846143ea565b505050565b5f600267ffffffffffffffff811115613d5257613d5161599c565b5b604051908082528060200260200182016040528015613d805781602001602082028036833780820191505090505b50905030815f81518110613d9757613d96614e60565b5b602002602001019073ffffffffffffffffffffffffffffffffffffffff16908173ffffffffffffffffffffffffffffffffffffffff168152505060075f9054906101000a900473ffffffffffffffffffffffffffffffffffffffff1673ffffffffffffffffffffffffffffffffffffffff1663ad5c46486040518163ffffffff1660e01b8152600401602060405180830381865afa158015613e3b573d5f5f3e3d5ffd5b505050506040513d601f19601f82011682018060405250810190613e5f9190614ca1565b81600181518110613e7357613e72614e60565b5b602002602001019073ffffffffffffffffffffffffffffffffffffffff16908173ffffffffffffffffffffffffffffffffffffffff1681525050613ed93060075f9054906101000a900473ffffffffffffffffffffffffffffffffffffffff1684612b37565b60075f9054906101000a900473ffffffffffffffffffffffffffffffffffffffff1673ffffffffffffffffffffffffffffffffffffffff1663791ac947835f8430426040518663ffffffff1660e01b8152600401613f3b959493929190615a80565b5f604051808303815f87803b158015613f52575f5ffd5b505af1158015613f64573d5f5f3e3d5ffd5b505050505050565b5f73ffffffffffffffffffffffffffffffffffffffff168373ffffffffffffffffffffffffffffffffffffffff1603613fda576040517f08c379a0000000000000000000000000000000000000000000000000000000008152600401613fd190615480565b60405180910390fd5b5f73ffffffffffffffffffffffffffffffffffffffff168273ffffffffffffffffffffffffffffffffffffffff1603614048576040517f08c379a000000000000000000000000000000000000000000000000000000000815260040161403f9061550e565b60405180910390fd5b6140538383836143e5565b5f5f5f8573ffffffffffffffffffffffffffffffffffffffff1673ffffffffffffffffffffffffffffffffffffffff1681526020019081526020015f20549050818110156140d6576040517f08c379a00000000000000000000000000000000000000000000000000000000081526004016140cd90615b48565b60405180910390fd5b8181035f5f8673ffffffffffffffffffffffffffffffffffffffff1673ffffffffffffffffffffffffffffffffffffffff1681526020019081526020015f2081905550815f5f8573ffffffffffffffffffffffffffffffffffffffff1673ffffffffffffffffffffffffffffffffffffffff1681526020019081526020015f205f8282546141649190614b64565b925050819055508273ffffffffffffffffffffffffffffffffffffffff168473ffffffffffffffffffffffffffffffffffffffff167fddf252ad1be2c89b69c2b068fc378daa952ba7f163c4a11628f55a4df523b3ef846040516141c891906146b9565b60405180910390a36141db8484846143ea565b50505050565b5f6141eb30611c35565b90505f6014546012546013546142019190614b64565b61420b9190614b64565b90505f82148061421a57505f81145b156142265750506143b9565b600c5482111561423657600c5491505b5f600282601354856142489190614fb6565b6142529190615024565b61425c9190615024565b90505f61427282856143ef90919063ffffffff16565b90505f47905061428182613d36565b5f61429582476143ef90919063ffffffff16565b90505f6142bf866142b1601254856143bb90919063ffffffff16565b6143d090919063ffffffff16565b90505f6142e9876142db601454866143bb90919063ffffffff16565b6143d090919063ffffffff16565b90505f8183856142f99190614e8d565b6143039190614e8d565b90505f6013819055505f6012819055505f60148190555060095f9054906101000a900473ffffffffffffffffffffffffffffffffffffffff1673ffffffffffffffffffffffffffffffffffffffff166108fc61436884866137af90919063ffffffff16565b90811502906040515f60405180830381858888f19350505050158015614390573d5f5f3e3d5ffd5b505f8711801561439f57505f81115b156143af576143ae8782614404565b5b5050505050505050505b565b5f81836143c89190614fb6565b905092915050565b5f81836143dd9190615024565b905092915050565b505050565b505050565b5f81836143fc9190614e8d565b905092915050565b6144303060075f9054906101000a900473ffffffffffffffffffffffffffffffffffffffff1684612b37565b60075f9054906101000a900473ffffffffffffffffffffffffffffffffffffffff1673ffffffffffffffffffffffffffffffffffffffff1663f305d7198230855f5f60095f9054906101000a900473ffffffffffffffffffffffffffffffffffffffff16426040518863ffffffff1660e01b81526004016144b696959493929190614d35565b60606040518083038185885af11580156144d2573d5f5f3e3d5ffd5b50505050506040513d601f19601f820116820180604052508101906144f79190614da8565b5050505050565b604051806040016040528060608152602001606081525090565b5f81519050919050565b5f82825260208201905092915050565b8281835e5f83830152505050565b5f601f19601f8301169050919050565b5f61455a82614518565b6145648185614522565b9350614574818560208601614532565b61457d81614540565b840191505092915050565b5f6020820190508181035f8301526145a08184614550565b905092915050565b5f5ffd5b5f73ffffffffffffffffffffffffffffffffffffffff82169050919050565b5f6145d5826145ac565b9050919050565b6145e5816145cb565b81146145ef575f5ffd5b50565b5f81359050614600816145dc565b92915050565b5f819050919050565b61461881614606565b8114614622575f5ffd5b50565b5f813590506146338161460f565b92915050565b5f5f6040838503121561464f5761464e6145a8565b5b5f61465c858286016145f2565b925050602061466d85828601614625565b9150509250929050565b5f8115159050919050565b61468b81614677565b82525050565b5f6020820190506146a45f830184614682565b92915050565b6146b381614606565b82525050565b5f6020820190506146cc5f8301846146aa565b92915050565b5f5f5f606084860312156146e9576146e86145a8565b5b5f6146f686828701614625565b935050602061470786828701614625565b925050604061471886828701614625565b9150509250925092565b5f5f5f60608486031215614739576147386145a8565b5b5f614746868287016145f2565b9350506020614757868287016145f2565b925050604061476886828701614625565b9150509250925092565b5f60208284031215614787576147866145a8565b5b5f61479484828501614625565b91505092915050565b5f60ff82169050919050565b6147b28161479d565b82525050565b5f6020820190506147cb5f8301846147a9565b92915050565b5f6040820190506147e45f8301856146aa565b6147f160208301846146aa565b9392505050565b61480181614677565b811461480b575f5ffd5b50565b5f8135905061481c816147f8565b92915050565b5f60208284031215614837576148366145a8565b5b5f6148448482850161480e565b91505092915050565b5f60208284031215614862576148616145a8565b5b5f61486f848285016145f2565b91505092915050565b5f81519050919050565b5f82825260208201905092915050565b5f819050602082019050919050565b6148aa81614606565b82525050565b5f6148bb83836148a1565b60208301905092915050565b5f602082019050919050565b5f6148dd82614878565b6148e78185614882565b93506148f283614892565b805f5b8381101561492257815161490988826148b0565b9750614914836148c7565b9250506001810190506148f5565b5085935050505092915050565b5f604083015f8301518482035f86015261494982826148d3565b9150506020830151848203602086015261496382826148d3565b9150508091505092915050565b5f6020820190508181035f830152614988818461492f565b905092915050565b614999816145cb565b82525050565b5f6020820190506149b25f830184614990565b92915050565b5f5f604083850312156149ce576149cd6145a8565b5b5f6149db85828601614625565b92505060206149ec85828601614625565b9150509250929050565b5f5f60408385031215614a0c57614a0b6145a8565b5b5f614a19858286016145f2565b9250506020614a2a8582860161480e565b9150509250929050565b5f5f60408385031215614a4a57614a496145a8565b5b5f614a57858286016145f2565b9250506020614a68858286016145f2565b9150509250929050565b7f4e487b71000000000000000000000000000000000000000000000000000000005f52602260045260245ffd5b5f6002820490506001821680614ab657607f821691505b602082108103614ac957614ac8614a72565b5b50919050565b7f4f776e61626c653a2063616c6c6572206973206e6f7420746865206f776e65725f82015250565b5f614b03602083614522565b9150614b0e82614acf565b602082019050919050565b5f6020820190508181035f830152614b3081614af7565b9050919050565b7f4e487b71000000000000000000000000000000000000000000000000000000005f52601160045260245ffd5b5f614b6e82614606565b9150614b7983614606565b9250828201905080821115614b9157614b90614b37565b5b92915050565b7f4d757374206b6565702066656573206174203625206f72206c657373000000005f82015250565b5f614bcb601c83614522565b9150614bd682614b97565b602082019050919050565b5f6020820190508181035f830152614bf881614bbf565b9050919050565b7f43616c6c6572206973206e6f7420746865205f737761704665655265636569765f8201527f65722061646472657373206e6f72206f776e65722e0000000000000000000000602082015250565b5f614c59603583614522565b9150614c6482614bff565b604082019050919050565b5f6020820190508181035f830152614c8681614c4d565b9050919050565b5f81519050614c9b816145dc565b92915050565b5f60208284031215614cb657614cb56145a8565b5b5f614cc384828501614c8d565b91505092915050565b5f604082019050614cdf5f830185614990565b614cec6020830184614990565b9392505050565b5f819050919050565b5f819050919050565b5f614d1f614d1a614d1584614cf3565b614cfc565b614606565b9050919050565b614d2f81614d05565b82525050565b5f60c082019050614d485f830189614990565b614d5560208301886146aa565b614d626040830187614d26565b614d6f6060830186614d26565b614d7c6080830185614990565b614d8960a08301846146aa565b979650505050505050565b5f81519050614da28161460f565b92915050565b5f5f5f60608486031215614dbf57614dbe6145a8565b5b5f614dcc86828701614d94565b9350506020614ddd86828701614d94565b9250506040614dee86828701614d94565b9150509250925092565b7f596f7520617265206e6f74207374616b696e67213f00000000000000000000005f82015250565b5f614e2c601583614522565b9150614e3782614df8565b602082019050919050565b5f6020820190508181035f830152614e5981614e20565b9050919050565b7f4e487b71000000000000000000000000000000000000000000000000000000005f52603260045260245ffd5b5f614e9782614606565b9150614ea283614606565b9250828203905081811115614eba57614eb9614b37565b5b92915050565b7f5374616b696e67206973206e6f7420656e61626c65642e0000000000000000005f82015250565b5f614ef4601783614522565b9150614eff82614ec0565b602082019050919050565b5f6020820190508181035f830152614f2181614ee8565b9050919050565b7f546865726520617265206e6f206d6f72652072657761726473206c65667420745f8201527f6f20626520636c61696d65642e00000000000000000000000000000000000000602082015250565b5f614f82602d83614522565b9150614f8d82614f28565b604082019050919050565b5f6020820190508181035f830152614faf81614f76565b9050919050565b5f614fc082614606565b9150614fcb83614606565b9250828202614fd981614606565b91508282048414831517614ff057614fef614b37565b5b5092915050565b7f4e487b71000000000000000000000000000000000000000000000000000000005f52601260045260245ffd5b5f61502e82614606565b915061503983614606565b92508261504957615048614ff7565b5b828204905092915050565b7f53776170207468726573686f6c642063616e6e6f74206265206c6f77657220745f8201527f68616e20302e3030312520746f74616c20737570706c792e0000000000000000602082015250565b5f6150ae603883614522565b91506150b982615054565b604082019050919050565b5f6020820190508181035f8301526150db816150a2565b9050919050565b7f53776170207468726573686f6c642063616e6e6f7420626520686967686572205f8201527f7468616e20302e352520746f74616c20737570706c792e000000000000000000602082015250565b5f61513c603783614522565b9150615147826150e2565b604082019050919050565b5f6020820190508181035f83015261516981615130565b9050919050565b7f45524332303a2064656372656173656420616c6c6f77616e63652062656c6f775f8201527f207a65726f000000000000000000000000000000000000000000000000000000602082015250565b5f6151ca602583614522565b91506151d582615170565b604082019050919050565b5f6020820190508181035f8301526151f7816151be565b9050919050565b7f4f776e61626c653a206e6577206f776e657220697320746865207a65726f20615f8201527f6464726573730000000000000000000000000000000000000000000000000000602082015250565b5f615258602683614522565b9150615263826151fe565b604082019050919050565b5f6020820190508181035f8301526152858161524c565b9050919050565b7f45524332303a20617070726f76652066726f6d20746865207a65726f206164645f8201527f7265737300000000000000000000000000000000000000000000000000000000602082015250565b5f6152e6602483614522565b91506152f18261528c565b604082019050919050565b5f6020820190508181035f830152615313816152da565b9050919050565b7f45524332303a20617070726f766520746f20746865207a65726f2061646472655f8201527f7373000000000000000000000000000000000000000000000000000000000000602082015250565b5f615374602283614522565b915061537f8261531a565b604082019050919050565b5f6020820190508181035f8301526153a181615368565b9050919050565b7f45524332303a20696e73756666696369656e7420616c6c6f77616e63650000005f82015250565b5f6153dc601d83614522565b91506153e7826153a8565b602082019050919050565b5f6020820190508181035f830152615409816153d0565b9050919050565b7f45524332303a207472616e736665722066726f6d20746865207a65726f2061645f8201527f6472657373000000000000000000000000000000000000000000000000000000602082015250565b5f61546a602583614522565b915061547582615410565b604082019050919050565b5f6020820190508181035f8301526154978161545e565b9050919050565b7f45524332303a207472616e7366657220746f20746865207a65726f20616464725f8201527f6573730000000000000000000000000000000000000000000000000000000000602082015250565b5f6154f8602383614522565b91506155038261549e565b604082019050919050565b5f6020820190508181035f830152615525816154ec565b9050919050565b7f5f7472616e736665723a3a205472616e736665722044656c617920656e61626c5f8201527f65642e20204f6e6c79206f6e652070757263686173652070657220626c6f636b60208201527f20616c6c6f7765642e0000000000000000000000000000000000000000000000604082015250565b5f6155ac604983614522565b91506155b78261552c565b606082019050919050565b5f6020820190508181035f8301526155d9816155a0565b9050919050565b7f5f7472616e736665723a3a20427579207472616e7366657220616d6f756e74205f8201527f6578636565647320746865206d61785472616e73616374696f6e416d6f756e7460208201527f2e00000000000000000000000000000000000000000000000000000000000000604082015250565b5f615660604183614522565b915061566b826155e0565b606082019050919050565b5f6020820190508181035f83015261568d81615654565b9050919050565b7f5f7472616e736665723a3a204d61782077616c6c6574206578636565646564005f82015250565b5f6156c8601f83614522565b91506156d382615694565b602082019050919050565b5f6020820190508181035f8301526156f5816156bc565b9050919050565b7f5f7472616e736665723a3a2053656c6c207472616e7366657220616d6f756e745f8201527f206578636565647320746865206d61785472616e73616374696f6e416d6f756e60208201527f742e000000000000000000000000000000000000000000000000000000000000604082015250565b5f61577c604283614522565b9150615787826156fc565b606082019050919050565b5f6020820190508181035f8301526157a981615770565b9050919050565b7f45524332303a206d696e7420746f20746865207a65726f2061646472657373005f82015250565b5f6157e4601f83614522565b91506157ef826157b0565b602082019050919050565b5f6020820190508181035f830152615811816157d8565b9050919050565b7f55736572206973206e6f74207374616b696e672e0000000000000000000000005f82015250565b5f61584c601483614522565b915061585782615818565b602082019050919050565b5f6020820190508181035f83015261587981615840565b9050919050565b7f45524332303a206275726e2066726f6d20746865207a65726f206164647265735f8201527f7300000000000000000000000000000000000000000000000000000000000000602082015250565b5f6158da602183614522565b91506158e582615880565b604082019050919050565b5f6020820190508181035f830152615907816158ce565b9050919050565b7f45524332303a206275726e20616d6f756e7420657863656564732062616c616e5f8201527f6365000000000000000000000000000000000000000000000000000000000000602082015250565b5f615968602283614522565b91506159738261590e565b604082019050919050565b5f6020820190508181035f8301526159958161595c565b9050919050565b7f4e487b71000000000000000000000000000000000000000000000000000000005f52604160045260245ffd5b5f81519050919050565b5f82825260208201905092915050565b5f819050602082019050919050565b6159fb816145cb565b82525050565b5f615a0c83836159f2565b60208301905092915050565b5f602082019050919050565b5f615a2e826159c9565b615a3881856159d3565b9350615a43836159e3565b805f5b83811015615a73578151615a5a8882615a01565b9750615a6583615a18565b925050600181019050615a46565b5085935050505092915050565b5f60a082019050615a935f8301886146aa565b615aa06020830187614d26565b8181036040830152615ab28186615a24565b9050615ac16060830185614990565b615ace60808301846146aa565b9695505050505050565b7f45524332303a207472616e7366657220616d6f756e74206578636565647320625f8201527f616c616e63650000000000000000000000000000000000000000000000000000602082015250565b5f615b32602683614522565b9150615b3d82615ad8565b604082019050919050565b5f6020820190508181035f830152615b5f81615b26565b905091905056fea26469706673582212200a2bc248b7d271b19ffe12707107e236344ad0e8782393cafc293d5fc26c6aa864736f6c634300081e0033","linkReferences":{}},"methodIdentifiers":{"allowance(address,address)":"dd62ed3e","amountOfValidators()":"590654e9","approve(address,uint256)":"095ea7b3","apr()":"57ded9c9","balanceOf(address)":"70a08231","claim(uint256)":"379607f5","createValidator()":"d125ca18","decimals()":"313ce567","decreaseAllowance(address,uint256)":"a457c2d7","excludeFromFees(address,bool)":"c0246668","forceSwap()":"df778d26","increaseAllowance(address,uint256)":"39509351","isExcludedFromFees(address)":"4fbee193","isStaking(address,uint256)":"245fc1ba","limitsInEffect()":"4a62bb65","maxSupply()":"d5abeb01","maxTransactionAmount()":"c8c8ebe4","maxWallet()":"f8b45b05","name()":"06fdde03","owner()":"8da5cb5b","removeLimits()":"751039fc","renounceOwnership()":"715018a6","rewardToken()":"f7c618c1","setStakingState(bool)":"3b51e5cf","stake(uint256,uint256)":"7b0472f0","stakingEnabled()":"1cfff51b","stakingToken()":"72f702f3","startTrading()":"293230b8","swapTokensThreshold()":"cef85139","symbol()":"95d89b41","totalClaimed()":"d54ad2a1","totalFees()":"13114a9d","totalStaked()":"817b1cd2","totalSupply()":"18160ddd","transfer(address,uint256)":"a9059cbb","transferFrom(address,address,uint256)":"23b872dd","transferOwnership(address)":"f2fde38b","unstake(uint256)":"2e17de78","updateFeeReceiver(address)":"c69bebe4","updateFees(uint256,uint256,uint256)":"22429085","updateSwapTokensThreshold(uint256)":"8baa63b2","userClaimHistory(address)":"6ceb23a1","userEarned(address,uint256)":"4093e7d5","userStaked(address,uint256)":"a39b2153","validators(uint256)":"35aa2e44","withdrawContractETH()":"3dd5b2da"},"id":1}