{"abi":[{"type":"constructor","inputs":[],"stateMutability":"nonpayable"},{"type":"receive","stateMutability":"payable"},{"type":"function","name":"MIM","inputs":[],"outputs":[{"name":"","type":"address","internalType":"address"}],"stateMutability":"view"},{"type":"function","name":"TARGET","inputs":[],"outputs":[{"name":"","type":"address","internalType":"address"}],"stateMutability":"view"},{"type":"function","name":"bentoBoxAddress","inputs":[],"outputs":[{"name":"","type":"address","internalType":"address"}],"stateMutability":"view"},{"type":"function","name":"borrowPathUsed","inputs":[],"outputs":[{"name":"","type":"bool","internalType":"bool"}],"stateMutability":"view"},{"type":"function","name":"borrowedMimAmount","inputs":[],"outputs":[{"name":"","type":"uint256","internalType":"uint256"}],"stateMutability":"view"},{"type":"function","name":"borrowedMimShare","inputs":[],"outputs":[{"name":"","type":"uint256","internalType":"uint256"}],"stateMutability":"view"},{"type":"function","name":"collateralShareAdded","inputs":[],"outputs":[{"name":"","type":"uint256","internalType":"uint256"}],"stateMutability":"view"},{"type":"function","name":"collateralShareRemoved","inputs":[],"outputs":[{"name":"","type":"uint256","internalType":"uint256"}],"stateMutability":"view"},{"type":"function","name":"collateralToken","inputs":[],"outputs":[{"name":"","type":"address","internalType":"address"}],"stateMutability":"view"},{"type":"function","name":"execute","inputs":[],"outputs":[],"stateMutability":"nonpayable"},{"type":"function","name":"executeOnOpportunity","inputs":[],"outputs":[],"stateMutability":"nonpayable"},{"type":"function","name":"exploit","inputs":[],"outputs":[],"stateMutability":"nonpayable"},{"type":"function","name":"flashCollateralAmount","inputs":[],"outputs":[{"name":"","type":"uint256","internalType":"uint256"}],"stateMutability":"view"},{"type":"function","name":"flashCollateralFee","inputs":[],"outputs":[{"name":"","type":"uint256","internalType":"uint256"}],"stateMutability":"view"},{"type":"function","name":"hypothesisRefuted","inputs":[],"outputs":[{"name":"","type":"bool","internalType":"bool"}],"stateMutability":"view"},{"type":"function","name":"hypothesisValidated","inputs":[],"outputs":[{"name":"","type":"bool","internalType":"bool"}],"stateMutability":"view"},{"type":"function","name":"infeasibleReason","inputs":[],"outputs":[{"name":"","type":"bytes32","internalType":"bytes32"}],"stateMutability":"view"},{"type":"function","name":"onFlashLoan","inputs":[{"name":"sender","type":"address","internalType":"address"},{"name":"token","type":"address","internalType":"address"},{"name":"amount","type":"uint256","internalType":"uint256"},{"name":"fee","type":"uint256","internalType":"uint256"},{"name":"","type":"bytes","internalType":"bytes"}],"outputs":[],"stateMutability":"nonpayable"},{"type":"function","name":"postBorrowSolvent","inputs":[],"outputs":[{"name":"","type":"bool","internalType":"bool"}],"stateMutability":"view"},{"type":"function","name":"profitAmount","inputs":[],"outputs":[{"name":"","type":"uint256","internalType":"uint256"}],"stateMutability":"view"},{"type":"function","name":"profitToken","inputs":[],"outputs":[{"name":"","type":"address","internalType":"address"}],"stateMutability":"pure"},{"type":"function","name":"removePathUsed","inputs":[],"outputs":[{"name":"","type":"bool","internalType":"bool"}],"stateMutability":"view"},{"type":"function","name":"run","inputs":[],"outputs":[],"stateMutability":"nonpayable"},{"type":"error","name":"Infeasible","inputs":[{"name":"reason","type":"bytes32","internalType":"bytes32"}]}],"bytecode":{"object":"0x6080604052348015600e575f5ffd5b50613b398061001c5f395ff3fe608060405260043610610143575f3560e01c806363d9b770116100b5578063cc1f2afa1161006e578063cc1f2afa146103c6578063d5b5a557146103f0578063daec383d1461041a578063e7cda06d14610444578063e8fbed3f1461046e578063eb77ff0f146104985761014a565b806363d9b770146102f2578063892d0bd2146103085780639580955814610332578063a66521571461035c578063b2016bd414610386578063c0406226146103b05761014a565b8063495f92f111610107578063495f92f11461020a5780635a6e402b146102345780635ff972cc1461025e57806361461954146102885780636208fdd81461029e57806362695192146102c85761014a565b806323e30c8b1461014e5780633c2448ed146101765780634071084d1461018c578063463defd1146101b657806349343624146101e05761014a565b3661014a57005b5f5ffd5b348015610159575f5ffd5b50610174600480360381019061016f9190612d6c565b6104c2565b005b348015610181575f5ffd5b5061018a610df8565b005b348015610197575f5ffd5b506101a0610e02565b6040516101ad9190612e11565b60405180910390f35b3480156101c1575f5ffd5b506101ca610e08565b6040516101d79190612e44565b60405180910390f35b3480156101eb575f5ffd5b506101f4610e1b565b6040516102019190612e6c565b60405180910390f35b348015610215575f5ffd5b5061021e610e36565b60405161022b9190612e44565b60405180910390f35b34801561023f575f5ffd5b50610248610e49565b6040516102559190612e11565b60405180910390f35b348015610269575f5ffd5b50610272610e4f565b60405161027f9190612e11565b60405180910390f35b348015610293575f5ffd5b5061029c610e58565b005b3480156102a9575f5ffd5b506102b2610e62565b6040516102bf9190612e11565b60405180910390f35b3480156102d3575f5ffd5b506102dc610e68565b6040516102e99190612e44565b60405180910390f35b3480156102fd575f5ffd5b50610306610e7b565b005b348015610313575f5ffd5b5061031c610e85565b6040516103299190612e11565b60405180910390f35b34801561033d575f5ffd5b50610346610e8b565b6040516103539190612e11565b60405180910390f35b348015610367575f5ffd5b50610370610e91565b60405161037d9190612e9d565b60405180910390f35b348015610391575f5ffd5b5061039a610e97565b6040516103a79190612e6c565b60405180910390f35b3480156103bb575f5ffd5b506103c4610ebc565b005b3480156103d1575f5ffd5b506103da610ec6565b6040516103e79190612e6c565b60405180910390f35b3480156103fb575f5ffd5b50610404610ede565b6040516104119190612e44565b60405180910390f35b348015610425575f5ffd5b5061042e610ef1565b60405161043b9190612e6c565b60405180910390f35b34801561044f575f5ffd5b50610458610f09565b6040516104659190612e11565b60405180910390f35b348015610479575f5ffd5b50610482610f0f565b60405161048f9190612e44565b60405180910390f35b3480156104a3575f5ffd5b506104ac610f22565b6040516104b99190612e6c565b60405180910390f35b60025f9054906101000a900473ffffffffffffffffffffffffffffffffffffffff1673ffffffffffffffffffffffffffffffffffffffff163373ffffffffffffffffffffffffffffffffffffffff161461058f576040518060400160405280601281526020017f6261642d62656e746f2d63616c6c6261636b0000000000000000000000000000815250805190602001206040517f5c9c02660000000000000000000000000000000000000000000000000000000081526004016105869190612e9d565b60405180910390fd5b3073ffffffffffffffffffffffffffffffffffffffff168673ffffffffffffffffffffffffffffffffffffffff161461063b576040518060400160405280601081526020017f6261642d666c6173682d73656e64657200000000000000000000000000000000815250805190602001206040517f5c9c02660000000000000000000000000000000000000000000000000000000081526004016106329190612e9d565b60405180910390fd5b60035f9054906101000a900473ffffffffffffffffffffffffffffffffffffffff1673ffffffffffffffffffffffffffffffffffffffff168573ffffffffffffffffffffffffffffffffffffffff1614610708576040518060400160405280600f81526020017f6261642d666c6173682d746f6b656e0000000000000000000000000000000000815250805190602001206040517f5c9c02660000000000000000000000000000000000000000000000000000000081526004016106ff9190612e9d565b60405180910390fd5b5f73ce450a23378859fb5157f4c4cccaf48faa30865b90505f60025f9054906101000a900473ffffffffffffffffffffffffffffffffffffffff16905085600681905550846007819055506107c060035f9054906101000a900473ffffffffffffffffffffffffffffffffffffffff1660025f9054906101000a900473ffffffffffffffffffffffffffffffffffffffff167fffffffffffffffffffffffffffffffffffffffffffffffffffffffffffffffff610f47565b5f8173ffffffffffffffffffffffffffffffffffffffff1663f7888aec60035f9054906101000a900473ffffffffffffffffffffffffffffffffffffffff16306040518363ffffffff1660e01b815260040161081d929190612eb6565b602060405180830381865afa158015610838573d5f5f3e3d5ffd5b505050506040513d601f19601f8201168201806040525081019061085c9190612ef1565b90505f8273ffffffffffffffffffffffffffffffffffffffff166302b9446c60035f9054906101000a900473ffffffffffffffffffffffffffffffffffffffff163073ce450a23378859fb5157f4c4cccaf48faa30865b8c5f6040518663ffffffff1660e01b81526004016108d5959493929190612f5e565b60408051808303815f875af11580156108f0573d5f5f3e3d5ffd5b505050506040513d601f19601f820116820180604052508101906109149190612faf565b9150505f8103610997576040518060400160405280601581526020017f7a65726f2d636f6c6c61746572616c2d73686172650000000000000000000000815250805190602001206040517f5c9c026600000000000000000000000000000000000000000000000000000000815260040161098e9190612e9d565b60405180910390fd5b806008819055508373ffffffffffffffffffffffffffffffffffffffff1663860ffea1306001846040518463ffffffff1660e01b81526004016109dc93929190612fed565b5f604051808303815f87803b1580156109f3575f5ffd5b505af1158015610a05573d5f5f3e3d5ffd5b50505050610a1281610fec565b610a8f576040518060400160405280601281526020017f72656d6f76652d706174682d6661696c65640000000000000000000000000000815250805190602001206040517f5c9c0266000000000000000000000000000000000000000000000000000000008152600401610a869190612e9d565b60405180910390fd5b5f8373ffffffffffffffffffffffffffffffffffffffff1663f7888aec60035f9054906101000a900473ffffffffffffffffffffffffffffffffffffffff16306040518363ffffffff1660e01b8152600401610aec929190612eb6565b602060405180830381865afa158015610b07573d5f5f3e3d5ffd5b505050506040513d601f19601f82011682018060405250810190610b2b9190612ef1565b90505f838211610b3b575f610b48565b8382610b47919061304f565b5b90505f8103610bca576040518060400160405280601681526020017f6e6f2d636f6c6c61746572616c2d72657475726e656400000000000000000000815250805190602001206040517f5c9c0266000000000000000000000000000000000000000000000000000000008152600401610bc19190612e9d565b60405180910390fd5b806009819055508473ffffffffffffffffffffffffffffffffffffffff166397da6d3060035f9054906101000a900473ffffffffffffffffffffffffffffffffffffffff1630305f866040518663ffffffff1660e01b8152600401610c33959493929190613082565b60408051808303815f875af1158015610c4e573d5f5f3e3d5ffd5b505050506040513d601f19601f82011682018060405250810190610c729190612faf565b50505f898b610c8191906130d3565b90508060035f9054906101000a900473ffffffffffffffffffffffffffffffffffffffff1673ffffffffffffffffffffffffffffffffffffffff166370a08231306040518263ffffffff1660e01b8152600401610cde9190612e6c565b602060405180830381865afa158015610cf9573d5f5f3e3d5ffd5b505050506040513d601f19601f82011682018060405250810190610d1d9190612ef1565b1015610d9c576040518060400160405280601981526020017f666c6173682d72657061796d656e742d73686f727466616c6c00000000000000815250805190602001206040517f5c9c0266000000000000000000000000000000000000000000000000000000008152600401610d939190612e9d565b60405180910390fd5b610de960035f9054906101000a900473ffffffffffffffffffffffffffffffffffffffff1660025f9054906101000a900473ffffffffffffffffffffffffffffffffffffffff168361124b565b50505050505050505050505050565b610e0061139a565b565b60085481565b600360179054906101000a900460ff1681565b5f7399d8a9c45b2eca8864373a26d1459e3dff1e17f3905090565b600360189054906101000a900460ff1681565b60075481565b5f600154905090565b610e6061139a565b565b60055481565b600360149054906101000a900460ff1681565b610e8361139a565b565b60065481565b60095481565b600a5481565b60035f9054906101000a900473ffffffffffffffffffffffffffffffffffffffff1681565b610ec461139a565b565b73ce450a23378859fb5157f4c4cccaf48faa30865b81565b600360169054906101000a900460ff1681565b7399d8a9c45b2eca8864373a26d1459e3dff1e17f381565b60045481565b600360159054906101000a900460ff1681565b60025f9054906101000a900473ffffffffffffffffffffffffffffffffffffffff1681565b8273ffffffffffffffffffffffffffffffffffffffff1663dd62ed3e30846040518363ffffffff1660e01b8152600401610f82929190612eb6565b602060405180830381865afa925050508015610fbc57506040513d601f19601f82011682018060405250810190610fb99190612ef1565b60015b15610fd057818110610fce5750610fe7565b505b610fdb83835f6116c7565b610fe68383836116c7565b5b505050565b5f5f600267ffffffffffffffff81111561100957611008613106565b5b6040519080825280602002602001820160405280156110375781602001602082028036833780820191505090505b5090506004815f8151811061104f5761104e613133565b5b602002602001019060ff16908160ff168152505060088160018151811061107957611078613133565b5b602002602001019060ff16908160ff16815250505f600267ffffffffffffffff8111156110a9576110a8613106565b5b6040519080825280602002602001820160405280156110d75781602001602082028036833780820191505090505b5090505f600267ffffffffffffffff8111156110f6576110f5613106565b5b60405190808252806020026020018201604052801561112957816020015b60608152602001906001900390816111145790505b50905061113585611816565b30604051602001611147929190613178565b604051602081830303815290604052815f8151811061116957611168613133565b5b602002602001018190525060405180602001604052805f8152508160018151811061119757611196613133565b5b602002602001018190525073ce450a23378859fb5157f4c4cccaf48faa30865b73ffffffffffffffffffffffffffffffffffffffff1663656f3d648484846040518463ffffffff1660e01b81526004016111f393929190613444565b60408051808303815f875af192505050801561122d57506040513d601f19601f8201168201806040525081019061122a9190612faf565b60015b61123c575f9350505050611246565b6001955050505050505b919050565b5f5f8473ffffffffffffffffffffffffffffffffffffffff1663a9059cbb60e01b858560405160240161127f92919061348e565b604051602081830303815290604052907bffffffffffffffffffffffffffffffffffffffffffffffffffffffff19166020820180517bffffffffffffffffffffffffffffffffffffffffffffffffffffffff83818316178352505050506040516112e991906134ef565b5f604051808303815f865af19150503d805f8114611322576040519150601f19603f3d011682016040523d82523d5f602084013e611327565b606091505b509150915081801561135457505f81511480611353575080806020019051810190611352919061352f565b5b5b611393576040517f08c379a000000000000000000000000000000000000000000000000000000000815260040161138a906135b4565b60405180910390fd5b5050505050565b5f5f9054906101000a900460ff166116c55760015f5f6101000a81548160ff0219169083151502179055505f73ce450a23378859fb5157f4c4cccaf48faa30865b90508073ffffffffffffffffffffffffffffffffffffffff16636b2ace876040518163ffffffff1660e01b8152600401602060405180830381865afa158015611426573d5f5f3e3d5ffd5b505050506040513d601f19601f8201168201806040525081019061144a91906135e6565b60025f6101000a81548173ffffffffffffffffffffffffffffffffffffffff021916908373ffffffffffffffffffffffffffffffffffffffff1602179055508073ffffffffffffffffffffffffffffffffffffffff1663d8dfeb456040518163ffffffff1660e01b8152600401602060405180830381865afa1580156114d2573d5f5f3e3d5ffd5b505050506040513d601f19601f820116820180604052508101906114f691906135e6565b60035f6101000a81548173ffffffffffffffffffffffffffffffffffffffff021916908373ffffffffffffffffffffffffffffffffffffffff16021790555061153e81611882565b600360149054906101000a900460ff161561155c5761155b611b6b565b5b7399d8a9c45b2eca8864373a26d1459e3dff1e17f373ffffffffffffffffffffffffffffffffffffffff166370a08231306040518263ffffffff1660e01b81526004016115a99190612e6c565b602060405180830381865afa1580156115c4573d5f5f3e3d5ffd5b505050506040513d601f19601f820116820180604052508101906115e89190612ef1565b600181905550600360149054906101000a900460ff1680156116175750600360169054906101000a900460ff16155b600360176101000a81548160ff021916908315150217905550600360149054906101000a900460ff1615600360186101000a81548160ff021916908315150217905550600360149054906101000a900460ff1615801561167a57505f5f1b600a54145b156116c3576040518060400160405280601281526020017f626f72726f772d706174682d6661696c6564000000000000000000000000000081525080519060200120600a819055505b505b565b5f5f8473ffffffffffffffffffffffffffffffffffffffff1663095ea7b360e01b85856040516024016116fb92919061348e565b604051602081830303815290604052907bffffffffffffffffffffffffffffffffffffffffffffffffffffffff19166020820180517bffffffffffffffffffffffffffffffffffffffffffffffffffffffff838183161783525050505060405161176591906134ef565b5f604051808303815f865af19150503d805f811461179e576040519150601f19603f3d011682016040523d82523d5f602084013e6117a3565b606091505b50915091508180156117d057505f815114806117cf5750808060200190518101906117ce919061352f565b5b5b61180f576040517f08c379a00000000000000000000000000000000000000000000000000000000081526004016118069061365b565b60405180910390fd5b5050505050565b5f7f7fffffffffffffffffffffffffffffffffffffffffffffffffffffffffffffff82111561187a576040517f08c379a0000000000000000000000000000000000000000000000000000000008152600401611871906136c3565b60405180910390fd5b819050919050565b5f61188c82611ee8565b90505f81036118de576040518060400160405280601a81526020017f6e6f2d6c69717569646974792d6f722d626f72726f772d63617000000000000081525080519060200120600a8190555050611b68565b5f604051806101000160405280838152602001606460638561190091906136e1565b61190a919061374f565b81526020016064605f8561191e91906136e1565b611928919061374f565b81526020016064605a8561193c91906136e1565b611946919061374f565b8152602001600284611958919061374f565b815260200160048461196a919061374f565b8152602001600a8461197c919061374f565b8152602001600181525090505f5f90505b6008811015611b21575f8282600881106119aa576119a9613133565b5b602002015190505f81036119be5750611b14565b6119c781612406565b15611b12576001600360146101000a81548160ff0219169083151502179055508473ffffffffffffffffffffffffffffffffffffffff166302ce728f6040518163ffffffff1660e01b815260040160408051808303815f875af1925050508015611a4f57506040513d601f19601f82011682018060405250810190611a4c919061377f565b60015b15611a575750505b8473ffffffffffffffffffffffffffffffffffffffff166338b51ce1306040518263ffffffff1660e01b8152600401611a909190612e6c565b602060405180830381865afa925050508015611aca57506040513d601f19601f82011682018060405250810190611ac7919061352f565b60015b611aed575f600360166101000a81548160ff021916908315150217905550611b09565b80600360166101000a81548160ff021916908315150217905550505b50505050611b68565b505b808060010191505061198d565b506040518060400160405280601481526020017f626f72726f772d636f6f6b2d726576657274656400000000000000000000000081525080519060200120600a8190555050505b50565b5f6001905060025f9054906101000a900473ffffffffffffffffffffffffffffffffffffffff1673ffffffffffffffffffffffffffffffffffffffff16635662311860035f9054906101000a900473ffffffffffffffffffffffffffffffffffffffff166001806040518463ffffffff1660e01b8152600401611bf0939291906137f6565b602060405180830381865afa925050508015611c2a57506040513d601f19601f82011682018060405250810190611c279190612ef1565b60015b15611c3d575f811115611c3b578091505b505b5f604051806101000160405280838152602001611c5b84600a612b72565b8152602001611c6b846064612b72565b8152602001611c7c846103e8612b72565b8152602001620f4240815260200164e8d4a510008152602001670de0b6b3a7640000815260200169d3c21bcecceda100000081525090505f5f90505b6008811015611ee2575f828260088110611cd557611cd4613133565b5b602002015190505f8103611ce95750611ed5565b60025f9054906101000a900473ffffffffffffffffffffffffffffffffffffffff1673ffffffffffffffffffffffffffffffffffffffff1663f1676d37303060035f9054906101000a900473ffffffffffffffffffffffffffffffffffffffff168560405180602001604052805f8152506040518663ffffffff1660e01b8152600401611d7a9594939291906138c5565b5f604051808303815f87803b158015611d91575f5ffd5b505af1925050508015611da2575060015b611eaf57611dae613929565b806308c379a003611e165750611dc2613979565b80611dcd5750611e18565b6040518060400160405280601481526020017f72656d6f76652d706174682d726576657274656400000000000000000000000081525080519060200120600a8190555050611eaa565b505b3d805f8114611e42576040519150601f19603f3d011682016040523d82523d5f602084013e611e47565b606091505b505f611e5282612bd3565b90505f5f1b8114611e635780611ea1565b6040518060400160405280601481526020017f72656d6f76652d706174682d7265766572746564000000000000000000000000815250805190602001205b600a8190555050505b611ed3565b6001600360156101000a81548160ff02191690831515021790555050505050611ee6565b505b8080600101915050611cb8565b5050505b565b5f5f60025f9054906101000a900473ffffffffffffffffffffffffffffffffffffffff1690505f8173ffffffffffffffffffffffffffffffffffffffff1663f7888aec7399d8a9c45b2eca8864373a26d1459e3dff1e17f373ce450a23378859fb5157f4c4cccaf48faa30865b6040518363ffffffff1660e01b8152600401611f72929190612eb6565b602060405180830381865afa158015611f8d573d5f5f3e3d5ffd5b505050506040513d601f19601f82011682018060405250810190611fb19190612ef1565b90505f8273ffffffffffffffffffffffffffffffffffffffff1663566231187399d8a9c45b2eca8864373a26d1459e3dff1e17f3845f6040518463ffffffff1660e01b815260040161200593929190613a08565b602060405180830381865afa158015612020573d5f5f3e3d5ffd5b505050506040513d601f19601f820116820180604052508101906120449190612ef1565b90505f8103612058575f9350505050612401565b5f5f8673ffffffffffffffffffffffffffffffffffffffff1663e551d11d6040518163ffffffff1660e01b81526004016040805180830381865afa1580156120a2573d5f5f3e3d5ffd5b505050506040513d601f19601f820116820180604052508101906120c69190613a82565b915091505f5f8873ffffffffffffffffffffffffffffffffffffffff16638285ef406040518163ffffffff1660e01b81526004016040805180830381865afa158015612114573d5f5f3e3d5ffd5b505050506040513d601f19601f820116820180604052508101906121389190613a82565b915091505f8973ffffffffffffffffffffffffffffffffffffffff166348e4163e306040518263ffffffff1660e01b81526004016121769190612e6c565b602060405180830381865afa158015612191573d5f5f3e3d5ffd5b505050506040513d601f19601f820116820180604052508101906121b59190612ef1565b90505f836fffffffffffffffffffffffffffffffff16866fffffffffffffffffffffffffffffffff16116121e9575f612208565b83866121f59190613ac0565b6fffffffffffffffffffffffffffffffff165b90505f82866fffffffffffffffffffffffffffffffff161161222a575f612249565b82866fffffffffffffffffffffffffffffffff16612248919061304f565b5b90505f82148061225857505f81145b1561226f575f9a5050505050505050505050612401565b5f8c73ffffffffffffffffffffffffffffffffffffffff1663aba024f46040518163ffffffff1660e01b8152600401602060405180830381865afa1580156122b9573d5f5f3e3d5ffd5b505050506040513d601f19601f820116820180604052508101906122dd9190612ef1565b90505f5f866fffffffffffffffffffffffffffffffff16148061231157505f876fffffffffffffffffffffffffffffffff16145b1561231e5782905061235c565b856fffffffffffffffffffffffffffffffff16876fffffffffffffffffffffffffffffffff168461234f91906136e1565b612359919061374f565b90505b5f6123708b61236b8785612c55565b612c55565b90505f810361238e575f9d5050505050505050505050505050612401565b82620186a061239d91906130d3565b620186a0826123ac91906136e1565b6123b6919061374f565b9d50620f42408e11156123d957620f42408e6123d2919061304f565b9d506123f3565b60018e11156123f25760018e6123ef919061304f565b9d505b5b505050505050505050505050505b919050565b5f5f60025f9054906101000a900473ffffffffffffffffffffffffffffffffffffffff1690505f8173ffffffffffffffffffffffffffffffffffffffff1663f7888aec7399d8a9c45b2eca8864373a26d1459e3dff1e17f3306040518363ffffffff1660e01b815260040161247c929190612eb6565b602060405180830381865afa158015612497573d5f5f3e3d5ffd5b505050506040513d601f19601f820116820180604052508101906124bb9190612ef1565b90505f7399d8a9c45b2eca8864373a26d1459e3dff1e17f373ffffffffffffffffffffffffffffffffffffffff166370a08231306040518263ffffffff1660e01b815260040161250b9190612e6c565b602060405180830381865afa158015612526573d5f5f3e3d5ffd5b505050506040513d601f19601f8201168201806040525081019061254a9190612ef1565b90505f600267ffffffffffffffff81111561256857612567613106565b5b6040519080825280602002602001820160405280156125965781602001602082028036833780820191505090505b5090506005815f815181106125ae576125ad613133565b5b602002602001019060ff16908160ff16815250506008816001815181106125d8576125d7613133565b5b602002602001019060ff16908160ff16815250505f600267ffffffffffffffff81111561260857612607613106565b5b6040519080825280602002602001820160405280156126365781602001602082028036833780820191505090505b5090505f600267ffffffffffffffff81111561265557612654613106565b5b60405190808252806020026020018201604052801561268857816020015b60608152602001906001900390816126735790505b50905061269488611816565b306040516020016126a6929190613178565b604051602081830303815290604052815f815181106126c8576126c7613133565b5b602002602001018190525060405180602001604052805f815250816001815181106126f6576126f5613133565b5b602002602001018190525073ce450a23378859fb5157f4c4cccaf48faa30865b73ffffffffffffffffffffffffffffffffffffffff1663656f3d648484846040518463ffffffff1660e01b815260040161275293929190613444565b60408051808303815f875af192505050801561278c57506040513d601f19601f820116820180604052508101906127899190612faf565b60015b61279e575f9650505050505050612b6d565b5f8873ffffffffffffffffffffffffffffffffffffffff1663f7888aec7399d8a9c45b2eca8864373a26d1459e3dff1e17f3306040518363ffffffff1660e01b81526004016127ee929190612eb6565b602060405180830381865afa158015612809573d5f5f3e3d5ffd5b505050506040513d601f19601f8201168201806040525081019061282d9190612ef1565b90505f88821161283d575f61284a565b8882612849919061304f565b5b90505f811461298b57806005819055508973ffffffffffffffffffffffffffffffffffffffff1663566231187399d8a9c45b2eca8864373a26d1459e3dff1e17f3835f6040518463ffffffff1660e01b81526004016128ab93929190613a08565b602060405180830381865afa1580156128c6573d5f5f3e3d5ffd5b505050506040513d601f19601f820116820180604052508101906128ea9190612ef1565b6004819055508973ffffffffffffffffffffffffffffffffffffffff166397da6d307399d8a9c45b2eca8864373a26d1459e3dff1e17f330305f866040518663ffffffff1660e01b8152600401612945959493929190613082565b60408051808303815f875af1158015612960573d5f5f3e3d5ffd5b505050506040513d601f19601f820116820180604052508101906129849190612faf565b5050612ad2565b5f7399d8a9c45b2eca8864373a26d1459e3dff1e17f373ffffffffffffffffffffffffffffffffffffffff166370a08231306040518263ffffffff1660e01b81526004016129d99190612e6c565b602060405180830381865afa1580156129f4573d5f5f3e3d5ffd5b505050506040513d601f19601f82011682018060405250810190612a189190612ef1565b905088811115612ad0578881612a2e919061304f565b6004819055508a73ffffffffffffffffffffffffffffffffffffffff1663da5139ca7399d8a9c45b2eca8864373a26d1459e3dff1e17f36004545f6040518463ffffffff1660e01b8152600401612a8793929190613a08565b602060405180830381865afa925050508015612ac157506040513d601f19601f82011682018060405250810190612abe9190612ef1565b60015b15612acf5780600581905550505b5b505b877399d8a9c45b2eca8864373a26d1459e3dff1e17f373ffffffffffffffffffffffffffffffffffffffff166370a08231306040518263ffffffff1660e01b8152600401612b209190612e6c565b602060405180830381865afa158015612b3b573d5f5f3e3d5ffd5b505050506040513d601f19601f82011682018060405250810190612b5f9190612ef1565b119a50505050505050505050505b919050565b5f5f8303612b82575f9050612bcd565b5f828402905083838281612b9957612b98613722565b5b0414612bc8577fffffffffffffffffffffffffffffffffffffffffffffffffffffffffffffffff915050612bcd565b809150505b92915050565b5f604482511015612be8575f5f1b9050612c50565b5f60208301519050635c9c026660e01b7bffffffffffffffffffffffffffffffffffffffffffffffffffffffff1916817bffffffffffffffffffffffffffffffffffffffffffffffffffffffff191614612c47575f5f1b915050612c50565b60448301519150505b919050565b5f818310612c635781612c65565b825b905092915050565b5f604051905090565b5f5ffd5b5f5ffd5b5f73ffffffffffffffffffffffffffffffffffffffff82169050919050565b5f612ca782612c7e565b9050919050565b612cb781612c9d565b8114612cc1575f5ffd5b50565b5f81359050612cd281612cae565b92915050565b5f819050919050565b612cea81612cd8565b8114612cf4575f5ffd5b50565b5f81359050612d0581612ce1565b92915050565b5f5ffd5b5f5ffd5b5f5ffd5b5f5f83601f840112612d2c57612d2b612d0b565b5b8235905067ffffffffffffffff811115612d4957612d48612d0f565b5b602083019150836001820283011115612d6557612d64612d13565b5b9250929050565b5f5f5f5f5f5f60a08789031215612d8657612d85612c76565b5b5f612d9389828a01612cc4565b9650506020612da489828a01612cc4565b9550506040612db589828a01612cf7565b9450506060612dc689828a01612cf7565b935050608087013567ffffffffffffffff811115612de757612de6612c7a565b5b612df389828a01612d17565b92509250509295509295509295565b612e0b81612cd8565b82525050565b5f602082019050612e245f830184612e02565b92915050565b5f8115159050919050565b612e3e81612e2a565b82525050565b5f602082019050612e575f830184612e35565b92915050565b612e6681612c9d565b82525050565b5f602082019050612e7f5f830184612e5d565b92915050565b5f819050919050565b612e9781612e85565b82525050565b5f602082019050612eb05f830184612e8e565b92915050565b5f604082019050612ec95f830185612e5d565b612ed66020830184612e5d565b9392505050565b5f81519050612eeb81612ce1565b92915050565b5f60208284031215612f0657612f05612c76565b5b5f612f1384828501612edd565b91505092915050565b5f819050919050565b5f819050919050565b5f612f48612f43612f3e84612f1c565b612f25565b612cd8565b9050919050565b612f5881612f2e565b82525050565b5f60a082019050612f715f830188612e5d565b612f7e6020830187612e5d565b612f8b6040830186612e5d565b612f986060830185612e02565b612fa56080830184612f4f565b9695505050505050565b5f5f60408385031215612fc557612fc4612c76565b5b5f612fd285828601612edd565b9250506020612fe385828601612edd565b9150509250929050565b5f6060820190506130005f830186612e5d565b61300d6020830185612e35565b61301a6040830184612e02565b949350505050565b7f4e487b71000000000000000000000000000000000000000000000000000000005f52601160045260245ffd5b5f61305982612cd8565b915061306483612cd8565b925082820390508181111561307c5761307b613022565b5b92915050565b5f60a0820190506130955f830188612e5d565b6130a26020830187612e5d565b6130af6040830186612e5d565b6130bc6060830185612f4f565b6130c96080830184612e02565b9695505050505050565b5f6130dd82612cd8565b91506130e883612cd8565b9250828201905080821115613100576130ff613022565b5b92915050565b7f4e487b71000000000000000000000000000000000000000000000000000000005f52604160045260245ffd5b7f4e487b71000000000000000000000000000000000000000000000000000000005f52603260045260245ffd5b5f819050919050565b61317281613160565b82525050565b5f60408201905061318b5f830185613169565b6131986020830184612e5d565b9392505050565b5f81519050919050565b5f82825260208201905092915050565b5f819050602082019050919050565b5f60ff82169050919050565b6131dd816131c8565b82525050565b5f6131ee83836131d4565b60208301905092915050565b5f602082019050919050565b5f6132108261319f565b61321a81856131a9565b9350613225836131b9565b805f5b8381101561325557815161323c88826131e3565b9750613247836131fa565b925050600181019050613228565b5085935050505092915050565b5f81519050919050565b5f82825260208201905092915050565b5f819050602082019050919050565b61329481612cd8565b82525050565b5f6132a5838361328b565b60208301905092915050565b5f602082019050919050565b5f6132c782613262565b6132d1818561326c565b93506132dc8361327c565b805f5b8381101561330c5781516132f3888261329a565b97506132fe836132b1565b9250506001810190506132df565b5085935050505092915050565b5f81519050919050565b5f82825260208201905092915050565b5f819050602082019050919050565b5f81519050919050565b5f82825260208201905092915050565b8281835e5f83830152505050565b5f601f19601f8301169050919050565b5f61338482613342565b61338e818561334c565b935061339e81856020860161335c565b6133a78161336a565b840191505092915050565b5f6133bd838361337a565b905092915050565b5f602082019050919050565b5f6133db82613319565b6133e58185613323565b9350836020820285016133f785613333565b805f5b85811015613432578484038952815161341385826133b2565b945061341e836133c5565b925060208a019950506001810190506133fa565b50829750879550505050505092915050565b5f6060820190508181035f83015261345c8186613206565b9050818103602083015261347081856132bd565b9050818103604083015261348481846133d1565b9050949350505050565b5f6040820190506134a15f830185612e5d565b6134ae6020830184612e02565b9392505050565b5f81905092915050565b5f6134c982613342565b6134d381856134b5565b93506134e381856020860161335c565b80840191505092915050565b5f6134fa82846134bf565b915081905092915050565b61350e81612e2a565b8114613518575f5ffd5b50565b5f8151905061352981613505565b92915050565b5f6020828403121561354457613543612c76565b5b5f6135518482850161351b565b91505092915050565b5f82825260208201905092915050565b7f7472616e736665722d6661696c656400000000000000000000000000000000005f82015250565b5f61359e600f8361355a565b91506135a98261356a565b602082019050919050565b5f6020820190508181035f8301526135cb81613592565b9050919050565b5f815190506135e081612cae565b92915050565b5f602082840312156135fb576135fa612c76565b5b5f613608848285016135d2565b91505092915050565b7f617070726f76652d6661696c65640000000000000000000000000000000000005f82015250565b5f613645600e8361355a565b915061365082613611565b602082019050919050565b5f6020820190508181035f83015261367281613639565b9050919050565b7f696e742d6f766572666c6f7700000000000000000000000000000000000000005f82015250565b5f6136ad600c8361355a565b91506136b882613679565b602082019050919050565b5f6020820190508181035f8301526136da816136a1565b9050919050565b5f6136eb82612cd8565b91506136f683612cd8565b925082820261370481612cd8565b9150828204841483151761371b5761371a613022565b5b5092915050565b7f4e487b71000000000000000000000000000000000000000000000000000000005f52601260045260245ffd5b5f61375982612cd8565b915061376483612cd8565b92508261377457613773613722565b5b828204905092915050565b5f5f6040838503121561379557613794612c76565b5b5f6137a28582860161351b565b92505060206137b385828601612edd565b9150509250929050565b5f819050919050565b5f6137e06137db6137d6846137bd565b612f25565b612cd8565b9050919050565b6137f0816137c6565b82525050565b5f6060820190506138095f830186612e5d565b61381660208301856137e7565b6138236040830184612e35565b949350505050565b5f61384561384061383b84612c7e565b612f25565b612c7e565b9050919050565b5f6138568261382b565b9050919050565b5f6138678261384c565b9050919050565b6138778161385d565b82525050565b5f82825260208201905092915050565b5f61389782613342565b6138a1818561387d565b93506138b181856020860161335c565b6138ba8161336a565b840191505092915050565b5f60a0820190506138d85f83018861386e565b6138e56020830187612e5d565b6138f26040830186612e5d565b6138ff6060830185612e02565b8181036080830152613911818461388d565b90509695505050505050565b5f8160e01c9050919050565b5f60033d11156139455760045f5f3e6139425f5161391d565b90505b90565b6139518261336a565b810181811067ffffffffffffffff821117156139705761396f613106565b5b80604052505050565b5f60443d10613a055761398a612c6d565b60043d036004823e80513d602482011167ffffffffffffffff821117156139b2575050613a05565b808201805167ffffffffffffffff8111156139d05750505050613a05565b80602083010160043d0385018111156139ed575050505050613a05565b6139fc82602001850186613948565b82955050505050505b90565b5f606082019050613a1b5f830186612e5d565b613a286020830185612e02565b613a356040830184612e35565b949350505050565b5f6fffffffffffffffffffffffffffffffff82169050919050565b613a6181613a3d565b8114613a6b575f5ffd5b50565b5f81519050613a7c81613a58565b92915050565b5f5f60408385031215613a9857613a97612c76565b5b5f613aa585828601613a6e565b9250506020613ab685828601613a6e565b9150509250929050565b5f613aca82613a3d565b9150613ad583613a3d565b925082820390506fffffffffffffffffffffffffffffffff811115613afd57613afc613022565b5b9291505056fea26469706673582212204b5888ad1d8c9702010a4e26144625947d2300e59b2ca9a251c343821d0ffd7e64736f6c634300081e0033","linkReferences":{}},"methodIdentifiers":{"MIM()":"daec383d","TARGET()":"cc1f2afa","bentoBoxAddress()":"eb77ff0f","borrowPathUsed()":"62695192","borrowedMimAmount()":"e7cda06d","borrowedMimShare()":"6208fdd8","collateralShareAdded()":"4071084d","collateralShareRemoved()":"95809558","collateralToken()":"b2016bd4","execute()":"61461954","executeOnOpportunity()":"3c2448ed","exploit()":"63d9b770","flashCollateralAmount()":"892d0bd2","flashCollateralFee()":"5a6e402b","hypothesisRefuted()":"495f92f1","hypothesisValidated()":"463defd1","infeasibleReason()":"a6652157","onFlashLoan(address,address,uint256,uint256,bytes)":"23e30c8b","postBorrowSolvent()":"d5b5a557","profitAmount()":"5ff972cc","profitToken()":"49343624","removePathUsed()":"e8fbed3f","run()":"c0406226"},"id":0}