{"abi":[{"type":"constructor","inputs":[],"stateMutability":"nonpayable"},{"type":"receive","stateMutability":"payable"},{"type":"function","name":"executeOnOpportunity","inputs":[],"outputs":[],"stateMutability":"nonpayable"},{"type":"function","name":"profitAmount","inputs":[],"outputs":[{"name":"","type":"uint256","internalType":"uint256"}],"stateMutability":"view"},{"type":"function","name":"profitToken","inputs":[],"outputs":[{"name":"","type":"address","internalType":"address"}],"stateMutability":"pure"},{"type":"function","name":"targetPool","inputs":[],"outputs":[{"name":"","type":"address","internalType":"address"}],"stateMutability":"pure"},{"type":"function","name":"targetToken","inputs":[],"outputs":[{"name":"","type":"address","internalType":"address"}],"stateMutability":"pure"},{"type":"function","name":"uniswapV2Call","inputs":[{"name":"sender","type":"address","internalType":"address"},{"name":"amount0","type":"uint256","internalType":"uint256"},{"name":"amount1","type":"uint256","internalType":"uint256"},{"name":"data","type":"bytes","internalType":"bytes"}],"outputs":[],"stateMutability":"nonpayable"}],"bytecode":{"object":"0x60808060405234601557611797908161001a8239f35b5f80fdfe608080604052600436101561001c575b50361561001a575f80fd5b005b5f905f3560e01c90816310d1e85c1461012057508063327107f7146100f15780633c2448ed146100d557806349343624146100ad5780635ff972cc146100905763e60e24170361000f573461008d578060031936011261008d5760206040515f5160206117425f395f51905f528152f35b80fd5b503461008d578060031936011261008d5760209054604051908152f35b503461008d578060031936011261008d5760206040515f5160206117225f395f51905f528152f35b503461008d578060031936011261008d576100ee610513565b80f35b503461008d578060031936011261008d57602060405173f65b5c5104c4fafd4b709d9d60a185eae063276c8152f35b9050346103cc5760803660031901126103cc576004356001600160a01b038116908190036103cc576024356064359167ffffffffffffffff83116103cc57366023840112156103cc57826004013567ffffffffffffffff81116103cc578301933660248601116103cc5760015460081c6001600160a01b03163303610417575030036103dc5780156103d057602090925b829003126103cc575f5160206117225f395f51905f523b156103cc57604051632e1a7d4d60e01b8152600481018390525f81602481835f5160206117225f395f51905f525af180156103c1576103ab575b506024610210910135610dc9565b6103e88102908082046103e81490151715610397576103e59004600181018091116103975780471061035b575f5160206117225f395f51905f523b1561035757604051630d0e30db60e41b815282908181600481865f5160206117225f395f51905f525af1801561033757610342575b505060405163a9059cbb60e01b81523360048201526024810191909152602081604481855f5160206117225f395f51905f525af1908115610337578291610308575b50156102cb5780f35b60405162461bcd60e51b81526020600482015260156024820152741c995c185e481d1c985b9cd9995c8819985a5b1959605a1b6044820152606490fd5b61032a915060203d602011610330575b610322818361044d565b810190610483565b5f6102c2565b503d610318565b6040513d84823e3d90fd5b8161034c9161044d565b61035757815f610280565b5080fd5b60405162461bcd60e51b8152602060048201526014602482015273199b185cda1cddd85c081b9bdd081c995c185a5960621b6044820152606490fd5b634e487b7160e01b82526011600452602482fd5b6103b89193505f9061044d565b5f916024610202565b6040513d5f823e3d90fd5b5f80fd5b506020604435926101b1565b60405162461bcd60e51b81526020600482015260136024820152723ab730baba3437b934bd32b21039b2b73232b960691b6044820152606490fd5b62461bcd60e51b81526020600482015260116024820152703ab730baba3437b934bd32b2103830b4b960791b6044820152606490fd5b90601f8019910116810190811067ffffffffffffffff82111761046f57604052565b634e487b7160e01b5f52604160045260245ffd5b908160209103126103cc575180151581036103cc5790565b908160209103126103cc57516001600160a01b03811681036103cc5790565b51906001600160701b03821682036103cc57565b805180835260209291819084018484015e5f828201840152601f01601f1916010190565b919082039182116104ff57565b634e487b7160e01b5f52601160045260245ffd5b6001545f9060ff8116610dc55760ff1916600190811790556040516370a0823160e01b81523060048201524791906020816024815f5160206117225f395f51905f525afa9081156103c1575f91610d93575b5060405163095ea7b360e01b81525f5160206117425f395f51905f5260048201525f1960248201526020816044815f73f65b5c5104c4fafd4b709d9d60a185eae063276c5af180156103c157610d76575b506040516318160ddd60e01b8152925f60208560048173f65b5c5104c4fafd4b709d9d60a185eae063276c5afa9485156103c1575f95610d42575b5060405163fc22290b60e01b8152946020866004815f5160206117425f395f51905f525afa9586156103c1575f96610d0e575b5060405163669949ef60e11b81526020816004815f5160206117425f395f51905f525afa9081156103c1575f91610cdc575b5060405196610160610668818a61044d565b3689376ac6e3ae8e2cbab1298abaa3885282602089015261068c8360011c846113c7565b604089015261069e8360021c846113c7565b60608901528260011b918315928481046002148417156104ff5760808a0152600384029284840460031417156104ff576106ed9260a08a01526106e2828286611581565b60c08a015283611642565b60e087015260041c806ac6e3ae8e2cbab1298abaa301806ac6e3ae8e2cbab1298abaa3116104ff57610100870152806ac6e3ae8e2cbab1298abaa3115f14610cd5576ac6e3ae8e2cbab1298abaa3036ac6e3ae8e2cbab1298abaa381116104ff575b6101208601526ac6e3ae8e2cbab1298abaa46101408601525f195f5b600b8110610c3e575b509080929394955015610c015780158015610bf7575b1561089457509061079d6107a392610dc9565b476104f2565b8061082e575b506040516370a0823160e01b8152306004820152906020826024815f5160206117225f395f51905f525afa80156108235783906107ef575b6107eb92506104f2565b9055565b506020823d60201161081b575b816108096020938361044d565b810103126103cc576107eb91516107e1565b3d91506107fc565b6040513d85823e3d90fd5b5f5160206117225f395f51905f523b15610890578260049160405192838092630d0e30db60e41b82525f5160206117225f395f51905f525af180156108235790839161087b575b506107a9565b816108859161044d565b61035757815f610875565b8280fd5b61089c6113f9565b6001600160a01b03811691908215610bbe5760018054610100600160a81b03191660089290921b610100600160a81b0316919091179055604051630dfe168160e01b8152602081600481865afa9081156103c1575f91610b8f575b50604051630240bc6b60e21b815290606082600481875afa9081156103c1575f925f92610b27575b506001600160a01b03165f5160206117225f395f51905f5203610a4157506001600160701b03168110156109fc576040519260208401526020835261096560408461044d565b813b156109f8579185916109a9938360405180968195829463022c0d9f60e01b845260048401528360248401523060448401526080606484015260848301906104ce565b03925af180156109ed579084916109d8575b50506107a3905b60018054610100600160a81b031916905561079d565b816109e29161044d565b61089057825f6109bb565b6040513d86823e3d90fd5b8580fd5b60405162461bcd60e51b815260206004820152601a60248201527f696e73756666696369656e7420574554482072657365727665300000000000006044820152606490fd5b6001600160701b0391509391929316821015610ae25760405190602082015260208152610a6f60408261044d565b823b156103cc57610ab2925f928360405180968195829463022c0d9f60e01b845284600485015260248401523060448401526080606484015260848301906104ce565b03925af180156103c157610acb575b506107a3906109c2565b610ad89193505f9061044d565b5f916107a3610ac1565b60405162461bcd60e51b815260206004820152601a60248201527f696e73756666696369656e7420574554482072657365727665310000000000006044820152606490fd5b925090506060823d606011610b87575b81610b446060938361044d565b810103126103cc57610b55826104ba565b6040610b63602085016104ba565b93015163ffffffff8116036103cc5791905f5160206117225f395f51905f5261091f565b3d9150610b37565b610bb1915060203d602011610bb7575b610ba9818361044d565b81019061049b565b5f6108f7565b503d610b9f565b60405162461bcd60e51b8152602060048201526011602482015270373790333630b9b439bbb0b8103830b4b960791b6044820152606490fd5b504781111561078a565b60405162461bcd60e51b81526020600482015260156024820152741b9bc8195e1c1b1bda5d18589b1948185b5bdd5b9d605a1b6044820152606490fd5b610c4881886113d4565b518015610ccc57610c5881611511565b905f1982148015610cc5575b610cbb5784158015610cb2575b8015610c9f575b610c89575b50506001905b0161076b565b935091508115610c9a575f80610c7d565b610774565b508382148015610c785750848111610c78565b50838210610c71565b5050600190610c83565b505f610c64565b50600190610c83565b505f61074f565b90506020813d602011610d06575b81610cf76020938361044d565b810103126103cc57515f610656565b3d9150610cea565b9095506020813d602011610d3a575b81610d2a6020938361044d565b810103126103cc5751945f610624565b3d9150610d1d565b9094506020813d602011610d6e575b81610d5e6020938361044d565b810103126103cc5751935f6105f1565b3d9150610d51565b610d8e9060203d60201161033057610322818361044d565b6105b6565b90506020813d602011610dbd575b81610dae6020938361044d565b810103126103cc57515f610565565b3d9150610da1565b5050565b905f915f905b6030841080611376575b15611370575f905f90831580611367575b611330575b508115611029575b6040516370a0823160e01b8152306004820152479160208260248173f65b5c5104c4fafd4b709d9d60a185eae063276c5afa9182156103c1575f92610ff6575b505f5160206117425f395f51905f523b156103cc575f6024916040519283809263a029621560e01b82528860048301525f5160206117425f395f51905f525af180156103c157610fe6575b506040516370a0823160e01b81523060048201529060208260248173f65b5c5104c4fafd4b709d9d60a185eae063276c5afa80156103c1575f90610fb3575b610ecb92506104f2565b8015610f78575f5160206117425f395f51905f523b156103cc576040519063c471b10b60e01b825260048201525f81602481835f5160206117425f395f51905f525af180156103c157610f68575b50471115610f2c57600190930192610dcf565b60405162461bcd60e51b8152602060048201526014602482015273726f756e64206e6f742070726f66697461626c6560601b6044820152606490fd5b5f610f729161044d565b5f610f19565b60405162461bcd60e51b81526020600482015260136024820152726275792070726f6475636564206e6f2054525560681b6044820152606490fd5b506020823d8211610fde575b81610fcc6020938361044d565b810103126103cc57610ecb9151610ec1565b3d9150610fbf565b5f610ff09161044d565b5f610e82565b9091506020813d8211611021575b816110116020938361044d565b810103126103cc5751905f610e37565b3d9150611004565b50506040516318160ddd60e01b81525f904760208260048173f65b5c5104c4fafd4b709d9d60a185eae063276c5afa9182156103c1575f926112fd575b5060405163fc22290b60e01b8152916020836004815f5160206117425f395f51905f525afa9283156103c1575f936112ca575b5060405163669949ef60e11b81526020816004815f5160206117425f395f51905f525afa9081156103c1575f91611299575b50604051936101606110dd818761044d565b3686376ac6e3ae8e2cbab1298abaa385528260208601526111018360011c846113c7565b60408601526111138360021c846113c7565b60608601528260011b918315928481046002148417156104ff576080870152600384029284840460031417156104ff576111629260a0870152611157828286611581565b60c087015283611642565b60e084015260041c806ac6e3ae8e2cbab1298abaa301806ac6e3ae8e2cbab1298abaa3116104ff57610100840152806ac6e3ae8e2cbab1298abaa3115f14611292576ac6e3ae8e2cbab1298abaa3036ac6e3ae8e2cbab1298abaa381116104ff575b6101208301526ac6e3ae8e2cbab1298abaa46101408301525f19915f5b600b81106111f9575b50505081610df7575050509050565b61120381836113d4565b5180156112895761121381611511565b905f1982148015611280575b611276578615801561126d575b801561125a575b611244575b50506001905b016111e1565b955093508315611255575f80611238565b6111ea565b5085821480156112335750868111611233565b5085821061122c565b505060019061123e565b5084821161121f565b5060019061123e565b505f6111c4565b90506020813d82116112c2575b816112b36020938361044d565b810103126103cc57515f6110cb565b3d91506112a6565b9092506020813d82116112f5575b816112e56020938361044d565b810103126103cc5751915f611099565b3d91506112d8565b9091506020813d8211611328575b816113186020938361044d565b810103126103cc5751905f611066565b3d915061130b565b9250505060019061134081611511565b5f198114801561135e575b611356575b5f610def565b5f9150611350565b5047811161134b565b50801515610dea565b50509050565b5067016345785d8a00005f5160206117425f395f51905f52311015610dd9565b818102929181159184041417156104ff57565b81156113b3570490565b634e487b7160e01b5f52601260045260245ffd5b919082018092116104ff57565b90600b8110156113e55760051b0190565b634e487b7160e01b5f52603260045260245ffd5b60405163e6a4390560e01b815273f65b5c5104c4fafd4b709d9d60a185eae063276c60048201525f5160206117225f395f51905f526024820152602081604481735c69bee701ef814a2b6a3edd4b1652cb9cc5aa6f5afa9081156103c1575f916114f2575b506001600160a01b0381166114ef575060405163e6a4390560e01b815273f65b5c5104c4fafd4b709d9d60a185eae063276c60048201525f5160206117225f395f51905f52602482015260208160448173c0aee478e3658e2610c5f7a4a2e1777ce9e4f2ac5afa9081156103c1575f916114d6575090565b6114ef915060203d602011610bb757610ba9818361044d565b90565b61150b915060203d602011610bb757610ba9818361044d565b5f61145e565b6040519063c59d563360e01b825260048201526020816024815f5160206117425f395f51905f525afa5f918161154d575b506114ef57505f1990565b9091506020813d602011611579575b816115696020938361044d565b810103126103cc5751905f611542565b3d915061155c565b918115801561163a575b801561162f575b6116285760631981019081116104ff57826115b0816115b593611396565b611396565b6115bf8380611396565b90826064029260648404036104ff576115e1926115db916113a9565b906113c7565b90600182018092116104ff576115f6826116ca565b916116018380611396565b1061161e575b80821115611618576114ef916104f2565b50505f90565b9060010190611607565b5050505f90565b506064811115611592565b50821561158b565b91811580156116c2575b80156116b7575b61162857606403606481116104ff57826115b08161167093611396565b9061167b8380611396565b816064029160648304036104ff576115db6116999261169e946113a9565b6116ca565b90808211156116b0576114ef916104f2565b5050600190565b506064811015611653565b50821561164c565b90811561171c57600382111561171657818060011c600181018091116104ff57905b8382106116f7575050565b90925061170d8361170881846113a9565b6113c7565b60011c906116ec565b60019150565b5f915056fe000000000000000000000000c02aaa39b223fe8d0a0e5c4f27ead9083c756cc2000000000000000000000000764c64b2a09b09acb100b80d8c505aa6a0302ef2a2646970667358221220fa2b02ca8d085d49d93e47131f11468fab691f668db6441ccba6edd0c8024ed864736f6c634300081e0033","linkReferences":{}},"methodIdentifiers":{"executeOnOpportunity()":"3c2448ed","profitAmount()":"5ff972cc","profitToken()":"49343624","targetPool()":"e60e2417","targetToken()":"327107f7","uniswapV2Call(address,uint256,uint256,bytes)":"10d1e85c"},"id":0}