{"abi":[{"type":"function","name":"get","inputs":[{"name":"","type":"bytes","internalType":"bytes"}],"outputs":[{"name":"success","type":"bool","internalType":"bool"},{"name":"rate","type":"uint256","internalType":"uint256"}],"stateMutability":"pure"},{"type":"function","name":"name","inputs":[{"name":"","type":"bytes","internalType":"bytes"}],"outputs":[{"name":"","type":"string","internalType":"string"}],"stateMutability":"pure"},{"type":"function","name":"peek","inputs":[{"name":"","type":"bytes","internalType":"bytes"}],"outputs":[{"name":"success","type":"bool","internalType":"bool"},{"name":"rate","type":"uint256","internalType":"uint256"}],"stateMutability":"pure"},{"type":"function","name":"peekSpot","inputs":[{"name":"","type":"bytes","internalType":"bytes"}],"outputs":[{"name":"rate","type":"uint256","internalType":"uint256"}],"stateMutability":"pure"},{"type":"function","name":"symbol","inputs":[{"name":"","type":"bytes","internalType":"bytes"}],"outputs":[{"name":"","type":"string","internalType":"string"}],"stateMutability":"pure"}],"bytecode":{"object":"0x60808060405234601557610209908161001a8239f35b5f80fdfe60806040526004361015610011575f80fd5b5f3560e01c8063c699c4d6146100ea578063d39bbef0146100d0578063d568866c14610055578063d6d7d525146100505763eeb8a8d314610050575f80fd5b6101b4565b346100cc5761006336610139565b5050604051604081019080821067ffffffffffffffff8311176100b8576100b4916040526014815273105b1dd85e5cc8155b9a5b9a5d1a585b1a5e995960621b60208201526040519182918261018a565b0390f35b634e487b7160e01b5f52604160045260245ffd5b5f80fd5b346100cc576100de36610139565b505060206040515f8152f35b346100cc576100f836610139565b5050604051604081019080821067ffffffffffffffff8311176100b8576100b49160405260048152635a45524f60e01b60208201526040519182918261018a565b9060206003198301126100cc5760043567ffffffffffffffff81116100cc57826023820112156100cc5780600401359267ffffffffffffffff84116100cc57602484830101116100cc576024019190565b602060409281835280519182918282860152018484015e5f828201840152601f01601f1916010190565b346100cc576101c236610139565b5050604080515f81525f6020820152f3fea2646970667358221220d8d0dd8ba35e2b6ee68b192477475dcebe8675e1e976efc773c1814bb8a10b2964736f6c634300081e0033","linkReferences":{}},"methodIdentifiers":{"get(bytes)":"d6d7d525","name(bytes)":"d568866c","peek(bytes)":"eeb8a8d3","peekSpot(bytes)":"d39bbef0","symbol(bytes)":"c699c4d6"},"id":0}