{"abi":[{"type":"constructor","inputs":[],"stateMutability":"nonpayable"},{"type":"function","name":"_loadLiveMetadata","inputs":[],"outputs":[{"name":"liveBento","type":"address","internalType":"address"},{"name":"liveCollateral","type":"address","internalType":"address"}],"stateMutability":"view"},{"type":"function","name":"activePair","inputs":[],"outputs":[{"name":"","type":"address","internalType":"address"}],"stateMutability":"view"},{"type":"function","name":"activeRouter","inputs":[],"outputs":[{"name":"","type":"address","internalType":"address"}],"stateMutability":"view"},{"type":"function","name":"bentoBoxAddress","inputs":[],"outputs":[{"name":"","type":"address","internalType":"address"}],"stateMutability":"view"},{"type":"function","name":"borrowedAmount","inputs":[],"outputs":[{"name":"","type":"uint256","internalType":"uint256"}],"stateMutability":"view"},{"type":"function","name":"collateralToken","inputs":[],"outputs":[{"name":"","type":"address","internalType":"address"}],"stateMutability":"view"},{"type":"function","name":"deployedClone","inputs":[],"outputs":[{"name":"","type":"address","internalType":"address"}],"stateMutability":"view"},{"type":"function","name":"executeOnOpportunity","inputs":[],"outputs":[],"stateMutability":"nonpayable"},{"type":"function","name":"hypothesisValidated","inputs":[],"outputs":[{"name":"","type":"bool","internalType":"bool"}],"stateMutability":"view"},{"type":"function","name":"profitAmount","inputs":[],"outputs":[{"name":"","type":"uint256","internalType":"uint256"}],"stateMutability":"view"},{"type":"function","name":"profitToken","inputs":[],"outputs":[{"name":"","type":"address","internalType":"address"}],"stateMutability":"pure"},{"type":"function","name":"receiveFlashLoan","inputs":[{"name":"tokens","type":"address[]","internalType":"contract IERC20Minimal[]"},{"name":"amounts","type":"uint256[]","internalType":"uint256[]"},{"name":"feeAmounts","type":"uint256[]","internalType":"uint256[]"},{"name":"","type":"bytes","internalType":"bytes"}],"outputs":[],"stateMutability":"nonpayable"},{"type":"function","name":"removedCollateralAmount","inputs":[],"outputs":[{"name":"","type":"uint256","internalType":"uint256"}],"stateMutability":"view"},{"type":"function","name":"uniswapV2Call","inputs":[{"name":"sender","type":"address","internalType":"address"},{"name":"amount0","type":"uint256","internalType":"uint256"},{"name":"amount1","type":"uint256","internalType":"uint256"},{"name":"","type":"bytes","internalType":"bytes"}],"outputs":[],"stateMutability":"nonpayable"},{"type":"function","name":"usedFlashLoan","inputs":[],"outputs":[{"name":"","type":"bool","internalType":"bool"}],"stateMutability":"view"},{"type":"function","name":"withdrawnAmount","inputs":[],"outputs":[{"name":"","type":"uint256","internalType":"uint256"}],"stateMutability":"view"},{"type":"function","name":"zeroRatePersistsAfterUpdate","inputs":[],"outputs":[{"name":"","type":"bool","internalType":"bool"}],"stateMutability":"view"},{"type":"error","name":"FlashLoanUnsupported","inputs":[]},{"type":"error","name":"FlashRepaymentShortfall","inputs":[{"name":"required","type":"uint256","internalType":"uint256"},{"name":"available","type":"uint256","internalType":"uint256"}]},{"type":"error","name":"NoCollateralAdded","inputs":[]},{"type":"error","name":"NoDebtRecorded","inputs":[]},{"type":"error","name":"NoTargetLiquidity","inputs":[]},{"type":"error","name":"OnlyBalancerVault","inputs":[]},{"type":"error","name":"UnexpectedFlashPair","inputs":[{"name":"caller","type":"address","internalType":"address"}]},{"type":"error","name":"UnexpectedFlashSender","inputs":[{"name":"sender","type":"address","internalType":"address"}]},{"type":"error","name":"UnsupportedFlashswap","inputs":[]},{"type":"error","name":"ZeroRateNotObserved","inputs":[]}],"bytecode":{"object":"0x60808060405234601557614577908161001a8239f35b5f80fdfe6080806040526004361015610012575f80fd5b5f905f3560e01c90816302fae74d14610fb25750806309cebe0014610f8d57806310d1e85c14610a185780631afbb7a4146109fa5780633c2448ed146109de578063463defd1146109b857806349343624146109905780635ff972cc146109735780636768dc6314610955578063830de4b11461093757806392dfc01514610911578063b2016bd4146108e8578063cbe85588146108bf578063d22d7adb14610896578063eb77ff0f1461086d578063efb8eed1146108445763f04f2707146100d9575f80fd5b34610841576080366003190112610841576004356001600160401b038111610529573660238201121561052957806004013561011481611207565b9161012260405193846111e6565b8183526024602084019260051b8201019036821161083f57602401915b81831061081b575050506024356001600160401b03811161063b5761016890369060040161121e565b6044356001600160401b0381116107705761018790369060040161121e565b91836064356001600160401b03811161052957366023820112156105295780600401356101b38161127b565b6101c060405191826111e6565b818152366024838501011161077057816024602094018483013701015273ba12222222228d8ba445958a75a0704d566bf2c8330361080c57600260ff6001541614801590610800575b80156107f4575b80156107e8575b6107d9575f5160206145025f395f51905f52906001600160a01b039061023c906116b3565b5116036107ca5761024f610256916116b3565b51916116b3565b5160018211156107ca576005546001600160a01b03166102768382612384565b803b15610770578360405163c57fed1360e01b8152846004820152818160248183875af1801561063f576107b5575b5050604051633ba0b9a960e01b8152602081600481855afa9081156106bd578591610783575b5061077457803b15610770578360405163860ffea160e01b81523060048201526001602482015260016044820152818160648183875af1801561063f5761075b575b5050604051631c9e379b60e01b8152306004820152602081602481855afa80156106bd578590610728575b6001915003610719575f1983018381116107055760408051634b8a352960e01b81523060048201526024810183905291908260448189875af19182156106fa5786926106c8575b50600655158015610659575b61064a578084913b15610529578180916044604051809481936310ec8cff60e31b8352306004840152600160248401525af1801561063f57610626575b505060016008556103d830611ab5565b600755600554604080516302ce728f60e01b81526001600160a01b039092169391908160048188885af19081869187936105f3575b5061054257505061042b925063ff00000019600154166001556116f4565b9061043530611ab5565b82811061052d5750808092604051602081019163a9059cbb60e01b835273ba12222222228d8ba445958a75a0704d566bf2c860248301526044820152604481526104806064826111e6565b5190825f5160206145025f395f51905f525af161049b611296565b816104f2575b50156104bb576201010062ffff0019600154161760015580f35b60405162461bcd60e51b815260206004820152600f60248201526e1d1c985b9cd9995c8b59985a5b1959608a1b6044820152606490fd5b8051801592508215610507575b50505f6104a1565b81925090602091810103126105295760206105229101612252565b5f806104ff565b5080fd5b604492630dde274b60e41b8352600452602452fd5b1590816105ea575b5080610576575b61042b935063ff00000060015491151560181b169063ff0000001916176001556116f4565b50602060049360405194858092633ba0b9a960e01b82525afa80156105df5784906105a7575b61042b935015610551565b506020833d6020116105d7575b816105c1602093836111e6565b810103126105d35761042b925161059c565b5f80fd5b3d91506105b4565b6040513d86823e3d90fd5b9050155f61054a565b909250610618915060403d60401161061f575b61061081836111e6565b81019061225f565b915f61040d565b503d610606565b81610630916111e6565b61063b57825f6103c8565b8280fd5b6040513d84823e3d90fd5b63ea70537f60e01b8452600484fd5b506040516324720b1f60e11b8152306004820152602081602481855afa9081156106bd57859161068b575b501561038b565b90506020813d6020116106b5575b816106a6602093836111e6565b810103126105d357515f610684565b3d9150610699565b6040513d87823e3d90fd5b6106eb91925060403d6040116106f3575b6106e381836111e6565b8101906112e4565b50905f61037f565b503d6106d9565b6040513d88823e3d90fd5b634e487b7160e01b85526011600452602485fd5b6387a2632560e01b8452600484fd5b506020813d602011610753575b81610742602093836111e6565b810103126105d35760019051610338565b3d9150610735565b81610765916111e6565b61077057835f61030d565b8380fd5b63774f209f60e11b8452600484fd5b90506020813d6020116107ad575b8161079e602093836111e6565b810103126105d357515f6102cb565b3d9150610791565b816107bf916111e6565b61077057835f6102a5565b6314bd08d360e31b8352600483fd5b6314bd08d360e31b8452600484fd5b50600183511415610217565b50600182511415610210565b50600181511415610209565b63249a7c6360e21b8452600484fd5b82356001600160a01b038116810361083b5781526020928301920161013f565b8580fd5b845b80fd5b50346108415780600319360112610841576003546040516001600160a01b039091168152602090f35b5034610841578060031936011261084157600154604051602091821c6001600160a01b03168152f35b50346108415780600319360112610841576004546040516001600160a01b039091168152602090f35b50346108415780600319360112610841576005546040516001600160a01b039091168152602090f35b50346108415780600319360112610841576002546040516001600160a01b039091168152602090f35b5034610841578060031936011261084157602060ff60015460101c166040519015158152f35b50346108415780600319360112610841576020600754604051908152f35b50346108415780600319360112610841576020600854604051908152f35b503461084157806003193601126108415760209054604051908152f35b503461084157806003193601126108415760206040515f5160206145025f395f51905f528152f35b5034610841578060031936011261084157602060ff60015460081c166040519015158152f35b50346108415780600319360112610841576109f761131b565b80f35b50346108415780600319360112610841576020600654604051908152f35b50346105d35760803660031901126105d3576004356001600160a01b038116908190036105d357602435906064356001600160401b0381116105d357366023820112156105d35780600401356001600160401b0381116105d357369101602401116105d3576003546001600160a01b03163303610f7a57308103610f68575060015490600160ff831603610f4f578015610f5e57905b8115610f4f57604051633ba0b9a960e01b8152602091821c6001600160a01b031691816004815f5160206145225f395f51905f525afa908115610ed1575f91610f1d575b50610f0e57600254610b1690610b11906001600160a01b031683611701565b61188e565b6002546001600160a01b031690610b49610b303084611b36565b6001549093849160201c6001600160a01b031690611c44565b60018060a01b0360025416916040519262ae511b60e21b8452600484015230602484015230604484015260648301525f608483015260408260a4815f855af1918215610ed1575f92610eeb575b508115610edc575f5160206145225f395f51905f523b156105d35760405163860ffea160e01b81523060048201525f60248201528260448201525f81606481835f5160206145225f395f51905f525af18015610ed157610ebc575b50604051631c9e379b60e01b81523060048201526020816024815f5160206145225f395f51905f525afa80156106bd5783918691610e87575b501061071957604051633de222bb60e21b81525f5160206145025f395f51905f5260048201525f5160206145225f395f51905f526024820152602081604481855afa80156106bd578590610e53575b610c84915082611ce0565b5f5160206145225f395f51905f523b15610770576040516310ec8cff60e31b81523060048201526024810183905284908181604481835f5160206145225f395f51905f525af1801561063f57610e3e575b505060018060a01b036002541691604051630acc462360e31b8152836004820152816024820152856044820152602081606481865afa9081156106fa578691610e0c575b506008556040519263097da6d360e41b84526004840152306024840152306044840152846064840152608483015260408260a48187855af19182156105df57610d6f92610dee575b50610d6a611f5a565b612155565b610d7761227c565b6103e881029081046103e803610dda576103e5900460018101809111610dda57610da030611ab5565b818110610dc45750610db29033612384565b61010061ff0019600154161760015580f35b60449291630dde274b60e41b8352600452602452fd5b634e487b7160e01b82526011600452602482fd5b610e069060403d6040116106f3576106e381836111e6565b50610d61565b90506020813d602011610e36575b81610e27602093836111e6565b810103126105d357515f610d19565b3d9150610e1a565b81610e48916111e6565b61077057835f610cd5565b506020813d602011610e7f575b81610e6d602093836111e6565b810103126105d357610c849051610c79565b3d9150610e60565b9150506020813d602011610eb4575b81610ea3602093836111e6565b810103126105d3578290515f610c2a565b3d9150610e96565b610ec99194505f906111e6565b5f925f610bf1565b6040513d5f823e3d90fd5b6387a2632560e01b5f5260045ffd5b610f0591925060403d6040116106f3576106e381836111e6565b9050905f610b96565b63774f209f60e11b5f5260045ffd5b90506020813d602011610f47575b81610f38602093836111e6565b810103126105d357515f610af2565b3d9150610f2b565b630b1fce4560e11b5f5260045ffd5b5060443590610aae565b6378ab05ff60e01b5f5260045260245ffd5b63ed74b33360e01b5f523360045260245ffd5b346105d3575f3660031901126105d357602060ff60015460181c166040519015158152f35b346105d3575f3660031901126105d357303303611163575f806040516020810190639b352ae160e01b825260048152610fec6024826111e6565b51905f5160206145225f395f51905f525afa611006611296565b9015908115611156575b8115611120575b506105d3575f806040516020810190636b2ace8760e01b82526004815261103f6024826111e6565b51905f5160206145225f395f51905f525afa611059611296565b90158015611115575b6105d35780516001600160a01b0391611083918101602090810191016112c5565b165f80604051602081019063d8dfeb4560e01b8252600481526110a76024826111e6565b51905f5160206145225f395f51905f525afa6110c1611296565b9015801561110a575b6105d35780516001600160a01b03916110eb918101602090810191016112c5565b604080516001600160a01b039485168152929091169092166020820152f35b5060208151106110ca565b506020815110611062565b80515f5160206145025f395f51905f5292506001600160a01b039161114d918101602090810191016112c5565b16141581611017565b9050602081511090611010565b62461bcd60e51b815260206004820152600960248201526837b7363c96b9b2b63360b91b6044820152606490fd5b5f5160206145025f395f51905f5281526001600160a01b03909116602082015260400190565b604081019081106001600160401b038211176111d257604052565b634e487b7160e01b5f52604160045260245ffd5b90601f801991011681019081106001600160401b038211176111d257604052565b6001600160401b0381116111d25760051b60200190565b9080601f830112156105d357813561123581611207565b9261124360405194856111e6565b81845260208085019260051b8201019283116105d357602001905b82821061126b5750505090565b813581526020918201910161125e565b6001600160401b0381116111d257601f01601f191660200190565b3d156112c0573d906112a78261127b565b916112b560405193846111e6565b82523d5f602084013e565b606090565b908160209103126105d357516001600160a01b03811681036105d35790565b91908260409103126105d3576020825192015190565b9190820391821161130757565b634e487b7160e01b5f52601160045260245ffd5b5f5f805577f5bce5077908a1b7370b9ae04add8a2ed8acfae8000000006001600160401b0360c01b60015416176001556001600160601b0360a01b600254166002556001600160601b0360a01b600354166003556001600160601b0360a01b600454166004556001600160601b0360a01b600554166005555f6006555f6007555f6008556113a830611ab5565b6113b0612420565b61168f576040516102238082018281106001600160401b038211176111d25782916136c8833903905ff08015610ed157604051610c178082018281106001600160401b038211176111d25782916138eb833903905ff08015610ed1576040516020926001600160a01b03929092169161142984836111e6565b5f8252823b156105d3576040805163c0d91eaf60e01b81526001600160a01b0390921660048301526024820152905f908290819061146b906044830190612fc4565b038183865af18015610ed15761167a575b506001600160601b0360a01b60055416176005555f5160206145025f395f51905f526001600160601b0360a01b600254161760025560408051916114c082846111e6565b60018352601f19820190808401823682375f5160206145025f395f51905f526114e8866116b3565b528351916114f685846111e6565b6001835280830193368537670de0b6b3a7640000611513846116b3565b52600260ff19600154161760015584519261152e82856111e6565b88845273ba12222222228d8ba445958a75a0704d566bf2c83b15611676579592908894928651978895632e1c224f60e11b87526084870190306004890152608060248901525180915260a487019290885b81811061165357505050858203600319016044870152518082529082019391865b828110611639575050505082820360031901606484015282916115c291612fc4565b03818373ba12222222228d8ba445958a75a0704d566bf2c85af1908115611630575090839161161b575b505060ff196001541660015561160130611ab5565b9080821161160e57505050565b611617916112fa565b9055565b81611625916111e6565b61052957815f6115ec565b513d85823e3d90fd5b835186528b975089965094810194928101926001016115a0565b82516001600160a01b031685528d99508b9850938501939185019160010161157f565b8880fd5b6116879194505f906111e6565b5f925f61147c565b905061169a30611ab5565b908082116116a6575050565b6116af916112fa565b5f55565b8051156116c05760200190565b634e487b7160e01b5f52603260045260245ffd5b8051600110156116c05760400190565b8051600210156116c05760600190565b9190820180921161130757565b604051630acc462360e31b81526001600160a01b0392831660048201526001602482018190526044820152929160209184916064918391165afa918215610ed1575f92611758575b50811561175257565b60019150565b9091506020813d602011611784575b81611774602093836111e6565b810103126105d35751905f611749565b3d9150611767565b51906001600160a01b03821682036105d357565b6020818303126105d3578051906001600160401b0382116105d357019080601f830112156105d35781516117d381611207565b926117e160405194856111e6565b81845260208085019260051b8201019283116105d357602001905b8282106118095750505090565b81518152602091820191016117fc565b90602080835192838152019201905f5b8181106118365750505090565b82516001600160a01b0316845260209384019390920191600101611829565b919260809361187a92979695978452602084015260a0604084015260a0830190611819565b6001600160a01b0390951660608201520152565b6002546001600160a01b03165f5160206145025f395f51905f5214611a1c576004546001600160a01b03166118cb6118c530611ab5565b82611b78565b73d9e1ce17f2641f24ae83637ab66a2cca9c378b9f8103611a9b5773c0aee478e3658e2610c5f7a4a2e1777ce9e4f2ac5b60025460405163e6a4390560e01b81526001600160a01b03909116916020908290818061192c8760048301611191565b03916001600160a01b03165afa908115610ed1575f91611a61575b506001600160a01b0316611a1f57506119f0915f916040519161196b6080846111e6565b6003835260603660208501375f5160206145025f395f51905f5261198e846116b3565b5273c02aaa39b223fe8d0a0e5c4f27ead9083c756cc26119ad846116d4565b526002546001600160a01b03166119c3846116e4565b52836119ce30611ab5565b9360405196879586948593634401edf760e11b85524292309260048701611855565b03925af18015610ed157611a015750565b611a1c903d805f833e611a1481836111e6565b8101906117a0565b50565b5f916119f09360405192611a346060856111e6565b6002845260403660208601375f5160206145025f395f51905f52611a57856116b3565b526119c3846116d4565b90506020813d602011611a93575b81611a7c602093836111e6565b810103126105d357611a8d9061178c565b5f611947565b3d9150611a6f565b735c69bee701ef814a2b6a3edd4b1652cb9cc5aa6f6118fc565b905f80809360405160208101916370a0823160e01b835260018060a01b0316602482015260248152611ae86044826111e6565b51905f5160206145025f395f51905f525afa611b02611296565b9080611b2a575b611b105750565b8051919250602080820192820191909103126105d3575190565b50602081511015611b09565b5f8091939293819460405160208101916370a0823160e01b835260018060a01b0316602482015260248152611b6c6044826111e6565b51915afa611b02611296565b604051636eb1769f60e11b602082019081523060248301526001600160a01b03831660448301529192915f9182918291611bbf81606481015b03601f1981018352826111e6565b51905f5160206145025f395f51905f525afa611bd9611296565b9080611c38575b611c1c575b501015611a1c5780611c07611c1a925f5160206145025f395f51905f52612fe8565b5f5160206145025f395f51905f526130ad565b565b80516020808301935090820191909103126105d357515f611be5565b50602081511015611be0565b604051636eb1769f60e11b602082019081523060248301526001600160a01b03841660448301529193915f9182918291611c818160648101611bb1565b5190875afa611c8e611296565b9080611cd4575b611cb8575b501015611cb45781611caf82611c1a94612fe8565b6130ad565b5050565b80516020808301935090820191909103126105d357515f611c9a565b50602081511015611c95565b90604051633ba0b9a960e01b81526020816004815f5160206145225f395f51905f525afa908115610ed1575f91611f03575b50610f0e575f19810190811161130757604051630acc462360e31b81525f5160206145025f395f51905f52600482015260248101919091525f604482015290602090829060649082906001600160a01b03165afa908115610ed1575f91611ed1575b5060408051634b8a352960e01b8152306004820152602481018390529190826044815f5f5160206145225f395f51905f525af1918215610ed1575f92611eaf575b50600655158015611e3e575b611e2f57604051633ba0b9a960e01b81526020816004815f5160206145225f395f51905f525afa908115610ed1575f91611dfd575b50610f0e57565b90506020813d602011611e27575b81611e18602093836111e6565b810103126105d357515f611df6565b3d9150611e0b565b63ea70537f60e01b5f5260045ffd5b506040516324720b1f60e11b81523060048201526020816024815f5160206145225f395f51905f525afa908115610ed1575f91611e7d575b5015611dc1565b90506020813d602011611ea7575b81611e98602093836111e6565b810103126105d357515f611e76565b3d9150611e8b565b611ec991925060403d6040116106f3576106e381836111e6565b50905f611db5565b90506020813d602011611efb575b81611eec602093836111e6565b810103126105d357515f611d74565b3d9150611edf565b90506020813d602011611f2d575b81611f1e602093836111e6565b810103126105d357515f611d12565b3d9150611f11565b9060809261187a919695949683525f602084015260a0604084015260a0830190611819565b6002546001600160a01b03165f5160206145025f395f51905f528114611a1c57611f843082611b36565b908115611cb4576004546001600160a01b031690611fa59083908390611c44565b73d9e1ce17f2641f24ae83637ab66a2cca9c378b9f810361213b5773c0aee478e3658e2610c5f7a4a2e1777ce9e4f2ac5b60025460405163e6a4390560e01b81526001600160a01b0390911691602090829081806120068760048301611191565b03916001600160a01b03165afa908115610ed1575f91612101575b506001600160a01b03166120bf57506119f0915f91604051916120456080846111e6565b6003835260603660208501376002546001600160a01b0316612066846116b3565b5273c02aaa39b223fe8d0a0e5c4f27ead9083c756cc2612085846116d4565b525f5160206145025f395f51905f5261209d846116e4565b52836040518096819582946338ed173960e01b84524291309160048601611f35565b5f916119f093604051926120d46060856111e6565b6002845260403660208601376120e9846116b3565b525f5160206145025f395f51905f5261209d846116d4565b90506020813d602011612133575b8161211c602093836111e6565b810103126105d35761212d9061178c565b5f612021565b3d915061210f565b735c69bee701ef814a2b6a3edd4b1652cb9cc5aa6f611fd6565b604051633de222bb60e21b81526001600160a01b039190911690602081806121803060048301611191565b0381855afa908115610ed1575f91612220575b508061219d575050565b5f9160a46040928351948593849263097da6d360e41b84525f5160206145025f395f51905f52600485015230602485015230604485015282606485015260848401525af18015610ed1576121fb915f91612200575b506007546116f4565b600755565b612219915060403d6040116106f3576106e381836111e6565b505f6121f2565b90506020813d60201161224a575b8161223b602093836111e6565b810103126105d357515f612193565b3d915061222e565b519081151582036105d357565b91908260409103126105d357602061227683612252565b92015190565b604080516302ce728f60e01b815290816004815f5f5160206145225f395f51905f525af190815f915f93612361575b506122c157505063ff0000001960015416600155565b159081612358575b50806122ed575b63ff00000060015491151560181b169063ff000000191617600155565b50604051633ba0b9a960e01b81526020816004815f5160206145225f395f51905f525afa908115610ed1575f91612326575b50156122d0565b90506020813d602011612350575b81612341602093836111e6565b810103126105d357515f61231f565b3d9150612334565b9050155f6122c9565b90925061237d915060403d60401161061f5761061081836111e6565b915f6122ab565b60405163a9059cbb60e01b602082019081526001600160a01b03909216602482015260448101929092525f918291906123c08160648101611bb1565b5190825f5160206145025f395f51905f525af16123db611296565b816123e9575b50156104bb57565b80518015925082156123fe575b50505f6123e1565b81925090602091810103126105d35760206124199101612252565b5f806123f6565b5f6124296130ee565b15612fbf57600154604051633de222bb60e21b81525f5160206145025f395f51905f5260048201525f5160206145225f395f51905f526024820152602091821c6001600160a01b03169181604481855afa908115610ed1575f91612f8d575b506001811115612eb6576002546001600160a01b03165f5160206145025f395f51905f5214612c0f57506001805460ff19811682179091556002546040518492916001600160a01b03169083906124de816111b7565b73c0aee478e3658e2610c5f7a4a2e1777ce9e4f2ac8152735c69bee701ef814a2b6a3edd4b1652cb9cc5aa6f602082015260405161251b816111b7565b73d9e1ce17f2641f24ae83637ab66a2cca9c378b9f8152737a250d5630b4cf539739df2c5dacb4c659f2488d6020820152604051608081018181106001600160401b03821117612bfb5760405273c02aaa39b223fe8d0a0e5c4f27ead9083c756cc28152736b175474e89094c44da98b954eedeac495271d0f602082015273a0b86991c6218b36c1d19d4a2e9eb0ce3606eb48604082015273dac17f958d2ee523a2206206994597c13d831ec76060820152889089905b600282106128b157505050505060018060a01b031693841580156128a0575b61289157906126038161260a93611701565b90846132b8565b9166038d7ea4c68000830180931161070557906201000191846001600160601b0360a01b600354161760035560018060a01b03166001600160601b0360a01b600454161760045562ff00ff191617600155604051630dfe168160e01b8152602081600481865afa9081156105df578491612857575b5060405163d21220a760e01b815290602082600481875afa9182156106bd57859261280d575b506001600160a01b03165f5160206145025f395f51905f520361276c5750813b1561063b5760405163022c0d9f60e01b81526004810191909152602481018390523060448201526080606482015260016084820152600160f81b60a4820152908290829060c490829084905af1801561063f57612757575b50505b6001600160601b0360a01b600354166003556001600160601b0360a01b6004541660045560ff6001548119811660015560081c1690565b6127628280926111e6565b610841578061271d565b6001600160a01b03165f5160206145025f395f51905f52036127fe57813b1561063b5760405163022c0d9f60e01b81526004810184905260248101919091523060448201526080606482015260016084820152600160f81b60a4820152908290829060c490829084905af1801561063f576127e9575b5050612720565b6127f48280926111e6565b61084157806127e2565b630b1fce4560e11b8352600483fd5b9091506020813d60201161284f575b81612829602093836111e6565b8101031261083f576128485f5160206145025f395f51905f529161178c565b91906126a5565b3d915061281c565b90506020813d602011612889575b81612872602093836111e6565b81010312610770576128839061178c565b5f61267f565b3d9150612865565b63df88b0cf60e01b8652600486fd5b506001600160a01b038416156125f1565b999a93999298919790969295919290916128de816001600160a01b036128d78b8f61328d565b51166134b4565b15612be6578b5b6004811015612bcd578c61293360208e6129068d60018060a01b039261328d565b511660018060a01b038560051b8d01511690604051808095819463e6a4390560e01b835260048301611191565b03915afa918215612ab95791612b90575b506001600160a01b0381168e81158015612b87575b612b7c57604051630240bc6b60e21b8152909182606083600481855afa918215612b6f5781938293612b15575b50604051630dfe168160e01b8152602081600481855afa8015612b0a578390612ac5575b6001600160a01b03165f5160206145025f395f51905f5214159050612a10575050506001600160701b039150165b8b81116129ec575b50506001905b016128e5565b9a509650925060016001600160a01b03612a068a8d61328d565b511693905f6129e0565b60405163d21220a760e01b8152929350602090839060049082905afa908115612ab95790612a6f575b6001600160a01b03165f5160206145025f395f51905f52149050612a5e575b506129d8565b6001600160701b039150165f612a58565b506020813d8211612ab1575b81612a88602093836111e6565b81010312612aac57612aa75f5160206145025f395f51905f529161178c565b612a39565b508f80fd5b3d9150612a7b565b604051903d90823e3d90fd5b506020813d8211612b02575b81612ade602093836111e6565b8101031261063b57612afd5f5160206145025f395f51905f529161178c565b6129aa565b3d9150612ad1565b6040513d85823e3d90fd5b935091506060833d8211612b67575b81612b31606093836111e6565b8101031261084157612b42836136b3565b6040612b50602086016136b3565b94015163ffffffff8116036105295792915f612986565b3d9150612b24565b50604051903d90823e3d90fd5b5050506001906129e6565b50823b15612959565b90506020813d8211612bc5575b81612baa602093836111e6565b81010312612bc157612bbb9061178c565b5f612944565b8d80fd5b3d9150612b9d565b509590966001909b9a949b9993999892985b01906125d2565b9590966001909b9a949b999399989298612bdf565b634e487b7160e01b8a52604160045260248afd5b604080516302ce728f60e01b815290816004815f5f5160206145225f395f51905f525af1908115610ed1575f905f92612f6b575b50159081612f62575b5080612ef7575b63ff00000060015491151560181b169063ff000000191617600155604051633ba0b9a960e01b81526020816004815f5160206145225f395f51905f525afa908115610ed1575f91612ec5575b50610f0e575f19810181811161130757600111612eb6575f5160206145225f395f51905f523b156105d35760405163860ffea160e01b815230600482015260016024820181905260448201525f81606481835f5160206145225f395f51905f525af18015610ed157612ea1575b50604051631c9e379b60e01b81523060048201526020816024815f5160206145225f395f51905f525afa80156105df578490612e6e575b6001915010612e5f57612d569082611ce0565b5f5160206145225f395f51905f523b15610529576040516310ec8cff60e31b8152306004820152600160248201528281604481835f5160206145225f395f51905f525af18015612b0a57908391612e4a575b5050604051630acc462360e31b81525f5160206145025f395f51905f526004820152600160248201526044810183905291602083606481855afa908115612ab95790612e16575b612dfc9250600855612155565b612e0461227c565b6001805461ff00191661010017815590565b506020823d602011612e42575b81612e30602093836111e6565b810103126105d357612dfc9151612def565b3d9150612e23565b81612e54916111e6565b61052957815f612da8565b6387a2632560e01b8352600483fd5b506020813d602011612e99575b81612e88602093836111e6565b810103126105d35760019051612d43565b3d9150612e7b565b612eae9193505f906111e6565b5f915f612d0c565b63df88b0cf60e01b5f5260045ffd5b90506020813d602011612eef575b81612ee0602093836111e6565b810103126105d357515f612c9f565b3d9150612ed3565b50604051633ba0b9a960e01b81526020816004815f5160206145225f395f51905f525afa908115610ed1575f91612f30575b5015612c53565b90506020813d602011612f5a575b81612f4b602093836111e6565b810103126105d357515f612f29565b3d9150612f3e565b9050155f612c4c565b9050612f86915060403d60401161061f5761061081836111e6565b905f612c43565b90506020813d602011612fb7575b81612fa8602093836111e6565b810103126105d357515f612488565b3d9150612f9b565b505f90565b805180835260209291819084018484015e5f828201840152601f01601f1916010190565b60405163095ea7b360e01b602082019081526001600160a01b0390931660248201525f604480830182905282529283929183906130266064826111e6565b51925af1613032611296565b81613076575b501561304057565b60405162461bcd60e51b815260206004820152600e60248201526d185c1c1c9bdd994b59985a5b195960921b6044820152606490fd5b805180159250821561308b575b50505f613038565b81925090602091810103126105d35760206130a69101612252565b5f80613083565b60405163095ea7b360e01b602082019081526001600160a01b0390931660248201525f1960448083019190915281525f9283929183906130266064826111e6565b604051633ba0b9a960e01b81526020816004815f5160206145225f395f51905f525afa5f9181613259575b5061312357505f90565b613255576040516324720b1f60e11b81523060048201526020816024815f5160206145225f395f51905f525afa9081613226575b50613160575f90565b604080516302fae74d60e01b81526001929181600481305afa90815f915f936131dd575b5061319057505f925050565b60018054640100000000600160c01b03191660209290921b640100000000600160c01b0316919091179055600280546001600160a01b0319166001600160a01b0392909216919091179055565b915091506040813d60401161321e575b816131fa604093836111e6565b810103126105d35761321760206132108361178c565b920161178c565b915f613184565b3d91506131ed565b6020813d60201161324d575b8161323f602093836111e6565b810103126105d35751613157565b3d9150613232565b5f90565b9091506020813d602011613285575b81613275602093836111e6565b810103126105d35751905f613119565b3d9150613268565b9060028110156116c05760051b0190565b6040906132b5939281528160208201520190611819565b90565b6001600160a01b03821692905f5160206145025f395f51905f5284146134ad576001600160a01b0316916133359060209073d9e1ce17f2641f24ae83637ab66a2cca9c378b9f85036134935773c0aee478e3658e2610c5f7a4a2e1777ce9e4f2ac5b604051808095819463e6a4390560e01b835260048301611191565b03916001600160a01b03165afa908115610ed1575f91613459575b506001600160a01b031661341657915f916133dd93604051926133746080856111e6565b6003845260603660208601375f5160206145025f395f51905f52613397856116b3565b5273c02aaa39b223fe8d0a0e5c4f27ead9083c756cc26133b6856116d4565b526133c0846116e4565b526040518095819482936307c0329d60e21b84526004840161329e565b03915afa8015610ed1576133f8915f916133fc575b506116b3565b5190565b61341091503d805f833e611a1481836111e6565b5f6133f2565b915f916133dd936040519261342c6060856111e6565b6002845260403660208601375f5160206145025f395f51905f5261344f856116b3565b526133c0846116d4565b90506020813d60201161348b575b81613474602093836111e6565b810103126105d3576134859061178c565b5f613350565b3d9150613467565b735c69bee701ef814a2b6a3edd4b1652cb9cc5aa6f61331a565b5091505090565b6001600160a01b038216905f5160206145025f395f51905f5282146136ab5760405163e6a4390560e01b81526001600160a01b0390911692602090829081906135009060048301611191565b0381865afa908115610ed1575f91613671575b506001600160a01b031661362a5760405163e6a4390560e01b81525f5160206145025f395f51905f52600482015273c02aaa39b223fe8d0a0e5c4f27ead9083c756cc26024820152602081604481865afa908115610ed1575f91613637575b506001600160a01b0316156136315773c02aaa39b223fe8d0a0e5c4f27ead9083c756cc2811461362a5760209060446040518094819363e6a4390560e01b835273c02aaa39b223fe8d0a0e5c4f27ead9083c756cc2600484015260248301525afa908115610ed1575f916135f0575b506001600160a01b0316151590565b90506020813d602011613622575b8161360b602093836111e6565b810103126105d35761361c9061178c565b5f6135e1565b3d91506135fe565b5050600190565b50505f90565b90506020813d602011613669575b81613652602093836111e6565b810103126105d3576136639061178c565b5f613572565b3d9150613645565b90506020813d6020116136a3575b8161368c602093836111e6565b810103126105d35761369d9061178c565b5f613513565b3d915061367f565b505050600190565b51906001600160701b03821682036105d35756fe60808060405234601557610209908161001a8239f35b5f80fdfe60806040526004361015610011575f80fd5b5f3560e01c8063c699c4d6146100ea578063d39bbef0146100d0578063d568866c14610055578063d6d7d525146100505763eeb8a8d314610050575f80fd5b6101b4565b346100cc5761006336610139565b5050604051604081019080821067ffffffffffffffff8311176100b8576100b4916040526014815273105b1dd85e5cc8155b9a5b9a5d1a585b1a5e995960621b60208201526040519182918261018a565b0390f35b634e487b7160e01b5f52604160045260245ffd5b5f80fd5b346100cc576100de36610139565b505060206040515f8152f35b346100cc576100f836610139565b5050604051604081019080821067ffffffffffffffff8311176100b8576100b49160405260048152635a45524f60e01b60208201526040519182918261018a565b9060206003198301126100cc5760043567ffffffffffffffff81116100cc57826023820112156100cc5780600401359267ffffffffffffffff84116100cc57602484830101116100cc576024019190565b602060409281835280519182918282860152018484015e5f828201840152601f01601f1916010190565b346100cc576101c236610139565b5050604080515f81525f6020820152f3fea2646970667358221220d8d0dd8ba35e2b6ee68b192477475dcebe8675e1e976efc773c1814bb8a10b2964736f6c634300081e003360808060405234601557610bfd908161001a8239f35b5f80fdfe6080806040526004361015610012575f80fd5b5f3560e01c90816302ce728f146108e4575080631c9e379b146108ac5780633ba0b9a91461088f578063473e3ce71461087257806348e4163e1461083a5780634b8a3529146106f457806374645ff3146106165780637dc0d1d0146105ef578063860ffea114610499578063876467f81461039d57806387d283e41461036557806393697f8414610348578063c0d91eaf146101b55763c57fed13146100b6575f80fd5b3461019e57602036600319011261019e57600435604051906370a0823160e01b82523060048301526020826024817399d8a9c45b2eca8864373a26d1459e3dff1e17f35afa9182156101aa575f92610172575b50600454916101238261011e60035486610ab7565b610ab7565b116101365761013191610ab7565b600455005b60405162461bcd60e51b81526020600482015260146024820152731a5b9cdd59999a58da595b9d0b58d85c1a5d185b60621b6044820152606490fd5b9091506020813d6020116101a2575b8161018e60209383610a74565b8101031261019e5751905f610109565b5f80fd5b3d9150610181565b6040513d5f823e3d90fd5b3461019e57604036600319011261019e576101ce610a26565b6024359067ffffffffffffffff821161019e573660238301121561019e5781600401359067ffffffffffffffff821161019e57366024838501011161019e5760018060a01b03166bffffffffffffffffffffffff60a01b5f5416175f55610236600154610a3c565b601f81116102e4575b505f601f82116001146102795781925f9261026b575b50505f19600383901b1c1916600191821b179055005b602492500101358280610255565b601f198216925f516020610ba85f395f51905f52915f5b8581106102c9575083600195106102ad575b505050811b01600155005b01602401355f19600384901b60f8161c191690558280806102a2565b90926020600181926024878701013581550194019101610290565b601f820160051c5f516020610ba85f395f51905f52019060208310610333575b601f0160051c5f516020610ba85f395f51905f5201905b818110610328575061023f565b5f815560010161031b565b5f516020610ba85f395f51905f529150610304565b3461019e575f36600319011261019e576020600454604051908152f35b3461019e57602036600319011261019e576001600160a01b03610386610a26565b165f526007602052602060405f2054604051908152f35b3461019e57604036600319011261019e576103b6610a26565b60243590335f52600660205260405f206103d1838254610ad8565b90556103df82600354610ad8565b6003556103ee60025433610b23565b1561048a5760405163a9059cbb60e01b81526001600160a01b0391909116600482015260248101919091526020816044815f7399d8a9c45b2eca8864373a26d1459e3dff1e17f35af180156101aa575f9061044f575b61044d90610ae5565b005b506020813d602011610482575b8161046960209383610a74565b8101031261019e5761047d61044d91610aaa565b610444565b3d915061045c565b631f84400760e31b5f5260045ffd5b3461019e57606036600319011261019e576104b2610a26565b602435801515810361019e57604435901561051f5760045491818310610510576104df8261050b94610ad8565b6004555b60018060a01b03165f52600660205260405f20610501828254610ab7565b9055600354610ab7565b600355005b63b8ceb00b60e01b5f5260045ffd5b6040516323b872dd60e01b8152336004820152306024820152604481018290526020816064815f7399d8a9c45b2eca8864373a26d1459e3dff1e17f35af19081156101aa575f916105b5575b501561057a5761050b916104e3565b60405162461bcd60e51b81526020600482015260136024820152721d1c985b9cd9995c919c9bdb4b59985a5b1959606a1b6044820152606490fd5b90506020813d6020116105e7575b816105d060209383610a74565b8101031261019e576105e190610aaa565b8361056b565b3d91506105c3565b3461019e575f36600319011261019e575f546040516001600160a01b039091168152602090f35b3461019e575f36600319011261019e57604051600154905f61063783610a3c565b8083526020830193600181169081156106d9575060011461068e575b5090610663816040930382610a74565b8151928391602083525180918160208501528484015e5f828201840152601f01601f19168101030190f35b91905060015f525f516020610ba85f395f51905f52915f905b8082106106bf57509091508101602001610663610653565b9192600181602092548385880101520191019092916106a7565b60ff1916855250151560051b82016020019050610663610653565b3461019e57604036600319011261019e5761070d610a26565b602435806004541061082b57335f52600560205260405f20610730828254610ab7565b905561073e60025433610b23565b1561048a576020816107aa9361075682600454610ad8565b60045560018060a01b0381165f526007835260405f20610777838254610ab7565b905560405163a9059cbb60e01b81526001600160a01b039091166004820152602481019190915292839081906044820190565b03815f7399d8a9c45b2eca8864373a26d1459e3dff1e17f35af19182156101aa575f926107eb575b506107de604092610ae5565b8151908082526020820152f35b91506020823d602011610823575b8161080660209383610a74565b8101031261019e576107de61081c604093610aaa565b92506107d2565b3d91506107f9565b63bb55fd2760e01b5f5260045ffd5b3461019e57602036600319011261019e576001600160a01b0361085b610a26565b165f526005602052602060405f2054604051908152f35b3461019e575f36600319011261019e576020600354604051908152f35b3461019e575f36600319011261019e576020600254604051908152f35b3461019e57602036600319011261019e576001600160a01b036108cd610a26565b165f526006602052602060405f2054604051908152f35b3461019e575f36600319011261019e575f805463eeb8a8d360e01b8352602060048401526001546001600160a01b0390911691839161092281610a3c565b908160248501526001811690815f14610a0457506001146109bf575b5091818060409403915afa80156101aa575f905f9061097e575b60409250811561097557806002555b825191151582526020820152f35b50600254610967565b50506040813d6040116109b7575b8161099960409383610a74565b8101031261019e578060206109af604093610aaa565b910151610958565b3d915061098c565b60015f90815291505f516020610ba85f395f51905f525b8183106109ea57505081016044018161093e565b8054604484880101528593506020909201916001016109d6565b60ff191660448086019190915291151560051b8401909101915082905061093e565b600435906001600160a01b038216820361019e57565b90600182811c92168015610a6a575b6020831014610a5657565b634e487b7160e01b5f52602260045260245ffd5b91607f1691610a4b565b90601f8019910116810190811067ffffffffffffffff821117610a9657604052565b634e487b7160e01b5f52604160045260245ffd5b5190811515820361019e57565b91908201809211610ac457565b634e487b7160e01b5f52601160045260245ffd5b91908203918211610ac457565b15610aec57565b60405162461bcd60e51b815260206004820152600f60248201526e1d1c985b9cd9995c8b59985a5b1959608a1b6044820152606490fd5b6001600160a01b03165f81815260056020526040902054918215610b9f57815f52600660205260405f205415610b985780830292830403610ac4575f52600660205260405f205490620124f8820291808304620124f81490151715610ac457670de0b6b3a7640000620186a091049104101590565b5050505f90565b50505060019056feb10e2d527612073b26eecdfd717e6a320cf44b4afac2b0732d9fcbe2b7fa0cf6a264697066735822122070e4b0b2f956f5e64d247dfb93a9ad4fd54a7f90522e3b3b8dabe18b72f0793864736f6c634300081e003300000000000000000000000099d8a9c45b2eca8864373a26d1459e3dff1e17f3000000000000000000000000bb02a884621fb8f5bfd263a67f58b65df5b090f3a26469706673582212200114486583bf12781e0844927482387c1289d723db97b73a473c8ad29e69269c64736f6c634300081e0033","linkReferences":{}},"methodIdentifiers":{"_loadLiveMetadata()":"02fae74d","activePair()":"efb8eed1","activeRouter()":"d22d7adb","bentoBoxAddress()":"eb77ff0f","borrowedAmount()":"1afbb7a4","collateralToken()":"b2016bd4","deployedClone()":"cbe85588","executeOnOpportunity()":"3c2448ed","hypothesisValidated()":"463defd1","profitAmount()":"5ff972cc","profitToken()":"49343624","receiveFlashLoan(address[],uint256[],uint256[],bytes)":"f04f2707","removedCollateralAmount()":"6768dc63","uniswapV2Call(address,uint256,uint256,bytes)":"10d1e85c","usedFlashLoan()":"92dfc015","withdrawnAmount()":"830de4b1","zeroRatePersistsAfterUpdate()":"09cebe00"},"id":0}