{"abi":[{"type":"function","name":"addCollateral","inputs":[{"name":"to","type":"address","internalType":"address"},{"name":"skim","type":"bool","internalType":"bool"},{"name":"share","type":"uint256","internalType":"uint256"}],"outputs":[],"stateMutability":"nonpayable"},{"type":"function","name":"availableAssetShare","inputs":[],"outputs":[{"name":"","type":"uint256","internalType":"uint256"}],"stateMutability":"view"},{"type":"function","name":"borrow","inputs":[{"name":"to","type":"address","internalType":"address"},{"name":"amount","type":"uint256","internalType":"uint256"}],"outputs":[{"name":"part","type":"uint256","internalType":"uint256"},{"name":"share","type":"uint256","internalType":"uint256"}],"stateMutability":"nonpayable"},{"type":"function","name":"claimableShare","inputs":[{"name":"","type":"address","internalType":"address"}],"outputs":[{"name":"","type":"uint256","internalType":"uint256"}],"stateMutability":"view"},{"type":"function","name":"exchangeRate","inputs":[],"outputs":[{"name":"","type":"uint256","internalType":"uint256"}],"stateMutability":"view"},{"type":"function","name":"init","inputs":[{"name":"oracle_","type":"address","internalType":"address"},{"name":"oracleData_","type":"bytes","internalType":"bytes"}],"outputs":[],"stateMutability":"nonpayable"},{"type":"function","name":"oracle","inputs":[],"outputs":[{"name":"","type":"address","internalType":"contract IOracleLike"}],"stateMutability":"view"},{"type":"function","name":"oracleData","inputs":[],"outputs":[{"name":"","type":"bytes","internalType":"bytes"}],"stateMutability":"view"},{"type":"function","name":"removeCollateral","inputs":[{"name":"to","type":"address","internalType":"address"},{"name":"share","type":"uint256","internalType":"uint256"}],"outputs":[],"stateMutability":"nonpayable"},{"type":"function","name":"seedLiquidity","inputs":[{"name":"share","type":"uint256","internalType":"uint256"}],"outputs":[],"stateMutability":"nonpayable"},{"type":"function","name":"totalCollateralShare","inputs":[],"outputs":[{"name":"","type":"uint256","internalType":"uint256"}],"stateMutability":"view"},{"type":"function","name":"updateExchangeRate","inputs":[],"outputs":[{"name":"updated","type":"bool","internalType":"bool"},{"name":"rate","type":"uint256","internalType":"uint256"}],"stateMutability":"nonpayable"},{"type":"function","name":"userBorrowPart","inputs":[{"name":"","type":"address","internalType":"address"}],"outputs":[{"name":"","type":"uint256","internalType":"uint256"}],"stateMutability":"view"},{"type":"function","name":"userCollateralShare","inputs":[{"name":"","type":"address","internalType":"address"}],"outputs":[{"name":"","type":"uint256","internalType":"uint256"}],"stateMutability":"view"},{"type":"error","name":"Insolvent","inputs":[]},{"type":"error","name":"InsufficientLiquidity","inputs":[]},{"type":"error","name":"SkimTooMuch","inputs":[]}],"bytecode":{"object":"0x60808060405234601557610bfd908161001a8239f35b5f80fdfe6080806040526004361015610012575f80fd5b5f3560e01c90816302ce728f146108e4575080631c9e379b146108ac5780633ba0b9a91461088f578063473e3ce71461087257806348e4163e1461083a5780634b8a3529146106f457806374645ff3146106165780637dc0d1d0146105ef578063860ffea114610499578063876467f81461039d57806387d283e41461036557806393697f8414610348578063c0d91eaf146101b55763c57fed13146100b6575f80fd5b3461019e57602036600319011261019e57600435604051906370a0823160e01b82523060048301526020826024817399d8a9c45b2eca8864373a26d1459e3dff1e17f35afa9182156101aa575f92610172575b50600454916101238261011e60035486610ab7565b610ab7565b116101365761013191610ab7565b600455005b60405162461bcd60e51b81526020600482015260146024820152731a5b9cdd59999a58da595b9d0b58d85c1a5d185b60621b6044820152606490fd5b9091506020813d6020116101a2575b8161018e60209383610a74565b8101031261019e5751905f610109565b5f80fd5b3d9150610181565b6040513d5f823e3d90fd5b3461019e57604036600319011261019e576101ce610a26565b6024359067ffffffffffffffff821161019e573660238301121561019e5781600401359067ffffffffffffffff821161019e57366024838501011161019e5760018060a01b03166bffffffffffffffffffffffff60a01b5f5416175f55610236600154610a3c565b601f81116102e4575b505f601f82116001146102795781925f9261026b575b50505f19600383901b1c1916600191821b179055005b602492500101358280610255565b601f198216925f516020610ba85f395f51905f52915f5b8581106102c9575083600195106102ad575b505050811b01600155005b01602401355f19600384901b60f8161c191690558280806102a2565b90926020600181926024878701013581550194019101610290565b601f820160051c5f516020610ba85f395f51905f52019060208310610333575b601f0160051c5f516020610ba85f395f51905f5201905b818110610328575061023f565b5f815560010161031b565b5f516020610ba85f395f51905f529150610304565b3461019e575f36600319011261019e576020600454604051908152f35b3461019e57602036600319011261019e576001600160a01b03610386610a26565b165f526007602052602060405f2054604051908152f35b3461019e57604036600319011261019e576103b6610a26565b60243590335f52600660205260405f206103d1838254610ad8565b90556103df82600354610ad8565b6003556103ee60025433610b23565b1561048a5760405163a9059cbb60e01b81526001600160a01b0391909116600482015260248101919091526020816044815f7399d8a9c45b2eca8864373a26d1459e3dff1e17f35af180156101aa575f9061044f575b61044d90610ae5565b005b506020813d602011610482575b8161046960209383610a74565b8101031261019e5761047d61044d91610aaa565b610444565b3d915061045c565b631f84400760e31b5f5260045ffd5b3461019e57606036600319011261019e576104b2610a26565b602435801515810361019e57604435901561051f5760045491818310610510576104df8261050b94610ad8565b6004555b60018060a01b03165f52600660205260405f20610501828254610ab7565b9055600354610ab7565b600355005b63b8ceb00b60e01b5f5260045ffd5b6040516323b872dd60e01b8152336004820152306024820152604481018290526020816064815f7399d8a9c45b2eca8864373a26d1459e3dff1e17f35af19081156101aa575f916105b5575b501561057a5761050b916104e3565b60405162461bcd60e51b81526020600482015260136024820152721d1c985b9cd9995c919c9bdb4b59985a5b1959606a1b6044820152606490fd5b90506020813d6020116105e7575b816105d060209383610a74565b8101031261019e576105e190610aaa565b8361056b565b3d91506105c3565b3461019e575f36600319011261019e575f546040516001600160a01b039091168152602090f35b3461019e575f36600319011261019e57604051600154905f61063783610a3c565b8083526020830193600181169081156106d9575060011461068e575b5090610663816040930382610a74565b8151928391602083525180918160208501528484015e5f828201840152601f01601f19168101030190f35b91905060015f525f516020610ba85f395f51905f52915f905b8082106106bf57509091508101602001610663610653565b9192600181602092548385880101520191019092916106a7565b60ff1916855250151560051b82016020019050610663610653565b3461019e57604036600319011261019e5761070d610a26565b602435806004541061082b57335f52600560205260405f20610730828254610ab7565b905561073e60025433610b23565b1561048a576020816107aa9361075682600454610ad8565b60045560018060a01b0381165f526007835260405f20610777838254610ab7565b905560405163a9059cbb60e01b81526001600160a01b039091166004820152602481019190915292839081906044820190565b03815f7399d8a9c45b2eca8864373a26d1459e3dff1e17f35af19182156101aa575f926107eb575b506107de604092610ae5565b8151908082526020820152f35b91506020823d602011610823575b8161080660209383610a74565b8101031261019e576107de61081c604093610aaa565b92506107d2565b3d91506107f9565b63bb55fd2760e01b5f5260045ffd5b3461019e57602036600319011261019e576001600160a01b0361085b610a26565b165f526005602052602060405f2054604051908152f35b3461019e575f36600319011261019e576020600354604051908152f35b3461019e575f36600319011261019e576020600254604051908152f35b3461019e57602036600319011261019e576001600160a01b036108cd610a26565b165f526006602052602060405f2054604051908152f35b3461019e575f36600319011261019e575f805463eeb8a8d360e01b8352602060048401526001546001600160a01b0390911691839161092281610a3c565b908160248501526001811690815f14610a0457506001146109bf575b5091818060409403915afa80156101aa575f905f9061097e575b60409250811561097557806002555b825191151582526020820152f35b50600254610967565b50506040813d6040116109b7575b8161099960409383610a74565b8101031261019e578060206109af604093610aaa565b910151610958565b3d915061098c565b60015f90815291505f516020610ba85f395f51905f525b8183106109ea57505081016044018161093e565b8054604484880101528593506020909201916001016109d6565b60ff191660448086019190915291151560051b8401909101915082905061093e565b600435906001600160a01b038216820361019e57565b90600182811c92168015610a6a575b6020831014610a5657565b634e487b7160e01b5f52602260045260245ffd5b91607f1691610a4b565b90601f8019910116810190811067ffffffffffffffff821117610a9657604052565b634e487b7160e01b5f52604160045260245ffd5b5190811515820361019e57565b91908201809211610ac457565b634e487b7160e01b5f52601160045260245ffd5b91908203918211610ac457565b15610aec57565b60405162461bcd60e51b815260206004820152600f60248201526e1d1c985b9cd9995c8b59985a5b1959608a1b6044820152606490fd5b6001600160a01b03165f81815260056020526040902054918215610b9f57815f52600660205260405f205415610b985780830292830403610ac4575f52600660205260405f205490620124f8820291808304620124f81490151715610ac457670de0b6b3a7640000620186a091049104101590565b5050505f90565b50505060019056feb10e2d527612073b26eecdfd717e6a320cf44b4afac2b0732d9fcbe2b7fa0cf6a264697066735822122070e4b0b2f956f5e64d247dfb93a9ad4fd54a7f90522e3b3b8dabe18b72f0793864736f6c634300081e0033","linkReferences":{}},"methodIdentifiers":{"addCollateral(address,bool,uint256)":"860ffea1","availableAssetShare()":"93697f84","borrow(address,uint256)":"4b8a3529","claimableShare(address)":"87d283e4","exchangeRate()":"3ba0b9a9","init(address,bytes)":"c0d91eaf","oracle()":"7dc0d1d0","oracleData()":"74645ff3","removeCollateral(address,uint256)":"876467f8","seedLiquidity(uint256)":"c57fed13","totalCollateralShare()":"473e3ce7","updateExchangeRate()":"02ce728f","userBorrowPart(address)":"48e4163e","userCollateralShare(address)":"1c9e379b"},"id":0}