{"abi":[{"type":"constructor","inputs":[],"stateMutability":"nonpayable"},{"type":"receive","stateMutability":"payable"},{"type":"function","name":"owner","inputs":[],"outputs":[{"name":"","type":"address","internalType":"address"}],"stateMutability":"view"},{"type":"function","name":"sellAllToPair","inputs":[{"name":"pair","type":"address","internalType":"address"},{"name":"ups","type":"address","internalType":"address"}],"outputs":[{"name":"amountOut","type":"uint256","internalType":"uint256"}],"stateMutability":"nonpayable"},{"type":"function","name":"sellPortionToPair","inputs":[{"name":"pair","type":"address","internalType":"address"},{"name":"ups","type":"address","internalType":"address"},{"name":"amountIn","type":"uint256","internalType":"uint256"}],"outputs":[{"name":"amountOut","type":"uint256","internalType":"uint256"}],"stateMutability":"nonpayable"},{"type":"function","name":"sweep","inputs":[{"name":"token","type":"address","internalType":"address"},{"name":"to","type":"address","internalType":"address"}],"outputs":[{"name":"amount","type":"uint256","internalType":"uint256"}],"stateMutability":"nonpayable"},{"type":"function","name":"sweepETH","inputs":[{"name":"to","type":"address","internalType":"address payable"}],"outputs":[{"name":"amount","type":"uint256","internalType":"uint256"}],"stateMutability":"nonpayable"}],"bytecode":{"object":"0x60a08060405234603d573360805261095090816100428239608051818181607d01528181610161015281816101ef015281816102bf01526104390152f35b5f80fdfe6080604052600436101561001a575b3615610018575f80fd5b005b5f3560e01c80631163b2b014610293578063183418b4146101c75780631ec10d13146101905780638da5cb5b1461014c5763b8dc491b0361000e57346101355760403660031901126101355761006e610353565b610076610369565b906100ab337f00000000000000000000000000000000000000000000000000000000000000006001600160a01b03161461037f565b6040516370a0823160e01b8152306004820152906020826024816001600160a01b0385165afa918215610141575f92610106575b5081602093816100f5575b505050604051908152f35b6100fe92610857565b5f81816100ea565b9291506020833d602011610139575b81610122602093836103b8565b81010312610135576020925191926100df565b5f80fd5b3d9150610115565b6040513d5f823e3d90fd5b34610135575f366003190112610135576040517f00000000000000000000000000000000000000000000000000000000000000006001600160a01b03168152602090f35b346101355760603660031901126101355760206101bf6101ae610353565b6101b6610369565b6044359161042d565b604051908152f35b34610135576040366003190112610135576101e0610353565b6101e8610369565b9061021d337f00000000000000000000000000000000000000000000000000000000000000006001600160a01b03161461037f565b6040516370a0823160e01b8152306004820152906020826024816001600160a01b0387165afa918215610141575f9261025e575b60206101bf84868561042d565b91506020823d60201161028b575b81610279602093836103b8565b81010312610135579051906020610251565b3d915061026c565b34610135576020366003190112610135576004356001600160a01b03811690819003610135576102ed337f00000000000000000000000000000000000000000000000000000000000000006001600160a01b03161461037f565b479081610300575b602082604051908152f35b5f80808481945af16103106103ee565b501561031c57816102f5565b60405162461bcd60e51b815260206004820152600f60248201526e195d1a081cd95b990819985a5b1959608a1b6044820152606490fd5b600435906001600160a01b038216820361013557565b602435906001600160a01b038216820361013557565b1561038657565b60405162461bcd60e51b815260206004820152600a60248201526937b7363c9037bbb732b960b11b6044820152606490fd5b90601f8019910116810190811067ffffffffffffffff8211176103da57604052565b634e487b7160e01b5f52604160045260245ffd5b3d15610428573d9067ffffffffffffffff82116103da576040519161041d601f8201601f1916602001846103b8565b82523d5f602084013e565b606090565b61046c929190610467337f00000000000000000000000000000000000000000000000000000000000000006001600160a01b03161461037f565b6104c6565b90565b9081602091031261013557516001600160a01b03811681036101355790565b51906001600160701b038216820361013557565b805180835260209291819084018484015e5f828201840152601f01601f1916010190565b929190925f9180156107a757604051630dfe168160e01b81526001600160a01b0383169290602081600481875afa908115610141575f91610788575b5060405163d21220a760e01b8152602081600481885afa908115610141575f91610759575b50604051630240bc6b60e21b815291606083600481895afa918215610141575f935f936106fe575b506001600160a01b038a8116921682036106195750506105879392916001600160701b038061058193169116846107af565b96610857565b6040516105956020826103b8565b8281525f366020830137813b15610615576105e38392839260405194858094819363022c0d9f60e01b83528360048401528b60248401523060448401526080606484015260848301906104a2565b03925af1801561060a576105f5575050565b6106008280926103b8565b6106075750565b80fd5b6040513d84823e3d90fd5b8280fd5b95965090946001600160a01b0316036106c75761064c936001600160701b038061064693169116846107af565b95610857565b6040519061065b6020836103b8565b5f808352366020840137803b15610135576106aa5f9291839260405194858094819363022c0d9f60e01b83528a60048401528360248401523060448401526080606484015260848301906104a2565b03925af18015610141576106bb5750565b5f6106c5916103b8565b565b60405162461bcd60e51b815260206004820152600f60248201526e2aa829903737ba1034b7103830b4b960891b6044820152606490fd5b935091506060833d606011610751575b8161071b606093836103b8565b810103126101355761072c8361048e565b604061073a6020860161048e565b94015163ffffffff8116036101355792915f61054f565b3d915061070e565b61077b915060203d602011610781575b61077381836103b8565b81019061046f565b5f610527565b503d610769565b6107a1915060203d6020116107815761077381836103b8565b5f610502565b505f93505050565b91909180159081801561084f575b8015610847575b61083f576103e58102918183046103e514171561082b57826103e591020291818304148115171561082b576103e88302928084046103e8149015171561082b57820180921161082b578115610817570490565b634e487b7160e01b5f52601260045260245ffd5b634e487b7160e01b5f52601160045260245ffd5b505050505f90565b5082156107c4565b5083156107bd565b5f929183809360405190602082019363a9059cbb60e01b855260018060a01b031660248301526044820152604481526108916064826103b8565b51925af161089d6103ee565b816108e2575b50156108ab57565b60405162461bcd60e51b815260206004820152600f60248201526e1d1c985b9cd9995c8819985a5b1959608a1b6044820152606490fd5b80518015925082156108f7575b50505f6108a3565b819250906020918101031261013557602001518015158103610135575f806108ef56fea26469706673582212207d4f40dae4047c2bc37c0b46ab91a1a8cd608985dea8103dd1fcfa5006ec5e0e64736f6c634300081e0033","linkReferences":{}},"methodIdentifiers":{"owner()":"8da5cb5b","sellAllToPair(address,address)":"183418b4","sellPortionToPair(address,address,uint256)":"1ec10d13","sweep(address,address)":"b8dc491b","sweepETH(address)":"1163b2b0"},"id":0}