{"abi":[{"type":"constructor","inputs":[],"stateMutability":"payable"},{"type":"function","name":"boost","inputs":[{"name":"target","type":"address","internalType":"address payable"}],"outputs":[],"stateMutability":"nonpayable"},{"type":"function","name":"recover","inputs":[],"outputs":[],"stateMutability":"nonpayable"}],"bytecode":{"object":"0x60a06040523373ffffffffffffffffffffffffffffffffffffffff1660808173ffffffffffffffffffffffffffffffffffffffff16815250506080516105766100565f395f818160eb015261017a01526105765ff3fe608060405234801561000f575f5ffd5b5060043610610034575f3560e01c8063b7c6ad2f14610038578063ce74602414610054575b5f5ffd5b610052600480360381019061004d91906102ac565b61005e565b005b61005c6100e9565b005b67016345785d8a00004710156100a9576040517f08c379a00000000000000000000000000000000000000000000000000000000081526004016100a090610331565b60405180910390fd5b67016345785d8a0000816040516100bf90610242565b6100c9919061035e565b6040518091039082f09050801580156100e4573d5f5f3e3d5ffd5b505050565b7f000000000000000000000000000000000000000000000000000000000000000073ffffffffffffffffffffffffffffffffffffffff163373ffffffffffffffffffffffffffffffffffffffff1614610177576040517f08c379a000000000000000000000000000000000000000000000000000000000815260040161016e906103c1565b60405180910390fd5b5f7f000000000000000000000000000000000000000000000000000000000000000073ffffffffffffffffffffffffffffffffffffffff16476040516101bc9061040c565b5f6040518083038185875af1925050503d805f81146101f6576040519150601f19603f3d011682016040523d82523d5f602084013e6101fb565b606091505b505090508061023f576040517f08c379a00000000000000000000000000000000000000000000000000000000081526004016102369061046a565b60405180910390fd5b50565b60b88061048983390190565b5f5ffd5b5f73ffffffffffffffffffffffffffffffffffffffff82169050919050565b5f61027b82610252565b9050919050565b61028b81610271565b8114610295575f5ffd5b50565b5f813590506102a681610282565b92915050565b5f602082840312156102c1576102c061024e565b5b5f6102ce84828501610298565b91505092915050565b5f82825260208201905092915050565b7f424f4f53545f45584841555354454400000000000000000000000000000000005f82015250565b5f61031b600f836102d7565b9150610326826102e7565b602082019050919050565b5f6020820190508181035f8301526103488161030f565b9050919050565b61035881610271565b82525050565b5f6020820190506103715f83018461034f565b92915050565b7f4e4f545f4f574e455200000000000000000000000000000000000000000000005f82015250565b5f6103ab6009836102d7565b91506103b682610377565b602082019050919050565b5f6020820190508181035f8301526103d88161039f565b9050919050565b5f81905092915050565b50565b5f6103f75f836103df565b9150610402826103e9565b5f82019050919050565b5f610416826103ec565b9150819050919050565b7f5245434f5645525f4641494c45440000000000000000000000000000000000005f82015250565b5f610454600e836102d7565b915061045f82610420565b602082019050919050565b5f6020820190508181035f83015261048181610448565b905091905056fe608060405260405160b838038060b88339818101604052810190602191906091565b8073ffffffffffffffffffffffffffffffffffffffff16ff5b5f5ffd5b5f73ffffffffffffffffffffffffffffffffffffffff82169050919050565b5f606582603e565b9050919050565b607381605d565b8114607c575f5ffd5b50565b5f81519050608b81606c565b92915050565b5f6020828403121560a35760a2603a565b5b5f60ae84828501607f565b9150509291505056fea2646970667358221220cd4e5bd7e3ac629ec287296193ad124c7cd9c882b72b3df59b58459b06bff94464736f6c634300081e0033","linkReferences":{}},"methodIdentifiers":{"boost(address)":"b7c6ad2f","recover()":"ce746024"},"id":0}