{"abi":[{"type":"constructor","inputs":[],"stateMutability":"nonpayable"},{"type":"receive","stateMutability":"payable"},{"type":"function","name":"approveRepayment","inputs":[{"name":"repayWstEth","type":"uint256","internalType":"uint256"},{"name":"repayWeth","type":"uint256","internalType":"uint256"}],"outputs":[],"stateMutability":"nonpayable"},{"type":"function","name":"attempted","inputs":[],"outputs":[{"name":"","type":"bool","internalType":"bool"}],"stateMutability":"view"},{"type":"function","name":"borrowedWethAmount","inputs":[],"outputs":[{"name":"","type":"uint256","internalType":"uint256"}],"stateMutability":"view"},{"type":"function","name":"depositCollateralAndBorrowStage","inputs":[],"outputs":[],"stateMutability":"nonpayable"},{"type":"function","name":"executeOnOpportunity","inputs":[],"outputs":[],"stateMutability":"nonpayable"},{"type":"function","name":"executeOperation","inputs":[{"name":"","type":"address[]","internalType":"address[]"},{"name":"amounts","type":"uint256[]","internalType":"uint256[]"},{"name":"premiums","type":"uint256[]","internalType":"uint256[]"},{"name":"","type":"address","internalType":"address"},{"name":"","type":"bytes","internalType":"bytes"}],"outputs":[{"name":"","type":"bool","internalType":"bool"}],"stateMutability":"nonpayable"},{"type":"function","name":"exitBalancerPoolStage","inputs":[],"outputs":[],"stateMutability":"nonpayable"},{"type":"function","name":"handleFlashloanCallback","inputs":[{"name":"borrowedWstEth","type":"uint256","internalType":"uint256"},{"name":"borrowedWeth","type":"uint256","internalType":"uint256"},{"name":"premiumWstEth","type":"uint256","internalType":"uint256"},{"name":"premiumWeth","type":"uint256","internalType":"uint256"}],"outputs":[{"name":"","type":"bool","internalType":"bool"}],"stateMutability":"nonpayable"},{"type":"function","name":"hypothesisValidated","inputs":[],"outputs":[{"name":"","type":"bool","internalType":"bool"}],"stateMutability":"view"},{"type":"function","name":"joinBalancerPoolStage","inputs":[],"outputs":[],"stateMutability":"nonpayable"},{"type":"function","name":"mintSteCrvSeedStage","inputs":[],"outputs":[],"stateMutability":"nonpayable"},{"type":"function","name":"oraclePriceAfterExit","inputs":[],"outputs":[{"name":"","type":"uint256","internalType":"uint256"}],"stateMutability":"view"},{"type":"function","name":"oraclePriceBeforeExit","inputs":[],"outputs":[{"name":"","type":"uint256","internalType":"uint256"}],"stateMutability":"view"},{"type":"function","name":"oraclePriceDuringCallback","inputs":[],"outputs":[{"name":"","type":"uint256","internalType":"uint256"}],"stateMutability":"view"},{"type":"function","name":"performExploitStages","inputs":[],"outputs":[],"stateMutability":"nonpayable"},{"type":"function","name":"profitAmount","inputs":[],"outputs":[{"name":"","type":"uint256","internalType":"uint256"}],"stateMutability":"view"},{"type":"function","name":"profitToken","inputs":[],"outputs":[{"name":"","type":"address","internalType":"address"}],"stateMutability":"pure"},{"type":"function","name":"removeRecoveredBptLiquidityStage","inputs":[],"outputs":[],"stateMutability":"nonpayable"},{"type":"function","name":"requestFlashloan","inputs":[{"name":"wstEthShortfall","type":"uint256","internalType":"uint256"},{"name":"wethShortfall","type":"uint256","internalType":"uint256"}],"outputs":[],"stateMutability":"nonpayable"},{"type":"function","name":"settleAndValidate","inputs":[{"name":"repayWstEth","type":"uint256","internalType":"uint256"}],"outputs":[],"stateMutability":"nonpayable"},{"type":"function","name":"withdrawSteCrvAndLiquidateStage","inputs":[],"outputs":[],"stateMutability":"nonpayable"}],"bytecode":{"object":"0x608060405234601c57600e6020565b61537461002b823961537490f35b6026565b60405190565b5f80fdfe6080604052600436101561001d575b3661098b5761001b612525565b005b6100275f35610176565b80630286cc24146101715780630413ef2d1461016c57806315dde763146101675780631a1ea498146101625780631f149c7c1461015d5780632699a5e0146101585780633c2448ed14610153578063463defd11461014e57806349343624146101495780635ff972cc146101445780637ef43d761461013f57806386c354841461013a57806386dcc58f14610135578063880929f414610130578063917f51b41461012b578063920f5c8414610126578063aa4693b214610121578063ad0316801461011c578063c3b8522014610117578063cde0d4ef146101125763d0e5ac280361000e57610957565b610922565b6108df565b61087f565b61084c565b6107ef565b610611565b6105cf565b61059c565b610569565b610534565b6104f0565b6104bb565b61044d565b6103de565b6103ab565b610376565b610332565b6102a1565b610268565b61019e565b60e01c90565b60405190565b5f80fd5b5f80fd5b5f91031261019457565b610186565b5f0190565b346101cc576101ae36600461018a565b6101b6610a51565b6101be61017c565b806101c881610199565b0390f35b610182565b5f80fd5b90565b6101e1816101d5565b036101e857565b5f80fd5b905035906101f9826101d8565b565b60808183031261023c57610211825f83016101ec565b9261023961022284602085016101ec565b9361023081604086016101ec565b936060016101ec565b90565b610186565b151590565b61024f90610241565b9052565b9190610266905f60208501940190610246565b565b3461029c5761029861028761027e3660046101fb565b92919091610b4f565b61028f61017c565b91829182610253565b0390f35b610182565b346102cf576102b136600461018a565b6102b9610d27565b6102c161017c565b806102cb81610199565b0390f35b610182565b1c90565b90565b6102eb9060086102f093026102d4565b6102d8565b90565b906102fe91546102db565b90565b61030d60025f906102f3565b90565b610319906101d5565b9052565b9190610330905f60208501940190610310565b565b346103625761034236600461018a565b61035e61034d610301565b61035561017c565b9182918261031d565b0390f35b610182565b61037360015f906102f3565b90565b346103a65761038636600461018a565b6103a2610391610367565b61039961017c565b9182918261031d565b0390f35b610182565b346103d9576103bb36600461018a565b6103c3610d55565b6103cb61017c565b806103d581610199565b0390f35b610182565b3461040c576103ee36600461018a565b6103f6610f13565b6103fe61017c565b8061040881610199565b0390f35b610182565b60ff1690565b61042790600861042c93026102d4565b610411565b90565b9061043a9154610417565b90565b61044a600560019061042f565b90565b3461047d5761045d36600461018a565b61047961046861043d565b61047061017c565b91829182610253565b0390f35b610182565b60018060a01b031690565b61049690610482565b90565b6104a29061048d565b9052565b91906104b9905f60208501940190610499565b565b346104eb576104cb36600461018a565b6104e76104d6611029565b6104de61017c565b918291826104a6565b0390f35b610182565b346105205761050036600461018a565b61051c61050b61106a565b61051361017c565b9182918261031d565b0390f35b610182565b61053160035f906102f3565b90565b346105645761054436600461018a565b61056061054f610525565b61055761017c565b9182918261031d565b0390f35b610182565b346105975761057936600461018a565b61058161107f565b61058961017c565b8061059381610199565b0390f35b610182565b346105ca576105ac36600461018a565b6105b46110ad565b6105bc61017c565b806105c681610199565b0390f35b610182565b346105fd576105df36600461018a565b6105e76110db565b6105ef61017c565b806105f981610199565b0390f35b610182565b61060e60055f9061042f565b90565b346106415761062136600461018a565b61063d61062c610602565b61063461017c565b91829182610253565b0390f35b610182565b5f80fd5b5f80fd5b5f80fd5b909182601f8301121561068c5781359167ffffffffffffffff831161068757602001926020830284011161068257565b61064e565b61064a565b610646565b909182601f830112156106cb5781359167ffffffffffffffff83116106c65760200192602083028401116106c157565b61064e565b61064a565b610646565b6106d98161048d565b036106e057565b5f80fd5b905035906106f1826106d0565b565b909182601f8301121561072d5781359167ffffffffffffffff831161072857602001926001830284011161072357565b61064e565b61064a565b610646565b919060a0838203126107ea575f83013567ffffffffffffffff81116107e5578161075d918501610652565b929093602081013567ffffffffffffffff81116107e05783610780918301610691565b929093604083013567ffffffffffffffff81116107db57816107a3918501610691565b9290936107b383606083016106e4565b92608082013567ffffffffffffffff81116107d6576107d292016106f3565b9091565b6101d1565b6101d1565b6101d1565b6101d1565b610186565b3461082957610825610814610805366004610732565b97969096959195949294611671565b61081c61017c565b91829182610253565b0390f35b610182565b9060208282031261084757610844915f016101ec565b90565b610186565b3461087a5761086461085f36600461082e565b6117fd565b61086c61017c565b8061087681610199565b0390f35b610182565b346108ad5761088f36600461018a565b610897611834565b61089f61017c565b806108a981610199565b0390f35b610182565b91906040838203126108da57806108ce6108d7925f86016101ec565b936020016101ec565b90565b610186565b3461090e576108f86108f23660046108b2565b90611cac565b61090061017c565b8061090a81610199565b0390f35b610182565b61091f60045f906102f3565b90565b346109525761093236600461018a565b61094e61093d610913565b61094561017c565b9182918261031d565b0390f35b610182565b346109865761097061096a3660046108b2565b90612108565b61097861017c565b8061098281610199565b0390f35b610182565b5f80fd5b90565b6109a66109a16109ab92610482565b61098f565b610482565b90565b6109b790610992565b90565b6109c3906109ae565b90565b60209181520190565b5f7f6f6e6c792d73656c660000000000000000000000000000000000000000000000910152565b610a0360096020926109c6565b610a0c816109cf565b0190565b610a259060208101905f8183039101526109f6565b90565b15610a2f57565b610a3761017c565b62461bcd60e51b815280610a4d60048201610a10565b0390fd5b610a7533610a6f610a69610a64306109ba565b61048d565b9161048d565b14610a28565b610a7d612a6f565b565b5f90565b634e487b7160e01b5f52601160045260245ffd5b610aa6610aac919392936101d5565b926101d5565b8201809211610ab757565b610a83565b5f80fd5b601f801991011690565b634e487b7160e01b5f52604160045260245ffd5b90610ae890610ac0565b810190811067ffffffffffffffff821117610b0257604052565b610aca565b60e01b90565b5f910312610b1757565b610186565b610b2461017c565b3d5f823e3d90fd5b916020610b4d929493610b4660408201965f830190610310565b0190610310565b565b610b9292610b8c91949294610b62610a7f565b50610b8733610b81610b7b610b76306109ba565b61048d565b9161048d565b14610a28565b610a97565b92610a97565b90610b9c306109ba565b63880929f490803b15610d2257610bbf915f91610bb761017c565b938492610b07565b8252818381610bd060048201610199565b03925af18015610d1d57610cf1575b50610be9306109ba565b63aa4693b282823b15610cec57610c1f92610c145f8094610c0861017c565b96879586948593610b07565b83526004830161031d565b03925af18015610ce757610cbb575b50610c38306109ba565b9163d0e5ac28919092803b15610cb657610c655f8094610c70610c5961017c565b97889687958694610b07565b845260048401610b2c565b03925af18015610cb157610c85575b50600190565b610ca4905f3d8111610caa575b610c9c8183610ade565b810190610b0d565b5f610c7f565b503d610c92565b610b1c565b610abc565b610cda905f3d8111610ce0575b610cd28183610ade565b810190610b0d565b5f610c2e565b503d610cc8565b610b1c565b610abc565b610d10905f3d8111610d16575b610d088183610ade565b810190610b0d565b5f610bdf565b503d610cfe565b610b1c565b610abc565b610d4b33610d45610d3f610d3a306109ba565b61048d565b9161048d565b14610a28565b610d53612daf565b565b610d7933610d73610d6d610d68306109ba565b61048d565b9161048d565b14610a28565b610d816134f5565b565b5f1c90565b610d94610d9991610d83565b610411565b90565b610da69054610d88565b90565b5f7f616c72656164792d617474656d70746564000000000000000000000000000000910152565b610ddd60116020926109c6565b610de681610da9565b0190565b610dff9060208101905f818303910152610dd0565b90565b15610e0957565b610e1161017c565b62461bcd60e51b815280610e2760048201610dea565b0390fd5b5f1b90565b90610e3c60ff91610e2b565b9181191691161790565b610e4f90610241565b90565b90565b90610e6a610e65610e7192610e46565b610e52565b8254610e30565b9055565b90565b610e8c610e87610e9192610e75565b61098f565b6101d5565b90565b610ea7690a968163f0a57b400000610e78565b90565b90565b610ec1610ebc610ec692610eaa565b61098f565b6101d5565b90565b610edc690c11f9e7b10e91a00000610ead565b90565b90565b610ef6610ef1610efb92610edf565b61098f565b6101d5565b90565b610f10683ba1910bf341b00000610ee2565b90565b610f2e610f29610f236005610d9c565b15610241565b610e02565b610f3a60016005610e55565b610f43306109ba565b63c3b85220610f50610e94565b610f69610f5b610ec9565b610f63610efe565b90610a97565b92803b15610fdc57610f8e5f8094610f99610f8261017c565b97889687958694610b07565b845260048401610b2c565b03925af18015610fd757610fab575b50565b610fca905f3d8111610fd0575b610fc28183610ade565b810190610b0d565b5f610fa8565b503d610fb8565b610b1c565b610abc565b5f90565b610fee90610992565b90565b610ffa90610fe5565b90565b61101a73c02aaa39b223fe8d0a0e5c4f27ead9083c756cc2610ff1565b90565b611026906109ae565b90565b611031610fe1565b5061104261103d610ffd565b61101d565b90565b5f90565b61105561105a91610d83565b6102d8565b90565b6110679054611049565b90565b611072611045565b5061107c5f61105d565b90565b6110a33361109d611097611092306109ba565b61048d565b9161048d565b14610a28565b6110ab613b46565b565b6110d1336110cb6110c56110c0306109ba565b61048d565b9161048d565b14610a28565b6110d9613e7a565b565b6110ff336110f96110f36110ee306109ba565b61048d565b9161048d565b14610a28565b611108306109ba565b6386c3548490803b1561140e5761112b915f9161112361017c565b938492610b07565b825281838161113c60048201610199565b03925af18015611409576113dd575b50611155306109ba565b63ad03168090803b156113d857611178915f9161117061017c565b938492610b07565b825281838161118960048201610199565b03925af180156113d3576113a7575b506111a2306109ba565b632699a5e090803b156113a2576111c5915f916111bd61017c565b938492610b07565b82528183816111d660048201610199565b03925af1801561139d57611371575b506111ef306109ba565b630286cc2490803b1561136c57611212915f9161120a61017c565b938492610b07565b825281838161122360048201610199565b03925af180156113675761133b575b5061123c306109ba565b6386dcc58f90803b156113365761125f915f9161125761017c565b938492610b07565b825281838161127060048201610199565b03925af1801561133157611305575b50611289306109ba565b6315dde76390803b15611300576112ac915f916112a461017c565b938492610b07565b82528183816112bd60048201610199565b03925af180156112fb576112cf575b50565b6112ee905f3d81116112f4575b6112e68183610ade565b810190610b0d565b5f6112cc565b503d6112dc565b610b1c565b610abc565b611324905f3d811161132a575b61131c8183610ade565b810190610b0d565b5f61127f565b503d611312565b610b1c565b610abc565b61135a905f3d8111611360575b6113528183610ade565b810190610b0d565b5f611232565b503d611348565b610b1c565b610abc565b611390905f3d8111611396575b6113888183610ade565b810190610b0d565b5f6111e5565b503d61137e565b610b1c565b610abc565b6113c6905f3d81116113cc575b6113be8183610ade565b810190610b0d565b5f611198565b503d6113b4565b610b1c565b610abc565b6113fc905f3d8111611402575b6113f48183610ade565b810190610b0d565b5f61114b565b503d6113ea565b610b1c565b610abc565b61141c90610992565b90565b61142890611413565b90565b6114487387870bca3f3fd6335c3f4ce8392d69350b4fa4e261141f565b90565b611454906109ae565b90565b5f7f6e6f742d61617665000000000000000000000000000000000000000000000000910152565b61148b60086020926109c6565b61149481611457565b0190565b6114ad9060208101905f81830391015261147e565b90565b156114b757565b6114bf61017c565b62461bcd60e51b8152806114d560048201611498565b0390fd5b5090565b90565b6114f46114ef6114f9926114dd565b61098f565b6101d5565b90565b5f7f6261642d666c6173686c6f616e2d736861706500000000000000000000000000910152565b61153060136020926109c6565b611539816114fc565b0190565b6115529060208101905f818303910152611523565b90565b1561155c57565b61156461017c565b62461bcd60e51b81528061157a6004820161153d565b0390fd5b634e487b7160e01b5f52603260045260245ffd5b91908110156115a2576020020190565b61157e565b90565b6115be6115b96115c3926115a7565b61098f565b6101d5565b90565b356115d0816101d8565b90565b90565b6115ea6115e56115ef926115d3565b61098f565b6101d5565b90565b6115fb81610241565b0361160257565b5f80fd5b90505190611613826115f2565b565b9060208282031261162e5761162b915f01611606565b90565b610186565b61166861166f9461165e606094989795611654608086019a5f870190610310565b6020850190610310565b6040830190610310565b0190610310565b565b5050935061177f91929550602094505f9061168a610a7f565b506116b6336116b06116aa6116a56116a061142b565b61144b565b61048d565b9161048d565b146114b0565b6116c18582906114d9565b6116d46116ce60026114e0565b916101d5565b14806117d3575b6116e490611555565b61178a6116f0306109ba565b9461176a611765611736611731630413ef2d9661171f61171a8d836117148d6115aa565b91611592565b6115c6565b9b9061172b60016115d6565b91611592565b6115c6565b9a61175361174e85836117488b6115aa565b91611592565b6115c6565b939061175f60016115d6565b91611592565b6115c6565b9061177361017c565b998a9889978896610b07565b865260048601611633565b03925af19081156117ce575f916117a0575b5090565b6117c1915060203d81116117c7575b6117b98183610ade565b810190611615565b5f61179c565b503d6117af565b610b1c565b506116e46117e28589906114d9565b6117f56117ef60026114e0565b916101d5565b1490506116db565b61182a906118253361181f611819611814306109ba565b61048d565b9161048d565b14610a28565b614223565b611832614764565b565b6118583361185261184c611847306109ba565b61048d565b9161048d565b14610a28565b6118606149c5565b565b9061187561186e61017c565b9283610ade565b565b67ffffffffffffffff811161188f5760208091020190565b610aca565b906118a66118a183611877565b611862565b918252565b369037565b906118d56118bd83611894565b926020806118cb8693611877565b92019103906118ab565b565b6118e090610992565b90565b6118ec906118d7565b90565b61190c737f39c581f595b53c5cb19bd0b3f8da6c935e2ca06118e3565b90565b611918906109ae565b90565b5190565b906119298261191b565b81101561193a576020809102010190565b61157e565b906119499061048d565b9052565b67ffffffffffffffff81116119655760208091020190565b610aca565b9061197c6119778361194d565b611862565b918252565b369037565b906119ab6119938361196a565b926020806119a1869361194d565b9201910390611981565b565b5190565b906119bb826119ad565b8110156119cc576020809102010190565b61157e565b906119db906101d5565b9052565b67ffffffffffffffff81116119fd576119f9602091610ac0565b0190565b610aca565b90611a14611a0f836119df565b611862565b918252565b611a225f611a02565b90565b611a2d611a19565b90565b60209181520190565b60200190565b611a489061048d565b9052565b90611a5981602093611a3f565b0190565b60200190565b90611a80611a7a611a738461191b565b8093611a30565b92611a39565b905f5b818110611a905750505090565b909192611aa9611aa36001928651611a4c565b94611a5d565b9101919091611a83565b60209181520190565b60200190565b611acb906101d5565b9052565b90611adc81602093611ac2565b0190565b60200190565b90611b03611afd611af6846119ad565b8093611ab3565b92611abc565b905f5b818110611b135750505090565b909192611b2c611b266001928651611acf565b94611ae0565b9101919091611b06565b5190565b60209181520190565b90825f9392825e0152565b611b6d611b76602093611b7b93611b6481611b36565b93848093611b3a565b95869101611b43565b610ac0565b0190565b61ffff1690565b611b9a611b95611b9f926115a7565b61098f565b611b7f565b90565b611bab90611b86565b9052565b97969491611c0860c095611bfa611c2096611beb611c289b96611c13968f611bde60e08201935f830190610499565b6020818403910152611a63565b908d6040818403910152611ae6565b908b820360608d0152611ae6565b9260808a0190610499565b87820360a0890152611b4e565b940190611ba2565b565b90505190611c37826101d8565b565b90602082820312611c5257611c4f915f01611c2a565b90565b610186565b90611c635f1991610e2b565b9181191691161790565b611c81611c7c611c86926101d5565b61098f565b6101d5565b90565b90565b90611ca1611c9c611ca892611c6d565b611c89565b8254611c57565b9055565b90611cd133611ccb611cc5611cc0306109ba565b61048d565b9161048d565b14610a28565b611d85611ce6611ce160026114e0565b6118b0565b91611d12611cfa611cf56118ef565b61190f565b611d0d85611d075f6115aa565b9061191f565b61193f565b611d3e611d25611d20610ffd565b61101d565b611d3985611d3360016115d6565b9061191f565b61193f565b611d6c611d53611d4e60026114e0565b611986565b94611d6786611d615f6115aa565b906119b1565b6119d1565b611d8084611d7a60016115d6565b906119b1565b6119d1565b611d97611d9260026114e0565b611986565b90611da8611da361142b565b61144b565b63ab9c4b5d611db6306109ba565b929493611dc2306109ba565b91611dcb611a25565b955f853b15611ed8575f97611df4958995611dff94611de861017c565b9c8d9b8c9a8b99610b07565b895260048901611baf565b03925af18015611ed357611ea7575b50611e566020611e24611e1f610ffd565b61101d565b6370a0823190611e4b611e36306109ba565b92611e3f61017c565b95869485938493610b07565b8352600483016104a6565b03915afa8015611ea257611e72915f91611e74575b505f611c8c565b565b611e95915060203d8111611e9b575b611e8d8183610ade565b810190611c39565b5f611e6b565b503d611e83565b610b1c565b611ec6905f3d8111611ecc575b611ebe8183610ade565b810190610b0d565b5f611e0e565b503d611eb4565b610b1c565b610abc565b5f7f696e73756666696369656e742d7773746574682d746f2d726570617900000000910152565b611f11601c6020926109c6565b611f1a81611edd565b0190565b611f339060208101905f818303910152611f04565b90565b15611f3d57565b611f4561017c565b62461bcd60e51b815280611f5b60048201611f1e565b0390fd5b5f7f6e6f6e2d70726f66697461626c65000000000000000000000000000000000000910152565b611f93600e6020926109c6565b611f9c81611f5f565b0190565b611fb59060208101905f818303910152611f86565b90565b15611fbf57565b611fc761017c565b62461bcd60e51b815280611fdd60048201611fa0565b0390fd5b916020612002929493611ffb60408201965f830190610499565b0190610310565b565b5f7f617070726f76652d777374657468000000000000000000000000000000000000910152565b612038600e6020926109c6565b61204181612004565b0190565b61205a9060208101905f81830391015261202b565b90565b1561206457565b61206c61017c565b62461bcd60e51b81528061208260048201612045565b0390fd5b5f7f617070726f76652d776574680000000000000000000000000000000000000000910152565b6120ba600c6020926109c6565b6120c381612086565b0190565b6120dc9060208101905f8183039101526120ad565b90565b156120e657565b6120ee61017c565b62461bcd60e51b815280612104600482016120c7565b0390fd5b61212c3361212661212061211b306109ba565b61048d565b9161048d565b14610a28565b612173602061214161213c6118ef565b61190f565b6370a0823190612168612153306109ba565b9261215c61017c565b95869485938493610b07565b8352600483016104a6565b03915afa80156123b8576121a2915f9161238a575b5061219b612195846101d5565b916101d5565b1015611f36565b6121e960206121b76121b2610ffd565b61101d565b6370a08231906121de6121c9306109ba565b926121d261017c565b95869485938493610b07565b8352600483016104a6565b03915afa801561238557612217915f91612357575b5061221161220b856101d5565b916101d5565b11611fb8565b60206122296122246118ef565b61190f565b9163095ea7b39261225d5f61224461223f61142b565b61144b565b939561226861225161017c565b97889687958694610b07565b845260048401611fe1565b03925af1801561235257612283915f91612324575b5061205d565b6020612295612290610ffd565b61101d565b9163095ea7b3926122c95f6122b06122ab61142b565b61144b565b93956122d46122bd61017c565b97889687958694610b07565b845260048401611fe1565b03925af1801561231f576122ef915f916122f1575b506120df565b565b612312915060203d8111612318575b61230a8183610ade565b810190611615565b5f6122e9565b503d612300565b610b1c565b612345915060203d811161234b575b61233d8183610ade565b810190611615565b5f61227d565b503d612333565b610b1c565b612378915060203d811161237e575b6123708183610ade565b810190611c39565b5f6121fe565b503d612366565b610b1c565b6123ab915060203d81116123b1575b6123a38183610ade565b810190611c39565b5f612188565b503d612399565b610b1c565b60101c90565b6123cf6123d4916123bd565b610411565b90565b6123e190546123c3565b90565b60181c90565b6123f66123fb916123e4565b610411565b90565b61240890546123ea565b90565b60181b90565b9061242063ff0000009161240b565b9181191691161790565b9061243f61243a61244692610e46565b610e52565b8254612411565b9055565b61245390610992565b90565b61245f9061244a565b90565b61247f73e5d78eb340627b8d5bcff63590ebec1ef9118c89612456565b90565b61248b906109ae565b90565b7310aa9eea35a3102cc47d4d93bc0ba9ae4555774690565b6124af90610992565b90565b6124bb906124a6565b90565b6124db739f72dc67cec672bb99e3d02cbea0a21536a2b6576124b2565b90565b6124e7906109ae565b90565b73901247d08bebfd449526da92941b35d756873bcd90565b91602061252392949361251c60408201965f830190610499565b0190610246565b565b61252f60056123d7565b80612677575b61253c575b565b6125486001600561242a565b61258e602061255d612558612462565b612482565b63b3596f079061258361256e61248e565b9261257761017c565b95869485938493610b07565b8352600483016104a6565b03915afa8015612672576125ab915f91612644575b506002611c8c565b6125bb6125b66124be565b6124de565b635a3b74b96125c86124ea565b5f92803b1561263f576125ee5f80946125f96125e261017c565b97889687958694610b07565b845260048401612502565b03925af1801561263a5761260e575b5061253a565b61262d905f3d8111612633575b6126258183610ade565b810190610b0d565b5f612608565b503d61261b565b610b1c565b610abc565b612665915060203d811161266b575b61265d8183610ade565b810190611c39565b5f6125a3565b503d612653565b610b1c565b5061268b61268560056123fe565b15610241565b612535565b61269990610992565b90565b6126a590612690565b90565b6126c57332296969ef14eb0c6d29669c550d4a044913023061269c565b90565b6126d1906109ae565b90565b90565b6126e0816126d4565b036126e757565b5f80fd5b905051906126f8826126d7565b565b9060208282031261271357612710915f016126eb565b90565b610186565b5f7f6e6f2d6270742d746f2d65786974000000000000000000000000000000000000910152565b61274c600e6020926109c6565b61275581612718565b0190565b61276e9060208101905f81830391015261273f565b90565b1561277857565b61278061017c565b62461bcd60e51b81528061279660048201612759565b0390fd5b60101b90565b906127ae62ff00009161279a565b9181191691161790565b906127cd6127c86127d492610e46565b610e52565b82546127a0565b9055565b6127e190610992565b90565b6127ed906127d8565b90565b61280d73ba12222222228d8ba445958a75a0704d566bf2c86127e4565b90565b612819906109ae565b90565b61282590610992565b90565b6128319061281c565b90565b61283d906126d4565b9052565b61284a90610482565b90565b61285690612841565b9052565b60209181520190565b9061288061287a6128738461191b565b809361285a565b92611a39565b905f5b8181106128905750505090565b9091926128a96128a36001928651611a4c565b94611a5d565b9101919091612883565b60209181520190565b906128d96128d36128cc846119ad565b80936128b3565b92611abc565b905f5b8181106128e95750505090565b9091926129026128fc6001928651611acf565b94611ae0565b91019190916128dc565b60209181520190565b61293461293d6020936129429361292b81611b36565b9384809361290c565b95869101611b43565b610ac0565b0190565b61294f90610241565b9052565b906129a79060608061299c61298a612978608086015f8901518782035f890152612863565b602088015186820360208801526128bc565b60408701518582036040870152612915565b940151910190612946565b90565b90926129dd906129d36129ea96946129c960808601975f870190612834565b6020850190610499565b604083019061284d565b6060818403910152612953565b90565b5f7f63616c6c6261636b2d6e6f742d68697400000000000000000000000000000000910152565b612a2160106020926109c6565b612a2a816129ed565b0190565b612a439060208101905f818303910152612a14565b90565b15612a4d57565b612a5561017c565b62461bcd60e51b815280612a6b60048201612a2e565b0390fd5b612a9a6020612a84612a7f6126a8565b6126c8565b6338fff2d090612a9261017c565b938492610b07565b82528180612aaa60048201610199565b03915afa908115612daa575f91612d7c575b50612b046020612ad2612acd6126a8565b6126c8565b6370a0823190612af9612ae4306109ba565b92612aed61017c565b95869485938493610b07565b8352600483016104a6565b03915afa908115612d77575f91612d49575b5090612b3582612b2e612b285f6115aa565b916101d5565b1415612771565b612b7b6020612b4a612b45612462565b612482565b63b3596f0790612b70612b5b61248e565b92612b6461017c565b95869485938493610b07565b8352600483016104a6565b03915afa8015612d4457612b98915f91612d16575b506001611c8c565b612ba35f600561242a565b612baf600160056127b8565b612bbf612bba6127f0565b612810565b638bdb39139190612bcf306109ba565b93612bea612be4612bdf306109ba565b612828565b91614e0f565b823b15612d11575f94612c1b8692612c1094612c0461017c565b998a9889978896610b07565b8652600486016129aa565b03925af18015612d0c57612ce0575b50612c365f60056127b8565b612c7c6020612c4b612c46612462565b612482565b63b3596f0790612c71612c5c61248e565b92612c6561017c565b95869485938493610b07565b8352600483016104a6565b03915afa8015612cdb57612c99915f91612cad575b506003611c8c565b612cab612ca660056123fe565b612a46565b565b612cce915060203d8111612cd4575b612cc68183610ade565b810190611c39565b5f612c91565b503d612cbc565b610b1c565b612cff905f3d8111612d05575b612cf78183610ade565b810190610b0d565b5f612c2a565b503d612ced565b610b1c565b610abc565b612d37915060203d8111612d3d575b612d2f8183610ade565b810190611c39565b5f612b90565b503d612d25565b610b1c565b612d6a915060203d8111612d70575b612d628183610ade565b810190611c39565b5f612b16565b503d612d58565b610b1c565b612d9d915060203d8111612da3575b612d958183610ade565b8101906126fa565b5f612abc565b503d612d8b565b610b1c565b612df66020612dc4612dbf6126a8565b6126c8565b6370a0823190612deb612dd6306109ba565b92612ddf61017c565b95869485938493610b07565b8352600483016104a6565b03915afa908115612f87575f91612f59575b5080612e1c612e165f6115aa565b916101d5565b14612f5657612e4c6020612e36612e316126a8565b6126c8565b6338fff2d090612e4461017c565b938492610b07565b82528180612e5c60048201610199565b03915afa908115612f51575f91612f23575b50612e7f612e7a6127f0565b612810565b638bdb39139190612e8f306109ba565b93612eaa612ea4612e9f306109ba565b612828565b91614e0f565b823b15612f1e575f94612edb8692612ed094612ec461017c565b998a9889978896610b07565b8652600486016129aa565b03925af18015612f1957612eed575b50565b612f0c905f3d8111612f12575b612f048183610ade565b810190610b0d565b5f612eea565b503d612efa565b610b1c565b610abc565b612f44915060203d8111612f4a575b612f3c8183610ade565b8101906126fa565b5f612e6e565b503d612f32565b610b1c565b50565b612f7a915060203d8111612f80575b612f728183610ade565b810190611c39565b5f612e08565b503d612f68565b610b1c565b612f9590610992565b90565b612fa190612f8c565b90565b612fc17306325440d014e39736583c165c2963ba99faf14e612f98565b90565b612fcd906109ae565b90565b612fd990610992565b90565b612fe590612fd0565b90565b61300573a36be47700c079bd94adc09f35b0fa93a55297bc612fdc565b90565b613011906109ae565b90565b90565b61302b61302661303092613014565b61098f565b6101d5565b90565b613045683635c9adc5dea00000613017565b90565b5f7f617070726f76652d737465637276000000000000000000000000000000000000910152565b61307c600e6020926109c6565b61308581613048565b0190565b61309e9060208101905f81830391015261306f565b90565b156130a857565b6130b061017c565b62461bcd60e51b8152806130c660048201613089565b0390fd5b6040906130f36130fa94969593966130e960608401985f850190610499565b6020830190610310565b0190610499565b565b90565b61311361310e613118926130fc565b61098f565b6101d5565b90565b61312d680ca65d6137250f3c136130ff565b90565b5f7f7a65726f2d6270742d636f6c6c61746572616c00000000000000000000000000910152565b61316460136020926109c6565b61316d81613130565b0190565b6131869060208101905f818303910152613157565b90565b1561319057565b61319861017c565b62461bcd60e51b8152806131ae60048201613171565b0390fd5b6131cf736ae5fd07c0bb2264b1f60b33f65920a2b912151c612fdc565b90565b5f7f617070726f76652d627074000000000000000000000000000000000000000000910152565b613206600b6020926109c6565b61320f816131d2565b0190565b6132289060208101905f8183039101526131f9565b90565b1561323257565b61323a61017c565b62461bcd60e51b81528061325060048201613213565b0390fd5b90565b61326b61326661327092613254565b61098f565b6101d5565b90565b61327e6126de613257565b90565b613290613296919392936101d5565b926101d5565b916132a28382026101d5565b9281840414901517156132b157565b610a83565b90565b6132cd6132c86132d2926132b6565b61098f565b6101d5565b90565b634e487b7160e01b5f52601260045260245ffd5b6132f56132fb916101d5565b916101d5565b908115613306570490565b6132d5565b90565b61332261331d6133279261330b565b61098f565b6101d5565b90565b61333c681bd4670912eb21842a61330e565b90565b90565b61335661335161335b9261333f565b61098f565b6101d5565b90565b61336f670de0b6b3a7640000613342565b90565b5f7f776574682d726573657276652d656d7074790000000000000000000000000000910152565b6133a660126020926109c6565b6133af81613372565b0190565b6133c89060208101905f818303910152613399565b90565b156133d257565b6133da61017c565b62461bcd60e51b8152806133f0600482016133b3565b0390fd5b613403613409919392936101d5565b926101d5565b820391821161341457565b610a83565b5f7f7a65726f2d626f72726f77000000000000000000000000000000000000000000910152565b61344d600b6020926109c6565b61345681613419565b0190565b61346f9060208101905f818303910152613440565b90565b1561347957565b61348161017c565b62461bcd60e51b8152806134976004820161345a565b0390fd5b6134a4906114e0565b9052565b909594926134f3946134e26134ec926134d86080966134ce60a088019c5f890190610499565b6020870190610310565b604085019061349b565b6060830190611ba2565b0190610499565b565b613505613500612fa4565b612fc4565b602063095ea7b39161351d613518612fe8565b613008565b906135425f61352a613033565b9561354d61353661017c565b97889687958694610b07565b845260048401611fe1565b03925af180156139f657613568915f916139c8575b506130a1565b613578613573612fe8565b613008565b63259f2d0161358d613588612fa4565b612fc4565b613595613033565b9261359f306109ba565b92813b156139c3575f6135c5916135d082966135b961017c565b98899788968795610b07565b8552600485016130ca565b03925af180156139be57613992575b5061362760206135f56135f06126a8565b6126c8565b6370a082319061361c613607306109ba565b9261361061017c565b95869485938493610b07565b8352600483016104a6565b03915afa90811561398d575f9161395f575b508061365461364e61364961311b565b6101d5565b916101d5565b11613951575b6136778161367061366a5f6115aa565b916101d5565b1415613189565b6136876136826126a8565b6126c8565b602063095ea7b39161369f61369a6131b2565b613008565b906136bd5f86956136c86136b161017c565b97889687958694610b07565b845260048401611fe1565b03925af1801561394c576136e3915f9161391e575b5061322b565b6136f36136ee6131b2565b613008565b9063259f2d019061370a6137056126a8565b6126c8565b9092613715306109ba565b92813b15613919575f61373b91613746829661372f61017c565b98899788968795610b07565b8552600485016130ca565b03925af18015613914576138e8575b50613783613772613764614f63565b61376c613273565b90613281565b61377d6127106132b9565b906132e9565b8061379d61379761379261332a565b6101d5565b916101d5565b116138da575b6137df6137ae61515f565b6137d1816137cb6137c56137c061335e565b6101d5565b916101d5565b116133cb565b6137d961335e565b906133f4565b816137f26137ec836101d5565b916101d5565b116138d2575b506138168161380f6138095f6115aa565b916101d5565b1415613472565b613821816004611c8c565b61383161382c6124be565b6124de565b9063a415bcad90613848613843610ffd565b61101d565b90926002925f613857306109ba565b91833b156138cd5761388a61387f935f9793889461387361017c565b9a8b998a988997610b07565b8752600487016134a8565b03925af180156138c85761389c575b50565b6138bb905f3d81116138c1575b6138b38183610ade565b810190610b0d565b5f613899565b503d6138a9565b610b1c565b610abc565b90505f6137f8565b506138e361332a565b6137a3565b613907905f3d811161390d575b6138ff8183610ade565b810190610b0d565b5f613755565b503d6138f5565b610b1c565b610abc565b61393f915060203d8111613945575b6139378183610ade565b810190611615565b5f6136dd565b503d61392d565b610b1c565b5061395a61311b565b61365a565b613980915060203d8111613986575b6139788183610ade565b810190611c39565b5f613639565b503d61396e565b610b1c565b6139b1905f3d81116139b7575b6139a98183610ade565b810190610b0d565b5f6135df565b503d61399f565b610b1c565b610abc565b6139e9915060203d81116139ef575b6139e18183610ade565b810190611615565b5f613562565b503d6139d7565b610b1c565b67ffffffffffffffff8111613a105760200290565b610aca565b613a21613a26916139fb565b611862565b90565b90613a47613a3683613a15565b92613a4184916139fb565b90611981565b565b613a536002613a29565b90565b50600290565b90613a6682613a56565b811015613a74576020020190565b61157e565b613a8290610992565b90565b613a8e90613a79565b90565b613aae73dc24316b9ae028f1497c275eb9192a3ea0f67022613a85565b90565b613aba906109ae565b90565b905090565b90565b60200190565b613ae7613ae1613ada83613a56565b8094613abd565b91613ac2565b5f915b838310613af75750505050565b613b0d613b076001928451611acf565b92613ac5565b92019190613aea565b613b1f90613017565b9052565b916040613b44929493613b3d60608201965f830190613acb565b0190613b16565b565b613b56613b51610ffd565b61101d565b632e1a7d4d613b63610efe565b823b15613cba57613b9392613b885f8094613b7c61017c565b96879586948593610b07565b83526004830161031d565b03925af18015613cb557613c89575b50613bab613a49565b613bce613bb6610efe565b613bc983613bc35f6115aa565b90613a5c565b6119d1565b613bf3613bda5f6115aa565b613bee83613be860016115d6565b90613a5c565b6119d1565b6020613c05613c00613a91565b613ab1565b91630b4c7e4d613c3b613c16610efe565b949194683635c9adc5dea0000095613c46613c2f61017c565b97889687958694610b07565b845260048401613b23565b03925af18015613c8457613c58575b50565b613c789060203d8111613c7d575b613c708183610ade565b810190611c39565b613c55565b503d613c66565b610b1c565b613ca8905f3d8111613cae575b613ca08183610ade565b810190610b0d565b5f613ba2565b503d613c96565b610b1c565b610abc565b90565b613cd6613cd1613cdb92613cbf565b61098f565b6101d5565b90565b613ce790613cc2565b9052565b613d20613d2794613d16606094989795613d0c608086019a5f870190610499565b6020850190610310565b6040830190613cde565b0190610499565b565b5f7f7a65726f2d646562740000000000000000000000000000000000000000000000910152565b613d5d60096020926109c6565b613d6681613d29565b0190565b613d7f9060208101905f818303910152613d50565b90565b15613d8957565b613d9161017c565b62461bcd60e51b815280613da760048201613d6a565b0390fd5b5f7f617070726f76652d6c69717569646174696f6e00000000000000000000000000910152565b613ddf60136020926109c6565b613de881613dab565b0190565b613e019060208101905f818303910152613dd2565b90565b15613e0b57565b613e1361017c565b62461bcd60e51b815280613e2960048201613dec565b0390fd5b90959492613e7894613e67613e7192613e5d608096613e5360a088019c5f890190610499565b6020870190610499565b6040850190610499565b6060830190610310565b0190610246565b565b613e8a613e85612fe8565b613008565b63a5fdfc63613e9f613e9a612fa4565b612fc4565b613ea7613033565b92600a613eb3306109ba565b823b156140a7575f94613ee48692613ed994613ecd61017c565b998a9889978896610b07565b865260048601613ceb565b03925af180156140a257614076575b50613efc61529e565b613f1981613f12613f0c5f6115aa565b916101d5565b1415613d82565b613f29613f24610ffd565b61101d565b602063095ea7b391613f41613f3c6124be565b6124de565b90613f5f5f8695613f6a613f5361017c565b97889687958694610b07565b845260048401611fe1565b03925af1801561407157613f85915f91614043575b50613e04565b613f95613f906124be565b6124de565b9062a718a991613fab613fa66126a8565b6126c8565b90613fbc613fb7610ffd565b61101d565b93613fc6306109ba565b935f91833b1561403e57613ffb613ff0935f97938894613fe461017c565b9a8b998a988997610b07565b875260048701613e2d565b03925af180156140395761400d575b50565b61402c905f3d8111614032575b6140248183610ade565b810190610b0d565b5f61400a565b503d61401a565b610b1c565b610abc565b614064915060203d811161406a575b61405c8183610ade565b810190611615565b5f613f7f565b503d614052565b610b1c565b614095905f3d811161409b575b61408d8183610ade565b810190610b0d565b5f613ef3565b503d614083565b610b1c565b610abc565b600f0b90565b6140c66140c16140cb926115a7565b61098f565b6140ac565b90565b6140d7906140b2565b9052565b6140e4906115d6565b9052565b604090614111614118949695939661410760608401985f850190610310565b60208301906140ce565b01906140db565b565b61413773ae7ab96520de3a18e5e111b5eaab095312d7fe84612f98565b90565b5f7f617070726f76652d737465746800000000000000000000000000000000000000910152565b61416e600d6020926109c6565b6141778161413a565b0190565b6141909060208101905f818303910152614161565b90565b1561419a57565b6141a261017c565b62461bcd60e51b8152806141b86004820161417b565b0390fd5b6141d06141cb6141d5926115d3565b61098f565b6140ac565b90565b6141e1906141bc565b9052565b61421a61422194614210606094989795614206608086019a5f8701906141d8565b60208501906140ce565b6040830190610310565b01906140db565b565b61426a6020614238614233612fa4565b612fc4565b6370a082319061425f61424a306109ba565b9261425361017c565b95869485938493610b07565b8352600483016104a6565b03915afa908115614722575f916146f4575b508061429061428a5f6115aa565b916101d5565b0361466c575b506142de60206142ac6142a76118ef565b61190f565b6370a08231906142d36142be306109ba565b926142c761017c565b95869485938493610b07565b8352600483016104a6565b03915afa908115614667575f91614639575b5090816143056142ff836101d5565b916101d5565b116145a9575b5050614354602061432261431d61411a565b612fc4565b6370a0823190614349614334306109ba565b9261433d61017c565b95869485938493610b07565b8352600483016104a6565b03915afa9081156145a4575f91614576575b508061437a6143745f6115aa565b916101d5565b0361443f575b5061438a306109ba565b3161439d6143975f6115aa565b916101d5565b036143a5575b565b6143b56143b0610ffd565b61101d565b63d0e30db06143c3306109ba565b319190813b1561443a575f916143e5916143db61017c565b9485938492610b07565b8252816143f460048201610199565b03925af1801561443557614409575b506143a3565b614428905f3d811161442e575b6144208183610ade565b810190610b0d565b5f614403565b503d614416565b610b1c565b610abc565b61444f61444a61411a565b612fc4565b602063095ea7b391614467614462613a91565b613ab1565b906144855f869561449061447961017c565b97889687958694610b07565b845260048401611fe1565b03925af18015614571576144ab915f91614543575b50614193565b6144bb6144b6613a91565b613ab1565b633df02124906001905f936001823b1561453e575f946144f986926144ee946144e261017c565b998a9889978896610b07565b8652600486016141e5565b03925af180156145395761450d575b614380565b61452c905f3d8111614532575b6145248183610ade565b810190610b0d565b5f614508565b503d61451a565b610b1c565b610abc565b614564915060203d811161456a575b61455c8183610ade565b810190611615565b5f6144a5565b503d614552565b610b1c565b614597915060203d811161459d575b61458f8183610ade565b810190611c39565b5f614366565b503d614585565b610b1c565b6145f3916020916145e85f6145d36145c76145c26118ef565b61190f565b9363de0e9a3e956133f4565b936145dc61017c565b96879586948593610b07565b83526004830161031d565b03925af1801561463457614608575b8061430b565b6146289060203d811161462d575b6146208183610ade565b810190611c39565b614602565b503d614616565b610b1c565b61465a915060203d8111614660575b6146528183610ade565b810190611c39565b5f6142f0565b503d614648565b610b1c565b602061467e614679613a91565b613ab1565b631a4d01d292906146a45f80956146af600161469861017c565b98899788968795610b07565b8552600485016140e8565b03925af180156146ef576146c3575b614296565b6146e39060203d81116146e8575b6146db8183610ade565b810190611c39565b6146be565b503d6146d1565b610b1c565b614715915060203d811161471b575b61470d8183610ade565b810190611c39565b5f61427c565b503d614703565b610b1c565b60081b90565b9061473a61ff0091614727565b9181191691161790565b9061475961475461476092610e46565b610e52565b825461472d565b9055565b61476e600261105d565b61478961478361477e600161105d565b6101d5565b916101d5565b118061479d575b61479b906005614744565b565b5061479b6147ab600261105d565b6147c66147c06147bb600361105d565b6101d5565b916101d5565b119050614790565b9392906147f9604091614801946147ec60608901925f8a0190610310565b8782036020890152611ae6565b940190610310565b565b61480d6080611862565b90565b52565b52565b52565b9061482390610241565b9052565b5f7f617070726f76652d6a6f696e2d77737465746800000000000000000000000000910152565b61485b60136020926109c6565b61486481614827565b0190565b61487d9060208101905f81830391015261484e565b90565b1561488757565b61488f61017c565b62461bcd60e51b8152806148a560048201614868565b0390fd5b5f7f617070726f76652d6a6f696e2d77657468000000000000000000000000000000910152565b6148dd60116020926109c6565b6148e6816148a9565b0190565b6148ff9060208101905f8183039101526148d0565b90565b1561490957565b61491161017c565b62461bcd60e51b815280614927600482016148ea565b0390fd5b9061497f90606080614974614962614950608086015f8901518782035f890152612863565b602088015186820360208801526128bc565b60408701518582036040870152612915565b940151910190612946565b90565b90926149b5906149ab6149c296946149a160808601975f870190612834565b6020850190610499565b6040830190610499565b606081840391015261492b565b90565b6149f060206149da6149d56126a8565b6126c8565b6338fff2d0906149e861017c565b938492610b07565b82528180614a0060048201610199565b03915afa908115614d6c575f91614d3e575b50614a25614a2060026114e0565b611986565b614a48614a30610e94565b614a4383614a3d5f6115aa565b906119b1565b6119d1565b614a6c614a53610ec9565b614a6783614a6160016115d6565b906119b1565b6119d1565b614b4d614a81614a7c60026114e0565b6118b0565b614aac614a94614a8f6118ef565b61190f565b614aa783614aa15f6115aa565b9061191f565b61193f565b614ad8614abf614aba610ffd565b61101d565b614ad383614acd60016115d6565b9061191f565b61193f565b91614b4481614b19614aea60016115d6565b614b0a614af65f6115aa565b614afe61017c565b948593602085016147ce565b60208201810382520382610ade565b614b3b5f93614b32614b29614803565b975f8901614810565b60208701614813565b60408501614816565b60608301614819565b90614b5e614b596118ef565b61190f565b602063095ea7b391614b76614b716127f0565b612810565b90614b9b5f614b83610e94565b95614ba6614b8f61017c565b97889687958694610b07565b845260048401611fe1565b03925af18015614d3957614bc1915f91614d0b575b50614880565b614bd1614bcc610ffd565b61101d565b602063095ea7b391614be9614be46127f0565b612810565b90614c0e5f614bf6610ec9565b95614c19614c0261017c565b97889687958694610b07565b845260048401611fe1565b03925af18015614d0657614c34915f91614cd8575b50614902565b614c44614c3f6127f0565b612810565b63b95cac289190614c54306109ba565b93614c5e306109ba565b90823b15614cd3575f94614c908692614c8594614c7961017c565b998a9889978896610b07565b865260048601614982565b03925af18015614cce57614ca2575b50565b614cc1905f3d8111614cc7575b614cb98183610ade565b810190610b0d565b5f614c9f565b503d614caf565b610b1c565b610abc565b614cf9915060203d8111614cff575b614cf18183610ade565b810190611615565b5f614c2e565b503d614ce7565b610b1c565b614d2c915060203d8111614d32575b614d248183610ade565b810190611615565b5f614bbb565b503d614d1a565b610b1c565b614d5f915060203d8111614d65575b614d578183610ade565b8101906126fa565b5f614a12565b503d614d4d565b610b1c565b614d7b6080611862565b90565b606090565b606090565b606090565b5f90565b614d99614d71565b90602080808085614da8614d7e565b815201614db3614d83565b815201614dbe614d88565b815201614dc9614d8d565b81525050565b614dd7614d91565b90565b614dee614de9614df3926115a7565b61098f565b610482565b90565b614dff90614dda565b90565b614e0c6080611862565b90565b614e17614dcf565b50614efc614e2d614e2860026114e0565b611986565b91614ef3614e43614e3e60026114e0565b6118b0565b614e6e614e56614e516118ef565b61190f565b614e6983614e635f6115aa565b9061191f565b61193f565b614e93614e7a5f614df6565b614e8e83614e8860016115d6565b9061191f565b61193f565b9391614ec8614ea260016115d6565b614eb9614ead61017c565b93849260208401610b2c565b60208201810382520382610ade565b614eea5f93614ee1614ed8614e02565b975f8901614810565b60208701614813565b60408501614816565b60608301614819565b90565b909160c082840312614f5e57614f17835f8401611c2a565b92614f258160208501611c2a565b92614f338260408301611c2a565b92614f5b614f448460608501611c2a565b93614f528160808601611c2a565b9360a001611c2a565b90565b610186565b614f6b611045565b50614fb360c0614f81614f7c6124be565b6124de565b63bf92857c90614fa8614f93306109ba565b92614f9c61017c565b95869485938493610b07565b8352600483016104a6565b03915afa908115615000575f808093915050614fce575b5090565b614fef915060c03d8111614ff9575b614fe78183610ade565b810190614eff565b5050509150614fca565b503d614fdd565b610b1c565b6fffffffffffffffffffffffffffffffff1690565b61502381615005565b0361502a57565b5f80fd5b9050519061503b8261501a565b565b64ffffffffff1690565b6150508161503d565b0361505757565b5f80fd5b9050519061506882615047565b565b90505190615077826106d0565b565b60ff1690565b61508881615079565b0361508f57565b5f80fd5b905051906150a08261507f565b565b90916101808284031261515a576150bb835f8401611c2a565b926150c9816020850161502e565b926150d7826040830161502e565b926150e5836060840161502e565b926150f3816080850161502e565b926151018260a0830161502e565b9261510f8360c0840161505b565b9261511d8160e0850161506a565b9261512c82610100830161506a565b9261515761513e84610120850161506a565b9361514d81610140860161506a565b9361016001615093565b90565b610186565b615167611045565b506151b761018061517e6151796124be565b6124de565b6335ea6a75906151ac615197615192610ffd565b61101d565b926151a061017c565b95869485938493610b07565b8352600483016104a6565b03915afa90811561529957615217916020915f80808080808080989650505050505050615260575b506151f06151eb610ffd565b61101d565b61520c6370a0823161520061017c565b95869485938493610b07565b8352600483016104a6565b03915afa90811561525b575f9161522d575b5090565b61524e915060203d8111615254575b6152468183610ade565b810190611c39565b5f615229565b503d61523c565b610b1c565b61528291506101803d8111615292575b61527a8183610ade565b8101906150a2565b50505050965050505050506151df565b503d615270565b610b1c565b6152a6611045565b506152ee60c06152bc6152b76124be565b6124de565b63bf92857c906152e36152ce306109ba565b926152d761017c565b95869485938493610b07565b8352600483016104a6565b03915afa908115615339575f80929050615307575b5090565b615328915060c03d8111615332575b6153208183610ade565b810190614eff565b5050505090615303565b503d615316565b610b1c56fea2646970667358221220fab1b3765974e19a60419352e715fbfb7b1c87aea01514a2b937f0015c393ab064736f6c634300081e0033","linkReferences":{}},"methodIdentifiers":{"approveRepayment(uint256,uint256)":"d0e5ac28","attempted()":"917f51b4","borrowedWethAmount()":"cde0d4ef","depositCollateralAndBorrowStage()":"2699a5e0","executeOnOpportunity()":"3c2448ed","executeOperation(address[],uint256[],uint256[],address,bytes)":"920f5c84","exitBalancerPoolStage()":"0286cc24","handleFlashloanCallback(uint256,uint256,uint256,uint256)":"0413ef2d","hypothesisValidated()":"463defd1","joinBalancerPoolStage()":"ad031680","mintSteCrvSeedStage()":"86c35484","oraclePriceAfterExit()":"7ef43d76","oraclePriceBeforeExit()":"1f149c7c","oraclePriceDuringCallback()":"1a1ea498","performExploitStages()":"880929f4","profitAmount()":"5ff972cc","profitToken()":"49343624","removeRecoveredBptLiquidityStage()":"15dde763","requestFlashloan(uint256,uint256)":"c3b85220","settleAndValidate(uint256)":"aa4693b2","withdrawSteCrvAndLiquidateStage()":"86dcc58f"},"id":0}