{"abi":[{"type":"constructor","inputs":[{"name":"provider","type":"address","internalType":"contract IPoolAddressesProvider"}],"stateMutability":"nonpayable"},{"type":"function","name":"ADDRESSES_PROVIDER","inputs":[],"outputs":[{"name":"","type":"address","internalType":"contract IPoolAddressesProvider"}],"stateMutability":"view"},{"type":"function","name":"BRIDGE_PROTOCOL_FEE","inputs":[],"outputs":[{"name":"","type":"uint256","internalType":"uint256"}],"stateMutability":"view"},{"type":"function","name":"FLASHLOAN_PREMIUM_TOTAL","inputs":[],"outputs":[{"name":"","type":"uint128","internalType":"uint128"}],"stateMutability":"view"},{"type":"function","name":"FLASHLOAN_PREMIUM_TO_PROTOCOL","inputs":[],"outputs":[{"name":"","type":"uint128","internalType":"uint128"}],"stateMutability":"view"},{"type":"function","name":"MAX_NUMBER_RESERVES","inputs":[],"outputs":[{"name":"","type":"uint16","internalType":"uint16"}],"stateMutability":"view"},{"type":"function","name":"MAX_STABLE_RATE_BORROW_SIZE_PERCENT","inputs":[],"outputs":[{"name":"","type":"uint256","internalType":"uint256"}],"stateMutability":"view"},{"type":"function","name":"POOL_REVISION","inputs":[],"outputs":[{"name":"","type":"uint256","internalType":"uint256"}],"stateMutability":"view"},{"type":"function","name":"backUnbacked","inputs":[{"name":"asset","type":"address","internalType":"address"},{"name":"amount","type":"uint256","internalType":"uint256"},{"name":"fee","type":"uint256","internalType":"uint256"}],"outputs":[{"name":"","type":"uint256","internalType":"uint256"}],"stateMutability":"nonpayable"},{"type":"function","name":"borrow","inputs":[{"name":"asset","type":"address","internalType":"address"},{"name":"amount","type":"uint256","internalType":"uint256"},{"name":"interestRateMode","type":"uint256","internalType":"uint256"},{"name":"referralCode","type":"uint16","internalType":"uint16"},{"name":"onBehalfOf","type":"address","internalType":"address"}],"outputs":[],"stateMutability":"nonpayable"},{"type":"function","name":"configureEModeCategory","inputs":[{"name":"id","type":"uint8","internalType":"uint8"},{"name":"category","type":"tuple","internalType":"struct DataTypes.EModeCategory","components":[{"name":"ltv","type":"uint16","internalType":"uint16"},{"name":"liquidationThreshold","type":"uint16","internalType":"uint16"},{"name":"liquidationBonus","type":"uint16","internalType":"uint16"},{"name":"priceSource","type":"address","internalType":"address"},{"name":"label","type":"string","internalType":"string"}]}],"outputs":[],"stateMutability":"nonpayable"},{"type":"function","name":"deposit","inputs":[{"name":"asset","type":"address","internalType":"address"},{"name":"amount","type":"uint256","internalType":"uint256"},{"name":"onBehalfOf","type":"address","internalType":"address"},{"name":"referralCode","type":"uint16","internalType":"uint16"}],"outputs":[],"stateMutability":"nonpayable"},{"type":"function","name":"dropReserve","inputs":[{"name":"asset","type":"address","internalType":"address"}],"outputs":[],"stateMutability":"nonpayable"},{"type":"function","name":"finalizeTransfer","inputs":[{"name":"asset","type":"address","internalType":"address"},{"name":"from","type":"address","internalType":"address"},{"name":"to","type":"address","internalType":"address"},{"name":"amount","type":"uint256","internalType":"uint256"},{"name":"balanceFromBefore","type":"uint256","internalType":"uint256"},{"name":"balanceToBefore","type":"uint256","internalType":"uint256"}],"outputs":[],"stateMutability":"nonpayable"},{"type":"function","name":"flashLoan","inputs":[{"name":"receiverAddress","type":"address","internalType":"address"},{"name":"assets","type":"address[]","internalType":"address[]"},{"name":"amounts","type":"uint256[]","internalType":"uint256[]"},{"name":"interestRateModes","type":"uint256[]","internalType":"uint256[]"},{"name":"onBehalfOf","type":"address","internalType":"address"},{"name":"params","type":"bytes","internalType":"bytes"},{"name":"referralCode","type":"uint16","internalType":"uint16"}],"outputs":[],"stateMutability":"nonpayable"},{"type":"function","name":"flashLoanSimple","inputs":[{"name":"receiverAddress","type":"address","internalType":"address"},{"name":"asset","type":"address","internalType":"address"},{"name":"amount","type":"uint256","internalType":"uint256"},{"name":"params","type":"bytes","internalType":"bytes"},{"name":"referralCode","type":"uint16","internalType":"uint16"}],"outputs":[],"stateMutability":"nonpayable"},{"type":"function","name":"getConfiguration","inputs":[{"name":"asset","type":"address","internalType":"address"}],"outputs":[{"name":"","type":"tuple","internalType":"struct DataTypes.ReserveConfigurationMap","components":[{"name":"data","type":"uint256","internalType":"uint256"}]}],"stateMutability":"view"},{"type":"function","name":"getEModeCategoryData","inputs":[{"name":"id","type":"uint8","internalType":"uint8"}],"outputs":[{"name":"","type":"tuple","internalType":"struct DataTypes.EModeCategory","components":[{"name":"ltv","type":"uint16","internalType":"uint16"},{"name":"liquidationThreshold","type":"uint16","internalType":"uint16"},{"name":"liquidationBonus","type":"uint16","internalType":"uint16"},{"name":"priceSource","type":"address","internalType":"address"},{"name":"label","type":"string","internalType":"string"}]}],"stateMutability":"view"},{"type":"function","name":"getFeeToVault","inputs":[],"outputs":[{"name":"","type":"address","internalType":"address"}],"stateMutability":"view"},{"type":"function","name":"getFeeToVaultPercent","inputs":[],"outputs":[{"name":"","type":"uint256","internalType":"uint256"}],"stateMutability":"view"},{"type":"function","name":"getReserveAddressById","inputs":[{"name":"id","type":"uint16","internalType":"uint16"}],"outputs":[{"name":"","type":"address","internalType":"address"}],"stateMutability":"view"},{"type":"function","name":"getReserveData","inputs":[{"name":"asset","type":"address","internalType":"address"}],"outputs":[{"name":"","type":"tuple","internalType":"struct DataTypes.ReserveData","components":[{"name":"configuration","type":"tuple","internalType":"struct DataTypes.ReserveConfigurationMap","components":[{"name":"data","type":"uint256","internalType":"uint256"}]},{"name":"liquidityIndex","type":"uint128","internalType":"uint128"},{"name":"currentLiquidityRate","type":"uint128","internalType":"uint128"},{"name":"variableBorrowIndex","type":"uint128","internalType":"uint128"},{"name":"currentVariableBorrowRate","type":"uint128","internalType":"uint128"},{"name":"currentStableBorrowRate","type":"uint128","internalType":"uint128"},{"name":"lastUpdateTimestamp","type":"uint40","internalType":"uint40"},{"name":"id","type":"uint16","internalType":"uint16"},{"name":"hTokenAddress","type":"address","internalType":"address"},{"name":"stableDebtTokenAddress","type":"address","internalType":"address"},{"name":"variableDebtTokenAddress","type":"address","internalType":"address"},{"name":"interestRateStrategyAddress","type":"address","internalType":"address"},{"name":"accruedToTreasury","type":"uint128","internalType":"uint128"},{"name":"unbacked","type":"uint128","internalType":"uint128"},{"name":"isolationModeTotalDebt","type":"uint128","internalType":"uint128"}]}],"stateMutability":"view"},{"type":"function","name":"getReserveNormalizedIncome","inputs":[{"name":"asset","type":"address","internalType":"address"}],"outputs":[{"name":"","type":"uint256","internalType":"uint256"}],"stateMutability":"view"},{"type":"function","name":"getReserveNormalizedVariableDebt","inputs":[{"name":"asset","type":"address","internalType":"address"}],"outputs":[{"name":"","type":"uint256","internalType":"uint256"}],"stateMutability":"view"},{"type":"function","name":"getReservesList","inputs":[],"outputs":[{"name":"","type":"address[]","internalType":"address[]"}],"stateMutability":"view"},{"type":"function","name":"getUserAccountData","inputs":[{"name":"user","type":"address","internalType":"address"}],"outputs":[{"name":"totalCollateralBase","type":"uint256","internalType":"uint256"},{"name":"totalDebtBase","type":"uint256","internalType":"uint256"},{"name":"availableBorrowsBase","type":"uint256","internalType":"uint256"},{"name":"currentLiquidationThreshold","type":"uint256","internalType":"uint256"},{"name":"ltv","type":"uint256","internalType":"uint256"},{"name":"healthFactor","type":"uint256","internalType":"uint256"}],"stateMutability":"view"},{"type":"function","name":"getUserConfiguration","inputs":[{"name":"user","type":"address","internalType":"address"}],"outputs":[{"name":"","type":"tuple","internalType":"struct DataTypes.UserConfigurationMap","components":[{"name":"data","type":"uint256","internalType":"uint256"}]}],"stateMutability":"view"},{"type":"function","name":"getUserEMode","inputs":[{"name":"user","type":"address","internalType":"address"}],"outputs":[{"name":"","type":"uint256","internalType":"uint256"}],"stateMutability":"view"},{"type":"function","name":"initReserve","inputs":[{"name":"asset","type":"address","internalType":"address"},{"name":"hTokenAddress","type":"address","internalType":"address"},{"name":"stableDebtAddress","type":"address","internalType":"address"},{"name":"variableDebtAddress","type":"address","internalType":"address"},{"name":"interestRateStrategyAddress","type":"address","internalType":"address"}],"outputs":[],"stateMutability":"nonpayable"},{"type":"function","name":"initialize","inputs":[{"name":"provider","type":"address","internalType":"contract IPoolAddressesProvider"}],"outputs":[],"stateMutability":"nonpayable"},{"type":"function","name":"liquidationCall","inputs":[{"name":"collateralAsset","type":"address","internalType":"address"},{"name":"debtAsset","type":"address","internalType":"address"},{"name":"user","type":"address","internalType":"address"},{"name":"debtToCover","type":"uint256","internalType":"uint256"},{"name":"receiveHToken","type":"bool","internalType":"bool"}],"outputs":[],"stateMutability":"nonpayable"},{"type":"function","name":"mintToTreasury","inputs":[{"name":"assets","type":"address[]","internalType":"address[]"}],"outputs":[],"stateMutability":"nonpayable"},{"type":"function","name":"mintUnbacked","inputs":[{"name":"asset","type":"address","internalType":"address"},{"name":"amount","type":"uint256","internalType":"uint256"},{"name":"onBehalfOf","type":"address","internalType":"address"},{"name":"referralCode","type":"uint16","internalType":"uint16"}],"outputs":[],"stateMutability":"nonpayable"},{"type":"function","name":"rebalanceStableBorrowRate","inputs":[{"name":"asset","type":"address","internalType":"address"},{"name":"user","type":"address","internalType":"address"}],"outputs":[],"stateMutability":"nonpayable"},{"type":"function","name":"repay","inputs":[{"name":"asset","type":"address","internalType":"address"},{"name":"amount","type":"uint256","internalType":"uint256"},{"name":"interestRateMode","type":"uint256","internalType":"uint256"},{"name":"onBehalfOf","type":"address","internalType":"address"}],"outputs":[{"name":"","type":"uint256","internalType":"uint256"}],"stateMutability":"nonpayable"},{"type":"function","name":"repayWithHTokens","inputs":[{"name":"asset","type":"address","internalType":"address"},{"name":"amount","type":"uint256","internalType":"uint256"},{"name":"interestRateMode","type":"uint256","internalType":"uint256"}],"outputs":[{"name":"","type":"uint256","internalType":"uint256"}],"stateMutability":"nonpayable"},{"type":"function","name":"repayWithPermit","inputs":[{"name":"asset","type":"address","internalType":"address"},{"name":"amount","type":"uint256","internalType":"uint256"},{"name":"interestRateMode","type":"uint256","internalType":"uint256"},{"name":"onBehalfOf","type":"address","internalType":"address"},{"name":"deadline","type":"uint256","internalType":"uint256"},{"name":"permitV","type":"uint8","internalType":"uint8"},{"name":"permitR","type":"bytes32","internalType":"bytes32"},{"name":"permitS","type":"bytes32","internalType":"bytes32"}],"outputs":[{"name":"","type":"uint256","internalType":"uint256"}],"stateMutability":"nonpayable"},{"type":"function","name":"rescueTokens","inputs":[{"name":"token","type":"address","internalType":"address"},{"name":"to","type":"address","internalType":"address"},{"name":"amount","type":"uint256","internalType":"uint256"}],"outputs":[],"stateMutability":"nonpayable"},{"type":"function","name":"resetIsolationModeTotalDebt","inputs":[{"name":"asset","type":"address","internalType":"address"}],"outputs":[],"stateMutability":"nonpayable"},{"type":"function","name":"setConfiguration","inputs":[{"name":"asset","type":"address","internalType":"address"},{"name":"configuration","type":"tuple","internalType":"struct DataTypes.ReserveConfigurationMap","components":[{"name":"data","type":"uint256","internalType":"uint256"}]}],"outputs":[],"stateMutability":"nonpayable"},{"type":"function","name":"setFeeToVault","inputs":[{"name":"feeToVault","type":"address","internalType":"address"}],"outputs":[],"stateMutability":"nonpayable"},{"type":"function","name":"setLendingGauge","inputs":[{"name":"asset","type":"address","internalType":"address"},{"name":"lendingGauge","type":"address","internalType":"address"}],"outputs":[],"stateMutability":"nonpayable"},{"type":"function","name":"setReserveInterestRateStrategyAddress","inputs":[{"name":"asset","type":"address","internalType":"address"},{"name":"rateStrategyAddress","type":"address","internalType":"address"}],"outputs":[],"stateMutability":"nonpayable"},{"type":"function","name":"setUserEMode","inputs":[{"name":"categoryId","type":"uint8","internalType":"uint8"}],"outputs":[],"stateMutability":"nonpayable"},{"type":"function","name":"setUserUseReserveAsCollateral","inputs":[{"name":"asset","type":"address","internalType":"address"},{"name":"useAsCollateral","type":"bool","internalType":"bool"}],"outputs":[],"stateMutability":"nonpayable"},{"type":"function","name":"supply","inputs":[{"name":"asset","type":"address","internalType":"address"},{"name":"amount","type":"uint256","internalType":"uint256"},{"name":"onBehalfOf","type":"address","internalType":"address"},{"name":"referralCode","type":"uint16","internalType":"uint16"}],"outputs":[],"stateMutability":"nonpayable"},{"type":"function","name":"supplyWithPermit","inputs":[{"name":"asset","type":"address","internalType":"address"},{"name":"amount","type":"uint256","internalType":"uint256"},{"name":"onBehalfOf","type":"address","internalType":"address"},{"name":"referralCode","type":"uint16","internalType":"uint16"},{"name":"deadline","type":"uint256","internalType":"uint256"},{"name":"permitV","type":"uint8","internalType":"uint8"},{"name":"permitR","type":"bytes32","internalType":"bytes32"},{"name":"permitS","type":"bytes32","internalType":"bytes32"}],"outputs":[],"stateMutability":"nonpayable"},{"type":"function","name":"swapBorrowRateMode","inputs":[{"name":"asset","type":"address","internalType":"address"},{"name":"interestRateMode","type":"uint256","internalType":"uint256"}],"outputs":[],"stateMutability":"nonpayable"},{"type":"function","name":"updateBridgeProtocolFee","inputs":[{"name":"protocolFee","type":"uint256","internalType":"uint256"}],"outputs":[],"stateMutability":"nonpayable"},{"type":"function","name":"updateFeeToVaultPercent","inputs":[{"name":"feeToVaultPercent","type":"uint256","internalType":"uint256"}],"outputs":[],"stateMutability":"nonpayable"},{"type":"function","name":"updateFlashloanPremiums","inputs":[{"name":"flashLoanPremiumTotal","type":"uint128","internalType":"uint128"},{"name":"flashLoanPremiumToProtocol","type":"uint128","internalType":"uint128"}],"outputs":[],"stateMutability":"nonpayable"},{"type":"function","name":"withdraw","inputs":[{"name":"asset","type":"address","internalType":"address"},{"name":"amount","type":"uint256","internalType":"uint256"},{"name":"to","type":"address","internalType":"address"}],"outputs":[{"name":"","type":"uint256","internalType":"uint256"}],"stateMutability":"nonpayable"},{"type":"event","name":"BackUnbacked","inputs":[{"name":"reserve","type":"address","indexed":true,"internalType":"address"},{"name":"backer","type":"address","indexed":true,"internalType":"address"},{"name":"amount","type":"uint256","indexed":false,"internalType":"uint256"},{"name":"fee","type":"uint256","indexed":false,"internalType":"uint256"}],"anonymous":false},{"type":"event","name":"Borrow","inputs":[{"name":"reserve","type":"address","indexed":true,"internalType":"address"},{"name":"user","type":"address","indexed":false,"internalType":"address"},{"name":"onBehalfOf","type":"address","indexed":true,"internalType":"address"},{"name":"amount","type":"uint256","indexed":false,"internalType":"uint256"},{"name":"interestRateMode","type":"uint8","indexed":false,"internalType":"enum DataTypes.InterestRateMode"},{"name":"borrowRate","type":"uint256","indexed":false,"internalType":"uint256"},{"name":"referralCode","type":"uint16","indexed":true,"internalType":"uint16"}],"anonymous":false},{"type":"event","name":"CollectedToVault","inputs":[{"name":"reserve","type":"address","indexed":true,"internalType":"address"},{"name":"amountCollected","type":"uint256","indexed":false,"internalType":"uint256"}],"anonymous":false},{"type":"event","name":"FlashLoan","inputs":[{"name":"target","type":"address","indexed":true,"internalType":"address"},{"name":"initiator","type":"address","indexed":false,"internalType":"address"},{"name":"asset","type":"address","indexed":true,"internalType":"address"},{"name":"amount","type":"uint256","indexed":false,"internalType":"uint256"},{"name":"interestRateMode","type":"uint8","indexed":false,"internalType":"enum DataTypes.InterestRateMode"},{"name":"premium","type":"uint256","indexed":false,"internalType":"uint256"},{"name":"referralCode","type":"uint16","indexed":true,"internalType":"uint16"}],"anonymous":false},{"type":"event","name":"IsolationModeTotalDebtUpdated","inputs":[{"name":"asset","type":"address","indexed":true,"internalType":"address"},{"name":"totalDebt","type":"uint256","indexed":false,"internalType":"uint256"}],"anonymous":false},{"type":"event","name":"LiquidationCall","inputs":[{"name":"collateralAsset","type":"address","indexed":true,"internalType":"address"},{"name":"debtAsset","type":"address","indexed":true,"internalType":"address"},{"name":"user","type":"address","indexed":true,"internalType":"address"},{"name":"debtToCover","type":"uint256","indexed":false,"internalType":"uint256"},{"name":"liquidatedCollateralAmount","type":"uint256","indexed":false,"internalType":"uint256"},{"name":"liquidator","type":"address","indexed":false,"internalType":"address"},{"name":"receiveHToken","type":"bool","indexed":false,"internalType":"bool"}],"anonymous":false},{"type":"event","name":"MintUnbacked","inputs":[{"name":"reserve","type":"address","indexed":true,"internalType":"address"},{"name":"user","type":"address","indexed":false,"internalType":"address"},{"name":"onBehalfOf","type":"address","indexed":true,"internalType":"address"},{"name":"amount","type":"uint256","indexed":false,"internalType":"uint256"},{"name":"referralCode","type":"uint16","indexed":true,"internalType":"uint16"}],"anonymous":false},{"type":"event","name":"MintedToTreasury","inputs":[{"name":"reserve","type":"address","indexed":true,"internalType":"address"},{"name":"amountMinted","type":"uint256","indexed":false,"internalType":"uint256"}],"anonymous":false},{"type":"event","name":"RebalanceStableBorrowRate","inputs":[{"name":"reserve","type":"address","indexed":true,"internalType":"address"},{"name":"user","type":"address","indexed":true,"internalType":"address"}],"anonymous":false},{"type":"event","name":"Repay","inputs":[{"name":"reserve","type":"address","indexed":true,"internalType":"address"},{"name":"user","type":"address","indexed":true,"internalType":"address"},{"name":"repayer","type":"address","indexed":true,"internalType":"address"},{"name":"amount","type":"uint256","indexed":false,"internalType":"uint256"},{"name":"useHTokens","type":"bool","indexed":false,"internalType":"bool"}],"anonymous":false},{"type":"event","name":"ReserveDataUpdated","inputs":[{"name":"reserve","type":"address","indexed":true,"internalType":"address"},{"name":"liquidityRate","type":"uint256","indexed":false,"internalType":"uint256"},{"name":"stableBorrowRate","type":"uint256","indexed":false,"internalType":"uint256"},{"name":"variableBorrowRate","type":"uint256","indexed":false,"internalType":"uint256"},{"name":"liquidityIndex","type":"uint256","indexed":false,"internalType":"uint256"},{"name":"variableBorrowIndex","type":"uint256","indexed":false,"internalType":"uint256"}],"anonymous":false},{"type":"event","name":"ReserveUsedAsCollateralDisabled","inputs":[{"name":"reserve","type":"address","indexed":true,"internalType":"address"},{"name":"user","type":"address","indexed":true,"internalType":"address"}],"anonymous":false},{"type":"event","name":"ReserveUsedAsCollateralEnabled","inputs":[{"name":"reserve","type":"address","indexed":true,"internalType":"address"},{"name":"user","type":"address","indexed":true,"internalType":"address"}],"anonymous":false},{"type":"event","name":"Supply","inputs":[{"name":"reserve","type":"address","indexed":true,"internalType":"address"},{"name":"user","type":"address","indexed":false,"internalType":"address"},{"name":"onBehalfOf","type":"address","indexed":true,"internalType":"address"},{"name":"amount","type":"uint256","indexed":false,"internalType":"uint256"},{"name":"referralCode","type":"uint16","indexed":true,"internalType":"uint16"}],"anonymous":false},{"type":"event","name":"SwapBorrowRateMode","inputs":[{"name":"reserve","type":"address","indexed":true,"internalType":"address"},{"name":"user","type":"address","indexed":true,"internalType":"address"},{"name":"interestRateMode","type":"uint8","indexed":false,"internalType":"enum DataTypes.InterestRateMode"}],"anonymous":false},{"type":"event","name":"UserEModeSet","inputs":[{"name":"user","type":"address","indexed":true,"internalType":"address"},{"name":"categoryId","type":"uint8","indexed":false,"internalType":"uint8"}],"anonymous":false},{"type":"event","name":"Withdraw","inputs":[{"name":"reserve","type":"address","indexed":true,"internalType":"address"},{"name":"user","type":"address","indexed":true,"internalType":"address"},{"name":"to","type":"address","indexed":true,"internalType":"address"},{"name":"amount","type":"uint256","indexed":false,"internalType":"uint256"}],"anonymous":false}],"bytecode":{"object":"0x60a0604052600080553480156200001557600080fd5b506040516200803c3803806200803c83398181016040528101906200003b9190620000f4565b8073ffffffffffffffffffffffffffffffffffffffff1660808173ffffffffffffffffffffffffffffffffffffffff16815250505062000126565b600080fd5b600073ffffffffffffffffffffffffffffffffffffffff82169050919050565b6000620000a8826200007b565b9050919050565b6000620000bc826200009b565b9050919050565b620000ce81620000af565b8114620000da57600080fd5b50565b600081519050620000ee81620000c3565b92915050565b6000602082840312156200010d576200010c62000076565b5b60006200011d84828501620000dd565b91505092915050565b608051617e91620001ab60003960008181610a6601528181610b6501528181610de70152818161115b01528181611bdb01528181611f58015281816128c9015281816129c80152818161306b015281816130fc0152818161340a0152818161369501528181613e63015281816146f5015281816149020152614a840152617e916000f3fe608060405234801561001057600080fd5b50600436106102f05760003560e01c80637a708e921161019d578063d15e0053116100e9578063e5cf5147116100a2578063eddf1b791161007c578063eddf1b7914610920578063ee3e210b14610950578063f51e435b14610980578063f8119d511461099c576102f0565b8063e5cf5147146108ca578063e82fec2f146108e6578063e8eda9df14610904576102f0565b8063d15e0053146107f8578063d1946dbc14610828578063d579ea7d14610846578063d5ed393314610862578063d65dc7a11461087e578063e43e88a1146108ae576102f0565b8063ab9c4b5d11610156578063c44b11f711610130578063c44b11f714610774578063c4d66de8146107a4578063cd112382146107c0578063cea9d26f146107dc576102f0565b8063ab9c4b5d14610707578063bcb6e52214610723578063bf92857c1461073f576102f0565b80637a708e921461064b5780638e0276ed1461066757806394ba89a2146106975780639cd19996146106b3578063a415bcad146106cf578063a4c123d1146106eb576102f0565b80633aa2716b1161025c578063617ba0371161021557806369328dec116101ef57806369328dec146105b157806369a933a5146105e15780636a99c036146105fd5780636c6f6ae11461061b576102f0565b8063617ba0371461055b578063636845621461057757806363c9b86014610595576102f0565b80633aa2716b1461047757806342b0b77c146104935780634417a583146104af57806352751797146104df578063573ade811461050f5780635a3b74b91461053f576102f0565b8063231b2840116102ae578063231b2840146103a3578063272d9072146103c157806328530a47146103df5780633036b439146103fb57806335ea6a7514610417578063386497fd14610447576102f0565b8062a718a9146102f55780630148170e1461031157806302c205f01461032f5780630542975c1461034b578063074b2e43146103695780631d2118f914610387575b600080fd5b61030f600480360381019061030a91906151f9565b6109ba565b005b610319610c62565b6040516103269190615283565b60405180910390f35b61034960048036038101906103449190615347565b610c67565b005b610353610de5565b604051610360919061545c565b60405180910390f35b610371610e09565b60405161037e91906154a2565b60405180910390f35b6103a1600480360381019061039c91906154bd565b610e2f565b005b6103ab61109f565b6040516103b8919061550c565b60405180910390f35b6103c96110c9565b6040516103d69190615283565b60405180910390f35b6103f960048036038101906103f49190615527565b6110d3565b005b61041560048036038101906104109190615554565b61125e565b005b610431600480360381019061042c9190615581565b611270565b60405161043e919061575b565b60405180910390f35b610461600480360381019061045c9190615581565b6116d9565b60405161046e9190615283565b60405180910390f35b610491600480360381019061048c9190615554565b611729565b005b6104ad60048036038101906104a891906157dc565b6117c5565b005b6104c960048036038101906104c49190615581565b611980565b6040516104d69190615892565b60405180910390f35b6104f960048036038101906104f491906158ad565b6119e3565b604051610506919061550c565b60405180910390f35b610529600480360381019061052491906158da565b611a24565b6040516105369190615283565b60405180910390f35b61055960048036038101906105549190615941565b611b67565b005b61057560048036038101906105709190615981565b611d0d565b005b61057f611e10565b60405161058c9190615283565b60405180910390f35b6105af60048036038101906105aa9190615581565b611e1a565b005b6105cb60048036038101906105c691906159e8565b611e92565b6040516105d89190615283565b60405180910390f35b6105fb60048036038101906105f69190615981565b6120bd565b005b61060561217e565b60405161061291906154a2565b60405180910390f35b61063560048036038101906106309190615527565b6121a4565b6040516106429190615b41565b60405180910390f35b61066560048036038101906106609190615b63565b61231f565b005b610681600480360381019061067c9190615bde565b6124ac565b60405161068e9190615283565b60405180910390f35b6106b160048036038101906106ac9190615c31565b6125ee565b005b6106cd60048036038101906106c89190615cc7565b6126ed565b005b6106e960048036038101906106e49190615d14565b612785565b005b610705600480360381019061070091906154bd565b612ac5565b005b610721600480360381019061071c9190615de5565b612e4e565b005b61073d60048036038101906107389190615f35565b6132c7565b005b61075960048036038101906107549190615581565b613345565b60405161076b96959493929190615f75565b60405180910390f35b61078e60048036038101906107899190615581565b61357a565b60405161079b9190615ff2565b60405180910390f35b6107be60048036038101906107b9919061604b565b6135e0565b005b6107da60048036038101906107d591906154bd565b613829565b005b6107f660048036038101906107f19190616078565b6138d6565b005b610812600480360381019061080d9190615581565b61394e565b60405161081f9190615283565b60405180910390f35b61083061399e565b60405161083d919061617a565b60405180910390f35b610860600480360381019061085b919061637e565b613b3b565b005b61087c600480360381019061087791906163da565b613caa565b005b61089860048036038101906108939190615bde565b613fb6565b6040516108a59190615283565b60405180910390f35b6108c860048036038101906108c39190615581565b614089565b005b6108e460048036038101906108df9190615581565b6140fe565b005b6108ee61414a565b6040516108fb9190615283565b60405180910390f35b61091e60048036038101906109199190615981565b614172565b005b61093a60048036038101906109359190615581565b614275565b6040516109479190615283565b60405180910390f35b61096a60048036038101906109659190616467565b6142ce565b6040516109779190615283565b60405180910390f35b61099a60048036038101906109959190616541565b614492565b005b6109a46146d3565b6040516109b19190616590565b60405180910390f35b73__$22edcd7dd4dd8efb837c5b5369cbbdd48d$__6383c1087d6034603660356037604051806101200160405280603b60089054906101000a900461ffff1661ffff1681526020018981526020018c73ffffffffffffffffffffffffffffffffffffffff1681526020018b73ffffffffffffffffffffffffffffffffffffffff1681526020018a73ffffffffffffffffffffffffffffffffffffffff16815260200188151581526020017f000000000000000000000000000000000000000000000000000000000000000073ffffffffffffffffffffffffffffffffffffffff1663fca513a86040518163ffffffff1660e01b8152600401602060405180830381865afa158015610acf573d6000803e3d6000fd5b505050506040513d601f19601f82011682018060405250810190610af391906165c0565b73ffffffffffffffffffffffffffffffffffffffff168152602001603860008c73ffffffffffffffffffffffffffffffffffffffff1673ffffffffffffffffffffffffffffffffffffffff16815260200190815260200160002060009054906101000a900460ff1660ff1681526020017f000000000000000000000000000000000000000000000000000000000000000073ffffffffffffffffffffffffffffffffffffffff16635eb88d3d6040518163ffffffff1660e01b8152600401602060405180830381865afa158015610bce573d6000803e3d6000fd5b505050506040513d601f19601f82011682018060405250810190610bf291906165c0565b73ffffffffffffffffffffffffffffffffffffffff168152506040518663ffffffff1660e01b8152600401610c2b9594939291906166fc565b60006040518083038186803b158015610c4357600080fd5b505af4158015610c57573d6000803e3d6000fd5b505050505050505050565b600181565b8773ffffffffffffffffffffffffffffffffffffffff1663d505accf33308a888888886040518863ffffffff1660e01b8152600401610cac979695949392919061676e565b600060405180830381600087803b158015610cc657600080fd5b505af1158015610cda573d6000803e3d6000fd5b5050505073__$ea7d30fcb5645640b2d84313942d50ddac$__631913f16160346036603560008b73ffffffffffffffffffffffffffffffffffffffff1673ffffffffffffffffffffffffffffffffffffffff16815260200190815260200160002060405180608001604052808e73ffffffffffffffffffffffffffffffffffffffff1681526020018d81526020018c73ffffffffffffffffffffffffffffffffffffffff1681526020018b61ffff168152506040518563ffffffff1660e01b8152600401610dab9493929190616848565b60006040518083038186803b158015610dc357600080fd5b505af4158015610dd7573d6000803e3d6000fd5b505050505050505050505050565b7f000000000000000000000000000000000000000000000000000000000000000081565b6000603a60009054906101000a90046fffffffffffffffffffffffffffffffff16905090565b610e376146dc565b600073ffffffffffffffffffffffffffffffffffffffff168273ffffffffffffffffffffffffffffffffffffffff1614156040518060400160405280600281526020017f373700000000000000000000000000000000000000000000000000000000000081525090610edf576040517f08c379a0000000000000000000000000000000000000000000000000000000008152600401610ed691906168d7565b60405180910390fd5b506000603460008473ffffffffffffffffffffffffffffffffffffffff1673ffffffffffffffffffffffffffffffffffffffff16815260200190815260200160002060030160159054906101000a900461ffff1661ffff16141580610fa257508173ffffffffffffffffffffffffffffffffffffffff166036600080815260200190815260200160002060009054906101000a900473ffffffffffffffffffffffffffffffffffffffff1673ffffffffffffffffffffffffffffffffffffffff16145b6040518060400160405280600281526020017f383200000000000000000000000000000000000000000000000000000000000081525090611019576040517f08c379a000000000000000000000000000000000000000000000000000000000815260040161101091906168d7565b60405180910390fd5b5080603460008473ffffffffffffffffffffffffffffffffffffffff1673ffffffffffffffffffffffffffffffffffffffff16815260200190815260200160002060070160006101000a81548173ffffffffffffffffffffffffffffffffffffffff021916908373ffffffffffffffffffffffffffffffffffffffff1602179055505050565b6000603d60009054906101000a900473ffffffffffffffffffffffffffffffffffffffff16905090565b6000603954905090565b73__$967f6e359d3448e98a4aeb5b0cf7365d38$__635d5dc3136034603660376038603560003373ffffffffffffffffffffffffffffffffffffffff1673ffffffffffffffffffffffffffffffffffffffff1681526020019081526020016000206040518060600160405280603b60089054906101000a900461ffff1661ffff1681526020017f000000000000000000000000000000000000000000000000000000000000000073ffffffffffffffffffffffffffffffffffffffff1663fca513a86040518163ffffffff1660e01b8152600401602060405180830381865afa1580156111c4573d6000803e3d6000fd5b505050506040513d601f19601f820116820180604052508101906111e891906165c0565b73ffffffffffffffffffffffffffffffffffffffff1681526020018960ff168152506040518763ffffffff1660e01b815260040161122b96959493929190616942565b60006040518083038186803b15801561124357600080fd5b505af4158015611257573d6000803e3d6000fd5b5050505050565b6112666146dc565b8060398190555050565b611278614f33565b603460008373ffffffffffffffffffffffffffffffffffffffff1673ffffffffffffffffffffffffffffffffffffffff168152602001908152602001600020604051806101e00160405290816000820160405180602001604052908160008201548152505081526020016001820160009054906101000a90046fffffffffffffffffffffffffffffffff166fffffffffffffffffffffffffffffffff166fffffffffffffffffffffffffffffffff1681526020016001820160109054906101000a90046fffffffffffffffffffffffffffffffff166fffffffffffffffffffffffffffffffff166fffffffffffffffffffffffffffffffff1681526020016002820160009054906101000a90046fffffffffffffffffffffffffffffffff166fffffffffffffffffffffffffffffffff166fffffffffffffffffffffffffffffffff1681526020016002820160109054906101000a90046fffffffffffffffffffffffffffffffff166fffffffffffffffffffffffffffffffff166fffffffffffffffffffffffffffffffff1681526020016003820160009054906101000a90046fffffffffffffffffffffffffffffffff166fffffffffffffffffffffffffffffffff166fffffffffffffffffffffffffffffffff1681526020016003820160109054906101000a900464ffffffffff1664ffffffffff1664ffffffffff1681526020016003820160159054906101000a900461ffff1661ffff1661ffff1681526020016004820160009054906101000a900473ffffffffffffffffffffffffffffffffffffffff1673ffffffffffffffffffffffffffffffffffffffff1673ffffffffffffffffffffffffffffffffffffffff1681526020016005820160009054906101000a900473ffffffffffffffffffffffffffffffffffffffff1673ffffffffffffffffffffffffffffffffffffffff1673ffffffffffffffffffffffffffffffffffffffff1681526020016006820160009054906101000a900473ffffffffffffffffffffffffffffffffffffffff1673ffffffffffffffffffffffffffffffffffffffff1673ffffffffffffffffffffffffffffffffffffffff1681526020016007820160009054906101000a900473ffffffffffffffffffffffffffffffffffffffff1673ffffffffffffffffffffffffffffffffffffffff1673ffffffffffffffffffffffffffffffffffffffff1681526020016008820160009054906101000a90046fffffffffffffffffffffffffffffffff166fffffffffffffffffffffffffffffffff166fffffffffffffffffffffffffffffffff1681526020016008820160109054906101000a90046fffffffffffffffffffffffffffffffff166fffffffffffffffffffffffffffffffff166fffffffffffffffffffffffffffffffff1681526020016009820160009054906101000a90046fffffffffffffffffffffffffffffffff166fffffffffffffffffffffffffffffffff166fffffffffffffffffffffffffffffffff16815250509050919050565b6000611722603460008473ffffffffffffffffffffffffffffffffffffffff1673ffffffffffffffffffffffffffffffffffffffff168152602001908152602001600020614813565b9050919050565b611731614900565b60008111801561174357506113888111155b6040518060400160405280600381526020017f3130300000000000000000000000000000000000000000000000000000000000815250906117ba576040517f08c379a00000000000000000000000000000000000000000000000000000000081526004016117b191906168d7565b60405180910390fd5b5080603c8190555050565b60006040518060e001604052808873ffffffffffffffffffffffffffffffffffffffff1681526020018773ffffffffffffffffffffffffffffffffffffffff16815260200186815260200185858080601f016020809104026020016040519081016040528093929190818152602001838380828437600081840152601f19601f8201169050808301925050505050505081526020018361ffff168152602001603a60109054906101000a90046fffffffffffffffffffffffffffffffff166fffffffffffffffffffffffffffffffff168152602001603a60009054906101000a90046fffffffffffffffffffffffffffffffff166fffffffffffffffffffffffffffffffff16815250905073__$9783322202a084c3bd7c577d840126d9a4$__63a1fe0e8d603460008973ffffffffffffffffffffffffffffffffffffffff1673ffffffffffffffffffffffffffffffffffffffff168152602001908152602001600020836040518363ffffffff1660e01b8152600401611947929190616a9c565b60006040518083038186803b15801561195f57600080fd5b505af4158015611973573d6000803e3d6000fd5b5050505050505050505050565b6119886150a2565b603560008373ffffffffffffffffffffffffffffffffffffffff1673ffffffffffffffffffffffffffffffffffffffff1681526020019081526020016000206040518060200160405290816000820154815250509050919050565b6000603660008361ffff16815260200190815260200160002060009054906101000a900473ffffffffffffffffffffffffffffffffffffffff169050919050565b600073__$bba40078ca6d80abd65a67b04cb8241ee2$__6340e95de660346036603560008773ffffffffffffffffffffffffffffffffffffffff1673ffffffffffffffffffffffffffffffffffffffff1681526020019081526020016000206040518060a001604052808b73ffffffffffffffffffffffffffffffffffffffff1681526020018a8152602001896002811115611ac357611ac2616acc565b5b6002811115611ad557611ad4616acc565b5b81526020018873ffffffffffffffffffffffffffffffffffffffff168152602001600015158152506040518563ffffffff1660e01b8152600401611b1c9493929190616bab565b602060405180830381865af4158015611b39573d6000803e3d6000fd5b505050506040513d601f19601f82011682018060405250810190611b5d9190616c06565b9050949350505050565b73__$ea7d30fcb5645640b2d84313942d50ddac$__63bf697a26603460366037603560003373ffffffffffffffffffffffffffffffffffffffff1673ffffffffffffffffffffffffffffffffffffffff1681526020019081526020016000208787603b60089054906101000a900461ffff167f000000000000000000000000000000000000000000000000000000000000000073ffffffffffffffffffffffffffffffffffffffff1663fca513a86040518163ffffffff1660e01b8152600401602060405180830381865afa158015611c44573d6000803e3d6000fd5b505050506040513d601f19601f82011682018060405250810190611c6891906165c0565b603860003373ffffffffffffffffffffffffffffffffffffffff1673ffffffffffffffffffffffffffffffffffffffff16815260200190815260200160002060009054906101000a900460ff166040518a63ffffffff1660e01b8152600401611cd999989796959493929190616c91565b60006040518083038186803b158015611cf157600080fd5b505af4158015611d05573d6000803e3d6000fd5b505050505050565b73__$ea7d30fcb5645640b2d84313942d50ddac$__631913f16160346036603560008773ffffffffffffffffffffffffffffffffffffffff1673ffffffffffffffffffffffffffffffffffffffff16815260200190815260200160002060405180608001604052808a73ffffffffffffffffffffffffffffffffffffffff1681526020018981526020018873ffffffffffffffffffffffffffffffffffffffff1681526020018761ffff168152506040518563ffffffff1660e01b8152600401611dda9493929190616848565b60006040518083038186803b158015611df257600080fd5b505af4158015611e06573d6000803e3d6000fd5b5050505050505050565b6000603c54905090565b611e226146dc565b73__$3b6cc420be0d7dd4a9b256e115a12bfd8e$__639cf5702360346036846040518463ffffffff1660e01b8152600401611e5f93929190616d1e565b60006040518083038186803b158015611e7757600080fd5b505af4158015611e8b573d6000803e3d6000fd5b5050505050565b600073__$ea7d30fcb5645640b2d84313942d50ddac$__63186dea44603460366037603560003373ffffffffffffffffffffffffffffffffffffffff1673ffffffffffffffffffffffffffffffffffffffff1681526020019081526020016000206040518060c001604052808b73ffffffffffffffffffffffffffffffffffffffff1681526020018a81526020018973ffffffffffffffffffffffffffffffffffffffff168152602001603b60089054906101000a900461ffff1661ffff1681526020017f000000000000000000000000000000000000000000000000000000000000000073ffffffffffffffffffffffffffffffffffffffff1663fca513a86040518163ffffffff1660e01b8152600401602060405180830381865afa158015611fc1573d6000803e3d6000fd5b505050506040513d601f19601f82011682018060405250810190611fe591906165c0565b73ffffffffffffffffffffffffffffffffffffffff168152602001603860003373ffffffffffffffffffffffffffffffffffffffff1673ffffffffffffffffffffffffffffffffffffffff16815260200190815260200160002060009054906101000a900460ff1660ff168152506040518663ffffffff1660e01b8152600401612073959493929190616dd0565b602060405180830381865af4158015612090573d6000803e3d6000fd5b505050506040513d601f19601f820116820180604052508101906120b49190616c06565b90509392505050565b6120c5614a82565b73__$c030534866b8fbf524ba3af5372593642f$__630413c86f60346036603560008773ffffffffffffffffffffffffffffffffffffffff1673ffffffffffffffffffffffffffffffffffffffff168152602001908152602001600020888888886040518863ffffffff1660e01b81526004016121489796959493929190616e42565b60006040518083038186803b15801561216057600080fd5b505af4158015612174573d6000803e3d6000fd5b5050505050505050565b6000603a60109054906101000a90046fffffffffffffffffffffffffffffffff16905090565b6121ac6150b5565b603760008360ff1660ff1681526020019081526020016000206040518060a00160405290816000820160009054906101000a900461ffff1661ffff1661ffff1681526020016000820160029054906101000a900461ffff1661ffff1661ffff1681526020016000820160049054906101000a900461ffff1661ffff1661ffff1681526020016000820160069054906101000a900473ffffffffffffffffffffffffffffffffffffffff1673ffffffffffffffffffffffffffffffffffffffff1673ffffffffffffffffffffffffffffffffffffffff16815260200160018201805461229690616ee0565b80601f01602080910402602001604051908101604052809291908181526020018280546122c290616ee0565b801561230f5780601f106122e45761010080835404028352916020019161230f565b820191906000526020600020905b8154815290600101906020018083116122f257829003601f168201915b5050505050815250509050919050565b6123276146dc565b73__$3b6cc420be0d7dd4a9b256e115a12bfd8e$__6369fc1bdf603460366040518060e001604052808a73ffffffffffffffffffffffffffffffffffffffff1681526020018973ffffffffffffffffffffffffffffffffffffffff1681526020018873ffffffffffffffffffffffffffffffffffffffff1681526020018773ffffffffffffffffffffffffffffffffffffffff1681526020018673ffffffffffffffffffffffffffffffffffffffff168152602001603b60089054906101000a900461ffff1661ffff1681526020016123fe6146d3565b61ffff168152506040518463ffffffff1660e01b815260040161242393929190616f9f565b602060405180830381865af4158015612440573d6000803e3d6000fd5b505050506040513d601f19601f820116820180604052508101906124649190616fec565b156124a557603b600881819054906101000a900461ffff168092919061248990617048565b91906101000a81548161ffff021916908361ffff160217905550505b5050505050565b600073__$bba40078ca6d80abd65a67b04cb8241ee2$__6340e95de660346036603560003373ffffffffffffffffffffffffffffffffffffffff1673ffffffffffffffffffffffffffffffffffffffff1681526020019081526020016000206040518060a001604052808a73ffffffffffffffffffffffffffffffffffffffff16815260200189815260200188600281111561254b5761254a616acc565b5b600281111561255d5761255c616acc565b5b81526020013373ffffffffffffffffffffffffffffffffffffffff168152602001600115158152506040518563ffffffff1660e01b81526004016125a49493929190616bab565b602060405180830381865af41580156125c1573d6000803e3d6000fd5b505050506040513d601f19601f820116820180604052508101906125e59190616c06565b90509392505050565b73__$bba40078ca6d80abd65a67b04cb8241ee2$__63eac4d703603460008573ffffffffffffffffffffffffffffffffffffffff1673ffffffffffffffffffffffffffffffffffffffff168152602001908152602001600020603560003373ffffffffffffffffffffffffffffffffffffffff1673ffffffffffffffffffffffffffffffffffffffff1681526020019081526020016000208585600281111561269a57612699616acc565b5b6040518563ffffffff1660e01b81526004016126b99493929190617081565b60006040518083038186803b1580156126d157600080fd5b505af41580156126e5573d6000803e3d6000fd5b505050505050565b73__$3b6cc420be0d7dd4a9b256e115a12bfd8e$__63cd39659860348484603d60009054906101000a900473ffffffffffffffffffffffffffffffffffffffff16603c546040518663ffffffff1660e01b815260040161275195949392919061717a565b60006040518083038186803b15801561276957600080fd5b505af415801561277d573d6000803e3d6000fd5b505050505050565b73__$bba40078ca6d80abd65a67b04cb8241ee2$__631e6473f9603460366037603560008773ffffffffffffffffffffffffffffffffffffffff1673ffffffffffffffffffffffffffffffffffffffff1681526020019081526020016000206040518061018001604052808c73ffffffffffffffffffffffffffffffffffffffff1681526020013373ffffffffffffffffffffffffffffffffffffffff1681526020018873ffffffffffffffffffffffffffffffffffffffff1681526020018b81526020018a600281111561285d5761285c616acc565b5b600281111561286f5761286e616acc565b5b81526020018961ffff168152602001600115158152602001603b60009054906101000a900467ffffffffffffffff1667ffffffffffffffff168152602001603b60089054906101000a900461ffff1661ffff1681526020017f000000000000000000000000000000000000000000000000000000000000000073ffffffffffffffffffffffffffffffffffffffff1663fca513a86040518163ffffffff1660e01b8152600401602060405180830381865afa158015612932573d6000803e3d6000fd5b505050506040513d601f19601f8201168201806040525081019061295691906165c0565b73ffffffffffffffffffffffffffffffffffffffff168152602001603860008a73ffffffffffffffffffffffffffffffffffffffff1673ffffffffffffffffffffffffffffffffffffffff16815260200190815260200160002060009054906101000a900460ff1660ff1681526020017f000000000000000000000000000000000000000000000000000000000000000073ffffffffffffffffffffffffffffffffffffffff16635eb88d3d6040518163ffffffff1660e01b8152600401602060405180830381865afa158015612a31573d6000803e3d6000fd5b505050506040513d601f19601f82011682018060405250810190612a5591906165c0565b73ffffffffffffffffffffffffffffffffffffffff168152506040518663ffffffff1660e01b8152600401612a8e9594939291906172be565b60006040518083038186803b158015612aa657600080fd5b505af4158015612aba573d6000803e3d6000fd5b505050505050505050565b612acd614900565b600073ffffffffffffffffffffffffffffffffffffffff168273ffffffffffffffffffffffffffffffffffffffff1614156040518060400160405280600281526020017f373700000000000000000000000000000000000000000000000000000000000081525090612b75576040517f08c379a0000000000000000000000000000000000000000000000000000000008152600401612b6c91906168d7565b60405180910390fd5b506000603460008473ffffffffffffffffffffffffffffffffffffffff1673ffffffffffffffffffffffffffffffffffffffff16815260200190815260200160002060030160159054906101000a900461ffff1661ffff16141580612c3857508173ffffffffffffffffffffffffffffffffffffffff166036600080815260200190815260200160002060009054906101000a900473ffffffffffffffffffffffffffffffffffffffff1673ffffffffffffffffffffffffffffffffffffffff16145b6040518060400160405280600281526020017f383200000000000000000000000000000000000000000000000000000000000081525090612caf576040517f08c379a0000000000000000000000000000000000000000000000000000000008152600401612ca691906168d7565b60405180910390fd5b50603460008373ffffffffffffffffffffffffffffffffffffffff1673ffffffffffffffffffffffffffffffffffffffff16815260200190815260200160002060040160009054906101000a900473ffffffffffffffffffffffffffffffffffffffff1673ffffffffffffffffffffffffffffffffffffffff16637ff33dd9826040518263ffffffff1660e01b8152600401612d4b919061550c565b600060405180830381600087803b158015612d6557600080fd5b505af1158015612d79573d6000803e3d6000fd5b50505050603460008373ffffffffffffffffffffffffffffffffffffffff1673ffffffffffffffffffffffffffffffffffffffff16815260200190815260200160002060060160009054906101000a900473ffffffffffffffffffffffffffffffffffffffff1673ffffffffffffffffffffffffffffffffffffffff16637ff33dd9826040518263ffffffff1660e01b8152600401612e18919061550c565b600060405180830381600087803b158015612e3257600080fd5b505af1158015612e46573d6000803e3d6000fd5b505050505050565b6000604051806101c001604052808d73ffffffffffffffffffffffffffffffffffffffff1681526020018c8c80806020026020016040519081016040528093929190818152602001838360200280828437600081840152601f19601f8201169050808301925050505050505081526020018a8a80806020026020016040519081016040528093929190818152602001838360200280828437600081840152601f19601f820116905080830192505050505050508152602001888880806020026020016040519081016040528093929190818152602001838360200280828437600081840152601f19601f8201169050808301925050505050505081526020018673ffffffffffffffffffffffffffffffffffffffff16815260200185858080601f016020809104026020016040519081016040528093929190818152602001838380828437600081840152601f19601f8201169050808301925050505050505081526020018361ffff168152602001603a60109054906101000a90046fffffffffffffffffffffffffffffffff166fffffffffffffffffffffffffffffffff168152602001603a60009054906101000a90046fffffffffffffffffffffffffffffffff166fffffffffffffffffffffffffffffffff168152602001603b60009054906101000a900467ffffffffffffffff1667ffffffffffffffff168152602001603b60089054906101000a900461ffff1661ffff1681526020017f000000000000000000000000000000000000000000000000000000000000000073ffffffffffffffffffffffffffffffffffffffff168152602001603860008873ffffffffffffffffffffffffffffffffffffffff1673ffffffffffffffffffffffffffffffffffffffff16815260200190815260200160002060009054906101000a900460ff1660ff1681526020017f000000000000000000000000000000000000000000000000000000000000000073ffffffffffffffffffffffffffffffffffffffff1663707cd7166040518163ffffffff1660e01b8152600401602060405180830381865afa158015613165573d6000803e3d6000fd5b505050506040513d601f19601f8201168201806040525081019061318991906165c0565b73ffffffffffffffffffffffffffffffffffffffff1663fa50f297336040518263ffffffff1660e01b81526004016131c1919061550c565b602060405180830381865afa1580156131de573d6000803e3d6000fd5b505050506040513d601f19601f820116820180604052508101906132029190616fec565b1515815250905073__$9783322202a084c3bd7c577d840126d9a4$__632e7263ea603460366037603560008b73ffffffffffffffffffffffffffffffffffffffff1673ffffffffffffffffffffffffffffffffffffffff168152602001908152602001600020866040518663ffffffff1660e01b8152600401613289959493929190617573565b60006040518083038186803b1580156132a157600080fd5b505af41580156132b5573d6000803e3d6000fd5b50505050505050505050505050505050565b6132cf6146dc565b81603a60006101000a8154816fffffffffffffffffffffffffffffffff02191690836fffffffffffffffffffffffffffffffff16021790555080603a60106101000a8154816fffffffffffffffffffffffffffffffff02191690836fffffffffffffffffffffffffffffffff1602179055505050565b60008060008060008073__$3b6cc420be0d7dd4a9b256e115a12bfd8e$__6326ec273f6034603660376040518060a00160405280603560008f73ffffffffffffffffffffffffffffffffffffffff1673ffffffffffffffffffffffffffffffffffffffff1681526020019081526020016000206040518060200160405290816000820154815250508152602001603b60089054906101000a900461ffff1661ffff1681526020018d73ffffffffffffffffffffffffffffffffffffffff1681526020017f000000000000000000000000000000000000000000000000000000000000000073ffffffffffffffffffffffffffffffffffffffff1663fca513a86040518163ffffffff1660e01b8152600401602060405180830381865afa158015613473573d6000803e3d6000fd5b505050506040513d601f19601f8201168201806040525081019061349791906165c0565b73ffffffffffffffffffffffffffffffffffffffff168152602001603860008f73ffffffffffffffffffffffffffffffffffffffff1673ffffffffffffffffffffffffffffffffffffffff16815260200190815260200160002060009054906101000a900460ff1660ff168152506040518563ffffffff1660e01b81526004016135249493929190617651565b60c060405180830381865af4158015613541573d6000803e3d6000fd5b505050506040513d601f19601f820116820180604052508101906135659190617697565b95509550955095509550955091939550919395565b613582615106565b603460008373ffffffffffffffffffffffffffffffffffffffff1673ffffffffffffffffffffffffffffffffffffffff1681526020019081526020016000206000016040518060200160405290816000820154815250509050919050565b60006135ea614c04565b9050600160009054906101000a900460ff168061360b575061360a614c0d565b5b80613617575060005481115b613656576040517f08c379a000000000000000000000000000000000000000000000000000000000815260040161364d90617796565b60405180910390fd5b6000600160009054906101000a900460ff1615905080156136935760018060006101000a81548160ff021916908315150217905550816000819055505b7f000000000000000000000000000000000000000000000000000000000000000073ffffffffffffffffffffffffffffffffffffffff168373ffffffffffffffffffffffffffffffffffffffff16146040518060400160405280600281526020017f313200000000000000000000000000000000000000000000000000000000000081525090613759576040517f08c379a000000000000000000000000000000000000000000000000000000000815260040161375091906168d7565b60405180910390fd5b506109c4603b60006101000a81548167ffffffffffffffff021916908367ffffffffffffffff1602179055506009603a60006101000a8154816fffffffffffffffffffffffffffffffff02191690836fffffffffffffffffffffffffffffffff1602179055506000603a60106101000a8154816fffffffffffffffffffffffffffffffff02191690836fffffffffffffffffffffffffffffffff1602179055506109c4603c819055508015613824576000600160006101000a81548160ff0219169083151502179055505b505050565b73__$bba40078ca6d80abd65a67b04cb8241ee2$__636973f744603460008573ffffffffffffffffffffffffffffffffffffffff1673ffffffffffffffffffffffffffffffffffffffff16815260200190815260200160002084846040518463ffffffff1660e01b81526004016138a2939291906177b6565b60006040518083038186803b1580156138ba57600080fd5b505af41580156138ce573d6000803e3d6000fd5b505050505050565b6138de614900565b73__$3b6cc420be0d7dd4a9b256e115a12bfd8e$__6387b322b28484846040518463ffffffff1660e01b8152600401613919939291906177ed565b60006040518083038186803b15801561393157600080fd5b505af4158015613945573d6000803e3d6000fd5b50505050505050565b6000613997603460008473ffffffffffffffffffffffffffffffffffffffff1673ffffffffffffffffffffffffffffffffffffffff168152602001908152602001600020614c1e565b9050919050565b60606000603b60089054906101000a900461ffff1661ffff1690506000808267ffffffffffffffff8111156139d6576139d56161a1565b5b604051908082528060200260200182016040528015613a045781602001602082028036833780820191505090505b50905060005b83811015613b2c57600073ffffffffffffffffffffffffffffffffffffffff166036600083815260200190815260200160002060009054906101000a900473ffffffffffffffffffffffffffffffffffffffff1673ffffffffffffffffffffffffffffffffffffffff1614613b0a576036600082815260200190815260200160002060009054906101000a900473ffffffffffffffffffffffffffffffffffffffff16828483613aba9190617824565b81518110613acb57613aca617858565b5b602002602001019073ffffffffffffffffffffffffffffffffffffffff16908173ffffffffffffffffffffffffffffffffffffffff1681525050613b19565b8280613b1590617887565b9350505b8080613b2490617887565b915050613a0a565b50818303815280935050505090565b613b436146dc565b60008260ff1614156040518060400160405280600281526020017f313600000000000000000000000000000000000000000000000000000000000081525090613bc2576040517f08c379a0000000000000000000000000000000000000000000000000000000008152600401613bb991906168d7565b60405180910390fd5b5080603760008460ff1660ff16815260200190815260200160002060008201518160000160006101000a81548161ffff021916908361ffff16021790555060208201518160000160026101000a81548161ffff021916908361ffff16021790555060408201518160000160046101000a81548161ffff021916908361ffff16021790555060608201518160000160066101000a81548173ffffffffffffffffffffffffffffffffffffffff021916908373ffffffffffffffffffffffffffffffffffffffff1602179055506080820151816001019081613ca29190617a71565b509050505050565b603460008773ffffffffffffffffffffffffffffffffffffffff1673ffffffffffffffffffffffffffffffffffffffff16815260200190815260200160002060040160009054906101000a900473ffffffffffffffffffffffffffffffffffffffff1673ffffffffffffffffffffffffffffffffffffffff163373ffffffffffffffffffffffffffffffffffffffff16146040518060400160405280600281526020017f313100000000000000000000000000000000000000000000000000000000000081525090613db2576040517f08c379a0000000000000000000000000000000000000000000000000000000008152600401613da991906168d7565b60405180910390fd5b5073__$ea7d30fcb5645640b2d84313942d50ddac$__638a5dadd160346036603760356040518061012001604052808d73ffffffffffffffffffffffffffffffffffffffff1681526020018c73ffffffffffffffffffffffffffffffffffffffff1681526020018b73ffffffffffffffffffffffffffffffffffffffff1681526020018a8152602001898152602001888152602001603b60089054906101000a900461ffff1661ffff1681526020017f000000000000000000000000000000000000000000000000000000000000000073ffffffffffffffffffffffffffffffffffffffff1663fca513a86040518163ffffffff1660e01b8152600401602060405180830381865afa158015613ecc573d6000803e3d6000fd5b505050506040513d601f19601f82011682018060405250810190613ef091906165c0565b73ffffffffffffffffffffffffffffffffffffffff168152602001603860008e73ffffffffffffffffffffffffffffffffffffffff1673ffffffffffffffffffffffffffffffffffffffff16815260200190815260200160002060009054906101000a900460ff1660ff168152506040518663ffffffff1660e01b8152600401613f7e959493929190617bfa565b60006040518083038186803b158015613f9657600080fd5b505af4158015613faa573d6000803e3d6000fd5b50505050505050505050565b6000613fc0614a82565b73__$c030534866b8fbf524ba3af5372593642f$__638e743248603460008773ffffffffffffffffffffffffffffffffffffffff1673ffffffffffffffffffffffffffffffffffffffff1681526020019081526020016000208686866039546040518663ffffffff1660e01b815260040161403f959493929190617c4e565b602060405180830381865af415801561405c573d6000803e3d6000fd5b505050506040513d601f19601f820116820180604052508101906140809190616c06565b90509392505050565b6140916146dc565b73__$3b6cc420be0d7dd4a9b256e115a12bfd8e$__631e3b41456034836040518363ffffffff1660e01b81526004016140cb929190617ca1565b60006040518083038186803b1580156140e357600080fd5b505af41580156140f7573d6000803e3d6000fd5b5050505050565b614106614900565b80603d60006101000a81548173ffffffffffffffffffffffffffffffffffffffff021916908373ffffffffffffffffffffffffffffffffffffffff16021790555050565b6000603b60009054906101000a900467ffffffffffffffff1667ffffffffffffffff16905090565b73__$ea7d30fcb5645640b2d84313942d50ddac$__631913f16160346036603560008773ffffffffffffffffffffffffffffffffffffffff1673ffffffffffffffffffffffffffffffffffffffff16815260200190815260200160002060405180608001604052808a73ffffffffffffffffffffffffffffffffffffffff1681526020018981526020018873ffffffffffffffffffffffffffffffffffffffff1681526020018761ffff168152506040518563ffffffff1660e01b815260040161423f9493929190616848565b60006040518083038186803b15801561425757600080fd5b505af415801561426b573d6000803e3d6000fd5b5050505050505050565b6000603860008373ffffffffffffffffffffffffffffffffffffffff1673ffffffffffffffffffffffffffffffffffffffff16815260200190815260200160002060009054906101000a900460ff1660ff169050919050565b60008873ffffffffffffffffffffffffffffffffffffffff1663d505accf33308b898989896040518863ffffffff1660e01b8152600401614315979695949392919061676e565b600060405180830381600087803b15801561432f57600080fd5b505af1158015614343573d6000803e3d6000fd5b5050505060006040518060a001604052808b73ffffffffffffffffffffffffffffffffffffffff1681526020018a815260200189600281111561438957614388616acc565b5b600281111561439b5761439a616acc565b5b81526020018873ffffffffffffffffffffffffffffffffffffffff16815260200160001515815250905073__$bba40078ca6d80abd65a67b04cb8241ee2$__6340e95de660346036603560008c73ffffffffffffffffffffffffffffffffffffffff1673ffffffffffffffffffffffffffffffffffffffff168152602001908152602001600020856040518563ffffffff1660e01b81526004016144429493929190616bab565b602060405180830381865af415801561445f573d6000803e3d6000fd5b505050506040513d601f19601f820116820180604052508101906144839190616c06565b91505098975050505050505050565b61449a6146dc565b600073ffffffffffffffffffffffffffffffffffffffff168273ffffffffffffffffffffffffffffffffffffffff1614156040518060400160405280600281526020017f373700000000000000000000000000000000000000000000000000000000000081525090614542576040517f08c379a000000000000000000000000000000000000000000000000000000000815260040161453991906168d7565b60405180910390fd5b506000603460008473ffffffffffffffffffffffffffffffffffffffff1673ffffffffffffffffffffffffffffffffffffffff16815260200190815260200160002060030160159054906101000a900461ffff1661ffff1614158061460557508173ffffffffffffffffffffffffffffffffffffffff166036600080815260200190815260200160002060009054906101000a900473ffffffffffffffffffffffffffffffffffffffff1673ffffffffffffffffffffffffffffffffffffffff16145b6040518060400160405280600281526020017f38320000000000000000000000000000000000000000000000000000000000008152509061467c576040517f08c379a000000000000000000000000000000000000000000000000000000000815260040161467391906168d7565b60405180910390fd5b5080603460008473ffffffffffffffffffffffffffffffffffffffff1673ffffffffffffffffffffffffffffffffffffffff16815260200190815260200160002060000181816146cc9190617d77565b9050505050565b60006080905090565b3373ffffffffffffffffffffffffffffffffffffffff167f000000000000000000000000000000000000000000000000000000000000000073ffffffffffffffffffffffffffffffffffffffff1663631adfca6040518163ffffffff1660e01b8152600401602060405180830381865afa15801561475e573d6000803e3d6000fd5b505050506040513d601f19601f8201168201806040525081019061478291906165c0565b73ffffffffffffffffffffffffffffffffffffffff16146040518060400160405280600281526020017f313000000000000000000000000000000000000000000000000000000000000081525090614810576040517f08c379a000000000000000000000000000000000000000000000000000000000815260040161480791906168d7565b60405180910390fd5b50565b6000808260030160109054906101000a900464ffffffffff169050428164ffffffffff1603614877578260020160009054906101000a90046fffffffffffffffffffffffffffffffff166fffffffffffffffffffffffffffffffff169150506148fb565b6148f78360020160009054906101000a90046fffffffffffffffffffffffffffffffff166fffffffffffffffffffffffffffffffff166148e98560020160109054906101000a90046fffffffffffffffffffffffffffffffff166fffffffffffffffffffffffffffffffff1684614d0b565b614d2090919063ffffffff16565b9150505b919050565b7f000000000000000000000000000000000000000000000000000000000000000073ffffffffffffffffffffffffffffffffffffffff1663707cd7166040518163ffffffff1660e01b8152600401602060405180830381865afa15801561496b573d6000803e3d6000fd5b505050506040513d601f19601f8201168201806040525081019061498f91906165c0565b73ffffffffffffffffffffffffffffffffffffffff16637be53ca1336040518263ffffffff1660e01b81526004016149c7919061550c565b602060405180830381865afa1580156149e4573d6000803e3d6000fd5b505050506040513d601f19601f82011682018060405250810190614a089190616fec565b6040518060400160405280600181526020017f310000000000000000000000000000000000000000000000000000000000000081525090614a7f576040517f08c379a0000000000000000000000000000000000000000000000000000000008152600401614a7691906168d7565b60405180910390fd5b50565b7f000000000000000000000000000000000000000000000000000000000000000073ffffffffffffffffffffffffffffffffffffffff1663707cd7166040518163ffffffff1660e01b8152600401602060405180830381865afa158015614aed573d6000803e3d6000fd5b505050506040513d601f19601f82011682018060405250810190614b1191906165c0565b73ffffffffffffffffffffffffffffffffffffffff1663726600ce336040518263ffffffff1660e01b8152600401614b49919061550c565b602060405180830381865afa158015614b66573d6000803e3d6000fd5b505050506040513d601f19601f82011682018060405250810190614b8a9190616fec565b6040518060400160405280600181526020017f360000000000000000000000000000000000000000000000000000000000000081525090614c01576040517f08c379a0000000000000000000000000000000000000000000000000000000008152600401614bf891906168d7565b60405180910390fd5b50565b60006001905090565b600080303b90506000811491505090565b6000808260030160109054906101000a900464ffffffffff169050428164ffffffffff1603614c82578260010160009054906101000a90046fffffffffffffffffffffffffffffffff166fffffffffffffffffffffffffffffffff16915050614d06565b614d028360010160009054906101000a90046fffffffffffffffffffffffffffffffff166fffffffffffffffffffffffffffffffff16614cf48560010160109054906101000a90046fffffffffffffffffffffffffffffffff166fffffffffffffffffffffffffffffffff1684614d6b565b614d2090919063ffffffff16565b9150505b919050565b6000614d18838342614dc6565b905092915050565b6000816b019d971e4fe8401e740000006000190304831115821517614d4457600080fd5b6b033b2e3c9fd0803ce80000006b019d971e4fe8401e740000008385020104905092915050565b6000808264ffffffffff1642614d819190617824565b84614d8c9190617d85565b90506301e133808181614da257614da1617dc7565b5b049050806b033b2e3c9fd0803ce8000000614dbd9190617df6565b91505092915050565b6000808364ffffffffff1683614ddc9190617824565b905060008103614dfb576b033b2e3c9fd0803ce8000000915050614f2c565b60008060008060018503935060028511614e16576000614e1b565b600285035b92506301e133808002614e378a8b614d2090919063ffffffff16565b81614e4557614e44617dc7565b5b0491506301e13380614e608a84614d2090919063ffffffff16565b81614e6e57614e6d617dc7565b5b0490506000828587614e809190617d85565b614e8a9190617d85565b905060028181614e9d57614e9c617dc7565b5b049050600082858789614eb09190617d85565b614eba9190617d85565b614ec49190617d85565b905060068181614ed757614ed6617dc7565b5b04905080826301e13380898e614eed9190617d85565b614ef79190617e2a565b6b033b2e3c9fd0803ce8000000614f0e9190617df6565b614f189190617df6565b614f229190617df6565b9750505050505050505b9392505050565b604051806101e00160405280614f47615106565b815260200160006fffffffffffffffffffffffffffffffff16815260200160006fffffffffffffffffffffffffffffffff16815260200160006fffffffffffffffffffffffffffffffff16815260200160006fffffffffffffffffffffffffffffffff16815260200160006fffffffffffffffffffffffffffffffff168152602001600064ffffffffff168152602001600061ffff168152602001600073ffffffffffffffffffffffffffffffffffffffff168152602001600073ffffffffffffffffffffffffffffffffffffffff168152602001600073ffffffffffffffffffffffffffffffffffffffff168152602001600073ffffffffffffffffffffffffffffffffffffffff16815260200160006fffffffffffffffffffffffffffffffff16815260200160006fffffffffffffffffffffffffffffffff16815260200160006fffffffffffffffffffffffffffffffff1681525090565b6040518060200160405280600081525090565b6040518060a00160405280600061ffff168152602001600061ffff168152602001600061ffff168152602001600073ffffffffffffffffffffffffffffffffffffffff168152602001606081525090565b6040518060200160405280600081525090565b6000604051905090565b600080fd5b600080fd5b600073ffffffffffffffffffffffffffffffffffffffff82169050919050565b60006151588261512d565b9050919050565b6151688161514d565b811461517357600080fd5b50565b6000813590506151858161515f565b92915050565b6000819050919050565b61519e8161518b565b81146151a957600080fd5b50565b6000813590506151bb81615195565b92915050565b60008115159050919050565b6151d6816151c1565b81146151e157600080fd5b50565b6000813590506151f3816151cd565b92915050565b600080600080600060a0868803121561521557615214615123565b5b600061522388828901615176565b955050602061523488828901615176565b945050604061524588828901615176565b9350506060615256888289016151ac565b9250506080615267888289016151e4565b9150509295509295909350565b61527d8161518b565b82525050565b60006020820190506152986000830184615274565b92915050565b600061ffff82169050919050565b6152b58161529e565b81146152c057600080fd5b50565b6000813590506152d2816152ac565b92915050565b600060ff82169050919050565b6152ee816152d8565b81146152f957600080fd5b50565b60008135905061530b816152e5565b92915050565b6000819050919050565b61532481615311565b811461532f57600080fd5b50565b6000813590506153418161531b565b92915050565b600080600080600080600080610100898b03121561536857615367615123565b5b60006153768b828c01615176565b98505060206153878b828c016151ac565b97505060406153988b828c01615176565b96505060606153a98b828c016152c3565b95505060806153ba8b828c016151ac565b94505060a06153cb8b828c016152fc565b93505060c06153dc8b828c01615332565b92505060e06153ed8b828c01615332565b9150509295985092959890939650565b6000819050919050565b600061542261541d6154188461512d565b6153fd565b61512d565b9050919050565b600061543482615407565b9050919050565b600061544682615429565b9050919050565b6154568161543b565b82525050565b6000602082019050615471600083018461544d565b92915050565b60006fffffffffffffffffffffffffffffffff82169050919050565b61549c81615477565b82525050565b60006020820190506154b76000830184615493565b92915050565b600080604083850312156154d4576154d3615123565b5b60006154e285828601615176565b92505060206154f385828601615176565b9150509250929050565b6155068161514d565b82525050565b600060208201905061552160008301846154fd565b92915050565b60006020828403121561553d5761553c615123565b5b600061554b848285016152fc565b91505092915050565b60006020828403121561556a57615569615123565b5b6000615578848285016151ac565b91505092915050565b60006020828403121561559757615596615123565b5b60006155a584828501615176565b91505092915050565b6155b78161518b565b82525050565b6020820160008201516155d360008501826155ae565b50505050565b6155e281615477565b82525050565b600064ffffffffff82169050919050565b615602816155e8565b82525050565b6156118161529e565b82525050565b6156208161514d565b82525050565b6101e08201600082015161563d60008501826155bd565b50602082015161565060208501826155d9565b50604082015161566360408501826155d9565b50606082015161567660608501826155d9565b50608082015161568960808501826155d9565b5060a082015161569c60a08501826155d9565b5060c08201516156af60c08501826155f9565b5060e08201516156c260e0850182615608565b506101008201516156d7610100850182615617565b506101208201516156ec610120850182615617565b50610140820151615701610140850182615617565b50610160820151615716610160850182615617565b5061018082015161572b6101808501826155d9565b506101a08201516157406101a08501826155d9565b506101c08201516157556101c08501826155d9565b50505050565b60006101e0820190506157716000830184615626565b92915050565b600080fd5b600080fd5b600080fd5b60008083601f84011261579c5761579b615777565b5b8235905067ffffffffffffffff8111156157b9576157b861577c565b5b6020830191508360018202830111156157d5576157d4615781565b5b9250929050565b60008060008060008060a087890312156157f9576157f8615123565b5b600061580789828a01615176565b965050602061581889828a01615176565b955050604061582989828a016151ac565b945050606087013567ffffffffffffffff81111561584a57615849615128565b5b61585689828a01615786565b9350935050608061586989828a016152c3565b9150509295509295509295565b60208201600082015161588c60008501826155ae565b50505050565b60006020820190506158a76000830184615876565b92915050565b6000602082840312156158c3576158c2615123565b5b60006158d1848285016152c3565b91505092915050565b600080600080608085870312156158f4576158f3615123565b5b600061590287828801615176565b9450506020615913878288016151ac565b9350506040615924878288016151ac565b925050606061593587828801615176565b91505092959194509250565b6000806040838503121561595857615957615123565b5b600061596685828601615176565b9250506020615977858286016151e4565b9150509250929050565b6000806000806080858703121561599b5761599a615123565b5b60006159a987828801615176565b94505060206159ba878288016151ac565b93505060406159cb87828801615176565b92505060606159dc878288016152c3565b91505092959194509250565b600080600060608486031215615a0157615a00615123565b5b6000615a0f86828701615176565b9350506020615a20868287016151ac565b9250506040615a3186828701615176565b9150509250925092565b600081519050919050565b600082825260208201905092915050565b60005b83811015615a75578082015181840152602081019050615a5a565b60008484015250505050565b6000601f19601f8301169050919050565b6000615a9d82615a3b565b615aa78185615a46565b9350615ab7818560208601615a57565b615ac081615a81565b840191505092915050565b600060a083016000830151615ae36000860182615608565b506020830151615af66020860182615608565b506040830151615b096040860182615608565b506060830151615b1c6060860182615617565b5060808301518482036080860152615b348282615a92565b9150508091505092915050565b60006020820190508181036000830152615b5b8184615acb565b905092915050565b600080600080600060a08688031215615b7f57615b7e615123565b5b6000615b8d88828901615176565b9550506020615b9e88828901615176565b9450506040615baf88828901615176565b9350506060615bc088828901615176565b9250506080615bd188828901615176565b9150509295509295909350565b600080600060608486031215615bf757615bf6615123565b5b6000615c0586828701615176565b9350506020615c16868287016151ac565b9250506040615c27868287016151ac565b9150509250925092565b60008060408385031215615c4857615c47615123565b5b6000615c5685828601615176565b9250506020615c67858286016151ac565b9150509250929050565b60008083601f840112615c8757615c86615777565b5b8235905067ffffffffffffffff811115615ca457615ca361577c565b5b602083019150836020820283011115615cc057615cbf615781565b5b9250929050565b60008060208385031215615cde57615cdd615123565b5b600083013567ffffffffffffffff811115615cfc57615cfb615128565b5b615d0885828601615c71565b92509250509250929050565b600080600080600060a08688031215615d3057615d2f615123565b5b6000615d3e88828901615176565b9550506020615d4f888289016151ac565b9450506040615d60888289016151ac565b9350506060615d71888289016152c3565b9250506080615d8288828901615176565b9150509295509295909350565b60008083601f840112615da557615da4615777565b5b8235905067ffffffffffffffff811115615dc257615dc161577c565b5b602083019150836020820283011115615dde57615ddd615781565b5b9250929050565b600080600080600080600080600080600060e08c8e031215615e0a57615e09615123565b5b6000615e188e828f01615176565b9b505060208c013567ffffffffffffffff811115615e3957615e38615128565b5b615e458e828f01615c71565b9a509a505060408c013567ffffffffffffffff811115615e6857615e67615128565b5b615e748e828f01615d8f565b985098505060608c013567ffffffffffffffff811115615e9757615e96615128565b5b615ea38e828f01615d8f565b96509650506080615eb68e828f01615176565b94505060a08c013567ffffffffffffffff811115615ed757615ed6615128565b5b615ee38e828f01615786565b935093505060c0615ef68e828f016152c3565b9150509295989b509295989b9093969950565b615f1281615477565b8114615f1d57600080fd5b50565b600081359050615f2f81615f09565b92915050565b60008060408385031215615f4c57615f4b615123565b5b6000615f5a85828601615f20565b9250506020615f6b85828601615f20565b9150509250929050565b600060c082019050615f8a6000830189615274565b615f976020830188615274565b615fa46040830187615274565b615fb16060830186615274565b615fbe6080830185615274565b615fcb60a0830184615274565b979650505050505050565b602082016000820151615fec60008501826155ae565b50505050565b60006020820190506160076000830184615fd6565b92915050565b60006160188261514d565b9050919050565b6160288161600d565b811461603357600080fd5b50565b6000813590506160458161601f565b92915050565b60006020828403121561606157616060615123565b5b600061606f84828501616036565b91505092915050565b60008060006060848603121561609157616090615123565b5b600061609f86828701615176565b93505060206160b086828701615176565b92505060406160c1868287016151ac565b9150509250925092565b600081519050919050565b600082825260208201905092915050565b6000819050602082019050919050565b60006161038383615617565b60208301905092915050565b6000602082019050919050565b6000616127826160cb565b61613181856160d6565b935061613c836160e7565b8060005b8381101561616d57815161615488826160f7565b975061615f8361610f565b925050600181019050616140565b5085935050505092915050565b60006020820190508181036000830152616194818461611c565b905092915050565b600080fd5b7f4e487b7100000000000000000000000000000000000000000000000000000000600052604160045260246000fd5b6161d982615a81565b810181811067ffffffffffffffff821117156161f8576161f76161a1565b5b80604052505050565b600061620b615119565b905061621782826161d0565b919050565b600080fd5b600080fd5b600067ffffffffffffffff821115616241576162406161a1565b5b61624a82615a81565b9050602081019050919050565b82818337600083830152505050565b600061627961627484616226565b616201565b90508281526020810184848401111561629557616294616221565b5b6162a0848285616257565b509392505050565b600082601f8301126162bd576162bc615777565b5b81356162cd848260208601616266565b91505092915050565b600060a082840312156162ec576162eb61619c565b5b6162f660a0616201565b90506000616306848285016152c3565b600083015250602061631a848285016152c3565b602083015250604061632e848285016152c3565b604083015250606061634284828501615176565b606083015250608082013567ffffffffffffffff8111156163665761636561621c565b5b616372848285016162a8565b60808301525092915050565b6000806040838503121561639557616394615123565b5b60006163a3858286016152fc565b925050602083013567ffffffffffffffff8111156163c4576163c3615128565b5b6163d0858286016162d6565b9150509250929050565b60008060008060008060c087890312156163f7576163f6615123565b5b600061640589828a01615176565b965050602061641689828a01615176565b955050604061642789828a01615176565b945050606061643889828a016151ac565b935050608061644989828a016151ac565b92505060a061645a89828a016151ac565b9150509295509295509295565b600080600080600080600080610100898b03121561648857616487615123565b5b60006164968b828c01615176565b98505060206164a78b828c016151ac565b97505060406164b88b828c016151ac565b96505060606164c98b828c01615176565b95505060806164da8b828c016151ac565b94505060a06164eb8b828c016152fc565b93505060c06164fc8b828c01615332565b92505060e061650d8b828c01615332565b9150509295985092959890939650565b600080fd5b6000602082840312156165385761653761651d565b5b81905092915050565b6000806040838503121561655857616557615123565b5b600061656685828601615176565b925050602061657785828601616522565b9150509250929050565b61658a8161529e565b82525050565b60006020820190506165a56000830184616581565b92915050565b6000815190506165ba8161515f565b92915050565b6000602082840312156165d6576165d5615123565b5b60006165e4848285016165ab565b91505092915050565b8082525050565b8082525050565b8082525050565b8082525050565b6166128161518b565b82525050565b6166218161514d565b82525050565b616630816151c1565b82525050565b61663f816152d8565b82525050565b6101208201600082015161665c6000850182616609565b50602082015161666f6020850182616609565b5060408201516166826040850182616618565b5060608201516166956060850182616618565b5060808201516166a86080850182616618565b5060a08201516166bb60a0850182616627565b5060c08201516166ce60c0850182616618565b5060e08201516166e160e0850182616636565b506101008201516166f6610100850182616618565b50505050565b60006101a08201905061671260008301886165ed565b61671f60208301876165f4565b61672c60408301866165fb565b6167396060830185616602565b6167466080830184616645565b9695505050505050565b616759816152d8565b82525050565b61676881615311565b82525050565b600060e082019050616783600083018a6154fd565b61679060208301896154fd565b61679d6040830188615274565b6167aa6060830187615274565b6167b76080830186616750565b6167c460a083018561675f565b6167d160c083018461675f565b98975050505050505050565b8082525050565b6167ed8161529e565b82525050565b6080820160008201516168096000850182616618565b50602082015161681c6020850182616609565b50604082015161682f6040850182616618565b50606082015161684260608501826167e4565b50505050565b600060e08201905061685d60008301876165ed565b61686a60208301866165f4565b61687760408301856167dd565b61688460608301846167f3565b95945050505050565b600082825260208201905092915050565b60006168a982615a3b565b6168b3818561688d565b93506168c3818560208601615a57565b6168cc81615a81565b840191505092915050565b600060208201905081810360008301526168f1818461689e565b905092915050565b8082525050565b6060820160008201516169166000850182616609565b5060208201516169296020850182616618565b50604082015161693c6040850182616636565b50505050565b60006101008201905061695860008301896165ed565b61696560208301886165f4565b6169726040830187616602565b61697f60608301866168f9565b61698c60808301856167dd565b61699960a0830184616900565b979650505050505050565b8082525050565b600081519050919050565b600082825260208201905092915050565b60006169d2826169ab565b6169dc81856169b6565b93506169ec818560208601615a57565b6169f581615a81565b840191505092915050565b600060e083016000830151616a186000860182616618565b506020830151616a2b6020860182616618565b506040830151616a3e6040860182616609565b5060608301518482036060860152616a5682826169c7565b9150506080830151616a6b60808601826167e4565b5060a0830151616a7e60a0860182616609565b5060c0830151616a9160c0860182616609565b508091505092915050565b6000604082019050616ab160008301856169a4565b8181036020830152616ac38184616a00565b90509392505050565b7f4e487b7100000000000000000000000000000000000000000000000000000000600052602160045260246000fd5b60038110616b0c57616b0b616acc565b5b50565b6000819050616b1d82616afb565b919050565b6000616b2d82616b0f565b9050919050565b616b3d81616b22565b82525050565b60a082016000820151616b596000850182616618565b506020820151616b6c6020850182616609565b506040820151616b7f6040850182616b34565b506060820151616b926060850182616618565b506080820151616ba56080850182616627565b50505050565b600061010082019050616bc160008301876165ed565b616bce60208301866165f4565b616bdb60408301856167dd565b616be86060830184616b43565b95945050505050565b600081519050616c0081615195565b92915050565b600060208284031215616c1c57616c1b615123565b5b6000616c2a84828501616bf1565b91505092915050565b616c3c8161514d565b82525050565b616c4b816151c1565b82525050565b6000616c6c616c67616c628461529e565b6153fd565b61518b565b9050919050565b616c7c81616c51565b82525050565b616c8b816152d8565b82525050565b600061012082019050616ca7600083018c6165ed565b616cb4602083018b6165f4565b616cc1604083018a616602565b616cce60608301896167dd565b616cdb6080830188616c33565b616ce860a0830187616c42565b616cf560c0830186616c73565b616d0260e0830185616c33565b616d10610100830184616c82565b9a9950505050505050505050565b6000606082019050616d3360008301866165ed565b616d4060208301856165f4565b616d4d6040830184616c33565b949350505050565b60c082016000820151616d6b6000850182616618565b506020820151616d7e6020850182616609565b506040820151616d916040850182616618565b506060820151616da46060850182616609565b506080820151616db76080850182616618565b5060a0820151616dca60a0850182616636565b50505050565b600061014082019050616de660008301886165ed565b616df360208301876165f4565b616e006040830186616602565b616e0d60608301856167dd565b616e1a6080830184616d55565b9695505050505050565b616e2d8161518b565b82525050565b616e3c8161529e565b82525050565b600060e082019050616e57600083018a6165ed565b616e6460208301896165f4565b616e7160408301886167dd565b616e7e6060830187616c33565b616e8b6080830186616e24565b616e9860a0830185616c33565b616ea560c0830184616e33565b98975050505050505050565b7f4e487b7100000000000000000000000000000000000000000000000000000000600052602260045260246000fd5b60006002820490506001821680616ef857607f821691505b602082108103616f0b57616f0a616eb1565b5b50919050565b60e082016000820151616f276000850182616618565b506020820151616f3a6020850182616618565b506040820151616f4d6040850182616618565b506060820151616f606060850182616618565b506080820151616f736080850182616618565b5060a0820151616f8660a08501826167e4565b5060c0820151616f9960c08501826167e4565b50505050565b600061012082019050616fb560008301866165ed565b616fc260208301856165f4565b616fcf6040830184616f11565b949350505050565b600081519050616fe6816151cd565b92915050565b60006020828403121561700257617001615123565b5b600061701084828501616fd7565b91505092915050565b7f4e487b7100000000000000000000000000000000000000000000000000000000600052601160045260246000fd5b60006170538261529e565b915061ffff820361706757617066617019565b5b600182019050919050565b61707b81616b22565b82525050565b600060808201905061709660008301876169a4565b6170a360208301866167dd565b6170b06040830185616c33565b6170bd6060830184617072565b95945050505050565b600082825260208201905092915050565b6000819050919050565b60006170ed8383616618565b60208301905092915050565b60006171086020840184615176565b905092915050565b6000602082019050919050565b600061712983856170c6565b9350617134826170d7565b8060005b8581101561716d5761714a82846170f9565b61715488826170e1565b975061715f83617110565b925050600181019050617138565b5085925050509392505050565b600060808201905061718f60008301886165ed565b81810360208301526171a281868861711d565b90506171b16040830185616c33565b6171be6060830184616e24565b9695505050505050565b610180820160008201516171df6000850182616618565b5060208201516171f26020850182616618565b5060408201516172056040850182616618565b5060608201516172186060850182616609565b50608082015161722b6080850182616b34565b5060a082015161723e60a08501826167e4565b5060c082015161725160c0850182616627565b5060e082015161726460e0850182616609565b50610100820151617279610100850182616609565b5061012082015161728e610120850182616618565b506101408201516172a3610140850182616636565b506101608201516172b8610160850182616618565b50505050565b6000610200820190506172d460008301886165ed565b6172e160208301876165f4565b6172ee6040830186616602565b6172fb60608301856167dd565b61730860808301846171c8565b9695505050505050565b600082825260208201905092915050565b600061732e826160cb565b6173388185617312565b9350617343836160e7565b8060005b8381101561737457815161735b88826170e1565b97506173668361610f565b925050600181019050617347565b5085935050505092915050565b600081519050919050565b600082825260208201905092915050565b6000819050602082019050919050565b60006173b98383616609565b60208301905092915050565b6000602082019050919050565b60006173dd82617381565b6173e7818561738c565b93506173f28361739d565b8060005b8381101561742357815161740a88826173ad565b9750617415836173c5565b9250506001810190506173f6565b5085935050505092915050565b60006101c0830160008301516174496000860182616618565b50602083015184820360208601526174618282617323565b9150506040830151848203604086015261747b82826173d2565b9150506060830151848203606086015261749582826173d2565b91505060808301516174aa6080860182616618565b5060a083015184820360a08601526174c282826169c7565b91505060c08301516174d760c08601826167e4565b5060e08301516174ea60e0860182616609565b506101008301516174ff610100860182616609565b50610120830151617514610120860182616609565b50610140830151617529610140860182616609565b5061016083015161753e610160860182616618565b50610180830151617553610180860182616636565b506101a08301516175686101a0860182616627565b508091505092915050565b600060a08201905061758860008301886165ed565b61759560208301876165f4565b6175a26040830186616602565b6175af60608301856167dd565b81810360808301526175c18184617430565b90509695505050505050565b6020820160008201516175e36000850182616609565b50505050565b60a0820160008201516175ff60008501826175cd565b5060208201516176126020850182616609565b5060408201516176256040850182616618565b5060608201516176386060850182616618565b50608082015161764b6080850182616636565b50505050565b60006101008201905061766760008301876165ed565b61767460208301866165f4565b6176816040830185616602565b61768e60608301846175e9565b95945050505050565b60008060008060008060c087890312156176b4576176b3615123565b5b60006176c289828a01616bf1565b96505060206176d389828a01616bf1565b95505060406176e489828a01616bf1565b94505060606176f589828a01616bf1565b935050608061770689828a01616bf1565b92505060a061771789828a01616bf1565b9150509295509295509295565b7f436f6e747261637420696e7374616e63652068617320616c726561647920626560008201527f656e20696e697469616c697a6564000000000000000000000000000000000000602082015250565b6000617780602e8361688d565b915061778b82617724565b604082019050919050565b600060208201905081810360008301526177af81617773565b9050919050565b60006060820190506177cb60008301866169a4565b6177d86020830185616c33565b6177e56040830184616c33565b949350505050565b60006060820190506178026000830186616c33565b61780f6020830185616c33565b61781c6040830184616e24565b949350505050565b600061782f8261518b565b915061783a8361518b565b925082820390508181111561785257617851617019565b5b92915050565b7f4e487b7100000000000000000000000000000000000000000000000000000000600052603260045260246000fd5b60006178928261518b565b91507fffffffffffffffffffffffffffffffffffffffffffffffffffffffffffffffff82036178c4576178c3617019565b5b600182019050919050565b60008190508160005260206000209050919050565b60006020601f8301049050919050565b600082821b905092915050565b6000600883026179317fffffffffffffffffffffffffffffffffffffffffffffffffffffffffffffffff826178f4565b61793b86836178f4565b95508019841693508086168417925050509392505050565b600061796e6179696179648461518b565b6153fd565b61518b565b9050919050565b6000819050919050565b61798883617953565b61799c61799482617975565b848454617901565b825550505050565b600090565b6179b16179a4565b6179bc81848461797f565b505050565b5b818110156179e0576179d56000826179a9565b6001810190506179c2565b5050565b601f821115617a25576179f6816178cf565b6179ff846178e4565b81016020851015617a0e578190505b617a22617a1a856178e4565b8301826179c1565b50505b505050565b600082821c905092915050565b6000617a4860001984600802617a2a565b1980831691505092915050565b6000617a618383617a37565b9150826002028217905092915050565b617a7a82615a3b565b67ffffffffffffffff811115617a9357617a926161a1565b5b617a9d8254616ee0565b617aa88282856179e4565b600060209050601f831160018114617adb5760008415617ac9578287015190505b617ad38582617a55565b865550617b3b565b601f198416617ae9866178cf565b60005b82811015617b1157848901518255600182019150602085019450602081019050617aec565b86831015617b2e5784890151617b2a601f891682617a37565b8355505b6001600288020188555050505b505050505050565b61012082016000820151617b5a6000850182616618565b506020820151617b6d6020850182616618565b506040820151617b806040850182616618565b506060820151617b936060850182616609565b506080820151617ba66080850182616609565b5060a0820151617bb960a0850182616609565b5060c0820151617bcc60c0850182616609565b5060e0820151617bdf60e0850182616618565b50610100820151617bf4610100850182616636565b50505050565b60006101a082019050617c1060008301886165ed565b617c1d60208301876165f4565b617c2a6040830186616602565b617c3760608301856165fb565b617c446080830184617b43565b9695505050505050565b600060a082019050617c6360008301886169a4565b617c706020830187616c33565b617c7d6040830186616e24565b617c8a6060830185616e24565b617c976080830184616e24565b9695505050505050565b6000604082019050617cb660008301856165ed565b617cc36020830184616c33565b9392505050565b60008135617cd781615195565b80915050919050565b60008160001b9050919050565b60007fffffffffffffffffffffffffffffffffffffffffffffffffffffffffffffffff617d1984617ce0565b9350801983169250808416831791505092915050565b617d3882617953565b617d4b617d4482617975565b8354617ced565b8255505050565b600081016000830180617d6481617cca565b9050617d708184617d2f565b5050505050565b617d818282617d52565b5050565b6000617d908261518b565b9150617d9b8361518b565b9250828202617da98161518b565b91508282048414831517617dc057617dbf617019565b5b5092915050565b7f4e487b7100000000000000000000000000000000000000000000000000000000600052601260045260246000fd5b6000617e018261518b565b9150617e0c8361518b565b9250828201905080821115617e2457617e23617019565b5b92915050565b6000617e358261518b565b9150617e408361518b565b925082617e5057617e4f617dc7565b5b82820490509291505056fea2646970667358221220b231198b858bb8a328b3011c6c6832332ac7e0fc9f4c7195741b3c053e13c18f64736f6c63430008110033","linkReferences":{"src/onchain_auto/0x3a6d9bf8286a4ada77c15ecf82d4c0c0af95be74/lend-core/contracts/protocol/libraries/logic/BorrowLogic.sol":{"BorrowLogic":[{"start":7123,"length":20},{"start":9819,"length":20},{"start":10139,"length":20},{"start":10546,"length":20},{"start":14806,"length":20},{"start":17778,"length":20}]},"src/onchain_auto/0x3a6d9bf8286a4ada77c15ecf82d4c0c0af95be74/lend-core/contracts/protocol/libraries/logic/BridgeLogic.sol":{"BridgeLogic":[{"start":8818,"length":20},{"start":16749,"length":20}]},"src/onchain_auto/0x3a6d9bf8286a4ada77c15ecf82d4c0c0af95be74/lend-core/contracts/protocol/libraries/logic/EModeLogic.sol":{"EModeLogic":[{"start":4736,"length":20}]},"src/onchain_auto/0x3a6d9bf8286a4ada77c15ecf82d4c0c0af95be74/lend-core/contracts/protocol/libraries/logic/FlashLoanLogic.sol":{"FlashLoanLogic":[{"start":6781,"length":20},{"start":13238,"length":20}]},"src/onchain_auto/0x3a6d9bf8286a4ada77c15ecf82d4c0c0af95be74/lend-core/contracts/protocol/libraries/logic/LiquidationLogic.sol":{"LiquidationLogic":[{"start":2919,"length":20}]},"src/onchain_auto/0x3a6d9bf8286a4ada77c15ecf82d4c0c0af95be74/lend-core/contracts/protocol/libraries/logic/PoolLogic.sol":{"PoolLogic":[{"start":8143,"length":20},{"start":9428,"length":20},{"start":10394,"length":20},{"start":13563,"length":20},{"start":14987,"length":20},{"start":16958,"length":20}]},"src/onchain_auto/0x3a6d9bf8286a4ada77c15ecf82d4c0c0af95be74/lend-core/contracts/protocol/libraries/logic/SupplyLogic.sol":{"SupplyLogic":[{"start":3723,"length":20},{"start":7444,"length":20},{"start":7866,"length":20},{"start":8257,"length":20},{"start":16224,"length":20},{"start":17183,"length":20}]}}},"methodIdentifiers":{"ADDRESSES_PROVIDER()":"0542975c","BRIDGE_PROTOCOL_FEE()":"272d9072","FLASHLOAN_PREMIUM_TOTAL()":"074b2e43","FLASHLOAN_PREMIUM_TO_PROTOCOL()":"6a99c036","MAX_NUMBER_RESERVES()":"f8119d51","MAX_STABLE_RATE_BORROW_SIZE_PERCENT()":"e82fec2f","POOL_REVISION()":"0148170e","backUnbacked(address,uint256,uint256)":"d65dc7a1","borrow(address,uint256,uint256,uint16,address)":"a415bcad","configureEModeCategory(uint8,(uint16,uint16,uint16,address,string))":"d579ea7d","deposit(address,uint256,address,uint16)":"e8eda9df","dropReserve(address)":"63c9b860","finalizeTransfer(address,address,address,uint256,uint256,uint256)":"d5ed3933","flashLoan(address,address[],uint256[],uint256[],address,bytes,uint16)":"ab9c4b5d","flashLoanSimple(address,address,uint256,bytes,uint16)":"42b0b77c","getConfiguration(address)":"c44b11f7","getEModeCategoryData(uint8)":"6c6f6ae1","getFeeToVault()":"231b2840","getFeeToVaultPercent()":"63684562","getReserveAddressById(uint16)":"52751797","getReserveData(address)":"35ea6a75","getReserveNormalizedIncome(address)":"d15e0053","getReserveNormalizedVariableDebt(address)":"386497fd","getReservesList()":"d1946dbc","getUserAccountData(address)":"bf92857c","getUserConfiguration(address)":"4417a583","getUserEMode(address)":"eddf1b79","initReserve(address,address,address,address,address)":"7a708e92","initialize(address)":"c4d66de8","liquidationCall(address,address,address,uint256,bool)":"00a718a9","mintToTreasury(address[])":"9cd19996","mintUnbacked(address,uint256,address,uint16)":"69a933a5","rebalanceStableBorrowRate(address,address)":"cd112382","repay(address,uint256,uint256,address)":"573ade81","repayWithHTokens(address,uint256,uint256)":"8e0276ed","repayWithPermit(address,uint256,uint256,address,uint256,uint8,bytes32,bytes32)":"ee3e210b","rescueTokens(address,address,uint256)":"cea9d26f","resetIsolationModeTotalDebt(address)":"e43e88a1","setConfiguration(address,(uint256))":"f51e435b","setFeeToVault(address)":"e5cf5147","setLendingGauge(address,address)":"a4c123d1","setReserveInterestRateStrategyAddress(address,address)":"1d2118f9","setUserEMode(uint8)":"28530a47","setUserUseReserveAsCollateral(address,bool)":"5a3b74b9","supply(address,uint256,address,uint16)":"617ba037","supplyWithPermit(address,uint256,address,uint16,uint256,uint8,bytes32,bytes32)":"02c205f0","swapBorrowRateMode(address,uint256)":"94ba89a2","updateBridgeProtocolFee(uint256)":"3036b439","updateFeeToVaultPercent(uint256)":"3aa2716b","updateFlashloanPremiums(uint128,uint128)":"bcb6e522","withdraw(address,uint256,address)":"69328dec"},"id":47}