{"abi":[{"type":"function","name":"attack","inputs":[{"name":"debtToken","type":"address","internalType":"contract AttackerDebtToken"},{"name":"profitReceiver","type":"address","internalType":"address"}],"outputs":[],"stateMutability":"nonpayable"},{"type":"function","name":"balanceOf","inputs":[{"name":"","type":"address","internalType":"address"}],"outputs":[{"name":"","type":"uint256","internalType":"uint256"}],"stateMutability":"view"},{"type":"function","name":"decimals","inputs":[],"outputs":[{"name":"","type":"uint8","internalType":"uint8"}],"stateMutability":"pure"},{"type":"function","name":"mint","inputs":[{"name":"","type":"address","internalType":"address"},{"name":"","type":"uint16","internalType":"uint16"},{"name":"","type":"uint8","internalType":"uint8"},{"name":"","type":"tuple","internalType":"struct AttackerCollateralToken.Reserves","components":[{"name":"reserveApes","type":"uint144","internalType":"uint144"},{"name":"reserveLPers","type":"uint144","internalType":"uint144"},{"name":"tickPriceX42","type":"int64","internalType":"int64"}]},{"name":"","type":"uint144","internalType":"uint144"}],"outputs":[{"name":"newReserves","type":"tuple","internalType":"struct AttackerCollateralToken.Reserves","components":[{"name":"reserveApes","type":"uint144","internalType":"uint144"},{"name":"reserveLPers","type":"uint144","internalType":"uint144"},{"name":"tickPriceX42","type":"int64","internalType":"int64"}]},{"name":"fees","type":"tuple","internalType":"struct AttackerCollateralToken.Fees","components":[{"name":"collateralInOrWithdrawn","type":"uint144","internalType":"uint144"},{"name":"collateralFeeToStakers","type":"uint144","internalType":"uint144"},{"name":"collateralFeeToLPers","type":"uint144","internalType":"uint144"}]},{"name":"amount","type":"uint256","internalType":"uint256"}],"stateMutability":"view"},{"type":"function","name":"symbol","inputs":[],"outputs":[{"name":"","type":"string","internalType":"string"}],"stateMutability":"pure"},{"type":"function","name":"transfer","inputs":[{"name":"to","type":"address","internalType":"address"},{"name":"value","type":"uint256","internalType":"uint256"}],"outputs":[{"name":"","type":"bool","internalType":"bool"}],"stateMutability":"nonpayable"},{"type":"function","name":"transferFrom","inputs":[{"name":"","type":"address","internalType":"address"},{"name":"to","type":"address","internalType":"address"},{"name":"value","type":"uint256","internalType":"uint256"}],"outputs":[{"name":"","type":"bool","internalType":"bool"}],"stateMutability":"nonpayable"}],"bytecode":{"object":"0x6080604052348015600e575f5ffd5b50611c148061001c5f395ff3fe608060405234801561000f575f5ffd5b506004361061007b575f3560e01c80636bc601d7116100595780636bc601d7146100e957806370a082311461011b57806395d89b411461014b578063a9059cbb146101695761007b565b806323b872dd1461007f578063313ce567146100af5780633c48664c146100cd575b5f5ffd5b61009960048036038101906100949190610f05565b610199565b6040516100a69190610f6f565b60405180910390f35b6100b76101f7565b6040516100c49190610fa3565b60405180910390f35b6100e760048036038101906100e29190610ff7565b6101ff565b005b61010360048036038101906100fe9190611200565b610776565b60405161011293929190611324565b60405180910390f35b61013560048036038101906101309190611359565b610851565b6040516101429190611384565b60405180910390f35b610153610865565b60405161016091906113fd565b60405180910390f35b610183600480360381019061017e919061141d565b61087b565b6040516101909190610f6f565b60405180910390f35b5f815f5f8573ffffffffffffffffffffffffffffffffffffffff1673ffffffffffffffffffffffffffffffffffffffff1681526020019081526020015f205f8282546101e59190611488565b92505081905550600190509392505050565b5f6012905090565b3073ffffffffffffffffffffffffffffffffffffffff168273ffffffffffffffffffffffffffffffffffffffff161061026d576040517f08c379a000000000000000000000000000000000000000000000000000000000815260040161026490611505565b60405180910390fd5b73c36442b4a4522e871399cd717abdd847ab11fe8873ffffffffffffffffffffffffffffffffffffffff166313ead562833060646c010000000000000000000000006040518563ffffffff1660e01b81526004016102ce949392919061155e565b6020604051808303815f875af11580156102ea573d5f5f3e3d5ffd5b505050506040513d601f19601f8201168201806040525081019061030e91906115b5565b5073c36442b4a4522e871399cd717abdd847ab11fe8873ffffffffffffffffffffffffffffffffffffffff1663883164566040518061016001604052808573ffffffffffffffffffffffffffffffffffffffff1681526020013073ffffffffffffffffffffffffffffffffffffffff168152602001606462ffffff1681526020017ffffffffffffffffffffffffffffffffffffffffffffffffffffffffffffd19d060020b81526020016202e63060020b81526020016d055d8abd7a31c2fbed457af4d52f81526020016d055d8abd7a31c2fbed457af4d52f81526020015f81526020015f81526020013073ffffffffffffffffffffffffffffffffffffffff168152602001428152506040518263ffffffff1660e01b81526004016104349190611707565b6080604051808303815f875af1158015610450573d5f5f3e3d5ffd5b505050506040513d601f19601f82011682018060405250810190610474919061177a565b5050505073e592427a0aece92de3edee1f18e0157c0586156473ffffffffffffffffffffffffffffffffffffffff1663414bf3896040518061010001604052803073ffffffffffffffffffffffffffffffffffffffff1681526020018573ffffffffffffffffffffffffffffffffffffffff168152602001606462ffffff1681526020013073ffffffffffffffffffffffffffffffffffffffff1681526020014281526020016e161ccda12382af0674b6f91000000081526020015f81526020015f73ffffffffffffffffffffffffffffffffffffffff168152506040518263ffffffff1660e01b815260040161056b919061188d565b6020604051808303815f875af1158015610587573d5f5f3e3d5ffd5b505050506040513d601f19601f820116820180604052508101906105ab91906118a7565b505f60405180606001604052808473ffffffffffffffffffffffffffffffffffffffff1681526020013073ffffffffffffffffffffffffffffffffffffffff1681526020015f5f0b815250905073b91ae2c8365fd45030aba84a4666c4db074e53e773ffffffffffffffffffffffffffffffffffffffff16633aa88670826040518263ffffffff1660e01b8152600401610645919061192c565b5f604051808303815f87803b15801561065c575f5ffd5b505af115801561066e573d5f5f3e3d5ffd5b5050505073b91ae2c8365fd45030aba84a4666c4db074e53e773ffffffffffffffffffffffffffffffffffffffff1663cdf3a8376001836e1ae5536855121039aa60ddecf76e6560016040518563ffffffff1660e01b81526004016106d69493929190611987565b6020604051808303815f875af11580156106f2573d5f5f3e3d5ffd5b505050506040513d601f19601f8201168201806040525081019061071691906118a7565b5061073573a0b86991c6218b36c1d19d4a2e9eb0ce3606eb48836108d8565b610753732260fac5e5542a773aa44fbcfedf7c193bc2c599836108d8565b61077173c02aaa39b223fe8d0a0e5c4f27ead9083c756cc2836108d8565b505050565b61077e610dc8565b610786610e11565b5f60405180606001604052806402540be40071ffffffffffffffffffffffffffffffffffff1681526020015f71ffffffffffffffffffffffffffffffffffff1681526020015f60070b815250925060405180606001604052805f71ffffffffffffffffffffffffffffffffffff1681526020015f71ffffffffffffffffffffffffffffffffffff1681526020015f71ffffffffffffffffffffffffffffffffffff1681525091503073ffffffffffffffffffffffffffffffffffffffff169050955095509592505050565b5f602052805f5260405f205f915090505481565b606060405180602001604052805f815250905090565b5f815f5f8573ffffffffffffffffffffffffffffffffffffffff1673ffffffffffffffffffffffffffffffffffffffff1681526020019081526020015f205f8282546108c79190611488565b925050819055506001905092915050565b5f8273ffffffffffffffffffffffffffffffffffffffff166370a0823173b91ae2c8365fd45030aba84a4666c4db074e53e76040518263ffffffff1660e01b815260040161092691906119ca565b602060405180830381865afa158015610941573d5f5f3e3d5ffd5b505050506040513d601f19601f8201168201806040525081019061096591906118a7565b90505f81036109745750610dc4565b6060803073ffffffffffffffffffffffffffffffffffffffff165f1b6040516020016109a1929190611a50565b6040516020818303038152906040529050803073ffffffffffffffffffffffffffffffffffffffff165f1b6040516020016109dd929190611a50565b6040516020818303038152906040529050808473ffffffffffffffffffffffffffffffffffffffff165f1b604051602001610a19929190611a50565b6040516020818303038152906040529050803073ffffffffffffffffffffffffffffffffffffffff165f1b604051602001610a55929190611a50565b6040516020818303038152906040529050805f5f1b604051602001610a7b929190611a50565b6040516020818303038152906040529050805f5f1b604051602001610aa1929190611a50565b6040516020818303038152906040529050805f5f1b604051602001610ac7929190611a50565b6040516020818303038152906040529050805f5f1b604051602001610aed929190611a50565b6040516020818303038152906040529050805f5f1b604051602001610b13929190611a50565b6040516020818303038152906040529050805f5f1b604051602001610b39929190611a50565b6040516020818303038152906040529050805f5f1b604051602001610b5f929190611a50565b6040516020818303038152906040529050805f5f1b604051602001610b85929190611a50565b60405160208183030381529060405290508060015f1b604051602001610bac929190611a50565b60405160208183030381529060405290505f73b91ae2c8365fd45030aba84a4666c4db074e53e773ffffffffffffffffffffffffffffffffffffffff1663fa461e3360e01b5f8585604051602401610c0693929190611b10565b604051602081830303815290604052907bffffffffffffffffffffffffffffffffffffffffffffffffffffffff19166020820180517bffffffffffffffffffffffffffffffffffffffffffffffffffffffff8381831617835250505050604051610c709190611b4c565b5f604051808303815f865af19150503d805f8114610ca9576040519150601f19603f3d011682016040523d82523d5f602084013e610cae565b606091505b5050905080610cbf57505050610dc4565b5f8573ffffffffffffffffffffffffffffffffffffffff166370a08231306040518263ffffffff1660e01b8152600401610cf991906119ca565b602060405180830381865afa158015610d14573d5f5f3e3d5ffd5b505050506040513d601f19601f82011682018060405250810190610d3891906118a7565b90505f811115610dbf578573ffffffffffffffffffffffffffffffffffffffff1663a9059cbb86836040518363ffffffff1660e01b8152600401610d7d929190611b62565b6020604051808303815f875af1158015610d99573d5f5f3e3d5ffd5b505050506040513d601f19601f82011682018060405250810190610dbd9190611bb3565b505b505050505b5050565b60405180606001604052805f71ffffffffffffffffffffffffffffffffffff1681526020015f71ffffffffffffffffffffffffffffffffffff1681526020015f60070b81525090565b60405180606001604052805f71ffffffffffffffffffffffffffffffffffff1681526020015f71ffffffffffffffffffffffffffffffffffff1681526020015f71ffffffffffffffffffffffffffffffffffff1681525090565b5f604051905090565b5f5ffd5b5f73ffffffffffffffffffffffffffffffffffffffff82169050919050565b5f610ea182610e78565b9050919050565b610eb181610e97565b8114610ebb575f5ffd5b50565b5f81359050610ecc81610ea8565b92915050565b5f819050919050565b610ee481610ed2565b8114610eee575f5ffd5b50565b5f81359050610eff81610edb565b92915050565b5f5f5f60608486031215610f1c57610f1b610e74565b5b5f610f2986828701610ebe565b9350506020610f3a86828701610ebe565b9250506040610f4b86828701610ef1565b9150509250925092565b5f8115159050919050565b610f6981610f55565b82525050565b5f602082019050610f825f830184610f60565b92915050565b5f60ff82169050919050565b610f9d81610f88565b82525050565b5f602082019050610fb65f830184610f94565b92915050565b5f610fc682610e97565b9050919050565b610fd681610fbc565b8114610fe0575f5ffd5b50565b5f81359050610ff181610fcd565b92915050565b5f5f6040838503121561100d5761100c610e74565b5b5f61101a85828601610fe3565b925050602061102b85828601610ebe565b9150509250929050565b5f61ffff82169050919050565b61104b81611035565b8114611055575f5ffd5b50565b5f8135905061106681611042565b92915050565b61107581610f88565b811461107f575f5ffd5b50565b5f813590506110908161106c565b92915050565b5f5ffd5b5f601f19601f8301169050919050565b7f4e487b71000000000000000000000000000000000000000000000000000000005f52604160045260245ffd5b6110e08261109a565b810181811067ffffffffffffffff821117156110ff576110fe6110aa565b5b80604052505050565b5f611111610e6b565b905061111d82826110d7565b919050565b5f71ffffffffffffffffffffffffffffffffffff82169050919050565b61114881611122565b8114611152575f5ffd5b50565b5f813590506111638161113f565b92915050565b5f8160070b9050919050565b61117e81611169565b8114611188575f5ffd5b50565b5f8135905061119981611175565b92915050565b5f606082840312156111b4576111b3611096565b5b6111be6060611108565b90505f6111cd84828501611155565b5f8301525060206111e084828501611155565b60208301525060406111f48482850161118b565b60408301525092915050565b5f5f5f5f5f60e0868803121561121957611218610e74565b5b5f61122688828901610ebe565b955050602061123788828901611058565b945050604061124888828901611082565b93505060606112598882890161119f565b92505060c061126a88828901611155565b9150509295509295909350565b61128081611122565b82525050565b61128f81611169565b82525050565b606082015f8201516112a95f850182611277565b5060208201516112bc6020850182611277565b5060408201516112cf6040850182611286565b50505050565b606082015f8201516112e95f850182611277565b5060208201516112fc6020850182611277565b50604082015161130f6040850182611277565b50505050565b61131e81610ed2565b82525050565b5f60e0820190506113375f830186611295565b61134460608301856112d5565b61135160c0830184611315565b949350505050565b5f6020828403121561136e5761136d610e74565b5b5f61137b84828501610ebe565b91505092915050565b5f6020820190506113975f830184611315565b92915050565b5f81519050919050565b5f82825260208201905092915050565b8281835e5f83830152505050565b5f6113cf8261139d565b6113d981856113a7565b93506113e98185602086016113b7565b6113f28161109a565b840191505092915050565b5f6020820190508181035f83015261141581846113c5565b905092915050565b5f5f6040838503121561143357611432610e74565b5b5f61144085828601610ebe565b925050602061145185828601610ef1565b9150509250929050565b7f4e487b71000000000000000000000000000000000000000000000000000000005f52601160045260245ffd5b5f61149282610ed2565b915061149d83610ed2565b92508282019050808211156114b5576114b461145b565b5b92915050565b7f746f6b656e206f72646572696e670000000000000000000000000000000000005f82015250565b5f6114ef600e836113a7565b91506114fa826114bb565b602082019050919050565b5f6020820190508181035f83015261151c816114e3565b9050919050565b61152c81610e97565b82525050565b5f62ffffff82169050919050565b61154981611532565b82525050565b61155881610e78565b82525050565b5f6080820190506115715f830187611523565b61157e6020830186611523565b61158b6040830185611540565b611598606083018461154f565b95945050505050565b5f815190506115af81610ea8565b92915050565b5f602082840312156115ca576115c9610e74565b5b5f6115d7848285016115a1565b91505092915050565b6115e981610e97565b82525050565b6115f881611532565b82525050565b5f8160020b9050919050565b611613816115fe565b82525050565b61162281610ed2565b82525050565b61016082015f82015161163d5f8501826115e0565b50602082015161165060208501826115e0565b50604082015161166360408501826115ef565b506060820151611676606085018261160a565b506080820151611689608085018261160a565b5060a082015161169c60a0850182611619565b5060c08201516116af60c0850182611619565b5060e08201516116c260e0850182611619565b506101008201516116d7610100850182611619565b506101208201516116ec6101208501826115e0565b50610140820151611701610140850182611619565b50505050565b5f6101608201905061171b5f830184611628565b92915050565b5f8151905061172f81610edb565b92915050565b5f6fffffffffffffffffffffffffffffffff82169050919050565b61175981611735565b8114611763575f5ffd5b50565b5f8151905061177481611750565b92915050565b5f5f5f5f6080858703121561179257611791610e74565b5b5f61179f87828801611721565b94505060206117b087828801611766565b93505060406117c187828801611721565b92505060606117d287828801611721565b91505092959194509250565b6117e781610e78565b82525050565b61010082015f8201516118025f8501826115e0565b50602082015161181560208501826115e0565b50604082015161182860408501826115ef565b50606082015161183b60608501826115e0565b50608082015161184e6080850182611619565b5060a082015161186160a0850182611619565b5060c082015161187460c0850182611619565b5060e082015161188760e08501826117de565b50505050565b5f610100820190506118a15f8301846117ed565b92915050565b5f602082840312156118bc576118bb610e74565b5b5f6118c984828501611721565b91505092915050565b5f815f0b9050919050565b6118e6816118d2565b82525050565b606082015f8201516119005f8501826115e0565b50602082015161191360208501826115e0565b50604082015161192660408501826118dd565b50505050565b5f60608201905061193f5f8301846118ec565b92915050565b5f819050919050565b5f819050919050565b5f61197161196c61196784611945565b61194e565b611122565b9050919050565b61198181611957565b82525050565b5f60c08201905061199a5f830187610f60565b6119a760208301866118ec565b6119b46080830185611315565b6119c160a0830184611978565b95945050505050565b5f6020820190506119dd5f830184611523565b92915050565b5f81519050919050565b5f81905092915050565b5f611a01826119e3565b611a0b81856119ed565b9350611a1b8185602086016113b7565b80840191505092915050565b5f819050919050565b5f819050919050565b611a4a611a4582611a27565b611a30565b82525050565b5f611a5b82856119f7565b9150611a678284611a39565b6020820191508190509392505050565b5f819050919050565b5f611a9a611a95611a9084611a77565b61194e565b610f88565b9050919050565b611aaa81611a80565b82525050565b5f819050919050565b611ac281611ab0565b82525050565b5f82825260208201905092915050565b5f611ae2826119e3565b611aec8185611ac8565b9350611afc8185602086016113b7565b611b058161109a565b840191505092915050565b5f606082019050611b235f830186611aa1565b611b306020830185611ab9565b8181036040830152611b428184611ad8565b9050949350505050565b5f611b5782846119f7565b915081905092915050565b5f604082019050611b755f830185611523565b611b826020830184611315565b9392505050565b611b9281610f55565b8114611b9c575f5ffd5b50565b5f81519050611bad81611b89565b92915050565b5f60208284031215611bc857611bc7610e74565b5b5f611bd584828501611b9f565b9150509291505056fea264697066735822122031626419adb26e32ef60cbe9815d38cc7a7b5a9462d84863441e2108aa7d102b64736f6c634300081e0033","linkReferences":{}},"methodIdentifiers":{"attack(address,address)":"3c48664c","balanceOf(address)":"70a08231","decimals()":"313ce567","mint(address,uint16,uint8,(uint144,uint144,int64),uint144)":"6bc601d7","symbol()":"95d89b41","transfer(address,uint256)":"a9059cbb","transferFrom(address,address,uint256)":"23b872dd"},"id":0}