{"abi":[{"type":"function","name":"balanceOf","inputs":[{"name":"","type":"address","internalType":"address"}],"outputs":[{"name":"","type":"uint256","internalType":"uint256"}],"stateMutability":"view"},{"type":"function","name":"decimals","inputs":[],"outputs":[{"name":"","type":"uint8","internalType":"uint8"}],"stateMutability":"pure"},{"type":"function","name":"symbol","inputs":[],"outputs":[{"name":"","type":"string","internalType":"string"}],"stateMutability":"pure"},{"type":"function","name":"transfer","inputs":[{"name":"to","type":"address","internalType":"address"},{"name":"value","type":"uint256","internalType":"uint256"}],"outputs":[{"name":"","type":"bool","internalType":"bool"}],"stateMutability":"nonpayable"},{"type":"function","name":"transferFrom","inputs":[{"name":"","type":"address","internalType":"address"},{"name":"to","type":"address","internalType":"address"},{"name":"value","type":"uint256","internalType":"uint256"}],"outputs":[{"name":"","type":"bool","internalType":"bool"}],"stateMutability":"nonpayable"}],"bytecode":{"object":"0x6080604052348015600e575f5ffd5b506105118061001c5f395ff3fe608060405234801561000f575f5ffd5b5060043610610055575f3560e01c806323b872dd14610059578063313ce5671461008957806370a08231146100a757806395d89b41146100d7578063a9059cbb146100f5575b5f5ffd5b610073600480360381019061006e91906102a3565b610125565b604051610080919061030d565b60405180910390f35b610091610183565b60405161009e9190610341565b60405180910390f35b6100c160048036038101906100bc919061035a565b61018b565b6040516100ce9190610394565b60405180910390f35b6100df61019f565b6040516100ec919061041d565b60405180910390f35b61010f600480360381019061010a919061043d565b6101b5565b60405161011c919061030d565b60405180910390f35b5f815f5f8573ffffffffffffffffffffffffffffffffffffffff1673ffffffffffffffffffffffffffffffffffffffff1681526020019081526020015f205f82825461017191906104a8565b92505081905550600190509392505050565b5f6012905090565b5f602052805f5260405f205f915090505481565b606060405180602001604052805f815250905090565b5f815f5f8573ffffffffffffffffffffffffffffffffffffffff1673ffffffffffffffffffffffffffffffffffffffff1681526020019081526020015f205f82825461020191906104a8565b925050819055506001905092915050565b5f5ffd5b5f73ffffffffffffffffffffffffffffffffffffffff82169050919050565b5f61023f82610216565b9050919050565b61024f81610235565b8114610259575f5ffd5b50565b5f8135905061026a81610246565b92915050565b5f819050919050565b61028281610270565b811461028c575f5ffd5b50565b5f8135905061029d81610279565b92915050565b5f5f5f606084860312156102ba576102b9610212565b5b5f6102c78682870161025c565b93505060206102d88682870161025c565b92505060406102e98682870161028f565b9150509250925092565b5f8115159050919050565b610307816102f3565b82525050565b5f6020820190506103205f8301846102fe565b92915050565b5f60ff82169050919050565b61033b81610326565b82525050565b5f6020820190506103545f830184610332565b92915050565b5f6020828403121561036f5761036e610212565b5b5f61037c8482850161025c565b91505092915050565b61038e81610270565b82525050565b5f6020820190506103a75f830184610385565b92915050565b5f81519050919050565b5f82825260208201905092915050565b8281835e5f83830152505050565b5f601f19601f8301169050919050565b5f6103ef826103ad565b6103f981856103b7565b93506104098185602086016103c7565b610412816103d5565b840191505092915050565b5f6020820190508181035f83015261043581846103e5565b905092915050565b5f5f6040838503121561045357610452610212565b5b5f6104608582860161025c565b92505060206104718582860161028f565b9150509250929050565b7f4e487b71000000000000000000000000000000000000000000000000000000005f52601160045260245ffd5b5f6104b282610270565b91506104bd83610270565b92508282019050808211156104d5576104d461047b565b5b9291505056fea2646970667358221220290b596bf867fc78dd2511b7e7a39abe2ccca890f3eb02afd7e658db338d30b864736f6c634300081e0033","linkReferences":{}},"methodIdentifiers":{"balanceOf(address)":"70a08231","decimals()":"313ce567","symbol()":"95d89b41","transfer(address,uint256)":"a9059cbb","transferFrom(address,address,uint256)":"23b872dd"},"id":0}