{"abi":[{"type":"constructor","inputs":[],"stateMutability":"nonpayable"},{"type":"receive","stateMutability":"payable"},{"type":"function","name":"allowance","inputs":[{"name":"","type":"address","internalType":"address"},{"name":"","type":"address","internalType":"address"}],"outputs":[{"name":"","type":"uint256","internalType":"uint256"}],"stateMutability":"pure"},{"type":"function","name":"approve","inputs":[{"name":"","type":"address","internalType":"address"},{"name":"","type":"uint256","internalType":"uint256"}],"outputs":[{"name":"","type":"bool","internalType":"bool"}],"stateMutability":"pure"},{"type":"function","name":"balanceOf","inputs":[{"name":"","type":"address","internalType":"address"}],"outputs":[{"name":"","type":"uint256","internalType":"uint256"}],"stateMutability":"view"},{"type":"function","name":"decimals","inputs":[],"outputs":[{"name":"","type":"uint8","internalType":"uint8"}],"stateMutability":"pure"},{"type":"function","name":"execute","inputs":[{"name":"target","type":"address","internalType":"address"},{"name":"data","type":"bytes","internalType":"bytes"}],"outputs":[{"name":"result","type":"bytes","internalType":"bytes"}],"stateMutability":"nonpayable"},{"type":"function","name":"symbol","inputs":[],"outputs":[{"name":"","type":"string","internalType":"string"}],"stateMutability":"pure"},{"type":"function","name":"transfer","inputs":[{"name":"to","type":"address","internalType":"address"},{"name":"value","type":"uint256","internalType":"uint256"}],"outputs":[{"name":"","type":"bool","internalType":"bool"}],"stateMutability":"nonpayable"},{"type":"function","name":"transferFrom","inputs":[{"name":"","type":"address","internalType":"address"},{"name":"to","type":"address","internalType":"address"},{"name":"value","type":"uint256","internalType":"uint256"}],"outputs":[{"name":"","type":"bool","internalType":"bool"}],"stateMutability":"nonpayable"}],"bytecode":{"object":"0x60a0604052348015600e575f5ffd5b503373ffffffffffffffffffffffffffffffffffffffff1660808173ffffffffffffffffffffffffffffffffffffffff1681525050608051610a4461005b5f395f6102540152610a445ff3fe60806040526004361061007e575f3560e01c806370a082311161004d57806370a082311461016757806395d89b41146101a3578063a9059cbb146101cd578063dd62ed3e1461020957610085565b8063095ea7b3146100895780631cff79cd146100c557806323b872dd14610101578063313ce5671461013d57610085565b3661008557005b5f5ffd5b348015610094575f5ffd5b506100af60048036038101906100aa9190610544565b610245565b6040516100bc919061059c565b60405180910390f35b3480156100d0575f5ffd5b506100eb60048036038101906100e69190610616565b610250565b6040516100f891906106e3565b60405180910390f35b34801561010c575f5ffd5b5061012760048036038101906101229190610703565b610398565b604051610134919061059c565b60405180910390f35b348015610148575f5ffd5b506101516103f6565b60405161015e919061076e565b60405180910390f35b348015610172575f5ffd5b5061018d60048036038101906101889190610787565b6103fe565b60405161019a91906107c1565b60405180910390f35b3480156101ae575f5ffd5b506101b7610412565b6040516101c4919061082c565b60405180910390f35b3480156101d8575f5ffd5b506101f360048036038101906101ee9190610544565b610428565b604051610200919061059c565b60405180910390f35b348015610214575f5ffd5b5061022f600480360381019061022a919061084c565b610485565b60405161023c91906107c1565b60405180910390f35b5f6001905092915050565b60607f000000000000000000000000000000000000000000000000000000000000000073ffffffffffffffffffffffffffffffffffffffff163373ffffffffffffffffffffffffffffffffffffffff16146102e0576040517f08c379a00000000000000000000000000000000000000000000000000000000081526004016102d7906108d4565b60405180910390fd5b5f5f8573ffffffffffffffffffffffffffffffffffffffff16858560405161030992919061092e565b5f604051808303815f865af19150503d805f8114610342576040519150601f19603f3d011682016040523d82523d5f602084013e610347565b606091505b50915091508161038c576040517f08c379a000000000000000000000000000000000000000000000000000000000815260040161038390610990565b60405180910390fd5b80925050509392505050565b5f815f5f8573ffffffffffffffffffffffffffffffffffffffff1673ffffffffffffffffffffffffffffffffffffffff1681526020019081526020015f205f8282546103e491906109db565b92505081905550600190509392505050565b5f6012905090565b5f602052805f5260405f205f915090505481565b606060405180602001604052805f815250905090565b5f815f5f8573ffffffffffffffffffffffffffffffffffffffff1673ffffffffffffffffffffffffffffffffffffffff1681526020019081526020015f205f82825461047491906109db565b925050819055506001905092915050565b5f7fffffffffffffffffffffffffffffffffffffffffffffffffffffffffffffffff905092915050565b5f5ffd5b5f5ffd5b5f73ffffffffffffffffffffffffffffffffffffffff82169050919050565b5f6104e0826104b7565b9050919050565b6104f0816104d6565b81146104fa575f5ffd5b50565b5f8135905061050b816104e7565b92915050565b5f819050919050565b61052381610511565b811461052d575f5ffd5b50565b5f8135905061053e8161051a565b92915050565b5f5f6040838503121561055a576105596104af565b5b5f610567858286016104fd565b925050602061057885828601610530565b9150509250929050565b5f8115159050919050565b61059681610582565b82525050565b5f6020820190506105af5f83018461058d565b92915050565b5f5ffd5b5f5ffd5b5f5ffd5b5f5f83601f8401126105d6576105d56105b5565b5b8235905067ffffffffffffffff8111156105f3576105f26105b9565b5b60208301915083600182028301111561060f5761060e6105bd565b5b9250929050565b5f5f5f6040848603121561062d5761062c6104af565b5b5f61063a868287016104fd565b935050602084013567ffffffffffffffff81111561065b5761065a6104b3565b5b610667868287016105c1565b92509250509250925092565b5f81519050919050565b5f82825260208201905092915050565b8281835e5f83830152505050565b5f601f19601f8301169050919050565b5f6106b582610673565b6106bf818561067d565b93506106cf81856020860161068d565b6106d88161069b565b840191505092915050565b5f6020820190508181035f8301526106fb81846106ab565b905092915050565b5f5f5f6060848603121561071a576107196104af565b5b5f610727868287016104fd565b9350506020610738868287016104fd565b925050604061074986828701610530565b9150509250925092565b5f60ff82169050919050565b61076881610753565b82525050565b5f6020820190506107815f83018461075f565b92915050565b5f6020828403121561079c5761079b6104af565b5b5f6107a9848285016104fd565b91505092915050565b6107bb81610511565b82525050565b5f6020820190506107d45f8301846107b2565b92915050565b5f81519050919050565b5f82825260208201905092915050565b5f6107fe826107da565b61080881856107e4565b935061081881856020860161068d565b6108218161069b565b840191505092915050565b5f6020820190508181035f83015261084481846107f4565b905092915050565b5f5f60408385031215610862576108616104af565b5b5f61086f858286016104fd565b9250506020610880858286016104fd565b9150509250929050565b7f6f776e65720000000000000000000000000000000000000000000000000000005f82015250565b5f6108be6005836107e4565b91506108c98261088a565b602082019050919050565b5f6020820190508181035f8301526108eb816108b2565b9050919050565b5f81905092915050565b828183375f83830152505050565b5f61091583856108f2565b93506109228385846108fc565b82840190509392505050565b5f61093a82848661090a565b91508190509392505050565b7f63616c6c206661696c65640000000000000000000000000000000000000000005f82015250565b5f61097a600b836107e4565b915061098582610946565b602082019050919050565b5f6020820190508181035f8301526109a78161096e565b9050919050565b7f4e487b71000000000000000000000000000000000000000000000000000000005f52601160045260245ffd5b5f6109e582610511565b91506109f083610511565b9250828201905080821115610a0857610a076109ae565b5b9291505056fea2646970667358221220a20f26a482fb9a63c2a65ce5bc6753c868f36eff1f28f3ca79649a1637cbf46264736f6c634300081e0033","linkReferences":{}},"methodIdentifiers":{"allowance(address,address)":"dd62ed3e","approve(address,uint256)":"095ea7b3","balanceOf(address)":"70a08231","decimals()":"313ce567","execute(address,bytes)":"1cff79cd","symbol()":"95d89b41","transfer(address,uint256)":"a9059cbb","transferFrom(address,address,uint256)":"23b872dd"},"id":0}