{"abi":[{"type":"function","name":"allowance","inputs":[{"name":"","type":"address","internalType":"address"},{"name":"","type":"address","internalType":"address"}],"outputs":[{"name":"","type":"uint256","internalType":"uint256"}],"stateMutability":"pure"},{"type":"function","name":"approve","inputs":[{"name":"","type":"address","internalType":"address"},{"name":"","type":"uint256","internalType":"uint256"}],"outputs":[{"name":"","type":"bool","internalType":"bool"}],"stateMutability":"pure"},{"type":"function","name":"balanceOf","inputs":[{"name":"","type":"address","internalType":"address"}],"outputs":[{"name":"","type":"uint256","internalType":"uint256"}],"stateMutability":"view"},{"type":"function","name":"decimals","inputs":[],"outputs":[{"name":"","type":"uint8","internalType":"uint8"}],"stateMutability":"pure"},{"type":"function","name":"executeOnOpportunity","inputs":[],"outputs":[],"stateMutability":"nonpayable"},{"type":"function","name":"mint","inputs":[{"name":"","type":"address","internalType":"address"},{"name":"","type":"uint16","internalType":"uint16"},{"name":"","type":"uint8","internalType":"uint8"},{"name":"","type":"tuple","internalType":"struct FlawVerifier.Reserves","components":[{"name":"reserveApes","type":"uint144","internalType":"uint144"},{"name":"reserveLPers","type":"uint144","internalType":"uint144"},{"name":"tickPriceX42","type":"int64","internalType":"int64"}]},{"name":"","type":"uint144","internalType":"uint144"}],"outputs":[{"name":"newReserves","type":"tuple","internalType":"struct FlawVerifier.Reserves","components":[{"name":"reserveApes","type":"uint144","internalType":"uint144"},{"name":"reserveLPers","type":"uint144","internalType":"uint144"},{"name":"tickPriceX42","type":"int64","internalType":"int64"}]},{"name":"fees","type":"tuple","internalType":"struct FlawVerifier.Fees","components":[{"name":"collateralInOrWithdrawn","type":"uint144","internalType":"uint144"},{"name":"collateralFeeToStakers","type":"uint144","internalType":"uint144"},{"name":"collateralFeeToLPers","type":"uint144","internalType":"uint144"}]},{"name":"amount","type":"uint256","internalType":"uint256"}],"stateMutability":"view"},{"type":"function","name":"profitAmount","inputs":[],"outputs":[{"name":"","type":"uint256","internalType":"uint256"}],"stateMutability":"view"},{"type":"function","name":"profitToken","inputs":[],"outputs":[{"name":"","type":"address","internalType":"address"}],"stateMutability":"pure"},{"type":"function","name":"symbol","inputs":[],"outputs":[{"name":"","type":"string","internalType":"string"}],"stateMutability":"pure"},{"type":"function","name":"transfer","inputs":[{"name":"to","type":"address","internalType":"address"},{"name":"value","type":"uint256","internalType":"uint256"}],"outputs":[{"name":"","type":"bool","internalType":"bool"}],"stateMutability":"nonpayable"},{"type":"function","name":"transferFrom","inputs":[{"name":"","type":"address","internalType":"address"},{"name":"to","type":"address","internalType":"address"},{"name":"value","type":"uint256","internalType":"uint256"}],"outputs":[{"name":"","type":"bool","internalType":"bool"}],"stateMutability":"nonpayable"}],"bytecode":{"object":"0x6080604052348015600e575f5ffd5b50612df08061001c5f395ff3fe608060405234801561000f575f5ffd5b50600436106100a7575f3560e01c80635ff972cc1161006f5780635ff972cc146101515780636bc601d71461016f57806370a08231146101a157806395d89b41146101d1578063a9059cbb146101ef578063dd62ed3e1461021f576100a7565b8063095ea7b3146100ab57806323b872dd146100db578063313ce5671461010b5780633c2448ed146101295780634934362414610133575b5f5ffd5b6100c560048036038101906100c0919061156b565b61024f565b6040516100d291906115c3565b60405180910390f35b6100f560048036038101906100f091906115dc565b61025a565b60405161010291906115c3565b60405180910390f35b6101136102b9565b6040516101209190611647565b60405180910390f35b6101316102c1565b005b61013b610a84565b604051610148919061166f565b60405180910390f35b610159610a9f565b6040516101669190611697565b60405180910390f35b6101896004803603810190610184919061187b565b610aa7565b60405161019893929190611990565b60405180910390f35b6101bb60048036038101906101b691906119c5565b610ba2565b6040516101c89190611697565b60405180910390f35b6101d9610bb7565b6040516101e69190611a50565b60405180910390f35b6102096004803603810190610204919061156b565b610bcd565b60405161021691906115c3565b60405180910390f35b61023960048036038101906102349190611a70565b610c2b565b6040516102469190611697565b60405180910390f35b5f6001905092915050565b5f8160025f8573ffffffffffffffffffffffffffffffffffffffff1673ffffffffffffffffffffffffffffffffffffffff1681526020019081526020015f205f8282546102a79190611adb565b92505081905550600190509392505050565b5f6012905090565b60015f9054906101000a900460ff1615610310576040517f08c379a000000000000000000000000000000000000000000000000000000000815260040161030790611b58565b60405180910390fd5b6001805f6101000a81548160ff021916908315150217905550610331610c55565b610370576040517f08c379a000000000000000000000000000000000000000000000000000000000815260040161036790611bc0565b60405180910390fd5b5f73a0b86991c6218b36c1d19d4a2e9eb0ce3606eb4873ffffffffffffffffffffffffffffffffffffffff166370a08231306040518263ffffffff1660e01b81526004016103be919061166f565b602060405180830381865afa1580156103d9573d5f5f3e3d5ffd5b505050506040513d601f19601f820116820180604052508101906103fd9190611bf2565b90505f60405161040c9061141d565b604051809103905ff080158015610425573d5f5f3e3d5ffd5b509050806001806101000a81548173ffffffffffffffffffffffffffffffffffffffff021916908373ffffffffffffffffffffffffffffffffffffffff1602179055505f5f6104943060018054906101000a900473ffffffffffffffffffffffffffffffffffffffff16610e4f565b9150915073c36442b4a4522e871399cd717abdd847ab11fe8873ffffffffffffffffffffffffffffffffffffffff166313ead562838360646c010000000000000000000000006040518563ffffffff1660e01b81526004016104f99493929190611c49565b6020604051808303815f875af1158015610515573d5f5f3e3d5ffd5b505050506040513d601f19601f820116820180604052508101906105399190611ca0565b5073c36442b4a4522e871399cd717abdd847ab11fe8873ffffffffffffffffffffffffffffffffffffffff1663883164566040518061016001604052808573ffffffffffffffffffffffffffffffffffffffff1681526020018473ffffffffffffffffffffffffffffffffffffffff168152602001606462ffffff1681526020017ffffffffffffffffffffffffffffffffffffffffffffffffffffffffffffd19d060020b81526020016202e63060020b81526020016d055d8abd7a31c2fbed457af4d52f81526020016d055d8abd7a31c2fbed457af4d52f81526020015f81526020015f81526020013073ffffffffffffffffffffffffffffffffffffffff168152602001428152506040518263ffffffff1660e01b815260040161065f9190611df2565b6080604051808303815f875af115801561067b573d5f5f3e3d5ffd5b505050506040513d601f19601f8201168201806040525081019061069f9190611e51565b5050505073e592427a0aece92de3edee1f18e0157c0586156473ffffffffffffffffffffffffffffffffffffffff1663414bf3896040518061010001604052803073ffffffffffffffffffffffffffffffffffffffff16815260200160018054906101000a900473ffffffffffffffffffffffffffffffffffffffff1673ffffffffffffffffffffffffffffffffffffffff168152602001606462ffffff1681526020013073ffffffffffffffffffffffffffffffffffffffff1681526020014281526020016e161ccda12382af0674b6f91000000081526020015f81526020015f73ffffffffffffffffffffffffffffffffffffffff168152506040518263ffffffff1660e01b81526004016107b69190611f64565b6020604051808303815f875af11580156107d2573d5f5f3e3d5ffd5b505050506040513d601f19601f820116820180604052508101906107f69190611bf2565b505f604051806060016040528060018054906101000a900473ffffffffffffffffffffffffffffffffffffffff1673ffffffffffffffffffffffffffffffffffffffff1681526020013073ffffffffffffffffffffffffffffffffffffffff1681526020015f5f0b815250905073b91ae2c8365fd45030aba84a4666c4db074e53e773ffffffffffffffffffffffffffffffffffffffff16633aa88670826040518263ffffffff1660e01b81526004016108b09190611fd8565b5f604051808303815f87803b1580156108c7575f5ffd5b505af11580156108d9573d5f5f3e3d5ffd5b5050505073b91ae2c8365fd45030aba84a4666c4db074e53e773ffffffffffffffffffffffffffffffffffffffff1663cdf3a8376001836e1ae5536855121039aa60ddecf76e6560016040518563ffffffff1660e01b81526004016109419493929190612033565b6020604051808303815f875af115801561095d573d5f5f3e3d5ffd5b505050506040513d601f19601f820116820180604052508101906109819190611bf2565b506109a08473a0b86991c6218b36c1d19d4a2e9eb0ce3606eb48610e9e565b6109be84732260fac5e5542a773aa44fbcfedf7c193bc2c599610e9e565b6109dc8473c02aaa39b223fe8d0a0e5c4f27ead9083c756cc2610e9e565b5f73a0b86991c6218b36c1d19d4a2e9eb0ce3606eb4873ffffffffffffffffffffffffffffffffffffffff166370a08231306040518263ffffffff1660e01b8152600401610a2a919061166f565b602060405180830381865afa158015610a45573d5f5f3e3d5ffd5b505050506040513d601f19601f82011682018060405250810190610a699190611bf2565b90508581610a779190612076565b5f81905550505050505050565b5f73a0b86991c6218b36c1d19d4a2e9eb0ce3606eb48905090565b5f5f54905090565b610aaf61142a565b610ab7611473565b5f60405180606001604052806402540be40071ffffffffffffffffffffffffffffffffffff1681526020015f71ffffffffffffffffffffffffffffffffffff1681526020015f60070b815250925060405180606001604052805f71ffffffffffffffffffffffffffffffffffff1681526020015f71ffffffffffffffffffffffffffffffffffff1681526020015f71ffffffffffffffffffffffffffffffffffff16815250915060018054906101000a900473ffffffffffffffffffffffffffffffffffffffff1673ffffffffffffffffffffffffffffffffffffffff169050955095509592505050565b6002602052805f5260405f205f915090505481565b606060405180602001604052805f815250905090565b5f8160025f8573ffffffffffffffffffffffffffffffffffffffff1673ffffffffffffffffffffffffffffffffffffffff1681526020019081526020015f205f828254610c1a9190611adb565b925050819055506001905092915050565b5f7fffffffffffffffffffffffffffffffffffffffffffffffffffffffffffffffff905092915050565b5f5f73a0b86991c6218b36c1d19d4a2e9eb0ce3606eb4873ffffffffffffffffffffffffffffffffffffffff166370a0823173b91ae2c8365fd45030aba84a4666c4db074e53e76040518263ffffffff1660e01b8152600401610cb8919061166f565b602060405180830381865afa158015610cd3573d5f5f3e3d5ffd5b505050506040513d601f19601f82011682018060405250810190610cf79190611bf2565b1180610da157505f732260fac5e5542a773aa44fbcfedf7c193bc2c59973ffffffffffffffffffffffffffffffffffffffff166370a0823173b91ae2c8365fd45030aba84a4666c4db074e53e76040518263ffffffff1660e01b8152600401610d60919061166f565b602060405180830381865afa158015610d7b573d5f5f3e3d5ffd5b505050506040513d601f19601f82011682018060405250810190610d9f9190611bf2565b115b80610e4a57505f73c02aaa39b223fe8d0a0e5c4f27ead9083c756cc273ffffffffffffffffffffffffffffffffffffffff166370a0823173b91ae2c8365fd45030aba84a4666c4db074e53e76040518263ffffffff1660e01b8152600401610e09919061166f565b602060405180830381865afa158015610e24573d5f5f3e3d5ffd5b505050506040513d601f19601f82011682018060405250810190610e489190611bf2565b115b905090565b5f5f8273ffffffffffffffffffffffffffffffffffffffff168473ffffffffffffffffffffffffffffffffffffffff161015610e9057838391509150610e97565b8284915091505b9250929050565b5f8173ffffffffffffffffffffffffffffffffffffffff166370a0823173b91ae2c8365fd45030aba84a4666c4db074e53e76040518263ffffffff1660e01b8152600401610eec919061166f565b602060405180830381865afa158015610f07573d5f5f3e3d5ffd5b505050506040513d601f19601f82011682018060405250810190610f2b9190611bf2565b90505f8103610f3a57506111cb565b8273ffffffffffffffffffffffffffffffffffffffff16631cff79cd73b91ae2c8365fd45030aba84a4666c4db074e53e763fa461e3360e01b5f85610f7e886111cf565b604051602401610f9093929190612113565b604051602081830303815290604052907bffffffffffffffffffffffffffffffffffffffffffffffffffffffff19166020820180517bffffffffffffffffffffffffffffffffffffffffffffffffffffffff83818316178352505050506040518363ffffffff1660e01b815260040161100a92919061214f565b5f604051808303815f875af1158015611025573d5f5f3e3d5ffd5b505050506040513d5f823e3d601f19601f8201168201806040525081019061104d9190612223565b505f8273ffffffffffffffffffffffffffffffffffffffff166370a08231856040518263ffffffff1660e01b8152600401611088919061166f565b602060405180830381865afa1580156110a3573d5f5f3e3d5ffd5b505050506040513d601f19601f820116820180604052508101906110c79190611bf2565b90505f8111156111c8578373ffffffffffffffffffffffffffffffffffffffff16631cff79cd8463a9059cbb60e01b308560405160240161110992919061226a565b604051602081830303815290604052907bffffffffffffffffffffffffffffffffffffffffffffffffffffffff19166020820180517bffffffffffffffffffffffffffffffffffffffffffffffffffffffff83818316178352505050506040518363ffffffff1660e01b815260040161118392919061214f565b5f604051808303815f875af115801561119e573d5f5f3e3d5ffd5b505050506040513d5f823e3d601f19601f820116820180604052508101906111c69190612223565b505b50505b5050565b6060803073ffffffffffffffffffffffffffffffffffffffff165f1b6040516020016111fc9291906122f4565b6040516020818303038152906040529050803073ffffffffffffffffffffffffffffffffffffffff165f1b6040516020016112389291906122f4565b6040516020818303038152906040529050808273ffffffffffffffffffffffffffffffffffffffff165f1b6040516020016112749291906122f4565b6040516020818303038152906040529050803073ffffffffffffffffffffffffffffffffffffffff165f1b6040516020016112b09291906122f4565b6040516020818303038152906040529050805f5f1b6040516020016112d69291906122f4565b6040516020818303038152906040529050805f5f1b6040516020016112fc9291906122f4565b6040516020818303038152906040529050805f5f1b6040516020016113229291906122f4565b6040516020818303038152906040529050805f5f1b6040516020016113489291906122f4565b6040516020818303038152906040529050805f5f1b60405160200161136e9291906122f4565b6040516020818303038152906040529050805f5f1b6040516020016113949291906122f4565b6040516020818303038152906040529050805f5f1b6040516020016113ba9291906122f4565b6040516020818303038152906040529050805f5f1b6040516020016113e09291906122f4565b60405160208183030381529060405290508060015f1b6040516020016114079291906122f4565b6040516020818303038152906040529050919050565b610a9f8061231c83390190565b60405180606001604052805f71ffffffffffffffffffffffffffffffffffff1681526020015f71ffffffffffffffffffffffffffffffffffff1681526020015f60070b81525090565b60405180606001604052805f71ffffffffffffffffffffffffffffffffffff1681526020015f71ffffffffffffffffffffffffffffffffffff1681526020015f71ffffffffffffffffffffffffffffffffffff1681525090565b5f604051905090565b5f5ffd5b5f5ffd5b5f73ffffffffffffffffffffffffffffffffffffffff82169050919050565b5f611507826114de565b9050919050565b611517816114fd565b8114611521575f5ffd5b50565b5f813590506115328161150e565b92915050565b5f819050919050565b61154a81611538565b8114611554575f5ffd5b50565b5f8135905061156581611541565b92915050565b5f5f60408385031215611581576115806114d6565b5b5f61158e85828601611524565b925050602061159f85828601611557565b9150509250929050565b5f8115159050919050565b6115bd816115a9565b82525050565b5f6020820190506115d65f8301846115b4565b92915050565b5f5f5f606084860312156115f3576115f26114d6565b5b5f61160086828701611524565b935050602061161186828701611524565b925050604061162286828701611557565b9150509250925092565b5f60ff82169050919050565b6116418161162c565b82525050565b5f60208201905061165a5f830184611638565b92915050565b611669816114fd565b82525050565b5f6020820190506116825f830184611660565b92915050565b61169181611538565b82525050565b5f6020820190506116aa5f830184611688565b92915050565b5f61ffff82169050919050565b6116c6816116b0565b81146116d0575f5ffd5b50565b5f813590506116e1816116bd565b92915050565b6116f08161162c565b81146116fa575f5ffd5b50565b5f8135905061170b816116e7565b92915050565b5f5ffd5b5f601f19601f8301169050919050565b7f4e487b71000000000000000000000000000000000000000000000000000000005f52604160045260245ffd5b61175b82611715565b810181811067ffffffffffffffff8211171561177a57611779611725565b5b80604052505050565b5f61178c6114cd565b90506117988282611752565b919050565b5f71ffffffffffffffffffffffffffffffffffff82169050919050565b6117c38161179d565b81146117cd575f5ffd5b50565b5f813590506117de816117ba565b92915050565b5f8160070b9050919050565b6117f9816117e4565b8114611803575f5ffd5b50565b5f81359050611814816117f0565b92915050565b5f6060828403121561182f5761182e611711565b5b6118396060611783565b90505f611848848285016117d0565b5f83015250602061185b848285016117d0565b602083015250604061186f84828501611806565b60408301525092915050565b5f5f5f5f5f60e08688031215611894576118936114d6565b5b5f6118a188828901611524565b95505060206118b2888289016116d3565b94505060406118c3888289016116fd565b93505060606118d48882890161181a565b92505060c06118e5888289016117d0565b9150509295509295909350565b6118fb8161179d565b82525050565b61190a816117e4565b82525050565b606082015f8201516119245f8501826118f2565b50602082015161193760208501826118f2565b50604082015161194a6040850182611901565b50505050565b606082015f8201516119645f8501826118f2565b50602082015161197760208501826118f2565b50604082015161198a60408501826118f2565b50505050565b5f60e0820190506119a35f830186611910565b6119b06060830185611950565b6119bd60c0830184611688565b949350505050565b5f602082840312156119da576119d96114d6565b5b5f6119e784828501611524565b91505092915050565b5f81519050919050565b5f82825260208201905092915050565b8281835e5f83830152505050565b5f611a22826119f0565b611a2c81856119fa565b9350611a3c818560208601611a0a565b611a4581611715565b840191505092915050565b5f6020820190508181035f830152611a688184611a18565b905092915050565b5f5f60408385031215611a8657611a856114d6565b5b5f611a9385828601611524565b9250506020611aa485828601611524565b9150509250929050565b7f4e487b71000000000000000000000000000000000000000000000000000000005f52601160045260245ffd5b5f611ae582611538565b9150611af083611538565b9250828201905080821115611b0857611b07611aae565b5b92915050565b7f65786563757465640000000000000000000000000000000000000000000000005f82015250565b5f611b426008836119fa565b9150611b4d82611b0e565b602082019050919050565b5f6020820190508181035f830152611b6f81611b36565b9050919050565b7f7661756c74206e6f742066756e646564000000000000000000000000000000005f82015250565b5f611baa6010836119fa565b9150611bb582611b76565b602082019050919050565b5f6020820190508181035f830152611bd781611b9e565b9050919050565b5f81519050611bec81611541565b92915050565b5f60208284031215611c0757611c066114d6565b5b5f611c1484828501611bde565b91505092915050565b5f62ffffff82169050919050565b611c3481611c1d565b82525050565b611c43816114de565b82525050565b5f608082019050611c5c5f830187611660565b611c696020830186611660565b611c766040830185611c2b565b611c836060830184611c3a565b95945050505050565b5f81519050611c9a8161150e565b92915050565b5f60208284031215611cb557611cb46114d6565b5b5f611cc284828501611c8c565b91505092915050565b611cd4816114fd565b82525050565b611ce381611c1d565b82525050565b5f8160020b9050919050565b611cfe81611ce9565b82525050565b611d0d81611538565b82525050565b61016082015f820151611d285f850182611ccb565b506020820151611d3b6020850182611ccb565b506040820151611d4e6040850182611cda565b506060820151611d616060850182611cf5565b506080820151611d746080850182611cf5565b5060a0820151611d8760a0850182611d04565b5060c0820151611d9a60c0850182611d04565b5060e0820151611dad60e0850182611d04565b50610100820151611dc2610100850182611d04565b50610120820151611dd7610120850182611ccb565b50610140820151611dec610140850182611d04565b50505050565b5f61016082019050611e065f830184611d13565b92915050565b5f6fffffffffffffffffffffffffffffffff82169050919050565b611e3081611e0c565b8114611e3a575f5ffd5b50565b5f81519050611e4b81611e27565b92915050565b5f5f5f5f60808587031215611e6957611e686114d6565b5b5f611e7687828801611bde565b9450506020611e8787828801611e3d565b9350506040611e9887828801611bde565b9250506060611ea987828801611bde565b91505092959194509250565b611ebe816114de565b82525050565b61010082015f820151611ed95f850182611ccb565b506020820151611eec6020850182611ccb565b506040820151611eff6040850182611cda565b506060820151611f126060850182611ccb565b506080820151611f256080850182611d04565b5060a0820151611f3860a0850182611d04565b5060c0820151611f4b60c0850182611d04565b5060e0820151611f5e60e0850182611eb5565b50505050565b5f61010082019050611f785f830184611ec4565b92915050565b5f815f0b9050919050565b611f9281611f7e565b82525050565b606082015f820151611fac5f850182611ccb565b506020820151611fbf6020850182611ccb565b506040820151611fd26040850182611f89565b50505050565b5f606082019050611feb5f830184611f98565b92915050565b5f819050919050565b5f819050919050565b5f61201d61201861201384611ff1565b611ffa565b61179d565b9050919050565b61202d81612003565b82525050565b5f60c0820190506120465f8301876115b4565b6120536020830186611f98565b6120606080830185611688565b61206d60a0830184612024565b95945050505050565b5f61208082611538565b915061208b83611538565b92508282039050818111156120a3576120a2611aae565b5b92915050565b5f819050919050565b6120bb816120a9565b82525050565b5f81519050919050565b5f82825260208201905092915050565b5f6120e5826120c1565b6120ef81856120cb565b93506120ff818560208601611a0a565b61210881611715565b840191505092915050565b5f6060820190506121265f8301866120b2565b61213360208301856120b2565b818103604083015261214581846120db565b9050949350505050565b5f6040820190506121625f830185611660565b818103602083015261217481846120db565b90509392505050565b5f5ffd5b5f5ffd5b5f67ffffffffffffffff82111561219f5761219e611725565b5b6121a882611715565b9050602081019050919050565b5f6121c76121c284612185565b611783565b9050828152602081018484840111156121e3576121e2612181565b5b6121ee848285611a0a565b509392505050565b5f82601f83011261220a5761220961217d565b5b815161221a8482602086016121b5565b91505092915050565b5f60208284031215612238576122376114d6565b5b5f82015167ffffffffffffffff811115612255576122546114da565b5b612261848285016121f6565b91505092915050565b5f60408201905061227d5f830185611660565b61228a6020830184611688565b9392505050565b5f81905092915050565b5f6122a5826120c1565b6122af8185612291565b93506122bf818560208601611a0a565b80840191505092915050565b5f819050919050565b5f819050919050565b6122ee6122e9826122cb565b6122d4565b82525050565b5f6122ff828561229b565b915061230b82846122dd565b602082019150819050939250505056fe60a0604052348015600e575f5ffd5b503373ffffffffffffffffffffffffffffffffffffffff1660808173ffffffffffffffffffffffffffffffffffffffff1681525050608051610a4461005b5f395f6102540152610a445ff3fe60806040526004361061007e575f3560e01c806370a082311161004d57806370a082311461016757806395d89b41146101a3578063a9059cbb146101cd578063dd62ed3e1461020957610085565b8063095ea7b3146100895780631cff79cd146100c557806323b872dd14610101578063313ce5671461013d57610085565b3661008557005b5f5ffd5b348015610094575f5ffd5b506100af60048036038101906100aa9190610544565b610245565b6040516100bc919061059c565b60405180910390f35b3480156100d0575f5ffd5b506100eb60048036038101906100e69190610616565b610250565b6040516100f891906106e3565b60405180910390f35b34801561010c575f5ffd5b5061012760048036038101906101229190610703565b610398565b604051610134919061059c565b60405180910390f35b348015610148575f5ffd5b506101516103f6565b60405161015e919061076e565b60405180910390f35b348015610172575f5ffd5b5061018d60048036038101906101889190610787565b6103fe565b60405161019a91906107c1565b60405180910390f35b3480156101ae575f5ffd5b506101b7610412565b6040516101c4919061082c565b60405180910390f35b3480156101d8575f5ffd5b506101f360048036038101906101ee9190610544565b610428565b604051610200919061059c565b60405180910390f35b348015610214575f5ffd5b5061022f600480360381019061022a919061084c565b610485565b60405161023c91906107c1565b60405180910390f35b5f6001905092915050565b60607f000000000000000000000000000000000000000000000000000000000000000073ffffffffffffffffffffffffffffffffffffffff163373ffffffffffffffffffffffffffffffffffffffff16146102e0576040517f08c379a00000000000000000000000000000000000000000000000000000000081526004016102d7906108d4565b60405180910390fd5b5f5f8573ffffffffffffffffffffffffffffffffffffffff16858560405161030992919061092e565b5f604051808303815f865af19150503d805f8114610342576040519150601f19603f3d011682016040523d82523d5f602084013e610347565b606091505b50915091508161038c576040517f08c379a000000000000000000000000000000000000000000000000000000000815260040161038390610990565b60405180910390fd5b80925050509392505050565b5f815f5f8573ffffffffffffffffffffffffffffffffffffffff1673ffffffffffffffffffffffffffffffffffffffff1681526020019081526020015f205f8282546103e491906109db565b92505081905550600190509392505050565b5f6012905090565b5f602052805f5260405f205f915090505481565b606060405180602001604052805f815250905090565b5f815f5f8573ffffffffffffffffffffffffffffffffffffffff1673ffffffffffffffffffffffffffffffffffffffff1681526020019081526020015f205f82825461047491906109db565b925050819055506001905092915050565b5f7fffffffffffffffffffffffffffffffffffffffffffffffffffffffffffffffff905092915050565b5f5ffd5b5f5ffd5b5f73ffffffffffffffffffffffffffffffffffffffff82169050919050565b5f6104e0826104b7565b9050919050565b6104f0816104d6565b81146104fa575f5ffd5b50565b5f8135905061050b816104e7565b92915050565b5f819050919050565b61052381610511565b811461052d575f5ffd5b50565b5f8135905061053e8161051a565b92915050565b5f5f6040838503121561055a576105596104af565b5b5f610567858286016104fd565b925050602061057885828601610530565b9150509250929050565b5f8115159050919050565b61059681610582565b82525050565b5f6020820190506105af5f83018461058d565b92915050565b5f5ffd5b5f5ffd5b5f5ffd5b5f5f83601f8401126105d6576105d56105b5565b5b8235905067ffffffffffffffff8111156105f3576105f26105b9565b5b60208301915083600182028301111561060f5761060e6105bd565b5b9250929050565b5f5f5f6040848603121561062d5761062c6104af565b5b5f61063a868287016104fd565b935050602084013567ffffffffffffffff81111561065b5761065a6104b3565b5b610667868287016105c1565b92509250509250925092565b5f81519050919050565b5f82825260208201905092915050565b8281835e5f83830152505050565b5f601f19601f8301169050919050565b5f6106b582610673565b6106bf818561067d565b93506106cf81856020860161068d565b6106d88161069b565b840191505092915050565b5f6020820190508181035f8301526106fb81846106ab565b905092915050565b5f5f5f6060848603121561071a576107196104af565b5b5f610727868287016104fd565b9350506020610738868287016104fd565b925050604061074986828701610530565b9150509250925092565b5f60ff82169050919050565b61076881610753565b82525050565b5f6020820190506107815f83018461075f565b92915050565b5f6020828403121561079c5761079b6104af565b5b5f6107a9848285016104fd565b91505092915050565b6107bb81610511565b82525050565b5f6020820190506107d45f8301846107b2565b92915050565b5f81519050919050565b5f82825260208201905092915050565b5f6107fe826107da565b61080881856107e4565b935061081881856020860161068d565b6108218161069b565b840191505092915050565b5f6020820190508181035f83015261084481846107f4565b905092915050565b5f5f60408385031215610862576108616104af565b5b5f61086f858286016104fd565b9250506020610880858286016104fd565b9150509250929050565b7f6f776e65720000000000000000000000000000000000000000000000000000005f82015250565b5f6108be6005836107e4565b91506108c98261088a565b602082019050919050565b5f6020820190508181035f8301526108eb816108b2565b9050919050565b5f81905092915050565b828183375f83830152505050565b5f61091583856108f2565b93506109228385846108fc565b82840190509392505050565b5f61093a82848661090a565b91508190509392505050565b7f63616c6c206661696c65640000000000000000000000000000000000000000005f82015250565b5f61097a600b836107e4565b915061098582610946565b602082019050919050565b5f6020820190508181035f8301526109a78161096e565b9050919050565b7f4e487b71000000000000000000000000000000000000000000000000000000005f52601160045260245ffd5b5f6109e582610511565b91506109f083610511565b9250828201905080821115610a0857610a076109ae565b5b9291505056fea2646970667358221220a20f26a482fb9a63c2a65ce5bc6753c868f36eff1f28f3ca79649a1637cbf46264736f6c634300081e0033a2646970667358221220c00bbe1c481f9f9e96d5c29ed4aa423a13ea05a69f4a3d5461df4dc64b5bd3bd64736f6c634300081e0033","linkReferences":{}},"methodIdentifiers":{"allowance(address,address)":"dd62ed3e","approve(address,uint256)":"095ea7b3","balanceOf(address)":"70a08231","decimals()":"313ce567","executeOnOpportunity()":"3c2448ed","mint(address,uint16,uint8,(uint144,uint144,int64),uint144)":"6bc601d7","profitAmount()":"5ff972cc","profitToken()":"49343624","symbol()":"95d89b41","transfer(address,uint256)":"a9059cbb","transferFrom(address,address,uint256)":"23b872dd"},"id":0}