{"abi":[{"type":"constructor","inputs":[],"stateMutability":"nonpayable"},{"type":"receive","stateMutability":"payable"},{"type":"function","name":"FUNDING_PAIR","inputs":[],"outputs":[{"name":"","type":"address","internalType":"contract IUniswapV2PairLike"}],"stateMutability":"view"},{"type":"function","name":"TARGET","inputs":[],"outputs":[{"name":"","type":"address","internalType":"address"}],"stateMutability":"view"},{"type":"function","name":"WETH","inputs":[],"outputs":[{"name":"","type":"address","internalType":"contract IWETH9"}],"stateMutability":"view"},{"type":"function","name":"executeOnOpportunity","inputs":[],"outputs":[],"stateMutability":"nonpayable"},{"type":"function","name":"hypothesisRefuted","inputs":[],"outputs":[{"name":"","type":"bool","internalType":"bool"}],"stateMutability":"view"},{"type":"function","name":"hypothesisValidated","inputs":[],"outputs":[{"name":"","type":"bool","internalType":"bool"}],"stateMutability":"view"},{"type":"function","name":"lastStatus","inputs":[],"outputs":[{"name":"","type":"uint256","internalType":"uint256"}],"stateMutability":"view"},{"type":"function","name":"observedAttackerBalanceLoss","inputs":[],"outputs":[{"name":"","type":"uint256","internalType":"uint256"}],"stateMutability":"view"},{"type":"function","name":"observedBorrowedWeth","inputs":[],"outputs":[{"name":"","type":"uint256","internalType":"uint256"}],"stateMutability":"view"},{"type":"function","name":"observedBoughtTokens","inputs":[],"outputs":[{"name":"","type":"uint256","internalType":"uint256"}],"stateMutability":"view"},{"type":"function","name":"observedFeeWalletEthIncrease","inputs":[],"outputs":[{"name":"","type":"uint256","internalType":"uint256"}],"stateMutability":"view"},{"type":"function","name":"observedMintToContract","inputs":[],"outputs":[{"name":"","type":"uint256","internalType":"uint256"}],"stateMutability":"view"},{"type":"function","name":"observedRepaymentWeth","inputs":[],"outputs":[{"name":"","type":"uint256","internalType":"uint256"}],"stateMutability":"view"},{"type":"function","name":"observedSelfTransferAmount","inputs":[],"outputs":[{"name":"","type":"uint256","internalType":"uint256"}],"stateMutability":"view"},{"type":"function","name":"observedSkimmedFromPair","inputs":[],"outputs":[{"name":"","type":"uint256","internalType":"uint256"}],"stateMutability":"view"},{"type":"function","name":"observedTriggerTransferAmount","inputs":[],"outputs":[{"name":"","type":"uint256","internalType":"uint256"}],"stateMutability":"view"},{"type":"function","name":"profitAmount","inputs":[],"outputs":[{"name":"","type":"uint256","internalType":"uint256"}],"stateMutability":"view"},{"type":"function","name":"profitToken","inputs":[],"outputs":[{"name":"","type":"address","internalType":"address"}],"stateMutability":"view"},{"type":"function","name":"sink","inputs":[],"outputs":[{"name":"","type":"address","internalType":"address"}],"stateMutability":"view"},{"type":"function","name":"uniswapV2Call","inputs":[{"name":"sender","type":"address","internalType":"address"},{"name":"amount0","type":"uint256","internalType":"uint256"},{"name":"amount1","type":"uint256","internalType":"uint256"},{"name":"","type":"bytes","internalType":"bytes"}],"outputs":[],"stateMutability":"nonpayable"}],"bytecode":{"object":"0x60a0806040523460725760588181016001600160401b03811183821017605e578291611aba833903905ff080156053576001600160a01b0316608052604051611a4390816100778239608051816101b80152f35b6040513d5f823e3d90fd5b634e487b7160e01b5f52604160045260245ffd5b5f80fdfe608080604052600436101561001c575b50361561001a575f80fd5b005b5f905f3560e01c90816310d1e85c146103a05750806324a622ce1461038257806327850121146103645780633c2448ed14610348578063463defd11461032657806349343624146102f9578063495f92f1146102d45780635ff972cc146102b6578063850ab30114610298578063885c8b081461027a578063916fb60e1461024b57806399287f851461022d578063ad5c464814610205578063b24e0fb9146101e7578063c74e820e146101a2578063cc1f2afa1461017a578063cef8ff6a1461015c578063d6d867121461013e578063d79ca01d146101205763d8c8417c0361000f573461011d578060031936011261011d576020600554604051908152f35b80fd5b503461011d578060031936011261011d576020600454604051908152f35b503461011d578060031936011261011d576020600154604051908152f35b503461011d578060031936011261011d576020600954604051908152f35b503461011d578060031936011261011d5760206040515f5160206119ee5f395f51905f528152f35b503461011d578060031936011261011d576040517f00000000000000000000000000000000000000000000000000000000000000006001600160a01b03168152602090f35b503461011d578060031936011261011d576020600654604051908152f35b503461011d578060031936011261011d5760206040515f5160206119ce5f395f51905f528152f35b503461011d578060031936011261011d576020600254604051908152f35b503461011d578060031936011261011d57602060405173b4e16d0168e52d35cacd2c6185b44281ec28c9dc8152f35b503461011d578060031936011261011d576020600a54604051908152f35b503461011d578060031936011261011d576020600354604051908152f35b503461011d578060031936011261011d576020600c54604051908152f35b503461011d578060031936011261011d5760ff6020915460081c166040519015158152f35b503461011d578060031936011261011d57600b5460405160089190911c6001600160a01b03168152602090f35b503461011d578060031936011261011d5760ff60209154166040519015158152f35b503461011d578060031936011261011d576103616112b1565b80f35b503461011d578060031936011261011d576020600854604051908152f35b503461011d578060031936011261011d576020600754604051908152f35b905034610a4d576080366003190112610a4d576004356001600160a01b03811690819003610a4d576024359160643567ffffffffffffffff8111610a4d5736602382011215610a4d57806004013567ffffffffffffffff8111610a4d5736910160240111610a4d5773b4e16d0168e52d35cacd2c6185b44281ec28c9dc3303611189575030036111505760ff600b54161561111657604051630b4a282f60e11b81526020816004815f5160206119ee5f395f51905f525afa9081156110b0575f916110f7575b506040516324dead2f60e11b81526001600160a01b0391909116906020816004815f5160206119ee5f395f51905f525afa9081156110b0575f916110d8575b506001600160a01b03169180156110cf575b806008556103e881028181046103e814821517156110bb576103e59004600181018091116110bb57600a555f5160206119ce5f395f51905f523b15610a4d57604051632e1a7d4d60e01b8152600481018290525f81602481835f5160206119ce5f395f51905f525af180156110b05761109b575b50604051849161053c6060836111bd565b6002825260403660208401375f5160206119ce5f395f51905f5261055f83611212565b525f5160206119ee5f395f51905f5261057783611233565b52833b1561108c576105ae918391604051808095819463b6f9de9560e01b8352866004840152608060248401526084830190611243565b3060448301524260648301520391875af1801561109057611077575b50506040516370a0823160e01b81523060048201526020816024815f5160206119ee5f395f51905f525afa908115610986578491611045575b50806009551561101357604051637d1db4a560e01b81526020816004815f5160206119ee5f395f51905f525afa908115610986578491610fe1575b5060405163fd62d67560e01b81526020816004815f5160206119ee5f395f51905f525afa908115610b32578591610fc2575b50604051631051367960e21b8152906001600160a01b0316316020826004815f5160206119ee5f395f51905f525afa8015610af3576106c1928791610957575b506001600160a01b0316319061127f565b9284855b60188110610cad575b5015610c7957845460ff191660011785556040516370a0823160e01b815260048101829052906020826024815f5160206119ee5f395f51905f525afa918215610af3578692610c45575b50803b15610c415760405163bc25cf7760e01b815230600482015286808260248183875af19182610c28575b5050610ba3575b505060405163095ea7b360e01b8152600481018390525f196024820152602081604481885f5160206119ee5f395f51905f525af1610b86575b506040516370a0823160e01b81523060048201526020816024815f5160206119ee5f395f51905f525afa8015610b32578590610b52575b6107c591506115a7565b80610b3d575b506107d4611797565b6040516370a0823160e01b8152306004820152906020826024815f5160206119ce5f395f51905f525afa918215610b32578592610afe575b50600a54809210610a59575b50506040516370a0823160e01b815230600482015290506020816024815f5160206119ce5f395f51905f525afa9081156109b0578391610a23575b50600a548091106109e8576040519063a9059cbb60e01b825273b4e16d0168e52d35cacd2c6185b44281ec28c9dc60048301526024820152602081604481865f5160206119ce5f395f51905f525af180156109b0576109bb575b50600b805460ff1916905560405163fd62d67560e01b81526020816004815f5160206119ee5f395f51905f525afa9081156109b0578391610991575b50604051631051367960e21b8152906001600160a01b0316316020826004815f5160206119ee5f395f51905f525afa80156109865761093992859161095757506001600160a01b0316319061127f565b90808211610945578280f35b61094e9161128c565b6004555f808280f35b610979915060203d60201161097f575b61097181836111bd565b8101906111f3565b5f6106b0565b503d610967565b6040513d86823e3d90fd5b6109aa915060203d60201161097f5761097181836111bd565b5f6108e9565b6040513d85823e3d90fd5b6109dc9060203d6020116109e1575b6109d481836111bd565b810190611299565b6108ad565b503d6109ca565b60405162461bcd60e51b81526020600482015260136024820152721c995c185e5b595b9d081cda1bdc9d19985b1b606a1b6044820152606490fd5b90506020813d602011610a51575b81610a3e602093836111bd565b81010312610a4d57515f610853565b5f80fd5b3d9150610a31565b6040516370a0823160e01b81523060048201526020816024815f5160206119ee5f395f51905f525afa8015610af3578690610abf575b610a9991506115d0565b80610aa5575b50610818565b610aae936115e7565b610ab6611797565b5f808080610a9f565b506020813d602011610aeb575b81610ad9602093836111bd565b81010312610a4d57610a999051610a8f565b3d9150610acc565b6040513d88823e3d90fd5b9091506020813d602011610b2a575b81610b1a602093836111bd565b81010312610a4d5751905f61080c565b3d9150610b0d565b6040513d87823e3d90fd5b610b4c9082600a5491856115e7565b5f6107cb565b506020813d602011610b7e575b81610b6c602093836111bd565b81010312610a4d576107c590516107bb565b3d9150610b5f565b610b9e9060203d6020116109e1576109d481836111bd565b610784565b604051906370a0823160e01b825260048201526020816024815f5160206119ee5f395f51905f525afa908115610af3578691610bf6575b508082111561074b57610bec9161128c565b6007555f8061074b565b90506020813d602011610c20575b81610c11602093836111bd565b81010312610a4d57515f610bda565b3d9150610c04565b81610c32916111bd565b610c3d57865f610744565b8680fd5b8580fd5b9091506020813d602011610c71575b81610c61602093836111bd565b81010312610a4d5751905f610718565b3d9150610c54565b60405162461bcd60e51b815260206004820152600c60248201526b1b9bc81d19585b481b5a5b9d60a21b6044820152606490fd5b6040516370a0823160e01b815230600482015291906020836024815f5160206119ee5f395f51905f525afa928315610fb7578893610f84575b506001831115610f7d57604051926370a0823160e01b84525f5160206119ee5f395f51905f5260048501526020846024815f5160206119ee5f395f51905f525afa938415610f72578994610f3f575b50610d40868261198e565b8015610f3657806005556040519063a9059cbb60e01b825230600483015260248201526020816044818d5f5160206119ee5f395f51905f525af18a9181610f16575b50610d9057505050906106ce565b15610f0e57604051906370a0823160e01b82525f5160206119ee5f395f51905f5260048301526020826024815f5160206119ee5f395f51905f525afa918215610f03578a92610ed0575b506040516370a0823160e01b8152306004820152906020826024815f5160206119ee5f395f51905f525afa918215610ec5578b92610e92575b50858311610e64575b6611c37937e0800093949550818111610e45575b50501015610e40576001016106c5565b6106ce565b610e5a91610e529161128c565b60035461127f565b6003555f80610e30565b6611c37937e08000939450610e86610e7e6001978561128c565b60025461127f565b60025585949350610e1c565b9091506020813d8211610ebd575b81610ead602093836111bd565b81010312610a4d5751905f610e13565b3d9150610ea0565b6040513d8d823e3d90fd5b9091506020813d8211610efb575b81610eeb602093836111bd565b81010312610a4d5751905f610dda565b3d9150610ede565b6040513d8c823e3d90fd5b5050906106ce565b610f2f91925060203d81116109e1576109d481836111bd565b905f610d82565b505050906106ce565b9093506020813d8211610f6a575b81610f5a602093836111bd565b81010312610a4d5751925f610d35565b3d9150610f4d565b6040513d8b823e3d90fd5b50906106ce565b9092506020813d8211610faf575b81610f9f602093836111bd565b81010312610a4d5751915f610ce6565b3d9150610f92565b6040513d8a823e3d90fd5b610fdb915060203d60201161097f5761097181836111bd565b5f610670565b90506020813d60201161100b575b81610ffc602093836111bd565b81010312610a4d57515f61063e565b3d9150610fef565b60405162461bcd60e51b815260206004820152600a602482015269189d5e4819985a5b195960b21b6044820152606490fd5b90506020813d60201161106f575b81611060602093836111bd565b81010312610a4d57515f610603565b3d9150611053565b81611081916111bd565b61108c57825f6105ca565b8280fd5b6040513d84823e3d90fd5b6110a89194505f906111bd565b5f925f61052b565b6040513d5f823e3d90fd5b634e487b7160e01b5f52601160045260245ffd5b506044356104b7565b6110f1915060203d60201161097f5761097181836111bd565b5f6104a5565b611110915060203d60201161097f5761097181836111bd565b5f610466565b60405162461bcd60e51b81526020600482015260126024820152710696e61637469766520666c617368737761760741b6044820152606490fd5b60405162461bcd60e51b81526020600482015260116024820152703ab732bc3832b1ba32b21039b2b73232b960791b6044820152606490fd5b62461bcd60e51b815260206004820152600f60248201526e3ab732bc3832b1ba32b2103830b4b960891b6044820152606490fd5b90601f8019910116810190811067ffffffffffffffff8211176111df57604052565b634e487b7160e01b5f52604160045260245ffd5b90816020910312610a4d57516001600160a01b0381168103610a4d5790565b80511561121f5760200190565b634e487b7160e01b5f52603260045260245ffd5b80516001101561121f5760400190565b90602080835192838152019201905f5b8181106112605750505090565b82516001600160a01b0316845260209384019390920191600101611253565b919082018092116110bb57565b919082039182116110bb57565b90816020910312610a4d57518015158103610a4d5790565b5f61ffff195f5416805f555f6001555f6002555f6003555f6004555f6005555f6006555f6007555f6008555f6009555f600a55600b5490610100600160a81b03198216600b555f600c55604051634ada218b60e01b81526020816004815f5160206119ee5f395f51905f525afa9081156110b0575f91611588575b501561157a575060405163a985ceef60e01b81526020816004815f5160206119ee5f395f51905f525afa9081156110b0575f9161155b575b50611545576001600160a81b031916600117600b55604051630dfe168160e01b815260208160048173b4e16d0168e52d35cacd2c6185b44281ec28c9dc5afa80156110b0575f5160206119ce5f395f51905f52915f91611526575b506001600160a01b03160361152057662386f26fc100005b8061151957662386f26fc10000905b6040519160208301600160f81b8152600184526114046021856111bd565b73b4e16d0168e52d35cacd2c6185b44281ec28c9dc3b15610a4d575f9260a491604051958694859363022c0d9f60e01b855260048501526024840152306044840152608060648401525180918160848501528484015e8181018301859052601f01601f191681010301818373b4e16d0168e52d35cacd2c6185b44281ec28c9dc5af19081611504575b506114b857600b805460ff191690556003600155805461ff0019166101001790556114b66117f0565b565b600b5460ff81166114e357506114cc6117f0565b50600c54156114dc576006600155565b6005600155565b60ff1916600b556003600155805461ff0019166101001790556114b66117f0565b6115119192505f906111bd565b5f905f61148d565b5f906113e6565b5f6113d7565b61153f915060203d60201161097f5761097181836111bd565b5f6113bf565b5050600260015561010061ff00195f5416175f55565b611574915060203d6020116109e1576109d481836111bd565b5f611364565b60018055610100175f555050565b6115a1915060203d6020116109e1576109d481836111bd565b5f61132c565b66038d7ea4c680018111156115cb5766038d7ea4c67fff1981019081116110bb5790565b505f90565b60028111156115cb575f1981019081116110bb5790565b9093929192604051946115fb6060876111bd565b6002865260403660208801375f5160206119ee5f395f51905f5261161e87611212565b525f5160206119ce5f395f51905f5261163687611233565b525b6040516370a0823160e01b81523060048201526020816024815f5160206119ce5f395f51905f525afa80156110b05785915f91611761575b5061167c90479061127f565b1080611757575b1561174f578085151580611746575b61173f575b6001811115611736576006541561172d575b6001600160a01b03841691823b15610a4d5760405163791ac94760e01b8152600481018390525f6024820181905260a06044830152909384908183816116f260a482018f611243565b30606483015242608483015203925af19283156110b0576117189361171d575b5061128c565b611638565b5f611727916111bd565b5f611712565b806006556116a9565b50509350505050565b5084611697565b50858211611692565b509350505050565b5060018111611683565b9150506020813d821161178f575b8161177c602093836111bd565b81010312610a4d5751849061167c611670565b3d915061176f565b47806117a05750565b5f5160206119ce5f395f51905f523b15610a4d575f60049160405192838092630d0e30db60e41b82525f5160206119ce5f395f51905f525af180156110b0576117e65750565b5f6114b6916111bd565b6040516370a0823160e01b81523060048201526020816024815f5160206119ce5f395f51905f525afa9081156110b0575f9161195c575b506040516370a0823160e01b81523060048201526020816024815f5160206119ee5f395f51905f525afa9081156110b0575f9161192a575b5066038d7ea4c680008210156118fc5766038d7ea4c680008110156118ce57806118ce5750806118a15750600b8054610100600160a81b03191690555f600c55565b600b8054610100600160a81b03191674c02aaa39b223fe8d0a0e5c4f27ead9083c756cc200179055600c55565b600b8054610100600160a81b031916742d0e64b6bf13660a4c0de42a0b88144a7c10991f00179055600c5550565b50600b8054610100600160a81b03191674c02aaa39b223fe8d0a0e5c4f27ead9083c756cc200179055600c55565b90506020813d602011611954575b81611945602093836111bd565b81010312610a4d57515f61185f565b3d9150611938565b90506020813d602011611986575b81611977602093836111bd565b81010312610a4d57515f611827565b3d915061196a565b9060018211156119c7575f1982019182116110bb578015158183826119bd575b50506119b8575090565b905090565b119050815f6119ae565b50505f9056fe000000000000000000000000c02aaa39b223fe8d0a0e5c4f27ead9083c756cc20000000000000000000000002d0e64b6bf13660a4c0de42a0b88144a7c10991fa2646970667358221220a642602d5a2f93ce295aba94db2a56d6765d9852085cdb6a33dc5c26c15c3b4864736f6c634300081e0033608080604052346013576040908160188239f35b5f80fdfe36156008575f80fd5b00fea26469706673582212209c9ea17c225c2d00ee66f7bcf1cf635bddda674ebd863b9b832a80fccd24912b64736f6c634300081e0033","linkReferences":{}},"methodIdentifiers":{"FUNDING_PAIR()":"916fb60e","TARGET()":"cc1f2afa","WETH()":"ad5c4648","executeOnOpportunity()":"3c2448ed","hypothesisRefuted()":"495f92f1","hypothesisValidated()":"463defd1","lastStatus()":"d6d86712","observedAttackerBalanceLoss()":"850ab301","observedBorrowedWeth()":"27850121","observedBoughtTokens()":"cef8ff6a","observedFeeWalletEthIncrease()":"d79ca01d","observedMintToContract()":"99287f85","observedRepaymentWeth()":"885c8b08","observedSelfTransferAmount()":"d8c8417c","observedSkimmedFromPair()":"24a622ce","observedTriggerTransferAmount()":"b24e0fb9","profitAmount()":"5ff972cc","profitToken()":"49343624","sink()":"c74e820e","uniswapV2Call(address,uint256,uint256,bytes)":"10d1e85c"},"id":0}