{"abi":[{"type":"constructor","inputs":[],"stateMutability":"nonpayable"},{"type":"function","name":"TARGET_SILO","inputs":[],"outputs":[{"name":"","type":"address","internalType":"address"}],"stateMutability":"view"},{"type":"function","name":"attemptDirectCollateralRoute","inputs":[{"name":"collateralAsset","type":"address","internalType":"address"},{"name":"borrowAsset","type":"address","internalType":"address"},{"name":"depositAmount","type":"uint256","internalType":"uint256"}],"outputs":[{"name":"realizedProfit","type":"uint256","internalType":"uint256"}],"stateMutability":"nonpayable"},{"type":"function","name":"attemptFlashCollateralRoute","inputs":[{"name":"collateralAsset","type":"address","internalType":"address"},{"name":"borrowAsset","type":"address","internalType":"address"},{"name":"flashPair","type":"address","internalType":"address"},{"name":"topUpPair","type":"address","internalType":"address"},{"name":"flashAmount","type":"uint256","internalType":"uint256"}],"outputs":[{"name":"","type":"bool","internalType":"bool"}],"stateMutability":"nonpayable"},{"type":"function","name":"chosenBorrowAsset","inputs":[],"outputs":[{"name":"","type":"address","internalType":"address"}],"stateMutability":"view"},{"type":"function","name":"chosenCollateralAsset","inputs":[],"outputs":[{"name":"","type":"address","internalType":"address"}],"stateMutability":"view"},{"type":"function","name":"executeOnOpportunity","inputs":[],"outputs":[],"stateMutability":"nonpayable"},{"type":"function","name":"helper","inputs":[],"outputs":[{"name":"","type":"address","internalType":"contract WithdrawalHelper"}],"stateMutability":"view"},{"type":"function","name":"lastFailureTag","inputs":[],"outputs":[{"name":"","type":"bytes32","internalType":"bytes32"}],"stateMutability":"view"},{"type":"function","name":"outcome","inputs":[],"outputs":[{"name":"","type":"uint8","internalType":"enum FlawVerifier.Outcome"}],"stateMutability":"view"},{"type":"function","name":"profitAmount","inputs":[],"outputs":[{"name":"","type":"uint256","internalType":"uint256"}],"stateMutability":"view"},{"type":"function","name":"profitToken","inputs":[],"outputs":[{"name":"","type":"address","internalType":"address"}],"stateMutability":"view"},{"type":"function","name":"uniswapV2Call","inputs":[{"name":"sender","type":"address","internalType":"address"},{"name":"amount0","type":"uint256","internalType":"uint256"},{"name":"amount1","type":"uint256","internalType":"uint256"},{"name":"","type":"bytes","internalType":"bytes"}],"outputs":[],"stateMutability":"nonpayable"},{"type":"error","name":"FlashPairRepaymentFailed","inputs":[]},{"type":"error","name":"InvalidFlashCallback","inputs":[]},{"type":"error","name":"TransferStageFailed","inputs":[]},{"type":"error","name":"WithdrawStageFailed","inputs":[]}],"bytecode":{"object":"0x60a060405234801561000f575f5ffd5b503060405161001d90610079565b61002791906100c5565b604051809103905ff080158015610040573d5f5f3e3d5ffd5b5073ffffffffffffffffffffffffffffffffffffffff1660808173ffffffffffffffffffffffffffffffffffffffff16815250506100de565b6109a9806158d783390190565b5f73ffffffffffffffffffffffffffffffffffffffff82169050919050565b5f6100af82610086565b9050919050565b6100bf816100a5565b82525050565b5f6020820190506100d85f8301846100b6565b92915050565b6080516157cc61010b5f395f8181610bed01528181611bea01528181611c480152611d1c01526157cc5ff3fe608060405234801561000f575f5ffd5b50600436106100b2575f3560e01c80635ff972cc1161006f5780635ff972cc14610166578063610a29d91461018457806363b0e66a146101b4578063868639d2146101d2578063d1a5de87146101f0578063f288750d1461020e576100b2565b806310d1e85c146100b657806327793f87146100d25780633c2448ed146100f057806349343624146100fa5780634d43736a146101185780635cf9cfe914610136575b5f5ffd5b6100d060048036038101906100cb9190614492565b61022c565b005b6100da6106d7565b6040516100e79190614589565b60405180910390f35b6100f86106e9565b005b61010261075b565b60405161010f91906145b1565b60405180910390f35b610120610782565b60405161012d91906145b1565b60405180910390f35b610150600480360381019061014b91906145ca565b6107a7565b60405161015d9190614629565b60405180910390f35b61016e610b55565b60405161017b9190614629565b60405180910390f35b61019e60048036038101906101999190614642565b610b5e565b6040516101ab91906146d3565b60405180910390f35b6101bc610beb565b6040516101c99190614747565b60405180910390f35b6101da610c0f565b6040516101e791906145b1565b60405180910390f35b6101f8610c34565b60405161020591906145b1565b60405180910390f35b610216610c4c565b6040516102239190614778565b60405180910390f35b5f60066040518060e00160405290815f82015f9054906101000a900473ffffffffffffffffffffffffffffffffffffffff1673ffffffffffffffffffffffffffffffffffffffff1673ffffffffffffffffffffffffffffffffffffffff168152602001600182015f9054906101000a900473ffffffffffffffffffffffffffffffffffffffff1673ffffffffffffffffffffffffffffffffffffffff1673ffffffffffffffffffffffffffffffffffffffff168152602001600282015f9054906101000a900473ffffffffffffffffffffffffffffffffffffffff1673ffffffffffffffffffffffffffffffffffffffff1673ffffffffffffffffffffffffffffffffffffffff168152602001600382015f9054906101000a900473ffffffffffffffffffffffffffffffffffffffff1673ffffffffffffffffffffffffffffffffffffffff1673ffffffffffffffffffffffffffffffffffffffff1681526020016004820154815260200160058201548152602001600682015f9054906101000a900460ff16151515158152505090508060c0015115806103fe5750806040015173ffffffffffffffffffffffffffffffffffffffff163373ffffffffffffffffffffffffffffffffffffffff1614155b8061043557503073ffffffffffffffffffffffffffffffffffffffff168673ffffffffffffffffffffffffffffffffffffffff1614155b8061044a57505f8514801561044957505f84145b5b15610481576040517f598cd95900000000000000000000000000000000000000000000000000000000815260040160405180910390fd5b5f816040015190505f825f015190505f8173ffffffffffffffffffffffffffffffffffffffff168373ffffffffffffffffffffffffffffffffffffffff16630dfe16816040518163ffffffff1660e01b8152600401602060405180830381865afa1580156104f1573d5f5f3e3d5ffd5b505050506040513d601f19601f8201168201806040525081019061051591906147a5565b73ffffffffffffffffffffffffffffffffffffffff160361057a578790505f8714610575576040517f08c379a000000000000000000000000000000000000000000000000000000000815260040161056c9061482a565b60405180910390fd5b6105c0565b8690505f88146105bf576040517f08c379a00000000000000000000000000000000000000000000000000000000081526004016105b690614892565b60405180910390fd5b5b83608001518114610606576040517f08c379a00000000000000000000000000000000000000000000000000000000081526004016105fd906148fa565b60405180910390fd5b61060f84610c52565b60065f5f82015f6101000a81549073ffffffffffffffffffffffffffffffffffffffff0219169055600182015f6101000a81549073ffffffffffffffffffffffffffffffffffffffff0219169055600282015f6101000a81549073ffffffffffffffffffffffffffffffffffffffff0219169055600382015f6101000a81549073ffffffffffffffffffffffffffffffffffffffff0219169055600482015f9055600582015f9055600682015f6101000a81549060ff02191690555050505050505050505050565b60025f9054906101000a900460ff1681565b5f60015403610759576106fa61104f565b610702611127565b6107595761070e6114f4565b61075957600560159054906101000a900460ff1661072d576003610730565b60025b60025f6101000a81548160ff0219169083600381111561075357610752614516565b5b02179055505b565b5f5f5f9054906101000a900473ffffffffffffffffffffffffffffffffffffffff16905090565b60045f9054906101000a900473ffffffffffffffffffffffffffffffffffffffff1681565b5f3073ffffffffffffffffffffffffffffffffffffffff163373ffffffffffffffffffffffffffffffffffffffff1614610816576040517f08c379a000000000000000000000000000000000000000000000000000000000815260040161080d90614962565b60405180910390fd5b5f8373ffffffffffffffffffffffffffffffffffffffff166370a08231306040518263ffffffff1660e01b815260040161085091906145b1565b602060405180830381865afa15801561086b573d5f5f3e3d5ffd5b505050506040513d601f19601f8201168201806040525081019061088f9190614994565b90506108b08573cb3b879ab11f825885d5add8bf3672596d35197c8561191e565b5f73cb3b879ab11f825885d5add8bf3672596d35197c73ffffffffffffffffffffffffffffffffffffffff16633edd112887865f6040518463ffffffff1660e01b8152600401610902939291906149bf565b60408051808303815f875af115801561091d573d5f5f3e3d5ffd5b505050506040513d601f19601f8201168201806040525081019061094191906149f4565b9150505f8103610986576040517f08c379a000000000000000000000000000000000000000000000000000000000815260040161097d90614a7c565b60405180910390fd5b5f610992878787611939565b90505f81036109d6576040517f08c379a00000000000000000000000000000000000000000000000000000000081526004016109cd90614ae4565b60405180910390fd5b73cb3b879ab11f825885d5add8bf3672596d35197c73ffffffffffffffffffffffffffffffffffffffff16634b8a352987836040518363ffffffff1660e01b8152600401610a25929190614b02565b60408051808303815f875af1158015610a40573d5f5f3e3d5ffd5b505050506040513d601f19601f82011682018060405250810190610a6491906149f4565b5050610a708783611b52565b610a7987611d1a565b828673ffffffffffffffffffffffffffffffffffffffff166370a08231306040518263ffffffff1660e01b8152600401610ab391906145b1565b602060405180830381865afa158015610ace573d5f5f3e3d5ffd5b505050506040513d601f19601f82011682018060405250810190610af29190614994565b610afc9190614b56565b93505f8403610b40576040517f08c379a0000000000000000000000000000000000000000000000000000000008152600401610b3790614bd3565b60405180910390fd5b610b4b878786611dfe565b5050509392505050565b5f600154905090565b5f3073ffffffffffffffffffffffffffffffffffffffff163373ffffffffffffffffffffffffffffffffffffffff1614610bcd576040517f08c379a0000000000000000000000000000000000000000000000000000000008152600401610bc490614962565b60405180910390fd5b610bda8686868686611ef3565b5f6001541415905095945050505050565b7f000000000000000000000000000000000000000000000000000000000000000081565b60055f9054906101000a900473ffffffffffffffffffffffffffffffffffffffff1681565b73cb3b879ab11f825885d5add8bf3672596d35197c81565b60035481565b610c78815f015173cb3b879ab11f825885d5add8bf3672596d35197c836080015161191e565b5f73cb3b879ab11f825885d5add8bf3672596d35197c73ffffffffffffffffffffffffffffffffffffffff16633edd1128835f015184608001515f6040518463ffffffff1660e01b8152600401610cd1939291906149bf565b60408051808303815f875af1158015610cec573d5f5f3e3d5ffd5b505050506040513d601f19601f82011682018060405250810190610d1091906149f4565b9150505f8103610d55576040517f08c379a0000000000000000000000000000000000000000000000000000000008152600401610d4c90614c3b565b60405180910390fd5b5f610d6c835f015184602001518560800151611939565b90505f8103610db0576040517f08c379a0000000000000000000000000000000000000000000000000000000008152600401610da790614ca3565b60405180910390fd5b73cb3b879ab11f825885d5add8bf3672596d35197c73ffffffffffffffffffffffffffffffffffffffff16634b8a35298460200151836040518363ffffffff1660e01b8152600401610e03929190614b02565b60408051808303815f875af1158015610e1e573d5f5f3e3d5ffd5b505050506040513d601f19601f82011682018060405250810190610e4291906149f4565b5050610e51835f015183611b52565b610e5d835f0151611d1a565b5f610e6b84608001516122cb565b90505f846080015182610e7e9190614b56565b90505f8114610e9f57610e9e85606001518660200151875f0151846122fb565b5b81855f015173ffffffffffffffffffffffffffffffffffffffff166370a08231306040518263ffffffff1660e01b8152600401610edc91906145b1565b602060405180830381865afa158015610ef7573d5f5f3e3d5ffd5b505050506040513d601f19601f82011682018060405250810190610f1b9190614994565b1015610f53576040517f4230b59700000000000000000000000000000000000000000000000000000000815260040160405180910390fd5b610f65855f01518660400151846124d9565b5f8560a00151866020015173ffffffffffffffffffffffffffffffffffffffff166370a08231306040518263ffffffff1660e01b8152600401610fa891906145b1565b602060405180830381865afa158015610fc3573d5f5f3e3d5ffd5b505050506040513d601f19601f82011682018060405250810190610fe79190614994565b610ff19190614b56565b90505f8103611035576040517f08c379a000000000000000000000000000000000000000000000000000000000815260040161102c90614d0b565b60405180910390fd5b611047865f0151876020015183611dfe565b505050505050565b73cb3b879ab11f825885d5add8bf3672596d35197c73ffffffffffffffffffffffffffffffffffffffff1663a1dfa4236040518163ffffffff1660e01b81526004015f604051808303815f87803b1580156110a8575f5ffd5b505af19250505080156110b9575060015b5073cb3b879ab11f825885d5add8bf3672596d35197c73ffffffffffffffffffffffffffffffffffffffff1663a388991b6040518163ffffffff1660e01b81526004015f604051808303815f87803b158015611113575f5ffd5b505af1925050508015611124575060015b50565b5f5f73cb3b879ab11f825885d5add8bf3672596d35197c73ffffffffffffffffffffffffffffffffffffffff166367e4ac2c6040518163ffffffff1660e01b81526004015f60405180830381865afa158015611185573d5f5f3e3d5ffd5b505050506040513d5f823e3d601f19601f820116820180604052508101906111ad9190614e71565b90505f5f5f90505b825181101561145a575f8382815181106111d2576111d1614eb8565b5b602002602001015190506111e581612528565b6111ef575061144d565b5f8173ffffffffffffffffffffffffffffffffffffffff166370a08231306040518263ffffffff1660e01b815260040161122991906145b1565b602060405180830381865afa158015611244573d5f5f3e3d5ffd5b505050506040513d601f19601f820116820180604052508101906112689190614994565b90505f810361127857505061144d565b600193505f611287838361266b565b90505f5f90505b6005811015611448575f8282600581106112ab576112aa614eb8565b5b602002015190505f81036112bf575061143b565b5f5f90505b8851811015611438575f8982815181106112e1576112e0614eb8565b5b602002602001015190506112f687828561276a565b611300575061142b565b6001600560146101000a81548160ff0219169083151502179055503073ffffffffffffffffffffffffffffffffffffffff16635cf9cfe98883866040518463ffffffff1660e01b815260040161135893929190614ee5565b6020604051808303815f875af192505050801561139357506040513d601f19601f820116820180604052508101906113909190614994565b60015b61140c573d805f81146113c1576040519150601f19603f3d011682016040523d82523d5f602084013e6113c6565b606091505b50611406816040518060400160405280601e81526020017f4449524543545f434f4c4c41544552414c5f524f5554455f4641494c454400008152506127c9565b50611429565b5f81146114275760019b5050505050505050505050506114f1565b505b505b80806001019150506112c4565b50505b808060010191505061128e565b505050505b80806001019150506111b5565b508015801561146c57505f5f1b600354145b1561149d577f1f947e25e821dea41f07ef4e434208627a4287552556496d966b39d7af8e36cf6003819055506114eb565b600560149054906101000a900460ff161580156114bd57505f5f1b600354145b156114ea577fff27506e0f48103ad05b86328b6570cc3274384322bb43cc0750cde33271cd906003819055505b5b5f925050505b90565b5f5f73cb3b879ab11f825885d5add8bf3672596d35197c73ffffffffffffffffffffffffffffffffffffffff166367e4ac2c6040518163ffffffff1660e01b81526004015f60405180830381865afa158015611552573d5f5f3e3d5ffd5b505050506040513d5f823e3d601f19601f8201168201806040525081019061157a9190614e71565b90505f5f5f90505b8251811015611884575f83828151811061159f5761159e614eb8565b5b602002602001015190506115b281612528565b6115bc5750611877565b5f5f90505b8451811015611874575f8582815181106115de576115dd614eb8565b5b602002602001015190508273ffffffffffffffffffffffffffffffffffffffff168173ffffffffffffffffffffffffffffffffffffffff161480611628575061162681612528565b155b156116335750611867565b5f5f5f6116408685612811565b9250925092505f73ffffffffffffffffffffffffffffffffffffffff168373ffffffffffffffffffffffffffffffffffffffff1614806116ab57505f73ffffffffffffffffffffffffffffffffffffffff168273ffffffffffffffffffffffffffffffffffffffff16145b806116b7575060018111155b156116c55750505050611867565b600197505f6116d48783612e46565b90505f5f90505b6006811015611860575f8282600681106116f8576116f7614eb8565b5b602002015190506001811161170d5750611853565b61171989888784612f9f565b6117235750611853565b6001600560146101000a81548160ff0219169083151502179055503073ffffffffffffffffffffffffffffffffffffffff1663610a29d98a898989866040518663ffffffff1660e01b815260040161177f959493929190614f1a565b6020604051808303815f875af19250505080156117ba57506040513d601f19601f820116820180604052508101906117b79190614f95565b60015b611833573d805f81146117e8576040519150601f19603f3d011682016040523d82523d5f602084013e6117ed565b606091505b5061182d816040518060400160405280601d81526020017f464c4153485f434f4c4c41544552414c5f524f5554455f4641494c45440000008152506127c9565b50611851565b801561184f5760019d505050505050505050505050505061191b565b505b505b80806001019150506116db565b5050505050505b80806001019150506115c1565b50505b8080600101915050611582565b508015801561189657505f5f1b600354145b156118c7577ff17520afe5bb9db284999b74405e62851b70f7c91c8e3e7e350cfa1ee44098ad600381905550611915565b600560149054906101000a900460ff161580156118e757505f5f1b600354145b15611914577fa774ae840f548acdc621604c40f806436cd574601b90c487d3ada9ddcaf6af326003819055505b5b5f925050505b90565b61192983835f613012565b611934838383613012565b505050565b5f5f8203611949575f9050611b4b565b5f61195385613161565b90505f8103611965575f915050611b4b565b5f611970868561321e565b90505f8103611983575f92505050611b4b565b5f670de0b6b3a764000083836119999190614fc0565b6119a3919061502e565b9050612710612328826119b69190614fc0565b6119c0919061502e565b90505f81036119d4575f9350505050611b4b565b5f6119dd6132b5565b90507fffffffffffffffffffffffffffffffffffffffffffffffffffffffffffffffff8103611a12575f945050505050611b4b565b80670de0b6b3a7640000611a26919061505e565b670de0b6b3a764000083611a3a9190614fc0565b611a44919061502e565b91505f8203611a59575f945050505050611b4b565b5f611a638861336f565b90505f8103611a79575f95505050505050611b4b565b5f611a8389613458565b90507fffffffffffffffffffffffffffffffffffffffffffffffffffffffffffffffff8103611aba575f9650505050505050611b4b565b5f8282600a611ac991906151c0565b86611ad49190614fc0565b611ade919061502e565b90505f8103611af6575f975050505050505050611b4b565b5f611b008b61350d565b90505f8103611b19575f98505050505050505050611b4b565b80821115611b3f5761271061232882611b329190614fc0565b611b3c919061502e565b91505b81985050505050505050505b9392505050565b5f73cb3b879ab11f825885d5add8bf3672596d35197c73ffffffffffffffffffffffffffffffffffffffff1663bf273041846040518263ffffffff1660e01b8152600401611ba091906145b1565b60c060405180830381865afa158015611bbb573d5f5f3e3d5ffd5b505050506040513d601f19601f82011682018060405250810190611bdf91906152e6565b5f01519050611c0f817f0000000000000000000000000000000000000000000000000000000000000000846135c1565b611c45576040517f11befc9d00000000000000000000000000000000000000000000000000000000815260040160405180910390fd5b5f7f000000000000000000000000000000000000000000000000000000000000000073ffffffffffffffffffffffffffffffffffffffff166387793ba3836040518263ffffffff1660e01b8152600401611c9f91906145b1565b602060405180830381865afa158015611cba573d5f5f3e3d5ffd5b505050506040513d601f19601f82011682018060405250810190611cde9190614994565b03611d15576040517f11befc9d00000000000000000000000000000000000000000000000000000000815260040160405180910390fd5b505050565b7f000000000000000000000000000000000000000000000000000000000000000073ffffffffffffffffffffffffffffffffffffffff16637cc3438573cb3b879ab11f825885d5add8bf3672596d35197c836040518363ffffffff1660e01b8152600401611d89929190615311565b6020604051808303815f875af1925050508015611dc457506040513d601f19601f82011682018060405250810190611dc19190614994565b60015b611dfa576040517f2c93101100000000000000000000000000000000000000000000000000000000815260040160405180910390fd5b5050565b8260045f6101000a81548173ffffffffffffffffffffffffffffffffffffffff021916908373ffffffffffffffffffffffffffffffffffffffff1602179055508160055f6101000a81548173ffffffffffffffffffffffffffffffffffffffff021916908373ffffffffffffffffffffffffffffffffffffffff160217905550815f5f6101000a81548173ffffffffffffffffffffffffffffffffffffffff021916908373ffffffffffffffffffffffffffffffffffffffff16021790555080600181905550600160025f6101000a81548160ff02191690836003811115611ee957611ee8614516565b5b0217905550505050565b6040518060e001604052808673ffffffffffffffffffffffffffffffffffffffff1681526020018573ffffffffffffffffffffffffffffffffffffffff1681526020018473ffffffffffffffffffffffffffffffffffffffff1681526020018373ffffffffffffffffffffffffffffffffffffffff1681526020018281526020018573ffffffffffffffffffffffffffffffffffffffff166370a08231306040518263ffffffff1660e01b8152600401611fad91906145b1565b602060405180830381865afa158015611fc8573d5f5f3e3d5ffd5b505050506040513d601f19601f82011682018060405250810190611fec9190614994565b81526020016001151581525060065f820151815f015f6101000a81548173ffffffffffffffffffffffffffffffffffffffff021916908373ffffffffffffffffffffffffffffffffffffffff1602179055506020820151816001015f6101000a81548173ffffffffffffffffffffffffffffffffffffffff021916908373ffffffffffffffffffffffffffffffffffffffff1602179055506040820151816002015f6101000a81548173ffffffffffffffffffffffffffffffffffffffff021916908373ffffffffffffffffffffffffffffffffffffffff1602179055506060820151816003015f6101000a81548173ffffffffffffffffffffffffffffffffffffffff021916908373ffffffffffffffffffffffffffffffffffffffff1602179055506080820151816004015560a0820151816005015560c0820151816006015f6101000a81548160ff0219169083151502179055509050505f8390505f8673ffffffffffffffffffffffffffffffffffffffff168273ffffffffffffffffffffffffffffffffffffffff16630dfe16816040518163ffffffff1660e01b8152600401602060405180830381865afa1580156121ab573d5f5f3e3d5ffd5b505050506040513d601f19601f820116820180604052508101906121cf91906147a5565b73ffffffffffffffffffffffffffffffffffffffff16146121f0575f6121f2565b825b90505f5f8214612202575f612204565b835b90508273ffffffffffffffffffffffffffffffffffffffff1663022c0d9f8383306040518463ffffffff1660e01b815260040161224393929190615392565b5f604051808303815f87803b15801561225a575f5ffd5b505af115801561226c573d5f5f3e3d5ffd5b50505050600680015f9054906101000a900460ff16156122c1576040517f08c379a00000000000000000000000000000000000000000000000000000000081526004016122b890615424565b60405180910390fd5b5050505050505050565b5f6103e56103e46103e8846122e09190614fc0565b6122ea919061505e565b6122f4919061502e565b9050919050565b5f612308858585856136d6565b90505f810361234c576040517f08c379a00000000000000000000000000000000000000000000000000000000081526004016123439061548c565b60405180910390fd5b6123578486836124d9565b5f8590505f8473ffffffffffffffffffffffffffffffffffffffff168273ffffffffffffffffffffffffffffffffffffffff16630dfe16816040518163ffffffff1660e01b8152600401602060405180830381865afa1580156123bc573d5f5f3e3d5ffd5b505050506040513d601f19601f820116820180604052508101906123e091906147a5565b73ffffffffffffffffffffffffffffffffffffffff1614612401575f612403565b835b90505f5f8214612413575f612415565b845b90508273ffffffffffffffffffffffffffffffffffffffff1663022c0d9f8383305f67ffffffffffffffff8111156124505761244f614d39565b5b6040519080825280601f01601f1916602001820160405280156124825781602001600182028036833780820191505090505b506040518563ffffffff1660e01b81526004016124a294939291906154fa565b5f604051808303815f87803b1580156124b9575f5ffd5b505af11580156124cb573d5f5f3e3d5ffd5b505050505050505050505050565b6124e48383836135c1565b612523576040517f08c379a000000000000000000000000000000000000000000000000000000000815260040161251a9061558e565b60405180910390fd5b505050565b5f5f73ffffffffffffffffffffffffffffffffffffffff168273ffffffffffffffffffffffffffffffffffffffff1603612564575f9050612666565b5f73cb3b879ab11f825885d5add8bf3672596d35197c73ffffffffffffffffffffffffffffffffffffffff1663bf273041846040518263ffffffff1660e01b81526004016125b291906145b1565b60c060405180830381865afa1580156125cd573d5f5f3e3d5ffd5b505050506040513d601f19601f820116820180604052508101906125f191906152e6565b90505f73ffffffffffffffffffffffffffffffffffffffff16815f015173ffffffffffffffffffffffffffffffffffffffff161415801561266257505f73ffffffffffffffffffffffffffffffffffffffff16816040015173ffffffffffffffffffffffffffffffffffffffff1614155b9150505b919050565b61267361432d565b61268e8261268985678ac7230489e80000613aed565b613b98565b815f600581106126a1576126a0614eb8565b5b6020020181815250506126c6826126c18568056bc75e2d63100000613aed565b613b98565b816001600581106126da576126d9614eb8565b5b6020020181815250506126ff826126fa85683635c9adc5dea00000613aed565b613b98565b8160026005811061271357612712614eb8565b5b602002018181525050600282612729919061502e565b8160036005811061273d5761273c614eb8565b5b602002018181525050818160046005811061275b5761275a614eb8565b5b60200201818152505092915050565b5f8373ffffffffffffffffffffffffffffffffffffffff168373ffffffffffffffffffffffffffffffffffffffff1614806127a457505f82145b156127b1575f90506127c2565b5f6127bd858585611939565b141590505b9392505050565b6127d282613bb0565b156127f3576001600560156101000a81548160ff0219169083151502179055505b5f5f1b6003540361280d5780805190602001206003819055505b5050565b5f5f5f5f6040518060400160405280735c69bee701ef814a2b6a3edd4b1652cb9cc5aa6f73ffffffffffffffffffffffffffffffffffffffff1673ffffffffffffffffffffffffffffffffffffffff16815260200173c0aee478e3658e2610c5f7a4a2e1777ce9e4f2ac73ffffffffffffffffffffffffffffffffffffffff1673ffffffffffffffffffffffffffffffffffffffff1681525090506128b461434f565b5f5f90505b600281101561293b576128e48382600281106128d8576128d7614eb8565b5b60200201518989613d09565b8282600281106128f7576128f6614eb8565b5b602002019073ffffffffffffffffffffffffffffffffffffffff16908173ffffffffffffffffffffffffffffffffffffffff168152505080806001019150506128b9565b505f73ffffffffffffffffffffffffffffffffffffffff16815f6002811061296657612965614eb8565b5b602002015173ffffffffffffffffffffffffffffffffffffffff16141580156129d357505f73ffffffffffffffffffffffffffffffffffffffff16816001600281106129b5576129b4614eb8565b5b602002015173ffffffffffffffffffffffffffffffffffffffff1614155b8015612a3a5750806001600281106129ee576129ed614eb8565b5b602002015173ffffffffffffffffffffffffffffffffffffffff16815f60028110612a1c57612a1b614eb8565b5b602002015173ffffffffffffffffffffffffffffffffffffffff1614155b15612a8f57805f60028110612a5257612a51614eb8565b5b6020020151935080600160028110612a6d57612a6c614eb8565b5b60200201519450612a7e8588613e27565b92505f8314612a8e575050612e3f565b5b5f73ffffffffffffffffffffffffffffffffffffffff16815f60028110612ab957612ab8614eb8565b5b602002015173ffffffffffffffffffffffffffffffffffffffff1614612af857805f60028110612aec57612aeb614eb8565b5b60200201519350612b74565b5f73ffffffffffffffffffffffffffffffffffffffff1681600160028110612b2357612b22614eb8565b5b602002015173ffffffffffffffffffffffffffffffffffffffff1614612b635780600160028110612b5757612b56614eb8565b5b60200201519350612b73565b5f5f5f9450945094505050612e3f565b5b5f6040518060a0016040528073c02aaa39b223fe8d0a0e5c4f27ead9083c756cc273ffffffffffffffffffffffffffffffffffffffff1673ffffffffffffffffffffffffffffffffffffffff16815260200173a0b86991c6218b36c1d19d4a2e9eb0ce3606eb4873ffffffffffffffffffffffffffffffffffffffff1673ffffffffffffffffffffffffffffffffffffffff16815260200173dac17f958d2ee523a2206206994597c13d831ec773ffffffffffffffffffffffffffffffffffffffff1673ffffffffffffffffffffffffffffffffffffffff168152602001736b175474e89094c44da98b954eedeac495271d0f73ffffffffffffffffffffffffffffffffffffffff1673ffffffffffffffffffffffffffffffffffffffff168152602001732260fac5e5542a773aa44fbcfedf7c193bc2c59973ffffffffffffffffffffffffffffffffffffffff1673ffffffffffffffffffffffffffffffffffffffff1681525090505f5f90505b6002811015612e31575f5f90505b6005811015612e23575f838260058110612d0e57612d0d614eb8565b5b602002015190508a73ffffffffffffffffffffffffffffffffffffffff168173ffffffffffffffffffffffffffffffffffffffff1603612d4e5750612e16565b5f612d71878560028110612d6557612d64614eb8565b5b60200201518d84613d09565b90505f73ffffffffffffffffffffffffffffffffffffffff168173ffffffffffffffffffffffffffffffffffffffff161480612dd857508873ffffffffffffffffffffffffffffffffffffffff168173ffffffffffffffffffffffffffffffffffffffff16145b15612de4575050612e16565b5f612def828e613e27565b90505f8103612e0057505050612e16565b818a829a509a509a505050505050505050612e3f565b8080600101915050612cf1565b508080600101915050612ce3565b505f5f5f9550955095505050505b9250925092565b612e4e614371565b5f6103e883612e5d919061502e565b90505f8103612e6c5750612f99565b612e8781612e8286678ac7230489e80000613aed565b613b98565b825f60068110612e9a57612e99614eb8565b5b602002018181525050612ebf81612eba8668056bc75e2d63100000613aed565b613b98565b82600160068110612ed357612ed2614eb8565b5b602002018181525050612ef881612ef386683635c9adc5dea00000613aed565b613b98565b82600260068110612f0c57612f0b614eb8565b5b602002018181525050612f3281612f2d8669021e19e0c9bab2400000613aed565b613b98565b82600360068110612f4657612f45614eb8565b5b602002018181525050600281612f5c919061502e565b82600460068110612f7057612f6f614eb8565b5b6020020181815250508082600560068110612f8e57612f8d614eb8565b5b602002018181525050505b92915050565b5f5f612fac868685611939565b90505f8103612fbe575f91505061300a565b5f83612fc9856122cb565b612fd39190614b56565b90505f612fe286888a856136d6565b90505f811480612ff25750828110155b15613002575f935050505061300a565b600193505050505b949350505050565b5f5f8473ffffffffffffffffffffffffffffffffffffffff1663095ea7b360e01b8585604051602401613046929190614b02565b604051602081830303815290604052907bffffffffffffffffffffffffffffffffffffffffffffffffffffffff19166020820180517bffffffffffffffffffffffffffffffffffffffffffffffffffffffff83818316178352505050506040516130b091906155e6565b5f604051808303815f865af19150503d805f81146130e9576040519150601f19603f3d011682016040523d82523d5f602084013e6130ee565b606091505b509150915081801561311b57505f8151148061311a5750808060200190518101906131199190614f95565b5b5b61315a576040517f08c379a000000000000000000000000000000000000000000000000000000000815260040161315190615646565b60405180910390fd5b5050505050565b5f5f5f61320061316f614050565b63c2fa749460e01b73cb3b879ab11f825885d5add8bf3672596d35197c8760405160240161319e929190615311565b604051602081830303815290604052907bffffffffffffffffffffffffffffffffffffffffffffffffffffffff19166020820180517bffffffffffffffffffffffffffffffffffffffffffffffffffffffff83818316178352505050506140f7565b9150915081613213575f92505050613219565b80925050505b919050565b5f5f820361322e575f90506132af565b5f6132388461336f565b90505f810361324a575f9150506132af565b5f61325485613458565b90507fffffffffffffffffffffffffffffffffffffffffffffffffffffffffffffffff8103613287575f925050506132af565b80600a61329491906151c0565b82856132a09190614fc0565b6132aa919061502e565b925050505b92915050565b5f5f5f6133336132c3614050565b63072ea61c60e01b604051602401604051602081830303815290604052907bffffffffffffffffffffffffffffffffffffffffffffffffffffffff19166020820180517bffffffffffffffffffffffffffffffffffffffffffffffffffffffff83818316178352505050506140f7565b9150915081613366577fffffffffffffffffffffffffffffffffffffffffffffffffffffffffffffffff9250505061336c565b80925050505b90565b5f5f6133796141a4565b90505f73ffffffffffffffffffffffffffffffffffffffff168173ffffffffffffffffffffffffffffffffffffffff16036133b7575f915050613453565b5f5f613438836341976e0960e01b876040516024016133d691906145b1565b604051602081830303815290604052907bffffffffffffffffffffffffffffffffffffffffffffffffffffffff19166020820180517bffffffffffffffffffffffffffffffffffffffffffffffffffffffff83818316178352505050506140f7565b915091508161344c575f9350505050613453565b8093505050505b919050565b5f5f5f6134cf8463313ce56760e01b604051602401604051602081830303815290604052907bffffffffffffffffffffffffffffffffffffffffffffffffffffffff19166020820180517bffffffffffffffffffffffffffffffffffffffffffffffffffffffff83818316178352505050506140f7565b9150915081613502577fffffffffffffffffffffffffffffffffffffffffffffffffffffffffffffffff92505050613508565b80925050505b919050565b5f5f5f6135a373cb3b879ab11f825885d5add8bf3672596d35197c63b8c876b160e01b8660405160240161354191906145b1565b604051602081830303815290604052907bffffffffffffffffffffffffffffffffffffffffffffffffffffffff19166020820180517bffffffffffffffffffffffffffffffffffffffffffffffffffffffff83818316178352505050506140f7565b91509150816135b6575f925050506135bc565b80925050505b919050565b5f5f5f8573ffffffffffffffffffffffffffffffffffffffff1663a9059cbb60e01b86866040516024016135f6929190614b02565b604051602081830303815290604052907bffffffffffffffffffffffffffffffffffffffffffffffffffffffff19166020820180517bffffffffffffffffffffffffffffffffffffffffffffffffffffffff838183161783525050505060405161366091906155e6565b5f604051808303815f865af19150503d805f8114613699576040519150601f19603f3d011682016040523d82523d5f602084013e61369e565b606091505b50915091508180156136cb57505f815114806136ca5750808060200190518101906136c99190614f95565b5b5b925050509392505050565b5f5f73ffffffffffffffffffffffffffffffffffffffff168573ffffffffffffffffffffffffffffffffffffffff16148061371057505f82145b1561371d575f9050613ae5565b5f8590505f5f8273ffffffffffffffffffffffffffffffffffffffff16630902f1ac6040518163ffffffff1660e01b8152600401606060405180830381865afa15801561376c573d5f5f3e3d5ffd5b505050506040513d601f19601f8201168201806040525081019061379091906156e0565b50915091505f5f8873ffffffffffffffffffffffffffffffffffffffff168573ffffffffffffffffffffffffffffffffffffffff16630dfe16816040518163ffffffff1660e01b8152600401602060405180830381865afa1580156137f7573d5f5f3e3d5ffd5b505050506040513d601f19601f8201168201806040525081019061381b91906147a5565b73ffffffffffffffffffffffffffffffffffffffff161480156138d557508773ffffffffffffffffffffffffffffffffffffffff168573ffffffffffffffffffffffffffffffffffffffff1663d21220a76040518163ffffffff1660e01b8152600401602060405180830381865afa158015613899573d5f5f3e3d5ffd5b505050506040513d601f19601f820116820180604052508101906138bd91906147a5565b73ffffffffffffffffffffffffffffffffffffffff16145b1561390557836dffffffffffffffffffffffffffff169150826dffffffffffffffffffffffffffff169050613a81565b8773ffffffffffffffffffffffffffffffffffffffff168573ffffffffffffffffffffffffffffffffffffffff16630dfe16816040518163ffffffff1660e01b8152600401602060405180830381865afa158015613965573d5f5f3e3d5ffd5b505050506040513d601f19601f8201168201806040525081019061398991906147a5565b73ffffffffffffffffffffffffffffffffffffffff16148015613a4357508873ffffffffffffffffffffffffffffffffffffffff168573ffffffffffffffffffffffffffffffffffffffff1663d21220a76040518163ffffffff1660e01b8152600401602060405180830381865afa158015613a07573d5f5f3e3d5ffd5b505050506040513d601f19601f82011682018060405250810190613a2b91906147a5565b73ffffffffffffffffffffffffffffffffffffffff16145b15613a7357826dffffffffffffffffffffffffffff169150836dffffffffffffffffffffffffffff169050613a80565b5f95505050505050613ae5565b5b808710613a95575f95505050505050613ae5565b60016103e58883613aa69190614b56565b613ab09190614fc0565b6103e88985613abf9190614fc0565b613ac99190614fc0565b613ad3919061502e565b613add919061505e565b955050505050505b949350505050565b5f5f8203613afd575f9050613b92565b5f613b078461336f565b90505f8103613b19575f915050613b92565b5f613b2385613458565b90507fffffffffffffffffffffffffffffffffffffffffffffffffffffffffffffffff8103613b56575f92505050613b92565b5f8282600a613b6591906151c0565b86613b709190614fc0565b613b7a919061502e565b90505f8114613b895780613b8c565b60015b93505050505b92915050565b5f818310613ba65781613ba8565b825b905092915050565b5f600482511015613bc3575f9050613d04565b5f602083015190506311befc9d60e01b7bffffffffffffffffffffffffffffffffffffffffffffffffffffffff1916817bffffffffffffffffffffffffffffffffffffffffffffffffffffffff19161480613c625750632c93101160e01b7bffffffffffffffffffffffffffffffffffffffffffffffffffffffff1916817bffffffffffffffffffffffffffffffffffffffffffffffffffffffff1916145b80613cb1575063f0ee386c60e01b7bffffffffffffffffffffffffffffffffffffffffffffffffffffffff1916817bffffffffffffffffffffffffffffffffffffffffffffffffffffffff1916145b80613d00575063ef63243e60e01b7bffffffffffffffffffffffffffffffffffffffffffffffffffffffff1916817bffffffffffffffffffffffffffffffffffffffffffffffffffffffff1916145b9150505b919050565b5f5f5f8573ffffffffffffffffffffffffffffffffffffffff1663e6a4390560e01b8686604051602401613d3e929190615311565b604051602081830303815290604052907bffffffffffffffffffffffffffffffffffffffffffffffffffffffff19166020820180517bffffffffffffffffffffffffffffffffffffffffffffffffffffffff8381831617835250505050604051613da891906155e6565b5f60405180830381855afa9150503d805f8114613de0576040519150601f19603f3d011682016040523d82523d5f602084013e613de5565b606091505b5091509150811580613df8575060208151105b15613e07575f92505050613e20565b80806020019051810190613e1b919061576b565b925050505b9392505050565b5f5f73ffffffffffffffffffffffffffffffffffffffff168373ffffffffffffffffffffffffffffffffffffffff1603613e63575f905061404a565b5f8390505f5f8273ffffffffffffffffffffffffffffffffffffffff16630902f1ac6040518163ffffffff1660e01b8152600401606060405180830381865afa158015613eb2573d5f5f3e3d5ffd5b505050506040513d601f19601f82011682018060405250810190613ed691906156e0565b50915091508473ffffffffffffffffffffffffffffffffffffffff168373ffffffffffffffffffffffffffffffffffffffff16630dfe16816040518163ffffffff1660e01b8152600401602060405180830381865afa158015613f3b573d5f5f3e3d5ffd5b505050506040513d601f19601f82011682018060405250810190613f5f91906147a5565b73ffffffffffffffffffffffffffffffffffffffff1603613f9257816dffffffffffffffffffffffffffff169350614046565b8473ffffffffffffffffffffffffffffffffffffffff168373ffffffffffffffffffffffffffffffffffffffff1663d21220a76040518163ffffffff1660e01b8152600401602060405180830381865afa158015613ff2573d5f5f3e3d5ffd5b505050506040513d601f19601f8201168201806040525081019061401691906147a5565b73ffffffffffffffffffffffffffffffffffffffff160361404557806dffffffffffffffffffffffffffff1693505b5b5050505b92915050565b5f5f5f6140db73cb3b879ab11f825885d5add8bf3672596d35197c63bde1271860e01b604051602401604051602081830303815290604052907bffffffffffffffffffffffffffffffffffffffffffffffffffffffff19166020820180517bffffffffffffffffffffffffffffffffffffffffffffffffffffffff8381831617835250505050614280565b91509150816140ee575f925050506140f4565b80925050505b90565b5f5f60608473ffffffffffffffffffffffffffffffffffffffff168460405161412091906155e6565b5f60405180830381855afa9150503d805f8114614158576040519150601f19603f3d011682016040523d82523d5f602084013e61415d565b606091505b508092508194505050821580614174575060208151105b15614185575f5f925092505061419d565b808060200190518101906141999190614994565b9150505b9250929050565b5f5f6141ae614050565b90505f73ffffffffffffffffffffffffffffffffffffffff168173ffffffffffffffffffffffffffffffffffffffff16036141ec575f91505061427d565b5f5f61426283635ddf2be360e01b604051602401604051602081830303815290604052907bffffffffffffffffffffffffffffffffffffffffffffffffffffffff19166020820180517bffffffffffffffffffffffffffffffffffffffffffffffffffffffff8381831617835250505050614280565b9150915081614276575f935050505061427d565b8093505050505b90565b5f5f60608473ffffffffffffffffffffffffffffffffffffffff16846040516142a991906155e6565b5f60405180830381855afa9150503d805f81146142e1576040519150601f19603f3d011682016040523d82523d5f602084013e6142e6565b606091505b5080925081945050508215806142fd575060208151105b1561430e575f5f9250925050614326565b80806020019051810190614322919061576b565b9150505b9250929050565b6040518060a00160405280600590602082028036833780820191505090505090565b6040518060400160405280600290602082028036833780820191505090505090565b6040518060c00160405280600690602082028036833780820191505090505090565b5f604051905090565b5f5ffd5b5f5ffd5b5f73ffffffffffffffffffffffffffffffffffffffff82169050919050565b5f6143cd826143a4565b9050919050565b6143dd816143c3565b81146143e7575f5ffd5b50565b5f813590506143f8816143d4565b92915050565b5f819050919050565b614410816143fe565b811461441a575f5ffd5b50565b5f8135905061442b81614407565b92915050565b5f5ffd5b5f5ffd5b5f5ffd5b5f5f83601f84011261445257614451614431565b5b8235905067ffffffffffffffff81111561446f5761446e614435565b5b60208301915083600182028301111561448b5761448a614439565b5b9250929050565b5f5f5f5f5f608086880312156144ab576144aa61439c565b5b5f6144b8888289016143ea565b95505060206144c98882890161441d565b94505060406144da8882890161441d565b935050606086013567ffffffffffffffff8111156144fb576144fa6143a0565b5b6145078882890161443d565b92509250509295509295909350565b7f4e487b71000000000000000000000000000000000000000000000000000000005f52602160045260245ffd5b6004811061455457614553614516565b5b50565b5f81905061456482614543565b919050565b5f61457382614557565b9050919050565b61458381614569565b82525050565b5f60208201905061459c5f83018461457a565b92915050565b6145ab816143c3565b82525050565b5f6020820190506145c45f8301846145a2565b92915050565b5f5f5f606084860312156145e1576145e061439c565b5b5f6145ee868287016143ea565b93505060206145ff868287016143ea565b92505060406146108682870161441d565b9150509250925092565b614623816143fe565b82525050565b5f60208201905061463c5f83018461461a565b92915050565b5f5f5f5f5f60a0868803121561465b5761465a61439c565b5b5f614668888289016143ea565b9550506020614679888289016143ea565b945050604061468a888289016143ea565b935050606061469b888289016143ea565b92505060806146ac8882890161441d565b9150509295509295909350565b5f8115159050919050565b6146cd816146b9565b82525050565b5f6020820190506146e65f8301846146c4565b92915050565b5f819050919050565b5f61470f61470a614705846143a4565b6146ec565b6143a4565b9050919050565b5f614720826146f5565b9050919050565b5f61473182614716565b9050919050565b61474181614727565b82525050565b5f60208201905061475a5f830184614738565b92915050565b5f819050919050565b61477281614760565b82525050565b5f60208201905061478b5f830184614769565b92915050565b5f8151905061479f816143d4565b92915050565b5f602082840312156147ba576147b961439c565b5b5f6147c784828501614791565b91505092915050565b5f82825260208201905092915050565b7f756e657870656374656420746f6b656e310000000000000000000000000000005f82015250565b5f6148146011836147d0565b915061481f826147e0565b602082019050919050565b5f6020820190508181035f83015261484181614808565b9050919050565b7f756e657870656374656420746f6b656e300000000000000000000000000000005f82015250565b5f61487c6011836147d0565b915061488782614848565b602082019050919050565b5f6020820190508181035f8301526148a981614870565b9050919050565b7f62616420666c61736820616d6f756e74000000000000000000000000000000005f82015250565b5f6148e46010836147d0565b91506148ef826148b0565b602082019050919050565b5f6020820190508181035f830152614911816148d8565b9050919050565b7f6f6e6c792073656c6600000000000000000000000000000000000000000000005f82015250565b5f61494c6009836147d0565b915061495782614918565b602082019050919050565b5f6020820190508181035f83015261497981614940565b9050919050565b5f8151905061498e81614407565b92915050565b5f602082840312156149a9576149a861439c565b5b5f6149b684828501614980565b91505092915050565b5f6060820190506149d25f8301866145a2565b6149df602083018561461a565b6149ec60408301846146c4565b949350505050565b5f5f60408385031215614a0a57614a0961439c565b5b5f614a1785828601614980565b9250506020614a2885828601614980565b9150509250929050565b7f7a65726f20636f6c6c61746572616c20736861726500000000000000000000005f82015250565b5f614a666015836147d0565b9150614a7182614a32565b602082019050919050565b5f6020820190508181035f830152614a9381614a5a565b9050919050565b7f7a65726f20626f72726f770000000000000000000000000000000000000000005f82015250565b5f614ace600b836147d0565b9150614ad982614a9a565b602082019050919050565b5f6020820190508181035f830152614afb81614ac2565b9050919050565b5f604082019050614b155f8301856145a2565b614b22602083018461461a565b9392505050565b7f4e487b71000000000000000000000000000000000000000000000000000000005f52601160045260245ffd5b5f614b60826143fe565b9150614b6b836143fe565b9250828203905081811115614b8357614b82614b29565b5b92915050565b7f6e6f2070726f66697400000000000000000000000000000000000000000000005f82015250565b5f614bbd6009836147d0565b9150614bc882614b89565b602082019050919050565b5f6020820190508181035f830152614bea81614bb1565b9050919050565b7f7a65726f20666c617368207368617265000000000000000000000000000000005f82015250565b5f614c256010836147d0565b9150614c3082614bf1565b602082019050919050565b5f6020820190508181035f830152614c5281614c19565b9050919050565b7f7a65726f20666c61736820626f72726f770000000000000000000000000000005f82015250565b5f614c8d6011836147d0565b9150614c9882614c59565b602082019050919050565b5f6020820190508181035f830152614cba81614c81565b9050919050565b7f6e6f20666c6173682070726f66697400000000000000000000000000000000005f82015250565b5f614cf5600f836147d0565b9150614d0082614cc1565b602082019050919050565b5f6020820190508181035f830152614d2281614ce9565b9050919050565b5f601f19601f8301169050919050565b7f4e487b71000000000000000000000000000000000000000000000000000000005f52604160045260245ffd5b614d6f82614d29565b810181811067ffffffffffffffff82111715614d8e57614d8d614d39565b5b80604052505050565b5f614da0614393565b9050614dac8282614d66565b919050565b5f67ffffffffffffffff821115614dcb57614dca614d39565b5b602082029050602081019050919050565b5f614dee614de984614db1565b614d97565b90508083825260208201905060208402830185811115614e1157614e10614439565b5b835b81811015614e3a5780614e268882614791565b845260208401935050602081019050614e13565b5050509392505050565b5f82601f830112614e5857614e57614431565b5b8151614e68848260208601614ddc565b91505092915050565b5f60208284031215614e8657614e8561439c565b5b5f82015167ffffffffffffffff811115614ea357614ea26143a0565b5b614eaf84828501614e44565b91505092915050565b7f4e487b71000000000000000000000000000000000000000000000000000000005f52603260045260245ffd5b5f606082019050614ef85f8301866145a2565b614f0560208301856145a2565b614f12604083018461461a565b949350505050565b5f60a082019050614f2d5f8301886145a2565b614f3a60208301876145a2565b614f4760408301866145a2565b614f5460608301856145a2565b614f61608083018461461a565b9695505050505050565b614f74816146b9565b8114614f7e575f5ffd5b50565b5f81519050614f8f81614f6b565b92915050565b5f60208284031215614faa57614fa961439c565b5b5f614fb784828501614f81565b91505092915050565b5f614fca826143fe565b9150614fd5836143fe565b9250828202614fe3816143fe565b91508282048414831517614ffa57614ff9614b29565b5b5092915050565b7f4e487b71000000000000000000000000000000000000000000000000000000005f52601260045260245ffd5b5f615038826143fe565b9150615043836143fe565b92508261505357615052615001565b5b828204905092915050565b5f615068826143fe565b9150615073836143fe565b925082820190508082111561508b5761508a614b29565b5b92915050565b5f8160011c9050919050565b5f5f8291508390505b60018511156150e6578086048111156150c2576150c1614b29565b5b60018516156150d15780820291505b80810290506150df85615091565b94506150a6565b94509492505050565b5f826150fe57600190506151b9565b8161510b575f90506151b9565b8160018114615121576002811461512b5761515a565b60019150506151b9565b60ff84111561513d5761513c614b29565b5b8360020a91508482111561515457615153614b29565b5b506151b9565b5060208310610133831016604e8410600b841016171561518f5782820a90508381111561518a57615189614b29565b5b6151b9565b61519c848484600161509d565b925090508184048111156151b3576151b2614b29565b5b81810290505b9392505050565b5f6151ca826143fe565b91506151d5836143fe565b92506152027fffffffffffffffffffffffffffffffffffffffffffffffffffffffffffffffff84846150ef565b905092915050565b5f5ffd5b5f615218826143c3565b9050919050565b6152288161520e565b8114615232575f5ffd5b50565b5f815190506152438161521f565b92915050565b5f60c0828403121561525e5761525d61520a565b5b61526860c0614d97565b90505f61527784828501615235565b5f83015250602061528a84828501615235565b602083015250604061529e84828501615235565b60408301525060606152b284828501614980565b60608301525060806152c684828501614980565b60808301525060a06152da84828501614980565b60a08301525092915050565b5f60c082840312156152fb576152fa61439c565b5b5f61530884828501615249565b91505092915050565b5f6040820190506153245f8301856145a2565b61533160208301846145a2565b9392505050565b5f82825260208201905092915050565b7f01000000000000000000000000000000000000000000000000000000000000005f82015250565b5f61537c600183615338565b915061538782615348565b602082019050919050565b5f6080820190506153a55f83018661461a565b6153b2602083018561461a565b6153bf60408301846145a2565b81810360608301526153d081615370565b9050949350505050565b7f666c617368206e6f7420636c65617265640000000000000000000000000000005f82015250565b5f61540e6011836147d0565b9150615419826153da565b602082019050919050565b5f6020820190508181035f83015261543b81615402565b9050919050565b7f7a65726f207061697220696e70757400000000000000000000000000000000005f82015250565b5f615476600f836147d0565b915061548182615442565b602082019050919050565b5f6020820190508181035f8301526154a38161546a565b9050919050565b5f81519050919050565b8281835e5f83830152505050565b5f6154cc826154aa565b6154d68185615338565b93506154e68185602086016154b4565b6154ef81614d29565b840191505092915050565b5f60808201905061550d5f83018761461a565b61551a602083018661461a565b61552760408301856145a2565b818103606083015261553981846154c2565b905095945050505050565b7f7472616e73666572206661696c656400000000000000000000000000000000005f82015250565b5f615578600f836147d0565b915061558382615544565b602082019050919050565b5f6020820190508181035f8301526155a58161556c565b9050919050565b5f81905092915050565b5f6155c0826154aa565b6155ca81856155ac565b93506155da8185602086016154b4565b80840191505092915050565b5f6155f182846155b6565b915081905092915050565b7f617070726f7665206661696c65640000000000000000000000000000000000005f82015250565b5f615630600e836147d0565b915061563b826155fc565b602082019050919050565b5f6020820190508181035f83015261565d81615624565b9050919050565b5f6dffffffffffffffffffffffffffff82169050919050565b61568681615664565b8114615690575f5ffd5b50565b5f815190506156a18161567d565b92915050565b5f63ffffffff82169050919050565b6156bf816156a7565b81146156c9575f5ffd5b50565b5f815190506156da816156b6565b92915050565b5f5f5f606084860312156156f7576156f661439c565b5b5f61570486828701615693565b935050602061571586828701615693565b9250506040615726868287016156cc565b9150509250925092565b5f61573a826143a4565b9050919050565b61574a81615730565b8114615754575f5ffd5b50565b5f8151905061576581615741565b92915050565b5f602082840312156157805761577f61439c565b5b5f61578d84828501615757565b9150509291505056fea264697066735822122048661682f3a7f173728c38056a987e1fd7d3d32086bedc5a4d9dd902c6ede27764736f6c634300081e003360a060405234801561000f575f5ffd5b506040516109a93803806109a9833981810160405281019061003191906100c9565b8073ffffffffffffffffffffffffffffffffffffffff1660808173ffffffffffffffffffffffffffffffffffffffff1681525050506100f4565b5f5ffd5b5f73ffffffffffffffffffffffffffffffffffffffff82169050919050565b5f6100988261006f565b9050919050565b6100a88161008e565b81146100b2575f5ffd5b50565b5f815190506100c38161009f565b92915050565b5f602082840312156100de576100dd61006b565b5b5f6100eb848285016100b5565b91505092915050565b6080516108916101185f395f818160c30152818160e8015261021b01526108915ff3fe608060405234801561000f575f5ffd5b506004361061003f575f3560e01c80632b7ac3f3146100435780637cc343851461006157806387793ba314610091575b5f5ffd5b61004b6100c1565b60405161005891906104d4565b60405180910390f35b61007b6004803603810190610076919061051b565b6100e5565b6040516100889190610571565b60405180910390f35b6100ab60048036038101906100a6919061058a565b6102bd565b6040516100b89190610571565b60405180910390f35b7f000000000000000000000000000000000000000000000000000000000000000081565b5f7f000000000000000000000000000000000000000000000000000000000000000073ffffffffffffffffffffffffffffffffffffffff163373ffffffffffffffffffffffffffffffffffffffff1614610174576040517f08c379a000000000000000000000000000000000000000000000000000000000815260040161016b9061060f565b60405180910390fd5b8273ffffffffffffffffffffffffffffffffffffffff1663ead5d359837fffffffffffffffffffffffffffffffffffffffffffffffffffffffffffffffff5f6040518463ffffffff1660e01b81526004016101d193929190610647565b60408051808303815f875af11580156101ec573d5f5f3e3d5ffd5b505050506040513d601f19601f8201168201806040525081019061021091906106a6565b50809150506102b7827f00000000000000000000000000000000000000000000000000000000000000008473ffffffffffffffffffffffffffffffffffffffff166370a08231306040518263ffffffff1660e01b815260040161027391906104d4565b602060405180830381865afa15801561028e573d5f5f3e3d5ffd5b505050506040513d601f19601f820116820180604052508101906102b291906106e4565b61033d565b92915050565b5f8173ffffffffffffffffffffffffffffffffffffffff166370a08231306040518263ffffffff1660e01b81526004016102f791906104d4565b602060405180830381865afa158015610312573d5f5f3e3d5ffd5b505050506040513d601f19601f8201168201806040525081019061033691906106e4565b9050919050565b5f810315610490575f5f8473ffffffffffffffffffffffffffffffffffffffff1663a9059cbb60e01b858560405160240161037992919061070f565b604051602081830303815290604052907bffffffffffffffffffffffffffffffffffffffffffffffffffffffff19166020820180517bffffffffffffffffffffffffffffffffffffffffffffffffffffffff83818316178352505050506040516103e39190610788565b5f604051808303815f865af19150503d805f811461041c576040519150601f19603f3d011682016040523d82523d5f602084013e610421565b606091505b509150915081801561044e57505f8151148061044d57508080602001905181019061044c91906107c8565b5b5b61048d576040517f08c379a00000000000000000000000000000000000000000000000000000000081526004016104849061083d565b60405180910390fd5b50505b505050565b5f73ffffffffffffffffffffffffffffffffffffffff82169050919050565b5f6104be82610495565b9050919050565b6104ce816104b4565b82525050565b5f6020820190506104e75f8301846104c5565b92915050565b5f5ffd5b6104fa816104b4565b8114610504575f5ffd5b50565b5f81359050610515816104f1565b92915050565b5f5f60408385031215610531576105306104ed565b5b5f61053e85828601610507565b925050602061054f85828601610507565b9150509250929050565b5f819050919050565b61056b81610559565b82525050565b5f6020820190506105845f830184610562565b92915050565b5f6020828403121561059f5761059e6104ed565b5b5f6105ac84828501610507565b91505092915050565b5f82825260208201905092915050565b7f6f6e6c79207665726966696572000000000000000000000000000000000000005f82015250565b5f6105f9600d836105b5565b9150610604826105c5565b602082019050919050565b5f6020820190508181035f830152610626816105ed565b9050919050565b5f8115159050919050565b6106418161062d565b82525050565b5f60608201905061065a5f8301866104c5565b6106676020830185610562565b6106746040830184610638565b949350505050565b61068581610559565b811461068f575f5ffd5b50565b5f815190506106a08161067c565b92915050565b5f5f604083850312156106bc576106bb6104ed565b5b5f6106c985828601610692565b92505060206106da85828601610692565b9150509250929050565b5f602082840312156106f9576106f86104ed565b5b5f61070684828501610692565b91505092915050565b5f6040820190506107225f8301856104c5565b61072f6020830184610562565b9392505050565b5f81519050919050565b5f81905092915050565b8281835e5f83830152505050565b5f61076282610736565b61076c8185610740565b935061077c81856020860161074a565b80840191505092915050565b5f6107938284610758565b915081905092915050565b6107a78161062d565b81146107b1575f5ffd5b50565b5f815190506107c28161079e565b92915050565b5f602082840312156107dd576107dc6104ed565b5b5f6107ea848285016107b4565b91505092915050565b7f7472616e73666572206661696c656400000000000000000000000000000000005f82015250565b5f610827600f836105b5565b9150610832826107f3565b602082019050919050565b5f6020820190508181035f8301526108548161081b565b905091905056fea264697066735822122054e6110c9c7f9c7c56294d3b8a395076debae328b9f539cf6a1e1dad6eb5dd9964736f6c634300081e0033","linkReferences":{}},"methodIdentifiers":{"TARGET_SILO()":"d1a5de87","attemptDirectCollateralRoute(address,address,uint256)":"5cf9cfe9","attemptFlashCollateralRoute(address,address,address,address,uint256)":"610a29d9","chosenBorrowAsset()":"868639d2","chosenCollateralAsset()":"4d43736a","executeOnOpportunity()":"3c2448ed","helper()":"63b0e66a","lastFailureTag()":"f288750d","outcome()":"27793f87","profitAmount()":"5ff972cc","profitToken()":"49343624","uniswapV2Call(address,uint256,uint256,bytes)":"10d1e85c"},"id":0}