{"abi":[{"type":"function","name":"notificationReceiverPing","inputs":[],"outputs":[{"name":"","type":"bytes4","internalType":"bytes4"}],"stateMutability":"pure"},{"type":"function","name":"onAfterTransfer","inputs":[{"name":"","type":"address","internalType":"address"},{"name":"","type":"address","internalType":"address"},{"name":"","type":"address","internalType":"address"},{"name":"","type":"uint256","internalType":"uint256"}],"outputs":[],"stateMutability":"pure"},{"type":"function","name":"shareBalance","inputs":[{"name":"shareToken","type":"address","internalType":"address"}],"outputs":[{"name":"","type":"uint256","internalType":"uint256"}],"stateMutability":"view"}],"bytecode":{"object":"0x6080604052348015600e575f5ffd5b506103798061001c5f395ff3fe608060405234801561000f575f5ffd5b506004361061003f575f3560e01c80630f1bf70d1461004357806311279b4a1461005f57806387793ba31461007d575b5f5ffd5b61005d600480360381019061005891906101d2565b6100ad565b005b6100676100b3565b6040516100749190610270565b60405180910390f35b61009760048036038101906100929190610289565b6100c1565b6040516100a491906102c3565b60405180910390f35b50505050565b5f6311279b4a60e01b905090565b5f8173ffffffffffffffffffffffffffffffffffffffff166370a08231306040518263ffffffff1660e01b81526004016100fb91906102eb565b602060405180830381865afa158015610116573d5f5f3e3d5ffd5b505050506040513d601f19601f8201168201806040525081019061013a9190610318565b9050919050565b5f5ffd5b5f73ffffffffffffffffffffffffffffffffffffffff82169050919050565b5f61016e82610145565b9050919050565b61017e81610164565b8114610188575f5ffd5b50565b5f8135905061019981610175565b92915050565b5f819050919050565b6101b18161019f565b81146101bb575f5ffd5b50565b5f813590506101cc816101a8565b92915050565b5f5f5f5f608085870312156101ea576101e9610141565b5b5f6101f78782880161018b565b94505060206102088782880161018b565b93505060406102198782880161018b565b925050606061022a878288016101be565b91505092959194509250565b5f7fffffffff0000000000000000000000000000000000000000000000000000000082169050919050565b61026a81610236565b82525050565b5f6020820190506102835f830184610261565b92915050565b5f6020828403121561029e5761029d610141565b5b5f6102ab8482850161018b565b91505092915050565b6102bd8161019f565b82525050565b5f6020820190506102d65f8301846102b4565b92915050565b6102e581610164565b82525050565b5f6020820190506102fe5f8301846102dc565b92915050565b5f81519050610312816101a8565b92915050565b5f6020828403121561032d5761032c610141565b5b5f61033a84828501610304565b9150509291505056fea26469706673582212201279ad84752fae1d33b1a458e1d11e35cf206e4ea9050062c17aaf8d742cda8864736f6c634300081e0033","linkReferences":{}},"methodIdentifiers":{"notificationReceiverPing()":"11279b4a","onAfterTransfer(address,address,address,uint256)":"0f1bf70d","shareBalance(address)":"87793ba3"},"id":0}