{"abi":[{"type":"constructor","inputs":[],"stateMutability":"nonpayable"},{"type":"receive","stateMutability":"payable"},{"type":"function","name":"TARGET_COMPTROLLER","inputs":[],"outputs":[{"name":"","type":"address","internalType":"address"}],"stateMutability":"view"},{"type":"function","name":"executeCandidate","inputs":[{"name":"candidate","type":"tuple","internalType":"struct FlawVerifier.CollateralCandidate","components":[{"name":"cCollateral","type":"address","internalType":"address"},{"name":"collateralToken","type":"address","internalType":"address"},{"name":"collateralOracle","type":"address","internalType":"address"},{"name":"originalCollateralPrice","type":"uint256","internalType":"uint256"},{"name":"collateralFactorMantissa","type":"uint256","internalType":"uint256"},{"name":"directAmount","type":"uint256","internalType":"uint256"},{"name":"flashPair","type":"address","internalType":"address"},{"name":"dexFactory","type":"address","internalType":"address"},{"name":"dexRouter","type":"address","internalType":"address"},{"name":"flashAmount","type":"uint256","internalType":"uint256"}]}],"outputs":[],"stateMutability":"nonpayable"},{"type":"function","name":"executeOnOpportunity","inputs":[],"outputs":[],"stateMutability":"nonpayable"},{"type":"function","name":"profitAmount","inputs":[],"outputs":[{"name":"","type":"uint256","internalType":"uint256"}],"stateMutability":"view"},{"type":"function","name":"profitToken","inputs":[],"outputs":[{"name":"","type":"address","internalType":"address"}],"stateMutability":"view"},{"type":"function","name":"sushiCall","inputs":[{"name":"sender","type":"address","internalType":"address"},{"name":"amount0","type":"uint256","internalType":"uint256"},{"name":"amount1","type":"uint256","internalType":"uint256"},{"name":"","type":"bytes","internalType":"bytes"}],"outputs":[],"stateMutability":"nonpayable"},{"type":"function","name":"uniswapV2Call","inputs":[{"name":"sender","type":"address","internalType":"address"},{"name":"amount0","type":"uint256","internalType":"uint256"},{"name":"amount1","type":"uint256","internalType":"uint256"},{"name":"","type":"bytes","internalType":"bytes"}],"outputs":[],"stateMutability":"nonpayable"}],"bytecode":{"object":"0x6080604052348015600e575f5ffd5b506163288061001c5f395ff3fe608060405260043610610072575f3560e01c8063493436241161004d57806349343624146100e35780635ff972cc1461010d57806368510be114610137578063ae42fd201461016157610079565b80629914031461007d57806310d1e85c146100a55780633c2448ed146100cd57610079565b3661007957005b5f5ffd5b348015610088575f5ffd5b506100a3600480360381019061009e9190615034565b610189565b005b3480156100b0575f5ffd5b506100cb60048036038101906100c69190615034565b61019b565b005b3480156100d8575f5ffd5b506100e16101ad565b005b3480156100ee575f5ffd5b506100f7610449565b60405161010491906150c7565b60405180910390f35b348015610118575f5ffd5b50610121610470565b60405161012e91906150ef565b60405180910390f35b348015610142575f5ffd5b5061014b610479565b60405161015891906150c7565b60405180910390f35b34801561016c575f5ffd5b506101876004803603810190610182919061512b565b610491565b005b610194858585610964565b5050505050565b6101a6858585610964565b5050505050565b5f5f5f6101000a81548173ffffffffffffffffffffffffffffffffffffffff021916908373ffffffffffffffffffffffffffffffffffffffff1602179055505f6001819055505f6101fc610c7d565b90505f81519050604081111561021157604090505b5f5f90505b60028110156103a7575f5f90505b600281101561039b575f5f90505b8381101561038f575f5f61026087848151811061025257610251615157565b5b602002602001015185610dd4565b915091505f8103610272575050610384565b5f5f8360a001511190505f86148015610289575080155b8061029d575060018614801561029c5750805b5b156102aa57505050610384565b3073ffffffffffffffffffffffffffffffffffffffff1663ae42fd20846040518263ffffffff1660e01b81526004016102e3919061526c565b5f604051808303815f87803b1580156102fa575f5ffd5b505af192505050801561030b575060015b15610380575f73ffffffffffffffffffffffffffffffffffffffff165f5f9054906101000a900473ffffffffffffffffffffffffffffffffffffffff1673ffffffffffffffffffffffffffffffffffffffff161415801561036d57505f600154115b1561037f575050505050505050610447565b5b5050505b806001019050610232565b50806001019050610224565b50806001019050610216565b505f73ffffffffffffffffffffffffffffffffffffffff165f5f9054906101000a900473ffffffffffffffffffffffffffffffffffffffff1673ffffffffffffffffffffffffffffffffffffffff161415801561040557505f600154115b610444576040517f08c379a000000000000000000000000000000000000000000000000000000000815260040161043b906152e0565b60405180910390fd5b50505b565b5f5f5f9054906101000a900473ffffffffffffffffffffffffffffffffffffffff16905090565b5f600154905090565b733f2d1bc6d02522dbcdb216b2e75edddafe04b16f81565b3073ffffffffffffffffffffffffffffffffffffffff163373ffffffffffffffffffffffffffffffffffffffff16146104ff576040517f08c379a00000000000000000000000000000000000000000000000000000000081526004016104f690615348565b60405180910390fd5b5f8180360381019061051191906154e5565b90505f8160a0015111156105345761052e818260a001515f610f67565b50610961565b5f73ffffffffffffffffffffffffffffffffffffffff168160c0015173ffffffffffffffffffffffffffffffffffffffff161415801561057857505f816101200151115b6105b7576040517f08c379a00000000000000000000000000000000000000000000000000000000081526004016105ae9061555b565b60405180910390fd5b604051806101000160405280825f015173ffffffffffffffffffffffffffffffffffffffff168152602001826020015173ffffffffffffffffffffffffffffffffffffffff168152602001826040015173ffffffffffffffffffffffffffffffffffffffff168152602001826060015181526020018260c0015173ffffffffffffffffffffffffffffffffffffffff1681526020018260e0015173ffffffffffffffffffffffffffffffffffffffff16815260200182610100015173ffffffffffffffffffffffffffffffffffffffff16815260200182610120015181525060025f820151815f015f6101000a81548173ffffffffffffffffffffffffffffffffffffffff021916908373ffffffffffffffffffffffffffffffffffffffff1602179055506020820151816001015f6101000a81548173ffffffffffffffffffffffffffffffffffffffff021916908373ffffffffffffffffffffffffffffffffffffffff1602179055506040820151816002015f6101000a81548173ffffffffffffffffffffffffffffffffffffffff021916908373ffffffffffffffffffffffffffffffffffffffff160217905550606082015181600301556080820151816004015f6101000a81548173ffffffffffffffffffffffffffffffffffffffff021916908373ffffffffffffffffffffffffffffffffffffffff16021790555060a0820151816005015f6101000a81548173ffffffffffffffffffffffffffffffffffffffff021916908373ffffffffffffffffffffffffffffffffffffffff16021790555060c0820151816006015f6101000a81548173ffffffffffffffffffffffffffffffffffffffff021916908373ffffffffffffffffffffffffffffffffffffffff16021790555060e082015181600701559050506108698160c0015182602001518361012001516110c4565b60025f5f82015f6101000a81549073ffffffffffffffffffffffffffffffffffffffff0219169055600182015f6101000a81549073ffffffffffffffffffffffffffffffffffffffff0219169055600282015f6101000a81549073ffffffffffffffffffffffffffffffffffffffff0219169055600382015f9055600482015f6101000a81549073ffffffffffffffffffffffffffffffffffffffff0219169055600582015f6101000a81549073ffffffffffffffffffffffffffffffffffffffff0219169055600682015f6101000a81549073ffffffffffffffffffffffffffffffffffffffff0219169055600782015f90555050505b50565b3073ffffffffffffffffffffffffffffffffffffffff168373ffffffffffffffffffffffffffffffffffffffff16146109d2576040517f08c379a00000000000000000000000000000000000000000000000000000000081526004016109c9906155c3565b60405180910390fd5b60026004015f9054906101000a900473ffffffffffffffffffffffffffffffffffffffff1673ffffffffffffffffffffffffffffffffffffffff163373ffffffffffffffffffffffffffffffffffffffff1614610a64576040517f08c379a0000000000000000000000000000000000000000000000000000000008152600401610a5b9061562b565b60405180910390fd5b5f5f8311610a725781610a74565b825b90506002600701548114610abd576040517f08c379a0000000000000000000000000000000000000000000000000000000008152600401610ab490615693565b60405180910390fd5b5f60405180610140016040528060025f015f9054906101000a900473ffffffffffffffffffffffffffffffffffffffff1673ffffffffffffffffffffffffffffffffffffffff16815260200160026001015f9054906101000a900473ffffffffffffffffffffffffffffffffffffffff1673ffffffffffffffffffffffffffffffffffffffff168152602001600280015f9054906101000a900473ffffffffffffffffffffffffffffffffffffffff1673ffffffffffffffffffffffffffffffffffffffff16815260200160026003015481526020015f81526020015f815260200160026004015f9054906101000a900473ffffffffffffffffffffffffffffffffffffffff1673ffffffffffffffffffffffffffffffffffffffff16815260200160026005015f9054906101000a900473ffffffffffffffffffffffffffffffffffffffff1673ffffffffffffffffffffffffffffffffffffffff16815260200160026006015f9054906101000a900473ffffffffffffffffffffffffffffffffffffffff1673ffffffffffffffffffffffffffffffffffffffff1681526020016002600701548152509050610c7681836001610f67565b5050505050565b6060733f2d1bc6d02522dbcdb216b2e75edddafe04b16f73ffffffffffffffffffffffffffffffffffffffff1663b0772d0b6040518163ffffffff1660e01b81526004015f60405180830381865afa925050508015610cfe57506040513d5f823e3d601f19601f82011682018060405250810190610cfb9190615785565b60015b610dc7575f604090508067ffffffffffffffff811115610d2157610d2061537a565b5b604051908082528060200260200182016040528015610d4f5781602001602082028036833780820191505090505b5091505f5f90505b81811015610dc057610d6881611352565b838281518110610d7b57610d7a615157565b5b602002602001019073ffffffffffffffffffffffffffffffffffffffff16908173ffffffffffffffffffffffffffffffffffffffff1681525050806001019050610d57565b5050610dd0565b80915050610dd1565b5b90565b610ddc614de0565b5f5f5f610de8866113f0565b80935081945082965050505080610e0657835f935093505050610f60565b5f85148015610e13575081155b80610e275750600185148015610e265750815b5b15610e3957835f935093505050610f60565b610e4b846020015185606001516115e8565b8960a0018a60c0018b60e0018c610100018d61012001859d50868152508673ffffffffffffffffffffffffffffffffffffffff1673ffffffffffffffffffffffffffffffffffffffff168152508673ffffffffffffffffffffffffffffffffffffffff1673ffffffffffffffffffffffffffffffffffffffff168152508673ffffffffffffffffffffffffffffffffffffffff1673ffffffffffffffffffffffffffffffffffffffff16815250868152505050505050505f8303610f1657835f935093505050610f60565b670de0b6b3a764000060018560800151610f3091906157f9565b84610f3b919061582c565b610f45919061589a565b92508115610f5d57600283610f5a919061582c565b92505b50505b9250929050565b610f798360200151845f0151846116ab565b5f835f015173ffffffffffffffffffffffffffffffffffffffff1663a0712d68846040518263ffffffff1660e01b8152600401610fb691906150ef565b6020604051808303815f875af1158015610fd2573d5f5f3e3d5ffd5b505050506040513d601f19601f82011682018060405250810190610ff691906158de565b14611036576040517f08c379a000000000000000000000000000000000000000000000000000000000815260040161102d90615953565b60405180910390fd5b611042835f01516118da565b5f6110508460600151611aac565b90506110698460400151855f0151866020015184611b31565b5f6110748584611be0565b90506110918560400151865f015187602001518860600151611b31565b82156110b0575f6110a185611ca0565b90506110ae868383611ccf565b505b6110bd8160200151611da8565b5050505050565b5f8373ffffffffffffffffffffffffffffffffffffffff16630dfe16816040518163ffffffff1660e01b8152600401602060405180830381865afa15801561110e573d5f5f3e3d5ffd5b505050506040513d601f19601f820116820180604052508101906111329190615971565b90505f8473ffffffffffffffffffffffffffffffffffffffff1663d21220a76040518163ffffffff1660e01b8152600401602060405180830381865afa15801561117e573d5f5f3e3d5ffd5b505050506040513d601f19601f820116820180604052508101906111a29190615971565b90505f60016040516020016111b791906150ef565b60405160208183030381529060405290508473ffffffffffffffffffffffffffffffffffffffff168373ffffffffffffffffffffffffffffffffffffffff160361126f578573ffffffffffffffffffffffffffffffffffffffff1663022c0d9f855f30856040518563ffffffff1660e01b815260040161123a9493929190615a3e565b5f604051808303815f87803b158015611251575f5ffd5b505af1158015611263573d5f5f3e3d5ffd5b5050505050505061134d565b8473ffffffffffffffffffffffffffffffffffffffff168273ffffffffffffffffffffffffffffffffffffffff16146112dd576040517f08c379a00000000000000000000000000000000000000000000000000000000081526004016112d490615ad2565b60405180910390fd5b8573ffffffffffffffffffffffffffffffffffffffff1663022c0d9f5f8630856040518563ffffffff1660e01b815260040161131c9493929190615af0565b5f604051808303815f87803b158015611333575f5ffd5b505af1158015611345573d5f5f3e3d5ffd5b505050505050505b505050565b5f733f2d1bc6d02522dbcdb216b2e75edddafe04b16f73ffffffffffffffffffffffffffffffffffffffff166352d84d1e836040518263ffffffff1660e01b81526004016113a091906150ef565b602060405180830381865afa9250505080156113da57506040513d601f19601f820116820180604052508101906113d79190615971565b60015b6113e6575f90506113eb565b809150505b919050565b6113f8614de0565b5f5f5f73ffffffffffffffffffffffffffffffffffffffff168473ffffffffffffffffffffffffffffffffffffffff160361143b57825f5f9250925092506115e1565b5f5f61144686612026565b9150915081158061145657505f81145b1561146b57845f5f94509450945050506115e1565b5f5f611476886120cb565b915091508061149157865f5f965096509650505050506115e1565b5f5f61149c8a612180565b91509150806114b957885f5f9850985098505050505050506115e1565b5f6114c58b86856122ab565b90505f73ffffffffffffffffffffffffffffffffffffffff168173ffffffffffffffffffffffffffffffffffffffff160361150f57895f5f995099509950505050505050506115e1565b61151885612325565b98508a8a5f019073ffffffffffffffffffffffffffffffffffffffff16908173ffffffffffffffffffffffffffffffffffffffff1681525050848a6020019073ffffffffffffffffffffffffffffffffffffffff16908173ffffffffffffffffffffffffffffffffffffffff1681525050808a6040019073ffffffffffffffffffffffffffffffffffffffff16908173ffffffffffffffffffffffffffffffffffffffff1681525050828a6060018181525050858a608001818152505060019750505050505050505b9193909250565b5f5f5f5f5f5f6115f8883061244e565b95505f86111561162457868661160e919061582c565b9050855f5f5f5f955095509550955095506116a1565b61162d88612569565b809550819650829750839850505050505f73ffffffffffffffffffffffffffffffffffffffff168573ffffffffffffffffffffffffffffffffffffffff16148061167657505f82145b15611692575f5f5f5f5f5f9550955095509550955095506116a1565b868261169e919061582c565b90505b9295509295509295565b5f8373ffffffffffffffffffffffffffffffffffffffff1663095ea7b360e01b845f6040516024016116de929190615b76565b604051602081830303815290604052907bffffffffffffffffffffffffffffffffffffffffffffffffffffffff19166020820180517bffffffffffffffffffffffffffffffffffffffffffffffffffffffff83818316178352505050506040516117489190615bd7565b5f604051808303815f865af19150503d805f8114611781576040519150601f19603f3d011682016040523d82523d5f602084013e611786565b606091505b505090505f5f8573ffffffffffffffffffffffffffffffffffffffff1663095ea7b360e01b86866040516024016117be929190615bed565b604051602081830303815290604052907bffffffffffffffffffffffffffffffffffffffffffffffffffffffff19166020820180517bffffffffffffffffffffffffffffffffffffffffffffffffffffffff83818316178352505050506040516118289190615bd7565b5f604051808303815f865af19150503d805f8114611861576040519150601f19603f3d011682016040523d82523d5f602084013e611866565b606091505b509150915081801561189357505f815114806118925750808060200190518101906118919190615c49565b5b5b6118d2576040517f08c379a00000000000000000000000000000000000000000000000000000000081526004016118c990615cbe565b60405180910390fd5b505050505050565b5f600167ffffffffffffffff8111156118f6576118f561537a565b5b6040519080825280602002602001820160405280156119245781602001602082028036833780820191505090505b50905081815f8151811061193b5761193a615157565b5b602002602001019073ffffffffffffffffffffffffffffffffffffffff16908173ffffffffffffffffffffffffffffffffffffffff1681525050733f2d1bc6d02522dbcdb216b2e75edddafe04b16f73ffffffffffffffffffffffffffffffffffffffff1663c2998238826040518263ffffffff1660e01b81526004016119c29190615d84565b5f604051808303815f875af1925050508015611a0057506040513d5f823e3d601f19601f820116820180604052508101906119fd9190615e64565b60015b611a3f576040517f08c379a0000000000000000000000000000000000000000000000000000000008152600401611a3690615ef5565b60405180910390fd5b5f8151118015611a6857505f815f81518110611a5e57611a5d615157565b5b6020026020010151145b611aa7576040517f08c379a0000000000000000000000000000000000000000000000000000000008152600401611a9e90615ef5565b60405180910390fd5b505050565b5f5f8203611abc575f9050611b2c565b620f42407fffffffffffffffffffffffffffffffffffffffffffffffffffffffffffffffff611aeb919061589a565b821115611b1a577fffffffffffffffffffffffffffffffffffffffffffffffffffffffffffffffff9050611b2c565b620f424082611b29919061582c565b90505b919050565b611b3f8484848460046126ad565b611bda575f611b4c612909565b90508073ffffffffffffffffffffffffffffffffffffffff168573ffffffffffffffffffffffffffffffffffffffff1614158015611b945750611b938185858560046126ad565b5b15611b9f5750611bda565b6040517f08c379a0000000000000000000000000000000000000000000000000000000008152600401611bd190615f5d565b60405180910390fd5b50505050565b611be8614ead565b5f611bf1610c7d565b90505f815190506040811115611c0657604090505b5f5f90505b81811015611c5e575f5f611c3a88868581518110611c2c57611c2b615157565b5b602002602001015189612990565b915091508015611c51578195505050505050611c9a565b5050806001019050611c0b565b506040517f08c379a0000000000000000000000000000000000000000000000000000000008152600401611c9190615fc5565b60405180910390fd5b92915050565b5f60016103e56103e884611cb4919061582c565b611cbe919061589a565b611cc891906157f9565b9050919050565b611ce7826020015184610100015184608001516116ab565b5f611cff836020015185602001518560a00151612e2f565b905083610100015173ffffffffffffffffffffffffffffffffffffffff16638803dbee8385608001518430426040518663ffffffff1660e01b8152600401611d4b959493929190615fe3565b5f604051808303815f875af1158015611d66573d5f5f3e3d5ffd5b505050506040513d5f823e3d601f19601f82011682018060405250810190611d8e9190615e64565b50611da284602001518560c0015184613092565b50505050565b5f611db3823061244e565b90505f811115611e0957815f5f6101000a81548173ffffffffffffffffffffffffffffffffffffffff021916908373ffffffffffffffffffffffffffffffffffffffff1602179055508060018190555050612023565b5f604051806080016040528073c02aaa39b223fe8d0a0e5c4f27ead9083c756cc273ffffffffffffffffffffffffffffffffffffffff1673ffffffffffffffffffffffffffffffffffffffff16815260200173a0b86991c6218b36c1d19d4a2e9eb0ce3606eb4873ffffffffffffffffffffffffffffffffffffffff1673ffffffffffffffffffffffffffffffffffffffff16815260200173dac17f958d2ee523a2206206994597c13d831ec773ffffffffffffffffffffffffffffffffffffffff1673ffffffffffffffffffffffffffffffffffffffff168152602001736b175474e89094c44da98b954eedeac495271d0f73ffffffffffffffffffffffffffffffffffffffff1673ffffffffffffffffffffffffffffffffffffffff1681525090505f5f90505b6004811015611fd9575f611f5d838360048110611f5257611f51615157565b5b60200201513061244e565b90505f811115611fcd57828260048110611f7a57611f79615157565b5b60200201515f5f6101000a81548173ffffffffffffffffffffffffffffffffffffffff021916908373ffffffffffffffffffffffffffffffffffffffff1602179055508060018190555050505050612023565b50806001019050611f32565b505f5f5f6101000a81548173ffffffffffffffffffffffffffffffffffffffff021916908373ffffffffffffffffffffffffffffffffffffffff1602179055505f60018190555050505b50565b5f5f733f2d1bc6d02522dbcdb216b2e75edddafe04b16f73ffffffffffffffffffffffffffffffffffffffff16638e8f294b846040518263ffffffff1660e01b815260040161207591906150c7565b6040805180830381865afa9250505080156120ae57506040513d601f19601f820116820180604052508101906120ab919061603b565b60015b6120bd575f5f915091506120c6565b81819350935050505b915091565b5f5f8273ffffffffffffffffffffffffffffffffffffffff16636f307dc36040518163ffffffff1660e01b8152600401602060405180830381865afa92505050801561213557506040513d601f19601f820116820180604052508101906121329190615971565b60015b612144575f5f9150915061217b565b805f73ffffffffffffffffffffffffffffffffffffffff168273ffffffffffffffffffffffffffffffffffffffff16141592509250505b915091565b5f5f5f5f61218c612909565b73ffffffffffffffffffffffffffffffffffffffff1663fc57d4df60e01b866040516024016121bb91906150c7565b604051602081830303815290604052907bffffffffffffffffffffffffffffffffffffffffffffffffffffffff19166020820180517bffffffffffffffffffffffffffffffffffffffffffffffffffffffff83818316178352505050506040516122259190615bd7565b5f60405180830381855afa9150503d805f811461225d576040519150601f19603f3d011682016040523d82523d5f602084013e612262565b606091505b5091509150811580612275575060208151105b15612287575f5f9350935050506122a6565b8080602001905181019061229b91906158de565b93505f841415925050505b915091565b5f5f6122b5612909565b90506122c58186868660046131e1565b91505f73ffffffffffffffffffffffffffffffffffffffff168273ffffffffffffffffffffffffffffffffffffffff1614612300575061231e565b61230b8186856134d2565b15612319578091505061231e565b5f9150505b9392505050565b5f73c02aaa39b223fe8d0a0e5c4f27ead9083c756cc273ffffffffffffffffffffffffffffffffffffffff168273ffffffffffffffffffffffffffffffffffffffff1614806123b3575073a0b86991c6218b36c1d19d4a2e9eb0ce3606eb4873ffffffffffffffffffffffffffffffffffffffff168273ffffffffffffffffffffffffffffffffffffffff16145b806123fd575073dac17f958d2ee523a2206206994597c13d831ec773ffffffffffffffffffffffffffffffffffffffff168273ffffffffffffffffffffffffffffffffffffffff16145b806124475750736b175474e89094c44da98b954eedeac495271d0f73ffffffffffffffffffffffffffffffffffffffff168273ffffffffffffffffffffffffffffffffffffffff16145b9050919050565b5f5f5f8473ffffffffffffffffffffffffffffffffffffffff166370a0823160e01b8560405160240161248191906150c7565b604051602081830303815290604052907bffffffffffffffffffffffffffffffffffffffffffffffffffffffff19166020820180517bffffffffffffffffffffffffffffffffffffffffffffffffffffffff83818316178352505050506040516124eb9190615bd7565b5f60405180830381855afa9150503d805f8114612523576040519150601f19603f3d011682016040523d82523d5f602084013e612528565b606091505b509150915081158061253b575060208151105b1561254a575f92505050612563565b8080602001905181019061255e91906158de565b925050505b92915050565b5f5f5f5f61258b735c69bee701ef814a2b6a3edd4b1652cb9cc5aa6f86613611565b80925081955050505f73ffffffffffffffffffffffffffffffffffffffff168473ffffffffffffffffffffffffffffffffffffffff16141580156125ce57505f81115b156126095783735c69bee701ef814a2b6a3edd4b1652cb9cc5aa6f737a250d5630b4cf539739df2c5dacb4c659f2488d9350935093506126a6565b61262773c0aee478e3658e2610c5f7a4a2e1777ce9e4f2ac86613611565b80925081955050505f73ffffffffffffffffffffffffffffffffffffffff168473ffffffffffffffffffffffffffffffffffffffff161415801561266a57505f81115b156126a5578373c0aee478e3658e2610c5f7a4a2e1777ce9e4f2ac73d9e1ce17f2641f24ae83637ab66a2cca9c378b9f9350935093506126a6565b5b9193509193565b5f5f73ffffffffffffffffffffffffffffffffffffffff168673ffffffffffffffffffffffffffffffffffffffff16036126e9575f9050612900565b6126f58686868661388f565b156127035760019050612900565b5f8203612712575f9050612900565b5f61271d8786613ae3565b90505f73ffffffffffffffffffffffffffffffffffffffff168173ffffffffffffffffffffffffffffffffffffffff161415801561278757508673ffffffffffffffffffffffffffffffffffffffff168173ffffffffffffffffffffffffffffffffffffffff1614155b156127b5576127a5818787876001886127a09190616079565b6126ad565b156127b4576001915050612900565b5b6127bf8787613ae3565b90505f73ffffffffffffffffffffffffffffffffffffffff168173ffffffffffffffffffffffffffffffffffffffff161415801561282957508673ffffffffffffffffffffffffffffffffffffffff168173ffffffffffffffffffffffffffffffffffffffff1614155b1561285757612847818787876001886128429190616079565b6126ad565b15612856576001915050612900565b5b5f61286188613bfe565b90505f73ffffffffffffffffffffffffffffffffffffffff168173ffffffffffffffffffffffffffffffffffffffff16141580156128cb57508773ffffffffffffffffffffffffffffffffffffffff168173ffffffffffffffffffffffffffffffffffffffff1614155b156128fa576128e9818888886001896128e49190616079565b6126ad565b156128f957600192505050612900565b5b5f925050505b95945050505050565b5f733f2d1bc6d02522dbcdb216b2e75edddafe04b16f73ffffffffffffffffffffffffffffffffffffffff16637dc0d1d06040518163ffffffff1660e01b8152600401602060405180830381865afa158015612967573d5f5f3e3d5ffd5b505050506040513d601f19601f8201168201806040525081019061298b9190615971565b905090565b612998614ead565b5f5f73ffffffffffffffffffffffffffffffffffffffff168473ffffffffffffffffffffffffffffffffffffffff161480612a015750845f015173ffffffffffffffffffffffffffffffffffffffff168473ffffffffffffffffffffffffffffffffffffffff16145b15612a1157815f91509150612e27565b83825f019073ffffffffffffffffffffffffffffffffffffffff16908173ffffffffffffffffffffffffffffffffffffffff16815250505f5f612a53866120cb565b91509150801580612a935750866020015173ffffffffffffffffffffffffffffffffffffffff168273ffffffffffffffffffffffffffffffffffffffff16145b15612aa557835f935093505050612e27565b81846020019073ffffffffffffffffffffffffffffffffffffffff16908173ffffffffffffffffffffffffffffffffffffffff16815250505050828015612b005750612afe8560e0015183602001518760200151613d0d565b155b15612b1057815f91509150612e27565b5f5f612b1b86614141565b8092508193505050801580612b2f57505f82145b15612b4157835f935093505050612e27565b505f5f612b4d87612180565b8660600181935082815250505080612b6d57845f94509450505050612e27565b612b8087866020015187606001516122ab565b856040019073ffffffffffffffffffffffffffffffffffffffff16908173ffffffffffffffffffffffffffffffffffffffff16815250505f73ffffffffffffffffffffffffffffffffffffffff16856040015173ffffffffffffffffffffffffffffffffffffffff1603612bfc57845f94509450505050612e27565b612c098560600151614258565b9150612c1f856040015188876020015185611b31565b505f5f612c2b30614295565b508092508193505050811580612c4057505f81145b15612c6c57612c5d86604001518988602001518960600151611b31565b855f9550955050505050612e27565b5f612c7782856143fb565b9050612cb36064606387612c8b919061582c565b612c95919061589a565b6064605f84612ca4919061582c565b612cae919061589a565b614496565b8760800181815250505050505f84608001511480612cdc5750612cda8685608001516144ae565b155b15612d0657612cf984604001518786602001518760600151611b31565b835f935093505050612e27565b5f8673ffffffffffffffffffffffffffffffffffffffff1663c5ebeaec86608001516040518263ffffffff1660e01b8152600401612d4491906150ef565b6020604051808303815f875af1158015612d60573d5f5f3e3d5ffd5b505050506040513d601f19601f82011682018060405250810190612d8491906158de565b14612dae57612da184604001518786602001518760600151611b31565b835f935093505050612e27565b612dc684604001518786602001518760600151611b31565b84612dd1575f612de9565b612de88760e00151856020015189602001516145fc565b5b8460a0019073ffffffffffffffffffffffffffffffffffffffff16908173ffffffffffffffffffffffffffffffffffffffff16815250506001925050505b935093915050565b60605f73ffffffffffffffffffffffffffffffffffffffff168273ffffffffffffffffffffffffffffffffffffffff1603612f5257600267ffffffffffffffff811115612e7f57612e7e61537a565b5b604051908082528060200260200182016040528015612ead5781602001602082028036833780820191505090505b50905083815f81518110612ec457612ec3615157565b5b602002602001019073ffffffffffffffffffffffffffffffffffffffff16908173ffffffffffffffffffffffffffffffffffffffff16815250508281600181518110612f1357612f12615157565b5b602002602001019073ffffffffffffffffffffffffffffffffffffffff16908173ffffffffffffffffffffffffffffffffffffffff168152505061308b565b600367ffffffffffffffff811115612f6d57612f6c61537a565b5b604051908082528060200260200182016040528015612f9b5781602001602082028036833780820191505090505b50905083815f81518110612fb257612fb1615157565b5b602002602001019073ffffffffffffffffffffffffffffffffffffffff16908173ffffffffffffffffffffffffffffffffffffffff1681525050818160018151811061300157613000615157565b5b602002602001019073ffffffffffffffffffffffffffffffffffffffff16908173ffffffffffffffffffffffffffffffffffffffff168152505082816002815181106130505761304f615157565b5b602002602001019073ffffffffffffffffffffffffffffffffffffffff16908173ffffffffffffffffffffffffffffffffffffffff16815250505b9392505050565b5f5f8473ffffffffffffffffffffffffffffffffffffffff1663a9059cbb60e01b85856040516024016130c6929190615bed565b604051602081830303815290604052907bffffffffffffffffffffffffffffffffffffffffffffffffffffffff19166020820180517bffffffffffffffffffffffffffffffffffffffffffffffffffffffff83818316178352505050506040516131309190615bd7565b5f604051808303815f865af19150503d805f8114613169576040519150601f19603f3d011682016040523d82523d5f602084013e61316e565b606091505b509150915081801561319b57505f8151148061319a5750808060200190518101906131999190615c49565b5b5b6131da576040517f08c379a00000000000000000000000000000000000000000000000000000000081526004016131d1906160f6565b60405180910390fd5b5050505050565b5f5f73ffffffffffffffffffffffffffffffffffffffff168673ffffffffffffffffffffffffffffffffffffffff160361321d575f90506134c9565b61322986868686614a2a565b15613236578590506134c9565b5f8203613245575f90506134c9565b5f6132508786613ae3565b90505f73ffffffffffffffffffffffffffffffffffffffff168173ffffffffffffffffffffffffffffffffffffffff16141580156132ba57508673ffffffffffffffffffffffffffffffffffffffff168173ffffffffffffffffffffffffffffffffffffffff1614155b1561331a575f6132d9828888886001896132d49190616079565b6131e1565b90505f73ffffffffffffffffffffffffffffffffffffffff168173ffffffffffffffffffffffffffffffffffffffff16146133185780925050506134c9565b505b6133248787613ae3565b90505f73ffffffffffffffffffffffffffffffffffffffff168173ffffffffffffffffffffffffffffffffffffffff161415801561338e57508673ffffffffffffffffffffffffffffffffffffffff168173ffffffffffffffffffffffffffffffffffffffff1614155b156133ee575f6133ad828888886001896133a89190616079565b6131e1565b90505f73ffffffffffffffffffffffffffffffffffffffff168173ffffffffffffffffffffffffffffffffffffffff16146133ec5780925050506134c9565b505b5f6133f888613bfe565b90505f73ffffffffffffffffffffffffffffffffffffffff168173ffffffffffffffffffffffffffffffffffffffff161415801561346257508773ffffffffffffffffffffffffffffffffffffffff168173ffffffffffffffffffffffffffffffffffffffff1614155b156134c3575f6134818289898960018a61347c9190616079565b6131e1565b90505f73ffffffffffffffffffffffffffffffffffffffff168173ffffffffffffffffffffffffffffffffffffffff16146134c1578093505050506134c9565b505b5f925050505b95945050505050565b5f5f5f8573ffffffffffffffffffffffffffffffffffffffff1663fc57d4df60e01b8660405160240161350591906150c7565b604051602081830303815290604052907bffffffffffffffffffffffffffffffffffffffffffffffffffffffff19166020820180517bffffffffffffffffffffffffffffffffffffffffffffffffffffffff838183161783525050505060405161356f9190615bd7565b5f60405180830381855afa9150503d805f81146135a7576040519150601f19603f3d011682016040523d82523d5f602084013e6135ac565b606091505b50915091508115806135bf575060208151105b156135ce575f9250505061360a565b5f818060200190518101906135e391906158de565b90505f81036135f7575f935050505061360a565b5f85148061360457508481145b93505050505b9392505050565b5f5f5f604051806080016040528073c02aaa39b223fe8d0a0e5c4f27ead9083c756cc273ffffffffffffffffffffffffffffffffffffffff1673ffffffffffffffffffffffffffffffffffffffff16815260200173a0b86991c6218b36c1d19d4a2e9eb0ce3606eb4873ffffffffffffffffffffffffffffffffffffffff1673ffffffffffffffffffffffffffffffffffffffff16815260200173dac17f958d2ee523a2206206994597c13d831ec773ffffffffffffffffffffffffffffffffffffffff1673ffffffffffffffffffffffffffffffffffffffff168152602001736b175474e89094c44da98b954eedeac495271d0f73ffffffffffffffffffffffffffffffffffffffff1673ffffffffffffffffffffffffffffffffffffffff1681525090505f5f90505b6004811015613885575f82826004811061375957613758615157565b5b602002015190508573ffffffffffffffffffffffffffffffffffffffff168173ffffffffffffffffffffffffffffffffffffffff1603613799575061387a565b8673ffffffffffffffffffffffffffffffffffffffff1663e6a4390587836040518363ffffffff1660e01b81526004016137d4929190616114565b602060405180830381865afa1580156137ef573d5f5f3e3d5ffd5b505050506040513d601f19601f820116820180604052508101906138139190615971565b94505f73ffffffffffffffffffffffffffffffffffffffff168573ffffffffffffffffffffffffffffffffffffffff160361384e575061387a565b5f6138598688614b7c565b905061386481614d6f565b94505f8511156138775750505050613888565b50505b80600101905061373c565b50505b9250929050565b5f5f73ffffffffffffffffffffffffffffffffffffffff168573ffffffffffffffffffffffffffffffffffffffff16036138cb575f9050613adb565b5f8573ffffffffffffffffffffffffffffffffffffffff1663127ffda060e01b86856040516024016138fe929190615bed565b604051602081830303815290604052907bffffffffffffffffffffffffffffffffffffffffffffffffffffffff19166020820180517bffffffffffffffffffffffffffffffffffffffffffffffffffffffff83818316178352505050506040516139689190615bd7565b5f604051808303815f865af19150503d805f81146139a1576040519150601f19603f3d011682016040523d82523d5f602084013e6139a6565b606091505b5050905080156139ba576001915050613adb565b5f73ffffffffffffffffffffffffffffffffffffffff168473ffffffffffffffffffffffffffffffffffffffff16036139f6575f915050613adb565b8573ffffffffffffffffffffffffffffffffffffffff166309a8acb060e01b8585604051602401613a28929190615bed565b604051602081830303815290604052907bffffffffffffffffffffffffffffffffffffffffffffffffffffffff19166020820180517bffffffffffffffffffffffffffffffffffffffffffffffffffffffff8381831617835250505050604051613a929190615bd7565b5f604051808303815f865af19150503d805f8114613acb576040519150601f19603f3d011682016040523d82523d5f602084013e613ad0565b606091505b505080915050809150505b949350505050565b5f5f5f8473ffffffffffffffffffffffffffffffffffffffff1663addd509960e01b85604051602401613b1691906150c7565b604051602081830303815290604052907bffffffffffffffffffffffffffffffffffffffffffffffffffffffff19166020820180517bffffffffffffffffffffffffffffffffffffffffffffffffffffffff8381831617835250505050604051613b809190615bd7565b5f60405180830381855afa9150503d805f8114613bb8576040519150601f19603f3d011682016040523d82523d5f602084013e613bbd565b606091505b5091509150811580613bd0575060208151105b15613bdf575f92505050613bf8565b80806020019051810190613bf39190616176565b925050505b92915050565b5f5f5f8373ffffffffffffffffffffffffffffffffffffffff166380dce16960e01b604051602401604051602081830303815290604052907bffffffffffffffffffffffffffffffffffffffffffffffffffffffff19166020820180517bffffffffffffffffffffffffffffffffffffffffffffffffffffffff8381831617835250505050604051613c909190615bd7565b5f60405180830381855afa9150503d805f8114613cc8576040519150601f19603f3d011682016040523d82523d5f602084013e613ccd565b606091505b5091509150811580613ce0575060208151105b15613cef575f92505050613d08565b80806020019051810190613d039190616176565b925050505b919050565b5f8173ffffffffffffffffffffffffffffffffffffffff168373ffffffffffffffffffffffffffffffffffffffff1603613d4a576001905061413a565b5f73ffffffffffffffffffffffffffffffffffffffff168473ffffffffffffffffffffffffffffffffffffffff1663e6a4390585856040518363ffffffff1660e01b8152600401613d9c929190616114565b602060405180830381865afa158015613db7573d5f5f3e3d5ffd5b505050506040513d601f19601f82011682018060405250810190613ddb9190615971565b73ffffffffffffffffffffffffffffffffffffffff1614613dff576001905061413a565b5f604051806080016040528073c02aaa39b223fe8d0a0e5c4f27ead9083c756cc273ffffffffffffffffffffffffffffffffffffffff1673ffffffffffffffffffffffffffffffffffffffff16815260200173a0b86991c6218b36c1d19d4a2e9eb0ce3606eb4873ffffffffffffffffffffffffffffffffffffffff1673ffffffffffffffffffffffffffffffffffffffff16815260200173dac17f958d2ee523a2206206994597c13d831ec773ffffffffffffffffffffffffffffffffffffffff1673ffffffffffffffffffffffffffffffffffffffff168152602001736b175474e89094c44da98b954eedeac495271d0f73ffffffffffffffffffffffffffffffffffffffff1673ffffffffffffffffffffffffffffffffffffffff1681525090505f5f90505b6004811015614134575f828260048110613f4557613f44615157565b5b602002015190508573ffffffffffffffffffffffffffffffffffffffff168173ffffffffffffffffffffffffffffffffffffffff161480613fb157508473ffffffffffffffffffffffffffffffffffffffff168173ffffffffffffffffffffffffffffffffffffffff16145b15613fbc5750614129565b5f73ffffffffffffffffffffffffffffffffffffffff168773ffffffffffffffffffffffffffffffffffffffff1663e6a4390588846040518363ffffffff1660e01b815260040161400e929190616114565b602060405180830381865afa158015614029573d5f5f3e3d5ffd5b505050506040513d601f19601f8201168201806040525081019061404d9190615971565b73ffffffffffffffffffffffffffffffffffffffff161415801561411657505f73ffffffffffffffffffffffffffffffffffffffff168773ffffffffffffffffffffffffffffffffffffffff1663e6a4390583886040518363ffffffff1660e01b81526004016140be929190616114565b602060405180830381865afa1580156140d9573d5f5f3e3d5ffd5b505050506040513d601f19601f820116820180604052508101906140fd9190615971565b73ffffffffffffffffffffffffffffffffffffffff1614155b15614127576001935050505061413a565b505b806001019050613f28565b505f9150505b9392505050565b5f5f5f5f8473ffffffffffffffffffffffffffffffffffffffff16633b1d21a260e01b604051602401604051602081830303815290604052907bffffffffffffffffffffffffffffffffffffffffffffffffffffffff19166020820180517bffffffffffffffffffffffffffffffffffffffffffffffffffffffff83818316178352505050506040516141d49190615bd7565b5f60405180830381855afa9150503d805f811461420c576040519150601f19603f3d011682016040523d82523d5f602084013e614211565b606091505b5091509150811580614224575060208151105b15614236575f5f935093505050614253565b8080602001905181019061424a91906158de565b93506001925050505b915091565b5f6001821161426a5760019050614290565b5f620f42408361427a919061589a565b90505f8114614289578061428c565b60015b9150505b919050565b5f5f5f5f5f733f2d1bc6d02522dbcdb216b2e75edddafe04b16f73ffffffffffffffffffffffffffffffffffffffff16635ec88c7960e01b876040516024016142de91906150c7565b604051602081830303815290604052907bffffffffffffffffffffffffffffffffffffffffffffffffffffffff19166020820180517bffffffffffffffffffffffffffffffffffffffffffffffffffffffff83818316178352505050506040516143489190615bd7565b5f60405180830381855afa9150503d805f8114614380576040519150601f19603f3d011682016040523d82523d5f602084013e614385565b606091505b5091509150811580614398575060608151105b156143ad575f5f5f94509450945050506143f4565b5f5f5f838060200190518101906143c491906161a1565b9250925092505f83146143e4575f5f5f97509750975050505050506143f4565b6001828297509750975050505050505b9193909250565b5f5f820361440b575f9050614490565b670de0b6b3a76400007fffffffffffffffffffffffffffffffffffffffffffffffffffffffffffffffff61443f919061589a565b83111561446e577fffffffffffffffffffffffffffffffffffffffffffffffffffffffffffffffff9050614490565b81670de0b6b3a764000084614483919061582c565b61448d919061589a565b90505b92915050565b5f8183106144a457816144a6565b825b905092915050565b5f5f5f733f2d1bc6d02522dbcdb216b2e75edddafe04b16f73ffffffffffffffffffffffffffffffffffffffff168530866040516024016144f1939291906161f1565b6040516020818303038152906040527fda3d454c000000000000000000000000000000000000000000000000000000007bffffffffffffffffffffffffffffffffffffffffffffffffffffffff19166020820180517bffffffffffffffffffffffffffffffffffffffffffffffffffffffff838183161783525050505060405161457b9190615bd7565b5f60405180830381855afa9150503d805f81146145b3576040519150601f19603f3d011682016040523d82523d5f602084013e6145b8565b606091505b50915091508115806145cb575060208151105b156145db576001925050506145f6565b5f818060200190518101906145f091906158de565b14925050505b92915050565b5f8173ffffffffffffffffffffffffffffffffffffffff168373ffffffffffffffffffffffffffffffffffffffff1614806146dc57505f73ffffffffffffffffffffffffffffffffffffffff168473ffffffffffffffffffffffffffffffffffffffff1663e6a4390585856040518363ffffffff1660e01b8152600401614684929190616114565b602060405180830381865afa15801561469f573d5f5f3e3d5ffd5b505050506040513d601f19601f820116820180604052508101906146c39190615971565b73ffffffffffffffffffffffffffffffffffffffff1614155b156146e9575f9050614a23565b5f604051806080016040528073c02aaa39b223fe8d0a0e5c4f27ead9083c756cc273ffffffffffffffffffffffffffffffffffffffff1673ffffffffffffffffffffffffffffffffffffffff16815260200173a0b86991c6218b36c1d19d4a2e9eb0ce3606eb4873ffffffffffffffffffffffffffffffffffffffff1673ffffffffffffffffffffffffffffffffffffffff16815260200173dac17f958d2ee523a2206206994597c13d831ec773ffffffffffffffffffffffffffffffffffffffff1673ffffffffffffffffffffffffffffffffffffffff168152602001736b175474e89094c44da98b954eedeac495271d0f73ffffffffffffffffffffffffffffffffffffffff1673ffffffffffffffffffffffffffffffffffffffff1681525090505f5f90505b6004811015614a1d575f82826004811061482f5761482e615157565b5b602002015190508573ffffffffffffffffffffffffffffffffffffffff168173ffffffffffffffffffffffffffffffffffffffff16148061489b57508473ffffffffffffffffffffffffffffffffffffffff168173ffffffffffffffffffffffffffffffffffffffff16145b156148a65750614a12565b5f73ffffffffffffffffffffffffffffffffffffffff168773ffffffffffffffffffffffffffffffffffffffff1663e6a4390588846040518363ffffffff1660e01b81526004016148f8929190616114565b602060405180830381865afa158015614913573d5f5f3e3d5ffd5b505050506040513d601f19601f820116820180604052508101906149379190615971565b73ffffffffffffffffffffffffffffffffffffffff1614158015614a0057505f73ffffffffffffffffffffffffffffffffffffffff168773ffffffffffffffffffffffffffffffffffffffff1663e6a4390583886040518363ffffffff1660e01b81526004016149a8929190616114565b602060405180830381865afa1580156149c3573d5f5f3e3d5ffd5b505050506040513d601f19601f820116820180604052508101906149e79190615971565b73ffffffffffffffffffffffffffffffffffffffff1614155b15614a1057809350505050614a23565b505b806001019050614812565b505f9150505b9392505050565b5f614a368585846134d2565b614a42575f9050614b74565b5f5f8673ffffffffffffffffffffffffffffffffffffffff16635e9a523c60e01b86604051602401614a7491906150c7565b604051602081830303815290604052907bffffffffffffffffffffffffffffffffffffffffffffffffffffffff19166020820180517bffffffffffffffffffffffffffffffffffffffffffffffffffffffff8381831617835250505050604051614ade9190615bd7565b5f60405180830381855afa9150503d805f8114614b16576040519150601f19603f3d011682016040523d82523d5f602084013e614b1b565b606091505b5091509150811580614b2e575060208151105b15614b3e57600192505050614b74565b5f81806020019051810190614b5391906158de565b90505f8114158015614b6e57505f851480614b6d57508481145b5b93505050505b949350505050565b5f5f5f8473ffffffffffffffffffffffffffffffffffffffff16630902f1ac6040518163ffffffff1660e01b8152600401606060405180830381865afa158015614bc8573d5f5f3e3d5ffd5b505050506040513d601f19601f82011682018060405250810190614bec91906162a2565b50915091508373ffffffffffffffffffffffffffffffffffffffff168573ffffffffffffffffffffffffffffffffffffffff16630dfe16816040518163ffffffff1660e01b8152600401602060405180830381865afa158015614c51573d5f5f3e3d5ffd5b505050506040513d601f19601f82011682018060405250810190614c759190615971565b73ffffffffffffffffffffffffffffffffffffffff1603614caa57816dffffffffffffffffffffffffffff1692505050614d69565b8373ffffffffffffffffffffffffffffffffffffffff168573ffffffffffffffffffffffffffffffffffffffff1663d21220a76040518163ffffffff1660e01b8152600401602060405180830381865afa158015614d0a573d5f5f3e3d5ffd5b505050506040513d601f19601f82011682018060405250810190614d2e9190615971565b73ffffffffffffffffffffffffffffffffffffffff1603614d6357806dffffffffffffffffffffffffffff1692505050614d69565b5f925050505b92915050565b5f60648211614d80575f9050614ddb565b5f61271083614d8f919061589a565b90505f8103614da857606483614da5919061589a565b90505b5f8103614dbf57600a83614dbc919061589a565b90505b828110614dd657600183614dd39190616079565b90505b809150505b919050565b6040518061014001604052805f73ffffffffffffffffffffffffffffffffffffffff1681526020015f73ffffffffffffffffffffffffffffffffffffffff1681526020015f73ffffffffffffffffffffffffffffffffffffffff1681526020015f81526020015f81526020015f81526020015f73ffffffffffffffffffffffffffffffffffffffff1681526020015f73ffffffffffffffffffffffffffffffffffffffff1681526020015f73ffffffffffffffffffffffffffffffffffffffff1681526020015f81525090565b6040518060c001604052805f73ffffffffffffffffffffffffffffffffffffffff1681526020015f73ffffffffffffffffffffffffffffffffffffffff1681526020015f73ffffffffffffffffffffffffffffffffffffffff1681526020015f81526020015f81526020015f73ffffffffffffffffffffffffffffffffffffffff1681525090565b5f604051905090565b5f5ffd5b5f5ffd5b5f73ffffffffffffffffffffffffffffffffffffffff82169050919050565b5f614f6f82614f46565b9050919050565b614f7f81614f65565b8114614f89575f5ffd5b50565b5f81359050614f9a81614f76565b92915050565b5f819050919050565b614fb281614fa0565b8114614fbc575f5ffd5b50565b5f81359050614fcd81614fa9565b92915050565b5f5ffd5b5f5ffd5b5f5ffd5b5f5f83601f840112614ff457614ff3614fd3565b5b8235905067ffffffffffffffff81111561501157615010614fd7565b5b60208301915083600182028301111561502d5761502c614fdb565b5b9250929050565b5f5f5f5f5f6080868803121561504d5761504c614f3e565b5b5f61505a88828901614f8c565b955050602061506b88828901614fbf565b945050604061507c88828901614fbf565b935050606086013567ffffffffffffffff81111561509d5761509c614f42565b5b6150a988828901614fdf565b92509250509295509295909350565b6150c181614f65565b82525050565b5f6020820190506150da5f8301846150b8565b92915050565b6150e981614fa0565b82525050565b5f6020820190506151025f8301846150e0565b92915050565b5f5ffd5b5f610140828403121561512257615121615108565b5b81905092915050565b5f610140828403121561514157615140614f3e565b5b5f61514e8482850161510c565b91505092915050565b7f4e487b71000000000000000000000000000000000000000000000000000000005f52603260045260245ffd5b61518d81614f65565b82525050565b61519c81614fa0565b82525050565b61014082015f8201516151b75f850182615184565b5060208201516151ca6020850182615184565b5060408201516151dd6040850182615184565b5060608201516151f06060850182615193565b5060808201516152036080850182615193565b5060a082015161521660a0850182615193565b5060c082015161522960c0850182615184565b5060e082015161523c60e0850182615184565b50610100820151615251610100850182615184565b50610120820151615266610120850182615193565b50505050565b5f610140820190506152805f8301846151a2565b92915050565b5f82825260208201905092915050565b7f6e6f2d70726f6669742d7265616c697a656400000000000000000000000000005f82015250565b5f6152ca601283615286565b91506152d582615296565b602082019050919050565b5f6020820190508181035f8301526152f7816152be565b9050919050565b7f73656c662d6f6e6c7900000000000000000000000000000000000000000000005f82015250565b5f615332600983615286565b915061533d826152fe565b602082019050919050565b5f6020820190508181035f83015261535f81615326565b9050919050565b5f5ffd5b5f601f19601f8301169050919050565b7f4e487b71000000000000000000000000000000000000000000000000000000005f52604160045260245ffd5b6153b08261536a565b810181811067ffffffffffffffff821117156153cf576153ce61537a565b5b80604052505050565b5f6153e1614f35565b90506153ed82826153a7565b919050565b5f610140828403121561540857615407615366565b5b6154136101406153d8565b90505f61542284828501614f8c565b5f83015250602061543584828501614f8c565b602083015250604061544984828501614f8c565b604083015250606061545d84828501614fbf565b606083015250608061547184828501614fbf565b60808301525060a061548584828501614fbf565b60a08301525060c061549984828501614f8c565b60c08301525060e06154ad84828501614f8c565b60e0830152506101006154c284828501614f8c565b610100830152506101206154d884828501614fbf565b6101208301525092915050565b5f61014082840312156154fb576154fa614f3e565b5b5f615508848285016153f2565b91505092915050565b7f6e6f2d66756e64696e672d726f757465000000000000000000000000000000005f82015250565b5f615545601083615286565b915061555082615511565b602082019050919050565b5f6020820190508181035f83015261557281615539565b9050919050565b7f6261642d73656e646572000000000000000000000000000000000000000000005f82015250565b5f6155ad600a83615286565b91506155b882615579565b602082019050919050565b5f6020820190508181035f8301526155da816155a1565b9050919050565b7f6261642d706169720000000000000000000000000000000000000000000000005f82015250565b5f615615600883615286565b9150615620826155e1565b602082019050919050565b5f6020820190508181035f83015261564281615609565b9050919050565b7f6261642d616d6f756e74000000000000000000000000000000000000000000005f82015250565b5f61567d600a83615286565b915061568882615649565b602082019050919050565b5f6020820190508181035f8301526156aa81615671565b9050919050565b5f67ffffffffffffffff8211156156cb576156ca61537a565b5b602082029050602081019050919050565b5f815190506156ea81614f76565b92915050565b5f6157026156fd846156b1565b6153d8565b9050808382526020820190506020840283018581111561572557615724614fdb565b5b835b8181101561574e578061573a88826156dc565b845260208401935050602081019050615727565b5050509392505050565b5f82601f83011261576c5761576b614fd3565b5b815161577c8482602086016156f0565b91505092915050565b5f6020828403121561579a57615799614f3e565b5b5f82015167ffffffffffffffff8111156157b7576157b6614f42565b5b6157c384828501615758565b91505092915050565b7f4e487b71000000000000000000000000000000000000000000000000000000005f52601160045260245ffd5b5f61580382614fa0565b915061580e83614fa0565b9250828201905080821115615826576158256157cc565b5b92915050565b5f61583682614fa0565b915061584183614fa0565b925082820261584f81614fa0565b91508282048414831517615866576158656157cc565b5b5092915050565b7f4e487b71000000000000000000000000000000000000000000000000000000005f52601260045260245ffd5b5f6158a482614fa0565b91506158af83614fa0565b9250826158bf576158be61586d565b5b828204905092915050565b5f815190506158d881614fa9565b92915050565b5f602082840312156158f3576158f2614f3e565b5b5f615900848285016158ca565b91505092915050565b7f6d696e742d6661696c65640000000000000000000000000000000000000000005f82015250565b5f61593d600b83615286565b915061594882615909565b602082019050919050565b5f6020820190508181035f83015261596a81615931565b9050919050565b5f6020828403121561598657615985614f3e565b5b5f615993848285016156dc565b91505092915050565b5f819050919050565b5f819050919050565b5f6159c86159c36159be8461599c565b6159a5565b614fa0565b9050919050565b6159d8816159ae565b82525050565b5f81519050919050565b5f82825260208201905092915050565b8281835e5f83830152505050565b5f615a10826159de565b615a1a81856159e8565b9350615a2a8185602086016159f8565b615a338161536a565b840191505092915050565b5f608082019050615a515f8301876150e0565b615a5e60208301866159cf565b615a6b60408301856150b8565b8181036060830152615a7d8184615a06565b905095945050505050565b7f706169722d6d69736d61746368000000000000000000000000000000000000005f82015250565b5f615abc600d83615286565b9150615ac782615a88565b602082019050919050565b5f6020820190508181035f830152615ae981615ab0565b9050919050565b5f608082019050615b035f8301876159cf565b615b1060208301866150e0565b615b1d60408301856150b8565b8181036060830152615b2f8184615a06565b905095945050505050565b5f60ff82169050919050565b5f615b60615b5b615b568461599c565b6159a5565b615b3a565b9050919050565b615b7081615b46565b82525050565b5f604082019050615b895f8301856150b8565b615b966020830184615b67565b9392505050565b5f81905092915050565b5f615bb1826159de565b615bbb8185615b9d565b9350615bcb8185602086016159f8565b80840191505092915050565b5f615be28284615ba7565b915081905092915050565b5f604082019050615c005f8301856150b8565b615c0d60208301846150e0565b9392505050565b5f8115159050919050565b615c2881615c14565b8114615c32575f5ffd5b50565b5f81519050615c4381615c1f565b92915050565b5f60208284031215615c5e57615c5d614f3e565b5b5f615c6b84828501615c35565b91505092915050565b7f617070726f76652d6661696c65640000000000000000000000000000000000005f82015250565b5f615ca8600e83615286565b9150615cb382615c74565b602082019050919050565b5f6020820190508181035f830152615cd581615c9c565b9050919050565b5f81519050919050565b5f82825260208201905092915050565b5f819050602082019050919050565b5f615d108383615184565b60208301905092915050565b5f602082019050919050565b5f615d3282615cdc565b615d3c8185615ce6565b9350615d4783615cf6565b805f5b83811015615d77578151615d5e8882615d05565b9750615d6983615d1c565b925050600181019050615d4a565b5085935050505092915050565b5f6020820190508181035f830152615d9c8184615d28565b905092915050565b5f67ffffffffffffffff821115615dbe57615dbd61537a565b5b602082029050602081019050919050565b5f615de1615ddc84615da4565b6153d8565b90508083825260208201905060208402830185811115615e0457615e03614fdb565b5b835b81811015615e2d5780615e1988826158ca565b845260208401935050602081019050615e06565b5050509392505050565b5f82601f830112615e4b57615e4a614fd3565b5b8151615e5b848260208601615dcf565b91505092915050565b5f60208284031215615e7957615e78614f3e565b5b5f82015167ffffffffffffffff811115615e9657615e95614f42565b5b615ea284828501615e37565b91505092915050565b7f656e7465722d6661696c656400000000000000000000000000000000000000005f82015250565b5f615edf600c83615286565b9150615eea82615eab565b602082019050919050565b5f6020820190508181035f830152615f0c81615ed3565b9050919050565b7f6f7261636c652d7365742d6661696c65640000000000000000000000000000005f82015250565b5f615f47601183615286565b9150615f5282615f13565b602082019050919050565b5f6020820190508181035f830152615f7481615f3b565b9050919050565b7f6e6f2d626f72726f772d6d61726b6574000000000000000000000000000000005f82015250565b5f615faf601083615286565b9150615fba82615f7b565b602082019050919050565b5f6020820190508181035f830152615fdc81615fa3565b9050919050565b5f60a082019050615ff65f8301886150e0565b61600360208301876150e0565b81810360408301526160158186615d28565b905061602460608301856150b8565b61603160808301846150e0565b9695505050505050565b5f5f6040838503121561605157616050614f3e565b5b5f61605e85828601615c35565b925050602061606f858286016158ca565b9150509250929050565b5f61608382614fa0565b915061608e83614fa0565b92508282039050818111156160a6576160a56157cc565b5b92915050565b7f7472616e736665722d6661696c656400000000000000000000000000000000005f82015250565b5f6160e0600f83615286565b91506160eb826160ac565b602082019050919050565b5f6020820190508181035f83015261610d816160d4565b9050919050565b5f6040820190506161275f8301856150b8565b61613460208301846150b8565b9392505050565b5f61614582614f46565b9050919050565b6161558161613b565b811461615f575f5ffd5b50565b5f815190506161708161614c565b92915050565b5f6020828403121561618b5761618a614f3e565b5b5f61619884828501616162565b91505092915050565b5f5f5f606084860312156161b8576161b7614f3e565b5b5f6161c5868287016158ca565b93505060206161d6868287016158ca565b92505060406161e7868287016158ca565b9150509250925092565b5f6060820190506162045f8301866150b8565b61621160208301856150b8565b61621e60408301846150e0565b949350505050565b5f6dffffffffffffffffffffffffffff82169050919050565b61624881616226565b8114616252575f5ffd5b50565b5f815190506162638161623f565b92915050565b5f63ffffffff82169050919050565b61628181616269565b811461628b575f5ffd5b50565b5f8151905061629c81616278565b92915050565b5f5f5f606084860312156162b9576162b8614f3e565b5b5f6162c686828701616255565b93505060206162d786828701616255565b92505060406162e88682870161628e565b915050925092509256fea2646970667358221220807b60366f553a1fce20278c4a7daa1038108d97c5284a14e0ab28882141df1464736f6c634300081e0033","linkReferences":{}},"methodIdentifiers":{"TARGET_COMPTROLLER()":"68510be1","executeCandidate((address,address,address,uint256,uint256,uint256,address,address,address,uint256))":"ae42fd20","executeOnOpportunity()":"3c2448ed","profitAmount()":"5ff972cc","profitToken()":"49343624","sushiCall(address,uint256,uint256,bytes)":"00991403","uniswapV2Call(address,uint256,uint256,bytes)":"10d1e85c"},"id":0}