{"abi":[{"type":"constructor","inputs":[],"stateMutability":"nonpayable"},{"type":"receive","stateMutability":"payable"},{"type":"function","name":"MIM","inputs":[],"outputs":[{"name":"","type":"address","internalType":"address"}],"stateMutability":"view"},{"type":"function","name":"SUSHI_ROUTER","inputs":[],"outputs":[{"name":"","type":"address","internalType":"address"}],"stateMutability":"view"},{"type":"function","name":"TARGET","inputs":[],"outputs":[{"name":"","type":"address","internalType":"contract ICauldronV4Like"}],"stateMutability":"view"},{"type":"function","name":"TARGET_CAULDRON","inputs":[],"outputs":[{"name":"","type":"address","internalType":"address"}],"stateMutability":"view"},{"type":"function","name":"UNISWAP_V2_ROUTER","inputs":[],"outputs":[{"name":"","type":"address","internalType":"address"}],"stateMutability":"view"},{"type":"function","name":"WETH","inputs":[],"outputs":[{"name":"","type":"address","internalType":"address"}],"stateMutability":"view"},{"type":"function","name":"borrowedAmount","inputs":[],"outputs":[{"name":"","type":"uint256","internalType":"uint256"}],"stateMutability":"view"},{"type":"function","name":"borrowedPart","inputs":[],"outputs":[{"name":"","type":"uint256","internalType":"uint256"}],"stateMutability":"view"},{"type":"function","name":"borrowedShare","inputs":[],"outputs":[{"name":"","type":"uint256","internalType":"uint256"}],"stateMutability":"view"},{"type":"function","name":"collateralShareAdded","inputs":[],"outputs":[{"name":"","type":"uint256","internalType":"uint256"}],"stateMutability":"view"},{"type":"function","name":"collateralToken","inputs":[],"outputs":[{"name":"","type":"address","internalType":"address"}],"stateMutability":"view"},{"type":"function","name":"convexDepositToken","inputs":[],"outputs":[{"name":"","type":"address","internalType":"address"}],"stateMutability":"view"},{"type":"function","name":"curveLpToken","inputs":[],"outputs":[{"name":"","type":"address","internalType":"address"}],"stateMutability":"view"},{"type":"function","name":"exchangeRateAfterBorrow","inputs":[],"outputs":[{"name":"","type":"uint256","internalType":"uint256"}],"stateMutability":"view"},{"type":"function","name":"exchangeRateBefore","inputs":[],"outputs":[{"name":"","type":"uint256","internalType":"uint256"}],"stateMutability":"view"},{"type":"function","name":"execute","inputs":[],"outputs":[{"name":"profitAmount","type":"uint256","internalType":"uint256"}],"stateMutability":"nonpayable"},{"type":"function","name":"executeTo","inputs":[{"name":"recipient","type":"address","internalType":"address"}],"outputs":[{"name":"profitAmount","type":"uint256","internalType":"uint256"}],"stateMutability":"nonpayable"},{"type":"function","name":"executeWithAmount","inputs":[{"name":"amount","type":"uint256","internalType":"uint256"},{"name":"zeroFeeOnly","type":"bool","internalType":"bool"}],"outputs":[{"name":"profitAmount","type":"uint256","internalType":"uint256"}],"stateMutability":"nonpayable"},{"type":"function","name":"exploit","inputs":[],"outputs":[{"name":"profitAmount","type":"uint256","internalType":"uint256"}],"stateMutability":"nonpayable"},{"type":"function","name":"exploitCurrentlyFeasible","inputs":[],"outputs":[{"name":"","type":"bool","internalType":"bool"}],"stateMutability":"view"},{"type":"function","name":"feeBuybackUsed","inputs":[],"outputs":[{"name":"","type":"bool","internalType":"bool"}],"stateMutability":"view"},{"type":"function","name":"flashAmount","inputs":[],"outputs":[{"name":"","type":"uint256","internalType":"uint256"}],"stateMutability":"view"},{"type":"function","name":"flashFee","inputs":[],"outputs":[{"name":"","type":"uint256","internalType":"uint256"}],"stateMutability":"view"},{"type":"function","name":"hypothesisValidated","inputs":[],"outputs":[{"name":"","type":"bool","internalType":"bool"}],"stateMutability":"view"},{"type":"function","name":"lastAttemptRevertData","inputs":[],"outputs":[{"name":"","type":"bytes","internalType":"bytes"}],"stateMutability":"view"},{"type":"function","name":"lastBorrowAmount","inputs":[],"outputs":[{"name":"","type":"uint256","internalType":"uint256"}],"stateMutability":"view"},{"type":"function","name":"lastBorrowPart","inputs":[],"outputs":[{"name":"","type":"uint256","internalType":"uint256"}],"stateMutability":"view"},{"type":"function","name":"lastProfitAmount","inputs":[],"outputs":[{"name":"","type":"uint256","internalType":"uint256"}],"stateMutability":"view"},{"type":"function","name":"lastProfitToken","inputs":[],"outputs":[{"name":"","type":"address","internalType":"address"}],"stateMutability":"view"},{"type":"function","name":"mimProfitAmount","inputs":[],"outputs":[{"name":"","type":"uint256","internalType":"uint256"}],"stateMutability":"view"},{"type":"function","name":"onFlashLoan","inputs":[{"name":"sender","type":"address","internalType":"address"},{"name":"token","type":"address","internalType":"contract IERC20Like"},{"name":"amount","type":"uint256","internalType":"uint256"},{"name":"fee","type":"uint256","internalType":"uint256"},{"name":"","type":"bytes","internalType":"bytes"}],"outputs":[],"stateMutability":"nonpayable"},{"type":"function","name":"positionReportedSolvent","inputs":[],"outputs":[{"name":"","type":"bool","internalType":"bool"}],"stateMutability":"view"},{"type":"function","name":"previewBorrowAmount","inputs":[],"outputs":[{"name":"amount","type":"uint256","internalType":"uint256"}],"stateMutability":"view"},{"type":"function","name":"previewProfitToken","inputs":[],"outputs":[{"name":"","type":"address","internalType":"address"}],"stateMutability":"pure"},{"type":"function","name":"probeBorrow","inputs":[{"name":"amount","type":"uint256","internalType":"uint256"}],"outputs":[],"stateMutability":"nonpayable"},{"type":"function","name":"requireZeroFee","inputs":[],"outputs":[{"name":"","type":"bool","internalType":"bool"}],"stateMutability":"view"},{"type":"function","name":"run","inputs":[],"outputs":[{"name":"profitAmount","type":"uint256","internalType":"uint256"}],"stateMutability":"nonpayable"},{"type":"function","name":"sweep","inputs":[{"name":"token","type":"address","internalType":"address"},{"name":"to","type":"address","internalType":"address"}],"outputs":[{"name":"amount","type":"uint256","internalType":"uint256"}],"stateMutability":"nonpayable"},{"type":"function","name":"underlyingToken","inputs":[],"outputs":[{"name":"","type":"address","internalType":"address"}],"stateMutability":"view"},{"type":"function","name":"zeroRateObserved","inputs":[],"outputs":[{"name":"","type":"bool","internalType":"bool"}],"stateMutability":"view"},{"type":"error","name":"ConcretePreconditionFailed","inputs":[{"name":"reason","type":"string","internalType":"string"}]},{"type":"error","name":"FlashLoanCallerMismatch","inputs":[{"name":"expected","type":"address","internalType":"address"},{"name":"actual","type":"address","internalType":"address"}]},{"type":"error","name":"FlashLoanSenderMismatch","inputs":[{"name":"expected","type":"address","internalType":"address"},{"name":"actual","type":"address","internalType":"address"}]},{"type":"error","name":"FlashLoanTokenMismatch","inputs":[{"name":"expected","type":"address","internalType":"address"},{"name":"actual","type":"address","internalType":"address"}]},{"type":"error","name":"ProbeBorrowSucceeded","inputs":[{"name":"part","type":"uint256","internalType":"uint256"},{"name":"share","type":"uint256","internalType":"uint256"}]}],"bytecode":{"object":"0x6080604052348015600e575f5ffd5b507399d8a9c45b2eca8864373a26d1459e3dff1e17f3601060066101000a81548173ffffffffffffffffffffffffffffffffffffffff021916908373ffffffffffffffffffffffffffffffffffffffff160217905550617b3d806100715f395ff3fe60806040526004361061023e575f3560e01c806399c0a86a1161012d578063c0406226116100aa578063daec383d1161006e578063daec383d14610839578063e07df5b414610863578063e08313351461088d578063fdc0fe37146108b7578063fe87c375146108e157610245565b8063c040622614610767578063c05759bf14610791578063ca8ccab6146107bb578063cc1f2afa146107e5578063d40d4fdf1461080f57610245565b8063b0b62eeb116100f1578063b0b62eeb14610683578063b2016bd4146106ad578063b570137a146106d7578063b8dc491b14610701578063bd7a598c1461073d57610245565b806399c0a86a1461059f578063a6e59f53146105c9578063a82ed9ec146105f3578063ad5c46481461061d578063ada2c46d1461064757610245565b806352d11fb4116101bb578063646780df1161017f578063646780df146104cd5780636849901c146104f75780636dcb957514610521578063715f7abb1461054b57806397f373991461057557610245565b806352d11fb4146103fb5780635eb143ce14610425578063614619541461044f5780636236fa781461047957806363d9b770146104a357610245565b80633e5a6654116102025780633e5a6654146103195780634071084d14610343578063463defd11461036d5780634e9b83df146103975780634ee8f105146103d357610245565b80630c24f4fa146102495780631afbb7a41461027357806323e30c8b1461029d5780632495a599146102c557806337c9f5a4146102ef57610245565b3661024557005b5f5ffd5b348015610254575f5ffd5b5061025d61090b565b60405161026a9190616012565b60405180910390f35b34801561027e575f5ffd5b50610287610923565b6040516102949190616043565b60405180910390f35b3480156102a8575f5ffd5b506102c360048036038101906102be919061615d565b610929565b005b3480156102d0575f5ffd5b506102d96113aa565b6040516102e69190616012565b60405180910390f35b3480156102fa575f5ffd5b506103036113cf565b604051610310919061620d565b60405180910390f35b348015610324575f5ffd5b5061032d6113e2565b60405161033a919061620d565b60405180910390f35b34801561034e575f5ffd5b506103576113f5565b6040516103649190616043565b60405180910390f35b348015610378575f5ffd5b506103816113fb565b60405161038e919061620d565b60405180910390f35b3480156103a2575f5ffd5b506103bd60048036038101906103b89190616250565b61140e565b6040516103ca9190616043565b60405180910390f35b3480156103de575f5ffd5b506103f960048036038101906103f4919061628e565b611429565b005b348015610406575f5ffd5b5061040f6114e5565b60405161041c9190616043565b60405180910390f35b348015610430575f5ffd5b506104396114eb565b6040516104469190616012565b60405180910390f35b34801561045a575f5ffd5b50610463611510565b6040516104709190616043565b60405180910390f35b348015610484575f5ffd5b5061048d61151e565b60405161049a9190616012565b60405180910390f35b3480156104ae575f5ffd5b506104b7611544565b6040516104c49190616043565b60405180910390f35b3480156104d8575f5ffd5b506104e1611552565b6040516104ee9190616012565b60405180910390f35b348015610502575f5ffd5b5061050b611577565b6040516105189190616043565b60405180910390f35b34801561052c575f5ffd5b5061053561157d565b6040516105429190616043565b60405180910390f35b348015610556575f5ffd5b5061055f611583565b60405161056c9190616043565b60405180910390f35b348015610580575f5ffd5b50610589611589565b6040516105969190616043565b60405180910390f35b3480156105aa575f5ffd5b506105b3611597565b6040516105c0919061620d565b60405180910390f35b3480156105d4575f5ffd5b506105dd6115aa565b6040516105ea9190616043565b60405180910390f35b3480156105fe575f5ffd5b506106076115b0565b6040516106149190616012565b60405180910390f35b348015610628575f5ffd5b506106316115c8565b60405161063e9190616012565b60405180910390f35b348015610652575f5ffd5b5061066d600480360381019061066891906162b9565b6115e0565b60405161067a9190616043565b60405180910390f35b34801561068e575f5ffd5b50610697611690565b6040516106a49190616043565b60405180910390f35b3480156106b8575f5ffd5b506106c1611696565b6040516106ce9190616012565b60405180910390f35b3480156106e2575f5ffd5b506106eb6116ba565b6040516106f89190616043565b60405180910390f35b34801561070c575f5ffd5b50610727600480360381019061072291906162e4565b6116c0565b6040516107349190616043565b60405180910390f35b348015610748575f5ffd5b506107516117b1565b60405161075e9190616012565b60405180910390f35b348015610772575f5ffd5b5061077b6117c9565b6040516107889190616043565b60405180910390f35b34801561079c575f5ffd5b506107a56117d7565b6040516107b2919061620d565b60405180910390f35b3480156107c6575f5ffd5b506107cf6117ea565b6040516107dc9190616043565b60405180910390f35b3480156107f0575f5ffd5b506107f96117f0565b604051610806919061637d565b60405180910390f35b34801561081a575f5ffd5b50610823611808565b604051610830919061620d565b60405180910390f35b348015610844575f5ffd5b5061084d61181a565b60405161085a9190616012565b60405180910390f35b34801561086e575f5ffd5b50610877611832565b6040516108849190616043565b60405180910390f35b348015610898575f5ffd5b506108a1611838565b6040516108ae9190616043565b60405180910390f35b3480156108c2575f5ffd5b506108cb61183e565b6040516108d89190616406565b60405180910390f35b3480156108ec575f5ffd5b506108f56118ca565b6040516109029190616012565b60405180910390f35b73d9e1ce17f2641f24ae83637ab66a2cca9c378b9f81565b60095481565b5f7346f54d434063e5f1a2b2cc6d9aaa657b1b9ff82c73ffffffffffffffffffffffffffffffffffffffff16636b2ace876040518163ffffffff1660e01b8152600401602060405180830381865afa158015610987573d5f5f3e3d5ffd5b505050506040513d601f19601f820116820180604052508101906109ab919061643a565b90508073ffffffffffffffffffffffffffffffffffffffff163373ffffffffffffffffffffffffffffffffffffffff1614610a1f5780336040517fc86f3733000000000000000000000000000000000000000000000000000000008152600401610a16929190616465565b60405180910390fd5b3073ffffffffffffffffffffffffffffffffffffffff168773ffffffffffffffffffffffffffffffffffffffff1614610a915730876040517fe5b688a1000000000000000000000000000000000000000000000000000000008152600401610a88929190616465565b60405180910390fd5b5f5f9054906101000a900473ffffffffffffffffffffffffffffffffffffffff1673ffffffffffffffffffffffffffffffffffffffff168673ffffffffffffffffffffffffffffffffffffffff1614610b43575f5f9054906101000a900473ffffffffffffffffffffffffffffffffffffffff16866040517f7c35bd10000000000000000000000000000000000000000000000000000000008152600401610b3a929190616465565b60405180910390fd5b601060039054906101000a900460ff168015610b5f57505f8414155b15610b9f576040517f67fb15b1000000000000000000000000000000000000000000000000000000008152600401610b96906164e6565b60405180910390fd5b8460048190555083600581905550610bd85f5f9054906101000a900473ffffffffffffffffffffffffffffffffffffffff1682876118e5565b8073ffffffffffffffffffffffffffffffffffffffff166302b9446c5f5f9054906101000a900473ffffffffffffffffffffffffffffffffffffffff16307346f54d434063e5f1a2b2cc6d9aaa657b1b9ff82c895f6040518663ffffffff1660e01b8152600401610c4d95949392919061653d565b60408051808303815f875af1158015610c68573d5f5f3e3d5ffd5b505050506040513d601f19601f82011682018060405250810190610c8c91906165a2565b905060085f8291905055505f60085403610cdb576040517f67fb15b1000000000000000000000000000000000000000000000000000000008152600401610cd29061662a565b60405180910390fd5b7346f54d434063e5f1a2b2cc6d9aaa657b1b9ff82c73ffffffffffffffffffffffffffffffffffffffff1663860ffea13060016008546040518463ffffffff1660e01b8152600401610d2f93929190616648565b5f604051808303815f87803b158015610d46575f5ffd5b505af1158015610d58573d5f5f3e3d5ffd5b505050505f7346f54d434063e5f1a2b2cc6d9aaa657b1b9ff82c73ffffffffffffffffffffffffffffffffffffffff16631c9e379b306040518263ffffffff1660e01b8152600401610daa9190616012565b602060405180830381865afa158015610dc5573d5f5f3e3d5ffd5b505050506040513d601f19601f82011682018060405250810190610de9919061667d565b03610e29576040517f67fb15b1000000000000000000000000000000000000000000000000000000008152600401610e20906166f2565b60405180910390fd5b610e31611b7e565b6009819055505f60095403610e7b576040517f67fb15b1000000000000000000000000000000000000000000000000000000008152600401610e729061675a565b60405180910390fd5b610e86600954611cd7565b600a5f600b5f8491905055839190505550505f7346f54d434063e5f1a2b2cc6d9aaa657b1b9ff82c73ffffffffffffffffffffffffffffffffffffffff166348e4163e306040518263ffffffff1660e01b8152600401610ee69190616012565b602060405180830381865afa158015610f01573d5f5f3e3d5ffd5b505050506040513d601f19601f82011682018060405250810190610f25919061667d565b03610f65576040517f67fb15b1000000000000000000000000000000000000000000000000000000008152600401610f5c906167c2565b60405180910390fd5b7346f54d434063e5f1a2b2cc6d9aaa657b1b9ff82c73ffffffffffffffffffffffffffffffffffffffff16633ba0b9a96040518163ffffffff1660e01b8152600401602060405180830381865afa158015610fc2573d5f5f3e3d5ffd5b505050506040513d601f19601f82011682018060405250810190610fe6919061667d565b6007819055505f6007540361101057600160105f6101000a81548160ff0219169083151502179055505b7346f54d434063e5f1a2b2cc6d9aaa657b1b9ff82c73ffffffffffffffffffffffffffffffffffffffff166338b51ce1306040518263ffffffff1660e01b815260040161105d9190616012565b602060405180830381865afa158015611078573d5f5f3e3d5ffd5b505050506040513d601f19601f8201168201806040525081019061109c91906167f4565b601060026101000a81548160ff021916908315150217905550601060029054906101000a900460ff16611104576040517f67fb15b10000000000000000000000000000000000000000000000000000000081526004016110fb90616869565b60405180910390fd5b6111217399d8a9c45b2eca8864373a26d1459e3dff1e17f36121d2565b5f848661112e91906168b4565b90505f5f5f9054906101000a900473ffffffffffffffffffffffffffffffffffffffff1673ffffffffffffffffffffffffffffffffffffffff166370a08231306040518263ffffffff1660e01b815260040161118a9190616012565b602060405180830381865afa1580156111a5573d5f5f3e3d5ffd5b505050506040513d601f19601f820116820180604052508101906111c9919061667d565b905081811015611203576111e781836111e291906168e7565b612362565b6001601060046101000a81548160ff0219169083151502179055505b5f5f5f9054906101000a900473ffffffffffffffffffffffffffffffffffffffff1673ffffffffffffffffffffffffffffffffffffffff166370a08231306040518263ffffffff1660e01b815260040161125d9190616012565b602060405180830381865afa158015611278573d5f5f3e3d5ffd5b505050506040513d601f19601f8201168201806040525081019061129c919061667d565b9050828110156112e1576040517f67fb15b10000000000000000000000000000000000000000000000000000000081526004016112d89061698a565b60405180910390fd5b61130c5f5f9054906101000a900473ffffffffffffffffffffffffffffffffffffffff1685856124e6565b7399d8a9c45b2eca8864373a26d1459e3dff1e17f373ffffffffffffffffffffffffffffffffffffffff166370a08231306040518263ffffffff1660e01b81526004016113599190616012565b602060405180830381865afa158015611374573d5f5f3e3d5ffd5b505050506040513d601f19601f82011682018060405250810190611398919061667d565b600c8190555050505050505050505050565b60015f9054906101000a900473ffffffffffffffffffffffffffffffffffffffff1681565b601060019054906101000a900460ff1681565b601060039054906101000a900460ff1681565b60085481565b601060059054906101000a900460ff1681565b5f611417612635565b6114218383612c6a565b905092915050565b3073ffffffffffffffffffffffffffffffffffffffff163373ffffffffffffffffffffffffffffffffffffffff1614611497576040517f67fb15b100000000000000000000000000000000000000000000000000000000815260040161148e906169f2565b60405180910390fd5b5f5f6114a283611cd7565b9150915081816040517f079d7b930000000000000000000000000000000000000000000000000000000081526004016114dc929190616a10565b60405180910390fd5b600b5481565b60035f9054906101000a900473ffffffffffffffffffffffffffffffffffffffff1681565b5f611519612fb7565b905090565b601060069054906101000a900473ffffffffffffffffffffffffffffffffffffffff1681565b5f61154d612fb7565b905090565b60025f9054906101000a900473ffffffffffffffffffffffffffffffffffffffff1681565b60075481565b600f5481565b600c5481565b5f6115926135d9565b905090565b601060029054906101000a900460ff1681565b600e5481565b737a250d5630b4cf539739df2c5dacb4c659f2488d81565b73c02aaa39b223fe8d0a0e5c4f27ead9083c756cc281565b5f6115e9612fb7565b90505f811415801561162757505f73ffffffffffffffffffffffffffffffffffffffff168273ffffffffffffffffffffffffffffffffffffffff1614155b801561165f57503073ffffffffffffffffffffffffffffffffffffffff168273ffffffffffffffffffffffffffffffffffffffff1614155b1561168b576116837399d8a9c45b2eca8864373a26d1459e3dff1e17f383836124e6565b5f600f819055505b919050565b600a5481565b5f5f9054906101000a900473ffffffffffffffffffffffffffffffffffffffff1681565b60045481565b5f8273ffffffffffffffffffffffffffffffffffffffff166370a08231306040518263ffffffff1660e01b81526004016116fa9190616012565b602060405180830381865afa158015611715573d5f5f3e3d5ffd5b505050506040513d601f19601f82011682018060405250810190611739919061667d565b90505f811461174e5761174d8383836124e6565b5b601060069054906101000a900473ffffffffffffffffffffffffffffffffffffffff1673ffffffffffffffffffffffffffffffffffffffff168373ffffffffffffffffffffffffffffffffffffffff16036117ab575f600f819055505b92915050565b7346f54d434063e5f1a2b2cc6d9aaa657b1b9ff82c81565b5f6117d2612fb7565b905090565b601060049054906101000a900460ff1681565b600d5481565b7346f54d434063e5f1a2b2cc6d9aaa657b1b9ff82c81565b60105f9054906101000a900460ff1681565b7399d8a9c45b2eca8864373a26d1459e3dff1e17f381565b60055481565b60065481565b6011805461184b90616a64565b80601f016020809104026020016040519081016040528092919081815260200182805461187790616a64565b80156118c25780601f10611899576101008083540402835291602001916118c2565b820191905f5260205f20905b8154815290600101906020018083116118a557829003601f168201915b505050505081565b5f7399d8a9c45b2eca8864373a26d1459e3dff1e17f3905090565b5f5f8473ffffffffffffffffffffffffffffffffffffffff1663095ea7b360e01b855f604051602401611919929190616ad0565b604051602081830303815290604052907bffffffffffffffffffffffffffffffffffffffffffffffffffffffff19166020820180517bffffffffffffffffffffffffffffffffffffffffffffffffffffffff83818316178352505050506040516119839190616b31565b5f604051808303815f865af19150503d805f81146119bc576040519150601f19603f3d011682016040523d82523d5f602084013e6119c1565b606091505b50915091508180156119ee57505f815114806119ed5750808060200190518101906119ec91906167f4565b5b5b611a2d576040517f08c379a0000000000000000000000000000000000000000000000000000000008152600401611a2490616b91565b60405180910390fd5b8473ffffffffffffffffffffffffffffffffffffffff1663095ea7b360e01b8585604051602401611a5f929190616baf565b604051602081830303815290604052907bffffffffffffffffffffffffffffffffffffffffffffffffffffffff19166020820180517bffffffffffffffffffffffffffffffffffffffffffffffffffffffff8381831617835250505050604051611ac99190616b31565b5f604051808303815f865af19150503d805f8114611b02576040519150601f19603f3d011682016040523d82523d5f602084013e611b07565b606091505b508092508193505050818015611b3857505f81511480611b37575080806020019051810190611b3691906167f4565b5b5b611b77576040517f08c379a0000000000000000000000000000000000000000000000000000000008152600401611b6e90616c20565b60405180910390fd5b5050505050565b5f5f611b886135d9565b90505f8103611b9a575f915050611cd4565b60105f9054906101000a900460ff1615611bd0578091506001821115611bca57600182611bc791906168e7565b91505b50611cd4565b5f611bd9613b82565b90505f8103611bec575f92505050611cd4565b611bf68282613f53565b92505f8303611c09575f92505050611cd4565b5f6127106126ac85611c1b9190616c3e565b611c259190616cac565b90505f8114611c32578093505b611c3b84613f6b565b15611c4857505050611cd4565b5f8490505f5f90505f5f90505b601881108015611c705750600182611c6d91906168b4565b83115b15611cb6575f60018484611c8491906168b4565b901c9050611c9181613f6b565b15611c9e57809250611ca2565b8093505b508080611cae90616cdc565b915050611c55565b505f8103611ccb575f95505050505050611cd4565b80955050505050505b90565b5f5f5f5f7346f54d434063e5f1a2b2cc6d9aaa657b1b9ff82c73ffffffffffffffffffffffffffffffffffffffff16633ba0b9a96040518163ffffffff1660e01b8152600401602060405180830381865afa158015611d38573d5f5f3e3d5ffd5b505050506040513d601f19601f82011682018060405250810190611d5c919061667d565b141590505f81611d6d576001611d70565b60025b60ff1690505f8167ffffffffffffffff811115611d9057611d8f616d23565b5b604051908082528060200260200182016040528015611dbe5781602001602082028036833780820191505090505b5090505f8267ffffffffffffffff811115611ddc57611ddb616d23565b5b604051908082528060200260200182016040528015611e0a5781602001602082028036833780820191505090505b5090505f8367ffffffffffffffff811115611e2857611e27616d23565b5b604051908082528060200260200182016040528015611e5b57816020015b6060815260200190600190039081611e465790505b5090505f8515611ef557600b845f81518110611e7a57611e79616d50565b5b602002602001019060ff16908160ff16815250505f835f81518110611ea257611ea1616d50565b5b6020026020010181815250505f5f5f604051602001611ec393929190616d7d565b604051602081830303815290604052825f81518110611ee557611ee4616d50565b5b6020026020010181905250600190505b6005848281518110611f0a57611f09616d50565b5b602002602001019060ff16908160ff16815250505f838281518110611f3257611f31616d50565b5b6020026020010181815250508830604051602001611f51929190616dca565b604051602081830303815290604052828281518110611f7357611f72616d50565b5b60200260200101819052507346f54d434063e5f1a2b2cc6d9aaa657b1b9ff82c73ffffffffffffffffffffffffffffffffffffffff1663656f3d648585856040518463ffffffff1660e01b8152600401611fcf93929190617062565b60408051808303815f875af1158015611fea573d5f5f3e3d5ffd5b505050506040513d601f19601f8201168201806040525081019061200e91906165a2565b80985081995050505f88148061202357505f87145b156121c7577346f54d434063e5f1a2b2cc6d9aaa657b1b9ff82c73ffffffffffffffffffffffffffffffffffffffff166348e4163e306040518263ffffffff1660e01b81526004016120759190616012565b602060405180830381865afa158015612090573d5f5f3e3d5ffd5b505050506040513d601f19601f820116820180604052508101906120b4919061667d565b97507346f54d434063e5f1a2b2cc6d9aaa657b1b9ff82c73ffffffffffffffffffffffffffffffffffffffff16636b2ace876040518163ffffffff1660e01b8152600401602060405180830381865afa158015612113573d5f5f3e3d5ffd5b505050506040513d601f19601f82011682018060405250810190612137919061643a565b73ffffffffffffffffffffffffffffffffffffffff1663f7888aec7399d8a9c45b2eca8864373a26d1459e3dff1e17f3306040518363ffffffff1660e01b8152600401612185929190616465565b602060405180830381865afa1580156121a0573d5f5f3e3d5ffd5b505050506040513d601f19601f820116820180604052508101906121c4919061667d565b96505b505050505050915091565b5f7346f54d434063e5f1a2b2cc6d9aaa657b1b9ff82c73ffffffffffffffffffffffffffffffffffffffff16636b2ace876040518163ffffffff1660e01b8152600401602060405180830381865afa158015612230573d5f5f3e3d5ffd5b505050506040513d601f19601f82011682018060405250810190612254919061643a565b90505f8173ffffffffffffffffffffffffffffffffffffffff1663f7888aec84306040518363ffffffff1660e01b8152600401612292929190616465565b602060405180830381865afa1580156122ad573d5f5f3e3d5ffd5b505050506040513d601f19601f820116820180604052508101906122d1919061667d565b90505f811461235d578173ffffffffffffffffffffffffffffffffffffffff166397da6d308430305f866040518663ffffffff1660e01b815260040161231b9594939291906170ac565b60408051808303815f875af1158015612336573d5f5f3e3d5ffd5b505050506040513d601f19601f8201168201806040525081019061235a91906165a2565b50505b505050565b5f8103156124e3576123a97399d8a9c45b2eca8864373a26d1459e3dff1e17f35f5f9054906101000a900473ffffffffffffffffffffffffffffffffffffffff16836140d9565b6124e3575f60015f9054906101000a900473ffffffffffffffffffffffffffffffffffffffff1690505f73ffffffffffffffffffffffffffffffffffffffff168173ffffffffffffffffffffffffffffffffffffffff161415801561245a57505f5f9054906101000a900473ffffffffffffffffffffffffffffffffffffffff1673ffffffffffffffffffffffffffffffffffffffff168173ffffffffffffffffffffffffffffffffffffffff1614155b156124a8575f6124698361447f565b905061248a7399d8a9c45b2eca8864373a26d1459e3dff1e17f383836140d9565b801561249a57506124996147e1565b5b156124a65750506124e3565b505b6040517f67fb15b10000000000000000000000000000000000000000000000000000000081526004016124da90617147565b60405180910390fd5b50565b5f5f8473ffffffffffffffffffffffffffffffffffffffff1663a9059cbb60e01b858560405160240161251a929190616baf565b604051602081830303815290604052907bffffffffffffffffffffffffffffffffffffffffffffffffffffffff19166020820180517bffffffffffffffffffffffffffffffffffffffffffffffffffffffff83818316178352505050506040516125849190616b31565b5f604051808303815f865af19150503d805f81146125bd576040519150601f19603f3d011682016040523d82523d5f602084013e6125c2565b606091505b50915091508180156125ef57505f815114806125ee5750808060200190518101906125ed91906167f4565b5b5b61262e576040517f08c379a0000000000000000000000000000000000000000000000000000000008152600401612625906171af565b60405180910390fd5b5050505050565b7346f54d434063e5f1a2b2cc6d9aaa657b1b9ff82c73ffffffffffffffffffffffffffffffffffffffff1663d8dfeb456040518163ffffffff1660e01b8152600401602060405180830381865afa158015612692573d5f5f3e3d5ffd5b505050506040513d601f19601f820116820180604052508101906126b6919061643a565b5f5f6101000a81548173ffffffffffffffffffffffffffffffffffffffff021916908373ffffffffffffffffffffffffffffffffffffffff1602179055505f73ffffffffffffffffffffffffffffffffffffffff165f5f9054906101000a900473ffffffffffffffffffffffffffffffffffffffff1673ffffffffffffffffffffffffffffffffffffffff1603612782576040517f67fb15b100000000000000000000000000000000000000000000000000000000815260040161277990617217565b60405180910390fd5b61282e5f5f9054906101000a900473ffffffffffffffffffffffffffffffffffffffff166040516024016040516020818303038152906040527f4f39059c000000000000000000000000000000000000000000000000000000007bffffffffffffffffffffffffffffffffffffffffffffffffffffffff19166020820180517bffffffffffffffffffffffffffffffffffffffffffffffffffffffff8381831617835250505050614c83565b60025f6101000a81548173ffffffffffffffffffffffffffffffffffffffff021916908373ffffffffffffffffffffffffffffffffffffffff1602179055506129195f5f9054906101000a900473ffffffffffffffffffffffffffffffffffffffff166040516024016040516020818303038152906040527fe89133b2000000000000000000000000000000000000000000000000000000007bffffffffffffffffffffffffffffffffffffffffffffffffffffffff19166020820180517bffffffffffffffffffffffffffffffffffffffffffffffffffffffff8381831617835250505050614c83565b60035f6101000a81548173ffffffffffffffffffffffffffffffffffffffff021916908373ffffffffffffffffffffffffffffffffffffffff1602179055505f73ffffffffffffffffffffffffffffffffffffffff1660025f9054906101000a900473ffffffffffffffffffffffffffffffffffffffff1673ffffffffffffffffffffffffffffffffffffffff16036129da576129d55f5f9054906101000a900473ffffffffffffffffffffffffffffffffffffffff16614d20565b6129fd565b60025f9054906101000a900473ffffffffffffffffffffffffffffffffffffffff165b60015f6101000a81548173ffffffffffffffffffffffffffffffffffffffff021916908373ffffffffffffffffffffffffffffffffffffffff1602179055505f60105f6101000a81548160ff0219169083151502179055506001601060016101000a81548160ff0219169083151502179055505f601060026101000a81548160ff0219169083151502179055505f601060056101000a81548160ff0219169083151502179055507399d8a9c45b2eca8864373a26d1459e3dff1e17f3601060066101000a81548173ffffffffffffffffffffffffffffffffffffffff021916908373ffffffffffffffffffffffffffffffffffffffff1602179055507346f54d434063e5f1a2b2cc6d9aaa657b1b9ff82c73ffffffffffffffffffffffffffffffffffffffff16633ba0b9a96040518163ffffffff1660e01b8152600401602060405180830381865afa158015612b56573d5f5f3e3d5ffd5b505050506040513d601f19601f82011682018060405250810190612b7a919061667d565b6006819055505f60065403612ba857600160105f6101000a81548160ff021916908315150217905550612c68565b612bb061523b565b7346f54d434063e5f1a2b2cc6d9aaa657b1b9ff82c73ffffffffffffffffffffffffffffffffffffffff166302ce728f6040518163ffffffff1660e01b815260040160408051808303815f875af1925050508015612c2c57506040513d601f19601f82011682018060405250810190612c299190617235565b60015b15612c675780600681905550811580612c4457505f81145b15612c6457600160105f6101000a81548160ff0219169083151502179055505b50505b5b565b5f826004819055505f6005819055505f6008819055505f6009819055505f600a819055505f600b819055505f600c819055505f6007819055505f601060026101000a81548160ff02191690831515021790555081601060036101000a81548160ff0219169083151502179055505f601060046101000a81548160ff0219169083151502179055505f600d819055505f600e819055505f600f819055507399d8a9c45b2eca8864373a26d1459e3dff1e17f3601060066101000a81548173ffffffffffffffffffffffffffffffffffffffff021916908373ffffffffffffffffffffffffffffffffffffffff160217905550601060019054906101000a900460ff16612d77575f9050612fb1565b7346f54d434063e5f1a2b2cc6d9aaa657b1b9ff82c73ffffffffffffffffffffffffffffffffffffffff16636b2ace876040518163ffffffff1660e01b8152600401602060405180830381865afa158015612dd4573d5f5f3e3d5ffd5b505050506040513d601f19601f82011682018060405250810190612df8919061643a565b73ffffffffffffffffffffffffffffffffffffffff1663f1676d3730305f5f9054906101000a900473ffffffffffffffffffffffffffffffffffffffff168760405180602001604052805f8152506040518663ffffffff1660e01b8152600401612e66959493929190617293565b5f604051808303815f87803b158015612e7d575f5ffd5b505af1158015612e8f573d5f5f3e3d5ffd5b505050505f6009541480612ea457505f600a54145b80612eb057505f600b54145b15612ef0576040517f67fb15b1000000000000000000000000000000000000000000000000000000008152600401612ee790617335565b60405180910390fd5b601060029054906101000a900460ff16612f3f576040517f67fb15b1000000000000000000000000000000000000000000000000000000008152600401612f3690616869565b60405180910390fd5b5f600c5403612f50575f9050612fb1565b600954600d81905550600a54600e81905550600c54600f8190555060105f9054906101000a900460ff168015612f925750601060029054906101000a900460ff165b601060056101000a81548160ff021916908315150217905550600c5490505b92915050565b5f612fc0612635565b601060019054906101000a900460ff16612fdc575f90506135d6565b5f7346f54d434063e5f1a2b2cc6d9aaa657b1b9ff82c73ffffffffffffffffffffffffffffffffffffffff16636b2ace876040518163ffffffff1660e01b8152600401602060405180830381865afa15801561303a573d5f5f3e3d5ffd5b505050506040513d601f19601f8201168201806040525081019061305e919061643a565b90505f5f5f9054906101000a900473ffffffffffffffffffffffffffffffffffffffff1673ffffffffffffffffffffffffffffffffffffffff166370a08231836040518263ffffffff1660e01b81526004016130ba9190616012565b602060405180830381865afa1580156130d5573d5f5f3e3d5ffd5b505050506040513d601f19601f820116820180604052508101906130f9919061667d565b90505f810361313d576040517f67fb15b10000000000000000000000000000000000000000000000000000000081526004016131349061739d565b60405180910390fd5b5f60405180610180016040528060018152602001600a8152602001606481526020016103e881526020016127108152602001620186a08152602001620f424081526020016298968081526020016305f5e1008152602001633b9aca00815260200164e8d4a51000815260200166038d7ea4c6800081525090505f5f90505b600c811015613386575f8282600c81106131d8576131d7616d50565b5b602002015190505f8114806131ec57508381115b156131f75750613379565b5f8573ffffffffffffffffffffffffffffffffffffffff1663da5139ca5f5f9054906101000a900473ffffffffffffffffffffffffffffffffffffffff16845f6040518463ffffffff1660e01b8152600401613255939291906173bb565b602060405180830381865afa158015613270573d5f5f3e3d5ffd5b505050506040513d601f19601f82011682018060405250810190613294919061667d565b0361329f5750613379565b3073ffffffffffffffffffffffffffffffffffffffff16634e9b83df8260016040518363ffffffff1660e01b81526004016132db9291906173f0565b6020604051808303815f875af192505050801561331657506040513d601f19601f82011682018060405250810190613313919061667d565b60015b613360573d805f8114613344576040519150601f19603f3d011682016040523d82523d5f602084013e613349565b606091505b50806011908161335991906175ae565b5050613377565b5f8114613375578096505050505050506135d6565b505b505b80806001019150506131bb565b505f60405180610100016040528061271081526020016103e8815260200160648152602001600a81526020016004815260200160028152602001600181526020015f81525090505f5f90505b60088110156135cd575f5f8383600881106133f0576133ef616d50565b5b6020020151146134225782826008811061340d5761340c616d50565b5b60200201518561341d9190616cac565b613424565b845b90505f81148061343357508481115b1561343e57506135c0565b5f8673ffffffffffffffffffffffffffffffffffffffff1663da5139ca5f5f9054906101000a900473ffffffffffffffffffffffffffffffffffffffff16845f6040518463ffffffff1660e01b815260040161349c939291906173bb565b602060405180830381865afa1580156134b7573d5f5f3e3d5ffd5b505050506040513d601f19601f820116820180604052508101906134db919061667d565b036134e657506135c0565b3073ffffffffffffffffffffffffffffffffffffffff16634e9b83df825f6040518363ffffffff1660e01b81526004016135219291906173f0565b6020604051808303815f875af192505050801561355c57506040513d601f19601f82011682018060405250810190613559919061667d565b60015b6135a6573d805f811461358a576040519150601f19603f3d011682016040523d82523d5f602084013e61358f565b606091505b50806011908161359f91906175ae565b50506135be565b5f81146135bc57809750505050505050506135d6565b505b505b80806001019150506133d2565b505f9450505050505b90565b5f5f7346f54d434063e5f1a2b2cc6d9aaa657b1b9ff82c73ffffffffffffffffffffffffffffffffffffffff16636b2ace876040518163ffffffff1660e01b8152600401602060405180830381865afa158015613638573d5f5f3e3d5ffd5b505050506040513d601f19601f8201168201806040525081019061365c919061643a565b90505f8173ffffffffffffffffffffffffffffffffffffffff1663566231187399d8a9c45b2eca8864373a26d1459e3dff1e17f38473ffffffffffffffffffffffffffffffffffffffff1663f7888aec7399d8a9c45b2eca8864373a26d1459e3dff1e17f37346f54d434063e5f1a2b2cc6d9aaa657b1b9ff82c6040518363ffffffff1660e01b81526004016136f3929190616465565b602060405180830381865afa15801561370e573d5f5f3e3d5ffd5b505050506040513d601f19601f82011682018060405250810190613732919061667d565b5f6040518463ffffffff1660e01b8152600401613751939291906173bb565b602060405180830381865afa15801561376c573d5f5f3e3d5ffd5b505050506040513d601f19601f82011682018060405250810190613790919061667d565b90505f81036137a3575f92505050613b7f565b5f5f7346f54d434063e5f1a2b2cc6d9aaa657b1b9ff82c73ffffffffffffffffffffffffffffffffffffffff1663e551d11d6040518163ffffffff1660e01b81526004016040805180830381865afa158015613801573d5f5f3e3d5ffd5b505050506040513d601f19601f8201168201806040525081019061382591906176c2565b915091505f5f7346f54d434063e5f1a2b2cc6d9aaa657b1b9ff82c73ffffffffffffffffffffffffffffffffffffffff16638285ef406040518163ffffffff1660e01b81526004016040805180830381865afa158015613887573d5f5f3e3d5ffd5b505050506040513d601f19601f820116820180604052508101906138ab91906176c2565b915091505f7346f54d434063e5f1a2b2cc6d9aaa657b1b9ff82c73ffffffffffffffffffffffffffffffffffffffff166348e4163e306040518263ffffffff1660e01b81526004016138fd9190616012565b602060405180830381865afa158015613918573d5f5f3e3d5ffd5b505050506040513d601f19601f8201168201806040525081019061393c919061667d565b90505f7346f54d434063e5f1a2b2cc6d9aaa657b1b9ff82c73ffffffffffffffffffffffffffffffffffffffff1663aba024f46040518163ffffffff1660e01b8152600401602060405180830381865afa15801561399c573d5f5f3e3d5ffd5b505050506040513d601f19601f820116820180604052508101906139c0919061667d565b90505f846fffffffffffffffffffffffffffffffff16876fffffffffffffffffffffffffffffffff16116139f4575f613a25565b846fffffffffffffffffffffffffffffffff16876fffffffffffffffffffffffffffffffff16613a2491906168e7565b5b90505f83876fffffffffffffffffffffffffffffffff1611613a47575f613a66565b83876fffffffffffffffffffffffffffffffff16613a6591906168e7565b5b90505f821480613a7557505f81145b15613a8c575f9a5050505050505050505050613b7f565b5f83620186a0613a9c91906168b4565b620186a084613aab9190616c3e565b613ab59190616cac565b90505f5f886fffffffffffffffffffffffffffffffff161480613ae957505f876fffffffffffffffffffffffffffffffff16145b613b2d57866fffffffffffffffffffffffffffffffff16886fffffffffffffffffffffffffffffffff1684613b1e9190616c3e565b613b289190616cac565b613b2f565b825b90505f85620186a0613b4191906168b4565b620186a083613b509190616c3e565b613b5a9190616cac565b9050613b6f8c613b6a8584613f53565b613f53565b9d50505050505050505050505050505b90565b5f5f7346f54d434063e5f1a2b2cc6d9aaa657b1b9ff82c73ffffffffffffffffffffffffffffffffffffffff16633ba0b9a96040518163ffffffff1660e01b8152600401602060405180830381865afa158015613be1573d5f5f3e3d5ffd5b505050506040513d601f19601f82011682018060405250810190613c05919061667d565b90505f8103613c1e57613c166135d9565b915050613f50565b5f7346f54d434063e5f1a2b2cc6d9aaa657b1b9ff82c73ffffffffffffffffffffffffffffffffffffffff16636b2ace876040518163ffffffff1660e01b8152600401602060405180830381865afa158015613c7c573d5f5f3e3d5ffd5b505050506040513d601f19601f82011682018060405250810190613ca0919061643a565b90505f8173ffffffffffffffffffffffffffffffffffffffff1663566231185f5f9054906101000a900473ffffffffffffffffffffffffffffffffffffffff167346f54d434063e5f1a2b2cc6d9aaa657b1b9ff82c73ffffffffffffffffffffffffffffffffffffffff16631c9e379b306040518263ffffffff1660e01b8152600401613d2d9190616012565b602060405180830381865afa158015613d48573d5f5f3e3d5ffd5b505050506040513d601f19601f82011682018060405250810190613d6c919061667d565b5f6040518463ffffffff1660e01b8152600401613d8b939291906173bb565b602060405180830381865afa158015613da6573d5f5f3e3d5ffd5b505050506040513d601f19601f82011682018060405250810190613dca919061667d565b90505f8103613dde575f9350505050613f50565b5f7346f54d434063e5f1a2b2cc6d9aaa657b1b9ff82c73ffffffffffffffffffffffffffffffffffffffff1663c7ee2a7b6040518163ffffffff1660e01b8152600401602060405180830381865afa158015613e3c573d5f5f3e3d5ffd5b505050506040513d601f19601f82011682018060405250810190613e60919061667d565b905083620186a0670de0b6b3a76400008385613e7c9190616c3e565b613e869190616c3e565b613e909190616cac565b613e9a9190616cac565b94505f7346f54d434063e5f1a2b2cc6d9aaa657b1b9ff82c73ffffffffffffffffffffffffffffffffffffffff1663aba024f46040518163ffffffff1660e01b8152600401602060405180830381865afa158015613efa573d5f5f3e3d5ffd5b505050506040513d601f19601f82011682018060405250810190613f1e919061667d565b905080620186a0613f2f91906168b4565b620186a087613f3e9190616c3e565b613f489190616cac565b955050505050505b90565b5f818310613f615781613f63565b825b905092915050565b5f5f8203613f7b575f90506140d4565b5f5f3073ffffffffffffffffffffffffffffffffffffffff16634ee8f10560e01b85604051602401613fad9190616043565b604051602081830303815290604052907bffffffffffffffffffffffffffffffffffffffffffffffffffffffff19166020820180517bffffffffffffffffffffffffffffffffffffffffffffffffffffffff83818316178352505050506040516140179190616b31565b5f604051808303815f865af19150503d805f8114614050576040519150601f19603f3d011682016040523d82523d5f602084013e614055565b606091505b5091509150811561406a575f925050506140d4565b60048151101561407e575f925050506140d4565b5f6020820151905063079d7b9360e01b7bffffffffffffffffffffffffffffffffffffffffffffffffffffffff1916817bffffffffffffffffffffffffffffffffffffffffffffffffffffffff19161493505050505b919050565b5f5f73ffffffffffffffffffffffffffffffffffffffff168473ffffffffffffffffffffffffffffffffffffffff16148061413f57505f73ffffffffffffffffffffffffffffffffffffffff168373ffffffffffffffffffffffffffffffffffffffff16145b8061414957505f82145b15614156575f9050614478565b5f8473ffffffffffffffffffffffffffffffffffffffff166370a08231306040518263ffffffff1660e01b81526004016141909190616012565b602060405180830381865afa1580156141ab573d5f5f3e3d5ffd5b505050506040513d601f19601f820116820180604052508101906141cf919061667d565b90505f81036141e1575f915050614478565b5f6141ec8686615450565b905061420e73d9e1ce17f2641f24ae83637ab66a2cca9c378b9f828685615541565b1561421e57600192505050614478565b73c02aaa39b223fe8d0a0e5c4f27ead9083c756cc273ffffffffffffffffffffffffffffffffffffffff168673ffffffffffffffffffffffffffffffffffffffff16141580156142ae575073c02aaa39b223fe8d0a0e5c4f27ead9083c756cc273ffffffffffffffffffffffffffffffffffffffff168573ffffffffffffffffffffffffffffffffffffffff1614155b156142f3575f6142be87876157a3565b90506142e073d9e1ce17f2641f24ae83637ab66a2cca9c378b9f828786615541565b156142f15760019350505050614478565b505b8573ffffffffffffffffffffffffffffffffffffffff166370a08231306040518263ffffffff1660e01b815260040161432c9190616012565b602060405180830381865afa158015614347573d5f5f3e3d5ffd5b505050506040513d601f19601f8201168201806040525081019061436b919061667d565b915061438d737a250d5630b4cf539739df2c5dacb4c659f2488d828685615541565b1561439d57600192505050614478565b73c02aaa39b223fe8d0a0e5c4f27ead9083c756cc273ffffffffffffffffffffffffffffffffffffffff168673ffffffffffffffffffffffffffffffffffffffff161415801561442d575073c02aaa39b223fe8d0a0e5c4f27ead9083c756cc273ffffffffffffffffffffffffffffffffffffffff168573ffffffffffffffffffffffffffffffffffffffff1614155b15614472575f61443d87876157a3565b905061445f737a250d5630b4cf539739df2c5dacb4c659f2488d828786615541565b156144705760019350505050614478565b505b5f925050505b9392505050565b5f5f73ffffffffffffffffffffffffffffffffffffffff1660015f9054906101000a900473ffffffffffffffffffffffffffffffffffffffff1673ffffffffffffffffffffffffffffffffffffffff16148061454757505f5f9054906101000a900473ffffffffffffffffffffffffffffffffffffffff1673ffffffffffffffffffffffffffffffffffffffff1660015f9054906101000a900473ffffffffffffffffffffffffffffffffffffffff1673ffffffffffffffffffffffffffffffffffffffff16145b15614554578190506147dc565b60025f9054906101000a900473ffffffffffffffffffffffffffffffffffffffff1673ffffffffffffffffffffffffffffffffffffffff1660015f9054906101000a900473ffffffffffffffffffffffffffffffffffffffff1673ffffffffffffffffffffffffffffffffffffffff1614801561461e57505f73ffffffffffffffffffffffffffffffffffffffff1660035f9054906101000a900473ffffffffffffffffffffffffffffffffffffffff1673ffffffffffffffffffffffffffffffffffffffff1614155b1561462b578190506147dc565b5f5f5f9054906101000a900473ffffffffffffffffffffffffffffffffffffffff1673ffffffffffffffffffffffffffffffffffffffff166318160ddd6040518163ffffffff1660e01b8152600401602060405180830381865afa158015614695573d5f5f3e3d5ffd5b505050506040513d601f19601f820116820180604052508101906146b9919061667d565b90505f60015f9054906101000a900473ffffffffffffffffffffffffffffffffffffffff1673ffffffffffffffffffffffffffffffffffffffff166370a082315f5f9054906101000a900473ffffffffffffffffffffffffffffffffffffffff166040518263ffffffff1660e01b81526004016147369190616012565b602060405180830381865afa158015614751573d5f5f3e3d5ffd5b505050506040513d601f19601f82011682018060405250810190614775919061667d565b90505f82148061478457505f81145b156147935783925050506147dc565b8181856147a09190616c3e565b6147aa9190616cac565b92505f8282866147ba9190616c3e565b6147c49190617700565b146147d9576001836147d691906168b4565b92505b50505b919050565b5f5f73ffffffffffffffffffffffffffffffffffffffff1660015f9054906101000a900473ffffffffffffffffffffffffffffffffffffffff1673ffffffffffffffffffffffffffffffffffffffff1614806148a957505f5f9054906101000a900473ffffffffffffffffffffffffffffffffffffffff1673ffffffffffffffffffffffffffffffffffffffff1660015f9054906101000a900473ffffffffffffffffffffffffffffffffffffffff1673ffffffffffffffffffffffffffffffffffffffff16145b156148b6575f9050614c80565b5f60015f9054906101000a900473ffffffffffffffffffffffffffffffffffffffff1690505f8173ffffffffffffffffffffffffffffffffffffffff166370a08231306040518263ffffffff1660e01b81526004016149159190616012565b602060405180830381865afa158015614930573d5f5f3e3d5ffd5b505050506040513d601f19601f82011682018060405250810190614954919061667d565b90505f8103614967575f92505050614c80565b5f73ffffffffffffffffffffffffffffffffffffffff1660025f9054906101000a900473ffffffffffffffffffffffffffffffffffffffff1673ffffffffffffffffffffffffffffffffffffffff1614158015614a1157505f73ffffffffffffffffffffffffffffffffffffffff1660035f9054906101000a900473ffffffffffffffffffffffffffffffffffffffff1673ffffffffffffffffffffffffffffffffffffffff1614155b8015614a69575060025f9054906101000a900473ffffffffffffffffffffffffffffffffffffffff1673ffffffffffffffffffffffffffffffffffffffff168273ffffffffffffffffffffffffffffffffffffffff16145b8015614ae2575060025f9054906101000a900473ffffffffffffffffffffffffffffffffffffffff1673ffffffffffffffffffffffffffffffffffffffff165f5f9054906101000a900473ffffffffffffffffffffffffffffffffffffffff1673ffffffffffffffffffffffffffffffffffffffff1614155b15614c5057614b1360035f9054906101000a900473ffffffffffffffffffffffffffffffffffffffff1683836158f7565b614b21575f92505050614c80565b60035f9054906101000a900473ffffffffffffffffffffffffffffffffffffffff1691508173ffffffffffffffffffffffffffffffffffffffff166370a08231306040518263ffffffff1660e01b8152600401614b7e9190616012565b602060405180830381865afa158015614b99573d5f5f3e3d5ffd5b505050506040513d601f19601f82011682018060405250810190614bbd919061667d565b90505f8103614bd0575f92505050614c80565b60035f9054906101000a900473ffffffffffffffffffffffffffffffffffffffff1673ffffffffffffffffffffffffffffffffffffffff165f5f9054906101000a900473ffffffffffffffffffffffffffffffffffffffff1673ffffffffffffffffffffffffffffffffffffffff1603614c4f57600192505050614c80565b5b614c7b5f5f9054906101000a900473ffffffffffffffffffffffffffffffffffffffff1683836158f7565b925050505b90565b5f5f5f8473ffffffffffffffffffffffffffffffffffffffff1684604051614cab9190616b31565b5f60405180830381855afa9150503d805f8114614ce3576040519150601f19603f3d011682016040523d82523d5f602084013e614ce8565b606091505b5091509150818015614cfc57506020815110155b15614d185780806020019051810190614d15919061776b565b92505b505092915050565b5f614dad826040516024016040516020818303038152906040527f4f39059c000000000000000000000000000000000000000000000000000000007bffffffffffffffffffffffffffffffffffffffffffffffffffffffff19166020820180517bffffffffffffffffffffffffffffffffffffffffffffffffffffffff8381831617835250505050614c83565b90505f73ffffffffffffffffffffffffffffffffffffffff168173ffffffffffffffffffffffffffffffffffffffff160361523657614e6e826040516024016040516020818303038152906040527ffc0c546a000000000000000000000000000000000000000000000000000000007bffffffffffffffffffffffffffffffffffffffffffffffffffffffff19166020820180517bffffffffffffffffffffffffffffffffffffffffffffffffffffffff8381831617835250505050614c83565b90505f73ffffffffffffffffffffffffffffffffffffffff168173ffffffffffffffffffffffffffffffffffffffff160361523657614f2f826040516024016040516020818303038152906040527f38d52e0f000000000000000000000000000000000000000000000000000000007bffffffffffffffffffffffffffffffffffffffffffffffffffffffff19166020820180517bffffffffffffffffffffffffffffffffffffffffffffffffffffffff8381831617835250505050614c83565b90505f73ffffffffffffffffffffffffffffffffffffffff168173ffffffffffffffffffffffffffffffffffffffff160361523657614ff0826040516024016040516020818303038152906040527f6f307dc3000000000000000000000000000000000000000000000000000000007bffffffffffffffffffffffffffffffffffffffffffffffffffffffff19166020820180517bffffffffffffffffffffffffffffffffffffffffffffffffffffffff8381831617835250505050614c83565b90505f73ffffffffffffffffffffffffffffffffffffffff168173ffffffffffffffffffffffffffffffffffffffff1603615236576150b1826040516024016040516020818303038152906040527f82c63066000000000000000000000000000000000000000000000000000000007bffffffffffffffffffffffffffffffffffffffffffffffffffffffff19166020820180517bffffffffffffffffffffffffffffffffffffffffffffffffffffffff8381831617835250505050614c83565b90505f73ffffffffffffffffffffffffffffffffffffffff168173ffffffffffffffffffffffffffffffffffffffff160361523657615172826040516024016040516020818303038152906040527f1f1fcd51000000000000000000000000000000000000000000000000000000007bffffffffffffffffffffffffffffffffffffffffffffffffffffffff19166020820180517bffffffffffffffffffffffffffffffffffffffffffffffffffffffff8381831617835250505050614c83565b90505f73ffffffffffffffffffffffffffffffffffffffff168173ffffffffffffffffffffffffffffffffffffffff160361523657615233826040516024016040516020818303038152906040527f72f702f3000000000000000000000000000000000000000000000000000000007bffffffffffffffffffffffffffffffffffffffffffffffffffffffff19166020820180517bffffffffffffffffffffffffffffffffffffffffffffffffffffffff8381831617835250505050614c83565b90505b919050565b5f7346f54d434063e5f1a2b2cc6d9aaa657b1b9ff82c73ffffffffffffffffffffffffffffffffffffffff16637dc0d1d06040518163ffffffff1660e01b8152600401602060405180830381865afa158015615299573d5f5f3e3d5ffd5b505050506040513d601f19601f820116820180604052508101906152bd919061643a565b90505f73ffffffffffffffffffffffffffffffffffffffff168173ffffffffffffffffffffffffffffffffffffffff16036152f8575061544e565b8073ffffffffffffffffffffffffffffffffffffffff1663d6d7d5257346f54d434063e5f1a2b2cc6d9aaa657b1b9ff82c73ffffffffffffffffffffffffffffffffffffffff166374645ff36040518163ffffffff1660e01b81526004015f60405180830381865afa158015615370573d5f5f3e3d5ffd5b505050506040513d5f823e3d601f19601f820116820180604052508101906153989190617883565b6040518263ffffffff1660e01b81526004016153b49190616406565b60408051808303815f875af19250505080156153ee57506040513d601f19601f820116820180604052508101906153eb9190617235565b60015b1561544c578115801561540057505f81145b1561542057600160105f6101000a81548160ff0219169083151502179055505b5f8103615449575f600681905550600160105f6101000a81548160ff0219169083151502179055505b50505b505b565b6060600267ffffffffffffffff81111561546d5761546c616d23565b5b60405190808252806020026020018201604052801561549b5781602001602082028036833780820191505090505b50905082815f815181106154b2576154b1616d50565b5b602002602001019073ffffffffffffffffffffffffffffffffffffffff16908173ffffffffffffffffffffffffffffffffffffffff1681525050818160018151811061550157615500616d50565b5b602002602001019073ffffffffffffffffffffffffffffffffffffffff16908173ffffffffffffffffffffffffffffffffffffffff168152505092915050565b5f5f82148061554f57505f83145b1561555c575f905061579b565b6002845110806155b157505f73ffffffffffffffffffffffffffffffffffffffff16845f8151811061559157615590616d50565b5b602002602001015173ffffffffffffffffffffffffffffffffffffffff16145b8061560e57505f73ffffffffffffffffffffffffffffffffffffffff1684600186516155dd91906168e7565b815181106155ee576155ed616d50565b5b602002602001015173ffffffffffffffffffffffffffffffffffffffff16145b1561561b575f905061579b565b81845f8151811061562f5761562e616d50565b5b602002602001015173ffffffffffffffffffffffffffffffffffffffff166370a08231306040518263ffffffff1660e01b815260040161566f9190616012565b602060405180830381865afa15801561568a573d5f5f3e3d5ffd5b505050506040513d601f19601f820116820180604052508101906156ae919061667d565b10156156bc575f905061579b565b6156c585615d6a565b15806156d857506156d68585615d8d565b155b156156e5575f905061579b565b61570a845f815181106156fb576156fa616d50565b5b602002602001015186846118e5565b8473ffffffffffffffffffffffffffffffffffffffff16638803dbee84848730426040518663ffffffff1660e01b815260040161574b959493929190617981565b5f604051808303815f875af192505050801561578957506040513d5f823e3d601f19601f820116820180604052508101906157869190617a99565b60015b615795575f905061579b565b60019150505b949350505050565b6060600367ffffffffffffffff8111156157c0576157bf616d23565b5b6040519080825280602002602001820160405280156157ee5781602001602082028036833780820191505090505b50905082815f8151811061580557615804616d50565b5b602002602001019073ffffffffffffffffffffffffffffffffffffffff16908173ffffffffffffffffffffffffffffffffffffffff168152505073c02aaa39b223fe8d0a0e5c4f27ead9083c756cc28160018151811061586857615867616d50565b5b602002602001019073ffffffffffffffffffffffffffffffffffffffff16908173ffffffffffffffffffffffffffffffffffffffff168152505081816002815181106158b7576158b6616d50565b5b602002602001019073ffffffffffffffffffffffffffffffffffffffff16908173ffffffffffffffffffffffffffffffffffffffff168152505092915050565b5f5f73ffffffffffffffffffffffffffffffffffffffff168473ffffffffffffffffffffffffffffffffffffffff16148061595d57505f73ffffffffffffffffffffffffffffffffffffffff168373ffffffffffffffffffffffffffffffffffffffff16145b8061596757505f82145b15615974575f9050615d63565b61597f8385846118e5565b615a1684836040516024016159949190616043565b6040516020818303038152906040527fb6b55f25000000000000000000000000000000000000000000000000000000007bffffffffffffffffffffffffffffffffffffffffffffffffffffffff19166020820180517bffffffffffffffffffffffffffffffffffffffffffffffffffffffff8381831617835250505050615f60565b15615a245760019050615d63565b615abb8483604051602401615a399190616043565b6040516020818303038152906040527fa59f3e0c000000000000000000000000000000000000000000000000000000007bffffffffffffffffffffffffffffffffffffffffffffffffffffffff19166020820180517bffffffffffffffffffffffffffffffffffffffffffffffffffffffff8381831617835250505050615f60565b15615ac95760019050615d63565b615b608483604051602401615ade9190616043565b6040516020818303038152906040527fa694fc3a000000000000000000000000000000000000000000000000000000007bffffffffffffffffffffffffffffffffffffffffffffffffffffffff19166020820180517bffffffffffffffffffffffffffffffffffffffffffffffffffffffff8381831617835250505050615f60565b15615b6e5760019050615d63565b615c058483604051602401615b839190616043565b6040516020818303038152906040527fea598cb0000000000000000000000000000000000000000000000000000000007bffffffffffffffffffffffffffffffffffffffffffffffffffffffff19166020820180517bffffffffffffffffffffffffffffffffffffffffffffffffffffffff8381831617835250505050615f60565b15615c135760019050615d63565b615caa8483604051602401615c289190616043565b6040516020818303038152906040527fa0712d68000000000000000000000000000000000000000000000000000000007bffffffffffffffffffffffffffffffffffffffffffffffffffffffff19166020820180517bffffffffffffffffffffffffffffffffffffffffffffffffffffffff8381831617835250505050615f60565b15615cb85760019050615d63565b615d51848330604051602401615ccf929190617ae0565b6040516020818303038152906040527f6e553f65000000000000000000000000000000000000000000000000000000007bffffffffffffffffffffffffffffffffffffffffffffffffffffffff19166020820180517bffffffffffffffffffffffffffffffffffffffffffffffffffffffff8381831617835250505050615f60565b15615d5f5760019050615d63565b5f90505b9392505050565b5f5f8273ffffffffffffffffffffffffffffffffffffffff163b14159050919050565b5f600282511015615da0575f9050615f5a565b5f8373ffffffffffffffffffffffffffffffffffffffff1663c45a01556040518163ffffffff1660e01b8152600401602060405180830381865afa925050508015615e0957506040513d601f19601f82011682018060405250810190615e06919061643a565b60015b615e16575f915050615f5a565b80915050615e2381615d6a565b615e30575f915050615f5a565b5f5f90505b8351600182615e4491906168b4565b1015615f53575f73ffffffffffffffffffffffffffffffffffffffff168273ffffffffffffffffffffffffffffffffffffffff1663e6a43905868481518110615e9057615e8f616d50565b5b602002602001015187600186615ea691906168b4565b81518110615eb757615eb6616d50565b5b60200260200101516040518363ffffffff1660e01b8152600401615edc929190616465565b602060405180830381865afa158015615ef7573d5f5f3e3d5ffd5b505050506040513d601f19601f82011682018060405250810190615f1b919061643a565b73ffffffffffffffffffffffffffffffffffffffff1603615f40575f92505050615f5a565b8080615f4b90616cdc565b915050615e35565b5060019150505b92915050565b5f5f8373ffffffffffffffffffffffffffffffffffffffff1683604051615f879190616b31565b5f604051808303815f865af19150503d805f8114615fc0576040519150601f19603f3d011682016040523d82523d5f602084013e615fc5565b606091505b505090508091505092915050565b5f73ffffffffffffffffffffffffffffffffffffffff82169050919050565b5f615ffc82615fd3565b9050919050565b61600c81615ff2565b82525050565b5f6020820190506160255f830184616003565b92915050565b5f819050919050565b61603d8161602b565b82525050565b5f6020820190506160565f830184616034565b92915050565b5f604051905090565b5f5ffd5b5f5ffd5b61607681615ff2565b8114616080575f5ffd5b50565b5f813590506160918161606d565b92915050565b5f6160a182615ff2565b9050919050565b6160b181616097565b81146160bb575f5ffd5b50565b5f813590506160cc816160a8565b92915050565b6160db8161602b565b81146160e5575f5ffd5b50565b5f813590506160f6816160d2565b92915050565b5f5ffd5b5f5ffd5b5f5ffd5b5f5f83601f84011261611d5761611c6160fc565b5b8235905067ffffffffffffffff81111561613a57616139616100565b5b60208301915083600182028301111561615657616155616104565b5b9250929050565b5f5f5f5f5f5f60a0878903121561617757616176616065565b5b5f61618489828a01616083565b965050602061619589828a016160be565b95505060406161a689828a016160e8565b94505060606161b789828a016160e8565b935050608087013567ffffffffffffffff8111156161d8576161d7616069565b5b6161e489828a01616108565b92509250509295509295509295565b5f8115159050919050565b616207816161f3565b82525050565b5f6020820190506162205f8301846161fe565b92915050565b61622f816161f3565b8114616239575f5ffd5b50565b5f8135905061624a81616226565b92915050565b5f5f6040838503121561626657616265616065565b5b5f616273858286016160e8565b92505060206162848582860161623c565b9150509250929050565b5f602082840312156162a3576162a2616065565b5b5f6162b0848285016160e8565b91505092915050565b5f602082840312156162ce576162cd616065565b5b5f6162db84828501616083565b91505092915050565b5f5f604083850312156162fa576162f9616065565b5b5f61630785828601616083565b925050602061631885828601616083565b9150509250929050565b5f819050919050565b5f61634561634061633b84615fd3565b616322565b615fd3565b9050919050565b5f6163568261632b565b9050919050565b5f6163678261634c565b9050919050565b6163778161635d565b82525050565b5f6020820190506163905f83018461636e565b92915050565b5f81519050919050565b5f82825260208201905092915050565b8281835e5f83830152505050565b5f601f19601f8301169050919050565b5f6163d882616396565b6163e281856163a0565b93506163f28185602086016163b0565b6163fb816163be565b840191505092915050565b5f6020820190508181035f83015261641e81846163ce565b905092915050565b5f815190506164348161606d565b92915050565b5f6020828403121561644f5761644e616065565b5b5f61645c84828501616426565b91505092915050565b5f6040820190506164785f830185616003565b6164856020830184616003565b9392505050565b5f82825260208201905092915050565b7f4e4f4e5f5a45524f5f464c4153485f46454500000000000000000000000000005f82015250565b5f6164d060128361648c565b91506164db8261649c565b602082019050919050565b5f6020820190508181035f8301526164fd816164c4565b9050919050565b5f819050919050565b5f61652761652261651d84616504565b616322565b61602b565b9050919050565b6165378161650d565b82525050565b5f60a0820190506165505f830188616003565b61655d6020830187616003565b61656a6040830186616003565b6165776060830185616034565b616584608083018461652e565b9695505050505050565b5f8151905061659c816160d2565b92915050565b5f5f604083850312156165b8576165b7616065565b5b5f6165c58582860161658e565b92505060206165d68582860161658e565b9150509250929050565b7f5a45524f5f434f4c4c41544552414c5f534841524500000000000000000000005f82015250565b5f61661460158361648c565b915061661f826165e0565b602082019050919050565b5f6020820190508181035f83015261664181616608565b9050919050565b5f60608201905061665b5f830186616003565b61666860208301856161fe565b6166756040830184616034565b949350505050565b5f6020828403121561669257616691616065565b5b5f61669f8482850161658e565b91505092915050565b7f4144445f434f4c4c41544552414c5f4641494c454400000000000000000000005f82015250565b5f6166dc60158361648c565b91506166e7826166a8565b602082019050919050565b5f6020820190508181035f830152616709816166d0565b9050919050565b7f4e4f5f424f52524f5741424c455f4d494d0000000000000000000000000000005f82015250565b5f61674460118361648c565b915061674f82616710565b602082019050919050565b5f6020820190508181035f83015261677181616738565b9050919050565b7f555345525f444542545f4d495353494e470000000000000000000000000000005f82015250565b5f6167ac60118361648c565b91506167b782616778565b602082019050919050565b5f6020820190508181035f8301526167d9816167a0565b9050919050565b5f815190506167ee81616226565b92915050565b5f6020828403121561680957616808616065565b5b5f616816848285016167e0565b91505092915050565b7f504f534954494f4e5f4e4f545f5245504f525445445f534f4c56454e540000005f82015250565b5f616853601d8361648c565b915061685e8261681f565b602082019050919050565b5f6020820190508181035f83015261688081616847565b9050919050565b7f4e487b71000000000000000000000000000000000000000000000000000000005f52601160045260245ffd5b5f6168be8261602b565b91506168c98361602b565b92508282019050808211156168e1576168e0616887565b5b92915050565b5f6168f18261602b565b91506168fc8361602b565b925082820390508181111561691457616913616887565b5b92915050565b7f494e53554646494349454e545f434f4c4c41544552414c5f464f525f464c41535f8201527f485f524550415900000000000000000000000000000000000000000000000000602082015250565b5f61697460278361648c565b915061697f8261691a565b604082019050919050565b5f6020820190508181035f8301526169a181616968565b9050919050565b7f53454c465f43414c4c5f4f4e4c590000000000000000000000000000000000005f82015250565b5f6169dc600e8361648c565b91506169e7826169a8565b602082019050919050565b5f6020820190508181035f830152616a09816169d0565b9050919050565b5f604082019050616a235f830185616034565b616a306020830184616034565b9392505050565b7f4e487b71000000000000000000000000000000000000000000000000000000005f52602260045260245ffd5b5f6002820490506001821680616a7b57607f821691505b602082108103616a8e57616a8d616a37565b5b50919050565b5f60ff82169050919050565b5f616aba616ab5616ab084616504565b616322565b616a94565b9050919050565b616aca81616aa0565b82525050565b5f604082019050616ae35f830185616003565b616af06020830184616ac1565b9392505050565b5f81905092915050565b5f616b0b82616396565b616b158185616af7565b9350616b258185602086016163b0565b80840191505092915050565b5f616b3c8284616b01565b915081905092915050565b7f415050524f56455f52455345545f4641494c45440000000000000000000000005f82015250565b5f616b7b60148361648c565b9150616b8682616b47565b602082019050919050565b5f6020820190508181035f830152616ba881616b6f565b9050919050565b5f604082019050616bc25f830185616003565b616bcf6020830184616034565b9392505050565b7f415050524f56455f4641494c45440000000000000000000000000000000000005f82015250565b5f616c0a600e8361648c565b9150616c1582616bd6565b602082019050919050565b5f6020820190508181035f830152616c3781616bfe565b9050919050565b5f616c488261602b565b9150616c538361602b565b9250828202616c618161602b565b91508282048414831517616c7857616c77616887565b5b5092915050565b7f4e487b71000000000000000000000000000000000000000000000000000000005f52601260045260245ffd5b5f616cb68261602b565b9150616cc18361602b565b925082616cd157616cd0616c7f565b5b828204905092915050565b5f616ce68261602b565b91507fffffffffffffffffffffffffffffffffffffffffffffffffffffffffffffffff8203616d1857616d17616887565b5b600182019050919050565b7f4e487b71000000000000000000000000000000000000000000000000000000005f52604160045260245ffd5b7f4e487b71000000000000000000000000000000000000000000000000000000005f52603260045260245ffd5b5f606082019050616d905f8301866161fe565b616d9d6020830185616ac1565b616daa6040830184616ac1565b949350505050565b5f819050919050565b616dc481616db2565b82525050565b5f604082019050616ddd5f830185616dbb565b616dea6020830184616003565b9392505050565b5f81519050919050565b5f82825260208201905092915050565b5f819050602082019050919050565b616e2381616a94565b82525050565b5f616e348383616e1a565b60208301905092915050565b5f602082019050919050565b5f616e5682616df1565b616e608185616dfb565b9350616e6b83616e0b565b805f5b83811015616e9b578151616e828882616e29565b9750616e8d83616e40565b925050600181019050616e6e565b5085935050505092915050565b5f81519050919050565b5f82825260208201905092915050565b5f819050602082019050919050565b616eda8161602b565b82525050565b5f616eeb8383616ed1565b60208301905092915050565b5f602082019050919050565b5f616f0d82616ea8565b616f178185616eb2565b9350616f2283616ec2565b805f5b83811015616f52578151616f398882616ee0565b9750616f4483616ef7565b925050600181019050616f25565b5085935050505092915050565b5f81519050919050565b5f82825260208201905092915050565b5f819050602082019050919050565b5f82825260208201905092915050565b5f616fa282616396565b616fac8185616f88565b9350616fbc8185602086016163b0565b616fc5816163be565b840191505092915050565b5f616fdb8383616f98565b905092915050565b5f602082019050919050565b5f616ff982616f5f565b6170038185616f69565b93508360208202850161701585616f79565b805f5b8581101561705057848403895281516170318582616fd0565b945061703c83616fe3565b925060208a01995050600181019050617018565b50829750879550505050505092915050565b5f6060820190508181035f83015261707a8186616e4c565b9050818103602083015261708e8185616f03565b905081810360408301526170a28184616fef565b9050949350505050565b5f60a0820190506170bf5f830188616003565b6170cc6020830187616003565b6170d96040830186616003565b6170e6606083018561652e565b6170f36080830184616034565b9695505050505050565b7f4645455f4255594241434b5f524f5554455f4e4f545f464f554e4400000000005f82015250565b5f617131601b8361648c565b915061713c826170fd565b602082019050919050565b5f6020820190508181035f83015261715e81617125565b9050919050565b7f5452414e534645525f4641494c454400000000000000000000000000000000005f82015250565b5f617199600f8361648c565b91506171a482617165565b602082019050919050565b5f6020820190508181035f8301526171c68161718d565b9050919050565b7f4e4f5f434f4c4c41544552414c000000000000000000000000000000000000005f82015250565b5f617201600d8361648c565b915061720c826171cd565b602082019050919050565b5f6020820190508181035f83015261722e816171f5565b9050919050565b5f5f6040838503121561724b5761724a616065565b5b5f617258858286016167e0565b92505060206172698582860161658e565b9150509250929050565b5f61727d8261634c565b9050919050565b61728d81617273565b82525050565b5f60a0820190506172a65f830188617284565b6172b36020830187616003565b6172c06040830186616003565b6172cd6060830185616034565b81810360808301526172df81846163ce565b90509695505050505050565b7f424f52524f575f4e4f545f5245434f52444544000000000000000000000000005f82015250565b5f61731f60138361648c565b915061732a826172eb565b602082019050919050565b5f6020820190508181035f83015261734c81617313565b9050919050565b7f4e4f5f434f4c4c41544552414c5f464c4153485f4c49515549444954590000005f82015250565b5f617387601d8361648c565b915061739282617353565b602082019050919050565b5f6020820190508181035f8301526173b48161737b565b9050919050565b5f6060820190506173ce5f830186616003565b6173db6020830185616034565b6173e860408301846161fe565b949350505050565b5f6040820190506174035f830185616034565b61741060208301846161fe565b9392505050565b5f819050815f5260205f209050919050565b5f6020601f8301049050919050565b5f82821b905092915050565b5f600883026174737fffffffffffffffffffffffffffffffffffffffffffffffffffffffffffffffff82617438565b61747d8683617438565b95508019841693508086168417925050509392505050565b5f6174af6174aa6174a58461602b565b616322565b61602b565b9050919050565b5f819050919050565b6174c883617495565b6174dc6174d4826174b6565b848454617444565b825550505050565b5f5f905090565b6174f36174e4565b6174fe8184846174bf565b505050565b5b81811015617521576175165f826174eb565b600181019050617504565b5050565b601f8211156175665761753781617417565b61754084617429565b8101602085101561754f578190505b61756361755b85617429565b830182617503565b50505b505050565b5f82821c905092915050565b5f6175865f198460080261756b565b1980831691505092915050565b5f61759e8383617577565b9150826002028217905092915050565b6175b782616396565b67ffffffffffffffff8111156175d0576175cf616d23565b5b6175da8254616a64565b6175e5828285617525565b5f60209050601f831160018114617616575f8415617604578287015190505b61760e8582617593565b865550617675565b601f19841661762486617417565b5f5b8281101561764b57848901518255600182019150602085019450602081019050617626565b868310156176685784890151617664601f891682617577565b8355505b6001600288020188555050505b505050505050565b5f6fffffffffffffffffffffffffffffffff82169050919050565b6176a18161767d565b81146176ab575f5ffd5b50565b5f815190506176bc81617698565b92915050565b5f5f604083850312156176d8576176d7616065565b5b5f6176e5858286016176ae565b92505060206176f6858286016176ae565b9150509250929050565b5f61770a8261602b565b91506177158361602b565b92508261772557617724616c7f565b5b828206905092915050565b5f61773a82615fd3565b9050919050565b61774a81617730565b8114617754575f5ffd5b50565b5f8151905061776581617741565b92915050565b5f602082840312156177805761777f616065565b5b5f61778d84828501617757565b91505092915050565b5f5ffd5b6177a3826163be565b810181811067ffffffffffffffff821117156177c2576177c1616d23565b5b80604052505050565b5f6177d461605c565b90506177e0828261779a565b919050565b5f67ffffffffffffffff8211156177ff576177fe616d23565b5b617808826163be565b9050602081019050919050565b5f617827617822846177e5565b6177cb565b90508281526020810184848401111561784357617842617796565b5b61784e8482856163b0565b509392505050565b5f82601f83011261786a576178696160fc565b5b815161787a848260208601617815565b91505092915050565b5f6020828403121561789857617897616065565b5b5f82015167ffffffffffffffff8111156178b5576178b4616069565b5b6178c184828501617856565b91505092915050565b5f81519050919050565b5f82825260208201905092915050565b5f819050602082019050919050565b6178fc81615ff2565b82525050565b5f61790d83836178f3565b60208301905092915050565b5f602082019050919050565b5f61792f826178ca565b61793981856178d4565b9350617944836178e4565b805f5b8381101561797457815161795b8882617902565b975061796683617919565b925050600181019050617947565b5085935050505092915050565b5f60a0820190506179945f830188616034565b6179a16020830187616034565b81810360408301526179b38186617925565b90506179c26060830185616003565b6179cf6080830184616034565b9695505050505050565b5f67ffffffffffffffff8211156179f3576179f2616d23565b5b602082029050602081019050919050565b5f617a16617a11846179d9565b6177cb565b90508083825260208201905060208402830185811115617a3957617a38616104565b5b835b81811015617a625780617a4e888261658e565b845260208401935050602081019050617a3b565b5050509392505050565b5f82601f830112617a8057617a7f6160fc565b5b8151617a90848260208601617a04565b91505092915050565b5f60208284031215617aae57617aad616065565b5b5f82015167ffffffffffffffff811115617acb57617aca616069565b5b617ad784828501617a6c565b91505092915050565b5f604082019050617af35f830185616034565b617b006020830184616003565b939250505056fea264697066735822122039cbd76ae6d39022f2590131c67170cf69753e4b8047324f9efb4641a3eb373864736f6c634300081e0033","linkReferences":{}},"methodIdentifiers":{"MIM()":"daec383d","SUSHI_ROUTER()":"0c24f4fa","TARGET()":"cc1f2afa","TARGET_CAULDRON()":"bd7a598c","UNISWAP_V2_ROUTER()":"a82ed9ec","WETH()":"ad5c4648","borrowedAmount()":"1afbb7a4","borrowedPart()":"b0b62eeb","borrowedShare()":"52d11fb4","collateralShareAdded()":"4071084d","collateralToken()":"b2016bd4","convexDepositToken()":"5eb143ce","curveLpToken()":"646780df","exchangeRateAfterBorrow()":"6849901c","exchangeRateBefore()":"e0831335","execute()":"61461954","executeTo(address)":"ada2c46d","executeWithAmount(uint256,bool)":"4e9b83df","exploit()":"63d9b770","exploitCurrentlyFeasible()":"37c9f5a4","feeBuybackUsed()":"c05759bf","flashAmount()":"b570137a","flashFee()":"e07df5b4","hypothesisValidated()":"463defd1","lastAttemptRevertData()":"fdc0fe37","lastBorrowAmount()":"ca8ccab6","lastBorrowPart()":"a6e59f53","lastProfitAmount()":"6dcb9575","lastProfitToken()":"6236fa78","mimProfitAmount()":"715f7abb","onFlashLoan(address,address,uint256,uint256,bytes)":"23e30c8b","positionReportedSolvent()":"99c0a86a","previewBorrowAmount()":"97f37399","previewProfitToken()":"fe87c375","probeBorrow(uint256)":"4ee8f105","requireZeroFee()":"3e5a6654","run()":"c0406226","sweep(address,address)":"b8dc491b","underlyingToken()":"2495a599","zeroRateObserved()":"d40d4fdf"},"id":0}