{"abi":[{"type":"constructor","inputs":[{"name":"owner_","type":"address","internalType":"address"}],"stateMutability":"nonpayable"},{"type":"function","name":"owner","inputs":[],"outputs":[{"name":"","type":"address","internalType":"address"}],"stateMutability":"view"},{"type":"function","name":"runWithFlashSwap","inputs":[],"outputs":[{"name":"","type":"uint256","internalType":"uint256"}],"stateMutability":"nonpayable"},{"type":"function","name":"runWithVerifierCapital","inputs":[{"name":"verifierWethBalance","type":"uint256","internalType":"uint256"}],"outputs":[{"name":"","type":"uint256","internalType":"uint256"}],"stateMutability":"nonpayable"},{"type":"function","name":"shuttle","inputs":[],"outputs":[{"name":"","type":"address","internalType":"contract TokenShuttle"}],"stateMutability":"view"},{"type":"function","name":"uniswapV2Call","inputs":[{"name":"sender","type":"address","internalType":"address"},{"name":"amount0","type":"uint256","internalType":"uint256"},{"name":"amount1","type":"uint256","internalType":"uint256"},{"name":"data","type":"bytes","internalType":"bytes"}],"outputs":[],"stateMutability":"nonpayable"},{"type":"error","name":"BucketAlreadyAboveSwapThreshold","inputs":[]},{"type":"error","name":"BudgetTooSmall","inputs":[]},{"type":"error","name":"InvalidCallback","inputs":[]},{"type":"error","name":"NotProfitable","inputs":[]},{"type":"error","name":"PairMissing","inputs":[]}],"bytecode":{"object":"0x60c060405234801561000f575f5ffd5b506040516133813803806133818339818101604052810190610031919061013a565b8073ffffffffffffffffffffffffffffffffffffffff1660808173ffffffffffffffffffffffffffffffffffffffff168152505030604051610072906100cf565b61007c9190610174565b604051809103905ff080158015610095573d5f5f3e3d5ffd5b5073ffffffffffffffffffffffffffffffffffffffff1660a08173ffffffffffffffffffffffffffffffffffffffff16815250505061018d565b61064680612d3b83390190565b5f5ffd5b5f73ffffffffffffffffffffffffffffffffffffffff82169050919050565b5f610109826100e0565b9050919050565b610119816100ff565b8114610123575f5ffd5b50565b5f8151905061013481610110565b92915050565b5f6020828403121561014f5761014e6100dc565b5b5f61015c84828501610126565b91505092915050565b61016e816100ff565b82525050565b5f6020820190506101875f830184610165565b92915050565b60805160a051612b636101d85f395f81816101010152818161103f015261110501525f8181610442015281816109c001528181610a8d01528181610ab201526119e70152612b635ff3fe608060405234801561000f575f5ffd5b5060043610610055575f3560e01c80630c0a15f91461005957806310d1e85c146100775780637f5364ef146100935780638da5cb5b146100b1578063c00499ab146100cf575b5f5ffd5b6100616100ff565b60405161006e9190611ccf565b60405180910390f35b610091600480360381019061008c9190611dc8565b610123565b005b61009b61043f565b6040516100a89190611e5b565b60405180910390f35b6100b9610a8b565b6040516100c69190611e83565b60405180910390f35b6100e960048036038101906100e49190611e9c565b610aaf565b6040516100f69190611e5b565b60405180910390f35b7f000000000000000000000000000000000000000000000000000000000000000081565b5f5f9054906101000a900473ffffffffffffffffffffffffffffffffffffffff1673ffffffffffffffffffffffffffffffffffffffff163373ffffffffffffffffffffffffffffffffffffffff161415806101aa57503073ffffffffffffffffffffffffffffffffffffffff168573ffffffffffffffffffffffffffffffffffffffff1614155b156101e1576040517ff7a632f500000000000000000000000000000000000000000000000000000000815260040160405180910390fd5b5f5f85146101ef57846101f1565b835b90505f5f84848101906102049190611ec7565b9150915080831461024a576040517f08c379a000000000000000000000000000000000000000000000000000000000815260040161024190611f5f565b60405180910390fd5b61025382610b64565b5f60016103e56103e8866102679190611faa565b6102719190612018565b61027b9190612048565b90505f73c02aaa39b223fe8d0a0e5c4f27ead9083c756cc273ffffffffffffffffffffffffffffffffffffffff166370a08231306040518263ffffffff1660e01b81526004016102cb9190611e83565b602060405180830381865afa1580156102e6573d5f5f3e3d5ffd5b505050506040513d601f19601f8201168201806040525081019061030a919061208f565b9050818111610345576040517fa5adf0af00000000000000000000000000000000000000000000000000000000815260040160405180910390fd5b73c02aaa39b223fe8d0a0e5c4f27ead9083c756cc273ffffffffffffffffffffffffffffffffffffffff1663a9059cbb5f5f9054906101000a900473ffffffffffffffffffffffffffffffffffffffff16846040518363ffffffff1660e01b81526004016103b49291906120ba565b6020604051808303815f875af11580156103d0573d5f5f3e3d5ffd5b505050506040513d601f19601f820116820180604052508101906103f49190612116565b610433576040517f08c379a000000000000000000000000000000000000000000000000000000000815260040161042a9061218b565b60405180910390fd5b50505050505050505050565b5f7f000000000000000000000000000000000000000000000000000000000000000073ffffffffffffffffffffffffffffffffffffffff163373ffffffffffffffffffffffffffffffffffffffff16146104ce576040517f08c379a00000000000000000000000000000000000000000000000000000000081526004016104c5906121f3565b60405180910390fd5b5f6104d7611414565b90505f735c69bee701ef814a2b6a3edd4b1652cb9cc5aa6f73ffffffffffffffffffffffffffffffffffffffff1663e6a4390573c02aaa39b223fe8d0a0e5c4f27ead9083c756cc273a0b86991c6218b36c1d19d4a2e9eb0ce3606eb486040518363ffffffff1660e01b8152600401610551929190612211565b602060405180830381865afa15801561056c573d5f5f3e3d5ffd5b505050506040513d601f19601f82011682018060405250810190610590919061224c565b90505f73ffffffffffffffffffffffffffffffffffffffff168173ffffffffffffffffffffffffffffffffffffffff16036105f7576040517f63a68e8e00000000000000000000000000000000000000000000000000000000815260040160405180910390fd5b805f5f6101000a81548173ffffffffffffffffffffffffffffffffffffffff021916908373ffffffffffffffffffffffffffffffffffffffff1602179055505f73eda47e13fd1192e32226753dc2261c4a14908fb773ffffffffffffffffffffffffffffffffffffffff166349bd5a5e6040518163ffffffff1660e01b8152600401602060405180830381865afa158015610694573d5f5f3e3d5ffd5b505050506040513d601f19601f820116820180604052508101906106b8919061224c565b90505f5f6106da8373c02aaa39b223fe8d0a0e5c4f27ead9083c756cc261159f565b915091505f6106ea868484611838565b905073c02aaa39b223fe8d0a0e5c4f27ead9083c756cc273ffffffffffffffffffffffffffffffffffffffff168573ffffffffffffffffffffffffffffffffffffffff16630dfe16816040518163ffffffff1660e01b8152600401602060405180830381865afa158015610760573d5f5f3e3d5ffd5b505050506040513d601f19601f82011682018060405250810190610784919061224c565b73ffffffffffffffffffffffffffffffffffffffff1603610831578473ffffffffffffffffffffffffffffffffffffffff1663022c0d9f825f308a866040516020016107d1929190612277565b6040516020818303038152906040526040518563ffffffff1660e01b81526004016107ff9493929190612347565b5f604051808303815f87803b158015610816575f5ffd5b505af1158015610828573d5f5f3e3d5ffd5b505050506108bf565b8473ffffffffffffffffffffffffffffffffffffffff1663022c0d9f5f83308a86604051602001610863929190612277565b6040516020818303038152906040526040518563ffffffff1660e01b81526004016108919493929190612391565b5f604051808303815f87803b1580156108a8575f5ffd5b505af11580156108ba573d5f5f3e3d5ffd5b505050505b5f73c02aaa39b223fe8d0a0e5c4f27ead9083c756cc273ffffffffffffffffffffffffffffffffffffffff166370a08231306040518263ffffffff1660e01b815260040161090d9190611e83565b602060405180830381865afa158015610928573d5f5f3e3d5ffd5b505050506040513d601f19601f8201168201806040525081019061094c919061208f565b90505f8103610987576040517fa5adf0af00000000000000000000000000000000000000000000000000000000815260040160405180910390fd5b8060028190555073c02aaa39b223fe8d0a0e5c4f27ead9083c756cc273ffffffffffffffffffffffffffffffffffffffff1663a9059cbb7f0000000000000000000000000000000000000000000000000000000000000000836040518363ffffffff1660e01b81526004016109fd9291906120ba565b6020604051808303815f875af1158015610a19573d5f5f3e3d5ffd5b505050506040513d601f19601f82011682018060405250810190610a3d9190612116565b610a7c576040517f08c379a0000000000000000000000000000000000000000000000000000000008152600401610a7390612425565b60405180910390fd5b60025497505050505050505090565b7f000000000000000000000000000000000000000000000000000000000000000081565b5f7f000000000000000000000000000000000000000000000000000000000000000073ffffffffffffffffffffffffffffffffffffffff163373ffffffffffffffffffffffffffffffffffffffff1614610b3e576040517f08c379a0000000000000000000000000000000000000000000000000000000008152600401610b35906121f3565b60405180910390fd5b81600181905550610b55610b50611414565b610b64565b610b5d6118d6565b9050919050565b73c02aaa39b223fe8d0a0e5c4f27ead9083c756cc273ffffffffffffffffffffffffffffffffffffffff1663095ea7b3737a250d5630b4cf539739df2c5dacb4c659f2488d7fffffffffffffffffffffffffffffffffffffffffffffffffffffffffffffffff6040518363ffffffff1660e01b8152600401610be79291906120ba565b6020604051808303815f875af1158015610c03573d5f5f3e3d5ffd5b505050506040513d601f19601f82011682018060405250810190610c279190612116565b5073eda47e13fd1192e32226753dc2261c4a14908fb773ffffffffffffffffffffffffffffffffffffffff1663095ea7b3737a250d5630b4cf539739df2c5dacb4c659f2488d7fffffffffffffffffffffffffffffffffffffffffffffffffffffffffffffffff6040518363ffffffff1660e01b8152600401610cab9291906120ba565b6020604051808303815f875af1158015610cc7573d5f5f3e3d5ffd5b505050506040513d601f19601f82011682018060405250810190610ceb9190612116565b505f600267ffffffffffffffff811115610d0857610d07612443565b5b604051908082528060200260200182016040528015610d365781602001602082028036833780820191505090505b50905073c02aaa39b223fe8d0a0e5c4f27ead9083c756cc2815f81518110610d6157610d60612470565b5b602002602001019073ffffffffffffffffffffffffffffffffffffffff16908173ffffffffffffffffffffffffffffffffffffffff168152505073eda47e13fd1192e32226753dc2261c4a14908fb781600181518110610dc457610dc3612470565b5b602002602001019073ffffffffffffffffffffffffffffffffffffffff16908173ffffffffffffffffffffffffffffffffffffffff1681525050737a250d5630b4cf539739df2c5dacb4c659f2488d73ffffffffffffffffffffffffffffffffffffffff16638803dbee8373c02aaa39b223fe8d0a0e5c4f27ead9083c756cc273ffffffffffffffffffffffffffffffffffffffff166370a08231306040518263ffffffff1660e01b8152600401610e7c9190611e83565b602060405180830381865afa158015610e97573d5f5f3e3d5ffd5b505050506040513d601f19601f82011682018060405250810190610ebb919061208f565b8430426040518663ffffffff1660e01b8152600401610ede959493929190612554565b5f604051808303815f875af1158015610ef9573d5f5f3e3d5ffd5b505050506040513d5f823e3d601f19601f82011682018060405250810190610f2191906126b7565b50610f2a611aac565b5f73eda47e13fd1192e32226753dc2261c4a14908fb773ffffffffffffffffffffffffffffffffffffffff166370a08231306040518263ffffffff1660e01b8152600401610f789190611e83565b602060405180830381865afa158015610f93573d5f5f3e3d5ffd5b505050506040513d601f19601f82011682018060405250810190610fb7919061208f565b90505f838211610fc75781610fc9565b835b90505f810361100d576040517f08c379a000000000000000000000000000000000000000000000000000000000815260040161100490612748565b60405180910390fd5b73eda47e13fd1192e32226753dc2261c4a14908fb773ffffffffffffffffffffffffffffffffffffffff1663a9059cbb7f0000000000000000000000000000000000000000000000000000000000000000836040518363ffffffff1660e01b815260040161107c9291906120ba565b6020604051808303815f875af1158015611098573d5f5f3e3d5ffd5b505050506040513d601f19601f820116820180604052508101906110bc9190612116565b6110fb576040517f08c379a00000000000000000000000000000000000000000000000000000000081526004016110f2906127b0565b60405180910390fd5b611103611aac565b7f000000000000000000000000000000000000000000000000000000000000000073ffffffffffffffffffffffffffffffffffffffff16635c996d4273eda47e13fd1192e32226753dc2261c4a14908fb7306040518363ffffffff1660e01b8152600401611172929190612211565b5f604051808303815f87803b158015611189575f5ffd5b505af115801561119b573d5f5f3e3d5ffd5b505050506111a7611aac565b5f73eda47e13fd1192e32226753dc2261c4a14908fb773ffffffffffffffffffffffffffffffffffffffff166370a08231306040518263ffffffff1660e01b81526004016111f59190611e83565b602060405180830381865afa158015611210573d5f5f3e3d5ffd5b505050506040513d601f19601f82011682018060405250810190611234919061208f565b90505f8103611278576040517f08c379a000000000000000000000000000000000000000000000000000000000815260040161126f90612818565b60405180910390fd5b5f600267ffffffffffffffff81111561129457611293612443565b5b6040519080825280602002602001820160405280156112c25781602001602082028036833780820191505090505b50905073eda47e13fd1192e32226753dc2261c4a14908fb7815f815181106112ed576112ec612470565b5b602002602001019073ffffffffffffffffffffffffffffffffffffffff16908173ffffffffffffffffffffffffffffffffffffffff168152505073c02aaa39b223fe8d0a0e5c4f27ead9083c756cc2816001815181106113505761134f612470565b5b602002602001019073ffffffffffffffffffffffffffffffffffffffff16908173ffffffffffffffffffffffffffffffffffffffff1681525050737a250d5630b4cf539739df2c5dacb4c659f2488d73ffffffffffffffffffffffffffffffffffffffff16635c11d795835f8430426040518663ffffffff1660e01b81526004016113df959493929190612836565b5f604051808303815f87803b1580156113f6575f5ffd5b505af1158015611408573d5f5f3e3d5ffd5b50505050505050505050565b5f5f73eda47e13fd1192e32226753dc2261c4a14908fb773ffffffffffffffffffffffffffffffffffffffff166370a0823173eda47e13fd1192e32226753dc2261c4a14908fb76040518263ffffffff1660e01b81526004016114779190611e83565b602060405180830381865afa158015611492573d5f5f3e3d5ffd5b505050506040513d601f19601f820116820180604052508101906114b6919061208f565b9050633b9aca00610fa06114ca9190611faa565b8110611502576040517fbf50195700000000000000000000000000000000000000000000000000000000815260040160405180910390fd5b5f600182633b9aca00610fa06115189190611faa565b611522919061288e565b61152c919061288e565b90505f6103e8612710836115409190611faa565b61154a9190612018565b90506003816115599190612018565b9350633b9aca00841015611599576040517f7f92965100000000000000000000000000000000000000000000000000000000815260040160405180910390fd5b50505090565b5f5f5f5f8573ffffffffffffffffffffffffffffffffffffffff16630902f1ac6040518163ffffffff1660e01b8152600401606060405180830381865afa1580156115ec573d5f5f3e3d5ffd5b505050506040513d601f19601f82011682018060405250810190611610919061293d565b50915091508473ffffffffffffffffffffffffffffffffffffffff168673ffffffffffffffffffffffffffffffffffffffff16630dfe16816040518163ffffffff1660e01b8152600401602060405180830381865afa158015611675573d5f5f3e3d5ffd5b505050506040513d601f19601f82011682018060405250810190611699919061224c565b73ffffffffffffffffffffffffffffffffffffffff16036116df57816dffffffffffffffffffffffffffff169350806dffffffffffffffffffffffffffff1692506117e0565b8473ffffffffffffffffffffffffffffffffffffffff168673ffffffffffffffffffffffffffffffffffffffff1663d21220a76040518163ffffffff1660e01b8152600401602060405180830381865afa15801561173f573d5f5f3e3d5ffd5b505050506040513d601f19601f82011682018060405250810190611763919061224c565b73ffffffffffffffffffffffffffffffffffffffff16146117b9576040517f08c379a00000000000000000000000000000000000000000000000000000000081526004016117b0906129d7565b60405180910390fd5b806dffffffffffffffffffffffffffff169350816dffffffffffffffffffffffffffff1692505b5f84141580156117f057505f8314155b61182f576040517f08c379a000000000000000000000000000000000000000000000000000000000815260040161182690612a3f565b60405180910390fd5b50509250929050565b5f81841061187b576040517f08c379a000000000000000000000000000000000000000000000000000000000815260040161187290612aa7565b60405180910390fd5b5f6103e8858561188b9190611faa565b6118959190611faa565b90505f6103e586856118a7919061288e565b6118b19190611faa565b9050600181836118c19190612018565b6118cb9190612048565b925050509392505050565b5f5f73c02aaa39b223fe8d0a0e5c4f27ead9083c756cc273ffffffffffffffffffffffffffffffffffffffff166370a08231306040518263ffffffff1660e01b81526004016119259190611e83565b602060405180830381865afa158015611940573d5f5f3e3d5ffd5b505050506040513d601f19601f82011682018060405250810190611964919061208f565b905060015481116119a1576040517fa5adf0af00000000000000000000000000000000000000000000000000000000815260040160405180910390fd5b600154816119af919061288e565b60028190555073c02aaa39b223fe8d0a0e5c4f27ead9083c756cc273ffffffffffffffffffffffffffffffffffffffff1663a9059cbb7f0000000000000000000000000000000000000000000000000000000000000000836040518363ffffffff1660e01b8152600401611a249291906120ba565b6020604051808303815f875af1158015611a40573d5f5f3e3d5ffd5b505050506040513d601f19601f82011682018060405250810190611a649190612116565b611aa3576040517f08c379a0000000000000000000000000000000000000000000000000000000008152600401611a9a90612b0f565b60405180910390fd5b60025491505090565b5f73eda47e13fd1192e32226753dc2261c4a14908fb773ffffffffffffffffffffffffffffffffffffffff166349bd5a5e6040518163ffffffff1660e01b8152600401602060405180830381865afa158015611b0a573d5f5f3e3d5ffd5b505050506040513d601f19601f82011682018060405250810190611b2e919061224c565b90505f611b4f8273eda47e13fd1192e32226753dc2261c4a14908fb761159f565b5090505f73eda47e13fd1192e32226753dc2261c4a14908fb773ffffffffffffffffffffffffffffffffffffffff166370a08231846040518263ffffffff1660e01b8152600401611ba09190611e83565b602060405180830381865afa158015611bbb573d5f5f3e3d5ffd5b505050506040513d601f19601f82011682018060405250810190611bdf919061208f565b905081811115611c50578273ffffffffffffffffffffffffffffffffffffffff1663bc25cf77306040518263ffffffff1660e01b8152600401611c229190611e83565b5f604051808303815f87803b158015611c39575f5ffd5b505af1158015611c4b573d5f5f3e3d5ffd5b505050505b505050565b5f73ffffffffffffffffffffffffffffffffffffffff82169050919050565b5f819050919050565b5f611c97611c92611c8d84611c55565b611c74565b611c55565b9050919050565b5f611ca882611c7d565b9050919050565b5f611cb982611c9e565b9050919050565b611cc981611caf565b82525050565b5f602082019050611ce25f830184611cc0565b92915050565b5f604051905090565b5f5ffd5b5f5ffd5b5f611d0382611c55565b9050919050565b611d1381611cf9565b8114611d1d575f5ffd5b50565b5f81359050611d2e81611d0a565b92915050565b5f819050919050565b611d4681611d34565b8114611d50575f5ffd5b50565b5f81359050611d6181611d3d565b92915050565b5f5ffd5b5f5ffd5b5f5ffd5b5f5f83601f840112611d8857611d87611d67565b5b8235905067ffffffffffffffff811115611da557611da4611d6b565b5b602083019150836001820283011115611dc157611dc0611d6f565b5b9250929050565b5f5f5f5f5f60808688031215611de157611de0611cf1565b5b5f611dee88828901611d20565b9550506020611dff88828901611d53565b9450506040611e1088828901611d53565b935050606086013567ffffffffffffffff811115611e3157611e30611cf5565b5b611e3d88828901611d73565b92509250509295509295909350565b611e5581611d34565b82525050565b5f602082019050611e6e5f830184611e4c565b92915050565b611e7d81611cf9565b82525050565b5f602082019050611e965f830184611e74565b92915050565b5f60208284031215611eb157611eb0611cf1565b5b5f611ebe84828501611d53565b91505092915050565b5f5f60408385031215611edd57611edc611cf1565b5b5f611eea85828601611d53565b9250506020611efb85828601611d53565b9150509250929050565b5f82825260208201905092915050565b7f626f72726f77206d69736d6174636800000000000000000000000000000000005f82015250565b5f611f49600f83611f05565b9150611f5482611f15565b602082019050919050565b5f6020820190508181035f830152611f7681611f3d565b9050919050565b7f4e487b71000000000000000000000000000000000000000000000000000000005f52601160045260245ffd5b5f611fb482611d34565b9150611fbf83611d34565b9250828202611fcd81611d34565b91508282048414831517611fe457611fe3611f7d565b5b5092915050565b7f4e487b71000000000000000000000000000000000000000000000000000000005f52601260045260245ffd5b5f61202282611d34565b915061202d83611d34565b92508261203d5761203c611feb565b5b828204905092915050565b5f61205282611d34565b915061205d83611d34565b925082820190508082111561207557612074611f7d565b5b92915050565b5f8151905061208981611d3d565b92915050565b5f602082840312156120a4576120a3611cf1565b5b5f6120b18482850161207b565b91505092915050565b5f6040820190506120cd5f830185611e74565b6120da6020830184611e4c565b9392505050565b5f8115159050919050565b6120f5816120e1565b81146120ff575f5ffd5b50565b5f81519050612110816120ec565b92915050565b5f6020828403121561212b5761212a611cf1565b5b5f61213884828501612102565b91505092915050565b7f7265706179206661696c656400000000000000000000000000000000000000005f82015250565b5f612175600c83611f05565b915061218082612141565b602082019050919050565b5f6020820190508181035f8301526121a281612169565b9050919050565b7f6f6e6c79206f776e6572000000000000000000000000000000000000000000005f82015250565b5f6121dd600a83611f05565b91506121e8826121a9565b602082019050919050565b5f6020820190508181035f83015261220a816121d1565b9050919050565b5f6040820190506122245f830185611e74565b6122316020830184611e74565b9392505050565b5f8151905061224681611d0a565b92915050565b5f6020828403121561226157612260611cf1565b5b5f61226e84828501612238565b91505092915050565b5f60408201905061228a5f830185611e4c565b6122976020830184611e4c565b9392505050565b5f819050919050565b5f6122c16122bc6122b78461229e565b611c74565b611d34565b9050919050565b6122d1816122a7565b82525050565b5f81519050919050565b5f82825260208201905092915050565b8281835e5f83830152505050565b5f601f19601f8301169050919050565b5f612319826122d7565b61232381856122e1565b93506123338185602086016122f1565b61233c816122ff565b840191505092915050565b5f60808201905061235a5f830187611e4c565b61236760208301866122c8565b6123746040830185611e74565b8181036060830152612386818461230f565b905095945050505050565b5f6080820190506123a45f8301876122c8565b6123b16020830186611e4c565b6123be6040830185611e74565b81810360608301526123d0818461230f565b905095945050505050565b7f70726f666974207472616e73666572206661696c6564000000000000000000005f82015250565b5f61240f601683611f05565b915061241a826123db565b602082019050919050565b5f6020820190508181035f83015261243c81612403565b9050919050565b7f4e487b71000000000000000000000000000000000000000000000000000000005f52604160045260245ffd5b7f4e487b71000000000000000000000000000000000000000000000000000000005f52603260045260245ffd5b5f81519050919050565b5f82825260208201905092915050565b5f819050602082019050919050565b6124cf81611cf9565b82525050565b5f6124e083836124c6565b60208301905092915050565b5f602082019050919050565b5f6125028261249d565b61250c81856124a7565b9350612517836124b7565b805f5b8381101561254757815161252e88826124d5565b9750612539836124ec565b92505060018101905061251a565b5085935050505092915050565b5f60a0820190506125675f830188611e4c565b6125746020830187611e4c565b818103604083015261258681866124f8565b90506125956060830185611e74565b6125a26080830184611e4c565b9695505050505050565b6125b5826122ff565b810181811067ffffffffffffffff821117156125d4576125d3612443565b5b80604052505050565b5f6125e6611ce8565b90506125f282826125ac565b919050565b5f67ffffffffffffffff82111561261157612610612443565b5b602082029050602081019050919050565b5f61263461262f846125f7565b6125dd565b9050808382526020820190506020840283018581111561265757612656611d6f565b5b835b81811015612680578061266c888261207b565b845260208401935050602081019050612659565b5050509392505050565b5f82601f83011261269e5761269d611d67565b5b81516126ae848260208601612622565b91505092915050565b5f602082840312156126cc576126cb611cf1565b5b5f82015167ffffffffffffffff8111156126e9576126e8611cf5565b5b6126f58482850161268a565b91505092915050565b7f6e6f20484f444c206166746572206275790000000000000000000000000000005f82015250565b5f612732601183611f05565b915061273d826126fe565b602082019050919050565b5f6020820190508181035f83015261275f81612726565b9050919050565b7f7472616e73666572206f7574206661696c6564000000000000000000000000005f82015250565b5f61279a601383611f05565b91506127a582612766565b602082019050919050565b5f6020820190508181035f8301526127c78161278e565b9050919050565b7f6e6f20484f444c20746f2073656c6c00000000000000000000000000000000005f82015250565b5f612802600f83611f05565b915061280d826127ce565b602082019050919050565b5f6020820190508181035f83015261282f816127f6565b9050919050565b5f60a0820190506128495f830188611e4c565b61285660208301876122c8565b818103604083015261286881866124f8565b90506128776060830185611e74565b6128846080830184611e4c565b9695505050505050565b5f61289882611d34565b91506128a383611d34565b92508282039050818111156128bb576128ba611f7d565b5b92915050565b5f6dffffffffffffffffffffffffffff82169050919050565b6128e3816128c1565b81146128ed575f5ffd5b50565b5f815190506128fe816128da565b92915050565b5f63ffffffff82169050919050565b61291c81612904565b8114612926575f5ffd5b50565b5f8151905061293781612913565b92915050565b5f5f5f6060848603121561295457612953611cf1565b5b5f612961868287016128f0565b9350506020612972868287016128f0565b925050604061298386828701612929565b9150509250925092565b7f746f6b656e206d69736d617463680000000000000000000000000000000000005f82015250565b5f6129c1600e83611f05565b91506129cc8261298d565b602082019050919050565b5f6020820190508181035f8301526129ee816129b5565b9050919050565b7f656d7074792072657365727665730000000000000000000000000000000000005f82015250565b5f612a29600e83611f05565b9150612a34826129f5565b602082019050919050565b5f6020820190508181035f830152612a5681612a1d565b9050919050565b7f696e73756666696369656e742072657365727665206f757400000000000000005f82015250565b5f612a91601883611f05565b9150612a9c82612a5d565b602082019050919050565b5f6020820190508181035f830152612abe81612a85565b9050919050565b7f6361706974616c2072657475726e206661696c656400000000000000000000005f82015250565b5f612af9601583611f05565b9150612b0482612ac5565b602082019050919050565b5f6020820190508181035f830152612b2681612aed565b905091905056fea26469706673582212200dd529e70d4f04f5f2ded2216ad2194d41d798c3489e4dbad52e2612ecc756b164736f6c634300081e003360a060405234801561000f575f5ffd5b50604051610646380380610646833981810160405281019061003191906100c9565b8073ffffffffffffffffffffffffffffffffffffffff1660808173ffffffffffffffffffffffffffffffffffffffff1681525050506100f4565b5f5ffd5b5f73ffffffffffffffffffffffffffffffffffffffff82169050919050565b5f6100988261006f565b9050919050565b6100a88161008e565b81146100b2575f5ffd5b50565b5f815190506100c38161009f565b92915050565b5f602082840312156100de576100dd61006b565b5b5f6100eb848285016100b5565b91505092915050565b6080516105346101125f395f81816074015261024401526105345ff3fe608060405234801561000f575f5ffd5b5060043610610034575f3560e01c80635c996d42146100385780638da5cb5b14610054575b5f5ffd5b610052600480360381019061004d91906102c4565b610072565b005b61005c610242565b6040516100699190610311565b60405180910390f35b7f000000000000000000000000000000000000000000000000000000000000000073ffffffffffffffffffffffffffffffffffffffff163373ffffffffffffffffffffffffffffffffffffffff1614610100576040517f08c379a00000000000000000000000000000000000000000000000000000000081526004016100f790610384565b60405180910390fd5b5f8273ffffffffffffffffffffffffffffffffffffffff166370a08231306040518263ffffffff1660e01b815260040161013a9190610311565b602060405180830381865afa158015610155573d5f5f3e3d5ffd5b505050506040513d601f19601f8201168201806040525081019061017991906103d5565b90505f811461023d578273ffffffffffffffffffffffffffffffffffffffff1663a9059cbb83836040518363ffffffff1660e01b81526004016101bd92919061040f565b6020604051808303815f875af11580156101d9573d5f5f3e3d5ffd5b505050506040513d601f19601f820116820180604052508101906101fd919061046b565b61023c576040517f08c379a0000000000000000000000000000000000000000000000000000000008152600401610233906104e0565b60405180910390fd5b5b505050565b7f000000000000000000000000000000000000000000000000000000000000000081565b5f5ffd5b5f73ffffffffffffffffffffffffffffffffffffffff82169050919050565b5f6102938261026a565b9050919050565b6102a381610289565b81146102ad575f5ffd5b50565b5f813590506102be8161029a565b92915050565b5f5f604083850312156102da576102d9610266565b5b5f6102e7858286016102b0565b92505060206102f8858286016102b0565b9150509250929050565b61030b81610289565b82525050565b5f6020820190506103245f830184610302565b92915050565b5f82825260208201905092915050565b7f6f6e6c79206f776e6572000000000000000000000000000000000000000000005f82015250565b5f61036e600a8361032a565b91506103798261033a565b602082019050919050565b5f6020820190508181035f83015261039b81610362565b9050919050565b5f819050919050565b6103b4816103a2565b81146103be575f5ffd5b50565b5f815190506103cf816103ab565b92915050565b5f602082840312156103ea576103e9610266565b5b5f6103f7848285016103c1565b91505092915050565b610409816103a2565b82525050565b5f6040820190506104225f830185610302565b61042f6020830184610400565b9392505050565b5f8115159050919050565b61044a81610436565b8114610454575f5ffd5b50565b5f8151905061046581610441565b92915050565b5f602082840312156104805761047f610266565b5b5f61048d84828501610457565b91505092915050565b7f73656e64416c6c206661696c65640000000000000000000000000000000000005f82015250565b5f6104ca600e8361032a565b91506104d582610496565b602082019050919050565b5f6020820190508181035f8301526104f7816104be565b905091905056fea26469706673582212202e964bd50a74d7e7c1f1497bf29a941af00d590b7a22ba577839db2775fe4cbc64736f6c634300081e0033","linkReferences":{}},"methodIdentifiers":{"owner()":"8da5cb5b","runWithFlashSwap()":"7f5364ef","runWithVerifierCapital(uint256)":"c00499ab","shuttle()":"0c0a15f9","uniswapV2Call(address,uint256,uint256,bytes)":"10d1e85c"},"id":0}