{"abi":[{"type":"constructor","inputs":[{"name":"owner_","type":"address","internalType":"address"}],"stateMutability":"nonpayable"},{"type":"function","name":"owner","inputs":[],"outputs":[{"name":"","type":"address","internalType":"address"}],"stateMutability":"view"},{"type":"function","name":"sendAll","inputs":[{"name":"token","type":"address","internalType":"address"},{"name":"to","type":"address","internalType":"address"}],"outputs":[],"stateMutability":"nonpayable"}],"bytecode":{"object":"0x60a060405234801561000f575f5ffd5b50604051610646380380610646833981810160405281019061003191906100c9565b8073ffffffffffffffffffffffffffffffffffffffff1660808173ffffffffffffffffffffffffffffffffffffffff1681525050506100f4565b5f5ffd5b5f73ffffffffffffffffffffffffffffffffffffffff82169050919050565b5f6100988261006f565b9050919050565b6100a88161008e565b81146100b2575f5ffd5b50565b5f815190506100c38161009f565b92915050565b5f602082840312156100de576100dd61006b565b5b5f6100eb848285016100b5565b91505092915050565b6080516105346101125f395f81816074015261024401526105345ff3fe608060405234801561000f575f5ffd5b5060043610610034575f3560e01c80635c996d42146100385780638da5cb5b14610054575b5f5ffd5b610052600480360381019061004d91906102c4565b610072565b005b61005c610242565b6040516100699190610311565b60405180910390f35b7f000000000000000000000000000000000000000000000000000000000000000073ffffffffffffffffffffffffffffffffffffffff163373ffffffffffffffffffffffffffffffffffffffff1614610100576040517f08c379a00000000000000000000000000000000000000000000000000000000081526004016100f790610384565b60405180910390fd5b5f8273ffffffffffffffffffffffffffffffffffffffff166370a08231306040518263ffffffff1660e01b815260040161013a9190610311565b602060405180830381865afa158015610155573d5f5f3e3d5ffd5b505050506040513d601f19601f8201168201806040525081019061017991906103d5565b90505f811461023d578273ffffffffffffffffffffffffffffffffffffffff1663a9059cbb83836040518363ffffffff1660e01b81526004016101bd92919061040f565b6020604051808303815f875af11580156101d9573d5f5f3e3d5ffd5b505050506040513d601f19601f820116820180604052508101906101fd919061046b565b61023c576040517f08c379a0000000000000000000000000000000000000000000000000000000008152600401610233906104e0565b60405180910390fd5b5b505050565b7f000000000000000000000000000000000000000000000000000000000000000081565b5f5ffd5b5f73ffffffffffffffffffffffffffffffffffffffff82169050919050565b5f6102938261026a565b9050919050565b6102a381610289565b81146102ad575f5ffd5b50565b5f813590506102be8161029a565b92915050565b5f5f604083850312156102da576102d9610266565b5b5f6102e7858286016102b0565b92505060206102f8858286016102b0565b9150509250929050565b61030b81610289565b82525050565b5f6020820190506103245f830184610302565b92915050565b5f82825260208201905092915050565b7f6f6e6c79206f776e6572000000000000000000000000000000000000000000005f82015250565b5f61036e600a8361032a565b91506103798261033a565b602082019050919050565b5f6020820190508181035f83015261039b81610362565b9050919050565b5f819050919050565b6103b4816103a2565b81146103be575f5ffd5b50565b5f815190506103cf816103ab565b92915050565b5f602082840312156103ea576103e9610266565b5b5f6103f7848285016103c1565b91505092915050565b610409816103a2565b82525050565b5f6040820190506104225f830185610302565b61042f6020830184610400565b9392505050565b5f8115159050919050565b61044a81610436565b8114610454575f5ffd5b50565b5f8151905061046581610441565b92915050565b5f602082840312156104805761047f610266565b5b5f61048d84828501610457565b91505092915050565b7f73656e64416c6c206661696c65640000000000000000000000000000000000005f82015250565b5f6104ca600e8361032a565b91506104d582610496565b602082019050919050565b5f6020820190508181035f8301526104f7816104be565b905091905056fea26469706673582212202e964bd50a74d7e7c1f1497bf29a941af00d590b7a22ba577839db2775fe4cbc64736f6c634300081e0033","linkReferences":{}},"methodIdentifiers":{"owner()":"8da5cb5b","sendAll(address,address)":"5c996d42"},"id":0}