{"abi":[{"type":"constructor","inputs":[],"stateMutability":"nonpayable"},{"type":"function","name":"approvalStageReachable","inputs":[],"outputs":[{"name":"","type":"bool","internalType":"bool"}],"stateMutability":"view"},{"type":"function","name":"checkedTarget","inputs":[],"outputs":[{"name":"","type":"bool","internalType":"bool"}],"stateMutability":"view"},{"type":"function","name":"executeOnOpportunity","inputs":[],"outputs":[],"stateMutability":"nonpayable"},{"type":"function","name":"exploitPathUsed","inputs":[],"outputs":[{"name":"","type":"string","internalType":"string"}],"stateMutability":"view"},{"type":"function","name":"fakeReplacementStageReachable","inputs":[],"outputs":[{"name":"","type":"bool","internalType":"bool"}],"stateMutability":"view"},{"type":"function","name":"hypothesisValidated","inputs":[],"outputs":[{"name":"","type":"bool","internalType":"bool"}],"stateMutability":"view"},{"type":"function","name":"infeasibilityReason","inputs":[],"outputs":[{"name":"","type":"string","internalType":"string"}],"stateMutability":"view"},{"type":"function","name":"infeasibilityReasonBytesEmpty","inputs":[],"outputs":[{"name":"","type":"bool","internalType":"bool"}],"stateMutability":"view"},{"type":"function","name":"migrateCallReachable","inputs":[],"outputs":[{"name":"","type":"bool","internalType":"bool"}],"stateMutability":"view"},{"type":"function","name":"observedFactory","inputs":[],"outputs":[{"name":"","type":"address","internalType":"address"}],"stateMutability":"view"},{"type":"function","name":"observedMasterChef","inputs":[],"outputs":[{"name":"","type":"address","internalType":"address"}],"stateMutability":"view"},{"type":"function","name":"observedMigrator","inputs":[],"outputs":[{"name":"","type":"address","internalType":"address"}],"stateMutability":"view"},{"type":"function","name":"observedOwner","inputs":[],"outputs":[{"name":"","type":"address","internalType":"address"}],"stateMutability":"view"},{"type":"function","name":"observedPid","inputs":[],"outputs":[{"name":"","type":"uint256","internalType":"uint256"}],"stateMutability":"view"},{"type":"function","name":"observedPoolLength","inputs":[],"outputs":[{"name":"","type":"uint256","internalType":"uint256"}],"stateMutability":"view"},{"type":"function","name":"observedPoolLpBalance","inputs":[],"outputs":[{"name":"","type":"uint256","internalType":"uint256"}],"stateMutability":"view"},{"type":"function","name":"observedPoolLpToken","inputs":[],"outputs":[{"name":"","type":"address","internalType":"address"}],"stateMutability":"view"},{"type":"function","name":"observedReplacementToken","inputs":[],"outputs":[{"name":"","type":"address","internalType":"address"}],"stateMutability":"view"},{"type":"function","name":"observedTargetLpBalance","inputs":[],"outputs":[{"name":"","type":"uint256","internalType":"uint256"}],"stateMutability":"view"},{"type":"function","name":"observedTargetOwner","inputs":[],"outputs":[{"name":"","type":"address","internalType":"address"}],"stateMutability":"view"},{"type":"function","name":"ownerStageReachable","inputs":[],"outputs":[{"name":"","type":"bool","internalType":"bool"}],"stateMutability":"view"},{"type":"function","name":"poolReplacementStageReachable","inputs":[],"outputs":[{"name":"","type":"bool","internalType":"bool"}],"stateMutability":"view"},{"type":"function","name":"profitAmount","inputs":[],"outputs":[{"name":"","type":"uint256","internalType":"uint256"}],"stateMutability":"view"},{"type":"function","name":"profitToken","inputs":[],"outputs":[{"name":"","type":"address","internalType":"address"}],"stateMutability":"view"},{"type":"function","name":"stagedMaliciousMigrator","inputs":[],"outputs":[{"name":"","type":"address","internalType":"address"}],"stateMutability":"view"},{"type":"function","name":"target","inputs":[],"outputs":[{"name":"","type":"address","internalType":"address"}],"stateMutability":"pure"},{"type":"function","name":"targetExposesMigratorFlow","inputs":[],"outputs":[{"name":"","type":"bool","internalType":"bool"}],"stateMutability":"view"},{"type":"function","name":"targetHasCode","inputs":[],"outputs":[{"name":"","type":"bool","internalType":"bool"}],"stateMutability":"view"}],"bytecode":{"object":"0x6080604052348015600e575f5ffd5b506132a68061001c5f395ff3fe608060405234801561000f575f5ffd5b50600436106101c2575f3560e01c80638270463e116100f7578063df5e8cb411610095578063e17faf241161006f578063e17faf2414610482578063e5ca9d51146104a0578063f2cc5ae1146104be578063f9fc49d7146104dc576101c2565b8063df5e8cb414610428578063dfa6be1b14610446578063dfe3bbf614610464576101c2565b8063bb0541d3116100d1578063bb0541d3146103b0578063c0e3aa1d146103ce578063d4b83992146103ec578063d78c42811461040a576101c2565b80638270463e1461035657806382ff113b146103745780639e7977de14610392576101c2565b8063463defd11161016457806363c9f4ae1161013e57806363c9f4ae146102de578063674679b3146102fc57806375e7f3521461031a57806379965d8b14610338576101c2565b8063463defd11461028457806349343624146102a25780635ff972cc146102c0576101c2565b80631e242437116101a05780631e242437146102205780632017aaf91461023e5780633c2448ed1461025c5780634628de2514610266576101c2565b80630c02e9d2146101c65780631aea0ade146101e45780631aede64f14610202575b5f5ffd5b6101ce6104fa565b6040516101db919061214d565b60405180910390f35b6101ec61051f565b6040516101f99190612180565b60405180910390f35b61020a610536565b604051610217919061214d565b60405180910390f35b61022861055b565b60405161023591906121b1565b60405180910390f35b610246610561565b604051610253919061214d565b60405180910390f35b610264610586565b005b61026e611188565b60405161027b919061214d565b60405180910390f35b61028c6111ae565b6040516102999190612180565b60405180910390f35b6102aa6111c3565b6040516102b7919061214d565b60405180910390f35b6102c86111ea565b6040516102d591906121b1565b60405180910390f35b6102e66111f3565b6040516102f39190612180565b60405180910390f35b610304611206565b6040516103119190612180565b60405180910390f35b610322611219565b60405161032f91906121b1565b60405180910390f35b610340611222565b60405161034d919061214d565b60405180910390f35b61035e611247565b60405161036b919061214d565b60405180910390f35b61037c61126c565b60405161038991906121b1565b60405180910390f35b61039a611272565b6040516103a79190612180565b60405180910390f35b6103b8611285565b6040516103c59190612180565b60405180910390f35b6103d6611298565b6040516103e391906121b1565b60405180910390f35b6103f461129e565b604051610401919061214d565b60405180910390f35b6104126112b9565b60405161041f919061223a565b60405180910390f35b610430611345565b60405161043d9190612180565b60405180910390f35b61044e611358565b60405161045b919061223a565b60405180910390f35b61046c6113e4565b6040516104799190612180565b60405180910390f35b61048a6113f7565b6040516104979190612180565b60405180910390f35b6104a861140a565b6040516104b59190612180565b60405180910390f35b6104c661141b565b6040516104d3919061214d565b60405180910390f35b6104e4611440565b6040516104f1919061214d565b60405180910390f35b60085f9054906101000a900473ffffffffffffffffffffffffffffffffffffffff1681565b5f5f600e805461052e90612287565b905014905090565b60035f9054906101000a900473ffffffffffffffffffffffffffffffffffffffff1681565b60095481565b60065f9054906101000a900473ffffffffffffffffffffffffffffffffffffffff1681565b61058e611465565b6001600260016101000a81548160ff02191690831515021790555073c02aaa39b223fe8d0a0e5c4f27ead9083c756cc25f5f6101000a81548173ffffffffffffffffffffffffffffffffffffffff021916908373ffffffffffffffffffffffffffffffffffffffff160217905550604051806101a0016040528061016681526020016130476101669139600d90816106269190612484565b505f73e11fc0b43ab98eb91e9836129d1ee7c3bc95df5073ffffffffffffffffffffffffffffffffffffffff163b14156002806101000a81548160ff02191690831515021790555060028054906101000a900460ff166106ad5760405180606001604052806026815260200161324b60269139600e90816106a79190612484565b50611186565b6106ca73e11fc0b43ab98eb91e9836129d1ee7c3bc95df5061180e565b600260096101000a81548173ffffffffffffffffffffffffffffffffffffffff021916908373ffffffffffffffffffffffffffffffffffffffff16021790555061072773e11fc0b43ab98eb91e9836129d1ee7c3bc95df50611914565b60035f6101000a81548173ffffffffffffffffffffffffffffffffffffffff021916908373ffffffffffffffffffffffffffffffffffffffff160217905550610783736b3595068778dd592e39a122f4f5a5cf09c90fe261180e565b60045f6101000a81548173ffffffffffffffffffffffffffffffffffffffff021916908373ffffffffffffffffffffffffffffffffffffffff1602179055505f60045f9054906101000a900473ffffffffffffffffffffffffffffffffffffffff1673ffffffffffffffffffffffffffffffffffffffff163b0361082e576040518060800160405280604b8152602001612eef604b9139600e90816108289190612484565b50611186565b5f5f6108c560045f9054906101000a900473ffffffffffffffffffffffffffffffffffffffff16637cd07e4760e01b604051602401604051602081830303815290604052907bffffffffffffffffffffffffffffffffffffffffffffffffffffffff19166020820180517bffffffffffffffffffffffffffffffffffffffffffffffffffffffff8381831617835250505050611a1a565b915091505f5f61096060045f9054906101000a900473ffffffffffffffffffffffffffffffffffffffff1663081e3eda60e01b604051602401604051602081830303815290604052907bffffffffffffffffffffffffffffffffffffffffffffffffffffffff19166020820180517bffffffffffffffffffffffffffffffffffffffffffffffffffffffff8381831617835250505050611ac9565b9150915083158061096f575081155b156109a5576040518060800160405280605081526020016131fb60509139600e908161099b9190612484565b5050505050611186565b6001600260036101000a81548160ff0219169083151502179055506001600260056101000a81548160ff0219169083151502179055508260065f6101000a81548173ffffffffffffffffffffffffffffffffffffffff021916908373ffffffffffffffffffffffffffffffffffffffff16021790555080600981905550610a4c60045f9054906101000a900473ffffffffffffffffffffffffffffffffffffffff1661180e565b60055f6101000a81548173ffffffffffffffffffffffffffffffffffffffff021916908373ffffffffffffffffffffffffffffffffffffffff160217905550610ab560045f9054906101000a900473ffffffffffffffffffffffffffffffffffffffff16611b78565b5f73ffffffffffffffffffffffffffffffffffffffff1660075f9054906101000a900473ffffffffffffffffffffffffffffffffffffffff1673ffffffffffffffffffffffffffffffffffffffff161480610b1157505f600a54145b15610b47576040518060800160405280604e81526020016131ad604e9139600e9081610b3d9190612484565b5050505050611186565b610b7960045f9054906101000a900473ffffffffffffffffffffffffffffffffffffffff16610b74611219565b611cad565b60085f6101000a81548173ffffffffffffffffffffffffffffffffffffffff021916908373ffffffffffffffffffffffffffffffffffffffff1602179055505f73ffffffffffffffffffffffffffffffffffffffff1660085f9054906101000a900473ffffffffffffffffffffffffffffffffffffffff1673ffffffffffffffffffffffffffffffffffffffff1603610c3d576040518060a0016040528060638152602001612f9860639139600e9081610c339190612484565b5050505050611186565b3073ffffffffffffffffffffffffffffffffffffffff1660055f9054906101000a900473ffffffffffffffffffffffffffffffffffffffff1673ffffffffffffffffffffffffffffffffffffffff1614600260046101000a81548160ff021916908315150217905550600260049054906101000a900460ff16610ceb576040518060800160405280604c8152602001612ffb604c9139600e9081610ce19190612484565b5050505050611186565b604051610cf790612101565b604051809103905ff080158015610d10573d5f5f3e3d5ffd5b50600c5f6101000a81548173ffffffffffffffffffffffffffffffffffffffff021916908373ffffffffffffffffffffffffffffffffffffffff160217905550600c5f9054906101000a900473ffffffffffffffffffffffffffffffffffffffff1673ffffffffffffffffffffffffffffffffffffffff1663e470d5cf3060085f9054906101000a900473ffffffffffffffffffffffffffffffffffffffff166040518363ffffffff1660e01b8152600401610dcd929190612553565b5f604051808303815f87803b158015610de4575f5ffd5b505af1158015610df6573d5f5f3e3d5ffd5b5050505060045f9054906101000a900473ffffffffffffffffffffffffffffffffffffffff1673ffffffffffffffffffffffffffffffffffffffff166323cf3118600c5f9054906101000a900473ffffffffffffffffffffffffffffffffffffffff166040518263ffffffff1660e01b8152600401610e75919061214d565b5f604051808303815f87803b158015610e8c575f5ffd5b505af1158015610e9e573d5f5f3e3d5ffd5b505050506001600260066101000a81548160ff02191690831515021790555060045f9054906101000a900473ffffffffffffffffffffffffffffffffffffffff1673ffffffffffffffffffffffffffffffffffffffff1663454b0608600b546040518263ffffffff1660e01b8152600401610f1991906121b1565b5f604051808303815f87803b158015610f30575f5ffd5b505af1158015610f42573d5f5f3e3d5ffd5b505050506001600260076101000a81548160ff0219169083151502179055505f60045f9054906101000a900473ffffffffffffffffffffffffffffffffffffffff1673ffffffffffffffffffffffffffffffffffffffff16631526fe27600b546040518263ffffffff1660e01b8152600401610fbe91906121b1565b608060405180830381865afa158015610fd9573d5f5f3e3d5ffd5b505050506040513d601f19601f82011682018060405250810190610ffd91906125d2565b505050905060085f9054906101000a900473ffffffffffffffffffffffffffffffffffffffff1673ffffffffffffffffffffffffffffffffffffffff168173ffffffffffffffffffffffffffffffffffffffff1614600260086101000a81548160ff02191690831515021790555060075f9054906101000a900473ffffffffffffffffffffffffffffffffffffffff165f5f6101000a81548173ffffffffffffffffffffffffffffffffffffffff021916908373ffffffffffffffffffffffffffffffffffffffff1602179055506110f660075f9054906101000a900473ffffffffffffffffffffffffffffffffffffffff1630611fc0565b600181905550600260089054906101000a900460ff16801561111a57505f60015414155b60025f6101000a81548160ff02191690831515021790555060025f9054906101000a900460ff16158015611152575061115161051f565b5b15611180576040518060800160405280605e8152602001612f3a605e9139600e908161117e9190612484565b505b50505050505b565b600260099054906101000a900473ffffffffffffffffffffffffffffffffffffffff1681565b5f60025f9054906101000a900460ff16905090565b5f5f5f9054906101000a900473ffffffffffffffffffffffffffffffffffffffff16905090565b5f600154905090565b600260019054906101000a900460ff1681565b600260049054906101000a900460ff1681565b5f600a54905090565b60055f9054906101000a900473ffffffffffffffffffffffffffffffffffffffff1681565b600c5f9054906101000a900473ffffffffffffffffffffffffffffffffffffffff1681565b600a5481565b600260089054906101000a900460ff1681565b600260079054906101000a900460ff1681565b600b5481565b5f73e11fc0b43ab98eb91e9836129d1ee7c3bc95df50905090565b600d80546112c690612287565b80601f01602080910402602001604051908101604052809291908181526020018280546112f290612287565b801561133d5780601f106113145761010080835404028352916020019161133d565b820191905f5260205f20905b81548152906001019060200180831161132057829003601f168201915b505050505081565b600260069054906101000a900460ff1681565b600e805461136590612287565b80601f016020809104026020016040519081016040528092919081815260200182805461139190612287565b80156113dc5780601f106113b3576101008083540402835291602001916113dc565b820191905f5260205f20905b8154815290600101906020018083116113bf57829003601f168201915b505050505081565b600260059054906101000a900460ff1681565b600260039054906101000a900460ff1681565b60028054906101000a900460ff1681565b60075f9054906101000a900473ffffffffffffffffffffffffffffffffffffffff1681565b60045f9054906101000a900473ffffffffffffffffffffffffffffffffffffffff1681565b5f5f5f6101000a81548173ffffffffffffffffffffffffffffffffffffffff021916908373ffffffffffffffffffffffffffffffffffffffff1602179055505f6001819055505f60025f6101000a81548160ff0219169083151502179055505f600260016101000a81548160ff0219169083151502179055505f6002806101000a81548160ff0219169083151502179055505f600260036101000a81548160ff0219169083151502179055505f600260046101000a81548160ff0219169083151502179055505f600260056101000a81548160ff0219169083151502179055505f600260066101000a81548160ff0219169083151502179055505f600260076101000a81548160ff0219169083151502179055505f600260086101000a81548160ff0219169083151502179055505f600260096101000a81548173ffffffffffffffffffffffffffffffffffffffff021916908373ffffffffffffffffffffffffffffffffffffffff1602179055505f60035f6101000a81548173ffffffffffffffffffffffffffffffffffffffff021916908373ffffffffffffffffffffffffffffffffffffffff1602179055505f60045f6101000a81548173ffffffffffffffffffffffffffffffffffffffff021916908373ffffffffffffffffffffffffffffffffffffffff1602179055505f60055f6101000a81548173ffffffffffffffffffffffffffffffffffffffff021916908373ffffffffffffffffffffffffffffffffffffffff1602179055505f60065f6101000a81548173ffffffffffffffffffffffffffffffffffffffff021916908373ffffffffffffffffffffffffffffffffffffffff1602179055505f60075f6101000a81548173ffffffffffffffffffffffffffffffffffffffff021916908373ffffffffffffffffffffffffffffffffffffffff1602179055505f60085f6101000a81548173ffffffffffffffffffffffffffffffffffffffff021916908373ffffffffffffffffffffffffffffffffffffffff1602179055505f6009819055505f600a819055505f600b819055505f600c5f6101000a81548173ffffffffffffffffffffffffffffffffffffffff021916908373ffffffffffffffffffffffffffffffffffffffff1602179055506040518060400160405280600481526020017f6e6f6e6500000000000000000000000000000000000000000000000000000000815250600d90816117ed9190612484565b5060405180602001604052805f815250600e908161180b9190612484565b50565b5f5f5f8373ffffffffffffffffffffffffffffffffffffffff16638da5cb5b60e01b604051602401604051602081830303815290604052907bffffffffffffffffffffffffffffffffffffffffffffffffffffffff19166020820180517bffffffffffffffffffffffffffffffffffffffffffffffffffffffff83818316178352505050506040516118a0919061267a565b5f60405180830381855afa9150503d805f81146118d8576040519150601f19603f3d011682016040523d82523d5f602084013e6118dd565b606091505b50915091508180156118f157506020815110155b1561190d578080602001905181019061190a91906126cb565b92505b5050919050565b5f5f5f8373ffffffffffffffffffffffffffffffffffffffff1663c45a015560e01b604051602401604051602081830303815290604052907bffffffffffffffffffffffffffffffffffffffffffffffffffffffff19166020820180517bffffffffffffffffffffffffffffffffffffffffffffffffffffffff83818316178352505050506040516119a6919061267a565b5f60405180830381855afa9150503d805f81146119de576040519150601f19603f3d011682016040523d82523d5f602084013e6119e3565b606091505b50915091508180156119f757506020815110155b15611a135780806020019051810190611a1091906126cb565b92505b5050919050565b5f5f5f5f8573ffffffffffffffffffffffffffffffffffffffff1685604051611a43919061267a565b5f60405180830381855afa9150503d805f8114611a7b576040519150601f19603f3d011682016040523d82523d5f602084013e611a80565b606091505b5091509150811580611a93575060208151105b15611aa5575f5f935093505050611ac2565b600181806020019051810190611abb91906126cb565b9350935050505b9250929050565b5f5f5f5f8573ffffffffffffffffffffffffffffffffffffffff1685604051611af2919061267a565b5f60405180830381855afa9150503d805f8114611b2a576040519150601f19603f3d011682016040523d82523d5f602084013e611b2f565b606091505b5091509150811580611b42575060208151105b15611b54575f5f935093505050611b71565b600181806020019051810190611b6a91906126f6565b9350935050505b9250929050565b5f60095490505f8103611b8b5750611caa565b5f60408211611b9a5781611b9d565b60405b90505f5f90505b81811015611ca6578373ffffffffffffffffffffffffffffffffffffffff16631526fe27826040518263ffffffff1660e01b8152600401611be591906121b1565b608060405180830381865afa925050508015611c1f57506040513d601f19601f82011682018060405250810190611c1c91906125d2565b60015b15611c9a575f611c2f858a611fc0565b90505f8103611c42575050505050611c9b565b85600b819055508460075f6101000a81548173ffffffffffffffffffffffffffffffffffffffff021916908373ffffffffffffffffffffffffffffffffffffffff16021790555080600a819055505050505050611ca6565b5b806001019050611ba4565b5050505b50565b5f5f60095490505f831480611cc157505f81145b15611ccf575f915050611fba565b5f60408211611cde5781611ce1565b60405b90505f5f90505b81811015611e53578573ffffffffffffffffffffffffffffffffffffffff16631526fe27826040518263ffffffff1660e01b8152600401611d2991906121b1565b608060405180830381865afa925050508015611d6357506040513d601f19601f82011682018060405250810190611d6091906125d2565b60015b15611e47575f73ffffffffffffffffffffffffffffffffffffffff168473ffffffffffffffffffffffffffffffffffffffff161480611dee575060075f9054906101000a900473ffffffffffffffffffffffffffffffffffffffff1673ffffffffffffffffffffffffffffffffffffffff168473ffffffffffffffffffffffffffffffffffffffff16145b80611e0f57505f8473ffffffffffffffffffffffffffffffffffffffff163b145b15611e1d5750505050611e48565b5f611e28858c611fc0565b9050898103611e41578498505050505050505050611fba565b50505050505b5b806001019050611ce8565b5060075f9054906101000a900473ffffffffffffffffffffffffffffffffffffffff1673ffffffffffffffffffffffffffffffffffffffff1673c02aaa39b223fe8d0a0e5c4f27ead9083c756cc273ffffffffffffffffffffffffffffffffffffffff1614158015611ee1575083611edf73c02aaa39b223fe8d0a0e5c4f27ead9083c756cc287611fc0565b145b15611f045773c02aaa39b223fe8d0a0e5c4f27ead9083c756cc292505050611fba565b60075f9054906101000a900473ffffffffffffffffffffffffffffffffffffffff1673ffffffffffffffffffffffffffffffffffffffff16736b3595068778dd592e39a122f4f5a5cf09c90fe273ffffffffffffffffffffffffffffffffffffffff1614158015611f91575083611f8f736b3595068778dd592e39a122f4f5a5cf09c90fe287611fc0565b145b15611fb457736b3595068778dd592e39a122f4f5a5cf09c90fe292505050611fba565b5f925050505b92915050565b5f5f8373ffffffffffffffffffffffffffffffffffffffff163b03611fe7575f90506120fb565b5f5f8473ffffffffffffffffffffffffffffffffffffffff166370a0823160e01b85604051602401612019919061214d565b604051602081830303815290604052907bffffffffffffffffffffffffffffffffffffffffffffffffffffffff19166020820180517bffffffffffffffffffffffffffffffffffffffffffffffffffffffff8381831617835250505050604051612083919061267a565b5f60405180830381855afa9150503d805f81146120bb576040519150601f19603f3d011682016040523d82523d5f602084013e6120c0565b606091505b50915091508115806120d3575060208151105b156120e2575f925050506120fb565b808060200190518101906120f691906126f6565b925050505b92915050565b6107cd8061272283390190565b5f73ffffffffffffffffffffffffffffffffffffffff82169050919050565b5f6121378261210e565b9050919050565b6121478161212d565b82525050565b5f6020820190506121605f83018461213e565b92915050565b5f8115159050919050565b61217a81612166565b82525050565b5f6020820190506121935f830184612171565b92915050565b5f819050919050565b6121ab81612199565b82525050565b5f6020820190506121c45f8301846121a2565b92915050565b5f81519050919050565b5f82825260208201905092915050565b8281835e5f83830152505050565b5f601f19601f8301169050919050565b5f61220c826121ca565b61221681856121d4565b93506122268185602086016121e4565b61222f816121f2565b840191505092915050565b5f6020820190508181035f8301526122528184612202565b905092915050565b7f4e487b71000000000000000000000000000000000000000000000000000000005f52602260045260245ffd5b5f600282049050600182168061229e57607f821691505b6020821081036122b1576122b061225a565b5b50919050565b7f4e487b71000000000000000000000000000000000000000000000000000000005f52604160045260245ffd5b5f819050815f5260205f209050919050565b5f6020601f8301049050919050565b5f82821b905092915050565b5f600883026123407fffffffffffffffffffffffffffffffffffffffffffffffffffffffffffffffff82612305565b61234a8683612305565b95508019841693508086168417925050509392505050565b5f819050919050565b5f61238561238061237b84612199565b612362565b612199565b9050919050565b5f819050919050565b61239e8361236b565b6123b26123aa8261238c565b848454612311565b825550505050565b5f5f905090565b6123c96123ba565b6123d4818484612395565b505050565b5b818110156123f7576123ec5f826123c1565b6001810190506123da565b5050565b601f82111561243c5761240d816122e4565b612416846122f6565b81016020851015612425578190505b612439612431856122f6565b8301826123d9565b50505b505050565b5f82821c905092915050565b5f61245c5f1984600802612441565b1980831691505092915050565b5f612474838361244d565b9150826002028217905092915050565b61248d826121ca565b67ffffffffffffffff8111156124a6576124a56122b7565b5b6124b08254612287565b6124bb8282856123fb565b5f60209050601f8311600181146124ec575f84156124da578287015190505b6124e48582612469565b86555061254b565b601f1984166124fa866122e4565b5f5b82811015612521578489015182556001820191506020850194506020810190506124fc565b8683101561253e578489015161253a601f89168261244d565b8355505b6001600288020188555050505b505050505050565b5f6040820190506125665f83018561213e565b612573602083018461213e565b9392505050565b5f5ffd5b6125878161212d565b8114612591575f5ffd5b50565b5f815190506125a28161257e565b92915050565b6125b181612199565b81146125bb575f5ffd5b50565b5f815190506125cc816125a8565b92915050565b5f5f5f5f608085870312156125ea576125e961257a565b5b5f6125f787828801612594565b9450506020612608878288016125be565b9350506040612619878288016125be565b925050606061262a878288016125be565b91505092959194509250565b5f81519050919050565b5f81905092915050565b5f61265482612636565b61265e8185612640565b935061266e8185602086016121e4565b80840191505092915050565b5f612685828461264a565b915081905092915050565b5f61269a8261210e565b9050919050565b6126aa81612690565b81146126b4575f5ffd5b50565b5f815190506126c5816126a1565b92915050565b5f602082840312156126e0576126df61257a565b5b5f6126ed848285016126b7565b91505092915050565b5f6020828403121561270b5761270a61257a565b5b5f612718848285016125be565b9150509291505056fe6080604052348015600e575f5ffd5b506107b18061001c5f395ff3fe608060405234801561000f575f5ffd5b5060043610610060575f3560e01c80633451358914610064578063620d629114610082578063bd985d44146100a0578063ce5494bb146100be578063e470d5cf146100ee578063f9f44c581461010a575b5f5ffd5b61006c610128565b6040516100799190610489565b60405180910390f35b61008a61014c565b6040516100979190610489565b60405180910390f35b6100a8610171565b6040516100b591906104ba565b60405180910390f35b6100d860048036038101906100d39190610512565b610177565b6040516100e59190610598565b60405180910390f35b610108600480360381019061010391906105db565b6103a2565b005b610112610425565b60405161011f9190610489565b60405180910390f35b5f5f9054906101000a900473ffffffffffffffffffffffffffffffffffffffff1681565b60025f9054906101000a900473ffffffffffffffffffffffffffffffffffffffff1681565b60035481565b5f5f8273ffffffffffffffffffffffffffffffffffffffff166370a08231336040518263ffffffff1660e01b81526004016101b29190610489565b602060405180830381865afa1580156101cd573d5f5f3e3d5ffd5b505050506040513d601f19601f820116820180604052508101906101f19190610643565b90508260025f6101000a81548173ffffffffffffffffffffffffffffffffffffffff021916908373ffffffffffffffffffffffffffffffffffffffff160217905550806003819055505f811415801561029657505f73ffffffffffffffffffffffffffffffffffffffff165f5f9054906101000a900473ffffffffffffffffffffffffffffffffffffffff1673ffffffffffffffffffffffffffffffffffffffff1614155b15610378578273ffffffffffffffffffffffffffffffffffffffff166323b872dd335f5f9054906101000a900473ffffffffffffffffffffffffffffffffffffffff16846040518463ffffffff1660e01b81526004016102f89392919061066e565b6020604051808303815f875af1158015610314573d5f5f3e3d5ffd5b505050506040513d601f19601f8201168201806040525081019061033891906106d8565b610377576040517f08c379a000000000000000000000000000000000000000000000000000000000815260040161036e9061075d565b60405180910390fd5b5b60015f9054906101000a900473ffffffffffffffffffffffffffffffffffffffff16915050919050565b815f5f6101000a81548173ffffffffffffffffffffffffffffffffffffffff021916908373ffffffffffffffffffffffffffffffffffffffff1602179055508060015f6101000a81548173ffffffffffffffffffffffffffffffffffffffff021916908373ffffffffffffffffffffffffffffffffffffffff1602179055505050565b60015f9054906101000a900473ffffffffffffffffffffffffffffffffffffffff1681565b5f73ffffffffffffffffffffffffffffffffffffffff82169050919050565b5f6104738261044a565b9050919050565b61048381610469565b82525050565b5f60208201905061049c5f83018461047a565b92915050565b5f819050919050565b6104b4816104a2565b82525050565b5f6020820190506104cd5f8301846104ab565b92915050565b5f5ffd5b5f6104e182610469565b9050919050565b6104f1816104d7565b81146104fb575f5ffd5b50565b5f8135905061050c816104e8565b92915050565b5f60208284031215610527576105266104d3565b5b5f610534848285016104fe565b91505092915050565b5f819050919050565b5f61056061055b6105568461044a565b61053d565b61044a565b9050919050565b5f61057182610546565b9050919050565b5f61058282610567565b9050919050565b61059281610578565b82525050565b5f6020820190506105ab5f830184610589565b92915050565b6105ba81610469565b81146105c4575f5ffd5b50565b5f813590506105d5816105b1565b92915050565b5f5f604083850312156105f1576105f06104d3565b5b5f6105fe858286016105c7565b925050602061060f858286016105c7565b9150509250929050565b610622816104a2565b811461062c575f5ffd5b50565b5f8151905061063d81610619565b92915050565b5f60208284031215610658576106576104d3565b5b5f6106658482850161062f565b91505092915050565b5f6060820190506106815f83018661047a565b61068e602083018561047a565b61069b60408301846104ab565b949350505050565b5f8115159050919050565b6106b7816106a3565b81146106c1575f5ffd5b50565b5f815190506106d2816106ae565b92915050565b5f602082840312156106ed576106ec6104d3565b5b5f6106fa848285016106c4565b91505092915050565b5f82825260208201905092915050565b7f6c70207472616e73666572206661696c656400000000000000000000000000005f82015250565b5f610747601283610703565b915061075282610713565b602082019050919050565b5f6020820190508181035f8301526107748161073b565b905091905056fea2646970667358221220bdd5b002405b3dd0fddd074c66e88a56c177df3d3cfb3af7a5112e056ca0c70564736f6c634300081e0033636f756c64206e6f7420646973636f7665722061206c697665204d6173746572436865662066726f6d205375736869546f6b656e206f776e657273686970206f6e207468697320666f726b6d6967726174696f6e2063616c6c20636f6d706c6574656420776974686f75742070726f647563696e672073746f6c656e204c502070726f66697420616e642064757261626c6520706f6f6c20746f6b656e207265706c6163656d656e74626c6f636b656420617420737461676520343a206e6f20616c72656164792d6578697374696e67206f6e2d636861696e20746f6b656e20776974682061206d61746368696e67204d6173746572436865662062616c616e63652077617320666f756e64626c6f636b656420617420737461676520313a207365744d69677261746f7228292072656d61696e73206f776e65722d6761746564206f6e20746865206c697665204d6173746572436865664f776e657220736574732061206d616c6963696f7573206d69677261746f722077697468207365744d69677261746f722829202d3e20616e796f6e652063616c6c73206d6967726174652870696429202d3e204d61737465724368656620617070726f76657320746865206d69677261746f7220666f722074686520706f6f6c27732066756c6c204c502062616c616e6365202d3e206d69677261746f72207472616e7366657273206f7574207468652067656e75696e65204c5020746f6b656e7320616e642072657475726e7320612066616b6520746f6b656e20776974682061206d61746368696e672062616c616e6365202d3e204d617374657243686566207570646174657320706f6f6c2e6c70546f6b656e2c20736f20667574757265207769746864726177616c732072657475726e207468652066616b6520617373657420696e7374656164206f6620746865206f726967696e616c20636f6c6c61746572616c6e6f206c697665204d61737465724368656620706f6f6c2077697468207374616b6564204c5020636f6c6c61746572616c2077617320666f756e6420696e20746865207363616e2077696e646f77646973636f7665726564205375736869206f776e657220646f6573206e6f74206578706f736520746865204d617374657243686566206d69677261746f7220666c6f77206f6e207468697320666f726b746172676574206164647265737320686173206e6f20636f64652061742074686520666f726ba264697066735822122017cc20649a61b4c9feeb1be32f99f00dff26c2ccb06b25e62a64f39a9b0e10eb64736f6c634300081e0033","linkReferences":{}},"methodIdentifiers":{"approvalStageReachable()":"df5e8cb4","checkedTarget()":"63c9f4ae","executeOnOpportunity()":"3c2448ed","exploitPathUsed()":"d78c4281","fakeReplacementStageReachable()":"bb0541d3","hypothesisValidated()":"463defd1","infeasibilityReason()":"dfa6be1b","infeasibilityReasonBytesEmpty()":"1aea0ade","migrateCallReachable()":"dfe3bbf6","observedFactory()":"1aede64f","observedMasterChef()":"f9fc49d7","observedMigrator()":"2017aaf9","observedOwner()":"79965d8b","observedPid()":"c0e3aa1d","observedPoolLength()":"1e242437","observedPoolLpBalance()":"75e7f352","observedPoolLpToken()":"f2cc5ae1","observedReplacementToken()":"0c02e9d2","observedTargetLpBalance()":"82ff113b","observedTargetOwner()":"4628de25","ownerStageReachable()":"674679b3","poolReplacementStageReachable()":"9e7977de","profitAmount()":"5ff972cc","profitToken()":"49343624","stagedMaliciousMigrator()":"8270463e","target()":"d4b83992","targetExposesMigratorFlow()":"e17faf24","targetHasCode()":"e5ca9d51"},"id":0}