{"abi":[{"type":"constructor","inputs":[],"stateMutability":"nonpayable"},{"type":"function","name":"configure","inputs":[{"name":"thief_","type":"address","internalType":"address"},{"name":"replacementToken_","type":"address","internalType":"address"}],"outputs":[],"stateMutability":"nonpayable"},{"type":"function","name":"lastRealLp","inputs":[],"outputs":[{"name":"","type":"address","internalType":"address"}],"stateMutability":"view"},{"type":"function","name":"lastStolenAmount","inputs":[],"outputs":[{"name":"","type":"uint256","internalType":"uint256"}],"stateMutability":"view"},{"type":"function","name":"migrate","inputs":[{"name":"realLpToken","type":"address","internalType":"contract IERC20Like"}],"outputs":[{"name":"","type":"address","internalType":"contract IERC20Like"}],"stateMutability":"nonpayable"},{"type":"function","name":"replacementToken","inputs":[],"outputs":[{"name":"","type":"address","internalType":"address"}],"stateMutability":"view"},{"type":"function","name":"thief","inputs":[],"outputs":[{"name":"","type":"address","internalType":"address"}],"stateMutability":"view"}],"bytecode":{"object":"0x6080604052348015600e575f5ffd5b506107b18061001c5f395ff3fe608060405234801561000f575f5ffd5b5060043610610060575f3560e01c80633451358914610064578063620d629114610082578063bd985d44146100a0578063ce5494bb146100be578063e470d5cf146100ee578063f9f44c581461010a575b5f5ffd5b61006c610128565b6040516100799190610489565b60405180910390f35b61008a61014c565b6040516100979190610489565b60405180910390f35b6100a8610171565b6040516100b591906104ba565b60405180910390f35b6100d860048036038101906100d39190610512565b610177565b6040516100e59190610598565b60405180910390f35b610108600480360381019061010391906105db565b6103a2565b005b610112610425565b60405161011f9190610489565b60405180910390f35b5f5f9054906101000a900473ffffffffffffffffffffffffffffffffffffffff1681565b60025f9054906101000a900473ffffffffffffffffffffffffffffffffffffffff1681565b60035481565b5f5f8273ffffffffffffffffffffffffffffffffffffffff166370a08231336040518263ffffffff1660e01b81526004016101b29190610489565b602060405180830381865afa1580156101cd573d5f5f3e3d5ffd5b505050506040513d601f19601f820116820180604052508101906101f19190610643565b90508260025f6101000a81548173ffffffffffffffffffffffffffffffffffffffff021916908373ffffffffffffffffffffffffffffffffffffffff160217905550806003819055505f811415801561029657505f73ffffffffffffffffffffffffffffffffffffffff165f5f9054906101000a900473ffffffffffffffffffffffffffffffffffffffff1673ffffffffffffffffffffffffffffffffffffffff1614155b15610378578273ffffffffffffffffffffffffffffffffffffffff166323b872dd335f5f9054906101000a900473ffffffffffffffffffffffffffffffffffffffff16846040518463ffffffff1660e01b81526004016102f89392919061066e565b6020604051808303815f875af1158015610314573d5f5f3e3d5ffd5b505050506040513d601f19601f8201168201806040525081019061033891906106d8565b610377576040517f08c379a000000000000000000000000000000000000000000000000000000000815260040161036e9061075d565b60405180910390fd5b5b60015f9054906101000a900473ffffffffffffffffffffffffffffffffffffffff16915050919050565b815f5f6101000a81548173ffffffffffffffffffffffffffffffffffffffff021916908373ffffffffffffffffffffffffffffffffffffffff1602179055508060015f6101000a81548173ffffffffffffffffffffffffffffffffffffffff021916908373ffffffffffffffffffffffffffffffffffffffff1602179055505050565b60015f9054906101000a900473ffffffffffffffffffffffffffffffffffffffff1681565b5f73ffffffffffffffffffffffffffffffffffffffff82169050919050565b5f6104738261044a565b9050919050565b61048381610469565b82525050565b5f60208201905061049c5f83018461047a565b92915050565b5f819050919050565b6104b4816104a2565b82525050565b5f6020820190506104cd5f8301846104ab565b92915050565b5f5ffd5b5f6104e182610469565b9050919050565b6104f1816104d7565b81146104fb575f5ffd5b50565b5f8135905061050c816104e8565b92915050565b5f60208284031215610527576105266104d3565b5b5f610534848285016104fe565b91505092915050565b5f819050919050565b5f61056061055b6105568461044a565b61053d565b61044a565b9050919050565b5f61057182610546565b9050919050565b5f61058282610567565b9050919050565b61059281610578565b82525050565b5f6020820190506105ab5f830184610589565b92915050565b6105ba81610469565b81146105c4575f5ffd5b50565b5f813590506105d5816105b1565b92915050565b5f5f604083850312156105f1576105f06104d3565b5b5f6105fe858286016105c7565b925050602061060f858286016105c7565b9150509250929050565b610622816104a2565b811461062c575f5ffd5b50565b5f8151905061063d81610619565b92915050565b5f60208284031215610658576106576104d3565b5b5f6106658482850161062f565b91505092915050565b5f6060820190506106815f83018661047a565b61068e602083018561047a565b61069b60408301846104ab565b949350505050565b5f8115159050919050565b6106b7816106a3565b81146106c1575f5ffd5b50565b5f815190506106d2816106ae565b92915050565b5f602082840312156106ed576106ec6104d3565b5b5f6106fa848285016106c4565b91505092915050565b5f82825260208201905092915050565b7f6c70207472616e73666572206661696c656400000000000000000000000000005f82015250565b5f610747601283610703565b915061075282610713565b602082019050919050565b5f6020820190508181035f8301526107748161073b565b905091905056fea2646970667358221220bdd5b002405b3dd0fddd074c66e88a56c177df3d3cfb3af7a5112e056ca0c70564736f6c634300081e0033","linkReferences":{}},"methodIdentifiers":{"configure(address,address)":"e470d5cf","lastRealLp()":"620d6291","lastStolenAmount()":"bd985d44","migrate(address)":"ce5494bb","replacementToken()":"f9f44c58","thief()":"34513589"},"id":0}