{"abi":[{"type":"constructor","inputs":[],"stateMutability":"payable"},{"type":"fallback","stateMutability":"payable"},{"type":"receive","stateMutability":"payable"},{"type":"function","name":"TARGET","inputs":[],"outputs":[{"name":"","type":"address","internalType":"address"}],"stateMutability":"view"},{"type":"function","name":"UNISWAP_V2_ROUTER","inputs":[],"outputs":[{"name":"","type":"address","internalType":"address"}],"stateMutability":"view"},{"type":"function","name":"USDC","inputs":[],"outputs":[{"name":"","type":"address","internalType":"address"}],"stateMutability":"view"},{"type":"function","name":"WETH","inputs":[],"outputs":[{"name":"","type":"address","internalType":"address"}],"stateMutability":"view"},{"type":"function","name":"donationValue","inputs":[],"outputs":[{"name":"","type":"uint256","internalType":"uint256"}],"stateMutability":"view"},{"type":"function","name":"executeOnOpportunity","inputs":[],"outputs":[],"stateMutability":"nonpayable"},{"type":"function","name":"executeRevertData","inputs":[],"outputs":[{"name":"","type":"bytes","internalType":"bytes"}],"stateMutability":"view"},{"type":"function","name":"fullExploitPathFeasible","inputs":[],"outputs":[{"name":"","type":"bool","internalType":"bool"}],"stateMutability":"view"},{"type":"function","name":"hypothesisValidated","inputs":[],"outputs":[{"name":"","type":"bool","internalType":"bool"}],"stateMutability":"view"},{"type":"function","name":"ourEthAfterRecoveryAttempts","inputs":[],"outputs":[{"name":"","type":"uint256","internalType":"uint256"}],"stateMutability":"view"},{"type":"function","name":"ourEthBeforeRecoveryAttempts","inputs":[],"outputs":[{"name":"","type":"uint256","internalType":"uint256"}],"stateMutability":"view"},{"type":"function","name":"ourUsdcAfterRecoveryAttempts","inputs":[],"outputs":[{"name":"","type":"uint256","internalType":"uint256"}],"stateMutability":"view"},{"type":"function","name":"ourUsdcBeforeRecoveryAttempts","inputs":[],"outputs":[{"name":"","type":"uint256","internalType":"uint256"}],"stateMutability":"view"},{"type":"function","name":"path0EthSeeded","inputs":[],"outputs":[{"name":"","type":"bool","internalType":"bool"}],"stateMutability":"view"},{"type":"function","name":"path1ExecuteInfeasibleAtFork","inputs":[],"outputs":[{"name":"","type":"bool","internalType":"bool"}],"stateMutability":"view"},{"type":"function","name":"path1ExecuteSucceeded","inputs":[],"outputs":[{"name":"","type":"bool","internalType":"bool"}],"stateMutability":"view"},{"type":"function","name":"path2EthRemainsOnTarget","inputs":[],"outputs":[{"name":"","type":"bool","internalType":"bool"}],"stateMutability":"view"},{"type":"function","name":"path3ArbitraryTokenStranded","inputs":[],"outputs":[{"name":"","type":"bool","internalType":"bool"}],"stateMutability":"view"},{"type":"function","name":"path4NoRecoveryObserved","inputs":[],"outputs":[{"name":"","type":"bool","internalType":"bool"}],"stateMutability":"view"},{"type":"function","name":"profitAmount","inputs":[],"outputs":[{"name":"","type":"uint256","internalType":"uint256"}],"stateMutability":"view"},{"type":"function","name":"profitToken","inputs":[],"outputs":[{"name":"","type":"address","internalType":"address"}],"stateMutability":"view"},{"type":"function","name":"swapValue","inputs":[],"outputs":[{"name":"","type":"uint256","internalType":"uint256"}],"stateMutability":"view"},{"type":"function","name":"targetEthAfterDonation","inputs":[],"outputs":[{"name":"","type":"uint256","internalType":"uint256"}],"stateMutability":"view"},{"type":"function","name":"targetEthAfterExecute","inputs":[],"outputs":[{"name":"","type":"uint256","internalType":"uint256"}],"stateMutability":"view"},{"type":"function","name":"targetEthAfterSeed","inputs":[],"outputs":[{"name":"","type":"uint256","internalType":"uint256"}],"stateMutability":"view"},{"type":"function","name":"targetEthBefore","inputs":[],"outputs":[{"name":"","type":"uint256","internalType":"uint256"}],"stateMutability":"view"},{"type":"function","name":"targetUsdcAfterTransfer","inputs":[],"outputs":[{"name":"","type":"uint256","internalType":"uint256"}],"stateMutability":"view"},{"type":"function","name":"targetUsdcBefore","inputs":[],"outputs":[{"name":"","type":"uint256","internalType":"uint256"}],"stateMutability":"view"},{"type":"function","name":"targetWethAfterExecute","inputs":[],"outputs":[{"name":"","type":"uint256","internalType":"uint256"}],"stateMutability":"view"},{"type":"function","name":"targetWethBefore","inputs":[],"outputs":[{"name":"","type":"uint256","internalType":"uint256"}],"stateMutability":"view"},{"type":"function","name":"trappedNativeValue","inputs":[],"outputs":[{"name":"","type":"uint256","internalType":"uint256"}],"stateMutability":"view"},{"type":"function","name":"usdcSentToTarget","inputs":[],"outputs":[{"name":"","type":"uint256","internalType":"uint256"}],"stateMutability":"view"}],"bytecode":{"object":"0x608080604052611a5e90816100128239f3fe6080806040526004361015610011575b005b5f905f3560e01c9081630c661ecc146117d7575080631923a5d7146117ba578063343ebb871461179d578063369cc652146117805780633c2448ed146105d45780634377899b146105b6578063463defd11461059057806349343624146105695780634d7a48511461054b5780635016acae1461052d5780635271d3d2146104565780635ff972cc146104385780636891e3c01461041a5780636d6a6cb9146103f457806377542055146103d65780637c9cec57146103b857806389a30271146103905780639546ffe61461036a57806396acf9281461034c5780639a2aba311461032e578063a82ed9ec146102ff578063ad5c4648146102d0578063b3ff7dcf146102b2578063b4984e481461028c578063bfac487b14610266578063c19ee37214610241578063cc04b4d914610223578063cc1f2afa146101fb578063f4e85c33146101dd578063f80e8885146101bf578063f9ad79c2146101995763fa2d48b90361000f57346101965780600319360112610196576020600954604051908152f35b80fd5b5034610196578060031936011261019657602060ff60025460181c166040519015158152f35b50346101965780600319360112610196576020600854604051908152f35b50346101965780600319360112610196576020600654604051908152f35b503461019657806003193601126101965760206040515f5160206119c95f395f51905f528152f35b50346101965780600319360112610196576020600454604051908152f35b5034610196578060031936011261019657602060ff600254821c166040519015158152f35b5034610196578060031936011261019657602060ff60025460301c166040519015158152f35b5034610196578060031936011261019657602060ff60025460101c166040519015158152f35b50346101965780600319360112610196576020600c54604051908152f35b5034610196578060031936011261019657602060405173c02aaa39b223fe8d0a0e5c4f27ead9083c756cc28152f35b50346101965780600319360112610196576020604051737a250d5630b4cf539739df2c5dacb4c659f2488d8152f35b50346101965780600319360112610196576020600f54604051908152f35b50346101965780600319360112610196576020600754604051908152f35b5034610196578060031936011261019657602060ff60025460081c166040519015158152f35b503461019657806003193601126101965760206040515f516020611a095f395f51905f528152f35b50346101965780600319360112610196576020600b54604051908152f35b50346101965780600319360112610196576020600d54604051908152f35b5034610196578060031936011261019657602060ff60025460281c166040519015158152f35b50346101965780600319360112610196576020600354604051908152f35b50346101965780600319360112610196576020600154604051908152f35b5034610196578060031936011261019657604051908091601354610479816117f6565b80835260208301916001811690811561051257506001146104cf575b506104a58260409495038361182e565b8251938492602084525180928160208601528585015e828201840152601f01601f19168101030190f35b601384529350825f5160206119e95f395f51905f525b8582106104fc5750820160200193506104a5610495565b60018160209254838588010152019101906104e5565b60ff1916835250151560051b820160200193506104a5610495565b50346101965780600319360112610196576020601054604051908152f35b50346101965780600319360112610196576020600a54604051908152f35b5034610196578060031936011261019657546040516001600160a01b039091168152602090f35b5034610196578060031936011261019657602060ff60025460381c166040519015158152f35b50346101965780600319360112610196576020601154604051908152f35b5034610def575f366003190112610def576bffffffffffffffffffffffff60a01b5f54165f555f60015567ffffffffffffffff19600254166002555f6003555f6004555f6005555f6006555f6007555f6008555f6009555f600a555f600b555f600c555f600d555f600e555f600f555f6010555f6011555f60125561065a6013546117f6565b80611701575b505f5160206119c95f395f51905f52316003556040516370a0823160e01b81525f5160206119c95f395f51905f52600482015260208160248173c02aaa39b223fe8d0a0e5c4f27ead9083c756cc25afa908115611692575f916116cf575b506007556040516370a0823160e01b81525f5160206119c95f395f51905f5260048201526020816024815f516020611a095f395f51905f525afa908115611692575f9161169d575b50600955476001811015611631575b5f5160206119c95f395f51905f52319081600455600354600181018091116111e65760ff9060025493101516908160ff198416176002556402540be400811015611603575b505f5160206119c95f395f51905f52316005551561155f575080806040516020810190633c2448ed60e01b82526004815261079660248261182e565b5190825f5160206119c95f395f51905f525af1906107b2611866565b911560025461ff00821560081b16918261ff001983161760025561140b575b505090505b5f5160206119c95f395f51905f5231806006556040516370a0823160e01b81525f5160206119c95f395f51905f52600482015260208160248173c02aaa39b223fe8d0a0e5c4f27ead9083c756cc25afa908115610f975783916113d9575b5060085560035480821160025463ff0000008260181b169063ff0000001916176002555f146113d15781039081116111e6575b601255600c54801515806113c7575b610fe5575b5047600e556040516370a0823160e01b81523060048201526020816024815f516020611a095f395f51905f525afa908115610dfb578291610fb3575b50601055604051906101a06108cc818461182e565b600c8352601f1901815b818110610fa2575050604051633ccfd60b60e01b6020820152600481526108fe60248261182e565b610907836118a5565b52610911826118a5565b506040516351cff8d960e01b60208201523060248201526024815261093760448261182e565b610940836118b2565b5261094a826118b2565b50604051633821b97b60e21b60208201526004815261096a60248261182e565b610973836118c2565b5261097d826118c2565b5060405163429c145b60e11b60208201526004815261099d60248261182e565b6109a6836118d2565b526109b0826118d2565b5060405162b40d3160e11b60208201525f516020611a095f395f51905f526024820152602481526109e260448261182e565b6109eb836118e2565b526109f5826118e2565b5060405163b8dc491b60e01b60208201525f516020611a095f395f51905f52602482015230604482015260448152610a2e60648261182e565b610a37836118f2565b52610a41826118f2565b5060405163192bfe7b60e21b60208201525f516020611a095f395f51905f5260248201523060448201525f19606482015260648152610a8160848261182e565b610a8a83611902565b52610a9482611902565b506040516320ff430b60e01b60208201525f516020611a095f395f51905f5260248201523060448201525f19606482015260648152610ad460848261182e565b610add83611912565b52610ae782611912565b506040516303d9059760e31b60208201525f516020611a095f395f51905f5260248201523060448201525f19606482015260648152610b2760848261182e565b610b3083611923565b52610b3a82611923565b50604051638980f11f60e01b60208201525f516020611a095f395f51905f5260248201525f19604482015260448152610b7460648261182e565b610b7d83611934565b52610b8782611934565b50604051630f41a04d60e11b602082015230602482015260248152610bad60448261182e565b610bb683611945565b52610bc082611945565b5060405163bc25cf7760e01b602082015230602482015260248152610be660448261182e565b610bef83611956565b52610bf982611956565b50805b8251811015610c58578251811015610c4457808280602060019460051b87010151602081519101825f5160206119c95f395f51905f525af150610c3d611866565b5001610bfc565b634e487b7160e01b5f52603260045260245ffd5b5047600f8190556040516370a0823160e01b81523060048201526020816024815f516020611a095f395f51905f525afa908115610f97578391610f65575b50806011555f5160206119c95f395f51905f523160065411159182610ed5575b82610ec9575b5081610ebd575b5065ff000000000060025491151560281b168065ff00000000001983161760ff8160081c169081610eaf575b50151560301b66ff0000000000008116919067ff000000000000009060ff85169086161766ffff00000000001985168317841781610ea0575b81610e91575b81610e83575b50151560381b169267ffffff000000000019161717176002554780610e06575b5073c02aaa39b223fe8d0a0e5c4f27ead9083c756cc26bffffffffffffffffffffffff60a01b8254161781556040516370a0823160e01b815230600482015260208160248173c02aaa39b223fe8d0a0e5c4f27ead9083c756cc25afa908115610dfb578291610dc5575b5060015580f35b90506020813d602011610df3575b81610de06020938361182e565b81010312610def575182610dbe565b5f80fd5b3d9150610dd3565b6040513d84823e3d90fd5b8173c02aaa39b223fe8d0a0e5c4f27ead9083c756cc23b15610196578060049260405193848092630d0e30db60e41b825273c02aaa39b223fe8d0a0e5c4f27ead9083c756cc25af18015610e7657610e5f575b50610d54565b610e689161182e565b805f12610196578181610e59565b50604051903d90823e3d90fd5b60ff915060281c1686610d34565b905060ff8160201c1690610d2e565b905060ff8160181c1690610d28565b60ff915060181c1684610cef565b90506010541482610cc3565b600e5414915083610cbc565b6040516370a0823160e01b81525f5160206119c95f395f51905f5260048201529092506020816024815f516020611a095f395f51905f525afa908115610f5a578491610f28575b50600a54111591610cb6565b90506020813d602011610f52575b81610f436020938361182e565b81010312610def575184610f1c565b3d9150610f36565b6040513d86823e3d90fd5b90506020813d602011610f8f575b81610f806020938361182e565b81010312610def575183610c96565b3d9150610f73565b6040513d85823e3d90fd5b8060606020809387010152016108d6565b90506020813d602011610fdd575b81610fce6020938361182e565b81010312610def57515f6108b7565b3d9150610fc1565b60405190610ff460608361182e565b6002825260208201604036823773c02aaa39b223fe8d0a0e5c4f27ead9083c756cc261101f846118a5565b525f516020611a095f395f51905f52611037846118b2565b52600142018042116113b357604051637ff36ab560e01b8152600481018690526080602482015293516084850181905285938593909260a4850192909190865b81811061138e575050508391829130604484015260648301520391737a250d5630b4cf539739df2c5dacb4c659f2488d5af190816112d4575b506110bc575b5f61087b565b6040516370a0823160e01b815230600482015281906020816024815f516020611a095f395f51905f525afa908115610dfb57829161129f575b5080600d5580611107575b50506110b6565b8190604051602081019163a9059cbb60e01b83525f5160206119c95f395f51905f52602483015260448201526044815261114260648261182e565b5190825f516020611a095f395f51905f525af161115d611866565b81611263575b501561122c576040516370a0823160e01b81525f5160206119c95f395f51905f5260048201526020816024815f516020611a095f395f51905f525afa908115610dfb5782916111fa575b5080600a55600954600d5481018091116111e65764ff000000009060025492101560201b169064ff00000000191617600255805f611100565b634e487b7160e01b5f52601160045260245ffd5b90506020813d602011611224575b816112156020938361182e565b81010312610def57515f6111ad565b3d9150611208565b60405162461bcd60e51b815260206004820152600f60248201526e1514905394d1915497d19052531151608a1b6044820152606490fd5b8051801592508215611278575b50505f611163565b819250906020918101031261129b5760200151801515810361129b575f80611270565b5080fd5b9150506020813d6020116112cc575b816112bb6020938361182e565b81010312610def578190515f6110f5565b3d91506112ae565b3d8084833e6112e3818361182e565b8101906020818303126113865780519067ffffffffffffffff821161138a57019080601f830112156113865781519167ffffffffffffffff8311611372578260051b906020820193611338604051958661182e565b845260208085019282010192831161136e57602001905b82821061135e575050506110b0565b815181526020918201910161134f565b8580fd5b634e487b7160e01b5f52604160045260245ffd5b8380fd5b8480fd5b82516001600160a01b0316855289975088965060209485019490920191600101611077565b634e487b7160e01b85526011600452602485fd5b5080471015610876565b505080610867565b90506020813d602011611403575b816113f46020938361182e565b81010312610def57515f610834565b3d91506113e7565b62ffff001916176201000017600255815167ffffffffffffffff811161154b576114366013546117f6565b601f81116114ed575b50602092601f821160011461148157928293829392611476575b50508160011b915f199060031b1c1916176013555b805f806107d1565b015190505f80611459565b60138352601f198216935f5160206119e95f395f51905f5291845b8681106114d557508360019596106114bd575b505050811b0160135561146e565b01515f1960f88460031b161c191690555f80806114af565b9192602060018192868501518155019401920161149c565b6115309060138452601f830160051c5f5160206119e95f395f51905f52019060208410611536575b601f0160051c5f5160206119e95f395f51905f520190611850565b5f61143f565b5f5160206119e95f395f51905f529150611515565b634e487b7160e01b82526041600452602482fd5b62010000915062ff00ff191617600255602060405161157f60408261182e565b601f8152017f4e4f5f4554485f415641494c41424c455f544f5f534545445f5441524745540081525f906115b46013546117f6565b601f81116115ce575b505160ff1916603e176013556107d6565b60135f52601f5f5160206119e95f395f51905f52910160051c8101905b8181106115f857506115bd565b5f81556001016115eb565b6402540be400600c556402540be3ff1981019081111561075a57634e487b7160e01b5f52601160045260245ffd5b60405160618082019082821067ffffffffffffffff83111761137257602091839161196883395f5160206119c95f395f51905f5281520301906001f015611692575f1981019081111561071557634e487b7160e01b5f52601160045260245ffd5b6040513d5f823e3d90fd5b90506020813d6020116116c7575b816116b86020938361182e565b81010312610def57515f610706565b3d91506116ab565b90506020813d6020116116f9575b816116ea6020938361182e565b81010312610def57515f6106be565b3d91506116dd565b601f811160011461171857505f6013555b5f610660565b601f0160051c5f5160206119e95f395f51905f52017f66de8ffda797e3de9c05e8fc57b3bf0ec28a930d40b0d285d93c06501cf6a0915b81811061177557505060135f525f6013555f5f5160206119e95f395f51905f5255611712565b5f815560010161174f565b34610def575f366003190112610def576020600554604051908152f35b34610def575f366003190112610def576020600e54604051908152f35b34610def575f366003190112610def576020601254604051908152f35b34610def575f366003190112610def5760209060ff6002541615158152f35b90600182811c92168015611824575b602083101461181057565b634e487b7160e01b5f52602260045260245ffd5b91607f1691611805565b90601f8019910116810190811067ffffffffffffffff82111761137257604052565b81811061185b575050565b5f8155600101611850565b3d156118a0573d9067ffffffffffffffff82116113725760405191611895601f8201601f19166020018461182e565b82523d5f602084013e565b606090565b805115610c445760200190565b805160011015610c445760400190565b805160021015610c445760600190565b805160031015610c445760800190565b805160041015610c445760a00190565b805160051015610c445760c00190565b805160061015610c445760e00190565b805160071015610c44576101000190565b805160081015610c44576101200190565b805160091015610c44576101400190565b8051600a1015610c44576101600190565b8051600b1015610c4457610180019056fe6080601f606138819003918201601f19168301916001600160401b03831184841017604c57808492602094604052833981010312604857516001600160a01b0381168103604857ff5b5f80fd5b634e487b7160e01b5f52604160045260245ffdfe00000000000000000000000076ea342bc038d665e8a116392c82552d2605eda166de8ffda797e3de9c05e8fc57b3bf0ec28a930d40b0d285d93c06501cf6a090000000000000000000000000a0b86991c6218b36c1d19d4a2e9eb0ce3606eb48a26469706673582212206524ec485d79334f5462242ca3267594f51681998fa78adb68130da7a9f4503864736f6c634300081e0033","linkReferences":{}},"methodIdentifiers":{"TARGET()":"cc1f2afa","UNISWAP_V2_ROUTER()":"a82ed9ec","USDC()":"89a30271","WETH()":"ad5c4648","donationValue()":"7c9cec57","executeOnOpportunity()":"3c2448ed","executeRevertData()":"5271d3d2","fullExploitPathFeasible()":"bfac487b","hypothesisValidated()":"463defd1","ourEthAfterRecoveryAttempts()":"9a2aba31","ourEthBeforeRecoveryAttempts()":"343ebb87","ourUsdcAfterRecoveryAttempts()":"4377899b","ourUsdcBeforeRecoveryAttempts()":"5016acae","path0EthSeeded()":"0c661ecc","path1ExecuteInfeasibleAtFork()":"b4984e48","path1ExecuteSucceeded()":"9546ffe6","path2EthRemainsOnTarget()":"f9ad79c2","path3ArbitraryTokenStranded()":"c19ee372","path4NoRecoveryObserved()":"6d6a6cb9","profitAmount()":"5ff972cc","profitToken()":"49343624","swapValue()":"b3ff7dcf","targetEthAfterDonation()":"369cc652","targetEthAfterExecute()":"f4e85c33","targetEthAfterSeed()":"cc04b4d9","targetEthBefore()":"6891e3c0","targetUsdcAfterTransfer()":"4d7a4851","targetUsdcBefore()":"fa2d48b9","targetWethAfterExecute()":"f80e8885","targetWethBefore()":"96acf928","trappedNativeValue()":"1923a5d7","usdcSentToTarget()":"77542055"},"id":0}