{"abi":[{"type":"constructor","inputs":[],"stateMutability":"nonpayable"},{"type":"receive","stateMutability":"payable"},{"type":"function","name":"TARGET","inputs":[],"outputs":[{"name":"","type":"address","internalType":"address"}],"stateMutability":"view"},{"type":"function","name":"executeOnOpportunity","inputs":[],"outputs":[],"stateMutability":"nonpayable"},{"type":"function","name":"profitAmount","inputs":[],"outputs":[{"name":"","type":"uint256","internalType":"uint256"}],"stateMutability":"view"},{"type":"function","name":"profitToken","inputs":[],"outputs":[{"name":"","type":"address","internalType":"address"}],"stateMutability":"view"},{"type":"function","name":"uniswapV2Call","inputs":[{"name":"sender","type":"address","internalType":"address"},{"name":"amount0","type":"uint256","internalType":"uint256"},{"name":"amount1","type":"uint256","internalType":"uint256"},{"name":"data","type":"bytes","internalType":"bytes"}],"outputs":[],"stateMutability":"nonpayable"}],"bytecode":{"object":"0x6080604052348015600e575f5ffd5b506137708061001c5f395ff3fe60806040526004361061004d575f3560e01c806310d1e85c146100585780633c2448ed1461008057806349343624146100965780635ff972cc146100c0578063cc1f2afa146100ea57610054565b3661005457005b5f5ffd5b348015610063575f5ffd5b5061007e60048036038101906100799190612b73565b610114565b005b34801561008b575f5ffd5b50610094610291565b005b3480156100a1575f5ffd5b506100aa6106eb565b6040516100b79190612c06565b60405180910390f35b3480156100cb575f5ffd5b506100d4610712565b6040516100e19190612c2e565b60405180910390f35b3480156100f5575f5ffd5b506100fe61071b565b60405161010b9190612c06565b60405180910390f35b3073ffffffffffffffffffffffffffffffffffffffff168573ffffffffffffffffffffffffffffffffffffffff1614610182576040517f08c379a000000000000000000000000000000000000000000000000000000000815260040161017990612ca1565b60405180910390fd5b5f5f83838101906101939190612ee9565b91509150806020015173ffffffffffffffffffffffffffffffffffffffff163373ffffffffffffffffffffffffffffffffffffffff1614610209576040517f08c379a000000000000000000000000000000000000000000000000000000000815260040161020090612f72565b60405180910390fd5b5f5f87116102175785610219565b865b90505f811161025d576040517f08c379a000000000000000000000000000000000000000000000000000000000815260040161025490612fda565b60405180910390fd5b6102678382610733565b5f610271826108bb565b905061028684604001518460200151836108ea565b505050505050505050565b60025f9054906101000a900460ff166106e957600160025f6101000a81548160ff0219169083151502179055505f6102c7610a39565b90505f73ffffffffffffffffffffffffffffffffffffffff16816020015173ffffffffffffffffffffffffffffffffffffffff16148061031a57505f81608001516dffffffffffffffffffffffffffff16145b8061033a5750600181606001516dffffffffffffffffffffffffffff1611155b1561038b575f5f5f6101000a81548173ffffffffffffffffffffffffffffffffffffffff021916908373ffffffffffffffffffffffffffffffffffffffff1602179055505f600181905550506106e9565b5f73e38b72d6595fd3885d1d2f770aa23e94757f91a173ffffffffffffffffffffffffffffffffffffffff166370a08231306040518263ffffffff1660e01b81526004016103d99190612c06565b602060405180830381865afa1580156103f4573d5f5f3e3d5ffd5b505050506040513d601f19601f82011682018060405250810190610418919061300c565b90505f8111156104405761042c8282611054565b61043982604001516110ed565b50506106e9565b5f826040015173ffffffffffffffffffffffffffffffffffffffff166370a08231306040518263ffffffff1660e01b815260040161047e9190612c06565b602060405180830381865afa158015610499573d5f5f3e3d5ffd5b505050506040513d601f19601f820116820180604052508101906104bd919061300c565b90505f8111156104e6576104d18382610733565b6104de83604001516110ed565b5050506106e9565b5f6104f984604001518560200151611351565b90505f610506858361197d565b90505f73ffffffffffffffffffffffffffffffffffffffff16826020015173ffffffffffffffffffffffffffffffffffffffff161415801561054757505f81115b1561066a57816020015173ffffffffffffffffffffffffffffffffffffffff1663022c0d9f836080015161057b575f61057d565b825b846080015161058c578361058e565b5f5b3089876040516020016105a2929190613143565b6040516020818303038152906040526040518563ffffffff1660e01b81526004016105d094939291906131cb565b5f604051808303815f87803b1580156105e7575f5ffd5b505af19250505080156105f8575060015b610647575f5f5f6101000a81548173ffffffffffffffffffffffffffffffffffffffff021916908373ffffffffffffffffffffffffffffffffffffffff1602179055505f600181905550610669565b61065485604001516110ed565b5f60015411156106685750505050506106e9565b5b5b6106778560200151611a48565b846020015173ffffffffffffffffffffffffffffffffffffffff1663fff6cae96040518163ffffffff1660e01b81526004015f604051808303815f87803b1580156106c0575f5ffd5b505af11580156106d2573d5f5f3e3d5ffd5b505050506106e385604001516110ed565b50505050505b565b5f5f5f9054906101000a900473ffffffffffffffffffffffffffffffffffffffff16905090565b5f600154905090565b73e38b72d6595fd3885d1d2f770aa23e94757f91a181565b5f61073e8383611bf9565b90505f810361074d57506108b7565b5f6107768460200151856040015173e38b72d6595fd3885d1d2f770aa23e94757f91a185611c32565b90505f81036107865750506108b7565b6107938460200151611a48565b836020015173ffffffffffffffffffffffffffffffffffffffff1663fff6cae96040518163ffffffff1660e01b81526004015f604051808303815f87803b1580156107dc575f5ffd5b505af11580156107ee573d5f5f3e3d5ffd5b505050505f73e38b72d6595fd3885d1d2f770aa23e94757f91a173ffffffffffffffffffffffffffffffffffffffff166370a08231306040518263ffffffff1660e01b81526004016108409190612c06565b602060405180830381865afa15801561085b573d5f5f3e3d5ffd5b505050506040513d601f19601f8201168201806040525081019061087f919061300c565b90505f8111156108b3576108b1856020015173e38b72d6595fd3885d1d2f770aa23e94757f91a1876040015184611c32565b505b5050505b5050565b5f60016103e56103e8846108cf9190613242565b6108d991906132b0565b6108e391906132e0565b9050919050565b5f5f8473ffffffffffffffffffffffffffffffffffffffff1663a9059cbb60e01b858560405160240161091e929190613313565b604051602081830303815290604052907bffffffffffffffffffffffffffffffffffffffffffffffffffffffff19166020820180517bffffffffffffffffffffffffffffffffffffffffffffffffffffffff83818316178352505050506040516109889190613374565b5f604051808303815f865af19150503d805f81146109c1576040519150601f19603f3d011682016040523d82523d5f602084013e6109c6565b606091505b50915091508180156109f357505f815114806109f25750808060200190518101906109f1919061339e565b5b5b610a32576040517f08c379a0000000000000000000000000000000000000000000000000000000008152600401610a2990613413565b60405180910390fd5b5050505050565b610a41612924565b5f6040518060400160405280735c69bee701ef814a2b6a3edd4b1652cb9cc5aa6f73ffffffffffffffffffffffffffffffffffffffff1673ffffffffffffffffffffffffffffffffffffffff16815260200173c0aee478e3658e2610c5f7a4a2e1777ce9e4f2ac73ffffffffffffffffffffffffffffffffffffffff1673ffffffffffffffffffffffffffffffffffffffff1681525090505f6040518060a0016040528073c02aaa39b223fe8d0a0e5c4f27ead9083c756cc273ffffffffffffffffffffffffffffffffffffffff1673ffffffffffffffffffffffffffffffffffffffff16815260200173a0b86991c6218b36c1d19d4a2e9eb0ce3606eb4873ffffffffffffffffffffffffffffffffffffffff1673ffffffffffffffffffffffffffffffffffffffff16815260200173dac17f958d2ee523a2206206994597c13d831ec773ffffffffffffffffffffffffffffffffffffffff1673ffffffffffffffffffffffffffffffffffffffff168152602001736b175474e89094c44da98b954eedeac495271d0f73ffffffffffffffffffffffffffffffffffffffff1673ffffffffffffffffffffffffffffffffffffffff168152602001732260fac5e5542a773aa44fbcfedf7c193bc2c59973ffffffffffffffffffffffffffffffffffffffff1673ffffffffffffffffffffffffffffffffffffffff1681525090505f5f90505b600281101561104e575f5f90505b6005811015611040575f848360028110610c7357610c72613431565b5b602002015173ffffffffffffffffffffffffffffffffffffffff1663e6a4390573e38b72d6595fd3885d1d2f770aa23e94757f91a1868560058110610cbb57610cba613431565b5b60200201516040518363ffffffff1660e01b8152600401610cdd92919061345e565b602060405180830381865afa158015610cf8573d5f5f3e3d5ffd5b505050506040513d601f19601f82011682018060405250810190610d1c9190613499565b90505f73ffffffffffffffffffffffffffffffffffffffff168173ffffffffffffffffffffffffffffffffffffffff161480610d6e57505f8173ffffffffffffffffffffffffffffffffffffffff163b145b15610d795750611033565b5f5f8273ffffffffffffffffffffffffffffffffffffffff16630902f1ac6040518163ffffffff1660e01b8152600401606060405180830381865afa158015610dc4573d5f5f3e3d5ffd5b505050506040513d601f19601f82011682018060405250810190610de89190613511565b50915091505f826dffffffffffffffffffffffffffff161480610e1a57505f816dffffffffffffffffffffffffffff16145b15610e2757505050611033565b5f8373ffffffffffffffffffffffffffffffffffffffff16630dfe16816040518163ffffffff1660e01b8152600401602060405180830381865afa158015610e71573d5f5f3e3d5ffd5b505050506040513d601f19601f82011682018060405250810190610e959190613499565b90505f73e38b72d6595fd3885d1d2f770aa23e94757f91a173ffffffffffffffffffffffffffffffffffffffff168273ffffffffffffffffffffffffffffffffffffffff161490505f81610ee95783610eeb565b845b90505f82610ef95785610efb565b845b90506001826dffffffffffffffffffffffffffff16111580610f2c57505f816dffffffffffffffffffffffffffff16145b15610f3d5750505050505050611033565b8b608001516dffffffffffffffffffffffffffff16816dffffffffffffffffffffffffffff16111561102b576040518060c001604052808c8b60028110610f8757610f86613431565b5b602002015173ffffffffffffffffffffffffffffffffffffffff1681526020018873ffffffffffffffffffffffffffffffffffffffff1681526020018b8a60058110610fd657610fd5613431565b5b602002015173ffffffffffffffffffffffffffffffffffffffff168152602001836dffffffffffffffffffffffffffff168152602001826dffffffffffffffffffffffffffff1681526020018415158152509b505b505050505050505b8080600101915050610c56565b508080600101915050610c48565b50505090565b6110618260200151611a48565b816020015173ffffffffffffffffffffffffffffffffffffffff1663fff6cae96040518163ffffffff1660e01b81526004015f604051808303815f87803b1580156110aa575f5ffd5b505af11580156110bc573d5f5f3e3d5ffd5b505050506110e8826020015173e38b72d6595fd3885d1d2f770aa23e94757f91a1846040015184611c32565b505050565b73c02aaa39b223fe8d0a0e5c4f27ead9083c756cc273ffffffffffffffffffffffffffffffffffffffff168173ffffffffffffffffffffffffffffffffffffffff161461113e5761113d81612100565b5b5f73c02aaa39b223fe8d0a0e5c4f27ead9083c756cc273ffffffffffffffffffffffffffffffffffffffff166370a08231306040518263ffffffff1660e01b815260040161118c9190612c06565b602060405180830381865afa1580156111a7573d5f5f3e3d5ffd5b505050506040513d601f19601f820116820180604052508101906111cb919061300c565b90505f8111156112355773c02aaa39b223fe8d0a0e5c4f27ead9083c756cc25f5f6101000a81548173ffffffffffffffffffffffffffffffffffffffff021916908373ffffffffffffffffffffffffffffffffffffffff160217905550806001819055505061134e565b5f8273ffffffffffffffffffffffffffffffffffffffff166370a08231306040518263ffffffff1660e01b815260040161126f9190612c06565b602060405180830381865afa15801561128a573d5f5f3e3d5ffd5b505050506040513d601f19601f820116820180604052508101906112ae919061300c565b90505f81111561130557825f5f6101000a81548173ffffffffffffffffffffffffffffffffffffffff021916908373ffffffffffffffffffffffffffffffffffffffff16021790555080600181905550505061134e565b5f5f5f6101000a81548173ffffffffffffffffffffffffffffffffffffffff021916908373ffffffffffffffffffffffffffffffffffffffff1602179055505f60018190555050505b50565b6113596129b8565b5f6040518060400160405280735c69bee701ef814a2b6a3edd4b1652cb9cc5aa6f73ffffffffffffffffffffffffffffffffffffffff1673ffffffffffffffffffffffffffffffffffffffff16815260200173c0aee478e3658e2610c5f7a4a2e1777ce9e4f2ac73ffffffffffffffffffffffffffffffffffffffff1673ffffffffffffffffffffffffffffffffffffffff1681525090505f6040518060a0016040528073c02aaa39b223fe8d0a0e5c4f27ead9083c756cc273ffffffffffffffffffffffffffffffffffffffff1673ffffffffffffffffffffffffffffffffffffffff16815260200173a0b86991c6218b36c1d19d4a2e9eb0ce3606eb4873ffffffffffffffffffffffffffffffffffffffff1673ffffffffffffffffffffffffffffffffffffffff16815260200173dac17f958d2ee523a2206206994597c13d831ec773ffffffffffffffffffffffffffffffffffffffff1673ffffffffffffffffffffffffffffffffffffffff168152602001736b175474e89094c44da98b954eedeac495271d0f73ffffffffffffffffffffffffffffffffffffffff1673ffffffffffffffffffffffffffffffffffffffff168152602001732260fac5e5542a773aa44fbcfedf7c193bc2c59973ffffffffffffffffffffffffffffffffffffffff1673ffffffffffffffffffffffffffffffffffffffff1681525090505f5f90505b6002811015611974575f5f90505b6005811015611966578673ffffffffffffffffffffffffffffffffffffffff168382600581106115a1576115a0613431565b5b602002015173ffffffffffffffffffffffffffffffffffffffff160315611959575f8483600281106115d6576115d5613431565b5b602002015173ffffffffffffffffffffffffffffffffffffffff1663e6a439058986856005811061160a57611609613431565b5b60200201516040518363ffffffff1660e01b815260040161162c92919061345e565b602060405180830381865afa158015611647573d5f5f3e3d5ffd5b505050506040513d601f19601f8201168201806040525081019061166b9190613499565b90505f73ffffffffffffffffffffffffffffffffffffffff168173ffffffffffffffffffffffffffffffffffffffff1614806116d257508673ffffffffffffffffffffffffffffffffffffffff168173ffffffffffffffffffffffffffffffffffffffff16145b806116f357505f8173ffffffffffffffffffffffffffffffffffffffff163b145b156116fe5750611959565b5f5f8273ffffffffffffffffffffffffffffffffffffffff16630902f1ac6040518163ffffffff1660e01b8152600401606060405180830381865afa158015611749573d5f5f3e3d5ffd5b505050506040513d601f19601f8201168201806040525081019061176d9190613511565b50915091505f826dffffffffffffffffffffffffffff16148061179f57505f816dffffffffffffffffffffffffffff16145b156117ac57505050611959565b5f8a73ffffffffffffffffffffffffffffffffffffffff168473ffffffffffffffffffffffffffffffffffffffff16630dfe16816040518163ffffffff1660e01b8152600401602060405180830381865afa15801561180d573d5f5f3e3d5ffd5b505050506040513d601f19601f820116820180604052508101906118319190613499565b73ffffffffffffffffffffffffffffffffffffffff161490505f816118565782611858565b835b90505f816dffffffffffffffffffffffffffff160361187b575050505050611959565b89606001516dffffffffffffffffffffffffffff16816dffffffffffffffffffffffffffff161115611953576040518060a001604052808a89600281106118c5576118c4613431565b5b602002015173ffffffffffffffffffffffffffffffffffffffff1681526020018673ffffffffffffffffffffffffffffffffffffffff16815260200189886005811061191457611913613431565b5b602002015173ffffffffffffffffffffffffffffffffffffffff168152602001826dffffffffffffffffffffffffffff16815260200183151581525099505b50505050505b808060010191505061156e565b508080600101915050611560565b50505092915050565b5f5f73ffffffffffffffffffffffffffffffffffffffff16826020015173ffffffffffffffffffffffffffffffffffffffff1614806119cf57505f82606001516dffffffffffffffffffffffffffff16145b156119dc575f9050611a42565b5f6119e68461227a565b90505f81036119f8575f915050611a42565b5f6101f484606001516dffffffffffffffffffffffffffff16611a1b91906132b0565b90505f8103611a2e575f92505050611a42565b808210611a3b5780611a3d565b815b925050505b92915050565b5f8190505f73e38b72d6595fd3885d1d2f770aa23e94757f91a173ffffffffffffffffffffffffffffffffffffffff166370a08231836040518263ffffffff1660e01b8152600401611a9a9190612c06565b602060405180830381865afa158015611ab5573d5f5f3e3d5ffd5b505050506040513d601f19601f82011682018060405250810190611ad9919061300c565b905060018111611aea575050611bf6565b5f600182611af89190613561565b905073e38b72d6595fd3885d1d2f770aa23e94757f91a173ffffffffffffffffffffffffffffffffffffffff1663095ea7b384836040518363ffffffff1660e01b8152600401611b49929190613313565b5f604051808303815f87803b158015611b60575f5ffd5b505af1158015611b72573d5f5f3e3d5ffd5b5050505073e38b72d6595fd3885d1d2f770aa23e94757f91a173ffffffffffffffffffffffffffffffffffffffff166379cc679084836040518363ffffffff1660e01b8152600401611bc5929190613313565b5f604051808303815f87803b158015611bdc575f5ffd5b505af1158015611bee573d5f5f3e3d5ffd5b505050505050505b50565b5f5f611c048461227a565b90505f8103611c16575f915050611c2c565b80831015611c275782915050611c2c565b809150505b92915050565b5f5f8203611c42575f90506120f8565b5f8573ffffffffffffffffffffffffffffffffffffffff16630dfe16816040518163ffffffff1660e01b8152600401602060405180830381865afa158015611c8c573d5f5f3e3d5ffd5b505050506040513d601f19601f82011682018060405250810190611cb09190613499565b90505f8673ffffffffffffffffffffffffffffffffffffffff1663d21220a76040518163ffffffff1660e01b8152600401602060405180830381865afa158015611cfc573d5f5f3e3d5ffd5b505050506040513d601f19601f82011682018060405250810190611d209190613499565b90508173ffffffffffffffffffffffffffffffffffffffff168673ffffffffffffffffffffffffffffffffffffffff16148015611d8857508073ffffffffffffffffffffffffffffffffffffffff168573ffffffffffffffffffffffffffffffffffffffff16145b80611df557508073ffffffffffffffffffffffffffffffffffffffff168673ffffffffffffffffffffffffffffffffffffffff16148015611df457508173ffffffffffffffffffffffffffffffffffffffff168573ffffffffffffffffffffffffffffffffffffffff16145b5b611e34576040517f08c379a0000000000000000000000000000000000000000000000000000000008152600401611e2b906135de565b60405180910390fd5b5f5f8873ffffffffffffffffffffffffffffffffffffffff16630902f1ac6040518163ffffffff1660e01b8152600401606060405180830381865afa158015611e7f573d5f5f3e3d5ffd5b505050506040513d601f19601f82011682018060405250810190611ea39190613511565b50915091505f8473ffffffffffffffffffffffffffffffffffffffff168973ffffffffffffffffffffffffffffffffffffffff161490505f81611ee65782611ee8565b835b6dffffffffffffffffffffffffffff1690505f82611f065784611f08565b835b6dffffffffffffffffffffffffffff169050611f25898383612536565b97505f8811611f69576040517f08c379a0000000000000000000000000000000000000000000000000000000008152600401611f6090613646565b60405180910390fd5b611f748b8d8b6108ea565b8215612037578b73ffffffffffffffffffffffffffffffffffffffff1663022c0d9f5f8a305f67ffffffffffffffff811115611fb357611fb2612cd3565b5b6040519080825280601f01601f191660200182016040528015611fe55781602001600182028036833780820191505090505b506040518563ffffffff1660e01b815260040161200594939291906136a6565b5f604051808303815f87803b15801561201c575f5ffd5b505af115801561202e573d5f5f3e3d5ffd5b505050506120f0565b8b73ffffffffffffffffffffffffffffffffffffffff1663022c0d9f895f305f67ffffffffffffffff8111156120705761206f612cd3565b5b6040519080825280601f01601f1916602001820160405280156120a25781602001600182028036833780820191505090505b506040518563ffffffff1660e01b81526004016120c294939291906136f0565b5f604051808303815f87803b1580156120d9575f5ffd5b505af11580156120eb573d5f5f3e3d5ffd5b505050505b505050505050505b949350505050565b5f8173ffffffffffffffffffffffffffffffffffffffff166370a08231306040518263ffffffff1660e01b815260040161213a9190612c06565b602060405180830381865afa158015612155573d5f5f3e3d5ffd5b505050506040513d601f19601f82011682018060405250810190612179919061300c565b90505f8114806121c8575073c02aaa39b223fe8d0a0e5c4f27ead9083c756cc273ffffffffffffffffffffffffffffffffffffffff168273ffffffffffffffffffffffffffffffffffffffff16145b156121d35750612277565b5f6121f28373c02aaa39b223fe8d0a0e5c4f27ead9083c756cc26125a6565b90505f73ffffffffffffffffffffffffffffffffffffffff16815f015173ffffffffffffffffffffffffffffffffffffffff16148061224457505f81602001516dffffffffffffffffffffffffffff16145b15612250575050612277565b612273815f01518473c02aaa39b223fe8d0a0e5c4f27ead9083c756cc285611c32565b5050505b50565b5f5f73c02aaa39b223fe8d0a0e5c4f27ead9083c756cc273ffffffffffffffffffffffffffffffffffffffff16836040015173ffffffffffffffffffffffffffffffffffffffff16036122d757670de0b6b3a7640000905061243c565b73a0b86991c6218b36c1d19d4a2e9eb0ce3606eb4873ffffffffffffffffffffffffffffffffffffffff16836040015173ffffffffffffffffffffffffffffffffffffffff16148061236c575073dac17f958d2ee523a2206206994597c13d831ec773ffffffffffffffffffffffffffffffffffffffff16836040015173ffffffffffffffffffffffffffffffffffffffff16145b1561237d57633b9aca00905061243b565b736b175474e89094c44da98b954eedeac495271d0f73ffffffffffffffffffffffffffffffffffffffff16836040015173ffffffffffffffffffffffffffffffffffffffff16036123d957683635c9adc5dea00000905061243a565b732260fac5e5542a773aa44fbcfedf7c193bc2c59973ffffffffffffffffffffffffffffffffffffffff16836040015173ffffffffffffffffffffffffffffffffffffffff1603612430576305f5e1009050612439565b5f915050612531565b5b5b5b5f6103e884608001516dffffffffffffffffffffffffffff1661245f91906132b0565b90505f810361246d57600190505b81811115612479578190505b5f6124ad8286608001516dffffffffffffffffffffffffffff1687606001516dffffffffffffffffffffffffffff16612536565b90505b5f811480156124be57508282105b15612518576002826124d09190613242565b9150828211156124de578291505b6125118286608001516dffffffffffffffffffffffffffff1687606001516dffffffffffffffffffffffffffff16612536565b90506124b0565b5f810361252a575f9350505050612531565b8193505050505b919050565b5f5f84148061254457505f83145b8061254e57505f82145b1561255b575f905061259f565b5f6103e58561256a9190613242565b9050806103e88561257b9190613242565b61258591906132e0565b83826125919190613242565b61259b91906132b0565b9150505b9392505050565b6125ae612a36565b5f6040518060400160405280735c69bee701ef814a2b6a3edd4b1652cb9cc5aa6f73ffffffffffffffffffffffffffffffffffffffff1673ffffffffffffffffffffffffffffffffffffffff16815260200173c0aee478e3658e2610c5f7a4a2e1777ce9e4f2ac73ffffffffffffffffffffffffffffffffffffffff1673ffffffffffffffffffffffffffffffffffffffff1681525090505f5f90505b600281101561291c575f82826002811061266857612667613431565b5b602002015173ffffffffffffffffffffffffffffffffffffffff1663e6a4390587876040518363ffffffff1660e01b81526004016126a792919061345e565b602060405180830381865afa1580156126c2573d5f5f3e3d5ffd5b505050506040513d601f19601f820116820180604052508101906126e69190613499565b90505f73ffffffffffffffffffffffffffffffffffffffff168173ffffffffffffffffffffffffffffffffffffffff16148061273857505f8173ffffffffffffffffffffffffffffffffffffffff163b145b15612743575061290f565b5f5f8273ffffffffffffffffffffffffffffffffffffffff16630902f1ac6040518163ffffffff1660e01b8152600401606060405180830381865afa15801561278e573d5f5f3e3d5ffd5b505050506040513d601f19601f820116820180604052508101906127b29190613511565b50915091505f826dffffffffffffffffffffffffffff1614806127e457505f816dffffffffffffffffffffffffffff16145b156127f15750505061290f565b5f8873ffffffffffffffffffffffffffffffffffffffff168473ffffffffffffffffffffffffffffffffffffffff16630dfe16816040518163ffffffff1660e01b8152600401602060405180830381865afa158015612852573d5f5f3e3d5ffd5b505050506040513d601f19601f820116820180604052508101906128769190613499565b73ffffffffffffffffffffffffffffffffffffffff161490505f8161289b578361289d565b825b905087602001516dffffffffffffffffffffffffffff16816dffffffffffffffffffffffffffff1611156129095760405180604001604052808673ffffffffffffffffffffffffffffffffffffffff168152602001826dffffffffffffffffffffffffffff1681525097505b50505050505b808060010191505061264b565b505092915050565b6040518060c001604052805f73ffffffffffffffffffffffffffffffffffffffff1681526020015f73ffffffffffffffffffffffffffffffffffffffff1681526020015f73ffffffffffffffffffffffffffffffffffffffff1681526020015f6dffffffffffffffffffffffffffff1681526020015f6dffffffffffffffffffffffffffff1681526020015f151581525090565b6040518060a001604052805f73ffffffffffffffffffffffffffffffffffffffff1681526020015f73ffffffffffffffffffffffffffffffffffffffff1681526020015f73ffffffffffffffffffffffffffffffffffffffff1681526020015f6dffffffffffffffffffffffffffff1681526020015f151581525090565b60405180604001604052805f73ffffffffffffffffffffffffffffffffffffffff1681526020015f6dffffffffffffffffffffffffffff1681525090565b5f604051905090565b5f5ffd5b5f5ffd5b5f73ffffffffffffffffffffffffffffffffffffffff82169050919050565b5f612aae82612a85565b9050919050565b612abe81612aa4565b8114612ac8575f5ffd5b50565b5f81359050612ad981612ab5565b92915050565b5f819050919050565b612af181612adf565b8114612afb575f5ffd5b50565b5f81359050612b0c81612ae8565b92915050565b5f5ffd5b5f5ffd5b5f5ffd5b5f5f83601f840112612b3357612b32612b12565b5b8235905067ffffffffffffffff811115612b5057612b4f612b16565b5b602083019150836001820283011115612b6c57612b6b612b1a565b5b9250929050565b5f5f5f5f5f60808688031215612b8c57612b8b612a7d565b5b5f612b9988828901612acb565b9550506020612baa88828901612afe565b9450506040612bbb88828901612afe565b935050606086013567ffffffffffffffff811115612bdc57612bdb612a81565b5b612be888828901612b1e565b92509250509295509295909350565b612c0081612aa4565b82525050565b5f602082019050612c195f830184612bf7565b92915050565b612c2881612adf565b82525050565b5f602082019050612c415f830184612c1f565b92915050565b5f82825260208201905092915050565b7f756e65787065637465642073656e6465720000000000000000000000000000005f82015250565b5f612c8b601183612c47565b9150612c9682612c57565b602082019050919050565b5f6020820190508181035f830152612cb881612c7f565b9050919050565b5f5ffd5b5f601f19601f8301169050919050565b7f4e487b71000000000000000000000000000000000000000000000000000000005f52604160045260245ffd5b612d0982612cc3565b810181811067ffffffffffffffff82111715612d2857612d27612cd3565b5b80604052505050565b5f612d3a612a74565b9050612d468282612d00565b919050565b5f6dffffffffffffffffffffffffffff82169050919050565b612d6d81612d4b565b8114612d77575f5ffd5b50565b5f81359050612d8881612d64565b92915050565b5f8115159050919050565b612da281612d8e565b8114612dac575f5ffd5b50565b5f81359050612dbd81612d99565b92915050565b5f60c08284031215612dd857612dd7612cbf565b5b612de260c0612d31565b90505f612df184828501612acb565b5f830152506020612e0484828501612acb565b6020830152506040612e1884828501612acb565b6040830152506060612e2c84828501612d7a565b6060830152506080612e4084828501612d7a565b60808301525060a0612e5484828501612daf565b60a08301525092915050565b5f60a08284031215612e7557612e74612cbf565b5b612e7f60a0612d31565b90505f612e8e84828501612acb565b5f830152506020612ea184828501612acb565b6020830152506040612eb584828501612acb565b6040830152506060612ec984828501612d7a565b6060830152506080612edd84828501612daf565b60808301525092915050565b5f5f6101608385031215612f0057612eff612a7d565b5b5f612f0d85828601612dc3565b92505060c0612f1e85828601612e60565b9150509250929050565b7f756e6578706563746564207061697200000000000000000000000000000000005f82015250565b5f612f5c600f83612c47565b9150612f6782612f28565b602082019050919050565b5f6020820190508181035f830152612f8981612f50565b9050919050565b7f7a65726f20626f72726f770000000000000000000000000000000000000000005f82015250565b5f612fc4600b83612c47565b9150612fcf82612f90565b602082019050919050565b5f6020820190508181035f830152612ff181612fb8565b9050919050565b5f8151905061300681612ae8565b92915050565b5f6020828403121561302157613020612a7d565b5b5f61302e84828501612ff8565b91505092915050565b61304081612aa4565b82525050565b61304f81612d4b565b82525050565b61305e81612d8e565b82525050565b60c082015f8201516130785f850182613037565b50602082015161308b6020850182613037565b50604082015161309e6040850182613037565b5060608201516130b16060850182613046565b5060808201516130c46080850182613046565b5060a08201516130d760a0850182613055565b50505050565b60a082015f8201516130f15f850182613037565b5060208201516131046020850182613037565b5060408201516131176040850182613037565b50606082015161312a6060850182613046565b50608082015161313d6080850182613055565b50505050565b5f610160820190506131575f830185613064565b61316460c08301846130dd565b9392505050565b5f81519050919050565b5f82825260208201905092915050565b8281835e5f83830152505050565b5f61319d8261316b565b6131a78185613175565b93506131b7818560208601613185565b6131c081612cc3565b840191505092915050565b5f6080820190506131de5f830187612c1f565b6131eb6020830186612c1f565b6131f86040830185612bf7565b818103606083015261320a8184613193565b905095945050505050565b7f4e487b71000000000000000000000000000000000000000000000000000000005f52601160045260245ffd5b5f61324c82612adf565b915061325783612adf565b925082820261326581612adf565b9150828204841483151761327c5761327b613215565b5b5092915050565b7f4e487b71000000000000000000000000000000000000000000000000000000005f52601260045260245ffd5b5f6132ba82612adf565b91506132c583612adf565b9250826132d5576132d4613283565b5b828204905092915050565b5f6132ea82612adf565b91506132f583612adf565b925082820190508082111561330d5761330c613215565b5b92915050565b5f6040820190506133265f830185612bf7565b6133336020830184612c1f565b9392505050565b5f81905092915050565b5f61334e8261316b565b613358818561333a565b9350613368818560208601613185565b80840191505092915050565b5f61337f8284613344565b915081905092915050565b5f8151905061339881612d99565b92915050565b5f602082840312156133b3576133b2612a7d565b5b5f6133c08482850161338a565b91505092915050565b7f7472616e73666572206661696c656400000000000000000000000000000000005f82015250565b5f6133fd600f83612c47565b9150613408826133c9565b602082019050919050565b5f6020820190508181035f83015261342a816133f1565b9050919050565b7f4e487b71000000000000000000000000000000000000000000000000000000005f52603260045260245ffd5b5f6040820190506134715f830185612bf7565b61347e6020830184612bf7565b9392505050565b5f8151905061349381612ab5565b92915050565b5f602082840312156134ae576134ad612a7d565b5b5f6134bb84828501613485565b91505092915050565b5f815190506134d281612d64565b92915050565b5f63ffffffff82169050919050565b6134f0816134d8565b81146134fa575f5ffd5b50565b5f8151905061350b816134e7565b92915050565b5f5f5f6060848603121561352857613527612a7d565b5b5f613535868287016134c4565b9350506020613546868287016134c4565b9250506040613557868287016134fd565b9150509250925092565b5f61356b82612adf565b915061357683612adf565b925082820390508181111561358e5761358d613215565b5b92915050565b7f70616972206d69736d61746368000000000000000000000000000000000000005f82015250565b5f6135c8600d83612c47565b91506135d382613594565b602082019050919050565b5f6020820190508181035f8301526135f5816135bc565b9050919050565b7f7a65726f206f75747075740000000000000000000000000000000000000000005f82015250565b5f613630600b83612c47565b915061363b826135fc565b602082019050919050565b5f6020820190508181035f83015261365d81613624565b9050919050565b5f819050919050565b5f819050919050565b5f61369061368b61368684613664565b61366d565b612adf565b9050919050565b6136a081613676565b82525050565b5f6080820190506136b95f830187613697565b6136c66020830186612c1f565b6136d36040830185612bf7565b81810360608301526136e58184613193565b905095945050505050565b5f6080820190506137035f830187612c1f565b6137106020830186613697565b61371d6040830185612bf7565b818103606083015261372f8184613193565b90509594505050505056fea2646970667358221220b0408e6414b30d4297dc1d6c4193ae00229db34bad3e91a10771462de38281b464736f6c634300081e0033","linkReferences":{}},"methodIdentifiers":{"TARGET()":"cc1f2afa","executeOnOpportunity()":"3c2448ed","profitAmount()":"5ff972cc","profitToken()":"49343624","uniswapV2Call(address,uint256,uint256,bytes)":"10d1e85c"},"id":0}