{"abi":[{"type":"constructor","inputs":[],"stateMutability":"nonpayable"},{"type":"function","name":"TARGET","inputs":[],"outputs":[{"name":"","type":"address","internalType":"address"}],"stateMutability":"view"},{"type":"function","name":"UNISWAP_V2_FACTORY","inputs":[],"outputs":[{"name":"","type":"address","internalType":"address"}],"stateMutability":"view"},{"type":"function","name":"actualReceivedOnDirectPath","inputs":[],"outputs":[{"name":"","type":"uint256","internalType":"uint256"}],"stateMutability":"view"},{"type":"function","name":"actualReceivedOnNativePath","inputs":[],"outputs":[{"name":"","type":"uint256","internalType":"uint256"}],"stateMutability":"view"},{"type":"function","name":"actualReceivedOnTokensPath","inputs":[],"outputs":[{"name":"","type":"uint256","internalType":"uint256"}],"stateMutability":"view"},{"type":"function","name":"configure","inputs":[{"name":"anyToken","type":"address","internalType":"address"},{"name":"amount","type":"uint256","internalType":"uint256"},{"name":"toChainId","type":"uint256","internalType":"uint256"},{"name":"deadline","type":"uint256","internalType":"uint256"},{"name":"receiver","type":"address","internalType":"address"},{"name":"configuredTokensPath","type":"address[]","internalType":"address[]"},{"name":"configuredNativePath","type":"address[]","internalType":"address[]"}],"outputs":[],"stateMutability":"nonpayable"},{"type":"function","name":"configuredAmount","inputs":[],"outputs":[{"name":"","type":"uint256","internalType":"uint256"}],"stateMutability":"view"},{"type":"function","name":"configuredAnyToken","inputs":[],"outputs":[{"name":"","type":"address","internalType":"address"}],"stateMutability":"view"},{"type":"function","name":"configuredDeadline","inputs":[],"outputs":[{"name":"","type":"uint256","internalType":"uint256"}],"stateMutability":"view"},{"type":"function","name":"configuredReceiver","inputs":[],"outputs":[{"name":"","type":"address","internalType":"address"}],"stateMutability":"view"},{"type":"function","name":"configuredToChainId","inputs":[],"outputs":[{"name":"","type":"uint256","internalType":"uint256"}],"stateMutability":"view"},{"type":"function","name":"configuredUnderlying","inputs":[],"outputs":[{"name":"","type":"address","internalType":"address"}],"stateMutability":"view"},{"type":"function","name":"destinationSettlementInfeasible","inputs":[],"outputs":[{"name":"","type":"bool","internalType":"bool"}],"stateMutability":"view"},{"type":"function","name":"directUnderlyingPathAttempted","inputs":[],"outputs":[{"name":"","type":"bool","internalType":"bool"}],"stateMutability":"view"},{"type":"function","name":"executeOnOpportunity","inputs":[],"outputs":[],"stateMutability":"nonpayable"},{"type":"function","name":"executed","inputs":[],"outputs":[{"name":"","type":"bool","internalType":"bool"}],"stateMutability":"view"},{"type":"function","name":"failureReason","inputs":[],"outputs":[{"name":"","type":"string","internalType":"string"}],"stateMutability":"view"},{"type":"function","name":"hypothesisValidated","inputs":[],"outputs":[{"name":"","type":"bool","internalType":"bool"}],"stateMutability":"view"},{"type":"function","name":"lastRouterRevert","inputs":[],"outputs":[{"name":"","type":"string","internalType":"string"}],"stateMutability":"view"},{"type":"function","name":"missingCandidateConfiguration","inputs":[],"outputs":[{"name":"","type":"bool","internalType":"bool"}],"stateMutability":"view"},{"type":"function","name":"missingDirectUnderlyingBalance","inputs":[],"outputs":[{"name":"","type":"bool","internalType":"bool"}],"stateMutability":"view"},{"type":"function","name":"missingTradeUnderlyingBalance","inputs":[],"outputs":[{"name":"","type":"bool","internalType":"bool"}],"stateMutability":"view"},{"type":"function","name":"nativePath","inputs":[],"outputs":[{"name":"","type":"address[]","internalType":"address[]"}],"stateMutability":"view"},{"type":"function","name":"nativeUnderlyingPathAttempted","inputs":[],"outputs":[{"name":"","type":"bool","internalType":"bool"}],"stateMutability":"view"},{"type":"function","name":"noFeeObserved","inputs":[],"outputs":[{"name":"","type":"bool","internalType":"bool"}],"stateMutability":"view"},{"type":"function","name":"nominalAmountTried","inputs":[],"outputs":[{"name":"","type":"uint256","internalType":"uint256"}],"stateMutability":"view"},{"type":"function","name":"pathUsed","inputs":[],"outputs":[{"name":"","type":"string","internalType":"string"}],"stateMutability":"view"},{"type":"function","name":"permitPathInfeasible","inputs":[],"outputs":[{"name":"","type":"bool","internalType":"bool"}],"stateMutability":"view"},{"type":"function","name":"profitAmount","inputs":[],"outputs":[{"name":"","type":"uint256","internalType":"uint256"}],"stateMutability":"view"},{"type":"function","name":"profitToken","inputs":[],"outputs":[{"name":"","type":"address","internalType":"address"}],"stateMutability":"view"},{"type":"function","name":"tokensPath","inputs":[],"outputs":[{"name":"","type":"address[]","internalType":"address[]"}],"stateMutability":"view"},{"type":"function","name":"tokensUnderlyingPathAttempted","inputs":[],"outputs":[{"name":"","type":"bool","internalType":"bool"}],"stateMutability":"view"},{"type":"function","name":"transferPermitPathInfeasible","inputs":[],"outputs":[{"name":"","type":"bool","internalType":"bool"}],"stateMutability":"view"},{"type":"function","name":"uniswapV2Call","inputs":[{"name":"sender","type":"address","internalType":"address"},{"name":"amount0","type":"uint256","internalType":"uint256"},{"name":"amount1","type":"uint256","internalType":"uint256"},{"name":"data","type":"bytes","internalType":"bytes"}],"outputs":[],"stateMutability":"nonpayable"}],"bytecode":{"object":"0x6080604052348015600e575f5ffd5b505f5f5f6101000a81548173ffffffffffffffffffffffffffffffffffffffff021916908373ffffffffffffffffffffffffffffffffffffffff1602179055503060095f6101000a81548173ffffffffffffffffffffffffffffffffffffffff021916908373ffffffffffffffffffffffffffffffffffffffff1602179055506038600b819055507fffffffffffffffffffffffffffffffffffffffffffffffffffffffffffffffff600c81905550616fb3806100ca5f395ff3fe608060405234801561000f575f5ffd5b5060043610610204575f3560e01c8063720ebd9511610118578063bc8d30c8116100ab578063cc1f2afa1161007a578063cc1f2afa14610556578063d92a80ec14610574578063f536214914610592578063f75d0734146105b0578063f9096773146105ce57610204565b8063bc8d30c8146104de578063c1a51e72146104fc578063c93352041461051a578063cb3a27a21461053857610204565b80638e6adea1116100e75780638e6adea114610468578063900cec84146104865780639773b300146104a457806399d8fae3146104c057610204565b8063720ebd95146103f05780637283898d1461040e57806374c055551461042c57806376b18ecc1461044a57610204565b80634eaa9b3b1161019b5780635d04f0261161016a5780635d04f0261461035a5780635ff972cc14610378578063688aad8914610396578063688e747b146103b45780636d352e59146103d257610204565b80634eaa9b3b146102e25780634f9522a414610300578063510cbaa81461031e57806358357d661461033c57610204565b80633c2448ed116101d75780633c2448ed1461027e57806342c6a6b314610288578063463defd1146102a657806349343624146102c457610204565b806310d1e85c146102085780631b2f575c146102245780631c79acb91461024257806331a38c8914610260575b5f5ffd5b610222600480360381019061021d91906152c2565b6105ec565b005b61022c610871565b6040516102399190615355565b60405180910390f35b61024a610877565b6040516102579190615355565b60405180910390f35b61026861087d565b6040516102759190615388565b60405180910390f35b61028661088f565b005b610290610f28565b60405161029d91906153b0565b60405180910390f35b6102ae610f4d565b6040516102bb9190615388565b60405180910390f35b6102cc610f60565b6040516102d991906153b0565b60405180910390f35b6102ea610f87565b6040516102f79190615480565b60405180910390f35b610308610f98565b6040516103159190615510565b60405180910390f35b610326611024565b6040516103339190615355565b60405180910390f35b61034461102a565b6040516103519190615388565b60405180910390f35b61036261103d565b60405161036f9190615388565b60405180910390f35b610380611050565b60405161038d9190615355565b60405180910390f35b61039e611059565b6040516103ab9190615355565b60405180910390f35b6103bc61105f565b6040516103c99190615388565b60405180910390f35b6103da611072565b6040516103e79190615388565b60405180910390f35b6103f8611085565b60405161040591906153b0565b60405180910390f35b6104166110aa565b6040516104239190615510565b60405180910390f35b610434611136565b6040516104419190615388565b60405180910390f35b610452611149565b60405161045f9190615388565b60405180910390f35b61047061115c565b60405161047d9190615355565b60405180910390f35b61048e611162565b60405161049b9190615510565b60405180910390f35b6104be60048036038101906104b99190615585565b6111ee565b005b6104c86114ae565b6040516104d591906153b0565b60405180910390f35b6104e66114c6565b6040516104f39190615480565b60405180910390f35b6105046114d7565b6040516105119190615388565b60405180910390f35b6105226114ea565b60405161052f9190615388565b60405180910390f35b6105406114fd565b60405161054d9190615355565b60405180910390f35b61055e611503565b60405161056b91906153b0565b60405180910390f35b61057c61151b565b6040516105899190615355565b60405180910390f35b61059a611521565b6040516105a79190615388565b60405180910390f35b6105b8611534565b6040516105c591906153b0565b60405180910390f35b6105d6611559565b6040516105e39190615388565b60405180910390f35b5f5f5f5f5f5f8787810190610601919061569c565b9550955095509550955095508273ffffffffffffffffffffffffffffffffffffffff163373ffffffffffffffffffffffffffffffffffffffff161461067b576040517f08c379a00000000000000000000000000000000000000000000000000000000081526004016106729061576f565b60405180910390fd5b3073ffffffffffffffffffffffffffffffffffffffff168b73ffffffffffffffffffffffffffffffffffffffff16146106e9576040517f08c379a00000000000000000000000000000000000000000000000000000000081526004016106e0906157d7565b60405180910390fd5b5f5f8b116106f757896106f9565b8a5b90505f811161073d576040517f08c379a00000000000000000000000000000000000000000000000000000000081526004016107349061583f565b60405180910390fd5b5f8673ffffffffffffffffffffffffffffffffffffffff166370a08231306040518263ffffffff1660e01b815260040161077791906153b0565b602060405180830381865afa158015610792573d5f5f3e3d5ffd5b505050506040513d601f19601f820116820180604052508101906107b69190615871565b90506103e881116107fc576040517f08c379a00000000000000000000000000000000000000000000000000000000081526004016107f3906158e6565b60405180910390fd5b610809888886868561156a565b6108148888836118e3565b610853576040517f08c379a000000000000000000000000000000000000000000000000000000000815260040161084a9061594e565b60405180910390fd5b610862888888888789886119c9565b50505050505050505050505050565b600b5481565b60065481565b60025f9054906101000a900460ff1681565b60025f9054906101000a900460ff16610f2657600160025f6101000a81548160ff0219169083151502179055505f5f5f6101000a81548173ffffffffffffffffffffffffffffffffffffffff021916908373ffffffffffffffffffffffffffffffffffffffff1602179055505f6001819055505f600260016101000a81548160ff0219169083151502179055505f6002806101000a81548160ff0219169083151502179055505f600260036101000a81548160ff0219169083151502179055505f600260046101000a81548160ff0219169083151502179055506001600260056101000a81548160ff0219169083151502179055506001600260066101000a81548160ff0219169083151502179055505f73ffffffffffffffffffffffffffffffffffffffff16736b7a87899490ece95443e979ca9485cbe7e7152273ffffffffffffffffffffffffffffffffffffffff1663f75c26646040518163ffffffff1660e01b8152600401602060405180830381865afa158015610a13573d5f5f3e3d5ffd5b505050506040513d601f19601f82011682018060405250810190610a379190615980565b73ffffffffffffffffffffffffffffffffffffffff161415600260076101000a81548160ff0219169083151502179055505f600260086101000a81548160ff0219169083151502179055505f600260096101000a81548160ff0219169083151502179055505f6002600a6101000a81548160ff0219169083151502179055505f6002600b6101000a81548160ff0219169083151502179055505f6003819055505f6004819055505f6005819055505f60068190555060405180602001604052805f815250600f9081610b099190615bd5565b5060405180602001604052805f81525060109081610b279190615bd5565b5060405180602001604052805f81525060119081610b459190615bd5565b505f736b7a87899490ece95443e979ca9485cbe7e7152273ffffffffffffffffffffffffffffffffffffffff1663c45a01556040518163ffffffff1660e01b8152600401602060405180830381865afa158015610ba4573d5f5f3e3d5ffd5b505050506040513d601f19601f82011682018060405250810190610bc89190615980565b90505f736b7a87899490ece95443e979ca9485cbe7e7152273ffffffffffffffffffffffffffffffffffffffff16638fd903f56040518163ffffffff1660e01b8152600401602060405180830381865afa158015610c28573d5f5f3e3d5ffd5b505050506040513d601f19601f82011682018060405250810190610c4c9190615980565b90505f60405180604001604052808473ffffffffffffffffffffffffffffffffffffffff1673ffffffffffffffffffffffffffffffffffffffff168152602001735c69bee701ef814a2b6a3edd4b1652cb9cc5aa6f73ffffffffffffffffffffffffffffffffffffffff1673ffffffffffffffffffffffffffffffffffffffff168152509050610cdc81836123ad565b15610cf257610cea8261265b565b505050610f26565b610cfd838284612812565b15610d1357610d0b8261265b565b505050610f26565b610d1d8183612995565b80610d2e5750610d2d8183612b67565b5b15610d4457610d3c8261265b565b505050610f26565b610d4d8261265b565b60028054906101000a900460ff1680610d725750600260039054906101000a900460ff165b80610d895750600260049054906101000a900460ff165b15610e63575f610d9d600354600454612d20565b1180610db557505f610db3600354600554612d20565b115b80610dcc57505f610dca600354600654612d20565b115b15610e1a576001600260016101000a81548160ff02191690831515021790555060405180610100016040528060ce8152602001616dd560ce913960109081610e149190615bd5565b50610e5e565b60016002600b6101000a81548160ff0219169083151502179055506040518060a00160405280606c8152602001616d69606c913960109081610e5c9190615bd5565b505b610ea7565b6001600260086101000a81548160ff0219169083151502179055506040518060a0016040528060788152602001616cce6078913960109081610ea59190615bd5565b505b6040518060800160405280605f8152602001616f1f605f91396040518060a00160405280607c8152602001616c52607c91396040518060a00160405280607c8152602001616ea3607c9139604051602001610f0493929190615e58565b604051602081830303815290604052600f9081610f219190615bd5565b505050505b565b60085f9054906101000a900473ffffffffffffffffffffffffffffffffffffffff1681565b600260019054906101000a900460ff1681565b5f5f5f9054906101000a900473ffffffffffffffffffffffffffffffffffffffff16905090565b6060610f93600e612d45565b905090565b60108054610fa590615a05565b80601f0160208091040260200160405190810160405280929190818152602001828054610fd190615a05565b801561101c5780601f10610ff35761010080835404028352916020019161101c565b820191905f5260205f20905b815481529060010190602001808311610fff57829003601f168201915b505050505081565b60055481565b600260049054906101000a900460ff1681565b6002600a9054906101000a900460ff1681565b5f600154905090565b60045481565b6002600b9054906101000a900460ff1681565b600260059054906101000a900460ff1681565b60075f9054906101000a900473ffffffffffffffffffffffffffffffffffffffff1681565b600f80546110b790615a05565b80601f01602080910402602001604051908101604052809291908181526020018280546110e390615a05565b801561112e5780601f106111055761010080835404028352916020019161112e565b820191905f5260205f20905b81548152906001019060200180831161111157829003601f168201915b505050505081565b600260039054906101000a900460ff1681565b600260069054906101000a900460ff1681565b60035481565b6011805461116f90615a05565b80601f016020809104026020016040519081016040528092919081815260200182805461119b90615a05565b80156111e65780601f106111bd576101008083540402835291602001916111e6565b820191905f5260205f20905b8154815290600101906020018083116111c957829003601f168201915b505050505081565b8860075f6101000a81548173ffffffffffffffffffffffffffffffffffffffff021916908373ffffffffffffffffffffffffffffffffffffffff1602179055505f73ffffffffffffffffffffffffffffffffffffffff168973ffffffffffffffffffffffffffffffffffffffff161461126f5761126a89612e42565b611271565b5f5b60085f6101000a81548173ffffffffffffffffffffffffffffffffffffffff021916908373ffffffffffffffffffffffffffffffffffffffff16021790555087600a8190555086600b8190555085600c819055505f73ffffffffffffffffffffffffffffffffffffffff168573ffffffffffffffffffffffffffffffffffffffff16146112fe5784611300565b305b60095f6101000a81548173ffffffffffffffffffffffffffffffffffffffff021916908373ffffffffffffffffffffffffffffffffffffffff160217905550600d5f61134c919061518a565b5f5f90505b848490508110156113f057600d85858381811061137157611370615eb1565b5b90506020020160208101906113869190615ede565b908060018154018082558091505060019003905f5260205f20015f9091909190916101000a81548173ffffffffffffffffffffffffffffffffffffffff021916908373ffffffffffffffffffffffffffffffffffffffff1602179055508080600101915050611351565b50600e5f6113fe919061518a565b5f5f90505b828290508110156114a257600e83838381811061142357611422615eb1565b5b90506020020160208101906114389190615ede565b908060018154018082558091505060019003905f5260205f20015f9091909190916101000a81548173ffffffffffffffffffffffffffffffffffffffff021916908373ffffffffffffffffffffffffffffffffffffffff1602179055508080600101915050611403565b50505050505050505050565b735c69bee701ef814a2b6a3edd4b1652cb9cc5aa6f81565b60606114d2600d612d45565b905090565b600260089054906101000a900460ff1681565b600260079054906101000a900460ff1681565b600a5481565b736b7a87899490ece95443e979ca9485cbe7e7152281565b600c5481565b600260099054906101000a900460ff1681565b60095f9054906101000a900473ffffffffffffffffffffffffffffffffffffffff1681565b60028054906101000a900460ff1681565b8460075f6101000a81548173ffffffffffffffffffffffffffffffffffffffff021916908373ffffffffffffffffffffffffffffffffffffffff1602179055508360085f6101000a81548173ffffffffffffffffffffffffffffffffffffffff021916908373ffffffffffffffffffffffffffffffffffffffff1602179055503060095f6101000a81548173ffffffffffffffffffffffffffffffffffffffff021916908373ffffffffffffffffffffffffffffffffffffffff1602179055505f600b540361163c576038600b819055505b7fffffffffffffffffffffffffffffffffffffffffffffffffffffffffffffffff600c81905550600d5f611670919061518a565b600d85908060018154018082558091505060019003905f5260205f20015f9091909190916101000a81548173ffffffffffffffffffffffffffffffffffffffff021916908373ffffffffffffffffffffffffffffffffffffffff160217905550600d5f73ffffffffffffffffffffffffffffffffffffffff168373ffffffffffffffffffffffffffffffffffffffff16148061173757508573ffffffffffffffffffffffffffffffffffffffff168373ffffffffffffffffffffffffffffffffffffffff16145b6117415782611743565b835b908060018154018082558091505060019003905f5260205f20015f9091909190916101000a81548173ffffffffffffffffffffffffffffffffffffffff021916908373ffffffffffffffffffffffffffffffffffffffff160217905550600e5f6117ad919061518a565b600e85908060018154018082558091505060019003905f5260205f20015f9091909190916101000a81548173ffffffffffffffffffffffffffffffffffffffff021916908373ffffffffffffffffffffffffffffffffffffffff160217905550600e83908060018154018082558091505060019003905f5260205f20015f9091909190916101000a81548173ffffffffffffffffffffffffffffffffffffffff021916908373ffffffffffffffffffffffffffffffffffffffff16021790555061188c84736b7a87899490ece95443e979ca9485cbe7e7152283612f55565b60016002806101000a81548160ff0219169083151502179055506001600260036101000a81548160ff0219169083151502179055506001600260046101000a81548160ff0219169083151502179055505050505050565b5f5f6107d0836118f39190615f63565b90506103e8811015611905576103e890505b82811061191c576004836119199190615f63565b90505b5f8111801561192a57508281105b611969576040517f08c379a000000000000000000000000000000000000000000000000000000000815260040161196090615fdd565b60405180910390fd5b8060038190555061197b8585836130c8565b915061198885858361311e565b1561199257600191505b61199d85858361318f565b156119a757600191505b81600260016101000a81548160ff021916908315150217905550509392505050565b5f8673ffffffffffffffffffffffffffffffffffffffff166370a08231306040518263ffffffff1660e01b8152600401611a0391906153b0565b602060405180830381865afa158015611a1e573d5f5f3e3d5ffd5b505050506040513d601f19601f82011682018060405250810190611a429190615871565b90505f8111611a86576040517f08c379a0000000000000000000000000000000000000000000000000000000008152600401611a7d90616045565b60405180910390fd5b5f8873ffffffffffffffffffffffffffffffffffffffff166370a08231306040518263ffffffff1660e01b8152600401611ac091906153b0565b602060405180830381865afa158015611adb573d5f5f3e3d5ffd5b505050506040513d601f19601f82011682018060405250810190611aff9190615871565b9050611b0c888a84613200565b8873ffffffffffffffffffffffffffffffffffffffff1663bebbf4d083306040518363ffffffff1660e01b8152600401611b47929190616063565b6020604051808303815f875af1158015611b63573d5f5f3e3d5ffd5b505050506040513d601f19601f82011682018060405250810190611b879190615871565b505f611c0a8a73ffffffffffffffffffffffffffffffffffffffff166370a08231306040518263ffffffff1660e01b8152600401611bc591906153b0565b602060405180830381865afa158015611be0573d5f5f3e3d5ffd5b505050506040513d601f19601f82011682018060405250810190611c049190615871565b836132bc565b90505f8111611c4e576040517f08c379a0000000000000000000000000000000000000000000000000000000008152600401611c45906160d4565b60405180910390fd5b8873ffffffffffffffffffffffffffffffffffffffff168673ffffffffffffffffffffffffffffffffffffffff1603611fd4575f611c8b856132e1565b90505f8a73ffffffffffffffffffffffffffffffffffffffff166370a08231306040518263ffffffff1660e01b8152600401611cc791906153b0565b602060405180830381865afa158015611ce2573d5f5f3e3d5ffd5b505050506040513d601f19601f82011682018060405250810190611d069190615871565b905081811015611da257611d278c8c8c8486611d2291906160f2565b613310565b8a73ffffffffffffffffffffffffffffffffffffffff166370a08231306040518263ffffffff1660e01b8152600401611d6091906153b0565b602060405180830381865afa158015611d7b573d5f5f3e3d5ffd5b505050506040513d601f19601f82011682018060405250810190611d9f9190615871565b90505b81811015611de5576040517f08c379a0000000000000000000000000000000000000000000000000000000008152600401611ddc9061616f565b60405180910390fd5b611df08b8a84613200565b5f8b73ffffffffffffffffffffffffffffffffffffffff166370a08231306040518263ffffffff1660e01b8152600401611e2a91906153b0565b602060405180830381865afa158015611e45573d5f5f3e3d5ffd5b505050506040513d601f19601f82011682018060405250810190611e699190615871565b90505f8d73ffffffffffffffffffffffffffffffffffffffff166370a08231306040518263ffffffff1660e01b8152600401611ea591906153b0565b602060405180830381865afa158015611ec0573d5f5f3e3d5ffd5b505050506040513d601f19601f82011682018060405250810190611ee49190615871565b90505f821180611ef357505f81115b611f32576040517f08c379a0000000000000000000000000000000000000000000000000000000008152600401611f29906161d7565b60405180910390fd5b808210611f84578c5f5f6101000a81548173ffffffffffffffffffffffffffffffffffffffff021916908373ffffffffffffffffffffffffffffffffffffffff16021790555081600181905550611fcb565b8d5f5f6101000a81548173ffffffffffffffffffffffffffffffffffffffff021916908373ffffffffffffffffffffffffffffffffffffffff160217905550806001819055505b50505050612326565b5f611fe1888b88886135cc565b90505f8673ffffffffffffffffffffffffffffffffffffffff166370a08231306040518263ffffffff1660e01b815260040161201d91906153b0565b602060405180830381865afa158015612038573d5f5f3e3d5ffd5b505050506040513d601f19601f8201168201806040525081019061205c9190615871565b9050818110156120f85761207d8c888c848661207891906160f2565b613310565b8673ffffffffffffffffffffffffffffffffffffffff166370a08231306040518263ffffffff1660e01b81526004016120b691906153b0565b602060405180830381865afa1580156120d1573d5f5f3e3d5ffd5b505050506040513d601f19601f820116820180604052508101906120f59190615871565b90505b8181101561213b576040517f08c379a00000000000000000000000000000000000000000000000000000000081526004016121329061616f565b60405180910390fd5b612146878a84613200565b5f8c73ffffffffffffffffffffffffffffffffffffffff166370a08231306040518263ffffffff1660e01b815260040161218091906153b0565b602060405180830381865afa15801561219b573d5f5f3e3d5ffd5b505050506040513d601f19601f820116820180604052508101906121bf9190615871565b90505f8873ffffffffffffffffffffffffffffffffffffffff166370a08231306040518263ffffffff1660e01b81526004016121fb91906153b0565b602060405180830381865afa158015612216573d5f5f3e3d5ffd5b505050506040513d601f19601f8201168201806040525081019061223a9190615871565b90505f82118061224957505f81115b612288576040517f08c379a000000000000000000000000000000000000000000000000000000000815260040161227f906161d7565b60405180910390fd5b8082106122da578d5f5f6101000a81548173ffffffffffffffffffffffffffffffffffffffff021916908373ffffffffffffffffffffffffffffffffffffffff16021790555081600181905550612321565b885f5f6101000a81548173ffffffffffffffffffffffffffffffffffffffff021916908373ffffffffffffffffffffffffffffffffffffffff160217905550806001819055505b505050505b6040518060800160405280605f8152602001616f1f605f91396040518060a00160405280607c8152602001616c52607c91396040518060a00160405280607c8152602001616ea3607c913960405160200161238393929190616323565b604051602081830303815290604052600f90816123a09190615bd5565b5050505050505050505050565b5f5f73ffffffffffffffffffffffffffffffffffffffff1660075f9054906101000a900473ffffffffffffffffffffffffffffffffffffffff1673ffffffffffffffffffffffffffffffffffffffff160361240a575f9050612655565b5f60075f9054906101000a900473ffffffffffffffffffffffffffffffffffffffff1690505f60085f9054906101000a900473ffffffffffffffffffffffffffffffffffffffff1690505f73ffffffffffffffffffffffffffffffffffffffff168173ffffffffffffffffffffffffffffffffffffffff16036124d35761249082612e42565b90508060085f6101000a81548173ffffffffffffffffffffffffffffffffffffffff021916908373ffffffffffffffffffffffffffffffffffffffff1602179055505b5f73ffffffffffffffffffffffffffffffffffffffff168173ffffffffffffffffffffffffffffffffffffffff16148061253857508373ffffffffffffffffffffffffffffffffffffffff168173ffffffffffffffffffffffffffffffffffffffff16145b8061256e57508173ffffffffffffffffffffffffffffffffffffffff168173ffffffffffffffffffffffffffffffffffffffff16145b1561257d575f92505050612655565b5f5f5f61258c8585898b6135f5565b9250925092505f73ffffffffffffffffffffffffffffffffffffffff168373ffffffffffffffffffffffffffffffffffffffff1614806125f757505f73ffffffffffffffffffffffffffffffffffffffff168273ffffffffffffffffffffffffffffffffffffffff16145b8061262d57505f73ffffffffffffffffffffffffffffffffffffffff168173ffffffffffffffffffffffffffffffffffffffff16145b1561263f575f95505050505050612655565b61264d85858585858c6136f3565b955050505050505b92915050565b5f73ffffffffffffffffffffffffffffffffffffffff165f5f9054906101000a900473ffffffffffffffffffffffffffffffffffffffff1673ffffffffffffffffffffffffffffffffffffffff1614612751575f5f9054906101000a900473ffffffffffffffffffffffffffffffffffffffff1673ffffffffffffffffffffffffffffffffffffffff166370a08231306040518263ffffffff1660e01b815260040161270791906153b0565b602060405180830381865afa158015612722573d5f5f3e3d5ffd5b505050506040513d601f19601f820116820180604052508101906127469190615871565b60018190555061280f565b805f5f6101000a81548173ffffffffffffffffffffffffffffffffffffffff021916908373ffffffffffffffffffffffffffffffffffffffff1602179055508073ffffffffffffffffffffffffffffffffffffffff166370a08231306040518263ffffffff1660e01b81526004016127c991906153b0565b602060405180830381865afa1580156127e4573d5f5f3e3d5ffd5b505050506040513d601f19601f820116820180604052508101906128089190615871565b6001819055505b50565b5f5f73ffffffffffffffffffffffffffffffffffffffff168473ffffffffffffffffffffffffffffffffffffffff160361284e575f905061298e565b5f8473ffffffffffffffffffffffffffffffffffffffff1663574f2ba36040518163ffffffff1660e01b8152600401602060405180830381865afa158015612898573d5f5f3e3d5ffd5b505050506040513d601f19601f820116820180604052508101906128bc9190615871565b90505f610a2882116128ce57816128d2565b610a285b90505f5f90505b81811015612987575f8773ffffffffffffffffffffffffffffffffffffffff16631e3dd18b836040518263ffffffff1660e01b815260040161291b9190615355565b602060405180830381865afa158015612936573d5f5f3e3d5ffd5b505050506040513d601f19601f8201168201806040525081019061295a9190615980565b9050612967818888613a28565b1561297957600194505050505061298e565b5080806001019150506128d9565b505f925050505b9392505050565b5f5f5f90505b6002811015612b5c575f8482600281106129b8576129b7615eb1565b5b602002015190505f73ffffffffffffffffffffffffffffffffffffffff168173ffffffffffffffffffffffffffffffffffffffff16036129f85750612b4f565b5f8173ffffffffffffffffffffffffffffffffffffffff1663574f2ba36040518163ffffffff1660e01b8152600401602060405180830381865afa158015612a42573d5f5f3e3d5ffd5b505050506040513d601f19601f82011682018060405250810190612a669190615871565b90505f6102008211612a785781612a7c565b6102005b90505f5f90505b81811015612b4a575f8473ffffffffffffffffffffffffffffffffffffffff16631e3dd18b83600187612ab691906160f2565b612ac091906160f2565b6040518263ffffffff1660e01b8152600401612adc9190615355565b602060405180830381865afa158015612af7573d5f5f3e3d5ffd5b505050506040513d601f19601f82011682018060405250810190612b1b9190615980565b9050612b28818a8a613a28565b15612b3c5760019650505050505050612b61565b508080600101915050612a83565b505050505b808060010191505061299b565b505f90505b92915050565b5f5f5f90505b6002811015612d15575f848260028110612b8a57612b89615eb1565b5b602002015190505f73ffffffffffffffffffffffffffffffffffffffff168173ffffffffffffffffffffffffffffffffffffffff1603612bca5750612d08565b5f8173ffffffffffffffffffffffffffffffffffffffff1663574f2ba36040518163ffffffff1660e01b8152600401602060405180830381865afa158015612c14573d5f5f3e3d5ffd5b505050506040513d601f19601f82011682018060405250810190612c389190615871565b90505f60c08211612c495781612c4c565b60c05b90505f5f90505b81811015612d03575f8473ffffffffffffffffffffffffffffffffffffffff16631e3dd18b836040518263ffffffff1660e01b8152600401612c959190615355565b602060405180830381865afa158015612cb0573d5f5f3e3d5ffd5b505050506040513d601f19601f82011682018060405250810190612cd49190615980565b9050612ce1818a8a613a28565b15612cf55760019650505050505050612d1a565b508080600101915050612c53565b505050505b8080600101915050612b6d565b505f90505b92915050565b5f828210612d30575f9050612d3f565b8183612d3c91906160f2565b90505b92915050565b6060818054905067ffffffffffffffff811115612d6557612d646159ab565b5b604051908082528060200260200182016040528015612d935781602001602082028036833780820191505090505b5090505f5f90505b8280549050811015612e3c57828181548110612dba57612db9615eb1565b5b905f5260205f20015f9054906101000a900473ffffffffffffffffffffffffffffffffffffffff16828281518110612df557612df4615eb1565b5b602002602001019073ffffffffffffffffffffffffffffffffffffffff16908173ffffffffffffffffffffffffffffffffffffffff16815250508080600101915050612d9b565b50919050565b5f5f5f8373ffffffffffffffffffffffffffffffffffffffff16617530636f307dc360e01b604051602401604051602081830303815290604052907bffffffffffffffffffffffffffffffffffffffffffffffffffffffff19166020820180517bffffffffffffffffffffffffffffffffffffffffffffffffffffffff8381831617835250505050604051612ed791906163c0565b5f604051808303818686fa925050503d805f8114612f10576040519150601f19603f3d011682016040523d82523d5f602084013e612f15565b606091505b5091509150811580612f28575060208151105b15612f37575f92505050612f50565b80806020019051810190612f4b91906163ea565b925050505b919050565b61300c8363095ea7b360e01b845f604051602401612f7492919061645a565b604051602081830303815290604052907bffffffffffffffffffffffffffffffffffffffffffffffffffffffff19166020820180517bffffffffffffffffffffffffffffffffffffffffffffffffffffffff83818316178352505050506040518060400160405280601381526020017f617070726f76652d7a65726f2d6661696c656400000000000000000000000000815250613b83565b6130c38363095ea7b360e01b848460405160240161302b929190616481565b604051602081830303815290604052907bffffffffffffffffffffffffffffffffffffffffffffffffffffffff19166020820180517bffffffffffffffffffffffffffffffffffffffffffffffffffffffff83818316178352505050506040518060400160405280601581526020017f617070726f76652d616d6f756e742d6661696c65640000000000000000000000815250613b83565b505050565b5f5f5f5f6130d7878787613c5f565b92509250925082156130f757816004819055508482109350505050613117565b5f81511461311057806011908161310e9190615bd5565b505b5f93505050505b9392505050565b5f5f5f5f61312d878787613eaf565b925092509250821561314d57816005819055508482109350505050613188565b5f81511415801561316b57505f6011805461316790615a05565b9050145b1561318157806011908161317f9190615bd5565b505b5f93505050505b9392505050565b5f5f5f5f61319e878787614114565b92509250925082156131be578160068190555084821093505050506131f9565b5f8151141580156131dc57505f601180546131d890615a05565b9050145b156131f25780601190816131f09190615bd5565b505b5f93505050505b9392505050565b6132b78363a9059cbb60e01b848460405160240161321f929190616481565b604051602081830303815290604052907bffffffffffffffffffffffffffffffffffffffffffffffffffffffff19166020820180517bffffffffffffffffffffffffffffffffffffffffffffffffffffffff83818316178352505050506040518060400160405280600f81526020017f7472616e736665722d6661696c65640000000000000000000000000000000000815250613b83565b505050565b5f8183116132cc575f90506132db565b81836132d891906160f2565b90505b92915050565b5f60016103e56103e8846132f591906164a8565b6132ff9190615f63565b61330991906164e9565b9050919050565b5f8190505f5b5f821180156133255750600481105b156135c35780806133359061651c565b9150505f8673ffffffffffffffffffffffffffffffffffffffff166370a08231306040518263ffffffff1660e01b815260040161337291906153b0565b602060405180830381865afa15801561338d573d5f5f3e3d5ffd5b505050506040513d601f19601f820116820180604052508101906133b19190615871565b90505f81116133f5576040517f08c379a00000000000000000000000000000000000000000000000000000000081526004016133ec906165ad565b60405180910390fd5b5f5f613402878a8a614379565b915091505f613412868484614641565b9050600161271061283c8361342791906164a8565b6134319190615f63565b61343b91906164e9565b905083811115613449578390505b5f8973ffffffffffffffffffffffffffffffffffffffff166370a08231306040518263ffffffff1660e01b815260040161348391906153b0565b602060405180830381865afa15801561349e573d5f5f3e3d5ffd5b505050506040513d601f19601f820116820180604052508101906134c29190615871565b90506134d08b8b8b85614737565b5f6135528b73ffffffffffffffffffffffffffffffffffffffff166370a08231306040518263ffffffff1660e01b815260040161350d91906153b0565b602060405180830381865afa158015613528573d5f5f3e3d5ffd5b505050506040513d601f19601f8201168201806040525081019061354c9190615871565b836132bc565b90505f8111613596576040517f08c379a000000000000000000000000000000000000000000000000000000000815260040161358d90616615565b60405180910390fd5b8781106135aa5750505050505050506135c6565b80886135b691906160f2565b9750505050505050613316565b50505b50505050565b5f5f5f6135da878787614379565b915091506135e9848284614641565b92505050949350505050565b5f5f5f6136038487876148fc565b50809250505f73ffffffffffffffffffffffffffffffffffffffff168273ffffffffffffffffffffffffffffffffffffffff1603613649575f5f5f9250925092506136e9565b6136548488886148fc565b50809350505f73ffffffffffffffffffffffffffffffffffffffff168373ffffffffffffffffffffffffffffffffffffffff1614613694578590506136e9565b61369f8488876148fc565b50809350505f73ffffffffffffffffffffffffffffffffffffffff168373ffffffffffffffffffffffffffffffffffffffff16036136e5575f825f9250925092506136e9565b8490505b9450945094915050565b5f5f604051806101600160405280604081526020016030815260200160208152602001601881526020016014815260200160108152602001600c8152602001600a81526020016008815260200160068152602001600481525090505f5f90505b600b811015613a18575f600a5490505f810361378e5761378b878a8585600b811061378157613780615eb1565b5b60200201516149b2565b90505b5f810361379b5750613a0b565b5f8a8a8a8a898b6040516020016137b796959493929190616633565b60405160208183030381529060405290505f5f6137d58a8d86614a00565b915091505f5f8b73ffffffffffffffffffffffffffffffffffffffff1663022c0d9f60e01b8585308960405160240161381194939291906166da565b604051602081830303815290604052907bffffffffffffffffffffffffffffffffffffffffffffffffffffffff19166020820180517bffffffffffffffffffffffffffffffffffffffffffffffffffffffff838183161783525050505060405161387b91906163c0565b5f604051808303815f865af19150503d805f81146138b4576040519150601f19603f3d011682016040523d82523d5f602084013e6138b9565b606091505b5091509150816138fa576138cc81614aba565b601190816138da9190615bd5565b505f600a54146138ef57505050505050613a18565b505050505050613a0b565b8e60075f6101000a81548173ffffffffffffffffffffffffffffffffffffffff021916908373ffffffffffffffffffffffffffffffffffffffff1602179055508d60085f6101000a81548173ffffffffffffffffffffffffffffffffffffffff021916908373ffffffffffffffffffffffffffffffffffffffff16021790555085600a819055503060095f6101000a81548173ffffffffffffffffffffffffffffffffffffffff021916908373ffffffffffffffffffffffffffffffffffffffff1602179055505f600b54036139d3576038600b819055505b7fffffffffffffffffffffffffffffffffffffffffffffffffffffffffffffffff600c81905550600198505050505050505050613a1e565b8080600101915050613753565b505f9150505b9695505050505050565b5f5f8473ffffffffffffffffffffffffffffffffffffffff16630dfe16816040518163ffffffff1660e01b8152600401602060405180830381865afa158015613a73573d5f5f3e3d5ffd5b505050506040513d601f19601f82011682018060405250810190613a979190615980565b9050613aa4818585614b4e565b15613ab3576001915050613b7c565b5f8573ffffffffffffffffffffffffffffffffffffffff1663d21220a76040518163ffffffff1660e01b8152600401602060405180830381865afa158015613afd573d5f5f3e3d5ffd5b505050506040513d601f19601f82011682018060405250810190613b219190615980565b90508173ffffffffffffffffffffffffffffffffffffffff168173ffffffffffffffffffffffffffffffffffffffff1614158015613b665750613b65818686614b4e565b5b15613b7657600192505050613b7c565b5f925050505b9392505050565b5f5f8473ffffffffffffffffffffffffffffffffffffffff1684604051613baa91906163c0565b5f604051808303815f865af19150503d805f8114613be3576040519150601f19603f3d011682016040523d82523d5f602084013e613be8565b606091505b5091509150818015613c1557505f81511480613c14575080806020019051810190613c13919061674e565b5b5b8390613c57576040517f08c379a0000000000000000000000000000000000000000000000000000000008152600401613c4e9190615510565b60405180910390fd5b505050505050565b5f5f60605f8573ffffffffffffffffffffffffffffffffffffffff166370a08231886040518263ffffffff1660e01b8152600401613c9d91906153b0565b602060405180830381865afa158015613cb8573d5f5f3e3d5ffd5b505050506040513d601f19601f82011682018060405250810190613cdc9190615871565b90506060736b7a87899490ece95443e979ca9485cbe7e7152273ffffffffffffffffffffffffffffffffffffffff1663edbdf5e260e01b8960095f9054906101000a900473ffffffffffffffffffffffffffffffffffffffff1689600b54604051602401613d4d9493929190616779565b604051602081830303815290604052907bffffffffffffffffffffffffffffffffffffffffffffffffffffffff19166020820180517bffffffffffffffffffffffffffffffffffffffffffffffffffffffff8381831617835250505050604051613db791906163c0565b5f604051808303815f865af19150503d805f8114613df0576040519150601f19603f3d011682016040523d82523d5f602084013e613df5565b606091505b50809250819650505084613e1b57613e0c81614aba565b92505f5f945094505050613ea6565b5f8773ffffffffffffffffffffffffffffffffffffffff166370a082318a6040518263ffffffff1660e01b8152600401613e5591906153b0565b602060405180830381865afa158015613e70573d5f5f3e3d5ffd5b505050506040513d601f19601f82011682018060405250810190613e949190615871565b9050613ea081846132bc565b94505050505b93509350939050565b5f5f60605f8573ffffffffffffffffffffffffffffffffffffffff166370a08231886040518263ffffffff1660e01b8152600401613eed91906153b0565b602060405180830381865afa158015613f08573d5f5f3e3d5ffd5b505050506040513d601f19601f82011682018060405250810190613f2c9190615871565b90505f613f39600d612d45565b90506060736b7a87899490ece95443e979ca9485cbe7e7152273ffffffffffffffffffffffffffffffffffffffff1663d8b9f61060e01b885f8560095f9054906101000a900473ffffffffffffffffffffffffffffffffffffffff16600c54600b54604051602401613fb0969594939291906167bc565b604051602081830303815290604052907bffffffffffffffffffffffffffffffffffffffffffffffffffffffff19166020820180517bffffffffffffffffffffffffffffffffffffffffffffffffffffffff838183161783525050505060405161401a91906163c0565b5f604051808303815f865af19150503d805f8114614053576040519150601f19603f3d011682016040523d82523d5f602084013e614058565b606091505b5080925081975050508561407f5761406f81614aba565b93505f5f9550955050505061410b565b5f8873ffffffffffffffffffffffffffffffffffffffff166370a082318b6040518263ffffffff1660e01b81526004016140b991906153b0565b602060405180830381865afa1580156140d4573d5f5f3e3d5ffd5b505050506040513d601f19601f820116820180604052508101906140f89190615871565b905061410481856132bc565b9550505050505b93509350939050565b5f5f60605f8573ffffffffffffffffffffffffffffffffffffffff166370a08231886040518263ffffffff1660e01b815260040161415291906153b0565b602060405180830381865afa15801561416d573d5f5f3e3d5ffd5b505050506040513d601f19601f820116820180604052508101906141919190615871565b90505f61419e600e612d45565b90506060736b7a87899490ece95443e979ca9485cbe7e7152273ffffffffffffffffffffffffffffffffffffffff16636a45397260e01b885f8560095f9054906101000a900473ffffffffffffffffffffffffffffffffffffffff16600c54600b54604051602401614215969594939291906167bc565b604051602081830303815290604052907bffffffffffffffffffffffffffffffffffffffffffffffffffffffff19166020820180517bffffffffffffffffffffffffffffffffffffffffffffffffffffffff838183161783525050505060405161427f91906163c0565b5f604051808303815f865af19150503d805f81146142b8576040519150601f19603f3d011682016040523d82523d5f602084013e6142bd565b606091505b508092508197505050856142e4576142d481614aba565b93505f5f95509550505050614370565b5f8873ffffffffffffffffffffffffffffffffffffffff166370a082318b6040518263ffffffff1660e01b815260040161431e91906153b0565b602060405180830381865afa158015614339573d5f5f3e3d5ffd5b505050506040513d601f19601f8201168201806040525081019061435d9190615871565b905061436981856132bc565b9550505050505b93509350939050565b5f5f5f8573ffffffffffffffffffffffffffffffffffffffff16630dfe16816040518163ffffffff1660e01b8152600401602060405180830381865afa1580156143c5573d5f5f3e3d5ffd5b505050506040513d601f19601f820116820180604052508101906143e99190615980565b90505f8673ffffffffffffffffffffffffffffffffffffffff1663d21220a76040518163ffffffff1660e01b8152600401602060405180830381865afa158015614435573d5f5f3e3d5ffd5b505050506040513d601f19601f820116820180604052508101906144599190615980565b90505f5f8873ffffffffffffffffffffffffffffffffffffffff16630902f1ac6040518163ffffffff1660e01b8152600401606060405180830381865afa1580156144a6573d5f5f3e3d5ffd5b505050506040513d601f19601f820116820180604052508101906144ca919061689e565b50915091508373ffffffffffffffffffffffffffffffffffffffff168873ffffffffffffffffffffffffffffffffffffffff1614801561453557508273ffffffffffffffffffffffffffffffffffffffff168773ffffffffffffffffffffffffffffffffffffffff16145b1561456957816dffffffffffffffffffffffffffff16816dffffffffffffffffffffffffffff169550955050505050614639565b8273ffffffffffffffffffffffffffffffffffffffff168873ffffffffffffffffffffffffffffffffffffffff161480156145cf57508373ffffffffffffffffffffffffffffffffffffffff168773ffffffffffffffffffffffffffffffffffffffff16145b61460e576040517f08c379a000000000000000000000000000000000000000000000000000000000815260040161460590616938565b60405180910390fd5b806dffffffffffffffffffffffffffff16826dffffffffffffffffffffffffffff1695509550505050505b935093915050565b5f5f8411614684576040517f08c379a000000000000000000000000000000000000000000000000000000000815260040161467b906169a0565b60405180910390fd5b5f8311801561469257505f82115b801561469d57508184105b6146dc576040517f08c379a00000000000000000000000000000000000000000000000000000000081526004016146d390616a08565b60405180910390fd5b5f6103e885856146ec91906164a8565b6146f691906164a8565b90505f6103e5868561470891906160f2565b61471291906164a8565b9050600181836147229190615f63565b61472c91906164e9565b925050509392505050565b5f5f614744848787614379565b91509150614753868585613200565b5f6147d58773ffffffffffffffffffffffffffffffffffffffff166370a08231876040518263ffffffff1660e01b815260040161479091906153b0565b602060405180830381865afa1580156147ab573d5f5f3e3d5ffd5b505050506040513d601f19601f820116820180604052508101906147cf9190615871565b846132bc565b90505f8111614819576040517f08c379a000000000000000000000000000000000000000000000000000000000815260040161481090616a70565b60405180910390fd5b5f614825828585614d53565b90505f5f614834888a85614a00565b915091508773ffffffffffffffffffffffffffffffffffffffff1663022c0d9f8383305f67ffffffffffffffff811115614871576148706159ab565b5b6040519080825280601f01601f1916602001820160405280156148a35781602001600182028036833780820191505090505b506040518563ffffffff1660e01b81526004016148c394939291906166da565b5f604051808303815f87803b1580156148da575f5ffd5b505af11580156148ec573d5f5f3e3d5ffd5b5050505050505050505050505050565b5f5f5f5f614922875f6002811061491657614915615eb1565b5b60200201518787614e37565b915091505f5f61494b8960016002811061493f5761493e615eb1565b5b60200201518989614e37565b915091505f73ffffffffffffffffffffffffffffffffffffffff168473ffffffffffffffffffffffffffffffffffffffff161415801561498b5750808310155b1561499f57838395509550505050506149aa565b818195509550505050505b935093915050565b5f5f6149be8585615012565b5090505f81036149d1575f9150506149f9565b5f83826149de9190615f63565b90506103e881116149f3575f925050506149f9565b80925050505b9392505050565b5f5f5f8573ffffffffffffffffffffffffffffffffffffffff16630dfe16816040518163ffffffff1660e01b8152600401602060405180830381865afa158015614a4c573d5f5f3e3d5ffd5b505050506040513d601f19601f82011682018060405250810190614a709190615980565b90508073ffffffffffffffffffffffffffffffffffffffff168573ffffffffffffffffffffffffffffffffffffffff1603614aad57839250614ab1565b8391505b50935093915050565b60605f6004835110614ace57602083015190505b6044835110158015614b0557506308c379a060e01b817bffffffffffffffffffffffffffffffffffffffffffffffffffffffff1916145b15614b2c5760048301925082806020019051810190614b249190616b7b565b915050614b49565b604051806060016040528060238152602001616d46602391399150505b919050565b5f5f73ffffffffffffffffffffffffffffffffffffffff168473ffffffffffffffffffffffffffffffffffffffff161480614bb457508173ffffffffffffffffffffffffffffffffffffffff168473ffffffffffffffffffffffffffffffffffffffff16145b15614bc1575f9050614d4c565b5f614bcb85612e42565b90505f73ffffffffffffffffffffffffffffffffffffffff168173ffffffffffffffffffffffffffffffffffffffff161480614c3257508273ffffffffffffffffffffffffffffffffffffffff168173ffffffffffffffffffffffffffffffffffffffff16145b80614c6857508473ffffffffffffffffffffffffffffffffffffffff168173ffffffffffffffffffffffffffffffffffffffff16145b15614c76575f915050614d4c565b5f5f5f614c858885888a6135f5565b9250925092505f73ffffffffffffffffffffffffffffffffffffffff168373ffffffffffffffffffffffffffffffffffffffff161480614cf057505f73ffffffffffffffffffffffffffffffffffffffff168273ffffffffffffffffffffffffffffffffffffffff16145b80614d2657505f73ffffffffffffffffffffffffffffffffffffffff168173ffffffffffffffffffffffffffffffffffffffff16145b15614d37575f945050505050614d4c565b614d4588858585858b6136f3565b9450505050505b9392505050565b5f5f8411614d96576040517f08c379a0000000000000000000000000000000000000000000000000000000008152600401614d8d90616c0c565b60405180910390fd5b5f83118015614da457505f82115b614de3576040517f08c379a0000000000000000000000000000000000000000000000000000000008152600401614dda90616a08565b60405180910390fd5b5f6103e585614df291906164a8565b90505f8382614e0191906164a8565b90505f826103e887614e1391906164a8565b614e1d91906164e9565b90508082614e2b9190615f63565b93505050509392505050565b5f5f5f73ffffffffffffffffffffffffffffffffffffffff168573ffffffffffffffffffffffffffffffffffffffff161480614e9e57505f73ffffffffffffffffffffffffffffffffffffffff168473ffffffffffffffffffffffffffffffffffffffff16145b80614ed457505f73ffffffffffffffffffffffffffffffffffffffff168373ffffffffffffffffffffffffffffffffffffffff16145b80614f0a57508273ffffffffffffffffffffffffffffffffffffffff168473ffffffffffffffffffffffffffffffffffffffff16145b15614f1a575f5f9150915061500a565b8473ffffffffffffffffffffffffffffffffffffffff1663e6a4390585856040518363ffffffff1660e01b8152600401614f55929190616c2a565b602060405180830381865afa158015614f70573d5f5f3e3d5ffd5b505050506040513d601f19601f82011682018060405250810190614f949190615980565b91505f73ffffffffffffffffffffffffffffffffffffffff168273ffffffffffffffffffffffffffffffffffffffff1603614fd4575f5f9150915061500a565b5f5f614fe1848787614379565b915091505f821480614ff257505f81145b15615004575f5f93509350505061500a565b80925050505b935093915050565b5f5f5f8473ffffffffffffffffffffffffffffffffffffffff16630dfe16816040518163ffffffff1660e01b8152600401602060405180830381865afa15801561505e573d5f5f3e3d5ffd5b505050506040513d601f19601f820116820180604052508101906150829190615980565b90505f5f8673ffffffffffffffffffffffffffffffffffffffff16630902f1ac6040518163ffffffff1660e01b8152600401606060405180830381865afa1580156150cf573d5f5f3e3d5ffd5b505050506040513d601f19601f820116820180604052508101906150f3919061689e565b50915091508273ffffffffffffffffffffffffffffffffffffffff168673ffffffffffffffffffffffffffffffffffffffff160361515957816dffffffffffffffffffffffffffff16816dffffffffffffffffffffffffffff1694509450505050615183565b806dffffffffffffffffffffffffffff16826dffffffffffffffffffffffffffff16945094505050505b9250929050565b5080545f8255905f5260205f20908101906151a591906151a8565b50565b5b808211156151bf575f815f9055506001016151a9565b5090565b5f604051905090565b5f5ffd5b5f5ffd5b5f73ffffffffffffffffffffffffffffffffffffffff82169050919050565b5f6151fd826151d4565b9050919050565b61520d816151f3565b8114615217575f5ffd5b50565b5f8135905061522881615204565b92915050565b5f819050919050565b6152408161522e565b811461524a575f5ffd5b50565b5f8135905061525b81615237565b92915050565b5f5ffd5b5f5ffd5b5f5ffd5b5f5f83601f84011261528257615281615261565b5b8235905067ffffffffffffffff81111561529f5761529e615265565b5b6020830191508360018202830111156152bb576152ba615269565b5b9250929050565b5f5f5f5f5f608086880312156152db576152da6151cc565b5b5f6152e88882890161521a565b95505060206152f98882890161524d565b945050604061530a8882890161524d565b935050606086013567ffffffffffffffff81111561532b5761532a6151d0565b5b6153378882890161526d565b92509250509295509295909350565b61534f8161522e565b82525050565b5f6020820190506153685f830184615346565b92915050565b5f8115159050919050565b6153828161536e565b82525050565b5f60208201905061539b5f830184615379565b92915050565b6153aa816151f3565b82525050565b5f6020820190506153c35f8301846153a1565b92915050565b5f81519050919050565b5f82825260208201905092915050565b5f819050602082019050919050565b6153fb816151f3565b82525050565b5f61540c83836153f2565b60208301905092915050565b5f602082019050919050565b5f61542e826153c9565b61543881856153d3565b9350615443836153e3565b805f5b8381101561547357815161545a8882615401565b975061546583615418565b925050600181019050615446565b5085935050505092915050565b5f6020820190508181035f8301526154988184615424565b905092915050565b5f81519050919050565b5f82825260208201905092915050565b8281835e5f83830152505050565b5f601f19601f8301169050919050565b5f6154e2826154a0565b6154ec81856154aa565b93506154fc8185602086016154ba565b615505816154c8565b840191505092915050565b5f6020820190508181035f83015261552881846154d8565b905092915050565b5f5f83601f84011261554557615544615261565b5b8235905067ffffffffffffffff81111561556257615561615265565b5b60208301915083602082028301111561557e5761557d615269565b5b9250929050565b5f5f5f5f5f5f5f5f5f60e08a8c0312156155a2576155a16151cc565b5b5f6155af8c828d0161521a565b99505060206155c08c828d0161524d565b98505060406155d18c828d0161524d565b97505060606155e28c828d0161524d565b96505060806155f38c828d0161521a565b95505060a08a013567ffffffffffffffff811115615614576156136151d0565b5b6156208c828d01615530565b945094505060c08a013567ffffffffffffffff811115615643576156426151d0565b5b61564f8c828d01615530565b92509250509295985092959850929598565b5f61566b826151d4565b9050919050565b61567b81615661565b8114615685575f5ffd5b50565b5f8135905061569681615672565b92915050565b5f5f5f5f5f5f60c087890312156156b6576156b56151cc565b5b5f6156c389828a01615688565b96505060206156d489828a01615688565b95505060406156e589828a01615688565b94505060606156f689828a01615688565b935050608061570789828a01615688565b92505060a061571889828a01615688565b9150509295509295509295565b7f756e65787065637465642d63616c6c6261636b2d7061697200000000000000005f82015250565b5f6157596018836154aa565b915061576482615725565b602082019050919050565b5f6020820190508181035f8301526157868161574d565b9050919050565b7f756e65787065637465642d63616c6c6261636b2d73656e6465720000000000005f82015250565b5f6157c1601a836154aa565b91506157cc8261578d565b602082019050919050565b5f6020820190508181035f8301526157ee816157b5565b9050919050565b7f7a65726f2d626f72726f770000000000000000000000000000000000000000005f82015250565b5f615829600b836154aa565b9150615834826157f5565b602082019050919050565b5f6020820190508181035f8301526158568161581d565b9050919050565b5f8151905061586b81615237565b92915050565b5f60208284031215615886576158856151cc565b5b5f6158938482850161585d565b91505092915050565b7f626f72726f772d746f6f2d736d616c6c000000000000000000000000000000005f82015250565b5f6158d06010836154aa565b91506158db8261589c565b602082019050919050565b5f6020820190508181035f8301526158fd816158c4565b9050919050565b7f6e6f2d73686f727466616c6c2d6f6273657276656400000000000000000000005f82015250565b5f6159386015836154aa565b915061594382615904565b602082019050919050565b5f6020820190508181035f8301526159658161592c565b9050919050565b5f8151905061597a81615204565b92915050565b5f60208284031215615995576159946151cc565b5b5f6159a28482850161596c565b91505092915050565b7f4e487b71000000000000000000000000000000000000000000000000000000005f52604160045260245ffd5b7f4e487b71000000000000000000000000000000000000000000000000000000005f52602260045260245ffd5b5f6002820490506001821680615a1c57607f821691505b602082108103615a2f57615a2e6159d8565b5b50919050565b5f819050815f5260205f209050919050565b5f6020601f8301049050919050565b5f82821b905092915050565b5f60088302615a917fffffffffffffffffffffffffffffffffffffffffffffffffffffffffffffffff82615a56565b615a9b8683615a56565b95508019841693508086168417925050509392505050565b5f819050919050565b5f615ad6615ad1615acc8461522e565b615ab3565b61522e565b9050919050565b5f819050919050565b615aef83615abc565b615b03615afb82615add565b848454615a62565b825550505050565b5f5f905090565b615b1a615b0b565b615b25818484615ae6565b505050565b5b81811015615b4857615b3d5f82615b12565b600181019050615b2b565b5050565b601f821115615b8d57615b5e81615a35565b615b6784615a47565b81016020851015615b76578190505b615b8a615b8285615a47565b830182615b2a565b50505b505050565b5f82821c905092915050565b5f615bad5f1984600802615b92565b1980831691505092915050565b5f615bc58383615b9e565b9150826002028217905092915050565b615bde826154a0565b67ffffffffffffffff811115615bf757615bf66159ab565b5b615c018254615a05565b615c0c828285615b4c565b5f60209050601f831160018114615c3d575f8415615c2b578287015190505b615c358582615bba565b865550615c9c565b601f198416615c4b86615a35565b5f5b82811015615c7257848901518255600182019150602085019450602081019050615c4d565b86831015615c8f5784890151615c8b601f891682615b9e565b8355505b6001600288020188555050505b505050505050565b5f81905092915050565b5f615cb8826154a0565b615cc28185615ca4565b9350615cd28185602086016154ba565b80840191505092915050565b7f207c200000000000000000000000000000000000000000000000000000000000815250565b7f2e205065726d69742076617269616e74732072656d61696e207369676e6174755f8201527f72652d67617465643b2064657374696e6174696f6e20616e7953776170496e2060208201527f736574746c656d656e742072656d61696e73204d50432d67617465642c20736f60408201527f2073616d652d636861696e206d6f6e6574697a6174696f6e207265757365732060608201527f7468652073616d65207472616e736665722d7468656e2d6e6f6d696e616c2d6460808201527f65706f7369745661756c74207072696d69746976652061667465722076616c6960a08201527f646174696e6720746865207075626c6963206272696467652d6f75742070617460c08201527f68732e000000000000000000000000000000000000000000000000000000000060e082015250565b5f615e4260e383615ca4565b9150615e4d82615d04565b60e382019050919050565b5f615e638286615cae565b9150615e6e82615cde565b600382019150615e7e8285615cae565b9150615e8982615cde565b600382019150615e998284615cae565b9150615ea482615e36565b9150819050949350505050565b7f4e487b71000000000000000000000000000000000000000000000000000000005f52603260045260245ffd5b5f60208284031215615ef357615ef26151cc565b5b5f615f008482850161521a565b91505092915050565b7f4e487b71000000000000000000000000000000000000000000000000000000005f52601260045260245ffd5b7f4e487b71000000000000000000000000000000000000000000000000000000005f52601160045260245ffd5b5f615f6d8261522e565b9150615f788361522e565b925082615f8857615f87615f09565b5b828204905092915050565b7f70726f62652d746f6f2d736d616c6c00000000000000000000000000000000005f82015250565b5f615fc7600f836154aa565b9150615fd282615f93565b602082019050919050565b5f6020820190508181035f830152615ff481615fbb565b9050919050565b7f6e6f2d756e6465726c79696e672d6c65667400000000000000000000000000005f82015250565b5f61602f6012836154aa565b915061603a82615ffb565b602082019050919050565b5f6020820190508181035f83015261605c81616023565b9050919050565b5f6040820190506160765f830185615346565b61608360208301846153a1565b9392505050565b7f6e6f2d616e792d6d696e746564000000000000000000000000000000000000005f82015250565b5f6160be600d836154aa565b91506160c98261608a565b602082019050919050565b5f6020820190508181035f8301526160eb816160b2565b9050919050565b5f6160fc8261522e565b91506161078361522e565b925082820390508181111561611f5761611e615f36565b5b92915050565b7f696e73756666696369656e742d666f722d72657061796d656e740000000000005f82015250565b5f616159601a836154aa565b915061616482616125565b602082019050919050565b5f6020820190508181035f8301526161868161614d565b9050919050565b7f6e6f2d70726f6669742d7265616c697a656400000000000000000000000000005f82015250565b5f6161c16012836154aa565b91506161cc8261618d565b602082019050919050565b5f6020820190508181035f8301526161ee816161b5565b9050919050565b7f2e2053616d652d636861696e207265616c697a6174696f6e206b6565707320745f8201527f6865206578706c6f69742063617573616c69747920696e74616374206279207660208201527f616c69646174696e6720746865207075626c6963206272696467652d6f75742060408201527f706174687320666972737420616e64207468656e2073656c6c696e67206f6e6c60608201527f7920746865206d696e696d756d206e6f6d696e616c6c79206d696e746564206160808201527f6e79546f6b656e20696e76656e746f7279206e656564656420666f722064657460a08201527f65726d696e697374696320666c617368737761702072657061796d656e742e0060c082015250565b5f61630d60df83615ca4565b9150616318826161f5565b60df82019050919050565b5f61632e8286615cae565b915061633982615cde565b6003820191506163498285615cae565b915061635482615cde565b6003820191506163648284615cae565b915061636f82616301565b9150819050949350505050565b5f81519050919050565b5f81905092915050565b5f61639a8261637c565b6163a48185616386565b93506163b48185602086016154ba565b80840191505092915050565b5f6163cb8284616390565b915081905092915050565b5f815190506163e481615672565b92915050565b5f602082840312156163ff576163fe6151cc565b5b5f61640c848285016163d6565b91505092915050565b5f819050919050565b5f60ff82169050919050565b5f61644461643f61643a84616415565b615ab3565b61641e565b9050919050565b6164548161642a565b82525050565b5f60408201905061646d5f8301856153a1565b61647a602083018461644b565b9392505050565b5f6040820190506164945f8301856153a1565b6164a16020830184615346565b9392505050565b5f6164b28261522e565b91506164bd8361522e565b92508282026164cb8161522e565b915082820484148315176164e2576164e1615f36565b5b5092915050565b5f6164f38261522e565b91506164fe8361522e565b925082820190508082111561651657616515615f36565b5b92915050565b5f6165268261522e565b91507fffffffffffffffffffffffffffffffffffffffffffffffffffffffffffffffff820361655857616557615f36565b5b600182019050919050565b7f6e6f2d73656c6c2d62616c616e636500000000000000000000000000000000005f82015250565b5f616597600f836154aa565b91506165a282616563565b602082019050919050565b5f6020820190508181035f8301526165c48161658b565b9050919050565b7f73616c652d6e6f2d6f75747075740000000000000000000000000000000000005f82015250565b5f6165ff600e836154aa565b915061660a826165cb565b602082019050919050565b5f6020820190508181035f83015261662c816165f3565b9050919050565b5f60c0820190506166465f8301896153a1565b61665360208301886153a1565b61666060408301876153a1565b61666d60608301866153a1565b61667a60808301856153a1565b61668760a08301846153a1565b979650505050505050565b5f82825260208201905092915050565b5f6166ac8261637c565b6166b68185616692565b93506166c68185602086016154ba565b6166cf816154c8565b840191505092915050565b5f6080820190506166ed5f830187615346565b6166fa6020830186615346565b61670760408301856153a1565b818103606083015261671981846166a2565b905095945050505050565b61672d8161536e565b8114616737575f5ffd5b50565b5f8151905061674881616724565b92915050565b5f60208284031215616763576167626151cc565b5b5f6167708482850161673a565b91505092915050565b5f60808201905061678c5f8301876153a1565b61679960208301866153a1565b6167a66040830185615346565b6167b36060830184615346565b95945050505050565b5f60c0820190506167cf5f830189615346565b6167dc6020830188615346565b81810360408301526167ee8187615424565b90506167fd60608301866153a1565b61680a6080830185615346565b61681760a0830184615346565b979650505050505050565b5f6dffffffffffffffffffffffffffff82169050919050565b61684481616822565b811461684e575f5ffd5b50565b5f8151905061685f8161683b565b92915050565b5f63ffffffff82169050919050565b61687d81616865565b8114616887575f5ffd5b50565b5f8151905061689881616874565b92915050565b5f5f5f606084860312156168b5576168b46151cc565b5b5f6168c286828701616851565b93505060206168d386828701616851565b92505060406168e48682870161688a565b9150509250925092565b7f706169722d746f6b656e2d6d69736d61746368000000000000000000000000005f82015250565b5f6169226013836154aa565b915061692d826168ee565b602082019050919050565b5f6020820190508181035f83015261694f81616916565b9050919050565b7f696e73756666696369656e742d6f7574707574000000000000000000000000005f82015250565b5f61698a6013836154aa565b915061699582616956565b602082019050919050565b5f6020820190508181035f8301526169b78161697e565b9050919050565b7f696e73756666696369656e742d6c6971756964697479000000000000000000005f82015250565b5f6169f26016836154aa565b91506169fd826169be565b602082019050919050565b5f6020820190508181035f830152616a1f816169e6565b9050919050565b7f7a65726f2d73616c652d696e70757400000000000000000000000000000000005f82015250565b5f616a5a600f836154aa565b9150616a6582616a26565b602082019050919050565b5f6020820190508181035f830152616a8781616a4e565b9050919050565b5f5ffd5b616a9b826154c8565b810181811067ffffffffffffffff82111715616aba57616ab96159ab565b5b80604052505050565b5f616acc6151c3565b9050616ad88282616a92565b919050565b5f67ffffffffffffffff821115616af757616af66159ab565b5b616b00826154c8565b9050602081019050919050565b5f616b1f616b1a84616add565b616ac3565b905082815260208101848484011115616b3b57616b3a616a8e565b5b616b468482856154ba565b509392505050565b5f82601f830112616b6257616b61615261565b5b8151616b72848260208601616b0d565b91505092915050565b5f60208284031215616b9057616b8f6151cc565b5b5f82015167ffffffffffffffff811115616bad57616bac6151d0565b5b616bb984828501616b4e565b91505092915050565b7f696e73756666696369656e742d696e70757400000000000000000000000000005f82015250565b5f616bf66012836154aa565b9150616c0182616bc2565b602082019050919050565b5f6020820190508181035f830152616c2381616bea565b9050919050565b5f604082019050616c3d5f8301856153a1565b616c4a60208301846153a1565b939250505056fe616e79537761704f75744578616374546f6b656e73466f72546f6b656e73556e6465726c79696e672a3a207472616e7366657220756e6465726c79696e6720746f20706174685b305d202d3e206465706f7369745661756c7428616d6f756e74496e29202d3e206275726e206e6f6d696e616c20616d6f756e74496e6e6f20636f6e666967757265642063616e6469646174652073756363656564656420616e64207075626c69632d6c6971756964697479207363616e7320666f756e64206e6f206578706c6f697461626c6520616e79546f6b656e2f756e6465726c79696e6720726f757465206f6e207468697320666f726b726f757465722d63616c6c2d72657665727465642d776974686f75742d737472696e677363616e6e656420616e79546f6b656e2063616e646964617465732070726f6475636564206e6f206d656173757261626c6520756e6465726c79696e672073686f727466616c6c206f6e207468652076756c6e657261626c6520726f7574657220656e747279706f696e74736272696467652d6f7574206163636f756e74696e672073686f727466616c6c20726570726f64756365642c20627574207363616e6e6564207075626c69632d6c697175696469747920726f7574657320636f756c64206e6f7420636f6e7665727420746865206e6f6d696e616c6c79206d696e74656420616e79546f6b656e20696e76656e746f727920696e746f20656e6f7567682073616d652d636861696e2076616c75652061667465722064657465726d696e697374696320666c617368737761702072657061796d656e74616e79537761704f75744578616374546f6b656e73466f724e6174697665556e6465726c79696e672a3a207472616e7366657220756e6465726c79696e6720746f20706174685b305d202d3e206465706f7369745661756c7428616d6f756e74496e29202d3e206275726e206e6f6d696e616c20616d6f756e74496e616e79537761704f7574556e6465726c79696e673a207472616e7366657220756e6465726c79696e67202d3e206465706f7369745661756c7428616d6f756e7429202d3e206275726e2f627269646765206e6f6d696e616c20616d6f756e74a26469706673582212200c01d06f0096be85a005dd62408cb09d7adfdece5cb46cd1457d2bf81cc0186c64736f6c634300081e0033","linkReferences":{}},"methodIdentifiers":{"TARGET()":"cc1f2afa","UNISWAP_V2_FACTORY()":"99d8fae3","actualReceivedOnDirectPath()":"688aad89","actualReceivedOnNativePath()":"1c79acb9","actualReceivedOnTokensPath()":"510cbaa8","configure(address,uint256,uint256,uint256,address,address[],address[])":"9773b300","configuredAmount()":"cb3a27a2","configuredAnyToken()":"720ebd95","configuredDeadline()":"d92a80ec","configuredReceiver()":"f75d0734","configuredToChainId()":"1b2f575c","configuredUnderlying()":"42c6a6b3","destinationSettlementInfeasible()":"c9335204","directUnderlyingPathAttempted()":"f9096773","executeOnOpportunity()":"3c2448ed","executed()":"31a38c89","failureReason()":"4f9522a4","hypothesisValidated()":"463defd1","lastRouterRevert()":"900cec84","missingCandidateConfiguration()":"c1a51e72","missingDirectUnderlyingBalance()":"f5362149","missingTradeUnderlyingBalance()":"5d04f026","nativePath()":"4eaa9b3b","nativeUnderlyingPathAttempted()":"58357d66","noFeeObserved()":"688e747b","nominalAmountTried()":"8e6adea1","pathUsed()":"7283898d","permitPathInfeasible()":"6d352e59","profitAmount()":"5ff972cc","profitToken()":"49343624","tokensPath()":"bc8d30c8","tokensUnderlyingPathAttempted()":"74c05555","transferPermitPathInfeasible()":"76b18ecc","uniswapV2Call(address,uint256,uint256,bytes)":"10d1e85c"},"id":0}