{"abi":[{"type":"constructor","inputs":[{"name":"attacker","type":"address","internalType":"address"},{"name":"honestDepositor","type":"address","internalType":"address"},{"name":"stakingTarget","type":"address","internalType":"address"},{"name":"attackerMint","type":"uint256","internalType":"uint256"},{"name":"honestMint","type":"uint256","internalType":"uint256"},{"name":"feeBps_","type":"uint256","internalType":"uint256"}],"stateMutability":"nonpayable"},{"type":"function","name":"BURN_SINK","inputs":[],"outputs":[{"name":"","type":"address","internalType":"address"}],"stateMutability":"view"},{"type":"function","name":"DECIMALS","inputs":[],"outputs":[{"name":"","type":"uint8","internalType":"uint8"}],"stateMutability":"view"},{"type":"function","name":"FEE_BPS","inputs":[],"outputs":[{"name":"","type":"uint256","internalType":"uint256"}],"stateMutability":"view"},{"type":"function","name":"NAME","inputs":[],"outputs":[{"name":"","type":"string","internalType":"string"}],"stateMutability":"view"},{"type":"function","name":"SYMBOL","inputs":[],"outputs":[{"name":"","type":"string","internalType":"string"}],"stateMutability":"view"},{"type":"function","name":"TAXED_RECIPIENT","inputs":[],"outputs":[{"name":"","type":"address","internalType":"address"}],"stateMutability":"view"},{"type":"function","name":"TAXED_SENDER","inputs":[],"outputs":[{"name":"","type":"address","internalType":"address"}],"stateMutability":"view"},{"type":"function","name":"allowance","inputs":[{"name":"owner","type":"address","internalType":"address"},{"name":"spender","type":"address","internalType":"address"}],"outputs":[{"name":"","type":"uint256","internalType":"uint256"}],"stateMutability":"view"},{"type":"function","name":"allowances","inputs":[{"name":"","type":"address","internalType":"address"},{"name":"","type":"address","internalType":"address"}],"outputs":[{"name":"","type":"uint256","internalType":"uint256"}],"stateMutability":"view"},{"type":"function","name":"approve","inputs":[{"name":"spender","type":"address","internalType":"address"},{"name":"amount","type":"uint256","internalType":"uint256"}],"outputs":[{"name":"","type":"bool","internalType":"bool"}],"stateMutability":"nonpayable"},{"type":"function","name":"balanceOf","inputs":[{"name":"account","type":"address","internalType":"address"}],"outputs":[{"name":"","type":"uint256","internalType":"uint256"}],"stateMutability":"view"},{"type":"function","name":"balances","inputs":[{"name":"","type":"address","internalType":"address"}],"outputs":[{"name":"","type":"uint256","internalType":"uint256"}],"stateMutability":"view"},{"type":"function","name":"totalSupply","inputs":[],"outputs":[{"name":"","type":"uint256","internalType":"uint256"}],"stateMutability":"view"},{"type":"function","name":"transfer","inputs":[{"name":"to","type":"address","internalType":"address"},{"name":"amount","type":"uint256","internalType":"uint256"}],"outputs":[{"name":"","type":"bool","internalType":"bool"}],"stateMutability":"nonpayable"},{"type":"function","name":"transferFrom","inputs":[{"name":"from","type":"address","internalType":"address"},{"name":"to","type":"address","internalType":"address"},{"name":"amount","type":"uint256","internalType":"uint256"}],"outputs":[{"name":"","type":"bool","internalType":"bool"}],"stateMutability":"nonpayable"},{"type":"event","name":"Approval","inputs":[{"name":"owner","type":"address","indexed":true,"internalType":"address"},{"name":"spender","type":"address","indexed":true,"internalType":"address"},{"name":"amount","type":"uint256","indexed":false,"internalType":"uint256"}],"anonymous":false},{"type":"event","name":"Transfer","inputs":[{"name":"from","type":"address","indexed":true,"internalType":"address"},{"name":"to","type":"address","indexed":true,"internalType":"address"},{"name":"amount","type":"uint256","indexed":false,"internalType":"uint256"}],"anonymous":false}],"bytecode":{"object":"0x610100346100e357601f61092f38819003918201601f19168301916001600160401b038311848410176100e75780849260c0946040528339810103126100e3578061004c610094926100fb565b61008f61005b602084016100fb565b91610068604085016100fb565b9060608501519160a06080870151960151908260a05260c05261dead60e052608052610130565b610130565b6040516107a2908161018d823960805181818161018f01526106fd015260a05181818161025401526106bd015260c0518181816104470152610737015260e0518181816102d001526106400152f35b5f80fd5b634e487b7160e01b5f52604160045260245ffd5b51906001600160a01b03821682036100e357565b9190820180921161011c57565b634e487b7160e01b5f52601160045260245ffd5b7fddf252ad1be2c89b69c2b068fc378daa952ba7f163c4a11628f55a4df523b3ef60205f9261016085855461010f565b845560018060a01b031693848452600182526040842061018182825461010f565b9055604051908152a356fe60806040526004361015610011575f80fd5b5f3560e01c8063095ea7b3146104765780631544f4841461043257806318160ddd1461041657806323b872dd1461031a57806327e235e3146102835780632e0f2625146102ff57806355b6ed5c146101285780635e4807f2146102bb57806370a082311461028357806396a0cc811461023f578063a3f4df7e146101e3578063a9059cbb146101b2578063bf333f2c14610178578063dd62ed3e146101285763f76f8d78146100be575f80fd5b34610124575f36600319011261012457604051604081019080821067ffffffffffffffff8311176101105761010c9160405260038152620a882b60eb1b60208201526040519182918261051b565b0390f35b634e487b7160e01b5f52604160045260245ffd5b5f80fd5b34610124576040366003190112610124576101416104ef565b610149610505565b6001600160a01b039182165f908152600260209081526040808320949093168252928352819020549051908152f35b34610124575f3660031901126101245760206040517f00000000000000000000000000000000000000000000000000000000000000008152f35b34610124576040366003190112610124576101d86101ce6104ef565b6024359033610573565b602060405160018152f35b34610124575f36600319011261012457604051604081019080821067ffffffffffffffff8311176101105761010c9160405260118152702a30bc32b21029ba30b5b2902a37b5b2b760791b60208201526040519182918261051b565b34610124575f366003190112610124576040517f00000000000000000000000000000000000000000000000000000000000000006001600160a01b03168152602090f35b34610124576020366003190112610124576001600160a01b036102a46104ef565b165f526001602052602060405f2054604051908152f35b34610124575f366003190112610124576040517f00000000000000000000000000000000000000000000000000000000000000006001600160a01b03168152602090f35b34610124575f36600319011261012457602060405160128152f35b34610124576060366003190112610124576103336104ef565b61033b610505565b6001600160a01b0382165f8181526002602090815260408083203384529091529020549260443592918385106103db576101d8948460018201610381575b505050610573565b61038a91610545565b5f8281526002602090815260408083203380855290835292819020849055519283529092917f8c5be1e5ebec7d5bd14f71427d1e84f3dd0314c0f7b2291e5b200ac8c7c3b9259190a3848084610379565b60405162461bcd60e51b8152602060048201526013602482015272185b1b1bddd85b98d9481d1bdbc81cdb585b1b606a1b6044820152606490fd5b34610124575f3660031901126101245760205f54604051908152f35b34610124575f366003190112610124576040517f00000000000000000000000000000000000000000000000000000000000000006001600160a01b03168152602090f35b346101245760403660031901126101245761048f6104ef565b335f8181526002602090815260408083206001600160a01b03909516808452948252918290206024359081905591519182527f8c5be1e5ebec7d5bd14f71427d1e84f3dd0314c0f7b2291e5b200ac8c7c3b92591a3602060405160018152f35b600435906001600160a01b038216820361012457565b602435906001600160a01b038216820361012457565b602060409281835280519182918282860152018484015e5f828201840152601f01601f1916010190565b9190820391821161055257565b634e487b7160e01b5f52601160045260245ffd5b9190820180921161055257565b9060018060a01b03821691825f5260016020528360405f205410610682577fddf252ad1be2c89b69c2b068fc378daa952ba7f163c4a11628f55a4df523b3ef60206105e26105db87868896875f526001865260405f206105d4848254610545565b90556106bb565b8097610545565b9360018060a01b031693845f526001825260405f20610602828254610566565b9055604051908152a381610614575050565b7fddf252ad1be2c89b69c2b068fc378daa952ba7f163c4a11628f55a4df523b3ef602060018060a01b037f00000000000000000000000000000000000000000000000000000000000000001693845f526001825260405f20610677828254610566565b9055604051908152a3565b60405162461bcd60e51b815260206004820152601160248201527018985b185b98d9481d1bdbc81cdb585b1b607a1b6044820152606490fd5b7f00000000000000000000000000000000000000000000000000000000000000006001600160a01b039081169116149081610735575b506106fb57505f90565b7f00000000000000000000000000000000000000000000000000000000000000009081810291818304149015171561055257612710900490565b7f00000000000000000000000000000000000000000000000000000000000000006001600160a01b0390811691161490505f6106f156fea26469706673582212205fb9222cddf86c4f745f14081fb5930718a4b1cc35db3a2798b21a5cadd1389264736f6c634300081e0033","linkReferences":{}},"methodIdentifiers":{"BURN_SINK()":"5e4807f2","DECIMALS()":"2e0f2625","FEE_BPS()":"bf333f2c","NAME()":"a3f4df7e","SYMBOL()":"f76f8d78","TAXED_RECIPIENT()":"1544f484","TAXED_SENDER()":"96a0cc81","allowance(address,address)":"dd62ed3e","allowances(address,address)":"55b6ed5c","approve(address,uint256)":"095ea7b3","balanceOf(address)":"70a08231","balances(address)":"27e235e3","totalSupply()":"18160ddd","transfer(address,uint256)":"a9059cbb","transferFrom(address,address,uint256)":"23b872dd"},"id":0}