{"abi":[{"type":"constructor","inputs":[],"stateMutability":"nonpayable"},{"type":"function","name":"EXPLOIT_PATH_USED","inputs":[],"outputs":[{"name":"","type":"string","internalType":"string"}],"stateMutability":"view"},{"type":"function","name":"TARGET","inputs":[],"outputs":[{"name":"","type":"address","internalType":"address"}],"stateMutability":"view"},{"type":"function","name":"attackNetReceivedByPool","inputs":[],"outputs":[{"name":"","type":"uint256","internalType":"uint256"}],"stateMutability":"view"},{"type":"function","name":"attackRequestedAmount","inputs":[],"outputs":[{"name":"","type":"uint256","internalType":"uint256"}],"stateMutability":"view"},{"type":"function","name":"attackerPoolBalanceAfterAttackDeposit","inputs":[],"outputs":[{"name":"","type":"uint256","internalType":"uint256"}],"stateMutability":"view"},{"type":"function","name":"attackerPoolBalanceBefore","inputs":[],"outputs":[{"name":"","type":"uint256","internalType":"uint256"}],"stateMutability":"view"},{"type":"function","name":"attackerWalletAfterAttackDeposit","inputs":[],"outputs":[{"name":"","type":"uint256","internalType":"uint256"}],"stateMutability":"view"},{"type":"function","name":"attackerWalletAfterWithdraw","inputs":[],"outputs":[{"name":"","type":"uint256","internalType":"uint256"}],"stateMutability":"view"},{"type":"function","name":"attackerWalletBefore","inputs":[],"outputs":[{"name":"","type":"uint256","internalType":"uint256"}],"stateMutability":"view"},{"type":"function","name":"execute","inputs":[],"outputs":[],"stateMutability":"nonpayable"},{"type":"function","name":"executed","inputs":[],"outputs":[{"name":"","type":"bool","internalType":"bool"}],"stateMutability":"view"},{"type":"function","name":"exploit","inputs":[],"outputs":[],"stateMutability":"nonpayable"},{"type":"function","name":"exploitToken","inputs":[],"outputs":[{"name":"","type":"address","internalType":"address"}],"stateMutability":"view"},{"type":"function","name":"failureReason","inputs":[],"outputs":[{"name":"","type":"string","internalType":"string"}],"stateMutability":"view"},{"type":"function","name":"hypothesisValidated","inputs":[],"outputs":[{"name":"","type":"bool","internalType":"bool"}],"stateMutability":"view"},{"type":"function","name":"laterDepositor","inputs":[],"outputs":[{"name":"","type":"address","internalType":"address"}],"stateMutability":"view"},{"type":"function","name":"poolBalanceAfterLaterDeposit","inputs":[],"outputs":[{"name":"","type":"uint256","internalType":"uint256"}],"stateMutability":"view"},{"type":"function","name":"poolBalanceAfterWithdraw","inputs":[],"outputs":[{"name":"","type":"uint256","internalType":"uint256"}],"stateMutability":"view"},{"type":"function","name":"poolTokensSpentOnWithdraw","inputs":[],"outputs":[{"name":"","type":"uint256","internalType":"uint256"}],"stateMutability":"view"},{"type":"function","name":"profitAchieved","inputs":[],"outputs":[{"name":"","type":"bool","internalType":"bool"}],"stateMutability":"view"},{"type":"function","name":"profitAmount","inputs":[],"outputs":[{"name":"","type":"uint256","internalType":"uint256"}],"stateMutability":"view"},{"type":"function","name":"profitToken","inputs":[],"outputs":[{"name":"","type":"address","internalType":"address"}],"stateMutability":"view"},{"type":"function","name":"recordedStakeAfterAttackDeposit","inputs":[],"outputs":[{"name":"","type":"uint256","internalType":"uint256"}],"stateMutability":"view"},{"type":"function","name":"recordedStakeBefore","inputs":[],"outputs":[{"name":"","type":"uint256","internalType":"uint256"}],"stateMutability":"view"},{"type":"function","name":"recordedStakeWithdrawn","inputs":[],"outputs":[{"name":"","type":"uint256","internalType":"uint256"}],"stateMutability":"view"},{"type":"function","name":"run","inputs":[],"outputs":[],"stateMutability":"nonpayable"},{"type":"function","name":"verify","inputs":[],"outputs":[],"stateMutability":"nonpayable"}],"bytecode":{"object":"0x60808060405234601557611e62908161001a8239f35b5f80fdfe6080806040526004361015610012575f80fd5b5f3560e01c9081630ae6407014610649575080630af5e692146104ab5780631493e8551461048e5780631601d1181461047157806327cf9b1f146104545780632a8a53f11461042c5780632d95c2401461040f57806331a38c89146103ed57806332eb9da2146103d0578063463defd1146103ab57806349343624146103845780634f9522a4146102aa578063580752ad1461028d5780635ff972cc14610270578063614619541461014557806363d9b77014610145578063847fe8fd146102485780639eb5d0df1461022b5780639fcabbdd1461020e578063b825a3e6146101f1578063be428fe7146101d4578063c040622614610145578063c5b4e69c146101b7578063cc1f2afa14610190578063f0a011761461016b578063fbf162a51461014a5763fc735e9914610145575f80fd5b6106fb565b34610167575f366003190112610167576020600654604051908152f35b5f80fd5b34610167575f36600319011261016757602060ff60025460101c166040519015158152f35b34610167575f3660031901126101675760206040515f516020611e0d5f395f51905f528152f35b34610167575f366003190112610167576020600f54604051908152f35b34610167575f366003190112610167576020601254604051908152f35b34610167575f366003190112610167576020600854604051908152f35b34610167575f366003190112610167576020600c54604051908152f35b34610167575f366003190112610167576020600d54604051908152f35b34610167575f366003190112610167576005546040516001600160a01b039091168152602090f35b34610167575f366003190112610167576020600154604051908152f35b34610167575f366003190112610167576020600b54604051908152f35b34610167575f366003190112610167576040515f6003546102ca816106c3565b80845290600181169081156103605750600114610302575b6102fe836102f281850382610663565b60405191829182610699565b0390f35b91905060035f527fc2575a0e9e593c00f959f8c92f12db2869c3395a3b0502d05e2516446f71f85b915f905b808210610346575090915081016020016102f26102e2565b91926001816020925483858801015201910190929161032e565b60ff191660208086019190915291151560051b840190910191506102f290506102e2565b34610167575f366003190112610167575f546040516001600160a01b039091168152602090f35b34610167575f36600319011261016757602060ff60025460081c166040519015158152f35b34610167575f366003190112610167576020600754604051908152f35b34610167575f36600319011261016757602060ff600254166040519015158152f35b34610167575f366003190112610167576020601054604051908152f35b34610167575f366003190112610167576004546040516001600160a01b039091168152602090f35b34610167575f366003190112610167576020600954604051908152f35b34610167575f366003190112610167576020600a54604051908152f35b34610167575f366003190112610167576020601154604051908152f35b34610167575f366003190112610167576102fe6101606104ce6040519182610663565b61012881527f5573652061206e6f6e2d737461626c6520746f6b656e2074686174207472616e60208201527f7366657273206f6e6c7920616d6f756e74202d2066656520746f20746865207360408201527f74616b696e6720636f6e7472616374202d3e2063616c6c206465706f7369742860608201527f746f6b656e2c20616d6f756e742c2072656665727265722920736f207374616b60808201527f696e672063726564697473207468652066756c6c20726571756573746564206160a08201527f6d6f756e7420696e7374656164206f6620746865206e6574207265636569766560c08201527f6420616d6f756e74202d3e206c6174657220776974686472617720746865206660e08201527f756c6c207265636f726465642062616c616e63652c20636f6e73756d696e67206101008201527f6c697175696469747920737570706c6965642062792061206c61746572206465610120820152673837b9b4ba37b91760c11b61014082015260405191829182610699565b34610167575f36600319011261016757602090600e548152f35b90601f8019910116810190811067ffffffffffffffff82111761068557604052565b634e487b7160e01b5f52604160045260245ffd5b602060409281835280519182918282860152018484015e5f828201840152601f01601f1916010190565b90600182811c921680156106f1575b60208310146106dd57565b634e487b7160e01b5f52602260045260245ffd5b91607f16916106d2565b34610167575f5f6003193601126101675760025460ff81166110f55760ff19166001176002555f516020611e0d5f395f51905f523b156110ba5760405161029f80820182811067ffffffffffffffff82111761068557829161123f833903905ff0801561101957600580546001600160a01b0319166001600160a01b0392909216918217905560405161092f8082019067ffffffffffffffff8211838310176106855760c09183916114de83393081528460208201525f516020611e0d5f395f51905f52604082015269d3c21bcecceda1000000606082015269d3c21bcecceda100000060808201526103e860a08201520301905ff080156110195760018060a01b031690816bffffffffffffffffffffffff60a01b60045416176004556040516370a0823160e01b8152306004820152602081602481865afa908115611019575f91611088575b50600d556040516370a0823160e01b81525f516020611e0d5f395f51905f526004820152602081602481865afa908115611019575f91611056575b50600955604051633de222bb60e21b81523060048201526001600160a01b03831660248201526020816044815f516020611e0d5f395f51905f525afa908115611019575f91611024575b5060065569d3c21bcecceda100000060105561091b60405163095ea7b360e01b60208201525f516020611e0d5f395f51905f5260248201525f604482015260448152610915606482610663565b8361114e565b61096060405163095ea7b360e01b60208201525f516020611e0d5f395f51905f52602482015269d3c21bcecceda1000000604482015260448152610915606482610663565b6010545f516020611e0d5f395f51905f523b156101675760405190633d14d1b760e21b825283600483015260248201525f60448201525f81606481835f516020611e0d5f395f51905f525af1801561101957611004575b506040516370a0823160e01b8152306004820152602081602481865afa908115610fc7578491610fd2575b50600e556040516370a0823160e01b81525f516020611e0d5f395f51905f526004820152602081602481865afa908115610fc7578491610f95575b50600a819055604051633de222bb60e21b81523060048201526001600160a01b0384166024820152906020826044815f516020611e0d5f395f51905f525afa918215610f8a578592610f54575b50610a7f610a8d91836007556009549061112d565b91826011556006549061112d565b9081600855601054809203610f01571015610eac57829061010061ff00196002541617600255803b15610e5657818091606460405180948193638ca5744160e01b83525f516020611e0d5f395f51905f52600484015288602484015269d3c21bcecceda100000060448401525af18015610e5a57610e97575b50506040516370a0823160e01b81525f516020611e0d5f395f51905f526004820152602081602481855afa908115610e04578391610e65575b50600b55816008545f516020611e0d5f395f51905f523b15610e56576040519063f3fef3a360e01b825283600483015260248201528181604481835f516020611e0d5f395f51905f525af18015610e5a57610e41575b50506040516370a0823160e01b8152306004820152602081602481855afa908115610e04578391610e0f575b50600f556040516370a0823160e01b81525f516020611e0d5f395f51905f526004820152602081602481855afa908115610e04578391610dd2575b5080600c55600b5490808210610d8157610c159161112d565b806012556008548103610d2c57601154610c2e9161112d565b8060015515610cd65781546001600160a01b0319161781556002805462ff0000191662010000179055600354610c63906106c3565b601f8111610c74575b508060035580f35b601f0160051c7fc2575a0e9e593c00f959f8c92f12db2869c3395a3b0502d05e2516446f71f85b017fc2575a0e9e593c00f959f8c92f12db2869c3395a3b0502d05e2516446f71f85b5b818110610ccb5750610c6c565b828155600101610cbe565b60405162461bcd60e51b815260206004820152602860248201527f776974686472617720646964206e6f7420636f6e73756d65206c61746572206c604482015267697175696469747960c01b6064820152608490fd5b60405162461bcd60e51b815260206004820152602760248201527f706f6f6c20646964206e6f74207370656e642066756c6c20637265646974656460448201526608185b5bdd5b9d60ca1b6064820152608490fd5b60405162461bcd60e51b8152602060048201526024808201527f776974686472617720646964206e6f742072656475636520706f6f6c2062616c604482015263616e636560e01b6064820152608490fd5b90506020813d602011610dfc575b81610ded60209383610663565b8101031261016757515f610bfc565b3d9150610de0565b6040513d85823e3d90fd5b90506020813d602011610e39575b81610e2a60209383610663565b8101031261016757515f610bc1565b3d9150610e1d565b81610e4b91610663565b610e5657815f610b95565b5080fd5b6040513d84823e3d90fd5b90506020813d602011610e8f575b81610e8060209383610663565b8101031261016757515f610b3f565b3d9150610e73565b81610ea191610663565b610e5657815f610b06565b60405162461bcd60e51b815260206004820152602760248201527f746f6b656e20646964206e6f742073686f72742d7472616e7366657220746f206044820152667374616b696e6760c81b6064820152608490fd5b60405162461bcd60e51b815260206004820152602560248201527f6465706f736974206e6f74206f7665722d6372656469746564206173206578706044820152641958dd195960da1b6064820152608490fd5b9091506020813d602011610f82575b81610f7060209383610663565b81010312610167575190610a7f610a6a565b3d9150610f63565b6040513d87823e3d90fd5b90506020813d602011610fbf575b81610fb060209383610663565b8101031261016757515f610a1d565b3d9150610fa3565b6040513d86823e3d90fd5b90506020813d602011610ffc575b81610fed60209383610663565b8101031261016757515f6109e2565b3d9150610fe0565b6110119193505f90610663565b5f915f6109b7565b6040513d5f823e3d90fd5b90506020813d60201161104e575b8161103f60209383610663565b8101031261016757515f6108c8565b3d9150611032565b90506020813d602011611080575b8161107160209383610663565b8101031261016757515f61087e565b3d9150611064565b90506020813d6020116110b2575b816110a360209383610663565b8101031261016757515f610843565b3d9150611096565b60405162461bcd60e51b81526020600482015260136024820152721d185c99d95d081b9bdd0819195c1b1bde5959606a1b6044820152606490fd5b60405162461bcd60e51b815260206004820152601060248201526f185b1c9958591e48195e1958dd5d195960821b6044820152606490fd5b9190820391821161113a57565b634e487b7160e01b5f52601160045260245ffd5b5f91829182602083519301915af13d15611236573d9067ffffffffffffffff8211610685576040519161118b601f8201601f191660200184610663565b82523d5f602084013e5b156111fd578051806111a5575050565b81602091810103126101675760200151801590811503610167576111c557565b60405162461bcd60e51b815260206004820152601060248201526f746f6b656e2063616c6c2066616c736560801b6044820152606490fd5b60405162461bcd60e51b81526020600482015260116024820152701d1bdad95b8818d85b1b0819985a5b1959607a1b6044820152606490fd5b60609061119556fe60808060405234601557610285908161001a8239f35b5f80fdfe6080806040526004361015610012575f80fd5b5f905f3560e01c638ca5744114610027575f80fd5b34610125576060366003190112610125576004356001600160a01b0381169190829003610125576024356001600160a01b0381169190828103610125576100ce9061009d6044359363095ea7b360e01b60208201528660248201525f604482015260448152610097606482610129565b8261015f565b6040519063095ea7b360e01b6020830152856024830152836044830152604482526100c9606483610129565b61015f565b823b156101255760645f92836040519586948593633d14d1b760e21b8552600485015260248401528160448401525af1801561011a5761010c575080f35b61011891505f90610129565b005b6040513d5f823e3d90fd5b5f80fd5b90601f8019910116810190811067ffffffffffffffff82111761014b57604052565b634e487b7160e01b5f52604160045260245ffd5b5f91829182602083519301915af13d15610247573d9067ffffffffffffffff821161014b576040519161019c601f8201601f191660200184610129565b82523d5f602084013e5b1561020e578051806101b6575050565b81602091810103126101255760200151801590811503610125576101d657565b60405162461bcd60e51b815260206004820152601060248201526f746f6b656e2063616c6c2066616c736560801b6044820152606490fd5b60405162461bcd60e51b81526020600482015260116024820152701d1bdad95b8818d85b1b0819985a5b1959607a1b6044820152606490fd5b6060906101a656fea26469706673582212206f76df308fbe1ad827630928b6edfa0d914a13a31879eaf5eb472e2be2e524c164736f6c634300081e0033610100346100e357601f61092f38819003918201601f19168301916001600160401b038311848410176100e75780849260c0946040528339810103126100e3578061004c610094926100fb565b61008f61005b602084016100fb565b91610068604085016100fb565b9060608501519160a06080870151960151908260a05260c05261dead60e052608052610130565b610130565b6040516107a2908161018d823960805181818161018f01526106fd015260a05181818161025401526106bd015260c0518181816104470152610737015260e0518181816102d001526106400152f35b5f80fd5b634e487b7160e01b5f52604160045260245ffd5b51906001600160a01b03821682036100e357565b9190820180921161011c57565b634e487b7160e01b5f52601160045260245ffd5b7fddf252ad1be2c89b69c2b068fc378daa952ba7f163c4a11628f55a4df523b3ef60205f9261016085855461010f565b845560018060a01b031693848452600182526040842061018182825461010f565b9055604051908152a356fe60806040526004361015610011575f80fd5b5f3560e01c8063095ea7b3146104765780631544f4841461043257806318160ddd1461041657806323b872dd1461031a57806327e235e3146102835780632e0f2625146102ff57806355b6ed5c146101285780635e4807f2146102bb57806370a082311461028357806396a0cc811461023f578063a3f4df7e146101e3578063a9059cbb146101b2578063bf333f2c14610178578063dd62ed3e146101285763f76f8d78146100be575f80fd5b34610124575f36600319011261012457604051604081019080821067ffffffffffffffff8311176101105761010c9160405260038152620a882b60eb1b60208201526040519182918261051b565b0390f35b634e487b7160e01b5f52604160045260245ffd5b5f80fd5b34610124576040366003190112610124576101416104ef565b610149610505565b6001600160a01b039182165f908152600260209081526040808320949093168252928352819020549051908152f35b34610124575f3660031901126101245760206040517f00000000000000000000000000000000000000000000000000000000000000008152f35b34610124576040366003190112610124576101d86101ce6104ef565b6024359033610573565b602060405160018152f35b34610124575f36600319011261012457604051604081019080821067ffffffffffffffff8311176101105761010c9160405260118152702a30bc32b21029ba30b5b2902a37b5b2b760791b60208201526040519182918261051b565b34610124575f366003190112610124576040517f00000000000000000000000000000000000000000000000000000000000000006001600160a01b03168152602090f35b34610124576020366003190112610124576001600160a01b036102a46104ef565b165f526001602052602060405f2054604051908152f35b34610124575f366003190112610124576040517f00000000000000000000000000000000000000000000000000000000000000006001600160a01b03168152602090f35b34610124575f36600319011261012457602060405160128152f35b34610124576060366003190112610124576103336104ef565b61033b610505565b6001600160a01b0382165f8181526002602090815260408083203384529091529020549260443592918385106103db576101d8948460018201610381575b505050610573565b61038a91610545565b5f8281526002602090815260408083203380855290835292819020849055519283529092917f8c5be1e5ebec7d5bd14f71427d1e84f3dd0314c0f7b2291e5b200ac8c7c3b9259190a3848084610379565b60405162461bcd60e51b8152602060048201526013602482015272185b1b1bddd85b98d9481d1bdbc81cdb585b1b606a1b6044820152606490fd5b34610124575f3660031901126101245760205f54604051908152f35b34610124575f366003190112610124576040517f00000000000000000000000000000000000000000000000000000000000000006001600160a01b03168152602090f35b346101245760403660031901126101245761048f6104ef565b335f8181526002602090815260408083206001600160a01b03909516808452948252918290206024359081905591519182527f8c5be1e5ebec7d5bd14f71427d1e84f3dd0314c0f7b2291e5b200ac8c7c3b92591a3602060405160018152f35b600435906001600160a01b038216820361012457565b602435906001600160a01b038216820361012457565b602060409281835280519182918282860152018484015e5f828201840152601f01601f1916010190565b9190820391821161055257565b634e487b7160e01b5f52601160045260245ffd5b9190820180921161055257565b9060018060a01b03821691825f5260016020528360405f205410610682577fddf252ad1be2c89b69c2b068fc378daa952ba7f163c4a11628f55a4df523b3ef60206105e26105db87868896875f526001865260405f206105d4848254610545565b90556106bb565b8097610545565b9360018060a01b031693845f526001825260405f20610602828254610566565b9055604051908152a381610614575050565b7fddf252ad1be2c89b69c2b068fc378daa952ba7f163c4a11628f55a4df523b3ef602060018060a01b037f00000000000000000000000000000000000000000000000000000000000000001693845f526001825260405f20610677828254610566565b9055604051908152a3565b60405162461bcd60e51b815260206004820152601160248201527018985b185b98d9481d1bdbc81cdb585b1b607a1b6044820152606490fd5b7f00000000000000000000000000000000000000000000000000000000000000006001600160a01b039081169116149081610735575b506106fb57505f90565b7f00000000000000000000000000000000000000000000000000000000000000009081810291818304149015171561055257612710900490565b7f00000000000000000000000000000000000000000000000000000000000000006001600160a01b0390811691161490505f6106f156fea26469706673582212205fb9222cddf86c4f745f14081fb5930718a4b1cc35db3a2798b21a5cadd1389264736f6c634300081e0033000000000000000000000000245a551ee0f55005e510b239c917fa34b41b3461a2646970667358221220e929a700120376bfccc43f5668702503061095394f09ed3213642e1ec5b6ef3264736f6c634300081e0033","linkReferences":{}},"methodIdentifiers":{"EXPLOIT_PATH_USED()":"0af5e692","TARGET()":"cc1f2afa","attackNetReceivedByPool()":"1493e855","attackRequestedAmount()":"2d95c240","attackerPoolBalanceAfterAttackDeposit()":"1601d118","attackerPoolBalanceBefore()":"27cf9b1f","attackerWalletAfterAttackDeposit()":"0ae64070","attackerWalletAfterWithdraw()":"c5b4e69c","attackerWalletBefore()":"9eb5d0df","execute()":"61461954","executed()":"31a38c89","exploit()":"63d9b770","exploitToken()":"2a8a53f1","failureReason()":"4f9522a4","hypothesisValidated()":"463defd1","laterDepositor()":"847fe8fd","poolBalanceAfterLaterDeposit()":"580752ad","poolBalanceAfterWithdraw()":"9fcabbdd","poolTokensSpentOnWithdraw()":"be428fe7","profitAchieved()":"f0a01176","profitAmount()":"5ff972cc","profitToken()":"49343624","recordedStakeAfterAttackDeposit()":"32eb9da2","recordedStakeBefore()":"fbf162a5","recordedStakeWithdrawn()":"b825a3e6","run()":"c0406226","verify()":"fc735e99"},"id":0}