{"abi":[{"type":"function","name":"seed","inputs":[{"name":"staking","type":"address","internalType":"address"},{"name":"token","type":"address","internalType":"address"},{"name":"amount","type":"uint256","internalType":"uint256"}],"outputs":[],"stateMutability":"nonpayable"}],"bytecode":{"object":"0x60808060405234601557610285908161001a8239f35b5f80fdfe6080806040526004361015610012575f80fd5b5f905f3560e01c638ca5744114610027575f80fd5b34610125576060366003190112610125576004356001600160a01b0381169190829003610125576024356001600160a01b0381169190828103610125576100ce9061009d6044359363095ea7b360e01b60208201528660248201525f604482015260448152610097606482610129565b8261015f565b6040519063095ea7b360e01b6020830152856024830152836044830152604482526100c9606483610129565b61015f565b823b156101255760645f92836040519586948593633d14d1b760e21b8552600485015260248401528160448401525af1801561011a5761010c575080f35b61011891505f90610129565b005b6040513d5f823e3d90fd5b5f80fd5b90601f8019910116810190811067ffffffffffffffff82111761014b57604052565b634e487b7160e01b5f52604160045260245ffd5b5f91829182602083519301915af13d15610247573d9067ffffffffffffffff821161014b576040519161019c601f8201601f191660200184610129565b82523d5f602084013e5b1561020e578051806101b6575050565b81602091810103126101255760200151801590811503610125576101d657565b60405162461bcd60e51b815260206004820152601060248201526f746f6b656e2063616c6c2066616c736560801b6044820152606490fd5b60405162461bcd60e51b81526020600482015260116024820152701d1bdad95b8818d85b1b0819985a5b1959607a1b6044820152606490fd5b6060906101a656fea26469706673582212206f76df308fbe1ad827630928b6edfa0d914a13a31879eaf5eb472e2be2e524c164736f6c634300081e0033","linkReferences":{}},"methodIdentifiers":{"seed(address,address,uint256)":"8ca57441"},"id":0}