{"abi":[{"type":"constructor","inputs":[],"stateMutability":"nonpayable"},{"type":"function","name":"TARGET","inputs":[],"outputs":[{"name":"","type":"address","internalType":"address"}],"stateMutability":"view"},{"type":"function","name":"directSelfPathAttempted","inputs":[],"outputs":[{"name":"","type":"bool","internalType":"bool"}],"stateMutability":"view"},{"type":"function","name":"directSelfPathFeasible","inputs":[],"outputs":[{"name":"","type":"bool","internalType":"bool"}],"stateMutability":"view"},{"type":"function","name":"duplicatePathValidated","inputs":[],"outputs":[{"name":"","type":"bool","internalType":"bool"}],"stateMutability":"view"},{"type":"function","name":"executeOnOpportunity","inputs":[],"outputs":[],"stateMutability":"nonpayable"},{"type":"function","name":"failure","inputs":[],"outputs":[{"name":"","type":"bytes32","internalType":"bytes32"}],"stateMutability":"view"},{"type":"function","name":"finalEconomicBalance","inputs":[],"outputs":[{"name":"","type":"uint256","internalType":"uint256"}],"stateMutability":"view"},{"type":"function","name":"firstClaimIncrease","inputs":[],"outputs":[{"name":"","type":"uint256","internalType":"uint256"}],"stateMutability":"view"},{"type":"function","name":"fundedBlock","inputs":[],"outputs":[{"name":"","type":"uint256","internalType":"uint256"}],"stateMutability":"view"},{"type":"function","name":"fundingAmount","inputs":[],"outputs":[{"name":"","type":"uint256","internalType":"uint256"}],"stateMutability":"view"},{"type":"function","name":"initialEconomicBalance","inputs":[],"outputs":[{"name":"","type":"uint256","internalType":"uint256"}],"stateMutability":"view"},{"type":"function","name":"orderingFailure","inputs":[],"outputs":[{"name":"","type":"bytes32","internalType":"bytes32"}],"stateMutability":"view"},{"type":"function","name":"orderingPathValidated","inputs":[],"outputs":[{"name":"","type":"bool","internalType":"bool"}],"stateMutability":"view"},{"type":"function","name":"primaryProvider","inputs":[],"outputs":[{"name":"","type":"address","internalType":"address"}],"stateMutability":"view"},{"type":"function","name":"primaryStakeAtAfterFirst","inputs":[],"outputs":[{"name":"","type":"uint256","internalType":"uint256"}],"stateMutability":"view"},{"type":"function","name":"primaryStakeAtAfterSecond","inputs":[],"outputs":[{"name":"","type":"uint256","internalType":"uint256"}],"stateMutability":"view"},{"type":"function","name":"primaryStakeAtBefore","inputs":[],"outputs":[{"name":"","type":"uint256","internalType":"uint256"}],"stateMutability":"view"},{"type":"function","name":"profitAmount","inputs":[],"outputs":[{"name":"","type":"uint256","internalType":"uint256"}],"stateMutability":"view"},{"type":"function","name":"profitToken","inputs":[],"outputs":[{"name":"","type":"address","internalType":"address"}],"stateMutability":"view"},{"type":"function","name":"secondClaimIncrease","inputs":[],"outputs":[{"name":"","type":"uint256","internalType":"uint256"}],"stateMutability":"view"},{"type":"function","name":"secondaryActualIncrease","inputs":[],"outputs":[{"name":"","type":"uint256","internalType":"uint256"}],"stateMutability":"view"},{"type":"function","name":"secondaryExpectedAfter","inputs":[],"outputs":[{"name":"","type":"uint256","internalType":"uint256"}],"stateMutability":"view"},{"type":"function","name":"secondaryExpectedBefore","inputs":[],"outputs":[{"name":"","type":"uint256","internalType":"uint256"}],"stateMutability":"view"},{"type":"function","name":"secondaryProvider","inputs":[],"outputs":[{"name":"","type":"address","internalType":"address"}],"stateMutability":"view"},{"type":"function","name":"snapshotTotalAfterFirst","inputs":[],"outputs":[{"name":"","type":"uint256","internalType":"uint256"}],"stateMutability":"view"},{"type":"function","name":"snapshotTotalAfterSecond","inputs":[],"outputs":[{"name":"","type":"uint256","internalType":"uint256"}],"stateMutability":"view"},{"type":"function","name":"snapshotTotalBefore","inputs":[],"outputs":[{"name":"","type":"uint256","internalType":"uint256"}],"stateMutability":"view"},{"type":"function","name":"usedExistingProviderFallback","inputs":[],"outputs":[{"name":"","type":"bool","internalType":"bool"}],"stateMutability":"view"},{"type":"function","name":"usedExistingRoundFunding","inputs":[],"outputs":[{"name":"","type":"bool","internalType":"bool"}],"stateMutability":"view"}],"bytecode":{"object":"0x6080604052348015600e575f5ffd5b506154ba8061001c5f395ff3fe608060405234801561000f575f5ffd5b50600436106101cd575f3560e01c806363934e3711610102578063abf7f2cb116100a0578063cc1f2afa1161006f578063cc1f2afa146104ab578063ee24b0fa146104c9578063f0ef549b146104e7578063f847361514610505576101cd565b8063abf7f2cb14610433578063b21ad1d714610451578063bcb682641461046f578063c0627e3c1461048d576101cd565b80638381c59f116100dc5780638381c59f146103bb5780638981431b146103d957806391cfbcce146103f757806393e60d2214610415576101cd565b806363934e371461036157806376ffb8871461037f57806378a49f5f1461039d576101cd565b8063493436241161016f578063547350141161014957806354735014146102e95780635f709651146103075780635ff972cc1461032557806360f47d5f14610343576101cd565b8063493436241461028f5780634e97c9fe146102ad57806352ab57eb146102cb576101cd565b806322e70c20116101ab57806322e70c201461022b57806328b86542146102495780632c279468146102675780633c2448ed14610285576101cd565b806304a79c97146101d15780630be9d598146101ef578063103b604d1461020d575b5f5ffd5b6101d9610523565b6040516101e69190614a6b565b60405180910390f35b6101f7610529565b6040516102049190614a9e565b60405180910390f35b61021561053b565b6040516102229190614a6b565b60405180910390f35b610233610541565b6040516102409190614a6b565b60405180910390f35b610251610547565b60405161025e9190614a6b565b60405180910390f35b61026f61054d565b60405161027c9190614a9e565b60405180910390f35b61028d610560565b005b610297610fbd565b6040516102a49190614af6565b60405180910390f35b6102b5610fe4565b6040516102c29190614a6b565b60405180910390f35b6102d3610fea565b6040516102e09190614a9e565b60405180910390f35b6102f1610ffd565b6040516102fe9190614af6565b60405180910390f35b61030f611023565b60405161031c9190614a9e565b60405180910390f35b61032d611036565b60405161033a9190614a6b565b60405180910390f35b61034b61103f565b6040516103589190614a6b565b60405180910390f35b610369611045565b6040516103769190614af6565b60405180910390f35b61038761106a565b6040516103949190614b27565b60405180910390f35b6103a5611070565b6040516103b29190614a6b565b60405180910390f35b6103c3611076565b6040516103d09190614a9e565b60405180910390f35b6103e1611089565b6040516103ee9190614a9e565b60405180910390f35b6103ff61109a565b60405161040c9190614a6b565b60405180910390f35b61041d6110a0565b60405161042a9190614b27565b60405180910390f35b61043b6110a6565b6040516104489190614a6b565b60405180910390f35b6104596110ac565b6040516104669190614a6b565b60405180910390f35b6104776110b2565b6040516104849190614a6b565b60405180910390f35b6104956110b8565b6040516104a29190614a6b565b60405180910390f35b6104b36110be565b6040516104c09190614af6565b60405180910390f35b6104d16110d6565b6040516104de9190614a6b565b60405180910390f35b6104ef6110dc565b6040516104fc9190614a6b565b60405180910390f35b61050d6110e2565b60405161051a9190614a6b565b60405180910390f35b60055481565b60025f9054906101000a900460ff1681565b600f5481565b60125481565b60085481565b600260049054906101000a900460ff1681565b6105686110e8565b5f734deca517d6817b6510798b7328f2314d3003abac90505f8173ffffffffffffffffffffffffffffffffffffffff1663d16543f66040518163ffffffff1660e01b8152600401602060405180830381865afa1580156105ca573d5f5f3e3d5ffd5b505050506040513d601f19601f820116820180604052508101906105ee9190614b7b565b90505f8273ffffffffffffffffffffffffffffffffffffffff16630e9ed68b6040518163ffffffff1660e01b8152600401602060405180830381865afa15801561063a573d5f5f3e3d5ffd5b505050506040513d601f19601f8201168201806040525081019061065e9190614b7b565b90505f8373ffffffffffffffffffffffffffffffffffffffff16622ae74a6040518163ffffffff1660e01b8152600401602060405180830381865afa1580156106a9573d5f5f3e3d5ffd5b505050506040513d601f19601f820116820180604052508101906106cd9190614b7b565b90505f73ffffffffffffffffffffffffffffffffffffffff168373ffffffffffffffffffffffffffffffffffffffff160361074e576040518060400160405280601681526020017f44454c45474154455f4d414e414745525f554e534554000000000000000000008152508051906020012060138190555050505050610fbb565b5f73ffffffffffffffffffffffffffffffffffffffff168273ffffffffffffffffffffffffffffffffffffffff16036107cd576040518060400160405280600d81526020017f5354414b494e475f554e534554000000000000000000000000000000000000008152508051906020012060138190555050505050610fbb565b5f73ffffffffffffffffffffffffffffffffffffffff168173ffffffffffffffffffffffffffffffffffffffff160361084c576040518060400160405280601081526020017f53505f464143544f52595f554e534554000000000000000000000000000000008152508051906020012060138190555050505050610fbb565b5f8390505f8390505f8390505f8373ffffffffffffffffffffffffffffffffffffffff1663948e54266040518163ffffffff1660e01b8152600401602060405180830381865afa1580156108a2573d5f5f3e3d5ffd5b505050506040513d601f19601f820116820180604052508101906108c69190614b7b565b90505f73ffffffffffffffffffffffffffffffffffffffff168173ffffffffffffffffffffffffffffffffffffffff160361094b576040518060400160405280601481526020017f434c41494d535f4d414e414745525f554e534554000000000000000000000000815250805190602001206013819055505050505050505050610fbb565b5f819050610958876112c6565b5f5f6101000a81548173ffffffffffffffffffffffffffffffffffffffff021916908373ffffffffffffffffffffffffffffffffffffffff1602179055505f6109c15f5f9054906101000a900473ffffffffffffffffffffffffffffffffffffffff163061133e565b90508173ffffffffffffffffffffffffffffffffffffffff1663b8a0ca0e6040518163ffffffff1660e01b81526004015f604051808303815f87803b158015610a08575f5ffd5b505af1925050508015610a19575060015b610a5057610a268361148c565b6004819055505f6004541415600260046101000a81548160ff021916908315150217905550610a60565b610a598361148c565b6004819055505b5f60045403610ac5576040518060400160405280601181526020017f524f554e445f554e415641494c41424c4500000000000000000000000000000081525080519060200120601381905550610ab68882611504565b50505050505050505050610fbb565b610ace836115f7565b6005819055505f60055403610b39576040518060400160405280601381526020017f5a45524f5f46554e44494e475f414d4f554e540000000000000000000000000081525080519060200120601381905550610b2a8882611504565b50505050505050505050610fbb565b4360045403610e0b5760016002806101000a81548160ff021916908315150217905550610b8884895f5f9054906101000a900473ffffffffffffffffffffffffffffffffffffffff163061166f565b600260036101000a81548160ff021916908315150217905550610bad84898b86611912565b5f73ffffffffffffffffffffffffffffffffffffffff16600260069054906101000a900473ffffffffffffffffffffffffffffffffffffffff1673ffffffffffffffffffffffffffffffffffffffff1603610c5e576040518060400160405280601381526020017f4e4f5f5052494d4152595f50524f56494445520000000000000000000000000081525080519060200120601381905550610c4f8882611504565b50505050505050505050610fbb565b3073ffffffffffffffffffffffffffffffffffffffff16600260069054906101000a900473ffffffffffffffffffffffffffffffffffffffff1673ffffffffffffffffffffffffffffffffffffffff1603610ccf57610cbd8830611b31565b81610cc89190614bd3565b6006819055505b610cfc8686600260069054906101000a900473ffffffffffffffffffffffffffffffffffffffff16611bb5565b610d8257610d08611f3a565b610d158487878b8d611fd7565b610d81575f5f1b60135403610d68576040518060400160405280601581526020017f4455504c49434154455f504154485f4641494c45440000000000000000000000815250805190602001206013819055505b610d728882611504565b50505050505050505050610fbb565b5b610dae868960035f9054906101000a900473ffffffffffffffffffffffffffffffffffffffff166124d0565b600260019054906101000a900460ff16610df257610df184878a8c600260069054906101000a900473ffffffffffffffffffffffffffffffffffffffff166127f6565b5b610dfc8882611504565b50505050505050505050610fbb565b6001600260046101000a81548160ff0219169083151502179055506001600260056101000a81548160ff021916908315150217905550610e4d84898b86612bd8565b5f5f73ffffffffffffffffffffffffffffffffffffffff16600260069054906101000a900473ffffffffffffffffffffffffffffffffffffffff1673ffffffffffffffffffffffffffffffffffffffff1614158015610ed55750610ed48787600260069054906101000a900473ffffffffffffffffffffffffffffffffffffffff16612f38565b5b905080610ef457610ee4611f3a565b610ef18588888c8e61318a565b90505b80610f62575f5f1b60135403610f48576040518060400160405280601281526020017f5245504c41595f504154485f4641494c45440000000000000000000000000000815250805190602001206013819055505b610f528983611504565b5050505050505050505050610fbb565b6040518060400160405280601f81526020017f4f52444552494e475f52455155495245535f46554e44494e475f424c4f434b0081525080519060200120601481905550610faf8983611504565b50505050505050505050505b565b5f5f5f9054906101000a900473ffffffffffffffffffffffffffffffffffffffff16905090565b60065481565b600260019054906101000a900460ff1681565b600260069054906101000a900473ffffffffffffffffffffffffffffffffffffffff1681565b600260059054906101000a900460ff1681565b5f600154905090565b60045481565b60035f9054906101000a900473ffffffffffffffffffffffffffffffffffffffff1681565b60135481565b60115481565b600260039054906101000a900460ff1681565b60028054906101000a900460ff1681565b600d5481565b60145481565b60075481565b600b5481565b600c5481565b60095481565b734deca517d6817b6510798b7328f2314d3003abac81565b600e5481565b60105481565b600a5481565b5f5f5f6101000a81548173ffffffffffffffffffffffffffffffffffffffff021916908373ffffffffffffffffffffffffffffffffffffffff1602179055505f6001819055505f60025f6101000a81548160ff0219169083151502179055505f600260016101000a81548160ff0219169083151502179055505f6002806101000a81548160ff0219169083151502179055505f600260036101000a81548160ff0219169083151502179055505f600260046101000a81548160ff0219169083151502179055505f600260056101000a81548160ff0219169083151502179055505f600260066101000a81548173ffffffffffffffffffffffffffffffffffffffff021916908373ffffffffffffffffffffffffffffffffffffffff1602179055505f60035f6101000a81548173ffffffffffffffffffffffffffffffffffffffff021916908373ffffffffffffffffffffffffffffffffffffffff1602179055505f6004819055505f6005819055505f6006819055505f6007819055505f6008819055505f6009819055505f600a819055505f600b819055505f600c819055505f600d819055505f600e819055505f600f819055505f6010819055505f6011819055505f6012819055505f5f1b6013819055505f5f1b601481905550565b5f8173ffffffffffffffffffffffffffffffffffffffff1663fc0c546a6040518163ffffffff1660e01b8152600401602060405180830381865afa92505050801561132f57506040513d601f19601f8201168201806040525081019061132c9190614b7b565b60015b1561133957809150505b919050565b5f5f73ffffffffffffffffffffffffffffffffffffffff168373ffffffffffffffffffffffffffffffffffffffff160361137a575f9050611486565b5f5f8473ffffffffffffffffffffffffffffffffffffffff166370a0823160e01b856040516024016113ac9190614af6565b604051602081830303815290604052907bffffffffffffffffffffffffffffffffffffffffffffffffffffffff19166020820180517bffffffffffffffffffffffffffffffffffffffffffffffffffffffff83818316178352505050506040516114169190614c58565b5f60405180830381855afa9150503d805f811461144e576040519150601f19603f3d011682016040523d82523d5f602084013e611453565b606091505b509150915081801561146757506020815110155b1561148357808060200190518101906114809190614c98565b92505b50505b92915050565b5f8173ffffffffffffffffffffffffffffffffffffffff166360558c0f6040518163ffffffff1660e01b8152600401602060405180830381865afa9250505080156114f557506040513d601f19601f820116820180604052508101906114f29190614c98565b60015b156114ff57809150505b919050565b3073ffffffffffffffffffffffffffffffffffffffff16600260069054906101000a900473ffffffffffffffffffffffffffffffffffffffff1673ffffffffffffffffffffffffffffffffffffffff16036115b6576115638230611b31565b61158d5f5f9054906101000a900473ffffffffffffffffffffffffffffffffffffffff163061133e565b6115979190614bd3565b6007819055506115ab6007546006546134d8565b6001819055506115f3565b6115c08230611b31565b816115cb9190614bd3565b6007819055504360045410156115e957600e546001819055506115f3565b600f546001819055505b5050565b5f8173ffffffffffffffffffffffffffffffffffffffff16632a2085f36040518163ffffffff1660e01b8152600401602060405180830381865afa92505050801561166057506040513d601f19601f8201168201806040525081019061165d9190614c98565b60015b1561166a57809150505b919050565b5f5f5f5f61167d88866134fb565b92509250925082801561168f57505f81115b80156116985750815b156116a9576001935050505061190a565b5f8873ffffffffffffffffffffffffffffffffffffffff1663b4fa14de6040518163ffffffff1660e01b8152600401602060405180830381865afa92505050801561171257506040513d601f19601f8201168201806040525081019061170f9190614b7b565b60015b611722575f94505050505061190a565b809150505f73ffffffffffffffffffffffffffffffffffffffff168173ffffffffffffffffffffffffffffffffffffffff1603611765575f94505050505061190a565b60608173ffffffffffffffffffffffffffffffffffffffff16635a0100d76040518163ffffffff1660e01b81526004015f60405180830381865afa9250505080156117d257506040513d5f823e3d601f19601f820116820180604052508101906117cf9190614e3d565b60015b6117e3575f9550505050505061190a565b809150505f8151036117fc575f9550505050505061190a565b5f5f611808848461358e565b915091505f8103611822575f97505050505050505061190a565b8061182d8b8b61133e565b1015611842575f97505050505050505061190a565b61184d8a8c836136d4565b611860575f97505050505050505061190a565b8b73ffffffffffffffffffffffffffffffffffffffff16634fe84c09836118868c61382b565b845f6040518563ffffffff1660e01b81526004016118a79493929190614ed6565b6020604051808303815f875af19250505080156118e257506040513d601f19601f820116820180604052508101906118df9190614c98565b60015b6118f5575f97505050505050505061190a565b6118ff8d8b61385c565b985050505050505050505b949350505050565b600260039054906101000a900460ff16156119ba5730600260066101000a81548173ffffffffffffffffffffffffffffffffffffffff021916908373ffffffffffffffffffffffffffffffffffffffff16021790555061197684848484305f613890565b60035f6101000a81548173ffffffffffffffffffffffffffffffffffffffff021916908373ffffffffffffffffffffffffffffffffffffffff160217905550611b2b565b6001600260056101000a81548160ff0219169083151502179055505f5f5f6119e48787878761399f565b9250925092505f73ffffffffffffffffffffffffffffffffffffffff168373ffffffffffffffffffffffffffffffffffffffff1614611aa65782600260066101000a81548173ffffffffffffffffffffffffffffffffffffffff021916908373ffffffffffffffffffffffffffffffffffffffff1602179055508160035f6101000a81548173ffffffffffffffffffffffffffffffffffffffff021916908373ffffffffffffffffffffffffffffffffffffffff160217905550505050611b2b565b80600260066101000a81548173ffffffffffffffffffffffffffffffffffffffff021916908373ffffffffffffffffffffffffffffffffffffffff1602179055508160035f6101000a81548173ffffffffffffffffffffffffffffffffffffffff021916908373ffffffffffffffffffffffffffffffffffffffff1602179055505050505b50505050565b5f8273ffffffffffffffffffffffffffffffffffffffff16634b341aed836040518263ffffffff1660e01b8152600401611b6b9190614af6565b602060405180830381865afa925050508015611ba557506040513d601f19601f82011682018060405250810190611ba29190614c98565b60015b15611baf57809150505b92915050565b5f5f611bc18484613c47565b9050600454811115611c19576040518060400160405280601d81526020017f5052494d4152595f414c52454144595f434c41494d45445f4c41544552000000815250805190602001206013819055505f915050611f33565b611c2584600454613ccb565b600881905550611c388484600454613d4f565b600b819055505f611c498585611b31565b90508573ffffffffffffffffffffffffffffffffffffffff1663ef5cfb8c856040518263ffffffff1660e01b8152600401611c849190614af6565b5f604051808303815f87803b158015611c9b575f5ffd5b505af1925050508015611cac575060015b611cfd576040518060400160405280601481526020017f46495253545f434c41494d5f5245564552544544000000000000000000000000815250805190602001206013819055505f92505050611f33565b5f611d088686611b31565b9050611d1481836134d8565b600e81905550611d2686600454613ccb565b600981905550611d398686600454613d4f565b600c819055505f611d4a8787613c47565b90505f600e541480611d5e57506004548114155b80611d6d575060085460095411155b80611d7c5750600b54600c5411155b15611dd0576040518060400160405280601f81526020017f46495253545f434c41494d5f4e4f5f4d555441424c455f534e415053484f5400815250805190602001206013819055505f945050505050611f33565b8773ffffffffffffffffffffffffffffffffffffffff1663ef5cfb8c876040518263ffffffff1660e01b8152600401611e099190614af6565b5f604051808303815f87803b158015611e20575f5ffd5b505af1925050508015611e31575060015b611e84576040518060400160405280601581526020017f5345434f4e445f434c41494d5f52455645525445440000000000000000000000815250805190602001206013819055505f945050505050611f33565b5f611e8f8888611b31565b9050611e9b81846134d8565b600f81905550611ead88600454613ccb565b600a81905550611ec08888600454613d4f565b600d819055505f611ed18989613c47565b90505f600f54118015611ee5575060045481145b8015611ef45750600954600a54115b8015611f035750600c54600d54115b60025f6101000a81548160ff02191690831515021790555060025f9054906101000a900460ff1696505050505050505b9392505050565b5f60025f6101000a81548160ff0219169083151502179055505f600260066101000a81548173ffffffffffffffffffffffffffffffffffffffff021916908373ffffffffffffffffffffffffffffffffffffffff1602179055505f6008819055505f6009819055505f600a819055505f600b819055505f600c819055505f600d819055505f600e819055505f600f819055505f5f1b601381905550565b5f600260039054906101000a900460ff16801561204257503073ffffffffffffffffffffffffffffffffffffffff16600260069054906101000a900473ffffffffffffffffffffffffffffffffffffffff1673ffffffffffffffffffffffffffffffffffffffff1614155b156120ea5730600260066101000a81548173ffffffffffffffffffffffffffffffffffffffff021916908373ffffffffffffffffffffffffffffffffffffffff160217905550612093858530611bb5565b156120e1575f60035f6101000a81548173ffffffffffffffffffffffffffffffffffffffff021916908373ffffffffffffffffffffffffffffffffffffffff160217905550600190506124c7565b6120e9611f3a565b5b5f8673ffffffffffffffffffffffffffffffffffffffff1663b4fa14de6040518163ffffffff1660e01b8152600401602060405180830381865afa92505050801561215357506040513d601f19601f820116820180604052508101906121509190614b7b565b60015b612160575f9150506124c7565b809150505f73ffffffffffffffffffffffffffffffffffffffff168173ffffffffffffffffffffffffffffffffffffffff16036121a0575f9150506124c7565b60608173ffffffffffffffffffffffffffffffffffffffff16635a0100d76040518163ffffffff1660e01b81526004015f60405180830381865afa92505050801561220d57506040513d5f823e3d601f19601f8201168201806040525081019061220a9190614e3d565b60015b61221b575f925050506124c7565b809150505f5f90505b81518110156124c0575f8973ffffffffffffffffffffffffffffffffffffffff1663623fa63184848151811061225d5761225c614f20565b5b60200260200101516040518263ffffffff1660e01b81526004016122819190614b27565b602060405180830381865afa9250505080156122bb57506040513d601f19601f820116820180604052508101906122b89190614c98565b60015b6122c557506124b3565b809150505f600190505b8181116124b0575f6122fc8c8686815181106122ee576122ed614f20565b5b602002602001015184613dd6565b90505f73ffffffffffffffffffffffffffffffffffffffff168173ffffffffffffffffffffffffffffffffffffffff1614806123855750600260069054906101000a900473ffffffffffffffffffffffffffffffffffffffff1673ffffffffffffffffffffffffffffffffffffffff168173ffffffffffffffffffffffffffffffffffffffff16145b806123bb57503073ffffffffffffffffffffffffffffffffffffffff168173ffffffffffffffffffffffffffffffffffffffff16145b156123c6575061249d565b6123d0818d613e63565b6123da575061249d565b6004546123e78a83613c47565b11156123f3575061249d565b80600260066101000a81548173ffffffffffffffffffffffffffffffffffffffff021916908373ffffffffffffffffffffffffffffffffffffffff16021790555061243f8b8b83611bb5565b15612493575f60035f6101000a81548173ffffffffffffffffffffffffffffffffffffffff021916908373ffffffffffffffffffffffffffffffffffffffff160217905550600196505050505050506124c7565b61249b611f3a565b505b80806124a890614f4d565b9150506122cf565b50505b8080600101915050612224565b505f925050505b95945050505050565b5f73ffffffffffffffffffffffffffffffffffffffff168173ffffffffffffffffffffffffffffffffffffffff160361254b576040518060400160405280601a81526020017f4e4f5f5345434f4e445f50454e44494e475f50524f5649444552000000000000815250805190602001206014819055506127f1565b6004546125588383613c47565b106125a5576040518060400160405280601b81526020017f5345434f4e445f50524f56494445525f4e4f545f50454e44494e470000000000815250805190602001206014819055506127f1565b5f6125b882846125b3613e89565b613f13565b90505f81036125ed576040518060600160405280602181526020016154646021913980519060200120601481905550506127f1565b600854600554826125fe9190614f94565b6126089190615002565b601081905550600a546005548261261f9190614f94565b6126299190615002565b60118190555060115460105411612683576040518060400160405280601b81526020017f4f52444552494e475f44454c54415f4e4f545f4e45474154495645000000000081525080519060200120601481905550506127f1565b5f61268e8484611b31565b90508473ffffffffffffffffffffffffffffffffffffffff1663ef5cfb8c846040518263ffffffff1660e01b81526004016126c99190614af6565b5f604051808303815f87803b1580156126e0575f5ffd5b505af19250505080156126f1575060015b61273f576040518060400160405280601e81526020017f5345434f4e445f50524f56494445525f434c41494d5f524556455254454400008152508051906020012060148190555050506127f1565b61275261274c8585611b31565b826134d8565b6012819055505f60125411801561276c5750601154601254145b600260016101000a81548160ff021916908315150217905550600260019054906101000a900460ff161580156127a557505f5f1b601454145b156127ee576040518060400160405280601f81526020017f5345434f4e445f50524f56494445525f5245574152445f4d49534d4154434800815250805190602001206014819055505b50505b505050565b5f600854148061280757505f600a54145b15612860575f5f1b6014540361285b576040518060400160405280601981526020017f4f52444552494e475f424153454c494e455f4d495353494e4700000000000000815250805190602001206014819055505b612bd1565b5f8573ffffffffffffffffffffffffffffffffffffffff1663b4fa14de6040518163ffffffff1660e01b8152600401602060405180830381865afa9250505080156128c957506040513d601f19601f820116820180604052508101906128c69190614b7b565b60015b6128d35750612bd1565b809150505f73ffffffffffffffffffffffffffffffffffffffff168173ffffffffffffffffffffffffffffffffffffffff16036129105750612bd1565b60608173ffffffffffffffffffffffffffffffffffffffff16635a0100d76040518163ffffffff1660e01b81526004015f60405180830381865afa92505050801561297d57506040513d5f823e3d601f19601f8201168201806040525081019061297a9190614e3d565b60015b612988575050612bd1565b809150505f5f90505b8151811015612bcd575f8873ffffffffffffffffffffffffffffffffffffffff1663623fa6318484815181106129ca576129c9614f20565b5b60200260200101516040518263ffffffff1660e01b81526004016129ee9190614b27565b602060405180830381865afa925050508015612a2857506040513d601f19601f82011682018060405250810190612a259190614c98565b60015b612a325750612bc0565b809150505f600190505b818111612bbd575f612a698b868681518110612a5b57612a5a614f20565b5b602002602001015184613dd6565b90505f73ffffffffffffffffffffffffffffffffffffffff168173ffffffffffffffffffffffffffffffffffffffff161480612ad057508673ffffffffffffffffffffffffffffffffffffffff168173ffffffffffffffffffffffffffffffffffffffff16145b80612b0657503073ffffffffffffffffffffffffffffffffffffffff168173ffffffffffffffffffffffffffffffffffffffff16145b15612b115750612baa565b612b1b818c613f7b565b612b255750612baa565b600454612b328a83613c47565b10612b3d5750612baa565b8060035f6101000a81548173ffffffffffffffffffffffffffffffffffffffff021916908373ffffffffffffffffffffffffffffffffffffffff160217905550612b888a8a836124d0565b600260019054906101000a900460ff1615612ba857505050505050612bd1565b505b8080612bb590614f4d565b915050612a3c565b50505b8080600101915050612991565b5050505b5050505050565b5f8473ffffffffffffffffffffffffffffffffffffffff1663b4fa14de6040518163ffffffff1660e01b8152600401602060405180830381865afa925050508015612c4157506040513d601f19601f82011682018060405250810190612c3e9190614b7b565b60015b612c4b5750612f32565b809150505f73ffffffffffffffffffffffffffffffffffffffff168173ffffffffffffffffffffffffffffffffffffffff1603612c885750612f32565b60608173ffffffffffffffffffffffffffffffffffffffff16635a0100d76040518163ffffffff1660e01b81526004015f60405180830381865afa925050508015612cf557506040513d5f823e3d601f19601f82011682018060405250810190612cf29190614e3d565b60015b612d00575050612f32565b809150505f5f90505b8151811015612eee575f8773ffffffffffffffffffffffffffffffffffffffff1663623fa631848481518110612d4257612d41614f20565b5b60200260200101516040518263ffffffff1660e01b8152600401612d669190614b27565b602060405180830381865afa925050508015612da057506040513d601f19601f82011682018060405250810190612d9d9190614c98565b60015b612daa5750612ee1565b809150505f600190505b818111612ede575f612de18a868681518110612dd357612dd2614f20565b5b602002602001015184613dd6565b90505f73ffffffffffffffffffffffffffffffffffffffff168173ffffffffffffffffffffffffffffffffffffffff161480612e4857503073ffffffffffffffffffffffffffffffffffffffff168173ffffffffffffffffffffffffffffffffffffffff16145b15612e535750612ecb565b600454612e608a83613c47565b14612e6b5750612ecb565b612e75818b613f8e565b612e7f5750612ecb565b80600260066101000a81548173ffffffffffffffffffffffffffffffffffffffff021916908373ffffffffffffffffffffffffffffffffffffffff160217905550505050505050612f32565b8080612ed690614f4d565b915050612db4565b50505b8080600101915050612d09565b505f60035f6101000a81548173ffffffffffffffffffffffffffffffffffffffff021916908373ffffffffffffffffffffffffffffffffffffffff16021790555050505b50505050565b5f5f612f448484613c47565b90506004548114612f9b576040518060400160405280601781526020017f50524f56494445525f4e4f545f5245504c415941424c45000000000000000000815250805190602001206013819055505f915050613183565b612fa784600454613ccb565b600881905550612fba8484600454613d4f565b600b819055505f612fcb8585611b31565b90508573ffffffffffffffffffffffffffffffffffffffff1663ef5cfb8c856040518263ffffffff1660e01b81526004016130069190614af6565b5f604051808303815f87803b15801561301d575f5ffd5b505af192505050801561302e575060015b61307f576040518060400160405280601581526020017f5245504c41595f434c41494d5f52455645525445440000000000000000000000815250805190602001206013819055505f92505050613183565b5f61308a8686611b31565b905061309681836134d8565b600e819055506130a886600454613ccb565b6009819055506130bb8686600454613d4f565b600c819055505f6130cc8787613c47565b90505f600e541180156130e0575060045481115b80156130ef5750600854600954145b80156130fe5750600b54600c54145b60025f6101000a81548160ff02191690831515021790555060025f9054906101000a900460ff1661316d576040518060400160405280601481526020017f5245504c41595f4e4f5f45585452415f4d494e54000000000000000000000000815250805190602001206013819055505b60025f9054906101000a900460ff169450505050505b9392505050565b5f5f8673ffffffffffffffffffffffffffffffffffffffff1663b4fa14de6040518163ffffffff1660e01b8152600401602060405180830381865afa9250505080156131f457506040513d601f19601f820116820180604052508101906131f19190614b7b565b60015b613201575f9150506134cf565b809150505f73ffffffffffffffffffffffffffffffffffffffff168173ffffffffffffffffffffffffffffffffffffffff1603613241575f9150506134cf565b60608173ffffffffffffffffffffffffffffffffffffffff16635a0100d76040518163ffffffff1660e01b81526004015f60405180830381865afa9250505080156132ae57506040513d5f823e3d601f19601f820116820180604052508101906132ab9190614e3d565b60015b6132bc575f925050506134cf565b809150505f5f90505b81518110156134c8575f8973ffffffffffffffffffffffffffffffffffffffff1663623fa6318484815181106132fe576132fd614f20565b5b60200260200101516040518263ffffffff1660e01b81526004016133229190614b27565b602060405180830381865afa92505050801561335c57506040513d601f19601f820116820180604052508101906133599190614c98565b60015b61336657506134bb565b809150505f600190505b8181116134b8575f61339d8c86868151811061338f5761338e614f20565b5b602002602001015184613dd6565b90505f73ffffffffffffffffffffffffffffffffffffffff168173ffffffffffffffffffffffffffffffffffffffff16148061340457503073ffffffffffffffffffffffffffffffffffffffff168173ffffffffffffffffffffffffffffffffffffffff16145b1561340f57506134a5565b60045461341c8a83613c47565b1461342757506134a5565b613431818d613f8e565b61343b57506134a5565b80600260066101000a81548173ffffffffffffffffffffffffffffffffffffffff021916908373ffffffffffffffffffffffffffffffffffffffff1602179055506134878b8b83612f38565b1561349b57600196505050505050506134cf565b6134a3611f3a565b505b80806134b090614f4d565b915050613370565b50505b80806001019150506132c5565b505f925050505b95945050505050565b5f8183116134e6575f6134f3565b81836134f29190615032565b5b905092915050565b5f5f5f8473ffffffffffffffffffffffffffffffffffffffff1663f273e9a8856040518263ffffffff1660e01b81526004016135379190614af6565b60c060405180830381865afa92505050801561357157506040513d601f19601f8201168201806040525081019061356e919061508f565b60015b1561358757600198508397508296505050505050505b9250925092565b5f5f7fffffffffffffffffffffffffffffffffffffffffffffffffffffffffffffffff90505f5f90505b83518110156136a1578473ffffffffffffffffffffffffffffffffffffffff16639be6acf68583815181106135f0576135ef614f20565b5b60200260200101516040518263ffffffff1660e01b81526004016136149190614b27565b606060405180830381865afa92505050801561364e57506040513d601f19601f8201168201806040525081019061364b9190615118565b60015b156136945782801561365f57505f82115b801561366a57508482105b156136905781945086848151811061368557613684614f20565b5b602002602001015195505b5050505b80806001019150506135b8565b507fffffffffffffffffffffffffffffffffffffffffffffffffffffffffffffffff81036136cd575f90505b9250929050565b5f5f73ffffffffffffffffffffffffffffffffffffffff168473ffffffffffffffffffffffffffffffffffffffff1603613710575f9050613824565b5f5f8573ffffffffffffffffffffffffffffffffffffffff1663095ea7b360e01b8686604051602401613744929190615168565b604051602081830303815290604052907bffffffffffffffffffffffffffffffffffffffffffffffffffffffff19166020820180517bffffffffffffffffffffffffffffffffffffffffffffffffffffffff83818316178352505050506040516137ae9190614c58565b5f604051808303815f865af19150503d805f81146137e7576040519150601f19603f3d011682016040523d82523d5f602084013e6137ec565b606091505b509150915081613800575f92505050613824565b5f8151148061381f57508080602001905181019061381e919061518f565b5b925050505b9392505050565b606061383682613fb4565b6040516020016138469190615240565b6040516020818303038152906040529050919050565b5f5f5f5f61386a86866134fb565b92509250925082801561387a5750815b801561388557505f81115b935050505092915050565b5f5f5f61389f8989898961399f565b50915091508473ffffffffffffffffffffffffffffffffffffffff168273ffffffffffffffffffffffffffffffffffffffff161415801561390c57508373ffffffffffffffffffffffffffffffffffffffff168273ffffffffffffffffffffffffffffffffffffffff1614155b1561391b578192505050613995565b8473ffffffffffffffffffffffffffffffffffffffff168173ffffffffffffffffffffffffffffffffffffffff161415801561398357508373ffffffffffffffffffffffffffffffffffffffff168173ffffffffffffffffffffffffffffffffffffffff1614155b15613992578092505050613995565b50505b9695505050505050565b5f5f5f5f8773ffffffffffffffffffffffffffffffffffffffff1663b4fa14de6040518163ffffffff1660e01b8152600401602060405180830381865afa925050508015613a0b57506040513d601f19601f82011682018060405250810190613a089190614b7b565b60015b613a1e575f5f5f93509350935050613c3d565b809150505f73ffffffffffffffffffffffffffffffffffffffff168173ffffffffffffffffffffffffffffffffffffffff1603613a64575f5f5f93509350935050613c3d565b60608173ffffffffffffffffffffffffffffffffffffffff16635a0100d76040518163ffffffff1660e01b81526004015f60405180830381865afa925050508015613ad157506040513d5f823e3d601f19601f82011682018060405250810190613ace9190614e3d565b60015b613ae5575f5f5f9450945094505050613c3d565b80915050613af1614a25565b613af9614a25565b613b01614a25565b5f60405180608001604052808d73ffffffffffffffffffffffffffffffffffffffff1673ffffffffffffffffffffffffffffffffffffffff1681526020018c73ffffffffffffffffffffffffffffffffffffffff1673ffffffffffffffffffffffffffffffffffffffff1681526020018b73ffffffffffffffffffffffffffffffffffffffff1673ffffffffffffffffffffffffffffffffffffffff1681526020018e73ffffffffffffffffffffffffffffffffffffffff1673ffffffffffffffffffffffffffffffffffffffff1681525090505f5f90505b8551811015613c2357613c0a82878381518110613bfa57613bf9614f20565b5b6020026020010151878787613fde565b8095508196508297505050508080600101915050613bda565b50835f01519850825f01519750815f015196505050505050505b9450945094915050565b5f8273ffffffffffffffffffffffffffffffffffffffff166346350ae6836040518263ffffffff1660e01b8152600401613c819190614af6565b602060405180830381865afa925050508015613cbb57506040513d601f19601f82011682018060405250810190613cb89190614c98565b60015b15613cc557809150505b92915050565b5f8273ffffffffffffffffffffffffffffffffffffffff1663c9c53232836040518263ffffffff1660e01b8152600401613d059190614a6b565b602060405180830381865afa925050508015613d3f57506040513d601f19601f82011682018060405250810190613d3c9190614c98565b60015b15613d4957809150505b92915050565b5f8373ffffffffffffffffffffffffffffffffffffffff1663ede3842184846040518363ffffffff1660e01b8152600401613d8b929190615168565b602060405180830381865afa925050508015613dc557506040513d601f19601f82011682018060405250810190613dc29190614c98565b60015b15613dcf57809150505b9392505050565b5f8373ffffffffffffffffffffffffffffffffffffffff1663748ea82c84846040518363ffffffff1660e01b8152600401613e12929190615274565b5f60405180830381865afa925050508015613e4f57506040513d5f823e3d601f19601f82011682018060405250810190613e4c919061533d565b60015b15613e5c57839450505050505b9392505050565b5f5f5f613e7084866134fb565b5091509150818015613e7f5750805b9250505092915050565b5f734deca517d6817b6510798b7328f2314d3003abac73ffffffffffffffffffffffffffffffffffffffff1663d16543f66040518163ffffffff1660e01b8152600401602060405180830381865afa925050508015613f0657506040513d601f19601f82011682018060405250810190613f039190614b7b565b60015b15613f1057809150505b90565b5f5f613f228486600454613d4f565b90505f613f2f848761416f565b90505f613f43613f3d6141f3565b8861427c565b90505f8183613f529190614bd3565b9050808411613f61575f613f6e565b8084613f6d9190615032565b5b9450505050509392505050565b5f613f868383613e63565b905092915050565b5f5f5f613f9b84866134fb565b5091509150818015613faa5750805b9250505092915050565b6060613fd78273ffffffffffffffffffffffffffffffffffffffff166014614300565b9050919050565b613fe6614a25565b613fee614a25565b613ff6614a25565b5f8860036004811061400b5761400a614f20565b5b602002015190505f8173ffffffffffffffffffffffffffffffffffffffff1663623fa6318a6040518263ffffffff1660e01b815260040161404c9190614b27565b602060405180830381865afa92505050801561408657506040513d601f19601f820116820180604052508101906140839190614c98565b60015b61409a578787879450945094505050614164565b809150505f600190505b818111614157575f6140b7848c84613dd6565b90505f73ffffffffffffffffffffffffffffffffffffffff168173ffffffffffffffffffffffffffffffffffffffff16148061411e57503073ffffffffffffffffffffffffffffffffffffffff168173ffffffffffffffffffffffffffffffffffffffff16145b156141295750614144565b614136818d8c8c8c61452a565b809a50819b50829c50505050505b808061414f90614f4d565b9150506140a4565b5087878794509450945050505b955095509592505050565b5f8273ffffffffffffffffffffffffffffffffffffffff16637dc1eeba836040518263ffffffff1660e01b81526004016141a99190614af6565b602060405180830381865afa9250505080156141e357506040513d601f19601f820116820180604052508101906141e09190614c98565b60015b156141ed57809150505b92915050565b5f734deca517d6817b6510798b7328f2314d3003abac73ffffffffffffffffffffffffffffffffffffffff16622ae74a6040518163ffffffff1660e01b8152600401602060405180830381865afa92505050801561426f57506040513d601f19601f8201168201806040525081019061426c9190614b7b565b60015b1561427957809150505b90565b5f8273ffffffffffffffffffffffffffffffffffffffff1663ff653c8a836040518263ffffffff1660e01b81526004016142b69190614af6565b6040805180830381865afa9250505080156142ef57506040513d601f19601f820116820180604052508101906142ec91906153bd565b60015b156142fa5781925050505b92915050565b60605f6f3031323334353637383961626364656660801b90505f6002846143279190614f94565b60026143339190614bd3565b67ffffffffffffffff81111561434c5761434b614cd7565b5b6040519080825280601f01601f19166020018201604052801561437e5781602001600182028036833780820191505090505b5090507f3000000000000000000000000000000000000000000000000000000000000000815f815181106143b5576143b4614f20565b5b60200101907effffffffffffffffffffffffffffffffffffffffffffffffffffffffffffff191690815f1a9053507f78000000000000000000000000000000000000000000000000000000000000008160018151811061441857614417614f20565b5b60200101907effffffffffffffffffffffffffffffffffffffffffffffffffffffffffffff191690815f1a9053505f6002856144549190614f94565b60026144609190614bd3565b90505b60028111156144dc5780806001900391505082600f87166010811061448b5761448a614f20565b5b1a60f81b8282815181106144a2576144a1614f20565b5b60200101907effffffffffffffffffffffffffffffffffffffffffffffffffffffffffffff191690815f1a905350600486901c9550614463565b505f851461451f576040517f08c379a000000000000000000000000000000000000000000000000000000000815260040161451690615445565b60405180910390fd5b809250505092915050565b614532614a25565b61453a614a25565b614542614a25565b5f5f5f5f6145b28c8c60036004811061455e5761455d614f20565b5b60200201518d5f6004811061457657614575614f20565b5b60200201518e60016004811061458f5761458e614f20565b5b60200201518f6002600481106145a8576145a7614f20565b5b602002015161486b565b93509350935093508315806145c657505f81145b156145dd5789898996509650965050505050614860565b82156147d457895f015173ffffffffffffffffffffffffffffffffffffffff168c73ffffffffffffffffffffffffffffffffffffffff16141580156146255750896020015181115b15614722575f73ffffffffffffffffffffffffffffffffffffffff168a5f015173ffffffffffffffffffffffffffffffffffffffff161415801561469857508b73ffffffffffffffffffffffffffffffffffffffff168a5f015173ffffffffffffffffffffffffffffffffffffffff1614155b156146f057885f015173ffffffffffffffffffffffffffffffffffffffff168a5f015173ffffffffffffffffffffffffffffffffffffffff16141580156146e6575088602001518a60200151115b156146ef578998505b5b60405180604001604052808d73ffffffffffffffffffffffffffffffffffffffff1681526020018281525099506147d3565b895f015173ffffffffffffffffffffffffffffffffffffffff168c73ffffffffffffffffffffffffffffffffffffffff16141580156147905750885f015173ffffffffffffffffffffffffffffffffffffffff168c73ffffffffffffffffffffffffffffffffffffffff1614155b801561479f5750886020015181115b156147d25760405180604001604052808d73ffffffffffffffffffffffffffffffffffffffff1681526020018281525098505b5b5b8180156148105750875f015173ffffffffffffffffffffffffffffffffffffffff168c73ffffffffffffffffffffffffffffffffffffffff1614155b801561481f5750876020015181115b156148525760405180604001604052808d73ffffffffffffffffffffffffffffffffffffffff1681526020018281525097505b898989965096509650505050505b955095509592505050565b5f5f5f5f61487b898989896149db565b614890575f5f5f5f93509350935093506149cf565b5f61489d88600454613ccb565b90505f81036148b8575f5f5f5f9450945094509450506149cf565b5f6148c48b8a8a613f13565b90505f81036148e0575f5f5f5f955095509550955050506149cf565b5f6148eb8a8d613c47565b9050600454811095506004548114945085158015614907575084155b15614920575f5f5f5f96509650965096505050506149cf565b5f8873ffffffffffffffffffffffffffffffffffffffff1663d017f4838e6040518263ffffffff1660e01b815260040161495a9190614af6565b602060405180830381865afa92505050801561499457506040513d601f19601f82011682018060405250810190614991919061518f565b60015b1561499e57809150505b8680156149a9575080155b5083600554846149b99190614f94565b6149c39190615002565b94505f85119750505050505b95509550955095915050565b5f5f5f5f6149e987896134fb565b9250925092508215806149fa575081155b15614a0a575f9350505050614a1d565b5f614a16898888613f13565b1193505050505b949350505050565b60405180604001604052805f73ffffffffffffffffffffffffffffffffffffffff1681526020015f81525090565b5f819050919050565b614a6581614a53565b82525050565b5f602082019050614a7e5f830184614a5c565b92915050565b5f8115159050919050565b614a9881614a84565b82525050565b5f602082019050614ab15f830184614a8f565b92915050565b5f73ffffffffffffffffffffffffffffffffffffffff82169050919050565b5f614ae082614ab7565b9050919050565b614af081614ad6565b82525050565b5f602082019050614b095f830184614ae7565b92915050565b5f819050919050565b614b2181614b0f565b82525050565b5f602082019050614b3a5f830184614b18565b92915050565b5f604051905090565b5f5ffd5b5f5ffd5b614b5a81614ad6565b8114614b64575f5ffd5b50565b5f81519050614b7581614b51565b92915050565b5f60208284031215614b9057614b8f614b49565b5b5f614b9d84828501614b67565b91505092915050565b7f4e487b71000000000000000000000000000000000000000000000000000000005f52601160045260245ffd5b5f614bdd82614a53565b9150614be883614a53565b9250828201905080821115614c0057614bff614ba6565b5b92915050565b5f81519050919050565b5f81905092915050565b8281835e5f83830152505050565b5f614c3282614c06565b614c3c8185614c10565b9350614c4c818560208601614c1a565b80840191505092915050565b5f614c638284614c28565b915081905092915050565b614c7781614a53565b8114614c81575f5ffd5b50565b5f81519050614c9281614c6e565b92915050565b5f60208284031215614cad57614cac614b49565b5b5f614cba84828501614c84565b91505092915050565b5f5ffd5b5f601f19601f8301169050919050565b7f4e487b71000000000000000000000000000000000000000000000000000000005f52604160045260245ffd5b614d0d82614cc7565b810181811067ffffffffffffffff82111715614d2c57614d2b614cd7565b5b80604052505050565b5f614d3e614b40565b9050614d4a8282614d04565b919050565b5f67ffffffffffffffff821115614d6957614d68614cd7565b5b602082029050602081019050919050565b5f5ffd5b614d8781614b0f565b8114614d91575f5ffd5b50565b5f81519050614da281614d7e565b92915050565b5f614dba614db584614d4f565b614d35565b90508083825260208201905060208402830185811115614ddd57614ddc614d7a565b5b835b81811015614e065780614df28882614d94565b845260208401935050602081019050614ddf565b5050509392505050565b5f82601f830112614e2457614e23614cc3565b5b8151614e34848260208601614da8565b91505092915050565b5f60208284031215614e5257614e51614b49565b5b5f82015167ffffffffffffffff811115614e6f57614e6e614b4d565b5b614e7b84828501614e10565b91505092915050565b5f81519050919050565b5f82825260208201905092915050565b5f614ea882614e84565b614eb28185614e8e565b9350614ec2818560208601614c1a565b614ecb81614cc7565b840191505092915050565b5f608082019050614ee95f830187614b18565b8181036020830152614efb8186614e9e565b9050614f0a6040830185614a5c565b614f176060830184614ae7565b95945050505050565b7f4e487b71000000000000000000000000000000000000000000000000000000005f52603260045260245ffd5b5f614f5782614a53565b91507fffffffffffffffffffffffffffffffffffffffffffffffffffffffffffffffff8203614f8957614f88614ba6565b5b600182019050919050565b5f614f9e82614a53565b9150614fa983614a53565b9250828202614fb781614a53565b91508282048414831517614fce57614fcd614ba6565b5b5092915050565b7f4e487b71000000000000000000000000000000000000000000000000000000005f52601260045260245ffd5b5f61500c82614a53565b915061501783614a53565b92508261502757615026614fd5565b5b828204905092915050565b5f61503c82614a53565b915061504783614a53565b925082820390508181111561505f5761505e614ba6565b5b92915050565b61506e81614a84565b8114615078575f5ffd5b50565b5f8151905061508981615065565b92915050565b5f5f5f5f5f5f60c087890312156150a9576150a8614b49565b5b5f6150b689828a01614c84565b96505060206150c789828a01614c84565b95505060406150d889828a0161507b565b94505060606150e989828a01614c84565b93505060806150fa89828a01614c84565b92505060a061510b89828a01614c84565b9150509295509295509295565b5f5f5f6060848603121561512f5761512e614b49565b5b5f61513c8682870161507b565b935050602061514d86828701614c84565b925050604061515e86828701614c84565b9150509250925092565b5f60408201905061517b5f830185614ae7565b6151886020830184614a5c565b9392505050565b5f602082840312156151a4576151a3614b49565b5b5f6151b18482850161507b565b91505092915050565b7f68747470733a2f2f76657269666965722d000000000000000000000000000000815250565b5f81905092915050565b5f6151f482614e84565b6151fe81856151e0565b935061520e818560208601614c1a565b80840191505092915050565b7f2e696e76616c6964000000000000000000000000000000000000000000000000815250565b5f61524a826151ba565b60118201915061525a82846151ea565b91506152658261521a565b60088201915081905092915050565b5f6040820190506152875f830185614b18565b6152946020830184614a5c565b9392505050565b5f5ffd5b5f67ffffffffffffffff8211156152b9576152b8614cd7565b5b6152c282614cc7565b9050602081019050919050565b5f6152e16152dc8461529f565b614d35565b9050828152602081018484840111156152fd576152fc61529b565b5b615308848285614c1a565b509392505050565b5f82601f83011261532457615323614cc3565b5b81516153348482602086016152cf565b91505092915050565b5f5f5f5f6080858703121561535557615354614b49565b5b5f61536287828801614b67565b945050602085015167ffffffffffffffff81111561538357615382614b4d565b5b61538f87828801615310565b93505060406153a087828801614c84565b92505060606153b187828801614b67565b91505092959194509250565b5f5f604083850312156153d3576153d2614b49565b5b5f6153e085828601614c84565b92505060206153f185828601614c84565b9150509250929050565b7f4845585f4c454e475448000000000000000000000000000000000000000000005f82015250565b5f61542f600a83614e8e565b915061543a826153fb565b602082019050919050565b5f6020820190508181035f83015261545c81615423565b905091905056fe5345434f4e445f50524f56494445525f5a45524f5f4143544956455f5354414b45a264697066735822122088140dcfe3eb41cc870e76503983edfc8b0f696124d7eaca79f79d535280695564736f6c634300081e0033","linkReferences":{}},"methodIdentifiers":{"TARGET()":"cc1f2afa","directSelfPathAttempted()":"8981431b","directSelfPathFeasible()":"8381c59f","duplicatePathValidated()":"0be9d598","executeOnOpportunity()":"3c2448ed","failure()":"76ffb887","finalEconomicBalance()":"abf7f2cb","firstClaimIncrease()":"ee24b0fa","fundedBlock()":"60f47d5f","fundingAmount()":"04a79c97","initialEconomicBalance()":"4e97c9fe","orderingFailure()":"93e60d22","orderingPathValidated()":"52ab57eb","primaryProvider()":"54735014","primaryStakeAtAfterFirst()":"bcb68264","primaryStakeAtAfterSecond()":"91cfbcce","primaryStakeAtBefore()":"b21ad1d7","profitAmount()":"5ff972cc","profitToken()":"49343624","secondClaimIncrease()":"103b604d","secondaryActualIncrease()":"22e70c20","secondaryExpectedAfter()":"78a49f5f","secondaryExpectedBefore()":"f0ef549b","secondaryProvider()":"63934e37","snapshotTotalAfterFirst()":"c0627e3c","snapshotTotalAfterSecond()":"f8473615","snapshotTotalBefore()":"28b86542","usedExistingProviderFallback()":"5f709651","usedExistingRoundFunding()":"2c279468"},"id":0}