{"abi":[{"type":"constructor","inputs":[],"stateMutability":"nonpayable"},{"type":"function","name":"attackerSpendAmount","inputs":[],"outputs":[{"name":"","type":"uint256","internalType":"uint256"}],"stateMutability":"view"},{"type":"function","name":"bridgePair","inputs":[],"outputs":[{"name":"","type":"address","internalType":"address"}],"stateMutability":"view"},{"type":"function","name":"burnReturnAmount","inputs":[],"outputs":[{"name":"","type":"uint256","internalType":"uint256"}],"stateMutability":"view"},{"type":"function","name":"executeOnOpportunity","inputs":[],"outputs":[],"stateMutability":"nonpayable"},{"type":"function","name":"executed","inputs":[],"outputs":[{"name":"","type":"bool","internalType":"bool"}],"stateMutability":"view"},{"type":"function","name":"exitPair","inputs":[],"outputs":[{"name":"","type":"address","internalType":"address"}],"stateMutability":"view"},{"type":"function","name":"exploitPathUsed","inputs":[],"outputs":[{"name":"","type":"string","internalType":"string"}],"stateMutability":"view"},{"type":"function","name":"flashPair","inputs":[],"outputs":[{"name":"","type":"address","internalType":"address"}],"stateMutability":"view"},{"type":"function","name":"hypothesisRefuted","inputs":[],"outputs":[{"name":"","type":"bool","internalType":"bool"}],"stateMutability":"view"},{"type":"function","name":"hypothesisValidated","inputs":[],"outputs":[{"name":"","type":"bool","internalType":"bool"}],"stateMutability":"view"},{"type":"function","name":"loanToken","inputs":[],"outputs":[{"name":"","type":"address","internalType":"address"}],"stateMutability":"view"},{"type":"function","name":"poolReceiveAmount","inputs":[],"outputs":[{"name":"","type":"uint256","internalType":"uint256"}],"stateMutability":"view"},{"type":"function","name":"profitAmount","inputs":[],"outputs":[{"name":"","type":"uint256","internalType":"uint256"}],"stateMutability":"view"},{"type":"function","name":"profitToken","inputs":[],"outputs":[{"name":"","type":"address","internalType":"address"}],"stateMutability":"view"},{"type":"function","name":"status","inputs":[],"outputs":[{"name":"","type":"string","internalType":"string"}],"stateMutability":"view"},{"type":"function","name":"uniswapV2Call","inputs":[{"name":"sender","type":"address","internalType":"address"},{"name":"amount0","type":"uint256","internalType":"uint256"},{"name":"amount1","type":"uint256","internalType":"uint256"},{"name":"data","type":"bytes","internalType":"bytes"}],"outputs":[],"stateMutability":"nonpayable"}],"bytecode":{"object":"0x6080806040523460cf57600154600181811c9116801560c6575b602082101460b257601f8111606d575b50600e663737ba16b93ab760c91b01600155600a80546001600160a01b03191673c02aaa39b223fe8d0a0e5c4f27ead9083c756cc2179055612cfc90816100d48239f35b60015f52601f0160051c7fb10e2d527612073b26eecdfd717e6a320cf44b4afac2b0732d9fcbe2b7fa0cf6908101905b81811060a857506029565b5f8155600101609d565b634e487b7160e01b5f52602260045260245ffd5b90607f16906019565b5f80fdfe6080806040526004361015610012575f80fd5b5f905f3560e01c90816306d3781714611e945750806310d1e85c146113cd578063200d2ed21461133957806331a38c89146113175780633c2448ed1461030a578063463defd1146102e557806349327e5e146102c7578063493436241461029e578063495f92f1146102795780634e806f4f146102505780635ff972cc146102325780636f98fb5d14610209578063d78c428114610135578063de7dc9b91461010c578063ec32918a146100ee5763ffab559c146100ce575f80fd5b346100eb57806003193601126100eb576020600554604051908152f35b80fd5b50346100eb57806003193601126100eb576020600354604051908152f35b50346100eb57806003193601126100eb576007546040516001600160a01b039091168152602090f35b50346100eb57806003193601126100eb5760405190806002549061015882611eb7565b80855291600181169081156101e25750600114610198575b6101948461018081860382611f3c565b604051918291602083526020830190611f5e565b0390f35b600281525f516020612c475f395f51905f52939250905b8082106101c85750909150810160200161018082610170565b9192600181602092548385880101520191019092916101af565b60ff191660208087019190915292151560051b850190920192506101809150839050610170565b50346100eb57806003193601126100eb576006546040516001600160a01b039091168152602090f35b50346100eb57806003193601126100eb576020600b54604051908152f35b50346100eb57806003193601126100eb576008546040516001600160a01b039091168152602090f35b50346100eb57806003193601126100eb5760ff6020915460101c166040519015158152f35b50346100eb57806003193601126100eb57600a546040516001600160a01b039091168152602090f35b50346100eb57806003193601126100eb576020600454604051908152f35b50346100eb57806003193601126100eb5760ff6020915460081c166040519015158152f35b50346100eb57806003193601126100eb57805460ff81166112df5760ff1916600117815560405163797bf38560e01b8152602081600481737f3fe9d492a9a60aebb06d82cba23c6f32cad10b5afa80156110ee575f516020612c875f395f51905f529183916112c0575b50600980546001600160a01b0319166001600160a01b0392909216918217905503611283578080604051602081019063095ea7b360e01b8252737f3fe9d492a9a60aebb06d82cba23c6f32cad10b60248201525f196044820152604481526103dd606482611f3c565b5190825f516020612c875f395f51905f525af16103f861204f565b81611254575b501561121e5761040c61212d565b604051906040820182811067ffffffffffffffff82111761120a5760405273c0aee478e3658e2610c5f7a4a2e1777ce9e4f2ac8252735c69bee701ef814a2b6a3edd4b1652cb9cc5aa6f6020830152604051926080840184811067ffffffffffffffff8211176111f6576040525f516020612c675f395f51905f528452736b175474e89094c44da98b954eedeac495271d0f602085015273a0b86991c6218b36c1d19d4a2e9eb0ce3606eb48604085015273dac17f958d2ee523a2206206994597c13d831ec76060850152805b6002811015610a6a57600581901b84015160405163e6a4390560e01b81525f516020612c875f395f51905f5260048201525f516020612c675f395f51905f52602482015290602090829060449082906001600160a01b03165afa908115610a5f578391610a41575b506001600160a01b038116908115610a3757839291959493955b60028710610573575050600191929394505b016104d9565b9390949186155f14610a1c5773c0aee478e3658e2610c5f7a4a2e1777ce9e4f2ac925b845b6004811015610a0a57600581901b8a015160405163e6a4390560e01b81525f516020612c875f395f51905f5260048201526001600160a01b03918216602482018190529091602090839060449082908b165afa9182156109ff5788926109df575b506001600160a01b038216801580156109d6575b6109cb575f516020612c675f395f51905f5282146108875788925b6002841061063e57505050506001905b01610598565b94939c909598929a9b83989298508b155f1461086c5773c0aee478e3658e2610c5f7a4a2e1777ce9e4f2ac975b60405163e6a4390560e01b8152600481018b90525f516020612c675f395f51905f526024820152986020908a9060449082906001600160a01b03165afa988915610861578599610831575b506001600160a01b03891615801561081f575b61080857996106d661212d565b50604051956106e487611f1f565b610100875260c0602088015260a060408801526080606088015260606080880152605060a0880152604060c0880152603060e088015260286101008801526020610120880152601861014088015260146101608801526010610180880152600c6101a0880152600a6101c088015260086101e088015260066102008801526004610220880152855b60128110156107eb578f60a08f918f908f908f91610792928f8f8960051b015193612b16565b929091015182116107a9575b50505060010161076c565b6001939f508e8e8e604051956107be87611eef565b86526020860152858060a01b031660408501526060840152608083015260a08201529c90508d5f8061079e565b5096949a9097929e95506001919d9c9850989298975b0192610628565b97509b9a6001909d9495939996919d989298610801565b506001600160a01b03891688146106c9565b61085391995060203d811161085a575b61084b8183611f3c565b810190611f96565b975f6106b6565b503d610841565b6040513d87823e3d90fd5b735c69bee701ef814a2b6a3edd4b1652cb9cc5aa6f9761066b565b95905099909396959198999661089b61212d565b50604051936108a985611f1f565b610100855260c0602086015260a060408601526080606086015260606080860152605060a0860152604060c0860152603060e086015260286101008601526020610120860152601861014086015260146101608601526010610180860152600c6101a0860152600a6101c086015260086101e086015260066102008601526004610220860152875b60128110156109b75761095b8d5f516020612c675f395f51905f528b8a8560051b8b015193612b16565b60a08c01518111610971575b5050600101610931565b6001929b506040519161098383611eef565b8d83528a60208401528b60408401525f516020612c675f395f51905f526060840152608083015260a082015299905f610967565b509350935098979350939460019093610638565b505050600190610638565b5089811461060d565b6109f891925060203d811161085a5761084b8183611f3c565b905f6105f9565b6040513d8a823e3d90fd5b5060019097019695919490925061055b565b735c69bee701ef814a2b6a3edd4b1652cb9cc5aa6f92610596565b505060019061056d565b610a59915060203d811161085a5761084b8183611f3c565b5f610541565b6040513d85823e3d90fd5b5081519091906001600160a01b0316156111c65760a08101511561118b57819060018060a01b038151166001600160601b0360a01b600654161760065560018060a01b03602082015116806001600160601b0360a01b600754161760075560018060a01b0360408301511691826001600160601b0360a01b60085416176008556080810192835190816003555f516020612c675f395f51905f526001600160601b0360a01b600a541617600a5560018060a01b036060840151169060405194602086015260408501526060840152608083015260808252610b4c60a083611f3c565b51604051630dfe168160e01b81526001600160a01b039091169290602081600481875afa8015610861575f516020612c875f395f51905f5291869161116c575b506001600160a01b031603611113575190823b1561110e57610bc99284928360405180968195829463022c0d9f60e01b8452309060048501611fe2565b03925af180156110ee576110f9575b50505b6040516370a0823160e01b81523060048201526020816024815f516020612c675f395f51905f525afa80156110ee5782906110b1575b66038d7ea4c68000915080600b55111561108057805460081c60ff1615610de257610c3d600154611eb7565b601f8111610dad575b506012681d985b1a59185d195960ba1b01600155600254610c6690611eb7565b601f8111610d5a575b5060cd6002557f7075626c69632d5946492d666c617368737761702d3e6d696e742872656365695f516020612c475f395f51905f52557f7665722c58292d3e6275726e28696e666c617465642d736861726573292d3e737f405787fa12a823e0f2b7631cc41b3ba8828b3321ca811111fa75cd3aa3bb5acf557f656c6c2d72656465656d65642d5946492d696e746f2d7075626c69632d6c69717f405787fa12a823e0f2b7631cc41b3ba8828b3321ca811111fa75cd3aa3bb5ad0556575696469747960d01b7f405787fa12a823e0f2b7631cc41b3ba8828b3321ca811111fa75cd3aa3bb5ad15580f35b60028252601f0160051c5f516020612c475f395f51905f52017f405787fa12a823e0f2b7631cc41b3ba8828b3321ca811111fa75cd3aa3bb5ad25b818110610da25750610c6f565b828155600101610d95565b60018252601f0160051c5f516020612ca75f395f51905f52908101905b818110610dd75750610c46565b828155600101610dca565b610ded600154611eb7565b601f811161102d575b506043600155600181527f726566757465642d6c6976652d7966692d6e6f742d6465666c6174696f6e61725f516020612ca75f395f51905f5255607960f81b7fb10e2d527612073b26eecdfd717e6a320cf44b4afac2b0732d9fcbe2b7fa0cf755610e62600254611eb7565b601f8111610fda575b506101476002557f7075626c69632d5946492d666c617368737761702d3e70726f6265206d696e745f516020612c475f395f51905f52557f2872656365697665722c582920616e64206275726e2873686172657329206f6e7f405787fa12a823e0f2b7631cc41b3ba8828b3321ca811111fa75cd3aa3bb5acf557f206c69766520706f6f6c2d3e7374616765312073686f72742d726563656976657f405787fa12a823e0f2b7631cc41b3ba8828b3321ca811111fa75cd3aa3bb5ad0557f20616273656e74206f6e205946492d3e7265616c697a6520666c6173687377617f405787fa12a823e0f2b7631cc41b3ba8828b3321ca811111fa75cd3aa3bb5ad1557f702070726f666974207468726f756768207075626c69632059464920726f75747f405787fa12a823e0f2b7631cc41b3ba8828b3321ca811111fa75cd3aa3bb5ad25562696e6760e81b7f405787fa12a823e0f2b7631cc41b3ba8828b3321ca811111fa75cd3aa3bb5ad35580f35b60028252601f0160051c5f516020612c475f395f51905f52017f405787fa12a823e0f2b7631cc41b3ba8828b3321ca811111fa75cd3aa3bb5ad45b8181106110225750610e6b565b828155600101611015565b60018252601f0160051c5f516020612ca75f395f51905f52017fb10e2d527612073b26eecdfd717e6a320cf44b4afac2b0732d9fcbe2b7fa0cf85b8181106110755750610df6565b828155600101611068565b60405162461bcd60e51b81526020600482015260096024820152681393d7d41493d1925560ba1b6044820152606490fd5b506020813d6020116110e6575b816110cb60209383611f3c565b810103126110e25766038d7ea4c680009051610c11565b5f80fd5b3d91506110be565b6040513d84823e3d90fd5b8161110391611f3c565b6100eb578082610bd8565b505050fd5b5190823b1561110e576111419284928360405180968195829463022c0d9f60e01b8452309060048501611fb5565b03925af180156110ee57611157575b5050610bdb565b8161116191611f3c565b6100eb578082611150565b611185915060203d60201161085a5761084b8183611f3c565b87610b8c565b60405162461bcd60e51b81526020600482015260136024820152724e4f5f50524f46495441424c455f524f55544560681b6044820152606490fd5b60405162461bcd60e51b81526020600482015260086024820152674e4f5f524f55544560c01b6044820152606490fd5b634e487b7160e01b82526041600452602482fd5b634e487b7160e01b84526041600452602484fd5b60405162461bcd60e51b815260206004820152600e60248201526d1054141493d59157d1905253115160921b6044820152606490fd5b8051801592508215611269575b50505f6103fe565b61127c925060208091830101910161208e565b5f80611261565b60405162461bcd60e51b8152602060048201526015602482015274554e45585045435445445f554e4445524c59494e4760581b6044820152606490fd5b6112d9915060203d60201161085a5761084b8183611f3c565b5f610374565b60405162461bcd60e51b815260206004820152601060248201526f1053149150511657d1561150d555115160821b6044820152606490fd5b50346100eb57806003193601126100eb5760ff60209154166040519015158152f35b50346100eb57806003193601126100eb5760405190806001549061135c82611eb7565b80855291600181169081156101e25750600114611383576101948461018081860382611f3c565b600181525f516020612ca75f395f51905f52939250905b8082106113b35750909150810160200161018082610170565b91926001816020925483858801015201910190929161139a565b50346110e25760803660031901126110e2576004356001600160a01b038116908190036110e2576024356064359167ffffffffffffffff83116110e257366023840112156110e257826004013567ffffffffffffffff81116110e2578301903660248301116110e2573003611e62576006546001600160a01b03163303611e3257608090839003126110e25761146560248301611f82565b61147160448401611f82565b9061147e60648501611f82565b6001600160a01b03908116939181169216908015611e2657608490945b01358403611df45761271084048015611dec575b6040516370a0823160e01b8152737f3fe9d492a9a60aebb06d82cba23c6f32cad10b60048201526020816024815f516020612c875f395f51905f525afa908115611c41575f91611dba575b506040516370a0823160e01b815230600482015290602082602481737f3fe9d492a9a60aebb06d82cba23c6f32cad10b5afa918215611c41575f92611d86575b506040516340c10f1960e01b8152306004820152602481018490526020816044815f737f3fe9d492a9a60aebb06d82cba23c6f32cad10b5af18015611c4157611d57575b506040516370a0823160e01b8152737f3fe9d492a9a60aebb06d82cba23c6f32cad10b6004820152906020826024815f516020612c875f395f51905f525afa8015611c41575f90611d23575b6115d4925061202e565b600455604051906370a0823160e01b8252306004830152602082602481737f3fe9d492a9a60aebb06d82cba23c6f32cad10b5afa8015611c41575f90611cef575b61161f925061202e565b908115611cbd57604051632770a7eb60e21b815230600482015260248101929092526020826044815f737f3fe9d492a9a60aebb06d82cba23c6f32cad10b5af1918215611c41575f92611c89575b50816005556004549081109182611c7f575b505015611c6b5761010062ffff00195f5416175f555b5f516020612c675f395f51905f52830361195a57509050826116dc6116d55f516020612c675f395f51905f525f516020612c875f395f51905f52856127e2565b90856129c4565b916116f584825f516020612c875f395f51905f526120a6565b604051630dfe168160e01b8152602081600481855afa8015610a5f575f516020612c875f395f51905f5291849161193b575b506001600160a01b0316036118c55760405190611745602083611f3c565b8282525f366020840137803b156118c15760405163022c0d9f60e01b8152918391839182908490829061177d90308b60048501611fb5565b03925af180156110ee576118ac575b50506117a5905b915b61179e33612171565b9091612a65565b809111156118785760405163a9059cbb60e01b602082019081523360248301526044820192909252829182916117e881606481015b03601f198101835282611f3c565b5190825f516020612c675f395f51905f525af161180361204f565b81611849575b50156118125780f35b60405162461bcd60e51b815260206004820152600f60248201526e1514905394d1915497d19052531151608a1b6044820152606490fd5b805180159250821561185e575b50505f611809565b611871925060208091830101910161208e565b5f80611856565b60405162461bcd60e51b815260206004820152600c60248201526b554e50524f46495441424c4560a01b6044820152606490fd5b816118b691611f3c565b6118c157825f61178c565b8280fd5b604051906118d4602083611f3c565b8282525f366020840137803b156118c15760405163022c0d9f60e01b8152918391839182908490829061190c90308b60048501611fe2565b03925af180156110ee57611926575b50506117a590611793565b8161193091611f3c565b6118c157825f61191b565b611954915060203d60201161085a5761084b8183611f3c565b5f611727565b61197c611975845f516020612c875f395f51905f52856127e2565b90866129c4565b9261199585845f516020612c875f395f51905f526120a6565b604051630dfe168160e01b815292602084600481845afa938415611c415787945f516020612c875f395f51905f52915f91611c4c575b506001600160a01b031603611bc757604051906119e9602083611f3c565b8482525f366020840137803b15611bc35760405163022c0d9f60e01b81529185918391829084908290611a2190308d60048501611fb5565b03925af1908115611ba3578491611bae575b50505b611a63611a5b611a545f516020612c675f395f51905f5284866127e2565b90876129c4565b9483836120a6565b604051630dfe168160e01b8152602081600481865afa908115611ba3578491611b84575b506001600160a01b031603611b0e5760405190611aa5602083611f3c565b8282525f366020840137803b156118c15760405163022c0d9f60e01b81529183918391829084908290611add90308b60048501611fb5565b03925af180156110ee57611af9575b50506117a5905b91611795565b81611b0391611f3c565b6118c157825f611aec565b60405190611b1d602083611f3c565b8282525f366020840137803b156118c15760405163022c0d9f60e01b81529183918391829084908290611b5590308b60048501611fe2565b03925af180156110ee57611b6f575b50506117a590611af3565b81611b7991611f3c565b6118c157825f611b64565b611b9d915060203d60201161085a5761084b8183611f3c565b5f611a87565b6040513d86823e3d90fd5b81611bb891611f3c565b6118c157825f611a33565b8480fd5b9091925060405190611bda602083611f3c565b5f808352366020840137803b156110e25760405163022c0d9f60e01b8152915f918391829084908290611c1290308c60048501611fe2565b03925af18015611c4157611c2a575b50908491611a36565b611c38919295505f90611f3c565b5f93905f611c21565b6040513d5f823e3d90fd5b611c65915060203d60201161085a5761084b8183611f3c565b5f6119cb565b6201000062ffff00195f5416175f55611695565b1190505f8061167f565b9091506020813d602011611cb5575b81611ca560209383611f3c565b810103126110e25751905f61166d565b3d9150611c98565b60405162461bcd60e51b815260206004820152600a6024820152694e4f5f49544f4b454e5360b01b6044820152606490fd5b506020823d602011611d1b575b81611d0960209383611f3c565b810103126110e25761161f9151611615565b3d9150611cfc565b506020823d602011611d4f575b81611d3d60209383611f3c565b810103126110e2576115d491516115ca565b3d9150611d30565b6020813d602011611d7e575b81611d7060209383611f3c565b810103126110e2575161157e565b3d9150611d63565b9091506020813d602011611db2575b81611da260209383611f3c565b810103126110e25751905f61153a565b3d9150611d95565b90506020813d602011611de4575b81611dd560209383611f3c565b810103126110e257515f6114fa565b3d9150611dc8565b5060016114af565b60405162461bcd60e51b815260206004820152600a60248201526910905117d05353d5539560b21b6044820152606490fd5b5060846044359461149b565b60405162461bcd60e51b81526020600482015260086024820152672120a22fa820a4a960c11b6044820152606490fd5b60405162461bcd60e51b815260206004820152600a6024820152692120a22fa9a2a72222a960b11b6044820152606490fd5b346110e2575f3660031901126110e2576009546001600160a01b03168152602090f35b90600182811c92168015611ee5575b6020831014611ed157565b634e487b7160e01b5f52602260045260245ffd5b91607f1691611ec6565b60c0810190811067ffffffffffffffff821117611f0b57604052565b634e487b7160e01b5f52604160045260245ffd5b610240810190811067ffffffffffffffff821117611f0b57604052565b90601f8019910116810190811067ffffffffffffffff821117611f0b57604052565b805180835260209291819084018484015e5f828201840152601f01601f1916010190565b35906001600160a01b03821682036110e257565b908160209103126110e257516001600160a01b03811681036110e25790565b611fdf93926080925f8352602083015260018060a01b031660408201528160608201520190611f5e565b90565b9081525f60208201526001600160a01b039091166040820152608060608201819052611fdf92910190611f5e565b811561201a570490565b634e487b7160e01b5f52601260045260245ffd5b9190820391821161203b57565b634e487b7160e01b5f52601160045260245ffd5b3d15612089573d9067ffffffffffffffff8211611f0b576040519161207e601f8201601f191660200184611f3c565b82523d5f602084013e565b606090565b908160209103126110e2575180151581036110e25790565b60405163a9059cbb60e01b602082019081526001600160a01b03909316602482015260448101939093525f9283929083906120e481606481016117da565b51925af16120f061204f565b816120fe575b501561181257565b8051801592508215612113575b50505f6120f6565b612126925060208091830101910161208e565b5f8061210b565b6040519061213a82611eef565b5f60a0838281528260208201528260408201528260608201528260808201520152565b51906001600160701b03821682036110e257565b604051630240bc6b60e21b815291906001600160a01b0316606083600481845afa908115611c41575f935f92612393575b50604051630dfe168160e01b8152602081600481855afa8015611c41575f516020612c875f395f51905f52915f91612374575b506001600160a01b03161480612312575b61230157604051630dfe168160e01b8152602081600481855afa8015611c41575f516020612c675f395f51905f52915f916122e2575b506001600160a01b031614908161227b575b5015612244576001600160701b03809116921690565b60405162461bcd60e51b815260206004820152600f60248201526e4241445f504149525f544f4b454e5360881b6044820152606490fd5b60405163d21220a760e01b81529150602090829060049082905afa8015611c41575f516020612c875f395f51905f52915f916122c3575b506001600160a01b0316145f61222e565b6122dc915060203d60201161085a5761084b8183611f3c565b5f6122b2565b6122fb915060203d60201161085a5761084b8183611f3c565b5f61221c565b506001600160701b03928316921690565b5060405163d21220a760e01b8152602081600481855afa8015611c41575f516020612c675f395f51905f52915f91612355575b506001600160a01b0316146121e6565b61236e915060203d60201161085a5761084b8183611f3c565b5f612345565b61238d915060203d60201161085a5761084b8183611f3c565b5f6121d5565b935090506060833d6060116123e6575b816123b060609383611f3c565b810103126110e2576123c18361215d565b60406123cf6020860161215d565b94015163ffffffff8116036110e25792905f6121a2565b3d91506123a3565b604051630240bc6b60e21b81529291906001600160a01b0316606084600481845afa918215611c41575f945f93612562575b50604051630dfe168160e01b8152602081600481865afa8015611c41575f516020612c875f395f51905f52915f91612543575b506001600160a01b031614806124eb575b6124d957604051630dfe168160e01b815290602082600481865afa918215611c41575f926124b8575b506001600160a01b03918216911614908161227b575015612244576001600160701b03809116921690565b6124d291925060203d60201161085a5761084b8183611f3c565b905f61248d565b50506001600160701b03928316921690565b5060405163d21220a760e01b8152602081600481865afa908115611c41575f91612524575b506001600160a01b03828116911614612464565b61253d915060203d60201161085a5761084b8183611f3c565b5f612510565b61255c915060203d60201161085a5761084b8183611f3c565b5f612453565b945091506060843d6060116125b5575b8161257f60609383611f3c565b810103126110e2576125908461215d565b604061259e6020870161215d565b95015163ffffffff8116036110e25793915f612420565b3d9150612572565b604051630240bc6b60e21b81529291906001600160a01b0316606084600481845afa918215611c41575f945f93612787575b50604051630dfe168160e01b815290602082600481865afa918215611c41575f92612766575b506001600160a01b039081169116811480612704575b6124d957604051630dfe168160e01b8152602081600481865afa8015611c41575f516020612c675f395f51905f52915f916126e5575b506001600160a01b031614918261268a575b505015612244576001600160701b03809116921690565b60405163d21220a760e01b8152919250602090829060049082905afa908115611c41575f916126c6575b506001600160a01b0316145f80612673565b6126df915060203d60201161085a5761084b8183611f3c565b5f6126b4565b6126fe915060203d60201161085a5761084b8183611f3c565b5f612661565b5060405163d21220a760e01b8152602081600481865afa8015611c41575f516020612c675f395f51905f52915f91612747575b506001600160a01b03161461262b565b612760915060203d60201161085a5761084b8183611f3c565b5f612737565b61278091925060203d60201161085a5761084b8183611f3c565b905f612615565b945091506060843d6060116127da575b816127a460609383611f3c565b810103126110e2576127b58461215d565b60406127c36020870161215d565b95015163ffffffff8116036110e25793915f6125ef565b3d9150612797565b604051630240bc6b60e21b81529392916001600160a01b0390911690606085600481855afa928315611c41575f955f94612956575b50604051630dfe168160e01b815291602083600481875afa928315611c41575f93612935575b506001600160a01b0390811692168214806128dd575b6128c957604051630dfe168160e01b815290602082600481875afa918215611c41575f926128a8575b506001600160a01b03918216911614918261268a57505015612244576001600160701b03809116921690565b6128c291925060203d60201161085a5761084b8183611f3c565b905f61287c565b505050916001600160701b03809116921690565b5060405163d21220a760e01b8152602081600481875afa908115611c41575f91612916575b506001600160a01b03828116911614612853565b61292f915060203d60201161085a5761084b8183611f3c565b5f612902565b61294f91935060203d60201161085a5761084b8183611f3c565b915f61283d565b955092506060853d6060116129a9575b8161297360609383611f3c565b810103126110e2576129848561215d565b60406129926020880161215d565b96015163ffffffff8116036110e25794925f612817565b3d9150612966565b8181029291811591840414171561203b57565b918215801580612a5c575b80612a53575b15612a1e576103e584029384046103e514171561203b576129f690836129b1565b916103e88202918083046103e8149015171561203b57810180911161203b57611fdf91612010565b60405162461bcd60e51b815260206004820152600d60248201526c4241445f4f55545f51554f544560981b6044820152606490fd5b508115156129d5565b508215156129cf565b919082151580612b0d575b80612b04575b15612ad05782612a85916129b1565b916103e88302928084046103e8149015171561203b57612aa49161202e565b6103e58102908082046103e5149015171561203b57612ac291612010565b6001810180911161203b5790565b60405162461bcd60e51b815260206004820152600c60248201526b4241445f494e5f51554f544560a01b6044820152606490fd5b50828211612a76565b50801515612a70565b92612b31612b2982939495979697612171565b9390946123ee565b909684158015612c3e575b8015612c36575b8015612c2e575b612c1657612b589085612010565b9687158015612c24575b612c165790612b7191886129c4565b908115612c0157909384919073c02aaa39b223fe8d0a0e5c4f27ead9083c756cc1196001600160a01b03831601612bce575b50505090612bb19185612a65565b9081811115612bc45790611fdf9161202e565b505090505f905f90565b612bda929395506125bd565b9181158015612c0e575b612c015791612bf791612bb194936129c4565b9290915f80612ba3565b505050505090505f905f90565b508215612be4565b50505050505090505f905f90565b5084881015612b62565b508115612b4a565b508715612b43565b508315612b3c56fe405787fa12a823e0f2b7631cc41b3ba8828b3321ca811111fa75cd3aa3bb5ace000000000000000000000000c02aaa39b223fe8d0a0e5c4f27ead9083c756cc20000000000000000000000000bc529c00c6401aef6d220be8c6ea1667f6ad93eb10e2d527612073b26eecdfd717e6a320cf44b4afac2b0732d9fcbe2b7fa0cf6a26469706673582212202f8b1df2abd9485a4830ba57b00fd42311c14c64e189c5bfd27a68658412c65764736f6c634300081e0033","linkReferences":{}},"methodIdentifiers":{"attackerSpendAmount()":"ec32918a","bridgePair()":"4e806f4f","burnReturnAmount()":"ffab559c","executeOnOpportunity()":"3c2448ed","executed()":"31a38c89","exitPair()":"de7dc9b9","exploitPathUsed()":"d78c4281","flashPair()":"6f98fb5d","hypothesisRefuted()":"495f92f1","hypothesisValidated()":"463defd1","loanToken()":"06d37817","poolReceiveAmount()":"49327e5e","profitAmount()":"5ff972cc","profitToken()":"49343624","status()":"200d2ed2","uniswapV2Call(address,uint256,uint256,bytes)":"10d1e85c"},"id":0}