{"abi":[{"type":"constructor","inputs":[{"name":"game_","type":"address","internalType":"contract IGameAuction"},{"name":"verifier_","type":"address","internalType":"address"}],"stateMutability":"payable"},{"type":"receive","stateMutability":"payable"},{"type":"function","name":"bid","inputs":[{"name":"amount","type":"uint256","internalType":"uint256"}],"outputs":[],"stateMutability":"payable"},{"type":"function","name":"configureReentry","inputs":[{"name":"reentryBidAmount_","type":"uint256","internalType":"uint256"},{"name":"reentriesRemaining_","type":"uint256","internalType":"uint256"},{"name":"armed_","type":"bool","internalType":"bool"}],"outputs":[],"stateMutability":"nonpayable"},{"type":"function","name":"sweep","inputs":[],"outputs":[],"stateMutability":"nonpayable"}],"bytecode":{"object":"0x60c0601f61046e38819003918201601f19168301916001600160401b0383118484101761009f57808492604094855283398101031261009b578051906001600160a01b038216820361009b5760200151906001600160a01b038216820361009b5760805260a0526040516103ba90816100b48239608051818181601a01526101bc015260a0518181816101200152818161018501526102630152f35b5f80fd5b634e487b7160e01b5f52604160045260245ffdfe608060405260043610156100d0575b3615610018575f80fd5b7f00000000000000000000000000000000000000000000000000000000000000006001600160a01b0316338114806100c4575b806100b9575b806100ae575b61005d57005b6001545f19016001555f5490803b156100aa575f90600460405180948193631e61c6cb60e31b83525af1801561009f5761009357005b5f61009d91610362565b005b6040513d5f823e3d90fd5b5f80fd5b50475f541115610057565b506001541515610051565b5060ff6002541661004b565b5f5f3560e01c806335faa4161461024d578063454a2ab31461016f5763ec886ff3146100fc575061000e565b3461016c57606036600319011261016c5760443580151580910361016a5761014e337f00000000000000000000000000000000000000000000000000000000000000006001600160a01b031614610326565b600435825560243560015560ff80196002541691161760025580f35b505b80fd5b5060203660031901126100aa576004356101b3337f00000000000000000000000000000000000000000000000000000000000000006001600160a01b031614610326565b80340361021c577f00000000000000000000000000000000000000000000000000000000000000006001600160a01b0316803b156100aa575f90600460405180948193631e61c6cb60e31b83525af1801561009f57610210575080f35b61009d91505f90610362565b60405162461bcd60e51b81526020600482015260096024820152686261642076616c756560b81b6044820152606490fd5b346100aa575f3660031901126100aa575f8080807f00000000000000000000000000000000000000000000000000000000000000006001600160a01b0316610296338214610326565b47905af13d15610321573d67ffffffffffffffff811161030d57604051906102c8601f8201601f191660200183610362565b81525f60203d92013e5b156102d957005b60405162461bcd60e51b815260206004820152600c60248201526b1cddd9595c0819985a5b195960a21b6044820152606490fd5b634e487b7160e01b5f52604160045260245ffd5b6102d2565b1561032d57565b60405162461bcd60e51b815260206004820152600d60248201526c37b7363c903b32b934b334b2b960991b6044820152606490fd5b90601f8019910116810190811067ffffffffffffffff82111761030d5760405256fea26469706673582212201d00741744374172aee89b236b560743238d1f93cd171d18e6ddc3b284835cbf64736f6c634300081e0033","linkReferences":{}},"methodIdentifiers":{"bid(uint256)":"454a2ab3","configureReentry(uint256,uint256,bool)":"ec886ff3","sweep()":"35faa416"},"id":0}