{"abi":[{"type":"constructor","inputs":[{"name":"game_","type":"address","internalType":"contract IGameAuction"},{"name":"verifier_","type":"address","internalType":"address"}],"stateMutability":"payable"},{"type":"receive","stateMutability":"payable"},{"type":"function","name":"bid","inputs":[{"name":"amount","type":"uint256","internalType":"uint256"}],"outputs":[],"stateMutability":"payable"}],"bytecode":{"object":"0x60c0601f61027138819003918201601f19168301916001600160401b0383118484101760855780849260409485528339810103126081578051906001600160a01b038216820360815760200151906001600160a01b038216820360815760805260a0526040516101d7908161009a82396080518160b1015260a0518160790152f35b5f80fd5b634e487b7160e01b5f52604160045260245ffdfe6080806040526004361015610050575b50361561001a575f80fd5b60405162461bcd60e51b815260206004820152600e60248201526d1c99599d5b9908189b1bd8dad95960921b6044820152606490fd5b5f905f3560e01c63454a2ab314610067575061000f565b602036600319011261013a57600435907f00000000000000000000000000000000000000000000000000000000000000006001600160a01b0316330361016f575080340361013e577f00000000000000000000000000000000000000000000000000000000000000006001600160a01b0316803b1561013a575f90600460405180948193631e61c6cb60e31b83525af1801561012f57610105575080f35b905067ffffffffffffffff811161011b57604052005b634e487b7160e01b5f52604160045260245ffd5b6040513d5f823e3d90fd5b5f80fd5b60405162461bcd60e51b81526020600482015260096024820152686261642076616c756560b81b6044820152606490fd5b62461bcd60e51b815260206004820152600d60248201526c37b7363c903b32b934b334b2b960991b6044820152606490fdfea2646970667358221220a4facadbc9fd63ae82832cfaa95177f9092393946a732a9e23d6e3b8d61ffb0464736f6c634300081e0033","linkReferences":{}},"methodIdentifiers":{"bid(uint256)":"454a2ab3"},"id":0}