{"abi":[{"type":"constructor","inputs":[{"name":"game_","type":"address","internalType":"contract IGameAuction"},{"name":"verifier_","type":"address","internalType":"address"}],"stateMutability":"payable"},{"type":"receive","stateMutability":"payable"},{"type":"function","name":"attemptBid","inputs":[{"name":"amount","type":"uint256","internalType":"uint256"}],"outputs":[{"name":"success","type":"bool","internalType":"bool"},{"name":"data","type":"bytes","internalType":"bytes"}],"stateMutability":"payable"},{"type":"function","name":"bid","inputs":[{"name":"amount","type":"uint256","internalType":"uint256"}],"outputs":[],"stateMutability":"payable"},{"type":"function","name":"sweep","inputs":[],"outputs":[],"stateMutability":"nonpayable"}],"bytecode":{"object":"0x60c0601f61044d38819003918201601f19168301916001600160401b0383118484101761009e57808492604094855283398101031261009a578051906001600160a01b038216820361009a5760200151906001600160a01b038216820361009a5760805260a05260405161039a90816100b3823960805181818160be015261017b015260a051818181605f0152818161014001526102000152f35b5f80fd5b634e487b7160e01b5f52604160045260245ffdfe6080604052600436101561001a575b3615610018575f80fd5b005b5f5f3560e01c806335faa416146101ea578063454a2ab31461012a5763687866b314610046575061000e565b6020366003190112610127576060818060043561008d337f00000000000000000000000000000000000000000000000000000000000000006001600160a01b03161461027b565b61009881341461032c565b604051631e61c6cb60e31b6020820190815260048252906100ba6024826102b7565b51917f00000000000000000000000000000000000000000000000000000000000000006001600160a01b03165af160206100f26102ed565b93604051948593151584526040838501528051928391826040870152018585015e828201840152601f01601f19168101030190f35b80fd5b5060203660031901126101e65760043561016e337f00000000000000000000000000000000000000000000000000000000000000006001600160a01b03161461027b565b61017981341461032c565b7f00000000000000000000000000000000000000000000000000000000000000006001600160a01b0316803b156101e6575f90600460405180948193631e61c6cb60e31b83525af180156101db576101cf575080f35b61001891505f906102b7565b6040513d5f823e3d90fd5b5f80fd5b346101e6575f3660031901126101e6575f8080807f00000000000000000000000000000000000000000000000000000000000000006001600160a01b031661023333821461027b565b47905af161023f6102ed565b501561024757005b60405162461bcd60e51b815260206004820152600c60248201526b1cddd9595c0819985a5b195960a21b6044820152606490fd5b1561028257565b60405162461bcd60e51b815260206004820152600d60248201526c37b7363c903b32b934b334b2b960991b6044820152606490fd5b90601f8019910116810190811067ffffffffffffffff8211176102d957604052565b634e487b7160e01b5f52604160045260245ffd5b3d15610327573d9067ffffffffffffffff82116102d9576040519161031c601f8201601f1916602001846102b7565b82523d5f602084013e565b606090565b1561033357565b60405162461bcd60e51b81526020600482015260096024820152686261642076616c756560b81b6044820152606490fdfea26469706673582212209b6c760ef156c46c09dcff7ad0997a3848c26f57b6959336202a9d78ec926cca64736f6c634300081e0033","linkReferences":{}},"methodIdentifiers":{"attemptBid(uint256)":"687866b3","bid(uint256)":"454a2ab3","sweep()":"35faa416"},"id":0}