{"abi":[{"type":"constructor","inputs":[],"stateMutability":"nonpayable"},{"type":"function","name":"MIM","inputs":[],"outputs":[{"name":"","type":"address","internalType":"address"}],"stateMutability":"view"},{"type":"function","name":"TARGET","inputs":[],"outputs":[{"name":"","type":"address","internalType":"contract ICauldronV4Like"}],"stateMutability":"view"},{"type":"function","name":"TARGET_CAULDRON","inputs":[],"outputs":[{"name":"","type":"address","internalType":"address"}],"stateMutability":"view"},{"type":"function","name":"borrowStageReached","inputs":[],"outputs":[{"name":"","type":"bool","internalType":"bool"}],"stateMutability":"view"},{"type":"function","name":"borrowedMimAmount","inputs":[],"outputs":[{"name":"","type":"uint256","internalType":"uint256"}],"stateMutability":"view"},{"type":"function","name":"borrowedMimPart","inputs":[],"outputs":[{"name":"","type":"uint256","internalType":"uint256"}],"stateMutability":"view"},{"type":"function","name":"borrowedMimShare","inputs":[],"outputs":[{"name":"","type":"uint256","internalType":"uint256"}],"stateMutability":"view"},{"type":"function","name":"cachedZeroWindowObserved","inputs":[],"outputs":[{"name":"","type":"bool","internalType":"bool"}],"stateMutability":"view"},{"type":"function","name":"collateralFlashAmount","inputs":[],"outputs":[{"name":"","type":"uint256","internalType":"uint256"}],"stateMutability":"view"},{"type":"function","name":"collateralFlashFee","inputs":[],"outputs":[{"name":"","type":"uint256","internalType":"uint256"}],"stateMutability":"view"},{"type":"function","name":"depositedCollateralShare","inputs":[],"outputs":[{"name":"","type":"uint256","internalType":"uint256"}],"stateMutability":"view"},{"type":"function","name":"executeOnOpportunity","inputs":[],"outputs":[{"name":"","type":"uint256","internalType":"uint256"}],"stateMutability":"nonpayable"},{"type":"function","name":"hypothesisRefuted","inputs":[],"outputs":[{"name":"","type":"bool","internalType":"bool"}],"stateMutability":"view"},{"type":"function","name":"hypothesisValidated","inputs":[],"outputs":[{"name":"","type":"bool","internalType":"bool"}],"stateMutability":"view"},{"type":"function","name":"lastError","inputs":[],"outputs":[{"name":"","type":"bytes","internalType":"bytes"}],"stateMutability":"view"},{"type":"function","name":"liquidateStageReached","inputs":[],"outputs":[{"name":"","type":"bool","internalType":"bool"}],"stateMutability":"view"},{"type":"function","name":"liquidationBlocked","inputs":[],"outputs":[{"name":"","type":"bool","internalType":"bool"}],"stateMutability":"view"},{"type":"function","name":"masterContractApprovalSet","inputs":[],"outputs":[{"name":"","type":"bool","internalType":"bool"}],"stateMutability":"view"},{"type":"function","name":"onFlashLoan","inputs":[{"name":"sender","type":"address","internalType":"address"},{"name":"token","type":"address","internalType":"contract IERC20Like"},{"name":"amount","type":"uint256","internalType":"uint256"},{"name":"fee","type":"uint256","internalType":"uint256"},{"name":"","type":"bytes","internalType":"bytes"}],"outputs":[],"stateMutability":"nonpayable"},{"type":"function","name":"oracleStageInfeasible","inputs":[],"outputs":[{"name":"","type":"bool","internalType":"bool"}],"stateMutability":"view"},{"type":"function","name":"oracleStageReached","inputs":[],"outputs":[{"name":"","type":"bool","internalType":"bool"}],"stateMutability":"view"},{"type":"function","name":"postUpdateExchangeRate","inputs":[],"outputs":[{"name":"","type":"uint256","internalType":"uint256"}],"stateMutability":"view"},{"type":"function","name":"postUpdateReturnedUpdated","inputs":[],"outputs":[{"name":"","type":"bool","internalType":"bool"}],"stateMutability":"view"},{"type":"function","name":"preUpdateExchangeRate","inputs":[],"outputs":[{"name":"","type":"uint256","internalType":"uint256"}],"stateMutability":"view"},{"type":"function","name":"profitAmount","inputs":[],"outputs":[{"name":"","type":"uint256","internalType":"uint256"}],"stateMutability":"view"},{"type":"function","name":"profitToken","inputs":[],"outputs":[{"name":"","type":"address","internalType":"address"}],"stateMutability":"pure"},{"type":"function","name":"removedCollateralShare","inputs":[],"outputs":[{"name":"","type":"uint256","internalType":"uint256"}],"stateMutability":"view"}],"bytecode":{"object":"0x6080604052348015600e575f5ffd5b506136cc8061001c5f395ff3fe608060405234801561000f575f5ffd5b50600436106101a7575f3560e01c80635fe98467116100f7578063bd7a598c11610095578063daec383d1161006f578063daec383d1461045b578063dcc8cd8314610479578063e7cda06d14610497578063e8c28fee146104b5576101a7565b8063bd7a598c14610401578063cc1f2afa1461041f578063cd0fa7fb1461043d576101a7565b80637c27e19f116100d15780637c27e19f146103895780638f86645d146103a75780639348a238146103c5578063b7021f77146103e3576101a7565b80635fe984671461032f5780635ff972cc1461034d5780636208fdd81461036b576101a7565b80633c2448ed11610164578063488a9fd51161013e578063488a9fd5146102b757806349343624146102d5578063495f92f1146102f35780635ca6dbc714610311576101a7565b80633c2448ed1461025d5780633f4d05ee1461027b578063463defd114610299576101a7565b806302de6717146101ab57806319b20a39146101c957806323e30c8b146101e757806329f0de3f146102035780632ac52cd9146102215780632d3939db1461023f575b5f5ffd5b6101b36104d3565b6040516101c0919061233c565b60405180910390f35b6101d16104e6565b6040516101de919061236d565b60405180910390f35b61020160048036038101906101fc91906124ae565b6104ec565b005b61020b610ed4565b60405161021891906125b4565b60405180910390f35b610229610f60565b604051610236919061236d565b60405180910390f35b610247610f66565b604051610254919061233c565b60405180910390f35b610265610f79565b604051610272919061236d565b60405180910390f35b610283611825565b604051610290919061236d565b60405180910390f35b6102a161182b565b6040516102ae919061233c565b60405180910390f35b6102bf61183e565b6040516102cc919061236d565b60405180910390f35b6102dd611844565b6040516102ea91906125e3565b60405180910390f35b6102fb61185f565b604051610308919061233c565b60405180910390f35b610319611872565b604051610326919061236d565b60405180910390f35b610337611878565b604051610344919061233c565b60405180910390f35b61035561188b565b604051610362919061236d565b60405180910390f35b610373611893565b604051610380919061236d565b60405180910390f35b610391611899565b60405161039e919061233c565b60405180910390f35b6103af6118ac565b6040516103bc919061236d565b60405180910390f35b6103cd6118b2565b6040516103da919061233c565b60405180910390f35b6103eb6118c5565b6040516103f8919061233c565b60405180910390f35b6104096118d8565b60405161041691906125e3565b60405180910390f35b6104276118f0565b6040516104349190612657565b60405180910390f35b610445611908565b604051610452919061236d565b60405180910390f35b61046361190e565b60405161047091906125e3565b60405180910390f35b610481611926565b60405161048e919061233c565b60405180910390f35b61049f611938565b6040516104ac919061236d565b60405180910390f35b6104bd61193e565b6040516104ca919061233c565b60405180910390f35b6001600a9054906101000a900460ff1681565b600a5481565b6001808111156104ff576104fe612670565b5b60018054906101000a900460ff16600181111561051f5761051e612670565b5b1461055f576040517f08c379a0000000000000000000000000000000000000000000000000000000008152600401610556906126f7565b60405180910390fd5b7346f54d434063e5f1a2b2cc6d9aaa657b1b9ff82c73ffffffffffffffffffffffffffffffffffffffff16636b2ace876040518163ffffffff1660e01b8152600401602060405180830381865afa1580156105bc573d5f5f3e3d5ffd5b505050506040513d601f19601f820116820180604052508101906105e09190612729565b73ffffffffffffffffffffffffffffffffffffffff163373ffffffffffffffffffffffffffffffffffffffff161461064d576040517f08c379a00000000000000000000000000000000000000000000000000000000081526004016106449061279e565b60405180910390fd5b3073ffffffffffffffffffffffffffffffffffffffff168673ffffffffffffffffffffffffffffffffffffffff16146106bb576040517f08c379a00000000000000000000000000000000000000000000000000000000081526004016106b290612806565b60405180910390fd5b7346f54d434063e5f1a2b2cc6d9aaa657b1b9ff82c73ffffffffffffffffffffffffffffffffffffffff1663d8dfeb456040518163ffffffff1660e01b8152600401602060405180830381865afa158015610718573d5f5f3e3d5ffd5b505050506040513d601f19601f8201168201806040525081019061073c9190612729565b73ffffffffffffffffffffffffffffffffffffffff168573ffffffffffffffffffffffffffffffffffffffff16146107a9576040517f08c379a00000000000000000000000000000000000000000000000000000000081526004016107a09061286e565b60405180910390fd5b83600581905550826006819055506107c2853386611951565b5f3373ffffffffffffffffffffffffffffffffffffffff166302b9446c873030895f6040518663ffffffff1660e01b81526004016108049594939291906128e5565b60408051808303815f875af115801561081f573d5f5f3e3d5ffd5b505050506040513d601f19601f82011682018060405250810190610843919061294a565b9150505f8103610888576040517f08c379a000000000000000000000000000000000000000000000000000000000815260040161087f906129d2565b60405180910390fd5b7346f54d434063e5f1a2b2cc6d9aaa657b1b9ff82c73ffffffffffffffffffffffffffffffffffffffff1663860ffea1305f846040518463ffffffff1660e01b81526004016108d9939291906129f0565b5f604051808303815f87803b1580156108f0575f5ffd5b505af1158015610902573d5f5f3e3d5ffd5b50505050806007819055505f610916611a58565b90505f810361095a576040517f08c379a000000000000000000000000000000000000000000000000000000000815260040161095190612a6f565b60405180910390fd5b5f5f7346f54d434063e5f1a2b2cc6d9aaa657b1b9ff82c73ffffffffffffffffffffffffffffffffffffffff16634b8a352930856040518363ffffffff1660e01b81526004016109ab929190612a8d565b60408051808303815f875af11580156109c6573d5f5f3e3d5ffd5b505050506040513d601f19601f820116820180604052508101906109ea919061294a565b915091508260098190555081600a8190555080600b8190555060018060036101000a81548160ff0219169083151502179055505f8114610abb573373ffffffffffffffffffffffffffffffffffffffff166397da6d307399d8a9c45b2eca8864373a26d1459e3dff1e17f330305f866040518663ffffffff1660e01b8152600401610a79959493929190612ab4565b60408051808303815f875af1158015610a94573d5f5f3e3d5ffd5b505050506040513d601f19601f82011682018060405250810190610ab8919061294a565b50505b5f600167ffffffffffffffff811115610ad757610ad6612b05565b5b604051908082528060200260200182016040528015610b055781602001602082028036833780820191505090505b50905030815f81518110610b1c57610b1b612b32565b5b602002602001019073ffffffffffffffffffffffffffffffffffffffff16908173ffffffffffffffffffffffffffffffffffffffff16815250505f600167ffffffffffffffff811115610b7257610b71612b05565b5b604051908082528060200260200182016040528015610ba05781602001602082028036833780820191505090505b50905083815f81518110610bb757610bb6612b32565b5b6020026020010181815250507346f54d434063e5f1a2b2cc6d9aaa657b1b9ff82c73ffffffffffffffffffffffffffffffffffffffff1663ff6ff84b8383305f60405180602001604052805f8152506040518663ffffffff1660e01b8152600401610c26959493929190612ced565b5f604051808303815f87803b158015610c3d575f5ffd5b505af1925050508015610c4e575060015b610c715760018060056101000a81548160ff021916908315150217905550610c8c565b5f600160056101000a81548160ff0219169083151502179055505b60018060046101000a81548160ff0219169083151502179055505f60018711610cb55786610cb8565b60015b90505f8188610cc79190612d80565b90505f8114610dd6577346f54d434063e5f1a2b2cc6d9aaa657b1b9ff82c73ffffffffffffffffffffffffffffffffffffffff1663876467f830836040518363ffffffff1660e01b8152600401610d1f929190612a8d565b5f604051808303815f87803b158015610d36575f5ffd5b505af1158015610d48573d5f5f3e3d5ffd5b50505050806008819055503373ffffffffffffffffffffffffffffffffffffffff166397da6d308e30305f866040518663ffffffff1660e01b8152600401610d94959493929190612ab4565b60408051808303815f875af1158015610daf573d5f5f3e3d5ffd5b505050506040513d601f19601f82011682018060405250810190610dd3919061294a565b50505b8c73ffffffffffffffffffffffffffffffffffffffff1663a9059cbb338d8f610dff9190612db3565b6040518363ffffffff1660e01b8152600401610e1c929190612a8d565b6020604051808303815f875af1158015610e38573d5f5f3e3d5ffd5b505050506040513d601f19601f82011682018060405250810190610e5c9190612e10565b610e9b576040517f08c379a0000000000000000000000000000000000000000000000000000000008152600401610e9290612e85565b60405180910390fd5b5f6001806101000a81548160ff02191690836001811115610ebf57610ebe612670565b5b02179055505050505050505050505050505050565b600c8054610ee190612ed0565b80601f0160208091040260200160405190810160405280929190818152602001828054610f0d90612ed0565b8015610f585780601f10610f2f57610100808354040283529160200191610f58565b820191905f5260205f20905b815481529060010190602001808311610f3b57829003601f168201915b505050505081565b60075481565b600160089054906101000a900460ff1681565b5f60015f9054906101000a900460ff1615610f97575f549050611822565b6001805f6101000a81548160ff0219169083151502179055507399d8a9c45b2eca8864373a26d1459e3dff1e17f373ffffffffffffffffffffffffffffffffffffffff167346f54d434063e5f1a2b2cc6d9aaa657b1b9ff82c73ffffffffffffffffffffffffffffffffffffffff16639b352ae16040518163ffffffff1660e01b8152600401602060405180830381865afa158015611038573d5f5f3e3d5ffd5b505050506040513d601f19601f8201168201806040525081019061105c9190612729565b73ffffffffffffffffffffffffffffffffffffffff16146110b2576040517f08c379a00000000000000000000000000000000000000000000000000000000081526004016110a990612f4a565b60405180910390fd5b7346f54d434063e5f1a2b2cc6d9aaa657b1b9ff82c73ffffffffffffffffffffffffffffffffffffffff16633ba0b9a96040518163ffffffff1660e01b8152600401602060405180830381865afa15801561110f573d5f5f3e3d5ffd5b505050506040513d601f19601f820116820180604052508101906111339190612f68565b6002819055507346f54d434063e5f1a2b2cc6d9aaa657b1b9ff82c73ffffffffffffffffffffffffffffffffffffffff166302ce728f6040518163ffffffff1660e01b815260040160408051808303815f875af19250505080156111b557506040513d601f19601f820116820180604052508101906111b29190612f93565b60015b611236573d805f81146111e3576040519150601f19603f3d011682016040523d82523d5f602084013e6111e8565b606091505b5080600c90816111f89190613168565b5060018060096101000a81548160ff02191690831515021790555060018060076101000a81548160ff0219169083151502179055505f915050611822565b60018060026101000a81548160ff0219169083151502179055508160045f6101000a81548160ff021916908315150217905550806003819055505f8114806112fd57505f7346f54d434063e5f1a2b2cc6d9aaa657b1b9ff82c73ffffffffffffffffffffffffffffffffffffffff16633ba0b9a96040518163ffffffff1660e01b8152600401602060405180830381865afa1580156112d7573d5f5f3e3d5ffd5b505050506040513d601f19601f820116820180604052508101906112fb9190612f68565b145b600160086101000a81548160ff0219169083151502179055505050600160089054906101000a900460ff166113685760018060096101000a81548160ff02191690831515021790555060018060076101000a81548160ff0219169083151502179055505f9050611822565b611370611fcd565b5f7346f54d434063e5f1a2b2cc6d9aaa657b1b9ff82c73ffffffffffffffffffffffffffffffffffffffff1663d8dfeb456040518163ffffffff1660e01b8152600401602060405180830381865afa1580156113ce573d5f5f3e3d5ffd5b505050506040513d601f19601f820116820180604052508101906113f29190612729565b90505f7346f54d434063e5f1a2b2cc6d9aaa657b1b9ff82c73ffffffffffffffffffffffffffffffffffffffff16636b2ace876040518163ffffffff1660e01b8152600401602060405180830381865afa158015611452573d5f5f3e3d5ffd5b505050506040513d601f19601f820116820180604052508101906114769190612729565b73ffffffffffffffffffffffffffffffffffffffff166356623118836001806040518463ffffffff1660e01b81526004016114b393929190613270565b602060405180830381865afa1580156114ce573d5f5f3e3d5ffd5b505050506040513d601f19601f820116820180604052508101906114f29190612f68565b90505f81146115015780611504565b60015b60058190555060018060016101000a81548160ff0219169083600181111561152f5761152e612670565b5b02179055507346f54d434063e5f1a2b2cc6d9aaa657b1b9ff82c73ffffffffffffffffffffffffffffffffffffffff16636b2ace876040518163ffffffff1660e01b8152600401602060405180830381865afa158015611591573d5f5f3e3d5ffd5b505050506040513d601f19601f820116820180604052508101906115b59190612729565b73ffffffffffffffffffffffffffffffffffffffff1663f1676d3730308560055460405180602001604052805f8152506040518663ffffffff1660e01b81526004016116059594939291906132c5565b5f604051808303815f87803b15801561161c575f5ffd5b505af192505050801561162d575060015b6116a0573d805f811461165b576040519150601f19603f3d011682016040523d82523d5f602084013e611660565b606091505b505f6001806101000a81548160ff0219169083600181111561168557611684612670565b5b021790555080600c90816116999190613168565b50506116ca565b5f6001806101000a81548160ff021916908360018111156116c4576116c3612670565b5b02179055505b5f7399d8a9c45b2eca8864373a26d1459e3dff1e17f373ffffffffffffffffffffffffffffffffffffffff166370a08231306040518263ffffffff1660e01b815260040161171891906125e3565b602060405180830381865afa158015611733573d5f5f3e3d5ffd5b505050506040513d601f19601f820116820180604052508101906117579190612f68565b9050805f819055505f5f541415801561177c5750600160039054906101000a900460ff165b80156117945750600160049054906101000a900460ff165b80156117ac5750600160059054906101000a900460ff165b156117ea5760018060066101000a81548160ff0219169083151502179055505f600160076101000a81548160ff02191690831515021790555061181a565b600160089054906101000a900460ff166118195760018060076101000a81548160ff0219169083151502179055505b5b5f5493505050505b90565b60065481565b600160069054906101000a900460ff1681565b60055481565b5f7399d8a9c45b2eca8864373a26d1459e3dff1e17f3905090565b600160079054906101000a900460ff1681565b60035481565b600160099054906101000a900460ff1681565b5f5f54905090565b600b5481565b600160039054906101000a900460ff1681565b60085481565b600160049054906101000a900460ff1681565b600160059054906101000a900460ff1681565b7346f54d434063e5f1a2b2cc6d9aaa657b1b9ff82c81565b7346f54d434063e5f1a2b2cc6d9aaa657b1b9ff82c81565b60025481565b7399d8a9c45b2eca8864373a26d1459e3dff1e17f381565b60045f9054906101000a900460ff1681565b60095481565b600160029054906101000a900460ff1681565b6119d28363095ea7b360e01b845f604051602401611970929190613359565b604051602081830303815290604052907bffffffffffffffffffffffffffffffffffffffffffffffffffffffff19166020820180517bffffffffffffffffffffffffffffffffffffffffffffffffffffffff83818316178352505050506121f2565b611a538363095ea7b360e01b84846040516024016119f1929190612a8d565b604051602081830303815290604052907bffffffffffffffffffffffffffffffffffffffffffffffffffffffff19166020820180517bffffffffffffffffffffffffffffffffffffffffffffffffffffffff83818316178352505050506121f2565b505050565b5f5f7346f54d434063e5f1a2b2cc6d9aaa657b1b9ff82c73ffffffffffffffffffffffffffffffffffffffff16636b2ace876040518163ffffffff1660e01b8152600401602060405180830381865afa158015611ab7573d5f5f3e3d5ffd5b505050506040513d601f19601f82011682018060405250810190611adb9190612729565b90505f8173ffffffffffffffffffffffffffffffffffffffff1663f7888aec7399d8a9c45b2eca8864373a26d1459e3dff1e17f37346f54d434063e5f1a2b2cc6d9aaa657b1b9ff82c6040518363ffffffff1660e01b8152600401611b41929190613380565b602060405180830381865afa158015611b5c573d5f5f3e3d5ffd5b505050506040513d601f19601f82011682018060405250810190611b809190612f68565b90505f8273ffffffffffffffffffffffffffffffffffffffff1663566231187399d8a9c45b2eca8864373a26d1459e3dff1e17f3845f6040518463ffffffff1660e01b8152600401611bd4939291906133a7565b602060405180830381865afa158015611bef573d5f5f3e3d5ffd5b505050506040513d601f19601f82011682018060405250810190611c139190612f68565b90505f8103611c27575f9350505050611fca565b5f5f7346f54d434063e5f1a2b2cc6d9aaa657b1b9ff82c73ffffffffffffffffffffffffffffffffffffffff1663e551d11d6040518163ffffffff1660e01b81526004016040805180830381865afa158015611c85573d5f5f3e3d5ffd5b505050506040513d601f19601f82011682018060405250810190611ca99190613421565b915091505f5f7346f54d434063e5f1a2b2cc6d9aaa657b1b9ff82c73ffffffffffffffffffffffffffffffffffffffff16638285ef406040518163ffffffff1660e01b81526004016040805180830381865afa158015611d0b573d5f5f3e3d5ffd5b505050506040513d601f19601f82011682018060405250810190611d2f9190613421565b915091505f7346f54d434063e5f1a2b2cc6d9aaa657b1b9ff82c73ffffffffffffffffffffffffffffffffffffffff166348e4163e306040518263ffffffff1660e01b8152600401611d8191906125e3565b602060405180830381865afa158015611d9c573d5f5f3e3d5ffd5b505050506040513d601f19601f82011682018060405250810190611dc09190612f68565b90505f7346f54d434063e5f1a2b2cc6d9aaa657b1b9ff82c73ffffffffffffffffffffffffffffffffffffffff1663aba024f46040518163ffffffff1660e01b8152600401602060405180830381865afa158015611e20573d5f5f3e3d5ffd5b505050506040513d601f19601f82011682018060405250810190611e449190612f68565b90505f846fffffffffffffffffffffffffffffffff16876fffffffffffffffffffffffffffffffff1611611e78575f611e97565b8487611e84919061345f565b6fffffffffffffffffffffffffffffffff165b90505f611ea482846122c9565b90505f84886fffffffffffffffffffffffffffffffff1611611ec6575f611ee5565b84886fffffffffffffffffffffffffffffffff16611ee49190612d80565b5b90505f5f8203611ef7575f9050611f89565b5f886fffffffffffffffffffffffffffffffff161480611f2857505f876fffffffffffffffffffffffffffffffff16145b15611f3e57611f3782866122c9565b9050611f88565b866fffffffffffffffffffffffffffffffff16886fffffffffffffffffffffffffffffffff1683611f6f91906134a2565b611f799190613510565b9050611f8581866122c9565b90505b5b5f611f9d8c611f98868561230a565b61230a565b90506001811115611fb857600181611fb59190612d80565b90505b809e5050505050505050505050505050505b90565b5f7346f54d434063e5f1a2b2cc6d9aaa657b1b9ff82c73ffffffffffffffffffffffffffffffffffffffff16636b2ace876040518163ffffffff1660e01b8152600401602060405180830381865afa15801561202b573d5f5f3e3d5ffd5b505050506040513d601f19601f8201168201806040525081019061204f9190612729565b90505f8173ffffffffffffffffffffffffffffffffffffffff1663bafe4f147346f54d434063e5f1a2b2cc6d9aaa657b1b9ff82c6040518263ffffffff1660e01b815260040161209f91906125e3565b602060405180830381865afa1580156120ba573d5f5f3e3d5ffd5b505050506040513d601f19601f820116820180604052508101906120de9190612729565b90508173ffffffffffffffffffffffffffffffffffffffff166391e0eab530836040518363ffffffff1660e01b815260040161211b929190613540565b602060405180830381865afa158015612136573d5f5f3e3d5ffd5b505050506040513d601f19601f8201168201806040525081019061215a9190612e10565b6121ee578173ffffffffffffffffffffffffffffffffffffffff1663c0a47c93308360015f5f5f1b5f5f1b6040518763ffffffff1660e01b81526004016121a69695949392919061357f565b5f604051808303815f87803b1580156121bd575f5ffd5b505af11580156121cf573d5f5f3e3d5ffd5b50505050600180600a6101000a81548160ff0219169083151502179055505b5050565b5f5f8373ffffffffffffffffffffffffffffffffffffffff16836040516122199190613618565b5f604051808303815f865af19150503d805f8114612252576040519150601f19603f3d011682016040523d82523d5f602084013e612257565b606091505b509150915081801561228457505f815114806122835750808060200190518101906122829190612e10565b5b5b6122c3576040517f08c379a00000000000000000000000000000000000000000000000000000000081526004016122ba90613678565b60405180910390fd5b50505050565b5f5f83036122d9575f9050612304565b81620186a06122e89190612db3565b620186a0846122f791906134a2565b6123019190613510565b90505b92915050565b5f818310612318578161231a565b825b905092915050565b5f8115159050919050565b61233681612322565b82525050565b5f60208201905061234f5f83018461232d565b92915050565b5f819050919050565b61236781612355565b82525050565b5f6020820190506123805f83018461235e565b92915050565b5f5ffd5b5f5ffd5b5f73ffffffffffffffffffffffffffffffffffffffff82169050919050565b5f6123b78261238e565b9050919050565b6123c7816123ad565b81146123d1575f5ffd5b50565b5f813590506123e2816123be565b92915050565b5f6123f2826123ad565b9050919050565b612402816123e8565b811461240c575f5ffd5b50565b5f8135905061241d816123f9565b92915050565b61242c81612355565b8114612436575f5ffd5b50565b5f8135905061244781612423565b92915050565b5f5ffd5b5f5ffd5b5f5ffd5b5f5f83601f84011261246e5761246d61244d565b5b8235905067ffffffffffffffff81111561248b5761248a612451565b5b6020830191508360018202830111156124a7576124a6612455565b5b9250929050565b5f5f5f5f5f5f60a087890312156124c8576124c7612386565b5b5f6124d589828a016123d4565b96505060206124e689828a0161240f565b95505060406124f789828a01612439565b945050606061250889828a01612439565b935050608087013567ffffffffffffffff8111156125295761252861238a565b5b61253589828a01612459565b92509250509295509295509295565b5f81519050919050565b5f82825260208201905092915050565b8281835e5f83830152505050565b5f601f19601f8301169050919050565b5f61258682612544565b612590818561254e565b93506125a081856020860161255e565b6125a98161256c565b840191505092915050565b5f6020820190508181035f8301526125cc818461257c565b905092915050565b6125dd816123ad565b82525050565b5f6020820190506125f65f8301846125d4565b92915050565b5f819050919050565b5f61261f61261a6126158461238e565b6125fc565b61238e565b9050919050565b5f61263082612605565b9050919050565b5f61264182612626565b9050919050565b61265181612637565b82525050565b5f60208201905061266a5f830184612648565b92915050565b7f4e487b71000000000000000000000000000000000000000000000000000000005f52602160045260245ffd5b5f82825260208201905092915050565b7f4241445f4d4f44450000000000000000000000000000000000000000000000005f82015250565b5f6126e160088361269d565b91506126ec826126ad565b602082019050919050565b5f6020820190508181035f83015261270e816126d5565b9050919050565b5f81519050612723816123be565b92915050565b5f6020828403121561273e5761273d612386565b5b5f61274b84828501612715565b91505092915050565b7f4241445f42454e544f00000000000000000000000000000000000000000000005f82015250565b5f61278860098361269d565b915061279382612754565b602082019050919050565b5f6020820190508181035f8301526127b58161277c565b9050919050565b7f4241445f53454e444552000000000000000000000000000000000000000000005f82015250565b5f6127f0600a8361269d565b91506127fb826127bc565b602082019050919050565b5f6020820190508181035f83015261281d816127e4565b9050919050565b7f4241445f434f4c4c41544552414c0000000000000000000000000000000000005f82015250565b5f612858600e8361269d565b915061286382612824565b602082019050919050565b5f6020820190508181035f8301526128858161284c565b9050919050565b5f61289682612626565b9050919050565b6128a68161288c565b82525050565b5f819050919050565b5f6128cf6128ca6128c5846128ac565b6125fc565b612355565b9050919050565b6128df816128b5565b82525050565b5f60a0820190506128f85f83018861289d565b61290560208301876125d4565b61291260408301866125d4565b61291f606083018561235e565b61292c60808301846128d6565b9695505050505050565b5f8151905061294481612423565b92915050565b5f5f604083850312156129605761295f612386565b5b5f61296d85828601612936565b925050602061297e85828601612936565b9150509250929050565b7f5a45524f5f434f4c4c41544552414c5f534841524500000000000000000000005f82015250565b5f6129bc60158361269d565b91506129c782612988565b602082019050919050565b5f6020820190508181035f8301526129e9816129b0565b9050919050565b5f606082019050612a035f8301866125d4565b612a10602083018561232d565b612a1d604083018461235e565b949350505050565b7f5a45524f5f424f52524f575f43415041434954590000000000000000000000005f82015250565b5f612a5960148361269d565b9150612a6482612a25565b602082019050919050565b5f6020820190508181035f830152612a8681612a4d565b9050919050565b5f604082019050612aa05f8301856125d4565b612aad602083018461235e565b9392505050565b5f60a082019050612ac75f83018861289d565b612ad460208301876125d4565b612ae160408301866125d4565b612aee60608301856128d6565b612afb608083018461235e565b9695505050505050565b7f4e487b71000000000000000000000000000000000000000000000000000000005f52604160045260245ffd5b7f4e487b71000000000000000000000000000000000000000000000000000000005f52603260045260245ffd5b5f81519050919050565b5f82825260208201905092915050565b5f819050602082019050919050565b612b91816123ad565b82525050565b5f612ba28383612b88565b60208301905092915050565b5f602082019050919050565b5f612bc482612b5f565b612bce8185612b69565b9350612bd983612b79565b805f5b83811015612c09578151612bf08882612b97565b9750612bfb83612bae565b925050600181019050612bdc565b5085935050505092915050565b5f81519050919050565b5f82825260208201905092915050565b5f819050602082019050919050565b612c4881612355565b82525050565b5f612c598383612c3f565b60208301905092915050565b5f602082019050919050565b5f612c7b82612c16565b612c858185612c20565b9350612c9083612c30565b805f5b83811015612cc0578151612ca78882612c4e565b9750612cb283612c65565b925050600181019050612c93565b5085935050505092915050565b5f612cd782612626565b9050919050565b612ce781612ccd565b82525050565b5f60a0820190508181035f830152612d058188612bba565b90508181036020830152612d198187612c71565b9050612d2860408301866125d4565b612d356060830185612cde565b8181036080830152612d47818461257c565b90509695505050505050565b7f4e487b71000000000000000000000000000000000000000000000000000000005f52601160045260245ffd5b5f612d8a82612355565b9150612d9583612355565b9250828203905081811115612dad57612dac612d53565b5b92915050565b5f612dbd82612355565b9150612dc883612355565b9250828201905080821115612de057612ddf612d53565b5b92915050565b612def81612322565b8114612df9575f5ffd5b50565b5f81519050612e0a81612de6565b92915050565b5f60208284031215612e2557612e24612386565b5b5f612e3284828501612dfc565b91505092915050565b7f464c4153485f52455041595f4641494c454400000000000000000000000000005f82015250565b5f612e6f60128361269d565b9150612e7a82612e3b565b602082019050919050565b5f6020820190508181035f830152612e9c81612e63565b9050919050565b7f4e487b71000000000000000000000000000000000000000000000000000000005f52602260045260245ffd5b5f6002820490506001821680612ee757607f821691505b602082108103612efa57612ef9612ea3565b5b50919050565b7f554e45585045435445445f5441524745540000000000000000000000000000005f82015250565b5f612f3460118361269d565b9150612f3f82612f00565b602082019050919050565b5f6020820190508181035f830152612f6181612f28565b9050919050565b5f60208284031215612f7d57612f7c612386565b5b5f612f8a84828501612936565b91505092915050565b5f5f60408385031215612fa957612fa8612386565b5b5f612fb685828601612dfc565b9250506020612fc785828601612936565b9150509250929050565b5f819050815f5260205f209050919050565b5f6020601f8301049050919050565b5f82821b905092915050565b5f6008830261302d7fffffffffffffffffffffffffffffffffffffffffffffffffffffffffffffffff82612ff2565b6130378683612ff2565b95508019841693508086168417925050509392505050565b5f61306961306461305f84612355565b6125fc565b612355565b9050919050565b5f819050919050565b6130828361304f565b61309661308e82613070565b848454612ffe565b825550505050565b5f5f905090565b6130ad61309e565b6130b8818484613079565b505050565b5b818110156130db576130d05f826130a5565b6001810190506130be565b5050565b601f821115613120576130f181612fd1565b6130fa84612fe3565b81016020851015613109578190505b61311d61311585612fe3565b8301826130bd565b50505b505050565b5f82821c905092915050565b5f6131405f1984600802613125565b1980831691505092915050565b5f6131588383613131565b9150826002028217905092915050565b61317182612544565b67ffffffffffffffff81111561318a57613189612b05565b5b6131948254612ed0565b61319f8282856130df565b5f60209050601f8311600181146131d0575f84156131be578287015190505b6131c8858261314d565b86555061322f565b601f1984166131de86612fd1565b5f5b82811015613205578489015182556001820191506020850194506020810190506131e0565b86831015613222578489015161321e601f891682613131565b8355505b6001600288020188555050505b505050505050565b5f819050919050565b5f61325a61325561325084613237565b6125fc565b612355565b9050919050565b61326a81613240565b82525050565b5f6060820190506132835f83018661289d565b6132906020830185613261565b61329d604083018461232d565b949350505050565b5f6132af82612626565b9050919050565b6132bf816132a5565b82525050565b5f60a0820190506132d85f8301886132b6565b6132e560208301876125d4565b6132f2604083018661289d565b6132ff606083018561235e565b8181036080830152613311818461257c565b90509695505050505050565b5f60ff82169050919050565b5f61334361333e613339846128ac565b6125fc565b61331d565b9050919050565b61335381613329565b82525050565b5f60408201905061336c5f8301856125d4565b613379602083018461334a565b9392505050565b5f6040820190506133935f83018561289d565b6133a060208301846125d4565b9392505050565b5f6060820190506133ba5f83018661289d565b6133c7602083018561235e565b6133d4604083018461232d565b949350505050565b5f6fffffffffffffffffffffffffffffffff82169050919050565b613400816133dc565b811461340a575f5ffd5b50565b5f8151905061341b816133f7565b92915050565b5f5f6040838503121561343757613436612386565b5b5f6134448582860161340d565b92505060206134558582860161340d565b9150509250929050565b5f613469826133dc565b9150613474836133dc565b925082820390506fffffffffffffffffffffffffffffffff81111561349c5761349b612d53565b5b92915050565b5f6134ac82612355565b91506134b783612355565b92508282026134c581612355565b915082820484148315176134dc576134db612d53565b5b5092915050565b7f4e487b71000000000000000000000000000000000000000000000000000000005f52601260045260245ffd5b5f61351a82612355565b915061352583612355565b925082613535576135346134e3565b5b828204905092915050565b5f6040820190506135535f8301856125d4565b61356060208301846125d4565b9392505050565b5f819050919050565b61357981613567565b82525050565b5f60c0820190506135925f8301896125d4565b61359f60208301886125d4565b6135ac604083018761232d565b6135b9606083018661334a565b6135c66080830185613570565b6135d360a0830184613570565b979650505050505050565b5f81905092915050565b5f6135f282612544565b6135fc81856135de565b935061360c81856020860161255e565b80840191505092915050565b5f61362382846135e8565b915081905092915050565b7f544f4b454e5f43414c4c5f4641494c45440000000000000000000000000000005f82015250565b5f61366260118361269d565b915061366d8261362e565b602082019050919050565b5f6020820190508181035f83015261368f81613656565b905091905056fea2646970667358221220c2a796430f66627e7434c0702b641875c56f236b82d148f39948c7ebfaadbfd264736f6c634300081e0033","linkReferences":{}},"methodIdentifiers":{"MIM()":"daec383d","TARGET()":"cc1f2afa","TARGET_CAULDRON()":"bd7a598c","borrowStageReached()":"7c27e19f","borrowedMimAmount()":"e7cda06d","borrowedMimPart()":"19b20a39","borrowedMimShare()":"6208fdd8","cachedZeroWindowObserved()":"2d3939db","collateralFlashAmount()":"488a9fd5","collateralFlashFee()":"3f4d05ee","depositedCollateralShare()":"2ac52cd9","executeOnOpportunity()":"3c2448ed","hypothesisRefuted()":"495f92f1","hypothesisValidated()":"463defd1","lastError()":"29f0de3f","liquidateStageReached()":"9348a238","liquidationBlocked()":"b7021f77","masterContractApprovalSet()":"02de6717","onFlashLoan(address,address,uint256,uint256,bytes)":"23e30c8b","oracleStageInfeasible()":"5fe98467","oracleStageReached()":"e8c28fee","postUpdateExchangeRate()":"5ca6dbc7","postUpdateReturnedUpdated()":"dcc8cd83","preUpdateExchangeRate()":"cd0fa7fb","profitAmount()":"5ff972cc","profitToken()":"49343624","removedCollateralShare()":"8f86645d"},"id":0}