{"abi":[{"type":"constructor","inputs":[{"name":"collateral_","type":"address","internalType":"address"},{"name":"mim_","type":"address","internalType":"address"},{"name":"oracle_","type":"address","internalType":"address"},{"name":"collaterizationRate_","type":"uint256","internalType":"uint256"},{"name":"borrowOpeningFee_","type":"uint256","internalType":"uint256"}],"stateMutability":"nonpayable"},{"type":"function","name":"BORROW_OPENING_FEE","inputs":[],"outputs":[{"name":"","type":"uint256","internalType":"uint256"}],"stateMutability":"view"},{"type":"function","name":"COLLATERIZATION_RATE","inputs":[],"outputs":[{"name":"","type":"uint256","internalType":"uint256"}],"stateMutability":"view"},{"type":"function","name":"_isSolvent","inputs":[{"name":"user","type":"address","internalType":"address"},{"name":"_exchangeRate","type":"uint256","internalType":"uint256"}],"outputs":[{"name":"","type":"bool","internalType":"bool"}],"stateMutability":"view"},{"type":"function","name":"addCollateral","inputs":[{"name":"amount","type":"uint256","internalType":"uint256"}],"outputs":[],"stateMutability":"nonpayable"},{"type":"function","name":"borrow","inputs":[{"name":"amount","type":"uint256","internalType":"uint256"}],"outputs":[{"name":"part","type":"uint256","internalType":"uint256"}],"stateMutability":"nonpayable"},{"type":"function","name":"collateral","inputs":[],"outputs":[{"name":"","type":"address","internalType":"contract IERC20Like"}],"stateMutability":"view"},{"type":"function","name":"exchangeRate","inputs":[],"outputs":[{"name":"","type":"uint256","internalType":"uint256"}],"stateMutability":"view"},{"type":"function","name":"fund","inputs":[{"name":"amount","type":"uint256","internalType":"uint256"}],"outputs":[],"stateMutability":"nonpayable"},{"type":"function","name":"init","inputs":[],"outputs":[],"stateMutability":"nonpayable"},{"type":"function","name":"initialized","inputs":[],"outputs":[{"name":"","type":"bool","internalType":"bool"}],"stateMutability":"view"},{"type":"function","name":"isSolvent","inputs":[{"name":"user","type":"address","internalType":"address"}],"outputs":[{"name":"","type":"bool","internalType":"bool"}],"stateMutability":"view"},{"type":"function","name":"liquidate","inputs":[{"name":"user","type":"address","internalType":"address"}],"outputs":[],"stateMutability":"nonpayable"},{"type":"function","name":"magicInternetMoney","inputs":[],"outputs":[{"name":"","type":"address","internalType":"contract IERC20Like"}],"stateMutability":"view"},{"type":"function","name":"oracle","inputs":[],"outputs":[{"name":"","type":"address","internalType":"contract IOracleLike"}],"stateMutability":"view"},{"type":"function","name":"removeCollateral","inputs":[{"name":"amount","type":"uint256","internalType":"uint256"}],"outputs":[],"stateMutability":"nonpayable"},{"type":"function","name":"totalBorrowBase","inputs":[],"outputs":[{"name":"","type":"uint256","internalType":"uint256"}],"stateMutability":"view"},{"type":"function","name":"totalBorrowElastic","inputs":[],"outputs":[{"name":"","type":"uint256","internalType":"uint256"}],"stateMutability":"view"},{"type":"function","name":"updateExchangeRate","inputs":[],"outputs":[{"name":"updated","type":"bool","internalType":"bool"},{"name":"rate","type":"uint256","internalType":"uint256"}],"stateMutability":"nonpayable"},{"type":"function","name":"userBorrowPart","inputs":[{"name":"","type":"address","internalType":"address"}],"outputs":[{"name":"","type":"uint256","internalType":"uint256"}],"stateMutability":"view"},{"type":"function","name":"userCollateralAmount","inputs":[{"name":"","type":"address","internalType":"address"}],"outputs":[{"name":"","type":"uint256","internalType":"uint256"}],"stateMutability":"view"}],"bytecode":{"object":"0x610120604052348015610010575f5ffd5b5060405161203a38038061203a8339818101604052810190610032919061017a565b8473ffffffffffffffffffffffffffffffffffffffff1660808173ffffffffffffffffffffffffffffffffffffffff16815250508373ffffffffffffffffffffffffffffffffffffffff1660a08173ffffffffffffffffffffffffffffffffffffffff16815250508273ffffffffffffffffffffffffffffffffffffffff1660c08173ffffffffffffffffffffffffffffffffffffffff16815250508160e0818152505080610100818152505050505050506101f1565b5f5ffd5b5f73ffffffffffffffffffffffffffffffffffffffff82169050919050565b5f610116826100ed565b9050919050565b6101268161010c565b8114610130575f5ffd5b50565b5f815190506101418161011d565b92915050565b5f819050919050565b61015981610147565b8114610163575f5ffd5b50565b5f8151905061017481610150565b92915050565b5f5f5f5f5f60a08688031215610193576101926100e9565b5b5f6101a088828901610133565b95505060206101b188828901610133565b94505060406101c288828901610133565b93505060606101d388828901610166565b92505060806101e488828901610166565b9150509295509295909350565b60805160a05160c05160e05161010051611dc66102745f395f81816109ce0152610bc301525f8181610ef3015261125d01525f81816103c90152818161098001526110ab01525f81816109aa01528181610ce301528181610dbc0152610f5901525f818161062c0152818161081701528181610a4901526110380152611dc65ff3fe608060405234801561000f575f5ffd5b506004361061012a575f3560e01c80639b352ae1116100ab578063c7ee2a7b1161006f578063c7ee2a7b14610333578063ca1d209d14610351578063d8dfeb451461036d578063e1c7392a1461038b578063f01d3464146103955761012a565b80639b352ae11461027b578063aba024f414610299578063b1c43cbe146102b7578063bcc46e83146102e7578063c5ebeaec146103035761012a565b80633ba0b9a9116100f25780633ba0b9a9146101d357806348e4163e146101f157806374471361146102215780637dc0d1d01461023f5780638770398c1461025d5761012a565b806302ce728f1461012e578063158ef93e1461014d5780632f8655681461016b5780633237c1581461018757806338b51ce1146101a3575b5f5ffd5b6101366103c5565b6040516101449291906112d6565b60405180910390f35b610155610481565b60405161016291906112fd565b60405180910390f35b61018560048036038101906101809190611374565b610492565b005b6101a1600480360381019061019c91906113c9565b61070b565b005b6101bd60048036038101906101b89190611374565b610949565b6040516101ca91906112fd565b60405180910390f35b6101db61095d565b6040516101e891906113f4565b60405180910390f35b61020b60048036038101906102069190611374565b610963565b60405161021891906113f4565b60405180910390f35b610229610978565b60405161023691906113f4565b60405180910390f35b61024761097e565b6040516102549190611468565b60405180910390f35b6102656109a2565b60405161027291906113f4565b60405180910390f35b6102836109a8565b60405161029091906114a1565b60405180910390f35b6102a16109cc565b6040516102ae91906113f4565b60405180910390f35b6102d160048036038101906102cc9190611374565b6109f0565b6040516102de91906113f4565b60405180910390f35b61030160048036038101906102fc91906113c9565b610a05565b005b61031d600480360381019061031891906113c9565b610b79565b60405161032a91906113f4565b60405180910390f35b61033b610ef1565b60405161034891906113f4565b60405180910390f35b61036b600480360381019061036691906113c9565b610f15565b005b610375611036565b60405161038291906114a1565b60405180910390f35b61039361105a565b005b6103af60048036038101906103aa91906114ba565b611165565b6040516103bc91906112fd565b60405180910390f35b5f5f7f000000000000000000000000000000000000000000000000000000000000000073ffffffffffffffffffffffffffffffffffffffff1663d6d7d5256040518163ffffffff1660e01b815260040161041e9061152b565b60408051808303815f875af1158015610439573d5f5f3e3d5ffd5b505050506040513d601f19601f8201168201806040525081019061045d9190611587565b80925081935050508115610477578060018190555061047d565b60015490505b9091565b5f5f9054906101000a900460ff1681565b5f61049b6103c5565b9150506104a88282611165565b156104e8576040517f08c379a00000000000000000000000000000000000000000000000000000000081526004016104df9061161f565b60405180910390fd5b5f60045f8473ffffffffffffffffffffffffffffffffffffffff1673ffffffffffffffffffffffffffffffffffffffff1681526020019081526020015f205490505f60055f8573ffffffffffffffffffffffffffffffffffffffff1673ffffffffffffffffffffffffffffffffffffffff1681526020019081526020015f205490505f60045f8673ffffffffffffffffffffffffffffffffffffffff1673ffffffffffffffffffffffffffffffffffffffff1681526020019081526020015f20819055505f60055f8673ffffffffffffffffffffffffffffffffffffffff1673ffffffffffffffffffffffffffffffffffffffff1681526020019081526020015f20819055506003548111610614578060035f828254610608919061166a565b9250508190555061061c565b5f6003819055505b5f6002819055505f8214610705577f000000000000000000000000000000000000000000000000000000000000000073ffffffffffffffffffffffffffffffffffffffff1663a9059cbb33846040518363ffffffff1660e01b81526004016106859291906116ac565b6020604051808303815f875af11580156106a1573d5f5f3e3d5ffd5b505050506040513d601f19601f820116820180604052508101906106c591906116d3565b610704576040517f08c379a00000000000000000000000000000000000000000000000000000000081526004016106fb90611748565b60405180910390fd5b5b50505050565b5f810361074d576040517f08c379a0000000000000000000000000000000000000000000000000000000008152600401610744906117b0565b60405180910390fd5b5f60045f3373ffffffffffffffffffffffffffffffffffffffff1673ffffffffffffffffffffffffffffffffffffffff1681526020019081526020015f20549050818110156107d1576040517f08c379a00000000000000000000000000000000000000000000000000000000081526004016107c890611818565b60405180910390fd5b81810360045f3373ffffffffffffffffffffffffffffffffffffffff1673ffffffffffffffffffffffffffffffffffffffff1681526020019081526020015f20819055507f000000000000000000000000000000000000000000000000000000000000000073ffffffffffffffffffffffffffffffffffffffff1663a9059cbb33846040518363ffffffff1660e01b81526004016108709291906116ac565b6020604051808303815f875af115801561088c573d5f5f3e3d5ffd5b505050506040513d601f19601f820116820180604052508101906108b091906116d3565b6108ef576040517f08c379a00000000000000000000000000000000000000000000000000000000081526004016108e690611880565b60405180910390fd5b505f6108f96103c5565b9150506109063382611165565b610945576040517f08c379a000000000000000000000000000000000000000000000000000000000815260040161093c906118e8565b60405180910390fd5b5050565b5f61095682600154611165565b9050919050565b60015481565b6005602052805f5260405f205f915090505481565b60035481565b7f000000000000000000000000000000000000000000000000000000000000000081565b60025481565b7f000000000000000000000000000000000000000000000000000000000000000081565b7f000000000000000000000000000000000000000000000000000000000000000081565b6004602052805f5260405f205f915090505481565b5f8103610a47576040517f08c379a0000000000000000000000000000000000000000000000000000000008152600401610a3e90611950565b60405180910390fd5b7f000000000000000000000000000000000000000000000000000000000000000073ffffffffffffffffffffffffffffffffffffffff166323b872dd3330846040518463ffffffff1660e01b8152600401610aa49392919061196e565b6020604051808303815f875af1158015610ac0573d5f5f3e3d5ffd5b505050506040513d601f19601f82011682018060405250810190610ae491906116d3565b610b23576040517f08c379a0000000000000000000000000000000000000000000000000000000008152600401610b1a906119ed565b60405180910390fd5b8060045f3373ffffffffffffffffffffffffffffffffffffffff1673ffffffffffffffffffffffffffffffffffffffff1681526020019081526020015f205f828254610b6f9190611a0b565b9250508190555050565b5f5f8203610bbc576040517f08c379a0000000000000000000000000000000000000000000000000000000008152600401610bb390611a88565b60405180910390fd5b5f620186a07f000000000000000000000000000000000000000000000000000000000000000084610bed9190611aa6565b610bf79190611b14565b90505f8184610c069190611a0b565b90505f6003541480610c1957505f600254145b15610c2657809250610c5d565b600254600160025460035484610c3c9190611aa6565b610c469190611a0b565b610c50919061166a565b610c5a9190611b14565b92505b8060025f828254610c6e9190611a0b565b925050819055508260035f828254610c869190611a0b565b925050819055508260055f3373ffffffffffffffffffffffffffffffffffffffff1673ffffffffffffffffffffffffffffffffffffffff1681526020019081526020015f205f828254610cd99190611a0b565b92505081905550837f000000000000000000000000000000000000000000000000000000000000000073ffffffffffffffffffffffffffffffffffffffff166370a08231306040518263ffffffff1660e01b8152600401610d3a9190611b44565b602060405180830381865afa158015610d55573d5f5f3e3d5ffd5b505050506040513d601f19601f82011682018060405250810190610d799190611b5d565b1015610dba576040517f08c379a0000000000000000000000000000000000000000000000000000000008152600401610db190611bd2565b60405180910390fd5b7f000000000000000000000000000000000000000000000000000000000000000073ffffffffffffffffffffffffffffffffffffffff1663a9059cbb33866040518363ffffffff1660e01b8152600401610e159291906116ac565b6020604051808303815f875af1158015610e31573d5f5f3e3d5ffd5b505050506040513d601f19601f82011682018060405250810190610e5591906116d3565b610e94576040517f08c379a0000000000000000000000000000000000000000000000000000000008152600401610e8b90611c3a565b60405180910390fd5b50505f610e9f6103c5565b915050610eac3382611165565b610eeb576040517f08c379a0000000000000000000000000000000000000000000000000000000008152600401610ee2906118e8565b60405180910390fd5b50919050565b7f000000000000000000000000000000000000000000000000000000000000000081565b5f8103610f57576040517f08c379a0000000000000000000000000000000000000000000000000000000008152600401610f4e90611ca2565b60405180910390fd5b7f000000000000000000000000000000000000000000000000000000000000000073ffffffffffffffffffffffffffffffffffffffff166323b872dd3330846040518463ffffffff1660e01b8152600401610fb49392919061196e565b6020604051808303815f875af1158015610fd0573d5f5f3e3d5ffd5b505050506040513d601f19601f82011682018060405250810190610ff491906116d3565b611033576040517f08c379a000000000000000000000000000000000000000000000000000000000815260040161102a90611d0a565b60405180910390fd5b50565b7f000000000000000000000000000000000000000000000000000000000000000081565b5f5f9054906101000a900460ff16156110a8576040517f08c379a000000000000000000000000000000000000000000000000000000000815260040161109f90611d72565b60405180910390fd5b5f7f000000000000000000000000000000000000000000000000000000000000000073ffffffffffffffffffffffffffffffffffffffff1663d6d7d5256040518163ffffffff1660e01b81526004016111009061152b565b60408051808303815f875af115801561111b573d5f5f3e3d5ffd5b505050506040513d601f19601f8201168201806040525081019061113f9190611587565b9150508060018190555060015f5f6101000a81548160ff02191690831515021790555050565b5f5f60055f8573ffffffffffffffffffffffffffffffffffffffff1673ffffffffffffffffffffffffffffffffffffffff1681526020019081526020015f205490505f81036111b857600191505061129e565b5f60045f8673ffffffffffffffffffffffffffffffffffffffff1673ffffffffffffffffffffffffffffffffffffffff1681526020019081526020015f205490505f810361120a575f9250505061129e565b5f5f6003541461125257670de0b6b3a764000060035461122a9190611aa6565b85600254856112399190611aa6565b6112439190611aa6565b61124d9190611b14565b611254565b5f5b90505f620186a07f0000000000000000000000000000000000000000000000000000000000000000846112879190611aa6565b6112919190611b14565b9050818110159450505050505b92915050565b5f8115159050919050565b6112b8816112a4565b82525050565b5f819050919050565b6112d0816112be565b82525050565b5f6040820190506112e95f8301856112af565b6112f660208301846112c7565b9392505050565b5f6020820190506113105f8301846112af565b92915050565b5f5ffd5b5f73ffffffffffffffffffffffffffffffffffffffff82169050919050565b5f6113438261131a565b9050919050565b61135381611339565b811461135d575f5ffd5b50565b5f8135905061136e8161134a565b92915050565b5f6020828403121561138957611388611316565b5b5f61139684828501611360565b91505092915050565b6113a8816112be565b81146113b2575f5ffd5b50565b5f813590506113c38161139f565b92915050565b5f602082840312156113de576113dd611316565b5b5f6113eb848285016113b5565b91505092915050565b5f6020820190506114075f8301846112c7565b92915050565b5f819050919050565b5f61143061142b6114268461131a565b61140d565b61131a565b9050919050565b5f61144182611416565b9050919050565b5f61145282611437565b9050919050565b61146281611448565b82525050565b5f60208201905061147b5f830184611459565b92915050565b5f61148b82611437565b9050919050565b61149b81611481565b82525050565b5f6020820190506114b45f830184611492565b92915050565b5f5f604083850312156114d0576114cf611316565b5b5f6114dd85828601611360565b92505060206114ee858286016113b5565b9150509250929050565b5f82825260208201905092915050565b50565b5f6115165f836114f8565b915061152182611508565b5f82019050919050565b5f6020820190508181035f8301526115428161150b565b9050919050565b611552816112a4565b811461155c575f5ffd5b50565b5f8151905061156d81611549565b92915050565b5f815190506115818161139f565b92915050565b5f5f6040838503121561159d5761159c611316565b5b5f6115aa8582860161155f565b92505060206115bb85828601611573565b9150509250929050565b5f82825260208201905092915050565b7f414c4c5f534f4c56454e540000000000000000000000000000000000000000005f82015250565b5f611609600b836115c5565b9150611614826115d5565b602082019050919050565b5f6020820190508181035f830152611636816115fd565b9050919050565b7f4e487b71000000000000000000000000000000000000000000000000000000005f52601160045260245ffd5b5f611674826112be565b915061167f836112be565b92508282039050818111156116975761169661163d565b5b92915050565b6116a681611339565b82525050565b5f6040820190506116bf5f83018561169d565b6116cc60208301846112c7565b9392505050565b5f602082840312156116e8576116e7611316565b5b5f6116f58482850161155f565b91505092915050565b7f4c49515f434f4c4c41544552414c5f4641494c454400000000000000000000005f82015250565b5f6117326015836115c5565b915061173d826116fe565b602082019050919050565b5f6020820190508181035f83015261175f81611726565b9050919050565b7f5a45524f5f52454d4f56450000000000000000000000000000000000000000005f82015250565b5f61179a600b836115c5565b91506117a582611766565b602082019050919050565b5f6020820190508181035f8301526117c78161178e565b9050919050565b7f494e53554646494349454e545f434f4c4c41544552414c0000000000000000005f82015250565b5f6118026017836115c5565b915061180d826117ce565b602082019050919050565b5f6020820190508181035f83015261182f816117f6565b9050919050565b7f434f4c4c41544552414c5f52455455524e5f4641494c454400000000000000005f82015250565b5f61186a6018836115c5565b915061187582611836565b602082019050919050565b5f6020820190508181035f8301526118978161185e565b9050919050565b7f494e534f4c56454e5400000000000000000000000000000000000000000000005f82015250565b5f6118d26009836115c5565b91506118dd8261189e565b602082019050919050565b5f6020820190508181035f8301526118ff816118c6565b9050919050565b7f5a45524f5f434f4c4c41544552414c00000000000000000000000000000000005f82015250565b5f61193a600f836115c5565b915061194582611906565b602082019050919050565b5f6020820190508181035f8301526119678161192e565b9050919050565b5f6060820190506119815f83018661169d565b61198e602083018561169d565b61199b60408301846112c7565b949350505050565b7f434f4c4c41544552414c5f5452414e534645525f4641494c45440000000000005f82015250565b5f6119d7601a836115c5565b91506119e2826119a3565b602082019050919050565b5f6020820190508181035f830152611a04816119cb565b9050919050565b5f611a15826112be565b9150611a20836112be565b9250828201905080821115611a3857611a3761163d565b5b92915050565b7f5a45524f5f424f52524f570000000000000000000000000000000000000000005f82015250565b5f611a72600b836115c5565b9150611a7d82611a3e565b602082019050919050565b5f6020820190508181035f830152611a9f81611a66565b9050919050565b5f611ab0826112be565b9150611abb836112be565b9250828202611ac9816112be565b91508282048414831517611ae057611adf61163d565b5b5092915050565b7f4e487b71000000000000000000000000000000000000000000000000000000005f52601260045260245ffd5b5f611b1e826112be565b9150611b29836112be565b925082611b3957611b38611ae7565b5b828204905092915050565b5f602082019050611b575f83018461169d565b92915050565b5f60208284031215611b7257611b71611316565b5b5f611b7f84828501611573565b91505092915050565b7f494e53554646494349454e545f4c4951554944495459000000000000000000005f82015250565b5f611bbc6016836115c5565b9150611bc782611b88565b602082019050919050565b5f6020820190508181035f830152611be981611bb0565b9050919050565b7f4d494d5f424f52524f575f4641494c45440000000000000000000000000000005f82015250565b5f611c246011836115c5565b9150611c2f82611bf0565b602082019050919050565b5f6020820190508181035f830152611c5181611c18565b9050919050565b7f5a45524f5f414d4f554e540000000000000000000000000000000000000000005f82015250565b5f611c8c600b836115c5565b9150611c9782611c58565b602082019050919050565b5f6020820190508181035f830152611cb981611c80565b9050919050565b7f4d494d5f46554e445f4641494c454400000000000000000000000000000000005f82015250565b5f611cf4600f836115c5565b9150611cff82611cc0565b602082019050919050565b5f6020820190508181035f830152611d2181611ce8565b9050919050565b7f414c52454144595f494e495449414c495a4544000000000000000000000000005f82015250565b5f611d5c6013836115c5565b9150611d6782611d28565b602082019050919050565b5f6020820190508181035f830152611d8981611d50565b905091905056fea2646970667358221220f4efc566866f1aee308e2dc017f6bf3b9d0aae7e1be5e71a9ead256e52f3017c64736f6c634300081e0033","linkReferences":{}},"methodIdentifiers":{"BORROW_OPENING_FEE()":"aba024f4","COLLATERIZATION_RATE()":"c7ee2a7b","_isSolvent(address,uint256)":"f01d3464","addCollateral(uint256)":"bcc46e83","borrow(uint256)":"c5ebeaec","collateral()":"d8dfeb45","exchangeRate()":"3ba0b9a9","fund(uint256)":"ca1d209d","init()":"e1c7392a","initialized()":"158ef93e","isSolvent(address)":"38b51ce1","liquidate(address)":"2f865568","magicInternetMoney()":"9b352ae1","oracle()":"7dc0d1d0","removeCollateral(uint256)":"3237c158","totalBorrowBase()":"74471361","totalBorrowElastic()":"8770398c","updateExchangeRate()":"02ce728f","userBorrowPart(address)":"48e4163e","userCollateralAmount(address)":"b1c43cbe"},"id":0}