{"abi":[{"type":"function","name":"armZeroRate","inputs":[],"outputs":[],"stateMutability":"nonpayable"},{"type":"function","name":"armed","inputs":[],"outputs":[{"name":"","type":"bool","internalType":"bool"}],"stateMutability":"view"},{"type":"function","name":"get","inputs":[{"name":"","type":"bytes","internalType":"bytes"}],"outputs":[{"name":"success","type":"bool","internalType":"bool"},{"name":"rate","type":"uint256","internalType":"uint256"}],"stateMutability":"view"}],"bytecode":{"object":"0x6080604052348015600e575f5ffd5b5061025c8061001c5f395ff3fe608060405234801561000f575f5ffd5b506004361061003f575f3560e01c80632f411093146100435780636dc6372814610061578063d6d7d5251461006b575b5f5ffd5b61004b61009c565b604051610058919061011a565b60405180910390f35b6100696100ad565b005b6100856004803603810190610080919061019c565b6100c8565b6040516100939291906101ff565b60405180910390f35b5f5f9054906101000a900460ff1681565b60015f5f6101000a81548160ff021916908315150217905550565b5f5f5f5f9054906101000a900460ff16156100e95760015f915091506100f9565b6001670de0b6b3a7640000915091505b9250929050565b5f8115159050919050565b61011481610100565b82525050565b5f60208201905061012d5f83018461010b565b92915050565b5f5ffd5b5f5ffd5b5f5ffd5b5f5ffd5b5f5ffd5b5f5f83601f84011261015c5761015b61013b565b5b8235905067ffffffffffffffff8111156101795761017861013f565b5b60208301915083600182028301111561019557610194610143565b5b9250929050565b5f5f602083850312156101b2576101b1610133565b5b5f83013567ffffffffffffffff8111156101cf576101ce610137565b5b6101db85828601610147565b92509250509250929050565b5f819050919050565b6101f9816101e7565b82525050565b5f6040820190506102125f83018561010b565b61021f60208301846101f0565b939250505056fea264697066735822122021c6ae4fac3e6f47ada233ad03e54e0fd53270726f99f494697f29acad6f9c5764736f6c634300081e0033","linkReferences":{}},"methodIdentifiers":{"armZeroRate()":"6dc63728","armed()":"2f411093","get(bytes)":"d6d7d525"},"id":0}