{"abi":[{"type":"constructor","inputs":[],"stateMutability":"nonpayable"},{"type":"receive","stateMutability":"payable"},{"type":"function","name":"enterAndBorrow","inputs":[{"name":"comptroller","type":"address","internalType":"address"},{"name":"collateralMarket","type":"address","internalType":"address"},{"name":"borrowMarket","type":"address","internalType":"address"},{"name":"amount","type":"uint256","internalType":"uint256"},{"name":"receiver","type":"address","internalType":"address"}],"outputs":[{"name":"isNativeBorrow","type":"bool","internalType":"bool"}],"stateMutability":"nonpayable"},{"type":"function","name":"mintShare","inputs":[{"name":"underlying","type":"address","internalType":"address"},{"name":"market","type":"address","internalType":"address"},{"name":"amount","type":"uint256","internalType":"uint256"}],"outputs":[],"stateMutability":"nonpayable"},{"type":"function","name":"oTokenBalance","inputs":[{"name":"market","type":"address","internalType":"address"}],"outputs":[{"name":"","type":"uint256","internalType":"uint256"}],"stateMutability":"view"}],"bytecode":{"object":"0x608080604052346015576107ec908161001a8239f35b5f80fdfe608080604052600436101561001c575b50361561001a575f80fd5b005b5f3560e01c90816318804b2d146102c9575080632e5ffcd5146100b057636e22375714610049575f61000f565b346100ac5760a03660031901126100ac5761006261034e565b61006a610364565b604435916001600160a01b03831683036100ac57608435906001600160a01b03821682036100ac576020936100a293606435926103ef565b6040519015158152f35b5f80fd5b346100ac5760603660031901126100ac576100c961034e565b6100d1610364565b9060443590604051925f806020860163095ea7b360e01b815260018060a01b038416968760248201528260448201526044815261010f60648261037a565b519082865af161011d6103b0565b8161029a575b50156102355760405163095ea7b360e01b602082019081526001600160a01b039092166024820152604481018490525f9283929091839061017181606481015b03601f19810183528261037a565b51925af161017d6103b0565b8161026b575b5015610235575f916024602092604051948593849263140e25ad60e31b845260048401525af190811561022a575f916101f8575b506101be57005b60405162461bcd60e51b81526020600482015260126024820152711a195b1c195c881b5a5b9d0819985a5b195960721b6044820152606490fd5b90506020813d602011610222575b816102136020938361037a565b810103126100ac5751816101b7565b3d9150610206565b6040513d5f823e3d90fd5b60405162461bcd60e51b815260206004820152600e60248201526d185c1c1c9bdd994819985a5b195960921b6044820152606490fd5b8051801592508215610280575b505083610183565b610293925060208091830101910161072b565b8380610278565b80518015925082156102af575b505085610123565b6102c2925060208091830101910161072b565b85806102a7565b346100ac5760203660031901126100ac576020816024816001600160a01b036102f061034e565b6370a0823160e01b8352306004840152165afa801561022a575f9061031b575b602090604051908152f35b506020813d602011610346575b816103356020938361037a565b810103126100ac5760209051610310565b3d9150610328565b600435906001600160a01b03821682036100ac57565b602435906001600160a01b03821682036100ac57565b90601f8019910116810190811067ffffffffffffffff82111761039c57604052565b634e487b7160e01b5f52604160045260245ffd5b3d156103ea573d9067ffffffffffffffff821161039c57604051916103df601f8201601f19166020018461037a565b82523d5f602084013e565b606090565b939190604094855191610402878461037a565b600183526020830190601f198801368337835115610717576001600160a01b031681528651631853304760e31b815260206004820152925160248401819052839160448301915f5b8181106106f557505f9492849003928492508591506001600160a01b03165af180156106525761065c575b50835163317afabb60e21b8152600481018490526020816024815f6001600160a01b0387165af1908115610652575f91610620575b506105e557915f92916104bd8493610743565b916001600160a01b0383161561058657855163a9059cbb60e01b602082019081526001600160a01b039093166024820152604481019190915283906105058160648101610163565b51925af16105116103b0565b81610557575b501561052257505f90565b5162461bcd60e51b815260206004820152600f60248201526e1d1c985b9cd9995c8819985a5b1959608a1b6044820152606490fd5b805180159250821561056c575b50505f610517565b61057f925060208091830101910161072b565b5f80610564565b50829150819047906001600160a01b03165af16105a16103b0565b50156105ad5750600190565b5162461bcd60e51b81526020600482015260126024820152711b985d1a5d99481cd95b990819985a5b195960721b6044820152606490fd5b835162461bcd60e51b81526020600482015260146024820152731a195b1c195c88189bdc9c9bddc819985a5b195960621b6044820152606490fd5b90506020813d60201161064a575b8161063b6020938361037a565b810103126100ac57515f6104aa565b3d915061062e565b85513d5f823e3d90fd5b3d805f833e61066b818361037a565b8101906020818303126100ac5780519067ffffffffffffffff82116100ac57019080601f830112156100ac5781519167ffffffffffffffff831161039c578260051b9060208201936106bf8951958661037a565b84526020808501928201019283116100ac57602001905b8282106106e557505050610475565b81518152602091820191016106d6565b82516001600160a01b031684528694506020938401939092019160010161044a565b634e487b7160e01b5f52603260045260245ffd5b908160209103126100ac575180151581036100ac5790565b5f80916040516020810190636f307dc360e01b82526004815261076760248261037a565b51915afa6107736103b0565b901580156107ab575b6107a6576020818051810103126100ac57602001516001600160a01b038116908190036100ac5790565b505f90565b50602081511061077c56fea2646970667358221220ee19dc2c0bf877f06bac0b0e05e43828dcc982d70cc51bde6b142c30fc1c826564736f6c634300081e0033","linkReferences":{}},"methodIdentifiers":{"enterAndBorrow(address,address,address,uint256,address)":"6e223757","mintShare(address,address,uint256)":"2e5ffcd5","oTokenBalance(address)":"18804b2d"},"id":0}