{"abi":[{"type":"constructor","inputs":[],"stateMutability":"nonpayable"},{"type":"function","name":"supplyAndMint","inputs":[{"name":"underlying","type":"address","internalType":"address"},{"name":"market","type":"address","internalType":"address"},{"name":"amount","type":"uint256","internalType":"uint256"}],"outputs":[],"stateMutability":"nonpayable"}],"bytecode":{"object":"0x60808060405234601557610323908161001a8239f35b5f80fdfe60806040526004361015610011575f80fd5b5f3560e01c62a9d99e14610023575f80fd5b346101ec5760603660031901126101ec576004356001600160a01b03811681036101ec576024356001600160a01b03811691908290036101ec57604435905f80604051602081019063095ea7b360e01b8252866024820152826044820152604481526100906064826102cb565b519082855af13d156102c4573d67ffffffffffffffff811161027157604051906100c4601f8201601f1916602001836102cb565b81523d5f602083013e5b8161028c575b5015610203575f809160405182602082019163095ea7b360e01b83528760248201528660448201526044815261010b6064826102cb565b51925af13d15610285573d67ffffffffffffffff8111610271576040519061013d601f8201601f1916602001836102cb565b81523d5f602083013e5b81610239575b5015610203575f916024602092604051948593849263140e25ad60e31b845260048401525af19081156101f8575f916101c2575b5061018857005b60405162461bcd60e51b81526020600482015260126024820152711d9a58dd1a5b481b5a5b9d0819985a5b195960721b6044820152606490fd5b90506020813d6020116101f0575b816101dd602093836102cb565b810103126101ec57515f610181565b5f80fd5b3d91506101d0565b6040513d5f823e3d90fd5b60405162461bcd60e51b815260206004820152600e60248201526d185c1c1c9bdd994819985a5b195960921b6044820152606490fd5b805180159250821561024e575b50505f61014d565b81925090602091810103126101ec576020015180151581036101ec575f80610246565b634e487b7160e01b5f52604160045260245ffd5b6060610147565b80518015925082156102a1575b50505f6100d4565b81925090602091810103126101ec576020015180151581036101ec575f80610299565b60606100ce565b90601f8019910116810190811067ffffffffffffffff8211176102715760405256fea264697066735822122062d260e4b0263a129ddd74f00150768b590c62ba549033c7ee7e2152ada6b36164736f6c634300081e0033","linkReferences":{}},"methodIdentifiers":{"supplyAndMint(address,address,uint256)":"00a9d99e"},"id":0}