{"abi":[{"type":"constructor","inputs":[],"stateMutability":"nonpayable"},{"type":"receive","stateMutability":"payable"},{"type":"function","name":"deposit","inputs":[{"name":"assets","type":"uint256","internalType":"uint256"}],"outputs":[{"name":"","type":"uint256","internalType":"uint256"}],"stateMutability":"view"},{"type":"function","name":"executeOnOpportunity","inputs":[],"outputs":[],"stateMutability":"nonpayable"},{"type":"function","name":"profitAmount","inputs":[],"outputs":[{"name":"","type":"uint256","internalType":"uint256"}],"stateMutability":"view"},{"type":"function","name":"profitToken","inputs":[],"outputs":[{"name":"","type":"address","internalType":"address"}],"stateMutability":"pure"},{"type":"function","name":"receiveFlashLoan","inputs":[{"name":"tokens","type":"address[]","internalType":"contract IERC20[]"},{"name":"amounts","type":"uint256[]","internalType":"uint256[]"},{"name":"feeAmounts","type":"uint256[]","internalType":"uint256[]"},{"name":"","type":"bytes","internalType":"bytes"}],"outputs":[],"stateMutability":"nonpayable"},{"type":"function","name":"totalAssets","inputs":[],"outputs":[{"name":"","type":"uint256","internalType":"uint256"}],"stateMutability":"view"},{"type":"function","name":"withdraw","inputs":[{"name":"assets","type":"uint256","internalType":"uint256"},{"name":"receiver","type":"address","internalType":"address"}],"outputs":[{"name":"withdrawn","type":"uint256","internalType":"uint256"},{"name":"fee","type":"uint256","internalType":"uint256"}],"stateMutability":"nonpayable"}],"bytecode":{"object":"0x6080604052348015600e575f5ffd5b50612aed8061001c5f395ff3fe608060405260043610610072575f3560e01c8063493436241161004d57806349343624146100fa5780635ff972cc14610124578063b6b55f251461014e578063f04f27071461018a57610079565b8062f714ce1461007d57806301e1d114146100ba5780633c2448ed146100e457610079565b3661007957005b5f5ffd5b348015610088575f5ffd5b506100a3600480360381019061009e9190611d05565b6101b2565b6040516100b1929190611d52565b60405180910390f35b3480156100c5575f5ffd5b506100ce610391565b6040516100db9190611d79565b60405180910390f35b3480156100ef575f5ffd5b506100f86104bb565b005b348015610105575f5ffd5b5061010e61063d565b60405161011b9190611da1565b60405180910390f35b34801561012f575f5ffd5b50610138610658565b6040516101459190611d79565b60405180910390f35b348015610159575f5ffd5b50610174600480360381019061016f9190611dba565b610660565b6040516101819190611d79565b60405180910390f35b348015610195575f5ffd5b506101b060048036038101906101ab91906120e0565b6106eb565b005b5f5f73863e572b215fd67c855d973f870266cf827aea5e73ffffffffffffffffffffffffffffffffffffffff163373ffffffffffffffffffffffffffffffffffffffff1614610236576040517f08c379a000000000000000000000000000000000000000000000000000000000815260040161022d9061220e565b60405180910390fd5b5f84141580156102465750834710155b156102f8575f8373ffffffffffffffffffffffffffffffffffffffff168560405161027090612259565b5f6040518083038185875af1925050503d805f81146102aa576040519150601f19603f3d011682016040523d82523d5f602084013e6102af565b606091505b50509050806102f3576040517f08c379a00000000000000000000000000000000000000000000000000000000081526004016102ea906122b7565b60405180910390fd5b849250505b73863e572b215fd67c855d973f870266cf827aea5e73ffffffffffffffffffffffffffffffffffffffff166394bf804d670de0b6b3a7640000856040518363ffffffff1660e01b815260040161034f9291906122d5565b5f604051808303815f87803b158015610366575f5ffd5b505af1158015610378573d5f5f3e3d5ffd5b505050505f8203610387578391505b5f90509250929050565b5f73863e572b215fd67c855d973f870266cf827aea5e73ffffffffffffffffffffffffffffffffffffffff163373ffffffffffffffffffffffffffffffffffffffff1614610414576040517f08c379a000000000000000000000000000000000000000000000000000000000815260040161040b9061220e565b60405180910390fd5b5f73863e572b215fd67c855d973f870266cf827aea5e73ffffffffffffffffffffffffffffffffffffffff166318160ddd6040518163ffffffff1660e01b8152600401602060405180830381865afa158015610472573d5f5f3e3d5ffd5b505050506040513d601f19601f820116820180604052508101906104969190612310565b90505f81036104a8575f9150506104b8565b47816104b49190612368565b9150505b90565b5f73863e572b215fd67c855d973f870266cf827aea5e73ffffffffffffffffffffffffffffffffffffffff166370a08231306040518263ffffffff1660e01b81526004016105099190611da1565b602060405180830381865afa158015610524573d5f5f3e3d5ffd5b505050506040513d601f19601f820116820180604052508101906105489190612310565b9050610552610aa4565b6105655761055f816111e8565b5061063b565b61056d6112a0565b5f73863e572b215fd67c855d973f870266cf827aea5e73ffffffffffffffffffffffffffffffffffffffff166370a08231306040518263ffffffff1660e01b81526004016105bb9190611da1565b602060405180830381865afa1580156105d6573d5f5f3e3d5ffd5b505050506040513d601f19601f820116820180604052508101906105fa9190612310565b0361060e57610608816111e8565b5061063b565b610616611442565b6106275761062261159e565b610630565b61062f611740565b5b610639816111e8565b505b565b5f73863e572b215fd67c855d973f870266cf827aea5e905090565b5f5f54905090565b5f73863e572b215fd67c855d973f870266cf827aea5e73ffffffffffffffffffffffffffffffffffffffff163373ffffffffffffffffffffffffffffffffffffffff16146106e3576040517f08c379a00000000000000000000000000000000000000000000000000000000081526004016106da9061220e565b60405180910390fd5b819050919050565b73ba12222222228d8ba445958a75a0704d566bf2c873ffffffffffffffffffffffffffffffffffffffff163373ffffffffffffffffffffffffffffffffffffffff161461076d576040517f08c379a0000000000000000000000000000000000000000000000000000000008152600401610764906123e5565b60405180910390fd5b6001845114801561077f575060018351145b801561078c575060018251145b6107cb576040517f08c379a00000000000000000000000000000000000000000000000000000000081526004016107c29061244d565b60405180910390fd5b73c02aaa39b223fe8d0a0e5c4f27ead9083c756cc273ffffffffffffffffffffffffffffffffffffffff16845f815181106108095761080861246b565b5b602002602001015173ffffffffffffffffffffffffffffffffffffffff1614610867576040517f08c379a000000000000000000000000000000000000000000000000000000000815260040161085e906124e2565b60405180910390fd5b5f835f8151811061087b5761087a61246b565b5b602002602001015190505f835f815181106108995761089861246b565b5b6020026020010151905073c02aaa39b223fe8d0a0e5c4f27ead9083c756cc273ffffffffffffffffffffffffffffffffffffffff16632e1a7d4d836040518263ffffffff1660e01b81526004016108f09190611d79565b5f604051808303815f87803b158015610907575f5ffd5b505af1158015610919573d5f5f3e3d5ffd5b50505050610925611442565b1561093357610932611740565b5b73c02aaa39b223fe8d0a0e5c4f27ead9083c756cc273ffffffffffffffffffffffffffffffffffffffff1663d0e30db0828461096f9190612368565b6040518263ffffffff1660e01b81526004015f604051808303818588803b158015610998575f5ffd5b505af11580156109aa573d5f5f3e3d5ffd5b505050505073c02aaa39b223fe8d0a0e5c4f27ead9083c756cc273ffffffffffffffffffffffffffffffffffffffff1663a9059cbb73ba12222222228d8ba445958a75a0704d566bf2c88385610a009190612368565b6040518363ffffffff1660e01b8152600401610a1d929190612500565b6020604051808303815f875af1158015610a39573d5f5f3e3d5ffd5b505050506040513d601f19601f82011682018060405250810190610a5d919061255c565b610a9c576040517f08c379a0000000000000000000000000000000000000000000000000000000008152600401610a93906125d1565b60405180910390fd5b505050505050565b5f5f610b316040516024016040516020818303038152906040527f8da5cb5b000000000000000000000000000000000000000000000000000000007bffffffffffffffffffffffffffffffffffffffffffffffffffffffff19166020820180517bffffffffffffffffffffffffffffffffffffffffffffffffffffffff8381831617835250505050611afb565b90505f610bbf6040516024016040516020818303038152906040527ff77c4791000000000000000000000000000000000000000000000000000000007bffffffffffffffffffffffffffffffffffffffffffffffffffffffff19166020820180517bffffffffffffffffffffffffffffffffffffffffffffffffffffffff8381831617835250505050611afb565b90505f73ffffffffffffffffffffffffffffffffffffffff168273ffffffffffffffffffffffffffffffffffffffff16148015610c2757505f73ffffffffffffffffffffffffffffffffffffffff168173ffffffffffffffffffffffffffffffffffffffff16145b15610d5b575f73863e572b215fd67c855d973f870266cf827aea5e73ffffffffffffffffffffffffffffffffffffffff1673c02aaa39b223fe8d0a0e5c4f27ead9083c756cc2604051602401610c7d9190612683565b6040516020818303038152906040527f90657147000000000000000000000000000000000000000000000000000000007bffffffffffffffffffffffffffffffffffffffffffffffffffffffff19166020820180517bffffffffffffffffffffffffffffffffffffffffffffffffffffffff8381831617835250505050604051610d07919061270a565b5f604051808303815f865af19150503d805f8114610d40576040519150601f19603f3d011682016040523d82523d5f602084013e610d45565b606091505b5050905080610d59575f93505050506111e5565b505b610de66040516024016040516020818303038152906040527f8da5cb5b000000000000000000000000000000000000000000000000000000007bffffffffffffffffffffffffffffffffffffffffffffffffffffffff19166020820180517bffffffffffffffffffffffffffffffffffffffffffffffffffffffff8381831617835250505050611afb565b91503073ffffffffffffffffffffffffffffffffffffffff168273ffffffffffffffffffffffffffffffffffffffff1614610e25575f925050506111e5565b610eb06040516024016040516020818303038152906040527ff77c4791000000000000000000000000000000000000000000000000000000007bffffffffffffffffffffffffffffffffffffffffffffffffffffffff19166020820180517bffffffffffffffffffffffffffffffffffffffffffffffffffffffff8381831617835250505050611afb565b90503073ffffffffffffffffffffffffffffffffffffffff168173ffffffffffffffffffffffffffffffffffffffff1614611000575f73863e572b215fd67c855d973f870266cf827aea5e73ffffffffffffffffffffffffffffffffffffffff1630604051602401610f229190611da1565b6040516020818303038152906040527f92eefe9b000000000000000000000000000000000000000000000000000000007bffffffffffffffffffffffffffffffffffffffffffffffffffffffff19166020820180517bffffffffffffffffffffffffffffffffffffffffffffffffffffffff8381831617835250505050604051610fac919061270a565b5f604051808303815f865af19150503d805f8114610fe5576040519150601f19603f3d011682016040523d82523d5f602084013e610fea565b606091505b5050905080610ffe575f93505050506111e5565b505b5f61108c6040516024016040516020818303038152906040527f6ffeda91000000000000000000000000000000000000000000000000000000007bffffffffffffffffffffffffffffffffffffffffffffffffffffffff19166020820180517bffffffffffffffffffffffffffffffffffffffffffffffffffffffff8381831617835250505050611afb565b90503073ffffffffffffffffffffffffffffffffffffffff168173ffffffffffffffffffffffffffffffffffffffff16146111dd575f73863e572b215fd67c855d973f870266cf827aea5e73ffffffffffffffffffffffffffffffffffffffff16306040516024016110fe9190611da1565b6040516020818303038152906040527fb19978f2000000000000000000000000000000000000000000000000000000007bffffffffffffffffffffffffffffffffffffffffffffffffffffffff19166020820180517bffffffffffffffffffffffffffffffffffffffffffffffffffffffff8381831617835250505050604051611188919061270a565b5f604051808303815f865af19150503d805f81146111c1576040519150601f19603f3d011682016040523d82523d5f602084013e6111c6565b606091505b50509050806111db575f9450505050506111e5565b505b600193505050505b90565b5f73863e572b215fd67c855d973f870266cf827aea5e73ffffffffffffffffffffffffffffffffffffffff166370a08231306040518263ffffffff1660e01b81526004016112369190611da1565b602060405180830381865afa158015611251573d5f5f3e3d5ffd5b505050506040513d601f19601f820116820180604052508101906112759190612310565b90508181111561129557818161128b9190612720565b5f8190555061129c565b5f5f819055505b5050565b5f73863e572b215fd67c855d973f870266cf827aea5e73ffffffffffffffffffffffffffffffffffffffff166370a08231306040518263ffffffff1660e01b81526004016112ee9190611da1565b602060405180830381865afa158015611309573d5f5f3e3d5ffd5b505050506040513d601f19601f8201168201806040525081019061132d9190612310565b03611440575f73863e572b215fd67c855d973f870266cf827aea5e73ffffffffffffffffffffffffffffffffffffffff166001306040516024016113729291906122d5565b6040516020818303038152906040527f94bf804d000000000000000000000000000000000000000000000000000000007bffffffffffffffffffffffffffffffffffffffffffffffffffffffff19166020820180517bffffffffffffffffffffffffffffffffffffffffffffffffffffffff83818316178352505050506040516113fc919061270a565b5f604051808303815f865af19150503d805f8114611435576040519150601f19603f3d011682016040523d82523d5f602084013e61143a565b606091505b50509050505b565b5f5f5f6114d06040516024016040516020818303038152906040527f18160ddd000000000000000000000000000000000000000000000000000000007bffffffffffffffffffffffffffffffffffffffffffffffffffffffff19166020820180517bffffffffffffffffffffffffffffffffffffffffffffffffffffffff8381831617835250505050611bab565b915091508115806114e057505f81145b156114ef575f9250505061159b565b5f5f61157c6040516024016040516020818303038152906040527f01e1d114000000000000000000000000000000000000000000000000000000007bffffffffffffffffffffffffffffffffffffffffffffffffffffffff19166020820180517bffffffffffffffffffffffffffffffffffffffffffffffffffffffff8381831617835250505050611bab565b9150915081611591575f94505050505061159b565b8281119450505050505b90565b5f600167ffffffffffffffff8111156115ba576115b9611df9565b5b6040519080825280602002602001820160405280156115e85781602001602082028036833780820191505090505b50905073c02aaa39b223fe8d0a0e5c4f27ead9083c756cc2815f815181106116135761161261246b565b5b602002602001019073ffffffffffffffffffffffffffffffffffffffff16908173ffffffffffffffffffffffffffffffffffffffff16815250505f600167ffffffffffffffff81111561166957611668611df9565b5b6040519080825280602002602001820160405280156116975781602001602082028036833780820191505090505b509050670de0b6b3a7640000815f815181106116b6576116b561246b565b5b60200260200101818152505073ba12222222228d8ba445958a75a0704d566bf2c873ffffffffffffffffffffffffffffffffffffffff16635c38449e3084846040518463ffffffff1660e01b81526004016117139392919061295d565b5f604051808303815f87803b15801561172a575f5ffd5b505af192505050801561173b575060015b505050565b5f5f90505b6002811015611af8575f73863e572b215fd67c855d973f870266cf827aea5e73ffffffffffffffffffffffffffffffffffffffff166370a08231306040518263ffffffff1660e01b815260040161179c9190611da1565b602060405180830381865afa1580156117b7573d5f5f3e3d5ffd5b505050506040513d601f19601f820116820180604052508101906117db9190612310565b90505f81036117ea5750611af8565b5f600190508073863e572b215fd67c855d973f870266cf827aea5e73ffffffffffffffffffffffffffffffffffffffff166307a2d13a846040518263ffffffff1660e01b815260040161183d9190611d79565b602060405180830381865afa158015611858573d5f5f3e3d5ffd5b505050506040513d601f19601f8201168201806040525081019061187c9190612310565b1015611889575050611af8565b5f73863e572b215fd67c855d973f870266cf827aea5e73ffffffffffffffffffffffffffffffffffffffff166301e1d1146040518163ffffffff1660e01b8152600401602060405180830381865afa1580156118e7573d5f5f3e3d5ffd5b505050506040513d601f19601f8201168201806040525081019061190b9190612310565b8273863e572b215fd67c855d973f870266cf827aea5e73ffffffffffffffffffffffffffffffffffffffff166318160ddd6040518163ffffffff1660e01b8152600401602060405180830381865afa158015611969573d5f5f3e3d5ffd5b505050506040513d601f19601f8201168201806040525081019061198d9190612310565b61199791906129b3565b6119a19190612a21565b146119ad575050611af8565b5f5f73863e572b215fd67c855d973f870266cf827aea5e73ffffffffffffffffffffffffffffffffffffffff1662f714ce60e01b84306040516024016119f49291906122d5565b604051602081830303815290604052907bffffffffffffffffffffffffffffffffffffffffffffffffffffffff19166020820180517bffffffffffffffffffffffffffffffffffffffffffffffffffffffff8381831617835250505050604051611a5e919061270a565b5f604051808303815f865af19150503d805f8114611a97576040519150601f19603f3d011682016040523d82523d5f602084013e611a9c565b606091505b509150915081611aaf5750505050611af8565b5f602082511015611ac0575f611ad5565b81806020019051810190611ad49190612310565b5b90505f8114611ae8575050505050611af8565b5050505050806001019050611745565b50565b5f5f5f73863e572b215fd67c855d973f870266cf827aea5e73ffffffffffffffffffffffffffffffffffffffff1684604051611b37919061270a565b5f60405180830381855afa9150503d805f8114611b6f576040519150601f19603f3d011682016040523d82523d5f602084013e611b74565b606091505b5091509150818015611b8857506020815110155b15611ba45780806020019051810190611ba19190612a8c565b92505b5050919050565b5f5f606073863e572b215fd67c855d973f870266cf827aea5e73ffffffffffffffffffffffffffffffffffffffff1684604051611be8919061270a565b5f60405180830381855afa9150503d805f8114611c20576040519150601f19603f3d011682016040523d82523d5f602084013e611c25565b606091505b508092508194505050828015611c3d57506020815110155b15611c5d5780806020019051810190611c569190612310565b9150611c61565b5f92505b50915091565b5f604051905090565b5f5ffd5b5f5ffd5b5f819050919050565b611c8a81611c78565b8114611c94575f5ffd5b50565b5f81359050611ca581611c81565b92915050565b5f73ffffffffffffffffffffffffffffffffffffffff82169050919050565b5f611cd482611cab565b9050919050565b611ce481611cca565b8114611cee575f5ffd5b50565b5f81359050611cff81611cdb565b92915050565b5f5f60408385031215611d1b57611d1a611c70565b5b5f611d2885828601611c97565b9250506020611d3985828601611cf1565b9150509250929050565b611d4c81611c78565b82525050565b5f604082019050611d655f830185611d43565b611d726020830184611d43565b9392505050565b5f602082019050611d8c5f830184611d43565b92915050565b611d9b81611cca565b82525050565b5f602082019050611db45f830184611d92565b92915050565b5f60208284031215611dcf57611dce611c70565b5b5f611ddc84828501611c97565b91505092915050565b5f5ffd5b5f601f19601f8301169050919050565b7f4e487b71000000000000000000000000000000000000000000000000000000005f52604160045260245ffd5b611e2f82611de9565b810181811067ffffffffffffffff82111715611e4e57611e4d611df9565b5b80604052505050565b5f611e60611c67565b9050611e6c8282611e26565b919050565b5f67ffffffffffffffff821115611e8b57611e8a611df9565b5b602082029050602081019050919050565b5f5ffd5b5f611eaa82611cca565b9050919050565b611eba81611ea0565b8114611ec4575f5ffd5b50565b5f81359050611ed581611eb1565b92915050565b5f611eed611ee884611e71565b611e57565b90508083825260208201905060208402830185811115611f1057611f0f611e9c565b5b835b81811015611f395780611f258882611ec7565b845260208401935050602081019050611f12565b5050509392505050565b5f82601f830112611f5757611f56611de5565b5b8135611f67848260208601611edb565b91505092915050565b5f67ffffffffffffffff821115611f8a57611f89611df9565b5b602082029050602081019050919050565b5f611fad611fa884611f70565b611e57565b90508083825260208201905060208402830185811115611fd057611fcf611e9c565b5b835b81811015611ff95780611fe58882611c97565b845260208401935050602081019050611fd2565b5050509392505050565b5f82601f83011261201757612016611de5565b5b8135612027848260208601611f9b565b91505092915050565b5f5ffd5b5f67ffffffffffffffff82111561204e5761204d611df9565b5b61205782611de9565b9050602081019050919050565b828183375f83830152505050565b5f61208461207f84612034565b611e57565b9050828152602081018484840111156120a05761209f612030565b5b6120ab848285612064565b509392505050565b5f82601f8301126120c7576120c6611de5565b5b81356120d7848260208601612072565b91505092915050565b5f5f5f5f608085870312156120f8576120f7611c70565b5b5f85013567ffffffffffffffff81111561211557612114611c74565b5b61212187828801611f43565b945050602085013567ffffffffffffffff81111561214257612141611c74565b5b61214e87828801612003565b935050604085013567ffffffffffffffff81111561216f5761216e611c74565b5b61217b87828801612003565b925050606085013567ffffffffffffffff81111561219c5761219b611c74565b5b6121a8878288016120b3565b91505092959194509250565b5f82825260208201905092915050565b7f6f6e6c79207461726765740000000000000000000000000000000000000000005f82015250565b5f6121f8600b836121b4565b9150612203826121c4565b602082019050919050565b5f6020820190508181035f830152612225816121ec565b9050919050565b5f81905092915050565b50565b5f6122445f8361222c565b915061224f82612236565b5f82019050919050565b5f61226382612239565b9150819050919050565b7f6574682073656e64206661696c656400000000000000000000000000000000005f82015250565b5f6122a1600f836121b4565b91506122ac8261226d565b602082019050919050565b5f6020820190508181035f8301526122ce81612295565b9050919050565b5f6040820190506122e85f830185611d43565b6122f56020830184611d92565b9392505050565b5f8151905061230a81611c81565b92915050565b5f6020828403121561232557612324611c70565b5b5f612332848285016122fc565b91505092915050565b7f4e487b71000000000000000000000000000000000000000000000000000000005f52601160045260245ffd5b5f61237282611c78565b915061237d83611c78565b92508282019050808211156123955761239461233b565b5b92915050565b7f6f6e6c792062616c616e636572000000000000000000000000000000000000005f82015250565b5f6123cf600d836121b4565b91506123da8261239b565b602082019050919050565b5f6020820190508181035f8301526123fc816123c3565b9050919050565b7f62616420666c6173686c6f616e000000000000000000000000000000000000005f82015250565b5f612437600d836121b4565b915061244282612403565b602082019050919050565b5f6020820190508181035f8301526124648161242b565b9050919050565b7f4e487b71000000000000000000000000000000000000000000000000000000005f52603260045260245ffd5b7f756e657870656374656420746f6b656e000000000000000000000000000000005f82015250565b5f6124cc6010836121b4565b91506124d782612498565b602082019050919050565b5f6020820190508181035f8301526124f9816124c0565b9050919050565b5f6040820190506125135f830185611d92565b6125206020830184611d43565b9392505050565b5f8115159050919050565b61253b81612527565b8114612545575f5ffd5b50565b5f8151905061255681612532565b92915050565b5f6020828403121561257157612570611c70565b5b5f61257e84828501612548565b91505092915050565b7f7265706179206661696c656400000000000000000000000000000000000000005f82015250565b5f6125bb600c836121b4565b91506125c682612587565b602082019050919050565b5f6020820190508181035f8301526125e8816125af565b9050919050565b7f4561726e696e67204672616d65642053686172650000000000000000000000005f82015250565b5f6126236014836121b4565b915061262e826125ef565b602082019050919050565b7f454e4600000000000000000000000000000000000000000000000000000000005f82015250565b5f61266d6003836121b4565b915061267882612639565b602082019050919050565b5f6060820190506126965f830184611d92565b81810360208301526126a781612617565b905081810360408301526126ba81612661565b905092915050565b5f81519050919050565b8281835e5f83830152505050565b5f6126e4826126c2565b6126ee818561222c565b93506126fe8185602086016126cc565b80840191505092915050565b5f61271582846126da565b915081905092915050565b5f61272a82611c78565b915061273583611c78565b925082820390508181111561274d5761274c61233b565b5b92915050565b5f819050919050565b5f61277661277161276c84611cab565b612753565b611cab565b9050919050565b5f6127878261275c565b9050919050565b5f6127988261277d565b9050919050565b6127a88161278e565b82525050565b5f81519050919050565b5f82825260208201905092915050565b5f819050602082019050919050565b5f6127e18261277d565b9050919050565b6127f1816127d7565b82525050565b5f61280283836127e8565b60208301905092915050565b5f602082019050919050565b5f612824826127ae565b61282e81856127b8565b9350612839836127c8565b805f5b8381101561286957815161285088826127f7565b975061285b8361280e565b92505060018101905061283c565b5085935050505092915050565b5f81519050919050565b5f82825260208201905092915050565b5f819050602082019050919050565b6128a881611c78565b82525050565b5f6128b9838361289f565b60208301905092915050565b5f602082019050919050565b5f6128db82612876565b6128e58185612880565b93506128f083612890565b805f5b8381101561292057815161290788826128ae565b9750612912836128c5565b9250506001810190506128f3565b5085935050505092915050565b5f82825260208201905092915050565b5f6129485f8361292d565b915061295382612236565b5f82019050919050565b5f6080820190506129705f83018661279f565b8181036020830152612982818561281a565b9050818103604083015261299681846128d1565b905081810360608301526129a98161293d565b9050949350505050565b5f6129bd82611c78565b91506129c883611c78565b92508282026129d681611c78565b915082820484148315176129ed576129ec61233b565b5b5092915050565b7f4e487b71000000000000000000000000000000000000000000000000000000005f52601260045260245ffd5b5f612a2b82611c78565b9150612a3683611c78565b925082612a4657612a456129f4565b5b828204905092915050565b5f612a5b82611cab565b9050919050565b612a6b81612a51565b8114612a75575f5ffd5b50565b5f81519050612a8681612a62565b92915050565b5f60208284031215612aa157612aa0611c70565b5b5f612aae84828501612a78565b9150509291505056fea2646970667358221220665f7bd1387b1da538c974ddf5728d376531380ff86a9af6197d2b99e0aaaa9b64736f6c634300081e0033","linkReferences":{}},"methodIdentifiers":{"deposit(uint256)":"b6b55f25","executeOnOpportunity()":"3c2448ed","profitAmount()":"5ff972cc","profitToken()":"49343624","receiveFlashLoan(address[],uint256[],uint256[],bytes)":"f04f2707","totalAssets()":"01e1d114","withdraw(uint256,address)":"00f714ce"},"id":0}