{"abi":[{"type":"constructor","inputs":[],"stateMutability":"nonpayable"},{"type":"receive","stateMutability":"payable"},{"type":"function","name":"MIM","inputs":[],"outputs":[{"name":"","type":"address","internalType":"address"}],"stateMutability":"view"},{"type":"function","name":"TARGET_CAULDRON","inputs":[],"outputs":[{"name":"","type":"address","internalType":"address"}],"stateMutability":"view"},{"type":"function","name":"attemptLiveTarget","inputs":[],"outputs":[],"stateMutability":"nonpayable"},{"type":"function","name":"attemptPublicArbitrage","inputs":[],"outputs":[],"stateMutability":"nonpayable"},{"type":"function","name":"attemptValidationPath","inputs":[],"outputs":[],"stateMutability":"nonpayable"},{"type":"function","name":"bentoBox","inputs":[],"outputs":[{"name":"","type":"address","internalType":"address"}],"stateMutability":"view"},{"type":"function","name":"borrowSucceeded","inputs":[],"outputs":[{"name":"","type":"bool","internalType":"bool"}],"stateMutability":"view"},{"type":"function","name":"collateralToken","inputs":[],"outputs":[{"name":"","type":"address","internalType":"address"}],"stateMutability":"view"},{"type":"function","name":"executeOnOpportunity","inputs":[],"outputs":[{"name":"","type":"uint256","internalType":"uint256"}],"stateMutability":"nonpayable"},{"type":"function","name":"initAcceptedFailedOracleRead","inputs":[],"outputs":[{"name":"","type":"bool","internalType":"bool"}],"stateMutability":"view"},{"type":"function","name":"liquidationBlocked","inputs":[],"outputs":[{"name":"","type":"bool","internalType":"bool"}],"stateMutability":"view"},{"type":"function","name":"liveTargetAttempted","inputs":[],"outputs":[{"name":"","type":"bool","internalType":"bool"}],"stateMutability":"view"},{"type":"function","name":"liveTargetCachedZeroObserved","inputs":[],"outputs":[{"name":"","type":"bool","internalType":"bool"}],"stateMutability":"view"},{"type":"function","name":"liveTargetInitializationStageInfeasible","inputs":[],"outputs":[{"name":"","type":"bool","internalType":"bool"}],"stateMutability":"view"},{"type":"function","name":"liveTargetProfitable","inputs":[],"outputs":[{"name":"","type":"bool","internalType":"bool"}],"stateMutability":"view"},{"type":"function","name":"onFlashLoan","inputs":[{"name":"sender","type":"address","internalType":"address"},{"name":"token","type":"address","internalType":"address"},{"name":"amount","type":"uint256","internalType":"uint256"},{"name":"fee","type":"uint256","internalType":"uint256"},{"name":"","type":"bytes","internalType":"bytes"}],"outputs":[],"stateMutability":"nonpayable"},{"type":"function","name":"probeLiveLiquidation","inputs":[],"outputs":[],"stateMutability":"nonpayable"},{"type":"function","name":"profitAmount","inputs":[],"outputs":[{"name":"","type":"uint256","internalType":"uint256"}],"stateMutability":"view"},{"type":"function","name":"profitToken","inputs":[],"outputs":[{"name":"","type":"address","internalType":"address"}],"stateMutability":"pure"},{"type":"function","name":"publicArbitrageSucceeded","inputs":[],"outputs":[{"name":"","type":"bool","internalType":"bool"}],"stateMutability":"view"},{"type":"function","name":"status","inputs":[],"outputs":[{"name":"","type":"bytes32","internalType":"bytes32"}],"stateMutability":"view"},{"type":"function","name":"uniswapV2Call","inputs":[{"name":"sender","type":"address","internalType":"address"},{"name":"amount0","type":"uint256","internalType":"uint256"},{"name":"amount1","type":"uint256","internalType":"uint256"},{"name":"","type":"bytes","internalType":"bytes"}],"outputs":[],"stateMutability":"nonpayable"},{"type":"function","name":"validationCauldron","inputs":[],"outputs":[{"name":"","type":"address","internalType":"address"}],"stateMutability":"view"},{"type":"function","name":"validationOracle","inputs":[],"outputs":[{"name":"","type":"address","internalType":"address"}],"stateMutability":"view"}],"bytecode":{"object":"0x6080604052348015600e575f5ffd5b506177cf8061001c5f395ff3fe60806040526004361061014d575f3560e01c8063855a2fc0116100b5578063b7021f771161006e578063b7021f771461040c578063bd7a598c14610436578063c5bd196f14610460578063c5d948e71461048a578063daec383d146104b4578063f10a3d81146104de57610154565b8063855a2fc01461032457806386316ffb1461034e57806386e8a1a214610378578063983dae11146103a2578063a963f276146103cc578063b2016bd4146103e257610154565b80633c2448ed116101075780633c2448ed146102285780634686aeb014610252578063493436241461027c5780634f8d51ce146102a65780635ff972cc146102d05780636b2ace87146102fa57610154565b8062a4c06414610158578063072d5e471461018257806310d1e85c14610198578063200d2ed2146101c057806323e30c8b146101ea5780633a6348111461021257610154565b3661015457005b5f5ffd5b348015610163575f5ffd5b5061016c6104f4565b60405161017991906156be565b60405180910390f35b34801561018d575f5ffd5b50610196610507565b005b3480156101a3575f5ffd5b506101be60048036038101906101b991906157d6565b61057f565b005b3480156101cb575f5ffd5b506101d4610c88565b6040516101e19190615872565b60405180910390f35b3480156101f5575f5ffd5b50610210600480360381019061020b919061588b565b610c8e565b005b34801561021d575f5ffd5b506102266110c5565b005b348015610233575f5ffd5b5061023c61113d565b6040516102499190615930565b60405180910390f35b34801561025d575f5ffd5b50610266611735565b60405161027391906156be565b60405180910390f35b348015610287575f5ffd5b50610290611748565b60405161029d9190615958565b60405180910390f35b3480156102b1575f5ffd5b506102ba611763565b6040516102c791906156be565b60405180910390f35b3480156102db575f5ffd5b506102e4611776565b6040516102f19190615930565b60405180910390f35b348015610305575f5ffd5b5061030e61177e565b60405161031b9190615958565b60405180910390f35b34801561032f575f5ffd5b506103386117a4565b60405161034591906156be565b60405180910390f35b348015610359575f5ffd5b506103626117b7565b60405161036f9190615958565b60405180910390f35b348015610383575f5ffd5b5061038c6117dc565b60405161039991906156be565b60405180910390f35b3480156103ad575f5ffd5b506103b66117ef565b6040516103c39190615958565b60405180910390f35b3480156103d7575f5ffd5b506103e0611814565b005b3480156103ed575f5ffd5b506103f661188c565b6040516104039190615958565b60405180910390f35b348015610417575f5ffd5b506104206118b1565b60405161042d91906156be565b60405180910390f35b348015610441575f5ffd5b5061044a6118c4565b6040516104579190615958565b60405180910390f35b34801561046b575f5ffd5b506104746118dc565b60405161048191906156be565b60405180910390f35b348015610495575f5ffd5b5061049e6118ef565b6040516104ab91906156be565b60405180910390f35b3480156104bf575f5ffd5b506104c8611902565b6040516104d59190615958565b60405180910390f35b3480156104e9575f5ffd5b506104f261191a565b005b600560149054906101000a900460ff1681565b3073ffffffffffffffffffffffffffffffffffffffff163373ffffffffffffffffffffffffffffffffffffffff1614610575576040517f08c379a000000000000000000000000000000000000000000000000000000000815260040161056c906159cb565b60405180910390fd5b61057d611b9f565b565b6001600d54146105c4576040517f08c379a00000000000000000000000000000000000000000000000000000000081526004016105bb90615a33565b60405180910390fd5b3073ffffffffffffffffffffffffffffffffffffffff168573ffffffffffffffffffffffffffffffffffffffff1614610632576040517f08c379a000000000000000000000000000000000000000000000000000000000815260040161062990615a9b565b60405180910390fd5b60075f9054906101000a900473ffffffffffffffffffffffffffffffffffffffff1673ffffffffffffffffffffffffffffffffffffffff163373ffffffffffffffffffffffffffffffffffffffff16146106c1576040517f08c379a00000000000000000000000000000000000000000000000000000000081526004016106b890615b03565b60405180910390fd5b5f5f85116106cf57836106d1565b845b90505f8103610715576040517f08c379a000000000000000000000000000000000000000000000000000000000815260040161070c90615b6b565b60405180910390fd5b61076360035f9054906101000a900473ffffffffffffffffffffffffffffffffffffffff16600260019054906101000a900473ffffffffffffffffffffffffffffffffffffffff1683612056565b5f600260019054906101000a900473ffffffffffffffffffffffffffffffffffffffff1673ffffffffffffffffffffffffffffffffffffffff166302b9446c60035f9054906101000a900473ffffffffffffffffffffffffffffffffffffffff163030865f6040518663ffffffff1660e01b81526004016107e8959493929190615bcb565b60408051808303815f875af1158015610803573d5f5f3e3d5ffd5b505050506040513d601f19601f820116820180604052508101906108279190615c30565b9150505f810361086c576040517f08c379a000000000000000000000000000000000000000000000000000000000815260040161086390615cb8565b60405180910390fd5b7346f54d434063e5f1a2b2cc6d9aaa657b1b9ff82c73ffffffffffffffffffffffffffffffffffffffff1663860ffea1305f846040518463ffffffff1660e01b81526004016108bd93929190615cd6565b5f604051808303815f87803b1580156108d4575f5ffd5b505af11580156108e6573d5f5f3e3d5ffd5b505050505f7346f54d434063e5f1a2b2cc6d9aaa657b1b9ff82c73ffffffffffffffffffffffffffffffffffffffff16634b8a352930600b546040518363ffffffff1660e01b815260040161093c929190615d0b565b60408051808303815f875af1158015610957573d5f5f3e3d5ffd5b505050506040513d601f19601f8201168201806040525081019061097b9190615c30565b915050600260019054906101000a900473ffffffffffffffffffffffffffffffffffffffff1673ffffffffffffffffffffffffffffffffffffffff166397da6d307399d8a9c45b2eca8864373a26d1459e3dff1e17f330305f866040518663ffffffff1660e01b81526004016109f5959493929190615d32565b60408051808303815f875af1158015610a10573d5f5f3e3d5ffd5b505050506040513d601f19601f82011682018060405250810190610a349190615c30565b50506001547399d8a9c45b2eca8864373a26d1459e3dff1e17f373ffffffffffffffffffffffffffffffffffffffff166370a08231306040518263ffffffff1660e01b8152600401610a869190615958565b602060405180830381865afa158015610aa1573d5f5f3e3d5ffd5b505050506040513d601f19601f82011682018060405250810190610ac59190615d83565b11600560186101000a81548160ff0219169083151502179055503073ffffffffffffffffffffffffffffffffffffffff1663f10a3d816040518163ffffffff1660e01b81526004015f604051808303815f87803b158015610b24575f5ffd5b505af1925050508015610b35575060015b610b59576001600560196101000a81548160ff021916908315150217905550610b74565b5f600560196101000a81548160ff0219169083151502179055505b5f610bc260075f9054906101000a900473ffffffffffffffffffffffffffffffffffffffff1660035f9054906101000a900473ffffffffffffffffffffffffffffffffffffffff168661215d565b9050610bcd816122e2565b6001547399d8a9c45b2eca8864373a26d1459e3dff1e17f373ffffffffffffffffffffffffffffffffffffffff166370a08231306040518263ffffffff1660e01b8152600401610c1d9190615958565b602060405180830381865afa158015610c38573d5f5f3e3d5ffd5b505050506040513d601f19601f82011682018060405250810190610c5c9190615d83565b11600560156101000a81548160ff0219169083151502179055505f600d81905550505050505050505050565b60065481565b6002600d5414610cd3576040517f08c379a0000000000000000000000000000000000000000000000000000000008152600401610cca90615df8565b60405180910390fd5b600260019054906101000a900473ffffffffffffffffffffffffffffffffffffffff1673ffffffffffffffffffffffffffffffffffffffff163373ffffffffffffffffffffffffffffffffffffffff1614610d63576040517f08c379a0000000000000000000000000000000000000000000000000000000008152600401610d5a90615e60565b60405180910390fd5b3073ffffffffffffffffffffffffffffffffffffffff168673ffffffffffffffffffffffffffffffffffffffff1614610dd1576040517f08c379a0000000000000000000000000000000000000000000000000000000008152600401610dc890615ec8565b60405180910390fd5b7399d8a9c45b2eca8864373a26d1459e3dff1e17f373ffffffffffffffffffffffffffffffffffffffff168573ffffffffffffffffffffffffffffffffffffffff1614610e53576040517f08c379a0000000000000000000000000000000000000000000000000000000008152600401610e4a90615f30565b60405180910390fd5b5f610ee0600e5f015f9054906101000a900473ffffffffffffffffffffffffffffffffffffffff167399d8a9c45b2eca8864373a26d1459e3dff1e17f3600e6002015f9054906101000a900473ffffffffffffffffffffffffffffffffffffffff16600e6003015f9054906101000a900473ffffffffffffffffffffffffffffffffffffffff1689612497565b90505f610f70600e6001015f9054906101000a900473ffffffffffffffffffffffffffffffffffffffff16600e6002015f9054906101000a900473ffffffffffffffffffffffffffffffffffffffff167399d8a9c45b2eca8864373a26d1459e3dff1e17f3600e6004015f9054906101000a900473ffffffffffffffffffffffffffffffffffffffff1686612497565b90508486610f7e9190615f7b565b8111610fbf576040517f08c379a0000000000000000000000000000000000000000000000000000000008152600401610fb690615ff8565b60405180910390fd5b61100b7399d8a9c45b2eca8864373a26d1459e3dff1e17f3600260019054906101000a900473ffffffffffffffffffffffffffffffffffffffff1687896110069190615f7b565b612870565b6001547399d8a9c45b2eca8864373a26d1459e3dff1e17f373ffffffffffffffffffffffffffffffffffffffff166370a08231306040518263ffffffff1660e01b815260040161105b9190615958565b602060405180830381865afa158015611076573d5f5f3e3d5ffd5b505050506040513d601f19601f8201168201806040525081019061109a9190615d83565b116005601b6101000a81548160ff0219169083151502179055505f600d819055505050505050505050565b3073ffffffffffffffffffffffffffffffffffffffff163373ffffffffffffffffffffffffffffffffffffffff1614611133576040517f08c379a000000000000000000000000000000000000000000000000000000000815260040161112a906159cb565b60405180910390fd5b61113b6128f6565b565b5f60025f9054906101000a900460ff161561115b575f549050611732565b600160025f6101000a81548160ff0219169083151502179055507399d8a9c45b2eca8864373a26d1459e3dff1e17f373ffffffffffffffffffffffffffffffffffffffff166370a08231306040518263ffffffff1660e01b81526004016111c29190615958565b602060405180830381865afa1580156111dd573d5f5f3e3d5ffd5b505050506040513d601f19601f820116820180604052508101906112019190615d83565b6001819055507346f54d434063e5f1a2b2cc6d9aaa657b1b9ff82c73ffffffffffffffffffffffffffffffffffffffff16636b2ace876040518163ffffffff1660e01b8152600401602060405180830381865afa158015611264573d5f5f3e3d5ffd5b505050506040513d601f19601f82011682018060405250810190611288919061602a565b600260016101000a81548173ffffffffffffffffffffffffffffffffffffffff021916908373ffffffffffffffffffffffffffffffffffffffff1602179055507346f54d434063e5f1a2b2cc6d9aaa657b1b9ff82c73ffffffffffffffffffffffffffffffffffffffff1663d8dfeb456040518163ffffffff1660e01b8152600401602060405180830381865afa158015611325573d5f5f3e3d5ffd5b505050506040513d601f19601f82011682018060405250810190611349919061602a565b60035f6101000a81548173ffffffffffffffffffffffffffffffffffffffff021916908373ffffffffffffffffffffffffffffffffffffffff1602179055507399d8a9c45b2eca8864373a26d1459e3dff1e17f373ffffffffffffffffffffffffffffffffffffffff167346f54d434063e5f1a2b2cc6d9aaa657b1b9ff82c73ffffffffffffffffffffffffffffffffffffffff16639b352ae16040518163ffffffff1660e01b8152600401602060405180830381865afa158015611410573d5f5f3e3d5ffd5b505050506040513d601f19601f82011682018060405250810190611434919061602a565b73ffffffffffffffffffffffffffffffffffffffff161461148a576040517f08c379a00000000000000000000000000000000000000000000000000000000081526004016114819061609f565b60405180910390fd5b3073ffffffffffffffffffffffffffffffffffffffff1663072d5e476040518163ffffffff1660e01b81526004015f604051808303815f87803b1580156114cf575f5ffd5b505af19250505080156114e0575060015b611504576001600560176101000a81548160ff021916908315150217905550611542565b600560159054906101000a900460ff1615611541577f465fe967114895a6ceb349f1f083901ad81ae56d5a3ec9e13d7f3c59867e8b3d6006819055505b5b600560159054906101000a900460ff1661167a573073ffffffffffffffffffffffffffffffffffffffff16633a6348116040518163ffffffff1660e01b81526004015f604051808303815f87803b15801561159b575f5ffd5b505af19250505080156115ac575060015b156115ef576005601a9054906101000a900460ff16156115ee577f9bdb7051edc747410090a34e3942184fbfc1eedcbf1dfcab33a0b786e650276a6006819055505b5b3073ffffffffffffffffffffffffffffffffffffffff1663a963f2766040518163ffffffff1660e01b81526004015f604051808303815f87803b158015611634575f5ffd5b505af1925050508015611645575060015b505f5f1b60065403611679577f62e9a9d918642b1185ba3e148da42ba038e7e65b23e46e61cca58803eae656986006819055505b5b5f7399d8a9c45b2eca8864373a26d1459e3dff1e17f373ffffffffffffffffffffffffffffffffffffffff166370a08231306040518263ffffffff1660e01b81526004016116c89190615958565b602060405180830381865afa1580156116e3573d5f5f3e3d5ffd5b505050506040513d601f19601f820116820180604052508101906117079190615d83565b90506001548111611718575f611727565b6001548161172691906160bd565b5b5f819055505f549150505b90565b600560179054906101000a900460ff1681565b5f7399d8a9c45b2eca8864373a26d1459e3dff1e17f3905090565b600560169054906101000a900460ff1681565b5f5f54905090565b600260019054906101000a900473ffffffffffffffffffffffffffffffffffffffff1681565b6005601b9054906101000a900460ff1681565b60055f9054906101000a900473ffffffffffffffffffffffffffffffffffffffff1681565b600560159054906101000a900460ff1681565b60045f9054906101000a900473ffffffffffffffffffffffffffffffffffffffff1681565b3073ffffffffffffffffffffffffffffffffffffffff163373ffffffffffffffffffffffffffffffffffffffff1614611882576040517f08c379a0000000000000000000000000000000000000000000000000000000008152600401611879906159cb565b60405180910390fd5b61188a612ce7565b565b60035f9054906101000a900473ffffffffffffffffffffffffffffffffffffffff1681565b600560199054906101000a900460ff1681565b7346f54d434063e5f1a2b2cc6d9aaa657b1b9ff82c81565b6005601a9054906101000a900460ff1681565b600560189054906101000a900460ff1681565b7399d8a9c45b2eca8864373a26d1459e3dff1e17f381565b3073ffffffffffffffffffffffffffffffffffffffff163373ffffffffffffffffffffffffffffffffffffffff1614611988576040517f08c379a000000000000000000000000000000000000000000000000000000000815260040161197f906159cb565b60405180910390fd5b5f600167ffffffffffffffff8111156119a4576119a36160f0565b5b6040519080825280602002602001820160405280156119d25781602001602082028036833780820191505090505b50905030815f815181106119e9576119e861611d565b5b602002602001019073ffffffffffffffffffffffffffffffffffffffff16908173ffffffffffffffffffffffffffffffffffffffff16815250505f600167ffffffffffffffff811115611a3f57611a3e6160f0565b5b604051908082528060200260200182016040528015611a6d5781602001602082028036833780820191505090505b5090507346f54d434063e5f1a2b2cc6d9aaa657b1b9ff82c73ffffffffffffffffffffffffffffffffffffffff166348e4163e306040518263ffffffff1660e01b8152600401611abd9190615958565b602060405180830381865afa158015611ad8573d5f5f3e3d5ffd5b505050506040513d601f19601f82011682018060405250810190611afc9190615d83565b815f81518110611b0f57611b0e61611d565b5b6020026020010181815250507346f54d434063e5f1a2b2cc6d9aaa657b1b9ff82c73ffffffffffffffffffffffffffffffffffffffff1663ff6ff84b8383305f6040518563ffffffff1660e01b8152600401611b6e949392919061633d565b5f604051808303815f87803b158015611b85575f5ffd5b505af1158015611b97573d5f5f3e3d5ffd5b505050505050565b6001600560146101000a81548160ff0219169083151502179055505f5f7346f54d434063e5f1a2b2cc6d9aaa657b1b9ff82c73ffffffffffffffffffffffffffffffffffffffff166302ce728f6040518163ffffffff1660e01b815260040160408051808303815f875af1158015611c19573d5f5f3e3d5ffd5b505050506040513d601f19601f82011682018060405250810190611c3d91906163cb565b915091505f81141580611c4d5750815b15611c74576001600560176101000a81548160ff0219169083151502179055505050612054565b6001600560166101000a81548160ff021916908315150217905550611c97612f87565b600b819055505f600b5403611cc8576001600560176101000a81548160ff0219169083151502179055505050612054565b611cf260035f9054906101000a900473ffffffffffffffffffffffffffffffffffffffff1661337b565b600c81905550611d03600c54613436565b60075f60085f60095f600a5f8891906101000a81548173ffffffffffffffffffffffffffffffffffffffff021916908373ffffffffffffffffffffffffffffffffffffffff1602179055508791906101000a81548173ffffffffffffffffffffffffffffffffffffffff021916908373ffffffffffffffffffffffffffffffffffffffff1602179055508691906101000a81548173ffffffffffffffffffffffffffffffffffffffff021916908373ffffffffffffffffffffffffffffffffffffffff1602179055508591906101000a81548173ffffffffffffffffffffffffffffffffffffffff021916908373ffffffffffffffffffffffffffffffffffffffff160217905550505050505f73ffffffffffffffffffffffffffffffffffffffff1660075f9054906101000a900473ffffffffffffffffffffffffffffffffffffffff1673ffffffffffffffffffffffffffffffffffffffff1603611e85576001600560176101000a81548160ff0219169083151502179055505050612054565b5f60075f9054906101000a900473ffffffffffffffffffffffffffffffffffffffff1690506001600d8190555060035f9054906101000a900473ffffffffffffffffffffffffffffffffffffffff1673ffffffffffffffffffffffffffffffffffffffff168173ffffffffffffffffffffffffffffffffffffffff16630dfe16816040518163ffffffff1660e01b8152600401602060405180830381865afa158015611f33573d5f5f3e3d5ffd5b505050506040513d601f19601f82011682018060405250810190611f57919061602a565b73ffffffffffffffffffffffffffffffffffffffff1603611fe3578073ffffffffffffffffffffffffffffffffffffffff1663022c0d9f600c545f306040518463ffffffff1660e01b8152600401611fb193929190616453565b5f604051808303815f87803b158015611fc8575f5ffd5b505af1158015611fda573d5f5f3e3d5ffd5b50505050612050565b8073ffffffffffffffffffffffffffffffffffffffff1663022c0d9f5f600c54306040518463ffffffff1660e01b81526004016120229392919061649b565b5f604051808303815f87803b158015612039575f5ffd5b505af115801561204b573d5f5f3e3d5ffd5b505050505b5050505b565b6120d78363095ea7b360e01b845f60405160240161207592919061651f565b604051602081830303815290604052907bffffffffffffffffffffffffffffffffffffffffffffffffffffffff19166020820180517bffffffffffffffffffffffffffffffffffffffffffffffffffffffff83818316178352505050506134f3565b6121588363095ea7b360e01b84846040516024016120f6929190615d0b565b604051602081830303815290604052907bffffffffffffffffffffffffffffffffffffffffffffffffffffffff19166020820180517bffffffffffffffffffffffffffffffffffffffffffffffffffffffff83818316178352505050506134f3565b505050565b5f5f8490505f5f8273ffffffffffffffffffffffffffffffffffffffff16630902f1ac6040518163ffffffff1660e01b8152600401606060405180830381865afa1580156121ad573d5f5f3e3d5ffd5b505050506040513d601f19601f820116820180604052508101906121d191906165c2565b50915091508573ffffffffffffffffffffffffffffffffffffffff168373ffffffffffffffffffffffffffffffffffffffff16630dfe16816040518163ffffffff1660e01b8152600401602060405180830381865afa158015612236573d5f5f3e3d5ffd5b505050506040513d601f19601f8201168201806040525081019061225a919061602a565b73ffffffffffffffffffffffffffffffffffffffff16036122aa576122a085826dffffffffffffffffffffffffffff16846dffffffffffffffffffffffffffff166135ca565b93505050506122db565b6122d585836dffffffffffffffffffffffffffff16836dffffffffffffffffffffffffffff166135ca565b93505050505b9392505050565b7399d8a9c45b2eca8864373a26d1459e3dff1e17f373ffffffffffffffffffffffffffffffffffffffff1660095f9054906101000a900473ffffffffffffffffffffffffffffffffffffffff1673ffffffffffffffffffffffffffffffffffffffff160361238f5761238a7399d8a9c45b2eca8864373a26d1459e3dff1e17f360075f9054906101000a900473ffffffffffffffffffffffffffffffffffffffff1683612870565b612494565b5f6123ff60085f9054906101000a900473ffffffffffffffffffffffffffffffffffffffff1660095f9054906101000a900473ffffffffffffffffffffffffffffffffffffffff16600a5f9054906101000a900473ffffffffffffffffffffffffffffffffffffffff1685613676565b9050600b548110612445576040517f08c379a000000000000000000000000000000000000000000000000000000000815260040161243c9061665c565b60405180910390fd5b61249260095f9054906101000a900473ffffffffffffffffffffffffffffffffffffffff1660075f9054906101000a900473ffffffffffffffffffffffffffffffffffffffff1684612870565b505b50565b5f6124a3858784612056565b5f73ffffffffffffffffffffffffffffffffffffffff168373ffffffffffffffffffffffffffffffffffffffff1603612679575f600267ffffffffffffffff8111156124f2576124f16160f0565b5b6040519080825280602002602001820160405280156125205781602001602082028036833780820191505090505b50905085815f815181106125375761253661611d565b5b602002602001019073ffffffffffffffffffffffffffffffffffffffff16908173ffffffffffffffffffffffffffffffffffffffff168152505084816001815181106125865761258561611d565b5b602002602001019073ffffffffffffffffffffffffffffffffffffffff16908173ffffffffffffffffffffffffffffffffffffffff16815250505f8773ffffffffffffffffffffffffffffffffffffffff166338ed17398560018530426040518663ffffffff1660e01b81526004016126039594939291906166b3565b5f604051808303815f875af115801561261e573d5f5f3e3d5ffd5b505050506040513d5f823e3d601f19601f820116820180604052508101906126469190616826565b9050806001825161265791906160bd565b815181106126685761266761611d565b5b602002602001015192505050612867565b5f600367ffffffffffffffff811115612695576126946160f0565b5b6040519080825280602002602001820160405280156126c35781602001602082028036833780820191505090505b50905085815f815181106126da576126d961611d565b5b602002602001019073ffffffffffffffffffffffffffffffffffffffff16908173ffffffffffffffffffffffffffffffffffffffff168152505083816001815181106127295761272861611d565b5b602002602001019073ffffffffffffffffffffffffffffffffffffffff16908173ffffffffffffffffffffffffffffffffffffffff168152505084816002815181106127785761277761611d565b5b602002602001019073ffffffffffffffffffffffffffffffffffffffff16908173ffffffffffffffffffffffffffffffffffffffff16815250505f8773ffffffffffffffffffffffffffffffffffffffff166338ed17398560018530426040518663ffffffff1660e01b81526004016127f59594939291906166b3565b5f604051808303815f875af1158015612810573d5f5f3e3d5ffd5b505050506040513d5f823e3d601f19601f820116820180604052508101906128389190616826565b9050806001825161284991906160bd565b8151811061285a5761285961611d565b5b6020026020010151925050505b95945050505050565b6128f18363a9059cbb60e01b848460405160240161288f929190615d0b565b604051602081830303815290604052907bffffffffffffffffffffffffffffffffffffffffffffffffffffffff19166020820180517bffffffffffffffffffffffffffffffffffffffffffffffffffffffff83818316178352505050506134f3565b505050565b604051612902906155e6565b604051809103905ff08015801561291b573d5f5f3e3d5ffd5b5060045f6101000a81548173ffffffffffffffffffffffffffffffffffffffff021916908373ffffffffffffffffffffffffffffffffffffffff16021790555060035f9054906101000a900473ffffffffffffffffffffffffffffffffffffffff167399d8a9c45b2eca8864373a26d1459e3dff1e17f360045f9054906101000a900473ffffffffffffffffffffffffffffffffffffffff167346f54d434063e5f1a2b2cc6d9aaa657b1b9ff82c73ffffffffffffffffffffffffffffffffffffffff1663c7ee2a7b6040518163ffffffff1660e01b8152600401602060405180830381865afa158015612a11573d5f5f3e3d5ffd5b505050506040513d601f19601f82011682018060405250810190612a359190615d83565b7346f54d434063e5f1a2b2cc6d9aaa657b1b9ff82c73ffffffffffffffffffffffffffffffffffffffff1663aba024f46040518163ffffffff1660e01b8152600401602060405180830381865afa158015612a92573d5f5f3e3d5ffd5b505050506040513d601f19601f82011682018060405250810190612ab69190615d83565b604051612ac2906155f3565b612ad095949392919061686d565b604051809103905ff080158015612ae9573d5f5f3e3d5ffd5b5060055f6101000a81548173ffffffffffffffffffffffffffffffffffffffff021916908373ffffffffffffffffffffffffffffffffffffffff16021790555060055f9054906101000a900473ffffffffffffffffffffffffffffffffffffffff1673ffffffffffffffffffffffffffffffffffffffff1663e1c7392a6040518163ffffffff1660e01b81526004015f604051808303815f87803b158015612b8f575f5ffd5b505af1158015612ba1573d5f5f3e3d5ffd5b5050505060055f9054906101000a900473ffffffffffffffffffffffffffffffffffffffff1673ffffffffffffffffffffffffffffffffffffffff166375587d3c6040518163ffffffff1660e01b8152600401602060405180830381865afa158015612c0f573d5f5f3e3d5ffd5b505050506040513d601f19601f82011682018060405250810190612c3391906168be565b158015612ccc57505f60055f9054906101000a900473ffffffffffffffffffffffffffffffffffffffff1673ffffffffffffffffffffffffffffffffffffffff16633ba0b9a96040518163ffffffff1660e01b8152600401602060405180830381865afa158015612ca6573d5f5f3e3d5ffd5b505050506040513d601f19601f82011682018060405250810190612cca9190615d83565b145b6005601a6101000a81548160ff021916908315150217905550565b5f73ffffffffffffffffffffffffffffffffffffffff16600260019054906101000a900473ffffffffffffffffffffffffffffffffffffffff1673ffffffffffffffffffffffffffffffffffffffff160315612f85575f5f612d47613b39565b9150915081612d57575050612f85565b80600e5f820151815f015f6101000a81548173ffffffffffffffffffffffffffffffffffffffff021916908373ffffffffffffffffffffffffffffffffffffffff1602179055506020820151816001015f6101000a81548173ffffffffffffffffffffffffffffffffffffffff021916908373ffffffffffffffffffffffffffffffffffffffff1602179055506040820151816002015f6101000a81548173ffffffffffffffffffffffffffffffffffffffff021916908373ffffffffffffffffffffffffffffffffffffffff1602179055506060820151816003015f6101000a81548173ffffffffffffffffffffffffffffffffffffffff021916908373ffffffffffffffffffffffffffffffffffffffff1602179055506080820151816004015f6101000a81548173ffffffffffffffffffffffffffffffffffffffff021916908373ffffffffffffffffffffffffffffffffffffffff16021790555060a0820151816005015560c082015181600601559050506002600d81905550600260019054906101000a900473ffffffffffffffffffffffffffffffffffffffff1673ffffffffffffffffffffffffffffffffffffffff1663f1676d3730307399d8a9c45b2eca8864373a26d1459e3dff1e17f38560a001516040518563ffffffff1660e01b8152600401612f4e9493929190616909565b5f604051808303815f87803b158015612f65575f5ffd5b505af1158015612f77573d5f5f3e3d5ffd5b505050505f600d8190555050505b565b5f5f612f91613f47565b90505f8103612fa3575f915050613378565b5f5f7346f54d434063e5f1a2b2cc6d9aaa657b1b9ff82c73ffffffffffffffffffffffffffffffffffffffff1663e551d11d6040518163ffffffff1660e01b81526004016040805180830381865afa158015613001573d5f5f3e3d5ffd5b505050506040513d601f19601f8201168201806040525081019061302591906169a4565b915091505f5f7346f54d434063e5f1a2b2cc6d9aaa657b1b9ff82c73ffffffffffffffffffffffffffffffffffffffff16638285ef406040518163ffffffff1660e01b81526004016040805180830381865afa158015613087573d5f5f3e3d5ffd5b505050506040513d601f19601f820116820180604052508101906130ab91906169a4565b915091505f6fffffffffffffffffffffffffffffffff8016856fffffffffffffffffffffffffffffffff161461313057826fffffffffffffffffffffffffffffffff16856fffffffffffffffffffffffffffffffff161161310c575f613119565b828561311891906169e2565b5b6fffffffffffffffffffffffffffffffff16613152565b7fffffffffffffffffffffffffffffffffffffffffffffffffffffffffffffffff5b90505f7fffffffffffffffffffffffffffffffffffffffffffffffffffffffffffffffff90506fffffffffffffffffffffffffffffffff8016856fffffffffffffffffffffffffffffffff161461335b575f836fffffffffffffffffffffffffffffffff1614806131d457505f846fffffffffffffffffffffffffffffffff16145b1561327c57613275856fffffffffffffffffffffffffffffffff167346f54d434063e5f1a2b2cc6d9aaa657b1b9ff82c73ffffffffffffffffffffffffffffffffffffffff1663aba024f46040518163ffffffff1660e01b8152600401602060405180830381865afa15801561324c573d5f5f3e3d5ffd5b505050506040513d601f19601f820116820180604052508101906132709190615d83565b6140d8565b905061335a565b5f836fffffffffffffffffffffffffffffffff16856fffffffffffffffffffffffffffffffff16876fffffffffffffffffffffffffffffffff166132c09190616a25565b6132ca9190616a93565b9050613356817346f54d434063e5f1a2b2cc6d9aaa657b1b9ff82c73ffffffffffffffffffffffffffffffffffffffff1663aba024f46040518163ffffffff1660e01b8152600401602060405180830381865afa15801561332d573d5f5f3e3d5ffd5b505050506040513d601f19601f820116820180604052508101906133519190615d83565b6140d8565b9150505b5b61336e876133698484614109565b614109565b9750505050505050505b90565b5f5f600260019054906101000a900473ffffffffffffffffffffffffffffffffffffffff1673ffffffffffffffffffffffffffffffffffffffff166356623118846001806040518463ffffffff1660e01b81526004016133dd93929190616ac3565b602060405180830381865afa1580156133f8573d5f5f3e3d5ffd5b505050506040513d601f19601f8201168201806040525081019061341c9190615d83565b90505f811461342b578061342e565b60015b915050919050565b5f5f5f5f61346d735c69bee701ef814a2b6a3edd4b1652cb9cc5aa6f737a250d5630b4cf539739df2c5dacb4c659f2488d87614121565b809450819550829650839750505050505f73ffffffffffffffffffffffffffffffffffffffff168473ffffffffffffffffffffffffffffffffffffffff16036134ec576134e373c0aee478e3658e2610c5f7a4a2e1777ce9e4f2ac73d9e1ce17f2641f24ae83637ab66a2cca9c378b9f87614121565b93509350935093505b9193509193565b5f5f8373ffffffffffffffffffffffffffffffffffffffff168360405161351a9190616b4a565b5f604051808303815f865af19150503d805f8114613553576040519150601f19603f3d011682016040523d82523d5f602084013e613558565b606091505b509150915081801561358557505f8151148061358457508080602001905181019061358391906168be565b5b5b6135c4576040517f08c379a00000000000000000000000000000000000000000000000000000000081526004016135bb90616baa565b60405180910390fd5b50505050565b5f5f84141580156135db57505f8314155b80156135e657508382115b613625576040517f08c379a000000000000000000000000000000000000000000000000000000000815260040161361c90616c12565b60405180910390fd5b60016103e5858461363691906160bd565b6136409190616a25565b6103e8868661364f9190616a25565b6136599190616a25565b6136639190616a93565b61366d9190615f7b565b90509392505050565b5f6137217399d8a9c45b2eca8864373a26d1459e3dff1e17f3867399d8a9c45b2eca8864373a26d1459e3dff1e17f373ffffffffffffffffffffffffffffffffffffffff166370a08231306040518263ffffffff1660e01b81526004016136dd9190615958565b602060405180830381865afa1580156136f8573d5f5f3e3d5ffd5b505050506040513d601f19601f8201168201806040525081019061371c9190615d83565b612056565b5f73ffffffffffffffffffffffffffffffffffffffff168373ffffffffffffffffffffffffffffffffffffffff160361391d575f600267ffffffffffffffff8111156137705761376f6160f0565b5b60405190808252806020026020018201604052801561379e5781602001602082028036833780820191505090505b5090507399d8a9c45b2eca8864373a26d1459e3dff1e17f3815f815181106137c9576137c861611d565b5b602002602001019073ffffffffffffffffffffffffffffffffffffffff16908173ffffffffffffffffffffffffffffffffffffffff168152505084816001815181106138185761381761611d565b5b602002602001019073ffffffffffffffffffffffffffffffffffffffff16908173ffffffffffffffffffffffffffffffffffffffff16815250505f8673ffffffffffffffffffffffffffffffffffffffff16638803dbee857fffffffffffffffffffffffffffffffffffffffffffffffffffffffffffffffff8530426040518663ffffffff1660e01b81526004016138b4959493929190616c30565b5f604051808303815f875af11580156138cf573d5f5f3e3d5ffd5b505050506040513d5f823e3d601f19601f820116820180604052508101906138f79190616826565b9050805f8151811061390c5761390b61611d565b5b602002602001015192505050613b31565b5f600367ffffffffffffffff811115613939576139386160f0565b5b6040519080825280602002602001820160405280156139675781602001602082028036833780820191505090505b5090507399d8a9c45b2eca8864373a26d1459e3dff1e17f3815f815181106139925761399161611d565b5b602002602001019073ffffffffffffffffffffffffffffffffffffffff16908173ffffffffffffffffffffffffffffffffffffffff168152505083816001815181106139e1576139e061611d565b5b602002602001019073ffffffffffffffffffffffffffffffffffffffff16908173ffffffffffffffffffffffffffffffffffffffff16815250508481600281518110613a3057613a2f61611d565b5b602002602001019073ffffffffffffffffffffffffffffffffffffffff16908173ffffffffffffffffffffffffffffffffffffffff16815250505f8673ffffffffffffffffffffffffffffffffffffffff16638803dbee857fffffffffffffffffffffffffffffffffffffffffffffffffffffffffffffffff8530426040518663ffffffff1660e01b8152600401613acc959493929190616c30565b5f604051808303815f875af1158015613ae7573d5f5f3e3d5ffd5b505050506040513d5f823e3d601f19601f82011682018060405250810190613b0f9190616826565b9050805f81518110613b2457613b2361611d565b5b6020026020010151925050505b949350505050565b5f613b42615600565b5f7399d8a9c45b2eca8864373a26d1459e3dff1e17f373ffffffffffffffffffffffffffffffffffffffff166370a08231600260019054906101000a900473ffffffffffffffffffffffffffffffffffffffff166040518263ffffffff1660e01b8152600401613bb29190615958565b602060405180830381865afa158015613bcd573d5f5f3e3d5ffd5b505050506040513d601f19601f82011682018060405250810190613bf19190615d83565b905068056bc75e2d63100000811015613c0d575f925050613f43565b5f6040518060a0016040528073a0b86991c6218b36c1d19d4a2e9eb0ce3606eb4873ffffffffffffffffffffffffffffffffffffffff1673ffffffffffffffffffffffffffffffffffffffff16815260200173dac17f958d2ee523a2206206994597c13d831ec773ffffffffffffffffffffffffffffffffffffffff1673ffffffffffffffffffffffffffffffffffffffff168152602001736b175474e89094c44da98b954eedeac495271d0f73ffffffffffffffffffffffffffffffffffffffff1673ffffffffffffffffffffffffffffffffffffffff16815260200173c02aaa39b223fe8d0a0e5c4f27ead9083c756cc273ffffffffffffffffffffffffffffffffffffffff1673ffffffffffffffffffffffffffffffffffffffff16815260200160035f9054906101000a900473ffffffffffffffffffffffffffffffffffffffff1673ffffffffffffffffffffffffffffffffffffffff1673ffffffffffffffffffffffffffffffffffffffff1681525090505f5f5f90505b6005811015613f34575f838260058110613da757613da661611d565b5b602002015190505f73ffffffffffffffffffffffffffffffffffffffff168173ffffffffffffffffffffffffffffffffffffffff161480613e2757507399d8a9c45b2eca8864373a26d1459e3dff1e17f373ffffffffffffffffffffffffffffffffffffffff168173ffffffffffffffffffffffffffffffffffffffff16145b15613e325750613f27565b5f5f90505b6007811015613f24575f613e4a826143bf565b90505f811480613e5a5750868110155b15613e655750613f17565b5f5f5f613e9c8487737a250d5630b4cf539739df2c5dacb4c659f2488d73d9e1ce17f2641f24ae83637ab66a2cca9c378b9f614479565b925092509250828015613eae57508781115b15613eba57819a508097505b5f5f5f613ef1878a73d9e1ce17f2641f24ae83637ab66a2cca9c378b9f737a250d5630b4cf539739df2c5dacb4c659f2488d614479565b925092509250828015613f0357508a81115b15613f0f57819d50809a505b505050505050505b8080600101915050613e37565b50505b8080600101915050613d8a565b505f8460a00151141594505050505b9091565b5f5f600260019054906101000a900473ffffffffffffffffffffffffffffffffffffffff1673ffffffffffffffffffffffffffffffffffffffff1663f7888aec7399d8a9c45b2eca8864373a26d1459e3dff1e17f37346f54d434063e5f1a2b2cc6d9aaa657b1b9ff82c6040518363ffffffff1660e01b8152600401613fce929190616c88565b602060405180830381865afa158015613fe9573d5f5f3e3d5ffd5b505050506040513d601f19601f8201168201806040525081019061400d9190615d83565b90505f810361401f575f9150506140d5565b600260019054906101000a900473ffffffffffffffffffffffffffffffffffffffff1673ffffffffffffffffffffffffffffffffffffffff1663566231187399d8a9c45b2eca8864373a26d1459e3dff1e17f3835f6040518463ffffffff1660e01b815260040161409293929190616caf565b602060405180830381865afa1580156140ad573d5f5f3e3d5ffd5b505050506040513d601f19601f820116820180604052508101906140d19190615d83565b9150505b90565b5f81620186a06140e89190615f7b565b620186a0846140f79190616a25565b6141019190616a93565b905092915050565b5f8183106141175781614119565b825b905092915050565b5f5f5f5f8592508673ffffffffffffffffffffffffffffffffffffffff1663e6a4390560035f9054906101000a900473ffffffffffffffffffffffffffffffffffffffff167399d8a9c45b2eca8864373a26d1459e3dff1e17f36040518363ffffffff1660e01b8152600401614198929190616c88565b602060405180830381865afa1580156141b3573d5f5f3e3d5ffd5b505050506040513d601f19601f820116820180604052508101906141d7919061602a565b93505f73ffffffffffffffffffffffffffffffffffffffff168473ffffffffffffffffffffffffffffffffffffffff161415801561421b575061421a84866146aa565b5b156142455783867399d8a9c45b2eca8864373a26d1459e3dff1e17f35f93509350935093506143b6565b61426587878773c02aaa39b223fe8d0a0e5c4f27ead9083c756cc261481a565b8093508194508296505050505f73ffffffffffffffffffffffffffffffffffffffff168473ffffffffffffffffffffffffffffffffffffffff16146142af578386935093506143b6565b6142cf87878773a0b86991c6218b36c1d19d4a2e9eb0ce3606eb4861481a565b8093508194508296505050505f73ffffffffffffffffffffffffffffffffffffffff168473ffffffffffffffffffffffffffffffffffffffff1614614319578386935093506143b6565b61433987878773dac17f958d2ee523a2206206994597c13d831ec761481a565b8093508194508296505050505f73ffffffffffffffffffffffffffffffffffffffff168473ffffffffffffffffffffffffffffffffffffffff1614614383578386935093506143b6565b6143a3878787736b175474e89094c44da98b954eedeac495271d0f61481a565b8093508194508296505050508386935093505b93509350935093565b5f5f82036143d85768056bc75e2d631000009050614474565b600182036143f157680d8d726b7177a800009050614474565b6002820361440a57681b1ae4d6e2ef5000009050614474565b6003820361442357683635c9adc5dea000009050614474565b6004820361443c5768878678326eac9000009050614474565b600582036144565769010f0cf064dd592000009050614474565b600682036144705769021e19e0c9bab24000009050614474565b5f90505b919050565b5f614482615600565b5f84825f019073ffffffffffffffffffffffffffffffffffffffff16908173ffffffffffffffffffffffffffffffffffffffff168152505083826020019073ffffffffffffffffffffffffffffffffffffffff16908173ffffffffffffffffffffffffffffffffffffffff168152505085826040019073ffffffffffffffffffffffffffffffffffffffff16908173ffffffffffffffffffffffffffffffffffffffff1681525050868260a00181815250505f5f5f614557887399d8a9c45b2eca8864373a26d1459e3dff1e17f38b8d614949565b92509250925082158061456957505f82145b1561457f575f855f9550955095505050506146a0565b5f5f5f6145a28a8d7399d8a9c45b2eca8864373a26d1459e3dff1e17f388614949565b9250925092508215806145b557508c8211155b156145ce575f885f9850985098505050505050506146a0565b5f8d836145db91906160bd565b90505f6103e88f6145ec9190616a93565b905080821161460b575f8a5f9a509a509a5050505050505050506146a0565b858a6060019073ffffffffffffffffffffffffffffffffffffffff16908173ffffffffffffffffffffffffffffffffffffffff1681525050828a6080019073ffffffffffffffffffffffffffffffffffffffff16908173ffffffffffffffffffffffffffffffffffffffff1681525050838a60c0018181525050808261469191906160bd565b985060019a5050505050505050505b9450945094915050565b5f5f8390505f5f8273ffffffffffffffffffffffffffffffffffffffff16630902f1ac6040518163ffffffff1660e01b8152600401606060405180830381865afa1580156146fa573d5f5f3e3d5ffd5b505050506040513d601f19601f8201168201806040525081019061471e91906165c2565b509150915060035f9054906101000a900473ffffffffffffffffffffffffffffffffffffffff1673ffffffffffffffffffffffffffffffffffffffff168373ffffffffffffffffffffffffffffffffffffffff16630dfe16816040518163ffffffff1660e01b8152600401602060405180830381865afa1580156147a4573d5f5f3e3d5ffd5b505050506040513d601f19601f820116820180604052508101906147c8919061602a565b73ffffffffffffffffffffffffffffffffffffffff16146147fb5784816dffffffffffffffffffffffffffff161161480f565b84826dffffffffffffffffffffffffffff16115b935050505092915050565b5f5f5f8673ffffffffffffffffffffffffffffffffffffffff1663e6a4390560035f9054906101000a900473ffffffffffffffffffffffffffffffffffffffff16866040518363ffffffff1660e01b8152600401614879929190616c88565b602060405180830381865afa158015614894573d5f5f3e3d5ffd5b505050506040513d601f19601f820116820180604052508101906148b8919061602a565b92505f73ffffffffffffffffffffffffffffffffffffffff168373ffffffffffffffffffffffffffffffffffffffff1614806148fb57506148f983866146aa565b155b1561490e575f5f5f92509250925061493f565b5f5f61491a8887614bb9565b9150915081614933575f5f5f945094509450505061493f565b84868294509450945050505b9450945094915050565b5f5f5f8473ffffffffffffffffffffffffffffffffffffffff168673ffffffffffffffffffffffffffffffffffffffff16148061498557505f84145b15614998575f5f5f925092509250614baf565b6149a487878787614e24565b80935081945050505f90505f604051806080016040528073c02aaa39b223fe8d0a0e5c4f27ead9083c756cc273ffffffffffffffffffffffffffffffffffffffff1673ffffffffffffffffffffffffffffffffffffffff16815260200173a0b86991c6218b36c1d19d4a2e9eb0ce3606eb4873ffffffffffffffffffffffffffffffffffffffff1673ffffffffffffffffffffffffffffffffffffffff16815260200173dac17f958d2ee523a2206206994597c13d831ec773ffffffffffffffffffffffffffffffffffffffff1673ffffffffffffffffffffffffffffffffffffffff168152602001736b175474e89094c44da98b954eedeac495271d0f73ffffffffffffffffffffffffffffffffffffffff1673ffffffffffffffffffffffffffffffffffffffff1681525090505f5f90505b6004811015614bac575f828260048110614af557614af461611d565b5b602002015190508873ffffffffffffffffffffffffffffffffffffffff168173ffffffffffffffffffffffffffffffffffffffff161480614b6157508773ffffffffffffffffffffffffffffffffffffffff168173ffffffffffffffffffffffffffffffffffffffff16145b15614b6c5750614b9f565b5f5f614b7b8c8c858d8d614ffa565b91509150818015614b8b57508681115b15614b9b57600197508096508295505b5050505b8080600101915050614ad8565b50505b9450945094915050565b5f5f614bc58484615220565b15614bd65760015f91509150614e1d565b73c02aaa39b223fe8d0a0e5c4f27ead9083c756cc273ffffffffffffffffffffffffffffffffffffffff168373ffffffffffffffffffffffffffffffffffffffff1614158015614c415750614c408473c02aaa39b223fe8d0a0e5c4f27ead9083c756cc2856153db565b5b15614c6657600173c02aaa39b223fe8d0a0e5c4f27ead9083c756cc291509150614e1d565b73a0b86991c6218b36c1d19d4a2e9eb0ce3606eb4873ffffffffffffffffffffffffffffffffffffffff168373ffffffffffffffffffffffffffffffffffffffff1614158015614cd15750614cd08473a0b86991c6218b36c1d19d4a2e9eb0ce3606eb48856153db565b5b15614cf657600173a0b86991c6218b36c1d19d4a2e9eb0ce3606eb4891509150614e1d565b73dac17f958d2ee523a2206206994597c13d831ec773ffffffffffffffffffffffffffffffffffffffff168373ffffffffffffffffffffffffffffffffffffffff1614158015614d615750614d608473dac17f958d2ee523a2206206994597c13d831ec7856153db565b5b15614d8657600173dac17f958d2ee523a2206206994597c13d831ec791509150614e1d565b736b175474e89094c44da98b954eedeac495271d0f73ffffffffffffffffffffffffffffffffffffffff168373ffffffffffffffffffffffffffffffffffffffff1614158015614df15750614df084736b175474e89094c44da98b954eedeac495271d0f856153db565b5b15614e16576001736b175474e89094c44da98b954eedeac495271d0f91509150614e1d565b5f5f915091505b9250929050565b5f5f5f600267ffffffffffffffff811115614e4257614e416160f0565b5b604051908082528060200260200182016040528015614e705781602001602082028036833780820191505090505b50905085815f81518110614e8757614e8661611d565b5b602002602001019073ffffffffffffffffffffffffffffffffffffffff16908173ffffffffffffffffffffffffffffffffffffffff16815250508481600181518110614ed657614ed561611d565b5b602002602001019073ffffffffffffffffffffffffffffffffffffffff16908173ffffffffffffffffffffffffffffffffffffffff16815250508673ffffffffffffffffffffffffffffffffffffffff1663d06ca61f85836040518363ffffffff1660e01b8152600401614f4b929190616ce4565b5f60405180830381865afa925050508015614f8857506040513d5f823e3d601f19601f82011682018060405250810190614f859190616826565b60015b15614fe95760028151148015614fb957505f81600181518110614fae57614fad61611d565b5b602002602001015114155b15614fe757600181600181518110614fd457614fd361611d565b5b6020026020010151935093505050614ff1565b505b5f5f92509250505b94509492505050565b5f5f5f600367ffffffffffffffff811115615018576150176160f0565b5b6040519080825280602002602001820160405280156150465781602001602082028036833780820191505090505b50905086815f8151811061505d5761505c61611d565b5b602002602001019073ffffffffffffffffffffffffffffffffffffffff16908173ffffffffffffffffffffffffffffffffffffffff168152505085816001815181106150ac576150ab61611d565b5b602002602001019073ffffffffffffffffffffffffffffffffffffffff16908173ffffffffffffffffffffffffffffffffffffffff168152505084816002815181106150fb576150fa61611d565b5b602002602001019073ffffffffffffffffffffffffffffffffffffffff16908173ffffffffffffffffffffffffffffffffffffffff16815250508773ffffffffffffffffffffffffffffffffffffffff1663d06ca61f85836040518363ffffffff1660e01b8152600401615170929190616ce4565b5f60405180830381865afa9250505080156151ad57506040513d5f823e3d601f19601f820116820180604052508101906151aa9190616826565b60015b1561520e57600381511480156151de57505f816002815181106151d3576151d261611d565b5b602002602001015114155b1561520c576001816002815181106151f9576151f861611d565b5b6020026020010151935093505050615216565b505b5f5f92509250505b9550959350505050565b5f5f600267ffffffffffffffff81111561523d5761523c6160f0565b5b60405190808252806020026020018201604052801561526b5781602001602082028036833780820191505090505b5090507399d8a9c45b2eca8864373a26d1459e3dff1e17f3815f815181106152965761529561611d565b5b602002602001019073ffffffffffffffffffffffffffffffffffffffff16908173ffffffffffffffffffffffffffffffffffffffff168152505082816001815181106152e5576152e461611d565b5b602002602001019073ffffffffffffffffffffffffffffffffffffffff16908173ffffffffffffffffffffffffffffffffffffffff16815250508373ffffffffffffffffffffffffffffffffffffffff16631f00ca746001836040518363ffffffff1660e01b815260040161535b929190616d12565b5f60405180830381865afa92505050801561539857506040513d5f823e3d601f19601f820116820180604052508101906153959190616826565b60015b6153a5575f9150506153d5565b600281511480156153d057505f815f815181106153c5576153c461611d565b5b602002602001015114155b925050505b92915050565b5f5f600367ffffffffffffffff8111156153f8576153f76160f0565b5b6040519080825280602002602001820160405280156154265781602001602082028036833780820191505090505b5090507399d8a9c45b2eca8864373a26d1459e3dff1e17f3815f815181106154515761545061611d565b5b602002602001019073ffffffffffffffffffffffffffffffffffffffff16908173ffffffffffffffffffffffffffffffffffffffff168152505083816001815181106154a05761549f61611d565b5b602002602001019073ffffffffffffffffffffffffffffffffffffffff16908173ffffffffffffffffffffffffffffffffffffffff168152505082816002815181106154ef576154ee61611d565b5b602002602001019073ffffffffffffffffffffffffffffffffffffffff16908173ffffffffffffffffffffffffffffffffffffffff16815250508473ffffffffffffffffffffffffffffffffffffffff16631f00ca746001836040518363ffffffff1660e01b8152600401615565929190616d12565b5f60405180830381865afa9250505080156155a257506040513d5f823e3d601f19601f8201168201806040525081019061559f9190616826565b60015b6155af575f9150506155df565b600381511480156155da57505f815f815181106155cf576155ce61611d565b5b602002602001015114155b925050505b9392505050565b6101cc80616d4183390190565b61088d80616f0d83390190565b6040518060e001604052805f73ffffffffffffffffffffffffffffffffffffffff1681526020015f73ffffffffffffffffffffffffffffffffffffffff1681526020015f73ffffffffffffffffffffffffffffffffffffffff1681526020015f73ffffffffffffffffffffffffffffffffffffffff1681526020015f73ffffffffffffffffffffffffffffffffffffffff1681526020015f81526020015f81525090565b5f8115159050919050565b6156b8816156a4565b82525050565b5f6020820190506156d15f8301846156af565b92915050565b5f604051905090565b5f5ffd5b5f5ffd5b5f73ffffffffffffffffffffffffffffffffffffffff82169050919050565b5f615711826156e8565b9050919050565b61572181615707565b811461572b575f5ffd5b50565b5f8135905061573c81615718565b92915050565b5f819050919050565b61575481615742565b811461575e575f5ffd5b50565b5f8135905061576f8161574b565b92915050565b5f5ffd5b5f5ffd5b5f5ffd5b5f5f83601f84011261579657615795615775565b5b8235905067ffffffffffffffff8111156157b3576157b2615779565b5b6020830191508360018202830111156157cf576157ce61577d565b5b9250929050565b5f5f5f5f5f608086880312156157ef576157ee6156e0565b5b5f6157fc8882890161572e565b955050602061580d88828901615761565b945050604061581e88828901615761565b935050606086013567ffffffffffffffff81111561583f5761583e6156e4565b5b61584b88828901615781565b92509250509295509295909350565b5f819050919050565b61586c8161585a565b82525050565b5f6020820190506158855f830184615863565b92915050565b5f5f5f5f5f5f60a087890312156158a5576158a46156e0565b5b5f6158b289828a0161572e565b96505060206158c389828a0161572e565b95505060406158d489828a01615761565b94505060606158e589828a01615761565b935050608087013567ffffffffffffffff811115615906576159056156e4565b5b61591289828a01615781565b92509250509295509295509295565b61592a81615742565b82525050565b5f6020820190506159435f830184615921565b92915050565b61595281615707565b82525050565b5f60208201905061596b5f830184615949565b92915050565b5f82825260208201905092915050565b7f4f4e4c595f53454c4600000000000000000000000000000000000000000000005f82015250565b5f6159b5600983615971565b91506159c082615981565b602082019050919050565b5f6020820190508181035f8301526159e2816159a9565b9050919050565b7f4e4f5f554e4956325f43414c4c4241434b0000000000000000000000000000005f82015250565b5f615a1d601183615971565b9150615a28826159e9565b602082019050919050565b5f6020820190508181035f830152615a4a81615a11565b9050919050565b7f4241445f53454e444552000000000000000000000000000000000000000000005f82015250565b5f615a85600a83615971565b9150615a9082615a51565b602082019050919050565b5f6020820190508181035f830152615ab281615a79565b9050919050565b7f4241445f504149520000000000000000000000000000000000000000000000005f82015250565b5f615aed600883615971565b9150615af882615ab9565b602082019050919050565b5f6020820190508181035f830152615b1a81615ae1565b9050919050565b7f4e4f5f434f4c4c41544552414c000000000000000000000000000000000000005f82015250565b5f615b55600d83615971565b9150615b6082615b21565b602082019050919050565b5f6020820190508181035f830152615b8281615b49565b9050919050565b5f819050919050565b5f819050919050565b5f615bb5615bb0615bab84615b89565b615b92565b615742565b9050919050565b615bc581615b9b565b82525050565b5f60a082019050615bde5f830188615949565b615beb6020830187615949565b615bf86040830186615949565b615c056060830185615921565b615c126080830184615bbc565b9695505050505050565b5f81519050615c2a8161574b565b92915050565b5f5f60408385031215615c4657615c456156e0565b5b5f615c5385828601615c1c565b9250506020615c6485828601615c1c565b9150509250929050565b7f5a45524f5f5348415245000000000000000000000000000000000000000000005f82015250565b5f615ca2600a83615971565b9150615cad82615c6e565b602082019050919050565b5f6020820190508181035f830152615ccf81615c96565b9050919050565b5f606082019050615ce95f830186615949565b615cf660208301856156af565b615d036040830184615921565b949350505050565b5f604082019050615d1e5f830185615949565b615d2b6020830184615921565b9392505050565b5f60a082019050615d455f830188615949565b615d526020830187615949565b615d5f6040830186615949565b615d6c6060830185615bbc565b615d796080830184615921565b9695505050505050565b5f60208284031215615d9857615d976156e0565b5b5f615da584828501615c1c565b91505092915050565b7f4e4f5f42454e544f5f43414c4c4241434b0000000000000000000000000000005f82015250565b5f615de2601183615971565b9150615ded82615dae565b602082019050919050565b5f6020820190508181035f830152615e0f81615dd6565b9050919050565b7f4241445f464c4153484c454e44455200000000000000000000000000000000005f82015250565b5f615e4a600f83615971565b9150615e5582615e16565b602082019050919050565b5f6020820190508181035f830152615e7781615e3e565b9050919050565b7f4241445f464c4153485f53454e444552000000000000000000000000000000005f82015250565b5f615eb2601083615971565b9150615ebd82615e7e565b602082019050919050565b5f6020820190508181035f830152615edf81615ea6565b9050919050565b7f4241445f464c4153485f544f4b454e00000000000000000000000000000000005f82015250565b5f615f1a600f83615971565b9150615f2582615ee6565b602082019050919050565b5f6020820190508181035f830152615f4781615f0e565b9050919050565b7f4e487b71000000000000000000000000000000000000000000000000000000005f52601160045260245ffd5b5f615f8582615742565b9150615f9083615742565b9250828201905080821115615fa857615fa7615f4e565b5b92915050565b7f4152425f4e4f545f50524f46495441424c4500000000000000000000000000005f82015250565b5f615fe2601283615971565b9150615fed82615fae565b602082019050919050565b5f6020820190508181035f83015261600f81615fd6565b9050919050565b5f8151905061602481615718565b92915050565b5f6020828403121561603f5761603e6156e0565b5b5f61604c84828501616016565b91505092915050565b7f554e45585045435445445f4d494d0000000000000000000000000000000000005f82015250565b5f616089600e83615971565b915061609482616055565b602082019050919050565b5f6020820190508181035f8301526160b68161607d565b9050919050565b5f6160c782615742565b91506160d283615742565b92508282039050818111156160ea576160e9615f4e565b5b92915050565b7f4e487b71000000000000000000000000000000000000000000000000000000005f52604160045260245ffd5b7f4e487b71000000000000000000000000000000000000000000000000000000005f52603260045260245ffd5b5f81519050919050565b5f82825260208201905092915050565b5f819050602082019050919050565b61617c81615707565b82525050565b5f61618d8383616173565b60208301905092915050565b5f602082019050919050565b5f6161af8261614a565b6161b98185616154565b93506161c483616164565b805f5b838110156161f45781516161db8882616182565b97506161e683616199565b9250506001810190506161c7565b5085935050505092915050565b5f81519050919050565b5f82825260208201905092915050565b5f819050602082019050919050565b61623381615742565b82525050565b5f616244838361622a565b60208301905092915050565b5f602082019050919050565b5f61626682616201565b616270818561620b565b935061627b8361621b565b805f5b838110156162ab5781516162928882616239565b975061629d83616250565b92505060018101905061627e565b5085935050505092915050565b5f6162d26162cd6162c8846156e8565b615b92565b6156e8565b9050919050565b5f6162e3826162b8565b9050919050565b5f6162f4826162d9565b9050919050565b616304816162ea565b82525050565b5f82825260208201905092915050565b50565b5f6163285f8361630a565b91506163338261631a565b5f82019050919050565b5f60a0820190508181035f83015261635581876161a5565b90508181036020830152616369818661625c565b90506163786040830185615949565b61638560608301846162fb565b81810360808301526163968161631d565b905095945050505050565b6163aa816156a4565b81146163b4575f5ffd5b50565b5f815190506163c5816163a1565b92915050565b5f5f604083850312156163e1576163e06156e0565b5b5f6163ee858286016163b7565b92505060206163ff85828601615c1c565b9150509250929050565b7f01000000000000000000000000000000000000000000000000000000000000005f82015250565b5f61643d60018361630a565b915061644882616409565b602082019050919050565b5f6080820190506164665f830186615921565b6164736020830185615bbc565b6164806040830184615949565b818103606083015261649181616431565b9050949350505050565b5f6080820190506164ae5f830186615bbc565b6164bb6020830185615921565b6164c86040830184615949565b81810360608301526164d981616431565b9050949350505050565b5f60ff82169050919050565b5f6165096165046164ff84615b89565b615b92565b6164e3565b9050919050565b616519816164ef565b82525050565b5f6040820190506165325f830185615949565b61653f6020830184616510565b9392505050565b5f6dffffffffffffffffffffffffffff82169050919050565b61656881616546565b8114616572575f5ffd5b50565b5f815190506165838161655f565b92915050565b5f63ffffffff82169050919050565b6165a181616589565b81146165ab575f5ffd5b50565b5f815190506165bc81616598565b92915050565b5f5f5f606084860312156165d9576165d86156e0565b5b5f6165e686828701616575565b93505060206165f786828701616575565b9250506040616608868287016165ae565b9150509250925092565b7f4e4f5f4e45545f50524f464954000000000000000000000000000000000000005f82015250565b5f616646600d83615971565b915061665182616612565b602082019050919050565b5f6020820190508181035f8301526166738161663a565b9050919050565b5f819050919050565b5f61669d6166986166938461667a565b615b92565b615742565b9050919050565b6166ad81616683565b82525050565b5f60a0820190506166c65f830188615921565b6166d360208301876166a4565b81810360408301526166e581866161a5565b90506166f46060830185615949565b6167016080830184615921565b9695505050505050565b5f601f19601f8301169050919050565b6167248261670b565b810181811067ffffffffffffffff82111715616743576167426160f0565b5b80604052505050565b5f6167556156d7565b9050616761828261671b565b919050565b5f67ffffffffffffffff8211156167805761677f6160f0565b5b602082029050602081019050919050565b5f6167a361679e84616766565b61674c565b905080838252602082019050602084028301858111156167c6576167c561577d565b5b835b818110156167ef57806167db8882615c1c565b8452602084019350506020810190506167c8565b5050509392505050565b5f82601f83011261680d5761680c615775565b5b815161681d848260208601616791565b91505092915050565b5f6020828403121561683b5761683a6156e0565b5b5f82015167ffffffffffffffff811115616858576168576156e4565b5b616864848285016167f9565b91505092915050565b5f60a0820190506168805f830188615949565b61688d6020830187615949565b61689a6040830186615949565b6168a76060830185615921565b6168b46080830184615921565b9695505050505050565b5f602082840312156168d3576168d26156e0565b5b5f6168e0848285016163b7565b91505092915050565b5f6168f3826162d9565b9050919050565b616903816168e9565b82525050565b5f60a08201905061691c5f8301876168fa565b6169296020830186615949565b6169366040830185615949565b6169436060830184615921565b81810360808301526169548161631d565b905095945050505050565b5f6fffffffffffffffffffffffffffffffff82169050919050565b6169838161695f565b811461698d575f5ffd5b50565b5f8151905061699e8161697a565b92915050565b5f5f604083850312156169ba576169b96156e0565b5b5f6169c785828601616990565b92505060206169d885828601616990565b9150509250929050565b5f6169ec8261695f565b91506169f78361695f565b925082820390506fffffffffffffffffffffffffffffffff811115616a1f57616a1e615f4e565b5b92915050565b5f616a2f82615742565b9150616a3a83615742565b9250828202616a4881615742565b91508282048414831517616a5f57616a5e615f4e565b5b5092915050565b7f4e487b71000000000000000000000000000000000000000000000000000000005f52601260045260245ffd5b5f616a9d82615742565b9150616aa883615742565b925082616ab857616ab7616a66565b5b828204905092915050565b5f606082019050616ad65f830186615949565b616ae360208301856166a4565b616af060408301846156af565b949350505050565b5f81519050919050565b5f81905092915050565b8281835e5f83830152505050565b5f616b2482616af8565b616b2e8185616b02565b9350616b3e818560208601616b0c565b80840191505092915050565b5f616b558284616b1a565b915081905092915050565b7f544f4b454e5f43414c4c5f4641494c45440000000000000000000000000000005f82015250565b5f616b94601183615971565b9150616b9f82616b60565b602082019050919050565b5f6020820190508181035f830152616bc181616b88565b9050919050565b7f4241445f52455041595f51554f544500000000000000000000000000000000005f82015250565b5f616bfc600f83615971565b9150616c0782616bc8565b602082019050919050565b5f6020820190508181035f830152616c2981616bf0565b9050919050565b5f60a082019050616c435f830188615921565b616c506020830187615921565b8181036040830152616c6281866161a5565b9050616c716060830185615949565b616c7e6080830184615921565b9695505050505050565b5f604082019050616c9b5f830185615949565b616ca86020830184615949565b9392505050565b5f606082019050616cc25f830186615949565b616ccf6020830185615921565b616cdc60408301846156af565b949350505050565b5f604082019050616cf75f830185615921565b8181036020830152616d0981846161a5565b90509392505050565b5f604082019050616d255f8301856166a4565b8181036020830152616d3781846161a5565b9050939250505056fe6080604052348015600e575f5ffd5b506101b08061001c5f395ff3fe608060405234801561000f575f5ffd5b5060043610610029575f3560e01c8063d6d7d5251461002d575b5f5ffd5b610047600480360381019061004291906100d6565b61005e565b604051610055929190610153565b60405180910390f35b5f5f5f5f915091509250929050565b5f5ffd5b5f5ffd5b5f5ffd5b5f5ffd5b5f5ffd5b5f5f83601f84011261009657610095610075565b5b8235905067ffffffffffffffff8111156100b3576100b2610079565b5b6020830191508360018202830111156100cf576100ce61007d565b5b9250929050565b5f5f602083850312156100ec576100eb61006d565b5b5f83013567ffffffffffffffff81111561010957610108610071565b5b61011585828601610081565b92509250509250929050565b5f8115159050919050565b61013581610121565b82525050565b5f819050919050565b61014d8161013b565b82525050565b5f6040820190506101665f83018561012c565b6101736020830184610144565b939250505056fea264697066735822122075b705ea96f542587bf4f7fbb42a3cab6524ba5f8d7100cc02219a92b975400f64736f6c634300081e0033610120604052348015610010575f5ffd5b5060405161088d38038061088d8339818101604052810190610032919061017a565b8473ffffffffffffffffffffffffffffffffffffffff1660808173ffffffffffffffffffffffffffffffffffffffff16815250508373ffffffffffffffffffffffffffffffffffffffff1660a08173ffffffffffffffffffffffffffffffffffffffff16815250508273ffffffffffffffffffffffffffffffffffffffff1660c08173ffffffffffffffffffffffffffffffffffffffff16815250508160e0818152505080610100818152505050505050506101f1565b5f5ffd5b5f73ffffffffffffffffffffffffffffffffffffffff82169050919050565b5f610116826100ed565b9050919050565b6101268161010c565b8114610130575f5ffd5b50565b5f815190506101418161011d565b92915050565b5f819050919050565b61015981610147565b8114610163575f5ffd5b50565b5f8151905061017481610150565b92915050565b5f5f5f5f5f60a08688031215610193576101926100e9565b5b5f6101a088828901610133565b95505060206101b188828901610133565b94505060406101c288828901610133565b93505060606101d388828901610166565b92505060806101e488828901610166565b9150509295509295909350565b60805160a05160c05160e051610100516106586102355f395f61020201525f61022601525f81816101ba01526102d701525f6101de01525f61024a01526106585ff3fe608060405234801561000f575f5ffd5b5060043610610091575f3560e01c80639b352ae1116100645780639b352ae11461010d578063aba024f41461012b578063c7ee2a7b14610149578063d8dfeb4514610167578063e1c7392a1461018557610091565b8063158ef93e146100955780633ba0b9a9146100b357806375587d3c146100d15780637dc0d1d0146100ef575b5f5ffd5b61009d61018f565b6040516100aa91906103ad565b60405180910390f35b6100bb6101a0565b6040516100c891906103de565b60405180910390f35b6100d96101a6565b6040516100e691906103ad565b60405180910390f35b6100f76101b8565b6040516101049190610471565b60405180910390f35b6101156101dc565b60405161012291906104aa565b60405180910390f35b610133610200565b60405161014091906103de565b60405180910390f35b610151610224565b60405161015e91906103de565b60405180910390f35b61016f610248565b60405161017c91906104aa565b60405180910390f35b61018d61026c565b005b5f5f9054906101000a900460ff1681565b60015481565b5f60019054906101000a900460ff1681565b7f000000000000000000000000000000000000000000000000000000000000000081565b7f000000000000000000000000000000000000000000000000000000000000000081565b7f000000000000000000000000000000000000000000000000000000000000000081565b7f000000000000000000000000000000000000000000000000000000000000000081565b7f000000000000000000000000000000000000000000000000000000000000000081565b5f5f9054906101000a900460ff16156102ba576040517f08c379a00000000000000000000000000000000000000000000000000000000081526004016102b19061051d565b60405180910390fd5b60015f5f6101000a81548160ff0219169083151502179055505f5f7f000000000000000000000000000000000000000000000000000000000000000073ffffffffffffffffffffffffffffffffffffffff1663d6d7d5256040518163ffffffff1660e01b815260040161032c9061056e565b60408051808303815f875af1158015610347573d5f5f3e3d5ffd5b505050506040513d601f19601f8201168201806040525081019061036b91906105e4565b91509150815f60016101000a81548160ff021916908315150217905550806001819055505050565b5f8115159050919050565b6103a781610393565b82525050565b5f6020820190506103c05f83018461039e565b92915050565b5f819050919050565b6103d8816103c6565b82525050565b5f6020820190506103f15f8301846103cf565b92915050565b5f73ffffffffffffffffffffffffffffffffffffffff82169050919050565b5f819050919050565b5f61043961043461042f846103f7565b610416565b6103f7565b9050919050565b5f61044a8261041f565b9050919050565b5f61045b82610440565b9050919050565b61046b81610451565b82525050565b5f6020820190506104845f830184610462565b92915050565b5f610494826103f7565b9050919050565b6104a48161048a565b82525050565b5f6020820190506104bd5f83018461049b565b92915050565b5f82825260208201905092915050565b7f414c52454144595f494e495449414c495a4544000000000000000000000000005f82015250565b5f6105076013836104c3565b9150610512826104d3565b602082019050919050565b5f6020820190508181035f830152610534816104fb565b9050919050565b5f82825260208201905092915050565b50565b5f6105595f8361053b565b91506105648261054b565b5f82019050919050565b5f6020820190508181035f8301526105858161054e565b9050919050565b5f5ffd5b61059981610393565b81146105a3575f5ffd5b50565b5f815190506105b481610590565b92915050565b6105c3816103c6565b81146105cd575f5ffd5b50565b5f815190506105de816105ba565b92915050565b5f5f604083850312156105fa576105f961058c565b5b5f610607858286016105a6565b9250506020610618858286016105d0565b915050925092905056fea2646970667358221220ff2ee6ec6f5be72f6c70dbc933bec29744b5bddef4d6d65eff3c79394cbf1a4e64736f6c634300081e0033a2646970667358221220870ba40dd21b6f59d6965aeae04be232a604116eb99ccef885998d38aae6681464736f6c634300081e0033","linkReferences":{}},"methodIdentifiers":{"MIM()":"daec383d","TARGET_CAULDRON()":"bd7a598c","attemptLiveTarget()":"072d5e47","attemptPublicArbitrage()":"a963f276","attemptValidationPath()":"3a634811","bentoBox()":"6b2ace87","borrowSucceeded()":"c5d948e7","collateralToken()":"b2016bd4","executeOnOpportunity()":"3c2448ed","initAcceptedFailedOracleRead()":"c5bd196f","liquidationBlocked()":"b7021f77","liveTargetAttempted()":"00a4c064","liveTargetCachedZeroObserved()":"4f8d51ce","liveTargetInitializationStageInfeasible()":"4686aeb0","liveTargetProfitable()":"86e8a1a2","onFlashLoan(address,address,uint256,uint256,bytes)":"23e30c8b","probeLiveLiquidation()":"f10a3d81","profitAmount()":"5ff972cc","profitToken()":"49343624","publicArbitrageSucceeded()":"855a2fc0","status()":"200d2ed2","uniswapV2Call(address,uint256,uint256,bytes)":"10d1e85c","validationCauldron()":"86316ffb","validationOracle()":"983dae11"},"id":0}