{"abi":[{"type":"constructor","inputs":[{"name":"collateral_","type":"address","internalType":"address"},{"name":"mim_","type":"address","internalType":"address"},{"name":"oracle_","type":"address","internalType":"address"},{"name":"collaterizationRate_","type":"uint256","internalType":"uint256"},{"name":"borrowOpeningFee_","type":"uint256","internalType":"uint256"}],"stateMutability":"nonpayable"},{"type":"function","name":"BORROW_OPENING_FEE","inputs":[],"outputs":[{"name":"","type":"uint256","internalType":"uint256"}],"stateMutability":"view"},{"type":"function","name":"COLLATERIZATION_RATE","inputs":[],"outputs":[{"name":"","type":"uint256","internalType":"uint256"}],"stateMutability":"view"},{"type":"function","name":"collateral","inputs":[],"outputs":[{"name":"","type":"address","internalType":"address"}],"stateMutability":"view"},{"type":"function","name":"exchangeRate","inputs":[],"outputs":[{"name":"","type":"uint256","internalType":"uint256"}],"stateMutability":"view"},{"type":"function","name":"init","inputs":[],"outputs":[],"stateMutability":"nonpayable"},{"type":"function","name":"initOracleSuccess","inputs":[],"outputs":[{"name":"","type":"bool","internalType":"bool"}],"stateMutability":"view"},{"type":"function","name":"initialized","inputs":[],"outputs":[{"name":"","type":"bool","internalType":"bool"}],"stateMutability":"view"},{"type":"function","name":"magicInternetMoney","inputs":[],"outputs":[{"name":"","type":"address","internalType":"address"}],"stateMutability":"view"},{"type":"function","name":"oracle","inputs":[],"outputs":[{"name":"","type":"address","internalType":"contract IOracleLike"}],"stateMutability":"view"}],"bytecode":{"object":"0x610120604052348015610010575f5ffd5b5060405161088d38038061088d8339818101604052810190610032919061017a565b8473ffffffffffffffffffffffffffffffffffffffff1660808173ffffffffffffffffffffffffffffffffffffffff16815250508373ffffffffffffffffffffffffffffffffffffffff1660a08173ffffffffffffffffffffffffffffffffffffffff16815250508273ffffffffffffffffffffffffffffffffffffffff1660c08173ffffffffffffffffffffffffffffffffffffffff16815250508160e0818152505080610100818152505050505050506101f1565b5f5ffd5b5f73ffffffffffffffffffffffffffffffffffffffff82169050919050565b5f610116826100ed565b9050919050565b6101268161010c565b8114610130575f5ffd5b50565b5f815190506101418161011d565b92915050565b5f819050919050565b61015981610147565b8114610163575f5ffd5b50565b5f8151905061017481610150565b92915050565b5f5f5f5f5f60a08688031215610193576101926100e9565b5b5f6101a088828901610133565b95505060206101b188828901610133565b94505060406101c288828901610133565b93505060606101d388828901610166565b92505060806101e488828901610166565b9150509295509295909350565b60805160a05160c05160e051610100516106586102355f395f61020201525f61022601525f81816101ba01526102d701525f6101de01525f61024a01526106585ff3fe608060405234801561000f575f5ffd5b5060043610610091575f3560e01c80639b352ae1116100645780639b352ae11461010d578063aba024f41461012b578063c7ee2a7b14610149578063d8dfeb4514610167578063e1c7392a1461018557610091565b8063158ef93e146100955780633ba0b9a9146100b357806375587d3c146100d15780637dc0d1d0146100ef575b5f5ffd5b61009d61018f565b6040516100aa91906103ad565b60405180910390f35b6100bb6101a0565b6040516100c891906103de565b60405180910390f35b6100d96101a6565b6040516100e691906103ad565b60405180910390f35b6100f76101b8565b6040516101049190610471565b60405180910390f35b6101156101dc565b60405161012291906104aa565b60405180910390f35b610133610200565b60405161014091906103de565b60405180910390f35b610151610224565b60405161015e91906103de565b60405180910390f35b61016f610248565b60405161017c91906104aa565b60405180910390f35b61018d61026c565b005b5f5f9054906101000a900460ff1681565b60015481565b5f60019054906101000a900460ff1681565b7f000000000000000000000000000000000000000000000000000000000000000081565b7f000000000000000000000000000000000000000000000000000000000000000081565b7f000000000000000000000000000000000000000000000000000000000000000081565b7f000000000000000000000000000000000000000000000000000000000000000081565b7f000000000000000000000000000000000000000000000000000000000000000081565b5f5f9054906101000a900460ff16156102ba576040517f08c379a00000000000000000000000000000000000000000000000000000000081526004016102b19061051d565b60405180910390fd5b60015f5f6101000a81548160ff0219169083151502179055505f5f7f000000000000000000000000000000000000000000000000000000000000000073ffffffffffffffffffffffffffffffffffffffff1663d6d7d5256040518163ffffffff1660e01b815260040161032c9061056e565b60408051808303815f875af1158015610347573d5f5f3e3d5ffd5b505050506040513d601f19601f8201168201806040525081019061036b91906105e4565b91509150815f60016101000a81548160ff021916908315150217905550806001819055505050565b5f8115159050919050565b6103a781610393565b82525050565b5f6020820190506103c05f83018461039e565b92915050565b5f819050919050565b6103d8816103c6565b82525050565b5f6020820190506103f15f8301846103cf565b92915050565b5f73ffffffffffffffffffffffffffffffffffffffff82169050919050565b5f819050919050565b5f61043961043461042f846103f7565b610416565b6103f7565b9050919050565b5f61044a8261041f565b9050919050565b5f61045b82610440565b9050919050565b61046b81610451565b82525050565b5f6020820190506104845f830184610462565b92915050565b5f610494826103f7565b9050919050565b6104a48161048a565b82525050565b5f6020820190506104bd5f83018461049b565b92915050565b5f82825260208201905092915050565b7f414c52454144595f494e495449414c495a4544000000000000000000000000005f82015250565b5f6105076013836104c3565b9150610512826104d3565b602082019050919050565b5f6020820190508181035f830152610534816104fb565b9050919050565b5f82825260208201905092915050565b50565b5f6105595f8361053b565b91506105648261054b565b5f82019050919050565b5f6020820190508181035f8301526105858161054e565b9050919050565b5f5ffd5b61059981610393565b81146105a3575f5ffd5b50565b5f815190506105b481610590565b92915050565b6105c3816103c6565b81146105cd575f5ffd5b50565b5f815190506105de816105ba565b92915050565b5f5f604083850312156105fa576105f961058c565b5b5f610607858286016105a6565b9250506020610618858286016105d0565b915050925092905056fea2646970667358221220ff2ee6ec6f5be72f6c70dbc933bec29744b5bddef4d6d65eff3c79394cbf1a4e64736f6c634300081e0033","linkReferences":{}},"methodIdentifiers":{"BORROW_OPENING_FEE()":"aba024f4","COLLATERIZATION_RATE()":"c7ee2a7b","collateral()":"d8dfeb45","exchangeRate()":"3ba0b9a9","init()":"e1c7392a","initOracleSuccess()":"75587d3c","initialized()":"158ef93e","magicInternetMoney()":"9b352ae1","oracle()":"7dc0d1d0"},"id":0}