{"abi":[{"type":"constructor","inputs":[],"stateMutability":"nonpayable"},{"type":"function","name":"executeOnOpportunity","inputs":[],"outputs":[],"stateMutability":"nonpayable"},{"type":"function","name":"exploitPathUsed","inputs":[],"outputs":[{"name":"","type":"string","internalType":"string"}],"stateMutability":"view"},{"type":"function","name":"hypothesisValidated","inputs":[],"outputs":[{"name":"","type":"bool","internalType":"bool"}],"stateMutability":"view"},{"type":"function","name":"outcomeNotes","inputs":[],"outputs":[{"name":"","type":"string","internalType":"string"}],"stateMutability":"view"},{"type":"function","name":"profitAmount","inputs":[],"outputs":[{"name":"","type":"uint256","internalType":"uint256"}],"stateMutability":"view"},{"type":"function","name":"profitToken","inputs":[],"outputs":[{"name":"","type":"address","internalType":"address"}],"stateMutability":"view"},{"type":"function","name":"runFlashVaultEarnAttempt","inputs":[{"name":"vault","type":"address","internalType":"address"},{"name":"pair","type":"address","internalType":"address"},{"name":"borrowDai","type":"uint256","internalType":"uint256"},{"name":"withdrawalBps","type":"uint256","internalType":"uint256"}],"outputs":[{"name":"profit","type":"uint256","internalType":"uint256"}],"stateMutability":"nonpayable"},{"type":"function","name":"uniswapV2Call","inputs":[{"name":"sender","type":"address","internalType":"address"},{"name":"amount0","type":"uint256","internalType":"uint256"},{"name":"amount1","type":"uint256","internalType":"uint256"},{"name":"data","type":"bytes","internalType":"bytes"}],"outputs":[],"stateMutability":"nonpayable"}],"bytecode":{"object":"0x6080604052348015600e575f5ffd5b50613fb98061001c5f395ff3fe608060405234801561000f575f5ffd5b5060043610610086575f3560e01c80635ff972cc116100595780635ff972cc146100ec57806379db32f31461010a578063d78c428114610128578063e1f031701461014657610086565b806310d1e85c1461008a5780633c2448ed146100a6578063463defd1146100b057806349343624146100ce575b5f5ffd5b6100a4600480360381019061009f919061274d565b610176565b005b6100ae610867565b005b6100b8610ca9565b6040516100c591906127eb565b60405180910390f35b6100d6610cbe565b6040516100e39190612813565b60405180910390f35b6100f4610ce5565b604051610101919061283b565b60405180910390f35b610112610cee565b60405161011f91906128c4565b60405180910390f35b610130610d7e565b60405161013d91906128c4565b60405180910390f35b610160600480360381019061015b91906128e4565b610e0e565b60405161016d919061283b565b60405180910390f35b60055f9054906101000a900473ffffffffffffffffffffffffffffffffffffffff1673ffffffffffffffffffffffffffffffffffffffff163373ffffffffffffffffffffffffffffffffffffffff1614610205576040517f08c379a00000000000000000000000000000000000000000000000000000000081526004016101fc90612992565b60405180910390fd5b3073ffffffffffffffffffffffffffffffffffffffff168573ffffffffffffffffffffffffffffffffffffffff1614610273576040517f08c379a000000000000000000000000000000000000000000000000000000000815260040161026a906129fa565b60405180910390fd5b5f82829050036102b8576040517f08c379a00000000000000000000000000000000000000000000000000000000081526004016102af90612a62565b60405180910390fd5b5f5f85116102c657836102c8565b845b9050600754811461030e576040517f08c379a000000000000000000000000000000000000000000000000000000000815260040161030590612aca565b60405180910390fd5b5f610318826115d3565b90505f811161035c576040517f08c379a000000000000000000000000000000000000000000000000000000000815260040161035390612b32565b60405180910390fd5b61038f7316de59092dae5ccf4a1e6439d611fd0653f0bd017345f783cce6b7ff23b2ab2d70e416cdb7d6055f51836117af565b610397612607565b81815f600481106103ab576103aa612b50565b5b6020020181815250507345f783cce6b7ff23b2ab2d70e416cdb7d6055f5173ffffffffffffffffffffffffffffffffffffffff1663029b2f34825f6040518363ffffffff1660e01b8152600401610403929190612c64565b5f604051808303815f87803b15801561041a575f5ffd5b505af115801561042c573d5f5f3e3d5ffd5b505050505f73df5e0e81dff6faf3a7e52ba697820c5e32d806a873ffffffffffffffffffffffffffffffffffffffff166370a08231306040518263ffffffff1660e01b815260040161047e9190612813565b602060405180830381865afa158015610499573d5f5f3e3d5ffd5b505050506040513d601f19601f820116820180604052508101906104bd9190612c9f565b90505f8111610501576040517f08c379a00000000000000000000000000000000000000000000000000000000081526004016104f890612d14565b60405180910390fd5b60065f9054906101000a900473ffffffffffffffffffffffffffffffffffffffff1673ffffffffffffffffffffffffffffffffffffffff1663d389800f6040518163ffffffff1660e01b81526004015f604051808303815f87803b158015610567575f5ffd5b505af1158015610579573d5f5f3e3d5ffd5b505050505f6127106008548561058f9190612d5f565b6105999190612dcd565b90505f811115610679576105d673df5e0e81dff6faf3a7e52ba697820c5e32d806a87345f783cce6b7ff23b2ab2d70e416cdb7d6055f51846117af565b6105de612607565b81815f600481106105f2576105f1612b50565b5b6020020181815250507345f783cce6b7ff23b2ab2d70e416cdb7d6055f5173ffffffffffffffffffffffffffffffffffffffff166318a7bd7682856040518363ffffffff1660e01b815260040161064a929190612dfd565b5f604051808303815f87803b158015610661575f5ffd5b505af1158015610673573d5f5f3e3d5ffd5b50505050505b5f73df5e0e81dff6faf3a7e52ba697820c5e32d806a873ffffffffffffffffffffffffffffffffffffffff166370a08231306040518263ffffffff1660e01b81526004016106c79190612813565b602060405180830381865afa1580156106e2573d5f5f3e3d5ffd5b505050506040513d601f19601f820116820180604052508101906107069190612c9f565b90505f8111156107c95761074373df5e0e81dff6faf3a7e52ba697820c5e32d806a87345f783cce6b7ff23b2ab2d70e416cdb7d6055f51836117af565b61074b612607565b7345f783cce6b7ff23b2ab2d70e416cdb7d6055f5173ffffffffffffffffffffffffffffffffffffffff16637d49d87583836040518363ffffffff1660e01b815260040161079a929190612e24565b5f604051808303815f87803b1580156107b1575f5ffd5b505af11580156107c3573d5f5f3e3d5ffd5b50505050505b6107e873d6ad7a6750a7593e092a9b218d66c0a814a3436e60016118b6565b6108077383f798e925bcd4017eb265844fddabb448f1707d60026118b6565b6108267373a052500105205d34daf004eab301916da8190f60036118b6565b61082e6119e3565b5f61083887611af8565b9050610859736b175474e89094c44da98b954eedeac495271d0f3383611b27565b505050505050505050505050565b61086f611bad565b5f73af274e912243b19b882f02d731dacd7cd13072d073ffffffffffffffffffffffffffffffffffffffff1663f77c47916040518163ffffffff1660e01b8152600401602060405180830381865afa1580156108cd573d5f5f3e3d5ffd5b505050506040513d601f19601f820116820180604052508101906108f19190612e5f565b90505f5f73ffffffffffffffffffffffffffffffffffffffff168273ffffffffffffffffffffffffffffffffffffffff16146109b8578173ffffffffffffffffffffffffffffffffffffffff1663a622ee7c736b175474e89094c44da98b954eedeac495271d0f6040518263ffffffff1660e01b81526004016109749190612813565b602060405180830381865afa15801561098f573d5f5f3e3d5ffd5b505050506040513d601f19601f820116820180604052508101906109b39190612e5f565b6109ba565b5f5b90505f5f73ffffffffffffffffffffffffffffffffffffffff168273ffffffffffffffffffffffffffffffffffffffff1614610a8157736b175474e89094c44da98b954eedeac495271d0f73ffffffffffffffffffffffffffffffffffffffff166370a08231836040518263ffffffff1660e01b8152600401610a3d9190612813565b602060405180830381865afa158015610a58573d5f5f3e3d5ffd5b505050506040513d601f19601f82011682018060405250810190610a7c9190612c9f565b610a83565b5f5b90505f73af274e912243b19b882f02d731dacd7cd13072d073ffffffffffffffffffffffffffffffffffffffff1663722713f76040518163ffffffff1660e01b8152600401602060405180830381865afa158015610ae3573d5f5f3e3d5ffd5b505050506040513d601f19601f82011682018060405250810190610b079190612c9f565b90505f73ffffffffffffffffffffffffffffffffffffffff168373ffffffffffffffffffffffffffffffffffffffff1603610b6d576040518060c00160405280609c81526020016139ca609c913960049081610b6391906130ab565b5050505050610ca7565b5f8203610ba5576040518060c0016040528060928152602001613e346092913960049081610b9b91906130ab565b5050505050610ca7565b5f610bae611c4a565b90505f73ffffffffffffffffffffffffffffffffffffffff16815f015173ffffffffffffffffffffffffffffffffffffffff161480610bf057505f8160200151145b15610c27576040518060e0016040528060aa8152602001613ba460aa913960049081610c1c91906130ab565b505050505050610ca7565b610c32848483611dc3565b15610c41575050505050610ca7565b5f8203610c785760405180610160016040528061013e8152602001613a6661013e913960049081610c7291906130ab565b50610ca1565b6040518060e0016040528060be8152602001613ec660be913960049081610c9f91906130ab565b505b50505050505b565b5f60025f9054906101000a900460ff16905090565b5f5f5f9054906101000a900473ffffffffffffffffffffffffffffffffffffffff16905090565b5f600154905090565b606060048054610cfd90612ee4565b80601f0160208091040260200160405190810160405280929190818152602001828054610d2990612ee4565b8015610d745780601f10610d4b57610100808354040283529160200191610d74565b820191905f5260205f20905b815481529060010190602001808311610d5757829003601f168201915b5050505050905090565b606060038054610d8d90612ee4565b80601f0160208091040260200160405190810160405280929190818152602001828054610db990612ee4565b8015610e045780601f10610ddb57610100808354040283529160200191610e04565b820191905f5260205f20905b815481529060010190602001808311610de757829003601f168201915b5050505050905090565b5f3073ffffffffffffffffffffffffffffffffffffffff163373ffffffffffffffffffffffffffffffffffffffff1614610e7d576040517f08c379a0000000000000000000000000000000000000000000000000000000008152600401610e74906131c4565b60405180910390fd5b5f73ffffffffffffffffffffffffffffffffffffffff168573ffffffffffffffffffffffffffffffffffffffff1603610eeb576040517f08c379a0000000000000000000000000000000000000000000000000000000008152600401610ee29061322c565b60405180910390fd5b5f73ffffffffffffffffffffffffffffffffffffffff168473ffffffffffffffffffffffffffffffffffffffff1603610f59576040517f08c379a0000000000000000000000000000000000000000000000000000000008152600401610f5090613294565b60405180910390fd5b5f8311610f9b576040517f08c379a0000000000000000000000000000000000000000000000000000000008152600401610f92906132fc565b60405180910390fd5b5f8211610fdd576040517f08c379a0000000000000000000000000000000000000000000000000000000008152600401610fd490613364565b60405180910390fd5b5f736b175474e89094c44da98b954eedeac495271d0f73ffffffffffffffffffffffffffffffffffffffff166370a08231306040518263ffffffff1660e01b815260040161102b9190612813565b602060405180830381865afa158015611046573d5f5f3e3d5ffd5b505050506040513d601f19601f8201168201806040525081019061106a9190612c9f565b90508460055f6101000a81548173ffffffffffffffffffffffffffffffffffffffff021916908373ffffffffffffffffffffffffffffffffffffffff1602179055508560065f6101000a81548173ffffffffffffffffffffffffffffffffffffffff021916908373ffffffffffffffffffffffffffffffffffffffff16021790555083600781905550826008819055505f8590505f8173ffffffffffffffffffffffffffffffffffffffff16630dfe16816040518163ffffffff1660e01b8152600401602060405180830381865afa158015611148573d5f5f3e3d5ffd5b505050506040513d601f19601f8201168201806040525081019061116c9190612e5f565b90505f8273ffffffffffffffffffffffffffffffffffffffff1663d21220a76040518163ffffffff1660e01b8152600401602060405180830381865afa1580156111b8573d5f5f3e3d5ffd5b505050506040513d601f19601f820116820180604052508101906111dc9190612e5f565b9050736b175474e89094c44da98b954eedeac495271d0f73ffffffffffffffffffffffffffffffffffffffff168273ffffffffffffffffffffffffffffffffffffffff16148061126b5750736b175474e89094c44da98b954eedeac495271d0f73ffffffffffffffffffffffffffffffffffffffff168173ffffffffffffffffffffffffffffffffffffffff16145b6112aa576040517f08c379a00000000000000000000000000000000000000000000000000000000081526004016112a1906133cc565b60405180910390fd5b736b175474e89094c44da98b954eedeac495271d0f73ffffffffffffffffffffffffffffffffffffffff168273ffffffffffffffffffffffffffffffffffffffff1603611382578273ffffffffffffffffffffffffffffffffffffffff1663022c0d9f885f306001604051602001611322919061283b565b6040516020818303038152906040526040518563ffffffff1660e01b8152600401611350949392919061343c565b5f604051808303815f87803b158015611367575f5ffd5b505af1158015611379573d5f5f3e3d5ffd5b5050505061140f565b8273ffffffffffffffffffffffffffffffffffffffff1663022c0d9f5f893060016040516020016113b3919061283b565b6040516020818303038152906040526040518563ffffffff1660e01b81526004016113e19493929190613486565b5f604051808303815f87803b1580156113f8575f5ffd5b505af115801561140a573d5f5f3e3d5ffd5b505050505b5f60055f6101000a81548173ffffffffffffffffffffffffffffffffffffffff021916908373ffffffffffffffffffffffffffffffffffffffff1602179055505f60065f6101000a81548173ffffffffffffffffffffffffffffffffffffffff021916908373ffffffffffffffffffffffffffffffffffffffff1602179055505f6007819055505f6008819055505f736b175474e89094c44da98b954eedeac495271d0f73ffffffffffffffffffffffffffffffffffffffff166370a08231306040518263ffffffff1660e01b81526004016114eb9190612813565b602060405180830381865afa158015611506573d5f5f3e3d5ffd5b505050506040513d601f19601f8201168201806040525081019061152a9190612c9f565b905084811161156e576040517f08c379a00000000000000000000000000000000000000000000000000000000081526004016115659061351a565b60405180910390fd5b848161157a9190613538565b955066038d7ea4c680008610156115c6576040517f08c379a00000000000000000000000000000000000000000000000000000000081526004016115bd906135b5565b60405180910390fd5b5050505050949350505050565b5f5f7316de59092dae5ccf4a1e6439d611fd0653f0bd0173ffffffffffffffffffffffffffffffffffffffff166370a08231306040518263ffffffff1660e01b81526004016116229190612813565b602060405180830381865afa15801561163d573d5f5f3e3d5ffd5b505050506040513d601f19601f820116820180604052508101906116619190612c9f565b9050611696736b175474e89094c44da98b954eedeac495271d0f7316de59092dae5ccf4a1e6439d611fd0653f0bd01856117af565b7316de59092dae5ccf4a1e6439d611fd0653f0bd0173ffffffffffffffffffffffffffffffffffffffff1663b6b55f25846040518263ffffffff1660e01b81526004016116e3919061283b565b5f604051808303815f87803b1580156116fa575f5ffd5b505af115801561170c573d5f5f3e3d5ffd5b50505050807316de59092dae5ccf4a1e6439d611fd0653f0bd0173ffffffffffffffffffffffffffffffffffffffff166370a08231306040518263ffffffff1660e01b815260040161175e9190612813565b602060405180830381865afa158015611779573d5f5f3e3d5ffd5b505050506040513d601f19601f8201168201806040525081019061179d9190612c9f565b6117a79190613538565b915050919050565b6118308363095ea7b360e01b845f6040516024016117ce92919061360f565b604051602081830303815290604052907bffffffffffffffffffffffffffffffffffffffffffffffffffffffff19166020820180517bffffffffffffffffffffffffffffffffffffffffffffffffffffffff83818316178352505050506120df565b6118b18363095ea7b360e01b848460405160240161184f929190613636565b604051602081830303815290604052907bffffffffffffffffffffffffffffffffffffffffffffffffffffffff19166020820180517bffffffffffffffffffffffffffffffffffffffffffffffffffffffff83818316178352505050506120df565b505050565b5f8273ffffffffffffffffffffffffffffffffffffffff166370a08231306040518263ffffffff1660e01b81526004016118f09190612813565b602060405180830381865afa15801561190b573d5f5f3e3d5ffd5b505050506040513d601f19601f8201168201806040525081019061192f9190612c9f565b90505f810361193e57506119df565b61195d837345f783cce6b7ff23b2ab2d70e416cdb7d6055f51836117af565b7345f783cce6b7ff23b2ab2d70e416cdb7d6055f5173ffffffffffffffffffffffffffffffffffffffff16633df02124835f845f6040518563ffffffff1660e01b81526004016119b094939291906136a8565b5f604051808303815f87803b1580156119c7575f5ffd5b505af11580156119d9573d5f5f3e3d5ffd5b50505050505b5050565b5f7316de59092dae5ccf4a1e6439d611fd0653f0bd0173ffffffffffffffffffffffffffffffffffffffff166370a08231306040518263ffffffff1660e01b8152600401611a319190612813565b602060405180830381865afa158015611a4c573d5f5f3e3d5ffd5b505050506040513d601f19601f82011682018060405250810190611a709190612c9f565b90505f811115611af5577316de59092dae5ccf4a1e6439d611fd0653f0bd0173ffffffffffffffffffffffffffffffffffffffff16632e1a7d4d826040518263ffffffff1660e01b8152600401611ac7919061283b565b5f604051808303815f87803b158015611ade575f5ffd5b505af1158015611af0573d5f5f3e3d5ffd5b505050505b50565b5f60016103e56103e884611b0c9190612d5f565b611b169190612dcd565b611b2091906136eb565b9050919050565b611ba88363a9059cbb60e01b8484604051602401611b46929190613636565b604051602081830303815290604052907bffffffffffffffffffffffffffffffffffffffffffffffffffffffff19166020820180517bffffffffffffffffffffffffffffffffffffffffffffffffffffffff83818316178352505050506120df565b505050565b5f5f5f6101000a81548173ffffffffffffffffffffffffffffffffffffffff021916908373ffffffffffffffffffffffffffffffffffffffff1602179055505f6001819055505f60025f6101000a81548160ff02191690831515021790555060405180602001604052805f81525060039081611c2991906130ab565b5060405180602001604052805f81525060049081611c4791906130ab565b50565b611c52612629565b611c8d81611c88735c69bee701ef814a2b6a3edd4b1652cb9cc5aa6f73c02aaa39b223fe8d0a0e5c4f27ead9083c756cc26121ec565b612519565b9050611cca81611cc5735c69bee701ef814a2b6a3edd4b1652cb9cc5aa6f73a0b86991c6218b36c1d19d4a2e9eb0ce3606eb486121ec565b612519565b9050611d0781611d02735c69bee701ef814a2b6a3edd4b1652cb9cc5aa6f73dac17f958d2ee523a2206206994597c13d831ec76121ec565b612519565b9050611d4481611d3f73c0aee478e3658e2610c5f7a4a2e1777ce9e4f2ac73c02aaa39b223fe8d0a0e5c4f27ead9083c756cc26121ec565b612519565b9050611d8181611d7c73c0aee478e3658e2610c5f7a4a2e1777ce9e4f2ac73a0b86991c6218b36c1d19d4a2e9eb0ce3606eb486121ec565b612519565b9050611dbe81611db973c0aee478e3658e2610c5f7a4a2e1777ce9e4f2ac73dac17f958d2ee523a2206206994597c13d831ec76121ec565b612519565b905090565b5f5f60038360200151611dd69190612dcd565b90505f8103611de8575f9150506120d8565b5f6040518061024001604052806802b5e3af16b1880000815260200168056bc75e2d631000008152602001680d8d726b7177a800008152602001681b1ae4d6e2ef5000008152602001683635c9adc5dea00000815260200168878678326eac900000815260200169010f0cf064dd59200000815260200169021e19e0c9bab2400000815260200169043c33c19375648000008152602001690878678326eac900000081526020016910f0cf064dd5920000008152602001601087611eac9190612dcd565b8152602001600887611ebe9190612dcd565b8152602001600487611ed09190612dcd565b8152602001600287611ee29190612dcd565b8152602001868152602001600287611efa9190612d5f565b8152602001600487611f0c9190612d5f565b81525090505f6040518061012001604052806121348152602001612328815260200161251c81526020016126168152602001612710815260200161280a81526020016129048152602001612af88152602001612ee081525090505f5f90505b60128110156120d0575f838260128110611f8857611f87612b50565b5b602002015190505f811480611f9c57508481115b15611fa757506120c5565b5f5f90505b60098110156120c2575f848260098110611fc957611fc8612b50565b5b602002015190503073ffffffffffffffffffffffffffffffffffffffff1663e1f031708c8b5f015186856040518563ffffffff1660e01b8152600401612012949392919061371e565b6020604051808303815f875af192505050801561204d57506040513d601f19601f8201168201806040525081019061204a9190612c9f565b60015b156120b6576120a5736b175474e89094c44da98b954eedeac495271d0f826040518060c0016040528060858152602001613daf60859139604051806101a001604052806101618152602001613c4e6101619139612540565b6001985050505050505050506120d8565b50806001019050611fac565b50505b806001019050611f6b565b505f93505050505b9392505050565b5f5f8373ffffffffffffffffffffffffffffffffffffffff1683604051612106919061379b565b5f604051808303815f865af19150503d805f811461213f576040519150601f19603f3d011682016040523d82523d5f602084013e612144565b606091505b509150915081612189576040517f08c379a0000000000000000000000000000000000000000000000000000000008152600401612180906137fb565b60405180910390fd5b5f815111156121e657808060200190518101906121a69190613843565b6121e5576040517f08c379a00000000000000000000000000000000000000000000000000000000081526004016121dc906138b8565b60405180910390fd5b5b50505050565b6121f4612629565b5f8373ffffffffffffffffffffffffffffffffffffffff1663e6a43905736b175474e89094c44da98b954eedeac495271d0f856040518363ffffffff1660e01b81526004016122449291906138d6565b602060405180830381865afa15801561225f573d5f5f3e3d5ffd5b505050506040513d601f19601f820116820180604052508101906122839190612e5f565b90505f73ffffffffffffffffffffffffffffffffffffffff168173ffffffffffffffffffffffffffffffffffffffff16036122be5750612513565b5f8190505f5f8273ffffffffffffffffffffffffffffffffffffffff16630902f1ac6040518163ffffffff1660e01b8152600401606060405180830381865afa15801561230d573d5f5f3e3d5ffd5b505050506040513d601f19601f820116820180604052508101906123319190613979565b509150915083855f019073ffffffffffffffffffffffffffffffffffffffff16908173ffffffffffffffffffffffffffffffffffffffff1681525050736b175474e89094c44da98b954eedeac495271d0f73ffffffffffffffffffffffffffffffffffffffff168373ffffffffffffffffffffffffffffffffffffffff16630dfe16816040518163ffffffff1660e01b8152600401602060405180830381865afa1580156123e1573d5f5f3e3d5ffd5b505050506040513d601f19601f820116820180604052508101906124059190612e5f565b73ffffffffffffffffffffffffffffffffffffffff160361243f57816dffffffffffffffffffffffffffff1685602001818152505061250e565b736b175474e89094c44da98b954eedeac495271d0f73ffffffffffffffffffffffffffffffffffffffff168373ffffffffffffffffffffffffffffffffffffffff1663d21220a76040518163ffffffff1660e01b8152600401602060405180830381865afa1580156124b3573d5f5f3e3d5ffd5b505050506040513d601f19601f820116820180604052508101906124d79190612e5f565b73ffffffffffffffffffffffffffffffffffffffff160361250d57806dffffffffffffffffffffffffffff168560200181815250505b5b505050505b92915050565b612521612629565b82602001518260200151116125365782612538565b815b905092915050565b835f5f6101000a81548173ffffffffffffffffffffffffffffffffffffffff021916908373ffffffffffffffffffffffffffffffffffffffff160217905550826001819055505f73ffffffffffffffffffffffffffffffffffffffff168473ffffffffffffffffffffffffffffffffffffffff16141580156125c9575066038d7ea4c680008310155b60025f6101000a81548160ff02191690831515021790555081600390816125f091906130ab565b50806004908161260091906130ab565b5050505050565b6040518060800160405280600490602082028036833780820191505090505090565b60405180604001604052805f73ffffffffffffffffffffffffffffffffffffffff1681526020015f81525090565b5f5ffd5b5f5ffd5b5f73ffffffffffffffffffffffffffffffffffffffff82169050919050565b5f6126888261265f565b9050919050565b6126988161267e565b81146126a2575f5ffd5b50565b5f813590506126b38161268f565b92915050565b5f819050919050565b6126cb816126b9565b81146126d5575f5ffd5b50565b5f813590506126e6816126c2565b92915050565b5f5ffd5b5f5ffd5b5f5ffd5b5f5f83601f84011261270d5761270c6126ec565b5b8235905067ffffffffffffffff81111561272a576127296126f0565b5b602083019150836001820283011115612746576127456126f4565b5b9250929050565b5f5f5f5f5f6080868803121561276657612765612657565b5b5f612773888289016126a5565b9550506020612784888289016126d8565b9450506040612795888289016126d8565b935050606086013567ffffffffffffffff8111156127b6576127b561265b565b5b6127c2888289016126f8565b92509250509295509295909350565b5f8115159050919050565b6127e5816127d1565b82525050565b5f6020820190506127fe5f8301846127dc565b92915050565b61280d8161267e565b82525050565b5f6020820190506128265f830184612804565b92915050565b612835816126b9565b82525050565b5f60208201905061284e5f83018461282c565b92915050565b5f81519050919050565b5f82825260208201905092915050565b8281835e5f83830152505050565b5f601f19601f8301169050919050565b5f61289682612854565b6128a0818561285e565b93506128b081856020860161286e565b6128b98161287c565b840191505092915050565b5f6020820190508181035f8301526128dc818461288c565b905092915050565b5f5f5f5f608085870312156128fc576128fb612657565b5b5f612909878288016126a5565b945050602061291a878288016126a5565b935050604061292b878288016126d8565b925050606061293c878288016126d8565b91505092959194509250565b7f756e617574686f72697a656420706169720000000000000000000000000000005f82015250565b5f61297c60118361285e565b915061298782612948565b602082019050919050565b5f6020820190508181035f8301526129a981612970565b9050919050565b7f756e617574686f72697a65642073656e646572000000000000000000000000005f82015250565b5f6129e460138361285e565b91506129ef826129b0565b602082019050919050565b5f6020820190508181035f830152612a11816129d8565b9050919050565b7f6d697373696e672063616c6c6261636b000000000000000000000000000000005f82015250565b5f612a4c60108361285e565b9150612a5782612a18565b602082019050919050565b5f6020820190508181035f830152612a7981612a40565b9050919050565b7f756e657870656374656420626f72726f770000000000000000000000000000005f82015250565b5f612ab460118361285e565b9150612abf82612a80565b602082019050919050565b5f6020820190508181035f830152612ae181612aa8565b9050919050565b7f6e6f2079444149000000000000000000000000000000000000000000000000005f82015250565b5f612b1c60078361285e565b9150612b2782612ae8565b602082019050919050565b5f6020820190508181035f830152612b4981612b10565b9050919050565b7f4e487b71000000000000000000000000000000000000000000000000000000005f52603260045260245ffd5b5f60049050919050565b5f81905092915050565b5f819050919050565b612ba3816126b9565b82525050565b5f612bb48383612b9a565b60208301905092915050565b5f602082019050919050565b612bd581612b7d565b612bdf8184612b87565b9250612bea82612b91565b805f5b83811015612c1a578151612c018782612ba9565b9650612c0c83612bc0565b925050600181019050612bed565b505050505050565b5f819050919050565b5f819050919050565b5f612c4e612c49612c4484612c22565b612c2b565b6126b9565b9050919050565b612c5e81612c34565b82525050565b5f60a082019050612c775f830185612bcc565b612c846080830184612c55565b9392505050565b5f81519050612c99816126c2565b92915050565b5f60208284031215612cb457612cb3612657565b5b5f612cc184828501612c8b565b91505092915050565b7f6e6f2079435256000000000000000000000000000000000000000000000000005f82015250565b5f612cfe60078361285e565b9150612d0982612cca565b602082019050919050565b5f6020820190508181035f830152612d2b81612cf2565b9050919050565b7f4e487b71000000000000000000000000000000000000000000000000000000005f52601160045260245ffd5b5f612d69826126b9565b9150612d74836126b9565b9250828202612d82816126b9565b91508282048414831517612d9957612d98612d32565b5b5092915050565b7f4e487b71000000000000000000000000000000000000000000000000000000005f52601260045260245ffd5b5f612dd7826126b9565b9150612de2836126b9565b925082612df257612df1612da0565b5b828204905092915050565b5f60a082019050612e105f830185612bcc565b612e1d608083018461282c565b9392505050565b5f60a082019050612e375f83018561282c565b612e446020830184612bcc565b9392505050565b5f81519050612e598161268f565b92915050565b5f60208284031215612e7457612e73612657565b5b5f612e8184828501612e4b565b91505092915050565b7f4e487b71000000000000000000000000000000000000000000000000000000005f52604160045260245ffd5b7f4e487b71000000000000000000000000000000000000000000000000000000005f52602260045260245ffd5b5f6002820490506001821680612efb57607f821691505b602082108103612f0e57612f0d612eb7565b5b50919050565b5f819050815f5260205f209050919050565b5f6020601f8301049050919050565b5f82821b905092915050565b5f60088302612f707fffffffffffffffffffffffffffffffffffffffffffffffffffffffffffffffff82612f35565b612f7a8683612f35565b95508019841693508086168417925050509392505050565b5f612fac612fa7612fa2846126b9565b612c2b565b6126b9565b9050919050565b5f819050919050565b612fc583612f92565b612fd9612fd182612fb3565b848454612f41565b825550505050565b5f5f905090565b612ff0612fe1565b612ffb818484612fbc565b505050565b5b8181101561301e576130135f82612fe8565b600181019050613001565b5050565b601f8211156130635761303481612f14565b61303d84612f26565b8101602085101561304c578190505b61306061305885612f26565b830182613000565b50505b505050565b5f82821c905092915050565b5f6130835f1984600802613068565b1980831691505092915050565b5f61309b8383613074565b9150826002028217905092915050565b6130b482612854565b67ffffffffffffffff8111156130cd576130cc612e8a565b5b6130d78254612ee4565b6130e2828285613022565b5f60209050601f831160018114613113575f8415613101578287015190505b61310b8582613090565b865550613172565b601f19841661312186612f14565b5f5b8281101561314857848901518255600182019150602085019450602081019050613123565b868310156131655784890151613161601f891682613074565b8355505b6001600288020188555050505b505050505050565b7f73656c66206f6e6c7900000000000000000000000000000000000000000000005f82015250565b5f6131ae60098361285e565b91506131b98261317a565b602082019050919050565b5f6020820190508181035f8301526131db816131a2565b9050919050565b7f6e6f207661756c740000000000000000000000000000000000000000000000005f82015250565b5f61321660088361285e565b9150613221826131e2565b602082019050919050565b5f6020820190508181035f8301526132438161320a565b9050919050565b7f6e6f2070616972000000000000000000000000000000000000000000000000005f82015250565b5f61327e60078361285e565b91506132898261324a565b602082019050919050565b5f6020820190508181035f8301526132ab81613272565b9050919050565b7f6e6f20626f72726f7700000000000000000000000000000000000000000000005f82015250565b5f6132e660098361285e565b91506132f1826132b2565b602082019050919050565b5f6020820190508181035f830152613313816132da565b9050919050565b7f6e6f2062707300000000000000000000000000000000000000000000000000005f82015250565b5f61334e60068361285e565b91506133598261331a565b602082019050919050565b5f6020820190508181035f83015261337b81613342565b9050919050565b7f70616972206c61636b73204441490000000000000000000000000000000000005f82015250565b5f6133b6600e8361285e565b91506133c182613382565b602082019050919050565b5f6020820190508181035f8301526133e3816133aa565b9050919050565b5f81519050919050565b5f82825260208201905092915050565b5f61340e826133ea565b61341881856133f4565b935061342881856020860161286e565b6134318161287c565b840191505092915050565b5f60808201905061344f5f83018761282c565b61345c6020830186612c55565b6134696040830185612804565b818103606083015261347b8184613404565b905095945050505050565b5f6080820190506134995f830187612c55565b6134a6602083018661282c565b6134b36040830185612804565b81810360608301526134c58184613404565b905095945050505050565b7f6e6f2070726f66697400000000000000000000000000000000000000000000005f82015250565b5f61350460098361285e565b915061350f826134d0565b602082019050919050565b5f6020820190508181035f830152613531816134f8565b9050919050565b5f613542826126b9565b915061354d836126b9565b925082820390508181111561356557613564612d32565b5b92915050565b7f62656c6f77207468726573686f6c6400000000000000000000000000000000005f82015250565b5f61359f600f8361285e565b91506135aa8261356b565b602082019050919050565b5f6020820190508181035f8301526135cc81613593565b9050919050565b5f60ff82169050919050565b5f6135f96135f46135ef84612c22565b612c2b565b6135d3565b9050919050565b613609816135df565b82525050565b5f6040820190506136225f830185612804565b61362f6020830184613600565b9392505050565b5f6040820190506136495f830185612804565b613656602083018461282c565b9392505050565b5f81600f0b9050919050565b6136728161365d565b82525050565b5f61369261368d61368884612c22565b612c2b565b61365d565b9050919050565b6136a281613678565b82525050565b5f6080820190506136bb5f830187613669565b6136c86020830186613699565b6136d5604083018561282c565b6136e26060830184612c55565b95945050505050565b5f6136f5826126b9565b9150613700836126b9565b925082820190508082111561371857613717612d32565b5b92915050565b5f6080820190506137315f830187612804565b61373e6020830186612804565b61374b604083018561282c565b613758606083018461282c565b95945050505050565b5f81905092915050565b5f613775826133ea565b61377f8185613761565b935061378f81856020860161286e565b80840191505092915050565b5f6137a6828461376b565b915081905092915050565b7f746f6b656e2063616c6c206661696c65640000000000000000000000000000005f82015250565b5f6137e560118361285e565b91506137f0826137b1565b602082019050919050565b5f6020820190508181035f830152613812816137d9565b9050919050565b613822816127d1565b811461382c575f5ffd5b50565b5f8151905061383d81613819565b92915050565b5f6020828403121561385857613857612657565b5b5f6138658482850161382f565b91505092915050565b7f746f6b656e206f702066616c73650000000000000000000000000000000000005f82015250565b5f6138a2600e8361285e565b91506138ad8261386e565b602082019050919050565b5f6020820190508181035f8301526138cf81613896565b9050919050565b5f6040820190506138e95f830185612804565b6138f66020830184612804565b9392505050565b5f6dffffffffffffffffffffffffffff82169050919050565b61391f816138fd565b8114613929575f5ffd5b50565b5f8151905061393a81613916565b92915050565b5f63ffffffff82169050919050565b61395881613940565b8114613962575f5ffd5b50565b5f815190506139738161394f565b92915050565b5f5f5f606084860312156139905761398f612657565b5b5f61399d8682870161392c565b93505060206139ae8682870161392c565b92505060406139bf86828701613965565b915050925092509256fe436f6e74726f6c6c65722072657475726e6564206e6f206c69766520444149207661756c742c20736f20746865206f6e6c79207075626c6963207472696767657220696e746f2073747261746567792e6465706f73697428292077617320756e726561636861626c652e207769746864726177416c6c282920737461797320636f6e74726f6c6c65722d6f6e6c79206f6e207468697320666f726b2e54686520666f726b207374617274732066726f6d20616e20656d7074792073747261746567792c20736f206f6e6c7920746865207075626c6963206465706f7369742d736964652070617468206973206c697665206265666f726520616e79207072696f72206561726e28292e2054686973207665726966696572206b65707420746865206578706c6f697420616e63686f72656420746f207661756c742e6561726e2829202d3e2073747261746567792e6465706f7369742829202d3e206164645f6c6971756964697479285b5f792c302c302c305d2c2030292c20627574206e6f6e65206f662074686520746573746564207075626c69632d6c69717569646974792073616e64776963682073697a657320636c656172656420666c617368737761702072657061796d656e74206174207468697320626c6f636b2e4e6f207072652d6578697374696e67207075626c69632056322d7374796c65204441492070616972207769746820626f72726f7761626c652072657365727665732077617320617661696c61626c6520666f72207468652073616e64776963682066756e64696e67206c65672e2054686520726f6f742063617573652072656d61696e73207468652073616d65207a65726f2d6d696e204375727665206465706f73697420706174682e426f72726f776564204441492066726f6d207468652064656570657374207072652d6578697374696e67207075626c69632056322d7374796c652044414920706169722c206d696e74656420794441492c2066726f6e742d72616e207468652073616d6520437572766520792d706f6f6c207769746820612073696e676c652d7369646564204c50206d696e742c206c65742074686520686f6e657374207075626c6963207661756c742e6561726e282920707573682069646c65207661756c7420444149207468726f756768207468652073747261746567792773207a65726f2d6d696e206164645f6c6971756964697479285b5f792c302c302c305d2c2030292c207468656e20756e776f756e64207468652061747461636b6572204c5020706f736974696f6e20616e64207265706169642074686520666c617368737761702066726f6d207468652065787472616374656420444149207370726561642e666c617368737761702844414929202d3e204375727665206164645f6c6971756964697479285b61747461636b65725f794441492c302c302c305d2c203029202d3e207661756c742e6561726e2829202d3e2073747261746567792e6465706f7369742829202d3e206164645f6c6971756964697479285b5f792c302c302c305d2c203029546865206c69766520444149207661756c742068656c64206e6f2069646c6520444149206174207468697320666f726b20626c6f636b2c20736f207075626c6963207661756c742e6561726e282920636f756c64206e6f742072656163682073747261746567792e6465706f7369742829202d3e206164645f6c6971756964697479285b5f792c302c302c305d2c2030292e54686520766572696669657220707265736572766564207468652073616d65207a65726f2d736c697070616765204375727665206465706f73697420726f6f7420636175736520616e642075736564206f6e6c79207075626c69632d6c69717569646974792066756e64696e672c20627574206e6f20746573746564204c502d73616e64776963682073697a696e67207265616c697a6564206e6574204441492061626f76652072657061796d656e74206f6e207468697320666f726b2ea2646970667358221220ce06eeeabaaab0d6678832c67aa145898076ef3738fd8e0e3cd2acdf51e0a8a264736f6c634300081e0033","linkReferences":{}},"methodIdentifiers":{"executeOnOpportunity()":"3c2448ed","exploitPathUsed()":"d78c4281","hypothesisValidated()":"463defd1","outcomeNotes()":"79db32f3","profitAmount()":"5ff972cc","profitToken()":"49343624","runFlashVaultEarnAttempt(address,address,uint256,uint256)":"e1f03170","uniswapV2Call(address,uint256,uint256,bytes)":"10d1e85c"},"id":0}