{"abi":[{"type":"constructor","inputs":[],"stateMutability":"nonpayable"},{"type":"function","name":"TARGET","inputs":[],"outputs":[{"name":"","type":"address","internalType":"address"}],"stateMutability":"view"},{"type":"function","name":"executeKnownOutputFundedVictimOpportunity","inputs":[{"name":"zeroInputToken","type":"address","internalType":"address"},{"name":"victimToken","type":"address","internalType":"address"},{"name":"victim","type":"address","internalType":"address"},{"name":"amount","type":"uint256","internalType":"uint256"}],"outputs":[],"stateMutability":"nonpayable"},{"type":"function","name":"executeKnownVictimOpportunity","inputs":[{"name":"feeToken","type":"address","internalType":"address"},{"name":"victimToken","type":"address","internalType":"address"},{"name":"victim","type":"address","internalType":"address"},{"name":"amount","type":"uint256","internalType":"uint256"},{"name":"inputBudget","type":"uint112","internalType":"uint112"}],"outputs":[],"stateMutability":"nonpayable"},{"type":"function","name":"executeOnOpportunity","inputs":[],"outputs":[],"stateMutability":"nonpayable"},{"type":"function","name":"profitAmount","inputs":[],"outputs":[{"name":"","type":"uint256","internalType":"uint256"}],"stateMutability":"view"},{"type":"function","name":"profitToken","inputs":[],"outputs":[{"name":"","type":"address","internalType":"address"}],"stateMutability":"view"}],"bytecode":{"object":"0x6080806040523460155761728f908161001a8239f35b5f80fdfe60806040526004361015610011575f80fd5b5f5f3560e01c80631bb7e0d5146101c25780633c2448ed146101a95780634934362414610182578063523c5178146100a45780635ff972cc146100865763cc1f2afa1461005c575f80fd5b3461008357806003193601126100835760206040515f51602061723a5f395f51905f528152f35b80fd5b50346100835780600319360112610083576020600154604051908152f35b5034610083576080366003190112610083576100be6102d0565b6100c66102e6565b90826100fb6100d36102fc565b5f80546001600160a01b0319168155600155926100f0308661062a565b938560643592610ea7565b5f51602061723a5f395f51905f523b1561017e578161012e91604051809381926330f5c62960e21b83526004830161046a565b0381835f51602061723a5f395f51905f525af180156101735761015a575b505061015791610721565b80f35b816101649161037a565b61016f57825f61014c565b8280fd5b6040513d84823e3d90fd5b5080fd5b5034610083578060031936011261008357546040516001600160a01b039091168152602090f35b50346100835780600319360112610083576101576103b0565b50346102cc5760a03660031901126102cc576101dc6102d0565b6101e46102e6565b906101ed6102fc565b60643590608435926001600160701b038416938481036102cc575f80546001600160a01b0319168155600155610223308761062a565b94610237575085926100fb9286859361115a565b91858261024a61024f9694999899610674565b61115a565b5f51602061723a5f395f51905f523b156102cc575f61028291604051809381926330f5c62960e21b83526004830161046a565b0381835f51602061723a5f395f51905f525af180156102c1576102ab575b506101579192610721565b61015792505f6102ba9161037a565b5f916102a0565b6040513d5f823e3d90fd5b5f80fd5b600435906001600160a01b03821682036102cc57565b602435906001600160a01b03821682036102cc57565b604435906001600160a01b03821682036102cc57565b6080810190811067ffffffffffffffff82111761032e57604052565b634e487b7160e01b5f52604160045260245ffd5b6060810190811067ffffffffffffffff82111761032e57604052565b6040810190811067ffffffffffffffff82111761032e57604052565b90601f8019910116810190811067ffffffffffffffff82111761032e57604052565b51906001600160a01b03821682036102cc57565b5f80546001600160a01b0319168155600155604051630a7d2f0d60e31b81526020816004815f51602061723a5f395f51905f525afa9081156102c1575f91610430575b506001600160a01b03166104068161087f565b61042d57610413816109b3565b61042d5761042081610b89565b61042d5761042d90610d4f565b50565b90506020813d602011610462575b8161044b6020938361037a565b810103126102cc5761045c9061039c565b5f6103f3565b3d915061043e565b602080825282516001600160a01b03908116838301528382015180516001600160701b03166040850152909101511660608083019190915260e0820192604081015180516001600160701b03166080850152602001516001600160a01b031660a084015201519160c080830152825180915261010082019160206101008360051b8301019401925f915b83831061050357505050505090565b909192939460208060c060019360ff198682030187528260608b51878060a01b038151168452878060a01b03838201511683850152610566604082015160408601906020906001600160701b0381511683528160018060a01b0391015116910152565b015160a0608084015280519182918260a0860152018484015e5f828201840152601f01601f1916010197019594919091019201906104f4565b803b15610625576040516370a0823160e01b81525f51602061723a5f395f51905f52600482015290602090829060249082906001600160a01b03165afa5f91816105f1575b506105ee57505f90565b90565b9091506020813d60201161061d575b8161060d6020938361037a565b810103126102cc5751905f6105e4565b3d9150610600565b505f90565b90813b1561066e576040516370a0823160e01b81526001600160a01b0391821660048201529160209183916024918391165afa5f91816105f157506105ee57505f90565b50505f90565b803b1561042d575f196106955f51602061723a5f395f51905f523084611006565b101561042d5761071f906106e060405163095ea7b360e01b60208201525f51602061723a5f395f51905f5260248201525f6044820152604481526106da60648261037a565b82611071565b6040519063095ea7b360e01b60208301525f51602061723a5f395f51905f5260248301525f1960448301526044825261071a60648361037a565b611071565b565b9061072c308361062a565b9181831161073957505050565b60018060a01b03166bffffffffffffffffffffffff60a01b5f5416175f55810390811161076557600155565b634e487b7160e01b5f52601160045260245ffd5b67ffffffffffffffff811161032e5760051b60200190565b6020818303126102cc5780519067ffffffffffffffff82116102cc570181601f820112156102cc578051906107c582610779565b926107d3604051948561037a565b82845260208085019360071b830101918183116102cc57602001925b8284106107fd575050505090565b6080848303126102cc57602060809160405161081881610312565b6108218761039c565b8152828701518382015260408701516040820152606087015160608201528152019301926107ef565b8051156108575760200190565b634e487b7160e01b5f52603260045260245ffd5b80518210156108575760209160051b010190565b6040516371a9730560e01b81525f816004816001600160a01b0386165afa5f918161098f575b50610948575b506108be6108b8826121e1565b82611fe0565b610942576108cd6108b8612256565b610942576108da81611258565b610942576108e781611409565b610942576108f4816115ba565b610942576109018161176b565b6109425761090e8161191c565b6109425761091b81611acd565b6109425761092881611c7e565b6109425761093590611e2f565b61093d575f90565b600190565b50600190565b905f5b8251811015610986576109726001600160a01b03610969838661086b565b51511683611fe0565b61097e5760010161094b565b505050600190565b5090505f6108ab565b6109ac9192503d805f833e6109a4818361037a565b810190610791565b905f6108a5565b6040516109bf81610342565b604051630a7d2f0d60e31b81526020816004815f51602061723a5f395f51905f525afa9081156102c1575f91610b4f575b506001600160a01b039081168252610a0661228b565b1660208201526001600160a01b03610a1c6122c0565b16604082810191909152516371a9730560e01b81525f816004816001600160a01b0387165afa5f9181610b33575b50610aea575b50610a6481610a5e846121e1565b846127fe565b610ae357610a7481610a5e612256565b610ae357610a828183612306565b610ae357610a9081836123a5565b610ae357610a9e8183612444565b610ae357610aac81836124e3565b610ae357610aba8183612582565b610ae357610ac88183612621565b610ae357610ad681836126c0565b610ae3576109359161275f565b5050600190565b915f5b8351811015610b2a57610b15836001600160a01b03610b0c848861086b565b515116846127fe565b610b2157600101610aed565b50505050600190565b5091505f610a50565b610b489192503d805f833e6109a4818361037a565b905f610a4a565b90506020813d602011610b81575b81610b6a6020938361037a565b810103126102cc57610b7b9061039c565b5f6109f0565b3d9150610b5d565b604051610b9581610342565b604051630a7d2f0d60e31b81526020816004815f51602061723a5f395f51905f525afa9081156102c1575f91610d15575b506001600160a01b039081168252610bdc61228b565b1660208201526001600160a01b03610bf26122c0565b16604082810191909152516371a9730560e01b81525f816004816001600160a01b0387165afa5f9181610cf9575b50610cb9575b50610c3a81610c34846121e1565b84613658565b610ae357610c4a81610c34612256565b610ae357610c588183612878565b610ae357610c668183612a34565b610ae357610c748183612bf0565b610ae357610c828183612dac565b610ae357610c908183612f68565b610ae357610c9e8183613124565b610ae357610cac81836132e0565b610ae3576109359161349c565b915f5b8351811015610cf057610ce4836001600160a01b03610cdb848861086b565b51511684613658565b610b2157600101610cbc565b5091505f610c26565b610d0e9192503d805f833e6109a4818361037a565b905f610c20565b90506020813d602011610d47575b81610d306020938361037a565b810103126102cc57610d419061039c565b5f610bc6565b3d9150610d23565b610d57612256565b803b1561066e57610d6881836137d1565b610ae357610d768183613a65565b610ae357610d848183613cec565b610ae357610d928183613f6f565b610ae357610d9f826121e1565b6001600160a01b038116801515939084610dd8575b5083610dc6575b50505061093d575f90565b610dd093506141f2565b5f8080610dbb565b5f51602061713a5f395f51905f52141593505f610db4565b60405190610dfd82610312565b606080835f8152604051610e108161035e565b5f81525f60208201526020820152604051610e2a8161035e565b5f81525f602082015260408201520152565b60408051909190610e4d838261037a565b6001815291601f1901825f5b828110610e6557505050565b602090604051610e7481610312565b5f81525f83820152604051610e888161035e565b5f81525f84820152604082015260608082015282828501015201610e59565b9190610eb1610df0565b50610eba610e3c565b6040519490936001600160a01b03169290610ed48661035e565b5f8652836020870152604051916323b872dd60e01b602084015260018060a01b031660248301525f51602061723a5f395f51905f526044830152606482015260648152610f2260848261037a565b60405191610f2f83610312565b6001600160a01b03168083526020830181905260408301959095526060820152610f588361084a565b52610f628261084a565b5060405190610f708261035e565b5f8252602082015260405190610f858261035e565b5f825283602083015260405193610f9b85610312565b845260208401526040830152606082015290565b90813b1561066e57604051636eb1769f60e11b81526001600160a01b0391821660048201525f51602061723a5f395f51905f5260248201529160209183916044918391165afa5f91816105f157506105ee57505f90565b91823b1561105257604051636eb1769f60e11b81526001600160a01b03928316600482015290821660248201529160209183916044918391165afa5f91816105f157506105ee57505f90565b5050505f90565b908160209103126102cc575180151581036102cc5790565b5f91829182602083519301915af13d15611152573d9067ffffffffffffffff821161032e57604051916110ae601f8201601f19166020018461037a565b82523d5f602084013e5b1561111957805190816110c9575050565b6020806110da938301019101611059565b156110e157565b60405162461bcd60e51b815260206004820152601060248201526f544f4b454e5f43414c4c5f46414c534560801b6044820152606490fd5b60405162461bcd60e51b81526020600482015260116024820152701513d2d15397d0d0531317d19052531151607a1b6044820152606490fd5b6060906110b8565b929390611165610df0565b5061116e610e3c565b9360018060a01b0316946111d7604051946111888661035e565b5f865260208087018990526040516323b872dd60e01b918101919091526001600160a01b039091166024820152306044820152606481019290925281608481015b03601f19810183528261037a565b604051916111e483610312565b6001600160a01b0316808352602083018190526040830194909452606082015261120d8461084a565b526112178361084a565b506001600160701b036040519161122d8361035e565b168152836020820152604051916112438361035e565b5f8352602083015260405193610f9b85610312565b5f51602061713a5f395f51905f523b15610625576112825f51602061713a5f395f51905f5261059f565b801561066e576112a1815f51602061713a5f395f51905f528085615766565b610ae3576112ae826121e1565b6001600160a01b0381165f51602061713a5f395f51905f521415908290826113e8575b5050610ae3576112df612256565b6001600160a01b0381165f51602061713a5f395f51905f521415908290826113c7575b5050610ae357611320815f51602061713a5f395f51905f528461465e565b610ae35761133c815f51602061713a5f395f51905f52846148c2565b610ae357611358815f51602061713a5f395f51905f5284614b26565b610ae357611374815f51602061713a5f395f51905f5284614d8a565b610ae357611390815f51602061713a5f395f51905f5284615001565b610ae3576113ac815f51602061713a5f395f51905f5284615278565b610ae3575f51602061713a5f395f51905f52610935926154ef565b6113e192505f51602061713a5f395f51905f529085615766565b815f611302565b61140292505f51602061713a5f395f51905f529085615766565b815f6112d1565b5f51602061719a5f395f51905f523b15610625576114335f51602061719a5f395f51905f5261059f565b801561066e57611452815f51602061719a5f395f51905f528085615766565b610ae35761145f826121e1565b6001600160a01b0381165f51602061719a5f395f51905f52141590829082611599575b5050610ae357611490612256565b6001600160a01b0381165f51602061719a5f395f51905f52141590829082611578575b5050610ae3576114d1815f51602061719a5f395f51905f52846143fa565b610ae3576114ed815f51602061719a5f395f51905f52846148c2565b610ae357611509815f51602061719a5f395f51905f5284614b26565b610ae357611525815f51602061719a5f395f51905f5284614d8a565b610ae357611541815f51602061719a5f395f51905f5284615001565b610ae35761155d815f51602061719a5f395f51905f5284615278565b610ae3575f51602061719a5f395f51905f52610935926154ef565b61159292505f51602061719a5f395f51905f529085615766565b815f6114b3565b6115b392505f51602061719a5f395f51905f529085615766565b815f611482565b5f5160206171ba5f395f51905f523b15610625576115e45f5160206171ba5f395f51905f5261059f565b801561066e57611603815f5160206171ba5f395f51905f528085615766565b610ae357611610826121e1565b6001600160a01b0381165f5160206171ba5f395f51905f5214159082908261174a575b5050610ae357611641612256565b6001600160a01b0381165f5160206171ba5f395f51905f52141590829082611729575b5050610ae357611682815f5160206171ba5f395f51905f52846143fa565b610ae35761169e815f5160206171ba5f395f51905f528461465e565b610ae3576116ba815f5160206171ba5f395f51905f5284614b26565b610ae3576116d6815f5160206171ba5f395f51905f5284614d8a565b610ae3576116f2815f5160206171ba5f395f51905f5284615001565b610ae35761170e815f5160206171ba5f395f51905f5284615278565b610ae3575f5160206171ba5f395f51905f52610935926154ef565b61174392505f5160206171ba5f395f51905f529085615766565b815f611664565b61176492505f5160206171ba5f395f51905f529085615766565b815f611633565b5f51602061717a5f395f51905f523b15610625576117955f51602061717a5f395f51905f5261059f565b801561066e576117b4815f51602061717a5f395f51905f528085615766565b610ae3576117c1826121e1565b6001600160a01b0381165f51602061717a5f395f51905f521415908290826118fb575b5050610ae3576117f2612256565b6001600160a01b0381165f51602061717a5f395f51905f521415908290826118da575b5050610ae357611833815f51602061717a5f395f51905f52846143fa565b610ae35761184f815f51602061717a5f395f51905f528461465e565b610ae35761186b815f51602061717a5f395f51905f52846148c2565b610ae357611887815f51602061717a5f395f51905f5284614d8a565b610ae3576118a3815f51602061717a5f395f51905f5284615001565b610ae3576118bf815f51602061717a5f395f51905f5284615278565b610ae3575f51602061717a5f395f51905f52610935926154ef565b6118f492505f51602061717a5f395f51905f529085615766565b815f611815565b61191592505f51602061717a5f395f51905f529085615766565b815f6117e4565b5f5160206171da5f395f51905f523b15610625576119465f5160206171da5f395f51905f5261059f565b801561066e57611965815f5160206171da5f395f51905f528085615766565b610ae357611972826121e1565b6001600160a01b0381165f5160206171da5f395f51905f52141590829082611aac575b5050610ae3576119a3612256565b6001600160a01b0381165f5160206171da5f395f51905f52141590829082611a8b575b5050610ae3576119e4815f5160206171da5f395f51905f52846143fa565b610ae357611a00815f5160206171da5f395f51905f528461465e565b610ae357611a1c815f5160206171da5f395f51905f52846148c2565b610ae357611a38815f5160206171da5f395f51905f5284614b26565b610ae357611a54815f5160206171da5f395f51905f5284615001565b610ae357611a70815f5160206171da5f395f51905f5284615278565b610ae3575f5160206171da5f395f51905f52610935926154ef565b611aa592505f5160206171da5f395f51905f529085615766565b815f6119c6565b611ac692505f5160206171da5f395f51905f529085615766565b815f611995565b5f5160206171fa5f395f51905f523b1561062557611af75f5160206171fa5f395f51905f5261059f565b801561066e57611b16815f5160206171fa5f395f51905f528085615766565b610ae357611b23826121e1565b6001600160a01b0381165f5160206171fa5f395f51905f52141590829082611c5d575b5050610ae357611b54612256565b6001600160a01b0381165f5160206171fa5f395f51905f52141590829082611c3c575b5050610ae357611b95815f5160206171fa5f395f51905f52846143fa565b610ae357611bb1815f5160206171fa5f395f51905f528461465e565b610ae357611bcd815f5160206171fa5f395f51905f52846148c2565b610ae357611be9815f5160206171fa5f395f51905f5284614b26565b610ae357611c05815f5160206171fa5f395f51905f5284614d8a565b610ae357611c21815f5160206171fa5f395f51905f5284615278565b610ae3575f5160206171fa5f395f51905f52610935926154ef565b611c5692505f5160206171fa5f395f51905f529085615766565b815f611b77565b611c7792505f5160206171fa5f395f51905f529085615766565b815f611b46565b5f51602061715a5f395f51905f523b1561062557611ca85f51602061715a5f395f51905f5261059f565b801561066e57611cc7815f51602061715a5f395f51905f528085615766565b610ae357611cd4826121e1565b6001600160a01b0381165f51602061715a5f395f51905f52141590829082611e0e575b5050610ae357611d05612256565b6001600160a01b0381165f51602061715a5f395f51905f52141590829082611ded575b5050610ae357611d46815f51602061715a5f395f51905f52846143fa565b610ae357611d62815f51602061715a5f395f51905f528461465e565b610ae357611d7e815f51602061715a5f395f51905f52846148c2565b610ae357611d9a815f51602061715a5f395f51905f5284614b26565b610ae357611db6815f51602061715a5f395f51905f5284614d8a565b610ae357611dd2815f51602061715a5f395f51905f5284615001565b610ae3575f51602061715a5f395f51905f52610935926154ef565b611e0792505f51602061715a5f395f51905f529085615766565b815f611d28565b611e2892505f51602061715a5f395f51905f529085615766565b815f611cf7565b5f51602061721a5f395f51905f523b1561062557611e595f51602061721a5f395f51905f5261059f565b801561066e57611e78815f51602061721a5f395f51905f528085615766565b610ae357611e85826121e1565b6001600160a01b0381165f51602061721a5f395f51905f52141590829082611fbf575b5050610ae357611eb6612256565b6001600160a01b0381165f51602061721a5f395f51905f52141590829082611f9e575b5050610ae357611ef7815f51602061721a5f395f51905f52846143fa565b610ae357611f13815f51602061721a5f395f51905f528461465e565b610ae357611f2f815f51602061721a5f395f51905f52846148c2565b610ae357611f4b815f51602061721a5f395f51905f5284614b26565b610ae357611f67815f51602061721a5f395f51905f5284614d8a565b610ae357611f83815f51602061721a5f395f51905f5284615001565b610ae3575f51602061721a5f395f51905f5261093592615278565b611fb892505f51602061721a5f395f51905f529085615766565b815f611ed9565b611fd992505f51602061721a5f395f51905f529085615766565b815f611ea8565b90803b1561066e57611ff18161059f565b9081156110525761200482828086615766565b61097e57612011836121e1565b6001600160a01b03828116919081168214159084908490836121ce575b505050610b215761203d612256565b6001600160a01b0381168214159084908490836121bb575b505050610b21575f51602061713a5f395f51905f52811415806121aa575b610b21575f51602061719a5f395f51905f5281141580612199575b610b21575f5160206171ba5f395f51905f5281141580612188575b610b21575f51602061717a5f395f51905f5281141580612177575b610b21575f5160206171da5f395f51905f5281141580612166575b610b21575f5160206171fa5f395f51905f5281141580612155575b610b21575f51602061715a5f395f51905f5281141580612144575b610b21575f51602061721a5f395f51905f521415928361213a5750505061093d575f90565b610dd093506154ef565b50612150838386615278565b612115565b50612161838386615001565b6120fa565b50612172838386614d8a565b6120df565b50612183838386614b26565b6120c4565b506121948383866148c2565b6120a9565b506121a583838661465e565b61208e565b506121b68383866143fa565b612073565b6121c6935087615766565b83835f612055565b6121d9935087615766565b83835f61202e565b6040516317fcb39b60e01b81525f9291602090829060049082906001600160a01b03165afa5f918161221a575b506122165750565b9150565b9091506020813d60201161224e575b816122366020938361037a565b810103126102cc576122479061039c565b905f61220e565b3d9150612229565b604051631bb03d7360e31b81525f91906020816004815f51602061723a5f395f51905f525afa5f918161221a57506122165750565b6040516361d027b360e01b81525f91906020816004815f51602061723a5f395f51905f525afa5f918161221a57506122165750565b604051631171aa1d60e21b81525f91906020816004815f51602061723a5f395f51905f525afa5f918161221a57506122165750565b9060038110156108575760051b0190565b5f51602061713a5f395f51905f523b1561066e575f5b6003811061232b575050505f90565b6001600160a01b0361233d82856122f5565b51166123488161597d565b1561239c57612364815f51602061713a5f395f51905f526159b9565b9081156123925790612384915f51602061713a5f395f51905f5285615a04565b61097e576001905b0161231c565b505060019061238c565b5060019061238c565b5f51602061719a5f395f51905f523b1561066e575f5b600381106123ca575050505f90565b6001600160a01b036123dc82856122f5565b51166123e78161597d565b1561243b57612403815f51602061719a5f395f51905f526159b9565b9081156124315790612423915f51602061719a5f395f51905f5285615a04565b61097e576001905b016123bb565b505060019061242b565b5060019061242b565b5f5160206171ba5f395f51905f523b1561066e575f5b60038110612469575050505f90565b6001600160a01b0361247b82856122f5565b51166124868161597d565b156124da576124a2815f5160206171ba5f395f51905f526159b9565b9081156124d057906124c2915f5160206171ba5f395f51905f5285615a04565b61097e576001905b0161245a565b50506001906124ca565b506001906124ca565b5f51602061717a5f395f51905f523b1561066e575f5b60038110612508575050505f90565b6001600160a01b0361251a82856122f5565b51166125258161597d565b1561257957612541815f51602061717a5f395f51905f526159b9565b90811561256f5790612561915f51602061717a5f395f51905f5285615a04565b61097e576001905b016124f9565b5050600190612569565b50600190612569565b5f5160206171da5f395f51905f523b1561066e575f5b600381106125a7575050505f90565b6001600160a01b036125b982856122f5565b51166125c48161597d565b15612618576125e0815f5160206171da5f395f51905f526159b9565b90811561260e5790612600915f5160206171da5f395f51905f5285615a04565b61097e576001905b01612598565b5050600190612608565b50600190612608565b5f5160206171fa5f395f51905f523b1561066e575f5b60038110612646575050505f90565b6001600160a01b0361265882856122f5565b51166126638161597d565b156126b75761267f815f5160206171fa5f395f51905f526159b9565b9081156126ad579061269f915f5160206171fa5f395f51905f5285615a04565b61097e576001905b01612637565b50506001906126a7565b506001906126a7565b5f51602061715a5f395f51905f523b1561066e575f5b600381106126e5575050505f90565b6001600160a01b036126f782856122f5565b51166127028161597d565b156127565761271e815f51602061715a5f395f51905f526159b9565b90811561274c579061273e915f51602061715a5f395f51905f5285615a04565b61097e576001905b016126d6565b5050600190612746565b50600190612746565b5f51602061721a5f395f51905f523b1561066e575f5b60038110612784575050505f90565b6001600160a01b0361279682856122f5565b51166127a18161597d565b156127f5576127bd815f51602061721a5f395f51905f526159b9565b9081156127eb57906127dd915f51602061721a5f395f51905f5285615a04565b61097e576001905b01612775565b50506001906127e5565b506001906127e5565b90803b15611052575f5b6003811061281857505050505f90565b6001600160a01b0361282a82866122f5565b51166128358161597d565b1561286f5761284481846159b9565b9081156128655790612857918486615a04565b610b21576001905b01612808565b505060019061285f565b5060019061285f565b5f51602061713a5f395f51905f523b158015612a16575b61066e576128a95f51602061713a5f395f51905f52615c6e565b906001600160a01b03821615611052575f5b600381106128cb57505050505f90565b6001600160a01b036128dd82866122f5565b51166128e88161597d565b15612a0d57612904815f51602061713a5f395f51905f526159b9565b80156129fc5761291381616ce4565b61292a5f51602061713a5f395f51905f5286616f05565b808210612a0657505b8111156129fc5761296a90612955305f51602061713a5f395f51905f5261062a565b925f51602061713a5f395f51905f5287610ea7565b5f51602061723a5f395f51905f523b156102cc575f61299d91604051809381926330f5c62960e21b83526004830161046a565b0381835f51602061723a5f395f51905f525af190816129ec575b506129c8575b506001905b016128bb565b6129df905f51602061713a5f395f51905f52610721565b600154610b21575f6129bd565b5f6129f69161037a565b5f6129b7565b50506001906129c2565b9050612933565b506001906129c2565b50612a2e5f51602061713a5f395f51905f5282615bf9565b1561288f565b5f51602061719a5f395f51905f523b158015612bd2575b61066e57612a655f51602061719a5f395f51905f52615c6e565b906001600160a01b03821615611052575f5b60038110612a8757505050505f90565b6001600160a01b03612a9982866122f5565b5116612aa48161597d565b15612bc957612ac0815f51602061719a5f395f51905f526159b9565b8015612bb857612acf81616ce4565b612ae65f51602061719a5f395f51905f5286616f05565b808210612bc257505b811115612bb857612b2690612b11305f51602061719a5f395f51905f5261062a565b925f51602061719a5f395f51905f5287610ea7565b5f51602061723a5f395f51905f523b156102cc575f612b5991604051809381926330f5c62960e21b83526004830161046a565b0381835f51602061723a5f395f51905f525af19081612ba8575b50612b84575b506001905b01612a77565b612b9b905f51602061719a5f395f51905f52610721565b600154610b21575f612b79565b5f612bb29161037a565b5f612b73565b5050600190612b7e565b9050612aef565b50600190612b7e565b50612bea5f51602061719a5f395f51905f5282615bf9565b15612a4b565b5f5160206171ba5f395f51905f523b158015612d8e575b61066e57612c215f5160206171ba5f395f51905f52615c6e565b906001600160a01b03821615611052575f5b60038110612c4357505050505f90565b6001600160a01b03612c5582866122f5565b5116612c608161597d565b15612d8557612c7c815f5160206171ba5f395f51905f526159b9565b8015612d7457612c8b81616ce4565b612ca25f5160206171ba5f395f51905f5286616f05565b808210612d7e57505b811115612d7457612ce290612ccd305f5160206171ba5f395f51905f5261062a565b925f5160206171ba5f395f51905f5287610ea7565b5f51602061723a5f395f51905f523b156102cc575f612d1591604051809381926330f5c62960e21b83526004830161046a565b0381835f51602061723a5f395f51905f525af19081612d64575b50612d40575b506001905b01612c33565b612d57905f5160206171ba5f395f51905f52610721565b600154610b21575f612d35565b5f612d6e9161037a565b5f612d2f565b5050600190612d3a565b9050612cab565b50600190612d3a565b50612da65f5160206171ba5f395f51905f5282615bf9565b15612c07565b5f51602061717a5f395f51905f523b158015612f4a575b61066e57612ddd5f51602061717a5f395f51905f52615c6e565b906001600160a01b03821615611052575f5b60038110612dff57505050505f90565b6001600160a01b03612e1182866122f5565b5116612e1c8161597d565b15612f4157612e38815f51602061717a5f395f51905f526159b9565b8015612f3057612e4781616ce4565b612e5e5f51602061717a5f395f51905f5286616f05565b808210612f3a57505b811115612f3057612e9e90612e89305f51602061717a5f395f51905f5261062a565b925f51602061717a5f395f51905f5287610ea7565b5f51602061723a5f395f51905f523b156102cc575f612ed191604051809381926330f5c62960e21b83526004830161046a565b0381835f51602061723a5f395f51905f525af19081612f20575b50612efc575b506001905b01612def565b612f13905f51602061717a5f395f51905f52610721565b600154610b21575f612ef1565b5f612f2a9161037a565b5f612eeb565b5050600190612ef6565b9050612e67565b50600190612ef6565b50612f625f51602061717a5f395f51905f5282615bf9565b15612dc3565b5f5160206171da5f395f51905f523b158015613106575b61066e57612f995f5160206171da5f395f51905f52615c6e565b906001600160a01b03821615611052575f5b60038110612fbb57505050505f90565b6001600160a01b03612fcd82866122f5565b5116612fd88161597d565b156130fd57612ff4815f5160206171da5f395f51905f526159b9565b80156130ec5761300381616ce4565b61301a5f5160206171da5f395f51905f5286616f05565b8082106130f657505b8111156130ec5761305a90613045305f5160206171da5f395f51905f5261062a565b925f5160206171da5f395f51905f5287610ea7565b5f51602061723a5f395f51905f523b156102cc575f61308d91604051809381926330f5c62960e21b83526004830161046a565b0381835f51602061723a5f395f51905f525af190816130dc575b506130b8575b506001905b01612fab565b6130cf905f5160206171da5f395f51905f52610721565b600154610b21575f6130ad565b5f6130e69161037a565b5f6130a7565b50506001906130b2565b9050613023565b506001906130b2565b5061311e5f5160206171da5f395f51905f5282615bf9565b15612f7f565b5f5160206171fa5f395f51905f523b1580156132c2575b61066e576131555f5160206171fa5f395f51905f52615c6e565b906001600160a01b03821615611052575f5b6003811061317757505050505f90565b6001600160a01b0361318982866122f5565b51166131948161597d565b156132b9576131b0815f5160206171fa5f395f51905f526159b9565b80156132a8576131bf81616ce4565b6131d65f5160206171fa5f395f51905f5286616f05565b8082106132b257505b8111156132a85761321690613201305f5160206171fa5f395f51905f5261062a565b925f5160206171fa5f395f51905f5287610ea7565b5f51602061723a5f395f51905f523b156102cc575f61324991604051809381926330f5c62960e21b83526004830161046a565b0381835f51602061723a5f395f51905f525af19081613298575b50613274575b506001905b01613167565b61328b905f5160206171fa5f395f51905f52610721565b600154610b21575f613269565b5f6132a29161037a565b5f613263565b505060019061326e565b90506131df565b5060019061326e565b506132da5f5160206171fa5f395f51905f5282615bf9565b1561313b565b5f51602061715a5f395f51905f523b15801561347e575b61066e576133115f51602061715a5f395f51905f52615c6e565b906001600160a01b03821615611052575f5b6003811061333357505050505f90565b6001600160a01b0361334582866122f5565b51166133508161597d565b156134755761336c815f51602061715a5f395f51905f526159b9565b80156134645761337b81616ce4565b6133925f51602061715a5f395f51905f5286616f05565b80821061346e57505b811115613464576133d2906133bd305f51602061715a5f395f51905f5261062a565b925f51602061715a5f395f51905f5287610ea7565b5f51602061723a5f395f51905f523b156102cc575f61340591604051809381926330f5c62960e21b83526004830161046a565b0381835f51602061723a5f395f51905f525af19081613454575b50613430575b506001905b01613323565b613447905f51602061715a5f395f51905f52610721565b600154610b21575f613425565b5f61345e9161037a565b5f61341f565b505060019061342a565b905061339b565b5060019061342a565b506134965f51602061715a5f395f51905f5282615bf9565b156132f7565b5f51602061721a5f395f51905f523b15801561363a575b61066e576134cd5f51602061721a5f395f51905f52615c6e565b906001600160a01b03821615611052575f5b600381106134ef57505050505f90565b6001600160a01b0361350182866122f5565b511661350c8161597d565b1561363157613528815f51602061721a5f395f51905f526159b9565b80156136205761353781616ce4565b61354e5f51602061721a5f395f51905f5286616f05565b80821061362a57505b8111156136205761358e90613579305f51602061721a5f395f51905f5261062a565b925f51602061721a5f395f51905f5287610ea7565b5f51602061723a5f395f51905f523b156102cc575f6135c191604051809381926330f5c62960e21b83526004830161046a565b0381835f51602061723a5f395f51905f525af19081613610575b506135ec575b506001905b016134df565b613603905f51602061721a5f395f51905f52610721565b600154610b21575f6135e1565b5f61361a9161037a565b5f6135db565b50506001906135e6565b9050613557565b506001906135e6565b506136525f51602061721a5f395f51905f5282615bf9565b156134b3565b90803b1580156137af575b6110525761367081615c6e565b916001600160a01b038316156137a7575f5b600381106136935750505050505f90565b6001600160a01b036136a582876122f5565b51166136b08161597d565b1561379e576136bf81856159b9565b801561378d576136ce81616ce4565b6136d88686616f05565b80821061379757505b81111561378d576136fe906136f6308761062a565b928688610ea7565b5f51602061723a5f395f51905f523b156102cc575f61373191604051809381926330f5c62960e21b83526004830161046a565b0381835f51602061723a5f395f51905f525af1908161377d575b5061375c575b506001905b01613682565b6137669084610721565b600154613773575f613751565b5050505050600190565b5f6137879161037a565b5f61374b565b5050600190613756565b90506136e1565b50600190613756565b505050505f90565b506137ba8183615bf9565b15613663565b9060088110156108575760051b0190565b905f51602061717a5f395f51905f523b158015613a47575b61066e57613804305f51602061717a5f395f51905f5261062a565b80156110525761383a906138275f51602061717a5f395f51905f52949394610674565b5f51602061717a5f395f51905f52615f68565b915f51602061717a5f395f51905f529169d3c21bcecceda100000090305f5b6008811061386c57505050505050505f90565b6001600160701b0361387e82896137c0565b51168015613a3e57613890308761062a565b90613899610df0565b506138a2610e3c565b604080516001600160a01b03881691906138bb8161035e565b5f81525f51602061717a5f395f51905f52602082015261390a8c898c85519586936302ac425360e61b60208601526024850190606082019482526020820152015203601f19810184528361037a565b6040519261391784610312565b8084526020840152604083015260608201526139328261084a565b5261393c8161084a565b506040519161394a8361035e565b82525f51602061717a5f395f51905f52602083015260405161396b8161035e565b5f81525f51602061717a5f395f51905f5260208201526040519261398e84610312565b5f51602061717a5f395f51905f5284526020840152604083015260608201525f51602061723a5f395f51905f523b156102cc575f6139e091604051809381926330f5c62960e21b83526004830161046a565b0381835f51602061723a5f395f51905f525af19081613a2e575b50613a0b575b506001905b01613859565b613a159086610721565b600154613a22575f613a00565b50505050505050600190565b5f613a389161037a565b5f6139fa565b50600190613a05565b50613a5f5f51602061717a5f395f51905f5283615bf9565b156137e9565b905f51602061713a5f395f51905f523b158015613cce575b61066e57613a98305f51602061713a5f395f51905f5261062a565b801561105257613ace90613abb5f51602061713a5f395f51905f52949394610674565b5f51602061713a5f395f51905f52615f68565b915f51602061713a5f395f51905f5291683635c9adc5dea0000090305f5b60088110613aff57505050505050505f90565b6001600160701b03613b1182896137c0565b51168015613cc557613b23308761062a565b90613b2c610df0565b50613b35610e3c565b604080516001600160a01b0388169190613b4e8161035e565b5f81525f51602061713a5f395f51905f526020820152613b9d8c898c85519586936302ac425360e61b60208601526024850190606082019482526020820152015203601f19810184528361037a565b60405192613baa84610312565b808452602084015260408301526060820152613bc58261084a565b52613bcf8161084a565b5060405191613bdd8361035e565b82525f51602061713a5f395f51905f526020830152604051613bfe8161035e565b5f81525f51602061713a5f395f51905f52602082015260405192613c2184610312565b5f51602061713a5f395f51905f5284526020840152604083015260608201525f51602061723a5f395f51905f523b156102cc575f613c7391604051809381926330f5c62960e21b83526004830161046a565b0381835f51602061723a5f395f51905f525af19081613cb5575b50613c9e575b506001905b01613aec565b613ca89086610721565b600154613a22575f613c93565b5f613cbf9161037a565b5f613c8d565b50600190613c98565b50613ce65f51602061713a5f395f51905f5283615bf9565b15613a7d565b905f51602061719a5f395f51905f523b158015613f51575b61066e57613d1f305f51602061719a5f395f51905f5261062a565b801561105257613d5590613d425f51602061719a5f395f51905f52949394610674565b5f51602061719a5f395f51905f52615f68565b915f51602061719a5f395f51905f529164e8d4a5100090305f5b60088110613d8257505050505050505f90565b6001600160701b03613d9482896137c0565b51168015613f4857613da6308761062a565b90613daf610df0565b50613db8610e3c565b604080516001600160a01b0388169190613dd18161035e565b5f81525f51602061719a5f395f51905f526020820152613e208c898c85519586936302ac425360e61b60208601526024850190606082019482526020820152015203601f19810184528361037a565b60405192613e2d84610312565b808452602084015260408301526060820152613e488261084a565b52613e528161084a565b5060405191613e608361035e565b82525f51602061719a5f395f51905f526020830152604051613e818161035e565b5f81525f51602061719a5f395f51905f52602082015260405192613ea484610312565b5f51602061719a5f395f51905f5284526020840152604083015260608201525f51602061723a5f395f51905f523b156102cc575f613ef691604051809381926330f5c62960e21b83526004830161046a565b0381835f51602061723a5f395f51905f525af19081613f38575b50613f21575b506001905b01613d6f565b613f2b9086610721565b600154613a22575f613f16565b5f613f429161037a565b5f613f10565b50600190613f1b565b50613f695f51602061719a5f395f51905f5283615bf9565b15613d04565b905f5160206171ba5f395f51905f523b1580156141d4575b61066e57613fa2305f5160206171ba5f395f51905f5261062a565b801561105257613fd890613fc55f5160206171ba5f395f51905f52949394610674565b5f5160206171ba5f395f51905f52615f68565b915f5160206171ba5f395f51905f529164e8d4a5100090305f5b6008811061400557505050505050505f90565b6001600160701b0361401782896137c0565b511680156141cb57614029308761062a565b90614032610df0565b5061403b610e3c565b604080516001600160a01b03881691906140548161035e565b5f81525f5160206171ba5f395f51905f5260208201526140a38c898c85519586936302ac425360e61b60208601526024850190606082019482526020820152015203601f19810184528361037a565b604051926140b084610312565b8084526020840152604083015260608201526140cb8261084a565b526140d58161084a565b50604051916140e38361035e565b82525f5160206171ba5f395f51905f5260208301526040516141048161035e565b5f81525f5160206171ba5f395f51905f5260208201526040519261412784610312565b5f5160206171ba5f395f51905f5284526020840152604083015260608201525f51602061723a5f395f51905f523b156102cc575f61417991604051809381926330f5c62960e21b83526004830161046a565b0381835f51602061723a5f395f51905f525af190816141bb575b506141a4575b506001905b01613ff2565b6141ae9086610721565b600154613a22575f614199565b5f6141c59161037a565b5f614193565b5060019061419e565b506141ec5f5160206171ba5f395f51905f5283615bf9565b15613f87565b91813b1580156143e9575b6110525761420b308361062a565b80156137a75761422690614220849594610674565b84615f68565b923092683635c9adc5dea00000915f5b6008811061424957505050505050505f90565b6001600160701b0361425b82896137c0565b511680156143e05761426d308761062a565b90614276610df0565b5061427f610e3c565b6040516001600160a01b038681169391908816908b9061429e8161035e565b5f815260208082018790526040516302ac425360e61b9181019190915260248101929092526044820186905260648083018c905282526142df60848361037a565b604051926142ec84610312565b8084526020840152604083015260608201526143078361084a565b526143118261084a565b506040519061431f8261035e565b8152826020820152604051906143348261035e565b5f82528360208301526040519361434a85610312565b84526020840152604083015260608201525f51602061723a5f395f51905f523b156102cc575f61438e91604051809381926330f5c62960e21b83526004830161046a565b0381835f51602061723a5f395f51905f525af190816143d0575b506143b9575b506001905b01614236565b6143c39086610721565b600154613a22575f6143ae565b5f6143da9161037a565b5f6143a8565b506001906143b3565b506143f48284615bf9565b156141fd565b5f51602061713a5f395f51905f523b15908115614654575b8115614634575b5061066e57614435305f51602061713a5f395f51905f5261062a565b80156110525761445590613abb5f51602061713a5f395f51905f52610674565b905f5b6008811061446857505050505f90565b6001600160701b0361447a82856137c0565b51161561462c5761448b308361062a565b6001600160701b0361449d83866137c0565b51166144a7610df0565b506144b0610e3c565b6040516144bc8161035e565b5f81525f51602061713a5f395f51905f5260208083019190915260405163a9059cbb60e01b918101919091523060248201526044810189905261450281606481016111c9565b6040519061450f82610312565b6001600160a01b03881680835260208301819052604083019390935260608201526145398361084a565b526145438261084a565b50604051926145518461035e565b83525f51602061713a5f395f51905f526020840152604051906145738261035e565b5f825260208201526040519261458884610312565b5f51602061713a5f395f51905f5284526020840152604083015260608201525f51602061723a5f395f51905f523b156102cc575f6145da91604051809381926330f5c62960e21b83526004830161046a565b0381835f51602061723a5f395f51905f525af1908161461c575b50614605575b506001905b01614458565b61460f9083610721565b600154610b21575f6145fa565b5f6146269161037a565b5f6145f4565b6001906145ff565b61464d91505f51602061713a5f395f51905f5290615bf9565b155f614419565b823b159150614412565b5f51602061719a5f395f51905f523b159081156148b8575b8115614898575b5061066e57614699305f51602061719a5f395f51905f5261062a565b8015611052576146b990613d425f51602061719a5f395f51905f52610674565b905f5b600881106146cc57505050505f90565b6001600160701b036146de82856137c0565b511615614890576146ef308361062a565b6001600160701b0361470183866137c0565b511661470b610df0565b50614714610e3c565b6040516147208161035e565b5f81525f51602061719a5f395f51905f5260208083019190915260405163a9059cbb60e01b918101919091523060248201526044810189905261476681606481016111c9565b6040519061477382610312565b6001600160a01b038816808352602083018190526040830193909352606082015261479d8361084a565b526147a78261084a565b50604051926147b58461035e565b83525f51602061719a5f395f51905f526020840152604051906147d78261035e565b5f82526020820152604051926147ec84610312565b5f51602061719a5f395f51905f5284526020840152604083015260608201525f51602061723a5f395f51905f523b156102cc575f61483e91604051809381926330f5c62960e21b83526004830161046a565b0381835f51602061723a5f395f51905f525af19081614880575b50614869575b506001905b016146bc565b6148739083610721565b600154610b21575f61485e565b5f61488a9161037a565b5f614858565b600190614863565b6148b191505f51602061719a5f395f51905f5290615bf9565b155f61467d565b823b159150614676565b5f5160206171ba5f395f51905f523b15908115614b1c575b8115614afc575b5061066e576148fd305f5160206171ba5f395f51905f5261062a565b80156110525761491d90613fc55f5160206171ba5f395f51905f52610674565b905f5b6008811061493057505050505f90565b6001600160701b0361494282856137c0565b511615614af457614953308361062a565b6001600160701b0361496583866137c0565b511661496f610df0565b50614978610e3c565b6040516149848161035e565b5f81525f5160206171ba5f395f51905f5260208083019190915260405163a9059cbb60e01b91810191909152306024820152604481018990526149ca81606481016111c9565b604051906149d782610312565b6001600160a01b0388168083526020830181905260408301939093526060820152614a018361084a565b52614a0b8261084a565b5060405192614a198461035e565b83525f5160206171ba5f395f51905f52602084015260405190614a3b8261035e565b5f8252602082015260405192614a5084610312565b5f5160206171ba5f395f51905f5284526020840152604083015260608201525f51602061723a5f395f51905f523b156102cc575f614aa291604051809381926330f5c62960e21b83526004830161046a565b0381835f51602061723a5f395f51905f525af19081614ae4575b50614acd575b506001905b01614920565b614ad79083610721565b600154610b21575f614ac2565b5f614aee9161037a565b5f614abc565b600190614ac7565b614b1591505f5160206171ba5f395f51905f5290615bf9565b155f6148e1565b823b1591506148da565b5f51602061717a5f395f51905f523b15908115614d80575b8115614d60575b5061066e57614b61305f51602061717a5f395f51905f5261062a565b801561105257614b81906138275f51602061717a5f395f51905f52610674565b905f5b60088110614b9457505050505f90565b6001600160701b03614ba682856137c0565b511615614d5857614bb7308361062a565b6001600160701b03614bc983866137c0565b5116614bd3610df0565b50614bdc610e3c565b604051614be88161035e565b5f81525f51602061717a5f395f51905f5260208083019190915260405163a9059cbb60e01b9181019190915230602482015260448101899052614c2e81606481016111c9565b60405190614c3b82610312565b6001600160a01b0388168083526020830181905260408301939093526060820152614c658361084a565b52614c6f8261084a565b5060405192614c7d8461035e565b83525f51602061717a5f395f51905f52602084015260405190614c9f8261035e565b5f8252602082015260405192614cb484610312565b5f51602061717a5f395f51905f5284526020840152604083015260608201525f51602061723a5f395f51905f523b156102cc575f614d0691604051809381926330f5c62960e21b83526004830161046a565b0381835f51602061723a5f395f51905f525af19081614d48575b50614d31575b506001905b01614b84565b614d3b9083610721565b600154610b21575f614d26565b5f614d529161037a565b5f614d20565b600190614d2b565b614d7991505f51602061717a5f395f51905f5290615bf9565b155f614b45565b823b159150614b3e565b5f5160206171da5f395f51905f523b15908115614ff7575b8115614fd7575b5061066e57614dc5305f5160206171da5f395f51905f5261062a565b801561105257614df890614de55f5160206171da5f395f51905f52610674565b5f5160206171da5f395f51905f52615f68565b905f5b60088110614e0b57505050505f90565b6001600160701b03614e1d82856137c0565b511615614fcf57614e2e308361062a565b6001600160701b03614e4083866137c0565b5116614e4a610df0565b50614e53610e3c565b604051614e5f8161035e565b5f81525f5160206171da5f395f51905f5260208083019190915260405163a9059cbb60e01b9181019190915230602482015260448101899052614ea581606481016111c9565b60405190614eb282610312565b6001600160a01b0388168083526020830181905260408301939093526060820152614edc8361084a565b52614ee68261084a565b5060405192614ef48461035e565b83525f5160206171da5f395f51905f52602084015260405190614f168261035e565b5f8252602082015260405192614f2b84610312565b5f5160206171da5f395f51905f5284526020840152604083015260608201525f51602061723a5f395f51905f523b156102cc575f614f7d91604051809381926330f5c62960e21b83526004830161046a565b0381835f51602061723a5f395f51905f525af19081614fbf575b50614fa8575b506001905b01614dfb565b614fb29083610721565b600154610b21575f614f9d565b5f614fc99161037a565b5f614f97565b600190614fa2565b614ff091505f5160206171da5f395f51905f5290615bf9565b155f614da9565b823b159150614da2565b5f5160206171fa5f395f51905f523b1590811561526e575b811561524e575b5061066e5761503c305f5160206171fa5f395f51905f5261062a565b80156110525761506f9061505c5f5160206171fa5f395f51905f52610674565b5f5160206171fa5f395f51905f52615f68565b905f5b6008811061508257505050505f90565b6001600160701b0361509482856137c0565b511615615246576150a5308361062a565b6001600160701b036150b783866137c0565b51166150c1610df0565b506150ca610e3c565b6040516150d68161035e565b5f81525f5160206171fa5f395f51905f5260208083019190915260405163a9059cbb60e01b918101919091523060248201526044810189905261511c81606481016111c9565b6040519061512982610312565b6001600160a01b03881680835260208301819052604083019390935260608201526151538361084a565b5261515d8261084a565b506040519261516b8461035e565b83525f5160206171fa5f395f51905f5260208401526040519061518d8261035e565b5f82526020820152604051926151a284610312565b5f5160206171fa5f395f51905f5284526020840152604083015260608201525f51602061723a5f395f51905f523b156102cc575f6151f491604051809381926330f5c62960e21b83526004830161046a565b0381835f51602061723a5f395f51905f525af19081615236575b5061521f575b506001905b01615072565b6152299083610721565b600154610b21575f615214565b5f6152409161037a565b5f61520e565b600190615219565b61526791505f5160206171fa5f395f51905f5290615bf9565b155f615020565b823b159150615019565b5f51602061715a5f395f51905f523b159081156154e5575b81156154c5575b5061066e576152b3305f51602061715a5f395f51905f5261062a565b8015611052576152e6906152d35f51602061715a5f395f51905f52610674565b5f51602061715a5f395f51905f52615f68565b905f5b600881106152f957505050505f90565b6001600160701b0361530b82856137c0565b5116156154bd5761531c308361062a565b6001600160701b0361532e83866137c0565b5116615338610df0565b50615341610e3c565b60405161534d8161035e565b5f81525f51602061715a5f395f51905f5260208083019190915260405163a9059cbb60e01b918101919091523060248201526044810189905261539381606481016111c9565b604051906153a082610312565b6001600160a01b03881680835260208301819052604083019390935260608201526153ca8361084a565b526153d48261084a565b50604051926153e28461035e565b83525f51602061715a5f395f51905f526020840152604051906154048261035e565b5f825260208201526040519261541984610312565b5f51602061715a5f395f51905f5284526020840152604083015260608201525f51602061723a5f395f51905f523b156102cc575f61546b91604051809381926330f5c62960e21b83526004830161046a565b0381835f51602061723a5f395f51905f525af190816154ad575b50615496575b506001905b016152e9565b6154a09083610721565b600154610b21575f61548b565b5f6154b79161037a565b5f615485565b600190615490565b6154de91505f51602061715a5f395f51905f5290615bf9565b155f615297565b823b159150615290565b5f51602061721a5f395f51905f523b1590811561575c575b811561573c575b5061066e5761552a305f51602061721a5f395f51905f5261062a565b80156110525761555d9061554a5f51602061721a5f395f51905f52610674565b5f51602061721a5f395f51905f52615f68565b905f5b6008811061557057505050505f90565b6001600160701b0361558282856137c0565b51161561573457615593308361062a565b6001600160701b036155a583866137c0565b51166155af610df0565b506155b8610e3c565b6040516155c48161035e565b5f81525f51602061721a5f395f51905f5260208083019190915260405163a9059cbb60e01b918101919091523060248201526044810189905261560a81606481016111c9565b6040519061561782610312565b6001600160a01b03881680835260208301819052604083019390935260608201526156418361084a565b5261564b8261084a565b50604051926156598461035e565b83525f51602061721a5f395f51905f5260208401526040519061567b8261035e565b5f825260208201526040519261569084610312565b5f51602061721a5f395f51905f5284526020840152604083015260608201525f51602061723a5f395f51905f523b156102cc575f6156e291604051809381926330f5c62960e21b83526004830161046a565b0381835f51602061723a5f395f51905f525af19081615724575b5061570d575b506001905b01615560565b6157179083610721565b600154610b21575f615702565b5f61572e9161037a565b5f6156fc565b600190615707565b61575591505f51602061721a5f395f51905f5290615bf9565b155f61550e565b823b159150615507565b9291909283803b15918215615973575b8215615961575b50506110525761578d308461062a565b80156137a7576157a09061422085610674565b915f5b600881106157b45750505050505f90565b6001600160701b036157c682866137c0565b511615615959576157d7308461062a565b6001600160701b036157e983876137c0565b51166157f3610df0565b506157fc610e3c565b6040516001600160a01b038916926158138261035e565b5f8252602080830185905260405163a9059cbb60e01b918101919091523060248201526044810188905261584a81606481016111c9565b6040519061585782610312565b6001600160a01b038a1680835260208301819052604083019490945260608201526158818461084a565b5261588b8361084a565b50604051906158998261035e565b8152836020820152604051916158ae8361035e565b5f83526020830152604051936158c385610312565b84526020840152604083015260608201525f51602061723a5f395f51905f523b156102cc575f61590791604051809381926330f5c62960e21b83526004830161046a565b0381835f51602061723a5f395f51905f525af19081615949575b50615932575b506001905b016157a3565b61593c9084610721565b600154613773575f615927565b5f6159539161037a565b5f615921565b60019061592c565b61596b9250615bf9565b15835f61577d565b833b159250615776565b6001600160a01b031680151590816159ae575b81615999575090565b5f51602061723a5f395f51905f529150141590565b308114159150615990565b803b1580156159f3575b61066e576159d1828261062a565b918215611052576159e191610faf565b90808210156159ee575090565b905090565b506001600160a01b038216156159c3565b929190615a148184848288616b9b565b610b2157615a21846121e1565b6001600160a01b03828116919081168214159081615be5575b5061377357615a47612256565b6001600160a01b0381168214159081615bd1575b50613773575f51602061713a5f395f51905f5281141580615bbf575b613773575f51602061719a5f395f51905f5281141580615bad575b613773575f5160206171ba5f395f51905f5281141580615b9b575b613773575f51602061717a5f395f51905f5281141580615b89575b613773575f5160206171da5f395f51905f5281141580615b77575b613773575f5160206171fa5f395f51905f5281141580615b65575b613773575f51602061715a5f395f51905f5281141580615b53575b613773575f51602061721a5f395f51905f5214159384615b40575b5050505061093d575f90565b615b4a9450616a47565b5f808080615b34565b50615b60848484886168f3565b615b19565b50615b728484848861679f565b615afe565b50615b848484848861664b565b615ae3565b50615b96848484886164f7565b615ac8565b50615ba8848484886163a3565b615aad565b50615bba8484848861624f565b615a92565b50615bcc848484886160fb565b615a77565b615bdf915085858589616b9b565b5f615a5b565b615bf3915085858589616b9b565b5f615a3a565b90803b1561066e57604051630ba408e360e31b81526001600160a01b0391821660048201529160209183916024918391165afa5f9181615c3d57506105ee57505f90565b615c6091925060203d602011615c67575b615c58818361037a565b810190611059565b905f6105e4565b503d615c4e565b604051630a7d2f0d60e31b81526020816004815f51602061723a5f395f51905f525afa80156102c1575f90615f1a575b615cb191506001600160a01b03166121e1565b6001600160a01b0381168015159081615f06575b5080615efc575b6159ee57506001600160a01b03165f51602061713a5f395f51905f5281141580615ee5575b615ed357805f51602061719a5f395f51905f52141580615ebc575b615eaa57805f5160206171ba5f395f51905f52141580615e93575b615e8157805f51602061717a5f395f51905f52141580615e6a575b615e5857805f5160206171da5f395f51905f52141580615e41575b615e2f57805f5160206171fa5f395f51905f52141580615e18575b615e0657805f51602061715a5f395f51905f52141580615def575b615ddd575f51602061721a5f395f51905f52141580615dc6575b615db5575f90565b5f51602061721a5f395f51905f5290565b505f51602061721a5f395f51905f523b1515615dad565b505f51602061715a5f395f51905f5290565b505f51602061715a5f395f51905f523b1515615d93565b505f5160206171fa5f395f51905f5290565b505f5160206171fa5f395f51905f523b1515615d78565b505f5160206171da5f395f51905f5290565b505f5160206171da5f395f51905f523b1515615d5d565b505f51602061717a5f395f51905f5290565b505f51602061717a5f395f51905f523b1515615d42565b505f5160206171ba5f395f51905f5290565b505f5160206171ba5f395f51905f523b1515615d27565b505f51602061719a5f395f51905f5290565b505f51602061719a5f395f51905f523b1515615d0c565b505f51602061713a5f395f51905f5290565b505f51602061713a5f395f51905f523b1515615cf1565b50803b1515615ccc565b6001600160a01b038416141590505f615cc5565b506020813d602011615f4d575b81615f346020938361037a565b810103126102cc57615f48615cb19161039c565b615c9e565b3d9150615f27565b8181029291811591840414171561076557565b604051929190610100615f7b818661037a565b3685378382156160f55750601290803b61608b575b50601260ff821611616083575b60ff615fa99116616ef7565b6001600160701b03615fbe83606484046170ea565b1684526001600160701b03615fd683600a84046170ea565b1660208501526001600160701b03615fee83836170ea565b166040850152600581028115908281046005148217156107655761601a846001600160701b03926170ea565b166060860152600a8202918204600a14171561076557816001600160701b03616047819461607b946170ea565b1660808601528261605b82606481046170ea565b1660a08601528261606f82600a81046170ea565b1660c0860152806170ea565b1660e0830152565b506012615f9d565b60405163313ce56760e01b815290602090829060049082906001600160a01b03165afa5f91816160c4575b5015615f905790505f615f90565b6160e791925060203d6020116160ee575b6160df818361037a565b810190616ede565b905f6160b6565b503d6160d5565b93505050565b5f51602061713a5f395f51905f523b1590811561622f575b506110525761612f305f51602061713a5f395f51905f5261062a565b80156137a75761614f90613abb5f51602061713a5f395f51905f52610674565b925f5b600881106161635750505050505f90565b6001600160701b0361617582876137c0565b51168015616226576161a161618a308661062a565b918487875f51602061713a5f395f51905f5261115a565b5f51602061723a5f395f51905f523b156102cc575f6161d491604051809381926330f5c62960e21b83526004830161046a565b0381835f51602061723a5f395f51905f525af19081616216575b506161ff575b506001905b01616152565b6162099084610721565b600154613773575f6161f4565b5f6162209161037a565b5f6161ee565b506001906161f9565b61624891505f51602061713a5f395f51905f5290615bf9565b155f616113565b5f51602061719a5f395f51905f523b15908115616383575b5061105257616283305f51602061719a5f395f51905f5261062a565b80156137a7576162a390613d425f51602061719a5f395f51905f52610674565b925f5b600881106162b75750505050505f90565b6001600160701b036162c982876137c0565b5116801561637a576162f56162de308661062a565b918487875f51602061719a5f395f51905f5261115a565b5f51602061723a5f395f51905f523b156102cc575f61632891604051809381926330f5c62960e21b83526004830161046a565b0381835f51602061723a5f395f51905f525af1908161636a575b50616353575b506001905b016162a6565b61635d9084610721565b600154613773575f616348565b5f6163749161037a565b5f616342565b5060019061634d565b61639c91505f51602061719a5f395f51905f5290615bf9565b155f616267565b5f5160206171ba5f395f51905f523b159081156164d7575b50611052576163d7305f5160206171ba5f395f51905f5261062a565b80156137a7576163f790613fc55f5160206171ba5f395f51905f52610674565b925f5b6008811061640b5750505050505f90565b6001600160701b0361641d82876137c0565b511680156164ce57616449616432308661062a565b918487875f5160206171ba5f395f51905f5261115a565b5f51602061723a5f395f51905f523b156102cc575f61647c91604051809381926330f5c62960e21b83526004830161046a565b0381835f51602061723a5f395f51905f525af190816164be575b506164a7575b506001905b016163fa565b6164b19084610721565b600154613773575f61649c565b5f6164c89161037a565b5f616496565b506001906164a1565b6164f091505f5160206171ba5f395f51905f5290615bf9565b155f6163bb565b5f51602061717a5f395f51905f523b1590811561662b575b506110525761652b305f51602061717a5f395f51905f5261062a565b80156137a75761654b906138275f51602061717a5f395f51905f52610674565b925f5b6008811061655f5750505050505f90565b6001600160701b0361657182876137c0565b511680156166225761659d616586308661062a565b918487875f51602061717a5f395f51905f5261115a565b5f51602061723a5f395f51905f523b156102cc575f6165d091604051809381926330f5c62960e21b83526004830161046a565b0381835f51602061723a5f395f51905f525af19081616612575b506165fb575b506001905b0161654e565b6166059084610721565b600154613773575f6165f0565b5f61661c9161037a565b5f6165ea565b506001906165f5565b61664491505f51602061717a5f395f51905f5290615bf9565b155f61650f565b5f5160206171da5f395f51905f523b1590811561677f575b506110525761667f305f5160206171da5f395f51905f5261062a565b80156137a75761669f90614de55f5160206171da5f395f51905f52610674565b925f5b600881106166b35750505050505f90565b6001600160701b036166c582876137c0565b51168015616776576166f16166da308661062a565b918487875f5160206171da5f395f51905f5261115a565b5f51602061723a5f395f51905f523b156102cc575f61672491604051809381926330f5c62960e21b83526004830161046a565b0381835f51602061723a5f395f51905f525af19081616766575b5061674f575b506001905b016166a2565b6167599084610721565b600154613773575f616744565b5f6167709161037a565b5f61673e565b50600190616749565b61679891505f5160206171da5f395f51905f5290615bf9565b155f616663565b5f5160206171fa5f395f51905f523b159081156168d3575b50611052576167d3305f5160206171fa5f395f51905f5261062a565b80156137a7576167f39061505c5f5160206171fa5f395f51905f52610674565b925f5b600881106168075750505050505f90565b6001600160701b0361681982876137c0565b511680156168ca5761684561682e308661062a565b918487875f5160206171fa5f395f51905f5261115a565b5f51602061723a5f395f51905f523b156102cc575f61687891604051809381926330f5c62960e21b83526004830161046a565b0381835f51602061723a5f395f51905f525af190816168ba575b506168a3575b506001905b016167f6565b6168ad9084610721565b600154613773575f616898565b5f6168c49161037a565b5f616892565b5060019061689d565b6168ec91505f5160206171fa5f395f51905f5290615bf9565b155f6167b7565b5f51602061715a5f395f51905f523b15908115616a27575b5061105257616927305f51602061715a5f395f51905f5261062a565b80156137a757616947906152d35f51602061715a5f395f51905f52610674565b925f5b6008811061695b5750505050505f90565b6001600160701b0361696d82876137c0565b51168015616a1e57616999616982308661062a565b918487875f51602061715a5f395f51905f5261115a565b5f51602061723a5f395f51905f523b156102cc575f6169cc91604051809381926330f5c62960e21b83526004830161046a565b0381835f51602061723a5f395f51905f525af19081616a0e575b506169f7575b506001905b0161694a565b616a019084610721565b600154613773575f6169ec565b5f616a189161037a565b5f6169e6565b506001906169f1565b616a4091505f51602061715a5f395f51905f5290615bf9565b155f61690b565b5f51602061721a5f395f51905f523b15908115616b7b575b5061105257616a7b305f51602061721a5f395f51905f5261062a565b80156137a757616a9b9061554a5f51602061721a5f395f51905f52610674565b925f5b60088110616aaf5750505050505f90565b6001600160701b03616ac182876137c0565b51168015616b7257616aed616ad6308661062a565b918487875f51602061721a5f395f51905f5261115a565b5f51602061723a5f395f51905f523b156102cc575f616b2091604051809381926330f5c62960e21b83526004830161046a565b0381835f51602061723a5f395f51905f525af19081616b62575b50616b4b575b506001905b01616a9e565b616b559084610721565b600154613773575f616b40565b5f616b6c9161037a565b5f616b3a565b50600190616b45565b616b9491505f51602061721a5f395f51905f5290615bf9565b155f616a5f565b93929391909183803b15918215616cb8575b50506137a757616bbd308461062a565b8015616caf57616bd09061422085610674565b935f5b60088110616be5575050505050505f90565b6001600160701b03616bf782886137c0565b51168015616ca657616c16616c0c308761062a565b918486888a61115a565b5f51602061723a5f395f51905f523b156102cc575f616c4991604051809381926330f5c62960e21b83526004830161046a565b0381835f51602061723a5f395f51905f525af19081616c96575b50616c74575b506001905b01616bd3565b616c7e9085610721565b600154616c8b575f616c69565b505050505050600190565b5f616ca09161037a565b5f616c63565b50600190616c6e565b50505050505f90565b616cc29250615bf9565b15835f616bad565b908160209103126102cc575161ffff811681036102cc5790565b5f5f604051632ed1c48d60e21b81526020816004815f51602061723a5f395f51905f525afa5f9181616ebd575b50616eb5575b5060405163370fb45b60e01b81526020816004815f51602061723a5f395f51905f525afa5f9181616e84575b50616e7c575b50616d52612256565b803b616d87575b509161ffff616d7c9261271094828116838316115f14616d8057505b1690615f55565b0490565b9050616d75565b616d91308261062a565b906040519060c0820182811067ffffffffffffffff82111761032e5760209260c4916040525f81528381019230845261ffff60408301968a8852606084019081528160808501818c16815260a0860192828c1684526040519a8b998a9863a015b63960e01b8a5251151560048a015260018060a01b03905116602489015251604488015251606487015251166084850152511660a483015260018060a01b03165afa5f9181616e48575b5015616d59579250505090565b9091506020813d602011616e74575b81616e646020938361037a565b810103126102cc5751905f616e3b565b3d9150616e57565b90505f616d49565b616ea791925060203d602011616eae575b616e9f818361037a565b810190616cca565b905f616d43565b503d616e95565b91505f616d17565b616ed791925060203d602011616eae57616e9f818361037a565b905f616d11565b908160209103126102cc575160ff811681036102cc5790565b604d811161076557600a0a90565b813b1561066e57604051631382ee3360e21b81525f6020826004815f51602061723a5f395f51905f525afa80925f9161709f575b506001600160701b0392617097575b501680156110525760405163ce25cb4d60e01b81526001600160a01b03938416600482018190525f94909360209183916024918391165afa5f9181617063575b5061705b575b50821561105257616fe291600460206012926040519283809263313ce56760e01b82525afa5f918161703a575b50617032575b50601260ff82161161702a575b60ff16601281036170115750600190615f55565b6c0c9f2c9cd04674edea400000008102908082046c0c9f2c9cd04674edea400000001490151715610765570490565b617023670de0b6b3a764000091616ef7565b0490615f55565b506012616fce565b90505f616fc1565b61705491925060203d6020116160ee576160df818361037a565b905f616fbb565b92505f616f8e565b9091506020813d60201161708f575b8161707f6020938361037a565b810103126102cc5751905f616f88565b3d9150617072565b90505f616f48565b90506020813d6020116170e2575b816170ba6020938361037a565b810103126102cc5751916001600160701b03831683036102cc57916001600160701b03616f39565b3d91506170ad565b80158015617131575b61066e578181111561712a57505b6001600160701b03811161711c575b6001600160701b031690565b506001600160701b03617110565b9050617101565b5081156170f356fe000000000000000000000000c02aaa39b223fe8d0a0e5c4f27ead9083c756cc200000000000000000000000099d8a9c45b2ecb8540fe5a0ba0fc5d5b8043d5e90000000000000000000000006b175474e89094c44da98b954eedeac495271d0f000000000000000000000000a0b86991c6218b36c1d19d4a2e9eb0ce3606eb48000000000000000000000000dac17f958d2ee523a2206206994597c13d831ec70000000000000000000000002260fac5e5542a773aa44fbcfedf7c193bc2c599000000000000000000000000853d955acef822db058eb8505911ed77f175b99e0000000000000000000000005f98805a4e8be255a32880fdec7f6728c6568ba0000000000000000000000000de62e1b0edaa55aac5ffbe21984d321706418024a264697066735822122069c50b82ef2067f7902eb5e62663e7dc118411d37aa8c9e66d6a4b221485cee964736f6c634300081e0033","linkReferences":{}},"methodIdentifiers":{"TARGET()":"cc1f2afa","executeKnownOutputFundedVictimOpportunity(address,address,address,uint256)":"523c5178","executeKnownVictimOpportunity(address,address,address,uint256,uint112)":"1bb7e0d5","executeOnOpportunity()":"3c2448ed","profitAmount()":"5ff972cc","profitToken()":"49343624"},"id":0}