{"abi":[{"type":"constructor","inputs":[],"stateMutability":"nonpayable"},{"type":"function","name":"APE","inputs":[],"outputs":[{"name":"","type":"address","internalType":"address"}],"stateMutability":"view"},{"type":"function","name":"BASE_PERCENTS","inputs":[],"outputs":[{"name":"","type":"uint256","internalType":"uint256"}],"stateMutability":"view"},{"type":"function","name":"BAYC","inputs":[],"outputs":[{"name":"","type":"address","internalType":"address"}],"stateMutability":"view"},{"type":"function","name":"BUYER","inputs":[],"outputs":[{"name":"","type":"address","internalType":"contract OwnershipChangeHelper"}],"stateMutability":"view"},{"type":"function","name":"MAYC","inputs":[],"outputs":[{"name":"","type":"address","internalType":"address"}],"stateMutability":"view"},{"type":"function","name":"TARGET","inputs":[],"outputs":[{"name":"","type":"address","internalType":"address"}],"stateMutability":"view"},{"type":"function","name":"attemptedAsset","inputs":[],"outputs":[{"name":"","type":"address","internalType":"address"}],"stateMutability":"view"},{"type":"function","name":"attemptedTokenId","inputs":[],"outputs":[{"name":"","type":"uint256","internalType":"uint256"}],"stateMutability":"view"},{"type":"function","name":"executeOnOpportunity","inputs":[],"outputs":[],"stateMutability":"nonpayable"},{"type":"function","name":"lastFailure","inputs":[],"outputs":[{"name":"","type":"bytes32","internalType":"bytes32"}],"stateMutability":"view"},{"type":"function","name":"lastStage","inputs":[],"outputs":[{"name":"","type":"uint8","internalType":"enum FlawVerifier.Stage"}],"stateMutability":"view"},{"type":"function","name":"onERC721Received","inputs":[{"name":"","type":"address","internalType":"address"},{"name":"","type":"address","internalType":"address"},{"name":"","type":"uint256","internalType":"uint256"},{"name":"","type":"bytes","internalType":"bytes"}],"outputs":[{"name":"","type":"bytes4","internalType":"bytes4"}],"stateMutability":"pure"},{"type":"function","name":"profitAmount","inputs":[],"outputs":[{"name":"","type":"uint256","internalType":"uint256"}],"stateMutability":"view"},{"type":"function","name":"profitToken","inputs":[],"outputs":[{"name":"","type":"address","internalType":"address"}],"stateMutability":"view"}],"bytecode":{"object":"0x60a080604052346096576103b28181016001600160401b0381118382101760825782916120ee833903905ff080156077576080525f80546001600160a01b031916734d224452801aced8b2f0aebe155379bb5d594381179055604051612053908161009b823960805181818161015c0152611bcd0152f35b6040513d5f823e3d90fd5b634e487b7160e01b5f52604160045260245ffd5b5f80fdfe6080806040526004361015610012575f80fd5b5f3560e01c908163150b7a02146102c4575080631b5d145d146102965780631bd3fc86146102595780633c2448ed1461023f57806349343624146102185780635ff972cc146101fb5780639582b6e5146101d457806396b7f303146101a85780639ab779081461018b578063a8fa298714610147578063ab736f1c14610120578063c183721b146100fe578063c3a5a154146100e15763cc1f2afa146100b6575f80fd5b346100dd575f3660031901126100dd5760206040515f516020611fde5f395f51905f528152f35b5f80fd5b346100dd575f3660031901126100dd576020600454604051908152f35b346100dd575f3660031901126100dd576020604051670de0b6b3a76400008152f35b346100dd575f3660031901126100dd5760206040515f516020611fbe5f395f51905f528152f35b346100dd575f3660031901126100dd576040517f00000000000000000000000000000000000000000000000000000000000000006001600160a01b03168152602090f35b346100dd575f3660031901126100dd576020600354604051908152f35b346100dd575f3660031901126100dd5760025460405160089190911c6001600160a01b03168152602090f35b346100dd575f3660031901126100dd5760206040515f516020611ffe5f395f51905f528152f35b346100dd575f3660031901126100dd576020600154604051908152f35b346100dd575f3660031901126100dd575f546040516001600160a01b039091168152602090f35b346100dd575f3660031901126100dd5761025761035e565b005b346100dd575f3660031901126100dd5760ff600254166040516007821015610282576020918152f35b634e487b7160e01b5f52602160045260245ffd5b346100dd575f3660031901126100dd576020604051734d224452801aced8b2f0aebe155379bb5d5943818152f35b346100dd5760803660031901126100dd576102dd610332565b506102e6610348565b5060643567ffffffffffffffff81116100dd57366023820112156100dd57806004013567ffffffffffffffff81116100dd57369101602401116100dd57630a85bd0160e11b8152602090f35b600435906001600160a01b03821682036100dd57565b602435906001600160a01b03821682036100dd57565b5f80546001600160a01b031916734d224452801aced8b2f0aebe155379bb5d5943811781556001818155600280546001600160a81b031916909117905560038190556004555f516020611fde5f395f51905f523b15610573576103bf61065a565b6103c76106f5565b6103cf61072e565b6103d7610767565b6001600160a01b03841615159390929084610560575b8461054d575b8461053a575b8461052f575b5083610524575b5082610519575b508161050e575b50156104e8576001600160a01b0361042a61065a565b16806104cc575b505f546001600160a01b031661045061044a308361083c565b9161095d565b80156104b2575b6104a0575b5f546104729030906001600160a01b031661083c565b9080821161047e575050565b810390811161048c57600155565b634e487b7160e01b5f52601160045260245ffd5b600660ff19600254161760025561045c565b505f546104c7906001600160a01b03166112fd565b610457565b6bffffffffffffffffffffffff60a01b5f5416175f555f610431565b7f5e8f6d8b0f8a9b219e4e6bf1b8759d473fcddd13cfc4b3497a9a170dadb8db31600455565b90503b15155f610414565b3b151591505f61040d565b3b151592505f610406565b3b151593505f6103ff565b6001600160a01b038416151594506103f9565b6001600160a01b038316151594506103f3565b6001600160a01b038216151594506103ed565b7fc26b4ec9262a637f989f34bbf5c3f4ff37af870d62dc7e97e605ff7beb5d8867600455565b6040810190811067ffffffffffffffff8211176105b557604052565b634e487b7160e01b5f52604160045260245ffd5b6060810190811067ffffffffffffffff8211176105b557604052565b90601f8019910116810190811067ffffffffffffffff8211176105b557604052565b3d15610641573d9067ffffffffffffffff82116105b55760405191610636601f8201601f1916602001846105e5565b82523d5f602084013e565b606090565b51906001600160a01b03821682036100dd57565b5f905f516020611fde5f395f51905f523b156106f0575f80604051602081019063563d6cdd60e11b8252600481526106936024826105e5565b51905f516020611fde5f395f51905f525afa6106ad610607565b90806106e4575b6106bb5750565b9091506020818051810103126100dd576001600160a01b03906106e090602001610646565b1690565b506020815110156106b4565b5f9150565b5f905f516020611fde5f395f51905f523b156106f0575f806040516020810190630e55b3f960e21b8252600481526106936024826105e5565b5f905f516020611fde5f395f51905f523b156106f0575f80604051602081019063e6b2356760e01b8252600481526106936024826105e5565b5f905f516020611fde5f395f51905f523b156106f0575f806040516020810190631ac4815d60e01b8252600481526106936024826105e5565b905f91803b156107da575f80916040516020810190631ac4815d60e01b8252600481526107ce6024826105e5565b51915afa6106ad610607565b505f9150565b905f91803b156107da575f8091604051602081019063e6b2356760e01b8252600481526107ce6024826105e5565b905f91803b156107da575f80916040516020810190630e55b3f960e21b8252600481526107ce6024826105e5565b5f9291813b156108b8575f91829160405160208101916370a0823160e01b835260018060a01b03166024820152602481526108786044826105e5565b51915afa610884610607565b90806108ac575b6108925750565b8051919250602080820192820191909103126100dd575190565b5060208151101561088b565b505f925050565b67ffffffffffffffff81116105b55760051b60200190565b906108e1826108bf565b6108ee60405191826105e5565b82815280926108ff601f19916108bf565b0190602036910137565b8051156109165760200190565b634e487b7160e01b5f52603260045260245ffd5b90602080835192838152019201905f5b8181106109475750505090565b825184526020938401939092019160010161093a565b5f905f516020611fbe5f395f51905f523b156112d35761098a305f516020611fbe5f395f51905f5261083c565b156112a957610999308261083c565b90811561127e57604051632f745c5960e01b81523060048201525f60248201526020816044815f516020611fbe5f395f51905f525afa5f918161124a575b50610a0857505050507f1529682d6dc47bf0eb29e0e9a73d71e4adc1bd38d11f3783229bf5d11ea36fca6004555f90565b9063ffffffff821161121e576001600160e01b0383116111f2576002805460038490556001600160a81b0319167460e4d786628fea6478f785a6d7e704777c86a7c602179055610a9060405163095ea7b360e01b60208201525f516020611fde5f395f51905f5260248201525f19604482015260448152610a8a6064826105e5565b82611dc6565b156110f1575b505f516020611fbe5f395f51905f523b156100dd5760405163a22cb46560e01b81525f516020611fde5f395f51905f526004820152600160248201525f81604481835f516020611fbe5f395f51905f525af180156110e6576110d1575b505f516020611fde5f395f51905f523b156110015760405163d6a584fb60e01b8152670de0b6b3a7640000600482015283908181602481835f516020611fde5f395f51905f525af16110bc575b5050604051610b4e81610599565b606081526020810160608152604091825191610b6a84846105e5565b6001835284610b87601f1986019485366020830137808552610909565b526020958451610b9788826105e5565b8881525f36813782528451610bab816105c9565b5f516020611fbe5f395f51905f528152878101828152868201908a8252875193610bd589866105e5565b600185528a8c5b89811061109b575050885190610bf182610599565b63ffffffff8b1682526001600160e01b03168b820152610c1085610909565b52610c1a84610909565b50875194610c288b876105e5565b8b86525f516020611fde5f395f51905f523b156110975791610c73969391610c868d96948b51998a9762af91e760e31b895260c060048a0152518d60c48a015261010489019061092a565b905187820360c3190160e489015261092a565b92516001600160a01b031660248601525160448501525160648401528281036003190160848401528151808252908a01918a0190845b8b8a8383106110655750505050508181036003190160a4830152835180825290890193890190835b8a82821061102657505050508082930381835f516020611fde5f395f51905f525af1918261100d575b5050610d3e57505050507f89872a57163b46d8984e1a1c31bdbe25a5d3af94d47bc05dd74d9ee14669d62c60045590565b9390919293610d55600360ff196002541617600255565b610d7a845f516020611fbe5f395f51905f525f516020611fde5f395f51905f52611bb0565b1561100557610d91600460ff196002541617600255565b825190610d9e84836105e5565b60018252368683013783610db182610909565b528251610dbe86826105e5565b8281525f516020611fde5f395f51905f523b1561100157908291610e0c855192638ad115eb60e01b84525f516020611fbe5f395f51905f52600485015260606024850152606484019061092a565b828103600319016044840152815180825290880191880190845b8988838310610fd4575050505050818084920381835f516020611fde5f395f51905f525af1610fbc575b5050610e64600560ff196002541617600255565b92610e6e5f6108bf565b91610e7b815193846105e5565b5f8352601f19610e8a5f6108bf565b013683850137610e9a60016108bf565b93610ea7825195866105e5565b60018552601f19610eb860016108bf565b013684870137815192610ecb81856105e5565b868452505f3681378515610fad57610ee284610909565b525b5f516020611fde5f395f51905f523b15610fa957849392610f4c8593610f3a610f28945196879586956305468c7360e41b875260606004880152606487019061092a565b8581036003190160248701529061092a565b8381036003190160448501529061092a565b0381835f516020611fde5f395f51905f525af19182610f99575b5050610f93577f173ebd23c1afe89ff2fdfe77028389c524cfdf6cc911cb4569ff4f0121d7cd1460045590565b50600190565b610fa2916105e5565b5f82610f66565b8480fd5b610fb685610909565b52610ee4565b81610fc6916105e5565b610fd157805f610e50565b80fd5b845180516001600160801b0390811688529083015116828701528897509094019390920191600101610e26565b8280fd5b509250505090565b81611017916105e5565b61102257855f610d0d565b8580fd5b8351805163ffffffff90811689528282015116828901528a01516001600160b81b03168a8801526060909601958c955087945090920191600101610ce4565b8451805163ffffffff1687528201516001600160e01b0316828701528e97508996509094019390920191600101610cbc565b8b80fd5b8a516110a681610599565b5f81525f83820152828289010152018b90610bdc565b816110c6916105e5565b61100157825f610b40565b6110de9193505f906105e5565b5f915f610af3565b6040513d5f823e3d90fd5b61112c60405163095ea7b360e01b60208201525f516020611fde5f395f51905f5260248201525f604482015260448152610a8a6064826105e5565b156111b65760405163095ea7b360e01b60208201525f516020611fde5f395f51905f5260248201525f196044808301919091528152611175916111706064836105e5565b611dc6565b15611180575f610a96565b60405162461bcd60e51b815260206004820152600e60248201526d1054141493d59157d1905253115160921b6044820152606490fd5b60405162461bcd60e51b81526020600482015260146024820152731054141493d59157d49154d15517d1905253115160621b6044820152606490fd5b505050507fbcc2344b0b978330464321192bb2a97f6f88f387551dac40e4e019b97aa3e7a26004555f90565b505050507fe5c822a3b45c3776942baebe888594ce82618c2bd928d9b96c268ad3d4c6513d6004555f90565b9091506020813d602011611276575b81611266602093836105e5565b810103126100dd5751905f6109d7565b3d9150611259565b5050507f4c033b7934120b53cfa63b48163d7537d2786aea932f4f89cf707686f2bb8f906004555f90565b50507f8ccbb3e512ae50e81c048619f44e01fcc861a79f25c79fe8d035e04c2f4655eb6004555f90565b50507f2b2e2acba1185b7b1bb70c6b1b1b88655e1dce7dbb3fb3ed8e2c796d628c5fa16004555f90565b5f905f516020611ffe5f395f51905f523b156112d35761132a305f516020611ffe5f395f51905f5261083c565b15611b7957611339308261083c565b908115611b5057604051632f745c5960e01b8152306004820152602481018490526020816044815f516020611ffe5f395f51905f525afa849181611b1c575b506113a7575050507f1529682d6dc47bf0eb29e0e9a73d71e4adc1bd38d11f3783229bf5d11ea36fca60045590565b9063ffffffff8211611af2576001600160e01b038311611ac8576002805460038490556001600160a81b03191674bc4ca0eda7647a8ab7c2061c2e118a18a936f13d0217905561142960405163095ea7b360e01b60208201525f516020611fde5f395f51905f5260248201525f19604482015260448152610a8a6064826105e5565b15611a3e575b505f516020611ffe5f395f51905f523b156110015760405163a22cb46560e01b81525f516020611fde5f395f51905f526004820152600160248201528381604481835f516020611ffe5f395f51905f525af18015611a33578490611a1c575b50505f516020611fde5f395f51905f523b156110015760405163d6a584fb60e01b8152670de0b6b3a76400006004820152838082602481835f516020611fde5f395f51905f525af1611a05575b50506040516114e981610599565b60608152602081016060815260409182519161150584846105e5565b6001835284611522601f1986019485366020830137808552610909565b52602095845161153288826105e5565b8881525f36813782528451611546816105c9565b5f516020611ffe5f395f51905f528152878101828152868201908a825287519361157089866105e5565b600185528a8c5b8981106119e457505088519061158c82610599565b63ffffffff8b1682526001600160e01b03168b8201526115ab85610909565b526115b584610909565b508751946115c38b876105e5565b8b86525f516020611fde5f395f51905f523b1561109757906116208c97969594939261160d8b519862af91e760e31b8a5260c060048b0152518c60c48b01526101048a019061092a565b905188820360c3190160e48a015261092a565b92516001600160a01b03166024870152516044860152516064850152838103600319016084850152815180825290890191890190855b8a898383106119b55750505050508281036003190160a4840152815180825290880191880190845b898282106119795750505050818084920381835f516020611fde5f395f51905f525af19182611962575b50506116d957505050507f89872a57163b46d8984e1a1c31bdbe25a5d3af94d47bc05dd74d9ee14669d62c60045590565b6116eb600360ff196002541617600255565b611710835f516020611ffe5f395f51905f525f516020611fde5f395f51905f52611bb0565b1561195b57611727600460ff196002541617600255565b81519061173483836105e5565b6001825236858301378261174782610909565b52815161175485826105e5565b8581525f516020611fde5f395f51905f523b15611022578251638ad115eb60e01b81525f516020611ffe5f395f51905f5260048201526060602482015291869083906117a490606483019061092a565b818103600319016044830152835180825290880193880190835b898883831061192a5750505050508082930381835f516020611fde5f395f51905f525af161190f575b50506117fb600560ff196002541617600255565b600192611807846108bf565b91611814815193846105e5565b848352601f19611823866108bf565b01368385013785156119045761183c60ff865b166108d7565b9381519261184a81856105e5565b878452505f36813761185b84610909565b525f516020611fde5f395f51905f523b15611022578593926118a08593610f3a610f28945196879586956305468c7360e41b875260606004880152606487019061092a565b0381835f516020611fde5f395f51905f525af191826118ed575b50506118e857507f173ebd23c1afe89ff2fdfe77028389c524cfdf6cc911cb4569ff4f0121d7cd1460045590565b905090565b6118f6916105e5565b825f12611001575f836118ba565b61183c60ff5f611836565b611918916105e5565b835f12611926575f846117e7565b8380fd5b91945091945082956001600160801b03836001955182815116845201511683820152019401910190889285926117be565b5050505090565b61196b916105e5565b855f12611022575f866116a8565b8351805163ffffffff90811687528282015116828701528901516001600160b81b0316898601528b96506060909401939092019160010161167e565b8451805163ffffffff1687528201516001600160e01b0316828701528d98509094019390920191600101611656565b8a516119ef81610599565b5f81525f83820152828289010152018b90611577565b611a0e916105e5565b825f12611001575f836114db565b611a25916105e5565b825f12611001575f8361148e565b6040513d86823e3d90fd5b611a7960405163095ea7b360e01b60208201525f516020611fde5f395f51905f52602482015285604482015260448152610a8a6064826105e5565b156111b65760405163095ea7b360e01b60208201525f516020611fde5f395f51905f5260248201525f196044808301919091528152611abd916111706064836105e5565b15611180575f61142f565b5050507fbcc2344b0b978330464321192bb2a97f6f88f387551dac40e4e019b97aa3e7a260045590565b5050507fe5c822a3b45c3776942baebe888594ce82618c2bd928d9b96c268ad3d4c6513d60045590565b9091506020813d602011611b48575b81611b38602093836105e5565b810103126100dd5751905f611378565b3d9150611b2b565b50507f4c033b7934120b53cfa63b48163d7537d2786aea932f4f89cf707686f2bb8f9060045590565b50507f3bfc35d16468ebdc4b9707682c0b03eadf2e12bdbe503dc3c78c7167fb8843296004555f90565b519081151582036100dd57565b5f9291611bbc91611e2e565b91813b158015611dbe575b611d92577f00000000000000000000000000000000000000000000000000000000000000006001600160a01b03169280611c01858561083c565b10611c88575b50823b156100dd57604051637a57951d60e01b81526001600160a01b039290921660048301526024820152905f908290604490829084905af19081611c73575b50610f93577f2bc541d0946950a278ae44e0ec32abdd7d20c06c4a2bdeca87f46772f37e79fd60045590565b611c809192505f906105e5565b5f905f611c47565b80611c93308561083c565b10611d655760405163a9059cbb60e01b81526001600160a01b03851660048201526024810191909152602081806044810103815f6001600160a01b0388165af19081156110e6575f91611d2b575b5015611ced575f611c07565b60405162461bcd60e51b8152602060048201526016602482015275141513d2d15397d514905394d1915497d1905253115160521b6044820152606490fd5b90506020813d602011611d5d575b81611d46602093836105e5565b810103126100dd57611d5790611ba3565b5f611ce1565b3d9150611d39565b50505050507f7e2825edfb46c662d6fa398dd9fe20e916ea8220a40ab6cbb58da9e25e349a156004555f90565b505050507fe01c7c93be3cb4ede7cb9cb612488b0e4c4d772af4132a37cac163569feecef76004555f90565b508215611bc7565b803b15611e2857815f92918360208194519301915af1611de4610607565b9015611e235780518015611e1c576020811015611e015750505f90565b81602091810103126100dd576020611e199101611ba3565b90565b5050600190565b505f90565b50505f90565b6001600160a01b03909116905f5f516020611ffe5f395f51905f528303611f635750611e626001600160a01b0382166107e0565b803b611f46575b50611e7c906001600160a01b031661080e565b90813b15611f3e575f918291604051602081019163621a89c360e11b8352602482015260248152611eae6044826105e5565b51915afa90611ebb610607565b91158015611f33575b611f2c5760a0828051810103126100dd57611ee160208301610646565b50611eee60408301610646565b90611f0060a060608501519401611ba3565b6001600160a01b039092169291158015611f23575b611f1b57565b5f9250829150565b50823b15611f15565b5f91508190565b5060a0825110611ec4565b50505f905f90565b611f4f81611f8f565b9081611f5b5750611e69565b939092509050565b5f516020611fbe5f395f51905f528303611e625750611f8a6001600160a01b0382166107a0565b611e62565b905f91803b156107da575f8091604051602081019063252e26ff60e11b8252600481526108786024826105e556fe00000000000000000000000060e4d786628fea6478f785a6d7e704777c86a7c600000000000000000000000085018cf6f53c8bbd03c3137e71f4fca226cda92c000000000000000000000000bc4ca0eda7647a8ab7c2061c2e118a18a936f13da2646970667358221220d80187d0fdb6af02096a4d0e19a7066c1ffb7275eff3ce7552bc96bf704e4f4c64736f6c634300081e003360808060405234601557610398908161001a8239f35b5f80fdfe6080806040526004361015610012575f80fd5b5f905f3560e01c908163150b7a0214610292575080637a57951d146101aa5763b8dc491b1461003f575f80fd5b346101a75760403660031901126101a757610058610300565b610060610316565b6040516370a0823160e01b81523060048201526001600160a01b039092169190602082602481865afa91821561019c578492610163575b5090604460209285604051958694859363a9059cbb60e01b855260018060a01b0316600485015260248401525af1908115610158578291610119575b50156100dc5780f35b60405162461bcd60e51b815260206004820152601560248201527414d5d1515417d514905394d1915497d19052531151605a1b6044820152606490fd5b90506020813d602011610150575b816101346020938361032c565b8101031261014c5751801515810361014c575f6100d3565b5080fd5b3d9150610127565b6040513d84823e3d90fd5b91506020823d602011610194575b8161017e6020938361032c565b81010312610190579051906044610097565b8380fd5b3d9150610171565b6040513d86823e3d90fd5b80fd5b503461027a57604036600319011261027a576101c4610300565b60408051916101d3828461032c565b600183526020830190601f19830136833783511561027e5760243582526001600160a01b031690813b1561027a57825163e6c6a2ad60e01b815260206004820152935160248501819052849160448301915f5b8181106102615750505091815f81819503925af1908115610258575061024a575080f35b61025691505f9061032c565b005b513d5f823e3d90fd5b8251845287945060209384019390920191600101610226565b5f80fd5b634e487b7160e01b5f52603260045260245ffd5b3461027a57608036600319011261027a576102ab610300565b506102b4610316565b5060643567ffffffffffffffff811161027a573660238201121561027a57806004013567ffffffffffffffff811161027a573691016024011161027a57630a85bd0160e11b8152602090f35b600435906001600160a01b038216820361027a57565b602435906001600160a01b038216820361027a57565b90601f8019910116810190811067ffffffffffffffff82111761034e57604052565b634e487b7160e01b5f52604160045260245ffdfea26469706673582212204cc8caf27bf01213bf2299630cd86c1d909121ac6bf93b9f8799ae6a288c38ec64736f6c634300081e0033","linkReferences":{}},"methodIdentifiers":{"APE()":"1b5d145d","BASE_PERCENTS()":"c183721b","BAYC()":"9582b6e5","BUYER()":"a8fa2987","MAYC()":"ab736f1c","TARGET()":"cc1f2afa","attemptedAsset()":"96b7f303","attemptedTokenId()":"9ab77908","executeOnOpportunity()":"3c2448ed","lastFailure()":"c3a5a154","lastStage()":"1bd3fc86","onERC721Received(address,address,uint256,bytes)":"150b7a02","profitAmount()":"5ff972cc","profitToken()":"49343624"},"id":0}