{"abi":[{"type":"function","name":"onERC721Received","inputs":[{"name":"","type":"address","internalType":"address"},{"name":"","type":"address","internalType":"address"},{"name":"","type":"uint256","internalType":"uint256"},{"name":"","type":"bytes","internalType":"bytes"}],"outputs":[{"name":"","type":"bytes4","internalType":"bytes4"}],"stateMutability":"pure"},{"type":"function","name":"specificTrade","inputs":[{"name":"pToken","type":"address","internalType":"address"},{"name":"nftId","type":"uint256","internalType":"uint256"}],"outputs":[],"stateMutability":"nonpayable"},{"type":"function","name":"sweep","inputs":[{"name":"token","type":"address","internalType":"address"},{"name":"to","type":"address","internalType":"address"}],"outputs":[],"stateMutability":"nonpayable"}],"bytecode":{"object":"0x60808060405234601557610398908161001a8239f35b5f80fdfe6080806040526004361015610012575f80fd5b5f905f3560e01c908163150b7a0214610292575080637a57951d146101aa5763b8dc491b1461003f575f80fd5b346101a75760403660031901126101a757610058610300565b610060610316565b6040516370a0823160e01b81523060048201526001600160a01b039092169190602082602481865afa91821561019c578492610163575b5090604460209285604051958694859363a9059cbb60e01b855260018060a01b0316600485015260248401525af1908115610158578291610119575b50156100dc5780f35b60405162461bcd60e51b815260206004820152601560248201527414d5d1515417d514905394d1915497d19052531151605a1b6044820152606490fd5b90506020813d602011610150575b816101346020938361032c565b8101031261014c5751801515810361014c575f6100d3565b5080fd5b3d9150610127565b6040513d84823e3d90fd5b91506020823d602011610194575b8161017e6020938361032c565b81010312610190579051906044610097565b8380fd5b3d9150610171565b6040513d86823e3d90fd5b80fd5b503461027a57604036600319011261027a576101c4610300565b60408051916101d3828461032c565b600183526020830190601f19830136833783511561027e5760243582526001600160a01b031690813b1561027a57825163e6c6a2ad60e01b815260206004820152935160248501819052849160448301915f5b8181106102615750505091815f81819503925af1908115610258575061024a575080f35b61025691505f9061032c565b005b513d5f823e3d90fd5b8251845287945060209384019390920191600101610226565b5f80fd5b634e487b7160e01b5f52603260045260245ffd5b3461027a57608036600319011261027a576102ab610300565b506102b4610316565b5060643567ffffffffffffffff811161027a573660238201121561027a57806004013567ffffffffffffffff811161027a573691016024011161027a57630a85bd0160e11b8152602090f35b600435906001600160a01b038216820361027a57565b602435906001600160a01b038216820361027a57565b90601f8019910116810190811067ffffffffffffffff82111761034e57604052565b634e487b7160e01b5f52604160045260245ffdfea26469706673582212204cc8caf27bf01213bf2299630cd86c1d909121ac6bf93b9f8799ae6a288c38ec64736f6c634300081e0033","linkReferences":{}},"methodIdentifiers":{"onERC721Received(address,address,uint256,bytes)":"150b7a02","specificTrade(address,uint256)":"7a57951d","sweep(address,address)":"b8dc491b"},"id":0}