{"abi":[{"type":"constructor","inputs":[],"stateMutability":"payable"},{"type":"receive","stateMutability":"payable"},{"type":"function","name":"DEMO_DONATION","inputs":[],"outputs":[{"name":"","type":"uint256","internalType":"uint256"}],"stateMutability":"view"},{"type":"function","name":"LIVE_TARGET","inputs":[],"outputs":[{"name":"","type":"address","internalType":"address"}],"stateMutability":"view"},{"type":"function","name":"REQUIRED_UPSIDE","inputs":[],"outputs":[{"name":"","type":"uint256","internalType":"uint256"}],"stateMutability":"view"},{"type":"function","name":"donateForced","inputs":[],"outputs":[],"stateMutability":"payable"},{"type":"function","name":"executeOnOpportunity","inputs":[],"outputs":[],"stateMutability":"nonpayable"},{"type":"function","name":"firstPostDonationRevertHash","inputs":[],"outputs":[{"name":"","type":"bytes32","internalType":"bytes32"}],"stateMutability":"view"},{"type":"function","name":"hypothesisValidated","inputs":[],"outputs":[{"name":"","type":"bool","internalType":"bool"}],"stateMutability":"view"},{"type":"function","name":"lastDonation","inputs":[],"outputs":[{"name":"","type":"uint256","internalType":"uint256"}],"stateMutability":"view"},{"type":"function","name":"path0DonationObserved","inputs":[],"outputs":[{"name":"","type":"bool","internalType":"bool"}],"stateMutability":"view"},{"type":"function","name":"path1SnapshotObserved","inputs":[],"outputs":[{"name":"","type":"bool","internalType":"bool"}],"stateMutability":"view"},{"type":"function","name":"path2ThresholdRevertObserved","inputs":[],"outputs":[{"name":"","type":"bool","internalType":"bool"}],"stateMutability":"view"},{"type":"function","name":"preDonationRevertHash","inputs":[],"outputs":[{"name":"","type":"bytes32","internalType":"bytes32"}],"stateMutability":"view"},{"type":"function","name":"profitAmount","inputs":[],"outputs":[{"name":"","type":"uint256","internalType":"uint256"}],"stateMutability":"view"},{"type":"function","name":"profitToken","inputs":[],"outputs":[{"name":"","type":"address","internalType":"address"}],"stateMutability":"view"},{"type":"function","name":"requiredBalanceAfterDonation","inputs":[],"outputs":[{"name":"","type":"uint256","internalType":"uint256"}],"stateMutability":"view"},{"type":"function","name":"secondPostDonationRevertHash","inputs":[],"outputs":[{"name":"","type":"bytes32","internalType":"bytes32"}],"stateMutability":"view"},{"type":"function","name":"targetBalanceAfterDonation","inputs":[],"outputs":[{"name":"","type":"uint256","internalType":"uint256"}],"stateMutability":"view"},{"type":"function","name":"targetBalanceAfterFirstPostProbe","inputs":[],"outputs":[{"name":"","type":"uint256","internalType":"uint256"}],"stateMutability":"view"},{"type":"function","name":"targetBalanceAfterSecondPostProbe","inputs":[],"outputs":[{"name":"","type":"uint256","internalType":"uint256"}],"stateMutability":"view"},{"type":"function","name":"targetBalanceBefore","inputs":[],"outputs":[{"name":"","type":"uint256","internalType":"uint256"}],"stateMutability":"view"},{"type":"function","name":"usedForceSendPath","inputs":[],"outputs":[{"name":"","type":"bool","internalType":"bool"}],"stateMutability":"view"},{"type":"function","name":"verdict","inputs":[],"outputs":[{"name":"","type":"uint8","internalType":"enum FlawVerifier.Verdict"}],"stateMutability":"view"},{"type":"function","name":"witnessReservoir","inputs":[],"outputs":[{"name":"","type":"address","internalType":"address"}],"stateMutability":"view"},{"type":"function","name":"witnessSink","inputs":[],"outputs":[{"name":"","type":"address","internalType":"address"}],"stateMutability":"view"},{"type":"function","name":"witnessTarget","inputs":[],"outputs":[{"name":"","type":"address","internalType":"address"}],"stateMutability":"view"}],"bytecode":{"object":"0x60806040527376ea342bc038d665e8a116392c82552d2605eda1600a5f6101000a81548173ffffffffffffffffffffffffffffffffffffffff021916908373ffffffffffffffffffffffffffffffffffffffff16021790555030600b5f6101000a81548173ffffffffffffffffffffffffffffffffffffffff021916908373ffffffffffffffffffffffffffffffffffffffff1602179055506112a6806100a55f395ff3fe608060405260043610610169575f3560e01c806361520510116100d0578063afa0e61011610089578063c897200711610063578063c8972007146104b2578063dd68d66d146104dc578063e29c97ee14610506578063e62f59961461053057610170565b8063afa0e61014610434578063b123df8e1461045e578063b39aa5121461048857610170565b80636152051014610338578063661a5611146103625780636aba253c1461038c578063740ae47b146103b65780637eda7843146103e05780639496282f1461040a57610170565b80633bfde1a1116101225780633bfde1a1146102705780633c2448ed1461027a578063463defd11461029057806349343624146102ba5780634ab3775a146102e45780635ff972cc1461030e57610170565b80630205e73a1461017457806308641e4c1461019e578063105e5a2d146101c8578063262a24d5146101f257806327b0bf421461021c5780632f7766a31461024657610170565b3661017057005b5f5ffd5b34801561017f575f5ffd5b5061018861055a565b6040516101959190610f7d565b60405180910390f35b3480156101a9575f5ffd5b506101b261057f565b6040516101bf9190610fae565b60405180910390f35b3480156101d3575f5ffd5b506101dc610585565b6040516101e99190610fe1565b60405180910390f35b3480156101fd575f5ffd5b50610206610597565b6040516102139190610f7d565b60405180910390f35b348015610227575f5ffd5b506102306105bc565b60405161023d9190611012565b60405180910390f35b348015610251575f5ffd5b5061025a6105c2565b6040516102679190611012565b60405180910390f35b6102786105ce565b005b348015610285575f5ffd5b5061028e6105e9565b005b34801561029b575f5ffd5b506102a4610a27565b6040516102b19190610fe1565b60405180910390f35b3480156102c5575f5ffd5b506102ce610a39565b6040516102db9190610f7d565b60405180910390f35b3480156102ef575f5ffd5b506102f8610a61565b6040516103059190610fe1565b60405180910390f35b348015610319575f5ffd5b50610322610a73565b60405161032f9190611012565b60405180910390f35b348015610343575f5ffd5b5061034c610a7c565b6040516103599190611012565b60405180910390f35b34801561036d575f5ffd5b50610376610a88565b6040516103839190611012565b60405180910390f35b348015610397575f5ffd5b506103a0610a8e565b6040516103ad919061109e565b60405180910390f35b3480156103c1575f5ffd5b506103ca610a9f565b6040516103d79190611012565b60405180910390f35b3480156103eb575f5ffd5b506103f4610aa5565b6040516104019190610fae565b60405180910390f35b348015610415575f5ffd5b5061041e610aab565b60405161042b9190610f7d565b60405180910390f35b34801561043f575f5ffd5b50610448610ad0565b6040516104559190611012565b60405180910390f35b348015610469575f5ffd5b50610472610ad6565b60405161047f9190610fe1565b60405180910390f35b348015610493575f5ffd5b5061049c610ae8565b6040516104a99190610fae565b60405180910390f35b3480156104bd575f5ffd5b506104c6610aee565b6040516104d39190610fe1565b60405180910390f35b3480156104e7575f5ffd5b506104f0610b00565b6040516104fd9190611012565b60405180910390f35b348015610511575f5ffd5b5061051a610b06565b6040516105279190611012565b60405180910390f35b34801561053b575f5ffd5b50610544610b0c565b6040516105519190610f7d565b60405180910390f35b600b5f9054906101000a900473ffffffffffffffffffffffffffffffffffffffff1681565b60075481565b5f60019054906101000a900460ff1681565b600a5f9054906101000a900473ffffffffffffffffffffffffffffffffffffffff1681565b60045481565b67016345785d8a000181565b5f3490505f81036105dd574790505b6105e681610b24565b50565b6105f1610c3a565b7376ea342bc038d665e8a116392c82552d2605eda1600a5f6101000a81548173ffffffffffffffffffffffffffffffffffffffff021916908373ffffffffffffffffffffffffffffffffffffffff16021790555030600b5f6101000a81548173ffffffffffffffffffffffffffffffffffffffff021916908373ffffffffffffffffffffffffffffffffffffffff1602179055505f5f61068f610e41565b91509150816106a75780805190602001206007819055505b7376ea342bc038d665e8a116392c82552d2605eda173ffffffffffffffffffffffffffffffffffffffff16316002819055505f4790505f810361075c5760035f5f6101000a81548160ff021916908360038111156107085761070761102b565b5b02179055505f600d5f6101000a81548173ffffffffffffffffffffffffffffffffffffffff021916908373ffffffffffffffffffffffffffffffffffffffff1602179055505f600e81905550505050610a25565b61076581610b24565b67016345785d8a000060035461077b91906110e4565b6004819055505f5f61078b610e41565b915091507376ea342bc038d665e8a116392c82552d2605eda173ffffffffffffffffffffffffffffffffffffffff1631600581905550816107d55780805190602001206008819055505b5f5f6107df610e41565b915091507376ea342bc038d665e8a116392c82552d2605eda173ffffffffffffffffffffffffffffffffffffffff1631600681905550816108295780805190602001206009819055505b5f60029054906101000a900460ff1680156108475750600354600554145b80156108565750600354600654145b5f60036101000a81548160ff0219169083151502179055505f60039054906101000a900460ff168015610887575083155b8015610891575081155b80156108a05750600954600854145b80156108b057505f5f1b60085414155b80156108c0575060085460075414155b5f60046101000a81548160ff0219169083151502179055505f60029054906101000a900460ff1680156108fe57505f60039054906101000a900460ff165b801561091557505f60049054906101000a900460ff165b5f60056101000a81548160ff0219169083151502179055505f60059054906101000a900460ff161561096f5760015f5f6101000a81548160ff021916908360038111156109655761096461102b565b5b02179055506109d6565b83806109785750815b156109ab5760025f5f6101000a81548160ff021916908360038111156109a1576109a061102b565b5b02179055506109d5565b60035f5f6101000a81548160ff021916908360038111156109cf576109ce61102b565b5b02179055505b5b5f600d5f6101000a81548173ffffffffffffffffffffffffffffffffffffffff021916908373ffffffffffffffffffffffffffffffffffffffff1602179055505f600e81905550505050505050505b565b5f60059054906101000a900460ff1681565b5f600d5f9054906101000a900473ffffffffffffffffffffffffffffffffffffffff16905090565b5f60049054906101000a900460ff1681565b5f600e54905090565b67016345785d8a000081565b60015481565b5f5f9054906101000a900460ff1681565b60055481565b60085481565b600c5f9054906101000a900473ffffffffffffffffffffffffffffffffffffffff1681565b60035481565b5f60039054906101000a900460ff1681565b60095481565b5f60029054906101000a900460ff1681565b60065481565b60025481565b7376ea342bc038d665e8a116392c82552d2605eda181565b5f810315610c37578060018190555060015f60016101000a81548160ff0219169083151502179055505f817376ea342bc038d665e8a116392c82552d2605eda1604051610b7090610f32565b610b7a9190611137565b6040518091039082f0905080158015610b95573d5f5f3e3d5ffd5b50905080600c5f6101000a81548173ffffffffffffffffffffffffffffffffffffffff021916908373ffffffffffffffffffffffffffffffffffffffff1602179055507376ea342bc038d665e8a116392c82552d2605eda173ffffffffffffffffffffffffffffffffffffffff163160038190555081600254610c1891906110e4565b60035410155f60026101000a81548160ff021916908315150217905550505b50565b5f5f5f6101000a81548160ff02191690836003811115610c5d57610c5c61102b565b5b02179055505f5f60016101000a81548160ff0219169083151502179055505f5f60026101000a81548160ff0219169083151502179055505f5f60036101000a81548160ff0219169083151502179055505f5f60046101000a81548160ff0219169083151502179055505f5f60056101000a81548160ff0219169083151502179055505f6001819055505f6002819055505f6003819055505f6004819055505f6005819055505f6006819055505f5f1b6007819055505f5f1b6008819055505f5f1b6009819055507376ea342bc038d665e8a116392c82552d2605eda1600a5f6101000a81548173ffffffffffffffffffffffffffffffffffffffff021916908373ffffffffffffffffffffffffffffffffffffffff16021790555030600b5f6101000a81548173ffffffffffffffffffffffffffffffffffffffff021916908373ffffffffffffffffffffffffffffffffffffffff1602179055505f600c5f6101000a81548173ffffffffffffffffffffffffffffffffffffffff021916908373ffffffffffffffffffffffffffffffffffffffff1602179055505f600d5f6101000a81548173ffffffffffffffffffffffffffffffffffffffff021916908373ffffffffffffffffffffffffffffffffffffffff1602179055505f600e81905550565b5f60607376ea342bc038d665e8a116392c82552d2605eda173ffffffffffffffffffffffffffffffffffffffff16633c2448ed60e01b604051602401604051602081830303815290604052907bffffffffffffffffffffffffffffffffffffffffffffffffffffffff19166020820180517bffffffffffffffffffffffffffffffffffffffffffffffffffffffff8381831617835250505050604051610ee791906111a2565b5f604051808303815f865af19150503d805f8114610f20576040519150601f19603f3d011682016040523d82523d5f602084013e610f25565b606091505b5080925081935050509091565b60b8806111b983390190565b5f73ffffffffffffffffffffffffffffffffffffffff82169050919050565b5f610f6782610f3e565b9050919050565b610f7781610f5d565b82525050565b5f602082019050610f905f830184610f6e565b92915050565b5f819050919050565b610fa881610f96565b82525050565b5f602082019050610fc15f830184610f9f565b92915050565b5f8115159050919050565b610fdb81610fc7565b82525050565b5f602082019050610ff45f830184610fd2565b92915050565b5f819050919050565b61100c81610ffa565b82525050565b5f6020820190506110255f830184611003565b92915050565b7f4e487b71000000000000000000000000000000000000000000000000000000005f52602160045260245ffd5b600481106110695761106861102b565b5b50565b5f81905061107982611058565b919050565b5f6110888261106c565b9050919050565b6110988161107e565b82525050565b5f6020820190506110b15f83018461108f565b92915050565b7f4e487b71000000000000000000000000000000000000000000000000000000005f52601160045260245ffd5b5f6110ee82610ffa565b91506110f983610ffa565b9250828201905080821115611111576111106110b7565b5b92915050565b5f61112182610f3e565b9050919050565b61113181611117565b82525050565b5f60208201905061114a5f830184611128565b92915050565b5f81519050919050565b5f81905092915050565b8281835e5f83830152505050565b5f61117c82611150565b611186818561115a565b9350611196818560208601611164565b80840191505092915050565b5f6111ad8284611172565b91508190509291505056fe608060405260405160b838038060b88339818101604052810190602191906091565b8073ffffffffffffffffffffffffffffffffffffffff16ff5b5f5ffd5b5f73ffffffffffffffffffffffffffffffffffffffff82169050919050565b5f606582603e565b9050919050565b607381605d565b8114607c575f5ffd5b50565b5f81519050608b81606c565b92915050565b5f6020828403121560a35760a2603a565b5b5f60ae84828501607f565b9150509291505056fea2646970667358221220146484fdcc4f5885e412f2e97771742daa24b30093f97727852d36c3f55e9ad064736f6c634300081e0033","linkReferences":{}},"methodIdentifiers":{"DEMO_DONATION()":"2f7766a3","LIVE_TARGET()":"e62f5996","REQUIRED_UPSIDE()":"61520510","donateForced()":"3bfde1a1","executeOnOpportunity()":"3c2448ed","firstPostDonationRevertHash()":"7eda7843","hypothesisValidated()":"463defd1","lastDonation()":"661a5611","path0DonationObserved()":"c8972007","path1SnapshotObserved()":"b123df8e","path2ThresholdRevertObserved()":"4ab3775a","preDonationRevertHash()":"08641e4c","profitAmount()":"5ff972cc","profitToken()":"49343624","requiredBalanceAfterDonation()":"27b0bf42","secondPostDonationRevertHash()":"b39aa512","targetBalanceAfterDonation()":"afa0e610","targetBalanceAfterFirstPostProbe()":"740ae47b","targetBalanceAfterSecondPostProbe()":"dd68d66d","targetBalanceBefore()":"e29c97ee","usedForceSendPath()":"105e5a2d","verdict()":"6aba253c","witnessReservoir()":"0205e73a","witnessSink()":"9496282f","witnessTarget()":"262a24d5"},"id":0}