{"abi":[{"type":"constructor","inputs":[],"stateMutability":"nonpayable"},{"type":"function","name":"configureVictim","inputs":[{"name":"victim","type":"address","internalType":"address"},{"name":"token","type":"address","internalType":"address"}],"outputs":[],"stateMutability":"nonpayable"},{"type":"function","name":"configuredVictim","inputs":[],"outputs":[{"name":"","type":"address","internalType":"address"}],"stateMutability":"view"},{"type":"function","name":"configuredVictimToken","inputs":[],"outputs":[{"name":"","type":"address","internalType":"address"}],"stateMutability":"view"},{"type":"function","name":"executeOnOpportunity","inputs":[],"outputs":[],"stateMutability":"nonpayable"},{"type":"function","name":"profitAmount","inputs":[],"outputs":[{"name":"","type":"uint256","internalType":"uint256"}],"stateMutability":"view"},{"type":"function","name":"profitToken","inputs":[],"outputs":[{"name":"","type":"address","internalType":"address"}],"stateMutability":"view"}],"bytecode":{"object":"0x60a080604052346100a65761073a818101906001600160401b03821183831017610092576040918391610eaf833930815273044b75f554b886a065b9567891e45c79542d735760208201520301905ff08015610087576001600160a01b0316608052604051610e0490816100ab8239608051818181610782015281816109460152610b2c0152f35b6040513d5f823e3d90fd5b634e487b7160e01b5f52604160045260245ffd5b5f80fdfe6080806040526004361015610012575f80fd5b5f3560e01c90816302f0ff8a1461014e575080633c2448ed14610134578063493436241461010d5780635ff972cc146100f05780636740612b1461008a57639f776aa71461005e575f80fd5b34610086575f366003190112610086576003546040516001600160a01b039091168152602090f35b5f80fd5b34610086576040366003190112610086576004356001600160a01b03811690819003610086576024356001600160a01b0381169190829003610086576001600160601b0360a01b60025416176002556001600160601b0360a01b60035416176003555f80f35b34610086575f366003190112610086576020600154604051908152f35b34610086575f366003190112610086575f546040516001600160a01b039091168152602090f35b34610086575f3660031901126100865761014c610171565b005b34610086575f366003190112610086576002546001600160a01b03168152602090f35b6001546101e757610180610250565b6101e75761018c6104c3565b6101e7576002546001600160a01b0316801515806101e9575b6101ac5750565b6003546101c4916001600160a01b039091169061074e565b6101e7576002546003546101e4916001600160a01b039182169116610913565b50565b565b506003546001600160a01b031615156101a5565b610280810190811067ffffffffffffffff82111761021a57604052565b634e487b7160e01b5f52604160045260245ffd5b90601f8019910116810190811067ffffffffffffffff82111761021a57604052565b60405161025c816101fd565b73a0b86991c6218b36c1d19d4a2e9eb0ce3606eb48815273dac17f958d2ee523a2206206994597c13d831ec76020820152736b175474e89094c44da98b954eedeac495271d0f604082015273c02aaa39b223fe8d0a0e5c4f27ead9083c756cc26060820152732260fac5e5542a773aa44fbcfedf7c193bc2c5996080820152736b3595068778dd592e39a122f4f5a5cf09c90fe260a082015273514910771af9ca656af840dff83e8264ecf986ca60c082015273d533a949740bb3306d119cc777fa900ba034cd5260e0820152737fc66500c84a76ad7e9c93437bfc5ac33e2ddae9610100820152739f8f72aa9304c8b593d555f12ef6589cc3a579a261012082015273c00e94cb662c3520282e6f5717214004a7f2688861014082015273c011a73ee8576fb46f5e1c5751ca3b9fe0af2a6f610160820152731f9840a85d5af5bf1d1762f925bdaddc4201f984610180820152730bc529c00c6401aef6d220be8c6ea1667f6ad93e6101a082015273111111111117dc0aa78b770fa6a738034120c3026101c0820152730d8775f648430679a709e98d2b0cb6250d2887ef6101e082015273e41d2489571d322189246dafa5ebde1f4699f4986102008201526e085d4780b73119b644ae5ecd22b376610220820152734fabb145d64652a948d72533023f6e7a623c7c53610240820152735f98805a4e8be255a32880fdec7f6728c6568ba06102608201525f5b60148110156104bd57600581901b8201516001600160a01b0316600161048f82610a4b565b11156104b4575f61049f91610b1c565b6104ad576001905b0161046a565b5050600190565b506001906104a7565b50505f90565b6040516104cf816101fd565b73a0b86991c6218b36c1d19d4a2e9eb0ce3606eb48815273dac17f958d2ee523a2206206994597c13d831ec76020820152736b175474e89094c44da98b954eedeac495271d0f604082015273c02aaa39b223fe8d0a0e5c4f27ead9083c756cc26060820152732260fac5e5542a773aa44fbcfedf7c193bc2c5996080820152736b3595068778dd592e39a122f4f5a5cf09c90fe260a082015273514910771af9ca656af840dff83e8264ecf986ca60c082015273d533a949740bb3306d119cc777fa900ba034cd5260e0820152737fc66500c84a76ad7e9c93437bfc5ac33e2ddae9610100820152739f8f72aa9304c8b593d555f12ef6589cc3a579a261012082015273c00e94cb662c3520282e6f5717214004a7f2688861014082015273c011a73ee8576fb46f5e1c5751ca3b9fe0af2a6f610160820152731f9840a85d5af5bf1d1762f925bdaddc4201f984610180820152730bc529c00c6401aef6d220be8c6ea1667f6ad93e6101a082015273111111111117dc0aa78b770fa6a738034120c3026101c0820152730d8775f648430679a709e98d2b0cb6250d2887ef6101e082015273e41d2489571d322189246dafa5ebde1f4699f4986102008201526e085d4780b73119b644ae5ecd22b376610220820152734fabb145d64652a948d72533023f6e7a623c7c53610240820152735f98805a4e8be255a32880fdec7f6728c6568ba06102608201525f5b60148110156104bd57600581901b8201516001600160a01b0316600161070282610a4b565b111561072157600161071391610b1c565b6104ad576001905b016106dd565b5060019061071b565b805180835260209291819084018484015e5f828201840152601f01601f1916010190565b905f9061075b8382610cad565b6107658483610ad9565b8082101561090b5750925b8315610903576107803083610ad9565b7f0000000000000000000000000000000000000000000000000000000000000000949093906001600160a01b038616803b1561008657604051631535dbf560e01b81526001600160a01b0386811660048301529490941660248501523060448501525f60648501819052908490608490829084905af19081156108f85761087d93602093610826936108e4575b610834915097604051938491309060018a898601610d03565b03601f19810184528361022e565b6040519384928392632646478b60e01b845260018060a01b038816908160048601526024850152604484015288606484015230608484015260c060a484015260c483019061072a565b03818773044b75f554b886a065b9567891e45c79542d73575af190816108b5575b506108a857505090565b6108b29250610d76565b90565b6020813d6020116108dc575b816108ce6020938361022e565b81010312610086575161089e565b3d91506108c1565b505f6108ef9161022e565b6108345f61080d565b6040513d5f823e3d90fd5b505050505f90565b905092610770565b5f9161091f8282610cad565b6109298383610ad9565b80821015610a0557505b8015610903576109433083610ad9565b927f0000000000000000000000000000000000000000000000000000000000000000906001600160a01b038216803b1561008657604051631535dbf560e01b81526001600160a01b038681166004830152929092166024830152306044830152600160648301525f908290608490829084905af180156108f8576109e3575b5061082661087d92610834602093604051938491309060058a898601610d03565b602091955061087d926109f95f6108269361022e565b5f9690935091506109c2565b9050610933565b3d15610a46573d9067ffffffffffffffff821161021a5760405191610a3b601f8201601f19166020018461022e565b82523d5f602084013e565b606090565b905f91803b15610ad3575f809160405160208101906370a0823160e01b825273044b75f554b886a065b9567891e45c79542d7357602482015260248152610a9360448261022e565b51915afa610a9f610a0c565b9080610ac7575b610aad5750565b805191925060208082019282019190910312610086575190565b50602081511015610aa6565b505f9150565b5f9291813b15610b15575f91829160405160208101916370a0823160e01b835260018060a01b0316602482015260248152610a9360448261022e565b505f925050565b905f91610b293082610ad9565b917f0000000000000000000000000000000000000000000000000000000000000000906001600160a01b03821690813b1561008657604051631535dbf560e01b81525f816084818360018060a01b038a169788600484015273044b75f554b886a065b9567891e45c79542d7357602484015230604484015287151560648401525af180156108f857610c8e575b509160209161087d935f14610c86576005915b604051600160f81b858201819052606088811b6bffffffffffffffffffffffff199081166021850152603584018390526001600160f01b0319603685015260f89690961b6001600160f81b031916603884015292831b85166039830152604d8201523090911b909216604e83015260428252610c4660628361022e565b6040519384928392632646478b60e01b8452806004850152896024850152604484015288606484015230608484015260c060a484015260c483019061072a565b600191610bc9565b61087d9391965091610ca25f60209461022e565b5f9691935091610bb6565b5f9291813b15610b15575f9182916040516020810191636eb1769f60e11b835260018060a01b0316602482015273044b75f554b886a065b9567891e45c79542d7357604482015260448152610a9360648261022e565b600160f91b8152606091821b6bffffffffffffffffffffffff199081166001830152600160f81b601583018190526001600160f01b0319601684015260f89490941b6001600160f81b031916601883015293821b84166019820152602d8101929092529290921b16602e82015260420190565b90610d813083610ad9565b91818311610d90575050505f90565b60018060a01b03166001600160601b0360a01b5f5416175f558103908111610dba57600155600190565b634e487b7160e01b5f52601160045260245ffdfea264697066735822122086dc1c49e4a6df2ab8fd715ef2a33661205b8f5ad3d5ea958f7aab513abfbea164736f6c634300081e003360c034607357601f61073a38819003918201601f19168301916001600160401b038311848410176077578084926040948552833981010312607357604b6020604583608b565b9201608b565b9060805260a05260405161069b908161009f823960805181610102015260a051816102880152f35b5f80fd5b634e487b7160e01b5f52604160045260245ffd5b51906001600160a01b038216820360735756fe60806040526004361015610011575f80fd5b5f3560e01c8063128acb08146101c25780631535dbf5146100ae576321a761181461003a575f80fd5b346100aa5760c03660031901126100aa5761005361020e565b5061005c610224565b50610065610242565b5061006e610233565b5060a43567ffffffffffffffff81116100aa5761008f903690600401610258565b5050604061009e604435610286565b82519182526020820152f35b5f80fd5b346100aa5760803660031901126100aa576100c761020e565b6024356001600160a01b038116908190036100aa576044356001600160a01b03811691908290036100aa57606435928315158094036100aa577f00000000000000000000000000000000000000000000000000000000000000006001600160a01b0316330361018e5760018060a01b03166bffffffffffffffffffffffff60a01b5f5416175f556bffffffffffffffffffffffff60a01b60015416176001556002549160ff60a01b9060a01b16916affffffffffffffffffffff60a81b1617176002555f80f35b60405162461bcd60e51b815260206004820152600c60248201526b3737ba103b32b934b334b2b960a11b6044820152606490fd5b346100aa5760a03660031901126100aa576101db61020e565b506101e4610224565b506101ed610242565b5060843567ffffffffffffffff81116100aa5761008f903690600401610258565b600435906001600160a01b03821682036100aa57565b6024359081151582036100aa57565b6084359081151582036100aa57565b606435906001600160a01b03821682036100aa57565b9181601f840112156100aa5782359167ffffffffffffffff83116100aa57602083818601950101116100aa57565b7f00000000000000000000000000000000000000000000000000000000000000006001600160a01b03169190338390036105c5575f81131561058a575f8054600154604080516001600160a01b0393841660208201529290911682820152815290938491906102f66060836105f7565b60025460a01c60ff161561052557803b156104ee5760405163e2a7b50160e01b81529183918391829084908290610331908a6004840161062d565b03925af1801561051a57610505575b50505b82546040516370a0823160e01b815230600482015284916001600160a01b0316602082602481845afa9182156104fa5783926104c2575b50816103a9575b5050508092600160ff1b8214610395570390565b634e487b7160e01b81526011600452602490fd5b82918260018060a01b03600254169160405190602082019363a9059cbb60e01b855260248301526044820152604481526103e46064826105f7565b51925af13d156104bb573d67ffffffffffffffff81116104a75760405190610416601f8201601f1916602001836105f7565b81523d85602083013e5b8161046b575b501561043457825f80610381565b60405162461bcd60e51b815260206004820152600f60248201526e1d1c985b9cd9995c8819985a5b1959608a1b6044820152606490fd5b8051801592508215610480575b50505f610426565b81925090602091810103126104a3576020015180151581036104a3575f80610478565b8380fd5b634e487b7160e01b85526041600452602485fd5b6060610420565b9091506020813d6020116104f2575b816104de602093836105f7565b810103126104ee5751905f61037a565b8280fd5b3d91506104d1565b6040513d85823e3d90fd5b8161050f916105f7565b6104ee57825f610340565b6040513d84823e3d90fd5b809192503b156100aa5760405163fa461e3360e01b8152915f91839182908490829061055590896004840161062d565b03925af1801561057f5761056a575b50610343565b6105779193505f906105f7565b5f915f610564565b6040513d5f823e3d90fd5b60405162461bcd60e51b81526020600482015260136024820152721b9bdb8b5c1bdcda5d1a5d9948185b5bdd5b9d606a1b6044820152606490fd5b60405162461bcd60e51b815260206004820152600a6024820152693737ba103937baba32b960b11b6044820152606490fd5b90601f8019910116810190811067ffffffffffffffff82111761061957604052565b634e487b7160e01b5f52604160045260245ffd5b9060809260209183525f82840152606060408401528051918291826060860152018484015e5f828201840152601f01601f191601019056fea26469706673582212207037ffe501fd618a9cff798122683b550c95352b6a904ec5e10b50da29e5252764736f6c634300081e0033","linkReferences":{}},"methodIdentifiers":{"configureVictim(address,address)":"6740612b","configuredVictim()":"02f0ff8a","configuredVictimToken()":"9f776aa7","executeOnOpportunity()":"3c2448ed","profitAmount()":"5ff972cc","profitToken()":"49343624"},"id":0}