{"abi":[{"type":"constructor","inputs":[{"name":"verifier_","type":"address","internalType":"address"},{"name":"router_","type":"address","internalType":"address"}],"stateMutability":"nonpayable"},{"type":"function","name":"configure","inputs":[{"name":"token_","type":"address","internalType":"address"},{"name":"from_","type":"address","internalType":"address"},{"name":"beneficiary_","type":"address","internalType":"address"},{"name":"useTrident_","type":"bool","internalType":"bool"}],"outputs":[],"stateMutability":"nonpayable"},{"type":"function","name":"swap","inputs":[{"name":"","type":"address","internalType":"address"},{"name":"","type":"bool","internalType":"bool"},{"name":"amountSpecified","type":"int256","internalType":"int256"},{"name":"","type":"uint160","internalType":"uint160"},{"name":"","type":"bytes","internalType":"bytes"}],"outputs":[{"name":"amount0","type":"int256","internalType":"int256"},{"name":"amount1","type":"int256","internalType":"int256"}],"stateMutability":"nonpayable"},{"type":"function","name":"swap","inputs":[{"name":"","type":"address","internalType":"address"},{"name":"","type":"bool","internalType":"bool"},{"name":"amountSpecified","type":"int256","internalType":"int256"},{"name":"","type":"uint160","internalType":"uint160"},{"name":"","type":"bool","internalType":"bool"},{"name":"","type":"bytes","internalType":"bytes"}],"outputs":[{"name":"amount0","type":"int256","internalType":"int256"},{"name":"amount1","type":"int256","internalType":"int256"}],"stateMutability":"nonpayable"}],"bytecode":{"object":"0x60c034607357601f61073a38819003918201601f19168301916001600160401b038311848410176077578084926040948552833981010312607357604b6020604583608b565b9201608b565b9060805260a05260405161069b908161009f823960805181610102015260a051816102880152f35b5f80fd5b634e487b7160e01b5f52604160045260245ffd5b51906001600160a01b038216820360735756fe60806040526004361015610011575f80fd5b5f3560e01c8063128acb08146101c25780631535dbf5146100ae576321a761181461003a575f80fd5b346100aa5760c03660031901126100aa5761005361020e565b5061005c610224565b50610065610242565b5061006e610233565b5060a43567ffffffffffffffff81116100aa5761008f903690600401610258565b5050604061009e604435610286565b82519182526020820152f35b5f80fd5b346100aa5760803660031901126100aa576100c761020e565b6024356001600160a01b038116908190036100aa576044356001600160a01b03811691908290036100aa57606435928315158094036100aa577f00000000000000000000000000000000000000000000000000000000000000006001600160a01b0316330361018e5760018060a01b03166bffffffffffffffffffffffff60a01b5f5416175f556bffffffffffffffffffffffff60a01b60015416176001556002549160ff60a01b9060a01b16916affffffffffffffffffffff60a81b1617176002555f80f35b60405162461bcd60e51b815260206004820152600c60248201526b3737ba103b32b934b334b2b960a11b6044820152606490fd5b346100aa5760a03660031901126100aa576101db61020e565b506101e4610224565b506101ed610242565b5060843567ffffffffffffffff81116100aa5761008f903690600401610258565b600435906001600160a01b03821682036100aa57565b6024359081151582036100aa57565b6084359081151582036100aa57565b606435906001600160a01b03821682036100aa57565b9181601f840112156100aa5782359167ffffffffffffffff83116100aa57602083818601950101116100aa57565b7f00000000000000000000000000000000000000000000000000000000000000006001600160a01b03169190338390036105c5575f81131561058a575f8054600154604080516001600160a01b0393841660208201529290911682820152815290938491906102f66060836105f7565b60025460a01c60ff161561052557803b156104ee5760405163e2a7b50160e01b81529183918391829084908290610331908a6004840161062d565b03925af1801561051a57610505575b50505b82546040516370a0823160e01b815230600482015284916001600160a01b0316602082602481845afa9182156104fa5783926104c2575b50816103a9575b5050508092600160ff1b8214610395570390565b634e487b7160e01b81526011600452602490fd5b82918260018060a01b03600254169160405190602082019363a9059cbb60e01b855260248301526044820152604481526103e46064826105f7565b51925af13d156104bb573d67ffffffffffffffff81116104a75760405190610416601f8201601f1916602001836105f7565b81523d85602083013e5b8161046b575b501561043457825f80610381565b60405162461bcd60e51b815260206004820152600f60248201526e1d1c985b9cd9995c8819985a5b1959608a1b6044820152606490fd5b8051801592508215610480575b50505f610426565b81925090602091810103126104a3576020015180151581036104a3575f80610478565b8380fd5b634e487b7160e01b85526041600452602485fd5b6060610420565b9091506020813d6020116104f2575b816104de602093836105f7565b810103126104ee5751905f61037a565b8280fd5b3d91506104d1565b6040513d85823e3d90fd5b8161050f916105f7565b6104ee57825f610340565b6040513d84823e3d90fd5b809192503b156100aa5760405163fa461e3360e01b8152915f91839182908490829061055590896004840161062d565b03925af1801561057f5761056a575b50610343565b6105779193505f906105f7565b5f915f610564565b6040513d5f823e3d90fd5b60405162461bcd60e51b81526020600482015260136024820152721b9bdb8b5c1bdcda5d1a5d9948185b5bdd5b9d606a1b6044820152606490fd5b60405162461bcd60e51b815260206004820152600a6024820152693737ba103937baba32b960b11b6044820152606490fd5b90601f8019910116810190811067ffffffffffffffff82111761061957604052565b634e487b7160e01b5f52604160045260245ffd5b9060809260209183525f82840152606060408401528051918291826060860152018484015e5f828201840152601f01601f191601019056fea26469706673582212207037ffe501fd618a9cff798122683b550c95352b6a904ec5e10b50da29e5252764736f6c634300081e0033","linkReferences":{}},"methodIdentifiers":{"configure(address,address,address,bool)":"1535dbf5","swap(address,bool,int256,uint160,bool,bytes)":"21a76118","swap(address,bool,int256,uint160,bytes)":"128acb08"},"id":0}