{"abi":[{"type":"constructor","inputs":[{"name":"admin","type":"address","internalType":"address"}],"stateMutability":"nonpayable"},{"type":"fallback","stateMutability":"payable"},{"type":"function","name":"admin","inputs":[],"outputs":[{"name":"","type":"address","internalType":"address"}],"stateMutability":"nonpayable"},{"type":"function","name":"implementation","inputs":[],"outputs":[{"name":"","type":"address","internalType":"address"}],"stateMutability":"nonpayable"},{"type":"function","name":"upgradeTo","inputs":[{"name":"newImplementation","type":"address","internalType":"address"}],"outputs":[],"stateMutability":"nonpayable"},{"type":"function","name":"upgradeToAndCall","inputs":[{"name":"newImplementation","type":"address","internalType":"address"},{"name":"data","type":"bytes","internalType":"bytes"}],"outputs":[],"stateMutability":"payable"},{"type":"event","name":"Upgraded","inputs":[{"name":"implementation","type":"address","indexed":true,"internalType":"address"}],"anonymous":false}],"bytecode":{"object":"0x60a060405234801561001057600080fd5b506040516109d33803806109d3833981810160405281019061003291906100cf565b8073ffffffffffffffffffffffffffffffffffffffff1660808173ffffffffffffffffffffffffffffffffffffffff1681525050506100fc565b600080fd5b600073ffffffffffffffffffffffffffffffffffffffff82169050919050565b600061009c82610071565b9050919050565b6100ac81610091565b81146100b757600080fd5b50565b6000815190506100c9816100a3565b92915050565b6000602082840312156100e5576100e461006c565b5b60006100f3848285016100ba565b91505092915050565b60805161089961013a60003960008181610105015281816101720152818161025b015281816102cb0152818161031e015261035201526108996000f3fe6080604052600436106100435760003560e01c80633659cfe61461004e5780634f1ef286146100775780635c60da1b14610093578063f851a440146100be57610044565b5b61004c6100e9565b005b34801561005a57600080fd5b50610075600480360381019061007091906105ba565b610103565b005b610091600480360381019061008c919061064c565b610170565b005b34801561009f57600080fd5b506100a8610257565b6040516100b591906106bb565b60405180910390f35b3480156100ca57600080fd5b506100d36102c7565b6040516100e091906106bb565b60405180910390f35b6100f1610350565b6101016100fc6103e8565b610419565b565b7f000000000000000000000000000000000000000000000000000000000000000073ffffffffffffffffffffffffffffffffffffffff163373ffffffffffffffffffffffffffffffffffffffff16036101645761015f8161043f565b61016d565b61016c6100e9565b5b50565b7f000000000000000000000000000000000000000000000000000000000000000073ffffffffffffffffffffffffffffffffffffffff163373ffffffffffffffffffffffffffffffffffffffff1603610249576101cc8361043f565b60008373ffffffffffffffffffffffffffffffffffffffff1683836040516101f5929190610715565b600060405180830381855af49150503d8060008114610230576040519150601f19603f3d011682016040523d82523d6000602084013e610235565b606091505b505090508061024357600080fd5b50610252565b6102516100e9565b5b505050565b60007f000000000000000000000000000000000000000000000000000000000000000073ffffffffffffffffffffffffffffffffffffffff163373ffffffffffffffffffffffffffffffffffffffff16036102bb576102b46103e8565b90506102c4565b6102c36100e9565b5b90565b60007f000000000000000000000000000000000000000000000000000000000000000073ffffffffffffffffffffffffffffffffffffffff163373ffffffffffffffffffffffffffffffffffffffff1603610344577f0000000000000000000000000000000000000000000000000000000000000000905061034d565b61034c6100e9565b5b90565b7f000000000000000000000000000000000000000000000000000000000000000073ffffffffffffffffffffffffffffffffffffffff163373ffffffffffffffffffffffffffffffffffffffff16036103de576040517f08c379a00000000000000000000000000000000000000000000000000000000081526004016103d5906107b1565b60405180910390fd5b6103e661048e565b565b6000807f360894a13ba1a3210667c828492db98dca3e2076cc3735a920a3ca505d382bbc60001b9050805491505090565b3660008037600080366000845af43d6000803e806000811461043a573d6000f35b3d6000fd5b61044881610490565b8073ffffffffffffffffffffffffffffffffffffffff167fbc7cd75a20ee27fd9adebab32041f755214dbc6bffa90cc0225b39da2e5c2d3b60405160405180910390a250565b565b61049981610507565b6104d8576040517f08c379a00000000000000000000000000000000000000000000000000000000081526004016104cf90610843565b60405180910390fd5b60007f360894a13ba1a3210667c828492db98dca3e2076cc3735a920a3ca505d382bbc60001b90508181555050565b60008060007fc5d2460186f7233c927e7db2dcc703c0e500b653ca82273b7bfad8045d85a47060001b9050833f915080821415801561054957506000801b8214155b92505050919050565b600080fd5b600080fd5b600073ffffffffffffffffffffffffffffffffffffffff82169050919050565b60006105878261055c565b9050919050565b6105978161057c565b81146105a257600080fd5b50565b6000813590506105b48161058e565b92915050565b6000602082840312156105d0576105cf610552565b5b60006105de848285016105a5565b91505092915050565b600080fd5b600080fd5b600080fd5b60008083601f84011261060c5761060b6105e7565b5b8235905067ffffffffffffffff811115610629576106286105ec565b5b602083019150836001820283011115610645576106446105f1565b5b9250929050565b60008060006040848603121561066557610664610552565b5b6000610673868287016105a5565b935050602084013567ffffffffffffffff81111561069457610693610557565b5b6106a0868287016105f6565b92509250509250925092565b6106b58161057c565b82525050565b60006020820190506106d060008301846106ac565b92915050565b600081905092915050565b82818337600083830152505050565b60006106fc83856106d6565b93506107098385846106e1565b82840190509392505050565b60006107228284866106f0565b91508190509392505050565b600082825260208201905092915050565b7f43616e6e6f742063616c6c2066616c6c6261636b2066756e6374696f6e20667260008201527f6f6d207468652070726f78792061646d696e0000000000000000000000000000602082015250565b600061079b60328361072e565b91506107a68261073f565b604082019050919050565b600060208201905081810360008301526107ca8161078e565b9050919050565b7f43616e6e6f742073657420612070726f787920696d706c656d656e746174696f60008201527f6e20746f2061206e6f6e2d636f6e747261637420616464726573730000000000602082015250565b600061082d603b8361072e565b9150610838826107d1565b604082019050919050565b6000602082019050818103600083015261085c81610820565b905091905056fea26469706673582212205b43a0e08b4b04f092319fddf9b7c4b7e10e3bef34897c63a2fc07fa4ff873b264736f6c63430008110033","linkReferences":{}},"methodIdentifiers":{"admin()":"f851a440","implementation()":"5c60da1b","upgradeTo(address)":"3659cfe6","upgradeToAndCall(address,bytes)":"4f1ef286"},"id":53}