{"abi":[{"type":"constructor","inputs":[],"stateMutability":"nonpayable"},{"type":"receive","stateMutability":"payable"},{"type":"function","name":"addReservesPathProvablyInfeasible","inputs":[],"outputs":[{"name":"","type":"bool","internalType":"bool"}],"stateMutability":"view"},{"type":"function","name":"executeOnOpportunity","inputs":[],"outputs":[],"stateMutability":"nonpayable"},{"type":"function","name":"initiateBalancerFlashLoan","inputs":[{"name":"fundingToken","type":"address","internalType":"address"},{"name":"amount","type":"uint256","internalType":"uint256"}],"outputs":[],"stateMutability":"nonpayable"},{"type":"function","name":"liquidationPathProvablyInfeasible","inputs":[],"outputs":[{"name":"","type":"bool","internalType":"bool"}],"stateMutability":"view"},{"type":"function","name":"mintPathValidated","inputs":[],"outputs":[{"name":"","type":"bool","internalType":"bool"}],"stateMutability":"view"},{"type":"function","name":"profitAmount","inputs":[],"outputs":[{"name":"","type":"uint256","internalType":"uint256"}],"stateMutability":"view"},{"type":"function","name":"profitToken","inputs":[],"outputs":[{"name":"","type":"address","internalType":"address"}],"stateMutability":"view"},{"type":"function","name":"receiveFlashLoan","inputs":[{"name":"tokens","type":"address[]","internalType":"address[]"},{"name":"amounts","type":"uint256[]","internalType":"uint256[]"},{"name":"feeAmounts","type":"uint256[]","internalType":"uint256[]"},{"name":"","type":"bytes","internalType":"bytes"}],"outputs":[],"stateMutability":"nonpayable"},{"type":"function","name":"repayPathValidated","inputs":[],"outputs":[{"name":"","type":"bool","internalType":"bool"}],"stateMutability":"view"}],"bytecode":{"object":"0x60a060405234801561000f575f5ffd5b507312392f67bdf24fae0af363c24ac620a2f67dad8673ffffffffffffffffffffffffffffffffffffffff16636f307dc36040518163ffffffff1660e01b8152600401602060405180830381865afa15801561006d573d5f5f3e3d5ffd5b505050506040513d601f19601f820116820180604052508101906100919190610169565b73ffffffffffffffffffffffffffffffffffffffff1660808173ffffffffffffffffffffffffffffffffffffffff168152505060805160015f6101000a81548173ffffffffffffffffffffffffffffffffffffffff021916908373ffffffffffffffffffffffffffffffffffffffff160217905550610194565b5f5ffd5b5f73ffffffffffffffffffffffffffffffffffffffff82169050919050565b5f6101388261010f565b9050919050565b6101488161012e565b8114610152575f5ffd5b50565b5f815190506101638161013f565b92915050565b5f6020828403121561017e5761017d61010b565b5b5f61018b84828501610155565b91505092915050565b60805161549861028c5f395f81816104b5015281816105530152818161089d01528181610937015281816109d101528181610a7901528181610b9201528181610c0701528181610ce301528181610dd0015281816110240152818161122a0152818161125f015281816115f201528181611b1901528181611c4501528181611c8401528181611e9f015281816120b50152818161244701528181612547015281816126470152818161275c015281816128710152818161298601528181612c8a01528181612cc9015281816132f101528181613399015281816138070152818161383201528181613a7e0152613c2501526154985ff3fe608060405260043610610089575f3560e01c80635ff972cc116100585780635ff972cc14610126578063d41b6b6d14610150578063d559a1c21461017a578063e795e7e6146101a4578063f04f2707146101ce57610090565b806309ebc1481461009457806327978561146100bc5780633c2448ed146100e657806349343624146100fc57610090565b3661009057005b5f5ffd5b34801561009f575f5ffd5b506100ba60048036038101906100b591906140fe565b6101f6565b005b3480156100c7575f5ffd5b506100d0610473565b6040516100dd9190614156565b60405180910390f35b3480156100f1575f5ffd5b506100fa610486565b005b348015610107575f5ffd5b50610110610617565b60405161011d919061417e565b60405180910390f35b348015610131575f5ffd5b5061013a61063f565b60405161014791906141a6565b60405180910390f35b34801561015b575f5ffd5b50610164610648565b6040516101719190614156565b60405180910390f35b348015610185575f5ffd5b5061018e61065b565b60405161019b9190614156565b60405180910390f35b3480156101af575f5ffd5b506101b861066d565b6040516101c59190614156565b60405180910390f35b3480156101d9575f5ffd5b506101f460048036038101906101ef919061447f565b610680565b005b3073ffffffffffffffffffffffffffffffffffffffff163373ffffffffffffffffffffffffffffffffffffffff1614610264576040517f08c379a000000000000000000000000000000000000000000000000000000000815260040161025b906145ad565b60405180910390fd5b600180811115610277576102766145cb565b5b5f5f9054906101000a900460ff166001811115610297576102966145cb565b5b146102d7576040517f08c379a00000000000000000000000000000000000000000000000000000000081526004016102ce90614642565b60405180910390fd5b5f600167ffffffffffffffff8111156102f3576102f26141d3565b5b6040519080825280602002602001820160405280156103215781602001602082028036833780820191505090505b50905082815f8151811061033857610337614660565b5b602002602001019073ffffffffffffffffffffffffffffffffffffffff16908173ffffffffffffffffffffffffffffffffffffffff16815250505f600167ffffffffffffffff81111561038e5761038d6141d3565b5b6040519080825280602002602001820160405280156103bc5781602001602082028036833780820191505090505b50905082815f815181106103d3576103d2614660565b5b60200260200101818152505073ba12222222228d8ba445958a75a0704d566bf2c873ffffffffffffffffffffffffffffffffffffffff16635c38449e30848460405180602001604052805f8152506040518563ffffffff1660e01b8152600401610440949392919061485b565b5f604051808303815f87803b158015610457575f5ffd5b505af1158015610469573d5f5f3e3d5ffd5b5050505050505050565b600460029054906101000a900460ff1681565b5f60019054906101000a900460ff166106155760015f60016101000a81548160ff0219169083151502179055507f000000000000000000000000000000000000000000000000000000000000000073ffffffffffffffffffffffffffffffffffffffff166370a08231306040518263ffffffff1660e01b815260040161050c919061417e565b602060405180830381865afa158015610527573d5f5f3e3d5ffd5b505050506040513d601f19601f8201168201806040525081019061054b91906148c7565b6003819055507f000000000000000000000000000000000000000000000000000000000000000060015f6101000a81548173ffffffffffffffffffffffffffffffffffffffff021916908373ffffffffffffffffffffffffffffffffffffffff1602179055505f6002819055506105c0611021565b6105c86110f9565b6105d061125c565b6001600460036101000a81548160ff0219169083151502179055506001600460026101000a81548160ff02191690831515021790555061060e6115ee565b6002819055505b565b5f60015f9054906101000a900473ffffffffffffffffffffffffffffffffffffffff16905090565b5f600254905090565b600460019054906101000a900460ff1681565b60045f9054906101000a900460ff1681565b600460039054906101000a900460ff1681565b73ba12222222228d8ba445958a75a0704d566bf2c873ffffffffffffffffffffffffffffffffffffffff163373ffffffffffffffffffffffffffffffffffffffff1614610702576040517f08c379a00000000000000000000000000000000000000000000000000000000081526004016106f99061493c565b60405180910390fd5b600180811115610715576107146145cb565b5b5f5f9054906101000a900460ff166001811115610735576107346145cb565b5b14610775576040517f08c379a000000000000000000000000000000000000000000000000000000000815260040161076c90614642565b60405180910390fd5b60018451148015610787575060018351145b8015610794575060018251145b6107d3576040517f08c379a00000000000000000000000000000000000000000000000000000000081526004016107ca906149a4565b60405180910390fd5b5f60029054906101000a900473ffffffffffffffffffffffffffffffffffffffff1673ffffffffffffffffffffffffffffffffffffffff16845f8151811061081e5761081d614660565b5b602002602001015173ffffffffffffffffffffffffffffffffffffffff161461087c576040517f08c379a000000000000000000000000000000000000000000000000000000000815260040161087390614a0c565b60405180910390fd5b5f835f815181106108905761088f614660565b5b602002602001015190505f7f000000000000000000000000000000000000000000000000000000000000000073ffffffffffffffffffffffffffffffffffffffff166370a08231306040518263ffffffff1660e01b81526004016108f4919061417e565b602060405180830381865afa15801561090f573d5f5f3e3d5ffd5b505050506040513d601f19601f8201168201806040525081019061093391906148c7565b90507f000000000000000000000000000000000000000000000000000000000000000073ffffffffffffffffffffffffffffffffffffffff165f60029054906101000a900473ffffffffffffffffffffffffffffffffffffffff1673ffffffffffffffffffffffffffffffffffffffff1614610a76575f6109f55f60029054906101000a900473ffffffffffffffffffffffffffffffffffffffff167f00000000000000000000000000000000000000000000000000000000000000006116b1565b90505f73ffffffffffffffffffffffffffffffffffffffff16816020015173ffffffffffffffffffffffffffffffffffffffff1603610a69576040517f08c379a0000000000000000000000000000000000000000000000000000000008152600401610a6090614a74565b60405180910390fd5b610a7381846117dc565b50505b5f7f000000000000000000000000000000000000000000000000000000000000000073ffffffffffffffffffffffffffffffffffffffff166370a08231306040518263ffffffff1660e01b8152600401610ad0919061417e565b602060405180830381865afa158015610aeb573d5f5f3e3d5ffd5b505050506040513d601f19601f82011682018060405250810190610b0f91906148c7565b9050818111610b53576040517f08c379a0000000000000000000000000000000000000000000000000000000008152600401610b4a90614adc565b60405180910390fd5b610b678282610b629190614b27565b611b0e565b5f855f81518110610b7b57610b7a614660565b5b602002602001015184610b8e9190614b5a565b90507f000000000000000000000000000000000000000000000000000000000000000073ffffffffffffffffffffffffffffffffffffffff165f60029054906101000a900473ffffffffffffffffffffffffffffffffffffffff1673ffffffffffffffffffffffffffffffffffffffff1603610d2657807f000000000000000000000000000000000000000000000000000000000000000073ffffffffffffffffffffffffffffffffffffffff166370a08231306040518263ffffffff1660e01b8152600401610c5e919061417e565b602060405180830381865afa158015610c79573d5f5f3e3d5ffd5b505050506040513d601f19601f82011682018060405250810190610c9d91906148c7565b1015610cde576040517f08c379a0000000000000000000000000000000000000000000000000000000008152600401610cd590614bd7565b60405180910390fd5b610d1d7f000000000000000000000000000000000000000000000000000000000000000073ba12222222228d8ba445958a75a0704d566bf2c883611f62565b5050505061101b565b5f5f60029054906101000a900473ffffffffffffffffffffffffffffffffffffffff1673ffffffffffffffffffffffffffffffffffffffff166370a08231306040518263ffffffff1660e01b8152600401610d81919061417e565b602060405180830381865afa158015610d9c573d5f5f3e3d5ffd5b505050506040513d601f19601f82011682018060405250810190610dc091906148c7565b905081811015610f92575f610e167f00000000000000000000000000000000000000000000000000000000000000005f60029054906101000a900473ffffffffffffffffffffffffffffffffffffffff166116b1565b90505f73ffffffffffffffffffffffffffffffffffffffff16816020015173ffffffffffffffffffffffffffffffffffffffff1603610e8a576040517f08c379a0000000000000000000000000000000000000000000000000000000008152600401610e8190614c3f565b60405180910390fd5b5f8284610e979190614b27565b90505f610ea483836120b1565b90505f8103610ee8576040517f08c379a0000000000000000000000000000000000000000000000000000000008152600401610edf90614ca7565b60405180910390fd5b610ef283826117dc565b505f60029054906101000a900473ffffffffffffffffffffffffffffffffffffffff1673ffffffffffffffffffffffffffffffffffffffff166370a08231306040518263ffffffff1660e01b8152600401610f4d919061417e565b602060405180830381865afa158015610f68573d5f5f3e3d5ffd5b505050506040513d601f19601f82011682018060405250810190610f8c91906148c7565b93505050505b81811015610fd5576040517f08c379a0000000000000000000000000000000000000000000000000000000008152600401610fcc90614d0f565b60405180910390fd5b6110155f60029054906101000a900473ffffffffffffffffffffffffffffffffffffffff1673ba12222222228d8ba445958a75a0704d566bf2c884611f62565b50505050505b50505050565b5f7f000000000000000000000000000000000000000000000000000000000000000073ffffffffffffffffffffffffffffffffffffffff166370a08231306040518263ffffffff1660e01b815260040161107b919061417e565b602060405180830381865afa158015611096573d5f5f3e3d5ffd5b505050506040513d601f19601f820116820180604052508101906110ba91906148c7565b90505f81036110c957506110f7565b5f819050683635c9adc5dea000008111156110eb57683635c9adc5dea0000090505b6110f481611b0e565b50505b565b61111c73a0b86991c6218b36c1d19d4a2e9eb0ce3606eb48643a35294400612225565b6702c68af0bb14000061112d6115ee565b101561125a5761115673a0b86991c6218b36c1d19d4a2e9eb0ce3606eb4864e8d4a51000612225565b6702c68af0bb1400006111676115ee565b101561125a57611195736b175474e89094c44da98b954eedeac495271d0f6934f086f3b33b68400000612225565b6702c68af0bb1400006111a66115ee565b101561125a576111d4736b175474e89094c44da98b954eedeac495271d0f69d3c21bcecceda1000000612225565b6702c68af0bb1400006111e56115ee565b101561125a5761120e73dac17f958d2ee523a2206206994597c13d831ec7643a35294400612225565b6702c68af0bb14000061121f6115ee565b101561125a576112597f000000000000000000000000000000000000000000000000000000000000000069152d02c7e14af6800000612225565b5b565b5f7f000000000000000000000000000000000000000000000000000000000000000073ffffffffffffffffffffffffffffffffffffffff166370a08231306040518263ffffffff1660e01b81526004016112b6919061417e565b602060405180830381865afa1580156112d1573d5f5f3e3d5ffd5b505050506040513d601f19601f820116820180604052508101906112f591906148c7565b9050680ad78ebc5ac62000006702c68af0bb1400006113149190614b5a565b811161132057506115ec565b5f680ad78ebc5ac620000090505f61133782612399565b90505f8103611348575050506115ec565b73c02aaa39b223fe8d0a0e5c4f27ead9083c756cc273ffffffffffffffffffffffffffffffffffffffff16632e1a7d4d826040518263ffffffff1660e01b815260040161139591906141a6565b5f604051808303815f87803b1580156113ac575f5ffd5b505af11580156113be573d5f5f3e3d5ffd5b50505050734ddc2d193948926d02f9b1fe9e1daa0718270ed573ffffffffffffffffffffffffffffffffffffffff16631249c58b826040518263ffffffff1660e01b81526004015f604051808303818588803b15801561141c575f5ffd5b505af115801561142e573d5f5f3e3d5ffd5b50505050505f600167ffffffffffffffff81111561144f5761144e6141d3565b5b60405190808252806020026020018201604052801561147d5781602001602082028036833780820191505090505b509050734ddc2d193948926d02f9b1fe9e1daa0718270ed5815f815181106114a8576114a7614660565b5b602002602001019073ffffffffffffffffffffffffffffffffffffffff16908173ffffffffffffffffffffffffffffffffffffffff16815250507312392f67bdf24fae0af363c24ac620a2f67dad8673ffffffffffffffffffffffffffffffffffffffff16635fe3b5676040518163ffffffff1660e01b8152600401602060405180830381865afa15801561153f573d5f5f3e3d5ffd5b505050506040513d601f19601f820116820180604052508101906115639190614d41565b73ffffffffffffffffffffffffffffffffffffffff1663c2998238826040518263ffffffff1660e01b815260040161159b9190614d6c565b5f604051808303815f875af11580156115b6573d5f5f3e3d5ffd5b505050506040513d5f823e3d601f19601f820116820180604052508101906115de9190614e21565b506115e7612a87565b505050505b565b5f5f7f000000000000000000000000000000000000000000000000000000000000000073ffffffffffffffffffffffffffffffffffffffff166370a08231306040518263ffffffff1660e01b8152600401611649919061417e565b602060405180830381865afa158015611664573d5f5f3e3d5ffd5b505050506040513d601f19601f8201168201806040525081019061168891906148c7565b9050600354811161169c575f9150506116ae565b600354816116aa9190614b27565b9150505b90565b6116b9614002565b5f6116c35f612f4c565b90506116d081858561307a565b91505f73ffffffffffffffffffffffffffffffffffffffff16826020015173ffffffffffffffffffffffffffffffffffffffff161461170f57506117d6565b6117196003612f4c565b905061172681858561307a565b91505f73ffffffffffffffffffffffffffffffffffffffff16826020015173ffffffffffffffffffffffffffffffffffffffff161461176557506117d6565b61176f6005612f4c565b905061177c81858561307a565b91505f73ffffffffffffffffffffffffffffffffffffffff16826020015173ffffffffffffffffffffffffffffffffffffffff16146117bb57506117d6565b6117c56006612f4c565b90506117d281858561307a565b9150505b92915050565b5f5f820361181f576040517f08c379a000000000000000000000000000000000000000000000000000000000815260040161181690614eb2565b60405180910390fd5b5f836080015161183c5761183784604001515f6132de565b61184c565b61184b846040015160016132de565b5b90505f846080015161186b5761186685606001515f6132de565b61187b565b61187a856060015160016132de565b5b90505f8173ffffffffffffffffffffffffffffffffffffffff166370a08231306040518263ffffffff1660e01b81526004016118b7919061417e565b602060405180830381865afa1580156118d2573d5f5f3e3d5ffd5b505050506040513d601f19601f820116820180604052508101906118f691906148c7565b90506119078387602001515f613475565b61191683876020015187613475565b8560800151156119b157856020015173ffffffffffffffffffffffffffffffffffffffff1663a6417ed687604001518860600151885f6040518563ffffffff1660e01b815260040161196b9493929190614f2d565b6020604051808303815f875af1158015611987573d5f5f3e3d5ffd5b505050506040513d601f19601f820116820180604052508101906119ab91906148c7565b50611a3e565b856020015173ffffffffffffffffffffffffffffffffffffffff16633df0212487604001518860600151885f6040518563ffffffff1660e01b81526004016119fc9493929190614f2d565b6020604051808303815f875af1158015611a18573d5f5f3e3d5ffd5b505050506040513d601f19601f82011682018060405250810190611a3c91906148c7565b505b808273ffffffffffffffffffffffffffffffffffffffff166370a08231306040518263ffffffff1660e01b8152600401611a78919061417e565b602060405180830381865afa158015611a93573d5f5f3e3d5ffd5b505050506040513d601f19601f82011682018060405250810190611ab791906148c7565b611ac19190614b27565b93505f8403611b05576040517f08c379a0000000000000000000000000000000000000000000000000000000008152600401611afc90614fba565b60405180910390fd5b50505092915050565b5f810315611f5f575f7f000000000000000000000000000000000000000000000000000000000000000073ffffffffffffffffffffffffffffffffffffffff166370a08231306040518263ffffffff1660e01b8152600401611b70919061417e565b602060405180830381865afa158015611b8b573d5f5f3e3d5ffd5b505050506040513d601f19601f82011682018060405250810190611baf91906148c7565b90505f7312392f67bdf24fae0af363c24ac620a2f67dad8673ffffffffffffffffffffffffffffffffffffffff166370a08231306040518263ffffffff1660e01b8152600401611bff919061417e565b602060405180830381865afa158015611c1a573d5f5f3e3d5ffd5b505050506040513d601f19601f82011682018060405250810190611c3e91906148c7565b9050611c7f7f00000000000000000000000000000000000000000000000000000000000000007312392f67bdf24fae0af363c24ac620a2f67dad865f613475565b611cbe7f00000000000000000000000000000000000000000000000000000000000000007312392f67bdf24fae0af363c24ac620a2f67dad8685613475565b5f7312392f67bdf24fae0af363c24ac620a2f67dad8673ffffffffffffffffffffffffffffffffffffffff1663a0712d68856040518263ffffffff1660e01b8152600401611d0c91906141a6565b6020604051808303815f875af1158015611d28573d5f5f3e3d5ffd5b505050506040513d601f19601f82011682018060405250810190611d4c91906148c7565b14611d58575050611f5f565b5f7312392f67bdf24fae0af363c24ac620a2f67dad8673ffffffffffffffffffffffffffffffffffffffff166370a08231306040518263ffffffff1660e01b8152600401611da6919061417e565b602060405180830381865afa158015611dc1573d5f5f3e3d5ffd5b505050506040513d601f19601f82011682018060405250810190611de591906148c7565b9050818111611df657505050611f5f565b5f7312392f67bdf24fae0af363c24ac620a2f67dad8673ffffffffffffffffffffffffffffffffffffffff1663db006a758484611e339190614b27565b6040518263ffffffff1660e01b8152600401611e4f91906141a6565b6020604051808303815f875af1158015611e6b573d5f5f3e3d5ffd5b505050506040513d601f19601f82011682018060405250810190611e8f91906148c7565b14611e9c57505050611f5f565b5f7f000000000000000000000000000000000000000000000000000000000000000073ffffffffffffffffffffffffffffffffffffffff166370a08231306040518263ffffffff1660e01b8152600401611ef6919061417e565b602060405180830381865afa158015611f11573d5f5f3e3d5ffd5b505050506040513d601f19601f82011682018060405250810190611f3591906148c7565b905083811115611f5a57600160045f6101000a81548160ff0219169083151502179055505b505050505b50565b5f5f8473ffffffffffffffffffffffffffffffffffffffff1663a9059cbb60e01b8585604051602401611f96929190614fd8565b604051602081830303815290604052907bffffffffffffffffffffffffffffffffffffffffffffffffffffffff19166020820180517bffffffffffffffffffffffffffffffffffffffffffffffffffffffff83818316178352505050506040516120009190615039565b5f604051808303815f865af19150503d805f8114612039576040519150601f19603f3d011682016040523d82523d5f602084013e61203e565b606091505b509150915081801561206b57505f8151148061206a5750808060200190518101906120699190615079565b5b5b6120aa576040517f08c379a00000000000000000000000000000000000000000000000000000000081526004016120a1906150ee565b60405180910390fd5b5050505050565b5f5f7f000000000000000000000000000000000000000000000000000000000000000073ffffffffffffffffffffffffffffffffffffffff166370a08231306040518263ffffffff1660e01b815260040161210c919061417e565b602060405180830381865afa158015612127573d5f5f3e3d5ffd5b505050506040513d601f19601f8201168201806040525081019061214b91906148c7565b90505f810361215d575f91505061221f565b5f600190505f8290505f5f90505f5f90505b60188110156121f5575f600285856121879190614b27565b6121919190615139565b8561219c9190614b5a565b90505f6121a98a836135c4565b90508881106121d857819350600182036121c45750506121f5565b6001826121d19190614b27565b94506121e8565b6001826121e59190614b5a565b95505b505080600101905061216f565b505f8114801561220e57508561220b88866135c4565b10155b15612217578390505b809450505050505b92915050565b60015f5f6101000a81548160ff02191690836001811115612249576122486145cb565b5b0217905550815f60026101000a81548173ffffffffffffffffffffffffffffffffffffffff021916908373ffffffffffffffffffffffffffffffffffffffff1602179055505f6122976115ee565b90503073ffffffffffffffffffffffffffffffffffffffff166309ebc14884846040518363ffffffff1660e01b81526004016122d4929190614fd8565b5f604051808303815f87803b1580156122eb575f5ffd5b505af19250505080156122fc575060015b1561232c578061230a6115ee565b111561232b57600160045f6101000a81548160ff0219169083151502179055505b5b5f5f5f6101000a81548160ff0219169083600181111561234f5761234e6145cb565b5b02179055505f5f60026101000a81548173ffffffffffffffffffffffffffffffffffffffff021916908373ffffffffffffffffffffffffffffffffffffffff160217905550505050565b5f5f73c02aaa39b223fe8d0a0e5c4f27ead9083c756cc273ffffffffffffffffffffffffffffffffffffffff166370a08231306040518263ffffffff1660e01b81526004016123e8919061417e565b602060405180830381865afa158015612403573d5f5f3e3d5ffd5b505050506040513d601f19601f8201168201806040525081019061242791906148c7565b9050612485737a250d5630b4cf539739df2c5dacb4c659f2488d846124807f000000000000000000000000000000000000000000000000000000000000000073c02aaa39b223fe8d0a0e5c4f27ead9083c756cc2613710565b613801565b15612529578073c02aaa39b223fe8d0a0e5c4f27ead9083c756cc273ffffffffffffffffffffffffffffffffffffffff166370a08231306040518263ffffffff1660e01b81526004016124d8919061417e565b602060405180830381865afa1580156124f3573d5f5f3e3d5ffd5b505050506040513d601f19601f8201168201806040525081019061251791906148c7565b6125219190614b27565b915050612a82565b61258573d9e1ce17f2641f24ae83637ab66a2cca9c378b9f846125807f000000000000000000000000000000000000000000000000000000000000000073c02aaa39b223fe8d0a0e5c4f27ead9083c756cc2613710565b613801565b15612629578073c02aaa39b223fe8d0a0e5c4f27ead9083c756cc273ffffffffffffffffffffffffffffffffffffffff166370a08231306040518263ffffffff1660e01b81526004016125d8919061417e565b602060405180830381865afa1580156125f3573d5f5f3e3d5ffd5b505050506040513d601f19601f8201168201806040525081019061261791906148c7565b6126219190614b27565b915050612a82565b61269a737a250d5630b4cf539739df2c5dacb4c659f2488d846126957f000000000000000000000000000000000000000000000000000000000000000073a0b86991c6218b36c1d19d4a2e9eb0ce3606eb4873c02aaa39b223fe8d0a0e5c4f27ead9083c756cc26138f3565b613801565b1561273e578073c02aaa39b223fe8d0a0e5c4f27ead9083c756cc273ffffffffffffffffffffffffffffffffffffffff166370a08231306040518263ffffffff1660e01b81526004016126ed919061417e565b602060405180830381865afa158015612708573d5f5f3e3d5ffd5b505050506040513d601f19601f8201168201806040525081019061272c91906148c7565b6127369190614b27565b915050612a82565b6127af73d9e1ce17f2641f24ae83637ab66a2cca9c378b9f846127aa7f000000000000000000000000000000000000000000000000000000000000000073a0b86991c6218b36c1d19d4a2e9eb0ce3606eb4873c02aaa39b223fe8d0a0e5c4f27ead9083c756cc26138f3565b613801565b15612853578073c02aaa39b223fe8d0a0e5c4f27ead9083c756cc273ffffffffffffffffffffffffffffffffffffffff166370a08231306040518263ffffffff1660e01b8152600401612802919061417e565b602060405180830381865afa15801561281d573d5f5f3e3d5ffd5b505050506040513d601f19601f8201168201806040525081019061284191906148c7565b61284b9190614b27565b915050612a82565b6128c4737a250d5630b4cf539739df2c5dacb4c659f2488d846128bf7f000000000000000000000000000000000000000000000000000000000000000073dac17f958d2ee523a2206206994597c13d831ec773c02aaa39b223fe8d0a0e5c4f27ead9083c756cc26138f3565b613801565b15612968578073c02aaa39b223fe8d0a0e5c4f27ead9083c756cc273ffffffffffffffffffffffffffffffffffffffff166370a08231306040518263ffffffff1660e01b8152600401612917919061417e565b602060405180830381865afa158015612932573d5f5f3e3d5ffd5b505050506040513d601f19601f8201168201806040525081019061295691906148c7565b6129609190614b27565b915050612a82565b6129d973d9e1ce17f2641f24ae83637ab66a2cca9c378b9f846129d47f000000000000000000000000000000000000000000000000000000000000000073dac17f958d2ee523a2206206994597c13d831ec773c02aaa39b223fe8d0a0e5c4f27ead9083c756cc26138f3565b613801565b15612a7d578073c02aaa39b223fe8d0a0e5c4f27ead9083c756cc273ffffffffffffffffffffffffffffffffffffffff166370a08231306040518263ffffffff1660e01b8152600401612a2c919061417e565b602060405180830381865afa158015612a47573d5f5f3e3d5ffd5b505050506040513d601f19601f82011682018060405250810190612a6b91906148c7565b612a759190614b27565b915050612a82565b5f9150505b919050565b5f5f7312392f67bdf24fae0af363c24ac620a2f67dad8673ffffffffffffffffffffffffffffffffffffffff16635fe3b5676040518163ffffffff1660e01b8152600401602060405180830381865afa158015612ae6573d5f5f3e3d5ffd5b505050506040513d601f19601f82011682018060405250810190612b0a9190614d41565b73ffffffffffffffffffffffffffffffffffffffff16635ec88c79306040518263ffffffff1660e01b8152600401612b42919061417e565b606060405180830381865afa158015612b5d573d5f5f3e3d5ffd5b505050506040513d601f19601f82011682018060405250810190612b819190615169565b92509250505f81141580612b9457505f82145b15612ba0575050612f4a565b5f7312392f67bdf24fae0af363c24ac620a2f67dad8673ffffffffffffffffffffffffffffffffffffffff16633b1d21a26040518163ffffffff1660e01b8152600401602060405180830381865afa158015612bfe573d5f5f3e3d5ffd5b505050506040513d601f19601f82011682018060405250810190612c2291906148c7565b90505f8103612c3357505050612f4a565b5f6802b5e3af16b188000090505f6064603c86612c5091906151b9565b612c5a9190615139565b905080821115612c68578091505b82821115612c74578291505b5f8203612c85575050505050612f4a565b612cc47f00000000000000000000000000000000000000000000000000000000000000007312392f67bdf24fae0af363c24ac620a2f67dad865f613475565b612d237f00000000000000000000000000000000000000000000000000000000000000007312392f67bdf24fae0af363c24ac620a2f67dad867fffffffffffffffffffffffffffffffffffffffffffffffffffffffffffffffff613475565b5f7312392f67bdf24fae0af363c24ac620a2f67dad8673ffffffffffffffffffffffffffffffffffffffff1663c5ebeaec846040518263ffffffff1660e01b8152600401612d7191906141a6565b6020604051808303815f875af1158015612d8d573d5f5f3e3d5ffd5b505050506040513d601f19601f82011682018060405250810190612db191906148c7565b14612dc0575050505050612f4a565b5f612dc9613a34565b90505f612dd4613d61565b90505f8114612f20575f7312392f67bdf24fae0af363c24ac620a2f67dad8673ffffffffffffffffffffffffffffffffffffffff16630e75270260e01b7fffffffffffffffffffffffffffffffffffffffffffffffffffffffffffffffff604051602401612e4291906141a6565b604051602081830303815290604052907bffffffffffffffffffffffffffffffffffffffffffffffffffffffff19166020820180517bffffffffffffffffffffffffffffffffffffffffffffffffffffffff8381831617835250505050604051612eac9190615039565b5f604051808303815f865af19150503d805f8114612ee5576040519150601f19603f3d011682016040523d82523d5f602084013e612eea565b606091505b5050905080612f00575050505050505050612f4a565b612f08613d61565b91505f8214612f1e575050505050505050612f4a565b505b8115612f42576001600460016101000a81548160ff0219169083151502179055505b505050505050505b565b5f5f8203612fe1576f22d53366457f9d5e68ec105046fc438373ffffffffffffffffffffffffffffffffffffffff1663a262904b6040518163ffffffff1660e01b8152600401602060405180830381865afa925050508015612fcc57506040513d601f19601f82011682018060405250810190612fc99190614d41565b60015b612fd8575f9050613075565b80915050613075565b6f22d53366457f9d5e68ec105046fc438373ffffffffffffffffffffffffffffffffffffffff1663493f4f74836040518263ffffffff1660e01b815260040161302a91906141a6565b602060405180830381865afa92505050801561306457506040513d601f19601f820116820180604052508101906130619190614d41565b60015b613070575f9050613075565b809150505b919050565b613082614002565b5f73ffffffffffffffffffffffffffffffffffffffff168473ffffffffffffffffffffffffffffffffffffffff1603156132d7575f8473ffffffffffffffffffffffffffffffffffffffff1663a87df06c85856040518363ffffffff1660e01b81526004016130f29291906151fa565b602060405180830381865afa92505050801561312c57506040513d601f19601f820116820180604052508101906131299190614d41565b60015b6131ba578473ffffffffffffffffffffffffffffffffffffffff16636982eb0b85855f6040518463ffffffff1660e01b815260040161316d93929190615221565b602060405180830381865afa9250505080156131a757506040513d601f19601f820116820180604052508101906131a49190614d41565b60015b6131b157506132d7565b809150506131bf565b809150505b5f73ffffffffffffffffffffffffffffffffffffffff168173ffffffffffffffffffffffffffffffffffffffff16036131f857506132d7565b8473ffffffffffffffffffffffffffffffffffffffff1663eb85226d8286866040518463ffffffff1660e01b815260040161323593929190615256565b606060405180830381865afa92505050801561326f57506040513d601f19601f8201168201806040525081019061326c91906152b5565b60015b156132d5576040518060a001604052808973ffffffffffffffffffffffffffffffffffffffff1681526020018573ffffffffffffffffffffffffffffffffffffffff16815260200184600f0b815260200183600f0b815260200182151581525094505050505b505b9392505050565b5f811561338d575f83600f0b03613317577f0000000000000000000000000000000000000000000000000000000000000000905061346f565b600183600f0b0361333e57736b175474e89094c44da98b954eedeac495271d0f905061346f565b600283600f0b036133655773a0b86991c6218b36c1d19d4a2e9eb0ce3606eb48905061346f565b600383600f0b0361338c5773dac17f958d2ee523a2206206994597c13d831ec7905061346f565b5b5f83600f0b036133bf577f0000000000000000000000000000000000000000000000000000000000000000905061346f565b600183600f0b036133e657736b175474e89094c44da98b954eedeac495271d0f905061346f565b600283600f0b0361340d5773a0b86991c6218b36c1d19d4a2e9eb0ce3606eb48905061346f565b600383600f0b036134345773dac17f958d2ee523a2206206994597c13d831ec7905061346f565b6040517f08c379a00000000000000000000000000000000000000000000000000000000081526004016134669061534f565b60405180910390fd5b92915050565b5f5f8473ffffffffffffffffffffffffffffffffffffffff1663095ea7b360e01b85856040516024016134a9929190614fd8565b604051602081830303815290604052907bffffffffffffffffffffffffffffffffffffffffffffffffffffffff19166020820180517bffffffffffffffffffffffffffffffffffffffffffffffffffffffff83818316178352505050506040516135139190615039565b5f604051808303815f865af19150503d805f811461354c576040519150601f19603f3d011682016040523d82523d5f602084013e613551565b606091505b509150915081801561357e57505f8151148061357d57508080602001905181019061357c9190615079565b5b5b6135bd576040517f08c379a00000000000000000000000000000000000000000000000000000000081526004016135b4906153b7565b60405180910390fd5b5050505050565b5f5f82036135d4575f905061370a565b82608001511561367657826020015173ffffffffffffffffffffffffffffffffffffffff166307211ef784604001518560600151856040518463ffffffff1660e01b8152600401613627939291906153d5565b602060405180830381865afa92505050801561366157506040513d601f19601f8201168201806040525081019061365e91906148c7565b60015b61366d575f905061370a565b8091505061370a565b826020015173ffffffffffffffffffffffffffffffffffffffff16635e0d443f84604001518560600151856040518463ffffffff1660e01b81526004016136bf939291906153d5565b602060405180830381865afa9250505080156136f957506040513d601f19601f820116820180604052508101906136f691906148c7565b60015b613705575f905061370a565b809150505b92915050565b6060600267ffffffffffffffff81111561372d5761372c6141d3565b5b60405190808252806020026020018201604052801561375b5781602001602082028036833780820191505090505b50905082815f8151811061377257613771614660565b5b602002602001019073ffffffffffffffffffffffffffffffffffffffff16908173ffffffffffffffffffffffffffffffffffffffff168152505081816001815181106137c1576137c0614660565b5b602002602001019073ffffffffffffffffffffffffffffffffffffffff16908173ffffffffffffffffffffffffffffffffffffffff168152505092915050565b5f61382d7f0000000000000000000000000000000000000000000000000000000000000000855f613475565b6138587f00000000000000000000000000000000000000000000000000000000000000008585613475565b8373ffffffffffffffffffffffffffffffffffffffff166338ed1739845f8530426040518663ffffffff1660e01b815260040161389995949392919061540a565b5f604051808303815f875af19250505080156138d757506040513d5f823e3d601f19601f820116820180604052508101906138d49190614e21565b60015b6138e3575f90506138ec565b5f815114159150505b9392505050565b6060600367ffffffffffffffff8111156139105761390f6141d3565b5b60405190808252806020026020018201604052801561393e5781602001602082028036833780820191505090505b50905083815f8151811061395557613954614660565b5b602002602001019073ffffffffffffffffffffffffffffffffffffffff16908173ffffffffffffffffffffffffffffffffffffffff168152505082816001815181106139a4576139a3614660565b5b602002602001019073ffffffffffffffffffffffffffffffffffffffff16908173ffffffffffffffffffffffffffffffffffffffff168152505081816002815181106139f3576139f2614660565b5b602002602001019073ffffffffffffffffffffffffffffffffffffffff16908173ffffffffffffffffffffffffffffffffffffffff16815250509392505050565b5f5f5f90505b6010811015613d59575f613a4c613d61565b90505f8103613a6057600192505050613d5e565b5f613a6b8383613dfe565b90505f8103613a7b575050613d4e565b5f7f000000000000000000000000000000000000000000000000000000000000000073ffffffffffffffffffffffffffffffffffffffff166370a08231306040518263ffffffff1660e01b8152600401613ad5919061417e565b602060405180830381865afa158015613af0573d5f5f3e3d5ffd5b505050506040513d601f19601f82011682018060405250810190613b1491906148c7565b905081811015613b2657505050613d4e565b5f7312392f67bdf24fae0af363c24ac620a2f67dad8673ffffffffffffffffffffffffffffffffffffffff16630e75270260e01b84604051602401613b6b91906141a6565b604051602081830303815290604052907bffffffffffffffffffffffffffffffffffffffffffffffffffffffff19166020820180517bffffffffffffffffffffffffffffffffffffffffffffffffffffffff8381831617835250505050604051613bd59190615039565b5f604051808303815f865af19150503d805f8114613c0e576040519150601f19603f3d011682016040523d82523d5f602084013e613c13565b606091505b505090505f613c20613d61565b90505f7f000000000000000000000000000000000000000000000000000000000000000073ffffffffffffffffffffffffffffffffffffffff166370a08231306040518263ffffffff1660e01b8152600401613c7c919061417e565b602060405180830381865afa158015613c97573d5f5f3e3d5ffd5b505050506040513d601f19601f82011682018060405250810190613cbb91906148c7565b90505f818511613ccb575f613cd8565b8185613cd79190614b27565b5b905083613ceb5750505050505050613d4e565b8287118015613d045750808388613d029190614b27565b115b15613d1a57600198505050505050505050613d5e565b5f83148015613d3057506702c68af0bb14000082115b15613d4657600198505050505050505050613d5e565b505050505050505b806001019050613a3a565b505f90505b90565b5f7312392f67bdf24fae0af363c24ac620a2f67dad8673ffffffffffffffffffffffffffffffffffffffff166317bfdfbc306040518263ffffffff1660e01b8152600401613daf919061417e565b6020604051808303815f875af1925050508015613dea57506040513d601f19601f82011682018060405250810190613de791906148c7565b60015b613df6575f9050613dfb565b809150505b90565b5f5f8303613e0f5760019050613ffc565b60018303613e2257620f42409050613ffc565b60028303613e375764e8d4a510009050613ffc565b60038303613e4e5766038d7ea4c680009050613ffc565b60048303613e665767016345785d8a00009050613ffc565b60058303613e835761080082613e7c9190615139565b9050613ffc565b60068303613ea05761040082613e999190615139565b9050613ffc565b60078303613ebd5761010082613eb69190615139565b9050613ffc565b60088303613ed957604082613ed29190615139565b9050613ffc565b60098303613ef557601082613eee9190615139565b9050613ffc565b600a8303613f1157600482613f0a9190615139565b9050613ffc565b600b8303613f2d57600282613f269190615139565b9050613ffc565b600c8303613f55576004600383613f4491906151b9565b613f4e9190615139565b9050613ffc565b600d83148015613f6c5750670de0b6b3a764000082115b15613f8c57670de0b6b3a764000082613f859190614b27565b9050613ffc565b600e83148015613fa3575067016345785d8a000082115b15613fc35767016345785d8a000082613fbc9190614b27565b9050613ffc565b600f83148015613fd9575066038d7ea4c6800082115b15613ff85766038d7ea4c6800082613ff19190614b27565b9050613ffc565b5f90505b92915050565b6040518060a001604052805f73ffffffffffffffffffffffffffffffffffffffff1681526020015f73ffffffffffffffffffffffffffffffffffffffff1681526020015f600f0b81526020015f600f0b81526020015f151581525090565b5f604051905090565b5f5ffd5b5f5ffd5b5f73ffffffffffffffffffffffffffffffffffffffff82169050919050565b5f61409a82614071565b9050919050565b6140aa81614090565b81146140b4575f5ffd5b50565b5f813590506140c5816140a1565b92915050565b5f819050919050565b6140dd816140cb565b81146140e7575f5ffd5b50565b5f813590506140f8816140d4565b92915050565b5f5f6040838503121561411457614113614069565b5b5f614121858286016140b7565b9250506020614132858286016140ea565b9150509250929050565b5f8115159050919050565b6141508161413c565b82525050565b5f6020820190506141695f830184614147565b92915050565b61417881614090565b82525050565b5f6020820190506141915f83018461416f565b92915050565b6141a0816140cb565b82525050565b5f6020820190506141b95f830184614197565b92915050565b5f5ffd5b5f601f19601f8301169050919050565b7f4e487b71000000000000000000000000000000000000000000000000000000005f52604160045260245ffd5b614209826141c3565b810181811067ffffffffffffffff82111715614228576142276141d3565b5b80604052505050565b5f61423a614060565b90506142468282614200565b919050565b5f67ffffffffffffffff821115614265576142646141d3565b5b602082029050602081019050919050565b5f5ffd5b5f61428c6142878461424b565b614231565b905080838252602082019050602084028301858111156142af576142ae614276565b5b835b818110156142d857806142c488826140b7565b8452602084019350506020810190506142b1565b5050509392505050565b5f82601f8301126142f6576142f56141bf565b5b813561430684826020860161427a565b91505092915050565b5f67ffffffffffffffff821115614329576143286141d3565b5b602082029050602081019050919050565b5f61434c6143478461430f565b614231565b9050808382526020820190506020840283018581111561436f5761436e614276565b5b835b81811015614398578061438488826140ea565b845260208401935050602081019050614371565b5050509392505050565b5f82601f8301126143b6576143b56141bf565b5b81356143c684826020860161433a565b91505092915050565b5f5ffd5b5f67ffffffffffffffff8211156143ed576143ec6141d3565b5b6143f6826141c3565b9050602081019050919050565b828183375f83830152505050565b5f61442361441e846143d3565b614231565b90508281526020810184848401111561443f5761443e6143cf565b5b61444a848285614403565b509392505050565b5f82601f830112614466576144656141bf565b5b8135614476848260208601614411565b91505092915050565b5f5f5f5f6080858703121561449757614496614069565b5b5f85013567ffffffffffffffff8111156144b4576144b361406d565b5b6144c0878288016142e2565b945050602085013567ffffffffffffffff8111156144e1576144e061406d565b5b6144ed878288016143a2565b935050604085013567ffffffffffffffff81111561450e5761450d61406d565b5b61451a878288016143a2565b925050606085013567ffffffffffffffff81111561453b5761453a61406d565b5b61454787828801614452565b91505092959194509250565b5f82825260208201905092915050565b7f73656c662d6f6e6c7900000000000000000000000000000000000000000000005f82015250565b5f614597600983614553565b91506145a282614563565b602082019050919050565b5f6020820190508181035f8301526145c48161458b565b9050919050565b7f4e487b71000000000000000000000000000000000000000000000000000000005f52602160045260245ffd5b7f77726f6e672d6d6f6465000000000000000000000000000000000000000000005f82015250565b5f61462c600a83614553565b9150614637826145f8565b602082019050919050565b5f6020820190508181035f83015261465981614620565b9050919050565b7f4e487b71000000000000000000000000000000000000000000000000000000005f52603260045260245ffd5b5f81519050919050565b5f82825260208201905092915050565b5f819050602082019050919050565b6146bf81614090565b82525050565b5f6146d083836146b6565b60208301905092915050565b5f602082019050919050565b5f6146f28261468d565b6146fc8185614697565b9350614707836146a7565b805f5b8381101561473757815161471e88826146c5565b9750614729836146dc565b92505060018101905061470a565b5085935050505092915050565b5f81519050919050565b5f82825260208201905092915050565b5f819050602082019050919050565b614776816140cb565b82525050565b5f614787838361476d565b60208301905092915050565b5f602082019050919050565b5f6147a982614744565b6147b3818561474e565b93506147be8361475e565b805f5b838110156147ee5781516147d5888261477c565b97506147e083614793565b9250506001810190506147c1565b5085935050505092915050565b5f81519050919050565b5f82825260208201905092915050565b8281835e5f83830152505050565b5f61482d826147fb565b6148378185614805565b9350614847818560208601614815565b614850816141c3565b840191505092915050565b5f60808201905061486e5f83018761416f565b818103602083015261488081866146e8565b90508181036040830152614894818561479f565b905081810360608301526148a88184614823565b905095945050505050565b5f815190506148c1816140d4565b92915050565b5f602082840312156148dc576148db614069565b5b5f6148e9848285016148b3565b91505092915050565b7f6e6f742d7661756c7400000000000000000000000000000000000000000000005f82015250565b5f614926600983614553565b9150614931826148f2565b602082019050919050565b5f6020820190508181035f8301526149538161491a565b9050919050565b7f73696e676c652d746f6b656e2d6f6e6c790000000000000000000000000000005f82015250565b5f61498e601183614553565b91506149998261495a565b602082019050919050565b5f6020820190508181035f8301526149bb81614982565b9050919050565b7f756e65787065637465642d746f6b656e000000000000000000000000000000005f82015250565b5f6149f6601083614553565b9150614a01826149c2565b602082019050919050565b5f6020820190508181035f830152614a23816149ea565b9050919050565b7f6e6f2d63757276652d726f7574652d696e0000000000000000000000000000005f82015250565b5f614a5e601183614553565b9150614a6982614a2a565b602082019050919050565b5f6020820190508181035f830152614a8b81614a52565b9050919050565b7f6e6f2d747573642d66756e6465640000000000000000000000000000000000005f82015250565b5f614ac6600e83614553565b9150614ad182614a92565b602082019050919050565b5f6020820190508181035f830152614af381614aba565b9050919050565b7f4e487b71000000000000000000000000000000000000000000000000000000005f52601160045260245ffd5b5f614b31826140cb565b9150614b3c836140cb565b9250828203905081811115614b5457614b53614afa565b5b92915050565b5f614b64826140cb565b9150614b6f836140cb565b9250828201905080821115614b8757614b86614afa565b5b92915050565b7f696e73756666696369656e742d747573640000000000000000000000000000005f82015250565b5f614bc1601183614553565b9150614bcc82614b8d565b602082019050919050565b5f6020820190508181035f830152614bee81614bb5565b9050919050565b7f6e6f2d63757276652d726f7574652d6f757400000000000000000000000000005f82015250565b5f614c29601283614553565b9150614c3482614bf5565b602082019050919050565b5f6020820190508181035f830152614c5681614c1d565b9050919050565b7f71756f74652d6661696c656400000000000000000000000000000000000000005f82015250565b5f614c91600c83614553565b9150614c9c82614c5d565b602082019050919050565b5f6020820190508181035f830152614cbe81614c85565b9050919050565b7f666c6173682d6c6f616e2d6e6f742d70726f66697461626c65000000000000005f82015250565b5f614cf9601983614553565b9150614d0482614cc5565b602082019050919050565b5f6020820190508181035f830152614d2681614ced565b9050919050565b5f81519050614d3b816140a1565b92915050565b5f60208284031215614d5657614d55614069565b5b5f614d6384828501614d2d565b91505092915050565b5f6020820190508181035f830152614d8481846146e8565b905092915050565b5f614d9e614d998461430f565b614231565b90508083825260208201905060208402830185811115614dc157614dc0614276565b5b835b81811015614dea5780614dd688826148b3565b845260208401935050602081019050614dc3565b5050509392505050565b5f82601f830112614e0857614e076141bf565b5b8151614e18848260208601614d8c565b91505092915050565b5f60208284031215614e3657614e35614069565b5b5f82015167ffffffffffffffff811115614e5357614e5261406d565b5b614e5f84828501614df4565b91505092915050565b7f7a65726f2d7377617000000000000000000000000000000000000000000000005f82015250565b5f614e9c600983614553565b9150614ea782614e68565b602082019050919050565b5f6020820190508181035f830152614ec981614e90565b9050919050565b5f81600f0b9050919050565b614ee581614ed0565b82525050565b5f819050919050565b5f819050919050565b5f614f17614f12614f0d84614eeb565b614ef4565b6140cb565b9050919050565b614f2781614efd565b82525050565b5f608082019050614f405f830187614edc565b614f4d6020830186614edc565b614f5a6040830185614197565b614f676060830184614f1e565b95945050505050565b7f63757276652d7a65726f2d6f75740000000000000000000000000000000000005f82015250565b5f614fa4600e83614553565b9150614faf82614f70565b602082019050919050565b5f6020820190508181035f830152614fd181614f98565b9050919050565b5f604082019050614feb5f83018561416f565b614ff86020830184614197565b9392505050565b5f81905092915050565b5f615013826147fb565b61501d8185614fff565b935061502d818560208601614815565b80840191505092915050565b5f6150448284615009565b915081905092915050565b6150588161413c565b8114615062575f5ffd5b50565b5f815190506150738161504f565b92915050565b5f6020828403121561508e5761508d614069565b5b5f61509b84828501615065565b91505092915050565b7f7472616e736665722d6661696c656400000000000000000000000000000000005f82015250565b5f6150d8600f83614553565b91506150e3826150a4565b602082019050919050565b5f6020820190508181035f830152615105816150cc565b9050919050565b7f4e487b71000000000000000000000000000000000000000000000000000000005f52601260045260245ffd5b5f615143826140cb565b915061514e836140cb565b92508261515e5761515d61510c565b5b828204905092915050565b5f5f5f606084860312156151805761517f614069565b5b5f61518d868287016148b3565b935050602061519e868287016148b3565b92505060406151af868287016148b3565b9150509250925092565b5f6151c3826140cb565b91506151ce836140cb565b92508282026151dc816140cb565b915082820484148315176151f3576151f2614afa565b5b5092915050565b5f60408201905061520d5f83018561416f565b61521a602083018461416f565b9392505050565b5f6060820190506152345f83018661416f565b615241602083018561416f565b61524e6040830184614f1e565b949350505050565b5f6060820190506152695f83018661416f565b615276602083018561416f565b615283604083018461416f565b949350505050565b61529481614ed0565b811461529e575f5ffd5b50565b5f815190506152af8161528b565b92915050565b5f5f5f606084860312156152cc576152cb614069565b5b5f6152d9868287016152a1565b93505060206152ea868287016152a1565b92505060406152fb86828701615065565b9150509250925092565b7f756e737570706f727465642d63757276652d696e6465780000000000000000005f82015250565b5f615339601783614553565b915061534482615305565b602082019050919050565b5f6020820190508181035f8301526153668161532d565b9050919050565b7f617070726f76652d6661696c65640000000000000000000000000000000000005f82015250565b5f6153a1600e83614553565b91506153ac8261536d565b602082019050919050565b5f6020820190508181035f8301526153ce81615395565b9050919050565b5f6060820190506153e85f830186614edc565b6153f56020830185614edc565b6154026040830184614197565b949350505050565b5f60a08201905061541d5f830188614197565b61542a6020830187614f1e565b818103604083015261543c81866146e8565b905061544b606083018561416f565b6154586080830184614197565b969550505050505056fea2646970667358221220d752c1e94c76c3744055d5eb5ae7166af97459b31f18970f789a1b38b940beb564736f6c634300081e0033","linkReferences":{}},"methodIdentifiers":{"addReservesPathProvablyInfeasible()":"e795e7e6","executeOnOpportunity()":"3c2448ed","initiateBalancerFlashLoan(address,uint256)":"09ebc148","liquidationPathProvablyInfeasible()":"27978561","mintPathValidated()":"d559a1c2","profitAmount()":"5ff972cc","profitToken()":"49343624","receiveFlashLoan(address[],uint256[],uint256[],bytes)":"f04f2707","repayPathValidated()":"d41b6b6d"},"id":0}