{"abi":[{"type":"constructor","inputs":[],"stateMutability":"nonpayable"},{"type":"function","name":"owner","inputs":[],"outputs":[{"name":"","type":"address","internalType":"address"}],"stateMutability":"view"},{"type":"function","name":"pull","inputs":[{"name":"token","type":"address","internalType":"address"},{"name":"from","type":"address","internalType":"address"},{"name":"amount","type":"uint256","internalType":"uint256"}],"outputs":[{"name":"","type":"bool","internalType":"bool"}],"stateMutability":"nonpayable"},{"type":"function","name":"sweep","inputs":[{"name":"token","type":"address","internalType":"address"},{"name":"to","type":"address","internalType":"address"}],"outputs":[],"stateMutability":"nonpayable"}],"bytecode":{"object":"0x60a0604052348015600e575f5ffd5b503373ffffffffffffffffffffffffffffffffffffffff1660808173ffffffffffffffffffffffffffffffffffffffff16815250506080516107ed6100685f395f818160b0015281816101e2015261020601526107ed5ff3fe608060405234801561000f575f5ffd5b506004361061003f575f3560e01c80637372c2b5146100435780638da5cb5b14610073578063b8dc491b14610091575b5f5ffd5b61005d600480360381019061005891906104ef565b6100ad565b60405161006a9190610559565b60405180910390f35b61007b6101e0565b6040516100889190610581565b60405180910390f35b6100ab60048036038101906100a6919061059a565b610204565b005b5f7f000000000000000000000000000000000000000000000000000000000000000073ffffffffffffffffffffffffffffffffffffffff163373ffffffffffffffffffffffffffffffffffffffff161461013c576040517f08c379a000000000000000000000000000000000000000000000000000000000815260040161013390610632565b60405180910390fd5b6101d7848430856040516024016101559392919061065f565b6040516020818303038152906040527f23b872dd000000000000000000000000000000000000000000000000000000007bffffffffffffffffffffffffffffffffffffffffffffffffffffffff19166020820180517bffffffffffffffffffffffffffffffffffffffffffffffffffffffff83818316178352505050506103ba565b90509392505050565b7f000000000000000000000000000000000000000000000000000000000000000081565b7f000000000000000000000000000000000000000000000000000000000000000073ffffffffffffffffffffffffffffffffffffffff163373ffffffffffffffffffffffffffffffffffffffff1614610292576040517f08c379a000000000000000000000000000000000000000000000000000000000815260040161028990610632565b60405180910390fd5b5f8273ffffffffffffffffffffffffffffffffffffffff166370a08231306040518263ffffffff1660e01b81526004016102cc9190610581565b602060405180830381865afa1580156102e7573d5f5f3e3d5ffd5b505050506040513d601f19601f8201168201806040525081019061030b91906106a8565b90505f810361031a57506103b6565b6103b38383836040516024016103319291906106d3565b6040516020818303038152906040527fa9059cbb000000000000000000000000000000000000000000000000000000007bffffffffffffffffffffffffffffffffffffffffffffffffffffffff19166020820180517bffffffffffffffffffffffffffffffffffffffffffffffffffffffff83818316178352505050506103ba565b50505b5050565b5f5f5f8473ffffffffffffffffffffffffffffffffffffffff16846040516103e2919061074c565b5f604051808303815f865af19150503d805f811461041b576040519150601f19603f3d011682016040523d82523d5f602084013e610420565b606091505b509150915081610434575f92505050610458565b5f81511480610453575080806020019051810190610452919061078c565b5b925050505b92915050565b5f5ffd5b5f73ffffffffffffffffffffffffffffffffffffffff82169050919050565b5f61048b82610462565b9050919050565b61049b81610481565b81146104a5575f5ffd5b50565b5f813590506104b681610492565b92915050565b5f819050919050565b6104ce816104bc565b81146104d8575f5ffd5b50565b5f813590506104e9816104c5565b92915050565b5f5f5f606084860312156105065761050561045e565b5b5f610513868287016104a8565b9350506020610524868287016104a8565b9250506040610535868287016104db565b9150509250925092565b5f8115159050919050565b6105538161053f565b82525050565b5f60208201905061056c5f83018461054a565b92915050565b61057b81610481565b82525050565b5f6020820190506105945f830184610572565b92915050565b5f5f604083850312156105b0576105af61045e565b5b5f6105bd858286016104a8565b92505060206105ce858286016104a8565b9150509250929050565b5f82825260208201905092915050565b7f4f4e4c595f4f574e4552000000000000000000000000000000000000000000005f82015250565b5f61061c600a836105d8565b9150610627826105e8565b602082019050919050565b5f6020820190508181035f83015261064981610610565b9050919050565b610659816104bc565b82525050565b5f6060820190506106725f830186610572565b61067f6020830185610572565b61068c6040830184610650565b949350505050565b5f815190506106a2816104c5565b92915050565b5f602082840312156106bd576106bc61045e565b5b5f6106ca84828501610694565b91505092915050565b5f6040820190506106e65f830185610572565b6106f36020830184610650565b9392505050565b5f81519050919050565b5f81905092915050565b8281835e5f83830152505050565b5f610726826106fa565b6107308185610704565b935061074081856020860161070e565b80840191505092915050565b5f610757828461071c565b915081905092915050565b61076b8161053f565b8114610775575f5ffd5b50565b5f8151905061078681610762565b92915050565b5f602082840312156107a1576107a061045e565b5b5f6107ae84828501610778565b9150509291505056fea2646970667358221220e316be7ca8f0a58126cf92e45ea47c9aa52f6885fa666c54e2f21f185dd0586264736f6c634300081e0033","linkReferences":{}},"methodIdentifiers":{"owner()":"8da5cb5b","pull(address,address,uint256)":"7372c2b5","sweep(address,address)":"b8dc491b"},"id":0}