{"abi":[{"type":"constructor","inputs":[],"stateMutability":"nonpayable"},{"type":"function","name":"BAT","inputs":[],"outputs":[{"name":"","type":"address","internalType":"address"}],"stateMutability":"view"},{"type":"function","name":"BZRX","inputs":[],"outputs":[{"name":"","type":"address","internalType":"address"}],"stateMutability":"view"},{"type":"function","name":"DAI","inputs":[],"outputs":[{"name":"","type":"address","internalType":"address"}],"stateMutability":"view"},{"type":"function","name":"LINK","inputs":[],"outputs":[{"name":"","type":"address","internalType":"address"}],"stateMutability":"view"},{"type":"function","name":"MKR","inputs":[],"outputs":[{"name":"","type":"address","internalType":"address"}],"stateMutability":"view"},{"type":"function","name":"PAXG","inputs":[],"outputs":[{"name":"","type":"address","internalType":"address"}],"stateMutability":"view"},{"type":"function","name":"REP","inputs":[],"outputs":[{"name":"","type":"address","internalType":"address"}],"stateMutability":"view"},{"type":"function","name":"STA","inputs":[],"outputs":[{"name":"","type":"address","internalType":"address"}],"stateMutability":"view"},{"type":"function","name":"SUSHI_FACTORY","inputs":[],"outputs":[{"name":"","type":"address","internalType":"address"}],"stateMutability":"view"},{"type":"function","name":"TARGET","inputs":[],"outputs":[{"name":"","type":"address","internalType":"address"}],"stateMutability":"view"},{"type":"function","name":"UNI_V2_FACTORY","inputs":[],"outputs":[{"name":"","type":"address","internalType":"address"}],"stateMutability":"view"},{"type":"function","name":"USDC","inputs":[],"outputs":[{"name":"","type":"address","internalType":"address"}],"stateMutability":"view"},{"type":"function","name":"USDT","inputs":[],"outputs":[{"name":"","type":"address","internalType":"address"}],"stateMutability":"view"},{"type":"function","name":"WBTC","inputs":[],"outputs":[{"name":"","type":"address","internalType":"address"}],"stateMutability":"view"},{"type":"function","name":"WETH","inputs":[],"outputs":[{"name":"","type":"address","internalType":"address"}],"stateMutability":"view"},{"type":"function","name":"XAUT","inputs":[],"outputs":[{"name":"","type":"address","internalType":"address"}],"stateMutability":"view"},{"type":"function","name":"YFI","inputs":[],"outputs":[{"name":"","type":"address","internalType":"address"}],"stateMutability":"view"},{"type":"function","name":"ZRX","inputs":[],"outputs":[{"name":"","type":"address","internalType":"address"}],"stateMutability":"view"},{"type":"function","name":"executeOnOpportunity","inputs":[],"outputs":[],"stateMutability":"nonpayable"},{"type":"function","name":"executed","inputs":[],"outputs":[{"name":"","type":"bool","internalType":"bool"}],"stateMutability":"view"},{"type":"function","name":"exploitPathUsed","inputs":[],"outputs":[{"name":"","type":"string","internalType":"string"}],"stateMutability":"view"},{"type":"function","name":"hypothesisRefuted","inputs":[],"outputs":[{"name":"","type":"bool","internalType":"bool"}],"stateMutability":"view"},{"type":"function","name":"hypothesisValidated","inputs":[],"outputs":[{"name":"","type":"bool","internalType":"bool"}],"stateMutability":"view"},{"type":"function","name":"profitAchieved","inputs":[],"outputs":[{"name":"","type":"bool","internalType":"bool"}],"stateMutability":"view"},{"type":"function","name":"profitAmount","inputs":[],"outputs":[{"name":"","type":"uint256","internalType":"uint256"}],"stateMutability":"view"},{"type":"function","name":"profitToken","inputs":[],"outputs":[{"name":"","type":"address","internalType":"address"}],"stateMutability":"view"},{"type":"function","name":"status","inputs":[],"outputs":[{"name":"","type":"string","internalType":"string"}],"stateMutability":"view"},{"type":"function","name":"sushiCall","inputs":[{"name":"sender","type":"address","internalType":"address"},{"name":"amount0","type":"uint256","internalType":"uint256"},{"name":"amount1","type":"uint256","internalType":"uint256"},{"name":"","type":"bytes","internalType":"bytes"}],"outputs":[],"stateMutability":"nonpayable"},{"type":"function","name":"uniswapV2Call","inputs":[{"name":"sender","type":"address","internalType":"address"},{"name":"amount0","type":"uint256","internalType":"uint256"},{"name":"amount1","type":"uint256","internalType":"uint256"},{"name":"","type":"bytes","internalType":"bytes"}],"outputs":[],"stateMutability":"nonpayable"}],"bytecode":{"object":"0x60a060405234801561000f575f5ffd5b5060405161001c90610107565b604051809103905ff080158015610035573d5f5f3e3d5ffd5b5073ffffffffffffffffffffffffffffffffffffffff1660808173ffffffffffffffffffffffffffffffffffffffff168152505073c02aaa39b223fe8d0a0e5c4f27ead9083c756cc260035f6101000a81548173ffffffffffffffffffffffffffffffffffffffff021916908373ffffffffffffffffffffffffffffffffffffffff1602179055506040518060400160405280600781526020017f6e6f742d72756e00000000000000000000000000000000000000000000000000815250600290816101019190610351565b50610420565b61085580615f9e83390190565b5f81519050919050565b7f4e487b71000000000000000000000000000000000000000000000000000000005f52604160045260245ffd5b7f4e487b71000000000000000000000000000000000000000000000000000000005f52602260045260245ffd5b5f600282049050600182168061018f57607f821691505b6020821081036101a2576101a161014b565b5b50919050565b5f819050815f5260205f209050919050565b5f6020601f8301049050919050565b5f82821b905092915050565b5f600883026102047fffffffffffffffffffffffffffffffffffffffffffffffffffffffffffffffff826101c9565b61020e86836101c9565b95508019841693508086168417925050509392505050565b5f819050919050565b5f819050919050565b5f61025261024d61024884610226565b61022f565b610226565b9050919050565b5f819050919050565b61026b83610238565b61027f61027782610259565b8484546101d5565b825550505050565b5f5f905090565b610296610287565b6102a1818484610262565b505050565b5b818110156102c4576102b95f8261028e565b6001810190506102a7565b5050565b601f821115610309576102da816101a8565b6102e3846101ba565b810160208510156102f2578190505b6103066102fe856101ba565b8301826102a6565b50505b505050565b5f82821c905092915050565b5f6103295f198460080261030e565b1980831691505092915050565b5f610341838361031a565b9150826002028217905092915050565b61035a82610114565b67ffffffffffffffff8111156103735761037261011e565b5b61037d8254610178565b6103888282856102c8565b5f60209050601f8311600181146103b9575f84156103a7578287015190505b6103b18582610336565b865550610418565b601f1984166103c7866101a8565b5f5b828110156103ee578489015182556001820191506020850194506020810190506103c9565b8683101561040b5784890151610407601f89168261031a565b8355505b6001600288020188555050505b505050505050565b608051615b4a6104545f395f818161377a015281816137a6015281816137cf0152818161388301526138ab0152615b4a5ff3fe608060405234801561000f575f5ffd5b50600436106101cc575f3560e01c80635ff972cc11610102578063c54e44eb116100a0578063d82d41ac1161006f578063d82d41ac146104a6578063e0bab4c4146104c4578063f0a01176146104e2578063f30127a514610500576101cc565b8063c54e44eb1461042e578063cc1f2afa1461044c578063d40fa8bf1461046a578063d78c428114610488576101cc565b80638d75b0df116100dc5780638d75b0df146103b65780639ca6da2e146103d4578063ad5c4648146103f2578063b753bb4714610410576101cc565b80635ff972cc1461035c578063669096371461037a57806389a3027114610398576101cc565b80633d31a4af1161016f578063495f92f111610149578063495f92f1146102e457806349eb3334146103025780634dede3de146103205780635b7ab8911461033e576101cc565b80633d31a4af1461028a578063463defd1146102a857806349343624146102c6576101cc565b80631b6b6d23116101ab5780631b6b6d2314610226578063200d2ed21461024457806331a38c89146102625780633c2448ed14610280576101cc565b8062991403146101d0578063062f67b2146101ec57806310d1e85c1461020a575b5f5ffd5b6101ea60048036038101906101e5919061443c565b61051e565b005b6101f4610530565b60405161020191906144cf565b60405180910390f35b610224600480360381019061021f919061443c565b610548565b005b61022e61055a565b60405161023b91906144cf565b60405180910390f35b61024c610572565b6040516102599190614558565b60405180910390f35b61026a6105fe565b6040516102779190614592565b60405180910390f35b61028861060f565b005b610292610edc565b60405161029f91906144cf565b60405180910390f35b6102b0610ef4565b6040516102bd9190614592565b60405180910390f35b6102ce610f06565b6040516102db91906144cf565b60405180910390f35b6102ec610f2e565b6040516102f99190614592565b60405180910390f35b61030a610f40565b60405161031791906144cf565b60405180910390f35b610328610f58565b60405161033591906144cf565b60405180910390f35b610346610f70565b60405161035391906144cf565b60405180910390f35b610364610f88565b60405161037191906145ba565b60405180910390f35b610382610f91565b60405161038f91906144cf565b60405180910390f35b6103a0610fa9565b6040516103ad91906144cf565b60405180910390f35b6103be610fc1565b6040516103cb91906144cf565b60405180910390f35b6103dc610fd9565b6040516103e991906144cf565b60405180910390f35b6103fa610ff1565b60405161040791906144cf565b60405180910390f35b610418611009565b60405161042591906144cf565b60405180910390f35b610436611021565b60405161044391906144cf565b60405180910390f35b610454611039565b60405161046191906144cf565b60405180910390f35b610472611051565b60405161047f91906144cf565b60405180910390f35b610490611069565b60405161049d9190614558565b60405180910390f35b6104ae6110f5565b6040516104bb91906144cf565b60405180910390f35b6104cc61110d565b6040516104d991906144cf565b60405180910390f35b6104ea611125565b6040516104f79190614592565b60405180910390f35b610508611137565b60405161051591906144cf565b60405180910390f35b61052985858561114f565b5050505050565b731985365e9f78359a9b6ad760e32412f4a445e86281565b61055385858561114f565b5050505050565b73514910771af9ca656af840dff83e8264ecf986ca81565b6002805461057f90614600565b80601f01602080910402602001604051908101604052809291908181526020018280546105ab90614600565b80156105f65780601f106105cd576101008083540402835291602001916105f6565b820191905f5260205f20905b8154815290600101906020018083116105d957829003601f168201915b505050505081565b5f5f9054906101000a900460ff1681565b5f5f9054906101000a900460ff161561065d576040517f08c379a00000000000000000000000000000000000000000000000000000000081526004016106549061467a565b60405180910390fd5b60015f5f6101000a81548160ff02191690831515021790555073c02aaa39b223fe8d0a0e5c4f27ead9083c756cc260035f6101000a81548173ffffffffffffffffffffffffffffffffffffffff021916908373ffffffffffffffffffffffffffffffffffffffff1602179055505f73b983e01458529665007ff7e0cddecdb74b967eb673ffffffffffffffffffffffffffffffffffffffff1663797bf3856040518163ffffffff1660e01b8152600401602060405180830381865afa158015610728573d5f5f3e3d5ffd5b505050506040513d601f19601f8201168201806040525081019061074c91906146ac565b90505f610758826115eb565b801561076957506107688261175e565b5b15610781576001905061077a611c6c565b5050610eda565b61078961427e565b7345804880de22913dafe09f4980848ece6ecbaf78815f600d81106107b1576107b06146d7565b5b602002019073ffffffffffffffffffffffffffffffffffffffff16908173ffffffffffffffffffffffffffffffffffffffff16815250507368749665ff8d2d112fa859aa293f07a622782f38816001600d8110610811576108106146d7565b5b602002019073ffffffffffffffffffffffffffffffffffffffff16908173ffffffffffffffffffffffffffffffffffffffff168152505073a7de087329bfcda5639247f96140f9dabe3deed1816002600d8110610871576108706146d7565b5b602002019073ffffffffffffffffffffffffffffffffffffffff16908173ffffffffffffffffffffffffffffffffffffffff168152505073dac17f958d2ee523a2206206994597c13d831ec7816003600d81106108d1576108d06146d7565b5b602002019073ffffffffffffffffffffffffffffffffffffffff16908173ffffffffffffffffffffffffffffffffffffffff16815250507356d811088235f11c8920698a204a5010a788f4b3816004600d8110610931576109306146d7565b5b602002019073ffffffffffffffffffffffffffffffffffffffff16908173ffffffffffffffffffffffffffffffffffffffff1681525050732260fac5e5542a773aa44fbcfedf7c193bc2c599816005600d8110610991576109906146d7565b5b602002019073ffffffffffffffffffffffffffffffffffffffff16908173ffffffffffffffffffffffffffffffffffffffff168152505073514910771af9ca656af840dff83e8264ecf986ca816006600d81106109f1576109f06146d7565b5b602002019073ffffffffffffffffffffffffffffffffffffffff16908173ffffffffffffffffffffffffffffffffffffffff1681525050739f8f72aa9304c8b593d555f12ef6589cc3a579a2816007600d8110610a5157610a506146d7565b5b602002019073ffffffffffffffffffffffffffffffffffffffff16908173ffffffffffffffffffffffffffffffffffffffff1681525050730d8775f648430679a709e98d2b0cb6250d2887ef816008600d8110610ab157610ab06146d7565b5b602002019073ffffffffffffffffffffffffffffffffffffffff16908173ffffffffffffffffffffffffffffffffffffffff168152505073e41d2489571d322189246dafa5ebde1f4699f498816009600d8110610b1157610b106146d7565b5b602002019073ffffffffffffffffffffffffffffffffffffffff16908173ffffffffffffffffffffffffffffffffffffffff1681525050731985365e9f78359a9b6ad760e32412f4a445e86281600a600d8110610b7157610b706146d7565b5b602002019073ffffffffffffffffffffffffffffffffffffffff16908173ffffffffffffffffffffffffffffffffffffffff1681525050730bc529c00c6401aef6d220be8c6ea1667f6ad93e81600b600d8110610bd157610bd06146d7565b5b602002019073ffffffffffffffffffffffffffffffffffffffff16908173ffffffffffffffffffffffffffffffffffffffff1681525050736b175474e89094c44da98b954eedeac495271d0f81600c600d8110610c3157610c306146d7565b5b602002019073ffffffffffffffffffffffffffffffffffffffff16908173ffffffffffffffffffffffffffffffffffffffff16815250505f5f90505b600d811015610e07575f8282600d8110610c8a57610c896146d7565b5b602002015190505f73ffffffffffffffffffffffffffffffffffffffff168173ffffffffffffffffffffffffffffffffffffffff161480610cf657508473ffffffffffffffffffffffffffffffffffffffff168173ffffffffffffffffffffffffffffffffffffffff16145b15610d015750610dfa565b5f5f5f1b610d10836001611ec3565b141590505f5f5f1b610d22845f611ec3565b1415905081158015610d32575080155b15610d3f57505050610dfa565b60019550818015610d555750610d5483611f82565b5b15610d6e57610d62611c6c565b50505050505050610eda565b5f60019054906101000a900460ff16158015610d875750805b8015610d985750610d9783612516565b5b15610df65760015f60026101000a81548160ff0219169083151502179055505f60018054610dc590614600565b905003610df5576040518060600160405280603381526020016159dc6033913960019081610df391906148d1565b505b5b5050505b8080600101915050610c6d565b505f60019054906101000a900460ff1615610e2c57610e24611c6c565b505050610eda565b5f60029054906101000a900460ff1615610e7057604051806060016040528060258152602001615a516025913960029081610e6791906148d1565b50505050610eda565b60015f60036101000a81548160ff02191690831515021790555081610ead57604051806060016040528060268152602001615ac460269139610ec7565b6040518060600160405280602b8152602001615aea602b91395b60029081610ed591906148d1565b505050505b565b739f8f72aa9304c8b593d555f12ef6589cc3a579a281565b5f60029054906101000a900460ff1681565b5f60035f9054906101000a900473ffffffffffffffffffffffffffffffffffffffff16905090565b5f60039054906101000a900460ff1681565b735c69bee701ef814a2b6a3edd4b1652cb9cc5aa6f81565b732260fac5e5542a773aa44fbcfedf7c193bc2c59981565b730d8775f648430679a709e98d2b0cb6250d2887ef81565b5f600454905090565b73a7de087329bfcda5639247f96140f9dabe3deed181565b73a0b86991c6218b36c1d19d4a2e9eb0ce3606eb4881565b7368749665ff8d2d112fa859aa293f07a622782f3881565b7345804880de22913dafe09f4980848ece6ecbaf7881565b73c02aaa39b223fe8d0a0e5c4f27ead9083c756cc281565b73c0aee478e3658e2610c5f7a4a2e1777ce9e4f2ac81565b73dac17f958d2ee523a2206206994597c13d831ec781565b73b983e01458529665007ff7e0cddecdb74b967eb681565b73e41d2489571d322189246dafa5ebde1f4699f49881565b6001805461107690614600565b80601f01602080910402602001604051908101604052809291908181526020018280546110a290614600565b80156110ed5780601f106110c4576101008083540402835291602001916110ed565b820191905f5260205f20905b8154815290600101906020018083116110d057829003601f168201915b505050505081565b730bc529c00c6401aef6d220be8c6ea1667f6ad93e81565b736b175474e89094c44da98b954eedeac495271d0f81565b5f60019054906101000a900460ff1681565b7356d811088235f11c8920698a204a5010a788f4b381565b5f60056040518060a00160405290815f82015f9054906101000a900473ffffffffffffffffffffffffffffffffffffffff1673ffffffffffffffffffffffffffffffffffffffff1673ffffffffffffffffffffffffffffffffffffffff168152602001600182015f9054906101000a900473ffffffffffffffffffffffffffffffffffffffff1673ffffffffffffffffffffffffffffffffffffffff1673ffffffffffffffffffffffffffffffffffffffff168152602001600282015f9054906101000a900473ffffffffffffffffffffffffffffffffffffffff1673ffffffffffffffffffffffffffffffffffffffff1673ffffffffffffffffffffffffffffffffffffffff16815260200160038201548152602001600482015f9054906101000a900460ff1660ff1660ff168152505090505f73ffffffffffffffffffffffffffffffffffffffff16815f015173ffffffffffffffffffffffffffffffffffffffff16036112f4576040517f08c379a00000000000000000000000000000000000000000000000000000000081526004016112eb906149ea565b60405180910390fd5b805f015173ffffffffffffffffffffffffffffffffffffffff163373ffffffffffffffffffffffffffffffffffffffff1614611365576040517f08c379a000000000000000000000000000000000000000000000000000000000815260040161135c90614a52565b60405180910390fd5b3073ffffffffffffffffffffffffffffffffffffffff168473ffffffffffffffffffffffffffffffffffffffff16146113d3576040517f08c379a00000000000000000000000000000000000000000000000000000000081526004016113ca90614aba565b60405180910390fd5b5f5f84036113e157826113e3565b835b90505f6113f483602001513061263f565b90505f81141580156114065750818111155b611445576040517f08c379a000000000000000000000000000000000000000000000000000000000815260040161143c90614b22565b60405180910390fd5b6001836080015160ff16036114685761146383602001518383612772565b611478565b61147783602001518383612c25565b5b6040518060a001604052805f73ffffffffffffffffffffffffffffffffffffffff1681526020015f73ffffffffffffffffffffffffffffffffffffffff1681526020015f73ffffffffffffffffffffffffffffffffffffffff1681526020015f81526020015f60ff1681525060055f820151815f015f6101000a81548173ffffffffffffffffffffffffffffffffffffffff021916908373ffffffffffffffffffffffffffffffffffffffff1602179055506020820151816001015f6101000a81548173ffffffffffffffffffffffffffffffffffffffff021916908373ffffffffffffffffffffffffffffffffffffffff1602179055506040820151816002015f6101000a81548173ffffffffffffffffffffffffffffffffffffffff021916908373ffffffffffffffffffffffffffffffffffffffff160217905550606082015181600301556080820151816004015f6101000a81548160ff021916908360ff160217905550905050505050505050565b5f73a7de087329bfcda5639247f96140f9dabe3deed173ffffffffffffffffffffffffffffffffffffffff168273ffffffffffffffffffffffffffffffffffffffff16148061167957507345804880de22913dafe09f4980848ece6ecbaf7873ffffffffffffffffffffffffffffffffffffffff168273ffffffffffffffffffffffffffffffffffffffff16145b806116c357507368749665ff8d2d112fa859aa293f07a622782f3873ffffffffffffffffffffffffffffffffffffffff168273ffffffffffffffffffffffffffffffffffffffff16145b8061170d575073dac17f958d2ee523a2206206994597c13d831ec773ffffffffffffffffffffffffffffffffffffffff168273ffffffffffffffffffffffffffffffffffffffff16145b8061175757507356d811088235f11c8920698a204a5010a788f4b373ffffffffffffffffffffffffffffffffffffffff168273ffffffffffffffffffffffffffffffffffffffff16145b9050919050565b5f5f611769836131b5565b90505f73ffffffffffffffffffffffffffffffffffffffff16815f015173ffffffffffffffffffffffffffffffffffffffff1614806117ec575073c02aaa39b223fe8d0a0e5c4f27ead9083c756cc273ffffffffffffffffffffffffffffffffffffffff16816020015173ffffffffffffffffffffffffffffffffffffffff1614155b156117fa575f915050611c67565b5f604051806080016040528060c881526020016064815260200160328152602001601481525090505f5f90505b6004811015611c60575f828260048110611844576118436146d7565b5b602002015184604001516118589190614b9a565b9050600181116118685750611c53565b5f61187c8286606001518760400151613596565b90505f810361188c575050611c53565b6040518060a00160405280865f015173ffffffffffffffffffffffffffffffffffffffff1681526020018873ffffffffffffffffffffffffffffffffffffffff16815260200173c02aaa39b223fe8d0a0e5c4f27ead9083c756cc273ffffffffffffffffffffffffffffffffffffffff168152602001828152602001600160ff1681525060055f820151815f015f6101000a81548173ffffffffffffffffffffffffffffffffffffffff021916908373ffffffffffffffffffffffffffffffffffffffff1602179055506020820151816001015f6101000a81548173ffffffffffffffffffffffffffffffffffffffff021916908373ffffffffffffffffffffffffffffffffffffffff1602179055506040820151816002015f6101000a81548173ffffffffffffffffffffffffffffffffffffffff021916908373ffffffffffffffffffffffffffffffffffffffff160217905550606082015181600301556080820151816004015f6101000a81548160ff021916908360ff160217905550905050845f015173ffffffffffffffffffffffffffffffffffffffff1663022c0d9f8660800151611a3d575f611a3f565b835b8760800151611a4e5784611a50565b5f5b306001604051602001611a6391906145ba565b6040516020818303038152906040526040518563ffffffff1660e01b8152600401611a919493929190614c1c565b5f604051808303815f87803b158015611aa8575f5ffd5b505af1925050508015611ab9575060015b611c2d576040518060a001604052805f73ffffffffffffffffffffffffffffffffffffffff1681526020015f73ffffffffffffffffffffffffffffffffffffffff1681526020015f73ffffffffffffffffffffffffffffffffffffffff1681526020015f81526020015f60ff1681525060055f820151815f015f6101000a81548173ffffffffffffffffffffffffffffffffffffffff021916908373ffffffffffffffffffffffffffffffffffffffff1602179055506020820151816001015f6101000a81548173ffffffffffffffffffffffffffffffffffffffff021916908373ffffffffffffffffffffffffffffffffffffffff1602179055506040820151816002015f6101000a81548173ffffffffffffffffffffffffffffffffffffffff021916908373ffffffffffffffffffffffffffffffffffffffff160217905550606082015181600301556080820151816004015f6101000a81548160ff021916908360ff160217905550905050611c50565b5f60019054906101000a900460ff1615611c4f57600195505050505050611c67565b5b50505b8080600101915050611827565b505f925050505b919050565b5f73ffffffffffffffffffffffffffffffffffffffff1660035f9054906101000a900473ffffffffffffffffffffffffffffffffffffffff1673ffffffffffffffffffffffffffffffffffffffff1603611d155773c02aaa39b223fe8d0a0e5c4f27ead9083c756cc260035f6101000a81548173ffffffffffffffffffffffffffffffffffffffff021916908373ffffffffffffffffffffffffffffffffffffffff1602179055505b5f611d4160035f9054906101000a900473ffffffffffffffffffffffffffffffffffffffff163061263f565b905073c02aaa39b223fe8d0a0e5c4f27ead9083c756cc273ffffffffffffffffffffffffffffffffffffffff1660035f9054906101000a900473ffffffffffffffffffffffffffffffffffffffff1673ffffffffffffffffffffffffffffffffffffffff1603611db75780600481905550611dc9565b5f60045403611dc857806004819055505b5b67016345785d8a000060045410155f60016101000a81548160ff0219169083151502179055505f60029054906101000a900460ff1680611e1457505f60019054906101000a900460ff165b5f60026101000a81548160ff0219169083151502179055505f60019054906101000a900460ff16611e7a576040518060400160405280601681526020017f70726f6669742d62656c6f772d7468726573686f6c6400000000000000000000815250611eb1565b6040518060400160405280600f81526020017f70726f6669742d616368696576656400000000000000000000000000000000008152505b60029081611ebf91906148d1565b5050565b5f73b983e01458529665007ff7e0cddecdb74b967eb673ffffffffffffffffffffffffffffffffffffffff16633291c11a8484604051602001611f07929190614cf0565b604051602081830303815290604052805190602001205f1c6040518263ffffffff1660e01b8152600401611f3b91906145ba565b602060405180830381865afa158015611f56573d5f5f3e3d5ffd5b505050506040513d601f19601f82011682018060405250810190611f7a9190614d4e565b905092915050565b5f5f611f8d836131b5565b90505f73ffffffffffffffffffffffffffffffffffffffff16815f015173ffffffffffffffffffffffffffffffffffffffff1603611fce575f915050612511565b5f6040518060e001604052806107d081526020016103e881526020016101f4815260200160fa81526020016064815260200160328152602001601481525090505f5f90505b600781101561250a575f8282600781106120305761202f6146d7565b5b602002015184604001516120449190614b9a565b90506001811161205457506124fd565b5f6120688286606001518760400151613596565b90505f81036120785750506124fd565b5f73b983e01458529665007ff7e0cddecdb74b967eb673ffffffffffffffffffffffffffffffffffffffff166304797930846224ea008b6040518463ffffffff1660e01b81526004016120cd93929190614d79565b602060405180830381865afa1580156120e8573d5f5f3e3d5ffd5b505050506040513d601f19601f8201168201806040525081019061210c9190614dc2565b90505f61211d876020015184613622565b905067016345785d8a0000816121339190614ded565b821161214257505050506124fd565b6040518060a00160405280885f015173ffffffffffffffffffffffffffffffffffffffff1681526020018a73ffffffffffffffffffffffffffffffffffffffff168152602001886020015173ffffffffffffffffffffffffffffffffffffffff168152602001848152602001600260ff1681525060055f820151815f015f6101000a81548173ffffffffffffffffffffffffffffffffffffffff021916908373ffffffffffffffffffffffffffffffffffffffff1602179055506020820151816001015f6101000a81548173ffffffffffffffffffffffffffffffffffffffff021916908373ffffffffffffffffffffffffffffffffffffffff1602179055506040820151816002015f6101000a81548173ffffffffffffffffffffffffffffffffffffffff021916908373ffffffffffffffffffffffffffffffffffffffff160217905550606082015181600301556080820151816004015f6101000a81548160ff021916908360ff160217905550905050865f015173ffffffffffffffffffffffffffffffffffffffff1663022c0d9f88608001516122e3575f6122e5565b855b89608001516122f457866122f6565b5f5b30600260405160200161230991906145ba565b6040516020818303038152906040526040518563ffffffff1660e01b81526004016123379493929190614c1c565b5f604051808303815f87803b15801561234e575f5ffd5b505af192505050801561235f575060015b6124d3576040518060a001604052805f73ffffffffffffffffffffffffffffffffffffffff1681526020015f73ffffffffffffffffffffffffffffffffffffffff1681526020015f73ffffffffffffffffffffffffffffffffffffffff1681526020015f81526020015f60ff1681525060055f820151815f015f6101000a81548173ffffffffffffffffffffffffffffffffffffffff021916908373ffffffffffffffffffffffffffffffffffffffff1602179055506020820151816001015f6101000a81548173ffffffffffffffffffffffffffffffffffffffff021916908373ffffffffffffffffffffffffffffffffffffffff1602179055506040820151816002015f6101000a81548173ffffffffffffffffffffffffffffffffffffffff021916908373ffffffffffffffffffffffffffffffffffffffff160217905550606082015181600301556080820151816004015f6101000a81548160ff021916908360ff1602179055509050506124f8565b5f60019054906101000a900460ff16156124f7576001975050505050505050612511565b5b505050505b8080600101915050612013565b505f925050505b919050565b5f5f612522833061263f565b90505f8103612534575f91505061263a565b61253e838261373b565b61254b575f91505061263a565b5f612556843061263f565b90505f8103612569575f9250505061263a565b6125888473b983e01458529665007ff7e0cddecdb74b967eb68361395f565b73b983e01458529665007ff7e0cddecdb74b967eb673ffffffffffffffffffffffffffffffffffffffff166314dfe7925f5f1b671bc16d674ec800005f8589306040518763ffffffff1660e01b81526004016125e996959493929190614ec4565b6060604051808303815f875af192505050801561262457506040513d601f19601f820116820180604052508101906126219190614fe6565b60015b612632575f9250505061263a565b600193505050505b919050565b5f5f5f8473ffffffffffffffffffffffffffffffffffffffff168460405160240161266a91906144cf565b6040516020818303038152906040527f70a08231000000000000000000000000000000000000000000000000000000007bffffffffffffffffffffffffffffffffffffffffffffffffffffffff19166020820180517bffffffffffffffffffffffffffffffffffffffffffffffffffffffff83818316178352505050506040516126f4919061504b565b5f60405180830381855afa9150503d805f811461272c576040519150601f19603f3d011682016040523d82523d5f602084013e612731565b606091505b5091509150811580612744575060208151105b15612753575f9250505061276c565b808060200190518101906127679190614dc2565b925050505b92915050565b5f818311806127875750612786848361373b565b5b9050806127c9576040517f08c379a00000000000000000000000000000000000000000000000000000000081526004016127c0906150ab565b60405180910390fd5b5f6127d4853061263f565b90505f8190506127f98673b983e01458529665007ff7e0cddecdb74b967eb68461395f565b5f73b983e01458529665007ff7e0cddecdb74b967eb673ffffffffffffffffffffffffffffffffffffffff166370a08231306040518263ffffffff1660e01b815260040161284791906144cf565b602060405180830381865afa158015612862573d5f5f3e3d5ffd5b505050506040513d601f19601f820116820180604052508101906128869190614dc2565b90505f73b983e01458529665007ff7e0cddecdb74b967eb673ffffffffffffffffffffffffffffffffffffffff166340c10f1930866040518363ffffffff1660e01b81526004016128d89291906150c9565b6020604051808303815f875af192505050801561291357506040513d601f19601f820116820180604052508101906129109190614dc2565b60015b612952576040517f08c379a00000000000000000000000000000000000000000000000000000000081526004016129499061513a565b60405180910390fd5b809150505f8103612a05575f73b983e01458529665007ff7e0cddecdb74b967eb673ffffffffffffffffffffffffffffffffffffffff166370a08231306040518263ffffffff1660e01b81526004016129ab91906144cf565b602060405180830381865afa1580156129c6573d5f5f3e3d5ffd5b505050506040513d601f19601f820116820180604052508101906129ea9190614dc2565b905082811115612a03578281612a009190615158565b91505b505b5f8103612a47576040517f08c379a0000000000000000000000000000000000000000000000000000000008152600401612a3e906151d5565b60405180910390fd5b60015f60026101000a81548160ff021916908315150217905550604051806080016040528060428152602001615a0f6042913960019081612a8891906148d1565b5073b983e01458529665007ff7e0cddecdb74b967eb673ffffffffffffffffffffffffffffffffffffffff16639dc29fac30836040518363ffffffff1660e01b8152600401612ad89291906150c9565b6020604051808303815f875af1925050508015612b1357506040513d601f19601f82011682018060405250810190612b109190614dc2565b60015b612b52576040517f08c379a0000000000000000000000000000000000000000000000000000000008152600401612b499061523d565b60405180910390fd5b5f612b5d8a3061263f565b9050848111612ba1576040517f08c379a0000000000000000000000000000000000000000000000000000000008152600401612b98906152a5565b60405180910390fd5b8960035f6101000a81548173ffffffffffffffffffffffffffffffffffffffff021916908373ffffffffffffffffffffffffffffffffffffffff1602179055508481612bed9190615158565b60048190555067016345785d8a000060045410155f60016101000a81548160ff02191690831515021790555050505050505050505050565b5f81831180612c3a5750612c39848361373b565b5b905080612c7c576040517f08c379a0000000000000000000000000000000000000000000000000000000008152600401612c739061530d565b60405180910390fd5b5f612c87853061263f565b9050612ca88573b983e01458529665007ff7e0cddecdb74b967eb68361395f565b5f612cdc60056002015f9054906101000a900473ffffffffffffffffffffffffffffffffffffffff16600560030154613622565b90505f73b983e01458529665007ff7e0cddecdb74b967eb673ffffffffffffffffffffffffffffffffffffffff166304797930846224ea008a6040518463ffffffff1660e01b8152600401612d3393929190614d79565b602060405180830381865afa158015612d4e573d5f5f3e3d5ffd5b505050506040513d601f19601f82011682018060405250810190612d729190614dc2565b905067016345785d8a000082612d889190614ded565b8111612dc9576040517f08c379a0000000000000000000000000000000000000000000000000000000008152600401612dc090615375565b60405180910390fd5b5f6101f482612dd89190614b9a565b82612de39190615158565b90505f612e0473c02aaa39b223fe8d0a0e5c4f27ead9083c756cc23061263f565b905073b983e01458529665007ff7e0cddecdb74b967eb673ffffffffffffffffffffffffffffffffffffffff16632ea295fa5f5f1b846224ea00898e30306040518863ffffffff1660e01b8152600401612e649796959493929190615393565b6060604051808303815f875af1925050508015612e9f57506040513d601f19601f82011682018060405250810190612e9c9190614fe6565b60015b612ede576040517f08c379a0000000000000000000000000000000000000000000000000000000008152600401612ed59061545e565b60405180910390fd5b60015f60026101000a81548160ff0219169083151502179055506040518060800160405280604e8152602001615a76604e913960019081612f1f91906148d1565b50505f612f4073c02aaa39b223fe8d0a0e5c4f27ead9083c756cc23061263f565b9050818111612f84576040517f08c379a0000000000000000000000000000000000000000000000000000000008152600401612f7b906154c6565b60405180910390fd5b73c02aaa39b223fe8d0a0e5c4f27ead9083c756cc273ffffffffffffffffffffffffffffffffffffffff1660056002015f9054906101000a900473ffffffffffffffffffffffffffffffffffffffff1673ffffffffffffffffffffffffffffffffffffffff160361303b5761303673c02aaa39b223fe8d0a0e5c4f27ead9083c756cc260055f015f9054906101000a900473ffffffffffffffffffffffffffffffffffffffff16600560030154613a98565b6130c7565b61306e60056002015f9054906101000a900473ffffffffffffffffffffffffffffffffffffffff16600560030154613b75565b506130c660056002015f9054906101000a900473ffffffffffffffffffffffffffffffffffffffff1660055f015f9054906101000a900473ffffffffffffffffffffffffffffffffffffffff16600560030154613a98565b5b5f6130e673c02aaa39b223fe8d0a0e5c4f27ead9083c756cc23061263f565b905067016345785d8a0000811015613133576040517f08c379a000000000000000000000000000000000000000000000000000000000815260040161312a9061552e565b60405180910390fd5b60015f60016101000a81548160ff02191690831515021790555073c02aaa39b223fe8d0a0e5c4f27ead9083c756cc260035f6101000a81548173ffffffffffffffffffffffffffffffffffffffff021916908373ffffffffffffffffffffffffffffffffffffffff160217905550806004819055505050505050505050505050565b6131bd6142a1565b6131c56142f9565b73a0b86991c6218b36c1d19d4a2e9eb0ce3606eb48815f600481106131ed576131ec6146d7565b5b602002019073ffffffffffffffffffffffffffffffffffffffff16908173ffffffffffffffffffffffffffffffffffffffff168152505073dac17f958d2ee523a2206206994597c13d831ec78160016004811061324d5761324c6146d7565b5b602002019073ffffffffffffffffffffffffffffffffffffffff16908173ffffffffffffffffffffffffffffffffffffffff1681525050736b175474e89094c44da98b954eedeac495271d0f816002600481106132ad576132ac6146d7565b5b602002019073ffffffffffffffffffffffffffffffffffffffff16908173ffffffffffffffffffffffffffffffffffffffff168152505073c02aaa39b223fe8d0a0e5c4f27ead9083c756cc28160036004811061330d5761330c6146d7565b5b602002019073ffffffffffffffffffffffffffffffffffffffff16908173ffffffffffffffffffffffffffffffffffffffff168152505061334c61431b565b735c69bee701ef814a2b6a3edd4b1652cb9cc5aa6f815f60028110613374576133736146d7565b5b602002019073ffffffffffffffffffffffffffffffffffffffff16908173ffffffffffffffffffffffffffffffffffffffff168152505073c0aee478e3658e2610c5f7a4a2e1777ce9e4f2ac816001600281106133d4576133d36146d7565b5b602002019073ffffffffffffffffffffffffffffffffffffffff16908173ffffffffffffffffffffffffffffffffffffffff16815250505f5f90505b600481101561358e575f83826004811061342d5761342c6146d7565b5b602002015190508573ffffffffffffffffffffffffffffffffffffffff168173ffffffffffffffffffffffffffffffffffffffff160361346d5750613581565b5f5f90505b600281101561357e575f61349e858360028110613492576134916146d7565b5b60200201518985613d75565b90505f73ffffffffffffffffffffffffffffffffffffffff168173ffffffffffffffffffffffffffffffffffffffff16036134d95750613571565b5f5f5f6134e7848c88613e93565b9250925092505f8314806134fa57505f82145b156135085750505050613571565b896040015183111561356c576040518060a001604052808573ffffffffffffffffffffffffffffffffffffffff1681526020018773ffffffffffffffffffffffffffffffffffffffff16815260200184815260200183815260200182151581525099505b505050505b8080600101915050613472565b50505b8080600101915050613410565b505050919050565b5f5f8414806135a457505f83145b806135ae57505f82145b806135b95750818410155b156135c6575f905061361b565b5f6103e885856135d6919061554c565b6135e0919061554c565b90505f6103e586856135f29190615158565b6135fc919061554c565b90506001818361360c9190614b9a565b6136169190614ded565b925050505b9392505050565b5f5f8203613632575f9050613735565b73c02aaa39b223fe8d0a0e5c4f27ead9083c756cc273ffffffffffffffffffffffffffffffffffffffff168373ffffffffffffffffffffffffffffffffffffffff160361368157819050613735565b5f6136a08473c02aaa39b223fe8d0a0e5c4f27ead9083c756cc261415d565b90505f73ffffffffffffffffffffffffffffffffffffffff168173ffffffffffffffffffffffffffffffffffffffff16036136fe577fffffffffffffffffffffffffffffffffffffffffffffffffffffffffffffffff915050613735565b5f5f61371f838773c02aaa39b223fe8d0a0e5c4f27ead9083c756cc2613e93565b509150915061372f858284613596565b93505050505b92915050565b5f5f6103e88361374b9190614b9a565b90505f8103613764576002836137619190614b9a565b90505b5f8103613774575f915050613959565b61379f847f00000000000000000000000000000000000000000000000000000000000000008361395f565b5f6137ca857f000000000000000000000000000000000000000000000000000000000000000061263f565b90505f7f000000000000000000000000000000000000000000000000000000000000000073ffffffffffffffffffffffffffffffffffffffff16637372c2b58730866040518463ffffffff1660e01b815260040161382a9392919061558d565b6020604051808303815f875af1158015613846573d5f5f3e3d5ffd5b505050506040513d601f19601f8201168201806040525081019061386a91906155ec565b90508061387c575f9350505050613959565b5f6138a7877f000000000000000000000000000000000000000000000000000000000000000061263f565b90507f000000000000000000000000000000000000000000000000000000000000000073ffffffffffffffffffffffffffffffffffffffff1663b8dc491b88306040518363ffffffff1660e01b8152600401613904929190615617565b5f604051808303815f87803b15801561391b575f5ffd5b505af115801561392d573d5f5f3e3d5ffd5b50505050828111613944575f945050505050613959565b8383826139519190615158565b109450505050505b92915050565b6139f883835f60405160240161397692919061567a565b6040516020818303038152906040527f095ea7b3000000000000000000000000000000000000000000000000000000007bffffffffffffffffffffffffffffffffffffffffffffffffffffffff19166020820180517bffffffffffffffffffffffffffffffffffffffffffffffffffffffff83818316178352505050506141da565b50613a92838383604051602401613a109291906150c9565b6040516020818303038152906040527f095ea7b3000000000000000000000000000000000000000000000000000000007bffffffffffffffffffffffffffffffffffffffffffffffffffffffff19166020820180517bffffffffffffffffffffffffffffffffffffffffffffffffffffffff83818316178352505050506141da565b50505050565b613b31838383604051602401613aaf9291906150c9565b6040516020818303038152906040527fa9059cbb000000000000000000000000000000000000000000000000000000007bffffffffffffffffffffffffffffffffffffffffffffffffffffffff19166020820180517bffffffffffffffffffffffffffffffffffffffffffffffffffffffff83818316178352505050506141da565b613b70576040517f08c379a0000000000000000000000000000000000000000000000000000000008152600401613b67906156eb565b60405180910390fd5b505050565b5f5f613b958473c02aaa39b223fe8d0a0e5c4f27ead9083c756cc261415d565b90505f73ffffffffffffffffffffffffffffffffffffffff168173ffffffffffffffffffffffffffffffffffffffff1603613c05576040517f08c379a0000000000000000000000000000000000000000000000000000000008152600401613bfc90615753565b60405180910390fd5b5f5f5f613c27848873c02aaa39b223fe8d0a0e5c4f27ead9083c756cc2613e93565b925092509250613c38868385613596565b94505f8503613c7c576040517f08c379a0000000000000000000000000000000000000000000000000000000008152600401613c73906157bb565b60405180910390fd5b613c9b73c02aaa39b223fe8d0a0e5c4f27ead9083c756cc28587613a98565b8373ffffffffffffffffffffffffffffffffffffffff1663022c0d9f82613cc2575f613cc4565b875b83613ccf5788613cd1565b5f5b305f67ffffffffffffffff811115613cec57613ceb614704565b5b6040519080825280601f01601f191660200182016040528015613d1e5781602001600182028036833780820191505090505b506040518563ffffffff1660e01b8152600401613d3e9493929190614c1c565b5f604051808303815f87803b158015613d55575f5ffd5b505af1158015613d67573d5f5f3e3d5ffd5b505050505050505092915050565b5f5f5f8573ffffffffffffffffffffffffffffffffffffffff1663e6a4390560e01b8686604051602401613daa929190615617565b604051602081830303815290604052907bffffffffffffffffffffffffffffffffffffffffffffffffffffffff19166020820180517bffffffffffffffffffffffffffffffffffffffffffffffffffffffff8381831617835250505050604051613e14919061504b565b5f60405180830381855afa9150503d805f8114613e4c576040519150601f19603f3d011682016040523d82523d5f602084013e613e51565b606091505b5091509150811580613e64575060208151105b15613e73575f92505050613e8c565b80806020019051810190613e879190615814565b925050505b9392505050565b5f5f5f5f8673ffffffffffffffffffffffffffffffffffffffff16630dfe16816040518163ffffffff1660e01b8152600401602060405180830381865afa158015613ee0573d5f5f3e3d5ffd5b505050506040513d601f19601f82011682018060405250810190613f0491906146ac565b90505f5f8873ffffffffffffffffffffffffffffffffffffffff16630902f1ac6040518163ffffffff1660e01b8152600401606060405180830381865afa158015613f51573d5f5f3e3d5ffd5b505050506040513d601f19601f82011682018060405250810190613f7591906158bb565b50915091508773ffffffffffffffffffffffffffffffffffffffff168373ffffffffffffffffffffffffffffffffffffffff16036140b9578673ffffffffffffffffffffffffffffffffffffffff168973ffffffffffffffffffffffffffffffffffffffff1663d21220a76040518163ffffffff1660e01b8152600401602060405180830381865afa15801561400d573d5f5f3e3d5ffd5b505050506040513d601f19601f8201168201806040525081019061403191906146ac565b73ffffffffffffffffffffffffffffffffffffffff1614614087576040517f08c379a000000000000000000000000000000000000000000000000000000000815260040161407e90615955565b60405180910390fd5b816dffffffffffffffffffffffffffff16816dffffffffffffffffffffffffffff166001955095509550505050614154565b8673ffffffffffffffffffffffffffffffffffffffff168373ffffffffffffffffffffffffffffffffffffffff1614614127576040517f08c379a000000000000000000000000000000000000000000000000000000000815260040161411e906159bd565b60405180910390fd5b806dffffffffffffffffffffffffffff16826dffffffffffffffffffffffffffff165f9550955095505050505b93509350939050565b5f61417d735c69bee701ef814a2b6a3edd4b1652cb9cc5aa6f8484613d75565b90505f73ffffffffffffffffffffffffffffffffffffffff168173ffffffffffffffffffffffffffffffffffffffff16036141d4576141d173c0aee478e3658e2610c5f7a4a2e1777ce9e4f2ac8484613d75565b90505b92915050565b5f5f5f8473ffffffffffffffffffffffffffffffffffffffff1684604051614202919061504b565b5f604051808303815f865af19150503d805f811461423b576040519150601f19603f3d011682016040523d82523d5f602084013e614240565b606091505b509150915081614254575f92505050614278565b5f8151148061427357508080602001905181019061427291906155ec565b5b925050505b92915050565b604051806101a00160405280600d90602082028036833780820191505090505090565b6040518060a001604052805f73ffffffffffffffffffffffffffffffffffffffff1681526020015f73ffffffffffffffffffffffffffffffffffffffff1681526020015f81526020015f81526020015f151581525090565b6040518060800160405280600490602082028036833780820191505090505090565b6040518060400160405280600290602082028036833780820191505090505090565b5f604051905090565b5f5ffd5b5f5ffd5b5f73ffffffffffffffffffffffffffffffffffffffff82169050919050565b5f6143778261434e565b9050919050565b6143878161436d565b8114614391575f5ffd5b50565b5f813590506143a28161437e565b92915050565b5f819050919050565b6143ba816143a8565b81146143c4575f5ffd5b50565b5f813590506143d5816143b1565b92915050565b5f5ffd5b5f5ffd5b5f5ffd5b5f5f83601f8401126143fc576143fb6143db565b5b8235905067ffffffffffffffff811115614419576144186143df565b5b602083019150836001820283011115614435576144346143e3565b5b9250929050565b5f5f5f5f5f6080868803121561445557614454614346565b5b5f61446288828901614394565b9550506020614473888289016143c7565b9450506040614484888289016143c7565b935050606086013567ffffffffffffffff8111156144a5576144a461434a565b5b6144b1888289016143e7565b92509250509295509295909350565b6144c98161436d565b82525050565b5f6020820190506144e25f8301846144c0565b92915050565b5f81519050919050565b5f82825260208201905092915050565b8281835e5f83830152505050565b5f601f19601f8301169050919050565b5f61452a826144e8565b61453481856144f2565b9350614544818560208601614502565b61454d81614510565b840191505092915050565b5f6020820190508181035f8301526145708184614520565b905092915050565b5f8115159050919050565b61458c81614578565b82525050565b5f6020820190506145a55f830184614583565b92915050565b6145b4816143a8565b82525050565b5f6020820190506145cd5f8301846145ab565b92915050565b7f4e487b71000000000000000000000000000000000000000000000000000000005f52602260045260245ffd5b5f600282049050600182168061461757607f821691505b60208210810361462a576146296145d3565b5b50919050565b7f414c52454144595f4558454355544544000000000000000000000000000000005f82015250565b5f6146646010836144f2565b915061466f82614630565b602082019050919050565b5f6020820190508181035f83015261469181614658565b9050919050565b5f815190506146a68161437e565b92915050565b5f602082840312156146c1576146c0614346565b5b5f6146ce84828501614698565b91505092915050565b7f4e487b71000000000000000000000000000000000000000000000000000000005f52603260045260245ffd5b7f4e487b71000000000000000000000000000000000000000000000000000000005f52604160045260245ffd5b5f819050815f5260205f209050919050565b5f6020601f8301049050919050565b5f82821b905092915050565b5f6008830261478d7fffffffffffffffffffffffffffffffffffffffffffffffffffffffffffffffff82614752565b6147978683614752565b95508019841693508086168417925050509392505050565b5f819050919050565b5f6147d26147cd6147c8846143a8565b6147af565b6143a8565b9050919050565b5f819050919050565b6147eb836147b8565b6147ff6147f7826147d9565b84845461475e565b825550505050565b5f5f905090565b614816614807565b6148218184846147e2565b505050565b5b81811015614844576148395f8261480e565b600181019050614827565b5050565b601f8211156148895761485a81614731565b61486384614743565b81016020851015614872578190505b61488661487e85614743565b830182614826565b50505b505050565b5f82821c905092915050565b5f6148a95f198460080261488e565b1980831691505092915050565b5f6148c1838361489a565b9150826002028217905092915050565b6148da826144e8565b67ffffffffffffffff8111156148f3576148f2614704565b5b6148fd8254614600565b614908828285614848565b5f60209050601f831160018114614939575f8415614927578287015190505b61493185826148b6565b865550614998565b601f19841661494786614731565b5f5b8281101561496e57848901518255600182019150602085019450602081019050614949565b8683101561498b5784890151614987601f89168261489a565b8355505b6001600288020188555050505b505050505050565b7f4e4f5f434f4e54455854000000000000000000000000000000000000000000005f82015250565b5f6149d4600a836144f2565b91506149df826149a0565b602082019050919050565b5f6020820190508181035f830152614a01816149c8565b9050919050565b7f4241445f504149520000000000000000000000000000000000000000000000005f82015250565b5f614a3c6008836144f2565b9150614a4782614a08565b602082019050919050565b5f6020820190508181035f830152614a6981614a30565b9050919050565b7f4241445f53454e444552000000000000000000000000000000000000000000005f82015250565b5f614aa4600a836144f2565b9150614aaf82614a70565b602082019050919050565b5f6020820190508181035f830152614ad181614a98565b9050919050565b7f4241445f464c4153485f414d4f554e54000000000000000000000000000000005f82015250565b5f614b0c6010836144f2565b9150614b1782614ad8565b602082019050919050565b5f6020820190508181035f830152614b3981614b00565b9050919050565b7f4e487b71000000000000000000000000000000000000000000000000000000005f52601260045260245ffd5b7f4e487b71000000000000000000000000000000000000000000000000000000005f52601160045260245ffd5b5f614ba4826143a8565b9150614baf836143a8565b925082614bbf57614bbe614b40565b5b828204905092915050565b5f81519050919050565b5f82825260208201905092915050565b5f614bee82614bca565b614bf88185614bd4565b9350614c08818560208601614502565b614c1181614510565b840191505092915050565b5f608082019050614c2f5f8301876145ab565b614c3c60208301866145ab565b614c4960408301856144c0565b8181036060830152614c5b8184614be4565b905095945050505050565b5f8160601b9050919050565b5f614c7c82614c66565b9050919050565b5f614c8d82614c72565b9050919050565b614ca5614ca08261436d565b614c83565b82525050565b5f8160f81b9050919050565b5f614cc182614cab565b9050919050565b5f614cd282614cb7565b9050919050565b614cea614ce582614578565b614cc8565b82525050565b5f614cfb8285614c94565b601482019150614d0b8284614cd9565b6001820191508190509392505050565b5f819050919050565b614d2d81614d1b565b8114614d37575f5ffd5b50565b5f81519050614d4881614d24565b92915050565b5f60208284031215614d6357614d62614346565b5b5f614d7084828501614d3a565b91505092915050565b5f606082019050614d8c5f8301866145ab565b614d9960208301856145ab565b614da660408301846144c0565b949350505050565b5f81519050614dbc816143b1565b92915050565b5f60208284031215614dd757614dd6614346565b5b5f614de484828501614dae565b91505092915050565b5f614df7826143a8565b9150614e02836143a8565b9250828201905080821115614e1a57614e19614b6d565b5b92915050565b614e2981614d1b565b82525050565b5f819050919050565b5f614e52614e4d614e4884614e2f565b6147af565b6143a8565b9050919050565b614e6281614e38565b82525050565b5f819050919050565b5f614e8b614e86614e8184614e68565b6147af565b6143a8565b9050919050565b614e9b81614e71565b82525050565b50565b5f614eaf5f83614bd4565b9150614eba82614ea1565b5f82019050919050565b5f60e082019050614ed75f830189614e20565b614ee46020830188614e59565b614ef16040830187614e92565b614efe60608301866145ab565b614f0b60808301856144c0565b614f1860a08301846144c0565b81810360c0830152614f2981614ea4565b9050979650505050505050565b5f5ffd5b614f4382614510565b810181811067ffffffffffffffff82111715614f6257614f61614704565b5b80604052505050565b5f614f7461433d565b9050614f808282614f3a565b919050565b5f60608284031215614f9a57614f99614f36565b5b614fa46060614f6b565b90505f614fb384828501614d3a565b5f830152506020614fc684828501614dae565b6020830152506040614fda84828501614dae565b60408301525092915050565b5f60608284031215614ffb57614ffa614346565b5b5f61500884828501614f85565b91505092915050565b5f81905092915050565b5f61502582614bca565b61502f8185615011565b935061503f818560208601614502565b80840191505092915050565b5f615056828461501b565b915081905092915050565b7f4c4f414e5f544f4b454e5f4e4f545f4645455f4f4e5f5452414e5346455200005f82015250565b5f615095601e836144f2565b91506150a082615061565b602082019050919050565b5f6020820190508181035f8301526150c281615089565b9050919050565b5f6040820190506150dc5f8301856144c0565b6150e960208301846145ab565b9392505050565b7f4d494e545f504154485f4641494c4544000000000000000000000000000000005f82015250565b5f6151246010836144f2565b915061512f826150f0565b602082019050919050565b5f6020820190508181035f83015261515181615118565b9050919050565b5f615162826143a8565b915061516d836143a8565b925082820390508181111561518557615184614b6d565b5b92915050565b7f4e4f5f53484152455300000000000000000000000000000000000000000000005f82015250565b5f6151bf6009836144f2565b91506151ca8261518b565b602082019050919050565b5f6020820190508181035f8301526151ec816151b3565b9050919050565b7f4255524e5f504154485f4641494c4544000000000000000000000000000000005f82015250565b5f6152276010836144f2565b9150615232826151f3565b602082019050919050565b5f6020820190508181035f8301526152548161521b565b9050919050565b7f4e4f5f4d494e545f5350524541440000000000000000000000000000000000005f82015250565b5f61528f600e836144f2565b915061529a8261525b565b602082019050919050565b5f6020820190508181035f8301526152bc81615283565b9050919050565b7f434f4c4c41544552414c5f4e4f545f4645455f4f4e5f5452414e5346455200005f82015250565b5f6152f7601e836144f2565b9150615302826152c3565b602082019050919050565b5f6020820190508181035f830152615324816152eb565b9050919050565b7f4e4f545f50524f46495441424c450000000000000000000000000000000000005f82015250565b5f61535f600e836144f2565b915061536a8261532b565b602082019050919050565b5f6020820190508181035f83015261538c81615353565b9050919050565b5f610100820190506153a75f83018a614e20565b6153b460208301896145ab565b6153c160408301886145ab565b6153ce60608301876145ab565b6153db60808301866144c0565b6153e860a08301856144c0565b6153f560c08301846144c0565b81810360e083015261540681614ea4565b905098975050505050505050565b7f424f52524f575f504154485f4641494c454400000000000000000000000000005f82015250565b5f6154486012836144f2565b915061545382615414565b602082019050919050565b5f6020820190508181035f8301526154758161543c565b9050919050565b7f4e4f5f574554485f424f52524f574544000000000000000000000000000000005f82015250565b5f6154b06010836144f2565b91506154bb8261547c565b602082019050919050565b5f6020820190508181035f8301526154dd816154a4565b9050919050565b7f50524f4649545f42454c4f575f5448524553484f4c44000000000000000000005f82015250565b5f6155186016836144f2565b9150615523826154e4565b602082019050919050565b5f6020820190508181035f8301526155458161550c565b9050919050565b5f615556826143a8565b9150615561836143a8565b925082820261556f816143a8565b9150828204841483151761558657615585614b6d565b5b5092915050565b5f6060820190506155a05f8301866144c0565b6155ad60208301856144c0565b6155ba60408301846145ab565b949350505050565b6155cb81614578565b81146155d5575f5ffd5b50565b5f815190506155e6816155c2565b92915050565b5f6020828403121561560157615600614346565b5b5f61560e848285016155d8565b91505092915050565b5f60408201905061562a5f8301856144c0565b61563760208301846144c0565b9392505050565b5f60ff82169050919050565b5f61566461565f61565a84614e68565b6147af565b61563e565b9050919050565b6156748161564a565b82525050565b5f60408201905061568d5f8301856144c0565b61569a602083018461566b565b9392505050565b7f5452414e534645525f4641494c454400000000000000000000000000000000005f82015250565b5f6156d5600f836144f2565b91506156e0826156a1565b602082019050919050565b5f6020820190508181035f830152615702816156c9565b9050919050565b7f4e4f5f574554485f52455041595f524f555445000000000000000000000000005f82015250565b5f61573d6013836144f2565b915061574882615709565b602082019050919050565b5f6020820190508181035f83015261576a81615731565b9050919050565b7f4241445f574554485f52455041595f51554f54450000000000000000000000005f82015250565b5f6157a56014836144f2565b91506157b082615771565b602082019050919050565b5f6020820190508181035f8301526157d281615799565b9050919050565b5f6157e38261434e565b9050919050565b6157f3816157d9565b81146157fd575f5ffd5b50565b5f8151905061580e816157ea565b92915050565b5f6020828403121561582957615828614346565b5b5f61583684828501615800565b91505092915050565b5f6dffffffffffffffffffffffffffff82169050919050565b6158618161583f565b811461586b575f5ffd5b50565b5f8151905061587c81615858565b92915050565b5f63ffffffff82169050919050565b61589a81615882565b81146158a4575f5ffd5b50565b5f815190506158b581615891565b92915050565b5f5f5f606084860312156158d2576158d1614346565b5b5f6158df8682870161586e565b93505060206158f08682870161586e565b9250506040615901868287016158a7565b9150509250925092565b7f4241445f504149525f41535345540000000000000000000000000000000000005f82015250565b5f61593f600e836144f2565b915061594a8261590b565b602082019050919050565b5f6020820190508181035f83015261596c81615933565b9050919050565b7f4241445f504149525f51554f54450000000000000000000000000000000000005f82015250565b5f6159a7600e836144f2565b91506159b282615973565b602082019050919050565b5f6020820190508181035f8301526159d48161599b565b905091905056fe6d617267696e547261646528636f6c6c61746572616c546f6b656e53656e7429206e6f6d696e616c206163636f756e74696e676d696e74286465706f736974416d6f756e7429206f76657263726564697473206665652d6f6e2d7472616e73666572206c6f616e546f6b656e206465706f7369747376616c6964617465642d776974686f75742d706f7369746976652d6e65742d70726f666974626f72726f7728636f6c6c61746572616c546f6b656e53656e7429206e6f6d696e616c206163636f756e74696e67207769746820616c7465726e617465207075626c6963206c69717569646974796e6f2d737570706f727465642d6665652d746f6b656e2d706174682d646973636f76657265646665652d746f6b656e2d70617468732d70726f6265642d6275742d6e6f742d73656c662d66756e64696e67a26469706673582212204416d30b39e06e6efccfe501ff736f77caf42194c8c147c365d47676bbed2faa64736f6c634300081e003360a0604052348015600e575f5ffd5b503373ffffffffffffffffffffffffffffffffffffffff1660808173ffffffffffffffffffffffffffffffffffffffff16815250506080516107ed6100685f395f818160b0015281816101e2015261020601526107ed5ff3fe608060405234801561000f575f5ffd5b506004361061003f575f3560e01c80637372c2b5146100435780638da5cb5b14610073578063b8dc491b14610091575b5f5ffd5b61005d600480360381019061005891906104ef565b6100ad565b60405161006a9190610559565b60405180910390f35b61007b6101e0565b6040516100889190610581565b60405180910390f35b6100ab60048036038101906100a6919061059a565b610204565b005b5f7f000000000000000000000000000000000000000000000000000000000000000073ffffffffffffffffffffffffffffffffffffffff163373ffffffffffffffffffffffffffffffffffffffff161461013c576040517f08c379a000000000000000000000000000000000000000000000000000000000815260040161013390610632565b60405180910390fd5b6101d7848430856040516024016101559392919061065f565b6040516020818303038152906040527f23b872dd000000000000000000000000000000000000000000000000000000007bffffffffffffffffffffffffffffffffffffffffffffffffffffffff19166020820180517bffffffffffffffffffffffffffffffffffffffffffffffffffffffff83818316178352505050506103ba565b90509392505050565b7f000000000000000000000000000000000000000000000000000000000000000081565b7f000000000000000000000000000000000000000000000000000000000000000073ffffffffffffffffffffffffffffffffffffffff163373ffffffffffffffffffffffffffffffffffffffff1614610292576040517f08c379a000000000000000000000000000000000000000000000000000000000815260040161028990610632565b60405180910390fd5b5f8273ffffffffffffffffffffffffffffffffffffffff166370a08231306040518263ffffffff1660e01b81526004016102cc9190610581565b602060405180830381865afa1580156102e7573d5f5f3e3d5ffd5b505050506040513d601f19601f8201168201806040525081019061030b91906106a8565b90505f810361031a57506103b6565b6103b38383836040516024016103319291906106d3565b6040516020818303038152906040527fa9059cbb000000000000000000000000000000000000000000000000000000007bffffffffffffffffffffffffffffffffffffffffffffffffffffffff19166020820180517bffffffffffffffffffffffffffffffffffffffffffffffffffffffff83818316178352505050506103ba565b50505b5050565b5f5f5f8473ffffffffffffffffffffffffffffffffffffffff16846040516103e2919061074c565b5f604051808303815f865af19150503d805f811461041b576040519150601f19603f3d011682016040523d82523d5f602084013e610420565b606091505b509150915081610434575f92505050610458565b5f81511480610453575080806020019051810190610452919061078c565b5b925050505b92915050565b5f5ffd5b5f73ffffffffffffffffffffffffffffffffffffffff82169050919050565b5f61048b82610462565b9050919050565b61049b81610481565b81146104a5575f5ffd5b50565b5f813590506104b681610492565b92915050565b5f819050919050565b6104ce816104bc565b81146104d8575f5ffd5b50565b5f813590506104e9816104c5565b92915050565b5f5f5f606084860312156105065761050561045e565b5b5f610513868287016104a8565b9350506020610524868287016104a8565b9250506040610535868287016104db565b9150509250925092565b5f8115159050919050565b6105538161053f565b82525050565b5f60208201905061056c5f83018461054a565b92915050565b61057b81610481565b82525050565b5f6020820190506105945f830184610572565b92915050565b5f5f604083850312156105b0576105af61045e565b5b5f6105bd858286016104a8565b92505060206105ce858286016104a8565b9150509250929050565b5f82825260208201905092915050565b7f4f4e4c595f4f574e4552000000000000000000000000000000000000000000005f82015250565b5f61061c600a836105d8565b9150610627826105e8565b602082019050919050565b5f6020820190508181035f83015261064981610610565b9050919050565b610659816104bc565b82525050565b5f6060820190506106725f830186610572565b61067f6020830185610572565b61068c6040830184610650565b949350505050565b5f815190506106a2816104c5565b92915050565b5f602082840312156106bd576106bc61045e565b5b5f6106ca84828501610694565b91505092915050565b5f6040820190506106e65f830185610572565b6106f36020830184610650565b9392505050565b5f81519050919050565b5f81905092915050565b8281835e5f83830152505050565b5f610726826106fa565b6107308185610704565b935061074081856020860161070e565b80840191505092915050565b5f610757828461071c565b915081905092915050565b61076b8161053f565b8114610775575f5ffd5b50565b5f8151905061078681610762565b92915050565b5f602082840312156107a1576107a061045e565b5b5f6107ae84828501610778565b9150509291505056fea2646970667358221220e316be7ca8f0a58126cf92e45ea47c9aa52f6885fa666c54e2f21f185dd0586264736f6c634300081e0033","linkReferences":{}},"methodIdentifiers":{"BAT()":"5b7ab891","BZRX()":"f30127a5","DAI()":"e0bab4c4","LINK()":"1b6b6d23","MKR()":"3d31a4af","PAXG()":"9ca6da2e","REP()":"062f67b2","STA()":"66909637","SUSHI_FACTORY()":"b753bb47","TARGET()":"cc1f2afa","UNI_V2_FACTORY()":"49eb3334","USDC()":"89a30271","USDT()":"c54e44eb","WBTC()":"4dede3de","WETH()":"ad5c4648","XAUT()":"8d75b0df","YFI()":"d82d41ac","ZRX()":"d40fa8bf","executeOnOpportunity()":"3c2448ed","executed()":"31a38c89","exploitPathUsed()":"d78c4281","hypothesisRefuted()":"495f92f1","hypothesisValidated()":"463defd1","profitAchieved()":"f0a01176","profitAmount()":"5ff972cc","profitToken()":"49343624","status()":"200d2ed2","sushiCall(address,uint256,uint256,bytes)":"00991403","uniswapV2Call(address,uint256,uint256,bytes)":"10d1e85c"},"id":0}