{"abi":[{"type":"constructor","inputs":[],"stateMutability":"payable"},{"type":"receive","stateMutability":"payable"},{"type":"function","name":"LIVE_TARGET","inputs":[],"outputs":[{"name":"","type":"address","internalType":"address"}],"stateMutability":"view"},{"type":"function","name":"executeOnOpportunity","inputs":[],"outputs":[],"stateMutability":"nonpayable"},{"type":"function","name":"executed","inputs":[],"outputs":[{"name":"","type":"bool","internalType":"bool"}],"stateMutability":"view"},{"type":"function","name":"firstExecutor","inputs":[],"outputs":[{"name":"","type":"address","internalType":"address"}],"stateMutability":"view"},{"type":"function","name":"firstTargetCallRevertHash","inputs":[],"outputs":[{"name":"","type":"bytes32","internalType":"bytes32"}],"stateMutability":"view"},{"type":"function","name":"firstTargetCallSucceeded","inputs":[],"outputs":[{"name":"","type":"bool","internalType":"bool"}],"stateMutability":"view"},{"type":"function","name":"path0OperatorPrefundObserved","inputs":[],"outputs":[{"name":"","type":"bool","internalType":"bool"}],"stateMutability":"view"},{"type":"function","name":"path1ThirdPartyTriggerObserved","inputs":[],"outputs":[{"name":"","type":"bool","internalType":"bool"}],"stateMutability":"view"},{"type":"function","name":"path2OneShotOpportunityConsumed","inputs":[],"outputs":[{"name":"","type":"bool","internalType":"bool"}],"stateMutability":"view"},{"type":"function","name":"prefundUsedForceEther","inputs":[],"outputs":[{"name":"","type":"bool","internalType":"bool"}],"stateMutability":"view"},{"type":"function","name":"prefundUsedLocalBalance","inputs":[],"outputs":[{"name":"","type":"bool","internalType":"bool"}],"stateMutability":"view"},{"type":"function","name":"profitAmount","inputs":[],"outputs":[{"name":"","type":"uint256","internalType":"uint256"}],"stateMutability":"view"},{"type":"function","name":"profitToken","inputs":[],"outputs":[{"name":"","type":"address","internalType":"address"}],"stateMutability":"view"},{"type":"function","name":"secondTargetCallRevertHash","inputs":[],"outputs":[{"name":"","type":"bytes32","internalType":"bytes32"}],"stateMutability":"view"},{"type":"function","name":"secondTargetCallSucceeded","inputs":[],"outputs":[{"name":"","type":"bool","internalType":"bool"}],"stateMutability":"view"},{"type":"function","name":"targetEthAfterPrefund","inputs":[],"outputs":[{"name":"","type":"uint256","internalType":"uint256"}],"stateMutability":"view"},{"type":"function","name":"targetEthBefore","inputs":[],"outputs":[{"name":"","type":"uint256","internalType":"uint256"}],"stateMutability":"view"},{"type":"function","name":"targetWethAfterFirstCall","inputs":[],"outputs":[{"name":"","type":"uint256","internalType":"uint256"}],"stateMutability":"view"},{"type":"function","name":"targetWethAfterSecondCall","inputs":[],"outputs":[{"name":"","type":"uint256","internalType":"uint256"}],"stateMutability":"view"},{"type":"function","name":"targetWethBefore","inputs":[],"outputs":[{"name":"","type":"uint256","internalType":"uint256"}],"stateMutability":"view"},{"type":"event","name":"PermissionlessTrigger","inputs":[{"name":"caller","type":"address","indexed":true,"internalType":"address"},{"name":"target","type":"address","indexed":true,"internalType":"address"},{"name":"targetEthBefore","type":"uint256","indexed":false,"internalType":"uint256"},{"name":"targetEthAfterPrefund","type":"uint256","indexed":false,"internalType":"uint256"},{"name":"targetWethBefore","type":"uint256","indexed":false,"internalType":"uint256"},{"name":"targetWethAfterFirstCall","type":"uint256","indexed":false,"internalType":"uint256"},{"name":"targetWethAfterSecondCall","type":"uint256","indexed":false,"internalType":"uint256"}],"anonymous":false}],"bytecode":{"object":"0x60a060405261001261004a60201b60201c565b73ffffffffffffffffffffffffffffffffffffffff1660808173ffffffffffffffffffffffffffffffffffffffff1681525050610114565b5f6001460361006f5773c02aaa39b223fe8d0a0e5c4f27ead9083c756cc29050610111565b600a46148061007f575061210546145b156100a0577342000000000000000000000000000000000000069050610111565b61a4b146036100c5577382af49447d8a07e3bd95bd0d56f35241523fbab19050610111565b603846036100e95773bb4cdb9cbd36b01bd1cbaebf2de08d9173bc095c9050610111565b6089460361010d57730d500b1d8e8ef31e21c99d1db9a6444d3adf12709050610111565b5f90505b90565b6080516112eb6101415f395f818161059101528181610808015281816109960152610aa001526112eb5ff3fe608060405260043610610122575f3560e01c8063738d23631161009f578063d14128d311610063578063d14128d31461038f578063d1badad3146103b9578063e45c99ae146103e3578063e62f59961461040d578063f849a2d11461043757610129565b8063738d2363146102bd57806392300900146102e7578063954af3b41461031157806396acf9281461033b578063977ef4471461036557610129565b80633c2448ed116100e65780633c2448ed146101ff5780634934362414610215578063493864771461023f5780635ff972cc146102695780636891e3c01461029357610129565b8063121513b61461012d57806317c62651146101575780631e83f19f1461018157806322b616ec146101ab57806331a38c89146101d557610129565b3661012957005b5f5ffd5b348015610138575f5ffd5b50610141610461565b60405161014e9190610e00565b60405180910390f35b348015610162575f5ffd5b5061016b610474565b6040516101789190610e00565b60405180910390f35b34801561018c575f5ffd5b50610195610487565b6040516101a29190610e00565b60405180910390f35b3480156101b6575f5ffd5b506101bf61049a565b6040516101cc9190610e31565b60405180910390f35b3480156101e0575f5ffd5b506101e96104a0565b6040516101f69190610e00565b60405180910390f35b34801561020a575f5ffd5b506102136104b2565b005b348015610220575f5ffd5b50610229610a9d565b6040516102369190610e89565b60405180910390f35b34801561024a575f5ffd5b50610253610ac4565b6040516102609190610eba565b60405180910390f35b348015610274575f5ffd5b5061027d610aca565b60405161028a9190610eba565b60405180910390f35b34801561029e575f5ffd5b506102a7610ad2565b6040516102b49190610eba565b60405180910390f35b3480156102c8575f5ffd5b506102d1610ad8565b6040516102de9190610e89565b60405180910390f35b3480156102f2575f5ffd5b506102fb610afc565b6040516103089190610e31565b60405180910390f35b34801561031c575f5ffd5b50610325610b02565b6040516103329190610e00565b60405180910390f35b348015610346575f5ffd5b5061034f610b15565b60405161035c9190610eba565b60405180910390f35b348015610370575f5ffd5b50610379610b1b565b6040516103869190610eba565b60405180910390f35b34801561039a575f5ffd5b506103a3610b21565b6040516103b09190610e00565b60405180910390f35b3480156103c4575f5ffd5b506103cd610b34565b6040516103da9190610eba565b60405180910390f35b3480156103ee575f5ffd5b506103f7610b3a565b6040516104049190610e00565b60405180910390f35b348015610418575f5ffd5b50610421610b4d565b60405161042e9190610e89565b60405180910390f35b348015610442575f5ffd5b5061044b610b65565b6040516104589190610e00565b60405180910390f35b600160189054906101000a900460ff1681565b6001601b9054906101000a900460ff1681565b600160179054906101000a900460ff1681565b60085481565b60015f9054906101000a900460ff1681565b60015f9054906101000a900460ff1615610501576040517f08c379a00000000000000000000000000000000000000000000000000000000081526004016104f890610f2d565b60405180910390fd5b6001805f6101000a81548160ff021916908315150217905550336001806101000a81548173ffffffffffffffffffffffffffffffffffffffff021916908373ffffffffffffffffffffffffffffffffffffffff1602179055507376ea342bc038d665e8a116392c82552d2605eda173ffffffffffffffffffffffffffffffffffffffff16316002819055506105ca7f00000000000000000000000000000000000000000000000000000000000000007376ea342bc038d665e8a116392c82552d2605eda1610b78565b6004819055506105d8610c57565b7376ea342bc038d665e8a116392c82552d2605eda173ffffffffffffffffffffffffffffffffffffffff1631600381905550600160025410158061061f5750600160035410155b600160156101000a81548160ff021916908315150217905550600160159054906101000a900460ff16610687576040517f08c379a000000000000000000000000000000000000000000000000000000000815260040161067e90610f95565b60405180910390fd5b60607376ea342bc038d665e8a116392c82552d2605eda173ffffffffffffffffffffffffffffffffffffffff16633c2448ed60e01b604051602401604051602081830303815290604052907bffffffffffffffffffffffffffffffffffffffffffffffffffffffff19166020820180517bffffffffffffffffffffffffffffffffffffffffffffffffffffffff838183161783525050505060405161072c9190611005565b5f604051808303815f865af19150503d805f8114610765576040519150601f19603f3d011682016040523d82523d5f602084013e61076a565b606091505b506001601a8294508391906101000a81548160ff02191690831515021790555050506001601a9054906101000a900460ff166107e95780805190602001206007819055506040517f08c379a00000000000000000000000000000000000000000000000000000000081526004016107e090611065565b60405180910390fd5b60018060166101000a81548160ff0219169083151502179055506108417f00000000000000000000000000000000000000000000000000000000000000007376ea342bc038d665e8a116392c82552d2605eda1610b78565b60058190555060045460055411156108695760045460055461086391906110b0565b5f819055505b60607376ea342bc038d665e8a116392c82552d2605eda173ffffffffffffffffffffffffffffffffffffffff16633c2448ed60e01b604051602401604051602081830303815290604052907bffffffffffffffffffffffffffffffffffffffffffffffffffffffff19166020820180517bffffffffffffffffffffffffffffffffffffffffffffffffffffffff838183161783525050505060405161090e9190611005565b5f604051808303815f865af19150503d805f8114610947576040519150601f19603f3d011682016040523d82523d5f602084013e61094c565b606091505b506001601b8294508391906101000a81548160ff02191690831515021790555050506001601b9054906101000a900460ff166109915780805190602001206008819055505b6109cf7f00000000000000000000000000000000000000000000000000000000000000007376ea342bc038d665e8a116392c82552d2605eda1610b78565b6006819055506001601b9054906101000a900460ff1615806109f5575060055460065411155b600160176101000a81548160ff0219169083151502179055507376ea342bc038d665e8a116392c82552d2605eda173ffffffffffffffffffffffffffffffffffffffff163373ffffffffffffffffffffffffffffffffffffffff167f6f422155b6d6fb560ee05fffded1936817a1aa03e30c0d6a9de370c94d592bcc600254600354600454600554600654604051610a919594939291906110e3565b60405180910390a35050565b5f7f0000000000000000000000000000000000000000000000000000000000000000905090565b60065481565b5f5f54905090565b60025481565b60018054906101000a900473ffffffffffffffffffffffffffffffffffffffff1681565b60075481565b600160159054906101000a900460ff1681565b60045481565b60035481565b6001601a9054906101000a900460ff1681565b60055481565b600160199054906101000a900460ff1681565b7376ea342bc038d665e8a116392c82552d2605eda181565b600160169054906101000a900460ff1681565b5f5f73ffffffffffffffffffffffffffffffffffffffff168373ffffffffffffffffffffffffffffffffffffffff161480610bc957505f8373ffffffffffffffffffffffffffffffffffffffff163b145b15610bd6575f9050610c51565b8273ffffffffffffffffffffffffffffffffffffffff166370a08231836040518263ffffffff1660e01b8152600401610c0f9190610e89565b602060405180830381865afa158015610c2a573d5f5f3e3d5ffd5b505050506040513d601f19601f82011682018060405250810190610c4e9190611162565b90505b92915050565b60017376ea342bc038d665e8a116392c82552d2605eda173ffffffffffffffffffffffffffffffffffffffff16311015610dd8576001471015610ccf576040517f08c379a0000000000000000000000000000000000000000000000000000000008152600401610cc690610f95565b60405180910390fd5b60018060186101000a81548160ff0219169083151502179055505f7376ea342bc038d665e8a116392c82552d2605eda173ffffffffffffffffffffffffffffffffffffffff166001604051610d23906111b0565b5f6040518083038185875af1925050503d805f8114610d5d576040519150601f19603f3d011682016040523d82523d5f602084013e610d62565b606091505b505090508015610d725750610dd8565b60018060196101000a81548160ff02191690831515021790555060017376ea342bc038d665e8a116392c82552d2605eda1604051610daf90610dda565b610db991906111e4565b6040518091039082f0905080158015610dd4573d5f5f3e3d5ffd5b5050505b565b60b8806111fe83390190565b5f8115159050919050565b610dfa81610de6565b82525050565b5f602082019050610e135f830184610df1565b92915050565b5f819050919050565b610e2b81610e19565b82525050565b5f602082019050610e445f830184610e22565b92915050565b5f73ffffffffffffffffffffffffffffffffffffffff82169050919050565b5f610e7382610e4a565b9050919050565b610e8381610e69565b82525050565b5f602082019050610e9c5f830184610e7a565b92915050565b5f819050919050565b610eb481610ea2565b82525050565b5f602082019050610ecd5f830184610eab565b92915050565b5f82825260208201905092915050565b7f616c7265616479206578656375746564000000000000000000000000000000005f82015250565b5f610f17601083610ed3565b9150610f2282610ee3565b602082019050919050565b5f6020820190508181035f830152610f4481610f0b565b9050919050565b7f70726566756e64207265717569726564000000000000000000000000000000005f82015250565b5f610f7f601083610ed3565b9150610f8a82610f4b565b602082019050919050565b5f6020820190508181035f830152610fac81610f73565b9050919050565b5f81519050919050565b5f81905092915050565b8281835e5f83830152505050565b5f610fdf82610fb3565b610fe98185610fbd565b9350610ff9818560208601610fc7565b80840191505092915050565b5f6110108284610fd5565b915081905092915050565b7f66697273742074726967676572206661696c65640000000000000000000000005f82015250565b5f61104f601483610ed3565b915061105a8261101b565b602082019050919050565b5f6020820190508181035f83015261107c81611043565b9050919050565b7f4e487b71000000000000000000000000000000000000000000000000000000005f52601160045260245ffd5b5f6110ba82610ea2565b91506110c583610ea2565b92508282039050818111156110dd576110dc611083565b5b92915050565b5f60a0820190506110f65f830188610eab565b6111036020830187610eab565b6111106040830186610eab565b61111d6060830185610eab565b61112a6080830184610eab565b9695505050505050565b5f5ffd5b61114181610ea2565b811461114b575f5ffd5b50565b5f8151905061115c81611138565b92915050565b5f6020828403121561117757611176611134565b5b5f6111848482850161114e565b91505092915050565b50565b5f61119b5f83610fbd565b91506111a68261118d565b5f82019050919050565b5f6111ba82611190565b9150819050919050565b5f6111ce82610e4a565b9050919050565b6111de816111c4565b82525050565b5f6020820190506111f75f8301846111d5565b9291505056fe608060405260405160b838038060b88339818101604052810190602191906091565b8073ffffffffffffffffffffffffffffffffffffffff16ff5b5f5ffd5b5f73ffffffffffffffffffffffffffffffffffffffff82169050919050565b5f606582603e565b9050919050565b607381605d565b8114607c575f5ffd5b50565b5f81519050608b81606c565b92915050565b5f6020828403121560a35760a2603a565b5b5f60ae84828501607f565b9150509291505056fea26469706673582212202f375d3e0d3be2627d3c209018a7488d07c37566f064d39296b5618d3c6cff7064736f6c634300081e0033","linkReferences":{}},"methodIdentifiers":{"LIVE_TARGET()":"e62f5996","executeOnOpportunity()":"3c2448ed","executed()":"31a38c89","firstExecutor()":"738d2363","firstTargetCallRevertHash()":"92300900","firstTargetCallSucceeded()":"d14128d3","path0OperatorPrefundObserved()":"954af3b4","path1ThirdPartyTriggerObserved()":"f849a2d1","path2OneShotOpportunityConsumed()":"1e83f19f","prefundUsedForceEther()":"e45c99ae","prefundUsedLocalBalance()":"121513b6","profitAmount()":"5ff972cc","profitToken()":"49343624","secondTargetCallRevertHash()":"22b616ec","secondTargetCallSucceeded()":"17c62651","targetEthAfterPrefund()":"977ef447","targetEthBefore()":"6891e3c0","targetWethAfterFirstCall()":"d1badad3","targetWethAfterSecondCall()":"49386477","targetWethBefore()":"96acf928"},"id":1}