{"abi":[{"type":"constructor","inputs":[],"stateMutability":"nonpayable"},{"type":"receive","stateMutability":"payable"},{"type":"function","name":"buyETH","inputs":[{"name":"id","type":"uint256","internalType":"uint256"}],"outputs":[{"name":"","type":"bool","internalType":"bool"}],"stateMutability":"nonpayable"},{"type":"function","name":"buyHEX","inputs":[{"name":"id","type":"uint256","internalType":"uint256"}],"outputs":[{"name":"","type":"bool","internalType":"bool"}],"stateMutability":"payable"},{"type":"function","name":"cancel","inputs":[{"name":"id","type":"uint256","internalType":"uint256"}],"outputs":[{"name":"","type":"bool","internalType":"bool"}],"stateMutability":"nonpayable"},{"type":"function","name":"hexInterface","inputs":[],"outputs":[{"name":"","type":"address","internalType":"contract MaliciousHEX"}],"stateMutability":"view"},{"type":"function","name":"isActive","inputs":[{"name":"id","type":"uint256","internalType":"uint256"}],"outputs":[{"name":"","type":"bool","internalType":"bool"}],"stateMutability":"view"},{"type":"function","name":"last_offer_id","inputs":[],"outputs":[{"name":"","type":"uint256","internalType":"uint256"}],"stateMutability":"view"},{"type":"function","name":"offerETH","inputs":[{"name":"pay_amt","type":"uint256","internalType":"uint256"},{"name":"buy_amt","type":"uint256","internalType":"uint256"}],"outputs":[{"name":"id","type":"uint256","internalType":"uint256"}],"stateMutability":"payable"},{"type":"function","name":"offerHEX","inputs":[{"name":"pay_amt","type":"uint256","internalType":"uint256"},{"name":"buy_amt","type":"uint256","internalType":"uint256"}],"outputs":[{"name":"id","type":"uint256","internalType":"uint256"}],"stateMutability":"nonpayable"},{"type":"function","name":"offers","inputs":[{"name":"","type":"uint256","internalType":"uint256"}],"outputs":[{"name":"pay_amt","type":"uint256","internalType":"uint256"},{"name":"buy_amt","type":"uint256","internalType":"uint256"},{"name":"owner","type":"address","internalType":"address payable"},{"name":"timestamp","type":"uint64","internalType":"uint64"},{"name":"escrowType","type":"uint8","internalType":"uint8"}],"stateMutability":"view"}],"bytecode":{"object":"0x60a060405234801561000f575f5ffd5b50732b591e99afe9f32eaa6214f7b7629768c40eeb3973ffffffffffffffffffffffffffffffffffffffff1660808173ffffffffffffffffffffffffffffffffffffffff1681525050608051611ffc61009a5f395f81816105b40152818161096301528181610ab901528181610bf701528181610d620152818161119301526112c00152611ffc5ff3fe608060405260043610610089575f3560e01c806382afd23b1161005857806382afd23b146101545780638a72ea6a14610190578063a321d886146101d0578063b42241ab1461020c578063efbf81851461023c57610090565b8063232cae0b14610094578063404cd129146100be57806340e58ee5146100ee5780635ca02f1e1461012a57610090565b3661009057005b5f5ffd5b34801561009f575f5ffd5b506100a8610278565b6040516100b591906115bf565b60405180910390f35b6100d860048036038101906100d39190611606565b61027d565b6040516100e5919061164b565b60405180910390f35b3480156100f9575f5ffd5b50610114600480360381019061010f9190611606565b6106b3565b604051610121919061164b565b60405180910390f35b348015610135575f5ffd5b5061013e610ab7565b60405161014b91906116de565b60405180910390f35b34801561015f575f5ffd5b5061017a60048036038101906101759190611606565b610adb565b604051610187919061164b565b60405180910390f35b34801561019b575f5ffd5b506101b660048036038101906101b19190611606565b610b18565b6040516101c7959493929190611754565b60405180910390f35b3480156101db575f5ffd5b506101f660048036038101906101f191906117a5565b610b8a565b60405161020391906115bf565b60405180910390f35b610226600480360381019061022191906117a5565b610e5b565b60405161023391906115bf565b60405180910390f35b348015610247575f5ffd5b50610262600480360381019061025d9190611606565b610fb9565b60405161026f919061164b565b60405180910390f35b5f5481565b5f60025f9054906101000a900460ff16156102cd576040517f08c379a00000000000000000000000000000000000000000000000000000000081526004016102c49061183d565b60405180910390fd5b600160025f6101000a81548160ff021916908315150217905550816102f181610adb565b610330576040517f08c379a0000000000000000000000000000000000000000000000000000000008152600401610327906118a5565b60405180910390fd5b5f60015f8581526020019081526020015f206040518060a00160405290815f820154815260200160018201548152602001600282015f9054906101000a900473ffffffffffffffffffffffffffffffffffffffff1673ffffffffffffffffffffffffffffffffffffffff1673ffffffffffffffffffffffffffffffffffffffff1681526020016002820160149054906101000a900467ffffffffffffffff1667ffffffffffffffff1667ffffffffffffffff16815260200160028201601c9054906101000a900460ff1660ff1660ff168152505090505f816080015160ff161461044f576040517f08c379a00000000000000000000000000000000000000000000000000000000081526004016104469061190d565b60405180910390fd5b5f341180156104615750806020015134145b6104a0576040517f08c379a000000000000000000000000000000000000000000000000000000000815260040161049790611975565b60405180910390fd5b5f81602001511180156104b557505f815f0151115b6104f4576040517f08c379a00000000000000000000000000000000000000000000000000000000081526004016104eb906119dd565b60405180910390fd5b60015f8581526020019081526020015f205f5f82015f9055600182015f9055600282015f6101000a81549073ffffffffffffffffffffffffffffffffffffffff02191690556002820160146101000a81549067ffffffffffffffff021916905560028201601c6101000a81549060ff02191690555050806040015173ffffffffffffffffffffffffffffffffffffffff166108fc3490811502906040515f60405180830381858888f193505050501580156105b1573d5f5f3e3d5ffd5b507f000000000000000000000000000000000000000000000000000000000000000073ffffffffffffffffffffffffffffffffffffffff1663a9059cbb33835f01516040518363ffffffff1660e01b8152600401610610929190611a1b565b6020604051808303815f875af115801561062c573d5f5f3e3d5ffd5b505050506040513d601f19601f820116820180604052508101906106509190611a6c565b61068f576040517f08c379a000000000000000000000000000000000000000000000000000000000815260040161068690611ae1565b60405180910390fd5b6001925050505f60025f6101000a81548160ff021916908315150217905550919050565b5f60025f9054906101000a900460ff1615610703576040517f08c379a00000000000000000000000000000000000000000000000000000000081526004016106fa9061183d565b60405180910390fd5b600160025f6101000a81548160ff0219169083151502179055508161072781610adb565b610766576040517f08c379a000000000000000000000000000000000000000000000000000000000815260040161075d90611b6f565b60405180910390fd5b3373ffffffffffffffffffffffffffffffffffffffff1660015f8381526020019081526020015f206002015f9054906101000a900473ffffffffffffffffffffffffffffffffffffffff1673ffffffffffffffffffffffffffffffffffffffff1614610807576040517f08c379a00000000000000000000000000000000000000000000000000000000081526004016107fe90611bfd565b60405180910390fd5b5f60015f8581526020019081526020015f206040518060a00160405290815f820154815260200160018201548152602001600282015f9054906101000a900473ffffffffffffffffffffffffffffffffffffffff1673ffffffffffffffffffffffffffffffffffffffff1673ffffffffffffffffffffffffffffffffffffffff1681526020016002820160149054906101000a900467ffffffffffffffff1667ffffffffffffffff1667ffffffffffffffff16815260200160028201601c9054906101000a900460ff1660ff1660ff1681525050905060015f8581526020019081526020015f205f5f82015f9055600182015f9055600282015f6101000a81549073ffffffffffffffffffffffffffffffffffffffff02191690556002820160146101000a81549067ffffffffffffffff021916905560028201601c6101000a81549060ff021916905550505f816080015160ff1603610a47577f000000000000000000000000000000000000000000000000000000000000000073ffffffffffffffffffffffffffffffffffffffff1663a9059cbb8260400151835f01516040518363ffffffff1660e01b81526004016109c3929190611c3b565b6020604051808303815f875af11580156109df573d5f5f3e3d5ffd5b505050506040513d601f19601f82011682018060405250810190610a039190611a6c565b610a42576040517f08c379a0000000000000000000000000000000000000000000000000000000008152600401610a3990611ae1565b60405180910390fd5b610a93565b806040015173ffffffffffffffffffffffffffffffffffffffff166108fc825f015190811502906040515f60405180830381858888f19350505050158015610a91573d5f5f3e3d5ffd5b505b6001925050505f60025f6101000a81548160ff021916908315150217905550919050565b7f000000000000000000000000000000000000000000000000000000000000000081565b5f5f60015f8481526020019081526020015f2060020160149054906101000a900467ffffffffffffffff1667ffffffffffffffff16119050919050565b6001602052805f5260405f205f91509050805f015490806001015490806002015f9054906101000a900473ffffffffffffffffffffffffffffffffffffffff16908060020160149054906101000a900467ffffffffffffffff169080600201601c9054906101000a900460ff16905085565b5f60025f9054906101000a900460ff1615610bda576040517f08c379a0000000000000000000000000000000000000000000000000000000008152600401610bd19061183d565b60405180910390fd5b600160025f6101000a81548160ff021916908315150217905550827f000000000000000000000000000000000000000000000000000000000000000073ffffffffffffffffffffffffffffffffffffffff166370a08231336040518263ffffffff1660e01b8152600401610c4e9190611c62565b602060405180830381865afa158015610c69573d5f5f3e3d5ffd5b505050506040513d601f19601f82011682018060405250810190610c8d9190611c8f565b1015610cce576040517f08c379a0000000000000000000000000000000000000000000000000000000008152600401610cc590611d04565b60405180910390fd5b5f8311610d10576040517f08c379a0000000000000000000000000000000000000000000000000000000008152600401610d0790611d6c565b60405180910390fd5b5f8211610d52576040517f08c379a0000000000000000000000000000000000000000000000000000000008152600401610d4990611dd4565b60405180910390fd5b610d5e83835f33611483565b90507f000000000000000000000000000000000000000000000000000000000000000073ffffffffffffffffffffffffffffffffffffffff166323b872dd3330866040518463ffffffff1660e01b8152600401610dbd93929190611df2565b6020604051808303815f875af1158015610dd9573d5f5f3e3d5ffd5b505050506040513d601f19601f82011682018060405250810190610dfd9190611a6c565b610e3c576040517f08c379a0000000000000000000000000000000000000000000000000000000008152600401610e3390611ae1565b60405180910390fd5b5f60025f6101000a81548160ff02191690831515021790555092915050565b5f60025f9054906101000a900460ff1615610eab576040517f08c379a0000000000000000000000000000000000000000000000000000000008152600401610ea29061183d565b60405180910390fd5b600160025f6101000a81548160ff0219169083151502179055505f8311610f07576040517f08c379a0000000000000000000000000000000000000000000000000000000008152600401610efe90611d6c565b60405180910390fd5b5f8211610f49576040517f08c379a0000000000000000000000000000000000000000000000000000000008152600401610f4090611dd4565b60405180910390fd5b348314610f8b576040517f08c379a0000000000000000000000000000000000000000000000000000000008152600401610f8290611e71565b60405180910390fd5b610f988383600133611483565b90505f60025f6101000a81548160ff02191690831515021790555092915050565b5f60025f9054906101000a900460ff1615611009576040517f08c379a00000000000000000000000000000000000000000000000000000000081526004016110009061183d565b60405180910390fd5b600160025f6101000a81548160ff0219169083151502179055508161102d81610adb565b61106c576040517f08c379a0000000000000000000000000000000000000000000000000000000008152600401611063906118a5565b60405180910390fd5b5f60015f8581526020019081526020015f206040518060a00160405290815f820154815260200160018201548152602001600282015f9054906101000a900473ffffffffffffffffffffffffffffffffffffffff1673ffffffffffffffffffffffffffffffffffffffff1673ffffffffffffffffffffffffffffffffffffffff1681526020016002820160149054906101000a900467ffffffffffffffff1667ffffffffffffffff1667ffffffffffffffff16815260200160028201601c9054906101000a900460ff1660ff1660ff168152505090506001816080015160ff161461118c576040517f08c379a00000000000000000000000000000000000000000000000000000000081526004016111839061190d565b60405180910390fd5b80602001517f000000000000000000000000000000000000000000000000000000000000000073ffffffffffffffffffffffffffffffffffffffff166370a08231336040518263ffffffff1660e01b81526004016111ea9190611c62565b602060405180830381865afa158015611205573d5f5f3e3d5ffd5b505050506040513d601f19601f820116820180604052508101906112299190611c8f565b101561126a576040517f08c379a000000000000000000000000000000000000000000000000000000000815260040161126190611eff565b60405180910390fd5b5f816020015111801561127f57505f815f0151115b6112be576040517f08c379a00000000000000000000000000000000000000000000000000000000081526004016112b5906119dd565b60405180910390fd5b7f000000000000000000000000000000000000000000000000000000000000000073ffffffffffffffffffffffffffffffffffffffff166323b872dd33836040015184602001516040518463ffffffff1660e01b815260040161132393929190611f1d565b6020604051808303815f875af115801561133f573d5f5f3e3d5ffd5b505050506040513d601f19601f820116820180604052508101906113639190611a6c565b6113a2576040517f08c379a000000000000000000000000000000000000000000000000000000000815260040161139990611ae1565b60405180910390fd5b60015f8581526020019081526020015f205f5f82015f9055600182015f9055600282015f6101000a81549073ffffffffffffffffffffffffffffffffffffffff02191690556002820160146101000a81549067ffffffffffffffff021916905560028201601c6101000a81549060ff021916905550503373ffffffffffffffffffffffffffffffffffffffff166108fc825f015190811502906040515f60405180830381858888f1935050505015801561145e573d5f5f3e3d5ffd5b506001925050505f60025f6101000a81548160ff021916908315150217905550919050565b5f5f5f815461149190611f7f565b91905081905590506040518060a001604052808681526020018581526020018373ffffffffffffffffffffffffffffffffffffffff1681526020014267ffffffffffffffff1681526020018460ff1681525060015f8381526020019081526020015f205f820151815f0155602082015181600101556040820151816002015f6101000a81548173ffffffffffffffffffffffffffffffffffffffff021916908373ffffffffffffffffffffffffffffffffffffffff16021790555060608201518160020160146101000a81548167ffffffffffffffff021916908367ffffffffffffffff160217905550608082015181600201601c6101000a81548160ff021916908360ff160217905550905050949350505050565b5f819050919050565b6115b9816115a7565b82525050565b5f6020820190506115d25f8301846115b0565b92915050565b5f5ffd5b6115e5816115a7565b81146115ef575f5ffd5b50565b5f81359050611600816115dc565b92915050565b5f6020828403121561161b5761161a6115d8565b5b5f611628848285016115f2565b91505092915050565b5f8115159050919050565b61164581611631565b82525050565b5f60208201905061165e5f83018461163c565b92915050565b5f73ffffffffffffffffffffffffffffffffffffffff82169050919050565b5f819050919050565b5f6116a66116a161169c84611664565b611683565b611664565b9050919050565b5f6116b78261168c565b9050919050565b5f6116c8826116ad565b9050919050565b6116d8816116be565b82525050565b5f6020820190506116f15f8301846116cf565b92915050565b5f61170182611664565b9050919050565b611711816116f7565b82525050565b5f67ffffffffffffffff82169050919050565b61173381611717565b82525050565b5f60ff82169050919050565b61174e81611739565b82525050565b5f60a0820190506117675f8301886115b0565b61177460208301876115b0565b6117816040830186611708565b61178e606083018561172a565b61179b6080830184611745565b9695505050505050565b5f5f604083850312156117bb576117ba6115d8565b5b5f6117c8858286016115f2565b92505060206117d9858286016115f2565b9150509250929050565b5f82825260208201905092915050565b7f53796e63206c6f636b00000000000000000000000000000000000000000000005f82015250565b5f6118276009836117e3565b9150611832826117f3565b602082019050919050565b5f6020820190508181035f8301526118548161181b565b9050919050565b7f63616e6e6f74206275792c206f66666572204944206e6f7420616374697665005f82015250565b5f61188f601f836117e3565b915061189a8261185b565b602082019050919050565b5f6020820190508181035f8301526118bc81611883565b9050919050565b7f496e636f727265637420657363726f77207479706500000000000000000000005f82015250565b5f6118f76015836117e3565b9150611902826118c3565b602082019050919050565b5f6020820190508181035f830152611924816118eb565b9050919050565b7f6d73672e76616c7565206572726f7200000000000000000000000000000000005f82015250565b5f61195f600f836117e3565b915061196a8261192b565b602082019050919050565b5f6020820190508181035f83015261198c81611953565b9050919050565b7f76616c75657320617265207a65726f00000000000000000000000000000000005f82015250565b5f6119c7600f836117e3565b91506119d282611993565b602082019050919050565b5f6020820190508181035f8301526119f4816119bb565b9050919050565b5f611a0582611664565b9050919050565b611a15816119fb565b82525050565b5f604082019050611a2e5f830185611a0c565b611a3b60208301846115b0565b9392505050565b611a4b81611631565b8114611a55575f5ffd5b50565b5f81519050611a6681611a42565b92915050565b5f60208284031215611a8157611a806115d8565b5b5f611a8e84828501611a58565b91505092915050565b7f5472616e73666572206661696c656400000000000000000000000000000000005f82015250565b5f611acb600f836117e3565b9150611ad682611a97565b602082019050919050565b5f6020820190508181035f830152611af881611abf565b9050919050565b7f63616e6e6f742063616e63656c2c206f66666572204944206e6f7420616374695f8201527f7665000000000000000000000000000000000000000000000000000000000000602082015250565b5f611b596022836117e3565b9150611b6482611aff565b604082019050919050565b5f6020820190508181035f830152611b8681611b4d565b9050919050565b7f63616e6e6f742063616e63656c2c206d73672e73656e646572206e6f742074685f8201527f652073616d65206173206f66666572206d616b65720000000000000000000000602082015250565b5f611be76035836117e3565b9150611bf282611b8d565b604082019050919050565b5f6020820190508181035f830152611c1481611bdb565b9050919050565b5f611c25826116ad565b9050919050565b611c3581611c1b565b82525050565b5f604082019050611c4e5f830185611c2c565b611c5b60208301846115b0565b9392505050565b5f602082019050611c755f830184611a0c565b92915050565b5f81519050611c89816115dc565b92915050565b5f60208284031215611ca457611ca36115d8565b5b5f611cb184828501611c7b565b91505092915050565b7f496e73756666696369656e742062616c616e63654f66206865780000000000005f82015250565b5f611cee601a836117e3565b9150611cf982611cba565b602082019050919050565b5f6020820190508181035f830152611d1b81611ce2565b9050919050565b7f7061795f616d74206973203000000000000000000000000000000000000000005f82015250565b5f611d56600c836117e3565b9150611d6182611d22565b602082019050919050565b5f6020820190508181035f830152611d8381611d4a565b9050919050565b7f6275795f616d74206973203000000000000000000000000000000000000000005f82015250565b5f611dbe600c836117e3565b9150611dc982611d8a565b602082019050919050565b5f6020820190508181035f830152611deb81611db2565b9050919050565b5f606082019050611e055f830186611a0c565b611e126020830185611a0c565b611e1f60408301846115b0565b949350505050565b7f7061795f616d74206e6f7420657175616c20746f206d73672e76616c756500005f82015250565b5f611e5b601e836117e3565b9150611e6682611e27565b602082019050919050565b5f6020820190508181035f830152611e8881611e4f565b9050919050565b7f42616c616e6365206973206c657373207468616e2072657175657374656420735f8201527f70656e6420616d6f756e74000000000000000000000000000000000000000000602082015250565b5f611ee9602b836117e3565b9150611ef482611e8f565b604082019050919050565b5f6020820190508181035f830152611f1681611edd565b9050919050565b5f606082019050611f305f830186611a0c565b611f3d6020830185611c2c565b611f4a60408301846115b0565b949350505050565b7f4e487b71000000000000000000000000000000000000000000000000000000005f52601160045260245ffd5b5f611f89826115a7565b91507fffffffffffffffffffffffffffffffffffffffffffffffffffffffffffffffff8203611fbb57611fba611f52565b5b60018201905091905056fea26469706673582212201dc9aebdf38b81faf9a382445e4972fce64c6a39a5dcd36f961c69f906d7bb6f64736f6c634300081e0033","linkReferences":{}},"methodIdentifiers":{"buyETH(uint256)":"efbf8185","buyHEX(uint256)":"404cd129","cancel(uint256)":"40e58ee5","hexInterface()":"5ca02f1e","isActive(uint256)":"82afd23b","last_offer_id()":"232cae0b","offerETH(uint256,uint256)":"b42241ab","offerHEX(uint256,uint256)":"a321d886","offers(uint256)":"8a72ea6a"},"id":0}