{"abi":[{"type":"function","name":"allowance","inputs":[{"name":"","type":"address","internalType":"address"},{"name":"","type":"address","internalType":"address"}],"outputs":[{"name":"","type":"uint256","internalType":"uint256"}],"stateMutability":"pure"},{"type":"function","name":"approve","inputs":[{"name":"spender","type":"address","internalType":"address"},{"name":"value","type":"uint256","internalType":"uint256"}],"outputs":[{"name":"","type":"bool","internalType":"bool"}],"stateMutability":"nonpayable"},{"type":"function","name":"balanceOf","inputs":[{"name":"","type":"address","internalType":"address"}],"outputs":[{"name":"","type":"uint256","internalType":"uint256"}],"stateMutability":"pure"},{"type":"function","name":"realBalanceOf","inputs":[{"name":"account","type":"address","internalType":"address"}],"outputs":[{"name":"","type":"uint256","internalType":"uint256"}],"stateMutability":"view"},{"type":"function","name":"totalSupply","inputs":[],"outputs":[{"name":"","type":"uint256","internalType":"uint256"}],"stateMutability":"pure"},{"type":"function","name":"transfer","inputs":[{"name":"to","type":"address","internalType":"address"},{"name":"value","type":"uint256","internalType":"uint256"}],"outputs":[{"name":"","type":"bool","internalType":"bool"}],"stateMutability":"nonpayable"},{"type":"function","name":"transferFrom","inputs":[{"name":"from","type":"address","internalType":"address"},{"name":"to","type":"address","internalType":"address"},{"name":"value","type":"uint256","internalType":"uint256"}],"outputs":[{"name":"","type":"bool","internalType":"bool"}],"stateMutability":"nonpayable"},{"type":"event","name":"Approval","inputs":[{"name":"owner","type":"address","indexed":true,"internalType":"address"},{"name":"spender","type":"address","indexed":true,"internalType":"address"},{"name":"value","type":"uint256","indexed":false,"internalType":"uint256"}],"anonymous":false},{"type":"event","name":"Transfer","inputs":[{"name":"from","type":"address","indexed":true,"internalType":"address"},{"name":"to","type":"address","indexed":true,"internalType":"address"},{"name":"value","type":"uint256","indexed":false,"internalType":"uint256"}],"anonymous":false}],"bytecode":{"object":"0x6080604052348015600e575f5ffd5b506105c68061001c5f395ff3fe608060405234801561000f575f5ffd5b506004361061007b575f3560e01c806370a082311161005957806370a08231146100fd57806399a03c701461012d578063a9059cbb1461015d578063dd62ed3e1461018d5761007b565b8063095ea7b31461007f57806318160ddd146100af57806323b872dd146100cd575b5f5ffd5b6100996004803603810190610094919061043e565b6101bd565b6040516100a69190610496565b60405180910390f35b6100b761022d565b6040516100c491906104be565b60405180910390f35b6100e760048036038101906100e291906104d7565b610234565b6040516100f49190610496565b60405180910390f35b61011760048036038101906101129190610527565b6102a5565b60405161012491906104be565b60405180910390f35b61014760048036038101906101429190610527565b6102ce565b60405161015491906104be565b60405180910390f35b6101776004803603810190610172919061043e565b610313565b6040516101849190610496565b60405180910390f35b6101a760048036038101906101a29190610552565b610383565b6040516101b491906104be565b60405180910390f35b5f8273ffffffffffffffffffffffffffffffffffffffff163373ffffffffffffffffffffffffffffffffffffffff167f8c5be1e5ebec7d5bd14f71427d1e84f3dd0314c0f7b2291e5b200ac8c7c3b9258460405161021b91906104be565b60405180910390a36001905092915050565b5f5f905090565b5f8273ffffffffffffffffffffffffffffffffffffffff168473ffffffffffffffffffffffffffffffffffffffff167fddf252ad1be2c89b69c2b068fc378daa952ba7f163c4a11628f55a4df523b3ef8460405161029291906104be565b60405180910390a3600190509392505050565b5f7fffffffffffffffffffffffffffffffffffffffffffffffffffffffffffffffff9050919050565b5f5f5f8373ffffffffffffffffffffffffffffffffffffffff1673ffffffffffffffffffffffffffffffffffffffff1681526020019081526020015f20549050919050565b5f8273ffffffffffffffffffffffffffffffffffffffff163373ffffffffffffffffffffffffffffffffffffffff167fddf252ad1be2c89b69c2b068fc378daa952ba7f163c4a11628f55a4df523b3ef8460405161037191906104be565b60405180910390a36001905092915050565b5f7fffffffffffffffffffffffffffffffffffffffffffffffffffffffffffffffff905092915050565b5f5ffd5b5f73ffffffffffffffffffffffffffffffffffffffff82169050919050565b5f6103da826103b1565b9050919050565b6103ea816103d0565b81146103f4575f5ffd5b50565b5f81359050610405816103e1565b92915050565b5f819050919050565b61041d8161040b565b8114610427575f5ffd5b50565b5f8135905061043881610414565b92915050565b5f5f60408385031215610454576104536103ad565b5b5f610461858286016103f7565b92505060206104728582860161042a565b9150509250929050565b5f8115159050919050565b6104908161047c565b82525050565b5f6020820190506104a95f830184610487565b92915050565b6104b88161040b565b82525050565b5f6020820190506104d15f8301846104af565b92915050565b5f5f5f606084860312156104ee576104ed6103ad565b5b5f6104fb868287016103f7565b935050602061050c868287016103f7565b925050604061051d8682870161042a565b9150509250925092565b5f6020828403121561053c5761053b6103ad565b5b5f610549848285016103f7565b91505092915050565b5f5f60408385031215610568576105676103ad565b5b5f610575858286016103f7565b9250506020610586858286016103f7565b915050925092905056fea264697066735822122063d64e8428c164d0d04fc8c8628da6c943f4dfb0b4a88cfa787f07c2ca8c14a864736f6c634300081e0033","linkReferences":{}},"methodIdentifiers":{"allowance(address,address)":"dd62ed3e","approve(address,uint256)":"095ea7b3","balanceOf(address)":"70a08231","realBalanceOf(address)":"99a03c70","totalSupply()":"18160ddd","transfer(address,uint256)":"a9059cbb","transferFrom(address,address,uint256)":"23b872dd"},"id":0}