{"abi":[{"type":"constructor","inputs":[{"name":"otcAddress","type":"address","internalType":"address"}],"stateMutability":"payable"},{"type":"receive","stateMutability":"payable"},{"type":"function","name":"buyHexOffer","inputs":[{"name":"id","type":"uint256","internalType":"uint256"},{"name":"price","type":"uint256","internalType":"uint256"}],"outputs":[],"stateMutability":"nonpayable"},{"type":"function","name":"otc","inputs":[],"outputs":[{"name":"","type":"address","internalType":"contract IWrongChainHEXOTC"}],"stateMutability":"view"}],"bytecode":{"object":"0x60a0604052604051610418380380610418833981810160405281019061002591906100bd565b8073ffffffffffffffffffffffffffffffffffffffff1660808173ffffffffffffffffffffffffffffffffffffffff1681525050506100e8565b5f5ffd5b5f73ffffffffffffffffffffffffffffffffffffffff82169050919050565b5f61008c82610063565b9050919050565b61009c81610082565b81146100a6575f5ffd5b50565b5f815190506100b781610093565b92915050565b5f602082840312156100d2576100d161005f565b5b5f6100df848285016100a9565b91505092915050565b6080516103136101055f395f8181608b015260af01526103135ff3fe60806040526004361061002c575f3560e01c806336b61e3c14610037578063acc6afff1461006157610033565b3661003357005b5f5ffd5b348015610042575f5ffd5b5061004b610089565b60405161005891906101c7565b60405180910390f35b34801561006c575f5ffd5b5061008760048036038101906100829190610217565b6100ad565b005b7f000000000000000000000000000000000000000000000000000000000000000081565b7f000000000000000000000000000000000000000000000000000000000000000073ffffffffffffffffffffffffffffffffffffffff1663404cd12982846040518363ffffffff1660e01b81526004016101079190610264565b60206040518083038185885af1158015610123573d5f5f3e3d5ffd5b50505050506040513d601f19601f8201168201806040525081019061014891906102b2565b505050565b5f73ffffffffffffffffffffffffffffffffffffffff82169050919050565b5f819050919050565b5f61018f61018a6101858461014d565b61016c565b61014d565b9050919050565b5f6101a082610175565b9050919050565b5f6101b182610196565b9050919050565b6101c1816101a7565b82525050565b5f6020820190506101da5f8301846101b8565b92915050565b5f5ffd5b5f819050919050565b6101f6816101e4565b8114610200575f5ffd5b50565b5f81359050610211816101ed565b92915050565b5f5f6040838503121561022d5761022c6101e0565b5b5f61023a85828601610203565b925050602061024b85828601610203565b9150509250929050565b61025e816101e4565b82525050565b5f6020820190506102775f830184610255565b92915050565b5f8115159050919050565b6102918161027d565b811461029b575f5ffd5b50565b5f815190506102ac81610288565b92915050565b5f602082840312156102c7576102c66101e0565b5b5f6102d48482850161029e565b9150509291505056fea26469706673582212208bb0fd1e7e40f81360fa7c0d0a6dae22875be9b8e3e1403ceeae2a81a997c39264736f6c634300081e0033","linkReferences":{}},"methodIdentifiers":{"buyHexOffer(uint256,uint256)":"acc6afff","otc()":"36b61e3c"},"id":0}