{"abi":[{"type":"constructor","inputs":[{"name":"otcAddress","type":"address","internalType":"address"}],"stateMutability":"payable"},{"type":"receive","stateMutability":"payable"},{"type":"function","name":"otc","inputs":[],"outputs":[{"name":"","type":"address","internalType":"contract IWrongChainHEXOTC"}],"stateMutability":"view"},{"type":"function","name":"postEthOffer","inputs":[{"name":"buy_amt","type":"uint256","internalType":"uint256"}],"outputs":[{"name":"id","type":"uint256","internalType":"uint256"}],"stateMutability":"nonpayable"}],"bytecode":{"object":"0x60a06040526040516104e43803806104e4833981810160405281019061002591906100bd565b8073ffffffffffffffffffffffffffffffffffffffff1660808173ffffffffffffffffffffffffffffffffffffffff1681525050506100e8565b5f5ffd5b5f73ffffffffffffffffffffffffffffffffffffffff82169050919050565b5f61008c82610063565b9050919050565b61009c81610082565b81146100a6575f5ffd5b50565b5f815190506100b781610093565b92915050565b5f602082840312156100d2576100d161005f565b5b5f6100df848285016100a9565b91505092915050565b6080516103de6101065f395f8181609f015261010a01526103de5ff3fe60806040526004361061002c575f3560e01c806336b61e3c146100375780638f785b3f1461006157610033565b3661003357005b5f5ffd5b348015610042575f5ffd5b5061004b61009d565b6040516100589190610227565b60405180910390f35b34801561006c575f5ffd5b5061008760048036038101906100829190610277565b6100c1565b60405161009491906102b1565b60405180910390f35b7f000000000000000000000000000000000000000000000000000000000000000081565b5f5f4790505f8111610108576040517f08c379a00000000000000000000000000000000000000000000000000000000081526004016100ff90610324565b60405180910390fd5b7f000000000000000000000000000000000000000000000000000000000000000073ffffffffffffffffffffffffffffffffffffffff1663b42241ab8283866040518463ffffffff1660e01b8152600401610164929190610342565b60206040518083038185885af1158015610180573d5f5f3e3d5ffd5b50505050506040513d601f19601f820116820180604052508101906101a5919061037d565b915050919050565b5f73ffffffffffffffffffffffffffffffffffffffff82169050919050565b5f819050919050565b5f6101ef6101ea6101e5846101ad565b6101cc565b6101ad565b9050919050565b5f610200826101d5565b9050919050565b5f610211826101f6565b9050919050565b61022181610207565b82525050565b5f60208201905061023a5f830184610218565b92915050565b5f5ffd5b5f819050919050565b61025681610244565b8114610260575f5ffd5b50565b5f813590506102718161024d565b92915050565b5f6020828403121561028c5761028b610240565b5b5f61029984828501610263565b91505092915050565b6102ab81610244565b82525050565b5f6020820190506102c45f8301846102a2565b92915050565b5f82825260208201905092915050565b7f6e6f2065746820746f20657363726f77000000000000000000000000000000005f82015250565b5f61030e6010836102ca565b9150610319826102da565b602082019050919050565b5f6020820190508181035f83015261033b81610302565b9050919050565b5f6040820190506103555f8301856102a2565b61036260208301846102a2565b9392505050565b5f815190506103778161024d565b92915050565b5f6020828403121561039257610391610240565b5b5f61039f84828501610369565b9150509291505056fea2646970667358221220bbdf006fa8d6f4faf6f1cf306a9a286dbb64a4aeb9539211fc66fece34dd913164736f6c634300081e0033","linkReferences":{}},"methodIdentifiers":{"otc()":"36b61e3c","postEthOffer(uint256)":"8f785b3f"},"id":0}