{"abi":[{"type":"constructor","inputs":[],"stateMutability":"nonpayable"},{"type":"function","name":"TARGET_SILO","inputs":[],"outputs":[{"name":"","type":"address","internalType":"address"}],"stateMutability":"view"},{"type":"function","name":"attemptDirectDebtRoute","inputs":[{"name":"collateralAsset","type":"address","internalType":"address"},{"name":"borrowAsset","type":"address","internalType":"address"},{"name":"depositAmount","type":"uint256","internalType":"uint256"}],"outputs":[{"name":"realizedProfit","type":"uint256","internalType":"uint256"}],"stateMutability":"nonpayable"},{"type":"function","name":"attemptFlashDebtRoute","inputs":[{"name":"collateralAsset","type":"address","internalType":"address"},{"name":"borrowAsset","type":"address","internalType":"address"},{"name":"flashAmount","type":"uint256","internalType":"uint256"}],"outputs":[{"name":"","type":"bool","internalType":"bool"}],"stateMutability":"nonpayable"},{"type":"function","name":"chosenBorrowAsset","inputs":[],"outputs":[{"name":"","type":"address","internalType":"address"}],"stateMutability":"view"},{"type":"function","name":"chosenCollateralAsset","inputs":[],"outputs":[{"name":"","type":"address","internalType":"address"}],"stateMutability":"view"},{"type":"function","name":"executeOnOpportunity","inputs":[],"outputs":[],"stateMutability":"nonpayable"},{"type":"function","name":"lastFailureTag","inputs":[],"outputs":[{"name":"","type":"bytes32","internalType":"bytes32"}],"stateMutability":"view"},{"type":"function","name":"outcome","inputs":[],"outputs":[{"name":"","type":"uint8","internalType":"enum FlawVerifier.Outcome"}],"stateMutability":"view"},{"type":"function","name":"profitAmount","inputs":[],"outputs":[{"name":"","type":"uint256","internalType":"uint256"}],"stateMutability":"view"},{"type":"function","name":"profitToken","inputs":[],"outputs":[{"name":"","type":"address","internalType":"address"}],"stateMutability":"view"},{"type":"function","name":"receiveFlashLoan","inputs":[{"name":"tokens","type":"address[]","internalType":"contract IERC20Like[]"},{"name":"amounts","type":"uint256[]","internalType":"uint256[]"},{"name":"feeAmounts","type":"uint256[]","internalType":"uint256[]"},{"name":"","type":"bytes","internalType":"bytes"}],"outputs":[],"stateMutability":"nonpayable"},{"type":"function","name":"receiver","inputs":[],"outputs":[{"name":"","type":"address","internalType":"contract PositionReceiver"}],"stateMutability":"view"},{"type":"error","name":"InvalidFlashLoanCallback","inputs":[]},{"type":"error","name":"TransferStageFailed","inputs":[]},{"type":"error","name":"WithdrawStageFailed","inputs":[]}],"bytecode":{"object":"0x60a080604052346071576101de8181016001600160401b03811183821017605d5782916127a4833903905ff0801560525760805260405161272e908161007682396080518181816108c80152611bc10152f35b6040513d5f823e3d90fd5b634e487b7160e01b5f52604160045260245ffd5b5f80fdfe60806040526004361015610011575f80fd5b5f3560e01c806327793f87146100d45780633c2448ed146100cf57806349343624146100ca5780634d43736a146100c55780635ff972cc146100c0578063717df00e146100bb5780637719a95e146100b6578063868639d2146100b1578063d1a5de87146100ac578063f04f2707146100a7578063f288750d146100a25763f7260d3e1461009d575f80fd5b6108b3565b610896565b6107a1565b610657565b61062f565b610436565b6101e7565b61018d565b610165565b61013e565b610124565b6100e7565b5f9103126100e357565b5f80fd5b346100e3575f3660031901126100e35760ff600254166040516004821015610110576020918152f35b634e487b7160e01b5f52602160045260245ffd5b346100e3575f3660031901126100e35761013c610910565b005b346100e3575f3660031901126100e3575f546040516001600160a01b039091168152602090f35b346100e3575f3660031901126100e3576004546040516001600160a01b039091168152602090f35b346100e3575f3660031901126100e3576020600154604051908152f35b6001600160a01b038116036100e357565b60609060031901126100e3576004356101d3816101aa565b906024356101e0816101aa565b9060443590565b346100e3576101f5366101bb565b916102013033146109f3565b6040516370a0823160e01b8152306004820152926001600160a01b0383169190602085602481865afa9485156103c0575f95610415575b506102438183611847565b604080516307dba22560e31b81526001600160a01b0384166004820152602481018390525f60448201529081806064810103815f5f5160206126d95f395f51905f525af180156103c0576102eb926102aa6102b1926040945f916103f6575b501515610a5b565b86856119a3565b6102bc811515610a9f565b8151634b8a352960e01b81526001600160a01b0387166004820152602481019190915291829081906044820190565b03815f5f5160206126d95f395f51905f525af180156103c057610321915f916103c5575b5061031b811515610ad9565b84611b2d565b61032a81611cec565b6040516370a0823160e01b815230600482015291602090839060249082905afa9182156103c05761038d9461037d9361036a925f91610391575b50610b2b565b928391610378831515610b3d565b611d69565b6040519081529081906020820190565b0390f35b6103b3915060203d6020116103b9575b6103ab8183610692565b810190610a2b565b5f610364565b503d6103a1565b610a3a565b6103e7915060403d6040116103ef575b6103df8183610692565b810190610a45565b90505f61030f565b503d6103d5565b61040d9150853d87116103ef576103df8183610692565b90505f6102a2565b61042f91955060203d6020116103b9576103ab8183610692565b935f610238565b346100e357610444366101bb565b6104529291923033146109f3565b61045a610b75565b916104806001600160a01b03821661047185610bab565b6001600160a01b039091169052565b610488610b75565b938261049386610bab565b526040516370a0823160e01b8152306004820152926020846024816001600160a01b0386165afa9182156103c05761055b945f9361060a575b506104fb906104eb6104dc6106b9565b6001600160a01b039096168652565b6001600160a01b03166020850152565b60408301819052606083018290526001608084018190528351600680546001600160a01b03199081166001600160a01b039384161790915560209095015160078054909616911617909355600855600955600a805460ff19169091179055565b610563610bd1565b9173ba12222222228d8ba445958a75a0704d566bf2c83b156100e3575f916105a06040519485938493632e1c224f60e11b85523060048601610c09565b03818373ba12222222228d8ba445958a75a0704d566bf2c85af180156103c0576105f0575b6105e06105db6105d7600a5460ff1690565b1590565b610caa565b6001546040519015158152602090f35b806105fe5f61060493610692565b806100d9565b5f6105c5565b6104fb9193506106289060203d6020116103b9576103ab8183610692565b92906104cc565b346100e3575f3660031901126100e3576005546040516001600160a01b039091168152602090f35b346100e3575f3660031901126100e35760206040515f5160206126d95f395f51905f528152f35b634e487b7160e01b5f52604160045260245ffd5b90601f8019910116810190811067ffffffffffffffff8211176106b457604052565b61067e565b604051906106c860a083610692565b565b67ffffffffffffffff81116106b45760051b60200190565b9080601f830112156100e35781356106f9816106ca565b926107076040519485610692565b81845260208085019260051b8201019283116100e357602001905b82821061072f5750505090565b8135815260209182019101610722565b67ffffffffffffffff81116106b457601f01601f191660200190565b81601f820112156100e3578035906107728261073f565b926107806040519485610692565b828452602083830101116100e357815f926020809301838601378301015290565b346100e35760803660031901126100e35760043567ffffffffffffffff81116100e357366023820112156100e3578060040135906107de826106ca565b916107ec6040519384610692565b8083526024602084019160051b830101913683116100e357602401905b82821061087c578360243567ffffffffffffffff81116100e3576108319036906004016106e2565b60443567ffffffffffffffff81116100e3576108519036906004016106e2565b906064359267ffffffffffffffff84116100e35761087661013c94369060040161075b565b50610e78565b60208091833561088b816101aa565b815201910190610809565b346100e3575f3660031901126100e3576020600354604051908152f35b346100e3575f3660031901126100e3576040517f00000000000000000000000000000000000000000000000000000000000000006001600160a01b03168152602090f35b60048110156101105760ff801960025416911617600255565b6001546106c8575f5160206126d95f395f51905f523b156100e35760405163a1dfa42360e01b81525f81600481835f5160206126d95f395f51905f525af16109df575b505f5160206126d95f395f51905f523b156100e35760405163a388991b60e01b81525f81600481835f5160206126d95f395f51905f525af16109cb575b506109996112e1565b6106c8576109a56115cd565b6106c85760055460a81c60ff16156109c1576106c860026108f7565b6106c860036108f7565b806105fe5f6109d993610692565b5f610990565b806105fe5f6109ed93610692565b5f610953565b156109fa57565b60405162461bcd60e51b815260206004820152600960248201526837b7363c9039b2b63360b91b6044820152606490fd5b908160209103126100e3575190565b6040513d5f823e3d90fd5b91908260409103126100e3576020825192015190565b15610a6257565b60405162461bcd60e51b81526020600482015260156024820152747a65726f20636f6c6c61746572616c20736861726560581b6044820152606490fd5b15610aa657565b60405162461bcd60e51b815260206004820152600b60248201526a7a65726f20626f72726f7760a81b6044820152606490fd5b15610ae057565b60405162461bcd60e51b815260206004820152600f60248201526e7a65726f206465627420736861726560881b6044820152606490fd5b634e487b7160e01b5f52601160045260245ffd5b91908203918211610b3857565b610b17565b15610b4457565b60405162461bcd60e51b81526020600482015260096024820152681b9bc81c1c9bd99a5d60ba1b6044820152606490fd5b60408051909190610b868382610692565b6001815291601f1901366020840137565b634e487b7160e01b5f52603260045260245ffd5b805115610bb85760200190565b610b97565b8051821015610bb85760209160051b010190565b60405190610be0602083610692565b5f8252565b805180835260209291819084018484015e5f828201840152601f01601f1916010190565b6001600160a01b03909116815260806020808301829052835191830182905260a0830196959301905f5b818110610c8b5750505080850360408201526020808451968781520193015f955b808710610c73575050610c709394506060818403910152610be5565b90565b90936020806001928751815201950196019590610c54565b82516001600160a01b0316885260209788019790920191600101610c33565b15610cb157565b60405162461bcd60e51b8152602060048201526011602482015270199b185cda081b9bdd0818db19585c9959607a1b6044820152606490fd5b6040519060a0820182811067ffffffffffffffff8211176106b45760409081526006546001600160a01b039081168452600754166020840152600854908301526009546060830152600a5460ff1615156080830152565b15610d4857565b60405162461bcd60e51b815260206004820152601b60248201527f7a65726f20666c61736820636f6c6c61746572616c20736861726500000000006044820152606490fd5b15610d9457565b60405162461bcd60e51b81526020600482015260116024820152707a65726f20666c61736820626f72726f7760781b6044820152606490fd5b15610dd457565b60405162461bcd60e51b81526020600482015260156024820152747a65726f20666c617368206465627420736861726560581b6044820152606490fd5b670de0b6b3a7640000019081670de0b6b3a764000011610b3857565b91908201809211610b3857565b15610e4157565b60405162461bcd60e51b815260206004820152600f60248201526e1b9bc8199b185cda081c1c9bd99a5d608a1b6044820152606490fd5b90610e81610cea565b9173ba12222222228d8ba445958a75a0704d566bf2c83314908115916111ca575b81156111bd575b81156111b0575b81156111a3575b811561116b575b5061115c578151610f2791906001600160a01b031693610ee46040850195865190611847565b83516040906001600160a01b0316865182516307dba22560e31b81526001600160a01b03909216600483015260248201525f604482015293849081906064820190565b03815f5f5160206126d95f395f51905f525af19283156103c057610fc193610f58915f9161113b575b501515610d41565b8351604090610f84906001600160a01b03166020870180519098906001600160a01b03169051916119a3565b610f8f811515610d8d565b86518251634b8a352960e01b81526001600160a01b039091166004820152602481019190915293849081906044820190565b03815f5f5160206126d95f395f51905f525af19081156103c0576110096110449261104a955f9161111a575b50610ff9811515610dcd565b87516001600160a01b0316611b2d565b845161101d906001600160a01b0316611cec565b845161103d90611036906001600160a01b031694610bab565b5191610bab565b5190610e2d565b90611dc3565b815161106c90611060906001600160a01b031681565b6001600160a01b031690565b6040516370a0823160e01b81523060048201529290602090849060249082905afa9283156103c0576110e76110b56106c8956110f5935f916110fb575b50606086015190610b2b565b936110c1851515610e3a565b6110da5f6006555f6007555f6008555f6009555f600a55565b516001600160a01b031690565b91516001600160a01b031690565b90611d69565b611114915060203d6020116103b9576103ab8183610692565b5f6110a9565b611133915060403d6040116103ef576103df8183610692565b90505f610fed565b611154915060403d6040116103ef576103df8183610692565b90505f610f50565b634a356ecf60e11b5f5260045ffd5b61117c91506110da61106091610bab565b8251611190906001600160a01b0316611060565b6001600160a01b0390911614155f610ebe565b8451600114159150610eb7565b8251600114159150610eb0565b8051600114159150610ea9565b90506111dc6105d76080850151151590565b90610ea2565b6020818303126100e35780519067ffffffffffffffff82116100e357019080601f830112156100e3578151611216816106ca565b926112246040519485610692565b81845260208085019260051b8201019283116100e357602001905b82821061124c5750505090565b60208091835161125b816101aa565b81520191019061123f565b906005811015610bb85760051b0190565b3d156112a1573d906112888261073f565b916112966040519384610692565b82523d5f602084013e565b606090565b604051906112b5604083610692565b601882527f4449524543545f444542545f524f5554455f4641494c454400000000000000006020830152565b6040516319f92b0b60e21b8152905f826004815f5160206126d95f395f51905f525afa9182156103c0575f92611545575b505f905f5b83518110156114ad5761132d6110da8286610bbd565b6113396105d782611e20565b6114a4576113473082611f60565b938415611499575061135b60019482611f96565b905f5b60058110611373575050506001905b01611317565b8561138382859796989995611266565b518015611492575f825b6113a2575b5050905b0195949293919561135e565b855181101561148d57816113b96110da8389610bbd565b846113c86105d784848b611ff7565b61148457506005805460ff60a01b1916600160a01b1790556040516338bef80760e11b81526001600160a01b03888116600483015291909116602482015260448101919091526020816064815f305af15f9181611464575b5061144857508290611441611433611277565b61143b6112a6565b90612052565b018261138d565b909192506114595790888092611441565b509395505050505050565b61147d91925060203d81116103b9576103ab8183610692565b905f611420565b92915050611441565b611392565b5090611396565b93505060019061136d565b5060019061136d565b509150158061153b575b156114e9576114e57f1f947e25e821dea41f07ef4e434208627a4287552556496d966b39d7af8e36cf600355565b5f90565b6005546114fa9060a01c60ff161590565b80611531575b611508575f90565b6114e57fff27506e0f48103ad05b86328b6570cc3274384322bb43cc0750cde33271cd90600355565b5060035415611500565b50600354156114b7565b6115629192503d805f833e61155a8183610692565b8101906111e2565b905f611312565b906006811015610bb85760051b0190565b908160209103126100e3575180151581036100e35790565b604051906115a1604083610692565b602082527f42414c414e4345525f464c4153485f444542545f524f5554455f4641494c45446020830152565b6040516319f92b0b60e21b8152905f826004815f5160206126d95f395f51905f525afa9182156103c0575f9261182b575b505f905f5b8351811015611797576116196110da8286610bbd565b6116256105d782611e20565b61178e5761163281611ed6565b93841561178357506116466001948261208f565b905f5b6006811061165e575050506001905b01611603565b8561166e82859796989995611569565b51801561177c575f825b61168d575b5050905b01959492939195611649565b855181101561177757816116a46110da8389610bbd565b846116b36105d784848b611ff7565b61176e57506005805460ff60a01b1916600160a01b179055604051633b8cd4af60e11b81526001600160a01b03888116600483015291909116602482015260448101919091526020816064815f305af15f918161173e575b5061172d5750829061172661171e611277565b61143b611592565b0182611678565b909192506114595790888092611726565b61176091925060203d8111611767575b6117588183610692565b81019061157a565b905f61170b565b503d61174e565b92915050611726565b61167d565b5090611681565b935050600190611658565b50600190611658565b5091501580611821575b156117cf576114e57fcb58d7ca57b622d69c682ffc791f96309ad1443068a6c5366017da206631fb18600355565b6005546117e09060a01c60ff161590565b80611817575b6117ee575f90565b6114e57f642e82abab6f3c7273b8126a44fde9907ca2cf6e4890a24171076970f791320f600355565b50600354156117e6565b50600354156117a1565b6118409192503d805f833e61155a8183610692565b905f6115fe565b60405163095ea7b360e01b602082019081525f5160206126d95f395f51905f5260248301525f604483018190529293929182919061189281606481015b03601f198101835282610692565b519082865af16118a0611277565b816118f9575b50156118c3575f5160206126d95f395f51905f526106c892612117565b60405162461bcd60e51b815260206004820152600e60248201526d185c1c1c9bdd994819985a5b195960921b6044820152606490fd5b805180159250821561190e575b50505f6118a6565b611921925060208091830101910161157a565b5f80611906565b906123288202918083046123281490151715610b3857565b90670de0b6b3a7640000820291808304670de0b6b3a76400001490151715610b3857565b81810292918115918404141715610b3857565b8115611981570490565b634e487b7160e01b5f52601260045260245ffd5b604d8111610b3857600a0a90565b9190918115611aa8576119b58161219e565b918215611aa0576119c5916121ee565b8015611aa8576119ec6119de6119f9936119f193611964565b670de0b6b3a7640000900490565b611928565b612710900490565b8015611a9a57611a0761222c565b5f198114611aa857611a24611a1e611a2a93611940565b91610e11565b90611977565b8015611a9a57611a3982612266565b8015611aa857611a48836122b3565b5f198114611aa057611a6b92611a60611a6692611995565b90611964565b611977565b908115611a9a57611a7b906122d6565b8015611a9a57808211611a8c575090565b610c7091506119f190611928565b50505f90565b505050505f90565b5050505f90565b908160c09103126100e3576040519060c082019082821067ffffffffffffffff8311176106b45760a0916040528051611ae7816101aa565b83526020810151611af7816101aa565b60208401526040810151611b0a816101aa565b60408401526060810151606084015260808101516080840152015160a082015290565b60405163bf27304160e01b81526001600160a01b0391909116600482015260c0816024815f5160206126d95f395f51905f525afa80156103c057604061106091611b87935f91611cbd575b5001516001600160a01b031690565b611b9081611f22565b611b9a8383612310565b611ca5575b506040516387793ba360e01b81526001600160a01b03828116600483015290927f000000000000000000000000000000000000000000000000000000000000000090911690602084602481855afa9384156103c0575f94611c80575b50611c0790828461238f565b611c1b575b6311befc9d60e01b5f5260045ffd5b6040516387793ba360e01b81526001600160a01b03929092166004830152602090829060249082905afa9081156103c0575f91611c61575b50116106c857808080611c0c565b611c7a915060203d6020116103b9576103ab8183610692565b5f611c53565b611c07919450611c9e9060203d6020116103b9576103ab8183610692565b9390611bfb565b611cae82611f22565b11611cb9575f611b9f565b5050565b611cdf915060c03d60c011611ce5575b611cd78183610692565b810190611aaf565b5f611b78565b503d611ccd565b6040805163ead5d35960e01b81526001600160a01b0390921660048301525f1960248301525f60448301819052829060649082905f5160206126d95f395f51905f525af19081611d4b575b506106c857632c93101160e01b5f5260045ffd5b611d639060403d6040116103ef576103df8183610692565b50611d37565b60018060a01b03166001600160601b0360a01b600454161760045560018060a01b0316806001600160601b0360a01b60055416176005556001600160601b0360a01b5f5416175f55600155600160ff196002541617600255565b9073ba12222222228d8ba445958a75a0704d566bf2c8611de29261238f565b15611de957565b60405162461bcd60e51b815260206004820152600f60248201526e1d1c985b9cd9995c8819985a5b1959608a1b6044820152606490fd5b6001600160a01b03811615611ed15760405163bf27304160e01b81526001600160a01b0391909116600482015260c0816024815f5160206126d95f395f51905f525afa9081156103c0575f91611eb2575b508051611e8890611060906001600160a01b031681565b15159081611e94575090565b60400151611ead9150611060906001600160a01b031681565b151590565b611ecb915060c03d60c011611ce557611cd78183610692565b5f611e71565b505f90565b611f1990604051906370a0823160e01b602083015273ba12222222228d8ba445958a75a0704d566bf2c8602483015260248252611f14604483610692565b612422565b9015611ed15790565b611f1990604051906370a0823160e01b6020830152731111111111111111111111111111111111111111602483015260248252611f14604483610692565b6040516370a0823160e01b60208201526001600160a01b039092166024808401919091528252611f199190611f14604483610692565b91906080604051611fa860a082610692565b60a0368237611fe5611fdf8296611fc7611fc182612438565b8761258b565b8452611fd5611fc182612493565b60208501526124e5565b8461258b565b60408201528260011c60608201520152565b91906001600160a01b0380841690821614801561204a575b801561203a575b801561202a575b611aa857611ead926119a3565b5061203481611e20565b1561201d565b5061204483611e20565b15612016565b50811561200f565b61205b9061259d565b612077575b6003541561206b5750565b60208151910120600355565b6005805460ff60a81b1916600160a81b179055612060565b919091604051906120a160c083610692565b60c03683376103e882940491821561211157506120f6816120cd6120c76120fc94612438565b8561258b565b86526120db6120c782612493565b60208701526120ec6120c7826124e5565b6040870152612537565b8261258b565b60608401528060011c608084015260a0830152565b93505050565b60405163095ea7b360e01b602082019081526001600160a01b03909316602482015260448101939093525f9283929083906121558160648101611884565b51925af1612161611277565b8161216f575b50156118c357565b8051801592508215612184575b50505f612167565b612197925060208091830101910161157a565b5f8061217c565b611f19906121aa612607565b6040516330be9d2560e21b60208201525f5160206126d95f395f51905f5260248201526001600160a01b039092166044808401919091528252611f14606483610692565b8115611a9a576121fd81612266565b908115611aa85761220d906122b3565b905f198214611aa857612226611a2491610c7094611964565b91611995565b612257612237612607565b6040516301cba98760e21b60208201526004815290611f14602483610692565b90156122605790565b505f1990565b61226e61262f565b906001600160a01b03821615611a9a576040516341976e0960e01b60208201526001600160a01b039091166024808301919091528152611f1991611f14604483610692565b60405163313ce56760e01b60208201526004815261225791611f14602483610692565b60405163b8c876b160e01b60208201526001600160a01b039091166024808301919091528152611f199061230b604482610692565b6123cd565b5f9190829182604051602081019263a9059cbb60e01b84527311111111111111111111111111111111111111116024830152604482015260448152612356606482610692565b51925af1612362611277565b8161236b575090565b805180159250821561237c57505090565b610c70925060208091830101910161157a565b60405163a9059cbb60e01b602082019081526001600160a01b03909316602482015260448101939093525f9283929083906123568160648101611884565b5f80916020815191015f5160206126d95f395f51905f525afa906123ef611277565b82158015612417575b61240f5780602080610c7093518301019101610a2b565b505f91508190565b5060208151106123f8565b5f918291602082519201905afa906123ef611277565b61244181612266565b908115611a9a57612451906122b3565b5f198114611a9a5761246290611995565b9081678ac7230489e800000291678ac7230489e80000830403610b385761248891611977565b80610c705750600190565b61249c81612266565b908115611a9a576124ac906122b3565b5f198114611a9a576124bd90611995565b908168056bc75e2d63100000029168056bc75e2d63100000830403610b385761248891611977565b6124ee81612266565b908115611a9a576124fe906122b3565b5f198114611a9a5761250f90611995565b9081683635c9adc5dea000000291683635c9adc5dea00000830403610b385761248891611977565b61254081612266565b908115611a9a57612550906122b3565b5f198114611a9a5761256190611995565b908169021e19e0c9bab2400000029169021e19e0c9bab2400000830403610b385761248891611977565b9080821015612598575090565b905090565b6004815110611ed157602001516001600160e01b0319166311befc9d60e01b81149081156125f6575b81156125e5575b81156125d7575090565b6377b1921f60e11b14919050565b633c3b8e1b60e21b811491506125cd565b632c93101160e01b811491506125c6565b6040516317bc24e360e31b602082015260048152611f199061262a602482610692565b61266e565b612637612607565b6001600160a01b03811615611ed157604051635ddf2be360e01b602082015260048152611f1991612669602483610692565b6126c2565b5f80916020815191015f5160206126d95f395f51905f525afa90612690611277565b821580156126b7575b61240f576020818051810103126100e35760200151611060816101aa565b506020815110612699565b5f918291602082519201905afa9061269061127756fe000000000000000000000000cb3b879ab11f825885d5add8bf3672596d35197ca2646970667358221220616c922a4df2149b484c8a61c3065a3840cc20091230314ff098f99bfc6cdb5364736f6c634300081e0033608080604052346015576101c4908161001a8239f35b5f80fdfe6080806040526004361015610012575f80fd5b5f3560e01c9081630f1bf70d1461011f57816311279b4a1461010057506387793ba31461003d575f80fd5b346100d65760203660031901126100d657602460206001600160a01b0361006261014c565b16604051928380926370a0823160e01b82523060048301525afa80156100f5575f90610094575b602090604051908152f35b5060203d6020116100ee575b601f8101601f1916820167ffffffffffffffff8111838210176100da576020918391604052810103126100d65760209051610089565b5f80fd5b634e487b7160e01b5f52604160045260245ffd5b503d6100a0565b6040513d5f823e3d90fd5b346100d6575f3660031901126100d657630893cda560e11b8152602090f35b346100d65760803660031901126100d65761013861014c565b50610141610162565b5061014a610178565b005b600435906001600160a01b03821682036100d657565b602435906001600160a01b03821682036100d657565b604435906001600160a01b03821682036100d65756fea26469706673582212203031eca644afaac0930089f65b133b354ee0022f5dd06bb2beb242d6f7cdc49c64736f6c634300081e0033","linkReferences":{}},"methodIdentifiers":{"TARGET_SILO()":"d1a5de87","attemptDirectDebtRoute(address,address,uint256)":"717df00e","attemptFlashDebtRoute(address,address,uint256)":"7719a95e","chosenBorrowAsset()":"868639d2","chosenCollateralAsset()":"4d43736a","executeOnOpportunity()":"3c2448ed","lastFailureTag()":"f288750d","outcome()":"27793f87","profitAmount()":"5ff972cc","profitToken()":"49343624","receiveFlashLoan(address[],uint256[],uint256[],bytes)":"f04f2707","receiver()":"f7260d3e"},"id":0}