{"abi":[{"type":"function","name":"notificationReceiverPing","inputs":[],"outputs":[{"name":"","type":"bytes4","internalType":"bytes4"}],"stateMutability":"pure"},{"type":"function","name":"onAfterTransfer","inputs":[{"name":"","type":"address","internalType":"address"},{"name":"","type":"address","internalType":"address"},{"name":"","type":"address","internalType":"address"},{"name":"","type":"uint256","internalType":"uint256"}],"outputs":[],"stateMutability":"nonpayable"},{"type":"function","name":"shareBalance","inputs":[{"name":"shareToken","type":"address","internalType":"address"}],"outputs":[{"name":"","type":"uint256","internalType":"uint256"}],"stateMutability":"view"}],"bytecode":{"object":"0x608080604052346015576101c4908161001a8239f35b5f80fdfe6080806040526004361015610012575f80fd5b5f3560e01c9081630f1bf70d1461011f57816311279b4a1461010057506387793ba31461003d575f80fd5b346100d65760203660031901126100d657602460206001600160a01b0361006261014c565b16604051928380926370a0823160e01b82523060048301525afa80156100f5575f90610094575b602090604051908152f35b5060203d6020116100ee575b601f8101601f1916820167ffffffffffffffff8111838210176100da576020918391604052810103126100d65760209051610089565b5f80fd5b634e487b7160e01b5f52604160045260245ffd5b503d6100a0565b6040513d5f823e3d90fd5b346100d6575f3660031901126100d657630893cda560e11b8152602090f35b346100d65760803660031901126100d65761013861014c565b50610141610162565b5061014a610178565b005b600435906001600160a01b03821682036100d657565b602435906001600160a01b03821682036100d657565b604435906001600160a01b03821682036100d65756fea26469706673582212203031eca644afaac0930089f65b133b354ee0022f5dd06bb2beb242d6f7cdc49c64736f6c634300081e0033","linkReferences":{}},"methodIdentifiers":{"notificationReceiverPing()":"11279b4a","onAfterTransfer(address,address,address,uint256)":"0f1bf70d","shareBalance(address)":"87793ba3"},"id":0}