{"abi":[{"type":"constructor","inputs":[{"name":"verifier_","type":"address","internalType":"address"}],"stateMutability":"nonpayable"},{"type":"function","name":"executeWithdraw","inputs":[{"name":"silo","type":"address","internalType":"address"},{"name":"asset","type":"address","internalType":"address"}],"outputs":[{"name":"withdrawnAmount","type":"uint256","internalType":"uint256"}],"stateMutability":"nonpayable"},{"type":"function","name":"shareBalance","inputs":[{"name":"shareToken","type":"address","internalType":"address"}],"outputs":[{"name":"","type":"uint256","internalType":"uint256"}],"stateMutability":"view"},{"type":"function","name":"verifier","inputs":[],"outputs":[{"name":"","type":"address","internalType":"address"}],"stateMutability":"view"}],"bytecode":{"object":"0x60a034606d57601f6104b138819003918201601f19168301916001600160401b03831184841017607157808492602094604052833981010312606d57516001600160a01b0381168103606d5760805260405161042b9081610086823960805181818161010701526102730152f35b5f80fd5b634e487b7160e01b5f52604160045260245ffdfe6080806040526004361015610012575f80fd5b5f3560e01c9081632b7ac3f314610261575080637cc34385146100d6576387793ba31461003d575f80fd5b346100bf5760203660031901126100bf57602460206001600160a01b036100626102a2565b16604051928380926370a0823160e01b82523060048301525afa80156100cb575f90610094575b602090604051908152f35b506020813d6020116100c3575b816100ae602093836102b8565b810103126100bf5760209051610089565b5f80fd5b3d91506100a1565b6040513d5f823e3d90fd5b346100bf5760403660031901126100bf576100ef6102a2565b602435906001600160a01b038216908183036100bf577f0000000000000000000000000000000000000000000000000000000000000000926001600160a01b038416330361022c576040805163ead5d35960e01b8152600481018590525f1960248201525f60448201819052909384916064918391906001600160a01b03165af19182156100cb575f926101f7575b50602060249293604051938480926370a0823160e01b82523060048301525afa9182156100cb575f926101c2575b50906020936101ba926102ee565b604051908152f35b91506020823d6020116101ef575b816101dd602093836102b8565b810103126100bf5790519060206101ac565b3d91506101d0565b91506040823d604011610224575b81610212604093836102b8565b810103126100bf57905190602061017e565b3d9150610205565b60405162461bcd60e51b815260206004820152600d60248201526c37b7363c903b32b934b334b2b960991b6044820152606490fd5b346100bf575f3660031901126100bf577f00000000000000000000000000000000000000000000000000000000000000006001600160a01b03168152602090f35b600435906001600160a01b03821682036100bf57565b90601f8019910116810190811067ffffffffffffffff8211176102da57604052565b634e487b7160e01b5f52604160045260245ffd5b91909181156103f0575f9283809360405190602082019363a9059cbb60e01b855260018060a01b031660248301526044820152604481526103306064826102b8565b51925af13d156103e9573d67ffffffffffffffff81116102da5760405190610362601f8201601f1916602001836102b8565b81523d5f602083013e5b816103b1575b501561037a57565b60405162461bcd60e51b815260206004820152600f60248201526e1d1c985b9cd9995c8819985a5b1959608a1b6044820152606490fd5b80518015925082156103c6575b50505f610372565b81925090602091810103126100bf576020015180151581036100bf575f806103be565b606061036c565b50505056fea26469706673582212204024344689f664e413519d75482e228ccef80aefc5dea22b5a3a041da8c52ec464736f6c634300081e0033","linkReferences":{}},"methodIdentifiers":{"executeWithdraw(address,address)":"7cc34385","shareBalance(address)":"87793ba3","verifier()":"2b7ac3f3"},"id":0}