{"abi":[{"type":"constructor","inputs":[],"stateMutability":"nonpayable"},{"type":"function","name":"CHAMBER","inputs":[],"outputs":[{"name":"","type":"address","internalType":"contract IChamber"}],"stateMutability":"view"},{"type":"function","name":"bentoBox","inputs":[],"outputs":[{"name":"","type":"address","internalType":"contract IBentoBoxV1"}],"stateMutability":"view"},{"type":"function","name":"collateralToken","inputs":[],"outputs":[{"name":"","type":"address","internalType":"contract IERC20Minimal"}],"stateMutability":"view"},{"type":"function","name":"executeOnOpportunity","inputs":[],"outputs":[],"stateMutability":"nonpayable"},{"type":"function","name":"onFlashLoan","inputs":[{"name":"sender","type":"address","internalType":"address"},{"name":"token","type":"address","internalType":"contract IERC20Minimal"},{"name":"amount","type":"uint256","internalType":"uint256"},{"name":"fee","type":"uint256","internalType":"uint256"},{"name":"","type":"bytes","internalType":"bytes"}],"outputs":[],"stateMutability":"nonpayable"},{"type":"function","name":"profitAmount","inputs":[],"outputs":[{"name":"","type":"uint256","internalType":"uint256"}],"stateMutability":"view"},{"type":"function","name":"profitToken","inputs":[],"outputs":[{"name":"","type":"address","internalType":"address"}],"stateMutability":"view"},{"type":"function","name":"senUsdToken","inputs":[],"outputs":[{"name":"","type":"address","internalType":"contract IERC20Minimal"}],"stateMutability":"view"}],"bytecode":{"object":"0x610100806040523461017f57636b2ace8760e01b81526020816004817365c210c59b43eb68112b7a4f75c8393c36491f065afa90811561018b575f916101e4575b5060805260405163b6f173d160e01b81526020816004817365c210c59b43eb68112b7a4f75c8393c36491f065afa90811561018b575f916101c5575b5060a05260405163d8dfeb4560e01b81526020816004817365c210c59b43eb68112b7a4f75c8393c36491f065afa90811561018b575f91610196575b5060c05260a0516040516370a0823160e01b815230600482015290602090829060249082906001600160a01b03165afa90811561018b575f91610155575b5060e052604051611414908161027d823960805181818160ff015281816102260152610946015260a0518181816101600152818161081301526108f6015260c05181818160bb0152818161025f0152610c64015260e05181610cf60152f35b90506020813d602011610183575b8161017060209383610226565b8101031261017f57515f6100f6565b5f80fd5b3d9150610163565b6040513d5f823e3d90fd5b6101b8915060203d6020116101be575b6101b08183610226565b81019061025d565b5f6100b8565b503d6101a6565b6101de915060203d6020116101be576101b08183610226565b5f61007c565b90506020813d60201161021e575b816101ff60209383610226565b8101031261017f57516001600160a01b038116810361017f575f610040565b3d91506101f2565b601f909101601f19168101906001600160401b0382119082101761024957604052565b634e487b7160e01b5f52604160045260245ffd5b9081602091031261017f57516001600160a01b038116810361017f579056fe6080806040526004361015610012575f80fd5b5f3560e01c9081630ce09663146108015750806323e30c8b146101a95780633c2448ed1461018f578063493436241461014b5780635ff972cc1461012e5780636b2ace87146100ea578063b2016bd4146100a65763c6f615a614610074575f80fd5b346100a2575f3660031901126100a25760206040517365c210c59b43eb68112b7a4f75c8393c36491f068152f35b5f80fd5b346100a2575f3660031901126100a2576040517f00000000000000000000000000000000000000000000000000000000000000006001600160a01b03168152602090f35b346100a2575f3660031901126100a2576040517f00000000000000000000000000000000000000000000000000000000000000006001600160a01b03168152602090f35b346100a2575f3660031901126100a2576020600154604051908152f35b346100a2575f3660031901126100a2576040517f00000000000000000000000000000000000000000000000000000000000000006001600160a01b03168152602090f35b346100a2575f3660031901126100a2576101a76108d3565b005b346100a25760a03660031901126100a2576004356001600160a01b038116908190036100a2576024356001600160a01b03811691908290036100a25760443560843567ffffffffffffffff81116100a257366023820112156100a257806004013567ffffffffffffffff81116100a257369101602401116100a2577f00000000000000000000000000000000000000000000000000000000000000006001600160a01b031691338390036107c857300361078f577f00000000000000000000000000000000000000000000000000000000000000009060018060a01b038216809403610757575f5460ff8160081c1661071f576101009061ff001916175f556102dc60405163095ea7b360e01b60208201528460248201525f6044820152604481526102d6606482610842565b836111bd565b60405163095ea7b360e01b60208201526001600160a01b03841660248201526044810182905261031d906102d681606481015b03601f198101835282610842565b60405193606061032d8187610842565b600286526040601f198201968736602083013781519061034d8483610842565b6002825288366020840137610360611081565b94601461036c836110bb565b52600a610378836110dc565b5283519060208201527365c210c59b43eb68112b7a4f75c8393c36491f068482015286858201525f6080820152608081526103b460a082610842565b6103bd866110bb565b526103c7856110bb565b508251600119602082015230818501526001858201528481526103eb608082610842565b6103f4866110dc565b526103fe856110dc565b5061041c8351958693849363568d8cd960e01b8552600485016110ec565b03815f7365c210c59b43eb68112b7a4f75c8393c36491f065af191821561065e575f926106fc575b5081156106b75760409081519661045b8289610842565b60028852803660208a013761047283519283610842565b6002825236602083013761030f6104bd61048a611081565b9460046104968b6110bb565b5260646104a28b6110dc565b52845160208101919091523060408201529182906060820190565b6104c6846110bb565b526104d0836110bb565b5060209682516104e08982610842565b5f81526104ec856110dc565b526104f6846110dc565b506105148351948593849363568d8cd960e01b8552600485016110ec565b03815f7365c210c59b43eb68112b7a4f75c8393c36491f065af1801561065e57610699575b50604051633de222bb60e21b81526001600160a01b0383166004820152306024820152938085604481875afa94851561065e575f95610669575b506040805163097da6d360e41b81526001600160a01b0385166004820152306024820181905260448201525f60648201526084810196909652858060a4810103815f885af194851561065e576105dd61061f936106119261062498610630575b506064359061088e565b60405163a9059cbb60e01b938101939093526001600160a01b03909516602483015260448201949094529283906064820190565b03601f198101845283610842565b6111bd565b5f805461ff0019169055005b6106519060403d604011610657575b6106498183610842565b810190610878565b506105d3565b503d61063f565b6040513d5f823e3d90fd5b94508085813d8311610692575b6106808183610842565b810103126100a2579351936040610573565b503d610676565b6106b19060403d604011610657576106498183610842565b50610539565b60405162461bcd60e51b815260206004820152601960248201527f72656d6f76652070617468207368617265206973207a65726f000000000000006044820152606490fd5b61071691925060403d604011610657576106498183610842565b90509086610444565b60405162461bcd60e51b815260206004820152601060248201526f3732b9ba32b210333630b9b43637b0b760811b6044820152606490fd5b60405162461bcd60e51b815260206004820152601060248201526f3ab732bc3832b1ba32b2103a37b5b2b760811b6044820152606490fd5b60405162461bcd60e51b81526020600482015260116024820152703ab732bc3832b1ba32b21039b2b73232b960791b6044820152606490fd5b60405162461bcd60e51b81526020600482015260116024820152703ab732bc3832b1ba32b2103632b73232b960791b6044820152606490fd5b346100a2575f3660031901126100a2577f00000000000000000000000000000000000000000000000000000000000000006001600160a01b03168152602090f35b90601f8019910116810190811067ffffffffffffffff82111761086457604052565b634e487b7160e01b5f52604160045260245ffd5b91908260409103126100a2576020825192015190565b9190820180921161089b57565b634e487b7160e01b5f52601160045260245ffd5b805180835260209291819084018484015e5f828201840152601f01601f1916010190565b5f5f5460ff811661107d5760ff19166001175f55604051633de222bb60e21b81527f00000000000000000000000000000000000000000000000000000000000000006001600160a01b03818116600484018190527365c210c59b43eb68112b7a4f75c8393c36491f0660248501529293917f000000000000000000000000000000000000000000000000000000000000000090911690602085604481855afa94851561065e575f95611049575b5084156110045760405194630acc462360e31b865284600487015260248601525f6044860152602085606481855afa94851561065e575f95610fd0575b506040805163e551d11d60e01b815290816004817365c210c59b43eb68112b7a4f75c8393c36491f065afa90811561065e575f905f92610fae575b506040805163020a17bd60e61b815290816004817365c210c59b43eb68112b7a4f75c8393c36491f065afa90811561065e575f905f92610f7c575b50604051632ae8093d60e21b8152936020856004817365c210c59b43eb68112b7a4f75c8393c36491f065afa94851561065e575f95610f48575b50939291905f99945b858b10610ee7575050505050508415610eab5760405194610a98606087610842565b60028652604080803660208a0137815190610ab4606083610842565b6002825236602083013761030f610ae4610acc611081565b946005610ad88c6110bb565b5260086104a28c6110dc565b610aed846110bb565b52610af7836110bb565b506020978251610b078a82610842565b5f8152610b13856110dc565b52610b1d846110dc565b50610b3b8351948593849363568d8cd960e01b8552600485016110ec565b03815f7365c210c59b43eb68112b7a4f75c8393c36491f065af1801561065e57610e8d575b50604051633de222bb60e21b81526001600160a01b03821660048201523060248201528581604481865afa90811561065e575f91610e60575b5015610e1b57604051633de222bb60e21b81526001600160a01b0382166004820152306024820152908582604481865afa91821561065e575f92610dec575b508115610da7576040805163097da6d360e41b81526001600160a01b039092166004830152306024830181905260448301525f6064830152608482019290925290818060a4810103815f865af1801561065e57610d89575b50604051610c3e8582610842565b5f8152813b156100a25760405163f1676d3760e01b8152306004820181905260248201527f00000000000000000000000000000000000000000000000000000000000000006001600160a01b031660448201526103e7606482015260a06084820152859290915f918391829084908290610cbc9060a48301906108af565b03925af1610d73575b506040516370a0823160e01b81523060048201529192829060249082905afa928315610d68578293610d38575b50507f00000000000000000000000000000000000000000000000000000000000000008203918211610d245750600155565b634e487b7160e01b81526011600452602490fd5b9080929350813d8311610d61575b610d508183610842565b810103126100a25751905f80610cf2565b503d610d46565b6040513d84823e3d90fd5b610d8092505f9150610842565b5f826024610cc5565b610da19060403d604011610657576106498183610842565b50610c30565b60405162461bcd60e51b815260048101879052601b60248201527f6e6f2073656e55534420736861726520746f20776974686472617700000000006044820152606490fd5b9091508581813d8311610e14575b610e048183610842565b810103126100a25751905f610bd8565b503d610dfa565b60405162461bcd60e51b815260048101869052601e60248201527f626f72726f7720706174682070726f6475636564206e6f2073656e55534400006044820152606490fd5b90508581813d8311610e86575b610e778183610842565b810103126100a257515f610b99565b503d610e6d565b610ea59060403d604011610657576106498183610842565b50610b60565b60405162461bcd60e51b8152602060048201526014602482015273189bdc9c9bddc818d85c08195e1a185d5cdd195960621b6044820152606490fd5b909192939499610ef78b8261088e565b6001810180911161089b5760011c90610f14858585898b8761132e565b15610f265750995b9493929190610a76565b9a505f19810190811115610f1c57634e487b7160e01b5f52601160045260245ffd5b9094506020813d602011610f74575b81610f6460209383610842565b810103126100a25751935f610a6d565b3d9150610f57565b9050610fa0915060403d604011610fa7575b610f988183610842565b8101906112d9565b905f610a33565b503d610f8e565b9050610fc9915060403d604011610fa757610f988183610842565b905f6109f8565b9094506020813d602011610ffc575b81610fec60209383610842565b810103126100a25751935f6109bd565b3d9150610fdf565b60405162461bcd60e51b815260206004820152601b60248201527f6e6f206368616d6265722073656e555344206c697175696469747900000000006044820152606490fd5b9094506020813d602011611075575b8161106560209383610842565b810103126100a25751935f610980565b3d9150611058565b5050565b604051606091906110928382610842565b6002815291601f1901825f5b8281106110aa57505050565b80606060208093850101520161109e565b8051156110c85760200190565b634e487b7160e01b5f52603260045260245ffd5b8051600110156110c85760400190565b90606082016060835281518091526020608084019201905f5b8181106111a4575050508181036020830152602080845192838152019301905f5b81811061118e575050506040818303910152815180825260208201916020808360051b8301019401925f915b83831061116157505050505090565b909192939460208061117f600193601f1986820301875289516108af565b97019301930191939290611152565b8251855260209485019490920191600101611126565b825160ff16845260209384019390920191600101611105565b81515f92839260209091019083906001600160a01b03165af13d156112bd573d9067ffffffffffffffff82116108645760405191611205601f8201601f191660200184610842565b82523d5f602084013e5b156112845780518061121f575050565b81602091810103126100a257602001518015908115036100a25761123f57565b60405162461bcd60e51b815260206004820152601960248201527f746f6b656e2063616c6c2072657475726e65642066616c7365000000000000006044820152606490fd5b60405162461bcd60e51b81526020600482015260116024820152701d1bdad95b8818d85b1b0819985a5b1959607a1b6044820152606490fd5b60609061120f565b51906001600160801b03821682036100a257565b91908260409103126100a2576112fa60206112f3846112c5565b93016112c5565b90565b8181029291811591840414171561089b57565b811561131a570490565b634e487b7160e01b5f52601260045260245ffd5b620186a061134361134a9397969597836112fd565b049061088e565b906001600160801b0361135f8382861661088e565b91161061137f576001600160801b039261137892611387565b9116101590565b505050505f90565b6001600160801b031692919083156113d9576001600160801b036113c391166113b76113bc866113b784876112fd565b611310565b95866112fd565b106113ca57565b906001810180911161089b5790565b50915056fea2646970667358221220dfcb1c6116bcaaace0e9fb6a9a886ff8e3e94862c4c9d80d4056157a18c1140964736f6c634300081e0033","linkReferences":{}},"methodIdentifiers":{"CHAMBER()":"c6f615a6","bentoBox()":"6b2ace87","collateralToken()":"b2016bd4","executeOnOpportunity()":"3c2448ed","onFlashLoan(address,address,uint256,uint256,bytes)":"23e30c8b","profitAmount()":"5ff972cc","profitToken()":"49343624","senUsdToken()":"0ce09663"},"id":0}