{"abi":[{"type":"constructor","inputs":[],"stateMutability":"nonpayable"},{"type":"function","name":"approvalStageReachable","inputs":[],"outputs":[{"name":"","type":"bool","internalType":"bool"}],"stateMutability":"view"},{"type":"function","name":"checkedTarget","inputs":[],"outputs":[{"name":"","type":"bool","internalType":"bool"}],"stateMutability":"view"},{"type":"function","name":"executeOnOpportunity","inputs":[],"outputs":[],"stateMutability":"nonpayable"},{"type":"function","name":"exploitPathUsed","inputs":[],"outputs":[{"name":"","type":"string","internalType":"string"}],"stateMutability":"view"},{"type":"function","name":"fakeReplacementStageReachable","inputs":[],"outputs":[{"name":"","type":"bool","internalType":"bool"}],"stateMutability":"view"},{"type":"function","name":"hypothesisValidated","inputs":[],"outputs":[{"name":"","type":"bool","internalType":"bool"}],"stateMutability":"view"},{"type":"function","name":"infeasibilityReason","inputs":[],"outputs":[{"name":"","type":"string","internalType":"string"}],"stateMutability":"view"},{"type":"function","name":"infeasibilityReasonBytesEmpty","inputs":[],"outputs":[{"name":"","type":"bool","internalType":"bool"}],"stateMutability":"view"},{"type":"function","name":"migrateCallReachable","inputs":[],"outputs":[{"name":"","type":"bool","internalType":"bool"}],"stateMutability":"view"},{"type":"function","name":"observedFactory","inputs":[],"outputs":[{"name":"","type":"address","internalType":"address"}],"stateMutability":"view"},{"type":"function","name":"observedMasterChef","inputs":[],"outputs":[{"name":"","type":"address","internalType":"address"}],"stateMutability":"view"},{"type":"function","name":"observedMigrator","inputs":[],"outputs":[{"name":"","type":"address","internalType":"address"}],"stateMutability":"view"},{"type":"function","name":"observedOwner","inputs":[],"outputs":[{"name":"","type":"address","internalType":"address"}],"stateMutability":"view"},{"type":"function","name":"observedPid","inputs":[],"outputs":[{"name":"","type":"uint256","internalType":"uint256"}],"stateMutability":"view"},{"type":"function","name":"observedPoolLength","inputs":[],"outputs":[{"name":"","type":"uint256","internalType":"uint256"}],"stateMutability":"view"},{"type":"function","name":"observedPoolLpBalance","inputs":[],"outputs":[{"name":"","type":"uint256","internalType":"uint256"}],"stateMutability":"view"},{"type":"function","name":"observedPoolLpToken","inputs":[],"outputs":[{"name":"","type":"address","internalType":"address"}],"stateMutability":"view"},{"type":"function","name":"observedReplacementToken","inputs":[],"outputs":[{"name":"","type":"address","internalType":"address"}],"stateMutability":"view"},{"type":"function","name":"observedTargetLpBalance","inputs":[],"outputs":[{"name":"","type":"uint256","internalType":"uint256"}],"stateMutability":"view"},{"type":"function","name":"observedTargetOwner","inputs":[],"outputs":[{"name":"","type":"address","internalType":"address"}],"stateMutability":"view"},{"type":"function","name":"ownerStageReachable","inputs":[],"outputs":[{"name":"","type":"bool","internalType":"bool"}],"stateMutability":"view"},{"type":"function","name":"poolReplacementStageReachable","inputs":[],"outputs":[{"name":"","type":"bool","internalType":"bool"}],"stateMutability":"view"},{"type":"function","name":"profitAmount","inputs":[],"outputs":[{"name":"","type":"uint256","internalType":"uint256"}],"stateMutability":"view"},{"type":"function","name":"profitToken","inputs":[],"outputs":[{"name":"","type":"address","internalType":"address"}],"stateMutability":"view"},{"type":"function","name":"stagedMaliciousMigrator","inputs":[],"outputs":[{"name":"","type":"address","internalType":"address"}],"stateMutability":"view"},{"type":"function","name":"target","inputs":[],"outputs":[{"name":"","type":"address","internalType":"address"}],"stateMutability":"pure"},{"type":"function","name":"targetExposesMigratorFlow","inputs":[],"outputs":[{"name":"","type":"bool","internalType":"bool"}],"stateMutability":"view"},{"type":"function","name":"targetHasCode","inputs":[],"outputs":[{"name":"","type":"bool","internalType":"bool"}],"stateMutability":"view"}],"bytecode":{"object":"0x60808060405234601557612235908161001a8239f35b5f80fdfe6080806040526004361015610012575f80fd5b5f3560e01c9081630c02e9d21461061b575080631aea0ade146105f55780631aede64f146105cd5780631e242437146105b05780632017aaf9146105885780633c2448ed1461056e5780634628de2514610542578063463defd11461052057806349343624146104f95780635ff972cc146104dc57806363c9f4ae146104b7578063674679b31461049357806375e7f3521461042657806379965d8b1461046b5780638270463e1461044357806382ff113b146104265780639e7977de14610401578063bb0541d3146103dc578063c0e3aa1d146103bf578063d4b8399214610391578063d78c4281146102ff578063df5e8cb4146102da578063dfa6be1b14610213578063dfe3bbf6146101ee578063e17faf24146101c9578063e5ca9d51146101a4578063f2cc5ae11461017c5763f9fc49d714610150575f80fd5b34610178575f366003190112610178576004546040516001600160a01b039091168152602090f35b5f80fd5b34610178575f366003190112610178576007546040516001600160a01b039091168152602090f35b34610178575f36600319011261017857602060ff60025460101c166040519015158152f35b34610178575f36600319011261017857602060ff60025460181c166040519015158152f35b34610178575f36600319011261017857602060ff60025460281c166040519015158152f35b34610178575f366003190112610178576040515f600e546102338161063e565b80845290600181169081156102b6575060011461026b575b6102678361025b81850382610676565b604051918291826106ac565b0390f35b600e5f9081525f5160206121605f395f51905f52939250905b80821061029c5750909150810160200161025b61024b565b919260018160209254838588010152019101909291610284565b60ff191660208086019190915291151560051b8401909101915061025b905061024b565b34610178575f36600319011261017857602060ff60025460301c166040519015158152f35b34610178575f366003190112610178576040515f600d5461031f8161063e565b80845290600181169081156102b65750600114610346576102678361025b81850382610676565b600d5f9081525f5160206121e05f395f51905f52939250905b8082106103775750909150810160200161025b61024b565b91926001816020925483858801015201910190929161035f565b34610178575f36600319011261017857602060405173e11fc0b43ab98eb91e9836129d1ee7c3bc95df508152f35b34610178575f366003190112610178576020600b54604051908152f35b34610178575f36600319011261017857602060ff60025460381c166040519015158152f35b34610178575f36600319011261017857602060ff60025460401c166040519015158152f35b34610178575f366003190112610178576020600a54604051908152f35b34610178575f36600319011261017857600c546040516001600160a01b039091168152602090f35b34610178575f366003190112610178576005546040516001600160a01b039091168152602090f35b34610178575f36600319011261017857602060ff600254821c166040519015158152f35b34610178575f36600319011261017857602060ff60025460081c166040519015158152f35b34610178575f366003190112610178576020600154604051908152f35b34610178575f366003190112610178575f546040516001600160a01b039091168152602090f35b34610178575f36600319011261017857602060ff600254166040519015158152f35b34610178575f3660031901126101785760025460405160489190911c6001600160a01b03168152602090f35b34610178575f36600319011261017857610586610708565b005b34610178575f366003190112610178576006546040516001600160a01b039091168152602090f35b34610178575f366003190112610178576020600954604051908152f35b34610178575f366003190112610178576003546040516001600160a01b039091168152602090f35b34610178575f366003190112610178576020610612600e5461063e565b15604051908152f35b34610178575f366003190112610178576008546001600160a01b03168152602090f35b90600182811c9216801561066c575b602083101461065857565b634e487b7160e01b5f52602260045260245ffd5b91607f169161064d565b90601f8019910116810190811067ffffffffffffffff82111761069857604052565b634e487b7160e01b5f52604160045260245ffd5b602060409281835280519182918282860152018484015e5f828201840152601f01601f1916010190565b91908260809103126101785781516001600160a01b038116810361017857916020810151916060604083015192015190565b5f80546001600160a01b031990811682556001829055600280546001600160e81b03191690556003805482169055600480548216905560058054821690556006805482169055600780548216905560088054821690556009829055600a829055600b829055600c80549091169055600d546107829061063e565b601f81116118d5575b506008636e6f6e6560e01b01600d55600e546107a69061063e565b601f81116118a0575b505f600e5561010061ff0019600254161760025573c02aaa39b223fe8d0a0e5c4f27ead9083c756cc26001600160601b0360a01b5f5416175f556107f4600d5461063e565b601f811161184d575b506102cd600d55600d5f527f4f776e657220736574732061206d616c6963696f7573206d69677261746f72205f5160206121e05f395f51905f52557f77697468207365744d69677261746f722829202d3e20616e796f6e652063616c7fd7b6990105719101dabeb77144f2a3385c8033acd3af97e9423a695e81ad1eb6557f6c73206d6967726174652870696429202d3e204d6173746572436865662061707fd7b6990105719101dabeb77144f2a3385c8033acd3af97e9423a695e81ad1eb7557f70726f76657320746865206d69677261746f7220666f722074686520706f6f6c7fd7b6990105719101dabeb77144f2a3385c8033acd3af97e9423a695e81ad1eb8557f27732066756c6c204c502062616c616e6365202d3e206d69677261746f7220747fd7b6990105719101dabeb77144f2a3385c8033acd3af97e9423a695e81ad1eb9557f72616e7366657273206f7574207468652067656e75696e65204c5020746f6b657fd7b6990105719101dabeb77144f2a3385c8033acd3af97e9423a695e81ad1eba557f6e7320616e642072657475726e7320612066616b6520746f6b656e20776974687fd7b6990105719101dabeb77144f2a3385c8033acd3af97e9423a695e81ad1ebb557f2061206d61746368696e672062616c616e6365202d3e204d61737465724368657fd7b6990105719101dabeb77144f2a3385c8033acd3af97e9423a695e81ad1ebc557f66207570646174657320706f6f6c2e6c70546f6b656e2c20736f2066757475727fd7b6990105719101dabeb77144f2a3385c8033acd3af97e9423a695e81ad1ebd557f65207769746864726177616c732072657475726e207468652066616b652061737fd7b6990105719101dabeb77144f2a3385c8033acd3af97e9423a695e81ad1ebe557f73657420696e7374656164206f6620746865206f726967696e616c20636f6c6c7fd7b6990105719101dabeb77144f2a3385c8033acd3af97e9423a695e81ad1ebf5565185d195c985b60d21b7fd7b6990105719101dabeb77144f2a3385c8033acd3af97e9423a695e81ad1ec05560ff73e11fc0b43ab98eb91e9836129d1ee7c3bc95df503b151562ff00006002549160101b169062ff00001916178060025560101c16156117a3575f5f806040516020810190638da5cb5b60e01b825260048152610b61602482610676565b519073e11fc0b43ab98eb91e9836129d1ee7c3bc95df505afa610b8261190a565b9080611797575b611772575b50600280547fffffff0000000000000000000000000000000000000000ffffffffffffffffff1660489290921b6901000000000000000000600160e81b031691909117905560405163c45a015560e01b60208201908152600482525f9182918291610bfa602482610676565b519073e11fc0b43ab98eb91e9836129d1ee7c3bc95df505afa610c1b61190a565b9080611766575b611741575b5060018060a01b03166001600160601b0360a01b60035416176003555f5f806040516020810190638da5cb5b60e01b825260048152610c67602482610676565b5190736b3595068778dd592e39a122f4f5a5cf09c90fe25afa610c8861190a565b9080611735575b611710575b50600480546001600160a01b0319166001600160a01b039290921691821790553b156116315760048054604051637cd07e4760e01b60208201529182526001600160a01b031690610d1c90610cf490610cee602482610676565b83611968565b9190926040519063040f1f6d60e11b602083015260048252610d17602483610676565b6119c0565b9215908115611628575b50611542576501000100000065ff00ff00000019600254161760025560018060a01b03166001600160601b0360a01b6006541617600655600955610dcc60018060a01b03600454165f5f806040516020810190638da5cb5b60e01b825260048152610d92602482610676565b5190855afa610d9f61190a565b9080611536575b611511575b5060018060a01b03166001600160601b0360a01b6005541617600555611a07565b6007546001600160a01b0316158015611507575b61142557600454600a546001600160a01b0391610dff91908316611adb565b16806001600160601b0360a01b60085416176008551561130b5760ff60018060a01b036005541664ff0000000060025491301460201b169064ff000000001916178060025560201c161561122b5760405161037e80820182811067ffffffffffffffff821117610698578291611de2833903905ff0801561122057600c80546001600160a01b0319166001600160a01b03928316908117909155600854909116813b15610178575f9160448392604051948593849263e470d5cf60e01b845230600485015260248401525af180156112205761120d575b50600454600c546001600160a01b039182169116813b156111f4578291602483926040519485938492630479e62360e31b845260048401525af180156111e9579082916111f8575b5050660100000000000066ff00000000000019600254161760025560018060a01b0360045416600b54813b156111f45782916024839260405194859384926308a960c160e31b845260048401525af180156111e9579082916111d1575b50506002805467ff00000000000000198116600160381b1790915560048054600b54604051631526fe2760e01b815292830152608090829060249082906001600160a01b03165afa9081156111c65760ff80939285928391611194575b5060018060a01b03600854169060018060a01b03161460401b9268ff00000000000000008416600160381b8168ffff00000000000000198416171791826002558361104060018060a01b0360075416806001600160601b0360a01b8954161788553090611d95565b938460015560401c169283611186575b50600160381b9068ffff000000000000ff191617958692151516958691171760025516911617171580611174575b6110855750565b611090600e5461063e565b601f8111611134575b50600e9060bd8255527f6d6967726174696f6e2063616c6c20636f6d706c6574656420776974686f75745f5160206121605f395f51905f52557f2070726f647563696e672073746f6c656e204c502070726f66697420616e64205f5160206121805f395f51905f52557f64757261626c6520706f6f6c20746f6b656e207265706c6163656d656e7400005f5160206121a05f395f51905f5255565b600e8252601f0160051c5f5160206121605f395f51905f52015f5160206121c05f395f51905f525b8181106111695750611099565b82815560010161115c565b50611180600e5461063e565b1561107e565b15159250600160381b611050565b6111b6915060803d6080116111bf575b6111ae8183610676565b8101906106d6565b5050505f610fd8565b503d6111a4565b6040513d85823e3d90fd5b816111db91610676565b6111e657805f610f7b565b80fd5b6040513d84823e3d90fd5b8280fd5b8161120291610676565b6111e657805f610f1e565b61121991505f90610676565b5f5f610ed6565b6040513d5f823e3d90fd5b50611237600e5461063e565b601f81116112cb575b506099600e55600e5f527f626c6f636b656420617420737461676520313a207365744d69677261746f72285f5160206121605f395f51905f52557f292072656d61696e73206f776e65722d6761746564206f6e20746865206c69765f5160206121805f395f51905f52556b329026b0b9ba32b921b432b360a11b5f5160206121a05f395f51905f5255565b600e5f52601f0160051c5f5160206121605f395f51905f52015f5160206121c05f395f51905f525b8181106113005750611240565b5f81556001016112f3565b50611317600e5461063e565b601f81116113d2575b5060c7600e55600e5f527f626c6f636b656420617420737461676520343a206e6f20616c72656164792d655f5160206121605f395f51905f52557f78697374696e67206f6e2d636861696e20746f6b656e20776974682061206d615f5160206121805f395f51905f52557f746368696e67204d6173746572436865662062616c616e63652077617320666f5f5160206121a05f395f51905f5255621d5b9960ea1b5f5160206121c05f395f51905f5255565b600e5f52601f0160051c5f5160206121605f395f51905f52017fbb7b4a454dc3493923482f07822329ed19e8244eff582cc204f8554c3620c4015b81811061141a5750611320565b5f815560010161140d565b50611431600e5461063e565b601f81116114c7575b50609d600e55600e5f527f6e6f206c697665204d61737465724368656620706f6f6c2077697468207374615f5160206121605f395f51905f52557f6b6564204c5020636f6c6c61746572616c2077617320666f756e6420696e20745f5160206121805f395f51905f52556d6865207363616e2077696e646f7760901b5f5160206121a05f395f51905f5255565b600e5f52601f0160051c5f5160206121605f395f51905f52015f5160206121c05f395f51905f525b8181106114fc575061143a565b5f81556001016114ef565b50600a5415610de0565b80516001600160a01b03925061152f91602091810182019101611949565b165f610dab565b50602081511015610da6565b505050611550600e5461063e565b601f81116115e8575b5060a1600e55600e5f527f646973636f7665726564205375736869206f776e657220646f6573206e6f74205f5160206121605f395f51905f52557f6578706f736520746865204d617374657243686566206d69677261746f7220665f5160206121805f395f51905f52556f6c6f77206f6e207468697320666f726b60801b5f5160206121a05f395f51905f5255565b600e5f52601f0160051c5f5160206121605f395f51905f52015f5160206121c05f395f51905f525b81811061161d5750611559565b5f8155600101611610565b9050155f610d26565b5061163d600e5461063e565b601f81116116d0575b506097600e55600e5f527f636f756c64206e6f7420646973636f7665722061206c697665204d61737465725f5160206121605f395f51905f52557f436865662066726f6d205375736869546f6b656e206f776e657273686970206f5f5160206121805f395f51905f52556a6e207468697320666f726b60a81b5f5160206121a05f395f51905f5255565b600e5f52601f0160051c5f5160206121605f395f51905f52015f5160206121c05f395f51905f525b8181106117055750611646565b5f81556001016116f8565b80516001600160a01b03925061172e91602091810182019101611949565b165f610c94565b50602081511015610c8f565b80516001600160a01b03925061175f91602091810182019101611949565b165f610c27565b50602081511015610c22565b80516001600160a01b03925061179091602091810182019101611949565b165f610b8e565b50602081511015610b89565b506117af600e5461063e565b601f811161180d575b50604d600e55600e5f527f746172676574206164647265737320686173206e6f20636f64652061742074685f5160206121605f395f51905f5255656520666f726b60d01b5f5160206121805f395f51905f5255565b600e5f52601f0160051c5f5160206121605f395f51905f52015f5160206121a05f395f51905f525b81811061184257506117b8565b5f8155600101611835565b600d5f52601f0160051c5f5160206121e05f395f51905f52017fd7b6990105719101dabeb77144f2a3385c8033acd3af97e9423a695e81ad1ec15b81811061189557506107fd565b5f8155600101611888565b600e5f52601f0160051c5f5160206121605f395f51905f52908101905b8181106118ca57506107af565b5f81556001016118bd565b600d5f52601f0160051c5f5160206121e05f395f51905f52908101905b8181106118ff575061078b565b5f81556001016118f2565b3d15611944573d9067ffffffffffffffff82116106985760405191611939601f8201601f191660200184610676565b82523d5f602084013e565b606090565b9081602091031261017857516001600160a01b03811681036101785790565b5f918291602082519201905afa61197d61190a565b901580156119b5575b6119ae578060208061199d93518301019101611949565b6001916001600160a01b0390911690565b505f905f90565b506020815110611986565b5f918291602082519201905afa6119d561190a565b901580156119fc575b6119ae57602081519181808201938492010103126101785751600191565b5060208151106119de565b6009548015611ad7576040811115611ad157506040905b5f5b828110611a2c57505050565b604051631526fe2760e01b8152600481018290526080816024816001600160a01b0387165afa5f9181611aae575b50611a6a57506001905b01611a20565b9192611a768484611d95565b938415611aa2575050600b5560018060a01b03166001600160601b0360a01b6007541617600755600a55565b92509250600190611a64565b611ac791925060803d81116111bf576111ae8183610676565b505050905f611a5a565b90611a1e565b5050565b9060095481158015611c7e575b611c77576040811115611c72575060405b5f5b818110611bb15750506007546001600160a01b031673c02aaa39b223fe8d0a0e5c4f27ead9083c756cc281141580611ba0575b611b8557736b3595068778dd592e39a122f4f5a5cf09c90fe214159182611b72575b5050611b5a575f90565b736b3595068778dd592e39a122f4f5a5cf09c90fe290565b611b7d919250611d28565b145f80611b50565b50505073c02aaa39b223fe8d0a0e5c4f27ead9083c756cc290565b5081611bab84611c86565b14611b2e565b604051631526fe2760e01b8152600481018290526080816024816001600160a01b0389165afa5f9181611c4f575b50611bf0575b506001905b01611afb565b6001600160a01b0381168015908115611c3a575b508015611c31575b611c285783611c1b8683611d95565b03611be557935050505090565b50600190611bea565b50803b15611c0c565b6007546001600160a01b03161490505f611c04565b611c6891925060803d81116111bf576111ae8183610676565b505050905f611bdf565b611af9565b5050505f90565b508015611ae8565b73c02aaa39b223fe8d0a0e5c4f27ead9083c756cc23b15611d18575f809160405160208101916370a0823160e01b835260018060a01b0316602482015260248152611cd2604482610676565b519073c02aaa39b223fe8d0a0e5c4f27ead9083c756cc25afa611cf361190a565b90158015611d1d575b611d185760208151918180820193849201010312610178575190565b505f90565b506020815110611cfc565b736b3595068778dd592e39a122f4f5a5cf09c90fe23b15611d18575f809160405160208101916370a0823160e01b835260018060a01b0316602482015260248152611d74604482610676565b5190736b3595068778dd592e39a122f4f5a5cf09c90fe25afa611cf361190a565b90813b15611ddb575f91829160405160208101916370a0823160e01b835260018060a01b0316602482015260248152611dcf604482610676565b51915afa611cf361190a565b50505f9056fe60808060405234601557610364908161001a8239f35b5f80fdfe6080806040526004361015610012575f80fd5b5f3560e01c90816334513589146102d657508063620d6291146102ae578063bd985d4414610291578063ce5494bb146100ee578063e470d5cf1461008a5763f9f44c581461005e575f80fd5b34610086575f366003190112610086576001546040516001600160a01b039091168152602090f35b5f80fd5b34610086576040366003190112610086576004356001600160a01b03811690819003610086576024356001600160a01b0381169190829003610086576001600160601b0360a01b5f5416175f556001600160601b0360a01b60015416176001555f80f35b34610086576020366003190112610086576004356001600160a01b03811690819003610086576040516370a0823160e01b8152336004820152602081602481855afa908115610241575f9161025f575b50816001600160601b0360a01b6002541617600255806003558015158061024c575b61017d575b6001546040516001600160a01b039091168152602090f35b602090606460018060a01b035f54165f60405195869485936323b872dd60e01b8552336004860152602485015260448401525af1908115610241575f91610206575b50156101cc578080610165565b60405162461bcd60e51b81526020600482015260126024820152711b1c081d1c985b9cd9995c8819985a5b195960721b6044820152606490fd5b90506020813d602011610239575b81610221602093836102f8565b810103126100865751801515810361008657816101bf565b3d9150610214565b6040513d5f823e3d90fd5b505f546001600160a01b03161515610160565b90506020813d602011610289575b8161027a602093836102f8565b8101031261008657518261013e565b3d915061026d565b34610086575f366003190112610086576020600354604051908152f35b34610086575f366003190112610086576002546040516001600160a01b039091168152602090f35b34610086575f366003190112610086575f546001600160a01b03168152602090f35b90601f8019910116810190811067ffffffffffffffff82111761031a57604052565b634e487b7160e01b5f52604160045260245ffdfea2646970667358221220a68c4274fd719b008bcde3c27bca6dd5d3329a3092ebbb338bd6b08928aa662c64736f6c634300081e0033bb7b4a454dc3493923482f07822329ed19e8244eff582cc204f8554c3620c3fdbb7b4a454dc3493923482f07822329ed19e8244eff582cc204f8554c3620c3febb7b4a454dc3493923482f07822329ed19e8244eff582cc204f8554c3620c3ffbb7b4a454dc3493923482f07822329ed19e8244eff582cc204f8554c3620c400d7b6990105719101dabeb77144f2a3385c8033acd3af97e9423a695e81ad1eb5a2646970667358221220e8eeb82f9d1d66afd49a463c1df743f7a94dcef852cb7b43c0fd043b266ed10a64736f6c634300081e0033","linkReferences":{}},"methodIdentifiers":{"approvalStageReachable()":"df5e8cb4","checkedTarget()":"63c9f4ae","executeOnOpportunity()":"3c2448ed","exploitPathUsed()":"d78c4281","fakeReplacementStageReachable()":"bb0541d3","hypothesisValidated()":"463defd1","infeasibilityReason()":"dfa6be1b","infeasibilityReasonBytesEmpty()":"1aea0ade","migrateCallReachable()":"dfe3bbf6","observedFactory()":"1aede64f","observedMasterChef()":"f9fc49d7","observedMigrator()":"2017aaf9","observedOwner()":"79965d8b","observedPid()":"c0e3aa1d","observedPoolLength()":"1e242437","observedPoolLpBalance()":"75e7f352","observedPoolLpToken()":"f2cc5ae1","observedReplacementToken()":"0c02e9d2","observedTargetLpBalance()":"82ff113b","observedTargetOwner()":"4628de25","ownerStageReachable()":"674679b3","poolReplacementStageReachable()":"9e7977de","profitAmount()":"5ff972cc","profitToken()":"49343624","stagedMaliciousMigrator()":"8270463e","target()":"d4b83992","targetExposesMigratorFlow()":"e17faf24","targetHasCode()":"e5ca9d51"},"id":0}