{"abi":[{"type":"constructor","inputs":[],"stateMutability":"nonpayable"},{"type":"function","name":"configure","inputs":[{"name":"thief_","type":"address","internalType":"address"},{"name":"replacementToken_","type":"address","internalType":"address"}],"outputs":[],"stateMutability":"nonpayable"},{"type":"function","name":"lastRealLp","inputs":[],"outputs":[{"name":"","type":"address","internalType":"address"}],"stateMutability":"view"},{"type":"function","name":"lastStolenAmount","inputs":[],"outputs":[{"name":"","type":"uint256","internalType":"uint256"}],"stateMutability":"view"},{"type":"function","name":"migrate","inputs":[{"name":"realLpToken","type":"address","internalType":"contract IERC20Like"}],"outputs":[{"name":"","type":"address","internalType":"contract IERC20Like"}],"stateMutability":"nonpayable"},{"type":"function","name":"replacementToken","inputs":[],"outputs":[{"name":"","type":"address","internalType":"address"}],"stateMutability":"view"},{"type":"function","name":"thief","inputs":[],"outputs":[{"name":"","type":"address","internalType":"address"}],"stateMutability":"view"}],"bytecode":{"object":"0x60808060405234601557610364908161001a8239f35b5f80fdfe6080806040526004361015610012575f80fd5b5f3560e01c90816334513589146102d657508063620d6291146102ae578063bd985d4414610291578063ce5494bb146100ee578063e470d5cf1461008a5763f9f44c581461005e575f80fd5b34610086575f366003190112610086576001546040516001600160a01b039091168152602090f35b5f80fd5b34610086576040366003190112610086576004356001600160a01b03811690819003610086576024356001600160a01b0381169190829003610086576001600160601b0360a01b5f5416175f556001600160601b0360a01b60015416176001555f80f35b34610086576020366003190112610086576004356001600160a01b03811690819003610086576040516370a0823160e01b8152336004820152602081602481855afa908115610241575f9161025f575b50816001600160601b0360a01b6002541617600255806003558015158061024c575b61017d575b6001546040516001600160a01b039091168152602090f35b602090606460018060a01b035f54165f60405195869485936323b872dd60e01b8552336004860152602485015260448401525af1908115610241575f91610206575b50156101cc578080610165565b60405162461bcd60e51b81526020600482015260126024820152711b1c081d1c985b9cd9995c8819985a5b195960721b6044820152606490fd5b90506020813d602011610239575b81610221602093836102f8565b810103126100865751801515810361008657816101bf565b3d9150610214565b6040513d5f823e3d90fd5b505f546001600160a01b03161515610160565b90506020813d602011610289575b8161027a602093836102f8565b8101031261008657518261013e565b3d915061026d565b34610086575f366003190112610086576020600354604051908152f35b34610086575f366003190112610086576002546040516001600160a01b039091168152602090f35b34610086575f366003190112610086575f546001600160a01b03168152602090f35b90601f8019910116810190811067ffffffffffffffff82111761031a57604052565b634e487b7160e01b5f52604160045260245ffdfea2646970667358221220a68c4274fd719b008bcde3c27bca6dd5d3329a3092ebbb338bd6b08928aa662c64736f6c634300081e0033","linkReferences":{}},"methodIdentifiers":{"configure(address,address)":"e470d5cf","lastRealLp()":"620d6291","lastStolenAmount()":"bd985d44","migrate(address)":"ce5494bb","replacementToken()":"f9f44c58","thief()":"34513589"},"id":0}