{"abi":[{"type":"constructor","inputs":[],"stateMutability":"nonpayable"},{"type":"receive","stateMutability":"payable"},{"type":"function","name":"MIM","inputs":[],"outputs":[{"name":"","type":"address","internalType":"address"}],"stateMutability":"view"},{"type":"function","name":"TARGET","inputs":[],"outputs":[{"name":"","type":"address","internalType":"contract ICauldronV4Like"}],"stateMutability":"view"},{"type":"function","name":"TARGET_CAULDRON","inputs":[],"outputs":[{"name":"","type":"address","internalType":"address"}],"stateMutability":"view"},{"type":"function","name":"collateralToken","inputs":[],"outputs":[{"name":"","type":"address","internalType":"address"}],"stateMutability":"view"},{"type":"function","name":"execute","inputs":[],"outputs":[{"name":"","type":"uint256","internalType":"uint256"}],"stateMutability":"nonpayable"},{"type":"function","name":"executeOnOpportunity","inputs":[],"outputs":[{"name":"","type":"uint256","internalType":"uint256"}],"stateMutability":"nonpayable"},{"type":"function","name":"exploit","inputs":[],"outputs":[{"name":"","type":"uint256","internalType":"uint256"}],"stateMutability":"nonpayable"},{"type":"function","name":"finalBorrowPart","inputs":[],"outputs":[{"name":"","type":"uint256","internalType":"uint256"}],"stateMutability":"view"},{"type":"function","name":"finalMimShareBalance","inputs":[],"outputs":[{"name":"","type":"uint256","internalType":"uint256"}],"stateMutability":"view"},{"type":"function","name":"hypothesisValidated","inputs":[],"outputs":[{"name":"","type":"bool","internalType":"bool"}],"stateMutability":"view"},{"type":"function","name":"mainBorrowAmount","inputs":[],"outputs":[{"name":"","type":"uint256","internalType":"uint256"}],"stateMutability":"view"},{"type":"function","name":"profitAmount","inputs":[],"outputs":[{"name":"","type":"uint256","internalType":"uint256"}],"stateMutability":"view"},{"type":"function","name":"profitReceiver","inputs":[],"outputs":[{"name":"","type":"address","internalType":"address"}],"stateMutability":"view"},{"type":"function","name":"profitToken","inputs":[],"outputs":[{"name":"","type":"address","internalType":"address"}],"stateMutability":"pure"},{"type":"function","name":"removeCollateralPathAttempted","inputs":[],"outputs":[{"name":"","type":"bool","internalType":"bool"}],"stateMutability":"view"},{"type":"function","name":"removeCollateralPathFeasible","inputs":[],"outputs":[{"name":"","type":"bool","internalType":"bool"}],"stateMutability":"view"},{"type":"function","name":"removeCollateralPathReason","inputs":[],"outputs":[{"name":"","type":"bytes32","internalType":"bytes32"}],"stateMutability":"view"},{"type":"function","name":"run","inputs":[],"outputs":[{"name":"","type":"uint256","internalType":"uint256"}],"stateMutability":"nonpayable"},{"type":"function","name":"tinyAccrueProbeAmount","inputs":[],"outputs":[{"name":"","type":"uint256","internalType":"uint256"}],"stateMutability":"view"},{"type":"function","name":"usedBorrowThenAccruePath","inputs":[],"outputs":[{"name":"","type":"bool","internalType":"bool"}],"stateMutability":"view"},{"type":"function","name":"usedBorrowThenUnsupported255Path","inputs":[],"outputs":[{"name":"","type":"bool","internalType":"bool"}],"stateMutability":"view"},{"type":"error","name":"ExecutionFailed","inputs":[{"name":"reason","type":"string","internalType":"string"}]}],"bytecode":{"object":"0x6080604052348015600e575f5ffd5b50612ea08061001c5f395ff3fe60806040526004361061012d575f3560e01c806363d9b770116100aa578063b2016bd41161006e578063b2016bd4146103ae578063bc9fa1b6146103d8578063bd7a598c14610402578063c04062261461042c578063cc1f2afa14610456578063daec383d1461048057610134565b806363d9b770146102dc57806377aac61d146103065780639975c959146103305780639f11cd211461035a578063ac849e431461038457610134565b806342a1233b116100f157806342a1233b1461020a578063463defd114610234578063493436241461025e5780635ff972cc1461028857806361461954146102b257610134565b80630db5014b146101385780632900951a14610162578063355c89731461018c5780633c2448ed146101b657806340c08827146101e057610134565b3661013457005b5f5ffd5b348015610143575f5ffd5b5061014c6104aa565b60405161015991906120bb565b60405180910390f35b34801561016d575f5ffd5b506101766104bd565b60405161018391906120bb565b60405180910390f35b348015610197575f5ffd5b506101a06104d0565b6040516101ad9190612113565b60405180910390f35b3480156101c1575f5ffd5b506101ca6104f5565b6040516101d79190612144565b60405180910390f35b3480156101eb575f5ffd5b506101f4610504565b6040516102019190612144565b60405180910390f35b348015610215575f5ffd5b5061021e61050a565b60405161022b91906120bb565b60405180910390f35b34801561023f575f5ffd5b5061024861051d565b60405161025591906120bb565b60405180910390f35b348015610269575f5ffd5b5061027261052e565b60405161027f9190612113565b60405180910390f35b348015610293575f5ffd5b5061029c610549565b6040516102a99190612144565b60405180910390f35b3480156102bd575f5ffd5b506102c6610551565b6040516102d39190612144565b60405180910390f35b3480156102e7575f5ffd5b506102f0610560565b6040516102fd9190612144565b60405180910390f35b348015610311575f5ffd5b5061031a61056f565b6040516103279190612175565b60405180910390f35b34801561033b575f5ffd5b50610344610575565b6040516103519190612144565b60405180910390f35b348015610365575f5ffd5b5061036e61057b565b60405161037b91906120bb565b60405180910390f35b34801561038f575f5ffd5b5061039861058e565b6040516103a59190612144565b60405180910390f35b3480156103b9575f5ffd5b506103c2610594565b6040516103cf9190612113565b60405180910390f35b3480156103e3575f5ffd5b506103ec6105b9565b6040516103f99190612144565b60405180910390f35b34801561040d575f5ffd5b506104166105bf565b6040516104239190612113565b60405180910390f35b348015610437575f5ffd5b506104406105d7565b60405161044d9190612144565b60405180910390f35b348015610461575f5ffd5b5061046a6105e6565b60405161047791906121e9565b60405180910390f35b34801561048b575f5ffd5b506104946105fe565b6040516104a19190612113565b60405180910390f35b600160049054906101000a900460ff1681565b600160039054906101000a900460ff1681565b60065f9054906101000a900473ffffffffffffffffffffffffffffffffffffffff1681565b5f6104ff33610616565b905090565b60035481565b600160059054906101000a900460ff1681565b60018054906101000a900460ff1681565b5f7399d8a9c45b2eca8864373a26d1459e3dff1e17f3905090565b5f5f54905090565b5f61055b33610616565b905090565b5f61056a33610616565b905090565b60085481565b60055481565b600160029054906101000a900460ff1681565b60045481565b60075f9054906101000a900473ffffffffffffffffffffffffffffffffffffffff1681565b60025481565b7346f54d434063e5f1a2b2cc6d9aaa657b1b9ff82c81565b5f6105e133610616565b905090565b7346f54d434063e5f1a2b2cc6d9aaa657b1b9ff82c81565b7399d8a9c45b2eca8864373a26d1459e3dff1e17f381565b5f60015f9054906101000a900460ff1615610634575f549050610d17565b6001805f6101000a81548160ff0219169083151502179055508160065f6101000a81548173ffffffffffffffffffffffffffffffffffffffff021916908373ffffffffffffffffffffffffffffffffffffffff1602179055507399d8a9c45b2eca8864373a26d1459e3dff1e17f373ffffffffffffffffffffffffffffffffffffffff167346f54d434063e5f1a2b2cc6d9aaa657b1b9ff82c73ffffffffffffffffffffffffffffffffffffffff16639b352ae16040518163ffffffff1660e01b8152600401602060405180830381865afa158015610715573d5f5f3e3d5ffd5b505050506040513d601f19601f820116820180604052508101906107399190612230565b73ffffffffffffffffffffffffffffffffffffffff161461078f576040517ff00364b1000000000000000000000000000000000000000000000000000000008152600401610786906122b5565b60405180910390fd5b7346f54d434063e5f1a2b2cc6d9aaa657b1b9ff82c73ffffffffffffffffffffffffffffffffffffffff1663d8dfeb456040518163ffffffff1660e01b8152600401602060405180830381865afa1580156107ec573d5f5f3e3d5ffd5b505050506040513d601f19601f820116820180604052508101906108109190612230565b60075f6101000a81548173ffffffffffffffffffffffffffffffffffffffff021916908373ffffffffffffffffffffffffffffffffffffffff160217905550610857610d1c565b5f610860610dfa565b90505f61086b610f25565b9050818110156108b0576040517ff00364b10000000000000000000000000000000000000000000000000000000081526004016108a79061231d565b60405180910390fd5b6002826108bd9190612368565b8111156108fd57816002819055506108d8600254600861121d565b60018060036101000a81548160ff0219169083151502179055506108fa610f25565b90505b81811015610940576040517ff00364b1000000000000000000000000000000000000000000000000000000008152600401610937906123f3565b60405180910390fd5b8060038190555061095460035460ff61121d565b60018060026101000a81548160ff0219169083151502179055506109766117f5565b7346f54d434063e5f1a2b2cc6d9aaa657b1b9ff82c73ffffffffffffffffffffffffffffffffffffffff166348e4163e306040518263ffffffff1660e01b81526004016109c39190612113565b602060405180830381865afa1580156109de573d5f5f3e3d5ffd5b505050506040513d601f19601f82011682018060405250810190610a02919061243b565b6004819055507346f54d434063e5f1a2b2cc6d9aaa657b1b9ff82c73ffffffffffffffffffffffffffffffffffffffff16636b2ace876040518163ffffffff1660e01b8152600401602060405180830381865afa158015610a65573d5f5f3e3d5ffd5b505050506040513d601f19601f82011682018060405250810190610a899190612230565b73ffffffffffffffffffffffffffffffffffffffff1663f7888aec7399d8a9c45b2eca8864373a26d1459e3dff1e17f3306040518363ffffffff1660e01b8152600401610ad7929190612466565b602060405180830381865afa158015610af2573d5f5f3e3d5ffd5b505050506040513d601f19601f82011682018060405250810190610b16919061243b565b6005819055505f60045414158015610bb757507346f54d434063e5f1a2b2cc6d9aaa657b1b9ff82c73ffffffffffffffffffffffffffffffffffffffff166338b51ce1306040518263ffffffff1660e01b8152600401610b769190612113565b602060405180830381865afa158015610b91573d5f5f3e3d5ffd5b505050506040513d601f19601f82011682018060405250810190610bb591906124b7565b155b6001806101000a81548160ff02191690831515021790555060018054906101000a900460ff16610c1c576040517ff00364b1000000000000000000000000000000000000000000000000000000008152600401610c139061252c565b60405180910390fd5b7399d8a9c45b2eca8864373a26d1459e3dff1e17f373ffffffffffffffffffffffffffffffffffffffff166370a08231306040518263ffffffff1660e01b8152600401610c699190612113565b602060405180830381865afa158015610c84573d5f5f3e3d5ffd5b505050506040513d601f19601f82011682018060405250810190610ca8919061243b565b5f819055505f5f5403610cf0576040517ff00364b1000000000000000000000000000000000000000000000000000000008152600401610ce790612594565b60405180910390fd5b610d107399d8a9c45b2eca8864373a26d1459e3dff1e17f3855f546119ac565b5f54925050505b919050565b5f600160046101000a81548160ff0219169083151502179055505f600160056101000a81548160ff0219169083151502179055505f73ffffffffffffffffffffffffffffffffffffffff1660075f9054906101000a900473ffffffffffffffffffffffffffffffffffffffff1673ffffffffffffffffffffffffffffffffffffffff1603610dd0577fefc5cd6d3a7a9c0a92deba03dfc772881439f0581b83238ea582873f361e924b600881905550610df8565b7f18ababe1859512901c45bf45eea863806233fb003f2c6ea21ad1269f7ed8ddde6008819055505b565b5f5f7346f54d434063e5f1a2b2cc6d9aaa657b1b9ff82c73ffffffffffffffffffffffffffffffffffffffff16636b2ace876040518163ffffffff1660e01b8152600401602060405180830381865afa158015610e59573d5f5f3e3d5ffd5b505050506040513d601f19601f82011682018060405250810190610e7d9190612230565b73ffffffffffffffffffffffffffffffffffffffff1663566231187399d8a9c45b2eca8864373a26d1459e3dff1e17f36001806040518463ffffffff1660e01b8152600401610ece939291906125eb565b602060405180830381865afa158015610ee9573d5f5f3e3d5ffd5b505050506040513d601f19601f82011682018060405250810190610f0d919061243b565b90505f8114610f1c5780610f1f565b60015b91505090565b5f5f7346f54d434063e5f1a2b2cc6d9aaa657b1b9ff82c73ffffffffffffffffffffffffffffffffffffffff16636b2ace876040518163ffffffff1660e01b8152600401602060405180830381865afa158015610f84573d5f5f3e3d5ffd5b505050506040513d601f19601f82011682018060405250810190610fa89190612230565b90505f610fb3610dfa565b90505f8273ffffffffffffffffffffffffffffffffffffffff1663f7888aec7399d8a9c45b2eca8864373a26d1459e3dff1e17f37346f54d434063e5f1a2b2cc6d9aaa657b1b9ff82c6040518363ffffffff1660e01b8152600401611019929190612466565b602060405180830381865afa158015611034573d5f5f3e3d5ffd5b505050506040513d601f19601f82011682018060405250810190611058919061243b565b90505f8373ffffffffffffffffffffffffffffffffffffffff1663566231187399d8a9c45b2eca8864373a26d1459e3dff1e17f3845f6040518463ffffffff1660e01b81526004016110ac93929190612620565b602060405180830381865afa1580156110c7573d5f5f3e3d5ffd5b505050506040513d601f19601f820116820180604052508101906110eb919061243b565b9050828111611100575f94505050505061121a565b828161110c9190612655565b94505f611117611aff565b90505f611122611d03565b905086821015611130578196505b8681101561113c578096505b848711156111535784876111509190612655565b96505b84871015611169575f965050505050505061121a565b5f8673ffffffffffffffffffffffffffffffffffffffff1663da5139ca7399d8a9c45b2eca8864373a26d1459e3dff1e17f38a5f6040518463ffffffff1660e01b81526004016111bb93929190612620565b602060405180830381865afa1580156111d6573d5f5f3e3d5ffd5b505050506040513d601f19601f820116820180604052508101906111fa919061243b565b90505f8103611212575f97505050505050505061121a565b505050505050505b90565b5f7346f54d434063e5f1a2b2cc6d9aaa657b1b9ff82c73ffffffffffffffffffffffffffffffffffffffff166348e4163e306040518263ffffffff1660e01b815260040161126b9190612113565b602060405180830381865afa158015611286573d5f5f3e3d5ffd5b505050506040513d601f19601f820116820180604052508101906112aa919061243b565b90505f7346f54d434063e5f1a2b2cc6d9aaa657b1b9ff82c73ffffffffffffffffffffffffffffffffffffffff16631c9e379b306040518263ffffffff1660e01b81526004016112fa9190612113565b602060405180830381865afa158015611315573d5f5f3e3d5ffd5b505050506040513d601f19601f82011682018060405250810190611339919061243b565b90505f600267ffffffffffffffff81111561135757611356612688565b5b6040519080825280602002602001820160405280156113855781602001602082028036833780820191505090505b5090505f600267ffffffffffffffff8111156113a4576113a3612688565b5b6040519080825280602002602001820160405280156113d25781602001602082028036833780820191505090505b5090505f600267ffffffffffffffff8111156113f1576113f0612688565b5b60405190808252806020026020018201604052801561142457816020015b606081526020019060019003908161140f5790505b5090506005835f8151811061143c5761143b6126b5565b5b602002602001019060ff16908160ff16815250508583600181518110611465576114646126b5565b5b602002602001019060ff16908160ff168152505061148287611ff4565b306040516020016114949291906126fa565b604051602081830303815290604052815f815181106114b6576114b56126b5565b5b602002602001018190525060405180602001604052805f815250816001815181106114e4576114e36126b5565b5b60200260200101819052507346f54d434063e5f1a2b2cc6d9aaa657b1b9ff82c73ffffffffffffffffffffffffffffffffffffffff1663656f3d648484846040518463ffffffff1660e01b8152600401611540939291906129c6565b60408051808303815f875af115801561155b573d5f5f3e3d5ffd5b505050506040513d601f19601f8201168201806040525081019061157f9190612a10565b50505f7346f54d434063e5f1a2b2cc6d9aaa657b1b9ff82c73ffffffffffffffffffffffffffffffffffffffff166348e4163e306040518263ffffffff1660e01b81526004016115cf9190612113565b602060405180830381865afa1580156115ea573d5f5f3e3d5ffd5b505050506040513d601f19601f8201168201806040525081019061160e919061243b565b9050858111611652576040517ff00364b100000000000000000000000000000000000000000000000000000000815260040161164990612a98565b60405180910390fd5b847346f54d434063e5f1a2b2cc6d9aaa657b1b9ff82c73ffffffffffffffffffffffffffffffffffffffff16631c9e379b306040518263ffffffff1660e01b81526004016116a09190612113565b602060405180830381865afa1580156116bb573d5f5f3e3d5ffd5b505050506040513d601f19601f820116820180604052508101906116df919061243b565b1461171f576040517ff00364b100000000000000000000000000000000000000000000000000000000815260040161171690612b00565b60405180910390fd5b7346f54d434063e5f1a2b2cc6d9aaa657b1b9ff82c73ffffffffffffffffffffffffffffffffffffffff166338b51ce1306040518263ffffffff1660e01b815260040161176c9190612113565b602060405180830381865afa158015611787573d5f5f3e3d5ffd5b505050506040513d601f19601f820116820180604052508101906117ab91906124b7565b156117eb576040517ff00364b10000000000000000000000000000000000000000000000000000000081526004016117e290612b68565b60405180910390fd5b5050505050505050565b5f7346f54d434063e5f1a2b2cc6d9aaa657b1b9ff82c73ffffffffffffffffffffffffffffffffffffffff16636b2ace876040518163ffffffff1660e01b8152600401602060405180830381865afa158015611853573d5f5f3e3d5ffd5b505050506040513d601f19601f820116820180604052508101906118779190612230565b90505f8173ffffffffffffffffffffffffffffffffffffffff1663f7888aec7399d8a9c45b2eca8864373a26d1459e3dff1e17f3306040518363ffffffff1660e01b81526004016118c9929190612466565b602060405180830381865afa1580156118e4573d5f5f3e3d5ffd5b505050506040513d601f19601f82011682018060405250810190611908919061243b565b90505f81146119a8578173ffffffffffffffffffffffffffffffffffffffff166397da6d307399d8a9c45b2eca8864373a26d1459e3dff1e17f330305f866040518663ffffffff1660e01b8152600401611966959493929190612bbf565b60408051808303815f875af1158015611981573d5f5f3e3d5ffd5b505050506040513d601f19601f820116820180604052508101906119a59190612a10565b50505b5050565b5f5f8473ffffffffffffffffffffffffffffffffffffffff1663a9059cbb60e01b85856040516024016119e0929190612c10565b604051602081830303815290604052907bffffffffffffffffffffffffffffffffffffffffffffffffffffffff19166020820180517bffffffffffffffffffffffffffffffffffffffffffffffffffffffff8381831617835250505050604051611a4a9190612c71565b5f604051808303815f865af19150503d805f8114611a83576040519150601f19603f3d011682016040523d82523d5f602084013e611a88565b606091505b5091509150811580611ab857505f815114158015611ab7575080806020019051810190611ab591906124b7565b155b5b15611af8576040517ff00364b1000000000000000000000000000000000000000000000000000000008152600401611aef90612cd1565b60405180910390fd5b5050505050565b5f5f7346f54d434063e5f1a2b2cc6d9aaa657b1b9ff82c73ffffffffffffffffffffffffffffffffffffffff1663e551d11d6040518163ffffffff1660e01b81526004016040805180830381865afa158015611b5d573d5f5f3e3d5ffd5b505050506040513d601f19601f82011682018060405250810190611b819190612d34565b5090505f7346f54d434063e5f1a2b2cc6d9aaa657b1b9ff82c73ffffffffffffffffffffffffffffffffffffffff16638285ef406040518163ffffffff1660e01b81526004016040805180830381865afa158015611be1573d5f5f3e3d5ffd5b505050506040513d601f19601f82011682018060405250810190611c059190612d34565b509050806fffffffffffffffffffffffffffffffff16826fffffffffffffffffffffffffffffffff1611611c3d575f92505050611d00565b5f816fffffffffffffffffffffffffffffffff16836fffffffffffffffffffffffffffffffff16611c6e9190612655565b9050611cfa817346f54d434063e5f1a2b2cc6d9aaa657b1b9ff82c73ffffffffffffffffffffffffffffffffffffffff1663aba024f46040518163ffffffff1660e01b8152600401602060405180830381865afa158015611cd1573d5f5f3e3d5ffd5b505050506040513d601f19601f82011682018060405250810190611cf5919061243b565b612060565b93505050505b90565b5f5f7346f54d434063e5f1a2b2cc6d9aaa657b1b9ff82c73ffffffffffffffffffffffffffffffffffffffff1663e551d11d6040518163ffffffff1660e01b81526004016040805180830381865afa158015611d61573d5f5f3e3d5ffd5b505050506040513d601f19601f82011682018060405250810190611d859190612d34565b9150505f7346f54d434063e5f1a2b2cc6d9aaa657b1b9ff82c73ffffffffffffffffffffffffffffffffffffffff166348e4163e306040518263ffffffff1660e01b8152600401611dd69190612113565b602060405180830381865afa158015611df1573d5f5f3e3d5ffd5b505050506040513d601f19601f82011682018060405250810190611e15919061243b565b905080826fffffffffffffffffffffffffffffffff1611611e3a575f92505050611ff1565b5f5f7346f54d434063e5f1a2b2cc6d9aaa657b1b9ff82c73ffffffffffffffffffffffffffffffffffffffff16638285ef406040518163ffffffff1660e01b81526004016040805180830381865afa158015611e98573d5f5f3e3d5ffd5b505050506040513d601f19601f82011682018060405250810190611ebc9190612d34565b915091505f83856fffffffffffffffffffffffffffffffff16611edf9190612655565b90505f5f846fffffffffffffffffffffffffffffffff161480611f1357505f836fffffffffffffffffffffffffffffffff16145b15611f2057819050611f5e565b826fffffffffffffffffffffffffffffffff16846fffffffffffffffffffffffffffffffff1683611f519190612368565b611f5b9190612d9f565b90505b611fe8817346f54d434063e5f1a2b2cc6d9aaa657b1b9ff82c73ffffffffffffffffffffffffffffffffffffffff1663aba024f46040518163ffffffff1660e01b8152600401602060405180830381865afa158015611fbf573d5f5f3e3d5ffd5b505050506040513d601f19601f82011682018060405250810190611fe3919061243b565b612060565b96505050505050505b90565b5f7f7fffffffffffffffffffffffffffffffffffffffffffffffffffffffffffffff821115612058576040517ff00364b100000000000000000000000000000000000000000000000000000000815260040161204f90612e19565b60405180910390fd5b819050919050565b5f5f8303612070575f905061209b565b81620186a061207f9190612e37565b620186a08461208e9190612368565b6120989190612d9f565b90505b92915050565b5f8115159050919050565b6120b5816120a1565b82525050565b5f6020820190506120ce5f8301846120ac565b92915050565b5f73ffffffffffffffffffffffffffffffffffffffff82169050919050565b5f6120fd826120d4565b9050919050565b61210d816120f3565b82525050565b5f6020820190506121265f830184612104565b92915050565b5f819050919050565b61213e8161212c565b82525050565b5f6020820190506121575f830184612135565b92915050565b5f819050919050565b61216f8161215d565b82525050565b5f6020820190506121885f830184612166565b92915050565b5f819050919050565b5f6121b16121ac6121a7846120d4565b61218e565b6120d4565b9050919050565b5f6121c282612197565b9050919050565b5f6121d3826121b8565b9050919050565b6121e3816121c9565b82525050565b5f6020820190506121fc5f8301846121da565b92915050565b5f5ffd5b61220f816120f3565b8114612219575f5ffd5b50565b5f8151905061222a81612206565b92915050565b5f6020828403121561224557612244612202565b5b5f6122528482850161221c565b91505092915050565b5f82825260208201905092915050565b7f554e45585045435445445f4d494d0000000000000000000000000000000000005f82015250565b5f61229f600e8361225b565b91506122aa8261226b565b602082019050919050565b5f6020820190508181035f8301526122cc81612293565b9050919050565b7f4e4f5f424f52524f5741424c455f4d494d0000000000000000000000000000005f82015250565b5f61230760118361225b565b9150612312826122d3565b602082019050919050565b5f6020820190508181035f830152612334816122fb565b9050919050565b7f4e487b71000000000000000000000000000000000000000000000000000000005f52601160045260245ffd5b5f6123728261212c565b915061237d8361212c565b925082820261238b8161212c565b915082820484148315176123a2576123a161233b565b5b5092915050565b7f4e4f5f4d41494e5f424f52524f575f4c454654000000000000000000000000005f82015250565b5f6123dd60138361225b565b91506123e8826123a9565b602082019050919050565b5f6020820190508181035f83015261240a816123d1565b9050919050565b61241a8161212c565b8114612424575f5ffd5b50565b5f8151905061243581612411565b92915050565b5f602082840312156124505761244f612202565b5b5f61245d84828501612427565b91505092915050565b5f6040820190506124795f830185612104565b6124866020830184612104565b9392505050565b612496816120a1565b81146124a0575f5ffd5b50565b5f815190506124b18161248d565b92915050565b5f602082840312156124cc576124cb612202565b5b5f6124d9848285016124a3565b91505092915050565b7f4859504f5448455349535f4e4f545f56414c49444154454400000000000000005f82015250565b5f61251660188361225b565b9150612521826124e2565b602082019050919050565b5f6020820190508181035f8301526125438161250a565b9050919050565b7f4e4f5f5245414c495a45445f50524f46495400000000000000000000000000005f82015250565b5f61257e60128361225b565b91506125898261254a565b602082019050919050565b5f6020820190508181035f8301526125ab81612572565b9050919050565b5f819050919050565b5f6125d56125d06125cb846125b2565b61218e565b61212c565b9050919050565b6125e5816125bb565b82525050565b5f6060820190506125fe5f830186612104565b61260b60208301856125dc565b61261860408301846120ac565b949350505050565b5f6060820190506126335f830186612104565b6126406020830185612135565b61264d60408301846120ac565b949350505050565b5f61265f8261212c565b915061266a8361212c565b92508282039050818111156126825761268161233b565b5b92915050565b7f4e487b71000000000000000000000000000000000000000000000000000000005f52604160045260245ffd5b7f4e487b71000000000000000000000000000000000000000000000000000000005f52603260045260245ffd5b5f819050919050565b6126f4816126e2565b82525050565b5f60408201905061270d5f8301856126eb565b61271a6020830184612104565b9392505050565b5f81519050919050565b5f82825260208201905092915050565b5f819050602082019050919050565b5f60ff82169050919050565b61275f8161274a565b82525050565b5f6127708383612756565b60208301905092915050565b5f602082019050919050565b5f61279282612721565b61279c818561272b565b93506127a78361273b565b805f5b838110156127d75781516127be8882612765565b97506127c98361277c565b9250506001810190506127aa565b5085935050505092915050565b5f81519050919050565b5f82825260208201905092915050565b5f819050602082019050919050565b6128168161212c565b82525050565b5f612827838361280d565b60208301905092915050565b5f602082019050919050565b5f612849826127e4565b61285381856127ee565b935061285e836127fe565b805f5b8381101561288e578151612875888261281c565b975061288083612833565b925050600181019050612861565b5085935050505092915050565b5f81519050919050565b5f82825260208201905092915050565b5f819050602082019050919050565b5f81519050919050565b5f82825260208201905092915050565b8281835e5f83830152505050565b5f601f19601f8301169050919050565b5f612906826128c4565b61291081856128ce565b93506129208185602086016128de565b612929816128ec565b840191505092915050565b5f61293f83836128fc565b905092915050565b5f602082019050919050565b5f61295d8261289b565b61296781856128a5565b935083602082028501612979856128b5565b805f5b858110156129b457848403895281516129958582612934565b94506129a083612947565b925060208a0199505060018101905061297c565b50829750879550505050505092915050565b5f6060820190508181035f8301526129de8186612788565b905081810360208301526129f2818561283f565b90508181036040830152612a068184612953565b9050949350505050565b5f5f60408385031215612a2657612a25612202565b5b5f612a3385828601612427565b9250506020612a4485828601612427565b9150509250929050565b7f424f52524f575f4449445f4e4f545f494e4352454153455f44454254000000005f82015250565b5f612a82601c8361225b565b9150612a8d82612a4e565b602082019050919050565b5f6020820190508181035f830152612aaf81612a76565b9050919050565b7f554e45585045435445445f434f4c4c41544552414c5f4348414e4745000000005f82015250565b5f612aea601c8361225b565b9150612af582612ab6565b602082019050919050565b5f6020820190508181035f830152612b1781612ade565b9050919050565b7f534f4c56454e43595f434845434b5f4e4f545f534b49505045440000000000005f82015250565b5f612b52601a8361225b565b9150612b5d82612b1e565b602082019050919050565b5f6020820190508181035f830152612b7f81612b46565b9050919050565b5f819050919050565b5f612ba9612ba4612b9f84612b86565b61218e565b61212c565b9050919050565b612bb981612b8f565b82525050565b5f60a082019050612bd25f830188612104565b612bdf6020830187612104565b612bec6040830186612104565b612bf96060830185612bb0565b612c066080830184612135565b9695505050505050565b5f604082019050612c235f830185612104565b612c306020830184612135565b9392505050565b5f81905092915050565b5f612c4b826128c4565b612c558185612c37565b9350612c658185602086016128de565b80840191505092915050565b5f612c7c8284612c41565b915081905092915050565b7f5452414e534645525f4641494c454400000000000000000000000000000000005f82015250565b5f612cbb600f8361225b565b9150612cc682612c87565b602082019050919050565b5f6020820190508181035f830152612ce881612caf565b9050919050565b5f6fffffffffffffffffffffffffffffffff82169050919050565b612d1381612cef565b8114612d1d575f5ffd5b50565b5f81519050612d2e81612d0a565b92915050565b5f5f60408385031215612d4a57612d49612202565b5b5f612d5785828601612d20565b9250506020612d6885828601612d20565b9150509250929050565b7f4e487b71000000000000000000000000000000000000000000000000000000005f52601260045260245ffd5b5f612da98261212c565b9150612db48361212c565b925082612dc457612dc3612d72565b5b828204905092915050565b7f494e543235365f4f564552464c4f5700000000000000000000000000000000005f82015250565b5f612e03600f8361225b565b9150612e0e82612dcf565b602082019050919050565b5f6020820190508181035f830152612e3081612df7565b9050919050565b5f612e418261212c565b9150612e4c8361212c565b9250828201905080821115612e6457612e6361233b565b5b9291505056fea26469706673582212200a3e5a37be37e93104918de6d9ba2ceb7a5c0e6f9c04d2c253ab4e247dda4a3764736f6c634300081e0033","linkReferences":{}},"methodIdentifiers":{"MIM()":"daec383d","TARGET()":"cc1f2afa","TARGET_CAULDRON()":"bd7a598c","collateralToken()":"b2016bd4","execute()":"61461954","executeOnOpportunity()":"3c2448ed","exploit()":"63d9b770","finalBorrowPart()":"ac849e43","finalMimShareBalance()":"9975c959","hypothesisValidated()":"463defd1","mainBorrowAmount()":"40c08827","profitAmount()":"5ff972cc","profitReceiver()":"355c8973","profitToken()":"49343624","removeCollateralPathAttempted()":"0db5014b","removeCollateralPathFeasible()":"42a1233b","removeCollateralPathReason()":"77aac61d","run()":"c0406226","tinyAccrueProbeAmount()":"bc9fa1b6","usedBorrowThenAccruePath()":"2900951a","usedBorrowThenUnsupported255Path()":"9f11cd21"},"id":0}