{"abi":[{"type":"constructor","inputs":[],"stateMutability":"payable"},{"type":"receive","stateMutability":"payable"},{"type":"function","name":"DAI","inputs":[],"outputs":[{"name":"","type":"address","internalType":"address"}],"stateMutability":"view"},{"type":"function","name":"SUSHISWAP_FACTORY","inputs":[],"outputs":[{"name":"","type":"address","internalType":"address"}],"stateMutability":"view"},{"type":"function","name":"SUSHISWAP_ROUTER","inputs":[],"outputs":[{"name":"","type":"address","internalType":"address"}],"stateMutability":"view"},{"type":"function","name":"TARGET","inputs":[],"outputs":[{"name":"","type":"address","internalType":"address"}],"stateMutability":"view"},{"type":"function","name":"UNISWAP_V2_FACTORY","inputs":[],"outputs":[{"name":"","type":"address","internalType":"address"}],"stateMutability":"view"},{"type":"function","name":"UNISWAP_V2_ROUTER","inputs":[],"outputs":[{"name":"","type":"address","internalType":"address"}],"stateMutability":"view"},{"type":"function","name":"UNISWAP_V3_FACTORY","inputs":[],"outputs":[{"name":"","type":"address","internalType":"address"}],"stateMutability":"view"},{"type":"function","name":"UNISWAP_V3_ROUTER","inputs":[],"outputs":[{"name":"","type":"address","internalType":"address"}],"stateMutability":"view"},{"type":"function","name":"USDC","inputs":[],"outputs":[{"name":"","type":"address","internalType":"address"}],"stateMutability":"view"},{"type":"function","name":"USDT","inputs":[],"outputs":[{"name":"","type":"address","internalType":"address"}],"stateMutability":"view"},{"type":"function","name":"WETH","inputs":[],"outputs":[{"name":"","type":"address","internalType":"address"}],"stateMutability":"view"},{"type":"function","name":"deploymentBlock","inputs":[],"outputs":[{"name":"","type":"uint256","internalType":"uint256"}],"stateMutability":"view"},{"type":"function","name":"duplicatedPointProfit","inputs":[],"outputs":[{"name":"","type":"uint256","internalType":"uint256"}],"stateMutability":"view"},{"type":"function","name":"executeOnOpportunity","inputs":[],"outputs":[],"stateMutability":"nonpayable"},{"type":"function","name":"executed","inputs":[],"outputs":[{"name":"","type":"bool","internalType":"bool"}],"stateMutability":"view"},{"type":"function","name":"exploitPathUsed","inputs":[],"outputs":[{"name":"","type":"string","internalType":"string"}],"stateMutability":"pure"},{"type":"function","name":"exploitTriggered","inputs":[],"outputs":[{"name":"","type":"bool","internalType":"bool"}],"stateMutability":"view"},{"type":"function","name":"failureReason","inputs":[],"outputs":[{"name":"","type":"string","internalType":"string"}],"stateMutability":"view"},{"type":"function","name":"finalPointBalance","inputs":[],"outputs":[{"name":"","type":"uint256","internalType":"uint256"}],"stateMutability":"view"},{"type":"function","name":"finalReentryCount","inputs":[],"outputs":[{"name":"","type":"uint256","internalType":"uint256"}],"stateMutability":"view"},{"type":"function","name":"hypothesisRefuted","inputs":[],"outputs":[{"name":"","type":"bool","internalType":"bool"}],"stateMutability":"view"},{"type":"function","name":"hypothesisValidated","inputs":[],"outputs":[{"name":"","type":"bool","internalType":"bool"}],"stateMutability":"view"},{"type":"function","name":"legitimateMint","inputs":[],"outputs":[{"name":"","type":"uint256","internalType":"uint256"}],"stateMutability":"view"},{"type":"function","name":"pendingBeforeExploit","inputs":[],"outputs":[{"name":"","type":"uint256","internalType":"uint256"}],"stateMutability":"view"},{"type":"function","name":"profitAmount","inputs":[],"outputs":[{"name":"","type":"uint256","internalType":"uint256"}],"stateMutability":"view"},{"type":"function","name":"profitToken","inputs":[],"outputs":[{"name":"","type":"address","internalType":"address"}],"stateMutability":"view"},{"type":"function","name":"seedBlock","inputs":[],"outputs":[{"name":"","type":"uint256","internalType":"uint256"}],"stateMutability":"view"},{"type":"function","name":"seededAmount","inputs":[],"outputs":[{"name":"","type":"uint256","internalType":"uint256"}],"stateMutability":"view"},{"type":"function","name":"seededAtDeployment","inputs":[],"outputs":[{"name":"","type":"bool","internalType":"bool"}],"stateMutability":"view"},{"type":"function","name":"seededPid","inputs":[],"outputs":[{"name":"","type":"uint256","internalType":"uint256"}],"stateMutability":"view"},{"type":"function","name":"seededToken","inputs":[],"outputs":[{"name":"","type":"address","internalType":"address"}],"stateMutability":"view"},{"type":"function","name":"staker","inputs":[],"outputs":[{"name":"","type":"address","internalType":"contract ReentrantStaker"}],"stateMutability":"view"}],"bytecode":{"object":"0x60c06040524360a0818152505073d3c41c85be295607e8ea5c58487ec5894300ee673060405161002e90614450565b61003992919061449c565b604051809103905ff080158015610052573d5f5f3e3d5ffd5b5073ffffffffffffffffffffffffffffffffffffffff1660808173ffffffffffffffffffffffffffffffffffffffff16815250506040518060400160405280600781526020017f6e6f742d72756e00000000000000000000000000000000000000000000000000815250600c90816100ca9190614700565b506100d96100de60201b60201c565b61534c565b600260019054906101000a900460ff16610371575f61010161037360201b60201c565b90505f8103610155576040518060400160405280601581526020017f706f6f6c2d646973636f766572792d6661696c65640000000000000000000000815250600c908161014e9190614700565b5050610371565b5f5f90505b81811015610329575f6101728261040460201b60201c565b505090505f73ffffffffffffffffffffffffffffffffffffffff168173ffffffffffffffffffffffffffffffffffffffff1614806101c657505f8173ffffffffffffffffffffffffffffffffffffffff163b145b156101d1575061031e565b6101e182826104b460201b60201c565b1561031c576001600260016101000a81548160ff021916908315150217905550816003819055508060045f6101000a81548173ffffffffffffffffffffffffffffffffffffffff021916908373ffffffffffffffffffffffffffffffffffffffff16021790555060805173ffffffffffffffffffffffffffffffffffffffff16635a459ed4836040518263ffffffff1660e01b815260040161028391906147de565b602060405180830381865afa15801561029e573d5f5f3e3d5ffd5b505050506040513d601f19601f820116820180604052508101906102c29190614825565b600581905550436006819055506040518060400160405280601e81526020017f7365656465642d6177616974696e672d70656e64696e672d706f696e74730000815250600c90816103139190614700565b50505050610371565b505b80600101905061015a565b506040518060400160405280601a81526020017f6e6f2d7075626c69632d736565642d726f7574652d666f756e64000000000000815250600c908161036e9190614700565b50505b565b5f73d3c41c85be295607e8ea5c58487ec5894300ee6773ffffffffffffffffffffffffffffffffffffffff1663081e3eda6040518163ffffffff1660e01b8152600401602060405180830381865afa9250505080156103f057506040513d601f19601f820116820180604052508101906103ed9190614825565b60015b6103fc575f9050610401565b809150505b90565b5f5f5f73d3c41c85be295607e8ea5c58487ec5894300ee6773ffffffffffffffffffffffffffffffffffffffff16631526fe27856040518263ffffffff1660e01b815260040161045491906147de565b606060405180830381865afa92505050801561048e57506040513d601f19601f8201168201806040525081019061048b919061487a565b60015b6104a0575f5f5f9250925092506104ad565b8282829550955095505050505b9193909250565b5f5f60805173ffffffffffffffffffffffffffffffffffffffff16635a459ed4856040518263ffffffff1660e01b81526004016104f191906147de565b602060405180830381865afa15801561050c573d5f5f3e3d5ffd5b505050506040513d601f19601f820116820180604052508101906105309190614825565b111561053f57600190506105e1565b61054e826105e760201b60201c565b61055e838361106960201b60201c565b1561056c57600190506105e1565b61057b826114d860201b60201c565b80156105935750610592838361106960201b60201c565b5b156105a157600190506105e1565b6105b1838361177a60201b60201c565b156105bf57600190506105e1565b6105ce82611b7b60201b60201c565b6105de838361106960201b60201c565b90505b92915050565b610679816040516024016040516020818303038152906040527f4e71d92d000000000000000000000000000000000000000000000000000000007bffffffffffffffffffffffffffffffffffffffffffffffffffffffff19166020820180517bffffffffffffffffffffffffffffffffffffffffffffffffffffffff8381831617835250505050611f1360201b60201c565b50610717813060405160240161068f91906148ca565b6040516020818303038152906040527f1e83409a000000000000000000000000000000000000000000000000000000007bffffffffffffffffffffffffffffffffffffffffffffffffffffffff19166020820180517bffffffffffffffffffffffffffffffffffffffffffffffffffffffff8381831617835250505050611f1360201b60201c565b506107aa816040516024016040516020818303038152906040527f48c54b9d000000000000000000000000000000000000000000000000000000007bffffffffffffffffffffffffffffffffffffffffffffffffffffffff19166020820180517bffffffffffffffffffffffffffffffffffffffffffffffffffffffff8381831617835250505050611f1360201b60201c565b5061084881306040516024016107c091906148ca565b6040516020818303038152906040527fdf8de3e7000000000000000000000000000000000000000000000000000000007bffffffffffffffffffffffffffffffffffffffffffffffffffffffff19166020820180517bffffffffffffffffffffffffffffffffffffffffffffffffffffffff8381831617835250505050611f1360201b60201c565b506108db816040516024016040516020818303038152906040527f3d18b912000000000000000000000000000000000000000000000000000000007bffffffffffffffffffffffffffffffffffffffffffffffffffffffff19166020820180517bffffffffffffffffffffffffffffffffffffffffffffffffffffffff8381831617835250505050611f1360201b60201c565b5061097981306040516024016108f191906148ca565b6040516020818303038152906040527fc00007b0000000000000000000000000000000000000000000000000000000007bffffffffffffffffffffffffffffffffffffffffffffffffffffffff19166020820180517bffffffffffffffffffffffffffffffffffffffffffffffffffffffff8381831617835250505050611f1360201b60201c565b50610a0c816040516024016040516020818303038152906040527f1249c58b000000000000000000000000000000000000000000000000000000007bffffffffffffffffffffffffffffffffffffffffffffffffffffffff19166020820180517bffffffffffffffffffffffffffffffffffffffffffffffffffffffff8381831617835250505050611f1360201b60201c565b50610aaa8130604051602401610a2291906148ca565b6040516020818303038152906040527f6a627842000000000000000000000000000000000000000000000000000000007bffffffffffffffffffffffffffffffffffffffffffffffffffffffff19166020820180517bffffffffffffffffffffffffffffffffffffffffffffffffffffffff8381831617835250505050611f1360201b60201c565b50610b3d816040516024016040516020818303038152906040527fe5225381000000000000000000000000000000000000000000000000000000007bffffffffffffffffffffffffffffffffffffffffffffffffffffffff19166020820180517bffffffffffffffffffffffffffffffffffffffffffffffffffffffff8381831617835250505050611f1360201b60201c565b50610bdb8130604051602401610b5391906148ca565b6040516020818303038152906040527f06ec16f8000000000000000000000000000000000000000000000000000000007bffffffffffffffffffffffffffffffffffffffffffffffffffffffff19166020820180517bffffffffffffffffffffffffffffffffffffffffffffffffffffffff8381831617835250505050611f1360201b60201c565b50610c6e816040516024016040516020818303038152906040527f9f678cca000000000000000000000000000000000000000000000000000000007bffffffffffffffffffffffffffffffffffffffffffffffffffffffff19166020820180517bffffffffffffffffffffffffffffffffffffffffffffffffffffffff8381831617835250505050611f1360201b60201c565b50610d01816040516024016040516020818303038152906040527fde5f72fd000000000000000000000000000000000000000000000000000000007bffffffffffffffffffffffffffffffffffffffffffffffffffffffff19166020820180517bffffffffffffffffffffffffffffffffffffffffffffffffffffffff8381831617835250505050611f1360201b60201c565b505f610d11611f8360201b60201c565b90505f73ffffffffffffffffffffffffffffffffffffffff168173ffffffffffffffffffffffffffffffffffffffff1614611065575f610d568361201460201b60201c565b9050610dea826040516024016040516020818303038152906040527f4e71d92d000000000000000000000000000000000000000000000000000000007bffffffffffffffffffffffffffffffffffffffffffffffffffffffff19166020820180517bffffffffffffffffffffffffffffffffffffffffffffffffffffffff8381831617835250505050611f1360201b60201c565b50610e888282604051602401610e0091906147de565b6040516020818303038152906040527f379607f5000000000000000000000000000000000000000000000000000000007bffffffffffffffffffffffffffffffffffffffffffffffffffffffff19166020820180517bffffffffffffffffffffffffffffffffffffffffffffffffffffffff8381831617835250505050611f1360201b60201c565b50610f268284604051602401610e9e91906148ca565b6040516020818303038152906040527f1e83409a000000000000000000000000000000000000000000000000000000007bffffffffffffffffffffffffffffffffffffffffffffffffffffffff19166020820180517bffffffffffffffffffffffffffffffffffffffffffffffffffffffff8381831617835250505050611f1360201b60201c565b50610fc48282604051602401610f3c91906147de565b6040516020818303038152906040527fd96a094a000000000000000000000000000000000000000000000000000000007bffffffffffffffffffffffffffffffffffffffffffffffffffffffff19166020820180517bffffffffffffffffffffffffffffffffffffffffffffffffffffffff8381831617835250505050611f1360201b60201c565b506110628284604051602401610fda91906148ca565b6040516020818303038152906040527ff088d547000000000000000000000000000000000000000000000000000000007bffffffffffffffffffffffffffffffffffffffffffffffffffffffff19166020820180517bffffffffffffffffffffffffffffffffffffffffffffffffffffffff8381831617835250505050611f1360201b60201c565b50505b5050565b5f5f8273ffffffffffffffffffffffffffffffffffffffff166370a08231306040518263ffffffff1660e01b81526004016110a491906148ca565b602060405180830381865afa1580156110bf573d5f5f3e3d5ffd5b505050506040513d601f19601f820116820180604052508101906110e39190614825565b905073c02aaa39b223fe8d0a0e5c4f27ead9083c756cc273ffffffffffffffffffffffffffffffffffffffff168373ffffffffffffffffffffffffffffffffffffffff1614801561113357505f81145b801561113e57505f47115b1561122f5773c02aaa39b223fe8d0a0e5c4f27ead9083c756cc273ffffffffffffffffffffffffffffffffffffffff1663d0e30db0476040518263ffffffff1660e01b81526004015f604051808303818588803b15801561119d575f5ffd5b505af11580156111af573d5f5f3e3d5ffd5b50505050508273ffffffffffffffffffffffffffffffffffffffff166370a08231306040518263ffffffff1660e01b81526004016111ed91906148ca565b602060405180830381865afa158015611208573d5f5f3e3d5ffd5b505050506040513d601f19601f8201168201806040525081019061122c9190614825565b90505b5f81036112ba575f60805173ffffffffffffffffffffffffffffffffffffffff16635a459ed4866040518263ffffffff1660e01b815260040161127291906147de565b602060405180830381865afa15801561128d573d5f5f3e3d5ffd5b505050506040513d601f19601f820116820180604052508101906112b19190614825565b119150506114d2565b5f8373ffffffffffffffffffffffffffffffffffffffff166370a082316080516040518263ffffffff1660e01b81526004016112f691906148ca565b602060405180830381865afa158015611311573d5f5f3e3d5ffd5b505050506040513d601f19601f820116820180604052508101906113359190614825565b905061134a84608051846120b260201b60201c565b5f818573ffffffffffffffffffffffffffffffffffffffff166370a082316080516040518263ffffffff1660e01b815260040161138791906148ca565b602060405180830381865afa1580156113a2573d5f5f3e3d5ffd5b505050506040513d601f19601f820116820180604052508101906113c69190614825565b6113d09190614910565b90505f81036113e4575f93505050506114d2565b60805173ffffffffffffffffffffffffffffffffffffffff1663ff201bc68787846040518463ffffffff1660e01b815260040161142393929190614943565b5f604051808303815f87803b15801561143a575f5ffd5b505af115801561144c573d5f5f3e3d5ffd5b505050505f60805173ffffffffffffffffffffffffffffffffffffffff16635a459ed4886040518263ffffffff1660e01b815260040161148c91906147de565b602060405180830381865afa1580156114a7573d5f5f3e3d5ffd5b505050506040513d601f19601f820116820180604052508101906114cb9190614825565b1193505050505b92915050565b5f73c02aaa39b223fe8d0a0e5c4f27ead9083c756cc273ffffffffffffffffffffffffffffffffffffffff168273ffffffffffffffffffffffffffffffffffffffff160361162f575f47111561159a5773c02aaa39b223fe8d0a0e5c4f27ead9083c756cc273ffffffffffffffffffffffffffffffffffffffff1663d0e30db0476040518263ffffffff1660e01b81526004015f604051808303818588803b158015611582575f5ffd5b505af1158015611594573d5f5f3e3d5ffd5b50505050505b5f73c02aaa39b223fe8d0a0e5c4f27ead9083c756cc273ffffffffffffffffffffffffffffffffffffffff166370a08231306040518263ffffffff1660e01b81526004016115e891906148ca565b602060405180830381865afa158015611603573d5f5f3e3d5ffd5b505050506040513d601f19601f820116820180604052508101906116279190614825565b119050611775565b5f4711156116a95773c02aaa39b223fe8d0a0e5c4f27ead9083c756cc273ffffffffffffffffffffffffffffffffffffffff1663d0e30db0476040518263ffffffff1660e01b81526004015f604051808303818588803b158015611691575f5ffd5b505af11580156116a3573d5f5f3e3d5ffd5b50505050505b6116cd73c02aaa39b223fe8d0a0e5c4f27ead9083c756cc28361220160201b60201c565b156116db5760019050611775565b6116ff73a0b86991c6218b36c1d19d4a2e9eb0ce3606eb488361220160201b60201c565b1561170d5760019050611775565b61173173dac17f958d2ee523a2206206994597c13d831ec78361220160201b60201c565b1561173f5760019050611775565b611763736b175474e89094c44da98b954eedeac495271d0f8361220160201b60201c565b156117715760019050611775565b5f90505b919050565b5f5f4714806117c8575073c02aaa39b223fe8d0a0e5c4f27ead9083c756cc273ffffffffffffffffffffffffffffffffffffffff168273ffffffffffffffffffffffffffffffffffffffff16145b80611812575073a0b86991c6218b36c1d19d4a2e9eb0ce3606eb4873ffffffffffffffffffffffffffffffffffffffff168273ffffffffffffffffffffffffffffffffffffffff16145b8061185c575073dac17f958d2ee523a2206206994597c13d831ec773ffffffffffffffffffffffffffffffffffffffff168273ffffffffffffffffffffffffffffffffffffffff16145b806118a65750736b175474e89094c44da98b954eedeac495271d0f73ffffffffffffffffffffffffffffffffffffffff168273ffffffffffffffffffffffffffffffffffffffff16145b156118b3575f9050611b75565b5f5f6118c48461251060201b60201c565b50915091505f73ffffffffffffffffffffffffffffffffffffffff168273ffffffffffffffffffffffffffffffffffffffff161480611943575073c02aaa39b223fe8d0a0e5c4f27ead9083c756cc273ffffffffffffffffffffffffffffffffffffffff168173ffffffffffffffffffffffffffffffffffffffff1614155b15611952575f92505050611b75565b5f5f5f61197a8573c02aaa39b223fe8d0a0e5c4f27ead9083c756cc2896128c560201b60201c565b9250925092505f4790505f611996828686612aa260201b60201c565b90505f8114806119a65750838110155b156119ba575f975050505050505050611b75565b5f6119cc828787612b1260201b60201c565b90505f8114806119db57508281115b156119f0575f98505050505050505050611b75565b60805173ffffffffffffffffffffffffffffffffffffffff1663e3be69dc828d8d8c87878b6040518863ffffffff1660e01b8152600401611a3696959493929190614992565b5f604051808303818588803b158015611a4d575f5ffd5b505af193505050508015611a5f575060015b611aee575f60805173ffffffffffffffffffffffffffffffffffffffff16635a459ed48d6040518263ffffffff1660e01b8152600401611a9f91906147de565b602060405180830381865afa158015611aba573d5f5f3e3d5ffd5b505050506040513d601f19601f82011682018060405250810190611ade9190614825565b1198505050505050505050611b75565b5f60805173ffffffffffffffffffffffffffffffffffffffff16635a459ed48d6040518263ffffffff1660e01b8152600401611b2a91906147de565b602060405180830381865afa158015611b45573d5f5f3e3d5ffd5b505050506040513d601f19601f82011682018060405250810190611b699190614825565b11985050505050505050505b92915050565b73c02aaa39b223fe8d0a0e5c4f27ead9083c756cc273ffffffffffffffffffffffffffffffffffffffff168173ffffffffffffffffffffffffffffffffffffffff1603611c41575f471115611c3c5773c02aaa39b223fe8d0a0e5c4f27ead9083c756cc273ffffffffffffffffffffffffffffffffffffffff1663d0e30db0476040518263ffffffff1660e01b81526004015f604051808303818588803b158015611c24575f5ffd5b505af1158015611c36573d5f5f3e3d5ffd5b50505050505b611f10565b611c50816114d860201b60201c565b611f10575f5f5f611c668461251060201b60201c565b9250925092505f73ffffffffffffffffffffffffffffffffffffffff168373ffffffffffffffffffffffffffffffffffffffff161480611cd157505f73ffffffffffffffffffffffffffffffffffffffff168273ffffffffffffffffffffffffffffffffffffffff16145b15611cde57505050611f10565b73c02aaa39b223fe8d0a0e5c4f27ead9083c756cc273ffffffffffffffffffffffffffffffffffffffff168273ffffffffffffffffffffffffffffffffffffffff1603611e17575f4790505f811115611d4d57611d4385838684612b9460201b60201c565b5050505050611f10565b5f73c02aaa39b223fe8d0a0e5c4f27ead9083c756cc273ffffffffffffffffffffffffffffffffffffffff166370a08231306040518263ffffffff1660e01b8152600401611d9b91906148ca565b602060405180830381865afa158015611db6573d5f5f3e3d5ffd5b505050506040513d601f19601f82011682018060405250810190611dda9190614825565b90505f811115611e0d57611e0b73c02aaa39b223fe8d0a0e5c4f27ead9083c756cc287858885612e7660201b60201c565b505b5050505050611f10565b5f8273ffffffffffffffffffffffffffffffffffffffff166370a08231306040518263ffffffff1660e01b8152600401611e5191906148ca565b602060405180830381865afa158015611e6c573d5f5f3e3d5ffd5b505050506040513d601f19601f82011682018060405250810190611e909190614825565b90505f811115611eb757611ead8386848785612e7660201b60201c565b5050505050611f10565b5f47118015611ef257505f73ffffffffffffffffffffffffffffffffffffffff168273ffffffffffffffffffffffffffffffffffffffff1614155b15611f0b57611f098584844761315760201b60201c565b505b505050505b50565b5f8273ffffffffffffffffffffffffffffffffffffffff1682604051611f399190614a43565b5f604051808303815f865af19150503d805f8114611f72576040519150601f19603f3d011682016040523d82523d5f602084013e611f77565b606091505b50508091505092915050565b5f73d3c41c85be295607e8ea5c58487ec5894300ee6773ffffffffffffffffffffffffffffffffffffffff16630881fa0d6040518163ffffffff1660e01b8152600401602060405180830381865afa92505050801561200057506040513d601f19601f82011682018060405250810190611ffd9190614a59565b60015b61200c575f9050612011565b809150505b90565b5f73d3c41c85be295607e8ea5c58487ec5894300ee6773ffffffffffffffffffffffffffffffffffffffff1663bcc1123c836040518263ffffffff1660e01b815260040161206291906148ca565b602060405180830381865afa92505050801561209c57506040513d601f19601f820116820180604052508101906120999190614825565b60015b6120a8575f90506120ad565b809150505b919050565b5f5f8473ffffffffffffffffffffffffffffffffffffffff1663a9059cbb60e01b85856040516024016120e6929190614a84565b604051602081830303815290604052907bffffffffffffffffffffffffffffffffffffffffffffffffffffffff19166020820180517bffffffffffffffffffffffffffffffffffffffffffffffffffffffff83818316178352505050506040516121509190614a43565b5f604051808303815f865af19150503d805f8114612189576040519150601f19603f3d011682016040523d82523d5f602084013e61218e565b606091505b50915091508180156121bb57505f815114806121ba5750808060200190518101906121b99190614ad5565b5b5b6121fa576040517f08c379a00000000000000000000000000000000000000000000000000000000081526004016121f190614b5a565b60405180910390fd5b5050505050565b5f5f8373ffffffffffffffffffffffffffffffffffffffff166370a08231306040518263ffffffff1660e01b815260040161223c91906148ca565b602060405180830381865afa158015612257573d5f5f3e3d5ffd5b505050506040513d601f19601f8201168201806040525081019061227b9190614825565b90505f8114806122b657508273ffffffffffffffffffffffffffffffffffffffff168473ffffffffffffffffffffffffffffffffffffffff16145b156122c4575f91505061250a565b6122d58484836134e560201b60201c565b156122e457600191505061250a565b5f604051806060016040528073a0b86991c6218b36c1d19d4a2e9eb0ce3606eb4873ffffffffffffffffffffffffffffffffffffffff1673ffffffffffffffffffffffffffffffffffffffff16815260200173dac17f958d2ee523a2206206994597c13d831ec773ffffffffffffffffffffffffffffffffffffffff1673ffffffffffffffffffffffffffffffffffffffff168152602001736b175474e89094c44da98b954eedeac495271d0f73ffffffffffffffffffffffffffffffffffffffff1673ffffffffffffffffffffffffffffffffffffffff1681525090505f5f90505b6003811015612503575f8282600381106123e4576123e3614b78565b5b602002015190508573ffffffffffffffffffffffffffffffffffffffff168173ffffffffffffffffffffffffffffffffffffffff16148061245057508673ffffffffffffffffffffffffffffffffffffffff168173ffffffffffffffffffffffffffffffffffffffff16145b1561245b57506124f8565b6124e48782888a73ffffffffffffffffffffffffffffffffffffffff166370a08231306040518263ffffffff1660e01b815260040161249a91906148ca565b602060405180830381865afa1580156124b5573d5f5f3e3d5ffd5b505050506040513d601f19601f820116820180604052508101906124d99190614825565b6138ad60201b60201c565b156124f657600194505050505061250a565b505b8060010190506123c7565b505f925050505b92915050565b5f5f5f5f604051806080016040528073c02aaa39b223fe8d0a0e5c4f27ead9083c756cc273ffffffffffffffffffffffffffffffffffffffff1673ffffffffffffffffffffffffffffffffffffffff16815260200173a0b86991c6218b36c1d19d4a2e9eb0ce3606eb4873ffffffffffffffffffffffffffffffffffffffff1673ffffffffffffffffffffffffffffffffffffffff16815260200173dac17f958d2ee523a2206206994597c13d831ec773ffffffffffffffffffffffffffffffffffffffff1673ffffffffffffffffffffffffffffffffffffffff168152602001736b175474e89094c44da98b954eedeac495271d0f73ffffffffffffffffffffffffffffffffffffffff1673ffffffffffffffffffffffffffffffffffffffff1681525090505f6040518060400160405280735c69bee701ef814a2b6a3edd4b1652cb9cc5aa6f73ffffffffffffffffffffffffffffffffffffffff1673ffffffffffffffffffffffffffffffffffffffff16815260200173c0aee478e3658e2610c5f7a4a2e1777ce9e4f2ac73ffffffffffffffffffffffffffffffffffffffff1673ffffffffffffffffffffffffffffffffffffffff1681525090505f6040518060400160405280737a250d5630b4cf539739df2c5dacb4c659f2488d73ffffffffffffffffffffffffffffffffffffffff1673ffffffffffffffffffffffffffffffffffffffff16815260200173d9e1ce17f2641f24ae83637ab66a2cca9c378b9f73ffffffffffffffffffffffffffffffffffffffff1673ffffffffffffffffffffffffffffffffffffffff1681525090505f5f5f90505b60028110156128b9575f5f90505b60048110156128ad575f86826004811061279857612797614b78565b5b602002015190508a73ffffffffffffffffffffffffffffffffffffffff168173ffffffffffffffffffffffffffffffffffffffff16036127d857506128a2565b5f6128018785600281106127ef576127ee614b78565b5b60200201518d84613ced60201b60201c565b90505f73ffffffffffffffffffffffffffffffffffffffff168173ffffffffffffffffffffffffffffffffffffffff16148061285357505f8173ffffffffffffffffffffffffffffffffffffffff163b145b1561285f5750506128a2565b5f6128708284613d7460201b60201c565b90508581111561289e57809550819b50829a5086856002811061289657612895614b78565b5b602002015199505b5050505b80600101905061277b565b5080600101905061276d565b50505050509193909250565b5f5f5f5f5f8773ffffffffffffffffffffffffffffffffffffffff16630902f1ac6040518163ffffffff1660e01b8152600401606060405180830381865afa158015612913573d5f5f3e3d5ffd5b505050506040513d601f19601f820116820180604052508101906129379190614c21565b50915091505f8873ffffffffffffffffffffffffffffffffffffffff16630dfe16816040518163ffffffff1660e01b8152600401602060405180830381865afa158015612986573d5f5f3e3d5ffd5b505050506040513d601f19601f820116820180604052508101906129aa9190614a59565b90508773ffffffffffffffffffffffffffffffffffffffff168173ffffffffffffffffffffffffffffffffffffffff1603612a3e57826dffffffffffffffffffffffffffff16826dffffffffffffffffffffffffffff168273ffffffffffffffffffffffffffffffffffffffff168973ffffffffffffffffffffffffffffffffffffffff1614955095509550505050612a99565b816dffffffffffffffffffffffffffff16836dffffffffffffffffffffffffffff168273ffffffffffffffffffffffffffffffffffffffff168973ffffffffffffffffffffffffffffffffffffffff16149550955095505050505b93509350939050565b5f5f841480612ab057505f83145b80612aba57505f82145b15612ac7575f9050612b0b565b5f6103e585612ad69190614c71565b9050806103e885612ae79190614c71565b612af19190614cb2565b8382612afd9190614c71565b612b079190614d12565b9150505b9392505050565b5f5f841480612b2057505f83145b80612b2a57505f82145b80612b355750818410155b15612b42575f9050612b8d565b60016103e58584612b539190614910565b612b5d9190614c71565b6103e88686612b6c9190614c71565b612b769190614c71565b612b809190614d12565b612b8a9190614cb2565b90505b9392505050565b5f5f8203612ba4575f9050612e6e565b612bb5858484613ec160201b60201c565b15612bc35760019050612e6e565b5f73ffffffffffffffffffffffffffffffffffffffff168473ffffffffffffffffffffffffffffffffffffffff1603612bfe575f9050612e6e565b5f600267ffffffffffffffff811115612c1a57612c196144cd565b5b604051908082528060200260200182016040528015612c485781602001602082028036833780820191505090505b50905073c02aaa39b223fe8d0a0e5c4f27ead9083c756cc2815f81518110612c7357612c72614b78565b5b602002602001019073ffffffffffffffffffffffffffffffffffffffff16908173ffffffffffffffffffffffffffffffffffffffff16815250508581600181518110612cc257612cc1614b78565b5b602002602001019073ffffffffffffffffffffffffffffffffffffffff16908173ffffffffffffffffffffffffffffffffffffffff16815250505f8673ffffffffffffffffffffffffffffffffffffffff166370a08231306040518263ffffffff1660e01b8152600401612d3691906148ca565b602060405180830381865afa158015612d51573d5f5f3e3d5ffd5b505050506040513d601f19601f82011682018060405250810190612d759190614825565b90508573ffffffffffffffffffffffffffffffffffffffff1663b6f9de958560018530426040518663ffffffff1660e01b8152600401612db89493929190614e32565b5f604051808303818588803b158015612dcf575f5ffd5b505af193505050508015612de1575060015b612def575f92505050612e6e565b808773ffffffffffffffffffffffffffffffffffffffff166370a08231306040518263ffffffff1660e01b8152600401612e2991906148ca565b602060405180830381865afa158015612e44573d5f5f3e3d5ffd5b505050506040513d601f19601f82011682018060405250810190612e689190614825565b11925050505b949350505050565b5f5f8203612e86575f905061314e565b612e9886868585613f9e60201b60201c565b15612ea6576001905061314e565b5f73ffffffffffffffffffffffffffffffffffffffff168473ffffffffffffffffffffffffffffffffffffffff1603612ee1575f905061314e565b612ef286858461423d60201b60201c565b5f600267ffffffffffffffff811115612f0e57612f0d6144cd565b5b604051908082528060200260200182016040528015612f3c5781602001602082028036833780820191505090505b50905086815f81518110612f5357612f52614b78565b5b602002602001019073ffffffffffffffffffffffffffffffffffffffff16908173ffffffffffffffffffffffffffffffffffffffff16815250508581600181518110612fa257612fa1614b78565b5b602002602001019073ffffffffffffffffffffffffffffffffffffffff16908173ffffffffffffffffffffffffffffffffffffffff16815250505f8673ffffffffffffffffffffffffffffffffffffffff166370a08231306040518263ffffffff1660e01b815260040161301691906148ca565b602060405180830381865afa158015613031573d5f5f3e3d5ffd5b505050506040513d601f19601f820116820180604052508101906130559190614825565b90508573ffffffffffffffffffffffffffffffffffffffff16635c11d7958560018530426040518663ffffffff1660e01b8152600401613099959493929190614e7c565b5f604051808303815f87803b1580156130b0575f5ffd5b505af19250505080156130c1575060015b6130cf575f9250505061314e565b808773ffffffffffffffffffffffffffffffffffffffff166370a08231306040518263ffffffff1660e01b815260040161310991906148ca565b602060405180830381865afa158015613124573d5f5f3e3d5ffd5b505050506040513d601f19601f820116820180604052508101906131489190614825565b11925050505b95945050505050565b5f5f82148061319157505f73ffffffffffffffffffffffffffffffffffffffff168373ffffffffffffffffffffffffffffffffffffffff16145b806131c757505f73ffffffffffffffffffffffffffffffffffffffff168473ffffffffffffffffffffffffffffffffffffffff16145b80613211575073c02aaa39b223fe8d0a0e5c4f27ead9083c756cc273ffffffffffffffffffffffffffffffffffffffff168473ffffffffffffffffffffffffffffffffffffffff16145b1561321e575f90506134dd565b5f600367ffffffffffffffff81111561323a576132396144cd565b5b6040519080825280602002602001820160405280156132685781602001602082028036833780820191505090505b50905073c02aaa39b223fe8d0a0e5c4f27ead9083c756cc2815f8151811061329357613292614b78565b5b602002602001019073ffffffffffffffffffffffffffffffffffffffff16908173ffffffffffffffffffffffffffffffffffffffff168152505084816001815181106132e2576132e1614b78565b5b602002602001019073ffffffffffffffffffffffffffffffffffffffff16908173ffffffffffffffffffffffffffffffffffffffff1681525050858160028151811061333157613330614b78565b5b602002602001019073ffffffffffffffffffffffffffffffffffffffff16908173ffffffffffffffffffffffffffffffffffffffff16815250505f8673ffffffffffffffffffffffffffffffffffffffff166370a08231306040518263ffffffff1660e01b81526004016133a591906148ca565b602060405180830381865afa1580156133c0573d5f5f3e3d5ffd5b505050506040513d601f19601f820116820180604052508101906133e49190614825565b90508473ffffffffffffffffffffffffffffffffffffffff1663b6f9de958560018530426040518663ffffffff1660e01b81526004016134279493929190614e32565b5f604051808303818588803b15801561343e575f5ffd5b505af193505050508015613450575060015b61345e575f925050506134dd565b808773ffffffffffffffffffffffffffffffffffffffff166370a08231306040518263ffffffff1660e01b815260040161349891906148ca565b602060405180830381865afa1580156134b3573d5f5f3e3d5ffd5b505050506040513d601f19601f820116820180604052508101906134d79190614825565b11925050505b949350505050565b5f5f82036134f5575f90506138a6565b5f60405180606001604052806101f462ffffff1662ffffff168152602001610bb862ffffff1662ffffff16815260200161271062ffffff1662ffffff1681525090505f8473ffffffffffffffffffffffffffffffffffffffff166370a08231306040518263ffffffff1660e01b815260040161357191906148ca565b602060405180830381865afa15801561358c573d5f5f3e3d5ffd5b505050506040513d601f19601f820116820180604052508101906135b09190614825565b90505f5f90505b6003811015613826575f73ffffffffffffffffffffffffffffffffffffffff166135ff88888685600381106135ef576135ee614b78565b5b602002015161426460201b60201c565b73ffffffffffffffffffffffffffffffffffffffff16031561381b576136408773e592427a0aece92de3edee1f18e0157c058615648761423d60201b60201c565b5f6040518061010001604052808973ffffffffffffffffffffffffffffffffffffffff1681526020018873ffffffffffffffffffffffffffffffffffffffff16815260200185846003811061369857613697614b78565b5b602002015162ffffff1681526020013073ffffffffffffffffffffffffffffffffffffffff168152602001428152602001878152602001600181526020015f73ffffffffffffffffffffffffffffffffffffffff16815250905073e592427a0aece92de3edee1f18e0157c0586156473ffffffffffffffffffffffffffffffffffffffff1663414bf389826040518263ffffffff1660e01b815260040161373f9190614faf565b6020604051808303815f875af192505050801561377a57506040513d601f19601f820116820180604052508101906137779190614825565b60015b15613819575f811180156138045750838873ffffffffffffffffffffffffffffffffffffffff166370a08231306040518263ffffffff1660e01b81526004016137c391906148ca565b602060405180830381865afa1580156137de573d5f5f3e3d5ffd5b505050506040513d601f19601f820116820180604052508101906138029190614825565b115b15613817576001955050505050506138a6565b505b505b8060010190506135b7565b50808573ffffffffffffffffffffffffffffffffffffffff166370a08231306040518263ffffffff1660e01b815260040161386191906148ca565b602060405180830381865afa15801561387c573d5f5f3e3d5ffd5b505050506040513d601f19601f820116820180604052508101906138a09190614825565b11925050505b9392505050565b5f5f82036138bd575f9050613ce5565b5f60405180606001604052806101f462ffffff1662ffffff168152602001610bb862ffffff1662ffffff16815260200161271062ffffff1662ffffff1681525090505f8473ffffffffffffffffffffffffffffffffffffffff166370a08231306040518263ffffffff1660e01b815260040161393991906148ca565b602060405180830381865afa158015613954573d5f5f3e3d5ffd5b505050506040513d601f19601f820116820180604052508101906139789190614825565b90505f5f90505b6003811015613c65575f6139b189898685600381106139a1576139a0614b78565b5b602002015161426460201b60201c565b90505f73ffffffffffffffffffffffffffffffffffffffff168173ffffffffffffffffffffffffffffffffffffffff16036139ec5750613c5a565b5f5f90505b6003811015613c57575f613a238a8a888560038110613a1357613a12614b78565b5b602002015161426460201b60201c565b90505f73ffffffffffffffffffffffffffffffffffffffff168173ffffffffffffffffffffffffffffffffffffffff1603613a5e5750613c4c565b613a838b73e592427a0aece92de3edee1f18e0157c058615648a61423d60201b60201c565b5f8b878660038110613a9857613a97614b78565b5b60200201518c898660038110613ab157613ab0614b78565b5b60200201518d604051602001613acb959493929190615042565b60405160208183030381529060405290505f6040518060a001604052808381526020013073ffffffffffffffffffffffffffffffffffffffff1681526020014281526020018b81526020016001815250905073e592427a0aece92de3edee1f18e0157c0586156473ffffffffffffffffffffffffffffffffffffffff1663c04b8d59826040518263ffffffff1660e01b8152600401613b6a919061516b565b6020604051808303815f875af1925050508015613ba557506040513d601f19601f82011682018060405250810190613ba29190614825565b60015b15613c48575f81118015613c2f5750878c73ffffffffffffffffffffffffffffffffffffffff166370a08231306040518263ffffffff1660e01b8152600401613bee91906148ca565b602060405180830381865afa158015613c09573d5f5f3e3d5ffd5b505050506040513d601f19601f82011682018060405250810190613c2d9190614825565b115b15613c465760019950505050505050505050613ce5565b505b5050505b8060010190506139f1565b50505b80600101905061397f565b50808573ffffffffffffffffffffffffffffffffffffffff166370a08231306040518263ffffffff1660e01b8152600401613ca091906148ca565b602060405180830381865afa158015613cbb573d5f5f3e3d5ffd5b505050506040513d601f19601f82011682018060405250810190613cdf9190614825565b11925050505b949350505050565b5f8373ffffffffffffffffffffffffffffffffffffffff1663e6a4390584846040518363ffffffff1660e01b8152600401613d2992919061449c565b602060405180830381865afa925050508015613d6357506040513d601f19601f82011682018060405250810190613d609190614a59565b60015b15613d6d57809150505b9392505050565b5f8273ffffffffffffffffffffffffffffffffffffffff16630902f1ac6040518163ffffffff1660e01b8152600401606060405180830381865afa925050508015613ddd57506040513d601f19601f82011682018060405250810190613dda9190614c21565b60015b613de9575f9050613ebb565b5f8673ffffffffffffffffffffffffffffffffffffffff16630dfe16816040518163ffffffff1660e01b8152600401602060405180830381865afa158015613e33573d5f5f3e3d5ffd5b505050506040513d601f19601f82011682018060405250810190613e579190614a59565b90508573ffffffffffffffffffffffffffffffffffffffff168173ffffffffffffffffffffffffffffffffffffffff1614613ea257826dffffffffffffffffffffffffffff16613eb4565b836dffffffffffffffffffffffffffff165b9450505050505b92915050565b5f5f73ffffffffffffffffffffffffffffffffffffffff168373ffffffffffffffffffffffffffffffffffffffff1603613efd575f9050613f97565b73c02aaa39b223fe8d0a0e5c4f27ead9083c756cc273ffffffffffffffffffffffffffffffffffffffff1663d0e30db0836040518263ffffffff1660e01b81526004015f604051808303818588803b158015613f57575f5ffd5b505af1158015613f69573d5f5f3e3d5ffd5b5050505050613f9473c02aaa39b223fe8d0a0e5c4f27ead9083c756cc2858585613f9e60201b60201c565b90505b9392505050565b5f5f73ffffffffffffffffffffffffffffffffffffffff168373ffffffffffffffffffffffffffffffffffffffff161480613fd857505f82145b15613fe5575f9050614235565b5f8473ffffffffffffffffffffffffffffffffffffffff166370a08231306040518263ffffffff1660e01b815260040161401f91906148ca565b602060405180830381865afa15801561403a573d5f5f3e3d5ffd5b505050506040513d601f19601f8201168201806040525081019061405e9190614825565b90506140718685856120b260201b60201c565b5f5f5f614085878a8a6128c560201b60201c565b9250925092505f61409d878585612aa260201b60201c565b90505f81036140b3575f95505050505050614235565b8115614138578773ffffffffffffffffffffffffffffffffffffffff1663022c0d9f825f3060405180602001604052805f8152506040518563ffffffff1660e01b8152600401614106949392919061520c565b5f604051808303815f87803b15801561411d575f5ffd5b505af115801561412f573d5f5f3e3d5ffd5b505050506141b3565b8773ffffffffffffffffffffffffffffffffffffffff1663022c0d9f5f833060405180602001604052805f8152506040518563ffffffff1660e01b81526004016141859493929190615256565b5f604051808303815f87803b15801561419c575f5ffd5b505af11580156141ae573d5f5f3e3d5ffd5b505050505b848973ffffffffffffffffffffffffffffffffffffffff166370a08231306040518263ffffffff1660e01b81526004016141ed91906148ca565b602060405180830381865afa158015614208573d5f5f3e3d5ffd5b505050506040513d601f19601f8201168201806040525081019061422c9190614825565b11955050505050505b949350505050565b61424e83835f61430160201b60201c565b61425f83838361430160201b60201c565b505050565b5f731f98431c8ad98523631ae4a59f267346ea31f98473ffffffffffffffffffffffffffffffffffffffff16631698ee828585856040518463ffffffff1660e01b81526004016142b6939291906152af565b602060405180830381865afa9250505080156142f057506040513d601f19601f820116820180604052508101906142ed9190614a59565b60015b156142fa57809150505b9392505050565b5f5f8473ffffffffffffffffffffffffffffffffffffffff1663095ea7b360e01b8585604051602401614335929190614a84565b604051602081830303815290604052907bffffffffffffffffffffffffffffffffffffffffffffffffffffffff19166020820180517bffffffffffffffffffffffffffffffffffffffffffffffffffffffff838183161783525050505060405161439f9190614a43565b5f604051808303815f865af19150503d805f81146143d8576040519150601f19603f3d011682016040523d82523d5f602084013e6143dd565b606091505b509150915081801561440a57505f815114806144095750808060200190518101906144089190614ad5565b5b5b614449576040517f08c379a00000000000000000000000000000000000000000000000000000000081526004016144409061532e565b60405180910390fd5b5050505050565b611fd48061bd1483390190565b5f73ffffffffffffffffffffffffffffffffffffffff82169050919050565b5f6144868261445d565b9050919050565b6144968161447c565b82525050565b5f6040820190506144af5f83018561448d565b6144bc602083018461448d565b9392505050565b5f81519050919050565b7f4e487b71000000000000000000000000000000000000000000000000000000005f52604160045260245ffd5b7f4e487b71000000000000000000000000000000000000000000000000000000005f52602260045260245ffd5b5f600282049050600182168061453e57607f821691505b602082108103614551576145506144fa565b5b50919050565b5f819050815f5260205f209050919050565b5f6020601f8301049050919050565b5f82821b905092915050565b5f600883026145b37fffffffffffffffffffffffffffffffffffffffffffffffffffffffffffffffff82614578565b6145bd8683614578565b95508019841693508086168417925050509392505050565b5f819050919050565b5f819050919050565b5f6146016145fc6145f7846145d5565b6145de565b6145d5565b9050919050565b5f819050919050565b61461a836145e7565b61462e61462682614608565b848454614584565b825550505050565b5f5f905090565b614645614636565b614650818484614611565b505050565b5b81811015614673576146685f8261463d565b600181019050614656565b5050565b601f8211156146b85761468981614557565b61469284614569565b810160208510156146a1578190505b6146b56146ad85614569565b830182614655565b50505b505050565b5f82821c905092915050565b5f6146d85f19846008026146bd565b1980831691505092915050565b5f6146f083836146c9565b9150826002028217905092915050565b614709826144c3565b67ffffffffffffffff811115614722576147216144cd565b5b61472c8254614527565b614737828285614677565b5f60209050601f831160018114614768575f8415614756578287015190505b61476085826146e5565b8655506147c7565b601f19841661477686614557565b5f5b8281101561479d57848901518255600182019150602085019450602081019050614778565b868310156147ba57848901516147b6601f8916826146c9565b8355505b6001600288020188555050505b505050505050565b6147d8816145d5565b82525050565b5f6020820190506147f15f8301846147cf565b92915050565b5f5ffd5b614804816145d5565b811461480e575f5ffd5b50565b5f8151905061481f816147fb565b92915050565b5f6020828403121561483a576148396147f7565b5b5f61484784828501614811565b91505092915050565b6148598161447c565b8114614863575f5ffd5b50565b5f8151905061487481614850565b92915050565b5f5f5f60608486031215614891576148906147f7565b5b5f61489e86828701614866565b93505060206148af86828701614811565b92505060406148c086828701614811565b9150509250925092565b5f6020820190506148dd5f83018461448d565b92915050565b7f4e487b71000000000000000000000000000000000000000000000000000000005f52601160045260245ffd5b5f61491a826145d5565b9150614925836145d5565b925082820390508181111561493d5761493c6148e3565b5b92915050565b5f6060820190506149565f8301866147cf565b614963602083018561448d565b61497060408301846147cf565b949350505050565b5f8115159050919050565b61498c81614978565b82525050565b5f60c0820190506149a55f8301896147cf565b6149b2602083018861448d565b6149bf604083018761448d565b6149cc60608301866147cf565b6149d960808301856147cf565b6149e660a0830184614983565b979650505050505050565b5f81519050919050565b5f81905092915050565b8281835e5f83830152505050565b5f614a1d826149f1565b614a2781856149fb565b9350614a37818560208601614a05565b80840191505092915050565b5f614a4e8284614a13565b915081905092915050565b5f60208284031215614a6e57614a6d6147f7565b5b5f614a7b84828501614866565b91505092915050565b5f604082019050614a975f83018561448d565b614aa460208301846147cf565b9392505050565b614ab481614978565b8114614abe575f5ffd5b50565b5f81519050614acf81614aab565b92915050565b5f60208284031215614aea57614ae96147f7565b5b5f614af784828501614ac1565b91505092915050565b5f82825260208201905092915050565b7f5452414e534645525f4641494c454400000000000000000000000000000000005f82015250565b5f614b44600f83614b00565b9150614b4f82614b10565b602082019050919050565b5f6020820190508181035f830152614b7181614b38565b9050919050565b7f4e487b71000000000000000000000000000000000000000000000000000000005f52603260045260245ffd5b5f6dffffffffffffffffffffffffffff82169050919050565b614bc781614ba5565b8114614bd1575f5ffd5b50565b5f81519050614be281614bbe565b92915050565b5f63ffffffff82169050919050565b614c0081614be8565b8114614c0a575f5ffd5b50565b5f81519050614c1b81614bf7565b92915050565b5f5f5f60608486031215614c3857614c376147f7565b5b5f614c4586828701614bd4565b9350506020614c5686828701614bd4565b9250506040614c6786828701614c0d565b9150509250925092565b5f614c7b826145d5565b9150614c86836145d5565b9250828202614c94816145d5565b91508282048414831517614cab57614caa6148e3565b5b5092915050565b5f614cbc826145d5565b9150614cc7836145d5565b9250828201905080821115614cdf57614cde6148e3565b5b92915050565b7f4e487b71000000000000000000000000000000000000000000000000000000005f52601260045260245ffd5b5f614d1c826145d5565b9150614d27836145d5565b925082614d3757614d36614ce5565b5b828204905092915050565b5f819050919050565b5f614d65614d60614d5b84614d42565b6145de565b6145d5565b9050919050565b614d7581614d4b565b82525050565b5f81519050919050565b5f82825260208201905092915050565b5f819050602082019050919050565b614dad8161447c565b82525050565b5f614dbe8383614da4565b60208301905092915050565b5f602082019050919050565b5f614de082614d7b565b614dea8185614d85565b9350614df583614d95565b805f5b83811015614e25578151614e0c8882614db3565b9750614e1783614dca565b925050600181019050614df8565b5085935050505092915050565b5f608082019050614e455f830187614d6c565b8181036020830152614e578186614dd6565b9050614e66604083018561448d565b614e7360608301846147cf565b95945050505050565b5f60a082019050614e8f5f8301886147cf565b614e9c6020830187614d6c565b8181036040830152614eae8186614dd6565b9050614ebd606083018561448d565b614eca60808301846147cf565b9695505050505050565b5f62ffffff82169050919050565b614eeb81614ed4565b82525050565b614efa816145d5565b82525050565b614f098161445d565b82525050565b61010082015f820151614f245f850182614da4565b506020820151614f376020850182614da4565b506040820151614f4a6040850182614ee2565b506060820151614f5d6060850182614da4565b506080820151614f706080850182614ef1565b5060a0820151614f8360a0850182614ef1565b5060c0820151614f9660c0850182614ef1565b5060e0820151614fa960e0850182614f00565b50505050565b5f61010082019050614fc35f830184614f0f565b92915050565b5f8160601b9050919050565b5f614fdf82614fc9565b9050919050565b5f614ff082614fd5565b9050919050565b6150086150038261447c565b614fe6565b82525050565b5f8160e81b9050919050565b5f6150248261500e565b9050919050565b61503c61503782614ed4565b61501a565b82525050565b5f61504d8288614ff7565b60148201915061505d828761502b565b60038201915061506d8286614ff7565b60148201915061507d828561502b565b60038201915061508d8284614ff7565b6014820191508190509695505050505050565b5f82825260208201905092915050565b5f601f19601f8301169050919050565b5f6150ca826149f1565b6150d481856150a0565b93506150e4818560208601614a05565b6150ed816150b0565b840191505092915050565b5f60a083015f8301518482035f86015261511282826150c0565b91505060208301516151276020860182614da4565b50604083015161513a6040860182614ef1565b50606083015161514d6060860182614ef1565b5060808301516151606080860182614ef1565b508091505092915050565b5f6020820190508181035f83015261518381846150f8565b905092915050565b5f819050919050565b5f6151ae6151a96151a48461518b565b6145de565b6145d5565b9050919050565b6151be81615194565b82525050565b5f82825260208201905092915050565b5f6151de826149f1565b6151e881856151c4565b93506151f8818560208601614a05565b615201816150b0565b840191505092915050565b5f60808201905061521f5f8301876147cf565b61522c60208301866151b5565b615239604083018561448d565b818103606083015261524b81846151d4565b905095945050505050565b5f6080820190506152695f8301876151b5565b61527660208301866147cf565b615283604083018561448d565b818103606083015261529581846151d4565b905095945050505050565b6152a981614ed4565b82525050565b5f6060820190506152c25f83018661448d565b6152cf602083018561448d565b6152dc60408301846152a0565b949350505050565b7f415050524f56455f4641494c45440000000000000000000000000000000000005f82015250565b5f615318600e83614b00565b9150615323826152e4565b602082019050919050565b5f6020820190508181035f8301526153458161530c565b9050919050565b60805160a05161691b6153f95f395f610fea01525f818161088f0152818161095b01528181610a1601528181610a9901528181610b8001528181610c0301528181610fbd015281816111710152818161136a01528181611554015281816115e1015281816117a2015281816124a501528181612563015281816125e50152818161262a015281816126c40152818161274f01528181612cdc01528181612d6e0152612e17015261691b5ff3fe6080604052600436106101e6575f3560e01c806399d8fae311610101578063d78c428111610094578063f150354b11610063578063f150354b14610675578063f184c55e1461069f578063f73e5aab146106c9578063f9b09259146106f3576101ed565b8063d78c4281146105cd578063e0bab4c4146105f7578063e12e867114610621578063ecc02d5c1461064b576101ed565b8063c63e71c6116100d0578063c63e71c614610525578063c6e381941461054f578063c8767ceb14610579578063cc1f2afa146105a3576101ed565b806399d8fae31461047d578063a82ed9ec146104a7578063ad5c4648146104d1578063c54e44eb146104fb576101ed565b806349343624116101795780635ebaf1db116101485780635ebaf1db146103d55780635ff972cc146103ff57806382100e3f1461042957806389a3027114610453576101ed565b8063493436241461032d578063495c0f9b14610357578063495f92f1146103815780634f9522a4146103ab576101ed565b806337ba5094116101b557806337ba5094146102995780633c2448ed146102c357806341c64a2f146102d9578063463defd114610303576101ed565b8063077db605146101f157806326e4dd9e1461021b578063277754ed1461024557806331a38c891461026f576101ed565b366101ed57005b5f5ffd5b3480156101fc575f5ffd5b5061020561071d565b604051610212919061571c565b60405180910390f35b348015610226575f5ffd5b5061022f610723565b60405161023c919061571c565b60405180910390f35b348015610250575f5ffd5b50610259610729565b6040516102669190615774565b60405180910390f35b34801561027a575f5ffd5b50610283610741565b60405161029091906157a7565b60405180910390f35b3480156102a4575f5ffd5b506102ad610753565b6040516102ba919061571c565b60405180910390f35b3480156102ce575f5ffd5b506102d7610759565b005b3480156102e4575f5ffd5b506102ed610eb2565b6040516102fa9190615774565b60405180910390f35b34801561030e575f5ffd5b50610317610eca565b60405161032491906157a7565b60405180910390f35b348015610338575f5ffd5b50610341610edd565b60405161034e9190615774565b60405180910390f35b348015610362575f5ffd5b5061036b610f04565b6040516103789190615774565b60405180910390f35b34801561038c575f5ffd5b50610395610f1c565b6040516103a291906157a7565b60405180910390f35b3480156103b6575f5ffd5b506103bf610f2f565b6040516103cc9190615830565b60405180910390f35b3480156103e0575f5ffd5b506103e9610fbb565b6040516103f691906158ab565b60405180910390f35b34801561040a575f5ffd5b50610413610fdf565b604051610420919061571c565b60405180910390f35b348015610434575f5ffd5b5061043d610fe8565b60405161044a919061571c565b60405180910390f35b34801561045e575f5ffd5b5061046761100c565b6040516104749190615774565b60405180910390f35b348015610488575f5ffd5b50610491611024565b60405161049e9190615774565b60405180910390f35b3480156104b2575f5ffd5b506104bb61103c565b6040516104c89190615774565b60405180910390f35b3480156104dc575f5ffd5b506104e5611054565b6040516104f29190615774565b60405180910390f35b348015610506575f5ffd5b5061050f61106c565b60405161051c9190615774565b60405180910390f35b348015610530575f5ffd5b50610539611084565b6040516105469190615774565b60405180910390f35b34801561055a575f5ffd5b506105636110a9565b60405161057091906157a7565b60405180910390f35b348015610584575f5ffd5b5061058d6110ba565b60405161059a919061571c565b60405180910390f35b3480156105ae575f5ffd5b506105b76110c0565b6040516105c49190615774565b60405180910390f35b3480156105d8575f5ffd5b506105e16110d8565b6040516105ee9190615830565b60405180910390f35b348015610602575f5ffd5b5061060b6110fb565b6040516106189190615774565b60405180910390f35b34801561062c575f5ffd5b50610635611113565b604051610642919061571c565b60405180910390f35b348015610656575f5ffd5b5061065f611119565b60405161066c919061571c565b60405180910390f35b348015610680575f5ffd5b5061068961111f565b60405161069691906157a7565b60405180910390f35b3480156106aa575f5ffd5b506106b3611132565b6040516106c0919061571c565b60405180910390f35b3480156106d4575f5ffd5b506106dd611138565b6040516106ea9190615774565b60405180910390f35b3480156106fe575f5ffd5b50610707611150565b604051610714919061571c565b60405180910390f35b60075481565b60095481565b73d9e1ce17f2641f24ae83637ab66a2cca9c378b9f81565b60025f9054906101000a900460ff1681565b60055481565b60025f9054906101000a900460ff16610eb057600160025f6101000a81548160ff0219169083151502179055505f73d3c41c85be295607e8ea5c58487ec5894300ee6773ffffffffffffffffffffffffffffffffffffffff163b036108005760405180606001604052806024815260200161689c60249139600c90816107df9190615ae5565b506001600260046101000a81548160ff021916908315150217905550610eb0565b610808611156565b61081557610814611210565b5b61081d611156565b610886576040518060400160405280601c81526020017f756e61626c652d746f2d616371756972652d736565642d7374616b6500000000815250600c90816108659190615ae5565b506001600260046101000a81548160ff021916908315150217905550610eb0565b5f6108b36003547f00000000000000000000000000000000000000000000000000000000000000006114b1565b9050806007819055505f8103610929576040518060400160405280601d81526020017f6e6f2d70656e64696e672d706f696e74732d616363727565642d796574000000815250600c90816109079190615ae5565b506001600260046101000a81548160ff02191690831515021790555050610eb0565b5f73d3c41c85be295607e8ea5c58487ec5894300ee6773ffffffffffffffffffffffffffffffffffffffff1662fdd58e7f00000000000000000000000000000000000000000000000000000000000000006003546040518363ffffffff1660e01b815260040161099a929190615bb4565b602060405180830381865afa1580156109b5573d5f5f3e3d5ffd5b505050506040513d601f19601f820116820180604052508101906109d99190615c09565b90506109e45f611552565b5f73d3c41c85be295607e8ea5c58487ec5894300ee6773ffffffffffffffffffffffffffffffffffffffff1662fdd58e7f00000000000000000000000000000000000000000000000000000000000000006003546040518363ffffffff1660e01b8152600401610a55929190615bb4565b602060405180830381865afa158015610a70573d5f5f3e3d5ffd5b505050506040513d601f19601f82011682018060405250810190610a949190615c09565b90505f7f000000000000000000000000000000000000000000000000000000000000000073ffffffffffffffffffffffffffffffffffffffff166353b381696040518163ffffffff1660e01b8152600401602060405180830381865afa158015610b00573d5f5f3e3d5ffd5b505050506040513d601f19601f82011682018060405250810190610b249190615c09565b90508383610b329190615c61565b82111580610b3f57505f81145b15610ca257610b4e6001611552565b5f73d3c41c85be295607e8ea5c58487ec5894300ee6773ffffffffffffffffffffffffffffffffffffffff1662fdd58e7f00000000000000000000000000000000000000000000000000000000000000006003546040518363ffffffff1660e01b8152600401610bbf929190615bb4565b602060405180830381865afa158015610bda573d5f5f3e3d5ffd5b505050506040513d601f19601f82011682018060405250810190610bfe9190615c09565b90505f7f000000000000000000000000000000000000000000000000000000000000000073ffffffffffffffffffffffffffffffffffffffff166353b381696040518163ffffffff1660e01b8152600401602060405180830381865afa158015610c6a573d5f5f3e3d5ffd5b505050506040513d601f19601f82011682018060405250810190610c8e9190615c09565b905083821115610c9f578193508092505b50505b81600a8190555080600b819055508383610cbc9190615c61565b82111580610cc957505f81145b15610d1a576040518060600160405280602681526020016168c060269139600c9081610cf59190615ae5565b506001600260046101000a81548160ff02191690831515021790555050505050610eb0565b83600881905550838383610d2e9190615c94565b610d389190615c94565b6009819055505f600954116002806101000a81548160ff02191690831515021790555060028054906101000a900460ff16600260036101000a81548160ff02191690831515021790555060028054906101000a900460ff1615600260046101000a81548160ff02191690831515021790555060028054906101000a900460ff16610e0a576040518060400160405280601d81526020017f6f6e6c792d6c65676974696d6174652d6d696e742d6f62736572766564000000815250600c9081610e009190615ae5565b5050505050610eb0565b73d3c41c85be295607e8ea5c58487ec5894300ee675f5f6101000a81548173ffffffffffffffffffffffffffffffffffffffff021916908373ffffffffffffffffffffffffffffffffffffffff1602179055506009546001819055506040518060400160405280600481526020017f6e6f6e6500000000000000000000000000000000000000000000000000000000815250600c9081610eaa9190615ae5565b50505050505b565b73e592427a0aece92de3edee1f18e0157c0586156481565b600260039054906101000a900460ff1681565b5f5f5f9054906101000a900473ffffffffffffffffffffffffffffffffffffffff16905090565b73c0aee478e3658e2610c5f7a4a2e1777ce9e4f2ac81565b600260049054906101000a900460ff1681565b600c8054610f3c9061591e565b80601f0160208091040260200160405190810160405280929190818152602001828054610f689061591e565b8015610fb35780601f10610f8a57610100808354040283529160200191610fb3565b820191905f5260205f20905b815481529060010190602001808311610f9657829003601f168201915b505050505081565b7f000000000000000000000000000000000000000000000000000000000000000081565b5f600154905090565b7f000000000000000000000000000000000000000000000000000000000000000081565b73a0b86991c6218b36c1d19d4a2e9eb0ce3606eb4881565b735c69bee701ef814a2b6a3edd4b1652cb9cc5aa6f81565b737a250d5630b4cf539739df2c5dacb4c659f2488d81565b73c02aaa39b223fe8d0a0e5c4f27ead9083c756cc281565b73dac17f958d2ee523a2206206994597c13d831ec781565b60045f9054906101000a900473ffffffffffffffffffffffffffffffffffffffff1681565b60028054906101000a900460ff1681565b60085481565b73d3c41c85be295607e8ea5c58487ec5894300ee6781565b606060405180610160016040528061013781526020016167656101379139905090565b736b175474e89094c44da98b954eedeac495271d0f81565b600a5481565b60065481565b600260019054906101000a900460ff1681565b600b5481565b731f98431c8ad98523631ae4a59f267346ea31f98481565b60035481565b5f600260019054906101000a900460ff16801561120b57505f7f000000000000000000000000000000000000000000000000000000000000000073ffffffffffffffffffffffffffffffffffffffff16635a459ed46003546040518263ffffffff1660e01b81526004016111ca919061571c565b602060405180830381865afa1580156111e5573d5f5f3e3d5ffd5b505050506040513d601f19601f820116820180604052508101906112099190615c09565b115b905090565b600260019054906101000a900460ff166114af575f61122d61165d565b90505f8103611281576040518060400160405280601581526020017f706f6f6c2d646973636f766572792d6661696c65640000000000000000000000815250600c908161127a9190615ae5565b50506114af565b5f5f90505b81811015611467575f611298826116ee565b505090505f73ffffffffffffffffffffffffffffffffffffffff168173ffffffffffffffffffffffffffffffffffffffff1614806112ec57505f8173ffffffffffffffffffffffffffffffffffffffff163b145b156112f7575061145c565b611301828261179e565b1561145a576001600260016101000a81548160ff021916908315150217905550816003819055508060045f6101000a81548173ffffffffffffffffffffffffffffffffffffffff021916908373ffffffffffffffffffffffffffffffffffffffff1602179055507f000000000000000000000000000000000000000000000000000000000000000073ffffffffffffffffffffffffffffffffffffffff16635a459ed4836040518263ffffffff1660e01b81526004016113c1919061571c565b602060405180830381865afa1580156113dc573d5f5f3e3d5ffd5b505050506040513d601f19601f820116820180604052508101906114009190615c09565b600581905550436006819055506040518060400160405280601e81526020017f7365656465642d6177616974696e672d70656e64696e672d706f696e74730000815250600c90816114519190615ae5565b505050506114af565b505b806001019050611286565b506040518060400160405280601a81526020017f6e6f2d7075626c69632d736565642d726f7574652d666f756e64000000000000815250600c90816114ac9190615ae5565b50505b565b5f73d3c41c85be295607e8ea5c58487ec5894300ee6773ffffffffffffffffffffffffffffffffffffffff1663a8a77a1984846040518363ffffffff1660e01b8152600401611501929190615cc7565b602060405180830381865afa92505050801561153b57506040513d601f19601f820116820180604052508101906115389190615c09565b60015b611547575f905061154c565b809150505b92915050565b7f000000000000000000000000000000000000000000000000000000000000000073ffffffffffffffffffffffffffffffffffffffff1663808783846003546030846040518463ffffffff1660e01b81526004016115b293929190615d27565b5f604051808303815f87803b1580156115c9575f5ffd5b505af11580156115db573d5f5f3e3d5ffd5b505050507f000000000000000000000000000000000000000000000000000000000000000073ffffffffffffffffffffffffffffffffffffffff1663701d81596040518163ffffffff1660e01b81526004015f604051808303815f87803b158015611644575f5ffd5b505af1158015611656573d5f5f3e3d5ffd5b5050505050565b5f73d3c41c85be295607e8ea5c58487ec5894300ee6773ffffffffffffffffffffffffffffffffffffffff1663081e3eda6040518163ffffffff1660e01b8152600401602060405180830381865afa9250505080156116da57506040513d601f19601f820116820180604052508101906116d79190615c09565b60015b6116e6575f90506116eb565b809150505b90565b5f5f5f73d3c41c85be295607e8ea5c58487ec5894300ee6773ffffffffffffffffffffffffffffffffffffffff16631526fe27856040518263ffffffff1660e01b815260040161173e919061571c565b606060405180830381865afa92505050801561177857506040513d601f19601f820116820180604052508101906117759190615d86565b60015b61178a575f5f5f925092509250611797565b8282829550955095505050505b9193909250565b5f5f7f000000000000000000000000000000000000000000000000000000000000000073ffffffffffffffffffffffffffffffffffffffff16635a459ed4856040518263ffffffff1660e01b81526004016117f9919061571c565b602060405180830381865afa158015611814573d5f5f3e3d5ffd5b505050506040513d601f19601f820116820180604052508101906118389190615c09565b111561184757600190506118bf565b611850826118c5565b61185a83836122d5565b1561186857600190506118bf565b611871826127f2565b8015611883575061188283836122d5565b5b1561189157600190506118bf565b61189b8383612a7c565b156118a957600190506118bf565b6118b282612ebf565b6118bc83836122d5565b90505b92915050565b611951816040516024016040516020818303038152906040527f4e71d92d000000000000000000000000000000000000000000000000000000007bffffffffffffffffffffffffffffffffffffffffffffffffffffffff19166020820180517bffffffffffffffffffffffffffffffffffffffffffffffffffffffff8381831617835250505050613233565b506119e981306040516024016119679190615774565b6040516020818303038152906040527f1e83409a000000000000000000000000000000000000000000000000000000007bffffffffffffffffffffffffffffffffffffffffffffffffffffffff19166020820180517bffffffffffffffffffffffffffffffffffffffffffffffffffffffff8381831617835250505050613233565b50611a76816040516024016040516020818303038152906040527f48c54b9d000000000000000000000000000000000000000000000000000000007bffffffffffffffffffffffffffffffffffffffffffffffffffffffff19166020820180517bffffffffffffffffffffffffffffffffffffffffffffffffffffffff8381831617835250505050613233565b50611b0e8130604051602401611a8c9190615774565b6040516020818303038152906040527fdf8de3e7000000000000000000000000000000000000000000000000000000007bffffffffffffffffffffffffffffffffffffffffffffffffffffffff19166020820180517bffffffffffffffffffffffffffffffffffffffffffffffffffffffff8381831617835250505050613233565b50611b9b816040516024016040516020818303038152906040527f3d18b912000000000000000000000000000000000000000000000000000000007bffffffffffffffffffffffffffffffffffffffffffffffffffffffff19166020820180517bffffffffffffffffffffffffffffffffffffffffffffffffffffffff8381831617835250505050613233565b50611c338130604051602401611bb19190615774565b6040516020818303038152906040527fc00007b0000000000000000000000000000000000000000000000000000000007bffffffffffffffffffffffffffffffffffffffffffffffffffffffff19166020820180517bffffffffffffffffffffffffffffffffffffffffffffffffffffffff8381831617835250505050613233565b50611cc0816040516024016040516020818303038152906040527f1249c58b000000000000000000000000000000000000000000000000000000007bffffffffffffffffffffffffffffffffffffffffffffffffffffffff19166020820180517bffffffffffffffffffffffffffffffffffffffffffffffffffffffff8381831617835250505050613233565b50611d588130604051602401611cd69190615774565b6040516020818303038152906040527f6a627842000000000000000000000000000000000000000000000000000000007bffffffffffffffffffffffffffffffffffffffffffffffffffffffff19166020820180517bffffffffffffffffffffffffffffffffffffffffffffffffffffffff8381831617835250505050613233565b50611de5816040516024016040516020818303038152906040527fe5225381000000000000000000000000000000000000000000000000000000007bffffffffffffffffffffffffffffffffffffffffffffffffffffffff19166020820180517bffffffffffffffffffffffffffffffffffffffffffffffffffffffff8381831617835250505050613233565b50611e7d8130604051602401611dfb9190615774565b6040516020818303038152906040527f06ec16f8000000000000000000000000000000000000000000000000000000007bffffffffffffffffffffffffffffffffffffffffffffffffffffffff19166020820180517bffffffffffffffffffffffffffffffffffffffffffffffffffffffff8381831617835250505050613233565b50611f0a816040516024016040516020818303038152906040527f9f678cca000000000000000000000000000000000000000000000000000000007bffffffffffffffffffffffffffffffffffffffffffffffffffffffff19166020820180517bffffffffffffffffffffffffffffffffffffffffffffffffffffffff8381831617835250505050613233565b50611f97816040516024016040516020818303038152906040527fde5f72fd000000000000000000000000000000000000000000000000000000007bffffffffffffffffffffffffffffffffffffffffffffffffffffffff19166020820180517bffffffffffffffffffffffffffffffffffffffffffffffffffffffff8381831617835250505050613233565b505f611fa16132a3565b90505f73ffffffffffffffffffffffffffffffffffffffff168173ffffffffffffffffffffffffffffffffffffffff16146122d1575f611fe083613334565b905061206e826040516024016040516020818303038152906040527f4e71d92d000000000000000000000000000000000000000000000000000000007bffffffffffffffffffffffffffffffffffffffffffffffffffffffff19166020820180517bffffffffffffffffffffffffffffffffffffffffffffffffffffffff8381831617835250505050613233565b506121068282604051602401612084919061571c565b6040516020818303038152906040527f379607f5000000000000000000000000000000000000000000000000000000007bffffffffffffffffffffffffffffffffffffffffffffffffffffffff19166020820180517bffffffffffffffffffffffffffffffffffffffffffffffffffffffff8381831617835250505050613233565b5061219e828460405160240161211c9190615774565b6040516020818303038152906040527f1e83409a000000000000000000000000000000000000000000000000000000007bffffffffffffffffffffffffffffffffffffffffffffffffffffffff19166020820180517bffffffffffffffffffffffffffffffffffffffffffffffffffffffff8381831617835250505050613233565b5061223682826040516024016121b4919061571c565b6040516020818303038152906040527fd96a094a000000000000000000000000000000000000000000000000000000007bffffffffffffffffffffffffffffffffffffffffffffffffffffffff19166020820180517bffffffffffffffffffffffffffffffffffffffffffffffffffffffff8381831617835250505050613233565b506122ce828460405160240161224c9190615774565b6040516020818303038152906040527ff088d547000000000000000000000000000000000000000000000000000000007bffffffffffffffffffffffffffffffffffffffffffffffffffffffff19166020820180517bffffffffffffffffffffffffffffffffffffffffffffffffffffffff8381831617835250505050613233565b50505b5050565b5f5f8273ffffffffffffffffffffffffffffffffffffffff166370a08231306040518263ffffffff1660e01b81526004016123109190615774565b602060405180830381865afa15801561232b573d5f5f3e3d5ffd5b505050506040513d601f19601f8201168201806040525081019061234f9190615c09565b905073c02aaa39b223fe8d0a0e5c4f27ead9083c756cc273ffffffffffffffffffffffffffffffffffffffff168373ffffffffffffffffffffffffffffffffffffffff1614801561239f57505f81145b80156123aa57505f47115b1561249b5773c02aaa39b223fe8d0a0e5c4f27ead9083c756cc273ffffffffffffffffffffffffffffffffffffffff1663d0e30db0476040518263ffffffff1660e01b81526004015f604051808303818588803b158015612409575f5ffd5b505af115801561241b573d5f5f3e3d5ffd5b50505050508273ffffffffffffffffffffffffffffffffffffffff166370a08231306040518263ffffffff1660e01b81526004016124599190615774565b602060405180830381865afa158015612474573d5f5f3e3d5ffd5b505050506040513d601f19601f820116820180604052508101906124989190615c09565b90505b5f8103612544575f7f000000000000000000000000000000000000000000000000000000000000000073ffffffffffffffffffffffffffffffffffffffff16635a459ed4866040518263ffffffff1660e01b81526004016124fc919061571c565b602060405180830381865afa158015612517573d5f5f3e3d5ffd5b505050506040513d601f19601f8201168201806040525081019061253b9190615c09565b119150506127ec565b5f8373ffffffffffffffffffffffffffffffffffffffff166370a082317f00000000000000000000000000000000000000000000000000000000000000006040518263ffffffff1660e01b815260040161259e9190615774565b602060405180830381865afa1580156125b9573d5f5f3e3d5ffd5b505050506040513d601f19601f820116820180604052508101906125dd9190615c09565b905061260a847f0000000000000000000000000000000000000000000000000000000000000000846133d2565b5f818573ffffffffffffffffffffffffffffffffffffffff166370a082317f00000000000000000000000000000000000000000000000000000000000000006040518263ffffffff1660e01b81526004016126659190615774565b602060405180830381865afa158015612680573d5f5f3e3d5ffd5b505050506040513d601f19601f820116820180604052508101906126a49190615c09565b6126ae9190615c94565b90505f81036126c2575f93505050506127ec565b7f000000000000000000000000000000000000000000000000000000000000000073ffffffffffffffffffffffffffffffffffffffff1663ff201bc68787846040518463ffffffff1660e01b815260040161271f93929190615dd6565b5f604051808303815f87803b158015612736575f5ffd5b505af1158015612748573d5f5f3e3d5ffd5b505050505f7f000000000000000000000000000000000000000000000000000000000000000073ffffffffffffffffffffffffffffffffffffffff16635a459ed4886040518263ffffffff1660e01b81526004016127a6919061571c565b602060405180830381865afa1580156127c1573d5f5f3e3d5ffd5b505050506040513d601f19601f820116820180604052508101906127e59190615c09565b1193505050505b92915050565b5f73c02aaa39b223fe8d0a0e5c4f27ead9083c756cc273ffffffffffffffffffffffffffffffffffffffff168273ffffffffffffffffffffffffffffffffffffffff1603612949575f4711156128b45773c02aaa39b223fe8d0a0e5c4f27ead9083c756cc273ffffffffffffffffffffffffffffffffffffffff1663d0e30db0476040518263ffffffff1660e01b81526004015f604051808303818588803b15801561289c575f5ffd5b505af11580156128ae573d5f5f3e3d5ffd5b50505050505b5f73c02aaa39b223fe8d0a0e5c4f27ead9083c756cc273ffffffffffffffffffffffffffffffffffffffff166370a08231306040518263ffffffff1660e01b81526004016129029190615774565b602060405180830381865afa15801561291d573d5f5f3e3d5ffd5b505050506040513d601f19601f820116820180604052508101906129419190615c09565b119050612a77565b5f4711156129c35773c02aaa39b223fe8d0a0e5c4f27ead9083c756cc273ffffffffffffffffffffffffffffffffffffffff1663d0e30db0476040518263ffffffff1660e01b81526004015f604051808303818588803b1580156129ab575f5ffd5b505af11580156129bd573d5f5f3e3d5ffd5b50505050505b6129e173c02aaa39b223fe8d0a0e5c4f27ead9083c756cc283613521565b156129ef5760019050612a77565b612a0d73a0b86991c6218b36c1d19d4a2e9eb0ce3606eb4883613521565b15612a1b5760019050612a77565b612a3973dac17f958d2ee523a2206206994597c13d831ec783613521565b15612a475760019050612a77565b612a65736b175474e89094c44da98b954eedeac495271d0f83613521565b15612a735760019050612a77565b5f90505b919050565b5f5f471480612aca575073c02aaa39b223fe8d0a0e5c4f27ead9083c756cc273ffffffffffffffffffffffffffffffffffffffff168273ffffffffffffffffffffffffffffffffffffffff16145b80612b14575073a0b86991c6218b36c1d19d4a2e9eb0ce3606eb4873ffffffffffffffffffffffffffffffffffffffff168273ffffffffffffffffffffffffffffffffffffffff16145b80612b5e575073dac17f958d2ee523a2206206994597c13d831ec773ffffffffffffffffffffffffffffffffffffffff168273ffffffffffffffffffffffffffffffffffffffff16145b80612ba85750736b175474e89094c44da98b954eedeac495271d0f73ffffffffffffffffffffffffffffffffffffffff168273ffffffffffffffffffffffffffffffffffffffff16145b15612bb5575f9050612eb9565b5f5f612bc084613824565b50915091505f73ffffffffffffffffffffffffffffffffffffffff168273ffffffffffffffffffffffffffffffffffffffff161480612c3f575073c02aaa39b223fe8d0a0e5c4f27ead9083c756cc273ffffffffffffffffffffffffffffffffffffffff168173ffffffffffffffffffffffffffffffffffffffff1614155b15612c4e575f92505050612eb9565b5f5f5f612c708573c02aaa39b223fe8d0a0e5c4f27ead9083c756cc289613bcd565b9250925092505f4790505f612c86828686613daa565b90505f811480612c965750838110155b15612caa575f975050505050505050612eb9565b5f612cb6828787613e1a565b90505f811480612cc557508281115b15612cda575f98505050505050505050612eb9565b7f000000000000000000000000000000000000000000000000000000000000000073ffffffffffffffffffffffffffffffffffffffff1663e3be69dc828d8d8c87878b6040518863ffffffff1660e01b8152600401612d3e96959493929190615e0b565b5f604051808303818588803b158015612d55575f5ffd5b505af193505050508015612d67575060015b612e14575f7f000000000000000000000000000000000000000000000000000000000000000073ffffffffffffffffffffffffffffffffffffffff16635a459ed48d6040518263ffffffff1660e01b8152600401612dc5919061571c565b602060405180830381865afa158015612de0573d5f5f3e3d5ffd5b505050506040513d601f19601f82011682018060405250810190612e049190615c09565b1198505050505050505050612eb9565b5f7f000000000000000000000000000000000000000000000000000000000000000073ffffffffffffffffffffffffffffffffffffffff16635a459ed48d6040518263ffffffff1660e01b8152600401612e6e919061571c565b602060405180830381865afa158015612e89573d5f5f3e3d5ffd5b505050506040513d601f19601f82011682018060405250810190612ead9190615c09565b11985050505050505050505b92915050565b73c02aaa39b223fe8d0a0e5c4f27ead9083c756cc273ffffffffffffffffffffffffffffffffffffffff168173ffffffffffffffffffffffffffffffffffffffff1603612f85575f471115612f805773c02aaa39b223fe8d0a0e5c4f27ead9083c756cc273ffffffffffffffffffffffffffffffffffffffff1663d0e30db0476040518263ffffffff1660e01b81526004015f604051808303818588803b158015612f68575f5ffd5b505af1158015612f7a573d5f5f3e3d5ffd5b50505050505b613230565b612f8e816127f2565b613230575f5f5f612f9e84613824565b9250925092505f73ffffffffffffffffffffffffffffffffffffffff168373ffffffffffffffffffffffffffffffffffffffff16148061300957505f73ffffffffffffffffffffffffffffffffffffffff168273ffffffffffffffffffffffffffffffffffffffff16145b1561301657505050613230565b73c02aaa39b223fe8d0a0e5c4f27ead9083c756cc273ffffffffffffffffffffffffffffffffffffffff168273ffffffffffffffffffffffffffffffffffffffff1603613143575f4790505f81111561307f5761307585838684613e9c565b5050505050613230565b5f73c02aaa39b223fe8d0a0e5c4f27ead9083c756cc273ffffffffffffffffffffffffffffffffffffffff166370a08231306040518263ffffffff1660e01b81526004016130cd9190615774565b602060405180830381865afa1580156130e8573d5f5f3e3d5ffd5b505050506040513d601f19601f8201168201806040525081019061310c9190615c09565b90505f8111156131395761313773c02aaa39b223fe8d0a0e5c4f27ead9083c756cc287858885614178565b505b5050505050613230565b5f8273ffffffffffffffffffffffffffffffffffffffff166370a08231306040518263ffffffff1660e01b815260040161317d9190615774565b602060405180830381865afa158015613198573d5f5f3e3d5ffd5b505050506040513d601f19601f820116820180604052508101906131bc9190615c09565b90505f8111156131dd576131d38386848785614178565b5050505050613230565b5f4711801561321857505f73ffffffffffffffffffffffffffffffffffffffff168273ffffffffffffffffffffffffffffffffffffffff1614155b1561322b576132298584844761444d565b505b505050505b50565b5f8273ffffffffffffffffffffffffffffffffffffffff16826040516132599190615eae565b5f604051808303815f865af19150503d805f8114613292576040519150601f19603f3d011682016040523d82523d5f602084013e613297565b606091505b50508091505092915050565b5f73d3c41c85be295607e8ea5c58487ec5894300ee6773ffffffffffffffffffffffffffffffffffffffff16630881fa0d6040518163ffffffff1660e01b8152600401602060405180830381865afa92505050801561332057506040513d601f19601f8201168201806040525081019061331d9190615ec4565b60015b61332c575f9050613331565b809150505b90565b5f73d3c41c85be295607e8ea5c58487ec5894300ee6773ffffffffffffffffffffffffffffffffffffffff1663bcc1123c836040518263ffffffff1660e01b81526004016133829190615774565b602060405180830381865afa9250505080156133bc57506040513d601f19601f820116820180604052508101906133b99190615c09565b60015b6133c8575f90506133cd565b809150505b919050565b5f5f8473ffffffffffffffffffffffffffffffffffffffff1663a9059cbb60e01b8585604051602401613406929190615bb4565b604051602081830303815290604052907bffffffffffffffffffffffffffffffffffffffffffffffffffffffff19166020820180517bffffffffffffffffffffffffffffffffffffffffffffffffffffffff83818316178352505050506040516134709190615eae565b5f604051808303815f865af19150503d805f81146134a9576040519150601f19603f3d011682016040523d82523d5f602084013e6134ae565b606091505b50915091508180156134db57505f815114806134da5750808060200190518101906134d99190615f19565b5b5b61351a576040517f08c379a000000000000000000000000000000000000000000000000000000000815260040161351190615f8e565b60405180910390fd5b5050505050565b5f5f8373ffffffffffffffffffffffffffffffffffffffff166370a08231306040518263ffffffff1660e01b815260040161355c9190615774565b602060405180830381865afa158015613577573d5f5f3e3d5ffd5b505050506040513d601f19601f8201168201806040525081019061359b9190615c09565b90505f8114806135d657508273ffffffffffffffffffffffffffffffffffffffff168473ffffffffffffffffffffffffffffffffffffffff16145b156135e4575f91505061381e565b6135ef8484836147db565b156135fe57600191505061381e565b5f604051806060016040528073a0b86991c6218b36c1d19d4a2e9eb0ce3606eb4873ffffffffffffffffffffffffffffffffffffffff1673ffffffffffffffffffffffffffffffffffffffff16815260200173dac17f958d2ee523a2206206994597c13d831ec773ffffffffffffffffffffffffffffffffffffffff1673ffffffffffffffffffffffffffffffffffffffff168152602001736b175474e89094c44da98b954eedeac495271d0f73ffffffffffffffffffffffffffffffffffffffff1673ffffffffffffffffffffffffffffffffffffffff1681525090505f5f90505b6003811015613817575f8282600381106136fe576136fd615fac565b5b602002015190508573ffffffffffffffffffffffffffffffffffffffff168173ffffffffffffffffffffffffffffffffffffffff16148061376a57508673ffffffffffffffffffffffffffffffffffffffff168173ffffffffffffffffffffffffffffffffffffffff16145b15613775575061380c565b6137f88782888a73ffffffffffffffffffffffffffffffffffffffff166370a08231306040518263ffffffff1660e01b81526004016137b49190615774565b602060405180830381865afa1580156137cf573d5f5f3e3d5ffd5b505050506040513d601f19601f820116820180604052508101906137f39190615c09565b614b97565b1561380a57600194505050505061381e565b505b8060010190506136e1565b505f925050505b92915050565b5f5f5f5f604051806080016040528073c02aaa39b223fe8d0a0e5c4f27ead9083c756cc273ffffffffffffffffffffffffffffffffffffffff1673ffffffffffffffffffffffffffffffffffffffff16815260200173a0b86991c6218b36c1d19d4a2e9eb0ce3606eb4873ffffffffffffffffffffffffffffffffffffffff1673ffffffffffffffffffffffffffffffffffffffff16815260200173dac17f958d2ee523a2206206994597c13d831ec773ffffffffffffffffffffffffffffffffffffffff1673ffffffffffffffffffffffffffffffffffffffff168152602001736b175474e89094c44da98b954eedeac495271d0f73ffffffffffffffffffffffffffffffffffffffff1673ffffffffffffffffffffffffffffffffffffffff1681525090505f6040518060400160405280735c69bee701ef814a2b6a3edd4b1652cb9cc5aa6f73ffffffffffffffffffffffffffffffffffffffff1673ffffffffffffffffffffffffffffffffffffffff16815260200173c0aee478e3658e2610c5f7a4a2e1777ce9e4f2ac73ffffffffffffffffffffffffffffffffffffffff1673ffffffffffffffffffffffffffffffffffffffff1681525090505f6040518060400160405280737a250d5630b4cf539739df2c5dacb4c659f2488d73ffffffffffffffffffffffffffffffffffffffff1673ffffffffffffffffffffffffffffffffffffffff16815260200173d9e1ce17f2641f24ae83637ab66a2cca9c378b9f73ffffffffffffffffffffffffffffffffffffffff1673ffffffffffffffffffffffffffffffffffffffff1681525090505f5f5f90505b6002811015613bc1575f5f90505b6004811015613bb5575f868260048110613aac57613aab615fac565b5b602002015190508a73ffffffffffffffffffffffffffffffffffffffff168173ffffffffffffffffffffffffffffffffffffffff1603613aec5750613baa565b5f613b0f878560028110613b0357613b02615fac565b5b60200201518d84614fc5565b90505f73ffffffffffffffffffffffffffffffffffffffff168173ffffffffffffffffffffffffffffffffffffffff161480613b6157505f8173ffffffffffffffffffffffffffffffffffffffff163b145b15613b6d575050613baa565b5f613b78828461504c565b905085811115613ba657809550819b50829a50868560028110613b9e57613b9d615fac565b5b602002015199505b5050505b806001019050613a8f565b50806001019050613a81565b50505050509193909250565b5f5f5f5f5f8773ffffffffffffffffffffffffffffffffffffffff16630902f1ac6040518163ffffffff1660e01b8152600401606060405180830381865afa158015613c1b573d5f5f3e3d5ffd5b505050506040513d601f19601f82011682018060405250810190613c3f9190616055565b50915091505f8873ffffffffffffffffffffffffffffffffffffffff16630dfe16816040518163ffffffff1660e01b8152600401602060405180830381865afa158015613c8e573d5f5f3e3d5ffd5b505050506040513d601f19601f82011682018060405250810190613cb29190615ec4565b90508773ffffffffffffffffffffffffffffffffffffffff168173ffffffffffffffffffffffffffffffffffffffff1603613d4657826dffffffffffffffffffffffffffff16826dffffffffffffffffffffffffffff168273ffffffffffffffffffffffffffffffffffffffff168973ffffffffffffffffffffffffffffffffffffffff1614955095509550505050613da1565b816dffffffffffffffffffffffffffff16836dffffffffffffffffffffffffffff168273ffffffffffffffffffffffffffffffffffffffff168973ffffffffffffffffffffffffffffffffffffffff16149550955095505050505b93509350939050565b5f5f841480613db857505f83145b80613dc257505f82145b15613dcf575f9050613e13565b5f6103e585613dde91906160a5565b9050806103e885613def91906160a5565b613df99190615c61565b8382613e0591906160a5565b613e0f9190616113565b9150505b9392505050565b5f5f841480613e2857505f83145b80613e3257505f82145b80613e3d5750818410155b15613e4a575f9050613e95565b60016103e58584613e5b9190615c94565b613e6591906160a5565b6103e88686613e7491906160a5565b613e7e91906160a5565b613e889190616113565b613e929190615c61565b90505b9392505050565b5f5f8203613eac575f9050614170565b613eb7858484615199565b15613ec55760019050614170565b5f73ffffffffffffffffffffffffffffffffffffffff168473ffffffffffffffffffffffffffffffffffffffff1603613f00575f9050614170565b5f600267ffffffffffffffff811115613f1c57613f1b6158c4565b5b604051908082528060200260200182016040528015613f4a5781602001602082028036833780820191505090505b50905073c02aaa39b223fe8d0a0e5c4f27ead9083c756cc2815f81518110613f7557613f74615fac565b5b602002602001019073ffffffffffffffffffffffffffffffffffffffff16908173ffffffffffffffffffffffffffffffffffffffff16815250508581600181518110613fc457613fc3615fac565b5b602002602001019073ffffffffffffffffffffffffffffffffffffffff16908173ffffffffffffffffffffffffffffffffffffffff16815250505f8673ffffffffffffffffffffffffffffffffffffffff166370a08231306040518263ffffffff1660e01b81526004016140389190615774565b602060405180830381865afa158015614053573d5f5f3e3d5ffd5b505050506040513d601f19601f820116820180604052508101906140779190615c09565b90508573ffffffffffffffffffffffffffffffffffffffff1663b6f9de958560018530426040518663ffffffff1660e01b81526004016140ba9493929190616233565b5f604051808303818588803b1580156140d1575f5ffd5b505af1935050505080156140e3575060015b6140f1575f92505050614170565b808773ffffffffffffffffffffffffffffffffffffffff166370a08231306040518263ffffffff1660e01b815260040161412b9190615774565b602060405180830381865afa158015614146573d5f5f3e3d5ffd5b505050506040513d601f19601f8201168201806040525081019061416a9190615c09565b11925050505b949350505050565b5f5f8203614188575f9050614444565b61419486868585615270565b156141a25760019050614444565b5f73ffffffffffffffffffffffffffffffffffffffff168473ffffffffffffffffffffffffffffffffffffffff16036141dd575f9050614444565b6141e88685846154fd565b5f600267ffffffffffffffff811115614204576142036158c4565b5b6040519080825280602002602001820160405280156142325781602001602082028036833780820191505090505b50905086815f8151811061424957614248615fac565b5b602002602001019073ffffffffffffffffffffffffffffffffffffffff16908173ffffffffffffffffffffffffffffffffffffffff1681525050858160018151811061429857614297615fac565b5b602002602001019073ffffffffffffffffffffffffffffffffffffffff16908173ffffffffffffffffffffffffffffffffffffffff16815250505f8673ffffffffffffffffffffffffffffffffffffffff166370a08231306040518263ffffffff1660e01b815260040161430c9190615774565b602060405180830381865afa158015614327573d5f5f3e3d5ffd5b505050506040513d601f19601f8201168201806040525081019061434b9190615c09565b90508573ffffffffffffffffffffffffffffffffffffffff16635c11d7958560018530426040518663ffffffff1660e01b815260040161438f95949392919061627d565b5f604051808303815f87803b1580156143a6575f5ffd5b505af19250505080156143b7575060015b6143c5575f92505050614444565b808773ffffffffffffffffffffffffffffffffffffffff166370a08231306040518263ffffffff1660e01b81526004016143ff9190615774565b602060405180830381865afa15801561441a573d5f5f3e3d5ffd5b505050506040513d601f19601f8201168201806040525081019061443e9190615c09565b11925050505b95945050505050565b5f5f82148061448757505f73ffffffffffffffffffffffffffffffffffffffff168373ffffffffffffffffffffffffffffffffffffffff16145b806144bd57505f73ffffffffffffffffffffffffffffffffffffffff168473ffffffffffffffffffffffffffffffffffffffff16145b80614507575073c02aaa39b223fe8d0a0e5c4f27ead9083c756cc273ffffffffffffffffffffffffffffffffffffffff168473ffffffffffffffffffffffffffffffffffffffff16145b15614514575f90506147d3565b5f600367ffffffffffffffff8111156145305761452f6158c4565b5b60405190808252806020026020018201604052801561455e5781602001602082028036833780820191505090505b50905073c02aaa39b223fe8d0a0e5c4f27ead9083c756cc2815f8151811061458957614588615fac565b5b602002602001019073ffffffffffffffffffffffffffffffffffffffff16908173ffffffffffffffffffffffffffffffffffffffff168152505084816001815181106145d8576145d7615fac565b5b602002602001019073ffffffffffffffffffffffffffffffffffffffff16908173ffffffffffffffffffffffffffffffffffffffff1681525050858160028151811061462757614626615fac565b5b602002602001019073ffffffffffffffffffffffffffffffffffffffff16908173ffffffffffffffffffffffffffffffffffffffff16815250505f8673ffffffffffffffffffffffffffffffffffffffff166370a08231306040518263ffffffff1660e01b815260040161469b9190615774565b602060405180830381865afa1580156146b6573d5f5f3e3d5ffd5b505050506040513d601f19601f820116820180604052508101906146da9190615c09565b90508473ffffffffffffffffffffffffffffffffffffffff1663b6f9de958560018530426040518663ffffffff1660e01b815260040161471d9493929190616233565b5f604051808303818588803b158015614734575f5ffd5b505af193505050508015614746575060015b614754575f925050506147d3565b808773ffffffffffffffffffffffffffffffffffffffff166370a08231306040518263ffffffff1660e01b815260040161478e9190615774565b602060405180830381865afa1580156147a9573d5f5f3e3d5ffd5b505050506040513d601f19601f820116820180604052508101906147cd9190615c09565b11925050505b949350505050565b5f5f82036147eb575f9050614b90565b5f60405180606001604052806101f462ffffff1662ffffff168152602001610bb862ffffff1662ffffff16815260200161271062ffffff1662ffffff1681525090505f8473ffffffffffffffffffffffffffffffffffffffff166370a08231306040518263ffffffff1660e01b81526004016148679190615774565b602060405180830381865afa158015614882573d5f5f3e3d5ffd5b505050506040513d601f19601f820116820180604052508101906148a69190615c09565b90505f5f90505b6003811015614b10575f73ffffffffffffffffffffffffffffffffffffffff166148ef88888685600381106148e5576148e4615fac565b5b6020020151615518565b73ffffffffffffffffffffffffffffffffffffffff160315614b055761492a8773e592427a0aece92de3edee1f18e0157c05861564876154fd565b5f6040518061010001604052808973ffffffffffffffffffffffffffffffffffffffff1681526020018873ffffffffffffffffffffffffffffffffffffffff16815260200185846003811061498257614981615fac565b5b602002015162ffffff1681526020013073ffffffffffffffffffffffffffffffffffffffff168152602001428152602001878152602001600181526020015f73ffffffffffffffffffffffffffffffffffffffff16815250905073e592427a0aece92de3edee1f18e0157c0586156473ffffffffffffffffffffffffffffffffffffffff1663414bf389826040518263ffffffff1660e01b8152600401614a2991906163b0565b6020604051808303815f875af1925050508015614a6457506040513d601f19601f82011682018060405250810190614a619190615c09565b60015b15614b03575f81118015614aee5750838873ffffffffffffffffffffffffffffffffffffffff166370a08231306040518263ffffffff1660e01b8152600401614aad9190615774565b602060405180830381865afa158015614ac8573d5f5f3e3d5ffd5b505050506040513d601f19601f82011682018060405250810190614aec9190615c09565b115b15614b0157600195505050505050614b90565b505b505b8060010190506148ad565b50808573ffffffffffffffffffffffffffffffffffffffff166370a08231306040518263ffffffff1660e01b8152600401614b4b9190615774565b602060405180830381865afa158015614b66573d5f5f3e3d5ffd5b505050506040513d601f19601f82011682018060405250810190614b8a9190615c09565b11925050505b9392505050565b5f5f8203614ba7575f9050614fbd565b5f60405180606001604052806101f462ffffff1662ffffff168152602001610bb862ffffff1662ffffff16815260200161271062ffffff1662ffffff1681525090505f8473ffffffffffffffffffffffffffffffffffffffff166370a08231306040518263ffffffff1660e01b8152600401614c239190615774565b602060405180830381865afa158015614c3e573d5f5f3e3d5ffd5b505050506040513d601f19601f82011682018060405250810190614c629190615c09565b90505f5f90505b6003811015614f3d575f614c958989868560038110614c8b57614c8a615fac565b5b6020020151615518565b90505f73ffffffffffffffffffffffffffffffffffffffff168173ffffffffffffffffffffffffffffffffffffffff1603614cd05750614f32565b5f5f90505b6003811015614f2f575f614d018a8a888560038110614cf757614cf6615fac565b5b6020020151615518565b90505f73ffffffffffffffffffffffffffffffffffffffff168173ffffffffffffffffffffffffffffffffffffffff1603614d3c5750614f24565b614d5b8b73e592427a0aece92de3edee1f18e0157c058615648a6154fd565b5f8b878660038110614d7057614d6f615fac565b5b60200201518c898660038110614d8957614d88615fac565b5b60200201518d604051602001614da3959493929190616443565b60405160208183030381529060405290505f6040518060a001604052808381526020013073ffffffffffffffffffffffffffffffffffffffff1681526020014281526020018b81526020016001815250905073e592427a0aece92de3edee1f18e0157c0586156473ffffffffffffffffffffffffffffffffffffffff1663c04b8d59826040518263ffffffff1660e01b8152600401614e42919061655c565b6020604051808303815f875af1925050508015614e7d57506040513d601f19601f82011682018060405250810190614e7a9190615c09565b60015b15614f20575f81118015614f075750878c73ffffffffffffffffffffffffffffffffffffffff166370a08231306040518263ffffffff1660e01b8152600401614ec69190615774565b602060405180830381865afa158015614ee1573d5f5f3e3d5ffd5b505050506040513d601f19601f82011682018060405250810190614f059190615c09565b115b15614f1e5760019950505050505050505050614fbd565b505b5050505b806001019050614cd5565b50505b806001019050614c69565b50808573ffffffffffffffffffffffffffffffffffffffff166370a08231306040518263ffffffff1660e01b8152600401614f789190615774565b602060405180830381865afa158015614f93573d5f5f3e3d5ffd5b505050506040513d601f19601f82011682018060405250810190614fb79190615c09565b11925050505b949350505050565b5f8373ffffffffffffffffffffffffffffffffffffffff1663e6a4390584846040518363ffffffff1660e01b815260040161500192919061657c565b602060405180830381865afa92505050801561503b57506040513d601f19601f820116820180604052508101906150389190615ec4565b60015b1561504557809150505b9392505050565b5f8273ffffffffffffffffffffffffffffffffffffffff16630902f1ac6040518163ffffffff1660e01b8152600401606060405180830381865afa9250505080156150b557506040513d601f19601f820116820180604052508101906150b29190616055565b60015b6150c1575f9050615193565b5f8673ffffffffffffffffffffffffffffffffffffffff16630dfe16816040518163ffffffff1660e01b8152600401602060405180830381865afa15801561510b573d5f5f3e3d5ffd5b505050506040513d601f19601f8201168201806040525081019061512f9190615ec4565b90508573ffffffffffffffffffffffffffffffffffffffff168173ffffffffffffffffffffffffffffffffffffffff161461517a57826dffffffffffffffffffffffffffff1661518c565b836dffffffffffffffffffffffffffff165b9450505050505b92915050565b5f5f73ffffffffffffffffffffffffffffffffffffffff168373ffffffffffffffffffffffffffffffffffffffff16036151d5575f9050615269565b73c02aaa39b223fe8d0a0e5c4f27ead9083c756cc273ffffffffffffffffffffffffffffffffffffffff1663d0e30db0836040518263ffffffff1660e01b81526004015f604051808303818588803b15801561522f575f5ffd5b505af1158015615241573d5f5f3e3d5ffd5b505050505061526673c02aaa39b223fe8d0a0e5c4f27ead9083c756cc2858585615270565b90505b9392505050565b5f5f73ffffffffffffffffffffffffffffffffffffffff168373ffffffffffffffffffffffffffffffffffffffff1614806152aa57505f82145b156152b7575f90506154f5565b5f8473ffffffffffffffffffffffffffffffffffffffff166370a08231306040518263ffffffff1660e01b81526004016152f19190615774565b602060405180830381865afa15801561530c573d5f5f3e3d5ffd5b505050506040513d601f19601f820116820180604052508101906153309190615c09565b905061533d8685856133d2565b5f5f5f61534b878a8a613bcd565b9250925092505f61535d878585613daa565b90505f8103615373575f955050505050506154f5565b81156153f8578773ffffffffffffffffffffffffffffffffffffffff1663022c0d9f825f3060405180602001604052805f8152506040518563ffffffff1660e01b81526004016153c69493929190616624565b5f604051808303815f87803b1580156153dd575f5ffd5b505af11580156153ef573d5f5f3e3d5ffd5b50505050615473565b8773ffffffffffffffffffffffffffffffffffffffff1663022c0d9f5f833060405180602001604052805f8152506040518563ffffffff1660e01b8152600401615445949392919061666e565b5f604051808303815f87803b15801561545c575f5ffd5b505af115801561546e573d5f5f3e3d5ffd5b505050505b848973ffffffffffffffffffffffffffffffffffffffff166370a08231306040518263ffffffff1660e01b81526004016154ad9190615774565b602060405180830381865afa1580156154c8573d5f5f3e3d5ffd5b505050506040513d601f19601f820116820180604052508101906154ec9190615c09565b11955050505050505b949350505050565b61550883835f6155b5565b6155138383836155b5565b505050565b5f731f98431c8ad98523631ae4a59f267346ea31f98473ffffffffffffffffffffffffffffffffffffffff16631698ee828585856040518463ffffffff1660e01b815260040161556a939291906166c7565b602060405180830381865afa9250505080156155a457506040513d601f19601f820116820180604052508101906155a19190615ec4565b60015b156155ae57809150505b9392505050565b5f5f8473ffffffffffffffffffffffffffffffffffffffff1663095ea7b360e01b85856040516024016155e9929190615bb4565b604051602081830303815290604052907bffffffffffffffffffffffffffffffffffffffffffffffffffffffff19166020820180517bffffffffffffffffffffffffffffffffffffffffffffffffffffffff83818316178352505050506040516156539190615eae565b5f604051808303815f865af19150503d805f811461568c576040519150601f19603f3d011682016040523d82523d5f602084013e615691565b606091505b50915091508180156156be57505f815114806156bd5750808060200190518101906156bc9190615f19565b5b5b6156fd576040517f08c379a00000000000000000000000000000000000000000000000000000000081526004016156f490616746565b60405180910390fd5b5050505050565b5f819050919050565b61571681615704565b82525050565b5f60208201905061572f5f83018461570d565b92915050565b5f73ffffffffffffffffffffffffffffffffffffffff82169050919050565b5f61575e82615735565b9050919050565b61576e81615754565b82525050565b5f6020820190506157875f830184615765565b92915050565b5f8115159050919050565b6157a18161578d565b82525050565b5f6020820190506157ba5f830184615798565b92915050565b5f81519050919050565b5f82825260208201905092915050565b8281835e5f83830152505050565b5f601f19601f8301169050919050565b5f615802826157c0565b61580c81856157ca565b935061581c8185602086016157da565b615825816157e8565b840191505092915050565b5f6020820190508181035f83015261584881846157f8565b905092915050565b5f819050919050565b5f61587361586e61586984615735565b615850565b615735565b9050919050565b5f61588482615859565b9050919050565b5f6158958261587a565b9050919050565b6158a58161588b565b82525050565b5f6020820190506158be5f83018461589c565b92915050565b7f4e487b71000000000000000000000000000000000000000000000000000000005f52604160045260245ffd5b7f4e487b71000000000000000000000000000000000000000000000000000000005f52602260045260245ffd5b5f600282049050600182168061593557607f821691505b602082108103615948576159476158f1565b5b50919050565b5f819050815f5260205f209050919050565b5f6020601f8301049050919050565b5f82821b905092915050565b5f600883026159aa7fffffffffffffffffffffffffffffffffffffffffffffffffffffffffffffffff8261596f565b6159b4868361596f565b95508019841693508086168417925050509392505050565b5f6159e66159e16159dc84615704565b615850565b615704565b9050919050565b5f819050919050565b6159ff836159cc565b615a13615a0b826159ed565b84845461597b565b825550505050565b5f5f905090565b615a2a615a1b565b615a358184846159f6565b505050565b5b81811015615a5857615a4d5f82615a22565b600181019050615a3b565b5050565b601f821115615a9d57615a6e8161594e565b615a7784615960565b81016020851015615a86578190505b615a9a615a9285615960565b830182615a3a565b50505b505050565b5f82821c905092915050565b5f615abd5f1984600802615aa2565b1980831691505092915050565b5f615ad58383615aae565b9150826002028217905092915050565b615aee826157c0565b67ffffffffffffffff811115615b0757615b066158c4565b5b615b11825461591e565b615b1c828285615a5c565b5f60209050601f831160018114615b4d575f8415615b3b578287015190505b615b458582615aca565b865550615bac565b601f198416615b5b8661594e565b5f5b82811015615b8257848901518255600182019150602085019450602081019050615b5d565b86831015615b9f5784890151615b9b601f891682615aae565b8355505b6001600288020188555050505b505050505050565b5f604082019050615bc75f830185615765565b615bd4602083018461570d565b9392505050565b5f5ffd5b615be881615704565b8114615bf2575f5ffd5b50565b5f81519050615c0381615bdf565b92915050565b5f60208284031215615c1e57615c1d615bdb565b5b5f615c2b84828501615bf5565b91505092915050565b7f4e487b71000000000000000000000000000000000000000000000000000000005f52601160045260245ffd5b5f615c6b82615704565b9150615c7683615704565b9250828201905080821115615c8e57615c8d615c34565b5b92915050565b5f615c9e82615704565b9150615ca983615704565b9250828203905081811115615cc157615cc0615c34565b5b92915050565b5f604082019050615cda5f83018561570d565b615ce76020830184615765565b9392505050565b5f819050919050565b5f615d11615d0c615d0784615cee565b615850565b615704565b9050919050565b615d2181615cf7565b82525050565b5f606082019050615d3a5f83018661570d565b615d476020830185615d18565b615d546040830184615798565b949350505050565b615d6581615754565b8114615d6f575f5ffd5b50565b5f81519050615d8081615d5c565b92915050565b5f5f5f60608486031215615d9d57615d9c615bdb565b5b5f615daa86828701615d72565b9350506020615dbb86828701615bf5565b9250506040615dcc86828701615bf5565b9150509250925092565b5f606082019050615de95f83018661570d565b615df66020830185615765565b615e03604083018461570d565b949350505050565b5f60c082019050615e1e5f83018961570d565b615e2b6020830188615765565b615e386040830187615765565b615e45606083018661570d565b615e52608083018561570d565b615e5f60a0830184615798565b979650505050505050565b5f81519050919050565b5f81905092915050565b5f615e8882615e6a565b615e928185615e74565b9350615ea28185602086016157da565b80840191505092915050565b5f615eb98284615e7e565b915081905092915050565b5f60208284031215615ed957615ed8615bdb565b5b5f615ee684828501615d72565b91505092915050565b615ef88161578d565b8114615f02575f5ffd5b50565b5f81519050615f1381615eef565b92915050565b5f60208284031215615f2e57615f2d615bdb565b5b5f615f3b84828501615f05565b91505092915050565b7f5452414e534645525f4641494c454400000000000000000000000000000000005f82015250565b5f615f78600f836157ca565b9150615f8382615f44565b602082019050919050565b5f6020820190508181035f830152615fa581615f6c565b9050919050565b7f4e487b71000000000000000000000000000000000000000000000000000000005f52603260045260245ffd5b5f6dffffffffffffffffffffffffffff82169050919050565b615ffb81615fd9565b8114616005575f5ffd5b50565b5f8151905061601681615ff2565b92915050565b5f63ffffffff82169050919050565b6160348161601c565b811461603e575f5ffd5b50565b5f8151905061604f8161602b565b92915050565b5f5f5f6060848603121561606c5761606b615bdb565b5b5f61607986828701616008565b935050602061608a86828701616008565b925050604061609b86828701616041565b9150509250925092565b5f6160af82615704565b91506160ba83615704565b92508282026160c881615704565b915082820484148315176160df576160de615c34565b5b5092915050565b7f4e487b71000000000000000000000000000000000000000000000000000000005f52601260045260245ffd5b5f61611d82615704565b915061612883615704565b925082616138576161376160e6565b5b828204905092915050565b5f819050919050565b5f61616661616161615c84616143565b615850565b615704565b9050919050565b6161768161614c565b82525050565b5f81519050919050565b5f82825260208201905092915050565b5f819050602082019050919050565b6161ae81615754565b82525050565b5f6161bf83836161a5565b60208301905092915050565b5f602082019050919050565b5f6161e18261617c565b6161eb8185616186565b93506161f683616196565b805f5b8381101561622657815161620d88826161b4565b9750616218836161cb565b9250506001810190506161f9565b5085935050505092915050565b5f6080820190506162465f83018761616d565b818103602083015261625881866161d7565b90506162676040830185615765565b616274606083018461570d565b95945050505050565b5f60a0820190506162905f83018861570d565b61629d602083018761616d565b81810360408301526162af81866161d7565b90506162be6060830185615765565b6162cb608083018461570d565b9695505050505050565b5f62ffffff82169050919050565b6162ec816162d5565b82525050565b6162fb81615704565b82525050565b61630a81615735565b82525050565b61010082015f8201516163255f8501826161a5565b50602082015161633860208501826161a5565b50604082015161634b60408501826162e3565b50606082015161635e60608501826161a5565b50608082015161637160808501826162f2565b5060a082015161638460a08501826162f2565b5060c082015161639760c08501826162f2565b5060e08201516163aa60e0850182616301565b50505050565b5f610100820190506163c45f830184616310565b92915050565b5f8160601b9050919050565b5f6163e0826163ca565b9050919050565b5f6163f1826163d6565b9050919050565b61640961640482615754565b6163e7565b82525050565b5f8160e81b9050919050565b5f6164258261640f565b9050919050565b61643d616438826162d5565b61641b565b82525050565b5f61644e82886163f8565b60148201915061645e828761642c565b60038201915061646e82866163f8565b60148201915061647e828561642c565b60038201915061648e82846163f8565b6014820191508190509695505050505050565b5f82825260208201905092915050565b5f6164bb82615e6a565b6164c581856164a1565b93506164d58185602086016157da565b6164de816157e8565b840191505092915050565b5f60a083015f8301518482035f86015261650382826164b1565b915050602083015161651860208601826161a5565b50604083015161652b60408601826162f2565b50606083015161653e60608601826162f2565b50608083015161655160808601826162f2565b508091505092915050565b5f6020820190508181035f83015261657481846164e9565b905092915050565b5f60408201905061658f5f830185615765565b61659c6020830184615765565b9392505050565b5f819050919050565b5f6165c66165c16165bc846165a3565b615850565b615704565b9050919050565b6165d6816165ac565b82525050565b5f82825260208201905092915050565b5f6165f682615e6a565b61660081856165dc565b93506166108185602086016157da565b616619816157e8565b840191505092915050565b5f6080820190506166375f83018761570d565b61664460208301866165cd565b6166516040830185615765565b818103606083015261666381846165ec565b905095945050505050565b5f6080820190506166815f8301876165cd565b61668e602083018661570d565b61669b6040830185615765565b81810360608301526166ad81846165ec565b905095945050505050565b6166c1816162d5565b82525050565b5f6060820190506166da5f830186615765565b6166e76020830185615765565b6166f460408301846166b8565b949350505050565b7f415050524f56455f4641494c45440000000000000000000000000000000000005f82015250565b5f616730600e836157ca565b915061673b826166fc565b602082019050919050565b5f6020820190508181035f83015261675d81616724565b905091905056fe636f6e7472616374207374616b657220686f6c64732075546f6b656e207374616b65202d3e206c6174657220626c6f636b20616363727565732070656e64696e6720706f696e7473202d3e206465706f736974287069642c3029206f72207769746864726177287069642c3029206d696e74732070656e64696e67204552433131353520706f696e7473202d3e206f6e455243313135355265636569766564207265656e74657273206265666f726520726577617264446562742072656672657368202d3e2073616d652070656e64696e6720616d6f756e74206973206d696e7465642072657065617465646c79202d3e2061747461636b65722065786974732077697468206d616e792074696d657320746865206c65676974696d61746520506f696e744661726d20706f696e742062616c616e63657461726765742d6e6f742d6465706c6f7965642d6f6e2d63757272656e742d636861696e7265656e7472792d6469642d6e6f742d6475706c69636174652d70656e64696e672d6d696e74a2646970667358221220b84996203ef248b7907a5e94184277c5f926a8f65e74cb16f413d4d9d063e23764736f6c634300081e003360c060405234801561000f575f5ffd5b50604051611fd4380380611fd4833981810160405281019061003191906100fe565b8173ffffffffffffffffffffffffffffffffffffffff1660808173ffffffffffffffffffffffffffffffffffffffff16815250508073ffffffffffffffffffffffffffffffffffffffff1660a08173ffffffffffffffffffffffffffffffffffffffff1681525050505061013c565b5f5ffd5b5f73ffffffffffffffffffffffffffffffffffffffff82169050919050565b5f6100cd826100a4565b9050919050565b6100dd816100c3565b81146100e7575f5ffd5b50565b5f815190506100f8816100d4565b92915050565b5f5f60408385031215610114576101136100a0565b5b5f610121858286016100ea565b9250506020610132858286016100ea565b9150509250929050565b60805160a051611e236101b15f395f818161056001528181610758015281816108470152610e6c01525f81816104bb01528181610624015281816106b201528181610b9a01528181610bc101528181610c5301528181610d3f01528181610dcd01528181610efe0152610f250152611e235ff3fe6080604052600436106100c5575f3560e01c8063808783841161007e578063bc197c8111610058578063bc197c8114610244578063e3be69dc14610280578063f23a6e611461029c578063ff201bc6146102d8576100cc565b806380878384146101c857806386b79640146101f05780638f20f7ed1461021a576100cc565b806310d1e85c146100d057806313caa01a146100f8578063352bb4ba1461012257806353b381691461014c5780635a459ed414610176578063701d8159146101b2576100cc565b366100cc57005b5f5ffd5b3480156100db575f5ffd5b506100f660048036038101906100f1919061135f565b610300565b005b348015610103575f5ffd5b5061010c610499565b60405161011991906113fd565b60405180910390f35b34801561012d575f5ffd5b506101366104ab565b6040516101439190611425565b60405180910390f35b348015610157575f5ffd5b506101606104b1565b60405161016d9190611425565b60405180910390f35b348015610181575f5ffd5b5061019c6004803603810190610197919061143e565b6104b7565b6040516101a99190611425565b60405180910390f35b3480156101bd575f5ffd5b506101c661055e565b005b3480156101d3575f5ffd5b506101ee60048036038101906101e99190611493565b610756565b005b3480156101fb575f5ffd5b50610204610816565b60405161021191906113fd565b60405180910390f35b348015610225575f5ffd5b5061022e610829565b60405161023b9190611425565b60405180910390f35b34801561024f575f5ffd5b5061026a60048036038101906102659190611538565b61082e565b6040516102779190611649565b60405180910390f35b61029a60048036038101906102959190611662565b610845565b005b3480156102a7575f5ffd5b506102c260048036038101906102bd91906116eb565b610c50565b6040516102cf9190611649565b60405180910390f35b3480156102e3575f5ffd5b506102fe60048036038101906102f99190611781565b610e6a565b005b600360029054906101000a900473ffffffffffffffffffffffffffffffffffffffff1673ffffffffffffffffffffffffffffffffffffffff163373ffffffffffffffffffffffffffffffffffffffff1614610390576040517f08c379a00000000000000000000000000000000000000000000000000000000081526004016103879061182b565b60405180910390fd5b3073ffffffffffffffffffffffffffffffffffffffff168573ffffffffffffffffffffffffffffffffffffffff16146103fe576040517f08c379a00000000000000000000000000000000000000000000000000000000081526004016103f590611893565b60405180910390fd5b73c02aaa39b223fe8d0a0e5c4f27ead9083c756cc273ffffffffffffffffffffffffffffffffffffffff1663d0e30db06004546040518263ffffffff1660e01b81526004015f604051808303818588803b15801561045a575f5ffd5b505af115801561046c573d5f5f3e3d5ffd5b505050505061049273c02aaa39b223fe8d0a0e5c4f27ead9083c756cc233600454610fb0565b5050505050565b60035f9054906101000a900460ff1681565b60015481565b60025481565b5f5f7f000000000000000000000000000000000000000000000000000000000000000073ffffffffffffffffffffffffffffffffffffffff166393f1a40b84306040518363ffffffff1660e01b81526004016105149291906118c0565b6040805180830381865afa15801561052e573d5f5f3e3d5ffd5b505050506040513d601f19601f8201168201806040525081019061055291906118fb565b50905080915050919050565b7f000000000000000000000000000000000000000000000000000000000000000073ffffffffffffffffffffffffffffffffffffffff163373ffffffffffffffffffffffffffffffffffffffff16146105ec576040517f08c379a00000000000000000000000000000000000000000000000000000000081526004016105e390611983565b60405180910390fd5b6001600360016101000a81548160ff0219169083151502179055505f60028190555060035f9054906101000a900460ff16156106b0577f000000000000000000000000000000000000000000000000000000000000000073ffffffffffffffffffffffffffffffffffffffff1663441a3e705f545f6040518363ffffffff1660e01b815260040161067e9291906119e3565b5f604051808303815f87803b158015610695575f5ffd5b505af11580156106a7573d5f5f3e3d5ffd5b5050505061073a565b7f000000000000000000000000000000000000000000000000000000000000000073ffffffffffffffffffffffffffffffffffffffff1663e2bbb1585f545f6040518363ffffffff1660e01b815260040161070c9291906119e3565b5f604051808303815f87803b158015610723575f5ffd5b505af1158015610735573d5f5f3e3d5ffd5b505050505b5f600360016101000a81548160ff021916908315150217905550565b7f000000000000000000000000000000000000000000000000000000000000000073ffffffffffffffffffffffffffffffffffffffff163373ffffffffffffffffffffffffffffffffffffffff16146107e4576040517f08c379a00000000000000000000000000000000000000000000000000000000081526004016107db90611983565b60405180910390fd5b825f81905550816001819055508060035f6101000a81548160ff0219169083151502179055505f600281905550505050565b600360019054906101000a900460ff1681565b5f5481565b5f63bc197c8160e01b905098975050505050505050565b7f000000000000000000000000000000000000000000000000000000000000000073ffffffffffffffffffffffffffffffffffffffff163373ffffffffffffffffffffffffffffffffffffffff16146108d3576040517f08c379a00000000000000000000000000000000000000000000000000000000081526004016108ca90611983565b60405180910390fd5b5f73ffffffffffffffffffffffffffffffffffffffff168473ffffffffffffffffffffffffffffffffffffffff1603610941576040517f08c379a000000000000000000000000000000000000000000000000000000000815260040161093890611a54565b60405180910390fd5b5f8311801561094f57505f82115b61098e576040517f08c379a000000000000000000000000000000000000000000000000000000000815260040161098590611abc565b60405180910390fd5b83600360026101000a81548173ffffffffffffffffffffffffffffffffffffffff021916908373ffffffffffffffffffffffffffffffffffffffff160217905550816004819055508373ffffffffffffffffffffffffffffffffffffffff1663022c0d9f826109fd575f6109ff565b845b83610a0a5785610a0c565b5f5b306040518060400160405280600e81526020017f464c415348535741505f534545440000000000000000000000000000000000008152506040518563ffffffff1660e01b8152600401610a629493929190611b4a565b5f604051808303815f87803b158015610a79575f5ffd5b505af1158015610a8b573d5f5f3e3d5ffd5b505050505f600360026101000a81548173ffffffffffffffffffffffffffffffffffffffff021916908373ffffffffffffffffffffffffffffffffffffffff1602179055505f6004819055505f8573ffffffffffffffffffffffffffffffffffffffff166370a08231306040518263ffffffff1660e01b8152600401610b119190611b94565b602060405180830381865afa158015610b2c573d5f5f3e3d5ffd5b505050506040513d601f19601f82011682018060405250810190610b509190611bad565b90505f8111610b94576040517f08c379a0000000000000000000000000000000000000000000000000000000008152600401610b8b90611c22565b60405180910390fd5b610bbf867f0000000000000000000000000000000000000000000000000000000000000000836110ff565b7f000000000000000000000000000000000000000000000000000000000000000073ffffffffffffffffffffffffffffffffffffffff1663e2bbb15888836040518363ffffffff1660e01b8152600401610c1a929190611c40565b5f604051808303815f87803b158015610c31575f5ffd5b505af1158015610c43573d5f5f3e3d5ffd5b5050505050505050505050565b5f7f000000000000000000000000000000000000000000000000000000000000000073ffffffffffffffffffffffffffffffffffffffff163373ffffffffffffffffffffffffffffffffffffffff1614610cdf576040517f08c379a0000000000000000000000000000000000000000000000000000000008152600401610cd690611893565b60405180910390fd5b600360019054906101000a900460ff168015610cfb57505f5485145b8015610d0657505f84115b8015610d155750600154600254105b15610e565760025f81546001019190508190555060035f9054906101000a900460ff1615610dcb577f000000000000000000000000000000000000000000000000000000000000000073ffffffffffffffffffffffffffffffffffffffff1663441a3e705f545f6040518363ffffffff1660e01b8152600401610d999291906119e3565b5f604051808303815f87803b158015610db0575f5ffd5b505af1158015610dc2573d5f5f3e3d5ffd5b50505050610e55565b7f000000000000000000000000000000000000000000000000000000000000000073ffffffffffffffffffffffffffffffffffffffff1663e2bbb1585f545f6040518363ffffffff1660e01b8152600401610e279291906119e3565b5f604051808303815f87803b158015610e3e575f5ffd5b505af1158015610e50573d5f5f3e3d5ffd5b505050505b5b63f23a6e6160e01b90509695505050505050565b7f000000000000000000000000000000000000000000000000000000000000000073ffffffffffffffffffffffffffffffffffffffff163373ffffffffffffffffffffffffffffffffffffffff1614610ef8576040517f08c379a0000000000000000000000000000000000000000000000000000000008152600401610eef90611983565b60405180910390fd5b610f23827f0000000000000000000000000000000000000000000000000000000000000000836110ff565b7f000000000000000000000000000000000000000000000000000000000000000073ffffffffffffffffffffffffffffffffffffffff1663e2bbb15884836040518363ffffffff1660e01b8152600401610f7e929190611c40565b5f604051808303815f87803b158015610f95575f5ffd5b505af1158015610fa7573d5f5f3e3d5ffd5b50505050505050565b5f5f8473ffffffffffffffffffffffffffffffffffffffff1663a9059cbb60e01b8585604051602401610fe4929190611c67565b604051602081830303815290604052907bffffffffffffffffffffffffffffffffffffffffffffffffffffffff19166020820180517bffffffffffffffffffffffffffffffffffffffffffffffffffffffff838183161783525050505060405161104e9190611cc8565b5f604051808303815f865af19150503d805f8114611087576040519150601f19603f3d011682016040523d82523d5f602084013e61108c565b606091505b50915091508180156110b957505f815114806110b85750808060200190518101906110b79190611cf2565b5b5b6110f8576040517f08c379a00000000000000000000000000000000000000000000000000000000081526004016110ef90611d67565b60405180910390fd5b5050505050565b61110a83835f61111a565b61111583838361111a565b505050565b5f5f8473ffffffffffffffffffffffffffffffffffffffff1663095ea7b360e01b858560405160240161114e929190611c67565b604051602081830303815290604052907bffffffffffffffffffffffffffffffffffffffffffffffffffffffff19166020820180517bffffffffffffffffffffffffffffffffffffffffffffffffffffffff83818316178352505050506040516111b89190611cc8565b5f604051808303815f865af19150503d805f81146111f1576040519150601f19603f3d011682016040523d82523d5f602084013e6111f6565b606091505b509150915081801561122357505f815114806112225750808060200190518101906112219190611cf2565b5b5b611262576040517f08c379a000000000000000000000000000000000000000000000000000000000815260040161125990611dcf565b60405180910390fd5b5050505050565b5f5ffd5b5f5ffd5b5f73ffffffffffffffffffffffffffffffffffffffff82169050919050565b5f61129a82611271565b9050919050565b6112aa81611290565b81146112b4575f5ffd5b50565b5f813590506112c5816112a1565b92915050565b5f819050919050565b6112dd816112cb565b81146112e7575f5ffd5b50565b5f813590506112f8816112d4565b92915050565b5f5ffd5b5f5ffd5b5f5ffd5b5f5f83601f84011261131f5761131e6112fe565b5b8235905067ffffffffffffffff81111561133c5761133b611302565b5b60208301915083600182028301111561135857611357611306565b5b9250929050565b5f5f5f5f5f6080868803121561137857611377611269565b5b5f611385888289016112b7565b9550506020611396888289016112ea565b94505060406113a7888289016112ea565b935050606086013567ffffffffffffffff8111156113c8576113c761126d565b5b6113d48882890161130a565b92509250509295509295909350565b5f8115159050919050565b6113f7816113e3565b82525050565b5f6020820190506114105f8301846113ee565b92915050565b61141f816112cb565b82525050565b5f6020820190506114385f830184611416565b92915050565b5f6020828403121561145357611452611269565b5b5f611460848285016112ea565b91505092915050565b611472816113e3565b811461147c575f5ffd5b50565b5f8135905061148d81611469565b92915050565b5f5f5f606084860312156114aa576114a9611269565b5b5f6114b7868287016112ea565b93505060206114c8868287016112ea565b92505060406114d98682870161147f565b9150509250925092565b5f5f83601f8401126114f8576114f76112fe565b5b8235905067ffffffffffffffff81111561151557611514611302565b5b60208301915083602082028301111561153157611530611306565b5b9250929050565b5f5f5f5f5f5f5f5f60a0898b03121561155457611553611269565b5b5f6115618b828c016112b7565b98505060206115728b828c016112b7565b975050604089013567ffffffffffffffff8111156115935761159261126d565b5b61159f8b828c016114e3565b9650965050606089013567ffffffffffffffff8111156115c2576115c161126d565b5b6115ce8b828c016114e3565b9450945050608089013567ffffffffffffffff8111156115f1576115f061126d565b5b6115fd8b828c0161130a565b92509250509295985092959890939650565b5f7fffffffff0000000000000000000000000000000000000000000000000000000082169050919050565b6116438161160f565b82525050565b5f60208201905061165c5f83018461163a565b92915050565b5f5f5f5f5f5f60c0878903121561167c5761167b611269565b5b5f61168989828a016112ea565b965050602061169a89828a016112b7565b95505060406116ab89828a016112b7565b94505060606116bc89828a016112ea565b93505060806116cd89828a016112ea565b92505060a06116de89828a0161147f565b9150509295509295509295565b5f5f5f5f5f5f60a0878903121561170557611704611269565b5b5f61171289828a016112b7565b965050602061172389828a016112b7565b955050604061173489828a016112ea565b945050606061174589828a016112ea565b935050608087013567ffffffffffffffff8111156117665761176561126d565b5b61177289828a0161130a565b92509250509295509295509295565b5f5f5f6060848603121561179857611797611269565b5b5f6117a5868287016112ea565b93505060206117b6868287016112b7565b92505060406117c7868287016112ea565b9150509250925092565b5f82825260208201905092915050565b7f4241445f504149520000000000000000000000000000000000000000000000005f82015250565b5f6118156008836117d1565b9150611820826117e1565b602082019050919050565b5f6020820190508181035f83015261184281611809565b9050919050565b7f4241445f53454e444552000000000000000000000000000000000000000000005f82015250565b5f61187d600a836117d1565b915061188882611849565b602082019050919050565b5f6020820190508181035f8301526118aa81611871565b9050919050565b6118ba81611290565b82525050565b5f6040820190506118d35f830185611416565b6118e060208301846118b1565b9392505050565b5f815190506118f5816112d4565b92915050565b5f5f6040838503121561191157611910611269565b5b5f61191e858286016118e7565b925050602061192f858286016118e7565b9150509250929050565b7f4f4e4c595f434f4e54524f4c4c455200000000000000000000000000000000005f82015250565b5f61196d600f836117d1565b915061197882611939565b602082019050919050565b5f6020820190508181035f83015261199a81611961565b9050919050565b5f819050919050565b5f819050919050565b5f6119cd6119c86119c3846119a1565b6119aa565b6112cb565b9050919050565b6119dd816119b3565b82525050565b5f6040820190506119f65f830185611416565b611a0360208301846119d4565b9392505050565b7f504149525f4d495353494e4700000000000000000000000000000000000000005f82015250565b5f611a3e600c836117d1565b9150611a4982611a0a565b602082019050919050565b5f6020820190508181035f830152611a6b81611a32565b9050919050565b7f4241445f464c41534853574150000000000000000000000000000000000000005f82015250565b5f611aa6600d836117d1565b9150611ab182611a72565b602082019050919050565b5f6020820190508181035f830152611ad381611a9a565b9050919050565b5f81519050919050565b5f82825260208201905092915050565b8281835e5f83830152505050565b5f601f19601f8301169050919050565b5f611b1c82611ada565b611b268185611ae4565b9350611b36818560208601611af4565b611b3f81611b02565b840191505092915050565b5f608082019050611b5d5f830187611416565b611b6a6020830186611416565b611b7760408301856118b1565b8181036060830152611b898184611b12565b905095945050505050565b5f602082019050611ba75f8301846118b1565b92915050565b5f60208284031215611bc257611bc1611269565b5b5f611bcf848285016118e7565b91505092915050565b7f4e4f5f534545445f4143515549524544000000000000000000000000000000005f82015250565b5f611c0c6010836117d1565b9150611c1782611bd8565b602082019050919050565b5f6020820190508181035f830152611c3981611c00565b9050919050565b5f604082019050611c535f830185611416565b611c606020830184611416565b9392505050565b5f604082019050611c7a5f8301856118b1565b611c876020830184611416565b9392505050565b5f81905092915050565b5f611ca282611ada565b611cac8185611c8e565b9350611cbc818560208601611af4565b80840191505092915050565b5f611cd38284611c98565b915081905092915050565b5f81519050611cec81611469565b92915050565b5f60208284031215611d0757611d06611269565b5b5f611d1484828501611cde565b91505092915050565b7f5452414e534645525f4641494c454400000000000000000000000000000000005f82015250565b5f611d51600f836117d1565b9150611d5c82611d1d565b602082019050919050565b5f6020820190508181035f830152611d7e81611d45565b9050919050565b7f415050524f56455f4641494c45440000000000000000000000000000000000005f82015250565b5f611db9600e836117d1565b9150611dc482611d85565b602082019050919050565b5f6020820190508181035f830152611de681611dad565b905091905056fea26469706673582212204e7c716b555959e560bd8b690ff39fef629cce362d5d9557b6f1b7ae98027a3e64736f6c634300081e0033","linkReferences":{}},"methodIdentifiers":{"DAI()":"e0bab4c4","SUSHISWAP_FACTORY()":"495c0f9b","SUSHISWAP_ROUTER()":"277754ed","TARGET()":"cc1f2afa","UNISWAP_V2_FACTORY()":"99d8fae3","UNISWAP_V2_ROUTER()":"a82ed9ec","UNISWAP_V3_FACTORY()":"f73e5aab","UNISWAP_V3_ROUTER()":"41c64a2f","USDC()":"89a30271","USDT()":"c54e44eb","WETH()":"ad5c4648","deploymentBlock()":"82100e3f","duplicatedPointProfit()":"26e4dd9e","executeOnOpportunity()":"3c2448ed","executed()":"31a38c89","exploitPathUsed()":"d78c4281","exploitTriggered()":"c6e38194","failureReason()":"4f9522a4","finalPointBalance()":"e12e8671","finalReentryCount()":"f184c55e","hypothesisRefuted()":"495f92f1","hypothesisValidated()":"463defd1","legitimateMint()":"c8767ceb","pendingBeforeExploit()":"077db605","profitAmount()":"5ff972cc","profitToken()":"49343624","seedBlock()":"ecc02d5c","seededAmount()":"37ba5094","seededAtDeployment()":"f150354b","seededPid()":"f9b09259","seededToken()":"c63e71c6","staker()":"5ebaf1db"},"id":0}