{"abi":[{"type":"constructor","inputs":[{"name":"market_","type":"address","internalType":"address"},{"name":"underlying_","type":"address","internalType":"address"}],"stateMutability":"nonpayable"},{"type":"function","name":"mintAll","inputs":[],"outputs":[{"name":"errorCode","type":"uint256","internalType":"uint256"},{"name":"mintedCTokens","type":"uint256","internalType":"uint256"}],"stateMutability":"nonpayable"},{"type":"function","name":"recoverUnderlying","inputs":[{"name":"to","type":"address","internalType":"address"}],"outputs":[],"stateMutability":"nonpayable"}],"bytecode":{"object":"0x60c03461008a57601f61077938819003918201601f19168301916001600160401b0383118484101761008e57808492604094855283398101031261008a57610052602061004b836100a2565b92016100a2565b6001600160a01b0390911660805260a0526040516106c290816100b7823960805181610235015260a051818181606b01526101e50152f35b5f80fd5b634e487b7160e01b5f52604160045260245ffd5b51906001600160a01b038216820361008a5756fe6080806040526004361015610012575f80fd5b5f3560e01c908163595882b3146101c35750639a23258a14610032575f80fd5b346101ac5760203660031901126101ac576004356001600160a01b03811681036101ac576040516370a0823160e01b81523060048201527f00000000000000000000000000000000000000000000000000000000000000006020826024816001600160a01b0385165afa9182156101b8575f92610180575b50816100b257005b5f809161014f9482610129610137604051976100cf60408a6105b8565b60158952741d9a58dd1a5b4b5c9958dbdd995c8b59985a5b1959605a1b6020808b019190915260405163a9059cbb60e01b9181019182526001600160a01b0390961660248701526044860191909152939182906064820190565b03601f1981018352826105b8565b51925af16101436105ee565b81610151575b50610645565b005b8051801592508215610166575b50505f610149565b610179925060208091830101910161062d565b5f8061015e565b9091506020813d6020116101b0575b8161019c602093836105b8565b810103126101ac5751905f6100aa565b5f80fd5b3d915061018f565b6040513d5f823e3d90fd5b346101ac575f3660031901126101ac576370a0823160e01b81523060048201527f0000000000000000000000000000000000000000000000000000000000000000906020816024816001600160a01b0386165afa9081156101b8575f91610586575b50801561054a5760018060a01b037f00000000000000000000000000000000000000000000000000000000000000001661035c6040936102db855161026a87826105b8565b601b81527f76696374696d2d617070726f76652d72657365742d6661696c6564000000000060208201525f808851602081019063095ea7b360e01b8252886024820152826044820152604481526102c26064826105b8565b519082875af16102d06105ee565b8161051b5750610645565b5f808651926102ea88856105b8565b60158452741d9a58dd1a5b4b585c1c1c9bdd994b59985a5b1959605a1b602080860191909152885163095ea7b360e01b9181019182526001600160a01b03881660248201526044810189905283906103458160648101610129565b51925af16103516105ee565b816104ec5750610645565b82516370a0823160e01b815230600482015290602082602481845afa918215610441575f926104b8575b5083519263140e25ad60e31b845260048401526020836024815f855af1928315610441575f93610484575b508261044b579060206024928551938480926370a0823160e01b82523060048301525afa918215610441575f9261040d575b5081039081116103f95782519182526020820152f35b634e487b7160e01b5f52601160045260245ffd5b9091506020813d602011610439575b81610429602093836105b8565b810103126101ac575190846103e3565b3d915061041c565b84513d5f823e3d90fd5b835162461bcd60e51b81526020600482015260126024820152711d9a58dd1a5b4b5b5a5b9d0b59985a5b195960721b6044820152606490fd5b9092506020813d6020116104b0575b816104a0602093836105b8565b810103126101ac575191846103b1565b3d9150610493565b9091506020813d6020116104e4575b816104d4602093836105b8565b810103126101ac57519084610386565b3d91506104c7565b8051801592508215610501575b505086610149565b610514925060208091830101910161062d565b86806104f9565b8051801592508215610530575b505088610149565b610543925060208091830101910161062d565b8880610528565b60405162461bcd60e51b815260206004820152601460248201527376696374696d2d6e6f2d756e6465726c79696e6760601b6044820152606490fd5b90506020813d6020116105b0575b816105a1602093836105b8565b810103126101ac575182610225565b3d9150610594565b90601f8019910116810190811067ffffffffffffffff8211176105da57604052565b634e487b7160e01b5f52604160045260245ffd5b3d15610628573d9067ffffffffffffffff82116105da576040519161061d601f8201601f1916602001846105b8565b82523d5f602084013e565b606090565b908160209103126101ac575180151581036101ac5790565b1561064d5750565b604460209160405192839162461bcd60e51b83528160048401528051918291826024860152018484015e5f828201840152601f01601f19168101030190fdfea2646970667358221220f8f9c0491b3e9231a9e28f3a59d24cc8ae6c91aeb8abdff1c92b0c908d4fb79364736f6c634300081e0033","linkReferences":{}},"methodIdentifiers":{"mintAll()":"595882b3","recoverUnderlying(address)":"9a23258a"},"id":0}