{"abi":[{"type":"constructor","inputs":[],"stateMutability":"nonpayable"},{"type":"function","name":"activeMaliciousReferral","inputs":[],"outputs":[{"name":"","type":"address","internalType":"address"}],"stateMutability":"view"},{"type":"function","name":"brickModeValidated","inputs":[],"outputs":[{"name":"","type":"bool","internalType":"bool"}],"stateMutability":"view"},{"type":"function","name":"claimsAttempted","inputs":[],"outputs":[{"name":"","type":"uint256","internalType":"uint256"}],"stateMutability":"view"},{"type":"function","name":"claimsSucceeded","inputs":[],"outputs":[{"name":"","type":"uint256","internalType":"uint256"}],"stateMutability":"view"},{"type":"function","name":"coveredPathsMask","inputs":[],"outputs":[{"name":"","type":"uint256","internalType":"uint256"}],"stateMutability":"view"},{"type":"function","name":"executeOnOpportunity","inputs":[],"outputs":[],"stateMutability":"nonpayable"},{"type":"function","name":"executed","inputs":[],"outputs":[{"name":"","type":"bool","internalType":"bool"}],"stateMutability":"view"},{"type":"function","name":"hypothesisValidated","inputs":[],"outputs":[{"name":"","type":"bool","internalType":"bool"}],"stateMutability":"view"},{"type":"function","name":"infeasibleReason","inputs":[],"outputs":[{"name":"","type":"uint256","internalType":"uint256"}],"stateMutability":"view"},{"type":"function","name":"initialMaliciousReferral","inputs":[],"outputs":[{"name":"","type":"address","internalType":"address"}],"stateMutability":"view"},{"type":"function","name":"lastVictim","inputs":[],"outputs":[{"name":"","type":"address","internalType":"address"}],"stateMutability":"view"},{"type":"function","name":"liveReferralAfter","inputs":[],"outputs":[{"name":"","type":"address","internalType":"address"}],"stateMutability":"view"},{"type":"function","name":"liveReferralBefore","inputs":[],"outputs":[{"name":"","type":"address","internalType":"address"}],"stateMutability":"view"},{"type":"function","name":"ownerControlValidated","inputs":[],"outputs":[{"name":"","type":"bool","internalType":"bool"}],"stateMutability":"view"},{"type":"function","name":"profitAmount","inputs":[],"outputs":[{"name":"","type":"uint256","internalType":"uint256"}],"stateMutability":"view"},{"type":"function","name":"profitToken","inputs":[],"outputs":[{"name":"","type":"address","internalType":"address"}],"stateMutability":"view"},{"type":"function","name":"referralSeized","inputs":[],"outputs":[{"name":"","type":"bool","internalType":"bool"}],"stateMutability":"view"},{"type":"function","name":"replaceRewardReferral","inputs":[{"name":"nextReferral","type":"address","internalType":"address"}],"outputs":[],"stateMutability":"nonpayable"},{"type":"function","name":"rewardToken","inputs":[],"outputs":[{"name":"","type":"address","internalType":"address"}],"stateMutability":"view"},{"type":"function","name":"setBrickMode","inputs":[{"name":"enabled","type":"bool","internalType":"bool"}],"outputs":[],"stateMutability":"nonpayable"},{"type":"function","name":"stakingToken","inputs":[],"outputs":[{"name":"","type":"address","internalType":"address"}],"stateMutability":"view"},{"type":"function","name":"targetPool","inputs":[],"outputs":[{"name":"","type":"address","internalType":"address"}],"stateMutability":"view"},{"type":"function","name":"targetRewards","inputs":[],"outputs":[{"name":"","type":"address","internalType":"address"}],"stateMutability":"view"}],"bytecode":{"object":"0x6080604052348015600e575f5ffd5b50335f5f6101000a81548173ffffffffffffffffffffffffffffffffffffffff021916908373ffffffffffffffffffffffffffffffffffffffff1602179055506140468061005b5f395ff3fe608060405234801561000f575f5ffd5b506004361061014b575f3560e01c806372f702f3116100c1578063cb24db7d1161007a578063cb24db7d14610337578063cbc68e5014610355578063e60e241714610371578063ef252c7a1461038f578063f4ea0c82146103ad578063f7c618c1146103cb5761014b565b806372f702f3146102835780637fc54829146102a15780638444df3f146102bf578063a2cdfe15146102dd578063a6652157146102fb578063c80fcefd146103195761014b565b8063463defd111610113578063463defd1146101d157806347811245146101ef578063493436241461020b5780635d8a2d6d146102295780635ff972cc146102475780636ec844b5146102655761014b565b80632660bbf41461014f57806331a38c891461016d57806338795b8d1461018b5780633c2448ed146101a95780633ee06a05146101b3575b5f5ffd5b6101576103e9565b604051610164919061294b565b60405180910390f35b6101756103fc565b604051610182919061294b565b60405180910390f35b61019361040e565b6040516101a091906129a3565b60405180910390f35b6101b1610433565b005b6101bb611547565b6040516101c891906129a3565b60405180910390f35b6101d961156c565b6040516101e6919061294b565b60405180910390f35b610209600480360381019061020491906129f3565b61157f565b005b6102136116ec565b60405161022091906129a3565b60405180910390f35b610231611714565b60405161023e91906129a3565b60405180910390f35b61024f611739565b60405161025c9190612a36565b60405180910390f35b61026d611742565b60405161027a919061294b565b60405180910390f35b61028b611755565b60405161029891906129a3565b60405180910390f35b6102a961177a565b6040516102b69190612a36565b60405180910390f35b6102c7611780565b6040516102d491906129a3565b60405180910390f35b6102e56117a5565b6040516102f2919061294b565b60405180910390f35b6103036117b6565b6040516103109190612a36565b60405180910390f35b6103216117bc565b60405161032e91906129a3565b60405180910390f35b61033f6117e1565b60405161034c91906129a3565b60405180910390f35b61036f600480360381019061036a9190612a79565b611806565b005b6103796119ad565b60405161038691906129a3565b60405180910390f35b6103976119d2565b6040516103a49190612a36565b60405180910390f35b6103b56119d8565b6040516103c29190612a36565b60405180910390f35b6103d36119de565b6040516103e091906129a3565b60405180910390f35b600460029054906101000a900460ff1681565b60045f9054906101000a900460ff1681565b600d5f9054906101000a900473ffffffffffffffffffffffffffffffffffffffff1681565b60045f9054906101000a900460ff16156104545761044f611a03565b611545565b600160045f6101000a81548160ff0219169083151502179055507304c80bb477890f3021f03b068238836ee20aa0b873ffffffffffffffffffffffffffffffffffffffff166394cc699e6040518163ffffffff1660e01b8152600401602060405180830381865afa1580156104cb573d5f5f3e3d5ffd5b505050506040513d601f19601f820116820180604052508101906104ef9190612ab8565b60095f6101000a81548173ffffffffffffffffffffffffffffffffffffffff021916908373ffffffffffffffffffffffffffffffffffffffff1602179055505f73ffffffffffffffffffffffffffffffffffffffff1660095f9054906101000a900473ffffffffffffffffffffffffffffffffffffffff1673ffffffffffffffffffffffffffffffffffffffff160361058f57605a600781905550611545565b60095f9054906101000a900473ffffffffffffffffffffffffffffffffffffffff1673ffffffffffffffffffffffffffffffffffffffff16638bc6beb26040518163ffffffff1660e01b8152600401602060405180830381865afa1580156105f9573d5f5f3e3d5ffd5b505050506040513d601f19601f8201168201806040525081019061061d9190612ab8565b600a5f6101000a81548173ffffffffffffffffffffffffffffffffffffffff021916908373ffffffffffffffffffffffffffffffffffffffff16021790555060095f9054906101000a900473ffffffffffffffffffffffffffffffffffffffff1673ffffffffffffffffffffffffffffffffffffffff166372f702f36040518163ffffffff1660e01b8152600401602060405180830381865afa1580156106c6573d5f5f3e3d5ffd5b505050506040513d601f19601f820116820180604052508101906106ea9190612ab8565b600b5f6101000a81548173ffffffffffffffffffffffffffffffffffffffff021916908373ffffffffffffffffffffffffffffffffffffffff1602179055505f73ffffffffffffffffffffffffffffffffffffffff16600a5f9054906101000a900473ffffffffffffffffffffffffffffffffffffffff1673ffffffffffffffffffffffffffffffffffffffff160361078a57605b600781905550611545565b5f600a5f9054906101000a900473ffffffffffffffffffffffffffffffffffffffff1690508073ffffffffffffffffffffffffffffffffffffffff1663d1af0c7d6040518163ffffffff1660e01b8152600401602060405180830381865afa1580156107f8573d5f5f3e3d5ffd5b505050506040513d601f19601f8201168201806040525081019061081c9190612ab8565b600c5f6101000a81548173ffffffffffffffffffffffffffffffffffffffff021916908373ffffffffffffffffffffffffffffffffffffffff160217905550600c5f9054906101000a900473ffffffffffffffffffffffffffffffffffffffff1660015f6101000a81548173ffffffffffffffffffffffffffffffffffffffff021916908373ffffffffffffffffffffffffffffffffffffffff160217905550600c5f9054906101000a900473ffffffffffffffffffffffffffffffffffffffff1673ffffffffffffffffffffffffffffffffffffffff166370a08231306040518263ffffffff1660e01b815260040161091691906129a3565b602060405180830381865afa158015610931573d5f5f3e3d5ffd5b505050506040513d601f19601f820116820180604052508101906109559190612b0d565b6002819055508073ffffffffffffffffffffffffffffffffffffffff16631441a5a96040518163ffffffff1660e01b8152600401602060405180830381865afa1580156109a4573d5f5f3e3d5ffd5b505050506040513d601f19601f820116820180604052508101906109c89190612ab8565b600d5f6101000a81548173ffffffffffffffffffffffffffffffffffffffff021916908373ffffffffffffffffffffffffffffffffffffffff1602179055505f604051610a1490612924565b604051809103905ff080158015610a2d573d5f5f3e3d5ffd5b50905080600f5f6101000a81548173ffffffffffffffffffffffffffffffffffffffff021916908373ffffffffffffffffffffffffffffffffffffffff1602179055508060105f6101000a81548173ffffffffffffffffffffffffffffffffffffffff021916908373ffffffffffffffffffffffffffffffffffffffff1602179055505f73ffffffffffffffffffffffffffffffffffffffff16600d5f9054906101000a900473ffffffffffffffffffffffffffffffffffffffff1673ffffffffffffffffffffffffffffffffffffffff1603610cb6578173ffffffffffffffffffffffffffffffffffffffff1663773f400e826040518263ffffffff1660e01b8152600401610b3d91906129a3565b5f604051808303815f87803b158015610b54575f5ffd5b505af1158015610b66573d5f5f3e3d5ffd5b505050508173ffffffffffffffffffffffffffffffffffffffff16631441a5a96040518163ffffffff1660e01b8152600401602060405180830381865afa158015610bb3573d5f5f3e3d5ffd5b505050506040513d601f19601f82011682018060405250810190610bd79190612ab8565b600e5f6101000a81548173ffffffffffffffffffffffffffffffffffffffff021916908373ffffffffffffffffffffffffffffffffffffffff1602179055508073ffffffffffffffffffffffffffffffffffffffff16600e5f9054906101000a900473ffffffffffffffffffffffffffffffffffffffff1673ffffffffffffffffffffffffffffffffffffffff1603610cb1576001600460026101000a81548160ff0219169083151502179055506001600460016101000a81548160ff021916908315150217905550600160085f82825417925050819055505b610d20565b600d5f9054906101000a900473ffffffffffffffffffffffffffffffffffffffff16600e5f6101000a81548173ffffffffffffffffffffffffffffffffffffffff021916908373ffffffffffffffffffffffffffffffffffffffff16021790555060016007819055505b600460029054906101000a900460ff1615611046573073ffffffffffffffffffffffffffffffffffffffff168173ffffffffffffffffffffffffffffffffffffffff16638da5cb5b6040518163ffffffff1660e01b8152600401602060405180830381865afa158015610d95573d5f5f3e3d5ffd5b505050506040513d601f19601f82011682018060405250810190610db99190612ab8565b73ffffffffffffffffffffffffffffffffffffffff1603610fb0575f604051610de190612924565b604051809103905ff080158015610dfa573d5f5f3e3d5ffd5b5090508273ffffffffffffffffffffffffffffffffffffffff1663773f400e826040518263ffffffff1660e01b8152600401610e3691906129a3565b5f604051808303815f87803b158015610e4d575f5ffd5b505af1158015610e5f573d5f5f3e3d5ffd5b505050508073ffffffffffffffffffffffffffffffffffffffff168373ffffffffffffffffffffffffffffffffffffffff16631441a5a96040518163ffffffff1660e01b8152600401602060405180830381865afa158015610ec3573d5f5f3e3d5ffd5b505050506040513d601f19601f82011682018060405250810190610ee79190612ab8565b73ffffffffffffffffffffffffffffffffffffffff1603610fae578060105f6101000a81548173ffffffffffffffffffffffffffffffffffffffff021916908373ffffffffffffffffffffffffffffffffffffffff16021790555080600e5f6101000a81548173ffffffffffffffffffffffffffffffffffffffff021916908373ffffffffffffffffffffffffffffffffffffffff1602179055506001600460036101000a81548160ff021916908315150217905550600260085f82825417925050819055505b505b600460039054906101000a900460ff16611045578060105f6101000a81548173ffffffffffffffffffffffffffffffffffffffff021916908373ffffffffffffffffffffffffffffffffffffffff16021790555080600e5f6101000a81548173ffffffffffffffffffffffffffffffffffffffff021916908373ffffffffffffffffffffffffffffffffffffffff1602179055505b5b5f73ffffffffffffffffffffffffffffffffffffffff1660105f9054906101000a900473ffffffffffffffffffffffffffffffffffffffff1673ffffffffffffffffffffffffffffffffffffffff161461153a575f60105f9054906101000a900473ffffffffffffffffffffffffffffffffffffffff1690505f6110c984611b2e565b90505f73ffffffffffffffffffffffffffffffffffffffff168173ffffffffffffffffffffffffffffffffffffffff16146114ee578060115f6101000a81548173ffffffffffffffffffffffffffffffffffffffff021916908373ffffffffffffffffffffffffffffffffffffffff1602179055508173ffffffffffffffffffffffffffffffffffffffff16634781124560016040518263ffffffff1660e01b8152600401611178919061294b565b5f604051808303815f87803b15801561118f575f5ffd5b505af11580156111a1573d5f5f3e3d5ffd5b50505050600160055f8282546111b79190612b65565b925050819055505f8473ffffffffffffffffffffffffffffffffffffffff16634953c78260e01b8360105f9054906101000a900473ffffffffffffffffffffffffffffffffffffffff16604051602401611212929190612b98565b604051602081830303815290604052907bffffffffffffffffffffffffffffffffffffffffffffffffffffffff19166020820180517bffffffffffffffffffffffffffffffffffffffffffffffffffffffff838183161783525050505060405161127c9190612c11565b5f604051808303815f865af19150503d805f81146112b5576040519150601f19603f3d011682016040523d82523d5f602084013e6112ba565b606091505b50509050806112de5760016004806101000a81548160ff0219169083151502179055505b8273ffffffffffffffffffffffffffffffffffffffff1663478112455f6040518263ffffffff1660e01b8152600401611317919061294b565b5f604051808303815f87803b15801561132e575f5ffd5b505af1158015611340573d5f5f3e3d5ffd5b50505050600160055f8282546113569190612b65565b925050819055508473ffffffffffffffffffffffffffffffffffffffff16634953c7828360105f9054906101000a900473ffffffffffffffffffffffffffffffffffffffff166040518363ffffffff1660e01b81526004016113b9929190612b98565b5f604051808303815f87803b1580156113d0575f5ffd5b505af19250505080156113e1575060015b1561149d578273ffffffffffffffffffffffffffffffffffffffff1663258836fe600c5f9054906101000a900473ffffffffffffffffffffffffffffffffffffffff16306040518363ffffffff1660e01b8152600401611442929190612b98565b6020604051808303815f875af115801561145e573d5f5f3e3d5ffd5b505050506040513d601f19601f820116820180604052508101906114829190612b0d565b50600160065f8282546114959190612b65565b925050819055505b60048054906101000a900460ff16806114b757505f600654115b156114e8576001600460016101000a81548160ff021916908315150217905550600460085f82825417925050819055505b50611537565b600460039054906101000a900460ff16806115155750600460029054906101000a900460ff165b15611536576001600460016101000a81548160ff0219169083151502179055505b5b50505b611542611a03565b50505b565b600f5f9054906101000a900473ffffffffffffffffffffffffffffffffffffffff1681565b600460019054906101000a900460ff1681565b5f5f9054906101000a900473ffffffffffffffffffffffffffffffffffffffff1673ffffffffffffffffffffffffffffffffffffffff163373ffffffffffffffffffffffffffffffffffffffff161461160d576040517f08c379a000000000000000000000000000000000000000000000000000000000815260040161160490612c81565b60405180910390fd5b5f73ffffffffffffffffffffffffffffffffffffffff1660105f9054906101000a900473ffffffffffffffffffffffffffffffffffffffff1673ffffffffffffffffffffffffffffffffffffffff16146116e95760105f9054906101000a900473ffffffffffffffffffffffffffffffffffffffff1673ffffffffffffffffffffffffffffffffffffffff166347811245826040518263ffffffff1660e01b81526004016116bb919061294b565b5f604051808303815f87803b1580156116d2575f5ffd5b505af11580156116e4573d5f5f3e3d5ffd5b505050505b50565b5f60015f9054906101000a900473ffffffffffffffffffffffffffffffffffffffff16905090565b60115f9054906101000a900473ffffffffffffffffffffffffffffffffffffffff1681565b5f600354905090565b600460039054906101000a900460ff1681565b600b5f9054906101000a900473ffffffffffffffffffffffffffffffffffffffff1681565b60065481565b600a5f9054906101000a900473ffffffffffffffffffffffffffffffffffffffff1681565b60048054906101000a900460ff1681565b60075481565b60105f9054906101000a900473ffffffffffffffffffffffffffffffffffffffff1681565b600e5f9054906101000a900473ffffffffffffffffffffffffffffffffffffffff1681565b5f5f9054906101000a900473ffffffffffffffffffffffffffffffffffffffff1673ffffffffffffffffffffffffffffffffffffffff163373ffffffffffffffffffffffffffffffffffffffff1614611894576040517f08c379a000000000000000000000000000000000000000000000000000000000815260040161188b90612c81565b60405180910390fd5b5f73ffffffffffffffffffffffffffffffffffffffff1660105f9054906101000a900473ffffffffffffffffffffffffffffffffffffffff1673ffffffffffffffffffffffffffffffffffffffff1603611923576040517f08c379a000000000000000000000000000000000000000000000000000000000815260040161191a90612ce9565b60405180910390fd5b600a5f9054906101000a900473ffffffffffffffffffffffffffffffffffffffff1673ffffffffffffffffffffffffffffffffffffffff1663773f400e826040518263ffffffff1660e01b815260040161197d91906129a3565b5f604051808303815f87803b158015611994575f5ffd5b505af11580156119a6573d5f5f3e3d5ffd5b5050505050565b60095f9054906101000a900473ffffffffffffffffffffffffffffffffffffffff1681565b60055481565b60085481565b600c5f9054906101000a900473ffffffffffffffffffffffffffffffffffffffff1681565b5f73ffffffffffffffffffffffffffffffffffffffff1660015f9054906101000a900473ffffffffffffffffffffffffffffffffffffffff1673ffffffffffffffffffffffffffffffffffffffff1603611a63575f600381905550611b2c565b5f60015f9054906101000a900473ffffffffffffffffffffffffffffffffffffffff1673ffffffffffffffffffffffffffffffffffffffff166370a08231306040518263ffffffff1660e01b8152600401611abe91906129a3565b602060405180830381865afa158015611ad9573d5f5f3e3d5ffd5b505050506040513d601f19601f82011682018060405250810190611afd9190612b0d565b9050600254811115611b225760025481611b179190612d07565b600381905550611b2a565b5f6003819055505b505b565b5f5f611b4e837304c80bb477890f3021f03b068238836ee20aa0b8611fe2565b90505f73ffffffffffffffffffffffffffffffffffffffff168173ffffffffffffffffffffffffffffffffffffffff1614611b8c5780915050611fdd565b611bb78360095f9054906101000a900473ffffffffffffffffffffffffffffffffffffffff16611fe2565b90505f73ffffffffffffffffffffffffffffffffffffffff168173ffffffffffffffffffffffffffffffffffffffff1614611bf55780915050611fdd565b611c2083600a5f9054906101000a900473ffffffffffffffffffffffffffffffffffffffff16611fe2565b90505f73ffffffffffffffffffffffffffffffffffffffff168173ffffffffffffffffffffffffffffffffffffffff1614611c5e5780915050611fdd565b611c88835f5f9054906101000a900473ffffffffffffffffffffffffffffffffffffffff16611fe2565b90505f73ffffffffffffffffffffffffffffffffffffffff168173ffffffffffffffffffffffffffffffffffffffff1614611cc65780915050611fdd565b611cf183600c5f9054906101000a900473ffffffffffffffffffffffffffffffffffffffff16611fe2565b90505f73ffffffffffffffffffffffffffffffffffffffff168173ffffffffffffffffffffffffffffffffffffffff1614611d2f5780915050611fdd565b611d5a83600b5f9054906101000a900473ffffffffffffffffffffffffffffffffffffffff16611fe2565b90505f73ffffffffffffffffffffffffffffffffffffffff168173ffffffffffffffffffffffffffffffffffffffff1614611d985780915050611fdd565b611e2f8360095f9054906101000a900473ffffffffffffffffffffffffffffffffffffffff1673ffffffffffffffffffffffffffffffffffffffff166390eb39116040518163ffffffff1660e01b8152600401602060405180830381865afa158015611e06573d5f5f3e3d5ffd5b505050506040513d601f19601f82011682018060405250810190611e2a9190612ab8565b611fe2565b90505f73ffffffffffffffffffffffffffffffffffffffff168173ffffffffffffffffffffffffffffffffffffffff1614611e6d5780915050611fdd565b611f048360095f9054906101000a900473ffffffffffffffffffffffffffffffffffffffff1673ffffffffffffffffffffffffffffffffffffffff1663da0e1dab6040518163ffffffff1660e01b8152600401602060405180830381865afa158015611edb573d5f5f3e3d5ffd5b505050506040513d601f19601f82011682018060405250810190611eff9190612ab8565b611fe2565b90505f73ffffffffffffffffffffffffffffffffffffffff168173ffffffffffffffffffffffffffffffffffffffff1614611f425780915050611fdd565b611f6d83600d5f9054906101000a900473ffffffffffffffffffffffffffffffffffffffff1661228a565b90505f73ffffffffffffffffffffffffffffffffffffffff168173ffffffffffffffffffffffffffffffffffffffff1614611fab5780915050611fdd565b611fd68360105f9054906101000a900473ffffffffffffffffffffffffffffffffffffffff1661228a565b9050809150505b919050565b5f5f73ffffffffffffffffffffffffffffffffffffffff168273ffffffffffffffffffffffffffffffffffffffff16148061204857503073ffffffffffffffffffffffffffffffffffffffff168273ffffffffffffffffffffffffffffffffffffffff16145b8061209f5750600a5f9054906101000a900473ffffffffffffffffffffffffffffffffffffffff1673ffffffffffffffffffffffffffffffffffffffff168273ffffffffffffffffffffffffffffffffffffffff16145b806120f0575060125f8373ffffffffffffffffffffffffffffffffffffffff1673ffffffffffffffffffffffffffffffffffffffff1681526020019081526020015f205f9054906101000a900460ff165b156120fd575f9050612284565b600160125f8473ffffffffffffffffffffffffffffffffffffffff1673ffffffffffffffffffffffffffffffffffffffff1681526020019081526020015f205f6101000a81548160ff0219169083151502179055505f8373ffffffffffffffffffffffffffffffffffffffff1663ce7c2ac2846040518263ffffffff1660e01b815260040161218c91906129a3565b602060405180830381865afa9250505080156121c657506040513d601f19601f820116820180604052508101906121c39190612b0d565b60015b6121d3575f915050612284565b809150505f81036121e7575f915050612284565b5f8473ffffffffffffffffffffffffffffffffffffffff166389d96917856040518263ffffffff1660e01b815260040161222191906129a3565b602060405180830381865afa92505050801561225b57506040513d601f19601f820116820180604052508101906122589190612b0d565b60015b612269575f92505050612284565b809150505f810361227e575f92505050612284565b83925050505b92915050565b5f5f73ffffffffffffffffffffffffffffffffffffffff168273ffffffffffffffffffffffffffffffffffffffff16036122c6575f905061264b565b5f8290505f8173ffffffffffffffffffffffffffffffffffffffff16638da5cb5b6040518163ffffffff1660e01b8152600401602060405180830381865afa92505050801561233357506040513d601f19601f820116820180604052508101906123309190612ab8565b60015b15612384576123428682611fe2565b91505f73ffffffffffffffffffffffffffffffffffffffff168273ffffffffffffffffffffffffffffffffffffffff16146123825781935050505061264b565b505b8173ffffffffffffffffffffffffffffffffffffffff1663fc9c8d396040518163ffffffff1660e01b8152600401602060405180830381865afa9250505080156123ec57506040513d601f19601f820116820180604052508101906123e99190612ab8565b60015b1561243d576123fb8682611fe2565b91505f73ffffffffffffffffffffffffffffffffffffffff168273ffffffffffffffffffffffffffffffffffffffff161461243b5781935050505061264b565b505b612448858584612651565b90505f73ffffffffffffffffffffffffffffffffffffffff168173ffffffffffffffffffffffffffffffffffffffff161461248757809250505061264b565b8173ffffffffffffffffffffffffffffffffffffffff16635a1d5e9b856040518263ffffffff1660e01b81526004016124c091906129a3565b602060405180830381865afa9250505080156124fa57506040513d601f19601f820116820180604052508101906124f79190612b0d565b60015b15612645575f6008821161250e5781612511565b60085b90505f5f90505b81811015612641578473ffffffffffffffffffffffffffffffffffffffff166390b182f488836040518363ffffffff1660e01b815260040161255b929190612d3a565b602060405180830381865afa92505050801561259557506040513d601f19601f820116820180604052508101906125929190612ab8565b60015b15612641576125a48982611fe2565b94505f73ffffffffffffffffffffffffffffffffffffffff168573ffffffffffffffffffffffffffffffffffffffff16146125e75784965050505050505061264b565b6125f2898288612651565b94505f73ffffffffffffffffffffffffffffffffffffffff168573ffffffffffffffffffffffffffffffffffffffff16146126355784965050505050505061264b565b50806001019050612518565b5050505b5f925050505b92915050565b5f5f8273ffffffffffffffffffffffffffffffffffffffff1663bcafddd3855f6040518363ffffffff1660e01b815260040161268e929190612da3565b602060405180830381865afa9250505080156126c857506040513d601f19601f820116820180604052508101906126c59190612ab8565b60015b15612718576126d78682611fe2565b91505f73ffffffffffffffffffffffffffffffffffffffff168273ffffffffffffffffffffffffffffffffffffffff161461271657819250505061291d565b505b8273ffffffffffffffffffffffffffffffffffffffff1663bcafddd38560016040518363ffffffff1660e01b8152600401612754929190612e03565b602060405180830381865afa92505050801561278e57506040513d601f19601f8201168201806040525081019061278b9190612ab8565b60015b156127de5761279d8682611fe2565b91505f73ffffffffffffffffffffffffffffffffffffffff168273ffffffffffffffffffffffffffffffffffffffff16146127dc57819250505061291d565b505b8273ffffffffffffffffffffffffffffffffffffffff16637ea62141856040518263ffffffff1660e01b815260040161281791906129a3565b6040805180830381865afa92505050801561285057506040513d601f19601f8201168201806040525081019061284d9190612f68565b60015b156129185761287686825f6002811061286c5761286b612f93565b5b6020020151611fe2565b91505f73ffffffffffffffffffffffffffffffffffffffff168273ffffffffffffffffffffffffffffffffffffffff16146128b557819250505061291d565b6128d786826001600281106128cd576128cc612f93565b5b6020020151611fe2565b91505f73ffffffffffffffffffffffffffffffffffffffff168273ffffffffffffffffffffffffffffffffffffffff161461291657819250505061291d565b505b5f9150505b9392505050565b61105080612fc183390190565b5f8115159050919050565b61294581612931565b82525050565b5f60208201905061295e5f83018461293c565b92915050565b5f73ffffffffffffffffffffffffffffffffffffffff82169050919050565b5f61298d82612964565b9050919050565b61299d81612983565b82525050565b5f6020820190506129b65f830184612994565b92915050565b5f604051905090565b5f5ffd5b6129d281612931565b81146129dc575f5ffd5b50565b5f813590506129ed816129c9565b92915050565b5f60208284031215612a0857612a076129c5565b5b5f612a15848285016129df565b91505092915050565b5f819050919050565b612a3081612a1e565b82525050565b5f602082019050612a495f830184612a27565b92915050565b612a5881612983565b8114612a62575f5ffd5b50565b5f81359050612a7381612a4f565b92915050565b5f60208284031215612a8e57612a8d6129c5565b5b5f612a9b84828501612a65565b91505092915050565b5f81519050612ab281612a4f565b92915050565b5f60208284031215612acd57612acc6129c5565b5b5f612ada84828501612aa4565b91505092915050565b612aec81612a1e565b8114612af6575f5ffd5b50565b5f81519050612b0781612ae3565b92915050565b5f60208284031215612b2257612b216129c5565b5b5f612b2f84828501612af9565b91505092915050565b7f4e487b71000000000000000000000000000000000000000000000000000000005f52601160045260245ffd5b5f612b6f82612a1e565b9150612b7a83612a1e565b9250828201905080821115612b9257612b91612b38565b5b92915050565b5f604082019050612bab5f830185612994565b612bb86020830184612994565b9392505050565b5f81519050919050565b5f81905092915050565b8281835e5f83830152505050565b5f612beb82612bbf565b612bf58185612bc9565b9350612c05818560208601612bd3565b80840191505092915050565b5f612c1c8284612be1565b915081905092915050565b5f82825260208201905092915050565b7f6e6f7420636f6e74726f6c6c65720000000000000000000000000000000000005f82015250565b5f612c6b600e83612c27565b9150612c7682612c37565b602082019050919050565b5f6020820190508181035f830152612c9881612c5f565b9050919050565b7f6e6f206d616c6963696f757320726566657272616c00000000000000000000005f82015250565b5f612cd3601583612c27565b9150612cde82612c9f565b602082019050919050565b5f6020820190508181035f830152612d0081612cc7565b9050919050565b5f612d1182612a1e565b9150612d1c83612a1e565b9250828203905081811115612d3457612d33612b38565b5b92915050565b5f604082019050612d4d5f830185612994565b612d5a6020830184612a27565b9392505050565b5f819050919050565b5f819050919050565b5f612d8d612d88612d8384612d61565b612d6a565b612a1e565b9050919050565b612d9d81612d73565b82525050565b5f604082019050612db65f830185612994565b612dc36020830184612d94565b9392505050565b5f819050919050565b5f612ded612de8612de384612dca565b612d6a565b612a1e565b9050919050565b612dfd81612dd3565b82525050565b5f604082019050612e165f830185612994565b612e236020830184612df4565b9392505050565b5f5ffd5b5f601f19601f8301169050919050565b7f4e487b71000000000000000000000000000000000000000000000000000000005f52604160045260245ffd5b612e7482612e2e565b810181811067ffffffffffffffff82111715612e9357612e92612e3e565b5b80604052505050565b5f612ea56129bc565b9050612eb18282612e6b565b919050565b5f67ffffffffffffffff821115612ed057612ecf612e3e565b5b602082029050919050565b5f5ffd5b5f612ef1612eec84612eb6565b612e9c565b90508060208402830185811115612f0b57612f0a612edb565b5b835b81811015612f345780612f208882612aa4565b845260208401935050602081019050612f0d565b5050509392505050565b5f82601f830112612f5257612f51612e2a565b5b6002612f5f848285612edf565b91505092915050565b5f60408284031215612f7d57612f7c6129c5565b5b5f612f8a84828501612f3e565b91505092915050565b7f4e487b71000000000000000000000000000000000000000000000000000000005f52603260045260245ffdfe6080604052348015600e575f5ffd5b50335f5f6101000a81548173ffffffffffffffffffffffffffffffffffffffff021916908373ffffffffffffffffffffffffffffffffffffffff1602179055503360015f6101000a81548173ffffffffffffffffffffffffffffffffffffffff021916908373ffffffffffffffffffffffffffffffffffffffff160217905550610fb58061009b5f395ff3fe608060405234801561000f575f5ffd5b5060043610610109575f3560e01c80637543e3f0116100a0578063bcafddd31161006f578063bcafddd3146102a1578063c67ea3ee146102d1578063e8a293ee146102ef578063f77c47911461031f578063fc9c8d391461033d57610109565b80637543e3f0146102075780637ea62141146102235780638da5cb5b1461025357806390b182f41461027157610109565b806347811245116100dc5780634781124514610193578063484dad8e146101af5780635a1d5e9b146101cd578063715018a6146101fd57610109565b80630470031f1461010d57806320b7b8df14610129578063258836fe146101475780632a30e4c214610177575b5f5ffd5b61012760048036038101906101229190610a8d565b61035b565b005b6101316103b3565b60405161013e9190610ac7565b60405180910390f35b610161600480360381019061015c9190610ae0565b6103d8565b60405161016e9190610b36565b60405180910390f35b610191600480360381019061018c9190610a8d565b6105aa565b005b6101ad60048036038101906101a89190610b84565b61067b565b005b6101b7610726565b6040516101c49190610bbe565b60405180910390f35b6101e760048036038101906101e29190610a8d565b610739565b6040516101f49190610b36565b60405180910390f35b610205610742565b005b610221600480360381019061021c9190610ae0565b61077d565b005b61023d60048036038101906102389190610a8d565b6107d6565b60405161024a9190610c7c565b60405180910390f35b61025b61090c565b6040516102689190610ac7565b60405180910390f35b61028b60048036038101906102869190610cbf565b610933565b6040516102989190610ac7565b60405180910390f35b6102bb60048036038101906102b69190610cbf565b61093d565b6040516102c89190610ac7565b60405180910390f35b6102d9610968565b6040516102e69190610b36565b60405180910390f35b61030960048036038101906103049190610a8d565b610970565b6040516103169190610bbe565b60405180910390f35b6103276109c2565b6040516103349190610ac7565b60405180910390f35b6103456109e6565b6040516103529190610ac7565b60405180910390f35b600160025f8373ffffffffffffffffffffffffffffffffffffffff1673ffffffffffffffffffffffffffffffffffffffff1681526020019081526020015f205f6101000a81548160ff02191690831515021790555050565b60015f9054906101000a900473ffffffffffffffffffffffffffffffffffffffff1681565b5f5f5f9054906101000a900473ffffffffffffffffffffffffffffffffffffffff1673ffffffffffffffffffffffffffffffffffffffff163373ffffffffffffffffffffffffffffffffffffffff1614610467576040517f08c379a000000000000000000000000000000000000000000000000000000000815260040161045e90610d57565b60405180910390fd5b8273ffffffffffffffffffffffffffffffffffffffff166370a08231306040518263ffffffff1660e01b81526004016104a09190610ac7565b602060405180830381865afa1580156104bb573d5f5f3e3d5ffd5b505050506040513d601f19601f820116820180604052508101906104df9190610d89565b90505f8111156105a4578273ffffffffffffffffffffffffffffffffffffffff1663a9059cbb83836040518363ffffffff1660e01b8152600401610524929190610db4565b6020604051808303815f875af1158015610540573d5f5f3e3d5ffd5b505050506040513d601f19601f820116820180604052508101906105649190610def565b6105a3576040517f08c379a000000000000000000000000000000000000000000000000000000000815260040161059a90610e64565b60405180910390fd5b5b92915050565b5f5f9054906101000a900473ffffffffffffffffffffffffffffffffffffffff1673ffffffffffffffffffffffffffffffffffffffff163373ffffffffffffffffffffffffffffffffffffffff1614610638576040517f08c379a000000000000000000000000000000000000000000000000000000000815260040161062f90610d57565b60405180910390fd5b8060015f6101000a81548173ffffffffffffffffffffffffffffffffffffffff021916908373ffffffffffffffffffffffffffffffffffffffff16021790555050565b5f5f9054906101000a900473ffffffffffffffffffffffffffffffffffffffff1673ffffffffffffffffffffffffffffffffffffffff163373ffffffffffffffffffffffffffffffffffffffff1614610709576040517f08c379a000000000000000000000000000000000000000000000000000000000815260040161070090610d57565b60405180910390fd5b80600160146101000a81548160ff02191690831515021790555050565b600160149054906101000a900460ff1681565b5f5f9050919050565b6040517f08c379a000000000000000000000000000000000000000000000000000000000815260040161077490610ecc565b60405180910390fd5b600160025f8373ffffffffffffffffffffffffffffffffffffffff1673ffffffffffffffffffffffffffffffffffffffff1681526020019081526020015f205f6101000a81548160ff0219169083151502179055505050565b6107de610a0d565b600160149054906101000a900460ff161561082e576040517f08c379a000000000000000000000000000000000000000000000000000000000815260040161082590610f34565b60405180910390fd5b60015f9054906101000a900473ffffffffffffffffffffffffffffffffffffffff16815f6002811061086357610862610f52565b5b602002019073ffffffffffffffffffffffffffffffffffffffff16908173ffffffffffffffffffffffffffffffffffffffff168152505060015f9054906101000a900473ffffffffffffffffffffffffffffffffffffffff16816001600281106108d0576108cf610f52565b5b602002019073ffffffffffffffffffffffffffffffffffffffff16908173ffffffffffffffffffffffffffffffffffffffff1681525050919050565b5f5f5f9054906101000a900473ffffffffffffffffffffffffffffffffffffffff16905090565b5f5f905092915050565b5f60015f9054906101000a900473ffffffffffffffffffffffffffffffffffffffff16905092915050565b5f6002905090565b5f60025f8373ffffffffffffffffffffffffffffffffffffffff1673ffffffffffffffffffffffffffffffffffffffff1681526020019081526020015f205f9054906101000a900460ff169050919050565b5f5f9054906101000a900473ffffffffffffffffffffffffffffffffffffffff1681565b5f5f5f9054906101000a900473ffffffffffffffffffffffffffffffffffffffff16905090565b6040518060400160405280600290602082028036833780820191505090505090565b5f5ffd5b5f73ffffffffffffffffffffffffffffffffffffffff82169050919050565b5f610a5c82610a33565b9050919050565b610a6c81610a52565b8114610a76575f5ffd5b50565b5f81359050610a8781610a63565b92915050565b5f60208284031215610aa257610aa1610a2f565b5b5f610aaf84828501610a79565b91505092915050565b610ac181610a52565b82525050565b5f602082019050610ada5f830184610ab8565b92915050565b5f5f60408385031215610af657610af5610a2f565b5b5f610b0385828601610a79565b9250506020610b1485828601610a79565b9150509250929050565b5f819050919050565b610b3081610b1e565b82525050565b5f602082019050610b495f830184610b27565b92915050565b5f8115159050919050565b610b6381610b4f565b8114610b6d575f5ffd5b50565b5f81359050610b7e81610b5a565b92915050565b5f60208284031215610b9957610b98610a2f565b5b5f610ba684828501610b70565b91505092915050565b610bb881610b4f565b82525050565b5f602082019050610bd15f830184610baf565b92915050565b5f60029050919050565b5f81905092915050565b5f819050919050565b610bfd81610a52565b82525050565b5f610c0e8383610bf4565b60208301905092915050565b5f602082019050919050565b610c2f81610bd7565b610c398184610be1565b9250610c4482610beb565b805f5b83811015610c74578151610c5b8782610c03565b9650610c6683610c1a565b925050600181019050610c47565b505050505050565b5f604082019050610c8f5f830184610c26565b92915050565b610c9e81610b1e565b8114610ca8575f5ffd5b50565b5f81359050610cb981610c95565b92915050565b5f5f60408385031215610cd557610cd4610a2f565b5b5f610ce285828601610a79565b9250506020610cf385828601610cab565b9150509250929050565b5f82825260208201905092915050565b7f6e6f7420636f6e74726f6c6c65720000000000000000000000000000000000005f82015250565b5f610d41600e83610cfd565b9150610d4c82610d0d565b602082019050919050565b5f6020820190508181035f830152610d6e81610d35565b9050919050565b5f81519050610d8381610c95565b92915050565b5f60208284031215610d9e57610d9d610a2f565b5b5f610dab84828501610d75565b91505092915050565b5f604082019050610dc75f830185610ab8565b610dd46020830184610b27565b9392505050565b5f81519050610de981610b5a565b92915050565b5f60208284031215610e0457610e03610a2f565b5b5f610e1184828501610ddb565b91505092915050565b7f7377656570206661696c656400000000000000000000000000000000000000005f82015250565b5f610e4e600c83610cfd565b9150610e5982610e1a565b602082019050919050565b5f6020820190508181035f830152610e7b81610e42565b9050919050565b7f61747461636b65722d636f6e74726f6c6c6564000000000000000000000000005f82015250565b5f610eb6601383610cfd565b9150610ec182610e82565b602082019050919050565b5f6020820190508181035f830152610ee381610eaa565b9050919050565b7f6d616c6963696f757320726566657272616c3a20627269636b656400000000005f82015250565b5f610f1e601b83610cfd565b9150610f2982610eea565b602082019050919050565b5f6020820190508181035f830152610f4b81610f12565b9050919050565b7f4e487b71000000000000000000000000000000000000000000000000000000005f52603260045260245ffdfea264697066735822122005e25d2e3856a5058c4b84f2b1ab21d39fa341775c271e2c8884994a772e7deb64736f6c634300081e0033a26469706673582212208c6e9a457e0efa61dc33888da4cb8705962f97acc4c5293354341ef4e2c17d0864736f6c634300081e0033","linkReferences":{}},"methodIdentifiers":{"activeMaliciousReferral()":"c80fcefd","brickModeValidated()":"a2cdfe15","claimsAttempted()":"ef252c7a","claimsSucceeded()":"7fc54829","coveredPathsMask()":"f4ea0c82","executeOnOpportunity()":"3c2448ed","executed()":"31a38c89","hypothesisValidated()":"463defd1","infeasibleReason()":"a6652157","initialMaliciousReferral()":"3ee06a05","lastVictim()":"5d8a2d6d","liveReferralAfter()":"cb24db7d","liveReferralBefore()":"38795b8d","ownerControlValidated()":"6ec844b5","profitAmount()":"5ff972cc","profitToken()":"49343624","referralSeized()":"2660bbf4","replaceRewardReferral(address)":"cbc68e50","rewardToken()":"f7c618c1","setBrickMode(bool)":"47811245","stakingToken()":"72f702f3","targetPool()":"e60e2417","targetRewards()":"8444df3f"},"id":0}