{"abi":[{"type":"constructor","inputs":[],"stateMutability":"nonpayable"},{"type":"function","name":"brickMode","inputs":[],"outputs":[{"name":"","type":"bool","internalType":"bool"}],"stateMutability":"view"},{"type":"function","name":"caller","inputs":[],"outputs":[{"name":"","type":"address","internalType":"address"}],"stateMutability":"view"},{"type":"function","name":"controller","inputs":[],"outputs":[{"name":"","type":"address","internalType":"address"}],"stateMutability":"view"},{"type":"function","name":"getRelationsREF","inputs":[{"name":"","type":"address","internalType":"address"}],"outputs":[{"name":"refs","type":"address[2]","internalType":"address[2]"}],"stateMutability":"view"},{"type":"function","name":"getUserInTeamByIndex","inputs":[{"name":"","type":"address","internalType":"address"},{"name":"","type":"uint256","internalType":"uint256"}],"outputs":[{"name":"","type":"address","internalType":"address"}],"stateMutability":"pure"},{"type":"function","name":"isSetted","inputs":[{"name":"user","type":"address","internalType":"address"}],"outputs":[{"name":"","type":"bool","internalType":"bool"}],"stateMutability":"view"},{"type":"function","name":"owner","inputs":[],"outputs":[{"name":"","type":"address","internalType":"address"}],"stateMutability":"view"},{"type":"function","name":"payoutReceiver","inputs":[],"outputs":[{"name":"","type":"address","internalType":"address"}],"stateMutability":"view"},{"type":"function","name":"referralLevel","inputs":[],"outputs":[{"name":"","type":"uint256","internalType":"uint256"}],"stateMutability":"pure"},{"type":"function","name":"relations","inputs":[{"name":"","type":"address","internalType":"address"},{"name":"","type":"uint256","internalType":"uint256"}],"outputs":[{"name":"","type":"address","internalType":"address"}],"stateMutability":"view"},{"type":"function","name":"renounceOwnership","inputs":[],"outputs":[],"stateMutability":"pure"},{"type":"function","name":"setBrickMode","inputs":[{"name":"enabled","type":"bool","internalType":"bool"}],"outputs":[],"stateMutability":"nonpayable"},{"type":"function","name":"setPayoutReceiver","inputs":[{"name":"nextReceiver","type":"address","internalType":"address"}],"outputs":[],"stateMutability":"nonpayable"},{"type":"function","name":"setReferral","inputs":[{"name":"","type":"address","internalType":"address"},{"name":"user","type":"address","internalType":"address"}],"outputs":[],"stateMutability":"nonpayable"},{"type":"function","name":"sweepToken","inputs":[{"name":"token","type":"address","internalType":"address"},{"name":"to","type":"address","internalType":"address"}],"outputs":[{"name":"swept","type":"uint256","internalType":"uint256"}],"stateMutability":"nonpayable"},{"type":"function","name":"teamSize","inputs":[{"name":"","type":"address","internalType":"address"}],"outputs":[{"name":"","type":"uint256","internalType":"uint256"}],"stateMutability":"pure"},{"type":"function","name":"updateSetted","inputs":[{"name":"user","type":"address","internalType":"address"}],"outputs":[],"stateMutability":"nonpayable"}],"bytecode":{"object":"0x6080604052348015600e575f5ffd5b50335f5f6101000a81548173ffffffffffffffffffffffffffffffffffffffff021916908373ffffffffffffffffffffffffffffffffffffffff1602179055503360015f6101000a81548173ffffffffffffffffffffffffffffffffffffffff021916908373ffffffffffffffffffffffffffffffffffffffff160217905550610fb58061009b5f395ff3fe608060405234801561000f575f5ffd5b5060043610610109575f3560e01c80637543e3f0116100a0578063bcafddd31161006f578063bcafddd3146102a1578063c67ea3ee146102d1578063e8a293ee146102ef578063f77c47911461031f578063fc9c8d391461033d57610109565b80637543e3f0146102075780637ea62141146102235780638da5cb5b1461025357806390b182f41461027157610109565b806347811245116100dc5780634781124514610193578063484dad8e146101af5780635a1d5e9b146101cd578063715018a6146101fd57610109565b80630470031f1461010d57806320b7b8df14610129578063258836fe146101475780632a30e4c214610177575b5f5ffd5b61012760048036038101906101229190610a8d565b61035b565b005b6101316103b3565b60405161013e9190610ac7565b60405180910390f35b610161600480360381019061015c9190610ae0565b6103d8565b60405161016e9190610b36565b60405180910390f35b610191600480360381019061018c9190610a8d565b6105aa565b005b6101ad60048036038101906101a89190610b84565b61067b565b005b6101b7610726565b6040516101c49190610bbe565b60405180910390f35b6101e760048036038101906101e29190610a8d565b610739565b6040516101f49190610b36565b60405180910390f35b610205610742565b005b610221600480360381019061021c9190610ae0565b61077d565b005b61023d60048036038101906102389190610a8d565b6107d6565b60405161024a9190610c7c565b60405180910390f35b61025b61090c565b6040516102689190610ac7565b60405180910390f35b61028b60048036038101906102869190610cbf565b610933565b6040516102989190610ac7565b60405180910390f35b6102bb60048036038101906102b69190610cbf565b61093d565b6040516102c89190610ac7565b60405180910390f35b6102d9610968565b6040516102e69190610b36565b60405180910390f35b61030960048036038101906103049190610a8d565b610970565b6040516103169190610bbe565b60405180910390f35b6103276109c2565b6040516103349190610ac7565b60405180910390f35b6103456109e6565b6040516103529190610ac7565b60405180910390f35b600160025f8373ffffffffffffffffffffffffffffffffffffffff1673ffffffffffffffffffffffffffffffffffffffff1681526020019081526020015f205f6101000a81548160ff02191690831515021790555050565b60015f9054906101000a900473ffffffffffffffffffffffffffffffffffffffff1681565b5f5f5f9054906101000a900473ffffffffffffffffffffffffffffffffffffffff1673ffffffffffffffffffffffffffffffffffffffff163373ffffffffffffffffffffffffffffffffffffffff1614610467576040517f08c379a000000000000000000000000000000000000000000000000000000000815260040161045e90610d57565b60405180910390fd5b8273ffffffffffffffffffffffffffffffffffffffff166370a08231306040518263ffffffff1660e01b81526004016104a09190610ac7565b602060405180830381865afa1580156104bb573d5f5f3e3d5ffd5b505050506040513d601f19601f820116820180604052508101906104df9190610d89565b90505f8111156105a4578273ffffffffffffffffffffffffffffffffffffffff1663a9059cbb83836040518363ffffffff1660e01b8152600401610524929190610db4565b6020604051808303815f875af1158015610540573d5f5f3e3d5ffd5b505050506040513d601f19601f820116820180604052508101906105649190610def565b6105a3576040517f08c379a000000000000000000000000000000000000000000000000000000000815260040161059a90610e64565b60405180910390fd5b5b92915050565b5f5f9054906101000a900473ffffffffffffffffffffffffffffffffffffffff1673ffffffffffffffffffffffffffffffffffffffff163373ffffffffffffffffffffffffffffffffffffffff1614610638576040517f08c379a000000000000000000000000000000000000000000000000000000000815260040161062f90610d57565b60405180910390fd5b8060015f6101000a81548173ffffffffffffffffffffffffffffffffffffffff021916908373ffffffffffffffffffffffffffffffffffffffff16021790555050565b5f5f9054906101000a900473ffffffffffffffffffffffffffffffffffffffff1673ffffffffffffffffffffffffffffffffffffffff163373ffffffffffffffffffffffffffffffffffffffff1614610709576040517f08c379a000000000000000000000000000000000000000000000000000000000815260040161070090610d57565b60405180910390fd5b80600160146101000a81548160ff02191690831515021790555050565b600160149054906101000a900460ff1681565b5f5f9050919050565b6040517f08c379a000000000000000000000000000000000000000000000000000000000815260040161077490610ecc565b60405180910390fd5b600160025f8373ffffffffffffffffffffffffffffffffffffffff1673ffffffffffffffffffffffffffffffffffffffff1681526020019081526020015f205f6101000a81548160ff0219169083151502179055505050565b6107de610a0d565b600160149054906101000a900460ff161561082e576040517f08c379a000000000000000000000000000000000000000000000000000000000815260040161082590610f34565b60405180910390fd5b60015f9054906101000a900473ffffffffffffffffffffffffffffffffffffffff16815f6002811061086357610862610f52565b5b602002019073ffffffffffffffffffffffffffffffffffffffff16908173ffffffffffffffffffffffffffffffffffffffff168152505060015f9054906101000a900473ffffffffffffffffffffffffffffffffffffffff16816001600281106108d0576108cf610f52565b5b602002019073ffffffffffffffffffffffffffffffffffffffff16908173ffffffffffffffffffffffffffffffffffffffff1681525050919050565b5f5f5f9054906101000a900473ffffffffffffffffffffffffffffffffffffffff16905090565b5f5f905092915050565b5f60015f9054906101000a900473ffffffffffffffffffffffffffffffffffffffff16905092915050565b5f6002905090565b5f60025f8373ffffffffffffffffffffffffffffffffffffffff1673ffffffffffffffffffffffffffffffffffffffff1681526020019081526020015f205f9054906101000a900460ff169050919050565b5f5f9054906101000a900473ffffffffffffffffffffffffffffffffffffffff1681565b5f5f5f9054906101000a900473ffffffffffffffffffffffffffffffffffffffff16905090565b6040518060400160405280600290602082028036833780820191505090505090565b5f5ffd5b5f73ffffffffffffffffffffffffffffffffffffffff82169050919050565b5f610a5c82610a33565b9050919050565b610a6c81610a52565b8114610a76575f5ffd5b50565b5f81359050610a8781610a63565b92915050565b5f60208284031215610aa257610aa1610a2f565b5b5f610aaf84828501610a79565b91505092915050565b610ac181610a52565b82525050565b5f602082019050610ada5f830184610ab8565b92915050565b5f5f60408385031215610af657610af5610a2f565b5b5f610b0385828601610a79565b9250506020610b1485828601610a79565b9150509250929050565b5f819050919050565b610b3081610b1e565b82525050565b5f602082019050610b495f830184610b27565b92915050565b5f8115159050919050565b610b6381610b4f565b8114610b6d575f5ffd5b50565b5f81359050610b7e81610b5a565b92915050565b5f60208284031215610b9957610b98610a2f565b5b5f610ba684828501610b70565b91505092915050565b610bb881610b4f565b82525050565b5f602082019050610bd15f830184610baf565b92915050565b5f60029050919050565b5f81905092915050565b5f819050919050565b610bfd81610a52565b82525050565b5f610c0e8383610bf4565b60208301905092915050565b5f602082019050919050565b610c2f81610bd7565b610c398184610be1565b9250610c4482610beb565b805f5b83811015610c74578151610c5b8782610c03565b9650610c6683610c1a565b925050600181019050610c47565b505050505050565b5f604082019050610c8f5f830184610c26565b92915050565b610c9e81610b1e565b8114610ca8575f5ffd5b50565b5f81359050610cb981610c95565b92915050565b5f5f60408385031215610cd557610cd4610a2f565b5b5f610ce285828601610a79565b9250506020610cf385828601610cab565b9150509250929050565b5f82825260208201905092915050565b7f6e6f7420636f6e74726f6c6c65720000000000000000000000000000000000005f82015250565b5f610d41600e83610cfd565b9150610d4c82610d0d565b602082019050919050565b5f6020820190508181035f830152610d6e81610d35565b9050919050565b5f81519050610d8381610c95565b92915050565b5f60208284031215610d9e57610d9d610a2f565b5b5f610dab84828501610d75565b91505092915050565b5f604082019050610dc75f830185610ab8565b610dd46020830184610b27565b9392505050565b5f81519050610de981610b5a565b92915050565b5f60208284031215610e0457610e03610a2f565b5b5f610e1184828501610ddb565b91505092915050565b7f7377656570206661696c656400000000000000000000000000000000000000005f82015250565b5f610e4e600c83610cfd565b9150610e5982610e1a565b602082019050919050565b5f6020820190508181035f830152610e7b81610e42565b9050919050565b7f61747461636b65722d636f6e74726f6c6c6564000000000000000000000000005f82015250565b5f610eb6601383610cfd565b9150610ec182610e82565b602082019050919050565b5f6020820190508181035f830152610ee381610eaa565b9050919050565b7f6d616c6963696f757320726566657272616c3a20627269636b656400000000005f82015250565b5f610f1e601b83610cfd565b9150610f2982610eea565b602082019050919050565b5f6020820190508181035f830152610f4b81610f12565b9050919050565b7f4e487b71000000000000000000000000000000000000000000000000000000005f52603260045260245ffdfea264697066735822122005e25d2e3856a5058c4b84f2b1ab21d39fa341775c271e2c8884994a772e7deb64736f6c634300081e0033","linkReferences":{}},"methodIdentifiers":{"brickMode()":"484dad8e","caller()":"fc9c8d39","controller()":"f77c4791","getRelationsREF(address)":"7ea62141","getUserInTeamByIndex(address,uint256)":"90b182f4","isSetted(address)":"e8a293ee","owner()":"8da5cb5b","payoutReceiver()":"20b7b8df","referralLevel()":"c67ea3ee","relations(address,uint256)":"bcafddd3","renounceOwnership()":"715018a6","setBrickMode(bool)":"47811245","setPayoutReceiver(address)":"2a30e4c2","setReferral(address,address)":"7543e3f0","sweepToken(address,address)":"258836fe","teamSize(address)":"5a1d5e9b","updateSetted(address)":"0470031f"},"id":0}