{"abi":[{"type":"receive","stateMutability":"payable"},{"type":"function","name":"TARGET","inputs":[],"outputs":[{"name":"","type":"address","internalType":"address"}],"stateMutability":"view"},{"type":"function","name":"borrow","inputs":[{"name":"orderId","type":"uint256","internalType":"uint256"},{"name":"borrower","type":"address","internalType":"address payable"},{"name":"borrowAmount","type":"uint256","internalType":"uint256"}],"outputs":[],"stateMutability":"nonpayable"},{"type":"function","name":"borrowBalanceCurrent","inputs":[{"name":"orderId","type":"uint256","internalType":"uint256"}],"outputs":[{"name":"","type":"uint256","internalType":"uint256"}],"stateMutability":"view"},{"type":"function","name":"executeOnOpportunity","inputs":[],"outputs":[],"stateMutability":"nonpayable"},{"type":"function","name":"executed","inputs":[],"outputs":[{"name":"","type":"bool","internalType":"bool"}],"stateMutability":"view"},{"type":"function","name":"exploitedBorrowAmount","inputs":[],"outputs":[{"name":"","type":"uint256","internalType":"uint256"}],"stateMutability":"view"},{"type":"function","name":"exploitedOrderId","inputs":[],"outputs":[{"name":"","type":"uint256","internalType":"uint256"}],"stateMutability":"view"},{"type":"function","name":"exploitedPunkId","inputs":[],"outputs":[{"name":"","type":"uint256","internalType":"uint256"}],"stateMutability":"view"},{"type":"function","name":"exploitedXToken","inputs":[],"outputs":[{"name":"","type":"address","internalType":"address"}],"stateMutability":"view"},{"type":"function","name":"getOrderBorrowBalanceCurrent","inputs":[{"name":"orderId","type":"uint256","internalType":"uint256"}],"outputs":[{"name":"","type":"uint256","internalType":"uint256"}],"stateMutability":"view"},{"type":"function","name":"hypothesisValidated","inputs":[],"outputs":[{"name":"","type":"bool","internalType":"bool"}],"stateMutability":"view"},{"type":"function","name":"infeasibleReason","inputs":[],"outputs":[{"name":"","type":"uint256","internalType":"uint256"}],"stateMutability":"view"},{"type":"function","name":"profitAmount","inputs":[],"outputs":[{"name":"","type":"uint256","internalType":"uint256"}],"stateMutability":"view"},{"type":"function","name":"profitToken","inputs":[],"outputs":[{"name":"","type":"address","internalType":"address"}],"stateMutability":"view"},{"type":"function","name":"stageBorrowWith1155","inputs":[],"outputs":[{"name":"","type":"bool","internalType":"bool"}],"stateMutability":"view"},{"type":"function","name":"stageLaterTransferPathAttempted","inputs":[],"outputs":[{"name":"","type":"bool","internalType":"bool"}],"stateMutability":"view"},{"type":"function","name":"stageLaterTransferPathReverted","inputs":[],"outputs":[{"name":"","type":"bool","internalType":"bool"}],"stateMutability":"view"},{"type":"function","name":"stageWrappedPunkRecordedAs1155","inputs":[],"outputs":[{"name":"","type":"bool","internalType":"bool"}],"stateMutability":"view"},{"type":"function","name":"underlying","inputs":[],"outputs":[{"name":"","type":"address","internalType":"address"}],"stateMutability":"pure"}],"bytecode":{"object":"0x6080604052348015600e575f5ffd5b50613a958061001c5f395ff3fe608060405260043610610117575f3560e01c80636f307dc31161009f578063a665215711610063578063a665215714610358578063af13fe9314610382578063cc1f2afa146103be578063d9af3db8146103e8578063ed059985146104245761011e565b80636f307dc314610286578063803bd245146102b05780638876d930146102da57806389564a8f146103045780639cc642bf1461032e5761011e565b80633c2448ed116100e65780633c2448ed146101c857806344788bfa146101de578063463defd11461020857806349343624146102325780635ff972cc1461025c5761011e565b806305783854146101225780630c28d13e1461014c57806331a38c89146101745780633ba9b4271461019e5761011e565b3661011e57005b5f5ffd5b34801561012d575f5ffd5b5061013661044e565b604051610143919061188a565b60405180910390f35b348015610157575f5ffd5b50610172600480360381019061016d9190611934565b61045f565b005b34801561017f575f5ffd5b50610188610611565b604051610195919061188a565b60405180910390f35b3480156101a9575f5ffd5b506101b2610622565b6040516101bf9190611993565b60405180910390f35b3480156101d3575f5ffd5b506101dc610628565b005b3480156101e9575f5ffd5b506101f261073d565b6040516101ff9190611993565b60405180910390f35b348015610213575f5ffd5b5061021c610743565b604051610229919061188a565b60405180910390f35b34801561023d575f5ffd5b50610246610755565b60405161025391906119cc565b60405180910390f35b348015610267575f5ffd5b5061027061077d565b60405161027d9190611993565b60405180910390f35b348015610291575f5ffd5b5061029a610786565b6040516102a791906119cc565b60405180910390f35b3480156102bb575f5ffd5b506102c46107a1565b6040516102d191906119cc565b60405180910390f35b3480156102e5575f5ffd5b506102ee6107c6565b6040516102fb9190611993565b60405180910390f35b34801561030f575f5ffd5b506103186107cc565b604051610325919061188a565b60405180910390f35b348015610339575f5ffd5b506103426107de565b60405161034f919061188a565b60405180910390f35b348015610363575f5ffd5b5061036c6107f1565b6040516103799190611993565b60405180910390f35b34801561038d575f5ffd5b506103a860048036038101906103a391906119e5565b6107f7565b6040516103b59190611993565b60405180910390f35b3480156103c9575f5ffd5b506103d2610811565b6040516103df91906119cc565b60405180910390f35b3480156103f3575f5ffd5b5061040e600480360381019061040991906119e5565b610829565b60405161041b9190611993565b60405180910390f35b34801561042f575f5ffd5b50610438610843565b604051610445919061188a565b60405180910390f35b60028054906101000a900460ff1681565b7339360ac1239a0b98cb8076d4135d0f72b7fd990973ffffffffffffffffffffffffffffffffffffffff163373ffffffffffffffffffffffffffffffffffffffff16146104e1576040517f08c379a00000000000000000000000000000000000000000000000000000000081526004016104d890611a6a565b60405180910390fd5b8060095f8581526020019081526020015f205f8282546105019190611ab5565b925050819055505f811415801561054457503073ffffffffffffffffffffffffffffffffffffffff168273ffffffffffffffffffffffffffffffffffffffff1614155b1561060c575f47905081811115610559578190505b5f811461060a575f8373ffffffffffffffffffffffffffffffffffffffff168260405161058590611b15565b5f6040518083038185875af1925050503d805f81146105bf576040519150601f19603f3d011682016040523d82523d5f602084013e6105c4565b606091505b5050905080610608576040517f08c379a00000000000000000000000000000000000000000000000000000000081526004016105ff90611b73565b60405180910390fd5b505b505b505050565b5f5f9054906101000a900460ff1681565b60065481565b5f5f9054906101000a900460ff1661073b5760015f5f6101000a81548160ff0219169083151502179055505f60075f6101000a81548173ffffffffffffffffffffffffffffffffffffffff021916908373ffffffffffffffffffffffffffffffffffffffff1602179055505f7339360ac1239a0b98cb8076d4135d0f72b7fd990990505f6106b582610856565b90505f6106c1836108ce565b90506106cc83610946565b6106df576001808190555050505061073b565b5f73ffffffffffffffffffffffffffffffffffffffff168273ffffffffffffffffffffffffffffffffffffffff1614801561071957505f81145b1561072f5761072783610b1a565b50505061073b565b60066001819055505050505b565b60035481565b5f60019054906101000a900460ff1681565b5f60075f9054906101000a900473ffffffffffffffffffffffffffffffffffffffff16905090565b5f600854905090565b5f73eeeeeeeeeeeeeeeeeeeeeeeeeeeeeeeeeeeeeeee905090565b60055f9054906101000a900473ffffffffffffffffffffffffffffffffffffffff1681565b60045481565b60025f9054906101000a900460ff1681565b600260039054906101000a900460ff1681565b60015481565b5f60095f8381526020019081526020015f20549050919050565b7339360ac1239a0b98cb8076d4135d0f72b7fd990981565b5f60095f8381526020019081526020015f20549050919050565b600260019054906101000a900460ff1681565b5f8173ffffffffffffffffffffffffffffffffffffffff1663999ea4966040518163ffffffff1660e01b8152600401602060405180830381865afa9250505080156108bf57506040513d601f19601f820116820180604052508101906108bc9190611bbb565b60015b156108c957809150505b919050565b5f8173ffffffffffffffffffffffffffffffffffffffff166361bc221a6040518163ffffffff1660e01b8152600401602060405180830381865afa92505050801561093757506040513d601f19601f820116820180604052508101906109349190611bfa565b60015b1561094157809150505b919050565b5f5f61095183611236565b90503073ffffffffffffffffffffffffffffffffffffffff168173ffffffffffffffffffffffffffffffffffffffff1603610990576001915050610b15565b5f73ffffffffffffffffffffffffffffffffffffffff168173ffffffffffffffffffffffffffffffffffffffff16146109cc575f915050610b15565b5f7339360ac1239a0b98cb8076d4135d0f72b7fd990973ffffffffffffffffffffffffffffffffffffffff166040516024016040516020818303038152906040527f8129fc1c000000000000000000000000000000000000000000000000000000007bffffffffffffffffffffffffffffffffffffffffffffffffffffffff19166020820180517bffffffffffffffffffffffffffffffffffffffffffffffffffffffff8381831617835250505050604051610a889190611c6d565b5f604051808303815f865af19150503d805f8114610ac1576040519150601f19603f3d011682016040523d82523d5f602084013e610ac6565b606091505b5050905080610ad9575f92505050610b15565b3073ffffffffffffffffffffffffffffffffffffffff16610af985611236565b73ffffffffffffffffffffffffffffffffffffffff1614925050505b919050565b5f73ffffffffffffffffffffffffffffffffffffffff16600a5f9054906101000a900473ffffffffffffffffffffffffffffffffffffffff1673ffffffffffffffffffffffffffffffffffffffff1603610c9e57604051610b7a90611849565b604051809103905ff080158015610b93573d5f5f3e3d5ffd5b50600a5f6101000a81548173ffffffffffffffffffffffffffffffffffffffff021916908373ffffffffffffffffffffffffffffffffffffffff160217905550604051610bdf90611856565b604051809103905ff080158015610bf8573d5f5f3e3d5ffd5b50600b5f6101000a81548173ffffffffffffffffffffffffffffffffffffffff021916908373ffffffffffffffffffffffffffffffffffffffff160217905550604051610c4490611863565b604051809103905ff080158015610c5d573d5f5f3e3d5ffd5b50600c5f6101000a81548173ffffffffffffffffffffffffffffffffffffffff021916908373ffffffffffffffffffffffffffffffffffffffff1602179055505b8073ffffffffffffffffffffffffffffffffffffffff166392eefe9b306040518263ffffffff1660e01b8152600401610cd791906119cc565b5f604051808303815f87803b158015610cee575f5ffd5b505af1925050508015610cff575060015b610d10576002600181905550611233565b8073ffffffffffffffffffffffffffffffffffffffff16638a1d2531600a5f9054906101000a900473ffffffffffffffffffffffffffffffffffffffff16600b5f9054906101000a900473ffffffffffffffffffffffffffffffffffffffff166040518363ffffffff1660e01b8152600401610d8d929190611c83565b5f604051808303815f87803b158015610da4575f5ffd5b505af1925050508015610db5575060015b610dc6576003600181905550611233565b8073ffffffffffffffffffffffffffffffffffffffff16635b473e9b600b5f9054906101000a900473ffffffffffffffffffffffffffffffffffffffff16600162015180610e1060016040518663ffffffff1660e01b8152600401610e2f959493929190611d5e565b5f604051808303815f87803b158015610e46575f5ffd5b505af1925050508015610e57575060015b610e68576004600181905550611233565b611e61600481905550600a5f9054906101000a900473ffffffffffffffffffffffffffffffffffffffff1673ffffffffffffffffffffffffffffffffffffffff1663ad5ae76f6004546040518263ffffffff1660e01b8152600401610ecd9190611993565b5f604051808303815f87803b158015610ee4575f5ffd5b505af1158015610ef6573d5f5f3e3d5ffd5b50505050600a5f9054906101000a900473ffffffffffffffffffffffffffffffffffffffff1673ffffffffffffffffffffffffffffffffffffffff1663bf31196f6004545f7339360ac1239a0b98cb8076d4135d0f72b7fd99096040518463ffffffff1660e01b8152600401610f6e93929190611de8565b5f604051808303815f87803b158015610f85575f5ffd5b505af1158015610f97573d5f5f3e3d5ffd5b505050505f60018273ffffffffffffffffffffffffffffffffffffffff166361bc221a6040518163ffffffff1660e01b8152600401602060405180830381865afa158015610fe7573d5f5f3e3d5ffd5b505050506040513d601f19601f8201168201806040525081019061100b9190611bfa565b6110159190611ab5565b90505f670de0b6b3a764000090508273ffffffffffffffffffffffffffffffffffffffff1663e3333ae9600a5f9054906101000a900473ffffffffffffffffffffffffffffffffffffffff1660045461048330866040518663ffffffff1660e01b8152600401611089959493929190611e56565b5f604051808303815f87803b1580156110a0575f5ffd5b505af11580156110b2573d5f5f3e3d5ffd5b50505050600160025f6101000a81548160ff0219169083151502179055506110dd83836004546112ae565b6001600260016101000a81548160ff021916908315150217905550816003819055503060055f6101000a81548173ffffffffffffffffffffffffffffffffffffffff021916908373ffffffffffffffffffffffffffffffffffffffff16021790555060095f8381526020019081526020015f205460068190555060016002806101000a81548160ff0219169083151502179055508273ffffffffffffffffffffffffffffffffffffffff1663cd063eb930843060016040518563ffffffff1660e01b81526004016111b19493929190611ea7565b5f604051808303815f87803b1580156111c8575f5ffd5b505af19250505080156111d9575060015b611217576001600260036101000a81548160ff02191690831515021790555060015f60016101000a81548160ff021916908315150217905550611226565b60056001819055505050611233565b6112308382611492565b50505b50565b5f8173ffffffffffffffffffffffffffffffffffffffff1663f851a4406040518163ffffffff1660e01b8152600401602060405180830381865afa92505050801561129f57506040513d601f19601f8201168201806040525081019061129c9190611bbb565b60015b156112a957809150505b919050565b5f5f5f5f8673ffffffffffffffffffffffffffffffffffffffff1663eb5945e4876040518263ffffffff1660e01b81526004016112eb9190611993565b60a060405180830381865afa158015611306573d5f5f3e3d5ffd5b505050506040513d601f19601f8201168201806040525081019061132a9190611f14565b945094509450945050600b5f9054906101000a900473ffffffffffffffffffffffffffffffffffffffff1673ffffffffffffffffffffffffffffffffffffffff168473ffffffffffffffffffffffffffffffffffffffff16146113c2576040517f08c379a00000000000000000000000000000000000000000000000000000000081526004016113b990611fd5565b60405180910390fd5b848314611404576040517f08c379a00000000000000000000000000000000000000000000000000000000081526004016113fb9061203d565b60405180910390fd5b6104838214611448576040517f08c379a000000000000000000000000000000000000000000000000000000000815260040161143f906120a5565b60405180910390fd5b8015611489576040517f08c379a00000000000000000000000000000000000000000000000000000000081526004016114809061210d565b60405180910390fd5b50505050505050565b5f4790505f7339360ac1239a0b98cb8076d4135d0f72b7fd990973ffffffffffffffffffffffffffffffffffffffff163190505f8114611531578373ffffffffffffffffffffffffffffffffffffffff1663f3fef3a330836040518363ffffffff1660e01b815260040161150792919061212b565b5f604051808303815f87803b15801561151e575f5ffd5b505af192505050801561152f575060015b505b5f73c02aaa39b223fe8d0a0e5c4f27ead9083c756cc273ffffffffffffffffffffffffffffffffffffffff166370a082317339360ac1239a0b98cb8076d4135d0f72b7fd99096040518263ffffffff1660e01b815260040161159391906119cc565b602060405180830381865afa1580156115ae573d5f5f3e3d5ffd5b505050506040513d601f19601f820116820180604052508101906115d29190611bfa565b90505f811461181357600c5f9054906101000a900473ffffffffffffffffffffffffffffffffffffffff1673ffffffffffffffffffffffffffffffffffffffff1663bdb2321f73c02aaa39b223fe8d0a0e5c4f27ead9083c756cc26040518263ffffffff1660e01b815260040161164991906119cc565b5f604051808303815f87803b158015611660575f5ffd5b505af1158015611672573d5f5f3e3d5ffd5b505050508473ffffffffffffffffffffffffffffffffffffffff1663f3fef3a3600c5f9054906101000a900473ffffffffffffffffffffffffffffffffffffffff16836040518363ffffffff1660e01b81526004016116d292919061212b565b5f604051808303815f87803b1580156116e9575f5ffd5b505af19250505080156116fa575060015b15611812575f73c02aaa39b223fe8d0a0e5c4f27ead9083c756cc273ffffffffffffffffffffffffffffffffffffffff166370a08231306040518263ffffffff1660e01b815260040161174d91906119cc565b602060405180830381865afa158015611768573d5f5f3e3d5ffd5b505050506040513d601f19601f8201168201806040525081019061178c9190611bfa565b90505f81146118105773c02aaa39b223fe8d0a0e5c4f27ead9083c756cc273ffffffffffffffffffffffffffffffffffffffff16632e1a7d4d826040518263ffffffff1660e01b81526004016117e29190611993565b5f604051808303815f87803b1580156117f9575f5ffd5b505af115801561180b573d5f5f3e3d5ffd5b505050505b505b5b5f83476118209190612152565b90505f8114611839578060088190555050505050611845565b84600881905550505050505b5050565b610fea8061218683390190565b6106c28061317083390190565b61022e8061383283390190565b5f8115159050919050565b61188481611870565b82525050565b5f60208201905061189d5f83018461187b565b92915050565b5f5ffd5b5f819050919050565b6118b9816118a7565b81146118c3575f5ffd5b50565b5f813590506118d4816118b0565b92915050565b5f73ffffffffffffffffffffffffffffffffffffffff82169050919050565b5f611903826118da565b9050919050565b611913816118f9565b811461191d575f5ffd5b50565b5f8135905061192e8161190a565b92915050565b5f5f5f6060848603121561194b5761194a6118a3565b5b5f611958868287016118c6565b935050602061196986828701611920565b925050604061197a868287016118c6565b9150509250925092565b61198d816118a7565b82525050565b5f6020820190506119a65f830184611984565b92915050565b5f6119b6826118da565b9050919050565b6119c6816119ac565b82525050565b5f6020820190506119df5f8301846119bd565b92915050565b5f602082840312156119fa576119f96118a3565b5b5f611a07848285016118c6565b91505092915050565b5f82825260208201905092915050565b7f6f6e6c7920786e667400000000000000000000000000000000000000000000005f82015250565b5f611a54600983611a10565b9150611a5f82611a20565b602082019050919050565b5f6020820190508181035f830152611a8181611a48565b9050919050565b7f4e487b71000000000000000000000000000000000000000000000000000000005f52601160045260245ffd5b5f611abf826118a7565b9150611aca836118a7565b9250828201905080821115611ae257611ae1611a88565b5b92915050565b5f81905092915050565b50565b5f611b005f83611ae8565b9150611b0b82611af2565b5f82019050919050565b5f611b1f82611af5565b9150819050919050565b7f626f72726f77207472616e73666572206661696c6564000000000000000000005f82015250565b5f611b5d601683611a10565b9150611b6882611b29565b602082019050919050565b5f6020820190508181035f830152611b8a81611b51565b9050919050565b611b9a816119ac565b8114611ba4575f5ffd5b50565b5f81519050611bb581611b91565b92915050565b5f60208284031215611bd057611bcf6118a3565b5b5f611bdd84828501611ba7565b91505092915050565b5f81519050611bf4816118b0565b92915050565b5f60208284031215611c0f57611c0e6118a3565b5b5f611c1c84828501611be6565b91505092915050565b5f81519050919050565b8281835e5f83830152505050565b5f611c4782611c25565b611c518185611ae8565b9350611c61818560208601611c2f565b80840191505092915050565b5f611c788284611c3d565b915081905092915050565b5f604082019050611c965f8301856119bd565b611ca360208301846119bd565b9392505050565b5f819050919050565b5f819050919050565b5f611cd6611cd1611ccc84611caa565b611cb3565b6118a7565b9050919050565b611ce681611cbc565b82525050565b5f819050919050565b5f611d0f611d0a611d0584611cec565b611cb3565b6118a7565b9050919050565b611d1f81611cf5565b82525050565b5f819050919050565b5f611d48611d43611d3e84611d25565b611cb3565b6118a7565b9050919050565b611d5881611d2e565b82525050565b5f60a082019050611d715f8301886119bd565b611d7e602083018761187b565b611d8b6040830186611cdd565b611d986060830185611d16565b611da56080830184611d4f565b9695505050505050565b5f819050919050565b5f611dd2611dcd611dc884611daf565b611cb3565b6118a7565b9050919050565b611de281611db8565b82525050565b5f606082019050611dfb5f830186611984565b611e086020830185611dd9565b611e1560408301846119bd565b949350505050565b5f819050919050565b5f611e40611e3b611e3684611e1d565b611cb3565b6118a7565b9050919050565b611e5081611e26565b82525050565b5f60a082019050611e695f8301886119bd565b611e766020830187611984565b611e836040830186611e47565b611e9060608301856119bd565b611e9d6080830184611984565b9695505050505050565b5f608082019050611eba5f8301876119bd565b611ec76020830186611984565b611ed460408301856119bd565b611ee16060830184611d4f565b95945050505050565b611ef381611870565b8114611efd575f5ffd5b50565b5f81519050611f0e81611eea565b92915050565b5f5f5f5f5f60a08688031215611f2d57611f2c6118a3565b5b5f611f3a88828901611ba7565b9550506020611f4b88828901611ba7565b9450506040611f5c88828901611be6565b9350506060611f6d88828901611be6565b9250506080611f7e88828901611f00565b9150509295509295909350565b7f636f6c6c656374696f6e206e6f742072657772697474656e00000000000000005f82015250565b5f611fbf601883611a10565b9150611fca82611f8b565b602082019050919050565b5f6020820190508181035f830152611fec81611fb3565b9050919050565b7f746f6b656e206964206d69736d617463680000000000000000000000000000005f82015250565b5f612027601183611a10565b915061203282611ff3565b602082019050919050565b5f6020820190508181035f8301526120548161201b565b9050919050565b7f6e667454797065206e6f742070726573657276656400000000000000000000005f82015250565b5f61208f601583611a10565b915061209a8261205b565b602082019050919050565b5f6020820190508181035f8301526120bc81612083565b9050919050565b7f756e65787065637465642077697468647261776e206f726465720000000000005f82015250565b5f6120f7601a83611a10565b9150612102826120c3565b602082019050919050565b5f6020820190508181035f830152612124816120eb565b9050919050565b5f60408201905061213e5f8301856119bd565b61214b6020830184611984565b9392505050565b5f61215c826118a7565b9150612167836118a7565b925082820390508181111561217f5761217e611a88565b5b9291505056fe6080604052348015600e575f5ffd5b50610fce8061001c5f395ff3fe608060405260043610610049575f3560e01c8063581781681461004d5780638264fe98146100895780638b72a2ec146100a5578063ad5ae76f146100cd578063bf31196f146100f5575b5f5ffd5b348015610058575f5ffd5b50610073600480360381019061006e9190610ae2565b61011d565b6040516100809190610b4c565b60405180910390f35b6100a3600480360381019061009e9190610ae2565b610155565b005b3480156100b0575f5ffd5b506100cb60048036038101906100c69190610b8f565b61060c565b005b3480156100d8575f5ffd5b506100f360048036038101906100ee9190610ae2565b6107a1565b005b348015610100575f5ffd5b5061011b60048036038101906101169190610bcd565b6108e2565b005b5f5f5f8381526020019081526020015f205f9054906101000a900473ffffffffffffffffffffffffffffffffffffffff169050919050565b5f60025f8381526020019081526020015f206040518060a00160405290815f82015f9054906101000a900460ff1615151515815260200160018201548152602001600282015f9054906101000a900473ffffffffffffffffffffffffffffffffffffffff1673ffffffffffffffffffffffffffffffffffffffff1673ffffffffffffffffffffffffffffffffffffffff16815260200160038201548152602001600482015f9054906101000a900473ffffffffffffffffffffffffffffffffffffffff1673ffffffffffffffffffffffffffffffffffffffff1673ffffffffffffffffffffffffffffffffffffffff16815250509050805f015161028e576040517f08c379a000000000000000000000000000000000000000000000000000000000815260040161028590610c77565b60405180910390fd5b5f8160600151146102d4576040517f08c379a00000000000000000000000000000000000000000000000000000000081526004016102cb90610cdf565b60405180910390fd5b5f73ffffffffffffffffffffffffffffffffffffffff16816080015173ffffffffffffffffffffffffffffffffffffffff16148061034157503373ffffffffffffffffffffffffffffffffffffffff16816080015173ffffffffffffffffffffffffffffffffffffffff16145b610380576040517f08c379a000000000000000000000000000000000000000000000000000000000815260040161037790610d47565b60405180910390fd5b5f816040015190505f73ffffffffffffffffffffffffffffffffffffffff168173ffffffffffffffffffffffffffffffffffffffff16036103f6576040517f08c379a00000000000000000000000000000000000000000000000000000000081526004016103ed90610daf565b60405180910390fd5b8073ffffffffffffffffffffffffffffffffffffffff165f5f8581526020019081526020015f205f9054906101000a900473ffffffffffffffffffffffffffffffffffffffff1673ffffffffffffffffffffffffffffffffffffffff1614610493576040517f08c379a000000000000000000000000000000000000000000000000000000000815260040161048a90610e17565b60405180910390fd5b335f5f8581526020019081526020015f205f6101000a81548173ffffffffffffffffffffffffffffffffffffffff021916908373ffffffffffffffffffffffffffffffffffffffff1602179055506001805f8373ffffffffffffffffffffffffffffffffffffffff1673ffffffffffffffffffffffffffffffffffffffff1681526020019081526020015f205f82825461052d9190610e62565b925050819055506001805f3373ffffffffffffffffffffffffffffffffffffffff1673ffffffffffffffffffffffffffffffffffffffff1681526020019081526020015f205f8282546105809190610e95565b9250508190555060025f8481526020019081526020015f205f5f82015f6101000a81549060ff0219169055600182015f9055600282015f6101000a81549073ffffffffffffffffffffffffffffffffffffffff0219169055600382015f9055600482015f6101000a81549073ffffffffffffffffffffffffffffffffffffffff02191690555050505050565b3373ffffffffffffffffffffffffffffffffffffffff165f5f8381526020019081526020015f205f9054906101000a900473ffffffffffffffffffffffffffffffffffffffff1673ffffffffffffffffffffffffffffffffffffffff16146106a9576040517f08c379a00000000000000000000000000000000000000000000000000000000081526004016106a090610f12565b60405180910390fd5b815f5f8381526020019081526020015f205f6101000a81548173ffffffffffffffffffffffffffffffffffffffff021916908373ffffffffffffffffffffffffffffffffffffffff1602179055506001805f3373ffffffffffffffffffffffffffffffffffffffff1673ffffffffffffffffffffffffffffffffffffffff1681526020019081526020015f205f8282546107439190610e62565b925050819055506001805f8473ffffffffffffffffffffffffffffffffffffffff1673ffffffffffffffffffffffffffffffffffffffff1681526020019081526020015f205f8282546107969190610e95565b925050819055505050565b5f73ffffffffffffffffffffffffffffffffffffffff165f5f8381526020019081526020015f205f9054906101000a900473ffffffffffffffffffffffffffffffffffffffff1673ffffffffffffffffffffffffffffffffffffffff161461083e576040517f08c379a000000000000000000000000000000000000000000000000000000000815260040161083590610f7a565b60405180910390fd5b335f5f8381526020019081526020015f205f6101000a81548173ffffffffffffffffffffffffffffffffffffffff021916908373ffffffffffffffffffffffffffffffffffffffff1602179055506001805f3373ffffffffffffffffffffffffffffffffffffffff1673ffffffffffffffffffffffffffffffffffffffff1681526020019081526020015f205f8282546108d89190610e95565b9250508190555050565b3373ffffffffffffffffffffffffffffffffffffffff165f5f8581526020019081526020015f205f9054906101000a900473ffffffffffffffffffffffffffffffffffffffff1673ffffffffffffffffffffffffffffffffffffffff161461097f576040517f08c379a000000000000000000000000000000000000000000000000000000000815260040161097690610f12565b60405180910390fd5b6040518060a001604052806001151581526020018481526020013373ffffffffffffffffffffffffffffffffffffffff1681526020018381526020018273ffffffffffffffffffffffffffffffffffffffff1681525060025f8581526020019081526020015f205f820151815f015f6101000a81548160ff021916908315150217905550602082015181600101556040820151816002015f6101000a81548173ffffffffffffffffffffffffffffffffffffffff021916908373ffffffffffffffffffffffffffffffffffffffff160217905550606082015181600301556080820151816004015f6101000a81548173ffffffffffffffffffffffffffffffffffffffff021916908373ffffffffffffffffffffffffffffffffffffffff160217905550905050505050565b5f5ffd5b5f819050919050565b610ac181610aaf565b8114610acb575f5ffd5b50565b5f81359050610adc81610ab8565b92915050565b5f60208284031215610af757610af6610aab565b5b5f610b0484828501610ace565b91505092915050565b5f73ffffffffffffffffffffffffffffffffffffffff82169050919050565b5f610b3682610b0d565b9050919050565b610b4681610b2c565b82525050565b5f602082019050610b5f5f830184610b3d565b92915050565b610b6e81610b2c565b8114610b78575f5ffd5b50565b5f81359050610b8981610b65565b92915050565b5f5f60408385031215610ba557610ba4610aab565b5b5f610bb285828601610b7b565b9250506020610bc385828601610ace565b9150509250929050565b5f5f5f60608486031215610be457610be3610aab565b5b5f610bf186828701610ace565b9350506020610c0286828701610ace565b9250506040610c1386828701610b7b565b9150509250925092565b5f82825260208201905092915050565b7f6e6f7420666f722073616c6500000000000000000000000000000000000000005f82015250565b5f610c61600c83610c1d565b9150610c6c82610c2d565b602082019050919050565b5f6020820190508181035f830152610c8e81610c55565b9050919050565b7f70726963652073657400000000000000000000000000000000000000000000005f82015250565b5f610cc9600983610c1d565b9150610cd482610c95565b602082019050919050565b5f6020820190508181035f830152610cf681610cbd565b9050919050565b7f72657374726963746564000000000000000000000000000000000000000000005f82015250565b5f610d31600a83610c1d565b9150610d3c82610cfd565b602082019050919050565b5f6020820190508181035f830152610d5e81610d25565b9050919050565b7f696e76616c69642073656c6c65720000000000000000000000000000000000005f82015250565b5f610d99600e83610c1d565b9150610da482610d65565b602082019050919050565b5f6020820190508181035f830152610dc681610d8d565b9050919050565b7f73656c6c6572206d69736d6174636800000000000000000000000000000000005f82015250565b5f610e01600f83610c1d565b9150610e0c82610dcd565b602082019050919050565b5f6020820190508181035f830152610e2e81610df5565b9050919050565b7f4e487b71000000000000000000000000000000000000000000000000000000005f52601160045260245ffd5b5f610e6c82610aaf565b9150610e7783610aaf565b9250828203905081811115610e8f57610e8e610e35565b5b92915050565b5f610e9f82610aaf565b9150610eaa83610aaf565b9250828201905080821115610ec257610ec1610e35565b5b92915050565b7f6e6f74206f776e657200000000000000000000000000000000000000000000005f82015250565b5f610efc600983610c1d565b9150610f0782610ec8565b602082019050919050565b5f6020820190508181035f830152610f2981610ef0565b9050919050565b7f616c726561647920636c61696d656400000000000000000000000000000000005f82015250565b5f610f64600f83610c1d565b9150610f6f82610f30565b602082019050919050565b5f6020820190508181035f830152610f9181610f58565b905091905056fea26469706673582212206bfc3edf6bde16e304b73ffca840ba391ad65b983152cd0176089a1e688d2fba64736f6c634300081e00336080604052348015600e575f5ffd5b506106a68061001c5f395ff3fe60806040526004361061004d575f3560e01c806342842e0e146100c85780636352211e146100f0578063a0712d681461012c578063a9c7b2c814610154578063ddd81f82146101905761008d565b3661008d576040517f08c379a00000000000000000000000000000000000000000000000000000000081526004016100849061048b565b60405180910390fd5b6040517f08c379a00000000000000000000000000000000000000000000000000000000081526004016100bf9061048b565b60405180910390fd5b3480156100d3575f5ffd5b506100ee60048036038101906100e9919061053a565b6101a6565b005b3480156100fb575f5ffd5b506101166004803603810190610111919061058a565b610298565b60405161012391906105c4565b60405180910390f35b348015610137575f5ffd5b50610152600480360381019061014d919061058a565b6102c8565b005b34801561015f575f5ffd5b5061017a600480360381019061017591906105dd565b61031a565b60405161018791906105c4565b60405180910390f35b34801561019b575f5ffd5b506101a46103b5565b005b8273ffffffffffffffffffffffffffffffffffffffff1660015f8381526020019081526020015f205f9054906101000a900473ffffffffffffffffffffffffffffffffffffffff1673ffffffffffffffffffffffffffffffffffffffff1614610244576040517f08c379a000000000000000000000000000000000000000000000000000000000815260040161023b90610652565b60405180910390fd5b8160015f8381526020019081526020015f205f6101000a81548173ffffffffffffffffffffffffffffffffffffffff021916908373ffffffffffffffffffffffffffffffffffffffff160217905550505050565b6001602052805f5260405f205f915054906101000a900473ffffffffffffffffffffffffffffffffffffffff1681565b3360015f8381526020019081526020015f205f6101000a81548173ffffffffffffffffffffffffffffffffffffffff021916908373ffffffffffffffffffffffffffffffffffffffff16021790555050565b5f5f5f8373ffffffffffffffffffffffffffffffffffffffff1673ffffffffffffffffffffffffffffffffffffffff1681526020019081526020015f205f9054906101000a900473ffffffffffffffffffffffffffffffffffffffff1690505f73ffffffffffffffffffffffffffffffffffffffff168173ffffffffffffffffffffffffffffffffffffffff16036103b0573090505b919050565b305f5f3373ffffffffffffffffffffffffffffffffffffffff1673ffffffffffffffffffffffffffffffffffffffff1681526020019081526020015f205f6101000a81548173ffffffffffffffffffffffffffffffffffffffff021916908373ffffffffffffffffffffffffffffffffffffffff160217905550565b5f82825260208201905092915050565b7f657263373231206f6e6c790000000000000000000000000000000000000000005f82015250565b5f610475600b83610431565b915061048082610441565b602082019050919050565b5f6020820190508181035f8301526104a281610469565b9050919050565b5f5ffd5b5f73ffffffffffffffffffffffffffffffffffffffff82169050919050565b5f6104d6826104ad565b9050919050565b6104e6816104cc565b81146104f0575f5ffd5b50565b5f81359050610501816104dd565b92915050565b5f819050919050565b61051981610507565b8114610523575f5ffd5b50565b5f8135905061053481610510565b92915050565b5f5f5f60608486031215610551576105506104a9565b5b5f61055e868287016104f3565b935050602061056f868287016104f3565b925050604061058086828701610526565b9150509250925092565b5f6020828403121561059f5761059e6104a9565b5b5f6105ac84828501610526565b91505092915050565b6105be816104cc565b82525050565b5f6020820190506105d75f8301846105b5565b92915050565b5f602082840312156105f2576105f16104a9565b5b5f6105ff848285016104f3565b91505092915050565b7f6e6f74206f776e657200000000000000000000000000000000000000000000005f82015250565b5f61063c600983610431565b915061064782610608565b602082019050919050565b5f6020820190508181035f83015261066981610630565b905091905056fea2646970667358221220ad0f5c527c0cdf7dd56be4b03ecc552e0c576d639a6af6a2d904195400c9b67f64736f6c634300081e00336080604052348015600e575f5ffd5b506102128061001c5f395ff3fe608060405234801561000f575f5ffd5b506004361061003f575f3560e01c80636f307dc3146100435780637158da7c14610061578063bdb2321f1461007f575b5f5ffd5b61004b61009b565b604051610058919061016a565b60405180910390f35b6100696100c2565b604051610076919061016a565b60405180910390f35b610099600480360381019061009491906101b1565b6100e9565b005b5f5f5f9054906101000a900473ffffffffffffffffffffffffffffffffffffffff16905090565b5f5f5f9054906101000a900473ffffffffffffffffffffffffffffffffffffffff16905090565b805f5f6101000a81548173ffffffffffffffffffffffffffffffffffffffff021916908373ffffffffffffffffffffffffffffffffffffffff16021790555050565b5f73ffffffffffffffffffffffffffffffffffffffff82169050919050565b5f6101548261012b565b9050919050565b6101648161014a565b82525050565b5f60208201905061017d5f83018461015b565b92915050565b5f5ffd5b6101908161014a565b811461019a575f5ffd5b50565b5f813590506101ab81610187565b92915050565b5f602082840312156101c6576101c5610183565b5b5f6101d38482850161019d565b9150509291505056fea264697066735822122097ce0a18b6f1a2ad5e4db9a352af410f874cd65e316bd4657a2e555946e4b61e64736f6c634300081e0033a26469706673582212209c726cdd21f53e22aa1f789205d8ef88cf00cd3d8b056240e4f2e0474b6da40064736f6c634300081e0033","linkReferences":{}},"methodIdentifiers":{"TARGET()":"cc1f2afa","borrow(uint256,address,uint256)":"0c28d13e","borrowBalanceCurrent(uint256)":"d9af3db8","executeOnOpportunity()":"3c2448ed","executed()":"31a38c89","exploitedBorrowAmount()":"3ba9b427","exploitedOrderId()":"44788bfa","exploitedPunkId()":"8876d930","exploitedXToken()":"803bd245","getOrderBorrowBalanceCurrent(uint256)":"af13fe93","hypothesisValidated()":"463defd1","infeasibleReason()":"a6652157","profitAmount()":"5ff972cc","profitToken()":"49343624","stageBorrowWith1155()":"89564a8f","stageLaterTransferPathAttempted()":"05783854","stageLaterTransferPathReverted()":"9cc642bf","stageWrappedPunkRecordedAs1155()":"ed059985","underlying()":"6f307dc3"},"id":0}