{"abi":[{"type":"function","name":"getOrderBorrowBalanceCurrent","inputs":[{"name":"","type":"uint256","internalType":"uint256"}],"outputs":[{"name":"","type":"uint256","internalType":"uint256"}],"stateMutability":"pure"},{"type":"function","name":"setXNFT","inputs":[{"name":"target","type":"address","internalType":"address"}],"outputs":[],"stateMutability":"nonpayable"},{"type":"function","name":"triggerLiquidation","inputs":[{"name":"xToken","type":"address","internalType":"address"},{"name":"orderId","type":"uint256","internalType":"uint256"},{"name":"liquidator","type":"address","internalType":"address"},{"name":"liquidatedPrice","type":"uint256","internalType":"uint256"}],"outputs":[],"stateMutability":"nonpayable"},{"type":"function","name":"xnft","inputs":[],"outputs":[{"name":"","type":"address","internalType":"address"}],"stateMutability":"view"}],"bytecode":{"object":"0x6080604052348015600e575f5ffd5b506103e98061001c5f395ff3fe608060405234801561000f575f5ffd5b506004361061004a575f3560e01c80632021a24c1461004e578063438376a21461006c5780634f07049214610088578063af13fe93146100a4575b5f5ffd5b6100566100d4565b6040516100639190610214565b60405180910390f35b6100866004803603810190610081919061028e565b6100f8565b005b6100a2600480360381019061009d91906102f2565b61018a565b005b6100be60048036038101906100b9919061031d565b6101cc565b6040516100cb9190610357565b60405180910390f35b5f5f9054906101000a900473ffffffffffffffffffffffffffffffffffffffff1681565b5f5f9054906101000a900473ffffffffffffffffffffffffffffffffffffffff1673ffffffffffffffffffffffffffffffffffffffff1663cd063eb9858585856040518563ffffffff1660e01b81526004016101579493929190610370565b5f604051808303815f87803b15801561016e575f5ffd5b505af1158015610180573d5f5f3e3d5ffd5b5050505050505050565b805f5f6101000a81548173ffffffffffffffffffffffffffffffffffffffff021916908373ffffffffffffffffffffffffffffffffffffffff16021790555050565b5f5f9050919050565b5f73ffffffffffffffffffffffffffffffffffffffff82169050919050565b5f6101fe826101d5565b9050919050565b61020e816101f4565b82525050565b5f6020820190506102275f830184610205565b92915050565b5f5ffd5b61023a816101f4565b8114610244575f5ffd5b50565b5f8135905061025581610231565b92915050565b5f819050919050565b61026d8161025b565b8114610277575f5ffd5b50565b5f8135905061028881610264565b92915050565b5f5f5f5f608085870312156102a6576102a561022d565b5b5f6102b387828801610247565b94505060206102c48782880161027a565b93505060406102d587828801610247565b92505060606102e68782880161027a565b91505092959194509250565b5f602082840312156103075761030661022d565b5b5f61031484828501610247565b91505092915050565b5f602082840312156103325761033161022d565b5b5f61033f8482850161027a565b91505092915050565b6103518161025b565b82525050565b5f60208201905061036a5f830184610348565b92915050565b5f6080820190506103835f830187610205565b6103906020830186610348565b61039d6040830185610205565b6103aa6060830184610348565b9594505050505056fea26469706673582212203f1944c1c5246c02bc414a65517da872e60e365716475b474057ca96b9ee051f64736f6c634300081e0033","linkReferences":{}},"methodIdentifiers":{"getOrderBorrowBalanceCurrent(uint256)":"af13fe93","setXNFT(address)":"4f070492","triggerLiquidation(address,uint256,address,uint256)":"438376a2","xnft()":"2021a24c"},"id":0}