{"abi":[{"type":"function","name":"buyPunk","inputs":[{"name":"punkIndex","type":"uint256","internalType":"uint256"}],"outputs":[],"stateMutability":"payable"},{"type":"function","name":"claimPunk","inputs":[{"name":"punkId","type":"uint256","internalType":"uint256"}],"outputs":[],"stateMutability":"nonpayable"},{"type":"function","name":"offerPunkForSaleToAddress","inputs":[{"name":"punkIndex","type":"uint256","internalType":"uint256"},{"name":"minSalePriceInWei","type":"uint256","internalType":"uint256"},{"name":"toAddress","type":"address","internalType":"address"}],"outputs":[],"stateMutability":"nonpayable"},{"type":"function","name":"punkIndexToAddress","inputs":[{"name":"punkIndex","type":"uint256","internalType":"uint256"}],"outputs":[{"name":"owner","type":"address","internalType":"address"}],"stateMutability":"view"},{"type":"function","name":"transferPunk","inputs":[{"name":"to","type":"address","internalType":"address"},{"name":"punkIndex","type":"uint256","internalType":"uint256"}],"outputs":[],"stateMutability":"nonpayable"}],"bytecode":{"object":"0x6080604052348015600e575f5ffd5b50610fce8061001c5f395ff3fe608060405260043610610049575f3560e01c8063581781681461004d5780638264fe98146100895780638b72a2ec146100a5578063ad5ae76f146100cd578063bf31196f146100f5575b5f5ffd5b348015610058575f5ffd5b50610073600480360381019061006e9190610ae2565b61011d565b6040516100809190610b4c565b60405180910390f35b6100a3600480360381019061009e9190610ae2565b610155565b005b3480156100b0575f5ffd5b506100cb60048036038101906100c69190610b8f565b61060c565b005b3480156100d8575f5ffd5b506100f360048036038101906100ee9190610ae2565b6107a1565b005b348015610100575f5ffd5b5061011b60048036038101906101169190610bcd565b6108e2565b005b5f5f5f8381526020019081526020015f205f9054906101000a900473ffffffffffffffffffffffffffffffffffffffff169050919050565b5f60025f8381526020019081526020015f206040518060a00160405290815f82015f9054906101000a900460ff1615151515815260200160018201548152602001600282015f9054906101000a900473ffffffffffffffffffffffffffffffffffffffff1673ffffffffffffffffffffffffffffffffffffffff1673ffffffffffffffffffffffffffffffffffffffff16815260200160038201548152602001600482015f9054906101000a900473ffffffffffffffffffffffffffffffffffffffff1673ffffffffffffffffffffffffffffffffffffffff1673ffffffffffffffffffffffffffffffffffffffff16815250509050805f015161028e576040517f08c379a000000000000000000000000000000000000000000000000000000000815260040161028590610c77565b60405180910390fd5b5f8160600151146102d4576040517f08c379a00000000000000000000000000000000000000000000000000000000081526004016102cb90610cdf565b60405180910390fd5b5f73ffffffffffffffffffffffffffffffffffffffff16816080015173ffffffffffffffffffffffffffffffffffffffff16148061034157503373ffffffffffffffffffffffffffffffffffffffff16816080015173ffffffffffffffffffffffffffffffffffffffff16145b610380576040517f08c379a000000000000000000000000000000000000000000000000000000000815260040161037790610d47565b60405180910390fd5b5f816040015190505f73ffffffffffffffffffffffffffffffffffffffff168173ffffffffffffffffffffffffffffffffffffffff16036103f6576040517f08c379a00000000000000000000000000000000000000000000000000000000081526004016103ed90610daf565b60405180910390fd5b8073ffffffffffffffffffffffffffffffffffffffff165f5f8581526020019081526020015f205f9054906101000a900473ffffffffffffffffffffffffffffffffffffffff1673ffffffffffffffffffffffffffffffffffffffff1614610493576040517f08c379a000000000000000000000000000000000000000000000000000000000815260040161048a90610e17565b60405180910390fd5b335f5f8581526020019081526020015f205f6101000a81548173ffffffffffffffffffffffffffffffffffffffff021916908373ffffffffffffffffffffffffffffffffffffffff1602179055506001805f8373ffffffffffffffffffffffffffffffffffffffff1673ffffffffffffffffffffffffffffffffffffffff1681526020019081526020015f205f82825461052d9190610e62565b925050819055506001805f3373ffffffffffffffffffffffffffffffffffffffff1673ffffffffffffffffffffffffffffffffffffffff1681526020019081526020015f205f8282546105809190610e95565b9250508190555060025f8481526020019081526020015f205f5f82015f6101000a81549060ff0219169055600182015f9055600282015f6101000a81549073ffffffffffffffffffffffffffffffffffffffff0219169055600382015f9055600482015f6101000a81549073ffffffffffffffffffffffffffffffffffffffff02191690555050505050565b3373ffffffffffffffffffffffffffffffffffffffff165f5f8381526020019081526020015f205f9054906101000a900473ffffffffffffffffffffffffffffffffffffffff1673ffffffffffffffffffffffffffffffffffffffff16146106a9576040517f08c379a00000000000000000000000000000000000000000000000000000000081526004016106a090610f12565b60405180910390fd5b815f5f8381526020019081526020015f205f6101000a81548173ffffffffffffffffffffffffffffffffffffffff021916908373ffffffffffffffffffffffffffffffffffffffff1602179055506001805f3373ffffffffffffffffffffffffffffffffffffffff1673ffffffffffffffffffffffffffffffffffffffff1681526020019081526020015f205f8282546107439190610e62565b925050819055506001805f8473ffffffffffffffffffffffffffffffffffffffff1673ffffffffffffffffffffffffffffffffffffffff1681526020019081526020015f205f8282546107969190610e95565b925050819055505050565b5f73ffffffffffffffffffffffffffffffffffffffff165f5f8381526020019081526020015f205f9054906101000a900473ffffffffffffffffffffffffffffffffffffffff1673ffffffffffffffffffffffffffffffffffffffff161461083e576040517f08c379a000000000000000000000000000000000000000000000000000000000815260040161083590610f7a565b60405180910390fd5b335f5f8381526020019081526020015f205f6101000a81548173ffffffffffffffffffffffffffffffffffffffff021916908373ffffffffffffffffffffffffffffffffffffffff1602179055506001805f3373ffffffffffffffffffffffffffffffffffffffff1673ffffffffffffffffffffffffffffffffffffffff1681526020019081526020015f205f8282546108d89190610e95565b9250508190555050565b3373ffffffffffffffffffffffffffffffffffffffff165f5f8581526020019081526020015f205f9054906101000a900473ffffffffffffffffffffffffffffffffffffffff1673ffffffffffffffffffffffffffffffffffffffff161461097f576040517f08c379a000000000000000000000000000000000000000000000000000000000815260040161097690610f12565b60405180910390fd5b6040518060a001604052806001151581526020018481526020013373ffffffffffffffffffffffffffffffffffffffff1681526020018381526020018273ffffffffffffffffffffffffffffffffffffffff1681525060025f8581526020019081526020015f205f820151815f015f6101000a81548160ff021916908315150217905550602082015181600101556040820151816002015f6101000a81548173ffffffffffffffffffffffffffffffffffffffff021916908373ffffffffffffffffffffffffffffffffffffffff160217905550606082015181600301556080820151816004015f6101000a81548173ffffffffffffffffffffffffffffffffffffffff021916908373ffffffffffffffffffffffffffffffffffffffff160217905550905050505050565b5f5ffd5b5f819050919050565b610ac181610aaf565b8114610acb575f5ffd5b50565b5f81359050610adc81610ab8565b92915050565b5f60208284031215610af757610af6610aab565b5b5f610b0484828501610ace565b91505092915050565b5f73ffffffffffffffffffffffffffffffffffffffff82169050919050565b5f610b3682610b0d565b9050919050565b610b4681610b2c565b82525050565b5f602082019050610b5f5f830184610b3d565b92915050565b610b6e81610b2c565b8114610b78575f5ffd5b50565b5f81359050610b8981610b65565b92915050565b5f5f60408385031215610ba557610ba4610aab565b5b5f610bb285828601610b7b565b9250506020610bc385828601610ace565b9150509250929050565b5f5f5f60608486031215610be457610be3610aab565b5b5f610bf186828701610ace565b9350506020610c0286828701610ace565b9250506040610c1386828701610b7b565b9150509250925092565b5f82825260208201905092915050565b7f6e6f7420666f722073616c6500000000000000000000000000000000000000005f82015250565b5f610c61600c83610c1d565b9150610c6c82610c2d565b602082019050919050565b5f6020820190508181035f830152610c8e81610c55565b9050919050565b7f70726963652073657400000000000000000000000000000000000000000000005f82015250565b5f610cc9600983610c1d565b9150610cd482610c95565b602082019050919050565b5f6020820190508181035f830152610cf681610cbd565b9050919050565b7f72657374726963746564000000000000000000000000000000000000000000005f82015250565b5f610d31600a83610c1d565b9150610d3c82610cfd565b602082019050919050565b5f6020820190508181035f830152610d5e81610d25565b9050919050565b7f696e76616c69642073656c6c65720000000000000000000000000000000000005f82015250565b5f610d99600e83610c1d565b9150610da482610d65565b602082019050919050565b5f6020820190508181035f830152610dc681610d8d565b9050919050565b7f73656c6c6572206d69736d6174636800000000000000000000000000000000005f82015250565b5f610e01600f83610c1d565b9150610e0c82610dcd565b602082019050919050565b5f6020820190508181035f830152610e2e81610df5565b9050919050565b7f4e487b71000000000000000000000000000000000000000000000000000000005f52601160045260245ffd5b5f610e6c82610aaf565b9150610e7783610aaf565b9250828203905081811115610e8f57610e8e610e35565b5b92915050565b5f610e9f82610aaf565b9150610eaa83610aaf565b9250828201905080821115610ec257610ec1610e35565b5b92915050565b7f6e6f74206f776e657200000000000000000000000000000000000000000000005f82015250565b5f610efc600983610c1d565b9150610f0782610ec8565b602082019050919050565b5f6020820190508181035f830152610f2981610ef0565b9050919050565b7f616c726561647920636c61696d656400000000000000000000000000000000005f82015250565b5f610f64600f83610c1d565b9150610f6f82610f30565b602082019050919050565b5f6020820190508181035f830152610f9181610f58565b905091905056fea26469706673582212206bfc3edf6bde16e304b73ffca840ba391ad65b983152cd0176089a1e688d2fba64736f6c634300081e0033","linkReferences":{}},"methodIdentifiers":{"buyPunk(uint256)":"8264fe98","claimPunk(uint256)":"ad5ae76f","offerPunkForSaleToAddress(uint256,uint256,address)":"bf31196f","punkIndexToAddress(uint256)":"58178168","transferPunk(address,uint256)":"8b72a2ec"},"id":0}