{"abi":[{"type":"receive","stateMutability":"payable"},{"type":"function","name":"ADDRESS_ETH","inputs":[],"outputs":[{"name":"","type":"address","internalType":"address"}],"stateMutability":"view"},{"type":"function","name":"borrow","inputs":[{"name":"orderId","type":"uint256","internalType":"uint256"},{"name":"borrower","type":"address","internalType":"address payable"},{"name":"borrowAmount","type":"uint256","internalType":"uint256"}],"outputs":[],"stateMutability":"nonpayable"},{"type":"function","name":"borrowBalanceCurrent","inputs":[{"name":"orderId","type":"uint256","internalType":"uint256"}],"outputs":[{"name":"","type":"uint256","internalType":"uint256"}],"stateMutability":"view"},{"type":"function","name":"debtOf","inputs":[{"name":"","type":"uint256","internalType":"uint256"}],"outputs":[{"name":"","type":"uint256","internalType":"uint256"}],"stateMutability":"view"},{"type":"function","name":"repayBorrow","inputs":[{"name":"orderId","type":"uint256","internalType":"uint256"},{"name":"","type":"address","internalType":"address"},{"name":"repayAmount","type":"uint256","internalType":"uint256"}],"outputs":[],"stateMutability":"payable"},{"type":"function","name":"setUnderlying","inputs":[{"name":"asset","type":"address","internalType":"address"}],"outputs":[],"stateMutability":"nonpayable"},{"type":"function","name":"underlying","inputs":[],"outputs":[{"name":"","type":"address","internalType":"address"}],"stateMutability":"view"},{"type":"function","name":"underlyingAsset","inputs":[],"outputs":[{"name":"","type":"address","internalType":"address"}],"stateMutability":"view"}],"bytecode":{"object":"0x6080604052348015600e575f5ffd5b50610d488061001c5f395ff3fe60806040526004361061007e575f3560e01c8063815656001161004d578063815656001461012f578063bd7be5a41461014b578063bdb2321f14610187578063d9af3db8146101af57610085565b80630c28d13e14610089578063449d9565146100b15780636f307dc3146100db5780637158da7c1461010557610085565b3661008557005b5f5ffd5b348015610094575f5ffd5b506100af60048036038101906100aa919061078e565b6101eb565b005b3480156100bc575f5ffd5b506100c5610452565b6040516100d291906107fe565b60405180910390f35b3480156100e6575f5ffd5b506100ef61046a565b6040516100fc91906107fe565b60405180910390f35b348015610110575f5ffd5b50610119610491565b60405161012691906107fe565b60405180910390f35b61014960048036038101906101449190610841565b6104b5565b005b348015610156575f5ffd5b50610171600480360381019061016c9190610891565b61068c565b60405161017e91906108cb565b60405180910390f35b348015610192575f5ffd5b506101ad60048036038101906101a891906108e4565b6106a1565b005b3480156101ba575f5ffd5b506101d560048036038101906101d09190610891565b6106e3565b6040516101e291906108cb565b60405180910390f35b8060015f8581526020019081526020015f205f82825461020b919061093c565b925050819055505f81031561044d5773eeeeeeeeeeeeeeeeeeeeeeeeeeeeeeeeeeeeeeee73ffffffffffffffffffffffffffffffffffffffff165f5f9054906101000a900473ffffffffffffffffffffffffffffffffffffffff1673ffffffffffffffffffffffffffffffffffffffff160361037257804710156102c4576040517f08c379a00000000000000000000000000000000000000000000000000000000081526004016102bb906109c9565b60405180910390fd5b5f8273ffffffffffffffffffffffffffffffffffffffff16826040516102e990610a14565b5f6040518083038185875af1925050503d805f8114610323576040519150601f19603f3d011682016040523d82523d5f602084013e610328565b606091505b505090508061036c576040517f08c379a000000000000000000000000000000000000000000000000000000000815260040161036390610a72565b60405180910390fd5b5061044d565b5f5f9054906101000a900473ffffffffffffffffffffffffffffffffffffffff1673ffffffffffffffffffffffffffffffffffffffff1663a9059cbb83836040518363ffffffff1660e01b81526004016103cd929190610aeb565b6020604051808303815f875af11580156103e9573d5f5f3e3d5ffd5b505050506040513d601f19601f8201168201806040525081019061040d9190610b47565b61044c576040517f08c379a000000000000000000000000000000000000000000000000000000000815260040161044390610bbc565b60405180910390fd5b5b505050565b73eeeeeeeeeeeeeeeeeeeeeeeeeeeeeeeeeeeeeeee81565b5f5f5f9054906101000a900473ffffffffffffffffffffffffffffffffffffffff16905090565b5f5f9054906101000a900473ffffffffffffffffffffffffffffffffffffffff1681565b73eeeeeeeeeeeeeeeeeeeeeeeeeeeeeeeeeeeeeeee73ffffffffffffffffffffffffffffffffffffffff165f5f9054906101000a900473ffffffffffffffffffffffffffffffffffffffff1673ffffffffffffffffffffffffffffffffffffffff1603610564578034101561055f576040517f08c379a000000000000000000000000000000000000000000000000000000000815260040161055690610c24565b60405180910390fd5b610641565b5f5f9054906101000a900473ffffffffffffffffffffffffffffffffffffffff1673ffffffffffffffffffffffffffffffffffffffff166323b872dd3330846040518463ffffffff1660e01b81526004016105c193929190610c42565b6020604051808303815f875af11580156105dd573d5f5f3e3d5ffd5b505050506040513d601f19601f820116820180604052508101906106019190610b47565b610640576040517f08c379a000000000000000000000000000000000000000000000000000000000815260040161063790610cc1565b60405180910390fd5b5b5f60015f8581526020019081526020015f205490508082101561066f57818161066a9190610cdf565b610671565b5f5b60015f8681526020019081526020015f208190555050505050565b6001602052805f5260405f205f915090505481565b805f5f6101000a81548173ffffffffffffffffffffffffffffffffffffffff021916908373ffffffffffffffffffffffffffffffffffffffff16021790555050565b5f60015f8381526020019081526020015f20549050919050565b5f5ffd5b5f819050919050565b61071381610701565b811461071d575f5ffd5b50565b5f8135905061072e8161070a565b92915050565b5f73ffffffffffffffffffffffffffffffffffffffff82169050919050565b5f61075d82610734565b9050919050565b61076d81610753565b8114610777575f5ffd5b50565b5f8135905061078881610764565b92915050565b5f5f5f606084860312156107a5576107a46106fd565b5b5f6107b286828701610720565b93505060206107c38682870161077a565b92505060406107d486828701610720565b9150509250925092565b5f6107e882610734565b9050919050565b6107f8816107de565b82525050565b5f6020820190506108115f8301846107ef565b92915050565b610820816107de565b811461082a575f5ffd5b50565b5f8135905061083b81610817565b92915050565b5f5f5f60608486031215610858576108576106fd565b5b5f61086586828701610720565b93505060206108768682870161082d565b925050604061088786828701610720565b9150509250925092565b5f602082840312156108a6576108a56106fd565b5b5f6108b384828501610720565b91505092915050565b6108c581610701565b82525050565b5f6020820190506108de5f8301846108bc565b92915050565b5f602082840312156108f9576108f86106fd565b5b5f6109068482850161082d565b91505092915050565b7f4e487b71000000000000000000000000000000000000000000000000000000005f52601160045260245ffd5b5f61094682610701565b915061095183610701565b92508282019050808211156109695761096861090f565b5b92915050565b5f82825260208201905092915050565b7f696e73756666696369656e7420657468000000000000000000000000000000005f82015250565b5f6109b360108361096f565b91506109be8261097f565b602082019050919050565b5f6020820190508181035f8301526109e0816109a7565b9050919050565b5f81905092915050565b50565b5f6109ff5f836109e7565b9150610a0a826109f1565b5f82019050919050565b5f610a1e826109f4565b9150819050919050565b7f65746820626f72726f77206661696c65640000000000000000000000000000005f82015250565b5f610a5c60118361096f565b9150610a6782610a28565b602082019050919050565b5f6020820190508181035f830152610a8981610a50565b9050919050565b5f819050919050565b5f610ab3610aae610aa984610734565b610a90565b610734565b9050919050565b5f610ac482610a99565b9050919050565b5f610ad582610aba565b9050919050565b610ae581610acb565b82525050565b5f604082019050610afe5f830185610adc565b610b0b60208301846108bc565b9392505050565b5f8115159050919050565b610b2681610b12565b8114610b30575f5ffd5b50565b5f81519050610b4181610b1d565b92915050565b5f60208284031215610b5c57610b5b6106fd565b5b5f610b6984828501610b33565b91505092915050565b7f657263323020626f72726f77206661696c6564000000000000000000000000005f82015250565b5f610ba660138361096f565b9150610bb182610b72565b602082019050919050565b5f6020820190508181035f830152610bd381610b9a565b9050919050565b7f7265706179206574682073686f727400000000000000000000000000000000005f82015250565b5f610c0e600f8361096f565b9150610c1982610bda565b602082019050919050565b5f6020820190508181035f830152610c3b81610c02565b9050919050565b5f606082019050610c555f8301866107ef565b610c6260208301856107ef565b610c6f60408301846108bc565b949350505050565b7f7265706179207472616e73666572206661696c656400000000000000000000005f82015250565b5f610cab60158361096f565b9150610cb682610c77565b602082019050919050565b5f6020820190508181035f830152610cd881610c9f565b9050919050565b5f610ce982610701565b9150610cf483610701565b9250828203905081811115610d0c57610d0b61090f565b5b9291505056fea26469706673582212200c99cefff0ae98fa0ecb9b9d5dc4e162160c3d4aefc7700a287543026637e80e64736f6c634300081e0033","linkReferences":{}},"methodIdentifiers":{"ADDRESS_ETH()":"449d9565","borrow(uint256,address,uint256)":"0c28d13e","borrowBalanceCurrent(uint256)":"d9af3db8","debtOf(uint256)":"bd7be5a4","repayBorrow(uint256,address,uint256)":"81565600","setUnderlying(address)":"bdb2321f","underlying()":"6f307dc3","underlyingAsset()":"7158da7c"},"id":0}