{"abi":[{"type":"fallback","stateMutability":"payable"},{"type":"receive","stateMutability":"payable"},{"type":"function","name":"mint","inputs":[{"name":"punkId","type":"uint256","internalType":"uint256"}],"outputs":[],"stateMutability":"nonpayable"},{"type":"function","name":"ownerOf","inputs":[{"name":"","type":"uint256","internalType":"uint256"}],"outputs":[{"name":"","type":"address","internalType":"address"}],"stateMutability":"view"},{"type":"function","name":"proxyInfo","inputs":[{"name":"user","type":"address","internalType":"address"}],"outputs":[{"name":"proxy","type":"address","internalType":"address"}],"stateMutability":"view"},{"type":"function","name":"registerProxy","inputs":[],"outputs":[],"stateMutability":"nonpayable"},{"type":"function","name":"safeTransferFrom","inputs":[{"name":"from","type":"address","internalType":"address"},{"name":"to","type":"address","internalType":"address"},{"name":"tokenId","type":"uint256","internalType":"uint256"}],"outputs":[],"stateMutability":"nonpayable"}],"bytecode":{"object":"0x6080604052348015600e575f5ffd5b506106a68061001c5f395ff3fe60806040526004361061004d575f3560e01c806342842e0e146100c85780636352211e146100f0578063a0712d681461012c578063a9c7b2c814610154578063ddd81f82146101905761008d565b3661008d576040517f08c379a00000000000000000000000000000000000000000000000000000000081526004016100849061048b565b60405180910390fd5b6040517f08c379a00000000000000000000000000000000000000000000000000000000081526004016100bf9061048b565b60405180910390fd5b3480156100d3575f5ffd5b506100ee60048036038101906100e9919061053a565b6101a6565b005b3480156100fb575f5ffd5b506101166004803603810190610111919061058a565b610298565b60405161012391906105c4565b60405180910390f35b348015610137575f5ffd5b50610152600480360381019061014d919061058a565b6102c8565b005b34801561015f575f5ffd5b5061017a600480360381019061017591906105dd565b61031a565b60405161018791906105c4565b60405180910390f35b34801561019b575f5ffd5b506101a46103b5565b005b8273ffffffffffffffffffffffffffffffffffffffff1660015f8381526020019081526020015f205f9054906101000a900473ffffffffffffffffffffffffffffffffffffffff1673ffffffffffffffffffffffffffffffffffffffff1614610244576040517f08c379a000000000000000000000000000000000000000000000000000000000815260040161023b90610652565b60405180910390fd5b8160015f8381526020019081526020015f205f6101000a81548173ffffffffffffffffffffffffffffffffffffffff021916908373ffffffffffffffffffffffffffffffffffffffff160217905550505050565b6001602052805f5260405f205f915054906101000a900473ffffffffffffffffffffffffffffffffffffffff1681565b3360015f8381526020019081526020015f205f6101000a81548173ffffffffffffffffffffffffffffffffffffffff021916908373ffffffffffffffffffffffffffffffffffffffff16021790555050565b5f5f5f8373ffffffffffffffffffffffffffffffffffffffff1673ffffffffffffffffffffffffffffffffffffffff1681526020019081526020015f205f9054906101000a900473ffffffffffffffffffffffffffffffffffffffff1690505f73ffffffffffffffffffffffffffffffffffffffff168173ffffffffffffffffffffffffffffffffffffffff16036103b0573090505b919050565b305f5f3373ffffffffffffffffffffffffffffffffffffffff1673ffffffffffffffffffffffffffffffffffffffff1681526020019081526020015f205f6101000a81548173ffffffffffffffffffffffffffffffffffffffff021916908373ffffffffffffffffffffffffffffffffffffffff160217905550565b5f82825260208201905092915050565b7f657263373231206f6e6c790000000000000000000000000000000000000000005f82015250565b5f610475600b83610431565b915061048082610441565b602082019050919050565b5f6020820190508181035f8301526104a281610469565b9050919050565b5f5ffd5b5f73ffffffffffffffffffffffffffffffffffffffff82169050919050565b5f6104d6826104ad565b9050919050565b6104e6816104cc565b81146104f0575f5ffd5b50565b5f81359050610501816104dd565b92915050565b5f819050919050565b61051981610507565b8114610523575f5ffd5b50565b5f8135905061053481610510565b92915050565b5f5f5f60608486031215610551576105506104a9565b5b5f61055e868287016104f3565b935050602061056f868287016104f3565b925050604061058086828701610526565b9150509250925092565b5f6020828403121561059f5761059e6104a9565b5b5f6105ac84828501610526565b91505092915050565b6105be816104cc565b82525050565b5f6020820190506105d75f8301846105b5565b92915050565b5f602082840312156105f2576105f16104a9565b5b5f6105ff848285016104f3565b91505092915050565b7f6e6f74206f776e657200000000000000000000000000000000000000000000005f82015250565b5f61063c600983610431565b915061064782610608565b602082019050919050565b5f6020820190508181035f83015261066981610630565b905091905056fea2646970667358221220ad0f5c527c0cdf7dd56be4b03ecc552e0c576d639a6af6a2d904195400c9b67f64736f6c634300081e0033","linkReferences":{}},"methodIdentifiers":{"mint(uint256)":"a0712d68","ownerOf(uint256)":"6352211e","proxyInfo(address)":"a9c7b2c8","registerProxy()":"ddd81f82","safeTransferFrom(address,address,uint256)":"42842e0e"},"id":0}