{"abi":[{"type":"constructor","inputs":[],"stateMutability":"nonpayable"},{"type":"receive","stateMutability":"payable"},{"type":"function","name":"executeOnOpportunity","inputs":[],"outputs":[],"stateMutability":"nonpayable"},{"type":"function","name":"exploitPathUsed","inputs":[],"outputs":[{"name":"","type":"string","internalType":"string"}],"stateMutability":"view"},{"type":"function","name":"hypothesisRefuted","inputs":[],"outputs":[{"name":"","type":"bool","internalType":"bool"}],"stateMutability":"view"},{"type":"function","name":"hypothesisValidated","inputs":[],"outputs":[{"name":"","type":"bool","internalType":"bool"}],"stateMutability":"view"},{"type":"function","name":"infeasibilityReason","inputs":[],"outputs":[{"name":"","type":"string","internalType":"string"}],"stateMutability":"view"},{"type":"function","name":"path0_oracleListedBeforeValidate","inputs":[],"outputs":[{"name":"","type":"bool","internalType":"bool"}],"stateMutability":"view"},{"type":"function","name":"path1_borrowReporterBackedDebtPricedAtOne","inputs":[],"outputs":[{"name":"","type":"bool","internalType":"bool"}],"stateMutability":"view"},{"type":"function","name":"path2_fixedEthAssetsDependOnEthReporter","inputs":[],"outputs":[{"name":"","type":"bool","internalType":"bool"}],"stateMutability":"view"},{"type":"function","name":"profitAchieved","inputs":[],"outputs":[{"name":"","type":"bool","internalType":"bool"}],"stateMutability":"view"},{"type":"function","name":"profitAmount","inputs":[],"outputs":[{"name":"","type":"uint256","internalType":"uint256"}],"stateMutability":"view"},{"type":"function","name":"profitToken","inputs":[],"outputs":[{"name":"","type":"address","internalType":"address"}],"stateMutability":"view"},{"type":"function","name":"receiveFlashLoan","inputs":[{"name":"tokens","type":"address[]","internalType":"contract IERC20Like[]"},{"name":"amounts","type":"uint256[]","internalType":"uint256[]"},{"name":"feeAmounts","type":"uint256[]","internalType":"uint256[]"},{"name":"","type":"bytes","internalType":"bytes"}],"outputs":[],"stateMutability":"nonpayable"},{"type":"function","name":"uniswapV3SwapCallback","inputs":[{"name":"amount0Delta","type":"int256","internalType":"int256"},{"name":"amount1Delta","type":"int256","internalType":"int256"},{"name":"data","type":"bytes","internalType":"bytes"}],"outputs":[],"stateMutability":"nonpayable"}],"bytecode":{"object":"0x60808060405234603a575f80546001600160a01b03191673c02aaa39b223fe8d0a0e5c4f27ead9083c756cc2179055613e18908161003f8239f35b5f80fdfe608080604052600436101561001c575b50361561001a575f80fd5b005b5f905f3560e01c9081631f4adb851461172a575080633c2448ed14611712578063463defd1146116ed57806349343624146116c6578063495f92f1146116a15780635ff972cc146116845780636ca16afc1461165f57806389118d191461163b578063d78c4281146115a9578063dfa6be1b146114da578063f04f2707146102d2578063f0a01176146102af5763fa461e330361000f57346102ac5760603660031901126102ac5760443560243560043567ffffffffffffffff83116102a657366023840112156102a657826004013567ffffffffffffffff81116102aa5783013660248201116102aa57604090849003126102a65761012a604461012360248601613422565b9401613422565b926001600160a01b031633036102765783918282131561023357509181925b82604051602081019263a9059cbb60e01b84523360248301526044820152604481526101766064826117b4565b51926001600160a01b03165af13d1561022c573d6101938161186f565b906101a160405192836117b4565b81523d83602083013e5b816101f1575b50156101ba5780f35b60405162461bcd60e51b815260206004820152600f60248201526e1d1c985b9cd9995c8b59985a5b1959608a1b6044820152606490fd5b8051801592508215610206575b50505f6101b1565b8192509060209181010312610228576020610221910161189f565b5f806101fe565b5080fd5b60606101ab565b9182131590506102465782918291610149565b60405162461bcd60e51b81526020600482015260086024820152676e6f2d64656c746160c01b6044820152606490fd5b60405162461bcd60e51b81526020600482015260086024820152671898590b5c1bdbdb60c21b6044820152606490fd5b8380fd5b845b80fd5b50346102ac57806003193601126102ac57602060ff600254166040519015158152f35b50346109095760803660031901126109095760043567ffffffffffffffff8111610909573660238201121561090957806004013561030f816117fa565b9161031d60405193846117b4565b8183526024602084019260051b8201019036821161090957602401915b8183106114ba5750505060243567ffffffffffffffff811161090957610364903690600401611812565b9060443567ffffffffffffffff811161090957610385903690600401611812565b9060643567ffffffffffffffff81116109095736602382011215610909578060040135906103b28261186f565b916103c060405193846117b4565b8083523660248284010111610909575f92816024602094018483013701015273ba12222222228d8ba445958a75a0704d566bf2c833036114895760ff600a5416156114535760018151149081611428575b50156113f7576001825114806113dd575b156113ab576104486104529161044161043a856118da565b51916118da565b5190613401565b91826009556118da565b51801561137a57610461613af4565b611342576040516370a0823160e01b81523060048201526020816024815f516020613dc35f395f51905f525afa9182156113005784915f9361130b575b504781811061128f575b505f516020613dc35f395f51905f523b15610228578160049160405192838092631249c58b60e01b82525f516020613dc35f395f51905f525af180156112845761126f575b50506040516370a0823160e01b8152306004820152906020826024815f516020613dc35f395f51905f525afa8015611264578490611230575b6105309250613795565b156111fd57604090815161054483826117b4565b600181526020810190601f1984013683375f516020613dc35f395f51905f5261056c826118da565b528484518093631853304760e31b825260248201936020600484015251809452604482019093835b8181106111d8575050819293500381835f516020613da35f395f51905f525af19081156110f6578491611148575b5060018151149081611136575b5015611103578151635ec88c7960e01b81523060048201526060816024815f516020613da35f395f51905f525afa80156110f657849185916110bb575b5015806110b2575b1561107f57600554835163fc57d4df60e01b81526001600160a01b03909116600482018190529185916020816024817350ce56a3239671ab62f185704caedf626352741e5afa87918161104b575b50611043575b50811561100d576106829161067c91613cc9565b9161398c565b8015610fdd5760638102908104606303610fc9576064900480821015610fc257505b8015610f905760018060a01b0360065416849185905b600a8210610ded575b50505015610db9576106d3613b78565b506106dc6137a2565b6106e881600854613401565b66038d7ea4c680008101809111610da55782516370a0823160e01b81523060048201526020816024815f516020613d235f395f51905f525afa908115610b47578591610d73575b5081811061092e575b50506107426137a2565b15610921575b80516370a0823160e01b81523060048201526020816024815f516020613d235f395f51905f525afa9081156109155783916108df575b506009548091106108a6578280918351602081019163a9059cbb60e01b835273ba12222222228d8ba445958a75a0704d566bf2c860248301526044820152604481526107cb6064826117b4565b5190825f516020613d235f395f51905f525af13d1561089f573d6107ee8161186f565b906107fb845192836117b4565b81523d84602083013e5b81610864575b501561082f575061081a6137a2565b6108226137fb565b60ff19600a5416600a5580f35b5162461bcd60e51b815260206004820152600f60248201526e1d1c985b9cd9995c8b59985a5b1959608a1b6044820152606490fd5b8051801592508215610879575b50505f61080b565b819250906020918101031261089b576020610894910161189f565b5f80610871565b8280fd5b6060610805565b815162461bcd60e51b8152602060048201526012602482015271696e73756666696369656e742d726570617960701b6044820152606490fd5b90506020813d60201161090d575b816108fa602093836117b4565b8101031261090957515f61077e565b5f80fd5b3d91506108ed565b505051903d90823e3d90fd5b6109296137fb565b610748565b61093791613795565b8015610d43576001600160ff1b038111610d0e576007548351630dfe168160e01b81526001600160a01b0390911690602081600481855afa908115610d04578691610cc6575b50845163d21220a760e01b815291602083600481845afa928315610cbc578793610c7c575b506006546001600160a01b03908116939216808414928391859083610c5c575b8315610c27575b50505015610bf15785516370a0823160e01b815230600482015293602085602481875afa948515610be7578895610bb3575b508215610b98576401000276a4925b600160ff1b8214610b8457918794939189869485519684602089015286880152858752610a386060886117b4565b610a7e865197889687958694630251596160e31b865230600487015260248601528503604485015260018060a01b0316606484015260a0608484015260a48301906117d6565b03925af18015610b7a57610b51575b505060065483516370a0823160e01b81523060048201529190602090839060249082906001600160a01b03165afa908115610b47578591610b11575b610ad39250613795565b15610adf575f80610738565b815162461bcd60e51b815260206004820152600b60248201526a1cddd85c0b59985a5b195960aa1b6044820152606490fd5b90506020823d602011610b3f575b81610b2c602093836117b4565b8101031261090957610ad3915190610ac9565b3d9150610b1f565b84513d87823e3d90fd5b813d8311610b73575b610b6481836117b4565b810103126102a657825f610a8d565b503d610b5a565b82513d88823e3d90fd5b634e487b7160e01b89526011600452602489fd5b73fffd8963efd1fc6a506488495d951d5263988d2592610a0a565b9094506020813d602011610bdf575b81610bcf602093836117b4565b810103126109095751935f6109fb565b3d9150610bc2565b87513d8a823e3d90fd5b855162461bcd60e51b815260206004820152600f60248201526e1d5b995e1c1958dd19590b5c1bdbdb608a1b6044820152606490fd5b5f516020613d235f395f51905f521492509082610c49575b50505f84816109c9565b6001600160a01b0316149050835f610c3f565b6001600160a01b0383165f516020613d235f395f51905f521493506109c2565b9092506020813d602011610cb4575b81610c98602093836117b4565b81010312610cb057610ca99061188b565b915f6109a2565b8680fd5b3d9150610c8b565b86513d89823e3d90fd5b90506020813d602011610cfc575b81610ce1602093836117b4565b81010312610cf857610cf29061188b565b5f61097d565b8580fd5b3d9150610cd4565b85513d88823e3d90fd5b825162461bcd60e51b815260206004820152600e60248201526d737761702d746f6f2d6c6172676560901b6044820152606490fd5b825162461bcd60e51b8152602060048201526009602482015268737761702d7a65726f60b81b6044820152606490fd5b90506020813d602011610d9d575b81610d8e602093836117b4565b8101031261090957515f61072f565b3d9150610d81565b634e487b7160e01b84526011600452602484fd5b815162461bcd60e51b815260206004820152600d60248201526c189bdc9c9bddcb59985a5b1959609a1b6044820152606490fd5b8015610f8b5785516370a0823160e01b8152306004820152602081602481875afa908115610be7578891610f5a575b50600554875163317afabb60e21b81526004810184905290602090829060249082908d906001600160a01b03165af1908115610f50578991610f1f575b5087516370a0823160e01b815230600482015290602082602481895afa918215610f15578a92610ee2575b501580610ed9575b610ec257505060038102908104600303610eae5760019060021c9101906106ba565b634e487b7160e01b87526011600452602487fd5b9250925050610ed19250613795565b5f80806106c3565b50818111610e8c565b9091506020813d8211610f0d575b81610efd602093836117b4565b810103126109095751905f610e84565b3d9150610ef0565b89513d8c823e3d90fd5b90506020813d8211610f48575b81610f39602093836117b4565b8101031261090957515f610e59565b3d9150610f2c565b88513d8b823e3d90fd5b90506020813d8211610f83575b81610f74602093836117b4565b8101031261090957515f610e1c565b3d9150610f67565b6106c3565b825162461bcd60e51b815260206004820152600b60248201526a626f72726f772d7a65726f60a81b6044820152606490fd5b90506106a4565b634e487b7160e01b85526011600452602485fd5b835162461bcd60e51b8152602060048201526009602482015268636173682d7a65726f60b81b6044820152606490fd5b845162461bcd60e51b815260206004820152600f60248201526e646562742d70726963652d7a65726f60881b6044820152606490fd5b91505f610668565b9091506020813d602011611077575b81611067602093836117b4565b810103126109095751905f610662565b3d915061105a565b825162461bcd60e51b815260206004820152600c60248201526b6e6f2d6c697175696469747960a01b6044820152606490fd5b50801515610614565b9150506060813d6060116110ee575b816110d7606093836117b4565b810103126102a6578260208201519101515f61060c565b3d91506110ca565b50505051903d90823e3d90fd5b815162461bcd60e51b815260206004820152600c60248201526b195b9d195c8b59985a5b195960a21b6044820152606490fd5b61114091506118da565b51155f6105cf565b90503d8085833e61115981836117b4565b8101906020818303126102aa5780519067ffffffffffffffff8211610cf857019080601f830112156102aa578151611190816117fa565b9261119d865194856117b4565b81845260208085019260051b820101928311610cb057602001905b8282106111c8575050505f6105c2565b81518152602091820191016111b8565b85516001600160a01b031683526020958601958a955087945090920191600101610594565b60405162461bcd60e51b815260206004820152600b60248201526a1b5a5b9d0b59985a5b195960aa1b6044820152606490fd5b506020823d60201161125c575b8161124a602093836117b4565b81010312610909576105309151610526565b3d915061123d565b6040513d86823e3d90fd5b81611279916117b4565b61089b57825f6104ed565b6040513d84823e3d90fd5b8161129b929350613795565b5f516020613d235f395f51905f523b156109095760405190632e1a7d4d60e01b825260048201525f81602481835f516020613d235f395f51905f525af18015611300576112eb575b9084916104a8565b6112f89194505f906117b4565b5f925f6112e3565b6040513d5f823e3d90fd5b915091506020813d60201161133a575b81611328602093836117b4565b8101031261090957839051915f61049e565b3d915061131b565b60405162461bcd60e51b815260206004820152601060248201526f18d95d1a0b5b5a5b9d0b5c185d5cd95960821b6044820152606490fd5b60405162461bcd60e51b81526020600482015260096024820152681e995c9bcb5cd9595960ba1b6044820152606490fd5b60405162461bcd60e51b815260206004820152600a6024820152691898590b585b5bdd5b9d60b21b6044820152606490fd5b5067016345785d8a00006113f0836118da565b5114610422565b60405162461bcd60e51b81526020600482015260096024820152683130b216ba37b5b2b760b91b6044820152606490fd5b5f516020613d235f395f51905f5291506001600160a01b039061144a906118da565b5116145f610411565b60405162461bcd60e51b815260206004820152600e60248201526d666c6173682d696e61637469766560901b6044820152606490fd5b60405162461bcd60e51b81526020600482015260096024820152681898590b5d985d5b1d60ba1b6044820152606490fd5b82356001600160a01b03811681036109095781526020928301920161033a565b34610909575f366003190112610909576040515f6004546114fa8161174c565b8084529060018116908115611585575060011461153a575b61153683611522818503826117b4565b6040519182916020835260208301906117d6565b0390f35b60045f9081525f516020613d835f395f51905f52939250905b80821061156b57509091508101602001611522611512565b919260018160209254838588010152019101909291611553565b60ff191660208086019190915291151560051b840190910191506115229050611512565b34610909575f366003190112610909576040515f6003546115c98161174c565b808452906001811690811561158557506001146115f05761153683611522818503826117b4565b60035f9081525f516020613d435f395f51905f52939250905b80821061162157509091508101602001611522611512565b919260018160209254838588010152019101909291611609565b34610909575f36600319011261090957602060ff600254821c166040519015158152f35b34610909575f36600319011261090957602060ff60025460181c166040519015158152f35b34610909575f366003190112610909576020600154604051908152f35b34610909575f36600319011261090957602060ff60025460101c166040519015158152f35b34610909575f366003190112610909575f546040516001600160a01b039091168152602090f35b34610909575f36600319011261090957602060ff60025460081c166040519015158152f35b34610909575f3660031901126109095761001a6118fb565b34610909575f3660031901126109095760209060ff60025460281c1615158152f35b90600182811c9216801561177a575b602083101461176657565b634e487b7160e01b5f52602260045260245ffd5b91607f169161175b565b60a0810190811067ffffffffffffffff8211176117a057604052565b634e487b7160e01b5f52604160045260245ffd5b90601f8019910116810190811067ffffffffffffffff8211176117a057604052565b805180835260209291819084018484015e5f828201840152601f01601f1916010190565b67ffffffffffffffff81116117a05760051b60200190565b9080601f83011215610909578135611829816117fa565b9261183760405194856117b4565b81845260208085019260051b82010192831161090957602001905b82821061185f5750505090565b8135815260209182019101611852565b67ffffffffffffffff81116117a057601f01601f191660200190565b51906001600160a01b038216820361090957565b5190811515820361090957565b91908260409103126109095781516001600160f81b03811681036109095760206118d791930161189f565b90565b8051156118e75760200190565b634e487b7160e01b5f52603260045260245ffd5b5f5f516020613d235f395f51905f526001600160601b0360a01b5f5416175f555f60015565ffffffffffff196002541660025561193960035461174c565b601f81116133cc575b505f60035561195260045461174c565b601f8111613397575b505f6004556001600160601b0360a01b600554166005556001600160601b0360a01b600654166006556001600160601b0360a01b6007541660075560ff19600a5416600a555f6009556040516307dc0d1d60e41b81526020816004815f516020613da35f395f51905f525afa8015611300575f9061334a575b6001600160a01b03167350ce56a3239671ab62f185704caedf626352741d190190506132de57611a02613436565b6008556040805163304235e360e11b81527faaaebeba3810b1e6b70781f14b2d72c1cb89c0b2b320c43bb67ff79f562f5ff4600482015290816024817350ce56a3239671ab62f185704caedf626352741e5afa9081156112845782916132be575b50604051611a7081611784565b82815282602082015282604082015282606082015282608082015290604051638e499bcf60e01b81526020816004817350ce56a3239671ab62f185704caedf626352741e5afa90811561126457849161328c575b50835b818110612ffa57505081516002805464ff000000001981166001600160a01b0393909316151560201b64ff000000001692831790915560ff926001600160f81b031660011480612fe3575b151560281b65ff0000000000169165ffff0000000019821681178317602081901c851692908315612fd2575b5063ff00000061ff0092869265ffffff00000019161793151560181b16809383198116861795171760181c16151560081b169062ff000084838584171760081c161560101b169262ff000019161717178060025560181c1615612ec45760ff60025460201c1615612d3957611bb161365f565b15612c6f578051600580546001600160a01b03199081166001600160a01b03938416179091556020830151600680548316918416919091179055604090920151600780549093169116179055600354611c099061174c565b601f8111612c1c575b50610379600355600381527f6f7261636c65206c6973746564206265666f7265207265706f727465722076615f516020613d435f395f51905f52557f6c69646174652829202d3e207573652076657269666965722d68656c642057457fc2575a0e9e593c00f959f8c92f12db2869c3395a3b0502d05e2516446f71f85c557f54482f4554482066697273742c206f746865727769736520666c6173682d6c6f7fc2575a0e9e593c00f959f8c92f12db2869c3395a3b0502d05e2516446f71f85d557f616e207075626c69632057455448206c6971756964697479202d3e206d696e747fc2575a0e9e593c00f959f8c92f12db2869c3395a3b0502d05e2516446f71f85e557f206345544820636f6c6c61746572616c202d3e20656e74657220436f6d706f757fc2575a0e9e593c00f959f8c92f12db2869c3395a3b0502d05e2516446f71f85f557f6e64202d3e20626f72726f7720746865207265706f727465722d6261636b65647fc2575a0e9e593c00f959f8c92f12db2869c3395a3b0502d05e2516446f71f860557f206d61726b65742077686f73652073746f726564206f7261636c6520707269637fc2575a0e9e593c00f959f8c92f12db2869c3395a3b0502d05e2516446f71f861557f65206973207374696c6c2074686520636f6e7374727563746f722064656661757fc2575a0e9e593c00f959f8c92f12db2869c3395a3b0502d05e2516446f71f862557f6c74206f662031202d3e2073776170206f6e6c792074686520706f7274696f6e7fc2575a0e9e593c00f959f8c92f12db2869c3395a3b0502d05e2516446f71f863557f206e6565646564207468726f7567682074686174206d61726b6574277320636f7fc2575a0e9e593c00f959f8c92f12db2869c3395a3b0502d05e2516446f71f864557f6e66696775726564207075626c696320616e63686f7220706f6f6c20746f20727fc2575a0e9e593c00f959f8c92f12db2869c3395a3b0502d05e2516446f71f865557f657061792074656d706f726172792066756e64696e6720616e64206c6f636b207fc2575a0e9e593c00f959f8c92f12db2869c3395a3b0502d05e2516446f71f866557f696e20574554482070726f666974207768696c652074686520646562742072657fc2575a0e9e593c00f959f8c92f12db2869c3395a3b0502d05e2516446f71f867557f6d61696e73206d6173736976656c7920756e64657263686172676564000000007fc2575a0e9e593c00f959f8c92f12db2869c3395a3b0502d05e2516446f71f86855611fbc613436565b67016345785d8a0000811015612c0d575b80158015612158575050600160ff19600a541617600a556040805190611ff381836117b4565b60018252601f19810160208301813682375f516020613d235f395f51905f5261201b856118da565b52825161202884826117b4565b60018152602081019236843767016345785d8a0000612046826118da565b5273ba12222222228d8ba445958a75a0704d566bf2c83b15610cf8578351632e1c224f60e11b81523060048201526080602482015294516084860181905260a4860193879387939192855b8181106121335750505082850360031901604484015251808552909360200190835b8181106121175750508282602093949550820391600319830160648601525201818373ba12222222228d8ba445958a75a0704d566bf2c85af190811561210e57506120fc575050565b6121078280926117b4565b6102ac5750565b513d84823e3d90fd5b85518352602095860195899550889450909201916001016120b3565b82516001600160a01b031688526020978801978b97508a965090920191600101612091565b61137a57612164613af4565b611342576040516370a0823160e01b8152306004820152906020826024815f516020613dc35f395f51905f525afa918215612b49578392612bd9575b5047818110612b69575b505f516020613dc35f395f51905f523b1561089b578260049160405192838092631249c58b60e01b82525f516020613dc35f395f51905f525af18015612b4957908391612b54575b50506040516370a0823160e01b8152306004820152906020826024815f516020613dc35f395f51905f525afa8015612b49578390612b15575b6122359250613795565b156111fd57604090815161224983826117b4565b600181526020810190601f1984013683375f516020613dc35f395f51905f52612271826118da565b528284518093631853304760e31b825260248201936020600484015251809452604482019093835b818110612af0575050819293500381835f516020613da35f395f51905f525af1908115612a44578291612a60575b5060018151149081612a4e575b5015611103578151635ec88c7960e01b81523060048201526060816024815f516020613da35f395f51905f525afa8015612a445782918391612a09575b501580612a00575b1561107f57600554835163fc57d4df60e01b81526001600160a01b03909116600482018190529183916020816024817350ce56a3239671ab62f185704caedf626352741e5afa8591816129cc575b506129c4575b50811561100d576123819161067c91613cc9565b8015610fdd57606381029081046063036129b05760649004808210156129a957505b8015610f905760018060a01b0360065416829183905b600a821061281a575b50505015610db9576123d2613b78565b506123db6137a2565b60085466038d7ea4c6800081018091116128065782516370a0823160e01b81523060048201526020816024815f516020613d235f395f51905f525afa9081156126925783916127d4575b50818110612444575b5050505061243a6137a2565b6124426137fb565b565b61244d91613795565b8015610d43576001600160ff1b038111610d0e576007548351630dfe168160e01b81526001600160a01b0390911690602081600481855afa9081156127ca578491612790575b50845163d21220a760e01b815291602083600481845afa92831561278657859361274a575b506006546001600160a01b0390811693921680841492839185908361272a575b83156126f5575b50505015610bf15785516370a0823160e01b815230600482015293602085602481875afa9485156126eb5786956126b7575b50821561269c576401000276a4925b600160ff1b8214610eae579086889493928551968460208901528688015285875261254c6060886117b4565b612592865197889687958694630251596160e31b865230600487015260248601528503604485015260018060a01b0316606484015260a0608484015260a48301906117d6565b03925af1801561269257908491612669575b505060065483516370a0823160e01b8152306004820152929190602090849060249082906001600160a01b03165afa91821561265e5791612628575b6125ea9250613795565b156125f75780808061242e565b5162461bcd60e51b815260206004820152600b60248201526a1cddd85c0b59985a5b195960aa1b6044820152606490fd5b90506020823d602011612656575b81612643602093836117b4565b81010312610909576125ea9151906125e0565b3d9150612636565b8451903d90823e3d90fd5b813d831161268b575b61267c81836117b4565b8101031261022857825f6125a4565b503d612672565b84513d85823e3d90fd5b73fffd8963efd1fc6a506488495d951d5263988d2592612520565b9094506020813d6020116126e3575b816126d3602093836117b4565b810103126109095751935f612511565b3d91506126c6565b87513d88823e3d90fd5b5f516020613d235f395f51905f521492509082612717575b50505f84816124df565b6001600160a01b0316149050835f61270d565b6001600160a01b0383165f516020613d235f395f51905f521493506124d8565b9092506020813d60201161277e575b81612766602093836117b4565b810103126102aa576127779061188b565b915f6124b8565b3d9150612759565b86513d87823e3d90fd5b90506020813d6020116127c2575b816127ab602093836117b4565b810103126102a6576127bc9061188b565b5f612493565b3d915061279e565b85513d86823e3d90fd5b90506020813d6020116127fe575b816127ef602093836117b4565b8101031261090957515f612425565b3d91506127e2565b634e487b7160e01b82526011600452602482fd5b80156129a45785516370a0823160e01b8152306004820152602081602481875afa9081156126eb578691612973575b50600554875163317afabb60e21b81526004810184905290602090829060249082908b906001600160a01b03165af1908115612969578791612938575b5087516370a0823160e01b815230600482015290602082602481895afa91821561292e5788926128fb575b5015806128f2575b6128db57505060038102908104600303610fc95760019060021c9101906123b9565b92509250506128ea9250613795565b5f80806123c2565b508181116128b9565b9091506020813d8211612926575b81612916602093836117b4565b810103126109095751905f6128b1565b3d9150612909565b89513d8a823e3d90fd5b90506020813d8211612961575b81612952602093836117b4565b8101031261090957515f612886565b3d9150612945565b88513d89823e3d90fd5b90506020813d821161299c575b8161298d602093836117b4565b8101031261090957515f612849565b3d9150612980565b6123c2565b90506123a3565b634e487b7160e01b83526011600452602483fd5b91505f61236d565b9091506020813d6020116129f8575b816129e8602093836117b4565b810103126109095751905f612367565b3d91506129db565b50801515612319565b9150506060813d606011612a3c575b81612a25606093836117b4565b81010312610228578260208201519101515f612311565b3d9150612a18565b83513d84823e3d90fd5b612a5891506118da565b51155f6122d4565b90503d8083833e612a7181836117b4565b81019060208183031261089b5780519067ffffffffffffffff82116102a657019080601f8301121561089b578151612aa8816117fa565b92612ab5865194856117b4565b81845260208085019260051b8201019283116102aa57602001905b828210612ae0575050505f6122c7565b8151815260209182019101612ad0565b85516001600160a01b0316835260209586019588955087945090920191600101612299565b506020823d602011612b41575b81612b2f602093836117b4565b8101031261090957612235915161222b565b3d9150612b22565b6040513d85823e3d90fd5b81612b5e916117b4565b61022857815f6121f2565b612b739082613795565b5f516020613d235f395f51905f523b156102a65760405190632e1a7d4d60e01b825260048201528381602481835f516020613d235f395f51905f525af1801561126457908491612bc4575b506121aa565b81612bce916117b4565b61089b57825f612bbe565b9091506020813d602011612c05575b81612bf5602093836117b4565b810103126109095751905f6121a0565b3d9150612be8565b5067016345785d8a0000611fcd565b60038252601f0160051c5f516020613d435f395f51905f52017fc2575a0e9e593c00f959f8c92f12db2869c3395a3b0502d05e2516446f71f8695b818110612c645750611c12565b828155600101612c57565b50612c7b60045461174c565b601f8111612ce6575b5060049060698255527f634554482063616e6e6f742062652075736564206173206c69766520636f6c6c5f516020613d835f395f51905f52557330ba32b930b61037b7103a3434b9903337b9359760611b5f516020613d635f395f51905f5255565b60048252601f0160051c5f516020613d835f395f51905f52017f8a35acfbc15ff81a39ae7d344fd709f28e8600b4aa8c65c6b64bfe7fe36bd19d5b818110612d2e5750612c84565b828155600101612d21565b50612d4560045461174c565b601f8111612e71575b506004906101178255527f54686520455448207265706f727465722070617468206d6179207374696c6c205f516020613d835f395f51905f52557f6d617474657220666f722046495845445f455448206173736574732c206275745f516020613d635f395f51905f52557f206e6f20626f72726f7761626c65207265706f727465722d6261636b656420647f8a35acfbc15ff81a39ae7d344fd709f28e8600b4aa8c65c6b64bfe7fe36bd19d557f656274206d61726b65742072656d61696e7320737475636b2061742031206f6e7f8a35acfbc15ff81a39ae7d344fd709f28e8600b4aa8c65c6b64bfe7fe36bd19e556a103a3434b9903337b9359760a91b7f8a35acfbc15ff81a39ae7d344fd709f28e8600b4aa8c65c6b64bfe7fe36bd19f55565b60048252601f0160051c5f516020613d835f395f51905f52017f8a35acfbc15ff81a39ae7d344fd709f28e8600b4aa8c65c6b64bfe7fe36bd1a05b818110612eb95750612d4e565b828155600101612eac565b50612ed060045461174c565b601f8111612f7f575b5060049060ab8255527f4e6f206c6973746564206d61726b6574206f6e207468697320666f726b2073745f516020613d835f395f51905f52557f696c6c206578706f7365732074686520636f6e7374727563746f722d74696d655f516020613d635f395f51905f525574103932b837b93a32b910383934b1b29037b310189760591b7f8a35acfbc15ff81a39ae7d344fd709f28e8600b4aa8c65c6b64bfe7fe36bd19d55565b60048252601f0160051c5f516020613d835f395f51905f52017f8a35acfbc15ff81a39ae7d344fd709f28e8600b4aa8c65c6b64bfe7fe36bd19e5b818110612fc75750612ed9565b828155600101612fba565b60281c8516925063ff000000611b3e565b5065ff0000000000612ff361351f565b9050611b12565b604051631140071160e31b815260048101829052610140816024817350ce56a3239671ab62f185704caedf626352741e5afa80156132815786918791889189908a92613238575b5060ff600291160361315057613056846139f9565b806131a7575b15613150576001600160a01b0383169283158015613196575b613143576130839082613837565b156131505760405163304235e360e11b81528260048201526040816024817350ce56a3239671ab62f185704caedf626352741e5afa90811561318b57906001918b9161315c575b50818060f81b031603613150576130e08461398c565b9283156131435760808901518411613102575b50505050506001905b01611ac7565b60019598506040519461311486611784565b868060a01b031685526020850152848060a01b031660408401526060830152608082015293905f8080806130f3565b50505050506001906130fc565b505050506001906130fc565b61317d915060403d8111613184575b61317581836117b4565b8101906118ac565b505f6130ca565b503d61316b565b6040513d8c823e3d90fd5b506001600160a01b03821615613075565b50604051636d154ea560e01b81526001600160a01b038516600482015289906020816024815f516020613da35f395f51905f525afa8b91816131f9575b506131f1575b501561305c565b90505f6131ea565b9091506020813d8211613230575b81613214602093836117b4565b8101031261322c576132259061189f565b905f6131e4565b8b80fd5b3d9150613207565b9150506002935060ff925061326591506101403d811161327a575b61325d81836117b4565b8101906134ac565b50505094979396925050939594939150613041565b503d613253565b6040513d88823e3d90fd5b90506020813d6020116132b6575b816132a7602093836117b4565b8101031261090957515f611ac4565b3d915061329a565b6132d7915060403d6040116131845761317581836117b4565b505f611a63565b50607760045560045f527f436f6d706f756e64206973206e6f742063757272656e746c7920706f696e74655f516020613d835f395f51905f52557f64206174207468652076756c6e657261626c65206f7261636c652e00000000005f516020613d635f395f51905f5255565b506020813d60201161338f575b81613364602093836117b4565b810103126109095761338a7350ce56a3239671ab62f185704caedf626352741e9161188b565b6119d4565b3d9150613357565b60045f52601f0160051c5f516020613d835f395f51905f52908101905b8181106133c1575061195b565b5f81556001016133b4565b60035f52601f0160051c5f516020613d435f395f51905f52908101905b8181106133f65750611942565b5f81556001016133e9565b9190820180921161340e57565b634e487b7160e01b5f52601160045260245ffd5b35906001600160a01b038216820361090957565b6040516370a0823160e01b81523060048201526020816024815f516020613d235f395f51905f525afa8015611300575f90613478575b6118d791504790613401565b506020813d6020116134a4575b81613492602093836117b4565b81010312610909576118d7905161346c565b3d9150613485565b919082610140910312610909576134c28261188b565b916134cf6020820161188b565b91604082015191606081015191608082015160ff81168103610909579160a0810151916134fe60c0830161188b565b9161350b60e0820161188b565b916118d7610120610100840151930161189f565b604051638e499bcf60e01b81526020816004817350ce56a3239671ab62f185704caedf626352741e5afa908115611300575f91613607575b505f5b8181106135675750505f90565b604051631140071160e31b815260048101829052610140816024817350ce56a3239671ab62f185704caedf626352741e5afa8015611300575f915f916135d8575b5060ff161590816135c8575b506135c15760010161355a565b5050600190565b6135d291506139f9565b5f6135b4565b60ff92506135f591506101403d811161327a5761325d81836117b4565b505050505094939250505091906135a8565b90506020813d602011613631575b81613622602093836117b4565b8101031261090957515f613557565b3d9150613615565b908160609103126109095761364d8161189f565b916118d760406020840151930161189f565b6136755f516020613dc35f395f51905f526139f9565b1561374d5760405163731f0c2b60e01b81525f516020613dc35f395f51905f5260048201525f906020816024815f516020613da35f395f51905f525afa5f9181613759575b50613751575b5061374d57604051638e8f294b60e01b81525f516020613dc35f395f51905f5260048201526060816024815f516020613da35f395f51905f525afa8015611300575f915f9161371b575b5081613714575090565b9050151590565b905061373f915060603d606011613746575b61373781836117b4565b810190613639565b505f61370a565b503d61372d565b5f90565b90505f6136c0565b9091506020813d60201161378d575b81613775602093836117b4565b81010312610909576137869061189f565b905f6136ba565b3d9150613768565b9190820391821161340e57565b47806137ab5750565b5f516020613d235f395f51905f523b15610909575f60049160405192838092630d0e30db60e41b82525f516020613d235f395f51905f525af18015611300576137f15750565b5f612442916117b4565b613803613436565b600854808211613811575050565b61381a91613795565b8060015560ff66038d7ea4c6800081196002541692111617600255565b604051630dfe168160e01b8152916001600160a01b039190911690602083600481855afa5f9381613950575b5061386f575050505f90565b60206004926040519384809263d21220a760e01b82525afa5f9281613914575b5061389b575050505f90565b6001600160a01b03928316921682811492836138f4575b83156138bf575b50505090565b5f516020613d235f395f51905f5214925090826138e1575b50505f80806138b9565b6001600160a01b03161490505f806138d7565b6001600160a01b0383165f516020613d235f395f51905f521493506138b2565b9092506020813d602011613948575b81613930602093836117b4565b81010312610909576139419061188b565b915f61388f565b3d9150613923565b9093506020813d602011613984575b8161396c602093836117b4565b810103126109095761397d9061188b565b925f613863565b3d915061395f565b604051631d8e90d160e11b81525f9291602090829060049082906001600160a01b03165afa5f91816139c5575b506139c15750565b9150565b9091506020813d6020116139f1575b816139e1602093836117b4565b810103126109095751905f6139b9565b3d91506139d4565b6001600160a01b03168015613ab357604051635fe3b56760e01b8152602081600481855afa5f9181613ab8575b50613a315750505f90565b6001600160a01b0316733d9819210a31b4961b30ef54be2aed79b9c9cd3a1901613ab35760405190638e8f294b60e01b825260048201526060816024815f516020613da35f395f51905f525afa5f9181613a90575b506118d757505f90565b613aaa91925060603d6060116137465761373781836117b4565b5050905f613a86565b505f90565b9091506020813d602011613aec575b81613ad4602093836117b4565b8101031261090957613ae59061188b565b905f613a26565b3d9150613ac7565b60405163731f0c2b60e01b81525f516020613dc35f395f51905f5260048201525f91906020816024815f516020613da35f395f51905f525afa5f9181613b3c57506139c15750565b9091506020813d602011613b70575b81613b58602093836117b4565b8101031261090957613b699061189f565b905f6139b9565b3d9150613b4b565b6040516370a0823160e01b81523060048201525f91906020816024815f516020613dc35f395f51905f525afa908115611300575f91613c97575b506103e8811115613c91576103e719810190811161340e575f905b600a8210613bd9575050565b8015613c8d574760405163db006a7560e01b81528260048201526020816024815f5f516020613dc35f395f51905f525af1908115611300575f91613c5c575b5047901580613c53575b613c445750506003810290810460030361340e5760019060021c910190613bcd565b915091506118d7929350613795565b50818111613c22565b90506020813d8211613c85575b81613c76602093836117b4565b8101031261090957515f613c18565b3d9150613c69565b5050565b505f9150565b90506020813d602011613cc1575b81613cb2602093836117b4565b8101031261090957515f613bb2565b3d9150613ca5565b8015808015613d1a575b613d1357670de0b6b3a76400008202918204670de0b6b3a764000014171561340e578115613cff570490565b634e487b7160e01b5f52601260045260245ffd5b5050505f90565b508215613cd356fe000000000000000000000000c02aaa39b223fe8d0a0e5c4f27ead9083c756cc2c2575a0e9e593c00f959f8c92f12db2869c3395a3b0502d05e2516446f71f85b8a35acfbc15ff81a39ae7d344fd709f28e8600b4aa8c65c6b64bfe7fe36bd19c8a35acfbc15ff81a39ae7d344fd709f28e8600b4aa8c65c6b64bfe7fe36bd19b0000000000000000000000003d9819210a31b4961b30ef54be2aed79b9c9cd3b0000000000000000000000004ddc2d193948926d02f9b1fe9e1daa0718270ed5a2646970667358221220b88ee5946f5497d718bd082a208962fbcc4283a98f4e016f5610b7088efcd10f64736f6c634300081e0033","linkReferences":{}},"methodIdentifiers":{"executeOnOpportunity()":"3c2448ed","exploitPathUsed()":"d78c4281","hypothesisRefuted()":"495f92f1","hypothesisValidated()":"463defd1","infeasibilityReason()":"dfa6be1b","path0_oracleListedBeforeValidate()":"6ca16afc","path1_borrowReporterBackedDebtPricedAtOne()":"89118d19","path2_fixedEthAssetsDependOnEthReporter()":"1f4adb85","profitAchieved()":"f0a01176","profitAmount()":"5ff972cc","profitToken()":"49343624","receiveFlashLoan(address[],uint256[],uint256[],bytes)":"f04f2707","uniswapV3SwapCallback(int256,int256,bytes)":"fa461e33"},"id":0}